{
  "abi": [
    {
      "anonymous": false,
      "inputs": [
        {
          "indexed": true,
          "internalType": "address",
          "name": "owner",
          "type": "address"
        },
        {
          "indexed": true,
          "internalType": "address",
          "name": "approved",
          "type": "address"
        },
        {
          "indexed": true,
          "internalType": "uint256",
          "name": "tokenId",
          "type": "uint256"
        }
      ],
      "name": "Approval",
      "type": "event"
    },
    {
      "anonymous": false,
      "inputs": [
        {
          "indexed": true,
          "internalType": "address",
          "name": "owner",
          "type": "address"
        },
        {
          "indexed": true,
          "internalType": "address",
          "name": "operator",
          "type": "address"
        },
        {
          "indexed": false,
          "internalType": "bool",
          "name": "approved",
          "type": "bool"
        }
      ],
      "name": "ApprovalForAll",
      "type": "event"
    },
    {
      "anonymous": false,
      "inputs": [
        {
          "indexed": false,
          "internalType": "uint8",
          "name": "version",
          "type": "uint8"
        }
      ],
      "name": "Initialized",
      "type": "event"
    },
    {
      "anonymous": false,
      "inputs": [
        {
          "indexed": true,
          "internalType": "uint256",
          "name": "tokenId",
          "type": "uint256"
        },
        {
          "indexed": true,
          "internalType": "address",
          "name": "burner",
          "type": "address"
        }
      ],
      "name": "TokenBurned",
      "type": "event"
    },
    {
      "anonymous": false,
      "inputs": [
        {
          "indexed": true,
          "internalType": "address",
          "name": "from",
          "type": "address"
        },
        {
          "indexed": true,
          "internalType": "address",
          "name": "to",
          "type": "address"
        },
        {
          "indexed": true,
          "internalType": "uint256",
          "name": "tokenId",
          "type": "uint256"
        }
      ],
      "name": "Transfer",
      "type": "event"
    },
    {
      "inputs": [
        {
          "internalType": "address",
          "name": "to",
          "type": "address"
        },
        {
          "internalType": "uint256",
          "name": "tokenId",
          "type": "uint256"
        }
      ],
      "name": "approve",
      "outputs": [],
      "stateMutability": "nonpayable",
      "type": "function"
    },
    {
      "inputs": [
        {
          "internalType": "address",
          "name": "owner",
          "type": "address"
        }
      ],
      "name": "balanceOf",
      "outputs": [
        {
          "internalType": "uint256",
          "name": "",
          "type": "uint256"
        }
      ],
      "stateMutability": "view",
      "type": "function"
    },
    {
      "inputs": [
        {
          "internalType": "uint256",
          "name": "tokenId",
          "type": "uint256"
        }
      ],
      "name": "burn",
      "outputs": [],
      "stateMutability": "nonpayable",
      "type": "function"
    },
    {
      "inputs": [
        {
          "internalType": "address",
          "name": "",
          "type": "address"
        },
        {
          "internalType": "uint256",
          "name": "",
          "type": "uint256"
        }
      ],
      "name": "burnedTokens",
      "outputs": [
        {
          "internalType": "uint256",
          "name": "",
          "type": "uint256"
        }
      ],
      "stateMutability": "view",
      "type": "function"
    },
    {
      "inputs": [
        {
          "internalType": "address",
          "name": "previousOwner",
          "type": "address"
        }
      ],
      "name": "burnedTokensCount",
      "outputs": [
        {
          "internalType": "uint256",
          "name": "",
          "type": "uint256"
        }
      ],
      "stateMutability": "view",
      "type": "function"
    },
    {
      "inputs": [
        {
          "internalType": "uint256",
          "name": "",
          "type": "uint256"
        }
      ],
      "name": "burner",
      "outputs": [
        {
          "internalType": "address",
          "name": "",
          "type": "address"
        }
      ],
      "stateMutability": "view",
      "type": "function"
    },
    {
      "inputs": [
        {
          "internalType": "uint256",
          "name": "tokenId",
          "type": "uint256"
        }
      ],
      "name": "burnerOf",
      "outputs": [
        {
          "internalType": "address",
          "name": "",
          "type": "address"
        }
      ],
      "stateMutability": "view",
      "type": "function"
    },
    {
      "inputs": [
        {
          "internalType": "address",
          "name": "previousOwner",
          "type": "address"
        }
      ],
      "name": "didBurnTokens",
      "outputs": [
        {
          "internalType": "bool",
          "name": "",
          "type": "bool"
        }
      ],
      "stateMutability": "view",
      "type": "function"
    },
    {
      "inputs": [
        {
          "internalType": "uint256",
          "name": "tokenId",
          "type": "uint256"
        }
      ],
      "name": "getApproved",
      "outputs": [
        {
          "internalType": "address",
          "name": "",
          "type": "address"
        }
      ],
      "stateMutability": "view",
      "type": "function"
    },
    {
      "inputs": [
        {
          "internalType": "address",
          "name": "owner",
          "type": "address"
        },
        {
          "internalType": "address",
          "name": "operator",
          "type": "address"
        }
      ],
      "name": "isApprovedForAll",
      "outputs": [
        {
          "internalType": "bool",
          "name": "",
          "type": "bool"
        }
      ],
      "stateMutability": "view",
      "type": "function"
    },
    {
      "inputs": [],
      "name": "name",
      "outputs": [
        {
          "internalType": "string",
          "name": "",
          "type": "string"
        }
      ],
      "stateMutability": "view",
      "type": "function"
    },
    {
      "inputs": [
        {
          "internalType": "uint256",
          "name": "tokenId",
          "type": "uint256"
        }
      ],
      "name": "ownerOf",
      "outputs": [
        {
          "internalType": "address",
          "name": "",
          "type": "address"
        }
      ],
      "stateMutability": "view",
      "type": "function"
    },
    {
      "inputs": [
        {
          "internalType": "address",
          "name": "from",
          "type": "address"
        },
        {
          "internalType": "address",
          "name": "to",
          "type": "address"
        },
        {
          "internalType": "uint256",
          "name": "tokenId",
          "type": "uint256"
        }
      ],
      "name": "safeTransferFrom",
      "outputs": [],
      "stateMutability": "nonpayable",
      "type": "function"
    },
    {
      "inputs": [
        {
          "internalType": "address",
          "name": "from",
          "type": "address"
        },
        {
          "internalType": "address",
          "name": "to",
          "type": "address"
        },
        {
          "internalType": "uint256",
          "name": "tokenId",
          "type": "uint256"
        },
        {
          "internalType": "bytes",
          "name": "data",
          "type": "bytes"
        }
      ],
      "name": "safeTransferFrom",
      "outputs": [],
      "stateMutability": "nonpayable",
      "type": "function"
    },
    {
      "inputs": [
        {
          "internalType": "address",
          "name": "operator",
          "type": "address"
        },
        {
          "internalType": "bool",
          "name": "approved",
          "type": "bool"
        }
      ],
      "name": "setApprovalForAll",
      "outputs": [],
      "stateMutability": "nonpayable",
      "type": "function"
    },
    {
      "inputs": [
        {
          "internalType": "bytes4",
          "name": "interfaceId",
          "type": "bytes4"
        }
      ],
      "name": "supportsInterface",
      "outputs": [
        {
          "internalType": "bool",
          "name": "",
          "type": "bool"
        }
      ],
      "stateMutability": "view",
      "type": "function"
    },
    {
      "inputs": [],
      "name": "symbol",
      "outputs": [
        {
          "internalType": "string",
          "name": "",
          "type": "string"
        }
      ],
      "stateMutability": "view",
      "type": "function"
    },
    {
      "inputs": [
        {
          "internalType": "uint256",
          "name": "index",
          "type": "uint256"
        }
      ],
      "name": "tokenByIndex",
      "outputs": [
        {
          "internalType": "uint256",
          "name": "",
          "type": "uint256"
        }
      ],
      "stateMutability": "view",
      "type": "function"
    },
    {
      "inputs": [
        {
          "internalType": "address",
          "name": "owner",
          "type": "address"
        },
        {
          "internalType": "uint256",
          "name": "index",
          "type": "uint256"
        }
      ],
      "name": "tokenOfOwnerByIndex",
      "outputs": [
        {
          "internalType": "uint256",
          "name": "",
          "type": "uint256"
        }
      ],
      "stateMutability": "view",
      "type": "function"
    },
    {
      "inputs": [
        {
          "internalType": "uint256",
          "name": "tokenId",
          "type": "uint256"
        }
      ],
      "name": "tokenURI",
      "outputs": [
        {
          "internalType": "string",
          "name": "",
          "type": "string"
        }
      ],
      "stateMutability": "view",
      "type": "function"
    },
    {
      "inputs": [],
      "name": "totalSupply",
      "outputs": [
        {
          "internalType": "uint256",
          "name": "",
          "type": "uint256"
        }
      ],
      "stateMutability": "view",
      "type": "function"
    },
    {
      "inputs": [
        {
          "internalType": "address",
          "name": "from",
          "type": "address"
        },
        {
          "internalType": "address",
          "name": "to",
          "type": "address"
        },
        {
          "internalType": "uint256",
          "name": "tokenId",
          "type": "uint256"
        }
      ],
      "name": "transferFrom",
      "outputs": [],
      "stateMutability": "nonpayable",
      "type": "function"
    }
  ],
  "bytecode": {
    "object": "0x608060405234801561001057600080fd5b50611858806100206000396000f3fe608060405234801561001057600080fd5b50600436106101425760003560e01c80634f6ccce7116100b857806395d89b411161007c57806395d89b41146102ef578063a22cb465146102f7578063b88d4fde1461030a578063c87b56dd1461031d578063ca0df4a114610330578063e985e9c51461035957600080fd5b80634f6ccce7146102625780636352211e1461027557806370a08231146102885780638deeed421461029b57806390c5c56d146102c457600080fd5b806311db8d1b1161010a57806311db8d1b146101e557806318160ddd1461020e57806323b872dd146102165780632f745c591461022957806342842e0e1461023c57806342966c681461024f57600080fd5b806301ffc9a714610147578063023ba7c31461016f57806306fdde0314610190578063081812fc146101a5578063095ea7b3146101d0575b600080fd5b61015a61015536600461138b565b610395565b60405190151581526020015b60405180910390f35b61018261017d3660046113c4565b6103c0565b604051908152602001610166565b6101986103f1565b6040516101669190611446565b6101b86101b3366004611459565b610483565b6040516001600160a01b039091168152602001610166565b6101e36101de3660046113c4565b6104aa565b005b6101b86101f3366004611459565b60c9602052600090815260409020546001600160a01b031681565b609954610182565b6101e3610224366004611472565b6105c4565b6101826102373660046113c4565b6105f5565b6101e361024a366004611472565b61068b565b6101e361025d366004611459565b6106a6565b610182610270366004611459565b61074e565b6101b8610283366004611459565b6107e1565b6101826102963660046114ae565b610841565b6101826102a93660046114ae565b6001600160a01b0316600090815260ca602052604090205490565b61015a6102d23660046114ae565b6001600160a01b0316600090815260ca6020526040902054151590565b6101986108c7565b6101e36103053660046114c9565b6108d6565b6101e361031836600461151b565b6108e5565b61019861032b366004611459565b61091d565b6101b861033e366004611459565b600090815260c960205260409020546001600160a01b031690565b61015a6103673660046115f7565b6001600160a01b039182166000908152606a6020908152604080832093909416825291909152205460ff1690565b60006001600160e01b0319821663780e9d6360e01b14806103ba57506103ba82610991565b92915050565b60ca60205281600052604060002081815481106103dc57600080fd5b90600052602060002001600091509150505481565b6060606580546104009061162a565b80601f016020809104026020016040519081016040528092919081815260200182805461042c9061162a565b80156104795780601f1061044e57610100808354040283529160200191610479565b820191906000526020600020905b81548152906001019060200180831161045c57829003601f168201915b5050505050905090565b600061048e826109e1565b506000908152606960205260409020546001600160a01b031690565b60006104b5826107e1565b9050806001600160a01b0316836001600160a01b0316036105275760405162461bcd60e51b815260206004820152602160248201527f4552433732313a20617070726f76616c20746f2063757272656e74206f776e656044820152603960f91b60648201526084015b60405180910390fd5b336001600160a01b038216148061054357506105438133610367565b6105b55760405162461bcd60e51b815260206004820152603d60248201527f4552433732313a20617070726f76652063616c6c6572206973206e6f7420746f60448201527f6b656e206f776e6572206f7220617070726f76656420666f7220616c6c000000606482015260840161051e565b6105bf8383610a43565b505050565b6105ce3382610ab1565b6105ea5760405162461bcd60e51b815260040161051e90611664565b6105bf838383610b30565b600061060083610841565b82106106625760405162461bcd60e51b815260206004820152602b60248201527f455243373231456e756d657261626c653a206f776e657220696e646578206f7560448201526a74206f6620626f756e647360a81b606482015260840161051e565b506001600160a01b03919091166000908152609760209081526040808320938352929052205490565b6105bf838383604051806020016040528060008152506108e5565b336106b18183610ab1565b6106cd5760405162461bcd60e51b815260040161051e90611664565b6106d682610ca1565b600082815260c96020908152604080832080546001600160a01b0319166001600160a01b03861690811790915580845260ca8352818420805460018101825590855292842090920185905551909184917f33631bcd0a4d34a7e2c240ab0753d5adfb7284d8ac89dab6876ec785c0cfa0e69190a35050565b600061075960995490565b82106107bc5760405162461bcd60e51b815260206004820152602c60248201527f455243373231456e756d657261626c653a20676c6f62616c20696e646578206f60448201526b7574206f6620626f756e647360a01b606482015260840161051e565b609982815481106107cf576107cf6116b1565b90600052602060002001549050919050565b6000818152606760205260408120546001600160a01b0316806103ba5760405162461bcd60e51b8152602060048201526018602482015277115490cdcc8c4e881a5b9d985b1a59081d1bdad95b88125160421b604482015260640161051e565b60006001600160a01b0382166108ab5760405162461bcd60e51b815260206004820152602960248201527f4552433732313a2061646472657373207a65726f206973206e6f7420612076616044820152683634b21037bbb732b960b91b606482015260840161051e565b506001600160a01b031660009081526068602052604090205490565b6060606680546104009061162a565b6108e1338383610d44565b5050565b6108ef3383610ab1565b61090b5760405162461bcd60e51b815260040161051e90611664565b61091784848484610e12565b50505050565b6060610928826109e1565b600061093f60408051602081019091526000815290565b9050600081511161095f576040518060200160405280600081525061098a565b8061096984610e45565b60405160200161097a9291906116c7565b6040516020818303038152906040525b9392505050565b60006001600160e01b031982166380ac58cd60e01b14806109c257506001600160e01b03198216635b5e139f60e01b145b806103ba57506301ffc9a760e01b6001600160e01b03198316146103ba565b6000818152606760205260409020546001600160a01b0316610a405760405162461bcd60e51b8152602060048201526018602482015277115490cdcc8c4e881a5b9d985b1a59081d1bdad95b88125160421b604482015260640161051e565b50565b600081815260696020526040902080546001600160a01b0319166001600160a01b0384169081179091558190610a78826107e1565b6001600160a01b03167f8c5be1e5ebec7d5bd14f71427d1e84f3dd0314c0f7b2291e5b200ac8c7c3b92560405160405180910390a45050565b600080610abd836107e1565b9050806001600160a01b0316846001600160a01b03161480610b0457506001600160a01b038082166000908152606a602090815260408083209388168352929052205460ff165b80610b285750836001600160a01b0316610b1d84610483565b6001600160a01b0316145b949350505050565b826001600160a01b0316610b43826107e1565b6001600160a01b031614610b695760405162461bcd60e51b815260040161051e906116f6565b6001600160a01b038216610bcb5760405162461bcd60e51b8152602060048201526024808201527f4552433732313a207472616e7366657220746f20746865207a65726f206164646044820152637265737360e01b606482015260840161051e565b610bd88383836001610ed8565b826001600160a01b0316610beb826107e1565b6001600160a01b031614610c115760405162461bcd60e51b815260040161051e906116f6565b600081815260696020908152604080832080546001600160a01b03199081169091556001600160a01b0387811680865260688552838620805460001901905590871680865283862080546001019055868652606790945282852080549092168417909155905184937fddf252ad1be2c89b69c2b068fc378daa952ba7f163c4a11628f55a4df523b3ef91a4505050565b6000610cac826107e1565b9050610cbc816000846001610ed8565b610cc5826107e1565b600083815260696020908152604080832080546001600160a01b03199081169091556001600160a01b0385168085526068845282852080546000190190558785526067909352818420805490911690555192935084927fddf252ad1be2c89b69c2b068fc378daa952ba7f163c4a11628f55a4df523b3ef908390a45050565b816001600160a01b0316836001600160a01b031603610da55760405162461bcd60e51b815260206004820152601960248201527f4552433732313a20617070726f766520746f2063616c6c657200000000000000604482015260640161051e565b6001600160a01b038381166000818152606a6020908152604080832094871680845294825291829020805460ff191686151590811790915591519182527f17307eab39ab6107e8899845ad3d59bd9653f200f220920489ca2b5937696c31910160405180910390a3505050565b610e1d848484610b30565b610e298484848461100c565b6109175760405162461bcd60e51b815260040161051e9061173b565b60606000610e528361110d565b600101905060008167ffffffffffffffff811115610e7257610e72611505565b6040519080825280601f01601f191660200182016040528015610e9c576020820181803683370190505b5090508181016020015b600019016f181899199a1a9b1b9c1cb0b131b232b360811b600a86061a8153600a8504945084610ea657509392505050565b6001811115610f475760405162461bcd60e51b815260206004820152603560248201527f455243373231456e756d657261626c653a20636f6e7365637574697665207472604482015274185b9cd9995c9cc81b9bdd081cdd5c1c1bdc9d1959605a1b606482015260840161051e565b816001600160a01b038516610fa357610f9e81609980546000838152609a60205260408120829055600182018355919091527f72a152ddfb8e864297c917af52ea6c1c68aead0fee1a62673fcc7e0c94979d000155565b610fc6565b836001600160a01b0316856001600160a01b031614610fc657610fc685826111e5565b6001600160a01b038416610fe257610fdd81611282565b611005565b846001600160a01b0316846001600160a01b031614611005576110058482611331565b5050505050565b60006001600160a01b0384163b1561110257604051630a85bd0160e11b81526001600160a01b0385169063150b7a029061105090339089908890889060040161178d565b6020604051808303816000875af192505050801561108b575060408051601f3d908101601f19168201909252611088918101906117ca565b60015b6110e8573d8080156110b9576040519150601f19603f3d011682016040523d82523d6000602084013e6110be565b606091505b5080516000036110e05760405162461bcd60e51b815260040161051e9061173b565b805181602001fd5b6001600160e01b031916630a85bd0160e11b149050610b28565b506001949350505050565b60008072184f03e93ff9f4daa797ed6e38ed64bf6a1f0160401b831061114c5772184f03e93ff9f4daa797ed6e38ed64bf6a1f0160401b830492506040015b6d04ee2d6d415b85acef81000000008310611178576d04ee2d6d415b85acef8100000000830492506020015b662386f26fc10000831061119657662386f26fc10000830492506010015b6305f5e10083106111ae576305f5e100830492506008015b61271083106111c257612710830492506004015b606483106111d4576064830492506002015b600a83106103ba5760010192915050565b600060016111f284610841565b6111fc91906117e7565b60008381526098602052604090205490915080821461124f576001600160a01b03841660009081526097602090815260408083208584528252808320548484528184208190558352609890915290208190555b5060009182526098602090815260408084208490556001600160a01b039094168352609781528383209183525290812055565b609954600090611294906001906117e7565b6000838152609a6020526040812054609980549394509092849081106112bc576112bc6116b1565b9060005260206000200154905080609983815481106112dd576112dd6116b1565b6000918252602080832090910192909255828152609a909152604080822084905585825281205560998054806113155761131561180c565b6001900381819060005260206000200160009055905550505050565b600061133c83610841565b6001600160a01b039093166000908152609760209081526040808320868452825280832085905593825260989052919091209190915550565b6001600160e01b031981168114610a4057600080fd5b60006020828403121561139d57600080fd5b813561098a81611375565b80356001600160a01b03811681146113bf57600080fd5b919050565b600080604083850312156113d757600080fd5b6113e0836113a8565b946020939093013593505050565b60005b838110156114095781810151838201526020016113f1565b838111156109175750506000910152565b600081518084526114328160208601602086016113ee565b601f01601f19169290920160200192915050565b60208152600061098a602083018461141a565b60006020828403121561146b57600080fd5b5035919050565b60008060006060848603121561148757600080fd5b611490846113a8565b925061149e602085016113a8565b9150604084013590509250925092565b6000602082840312156114c057600080fd5b61098a826113a8565b600080604083850312156114dc57600080fd5b6114e5836113a8565b9150602083013580151581146114fa57600080fd5b809150509250929050565b634e487b7160e01b600052604160045260246000fd5b6000806000806080858703121561153157600080fd5b61153a856113a8565b9350611548602086016113a8565b925060408501359150606085013567ffffffffffffffff8082111561156c57600080fd5b818701915087601f83011261158057600080fd5b81358181111561159257611592611505565b604051601f8201601f19908116603f011681019083821181831017156115ba576115ba611505565b816040528281528a60208487010111156115d357600080fd5b82602086016020830137600060208483010152809550505050505092959194509250565b6000806040838503121561160a57600080fd5b611613836113a8565b9150611621602084016113a8565b90509250929050565b600181811c9082168061163e57607f821691505b60208210810361165e57634e487b7160e01b600052602260045260246000fd5b50919050565b6020808252602d908201527f4552433732313a2063616c6c6572206973206e6f7420746f6b656e206f776e6560408201526c1c881bdc88185c1c1c9bdd9959609a1b606082015260800190565b634e487b7160e01b600052603260045260246000fd5b600083516116d98184602088016113ee565b8351908301906116ed8183602088016113ee565b01949350505050565b60208082526025908201527f4552433732313a207472616e736665722066726f6d20696e636f72726563742060408201526437bbb732b960d91b606082015260800190565b60208082526032908201527f4552433732313a207472616e7366657220746f206e6f6e20455243373231526560408201527131b2b4bb32b91034b6b83632b6b2b73a32b960711b606082015260800190565b6001600160a01b03858116825284166020820152604081018390526080606082018190526000906117c09083018461141a565b9695505050505050565b6000602082840312156117dc57600080fd5b815161098a81611375565b60008282101561180757634e487b7160e01b600052601160045260246000fd5b500390565b634e487b7160e01b600052603160045260246000fdfea2646970667358221220f1a31346bdb82399af3e8fc62976085ac3703c4b57c4b2cbc1cf25f376a103f464736f6c634300080f0033",
    "linkReferences": {}
  },
  "methodIdentifiers": {
    "approve(address,uint256)": "095ea7b3",
    "balanceOf(address)": "70a08231",
    "burn(uint256)": "42966c68",
    "burnedTokens(address,uint256)": "023ba7c3",
    "burnedTokensCount(address)": "8deeed42",
    "burner(uint256)": "11db8d1b",
    "burnerOf(uint256)": "ca0df4a1",
    "didBurnTokens(address)": "90c5c56d",
    "getApproved(uint256)": "081812fc",
    "isApprovedForAll(address,address)": "e985e9c5",
    "name()": "06fdde03",
    "ownerOf(uint256)": "6352211e",
    "safeTransferFrom(address,address,uint256)": "42842e0e",
    "safeTransferFrom(address,address,uint256,bytes)": "b88d4fde",
    "setApprovalForAll(address,bool)": "a22cb465",
    "supportsInterface(bytes4)": "01ffc9a7",
    "symbol()": "95d89b41",
    "tokenByIndex(uint256)": "4f6ccce7",
    "tokenOfOwnerByIndex(address,uint256)": "2f745c59",
    "tokenURI(uint256)": "c87b56dd",
    "totalSupply()": "18160ddd",
    "transferFrom(address,address,uint256)": "23b872dd"
  },
  "id": 51
}