{
  "abi": [
    {
      "inputs": [],
      "stateMutability": "nonpayable",
      "type": "constructor"
    },
    {
      "anonymous": false,
      "inputs": [
        {
          "indexed": true,
          "internalType": "address",
          "name": "owner",
          "type": "address"
        },
        {
          "indexed": true,
          "internalType": "address",
          "name": "approved",
          "type": "address"
        },
        {
          "indexed": true,
          "internalType": "uint256",
          "name": "tokenId",
          "type": "uint256"
        }
      ],
      "name": "Approval",
      "type": "event"
    },
    {
      "anonymous": false,
      "inputs": [
        {
          "indexed": true,
          "internalType": "address",
          "name": "owner",
          "type": "address"
        },
        {
          "indexed": true,
          "internalType": "address",
          "name": "operator",
          "type": "address"
        },
        {
          "indexed": false,
          "internalType": "bool",
          "name": "approved",
          "type": "bool"
        }
      ],
      "name": "ApprovalForAll",
      "type": "event"
    },
    {
      "anonymous": false,
      "inputs": [
        {
          "indexed": false,
          "internalType": "string",
          "name": "baseURI",
          "type": "string"
        }
      ],
      "name": "BaseURISet",
      "type": "event"
    },
    {
      "anonymous": false,
      "inputs": [
        {
          "indexed": false,
          "internalType": "string",
          "name": "baseURI",
          "type": "string"
        },
        {
          "indexed": false,
          "internalType": "string",
          "name": "_name",
          "type": "string"
        },
        {
          "indexed": false,
          "internalType": "string",
          "name": "_symbol",
          "type": "string"
        },
        {
          "indexed": false,
          "internalType": "address",
          "name": "_sandOwner",
          "type": "address"
        },
        {
          "indexed": false,
          "internalType": "address",
          "name": "_signAddress",
          "type": "address"
        },
        {
          "indexed": false,
          "internalType": "uint256",
          "name": "_maxSupply",
          "type": "uint256"
        },
        {
          "indexed": false,
          "internalType": "address",
          "name": "_registry",
          "type": "address"
        },
        {
          "indexed": false,
          "internalType": "address",
          "name": "_operatorFiltererSubscription",
          "type": "address"
        },
        {
          "indexed": false,
          "internalType": "bool",
          "name": "_operatorFiltererSubscriptionSubscribe",
          "type": "bool"
        }
      ],
      "name": "ContractInitialized",
      "type": "event"
    },
    {
      "anonymous": false,
      "inputs": [
        {
          "indexed": false,
          "internalType": "uint8",
          "name": "version",
          "type": "uint8"
        }
      ],
      "name": "Initialized",
      "type": "event"
    },
    {
      "anonymous": false,
      "inputs": [
        {
          "indexed": true,
          "internalType": "address",
          "name": "previousOwner",
          "type": "address"
        },
        {
          "indexed": true,
          "internalType": "address",
          "name": "newOwner",
          "type": "address"
        }
      ],
      "name": "OwnershipTransferStarted",
      "type": "event"
    },
    {
      "anonymous": false,
      "inputs": [
        {
          "indexed": true,
          "internalType": "address",
          "name": "previousOwner",
          "type": "address"
        },
        {
          "indexed": true,
          "internalType": "address",
          "name": "newOwner",
          "type": "address"
        }
      ],
      "name": "OwnershipTransferred",
      "type": "event"
    },
    {
      "anonymous": false,
      "inputs": [
        {
          "indexed": true,
          "internalType": "bytes32",
          "name": "role",
          "type": "bytes32"
        },
        {
          "indexed": true,
          "internalType": "bytes32",
          "name": "previousAdminRole",
          "type": "bytes32"
        },
        {
          "indexed": true,
          "internalType": "bytes32",
          "name": "newAdminRole",
          "type": "bytes32"
        }
      ],
      "name": "RoleAdminChanged",
      "type": "event"
    },
    {
      "anonymous": false,
      "inputs": [
        {
          "indexed": true,
          "internalType": "bytes32",
          "name": "role",
          "type": "bytes32"
        },
        {
          "indexed": true,
          "internalType": "address",
          "name": "account",
          "type": "address"
        },
        {
          "indexed": true,
          "internalType": "address",
          "name": "sender",
          "type": "address"
        }
      ],
      "name": "RoleGranted",
      "type": "event"
    },
    {
      "anonymous": false,
      "inputs": [
        {
          "indexed": true,
          "internalType": "bytes32",
          "name": "role",
          "type": "bytes32"
        },
        {
          "indexed": true,
          "internalType": "address",
          "name": "account",
          "type": "address"
        },
        {
          "indexed": true,
          "internalType": "address",
          "name": "sender",
          "type": "address"
        }
      ],
      "name": "RoleRevoked",
      "type": "event"
    },
    {
      "anonymous": false,
      "inputs": [
        {
          "indexed": true,
          "internalType": "uint256",
          "name": "tokenId",
          "type": "uint256"
        },
        {
          "indexed": true,
          "internalType": "address",
          "name": "burner",
          "type": "address"
        }
      ],
      "name": "TokenBurned",
      "type": "event"
    },
    {
      "anonymous": false,
      "inputs": [
        {
          "indexed": true,
          "internalType": "address",
          "name": "from",
          "type": "address"
        },
        {
          "indexed": true,
          "internalType": "address",
          "name": "to",
          "type": "address"
        },
        {
          "indexed": true,
          "internalType": "uint256",
          "name": "tokenId",
          "type": "uint256"
        }
      ],
      "name": "Transfer",
      "type": "event"
    },
    {
      "inputs": [],
      "name": "ADMIN",
      "outputs": [
        {
          "internalType": "bytes32",
          "name": "",
          "type": "bytes32"
        }
      ],
      "stateMutability": "view",
      "type": "function"
    },
    {
      "inputs": [],
      "name": "ADMIN_ROLE",
      "outputs": [
        {
          "internalType": "bytes32",
          "name": "",
          "type": "bytes32"
        }
      ],
      "stateMutability": "view",
      "type": "function"
    },
    {
      "inputs": [],
      "name": "CONFIGURATOR",
      "outputs": [
        {
          "internalType": "bytes32",
          "name": "",
          "type": "bytes32"
        }
      ],
      "stateMutability": "view",
      "type": "function"
    },
    {
      "inputs": [],
      "name": "CONFIGURATOR_ROLE",
      "outputs": [
        {
          "internalType": "bytes32",
          "name": "",
          "type": "bytes32"
        }
      ],
      "stateMutability": "view",
      "type": "function"
    },
    {
      "inputs": [],
      "name": "DEFAULT_ADMIN_ROLE",
      "outputs": [
        {
          "internalType": "bytes32",
          "name": "",
          "type": "bytes32"
        }
      ],
      "stateMutability": "view",
      "type": "function"
    },
    {
      "inputs": [],
      "name": "TRANSFORMER",
      "outputs": [
        {
          "internalType": "bytes32",
          "name": "",
          "type": "bytes32"
        }
      ],
      "stateMutability": "view",
      "type": "function"
    },
    {
      "inputs": [],
      "name": "TRANSFORMER_ROLE",
      "outputs": [
        {
          "internalType": "bytes32",
          "name": "",
          "type": "bytes32"
        }
      ],
      "stateMutability": "view",
      "type": "function"
    },
    {
      "inputs": [],
      "name": "acceptOwnership",
      "outputs": [],
      "stateMutability": "nonpayable",
      "type": "function"
    },
    {
      "inputs": [
        {
          "internalType": "address",
          "name": "account",
          "type": "address"
        }
      ],
      "name": "addConfigurator",
      "outputs": [],
      "stateMutability": "nonpayable",
      "type": "function"
    },
    {
      "inputs": [
        {
          "internalType": "address",
          "name": "account",
          "type": "address"
        }
      ],
      "name": "addTransformer",
      "outputs": [],
      "stateMutability": "nonpayable",
      "type": "function"
    },
    {
      "inputs": [],
      "name": "allowedToExecuteMint",
      "outputs": [
        {
          "internalType": "address",
          "name": "",
          "type": "address"
        }
      ],
      "stateMutability": "view",
      "type": "function"
    },
    {
      "inputs": [
        {
          "internalType": "address",
          "name": "to",
          "type": "address"
        },
        {
          "internalType": "uint256",
          "name": "tokenId",
          "type": "uint256"
        }
      ],
      "name": "approve",
      "outputs": [],
      "stateMutability": "nonpayable",
      "type": "function"
    },
    {
      "inputs": [
        {
          "internalType": "address",
          "name": "owner",
          "type": "address"
        }
      ],
      "name": "balanceOf",
      "outputs": [
        {
          "internalType": "uint256",
          "name": "",
          "type": "uint256"
        }
      ],
      "stateMutability": "view",
      "type": "function"
    },
    {
      "inputs": [],
      "name": "baseTokenURI",
      "outputs": [
        {
          "internalType": "string",
          "name": "",
          "type": "string"
        }
      ],
      "stateMutability": "view",
      "type": "function"
    },
    {
      "inputs": [
        {
          "internalType": "uint256",
          "name": "tokenId",
          "type": "uint256"
        }
      ],
      "name": "burn",
      "outputs": [],
      "stateMutability": "nonpayable",
      "type": "function"
    },
    {
      "inputs": [
        {
          "internalType": "uint256",
          "name": "",
          "type": "uint256"
        }
      ],
      "name": "burner",
      "outputs": [
        {
          "internalType": "address",
          "name": "",
          "type": "address"
        }
      ],
      "stateMutability": "view",
      "type": "function"
    },
    {
      "inputs": [
        {
          "internalType": "uint256",
          "name": "tokenId",
          "type": "uint256"
        }
      ],
      "name": "burnerOf",
      "outputs": [
        {
          "internalType": "address",
          "name": "",
          "type": "address"
        }
      ],
      "stateMutability": "view",
      "type": "function"
    },
    {
      "inputs": [
        {
          "internalType": "enum CollectionStateManagement.State",
          "name": "state",
          "type": "uint8"
        }
      ],
      "name": "changeState",
      "outputs": [],
      "stateMutability": "nonpayable",
      "type": "function"
    },
    {
      "inputs": [],
      "name": "currentState",
      "outputs": [
        {
          "internalType": "enum CollectionStateManagement.State",
          "name": "",
          "type": "uint8"
        }
      ],
      "stateMutability": "view",
      "type": "function"
    },
    {
      "inputs": [
        {
          "internalType": "uint256",
          "name": "tokenId",
          "type": "uint256"
        }
      ],
      "name": "getApproved",
      "outputs": [
        {
          "internalType": "address",
          "name": "",
          "type": "address"
        }
      ],
      "stateMutability": "view",
      "type": "function"
    },
    {
      "inputs": [
        {
          "internalType": "bytes32",
          "name": "role",
          "type": "bytes32"
        }
      ],
      "name": "getRoleAdmin",
      "outputs": [
        {
          "internalType": "bytes32",
          "name": "",
          "type": "bytes32"
        }
      ],
      "stateMutability": "view",
      "type": "function"
    },
    {
      "inputs": [],
      "name": "getTrustedForwarder",
      "outputs": [
        {
          "internalType": "address",
          "name": "trustedForwarder",
          "type": "address"
        }
      ],
      "stateMutability": "view",
      "type": "function"
    },
    {
      "inputs": [
        {
          "internalType": "bytes32",
          "name": "role",
          "type": "bytes32"
        },
        {
          "internalType": "address",
          "name": "account",
          "type": "address"
        }
      ],
      "name": "grantRole",
      "outputs": [],
      "stateMutability": "nonpayable",
      "type": "function"
    },
    {
      "inputs": [
        {
          "internalType": "bytes32",
          "name": "role",
          "type": "bytes32"
        },
        {
          "internalType": "address",
          "name": "account",
          "type": "address"
        }
      ],
      "name": "hasRole",
      "outputs": [
        {
          "internalType": "bool",
          "name": "",
          "type": "bool"
        }
      ],
      "stateMutability": "view",
      "type": "function"
    },
    {
      "inputs": [
        {
          "internalType": "address",
          "name": "_collectionOwner",
          "type": "address"
        },
        {
          "internalType": "string",
          "name": "_initialBaseURI",
          "type": "string"
        },
        {
          "internalType": "string",
          "name": "_name",
          "type": "string"
        },
        {
          "internalType": "string",
          "name": "_symbol",
          "type": "string"
        },
        {
          "internalType": "address payable",
          "name": "_sandOwner",
          "type": "address"
        },
        {
          "internalType": "address",
          "name": "_signAddress",
          "type": "address"
        },
        {
          "internalType": "address",
          "name": "_initialTrustedForwarder",
          "type": "address"
        },
        {
          "internalType": "address",
          "name": "_registry",
          "type": "address"
        },
        {
          "internalType": "address",
          "name": "_operatorFiltererSubscription",
          "type": "address"
        },
        {
          "internalType": "bool",
          "name": "_operatorFiltererSubscriptionSubscribe",
          "type": "bool"
        },
        {
          "internalType": "uint256",
          "name": "_maxSupply",
          "type": "uint256"
        }
      ],
      "name": "initialize",
      "outputs": [],
      "stateMutability": "nonpayable",
      "type": "function"
    },
    {
      "inputs": [
        {
          "internalType": "address",
          "name": "owner",
          "type": "address"
        },
        {
          "internalType": "address",
          "name": "operator",
          "type": "address"
        }
      ],
      "name": "isApprovedForAll",
      "outputs": [
        {
          "internalType": "bool",
          "name": "",
          "type": "bool"
        }
      ],
      "stateMutability": "view",
      "type": "function"
    },
    {
      "inputs": [
        {
          "internalType": "address",
          "name": "forwarder",
          "type": "address"
        }
      ],
      "name": "isTrustedForwarder",
      "outputs": [
        {
          "internalType": "bool",
          "name": "",
          "type": "bool"
        }
      ],
      "stateMutability": "view",
      "type": "function"
    },
    {
      "inputs": [],
      "name": "maxSupply",
      "outputs": [
        {
          "internalType": "uint256",
          "name": "",
          "type": "uint256"
        }
      ],
      "stateMutability": "view",
      "type": "function"
    },
    {
      "inputs": [],
      "name": "name",
      "outputs": [
        {
          "internalType": "string",
          "name": "",
          "type": "string"
        }
      ],
      "stateMutability": "view",
      "type": "function"
    },
    {
      "inputs": [],
      "name": "owner",
      "outputs": [
        {
          "internalType": "address",
          "name": "",
          "type": "address"
        }
      ],
      "stateMutability": "view",
      "type": "function"
    },
    {
      "inputs": [
        {
          "internalType": "uint256",
          "name": "tokenId",
          "type": "uint256"
        }
      ],
      "name": "ownerOf",
      "outputs": [
        {
          "internalType": "address",
          "name": "",
          "type": "address"
        }
      ],
      "stateMutability": "view",
      "type": "function"
    },
    {
      "inputs": [],
      "name": "pendingOwner",
      "outputs": [
        {
          "internalType": "address",
          "name": "",
          "type": "address"
        }
      ],
      "stateMutability": "view",
      "type": "function"
    },
    {
      "inputs": [],
      "name": "renounceOwnership",
      "outputs": [],
      "stateMutability": "nonpayable",
      "type": "function"
    },
    {
      "inputs": [
        {
          "internalType": "bytes32",
          "name": "role",
          "type": "bytes32"
        },
        {
          "internalType": "address",
          "name": "account",
          "type": "address"
        }
      ],
      "name": "renounceRole",
      "outputs": [],
      "stateMutability": "nonpayable",
      "type": "function"
    },
    {
      "inputs": [
        {
          "internalType": "address",
          "name": "account",
          "type": "address"
        }
      ],
      "name": "revokeConfiguratorRole",
      "outputs": [],
      "stateMutability": "nonpayable",
      "type": "function"
    },
    {
      "inputs": [
        {
          "internalType": "bytes32",
          "name": "role",
          "type": "bytes32"
        },
        {
          "internalType": "address",
          "name": "account",
          "type": "address"
        }
      ],
      "name": "revokeRole",
      "outputs": [],
      "stateMutability": "nonpayable",
      "type": "function"
    },
    {
      "inputs": [
        {
          "internalType": "address",
          "name": "account",
          "type": "address"
        }
      ],
      "name": "revokeTransformerRole",
      "outputs": [],
      "stateMutability": "nonpayable",
      "type": "function"
    },
    {
      "inputs": [
        {
          "internalType": "address",
          "name": "from",
          "type": "address"
        },
        {
          "internalType": "address",
          "name": "to",
          "type": "address"
        },
        {
          "internalType": "uint256",
          "name": "tokenId",
          "type": "uint256"
        }
      ],
      "name": "safeTransferFrom",
      "outputs": [],
      "stateMutability": "nonpayable",
      "type": "function"
    },
    {
      "inputs": [
        {
          "internalType": "address",
          "name": "from",
          "type": "address"
        },
        {
          "internalType": "address",
          "name": "to",
          "type": "address"
        },
        {
          "internalType": "uint256",
          "name": "tokenId",
          "type": "uint256"
        },
        {
          "internalType": "bytes",
          "name": "data",
          "type": "bytes"
        }
      ],
      "name": "safeTransferFrom",
      "outputs": [],
      "stateMutability": "nonpayable",
      "type": "function"
    },
    {
      "inputs": [],
      "name": "sandOwner",
      "outputs": [
        {
          "internalType": "address",
          "name": "",
          "type": "address"
        }
      ],
      "stateMutability": "view",
      "type": "function"
    },
    {
      "inputs": [
        {
          "internalType": "address",
          "name": "operator",
          "type": "address"
        },
        {
          "internalType": "bool",
          "name": "approved",
          "type": "bool"
        }
      ],
      "name": "setApprovalForAll",
      "outputs": [],
      "stateMutability": "nonpayable",
      "type": "function"
    },
    {
      "inputs": [
        {
          "internalType": "string",
          "name": "baseURI",
          "type": "string"
        }
      ],
      "name": "setBaseURI",
      "outputs": [],
      "stateMutability": "nonpayable",
      "type": "function"
    },
    {
      "inputs": [],
      "name": "signAddress",
      "outputs": [
        {
          "internalType": "address",
          "name": "",
          "type": "address"
        }
      ],
      "stateMutability": "view",
      "type": "function"
    },
    {
      "inputs": [
        {
          "internalType": "bytes4",
          "name": "interfaceId",
          "type": "bytes4"
        }
      ],
      "name": "supportsInterface",
      "outputs": [
        {
          "internalType": "bool",
          "name": "",
          "type": "bool"
        }
      ],
      "stateMutability": "view",
      "type": "function"
    },
    {
      "inputs": [],
      "name": "symbol",
      "outputs": [
        {
          "internalType": "string",
          "name": "",
          "type": "string"
        }
      ],
      "stateMutability": "view",
      "type": "function"
    },
    {
      "inputs": [
        {
          "internalType": "uint256",
          "name": "index",
          "type": "uint256"
        }
      ],
      "name": "tokenByIndex",
      "outputs": [
        {
          "internalType": "uint256",
          "name": "",
          "type": "uint256"
        }
      ],
      "stateMutability": "view",
      "type": "function"
    },
    {
      "inputs": [
        {
          "internalType": "address",
          "name": "owner",
          "type": "address"
        },
        {
          "internalType": "uint256",
          "name": "index",
          "type": "uint256"
        }
      ],
      "name": "tokenOfOwnerByIndex",
      "outputs": [
        {
          "internalType": "uint256",
          "name": "",
          "type": "uint256"
        }
      ],
      "stateMutability": "view",
      "type": "function"
    },
    {
      "inputs": [
        {
          "internalType": "uint256",
          "name": "tokenId",
          "type": "uint256"
        }
      ],
      "name": "tokenURI",
      "outputs": [
        {
          "internalType": "string",
          "name": "",
          "type": "string"
        }
      ],
      "stateMutability": "view",
      "type": "function"
    },
    {
      "inputs": [],
      "name": "totalSupply",
      "outputs": [
        {
          "internalType": "uint256",
          "name": "",
          "type": "uint256"
        }
      ],
      "stateMutability": "view",
      "type": "function"
    },
    {
      "inputs": [
        {
          "internalType": "address",
          "name": "from",
          "type": "address"
        },
        {
          "internalType": "address",
          "name": "to",
          "type": "address"
        },
        {
          "internalType": "uint256",
          "name": "tokenId",
          "type": "uint256"
        }
      ],
      "name": "transferFrom",
      "outputs": [],
      "stateMutability": "nonpayable",
      "type": "function"
    },
    {
      "inputs": [
        {
          "internalType": "address",
          "name": "newOwner",
          "type": "address"
        }
      ],
      "name": "transferOwnership",
      "outputs": [],
      "stateMutability": "nonpayable",
      "type": "function"
    }
  ],
  "bytecode": {
    "object": "0x60806040523480156200001157600080fd5b506200001c62000022565b620000e4565b600054610100900460ff16156200008f5760405162461bcd60e51b815260206004820152602760248201527f496e697469616c697a61626c653a20636f6e747261637420697320696e697469604482015266616c697a696e6760c81b606482015260840160405180910390fd5b60005460ff9081161015620000e2576000805460ff191660ff9081179091556040519081527f7f26b83ff96e1f2b6a682f133852f6798a09c465da95921460cefb38474024989060200160405180910390a15b565b6133dd80620000f46000396000f3fe608060405234801561001057600080fd5b50600436106102f15760003560e01c806370edac761161019d578063c87b56dd116100e9578063d5d1713f116100a2578063e89bcd091161007c578063e89bcd09146106f3578063e985e9c514610707578063f2fde38b14610744578063fb7bf61a1461075757600080fd5b8063d5d1713f146106ba578063d853015e146106cd578063e30c3978146106e257600080fd5b8063c87b56dd14610641578063ca0df4a114610654578063ce1b815f1461067e578063d547741f14610695578063d547cfb7146106a8578063d5abeb01146106b057600080fd5b806391d1485411610156578063a22cb46511610130578063a22cb465146105f4578063ac3149e314610607578063b88d4fde1461061b578063c5d3357e1461062e57600080fd5b806391d14854146105d157806395d89b41146105e4578063a217fddf146105ec57600080fd5b806370edac7614610573578063715018a61461058857806375b238fc1461059057806379ba5097146105a55780637a266db0146105ad5780638da5cb5b146105c057600080fd5b8063268f11531161025c57806342966c6811610215578063572b6c05116101ef578063572b6c05146105125780635775363c1461053a5780636352211e1461054d57806370a082311461056057600080fd5b806342966c68146104d95780634f6ccce7146104ec57806355f804b3146104ff57600080fd5b8063268f1153146104535780632a0acc6a146104665780632f2ff15d1461048d5780632f745c59146104a057806336568abe146104b357806342842e0e146104c657600080fd5b806310cb645d116102ae57806310cb645d146103a257806311db8d1b146103d757806318160ddd1461040157806322b56a681461040a57806323b872dd1461041d578063248a9ca31461043057600080fd5b806301ffc9a7146102f65780630682bdbc1461031e57806306fdde031461034a578063081812fc1461035f578063095ea7b3146103725780630c3f6acf14610387575b600080fd5b610309610304366004612945565b61077e565b60405190151581526020015b60405180910390f35b61019754610332906001600160a01b031681565b6040516001600160a01b039091168152602001610315565b61035261078f565b60405161031591906129ba565b61033261036d3660046129cd565b610821565b610385610380366004612a0b565b610849565b005b610161546103959060ff1681565b6040516103159190612a4d565b6103c97f2aef16c605aa1a034d0b2e7058502638bfab5f2a592f7964d8c2a71c681d2bc681565b604051908152602001610315565b6103326103e53660046129cd565b610160602052600090815260409020546001600160a01b031681565b610130546103c9565b610385610418366004612a75565b610975565b61038561042b366004612a92565b6109be565b6103c961043e3660046129cd565b60009081526065602052604090206001015490565b610385610461366004612ad3565b6109f6565b6103c97fdf8b4c520ffe197c5343c6f5aec59570151ef9a492f2c624fd45ddde6135ec4281565b61038561049b366004612af4565b610a6c565b6103c96104ae366004612a0b565b610a91565b6103856104c1366004612af4565b610b28565b6103856104d4366004612a92565b610bb6565b6103856104e73660046129cd565b610bd1565b6103c96104fa3660046129cd565b610c66565b61038561050d366004612bd0565b610cfb565b610309610520366004612a75565b6101615461010090046001600160a01b0390811691161490565b610385610548366004612a75565b610e03565b61033261055b3660046129cd565b610e23565b6103c961056e366004612a75565b610e83565b6103c960008051602061336883398151915281565b610385610f09565b6103c960008051602061338883398151915281565b610385610f89565b6103856105bb366004612a75565b611072565b6097546001600160a01b0316610332565b6103096105df366004612af4565b6110b8565b6103526110e3565b6103c9600081565b610385610602366004612c15565b6110f2565b61019554610332906001600160a01b031681565b610385610629366004612c4a565b611104565b61038561063c366004612cca565b611143565b61035261064f3660046129cd565b611223565b6103326106623660046129cd565b600090815261016060205260409020546001600160a01b031690565b6101615461010090046001600160a01b0316610332565b6103856106a3366004612af4565b61128a565b6103526112af565b6103c96101935481565b6103856106c8366004612a75565b61133e565b6103c960008051602061334883398151915281565b60c9546001600160a01b0316610332565b61019654610332906001600160a01b031681565b610309610715366004612dd8565b6001600160a01b0391821660009081526101016020908152604080832093909416825291909152205460ff1690565b610385610752366004612a75565b61135e565b6103c97f530008d2b058137d9c475b1b7d83984f1fcf1dd0e607659d029fc1517ab8926881565b6000610789826113cf565b92915050565b606060fc805461079e90612e06565b80601f01602080910402602001604051908101604052809291908181526020018280546107ca90612e06565b80156108175780601f106107ec57610100808354040283529160200191610817565b820191906000526020600020905b8154815290600101906020018083116107fa57829003601f168201915b5050505050905090565b600061082c826113f4565b50600090815261010060205260409020546001600160a01b031690565b600061085482610e23565b9050806001600160a01b0316836001600160a01b0316036108c65760405162461bcd60e51b815260206004820152602160248201527f4552433732313a20617070726f76616c20746f2063757272656e74206f776e656044820152603960f91b60648201526084015b60405180910390fd5b806001600160a01b03166108d8611453565b6001600160a01b031614806108f457506108f481610715611453565b6109665760405162461bcd60e51b815260206004820152603d60248201527f4552433732313a20617070726f76652063616c6c6572206973206e6f7420746f60448201527f6b656e206f776e6572206f7220617070726f76656420666f7220616c6c00000060648201526084016108bd565b6109708383611462565b505050565b61097d6114d1565b6001600160a01b0381166109a35760405162461bcd60e51b81526004016108bd90612e40565b6109bb60008051602061336883398151915282610a6c565b50565b6109cf6109c9611453565b8261154c565b6109eb5760405162461bcd60e51b81526004016108bd90612e95565b6109708383836115cc565b7f530008d2b058137d9c475b1b7d83984f1fcf1dd0e607659d029fc1517ab892686000610a21611453565b9050610a2d82826110b8565b80610a5a5750806001600160a01b0316610a4f6097546001600160a01b031690565b6001600160a01b0316145b610a6357600080fd5b6109708361173e565b600082815260656020526040902060010154610a87816117dd565b61097083836117ee565b6000610a9c83610e83565b8210610afe5760405162461bcd60e51b815260206004820152602b60248201527f455243373231456e756d657261626c653a206f776e657220696e646578206f7560448201526a74206f6620626f756e647360a81b60648201526084016108bd565b506001600160a01b0391909116600090815261012e60209081526040808320938352929052205490565b610b30611453565b6001600160a01b0316816001600160a01b031614610ba85760405162461bcd60e51b815260206004820152602f60248201527f416363657373436f6e74726f6c3a2063616e206f6e6c792072656e6f756e636560448201526e103937b632b9903337b91039b2b63360891b60648201526084016108bd565b610bb28282611875565b5050565b61097083838360405180602001604052806000815250611104565b6000610bdb611453565b9050610be7818361154c565b610c035760405162461bcd60e51b81526004016108bd90612e95565b610c0c826118fa565b6000828152610160602052604080822080546001600160a01b0319166001600160a01b0385169081179091559051909184917f33631bcd0a4d34a7e2c240ab0753d5adfb7284d8ac89dab6876ec785c0cfa0e69190a35050565b6000610c726101305490565b8210610cd55760405162461bcd60e51b815260206004820152602c60248201527f455243373231456e756d657261626c653a20676c6f62616c20696e646578206f60448201526b7574206f6620626f756e647360a01b60648201526084016108bd565b6101308281548110610ce957610ce9612ee2565b90600052602060002001549050919050565b7f530008d2b058137d9c475b1b7d83984f1fcf1dd0e607659d029fc1517ab892686000610d26611453565b9050610d3282826110b8565b80610d5f5750806001600160a01b0316610d546097546001600160a01b031690565b6001600160a01b0316145b610d6857600080fd5b8251600003610db95760405162461bcd60e51b815260206004820152601a60248201527f4176617461723a2062617365555249206973206e6f742073657400000000000060448201526064016108bd565b610194610dc68482612f46565b507ff9c7803e94e0d3c02900d8a90893a6d5e90dd04d32a4cfe825520f82bf9f32f683604051610df691906129ba565b60405180910390a1505050565b610e0b6114d1565b6109bb6000805160206133688339815191528261128a565b600081815260fe60205260408120546001600160a01b0316806107895760405162461bcd60e51b8152602060048201526018602482015277115490cdcc8c4e881a5b9d985b1a59081d1bdad95b88125160421b60448201526064016108bd565b60006001600160a01b038216610eed5760405162461bcd60e51b815260206004820152602960248201527f4552433732313a2061646472657373207a65726f206973206e6f7420612076616044820152683634b21037bbb732b960b91b60648201526084016108bd565b506001600160a01b0316600090815260ff602052604090205490565b610f116114d1565b60405162461bcd60e51b815260206004820152604160248201527f436f6c6c656374696f6e416363657373436f6e74726f6c52756c65733a20526560448201527f6e6f756e6365206f776e657273686970206973206e6f7420617661696c61626c6064820152606560f81b608482015260a4016108bd565b6000610f93611453565b9050806001600160a01b0316610fb160c9546001600160a01b031690565b6001600160a01b03161461102d5760405162461bcd60e51b815260206004820152603960248201527f436f6c6c656374696f6e416363657373436f6e74726f6c52756c65733a20636160448201527f6c6c6572206973206e6f7420746865206e6577206f776e65720000000000000060648201526084016108bd565b6110516000805160206133888339815191526106a36097546001600160a01b031690565b61106960008051602061338883398151915282610a6c565b6109bb8161199e565b61107a6114d1565b6001600160a01b0381166110a05760405162461bcd60e51b81526004016108bd90612e40565b6109bb60008051602061334883398151915282610a6c565b60009182526065602090815260408084206001600160a01b0393909316845291905290205460ff1690565b606060fd805461079e90612e06565b610bb26110fd611453565b83836119b7565b61111561110f611453565b8361154c565b6111315760405162461bcd60e51b81526004016108bd90612e95565b61113d84848484611a86565b50505050565b600054610100900460ff16158080156111635750600054600160ff909116105b8061117d5750303b15801561117d575060005460ff166001145b6111995760405162461bcd60e51b81526004016108bd90613006565b6000805460ff1916600117905580156111bc576000805461ff0019166101001790555b6111cf8c8c8c8c8c8c8c8c8c8c8c611ab9565b8015611215576000805461ff0019169055604051600181527f7f26b83ff96e1f2b6a682f133852f6798a09c465da95921460cefb38474024989060200160405180910390a15b505050505050505050505050565b606061122e826113f4565b6000611238611deb565b905060008151116112585760405180602001604052806000815250611283565b8061126284611dfb565b604051602001611273929190613054565b6040516020818303038152906040525b9392505050565b6000828152606560205260409020600101546112a5816117dd565b6109708383611875565b61019480546112bd90612e06565b80601f01602080910402602001604051908101604052809291908181526020018280546112e990612e06565b80156113365780601f1061130b57610100808354040283529160200191611336565b820191906000526020600020905b81548152906001019060200180831161131957829003601f168201915b505050505081565b6113466114d1565b6109bb6000805160206133488339815191528261128a565b6113666114d1565b60c980546001600160a01b0383166001600160a01b031990911681179091556113976097546001600160a01b031690565b6001600160a01b03167f38d16b8cac22d99fc7c124b9cd0de2d3fa1faef420bfe791d8c362d765e2270060405160405180910390a350565b60006001600160e01b0319821663780e9d6360e01b1480610789575061078982611e8e565b600081815260fe60205260409020546001600160a01b03166109bb5760405162461bcd60e51b8152602060048201526018602482015277115490cdcc8c4e881a5b9d985b1a59081d1bdad95b88125160421b60448201526064016108bd565b600061145d611ece565b905090565b60008181526101006020526040902080546001600160a01b0319166001600160a01b038416908117909155819061149882610e23565b6001600160a01b03167f8c5be1e5ebec7d5bd14f71427d1e84f3dd0314c0f7b2291e5b200ac8c7c3b92560405160405180910390a45050565b6114d9611453565b6001600160a01b03166114f46097546001600160a01b031690565b6001600160a01b03161461154a5760405162461bcd60e51b815260206004820181905260248201527f4f776e61626c653a2063616c6c6572206973206e6f7420746865206f776e657260448201526064016108bd565b565b60008061155883610e23565b9050806001600160a01b0316846001600160a01b031614806115a057506001600160a01b038082166000908152610101602090815260408083209388168352929052205460ff165b806115c45750836001600160a01b03166115b984610821565b6001600160a01b0316145b949350505050565b826001600160a01b03166115df82610e23565b6001600160a01b0316146116055760405162461bcd60e51b81526004016108bd90613083565b6001600160a01b0382166116675760405162461bcd60e51b8152602060048201526024808201527f4552433732313a207472616e7366657220746f20746865207a65726f206164646044820152637265737360e01b60648201526084016108bd565b6116748383836001611efb565b826001600160a01b031661168782610e23565b6001600160a01b0316146116ad5760405162461bcd60e51b81526004016108bd90613083565b60008181526101006020908152604080832080546001600160a01b03199081169091556001600160a01b0387811680865260ff855283862080546000190190559087168086528386208054600101905586865260fe90945282852080549092168417909155905184937fddf252ad1be2c89b69c2b068fc378daa952ba7f163c4a11628f55a4df523b3ef91a4505050565b80600481111561175057611750612a37565b6101615460ff16600481111561176857611768612a37565b036117b55760405162461bcd60e51b815260206004820152601860248201527f416c726561647920696e2064657369726564207374617465000000000000000060448201526064016108bd565b610161805482919060ff191660018360048111156117d5576117d5612a37565b021790555050565b6109bb816117e9611453565b612031565b6117f882826110b8565b610bb25760008281526065602090815260408083206001600160a01b03851684529091529020805460ff19166001179055611831611453565b6001600160a01b0316816001600160a01b0316837f2f8788117e7eff1d82e926ec794901d17c78024a50270940304540a733656f0d60405160405180910390a45050565b61187f82826110b8565b15610bb25760008281526065602090815260408083206001600160a01b03851684529091529020805460ff191690556118b6611453565b6001600160a01b0316816001600160a01b0316837ff6391f5c32d9c69d2a47ea670b442974b53935d1edc7fd64eb21e047a839171b60405160405180910390a45050565b600061190582610e23565b9050611915816000846001611efb565b61191e82610e23565b60008381526101006020908152604080832080546001600160a01b03199081169091556001600160a01b03851680855260ff8452828520805460001901905587855260fe909352818420805490911690555192935084927fddf252ad1be2c89b69c2b068fc378daa952ba7f163c4a11628f55a4df523b3ef908390a45050565b60c980546001600160a01b03191690556109bb8161208a565b816001600160a01b0316836001600160a01b031603611a185760405162461bcd60e51b815260206004820152601960248201527f4552433732313a20617070726f766520746f2063616c6c65720000000000000060448201526064016108bd565b6001600160a01b0383811660008181526101016020908152604080832094871680845294825291829020805460ff191686151590811790915591519182527f17307eab39ab6107e8899845ad3d59bd9653f200f220920489ca2b5937696c31910160405180910390a3505050565b611a918484846115cc565b611a9d848484846120dc565b61113d5760405162461bcd60e51b81526004016108bd906130c8565b600054610100900460ff16611ae05760405162461bcd60e51b81526004016108bd9061311a565b8951600003611b265760405162461bcd60e51b815260206004820152601260248201527110985cd9555492481a5cc81b9bdd081cd95d60721b60448201526064016108bd565b8851600003611b6e5760405162461bcd60e51b81526020600482015260146024820152734e616d652063616e6e6f7420626520656d70747960601b60448201526064016108bd565b8751600003611bb85760405162461bcd60e51b815260206004820152601660248201527553796d626f6c2063616e6e6f7420626520656d70747960501b60448201526064016108bd565b6001600160a01b038616611c0e5760405162461bcd60e51b815260206004820152601c60248201527f5369676e2061646472657373206973207a65726f20616464726573730000000060448201526064016108bd565b6001600160a01b038516611c6e5760405162461bcd60e51b815260206004820152602160248201527f5472757374656420666f72776172646572206973207a65726f206164647265736044820152607360f81b60648201526084016108bd565b6001600160a01b038716611cc45760405162461bcd60e51b815260206004820152601a60248201527f53616e64206f776e6572206973207a65726f206164647265737300000000000060448201526064016108bd565b60008111611d145760405162461bcd60e51b815260206004820181905260248201527f4d617820737570706c792073686f756c64206265206d6f7265207468616e203060448201526064016108bd565b610194611d218b82612f46565b506101618054610100600160a81b0319166101006001600160a01b03881602179055611d4d89896121e4565b611d55612215565b611d5e8b612244565b61019680546001600160a01b03808a166001600160a01b0319928316179092556101978054928916929091169190911790556101938190556040517f1a3a62dc20450ece39e01e20bfba98408b580d8576926c8ca06f987f9db300bc90611dd6908c908c908c908c908c9088908c908c908c90613165565b60405180910390a15050505050505050505050565b6060610194805461079e90612e06565b60606000611e08836123f7565b600101905060008167ffffffffffffffff811115611e2857611e28612b24565b6040519080825280601f01601f191660200182016040528015611e52576020820181803683370190505b5090508181016020015b600019016f181899199a1a9b1b9c1cb0b131b232b360811b600a86061a8153600a8504945084611e5c57509392505050565b60006001600160e01b031982166380ac58cd60e01b1480611ebf57506001600160e01b03198216635b5e139f60e01b145b806107895750610789826124cf565b6101615460009061010090046001600160a01b03163303611ef6575060131936013560601c90565b503390565b6001811115611f6a5760405162461bcd60e51b815260206004820152603560248201527f455243373231456e756d657261626c653a20636f6e7365637574697665207472604482015274185b9cd9995c9cc81b9bdd081cdd5c1c1bdc9d1959605a1b60648201526084016108bd565b816001600160a01b038516611fc857611fc3816101308054600083815261013160205260408120829055600182018355919091527f2f605e086faac1d93117bbfbc18835d434e9405fadc1ca66faf4b864746daf340155565b611feb565b836001600160a01b0316856001600160a01b031614611feb57611feb8582612504565b6001600160a01b03841661200757612002816125a6565b61202a565b846001600160a01b0316846001600160a01b03161461202a5761202a848261265b565b5050505050565b61203b82826110b8565b610bb257612048816126a1565b6120538360206126b3565b6040516020016120649291906131e7565b60408051601f198184030181529082905262461bcd60e51b82526108bd916004016129ba565b609780546001600160a01b038381166001600160a01b0319831681179093556040519116919082907f8be0079c531659141344cd1fd0a4f28419497f9722a3daafe3b4186f6b6457e090600090a35050565b60006001600160a01b0384163b156121d957836001600160a01b031663150b7a02612105611453565b8786866040518563ffffffff1660e01b8152600401612127949392919061325c565b6020604051808303816000875af1925050508015612162575060408051601f3d908101601f1916820190925261215f91810190613299565b60015b6121bf573d808015612190576040519150601f19603f3d011682016040523d82523d6000602084013e612195565b606091505b5080516000036121b75760405162461bcd60e51b81526004016108bd906130c8565b805181602001fd5b6001600160e01b031916630a85bd0160e11b1490506115c4565b506001949350505050565b600054610100900460ff1661220b5760405162461bcd60e51b81526004016108bd9061311a565b610bb2828261284f565b600054610100900460ff1661223c5760405162461bcd60e51b81526004016108bd9061311a565b61154a61288f565b600054610100900460ff16158080156122645750600054600160ff909116105b8061227e5750303b15801561227e575060005460ff166001145b61229a5760405162461bcd60e51b81526004016108bd90613006565b6000805460ff1916600117905580156122bd576000805461ff0019166101001790555b6001600160a01b0382166123395760405162461bcd60e51b815260206004820152603b60248201527f436f6c6c656374696f6e416363657373436f6e74726f6c52756c65733a206e6560448201527f77206f776e657220697320746865207a65726f2061646472657373000000000060648201526084016108bd565b6123416128bd565b61234a8261199e565b612362600080516020613388833981519152836117ee565b6123886000805160206133488339815191526000805160206133888339815191526128e4565b6123ae6000805160206133688339815191526000805160206133888339815191526128e4565b8015610bb2576000805461ff0019169055604051600181527f7f26b83ff96e1f2b6a682f133852f6798a09c465da95921460cefb38474024989060200160405180910390a15050565b60008072184f03e93ff9f4daa797ed6e38ed64bf6a1f0160401b83106124365772184f03e93ff9f4daa797ed6e38ed64bf6a1f0160401b830492506040015b6d04ee2d6d415b85acef81000000008310612462576d04ee2d6d415b85acef8100000000830492506020015b662386f26fc10000831061248057662386f26fc10000830492506010015b6305f5e1008310612498576305f5e100830492506008015b61271083106124ac57612710830492506004015b606483106124be576064830492506002015b600a83106107895760010192915050565b60006001600160e01b03198216637965db0b60e01b148061078957506301ffc9a760e01b6001600160e01b0319831614610789565b6000600161251184610e83565b61251b91906132cc565b600083815261012f6020526040902054909150808214612571576001600160a01b038416600090815261012e60209081526040808320858452825280832054848452818420819055835261012f90915290208190555b50600091825261012f602090815260408084208490556001600160a01b03909416835261012e81528383209183525290812055565b610130546000906125b9906001906132cc565b6000838152610131602052604081205461013080549394509092849081106125e3576125e3612ee2565b9060005260206000200154905080610130838154811061260557612605612ee2565b6000918252602080832090910192909255828152610131909152604080822084905585825281205561013080548061263f5761263f6132e3565b6001900381819060005260206000200160009055905550505050565b600061266683610e83565b6001600160a01b03909316600090815261012e60209081526040808320868452825280832085905593825261012f9052919091209190915550565b60606107896001600160a01b03831660145b606060006126c28360026132f9565b6126cd906002613318565b67ffffffffffffffff8111156126e5576126e5612b24565b6040519080825280601f01601f19166020018201604052801561270f576020820181803683370190505b509050600360fc1b8160008151811061272a5761272a612ee2565b60200101906001600160f81b031916908160001a905350600f60fb1b8160018151811061275957612759612ee2565b60200101906001600160f81b031916908160001a905350600061277d8460026132f9565b612788906001613318565b90505b6001811115612800576f181899199a1a9b1b9c1cb0b131b232b360811b85600f16601081106127bc576127bc612ee2565b1a60f81b8282815181106127d2576127d2612ee2565b60200101906001600160f81b031916908160001a90535060049490941c936127f981613330565b905061278b565b5083156112835760405162461bcd60e51b815260206004820181905260248201527f537472696e67733a20686578206c656e67746820696e73756666696369656e7460448201526064016108bd565b600054610100900460ff166128765760405162461bcd60e51b81526004016108bd9061311a565b60fc6128828382612f46565b5060fd6109708282612f46565b600054610100900460ff166128b65760405162461bcd60e51b81526004016108bd9061311a565b600160ca55565b600054610100900460ff1661154a5760405162461bcd60e51b81526004016108bd9061311a565b600082815260656020526040808220600101805490849055905190918391839186917fbd79b86ffe0ab8e8776151514217cd7cacd52c909f66475c3af44e129f0b00ff9190a4505050565b6001600160e01b0319811681146109bb57600080fd5b60006020828403121561295757600080fd5b81356112838161292f565b60005b8381101561297d578181015183820152602001612965565b8381111561113d5750506000910152565b600081518084526129a6816020860160208601612962565b601f01601f19169290920160200192915050565b602081526000611283602083018461298e565b6000602082840312156129df57600080fd5b5035919050565b6001600160a01b03811681146109bb57600080fd5b8035612a06816129e6565b919050565b60008060408385031215612a1e57600080fd5b8235612a29816129e6565b946020939093013593505050565b634e487b7160e01b600052602160045260246000fd5b6020810160058310612a6f57634e487b7160e01b600052602160045260246000fd5b91905290565b600060208284031215612a8757600080fd5b8135611283816129e6565b600080600060608486031215612aa757600080fd5b8335612ab2816129e6565b92506020840135612ac2816129e6565b929592945050506040919091013590565b600060208284031215612ae557600080fd5b81356005811061128357600080fd5b60008060408385031215612b0757600080fd5b823591506020830135612b19816129e6565b809150509250929050565b634e487b7160e01b600052604160045260246000fd5b600067ffffffffffffffff80841115612b5557612b55612b24565b604051601f8501601f19908116603f01168101908282118183101715612b7d57612b7d612b24565b81604052809350858152868686011115612b9657600080fd5b858560208301376000602087830101525050509392505050565b600082601f830112612bc157600080fd5b61128383833560208501612b3a565b600060208284031215612be257600080fd5b813567ffffffffffffffff811115612bf957600080fd5b6115c484828501612bb0565b80358015158114612a0657600080fd5b60008060408385031215612c2857600080fd5b8235612c33816129e6565b9150612c4160208401612c05565b90509250929050565b60008060008060808587031215612c6057600080fd5b8435612c6b816129e6565b93506020850135612c7b816129e6565b925060408501359150606085013567ffffffffffffffff811115612c9e57600080fd5b8501601f81018713612caf57600080fd5b612cbe87823560208401612b3a565b91505092959194509250565b60008060008060008060008060008060006101608c8e031215612cec57600080fd5b612cf58c6129fb565b9a5067ffffffffffffffff8060208e01351115612d1157600080fd5b612d218e60208f01358f01612bb0565b9a508060408e01351115612d3457600080fd5b612d448e60408f01358f01612bb0565b99508060608e01351115612d5757600080fd5b50612d688d60608e01358e01612bb0565b9750612d7660808d016129fb565b9650612d8460a08d016129fb565b9550612d9260c08d016129fb565b9450612da060e08d016129fb565b9350612daf6101008d016129fb565b9250612dbe6101208d01612c05565b91506101408c013590509295989b509295989b9093969950565b60008060408385031215612deb57600080fd5b8235612df6816129e6565b91506020830135612b19816129e6565b600181811c90821680612e1a57607f821691505b602082108103612e3a57634e487b7160e01b600052602260045260246000fd5b50919050565b60208082526035908201527f436f6c6c656374696f6e416363657373436f6e74726f6c52756c65733a206163604082015274636f756e74206973207a65726f206164647265737360581b606082015260800190565b6020808252602d908201527f4552433732313a2063616c6c6572206973206e6f7420746f6b656e206f776e6560408201526c1c881bdc88185c1c1c9bdd9959609a1b606082015260800190565b634e487b7160e01b600052603260045260246000fd5b601f82111561097057600081815260208120601f850160051c81016020861015612f1f5750805b601f850160051c820191505b81811015612f3e57828155600101612f2b565b505050505050565b815167ffffffffffffffff811115612f6057612f60612b24565b612f7481612f6e8454612e06565b84612ef8565b602080601f831160018114612fa95760008415612f915750858301515b600019600386901b1c1916600185901b178555612f3e565b600085815260208120601f198616915b82811015612fd857888601518255948401946001909101908401612fb9565b5085821015612ff65787850151600019600388901b60f8161c191681555b5050505050600190811b01905550565b6020808252602e908201527f496e697469616c697a61626c653a20636f6e747261637420697320616c72656160408201526d191e481a5b9a5d1a585b1a5e995960921b606082015260800190565b60008351613066818460208801612962565b83519083019061307a818360208801612962565b01949350505050565b60208082526025908201527f4552433732313a207472616e736665722066726f6d20696e636f72726563742060408201526437bbb732b960d91b606082015260800190565b60208082526032908201527f4552433732313a207472616e7366657220746f206e6f6e20455243373231526560408201527131b2b4bb32b91034b6b83632b6b2b73a32b960711b606082015260800190565b6020808252602b908201527f496e697469616c697a61626c653a20636f6e7472616374206973206e6f74206960408201526a6e697469616c697a696e6760a81b606082015260800190565b60006101208083526131798184018d61298e565b9050828103602084015261318d818c61298e565b905082810360408401526131a1818b61298e565b6001600160a01b03998a1660608501529789166080840152505060a081019490945291851660c084015290931660e0820152911515610100909201919091529392505050565b7f416363657373436f6e74726f6c3a206163636f756e742000000000000000000081526000835161321f816017850160208801612962565b7001034b99036b4b9b9b4b733903937b6329607d1b6017918401918201528351613250816028840160208801612962565b01602801949350505050565b6001600160a01b038581168252841660208201526040810183905260806060820181905260009061328f9083018461298e565b9695505050505050565b6000602082840312156132ab57600080fd5b81516112838161292f565b634e487b7160e01b600052601160045260246000fd5b6000828210156132de576132de6132b6565b500390565b634e487b7160e01b600052603160045260246000fd5b6000816000190483118215151615613313576133136132b6565b500290565b6000821982111561332b5761332b6132b6565b500190565b60008161333f5761333f6132b6565b50600019019056fe3b49a237fe2d18fa4d9642b8a0e065923cceb71b797783b619a030a61d848bf069fc995a7cdbc94c95dc768dfaa8ceead6003727063f7d665556608319262298a49807205ce4d355092ef5a8a18f56e8913cf4a201fbe287825b095693c21775a2646970667358221220e87aba9177f97527f661cdc9ed06b162fe34971cd2b0c0249853402e4cc4b69e64736f6c634300080f0033",
    "linkReferences": {}
  },
  "methodIdentifiers": {
    "ADMIN()": "2a0acc6a",
    "ADMIN_ROLE()": "75b238fc",
    "CONFIGURATOR()": "fb7bf61a",
    "CONFIGURATOR_ROLE()": "d853015e",
    "DEFAULT_ADMIN_ROLE()": "a217fddf",
    "TRANSFORMER()": "10cb645d",
    "TRANSFORMER_ROLE()": "70edac76",
    "acceptOwnership()": "79ba5097",
    "addConfigurator(address)": "7a266db0",
    "addTransformer(address)": "22b56a68",
    "allowedToExecuteMint()": "ac3149e3",
    "approve(address,uint256)": "095ea7b3",
    "balanceOf(address)": "70a08231",
    "baseTokenURI()": "d547cfb7",
    "burn(uint256)": "42966c68",
    "burner(uint256)": "11db8d1b",
    "burnerOf(uint256)": "ca0df4a1",
    "changeState(uint8)": "268f1153",
    "currentState()": "0c3f6acf",
    "getApproved(uint256)": "081812fc",
    "getRoleAdmin(bytes32)": "248a9ca3",
    "getTrustedForwarder()": "ce1b815f",
    "grantRole(bytes32,address)": "2f2ff15d",
    "hasRole(bytes32,address)": "91d14854",
    "initialize(address,string,string,string,address,address,address,address,address,bool,uint256)": "c5d3357e",
    "isApprovedForAll(address,address)": "e985e9c5",
    "isTrustedForwarder(address)": "572b6c05",
    "maxSupply()": "d5abeb01",
    "name()": "06fdde03",
    "owner()": "8da5cb5b",
    "ownerOf(uint256)": "6352211e",
    "pendingOwner()": "e30c3978",
    "renounceOwnership()": "715018a6",
    "renounceRole(bytes32,address)": "36568abe",
    "revokeConfiguratorRole(address)": "d5d1713f",
    "revokeRole(bytes32,address)": "d547741f",
    "revokeTransformerRole(address)": "5775363c",
    "safeTransferFrom(address,address,uint256)": "42842e0e",
    "safeTransferFrom(address,address,uint256,bytes)": "b88d4fde",
    "sandOwner()": "e89bcd09",
    "setApprovalForAll(address,bool)": "a22cb465",
    "setBaseURI(string)": "55f804b3",
    "signAddress()": "0682bdbc",
    "supportsInterface(bytes4)": "01ffc9a7",
    "symbol()": "95d89b41",
    "tokenByIndex(uint256)": "4f6ccce7",
    "tokenOfOwnerByIndex(address,uint256)": "2f745c59",
    "tokenURI(uint256)": "c87b56dd",
    "totalSupply()": "18160ddd",
    "transferFrom(address,address,uint256)": "23b872dd",
    "transferOwnership(address)": "f2fde38b"
  },
  "id": 48
}