{
  "address": "0x6b4831e24F0cd73d4150EF4694aA87d6c104A774",
  "abi": [
    {
      "anonymous": false,
      "inputs": [
        {
          "indexed": false,
          "internalType": "uint256",
          "name": "newERC1155MultiplierLimit",
          "type": "uint256"
        }
      ],
      "name": "ERC1155MultiplierLimitSet",
      "type": "event"
    },
    {
      "anonymous": false,
      "inputs": [
        {
          "indexed": true,
          "internalType": "address",
          "name": "contractERC1155",
          "type": "address"
        }
      ],
      "name": "ERC1155MultiplierListDeleted",
      "type": "event"
    },
    {
      "anonymous": false,
      "inputs": [
        {
          "indexed": true,
          "internalType": "address",
          "name": "contractERC1155",
          "type": "address"
        },
        {
          "indexed": false,
          "internalType": "uint256[]",
          "name": "multipliers",
          "type": "uint256[]"
        },
        {
          "indexed": false,
          "internalType": "uint256[]",
          "name": "ids",
          "type": "uint256[]"
        }
      ],
      "name": "ERC1155MultiplierListSet",
      "type": "event"
    },
    {
      "anonymous": false,
      "inputs": [
        {
          "indexed": false,
          "internalType": "uint256",
          "name": "newERC721MultiplierLimit",
          "type": "uint256"
        }
      ],
      "name": "ERC721MultiplierLimitSet",
      "type": "event"
    },
    {
      "anonymous": false,
      "inputs": [
        {
          "indexed": true,
          "internalType": "address",
          "name": "contractERC721",
          "type": "address"
        }
      ],
      "name": "ERC721MultiplierListDeleted",
      "type": "event"
    },
    {
      "anonymous": false,
      "inputs": [
        {
          "indexed": true,
          "internalType": "address",
          "name": "contractERC721",
          "type": "address"
        },
        {
          "indexed": false,
          "internalType": "uint256[]",
          "name": "multipliers",
          "type": "uint256[]"
        },
        {
          "indexed": false,
          "internalType": "uint256[]",
          "name": "ids",
          "type": "uint256[]"
        },
        {
          "indexed": false,
          "internalType": "bool",
          "name": "balanceOf",
          "type": "bool"
        }
      ],
      "name": "ERC721MultiplierListSet",
      "type": "event"
    },
    {
      "anonymous": false,
      "inputs": [
        {
          "indexed": true,
          "internalType": "address",
          "name": "previousOwner",
          "type": "address"
        },
        {
          "indexed": true,
          "internalType": "address",
          "name": "newOwner",
          "type": "address"
        }
      ],
      "name": "OwnershipTransferred",
      "type": "event"
    },
    {
      "inputs": [
        {
          "internalType": "address",
          "name": "account",
          "type": "address"
        },
        {
          "internalType": "uint256",
          "name": "amountStaked",
          "type": "uint256"
        }
      ],
      "name": "computeMultiplier",
      "outputs": [
        {
          "internalType": "uint256",
          "name": "",
          "type": "uint256"
        }
      ],
      "stateMutability": "view",
      "type": "function"
    },
    {
      "inputs": [],
      "name": "contractsLimit",
      "outputs": [
        {
          "internalType": "uint256",
          "name": "",
          "type": "uint256"
        }
      ],
      "stateMutability": "view",
      "type": "function"
    },
    {
      "inputs": [
        {
          "internalType": "address",
          "name": "contractERC1155",
          "type": "address"
        }
      ],
      "name": "deleteERC1155MultiplierList",
      "outputs": [],
      "stateMutability": "nonpayable",
      "type": "function"
    },
    {
      "inputs": [
        {
          "internalType": "address",
          "name": "contractERC721",
          "type": "address"
        }
      ],
      "name": "deleteERC721MultiplierList",
      "outputs": [],
      "stateMutability": "nonpayable",
      "type": "function"
    },
    {
      "inputs": [
        {
          "internalType": "address",
          "name": "reqContract",
          "type": "address"
        }
      ],
      "name": "getERC1155MultiplierList",
      "outputs": [
        {
          "components": [
            {
              "internalType": "uint256[]",
              "name": "ids",
              "type": "uint256[]"
            },
            {
              "internalType": "uint256[]",
              "name": "multipliers",
              "type": "uint256[]"
            },
            {
              "internalType": "bool",
              "name": "balanceOf",
              "type": "bool"
            },
            {
              "internalType": "uint256",
              "name": "index",
              "type": "uint256"
            }
          ],
          "internalType": "struct ContributionRules.MultiplierRule",
          "name": "",
          "type": "tuple"
        }
      ],
      "stateMutability": "view",
      "type": "function"
    },
    {
      "inputs": [
        {
          "internalType": "address",
          "name": "reqContract",
          "type": "address"
        }
      ],
      "name": "getERC721MultiplierList",
      "outputs": [
        {
          "components": [
            {
              "internalType": "uint256[]",
              "name": "ids",
              "type": "uint256[]"
            },
            {
              "internalType": "uint256[]",
              "name": "multipliers",
              "type": "uint256[]"
            },
            {
              "internalType": "bool",
              "name": "balanceOf",
              "type": "bool"
            },
            {
              "internalType": "uint256",
              "name": "index",
              "type": "uint256"
            }
          ],
          "internalType": "struct ContributionRules.MultiplierRule",
          "name": "",
          "type": "tuple"
        }
      ],
      "stateMutability": "view",
      "type": "function"
    },
    {
      "inputs": [
        {
          "internalType": "address",
          "name": "account",
          "type": "address"
        }
      ],
      "name": "getMaxGlobalMultiplier",
      "outputs": [
        {
          "internalType": "uint256",
          "name": "",
          "type": "uint256"
        }
      ],
      "stateMutability": "view",
      "type": "function"
    },
    {
      "inputs": [],
      "name": "idsLimit",
      "outputs": [
        {
          "internalType": "uint256",
          "name": "",
          "type": "uint256"
        }
      ],
      "stateMutability": "view",
      "type": "function"
    },
    {
      "inputs": [
        {
          "internalType": "contract IERC1155",
          "name": "reqContract",
          "type": "address"
        }
      ],
      "name": "isERC1155MemberMultiplierList",
      "outputs": [
        {
          "internalType": "bool",
          "name": "",
          "type": "bool"
        }
      ],
      "stateMutability": "view",
      "type": "function"
    },
    {
      "inputs": [
        {
          "internalType": "contract IERC721",
          "name": "reqContract",
          "type": "address"
        }
      ],
      "name": "isERC721MemberMultiplierList",
      "outputs": [
        {
          "internalType": "bool",
          "name": "",
          "type": "bool"
        }
      ],
      "stateMutability": "view",
      "type": "function"
    },
    {
      "inputs": [],
      "name": "maxMultiplier",
      "outputs": [
        {
          "internalType": "uint256",
          "name": "",
          "type": "uint256"
        }
      ],
      "stateMutability": "view",
      "type": "function"
    },
    {
      "inputs": [
        {
          "internalType": "address",
          "name": "account",
          "type": "address"
        }
      ],
      "name": "multiplierBalanceOfERC1155",
      "outputs": [
        {
          "internalType": "uint256",
          "name": "",
          "type": "uint256"
        }
      ],
      "stateMutability": "view",
      "type": "function"
    },
    {
      "inputs": [
        {
          "internalType": "address",
          "name": "account",
          "type": "address"
        }
      ],
      "name": "multiplierBalanceOfERC721",
      "outputs": [
        {
          "internalType": "uint256",
          "name": "",
          "type": "uint256"
        }
      ],
      "stateMutability": "view",
      "type": "function"
    },
    {
      "inputs": [],
      "name": "multiplierLimitERC1155",
      "outputs": [
        {
          "internalType": "uint256",
          "name": "",
          "type": "uint256"
        }
      ],
      "stateMutability": "view",
      "type": "function"
    },
    {
      "inputs": [],
      "name": "multiplierLimitERC721",
      "outputs": [
        {
          "internalType": "uint256",
          "name": "",
          "type": "uint256"
        }
      ],
      "stateMutability": "view",
      "type": "function"
    },
    {
      "inputs": [
        {
          "internalType": "address",
          "name": "account",
          "type": "address"
        },
        {
          "internalType": "contract IERC721",
          "name": "contractERC721",
          "type": "address"
        }
      ],
      "name": "multiplierLogarithm",
      "outputs": [
        {
          "internalType": "uint256",
          "name": "",
          "type": "uint256"
        }
      ],
      "stateMutability": "view",
      "type": "function"
    },
    {
      "inputs": [],
      "name": "owner",
      "outputs": [
        {
          "internalType": "address",
          "name": "",
          "type": "address"
        }
      ],
      "stateMutability": "view",
      "type": "function"
    },
    {
      "inputs": [],
      "name": "renounceOwnership",
      "outputs": [],
      "stateMutability": "view",
      "type": "function"
    },
    {
      "inputs": [
        {
          "internalType": "uint256",
          "name": "_newLimit",
          "type": "uint256"
        }
      ],
      "name": "setERC1155MultiplierLimit",
      "outputs": [],
      "stateMutability": "nonpayable",
      "type": "function"
    },
    {
      "inputs": [
        {
          "internalType": "address",
          "name": "contractERC1155",
          "type": "address"
        },
        {
          "internalType": "uint256[]",
          "name": "ids",
          "type": "uint256[]"
        },
        {
          "internalType": "uint256[]",
          "name": "multipliers",
          "type": "uint256[]"
        }
      ],
      "name": "setERC1155MultiplierList",
      "outputs": [],
      "stateMutability": "nonpayable",
      "type": "function"
    },
    {
      "inputs": [
        {
          "internalType": "uint256",
          "name": "_newLimit",
          "type": "uint256"
        }
      ],
      "name": "setERC721MultiplierLimit",
      "outputs": [],
      "stateMutability": "nonpayable",
      "type": "function"
    },
    {
      "inputs": [
        {
          "internalType": "address",
          "name": "contractERC721",
          "type": "address"
        },
        {
          "internalType": "uint256[]",
          "name": "ids",
          "type": "uint256[]"
        },
        {
          "internalType": "uint256[]",
          "name": "multipliers",
          "type": "uint256[]"
        },
        {
          "internalType": "bool",
          "name": "balanceOf",
          "type": "bool"
        }
      ],
      "name": "setERC721MultiplierList",
      "outputs": [],
      "stateMutability": "nonpayable",
      "type": "function"
    },
    {
      "inputs": [
        {
          "internalType": "address",
          "name": "newOwner",
          "type": "address"
        }
      ],
      "name": "transferOwnership",
      "outputs": [],
      "stateMutability": "nonpayable",
      "type": "function"
    }
  ],
  "transactionHash": "0xe33e683bfa737974fb9815963d0a627aa6a808b49b98d4aac8a5b999811b6abe",
  "args": [],
  "numDeployments": 1,
  "solcInputHash": "95c7aac143cdd47e5a0deeb870149f31",
  "bytecode": "0x60806040526103e86001556103e860025534801561001c57600080fd5b506100263361002b565b61007b565b600080546001600160a01b038381166001600160a01b0319831681178455604051919092169283917f8be0079c531659141344cd1fd0a4f28419497f9722a3daafe3b4186f6b6457e09190a35050565b61245a8061008a6000396000f3fe608060405234801561001057600080fd5b506004361061018d5760003560e01c8063bb04b749116100e3578063dfe8d78b1161008c578063f0f4985611610066578063f0f4985614610314578063f2fde38b1461031c578063f47398661461032f5761018d565b8063dfe8d78b146102f0578063e255911214610303578063e5604c561461030b5761018d565b8063c6ee034c116100bd578063c6ee034c146102b7578063ccf144b0146102ca578063d71df33b146102dd5761018d565b8063bb04b7491461026e578063bd53c87614610291578063c51520d7146102a45761018d565b80633f6f66f511610145578063715018a61161011f578063715018a61461023857806383d8a49b146102405780638da5cb5b146102535761018d565b80633f6f66f5146102095780634eb2a85f1461021c57806360423854146102255761018d565b8063254c77a411610176578063254c77a4146101c35780632dbbf782146101d657806337490e5b146101e95761018d565b80630187aea01461019257806311b2dc16146101ae575b600080fd5b61019b6103e881565b6040519081526020015b60405180910390f35b6101c16101bc366004612120565b610342565b005b61019b6101d1366004611f81565b610455565b6101c16101e4366004611f81565b610479565b6101fc6101f7366004611f81565b610710565b6040516101a591906121e7565b61019b6102173660046120f5565b610909565b61019b60015481565b6101c1610233366004612120565b610976565b6101c1610a7d565b61019b61024e366004611f81565b610b45565b6000546040516001600160a01b0390911681526020016101a5565b61028161027c366004611f81565b610d47565b60405190151581526020016101a5565b6101fc61029f366004611f81565b610db2565b61019b6102b23660046120bd565b610fa7565b6101c16102c5366004611fc0565b6110da565b61019b6102d8366004611f81565b61145f565b6101c16102eb366004611f81565b61162e565b6102816102fe366004611f81565b6118c4565b61019b604081565b61019b60025481565b61019b600481565b6101c161032a366004611f81565b611912565b6101c161033d366004612033565b6119f4565b6000546001600160a01b031633146103a15760405162461bcd60e51b815260206004820181905260248201527f4f776e61626c653a2063616c6c6572206973206e6f7420746865206f776e657260448201526064015b60405180910390fd5b6103e88111156104195760405162461bcd60e51b815260206004820152602360248201527f436f6e747269627574696f6e52756c65733a20696e76616c6964206e65774c6960448201527f6d697400000000000000000000000000000000000000000000000000000000006064820152608401610398565b60018190556040518181527fa8a94b42c787336b81afae8b2a2f11f8eb5f176aca98cfeb0e67f99aac0ae76a906020015b60405180910390a150565b60006104608261145f565b61046983610b45565b6104739190612243565b92915050565b806001600160a01b0381163b6104dc5760405162461bcd60e51b815260206004820152602260248201527f436f6e747269627574696f6e52756c65733a206973206e6f7420636f6e74726160448201526118dd60f21b6064820152608401610398565b816104e6816118c4565b6105585760405162461bcd60e51b815260206004820152602e60248201527f436f6e747269627574696f6e52756c65733a20636f6e7472616374206973206e60448201527f6f7420696e20746865206c6973740000000000000000000000000000000000006064820152608401610398565b6000546001600160a01b031633146105b25760405162461bcd60e51b815260206004820181905260248201527f4f776e61626c653a2063616c6c6572206973206e6f7420746865206f776e65726044820152606401610398565b6001600160a01b03831660009081526004602052604081206003015460068054869391906105e2906001906123b1565b8154811061060057634e487b7160e01b600052603260045260246000fd5b600091825260209091200154600680546001600160a01b03909216925082918490811061063d57634e487b7160e01b600052603260045260246000fd5b6000918252602080832091909101805473ffffffffffffffffffffffffffffffffffffffff19166001600160a01b03948516179055918316815260049091526040902060030182905560068054806106a557634e487b7160e01b600052603160045260246000fd5b6000828152602081208201600019908101805473ffffffffffffffffffffffffffffffffffffffff191690559091019091556040516001600160a01b038516917fee22cfa3793184abd6ebfbb6c11480b34c2cef4faf388b801e80660ee64b579f91a2505050505050565b61073d60405180608001604052806060815260200160608152602001600015158152602001600081525090565b816001600160a01b0381163b6107a05760405162461bcd60e51b815260206004820152602260248201527f436f6e747269627574696f6e52756c65733a206973206e6f7420636f6e74726160448201526118dd60f21b6064820152608401610398565b826107aa816118c4565b61081c5760405162461bcd60e51b815260206004820152602e60248201527f436f6e747269627574696f6e52756c65733a20636f6e7472616374206973206e60448201527f6f7420696e20746865206c6973740000000000000000000000000000000000006064820152608401610398565b6001600160a01b0384166000908152600460209081526040918290208251815460a09381028201840190945260808101848152909391928492849184018282801561088657602002820191906000526020600020905b815481526020019060010190808311610872575b50505050508152602001600182018054806020026020016040519081016040528092919081815260200182805480156108de57602002820191906000526020600020905b8154815260200190600101908083116108ca575b5050509183525050600282015460ff1615156020820152600390910154604090910152949350505050565b60008061091584610b45565b905060006109228561145f565b90508160015410156109345760015491505b80600254101561094357506002545b606461094f8284612243565b6109599086612392565b610963919061225b565b61096d9085612243565b95945050505050565b6000546001600160a01b031633146109d05760405162461bcd60e51b815260206004820181905260248201527f4f776e61626c653a2063616c6c6572206973206e6f7420746865206f776e65726044820152606401610398565b6103e8811115610a485760405162461bcd60e51b815260206004820152602360248201527f436f6e747269627574696f6e52756c65733a20696e76616c6964206e65774c6960448201527f6d697400000000000000000000000000000000000000000000000000000000006064820152608401610398565b60028190556040518181527fb3b5f59f1f2b30b5f1c0e5c569c9737f2557713e082b60b911ce49a28a17e1f79060200161044a565b6000546001600160a01b03163314610ad75760405162461bcd60e51b815260206004820181905260248201527f4f776e61626c653a2063616c6c6572206973206e6f7420746865206f776e65726044820152606401610398565b60405162461bcd60e51b815260206004820152602a60248201527f436f6e747269627574696f6e52756c65733a2063616e27742072656e6f756e6360448201527f654f776e657273686970000000000000000000000000000000000000000000006064820152608401610398565b600080805b600554811015610d4057600060058281548110610b7757634e487b7160e01b600052603260045260246000fd5b60009182526020808320909101546001600160a01b0316808352600390915260409091206002015490915060ff16151560011415610bca57610bb98582610fa7565b610bc39084612243565b9250610d2d565b60005b6001600160a01b038216600090815260036020526040902054811015610d2b576001600160a01b03821660008181526003602052604081208054919291636352211e919085908110610c2f57634e487b7160e01b600052603260045260246000fd5b90600052602060002001546040518263ffffffff1660e01b8152600401610c5891815260200190565b60206040518083038186803b158015610c7057600080fd5b505afa158015610c84573d6000803e3d6000fd5b505050506040513d601f19601f82011682018060405250810190610ca89190611fa4565b9050866001600160a01b0316816001600160a01b03161415610d18576001600160a01b0383166000908152600360205260409020600101805483908110610cff57634e487b7160e01b600052603260045260246000fd5b906000526020600020015485610d159190612243565b94505b5080610d23816123c8565b915050610bcd565b505b5080610d38816123c8565b915050610b4a565b5092915050565b6005546000901580159061047357506001600160a01b03821660008181526003602081905260409091200154600580549091908110610d9657634e487b7160e01b600052603260045260246000fd5b6000918252602090912001546001600160a01b03161492915050565b610ddf60405180608001604052806060815260200160608152602001600015158152602001600081525090565b816001600160a01b0381163b610e425760405162461bcd60e51b815260206004820152602260248201527f436f6e747269627574696f6e52756c65733a206973206e6f7420636f6e74726160448201526118dd60f21b6064820152608401610398565b82610e4c81610d47565b610ebe5760405162461bcd60e51b815260206004820152602e60248201527f436f6e747269627574696f6e52756c65733a20636f6e7472616374206973206e60448201527f6f7420696e20746865206c6973740000000000000000000000000000000000006064820152608401610398565b6001600160a01b0384166000908152600360209081526040918290208251815460a09381028201840190945260808101848152909391928492849184018282801561088657602002820191906000526020600020908154815260200190600101908083116108725750505050508152602001600182018054806020026020016040519081016040528092919081815260200182805480156108de57602002820191906000526020600020908154815260200190600101908083116108ca575050509183525050600282015460ff1615156020820152600390910154604090910152949350505050565b6040517f70a082310000000000000000000000000000000000000000000000000000000081526001600160a01b03838116600483015260009182918416906370a082319060240160206040518083038186803b15801561100657600080fd5b505afa15801561101a573d6000803e3d6000fd5b505050506040513d601f19601f8201168201806040525081019061103e9190612138565b90508061104f576000915050610473565b600061107c6102b96110626001856123b1565b61106c9190612392565b611077906001612243565b611d54565b61108890612328612243565b61109490612710612392565b9050631dcd65008111156110cd57600a6110b2631dcd6500836123b1565b6110bc919061225b565b6110ca90631dcd6500612243565b90505b61096d629896808261225b565b6000546001600160a01b031633146111345760405162461bcd60e51b815260206004820181905260248201527f4f776e61626c653a2063616c6c6572206973206e6f7420746865206f776e65726044820152606401610398565b826001600160a01b0381163b6111975760405162461bcd60e51b815260206004820152602260248201527f436f6e747269627574696f6e52756c65733a206973206e6f7420636f6e74726160448201526118dd60f21b6064820152608401610398565b600083511180156111aa57506040835111155b61121c5760405162461bcd60e51b815260206004820152602760248201527f436f6e747269627574696f6e52756c65733a20696e76616c696420617272617960448201527f206f6620696473000000000000000000000000000000000000000000000000006064820152608401610398565b60008251116112935760405162461bcd60e51b815260206004820152602f60248201527f436f6e747269627574696f6e52756c65733a20696e76616c696420617272617960448201527f206f66206d756c7469706c6965727300000000000000000000000000000000006064820152608401610398565b8361129d816118c4565b61139c576006546004116113195760405162461bcd60e51b815260206004820152602a60248201527f436f6e747269627574696f6e52756c65733a20636f6e7472616374734c696d6960448201527f74206578636565646564000000000000000000000000000000000000000000006064820152608401610398565b600680546001808201835560008390527ff652222313e28459528d920b65115c16c04f3efc82aaedc97be59f3f377c0d3f909101805473ffffffffffffffffffffffffffffffffffffffff19166001600160a01b038516179055905461137f91906123b1565b6001600160a01b0382166000908152600460205260409020600301555b6001600160a01b038116600090815260046020908152604090912085516113c592870190611e84565b506001600160a01b038116600090815260046020908152604090912084516113f592600190920191860190611e84565b506001600160a01b0380821660009081526004602052604090819020600201805460ff1916905551908616907f7b486d93ca562a4cdffc23976220456f031607475580f6ffafae799291624ab290611450908690889061218a565b60405180910390a25050505050565b600080805b600654811015610d405760006006828154811061149157634e487b7160e01b600052603260045260246000fd5b60009182526020822001546001600160a01b031691505b6001600160a01b038216600090815260046020526040902054811015611619576001600160a01b0382166000818152600460205260408120805491929162fdd58e918a918690811061150a57634e487b7160e01b600052603260045260246000fd5b6000918252602090912001546040517fffffffff0000000000000000000000000000000000000000000000000000000060e085901b1681526001600160a01b039092166004830152602482015260440160206040518083038186803b15801561157257600080fd5b505afa158015611586573d6000803e3d6000fd5b505050506040513d601f19601f820116820180604052508101906115aa9190612138565b90508015611606576001600160a01b03831660009081526004602052604090206001018054839081106115ed57634e487b7160e01b600052603260045260246000fd5b9060005260206000200154856116039190612243565b94505b5080611611816123c8565b9150506114a8565b50508080611626906123c8565b915050611464565b806001600160a01b0381163b6116915760405162461bcd60e51b815260206004820152602260248201527f436f6e747269627574696f6e52756c65733a206973206e6f7420636f6e74726160448201526118dd60f21b6064820152608401610398565b8161169b81610d47565b61170d5760405162461bcd60e51b815260206004820152602e60248201527f436f6e747269627574696f6e52756c65733a20636f6e7472616374206973206e60448201527f6f7420696e20746865206c6973740000000000000000000000000000000000006064820152608401610398565b6000546001600160a01b031633146117675760405162461bcd60e51b815260206004820181905260248201527f4f776e61626c653a2063616c6c6572206973206e6f7420746865206f776e65726044820152606401610398565b6001600160a01b0383166000908152600360208190526040822001546005805486939190611797906001906123b1565b815481106117b557634e487b7160e01b600052603260045260246000fd5b600091825260209091200154600580546001600160a01b0390921692508291849081106117f257634e487b7160e01b600052603260045260246000fd5b6000918252602080832091909101805473ffffffffffffffffffffffffffffffffffffffff19166001600160a01b0394851617905591831681526003918290526040902001829055600580548061185957634e487b7160e01b600052603160045260246000fd5b6000828152602081208201600019908101805473ffffffffffffffffffffffffffffffffffffffff191690559091019091556040516001600160a01b038516917fd48581b30704212f3e5a542f84e0a344663c83bfad12110bcca49d4861f5952b91a2505050505050565b6006546000901580159061047357506001600160a01b038216600081815260046020526040902060030154600680549091908110610d9657634e487b7160e01b600052603260045260246000fd5b6000546001600160a01b0316331461196c5760405162461bcd60e51b815260206004820181905260248201527f4f776e61626c653a2063616c6c6572206973206e6f7420746865206f776e65726044820152606401610398565b6001600160a01b0381166119e85760405162461bcd60e51b815260206004820152602660248201527f4f776e61626c653a206e6577206f776e657220697320746865207a65726f206160448201527f64647265737300000000000000000000000000000000000000000000000000006064820152608401610398565b6119f181611e27565b50565b6000546001600160a01b03163314611a4e5760405162461bcd60e51b815260206004820181905260248201527f4f776e61626c653a2063616c6c6572206973206e6f7420746865206f776e65726044820152606401610398565b836001600160a01b0381163b611ab15760405162461bcd60e51b815260206004820152602260248201527f436f6e747269627574696f6e52756c65733a206973206e6f7420636f6e74726160448201526118dd60f21b6064820152608401610398565b60018215151480611acf575060008451118015611acf575083518351145b611b1b5760405162461bcd60e51b815260206004820152601f60248201527f436f6e747269627574696f6e52756c65733a20696e76616c6964206c697374006044820152606401610398565b604084511115611b935760405162461bcd60e51b815260206004820152602760248201527f436f6e747269627574696f6e52756c65733a20696e76616c696420617272617960448201527f206f6620696473000000000000000000000000000000000000000000000000006064820152608401610398565b84611b9d81610d47565b611c9d57600554600411611c195760405162461bcd60e51b815260206004820152602a60248201527f436f6e747269627574696f6e52756c65733a20636f6e7472616374734c696d6960448201527f74206578636565646564000000000000000000000000000000000000000000006064820152608401610398565b600580546001808201835560008390527f036b6384b5eca791c62761152d0c79bb0604c104a5fb6f4eb0703f3154bb3db0909101805473ffffffffffffffffffffffffffffffffffffffff19166001600160a01b0385161790559054611c7f91906123b1565b6001600160a01b038216600090815260036020819052604090912001555b6001600160a01b03811660009081526003602090815260409091208551611ccc92600190920191870190611e84565b506001600160a01b038116600090815260036020908152604090912060028101805460ff19168615151790558651611d0692880190611e84565b50856001600160a01b03167fc899474e882f1c85ac4f9de43336e3796e75a275390fdec75969fa031e23b7f5858786604051611d44939291906121af565b60405180910390a2505050505050565b6000611d64633b9aca0083612392565b915060006003611d75846002612243565b611d7f919061225b565b90508291505b81811015611e21579050806000611d9d6002836122c1565b9050818111611dee5760405162461bcd60e51b815260206004820152600860248201527f6f766572666c6f770000000000000000000000000000000000000000000000006044820152606401610398565b6003611dfb836002612392565b611e05838761225b565b611e0f9190612243565b611e19919061225b565b915050611d85565b50919050565b600080546001600160a01b0383811673ffffffffffffffffffffffffffffffffffffffff19831681178455604051919092169283917f8be0079c531659141344cd1fd0a4f28419497f9722a3daafe3b4186f6b6457e09190a35050565b828054828255906000526020600020908101928215611ebf579160200282015b82811115611ebf578251825591602001919060010190611ea4565b50611ecb929150611ecf565b5090565b5b80821115611ecb5760008155600101611ed0565b600082601f830112611ef4578081fd5b8135602067ffffffffffffffff80831115611f1157611f116123f9565b818302604051601f19603f83011681018181108482111715611f3557611f356123f9565b60405284815283810192508684018288018501891015611f53578687fd5b8692505b85831015611f75578035845292840192600192909201918401611f57565b50979650505050505050565b600060208284031215611f92578081fd5b8135611f9d8161240f565b9392505050565b600060208284031215611fb5578081fd5b8151611f9d8161240f565b600080600060608486031215611fd4578182fd5b8335611fdf8161240f565b9250602084013567ffffffffffffffff80821115611ffb578384fd5b61200787838801611ee4565b9350604086013591508082111561201c578283fd5b5061202986828701611ee4565b9150509250925092565b60008060008060808587031215612048578081fd5b84356120538161240f565b9350602085013567ffffffffffffffff8082111561206f578283fd5b61207b88838901611ee4565b94506040870135915080821115612090578283fd5b5061209d87828801611ee4565b925050606085013580151581146120b2578182fd5b939692955090935050565b600080604083850312156120cf578182fd5b82356120da8161240f565b915060208301356120ea8161240f565b809150509250929050565b60008060408385031215612107578182fd5b82356121128161240f565b946020939093013593505050565b600060208284031215612131578081fd5b5035919050565b600060208284031215612149578081fd5b5051919050565b6000815180845260208085019450808401835b8381101561217f57815187529582019590820190600101612163565b509495945050505050565b60006040825261219d6040830185612150565b828103602084015261096d8185612150565b6000606082526121c26060830186612150565b82810360208401526121d48186612150565b9150508215156040830152949350505050565b60006020825282516080602084015261220360a0840182612150565b90506020840151601f198483030160408501526122208282612150565b915050604084015115156060840152606084015160808401528091505092915050565b60008219821115612256576122566123e3565b500190565b60008261227657634e487b7160e01b81526012600452602481fd5b500490565b80825b600180861161228d57506122b8565b81870482111561229f5761229f6123e3565b808616156122ac57918102915b9490941c93800261227e565b94509492505050565b6000611f9d60001960ff8516846000826122dd57506001611f9d565b816122ea57506000611f9d565b8160018114612300576002811461230a57612337565b6001915050611f9d565b60ff84111561231b5761231b6123e3565b6001841b915084821115612331576123316123e3565b50611f9d565b5060208310610133831016604e8410600b841016171561236a575081810a83811115612365576123656123e3565b611f9d565b612377848484600161227b565b808604821115612389576123896123e3565b02949350505050565b60008160001904831182151516156123ac576123ac6123e3565b500290565b6000828210156123c3576123c36123e3565b500390565b60006000198214156123dc576123dc6123e3565b5060010190565b634e487b7160e01b600052601160045260246000fd5b634e487b7160e01b600052604160045260246000fd5b6001600160a01b03811681146119f157600080fdfea264697066735822122052b466d64eb34550e9efe92c2e8c0cde42898ef230e41845005cbadd1b631fbb64736f6c63430008020033",
  "devdoc": {
    "kind": "dev",
    "methods": {
      "owner()": {
        "details": "Returns the address of the current owner."
      },
      "renounceOwnership()": {
        "details": "Leaves the contract without owner. It will not be possible to call `onlyOwner` functions anymore. Can only be called by the current owner. NOTE: Renouncing ownership will leave the contract without an owner, thereby removing any functionality that is only available to the owner."
      },
      "transferOwnership(address)": {
        "details": "Transfers ownership of the contract to a new account (`newOwner`). Can only be called by the current owner."
      }
    },
    "version": 1
  },
  "userdoc": {
    "kind": "user",
    "methods": {},
    "version": 1
  },
  "storageLayout": {
    "storage": [
      {
        "astId": 539,
        "contract": "src/solc_0.8/defi/rules/ContributionRules.sol:ContributionRules",
        "label": "_owner",
        "offset": 0,
        "slot": "0",
        "type": "t_address"
      },
      {
        "astId": 39978,
        "contract": "src/solc_0.8/defi/rules/ContributionRules.sol:ContributionRules",
        "label": "multiplierLimitERC721",
        "offset": 0,
        "slot": "1",
        "type": "t_uint256"
      },
      {
        "astId": 39981,
        "contract": "src/solc_0.8/defi/rules/ContributionRules.sol:ContributionRules",
        "label": "multiplierLimitERC1155",
        "offset": 0,
        "slot": "2",
        "type": "t_uint256"
      },
      {
        "astId": 40013,
        "contract": "src/solc_0.8/defi/rules/ContributionRules.sol:ContributionRules",
        "label": "_listERC721",
        "offset": 0,
        "slot": "3",
        "type": "t_mapping(t_contract(IERC721)4247,t_struct(MultiplierRule)40007_storage)"
      },
      {
        "astId": 40019,
        "contract": "src/solc_0.8/defi/rules/ContributionRules.sol:ContributionRules",
        "label": "_listERC1155",
        "offset": 0,
        "slot": "4",
        "type": "t_mapping(t_contract(IERC1155)1986,t_struct(MultiplierRule)40007_storage)"
      },
      {
        "astId": 40023,
        "contract": "src/solc_0.8/defi/rules/ContributionRules.sol:ContributionRules",
        "label": "_listERC721Index",
        "offset": 0,
        "slot": "5",
        "type": "t_array(t_contract(IERC721)4247)dyn_storage"
      },
      {
        "astId": 40027,
        "contract": "src/solc_0.8/defi/rules/ContributionRules.sol:ContributionRules",
        "label": "_listERC1155Index",
        "offset": 0,
        "slot": "6",
        "type": "t_array(t_contract(IERC1155)1986)dyn_storage"
      }
    ],
    "types": {
      "t_address": {
        "encoding": "inplace",
        "label": "address",
        "numberOfBytes": "20"
      },
      "t_array(t_contract(IERC1155)1986)dyn_storage": {
        "base": "t_contract(IERC1155)1986",
        "encoding": "dynamic_array",
        "label": "contract IERC1155[]",
        "numberOfBytes": "32"
      },
      "t_array(t_contract(IERC721)4247)dyn_storage": {
        "base": "t_contract(IERC721)4247",
        "encoding": "dynamic_array",
        "label": "contract IERC721[]",
        "numberOfBytes": "32"
      },
      "t_array(t_uint256)dyn_storage": {
        "base": "t_uint256",
        "encoding": "dynamic_array",
        "label": "uint256[]",
        "numberOfBytes": "32"
      },
      "t_bool": {
        "encoding": "inplace",
        "label": "bool",
        "numberOfBytes": "1"
      },
      "t_contract(IERC1155)1986": {
        "encoding": "inplace",
        "label": "contract IERC1155",
        "numberOfBytes": "20"
      },
      "t_contract(IERC721)4247": {
        "encoding": "inplace",
        "label": "contract IERC721",
        "numberOfBytes": "20"
      },
      "t_mapping(t_contract(IERC1155)1986,t_struct(MultiplierRule)40007_storage)": {
        "encoding": "mapping",
        "key": "t_contract(IERC1155)1986",
        "label": "mapping(contract IERC1155 => struct ContributionRules.MultiplierRule)",
        "numberOfBytes": "32",
        "value": "t_struct(MultiplierRule)40007_storage"
      },
      "t_mapping(t_contract(IERC721)4247,t_struct(MultiplierRule)40007_storage)": {
        "encoding": "mapping",
        "key": "t_contract(IERC721)4247",
        "label": "mapping(contract IERC721 => struct ContributionRules.MultiplierRule)",
        "numberOfBytes": "32",
        "value": "t_struct(MultiplierRule)40007_storage"
      },
      "t_struct(MultiplierRule)40007_storage": {
        "encoding": "inplace",
        "label": "struct ContributionRules.MultiplierRule",
        "members": [
          {
            "astId": 39999,
            "contract": "src/solc_0.8/defi/rules/ContributionRules.sol:ContributionRules",
            "label": "ids",
            "offset": 0,
            "slot": "0",
            "type": "t_array(t_uint256)dyn_storage"
          },
          {
            "astId": 40002,
            "contract": "src/solc_0.8/defi/rules/ContributionRules.sol:ContributionRules",
            "label": "multipliers",
            "offset": 0,
            "slot": "1",
            "type": "t_array(t_uint256)dyn_storage"
          },
          {
            "astId": 40004,
            "contract": "src/solc_0.8/defi/rules/ContributionRules.sol:ContributionRules",
            "label": "balanceOf",
            "offset": 0,
            "slot": "2",
            "type": "t_bool"
          },
          {
            "astId": 40006,
            "contract": "src/solc_0.8/defi/rules/ContributionRules.sol:ContributionRules",
            "label": "index",
            "offset": 0,
            "slot": "3",
            "type": "t_uint256"
          }
        ],
        "numberOfBytes": "128"
      },
      "t_uint256": {
        "encoding": "inplace",
        "label": "uint256",
        "numberOfBytes": "32"
      }
    }
  }
}