{
  "address": "0x3d62a5c03b8464B22e8c703BbEe15Bea850bF09a",
  "abi": [
    {
      "inputs": [
        {
          "internalType": "address",
          "name": "landAddress",
          "type": "address"
        },
        {
          "internalType": "address",
          "name": "sandContractAddress",
          "type": "address"
        },
        {
          "internalType": "address",
          "name": "initialMetaTx",
          "type": "address"
        },
        {
          "internalType": "address",
          "name": "admin",
          "type": "address"
        },
        {
          "internalType": "address payable",
          "name": "initialWalletAddress",
          "type": "address"
        },
        {
          "internalType": "bytes32",
          "name": "merkleRoot",
          "type": "bytes32"
        },
        {
          "internalType": "uint256",
          "name": "expiryTime",
          "type": "uint256"
        },
        {
          "internalType": "address",
          "name": "initialSigningWallet",
          "type": "address"
        },
        {
          "internalType": "uint256",
          "name": "initialMaxCommissionRate",
          "type": "uint256"
        },
        {
          "internalType": "address",
          "name": "estate",
          "type": "address"
        },
        {
          "internalType": "address",
          "name": "asset",
          "type": "address"
        },
        {
          "internalType": "address",
          "name": "feeDistributor",
          "type": "address"
        },
        {
          "internalType": "address",
          "name": "authValidator",
          "type": "address"
        }
      ],
      "stateMutability": "nonpayable",
      "type": "constructor"
    },
    {
      "anonymous": false,
      "inputs": [
        {
          "indexed": false,
          "internalType": "address",
          "name": "oldAdmin",
          "type": "address"
        },
        {
          "indexed": false,
          "internalType": "address",
          "name": "newAdmin",
          "type": "address"
        }
      ],
      "name": "AdminChanged",
      "type": "event"
    },
    {
      "anonymous": false,
      "inputs": [
        {
          "indexed": true,
          "internalType": "address",
          "name": "buyer",
          "type": "address"
        },
        {
          "indexed": true,
          "internalType": "address",
          "name": "to",
          "type": "address"
        },
        {
          "indexed": true,
          "internalType": "uint256",
          "name": "topCornerId",
          "type": "uint256"
        },
        {
          "indexed": false,
          "internalType": "uint256",
          "name": "size",
          "type": "uint256"
        },
        {
          "indexed": false,
          "internalType": "uint256",
          "name": "price",
          "type": "uint256"
        },
        {
          "indexed": false,
          "internalType": "address",
          "name": "token",
          "type": "address"
        },
        {
          "indexed": false,
          "internalType": "uint256",
          "name": "amountPaid",
          "type": "uint256"
        }
      ],
      "name": "LandQuadPurchased",
      "type": "event"
    },
    {
      "anonymous": false,
      "inputs": [
        {
          "indexed": true,
          "internalType": "uint256",
          "name": "newMaxCommissionRate",
          "type": "uint256"
        }
      ],
      "name": "MaxCommissionRateUpdated",
      "type": "event"
    },
    {
      "anonymous": false,
      "inputs": [
        {
          "indexed": false,
          "internalType": "address",
          "name": "metaTransactionProcessor",
          "type": "address"
        },
        {
          "indexed": false,
          "internalType": "bool",
          "name": "enabled",
          "type": "bool"
        }
      ],
      "name": "MetaTransactionProcessor",
      "type": "event"
    },
    {
      "anonymous": false,
      "inputs": [
        {
          "indexed": true,
          "internalType": "address",
          "name": "newWallet",
          "type": "address"
        }
      ],
      "name": "NewReceivingWallet",
      "type": "event"
    },
    {
      "anonymous": false,
      "inputs": [
        {
          "indexed": true,
          "internalType": "address",
          "name": "referrer",
          "type": "address"
        },
        {
          "indexed": true,
          "internalType": "address",
          "name": "referee",
          "type": "address"
        },
        {
          "indexed": true,
          "internalType": "address",
          "name": "token",
          "type": "address"
        },
        {
          "indexed": false,
          "internalType": "uint256",
          "name": "amount",
          "type": "uint256"
        },
        {
          "indexed": false,
          "internalType": "uint256",
          "name": "commission",
          "type": "uint256"
        },
        {
          "indexed": false,
          "internalType": "uint256",
          "name": "commissionRate",
          "type": "uint256"
        }
      ],
      "name": "ReferralUsed",
      "type": "event"
    },
    {
      "anonymous": false,
      "inputs": [
        {
          "indexed": true,
          "internalType": "address",
          "name": "newSigningWallet",
          "type": "address"
        }
      ],
      "name": "SigningWalletUpdated",
      "type": "event"
    },
    {
      "inputs": [
        {
          "internalType": "address",
          "name": "buyer",
          "type": "address"
        },
        {
          "internalType": "address",
          "name": "to",
          "type": "address"
        },
        {
          "internalType": "address",
          "name": "reserved",
          "type": "address"
        },
        {
          "internalType": "uint256[]",
          "name": "info",
          "type": "uint256[]"
        },
        {
          "internalType": "bytes32",
          "name": "salt",
          "type": "bytes32"
        },
        {
          "internalType": "uint256[]",
          "name": "assetIds",
          "type": "uint256[]"
        },
        {
          "internalType": "bytes32[]",
          "name": "proof",
          "type": "bytes32[]"
        },
        {
          "internalType": "bytes",
          "name": "referral",
          "type": "bytes"
        },
        {
          "internalType": "bytes",
          "name": "signature",
          "type": "bytes"
        }
      ],
      "name": "buyLandWithSand",
      "outputs": [],
      "stateMutability": "nonpayable",
      "type": "function"
    },
    {
      "inputs": [
        {
          "internalType": "address",
          "name": "newAdmin",
          "type": "address"
        }
      ],
      "name": "changeAdmin",
      "outputs": [],
      "stateMutability": "nonpayable",
      "type": "function"
    },
    {
      "inputs": [
        {
          "internalType": "bytes",
          "name": "referral",
          "type": "bytes"
        }
      ],
      "name": "decodeReferral",
      "outputs": [
        {
          "internalType": "bytes",
          "name": "",
          "type": "bytes"
        },
        {
          "internalType": "address",
          "name": "",
          "type": "address"
        },
        {
          "internalType": "address",
          "name": "",
          "type": "address"
        },
        {
          "internalType": "uint256",
          "name": "",
          "type": "uint256"
        },
        {
          "internalType": "uint256",
          "name": "",
          "type": "uint256"
        }
      ],
      "stateMutability": "pure",
      "type": "function"
    },
    {
      "inputs": [
        {
          "internalType": "address",
          "name": "disableWallet",
          "type": "address"
        }
      ],
      "name": "disablePreviousSigningWallet",
      "outputs": [],
      "stateMutability": "nonpayable",
      "type": "function"
    },
    {
      "inputs": [],
      "name": "getAdmin",
      "outputs": [
        {
          "internalType": "address",
          "name": "",
          "type": "address"
        }
      ],
      "stateMutability": "view",
      "type": "function"
    },
    {
      "inputs": [],
      "name": "getExpiryTime",
      "outputs": [
        {
          "internalType": "uint256",
          "name": "",
          "type": "uint256"
        }
      ],
      "stateMutability": "view",
      "type": "function"
    },
    {
      "inputs": [],
      "name": "getMaxCommissionRate",
      "outputs": [
        {
          "internalType": "uint256",
          "name": "",
          "type": "uint256"
        }
      ],
      "stateMutability": "view",
      "type": "function"
    },
    {
      "inputs": [],
      "name": "getMerkleRoot",
      "outputs": [
        {
          "internalType": "bytes32",
          "name": "",
          "type": "bytes32"
        }
      ],
      "stateMutability": "view",
      "type": "function"
    },
    {
      "inputs": [],
      "name": "getSigningWallet",
      "outputs": [
        {
          "internalType": "address",
          "name": "",
          "type": "address"
        }
      ],
      "stateMutability": "view",
      "type": "function"
    },
    {
      "inputs": [
        {
          "internalType": "address",
          "name": "who",
          "type": "address"
        }
      ],
      "name": "isMetaTransactionProcessor",
      "outputs": [
        {
          "internalType": "bool",
          "name": "",
          "type": "bool"
        }
      ],
      "stateMutability": "view",
      "type": "function"
    },
    {
      "inputs": [
        {
          "internalType": "bytes",
          "name": "signature",
          "type": "bytes"
        },
        {
          "internalType": "address",
          "name": "referrer",
          "type": "address"
        },
        {
          "internalType": "address",
          "name": "referee",
          "type": "address"
        },
        {
          "internalType": "uint256",
          "name": "expiryTime",
          "type": "uint256"
        },
        {
          "internalType": "uint256",
          "name": "commissionRate",
          "type": "uint256"
        }
      ],
      "name": "isReferralValid",
      "outputs": [
        {
          "internalType": "bool",
          "name": "",
          "type": "bool"
        }
      ],
      "stateMutability": "view",
      "type": "function"
    },
    {
      "inputs": [
        {
          "internalType": "address",
          "name": "",
          "type": "address"
        },
        {
          "internalType": "address",
          "name": "",
          "type": "address"
        },
        {
          "internalType": "uint256[]",
          "name": "",
          "type": "uint256[]"
        },
        {
          "internalType": "uint256[]",
          "name": "",
          "type": "uint256[]"
        },
        {
          "internalType": "bytes",
          "name": "",
          "type": "bytes"
        }
      ],
      "name": "onERC1155BatchReceived",
      "outputs": [
        {
          "internalType": "bytes4",
          "name": "",
          "type": "bytes4"
        }
      ],
      "stateMutability": "pure",
      "type": "function"
    },
    {
      "inputs": [
        {
          "internalType": "address",
          "name": "",
          "type": "address"
        },
        {
          "internalType": "address",
          "name": "",
          "type": "address"
        },
        {
          "internalType": "uint256",
          "name": "",
          "type": "uint256"
        },
        {
          "internalType": "uint256",
          "name": "",
          "type": "uint256"
        },
        {
          "internalType": "bytes",
          "name": "",
          "type": "bytes"
        }
      ],
      "name": "onERC1155Received",
      "outputs": [
        {
          "internalType": "bytes4",
          "name": "",
          "type": "bytes4"
        }
      ],
      "stateMutability": "pure",
      "type": "function"
    },
    {
      "inputs": [
        {
          "internalType": "address",
          "name": "metaTransactionProcessor",
          "type": "address"
        },
        {
          "internalType": "bool",
          "name": "enabled",
          "type": "bool"
        }
      ],
      "name": "setMetaTransactionProcessor",
      "outputs": [],
      "stateMutability": "nonpayable",
      "type": "function"
    },
    {
      "inputs": [
        {
          "internalType": "address payable",
          "name": "newWallet",
          "type": "address"
        }
      ],
      "name": "setReceivingWallet",
      "outputs": [],
      "stateMutability": "nonpayable",
      "type": "function"
    },
    {
      "inputs": [
        {
          "internalType": "uint256",
          "name": "newMaxCommissionRate",
          "type": "uint256"
        }
      ],
      "name": "updateMaxCommissionRate",
      "outputs": [],
      "stateMutability": "nonpayable",
      "type": "function"
    },
    {
      "inputs": [
        {
          "internalType": "address",
          "name": "newSigningWallet",
          "type": "address"
        }
      ],
      "name": "updateSigningWallet",
      "outputs": [],
      "stateMutability": "nonpayable",
      "type": "function"
    },
    {
      "inputs": [
        {
          "internalType": "address",
          "name": "to",
          "type": "address"
        },
        {
          "internalType": "uint256[]",
          "name": "assetIds",
          "type": "uint256[]"
        },
        {
          "internalType": "uint256[]",
          "name": "values",
          "type": "uint256[]"
        }
      ],
      "name": "withdrawAssets",
      "outputs": [],
      "stateMutability": "nonpayable",
      "type": "function"
    }
  ],
  "transactionHash": "0xe79cdccb5bac9598e6e8771d44b47963a6cb068b1932efd57308a5d9c3b19565",
  "args": [
    "0x9d305a42A3975Ee4c1C57555BeD5919889DCE63F",
    "0xBbba073C31bF03b8ACf7c28EF0738DeCF3695683",
    "0xBbba073C31bF03b8ACf7c28EF0738DeCF3695683",
    "0x7A9fe22691c811ea339D9B73150e6911a5343DcA",
    "0x1b47567CBE36e63293A7A2018F79687f942aB24C",
    "0x65e67327a274414c56e23a185383cdda461939eb5a3c9234b63b690548655624",
    1671537600,
    "0x3044719d139F866a44c988823513eCB93060bF1b",
    2000,
    "0x0000000000000000000000000000000000000000",
    "0xd19cc137bb848d3a48ad8ad883886b67c26761dc",
    "0x42a4a3795446A4c070565da201c6303fC78a2569",
    "0x7804fb2AF15bB1323795A888B09913cEf629Ffda"
  ],
  "numDeployments": 1,
  "linkedData": [
    {
      "x": 288,
      "y": 273,
      "size": 1,
      "price": "1011000000000000000000",
      "reserved": "0x7a9fe22691c811ea339d9b73150e6911a5343dca",
      "salt": "0x43e7d2bb11df7f3325c1b6a290a67584c072549bdd067937ed49601de0378aa7",
      "assetIds": []
    },
    {
      "x": 288,
      "y": 274,
      "size": 1,
      "price": "1011000000000000000000",
      "reserved": "",
      "salt": "0x2e0407da87f11d415b0c714ce55d379212ea5d469079ddd5cf02de60de43c4f3",
      "assetIds": []
    },
    {
      "x": 288,
      "y": 275,
      "size": 1,
      "price": "1011000000000000000000",
      "reserved": "",
      "salt": "0x6995795d7008c96d4d3928bd13fe41df66fd2e69211e2ba0f7b029377d8712d9",
      "assetIds": []
    },
    {
      "x": 289,
      "y": 273,
      "size": 1,
      "price": "1011000000000000000000",
      "reserved": "0x7a9fe22691c811ea339d9b73150e6911a5343dca",
      "salt": "0x090f691b2662e19bb9353c9d6bec8df438af919d2b2fa51e80c6601f3404b999",
      "assetIds": []
    },
    {
      "x": 289,
      "y": 274,
      "size": 1,
      "price": "1011000000000000000000",
      "reserved": "",
      "salt": "0xee818dd07fd06bc09322a779360bb83c605c42355256c32c0a756bb035bafd26",
      "assetIds": []
    },
    {
      "x": 289,
      "y": 275,
      "size": 1,
      "price": "1011000000000000000000",
      "reserved": "",
      "salt": "0x5338a701e2acef6bdc982a65c28360faf906b6c9eafd118051b8e7dc510875ed",
      "assetIds": []
    },
    {
      "x": 290,
      "y": 273,
      "size": 1,
      "price": "1011000000000000000000",
      "reserved": "",
      "salt": "0x4034e9c7db5d82bb41524fe5f1824d1480667d1dc85f6851b18669913b753e02",
      "assetIds": []
    },
    {
      "x": 290,
      "y": 274,
      "size": 1,
      "price": "1011000000000000000000",
      "reserved": "",
      "salt": "0x44135a9f07ce468793edb520481c7819fc59a145e0c2a0aabf5f310f10646fed",
      "assetIds": []
    },
    {
      "x": 290,
      "y": 275,
      "size": 1,
      "price": "1011000000000000000000",
      "reserved": "",
      "salt": "0x9e7602cf8eafbc5229b5efa0bcc5a7414f2b8be4eb2daf0ebe02d173fe779258",
      "assetIds": []
    },
    {
      "x": 291,
      "y": 240,
      "size": 1,
      "price": "1011000000000000000000",
      "reserved": "",
      "salt": "0x45e7dfe2d4e7cb15408787aef6549a5dc86371942f76bd894cb3fdb403c70ee3",
      "assetIds": []
    },
    {
      "x": 291,
      "y": 241,
      "size": 1,
      "price": "1011000000000000000000",
      "reserved": "",
      "salt": "0xe79a903e56a9a4592730ac6fb013d1ba541668aa512e807a7b867cc02d4417e0",
      "assetIds": []
    },
    {
      "x": 291,
      "y": 242,
      "size": 1,
      "price": "1011000000000000000000",
      "reserved": "",
      "salt": "0x1c4f340a718a4dabb261384dad112868c644e7b2f0f0050986f420406041bff7",
      "assetIds": []
    },
    {
      "x": 291,
      "y": 255,
      "size": 1,
      "price": "1011000000000000000000",
      "reserved": "",
      "salt": "0x7466ba1ffccfbfffe810ab28868e580e9aa3dac688b1d590fdc3e4ae1f70d5db",
      "assetIds": []
    },
    {
      "x": 291,
      "y": 256,
      "size": 1,
      "price": "1011000000000000000000",
      "reserved": "",
      "salt": "0xfd3063cb05da8c965c8b9608ac41cfc6faece57a8fdc80f0b092ad49203e84d3",
      "assetIds": []
    },
    {
      "x": 291,
      "y": 257,
      "size": 1,
      "price": "1011000000000000000000",
      "reserved": "",
      "salt": "0xf79bb14e01387f24c0e671422afd273fc8bdcc8581680b8e63f65b3306c92198",
      "assetIds": []
    },
    {
      "x": 291,
      "y": 273,
      "size": 1,
      "price": "1011000000000000000000",
      "reserved": "",
      "salt": "0x8efbd5fc86852436d50630f189fc6d6aeff3c987a6b2297af4f226539d389d21",
      "assetIds": []
    },
    {
      "x": 291,
      "y": 274,
      "size": 1,
      "price": "1011000000000000000000",
      "reserved": "",
      "salt": "0xed07e0ac166ae751f825d489055e6c022657fab24bdf9dac9b0794f9bd306118",
      "assetIds": []
    },
    {
      "x": 291,
      "y": 275,
      "size": 1,
      "price": "1011000000000000000000",
      "reserved": "",
      "salt": "0xc1c4c4d8b6abe0494cd220fe67332f34be0438d25c5c3b1988bf370dff3bb531",
      "assetIds": []
    },
    {
      "x": 292,
      "y": 240,
      "size": 1,
      "price": "1011000000000000000000",
      "reserved": "",
      "salt": "0x49246a2caf0b56b417ee317db13b9621eb5ca7ef00f7db0a7f71a63eab9544aa",
      "assetIds": []
    },
    {
      "x": 292,
      "y": 241,
      "size": 1,
      "price": "1011000000000000000000",
      "reserved": "",
      "salt": "0x594f0d61f2e9341174a6f86a28fdae7a792f0da1fec7b7350893b37c4da3934f",
      "assetIds": []
    },
    {
      "x": 292,
      "y": 242,
      "size": 1,
      "price": "1011000000000000000000",
      "reserved": "",
      "salt": "0x2e8b27afe6b325f54cd03bacf7d2198c3a99eb5a8ffd0e18b4357d44e84a082f",
      "assetIds": []
    },
    {
      "x": 292,
      "y": 255,
      "size": 1,
      "price": "1011000000000000000000",
      "reserved": "",
      "salt": "0xb8e67ce5586d47a304a25f4941cabfe36b05d1d133feb80aecdc48c30cf144e6",
      "assetIds": []
    },
    {
      "x": 292,
      "y": 256,
      "size": 1,
      "price": "1011000000000000000000",
      "reserved": "",
      "salt": "0x283f409f1c2d133f4533496418ec175ddee2a93b1692dd2d877b4e27829462d5",
      "assetIds": []
    },
    {
      "x": 292,
      "y": 257,
      "size": 1,
      "price": "1011000000000000000000",
      "reserved": "",
      "salt": "0x67f0cb380da4f2175a8c3b57a8155d1a244b34aad09b55f074e6d80f27a838a5",
      "assetIds": []
    },
    {
      "x": 292,
      "y": 273,
      "size": 1,
      "price": "1011000000000000000000",
      "reserved": "",
      "salt": "0x094bba84f863ec61b79f8d0d05c1cf5d6f2da5ab264d23e69b4fb4b394b4c710",
      "assetIds": []
    },
    {
      "x": 292,
      "y": 274,
      "size": 1,
      "price": "1011000000000000000000",
      "reserved": "",
      "salt": "0x050e352d6a1cc4d004e16f7e38bf01164ce2e103dd4f653b9ddd42bd6039baad",
      "assetIds": []
    },
    {
      "x": 292,
      "y": 275,
      "size": 1,
      "price": "1011000000000000000000",
      "reserved": "",
      "salt": "0x86d1712acb612d2dc7de98fd34fbcb7ce9caea9c521b38cfce12043f855390d9",
      "assetIds": []
    },
    {
      "x": 293,
      "y": 240,
      "size": 1,
      "price": "1011000000000000000000",
      "reserved": "",
      "salt": "0x072d13d664305f637214338c7823085581625556b27e75c2763f334b007418a6",
      "assetIds": []
    },
    {
      "x": 293,
      "y": 241,
      "size": 1,
      "price": "1011000000000000000000",
      "reserved": "",
      "salt": "0xb61513d907e502a0ad1cce1a556219e0af14f7a9dd57d1d6efdfb5777e2d5760",
      "assetIds": []
    },
    {
      "x": 293,
      "y": 242,
      "size": 1,
      "price": "1011000000000000000000",
      "reserved": "",
      "salt": "0x0d6fcce56dabc47ba72346d83ff7d6f36fc4fa021a472d98408b9aba97b6ccdc",
      "assetIds": []
    },
    {
      "x": 293,
      "y": 255,
      "size": 1,
      "price": "1011000000000000000000",
      "reserved": "0x7a9fe22691c811ea339d9b73150e6911a5343dca",
      "salt": "0x70a1cac7a256765710d428de3994c1b97356c64e2faffbd89fcfdd125b742cb8",
      "assetIds": []
    },
    {
      "x": 293,
      "y": 256,
      "size": 1,
      "price": "1011000000000000000000",
      "reserved": "",
      "salt": "0x2b99b0ab644b440c51760dd6fc68afabcf68bd01a40aa34c8ed8278bf2ef9877",
      "assetIds": []
    },
    {
      "x": 293,
      "y": 257,
      "size": 1,
      "price": "1011000000000000000000",
      "reserved": "0x7a9fe22691c811ea339d9b73150e6911a5343dca",
      "salt": "0x449ef00eb2ad2e7deab77eea184b17a3e52fa2d612cdf4c7ec656fce860a67ca",
      "assetIds": []
    },
    {
      "x": 293,
      "y": 273,
      "size": 1,
      "price": "1011000000000000000000",
      "reserved": "",
      "salt": "0x1dc2239a6e98786ef0ae59308742e6c473e205a17463b5009343f36e2402db69",
      "assetIds": []
    },
    {
      "x": 293,
      "y": 274,
      "size": 1,
      "price": "1011000000000000000000",
      "reserved": "0x7a9fe22691c811ea339d9b73150e6911a5343dca",
      "salt": "0x2ecac696b3ea51283be93215f0878a78acdf3719571a8d476b5dd7d6a7792b46",
      "assetIds": []
    },
    {
      "x": 293,
      "y": 275,
      "size": 1,
      "price": "1011000000000000000000",
      "reserved": "",
      "salt": "0xbea792e6944d5b8fde2fb893380477be0ff1125a6a098a2211209929dc1dafa3",
      "assetIds": []
    },
    {
      "x": 294,
      "y": 246,
      "size": 1,
      "price": "1011000000000000000000",
      "reserved": "",
      "salt": "0xd6df182839dd52706838659e97311fd63df59c03086029855ac9745c3a196bc5",
      "assetIds": []
    },
    {
      "x": 294,
      "y": 247,
      "size": 1,
      "price": "1011000000000000000000",
      "reserved": "",
      "salt": "0xea73321db116ac2f8b5102d0506b8e319246cabdb6aac8b104ab148ec69a9646",
      "assetIds": []
    },
    {
      "x": 294,
      "y": 248,
      "size": 1,
      "price": "1011000000000000000000",
      "reserved": "",
      "salt": "0x7a5370dcb99ec5cfad067e111fafeb57ea39ff18e850d093d09dfe896e720927",
      "assetIds": []
    },
    {
      "x": 294,
      "y": 249,
      "size": 1,
      "price": "1011000000000000000000",
      "reserved": "",
      "salt": "0x7d20d2ce943c4f8c4d415f8ea5ecb38623961df3c33a5b3d16c478a0db66639d",
      "assetIds": []
    },
    {
      "x": 294,
      "y": 250,
      "size": 1,
      "price": "1011000000000000000000",
      "reserved": "",
      "salt": "0x20b01865aa450875a5d3c9f89e7a290cad5b7c254f64af18c2b1fa6096a5379f",
      "assetIds": []
    },
    {
      "x": 294,
      "y": 251,
      "size": 1,
      "price": "1011000000000000000000",
      "reserved": "",
      "salt": "0x2100eb22e02b4682a6903cfaadd0d953b3dff533f330d436c36405023e1d0fa7",
      "assetIds": []
    },
    {
      "x": 294,
      "y": 252,
      "size": 1,
      "price": "1011000000000000000000",
      "reserved": "",
      "salt": "0x232fa69f8a37d645cc0a5fcec2f1bd4fa84c223fd7ec094d977a3d1dbaed9d68",
      "assetIds": []
    },
    {
      "x": 294,
      "y": 253,
      "size": 1,
      "price": "1011000000000000000000",
      "reserved": "",
      "salt": "0xc68d9df9fd2d5d2f1a8431101a4ee5f43f5fc516439f5abc270fa516fc21ef64",
      "assetIds": []
    },
    {
      "x": 294,
      "y": 254,
      "size": 1,
      "price": "1011000000000000000000",
      "reserved": "",
      "salt": "0xf0c9fc390ae4d2106cbebf9660883ad935d70aa1f15caf1721741e2b888a2291",
      "assetIds": []
    },
    {
      "x": 294,
      "y": 258,
      "size": 1,
      "price": "1011000000000000000000",
      "reserved": "",
      "salt": "0xca3c80d24dc4dc51b36abbe54f1fa4a8adfbd059c3495805a7a96c7f741efe7a",
      "assetIds": []
    },
    {
      "x": 294,
      "y": 259,
      "size": 1,
      "price": "1011000000000000000000",
      "reserved": "",
      "salt": "0x53459d2815a9b013bd1ff1fef386de05e26ea38f07cc2331612e49ac9629c1ad",
      "assetIds": []
    },
    {
      "x": 294,
      "y": 260,
      "size": 1,
      "price": "1011000000000000000000",
      "reserved": "",
      "salt": "0x7ff2d3e7679d0625fa596f81ece432cf038d38771c2e1760472d470dd0993a8a",
      "assetIds": []
    },
    {
      "x": 294,
      "y": 276,
      "size": 1,
      "price": "1011000000000000000000",
      "reserved": "",
      "salt": "0xbf741bb10a3ff1c839cf0510883ae673951420827b0e740bf1a2ed752ffea211",
      "assetIds": []
    },
    {
      "x": 294,
      "y": 277,
      "size": 1,
      "price": "1011000000000000000000",
      "reserved": "",
      "salt": "0x71950daa517a5f1975537400305ff24d25ab9b1ec8a2b0a7baaa33acb319373b",
      "assetIds": []
    },
    {
      "x": 294,
      "y": 278,
      "size": 1,
      "price": "1011000000000000000000",
      "reserved": "",
      "salt": "0x89a61e5bd5de03fea8edc6353c187882bca37a11bbd830c6f543bfb27764f71a",
      "assetIds": []
    },
    {
      "x": 295,
      "y": 246,
      "size": 1,
      "price": "1011000000000000000000",
      "reserved": "0x7a9fe22691c811ea339d9b73150e6911a5343dca",
      "salt": "0xc98ec1fefb066ba4e415276e4f807db8d99554b62e3b06a7e37d534a5897d673",
      "assetIds": []
    },
    {
      "x": 295,
      "y": 247,
      "size": 1,
      "price": "1011000000000000000000",
      "reserved": "",
      "salt": "0xfd8557a5e48cf7b56a0596430f4b4e9f81c7bcaac85aa882dd440f9d64fe327c",
      "assetIds": []
    },
    {
      "x": 295,
      "y": 248,
      "size": 1,
      "price": "1011000000000000000000",
      "reserved": "",
      "salt": "0x977ade2c779ee709eb01be6834d428849d51ac4ddc1ed5e9f3d63bd45ecfae04",
      "assetIds": []
    },
    {
      "x": 295,
      "y": 249,
      "size": 1,
      "price": "1011000000000000000000",
      "reserved": "",
      "salt": "0xa13cba45f25b20798b4bed277f3d0da757a184f8794245efbafce9162024133e",
      "assetIds": []
    },
    {
      "x": 295,
      "y": 250,
      "size": 1,
      "price": "1011000000000000000000",
      "reserved": "",
      "salt": "0xa11ef8dd27aea1f9c3a41833dc71b1fa08cdde34922b8ebb7e89c99047fe19b3",
      "assetIds": []
    },
    {
      "x": 295,
      "y": 251,
      "size": 1,
      "price": "1011000000000000000000",
      "reserved": "",
      "salt": "0xacd627c089d3ba96365b236075a6b8dfc456fef65dddedf743fa27f1115c7847",
      "assetIds": []
    },
    {
      "x": 295,
      "y": 252,
      "size": 1,
      "price": "1011000000000000000000",
      "reserved": "",
      "salt": "0x4686b602966fcc1ef66b835a7458d47a283be40ccd98ecd9f6ab171b53bb4552",
      "assetIds": []
    },
    {
      "x": 295,
      "y": 253,
      "size": 1,
      "price": "1011000000000000000000",
      "reserved": "",
      "salt": "0xa27117bf26e6f1624d9517cd29334a97ef86ef88258ce75ded0800a8d4f19648",
      "assetIds": []
    },
    {
      "x": 295,
      "y": 254,
      "size": 1,
      "price": "1011000000000000000000",
      "reserved": "",
      "salt": "0xed98594129f92cce872ca8bf2311d39da8b36ec60166199795b56bc0d7c66789",
      "assetIds": []
    },
    {
      "x": 295,
      "y": 258,
      "size": 1,
      "price": "1011000000000000000000",
      "reserved": "0x7a9fe22691c811ea339d9b73150e6911a5343dca",
      "salt": "0x771526d455de9baef296778166d41552b4cbf64ec8a1a53e2fea94c29a4bd2db",
      "assetIds": []
    },
    {
      "x": 295,
      "y": 259,
      "size": 1,
      "price": "1011000000000000000000",
      "reserved": "",
      "salt": "0xa03b6ebbca4575cd56fc0c586eb82fab1b0c21b98553d4ccf8de9c2658b459f2",
      "assetIds": []
    },
    {
      "x": 295,
      "y": 260,
      "size": 1,
      "price": "1011000000000000000000",
      "reserved": "",
      "salt": "0x7f86df3de8d3f1800b80e39b2aa17e2cddae6117ed1d5073892fcbda09048c29",
      "assetIds": []
    },
    {
      "x": 295,
      "y": 276,
      "size": 1,
      "price": "1011000000000000000000",
      "reserved": "0x7a9fe22691c811ea339d9b73150e6911a5343dca",
      "salt": "0x46b9efaf5208aa78f1d35605a22725e020ed71172704160e367e986c05523066",
      "assetIds": []
    },
    {
      "x": 295,
      "y": 277,
      "size": 1,
      "price": "1011000000000000000000",
      "reserved": "",
      "salt": "0x172c7f0733aafe55a83b4756cb78b7727a7d1250c6dd07257cb2cf19ce3e4780",
      "assetIds": []
    },
    {
      "x": 295,
      "y": 278,
      "size": 1,
      "price": "1011000000000000000000",
      "reserved": "",
      "salt": "0x27d819b5e0b0b00546e9e5a419d10397b32f5c973749139ca90aaa72d34bd538",
      "assetIds": []
    },
    {
      "x": 296,
      "y": 246,
      "size": 1,
      "price": "1011000000000000000000",
      "reserved": "",
      "salt": "0xd851acd34eb5a2958c0dd0b761e07a5b22c296b0195054e98f60b87e4316c8c4",
      "assetIds": []
    },
    {
      "x": 296,
      "y": 247,
      "size": 1,
      "price": "1011000000000000000000",
      "reserved": "",
      "salt": "0x7ef3a7e7822844da7585beaf41d456ddf5b41b7cfc62ce2562be9edb78ddbff7",
      "assetIds": []
    },
    {
      "x": 296,
      "y": 248,
      "size": 1,
      "price": "1011000000000000000000",
      "reserved": "",
      "salt": "0x91ac7cbb390353648b8cda17c8cfc51e1487b0781e2e23c1c943d9056f8b016c",
      "assetIds": []
    },
    {
      "x": 296,
      "y": 249,
      "size": 1,
      "price": "1011000000000000000000",
      "reserved": "",
      "salt": "0x12ac27eef33921c99e13aefc6ac01d8ccab75bb7deed1e30d3fde3a056af9521",
      "assetIds": []
    },
    {
      "x": 296,
      "y": 250,
      "size": 1,
      "price": "1011000000000000000000",
      "reserved": "",
      "salt": "0x856a5194072f6560d4ab9d33184b71b590fab312ba306f88738029b15198e642",
      "assetIds": []
    },
    {
      "x": 296,
      "y": 251,
      "size": 1,
      "price": "1011000000000000000000",
      "reserved": "",
      "salt": "0x82b597989e9de11d82abd138a55bb58e04c9bfe6c14790e433ae70bb496c4155",
      "assetIds": []
    },
    {
      "x": 296,
      "y": 252,
      "size": 1,
      "price": "1011000000000000000000",
      "reserved": "",
      "salt": "0xc0b81b0a029998382a3658bd55ea1198a696d9bc9afc993185f85115bb2f15e9",
      "assetIds": []
    },
    {
      "x": 296,
      "y": 253,
      "size": 1,
      "price": "1011000000000000000000",
      "reserved": "",
      "salt": "0x3130d6001b7a67fd7a3367dedce54b89c4da9563cade8bcb30f045362633bf6c",
      "assetIds": []
    },
    {
      "x": 296,
      "y": 254,
      "size": 1,
      "price": "1011000000000000000000",
      "reserved": "",
      "salt": "0x762bde1b71ed544d2a7968644e63f0af394a719d14cfb87733b944faa493b231",
      "assetIds": []
    },
    {
      "x": 296,
      "y": 258,
      "size": 1,
      "price": "1011000000000000000000",
      "reserved": "",
      "salt": "0x1a0908a02f5af6e046843e0a172c6b119606705be8339b21d014d41faf213495",
      "assetIds": []
    },
    {
      "x": 296,
      "y": 259,
      "size": 1,
      "price": "1011000000000000000000",
      "reserved": "",
      "salt": "0x06222fef1ee20f7c2c8f2ea3a8ac69301d881e27720f7c750a29cd23e78b7ec7",
      "assetIds": []
    },
    {
      "x": 296,
      "y": 260,
      "size": 1,
      "price": "1011000000000000000000",
      "reserved": "",
      "salt": "0x17a2714115271814933a3678c3c228ed42f0fa7787894c4c60deefc34bee40bc",
      "assetIds": []
    },
    {
      "x": 296,
      "y": 276,
      "size": 1,
      "price": "1011000000000000000000",
      "reserved": "0x7a9fe22691c811ea339d9b73150e6911a5343dca",
      "salt": "0x3d1ce5362340426bb6cb7526ee731309022b5684874d08644a6b9b588167e1bf",
      "assetIds": []
    },
    {
      "x": 296,
      "y": 277,
      "size": 1,
      "price": "1011000000000000000000",
      "reserved": "",
      "salt": "0xe70bf7b24d9a6bbc64e16c5f43d14e66f659fd0bdfd2c92710384705c738c639",
      "assetIds": []
    },
    {
      "x": 296,
      "y": 278,
      "size": 1,
      "price": "1011000000000000000000",
      "reserved": "0x7a9fe22691c811ea339d9b73150e6911a5343dca",
      "salt": "0x316c94b00965eee5b495ccd34322bd33601d9f42be1c48e10490e9ae4a7aea4c",
      "assetIds": []
    },
    {
      "x": 297,
      "y": 246,
      "size": 1,
      "price": "1011000000000000000000",
      "reserved": "0x7a9fe22691c811ea339d9b73150e6911a5343dca",
      "salt": "0xddd24aedf053a06bd2198a674d812b017da84c6bd4463875a75bf1b1c4053014",
      "assetIds": []
    },
    {
      "x": 297,
      "y": 247,
      "size": 1,
      "price": "1011000000000000000000",
      "reserved": "",
      "salt": "0xa801f00f6a2f68038337283cfb4908d6dcdcec335fd63305f49b88481c2d47da",
      "assetIds": []
    },
    {
      "x": 297,
      "y": 248,
      "size": 1,
      "price": "1011000000000000000000",
      "reserved": "",
      "salt": "0xe40e47252a91df0f3fec24586a4fb1eb63c38d0f7ac7103b710c3b3cd0509baf",
      "assetIds": []
    },
    {
      "x": 297,
      "y": 249,
      "size": 1,
      "price": "1011000000000000000000",
      "reserved": "",
      "salt": "0xb24f0dc84607e00cc25d16c7871ba3040cf7920a28194aeb844ecdaecc69c956",
      "assetIds": []
    },
    {
      "x": 297,
      "y": 250,
      "size": 1,
      "price": "1011000000000000000000",
      "reserved": "",
      "salt": "0xfca505a502f191ff2dcd7308665ae76b2c9102c7112293e82384f36b1a9e1f9e",
      "assetIds": []
    },
    {
      "x": 297,
      "y": 251,
      "size": 1,
      "price": "1011000000000000000000",
      "reserved": "",
      "salt": "0x1227a99caec279878a0f4754f81cc2553d74d7d127b8a6aabd0816b38dea7024",
      "assetIds": []
    },
    {
      "x": 297,
      "y": 252,
      "size": 1,
      "price": "1011000000000000000000",
      "reserved": "",
      "salt": "0xee1805cc96e55db085326aa35f228952663284ce2f4f489bd21dd02d24c47e8c",
      "assetIds": []
    },
    {
      "x": 297,
      "y": 253,
      "size": 1,
      "price": "1011000000000000000000",
      "reserved": "",
      "salt": "0x4f050b052bf1fa624bfe28845894108ba5b3603cb7e3f7e21cb115e21cbdda16",
      "assetIds": []
    },
    {
      "x": 297,
      "y": 254,
      "size": 1,
      "price": "1011000000000000000000",
      "reserved": "",
      "salt": "0xfa5be956dad7a6a6c868e3917a76aac7575b885dab3128b8672e5f21783f33a0",
      "assetIds": []
    },
    {
      "x": 297,
      "y": 255,
      "size": 1,
      "price": "1011000000000000000000",
      "reserved": "",
      "salt": "0x64cf85ff3fb40aff872c7d5544b05241809ccc2b09a747fa5acfdd75ad37f833",
      "assetIds": []
    },
    {
      "x": 297,
      "y": 256,
      "size": 1,
      "price": "1011000000000000000000",
      "reserved": "0x7a9fe22691c811ea339d9b73150e6911a5343dca",
      "salt": "0x6dc27a73ba839e8a2017d12f4a57095333d0b5215655f716eb3aa1f360efc2ec",
      "assetIds": []
    },
    {
      "x": 297,
      "y": 257,
      "size": 1,
      "price": "1011000000000000000000",
      "reserved": "",
      "salt": "0x07cfc9a01c5131c57bf0c083435775842bf4573be89bd34184062f17688466af",
      "assetIds": []
    },
    {
      "x": 297,
      "y": 258,
      "size": 1,
      "price": "1011000000000000000000",
      "reserved": "",
      "salt": "0x53d7f6aa92f97c237ef344fb4c6fffb22581a292f412b4f657a725a5acfab26c",
      "assetIds": []
    },
    {
      "x": 297,
      "y": 259,
      "size": 1,
      "price": "1011000000000000000000",
      "reserved": "",
      "salt": "0x26bde9ad4666f1489e6b37938ea515d0562d625ee3056118ea2d072f053c4c21",
      "assetIds": []
    },
    {
      "x": 297,
      "y": 260,
      "size": 1,
      "price": "1011000000000000000000",
      "reserved": "",
      "salt": "0x208ac4c94a50d41061710f223e3f120d242b4ca959f1ce65aff5f36d3d296edf",
      "assetIds": []
    },
    {
      "x": 297,
      "y": 261,
      "size": 1,
      "price": "1011000000000000000000",
      "reserved": "",
      "salt": "0x433c773e684e1b7f02e66de18f85650c18b771999a159066f9c7fa6806d3620f",
      "assetIds": []
    },
    {
      "x": 297,
      "y": 262,
      "size": 1,
      "price": "1011000000000000000000",
      "reserved": "",
      "salt": "0xe6b0481db0a0d667f624b97244933e806c78ab156a71a9f7e7777c1a3b045231",
      "assetIds": []
    },
    {
      "x": 297,
      "y": 263,
      "size": 1,
      "price": "1011000000000000000000",
      "reserved": "",
      "salt": "0x751fe3d666b95845a758d34604df8af2e959d05b30b9f2135287636781ad742a",
      "assetIds": []
    },
    {
      "x": 297,
      "y": 279,
      "size": 1,
      "price": "1011000000000000000000",
      "reserved": "0x7a9fe22691c811ea339d9b73150e6911a5343dca",
      "salt": "0x50aa69a5779fea0a742cad480d915a998cd48153c9f64fbf5765438ca154fa42",
      "assetIds": []
    },
    {
      "x": 298,
      "y": 246,
      "size": 1,
      "price": "1011000000000000000000",
      "reserved": "",
      "salt": "0xae0766797eb4671365e367ba0ed264a5304faabc13da5d8b01c73c8e204461ca",
      "assetIds": []
    },
    {
      "x": 298,
      "y": 247,
      "size": 1,
      "price": "1011000000000000000000",
      "reserved": "",
      "salt": "0xf56a57ac9fa774ae4ba204ee57d9009ea2cce55284445edb8ffbae444f63f443",
      "assetIds": []
    },
    {
      "x": 298,
      "y": 248,
      "size": 1,
      "price": "1011000000000000000000",
      "reserved": "",
      "salt": "0x85ce7b60d8959a3b91562504f9998783aca0c29bfbdd962da59a183053029d46",
      "assetIds": []
    },
    {
      "x": 298,
      "y": 249,
      "size": 1,
      "price": "1011000000000000000000",
      "reserved": "",
      "salt": "0x4dfeea730e298598432cee7c0d5ca94fbc19371349e68e7e9ff264e2054cb392",
      "assetIds": []
    },
    {
      "x": 298,
      "y": 250,
      "size": 1,
      "price": "1011000000000000000000",
      "reserved": "",
      "salt": "0xe2e218a508257e35b99f9edea0e9790bee82b1988c9794549a652e46ad59021b",
      "assetIds": []
    },
    {
      "x": 298,
      "y": 251,
      "size": 1,
      "price": "1011000000000000000000",
      "reserved": "",
      "salt": "0xfbe8ccf8773b90c4c159d0bb67bd24ecb66731a1d9f2f6c9092a29688525b65b",
      "assetIds": []
    },
    {
      "x": 298,
      "y": 252,
      "size": 1,
      "price": "1011000000000000000000",
      "reserved": "",
      "salt": "0xb45e676751ae220d6a8e295df270e616f9f41b3820fcb7bb0155484312028893",
      "assetIds": []
    },
    {
      "x": 298,
      "y": 253,
      "size": 1,
      "price": "1011000000000000000000",
      "reserved": "",
      "salt": "0x403df3230a61a8f025aa9660e31727cb1d0c3c0102073001075ce36f34de8c15",
      "assetIds": []
    },
    {
      "x": 298,
      "y": 254,
      "size": 1,
      "price": "1011000000000000000000",
      "reserved": "",
      "salt": "0x8a13e2cc46fd0970cfdd5b01f4f666774fc49918fc66322c3a9c515427ec005e",
      "assetIds": []
    },
    {
      "x": 298,
      "y": 255,
      "size": 1,
      "price": "1011000000000000000000",
      "reserved": "",
      "salt": "0xe3d810b85fa4be41ff9c3a89af24e711712a04c1a1a322be12e4de36caa57ad9",
      "assetIds": []
    },
    {
      "x": 298,
      "y": 256,
      "size": 1,
      "price": "1011000000000000000000",
      "reserved": "",
      "salt": "0xff72cb7cf3f6e9839e6bd1ad0ca3ca9e62dc76a615108e554c97b3b3c71d72b5",
      "assetIds": []
    },
    {
      "x": 298,
      "y": 257,
      "size": 1,
      "price": "1011000000000000000000",
      "reserved": "",
      "salt": "0xe5029e6650578c665e14a310ad61c3eb24cd36d03041c4b59ba82bde9ab81fe4",
      "assetIds": []
    },
    {
      "x": 298,
      "y": 258,
      "size": 1,
      "price": "1011000000000000000000",
      "reserved": "",
      "salt": "0x746a34f03cb2a6e6dcba70d476bfc48e31ec71da158061af817d4c195952ed41",
      "assetIds": []
    },
    {
      "x": 298,
      "y": 259,
      "size": 1,
      "price": "1011000000000000000000",
      "reserved": "",
      "salt": "0x3c1dad2c46f870eda521b416cfd3c9c5e994a4d87c7684016b2690a0c7c4c93d",
      "assetIds": []
    },
    {
      "x": 298,
      "y": 260,
      "size": 1,
      "price": "1011000000000000000000",
      "reserved": "",
      "salt": "0x144fcb8a83a672411a5464914e486c05ac65a001a8c818b4de3249cd8fea9f2d",
      "assetIds": []
    },
    {
      "x": 298,
      "y": 261,
      "size": 1,
      "price": "1011000000000000000000",
      "reserved": "",
      "salt": "0x4b8cc013a5ae95769fb30af700acdd149fdf82074d869fc5b008ff72cfa8383a",
      "assetIds": []
    },
    {
      "x": 298,
      "y": 262,
      "size": 1,
      "price": "1011000000000000000000",
      "reserved": "",
      "salt": "0xec425af052a1d82bfa79f5d120fc15d01a47d3fe902d10e386bdbe19fadb9ab4",
      "assetIds": []
    },
    {
      "x": 298,
      "y": 263,
      "size": 1,
      "price": "1011000000000000000000",
      "reserved": "",
      "salt": "0xbb2c31c9c86e4a7a6e93d8eab8c7ca64f53117aee239e9af709157325fcaf618",
      "assetIds": []
    },
    {
      "x": 298,
      "y": 279,
      "size": 1,
      "price": "1011000000000000000000",
      "reserved": "",
      "salt": "0x5207e3f53b0d099eb1f61d5946b5a73ea6e95e594f0fa947881448b962efe8cc",
      "assetIds": []
    },
    {
      "x": 299,
      "y": 246,
      "size": 1,
      "price": "1011000000000000000000",
      "reserved": "",
      "salt": "0xb3365f95d8e7b808dbb9d0bef59c5ad8ca726774ffa9d5d3b6fcb5d71430ddc8",
      "assetIds": []
    },
    {
      "x": 299,
      "y": 247,
      "size": 1,
      "price": "1011000000000000000000",
      "reserved": "",
      "salt": "0x97fac66a777862d6e92a8413bf84745128a69135e531a89e21fbad0cdf262ba1",
      "assetIds": []
    },
    {
      "x": 299,
      "y": 248,
      "size": 1,
      "price": "1011000000000000000000",
      "reserved": "",
      "salt": "0xc0404c282cb56381c411e1e4e5251875cb2d1e9aa7e2f6b24fe3aa5073651df1",
      "assetIds": []
    },
    {
      "x": 299,
      "y": 249,
      "size": 1,
      "price": "1011000000000000000000",
      "reserved": "",
      "salt": "0x95a54acaada36c4d716a67e87013227897dcc778fbe51282cf2f562ef8c79999",
      "assetIds": []
    },
    {
      "x": 299,
      "y": 250,
      "size": 1,
      "price": "1011000000000000000000",
      "reserved": "",
      "salt": "0x20cfb0a2018b00f487068f3d84a019c7c5af86de95b050b6a1f52c2d8a254b95",
      "assetIds": []
    },
    {
      "x": 299,
      "y": 251,
      "size": 1,
      "price": "1011000000000000000000",
      "reserved": "0x7a9fe22691c811ea339d9b73150e6911a5343dca",
      "salt": "0x20e3ea258cdb6d2891fec05990d17d47ff94113e15a1e473bb1f49e05d2e2e95",
      "assetIds": []
    },
    {
      "x": 299,
      "y": 252,
      "size": 1,
      "price": "1011000000000000000000",
      "reserved": "",
      "salt": "0xdcb9dcdce261033f5c123b32b1a75ed19d63197647dd68fa5bd0ce8b2376c50d",
      "assetIds": []
    },
    {
      "x": 299,
      "y": 253,
      "size": 1,
      "price": "1011000000000000000000",
      "reserved": "",
      "salt": "0x4aa8b4aee6369c900ff47b3faee9753ed00d845b0e9cd37d4bbc709423ef3bdc",
      "assetIds": []
    },
    {
      "x": 299,
      "y": 254,
      "size": 1,
      "price": "1011000000000000000000",
      "reserved": "",
      "salt": "0x06a64857611d7c9403a6ffe0dcb76477e05aaf904508aaf87fdd538949bcaa65",
      "assetIds": []
    },
    {
      "x": 299,
      "y": 255,
      "size": 1,
      "price": "1011000000000000000000",
      "reserved": "",
      "salt": "0x50be299afd9b2d0cd60b13dc6e9383fe6f64fab8b009ee8971d4dc7d799ac27f",
      "assetIds": []
    },
    {
      "x": 299,
      "y": 256,
      "size": 1,
      "price": "1011000000000000000000",
      "reserved": "",
      "salt": "0x3055a39f842362d7bba38a7fcbe5f0e828118d230e0de4c0880dc54ddd1ce12a",
      "assetIds": []
    },
    {
      "x": 299,
      "y": 257,
      "size": 1,
      "price": "1011000000000000000000",
      "reserved": "",
      "salt": "0x2feae6d9496fd4830af9cc0aa71dc3252818125e549d183da3177dd7fd5d6dcc",
      "assetIds": []
    },
    {
      "x": 299,
      "y": 258,
      "size": 1,
      "price": "1011000000000000000000",
      "reserved": "",
      "salt": "0xf4e7280ccb5b60399489cd11bffbae9477dabf67fc65742707060ecfe4b4ce8a",
      "assetIds": []
    },
    {
      "x": 299,
      "y": 259,
      "size": 1,
      "price": "1011000000000000000000",
      "reserved": "0x7a9fe22691c811ea339d9b73150e6911a5343dca",
      "salt": "0x7d9cbc41ab46793c2da818e0d9237188b86faceaffe8ab48c13c6f34c55082d0",
      "assetIds": []
    },
    {
      "x": 299,
      "y": 260,
      "size": 1,
      "price": "1011000000000000000000",
      "reserved": "",
      "salt": "0x9d61dd9d11270cca72dbb59dd2bf2567266d2298e3532ff0a4c00e8d32f687db",
      "assetIds": []
    },
    {
      "x": 299,
      "y": 261,
      "size": 1,
      "price": "1011000000000000000000",
      "reserved": "",
      "salt": "0x1bf8fdac70cc178edbe573cd146d71e37c2aa2c755ae434e9bb5ac1c1b4e5cba",
      "assetIds": []
    },
    {
      "x": 299,
      "y": 262,
      "size": 1,
      "price": "1011000000000000000000",
      "reserved": "",
      "salt": "0xe70b04a6ff271cd2d93d800c4f0f053188103e024f6318afdfe289a29e71c7a6",
      "assetIds": []
    },
    {
      "x": 299,
      "y": 263,
      "size": 1,
      "price": "1011000000000000000000",
      "reserved": "",
      "salt": "0x2ce8c5d8d131d0796953ec1946ba1e70a1dbe7e684702444dde07769af99ed65",
      "assetIds": []
    },
    {
      "x": 300,
      "y": 240,
      "size": 1,
      "price": "1011000000000000000000",
      "reserved": "",
      "salt": "0x8df068770088e19fc0c2f90b071da524e4079a0519e9285771d7b491ccc24034",
      "assetIds": []
    },
    {
      "x": 300,
      "y": 241,
      "size": 1,
      "price": "1011000000000000000000",
      "reserved": "",
      "salt": "0xd4d69429b851288d2c6a9a926402f40f01ea5ac3fe271f1709c126dc02d6d333",
      "assetIds": []
    },
    {
      "x": 300,
      "y": 242,
      "size": 1,
      "price": "1011000000000000000000",
      "reserved": "0x7a9fe22691c811ea339d9b73150e6911a5343dca",
      "salt": "0x58a930d2c2df4f1fe856117c93d0914e2f5eb714d390dbb9f67e117abff1d8d2",
      "assetIds": []
    },
    {
      "x": 300,
      "y": 246,
      "size": 1,
      "price": "1011000000000000000000",
      "reserved": "",
      "salt": "0x546888b7b2983a085e9666bd0841fd60e6f345712b78054bc7c80dcb874f1ae1",
      "assetIds": []
    },
    {
      "x": 300,
      "y": 247,
      "size": 1,
      "price": "1011000000000000000000",
      "reserved": "",
      "salt": "0x4eedfedfc93faa41fca450b3d925060cb266771ee28b92fa13bb65ba25b77385",
      "assetIds": []
    },
    {
      "x": 300,
      "y": 248,
      "size": 1,
      "price": "1011000000000000000000",
      "reserved": "",
      "salt": "0xd61044e06af2dfac9b34ae606b627c753292e124290202c15fa927d628c1ead2",
      "assetIds": []
    },
    {
      "x": 300,
      "y": 249,
      "size": 1,
      "price": "1011000000000000000000",
      "reserved": "",
      "salt": "0x3cd09a1a5d1be394902c3632170dc22f0f148b08de19977e537215bbf15d4a33",
      "assetIds": []
    },
    {
      "x": 300,
      "y": 250,
      "size": 1,
      "price": "1011000000000000000000",
      "reserved": "",
      "salt": "0x00a5718e16c6bfd1111b8ec1124f14f9e9111d8baccb9b4a19face288ca28019",
      "assetIds": []
    },
    {
      "x": 300,
      "y": 251,
      "size": 1,
      "price": "1011000000000000000000",
      "reserved": "",
      "salt": "0xe01be36cd8624eb10fcd1d416fde96fedf17805cfb7f76ee9160655584c2d7b7",
      "assetIds": []
    },
    {
      "x": 300,
      "y": 264,
      "size": 1,
      "price": "1011000000000000000000",
      "reserved": "",
      "salt": "0xbd6583153a14992da26286d8949532345c24d51b6e78a38e604b767b658a8bdb",
      "assetIds": []
    },
    {
      "x": 300,
      "y": 265,
      "size": 1,
      "price": "1011000000000000000000",
      "reserved": "",
      "salt": "0xfdf849fbac385e39b06a72b23ba6c7396f8eb95baccbbeb9303c32f385dbe11f",
      "assetIds": []
    },
    {
      "x": 300,
      "y": 266,
      "size": 1,
      "price": "1011000000000000000000",
      "reserved": "",
      "salt": "0x4e3da8ca6fd1cbe9dfec87c2a9e3e282d04fb143683b90bbd0eefc29ac2a4667",
      "assetIds": []
    },
    {
      "x": 300,
      "y": 267,
      "size": 1,
      "price": "1011000000000000000000",
      "reserved": "0x7a9fe22691c811ea339d9b73150e6911a5343dca",
      "salt": "0xa46148a5f0788dbd7cbae192b8670b7a1ca836d128c8e6cf2458f3c490060ec9",
      "assetIds": []
    },
    {
      "x": 300,
      "y": 268,
      "size": 1,
      "price": "1011000000000000000000",
      "reserved": "",
      "salt": "0x8336796a4e39854f78341806bc683900b21e7b4a3595df47165a4e0760d351e6",
      "assetIds": []
    },
    {
      "x": 300,
      "y": 269,
      "size": 1,
      "price": "1011000000000000000000",
      "reserved": "",
      "salt": "0x38c901e032479b356ce3bd6fb6fc25a9822ad5f83088167963c16cbaa1b9f659",
      "assetIds": []
    },
    {
      "x": 300,
      "y": 273,
      "size": 1,
      "price": "1011000000000000000000",
      "reserved": "0x7a9fe22691c811ea339d9b73150e6911a5343dca",
      "salt": "0x3d212d4dafdf4ceaacc35bd9e46fef60d1b0c2392b9e675e86d427782652c669",
      "assetIds": []
    },
    {
      "x": 300,
      "y": 274,
      "size": 1,
      "price": "1011000000000000000000",
      "reserved": "",
      "salt": "0x68380c53b458de8af55bf7553797e1ba82266c9a068684ba2dd5fb9791d327c8",
      "assetIds": []
    },
    {
      "x": 300,
      "y": 275,
      "size": 1,
      "price": "1011000000000000000000",
      "reserved": "",
      "salt": "0x0f9ecf84f8498ecbfa891a09e7e243a617123e37a945c191bd09571edee6c3c0",
      "assetIds": []
    },
    {
      "x": 300,
      "y": 276,
      "size": 1,
      "price": "1011000000000000000000",
      "reserved": "0x7a9fe22691c811ea339d9b73150e6911a5343dca",
      "salt": "0x61b9c19614f2d6dc7b463133c9d9d545c0f56ee82740d4243ae3b1e4153e5d8d",
      "assetIds": []
    },
    {
      "x": 300,
      "y": 277,
      "size": 1,
      "price": "1011000000000000000000",
      "reserved": "",
      "salt": "0xc0286054b2fd6dc77e71621e234a2871dd21d6b0cd2289edd7ec0b294319a4cf",
      "assetIds": []
    },
    {
      "x": 300,
      "y": 278,
      "size": 1,
      "price": "1011000000000000000000",
      "reserved": "",
      "salt": "0xeab72b692ba7111e66eb9c80f69d04e4b36250bf540ac03cf1f0d1ff1914dff4",
      "assetIds": []
    },
    {
      "x": 301,
      "y": 240,
      "size": 1,
      "price": "1011000000000000000000",
      "reserved": "",
      "salt": "0x4fd5fcc25e9919c5c7f2ab7a520c1edb19e198a952b4de94d69984ef1ffee06a",
      "assetIds": []
    },
    {
      "x": 301,
      "y": 241,
      "size": 1,
      "price": "1011000000000000000000",
      "reserved": "",
      "salt": "0x249d5f7cf01b18bfe148c3b17a14562c8c30117154758d304cf80ebcd19ed012",
      "assetIds": []
    },
    {
      "x": 301,
      "y": 242,
      "size": 1,
      "price": "1011000000000000000000",
      "reserved": "",
      "salt": "0x161117a0d5c9c77d46a94d1a1465a821c640babdb42033152edc47d7be15c946",
      "assetIds": []
    },
    {
      "x": 301,
      "y": 246,
      "size": 1,
      "price": "1011000000000000000000",
      "reserved": "",
      "salt": "0xa67013e21013b99de33d0b70d76849cf01284c4c6b44bd917355ac7c753cf802",
      "assetIds": []
    },
    {
      "x": 301,
      "y": 247,
      "size": 1,
      "price": "1011000000000000000000",
      "reserved": "",
      "salt": "0xbd73021127b2980f79d52778c46166761a52234589dba6892cb7a7bc081d2093",
      "assetIds": []
    },
    {
      "x": 301,
      "y": 248,
      "size": 1,
      "price": "1011000000000000000000",
      "reserved": "",
      "salt": "0x83e14716794b49480305e6a9d638b335287c12c1190b800cc1c52739547cc3d3",
      "assetIds": []
    },
    {
      "x": 301,
      "y": 249,
      "size": 1,
      "price": "1011000000000000000000",
      "reserved": "",
      "salt": "0xb98b6c51b96dbc014fe87039515b63a767e34ac7eac2a03f9acaa634b0ffee80",
      "assetIds": []
    },
    {
      "x": 301,
      "y": 250,
      "size": 1,
      "price": "1011000000000000000000",
      "reserved": "",
      "salt": "0x6c4a4d451a5a40db872e786d46d72d34d9baa4dc6b666309f07d2c6a6d38d361",
      "assetIds": []
    },
    {
      "x": 301,
      "y": 251,
      "size": 1,
      "price": "1011000000000000000000",
      "reserved": "",
      "salt": "0xd9bd78d39a89950226f5f0d738a3e1741be445348437c108e26874e3b5b36c2b",
      "assetIds": []
    },
    {
      "x": 301,
      "y": 264,
      "size": 1,
      "price": "1011000000000000000000",
      "reserved": "",
      "salt": "0x42e07dd9f91332da76b5725f0087ecd1092316518b7fa0b2be6de4ead1712ac8",
      "assetIds": []
    },
    {
      "x": 301,
      "y": 265,
      "size": 1,
      "price": "1011000000000000000000",
      "reserved": "",
      "salt": "0x5e8311085bf70991c6cb68bfd1357ad30387f8fab761bafc7442ad724abd359e",
      "assetIds": []
    },
    {
      "x": 301,
      "y": 266,
      "size": 1,
      "price": "1011000000000000000000",
      "reserved": "",
      "salt": "0xc6f4da00b7316adaff66acc6905867f84c71172366e2f98e00ebb25cb043e774",
      "assetIds": []
    },
    {
      "x": 301,
      "y": 267,
      "size": 1,
      "price": "1011000000000000000000",
      "reserved": "",
      "salt": "0x379ec5ab71a38469976fdee3a40774bc6c3d6c009ab0d168bcbbc9e679514cab",
      "assetIds": []
    },
    {
      "x": 301,
      "y": 268,
      "size": 1,
      "price": "1011000000000000000000",
      "reserved": "",
      "salt": "0xe6fa3555a74c49054e33752f439a4512f48587b1af45d1f9761cc0fedf0b06c7",
      "assetIds": []
    },
    {
      "x": 301,
      "y": 269,
      "size": 1,
      "price": "1011000000000000000000",
      "reserved": "",
      "salt": "0xd4a8c0c5d96639186f3f066aecc2a908bf30cc832cc7a74e137d1d5d8c51bd2b",
      "assetIds": []
    },
    {
      "x": 301,
      "y": 273,
      "size": 1,
      "price": "1011000000000000000000",
      "reserved": "",
      "salt": "0x8474cd8a52911c30d061841121543e66a965e59b8891f1508e15ad54be27c4ff",
      "assetIds": []
    },
    {
      "x": 301,
      "y": 274,
      "size": 1,
      "price": "1011000000000000000000",
      "reserved": "",
      "salt": "0x7bc0a97c8bc574ebf9a4d899995beb1e17bc72446e1658a4ec8d1409aa0e8980",
      "assetIds": []
    },
    {
      "x": 301,
      "y": 275,
      "size": 1,
      "price": "1011000000000000000000",
      "reserved": "",
      "salt": "0x47fb3b5f1681312cd82f4cfcbf86dd86f52919f12f2bc2c6377915f5248a5feb",
      "assetIds": []
    },
    {
      "x": 301,
      "y": 276,
      "size": 1,
      "price": "1011000000000000000000",
      "reserved": "",
      "salt": "0x6dbb71cae9fd66fdfaeee7122720b62118cd1a005ef6e1be893639af6bb92c10",
      "assetIds": []
    },
    {
      "x": 301,
      "y": 277,
      "size": 1,
      "price": "1011000000000000000000",
      "reserved": "",
      "salt": "0xdd835eb372cf49a776514fb2fa167fecb5f5553789fe44b37d42c2ea5d89fccd",
      "assetIds": []
    },
    {
      "x": 301,
      "y": 278,
      "size": 1,
      "price": "1011000000000000000000",
      "reserved": "",
      "salt": "0x80b21872fe0ccc9c2d51317b14af1c7a53f7654128427f3e98542a992e27125e",
      "assetIds": []
    },
    {
      "x": 302,
      "y": 240,
      "size": 1,
      "price": "1011000000000000000000",
      "reserved": "",
      "salt": "0xd6530b13087c0840cd9a4ea7f0ccfa1c4478ba17573838b5cb75b4bb303ed5f9",
      "assetIds": []
    },
    {
      "x": 302,
      "y": 241,
      "size": 1,
      "price": "1011000000000000000000",
      "reserved": "",
      "salt": "0x1d993196a78850f322b44c11dec06d7a6541d8978378d87bb28fbac124ae3833",
      "assetIds": []
    },
    {
      "x": 302,
      "y": 242,
      "size": 1,
      "price": "1011000000000000000000",
      "reserved": "",
      "salt": "0x80bb0b3c1cd956d96e63bb45117a3c58fb333904d4313cac94945616e9e2e8a7",
      "assetIds": []
    },
    {
      "x": 302,
      "y": 246,
      "size": 1,
      "price": "4683000000000000000000",
      "reserved": "",
      "salt": "0xb5de60b548caf742c411c3eae8cbdc80c7a26ee57b41e5b35e4cacf0ecac85e2",
      "assetIds": []
    },
    {
      "x": 302,
      "y": 247,
      "size": 1,
      "price": "1011000000000000000000",
      "reserved": "",
      "salt": "0x4c50dd28bf99151e516445390d5934d0440cad44a2242b7aa99a57f4db71030e",
      "assetIds": []
    },
    {
      "x": 302,
      "y": 248,
      "size": 1,
      "price": "4683000000000000000000",
      "reserved": "",
      "salt": "0x3d37222c5de1c9c8eb6310952fcc834c841282aa15b199bcbbf0310e63812e67",
      "assetIds": []
    },
    {
      "x": 302,
      "y": 249,
      "size": 1,
      "price": "1011000000000000000000",
      "reserved": "0x7a9fe22691c811ea339d9b73150e6911a5343dca",
      "salt": "0x288af58e6cd481415abcdeaf7d218bd9aec7664d3d9a0fe16b17b427d12f78d4",
      "assetIds": []
    },
    {
      "x": 302,
      "y": 250,
      "size": 1,
      "price": "1011000000000000000000",
      "reserved": "",
      "salt": "0x0b58d8f7fc58cdee3d66755674ed5fc664b96abe589cd8b6ba6ca730aed9b4f2",
      "assetIds": []
    },
    {
      "x": 302,
      "y": 251,
      "size": 1,
      "price": "1011000000000000000000",
      "reserved": "",
      "salt": "0xbad2a54750681a41a7bfa13252f360c81c6b55a926e913f7885a7aea52b7ebb1",
      "assetIds": []
    },
    {
      "x": 302,
      "y": 264,
      "size": 1,
      "price": "1011000000000000000000",
      "reserved": "",
      "salt": "0x52a37b45f70b87794b8c04b5397110c9cac03bce6e16e7062e3ba85e55ac5b24",
      "assetIds": []
    },
    {
      "x": 302,
      "y": 265,
      "size": 1,
      "price": "1011000000000000000000",
      "reserved": "",
      "salt": "0xc5d9826760c056d2942028d9a389870c566aebe9fd196488329d27801650aede",
      "assetIds": []
    },
    {
      "x": 302,
      "y": 266,
      "size": 1,
      "price": "1011000000000000000000",
      "reserved": "",
      "salt": "0xca510d751c83a06af6b051511f9d16d2aeee01b043b8119275e7ef4c6c5602db",
      "assetIds": []
    },
    {
      "x": 302,
      "y": 267,
      "size": 1,
      "price": "1011000000000000000000",
      "reserved": "",
      "salt": "0xe05f01dacb11ef543cbd5f300a75d68602068408b5f91b961d1b49ab25824de5",
      "assetIds": []
    },
    {
      "x": 302,
      "y": 268,
      "size": 1,
      "price": "1011000000000000000000",
      "reserved": "",
      "salt": "0x30a5b24673e5e91eada1c281d0544b96c7e1e2b1246b6aa8258b47d123f7169f",
      "assetIds": []
    },
    {
      "x": 302,
      "y": 269,
      "size": 1,
      "price": "1011000000000000000000",
      "reserved": "",
      "salt": "0x9dd649759f415d65304cc75516c0dc3ad571daf005e8136ad53c68eb1294a965",
      "assetIds": []
    },
    {
      "x": 302,
      "y": 273,
      "size": 1,
      "price": "1011000000000000000000",
      "reserved": "",
      "salt": "0xa4c1458c694ffd325740a9ddf766820236c82051e95f037149accf6f8735fd4b",
      "assetIds": []
    },
    {
      "x": 302,
      "y": 274,
      "size": 1,
      "price": "1011000000000000000000",
      "reserved": "",
      "salt": "0x562701f3b6ccae12737c15feb9d0c8f5294c0cb54c1040f427aa9794d50cd174",
      "assetIds": []
    },
    {
      "x": 302,
      "y": 275,
      "size": 1,
      "price": "1011000000000000000000",
      "reserved": "",
      "salt": "0x61d23e7fcbdd1cb0ae69d9e51aa4ea8fc44923352dbdf8cf761de8648794b4b2",
      "assetIds": []
    },
    {
      "x": 302,
      "y": 276,
      "size": 1,
      "price": "1011000000000000000000",
      "reserved": "",
      "salt": "0x294844affdfe0186a23f19991bff17ea882f39421c62f3c481d48c5061ca8fd6",
      "assetIds": []
    },
    {
      "x": 302,
      "y": 277,
      "size": 1,
      "price": "1011000000000000000000",
      "reserved": "",
      "salt": "0x01a9941118d3795312c05a0ebf263c9ef0cd5b0d6eda2e9bda05f3bd20d65010",
      "assetIds": []
    },
    {
      "x": 302,
      "y": 278,
      "size": 1,
      "price": "1011000000000000000000",
      "reserved": "",
      "salt": "0x876040394345737e7a3456d45811038b6f4c06b2c42a9ebaaf3550db91ea33ca",
      "assetIds": []
    },
    {
      "x": 303,
      "y": 240,
      "size": 1,
      "price": "1011000000000000000000",
      "reserved": "",
      "salt": "0x040466f583c75dccc894df1da758772909c50dc4ab04af853fd8a3103dcd4820",
      "assetIds": []
    },
    {
      "x": 303,
      "y": 241,
      "size": 1,
      "price": "1011000000000000000000",
      "reserved": "",
      "salt": "0xc3819a939b85980ac9564d70f233ecc440b678a6e5f804b976faf635c44e4d6e",
      "assetIds": []
    },
    {
      "x": 303,
      "y": 242,
      "size": 1,
      "price": "1011000000000000000000",
      "reserved": "",
      "salt": "0x57e902f1da161be7d368f7a6f37169f7c83f4aaf481fc8f66bff4b09660be3af",
      "assetIds": []
    },
    {
      "x": 303,
      "y": 243,
      "size": 1,
      "price": "1011000000000000000000",
      "reserved": "",
      "salt": "0xb295c7ed41744aa35d6a931f7001f173d319a6d4b6ca8295042df1763d5dd152",
      "assetIds": []
    },
    {
      "x": 303,
      "y": 244,
      "size": 1,
      "price": "1011000000000000000000",
      "reserved": "",
      "salt": "0x6836b40a4261bfea3bdab1618fb6cb033101242c6f21438ae703bb6a5274b93f",
      "assetIds": []
    },
    {
      "x": 303,
      "y": 245,
      "size": 1,
      "price": "4683000000000000000000",
      "reserved": "",
      "salt": "0xae6e9691c989b5f6196679ff16cabea3b2e71f27231dcfd06a82fa9650883b5f",
      "assetIds": []
    },
    {
      "x": 303,
      "y": 249,
      "size": 1,
      "price": "4683000000000000000000",
      "reserved": "",
      "salt": "0x3dd1963e03feca2ca0bda8a8c5e94dd05bbb182b6fbaae5021bff7b4ff5fef39",
      "assetIds": []
    },
    {
      "x": 303,
      "y": 250,
      "size": 1,
      "price": "1011000000000000000000",
      "reserved": "",
      "salt": "0xc50c618fa26b7631cfb478baa7112a690036ccfba7ff897e4fa220acb6d681d9",
      "assetIds": []
    },
    {
      "x": 303,
      "y": 251,
      "size": 1,
      "price": "1011000000000000000000",
      "reserved": "0x7a9fe22691c811ea339d9b73150e6911a5343dca",
      "salt": "0x26a9e311058b8eaac0cbba2bcd10708cf21dff6fd1996b0eb75262f4cb776243",
      "assetIds": []
    },
    {
      "x": 303,
      "y": 267,
      "size": 1,
      "price": "1011000000000000000000",
      "reserved": "",
      "salt": "0x8d45f62d59616dd4c6ec68a6a2bc245f7f916a3fd3357f6249be0e2b2b1c08a5",
      "assetIds": []
    },
    {
      "x": 303,
      "y": 268,
      "size": 1,
      "price": "1011000000000000000000",
      "reserved": "",
      "salt": "0xad19728eea0bc5b4e8299841e900e8645cf9bace58fb56dab8b4bf5e33468e90",
      "assetIds": []
    },
    {
      "x": 303,
      "y": 269,
      "size": 1,
      "price": "1011000000000000000000",
      "reserved": "",
      "salt": "0xb5caafd15fa3ea56eff34a5a4bba7fce6f4abef03353b9162fe524fa096fe6a1",
      "assetIds": []
    },
    {
      "x": 303,
      "y": 270,
      "size": 1,
      "price": "1011000000000000000000",
      "reserved": "",
      "salt": "0x539407217fbbda23247f64d06d82d693d979c01be75e2e9c78fcde66ce77816b",
      "assetIds": []
    },
    {
      "x": 303,
      "y": 271,
      "size": 1,
      "price": "1011000000000000000000",
      "reserved": "",
      "salt": "0x59ad85cefc361a5c88c0702d9602a99620cd2eacc127c6d605f7d5b3c62a9e61",
      "assetIds": []
    },
    {
      "x": 303,
      "y": 272,
      "size": 1,
      "price": "1011000000000000000000",
      "reserved": "",
      "salt": "0xdca41185a97a8ee46a37f78b1e4b38d106a2c20bdcaa672a54f0c98d2a1be278",
      "assetIds": []
    },
    {
      "x": 303,
      "y": 273,
      "size": 1,
      "price": "1011000000000000000000",
      "reserved": "",
      "salt": "0xde7d6c0c28974ea7e344873e971cb6b674a614fa33977bc929665990293a00b7",
      "assetIds": []
    },
    {
      "x": 303,
      "y": 274,
      "size": 1,
      "price": "1011000000000000000000",
      "reserved": "",
      "salt": "0xd5d069cd161dff6c45682ed8d3b551decab074d03a2dfe4e6be54d34bf1a6d99",
      "assetIds": []
    },
    {
      "x": 303,
      "y": 275,
      "size": 1,
      "price": "1011000000000000000000",
      "reserved": "",
      "salt": "0xa478dabba1e1353238ed0e5d1f166bd8f26fd26e05c20a7b88e523b320f24170",
      "assetIds": []
    },
    {
      "x": 304,
      "y": 240,
      "size": 1,
      "price": "1011000000000000000000",
      "reserved": "",
      "salt": "0x20e0ed238868545231a8bb4740993125f34e93b41c8a4ee0f69ebc85bfb480be",
      "assetIds": []
    },
    {
      "x": 304,
      "y": 241,
      "size": 1,
      "price": "1011000000000000000000",
      "reserved": "",
      "salt": "0xbb5fdac4cd303c214ec36ba2636292a2a674362f9812930715d40ff22f9eab98",
      "assetIds": []
    },
    {
      "x": 304,
      "y": 242,
      "size": 1,
      "price": "1011000000000000000000",
      "reserved": "",
      "salt": "0x7bfb3440a719dc11077bc070c6befc3e0e1daa7426f42718dd67c89839c9db50",
      "assetIds": []
    },
    {
      "x": 304,
      "y": 243,
      "size": 1,
      "price": "1011000000000000000000",
      "reserved": "",
      "salt": "0xb9f9953a28a6a279d4ac70e87d90bffa7d35d81f2423e68d8673e73f34a54d43",
      "assetIds": []
    },
    {
      "x": 304,
      "y": 244,
      "size": 1,
      "price": "1011000000000000000000",
      "reserved": "",
      "salt": "0x65e171e8750c74256281fb5a64e9a9b417709677c3cf842e3735a5e5de7137e6",
      "assetIds": []
    },
    {
      "x": 304,
      "y": 245,
      "size": 1,
      "price": "4683000000000000000000",
      "reserved": "",
      "salt": "0xba0b846571b8d816cfa4fcc9a556fd35af8af5df8ae2a98b1cf8ce16f554d73b",
      "assetIds": []
    },
    {
      "x": 304,
      "y": 249,
      "size": 1,
      "price": "4683000000000000000000",
      "reserved": "",
      "salt": "0xb77808fd241f874b3cefc3e564e21add53d6a4590b3ad0c53e222e7fc12fe487",
      "assetIds": []
    },
    {
      "x": 304,
      "y": 250,
      "size": 1,
      "price": "1011000000000000000000",
      "reserved": "",
      "salt": "0xc9a6b55c844224f33b23337f57ebc0cf284e164c43388d692db7ef35291240ea",
      "assetIds": []
    },
    {
      "x": 304,
      "y": 251,
      "size": 1,
      "price": "1011000000000000000000",
      "reserved": "",
      "salt": "0x300017e05a6e5d2ae014c57724623e45015e5fd37fecd65be8396d4d5f7e4c90",
      "assetIds": []
    },
    {
      "x": 304,
      "y": 267,
      "size": 1,
      "price": "1011000000000000000000",
      "reserved": "",
      "salt": "0x14747c9cf963f1e26718da2badaff46a60fcd31a982f745eaf3a590e06439328",
      "assetIds": []
    },
    {
      "x": 304,
      "y": 268,
      "size": 1,
      "price": "1011000000000000000000",
      "reserved": "",
      "salt": "0x7968b4eb42b7995011ec98f03e614669b0756bab79d2da08b035169352e4335e",
      "assetIds": []
    },
    {
      "x": 304,
      "y": 269,
      "size": 1,
      "price": "1011000000000000000000",
      "reserved": "",
      "salt": "0xb8ef0dddf23c0d705f72dd820860fc1699d3b7d5f5477b81453d3753096ca8f3",
      "assetIds": []
    },
    {
      "x": 304,
      "y": 270,
      "size": 1,
      "price": "1011000000000000000000",
      "reserved": "",
      "salt": "0xe9332ade0570c14bcde06c8d1deb1d704fa5218ce99d40b5bde224da0368ce8b",
      "assetIds": []
    },
    {
      "x": 304,
      "y": 271,
      "size": 1,
      "price": "1011000000000000000000",
      "reserved": "",
      "salt": "0xc1e489f55a92bd414b7b841e6efb0e75a0cdb253e3617904a8d5239b13b6accc",
      "assetIds": []
    },
    {
      "x": 304,
      "y": 272,
      "size": 1,
      "price": "1011000000000000000000",
      "reserved": "",
      "salt": "0x85edc8036e49f07d29bcead60c6917fd05177fb15579351a386e05a4b7f65f64",
      "assetIds": []
    },
    {
      "x": 304,
      "y": 273,
      "size": 1,
      "price": "1011000000000000000000",
      "reserved": "",
      "salt": "0x156a9be87b4221da33a2e6acce8ff8d43a51772c98162f508183aa1626a92c76",
      "assetIds": []
    },
    {
      "x": 304,
      "y": 274,
      "size": 1,
      "price": "1011000000000000000000",
      "reserved": "",
      "salt": "0x4c91bdb75b81a2cf014664536efbf291fb9caf42d71791d2269ac2d4686ffd88",
      "assetIds": []
    },
    {
      "x": 304,
      "y": 275,
      "size": 1,
      "price": "1011000000000000000000",
      "reserved": "",
      "salt": "0x77f30feb76724b93a806c27fc920d2c8617541232db70335205117c570c82e2e",
      "assetIds": []
    },
    {
      "x": 305,
      "y": 240,
      "size": 1,
      "price": "1011000000000000000000",
      "reserved": "",
      "salt": "0xfea01eacdb9206c0a9569003e43808e021615b0d2c1072d01647e089260397a1",
      "assetIds": []
    },
    {
      "x": 305,
      "y": 241,
      "size": 1,
      "price": "1011000000000000000000",
      "reserved": "",
      "salt": "0x568cb278e58d05bab3f8bf8d1d9b48d40ad6c3d8a8eab819fecc9abbc254a2e1",
      "assetIds": []
    },
    {
      "x": 305,
      "y": 242,
      "size": 1,
      "price": "1011000000000000000000",
      "reserved": "",
      "salt": "0x20d9dbaf39cdb7a4095144419734d904431701481a117f4a2b02e0d777ead245",
      "assetIds": []
    },
    {
      "x": 305,
      "y": 243,
      "size": 1,
      "price": "1011000000000000000000",
      "reserved": "",
      "salt": "0x5204e65b1a64b001a9be08377e5c17721acd9a2fa5feab9f7abdd9056e2de0ba",
      "assetIds": []
    },
    {
      "x": 305,
      "y": 244,
      "size": 1,
      "price": "1011000000000000000000",
      "reserved": "",
      "salt": "0x4e8af46c925aeaf958776b8c359a4b2812ccb2ad8c993dc256fc0bf63a2852e3",
      "assetIds": []
    },
    {
      "x": 305,
      "y": 245,
      "size": 1,
      "price": "4683000000000000000000",
      "reserved": "",
      "salt": "0xbcafe0e5f6fd0c28335075edd8b75fb58773463698d5cd60e78adcf74766f380",
      "assetIds": []
    },
    {
      "x": 305,
      "y": 249,
      "size": 1,
      "price": "4683000000000000000000",
      "reserved": "",
      "salt": "0x2ffebe671e35dd59baa6de693bfcadd1db51fe4a312bd10b2ff65517fd803019",
      "assetIds": []
    },
    {
      "x": 305,
      "y": 250,
      "size": 1,
      "price": "1011000000000000000000",
      "reserved": "",
      "salt": "0x955649db6124a628011866d5bc444b74f37247ae21fdc57c2a442947ad412d5b",
      "assetIds": []
    },
    {
      "x": 305,
      "y": 251,
      "size": 1,
      "price": "1011000000000000000000",
      "reserved": "",
      "salt": "0xa7f9879da8554ee4a8a9f2bceee674c3a3b8673c0220906bcf7cd61c9b0311db",
      "assetIds": []
    },
    {
      "x": 305,
      "y": 267,
      "size": 1,
      "price": "1011000000000000000000",
      "reserved": "",
      "salt": "0x0a0d5f63f18d03190de9068f6fd135a679448dd65fabf713dc7cdc0c170769a8",
      "assetIds": []
    },
    {
      "x": 305,
      "y": 268,
      "size": 1,
      "price": "1011000000000000000000",
      "reserved": "",
      "salt": "0x88328253b70b1feace7ca1fe4ae9351e73b811635d855d1df383af4b65009319",
      "assetIds": []
    },
    {
      "x": 305,
      "y": 269,
      "size": 1,
      "price": "1011000000000000000000",
      "reserved": "",
      "salt": "0x1678b0dfcc7806e6e292d7abd0ab0a4f56f57920db234cd8e294e72db0eadfed",
      "assetIds": []
    },
    {
      "x": 305,
      "y": 270,
      "size": 1,
      "price": "1011000000000000000000",
      "reserved": "",
      "salt": "0x12bf063ffa7c32da4e1155617c1aaa2dbdb22f0da4741ef858c66b12b7b056ae",
      "assetIds": []
    },
    {
      "x": 305,
      "y": 271,
      "size": 1,
      "price": "1011000000000000000000",
      "reserved": "",
      "salt": "0xfe86675f88872cea983fb7bd0437b9ae2671b0de3f27ce576562ac917c633acf",
      "assetIds": []
    },
    {
      "x": 305,
      "y": 272,
      "size": 1,
      "price": "1011000000000000000000",
      "reserved": "",
      "salt": "0xda6b4894e7c6d0a5fa5dfd2e49ae0b489261559cca8b894ef9a3f80da9dcfbcb",
      "assetIds": []
    },
    {
      "x": 305,
      "y": 273,
      "size": 1,
      "price": "1011000000000000000000",
      "reserved": "",
      "salt": "0x2ac19a325e666360670a77cb1c933a94d91ae16c04ede7fc47c66f434a944601",
      "assetIds": []
    },
    {
      "x": 305,
      "y": 274,
      "size": 1,
      "price": "1011000000000000000000",
      "reserved": "",
      "salt": "0xebc24f4909f825da75d6700a41df82174fd18a19734e52522177d265a2deef68",
      "assetIds": []
    },
    {
      "x": 305,
      "y": 275,
      "size": 1,
      "price": "1011000000000000000000",
      "reserved": "",
      "salt": "0x1a4cfeb6895ab7d8019655dab3a23aff02880410c92697aae746ee589039225b",
      "assetIds": []
    },
    {
      "x": 306,
      "y": 237,
      "size": 1,
      "price": "1011000000000000000000",
      "reserved": "",
      "salt": "0x6de3228f66e5e28af427eebec5250224882ea111564060322f4104fd1f08a2b7",
      "assetIds": []
    },
    {
      "x": 306,
      "y": 238,
      "size": 1,
      "price": "1011000000000000000000",
      "reserved": "",
      "salt": "0x2737260f534235e0880683711582f51716ab7359a16b43c050bb38316a60c02b",
      "assetIds": []
    },
    {
      "x": 306,
      "y": 239,
      "size": 1,
      "price": "1011000000000000000000",
      "reserved": "",
      "salt": "0x53c3d08a44e83c2e6f602893c3322c152b0eda2632bfecb4aa4c5edb2e9c17e9",
      "assetIds": []
    },
    {
      "x": 306,
      "y": 240,
      "size": 1,
      "price": "1011000000000000000000",
      "reserved": "",
      "salt": "0x33a8a68312a0bf568ad207dca9a50de810caa9c33bf9934593d817dcae553d63",
      "assetIds": []
    },
    {
      "x": 306,
      "y": 241,
      "size": 1,
      "price": "1011000000000000000000",
      "reserved": "",
      "salt": "0x00e818f1fd80bf61f82f3f198c10ab760cdb6e5c875a3453ddf4c2a738f374b4",
      "assetIds": []
    },
    {
      "x": 306,
      "y": 242,
      "size": 1,
      "price": "1011000000000000000000",
      "reserved": "",
      "salt": "0x02182daf7464d2b4ef95a7bc89dcc01034af184ffbd09d3c5e2956180978b608",
      "assetIds": []
    },
    {
      "x": 306,
      "y": 246,
      "size": 1,
      "price": "4683000000000000000000",
      "reserved": "",
      "salt": "0xab67019e94a1bc249c7195481b9c989d1e70b6cc2871f9106892944a009318c0",
      "assetIds": []
    },
    {
      "x": 306,
      "y": 247,
      "size": 1,
      "price": "1011000000000000000000",
      "reserved": "0x7a9fe22691c811ea339d9b73150e6911a5343dca",
      "salt": "0x689436b316f57fe7bf06f36e80ae90bd45b10a5a48405fb87072c2f0eed6cf56",
      "assetIds": []
    },
    {
      "x": 306,
      "y": 248,
      "size": 1,
      "price": "4683000000000000000000",
      "reserved": "",
      "salt": "0x992549e8846526c52fa1ffa35185616f4af3109df01bfec7e044df45487897a9",
      "assetIds": []
    },
    {
      "x": 306,
      "y": 249,
      "size": 1,
      "price": "1011000000000000000000",
      "reserved": "0x7a9fe22691c811ea339d9b73150e6911a5343dca",
      "salt": "0x28ea6770feb27108d0b03c03faee81531551edd64f4931adbca6679ddf0c9fcf",
      "assetIds": []
    },
    {
      "x": 306,
      "y": 250,
      "size": 1,
      "price": "1011000000000000000000",
      "reserved": "",
      "salt": "0x483383b8fb628d4c25d25937ceb0a44fff1bead61f3a3e3cc09c254bf3f7a561",
      "assetIds": []
    },
    {
      "x": 306,
      "y": 251,
      "size": 1,
      "price": "1011000000000000000000",
      "reserved": "",
      "salt": "0xc06950b12f5b7082589e3f7bf58312066b04db060962d0fd73b066c96a9b15e8",
      "assetIds": []
    },
    {
      "x": 306,
      "y": 264,
      "size": 1,
      "price": "1011000000000000000000",
      "reserved": "",
      "salt": "0xaa9606a9c20d6a5f084d918b896f46a0d8c430ab09c14224dcea75f0203d2241",
      "assetIds": []
    },
    {
      "x": 306,
      "y": 265,
      "size": 1,
      "price": "1011000000000000000000",
      "reserved": "",
      "salt": "0x3ab01e53180e73c3d7dc414b749162ef028917272c46536541c25aa09685f5df",
      "assetIds": []
    },
    {
      "x": 306,
      "y": 266,
      "size": 1,
      "price": "1011000000000000000000",
      "reserved": "",
      "salt": "0xd340337d8588cd76cf4a39ce9a83df89a76c4f456d8d3b2856f436f4c0a17e4e",
      "assetIds": []
    },
    {
      "x": 306,
      "y": 267,
      "size": 1,
      "price": "1011000000000000000000",
      "reserved": "",
      "salt": "0xaf143c014b3c861ee571c2983ee086ca2b200389523126c14285fa9e148c6e2b",
      "assetIds": []
    },
    {
      "x": 306,
      "y": 268,
      "size": 1,
      "price": "1011000000000000000000",
      "reserved": "",
      "salt": "0xcabbdb53a95befbb7c7ae7159f40342629810f48bb12db2ab4e7522f7de8de10",
      "assetIds": []
    },
    {
      "x": 306,
      "y": 269,
      "size": 1,
      "price": "1011000000000000000000",
      "reserved": "",
      "salt": "0x8fc27b0edd0e0def67fa7d32efe1da450af96a20f171fc6e75a663ab64861e6d",
      "assetIds": []
    },
    {
      "x": 306,
      "y": 273,
      "size": 1,
      "price": "1011000000000000000000",
      "reserved": "",
      "salt": "0x91a7e242b103e8bb147f817c66ff2c6f5f2f29c43ed638c0b5121465e1408d73",
      "assetIds": []
    },
    {
      "x": 306,
      "y": 274,
      "size": 1,
      "price": "1011000000000000000000",
      "reserved": "",
      "salt": "0xdc7324587feba4ba4f3b16283ae5a03a9894b7f699f88e3ba41ede77c717d7cb",
      "assetIds": []
    },
    {
      "x": 306,
      "y": 275,
      "size": 1,
      "price": "1011000000000000000000",
      "reserved": "",
      "salt": "0x8378471522120a782e9668c47006e114664ecafb7deba3e1702fdb2d1bf181ae",
      "assetIds": []
    },
    {
      "x": 307,
      "y": 237,
      "size": 1,
      "price": "1011000000000000000000",
      "reserved": "",
      "salt": "0x06d75c5e27e7f790dfebdee8c874059ca2d2db858fcf89325802be421e49ef36",
      "assetIds": []
    },
    {
      "x": 307,
      "y": 238,
      "size": 1,
      "price": "1011000000000000000000",
      "reserved": "",
      "salt": "0xf6d524184a5050ce4986f74654af00df308905acd0c5c5a8d3ff2e11846ab21d",
      "assetIds": []
    },
    {
      "x": 307,
      "y": 239,
      "size": 1,
      "price": "1011000000000000000000",
      "reserved": "",
      "salt": "0x24cfda7d952f59039a4b6bd3f7764a03c144b48e3aec66e67904abc38127b165",
      "assetIds": []
    },
    {
      "x": 307,
      "y": 240,
      "size": 1,
      "price": "1011000000000000000000",
      "reserved": "",
      "salt": "0x2c6416768cefd2325085a40177ea011a06e82d90e2ed6ad4b7d3a1408e375ff9",
      "assetIds": []
    },
    {
      "x": 307,
      "y": 241,
      "size": 1,
      "price": "1011000000000000000000",
      "reserved": "",
      "salt": "0x0e7281f65d5e37ff490c51dd0dfb9d9a9d4898adc2c504826a1d0d798fb26f56",
      "assetIds": []
    },
    {
      "x": 307,
      "y": 242,
      "size": 1,
      "price": "1011000000000000000000",
      "reserved": "",
      "salt": "0x3b9160098c18949a0a979e3aed483f70c313ac35bab0ec0ba8480fa54d8a10e5",
      "assetIds": []
    },
    {
      "x": 307,
      "y": 246,
      "size": 1,
      "price": "1011000000000000000000",
      "reserved": "",
      "salt": "0x3b29f19aa07f2341cf1b5797140e58e378ff1225d9726785f13cf3b7f953a1a6",
      "assetIds": []
    },
    {
      "x": 307,
      "y": 247,
      "size": 1,
      "price": "1011000000000000000000",
      "reserved": "",
      "salt": "0xd4b659b8035a122d98a947232c7dafa80317fa83a0df74e6e0bd680958364fbd",
      "assetIds": []
    },
    {
      "x": 307,
      "y": 248,
      "size": 1,
      "price": "1011000000000000000000",
      "reserved": "",
      "salt": "0x6011d82da77926adb3750ce5d2283958862789ad93ce07b06f7a5b946fd65f7d",
      "assetIds": []
    },
    {
      "x": 307,
      "y": 249,
      "size": 1,
      "price": "1011000000000000000000",
      "reserved": "",
      "salt": "0x2d2ad627b414e8498328e09cbc6c328581931dee74b8d9db649dd535087b2ed9",
      "assetIds": []
    },
    {
      "x": 307,
      "y": 250,
      "size": 1,
      "price": "1011000000000000000000",
      "reserved": "",
      "salt": "0xad1e4e1c9fda30ab0fbe0cce354e0ec36937db5d6f63f804d97847291383db01",
      "assetIds": []
    },
    {
      "x": 307,
      "y": 251,
      "size": 1,
      "price": "1011000000000000000000",
      "reserved": "",
      "salt": "0xf0ab63c77b03cefbc474aa8058ba1a986d579a922913ef58a107a8da574e0a8e",
      "assetIds": []
    },
    {
      "x": 307,
      "y": 264,
      "size": 1,
      "price": "1011000000000000000000",
      "reserved": "",
      "salt": "0x4e00fd7e0b66fbb00c7ccf30fd9a4a6274682e8d37010012630966259e8ac6b5",
      "assetIds": []
    },
    {
      "x": 307,
      "y": 265,
      "size": 1,
      "price": "1011000000000000000000",
      "reserved": "",
      "salt": "0x1c237dc4e3b49c830c437aec4ce308386bdb6c64eefb8185aaf671edc3154edc",
      "assetIds": []
    },
    {
      "x": 307,
      "y": 266,
      "size": 1,
      "price": "1011000000000000000000",
      "reserved": "",
      "salt": "0xf72dcc6fbe0fa4dfb2cb1a207a791df9f3e7a02e72cfa91bd13bcb47a33677ed",
      "assetIds": []
    },
    {
      "x": 307,
      "y": 267,
      "size": 1,
      "price": "1011000000000000000000",
      "reserved": "",
      "salt": "0x84decdfb35c5eae6b93f560847172867cb61a64d35aab9175cee74bdc5e06e1d",
      "assetIds": []
    },
    {
      "x": 307,
      "y": 268,
      "size": 1,
      "price": "1011000000000000000000",
      "reserved": "",
      "salt": "0xd8f5b62ba72a39ee0f95c3ebe7c52ded95acf6ffea93e4e97b5047ca563b18f8",
      "assetIds": []
    },
    {
      "x": 307,
      "y": 269,
      "size": 1,
      "price": "1011000000000000000000",
      "reserved": "",
      "salt": "0xf9a1b712da258b4aa977b7f2a109467b9596932db0930b880b1511aaaa59ab04",
      "assetIds": []
    },
    {
      "x": 307,
      "y": 273,
      "size": 1,
      "price": "1011000000000000000000",
      "reserved": "",
      "salt": "0x7c084bd865ef91bf4e192abb1b6f72a0125eec81027f5dd2930d8c6df13dadcb",
      "assetIds": []
    },
    {
      "x": 307,
      "y": 274,
      "size": 1,
      "price": "1011000000000000000000",
      "reserved": "",
      "salt": "0x48d1a85e648b865138e60520b38e6cac7d5b8b83bb7745404bcdc068af173813",
      "assetIds": []
    },
    {
      "x": 307,
      "y": 275,
      "size": 1,
      "price": "1011000000000000000000",
      "reserved": "",
      "salt": "0x94c00b96970c20842c48d3c4efa3d7a627f1d04fa0fecd7c74e8599b3a01d2b1",
      "assetIds": []
    },
    {
      "x": 308,
      "y": 237,
      "size": 1,
      "price": "1011000000000000000000",
      "reserved": "",
      "salt": "0xd6030458b335b166bb387da18032f8f34716f0cf7c3114230189f4ed5906707b",
      "assetIds": []
    },
    {
      "x": 308,
      "y": 238,
      "size": 1,
      "price": "1011000000000000000000",
      "reserved": "",
      "salt": "0x366532ec234bcbe20ddc703f8fedf998f5d66c916e09da28b87e3313462b56aa",
      "assetIds": []
    },
    {
      "x": 308,
      "y": 239,
      "size": 1,
      "price": "1011000000000000000000",
      "reserved": "0x7a9fe22691c811ea339d9b73150e6911a5343dca",
      "salt": "0x30d187732533719e67c0bca0f80cac90a17e129acaf9e3028474b0a36bb9b2fa",
      "assetIds": []
    },
    {
      "x": 308,
      "y": 240,
      "size": 1,
      "price": "4683000000000000000000",
      "reserved": "",
      "salt": "0xd7c6ae21b465a95a4370b5cf6533134d3ee4211fa3e442fa38ca23e6a6e01dbc",
      "assetIds": []
    },
    {
      "x": 308,
      "y": 241,
      "size": 1,
      "price": "1011000000000000000000",
      "reserved": "",
      "salt": "0x8c1aa461ad23227c4ae4f6212574c39e422a0657da19337886c3237c96c6b4ca",
      "assetIds": []
    },
    {
      "x": 308,
      "y": 242,
      "size": 1,
      "price": "4683000000000000000000",
      "reserved": "",
      "salt": "0x51d4e7214e019d0d47c180114e5b624b9a60304f6238bf629dda6f6df50ce68b",
      "assetIds": []
    },
    {
      "x": 308,
      "y": 246,
      "size": 1,
      "price": "4683000000000000000000",
      "reserved": "",
      "salt": "0xd29d302976a8f90a04ec8507bc7aa65a97e2aaf343ff37480bb175c0e57cf60a",
      "assetIds": []
    },
    {
      "x": 308,
      "y": 247,
      "size": 1,
      "price": "1011000000000000000000",
      "reserved": "",
      "salt": "0xac0e496721033c164da2e824068af419d3f0eb2582078431cb1a4e86182abfc4",
      "assetIds": []
    },
    {
      "x": 308,
      "y": 248,
      "size": 1,
      "price": "4683000000000000000000",
      "reserved": "",
      "salt": "0x51f4313fe9591389079032d4d042b5eae38ea1ac1974c496ad8bab60ec8f7fdf",
      "assetIds": []
    },
    {
      "x": 308,
      "y": 249,
      "size": 1,
      "price": "1011000000000000000000",
      "reserved": "0x7a9fe22691c811ea339d9b73150e6911a5343dca",
      "salt": "0x59ff451f66ad658f77a749c5b647a2041132ca010524eddd50e3f4f3fcab92da",
      "assetIds": []
    },
    {
      "x": 308,
      "y": 250,
      "size": 1,
      "price": "1011000000000000000000",
      "reserved": "",
      "salt": "0xe95fbb006c0be36165d8433f3a64bb7a385828d38766c50f3c27d3570a2a1844",
      "assetIds": []
    },
    {
      "x": 308,
      "y": 251,
      "size": 1,
      "price": "1011000000000000000000",
      "reserved": "",
      "salt": "0xfe1bab0754f968fc86aeac6f253a249d8594a0c413ccc89148a4fcd6812aeaa4",
      "assetIds": []
    },
    {
      "x": 308,
      "y": 264,
      "size": 1,
      "price": "1011000000000000000000",
      "reserved": "",
      "salt": "0x0463193d2f1e3bec466bd3304bf7d9b741dd86784abbc385f1e0fff6a266f7fa",
      "assetIds": []
    },
    {
      "x": 308,
      "y": 265,
      "size": 1,
      "price": "1011000000000000000000",
      "reserved": "",
      "salt": "0x5fb0a44896f32fe2c0aed1bbeeea39c88f21486a2fe335662546597a2aa2df60",
      "assetIds": []
    },
    {
      "x": 308,
      "y": 266,
      "size": 1,
      "price": "1011000000000000000000",
      "reserved": "",
      "salt": "0x08ffc317e83ea9bf574b1298869f19ffc7ef3be9c6faa1c8001704013e0a66bb",
      "assetIds": []
    },
    {
      "x": 308,
      "y": 267,
      "size": 1,
      "price": "1011000000000000000000",
      "reserved": "",
      "salt": "0xc7ad8750fcccefcffae5a52d9a7ebb40c29875d5a6319514c197c58fa00005b2",
      "assetIds": []
    },
    {
      "x": 308,
      "y": 268,
      "size": 1,
      "price": "1011000000000000000000",
      "reserved": "",
      "salt": "0x168d6de1a781d2c5344bf7a91a33e7393a2727423abb086c8dcbc10b58b63e04",
      "assetIds": []
    },
    {
      "x": 308,
      "y": 269,
      "size": 1,
      "price": "1011000000000000000000",
      "reserved": "0x7a9fe22691c811ea339d9b73150e6911a5343dca",
      "salt": "0xa3cab1bbc4c45148ce642b1ef9db0681990efb6915f3e83f91aa7040bb19bb60",
      "assetIds": []
    },
    {
      "x": 308,
      "y": 273,
      "size": 1,
      "price": "1011000000000000000000",
      "reserved": "0x7a9fe22691c811ea339d9b73150e6911a5343dca",
      "salt": "0x7d6066414acd18d01b4eb34ff5b907eeac51563bb571e81879cf8aeca07a8ed1",
      "assetIds": []
    },
    {
      "x": 308,
      "y": 274,
      "size": 1,
      "price": "1011000000000000000000",
      "reserved": "",
      "salt": "0x4302a0dff00651c5dd08159d4ea21b844b5062a0fccf681dcf9a3a196f989c0c",
      "assetIds": []
    },
    {
      "x": 308,
      "y": 275,
      "size": 1,
      "price": "1011000000000000000000",
      "reserved": "",
      "salt": "0x191516a71d774d4f13055d778e50790be513c680e87de7ccc2e5c7340d441054",
      "assetIds": []
    },
    {
      "x": 309,
      "y": 237,
      "size": 1,
      "price": "1011000000000000000000",
      "reserved": "",
      "salt": "0x52fc54d478985aff0768db8e7653a7ba0f5aeabd0205cd51ec463e371ba0c84e",
      "assetIds": []
    },
    {
      "x": 309,
      "y": 238,
      "size": 1,
      "price": "1011000000000000000000",
      "reserved": "",
      "salt": "0xa58ce33d7068a1e8bc9cebcf6baa44ca524b184c0096906dfb48b4cfa22a44ef",
      "assetIds": []
    },
    {
      "x": 309,
      "y": 239,
      "size": 1,
      "price": "4683000000000000000000",
      "reserved": "",
      "salt": "0xf867b64ba37685eb410d48fc0b536c56ec10437ab466d85a5427e9235b095eba",
      "assetIds": []
    },
    {
      "x": 309,
      "y": 243,
      "size": 1,
      "price": "4683000000000000000000",
      "reserved": "",
      "salt": "0x7b0dde6308d9a346d7955dbf71faeb812b533c780df526abfac0d05b373e1795",
      "assetIds": []
    },
    {
      "x": 309,
      "y": 244,
      "size": 1,
      "price": "1011000000000000000000",
      "reserved": "",
      "salt": "0x036979d8a03c60e44892ccc6ae0aa1261c166d01982549a8eaf7afdf8fb01a2a",
      "assetIds": []
    },
    {
      "x": 309,
      "y": 245,
      "size": 1,
      "price": "4683000000000000000000",
      "reserved": "",
      "salt": "0x7f4f7a650e65de858b8a4f6549fc54a9aceafe5058848af56f9e56137e71d60c",
      "assetIds": []
    },
    {
      "x": 309,
      "y": 249,
      "size": 1,
      "price": "4683000000000000000000",
      "reserved": "",
      "salt": "0x1af01ff036236f75613dfeeef5760f8064838b3f096b88097db1ef554b628d9f",
      "assetIds": []
    },
    {
      "x": 309,
      "y": 250,
      "size": 1,
      "price": "1011000000000000000000",
      "reserved": "",
      "salt": "0x508df8fe448c5460075baef9ca66a72ace954d26fbdb531148da42fb2a9fda80",
      "assetIds": []
    },
    {
      "x": 309,
      "y": 251,
      "size": 1,
      "price": "1011000000000000000000",
      "reserved": "0x7a9fe22691c811ea339d9b73150e6911a5343dca",
      "salt": "0x2367a21d19b55b35964e7f5588baed89ec8d055b302836589ccc7bf6c37c96d7",
      "assetIds": []
    },
    {
      "x": 309,
      "y": 264,
      "size": 1,
      "price": "1011000000000000000000",
      "reserved": "",
      "salt": "0xa0bdfea9dc70da33f43182747e4fb84ffba8d617e15cd6d49285b5ea2555a1b0",
      "assetIds": []
    },
    {
      "x": 309,
      "y": 265,
      "size": 1,
      "price": "1011000000000000000000",
      "reserved": "",
      "salt": "0x12be9e49fc73d8950d4c2d2c879529bfc742a2796c5456349b9120c8cfa2c13b",
      "assetIds": []
    },
    {
      "x": 309,
      "y": 266,
      "size": 1,
      "price": "1011000000000000000000",
      "reserved": "",
      "salt": "0x3003dd8a71dd4e9dde90dbf99f6b64418f2098d387fa676cb0713b64aa643591",
      "assetIds": []
    },
    {
      "x": 309,
      "y": 270,
      "size": 1,
      "price": "1011000000000000000000",
      "reserved": "",
      "salt": "0x93dda8bd09651f2fbd94219a193013a6ba0963d8fdea0b885300941b2ac31a40",
      "assetIds": []
    },
    {
      "x": 309,
      "y": 271,
      "size": 1,
      "price": "1011000000000000000000",
      "reserved": "",
      "salt": "0x8aa619e8f7076978fe2392fda0e9f38e545fe6df57d70cbf599fd68b14bed6f3",
      "assetIds": []
    },
    {
      "x": 309,
      "y": 272,
      "size": 1,
      "price": "1011000000000000000000",
      "reserved": "0x7a9fe22691c811ea339d9b73150e6911a5343dca",
      "salt": "0xbd41b0e4440a4344c4f01bf0f94402604786a1554c703ffd58fbd0c16d6dd912",
      "assetIds": []
    },
    {
      "x": 310,
      "y": 237,
      "size": 1,
      "price": "1011000000000000000000",
      "reserved": "",
      "salt": "0xdc5204c27b52f855618268609d8283157109a3ce84ef31aa446e871dbe55b34d",
      "assetIds": []
    },
    {
      "x": 310,
      "y": 238,
      "size": 1,
      "price": "1011000000000000000000",
      "reserved": "",
      "salt": "0x7b4af2b5604a86e4c4b2090bdc98731f1c8ea9561e1913bdc9745f08e10e4624",
      "assetIds": []
    },
    {
      "x": 310,
      "y": 239,
      "size": 1,
      "price": "4683000000000000000000",
      "reserved": "",
      "salt": "0x237450e9147877ed88b33ce7b113a86f26986a2c96c8ab97f6dd2cac0f988cd2",
      "assetIds": []
    },
    {
      "x": 310,
      "y": 243,
      "size": 1,
      "price": "4683000000000000000000",
      "reserved": "",
      "salt": "0xf87a44b9476ba58c8d36671b7ca472736212e88bec7cde6b863994472ca59e5c",
      "assetIds": []
    },
    {
      "x": 310,
      "y": 244,
      "size": 1,
      "price": "1011000000000000000000",
      "reserved": "",
      "salt": "0x240aabbc1264c35ca01f2a4884a69923a17952c7a928402122c23fce6b9b0531",
      "assetIds": []
    },
    {
      "x": 310,
      "y": 245,
      "size": 1,
      "price": "4683000000000000000000",
      "reserved": "",
      "salt": "0x24712a22466320485134a3e550dbfc9ade244c0071657c32bd002aed3acfcf2c",
      "assetIds": []
    },
    {
      "x": 310,
      "y": 249,
      "size": 1,
      "price": "4683000000000000000000",
      "reserved": "",
      "salt": "0x5498b4d61aa5095c3bed0dbff37e388a2752a4dc35341650d3c47c2491474a06",
      "assetIds": []
    },
    {
      "x": 310,
      "y": 250,
      "size": 1,
      "price": "1011000000000000000000",
      "reserved": "",
      "salt": "0xda7a5be110425b64d546b5ce5aea7185aa4f59ac7dcb3abc5acbdc28db6eab0f",
      "assetIds": []
    },
    {
      "x": 310,
      "y": 251,
      "size": 1,
      "price": "1011000000000000000000",
      "reserved": "",
      "salt": "0x5e4fe1430ec159dd56625468eace6028bbd55ccdadd17ffcc86549e2f0528f9f",
      "assetIds": []
    },
    {
      "x": 310,
      "y": 264,
      "size": 1,
      "price": "1011000000000000000000",
      "reserved": "",
      "salt": "0x5d716f1960a0c9df58c4f90105333d88ca21aee3a36416d26ac74dc4b1394de1",
      "assetIds": []
    },
    {
      "x": 310,
      "y": 265,
      "size": 1,
      "price": "1011000000000000000000",
      "reserved": "",
      "salt": "0x451c71f46776e23f821c5682eb6ed6c1b2f768419cddd5c1e90ac126cc6c1606",
      "assetIds": []
    },
    {
      "x": 310,
      "y": 266,
      "size": 1,
      "price": "1011000000000000000000",
      "reserved": "",
      "salt": "0x792e7d1e95d72c9814f41e824d116ae08ed7d6b312ceee7136d25420dbf54daa",
      "assetIds": []
    },
    {
      "x": 310,
      "y": 270,
      "size": 1,
      "price": "1011000000000000000000",
      "reserved": "",
      "salt": "0x9de1a1cb4b77fdbb8cfd9094874687d77cb173402ee6afb3decceaa899e0085e",
      "assetIds": []
    },
    {
      "x": 310,
      "y": 271,
      "size": 1,
      "price": "1011000000000000000000",
      "reserved": "",
      "salt": "0x8949e213148e6cb78be10f5ec282232e4e053503fecd808c33bd5ee8639c86fd",
      "assetIds": []
    },
    {
      "x": 310,
      "y": 272,
      "size": 1,
      "price": "1011000000000000000000",
      "reserved": "",
      "salt": "0x67852ddab1f957324f3f7d9119a94f342acb63c288f2851be28b1a2c78a27aaf",
      "assetIds": []
    },
    {
      "x": 311,
      "y": 237,
      "size": 1,
      "price": "1011000000000000000000",
      "reserved": "",
      "salt": "0xd3462be675dda7148c0ce10cb05fdfe3630828a7e271874bc6552089e1b25407",
      "assetIds": []
    },
    {
      "x": 311,
      "y": 238,
      "size": 1,
      "price": "1011000000000000000000",
      "reserved": "",
      "salt": "0x82e6d98ecc89cb7d2eb41f5fa228cb2e758a6b1b97fcf72a35e24aeb8a7f1325",
      "assetIds": []
    },
    {
      "x": 311,
      "y": 239,
      "size": 1,
      "price": "4683000000000000000000",
      "reserved": "",
      "salt": "0xd529bd0553d19f24a74e97713da5a4450abcb07f36253e51b41e14883567cd28",
      "assetIds": []
    },
    {
      "x": 311,
      "y": 243,
      "size": 1,
      "price": "4683000000000000000000",
      "reserved": "",
      "salt": "0xe08a0fa0ba15995e77aef61f6499e8d7be5f0d587d75524a71b9ea9d7754bb1c",
      "assetIds": []
    },
    {
      "x": 311,
      "y": 244,
      "size": 1,
      "price": "1011000000000000000000",
      "reserved": "",
      "salt": "0xa7c3452bda6015fda5d05e53e7547fd3dd6420530666d124485961eb4606631d",
      "assetIds": []
    },
    {
      "x": 311,
      "y": 245,
      "size": 1,
      "price": "4683000000000000000000",
      "reserved": "",
      "salt": "0x2e642275dd3a39d4cc0b0faf23f3af64a69176c7878991d99516da7b0b02b34a",
      "assetIds": []
    },
    {
      "x": 311,
      "y": 249,
      "size": 1,
      "price": "4683000000000000000000",
      "reserved": "",
      "salt": "0x56472a277cf70c0c7a467874b4328c4f7d26ccbd1a9f6bece4f8cacb72cf8cd3",
      "assetIds": []
    },
    {
      "x": 311,
      "y": 250,
      "size": 1,
      "price": "1011000000000000000000",
      "reserved": "",
      "salt": "0x20e4cf6e7a751c12ab72673ac5f3b7bbd735116cc5712c5085d555d811525721",
      "assetIds": []
    },
    {
      "x": 311,
      "y": 251,
      "size": 1,
      "price": "1011000000000000000000",
      "reserved": "",
      "salt": "0xcd9b4923070fa5e5340b4757c34da8589543bedbb6de6f88132e347ca9f5624c",
      "assetIds": []
    },
    {
      "x": 311,
      "y": 264,
      "size": 1,
      "price": "1011000000000000000000",
      "reserved": "",
      "salt": "0x7ce3eba05d1b5c197aebf5f3f51ed812da5da06949a4dea09901e4aee9de91cb",
      "assetIds": []
    },
    {
      "x": 311,
      "y": 265,
      "size": 1,
      "price": "1011000000000000000000",
      "reserved": "",
      "salt": "0xcc5d7df4ccf2b6b19c788eaac8135ac635f4729ddaf335354aa124b0a7e2de0e",
      "assetIds": []
    },
    {
      "x": 311,
      "y": 266,
      "size": 1,
      "price": "1011000000000000000000",
      "reserved": "",
      "salt": "0x39ca3ef8fcebe5ebb8ca2f0d15a1c46cd57170179d1e552601f4d01514a1d05a",
      "assetIds": []
    },
    {
      "x": 311,
      "y": 270,
      "size": 1,
      "price": "1011000000000000000000",
      "reserved": "",
      "salt": "0x0425879e2665805f60184d4fa154099dbb1a5655083e4587e1a8237ade146e90",
      "assetIds": []
    },
    {
      "x": 311,
      "y": 271,
      "size": 1,
      "price": "1011000000000000000000",
      "reserved": "",
      "salt": "0xe5b3d606d36dca897a783387342eaff0fee51e3070d7cf943c68b9b54ed10eff",
      "assetIds": []
    },
    {
      "x": 311,
      "y": 272,
      "size": 1,
      "price": "1011000000000000000000",
      "reserved": "",
      "salt": "0xe908e23bc4b83048a91188eefc70d8881776d2f8e8cb708f068cec39e0de3d7e",
      "assetIds": []
    },
    {
      "x": 312,
      "y": 237,
      "size": 1,
      "price": "1011000000000000000000",
      "reserved": "",
      "salt": "0xa18e4762eb17fcbe2d5c8f13effaf5a14efcc6bfa1a4a649d1ef7e55f61297e9",
      "assetIds": []
    },
    {
      "x": 312,
      "y": 238,
      "size": 1,
      "price": "1011000000000000000000",
      "reserved": "",
      "salt": "0x8d4b8fe4796bd8568a54cda21223c69e1a1199aee5ac0892203f9370b372bca0",
      "assetIds": []
    },
    {
      "x": 312,
      "y": 239,
      "size": 1,
      "price": "1011000000000000000000",
      "reserved": "0x7a9fe22691c811ea339d9b73150e6911a5343dca",
      "salt": "0x00aa1b93704867746598ddc8b0509b71578010b727f59c0af7c25e7cb7ca59f5",
      "assetIds": []
    },
    {
      "x": 312,
      "y": 240,
      "size": 1,
      "price": "4683000000000000000000",
      "reserved": "",
      "salt": "0x9c0d320623a65a45237cb61e04695b905cfa0cc36e1c3545d1c9d403b54e0b24",
      "assetIds": []
    },
    {
      "x": 312,
      "y": 241,
      "size": 1,
      "price": "1011000000000000000000",
      "reserved": "0x7a9fe22691c811ea339d9b73150e6911a5343dca",
      "salt": "0x6dfe92b3b35314e140c679bb18b8e661c00e352cc6d6d0c2a051980a6099f924",
      "assetIds": []
    },
    {
      "x": 312,
      "y": 242,
      "size": 1,
      "price": "4683000000000000000000",
      "reserved": "",
      "salt": "0x014b700b4377151ac18483470f88f5a611cfb149df9cda086b5c4d06faa81a4d",
      "assetIds": []
    },
    {
      "x": 312,
      "y": 246,
      "size": 1,
      "price": "4683000000000000000000",
      "reserved": "",
      "salt": "0x0ecc155733e2a1e3a58a15189b707ab0f353d94d2bf7c487d635976659cbc3cb",
      "assetIds": []
    },
    {
      "x": 312,
      "y": 247,
      "size": 1,
      "price": "1011000000000000000000",
      "reserved": "0x7a9fe22691c811ea339d9b73150e6911a5343dca",
      "salt": "0x2c1e791505822a0c0fb28d14c68cded9e6d21d15cb681f6e31335b3b3d6c0927",
      "assetIds": []
    },
    {
      "x": 312,
      "y": 248,
      "size": 1,
      "price": "4683000000000000000000",
      "reserved": "",
      "salt": "0x1a7543bdab867373fd9cddbf468a97220353d85e6d65c1c02e93cc183cae5698",
      "assetIds": []
    },
    {
      "x": 312,
      "y": 252,
      "size": 1,
      "price": "1011000000000000000000",
      "reserved": "",
      "salt": "0xf5a587856881e66282bfc009616240887156969565e04e3dec38f9a27eb4d824",
      "assetIds": []
    },
    {
      "x": 312,
      "y": 253,
      "size": 1,
      "price": "1011000000000000000000",
      "reserved": "",
      "salt": "0x8bfb9db31d7fb65de43aa76045e9b88588de4ecfc8ea1e72c4d3df8509f84106",
      "assetIds": []
    },
    {
      "x": 312,
      "y": 254,
      "size": 1,
      "price": "1011000000000000000000",
      "reserved": "",
      "salt": "0x58d3c677e9ded42b2ec4145f460c367acffa001b57973712261a85795cb2958f",
      "assetIds": []
    },
    {
      "x": 312,
      "y": 258,
      "size": 1,
      "price": "1011000000000000000000",
      "reserved": "",
      "salt": "0x7b142f0cc4c5e73cbdf94ed27964319aed9b69e8abeaaed8ac4f34712c9e8eef",
      "assetIds": []
    },
    {
      "x": 312,
      "y": 259,
      "size": 1,
      "price": "1011000000000000000000",
      "reserved": "",
      "salt": "0xc073547c5b463c90c1dccb2cb3dfd538b73c6bf29d1c23a1cf0f8f6a0f55131c",
      "assetIds": []
    },
    {
      "x": 312,
      "y": 260,
      "size": 1,
      "price": "1011000000000000000000",
      "reserved": "",
      "salt": "0x7820a218fc020dcf9295678b881b6bdc469f62fab62627a0f8bf6e71e5694383",
      "assetIds": []
    },
    {
      "x": 312,
      "y": 261,
      "size": 1,
      "price": "1011000000000000000000",
      "reserved": "0x7a9fe22691c811ea339d9b73150e6911a5343dca",
      "salt": "0x420407106b16b3dc0eaed0f45aa804d9c5a6d8af025ac85b8b33ce3c005b923f",
      "assetIds": []
    },
    {
      "x": 312,
      "y": 262,
      "size": 1,
      "price": "1011000000000000000000",
      "reserved": "",
      "salt": "0xb675a434b9dea6ba4e652d746fe0f5b94c95670cc0701fc7894279b015842103",
      "assetIds": []
    },
    {
      "x": 312,
      "y": 263,
      "size": 1,
      "price": "1011000000000000000000",
      "reserved": "",
      "salt": "0xde97cdce0fb145bea0a2bdcb0c7f94e5e35d4ce77dc8147aaeb4b08b04407704",
      "assetIds": []
    },
    {
      "x": 312,
      "y": 264,
      "size": 1,
      "price": "1011000000000000000000",
      "reserved": "0x7a9fe22691c811ea339d9b73150e6911a5343dca",
      "salt": "0x7929edf0775a6d392e1a5fee6482382f0345bb6045052c1127c57b98c1c91ae8",
      "assetIds": []
    },
    {
      "x": 312,
      "y": 265,
      "size": 1,
      "price": "1011000000000000000000",
      "reserved": "",
      "salt": "0x3c66e56af34c9c40e93ae934a7fec1681aadbb7e710df7c80a470903a44313ce",
      "assetIds": []
    },
    {
      "x": 312,
      "y": 266,
      "size": 1,
      "price": "1011000000000000000000",
      "reserved": "",
      "salt": "0x9149914b616c3724fae68a374487ff521b0f0cd5f70af29adb0b9055d5137ad2",
      "assetIds": []
    },
    {
      "x": 312,
      "y": 267,
      "size": 1,
      "price": "1011000000000000000000",
      "reserved": "",
      "salt": "0x41c762b9b41aeeffc2f5a166f0968d29c70d4cf00b00c9ca088ba1fe0a7088f7",
      "assetIds": []
    },
    {
      "x": 312,
      "y": 268,
      "size": 1,
      "price": "1011000000000000000000",
      "reserved": "",
      "salt": "0xc15bb7cd7f6c5d3f7fd4163da1cc9214cc224f61ffebde813aa93c19da8e339d",
      "assetIds": []
    },
    {
      "x": 312,
      "y": 269,
      "size": 1,
      "price": "1011000000000000000000",
      "reserved": "",
      "salt": "0x6301bd2e3d3b3be63131e960c3446a79c3b09c1cea8a308c1092fd108de49616",
      "assetIds": []
    },
    {
      "x": 312,
      "y": 273,
      "size": 1,
      "price": "1011000000000000000000",
      "reserved": "",
      "salt": "0x5a473d6afa83b47a46ed763c6f7f587b76975c327fe752ef5a0c552f3f386cf0",
      "assetIds": []
    },
    {
      "x": 312,
      "y": 274,
      "size": 1,
      "price": "1011000000000000000000",
      "reserved": "",
      "salt": "0x448eb80f5e6b13299e5dbb2a956958a979cbe38220e82c13a0bcb125dbfbb870",
      "assetIds": []
    },
    {
      "x": 312,
      "y": 275,
      "size": 1,
      "price": "1011000000000000000000",
      "reserved": "",
      "salt": "0x90679760f2fd588947772c538166f539045cf19112d8ca6a4197912cd3325ac9",
      "assetIds": []
    },
    {
      "x": 313,
      "y": 237,
      "size": 1,
      "price": "1011000000000000000000",
      "reserved": "",
      "salt": "0x70c80750f4474c347beb68c510bdb7bfdec239a693492a965316f3450a0d2e66",
      "assetIds": []
    },
    {
      "x": 313,
      "y": 238,
      "size": 1,
      "price": "1011000000000000000000",
      "reserved": "",
      "salt": "0x0d63eeb2fa2bc898c088a152b63ee4b0229251e1e21cb9f55a568179189be581",
      "assetIds": []
    },
    {
      "x": 313,
      "y": 239,
      "size": 1,
      "price": "1011000000000000000000",
      "reserved": "",
      "salt": "0xfdf86edba28651b8874d37193a0e00cfe40bfacbdafd2dc274b25f7f0d0605c7",
      "assetIds": []
    },
    {
      "x": 313,
      "y": 240,
      "size": 1,
      "price": "1011000000000000000000",
      "reserved": "",
      "salt": "0xf93dbacfe12b4d231f342f75d204e60c417a1289554184fe0d7b40c1bc1f37c6",
      "assetIds": []
    },
    {
      "x": 313,
      "y": 241,
      "size": 1,
      "price": "1011000000000000000000",
      "reserved": "",
      "salt": "0xd84bcbc376cb6b9757766fc8f68ea690d6fdb859a1b56fc3e474d0d49bc0de1d",
      "assetIds": []
    },
    {
      "x": 313,
      "y": 242,
      "size": 1,
      "price": "1011000000000000000000",
      "reserved": "",
      "salt": "0xae71f5c5aa30f93ed495dea992943ee5bfaa47f507801e04391e94145b6bd34a",
      "assetIds": []
    },
    {
      "x": 313,
      "y": 246,
      "size": 1,
      "price": "1011000000000000000000",
      "reserved": "",
      "salt": "0x943722eb7f2e7ea04da1f3c6f996006520e9158852e80197ff9f5006f62a6f6b",
      "assetIds": []
    },
    {
      "x": 313,
      "y": 247,
      "size": 1,
      "price": "1011000000000000000000",
      "reserved": "",
      "salt": "0xacc1e65ad56d94a27d163c4bd5d2c60e35d4ef86891a7b6d64a0f202e26e5195",
      "assetIds": []
    },
    {
      "x": 313,
      "y": 248,
      "size": 1,
      "price": "1011000000000000000000",
      "reserved": "",
      "salt": "0xc3ac87bffe79285724d136a4f065767203918cd154966310258d21740ca9ecf4",
      "assetIds": []
    },
    {
      "x": 313,
      "y": 252,
      "size": 1,
      "price": "1011000000000000000000",
      "reserved": "",
      "salt": "0x770408fa32eaa4a80b0e64b480cba73d088e2f3ede361abf39127173c086740a",
      "assetIds": []
    },
    {
      "x": 313,
      "y": 253,
      "size": 1,
      "price": "1011000000000000000000",
      "reserved": "",
      "salt": "0x5af496ab02095cfe5af4380099f90b2152e73c79a2bea52783d7c09bd0669184",
      "assetIds": []
    },
    {
      "x": 313,
      "y": 254,
      "size": 1,
      "price": "1011000000000000000000",
      "reserved": "",
      "salt": "0x482837f738bfea3f8acb8226cd61b10ac9fd84e9bd845823b1e1bb75a336fa36",
      "assetIds": []
    },
    {
      "x": 313,
      "y": 258,
      "size": 1,
      "price": "1011000000000000000000",
      "reserved": "",
      "salt": "0x2a52a70b968141b5f601cfc9fb44defebf50a6923f90dd53574110535f5190d2",
      "assetIds": []
    },
    {
      "x": 313,
      "y": 259,
      "size": 1,
      "price": "1011000000000000000000",
      "reserved": "",
      "salt": "0xe025daf052502ccce71167f0045ec3c36bc495921c4d655e00ddd37850b1cf42",
      "assetIds": []
    },
    {
      "x": 313,
      "y": 260,
      "size": 1,
      "price": "1011000000000000000000",
      "reserved": "",
      "salt": "0x9749ad081caca2f6c9cacdd014b6dcd648b65ec44538fa73fd351ffb3c93fd45",
      "assetIds": []
    },
    {
      "x": 313,
      "y": 261,
      "size": 1,
      "price": "1011000000000000000000",
      "reserved": "",
      "salt": "0x7d06c821d85da853de890ae33361f8853e8d187587f5b6753789b9e8f3198c4c",
      "assetIds": []
    },
    {
      "x": 313,
      "y": 262,
      "size": 1,
      "price": "1011000000000000000000",
      "reserved": "",
      "salt": "0x6b9e72ebb4e97e54ea63ce007e3d39526bce8add16a100783022b00153889047",
      "assetIds": []
    },
    {
      "x": 313,
      "y": 263,
      "size": 1,
      "price": "1011000000000000000000",
      "reserved": "",
      "salt": "0x90ff3d2c27f302ef33126d1c9f18366c7bc6bb568dcfdb920a86f48b1f86fd69",
      "assetIds": []
    },
    {
      "x": 313,
      "y": 264,
      "size": 1,
      "price": "1011000000000000000000",
      "reserved": "",
      "salt": "0x30d4fb8f638c75b13bdb7beeb5eb1266d022dc09bf9ae3d98b20a2eba5a449db",
      "assetIds": []
    },
    {
      "x": 313,
      "y": 265,
      "size": 1,
      "price": "1011000000000000000000",
      "reserved": "",
      "salt": "0x772b551796052cd902dbe743e19d72c55f7ee28502a4338e88a28e856ed574b9",
      "assetIds": []
    },
    {
      "x": 313,
      "y": 266,
      "size": 1,
      "price": "1011000000000000000000",
      "reserved": "",
      "salt": "0xac466aa32f2c04d7284a3fc375cc74d11d26d4304f54be65bb5526cb34a2fcbd",
      "assetIds": []
    },
    {
      "x": 313,
      "y": 267,
      "size": 1,
      "price": "1011000000000000000000",
      "reserved": "",
      "salt": "0x5fc98b5e42eea30807e88c1febf7cc3a31637b9acc49fc648cd4284d2a25d424",
      "assetIds": []
    },
    {
      "x": 313,
      "y": 268,
      "size": 1,
      "price": "1011000000000000000000",
      "reserved": "",
      "salt": "0xcfdcd8ab11df660a1bfbd6727da7d936b7250696ffa3fc2e76bc5c60075b3509",
      "assetIds": []
    },
    {
      "x": 313,
      "y": 269,
      "size": 1,
      "price": "1011000000000000000000",
      "reserved": "",
      "salt": "0xb4db78819f83ca4228b26eab2b478b34de737bcdf4c202375202be87aedd433a",
      "assetIds": []
    },
    {
      "x": 313,
      "y": 273,
      "size": 1,
      "price": "1011000000000000000000",
      "reserved": "",
      "salt": "0x2e4deea710e2c974cbfba6e078684ab62d4ae8d9cf3dab58ea852bbd5b477454",
      "assetIds": []
    },
    {
      "x": 313,
      "y": 274,
      "size": 1,
      "price": "1011000000000000000000",
      "reserved": "",
      "salt": "0x029652ecac26454469dd414e0fe4d8592c074c00f7ccba250f3377ada4694719",
      "assetIds": []
    },
    {
      "x": 313,
      "y": 275,
      "size": 1,
      "price": "1011000000000000000000",
      "reserved": "",
      "salt": "0xb458a257367360b71fec6c24a0201c28caef35f71ff96d84ba98f06a4ab2eb4f",
      "assetIds": []
    },
    {
      "x": 314,
      "y": 237,
      "size": 1,
      "price": "1011000000000000000000",
      "reserved": "",
      "salt": "0xbfdc3c0525259939e1dbd294bc6d6a4e629e9646eb897a081e3cd431fd7f48a6",
      "assetIds": []
    },
    {
      "x": 314,
      "y": 238,
      "size": 1,
      "price": "1011000000000000000000",
      "reserved": "",
      "salt": "0x718b3d8d76b317ee7fcae2597619066fc215efab76c0013ba9913e74205a238d",
      "assetIds": []
    },
    {
      "x": 314,
      "y": 239,
      "size": 1,
      "price": "1011000000000000000000",
      "reserved": "",
      "salt": "0xdc5d6698409f5958762de4526f87460fa7d5dc0a51330ab9baa0ee202cf7d56d",
      "assetIds": []
    },
    {
      "x": 314,
      "y": 240,
      "size": 1,
      "price": "1011000000000000000000",
      "reserved": "",
      "salt": "0x735d7050364819e6c9aeeba04b77da4db08499bec30219569e26f78a66764dce",
      "assetIds": []
    },
    {
      "x": 314,
      "y": 241,
      "size": 1,
      "price": "1011000000000000000000",
      "reserved": "",
      "salt": "0xee1ea5fe7d6b4d74f74c081025e42c87f84511603ed9b1bac76584e5f44cc421",
      "assetIds": []
    },
    {
      "x": 314,
      "y": 242,
      "size": 1,
      "price": "1011000000000000000000",
      "reserved": "",
      "salt": "0x355290ad63ffed6beec71d12c66a416056978c5596b344a15d5a58833c8b9749",
      "assetIds": []
    },
    {
      "x": 314,
      "y": 246,
      "size": 1,
      "price": "1011000000000000000000",
      "reserved": "",
      "salt": "0x2f9ac889b61ce17165bf386455abeeca9ddf1f3c4fe8247715c37b4e7f833703",
      "assetIds": []
    },
    {
      "x": 314,
      "y": 247,
      "size": 1,
      "price": "1011000000000000000000",
      "reserved": "",
      "salt": "0x492b6a3b57a7319ac48911abf07437ed29999e13a0823dd9048d931543d3f2bb",
      "assetIds": []
    },
    {
      "x": 314,
      "y": 248,
      "size": 1,
      "price": "1011000000000000000000",
      "reserved": "",
      "salt": "0xa08d4b849d278118dbdf2de87a4cfe02b059ff6c28d23a92c7e466540a6b3175",
      "assetIds": []
    },
    {
      "x": 314,
      "y": 252,
      "size": 1,
      "price": "1011000000000000000000",
      "reserved": "",
      "salt": "0xab423c0d394432b71a6aa0e75a5da9a324cc5a21ac105189a8019c099b0f53f5",
      "assetIds": []
    },
    {
      "x": 314,
      "y": 253,
      "size": 1,
      "price": "1011000000000000000000",
      "reserved": "",
      "salt": "0xae2f646f4fee36218d6687cb2934c0c8af53fea83e2f1ca947ff9cfd11d87b37",
      "assetIds": []
    },
    {
      "x": 314,
      "y": 254,
      "size": 1,
      "price": "1011000000000000000000",
      "reserved": "0x7a9fe22691c811ea339d9b73150e6911a5343dca",
      "salt": "0xd31eaa42fb8c595de0654c76fe3b0f80692df48ca59541d5df84ad21fc7a9cc1",
      "assetIds": []
    },
    {
      "x": 314,
      "y": 258,
      "size": 1,
      "price": "1011000000000000000000",
      "reserved": "",
      "salt": "0x51b6469bb2e02fc5a96a4eaf6340ba831dec62d7517c1557d6ca9a697d649bbc",
      "assetIds": []
    },
    {
      "x": 314,
      "y": 259,
      "size": 1,
      "price": "1011000000000000000000",
      "reserved": "",
      "salt": "0xc7111666e9f912dee0672d36309bdd7fdc2419b16012e532041d32964686ec32",
      "assetIds": []
    },
    {
      "x": 314,
      "y": 260,
      "size": 1,
      "price": "1011000000000000000000",
      "reserved": "",
      "salt": "0x1103730eca46dd3700b2aa30441274e0390aeb3cb28ee716808fb090a5498194",
      "assetIds": []
    },
    {
      "x": 314,
      "y": 261,
      "size": 1,
      "price": "1011000000000000000000",
      "reserved": "",
      "salt": "0x38740cd1ad83cfb77f2cd7d97dc6a782d779e99f390d359acf7e8f8ca3da11c4",
      "assetIds": []
    },
    {
      "x": 314,
      "y": 262,
      "size": 1,
      "price": "1011000000000000000000",
      "reserved": "",
      "salt": "0x3e2eb94ff6d1b0f38a6f94307e0b1b079213e3a648baf4a92d8928b5dc99882d",
      "assetIds": []
    },
    {
      "x": 314,
      "y": 263,
      "size": 1,
      "price": "1011000000000000000000",
      "reserved": "",
      "salt": "0xf3416c40fb46e98c5d53a1f873de285054a7e6bc2de3960609cc62eaa0e64e4a",
      "assetIds": []
    },
    {
      "x": 314,
      "y": 264,
      "size": 1,
      "price": "1011000000000000000000",
      "reserved": "",
      "salt": "0x9a5aed17adeea9adb2f58e807ba9136c70aebccb67cf68312d95c1221dca0ed5",
      "assetIds": []
    },
    {
      "x": 314,
      "y": 265,
      "size": 1,
      "price": "1011000000000000000000",
      "reserved": "",
      "salt": "0x9142cce5746f073c4a541a4b7d0ce758cbec3da794004d4244ce05eb2e374733",
      "assetIds": []
    },
    {
      "x": 314,
      "y": 266,
      "size": 1,
      "price": "1011000000000000000000",
      "reserved": "",
      "salt": "0x77dbd8782f4c31bb3b0fabb5910bee128949da9a35a5fc9fced49d4262fc951b",
      "assetIds": []
    },
    {
      "x": 314,
      "y": 267,
      "size": 1,
      "price": "1011000000000000000000",
      "reserved": "",
      "salt": "0xdf73067c1795c6190e47beed1fdcf2f2c7bf8a4b19b100783fd1b1f71f2322fe",
      "assetIds": []
    },
    {
      "x": 314,
      "y": 268,
      "size": 1,
      "price": "1011000000000000000000",
      "reserved": "",
      "salt": "0xf31fa53529d49437a3c3e5df69835def1bf3bf78003f9fec48e4ff86c670f146",
      "assetIds": []
    },
    {
      "x": 314,
      "y": 269,
      "size": 1,
      "price": "1011000000000000000000",
      "reserved": "0x7a9fe22691c811ea339d9b73150e6911a5343dca",
      "salt": "0x87095e36994bc054d4099892bb3cf78e99eabc7929c4be77d6aeab2894094e27",
      "assetIds": []
    },
    {
      "x": 314,
      "y": 273,
      "size": 1,
      "price": "1011000000000000000000",
      "reserved": "",
      "salt": "0x3c6357e7746855e37375d6a3f81d76e3043804bacbfdf5038a7955325fe03b1b",
      "assetIds": []
    },
    {
      "x": 314,
      "y": 274,
      "size": 1,
      "price": "1011000000000000000000",
      "reserved": "",
      "salt": "0x518569cc5fef0570b7db25624ea9a98a3b2abfd85fefccc8bd8f2dbe65498dab",
      "assetIds": []
    },
    {
      "x": 314,
      "y": 275,
      "size": 1,
      "price": "1011000000000000000000",
      "reserved": "",
      "salt": "0x4a5f34460d2d92e0e672dc20cccff27b9c9b1ae621aac4991b961af2447f5bb5",
      "assetIds": []
    },
    {
      "x": 315,
      "y": 237,
      "size": 1,
      "price": "1011000000000000000000",
      "reserved": "",
      "salt": "0xa3e357f87ab9730b1e2a348e490fcbaec9a3402b5367673b22b62001e2ee0ab7",
      "assetIds": []
    },
    {
      "x": 315,
      "y": 238,
      "size": 1,
      "price": "1011000000000000000000",
      "reserved": "",
      "salt": "0xee061c9a00c3b978896b4fc63317583a5401744ddc35696d2bbd6633f6bd0480",
      "assetIds": []
    },
    {
      "x": 315,
      "y": 239,
      "size": 1,
      "price": "1011000000000000000000",
      "reserved": "",
      "salt": "0xc74f4ff0d4671fc945e95ef05f7240eaed67c0af378d07e46af6f62b3a8496b7",
      "assetIds": []
    },
    {
      "x": 315,
      "y": 240,
      "size": 1,
      "price": "1011000000000000000000",
      "reserved": "",
      "salt": "0xb77218beb270776c9a259623b876fbace403a69d8b741190951916b855f4504c",
      "assetIds": []
    },
    {
      "x": 315,
      "y": 241,
      "size": 1,
      "price": "1011000000000000000000",
      "reserved": "",
      "salt": "0xaf7ccef5f658cb9161519e42c63799a215ac0f00708a8826c610965c9347c09b",
      "assetIds": []
    },
    {
      "x": 315,
      "y": 242,
      "size": 1,
      "price": "1011000000000000000000",
      "reserved": "",
      "salt": "0x870684f2d48b0dc60c4ed685284f52bb91bfbc01f4981f0e8871d40a0b15003f",
      "assetIds": []
    },
    {
      "x": 315,
      "y": 243,
      "size": 1,
      "price": "1011000000000000000000",
      "reserved": "",
      "salt": "0x8884647ad2c197746b960bbfa51a58c0fc5769264bcbe607744dd10b989c8127",
      "assetIds": []
    },
    {
      "x": 315,
      "y": 244,
      "size": 1,
      "price": "1011000000000000000000",
      "reserved": "",
      "salt": "0x366fed6be9982389166160644a6463c9c69c55b26a429f7f5e039e98325e2b80",
      "assetIds": []
    },
    {
      "x": 315,
      "y": 245,
      "size": 1,
      "price": "1011000000000000000000",
      "reserved": "",
      "salt": "0x87b671fe9ada022867a7ea76fd3c68b0efffd946260ba4c77261d22766c1f895",
      "assetIds": []
    },
    {
      "x": 315,
      "y": 246,
      "size": 1,
      "price": "1011000000000000000000",
      "reserved": "",
      "salt": "0x24ccbca5e02aebd758fef06373ef2dd7731e80af6c320046b9744113b3b1c3eb",
      "assetIds": []
    },
    {
      "x": 315,
      "y": 247,
      "size": 1,
      "price": "1011000000000000000000",
      "reserved": "0x7a9fe22691c811ea339d9b73150e6911a5343dca",
      "salt": "0x3b0bdfcd40f2dc9fc15ce2e31db80e559290b6eb9268b5f4d9532179655264cb",
      "assetIds": []
    },
    {
      "x": 315,
      "y": 248,
      "size": 1,
      "price": "1011000000000000000000",
      "reserved": "",
      "salt": "0x3296845426c044d4eecd715824fcf04755fbae3ac93be569f0653b501c118701",
      "assetIds": []
    },
    {
      "x": 315,
      "y": 249,
      "size": 1,
      "price": "1011000000000000000000",
      "reserved": "",
      "salt": "0x6ebee1c59c7cc9cca44925d56b98f695127a8d7063ffc701fc8148260b0de876",
      "assetIds": []
    },
    {
      "x": 315,
      "y": 250,
      "size": 1,
      "price": "1011000000000000000000",
      "reserved": "",
      "salt": "0x2a86fd3f4cba7a056aa257ac5fff3da0f25fa91c62a8b18d873e264379073b15",
      "assetIds": []
    },
    {
      "x": 315,
      "y": 251,
      "size": 1,
      "price": "1011000000000000000000",
      "reserved": "",
      "salt": "0x71ef33f3937583f90620edeb5bc73d5d5b15bea67b83945ff2dc43d8d9484bdb",
      "assetIds": []
    },
    {
      "x": 315,
      "y": 255,
      "size": 1,
      "price": "1011000000000000000000",
      "reserved": "",
      "salt": "0x4f9eff1644a883aa3debdd00a1dc61073a28fcfb8fe47376ba347308acff585f",
      "assetIds": []
    },
    {
      "x": 315,
      "y": 256,
      "size": 1,
      "price": "1011000000000000000000",
      "reserved": "",
      "salt": "0x085d314178d7d61b4488523c7ebb801a975cfb350d5989494021071a0af6f94f",
      "assetIds": []
    },
    {
      "x": 315,
      "y": 257,
      "size": 1,
      "price": "1011000000000000000000",
      "reserved": "",
      "salt": "0x16fd21972eee3840c4ea69f38574448767c21a7f2acbee1dd494ed4da44fde26",
      "assetIds": []
    },
    {
      "x": 315,
      "y": 258,
      "size": 1,
      "price": "1011000000000000000000",
      "reserved": "",
      "salt": "0x943964f725bcbeae9eab61778b977d982481d78a55f459342fbb7e0f5fbe3fca",
      "assetIds": []
    },
    {
      "x": 315,
      "y": 259,
      "size": 1,
      "price": "1011000000000000000000",
      "reserved": "",
      "salt": "0x042c59161aa4372d4800f972a431e0d2c5d8ab2c0717055e070495fd0bacea8e",
      "assetIds": []
    },
    {
      "x": 315,
      "y": 260,
      "size": 1,
      "price": "1011000000000000000000",
      "reserved": "",
      "salt": "0x8734530f1c853f51dafb37e36f8170067cf75ce24a57769dc1dfb43151405bd5",
      "assetIds": []
    },
    {
      "x": 315,
      "y": 261,
      "size": 1,
      "price": "1011000000000000000000",
      "reserved": "",
      "salt": "0xd30e70ff2bb15e00a034f144cdadb69a800e278e5f5606ff2211119000399861",
      "assetIds": []
    },
    {
      "x": 315,
      "y": 262,
      "size": 1,
      "price": "1011000000000000000000",
      "reserved": "",
      "salt": "0x719957b8812baaf4d99056ef9818a8c9457d0882b19a9cd7435d0733e0694954",
      "assetIds": []
    },
    {
      "x": 315,
      "y": 263,
      "size": 1,
      "price": "1011000000000000000000",
      "reserved": "",
      "salt": "0xa982946ab8d4fdee5046df4f4601ace229511832f88f1993c5c442c60303536b",
      "assetIds": []
    },
    {
      "x": 315,
      "y": 264,
      "size": 1,
      "price": "1011000000000000000000",
      "reserved": "",
      "salt": "0x5a585638ee8e2757e87a30b5a2cc0f91dbe209c4846d368f38e4e41e1a1998d9",
      "assetIds": []
    },
    {
      "x": 315,
      "y": 265,
      "size": 1,
      "price": "1011000000000000000000",
      "reserved": "",
      "salt": "0x9e72ecbdf2c70e026fa85037f027e66f3430fae153fb1838dce331916abb86d3",
      "assetIds": []
    },
    {
      "x": 315,
      "y": 266,
      "size": 1,
      "price": "1011000000000000000000",
      "reserved": "",
      "salt": "0xcbcc1837eb4463c0a57ddc714a99c20141125c07c2cc09e307326fa770657f5d",
      "assetIds": []
    },
    {
      "x": 315,
      "y": 270,
      "size": 1,
      "price": "1011000000000000000000",
      "reserved": "",
      "salt": "0xe7e454e0e8cd90acc22bcbdbb5583b66aedc86f8ebe3913c7336918dc0e652aa",
      "assetIds": []
    },
    {
      "x": 315,
      "y": 271,
      "size": 1,
      "price": "1011000000000000000000",
      "reserved": "",
      "salt": "0x59f1d944878b03f8a98e56276ac95cad716d470fbf9850356d10556a8efa6f8d",
      "assetIds": []
    },
    {
      "x": 315,
      "y": 272,
      "size": 1,
      "price": "1011000000000000000000",
      "reserved": "",
      "salt": "0x51a0b67d486e479a561dafc76b635ec1f8ba7c9c334d718186cebbc351b51874",
      "assetIds": []
    },
    {
      "x": 316,
      "y": 237,
      "size": 1,
      "price": "1011000000000000000000",
      "reserved": "",
      "salt": "0xf0ea1d78b786b2fbe5f3490226e510d29573426f4785d531f15d586da73bf496",
      "assetIds": []
    },
    {
      "x": 316,
      "y": 238,
      "size": 1,
      "price": "1011000000000000000000",
      "reserved": "",
      "salt": "0xa88966c635dd61eaae1e42ec9320807d9263d8cdb88155fc5b712265e61195dc",
      "assetIds": []
    },
    {
      "x": 316,
      "y": 239,
      "size": 1,
      "price": "1011000000000000000000",
      "reserved": "",
      "salt": "0x8b25da154bd26260895b9505997d2e86a07f796ccb317fe99e4cccb8b78dd35b",
      "assetIds": []
    },
    {
      "x": 316,
      "y": 240,
      "size": 1,
      "price": "1011000000000000000000",
      "reserved": "",
      "salt": "0xbf3e57186847e1364e7d96dbff356cf1f792b4d4026f0345795b3f13787a5060",
      "assetIds": []
    },
    {
      "x": 316,
      "y": 241,
      "size": 1,
      "price": "1011000000000000000000",
      "reserved": "",
      "salt": "0xd3f447f73c8f624b43348b71f6511496aa1b4788fe4c47d616e0b0ea89bb4c19",
      "assetIds": []
    },
    {
      "x": 316,
      "y": 242,
      "size": 1,
      "price": "1011000000000000000000",
      "reserved": "",
      "salt": "0x227f011910e6c7773aadb76685dba33501ab4c5b54a0d2dbf78968fd82e66442",
      "assetIds": []
    },
    {
      "x": 316,
      "y": 243,
      "size": 1,
      "price": "1011000000000000000000",
      "reserved": "",
      "salt": "0xea8694295da5f10adb6679a33c50b1a05e0aed03c93f47f79fa41619fb287240",
      "assetIds": []
    },
    {
      "x": 316,
      "y": 244,
      "size": 1,
      "price": "1011000000000000000000",
      "reserved": "",
      "salt": "0x9917013c1aedbbd91653ea988ea2040fd553a265978dd89697f4570f87af4b74",
      "assetIds": []
    },
    {
      "x": 316,
      "y": 245,
      "size": 1,
      "price": "1011000000000000000000",
      "reserved": "0x7a9fe22691c811ea339d9b73150e6911a5343dca",
      "salt": "0xab40a13e54332c1d0bed09eb818af7b5a0710ffa97e3a8fecc643a487e7845c6",
      "assetIds": []
    },
    {
      "x": 316,
      "y": 246,
      "size": 1,
      "price": "1011000000000000000000",
      "reserved": "",
      "salt": "0x4cb742a5d5cc9b34b313745ddc68bc48ca3e035b99d6a38c4fce26392e8349dc",
      "assetIds": []
    },
    {
      "x": 316,
      "y": 247,
      "size": 1,
      "price": "1011000000000000000000",
      "reserved": "",
      "salt": "0xc65ec670c254fa2117391daab91c648e1d0d79cc192e8d83bf29c9ec5323fe62",
      "assetIds": []
    },
    {
      "x": 316,
      "y": 248,
      "size": 1,
      "price": "1011000000000000000000",
      "reserved": "",
      "salt": "0x149d85e35c608b35b369e3c11e7e7adb835204f1677ad0983f5a08594ea846f4",
      "assetIds": []
    },
    {
      "x": 316,
      "y": 249,
      "size": 1,
      "price": "1011000000000000000000",
      "reserved": "",
      "salt": "0xe82160f5abe3ac637c4b31e3a06c2b2cc63cb369fd7669acd7512ac3c98a88e3",
      "assetIds": []
    },
    {
      "x": 316,
      "y": 250,
      "size": 1,
      "price": "1011000000000000000000",
      "reserved": "",
      "salt": "0xdd230bfc851e10f0d3ee18dd687cba140100711728bfb38047ff279f9927a2e1",
      "assetIds": []
    },
    {
      "x": 316,
      "y": 251,
      "size": 1,
      "price": "1011000000000000000000",
      "reserved": "",
      "salt": "0x65b07de333725571a23b0e69874cb1cc7414a0402b6ed4b09db82a2a88fafb71",
      "assetIds": []
    },
    {
      "x": 316,
      "y": 255,
      "size": 1,
      "price": "1011000000000000000000",
      "reserved": "",
      "salt": "0xf6f0a7b743b7d07cea8f02806b4e9575e164aff3fb34092e7c3c58d782d21ed8",
      "assetIds": []
    },
    {
      "x": 316,
      "y": 256,
      "size": 1,
      "price": "1011000000000000000000",
      "reserved": "",
      "salt": "0x49139b42d9500e53b0d78fe920cac1b84e3ae20ba5e0a7dc35f9b5bbeb9b7e9f",
      "assetIds": []
    },
    {
      "x": 316,
      "y": 257,
      "size": 1,
      "price": "1011000000000000000000",
      "reserved": "",
      "salt": "0x9c8bf97129a88b0051dbab3dc37c0bb59266f3fb682920d40536fc6a6c18a55a",
      "assetIds": []
    },
    {
      "x": 316,
      "y": 258,
      "size": 1,
      "price": "1011000000000000000000",
      "reserved": "",
      "salt": "0xf99127e69dddaf5846ec0c1624945f5888dacf679e270da7f850b1f54e312f7e",
      "assetIds": []
    },
    {
      "x": 316,
      "y": 259,
      "size": 1,
      "price": "1011000000000000000000",
      "reserved": "",
      "salt": "0x51c0fc03529648a7fda7182c478f5af26384b852f0fa5bfd08861e88cfc2e4b1",
      "assetIds": []
    },
    {
      "x": 316,
      "y": 260,
      "size": 1,
      "price": "1011000000000000000000",
      "reserved": "",
      "salt": "0x9986761216ab26e9c9d461f2e6b4d08748b38004a9a4ed0ffef485cc5b3821af",
      "assetIds": []
    },
    {
      "x": 316,
      "y": 261,
      "size": 1,
      "price": "1011000000000000000000",
      "reserved": "",
      "salt": "0x8f08400ff15c491b16ec3c8bfe22d10c17f1f0a6cad3e73b7744dece53110891",
      "assetIds": []
    },
    {
      "x": 316,
      "y": 262,
      "size": 1,
      "price": "1011000000000000000000",
      "reserved": "",
      "salt": "0x46fced8086c4da92516391680367fa5cedf6197f6b2e7ab30eb874f477622bb5",
      "assetIds": []
    },
    {
      "x": 316,
      "y": 263,
      "size": 1,
      "price": "1011000000000000000000",
      "reserved": "",
      "salt": "0x73b5791320a892cb1e73fc255b684b15437b866ef5cdb962b9e8acf7c0514f3d",
      "assetIds": []
    },
    {
      "x": 316,
      "y": 264,
      "size": 1,
      "price": "1011000000000000000000",
      "reserved": "",
      "salt": "0x111ee93361445ef5054022259a654fe7853e1b76823c9d93a38901982fe43cad",
      "assetIds": []
    },
    {
      "x": 316,
      "y": 265,
      "size": 1,
      "price": "1011000000000000000000",
      "reserved": "",
      "salt": "0x2f24a434050ec1812daf49f6e9fa6f0ce661f09c0c4f4e3c4ed3bc5d75dab5c7",
      "assetIds": []
    },
    {
      "x": 316,
      "y": 266,
      "size": 1,
      "price": "1011000000000000000000",
      "reserved": "",
      "salt": "0xb8ec193d2001491facc44c6f3e16fc6369e9733dfab7e42d132b887af9152833",
      "assetIds": []
    },
    {
      "x": 316,
      "y": 270,
      "size": 1,
      "price": "1011000000000000000000",
      "reserved": "",
      "salt": "0xa15a5e851babf6848ac18903f2248ac80dd4ba16a3809f464f1e2b7ee15dc5ea",
      "assetIds": []
    },
    {
      "x": 316,
      "y": 271,
      "size": 1,
      "price": "1011000000000000000000",
      "reserved": "",
      "salt": "0x9ecefd7d86aca60ec98c38684a044eb9723b5c5f49c44e0ce88de8863bcb0a6a",
      "assetIds": []
    },
    {
      "x": 316,
      "y": 272,
      "size": 1,
      "price": "1011000000000000000000",
      "reserved": "",
      "salt": "0x92fb97b66be026288a023205e8262812d1be473654e6d96ec7a078a75e656862",
      "assetIds": []
    },
    {
      "x": 317,
      "y": 237,
      "size": 1,
      "price": "1011000000000000000000",
      "reserved": "",
      "salt": "0xc60be1acadbf34adafdcc5eb2d152d77b51cc9f2a81ff981cc34a61046646e28",
      "assetIds": []
    },
    {
      "x": 317,
      "y": 238,
      "size": 1,
      "price": "1011000000000000000000",
      "reserved": "",
      "salt": "0x50b97c33ae264778bae82d5da9a134a33ebd4f8da7fccb1b61521ba909551ed5",
      "assetIds": []
    },
    {
      "x": 317,
      "y": 239,
      "size": 1,
      "price": "1011000000000000000000",
      "reserved": "",
      "salt": "0xd177de01d14f47c471526c8a847db78fcb34c3e37ed1a24b72daa129c417fda3",
      "assetIds": []
    },
    {
      "x": 317,
      "y": 240,
      "size": 1,
      "price": "1011000000000000000000",
      "reserved": "",
      "salt": "0xe04f50e044f685a3a087ccd68da7ea0f165292d276b571ebf6f69296db13e031",
      "assetIds": []
    },
    {
      "x": 317,
      "y": 241,
      "size": 1,
      "price": "1011000000000000000000",
      "reserved": "",
      "salt": "0x8c017e0c0bf1f8e69992d6f380aa32df7ef1c4328bec3349c44fd108a7f881ee",
      "assetIds": []
    },
    {
      "x": 317,
      "y": 242,
      "size": 1,
      "price": "1011000000000000000000",
      "reserved": "",
      "salt": "0x07e6437c00bab9223106509c235a1baf8bef38c0e3dd42be3a42171b7c156444",
      "assetIds": []
    },
    {
      "x": 317,
      "y": 243,
      "size": 1,
      "price": "1011000000000000000000",
      "reserved": "",
      "salt": "0xbb9ea511c27f1e6d44e958e1f3e6acffad7e2b9ad687c82af5c7e573090c238c",
      "assetIds": []
    },
    {
      "x": 317,
      "y": 244,
      "size": 1,
      "price": "1011000000000000000000",
      "reserved": "",
      "salt": "0x9db7d225a507b92cabcfdb711675121dad57eef8d1e0af00557b69a40d52de6f",
      "assetIds": []
    },
    {
      "x": 317,
      "y": 245,
      "size": 1,
      "price": "1011000000000000000000",
      "reserved": "",
      "salt": "0x3003fd928bfc8a125a515b198884438546fed97b346bdf5575511f53c897a030",
      "assetIds": []
    },
    {
      "x": 317,
      "y": 246,
      "size": 1,
      "price": "4683000000000000000000",
      "reserved": "",
      "salt": "0xbe43ff3ffd93bc6a20ad852b6afa333ba79965c3688475b5e0d9fd8f89c1fdcc",
      "assetIds": []
    },
    {
      "x": 317,
      "y": 247,
      "size": 1,
      "price": "4683000000000000000000",
      "reserved": "",
      "salt": "0x90447ec344b92b62542bd3bc85f4a1d028396ab680e8610db529bfa98e85d008",
      "assetIds": []
    },
    {
      "x": 317,
      "y": 248,
      "size": 1,
      "price": "4683000000000000000000",
      "reserved": "",
      "salt": "0xcb4e3008cf0a14f1243384ce331222ba2b43f0639ac2202527cf362ade05c84b",
      "assetIds": []
    },
    {
      "x": 317,
      "y": 249,
      "size": 1,
      "price": "4683000000000000000000",
      "reserved": "",
      "salt": "0x2a27a4acaf05187bdac246e6356f09c2945a84f1422919a3fdb93c881c72f665",
      "assetIds": []
    },
    {
      "x": 317,
      "y": 250,
      "size": 1,
      "price": "4683000000000000000000",
      "reserved": "",
      "salt": "0x1eb38baea65e8f7c68799b30f906dfd63630e1b89dda829791d71bff1995b5d7",
      "assetIds": []
    },
    {
      "x": 317,
      "y": 251,
      "size": 1,
      "price": "4683000000000000000000",
      "reserved": "",
      "salt": "0xe3581f76857b8d7a9342dbefb76e0e278dae051ceab63203fb8a7de10f52281e",
      "assetIds": []
    },
    {
      "x": 317,
      "y": 255,
      "size": 1,
      "price": "1011000000000000000000",
      "reserved": "",
      "salt": "0xdd2833b1fd4b90f94b3e7ca2c28fb80474a89f4b7276959cb21f4ec76eaf2994",
      "assetIds": []
    },
    {
      "x": 317,
      "y": 256,
      "size": 1,
      "price": "1011000000000000000000",
      "reserved": "",
      "salt": "0x3e3d5a609ae550e1d6d86a0ef3014b75faf36fc6ab35da5f416cbbf9db8b248d",
      "assetIds": []
    },
    {
      "x": 317,
      "y": 257,
      "size": 1,
      "price": "1011000000000000000000",
      "reserved": "0x7a9fe22691c811ea339d9b73150e6911a5343dca",
      "salt": "0xb00c5a7fb317b6bbd508f13bb01ddc24a229239a2df2811a2f2437b33db460b8",
      "assetIds": []
    },
    {
      "x": 317,
      "y": 258,
      "size": 1,
      "price": "4683000000000000000000",
      "reserved": "",
      "salt": "0x5c16fba11ec609dbf6c396c34733fb82b432229f94d2127fd2f5e2f3503a1a27",
      "assetIds": []
    },
    {
      "x": 317,
      "y": 259,
      "size": 1,
      "price": "4683000000000000000000",
      "reserved": "",
      "salt": "0xd6f0b19f057bcbbbe3ceabcabb5b75c8db0d182734ea2f9c90fb266f970115c5",
      "assetIds": []
    },
    {
      "x": 317,
      "y": 260,
      "size": 1,
      "price": "4683000000000000000000",
      "reserved": "",
      "salt": "0xf393864d1a14cfdf93ee617b9eed385c517d7653a54250ed722a8210afdb3b4b",
      "assetIds": []
    },
    {
      "x": 317,
      "y": 261,
      "size": 1,
      "price": "4683000000000000000000",
      "reserved": "",
      "salt": "0x46614f461a1c9a23b58831cbb49bf0a72299220b4c8583ce6a28296f73fa72dc",
      "assetIds": []
    },
    {
      "x": 317,
      "y": 262,
      "size": 1,
      "price": "4683000000000000000000",
      "reserved": "",
      "salt": "0x444c624e27a0fba5742d347f37c3dffa2851e5559e95d818ec5e1fb33a6f8b25",
      "assetIds": []
    },
    {
      "x": 317,
      "y": 263,
      "size": 1,
      "price": "4683000000000000000000",
      "reserved": "",
      "salt": "0x0970a724fd775074bce520b0bc75accb388dbb72bd6fe0b5661bb02c555bdb8f",
      "assetIds": []
    },
    {
      "x": 317,
      "y": 264,
      "size": 1,
      "price": "1011000000000000000000",
      "reserved": "",
      "salt": "0xdac4382a7be1f00dd919c96da330ce0996853d03eb04ea54ec8b42f1591f37ae",
      "assetIds": []
    },
    {
      "x": 317,
      "y": 265,
      "size": 1,
      "price": "1011000000000000000000",
      "reserved": "",
      "salt": "0xcbce30a93febee5f267955eb66911d8147c12ceac21dd8538cbc121a49753dfa",
      "assetIds": []
    },
    {
      "x": 317,
      "y": 266,
      "size": 1,
      "price": "1011000000000000000000",
      "reserved": "",
      "salt": "0x161b72dfdbee7ecece4f51a0e902df49c634eb47aa3bd2542ffb06a51fcb1c76",
      "assetIds": []
    },
    {
      "x": 317,
      "y": 270,
      "size": 1,
      "price": "1011000000000000000000",
      "reserved": "",
      "salt": "0xe5ba0f7236ef9988750196f7cecdd6f0535b4c5a21ff8607bed99153b4c9bd72",
      "assetIds": []
    },
    {
      "x": 317,
      "y": 271,
      "size": 1,
      "price": "1011000000000000000000",
      "reserved": "0x7a9fe22691c811ea339d9b73150e6911a5343dca",
      "salt": "0xe778f945a4ec9722a12d8d88b317d1b90d32b8420dadb9e9d619a2dbe70a3304",
      "assetIds": []
    },
    {
      "x": 317,
      "y": 272,
      "size": 1,
      "price": "1011000000000000000000",
      "reserved": "",
      "salt": "0xd4d944564ced36bcde6744c6faee83c1985da732e253509105d26f86b0d06774",
      "assetIds": []
    },
    {
      "x": 318,
      "y": 240,
      "size": 1,
      "price": "1011000000000000000000",
      "reserved": "",
      "salt": "0x02bfe38084943fb3effc9b00d27d60ad65683ec7a5cc6ae1ac6c38ba10b9f16e",
      "assetIds": []
    },
    {
      "x": 318,
      "y": 241,
      "size": 1,
      "price": "1011000000000000000000",
      "reserved": "",
      "salt": "0x221453c8836ef7a95d43366f4c7a87efc3f9b8674f784b52c91fc1c1f5cfdac5",
      "assetIds": []
    },
    {
      "x": 318,
      "y": 242,
      "size": 1,
      "price": "1011000000000000000000",
      "reserved": "",
      "salt": "0xdf7b6ec951516c522dc8ef761a7976f444f81bc0620aca825b7a6c26489f10ea",
      "assetIds": []
    },
    {
      "x": 318,
      "y": 243,
      "size": 1,
      "price": "1011000000000000000000",
      "reserved": "",
      "salt": "0x0bcff5de647b12f09c07f6becf0b0298c25b460086782d71a8f57e33b01d3fad",
      "assetIds": []
    },
    {
      "x": 318,
      "y": 244,
      "size": 1,
      "price": "1011000000000000000000",
      "reserved": "",
      "salt": "0x1d73f3d56b89624f850b14d4a38d1e6ad4a0ae44b2bf5061d9567e807ef9f1e1",
      "assetIds": []
    },
    {
      "x": 318,
      "y": 245,
      "size": 1,
      "price": "4683000000000000000000",
      "reserved": "",
      "salt": "0x6ad3dff104f85bcb8831f9ff9d7caa67a16d3a587d73e093958b88941a79ad01",
      "assetIds": []
    },
    {
      "x": 318,
      "y": 255,
      "size": 1,
      "price": "1011000000000000000000",
      "reserved": "",
      "salt": "0xe95460e8e77d5b881bcedc25caed023f1f4edffab60a349bca9a9d1a0f8ba5b4",
      "assetIds": []
    },
    {
      "x": 318,
      "y": 256,
      "size": 1,
      "price": "1011000000000000000000",
      "reserved": "",
      "salt": "0x60bfbe708f365385bfca253ff21d49cab88c15a47222fd8e6b9e257c6c47847a",
      "assetIds": []
    },
    {
      "x": 318,
      "y": 257,
      "size": 1,
      "price": "4683000000000000000000",
      "reserved": "",
      "salt": "0x606dc837861a94acbd73f47619a0bf41827fe1860a441b7904dd4a156a897ace",
      "assetIds": []
    },
    {
      "x": 318,
      "y": 264,
      "size": 1,
      "price": "4683000000000000000000",
      "reserved": "",
      "salt": "0xf6f5fe66b00c361fd1417073de2d8056cfcc6262827bd47e2df192ffd0ae8255",
      "assetIds": []
    },
    {
      "x": 318,
      "y": 265,
      "size": 1,
      "price": "1011000000000000000000",
      "reserved": "",
      "salt": "0xf01915c094b0ce8e165be37dee645356dce0c32efdd275f451a9f22a1b3817f3",
      "assetIds": []
    },
    {
      "x": 318,
      "y": 266,
      "size": 1,
      "price": "1011000000000000000000",
      "reserved": "",
      "salt": "0xe8faf7135575ea582a81b192fa834b9621fa894552c2ec7386084a70450a03ef",
      "assetIds": []
    },
    {
      "x": 319,
      "y": 240,
      "size": 1,
      "price": "1011000000000000000000",
      "reserved": "",
      "salt": "0x541d79f56875dc3b49753600d93bf9788fbeb72f447981de00570335214bc434",
      "assetIds": []
    },
    {
      "x": 319,
      "y": 241,
      "size": 1,
      "price": "1011000000000000000000",
      "reserved": "",
      "salt": "0x5c8d646ecc66c2eb8ad64bdfa8a0e039a01bf32bcfd9ae6994cd24a56f740b0d",
      "assetIds": []
    },
    {
      "x": 319,
      "y": 242,
      "size": 1,
      "price": "1011000000000000000000",
      "reserved": "",
      "salt": "0x4c2ec1d3e27661944ad268d026a226760ef45dc8fcb3328435cedf2484bb01fe",
      "assetIds": []
    },
    {
      "x": 319,
      "y": 243,
      "size": 1,
      "price": "1011000000000000000000",
      "reserved": "",
      "salt": "0x22e5b3136b12a80c60e82410c73be8d27cf6a8769ec1a5c1218527a36278e350",
      "assetIds": []
    },
    {
      "x": 319,
      "y": 244,
      "size": 1,
      "price": "1011000000000000000000",
      "reserved": "",
      "salt": "0x767e9a8b6f79e86fb54d15a1bdbf77a2bda00b996cae91d65a3a391ee2b81e95",
      "assetIds": []
    },
    {
      "x": 319,
      "y": 245,
      "size": 1,
      "price": "4683000000000000000000",
      "reserved": "",
      "salt": "0x1284fb280d84c31cbc99549e7c9b43dbc30dce20036508a8727f5b86d4be04dc",
      "assetIds": []
    },
    {
      "x": 319,
      "y": 255,
      "size": 1,
      "price": "1011000000000000000000",
      "reserved": "",
      "salt": "0x13965059ffb44af59a4f3113af6d8ee2d197315f04146cf59b59ced913bc8abd",
      "assetIds": []
    },
    {
      "x": 319,
      "y": 256,
      "size": 1,
      "price": "1011000000000000000000",
      "reserved": "",
      "salt": "0xde59e4352a425f592461c747ecd7a6a4fc370d4bdc43bb3c46480e231eb0bc36",
      "assetIds": []
    },
    {
      "x": 319,
      "y": 257,
      "size": 1,
      "price": "1011000000000000000000",
      "reserved": "",
      "salt": "0x18ae8a97bbf797a3ea027b0c858f4fea572ca5432283986de3c32b675b9eddb2",
      "assetIds": []
    },
    {
      "x": 319,
      "y": 264,
      "size": 1,
      "price": "1011000000000000000000",
      "reserved": "0x7a9fe22691c811ea339d9b73150e6911a5343dca",
      "salt": "0xf81050a2709204c2446061b090d46ef3fdc7570145053051efb186127a628ea4",
      "assetIds": []
    },
    {
      "x": 319,
      "y": 265,
      "size": 1,
      "price": "1011000000000000000000",
      "reserved": "",
      "salt": "0xb9b6bf86fc85b3f0df9a397ee4ea82ce3559f9b150674afea1bab589b2d5f8a5",
      "assetIds": []
    },
    {
      "x": 319,
      "y": 266,
      "size": 1,
      "price": "1011000000000000000000",
      "reserved": "",
      "salt": "0x4aa9b28d3bcd63a289884557217fa6c904347a37ba7935dd4ba4132a2a489360",
      "assetIds": []
    },
    {
      "x": 320,
      "y": 240,
      "size": 1,
      "price": "1011000000000000000000",
      "reserved": "0x7a9fe22691c811ea339d9b73150e6911a5343dca",
      "salt": "0x9a46ef97d01de5da32b8fcd704917038d0dbb4e2263ed9eff7e69766cd6083c1",
      "assetIds": []
    },
    {
      "x": 320,
      "y": 241,
      "size": 1,
      "price": "1011000000000000000000",
      "reserved": "",
      "salt": "0xa42cf2de02598598d3a1c33328b004f7b64c737472791b6b9493c1b414b13bad",
      "assetIds": []
    },
    {
      "x": 320,
      "y": 242,
      "size": 1,
      "price": "1011000000000000000000",
      "reserved": "",
      "salt": "0xa6639bc244618ceac246ba3be995dd288bd8186ec6af799b3798eb47bdb30d57",
      "assetIds": []
    },
    {
      "x": 320,
      "y": 243,
      "size": 1,
      "price": "1011000000000000000000",
      "reserved": "",
      "salt": "0x891963f5522e25842f07f14bc96488ad1dada769e9124c1740698a1c5913f256",
      "assetIds": []
    },
    {
      "x": 320,
      "y": 244,
      "size": 1,
      "price": "1011000000000000000000",
      "reserved": "",
      "salt": "0xaf763c7b1b76acbff3ad9092554d458bcbda05fc34e01ee735f4271739063e5e",
      "assetIds": []
    },
    {
      "x": 320,
      "y": 245,
      "size": 1,
      "price": "4683000000000000000000",
      "reserved": "",
      "salt": "0x374eff1d80852f2fae442260269165d0b3bb52264d49d0758938910cbcd71652",
      "assetIds": []
    },
    {
      "x": 320,
      "y": 255,
      "size": 1,
      "price": "1011000000000000000000",
      "reserved": "",
      "salt": "0xf9348e679187ae10cb64c168d35fb4da35f15e6905da793469c522cbd1b82e94",
      "assetIds": []
    },
    {
      "x": 320,
      "y": 256,
      "size": 1,
      "price": "1011000000000000000000",
      "reserved": "",
      "salt": "0x3716126c9e0ed1d5a9c1745198a08b8ceb638c557ab9d8235c1b815612be52ca",
      "assetIds": []
    },
    {
      "x": 320,
      "y": 257,
      "size": 1,
      "price": "4683000000000000000000",
      "reserved": "",
      "salt": "0xcf71630f93870d915daaceaacce16301ed1669ab5d8e17c0ccad393dae8e49f4",
      "assetIds": []
    },
    {
      "x": 320,
      "y": 264,
      "size": 1,
      "price": "4683000000000000000000",
      "reserved": "",
      "salt": "0xa18609ca9d8b696327c66a95dd2f8bf1266c523bd5d515e49c1bb12016268e77",
      "assetIds": []
    },
    {
      "x": 320,
      "y": 265,
      "size": 1,
      "price": "1011000000000000000000",
      "reserved": "",
      "salt": "0xcfe4962c74bdc07178eb5973e2c7ad03280cc8f4078ad80c0a174c5042a47928",
      "assetIds": []
    },
    {
      "x": 320,
      "y": 266,
      "size": 1,
      "price": "1011000000000000000000",
      "reserved": "",
      "salt": "0x54b85eff3c5a8c1200c4d0a381b11c2cf3cdc4d7c3bcca63f383fce387af2331",
      "assetIds": []
    },
    {
      "x": 321,
      "y": 243,
      "size": 1,
      "price": "1011000000000000000000",
      "reserved": "",
      "salt": "0xf8108927bcd6d24550945ae39f21d7f88d72c0d6d0b87f060a413bce94c4922d",
      "assetIds": []
    },
    {
      "x": 321,
      "y": 244,
      "size": 1,
      "price": "1011000000000000000000",
      "reserved": "",
      "salt": "0x9daba217ffcd8b7bd6bebc44bda58abc0203c1cab03feb132c048889a8de26ca",
      "assetIds": []
    },
    {
      "x": 321,
      "y": 245,
      "size": 1,
      "price": "1011000000000000000000",
      "reserved": "",
      "salt": "0xa2c846b16a9581fec7ccb4dac7c8e02e481bfd3fbfad419df3376f73ac9fd76d",
      "assetIds": []
    },
    {
      "x": 321,
      "y": 252,
      "size": 1,
      "price": "4683000000000000000000",
      "reserved": "",
      "salt": "0x8ae1ecd220d1d834d65319e01e9947192a5e509d3a208932f7b456665df00319",
      "assetIds": []
    },
    {
      "x": 321,
      "y": 253,
      "size": 1,
      "price": "1011000000000000000000",
      "reserved": "",
      "salt": "0xebef1987a1ac60f0573dc90b8d09a4d8d26cfa9e5ed0be3ee4033a0abf9a1688",
      "assetIds": []
    },
    {
      "x": 321,
      "y": 254,
      "size": 1,
      "price": "1011000000000000000000",
      "reserved": "",
      "salt": "0x3911183d59f37b94ae96e6d8a06c1e7e73b7d6ceb01444987cdd2ff30ec98b38",
      "assetIds": []
    },
    {
      "x": 321,
      "y": 264,
      "size": 1,
      "price": "4683000000000000000000",
      "reserved": "",
      "salt": "0x1c9ca97f5aa0891e134656f93fa3f26cc333520da8ddb2ebcb1e8a4c2b468550",
      "assetIds": []
    },
    {
      "x": 321,
      "y": 265,
      "size": 1,
      "price": "1011000000000000000000",
      "reserved": "",
      "salt": "0xf05b09e37562f62e6358a3f3c9a7f70a580be353b0c661deddbad511a13b91e5",
      "assetIds": []
    },
    {
      "x": 321,
      "y": 266,
      "size": 1,
      "price": "1011000000000000000000",
      "reserved": "",
      "salt": "0x652a6cd99470e9f24d040f743a4d228f26cb776c0d2f987bb964cf10bb5ee3c3",
      "assetIds": []
    },
    {
      "x": 321,
      "y": 267,
      "size": 1,
      "price": "1011000000000000000000",
      "reserved": "",
      "salt": "0x24c8950d2f80fe2756e06f9bcc47be101aa8d69a0beb52ef19a1d6d358b4be79",
      "assetIds": []
    },
    {
      "x": 321,
      "y": 268,
      "size": 1,
      "price": "1011000000000000000000",
      "reserved": "",
      "salt": "0x1693c59035bdc063a63cef834a5ab5ce17083ff7991ef645022784037b689b0a",
      "assetIds": []
    },
    {
      "x": 321,
      "y": 269,
      "size": 1,
      "price": "1011000000000000000000",
      "reserved": "",
      "salt": "0xed20c1f4ac5fd5b970ebbd0e0b4c60f743835fee0b55fd38826d0590f4a48000",
      "assetIds": []
    },
    {
      "x": 322,
      "y": 243,
      "size": 1,
      "price": "1011000000000000000000",
      "reserved": "",
      "salt": "0x86fb6a54fc64518a9a05f9036e9e0ce4e680022bbc1e312f3879e68d7fbf48f6",
      "assetIds": []
    },
    {
      "x": 322,
      "y": 244,
      "size": 1,
      "price": "1011000000000000000000",
      "reserved": "",
      "salt": "0x0d63596f66df34dcab0555a8636dabe46b1fd2c688ed0fc50131757f2eb8a72a",
      "assetIds": []
    },
    {
      "x": 322,
      "y": 245,
      "size": 1,
      "price": "4683000000000000000000",
      "reserved": "",
      "salt": "0x1af36198a9b0730a4350538fb9d16ec97587d185cf2fdb61475234aa8c36d846",
      "assetIds": []
    },
    {
      "x": 322,
      "y": 252,
      "size": 1,
      "price": "1011000000000000000000",
      "reserved": "0x7a9fe22691c811ea339d9b73150e6911a5343dca",
      "salt": "0x2b552dece447f63f133988322e39ef994d28c2efe8a03e06f43195268c0de4df",
      "assetIds": []
    },
    {
      "x": 322,
      "y": 253,
      "size": 1,
      "price": "1011000000000000000000",
      "reserved": "",
      "salt": "0xc88a209bf8a5e3038c992547cea62b57be0aca04e265cdc3a3dd9916cba92d31",
      "assetIds": []
    },
    {
      "x": 322,
      "y": 254,
      "size": 1,
      "price": "1011000000000000000000",
      "reserved": "",
      "salt": "0xf6a59592686c55292ecd2542129de453dd895427b34b97295f030c2cb71ac836",
      "assetIds": []
    },
    {
      "x": 322,
      "y": 264,
      "size": 1,
      "price": "4683000000000000000000",
      "reserved": "",
      "salt": "0x734fdf8b64cb366294592a20398b13c6981fc7996bfc1d718f4b27a2db99c0ce",
      "assetIds": []
    },
    {
      "x": 322,
      "y": 265,
      "size": 1,
      "price": "1011000000000000000000",
      "reserved": "",
      "salt": "0x9c5a9513b5fe69924239150fee854e0f9e19bdef7c427e3d9ae991030bc95ad5",
      "assetIds": []
    },
    {
      "x": 322,
      "y": 266,
      "size": 1,
      "price": "1011000000000000000000",
      "reserved": "",
      "salt": "0x36a972930993603d3c641fe528feab70a4b8acd385c10c7e8c82b6b73adea83b",
      "assetIds": []
    },
    {
      "x": 322,
      "y": 267,
      "size": 1,
      "price": "1011000000000000000000",
      "reserved": "",
      "salt": "0x8fca62495650c5fb774c8ec35b16cbdb0699e561793ff133e3bce2270c4f75c5",
      "assetIds": []
    },
    {
      "x": 322,
      "y": 268,
      "size": 1,
      "price": "1011000000000000000000",
      "reserved": "",
      "salt": "0x4fcc7311ae201dbd6b51799e7c66bc69b002842f4377e27cdce93e23572dfd8a",
      "assetIds": []
    },
    {
      "x": 322,
      "y": 269,
      "size": 1,
      "price": "1011000000000000000000",
      "reserved": "",
      "salt": "0x37676bb1a8fbcaadac892043fcc177259cea7700671cc7e8e65402181d147a69",
      "assetIds": []
    },
    {
      "x": 323,
      "y": 243,
      "size": 1,
      "price": "1011000000000000000000",
      "reserved": "",
      "salt": "0x28d37961d8fd27496d3431b2ce15b0bf2f86f9726745f76ab07dd766c5f76d89",
      "assetIds": []
    },
    {
      "x": 323,
      "y": 244,
      "size": 1,
      "price": "1011000000000000000000",
      "reserved": "",
      "salt": "0x825aeaa8d78b56528d1f00c37ad3ec492649b5cdec3a11f81d4ab221e5eac1b0",
      "assetIds": []
    },
    {
      "x": 323,
      "y": 245,
      "size": 1,
      "price": "4683000000000000000000",
      "reserved": "",
      "salt": "0xea9b02db7f3438ae64c4c688b390cb0ab066d33f6d815afa848c9133cc65193a",
      "assetIds": []
    },
    {
      "x": 323,
      "y": 252,
      "size": 1,
      "price": "4683000000000000000000",
      "reserved": "",
      "salt": "0xf9455a806113fd3d08ed3544d0a4e24676771db6ddada0b1fff7875fd0676444",
      "assetIds": []
    },
    {
      "x": 323,
      "y": 253,
      "size": 1,
      "price": "1011000000000000000000",
      "reserved": "",
      "salt": "0xeff97625410f908ddf2dd31b76b60fdd164062c5423e966990716197a0f6ec3d",
      "assetIds": []
    },
    {
      "x": 323,
      "y": 254,
      "size": 1,
      "price": "1011000000000000000000",
      "reserved": "",
      "salt": "0x5c8fcaa6c8ac308e658016ee7877f8e601a60a3b27a3424bdb29333b43475848",
      "assetIds": []
    },
    {
      "x": 323,
      "y": 264,
      "size": 1,
      "price": "4683000000000000000000",
      "reserved": "",
      "salt": "0x2ea5f8ebc6f4744820b76632ca7bb01e7a105fee29ce6a8e7ce66bdc25a4f5cb",
      "assetIds": []
    },
    {
      "x": 323,
      "y": 265,
      "size": 1,
      "price": "1011000000000000000000",
      "reserved": "",
      "salt": "0x1fb91d3e0788fe8dd0b00bb828e0966acc65041415935a5314524f0d620b1f44",
      "assetIds": []
    },
    {
      "x": 323,
      "y": 266,
      "size": 1,
      "price": "1011000000000000000000",
      "reserved": "",
      "salt": "0xf816829b614a0901c7ebf9bd98fab34366e33cb474d96ee56aeb46e93d47215d",
      "assetIds": []
    },
    {
      "x": 323,
      "y": 267,
      "size": 1,
      "price": "1011000000000000000000",
      "reserved": "",
      "salt": "0x4844bd2e888ab0aed405dc78bce9b2d97a77c6f499c3242a1075e6f061622de7",
      "assetIds": []
    },
    {
      "x": 323,
      "y": 268,
      "size": 1,
      "price": "1011000000000000000000",
      "reserved": "",
      "salt": "0x147364ebb20e912e42891ec9aeb08f761367195e032a063c4991974c65308976",
      "assetIds": []
    },
    {
      "x": 323,
      "y": 269,
      "size": 1,
      "price": "1011000000000000000000",
      "reserved": "0x7a9fe22691c811ea339d9b73150e6911a5343dca",
      "salt": "0x608eb7a43785a5716ab48acd99b9648d0df7fafa453ff508a55ac7b72de227c9",
      "assetIds": []
    },
    {
      "x": 324,
      "y": 243,
      "size": 1,
      "price": "1011000000000000000000",
      "reserved": "",
      "salt": "0xfbfeb4703454864d74f0cf9606f53e05a32bf61746d75c479c9f4af45ed9a833",
      "assetIds": []
    },
    {
      "x": 324,
      "y": 244,
      "size": 1,
      "price": "1011000000000000000000",
      "reserved": "",
      "salt": "0x88d96e0ff21ed27f4147918a689da585225964272749bd4054b9045420625773",
      "assetIds": []
    },
    {
      "x": 324,
      "y": 245,
      "size": 1,
      "price": "1011000000000000000000",
      "reserved": "0x7a9fe22691c811ea339d9b73150e6911a5343dca",
      "salt": "0xc1bdb712cc619220ecffdce8d5f010e0fd628aebdccad72618eeed6be59f362a",
      "assetIds": []
    },
    {
      "x": 324,
      "y": 246,
      "size": 1,
      "price": "4683000000000000000000",
      "reserved": "",
      "salt": "0xbfd73a38209d6bbdbe0a2e925e94f24f4d3c2d6291e2d8b717c98ca491451ace",
      "assetIds": []
    },
    {
      "x": 324,
      "y": 247,
      "size": 1,
      "price": "4683000000000000000000",
      "reserved": "",
      "salt": "0x44093f35269e9b49b552e043e0330b075cffbf48d27b64e5a6d258cc1bbe1ad1",
      "assetIds": []
    },
    {
      "x": 324,
      "y": 248,
      "size": 1,
      "price": "4683000000000000000000",
      "reserved": "",
      "salt": "0xa7b8a1cfaaed749f27430bdd58800822e3e7a8f395803f4897bae640f42d9c09",
      "assetIds": []
    },
    {
      "x": 324,
      "y": 249,
      "size": 1,
      "price": "4683000000000000000000",
      "reserved": "",
      "salt": "0xc11a6a2901ecbf29831fb6942a2324359184f1272397e83ac2a97223a5ec1c70",
      "assetIds": []
    },
    {
      "x": 324,
      "y": 250,
      "size": 1,
      "price": "4683000000000000000000",
      "reserved": "",
      "salt": "0xe635946b9d9d473bd24adf853ec953324cb36fbec21f58943f8f974706590bb5",
      "assetIds": []
    },
    {
      "x": 324,
      "y": 251,
      "size": 1,
      "price": "4683000000000000000000",
      "reserved": "",
      "salt": "0xc03dd7b986aaa847cc916eb0b357dd604504e7bb73ad02354b8c36a043cd0f4b",
      "assetIds": []
    },
    {
      "x": 324,
      "y": 255,
      "size": 1,
      "price": "1011000000000000000000",
      "reserved": "",
      "salt": "0xad9b40ed02e82edae74fbaddbcedcf5440dff47496e621dc375b572f87e9f17a",
      "assetIds": []
    },
    {
      "x": 324,
      "y": 256,
      "size": 1,
      "price": "1011000000000000000000",
      "reserved": "",
      "salt": "0x836060e5825ee11a8399831471263d78da89a8b3bf38d016730cea7f4b6192fb",
      "assetIds": []
    },
    {
      "x": 324,
      "y": 257,
      "size": 1,
      "price": "4683000000000000000000",
      "reserved": "",
      "salt": "0xcbd29f4aa1529066fd8cb94164243a30ff1787b0aa8bec7acf1080b6bec19d62",
      "assetIds": []
    },
    {
      "x": 324,
      "y": 261,
      "size": 1,
      "price": "1011000000000000000000",
      "reserved": "0x7a9fe22691c811ea339d9b73150e6911a5343dca",
      "salt": "0x784d2a652e3a4715d5bb0431cfde7102133280623f80b1d311cb0cafb1e1dde5",
      "assetIds": []
    },
    {
      "x": 324,
      "y": 262,
      "size": 1,
      "price": "4683000000000000000000",
      "reserved": "",
      "salt": "0x5b617033c99c7f904364cf97965928a37784708dce4b3cd16de861d46fe76644",
      "assetIds": []
    },
    {
      "x": 324,
      "y": 263,
      "size": 1,
      "price": "4683000000000000000000",
      "reserved": "",
      "salt": "0xaf7379e941c53f37047c199f60f9c380c1789dde39ff2de68426d8cdbd52d535",
      "assetIds": []
    },
    {
      "x": 324,
      "y": 270,
      "size": 1,
      "price": "1011000000000000000000",
      "reserved": "0x7a9fe22691c811ea339d9b73150e6911a5343dca",
      "salt": "0x5a6006a01ee94fd1badc0ad5d8b8a38ea439c03d0b16fc77f8e7ca06cda0f3c0",
      "assetIds": []
    },
    {
      "x": 324,
      "y": 271,
      "size": 1,
      "price": "1011000000000000000000",
      "reserved": "",
      "salt": "0x51d3db24f6a5d1ae998a2d88763682ee5baa659e1438f7e20938eb2223956727",
      "assetIds": []
    },
    {
      "x": 324,
      "y": 272,
      "size": 1,
      "price": "1011000000000000000000",
      "reserved": "",
      "salt": "0x7df013a73ec6da3871d4d6246619e1baa132cf97a483e5e26e5e93b52d363bc4",
      "assetIds": []
    },
    {
      "x": 325,
      "y": 243,
      "size": 1,
      "price": "1011000000000000000000",
      "reserved": "",
      "salt": "0xbafedcde07da89c809f6c752f9b563f02939776eb0aa15e99ea217994bf9375f",
      "assetIds": []
    },
    {
      "x": 325,
      "y": 244,
      "size": 1,
      "price": "1011000000000000000000",
      "reserved": "0x7a9fe22691c811ea339d9b73150e6911a5343dca",
      "salt": "0xe512366c46590a4230ce6c50f0beb921b5496c09b1c9ba40ec6766322f04ea49",
      "assetIds": []
    },
    {
      "x": 325,
      "y": 245,
      "size": 1,
      "price": "1011000000000000000000",
      "reserved": "",
      "salt": "0xcaa580562802fe357033f071be68c38bfe68a18da9922c64b85a2d40b053dafc",
      "assetIds": []
    },
    {
      "x": 325,
      "y": 246,
      "size": 1,
      "price": "1011000000000000000000",
      "reserved": "",
      "salt": "0x1faf50683edab9818a1ed9ab4b56afe5e2e32e47faad50029e4be0e7ae6bcd84",
      "assetIds": []
    },
    {
      "x": 325,
      "y": 247,
      "size": 1,
      "price": "1011000000000000000000",
      "reserved": "",
      "salt": "0xd81c6c38176eceff11d9ff42ba6fb1f929790d3750e8e07f9e0ea19aa0dcfb72",
      "assetIds": []
    },
    {
      "x": 325,
      "y": 248,
      "size": 1,
      "price": "1011000000000000000000",
      "reserved": "",
      "salt": "0xed67da0fe8839b50ee0509b2b1c942b946c7689daa8ffe2a27b31dff9173a138",
      "assetIds": []
    },
    {
      "x": 325,
      "y": 249,
      "size": 1,
      "price": "1011000000000000000000",
      "reserved": "",
      "salt": "0xcffdcfe2a24aa7b0789c9ed77d8eb1b01e889d1216f901e71e5b9b507163ff88",
      "assetIds": []
    },
    {
      "x": 325,
      "y": 250,
      "size": 1,
      "price": "1011000000000000000000",
      "reserved": "",
      "salt": "0xac2e5136c2fddbd0598785ef6b3a7df22bb477f598d53086195f737be5a29a5e",
      "assetIds": []
    },
    {
      "x": 325,
      "y": 251,
      "size": 1,
      "price": "1011000000000000000000",
      "reserved": "",
      "salt": "0x6ec759e6138358f5a120270bcd030a540a3abf28d833a079ce74ab130616876d",
      "assetIds": []
    },
    {
      "x": 325,
      "y": 255,
      "size": 1,
      "price": "1011000000000000000000",
      "reserved": "",
      "salt": "0x3460af9ac3c478f0c96d51a217af01a5de45048601dd9d5d0c50a206632df662",
      "assetIds": []
    },
    {
      "x": 325,
      "y": 256,
      "size": 1,
      "price": "1011000000000000000000",
      "reserved": "",
      "salt": "0xe5ee5da5bb64d78d93228d3f225362b2b62ae4708d28d6760ac40cf93aa41c3a",
      "assetIds": []
    },
    {
      "x": 325,
      "y": 257,
      "size": 1,
      "price": "1011000000000000000000",
      "reserved": "0x7a9fe22691c811ea339d9b73150e6911a5343dca",
      "salt": "0x493a56b390f1cce12d09938025261f5293297b4bc7e402b063540fe9eacd70c9",
      "assetIds": []
    },
    {
      "x": 325,
      "y": 261,
      "size": 1,
      "price": "4683000000000000000000",
      "reserved": "",
      "salt": "0xea5dd856d2b75c865a4748384e48538ef903083d3d0761c5b43f199b5781be8f",
      "assetIds": []
    },
    {
      "x": 325,
      "y": 262,
      "size": 1,
      "price": "1011000000000000000000",
      "reserved": "",
      "salt": "0xcef38009fe6c6fd185820f0b565b77fc160adafac68e5df9ee06661c41c0a806",
      "assetIds": []
    },
    {
      "x": 325,
      "y": 263,
      "size": 1,
      "price": "1011000000000000000000",
      "reserved": "",
      "salt": "0x4910c6223752eca992179e0db9fe745f4981a67aa081d588db88c762c4b2091e",
      "assetIds": []
    },
    {
      "x": 325,
      "y": 270,
      "size": 1,
      "price": "1011000000000000000000",
      "reserved": "",
      "salt": "0xed3a908ec01949aa03a670c48b03a1ec388c098862df5afc40c9a35fcf28482b",
      "assetIds": []
    },
    {
      "x": 325,
      "y": 271,
      "size": 1,
      "price": "1011000000000000000000",
      "reserved": "",
      "salt": "0x89126c867380339496b81ddcad6081402185260183660e83182fa66f200c67a7",
      "assetIds": []
    },
    {
      "x": 325,
      "y": 272,
      "size": 1,
      "price": "1011000000000000000000",
      "reserved": "",
      "salt": "0xf2b02d633e5310d8240738e596a073f66fa5b5ef39c0f8a25a62c05ee6b23b75",
      "assetIds": []
    },
    {
      "x": 326,
      "y": 243,
      "size": 1,
      "price": "1011000000000000000000",
      "reserved": "",
      "salt": "0x482395087112491e505a694d3537c6d3ebe0a954e42e92c4dae781fccad00020",
      "assetIds": []
    },
    {
      "x": 326,
      "y": 244,
      "size": 1,
      "price": "1011000000000000000000",
      "reserved": "",
      "salt": "0xfdb05f676e4912953ad9597cf0a513bb91ee11a13dd97220d0cc2bc415a30a1e",
      "assetIds": []
    },
    {
      "x": 326,
      "y": 245,
      "size": 1,
      "price": "1011000000000000000000",
      "reserved": "",
      "salt": "0xb92cf8980c8b0dbd88d8c2806014483fa2c9f91405edbde600aa4439d24e2524",
      "assetIds": []
    },
    {
      "x": 326,
      "y": 246,
      "size": 1,
      "price": "1011000000000000000000",
      "reserved": "",
      "salt": "0x454a4a7317c6ee6e467bddb88b4c24177f59da071f547efd3540289fdb365559",
      "assetIds": []
    },
    {
      "x": 326,
      "y": 247,
      "size": 1,
      "price": "1011000000000000000000",
      "reserved": "0x7a9fe22691c811ea339d9b73150e6911a5343dca",
      "salt": "0x64ebfe96fb18092e41eb0d7732ac9b3a1c9d12949197edb8539f7d16d1e22e5e",
      "assetIds": []
    },
    {
      "x": 326,
      "y": 248,
      "size": 1,
      "price": "1011000000000000000000",
      "reserved": "",
      "salt": "0x54382179d6607b40b17957d1a185b9791db6a8e928c1121323e90bc1f37d1b9a",
      "assetIds": []
    },
    {
      "x": 326,
      "y": 249,
      "size": 1,
      "price": "1011000000000000000000",
      "reserved": "",
      "salt": "0x61527a5d09066c3b632e6ab03e2bd14f8880028bc64183bcbdc7194b19add22a",
      "assetIds": []
    },
    {
      "x": 326,
      "y": 250,
      "size": 1,
      "price": "1011000000000000000000",
      "reserved": "",
      "salt": "0xe730d6c5039a866fcc987a1244f1d6dc2d035bb0a5ba20901390f724fc8346fd",
      "assetIds": []
    },
    {
      "x": 326,
      "y": 251,
      "size": 1,
      "price": "1011000000000000000000",
      "reserved": "",
      "salt": "0x390f06f6c97c6b9e9948960ea689ac0232b692694d11ca0e63bfa680ef4eb3df",
      "assetIds": []
    },
    {
      "x": 326,
      "y": 255,
      "size": 1,
      "price": "1011000000000000000000",
      "reserved": "",
      "salt": "0x04497c3f744e6386c10a98ea159f1417dffdb7069ba2fbfb8838f8b50b4944e2",
      "assetIds": []
    },
    {
      "x": 326,
      "y": 256,
      "size": 1,
      "price": "1011000000000000000000",
      "reserved": "",
      "salt": "0xedebe925c486ef90b7c4cfc508ed35e9acb6ae6b4a270a5c3da89d8e1eefbd8f",
      "assetIds": []
    },
    {
      "x": 326,
      "y": 257,
      "size": 1,
      "price": "4683000000000000000000",
      "reserved": "",
      "salt": "0x26ec5f516f79ba5d8dfab1d949c2677003a1816f467bf00576c2901605c12e27",
      "assetIds": []
    },
    {
      "x": 326,
      "y": 261,
      "size": 1,
      "price": "4683000000000000000000",
      "reserved": "",
      "salt": "0xbe2ea072f8b21af3c6ed53a015201a399f86c0cae49ebde48dea06cb8ef06899",
      "assetIds": []
    },
    {
      "x": 326,
      "y": 262,
      "size": 1,
      "price": "1011000000000000000000",
      "reserved": "",
      "salt": "0x4fbf2d466d4132a1668ef0dc713a0566c222e16e74541ec1d1048d64256677cd",
      "assetIds": []
    },
    {
      "x": 326,
      "y": 263,
      "size": 1,
      "price": "1011000000000000000000",
      "reserved": "",
      "salt": "0x316e61d91e49b920f2111d47f45d3da02b97e7991065a90022c5da0160802109",
      "assetIds": []
    },
    {
      "x": 326,
      "y": 270,
      "size": 1,
      "price": "1011000000000000000000",
      "reserved": "",
      "salt": "0xad64a00cc43bbdb10cae3e38f090df2792effceb9e06c90959c59f1ba4ecf7dc",
      "assetIds": []
    },
    {
      "x": 326,
      "y": 271,
      "size": 1,
      "price": "1011000000000000000000",
      "reserved": "",
      "salt": "0x308737c4aa2fe6d40abad7ed03c0c123b959d1ab21bc4d358f23861e746afd03",
      "assetIds": []
    },
    {
      "x": 326,
      "y": 272,
      "size": 1,
      "price": "1011000000000000000000",
      "reserved": "",
      "salt": "0x5fe354bba45ffe33c662b83d8f74e0fe36b3d03cc96e5d91905cdc7395fb3b5b",
      "assetIds": []
    },
    {
      "x": 327,
      "y": 246,
      "size": 1,
      "price": "1011000000000000000000",
      "reserved": "",
      "salt": "0x6bf14d4c13bbc9d94cae347f0cabb4c321c29794727d9215501ac9aa9eaf5d0b",
      "assetIds": []
    },
    {
      "x": 327,
      "y": 247,
      "size": 1,
      "price": "1011000000000000000000",
      "reserved": "0x7a9fe22691c811ea339d9b73150e6911a5343dca",
      "salt": "0xb2a0ed87beee110c50f821f24cbbc54dc2b7d54e0f8a4c84ad5ea1b751494e52",
      "assetIds": []
    },
    {
      "x": 327,
      "y": 248,
      "size": 1,
      "price": "1011000000000000000000",
      "reserved": "",
      "salt": "0x20f8b8b820d1113e37dfbdde132b0dfdc6391ad5e1e65aa9195d39090bf7cb44",
      "assetIds": []
    },
    {
      "x": 327,
      "y": 252,
      "size": 1,
      "price": "1011000000000000000000",
      "reserved": "",
      "salt": "0xab2a6fde36bca4a5f45dc6796614e3c11902e00360d928edecfc890b9f6135ab",
      "assetIds": []
    },
    {
      "x": 327,
      "y": 253,
      "size": 1,
      "price": "1011000000000000000000",
      "reserved": "",
      "salt": "0xb3d73071b059d0d5029e3ee5a93cddf40351123509144a4a06c1fe366dde3ac6",
      "assetIds": []
    },
    {
      "x": 327,
      "y": 254,
      "size": 1,
      "price": "1011000000000000000000",
      "reserved": "",
      "salt": "0x8470b0a48da77ab474b77aedb3a28bcb4edf49e58a50fbae84a9b2b0dfd75603",
      "assetIds": []
    },
    {
      "x": 327,
      "y": 255,
      "size": 1,
      "price": "1011000000000000000000",
      "reserved": "",
      "salt": "0x4d01a8eaf87f50657eaea18acb777b1f6df6a7fd11b982e0d7de4caa3034abe4",
      "assetIds": []
    },
    {
      "x": 327,
      "y": 256,
      "size": 1,
      "price": "1011000000000000000000",
      "reserved": "",
      "salt": "0x908151e3ef7241d5b400a01b69be885276b71a6897342b3c62f2153a4e035e92",
      "assetIds": []
    },
    {
      "x": 327,
      "y": 257,
      "size": 1,
      "price": "4683000000000000000000",
      "reserved": "",
      "salt": "0x96cf52933fe9db9979b499220fe00d8628977318360bea79b59b0b2f55c9ce6c",
      "assetIds": []
    },
    {
      "x": 327,
      "y": 258,
      "size": 1,
      "price": "4683000000000000000000",
      "reserved": "",
      "salt": "0x3ccbee74955eab7d941338af310a04c35eb641a9eb25755e18cbd5e0777a2fe6",
      "assetIds": []
    },
    {
      "x": 327,
      "y": 259,
      "size": 1,
      "price": "1011000000000000000000",
      "reserved": "",
      "salt": "0xe2916d480974cef5612bb80bd6e630c5c473ec898e6e75753475918e3262d125",
      "assetIds": []
    },
    {
      "x": 327,
      "y": 260,
      "size": 1,
      "price": "4683000000000000000000",
      "reserved": "",
      "salt": "0xbb291181c5f763fee885c445d738325b2179d076241b44e7405b0a7a0228defa",
      "assetIds": []
    },
    {
      "x": 327,
      "y": 273,
      "size": 1,
      "price": "1011000000000000000000",
      "reserved": "",
      "salt": "0xcfbdc8b219f7845da08b8ac9da7906a79a775a917c3ae1ff55b3dd11031ba917",
      "assetIds": []
    },
    {
      "x": 327,
      "y": 274,
      "size": 1,
      "price": "1011000000000000000000",
      "reserved": "",
      "salt": "0x5046b2ab1168b3ed7862285fe9d7ac59d6367e50adf3d6ad188d76831a03302b",
      "assetIds": []
    },
    {
      "x": 327,
      "y": 275,
      "size": 1,
      "price": "1011000000000000000000",
      "reserved": "",
      "salt": "0x88368e8e9bbdbc261ad8c3f11e3722fab78377063cf002b1bc86f4876bdb6adf",
      "assetIds": []
    },
    {
      "x": 328,
      "y": 246,
      "size": 1,
      "price": "1011000000000000000000",
      "reserved": "",
      "salt": "0xb40eb8e2fd6fc2442a04bc3771f92a4a722d3df8942f02a776cc262dc69f0599",
      "assetIds": []
    },
    {
      "x": 328,
      "y": 247,
      "size": 1,
      "price": "1011000000000000000000",
      "reserved": "0x7a9fe22691c811ea339d9b73150e6911a5343dca",
      "salt": "0x025385056e97a79f3881ac4086167e4fac61519fb6349c5c0aefbe5c23a6caa6",
      "assetIds": []
    },
    {
      "x": 328,
      "y": 248,
      "size": 1,
      "price": "1011000000000000000000",
      "reserved": "",
      "salt": "0x3292de9197506a3cbe1b79ce953945494af83ef9e6a96095368b742b78a447a9",
      "assetIds": []
    },
    {
      "x": 328,
      "y": 252,
      "size": 1,
      "price": "1011000000000000000000",
      "reserved": "",
      "salt": "0x9a2b5df9d1efdad935a3daad4cc4427baaef469321e11b243c0227fe61246fbd",
      "assetIds": []
    },
    {
      "x": 328,
      "y": 253,
      "size": 1,
      "price": "1011000000000000000000",
      "reserved": "0x7a9fe22691c811ea339d9b73150e6911a5343dca",
      "salt": "0x52ef4650f5469a7a995a856cfe6dec378783ba9975f23e1b9442b092706d61a7",
      "assetIds": []
    },
    {
      "x": 328,
      "y": 254,
      "size": 1,
      "price": "1011000000000000000000",
      "reserved": "0x7a9fe22691c811ea339d9b73150e6911a5343dca",
      "salt": "0xfe0d874b31770e0a7c2aba5875f21bbdb814785a029464f42b0cf8a26498b277",
      "assetIds": []
    },
    {
      "x": 328,
      "y": 255,
      "size": 1,
      "price": "1011000000000000000000",
      "reserved": "0x7a9fe22691c811ea339d9b73150e6911a5343dca",
      "salt": "0x369f2f1b8c5b5c51d11b742a2604d8ff68f52e15c1f9a860cb9ae3380155cc83",
      "assetIds": []
    },
    {
      "x": 328,
      "y": 256,
      "size": 1,
      "price": "1011000000000000000000",
      "reserved": "",
      "salt": "0x5ba75b8d44063d5232cc44420e205525ce05b514c7a77fe6431b72ad4ca54634",
      "assetIds": []
    },
    {
      "x": 328,
      "y": 257,
      "size": 1,
      "price": "1011000000000000000000",
      "reserved": "",
      "salt": "0x6bb8d4be3d54b2d840d50ba712672ec5bb9cf250a699c1b276aed0a8d65bd244",
      "assetIds": []
    },
    {
      "x": 328,
      "y": 258,
      "size": 1,
      "price": "1011000000000000000000",
      "reserved": "",
      "salt": "0xf32a7901b0bbf5d31447c0a882bcfa40199c748bc54109824de018ce658ce994",
      "assetIds": []
    },
    {
      "x": 328,
      "y": 259,
      "size": 1,
      "price": "1011000000000000000000",
      "reserved": "",
      "salt": "0x02814d4228015d645e6d47c448ebb5a9423321d681406306551878ed98dc5ebb",
      "assetIds": []
    },
    {
      "x": 328,
      "y": 260,
      "size": 1,
      "price": "1011000000000000000000",
      "reserved": "",
      "salt": "0xd427b18278bb60f7ff1dc48343109009bb464e3323bfbc3e70a5c03a6c7dc09b",
      "assetIds": []
    },
    {
      "x": 328,
      "y": 273,
      "size": 1,
      "price": "1011000000000000000000",
      "reserved": "",
      "salt": "0x4784b79862e5cf3e88088ef3e68796039e050c51fd0ad2f3e052fde83382dec2",
      "assetIds": []
    },
    {
      "x": 328,
      "y": 274,
      "size": 1,
      "price": "1011000000000000000000",
      "reserved": "",
      "salt": "0x9619e48823fb32e36864e3e4b47d638ef173d4c337139fa9c2480a097a491e94",
      "assetIds": []
    },
    {
      "x": 328,
      "y": 275,
      "size": 1,
      "price": "1011000000000000000000",
      "reserved": "",
      "salt": "0xa97e1d6593f85a861281892a619b6b449d85a972dff40eb9c8763573077f9628",
      "assetIds": []
    },
    {
      "x": 329,
      "y": 246,
      "size": 1,
      "price": "1011000000000000000000",
      "reserved": "",
      "salt": "0xe22732eb2203545bb971c440174f4c0c702c57fdd485a5d3a289a4a4326b0c79",
      "assetIds": []
    },
    {
      "x": 329,
      "y": 247,
      "size": 1,
      "price": "1011000000000000000000",
      "reserved": "",
      "salt": "0x2426307900d19aab8a9059d6aea7e2dd90da02a7f2e45b631165e341255e02e2",
      "assetIds": []
    },
    {
      "x": 329,
      "y": 248,
      "size": 1,
      "price": "1011000000000000000000",
      "reserved": "",
      "salt": "0x9542187a8bb650dd8be4834fa94e99e7b3fb599570c1b9b4592b9bc7a27964a5",
      "assetIds": []
    },
    {
      "x": 329,
      "y": 252,
      "size": 1,
      "price": "1011000000000000000000",
      "reserved": "",
      "salt": "0xbea6665acdc88d9cd89b968b97f5446a92aa663b34c77bcf489971f0aef86c6c",
      "assetIds": []
    },
    {
      "x": 329,
      "y": 253,
      "size": 1,
      "price": "1011000000000000000000",
      "reserved": "",
      "salt": "0xe5786d51e6e428eea8f3bda5b98dd4ad8b321d7dd030934b2cdb32d14f47fd5b",
      "assetIds": []
    },
    {
      "x": 329,
      "y": 254,
      "size": 1,
      "price": "1011000000000000000000",
      "reserved": "",
      "salt": "0xca824032e3bf540e8536f2c775855669929a8f0c7f10c868761fb5e46197d9ab",
      "assetIds": []
    },
    {
      "x": 329,
      "y": 255,
      "size": 1,
      "price": "1011000000000000000000",
      "reserved": "",
      "salt": "0x0abe850b02ccb003c89899198b7f8f1faab4d5a3ff6395f5a6d04c43fa5e761e",
      "assetIds": []
    },
    {
      "x": 329,
      "y": 256,
      "size": 1,
      "price": "1011000000000000000000",
      "reserved": "",
      "salt": "0x95726de43cfe72a03e59d48d1d0154774817225049e14e206b9d2e1c9b0977b0",
      "assetIds": []
    },
    {
      "x": 329,
      "y": 257,
      "size": 1,
      "price": "1011000000000000000000",
      "reserved": "",
      "salt": "0x9c26b947b434bed8624af83352ce73db485adacdb20da5e356ebd91c1439568a",
      "assetIds": []
    },
    {
      "x": 329,
      "y": 258,
      "size": 1,
      "price": "1011000000000000000000",
      "reserved": "",
      "salt": "0xcfec816dffa232a54a38e2a8a307aa6bfde5c5a8de171ea2e6c74defa014f7be",
      "assetIds": []
    },
    {
      "x": 329,
      "y": 259,
      "size": 1,
      "price": "1011000000000000000000",
      "reserved": "",
      "salt": "0x4a84f7fd9976e1db092961a780f5ff54adaf8ed78258733060c18756c5b38963",
      "assetIds": []
    },
    {
      "x": 329,
      "y": 260,
      "size": 1,
      "price": "1011000000000000000000",
      "reserved": "",
      "salt": "0x45751a491ae1a07c1dfc6dd59f062c550fe94c8d69aaab71cfba61d6d35c17f9",
      "assetIds": []
    },
    {
      "x": 329,
      "y": 273,
      "size": 1,
      "price": "1011000000000000000000",
      "reserved": "",
      "salt": "0x71bba5e29d519b33f26308bf7d446a9789c3725cefd804e0313b6b4eaaf9eaa0",
      "assetIds": []
    },
    {
      "x": 329,
      "y": 274,
      "size": 1,
      "price": "1011000000000000000000",
      "reserved": "",
      "salt": "0xfd43d88cf39f812854d4e878cefcf9b09a12da2ea27c5e676db6602c4a8a9e5e",
      "assetIds": []
    },
    {
      "x": 329,
      "y": 275,
      "size": 1,
      "price": "1011000000000000000000",
      "reserved": "",
      "salt": "0xb6385b3a5e5def2e0edd88b30af828ac99dbb7d62a2fe2bb5d077f2335ae2ffe",
      "assetIds": []
    },
    {
      "x": 330,
      "y": 258,
      "size": 1,
      "price": "1011000000000000000000",
      "reserved": "",
      "salt": "0xbde847863fddbcb87b3e412374773c9ccb5ba04bdca105272b3a6dd9e26dde3e",
      "assetIds": []
    },
    {
      "x": 330,
      "y": 259,
      "size": 1,
      "price": "1011000000000000000000",
      "reserved": "",
      "salt": "0x77821b3d63217afbfa3f71f0094bc03e0b408c34037a665bee794b0dcaf4a521",
      "assetIds": []
    },
    {
      "x": 330,
      "y": 260,
      "size": 1,
      "price": "1011000000000000000000",
      "reserved": "",
      "salt": "0x881d069582e4df110209b10e4bd6f1507a4dff8c71e0d96853d21d929326ac4f",
      "assetIds": []
    },
    {
      "x": 330,
      "y": 261,
      "size": 1,
      "price": "1011000000000000000000",
      "reserved": "",
      "salt": "0x25178caf5922aeb65112ebf92b569b107d8cc16971403ec5b592d66b9de8167d",
      "assetIds": []
    },
    {
      "x": 330,
      "y": 262,
      "size": 1,
      "price": "1011000000000000000000",
      "reserved": "",
      "salt": "0x8ee205aa01caf4d22804a6a6c475b557fc299b3cde1f26c054b99c7f7bdd789e",
      "assetIds": []
    },
    {
      "x": 330,
      "y": 263,
      "size": 1,
      "price": "1011000000000000000000",
      "reserved": "",
      "salt": "0xdabfca0452ac7e9179648ea178db1abf306acd4b45e74aa2f8bd3d365c641487",
      "assetIds": []
    },
    {
      "x": 330,
      "y": 270,
      "size": 1,
      "price": "1011000000000000000000",
      "reserved": "",
      "salt": "0x7723808e5bba5a902542063b791b78430ca5061a40f03a58bad5e4cf2f98a6ee",
      "assetIds": []
    },
    {
      "x": 330,
      "y": 271,
      "size": 1,
      "price": "1011000000000000000000",
      "reserved": "",
      "salt": "0x274ecb874b395c83144ce01378c1ce8ab69cd98fff0c1c93268bb370902e13dc",
      "assetIds": []
    },
    {
      "x": 330,
      "y": 272,
      "size": 1,
      "price": "1011000000000000000000",
      "reserved": "",
      "salt": "0x2f2c368293527a5661cf761a769a5c76faa39f7e0a236a1f5624becb4b86f28c",
      "assetIds": []
    },
    {
      "x": 330,
      "y": 273,
      "size": 1,
      "price": "1011000000000000000000",
      "reserved": "",
      "salt": "0x09a864dfdff33f7ec7a70a604af4719cb6f1d6f53824b9f17dddc462dfc47aa1",
      "assetIds": []
    },
    {
      "x": 330,
      "y": 274,
      "size": 1,
      "price": "1011000000000000000000",
      "reserved": "",
      "salt": "0xb79c101a37e0a3c79cc68314897ce3f584537cf9b8532ebf2dcd260ea6f18658",
      "assetIds": []
    },
    {
      "x": 330,
      "y": 275,
      "size": 1,
      "price": "1011000000000000000000",
      "reserved": "",
      "salt": "0x2fef0bb38d4791c35c7518c74b6c96e835d2a9b76ee7bbc86a33b28eca4840cc",
      "assetIds": []
    },
    {
      "x": 331,
      "y": 258,
      "size": 1,
      "price": "1011000000000000000000",
      "reserved": "",
      "salt": "0x259e0da511e4c22ab761bb0a164ccaab9e72eaab4f310ec33cc7e45b1f83e46d",
      "assetIds": []
    },
    {
      "x": 331,
      "y": 259,
      "size": 1,
      "price": "1011000000000000000000",
      "reserved": "",
      "salt": "0xb0c807fa168ac2a5dbc2abc8328e2112043fb2aec51ea8d435d16e1d97bf9574",
      "assetIds": []
    },
    {
      "x": 331,
      "y": 260,
      "size": 1,
      "price": "1011000000000000000000",
      "reserved": "",
      "salt": "0xe67d08c8a86efa0438537ba1a486bd38b3fd984e602c5ceda83b39abe46ccf29",
      "assetIds": []
    },
    {
      "x": 331,
      "y": 261,
      "size": 1,
      "price": "1011000000000000000000",
      "reserved": "",
      "salt": "0xabb5c2b424af7794acb5eedec456d6e0fe41adab28046ccd1f684ea34c827953",
      "assetIds": []
    },
    {
      "x": 331,
      "y": 262,
      "size": 1,
      "price": "1011000000000000000000",
      "reserved": "",
      "salt": "0x1fff723b6585266680715cc7917caba4f07e381b0d1f47856b8e096f47d709c1",
      "assetIds": []
    },
    {
      "x": 331,
      "y": 263,
      "size": 1,
      "price": "1011000000000000000000",
      "reserved": "",
      "salt": "0x391542f9287487ac277863d7323c5ce3a89d3c3f25191d72c2c78c55813c4be5",
      "assetIds": []
    },
    {
      "x": 331,
      "y": 270,
      "size": 1,
      "price": "1011000000000000000000",
      "reserved": "",
      "salt": "0x8af281df1ca2d16715ec8002a7d38c38d5f7074aec97c7b35f225dafdcdd4680",
      "assetIds": []
    },
    {
      "x": 331,
      "y": 271,
      "size": 1,
      "price": "1011000000000000000000",
      "reserved": "",
      "salt": "0x968859322d78ac8a315a41c68c4e2ee11ef39726b699373a6be0541ed2abdfcb",
      "assetIds": []
    },
    {
      "x": 331,
      "y": 272,
      "size": 1,
      "price": "1011000000000000000000",
      "reserved": "",
      "salt": "0x2b9be666c49f61dc9a962349ec74db5f880bff70709b5d356d1fa45407b02c7a",
      "assetIds": []
    },
    {
      "x": 331,
      "y": 273,
      "size": 1,
      "price": "1011000000000000000000",
      "reserved": "",
      "salt": "0x67f761dac1042f44e0cc6e2cdd7909d8f2de2b733a0e38c46e8698f1a988d452",
      "assetIds": []
    },
    {
      "x": 331,
      "y": 274,
      "size": 1,
      "price": "1011000000000000000000",
      "reserved": "",
      "salt": "0x974559e5c232a6db796f4f94ab3c7b0af13730824a34870c18e054a6d7254030",
      "assetIds": []
    },
    {
      "x": 331,
      "y": 275,
      "size": 1,
      "price": "1011000000000000000000",
      "reserved": "",
      "salt": "0x79a1dae22d7f141ce45d552ca056487331d9066b9a26f64f3ac2256167c34a30",
      "assetIds": []
    },
    {
      "x": 332,
      "y": 258,
      "size": 1,
      "price": "1011000000000000000000",
      "reserved": "",
      "salt": "0xc18f6c95d8420f0ba428d7d60b064ae57fe794d5d559a0a09c403471bf03e87d",
      "assetIds": []
    },
    {
      "x": 332,
      "y": 259,
      "size": 1,
      "price": "1011000000000000000000",
      "reserved": "",
      "salt": "0xbd66648d2053a11fea20447e53a5fb5d876a0cd451f7ab96fafb00f26b0f6aab",
      "assetIds": []
    },
    {
      "x": 332,
      "y": 260,
      "size": 1,
      "price": "1011000000000000000000",
      "reserved": "",
      "salt": "0x5684b2c244ddce79703585a6249619873e6750a89701b0432e47a7f552741f72",
      "assetIds": []
    },
    {
      "x": 332,
      "y": 261,
      "size": 1,
      "price": "1011000000000000000000",
      "reserved": "",
      "salt": "0x99269d3072aae161bdc32b7d60d03e4fb5d0cb2e6e03d98e3111d1bb9d1916a4",
      "assetIds": []
    },
    {
      "x": 332,
      "y": 262,
      "size": 1,
      "price": "1011000000000000000000",
      "reserved": "",
      "salt": "0xbfca687ba51e3fe92693bc33c3573080e7a3096670da5391b885432d718b92b6",
      "assetIds": []
    },
    {
      "x": 332,
      "y": 263,
      "size": 1,
      "price": "1011000000000000000000",
      "reserved": "",
      "salt": "0x2de3642879b6996e030be75278502cc519fd611212bca22b921a944b43aabbd8",
      "assetIds": []
    },
    {
      "x": 332,
      "y": 270,
      "size": 1,
      "price": "1011000000000000000000",
      "reserved": "",
      "salt": "0xddb64ab6c8da0a1bb2c231be490c1a815501491bd125e925bd36148c0f71dccd",
      "assetIds": []
    },
    {
      "x": 332,
      "y": 271,
      "size": 1,
      "price": "1011000000000000000000",
      "reserved": "",
      "salt": "0xdea238126d785007e068013929857bc7f4c838ca7dbd0b0d60c769eb59613445",
      "assetIds": []
    },
    {
      "x": 332,
      "y": 272,
      "size": 1,
      "price": "1011000000000000000000",
      "reserved": "",
      "salt": "0x0d1e88bb453a69baba11001ee5c62d0de63ef6299e141d547552cacaeda16745",
      "assetIds": []
    },
    {
      "x": 332,
      "y": 273,
      "size": 1,
      "price": "1011000000000000000000",
      "reserved": "",
      "salt": "0xc85e3cafed32bdbf22fc302a91127c56ff42361c01fb175f2564f01067b9e571",
      "assetIds": []
    },
    {
      "x": 332,
      "y": 274,
      "size": 1,
      "price": "1011000000000000000000",
      "reserved": "",
      "salt": "0x98c98631d61053b01e3d877a54b6fe65490b62ae35d2daef57afecfc25181e75",
      "assetIds": []
    },
    {
      "x": 332,
      "y": 275,
      "size": 1,
      "price": "1011000000000000000000",
      "reserved": "",
      "salt": "0xf9395466d964b42d5463a1f8c7c5060bda161de9a659f360c74b8ae71637766f",
      "assetIds": []
    },
    {
      "x": 336,
      "y": 246,
      "size": 1,
      "price": "1011000000000000000000",
      "reserved": "",
      "salt": "0x6ead139d1c0e6af90bc737cbf18f1367520b1f438c5e7ef01e2d88e5b4985ca3",
      "assetIds": []
    },
    {
      "x": 336,
      "y": 247,
      "size": 1,
      "price": "1011000000000000000000",
      "reserved": "",
      "salt": "0xd15b2b2adff88e02ff1b5111fe0fbf9244da8b8c18ceab54409d61e7dd2e2cf1",
      "assetIds": []
    },
    {
      "x": 336,
      "y": 248,
      "size": 1,
      "price": "1011000000000000000000",
      "reserved": "",
      "salt": "0xa7601abdc9a71534b03c19040bdd16148c25d14a933c4a653c50d220c121579e",
      "assetIds": []
    },
    {
      "x": 336,
      "y": 249,
      "size": 1,
      "price": "1011000000000000000000",
      "reserved": "",
      "salt": "0x7d9271aafb92dce178938310d7c09c7b7bcc282c3b119bafc0cea14c3c71974c",
      "assetIds": []
    },
    {
      "x": 336,
      "y": 250,
      "size": 1,
      "price": "1011000000000000000000",
      "reserved": "",
      "salt": "0x33ca288920a9d91832bc8cb750755e6d131ebf6405489b8ad9da57905e362d8a",
      "assetIds": []
    },
    {
      "x": 336,
      "y": 251,
      "size": 1,
      "price": "1011000000000000000000",
      "reserved": "",
      "salt": "0x92c0cbe34c7846bf6429cc17916f214f1ee688380e3cb98c57dd9a90dd5fd984",
      "assetIds": []
    },
    {
      "x": 337,
      "y": 246,
      "size": 1,
      "price": "1011000000000000000000",
      "reserved": "",
      "salt": "0xf3bc4867682070eea33d6d65d288af9e5a52af093a55c04d45f68014b6d1ff1b",
      "assetIds": []
    },
    {
      "x": 337,
      "y": 247,
      "size": 1,
      "price": "1011000000000000000000",
      "reserved": "",
      "salt": "0x2080d29020c1ffe58718c45ac37fd342ecdbaf8eb561180ab3d0043cecf85932",
      "assetIds": []
    },
    {
      "x": 337,
      "y": 248,
      "size": 1,
      "price": "1011000000000000000000",
      "reserved": "",
      "salt": "0x7136efd74b24166041c6d1bc66d206d6102c23fe70c1dfef480527e8cb3e8683",
      "assetIds": []
    },
    {
      "x": 337,
      "y": 249,
      "size": 1,
      "price": "1011000000000000000000",
      "reserved": "",
      "salt": "0x24871cedc21c2cc97150ca01bf38fdf7bdf20fc6485d8a0fe96b01355c479833",
      "assetIds": []
    },
    {
      "x": 337,
      "y": 250,
      "size": 1,
      "price": "1011000000000000000000",
      "reserved": "",
      "salt": "0xed1581082c7436757751eb63c1a4b0da204d20a0c4be6fff6a24e81f65f4308b",
      "assetIds": []
    },
    {
      "x": 337,
      "y": 251,
      "size": 1,
      "price": "1011000000000000000000",
      "reserved": "",
      "salt": "0xe01d0f29f016ff3e066cf2c84ebdf31baeacf250b1e7c79ee43dcfc3bfde42a4",
      "assetIds": []
    },
    {
      "x": 338,
      "y": 246,
      "size": 1,
      "price": "1011000000000000000000",
      "reserved": "",
      "salt": "0xe9a993279dde9b7f408259294b9616ff667a8a57a5e64c6cbf28be92cff7eee2",
      "assetIds": []
    },
    {
      "x": 338,
      "y": 247,
      "size": 1,
      "price": "1011000000000000000000",
      "reserved": "",
      "salt": "0x3ee097e345cb0494f07c2da2c894cdf11b76fd0cdf477a03cdd8c1705fcd87a8",
      "assetIds": []
    },
    {
      "x": 338,
      "y": 248,
      "size": 1,
      "price": "1011000000000000000000",
      "reserved": "",
      "salt": "0x25745e8a7a4a93d66f04923001012e6dd27dbda1fe59cd2f7acdfc9573d5c10d",
      "assetIds": []
    },
    {
      "x": 338,
      "y": 249,
      "size": 1,
      "price": "1011000000000000000000",
      "reserved": "",
      "salt": "0xbf2acd6edf04cfc15790510f55d9ad4098e800db47c981a8f47436afacbaaabb",
      "assetIds": []
    },
    {
      "x": 338,
      "y": 250,
      "size": 1,
      "price": "1011000000000000000000",
      "reserved": "",
      "salt": "0xb54c7390adec9f0a3b3cea7419e67fe22560a1ea2d2289f916f3660756255625",
      "assetIds": []
    },
    {
      "x": 338,
      "y": 251,
      "size": 1,
      "price": "1011000000000000000000",
      "reserved": "",
      "salt": "0x69c0a91365ae276e82e206c9ad9bceb0375e84d7eeb81087eb009730bd180481",
      "assetIds": []
    }
  ],
  "solcInputHash": "ec605981be9adfd04d88d4245397bb77",
  "bytecode": "0x6101606040523480156200001257600080fd5b50604051620031e9380380620031e983398181016040526101a08110156200003957600080fd5b508051602082015160408301516060840151608085015160a086015160c087015160e08801516101008901516101208a01516101408b01516101608c0151610180909c015160016000559a9b999a9899979896979596949593949293919290919085856001600160a01b038216620000f8576040805162461bcd60e51b815260206004820152601f60248201527f526566657272616c56616c696461746f723a207a65726f206164647265737300604482015290519081900360640190fd5b600380546001600160a01b0319166001600160a01b0393841617905560045562000130908e1662000459602090811b62002adc17901c565b6200016d5760405162461bcd60e51b8152600401808060200182810382526025815260200180620031c46025913960400191505060405180910390fd5b6200018c8c6001600160a01b03166200045960201b62002adc1760201c565b620001c95760405162461bcd60e51b8152600401808060200182810382526025815260200180620031c46025913960400191505060405180910390fd5b6001600160a01b038b1662000214576040805162461bcd60e51b815260206004820181905260248201526000805160206200317f833981519152604482015290519081900360640190fd5b6001600160a01b038a166200025f576040805162461bcd60e51b815260206004820181905260248201526000805160206200317f833981519152604482015290519081900360640190fd5b6001600160a01b038916620002aa576040805162461bcd60e51b815260206004820181905260248201526000805160206200317f833981519152604482015290519081900360640190fd5b620002c9836001600160a01b03166200045960201b62002adc1760201c565b620003065760405162461bcd60e51b8152600401808060200182810382526025815260200180620031c46025913960400191505060405180910390fd5b6001600160a01b03821662000351576040805162461bcd60e51b815260206004820181905260248201526000805160206200317f833981519152604482015290519081900360640190fd5b62000370816001600160a01b03166200045960201b62002adc1760201c565b620003ad5760405162461bcd60e51b8152600401808060200182810382526025815260200180620031c46025913960400191505060405180910390fd5b6001600160601b031960608e811b821660a0528d901b1660c052620003dd8b60016001600160e01b036200045f16565b600680546001600160a01b039a8b166001600160a01b031991821617909155610140989098526101209690965260018054998916998816999099179098556001600160601b0319606092831b811660e05290821b811660805296901b909516610100525060078054919093169116179055506200050a92505050565b3b151590565b6001600160a01b038216620004a65760405162461bcd60e51b81526004018080602001828103825260258152602001806200319f6025913960400191505060405180910390fd5b6001600160a01b038216600081815260026020908152604091829020805460ff191685151590811790915582519384529083015280517fb21eb88b4e33b3f1281830a7178d74d8aa73220416215726b68ae23d539515cb9281900390910190a15050565b60805160601c60a05160601c60c05160601c60e05160601c6101005160601c6101205161014051612bef6200059060003980610be0528061247e525080610bbc528061159d5250806124fc525080611af25280611c4f525080611aa85280611e4e52806124d9525080611b235280611c205250806111075280611f3a5250612bef6000f3fe608060405234801561001057600080fd5b50600436106101365760003560e01c8063984d6252116100b2578063c10a420811610081578063dc5074af11610066578063dc5074af146108a0578063e56f8a9e146108c6578063f23a6e61146108e357610136565b8063c10a4208146107c1578063caed35001461089857610136565b8063984d62521461055f578063ab1cc78c14610631578063b522ecff14610639578063bc197c811461065f57610136565b806365194ce71161010957806378e6e5b9116100ee57806378e6e5b9146104e55780638a04af6a1461050b5780638f2839701461053957610136565b806365194ce7146103635780636e9960c3146104c157610136565b80631187fd3c1461013b57806325cb5bc01461031b578063495906571461033557806358bc29441461033d575b600080fd5b610319600480360361012081101561015257600080fd5b6001600160a01b038235811692602081013582169260408201359092169181019060808101606082013564010000000081111561018e57600080fd5b8201836020820111156101a057600080fd5b803590602001918460208302840111640100000000831117156101c257600080fd5b919390928235926040810190602001356401000000008111156101e457600080fd5b8201836020820111156101f657600080fd5b8035906020019184602083028401116401000000008311171561021857600080fd5b91939092909160208101903564010000000081111561023657600080fd5b82018360208201111561024857600080fd5b8035906020019184602083028401116401000000008311171561026a57600080fd5b91939092909160208101903564010000000081111561028857600080fd5b82018360208201111561029a57600080fd5b803590602001918460018302840111640100000000831117156102bc57600080fd5b9193909290916020810190356401000000008111156102da57600080fd5b8201836020820111156102ec57600080fd5b8035906020019184600183028401116401000000008311171561030e57600080fd5b509092509050610978565b005b610323610bba565b60408051918252519081900360200190f35b610323610bde565b6103196004803603602081101561035357600080fd5b50356001600160a01b0316610c02565b6104096004803603602081101561037957600080fd5b81019060208101813564010000000081111561039457600080fd5b8201836020820111156103a657600080fd5b803590602001918460018302840111640100000000831117156103c857600080fd5b91908080601f016020809104026020016040519081016040528093929190818152602001838380828437600092019190915250929550610d2e945050505050565b6040518080602001866001600160a01b03166001600160a01b03168152602001856001600160a01b03166001600160a01b03168152602001848152602001838152602001828103825287818151815260200191508051906020019080838360005b8381101561048257818101518382015260200161046a565b50505050905090810190601f1680156104af5780820380516001836020036101000a031916815260200191505b50965050505050505060405180910390f35b6104c9610e33565b604080516001600160a01b039092168252519081900360200190f35b610319600480360360208110156104fb57600080fd5b50356001600160a01b0316610e42565b6103196004803603604081101561052157600080fd5b506001600160a01b0381351690602001351515610f00565b6103196004803603602081101561054f57600080fd5b50356001600160a01b0316610f6d565b6103196004803603606081101561057557600080fd5b6001600160a01b0382351691908101906040810160208201356401000000008111156105a057600080fd5b8201836020820111156105b257600080fd5b803590602001918460208302840111640100000000831117156105d457600080fd5b9193909290916020810190356401000000008111156105f257600080fd5b82018360208201111561060457600080fd5b8035906020019184602083028401116401000000008311171561062657600080fd5b5090925090506110a6565b610323611231565b6103196004803603602081101561064f57600080fd5b50356001600160a01b0316611237565b61078c600480360360a081101561067557600080fd5b6001600160a01b0382358116926020810135909116918101906060810160408201356401000000008111156106a957600080fd5b8201836020820111156106bb57600080fd5b803590602001918460208302840111640100000000831117156106dd57600080fd5b9193909290916020810190356401000000008111156106fb57600080fd5b82018360208201111561070d57600080fd5b8035906020019184602083028401116401000000008311171561072f57600080fd5b91939092909160208101903564010000000081111561074d57600080fd5b82018360208201111561075f57600080fd5b8035906020019184600183028401116401000000008311171561078157600080fd5b509092509050611348565b604080517fffffffff000000000000000000000000000000000000000000000000000000009092168252519081900360200190f35b610884600480360360a08110156107d757600080fd5b8101906020810181356401000000008111156107f257600080fd5b82018360208201111561080457600080fd5b8035906020019184600183028401116401000000008311171561082657600080fd5b91908080601f016020809104026020016040519081016040528093929190818152602001838380828437600092019190915250929550506001600160a01b038335811694506020840135169260408101359250606001359050611375565b604080519115158252519081900360200190f35b6104c96114b1565b610884600480360360208110156108b657600080fd5b50356001600160a01b03166114c0565b610319600480360360208110156108dc57600080fd5b50356114de565b61078c600480360360a08110156108f957600080fd5b6001600160a01b03823581169260208101359091169160408201359160608101359181019060a08101608082013564010000000081111561093957600080fd5b82018360208201111561094b57600080fd5b8035906020019184600183028401116401000000008311171561096d57600080fd5b509092509050611570565b600260005414156109d0576040805162461bcd60e51b815260206004820152601f60248201527f5265656e7472616e637947756172643a207265656e7472616e742063616c6c00604482015290519081900360640190fd5b60026000556109df8e8d61159b565b610ad68d8d8d8d80806020026020016040519081016040528093929190818152602001838360200280828437600081840152601f19601f820116905080830192505050505050508c8c8c80806020026020016040519081016040528093929190818152602001838360200280828437600081840152601f19601f820116905080830192505050505050508b8b8080602002602001604051908101604052809392919081815260200183836020028082843760009201919091525050604080516020601f8d018190048102820181019092528b815292508b91508a90819084018382808284376000920191909152506116fe92505050565b610b2a8e8c8c6003818110610ae757fe5b9050602002013586868080601f016020809104026020016040519081016040528093929190818152602001838380828437600092019190915250611a8192505050565b610b688e8e8d8d80806020026020016040519081016040528093929190818152602001838360200280828437600092019190915250611ad292505050565b610ba58d898980806020026020016040519081016040528093929190818152602001838360200280828437600092019190915250611ec392505050565b50506001600055505050505050505050505050565b7f000000000000000000000000000000000000000000000000000000000000000090565b7f000000000000000000000000000000000000000000000000000000000000000090565b6001546001600160a01b03163314610c61576040805162461bcd60e51b815260206004820152601260248201527f6f6e6c792061646d696e20616c6c6f7765640000000000000000000000000000604482015290519081900360640190fd5b6001600160a01b038116610cbc576040805162461bcd60e51b815260206004820152601f60248201527f526566657272616c56616c696461746f723a207a65726f206164647265737300604482015290519081900360640190fd5b600380546001600160a01b03908116600090815260056020526040808220620d2f0042019055835473ffffffffffffffffffffffffffffffffffffffff1916928516928317909355915190917fbbb5fb2ee7e707ae0c968f63e94211ea81e66a718c34e2f810a7619e5678a21791a250565b606060008060008060606000806000808a80602001905160a0811015610d5357600080fd5b8101908080516040519392919084640100000000821115610d7357600080fd5b908301906020820185811115610d8857600080fd5b8251640100000000811182820188101715610da257600080fd5b82525081516020918201929091019080838360005b83811015610dcf578181015183820152602001610db7565b50505050905090810190601f168015610dfc5780820380516001836020036101000a031916815260200191505b5060409081526020820151908201516060830151608090930151959f50909d509b5099509197505050505050505091939590929450565b6001546001600160a01b031690565b6001546001600160a01b03163314610e8b5760405162461bcd60e51b8152600401808060200182810382526023815260200180612b056023913960400191505060405180910390fd5b6001600160a01b038116610ee6576040805162461bcd60e51b815260206004820152601f60248201527f526566657272616c56616c696461746f723a207a65726f206164647265737300604482015290519081900360640190fd5b6001600160a01b0316600090815260056020526040812055565b6001546001600160a01b03163314610f5f576040805162461bcd60e51b815260206004820152601260248201527f6f6e6c792061646d696e20616c6c6f7765640000000000000000000000000000604482015290519081900360640190fd5b610f698282612087565b5050565b6001546001600160a01b03163314610fcc576040805162461bcd60e51b815260206004820152601b60248201527f6f6e6c792061646d696e2063616e206368616e67652061646d696e0000000000604482015290519081900360640190fd5b6001546001600160a01b038281169116141561102f576040805162461bcd60e51b815260206004820152600d60248201527f616c72656164792061646d696e00000000000000000000000000000000000000604482015290519081900360640190fd5b600154604080516001600160a01b039283168152918316602083015280517f7e644d79422f17c01e4894b5f4f588d331ebfa28653d42ae832dc59e38c9798f9281900390910190a16001805473ffffffffffffffffffffffffffffffffffffffff19166001600160a01b0392909216919091179055565b6001546001600160a01b03163314611105576040805162461bcd60e51b815260206004820152600e60248201527f4e4f545f415554484f52495a4544000000000000000000000000000000000000604482015290519081900360640190fd5b7f00000000000000000000000000000000000000000000000000000000000000006001600160a01b0316632eb2c2d63087878787876040518763ffffffff1660e01b815260040180876001600160a01b03166001600160a01b03168152602001866001600160a01b03166001600160a01b031681526020018060200180602001806020018481038452888882818152602001925060200280828437600083820152601f01601f19169091018581038452868152602090810191508790870280828437600081840152601f19601f8201169050808301925050508481038252600081526020016020019950505050505050505050600060405180830381600087803b15801561121257600080fd5b505af1158015611226573d6000803e3d6000fd5b505050505050505050565b60045490565b6001600160a01b038116611292576040805162461bcd60e51b815260206004820152600c60248201527f5a45524f5f414444524553530000000000000000000000000000000000000000604482015290519081900360640190fd5b6001546001600160a01b031633146112f1576040805162461bcd60e51b815260206004820152600e60248201527f4e4f545f415554484f52495a4544000000000000000000000000000000000000604482015290519081900360640190fd5b6006805473ffffffffffffffffffffffffffffffffffffffff19166001600160a01b0383169081179091556040517f4d66958b757eb92a1b43d02be4c38c9500b73f532420ee3706cb43d420ba023690600090a250565b7fbc197c810000000000000000000000000000000000000000000000000000000098975050505050505050565b60006004548211806113985750836001600160a01b0316856001600160a01b0316145b806113a257508242115b156113af575060006114a8565b60408051606087811b7fffffffffffffffffffffffffffffffffffffffff0000000000000000000000009081166020808501919091529188901b166034830152604882018690526068808301869052835180840390910181526088830184528051908201207f19457468657265756d205369676e6564204d6573736167653a0a33320000000060a884015260c48084018290528451808503909101815260e49093019093528151910120600090611466908961214e565b6001600160a01b0381166000908152600560205260409020549091504211611493576001925050506114a8565b6003546001600160a01b039081169116149150505b95945050505050565b6003546001600160a01b031690565b6001600160a01b031660009081526002602052604090205460ff1690565b6001546001600160a01b0316331461153d576040805162461bcd60e51b815260206004820152601260248201527f6f6e6c792061646d696e20616c6c6f7765640000000000000000000000000000604482015290519081900360640190fd5b600481905560405181907f774069781371d65424b3b0b101c1d40014532cac040f979595b99a3fcf8ce08c90600090a250565b7ff23a6e61000000000000000000000000000000000000000000000000000000009695505050505050565b7f0000000000000000000000000000000000000000000000000000000000000000421061160f576040805162461bcd60e51b815260206004820152600c60248201527f53414c455f49535f4f5645520000000000000000000000000000000000000000604482015290519081900360640190fd5b6001600160a01b03821633148061163557503360009081526002602052604090205460ff165b611686576040805162461bcd60e51b815260206004820152600e60248201527f4e4f545f415554484f52495a4544000000000000000000000000000000000000604482015290519081900360640190fd5b6001600160a01b03811615806116ad5750816001600160a01b0316816001600160a01b0316145b610f69576040805162461bcd60e51b815260206004820152600d60248201527f52455345525645445f4c414e4400000000000000000000000000000000000000604482015290519081900360640190fd5b600087878760008151811061170f57fe5b60200260200101518860018151811061172457fe5b60200260200101518960028151811061173957fe5b60200260200101518a60038151811061174e57fe5b60200260200101518a8a60405160200180828051906020019060200280838360005b83811015611788578181015183820152602001611770565b50505050905001915050604051602081830303815290604052805190602001208a60405160200180828051906020019060200280838360005b838110156117d95781810151838201526020016117c1565b5050505090500191505060405160208183030381529060405280519060200120604051602001808a6001600160a01b03166001600160a01b031660601b8152601401896001600160a01b03166001600160a01b031660601b81526014018881526020018781526020018681526020018581526020018481526020018381526020018281526020019950505050505050505050604051602081830303815290604052805190602001209050600760009054906101000a90046001600160a01b03166001600160a01b031663012847ed83836040518363ffffffff1660e01b81526004018080602001838152602001828103825284818151815260200191508051906020019080838360005b838110156118fb5781810151838201526020016118e3565b50505050905090810190601f1680156119285780820380516001836020036101000a031916815260200191505b50935050505060206040518083038186803b15801561194657600080fd5b505afa15801561195a573d6000803e3d6000fd5b505050506040513d602081101561197057600080fd5b50516119c3576040805162461bcd60e51b815260206004820152600c60248201527f494e56414c49445f415554480000000000000000000000000000000000000000604482015290519081900360640190fd5b6000611a24876000815181106119d557fe5b6020026020010151886001815181106119ea57fe5b6020026020010151896002815181106119ff57fe5b60200260200101518a600381518110611a1457fe5b60200260200101518c8b8b612337565b9050611a3084826123dc565b611226576040805162461bcd60e51b815260206004820152600c60248201527f494e56414c49445f4c414e440000000000000000000000000000000000000000604482015290519081900360640190fd5b6000611a8d84846124a5565b600654909150611acc908590839085906001600160a01b03167f000000000000000000000000000000000000000000000000000000000000000061253f565b50505050565b80600281518110611adf57fe5b602002602001015160011480611b1c57507f00000000000000000000000000000000000000000000000000000000000000006001600160a01b0316155b15611c1e577f00000000000000000000000000000000000000000000000000000000000000006001600160a01b0316636e1e3bbf8383600281518110611b5e57fe5b602002602001015184600081518110611b7357fe5b602002602001015185600181518110611b8857fe5b60200260200101516040518563ffffffff1660e01b815260040180856001600160a01b03166001600160a01b031681526020018481526020018381526020018281526020018060200182810382526000815260200160200195505050505050600060405180830381600087803b158015611c0157600080fd5b505af1158015611c15573d6000803e3d6000fd5b50505050611dbe565b7f00000000000000000000000000000000000000000000000000000000000000006001600160a01b0316636e1e3bbf7f000000000000000000000000000000000000000000000000000000000000000083600281518110611c7b57fe5b602002602001015184600081518110611c9057fe5b602002602001015185600181518110611ca557fe5b60200260200101518760405160200180826001600160a01b03166001600160a01b031681526020019150506040516020818303038152906040526040518663ffffffff1660e01b815260040180866001600160a01b03166001600160a01b0316815260200185815260200184815260200183815260200180602001828103825283818151815260200191508051906020019080838360005b83811015611d55578181015183820152602001611d3d565b50505050905090810190601f168015611d825780820380516001836020036101000a031916815260200191505b509650505050505050600060405180830381600087803b158015611da557600080fd5b505af1158015611db9573d6000803e3d6000fd5b505050505b61019881600181518110611dce57fe5b60200260200101510281600081518110611de457fe5b602002602001015101826001600160a01b0316846001600160a01b03167fe4dfa6ac11314892f3029b34a25b1a887da3b1cab2bbf8506d87128ba6e3ac0284600281518110611e2f57fe5b602002602001015185600381518110611e4457fe5b60200260200101517f000000000000000000000000000000000000000000000000000000000000000087600381518110611e7a57fe5b602002602001015160405180858152602001848152602001836001600160a01b03166001600160a01b0316815260200182815260200194505050505060405180910390a4505050565b6060815167ffffffffffffffff81118015611edd57600080fd5b50604051908082528060200260200182016040528015611f07578160200160208202803683370190505b50905060005b8251811015611f37576001828281518110611f2457fe5b6020908102919091010152600101611f0d565b507f00000000000000000000000000000000000000000000000000000000000000006001600160a01b0316632eb2c2d6308585856040518563ffffffff1660e01b815260040180856001600160a01b03166001600160a01b03168152602001846001600160a01b03166001600160a01b03168152602001806020018060200180602001848103845286818151815260200191508051906020019060200280838360005b83811015611ff2578181015183820152602001611fda565b50505050905001848103835285818151815260200191508051906020019060200280838360005b83811015612031578181015183820152602001612019565b50505050905001848103825260008152602001602001975050505050505050600060405180830381600087803b15801561206a57600080fd5b505af115801561207e573d6000803e3d6000fd5b50505050505050565b6001600160a01b0382166120cc5760405162461bcd60e51b8152600401808060200182810382526025815260200180612b6b6025913960400191505060405180910390fd5b6001600160a01b03821660008181526002602090815260409182902080547fffffffffffffffffffffffffffffffffffffffffffffffffffffffffffffff001685151590811790915582519384529083015280517fb21eb88b4e33b3f1281830a7178d74d8aa73220416215726b68ae23d539515cb9281900390910190a15050565b600081516041146121a6576040805162461bcd60e51b815260206004820152601f60248201527f45434453413a20696e76616c6964207369676e6174757265206c656e67746800604482015290519081900360640190fd5b60208201516040830151606084015160001a7f7fffffffffffffffffffffffffffffff5d576e7357a4501ddfe92f46681b20a08211156122175760405162461bcd60e51b8152600401808060200182810382526022815260200180612ae36022913960400191505060405180910390fd5b8060ff16601b1415801561222f57508060ff16601c14155b1561226b5760405162461bcd60e51b8152600401808060200182810382526022815260200180612b286022913960400191505060405180910390fd5b60408051600080825260208083018085528a905260ff85168385015260608301879052608083018690529251909260019260a080820193601f1981019281900390910190855afa1580156122c3573d6000803e3d6000fd5b5050604051601f1901519150506001600160a01b03811661232b576040805162461bcd60e51b815260206004820152601860248201527f45434453413a20696e76616c6964207369676e61747572650000000000000000604482015290519081900360640190fd5b93505050505b92915050565b60008787878787878760405160200180888152602001878152602001868152602001858152602001846001600160a01b03166001600160a01b031660601b8152601401838152602001828051906020019060200280838360005b838110156123a9578181015183820152602001612391565b50505050905001975050505050505050604051602081830303815290604052805190602001209050979650505050505050565b600081815b845181101561247b5760008582815181106123f857fe5b60200260200101519050808310156124405782816040516020018083815260200182815260200192505050604051602081830303815290604052805190602001209250612472565b808360405160200180838152602001828152602001925050506040516020818303038152906040528051906020012092505b506001016123e1565b507f0000000000000000000000000000000000000000000000000000000000000000149392505050565b6000806124ca60646124be85600563ffffffff61264716565b9063ffffffff6126a716565b90506125276001600160a01b037f000000000000000000000000000000000000000000000000000000000000000016857f00000000000000000000000000000000000000000000000000000000000000008463ffffffff6126e916565b612537838263ffffffff61277116565b949350505050565b8251819085901561262c57606060008060008061255b8a610d2e565b93985091965094509250905060006125768686868686611375565b15612604576125906125888d84612647565b6127106126a7565b9050886001600160a01b0316846001600160a01b0316866001600160a01b03167fac7a699eb95c3c6d390ec4626de17ef9a67b35891efdb197beba7c7fdd45fac48f858760405180848152602001838152602001828152602001935050505060405180910390a46126018782612771565b96505b8015612625576126256001600160a01b0389168e878463ffffffff6126e916565b5050505050505b61207e6001600160a01b03831688868463ffffffff6126e916565b60008261265657506000612331565b8282028284828161266357fe5b04146126a05760405162461bcd60e51b8152600401808060200182810382526021815260200180612b4a6021913960400191505060405180910390fd5b9392505050565b60006126a083836040518060400160405280601a81526020017f536166654d6174683a206469766973696f6e206279207a65726f0000000000008152506127b3565b604080516001600160a01b0380861660248301528416604482015260648082018490528251808303909101815260849091019091526020810180517bffffffffffffffffffffffffffffffffffffffffffffffffffffffff167f23b872dd00000000000000000000000000000000000000000000000000000000179052611acc908590612855565b60006126a083836040518060400160405280601e81526020017f536166654d6174683a207375627472616374696f6e206f766572666c6f77000081525061290b565b6000818361283f5760405162461bcd60e51b81526004018080602001828103825283818151815260200191508051906020019080838360005b838110156128045781810151838201526020016127ec565b50505050905090810190601f1680156128315780820380516001836020036101000a031916815260200191505b509250505060405180910390fd5b50600083858161284b57fe5b0495945050505050565b60606128aa826040518060400160405280602081526020017f5361666545524332303a206c6f772d6c6576656c2063616c6c206661696c6564815250856001600160a01b03166129659092919063ffffffff16565b805190915015612906578080602001905160208110156128c957600080fd5b50516129065760405162461bcd60e51b815260040180806020018281038252602a815260200180612b90602a913960400191505060405180910390fd5b505050565b6000818484111561295d5760405162461bcd60e51b81526020600482018181528351602484015283519092839260449091019190850190808383600083156128045781810151838201526020016127ec565b505050900390565b60606125378484600085606061297a85612adc565b6129cb576040805162461bcd60e51b815260206004820152601d60248201527f416464726573733a2063616c6c20746f206e6f6e2d636f6e7472616374000000604482015290519081900360640190fd5b60006060866001600160a01b031685876040518082805190602001908083835b60208310612a0a5780518252601f1990920191602091820191016129eb565b6001836020036101000a03801982511681845116808217855250505050505090500191505060006040518083038185875af1925050503d8060008114612a6c576040519150601f19603f3d011682016040523d82523d6000602084013e612a71565b606091505b50915091508115612a855791506125379050565b805115612a955780518082602001fd5b60405162461bcd60e51b81526020600482018181528651602484015286518793919283926044019190850190808383600083156128045781810151838201526020016127ec565b3b15159056fe45434453413a20696e76616c6964207369676e6174757265202773272076616c7565526566657272616c56616c696461746f723a2053656e646572206e6f742061646d696e45434453413a20696e76616c6964207369676e6174757265202776272076616c7565536166654d6174683a206d756c7469706c69636174696f6e206f766572666c6f774d6574615472616e73616374696f6e52656365697665723a207a65726f20616464726573735361666545524332303a204552433230206f7065726174696f6e20646964206e6f742073756363656564a264697066735822122077f2d13cbcb85fa08010a53c1e4ef27117b031e8c1c9273d55cef362af299f3164736f6c6343000605003345737461746553616c6557697468417574683a207a65726f20616464726573734d6574615472616e73616374696f6e52656365697665723a207a65726f206164647265737345737461746553616c6557697468417574683a206973206e6f74206120636f6e7472616374",
  "devdoc": {
    "methods": {
      "buyLandWithSand(address,address,address,uint256[],bytes32,uint256[],bytes32[],bytes,bytes)": {
        "params": {
          "assetIds": "asset ids (lands) that will be bought",
          "buyer": "address that perform the payment",
          "info": "[X_INDEX=0] x coordinate of the Land [Y_INDEX=1] y coordinate of the Land [SIZE_INDEX=2] size of the pack of Land to purchase [PRICE_INDEX=3] price in SAND to purchase that Land",
          "proof": "merkleProof for that particular Land",
          "referral": "referral id",
          "reserved": "the reserved address (if any)",
          "salt": "The salt submitted for verification.",
          "signature": "A signed message specifying tx details",
          "to": "address that will own the purchased Land"
        }
      },
      "changeAdmin(address)": {
        "details": "change the administrator to be `newAdmin`.",
        "params": {
          "newAdmin": "address of the new administrator."
        }
      },
      "disablePreviousSigningWallet(address)": {
        "details": "Disable compromised signing wallet",
        "params": {
          "disableWallet": "The wallet address to be disabled"
        }
      },
      "getAdmin()": {
        "details": "gives the current administrator of this contract.",
        "returns": {
          "_0": "the current administrator of this contract."
        }
      },
      "getSigningWallet()": {
        "details": "signing wallet authorized for referral",
        "returns": {
          "_0": "the address of the signing wallet"
        }
      },
      "isMetaTransactionProcessor(address)": {
        "details": "check whether address `who` is given meta-transaction execution rights.",
        "params": {
          "who": "The address to query."
        },
        "returns": {
          "_0": "whether the address has meta-transaction execution rights."
        }
      },
      "isReferralValid(bytes,address,address,uint256,uint256)": {
        "params": {
          "commissionRate": "The commissionRate of the referral",
          "expiryTime": "The expiry time of the referral",
          "referee": "The address of the referee",
          "referrer": "The address of the referrer",
          "signature": "The signature to check (signed referral)"
        },
        "returns": {
          "_0": "True if the referral is valid"
        }
      },
      "setMetaTransactionProcessor(address,bool)": {
        "details": "Enable or disable the ability of `metaTransactionProcessor` to perform meta-tx (metaTransactionProcessor rights).",
        "params": {
          "enabled": "set whether the metaTransactionProcessor is enabled or disabled.",
          "metaTransactionProcessor": "address that will be given/removed metaTransactionProcessor rights."
        }
      },
      "setReceivingWallet(address)": {
        "params": {
          "newWallet": "address of the new receiving wallet"
        }
      },
      "updateMaxCommissionRate(uint256)": {
        "details": "Update the maximum commission rate",
        "params": {
          "newMaxCommissionRate": "The new maximum commission rate"
        }
      },
      "updateSigningWallet(address)": {
        "details": "Update the signing wallet The previous wallet is still valid for a grace period (_previousSigningDelay). If you want to disable the previous wallet, use the disablePreviousSigningWallet function.",
        "params": {
          "newSigningWallet": "The new address of the signing wallet"
        }
      },
      "withdrawAssets(address,uint256[],uint256[])": {
        "params": {
          "assetIds": "the assetIds to be transferred",
          "to": "intended recipient of the asset tokens",
          "values": "the quantities of the assetIds to be transferred"
        }
      }
    },
    "title": "Estate Sale contract with referral"
  },
  "userdoc": {
    "methods": {
      "buyLandWithSand(address,address,address,uint256[],bytes32,uint256[],bytes32[],bytes,bytes)": {
        "notice": "buy Land with SAND using the merkle proof associated with it"
      },
      "getExpiryTime()": {
        "notice": "Gets the expiry time for the current sale"
      },
      "getMaxCommissionRate()": {
        "notice": "the max commission rate"
      },
      "getMerkleRoot()": {
        "notice": "Gets the Merkle root associated with the current sale"
      },
      "isReferralValid(bytes,address,address,uint256,uint256)": {
        "notice": "Check if a referral is valid"
      },
      "setReceivingWallet(address)": {
        "notice": "set the wallet receiving the proceeds"
      },
      "withdrawAssets(address,uint256[],uint256[])": {
        "notice": "enable Admin to withdraw remaining assets from EstateSaleWithFee contract"
      }
    },
    "notice": "This contract manages the sale of our lands as Estates"
  },
  "storageLayout": {
    "storage": [
      {
        "astId": 1129,
        "contract": "src/solc_0.6/EstateSale/EstateSaleWithAuth.sol:EstateSaleWithAuth",
        "label": "_status",
        "offset": 0,
        "slot": "0",
        "type": "t_uint256"
      },
      {
        "astId": 14099,
        "contract": "src/solc_0.6/EstateSale/EstateSaleWithAuth.sol:EstateSaleWithAuth",
        "label": "_admin",
        "offset": 0,
        "slot": "1",
        "type": "t_address"
      },
      {
        "astId": 14168,
        "contract": "src/solc_0.6/EstateSale/EstateSaleWithAuth.sol:EstateSaleWithAuth",
        "label": "_metaTransactionContracts",
        "offset": 0,
        "slot": "2",
        "type": "t_mapping(t_address,t_bool)"
      },
      {
        "astId": 12200,
        "contract": "src/solc_0.6/EstateSale/EstateSaleWithAuth.sol:EstateSaleWithAuth",
        "label": "_signingWallet",
        "offset": 0,
        "slot": "3",
        "type": "t_address"
      },
      {
        "astId": 12202,
        "contract": "src/solc_0.6/EstateSale/EstateSaleWithAuth.sol:EstateSaleWithAuth",
        "label": "_maxCommissionRate",
        "offset": 0,
        "slot": "4",
        "type": "t_uint256"
      },
      {
        "astId": 12206,
        "contract": "src/solc_0.6/EstateSale/EstateSaleWithAuth.sol:EstateSaleWithAuth",
        "label": "_previousSigningWallets",
        "offset": 0,
        "slot": "5",
        "type": "t_mapping(t_address,t_uint256)"
      },
      {
        "astId": 7750,
        "contract": "src/solc_0.6/EstateSale/EstateSaleWithAuth.sol:EstateSaleWithAuth",
        "label": "_wallet",
        "offset": 0,
        "slot": "6",
        "type": "t_address_payable"
      },
      {
        "astId": 7752,
        "contract": "src/solc_0.6/EstateSale/EstateSaleWithAuth.sol:EstateSaleWithAuth",
        "label": "_authValidator",
        "offset": 0,
        "slot": "7",
        "type": "t_contract(AuthValidator)7063"
      }
    ],
    "types": {
      "t_address": {
        "encoding": "inplace",
        "label": "address",
        "numberOfBytes": "20"
      },
      "t_address_payable": {
        "encoding": "inplace",
        "label": "address payable",
        "numberOfBytes": "20"
      },
      "t_bool": {
        "encoding": "inplace",
        "label": "bool",
        "numberOfBytes": "1"
      },
      "t_contract(AuthValidator)7063": {
        "encoding": "inplace",
        "label": "contract AuthValidator",
        "numberOfBytes": "20"
      },
      "t_mapping(t_address,t_bool)": {
        "encoding": "mapping",
        "key": "t_address",
        "label": "mapping(address => bool)",
        "numberOfBytes": "32",
        "value": "t_bool"
      },
      "t_mapping(t_address,t_uint256)": {
        "encoding": "mapping",
        "key": "t_address",
        "label": "mapping(address => uint256)",
        "numberOfBytes": "32",
        "value": "t_uint256"
      },
      "t_uint256": {
        "encoding": "inplace",
        "label": "uint256",
        "numberOfBytes": "32"
      }
    }
  }
}