{
  "address": "0x84cc0720A7FC3caa20D58B8950DE5492149eB6b2",
  "abi": [
    {
      "inputs": [
        {
          "internalType": "address",
          "name": "_childChainManagerProxy",
          "type": "address"
        },
        {
          "internalType": "address",
          "name": "trustedForwarder",
          "type": "address"
        },
        {
          "internalType": "address",
          "name": "sandAdmin",
          "type": "address"
        },
        {
          "internalType": "address",
          "name": "executionAdmin",
          "type": "address"
        }
      ],
      "stateMutability": "nonpayable",
      "type": "constructor"
    },
    {
      "anonymous": false,
      "inputs": [
        {
          "indexed": true,
          "internalType": "address",
          "name": "oldAdmin",
          "type": "address"
        },
        {
          "indexed": true,
          "internalType": "address",
          "name": "newAdmin",
          "type": "address"
        }
      ],
      "name": "AdminChanged",
      "type": "event"
    },
    {
      "anonymous": false,
      "inputs": [
        {
          "indexed": true,
          "internalType": "address",
          "name": "owner",
          "type": "address"
        },
        {
          "indexed": true,
          "internalType": "address",
          "name": "spender",
          "type": "address"
        },
        {
          "indexed": false,
          "internalType": "uint256",
          "name": "value",
          "type": "uint256"
        }
      ],
      "name": "Approval",
      "type": "event"
    },
    {
      "anonymous": false,
      "inputs": [
        {
          "indexed": true,
          "internalType": "address",
          "name": "previousOwner",
          "type": "address"
        },
        {
          "indexed": true,
          "internalType": "address",
          "name": "newOwner",
          "type": "address"
        }
      ],
      "name": "OwnershipTransferred",
      "type": "event"
    },
    {
      "anonymous": false,
      "inputs": [
        {
          "indexed": true,
          "internalType": "address",
          "name": "superOperator",
          "type": "address"
        },
        {
          "indexed": true,
          "internalType": "bool",
          "name": "enabled",
          "type": "bool"
        }
      ],
      "name": "SuperOperator",
      "type": "event"
    },
    {
      "anonymous": false,
      "inputs": [
        {
          "indexed": true,
          "internalType": "address",
          "name": "from",
          "type": "address"
        },
        {
          "indexed": true,
          "internalType": "address",
          "name": "to",
          "type": "address"
        },
        {
          "indexed": false,
          "internalType": "uint256",
          "name": "value",
          "type": "uint256"
        }
      ],
      "name": "Transfer",
      "type": "event"
    },
    {
      "inputs": [
        {
          "internalType": "address",
          "name": "owner",
          "type": "address"
        },
        {
          "internalType": "address",
          "name": "spender",
          "type": "address"
        },
        {
          "internalType": "uint256",
          "name": "amountNeeded",
          "type": "uint256"
        }
      ],
      "name": "addAllowanceIfNeeded",
      "outputs": [
        {
          "internalType": "bool",
          "name": "success",
          "type": "bool"
        }
      ],
      "stateMutability": "nonpayable",
      "type": "function"
    },
    {
      "inputs": [
        {
          "internalType": "address",
          "name": "owner",
          "type": "address"
        },
        {
          "internalType": "address",
          "name": "spender",
          "type": "address"
        }
      ],
      "name": "allowance",
      "outputs": [
        {
          "internalType": "uint256",
          "name": "remaining",
          "type": "uint256"
        }
      ],
      "stateMutability": "view",
      "type": "function"
    },
    {
      "inputs": [
        {
          "internalType": "address",
          "name": "spender",
          "type": "address"
        },
        {
          "internalType": "uint256",
          "name": "amount",
          "type": "uint256"
        }
      ],
      "name": "approve",
      "outputs": [
        {
          "internalType": "bool",
          "name": "success",
          "type": "bool"
        }
      ],
      "stateMutability": "nonpayable",
      "type": "function"
    },
    {
      "inputs": [
        {
          "internalType": "address",
          "name": "target",
          "type": "address"
        },
        {
          "internalType": "uint256",
          "name": "amount",
          "type": "uint256"
        },
        {
          "internalType": "bytes",
          "name": "data",
          "type": "bytes"
        }
      ],
      "name": "approveAndCall",
      "outputs": [
        {
          "internalType": "bytes",
          "name": "",
          "type": "bytes"
        }
      ],
      "stateMutability": "payable",
      "type": "function"
    },
    {
      "inputs": [
        {
          "internalType": "address",
          "name": "owner",
          "type": "address"
        },
        {
          "internalType": "address",
          "name": "spender",
          "type": "address"
        },
        {
          "internalType": "uint256",
          "name": "amount",
          "type": "uint256"
        }
      ],
      "name": "approveFor",
      "outputs": [
        {
          "internalType": "bool",
          "name": "success",
          "type": "bool"
        }
      ],
      "stateMutability": "nonpayable",
      "type": "function"
    },
    {
      "inputs": [
        {
          "internalType": "address",
          "name": "owner",
          "type": "address"
        }
      ],
      "name": "balanceOf",
      "outputs": [
        {
          "internalType": "uint256",
          "name": "",
          "type": "uint256"
        }
      ],
      "stateMutability": "view",
      "type": "function"
    },
    {
      "inputs": [
        {
          "internalType": "uint256",
          "name": "amount",
          "type": "uint256"
        }
      ],
      "name": "burn",
      "outputs": [],
      "stateMutability": "nonpayable",
      "type": "function"
    },
    {
      "inputs": [
        {
          "internalType": "address",
          "name": "from",
          "type": "address"
        },
        {
          "internalType": "uint256",
          "name": "amount",
          "type": "uint256"
        }
      ],
      "name": "burnFor",
      "outputs": [],
      "stateMutability": "nonpayable",
      "type": "function"
    },
    {
      "inputs": [
        {
          "internalType": "address",
          "name": "newAdmin",
          "type": "address"
        }
      ],
      "name": "changeAdmin",
      "outputs": [],
      "stateMutability": "nonpayable",
      "type": "function"
    },
    {
      "inputs": [],
      "name": "childChainManagerProxy",
      "outputs": [
        {
          "internalType": "address",
          "name": "",
          "type": "address"
        }
      ],
      "stateMutability": "view",
      "type": "function"
    },
    {
      "inputs": [],
      "name": "decimals",
      "outputs": [
        {
          "internalType": "uint8",
          "name": "",
          "type": "uint8"
        }
      ],
      "stateMutability": "pure",
      "type": "function"
    },
    {
      "inputs": [
        {
          "internalType": "address",
          "name": "user",
          "type": "address"
        },
        {
          "internalType": "bytes",
          "name": "depositData",
          "type": "bytes"
        }
      ],
      "name": "deposit",
      "outputs": [],
      "stateMutability": "nonpayable",
      "type": "function"
    },
    {
      "inputs": [],
      "name": "getAdmin",
      "outputs": [
        {
          "internalType": "address",
          "name": "",
          "type": "address"
        }
      ],
      "stateMutability": "view",
      "type": "function"
    },
    {
      "inputs": [],
      "name": "getTrustedForwarder",
      "outputs": [
        {
          "internalType": "address",
          "name": "trustedForwarder",
          "type": "address"
        }
      ],
      "stateMutability": "view",
      "type": "function"
    },
    {
      "inputs": [
        {
          "internalType": "address",
          "name": "who",
          "type": "address"
        }
      ],
      "name": "isSuperOperator",
      "outputs": [
        {
          "internalType": "bool",
          "name": "",
          "type": "bool"
        }
      ],
      "stateMutability": "view",
      "type": "function"
    },
    {
      "inputs": [
        {
          "internalType": "address",
          "name": "forwarder",
          "type": "address"
        }
      ],
      "name": "isTrustedForwarder",
      "outputs": [
        {
          "internalType": "bool",
          "name": "",
          "type": "bool"
        }
      ],
      "stateMutability": "view",
      "type": "function"
    },
    {
      "inputs": [],
      "name": "name",
      "outputs": [
        {
          "internalType": "string",
          "name": "",
          "type": "string"
        }
      ],
      "stateMutability": "view",
      "type": "function"
    },
    {
      "inputs": [],
      "name": "owner",
      "outputs": [
        {
          "internalType": "address",
          "name": "",
          "type": "address"
        }
      ],
      "stateMutability": "view",
      "type": "function"
    },
    {
      "inputs": [
        {
          "internalType": "address",
          "name": "target",
          "type": "address"
        },
        {
          "internalType": "uint256",
          "name": "amount",
          "type": "uint256"
        },
        {
          "internalType": "bytes",
          "name": "data",
          "type": "bytes"
        }
      ],
      "name": "paidCall",
      "outputs": [
        {
          "internalType": "bytes",
          "name": "",
          "type": "bytes"
        }
      ],
      "stateMutability": "payable",
      "type": "function"
    },
    {
      "inputs": [],
      "name": "renounceOwnership",
      "outputs": [],
      "stateMutability": "nonpayable",
      "type": "function"
    },
    {
      "inputs": [
        {
          "internalType": "address",
          "name": "superOperator",
          "type": "address"
        },
        {
          "internalType": "bool",
          "name": "enabled",
          "type": "bool"
        }
      ],
      "name": "setSuperOperator",
      "outputs": [],
      "stateMutability": "nonpayable",
      "type": "function"
    },
    {
      "inputs": [
        {
          "internalType": "address",
          "name": "trustedForwarder",
          "type": "address"
        }
      ],
      "name": "setTrustedForwarder",
      "outputs": [],
      "stateMutability": "nonpayable",
      "type": "function"
    },
    {
      "inputs": [],
      "name": "symbol",
      "outputs": [
        {
          "internalType": "string",
          "name": "",
          "type": "string"
        }
      ],
      "stateMutability": "view",
      "type": "function"
    },
    {
      "inputs": [],
      "name": "totalSupply",
      "outputs": [
        {
          "internalType": "uint256",
          "name": "",
          "type": "uint256"
        }
      ],
      "stateMutability": "view",
      "type": "function"
    },
    {
      "inputs": [
        {
          "internalType": "address",
          "name": "to",
          "type": "address"
        },
        {
          "internalType": "uint256",
          "name": "amount",
          "type": "uint256"
        }
      ],
      "name": "transfer",
      "outputs": [
        {
          "internalType": "bool",
          "name": "success",
          "type": "bool"
        }
      ],
      "stateMutability": "nonpayable",
      "type": "function"
    },
    {
      "inputs": [
        {
          "internalType": "address",
          "name": "from",
          "type": "address"
        },
        {
          "internalType": "address",
          "name": "to",
          "type": "address"
        },
        {
          "internalType": "uint256",
          "name": "amount",
          "type": "uint256"
        }
      ],
      "name": "transferFrom",
      "outputs": [
        {
          "internalType": "bool",
          "name": "success",
          "type": "bool"
        }
      ],
      "stateMutability": "nonpayable",
      "type": "function"
    },
    {
      "inputs": [
        {
          "internalType": "address",
          "name": "newOwner",
          "type": "address"
        }
      ],
      "name": "transferOwnership",
      "outputs": [],
      "stateMutability": "nonpayable",
      "type": "function"
    },
    {
      "inputs": [
        {
          "internalType": "address",
          "name": "newChildChainManagerProxy",
          "type": "address"
        }
      ],
      "name": "updateChildChainManager",
      "outputs": [],
      "stateMutability": "nonpayable",
      "type": "function"
    },
    {
      "inputs": [
        {
          "internalType": "uint256",
          "name": "amount",
          "type": "uint256"
        }
      ],
      "name": "withdraw",
      "outputs": [],
      "stateMutability": "nonpayable",
      "type": "function"
    }
  ],
  "transactionHash": "0x0870ee072c66efcba6c11f40f421c92a7995fa6bc3d66ef7c8d552d622121f66",
  "args": [
    "0x69DC4db16CA8EeEA67B91080753995ED0D2077fD",
    "0x8E919d356CC004a11e7eB1309a530DFa5972dB9d",
    "0x9197A1CCdC89891b7533152053E9F503D7D4Bb2A",
    "0x9197A1CCdC89891b7533152053E9F503D7D4Bb2A"
  ],
  "numDeployments": 1,
  "solcInputHash": "145df613a093fbba5360a1afb142b8e3",
  "bytecode": "0x60a06040523480156200001157600080fd5b50604051620022ee380380620022ee8339810160408190526200003491620004a7565b81816000806040518060400160405280600481526020016314d0539160e21b8152506040518060400160405280600481526020016314d0539160e21b815250858583600290805190602001906200008d929190620003e9565b508251620000a3906003906020860190620003e9565b506000805460609290921b6001600160601b0319166080526001600160a01b03199182166001600160a01b039384161790911688831617905584161591506200010e9050576000620000fe82670de0b6b3a76400006200051e565b90506200010c8382620001df565b505b505050506200012c620001266200033860201b60201c565b62000355565b6001600160a01b038416620001935760405162461bcd60e51b815260206004820152602260248201527f426164204368696c64436861696e4d616e6167657250726f7879206164647265604482015261737360f01b60648201526084015b60405180910390fd5b600980546001600160a01b0319166001600160a01b038616179055620001d583600880546001600160a01b0319166001600160a01b0392909216919091179055565b5050505062000593565b6001600160a01b0382166200022c5760405162461bcd60e51b81526020600482015260126024820152714e4f545f544f5f5a45524f4144445245535360701b60448201526064016200018a565b600081116200026e5760405162461bcd60e51b815260206004820152600d60248201526c4d494e545f4f5f544f4b454e5360981b60448201526064016200018a565b60045460006200027f838362000503565b9050818111620002bd5760405162461bcd60e51b81526020600482015260086024820152674f564552464c4f5760c01b60448201526064016200018a565b60048190556001600160a01b03841660009081526005602052604081208054859290620002ec90849062000503565b90915550506040518381526001600160a01b038516906000907fddf252ad1be2c89b69c2b068fc378daa952ba7f163c4a11628f55a4df523b3ef9060200160405180910390a350505050565b60006200034f620003a760201b620011741760201c565b90505b90565b600780546001600160a01b038381166001600160a01b0319831681179093556040519116919082907f8be0079c531659141344cd1fd0a4f28419497f9722a3daafe3b4186f6b6457e090600090a35050565b6000620003b433620003d2565b15620003ca575060131936013560601c62000352565b503362000352565b6008546001600160a01b038281169116145b919050565b828054620003f79062000540565b90600052602060002090601f0160209004810192826200041b576000855562000466565b82601f106200043657805160ff191683800117855562000466565b8280016001018555821562000466579182015b828111156200046657825182559160200191906001019062000449565b506200047492915062000478565b5090565b5b8082111562000474576000815560010162000479565b80516001600160a01b0381168114620003e457600080fd5b60008060008060808587031215620004bd578384fd5b620004c8856200048f565b9350620004d8602086016200048f565b9250620004e8604086016200048f565b9150620004f8606086016200048f565b905092959194509250565b600082198211156200051957620005196200057d565b500190565b60008160001904831182151516156200053b576200053b6200057d565b500290565b6002810460018216806200055557607f821691505b602082108114156200057757634e487b7160e01b600052602260045260246000fd5b50919050565b634e487b7160e01b600052601160045260246000fd5b60805160601c611d20620005ce600039600081816106af0152818161083e0152818161093a0152818161133d01526117240152611d206000f3fe6080604052600436106101c25760003560e01c80636e9960c3116100f7578063ac9fe42111610095578063cf2c52cb11610064578063cf2c52cb146104f0578063da74222814610510578063dd62ed3e14610530578063f2fde38b14610576576101c2565b8063ac9fe4211461048c578063bb1e23cb146104ac578063cae9ca51146104bf578063ce1b815f146104d2576101c2565b80638da5cb5b116100d15780638da5cb5b146104195780638f2839701461043757806395d89b4114610457578063a9059cbb1461046c576101c2565b80636e9960c3146103b057806370a08231146103ce578063715018a614610404576101c2565b8063313ce56711610164578063445a67971161013e578063445a6797146102ff578063572b6c051461031f57806362f629e71461033f578063654b748a14610377576101c2565b8063313ce567146102c35780633b7b5a16146102df57806342966c68146102a3576101c2565b80631dd319cb116101a05780631dd319cb1461024157806323b872dd146102635780632b991746146102835780632e1a7d4d146102a3576101c2565b806306fdde03146101c7578063095ea7b3146101f257806318160ddd14610222575b600080fd5b3480156101d357600080fd5b506101dc610596565b6040516101e99190611c25565b60405180910390f35b3480156101fe57600080fd5b5061021261020d366004611b13565b610629565b60405190151581526020016101e9565b34801561022e57600080fd5b506004545b6040519081526020016101e9565b34801561024d57600080fd5b5061026161025c366004611b13565b610647565b005b34801561026f57600080fd5b5061021261027e366004611a4d565b610655565b34801561028f57600080fd5b5061021261029e366004611a4d565b6107e8565b3480156102af57600080fd5b506102616102be366004611b94565b6108d0565b3480156102cf57600080fd5b50604051601281526020016101e9565b3480156102eb57600080fd5b506102126102fa366004611a4d565b6108e4565b34801561030b57600080fd5b5061026161031a3660046119fa565b6109cc565b34801561032b57600080fd5b5061021261033a3660046119fa565b610af0565b34801561034b57600080fd5b5060095461035f906001600160a01b031681565b6040516001600160a01b0390911681526020016101e9565b34801561038357600080fd5b506102126103923660046119fa565b6001600160a01b031660009081526001602052604090205460ff1690565b3480156103bc57600080fd5b506000546001600160a01b031661035f565b3480156103da57600080fd5b506102336103e93660046119fa565b6001600160a01b031660009081526005602052604090205490565b34801561041057600080fd5b50610261610b07565b34801561042557600080fd5b506007546001600160a01b031661035f565b34801561044357600080fd5b506102616104523660046119fa565b610b8c565b34801561046357600080fd5b506101dc610c4e565b34801561047857600080fd5b50610212610487366004611b13565b610c5d565b34801561049857600080fd5b506102616104a7366004611a88565b610c71565b6101dc6104ba366004611b3c565b610d63565b6101dc6104cd366004611b3c565b610ea1565b3480156104de57600080fd5b506008546001600160a01b031661035f565b3480156104fc57600080fd5b5061026161050b366004611ac2565b610f44565b34801561051c57600080fd5b5061026161052b3660046119fa565b610fce565b34801561053c57600080fd5b5061023361054b366004611a1b565b6001600160a01b03918216600090815260066020908152604080832093909416825291909152205490565b34801561058257600080fd5b506102616105913660046119fa565b611076565b6060600280546105a590611c67565b80601f01602080910402602001604051908101604052809291908181526020018280546105d190611c67565b801561061e5780601f106105f35761010080835404028352916020019161061e565b820191906000526020600020905b81548152906001019060200180831161060157829003601f168201915b505050505090505b90565b600061063d6106366111b8565b84846111c7565b5060015b92915050565b6106518282611295565b5050565b6000836001600160a01b03166106696111b8565b6001600160a01b0316141580156106a65750600160006106876111b8565b6001600160a01b0316815260208101919091526040016000205460ff16155b80156106eb57507f00000000000000000000000000000000000000000000000000000000000000006001600160a01b03166106df6111b8565b6001600160a01b031614155b156107d3576001600160a01b0384166000908152600660205260408120816107116111b8565b6001600160a01b03168152602081019190915260400160002054905060001981146107d1578281101561078b5760405162461bcd60e51b815260206004820152601860248201527f4e4f545f415554484f52495a45445f414c4c4f57414e4345000000000000000060448201526064015b60405180910390fd5b6107958382611c50565b6001600160a01b0386166000908152600660205260408120906107b66111b8565b6001600160a01b031681526020810191909152604001600020555b505b6107de848484611540565b5060019392505050565b6000836001600160a01b03166107fc6111b8565b6001600160a01b031614806108365750600160006108186111b8565b6001600160a01b0316815260208101919091526040016000205460ff165b8061087957507f00000000000000000000000000000000000000000000000000000000000000006001600160a01b031661086e6111b8565b6001600160a01b0316145b6108c55760405162461bcd60e51b815260206004820152600e60248201527f4e4f545f415554484f52495a45440000000000000000000000000000000000006044820152606401610782565b6107de8484846111c7565b6108e16108db6111b8565b82611295565b50565b6000836001600160a01b03166108f86111b8565b6001600160a01b031614806109325750600160006109146111b8565b6001600160a01b0316815260208101919091526040016000205460ff165b8061097557507f00000000000000000000000000000000000000000000000000000000000000006001600160a01b031661096a6111b8565b6001600160a01b0316145b6109c15760405162461bcd60e51b815260206004820152600e60248201527f494e56414c49445f53454e4445520000000000000000000000000000000000006044820152606401610782565b6107de8484846116f2565b6109d46111b8565b6001600160a01b03166109ef6007546001600160a01b031690565b6001600160a01b031614610a455760405162461bcd60e51b815260206004820181905260248201527f4f776e61626c653a2063616c6c6572206973206e6f7420746865206f776e65726044820152606401610782565b6001600160a01b038116610ac15760405162461bcd60e51b815260206004820152602260248201527f426164204368696c64436861696e4d616e6167657250726f787920616464726560448201527f73730000000000000000000000000000000000000000000000000000000000006064820152608401610782565b6009805473ffffffffffffffffffffffffffffffffffffffff19166001600160a01b0392909216919091179055565b6008546001600160a01b038281169116145b919050565b610b0f6111b8565b6001600160a01b0316610b2a6007546001600160a01b031690565b6001600160a01b031614610b805760405162461bcd60e51b815260206004820181905260248201527f4f776e61626c653a2063616c6c6572206973206e6f7420746865206f776e65726044820152606401610782565b610b8a600061179c565b565b6000546001600160a01b03163314610be65760405162461bcd60e51b815260206004820152601360248201527f41444d494e5f4143434553535f44454e494544000000000000000000000000006044820152606401610782565b600080546040516001600160a01b03808516939216917f7e644d79422f17c01e4894b5f4f588d331ebfa28653d42ae832dc59e38c9798f91a36000805473ffffffffffffffffffffffffffffffffffffffff19166001600160a01b0392909216919091179055565b6060600380546105a590611c67565b600061063d610c6a6111b8565b8484611540565b6000546001600160a01b03163314610cf15760405162461bcd60e51b815260206004820152602c60248201527f6f6e6c792061646d696e20697320616c6c6f77656420746f206164642073757060448201527f6572206f70657261746f727300000000000000000000000000000000000000006064820152608401610782565b6001600160a01b03821660008181526001602052604080822080547fffffffffffffffffffffffffffffffffffffffffffffffffffffffffffffff001685151590811790915590519092917f44f92d27abdf4cfb6a7d712c3af68f3be086d4ca747ab802c36f67d6790060d891a35050565b6060610dad83838080601f016020809104026020016040519081016040528093929190818152602001838380828437600092019190915250610da892506111b8915050565b6117fb565b610df95760405162461bcd60e51b815260206004820152601660248201527f46495253545f504152414d5f4e4f545f53454e444552000000000000000000006044820152606401610782565b8315610e1157610e11610e0a6111b8565b86866116f2565b600080866001600160a01b0316348686604051610e2f929190611c15565b60006040518083038185875af1925050503d8060008114610e6c576040519150601f19603f3d011682016040523d82523d6000602084013e610e71565b606091505b5091509150818190610e965760405162461bcd60e51b81526004016107829190611c25565b509695505050505050565b6060610ee683838080601f016020809104026020016040519081016040528093929190818152602001838380828437600092019190915250610da892506111b8915050565b610f325760405162461bcd60e51b815260206004820152601660248201527f46495253545f504152414d5f4e4f545f53454e444552000000000000000000006044820152606401610782565b610e11610f3d6111b8565b86866111c7565b6009546001600160a01b0316610f586111b8565b6001600160a01b031614610fae5760405162461bcd60e51b815260206004820152601d60248201527f596f75277265206e6f7420616c6c6f77656420746f206465706f7369740000006044820152606401610782565b6000610fbc82840184611b94565b9050610fc88482611826565b50505050565b610fd66111b8565b6001600160a01b0316610ff16007546001600160a01b031690565b6001600160a01b0316146110475760405162461bcd60e51b815260206004820181905260248201527f4f776e61626c653a2063616c6c6572206973206e6f7420746865206f776e65726044820152606401610782565b6008805473ffffffffffffffffffffffffffffffffffffffff19166001600160a01b0392909216919091179055565b61107e6111b8565b6001600160a01b03166110996007546001600160a01b031690565b6001600160a01b0316146110ef5760405162461bcd60e51b815260206004820181905260248201527f4f776e61626c653a2063616c6c6572206973206e6f7420746865206f776e65726044820152606401610782565b6001600160a01b03811661116b5760405162461bcd60e51b815260206004820152602660248201527f4f776e61626c653a206e6577206f776e657220697320746865207a65726f206160448201527f64647265737300000000000000000000000000000000000000000000000000006064820152608401610782565b6108e18161179c565b600061117f33610af0565b156111b157507fffffffffffffffffffffffffffffffffffffffffffffffffffffffffffffffec36013560601c610626565b5033610626565b60006111c2611174565b905090565b6001600160a01b038316158015906111e757506001600160a01b03821615155b6112335760405162461bcd60e51b815260206004820152601860248201527f494e56414c49445f4f574e45525f7c7c5f5350454e44455200000000000000006044820152606401610782565b6001600160a01b0383811660008181526006602090815260408083209487168084529482529182902085905590518481527f8c5be1e5ebec7d5bd14f71427d1e84f3dd0314c0f7b2291e5b200ac8c7c3b92591015b60405180910390a3505050565b600081116112e55760405162461bcd60e51b815260206004820152600d60248201527f4255524e5f4f5f544f4b454e53000000000000000000000000000000000000006044820152606401610782565b816001600160a01b03166112f76111b8565b6001600160a01b0316141580156113345750600160006113156111b8565b6001600160a01b0316815260208101919091526040016000205460ff16155b801561137957507f00000000000000000000000000000000000000000000000000000000000000006001600160a01b031661136d6111b8565b6001600160a01b031614155b1561145c576001600160a01b03821660009081526006602052604081208161139f6111b8565b6001600160a01b031681526020810191909152604001600020549050600019811461145a57818110156114145760405162461bcd60e51b815260206004820152601660248201527f494e53554646494349454e545f414c4c4f57414e4345000000000000000000006044820152606401610782565b61141e8282611c50565b6001600160a01b03841660009081526006602052604081209061143f6111b8565b6001600160a01b031681526020810191909152604001600020555b505b6001600160a01b038216600090815260056020526040902054818110156114c55760405162461bcd60e51b815260206004820152601260248201527f494e53554646494349454e545f46554e445300000000000000000000000000006044820152606401610782565b6114cf8282611c50565b6001600160a01b038416600090815260056020526040812091909155600480548492906114fd908490611c50565b90915550506040518281526000906001600160a01b038516907fddf252ad1be2c89b69c2b068fc378daa952ba7f163c4a11628f55a4df523b3ef90602001611288565b6001600160a01b0382166115965760405162461bcd60e51b815260206004820152601260248201527f4e4f545f544f5f5a45524f4144445245535300000000000000000000000000006044820152606401610782565b6001600160a01b0382163014156115ef5760405162461bcd60e51b815260206004820152600b60248201527f4e4f545f544f5f544849530000000000000000000000000000000000000000006044820152606401610782565b6001600160a01b038316600090815260056020526040902054818110156116585760405162461bcd60e51b815260206004820152601260248201527f494e53554646494349454e545f46554e445300000000000000000000000000006044820152606401610782565b6116628282611c50565b6001600160a01b038086166000908152600560205260408082209390935590851681529081208054849290611698908490611c38565b92505081905550826001600160a01b0316846001600160a01b03167fddf252ad1be2c89b69c2b068fc378daa952ba7f163c4a11628f55a4df523b3ef846040516116e491815260200190565b60405180910390a350505050565b60008111801561171b57506001600160a01b03821660009081526001602052604090205460ff16155b801561175957507f00000000000000000000000000000000000000000000000000000000000000006001600160a01b0316826001600160a01b031614155b15611797576001600160a01b0380841660009081526006602090815260408083209386168352929052205481811015610fc857610fc88484846111c7565b505050565b600780546001600160a01b0383811673ffffffffffffffffffffffffffffffffffffffff19831681179093556040519116919082907f8be0079c531659141344cd1fd0a4f28419497f9722a3daafe3b4186f6b6457e090600090a35050565b600060448351101561180f57506000610641565b5060248201516001600160a01b0382161492915050565b6001600160a01b03821661187c5760405162461bcd60e51b815260206004820152601260248201527f4e4f545f544f5f5a45524f4144445245535300000000000000000000000000006044820152606401610782565b600081116118cc5760405162461bcd60e51b815260206004820152600d60248201527f4d494e545f4f5f544f4b454e53000000000000000000000000000000000000006044820152606401610782565b60045460006118db8383611c38565b905081811161192c5760405162461bcd60e51b815260206004820152600860248201527f4f564552464c4f570000000000000000000000000000000000000000000000006044820152606401610782565b60048190556001600160a01b03841660009081526005602052604081208054859290611959908490611c38565b90915550506040518381526001600160a01b038516906000907fddf252ad1be2c89b69c2b068fc378daa952ba7f163c4a11628f55a4df523b3ef906020016116e4565b80356001600160a01b0381168114610b0257600080fd5b60008083601f8401126119c4578182fd5b50813567ffffffffffffffff8111156119db578182fd5b6020830191508360208285010111156119f357600080fd5b9250929050565b600060208284031215611a0b578081fd5b611a148261199c565b9392505050565b60008060408385031215611a2d578081fd5b611a368361199c565b9150611a446020840161199c565b90509250929050565b600080600060608486031215611a61578081fd5b611a6a8461199c565b9250611a786020850161199c565b9150604084013590509250925092565b60008060408385031215611a9a578182fd5b611aa38361199c565b915060208301358015158114611ab7578182fd5b809150509250929050565b600080600060408486031215611ad6578283fd5b611adf8461199c565b9250602084013567ffffffffffffffff811115611afa578283fd5b611b06868287016119b3565b9497909650939450505050565b60008060408385031215611b25578182fd5b611b2e8361199c565b946020939093013593505050565b60008060008060608587031215611b51578081fd5b611b5a8561199c565b935060208501359250604085013567ffffffffffffffff811115611b7c578182fd5b611b88878288016119b3565b95989497509550505050565b600060208284031215611ba5578081fd5b5035919050565b60008151808452815b81811015611bd157602081850181015186830182015201611bb5565b81811115611be25782602083870101525b50601f017fffffffffffffffffffffffffffffffffffffffffffffffffffffffffffffffe0169290920160200192915050565b6000828483379101908152919050565b600060208252611a146020830184611bac565b60008219821115611c4b57611c4b611cbb565b500190565b600082821015611c6257611c62611cbb565b500390565b600281046001821680611c7b57607f821691505b60208210811415611cb5577f4e487b7100000000000000000000000000000000000000000000000000000000600052602260045260246000fd5b50919050565b7f4e487b7100000000000000000000000000000000000000000000000000000000600052601160045260246000fdfea26469706673582212208d5e6b4316273a6b35e0b70c29978069d65354ff1802dc6a0429338340e89a6964736f6c63430008020033",
  "devdoc": {
    "kind": "dev",
    "methods": {
      "addAllowanceIfNeeded(address,address,uint256)": {
        "params": {
          "amountNeeded": "The amount requested to spend",
          "owner": "The address of the owner of the tokens",
          "spender": "The address wanting to spend tokens"
        },
        "returns": {
          "success": "Whether or not the call succeeded."
        }
      },
      "allowance(address,address)": {
        "params": {
          "owner": "The address whose token is allowed.",
          "spender": "The address allowed to transfer."
        },
        "returns": {
          "remaining": "The amount of token `spender` is allowed to transfer on behalf of `owner`."
        }
      },
      "approve(address,uint256)": {
        "params": {
          "amount": "The number of tokens allowed.",
          "spender": "The address to be given rights to transfer."
        },
        "returns": {
          "success": "Whether or not the call succeeded."
        }
      },
      "approveAndCall(address,uint256,bytes)": {
        "params": {
          "amount": "The number of tokens allowed.",
          "data": "The bytes for the call.",
          "target": "The address to be given rights to transfer and destination of the call."
        },
        "returns": {
          "_0": "The data of the call."
        }
      },
      "approveFor(address,address,uint256)": {
        "params": {
          "amount": "The number of tokens allowed.",
          "owner": "The address whose token is allowed.",
          "spender": "The address to be given rights to transfer."
        },
        "returns": {
          "success": "Whether or not the call succeeded."
        }
      },
      "balanceOf(address)": {
        "params": {
          "owner": "The address to query the balance of."
        },
        "returns": {
          "_0": "The amount owned by `owner`."
        }
      },
      "burn(uint256)": {
        "params": {
          "amount": "The number of tokens to burn."
        }
      },
      "burnFor(address,uint256)": {
        "params": {
          "amount": "The number of tokens to burn.",
          "from": "The address whose token to burn."
        }
      },
      "changeAdmin(address)": {
        "details": "Change the administrator to be `newAdmin`.",
        "params": {
          "newAdmin": "The address of the new administrator."
        }
      },
      "decimals()": {
        "returns": {
          "_0": "The number of decimals."
        }
      },
      "deposit(address,bytes)": {
        "params": {
          "depositData": "abi encoded amount",
          "user": "user address for whom deposit is being done"
        }
      },
      "getAdmin()": {
        "details": "Get the current administrator of this contract.",
        "returns": {
          "_0": "The current administrator of this contract."
        }
      },
      "isSuperOperator(address)": {
        "params": {
          "who": "The address to query."
        },
        "returns": {
          "_0": "whether the address has superOperator rights."
        }
      },
      "name()": {
        "returns": {
          "_0": "The name of the token collection."
        }
      },
      "owner()": {
        "details": "Returns the address of the current owner."
      },
      "paidCall(address,uint256,bytes)": {
        "params": {
          "amount": "The number of tokens allowed to spend.",
          "data": "The bytes for the call.",
          "target": "The destination of the call, allowed to spend the amount specified"
        },
        "returns": {
          "_0": "The data of the call."
        }
      },
      "renounceOwnership()": {
        "details": "Leaves the contract without owner. It will not be possible to call `onlyOwner` functions anymore. Can only be called by the current owner. NOTE: Renouncing ownership will leave the contract without an owner, thereby removing any functionality that is only available to the owner."
      },
      "setSuperOperator(address,bool)": {
        "params": {
          "enabled": "set whether the superOperator is enabled or disabled.",
          "superOperator": "address that will be given/removed superOperator right."
        }
      },
      "symbol()": {
        "returns": {
          "_0": "The symbol of the token collection."
        }
      },
      "totalSupply()": {
        "returns": {
          "_0": "The total number of tokens in existence."
        }
      },
      "transfer(address,uint256)": {
        "params": {
          "amount": "The number of tokens being transfered.",
          "to": "The recipient address of the tokens being transfered."
        },
        "returns": {
          "success": "Whether or not the transfer succeeded."
        }
      },
      "transferFrom(address,address,uint256)": {
        "params": {
          "amount": "The number of tokens transfered.",
          "from": "The origin address  of the tokens being transferred.",
          "to": "The recipient address of the tokensbeing  transfered."
        },
        "returns": {
          "success": "Whether or not the transfer succeeded."
        }
      },
      "transferOwnership(address)": {
        "details": "Transfers ownership of the contract to a new account (`newOwner`). Can only be called by the current owner."
      },
      "updateChildChainManager(address)": {
        "params": {
          "newChildChainManagerProxy": "address of the new childChainManagerProxy"
        }
      },
      "withdraw(uint256)": {
        "details": "Should burn user's tokens. This transaction will be verified when exiting on root chain",
        "params": {
          "amount": "amount to withdraw"
        }
      }
    },
    "version": 1
  },
  "userdoc": {
    "events": {
      "Approval(address,address,uint256)": {
        "notice": "emitted when owner grant transfer rights to another address"
      },
      "Transfer(address,address,uint256)": {
        "notice": "emitted when tokens are transfered from one address to another."
      }
    },
    "kind": "user",
    "methods": {
      "addAllowanceIfNeeded(address,address,uint256)": {
        "notice": "Increase the allowance for the spender if needed"
      },
      "allowance(address,address)": {
        "notice": "Get the allowance of `spender` for `owner`'s tokens."
      },
      "approve(address,uint256)": {
        "notice": "Approve `spender` to transfer `amount` tokens."
      },
      "approveAndCall(address,uint256,bytes)": {
        "notice": "Approve `target` to spend `amount` and call it with data."
      },
      "approveFor(address,address,uint256)": {
        "notice": "Approve `spender` to transfer `amount` tokens from `owner`."
      },
      "balanceOf(address)": {
        "notice": "Get the balance of `owner`."
      },
      "burn(uint256)": {
        "notice": "Burn `amount` tokens."
      },
      "burnFor(address,uint256)": {
        "notice": "Burn `amount` tokens from `owner`."
      },
      "decimals()": {
        "notice": "Get the number of decimals for the token collection."
      },
      "deposit(address,bytes)": {
        "notice": "called when tokens are deposited on root chain"
      },
      "isSuperOperator(address)": {
        "notice": "check whether address `who` is given superOperator rights."
      },
      "name()": {
        "notice": "Get the name of the token collection."
      },
      "paidCall(address,uint256,bytes)": {
        "notice": "Temporarily approve `target` to spend `amount` and call it with data. Previous approvals remains unchanged."
      },
      "setSuperOperator(address,bool)": {
        "notice": "Enable or disable the ability of `superOperator` to transfer tokens of all (superOperator rights)."
      },
      "symbol()": {
        "notice": "Get the symbol for the token collection."
      },
      "totalSupply()": {
        "notice": "Get the total number of tokens in existence."
      },
      "transfer(address,uint256)": {
        "notice": "Transfer `amount` tokens to `to`."
      },
      "transferFrom(address,address,uint256)": {
        "notice": "Transfer `amount` tokens from `from` to `to`."
      },
      "updateChildChainManager(address)": {
        "notice": "update the ChildChainManager Proxy address"
      },
      "withdraw(uint256)": {
        "notice": "called when user wants to withdraw tokens back to root chain"
      }
    },
    "version": 1
  },
  "storageLayout": {
    "storage": [
      {
        "astId": 37304,
        "contract": "src/solc_0.8/polygon/child/sand/PolygonSand.sol:PolygonSand",
        "label": "_admin",
        "offset": 0,
        "slot": "0",
        "type": "t_address"
      },
      {
        "astId": 37760,
        "contract": "src/solc_0.8/polygon/child/sand/PolygonSand.sol:PolygonSand",
        "label": "_superOperators",
        "offset": 0,
        "slot": "1",
        "type": "t_mapping(t_address,t_bool)"
      },
      {
        "astId": 32052,
        "contract": "src/solc_0.8/polygon/child/sand/PolygonSand.sol:PolygonSand",
        "label": "_name",
        "offset": 0,
        "slot": "2",
        "type": "t_string_storage"
      },
      {
        "astId": 32054,
        "contract": "src/solc_0.8/polygon/child/sand/PolygonSand.sol:PolygonSand",
        "label": "_symbol",
        "offset": 0,
        "slot": "3",
        "type": "t_string_storage"
      },
      {
        "astId": 32058,
        "contract": "src/solc_0.8/polygon/child/sand/PolygonSand.sol:PolygonSand",
        "label": "_totalSupply",
        "offset": 0,
        "slot": "4",
        "type": "t_uint256"
      },
      {
        "astId": 32062,
        "contract": "src/solc_0.8/polygon/child/sand/PolygonSand.sol:PolygonSand",
        "label": "_balances",
        "offset": 0,
        "slot": "5",
        "type": "t_mapping(t_address,t_uint256)"
      },
      {
        "astId": 32068,
        "contract": "src/solc_0.8/polygon/child/sand/PolygonSand.sol:PolygonSand",
        "label": "_allowances",
        "offset": 0,
        "slot": "6",
        "type": "t_mapping(t_address,t_mapping(t_address,t_uint256))"
      },
      {
        "astId": 2933,
        "contract": "src/solc_0.8/polygon/child/sand/PolygonSand.sol:PolygonSand",
        "label": "_owner",
        "offset": 0,
        "slot": "7",
        "type": "t_address"
      },
      {
        "astId": 33930,
        "contract": "src/solc_0.8/polygon/child/sand/PolygonSand.sol:PolygonSand",
        "label": "_trustedForwarder",
        "offset": 0,
        "slot": "8",
        "type": "t_address"
      },
      {
        "astId": 54965,
        "contract": "src/solc_0.8/polygon/child/sand/PolygonSand.sol:PolygonSand",
        "label": "childChainManagerProxy",
        "offset": 0,
        "slot": "9",
        "type": "t_address"
      }
    ],
    "types": {
      "t_address": {
        "encoding": "inplace",
        "label": "address",
        "numberOfBytes": "20"
      },
      "t_bool": {
        "encoding": "inplace",
        "label": "bool",
        "numberOfBytes": "1"
      },
      "t_mapping(t_address,t_bool)": {
        "encoding": "mapping",
        "key": "t_address",
        "label": "mapping(address => bool)",
        "numberOfBytes": "32",
        "value": "t_bool"
      },
      "t_mapping(t_address,t_mapping(t_address,t_uint256))": {
        "encoding": "mapping",
        "key": "t_address",
        "label": "mapping(address => mapping(address => uint256))",
        "numberOfBytes": "32",
        "value": "t_mapping(t_address,t_uint256)"
      },
      "t_mapping(t_address,t_uint256)": {
        "encoding": "mapping",
        "key": "t_address",
        "label": "mapping(address => uint256)",
        "numberOfBytes": "32",
        "value": "t_uint256"
      },
      "t_string_storage": {
        "encoding": "bytes",
        "label": "string",
        "numberOfBytes": "32"
      },
      "t_uint256": {
        "encoding": "inplace",
        "label": "uint256",
        "numberOfBytes": "32"
      }
    }
  }
}