{
  "abi": [
    {
      "inputs": [],
      "name": "OnlyOwner",
      "type": "error"
    },
    {
      "inputs": [
        {
          "internalType": "address",
          "name": "operator",
          "type": "address"
        }
      ],
      "name": "OperatorNotAllowed",
      "type": "error"
    },
    {
      "anonymous": false,
      "inputs": [
        {
          "indexed": false,
          "internalType": "address",
          "name": "_address",
          "type": "address"
        }
      ],
      "name": "AllowedExecuteMintSet",
      "type": "event"
    },
    {
      "anonymous": false,
      "inputs": [
        {
          "indexed": true,
          "internalType": "address",
          "name": "owner",
          "type": "address"
        },
        {
          "indexed": true,
          "internalType": "address",
          "name": "approved",
          "type": "address"
        },
        {
          "indexed": true,
          "internalType": "uint256",
          "name": "tokenId",
          "type": "uint256"
        }
      ],
      "name": "Approval",
      "type": "event"
    },
    {
      "anonymous": false,
      "inputs": [
        {
          "indexed": true,
          "internalType": "address",
          "name": "owner",
          "type": "address"
        },
        {
          "indexed": true,
          "internalType": "address",
          "name": "operator",
          "type": "address"
        },
        {
          "indexed": false,
          "internalType": "bool",
          "name": "approved",
          "type": "bool"
        }
      ],
      "name": "ApprovalForAll",
      "type": "event"
    },
    {
      "anonymous": false,
      "inputs": [
        {
          "indexed": false,
          "internalType": "string",
          "name": "baseURI",
          "type": "string"
        }
      ],
      "name": "BaseURISet",
      "type": "event"
    },
    {
      "anonymous": false,
      "inputs": [
        {
          "indexed": false,
          "internalType": "string",
          "name": "baseURI",
          "type": "string"
        },
        {
          "indexed": false,
          "internalType": "string",
          "name": "_name",
          "type": "string"
        },
        {
          "indexed": false,
          "internalType": "string",
          "name": "_symbol",
          "type": "string"
        },
        {
          "indexed": false,
          "internalType": "address",
          "name": "_sandOwner",
          "type": "address"
        },
        {
          "indexed": false,
          "internalType": "address",
          "name": "_signAddress",
          "type": "address"
        },
        {
          "indexed": false,
          "internalType": "uint256",
          "name": "_maxSupply",
          "type": "uint256"
        },
        {
          "indexed": false,
          "internalType": "address",
          "name": "_registry",
          "type": "address"
        },
        {
          "indexed": false,
          "internalType": "address",
          "name": "_operatorFiltererSubscription",
          "type": "address"
        },
        {
          "indexed": false,
          "internalType": "bool",
          "name": "_operatorFiltererSubscriptionSubscribe",
          "type": "bool"
        }
      ],
      "name": "ContractInitialized",
      "type": "event"
    },
    {
      "anonymous": false,
      "inputs": [
        {
          "indexed": false,
          "internalType": "uint8",
          "name": "version",
          "type": "uint8"
        }
      ],
      "name": "Initialized",
      "type": "event"
    },
    {
      "anonymous": false,
      "inputs": [
        {
          "indexed": true,
          "internalType": "address",
          "name": "previousOwner",
          "type": "address"
        },
        {
          "indexed": true,
          "internalType": "address",
          "name": "newOwner",
          "type": "address"
        }
      ],
      "name": "OwnershipTransferred",
      "type": "event"
    },
    {
      "anonymous": false,
      "inputs": [
        {
          "indexed": false,
          "internalType": "uint256",
          "name": "_tokenId",
          "type": "uint256"
        },
        {
          "indexed": false,
          "internalType": "uint256",
          "name": "_personalizationMask",
          "type": "uint256"
        }
      ],
      "name": "Personalized",
      "type": "event"
    },
    {
      "anonymous": false,
      "inputs": [
        {
          "indexed": false,
          "internalType": "bool",
          "name": "_pause",
          "type": "bool"
        }
      ],
      "name": "SaleToggled",
      "type": "event"
    },
    {
      "anonymous": false,
      "inputs": [
        {
          "indexed": false,
          "internalType": "address",
          "name": "_owner",
          "type": "address"
        }
      ],
      "name": "SandOwnerSet",
      "type": "event"
    },
    {
      "anonymous": false,
      "inputs": [
        {
          "indexed": false,
          "internalType": "address",
          "name": "_signAddress",
          "type": "address"
        }
      ],
      "name": "SignAddressSet",
      "type": "event"
    },
    {
      "anonymous": false,
      "inputs": [
        {
          "indexed": true,
          "internalType": "address",
          "name": "from",
          "type": "address"
        },
        {
          "indexed": true,
          "internalType": "address",
          "name": "to",
          "type": "address"
        },
        {
          "indexed": true,
          "internalType": "uint256",
          "name": "tokenId",
          "type": "uint256"
        }
      ],
      "name": "Transfer",
      "type": "event"
    },
    {
      "anonymous": false,
      "inputs": [
        {
          "indexed": false,
          "internalType": "uint256",
          "name": "_waveMaxTokens",
          "type": "uint256"
        },
        {
          "indexed": false,
          "internalType": "uint256",
          "name": "_waveMaxTokensToBuy",
          "type": "uint256"
        },
        {
          "indexed": false,
          "internalType": "uint256",
          "name": "_waveSingleTokenPrice",
          "type": "uint256"
        }
      ],
      "name": "WaveSetup",
      "type": "event"
    },
    {
      "inputs": [],
      "name": "MAX_SUPPLY",
      "outputs": [
        {
          "internalType": "uint256",
          "name": "",
          "type": "uint256"
        }
      ],
      "stateMutability": "view",
      "type": "function"
    },
    {
      "inputs": [],
      "name": "allowedToExecuteMint",
      "outputs": [
        {
          "internalType": "address",
          "name": "",
          "type": "address"
        }
      ],
      "stateMutability": "view",
      "type": "function"
    },
    {
      "inputs": [
        {
          "internalType": "address",
          "name": "operator",
          "type": "address"
        },
        {
          "internalType": "uint256",
          "name": "tokenId",
          "type": "uint256"
        }
      ],
      "name": "approve",
      "outputs": [],
      "stateMutability": "nonpayable",
      "type": "function"
    },
    {
      "inputs": [
        {
          "internalType": "address",
          "name": "owner",
          "type": "address"
        }
      ],
      "name": "balanceOf",
      "outputs": [
        {
          "internalType": "uint256",
          "name": "",
          "type": "uint256"
        }
      ],
      "stateMutability": "view",
      "type": "function"
    },
    {
      "inputs": [],
      "name": "baseTokenURI",
      "outputs": [
        {
          "internalType": "string",
          "name": "",
          "type": "string"
        }
      ],
      "stateMutability": "view",
      "type": "function"
    },
    {
      "inputs": [],
      "name": "chain",
      "outputs": [
        {
          "internalType": "uint256",
          "name": "",
          "type": "uint256"
        }
      ],
      "stateMutability": "view",
      "type": "function"
    },
    {
      "inputs": [
        {
          "internalType": "address",
          "name": "_wallet",
          "type": "address"
        },
        {
          "internalType": "uint256",
          "name": "_amount",
          "type": "uint256"
        }
      ],
      "name": "checkMintAllowed",
      "outputs": [
        {
          "internalType": "bool",
          "name": "",
          "type": "bool"
        }
      ],
      "stateMutability": "view",
      "type": "function"
    },
    {
      "inputs": [
        {
          "internalType": "uint256",
          "name": "tokenId",
          "type": "uint256"
        }
      ],
      "name": "getApproved",
      "outputs": [
        {
          "internalType": "address",
          "name": "",
          "type": "address"
        }
      ],
      "stateMutability": "view",
      "type": "function"
    },
    {
      "inputs": [],
      "name": "getTrustedForwarder",
      "outputs": [
        {
          "internalType": "address",
          "name": "trustedForwarder",
          "type": "address"
        }
      ],
      "stateMutability": "view",
      "type": "function"
    },
    {
      "inputs": [],
      "name": "indexWave",
      "outputs": [
        {
          "internalType": "uint256",
          "name": "",
          "type": "uint256"
        }
      ],
      "stateMutability": "view",
      "type": "function"
    },
    {
      "inputs": [
        {
          "internalType": "string",
          "name": "baseURI",
          "type": "string"
        },
        {
          "internalType": "string",
          "name": "_name",
          "type": "string"
        },
        {
          "internalType": "string",
          "name": "_symbol",
          "type": "string"
        },
        {
          "internalType": "address payable",
          "name": "_sandOwner",
          "type": "address"
        },
        {
          "internalType": "address",
          "name": "_signAddress",
          "type": "address"
        },
        {
          "internalType": "address",
          "name": "_trustedForwarder",
          "type": "address"
        },
        {
          "internalType": "address",
          "name": "_registry",
          "type": "address"
        },
        {
          "internalType": "address",
          "name": "_operatorFiltererSubscription",
          "type": "address"
        },
        {
          "internalType": "bool",
          "name": "_operatorFiltererSubscriptionSubscribe",
          "type": "bool"
        }
      ],
      "name": "initialize",
      "outputs": [],
      "stateMutability": "nonpayable",
      "type": "function"
    },
    {
      "inputs": [
        {
          "internalType": "address",
          "name": "owner",
          "type": "address"
        },
        {
          "internalType": "address",
          "name": "operator",
          "type": "address"
        }
      ],
      "name": "isApprovedForAll",
      "outputs": [
        {
          "internalType": "bool",
          "name": "",
          "type": "bool"
        }
      ],
      "stateMutability": "view",
      "type": "function"
    },
    {
      "inputs": [
        {
          "internalType": "address",
          "name": "forwarder",
          "type": "address"
        }
      ],
      "name": "isTrustedForwarder",
      "outputs": [
        {
          "internalType": "bool",
          "name": "",
          "type": "bool"
        }
      ],
      "stateMutability": "view",
      "type": "function"
    },
    {
      "inputs": [],
      "name": "maxSupply",
      "outputs": [
        {
          "internalType": "uint256",
          "name": "",
          "type": "uint256"
        }
      ],
      "stateMutability": "view",
      "type": "function"
    },
    {
      "inputs": [
        {
          "internalType": "address",
          "name": "_wallet",
          "type": "address"
        },
        {
          "internalType": "uint256",
          "name": "_amount",
          "type": "uint256"
        },
        {
          "internalType": "uint256",
          "name": "_signatureId",
          "type": "uint256"
        },
        {
          "internalType": "bytes",
          "name": "_signature",
          "type": "bytes"
        }
      ],
      "name": "mint",
      "outputs": [],
      "stateMutability": "nonpayable",
      "type": "function"
    },
    {
      "inputs": [],
      "name": "name",
      "outputs": [
        {
          "internalType": "string",
          "name": "",
          "type": "string"
        }
      ],
      "stateMutability": "view",
      "type": "function"
    },
    {
      "inputs": [],
      "name": "operatorFilterRegistry",
      "outputs": [
        {
          "internalType": "contract IOperatorFilterRegistry",
          "name": "",
          "type": "address"
        }
      ],
      "stateMutability": "view",
      "type": "function"
    },
    {
      "inputs": [],
      "name": "owner",
      "outputs": [
        {
          "internalType": "address",
          "name": "",
          "type": "address"
        }
      ],
      "stateMutability": "view",
      "type": "function"
    },
    {
      "inputs": [
        {
          "internalType": "uint256",
          "name": "tokenId",
          "type": "uint256"
        }
      ],
      "name": "ownerOf",
      "outputs": [
        {
          "internalType": "address",
          "name": "",
          "type": "address"
        }
      ],
      "stateMutability": "view",
      "type": "function"
    },
    {
      "inputs": [],
      "name": "paused",
      "outputs": [
        {
          "internalType": "uint256",
          "name": "",
          "type": "uint256"
        }
      ],
      "stateMutability": "view",
      "type": "function"
    },
    {
      "inputs": [
        {
          "internalType": "uint256",
          "name": "_tokenId",
          "type": "uint256"
        }
      ],
      "name": "personalizationOf",
      "outputs": [
        {
          "internalType": "uint256",
          "name": "",
          "type": "uint256"
        }
      ],
      "stateMutability": "view",
      "type": "function"
    },
    {
      "inputs": [
        {
          "internalType": "uint256",
          "name": "",
          "type": "uint256"
        }
      ],
      "name": "personalizationTraits",
      "outputs": [
        {
          "internalType": "uint256",
          "name": "",
          "type": "uint256"
        }
      ],
      "stateMutability": "view",
      "type": "function"
    },
    {
      "inputs": [
        {
          "internalType": "uint256",
          "name": "_signatureId",
          "type": "uint256"
        },
        {
          "internalType": "bytes",
          "name": "_signature",
          "type": "bytes"
        },
        {
          "internalType": "uint256",
          "name": "_tokenId",
          "type": "uint256"
        },
        {
          "internalType": "uint256",
          "name": "_personalizationMask",
          "type": "uint256"
        }
      ],
      "name": "personalize",
      "outputs": [],
      "stateMutability": "nonpayable",
      "type": "function"
    },
    {
      "inputs": [
        {
          "internalType": "uint256",
          "name": "_count",
          "type": "uint256"
        }
      ],
      "name": "price",
      "outputs": [
        {
          "internalType": "uint256",
          "name": "",
          "type": "uint256"
        }
      ],
      "stateMutability": "view",
      "type": "function"
    },
    {
      "inputs": [],
      "name": "renounceOwnership",
      "outputs": [],
      "stateMutability": "nonpayable",
      "type": "function"
    },
    {
      "inputs": [
        {
          "internalType": "address",
          "name": "from",
          "type": "address"
        },
        {
          "internalType": "address",
          "name": "to",
          "type": "address"
        },
        {
          "internalType": "uint256",
          "name": "tokenId",
          "type": "uint256"
        }
      ],
      "name": "safeTransferFrom",
      "outputs": [],
      "stateMutability": "nonpayable",
      "type": "function"
    },
    {
      "inputs": [
        {
          "internalType": "address",
          "name": "from",
          "type": "address"
        },
        {
          "internalType": "address",
          "name": "to",
          "type": "address"
        },
        {
          "internalType": "uint256",
          "name": "tokenId",
          "type": "uint256"
        },
        {
          "internalType": "bytes",
          "name": "data",
          "type": "bytes"
        }
      ],
      "name": "safeTransferFrom",
      "outputs": [],
      "stateMutability": "nonpayable",
      "type": "function"
    },
    {
      "inputs": [],
      "name": "sandOwner",
      "outputs": [
        {
          "internalType": "address",
          "name": "",
          "type": "address"
        }
      ],
      "stateMutability": "view",
      "type": "function"
    },
    {
      "inputs": [
        {
          "internalType": "address",
          "name": "_address",
          "type": "address"
        }
      ],
      "name": "setAllowedExecuteMint",
      "outputs": [],
      "stateMutability": "nonpayable",
      "type": "function"
    },
    {
      "inputs": [
        {
          "internalType": "address",
          "name": "operator",
          "type": "address"
        },
        {
          "internalType": "bool",
          "name": "approved",
          "type": "bool"
        }
      ],
      "name": "setApprovalForAll",
      "outputs": [],
      "stateMutability": "nonpayable",
      "type": "function"
    },
    {
      "inputs": [
        {
          "internalType": "string",
          "name": "baseURI",
          "type": "string"
        }
      ],
      "name": "setBaseURI",
      "outputs": [],
      "stateMutability": "nonpayable",
      "type": "function"
    },
    {
      "inputs": [
        {
          "internalType": "address",
          "name": "_owner",
          "type": "address"
        }
      ],
      "name": "setSandOwnerAddress",
      "outputs": [],
      "stateMutability": "nonpayable",
      "type": "function"
    },
    {
      "inputs": [
        {
          "internalType": "address",
          "name": "_signAddress",
          "type": "address"
        }
      ],
      "name": "setSignAddress",
      "outputs": [],
      "stateMutability": "nonpayable",
      "type": "function"
    },
    {
      "inputs": [
        {
          "internalType": "uint256",
          "name": "_waveMaxTokens",
          "type": "uint256"
        },
        {
          "internalType": "uint256",
          "name": "_waveMaxTokensToBuy",
          "type": "uint256"
        },
        {
          "internalType": "uint256",
          "name": "_waveSingleTokenPrice",
          "type": "uint256"
        }
      ],
      "name": "setupWave",
      "outputs": [],
      "stateMutability": "nonpayable",
      "type": "function"
    },
    {
      "inputs": [],
      "name": "signAddress",
      "outputs": [
        {
          "internalType": "address",
          "name": "",
          "type": "address"
        }
      ],
      "stateMutability": "view",
      "type": "function"
    },
    {
      "inputs": [
        {
          "internalType": "bytes4",
          "name": "interfaceId",
          "type": "bytes4"
        }
      ],
      "name": "supportsInterface",
      "outputs": [
        {
          "internalType": "bool",
          "name": "",
          "type": "bool"
        }
      ],
      "stateMutability": "view",
      "type": "function"
    },
    {
      "inputs": [],
      "name": "symbol",
      "outputs": [
        {
          "internalType": "string",
          "name": "",
          "type": "string"
        }
      ],
      "stateMutability": "view",
      "type": "function"
    },
    {
      "inputs": [],
      "name": "toggleSale",
      "outputs": [],
      "stateMutability": "nonpayable",
      "type": "function"
    },
    {
      "inputs": [
        {
          "internalType": "uint256",
          "name": "index",
          "type": "uint256"
        }
      ],
      "name": "tokenByIndex",
      "outputs": [
        {
          "internalType": "uint256",
          "name": "",
          "type": "uint256"
        }
      ],
      "stateMutability": "view",
      "type": "function"
    },
    {
      "inputs": [
        {
          "internalType": "address",
          "name": "owner",
          "type": "address"
        },
        {
          "internalType": "uint256",
          "name": "index",
          "type": "uint256"
        }
      ],
      "name": "tokenOfOwnerByIndex",
      "outputs": [
        {
          "internalType": "uint256",
          "name": "",
          "type": "uint256"
        }
      ],
      "stateMutability": "view",
      "type": "function"
    },
    {
      "inputs": [
        {
          "internalType": "uint256",
          "name": "tokenId",
          "type": "uint256"
        }
      ],
      "name": "tokenURI",
      "outputs": [
        {
          "internalType": "string",
          "name": "",
          "type": "string"
        }
      ],
      "stateMutability": "view",
      "type": "function"
    },
    {
      "inputs": [],
      "name": "totalSupply",
      "outputs": [
        {
          "internalType": "uint256",
          "name": "",
          "type": "uint256"
        }
      ],
      "stateMutability": "view",
      "type": "function"
    },
    {
      "inputs": [
        {
          "internalType": "address",
          "name": "from",
          "type": "address"
        },
        {
          "internalType": "address",
          "name": "to",
          "type": "address"
        },
        {
          "internalType": "uint256",
          "name": "tokenId",
          "type": "uint256"
        }
      ],
      "name": "transferFrom",
      "outputs": [],
      "stateMutability": "nonpayable",
      "type": "function"
    },
    {
      "inputs": [
        {
          "internalType": "address",
          "name": "newOwner",
          "type": "address"
        }
      ],
      "name": "transferOwnership",
      "outputs": [],
      "stateMutability": "nonpayable",
      "type": "function"
    },
    {
      "inputs": [
        {
          "internalType": "address",
          "name": "newRegistry",
          "type": "address"
        }
      ],
      "name": "updateOperatorFilterRegistryAddress",
      "outputs": [],
      "stateMutability": "nonpayable",
      "type": "function"
    },
    {
      "inputs": [],
      "name": "waveMaxTokens",
      "outputs": [
        {
          "internalType": "uint256",
          "name": "",
          "type": "uint256"
        }
      ],
      "stateMutability": "view",
      "type": "function"
    },
    {
      "inputs": [],
      "name": "waveMaxTokensToBuy",
      "outputs": [
        {
          "internalType": "uint256",
          "name": "",
          "type": "uint256"
        }
      ],
      "stateMutability": "view",
      "type": "function"
    },
    {
      "inputs": [
        {
          "internalType": "address",
          "name": "",
          "type": "address"
        },
        {
          "internalType": "uint256",
          "name": "",
          "type": "uint256"
        }
      ],
      "name": "waveOwnerToClaimedCounts",
      "outputs": [
        {
          "internalType": "uint256",
          "name": "",
          "type": "uint256"
        }
      ],
      "stateMutability": "view",
      "type": "function"
    },
    {
      "inputs": [],
      "name": "waveSingleTokenPrice",
      "outputs": [
        {
          "internalType": "uint256",
          "name": "",
          "type": "uint256"
        }
      ],
      "stateMutability": "view",
      "type": "function"
    },
    {
      "inputs": [],
      "name": "waveTotalMinted",
      "outputs": [
        {
          "internalType": "uint256",
          "name": "",
          "type": "uint256"
        }
      ],
      "stateMutability": "view",
      "type": "function"
    }
  ],
  "bytecode": {
    "object": "0x60806040523480156200001157600080fd5b506200001c62000022565b620000e4565b600054610100900460ff16156200008f5760405162461bcd60e51b815260206004820152602760248201527f496e697469616c697a61626c653a20636f6e747261637420697320696e697469604482015266616c697a696e6760c81b606482015260840160405180910390fd5b60005460ff9081161015620000e2576000805460ff191660ff9081179091556040519081527f7f26b83ff96e1f2b6a682f133852f6798a09c465da95921460cefb38474024989060200160405180910390a15b565b61414680620000f46000396000f3fe608060405234801561001057600080fd5b50600436106102d65760003560e01c806368d4a77811610182578063b0ccc31e116100e9578063d547cfb7116100a2578063df9740da1161007c578063df9740da14610638578063e89bcd0914610642578063e985e9c514610656578063f2fde38b1461069257600080fd5b8063d547cfb71461061c578063d5878eaa14610624578063d5abeb011461062e57600080fd5b8063b0ccc31e146105b7578063b88d4fde146105cb578063b8d1e532146105de578063c763e5a1146105f1578063c87b56dd146105f7578063ce1b815f1461060a57600080fd5b806382bc78771161013b57806382bc78771461054c5780638da5cb5b1461055f57806395d89b411461056757806397944ba21461056f578063a22cb46514610590578063ac3149e3146105a357600080fd5b806368d4a778146104d757806370a0823114610503578063715018a614610516578063731133e91461051e5780637c3bfcfa146105315780637d8966e41461054457600080fd5b80632f745c59116102415780634f6ccce7116101fa5780635c975abb116101d45780635c975abb146104865780636352211e14610490578063671b2a31146104a3578063677ec90f146104b657600080fd5b80634f6ccce71461043d57806355f804b314610450578063572b6c051461046357600080fd5b80632f745c59146103f057806332cb6b0c1461040357806334b35ac01461040c5780633e84aa5e1461041657806342842e0e14610420578063433ad1061461043357600080fd5b806318160ddd1161029357806318160ddd1461037f5780631992c3f31461039157806323b872dd146103a457806324a6f085146103b757806326a49e37146103ca578063283ca77c146103dd57600080fd5b806301ffc9a7146102db5780630682bdbc1461030357806306fdde031461032f578063081812fc14610344578063095ea7b314610357578063151370451461036c575b600080fd5b6102ee6102e93660046137af565b6106a5565b60405190151581526020015b60405180910390f35b61016d54610317906001600160a01b031681565b6040516001600160a01b0390911681526020016102fa565b6103376106d0565b6040516102fa9190613824565b610317610352366004613837565b610762565b61036a610365366004613875565b610789565b005b61036a61037a3660046138a1565b61084f565b6099545b6040519081526020016102fa565b61036a61039f3660046138be565b610903565b61036a6103b23660046138ea565b610acf565b61036a6103c53660046138a1565b610ba7565b6103836103d8366004613837565b610c4c565b6102ee6103eb366004613875565b610c5d565b6103836103fe366004613875565b610c80565b610383610c3a81565b6103836101675481565b6103836101645481565b61036a61042e3660046138ea565b610d16565b6103836101635481565b61038361044b366004613837565b610de3565b61036a61045e3660046139ce565b610e76565b6102ee6104713660046138a1565b61012d546001600160a01b0391821691161490565b6103836101685481565b61031761049e366004613837565b610f01565b61036a6104b1366004613a03565b610f61565b6103836104c4366004613837565b6101666020526000908152604090205481565b6103836104e5366004613875565b61016560209081526000928352604080842090915290825290205481565b6103836105113660046138a1565b611121565b61036a6111a7565b61036a61052c366004613a5a565b611203565b61036a61053f366004613ad6565b6115d4565b61036a6116fb565b61036a61055a3660046138a1565b611758565b610317611805565b61033761181e565b61038361057d366004613837565b6000908152610166602052604090205490565b61036a61059e366004613bc3565b61182d565b61016b54610317906001600160a01b031681565b61015f54610317906001600160a01b031681565b61036a6105d9366004613bfc565b6118e9565b61036a6105ec3660046138a1565b6119c4565b46610383565b610337610605366004613837565b611a20565b61012d546001600160a01b0316610317565b610337611a86565b6103836101615481565b6103836101605481565b6103836101625481565b61016c54610317906001600160a01b031681565b6102ee610664366004613c50565b6001600160a01b039182166000908152606a6020908152604080832093909416825291909152205460ff1690565b61036a6106a03660046138a1565b611b15565b60006001600160e01b0319821663780e9d6360e01b14806106ca57506106ca82611b8e565b92915050565b6060606580546106df90613c7e565b80601f016020809104026020016040519081016040528092919081815260200182805461070b90613c7e565b80156107585780601f1061072d57610100808354040283529160200191610758565b820191906000526020600020905b81548152906001019060200180831161073b57829003601f168201915b5050505050905090565b600061076d82611bde565b506000908152606960205260409020546001600160a01b031690565b61015f5482906001600160a01b03163b156108405761015f54604051633185c44d60e21b81523060048201526001600160a01b0383811660248301529091169063c617113490604401602060405180830381865afa1580156107ef573d6000803e3d6000fd5b505050506040513d601f19601f820116820180604052508101906108139190613cb8565b61084057604051633b79c77360e21b81526001600160a01b03821660048201526024015b60405180910390fd5b61084a8383611c3d565b505050565b610857611d5f565b6001600160a01b0381166108ad5760405162461bcd60e51b815260206004820152601c60248201527f5369676e2061646472657373206973207a65726f2061646472657373000000006044820152606401610837565b61016d80546001600160a01b0319166001600160a01b0383169081179091556040519081527f0e58c0652c5df5dddc98a8856c5a814ba7aedf70cc4ef2c72a040d1ff0fe5ebd906020015b60405180910390a150565b61090b611d5f565b610160548311156109715760405162461bcd60e51b815260206004820152602a60248201527f5f776176654d6178546f6b656e732073686f756c64206e6f7420657863656564604482015269206d6178537570706c7960b01b6064820152608401610837565b6000831180156109815750600082115b6109c55760405162461bcd60e51b815260206004820152601560248201527424b73b30b634b21031b7b73334b3bab930ba34b7b760591b6044820152606401610837565b6101685415610a0b5760405162461bcd60e51b815260206004820152601260248201527110dbdb9d1c9858dd081a5cc81c185d5cd95960721b6044820152606401610837565b82821115610a5b5760405162461bcd60e51b815260206004820152601c60248201527f496e76616c696420737570706c7920636f6e66696775726174696f6e000000006044820152606401610837565b6101618390556101628290556101638190556000610164819055610167805491610a8483613ceb565b909155505060408051848152602081018490529081018290527fe564a4bf9e4db3797c60fe6b6be0c2b012e6557df177e1b63883bd29d00db8de9060600160405180910390a1505050565b61015f5483906001600160a01b03163b15610b9657336001600160a01b03821603610b0457610aff848484611dd0565b610ba1565b61015f54604051633185c44d60e21b81523060048201523360248201526001600160a01b039091169063c617113490604401602060405180830381865afa158015610b53573d6000803e3d6000fd5b505050506040513d601f19601f82011682018060405250810190610b779190613cb8565b610b9657604051633b79c77360e21b8152336004820152602401610837565b610ba1848484611dd0565b50505050565b610baf611d5f565b6001600160a01b038116610bfd5760405162461bcd60e51b81526020600482015260156024820152744f776e6572206973207a65726f206164647265737360581b6044820152606401610837565b61016c80546001600160a01b0319166001600160a01b0383169081179091556040519081527fa7a30e0f8be04cc86d8bab5131d01fc28dd5512abb25522217ee56ecea313ce0906020016108f8565b600081610163546106ca9190613d04565b6000610c6882611e08565b8015610c795750610c798383611e2f565b9392505050565b6000610c8b83611121565b8210610ced5760405162461bcd60e51b815260206004820152602b60248201527f455243373231456e756d657261626c653a206f776e657220696e646578206f7560448201526a74206f6620626f756e647360a81b6064820152608401610837565b506001600160a01b03919091166000908152609760209081526040808320938352929052205490565b61015f5483906001600160a01b03163b15610dd857336001600160a01b03821603610d4657610aff848484611eb1565b61015f54604051633185c44d60e21b81523060048201523360248201526001600160a01b039091169063c617113490604401602060405180830381865afa158015610d95573d6000803e3d6000fd5b505050506040513d601f19601f82011682018060405250810190610db99190613cb8565b610dd857604051633b79c77360e21b8152336004820152602401610837565b610ba1848484611eb1565b6000610dee60995490565b8210610e515760405162461bcd60e51b815260206004820152602c60248201527f455243373231456e756d657261626c653a20676c6f62616c20696e646578206f60448201526b7574206f6620626f756e647360a01b6064820152608401610837565b60998281548110610e6457610e64613d23565b90600052602060002001549050919050565b610e7e611d5f565b8051600003610ec45760405162461bcd60e51b815260206004820152601260248201527118985cd9555492481a5cc81b9bdd081cd95d60721b6044820152606401610837565b61016e610ed18282613d87565b507ff9c7803e94e0d3c02900d8a90893a6d5e90dd04d32a4cfe825520f82bf9f32f6816040516108f89190613824565b6000818152606760205260408120546001600160a01b0316806106ca5760405162461bcd60e51b8152602060048201526018602482015277115490cdcc8c4e881a5b9d985b1a59081d1bdad95b88125160421b6044820152606401610837565b610f69611ecc565b6001600160a01b0316610f7b83610f01565b6001600160a01b031614610ff75760405162461bcd60e51b815260206004820152603d60248201527f596f75206d75737420626520746865206f776e6572206f662074686520746f6b60448201527f656e20696e206f7264657220746f20706572736f6e616c697a652069740000006064820152608401610837565b60008481526101696020526040902054156110545760405162461bcd60e51b815260206004820152601860248201527f5369676e6174757265496420616c7265616479207573656400000000000000006044820152606401610837565b61016d546001600160a01b031661107761106c611ecc565b86304687878a611ed6565b6001600160a01b0316146110c05760405162461bcd60e51b815260206004820152601060248201526f14da59db985d1d5c994819985a5b195960821b6044820152606401610837565b6000848152610169602090815260408083206001905584835261016682529182902083905581518481529081018390527f37c5b85bb9cbe019726db5bf44dfd0053ed3e09554d9f97a9778b5b8dd65f620910160405180910390a150505050565b60006001600160a01b03821661118b5760405162461bcd60e51b815260206004820152602960248201527f4552433732313a2061646472657373207a65726f206973206e6f7420612076616044820152683634b21037bbb732b960b91b6064820152608401610837565b506001600160a01b031660009081526068602052604090205490565b6111af611d5f565b60405162461bcd60e51b815260206004820152602360248201527f52656e6f756e6365206f776e657273686970206973206e6f7420617661696c61604482015262626c6560e81b6064820152608401610837565b61120b611f89565b6000610167541161125e5760405162461bcd60e51b815260206004820152601a60248201527f436f6e7472616374206973206e6f7420636f6e666967757265640000000000006044820152606401610837565b61016b546001600160a01b0316611273611ecc565b6001600160a01b0316146112b75760405162461bcd60e51b815260206004820152600b60248201526a139bdd08185b1b1bddd95960aa1b6044820152606401610837565b61016854156112fd5760405162461bcd60e51b815260206004820152601260248201527110dbdb9d1c9858dd081a5cc81c185d5cd95960721b6044820152606401610837565b6001600160a01b03841661134c5760405162461bcd60e51b815260206004820152601660248201527557616c6c6574206973207a65726f206164647265737360501b6044820152606401610837565b600083116113915760405162461bcd60e51b81526020600482015260126024820152710416d6f756e742063616e6e6f7420626520360741b6044820152606401610837565b60008281526101696020526040902054156113ee5760405162461bcd60e51b815260206004820152601860248201527f7369676e6174757265496420616c7265616479207573656400000000000000006044820152606401610837565b61016d546001600160a01b03166114088584304686611fe2565b6001600160a01b0316146114515760405162461bcd60e51b815260206004820152601060248201526f14da59db985d1d5c994819985a5b195960821b6044820152606401610837565b6000828152610169602052604090206001905561146d83611e08565b6114aa5760405162461bcd60e51b815260206004820152600e60248201526d15d85d994818dbdb5c1b195d195960921b6044820152606401610837565b6114b48484611e2f565b6114ee5760405162461bcd60e51b815260206004820152600b60248201526a13585e08185b1b1bddd95960aa1b6044820152606401610837565b60006114f984610c4c565b905080156115215761152161150c611ecc565b61016c5487906001600160a01b031684612024565b6001600160a01b0385166000908152610165602052604081206101675486929061154d90600190613e47565b8152602001908152602001600020600082825461156a9190613e5e565b925050819055508361016460008282546115849190613e5e565b90915550600090505b848110156115c85760006115a9876115a460995490565b61207e565b90506115b5878261219a565b50806115c081613ceb565b91505061158d565b5050610ba1600160fb55565b600054610100900460ff16158080156115f45750600054600160ff909116105b8061160e5750303b15801561160e575060005460ff166001145b6116715760405162461bcd60e51b815260206004820152602e60248201527f496e697469616c697a61626c653a20636f6e747261637420697320616c72656160448201526d191e481a5b9a5d1a585b1a5e995960921b6064820152608401610837565b6000805460ff191660011790558015611694576000805461ff0019166101001790555b6116a88a8a8a8a8a8a8a8a8a610c3a6121bf565b80156116ef576000805461ff0019169055604051600181527f7f26b83ff96e1f2b6a682f133852f6798a09c465da95921460cefb3847402498906020015b60405180910390a15b50505050505050505050565b611703611d5f565b6101685415611713576000611716565b60015b60ff16610168819055604051600190911481527f37ae8f893f8baa4aef207505c0e4d730119d73dc1363bbee6fda5f5d52c3cf179060200160405180910390a1565b611760611d5f565b6001600160a01b0381166117b65760405162461bcd60e51b815260206004820152601760248201527f41646472657373206973207a65726f20616464726573730000000000000000006044820152606401610837565b61016b80546001600160a01b0319166001600160a01b0383169081179091556040519081527f8eb903ef93f1949409fbfad9304ceafc3ab8211c9ddbe9732ce8b1ede00efb34906020016108f8565b600061181960c9546001600160a01b031690565b905090565b6060606680546106df90613c7e565b61015f5482906001600160a01b03163b156118df5761015f54604051633185c44d60e21b81523060048201526001600160a01b0383811660248301529091169063c617113490604401602060405180830381865afa158015611893573d6000803e3d6000fd5b505050506040513d601f19601f820116820180604052508101906118b79190613cb8565b6118df57604051633b79c77360e21b81526001600160a01b0382166004820152602401610837565b61084a83836124d4565b61015f5484906001600160a01b03163b156119b157336001600160a01b0382160361191f5761191a858585856124e6565b6119bd565b61015f54604051633185c44d60e21b81523060048201523360248201526001600160a01b039091169063c617113490604401602060405180830381865afa15801561196e573d6000803e3d6000fd5b505050506040513d601f19601f820116820180604052508101906119929190613cb8565b6119b157604051633b79c77360e21b8152336004820152602401610837565b6119bd858585856124e6565b5050505050565b6119cc611805565b6001600160a01b0316336001600160a01b0316146119fd57604051635fc483c560e01b815260040160405180910390fd5b61015f80546001600160a01b0319166001600160a01b0392909216919091179055565b6060611a2b82611bde565b6000611a3561251f565b90506000815111611a555760405180602001604052806000815250610c79565b80611a5f8461252f565b604051602001611a70929190613e76565b6040516020818303038152906040529392505050565b61016e8054611a9490613c7e565b80601f0160208091040260200160405190810160405280929190818152602001828054611ac090613c7e565b8015611b0d5780601f10611ae257610100808354040283529160200191611b0d565b820191906000526020600020905b815481529060010190602001808311611af057829003601f168201915b505050505081565b611b1d611d5f565b6001600160a01b038116611b825760405162461bcd60e51b815260206004820152602660248201527f4f776e61626c653a206e6577206f776e657220697320746865207a65726f206160448201526564647265737360d01b6064820152608401610837565b611b8b816125c2565b50565b60006001600160e01b031982166380ac58cd60e01b1480611bbf57506001600160e01b03198216635b5e139f60e01b145b806106ca57506301ffc9a760e01b6001600160e01b03198316146106ca565b6000818152606760205260409020546001600160a01b0316611b8b5760405162461bcd60e51b8152602060048201526018602482015277115490cdcc8c4e881a5b9d985b1a59081d1bdad95b88125160421b6044820152606401610837565b6000611c4882610f01565b9050806001600160a01b0316836001600160a01b031603611cb55760405162461bcd60e51b815260206004820152602160248201527f4552433732313a20617070726f76616c20746f2063757272656e74206f776e656044820152603960f91b6064820152608401610837565b806001600160a01b0316611cc7611ecc565b6001600160a01b03161480611ce35750611ce381610664611ecc565b611d555760405162461bcd60e51b815260206004820152603d60248201527f4552433732313a20617070726f76652063616c6c6572206973206e6f7420746f60448201527f6b656e206f776e6572206f7220617070726f76656420666f7220616c6c0000006064820152608401610837565b61084a8383612614565b611d67611ecc565b6001600160a01b0316611d78611805565b6001600160a01b031614611dce5760405162461bcd60e51b815260206004820181905260248201527f4f776e61626c653a2063616c6c6572206973206e6f7420746865206f776e65726044820152606401610837565b565b611de1611ddb611ecc565b82612682565b611dfd5760405162461bcd60e51b815260040161083790613ea5565b61084a838383612701565b600080821180156106ca5750610161548261016454611e279190613e5e565b111592915050565b600061016254826101656000866001600160a01b03166001600160a01b031681526020019081526020016000206000600161016754611e6e9190613e47565b815260200190815260200160002054611e879190613e5e565b11158015610c7957506101605482611e9e60995490565b611ea89190613e5e565b11159392505050565b61084a838383604051806020016040528060008152506118e9565b6000611819612872565b604080516001600160a01b03808a16602083015291810188905290861660608201526080810185905260a0810184905260c08101839052600090611f7d9060e0015b60408051601f198184030181529082905280516020918201207f19457468657265756d205369676e6564204d6573736167653a0a33320000000091830191909152603c820152605c01604051602081830303815290604052805190602001208361289a565b98975050505050505050565b600260fb5403611fdb5760405162461bcd60e51b815260206004820152601f60248201527f5265656e7472616e637947756172643a207265656e7472616e742063616c6c006044820152606401610837565b600260fb55565b604080516001600160a01b03808816602083015291810186905290841660608201526080810183905260009061201a9060a001611f18565b9695505050505050565b604080516001600160a01b0385811660248301528416604482015260648082018490528251808303909101815260849091019091526020810180516001600160e01b03166323b872dd60e01b179052610ba19085906128be565b60008082610160546120909190613e47565b6040516bffffffffffffffffffffffff19606087901b1660208201524460348201524260548201526074810182905290915060009082906094016040516020818303038152906040528051906020012060001c6120ed9190613ef2565b600081815261016a60205260409020549091508190156121195750600081815261016a60205260409020545b61016a6000612129600186613e47565b81526020019081526020016000205460000361215f5761214a600184613e47565b600083815261016a6020526040902055612191565b61016a600061216f600186613e47565b8152602080820192909252604090810160009081205485825261016a90935220555b95945050505050565b6121b4828260405180602001604052806000815250612990565b5050565b600160fb55565b600054610100900460ff166121e65760405162461bcd60e51b815260040161083790613f14565b6121f089896129c3565b61012d80546001600160a01b0319166001600160a01b0387161790556122146129f4565b61221c612a2b565b612227848484612a5a565b6122308a610e76565b89516000036122765760405162461bcd60e51b815260206004820152601260248201527118985cd9555492481a5cc81b9bdd081cd95d60721b6044820152606401610837565b88516000036122ba5760405162461bcd60e51b815260206004820152601060248201526f17db985b59481a5cc81b9bdd081cd95d60821b6044820152606401610837565b87516000036123005760405162461bcd60e51b815260206004820152601260248201527117dcde5b589bdb081a5cc81b9bdd081cd95d60721b6044820152606401610837565b6001600160a01b0386166123565760405162461bcd60e51b815260206004820152601c60248201527f5369676e2061646472657373206973207a65726f2061646472657373000000006044820152606401610837565b6001600160a01b0385166123b65760405162461bcd60e51b815260206004820152602160248201527f5472757374656420666f72776172646572206973207a65726f206164647265736044820152607360f81b6064820152608401610837565b6001600160a01b03871661240c5760405162461bcd60e51b815260206004820152601a60248201527f53616e64206f776e6572206973207a65726f20616464726573730000000000006044820152606401610837565b6000811161245c5760405162461bcd60e51b815260206004820181905260248201527f4d617820737570706c792073686f756c64206265206d6f7265207468616e20306044820152606401610837565b61016c80546001600160a01b03808a166001600160a01b03199283161790925561016d8054928916929091169190911790556101608190556040517f1a3a62dc20450ece39e01e20bfba98408b580d8576926c8ca06f987f9db300bc906116e6908c908c908c908c908c9088908c908c908c90613f5f565b6121b46124df611ecc565b8383612b91565b6124f76124f1611ecc565b83612682565b6125135760405162461bcd60e51b815260040161083790613ea5565b610ba184848484612c5f565b606061016e80546106df90613c7e565b6060600061253c83612c92565b600101905060008167ffffffffffffffff81111561255c5761255c61392b565b6040519080825280601f01601f191660200182016040528015612586576020820181803683370190505b5090508181016020015b600019016f181899199a1a9b1b9c1cb0b131b232b360811b600a86061a8153600a850494508461259057509392505050565b60c980546001600160a01b038381166001600160a01b0319831681179093556040519116919082907f8be0079c531659141344cd1fd0a4f28419497f9722a3daafe3b4186f6b6457e090600090a35050565b600081815260696020526040902080546001600160a01b0319166001600160a01b038416908117909155819061264982610f01565b6001600160a01b03167f8c5be1e5ebec7d5bd14f71427d1e84f3dd0314c0f7b2291e5b200ac8c7c3b92560405160405180910390a45050565b60008061268e83610f01565b9050806001600160a01b0316846001600160a01b031614806126d557506001600160a01b038082166000908152606a602090815260408083209388168352929052205460ff165b806126f95750836001600160a01b03166126ee84610762565b6001600160a01b0316145b949350505050565b826001600160a01b031661271482610f01565b6001600160a01b03161461273a5760405162461bcd60e51b815260040161083790613fe1565b6001600160a01b03821661279c5760405162461bcd60e51b8152602060048201526024808201527f4552433732313a207472616e7366657220746f20746865207a65726f206164646044820152637265737360e01b6064820152608401610837565b6127a98383836001612d6a565b826001600160a01b03166127bc82610f01565b6001600160a01b0316146127e25760405162461bcd60e51b815260040161083790613fe1565b600081815260696020908152604080832080546001600160a01b03199081169091556001600160a01b0387811680865260688552838620805460001901905590871680865283862080546001019055868652606790945282852080549092168417909155905184937fddf252ad1be2c89b69c2b068fc378daa952ba7f163c4a11628f55a4df523b3ef91a4505050565b61012d546000906001600160a01b03163303612895575060131936013560601c90565b503390565b60008060006128a98585612e9e565b915091506128b681612ee3565b509392505050565b6000612913826040518060400160405280602081526020017f5361666545524332303a206c6f772d6c6576656c2063616c6c206661696c6564815250856001600160a01b031661302d9092919063ffffffff16565b80519091501561084a57808060200190518101906129319190613cb8565b61084a5760405162461bcd60e51b815260206004820152602a60248201527f5361666545524332303a204552433230206f7065726174696f6e20646964206e6044820152691bdd081cdd58d8d9595960b21b6064820152608401610837565b61299a838361303c565b6129a760008484846131d5565b61084a5760405162461bcd60e51b815260040161083790614026565b600054610100900460ff166129ea5760405162461bcd60e51b815260040161083790613f14565b6121b482826132dd565b600054610100900460ff16612a1b5760405162461bcd60e51b815260040161083790613f14565b611dce612a26611ecc565b6125c2565b600054610100900460ff16612a525760405162461bcd60e51b815260040161083790613f14565b611dce61331d565b600054610100900460ff16612a815760405162461bcd60e51b815260040161083790613f14565b61015f80546001600160a01b0319166001600160a01b0385169081179091553b1561084a578015612b185761015f54604051633e9f1edf60e11b81523060048201526001600160a01b03848116602483015290911690637d3e3dbe906044015b600060405180830381600087803b158015612afb57600080fd5b505af1158015612b0f573d6000803e3d6000fd5b50505050505050565b6001600160a01b03821615612b605761015f5460405163a0af290360e01b81523060048201526001600160a01b0384811660248301529091169063a0af290390604401612ae1565b61015f54604051632210724360e11b81523060048201526001600160a01b0390911690634420e48690602401612ae1565b816001600160a01b0316836001600160a01b031603612bf25760405162461bcd60e51b815260206004820152601960248201527f4552433732313a20617070726f766520746f2063616c6c6572000000000000006044820152606401610837565b6001600160a01b038381166000818152606a6020908152604080832094871680845294825291829020805460ff191686151590811790915591519182527f17307eab39ab6107e8899845ad3d59bd9653f200f220920489ca2b5937696c31910160405180910390a3505050565b612c6a848484612701565b612c76848484846131d5565b610ba15760405162461bcd60e51b815260040161083790614026565b60008072184f03e93ff9f4daa797ed6e38ed64bf6a1f0160401b8310612cd15772184f03e93ff9f4daa797ed6e38ed64bf6a1f0160401b830492506040015b6d04ee2d6d415b85acef81000000008310612cfd576d04ee2d6d415b85acef8100000000830492506020015b662386f26fc100008310612d1b57662386f26fc10000830492506010015b6305f5e1008310612d33576305f5e100830492506008015b6127108310612d4757612710830492506004015b60648310612d59576064830492506002015b600a83106106ca5760010192915050565b612d7684848484613344565b6001811115612de55760405162461bcd60e51b815260206004820152603560248201527f455243373231456e756d657261626c653a20636f6e7365637574697665207472604482015274185b9cd9995c9cc81b9bdd081cdd5c1c1bdc9d1959605a1b6064820152608401610837565b816001600160a01b038516612e4157612e3c81609980546000838152609a60205260408120829055600182018355919091527f72a152ddfb8e864297c917af52ea6c1c68aead0fee1a62673fcc7e0c94979d000155565b612e64565b836001600160a01b0316856001600160a01b031614612e6457612e6485826133cc565b6001600160a01b038416612e7b5761191a81613469565b846001600160a01b0316846001600160a01b0316146119bd576119bd8482613518565b6000808251604103612ed45760208301516040840151606085015160001a612ec88782858561355c565b94509450505050612edc565b506000905060025b9250929050565b6000816004811115612ef757612ef7614078565b03612eff5750565b6001816004811115612f1357612f13614078565b03612f605760405162461bcd60e51b815260206004820152601860248201527f45434453413a20696e76616c6964207369676e617475726500000000000000006044820152606401610837565b6002816004811115612f7457612f74614078565b03612fc15760405162461bcd60e51b815260206004820152601f60248201527f45434453413a20696e76616c6964207369676e6174757265206c656e677468006044820152606401610837565b6003816004811115612fd557612fd5614078565b03611b8b5760405162461bcd60e51b815260206004820152602260248201527f45434453413a20696e76616c6964207369676e6174757265202773272076616c604482015261756560f01b6064820152608401610837565b60606126f98484600085613620565b6001600160a01b0382166130925760405162461bcd60e51b815260206004820181905260248201527f4552433732313a206d696e7420746f20746865207a65726f20616464726573736044820152606401610837565b6000818152606760205260409020546001600160a01b0316156130f75760405162461bcd60e51b815260206004820152601c60248201527f4552433732313a20746f6b656e20616c7265616479206d696e746564000000006044820152606401610837565b613105600083836001612d6a565b6000818152606760205260409020546001600160a01b03161561316a5760405162461bcd60e51b815260206004820152601c60248201527f4552433732313a20746f6b656e20616c7265616479206d696e746564000000006044820152606401610837565b6001600160a01b038216600081815260686020908152604080832080546001019055848352606790915280822080546001600160a01b0319168417905551839291907fddf252ad1be2c89b69c2b068fc378daa952ba7f163c4a11628f55a4df523b3ef908290a45050565b60006001600160a01b0384163b156132d257836001600160a01b031663150b7a026131fe611ecc565b8786866040518563ffffffff1660e01b8152600401613220949392919061408e565b6020604051808303816000875af192505050801561325b575060408051601f3d908101601f19168201909252613258918101906140c1565b60015b6132b8573d808015613289576040519150601f19603f3d011682016040523d82523d6000602084013e61328e565b606091505b5080516000036132b05760405162461bcd60e51b815260040161083790614026565b805181602001fd5b6001600160e01b031916630a85bd0160e11b1490506126f9565b506001949350505050565b600054610100900460ff166133045760405162461bcd60e51b815260040161083790613f14565b60656133108382613d87565b50606661084a8282613d87565b600054610100900460ff166121b85760405162461bcd60e51b815260040161083790613f14565b6001811115610ba1576001600160a01b0384161561338a576001600160a01b03841660009081526068602052604081208054839290613384908490613e47565b90915550505b6001600160a01b03831615610ba1576001600160a01b038316600090815260686020526040812080548392906133c1908490613e5e565b909155505050505050565b600060016133d984611121565b6133e39190613e47565b600083815260986020526040902054909150808214613436576001600160a01b03841660009081526097602090815260408083208584528252808320548484528184208190558352609890915290208190555b5060009182526098602090815260408084208490556001600160a01b039094168352609781528383209183525290812055565b60995460009061347b90600190613e47565b6000838152609a6020526040812054609980549394509092849081106134a3576134a3613d23565b9060005260206000200154905080609983815481106134c4576134c4613d23565b6000918252602080832090910192909255828152609a909152604080822084905585825281205560998054806134fc576134fc6140de565b6001900381819060005260206000200160009055905550505050565b600061352383611121565b6001600160a01b039093166000908152609760209081526040808320868452825280832085905593825260989052919091209190915550565b6000807f7fffffffffffffffffffffffffffffff5d576e7357a4501ddfe92f46681b20a08311156135935750600090506003613617565b6040805160008082526020820180845289905260ff881692820192909252606081018690526080810185905260019060a0016020604051602081039080840390855afa1580156135e7573d6000803e3d6000fd5b5050604051601f1901519150506001600160a01b03811661361057600060019250925050613617565b9150600090505b94509492505050565b6060824710156136815760405162461bcd60e51b815260206004820152602660248201527f416464726573733a20696e73756666696369656e742062616c616e636520666f6044820152651c8818d85b1b60d21b6064820152608401610837565b600080866001600160a01b0316858760405161369d91906140f4565b60006040518083038185875af1925050503d80600081146136da576040519150601f19603f3d011682016040523d82523d6000602084013e6136df565b606091505b50915091506136f0878383876136fb565b979650505050505050565b6060831561376a578251600003613763576001600160a01b0385163b6137635760405162461bcd60e51b815260206004820152601d60248201527f416464726573733a2063616c6c20746f206e6f6e2d636f6e74726163740000006044820152606401610837565b50816126f9565b6126f9838381511561377f5781518083602001fd5b8060405162461bcd60e51b81526004016108379190613824565b6001600160e01b031981168114611b8b57600080fd5b6000602082840312156137c157600080fd5b8135610c7981613799565b60005b838110156137e75781810151838201526020016137cf565b83811115610ba15750506000910152565b600081518084526138108160208601602086016137cc565b601f01601f19169290920160200192915050565b602081526000610c7960208301846137f8565b60006020828403121561384957600080fd5b5035919050565b6001600160a01b0381168114611b8b57600080fd5b803561387081613850565b919050565b6000806040838503121561388857600080fd5b823561389381613850565b946020939093013593505050565b6000602082840312156138b357600080fd5b8135610c7981613850565b6000806000606084860312156138d357600080fd5b505081359360208301359350604090920135919050565b6000806000606084860312156138ff57600080fd5b833561390a81613850565b9250602084013561391a81613850565b929592945050506040919091013590565b634e487b7160e01b600052604160045260246000fd5b600082601f83011261395257600080fd5b813567ffffffffffffffff8082111561396d5761396d61392b565b604051601f8301601f19908116603f011681019082821181831017156139955761399561392b565b816040528381528660208588010111156139ae57600080fd5b836020870160208301376000602085830101528094505050505092915050565b6000602082840312156139e057600080fd5b813567ffffffffffffffff8111156139f757600080fd5b6126f984828501613941565b60008060008060808587031215613a1957600080fd5b84359350602085013567ffffffffffffffff811115613a3757600080fd5b613a4387828801613941565b949794965050505060408301359260600135919050565b60008060008060808587031215613a7057600080fd5b8435613a7b81613850565b93506020850135925060408501359150606085013567ffffffffffffffff811115613aa557600080fd5b613ab187828801613941565b91505092959194509250565b8015158114611b8b57600080fd5b803561387081613abd565b60008060008060008060008060006101208a8c031215613af557600080fd5b893567ffffffffffffffff80821115613b0d57600080fd5b613b198d838e01613941565b9a5060208c0135915080821115613b2f57600080fd5b613b3b8d838e01613941565b995060408c0135915080821115613b5157600080fd5b50613b5e8c828d01613941565b975050613b6d60608b01613865565b9550613b7b60808b01613865565b9450613b8960a08b01613865565b9350613b9760c08b01613865565b9250613ba560e08b01613865565b9150613bb46101008b01613acb565b90509295985092959850929598565b60008060408385031215613bd657600080fd5b8235613be181613850565b91506020830135613bf181613abd565b809150509250929050565b60008060008060808587031215613c1257600080fd5b8435613c1d81613850565b93506020850135613c2d81613850565b925060408501359150606085013567ffffffffffffffff811115613aa557600080fd5b60008060408385031215613c6357600080fd5b8235613c6e81613850565b91506020830135613bf181613850565b600181811c90821680613c9257607f821691505b602082108103613cb257634e487b7160e01b600052602260045260246000fd5b50919050565b600060208284031215613cca57600080fd5b8151610c7981613abd565b634e487b7160e01b600052601160045260246000fd5b600060018201613cfd57613cfd613cd5565b5060010190565b6000816000190483118215151615613d1e57613d1e613cd5565b500290565b634e487b7160e01b600052603260045260246000fd5b601f82111561084a57600081815260208120601f850160051c81016020861015613d605750805b601f850160051c820191505b81811015613d7f57828155600101613d6c565b505050505050565b815167ffffffffffffffff811115613da157613da161392b565b613db581613daf8454613c7e565b84613d39565b602080601f831160018114613dea5760008415613dd25750858301515b600019600386901b1c1916600185901b178555613d7f565b600085815260208120601f198616915b82811015613e1957888601518255948401946001909101908401613dfa565b5085821015613e375787850151600019600388901b60f8161c191681555b5050505050600190811b01905550565b600082821015613e5957613e59613cd5565b500390565b60008219821115613e7157613e71613cd5565b500190565b60008351613e888184602088016137cc565b835190830190613e9c8183602088016137cc565b01949350505050565b6020808252602d908201527f4552433732313a2063616c6c6572206973206e6f7420746f6b656e206f776e6560408201526c1c881bdc88185c1c1c9bdd9959609a1b606082015260800190565b600082613f0f57634e487b7160e01b600052601260045260246000fd5b500690565b6020808252602b908201527f496e697469616c697a61626c653a20636f6e7472616374206973206e6f74206960408201526a6e697469616c697a696e6760a81b606082015260800190565b6000610120808352613f738184018d6137f8565b90508281036020840152613f87818c6137f8565b90508281036040840152613f9b818b6137f8565b6001600160a01b03998a1660608501529789166080840152505060a081019490945291851660c084015290931660e0820152911515610100909201919091529392505050565b60208082526025908201527f4552433732313a207472616e736665722066726f6d20696e636f72726563742060408201526437bbb732b960d91b606082015260800190565b60208082526032908201527f4552433732313a207472616e7366657220746f206e6f6e20455243373231526560408201527131b2b4bb32b91034b6b83632b6b2b73a32b960711b606082015260800190565b634e487b7160e01b600052602160045260246000fd5b6001600160a01b038581168252841660208201526040810183905260806060820181905260009061201a908301846137f8565b6000602082840312156140d357600080fd5b8151610c7981613799565b634e487b7160e01b600052603160045260246000fd5b600082516141068184602087016137cc565b919091019291505056fea264697066735822122051e8db3792bb0bc293d591d04808e699a3d7284bfca2d8ed90f89bfe963d40d064736f6c634300080f0033",
    "linkReferences": {}
  },
  "methodIdentifiers": {
    "MAX_SUPPLY()": "32cb6b0c",
    "allowedToExecuteMint()": "ac3149e3",
    "approve(address,uint256)": "095ea7b3",
    "balanceOf(address)": "70a08231",
    "baseTokenURI()": "d547cfb7",
    "chain()": "c763e5a1",
    "checkMintAllowed(address,uint256)": "283ca77c",
    "getApproved(uint256)": "081812fc",
    "getTrustedForwarder()": "ce1b815f",
    "indexWave()": "34b35ac0",
    "initialize(string,string,string,address,address,address,address,address,bool)": "7c3bfcfa",
    "isApprovedForAll(address,address)": "e985e9c5",
    "isTrustedForwarder(address)": "572b6c05",
    "maxSupply()": "d5abeb01",
    "mint(address,uint256,uint256,bytes)": "731133e9",
    "name()": "06fdde03",
    "operatorFilterRegistry()": "b0ccc31e",
    "owner()": "8da5cb5b",
    "ownerOf(uint256)": "6352211e",
    "paused()": "5c975abb",
    "personalizationOf(uint256)": "97944ba2",
    "personalizationTraits(uint256)": "677ec90f",
    "personalize(uint256,bytes,uint256,uint256)": "671b2a31",
    "price(uint256)": "26a49e37",
    "renounceOwnership()": "715018a6",
    "safeTransferFrom(address,address,uint256)": "42842e0e",
    "safeTransferFrom(address,address,uint256,bytes)": "b88d4fde",
    "sandOwner()": "e89bcd09",
    "setAllowedExecuteMint(address)": "82bc7877",
    "setApprovalForAll(address,bool)": "a22cb465",
    "setBaseURI(string)": "55f804b3",
    "setSandOwnerAddress(address)": "24a6f085",
    "setSignAddress(address)": "15137045",
    "setupWave(uint256,uint256,uint256)": "1992c3f3",
    "signAddress()": "0682bdbc",
    "supportsInterface(bytes4)": "01ffc9a7",
    "symbol()": "95d89b41",
    "toggleSale()": "7d8966e4",
    "tokenByIndex(uint256)": "4f6ccce7",
    "tokenOfOwnerByIndex(address,uint256)": "2f745c59",
    "tokenURI(uint256)": "c87b56dd",
    "totalSupply()": "18160ddd",
    "transferFrom(address,address,uint256)": "23b872dd",
    "transferOwnership(address)": "f2fde38b",
    "updateOperatorFilterRegistryAddress(address)": "b8d1e532",
    "waveMaxTokens()": "d5878eaa",
    "waveMaxTokensToBuy()": "df9740da",
    "waveOwnerToClaimedCounts(address,uint256)": "68d4a778",
    "waveSingleTokenPrice()": "433ad106",
    "waveTotalMinted()": "3e84aa5e"
  },
  "id": 87
}