{
  "abi": [
    {
      "inputs": [
        {
          "internalType": "address",
          "name": "_paymentToken",
          "type": "address"
        }
      ],
      "stateMutability": "nonpayable",
      "type": "constructor"
    },
    {
      "inputs": [],
      "name": "OnlyOwner",
      "type": "error"
    },
    {
      "inputs": [
        {
          "internalType": "address",
          "name": "operator",
          "type": "address"
        }
      ],
      "name": "OperatorNotAllowed",
      "type": "error"
    },
    {
      "anonymous": false,
      "inputs": [
        {
          "indexed": false,
          "internalType": "address",
          "name": "_address",
          "type": "address"
        }
      ],
      "name": "AllowedExecuteMintSet",
      "type": "event"
    },
    {
      "anonymous": false,
      "inputs": [
        {
          "indexed": true,
          "internalType": "address",
          "name": "owner",
          "type": "address"
        },
        {
          "indexed": true,
          "internalType": "address",
          "name": "approved",
          "type": "address"
        },
        {
          "indexed": true,
          "internalType": "uint256",
          "name": "tokenId",
          "type": "uint256"
        }
      ],
      "name": "Approval",
      "type": "event"
    },
    {
      "anonymous": false,
      "inputs": [
        {
          "indexed": true,
          "internalType": "address",
          "name": "owner",
          "type": "address"
        },
        {
          "indexed": true,
          "internalType": "address",
          "name": "operator",
          "type": "address"
        },
        {
          "indexed": false,
          "internalType": "bool",
          "name": "approved",
          "type": "bool"
        }
      ],
      "name": "ApprovalForAll",
      "type": "event"
    },
    {
      "anonymous": false,
      "inputs": [
        {
          "indexed": false,
          "internalType": "string",
          "name": "baseURI",
          "type": "string"
        }
      ],
      "name": "BaseURISet",
      "type": "event"
    },
    {
      "anonymous": false,
      "inputs": [
        {
          "indexed": false,
          "internalType": "string",
          "name": "baseURI",
          "type": "string"
        },
        {
          "indexed": false,
          "internalType": "string",
          "name": "_name",
          "type": "string"
        },
        {
          "indexed": false,
          "internalType": "string",
          "name": "_symbol",
          "type": "string"
        },
        {
          "indexed": false,
          "internalType": "address",
          "name": "_mintTreasury",
          "type": "address"
        },
        {
          "indexed": false,
          "internalType": "address",
          "name": "_signAddress",
          "type": "address"
        },
        {
          "indexed": false,
          "internalType": "uint256",
          "name": "_maxSupply",
          "type": "uint256"
        },
        {
          "indexed": false,
          "internalType": "address",
          "name": "_registry",
          "type": "address"
        },
        {
          "indexed": false,
          "internalType": "address",
          "name": "_operatorFiltererSubscription",
          "type": "address"
        },
        {
          "indexed": false,
          "internalType": "bool",
          "name": "_operatorFiltererSubscriptionSubscribe",
          "type": "bool"
        }
      ],
      "name": "ContractInitialized",
      "type": "event"
    },
    {
      "anonymous": false,
      "inputs": [
        {
          "indexed": false,
          "internalType": "uint8",
          "name": "version",
          "type": "uint8"
        }
      ],
      "name": "Initialized",
      "type": "event"
    },
    {
      "anonymous": false,
      "inputs": [
        {
          "indexed": false,
          "internalType": "address",
          "name": "newRegistry",
          "type": "address"
        }
      ],
      "name": "OperatorFilterRegistryAddressUpdated",
      "type": "event"
    },
    {
      "anonymous": false,
      "inputs": [
        {
          "indexed": true,
          "internalType": "address",
          "name": "previousOwner",
          "type": "address"
        },
        {
          "indexed": true,
          "internalType": "address",
          "name": "newOwner",
          "type": "address"
        }
      ],
      "name": "OwnershipTransferStarted",
      "type": "event"
    },
    {
      "anonymous": false,
      "inputs": [
        {
          "indexed": true,
          "internalType": "address",
          "name": "previousOwner",
          "type": "address"
        },
        {
          "indexed": true,
          "internalType": "address",
          "name": "newOwner",
          "type": "address"
        }
      ],
      "name": "OwnershipTransferred",
      "type": "event"
    },
    {
      "anonymous": false,
      "inputs": [
        {
          "indexed": false,
          "internalType": "uint256",
          "name": "_tokenId",
          "type": "uint256"
        },
        {
          "indexed": false,
          "internalType": "uint256",
          "name": "_personalizationMask",
          "type": "uint256"
        }
      ],
      "name": "Personalized",
      "type": "event"
    },
    {
      "anonymous": false,
      "inputs": [
        {
          "indexed": true,
          "internalType": "bytes32",
          "name": "role",
          "type": "bytes32"
        },
        {
          "indexed": true,
          "internalType": "bytes32",
          "name": "previousAdminRole",
          "type": "bytes32"
        },
        {
          "indexed": true,
          "internalType": "bytes32",
          "name": "newAdminRole",
          "type": "bytes32"
        }
      ],
      "name": "RoleAdminChanged",
      "type": "event"
    },
    {
      "anonymous": false,
      "inputs": [
        {
          "indexed": true,
          "internalType": "bytes32",
          "name": "role",
          "type": "bytes32"
        },
        {
          "indexed": true,
          "internalType": "address",
          "name": "account",
          "type": "address"
        },
        {
          "indexed": true,
          "internalType": "address",
          "name": "sender",
          "type": "address"
        }
      ],
      "name": "RoleGranted",
      "type": "event"
    },
    {
      "anonymous": false,
      "inputs": [
        {
          "indexed": true,
          "internalType": "bytes32",
          "name": "role",
          "type": "bytes32"
        },
        {
          "indexed": true,
          "internalType": "address",
          "name": "account",
          "type": "address"
        },
        {
          "indexed": true,
          "internalType": "address",
          "name": "sender",
          "type": "address"
        }
      ],
      "name": "RoleRevoked",
      "type": "event"
    },
    {
      "anonymous": false,
      "inputs": [
        {
          "indexed": false,
          "internalType": "bool",
          "name": "_pause",
          "type": "bool"
        }
      ],
      "name": "SaleToggled",
      "type": "event"
    },
    {
      "anonymous": false,
      "inputs": [
        {
          "indexed": false,
          "internalType": "address",
          "name": "_signAddress",
          "type": "address"
        }
      ],
      "name": "SignAddressSet",
      "type": "event"
    },
    {
      "anonymous": false,
      "inputs": [
        {
          "indexed": true,
          "internalType": "enum CollectionStateManagement.State",
          "name": "oldState",
          "type": "uint8"
        },
        {
          "indexed": true,
          "internalType": "enum CollectionStateManagement.State",
          "name": "newState",
          "type": "uint8"
        }
      ],
      "name": "StateChanged",
      "type": "event"
    },
    {
      "anonymous": false,
      "inputs": [
        {
          "indexed": true,
          "internalType": "uint256",
          "name": "tokenId",
          "type": "uint256"
        },
        {
          "indexed": true,
          "internalType": "address",
          "name": "burner",
          "type": "address"
        }
      ],
      "name": "TokenBurned",
      "type": "event"
    },
    {
      "anonymous": false,
      "inputs": [
        {
          "indexed": true,
          "internalType": "address",
          "name": "from",
          "type": "address"
        },
        {
          "indexed": true,
          "internalType": "address",
          "name": "to",
          "type": "address"
        },
        {
          "indexed": true,
          "internalType": "uint256",
          "name": "tokenId",
          "type": "uint256"
        }
      ],
      "name": "Transfer",
      "type": "event"
    },
    {
      "anonymous": false,
      "inputs": [
        {
          "indexed": false,
          "internalType": "address",
          "name": "_owner",
          "type": "address"
        }
      ],
      "name": "TreasurySet",
      "type": "event"
    },
    {
      "anonymous": false,
      "inputs": [
        {
          "indexed": false,
          "internalType": "uint256",
          "name": "_waveMaxTokens",
          "type": "uint256"
        },
        {
          "indexed": false,
          "internalType": "uint256",
          "name": "_waveMaxTokensToBuy",
          "type": "uint256"
        },
        {
          "indexed": false,
          "internalType": "uint256",
          "name": "_waveSingleTokenPrice",
          "type": "uint256"
        }
      ],
      "name": "WaveSetup",
      "type": "event"
    },
    {
      "inputs": [],
      "name": "ADMIN_ROLE",
      "outputs": [
        {
          "internalType": "bytes32",
          "name": "",
          "type": "bytes32"
        }
      ],
      "stateMutability": "view",
      "type": "function"
    },
    {
      "inputs": [],
      "name": "CONFIGURATOR_ROLE",
      "outputs": [
        {
          "internalType": "bytes32",
          "name": "",
          "type": "bytes32"
        }
      ],
      "stateMutability": "view",
      "type": "function"
    },
    {
      "inputs": [],
      "name": "DEFAULT_ADMIN_ROLE",
      "outputs": [
        {
          "internalType": "bytes32",
          "name": "",
          "type": "bytes32"
        }
      ],
      "stateMutability": "view",
      "type": "function"
    },
    {
      "inputs": [],
      "name": "TRANSFORMER_ROLE",
      "outputs": [
        {
          "internalType": "bytes32",
          "name": "",
          "type": "bytes32"
        }
      ],
      "stateMutability": "view",
      "type": "function"
    },
    {
      "inputs": [],
      "name": "acceptOwnership",
      "outputs": [],
      "stateMutability": "nonpayable",
      "type": "function"
    },
    {
      "inputs": [
        {
          "internalType": "address",
          "name": "account",
          "type": "address"
        }
      ],
      "name": "addConfigurator",
      "outputs": [],
      "stateMutability": "nonpayable",
      "type": "function"
    },
    {
      "inputs": [
        {
          "internalType": "address",
          "name": "account",
          "type": "address"
        }
      ],
      "name": "addTransformer",
      "outputs": [],
      "stateMutability": "nonpayable",
      "type": "function"
    },
    {
      "inputs": [],
      "name": "allowedToExecuteMint",
      "outputs": [
        {
          "internalType": "address",
          "name": "",
          "type": "address"
        }
      ],
      "stateMutability": "view",
      "type": "function"
    },
    {
      "inputs": [
        {
          "internalType": "address",
          "name": "operator",
          "type": "address"
        },
        {
          "internalType": "uint256",
          "name": "tokenId",
          "type": "uint256"
        }
      ],
      "name": "approve",
      "outputs": [],
      "stateMutability": "nonpayable",
      "type": "function"
    },
    {
      "inputs": [
        {
          "internalType": "address",
          "name": "owner",
          "type": "address"
        }
      ],
      "name": "balanceOf",
      "outputs": [
        {
          "internalType": "uint256",
          "name": "",
          "type": "uint256"
        }
      ],
      "stateMutability": "view",
      "type": "function"
    },
    {
      "inputs": [],
      "name": "baseTokenURI",
      "outputs": [
        {
          "internalType": "string",
          "name": "",
          "type": "string"
        }
      ],
      "stateMutability": "view",
      "type": "function"
    },
    {
      "inputs": [
        {
          "internalType": "uint256",
          "name": "tokenId",
          "type": "uint256"
        }
      ],
      "name": "burn",
      "outputs": [],
      "stateMutability": "nonpayable",
      "type": "function"
    },
    {
      "inputs": [
        {
          "internalType": "address",
          "name": "",
          "type": "address"
        },
        {
          "internalType": "uint256",
          "name": "",
          "type": "uint256"
        }
      ],
      "name": "burnedTokens",
      "outputs": [
        {
          "internalType": "uint256",
          "name": "",
          "type": "uint256"
        }
      ],
      "stateMutability": "view",
      "type": "function"
    },
    {
      "inputs": [
        {
          "internalType": "address",
          "name": "previousOwner",
          "type": "address"
        }
      ],
      "name": "burnedTokensCount",
      "outputs": [
        {
          "internalType": "uint256",
          "name": "",
          "type": "uint256"
        }
      ],
      "stateMutability": "view",
      "type": "function"
    },
    {
      "inputs": [
        {
          "internalType": "uint256",
          "name": "",
          "type": "uint256"
        }
      ],
      "name": "burner",
      "outputs": [
        {
          "internalType": "address",
          "name": "",
          "type": "address"
        }
      ],
      "stateMutability": "view",
      "type": "function"
    },
    {
      "inputs": [
        {
          "internalType": "uint256",
          "name": "tokenId",
          "type": "uint256"
        }
      ],
      "name": "burnerOf",
      "outputs": [
        {
          "internalType": "address",
          "name": "",
          "type": "address"
        }
      ],
      "stateMutability": "view",
      "type": "function"
    },
    {
      "inputs": [],
      "name": "chain",
      "outputs": [
        {
          "internalType": "uint256",
          "name": "",
          "type": "uint256"
        }
      ],
      "stateMutability": "view",
      "type": "function"
    },
    {
      "inputs": [
        {
          "internalType": "enum CollectionStateManagement.State",
          "name": "state",
          "type": "uint8"
        }
      ],
      "name": "changeState",
      "outputs": [],
      "stateMutability": "nonpayable",
      "type": "function"
    },
    {
      "inputs": [
        {
          "internalType": "address",
          "name": "_wallet",
          "type": "address"
        },
        {
          "internalType": "uint256",
          "name": "_amount",
          "type": "uint256"
        }
      ],
      "name": "checkMintAllowed",
      "outputs": [
        {
          "internalType": "bool",
          "name": "",
          "type": "bool"
        }
      ],
      "stateMutability": "view",
      "type": "function"
    },
    {
      "inputs": [],
      "name": "currentState",
      "outputs": [
        {
          "internalType": "enum CollectionStateManagement.State",
          "name": "",
          "type": "uint8"
        }
      ],
      "stateMutability": "view",
      "type": "function"
    },
    {
      "inputs": [
        {
          "internalType": "address",
          "name": "previousOwner",
          "type": "address"
        }
      ],
      "name": "didBurnTokens",
      "outputs": [
        {
          "internalType": "bool",
          "name": "",
          "type": "bool"
        }
      ],
      "stateMutability": "view",
      "type": "function"
    },
    {
      "inputs": [
        {
          "internalType": "uint256",
          "name": "tokenId",
          "type": "uint256"
        }
      ],
      "name": "getApproved",
      "outputs": [
        {
          "internalType": "address",
          "name": "",
          "type": "address"
        }
      ],
      "stateMutability": "view",
      "type": "function"
    },
    {
      "inputs": [
        {
          "internalType": "bytes32",
          "name": "role",
          "type": "bytes32"
        }
      ],
      "name": "getRoleAdmin",
      "outputs": [
        {
          "internalType": "bytes32",
          "name": "",
          "type": "bytes32"
        }
      ],
      "stateMutability": "view",
      "type": "function"
    },
    {
      "inputs": [],
      "name": "getTrustedForwarder",
      "outputs": [
        {
          "internalType": "address",
          "name": "trustedForwarder",
          "type": "address"
        }
      ],
      "stateMutability": "view",
      "type": "function"
    },
    {
      "inputs": [
        {
          "internalType": "bytes32",
          "name": "role",
          "type": "bytes32"
        },
        {
          "internalType": "address",
          "name": "account",
          "type": "address"
        }
      ],
      "name": "grantRole",
      "outputs": [],
      "stateMutability": "nonpayable",
      "type": "function"
    },
    {
      "inputs": [
        {
          "internalType": "bytes32",
          "name": "role",
          "type": "bytes32"
        },
        {
          "internalType": "address",
          "name": "account",
          "type": "address"
        }
      ],
      "name": "hasRole",
      "outputs": [
        {
          "internalType": "bool",
          "name": "",
          "type": "bool"
        }
      ],
      "stateMutability": "view",
      "type": "function"
    },
    {
      "inputs": [],
      "name": "indexWave",
      "outputs": [
        {
          "internalType": "uint256",
          "name": "",
          "type": "uint256"
        }
      ],
      "stateMutability": "view",
      "type": "function"
    },
    {
      "inputs": [
        {
          "internalType": "address",
          "name": "_collectionOwner",
          "type": "address"
        },
        {
          "internalType": "string",
          "name": "_initialBaseURI",
          "type": "string"
        },
        {
          "internalType": "string",
          "name": "_name",
          "type": "string"
        },
        {
          "internalType": "string",
          "name": "_symbol",
          "type": "string"
        },
        {
          "internalType": "address payable",
          "name": "_mintTreasury",
          "type": "address"
        },
        {
          "internalType": "address",
          "name": "_signAddress",
          "type": "address"
        },
        {
          "internalType": "address",
          "name": "_initialTrustedForwarder",
          "type": "address"
        },
        {
          "internalType": "address",
          "name": "_registry",
          "type": "address"
        },
        {
          "internalType": "address",
          "name": "_operatorFiltererSubscription",
          "type": "address"
        },
        {
          "internalType": "bool",
          "name": "_operatorFiltererSubscriptionSubscribe",
          "type": "bool"
        },
        {
          "internalType": "uint256",
          "name": "_maxSupply",
          "type": "uint256"
        }
      ],
      "name": "initialize",
      "outputs": [],
      "stateMutability": "nonpayable",
      "type": "function"
    },
    {
      "inputs": [
        {
          "internalType": "address",
          "name": "owner",
          "type": "address"
        },
        {
          "internalType": "address",
          "name": "operator",
          "type": "address"
        }
      ],
      "name": "isApprovedForAll",
      "outputs": [
        {
          "internalType": "bool",
          "name": "",
          "type": "bool"
        }
      ],
      "stateMutability": "view",
      "type": "function"
    },
    {
      "inputs": [
        {
          "internalType": "address",
          "name": "forwarder",
          "type": "address"
        }
      ],
      "name": "isTrustedForwarder",
      "outputs": [
        {
          "internalType": "bool",
          "name": "",
          "type": "bool"
        }
      ],
      "stateMutability": "view",
      "type": "function"
    },
    {
      "inputs": [],
      "name": "maxSupply",
      "outputs": [
        {
          "internalType": "uint256",
          "name": "",
          "type": "uint256"
        }
      ],
      "stateMutability": "view",
      "type": "function"
    },
    {
      "inputs": [
        {
          "internalType": "address",
          "name": "_wallet",
          "type": "address"
        },
        {
          "internalType": "uint256",
          "name": "_amount",
          "type": "uint256"
        },
        {
          "internalType": "uint256",
          "name": "_signatureId",
          "type": "uint256"
        },
        {
          "internalType": "bytes",
          "name": "_signature",
          "type": "bytes"
        }
      ],
      "name": "mint",
      "outputs": [],
      "stateMutability": "nonpayable",
      "type": "function"
    },
    {
      "inputs": [],
      "name": "mintTreasury",
      "outputs": [
        {
          "internalType": "address",
          "name": "",
          "type": "address"
        }
      ],
      "stateMutability": "view",
      "type": "function"
    },
    {
      "inputs": [
        {
          "internalType": "address",
          "name": "_wallet",
          "type": "address"
        },
        {
          "internalType": "uint256",
          "name": "_amount",
          "type": "uint256"
        }
      ],
      "name": "mintWithSand",
      "outputs": [],
      "stateMutability": "nonpayable",
      "type": "function"
    },
    {
      "inputs": [],
      "name": "name",
      "outputs": [
        {
          "internalType": "string",
          "name": "",
          "type": "string"
        }
      ],
      "stateMutability": "view",
      "type": "function"
    },
    {
      "inputs": [],
      "name": "operatorFilterRegistry",
      "outputs": [
        {
          "internalType": "address",
          "name": "",
          "type": "address"
        }
      ],
      "stateMutability": "view",
      "type": "function"
    },
    {
      "inputs": [],
      "name": "owner",
      "outputs": [
        {
          "internalType": "address",
          "name": "",
          "type": "address"
        }
      ],
      "stateMutability": "view",
      "type": "function"
    },
    {
      "inputs": [
        {
          "internalType": "uint256",
          "name": "tokenId",
          "type": "uint256"
        }
      ],
      "name": "ownerOf",
      "outputs": [
        {
          "internalType": "address",
          "name": "",
          "type": "address"
        }
      ],
      "stateMutability": "view",
      "type": "function"
    },
    {
      "inputs": [],
      "name": "paused",
      "outputs": [
        {
          "internalType": "uint256",
          "name": "",
          "type": "uint256"
        }
      ],
      "stateMutability": "view",
      "type": "function"
    },
    {
      "inputs": [],
      "name": "paymentToken",
      "outputs": [
        {
          "internalType": "contract IERC20",
          "name": "",
          "type": "address"
        }
      ],
      "stateMutability": "view",
      "type": "function"
    },
    {
      "inputs": [],
      "name": "pendingOwner",
      "outputs": [
        {
          "internalType": "address",
          "name": "",
          "type": "address"
        }
      ],
      "stateMutability": "view",
      "type": "function"
    },
    {
      "inputs": [
        {
          "internalType": "uint256",
          "name": "_tokenId",
          "type": "uint256"
        }
      ],
      "name": "personalizationOf",
      "outputs": [
        {
          "internalType": "uint256",
          "name": "",
          "type": "uint256"
        }
      ],
      "stateMutability": "view",
      "type": "function"
    },
    {
      "inputs": [
        {
          "internalType": "uint256",
          "name": "",
          "type": "uint256"
        }
      ],
      "name": "personalizationTraits",
      "outputs": [
        {
          "internalType": "uint256",
          "name": "",
          "type": "uint256"
        }
      ],
      "stateMutability": "view",
      "type": "function"
    },
    {
      "inputs": [
        {
          "internalType": "uint256",
          "name": "_signatureId",
          "type": "uint256"
        },
        {
          "internalType": "bytes",
          "name": "_signature",
          "type": "bytes"
        },
        {
          "internalType": "uint256",
          "name": "_tokenId",
          "type": "uint256"
        },
        {
          "internalType": "uint256",
          "name": "_personalizationMask",
          "type": "uint256"
        }
      ],
      "name": "personalize",
      "outputs": [],
      "stateMutability": "nonpayable",
      "type": "function"
    },
    {
      "inputs": [
        {
          "internalType": "uint256",
          "name": "_count",
          "type": "uint256"
        }
      ],
      "name": "price",
      "outputs": [
        {
          "internalType": "uint256",
          "name": "",
          "type": "uint256"
        }
      ],
      "stateMutability": "view",
      "type": "function"
    },
    {
      "inputs": [],
      "name": "renounceOwnership",
      "outputs": [],
      "stateMutability": "nonpayable",
      "type": "function"
    },
    {
      "inputs": [
        {
          "internalType": "bytes32",
          "name": "role",
          "type": "bytes32"
        },
        {
          "internalType": "address",
          "name": "account",
          "type": "address"
        }
      ],
      "name": "renounceRole",
      "outputs": [],
      "stateMutability": "nonpayable",
      "type": "function"
    },
    {
      "inputs": [
        {
          "internalType": "address",
          "name": "account",
          "type": "address"
        }
      ],
      "name": "revokeConfiguratorRole",
      "outputs": [],
      "stateMutability": "nonpayable",
      "type": "function"
    },
    {
      "inputs": [
        {
          "internalType": "bytes32",
          "name": "role",
          "type": "bytes32"
        },
        {
          "internalType": "address",
          "name": "account",
          "type": "address"
        }
      ],
      "name": "revokeRole",
      "outputs": [],
      "stateMutability": "nonpayable",
      "type": "function"
    },
    {
      "inputs": [
        {
          "internalType": "address",
          "name": "account",
          "type": "address"
        }
      ],
      "name": "revokeTransformerRole",
      "outputs": [],
      "stateMutability": "nonpayable",
      "type": "function"
    },
    {
      "inputs": [
        {
          "internalType": "address",
          "name": "from",
          "type": "address"
        },
        {
          "internalType": "address",
          "name": "to",
          "type": "address"
        },
        {
          "internalType": "uint256",
          "name": "tokenId",
          "type": "uint256"
        }
      ],
      "name": "safeTransferFrom",
      "outputs": [],
      "stateMutability": "nonpayable",
      "type": "function"
    },
    {
      "inputs": [
        {
          "internalType": "address",
          "name": "from",
          "type": "address"
        },
        {
          "internalType": "address",
          "name": "to",
          "type": "address"
        },
        {
          "internalType": "uint256",
          "name": "tokenId",
          "type": "uint256"
        },
        {
          "internalType": "bytes",
          "name": "data",
          "type": "bytes"
        }
      ],
      "name": "safeTransferFrom",
      "outputs": [],
      "stateMutability": "nonpayable",
      "type": "function"
    },
    {
      "inputs": [
        {
          "internalType": "address",
          "name": "_address",
          "type": "address"
        }
      ],
      "name": "setAllowedExecuteMint",
      "outputs": [],
      "stateMutability": "nonpayable",
      "type": "function"
    },
    {
      "inputs": [
        {
          "internalType": "address",
          "name": "operator",
          "type": "address"
        },
        {
          "internalType": "bool",
          "name": "approved",
          "type": "bool"
        }
      ],
      "name": "setApprovalForAll",
      "outputs": [],
      "stateMutability": "nonpayable",
      "type": "function"
    },
    {
      "inputs": [
        {
          "internalType": "string",
          "name": "baseURI",
          "type": "string"
        }
      ],
      "name": "setBaseURI",
      "outputs": [],
      "stateMutability": "nonpayable",
      "type": "function"
    },
    {
      "inputs": [
        {
          "internalType": "address",
          "name": "_signAddress",
          "type": "address"
        }
      ],
      "name": "setSignAddress",
      "outputs": [],
      "stateMutability": "nonpayable",
      "type": "function"
    },
    {
      "inputs": [
        {
          "internalType": "address",
          "name": "_treasury",
          "type": "address"
        }
      ],
      "name": "setTreasury",
      "outputs": [],
      "stateMutability": "nonpayable",
      "type": "function"
    },
    {
      "inputs": [
        {
          "internalType": "uint256",
          "name": "_waveMaxTokens",
          "type": "uint256"
        },
        {
          "internalType": "uint256",
          "name": "_waveMaxTokensToBuy",
          "type": "uint256"
        },
        {
          "internalType": "uint256",
          "name": "_waveSingleTokenPrice",
          "type": "uint256"
        }
      ],
      "name": "setupWave",
      "outputs": [],
      "stateMutability": "nonpayable",
      "type": "function"
    },
    {
      "inputs": [],
      "name": "signAddress",
      "outputs": [
        {
          "internalType": "address",
          "name": "",
          "type": "address"
        }
      ],
      "stateMutability": "view",
      "type": "function"
    },
    {
      "inputs": [
        {
          "internalType": "bytes4",
          "name": "interfaceId",
          "type": "bytes4"
        }
      ],
      "name": "supportsInterface",
      "outputs": [
        {
          "internalType": "bool",
          "name": "",
          "type": "bool"
        }
      ],
      "stateMutability": "view",
      "type": "function"
    },
    {
      "inputs": [],
      "name": "symbol",
      "outputs": [
        {
          "internalType": "string",
          "name": "",
          "type": "string"
        }
      ],
      "stateMutability": "view",
      "type": "function"
    },
    {
      "inputs": [],
      "name": "toggleSale",
      "outputs": [],
      "stateMutability": "nonpayable",
      "type": "function"
    },
    {
      "inputs": [
        {
          "internalType": "uint256",
          "name": "index",
          "type": "uint256"
        }
      ],
      "name": "tokenByIndex",
      "outputs": [
        {
          "internalType": "uint256",
          "name": "",
          "type": "uint256"
        }
      ],
      "stateMutability": "view",
      "type": "function"
    },
    {
      "inputs": [
        {
          "internalType": "address",
          "name": "owner",
          "type": "address"
        },
        {
          "internalType": "uint256",
          "name": "index",
          "type": "uint256"
        }
      ],
      "name": "tokenOfOwnerByIndex",
      "outputs": [
        {
          "internalType": "uint256",
          "name": "",
          "type": "uint256"
        }
      ],
      "stateMutability": "view",
      "type": "function"
    },
    {
      "inputs": [
        {
          "internalType": "uint256",
          "name": "tokenId",
          "type": "uint256"
        }
      ],
      "name": "tokenURI",
      "outputs": [
        {
          "internalType": "string",
          "name": "",
          "type": "string"
        }
      ],
      "stateMutability": "view",
      "type": "function"
    },
    {
      "inputs": [],
      "name": "totalSupply",
      "outputs": [
        {
          "internalType": "uint256",
          "name": "",
          "type": "uint256"
        }
      ],
      "stateMutability": "view",
      "type": "function"
    },
    {
      "inputs": [
        {
          "internalType": "address",
          "name": "from",
          "type": "address"
        },
        {
          "internalType": "address",
          "name": "to",
          "type": "address"
        },
        {
          "internalType": "uint256",
          "name": "tokenId",
          "type": "uint256"
        }
      ],
      "name": "transferFrom",
      "outputs": [],
      "stateMutability": "nonpayable",
      "type": "function"
    },
    {
      "inputs": [
        {
          "internalType": "address",
          "name": "newOwner",
          "type": "address"
        }
      ],
      "name": "transferOwnership",
      "outputs": [],
      "stateMutability": "nonpayable",
      "type": "function"
    },
    {
      "inputs": [
        {
          "internalType": "address",
          "name": "newRegistry",
          "type": "address"
        }
      ],
      "name": "updateOperatorFilterRegistryAddress",
      "outputs": [],
      "stateMutability": "nonpayable",
      "type": "function"
    },
    {
      "inputs": [],
      "name": "waveMaxTokens",
      "outputs": [
        {
          "internalType": "uint256",
          "name": "",
          "type": "uint256"
        }
      ],
      "stateMutability": "view",
      "type": "function"
    },
    {
      "inputs": [],
      "name": "waveMaxTokensToBuy",
      "outputs": [
        {
          "internalType": "uint256",
          "name": "",
          "type": "uint256"
        }
      ],
      "stateMutability": "view",
      "type": "function"
    },
    {
      "inputs": [
        {
          "internalType": "address",
          "name": "",
          "type": "address"
        },
        {
          "internalType": "uint256",
          "name": "",
          "type": "uint256"
        }
      ],
      "name": "waveOwnerToClaimedCounts",
      "outputs": [
        {
          "internalType": "uint256",
          "name": "",
          "type": "uint256"
        }
      ],
      "stateMutability": "view",
      "type": "function"
    },
    {
      "inputs": [],
      "name": "waveSingleTokenPrice",
      "outputs": [
        {
          "internalType": "uint256",
          "name": "",
          "type": "uint256"
        }
      ],
      "stateMutability": "view",
      "type": "function"
    },
    {
      "inputs": [],
      "name": "waveTotalMinted",
      "outputs": [
        {
          "internalType": "uint256",
          "name": "",
          "type": "uint256"
        }
      ],
      "stateMutability": "view",
      "type": "function"
    }
  ],
  "bytecode": {
    "object": "0x60a06040523480156200001157600080fd5b506040516200566838038062005668833981016040819052620000349162000193565b6001600160a01b0381163b620000b75760405162461bcd60e51b815260206004820152603360248201527f417661746172436f6c6c656374696f6e3a207061796d656e742061646472657360448201527f73206973206e6f74206120636f6e74726163740000000000000000000000000060648201526084015b60405180910390fd5b6001600160a01b038116608052620000ce620000d5565b50620001c5565b600054610100900460ff16156200013f5760405162461bcd60e51b815260206004820152602760248201527f496e697469616c697a61626c653a20636f6e747261637420697320696e697469604482015266616c697a696e6760c81b6064820152608401620000ae565b60005460ff9081161462000191576000805460ff191660ff9081179091556040519081527f7f26b83ff96e1f2b6a682f133852f6798a09c465da95921460cefb38474024989060200160405180910390a15b565b600060208284031215620001a657600080fd5b81516001600160a01b0381168114620001be57600080fd5b9392505050565b60805161546b620001fd6000396000818161061501528181612053015281816121150152818161219501526121e2015261546b6000f3fe608060405234801561001057600080fd5b506004361061043e5760003560e01c8063715018a611610236578063b8d1e5321161013b578063d5abeb01116100c3578063e30c397811610087578063e30c3978146109c8578063e3e35062146109d9578063e985e9c5146109ed578063f0f4426014610a2a578063f2fde38b14610a3d57600080fd5b8063d5abeb0114610979578063d5d1713f14610983578063d790b00314610996578063d853015e146109a9578063df9740da146109be57600080fd5b8063ca0df4a11161010a578063ca0df4a114610918578063ce1b815f14610942578063d547741f14610954578063d547cfb714610967578063d5878eaa1461096f57600080fd5b8063b8d1e532146108d9578063c5d3357e146108ec578063c763e5a1146108ff578063c87b56dd1461090557600080fd5b806390c5c56d116101be578063a217fddf1161018d578063a217fddf1461088f578063a22cb46514610897578063ac3149e3146108aa578063b0ccc31e146108be578063b88d4fde146108c657600080fd5b806390c5c56d1461082757806391d148541461085357806395d89b411461086657806397944ba21461086e57600080fd5b80637a266db0116102055780637a266db0146107c75780637d8966e4146107da57806382bc7877146107e25780638da5cb5b146107f55780638deeed42146107fd57600080fd5b8063715018a61461078f578063731133e91461079757806375b238fc146107aa57806379ba5097146107bf57600080fd5b80632f745c591161034757806355f804b3116102cf578063671b2a3111610293578063671b2a3114610707578063677ec90f1461071a57806368d4a7781461073b57806370a082311461076757806370edac761461077a57600080fd5b806355f804b3146106a1578063572b6c05146106b45780635775363c146106d75780635c975abb146106ea5780636352211e146106f457600080fd5b80633e84aa5e116103165780633e84aa5e1461065457806342842e0e1461065e57806342966c6814610671578063433ad106146106845780634f6ccce71461068e57600080fd5b80632f745c59146105fd5780633013ce291461061057806334b35ac01461063757806336568abe1461064157600080fd5b806318160ddd116103ca578063248a9ca311610399578063248a9ca31461058e578063268f1153146105b157806326a49e37146105c4578063283ca77c146105d75780632f2ff15d146105ea57600080fd5b806318160ddd1461054c5780631992c3f31461055557806322b56a681461056857806323b872dd1461057b57600080fd5b8063081812fc11610411578063081812fc146104cd578063095ea7b3146104e05780630c3f6acf146104f557806311db8d1b1461050f578063151370451461053957600080fd5b806301ffc9a714610443578063023ba7c31461046b5780630682bdbc1461048c57806306fdde03146104b8575b600080fd5b61045661045136600461483b565b610a50565b60405190151581526020015b60405180910390f35b61047e61047936600461487d565b610a61565b604051908152602001610462565b6101a2546104a0906001600160a01b031681565b6040516001600160a01b039091168152602001610462565b6104c0610a93565b6040516104629190614901565b6104a06104db366004614914565b610b25565b6104f36104ee36600461487d565b610b4d565b005b6033546105029060ff1681565b6040516104629190614943565b6104a061051d366004614914565b610161602052600090815260409020546001600160a01b031681565b6104f361054736600461496b565b610b66565b6101315461047e565b6104f3610563366004614988565b610c1f565b6104f361057636600461496b565b610dc6565b6104f36105893660046149b4565b610e0f565b61047e61059c366004614914565b60009081526098602052604090206001015490565b6104f36105bf3660046149f5565b610e3a565b61047e6105d2366004614914565b610f42565b6104566105e536600461487d565b610f53565b6104f36105f8366004614a16565b610f76565b61047e61060b36600461487d565b610f9b565b6104a07f000000000000000000000000000000000000000000000000000000000000000081565b61047e61019c5481565b6104f361064f366004614a16565b611032565b61047e6101995481565b6104f361066c3660046149b4565b6110c0565b6104f361067f366004614914565b6110e5565b61047e6101985481565b61047e61069c366004614914565b61119a565b6104f36106af366004614ae9565b61122f565b6104566106c236600461496b565b610163546001600160a01b0391821691161490565b6104f36106e536600461496b565b6112ba565b61047e61019d5481565b6104a0610702366004614914565b6112da565b6104f3610715366004614b1e565b61133a565b61047e610728366004614914565b61019b6020526000908152604090205481565b61047e61074936600461487d565b61019a60209081526000928352604080842090915290825290205481565b61047e61077536600461496b565b6114e2565b61047e6000805160206153f683398151915281565b6104f3611569565b6104f36107a5366004614b75565b6115c5565b61047e60008051602061541683398151915281565b6104f3611971565b6104f36107d536600461496b565b611a50565b6104f3611a96565b6104f36107f036600461496b565b611af3565b6104a0611ba0565b61047e61080b36600461496b565b6001600160a01b03166000908152610162602052604090205490565b61045661083536600461496b565b6001600160a01b031660009081526101626020526040902054151590565b610456610861366004614a16565b611bb9565b6104c0611be4565b61047e61087c366004614914565b600090815261019b602052604090205490565b61047e600081565b6104f36108a5366004614bf1565b611bf3565b6101a0546104a0906001600160a01b031681565b6104a0611c07565b6104f36108d4366004614c1f565b611c20565b6104f36108e736600461496b565b611c4d565b6104f36108fa366004614c73565b611cdb565b4661047e565b6104c0610913366004614914565b611dbb565b6104a0610926366004614914565b600090815261016160205260409020546001600160a01b031690565b610163546001600160a01b03166104a0565b6104f3610962366004614a16565b611e21565b6104c0611e46565b61047e6101965481565b61047e6101955481565b6104f361099136600461496b565b611ed5565b6104f36109a436600461487d565b611ef5565b61047e6000805160206153d683398151915281565b61047e6101975481565b60fc546001600160a01b03166104a0565b6101a1546104a0906001600160a01b031681565b6104566109fb366004614d81565b6001600160a01b0391821660009081526101026020908152604080832093909416825291909152205460ff1690565b6104f3610a3836600461496b565b612308565b6104f3610a4b36600461496b565b6123ad565b6000610a5b82612413565b92915050565b6101626020528160005260406000208181548110610a7e57600080fd5b90600052602060002001600091509150505481565b606060fd8054610aa290614daf565b80601f0160208091040260200160405190810160405280929190818152602001828054610ace90614daf565b8015610b1b5780601f10610af057610100808354040283529160200191610b1b565b820191906000526020600020905b815481529060010190602001808311610afe57829003601f168201915b5050505050905090565b6000610b3082612438565b50600090815261010160205260409020546001600160a01b031690565b81610b5781612497565b610b618383612563565b505050565b610b6e612685565b6001600160a01b038116610bc95760405162461bcd60e51b815260206004820152601c60248201527f5369676e2061646472657373206973207a65726f20616464726573730000000060448201526064015b60405180910390fd5b6101a280546001600160a01b0319166001600160a01b0383169081179091556040519081527f0e58c0652c5df5dddc98a8856c5a814ba7aedf70cc4ef2c72a040d1ff0fe5ebd906020015b60405180910390a150565b610c27612685565b61019554831115610c8d5760405162461bcd60e51b815260206004820152602a60248201527f5f776176654d6178546f6b656e732073686f756c64206e6f7420657863656564604482015269206d6178537570706c7960b01b6064820152608401610bc0565b600083118015610c9d5750600082115b610ce15760405162461bcd60e51b815260206004820152601560248201527424b73b30b634b21031b7b73334b3bab930ba34b7b760591b6044820152606401610bc0565b61019d5415610d025760405162461bcd60e51b8152600401610bc090614de9565b82821115610d525760405162461bcd60e51b815260206004820152601c60248201527f496e76616c696420737570706c7920636f6e66696775726174696f6e000000006044820152606401610bc0565b610196839055610197829055610198819055600061019981905561019c805491610d7b83614e2b565b909155505060408051848152602081018490529081018290527fe564a4bf9e4db3797c60fe6b6be0c2b012e6557df177e1b63883bd29d00db8de9060600160405180910390a1505050565b610dce612685565b6001600160a01b038116610df45760405162461bcd60e51b8152600401610bc090614e44565b610e0c6000805160206153f683398151915282610f76565b50565b826001600160a01b0381163314610e2957610e2933612497565b610e348484846126f6565b50505050565b60335460ff16816004811115610e5257610e5261492d565b816004811115610e6457610e6461492d565b03610ecd5760405162461bcd60e51b815260206004820152603360248201527f436f6c6c656374696f6e53746174654d616e6167656d656e743a20616c726561604482015272647920696e206465736972656420737461746560681b6064820152608401610bc0565b6033805483919060ff19166001836004811115610eec57610eec61492d565b0217905550816004811115610f0357610f0361492d565b816004811115610f1557610f1561492d565b6040517fe8a97ea87e4388fa22d496b95a8ed5ced6717f49790318de2b928aaf37a021d890600090a35050565b60008161019854610a5b9190614e99565b6000610f5e8261272e565b8015610f6f5750610f6f8383612755565b9392505050565b600082815260986020526040902060010154610f91816127d8565b610b6183836127e9565b6000610fa6836114e2565b82106110085760405162461bcd60e51b815260206004820152602b60248201527f455243373231456e756d657261626c653a206f776e657220696e646578206f7560448201526a74206f6620626f756e647360a81b6064820152608401610bc0565b506001600160a01b0391909116600090815261012f60209081526040808320938352929052205490565b61103a612870565b6001600160a01b0316816001600160a01b0316146110b25760405162461bcd60e51b815260206004820152602f60248201527f416363657373436f6e74726f6c3a2063616e206f6e6c792072656e6f756e636560448201526e103937b632b9903337b91039b2b63360891b6064820152608401610bc0565b6110bc828261287a565b5050565b826001600160a01b03811633146110da576110da33612497565b610e348484846128ff565b60006110ef612870565b90506110fb818361291a565b6111175760405162461bcd60e51b8152600401610bc090614eb8565b6111208261299a565b60008281526101616020908152604080832080546001600160a01b0319166001600160a01b0386169081179091558084526101628352818420805460018101825590855292842090920185905551909184917f33631bcd0a4d34a7e2c240ab0753d5adfb7284d8ac89dab6876ec785c0cfa0e69190a35050565b60006111a66101315490565b82106112095760405162461bcd60e51b815260206004820152602c60248201527f455243373231456e756d657261626c653a20676c6f62616c20696e646578206f60448201526b7574206f6620626f756e647360a01b6064820152608401610bc0565b610131828154811061121d5761121d614f05565b90600052602060002001549050919050565b611237612685565b805160000361127d5760405162461bcd60e51b815260206004820152601260248201527118985cd9555492481a5cc81b9bdd081cd95d60721b6044820152606401610bc0565b6101a361128a8282614f69565b507ff9c7803e94e0d3c02900d8a90893a6d5e90dd04d32a4cfe825520f82bf9f32f681604051610c149190614901565b6112c2612685565b610e0c6000805160206153f683398151915282611e21565b600081815260ff60205260408120546001600160a01b031680610a5b5760405162461bcd60e51b8152602060048201526018602482015277115490cdcc8c4e881a5b9d985b1a59081d1bdad95b88125160421b6044820152606401610bc0565b611342612870565b6001600160a01b0316611354836112da565b6001600160a01b0316146113b85760405162461bcd60e51b815260206004820152602560248201527f417661746172436f6c6c656374696f6e3a2073656e646572206973206e6f742060448201526437bbb732b960d91b6064820152608401610bc0565b600084815261019e6020526040902054156114155760405162461bcd60e51b815260206004820152601860248201527f5369676e6174757265496420616c7265616479207573656400000000000000006044820152606401610bc0565b6101a2546001600160a01b031661143861142d612870565b86304687878a612a3f565b6001600160a01b0316146114815760405162461bcd60e51b815260206004820152601060248201526f14da59db985d1d5c994819985a5b195960821b6044820152606401610bc0565b600084815261019e602090815260408083206001905584835261019b82529182902083905581518481529081018390527f37c5b85bb9cbe019726db5bf44dfd0053ed3e09554d9f97a9778b5b8dd65f620910160405180910390a150505050565b60006001600160a01b03821661154c5760405162461bcd60e51b815260206004820152602960248201527f4552433732313a2061646472657373207a65726f206973206e6f7420612076616044820152683634b21037bbb732b960b91b6064820152608401610bc0565b506001600160a01b03166000908152610100602052604090205490565b611571612685565b60405162461bcd60e51b815260206004820152602360248201527f52656e6f756e6365206f776e657273686970206973206e6f7420617661696c61604482015262626c6560e81b6064820152608401610bc0565b6115cd612af2565b600061019c54116116205760405162461bcd60e51b815260206004820152601a60248201527f436f6e7472616374206973206e6f7420636f6e666967757265640000000000006044820152606401610bc0565b6101a0546001600160a01b0316611635612870565b6001600160a01b0316146116795760405162461bcd60e51b815260206004820152600b60248201526a139bdd08185b1b1bddd95960aa1b6044820152606401610bc0565b61019d541561169a5760405162461bcd60e51b8152600401610bc090614de9565b6001600160a01b0384166116e95760405162461bcd60e51b815260206004820152601660248201527557616c6c6574206973207a65726f206164647265737360501b6044820152606401610bc0565b6000831161172e5760405162461bcd60e51b81526020600482015260126024820152710416d6f756e742063616e6e6f7420626520360741b6044820152606401610bc0565b600082815261019e60205260409020541561178b5760405162461bcd60e51b815260206004820152601860248201527f7369676e6174757265496420616c7265616479207573656400000000000000006044820152606401610bc0565b6101a2546001600160a01b03166117a58584304686612b4b565b6001600160a01b0316146117ee5760405162461bcd60e51b815260206004820152601060248201526f14da59db985d1d5c994819985a5b195960821b6044820152606401610bc0565b600082815261019e602052604090206001905561180a8361272e565b6118475760405162461bcd60e51b815260206004820152600e60248201526d15d85d994818dbdb5c1b195d195960921b6044820152606401610bc0565b6118518484612755565b61188b5760405162461bcd60e51b815260206004820152600b60248201526a13585e08185b1b1bddd95960aa1b6044820152606401610bc0565b600061189684610f42565b905080156118be576118be6118a9612870565b6101a15487906001600160a01b031684612b8d565b6001600160a01b038516600090815261019a6020526040812061019c548692906118ea90600190615029565b815260200190815260200160002060008282546119079190615040565b925050819055508361019960008282546119219190615040565b90915550600090505b84811015611966576000611947876119426101315490565b612be7565b90506119538782612d03565b508061195e81614e2b565b91505061192a565b5050610e3460018055565b600061197b612870565b9050806001600160a01b031661199960fc546001600160a01b031690565b6001600160a01b031614611a155760405162461bcd60e51b815260206004820152603960248201527f436f6c6c656374696f6e416363657373436f6e74726f6c52756c65733a20636160448201527f6c6c6572206973206e6f7420746865206e6577206f776e6572000000000000006064820152608401610bc0565b611a2f600080516020615416833981519152610962611ba0565b611a4760008051602061541683398151915282610f76565b610e0c81612d23565b611a58612685565b6001600160a01b038116611a7e5760405162461bcd60e51b8152600401610bc090614e44565b610e0c6000805160206153d683398151915282610f76565b611a9e612685565b61019d5415611aae576000611ab1565b60015b60ff1661019d819055604051600190911481527f37ae8f893f8baa4aef207505c0e4d730119d73dc1363bbee6fda5f5d52c3cf179060200160405180910390a1565b611afb612685565b6001600160a01b038116611b515760405162461bcd60e51b815260206004820152601760248201527f41646472657373206973207a65726f20616464726573730000000000000000006044820152606401610bc0565b6101a080546001600160a01b0319166001600160a01b0383169081179091556040519081527f8eb903ef93f1949409fbfad9304ceafc3ab8211c9ddbe9732ce8b1ede00efb3490602001610c14565b6000611bb460ca546001600160a01b031690565b905090565b60009182526098602090815260408084206001600160a01b0393909316845291905290205460ff1690565b606060fe8054610aa290614daf565b81611bfd81612497565b610b618383612d3c565b6000611c11612d4e565b546001600160a01b0316919050565b836001600160a01b0381163314611c3a57611c3a33612497565b611c4685858585612d7e565b5050505050565b611c55611ba0565b6001600160a01b0316336001600160a01b031614611c8657604051635fc483c560e01b815260040160405180910390fd5b80611c8f612d4e565b80546001600160a01b0319166001600160a01b0392831617905560405190821681527f9f513fe86dc42fdbac355fa4d9b1d5be7b5e6cd2df67e30db8003766568de47690602001610c14565b600054610100900460ff1615808015611cfb5750600054600160ff909116105b80611d155750303b158015611d15575060005460ff166001145b611d315760405162461bcd60e51b8152600401610bc090615058565b6000805460ff191660011790558015611d54576000805461ff0019166101001790555b611d678c8c8c8c8c8c8c8c8c8c8c612db7565b8015611dad576000805461ff0019169055604051600181527f7f26b83ff96e1f2b6a682f133852f6798a09c465da95921460cefb38474024989060200160405180910390a15b505050505050505050505050565b6060611dc682612438565b6000611dd0613179565b90506000815111611df05760405180602001604052806000815250610f6f565b80611dfa84613189565b604051602001611e0b9291906150a6565b6040516020818303038152906040529392505050565b600082815260986020526040902060010154611e3c816127d8565b610b61838361287a565b6101a38054611e5490614daf565b80601f0160208091040260200160405190810160405280929190818152602001828054611e8090614daf565b8015611ecd5780601f10611ea257610100808354040283529160200191611ecd565b820191906000526020600020905b815481529060010190602001808311611eb057829003601f168201915b505050505081565b611edd612685565b610e0c6000805160206153d683398151915282611e21565b611efd612af2565b61019d5415611f1e5760405162461bcd60e51b8152600401610bc090614de9565b6001600160a01b038216611f6d5760405162461bcd60e51b815260206004820152601660248201527557616c6c6574206973207a65726f206164647265737360501b6044820152606401610bc0565b60008111611fb25760405162461bcd60e51b81526020600482015260126024820152710416d6f756e742063616e6e6f7420626520360741b6044820152606401610bc0565b611fbb8161272e565b611ff85760405162461bcd60e51b815260206004820152600e60248201526d15d85d994818dbdb5c1b195d195960921b6044820152606401610bc0565b6120028282612755565b61203c5760405162461bcd60e51b815260206004820152600b60248201526a13585e08185b1b1bddd95960aa1b6044820152606401610bc0565b600061204782610f42565b9050801561225a5760007f00000000000000000000000000000000000000000000000000000000000000006001600160a01b031663dd62ed3e612088612870565b6040516001600160e01b031960e084901b1681526001600160a01b039091166004820152306024820152604401602060405180830381865afa1580156120d2573d6000803e3d6000fd5b505050506040513d601f19601f820116820180604052508101906120f691906150d5565b60405163095ea7b360e01b8152306004820152602481018490529091507f00000000000000000000000000000000000000000000000000000000000000006001600160a01b03169063095ea7b3906044016020604051808303816000875af1158015612166573d6000803e3d6000fd5b505050506040513d601f19601f8201168201806040525081019061218a91906150ee565b506101a1546121c6907f00000000000000000000000000000000000000000000000000000000000000009086906001600160a01b031685612b8d565b60405163095ea7b360e01b8152306004820152602481018290527f00000000000000000000000000000000000000000000000000000000000000006001600160a01b03169063095ea7b3906044016020604051808303816000875af1158015612233573d6000803e3d6000fd5b505050506040513d601f19601f8201168201806040525081019061225791906150ee565b50505b6001600160a01b038316600090815261019a6020526040812061019c5484929061228690600190615029565b815260200190815260200160002060008282546122a39190615040565b925050819055508161019960008282546122bd9190615040565b90915550600090505b828110156122fd5760006122de856119426101315490565b90506122ea8582612d03565b50806122f581614e2b565b9150506122c6565b50506110bc60018055565b612310612685565b6001600160a01b03811661235e5760405162461bcd60e51b81526020600482015260156024820152744f776e6572206973207a65726f206164647265737360581b6044820152606401610bc0565b6101a180546001600160a01b0319166001600160a01b0383169081179091556040519081527f3c864541ef71378c6229510ed90f376565ee42d9c5e0904a984a9e863e6db44f90602001610c14565b6123b5612685565b60fc80546001600160a01b0319166001600160a01b0383169081179091556123db611ba0565b6001600160a01b03167f38d16b8cac22d99fc7c124b9cd0de2d3fa1faef420bfe791d8c362d765e2270060405160405180910390a350565b60006001600160e01b0319821663780e9d6360e01b1480610a5b5750610a5b8261321c565b600081815260ff60205260409020546001600160a01b0316610e0c5760405162461bcd60e51b8152602060048201526018602482015277115490cdcc8c4e881a5b9d985b1a59081d1bdad95b88125160421b6044820152606401610bc0565b60006124a1612d4e565b546001600160a01b0316905080158015906124c657506000816001600160a01b03163b115b156110bc57604051633185c44d60e21b81523060048201526001600160a01b03838116602483015282169063c617113490604401602060405180830381865afa158015612517573d6000803e3d6000fd5b505050506040513d601f19601f8201168201806040525081019061253b91906150ee565b6110bc57604051633b79c77360e21b81526001600160a01b0383166004820152602401610bc0565b600061256e826112da565b9050806001600160a01b0316836001600160a01b0316036125db5760405162461bcd60e51b815260206004820152602160248201527f4552433732313a20617070726f76616c20746f2063757272656e74206f776e656044820152603960f91b6064820152608401610bc0565b806001600160a01b03166125ed612870565b6001600160a01b031614806126095750612609816109fb612870565b61267b5760405162461bcd60e51b815260206004820152603d60248201527f4552433732313a20617070726f76652063616c6c6572206973206e6f7420746f60448201527f6b656e206f776e6572206f7220617070726f76656420666f7220616c6c0000006064820152608401610bc0565b610b61838361325c565b61268d612870565b6001600160a01b031661269e611ba0565b6001600160a01b0316146126f45760405162461bcd60e51b815260206004820181905260248201527f4f776e61626c653a2063616c6c6572206973206e6f7420746865206f776e65726044820152606401610bc0565b565b612707612701612870565b8261291a565b6127235760405162461bcd60e51b8152600401610bc090614eb8565b610b618383836132cb565b60008082118015610a5b575061019654826101995461274d9190615040565b111592915050565b6000610197548261019a6000866001600160a01b03166001600160a01b031681526020019081526020016000206000600161019c546127949190615029565b8152602001908152602001600020546127ad9190615040565b11158015610f6f575061019554826127c56101315490565b6127cf9190615040565b11159392505050565b610e0c816127e4612870565b61343e565b6127f38282611bb9565b6110bc5760008281526098602090815260408083206001600160a01b03851684529091529020805460ff1916600117905561282c612870565b6001600160a01b0316816001600160a01b0316837f2f8788117e7eff1d82e926ec794901d17c78024a50270940304540a733656f0d60405160405180910390a45050565b6000611bb4613497565b6128848282611bb9565b156110bc5760008281526098602090815260408083206001600160a01b03851684529091529020805460ff191690556128bb612870565b6001600160a01b0316816001600160a01b0316837ff6391f5c32d9c69d2a47ea670b442974b53935d1edc7fd64eb21e047a839171b60405160405180910390a45050565b610b6183838360405180602001604052806000815250611c20565b600080612926836112da565b9050806001600160a01b0316846001600160a01b0316148061296e57506001600160a01b038082166000908152610102602090815260408083209388168352929052205460ff165b806129925750836001600160a01b031661298784610b25565b6001600160a01b0316145b949350505050565b60006129a5826112da565b90506129b58160008460016134bf565b6129be826112da565b60008381526101016020908152604080832080546001600160a01b03199081169091556001600160a01b0385168085526101008452828520805460001901905587855260ff909352818420805490911690555192935084927fddf252ad1be2c89b69c2b068fc378daa952ba7f163c4a11628f55a4df523b3ef908390a45050565b604080516001600160a01b03808a16602083015291810188905290861660608201526080810185905260a0810184905260c08101839052600090612ae69060e0015b60408051601f198184030181529082905280516020918201207f19457468657265756d205369676e6564204d6573736167653a0a33320000000091830191909152603c820152605c0160405160208183030381529060405280519060200120836135fa565b98975050505050505050565b600260015403612b445760405162461bcd60e51b815260206004820152601f60248201527f5265656e7472616e637947756172643a207265656e7472616e742063616c6c006044820152606401610bc0565b6002600155565b604080516001600160a01b038088166020830152918101869052908416606082015260808101839052600090612b839060a001612a81565b9695505050505050565b604080516001600160a01b0385811660248301528416604482015260648082018490528251808303909101815260849091019091526020810180516001600160e01b03166323b872dd60e01b179052610e3490859061361e565b6000808261019554612bf99190615029565b6040516bffffffffffffffffffffffff19606087901b1660208201524460348201524260548201526074810182905290915060009082906094016040516020818303038152906040528051906020012060001c612c56919061510b565b600081815261019f6020526040902054909150819015612c825750600081815261019f60205260409020545b61019f6000612c92600186615029565b815260200190815260200160002054600003612cc857612cb3600184615029565b600083815261019f6020526040902055612cfa565b61019f6000612cd8600186615029565b8152602080820192909252604090810160009081205485825261019f90935220555b95945050505050565b6110bc8282604051806020016040528060008152506136f0565b60018055565b60fc80546001600160a01b0319169055610e0c81613723565b6110bc612d47612870565b8383613775565b60008060016040518060600160405280603681526020016153a0603691398051602090910120610a5b9190615029565b612d8f612d89612870565b8361291a565b612dab5760405162461bcd60e51b8152600401610bc090614eb8565b610e3484848484613844565b600054610100900460ff16612dde5760405162461bcd60e51b8152600401610bc09061512d565b8951600003612e3b5760405162461bcd60e51b8152602060048201526024808201527f417661746172436f6c6c656374696f6e3a2042617365555249206973206e6f74604482015263081cd95d60e21b6064820152608401610bc0565b8851600003612e8c5760405162461bcd60e51b815260206004820152601f60248201527f417661746172436f6c6c656374696f6e3a204e616d6520697320656d707479006044820152606401610bc0565b8751600003612ee75760405162461bcd60e51b815260206004820152602160248201527f417661746172436f6c6c656374696f6e3a2073796d626f6c20697320656d70746044820152607960f81b6064820152608401610bc0565b6001600160a01b038616612f545760405162461bcd60e51b815260206004820152602e60248201527f417661746172436f6c6c656374696f6e3a205369676e2061646472657373206960448201526d73207a65726f206164647265737360901b6064820152608401610bc0565b6001600160a01b038516612fc65760405162461bcd60e51b815260206004820152603360248201527f417661746172436f6c6c656374696f6e3a205472757374656420666f72776172604482015272646572206973207a65726f206164647265737360681b6064820152608401610bc0565b6001600160a01b0387166130315760405162461bcd60e51b815260206004820152602c60248201527f417661746172436f6c6c656374696f6e3a2053616e64206f776e65722069732060448201526b7a65726f206164647265737360a01b6064820152608401610bc0565b6000811161309c5760405162461bcd60e51b815260206004820152603260248201527f417661746172436f6c6c656374696f6e3a204d617820737570706c792073686f6044820152710756c64206265206d6f7265207468616e20360741b6064820152608401610bc0565b6101a36130a98b82614f69565b506130b2613877565b6130bb8b6138a6565b61016380546001600160a01b0319166001600160a01b0387161790556130e18989613a59565b6130ec848484613a8a565b6101a180546001600160a01b03808a166001600160a01b0319928316179092556101a28054928916929091169190911790556101958190556040517f1a3a62dc20450ece39e01e20bfba98408b580d8576926c8ca06f987f9db300bc90613164908c908c908c908c908c9088908c908c908c90615178565b60405180910390a15050505050505050505050565b60606101a38054610aa290614daf565b6060600061319683613bed565b600101905060008167ffffffffffffffff8111156131b6576131b6614a46565b6040519080825280601f01601f1916602001820160405280156131e0576020820181803683370190505b5090508181016020015b600019016f181899199a1a9b1b9c1cb0b131b232b360811b600a86061a8153600a85049450846131ea57509392505050565b60006001600160e01b031982166380ac58cd60e01b148061324d57506001600160e01b03198216635b5e139f60e01b145b80610a5b5750610a5b82613cc5565b60008181526101016020526040902080546001600160a01b0319166001600160a01b0384169081179091558190613292826112da565b6001600160a01b03167f8c5be1e5ebec7d5bd14f71427d1e84f3dd0314c0f7b2291e5b200ac8c7c3b92560405160405180910390a45050565b826001600160a01b03166132de826112da565b6001600160a01b0316146133045760405162461bcd60e51b8152600401610bc0906151fa565b6001600160a01b0382166133665760405162461bcd60e51b8152602060048201526024808201527f4552433732313a207472616e7366657220746f20746865207a65726f206164646044820152637265737360e01b6064820152608401610bc0565b61337383838360016134bf565b826001600160a01b0316613386826112da565b6001600160a01b0316146133ac5760405162461bcd60e51b8152600401610bc0906151fa565b60008181526101016020908152604080832080546001600160a01b03199081169091556001600160a01b03878116808652610100855283862080546000190190559087168086528386208054600101905586865260ff90945282852080549092168417909155905184937fddf252ad1be2c89b69c2b068fc378daa952ba7f163c4a11628f55a4df523b3ef91a4505050565b6134488282611bb9565b6110bc5761345581613cfa565b613460836020613d0c565b60405160200161347192919061523f565b60408051601f198184030181529082905262461bcd60e51b8252610bc091600401614901565b610163546000906001600160a01b031633036134ba575060131936013560601c90565b503390565b6134cb84848484613ea8565b600181111561353a5760405162461bcd60e51b815260206004820152603560248201527f455243373231456e756d657261626c653a20636f6e7365637574697665207472604482015274185b9cd9995c9cc81b9bdd081cdd5c1c1bdc9d1959605a1b6064820152608401610bc0565b816001600160a01b03851661359857613593816101318054600083815261013260205260408120829055600182018355919091527fbd987ad6ccdb7c7567f7335ea839f95dc944431abcf935b6924f70215963db730155565b6135bb565b836001600160a01b0316856001600160a01b0316146135bb576135bb8582613f32565b6001600160a01b0384166135d7576135d281613fd4565b611c46565b846001600160a01b0316846001600160a01b031614611c4657611c468482614089565b600080600061360985856140cf565b9150915061361681614114565b509392505050565b6000613673826040518060400160405280602081526020017f5361666545524332303a206c6f772d6c6576656c2063616c6c206661696c6564815250856001600160a01b031661425e9092919063ffffffff16565b805190915015610b61578080602001905181019061369191906150ee565b610b615760405162461bcd60e51b815260206004820152602a60248201527f5361666545524332303a204552433230206f7065726174696f6e20646964206e6044820152691bdd081cdd58d8d9595960b21b6064820152608401610bc0565b6136fa838361426d565b6137076000848484614407565b610b615760405162461bcd60e51b8152600401610bc0906152b4565b60ca80546001600160a01b038381166001600160a01b0319831681179093556040519116919082907f8be0079c531659141344cd1fd0a4f28419497f9722a3daafe3b4186f6b6457e090600090a35050565b816001600160a01b0316836001600160a01b0316036137d65760405162461bcd60e51b815260206004820152601960248201527f4552433732313a20617070726f766520746f2063616c6c6572000000000000006044820152606401610bc0565b6001600160a01b0383811660008181526101026020908152604080832094871680845294825291829020805460ff191686151590811790915591519182527f17307eab39ab6107e8899845ad3d59bd9653f200f220920489ca2b5937696c31910160405180910390a3505050565b61384f8484846132cb565b61385b84848484614407565b610e345760405162461bcd60e51b8152600401610bc0906152b4565b600054610100900460ff1661389e5760405162461bcd60e51b8152600401610bc09061512d565b6126f461450f565b600054610100900460ff16158080156138c65750600054600160ff909116105b806138e05750303b1580156138e0575060005460ff166001145b6138fc5760405162461bcd60e51b8152600401610bc090615058565b6000805460ff19166001179055801561391f576000805461ff0019166101001790555b6001600160a01b03821661399b5760405162461bcd60e51b815260206004820152603b60248201527f436f6c6c656374696f6e416363657373436f6e74726f6c52756c65733a206e6560448201527f77206f776e657220697320746865207a65726f206164647265737300000000006064820152608401610bc0565b6139a3614536565b6139ac82612d23565b6139c4600080516020615416833981519152836127e9565b6139ea6000805160206153d683398151915260008051602061541683398151915261455d565b613a106000805160206153f683398151915260008051602061541683398151915261455d565b80156110bc576000805461ff0019169055604051600181527f7f26b83ff96e1f2b6a682f133852f6798a09c465da95921460cefb38474024989060200160405180910390a15050565b600054610100900460ff16613a805760405162461bcd60e51b8152600401610bc09061512d565b6110bc82826145a8565b600054610100900460ff16613ab15760405162461bcd60e51b8152600401610bc09061512d565b82613aba612d4e565b80546001600160a01b0319166001600160a01b03928316179055839081163b15610e34578115613b4b57604051633e9f1edf60e11b81523060048201526001600160a01b038481166024830152821690637d3e3dbe906044015b600060405180830381600087803b158015613b2e57600080fd5b505af1158015613b42573d6000803e3d6000fd5b50505050610e34565b6001600160a01b03831615613b8e5760405163a0af290360e01b81523060048201526001600160a01b03848116602483015282169063a0af290390604401613b14565b604051632210724360e11b81523060048201526001600160a01b03821690634420e48690602401600060405180830381600087803b158015613bcf57600080fd5b505af1158015613be3573d6000803e3d6000fd5b5050505050505050565b60008072184f03e93ff9f4daa797ed6e38ed64bf6a1f0160401b8310613c2c5772184f03e93ff9f4daa797ed6e38ed64bf6a1f0160401b830492506040015b6d04ee2d6d415b85acef81000000008310613c58576d04ee2d6d415b85acef8100000000830492506020015b662386f26fc100008310613c7657662386f26fc10000830492506010015b6305f5e1008310613c8e576305f5e100830492506008015b6127108310613ca257612710830492506004015b60648310613cb4576064830492506002015b600a8310610a5b5760010192915050565b60006001600160e01b03198216637965db0b60e01b1480610a5b57506301ffc9a760e01b6001600160e01b0319831614610a5b565b6060610a5b6001600160a01b03831660145b60606000613d1b836002614e99565b613d26906002615040565b67ffffffffffffffff811115613d3e57613d3e614a46565b6040519080825280601f01601f191660200182016040528015613d68576020820181803683370190505b509050600360fc1b81600081518110613d8357613d83614f05565b60200101906001600160f81b031916908160001a905350600f60fb1b81600181518110613db257613db2614f05565b60200101906001600160f81b031916908160001a9053506000613dd6846002614e99565b613de1906001615040565b90505b6001811115613e59576f181899199a1a9b1b9c1cb0b131b232b360811b85600f1660108110613e1557613e15614f05565b1a60f81b828281518110613e2b57613e2b614f05565b60200101906001600160f81b031916908160001a90535060049490941c93613e5281615306565b9050613de4565b508315610f6f5760405162461bcd60e51b815260206004820181905260248201527f537472696e67733a20686578206c656e67746820696e73756666696369656e746044820152606401610bc0565b6001811115610e34576001600160a01b03841615613eef576001600160a01b0384166000908152610100602052604081208054839290613ee9908490615029565b90915550505b6001600160a01b03831615610e34576001600160a01b0383166000908152610100602052604081208054839290613f27908490615040565b909155505050505050565b60006001613f3f846114e2565b613f499190615029565b60008381526101306020526040902054909150808214613f9f576001600160a01b038416600090815261012f60209081526040808320858452825280832054848452818420819055835261013090915290208190555b506000918252610130602090815260408084208490556001600160a01b03909416835261012f81528383209183525290812055565b61013154600090613fe790600190615029565b60008381526101326020526040812054610131805493945090928490811061401157614011614f05565b9060005260206000200154905080610131838154811061403357614033614f05565b6000918252602080832090910192909255828152610132909152604080822084905585825281205561013180548061406d5761406d61531d565b6001900381819060005260206000200160009055905550505050565b6000614094836114e2565b6001600160a01b03909316600090815261012f6020908152604080832086845282528083208590559382526101309052919091209190915550565b60008082516041036141055760208301516040840151606085015160001a6140f9878285856145e8565b9450945050505061410d565b506000905060025b9250929050565b60008160048111156141285761412861492d565b036141305750565b60018160048111156141445761414461492d565b036141915760405162461bcd60e51b815260206004820152601860248201527f45434453413a20696e76616c6964207369676e617475726500000000000000006044820152606401610bc0565b60028160048111156141a5576141a561492d565b036141f25760405162461bcd60e51b815260206004820152601f60248201527f45434453413a20696e76616c6964207369676e6174757265206c656e677468006044820152606401610bc0565b60038160048111156142065761420661492d565b03610e0c5760405162461bcd60e51b815260206004820152602260248201527f45434453413a20696e76616c6964207369676e6174757265202773272076616c604482015261756560f01b6064820152608401610bc0565b606061299284846000856146ac565b6001600160a01b0382166142c35760405162461bcd60e51b815260206004820181905260248201527f4552433732313a206d696e7420746f20746865207a65726f20616464726573736044820152606401610bc0565b600081815260ff60205260409020546001600160a01b0316156143285760405162461bcd60e51b815260206004820152601c60248201527f4552433732313a20746f6b656e20616c7265616479206d696e746564000000006044820152606401610bc0565b6143366000838360016134bf565b600081815260ff60205260409020546001600160a01b03161561439b5760405162461bcd60e51b815260206004820152601c60248201527f4552433732313a20746f6b656e20616c7265616479206d696e746564000000006044820152606401610bc0565b6001600160a01b0382166000818152610100602090815260408083208054600101905584835260ff90915280822080546001600160a01b0319168417905551839291907fddf252ad1be2c89b69c2b068fc378daa952ba7f163c4a11628f55a4df523b3ef908290a45050565b60006001600160a01b0384163b1561450457836001600160a01b031663150b7a02614430612870565b8786866040518563ffffffff1660e01b81526004016144529493929190615333565b6020604051808303816000875af192505050801561448d575060408051601f3d908101601f1916820190925261448a91810190615366565b60015b6144ea573d8080156144bb576040519150601f19603f3d011682016040523d82523d6000602084013e6144c0565b606091505b5080516000036144e25760405162461bcd60e51b8152600401610bc0906152b4565b805181602001fd5b6001600160e01b031916630a85bd0160e11b149050612992565b506001949350505050565b600054610100900460ff16612d1d5760405162461bcd60e51b8152600401610bc09061512d565b600054610100900460ff166126f45760405162461bcd60e51b8152600401610bc09061512d565b600082815260986020526040808220600101805490849055905190918391839186917fbd79b86ffe0ab8e8776151514217cd7cacd52c909f66475c3af44e129f0b00ff9190a4505050565b600054610100900460ff166145cf5760405162461bcd60e51b8152600401610bc09061512d565b60fd6145db8382614f69565b5060fe610b618282614f69565b6000807f7fffffffffffffffffffffffffffffff5d576e7357a4501ddfe92f46681b20a083111561461f57506000905060036146a3565b6040805160008082526020820180845289905260ff881692820192909252606081018690526080810185905260019060a0016020604051602081039080840390855afa158015614673573d6000803e3d6000fd5b5050604051601f1901519150506001600160a01b03811661469c576000600192509250506146a3565b9150600090505b94509492505050565b60608247101561470d5760405162461bcd60e51b815260206004820152602660248201527f416464726573733a20696e73756666696369656e742062616c616e636520666f6044820152651c8818d85b1b60d21b6064820152608401610bc0565b600080866001600160a01b031685876040516147299190615383565b60006040518083038185875af1925050503d8060008114614766576040519150601f19603f3d011682016040523d82523d6000602084013e61476b565b606091505b509150915061477c87838387614787565b979650505050505050565b606083156147f65782516000036147ef576001600160a01b0385163b6147ef5760405162461bcd60e51b815260206004820152601d60248201527f416464726573733a2063616c6c20746f206e6f6e2d636f6e74726163740000006044820152606401610bc0565b5081612992565b612992838381511561480b5781518083602001fd5b8060405162461bcd60e51b8152600401610bc09190614901565b6001600160e01b031981168114610e0c57600080fd5b60006020828403121561484d57600080fd5b8135610f6f81614825565b6001600160a01b0381168114610e0c57600080fd5b803561487881614858565b919050565b6000806040838503121561489057600080fd5b823561489b81614858565b946020939093013593505050565b60005b838110156148c45781810151838201526020016148ac565b83811115610e345750506000910152565b600081518084526148ed8160208601602086016148a9565b601f01601f19169290920160200192915050565b602081526000610f6f60208301846148d5565b60006020828403121561492657600080fd5b5035919050565b634e487b7160e01b600052602160045260246000fd5b602081016005831061496557634e487b7160e01b600052602160045260246000fd5b91905290565b60006020828403121561497d57600080fd5b8135610f6f81614858565b60008060006060848603121561499d57600080fd5b505081359360208301359350604090920135919050565b6000806000606084860312156149c957600080fd5b83356149d481614858565b925060208401356149e481614858565b929592945050506040919091013590565b600060208284031215614a0757600080fd5b813560058110610f6f57600080fd5b60008060408385031215614a2957600080fd5b823591506020830135614a3b81614858565b809150509250929050565b634e487b7160e01b600052604160045260246000fd5b600082601f830112614a6d57600080fd5b813567ffffffffffffffff80821115614a8857614a88614a46565b604051601f8301601f19908116603f01168101908282118183101715614ab057614ab0614a46565b81604052838152866020858801011115614ac957600080fd5b836020870160208301376000602085830101528094505050505092915050565b600060208284031215614afb57600080fd5b813567ffffffffffffffff811115614b1257600080fd5b61299284828501614a5c565b60008060008060808587031215614b3457600080fd5b84359350602085013567ffffffffffffffff811115614b5257600080fd5b614b5e87828801614a5c565b949794965050505060408301359260600135919050565b60008060008060808587031215614b8b57600080fd5b8435614b9681614858565b93506020850135925060408501359150606085013567ffffffffffffffff811115614bc057600080fd5b614bcc87828801614a5c565b91505092959194509250565b8015158114610e0c57600080fd5b803561487881614bd8565b60008060408385031215614c0457600080fd5b8235614c0f81614858565b91506020830135614a3b81614bd8565b60008060008060808587031215614c3557600080fd5b8435614c4081614858565b93506020850135614c5081614858565b925060408501359150606085013567ffffffffffffffff811115614bc057600080fd5b60008060008060008060008060008060006101608c8e031215614c9557600080fd5b614c9e8c61486d565b9a5067ffffffffffffffff8060208e01351115614cba57600080fd5b614cca8e60208f01358f01614a5c565b9a508060408e01351115614cdd57600080fd5b614ced8e60408f01358f01614a5c565b99508060608e01351115614d0057600080fd5b50614d118d60608e01358e01614a5c565b9750614d1f60808d0161486d565b9650614d2d60a08d0161486d565b9550614d3b60c08d0161486d565b9450614d4960e08d0161486d565b9350614d586101008d0161486d565b9250614d676101208d01614be6565b91506101408c013590509295989b509295989b9093969950565b60008060408385031215614d9457600080fd5b8235614d9f81614858565b91506020830135614a3b81614858565b600181811c90821680614dc357607f821691505b602082108103614de357634e487b7160e01b600052602260045260246000fd5b50919050565b60208082526012908201527110dbdb9d1c9858dd081a5cc81c185d5cd95960721b604082015260600190565b634e487b7160e01b600052601160045260246000fd5b600060018201614e3d57614e3d614e15565b5060010190565b60208082526035908201527f436f6c6c656374696f6e416363657373436f6e74726f6c52756c65733a206163604082015274636f756e74206973207a65726f206164647265737360581b606082015260800190565b6000816000190483118215151615614eb357614eb3614e15565b500290565b6020808252602d908201527f4552433732313a2063616c6c6572206973206e6f7420746f6b656e206f776e6560408201526c1c881bdc88185c1c1c9bdd9959609a1b606082015260800190565b634e487b7160e01b600052603260045260246000fd5b601f821115610b6157600081815260208120601f850160051c81016020861015614f425750805b601f850160051c820191505b81811015614f6157828155600101614f4e565b505050505050565b815167ffffffffffffffff811115614f8357614f83614a46565b614f9781614f918454614daf565b84614f1b565b602080601f831160018114614fcc5760008415614fb45750858301515b600019600386901b1c1916600185901b178555614f61565b600085815260208120601f198616915b82811015614ffb57888601518255948401946001909101908401614fdc565b50858210156150195787850151600019600388901b60f8161c191681555b5050505050600190811b01905550565b60008282101561503b5761503b614e15565b500390565b6000821982111561505357615053614e15565b500190565b6020808252602e908201527f496e697469616c697a61626c653a20636f6e747261637420697320616c72656160408201526d191e481a5b9a5d1a585b1a5e995960921b606082015260800190565b600083516150b88184602088016148a9565b8351908301906150cc8183602088016148a9565b01949350505050565b6000602082840312156150e757600080fd5b5051919050565b60006020828403121561510057600080fd5b8151610f6f81614bd8565b60008261512857634e487b7160e01b600052601260045260246000fd5b500690565b6020808252602b908201527f496e697469616c697a61626c653a20636f6e7472616374206973206e6f74206960408201526a6e697469616c697a696e6760a81b606082015260800190565b600061012080835261518c8184018d6148d5565b905082810360208401526151a0818c6148d5565b905082810360408401526151b4818b6148d5565b6001600160a01b03998a1660608501529789166080840152505060a081019490945291851660c084015290931660e0820152911515610100909201919091529392505050565b60208082526025908201527f4552433732313a207472616e736665722066726f6d20696e636f72726563742060408201526437bbb732b960d91b606082015260800190565b7f416363657373436f6e74726f6c3a206163636f756e74200000000000000000008152600083516152778160178501602088016148a9565b7001034b99036b4b9b9b4b733903937b6329607d1b60179184019182015283516152a88160288401602088016148a9565b01602801949350505050565b60208082526032908201527f4552433732313a207472616e7366657220746f206e6f6e20455243373231526560408201527131b2b4bb32b91034b6b83632b6b2b73a32b960711b606082015260800190565b60008161531557615315614e15565b506000190190565b634e487b7160e01b600052603160045260246000fd5b6001600160a01b0385811682528416602082015260408101839052608060608201819052600090612b83908301846148d5565b60006020828403121561537857600080fd5b8151610f6f81614825565b600082516153958184602087016148a9565b919091019291505056fe557064617461626c654f70657261746f7246696c74657265725570677261646561626c652e636f6e7472616374732e73746f726167653b49a237fe2d18fa4d9642b8a0e065923cceb71b797783b619a030a61d848bf069fc995a7cdbc94c95dc768dfaa8ceead6003727063f7d665556608319262298a49807205ce4d355092ef5a8a18f56e8913cf4a201fbe287825b095693c21775a2646970667358221220e8538d7de4f737bdf45b946ce1cf0d6f7a52d385a9501435842794ddc296f0c764736f6c634300080f0033",
    "linkReferences": {}
  },
  "methodIdentifiers": {
    "ADMIN_ROLE()": "75b238fc",
    "CONFIGURATOR_ROLE()": "d853015e",
    "DEFAULT_ADMIN_ROLE()": "a217fddf",
    "TRANSFORMER_ROLE()": "70edac76",
    "acceptOwnership()": "79ba5097",
    "addConfigurator(address)": "7a266db0",
    "addTransformer(address)": "22b56a68",
    "allowedToExecuteMint()": "ac3149e3",
    "approve(address,uint256)": "095ea7b3",
    "balanceOf(address)": "70a08231",
    "baseTokenURI()": "d547cfb7",
    "burn(uint256)": "42966c68",
    "burnedTokens(address,uint256)": "023ba7c3",
    "burnedTokensCount(address)": "8deeed42",
    "burner(uint256)": "11db8d1b",
    "burnerOf(uint256)": "ca0df4a1",
    "chain()": "c763e5a1",
    "changeState(uint8)": "268f1153",
    "checkMintAllowed(address,uint256)": "283ca77c",
    "currentState()": "0c3f6acf",
    "didBurnTokens(address)": "90c5c56d",
    "getApproved(uint256)": "081812fc",
    "getRoleAdmin(bytes32)": "248a9ca3",
    "getTrustedForwarder()": "ce1b815f",
    "grantRole(bytes32,address)": "2f2ff15d",
    "hasRole(bytes32,address)": "91d14854",
    "indexWave()": "34b35ac0",
    "initialize(address,string,string,string,address,address,address,address,address,bool,uint256)": "c5d3357e",
    "isApprovedForAll(address,address)": "e985e9c5",
    "isTrustedForwarder(address)": "572b6c05",
    "maxSupply()": "d5abeb01",
    "mint(address,uint256,uint256,bytes)": "731133e9",
    "mintTreasury()": "e3e35062",
    "mintWithSand(address,uint256)": "d790b003",
    "name()": "06fdde03",
    "operatorFilterRegistry()": "b0ccc31e",
    "owner()": "8da5cb5b",
    "ownerOf(uint256)": "6352211e",
    "paused()": "5c975abb",
    "paymentToken()": "3013ce29",
    "pendingOwner()": "e30c3978",
    "personalizationOf(uint256)": "97944ba2",
    "personalizationTraits(uint256)": "677ec90f",
    "personalize(uint256,bytes,uint256,uint256)": "671b2a31",
    "price(uint256)": "26a49e37",
    "renounceOwnership()": "715018a6",
    "renounceRole(bytes32,address)": "36568abe",
    "revokeConfiguratorRole(address)": "d5d1713f",
    "revokeRole(bytes32,address)": "d547741f",
    "revokeTransformerRole(address)": "5775363c",
    "safeTransferFrom(address,address,uint256)": "42842e0e",
    "safeTransferFrom(address,address,uint256,bytes)": "b88d4fde",
    "setAllowedExecuteMint(address)": "82bc7877",
    "setApprovalForAll(address,bool)": "a22cb465",
    "setBaseURI(string)": "55f804b3",
    "setSignAddress(address)": "15137045",
    "setTreasury(address)": "f0f44260",
    "setupWave(uint256,uint256,uint256)": "1992c3f3",
    "signAddress()": "0682bdbc",
    "supportsInterface(bytes4)": "01ffc9a7",
    "symbol()": "95d89b41",
    "toggleSale()": "7d8966e4",
    "tokenByIndex(uint256)": "4f6ccce7",
    "tokenOfOwnerByIndex(address,uint256)": "2f745c59",
    "tokenURI(uint256)": "c87b56dd",
    "totalSupply()": "18160ddd",
    "transferFrom(address,address,uint256)": "23b872dd",
    "transferOwnership(address)": "f2fde38b",
    "updateOperatorFilterRegistryAddress(address)": "b8d1e532",
    "waveMaxTokens()": "d5878eaa",
    "waveMaxTokensToBuy()": "df9740da",
    "waveOwnerToClaimedCounts(address,uint256)": "68d4a778",
    "waveSingleTokenPrice()": "433ad106",
    "waveTotalMinted()": "3e84aa5e"
  },
  "id": 28
}