{
  "abi": [
    {
      "inputs": [],
      "stateMutability": "nonpayable",
      "type": "constructor"
    },
    {
      "inputs": [],
      "name": "OnlyOwner",
      "type": "error"
    },
    {
      "inputs": [
        {
          "internalType": "address",
          "name": "operator",
          "type": "address"
        }
      ],
      "name": "OperatorNotAllowed",
      "type": "error"
    },
    {
      "anonymous": false,
      "inputs": [
        {
          "indexed": true,
          "internalType": "address",
          "name": "_address",
          "type": "address"
        }
      ],
      "name": "AllowedExecuteMintSet",
      "type": "event"
    },
    {
      "anonymous": false,
      "inputs": [
        {
          "indexed": true,
          "internalType": "address",
          "name": "owner",
          "type": "address"
        },
        {
          "indexed": true,
          "internalType": "address",
          "name": "approved",
          "type": "address"
        },
        {
          "indexed": true,
          "internalType": "uint256",
          "name": "tokenId",
          "type": "uint256"
        }
      ],
      "name": "Approval",
      "type": "event"
    },
    {
      "anonymous": false,
      "inputs": [
        {
          "indexed": true,
          "internalType": "address",
          "name": "owner",
          "type": "address"
        },
        {
          "indexed": true,
          "internalType": "address",
          "name": "operator",
          "type": "address"
        },
        {
          "indexed": false,
          "internalType": "bool",
          "name": "approved",
          "type": "bool"
        }
      ],
      "name": "ApprovalForAll",
      "type": "event"
    },
    {
      "anonymous": false,
      "inputs": [
        {
          "indexed": true,
          "internalType": "string",
          "name": "baseURI",
          "type": "string"
        }
      ],
      "name": "BaseURISet",
      "type": "event"
    },
    {
      "anonymous": false,
      "inputs": [
        {
          "indexed": true,
          "internalType": "uint256",
          "name": "_fromTokenId",
          "type": "uint256"
        },
        {
          "indexed": true,
          "internalType": "uint256",
          "name": "_toTokenId",
          "type": "uint256"
        }
      ],
      "name": "BatchMetadataUpdate",
      "type": "event"
    },
    {
      "anonymous": false,
      "inputs": [
        {
          "indexed": true,
          "internalType": "string",
          "name": "baseURI",
          "type": "string"
        },
        {
          "indexed": true,
          "internalType": "string",
          "name": "_name",
          "type": "string"
        },
        {
          "indexed": true,
          "internalType": "string",
          "name": "_symbol",
          "type": "string"
        },
        {
          "indexed": false,
          "internalType": "address",
          "name": "_mintTreasury",
          "type": "address"
        },
        {
          "indexed": false,
          "internalType": "address",
          "name": "_signAddress",
          "type": "address"
        },
        {
          "indexed": false,
          "internalType": "address",
          "name": "_allowedToExecuteMint",
          "type": "address"
        },
        {
          "indexed": false,
          "internalType": "uint256",
          "name": "_maxSupply",
          "type": "uint256"
        },
        {
          "indexed": false,
          "internalType": "address",
          "name": "_registry",
          "type": "address"
        },
        {
          "indexed": false,
          "internalType": "address",
          "name": "_operatorFiltererSubscription",
          "type": "address"
        },
        {
          "indexed": false,
          "internalType": "bool",
          "name": "_operatorFiltererSubscriptionSubscribe",
          "type": "bool"
        }
      ],
      "name": "ContractInitialized",
      "type": "event"
    },
    {
      "anonymous": false,
      "inputs": [
        {
          "indexed": true,
          "internalType": "uint256",
          "name": "mintPrice",
          "type": "uint256"
        },
        {
          "indexed": true,
          "internalType": "uint256",
          "name": "maxPublicTokensPerWallet",
          "type": "uint256"
        },
        {
          "indexed": true,
          "internalType": "uint256",
          "name": "maxAllowlistTokensPerWallet",
          "type": "uint256"
        },
        {
          "indexed": false,
          "internalType": "uint256",
          "name": "maxMarketingTokens",
          "type": "uint256"
        }
      ],
      "name": "DefaultMintingValuesSet",
      "type": "event"
    },
    {
      "anonymous": false,
      "inputs": [
        {
          "indexed": false,
          "internalType": "uint8",
          "name": "version",
          "type": "uint8"
        }
      ],
      "name": "Initialized",
      "type": "event"
    },
    {
      "anonymous": false,
      "inputs": [
        {
          "indexed": true,
          "internalType": "uint256",
          "name": "_tokenId",
          "type": "uint256"
        }
      ],
      "name": "MetadataUpdate",
      "type": "event"
    },
    {
      "anonymous": false,
      "inputs": [
        {
          "indexed": false,
          "internalType": "address",
          "name": "newRegistry",
          "type": "address"
        }
      ],
      "name": "OperatorFilterRegistryAddressUpdated",
      "type": "event"
    },
    {
      "anonymous": false,
      "inputs": [
        {
          "indexed": true,
          "internalType": "address",
          "name": "previousOwner",
          "type": "address"
        },
        {
          "indexed": true,
          "internalType": "address",
          "name": "newOwner",
          "type": "address"
        }
      ],
      "name": "OwnershipTransferStarted",
      "type": "event"
    },
    {
      "anonymous": false,
      "inputs": [
        {
          "indexed": true,
          "internalType": "address",
          "name": "previousOwner",
          "type": "address"
        },
        {
          "indexed": true,
          "internalType": "address",
          "name": "newOwner",
          "type": "address"
        }
      ],
      "name": "OwnershipTransferred",
      "type": "event"
    },
    {
      "anonymous": false,
      "inputs": [
        {
          "indexed": false,
          "internalType": "address",
          "name": "account",
          "type": "address"
        }
      ],
      "name": "Paused",
      "type": "event"
    },
    {
      "anonymous": false,
      "inputs": [
        {
          "indexed": true,
          "internalType": "uint256",
          "name": "_tokenId",
          "type": "uint256"
        },
        {
          "indexed": true,
          "internalType": "uint256",
          "name": "_personalizationMask",
          "type": "uint256"
        }
      ],
      "name": "Personalized",
      "type": "event"
    },
    {
      "anonymous": false,
      "inputs": [
        {
          "indexed": true,
          "internalType": "bytes32",
          "name": "role",
          "type": "bytes32"
        },
        {
          "indexed": true,
          "internalType": "bytes32",
          "name": "previousAdminRole",
          "type": "bytes32"
        },
        {
          "indexed": true,
          "internalType": "bytes32",
          "name": "newAdminRole",
          "type": "bytes32"
        }
      ],
      "name": "RoleAdminChanged",
      "type": "event"
    },
    {
      "anonymous": false,
      "inputs": [
        {
          "indexed": true,
          "internalType": "bytes32",
          "name": "role",
          "type": "bytes32"
        },
        {
          "indexed": true,
          "internalType": "address",
          "name": "account",
          "type": "address"
        },
        {
          "indexed": true,
          "internalType": "address",
          "name": "sender",
          "type": "address"
        }
      ],
      "name": "RoleGranted",
      "type": "event"
    },
    {
      "anonymous": false,
      "inputs": [
        {
          "indexed": true,
          "internalType": "bytes32",
          "name": "role",
          "type": "bytes32"
        },
        {
          "indexed": true,
          "internalType": "address",
          "name": "account",
          "type": "address"
        },
        {
          "indexed": true,
          "internalType": "address",
          "name": "sender",
          "type": "address"
        }
      ],
      "name": "RoleRevoked",
      "type": "event"
    },
    {
      "anonymous": false,
      "inputs": [
        {
          "indexed": true,
          "internalType": "address",
          "name": "_signAddress",
          "type": "address"
        }
      ],
      "name": "SignAddressSet",
      "type": "event"
    },
    {
      "anonymous": false,
      "inputs": [
        {
          "indexed": true,
          "internalType": "uint256",
          "name": "tokenId",
          "type": "uint256"
        },
        {
          "indexed": true,
          "internalType": "address",
          "name": "burner",
          "type": "address"
        }
      ],
      "name": "TokenBurned",
      "type": "event"
    },
    {
      "anonymous": false,
      "inputs": [
        {
          "indexed": true,
          "internalType": "address",
          "name": "from",
          "type": "address"
        },
        {
          "indexed": true,
          "internalType": "address",
          "name": "to",
          "type": "address"
        },
        {
          "indexed": true,
          "internalType": "uint256",
          "name": "tokenId",
          "type": "uint256"
        }
      ],
      "name": "Transfer",
      "type": "event"
    },
    {
      "anonymous": false,
      "inputs": [
        {
          "indexed": true,
          "internalType": "address",
          "name": "_owner",
          "type": "address"
        }
      ],
      "name": "TreasurySet",
      "type": "event"
    },
    {
      "anonymous": false,
      "inputs": [
        {
          "indexed": false,
          "internalType": "address",
          "name": "account",
          "type": "address"
        }
      ],
      "name": "Unpaused",
      "type": "event"
    },
    {
      "anonymous": false,
      "inputs": [
        {
          "indexed": true,
          "internalType": "uint256",
          "name": "_waveMaxTokens",
          "type": "uint256"
        },
        {
          "indexed": true,
          "internalType": "uint256",
          "name": "_waveMaxTokensToBuy",
          "type": "uint256"
        },
        {
          "indexed": true,
          "internalType": "uint256",
          "name": "_waveSingleTokenPrice",
          "type": "uint256"
        }
      ],
      "name": "WaveSetup",
      "type": "event"
    },
    {
      "inputs": [],
      "name": "ADMIN_ROLE",
      "outputs": [
        {
          "internalType": "bytes32",
          "name": "",
          "type": "bytes32"
        }
      ],
      "stateMutability": "view",
      "type": "function"
    },
    {
      "inputs": [],
      "name": "CONFIGURATOR_ROLE",
      "outputs": [
        {
          "internalType": "bytes32",
          "name": "",
          "type": "bytes32"
        }
      ],
      "stateMutability": "view",
      "type": "function"
    },
    {
      "inputs": [],
      "name": "DEFAULT_ADMIN_ROLE",
      "outputs": [
        {
          "internalType": "bytes32",
          "name": "",
          "type": "bytes32"
        }
      ],
      "stateMutability": "view",
      "type": "function"
    },
    {
      "inputs": [],
      "name": "TRANSFORMER_ROLE",
      "outputs": [
        {
          "internalType": "bytes32",
          "name": "",
          "type": "bytes32"
        }
      ],
      "stateMutability": "view",
      "type": "function"
    },
    {
      "inputs": [],
      "name": "acceptOwnership",
      "outputs": [],
      "stateMutability": "nonpayable",
      "type": "function"
    },
    {
      "inputs": [
        {
          "internalType": "address",
          "name": "account",
          "type": "address"
        }
      ],
      "name": "addConfigurator",
      "outputs": [],
      "stateMutability": "nonpayable",
      "type": "function"
    },
    {
      "inputs": [
        {
          "internalType": "address",
          "name": "account",
          "type": "address"
        }
      ],
      "name": "addTransformer",
      "outputs": [],
      "stateMutability": "nonpayable",
      "type": "function"
    },
    {
      "inputs": [],
      "name": "allowedToExecuteMint",
      "outputs": [
        {
          "internalType": "address",
          "name": "",
          "type": "address"
        }
      ],
      "stateMutability": "view",
      "type": "function"
    },
    {
      "inputs": [
        {
          "internalType": "address",
          "name": "operator",
          "type": "address"
        },
        {
          "internalType": "uint256",
          "name": "tokenId",
          "type": "uint256"
        }
      ],
      "name": "approve",
      "outputs": [],
      "stateMutability": "nonpayable",
      "type": "function"
    },
    {
      "inputs": [
        {
          "internalType": "address",
          "name": "owner",
          "type": "address"
        }
      ],
      "name": "balanceOf",
      "outputs": [
        {
          "internalType": "uint256",
          "name": "",
          "type": "uint256"
        }
      ],
      "stateMutability": "view",
      "type": "function"
    },
    {
      "inputs": [],
      "name": "baseTokenURI",
      "outputs": [
        {
          "internalType": "string",
          "name": "",
          "type": "string"
        }
      ],
      "stateMutability": "view",
      "type": "function"
    },
    {
      "inputs": [
        {
          "internalType": "uint256",
          "name": "tokenId",
          "type": "uint256"
        }
      ],
      "name": "burn",
      "outputs": [],
      "stateMutability": "nonpayable",
      "type": "function"
    },
    {
      "inputs": [
        {
          "internalType": "address",
          "name": "",
          "type": "address"
        },
        {
          "internalType": "uint256",
          "name": "",
          "type": "uint256"
        }
      ],
      "name": "burnedTokens",
      "outputs": [
        {
          "internalType": "uint256",
          "name": "",
          "type": "uint256"
        }
      ],
      "stateMutability": "view",
      "type": "function"
    },
    {
      "inputs": [
        {
          "internalType": "address",
          "name": "previousOwner",
          "type": "address"
        }
      ],
      "name": "burnedTokensCount",
      "outputs": [
        {
          "internalType": "uint256",
          "name": "",
          "type": "uint256"
        }
      ],
      "stateMutability": "view",
      "type": "function"
    },
    {
      "inputs": [
        {
          "internalType": "uint256",
          "name": "",
          "type": "uint256"
        }
      ],
      "name": "burner",
      "outputs": [
        {
          "internalType": "address",
          "name": "",
          "type": "address"
        }
      ],
      "stateMutability": "view",
      "type": "function"
    },
    {
      "inputs": [
        {
          "internalType": "uint256",
          "name": "tokenId",
          "type": "uint256"
        }
      ],
      "name": "burnerOf",
      "outputs": [
        {
          "internalType": "address",
          "name": "",
          "type": "address"
        }
      ],
      "stateMutability": "view",
      "type": "function"
    },
    {
      "inputs": [],
      "name": "chain",
      "outputs": [
        {
          "internalType": "uint256",
          "name": "",
          "type": "uint256"
        }
      ],
      "stateMutability": "view",
      "type": "function"
    },
    {
      "inputs": [
        {
          "internalType": "address",
          "name": "_wallet",
          "type": "address"
        },
        {
          "internalType": "uint256",
          "name": "_amount",
          "type": "uint256"
        }
      ],
      "name": "checkMintAllowed",
      "outputs": [
        {
          "internalType": "bool",
          "name": "",
          "type": "bool"
        }
      ],
      "stateMutability": "view",
      "type": "function"
    },
    {
      "inputs": [
        {
          "internalType": "address",
          "name": "previousOwner",
          "type": "address"
        }
      ],
      "name": "didBurnTokens",
      "outputs": [
        {
          "internalType": "bool",
          "name": "",
          "type": "bool"
        }
      ],
      "stateMutability": "view",
      "type": "function"
    },
    {
      "inputs": [
        {
          "internalType": "uint256",
          "name": "tokenId",
          "type": "uint256"
        }
      ],
      "name": "getApproved",
      "outputs": [
        {
          "internalType": "address",
          "name": "",
          "type": "address"
        }
      ],
      "stateMutability": "view",
      "type": "function"
    },
    {
      "inputs": [
        {
          "internalType": "bytes32",
          "name": "role",
          "type": "bytes32"
        }
      ],
      "name": "getRoleAdmin",
      "outputs": [
        {
          "internalType": "bytes32",
          "name": "",
          "type": "bytes32"
        }
      ],
      "stateMutability": "view",
      "type": "function"
    },
    {
      "inputs": [],
      "name": "getTrustedForwarder",
      "outputs": [
        {
          "internalType": "address",
          "name": "trustedForwarder",
          "type": "address"
        }
      ],
      "stateMutability": "view",
      "type": "function"
    },
    {
      "inputs": [
        {
          "internalType": "bytes32",
          "name": "role",
          "type": "bytes32"
        },
        {
          "internalType": "address",
          "name": "account",
          "type": "address"
        }
      ],
      "name": "grantRole",
      "outputs": [],
      "stateMutability": "nonpayable",
      "type": "function"
    },
    {
      "inputs": [
        {
          "internalType": "bytes32",
          "name": "role",
          "type": "bytes32"
        },
        {
          "internalType": "address",
          "name": "account",
          "type": "address"
        }
      ],
      "name": "hasRole",
      "outputs": [
        {
          "internalType": "bool",
          "name": "",
          "type": "bool"
        }
      ],
      "stateMutability": "view",
      "type": "function"
    },
    {
      "inputs": [],
      "name": "indexWave",
      "outputs": [
        {
          "internalType": "uint256",
          "name": "",
          "type": "uint256"
        }
      ],
      "stateMutability": "view",
      "type": "function"
    },
    {
      "inputs": [
        {
          "internalType": "address",
          "name": "_collectionOwner",
          "type": "address"
        },
        {
          "internalType": "string",
          "name": "_initialBaseURI",
          "type": "string"
        },
        {
          "internalType": "string",
          "name": "_name",
          "type": "string"
        },
        {
          "internalType": "string",
          "name": "_symbol",
          "type": "string"
        },
        {
          "internalType": "address payable",
          "name": "_mintTreasury",
          "type": "address"
        },
        {
          "internalType": "address",
          "name": "_signAddress",
          "type": "address"
        },
        {
          "internalType": "address",
          "name": "_initialTrustedForwarder",
          "type": "address"
        },
        {
          "internalType": "address",
          "name": "_allowedToExecuteMint",
          "type": "address"
        },
        {
          "internalType": "uint256",
          "name": "_maxSupply",
          "type": "uint256"
        },
        {
          "components": [
            {
              "internalType": "address",
              "name": "registry",
              "type": "address"
            },
            {
              "internalType": "address",
              "name": "operatorFiltererSubscription",
              "type": "address"
            },
            {
              "internalType": "bool",
              "name": "operatorFiltererSubscriptionSubscribe",
              "type": "bool"
            }
          ],
          "internalType": "struct AvatarCollection.OpenseaRegistryFilterParameters",
          "name": "_filterParams",
          "type": "tuple"
        },
        {
          "components": [
            {
              "internalType": "uint256",
              "name": "mintPrice",
              "type": "uint256"
            },
            {
              "internalType": "uint256",
              "name": "maxPublicTokensPerWallet",
              "type": "uint256"
            },
            {
              "internalType": "uint256",
              "name": "maxAllowlistTokensPerWallet",
              "type": "uint256"
            },
            {
              "internalType": "uint256",
              "name": "maxMarketingTokens",
              "type": "uint256"
            }
          ],
          "internalType": "struct AvatarCollection.MintingDefaults",
          "name": "_mintingDefaults",
          "type": "tuple"
        }
      ],
      "name": "initialize",
      "outputs": [],
      "stateMutability": "nonpayable",
      "type": "function"
    },
    {
      "inputs": [
        {
          "internalType": "address",
          "name": "owner",
          "type": "address"
        },
        {
          "internalType": "address",
          "name": "operator",
          "type": "address"
        }
      ],
      "name": "isApprovedForAll",
      "outputs": [
        {
          "internalType": "bool",
          "name": "",
          "type": "bool"
        }
      ],
      "stateMutability": "view",
      "type": "function"
    },
    {
      "inputs": [
        {
          "internalType": "address",
          "name": "forwarder",
          "type": "address"
        }
      ],
      "name": "isTrustedForwarder",
      "outputs": [
        {
          "internalType": "bool",
          "name": "",
          "type": "bool"
        }
      ],
      "stateMutability": "view",
      "type": "function"
    },
    {
      "inputs": [],
      "name": "maxSupply",
      "outputs": [
        {
          "internalType": "uint256",
          "name": "",
          "type": "uint256"
        }
      ],
      "stateMutability": "view",
      "type": "function"
    },
    {
      "inputs": [
        {
          "internalType": "address",
          "name": "_wallet",
          "type": "address"
        },
        {
          "internalType": "uint256",
          "name": "_amount",
          "type": "uint256"
        },
        {
          "internalType": "uint256",
          "name": "_signatureId",
          "type": "uint256"
        },
        {
          "internalType": "bytes",
          "name": "_signature",
          "type": "bytes"
        }
      ],
      "name": "mint",
      "outputs": [],
      "stateMutability": "nonpayable",
      "type": "function"
    },
    {
      "inputs": [],
      "name": "mintTreasury",
      "outputs": [
        {
          "internalType": "address",
          "name": "",
          "type": "address"
        }
      ],
      "stateMutability": "view",
      "type": "function"
    },
    {
      "inputs": [],
      "name": "mintingDefaults",
      "outputs": [
        {
          "internalType": "uint256",
          "name": "mintPrice",
          "type": "uint256"
        },
        {
          "internalType": "uint256",
          "name": "maxPublicTokensPerWallet",
          "type": "uint256"
        },
        {
          "internalType": "uint256",
          "name": "maxAllowlistTokensPerWallet",
          "type": "uint256"
        },
        {
          "internalType": "uint256",
          "name": "maxMarketingTokens",
          "type": "uint256"
        }
      ],
      "stateMutability": "view",
      "type": "function"
    },
    {
      "inputs": [],
      "name": "name",
      "outputs": [
        {
          "internalType": "string",
          "name": "",
          "type": "string"
        }
      ],
      "stateMutability": "view",
      "type": "function"
    },
    {
      "inputs": [],
      "name": "operatorFilterRegistry",
      "outputs": [
        {
          "internalType": "address",
          "name": "",
          "type": "address"
        }
      ],
      "stateMutability": "view",
      "type": "function"
    },
    {
      "inputs": [
        {
          "internalType": "uint256",
          "name": "_tokenId",
          "type": "uint256"
        },
        {
          "internalType": "uint256",
          "name": "_personalizationMask",
          "type": "uint256"
        }
      ],
      "name": "operatorPersonalize",
      "outputs": [],
      "stateMutability": "nonpayable",
      "type": "function"
    },
    {
      "inputs": [],
      "name": "owner",
      "outputs": [
        {
          "internalType": "address",
          "name": "",
          "type": "address"
        }
      ],
      "stateMutability": "view",
      "type": "function"
    },
    {
      "inputs": [
        {
          "internalType": "uint256",
          "name": "tokenId",
          "type": "uint256"
        }
      ],
      "name": "ownerOf",
      "outputs": [
        {
          "internalType": "address",
          "name": "",
          "type": "address"
        }
      ],
      "stateMutability": "view",
      "type": "function"
    },
    {
      "inputs": [],
      "name": "pause",
      "outputs": [],
      "stateMutability": "nonpayable",
      "type": "function"
    },
    {
      "inputs": [],
      "name": "paused",
      "outputs": [
        {
          "internalType": "bool",
          "name": "",
          "type": "bool"
        }
      ],
      "stateMutability": "view",
      "type": "function"
    },
    {
      "inputs": [],
      "name": "pendingOwner",
      "outputs": [
        {
          "internalType": "address",
          "name": "",
          "type": "address"
        }
      ],
      "stateMutability": "view",
      "type": "function"
    },
    {
      "inputs": [
        {
          "internalType": "uint256",
          "name": "_tokenId",
          "type": "uint256"
        }
      ],
      "name": "personalizationOf",
      "outputs": [
        {
          "internalType": "uint256",
          "name": "",
          "type": "uint256"
        }
      ],
      "stateMutability": "view",
      "type": "function"
    },
    {
      "inputs": [
        {
          "internalType": "uint256",
          "name": "",
          "type": "uint256"
        }
      ],
      "name": "personalizationTraits",
      "outputs": [
        {
          "internalType": "uint256",
          "name": "",
          "type": "uint256"
        }
      ],
      "stateMutability": "view",
      "type": "function"
    },
    {
      "inputs": [
        {
          "internalType": "uint256",
          "name": "_signatureId",
          "type": "uint256"
        },
        {
          "internalType": "bytes",
          "name": "_signature",
          "type": "bytes"
        },
        {
          "internalType": "uint256",
          "name": "_tokenId",
          "type": "uint256"
        },
        {
          "internalType": "uint256",
          "name": "_personalizationMask",
          "type": "uint256"
        }
      ],
      "name": "personalize",
      "outputs": [],
      "stateMutability": "nonpayable",
      "type": "function"
    },
    {
      "inputs": [
        {
          "internalType": "uint256",
          "name": "_count",
          "type": "uint256"
        }
      ],
      "name": "price",
      "outputs": [
        {
          "internalType": "uint256",
          "name": "",
          "type": "uint256"
        }
      ],
      "stateMutability": "view",
      "type": "function"
    },
    {
      "inputs": [],
      "name": "renounceOwnership",
      "outputs": [],
      "stateMutability": "nonpayable",
      "type": "function"
    },
    {
      "inputs": [
        {
          "internalType": "bytes32",
          "name": "role",
          "type": "bytes32"
        },
        {
          "internalType": "address",
          "name": "account",
          "type": "address"
        }
      ],
      "name": "renounceRole",
      "outputs": [],
      "stateMutability": "nonpayable",
      "type": "function"
    },
    {
      "inputs": [
        {
          "internalType": "uint256",
          "name": "_tokenId",
          "type": "uint256"
        },
        {
          "internalType": "uint256",
          "name": "_signatureId",
          "type": "uint256"
        },
        {
          "internalType": "bytes",
          "name": "_signature",
          "type": "bytes"
        }
      ],
      "name": "reveal",
      "outputs": [],
      "stateMutability": "nonpayable",
      "type": "function"
    },
    {
      "inputs": [
        {
          "internalType": "address",
          "name": "account",
          "type": "address"
        }
      ],
      "name": "revokeConfiguratorRole",
      "outputs": [],
      "stateMutability": "nonpayable",
      "type": "function"
    },
    {
      "inputs": [
        {
          "internalType": "bytes32",
          "name": "role",
          "type": "bytes32"
        },
        {
          "internalType": "address",
          "name": "account",
          "type": "address"
        }
      ],
      "name": "revokeRole",
      "outputs": [],
      "stateMutability": "nonpayable",
      "type": "function"
    },
    {
      "inputs": [
        {
          "internalType": "address",
          "name": "account",
          "type": "address"
        }
      ],
      "name": "revokeTransformerRole",
      "outputs": [],
      "stateMutability": "nonpayable",
      "type": "function"
    },
    {
      "inputs": [
        {
          "internalType": "address",
          "name": "from",
          "type": "address"
        },
        {
          "internalType": "address",
          "name": "to",
          "type": "address"
        },
        {
          "internalType": "uint256",
          "name": "tokenId",
          "type": "uint256"
        }
      ],
      "name": "safeTransferFrom",
      "outputs": [],
      "stateMutability": "nonpayable",
      "type": "function"
    },
    {
      "inputs": [
        {
          "internalType": "address",
          "name": "from",
          "type": "address"
        },
        {
          "internalType": "address",
          "name": "to",
          "type": "address"
        },
        {
          "internalType": "uint256",
          "name": "tokenId",
          "type": "uint256"
        },
        {
          "internalType": "bytes",
          "name": "data",
          "type": "bytes"
        }
      ],
      "name": "safeTransferFrom",
      "outputs": [],
      "stateMutability": "nonpayable",
      "type": "function"
    },
    {
      "inputs": [
        {
          "internalType": "address",
          "name": "_minterToken",
          "type": "address"
        }
      ],
      "name": "setAllowedExecuteMint",
      "outputs": [],
      "stateMutability": "nonpayable",
      "type": "function"
    },
    {
      "inputs": [],
      "name": "setAllowlistMint",
      "outputs": [],
      "stateMutability": "nonpayable",
      "type": "function"
    },
    {
      "inputs": [
        {
          "internalType": "address",
          "name": "operator",
          "type": "address"
        },
        {
          "internalType": "bool",
          "name": "approved",
          "type": "bool"
        }
      ],
      "name": "setApprovalForAll",
      "outputs": [],
      "stateMutability": "nonpayable",
      "type": "function"
    },
    {
      "inputs": [
        {
          "internalType": "string",
          "name": "baseURI",
          "type": "string"
        }
      ],
      "name": "setBaseURI",
      "outputs": [],
      "stateMutability": "nonpayable",
      "type": "function"
    },
    {
      "inputs": [],
      "name": "setMarketingMint",
      "outputs": [],
      "stateMutability": "nonpayable",
      "type": "function"
    },
    {
      "inputs": [],
      "name": "setPublicMint",
      "outputs": [],
      "stateMutability": "nonpayable",
      "type": "function"
    },
    {
      "inputs": [
        {
          "internalType": "address",
          "name": "_signAddress",
          "type": "address"
        }
      ],
      "name": "setSignAddress",
      "outputs": [],
      "stateMutability": "nonpayable",
      "type": "function"
    },
    {
      "inputs": [
        {
          "internalType": "address",
          "name": "_treasury",
          "type": "address"
        }
      ],
      "name": "setTreasury",
      "outputs": [],
      "stateMutability": "nonpayable",
      "type": "function"
    },
    {
      "inputs": [
        {
          "internalType": "uint256",
          "name": "_waveMaxTokensOverall",
          "type": "uint256"
        },
        {
          "internalType": "uint256",
          "name": "_waveMaxTokensPerWallet",
          "type": "uint256"
        },
        {
          "internalType": "uint256",
          "name": "_waveSingleTokenPrice",
          "type": "uint256"
        }
      ],
      "name": "setupWave",
      "outputs": [],
      "stateMutability": "nonpayable",
      "type": "function"
    },
    {
      "inputs": [],
      "name": "signAddress",
      "outputs": [
        {
          "internalType": "address",
          "name": "",
          "type": "address"
        }
      ],
      "stateMutability": "view",
      "type": "function"
    },
    {
      "inputs": [
        {
          "internalType": "bytes4",
          "name": "interfaceId",
          "type": "bytes4"
        }
      ],
      "name": "supportsInterface",
      "outputs": [
        {
          "internalType": "bool",
          "name": "",
          "type": "bool"
        }
      ],
      "stateMutability": "view",
      "type": "function"
    },
    {
      "inputs": [],
      "name": "symbol",
      "outputs": [
        {
          "internalType": "string",
          "name": "",
          "type": "string"
        }
      ],
      "stateMutability": "view",
      "type": "function"
    },
    {
      "inputs": [
        {
          "internalType": "uint256",
          "name": "index",
          "type": "uint256"
        }
      ],
      "name": "tokenByIndex",
      "outputs": [
        {
          "internalType": "uint256",
          "name": "",
          "type": "uint256"
        }
      ],
      "stateMutability": "view",
      "type": "function"
    },
    {
      "inputs": [
        {
          "internalType": "address",
          "name": "owner",
          "type": "address"
        },
        {
          "internalType": "uint256",
          "name": "index",
          "type": "uint256"
        }
      ],
      "name": "tokenOfOwnerByIndex",
      "outputs": [
        {
          "internalType": "uint256",
          "name": "",
          "type": "uint256"
        }
      ],
      "stateMutability": "view",
      "type": "function"
    },
    {
      "inputs": [
        {
          "internalType": "uint256",
          "name": "tokenId",
          "type": "uint256"
        }
      ],
      "name": "tokenURI",
      "outputs": [
        {
          "internalType": "string",
          "name": "",
          "type": "string"
        }
      ],
      "stateMutability": "view",
      "type": "function"
    },
    {
      "inputs": [],
      "name": "totalSupply",
      "outputs": [
        {
          "internalType": "uint256",
          "name": "",
          "type": "uint256"
        }
      ],
      "stateMutability": "view",
      "type": "function"
    },
    {
      "inputs": [
        {
          "internalType": "address",
          "name": "from",
          "type": "address"
        },
        {
          "internalType": "address",
          "name": "to",
          "type": "address"
        },
        {
          "internalType": "uint256",
          "name": "tokenId",
          "type": "uint256"
        }
      ],
      "name": "transferFrom",
      "outputs": [],
      "stateMutability": "nonpayable",
      "type": "function"
    },
    {
      "inputs": [
        {
          "internalType": "address",
          "name": "newOwner",
          "type": "address"
        }
      ],
      "name": "transferOwnership",
      "outputs": [],
      "stateMutability": "nonpayable",
      "type": "function"
    },
    {
      "inputs": [],
      "name": "unpause",
      "outputs": [],
      "stateMutability": "nonpayable",
      "type": "function"
    },
    {
      "inputs": [
        {
          "internalType": "address",
          "name": "newRegistry",
          "type": "address"
        }
      ],
      "name": "updateOperatorFilterRegistryAddress",
      "outputs": [],
      "stateMutability": "nonpayable",
      "type": "function"
    },
    {
      "inputs": [],
      "name": "waveMaxTokensOverall",
      "outputs": [
        {
          "internalType": "uint256",
          "name": "",
          "type": "uint256"
        }
      ],
      "stateMutability": "view",
      "type": "function"
    },
    {
      "inputs": [],
      "name": "waveMaxTokensPerWallet",
      "outputs": [
        {
          "internalType": "uint256",
          "name": "",
          "type": "uint256"
        }
      ],
      "stateMutability": "view",
      "type": "function"
    },
    {
      "inputs": [
        {
          "internalType": "address",
          "name": "",
          "type": "address"
        },
        {
          "internalType": "uint256",
          "name": "",
          "type": "uint256"
        }
      ],
      "name": "waveOwnerToClaimedCounts",
      "outputs": [
        {
          "internalType": "uint256",
          "name": "",
          "type": "uint256"
        }
      ],
      "stateMutability": "view",
      "type": "function"
    },
    {
      "inputs": [],
      "name": "waveSingleTokenPrice",
      "outputs": [
        {
          "internalType": "uint256",
          "name": "",
          "type": "uint256"
        }
      ],
      "stateMutability": "view",
      "type": "function"
    },
    {
      "inputs": [],
      "name": "waveTotalMinted",
      "outputs": [
        {
          "internalType": "uint256",
          "name": "",
          "type": "uint256"
        }
      ],
      "stateMutability": "view",
      "type": "function"
    }
  ],
  "bytecode": {
    "object": "0x60806040523480156200001157600080fd5b506200001c62000022565b620000e3565b600054610100900460ff16156200008f5760405162461bcd60e51b815260206004820152602760248201527f496e697469616c697a61626c653a20636f6e747261637420697320696e697469604482015266616c697a696e6760c81b606482015260840160405180910390fd5b60005460ff90811614620000e1576000805460ff191660ff9081179091556040519081527f7f26b83ff96e1f2b6a682f133852f6798a09c465da95921460cefb38474024989060200160405180910390a15b565b615a4080620000f36000396000f3fe608060405234801561001057600080fd5b506004361061045f5760003560e01c8063731133e91161024c578063ac3149e311610146578063d547cfb7116100c3578063e3e3506211610087578063e3e3506214610a0d578063e985e9c514610a21578063ef92539c14610a5e578063f0f4426014610a66578063f2fde38b14610a7957600080fd5b8063d547cfb7146109c2578063d5abeb01146109ca578063d5d1713f146109d4578063d853015e146109e7578063e30c3978146109fc57600080fd5b8063c763e5a11161010a578063c763e5a11461095a578063c87b56dd14610960578063ca0df4a114610973578063ce1b815f1461099d578063d547741f146109af57600080fd5b8063ac3149e31461090e578063b0ccc31e14610922578063b88d4fde1461092a578063b8d1e5321461093d578063be4ca0cc1461095057600080fd5b806390c5c56d116101d45780639ea25d7a116101985780639ea25d7a146108c3578063a217fddf146108cd578063a22cb465146108d5578063a6e3ec26146108e8578063a90fe861146108fb57600080fd5b806390c5c56d1461084857806391d1485414610874578063955a53f51461088757806395d89b411461089a57806397944ba2146108a257600080fd5b806382bc78771161021b57806382bc7877146107c157806383bab8a7146107d45780638456cb591461080e5780638da5cb5b146108165780638deeed421461081e57600080fd5b8063731133e91461077e57806375b238fc1461079157806379ba5097146107a65780637a266db0146107ae57600080fd5b806336568abe1161035d578063572b6c05116102e5578063677ec90f116102a9578063677ec90f1461070157806368d4a7781461072257806370a082311461074e57806370edac7614610761578063715018a61461077657600080fd5b8063572b6c05146106995780635775363c146106bc5780635c975abb146106cf5780636352211e146106db578063671b2a31146106ee57600080fd5b806342966c681161032c57806342966c681461064e578063433ad10614610661578063442a64b61461066b5780634f6ccce71461067357806355f804b31461068657600080fd5b806336568abe146106165780633e84aa5e146106295780633f4ba83a1461063357806342842e0e1461063b57600080fd5b806318160ddd116103eb57806326a49e37116103af57806326a49e37146105c0578063283ca77c146105d35780632f2ff15d146105e65780632f745c59146105f957806334b35ac01461060c57600080fd5b806318160ddd1461055b5780631992c3f31461056457806322b56a681461057757806323b872dd1461058a578063248a9ca31461059d57600080fd5b806306fdde031161043257806306fdde03146104e3578063081812fc146104f8578063095ea7b31461050b57806311db8d1b1461051e578063151370451461054857600080fd5b806301ffc9a714610464578063023ba7c31461048c57806302456aa2146104ad5780630682bdbc146104b7575b600080fd5b610477610472366004614c1d565b610a8c565b60405190151581526020015b60405180910390f35b61049f61049a366004614c5f565b610ab7565b604051908152602001610483565b6104b5610ae9565b005b610206546104cb906001600160a01b031681565b6040516001600160a01b039091168152602001610483565b6104eb610bd9565b6040516104839190614ce3565b6104cb610506366004614cf6565b610c6b565b6104b5610519366004614c5f565b610c93565b6104cb61052c366004614cf6565b610160602052600090815260409020546001600160a01b031681565b6104b5610556366004614d0f565b610cac565b6101305461049f565b6104b5610572366004614d2c565b610d25565b6104b5610585366004614d0f565b610f99565b6104b5610598366004614d58565b610fe2565b61049f6105ab366004614cf6565b60009081526097602052604090206001015490565b61049f6105ce366004614cf6565b61100d565b6104776105e1366004614c5f565b61101e565b6104b56105f4366004614d99565b611041565b61049f610607366004614c5f565b611066565b61049f6102005481565b6104b5610624366004614d99565b6110fd565b61049f6101fe5481565b6104b561118b565b6104b5610649366004614d58565b61119d565b6104b561065c366004614cf6565b6111c2565b61049f6101fd5481565b6104b5611277565b61049f610681366004614cf6565b61134d565b6104b5610694366004614e6c565b6113e2565b6104776106a7366004614d0f565b610194546001600160a01b0391821691161490565b6104b56106ca366004614d0f565b6114e5565b6101c65460ff16610477565b6104cb6106e9366004614cf6565b61152b565b6104b56106fc366004614ea1565b61158b565b61049f61070f366004614cf6565b6102076020526000908152604090205481565b61049f610730366004614c5f565b6101ff60209081526000928352604080842090915290825290205481565b61049f61075c366004614d0f565b61169f565b61049f6000805160206159cb83398151915281565b6104b5611725565b6104b561078c366004614ef8565b61179b565b61049f6000805160206159eb83398151915281565b6104b5611add565b6104b56107bc366004614d0f565b611bb3565b6104b56107cf366004614d0f565b611bf9565b610201546102025461020354610204546107ee9392919084565b604080519485526020850193909352918301526060820152608001610483565b6104b5611c73565b6104cb611c83565b61049f61082c366004614d0f565b6001600160a01b03166000908152610161602052604090205490565b610477610856366004614d0f565b6001600160a01b031660009081526101616020526040902054151590565b610477610882366004614d99565b611c9c565b6104b5610895366004615045565b611cc7565b6104eb611da7565b61049f6108b0366004614cf6565b6000908152610207602052604090205490565b61049f6101fb5481565b61049f600081565b6104b56108e3366004615155565b611db6565b6104b56108f6366004615183565b611dca565b6104b56109093660046151a5565b611ea7565b610205546104cb906001600160a01b031681565b6104cb611f28565b6104b56109383660046151f5565b611f41565b6104b561094b366004614d0f565b611f6e565b61049f6101fc5481565b4661049f565b6104eb61096e366004614cf6565b612002565b6104cb610981366004614cf6565b600090815261016060205260409020546001600160a01b031690565b610194546001600160a01b03166104cb565b6104b56109bd366004614d99565b612068565b6104eb61208d565b61049f6101f85481565b6104b56109e2366004614d0f565b61211c565b61049f6000805160206159ab83398151915281565b60fb546001600160a01b03166104cb565b6101f9546104cb906001600160a01b031681565b610477610a2f366004615249565b6001600160a01b0391821660009081526101016020908152604080832093909416825291909152205460ff1690565b6104b5612162565b6104b5610a74366004614d0f565b61220b565b6104b5610a87366004614d0f565b6122c4565b60006001600160e01b0319821663da8def7360e01b1480610ab15750610ab18261232a565b92915050565b6101616020528160005260406000208181548110610ad457600080fd5b90600052602060002001600091509150505481565b610af161234f565b6000805160206159ab8339815191526000610b0a612396565b9050610b168282611c9c565b80610b395750806001600160a01b0316610b2e611c83565b6001600160a01b0316145b610b5e5760405162461bcd60e51b8152600401610b5590615277565b60405180910390fd5b610130546101f854610b7091906152db565b6101fb55610202546101fc55610201546101fd5560006101fe819055610200805491610b9b836152f2565b90915550506101fd546101fc546101fb546040517fe564a4bf9e4db3797c60fe6b6be0c2b012e6557df177e1b63883bd29d00db8de90600090a45050565b606060fc8054610be89061530b565b80601f0160208091040260200160405190810160405280929190818152602001828054610c149061530b565b8015610c615780601f10610c3657610100808354040283529160200191610c61565b820191906000526020600020905b815481529060010190602001808311610c4457829003601f168201915b5050505050905090565b6000610c76826123a0565b50600090815261010060205260409020546001600160a01b031690565b81610c9d816123ff565b610ca783836124cb565b505050565b610cb46125ed565b6001600160a01b038116610cda5760405162461bcd60e51b8152600401610b5590615345565b61020680546001600160a01b0319166001600160a01b0383169081179091556040517f0e58c0652c5df5dddc98a8856c5a814ba7aedf70cc4ef2c72a040d1ff0fe5ebd90600090a250565b610d2d61234f565b6000805160206159ab8339815191526000610d46612396565b9050610d528282611c9c565b80610d755750806001600160a01b0316610d6a611c83565b6001600160a01b0316145b610d915760405162461bcd60e51b8152600401610b5590615277565b6101f854851115610dff5760405162461bcd60e51b815260206004820152603260248201527f417661746172436f6c6c656374696f6e3a205f776176654d6178546f6b656e736044820152712065786365656473206d6178537570706c7960701b6064820152608401610b55565b60008511610e615760405162461bcd60e51b815260206004820152602960248201527f417661746172436f6c6c656374696f6e3a206d617820746f6b656e7320746f2060448201526806d696e7420697320360bc1b6064820152608401610b55565b60008411610ece5760405162461bcd60e51b815260206004820152603460248201527f417661746172436f6c6c656374696f6e3a206d617820746f6b656e7320746f2060448201527306d696e74207065722077616c6c657420697320360641b6064820152608401610b55565b84841115610f355760405162461bcd60e51b815260206004820152602e60248201527f417661746172436f6c6c656374696f6e3a20696e76616c696420737570706c7960448201526d1031b7b73334b3bab930ba34b7b760911b6064820152608401610b55565b6101fb8590556101fc8490556101fd83905560006101fe819055610200805491610f5e836152f2565b91905055508284867fe564a4bf9e4db3797c60fe6b6be0c2b012e6557df177e1b63883bd29d00db8de60405160405180910390a45050505050565b610fa16125ed565b6001600160a01b038116610fc75760405162461bcd60e51b8152600401610b5590615393565b610fdf6000805160206159cb83398151915282611041565b50565b826001600160a01b0381163314610ffc57610ffc336123ff565b61100784848461265c565b50505050565b6000816101fd54610ab191906153e3565b600061102982612694565b801561103a575061103a83836126bb565b9392505050565b60008281526097602052604090206001015461105c8161273e565b610ca7838361274f565b60006110718361169f565b82106110d35760405162461bcd60e51b815260206004820152602b60248201527f455243373231456e756d657261626c653a206f776e657220696e646578206f7560448201526a74206f6620626f756e647360a81b6064820152608401610b55565b506001600160a01b0391909116600090815261012e60209081526040808320938352929052205490565b611105612396565b6001600160a01b0316816001600160a01b03161461117d5760405162461bcd60e51b815260206004820152602f60248201527f416363657373436f6e74726f6c3a2063616e206f6e6c792072656e6f756e636560448201526e103937b632b9903337b91039b2b63360891b6064820152608401610b55565b61118782826127d6565b5050565b6111936125ed565b61119b61285b565b565b826001600160a01b03811633146111b7576111b7336123ff565b6110078484846128b4565b60006111cc612396565b90506111d881836128cf565b6111f45760405162461bcd60e51b8152600401610b5590615402565b6111fd8261294f565b60008281526101606020908152604080832080546001600160a01b0319166001600160a01b0386169081179091558084526101618352818420805460018101825590855292842090920185905551909184917f33631bcd0a4d34a7e2c240ab0753d5adfb7284d8ac89dab6876ec785c0cfa0e69190a35050565b61127f61234f565b6000805160206159ab8339815191526000611298612396565b90506112a48282611c9c565b806112c75750806001600160a01b03166112bc611c83565b6001600160a01b0316145b6112e35760405162461bcd60e51b8152600401610b5590615277565b610204546101fb8190556101fc5560006101fd8190556101fe81905561020080549161130e836152f2565b919050555060006101fc546101fb547fe564a4bf9e4db3797c60fe6b6be0c2b012e6557df177e1b63883bd29d00db8de60405160405180910390a45050565b60006113596101305490565b82106113bc5760405162461bcd60e51b815260206004820152602c60248201527f455243373231456e756d657261626c653a20676c6f62616c20696e646578206f60448201526b7574206f6620626f756e647360a01b6064820152608401610b55565b61013082815481106113d0576113d061544f565b90600052602060002001549050919050565b6000805160206159ab83398151915260006113fb612396565b90506114078282611c9c565b8061142a5750806001600160a01b031661141f611c83565b6001600160a01b0316145b6114465760405162461bcd60e51b8152600401610b5590615277565b82516000036114675760405162461bcd60e51b8152600401610b5590615465565b6101fa61147484826154f7565b508260405161148391906155b7565b604051908190038120907ff9c7803e94e0d3c02900d8a90893a6d5e90dd04d32a4cfe825520f82bf9f32f690600090a2604051600019907ff8e1a15aba9398e019f0b49df1a4fde98ee17ae345cb5f6b5e2c27f5033e8ce790600090a2505050565b6114ed6125ed565b6001600160a01b0381166115135760405162461bcd60e51b8152600401610b5590615393565b610fdf6000805160206159cb83398151915282612068565b600081815260fe60205260408120546001600160a01b031680610ab15760405162461bcd60e51b8152602060048201526018602482015277115490cdcc8c4e881a5b9d985b1a59081d1bdad95b88125160421b6044820152606401610b55565b611593612396565b6001600160a01b03166115a58361152b565b6001600160a01b0316146115cb5760405162461bcd60e51b8152600401610b55906155d3565b60008481526102086020526040902054156115f85760405162461bcd60e51b8152600401610b5590615618565b610206546001600160a01b031661161b611610612396565b86304687878a6129f3565b6001600160a01b0316146116825760405162461bcd60e51b815260206004820152602860248201527f417661746172436f6c6c656374696f6e3a207369676e617475726520636865636044820152671ac819985a5b195960c21b6064820152608401610b55565b600084815261020860205260409020600190556110078282612aa6565b60006001600160a01b0382166117095760405162461bcd60e51b815260206004820152602960248201527f4552433732313a2061646472657373207a65726f206973206e6f7420612076616044820152683634b21037bbb732b960b91b6064820152608401610b55565b506001600160a01b0316600090815260ff602052604090205490565b61172d6125ed565b60405162461bcd60e51b815260206004820152603c60248201527f436f6c6c656374696f6e416363657373436f6e74726f6c3a2052656e6f756e6360448201527f65206f776e657273686970206973206e6f7420617661696c61626c65000000006064820152608401610b55565b6117a361234f565b6117ab612b11565b600061020054116118135760405162461bcd60e51b815260206004820152602c60248201527f417661746172436f6c6c656374696f6e3a20636f6e7472616374206973206e6f60448201526b1d0818dbdb999a59dd5c995960a21b6064820152608401610b55565b610205546001600160a01b0316611828612396565b6001600160a01b03161461188e5760405162461bcd60e51b815260206004820152602760248201527f417661746172436f6c6c656374696f6e3a2063616c6c6572206973206e6f7420604482015266185b1b1bddd95960ca1b6064820152608401610b55565b6001600160a01b0384166118f55760405162461bcd60e51b815260206004820152602860248201527f417661746172436f6c6c656374696f6e3a2077616c6c6574206973207a65726f604482015267206164647265737360c01b6064820152608401610b55565b600083116119515760405162461bcd60e51b8152602060048201526024808201527f417661746172436f6c6c656374696f6e3a20616d6f756e742063616e6e6f74206044820152630626520360e41b6064820152608401610b55565b61195c848383612b6a565b61196583612694565b6119b15760405162461bcd60e51b815260206004820181905260248201527f417661746172436f6c6c656374696f6e3a207761766520636f6d706c657465646044820152606401610b55565b6119bb84846126bb565b611a075760405162461bcd60e51b815260206004820152601d60248201527f417661746172436f6c6c656374696f6e3a206d617820616c6c6f7765640000006044820152606401610b55565b6000611a128461100d565b90508015611a3a57611a3a611a25612396565b6101f95487906001600160a01b031684612c29565b6001600160a01b03851660009081526101ff6020526040812061020054869290611a66906001906152db565b81526020019081526020016000206000828254611a839190615662565b92505081905550836101fe6000828254611a9d9190615662565b90915550600090505b84811015611ad257611aca86611ac588611ac06101305490565b612c83565b612d9f565b600101611aa6565b505061100760018055565b6000611ae7612396565b9050806001600160a01b0316611b0560fb546001600160a01b031690565b6001600160a01b031614611b785760405162461bcd60e51b815260206004820152603460248201527f436f6c6c656374696f6e416363657373436f6e74726f6c3a2063616c6c65722060448201527334b9903737ba103a3432903732bb9037bbb732b960611b6064820152608401610b55565b611b926000805160206159eb8339815191526109bd611c83565b611baa6000805160206159eb83398151915282611041565b610fdf81612dbf565b611bbb6125ed565b6001600160a01b038116611be15760405162461bcd60e51b8152600401610b5590615393565b610fdf6000805160206159ab83398151915282611041565b611c016125ed565b6001600160a01b0381163b611c285760405162461bcd60e51b8152600401610b559061567a565b61020580546001600160a01b0319166001600160a01b0383169081179091556040517f8eb903ef93f1949409fbfad9304ceafc3ab8211c9ddbe9732ce8b1ede00efb3490600090a250565b611c7b6125ed565b61119b612dd8565b6000611c9760c9546001600160a01b031690565b905090565b60009182526097602090815260408084206001600160a01b0393909316845291905290205460ff1690565b600054610100900460ff1615808015611ce75750600054600160ff909116105b80611d015750303b158015611d01575060005460ff166001145b611d1d5760405162461bcd60e51b8152600401610b55906156ce565b6000805460ff191660011790558015611d40576000805461ff0019166101001790555b611d538c8c8c8c8c8c8c8c8c8c8c612e17565b8015611d99576000805461ff0019169055604051600181527f7f26b83ff96e1f2b6a682f133852f6798a09c465da95921460cefb38474024989060200160405180910390a15b505050505050505050505050565b606060fd8054610be89061530b565b81611dc0816123ff565b610ca783836133fc565b6000805160206159cb8339815191526000611de3612396565b9050611def8282611c9c565b80611e125750806001600160a01b0316611e07611c83565b6001600160a01b0316145b611e2e5760405162461bcd60e51b8152600401610b5590615277565b600084815260fe60205260409020546001600160a01b0316611e9d5760405162461bcd60e51b815260206004820152602260248201527f417661746172436f6c6c656374696f6e3a20696e76616c696420746f6b656e20604482015261125160f21b6064820152608401610b55565b6110078484612aa6565b6000611eb1612396565b9050806001600160a01b0316611ec68561152b565b6001600160a01b031614611eec5760405162461bcd60e51b8152600401610b55906155d3565b611ef7818484612b6a565b60405184907ff8e1a15aba9398e019f0b49df1a4fde98ee17ae345cb5f6b5e2c27f5033e8ce790600090a250505050565b6000611f3261340e565b546001600160a01b0316919050565b836001600160a01b0381163314611f5b57611f5b336123ff565b611f678585858561343e565b5050505050565b611f76611c83565b6001600160a01b0316336001600160a01b031614611fa757604051635fc483c560e01b815260040160405180910390fd5b80611fb061340e565b80546001600160a01b0319166001600160a01b0392831617905560405190821681527f9f513fe86dc42fdbac355fa4d9b1d5be7b5e6cd2df67e30db8003766568de4769060200160405180910390a150565b606061200d826123a0565b6000612017613477565b90506000815111612037576040518060200160405280600081525061103a565b8061204184613487565b60405160200161205292919061571c565b6040516020818303038152906040529392505050565b6000828152609760205260409020600101546120838161273e565b610ca783836127d6565b6101fa805461209b9061530b565b80601f01602080910402602001604051908101604052809291908181526020018280546120c79061530b565b80156121145780601f106120e957610100808354040283529160200191612114565b820191906000526020600020905b8154815290600101906020018083116120f757829003601f168201915b505050505081565b6121246125ed565b6001600160a01b03811661214a5760405162461bcd60e51b8152600401610b5590615393565b610fdf6000805160206159ab83398151915282612068565b61216a61234f565b6000805160206159ab8339815191526000612183612396565b905061218f8282611c9c565b806121b25750806001600160a01b03166121a7611c83565b6001600160a01b0316145b6121ce5760405162461bcd60e51b8152600401610b5590615277565b610130546101f8546121e091906152db565b6101fb55610203546101fc55610201546101fd5560006101fe819055610200805491610b9b836152f2565b6122136125ed565b6001600160a01b0381166122795760405162461bcd60e51b815260206004820152602760248201527f417661746172436f6c6c656374696f6e3a206f776e6572206973207a65726f206044820152666164647265737360c81b6064820152608401610b55565b6101f980546001600160a01b0319166001600160a01b0383169081179091556040517f3c864541ef71378c6229510ed90f376565ee42d9c5e0904a984a9e863e6db44f90600090a250565b6122cc6125ed565b60fb80546001600160a01b0319166001600160a01b0383169081179091556122f2611c83565b6001600160a01b03167f38d16b8cac22d99fc7c124b9cd0de2d3fa1faef420bfe791d8c362d765e2270060405160405180910390a350565b60006001600160e01b0319821663780e9d6360e01b1480610ab15750610ab18261351a565b6101c65460ff161561119b5760405162461bcd60e51b815260206004820152601060248201526f14185d5cd8589b194e881c185d5cd95960821b6044820152606401610b55565b6000611c9761355a565b600081815260fe60205260409020546001600160a01b0316610fdf5760405162461bcd60e51b8152602060048201526018602482015277115490cdcc8c4e881a5b9d985b1a59081d1bdad95b88125160421b6044820152606401610b55565b600061240961340e565b546001600160a01b03169050801580159061242e57506000816001600160a01b03163b115b1561118757604051633185c44d60e21b81523060048201526001600160a01b03838116602483015282169063c617113490604401602060405180830381865afa15801561247f573d6000803e3d6000fd5b505050506040513d601f19601f820116820180604052508101906124a3919061574b565b61118757604051633b79c77360e21b81526001600160a01b0383166004820152602401610b55565b60006124d68261152b565b9050806001600160a01b0316836001600160a01b0316036125435760405162461bcd60e51b815260206004820152602160248201527f4552433732313a20617070726f76616c20746f2063757272656e74206f776e656044820152603960f91b6064820152608401610b55565b806001600160a01b0316612555612396565b6001600160a01b03161480612571575061257181610a2f612396565b6125e35760405162461bcd60e51b815260206004820152603d60248201527f4552433732313a20617070726f76652063616c6c6572206973206e6f7420746f60448201527f6b656e206f776e6572206f7220617070726f76656420666f7220616c6c0000006064820152608401610b55565b610ca78383613582565b6125f5612396565b6001600160a01b0316612606611c83565b6001600160a01b03161461119b5760405162461bcd60e51b815260206004820181905260248201527f4f776e61626c653a2063616c6c6572206973206e6f7420746865206f776e65726044820152606401610b55565b61266d612667612396565b826128cf565b6126895760405162461bcd60e51b8152600401610b5590615402565b610ca78383836135f1565b60008082118015610ab157506101fb54826101fe546126b39190615662565b111592915050565b60006101fc54826101ff6000866001600160a01b03166001600160a01b0316815260200190815260200160002060006001610200546126fa91906152db565b8152602001908152602001600020546127139190615662565b1115801561103a57506101f8548261272b6101305490565b6127359190615662565b11159392505050565b610fdf8161274a612396565b613763565b6127598282611c9c565b6111875760008281526097602090815260408083206001600160a01b03851684529091529020805460ff19166001179055612792612396565b6001600160a01b0316816001600160a01b0316837f2f8788117e7eff1d82e926ec794901d17c78024a50270940304540a733656f0d60405160405180910390a45050565b6127e08282611c9c565b156111875760008281526097602090815260408083206001600160a01b03851684529091529020805460ff19169055612817612396565b6001600160a01b0316816001600160a01b0316837ff6391f5c32d9c69d2a47ea670b442974b53935d1edc7fd64eb21e047a839171b60405160405180910390a45050565b6128636137bc565b6101c6805460ff191690557f5db9ee0a495bf2e6ff9c91a7834c1ba4fdd244a5e8aa4e537bd38aeae4b073aa612897612396565b6040516001600160a01b03909116815260200160405180910390a1565b610ca783838360405180602001604052806000815250611f41565b6000806128db8361152b565b9050806001600160a01b0316846001600160a01b0316148061292357506001600160a01b038082166000908152610101602090815260408083209388168352929052205460ff165b806129475750836001600160a01b031661293c84610c6b565b6001600160a01b0316145b949350505050565b600061295a8261152b565b905061296a816000846001613806565b6129738261152b565b60008381526101006020908152604080832080546001600160a01b03199081169091556001600160a01b03851680855260ff8452828520805460001901905587855260fe909352818420805490911690555192935084927fddf252ad1be2c89b69c2b068fc378daa952ba7f163c4a11628f55a4df523b3ef908390a45050565b604080516001600160a01b03808a16602083015291810188905290861660608201526080810185905260a0810184905260c08101839052600090612a9a9060e0015b60408051601f198184030181529082905280516020918201207f19457468657265756d205369676e6564204d6573736167653a0a33320000000091830191909152603c820152605c016040516020818303038152906040528051906020012083613941565b98975050505050505050565b6000828152610207602052604080822083905551829184917f37c5b85bb9cbe019726db5bf44dfd0053ed3e09554d9f97a9778b5b8dd65f6209190a360405182907ff8e1a15aba9398e019f0b49df1a4fde98ee17ae345cb5f6b5e2c27f5033e8ce790600090a25050565b600260015403612b635760405162461bcd60e51b815260206004820152601f60248201527f5265656e7472616e637947756172643a207265656e7472616e742063616c6c006044820152606401610b55565b6002600155565b6000828152610208602052604090205415612b975760405162461bcd60e51b8152600401610b5590615618565b610206546001600160a01b0316612bb18484304686613965565b6001600160a01b031614612c125760405162461bcd60e51b815260206004820152602260248201527f417661746172436f6c6c656374696f6e3a207369676e6174757265206661696c604482015261195960f21b6064820152608401610b55565b506000908152610208602052604090206001905550565b604080516001600160a01b0385811660248301528416604482015260648082018490528251808303909101815260849091019091526020810180516001600160e01b03166323b872dd60e01b1790526110079085906139a7565b600080826101f854612c9591906152db565b6040516bffffffffffffffffffffffff19606087901b1660208201524460348201524260548201526074810182905290915060009082906094016040516020818303038152906040528051906020012060001c612cf29190615768565b60008181526102096020526040902054909150819015612d1e5750600081815261020960205260409020545b6102096000612d2e6001866152db565b815260200190815260200160002054600003612d6457612d4f6001846152db565b60008381526102096020526040902055612d96565b6102096000612d746001866152db565b8152602080820192909252604090810160009081205485825261020990935220555b95945050505050565b611187828260405180602001604052806000815250613a79565b60018055565b60fb80546001600160a01b0319169055610fdf81613aac565b612de061234f565b6101c6805460ff191660011790557f62e78cea01bee320cd4e420270b5ea74000d11b0c9f74754ebdbfc544b05a258612897612396565b600054610100900460ff16612e3e5760405162461bcd60e51b8152600401610b559061578a565b8951600003612e5f5760405162461bcd60e51b8152600401610b5590615465565b8851600003612eb05760405162461bcd60e51b815260206004820152601f60248201527f417661746172436f6c6c656374696f6e3a206e616d6520697320656d707479006044820152606401610b55565b8751600003612f0b5760405162461bcd60e51b815260206004820152602160248201527f417661746172436f6c6c656374696f6e3a2073796d626f6c20697320656d70746044820152607960f81b6064820152608401610b55565b6001600160a01b038616612f315760405162461bcd60e51b8152600401610b5590615345565b6001600160a01b038516612fa35760405162461bcd60e51b815260206004820152603360248201527f417661746172436f6c6c656374696f6e3a207472757374656420666f72776172604482015272646572206973207a65726f206164647265737360681b6064820152608401610b55565b6001600160a01b03871661300c5760405162461bcd60e51b815260206004820152602a60248201527f417661746172436f6c6c656374696f6e3a207472656173757279206973207a65604482015269726f206164647265737360b01b6064820152608401610b55565b6001600160a01b0384163b6130335760405162461bcd60e51b8152600401610b559061567a565b6000831161309e5760405162461bcd60e51b815260206004820152603260248201527f417661746172436f6c6c656374696f6e3a206d617820737570706c792073686f6044820152710756c64206265206d6f7265207468616e20360741b6064820152608401610b55565b60006130aa6101305490565b6101f8546130b891906152db565b82519091506131215760405162461bcd60e51b815260206004820152602f60248201527f417661746172436f6c6c656374696f6e3a207075626c6963206d696e7420707260448201526e06963652063616e6e6f74206265203608c1b6064820152608401610b55565b80826020015111158015613139575080826040015111155b6131ab5760405162461bcd60e51b815260206004820152603960248201527f417661746172436f6c6c656374696f6e3a20696e76616c696420746f6b656e7360448201527f207065722077616c6c657420636f6e66696775726174696f6e000000000000006064820152608401610b55565b80826060015111156132115760405162461bcd60e51b815260206004820152602960248201527f417661746172436f6c6c656374696f6e3a20696e76616c6964206d61726b6574604482015268696e6720736861726560b81b6064820152608401610b55565b613219613afe565b6132228c613b2d565b61019480546001600160a01b0319166001600160a01b038816179055613246613cd9565b6132508a8a613d08565b613267836000015184602001518560400151613d39565b6101fa6132748c826154f7565b506101f980546001600160a01b03808b166001600160a01b03199283161790925561020680548a84169083161790556102058054928816929091169190911790556101f884905581516102018190556020830151610202819055604080850151610203819055606086015161020481905591519093917f084331e3561153129deda7a8a07a82b29226ca4591e48e2473280d8352e920b89161331891815260200190565b60405180910390a48860405161332e91906155b7565b60405180910390208a60405161334491906155b7565b60405180910390208c60405161335a91906155b7565b60405180910390207f639645c4d40a9a2d28b9351e2c180f9b719e3d0b5f2e16a4cdd6f80aac5588fa8b8b8a8a8a600001518b602001518c604001516040516133e697969594939291906001600160a01b0397881681529587166020870152938616604086015260608501929092528416608084015290921660a082015290151560c082015260e00190565b60405180910390a4505050505050505050505050565b611187613407612396565b8383613e9c565b6000806001604051806060016040528060368152602001615975603691398051602090910120610ab191906152db565b61344f613449612396565b836128cf565b61346b5760405162461bcd60e51b8152600401610b5590615402565b61100784848484613f6b565b60606101fa8054610be89061530b565b6060600061349483613f9e565b600101905060008167ffffffffffffffff8111156134b4576134b4614dc9565b6040519080825280601f01601f1916602001820160405280156134de576020820181803683370190505b5090508181016020015b600019016f181899199a1a9b1b9c1cb0b131b232b360811b600a86061a8153600a85049450846134e857509392505050565b60006001600160e01b031982166380ac58cd60e01b148061354b57506001600160e01b03198216635b5e139f60e01b145b80610ab15750610ab182614076565b610194546000906001600160a01b0316330361357d575060131936013560601c90565b503390565b60008181526101006020526040902080546001600160a01b0319166001600160a01b03841690811790915581906135b88261152b565b6001600160a01b03167f8c5be1e5ebec7d5bd14f71427d1e84f3dd0314c0f7b2291e5b200ac8c7c3b92560405160405180910390a45050565b826001600160a01b03166136048261152b565b6001600160a01b03161461362a5760405162461bcd60e51b8152600401610b55906157d5565b6001600160a01b03821661368c5760405162461bcd60e51b8152602060048201526024808201527f4552433732313a207472616e7366657220746f20746865207a65726f206164646044820152637265737360e01b6064820152608401610b55565b6136998383836001613806565b826001600160a01b03166136ac8261152b565b6001600160a01b0316146136d25760405162461bcd60e51b8152600401610b55906157d5565b60008181526101006020908152604080832080546001600160a01b03199081169091556001600160a01b0387811680865260ff855283862080546000190190559087168086528386208054600101905586865260fe90945282852080549092168417909155905184937fddf252ad1be2c89b69c2b068fc378daa952ba7f163c4a11628f55a4df523b3ef91a4505050565b61376d8282611c9c565b6111875761377a816140ab565b6137858360206140bd565b60405160200161379692919061581a565b60408051601f198184030181529082905262461bcd60e51b8252610b5591600401614ce3565b6101c65460ff1661119b5760405162461bcd60e51b815260206004820152601460248201527314185d5cd8589b194e881b9bdd081c185d5cd95960621b6044820152606401610b55565b61381284848484614259565b60018111156138815760405162461bcd60e51b815260206004820152603560248201527f455243373231456e756d657261626c653a20636f6e7365637574697665207472604482015274185b9cd9995c9cc81b9bdd081cdd5c1c1bdc9d1959605a1b6064820152608401610b55565b816001600160a01b0385166138df576138da816101308054600083815261013160205260408120829055600182018355919091527f2f605e086faac1d93117bbfbc18835d434e9405fadc1ca66faf4b864746daf340155565b613902565b836001600160a01b0316856001600160a01b0316146139025761390285826142e1565b6001600160a01b03841661391e5761391981614383565b611f67565b846001600160a01b0316846001600160a01b031614611f6757611f678482614438565b6000806000613950858561447e565b9150915061395d816144c3565b509392505050565b604080516001600160a01b03808816602083015291810186905290841660608201526080810183905260009061399d9060a001612a35565b9695505050505050565b60006139fc826040518060400160405280602081526020017f5361666545524332303a206c6f772d6c6576656c2063616c6c206661696c6564815250856001600160a01b031661460d9092919063ffffffff16565b805190915015610ca75780806020019051810190613a1a919061574b565b610ca75760405162461bcd60e51b815260206004820152602a60248201527f5361666545524332303a204552433230206f7065726174696f6e20646964206e6044820152691bdd081cdd58d8d9595960b21b6064820152608401610b55565b613a83838361461c565b613a9060008484846147b5565b610ca75760405162461bcd60e51b8152600401610b559061588f565b60c980546001600160a01b038381166001600160a01b0319831681179093556040519116919082907f8be0079c531659141344cd1fd0a4f28419497f9722a3daafe3b4186f6b6457e090600090a35050565b600054610100900460ff16613b255760405162461bcd60e51b8152600401610b559061578a565b61119b6148bd565b600054610100900460ff1615808015613b4d5750600054600160ff909116105b80613b675750303b158015613b67575060005460ff166001145b613b835760405162461bcd60e51b8152600401610b55906156ce565b6000805460ff191660011790558015613ba6576000805461ff0019166101001790555b6001600160a01b038216613c1b5760405162461bcd60e51b815260206004820152603660248201527f436f6c6c656374696f6e416363657373436f6e74726f6c3a206e6577206f776e604482015275657220697320746865207a65726f206164647265737360501b6064820152608401610b55565b613c236148e4565b613c2c82612dbf565b613c446000805160206159eb8339815191528361274f565b613c6a6000805160206159ab8339815191526000805160206159eb83398151915261490b565b613c906000805160206159cb8339815191526000805160206159eb83398151915261490b565b8015611187576000805461ff0019169055604051600181527f7f26b83ff96e1f2b6a682f133852f6798a09c465da95921460cefb38474024989060200160405180910390a15050565b600054610100900460ff16613d005760405162461bcd60e51b8152600401610b559061578a565b61119b614956565b600054610100900460ff16613d2f5760405162461bcd60e51b8152600401610b559061578a565b611187828261498a565b600054610100900460ff16613d605760405162461bcd60e51b8152600401610b559061578a565b82613d6961340e565b80546001600160a01b0319166001600160a01b03928316179055839081163b15611007578115613dfa57604051633e9f1edf60e11b81523060048201526001600160a01b038481166024830152821690637d3e3dbe906044015b600060405180830381600087803b158015613ddd57600080fd5b505af1158015613df1573d6000803e3d6000fd5b50505050611007565b6001600160a01b03831615613e3d5760405163a0af290360e01b81523060048201526001600160a01b03848116602483015282169063a0af290390604401613dc3565b604051632210724360e11b81523060048201526001600160a01b03821690634420e48690602401600060405180830381600087803b158015613e7e57600080fd5b505af1158015613e92573d6000803e3d6000fd5b5050505050505050565b816001600160a01b0316836001600160a01b031603613efd5760405162461bcd60e51b815260206004820152601960248201527f4552433732313a20617070726f766520746f2063616c6c6572000000000000006044820152606401610b55565b6001600160a01b0383811660008181526101016020908152604080832094871680845294825291829020805460ff191686151590811790915591519182527f17307eab39ab6107e8899845ad3d59bd9653f200f220920489ca2b5937696c31910160405180910390a3505050565b613f768484846135f1565b613f82848484846147b5565b6110075760405162461bcd60e51b8152600401610b559061588f565b60008072184f03e93ff9f4daa797ed6e38ed64bf6a1f0160401b8310613fdd5772184f03e93ff9f4daa797ed6e38ed64bf6a1f0160401b830492506040015b6d04ee2d6d415b85acef81000000008310614009576d04ee2d6d415b85acef8100000000830492506020015b662386f26fc10000831061402757662386f26fc10000830492506010015b6305f5e100831061403f576305f5e100830492506008015b612710831061405357612710830492506004015b60648310614065576064830492506002015b600a8310610ab15760010192915050565b60006001600160e01b03198216637965db0b60e01b1480610ab157506301ffc9a760e01b6001600160e01b0319831614610ab1565b6060610ab16001600160a01b03831660145b606060006140cc8360026153e3565b6140d7906002615662565b67ffffffffffffffff8111156140ef576140ef614dc9565b6040519080825280601f01601f191660200182016040528015614119576020820181803683370190505b509050600360fc1b816000815181106141345761413461544f565b60200101906001600160f81b031916908160001a905350600f60fb1b816001815181106141635761416361544f565b60200101906001600160f81b031916908160001a90535060006141878460026153e3565b614192906001615662565b90505b600181111561420a576f181899199a1a9b1b9c1cb0b131b232b360811b85600f16601081106141c6576141c661544f565b1a60f81b8282815181106141dc576141dc61544f565b60200101906001600160f81b031916908160001a90535060049490941c93614203816158e1565b9050614195565b50831561103a5760405162461bcd60e51b815260206004820181905260248201527f537472696e67733a20686578206c656e67746820696e73756666696369656e746044820152606401610b55565b6001811115611007576001600160a01b0384161561429f576001600160a01b038416600090815260ff6020526040812080548392906142999084906152db565b90915550505b6001600160a01b03831615611007576001600160a01b038316600090815260ff6020526040812080548392906142d6908490615662565b909155505050505050565b600060016142ee8461169f565b6142f891906152db565b600083815261012f602052604090205490915080821461434e576001600160a01b038416600090815261012e60209081526040808320858452825280832054848452818420819055835261012f90915290208190555b50600091825261012f602090815260408084208490556001600160a01b03909416835261012e81528383209183525290812055565b61013054600090614396906001906152db565b6000838152610131602052604081205461013080549394509092849081106143c0576143c061544f565b906000526020600020015490508061013083815481106143e2576143e261544f565b6000918252602080832090910192909255828152610131909152604080822084905585825281205561013080548061441c5761441c6158f8565b6001900381819060005260206000200160009055905550505050565b60006144438361169f565b6001600160a01b03909316600090815261012e60209081526040808320868452825280832085905593825261012f9052919091209190915550565b60008082516041036144b45760208301516040840151606085015160001a6144a8878285856149ca565b945094505050506144bc565b506000905060025b9250929050565b60008160048111156144d7576144d761590e565b036144df5750565b60018160048111156144f3576144f361590e565b036145405760405162461bcd60e51b815260206004820152601860248201527f45434453413a20696e76616c6964207369676e617475726500000000000000006044820152606401610b55565b60028160048111156145545761455461590e565b036145a15760405162461bcd60e51b815260206004820152601f60248201527f45434453413a20696e76616c6964207369676e6174757265206c656e677468006044820152606401610b55565b60038160048111156145b5576145b561590e565b03610fdf5760405162461bcd60e51b815260206004820152602260248201527f45434453413a20696e76616c6964207369676e6174757265202773272076616c604482015261756560f01b6064820152608401610b55565b60606129478484600085614a8e565b6001600160a01b0382166146725760405162461bcd60e51b815260206004820181905260248201527f4552433732313a206d696e7420746f20746865207a65726f20616464726573736044820152606401610b55565b600081815260fe60205260409020546001600160a01b0316156146d75760405162461bcd60e51b815260206004820152601c60248201527f4552433732313a20746f6b656e20616c7265616479206d696e746564000000006044820152606401610b55565b6146e5600083836001613806565b600081815260fe60205260409020546001600160a01b03161561474a5760405162461bcd60e51b815260206004820152601c60248201527f4552433732313a20746f6b656e20616c7265616479206d696e746564000000006044820152606401610b55565b6001600160a01b038216600081815260ff602090815260408083208054600101905584835260fe90915280822080546001600160a01b0319168417905551839291907fddf252ad1be2c89b69c2b068fc378daa952ba7f163c4a11628f55a4df523b3ef908290a45050565b60006001600160a01b0384163b156148b257836001600160a01b031663150b7a026147de612396565b8786866040518563ffffffff1660e01b81526004016148009493929190615924565b6020604051808303816000875af192505050801561483b575060408051601f3d908101601f1916820190925261483891810190615957565b60015b614898573d808015614869576040519150601f19603f3d011682016040523d82523d6000602084013e61486e565b606091505b5080516000036148905760405162461bcd60e51b8152600401610b559061588f565b805181602001fd5b6001600160e01b031916630a85bd0160e11b149050612947565b506001949350505050565b600054610100900460ff16612db95760405162461bcd60e51b8152600401610b559061578a565b600054610100900460ff1661119b5760405162461bcd60e51b8152600401610b559061578a565b600082815260976020526040808220600101805490849055905190918391839186917fbd79b86ffe0ab8e8776151514217cd7cacd52c909f66475c3af44e129f0b00ff9190a4505050565b600054610100900460ff1661497d5760405162461bcd60e51b8152600401610b559061578a565b6101c6805460ff19169055565b600054610100900460ff166149b15760405162461bcd60e51b8152600401610b559061578a565b60fc6149bd83826154f7565b5060fd610ca782826154f7565b6000807f7fffffffffffffffffffffffffffffff5d576e7357a4501ddfe92f46681b20a0831115614a015750600090506003614a85565b6040805160008082526020820180845289905260ff881692820192909252606081018690526080810185905260019060a0016020604051602081039080840390855afa158015614a55573d6000803e3d6000fd5b5050604051601f1901519150506001600160a01b038116614a7e57600060019250925050614a85565b9150600090505b94509492505050565b606082471015614aef5760405162461bcd60e51b815260206004820152602660248201527f416464726573733a20696e73756666696369656e742062616c616e636520666f6044820152651c8818d85b1b60d21b6064820152608401610b55565b600080866001600160a01b03168587604051614b0b91906155b7565b60006040518083038185875af1925050503d8060008114614b48576040519150601f19603f3d011682016040523d82523d6000602084013e614b4d565b606091505b5091509150614b5e87838387614b69565b979650505050505050565b60608315614bd8578251600003614bd1576001600160a01b0385163b614bd15760405162461bcd60e51b815260206004820152601d60248201527f416464726573733a2063616c6c20746f206e6f6e2d636f6e74726163740000006044820152606401610b55565b5081612947565b6129478383815115614bed5781518083602001fd5b8060405162461bcd60e51b8152600401610b559190614ce3565b6001600160e01b031981168114610fdf57600080fd5b600060208284031215614c2f57600080fd5b813561103a81614c07565b6001600160a01b0381168114610fdf57600080fd5b8035614c5a81614c3a565b919050565b60008060408385031215614c7257600080fd5b8235614c7d81614c3a565b946020939093013593505050565b60005b83811015614ca6578181015183820152602001614c8e565b838111156110075750506000910152565b60008151808452614ccf816020860160208601614c8b565b601f01601f19169290920160200192915050565b60208152600061103a6020830184614cb7565b600060208284031215614d0857600080fd5b5035919050565b600060208284031215614d2157600080fd5b813561103a81614c3a565b600080600060608486031215614d4157600080fd5b505081359360208301359350604090920135919050565b600080600060608486031215614d6d57600080fd5b8335614d7881614c3a565b92506020840135614d8881614c3a565b929592945050506040919091013590565b60008060408385031215614dac57600080fd5b823591506020830135614dbe81614c3a565b809150509250929050565b634e487b7160e01b600052604160045260246000fd5b600082601f830112614df057600080fd5b813567ffffffffffffffff80821115614e0b57614e0b614dc9565b604051601f8301601f19908116603f01168101908282118183101715614e3357614e33614dc9565b81604052838152866020858801011115614e4c57600080fd5b836020870160208301376000602085830101528094505050505092915050565b600060208284031215614e7e57600080fd5b813567ffffffffffffffff811115614e9557600080fd5b61294784828501614ddf565b60008060008060808587031215614eb757600080fd5b84359350602085013567ffffffffffffffff811115614ed557600080fd5b614ee187828801614ddf565b949794965050505060408301359260600135919050565b60008060008060808587031215614f0e57600080fd5b8435614f1981614c3a565b93506020850135925060408501359150606085013567ffffffffffffffff811115614f4357600080fd5b614f4f87828801614ddf565b91505092959194509250565b8015158114610fdf57600080fd5b600060608284031215614f7b57600080fd5b6040516060810181811067ffffffffffffffff82111715614f9e57614f9e614dc9565b6040529050808235614faf81614c3a565b81526020830135614fbf81614c3a565b60208201526040830135614fd281614f5b565b6040919091015292915050565b600060808284031215614ff157600080fd5b6040516080810181811067ffffffffffffffff8211171561501457615014614dc9565b8060405250809150823581526020830135602082015260408301356040820152606083013560608201525092915050565b60008060008060008060008060008060006102008c8e03121561506757600080fd5b6150708c614c4f565b9a5067ffffffffffffffff8060208e0135111561508c57600080fd5b61509c8e60208f01358f01614ddf565b9a508060408e013511156150af57600080fd5b6150bf8e60408f01358f01614ddf565b99508060608e013511156150d257600080fd5b506150e38d60608e01358e01614ddf565b97506150f160808d01614c4f565b96506150ff60a08d01614c4f565b955061510d60c08d01614c4f565b945061511b60e08d01614c4f565b93506101008c013592506151338d6101208e01614f69565b91506151438d6101808e01614fdf565b90509295989b509295989b9093969950565b6000806040838503121561516857600080fd5b823561517381614c3a565b91506020830135614dbe81614f5b565b6000806040838503121561519657600080fd5b50508035926020909101359150565b6000806000606084860312156151ba57600080fd5b8335925060208401359150604084013567ffffffffffffffff8111156151df57600080fd5b6151eb86828701614ddf565b9150509250925092565b6000806000806080858703121561520b57600080fd5b843561521681614c3a565b9350602085013561522681614c3a565b925060408501359150606085013567ffffffffffffffff811115614f4357600080fd5b6000806040838503121561525c57600080fd5b823561526781614c3a565b91506020830135614dbe81614c3a565b6020808252602e908201527f436f6c6c656374696f6e416363657373436f6e74726f6c3a2073656e6465722060408201526d1b9bdd08185d5d1a1bdc9a5e995960921b606082015260800190565b634e487b7160e01b600052601160045260246000fd5b6000828210156152ed576152ed6152c5565b500390565b600060018201615304576153046152c5565b5060010190565b600181811c9082168061531f57607f821691505b60208210810361533f57634e487b7160e01b600052602260045260246000fd5b50919050565b6020808252602e908201527f417661746172436f6c6c656374696f6e3a207369676e2061646472657373206960408201526d73207a65726f206164647265737360901b606082015260800190565b60208082526030908201527f436f6c6c656374696f6e416363657373436f6e74726f6c3a206163636f756e7460408201526f206973207a65726f206164647265737360801b606082015260800190565b60008160001904831182151516156153fd576153fd6152c5565b500290565b6020808252602d908201527f4552433732313a2063616c6c6572206973206e6f7420746f6b656e206f776e6560408201526c1c881bdc88185c1c1c9bdd9959609a1b606082015260800190565b634e487b7160e01b600052603260045260246000fd5b60208082526024908201527f417661746172436f6c6c656374696f6e3a2062617365555249206973206e6f74604082015263081cd95d60e21b606082015260800190565b601f821115610ca757600081815260208120601f850160051c810160208610156154d05750805b601f850160051c820191505b818110156154ef578281556001016154dc565b505050505050565b815167ffffffffffffffff81111561551157615511614dc9565b6155258161551f845461530b565b846154a9565b602080601f83116001811461555a57600084156155425750858301515b600019600386901b1c1916600185901b1785556154ef565b600085815260208120601f198616915b828110156155895788860151825594840194600190910190840161556a565b50858210156155a75787850151600019600388901b60f8161c191681555b5050505050600190811b01905550565b600082516155c9818460208701614c8b565b9190910192915050565b60208082526025908201527f417661746172436f6c6c656374696f6e3a2073656e646572206973206e6f742060408201526437bbb732b960d91b606082015260800190565b6020808252602a908201527f417661746172436f6c6c656374696f6e3a207369676e6174757265496420616c6040820152691c9958591e481d5cd95960b21b606082015260800190565b60008219821115615675576156756152c5565b500190565b60208082526034908201527f417661746172436f6c6c656374696f6e3a206578656375746f722061646472656040820152731cdcc81a5cc81b9bdd08184818dbdb9d1c9858dd60621b606082015260800190565b6020808252602e908201527f496e697469616c697a61626c653a20636f6e747261637420697320616c72656160408201526d191e481a5b9a5d1a585b1a5e995960921b606082015260800190565b6000835161572e818460208801614c8b565b835190830190615742818360208801614c8b565b01949350505050565b60006020828403121561575d57600080fd5b815161103a81614f5b565b60008261578557634e487b7160e01b600052601260045260246000fd5b500690565b6020808252602b908201527f496e697469616c697a61626c653a20636f6e7472616374206973206e6f74206960408201526a6e697469616c697a696e6760a81b606082015260800190565b60208082526025908201527f4552433732313a207472616e736665722066726f6d20696e636f72726563742060408201526437bbb732b960d91b606082015260800190565b7f416363657373436f6e74726f6c3a206163636f756e7420000000000000000000815260008351615852816017850160208801614c8b565b7001034b99036b4b9b9b4b733903937b6329607d1b6017918401918201528351615883816028840160208801614c8b565b01602801949350505050565b60208082526032908201527f4552433732313a207472616e7366657220746f206e6f6e20455243373231526560408201527131b2b4bb32b91034b6b83632b6b2b73a32b960711b606082015260800190565b6000816158f0576158f06152c5565b506000190190565b634e487b7160e01b600052603160045260246000fd5b634e487b7160e01b600052602160045260246000fd5b6001600160a01b038581168252841660208201526040810183905260806060820181905260009061399d90830184614cb7565b60006020828403121561596957600080fd5b815161103a81614c0756fe557064617461626c654f70657261746f7246696c74657265725570677261646561626c652e636f6e7472616374732e73746f726167653b49a237fe2d18fa4d9642b8a0e065923cceb71b797783b619a030a61d848bf069fc995a7cdbc94c95dc768dfaa8ceead6003727063f7d665556608319262298a49807205ce4d355092ef5a8a18f56e8913cf4a201fbe287825b095693c21775a2646970667358221220cd62b3775c46bdd2313ef84dc10d39361b83e415bc9e44cdab25e8e5ddb80b6964736f6c634300080f0033",
    "linkReferences": {}
  },
  "methodIdentifiers": {
    "ADMIN_ROLE()": "75b238fc",
    "CONFIGURATOR_ROLE()": "d853015e",
    "DEFAULT_ADMIN_ROLE()": "a217fddf",
    "TRANSFORMER_ROLE()": "70edac76",
    "acceptOwnership()": "79ba5097",
    "addConfigurator(address)": "7a266db0",
    "addTransformer(address)": "22b56a68",
    "allowedToExecuteMint()": "ac3149e3",
    "approve(address,uint256)": "095ea7b3",
    "balanceOf(address)": "70a08231",
    "baseTokenURI()": "d547cfb7",
    "burn(uint256)": "42966c68",
    "burnedTokens(address,uint256)": "023ba7c3",
    "burnedTokensCount(address)": "8deeed42",
    "burner(uint256)": "11db8d1b",
    "burnerOf(uint256)": "ca0df4a1",
    "chain()": "c763e5a1",
    "checkMintAllowed(address,uint256)": "283ca77c",
    "didBurnTokens(address)": "90c5c56d",
    "getApproved(uint256)": "081812fc",
    "getRoleAdmin(bytes32)": "248a9ca3",
    "getTrustedForwarder()": "ce1b815f",
    "grantRole(bytes32,address)": "2f2ff15d",
    "hasRole(bytes32,address)": "91d14854",
    "indexWave()": "34b35ac0",
    "initialize(address,string,string,string,address,address,address,address,uint256,(address,address,bool),(uint256,uint256,uint256,uint256))": "955a53f5",
    "isApprovedForAll(address,address)": "e985e9c5",
    "isTrustedForwarder(address)": "572b6c05",
    "maxSupply()": "d5abeb01",
    "mint(address,uint256,uint256,bytes)": "731133e9",
    "mintTreasury()": "e3e35062",
    "mintingDefaults()": "83bab8a7",
    "name()": "06fdde03",
    "operatorFilterRegistry()": "b0ccc31e",
    "operatorPersonalize(uint256,uint256)": "a6e3ec26",
    "owner()": "8da5cb5b",
    "ownerOf(uint256)": "6352211e",
    "pause()": "8456cb59",
    "paused()": "5c975abb",
    "pendingOwner()": "e30c3978",
    "personalizationOf(uint256)": "97944ba2",
    "personalizationTraits(uint256)": "677ec90f",
    "personalize(uint256,bytes,uint256,uint256)": "671b2a31",
    "price(uint256)": "26a49e37",
    "renounceOwnership()": "715018a6",
    "renounceRole(bytes32,address)": "36568abe",
    "reveal(uint256,uint256,bytes)": "a90fe861",
    "revokeConfiguratorRole(address)": "d5d1713f",
    "revokeRole(bytes32,address)": "d547741f",
    "revokeTransformerRole(address)": "5775363c",
    "safeTransferFrom(address,address,uint256)": "42842e0e",
    "safeTransferFrom(address,address,uint256,bytes)": "b88d4fde",
    "setAllowedExecuteMint(address)": "82bc7877",
    "setAllowlistMint()": "ef92539c",
    "setApprovalForAll(address,bool)": "a22cb465",
    "setBaseURI(string)": "55f804b3",
    "setMarketingMint()": "442a64b6",
    "setPublicMint()": "02456aa2",
    "setSignAddress(address)": "15137045",
    "setTreasury(address)": "f0f44260",
    "setupWave(uint256,uint256,uint256)": "1992c3f3",
    "signAddress()": "0682bdbc",
    "supportsInterface(bytes4)": "01ffc9a7",
    "symbol()": "95d89b41",
    "tokenByIndex(uint256)": "4f6ccce7",
    "tokenOfOwnerByIndex(address,uint256)": "2f745c59",
    "tokenURI(uint256)": "c87b56dd",
    "totalSupply()": "18160ddd",
    "transferFrom(address,address,uint256)": "23b872dd",
    "transferOwnership(address)": "f2fde38b",
    "unpause()": "3f4ba83a",
    "updateOperatorFilterRegistryAddress(address)": "b8d1e532",
    "waveMaxTokensOverall()": "9ea25d7a",
    "waveMaxTokensPerWallet()": "be4ca0cc",
    "waveOwnerToClaimedCounts(address,uint256)": "68d4a778",
    "waveSingleTokenPrice()": "433ad106",
    "waveTotalMinted()": "3e84aa5e"
  },
  "id": 59
}