{
  "abi": [
    {
      "inputs": [
        {
          "internalType": "address",
          "name": "_paymentToken",
          "type": "address"
        }
      ],
      "stateMutability": "nonpayable",
      "type": "constructor"
    },
    {
      "inputs": [],
      "name": "OnlyOwner",
      "type": "error"
    },
    {
      "inputs": [
        {
          "internalType": "address",
          "name": "operator",
          "type": "address"
        }
      ],
      "name": "OperatorNotAllowed",
      "type": "error"
    },
    {
      "anonymous": false,
      "inputs": [
        {
          "indexed": false,
          "internalType": "address",
          "name": "_address",
          "type": "address"
        }
      ],
      "name": "AllowedExecuteMintSet",
      "type": "event"
    },
    {
      "anonymous": false,
      "inputs": [
        {
          "indexed": true,
          "internalType": "address",
          "name": "owner",
          "type": "address"
        },
        {
          "indexed": true,
          "internalType": "address",
          "name": "approved",
          "type": "address"
        },
        {
          "indexed": true,
          "internalType": "uint256",
          "name": "tokenId",
          "type": "uint256"
        }
      ],
      "name": "Approval",
      "type": "event"
    },
    {
      "anonymous": false,
      "inputs": [
        {
          "indexed": true,
          "internalType": "address",
          "name": "owner",
          "type": "address"
        },
        {
          "indexed": true,
          "internalType": "address",
          "name": "operator",
          "type": "address"
        },
        {
          "indexed": false,
          "internalType": "bool",
          "name": "approved",
          "type": "bool"
        }
      ],
      "name": "ApprovalForAll",
      "type": "event"
    },
    {
      "anonymous": false,
      "inputs": [
        {
          "indexed": false,
          "internalType": "string",
          "name": "baseURI",
          "type": "string"
        }
      ],
      "name": "BaseURISet",
      "type": "event"
    },
    {
      "anonymous": false,
      "inputs": [
        {
          "indexed": false,
          "internalType": "uint256",
          "name": "_fromTokenId",
          "type": "uint256"
        },
        {
          "indexed": false,
          "internalType": "uint256",
          "name": "_toTokenId",
          "type": "uint256"
        }
      ],
      "name": "BatchMetadataUpdate",
      "type": "event"
    },
    {
      "anonymous": false,
      "inputs": [
        {
          "indexed": false,
          "internalType": "string",
          "name": "baseURI",
          "type": "string"
        },
        {
          "indexed": false,
          "internalType": "string",
          "name": "_name",
          "type": "string"
        },
        {
          "indexed": false,
          "internalType": "string",
          "name": "_symbol",
          "type": "string"
        },
        {
          "indexed": false,
          "internalType": "address",
          "name": "_mintTreasury",
          "type": "address"
        },
        {
          "indexed": false,
          "internalType": "address",
          "name": "_signAddress",
          "type": "address"
        },
        {
          "indexed": false,
          "internalType": "uint256",
          "name": "_maxSupply",
          "type": "uint256"
        },
        {
          "indexed": false,
          "internalType": "address",
          "name": "_registry",
          "type": "address"
        },
        {
          "indexed": false,
          "internalType": "address",
          "name": "_operatorFiltererSubscription",
          "type": "address"
        },
        {
          "indexed": false,
          "internalType": "bool",
          "name": "_operatorFiltererSubscriptionSubscribe",
          "type": "bool"
        }
      ],
      "name": "ContractInitialized",
      "type": "event"
    },
    {
      "anonymous": false,
      "inputs": [
        {
          "indexed": false,
          "internalType": "uint8",
          "name": "version",
          "type": "uint8"
        }
      ],
      "name": "Initialized",
      "type": "event"
    },
    {
      "anonymous": false,
      "inputs": [
        {
          "indexed": false,
          "internalType": "uint256",
          "name": "_tokenId",
          "type": "uint256"
        }
      ],
      "name": "MetadataUpdate",
      "type": "event"
    },
    {
      "anonymous": false,
      "inputs": [
        {
          "indexed": false,
          "internalType": "address",
          "name": "newRegistry",
          "type": "address"
        }
      ],
      "name": "OperatorFilterRegistryAddressUpdated",
      "type": "event"
    },
    {
      "anonymous": false,
      "inputs": [
        {
          "indexed": true,
          "internalType": "address",
          "name": "previousOwner",
          "type": "address"
        },
        {
          "indexed": true,
          "internalType": "address",
          "name": "newOwner",
          "type": "address"
        }
      ],
      "name": "OwnershipTransferStarted",
      "type": "event"
    },
    {
      "anonymous": false,
      "inputs": [
        {
          "indexed": true,
          "internalType": "address",
          "name": "previousOwner",
          "type": "address"
        },
        {
          "indexed": true,
          "internalType": "address",
          "name": "newOwner",
          "type": "address"
        }
      ],
      "name": "OwnershipTransferred",
      "type": "event"
    },
    {
      "anonymous": false,
      "inputs": [
        {
          "indexed": false,
          "internalType": "uint256",
          "name": "_tokenId",
          "type": "uint256"
        },
        {
          "indexed": false,
          "internalType": "uint256",
          "name": "_personalizationMask",
          "type": "uint256"
        }
      ],
      "name": "Personalized",
      "type": "event"
    },
    {
      "anonymous": false,
      "inputs": [
        {
          "indexed": true,
          "internalType": "bytes32",
          "name": "role",
          "type": "bytes32"
        },
        {
          "indexed": true,
          "internalType": "bytes32",
          "name": "previousAdminRole",
          "type": "bytes32"
        },
        {
          "indexed": true,
          "internalType": "bytes32",
          "name": "newAdminRole",
          "type": "bytes32"
        }
      ],
      "name": "RoleAdminChanged",
      "type": "event"
    },
    {
      "anonymous": false,
      "inputs": [
        {
          "indexed": true,
          "internalType": "bytes32",
          "name": "role",
          "type": "bytes32"
        },
        {
          "indexed": true,
          "internalType": "address",
          "name": "account",
          "type": "address"
        },
        {
          "indexed": true,
          "internalType": "address",
          "name": "sender",
          "type": "address"
        }
      ],
      "name": "RoleGranted",
      "type": "event"
    },
    {
      "anonymous": false,
      "inputs": [
        {
          "indexed": true,
          "internalType": "bytes32",
          "name": "role",
          "type": "bytes32"
        },
        {
          "indexed": true,
          "internalType": "address",
          "name": "account",
          "type": "address"
        },
        {
          "indexed": true,
          "internalType": "address",
          "name": "sender",
          "type": "address"
        }
      ],
      "name": "RoleRevoked",
      "type": "event"
    },
    {
      "anonymous": false,
      "inputs": [
        {
          "indexed": false,
          "internalType": "bool",
          "name": "_pause",
          "type": "bool"
        }
      ],
      "name": "SaleToggled",
      "type": "event"
    },
    {
      "anonymous": false,
      "inputs": [
        {
          "indexed": false,
          "internalType": "address",
          "name": "_signAddress",
          "type": "address"
        }
      ],
      "name": "SignAddressSet",
      "type": "event"
    },
    {
      "anonymous": false,
      "inputs": [
        {
          "indexed": true,
          "internalType": "enum CollectionStateManagement.State",
          "name": "oldState",
          "type": "uint8"
        },
        {
          "indexed": true,
          "internalType": "enum CollectionStateManagement.State",
          "name": "newState",
          "type": "uint8"
        }
      ],
      "name": "StateChanged",
      "type": "event"
    },
    {
      "anonymous": false,
      "inputs": [
        {
          "indexed": true,
          "internalType": "uint256",
          "name": "tokenId",
          "type": "uint256"
        },
        {
          "indexed": true,
          "internalType": "address",
          "name": "burner",
          "type": "address"
        }
      ],
      "name": "TokenBurned",
      "type": "event"
    },
    {
      "anonymous": false,
      "inputs": [
        {
          "indexed": true,
          "internalType": "address",
          "name": "from",
          "type": "address"
        },
        {
          "indexed": true,
          "internalType": "address",
          "name": "to",
          "type": "address"
        },
        {
          "indexed": true,
          "internalType": "uint256",
          "name": "tokenId",
          "type": "uint256"
        }
      ],
      "name": "Transfer",
      "type": "event"
    },
    {
      "anonymous": false,
      "inputs": [
        {
          "indexed": false,
          "internalType": "address",
          "name": "_owner",
          "type": "address"
        }
      ],
      "name": "TreasurySet",
      "type": "event"
    },
    {
      "anonymous": false,
      "inputs": [
        {
          "indexed": false,
          "internalType": "uint256",
          "name": "_waveMaxTokens",
          "type": "uint256"
        },
        {
          "indexed": false,
          "internalType": "uint256",
          "name": "_waveMaxTokensToBuy",
          "type": "uint256"
        },
        {
          "indexed": false,
          "internalType": "uint256",
          "name": "_waveSingleTokenPrice",
          "type": "uint256"
        }
      ],
      "name": "WaveSetup",
      "type": "event"
    },
    {
      "inputs": [],
      "name": "ADMIN_ROLE",
      "outputs": [
        {
          "internalType": "bytes32",
          "name": "",
          "type": "bytes32"
        }
      ],
      "stateMutability": "view",
      "type": "function"
    },
    {
      "inputs": [],
      "name": "CONFIGURATOR_ROLE",
      "outputs": [
        {
          "internalType": "bytes32",
          "name": "",
          "type": "bytes32"
        }
      ],
      "stateMutability": "view",
      "type": "function"
    },
    {
      "inputs": [],
      "name": "DEFAULT_ADMIN_ROLE",
      "outputs": [
        {
          "internalType": "bytes32",
          "name": "",
          "type": "bytes32"
        }
      ],
      "stateMutability": "view",
      "type": "function"
    },
    {
      "inputs": [],
      "name": "TRANSFORMER_ROLE",
      "outputs": [
        {
          "internalType": "bytes32",
          "name": "",
          "type": "bytes32"
        }
      ],
      "stateMutability": "view",
      "type": "function"
    },
    {
      "inputs": [],
      "name": "acceptOwnership",
      "outputs": [],
      "stateMutability": "nonpayable",
      "type": "function"
    },
    {
      "inputs": [
        {
          "internalType": "address",
          "name": "account",
          "type": "address"
        }
      ],
      "name": "addConfigurator",
      "outputs": [],
      "stateMutability": "nonpayable",
      "type": "function"
    },
    {
      "inputs": [
        {
          "internalType": "address",
          "name": "account",
          "type": "address"
        }
      ],
      "name": "addTransformer",
      "outputs": [],
      "stateMutability": "nonpayable",
      "type": "function"
    },
    {
      "inputs": [],
      "name": "allowedToExecuteMint",
      "outputs": [
        {
          "internalType": "address",
          "name": "",
          "type": "address"
        }
      ],
      "stateMutability": "view",
      "type": "function"
    },
    {
      "inputs": [
        {
          "internalType": "address",
          "name": "operator",
          "type": "address"
        },
        {
          "internalType": "uint256",
          "name": "tokenId",
          "type": "uint256"
        }
      ],
      "name": "approve",
      "outputs": [],
      "stateMutability": "nonpayable",
      "type": "function"
    },
    {
      "inputs": [
        {
          "internalType": "address",
          "name": "owner",
          "type": "address"
        }
      ],
      "name": "balanceOf",
      "outputs": [
        {
          "internalType": "uint256",
          "name": "",
          "type": "uint256"
        }
      ],
      "stateMutability": "view",
      "type": "function"
    },
    {
      "inputs": [],
      "name": "baseTokenURI",
      "outputs": [
        {
          "internalType": "string",
          "name": "",
          "type": "string"
        }
      ],
      "stateMutability": "view",
      "type": "function"
    },
    {
      "inputs": [
        {
          "internalType": "uint256",
          "name": "tokenId",
          "type": "uint256"
        }
      ],
      "name": "burn",
      "outputs": [],
      "stateMutability": "nonpayable",
      "type": "function"
    },
    {
      "inputs": [
        {
          "internalType": "address",
          "name": "",
          "type": "address"
        },
        {
          "internalType": "uint256",
          "name": "",
          "type": "uint256"
        }
      ],
      "name": "burnedTokens",
      "outputs": [
        {
          "internalType": "uint256",
          "name": "",
          "type": "uint256"
        }
      ],
      "stateMutability": "view",
      "type": "function"
    },
    {
      "inputs": [
        {
          "internalType": "address",
          "name": "previousOwner",
          "type": "address"
        }
      ],
      "name": "burnedTokensCount",
      "outputs": [
        {
          "internalType": "uint256",
          "name": "",
          "type": "uint256"
        }
      ],
      "stateMutability": "view",
      "type": "function"
    },
    {
      "inputs": [
        {
          "internalType": "uint256",
          "name": "",
          "type": "uint256"
        }
      ],
      "name": "burner",
      "outputs": [
        {
          "internalType": "address",
          "name": "",
          "type": "address"
        }
      ],
      "stateMutability": "view",
      "type": "function"
    },
    {
      "inputs": [
        {
          "internalType": "uint256",
          "name": "tokenId",
          "type": "uint256"
        }
      ],
      "name": "burnerOf",
      "outputs": [
        {
          "internalType": "address",
          "name": "",
          "type": "address"
        }
      ],
      "stateMutability": "view",
      "type": "function"
    },
    {
      "inputs": [],
      "name": "chain",
      "outputs": [
        {
          "internalType": "uint256",
          "name": "",
          "type": "uint256"
        }
      ],
      "stateMutability": "view",
      "type": "function"
    },
    {
      "inputs": [
        {
          "internalType": "enum CollectionStateManagement.State",
          "name": "state",
          "type": "uint8"
        }
      ],
      "name": "changeState",
      "outputs": [],
      "stateMutability": "nonpayable",
      "type": "function"
    },
    {
      "inputs": [
        {
          "internalType": "address",
          "name": "_wallet",
          "type": "address"
        },
        {
          "internalType": "uint256",
          "name": "_amount",
          "type": "uint256"
        }
      ],
      "name": "checkMintAllowed",
      "outputs": [
        {
          "internalType": "bool",
          "name": "",
          "type": "bool"
        }
      ],
      "stateMutability": "view",
      "type": "function"
    },
    {
      "inputs": [],
      "name": "currentState",
      "outputs": [
        {
          "internalType": "enum CollectionStateManagement.State",
          "name": "",
          "type": "uint8"
        }
      ],
      "stateMutability": "view",
      "type": "function"
    },
    {
      "inputs": [
        {
          "internalType": "address",
          "name": "previousOwner",
          "type": "address"
        }
      ],
      "name": "didBurnTokens",
      "outputs": [
        {
          "internalType": "bool",
          "name": "",
          "type": "bool"
        }
      ],
      "stateMutability": "view",
      "type": "function"
    },
    {
      "inputs": [
        {
          "internalType": "uint256",
          "name": "tokenId",
          "type": "uint256"
        }
      ],
      "name": "getApproved",
      "outputs": [
        {
          "internalType": "address",
          "name": "",
          "type": "address"
        }
      ],
      "stateMutability": "view",
      "type": "function"
    },
    {
      "inputs": [
        {
          "internalType": "bytes32",
          "name": "role",
          "type": "bytes32"
        }
      ],
      "name": "getRoleAdmin",
      "outputs": [
        {
          "internalType": "bytes32",
          "name": "",
          "type": "bytes32"
        }
      ],
      "stateMutability": "view",
      "type": "function"
    },
    {
      "inputs": [],
      "name": "getTrustedForwarder",
      "outputs": [
        {
          "internalType": "address",
          "name": "trustedForwarder",
          "type": "address"
        }
      ],
      "stateMutability": "view",
      "type": "function"
    },
    {
      "inputs": [
        {
          "internalType": "bytes32",
          "name": "role",
          "type": "bytes32"
        },
        {
          "internalType": "address",
          "name": "account",
          "type": "address"
        }
      ],
      "name": "grantRole",
      "outputs": [],
      "stateMutability": "nonpayable",
      "type": "function"
    },
    {
      "inputs": [
        {
          "internalType": "bytes32",
          "name": "role",
          "type": "bytes32"
        },
        {
          "internalType": "address",
          "name": "account",
          "type": "address"
        }
      ],
      "name": "hasRole",
      "outputs": [
        {
          "internalType": "bool",
          "name": "",
          "type": "bool"
        }
      ],
      "stateMutability": "view",
      "type": "function"
    },
    {
      "inputs": [],
      "name": "indexWave",
      "outputs": [
        {
          "internalType": "uint256",
          "name": "",
          "type": "uint256"
        }
      ],
      "stateMutability": "view",
      "type": "function"
    },
    {
      "inputs": [
        {
          "internalType": "address",
          "name": "_collectionOwner",
          "type": "address"
        },
        {
          "internalType": "string",
          "name": "_initialBaseURI",
          "type": "string"
        },
        {
          "internalType": "string",
          "name": "_name",
          "type": "string"
        },
        {
          "internalType": "string",
          "name": "_symbol",
          "type": "string"
        },
        {
          "internalType": "address payable",
          "name": "_mintTreasury",
          "type": "address"
        },
        {
          "internalType": "address",
          "name": "_signAddress",
          "type": "address"
        },
        {
          "internalType": "address",
          "name": "_initialTrustedForwarder",
          "type": "address"
        },
        {
          "internalType": "address",
          "name": "_registry",
          "type": "address"
        },
        {
          "internalType": "address",
          "name": "_operatorFiltererSubscription",
          "type": "address"
        },
        {
          "internalType": "bool",
          "name": "_operatorFiltererSubscriptionSubscribe",
          "type": "bool"
        },
        {
          "internalType": "uint256",
          "name": "_maxSupply",
          "type": "uint256"
        }
      ],
      "name": "initialize",
      "outputs": [],
      "stateMutability": "nonpayable",
      "type": "function"
    },
    {
      "inputs": [
        {
          "internalType": "address",
          "name": "owner",
          "type": "address"
        },
        {
          "internalType": "address",
          "name": "operator",
          "type": "address"
        }
      ],
      "name": "isApprovedForAll",
      "outputs": [
        {
          "internalType": "bool",
          "name": "",
          "type": "bool"
        }
      ],
      "stateMutability": "view",
      "type": "function"
    },
    {
      "inputs": [
        {
          "internalType": "address",
          "name": "forwarder",
          "type": "address"
        }
      ],
      "name": "isTrustedForwarder",
      "outputs": [
        {
          "internalType": "bool",
          "name": "",
          "type": "bool"
        }
      ],
      "stateMutability": "view",
      "type": "function"
    },
    {
      "inputs": [],
      "name": "maxSupply",
      "outputs": [
        {
          "internalType": "uint256",
          "name": "",
          "type": "uint256"
        }
      ],
      "stateMutability": "view",
      "type": "function"
    },
    {
      "inputs": [
        {
          "internalType": "address",
          "name": "_wallet",
          "type": "address"
        },
        {
          "internalType": "uint256",
          "name": "_amount",
          "type": "uint256"
        },
        {
          "internalType": "uint256",
          "name": "_signatureId",
          "type": "uint256"
        },
        {
          "internalType": "bytes",
          "name": "_signature",
          "type": "bytes"
        }
      ],
      "name": "mint",
      "outputs": [],
      "stateMutability": "nonpayable",
      "type": "function"
    },
    {
      "inputs": [],
      "name": "mintTreasury",
      "outputs": [
        {
          "internalType": "address",
          "name": "",
          "type": "address"
        }
      ],
      "stateMutability": "view",
      "type": "function"
    },
    {
      "inputs": [],
      "name": "name",
      "outputs": [
        {
          "internalType": "string",
          "name": "",
          "type": "string"
        }
      ],
      "stateMutability": "view",
      "type": "function"
    },
    {
      "inputs": [],
      "name": "operatorFilterRegistry",
      "outputs": [
        {
          "internalType": "address",
          "name": "",
          "type": "address"
        }
      ],
      "stateMutability": "view",
      "type": "function"
    },
    {
      "inputs": [],
      "name": "owner",
      "outputs": [
        {
          "internalType": "address",
          "name": "",
          "type": "address"
        }
      ],
      "stateMutability": "view",
      "type": "function"
    },
    {
      "inputs": [
        {
          "internalType": "uint256",
          "name": "tokenId",
          "type": "uint256"
        }
      ],
      "name": "ownerOf",
      "outputs": [
        {
          "internalType": "address",
          "name": "",
          "type": "address"
        }
      ],
      "stateMutability": "view",
      "type": "function"
    },
    {
      "inputs": [],
      "name": "paused",
      "outputs": [
        {
          "internalType": "uint256",
          "name": "",
          "type": "uint256"
        }
      ],
      "stateMutability": "view",
      "type": "function"
    },
    {
      "inputs": [],
      "name": "paymentToken",
      "outputs": [
        {
          "internalType": "contract IERC20",
          "name": "",
          "type": "address"
        }
      ],
      "stateMutability": "view",
      "type": "function"
    },
    {
      "inputs": [],
      "name": "pendingOwner",
      "outputs": [
        {
          "internalType": "address",
          "name": "",
          "type": "address"
        }
      ],
      "stateMutability": "view",
      "type": "function"
    },
    {
      "inputs": [
        {
          "internalType": "uint256",
          "name": "_tokenId",
          "type": "uint256"
        }
      ],
      "name": "personalizationOf",
      "outputs": [
        {
          "internalType": "uint256",
          "name": "",
          "type": "uint256"
        }
      ],
      "stateMutability": "view",
      "type": "function"
    },
    {
      "inputs": [
        {
          "internalType": "uint256",
          "name": "",
          "type": "uint256"
        }
      ],
      "name": "personalizationTraits",
      "outputs": [
        {
          "internalType": "uint256",
          "name": "",
          "type": "uint256"
        }
      ],
      "stateMutability": "view",
      "type": "function"
    },
    {
      "inputs": [
        {
          "internalType": "uint256",
          "name": "_signatureId",
          "type": "uint256"
        },
        {
          "internalType": "bytes",
          "name": "_signature",
          "type": "bytes"
        },
        {
          "internalType": "uint256",
          "name": "_tokenId",
          "type": "uint256"
        },
        {
          "internalType": "uint256",
          "name": "_personalizationMask",
          "type": "uint256"
        }
      ],
      "name": "personalize",
      "outputs": [],
      "stateMutability": "nonpayable",
      "type": "function"
    },
    {
      "inputs": [
        {
          "internalType": "uint256",
          "name": "_count",
          "type": "uint256"
        }
      ],
      "name": "price",
      "outputs": [
        {
          "internalType": "uint256",
          "name": "",
          "type": "uint256"
        }
      ],
      "stateMutability": "view",
      "type": "function"
    },
    {
      "inputs": [],
      "name": "renounceOwnership",
      "outputs": [],
      "stateMutability": "nonpayable",
      "type": "function"
    },
    {
      "inputs": [
        {
          "internalType": "bytes32",
          "name": "role",
          "type": "bytes32"
        },
        {
          "internalType": "address",
          "name": "account",
          "type": "address"
        }
      ],
      "name": "renounceRole",
      "outputs": [],
      "stateMutability": "nonpayable",
      "type": "function"
    },
    {
      "inputs": [
        {
          "internalType": "address",
          "name": "account",
          "type": "address"
        }
      ],
      "name": "revokeConfiguratorRole",
      "outputs": [],
      "stateMutability": "nonpayable",
      "type": "function"
    },
    {
      "inputs": [
        {
          "internalType": "bytes32",
          "name": "role",
          "type": "bytes32"
        },
        {
          "internalType": "address",
          "name": "account",
          "type": "address"
        }
      ],
      "name": "revokeRole",
      "outputs": [],
      "stateMutability": "nonpayable",
      "type": "function"
    },
    {
      "inputs": [
        {
          "internalType": "address",
          "name": "account",
          "type": "address"
        }
      ],
      "name": "revokeTransformerRole",
      "outputs": [],
      "stateMutability": "nonpayable",
      "type": "function"
    },
    {
      "inputs": [
        {
          "internalType": "address",
          "name": "from",
          "type": "address"
        },
        {
          "internalType": "address",
          "name": "to",
          "type": "address"
        },
        {
          "internalType": "uint256",
          "name": "tokenId",
          "type": "uint256"
        }
      ],
      "name": "safeTransferFrom",
      "outputs": [],
      "stateMutability": "nonpayable",
      "type": "function"
    },
    {
      "inputs": [
        {
          "internalType": "address",
          "name": "from",
          "type": "address"
        },
        {
          "internalType": "address",
          "name": "to",
          "type": "address"
        },
        {
          "internalType": "uint256",
          "name": "tokenId",
          "type": "uint256"
        },
        {
          "internalType": "bytes",
          "name": "data",
          "type": "bytes"
        }
      ],
      "name": "safeTransferFrom",
      "outputs": [],
      "stateMutability": "nonpayable",
      "type": "function"
    },
    {
      "inputs": [
        {
          "internalType": "address",
          "name": "_address",
          "type": "address"
        }
      ],
      "name": "setAllowedExecuteMint",
      "outputs": [],
      "stateMutability": "nonpayable",
      "type": "function"
    },
    {
      "inputs": [
        {
          "internalType": "address",
          "name": "operator",
          "type": "address"
        },
        {
          "internalType": "bool",
          "name": "approved",
          "type": "bool"
        }
      ],
      "name": "setApprovalForAll",
      "outputs": [],
      "stateMutability": "nonpayable",
      "type": "function"
    },
    {
      "inputs": [
        {
          "internalType": "string",
          "name": "baseURI",
          "type": "string"
        }
      ],
      "name": "setBaseURI",
      "outputs": [],
      "stateMutability": "nonpayable",
      "type": "function"
    },
    {
      "inputs": [
        {
          "internalType": "address",
          "name": "_signAddress",
          "type": "address"
        }
      ],
      "name": "setSignAddress",
      "outputs": [],
      "stateMutability": "nonpayable",
      "type": "function"
    },
    {
      "inputs": [
        {
          "internalType": "address",
          "name": "_treasury",
          "type": "address"
        }
      ],
      "name": "setTreasury",
      "outputs": [],
      "stateMutability": "nonpayable",
      "type": "function"
    },
    {
      "inputs": [
        {
          "internalType": "uint256",
          "name": "_waveMaxTokens",
          "type": "uint256"
        },
        {
          "internalType": "uint256",
          "name": "_waveMaxTokensToBuy",
          "type": "uint256"
        },
        {
          "internalType": "uint256",
          "name": "_waveSingleTokenPrice",
          "type": "uint256"
        }
      ],
      "name": "setupWave",
      "outputs": [],
      "stateMutability": "nonpayable",
      "type": "function"
    },
    {
      "inputs": [],
      "name": "signAddress",
      "outputs": [
        {
          "internalType": "address",
          "name": "",
          "type": "address"
        }
      ],
      "stateMutability": "view",
      "type": "function"
    },
    {
      "inputs": [
        {
          "internalType": "bytes4",
          "name": "interfaceId",
          "type": "bytes4"
        }
      ],
      "name": "supportsInterface",
      "outputs": [
        {
          "internalType": "bool",
          "name": "",
          "type": "bool"
        }
      ],
      "stateMutability": "view",
      "type": "function"
    },
    {
      "inputs": [],
      "name": "symbol",
      "outputs": [
        {
          "internalType": "string",
          "name": "",
          "type": "string"
        }
      ],
      "stateMutability": "view",
      "type": "function"
    },
    {
      "inputs": [],
      "name": "toggleSale",
      "outputs": [],
      "stateMutability": "nonpayable",
      "type": "function"
    },
    {
      "inputs": [
        {
          "internalType": "uint256",
          "name": "index",
          "type": "uint256"
        }
      ],
      "name": "tokenByIndex",
      "outputs": [
        {
          "internalType": "uint256",
          "name": "",
          "type": "uint256"
        }
      ],
      "stateMutability": "view",
      "type": "function"
    },
    {
      "inputs": [
        {
          "internalType": "address",
          "name": "owner",
          "type": "address"
        },
        {
          "internalType": "uint256",
          "name": "index",
          "type": "uint256"
        }
      ],
      "name": "tokenOfOwnerByIndex",
      "outputs": [
        {
          "internalType": "uint256",
          "name": "",
          "type": "uint256"
        }
      ],
      "stateMutability": "view",
      "type": "function"
    },
    {
      "inputs": [
        {
          "internalType": "uint256",
          "name": "tokenId",
          "type": "uint256"
        }
      ],
      "name": "tokenURI",
      "outputs": [
        {
          "internalType": "string",
          "name": "",
          "type": "string"
        }
      ],
      "stateMutability": "view",
      "type": "function"
    },
    {
      "inputs": [],
      "name": "totalSupply",
      "outputs": [
        {
          "internalType": "uint256",
          "name": "",
          "type": "uint256"
        }
      ],
      "stateMutability": "view",
      "type": "function"
    },
    {
      "inputs": [
        {
          "internalType": "address",
          "name": "from",
          "type": "address"
        },
        {
          "internalType": "address",
          "name": "to",
          "type": "address"
        },
        {
          "internalType": "uint256",
          "name": "tokenId",
          "type": "uint256"
        }
      ],
      "name": "transferFrom",
      "outputs": [],
      "stateMutability": "nonpayable",
      "type": "function"
    },
    {
      "inputs": [
        {
          "internalType": "address",
          "name": "newOwner",
          "type": "address"
        }
      ],
      "name": "transferOwnership",
      "outputs": [],
      "stateMutability": "nonpayable",
      "type": "function"
    },
    {
      "inputs": [
        {
          "internalType": "address",
          "name": "newRegistry",
          "type": "address"
        }
      ],
      "name": "updateOperatorFilterRegistryAddress",
      "outputs": [],
      "stateMutability": "nonpayable",
      "type": "function"
    },
    {
      "inputs": [],
      "name": "waveMaxTokens",
      "outputs": [
        {
          "internalType": "uint256",
          "name": "",
          "type": "uint256"
        }
      ],
      "stateMutability": "view",
      "type": "function"
    },
    {
      "inputs": [],
      "name": "waveMaxTokensToBuy",
      "outputs": [
        {
          "internalType": "uint256",
          "name": "",
          "type": "uint256"
        }
      ],
      "stateMutability": "view",
      "type": "function"
    },
    {
      "inputs": [
        {
          "internalType": "address",
          "name": "",
          "type": "address"
        },
        {
          "internalType": "uint256",
          "name": "",
          "type": "uint256"
        }
      ],
      "name": "waveOwnerToClaimedCounts",
      "outputs": [
        {
          "internalType": "uint256",
          "name": "",
          "type": "uint256"
        }
      ],
      "stateMutability": "view",
      "type": "function"
    },
    {
      "inputs": [],
      "name": "waveSingleTokenPrice",
      "outputs": [
        {
          "internalType": "uint256",
          "name": "",
          "type": "uint256"
        }
      ],
      "stateMutability": "view",
      "type": "function"
    },
    {
      "inputs": [],
      "name": "waveTotalMinted",
      "outputs": [
        {
          "internalType": "uint256",
          "name": "",
          "type": "uint256"
        }
      ],
      "stateMutability": "view",
      "type": "function"
    }
  ],
  "bytecode": {
    "object": "0x60a06040523480156200001157600080fd5b506040516200532f3803806200532f833981016040819052620000349162000193565b6001600160a01b0381163b620000b75760405162461bcd60e51b815260206004820152603360248201527f417661746172436f6c6c656374696f6e3a207061796d656e742061646472657360448201527f73206973206e6f74206120636f6e74726163740000000000000000000000000060648201526084015b60405180910390fd5b6001600160a01b038116608052620000ce620000d5565b50620001c5565b600054610100900460ff16156200013f5760405162461bcd60e51b815260206004820152602760248201527f496e697469616c697a61626c653a20636f6e747261637420697320696e697469604482015266616c697a696e6760c81b6064820152608401620000ae565b60005460ff9081161462000191576000805460ff191660ff9081179091556040519081527f7f26b83ff96e1f2b6a682f133852f6798a09c465da95921460cefb38474024989060200160405180910390a15b565b600060208284031215620001a657600080fd5b81516001600160a01b0381168114620001be57600080fd5b9392505050565b60805161514e620001e1600039600061060a015261514e6000f3fe608060405234801561001057600080fd5b50600436106104335760003560e01c806370edac7611610236578063b88d4fde1161013b578063d5878eaa116100c3578063e30c397811610087578063e30c3978146109aa578063e3e35062146109bb578063e985e9c5146109cf578063f0f4426014610a0c578063f2fde38b14610a1f57600080fd5b8063d5878eaa14610964578063d5abeb011461096e578063d5d1713f14610978578063d853015e1461098b578063df9740da146109a057600080fd5b8063c87b56dd1161010a578063c87b56dd146108fa578063ca0df4a11461090d578063ce1b815f14610937578063d547741f14610949578063d547cfb71461095c57600080fd5b8063b88d4fde146108bb578063b8d1e532146108ce578063c5d3357e146108e1578063c763e5a1146108f457600080fd5b80638deeed42116101be57806397944ba21161018d57806397944ba214610863578063a217fddf14610884578063a22cb4651461088c578063ac3149e31461089f578063b0ccc31e146108b357600080fd5b80638deeed42146107f257806390c5c56d1461081c57806391d148541461084857806395d89b411461085b57600080fd5b806379ba50971161020557806379ba5097146107b45780637a266db0146107bc5780637d8966e4146107cf57806382bc7877146107d75780638da5cb5b146107ea57600080fd5b806370edac761461076f578063715018a614610784578063731133e91461078c57806375b238fc1461079f57600080fd5b80632f745c591161033c57806355f804b3116102c45780636352211e116102935780636352211e146106e9578063671b2a31146106fc578063677ec90f1461070f57806368d4a7781461073057806370a082311461075c57600080fd5b806355f804b314610696578063572b6c05146106a95780635775363c146106cc5780635c975abb146106df57600080fd5b80633e84aa5e1161030b5780633e84aa5e1461064957806342842e0e1461065357806342966c6814610666578063433ad106146106795780634f6ccce71461068357600080fd5b80632f745c59146105f25780633013ce291461060557806334b35ac01461062c57806336568abe1461063657600080fd5b806318160ddd116103bf578063248a9ca31161038e578063248a9ca314610583578063268f1153146105a657806326a49e37146105b9578063283ca77c146105cc5780632f2ff15d146105df57600080fd5b806318160ddd146105415780631992c3f31461054a57806322b56a681461055d57806323b872dd1461057057600080fd5b8063081812fc11610406578063081812fc146104c2578063095ea7b3146104d55780630c3f6acf146104ea57806311db8d1b14610504578063151370451461052e57600080fd5b806301ffc9a714610438578063023ba7c3146104605780630682bdbc1461048157806306fdde03146104ad575b600080fd5b61044b610446366004614443565b610a32565b60405190151581526020015b60405180910390f35b61047361046e366004614485565b610a43565b604051908152602001610457565b6101a254610495906001600160a01b031681565b6040516001600160a01b039091168152602001610457565b6104b5610a75565b6040516104579190614509565b6104956104d036600461451c565b610b07565b6104e86104e3366004614485565b610b2f565b005b6033546104f79060ff1681565b604051610457919061454b565b61049561051236600461451c565b610161602052600090815260409020546001600160a01b031681565b6104e861053c366004614573565b610b48565b61013154610473565b6104e8610558366004614590565b610bd5565b6104e861056b366004614573565b610db3565b6104e861057e3660046145bc565b610dfc565b61047361059136600461451c565b60009081526098602052604090206001015490565b6104e86105b43660046145fd565b610e27565b6104736105c736600461451c565b610f2f565b61044b6105da366004614485565b610f40565b6104e86105ed36600461461e565b610f63565b610473610600366004614485565b610f88565b6104957f000000000000000000000000000000000000000000000000000000000000000081565b61047361019c5481565b6104e861064436600461461e565b61101f565b6104736101995481565b6104e86106613660046145bc565b6110ad565b6104e861067436600461451c565b6110d2565b6104736101985481565b61047361069136600461451c565b611187565b6104e86106a43660046146f1565b61121c565b61044b6106b7366004614573565b610163546001600160a01b0391821691161490565b6104e86106da366004614573565b6112bc565b61047361019d5481565b6104956106f736600461451c565b6112dc565b6104e861070a366004614726565b61133c565b61047361071d36600461451c565b61019b6020526000908152604090205481565b61047361073e366004614485565b61019a60209081526000928352604080842090915290825290205481565b61047361076a366004614573565b6114e7565b6104736000805160206150d983398151915281565b6104e861156e565b6104e861079a36600461477d565b6115dc565b6104736000805160206150f983398151915281565b6104e86119e7565b6104e86107ca366004614573565b611ac6565b6104e8611b0c565b6104e86107e5366004614573565b611b69565b610495611c28565b610473610800366004614573565b6001600160a01b03166000908152610162602052604090205490565b61044b61082a366004614573565b6001600160a01b031660009081526101626020526040902054151590565b61044b61085636600461461e565b611c41565b6104b5611c6c565b61047361087136600461451c565b600090815261019b602052604090205490565b610473600081565b6104e861089a3660046147f9565b611c7b565b6101a054610495906001600160a01b031681565b610495611c8f565b6104e86108c9366004614827565b611ca8565b6104e86108dc366004614573565b611cd5565b6104e86108ef36600461487b565b611d63565b46610473565b6104b561090836600461451c565b611e43565b61049561091b36600461451c565b600090815261016160205260409020546001600160a01b031690565b610163546001600160a01b0316610495565b6104e861095736600461461e565b611ea9565b6104b5611ece565b6104736101965481565b6104736101955481565b6104e8610986366004614573565b611f5d565b6104736000805160206150b983398151915281565b6104736101975481565b60fc546001600160a01b0316610495565b6101a154610495906001600160a01b031681565b61044b6109dd366004614989565b6001600160a01b0391821660009081526101026020908152604080832093909416825291909152205460ff1690565b6104e8610a1a366004614573565b611f7d565b6104e8610a2d366004614573565b61203a565b6000610a3d826120a0565b92915050565b6101626020528160005260406000208181548110610a6057600080fd5b90600052602060002001600091509150505481565b606060fd8054610a84906149b7565b80601f0160208091040260200160405190810160405280929190818152602001828054610ab0906149b7565b8015610afd5780601f10610ad257610100808354040283529160200191610afd565b820191906000526020600020905b815481529060010190602001808311610ae057829003601f168201915b5050505050905090565b6000610b12826120c5565b50600090815261010160205260409020546001600160a01b031690565b81610b3981612124565b610b4383836121f0565b505050565b610b50612312565b6001600160a01b038116610b7f5760405162461bcd60e51b8152600401610b76906149f1565b60405180910390fd5b6101a280546001600160a01b0319166001600160a01b0383169081179091556040519081527f0e58c0652c5df5dddc98a8856c5a814ba7aedf70cc4ef2c72a040d1ff0fe5ebd906020015b60405180910390a150565b610bdd612312565b61019554831115610c4b5760405162461bcd60e51b815260206004820152603260248201527f417661746172436f6c6c656374696f6e3a205f776176654d6178546f6b656e736044820152712065786365656473206d6178537570706c7960701b6064820152608401610b76565b600083118015610c5b5750600082115b610cb75760405162461bcd60e51b815260206004820152602760248201527f417661746172436f6c6c656374696f6e3a20696e76616c696420636f6e6669676044820152663ab930ba34b7b760c91b6064820152608401610b76565b61019d5415610cd85760405162461bcd60e51b8152600401610b7690614a3f565b82821115610d3f5760405162461bcd60e51b815260206004820152602e60248201527f417661746172436f6c6c656374696f6e3a20696e76616c696420737570706c7960448201526d1031b7b73334b3bab930ba34b7b760911b6064820152608401610b76565b610196839055610197829055610198819055600061019981905561019c805491610d6883614a99565b909155505060408051848152602081018490529081018290527fe564a4bf9e4db3797c60fe6b6be0c2b012e6557df177e1b63883bd29d00db8de9060600160405180910390a1505050565b610dbb612312565b6001600160a01b038116610de15760405162461bcd60e51b8152600401610b7690614ab2565b610df96000805160206150d983398151915282610f63565b50565b826001600160a01b0381163314610e1657610e1633612124565b610e21848484612383565b50505050565b60335460ff16816003811115610e3f57610e3f614535565b816003811115610e5157610e51614535565b03610eba5760405162461bcd60e51b815260206004820152603360248201527f436f6c6c656374696f6e53746174654d616e6167656d656e743a20616c726561604482015272647920696e206465736972656420737461746560681b6064820152608401610b76565b6033805483919060ff19166001836003811115610ed957610ed9614535565b0217905550816003811115610ef057610ef0614535565b816003811115610f0257610f02614535565b6040517fe8a97ea87e4388fa22d496b95a8ed5ced6717f49790318de2b928aaf37a021d890600090a35050565b60008161019854610a3d9190614b07565b6000610f4b826123bb565b8015610f5c5750610f5c83836123e2565b9392505050565b600082815260986020526040902060010154610f7e81612465565b610b438383612476565b6000610f93836114e7565b8210610ff55760405162461bcd60e51b815260206004820152602b60248201527f455243373231456e756d657261626c653a206f776e657220696e646578206f7560448201526a74206f6620626f756e647360a81b6064820152608401610b76565b506001600160a01b0391909116600090815261012f60209081526040808320938352929052205490565b6110276124fd565b6001600160a01b0316816001600160a01b03161461109f5760405162461bcd60e51b815260206004820152602f60248201527f416363657373436f6e74726f6c3a2063616e206f6e6c792072656e6f756e636560448201526e103937b632b9903337b91039b2b63360891b6064820152608401610b76565b6110a98282612507565b5050565b826001600160a01b03811633146110c7576110c733612124565b610e2184848461258c565b60006110dc6124fd565b90506110e881836125a7565b6111045760405162461bcd60e51b8152600401610b7690614b26565b61110d82612627565b60008281526101616020908152604080832080546001600160a01b0319166001600160a01b0386169081179091558084526101628352818420805460018101825590855292842090920185905551909184917f33631bcd0a4d34a7e2c240ab0753d5adfb7284d8ac89dab6876ec785c0cfa0e69190a35050565b60006111936101315490565b82106111f65760405162461bcd60e51b815260206004820152602c60248201527f455243373231456e756d657261626c653a20676c6f62616c20696e646578206f60448201526b7574206f6620626f756e647360a01b6064820152608401610b76565b610131828154811061120a5761120a614b73565b90600052602060002001549050919050565b611224612312565b80516000036112455760405162461bcd60e51b8152600401610b7690614b89565b6101a36112528282614c1b565b507ff9c7803e94e0d3c02900d8a90893a6d5e90dd04d32a4cfe825520f82bf9f32f6816040516112829190614509565b60405180910390a160405160001981527ff8e1a15aba9398e019f0b49df1a4fde98ee17ae345cb5f6b5e2c27f5033e8ce790602001610bca565b6112c4612312565b610df96000805160206150d983398151915282611ea9565b600081815260ff60205260408120546001600160a01b031680610a3d5760405162461bcd60e51b8152602060048201526018602482015277115490cdcc8c4e881a5b9d985b1a59081d1bdad95b88125160421b6044820152606401610b76565b6113446124fd565b6001600160a01b0316611356836112dc565b6001600160a01b0316146113ba5760405162461bcd60e51b815260206004820152602560248201527f417661746172436f6c6c656374696f6e3a2073656e646572206973206e6f742060448201526437bbb732b960d91b6064820152608401610b76565b600084815261019e6020526040902054156113e75760405162461bcd60e51b8152600401610b7690614cdb565b6101a2546001600160a01b031661140a6113ff6124fd565b86304687878a6126cc565b6001600160a01b0316146114535760405162461bcd60e51b815260206004820152601060248201526f14da59db985d1d5c994819985a5b195960821b6044820152606401610b76565b600084815261019e602090815260408083206001905584835261019b82529182902083905581518481529081018390527f37c5b85bb9cbe019726db5bf44dfd0053ed3e09554d9f97a9778b5b8dd65f620910160405180910390a16040518281527ff8e1a15aba9398e019f0b49df1a4fde98ee17ae345cb5f6b5e2c27f5033e8ce79060200160405180910390a150505050565b60006001600160a01b0382166115515760405162461bcd60e51b815260206004820152602960248201527f4552433732313a2061646472657373207a65726f206973206e6f7420612076616044820152683634b21037bbb732b960b91b6064820152608401610b76565b506001600160a01b03166000908152610100602052604090205490565b611576612312565b60405162461bcd60e51b815260206004820152603560248201527f417661746172436f6c6c656374696f6e3a2072656e6f756e6365206f776e657260448201527473686970206973206e6f7420617661696c61626c6560581b6064820152608401610b76565b6115e461277f565b600061019c541161164c5760405162461bcd60e51b815260206004820152602c60248201527f417661746172436f6c6c656374696f6e3a20636f6e7472616374206973206e6f60448201526b1d0818dbdb999a59dd5c995960a21b6064820152608401610b76565b6101a0546001600160a01b03166116616124fd565b6001600160a01b0316146116b75760405162461bcd60e51b815260206004820152601d60248201527f417661746172436f6c6c656374696f6e3a206e6f7420616c6c6f7765640000006044820152606401610b76565b61019d54156116d85760405162461bcd60e51b8152600401610b7690614a3f565b6001600160a01b03841661173f5760405162461bcd60e51b815260206004820152602860248201527f417661746172436f6c6c656374696f6e3a2077616c6c6574206973207a65726f604482015267206164647265737360c01b6064820152608401610b76565b6000831161179b5760405162461bcd60e51b8152602060048201526024808201527f417661746172436f6c6c656374696f6e3a20616d6f756e742063616e6e6f74206044820152630626520360e41b6064820152608401610b76565b600082815261019e6020526040902054156117c85760405162461bcd60e51b8152600401610b7690614cdb565b6101a2546001600160a01b03166117e285843046866127d8565b6001600160a01b0316146118435760405162461bcd60e51b815260206004820152602260248201527f417661746172436f6c6c656374696f6e3a207369676e6174757265206661696c604482015261195960f21b6064820152608401610b76565b600082815261019e602052604090206001905561185f836123bb565b6118ab5760405162461bcd60e51b815260206004820181905260248201527f417661746172436f6c6c656374696f6e3a207761766520636f6d706c657465646044820152606401610b76565b6118b584846123e2565b6119015760405162461bcd60e51b815260206004820152601d60248201527f417661746172436f6c6c656374696f6e3a206d617820616c6c6f7765640000006044820152606401610b76565b600061190c84610f2f565b905080156119345761193461191f6124fd565b6101a15487906001600160a01b03168461281a565b6001600160a01b038516600090815261019a6020526040812061019c5486929061196090600190614d25565b8152602001908152602001600020600082825461197d9190614d3c565b925050819055508361019960008282546119979190614d3c565b90915550600090505b848110156119dc5760006119bd876119b86101315490565b612874565b90506119c98782612990565b50806119d481614a99565b9150506119a0565b5050610e2160018055565b60006119f16124fd565b9050806001600160a01b0316611a0f60fc546001600160a01b031690565b6001600160a01b031614611a8b5760405162461bcd60e51b815260206004820152603960248201527f436f6c6c656374696f6e416363657373436f6e74726f6c52756c65733a20636160448201527f6c6c6572206973206e6f7420746865206e6577206f776e6572000000000000006064820152608401610b76565b611aa56000805160206150f9833981519152610957611c28565b611abd6000805160206150f983398151915282610f63565b610df9816129b0565b611ace612312565b6001600160a01b038116611af45760405162461bcd60e51b8152600401610b7690614ab2565b610df96000805160206150b983398151915282610f63565b611b14612312565b61019d5415611b24576000611b27565b60015b60ff1661019d819055604051600190911481527f37ae8f893f8baa4aef207505c0e4d730119d73dc1363bbee6fda5f5d52c3cf179060200160405180910390a1565b611b71612312565b6001600160a01b038116611bd95760405162461bcd60e51b815260206004820152602960248201527f417661746172436f6c6c656374696f6e3a2061646472657373206973207a65726044820152686f206164647265737360b81b6064820152608401610b76565b6101a080546001600160a01b0319166001600160a01b0383169081179091556040519081527f8eb903ef93f1949409fbfad9304ceafc3ab8211c9ddbe9732ce8b1ede00efb3490602001610bca565b6000611c3c60ca546001600160a01b031690565b905090565b60009182526098602090815260408084206001600160a01b0393909316845291905290205460ff1690565b606060fe8054610a84906149b7565b81611c8581612124565b610b4383836129c9565b6000611c996129db565b546001600160a01b0316919050565b836001600160a01b0381163314611cc257611cc233612124565b611cce85858585612a0b565b5050505050565b611cdd611c28565b6001600160a01b0316336001600160a01b031614611d0e57604051635fc483c560e01b815260040160405180910390fd5b80611d176129db565b80546001600160a01b0319166001600160a01b0392831617905560405190821681527f9f513fe86dc42fdbac355fa4d9b1d5be7b5e6cd2df67e30db8003766568de47690602001610bca565b600054610100900460ff1615808015611d835750600054600160ff909116105b80611d9d5750303b158015611d9d575060005460ff166001145b611db95760405162461bcd60e51b8152600401610b7690614d54565b6000805460ff191660011790558015611ddc576000805461ff0019166101001790555b611def8c8c8c8c8c8c8c8c8c8c8c612a44565b8015611e35576000805461ff0019169055604051600181527f7f26b83ff96e1f2b6a682f133852f6798a09c465da95921460cefb38474024989060200160405180910390a15b505050505050505050505050565b6060611e4e826120c5565b6000611e58612d81565b90506000815111611e785760405180602001604052806000815250610f5c565b80611e8284612d91565b604051602001611e93929190614da2565b6040516020818303038152906040529392505050565b600082815260986020526040902060010154611ec481612465565b610b438383612507565b6101a38054611edc906149b7565b80601f0160208091040260200160405190810160405280929190818152602001828054611f08906149b7565b8015611f555780601f10611f2a57610100808354040283529160200191611f55565b820191906000526020600020905b815481529060010190602001808311611f3857829003601f168201915b505050505081565b611f65612312565b610df96000805160206150b983398151915282611ea9565b611f85612312565b6001600160a01b038116611feb5760405162461bcd60e51b815260206004820152602760248201527f417661746172436f6c6c656374696f6e3a206f776e6572206973207a65726f206044820152666164647265737360c81b6064820152608401610b76565b6101a180546001600160a01b0319166001600160a01b0383169081179091556040519081527f3c864541ef71378c6229510ed90f376565ee42d9c5e0904a984a9e863e6db44f90602001610bca565b612042612312565b60fc80546001600160a01b0319166001600160a01b038316908117909155612068611c28565b6001600160a01b03167f38d16b8cac22d99fc7c124b9cd0de2d3fa1faef420bfe791d8c362d765e2270060405160405180910390a350565b60006001600160e01b0319821663780e9d6360e01b1480610a3d5750610a3d82612e24565b600081815260ff60205260409020546001600160a01b0316610df95760405162461bcd60e51b8152602060048201526018602482015277115490cdcc8c4e881a5b9d985b1a59081d1bdad95b88125160421b6044820152606401610b76565b600061212e6129db565b546001600160a01b03169050801580159061215357506000816001600160a01b03163b115b156110a957604051633185c44d60e21b81523060048201526001600160a01b03838116602483015282169063c617113490604401602060405180830381865afa1580156121a4573d6000803e3d6000fd5b505050506040513d601f19601f820116820180604052508101906121c89190614dd1565b6110a957604051633b79c77360e21b81526001600160a01b0383166004820152602401610b76565b60006121fb826112dc565b9050806001600160a01b0316836001600160a01b0316036122685760405162461bcd60e51b815260206004820152602160248201527f4552433732313a20617070726f76616c20746f2063757272656e74206f776e656044820152603960f91b6064820152608401610b76565b806001600160a01b031661227a6124fd565b6001600160a01b031614806122965750612296816109dd6124fd565b6123085760405162461bcd60e51b815260206004820152603d60248201527f4552433732313a20617070726f76652063616c6c6572206973206e6f7420746f60448201527f6b656e206f776e6572206f7220617070726f76656420666f7220616c6c0000006064820152608401610b76565b610b438383612e64565b61231a6124fd565b6001600160a01b031661232b611c28565b6001600160a01b0316146123815760405162461bcd60e51b815260206004820181905260248201527f4f776e61626c653a2063616c6c6572206973206e6f7420746865206f776e65726044820152606401610b76565b565b61239461238e6124fd565b826125a7565b6123b05760405162461bcd60e51b8152600401610b7690614b26565b610b43838383612ed3565b60008082118015610a3d57506101965482610199546123da9190614d3c565b111592915050565b6000610197548261019a6000866001600160a01b03166001600160a01b031681526020019081526020016000206000600161019c546124219190614d25565b81526020019081526020016000205461243a9190614d3c565b11158015610f5c575061019554826124526101315490565b61245c9190614d3c565b11159392505050565b610df9816124716124fd565b613046565b6124808282611c41565b6110a95760008281526098602090815260408083206001600160a01b03851684529091529020805460ff191660011790556124b96124fd565b6001600160a01b0316816001600160a01b0316837f2f8788117e7eff1d82e926ec794901d17c78024a50270940304540a733656f0d60405160405180910390a45050565b6000611c3c61309f565b6125118282611c41565b156110a95760008281526098602090815260408083206001600160a01b03851684529091529020805460ff191690556125486124fd565b6001600160a01b0316816001600160a01b0316837ff6391f5c32d9c69d2a47ea670b442974b53935d1edc7fd64eb21e047a839171b60405160405180910390a45050565b610b4383838360405180602001604052806000815250611ca8565b6000806125b3836112dc565b9050806001600160a01b0316846001600160a01b031614806125fb57506001600160a01b038082166000908152610102602090815260408083209388168352929052205460ff165b8061261f5750836001600160a01b031661261484610b07565b6001600160a01b0316145b949350505050565b6000612632826112dc565b90506126428160008460016130c7565b61264b826112dc565b60008381526101016020908152604080832080546001600160a01b03199081169091556001600160a01b0385168085526101008452828520805460001901905587855260ff909352818420805490911690555192935084927fddf252ad1be2c89b69c2b068fc378daa952ba7f163c4a11628f55a4df523b3ef908390a45050565b604080516001600160a01b03808a16602083015291810188905290861660608201526080810185905260a0810184905260c081018390526000906127739060e0015b60408051601f198184030181529082905280516020918201207f19457468657265756d205369676e6564204d6573736167653a0a33320000000091830191909152603c820152605c016040516020818303038152906040528051906020012083613202565b98975050505050505050565b6002600154036127d15760405162461bcd60e51b815260206004820152601f60248201527f5265656e7472616e637947756172643a207265656e7472616e742063616c6c006044820152606401610b76565b6002600155565b604080516001600160a01b0380881660208301529181018690529084166060820152608081018390526000906128109060a00161270e565b9695505050505050565b604080516001600160a01b0385811660248301528416604482015260648082018490528251808303909101815260849091019091526020810180516001600160e01b03166323b872dd60e01b179052610e21908590613226565b60008082610195546128869190614d25565b6040516bffffffffffffffffffffffff19606087901b1660208201524460348201524260548201526074810182905290915060009082906094016040516020818303038152906040528051906020012060001c6128e39190614dee565b600081815261019f602052604090205490915081901561290f5750600081815261019f60205260409020545b61019f600061291f600186614d25565b81526020019081526020016000205460000361295557612940600184614d25565b600083815261019f6020526040902055612987565b61019f6000612965600186614d25565b8152602080820192909252604090810160009081205485825261019f90935220555b95945050505050565b6110a98282604051806020016040528060008152506132f8565b60018055565b60fc80546001600160a01b0319169055610df98161332b565b6110a96129d46124fd565b838361337d565b6000806001604051806060016040528060368152602001615083603691398051602090910120610a3d9190614d25565b612a1c612a166124fd565b836125a7565b612a385760405162461bcd60e51b8152600401610b7690614b26565b610e218484848461344c565b600054610100900460ff16612a6b5760405162461bcd60e51b8152600401610b7690614e10565b8951600003612a8c5760405162461bcd60e51b8152600401610b7690614b89565b8851600003612add5760405162461bcd60e51b815260206004820152601f60248201527f417661746172436f6c6c656374696f6e3a206e616d6520697320656d707479006044820152606401610b76565b8751600003612b385760405162461bcd60e51b815260206004820152602160248201527f417661746172436f6c6c656374696f6e3a2073796d626f6c20697320656d70746044820152607960f81b6064820152608401610b76565b6001600160a01b038616612b5e5760405162461bcd60e51b8152600401610b76906149f1565b6001600160a01b038516612bd05760405162461bcd60e51b815260206004820152603360248201527f417661746172436f6c6c656374696f6e3a207472757374656420666f72776172604482015272646572206973207a65726f206164647265737360681b6064820152608401610b76565b6001600160a01b038716612c395760405162461bcd60e51b815260206004820152602a60248201527f417661746172436f6c6c656374696f6e3a207472656173757279206973207a65604482015269726f206164647265737360b01b6064820152608401610b76565b60008111612ca45760405162461bcd60e51b815260206004820152603260248201527f417661746172436f6c6c656374696f6e3a206d617820737570706c792073686f6044820152710756c64206265206d6f7265207468616e20360741b6064820152608401610b76565b6101a3612cb18b82614c1b565b50612cba61347f565b612cc38b6134ae565b61016380546001600160a01b0319166001600160a01b038716179055612ce98989613661565b612cf4848484613692565b6101a180546001600160a01b03808a166001600160a01b0319928316179092556101a28054928916929091169190911790556101958190556040517f1a3a62dc20450ece39e01e20bfba98408b580d8576926c8ca06f987f9db300bc90612d6c908c908c908c908c908c9088908c908c908c90614e5b565b60405180910390a15050505050505050505050565b60606101a38054610a84906149b7565b60606000612d9e836137f5565b600101905060008167ffffffffffffffff811115612dbe57612dbe61464e565b6040519080825280601f01601f191660200182016040528015612de8576020820181803683370190505b5090508181016020015b600019016f181899199a1a9b1b9c1cb0b131b232b360811b600a86061a8153600a8504945084612df257509392505050565b60006001600160e01b031982166380ac58cd60e01b1480612e5557506001600160e01b03198216635b5e139f60e01b145b80610a3d5750610a3d826138cd565b60008181526101016020526040902080546001600160a01b0319166001600160a01b0384169081179091558190612e9a826112dc565b6001600160a01b03167f8c5be1e5ebec7d5bd14f71427d1e84f3dd0314c0f7b2291e5b200ac8c7c3b92560405160405180910390a45050565b826001600160a01b0316612ee6826112dc565b6001600160a01b031614612f0c5760405162461bcd60e51b8152600401610b7690614edd565b6001600160a01b038216612f6e5760405162461bcd60e51b8152602060048201526024808201527f4552433732313a207472616e7366657220746f20746865207a65726f206164646044820152637265737360e01b6064820152608401610b76565b612f7b83838360016130c7565b826001600160a01b0316612f8e826112dc565b6001600160a01b031614612fb45760405162461bcd60e51b8152600401610b7690614edd565b60008181526101016020908152604080832080546001600160a01b03199081169091556001600160a01b03878116808652610100855283862080546000190190559087168086528386208054600101905586865260ff90945282852080549092168417909155905184937fddf252ad1be2c89b69c2b068fc378daa952ba7f163c4a11628f55a4df523b3ef91a4505050565b6130508282611c41565b6110a95761305d81613902565b613068836020613914565b604051602001613079929190614f22565b60408051601f198184030181529082905262461bcd60e51b8252610b7691600401614509565b610163546000906001600160a01b031633036130c2575060131936013560601c90565b503390565b6130d384848484613ab0565b60018111156131425760405162461bcd60e51b815260206004820152603560248201527f455243373231456e756d657261626c653a20636f6e7365637574697665207472604482015274185b9cd9995c9cc81b9bdd081cdd5c1c1bdc9d1959605a1b6064820152608401610b76565b816001600160a01b0385166131a05761319b816101318054600083815261013260205260408120829055600182018355919091527fbd987ad6ccdb7c7567f7335ea839f95dc944431abcf935b6924f70215963db730155565b6131c3565b836001600160a01b0316856001600160a01b0316146131c3576131c38582613b3a565b6001600160a01b0384166131df576131da81613bdc565b611cce565b846001600160a01b0316846001600160a01b031614611cce57611cce8482613c91565b60008060006132118585613cd7565b9150915061321e81613d1c565b509392505050565b600061327b826040518060400160405280602081526020017f5361666545524332303a206c6f772d6c6576656c2063616c6c206661696c6564815250856001600160a01b0316613e669092919063ffffffff16565b805190915015610b4357808060200190518101906132999190614dd1565b610b435760405162461bcd60e51b815260206004820152602a60248201527f5361666545524332303a204552433230206f7065726174696f6e20646964206e6044820152691bdd081cdd58d8d9595960b21b6064820152608401610b76565b6133028383613e75565b61330f600084848461400f565b610b435760405162461bcd60e51b8152600401610b7690614f97565b60ca80546001600160a01b038381166001600160a01b0319831681179093556040519116919082907f8be0079c531659141344cd1fd0a4f28419497f9722a3daafe3b4186f6b6457e090600090a35050565b816001600160a01b0316836001600160a01b0316036133de5760405162461bcd60e51b815260206004820152601960248201527f4552433732313a20617070726f766520746f2063616c6c6572000000000000006044820152606401610b76565b6001600160a01b0383811660008181526101026020908152604080832094871680845294825291829020805460ff191686151590811790915591519182527f17307eab39ab6107e8899845ad3d59bd9653f200f220920489ca2b5937696c31910160405180910390a3505050565b613457848484612ed3565b6134638484848461400f565b610e215760405162461bcd60e51b8152600401610b7690614f97565b600054610100900460ff166134a65760405162461bcd60e51b8152600401610b7690614e10565b612381614117565b600054610100900460ff16158080156134ce5750600054600160ff909116105b806134e85750303b1580156134e8575060005460ff166001145b6135045760405162461bcd60e51b8152600401610b7690614d54565b6000805460ff191660011790558015613527576000805461ff0019166101001790555b6001600160a01b0382166135a35760405162461bcd60e51b815260206004820152603b60248201527f436f6c6c656374696f6e416363657373436f6e74726f6c52756c65733a206e6560448201527f77206f776e657220697320746865207a65726f206164647265737300000000006064820152608401610b76565b6135ab61413e565b6135b4826129b0565b6135cc6000805160206150f983398151915283612476565b6135f26000805160206150b98339815191526000805160206150f9833981519152614165565b6136186000805160206150d98339815191526000805160206150f9833981519152614165565b80156110a9576000805461ff0019169055604051600181527f7f26b83ff96e1f2b6a682f133852f6798a09c465da95921460cefb38474024989060200160405180910390a15050565b600054610100900460ff166136885760405162461bcd60e51b8152600401610b7690614e10565b6110a982826141b0565b600054610100900460ff166136b95760405162461bcd60e51b8152600401610b7690614e10565b826136c26129db565b80546001600160a01b0319166001600160a01b03928316179055839081163b15610e2157811561375357604051633e9f1edf60e11b81523060048201526001600160a01b038481166024830152821690637d3e3dbe906044015b600060405180830381600087803b15801561373657600080fd5b505af115801561374a573d6000803e3d6000fd5b50505050610e21565b6001600160a01b038316156137965760405163a0af290360e01b81523060048201526001600160a01b03848116602483015282169063a0af29039060440161371c565b604051632210724360e11b81523060048201526001600160a01b03821690634420e48690602401600060405180830381600087803b1580156137d757600080fd5b505af11580156137eb573d6000803e3d6000fd5b5050505050505050565b60008072184f03e93ff9f4daa797ed6e38ed64bf6a1f0160401b83106138345772184f03e93ff9f4daa797ed6e38ed64bf6a1f0160401b830492506040015b6d04ee2d6d415b85acef81000000008310613860576d04ee2d6d415b85acef8100000000830492506020015b662386f26fc10000831061387e57662386f26fc10000830492506010015b6305f5e1008310613896576305f5e100830492506008015b61271083106138aa57612710830492506004015b606483106138bc576064830492506002015b600a8310610a3d5760010192915050565b60006001600160e01b03198216637965db0b60e01b1480610a3d57506301ffc9a760e01b6001600160e01b0319831614610a3d565b6060610a3d6001600160a01b03831660145b60606000613923836002614b07565b61392e906002614d3c565b67ffffffffffffffff8111156139465761394661464e565b6040519080825280601f01601f191660200182016040528015613970576020820181803683370190505b509050600360fc1b8160008151811061398b5761398b614b73565b60200101906001600160f81b031916908160001a905350600f60fb1b816001815181106139ba576139ba614b73565b60200101906001600160f81b031916908160001a90535060006139de846002614b07565b6139e9906001614d3c565b90505b6001811115613a61576f181899199a1a9b1b9c1cb0b131b232b360811b85600f1660108110613a1d57613a1d614b73565b1a60f81b828281518110613a3357613a33614b73565b60200101906001600160f81b031916908160001a90535060049490941c93613a5a81614fe9565b90506139ec565b508315610f5c5760405162461bcd60e51b815260206004820181905260248201527f537472696e67733a20686578206c656e67746820696e73756666696369656e746044820152606401610b76565b6001811115610e21576001600160a01b03841615613af7576001600160a01b0384166000908152610100602052604081208054839290613af1908490614d25565b90915550505b6001600160a01b03831615610e21576001600160a01b0383166000908152610100602052604081208054839290613b2f908490614d3c565b909155505050505050565b60006001613b47846114e7565b613b519190614d25565b60008381526101306020526040902054909150808214613ba7576001600160a01b038416600090815261012f60209081526040808320858452825280832054848452818420819055835261013090915290208190555b506000918252610130602090815260408084208490556001600160a01b03909416835261012f81528383209183525290812055565b61013154600090613bef90600190614d25565b600083815261013260205260408120546101318054939450909284908110613c1957613c19614b73565b90600052602060002001549050806101318381548110613c3b57613c3b614b73565b60009182526020808320909101929092558281526101329091526040808220849055858252812055610131805480613c7557613c75615000565b6001900381819060005260206000200160009055905550505050565b6000613c9c836114e7565b6001600160a01b03909316600090815261012f6020908152604080832086845282528083208590559382526101309052919091209190915550565b6000808251604103613d0d5760208301516040840151606085015160001a613d01878285856141f0565b94509450505050613d15565b506000905060025b9250929050565b6000816004811115613d3057613d30614535565b03613d385750565b6001816004811115613d4c57613d4c614535565b03613d995760405162461bcd60e51b815260206004820152601860248201527f45434453413a20696e76616c6964207369676e617475726500000000000000006044820152606401610b76565b6002816004811115613dad57613dad614535565b03613dfa5760405162461bcd60e51b815260206004820152601f60248201527f45434453413a20696e76616c6964207369676e6174757265206c656e677468006044820152606401610b76565b6003816004811115613e0e57613e0e614535565b03610df95760405162461bcd60e51b815260206004820152602260248201527f45434453413a20696e76616c6964207369676e6174757265202773272076616c604482015261756560f01b6064820152608401610b76565b606061261f84846000856142b4565b6001600160a01b038216613ecb5760405162461bcd60e51b815260206004820181905260248201527f4552433732313a206d696e7420746f20746865207a65726f20616464726573736044820152606401610b76565b600081815260ff60205260409020546001600160a01b031615613f305760405162461bcd60e51b815260206004820152601c60248201527f4552433732313a20746f6b656e20616c7265616479206d696e746564000000006044820152606401610b76565b613f3e6000838360016130c7565b600081815260ff60205260409020546001600160a01b031615613fa35760405162461bcd60e51b815260206004820152601c60248201527f4552433732313a20746f6b656e20616c7265616479206d696e746564000000006044820152606401610b76565b6001600160a01b0382166000818152610100602090815260408083208054600101905584835260ff90915280822080546001600160a01b0319168417905551839291907fddf252ad1be2c89b69c2b068fc378daa952ba7f163c4a11628f55a4df523b3ef908290a45050565b60006001600160a01b0384163b1561410c57836001600160a01b031663150b7a026140386124fd565b8786866040518563ffffffff1660e01b815260040161405a9493929190615016565b6020604051808303816000875af1925050508015614095575060408051601f3d908101601f1916820190925261409291810190615049565b60015b6140f2573d8080156140c3576040519150601f19603f3d011682016040523d82523d6000602084013e6140c8565b606091505b5080516000036140ea5760405162461bcd60e51b8152600401610b7690614f97565b805181602001fd5b6001600160e01b031916630a85bd0160e11b14905061261f565b506001949350505050565b600054610100900460ff166129aa5760405162461bcd60e51b8152600401610b7690614e10565b600054610100900460ff166123815760405162461bcd60e51b8152600401610b7690614e10565b600082815260986020526040808220600101805490849055905190918391839186917fbd79b86ffe0ab8e8776151514217cd7cacd52c909f66475c3af44e129f0b00ff9190a4505050565b600054610100900460ff166141d75760405162461bcd60e51b8152600401610b7690614e10565b60fd6141e38382614c1b565b5060fe610b438282614c1b565b6000807f7fffffffffffffffffffffffffffffff5d576e7357a4501ddfe92f46681b20a083111561422757506000905060036142ab565b6040805160008082526020820180845289905260ff881692820192909252606081018690526080810185905260019060a0016020604051602081039080840390855afa15801561427b573d6000803e3d6000fd5b5050604051601f1901519150506001600160a01b0381166142a4576000600192509250506142ab565b9150600090505b94509492505050565b6060824710156143155760405162461bcd60e51b815260206004820152602660248201527f416464726573733a20696e73756666696369656e742062616c616e636520666f6044820152651c8818d85b1b60d21b6064820152608401610b76565b600080866001600160a01b031685876040516143319190615066565b60006040518083038185875af1925050503d806000811461436e576040519150601f19603f3d011682016040523d82523d6000602084013e614373565b606091505b50915091506143848783838761438f565b979650505050505050565b606083156143fe5782516000036143f7576001600160a01b0385163b6143f75760405162461bcd60e51b815260206004820152601d60248201527f416464726573733a2063616c6c20746f206e6f6e2d636f6e74726163740000006044820152606401610b76565b508161261f565b61261f83838151156144135781518083602001fd5b8060405162461bcd60e51b8152600401610b769190614509565b6001600160e01b031981168114610df957600080fd5b60006020828403121561445557600080fd5b8135610f5c8161442d565b6001600160a01b0381168114610df957600080fd5b803561448081614460565b919050565b6000806040838503121561449857600080fd5b82356144a381614460565b946020939093013593505050565b60005b838110156144cc5781810151838201526020016144b4565b83811115610e215750506000910152565b600081518084526144f58160208601602086016144b1565b601f01601f19169290920160200192915050565b602081526000610f5c60208301846144dd565b60006020828403121561452e57600080fd5b5035919050565b634e487b7160e01b600052602160045260246000fd5b602081016004831061456d57634e487b7160e01b600052602160045260246000fd5b91905290565b60006020828403121561458557600080fd5b8135610f5c81614460565b6000806000606084860312156145a557600080fd5b505081359360208301359350604090920135919050565b6000806000606084860312156145d157600080fd5b83356145dc81614460565b925060208401356145ec81614460565b929592945050506040919091013590565b60006020828403121561460f57600080fd5b813560048110610f5c57600080fd5b6000806040838503121561463157600080fd5b82359150602083013561464381614460565b809150509250929050565b634e487b7160e01b600052604160045260246000fd5b600082601f83011261467557600080fd5b813567ffffffffffffffff808211156146905761469061464e565b604051601f8301601f19908116603f011681019082821181831017156146b8576146b861464e565b816040528381528660208588010111156146d157600080fd5b836020870160208301376000602085830101528094505050505092915050565b60006020828403121561470357600080fd5b813567ffffffffffffffff81111561471a57600080fd5b61261f84828501614664565b6000806000806080858703121561473c57600080fd5b84359350602085013567ffffffffffffffff81111561475a57600080fd5b61476687828801614664565b949794965050505060408301359260600135919050565b6000806000806080858703121561479357600080fd5b843561479e81614460565b93506020850135925060408501359150606085013567ffffffffffffffff8111156147c857600080fd5b6147d487828801614664565b91505092959194509250565b8015158114610df957600080fd5b8035614480816147e0565b6000806040838503121561480c57600080fd5b823561481781614460565b91506020830135614643816147e0565b6000806000806080858703121561483d57600080fd5b843561484881614460565b9350602085013561485881614460565b925060408501359150606085013567ffffffffffffffff8111156147c857600080fd5b60008060008060008060008060008060006101608c8e03121561489d57600080fd5b6148a68c614475565b9a5067ffffffffffffffff8060208e013511156148c257600080fd5b6148d28e60208f01358f01614664565b9a508060408e013511156148e557600080fd5b6148f58e60408f01358f01614664565b99508060608e0135111561490857600080fd5b506149198d60608e01358e01614664565b975061492760808d01614475565b965061493560a08d01614475565b955061494360c08d01614475565b945061495160e08d01614475565b93506149606101008d01614475565b925061496f6101208d016147ee565b91506101408c013590509295989b509295989b9093969950565b6000806040838503121561499c57600080fd5b82356149a781614460565b9150602083013561464381614460565b600181811c908216806149cb57607f821691505b6020821081036149eb57634e487b7160e01b600052602260045260246000fd5b50919050565b6020808252602e908201527f417661746172436f6c6c656374696f6e3a207369676e2061646472657373206960408201526d73207a65726f206164647265737360901b606082015260800190565b60208082526024908201527f417661746172436f6c6c656374696f6e3a20636f6e74726163742069732070616040820152631d5cd95960e21b606082015260800190565b634e487b7160e01b600052601160045260246000fd5b600060018201614aab57614aab614a83565b5060010190565b60208082526035908201527f436f6c6c656374696f6e416363657373436f6e74726f6c52756c65733a206163604082015274636f756e74206973207a65726f206164647265737360581b606082015260800190565b6000816000190483118215151615614b2157614b21614a83565b500290565b6020808252602d908201527f4552433732313a2063616c6c6572206973206e6f7420746f6b656e206f776e6560408201526c1c881bdc88185c1c1c9bdd9959609a1b606082015260800190565b634e487b7160e01b600052603260045260246000fd5b60208082526024908201527f417661746172436f6c6c656374696f6e3a2062617365555249206973206e6f74604082015263081cd95d60e21b606082015260800190565b601f821115610b4357600081815260208120601f850160051c81016020861015614bf45750805b601f850160051c820191505b81811015614c1357828155600101614c00565b505050505050565b815167ffffffffffffffff811115614c3557614c3561464e565b614c4981614c4384546149b7565b84614bcd565b602080601f831160018114614c7e5760008415614c665750858301515b600019600386901b1c1916600185901b178555614c13565b600085815260208120601f198616915b82811015614cad57888601518255948401946001909101908401614c8e565b5085821015614ccb5787850151600019600388901b60f8161c191681555b5050505050600190811b01905550565b6020808252602a908201527f417661746172436f6c6c656374696f6e3a207369676e6174757265496420616c6040820152691c9958591e481d5cd95960b21b606082015260800190565b600082821015614d3757614d37614a83565b500390565b60008219821115614d4f57614d4f614a83565b500190565b6020808252602e908201527f496e697469616c697a61626c653a20636f6e747261637420697320616c72656160408201526d191e481a5b9a5d1a585b1a5e995960921b606082015260800190565b60008351614db48184602088016144b1565b835190830190614dc88183602088016144b1565b01949350505050565b600060208284031215614de357600080fd5b8151610f5c816147e0565b600082614e0b57634e487b7160e01b600052601260045260246000fd5b500690565b6020808252602b908201527f496e697469616c697a61626c653a20636f6e7472616374206973206e6f74206960408201526a6e697469616c697a696e6760a81b606082015260800190565b6000610120808352614e6f8184018d6144dd565b90508281036020840152614e83818c6144dd565b90508281036040840152614e97818b6144dd565b6001600160a01b03998a1660608501529789166080840152505060a081019490945291851660c084015290931660e0820152911515610100909201919091529392505050565b60208082526025908201527f4552433732313a207472616e736665722066726f6d20696e636f72726563742060408201526437bbb732b960d91b606082015260800190565b7f416363657373436f6e74726f6c3a206163636f756e7420000000000000000000815260008351614f5a8160178501602088016144b1565b7001034b99036b4b9b9b4b733903937b6329607d1b6017918401918201528351614f8b8160288401602088016144b1565b01602801949350505050565b60208082526032908201527f4552433732313a207472616e7366657220746f206e6f6e20455243373231526560408201527131b2b4bb32b91034b6b83632b6b2b73a32b960711b606082015260800190565b600081614ff857614ff8614a83565b506000190190565b634e487b7160e01b600052603160045260246000fd5b6001600160a01b0385811682528416602082015260408101839052608060608201819052600090612810908301846144dd565b60006020828403121561505b57600080fd5b8151610f5c8161442d565b600082516150788184602087016144b1565b919091019291505056fe557064617461626c654f70657261746f7246696c74657265725570677261646561626c652e636f6e7472616374732e73746f726167653b49a237fe2d18fa4d9642b8a0e065923cceb71b797783b619a030a61d848bf069fc995a7cdbc94c95dc768dfaa8ceead6003727063f7d665556608319262298a49807205ce4d355092ef5a8a18f56e8913cf4a201fbe287825b095693c21775a264697066735822122030a12320b036dd522bfee19b0a4e0a3d92e1c9fe97e0cde34bebe4c6bdf0eba064736f6c634300080f0033",
    "linkReferences": {}
  },
  "methodIdentifiers": {
    "ADMIN_ROLE()": "75b238fc",
    "CONFIGURATOR_ROLE()": "d853015e",
    "DEFAULT_ADMIN_ROLE()": "a217fddf",
    "TRANSFORMER_ROLE()": "70edac76",
    "acceptOwnership()": "79ba5097",
    "addConfigurator(address)": "7a266db0",
    "addTransformer(address)": "22b56a68",
    "allowedToExecuteMint()": "ac3149e3",
    "approve(address,uint256)": "095ea7b3",
    "balanceOf(address)": "70a08231",
    "baseTokenURI()": "d547cfb7",
    "burn(uint256)": "42966c68",
    "burnedTokens(address,uint256)": "023ba7c3",
    "burnedTokensCount(address)": "8deeed42",
    "burner(uint256)": "11db8d1b",
    "burnerOf(uint256)": "ca0df4a1",
    "chain()": "c763e5a1",
    "changeState(uint8)": "268f1153",
    "checkMintAllowed(address,uint256)": "283ca77c",
    "currentState()": "0c3f6acf",
    "didBurnTokens(address)": "90c5c56d",
    "getApproved(uint256)": "081812fc",
    "getRoleAdmin(bytes32)": "248a9ca3",
    "getTrustedForwarder()": "ce1b815f",
    "grantRole(bytes32,address)": "2f2ff15d",
    "hasRole(bytes32,address)": "91d14854",
    "indexWave()": "34b35ac0",
    "initialize(address,string,string,string,address,address,address,address,address,bool,uint256)": "c5d3357e",
    "isApprovedForAll(address,address)": "e985e9c5",
    "isTrustedForwarder(address)": "572b6c05",
    "maxSupply()": "d5abeb01",
    "mint(address,uint256,uint256,bytes)": "731133e9",
    "mintTreasury()": "e3e35062",
    "name()": "06fdde03",
    "operatorFilterRegistry()": "b0ccc31e",
    "owner()": "8da5cb5b",
    "ownerOf(uint256)": "6352211e",
    "paused()": "5c975abb",
    "paymentToken()": "3013ce29",
    "pendingOwner()": "e30c3978",
    "personalizationOf(uint256)": "97944ba2",
    "personalizationTraits(uint256)": "677ec90f",
    "personalize(uint256,bytes,uint256,uint256)": "671b2a31",
    "price(uint256)": "26a49e37",
    "renounceOwnership()": "715018a6",
    "renounceRole(bytes32,address)": "36568abe",
    "revokeConfiguratorRole(address)": "d5d1713f",
    "revokeRole(bytes32,address)": "d547741f",
    "revokeTransformerRole(address)": "5775363c",
    "safeTransferFrom(address,address,uint256)": "42842e0e",
    "safeTransferFrom(address,address,uint256,bytes)": "b88d4fde",
    "setAllowedExecuteMint(address)": "82bc7877",
    "setApprovalForAll(address,bool)": "a22cb465",
    "setBaseURI(string)": "55f804b3",
    "setSignAddress(address)": "15137045",
    "setTreasury(address)": "f0f44260",
    "setupWave(uint256,uint256,uint256)": "1992c3f3",
    "signAddress()": "0682bdbc",
    "supportsInterface(bytes4)": "01ffc9a7",
    "symbol()": "95d89b41",
    "toggleSale()": "7d8966e4",
    "tokenByIndex(uint256)": "4f6ccce7",
    "tokenOfOwnerByIndex(address,uint256)": "2f745c59",
    "tokenURI(uint256)": "c87b56dd",
    "totalSupply()": "18160ddd",
    "transferFrom(address,address,uint256)": "23b872dd",
    "transferOwnership(address)": "f2fde38b",
    "updateOperatorFilterRegistryAddress(address)": "b8d1e532",
    "waveMaxTokens()": "d5878eaa",
    "waveMaxTokensToBuy()": "df9740da",
    "waveOwnerToClaimedCounts(address,uint256)": "68d4a778",
    "waveSingleTokenPrice()": "433ad106",
    "waveTotalMinted()": "3e84aa5e"
  },
  "id": 28
}