{
  "abi": [
    {
      "anonymous": false,
      "inputs": [
        {
          "indexed": true,
          "internalType": "bytes32",
          "name": "beaconAlias",
          "type": "bytes32"
        },
        {
          "indexed": true,
          "internalType": "address",
          "name": "beaconAddress",
          "type": "address"
        }
      ],
      "name": "BeaconAdded",
      "type": "event"
    },
    {
      "anonymous": false,
      "inputs": [
        {
          "indexed": true,
          "internalType": "address",
          "name": "oldOwner",
          "type": "address"
        },
        {
          "indexed": true,
          "internalType": "address",
          "name": "newOwner",
          "type": "address"
        }
      ],
      "name": "BeaconOwnershipChanged",
      "type": "event"
    },
    {
      "anonymous": false,
      "inputs": [
        {
          "indexed": true,
          "internalType": "bytes32",
          "name": "beaconAlias",
          "type": "bytes32"
        },
        {
          "indexed": true,
          "internalType": "address",
          "name": "beaconAddress",
          "type": "address"
        },
        {
          "indexed": true,
          "internalType": "address",
          "name": "newBeaconOwner",
          "type": "address"
        }
      ],
      "name": "BeaconRemoved",
      "type": "event"
    },
    {
      "anonymous": false,
      "inputs": [
        {
          "indexed": true,
          "internalType": "address",
          "name": "oldImplementation",
          "type": "address"
        },
        {
          "indexed": true,
          "internalType": "address",
          "name": "newImplementation",
          "type": "address"
        },
        {
          "indexed": true,
          "internalType": "bytes32",
          "name": "beaconAlias",
          "type": "bytes32"
        },
        {
          "indexed": false,
          "internalType": "address",
          "name": "beaconAddress",
          "type": "address"
        }
      ],
      "name": "BeaconUpdated",
      "type": "event"
    },
    {
      "anonymous": false,
      "inputs": [
        {
          "indexed": true,
          "internalType": "address",
          "name": "beaconAddress",
          "type": "address"
        },
        {
          "indexed": true,
          "internalType": "address",
          "name": "collectionProxy",
          "type": "address"
        }
      ],
      "name": "CollectionAdded",
      "type": "event"
    },
    {
      "anonymous": false,
      "inputs": [
        {
          "indexed": true,
          "internalType": "address",
          "name": "oldAdmin",
          "type": "address"
        },
        {
          "indexed": true,
          "internalType": "address",
          "name": "newAdmin",
          "type": "address"
        }
      ],
      "name": "CollectionProxyAdminChanged",
      "type": "event"
    },
    {
      "anonymous": false,
      "inputs": [
        {
          "indexed": true,
          "internalType": "address",
          "name": "beaconAddress",
          "type": "address"
        },
        {
          "indexed": true,
          "internalType": "address",
          "name": "collectionProxy",
          "type": "address"
        }
      ],
      "name": "CollectionRemoved",
      "type": "event"
    },
    {
      "anonymous": false,
      "inputs": [
        {
          "indexed": true,
          "internalType": "address",
          "name": "proxyAddress",
          "type": "address"
        },
        {
          "indexed": true,
          "internalType": "bytes32",
          "name": "beaconAlias",
          "type": "bytes32"
        },
        {
          "indexed": true,
          "internalType": "address",
          "name": "beaconAddress",
          "type": "address"
        }
      ],
      "name": "CollectionUpdated",
      "type": "event"
    },
    {
      "anonymous": false,
      "inputs": [
        {
          "indexed": true,
          "internalType": "address",
          "name": "previousOwner",
          "type": "address"
        },
        {
          "indexed": true,
          "internalType": "address",
          "name": "newOwner",
          "type": "address"
        }
      ],
      "name": "OwnershipTransferStarted",
      "type": "event"
    },
    {
      "anonymous": false,
      "inputs": [
        {
          "indexed": true,
          "internalType": "address",
          "name": "previousOwner",
          "type": "address"
        },
        {
          "indexed": true,
          "internalType": "address",
          "name": "newOwner",
          "type": "address"
        }
      ],
      "name": "OwnershipTransferred",
      "type": "event"
    },
    {
      "inputs": [],
      "name": "acceptOwnership",
      "outputs": [],
      "stateMutability": "nonpayable",
      "type": "function"
    },
    {
      "inputs": [
        {
          "internalType": "address",
          "name": "beacon",
          "type": "address"
        },
        {
          "internalType": "bytes32",
          "name": "beaconAlias",
          "type": "bytes32"
        }
      ],
      "name": "addBeacon",
      "outputs": [],
      "stateMutability": "nonpayable",
      "type": "function"
    },
    {
      "inputs": [
        {
          "internalType": "address[]",
          "name": "_collections",
          "type": "address[]"
        }
      ],
      "name": "addCollections",
      "outputs": [],
      "stateMutability": "nonpayable",
      "type": "function"
    },
    {
      "inputs": [
        {
          "internalType": "bytes32",
          "name": "",
          "type": "bytes32"
        }
      ],
      "name": "aliasToBeacon",
      "outputs": [
        {
          "internalType": "address",
          "name": "",
          "type": "address"
        }
      ],
      "stateMutability": "view",
      "type": "function"
    },
    {
      "inputs": [],
      "name": "beaconCount",
      "outputs": [
        {
          "internalType": "uint256",
          "name": "",
          "type": "uint256"
        }
      ],
      "stateMutability": "view",
      "type": "function"
    },
    {
      "inputs": [
        {
          "internalType": "address",
          "name": "collection",
          "type": "address"
        }
      ],
      "name": "beaconOf",
      "outputs": [
        {
          "internalType": "address",
          "name": "",
          "type": "address"
        }
      ],
      "stateMutability": "view",
      "type": "function"
    },
    {
      "inputs": [],
      "name": "collectionCount",
      "outputs": [
        {
          "internalType": "uint256",
          "name": "",
          "type": "uint256"
        }
      ],
      "stateMutability": "view",
      "type": "function"
    },
    {
      "inputs": [
        {
          "internalType": "address",
          "name": "implementation",
          "type": "address"
        },
        {
          "internalType": "bytes32",
          "name": "beaconAlias",
          "type": "bytes32"
        }
      ],
      "name": "deployBeacon",
      "outputs": [
        {
          "internalType": "address",
          "name": "beacon",
          "type": "address"
        }
      ],
      "stateMutability": "nonpayable",
      "type": "function"
    },
    {
      "inputs": [
        {
          "internalType": "bytes32",
          "name": "beaconAlias",
          "type": "bytes32"
        },
        {
          "internalType": "bytes",
          "name": "initializationArgs",
          "type": "bytes"
        }
      ],
      "name": "deployCollection",
      "outputs": [
        {
          "internalType": "address",
          "name": "collection",
          "type": "address"
        }
      ],
      "stateMutability": "nonpayable",
      "type": "function"
    },
    {
      "inputs": [
        {
          "internalType": "uint256",
          "name": "index",
          "type": "uint256"
        }
      ],
      "name": "getBeaconAlias",
      "outputs": [
        {
          "internalType": "bytes32",
          "name": "",
          "type": "bytes32"
        }
      ],
      "stateMutability": "view",
      "type": "function"
    },
    {
      "inputs": [],
      "name": "getBeaconAliases",
      "outputs": [
        {
          "internalType": "bytes32[]",
          "name": "",
          "type": "bytes32[]"
        }
      ],
      "stateMutability": "view",
      "type": "function"
    },
    {
      "inputs": [],
      "name": "getBeacons",
      "outputs": [
        {
          "internalType": "address[]",
          "name": "",
          "type": "address[]"
        }
      ],
      "stateMutability": "view",
      "type": "function"
    },
    {
      "inputs": [
        {
          "internalType": "uint256",
          "name": "index",
          "type": "uint256"
        }
      ],
      "name": "getCollection",
      "outputs": [
        {
          "internalType": "address",
          "name": "",
          "type": "address"
        }
      ],
      "stateMutability": "view",
      "type": "function"
    },
    {
      "inputs": [],
      "name": "getCollections",
      "outputs": [
        {
          "internalType": "address[]",
          "name": "",
          "type": "address[]"
        }
      ],
      "stateMutability": "view",
      "type": "function"
    },
    {
      "inputs": [],
      "name": "owner",
      "outputs": [
        {
          "internalType": "address",
          "name": "",
          "type": "address"
        }
      ],
      "stateMutability": "view",
      "type": "function"
    },
    {
      "inputs": [],
      "name": "pendingOwner",
      "outputs": [
        {
          "internalType": "address",
          "name": "",
          "type": "address"
        }
      ],
      "stateMutability": "view",
      "type": "function"
    },
    {
      "inputs": [],
      "name": "renounceOwnership",
      "outputs": [],
      "stateMutability": "nonpayable",
      "type": "function"
    },
    {
      "inputs": [
        {
          "internalType": "bytes32",
          "name": "beaconAlias",
          "type": "bytes32"
        },
        {
          "internalType": "address",
          "name": "newBeaconOwner",
          "type": "address"
        }
      ],
      "name": "transferBeacon",
      "outputs": [],
      "stateMutability": "nonpayable",
      "type": "function"
    },
    {
      "inputs": [
        {
          "internalType": "address[]",
          "name": "_collections",
          "type": "address[]"
        },
        {
          "internalType": "address",
          "name": "newCollectionOwner",
          "type": "address"
        }
      ],
      "name": "transferCollections",
      "outputs": [],
      "stateMutability": "nonpayable",
      "type": "function"
    },
    {
      "inputs": [
        {
          "internalType": "address",
          "name": "newOwner",
          "type": "address"
        }
      ],
      "name": "transferOwnership",
      "outputs": [],
      "stateMutability": "nonpayable",
      "type": "function"
    },
    {
      "inputs": [
        {
          "internalType": "bytes32",
          "name": "beaconAlias",
          "type": "bytes32"
        },
        {
          "internalType": "address",
          "name": "implementation",
          "type": "address"
        }
      ],
      "name": "updateBeaconImplementation",
      "outputs": [],
      "stateMutability": "nonpayable",
      "type": "function"
    },
    {
      "inputs": [
        {
          "internalType": "address",
          "name": "collection",
          "type": "address"
        },
        {
          "internalType": "bytes32",
          "name": "beaconAlias",
          "type": "bytes32"
        },
        {
          "internalType": "bytes",
          "name": "updateArgs",
          "type": "bytes"
        }
      ],
      "name": "updateCollection",
      "outputs": [],
      "stateMutability": "nonpayable",
      "type": "function"
    }
  ],
  "bytecode": {
    "object": "0x60806040523480156200001157600080fd5b506200001d3362000023565b6200009d565b600180546001600160a01b03191690556200004a816200004d602090811b6200151d17901c565b50565b600080546001600160a01b038381166001600160a01b0319831681178455604051919092169283917f8be0079c531659141344cd1fd0a4f28419497f9722a3daafe3b4186f6b6457e09190a35050565b6136db80620000ad6000396000f3fe60806040523480156200001157600080fd5b50600436106200015c5760003560e01c80637201fa8011620000c7578063b53cfa4f1162000086578063b53cfa4f14620002e4578063c349384c14620002fb578063d57f966b1462000312578063e30c3978146200031c578063efad289f146200032e578063f2fde38b146200034557600080fd5b80637201fa80146200029d578063790450f614620002a757806379ba509714620002b15780638da5cb5b14620002bb578063a476962c14620002cd57600080fd5b806346e63586116200012057806346e6358614620001f057806349919e62146200020957806350f55d6114620002205780635a1f3c28146200025057806366d378991462000267578063715018a6146200029357600080fd5b80621d209f146200016157806313f7e143146200017a578063208915a01462000191578063291bdd8c14620001b357806334853c8e14620001ca575b600080fd5b62000178620001723660046200198d565b6200035c565b005b620001786200018b36600462001a1a565b620005b3565b6200019b620006c0565b604051620001aa919062001a49565b60405180910390f35b62000178620001c436600462001a8f565b620006d3565b620001e1620001db36600462001ac2565b620008d0565b604051908152602001620001aa565b620001fa620008e5565b604051620001aa919062001adc565b620001786200021a36600462001b69565b620008f3565b620002376200023136600462001c28565b62000cce565b6040516001600160a01b039091168152602001620001aa565b620002376200026136600462001ac2565b62000ddf565b620002376200027836600462001ac2565b6004602052600090815260409020546001600160a01b031681565b6200017862000dee565b620001e160055481565b620001fa62000e60565b6200017862000f34565b6000546001600160a01b031662000237565b62000178620002de36600462001a8f565b62000fb2565b62000237620002f536600462001a1a565b6200111f565b620001786200030c36600462001ca9565b620011d2565b620001e160085481565b6001546001600160a01b031662000237565b620002376200033f36600462001d65565b6200140e565b620001786200035636600462001d65565b620014a9565b620003666200156d565b6001600160a01b038116620003985760405162461bcd60e51b81526004016200038f9062001d85565b60405180910390fd5b6008805460009184918291908490620003b390849062001deb565b90915550600090505b81811015620005ab576000868683818110620003dc57620003dc62001e05565b9050602002016020810190620003f3919062001d65565b905062000402600682620015cb565b9350836200046a5760405162461bcd60e51b815260206004820152602e60248201527f436f6c6c656374696f6e466163746f72793a206661696c656420746f2072656d60448201526d37bb329031b7b63632b1ba34b7b760911b60648201526084016200038f565b806001600160a01b0316816001600160a01b03166359659e906040518163ffffffff1660e01b8152600401602060405180830381865afa158015620004b3573d6000803e3d6000fd5b505050506040513d601f19601f82011682018060405250810190620004d9919062001e1b565b6001600160a01b03167fc0c5a43813fb6a7ab47689d060d1ace5e2e35c113a13dcfb6aab657d527897b160405160405180910390a36040516355ecd1bb60e11b81526001600160a01b03868116600483015282169063abd9a37690602401600060405180830381600087803b1580156200055257600080fd5b505af115801562000567573d6000803e3d6000fd5b50506040516001600160a01b03881692503091507f1184695a70f42291154093a0912a419889d39aa9e21bd01f425e81bd2c78f75790600090a350600101620003bc565b505050505050565b620005bd6200156d565b6000819003620005e15760405162461bcd60e51b81526004016200038f9062001e3b565b6000818152600460205260409020546001600160a01b031615620006195760405162461bcd60e51b81526004016200038f9062001e8a565b6001600160a01b0382163b620006865760405162461bcd60e51b815260206004820152602b60248201527f436f6c6c656374696f6e466163746f72793a20626561636f6e206973206e6f7460448201526a08184818dbdb9d1c9858dd60aa1b60648201526084016200038f565b6200069182620015e2565b620006b05760405162461bcd60e51b81526004016200038f9062001ed6565b620006bc828262001663565b5050565b6060620006ce6002620016ec565b905090565b620006dd6200156d565b60008281526004602052604090205482906001600160a01b0316620007165760405162461bcd60e51b81526004016200038f9062001f2b565b6001600160a01b0382166200073f5760405162461bcd60e51b81526004016200038f9062001d85565b600083815260046020526040812080546001600160a01b03198116909155600580546001600160a01b03909216926001926200077d90849062001deb565b909155506000905062000792600286620016fb565b905080620007f55760405162461bcd60e51b815260206004820152602960248201527f436f6c6c656374696f6e466163746f72793a206661696c656420746f2072656d6044820152686f766520616c69617360b81b60648201526084016200038f565b60405163f2fde38b60e01b81526001600160a01b03858116600483015283169063f2fde38b90602401600060405180830381600087803b1580156200083957600080fd5b505af11580156200084e573d6000803e3d6000fd5b50506040516001600160a01b03871692503091507f8d41a7e662b3e1f1b13cf1addf1c530e188422c06024f313bc06f612e2aebcdc90600090a3836001600160a01b0316826001600160a01b0316867f8ec6845bd2dfe1f8b65fddb3a645614fc7efbc66818e0e4268bbcdac951594cd60405160405180910390a45050505050565b6000620008df60028362001709565b92915050565b6060620006ce6006620016ec565b620008fd6200156d565b8051600003620009615760405162461bcd60e51b815260206004820152602860248201527f436f6c6c656374696f6e466163746f72793a20656d70747920636f6c6c6563746044820152671a5bdb881b1a5cdd60c21b60648201526084016200038f565b60008151905080600860008282546200097b919062001f73565b909155506000905080805b8381101562000cc7576000858281518110620009a657620009a662001e05565b6020026020010151905060006001600160a01b0316816001600160a01b03160362000a2a5760405162461bcd60e51b815260206004820152602d60248201527f436f6c6c656374696f6e466163746f72793a20636f6c6c656374696f6e20697360448201526c207a65726f206164647265737360981b60648201526084016200038f565b6000819050306001600160a01b0316816001600160a01b0316633e47158c6040518163ffffffff1660e01b8152600401602060405180830381865afa15801562000a78573d6000803e3d6000fd5b505050506040513d601f19601f8201168201806040525081019062000a9e919062001e1b565b6001600160a01b03161462000b155760405162461bcd60e51b815260206004820152603660248201527f436f6c6c656374696f6e466163746f72793a206f776e6572206f6620636f6c6c604482015275656374696f6e206d75737420626520666163746f727960501b60648201526084016200038f565b62000b2260068262001717565b94508462000b875760405162461bcd60e51b815260206004820152602b60248201527f436f6c6c656374696f6e466163746f72793a206661696c656420746f2061646460448201526a1031b7b63632b1ba34b7b760a91b60648201526084016200038f565b806001600160a01b03166359659e906040518163ffffffff1660e01b8152600401602060405180830381865afa15801562000bc6573d6000803e3d6000fd5b505050506040513d601f19601f8201168201806040525081019062000bec919062001e1b565b935062000bf984620015e2565b62000c185760405162461bcd60e51b81526004016200038f9062001ed6565b806001600160a01b0316816001600160a01b03166359659e906040518163ffffffff1660e01b8152600401602060405180830381865afa15801562000c61573d6000803e3d6000fd5b505050506040513d601f19601f8201168201806040525081019062000c87919062001e1b565b6001600160a01b03167fde026c5319b7c35f108a6ccfc922edc8008522079b610aee3c676bb7b7b7fb3560405160405180910390a3505060010162000986565b5050505050565b600062000cda6200156d565b60008481526004602052604090205484906001600160a01b031662000d135760405162461bcd60e51b81526004016200038f9062001f2b565b6000858152600460205260408082205490516001600160a01b03909116919082908790879062000d43906200195b565b62000d519392919062001f8e565b604051809103906000f08015801562000d6e573d6000803e3d6000fd5b50935083905062000d8160068262001717565b5060016008600082825462000d97919062001f73565b90915550506040516001600160a01b0380861691908416907fde026c5319b7c35f108a6ccfc922edc8008522079b610aee3c676bb7b7b7fb3590600090a35050509392505050565b6000620008df60068362001709565b62000df86200156d565b60405162461bcd60e51b815260206004820152603660248201527f436f6c6c656374696f6e466163746f72793a2072656e6f756e6365206f776e656044820152757273686970206973206e6f7420617661696c61626c6560501b60648201526084016200038f565b60055460609060008167ffffffffffffffff81111562000e845762000e8462001b1f565b60405190808252806020026020018201604052801562000eae578160200160208202803683370190505b50905060005b8281101562000f2d57600062000ecc60028362001709565b60008181526004602052604090205484519192506001600160a01b03169084908490811062000eff5762000eff62001e05565b6001600160a01b0390921660209283029190910190910152508062000f248162001fce565b91505062000eb4565b5092915050565b60015433906001600160a01b0316811462000fa45760405162461bcd60e51b815260206004820152602960248201527f4f776e61626c6532537465703a2063616c6c6572206973206e6f7420746865206044820152683732bb9037bbb732b960b91b60648201526084016200038f565b62000faf816200172e565b50565b62000fbc6200156d565b60008281526004602052604090205482906001600160a01b031662000ff55760405162461bcd60e51b81526004016200038f9062001f2b565b6000838152600460208181526040808420548151635c60da1b60e01b815291516001600160a01b0390911694938593635c60da1b93808301939192908290030181865afa1580156200104b573d6000803e3d6000fd5b505050506040513d601f19601f8201168201806040525081019062001071919062001e1b565b604051631b2ce7f360e11b81526001600160a01b03868116600483015291925090831690633659cfe690602401600060405180830381600087803b158015620010b957600080fd5b505af1158015620010ce573d6000803e3d6000fd5b50506040516001600160a01b03858116825288935080881692508416907f7f962d5b1ad4b08cc9dd2bbbf284a9d5d542b350014ccdbc969e376051b9d1d49060200160405180910390a45050505050565b60006200112b6200156d565b60008290036200114f5760405162461bcd60e51b81526004016200038f9062001e3b565b6000828152600460205260409020546001600160a01b031615620011875760405162461bcd60e51b81526004016200038f9062001e8a565b82604051620011969062001969565b6001600160a01b039091168152602001604051809103906000f080158015620011c3573d6000803e3d6000fd5b509050620008df818362001663565b60008281526004602052604090205482906001600160a01b03166200120b5760405162461bcd60e51b81526004016200038f9062001f2b565b836200121960068262001749565b620012385760405162461bcd60e51b81526004016200038f9062001fea565b84336001600160a01b0316816001600160a01b0316638da5cb5b6040518163ffffffff1660e01b8152600401602060405180830381865afa15801562001282573d6000803e3d6000fd5b505050506040513d601f19601f82011682018060405250810190620012a8919062001e1b565b6001600160a01b03161480620012d8575033620012cd6000546001600160a01b031690565b6001600160a01b0316145b6200134c5760405162461bcd60e51b815260206004820152603c60248201527f436f6c6c656374696f6e466163746f72793a2063616c6c6572206973206e6f7460448201527f20636f6c6c656374696f6e206f7220666163746f7279206f776e65720000000060648201526084016200038f565b600085815260046020819052604091829020549151631f156e3360e31b81526001600160a01b039283169289169163f8ab719891620013909185918a910162002036565b600060405180830381600087803b158015620013ab57600080fd5b505af1158015620013c0573d6000803e3d6000fd5b50505050806001600160a01b031686886001600160a01b03167f42cadebd6bb87ad30febb6d38cbf726449469f738ce81ee5c4f642a1379aa34f60405160405180910390a450505050505050565b6000816200141e60068262001749565b6200143d5760405162461bcd60e51b81526004016200038f9062001fea565b826001600160a01b03166359659e906040518163ffffffff1660e01b8152600401602060405180830381865afa1580156200147c573d6000803e3d6000fd5b505050506040513d601f19601f82011682018060405250810190620014a2919062001e1b565b9392505050565b620014b36200156d565b600180546001600160a01b0383166001600160a01b03199091168117909155620014e56000546001600160a01b031690565b6001600160a01b03167f38d16b8cac22d99fc7c124b9cd0de2d3fa1faef420bfe791d8c362d765e2270060405160405180910390a350565b600080546001600160a01b038381166001600160a01b0319831681178455604051919092169283917f8be0079c531659141344cd1fd0a4f28419497f9722a3daafe3b4186f6b6457e09190a35050565b6000546001600160a01b03163314620015c95760405162461bcd60e51b815260206004820181905260248201527f4f776e61626c653a2063616c6c6572206973206e6f7420746865206f776e657260448201526064016200038f565b565b6000620014a2836001600160a01b0384166200176c565b6000306001600160a01b0316826001600160a01b0316638da5cb5b6040518163ffffffff1660e01b8152600401602060405180830381865afa1580156200162d573d6000803e3d6000fd5b505050506040513d601f19601f8201168201806040525081019062001653919062001e1b565b6001600160a01b03161492915050565b6200167060028262001870565b50600081815260046020526040812080546001600160a01b0319166001600160a01b0385161790556005805460019290620016ad90849062001f73565b90915550506040516001600160a01b0383169082907fd990f2c9640f5d556c783bd3420387611b92f61a9ddc92c8f2eae5b35d67b80b90600090a35050565b60606000620014a2836200187e565b6000620014a283836200176c565b6000620014a28383620018dc565b6000620014a2836001600160a01b03841662001909565b600180546001600160a01b031916905562000faf816200151d565b6001600160a01b03811660009081526001830160205260408120541515620014a2565b60008181526001830160205260408120548015620018655760006200179360018362001deb565b8554909150600090620017a99060019062001deb565b905081811462001815576000866000018281548110620017cd57620017cd62001e05565b9060005260206000200154905080876000018481548110620017f357620017f362001e05565b6000918252602080832090910192909255918252600188019052604090208390555b85548690806200182957620018296200209e565b600190038181906000526020600020016000905590558560010160008681526020019081526020016000206000905560019350505050620008df565b6000915050620008df565b6000620014a2838362001909565b606081600001805480602002602001604051908101604052809291908181526020018280548015620018d057602002820191906000526020600020905b815481526020019060010190808311620018bb575b50505050509050919050565b6000826000018281548110620018f657620018f662001e05565b9060005260206000200154905092915050565b60008181526001830160205260408120546200195257508154600181810184556000848152602080822090930184905584548482528286019093526040902091909155620008df565b506000620008df565b61110d80620020b583390190565b6104e480620031c283390190565b6001600160a01b038116811462000faf57600080fd5b600080600060408486031215620019a357600080fd5b833567ffffffffffffffff80821115620019bc57600080fd5b818601915086601f830112620019d157600080fd5b813581811115620019e157600080fd5b8760208260051b8501011115620019f757600080fd5b6020928301955093505084013562001a0f8162001977565b809150509250925092565b6000806040838503121562001a2e57600080fd5b823562001a3b8162001977565b946020939093013593505050565b6020808252825182820181905260009190848201906040850190845b8181101562001a835783518352928401929184019160010162001a65565b50909695505050505050565b6000806040838503121562001aa357600080fd5b82359150602083013562001ab78162001977565b809150509250929050565b60006020828403121562001ad557600080fd5b5035919050565b6020808252825182820181905260009190848201906040850190845b8181101562001a835783516001600160a01b03168352928401929184019160010162001af8565b634e487b7160e01b600052604160045260246000fd5b604051601f8201601f1916810167ffffffffffffffff8111828210171562001b615762001b6162001b1f565b604052919050565b6000602080838503121562001b7d57600080fd5b823567ffffffffffffffff8082111562001b9657600080fd5b818501915085601f83011262001bab57600080fd5b81358181111562001bc05762001bc062001b1f565b8060051b915062001bd384830162001b35565b818152918301840191848101908884111562001bee57600080fd5b938501935b8385101562001c1c578435925062001c0b8362001977565b828252938501939085019062001bf3565b98975050505050505050565b60008060006040848603121562001c3e57600080fd5b83359250602084013567ffffffffffffffff8082111562001c5e57600080fd5b818601915086601f83011262001c7357600080fd5b81358181111562001c8357600080fd5b87602082850101111562001c9657600080fd5b6020830194508093505050509250925092565b60008060006060848603121562001cbf57600080fd5b833562001ccc8162001977565b92506020848101359250604085013567ffffffffffffffff8082111562001cf257600080fd5b818701915087601f83011262001d0757600080fd5b81358181111562001d1c5762001d1c62001b1f565b62001d30601f8201601f1916850162001b35565b9150808252888482850101111562001d4757600080fd5b80848401858401376000848284010152508093505050509250925092565b60006020828403121562001d7857600080fd5b8135620014a28162001977565b60208082526030908201527f436f6c6c656374696f6e466163746f72793a206e6577206f776e65722063616e60408201526f6e6f742062652030206164647265737360801b606082015260800190565b634e487b7160e01b600052601160045260246000fd5b60008282101562001e005762001e0062001dd5565b500390565b634e487b7160e01b600052603260045260246000fd5b60006020828403121562001e2e57600080fd5b8151620014a28162001977565b6020808252602f908201527f436f6c6c656374696f6e466163746f72793a20626561636f6e20616c6961732060408201526e63616e6e6f7420626520656d70747960881b606082015260800190565b6020808252602c908201527f436f6c6c656374696f6e466163746f72793a20626561636f6e20616c6961732060408201526b185b1c9958591e481d5cd95960a21b606082015260800190565b60208082526035908201527f436f6c6c656374696f6e466163746f72793a206f776e657273686970206d75736040820152747420626520676976656e20746f20666163746f727960581b606082015260800190565b60208082526028908201527f436f6c6c656374696f6e466163746f72793a20626561636f6e206973206e6f74604082015267081d1c9858dad95960c21b606082015260800190565b6000821982111562001f895762001f8962001dd5565b500190565b6001600160a01b03841681526040602082018190528101829052818360608301376000818301606090810191909152601f909201601f1916010192915050565b60006001820162001fe35762001fe362001dd5565b5060010190565b6020808252602c908201527f436f6c6c656374696f6e466163746f72793a20636f6c6c656374696f6e20697360408201526b081b9bdd081d1c9858dad95960a21b606082015260800190565b60018060a01b038316815260006020604081840152835180604085015260005b81811015620020745785810183015185820160600152820162002056565b8181111562002087576000606083870101525b50601f01601f191692909201606001949350505050565b634e487b7160e01b600052603160045260246000fdfe60806040523480156200001157600080fd5b506040516200110d3803806200110d8339810160408190526200003491620005dc565b818162000044828260006200005a565b50620000529050336200012f565b50506200071b565b62000065836200018a565b6040516001600160a01b038416907f1cf3b03a6cf19fa2baba4df148e9dcabedea7f8a5c07840e207e5c089be95d3e90600090a2600082511180620000a75750805b156200012a5762000128836001600160a01b0316635c60da1b6040518163ffffffff1660e01b8152600401602060405180830381865afa158015620000f0573d6000803e3d6000fd5b505050506040513d601f19601f82011682018060405250810190620001169190620006aa565b836200033c60201b6200021e1760201c565b505b505050565b7f7e644d79422f17c01e4894b5f4f588d331ebfa28653d42ae832dc59e38c9798f6200015a6200036b565b604080516001600160a01b03928316815291841660208301520160405180910390a16200018781620003a4565b50565b620001a0816200043460201b6200024a1760201c565b620002005760405162461bcd60e51b815260206004820152602560248201527f455243313936373a206e657720626561636f6e206973206e6f74206120636f6e6044820152641d1c9858dd60da1b60648201526084015b60405180910390fd5b6200027a816001600160a01b0316635c60da1b6040518163ffffffff1660e01b8152600401602060405180830381865afa15801562000243573d6000803e3d6000fd5b505050506040513d601f19601f82011682018060405250810190620002699190620006aa565b6200043460201b6200024a1760201c565b620002e15760405162461bcd60e51b815260206004820152603060248201527f455243313936373a20626561636f6e20696d706c656d656e746174696f6e206960448201526f1cc81b9bdd08184818dbdb9d1c9858dd60821b6064820152608401620001f7565b806200031b7fa3f0ad74e5423aebfd80d3ef4346578335a9a72aeaee59ff6cb3582b35133d5060001b6200044360201b620002591760201c565b80546001600160a01b0319166001600160a01b039290921691909117905550565b6060620003648383604051806060016040528060278152602001620010e66027913962000446565b9392505050565b600062000395600080516020620010c683398151915260001b6200044360201b620002591760201c565b546001600160a01b0316919050565b6001600160a01b0381166200040b5760405162461bcd60e51b815260206004820152602660248201527f455243313936373a206e65772061646d696e20697320746865207a65726f206160448201526564647265737360d01b6064820152608401620001f7565b806200031b600080516020620010c683398151915260001b6200044360201b620002591760201c565b6001600160a01b03163b151590565b90565b6060600080856001600160a01b031685604051620004659190620006c8565b600060405180830381855af49150503d8060008114620004a2576040519150601f19603f3d011682016040523d82523d6000602084013e620004a7565b606091505b509092509050620004bb86838387620004c5565b9695505050505050565b606083156200053957825160000362000531576001600160a01b0385163b620005315760405162461bcd60e51b815260206004820152601d60248201527f416464726573733a2063616c6c20746f206e6f6e2d636f6e74726163740000006044820152606401620001f7565b508162000545565b6200054583836200054d565b949350505050565b8151156200055e5781518083602001fd5b8060405162461bcd60e51b8152600401620001f79190620006e6565b80516001600160a01b03811681146200059257600080fd5b919050565b634e487b7160e01b600052604160045260246000fd5b60005b83811015620005ca578181015183820152602001620005b0565b83811115620001285750506000910152565b60008060408385031215620005f057600080fd5b620005fb836200057a565b60208401519092506001600160401b03808211156200061957600080fd5b818501915085601f8301126200062e57600080fd5b81518181111562000643576200064362000597565b604051601f8201601f19908116603f011681019083821181831017156200066e576200066e62000597565b816040528281528860208487010111156200068857600080fd5b6200069b836020830160208801620005ad565b80955050505050509250929050565b600060208284031215620006bd57600080fd5b62000364826200057a565b60008251620006dc818460208701620005ad565b9190910192915050565b602081526000825180602084015262000707816040850160208701620005ad565b601f01601f19169190910160400192915050565b61099b806200072b6000396000f3fe6080604052600436106100435760003560e01c80633e47158c1461005a57806359659e901461008b578063abd9a376146100a0578063f8ab7198146100c057610052565b36610052576100506100e0565b005b6100506100e0565b34801561006657600080fd5b5061006f6100f2565b6040516001600160a01b03909116815260200160405180910390f35b34801561009757600080fd5b5061006f610101565b3480156100ac57600080fd5b506100506100bb3660046107af565b61010b565b3480156100cc57600080fd5b506100506100db3660046107e2565b610196565b6100f06100eb61025c565b6102c7565b565b60006100fc6102f0565b905090565b60006100fc610323565b60006101156102f0565b9050336001600160a01b038216146101895760405162461bcd60e51b815260206004820152602c60248201527f436f6c6c656374696f6e50726f78793a206f6e6c792061646d696e2063616e2060448201526b31b430b733b29030b236b4b760a11b60648201526084015b60405180910390fd5b6101928261032d565b5050565b61019e6102f0565b6001600160a01b0316336001600160a01b0316146102145760405162461bcd60e51b815260206004820152602d60248201527f436f6c6c656374696f6e50726f78793a206f6e6c792061646d696e2063616e2060448201526c31b430b733b2903132b0b1b7b760991b6064820152608401610180565b6101928282610384565b6060610243838360405180606001604052806027815260200161093f60279139610390565b9392505050565b6001600160a01b03163b151590565b90565b6000610266610408565b6001600160a01b0316635c60da1b6040518163ffffffff1660e01b8152600401602060405180830381865afa1580156102a3573d6000803e3d6000fd5b505050506040513d601f19601f820116820180604052508101906100fc91906108a6565b3660008037600080366000845af43d6000803e8080156102e6573d6000f35b3d6000fd5b505050565b60007fb53127684a568b3173ae13b9f8a6016e243e63b6e8ee1178d6a717850b5d61035b546001600160a01b0316919050565b60006100fc610408565b7f7e644d79422f17c01e4894b5f4f588d331ebfa28653d42ae832dc59e38c9798f6103566102f0565b604080516001600160a01b03928316815291841660208301520160405180910390a161038181610430565b50565b610192828260006104d9565b6060600080856001600160a01b0316856040516103ad91906108ef565b600060405180830381855af49150503d80600081146103e8576040519150601f19603f3d011682016040523d82523d6000602084013e6103ed565b606091505b50915091506103fe86838387610599565b9695505050505050565b60007fa3f0ad74e5423aebfd80d3ef4346578335a9a72aeaee59ff6cb3582b35133d50610314565b6001600160a01b0381166104955760405162461bcd60e51b815260206004820152602660248201527f455243313936373a206e65772061646d696e20697320746865207a65726f206160448201526564647265737360d01b6064820152608401610180565b807fb53127684a568b3173ae13b9f8a6016e243e63b6e8ee1178d6a717850b5d61035b80546001600160a01b0319166001600160a01b039290921691909117905550565b6104e28361061a565b6040516001600160a01b038416907f1cf3b03a6cf19fa2baba4df148e9dcabedea7f8a5c07840e207e5c089be95d3e90600090a26000825111806105235750805b156102eb57610593836001600160a01b0316635c60da1b6040518163ffffffff1660e01b8152600401602060405180830381865afa158015610569573d6000803e3d6000fd5b505050506040513d601f19601f8201168201806040525081019061058d91906108a6565b8361021e565b50505050565b60608315610608578251600003610601576001600160a01b0385163b6106015760405162461bcd60e51b815260206004820152601d60248201527f416464726573733a2063616c6c20746f206e6f6e2d636f6e74726163740000006044820152606401610180565b5081610612565b6106128383610770565b949350505050565b6001600160a01b0381163b61067f5760405162461bcd60e51b815260206004820152602560248201527f455243313936373a206e657720626561636f6e206973206e6f74206120636f6e6044820152641d1c9858dd60da1b6064820152608401610180565b6106e4816001600160a01b0316635c60da1b6040518163ffffffff1660e01b8152600401602060405180830381865afa1580156106c0573d6000803e3d6000fd5b505050506040513d601f19601f8201168201806040525081019061024a91906108a6565b6107495760405162461bcd60e51b815260206004820152603060248201527f455243313936373a20626561636f6e20696d706c656d656e746174696f6e206960448201526f1cc81b9bdd08184818dbdb9d1c9858dd60821b6064820152608401610180565b807fa3f0ad74e5423aebfd80d3ef4346578335a9a72aeaee59ff6cb3582b35133d506104b8565b8151156107805781518083602001fd5b8060405162461bcd60e51b8152600401610180919061090b565b6001600160a01b038116811461038157600080fd5b6000602082840312156107c157600080fd5b81356102438161079a565b634e487b7160e01b600052604160045260246000fd5b600080604083850312156107f557600080fd5b82356108008161079a565b9150602083013567ffffffffffffffff8082111561081d57600080fd5b818501915085601f83011261083157600080fd5b813581811115610843576108436107cc565b604051601f8201601f19908116603f0116810190838211818310171561086b5761086b6107cc565b8160405282815288602084870101111561088457600080fd5b8260208601602083013760006020848301015280955050505050509250929050565b6000602082840312156108b857600080fd5b81516102438161079a565b60005b838110156108de5781810151838201526020016108c6565b838111156105935750506000910152565b600082516109018184602087016108c3565b9190910192915050565b602081526000825180602084015261092a8160408501602087016108c3565b601f01601f1916919091016040019291505056fe416464726573733a206c6f772d6c6576656c2064656c65676174652063616c6c206661696c6564a26469706673582212201d1b081966ea80e53d0504cf41cc6ee45a59ec32d25f340cf2476633d9eaca0764736f6c634300080f0033b53127684a568b3173ae13b9f8a6016e243e63b6e8ee1178d6a717850b5d6103416464726573733a206c6f772d6c6576656c2064656c65676174652063616c6c206661696c6564608060405234801561001057600080fd5b506040516104e43803806104e483398101604081905261002f91610151565b61003833610047565b61004181610097565b50610181565b600080546001600160a01b038381166001600160a01b0319831681178455604051919092169283917f8be0079c531659141344cd1fd0a4f28419497f9722a3daafe3b4186f6b6457e09190a35050565b6100aa8161014260201b6101a01760201c565b6101205760405162461bcd60e51b815260206004820152603360248201527f5570677261646561626c65426561636f6e3a20696d706c656d656e746174696f60448201527f6e206973206e6f74206120636f6e747261637400000000000000000000000000606482015260840160405180910390fd5b600180546001600160a01b0319166001600160a01b0392909216919091179055565b6001600160a01b03163b151590565b60006020828403121561016357600080fd5b81516001600160a01b038116811461017a57600080fd5b9392505050565b610354806101906000396000f3fe608060405234801561001057600080fd5b50600436106100575760003560e01c80633659cfe61461005c5780635c60da1b14610071578063715018a61461009a5780638da5cb5b146100a2578063f2fde38b146100b3575b600080fd5b61006f61006a3660046102ee565b6100c6565b005b6001546001600160a01b03165b6040516001600160a01b03909116815260200160405180910390f35b61006f61010e565b6000546001600160a01b031661007e565b61006f6100c13660046102ee565b610122565b6100ce6101af565b6100d781610209565b6040516001600160a01b038216907fbc7cd75a20ee27fd9adebab32041f755214dbc6bffa90cc0225b39da2e5c2d3b90600090a250565b6101166101af565b610120600061029e565b565b61012a6101af565b6001600160a01b0381166101945760405162461bcd60e51b815260206004820152602660248201527f4f776e61626c653a206e6577206f776e657220697320746865207a65726f206160448201526564647265737360d01b60648201526084015b60405180910390fd5b61019d8161029e565b50565b6001600160a01b03163b151590565b6000546001600160a01b031633146101205760405162461bcd60e51b815260206004820181905260248201527f4f776e61626c653a2063616c6c6572206973206e6f7420746865206f776e6572604482015260640161018b565b6001600160a01b0381163b61027c5760405162461bcd60e51b815260206004820152603360248201527f5570677261646561626c65426561636f6e3a20696d706c656d656e746174696f6044820152721b881a5cc81b9bdd08184818dbdb9d1c9858dd606a1b606482015260840161018b565b600180546001600160a01b0319166001600160a01b0392909216919091179055565b600080546001600160a01b038381166001600160a01b0319831681178455604051919092169283917f8be0079c531659141344cd1fd0a4f28419497f9722a3daafe3b4186f6b6457e09190a35050565b60006020828403121561030057600080fd5b81356001600160a01b038116811461031757600080fd5b939250505056fea2646970667358221220f7cc83241a598e6e674d76251c0aa0824b165c3a0a01aaed0413c1095f025b8f64736f6c634300080f0033a2646970667358221220538f7997795f34a6042a58cdb8aa5e1c011ad957db0fe6b5ae2820658af5ecf364736f6c634300080f0033",
    "linkReferences": {}
  },
  "methodIdentifiers": {
    "acceptOwnership()": "79ba5097",
    "addBeacon(address,bytes32)": "13f7e143",
    "addCollections(address[])": "49919e62",
    "aliasToBeacon(bytes32)": "66d37899",
    "beaconCount()": "7201fa80",
    "beaconOf(address)": "efad289f",
    "collectionCount()": "d57f966b",
    "deployBeacon(address,bytes32)": "b53cfa4f",
    "deployCollection(bytes32,bytes)": "50f55d61",
    "getBeaconAlias(uint256)": "34853c8e",
    "getBeaconAliases()": "208915a0",
    "getBeacons()": "790450f6",
    "getCollection(uint256)": "5a1f3c28",
    "getCollections()": "46e63586",
    "owner()": "8da5cb5b",
    "pendingOwner()": "e30c3978",
    "renounceOwnership()": "715018a6",
    "transferBeacon(bytes32,address)": "291bdd8c",
    "transferCollections(address[],address)": "001d209f",
    "transferOwnership(address)": "f2fde38b",
    "updateBeaconImplementation(bytes32,address)": "a476962c",
    "updateCollection(address,bytes32,bytes)": "c349384c"
  },
  "id": 36
}