{
  "address": "0x6a2B6427d56495A0e49Fc4D1C3Bb3ac32C2d5E0D",
  "abi": [
    {
      "inputs": [],
      "stateMutability": "nonpayable",
      "type": "constructor"
    },
    {
      "anonymous": false,
      "inputs": [
        {
          "indexed": true,
          "internalType": "address",
          "name": "revealer",
          "type": "address"
        },
        {
          "indexed": false,
          "internalType": "uint256[]",
          "name": "unrevealedTokenIds",
          "type": "uint256[]"
        },
        {
          "indexed": false,
          "internalType": "uint256[]",
          "name": "amounts",
          "type": "uint256[]"
        }
      ],
      "name": "AssetRevealBatchBurn",
      "type": "event"
    },
    {
      "anonymous": false,
      "inputs": [
        {
          "indexed": true,
          "internalType": "address",
          "name": "recipient",
          "type": "address"
        },
        {
          "indexed": false,
          "internalType": "uint256[]",
          "name": "unrevealedTokenIds",
          "type": "uint256[]"
        },
        {
          "indexed": false,
          "internalType": "uint256[][]",
          "name": "amounts",
          "type": "uint256[][]"
        },
        {
          "indexed": false,
          "internalType": "uint256[][]",
          "name": "newTokenIds",
          "type": "uint256[][]"
        },
        {
          "indexed": false,
          "internalType": "bytes32[][]",
          "name": "revealHashes",
          "type": "bytes32[][]"
        }
      ],
      "name": "AssetRevealBatchMint",
      "type": "event"
    },
    {
      "anonymous": false,
      "inputs": [
        {
          "indexed": true,
          "internalType": "address",
          "name": "revealer",
          "type": "address"
        },
        {
          "indexed": false,
          "internalType": "uint256",
          "name": "unrevealedTokenId",
          "type": "uint256"
        },
        {
          "indexed": false,
          "internalType": "uint256",
          "name": "amount",
          "type": "uint256"
        }
      ],
      "name": "AssetRevealBurn",
      "type": "event"
    },
    {
      "anonymous": false,
      "inputs": [
        {
          "indexed": true,
          "internalType": "address",
          "name": "recipient",
          "type": "address"
        },
        {
          "indexed": false,
          "internalType": "uint256",
          "name": "unrevealedTokenId",
          "type": "uint256"
        },
        {
          "indexed": false,
          "internalType": "uint256[]",
          "name": "amounts",
          "type": "uint256[]"
        },
        {
          "indexed": false,
          "internalType": "uint256[]",
          "name": "newTokenIds",
          "type": "uint256[]"
        },
        {
          "indexed": false,
          "internalType": "bytes32[]",
          "name": "revealHashes",
          "type": "bytes32[]"
        }
      ],
      "name": "AssetRevealMint",
      "type": "event"
    },
    {
      "anonymous": false,
      "inputs": [],
      "name": "EIP712DomainChanged",
      "type": "event"
    },
    {
      "anonymous": false,
      "inputs": [
        {
          "indexed": false,
          "internalType": "uint8",
          "name": "version",
          "type": "uint8"
        }
      ],
      "name": "Initialized",
      "type": "event"
    },
    {
      "anonymous": false,
      "inputs": [
        {
          "indexed": false,
          "internalType": "address",
          "name": "account",
          "type": "address"
        }
      ],
      "name": "Paused",
      "type": "event"
    },
    {
      "anonymous": false,
      "inputs": [
        {
          "indexed": true,
          "internalType": "bytes32",
          "name": "role",
          "type": "bytes32"
        },
        {
          "indexed": true,
          "internalType": "bytes32",
          "name": "previousAdminRole",
          "type": "bytes32"
        },
        {
          "indexed": true,
          "internalType": "bytes32",
          "name": "newAdminRole",
          "type": "bytes32"
        }
      ],
      "name": "RoleAdminChanged",
      "type": "event"
    },
    {
      "anonymous": false,
      "inputs": [
        {
          "indexed": true,
          "internalType": "bytes32",
          "name": "role",
          "type": "bytes32"
        },
        {
          "indexed": true,
          "internalType": "address",
          "name": "account",
          "type": "address"
        },
        {
          "indexed": true,
          "internalType": "address",
          "name": "sender",
          "type": "address"
        }
      ],
      "name": "RoleGranted",
      "type": "event"
    },
    {
      "anonymous": false,
      "inputs": [
        {
          "indexed": true,
          "internalType": "bytes32",
          "name": "role",
          "type": "bytes32"
        },
        {
          "indexed": true,
          "internalType": "address",
          "name": "account",
          "type": "address"
        },
        {
          "indexed": true,
          "internalType": "address",
          "name": "sender",
          "type": "address"
        }
      ],
      "name": "RoleRevoked",
      "type": "event"
    },
    {
      "anonymous": false,
      "inputs": [
        {
          "indexed": true,
          "internalType": "address",
          "name": "newTrustedForwarderAddress",
          "type": "address"
        }
      ],
      "name": "TrustedForwarderChanged",
      "type": "event"
    },
    {
      "anonymous": false,
      "inputs": [
        {
          "indexed": true,
          "internalType": "address",
          "name": "oldTrustedForwarder",
          "type": "address"
        },
        {
          "indexed": true,
          "internalType": "address",
          "name": "newTrustedForwarder",
          "type": "address"
        },
        {
          "indexed": true,
          "internalType": "address",
          "name": "operator",
          "type": "address"
        }
      ],
      "name": "TrustedForwarderSet",
      "type": "event"
    },
    {
      "anonymous": false,
      "inputs": [
        {
          "indexed": false,
          "internalType": "address",
          "name": "account",
          "type": "address"
        }
      ],
      "name": "Unpaused",
      "type": "event"
    },
    {
      "inputs": [],
      "name": "BATCH_REVEAL_TYPEHASH",
      "outputs": [
        {
          "internalType": "bytes32",
          "name": "",
          "type": "bytes32"
        }
      ],
      "stateMutability": "view",
      "type": "function"
    },
    {
      "inputs": [],
      "name": "DEFAULT_ADMIN_ROLE",
      "outputs": [
        {
          "internalType": "bytes32",
          "name": "",
          "type": "bytes32"
        }
      ],
      "stateMutability": "view",
      "type": "function"
    },
    {
      "inputs": [],
      "name": "INSTANT_REVEAL_TYPEHASH",
      "outputs": [
        {
          "internalType": "bytes32",
          "name": "",
          "type": "bytes32"
        }
      ],
      "stateMutability": "view",
      "type": "function"
    },
    {
      "inputs": [],
      "name": "PAUSER_ROLE",
      "outputs": [
        {
          "internalType": "bytes32",
          "name": "",
          "type": "bytes32"
        }
      ],
      "stateMutability": "view",
      "type": "function"
    },
    {
      "inputs": [],
      "name": "REVEAL_TYPEHASH",
      "outputs": [
        {
          "internalType": "bytes32",
          "name": "",
          "type": "bytes32"
        }
      ],
      "stateMutability": "view",
      "type": "function"
    },
    {
      "inputs": [
        {
          "internalType": "bytes",
          "name": "signature",
          "type": "bytes"
        },
        {
          "internalType": "uint256",
          "name": "prevTokenId",
          "type": "uint256"
        },
        {
          "internalType": "uint256",
          "name": "burnAmount",
          "type": "uint256"
        },
        {
          "internalType": "uint256[]",
          "name": "amounts",
          "type": "uint256[]"
        },
        {
          "internalType": "string[]",
          "name": "metadataHashes",
          "type": "string[]"
        },
        {
          "internalType": "bytes32[]",
          "name": "revealHashes",
          "type": "bytes32[]"
        }
      ],
      "name": "burnAndReveal",
      "outputs": [],
      "stateMutability": "nonpayable",
      "type": "function"
    },
    {
      "inputs": [],
      "name": "eip712Domain",
      "outputs": [
        {
          "internalType": "bytes1",
          "name": "fields",
          "type": "bytes1"
        },
        {
          "internalType": "string",
          "name": "name",
          "type": "string"
        },
        {
          "internalType": "string",
          "name": "version",
          "type": "string"
        },
        {
          "internalType": "uint256",
          "name": "chainId",
          "type": "uint256"
        },
        {
          "internalType": "address",
          "name": "verifyingContract",
          "type": "address"
        },
        {
          "internalType": "bytes32",
          "name": "salt",
          "type": "bytes32"
        },
        {
          "internalType": "uint256[]",
          "name": "extensions",
          "type": "uint256[]"
        }
      ],
      "stateMutability": "view",
      "type": "function"
    },
    {
      "inputs": [],
      "name": "getAssetContract",
      "outputs": [
        {
          "internalType": "address",
          "name": "assetContractAddres",
          "type": "address"
        }
      ],
      "stateMutability": "view",
      "type": "function"
    },
    {
      "inputs": [],
      "name": "getAuthValidator",
      "outputs": [
        {
          "internalType": "address",
          "name": "authValidatorContractAddress",
          "type": "address"
        }
      ],
      "stateMutability": "view",
      "type": "function"
    },
    {
      "inputs": [
        {
          "internalType": "bytes32",
          "name": "role",
          "type": "bytes32"
        }
      ],
      "name": "getRoleAdmin",
      "outputs": [
        {
          "internalType": "bytes32",
          "name": "",
          "type": "bytes32"
        }
      ],
      "stateMutability": "view",
      "type": "function"
    },
    {
      "inputs": [
        {
          "internalType": "uint8",
          "name": "tier",
          "type": "uint8"
        }
      ],
      "name": "getTierInstantRevealAllowed",
      "outputs": [
        {
          "internalType": "bool",
          "name": "instantRevealAllowed",
          "type": "bool"
        }
      ],
      "stateMutability": "view",
      "type": "function"
    },
    {
      "inputs": [],
      "name": "getTrustedForwarder",
      "outputs": [
        {
          "internalType": "address",
          "name": "",
          "type": "address"
        }
      ],
      "stateMutability": "view",
      "type": "function"
    },
    {
      "inputs": [
        {
          "internalType": "bytes32",
          "name": "role",
          "type": "bytes32"
        },
        {
          "internalType": "address",
          "name": "account",
          "type": "address"
        }
      ],
      "name": "grantRole",
      "outputs": [],
      "stateMutability": "nonpayable",
      "type": "function"
    },
    {
      "inputs": [
        {
          "internalType": "bytes32",
          "name": "role",
          "type": "bytes32"
        },
        {
          "internalType": "address",
          "name": "account",
          "type": "address"
        }
      ],
      "name": "hasRole",
      "outputs": [
        {
          "internalType": "bool",
          "name": "",
          "type": "bool"
        }
      ],
      "stateMutability": "view",
      "type": "function"
    },
    {
      "inputs": [
        {
          "internalType": "string",
          "name": "_name",
          "type": "string"
        },
        {
          "internalType": "string",
          "name": "_version",
          "type": "string"
        },
        {
          "internalType": "address",
          "name": "_assetContract",
          "type": "address"
        },
        {
          "internalType": "address",
          "name": "_authValidator",
          "type": "address"
        },
        {
          "internalType": "address",
          "name": "_forwarder",
          "type": "address"
        },
        {
          "internalType": "address",
          "name": "_defaultAdmin",
          "type": "address"
        }
      ],
      "name": "initialize",
      "outputs": [],
      "stateMutability": "nonpayable",
      "type": "function"
    },
    {
      "inputs": [
        {
          "internalType": "address",
          "name": "forwarder",
          "type": "address"
        }
      ],
      "name": "isTrustedForwarder",
      "outputs": [
        {
          "internalType": "bool",
          "name": "",
          "type": "bool"
        }
      ],
      "stateMutability": "view",
      "type": "function"
    },
    {
      "inputs": [],
      "name": "pause",
      "outputs": [],
      "stateMutability": "nonpayable",
      "type": "function"
    },
    {
      "inputs": [],
      "name": "paused",
      "outputs": [
        {
          "internalType": "bool",
          "name": "",
          "type": "bool"
        }
      ],
      "stateMutability": "view",
      "type": "function"
    },
    {
      "inputs": [
        {
          "internalType": "bytes32",
          "name": "role",
          "type": "bytes32"
        },
        {
          "internalType": "address",
          "name": "account",
          "type": "address"
        }
      ],
      "name": "renounceRole",
      "outputs": [],
      "stateMutability": "nonpayable",
      "type": "function"
    },
    {
      "inputs": [
        {
          "internalType": "uint256[]",
          "name": "tokenIds",
          "type": "uint256[]"
        },
        {
          "internalType": "uint256[]",
          "name": "amounts",
          "type": "uint256[]"
        }
      ],
      "name": "revealBatchBurn",
      "outputs": [],
      "stateMutability": "nonpayable",
      "type": "function"
    },
    {
      "inputs": [
        {
          "internalType": "bytes",
          "name": "signature",
          "type": "bytes"
        },
        {
          "internalType": "uint256[]",
          "name": "prevTokenIds",
          "type": "uint256[]"
        },
        {
          "internalType": "uint256[][]",
          "name": "amounts",
          "type": "uint256[][]"
        },
        {
          "internalType": "string[][]",
          "name": "metadataHashes",
          "type": "string[][]"
        },
        {
          "internalType": "bytes32[][]",
          "name": "revealHashes",
          "type": "bytes32[][]"
        }
      ],
      "name": "revealBatchMint",
      "outputs": [],
      "stateMutability": "nonpayable",
      "type": "function"
    },
    {
      "inputs": [
        {
          "internalType": "uint256",
          "name": "tokenId",
          "type": "uint256"
        },
        {
          "internalType": "uint256",
          "name": "amount",
          "type": "uint256"
        }
      ],
      "name": "revealBurn",
      "outputs": [],
      "stateMutability": "nonpayable",
      "type": "function"
    },
    {
      "inputs": [
        {
          "internalType": "bytes32",
          "name": "revealHash",
          "type": "bytes32"
        }
      ],
      "name": "revealHashUsed",
      "outputs": [
        {
          "internalType": "bool",
          "name": "hashUsed",
          "type": "bool"
        }
      ],
      "stateMutability": "view",
      "type": "function"
    },
    {
      "inputs": [
        {
          "internalType": "bytes",
          "name": "signature",
          "type": "bytes"
        },
        {
          "internalType": "uint256",
          "name": "prevTokenId",
          "type": "uint256"
        },
        {
          "internalType": "uint256[]",
          "name": "amounts",
          "type": "uint256[]"
        },
        {
          "internalType": "string[]",
          "name": "metadataHashes",
          "type": "string[]"
        },
        {
          "internalType": "bytes32[]",
          "name": "revealHashes",
          "type": "bytes32[]"
        }
      ],
      "name": "revealMint",
      "outputs": [],
      "stateMutability": "nonpayable",
      "type": "function"
    },
    {
      "inputs": [
        {
          "internalType": "bytes32",
          "name": "role",
          "type": "bytes32"
        },
        {
          "internalType": "address",
          "name": "account",
          "type": "address"
        }
      ],
      "name": "revokeRole",
      "outputs": [],
      "stateMutability": "nonpayable",
      "type": "function"
    },
    {
      "inputs": [
        {
          "internalType": "uint8",
          "name": "tier",
          "type": "uint8"
        },
        {
          "internalType": "bool",
          "name": "allowed",
          "type": "bool"
        }
      ],
      "name": "setTierInstantRevealAllowed",
      "outputs": [],
      "stateMutability": "nonpayable",
      "type": "function"
    },
    {
      "inputs": [
        {
          "internalType": "address",
          "name": "trustedForwarder",
          "type": "address"
        }
      ],
      "name": "setTrustedForwarder",
      "outputs": [],
      "stateMutability": "nonpayable",
      "type": "function"
    },
    {
      "inputs": [
        {
          "internalType": "bytes4",
          "name": "interfaceId",
          "type": "bytes4"
        }
      ],
      "name": "supportsInterface",
      "outputs": [
        {
          "internalType": "bool",
          "name": "",
          "type": "bool"
        }
      ],
      "stateMutability": "view",
      "type": "function"
    },
    {
      "inputs": [],
      "name": "unpause",
      "outputs": [],
      "stateMutability": "nonpayable",
      "type": "function"
    }
  ],
  "transactionHash": "0x93abf27163fceed67d970662180ea5a5e4c362a1f3698ac917ae2d92f1eda635",
  "args": [],
  "numDeployments": 1,
  "solcInputHash": "a7dad225e4948fd90c6be2fd4b947044",
  "bytecode": "0x60806040523480156200001157600080fd5b506200001c62000022565b620000e3565b600054610100900460ff16156200008f5760405162461bcd60e51b815260206004820152602760248201527f496e697469616c697a61626c653a20636f6e747261637420697320696e697469604482015266616c697a696e6760c81b606482015260840160405180910390fd5b60005460ff90811614620000e1576000805460ff191660ff9081179091556040519081527f7f26b83ff96e1f2b6a682f133852f6798a09c465da95921460cefb38474024989060200160405180910390a15b565b613cea80620000f36000396000f3fe608060405234801561001057600080fd5b50600436106101cf5760003560e01c806384b0196e11610104578063d547741f116100a2578063e63ab1e911610071578063e63ab1e914610432578063e72cbd5314610459578063ecc0382a14610480578063f30553d51461049357600080fd5b8063d547741f146103e7578063d5f2077c146103fa578063da7422281461040c578063e56f2fe41461041f57600080fd5b8063a217fddf116100de578063a217fddf14610383578063b21c2cdc1461038b578063bd2cc82a146103b2578063ce1b815f146103d657600080fd5b806384b0196e1461031c57806391d14854146103375780639d9d91f61461037057600080fd5b80633f4ba83a1161017157806359c191e41161014b57806359c191e4146102d05780635aaa24bf146102f65780635c975abb146103095780638456cb591461031457600080fd5b80633f4ba83a146102a2578063439ff3ce146102aa578063572b6c05146102bd57600080fd5b8063248a9ca3116101ad578063248a9ca3146102245780632f2ff15d1461025557806336568abe146102685780633a2cf31a1461027b57600080fd5b806301ffc9a7146101d45780630c85fbb3146101fc57806310da539314610211575b600080fd5b6101e76101e2366004612ad4565b6104ba565b60405190151581526020015b60405180910390f35b61020f61020a366004612b62565b610553565b005b61020f61021f366004612c85565b6105bb565b610247610232366004612d4d565b60009081526065602052604090206001015490565b6040519081526020016101f3565b61020f610263366004612d82565b6107aa565b61020f610276366004612d82565b6107d4565b6102477f1d2951170e2f5d8eb8a7a48a737f5f1680469c14594abd27536867bfb559f88f81565b61020f610870565b61020f6102b8366004612df0565b6108a5565b6101e76102cb366004612ee1565b610bec565b61012f546001600160a01b03165b6040516001600160a01b0390911681526020016101f3565b61020f610304366004612efc565b610c06565b60fd5460ff166101e7565b61020f610c6f565b610324610ca1565b6040516101f39796959493929190612fa9565b6101e7610345366004612d82565b60009182526065602090815260408084206001600160a01b0393909316845291905290205460ff1690565b61020f61037e366004613044565b610d63565b610247600081565b6102477f45cf7a9b20b47d492887b813085b48aa1988f1f482fe79948578452b4b4cbedd81565b6101e76103c0366004612d4d565b6000908152610132602052604090205460ff1690565b6097546001600160a01b03166102de565b61020f6103f5366004612d82565b610d95565b610130546001600160a01b03166102de565b61020f61041a366004612ee1565b610dba565b61020f61042d36600461307b565b610e24565b6102477f65d7a28e3265b37a6474929f336521b332c1681b933f6cb9f3376673440d862a81565b6101e7610467366004613120565b60ff908116600090815261013360205260409020541690565b61020f61048e36600461313b565b610fba565b6102477f30ed1d13f34eab3b4d1a3291d48db1d77bbc98ec9480b9131e4360220fd46fb081565b60007fffffffff0000000000000000000000000000000000000000000000000000000082167f7965db0b00000000000000000000000000000000000000000000000000000000148061054d57507f01ffc9a7000000000000000000000000000000000000000000000000000000007fffffffff000000000000000000000000000000000000000000000000000000008316145b92915050565b61055b61120f565b61056784848484611264565b61056f611381565b6001600160a01b03167f25601c42b4517e81abacb7c77cd6d6697ea55465121e953721d60becc43b88e2858585856040516105ad949392919061325a565b60405180910390a250505050565b6105c361120f565b8483146106175760405162461bcd60e51b815260206004820152601d60248201527f417373657452657665616c3a20312d4172726179206d69736d6174636800000060448201526064015b60405180910390fd5b8481146106665760405162461bcd60e51b815260206004820152601d60248201527f417373657452657665616c3a20322d4172726179206d69736d61746368000000604482015260640161060e565b610130546001600160a01b0316636b40634189610690610684611381565b8b8b8b8b8b8b8b611390565b6040518363ffffffff1660e01b81526004016106ad92919061328c565b602060405180830381865afa1580156106ca573d6000803e3d6000fd5b505050506040513d601f19601f820116820180604052508101906106ee91906132ae565b61073a5760405162461bcd60e51b815260206004820152601e60248201527f417373657452657665616c3a20496e76616c6964207369676e61747572650000604482015260640161060e565b600061074b8886868a8a888861147f565b9050610755611381565b6001600160a01b03167fd19ae26d53e6e3446633338937b673d431c042f61b32854f821bc2b2b025b2c4898989858888604051610797969594939291906132cb565b60405180910390a2505050505050505050565b6000828152606560205260409020600101546107c5816116c8565b6107cf83836116d9565b505050565b6107dc611381565b6001600160a01b0316816001600160a01b0316146108625760405162461bcd60e51b815260206004820152602f60248201527f416363657373436f6e74726f6c3a2063616e206f6e6c792072656e6f756e636560448201527f20726f6c657320666f722073656c660000000000000000000000000000000000606482015260840161060e565b61086c828261177c565b5050565b7f65d7a28e3265b37a6474929f336521b332c1681b933f6cb9f3376673440d862a61089a816116c8565b6108a261181d565b50565b6108ad61120f565b8685146108fc5760405162461bcd60e51b815260206004820152601d60248201527f417373657452657665616c3a20312d4172726179206d69736d61746368000000604482015260640161060e565b84831461094b5760405162461bcd60e51b815260206004820152601d60248201527f417373657452657665616c3a20322d4172726179206d69736d61746368000000604482015260640161060e565b86811461099a5760405162461bcd60e51b815260206004820152601d60248201527f417373657452657665616c3a20332d4172726179206d69736d61746368000000604482015260640161060e565b610130546001600160a01b0316636b4063418b8b6109c66109b9611381565b8d8d8d8d8d8d8d8d611875565b6040518463ffffffff1660e01b81526004016109e493929190613337565b602060405180830381865afa158015610a01573d6000803e3d6000fd5b505050506040513d601f19601f82011682018060405250810190610a2591906132ae565b610a715760405162461bcd60e51b815260206004820152601e60248201527f417373657452657665616c3a20496e76616c6964207369676e61747572650000604482015260640161060e565b60008767ffffffffffffffff811115610a8c57610a8c612bce565b604051908082528060200260200182016040528015610abf57816020015b6060815260200190600190039081610aaa5790505b50905060005b88811015610b8a57610b5a8a8a83818110610ae257610ae261335b565b90506020020135878784818110610afb57610afb61335b565b9050602002810190610b0d9190613371565b8b8b86818110610b1f57610b1f61335b565b9050602002810190610b319190613371565b898988818110610b4357610b4361335b565b9050602002810190610b559190613371565b61147f565b828281518110610b6c57610b6c61335b565b60200260200101819052508080610b82906133d1565b915050610ac5565b50610b93611381565b6001600160a01b03167f9327e7d8f5446a92ddcaf7ccd64ad67693773944fe2db95200e2d4db200543598a8a8a8a868989604051610bd79796959493929190613491565b60405180910390a25050505050505050505050565b600061054d826097546001600160a01b0391821691161490565b610c0e61120f565b610c188282611948565b610c20611381565b6001600160a01b03167f529140d9ae57da9c5515c8fe288c3865d4cbb81cb143062f99a466cb4bb6fa958383604051610c63929190918252602082015260400190565b60405180910390a25050565b7f65d7a28e3265b37a6474929f336521b332c1681b933f6cb9f3376673440d862a610c99816116c8565b6108a26119ef565b60006060806000806000606060c9546000801b148015610cc1575060ca54155b610d0d5760405162461bcd60e51b815260206004820152601560248201527f4549503731323a20556e696e697469616c697a65640000000000000000000000604482015260640161060e565b610d15611a2d565b610d1d611abf565b604080516000808252602082019092527f0f000000000000000000000000000000000000000000000000000000000000009b939a50919850469750309650945092509050565b6000610d6e816116c8565b5060ff91909116600090815261013360205260409020805460ff1916911515919091179055565b600082815260656020526040902060010154610db0816116c8565b6107cf838361177c565b6000610dc5816116c8565b6001600160a01b038216610e1b5760405162461bcd60e51b815260206004820152601960248201527f417373657452657665616c3a205a65726f206164647265737300000000000000604482015260640161060e565b61086c82611ace565b600054610100900460ff1615808015610e445750600054600160ff909116105b80610e5e5750303b158015610e5e575060005460ff166001145b610ed05760405162461bcd60e51b815260206004820152602e60248201527f496e697469616c697a61626c653a20636f6e747261637420697320616c72656160448201527f647920696e697469616c697a6564000000000000000000000000000000000000606482015260840161060e565b6000805460ff191660011790558015610ef3576000805461ff0019166101001790555b61012f80546001600160a01b038088167fffffffffffffffffffffffff000000000000000000000000000000000000000092831617909255610130805492871692909116919091179055610f4683611bd2565b610f508787611c46565b610f58611cbb565b610f60611d26565b610f6b6000836116d9565b8015610fb1576000805461ff0019169055604051600181527f7f26b83ff96e1f2b6a682f133852f6798a09c465da95921460cefb38474024989060200160405180910390a15b50505050505050565b610fc261120f565b8483146110115760405162461bcd60e51b815260206004820152601d60248201527f417373657452657665616c3a20312d4172726179206d69736d61746368000000604482015260640161060e565b8481146110605760405162461bcd60e51b815260206004820152601d60248201527f417373657452657665616c3a20322d4172726179206d69736d61746368000000604482015260640161060e565b600061106f8960a01c60ff1690565b60ff80821660009081526101336020526040902054919250166110d45760405162461bcd60e51b815260206004820152601860248201527f417373657452657665616c3a204e6f7420616c6c6f7765640000000000000000604482015260640161060e565b610130546001600160a01b0316636b4063418b6110fe6110f2611381565b8d8c8c8c8c8c8c611d99565b6040518363ffffffff1660e01b815260040161111b92919061328c565b602060405180830381865afa158015611138573d6000803e3d6000fd5b505050506040513d601f19601f8201168201806040525081019061115c91906132ae565b6111a85760405162461bcd60e51b815260206004820152601e60248201527f417373657452657665616c3a20496e76616c6964207369676e61747572650000604482015260640161060e565b6111b28989611948565b60006111c38a87878b8b898961147f565b90506111cd611381565b6001600160a01b03167fd19ae26d53e6e3446633338937b673d431c042f61b32854f821bc2b2b025b2c48b8a8a858989604051610bd7969594939291906132cb565b60fd5460ff16156112625760405162461bcd60e51b815260206004820152601060248201527f5061757361626c653a2070617573656400000000000000000000000000000000604482015260640161060e565b565b8281146112b35760405162461bcd60e51b815260206004820152601a60248201527f417373657452657665616c3a20496e76616c696420696e707574000000000000604482015260640161060e565b60005b8381101561130a576112f88585838181106112d3576112d361335b565b905060200201358484848181106112ec576112ec61335b565b90506020020135611dd4565b80611302816133d1565b9150506112b6565b5061012f546001600160a01b03166320820ec3611325611381565b868686866040518663ffffffff1660e01b8152600401611349959493929190613577565b600060405180830381600087803b15801561136357600080fd5b505af1158015611377573d6000803e3d6000fd5b5050505050505050565b600061138b611e83565b905090565b60006114727f1d2951170e2f5d8eb8a7a48a737f5f1680469c14594abd27536867bfb559f88f8a8a8a8a6040516020016113cb9291906135ef565b60408051601f1981840301815291905280516020909101206113f56113f08a8c6136a1565b611e8d565b88886040516020016114089291906135ef565b60408051601f198184030181528282528051602091820120908301979097526001600160a01b03909516948101949094526060840192909252608083015260a082015260c081019190915260e0015b60405160208183030381529060405280519060200120611f81565b9998505050505050505050565b6060600061148e88888b611fc9565b905060005b838110156115745761013260008686848181106114b2576114b261335b565b602090810292909201358352508101919091526040016000205460ff161561151c5760405162461bcd60e51b815260206004820152601e60248201527f417373657452657665616c3a204861736820616c726561647920757365640000604482015260640161060e565b600161013260008787858181106115355761153561335b565b90506020020135815260200190815260200160002060006101000a81548160ff021916908315150217905550808061156c906133d1565b915050611493565b5080516001036116495761012f546001600160a01b031663bb7fde71611598611381565b836000815181106115ab576115ab61335b565b6020026020010151898960008181106115c6576115c661335b565b905060200201358c8c60008181106115e0576115e061335b565b90506020028101906115f291906136ae565b6040518663ffffffff1660e01b81526004016116129594939291906136f5565b600060405180830381600087803b15801561162c57600080fd5b505af1158015611640573d6000803e3d6000fd5b505050506116bc565b61012f546001600160a01b031663a55784ef611663611381565b8389898d8d6040518763ffffffff1660e01b815260040161168996959493929190613724565b600060405180830381600087803b1580156116a357600080fd5b505af11580156116b7573d6000803e3d6000fd5b505050505b98975050505050505050565b6108a2816116d4611381565b6121cc565b60008281526065602090815260408083206001600160a01b038516845290915290205460ff1661086c5760008281526065602090815260408083206001600160a01b03851684529091529020805460ff19166001179055611738611381565b6001600160a01b0316816001600160a01b0316837f2f8788117e7eff1d82e926ec794901d17c78024a50270940304540a733656f0d60405160405180910390a45050565b60008281526065602090815260408083206001600160a01b038516845290915290205460ff161561086c5760008281526065602090815260408083206001600160a01b03851684529091529020805460ff191690556117d9611381565b6001600160a01b0316816001600160a01b0316837ff6391f5c32d9c69d2a47ea670b442974b53935d1edc7fd64eb21e047a839171b60405160405180910390a45050565b611825612241565b60fd805460ff191690557f5db9ee0a495bf2e6ff9c91a7834c1ba4fdd244a5e8aa4e537bd38aeae4b073aa611858611381565b6040516001600160a01b03909116815260200160405180910390a1565b600061193a7f30ed1d13f34eab3b4d1a3291d48db1d77bbc98ec9480b9131e4360220fd46fb08b8b8b6040516020016118af9291906135ef565b60408051601f1981840301815291905280516020909101206118d96118d48b8d6137f8565b612293565b6118eb6118e68a8c6138be565b612357565b6118fd6118f8898b613946565b6123fd565b6040805160208101979097526001600160a01b03909516948601949094526060850192909252608084015260a083015260c082015260e001611457565b9a9950505050505050505050565b6119528282611dd4565b61012f546001600160a01b031663124d91e561196c611381565b6040517fffffffff0000000000000000000000000000000000000000000000000000000060e084901b1681526001600160a01b0390911660048201526024810185905260448101849052606401600060405180830381600087803b1580156119d357600080fd5b505af11580156119e7573d6000803e3d6000fd5b505050505050565b6119f761120f565b60fd805460ff191660011790557f62e78cea01bee320cd4e420270b5ea74000d11b0c9f74754ebdbfc544b05a258611858611381565b606060cb8054611a3c906139ff565b80601f0160208091040260200160405190810160405280929190818152602001828054611a68906139ff565b8015611ab55780601f10611a8a57610100808354040283529160200191611ab5565b820191906000526020600020905b815481529060010190602001808311611a9857829003601f168201915b5050505050905090565b606060cc8054611a3c906139ff565b6097546001600160a01b0390811690821603611b525760405162461bcd60e51b815260206004820152603060248201527f4552433237373148616e646c65725570677261646561626c653a20666f72776160448201527f7264657220616c72656164792073657400000000000000000000000000000000606482015260840161060e565b611b5a611381565b6097546040516001600160a01b03928316928481169216907f8ca022029d8ff7ad974913f8970aeed6c5e0e7eaf494a0c5b262249f6b5759e590600090a4609780547fffffffffffffffffffffffff0000000000000000000000000000000000000000166001600160a01b0392909216919091179055565b600054610100900460ff16611c3d5760405162461bcd60e51b815260206004820152602b60248201527f496e697469616c697a61626c653a20636f6e7472616374206973206e6f74206960448201526a6e697469616c697a696e6760a81b606482015260840161060e565b6108a2816124c1565b600054610100900460ff16611cb15760405162461bcd60e51b815260206004820152602b60248201527f496e697469616c697a61626c653a20636f6e7472616374206973206e6f74206960448201526a6e697469616c697a696e6760a81b606482015260840161060e565b61086c8282612535565b600054610100900460ff166112625760405162461bcd60e51b815260206004820152602b60248201527f496e697469616c697a61626c653a20636f6e7472616374206973206e6f74206960448201526a6e697469616c697a696e6760a81b606482015260840161060e565b600054610100900460ff16611d915760405162461bcd60e51b815260206004820152602b60248201527f496e697469616c697a61626c653a20636f6e7472616374206973206e6f74206960448201526a6e697469616c697a696e6760a81b606482015260840161060e565b6112626125c8565b60006114727f45cf7a9b20b47d492887b813085b48aa1988f1f482fe79948578452b4b4cbedd8a8a8a8a6040516020016113cb9291906135ef565b6000611ddf8361263f565b90508060a0015115611e335760405162461bcd60e51b815260206004820152601d60248201527f417373657452657665616c3a20416c72656164792072657665616c6564000000604482015260640161060e565b600082116107cf5760405162461bcd60e51b815260206004820152601b60248201527f417373657452657665616c3a20496e76616c696420616d6f756e740000000000604482015260640161060e565b600061138b6126cc565b600080825167ffffffffffffffff811115611eaa57611eaa612bce565b604051908082528060200260200182016040528015611ed3578160200160208202803683370190505b50905060005b8351811015611f5157838181518110611ef457611ef461335b565b6020026020010151604051602001611f0c9190613a39565b60405160208183030381529060405280519060200120828281518110611f3457611f3461335b565b602090810291909101015280611f49816133d1565b915050611ed9565b5080604051602001611f639190613a55565b60405160208183030381529060405280519060200120915050919050565b600061054d611f8e61271f565b836040517f19010000000000000000000000000000000000000000000000000000000000008152600281019290925260228201526042902090565b60606000611fd68361263f565b90508060a001511561202a5760405162461bcd60e51b815260206004820152601d60248201527f417373657452657665616c3a20416c72656164792072657665616c6564000000604482015260640161060e565b60008467ffffffffffffffff81111561204557612045612bce565b60405190808252806020026020018201604052801561206e578160200160208202803683370190505b50905060005b858110156121c25761012f546000906001600160a01b031663fdda1d0e8989858181106120a3576120a361335b565b90506020028101906120b591906136ae565b6040518363ffffffff1660e01b81526004016120d2929190613a8b565b602060405180830381865afa1580156120ef573d6000803e3d6000fd5b505050506040513d601f19601f820116820180604052508101906121139190613a9f565b905080600003612191576020808501516001600160a01b0316600090815261013182526040808220898352909252908120805482906121559061ffff16613ab8565b91906101000a81548161ffff021916908361ffff1602179055905061218d856020015186606001518760800151848960e00151612729565b9150505b808383815181106121a4576121a461335b565b602090810291909101015250806121ba816133d1565b915050612074565b5095945050505050565b60008281526065602090815260408083206001600160a01b038516845290915290205460ff1661086c576121ff81612776565b61220a836020612788565b60405160200161221b929190613ad9565b60408051601f198184030181529082905262461bcd60e51b825261060e91600401613b5a565b60fd5460ff166112625760405162461bcd60e51b815260206004820152601460248201527f5061757361626c653a206e6f7420706175736564000000000000000000000000604482015260640161060e565b600080825167ffffffffffffffff8111156122b0576122b0612bce565b6040519080825280602002602001820160405280156122d9578160200160208202803683370190505b50905060005b8351811015611f51578381815181106122fa576122fa61335b565b60200260200101516040516020016123129190613a55565b6040516020818303038152906040528051906020012082828151811061233a5761233a61335b565b60209081029190910101528061234f816133d1565b9150506122df565b600080825167ffffffffffffffff81111561237457612374612bce565b60405190808252806020026020018201604052801561239d578160200160208202803683370190505b50905060005b8351811015611f51576123ce8482815181106123c1576123c161335b565b6020026020010151611e8d565b8282815181106123e0576123e061335b565b6020908102919091010152806123f5816133d1565b9150506123a3565b600080825167ffffffffffffffff81111561241a5761241a612bce565b604051908082528060200260200182016040528015612443578160200160208202803683370190505b50905060005b8351811015611f51578381815181106124645761246461335b565b602002602001015160405160200161247c9190613a55565b604051602081830303815290604052805190602001208282815181106124a4576124a461335b565b6020908102919091010152806124b9816133d1565b915050612449565b600054610100900460ff1661252c5760405162461bcd60e51b815260206004820152602b60248201527f496e697469616c697a61626c653a20636f6e7472616374206973206e6f74206960448201526a6e697469616c697a696e6760a81b606482015260840161060e565b6108a281611ace565b600054610100900460ff166125a05760405162461bcd60e51b815260206004820152602b60248201527f496e697469616c697a61626c653a20636f6e7472616374206973206e6f74206960448201526a6e697469616c697a696e6760a81b606482015260840161060e565b60cb6125ac8382613bb3565b5060cc6125b98282613bb3565b5050600060c981905560ca5550565b600054610100900460ff166126335760405162461bcd60e51b815260206004820152602b60248201527f496e697469616c697a61626c653a20636f6e7472616374206973206e6f74206960448201526a6e697469616c697a696e6760a81b606482015260840161060e565b60fd805460ff19169055565b604080516101008101825260008082529181018290526080810182905260a0808201839052606060c0830181905260e08301939093526001600160a01b038416602083015283901c60ff169181019190915261269a826129b8565b151560a08201526126af8260a81c61ffff1690565b61ffff16608082015260c89190911c60019081161460e082015290565b6097546000906001600160a01b0316331480156126ea575060143610155b1561271a57507fffffffffffffffffffffffffffffffffffffffffffffffffffffffffffffffec36013560601c90565b503390565b600061138b6129d6565b60008560c88361273a57600061273d565b60015b60ff16901b60b88561ffff16901b60a88761ffff16901b60a08960ff16901b846001600160a01b03161717171791505095945050505050565b606061054d6001600160a01b03831660145b60606000612797836002613c73565b6127a2906002613c8a565b67ffffffffffffffff8111156127ba576127ba612bce565b6040519080825280601f01601f1916602001820160405280156127e4576020820181803683370190505b5090507f30000000000000000000000000000000000000000000000000000000000000008160008151811061281b5761281b61335b565b60200101907effffffffffffffffffffffffffffffffffffffffffffffffffffffffffffff1916908160001a9053507f78000000000000000000000000000000000000000000000000000000000000008160018151811061287e5761287e61335b565b60200101907effffffffffffffffffffffffffffffffffffffffffffffffffffffffffffff1916908160001a90535060006128ba846002613c73565b6128c5906001613c8a565b90505b6001811115612962577f303132333435363738396162636465660000000000000000000000000000000085600f16601081106129065761290661335b565b1a60f81b82828151811061291c5761291c61335b565b60200101907effffffffffffffffffffffffffffffffffffffffffffffffffffffffffffff1916908160001a90535060049490941c9361295b81613c9d565b90506128c8565b5083156129b15760405162461bcd60e51b815260206004820181905260248201527f537472696e67733a20686578206c656e67746820696e73756666696369656e74604482015260640161060e565b9392505050565b6000806129c98360b81c61ffff1690565b61ffff1615159392505050565b60007f8b73c3c69bb8fe3d512ecc4cf759cc79239f7b179b0ffacaa9a75d522b39400f612a01612a4a565b612a09612aa3565b60408051602081019490945283019190915260608201524660808201523060a082015260c00160405160208183030381529060405280519060200120905090565b600080612a55611a2d565b805190915015612a6c578051602090910120919050565b60c9548015612a7b5792915050565b7fc5d2460186f7233c927e7db2dcc703c0e500b653ca82273b7bfad8045d85a4709250505090565b600080612aae611abf565b805190915015612ac5578051602090910120919050565b60ca548015612a7b5792915050565b600060208284031215612ae657600080fd5b81357fffffffff00000000000000000000000000000000000000000000000000000000811681146129b157600080fd5b60008083601f840112612b2857600080fd5b50813567ffffffffffffffff811115612b4057600080fd5b6020830191508360208260051b8501011115612b5b57600080fd5b9250929050565b60008060008060408587031215612b7857600080fd5b843567ffffffffffffffff80821115612b9057600080fd5b612b9c88838901612b16565b90965094506020870135915080821115612bb557600080fd5b50612bc287828801612b16565b95989497509550505050565b634e487b7160e01b600052604160045260246000fd5b604051601f8201601f1916810167ffffffffffffffff81118282101715612c0d57612c0d612bce565b604052919050565b600082601f830112612c2657600080fd5b813567ffffffffffffffff811115612c4057612c40612bce565b612c536020601f19601f84011601612be4565b818152846020838601011115612c6857600080fd5b816020850160208301376000918101602001919091529392505050565b60008060008060008060008060a0898b031215612ca157600080fd5b883567ffffffffffffffff80821115612cb957600080fd5b612cc58c838d01612c15565b995060208b0135985060408b0135915080821115612ce257600080fd5b612cee8c838d01612b16565b909850965060608b0135915080821115612d0757600080fd5b612d138c838d01612b16565b909650945060808b0135915080821115612d2c57600080fd5b50612d398b828c01612b16565b999c989b5096995094979396929594505050565b600060208284031215612d5f57600080fd5b5035919050565b80356001600160a01b0381168114612d7d57600080fd5b919050565b60008060408385031215612d9557600080fd5b82359150612da560208401612d66565b90509250929050565b60008083601f840112612dc057600080fd5b50813567ffffffffffffffff811115612dd857600080fd5b602083019150836020828501011115612b5b57600080fd5b60008060008060008060008060008060a08b8d031215612e0f57600080fd5b8a3567ffffffffffffffff80821115612e2757600080fd5b612e338e838f01612dae565b909c509a5060208d0135915080821115612e4c57600080fd5b612e588e838f01612b16565b909a50985060408d0135915080821115612e7157600080fd5b612e7d8e838f01612b16565b909850965060608d0135915080821115612e9657600080fd5b612ea28e838f01612b16565b909650945060808d0135915080821115612ebb57600080fd5b50612ec88d828e01612b16565b915080935050809150509295989b9194979a5092959850565b600060208284031215612ef357600080fd5b6129b182612d66565b60008060408385031215612f0f57600080fd5b50508035926020909101359150565b60005b83811015612f39578181015183820152602001612f21565b50506000910152565b60008151808452612f5a816020860160208601612f1e565b601f01601f19169290920160200192915050565b600081518084526020808501945080840160005b83811015612f9e57815187529582019590820190600101612f82565b509495945050505050565b7fff000000000000000000000000000000000000000000000000000000000000008816815260e060208201526000612fe460e0830189612f42565b8281036040840152612ff68189612f42565b90508660608401526001600160a01b03861660808401528460a084015282810360c084015261193a8185612f6e565b803560ff81168114612d7d57600080fd5b80151581146108a257600080fd5b6000806040838503121561305757600080fd5b61306083613025565b9150602083013561307081613036565b809150509250929050565b60008060008060008060c0878903121561309457600080fd5b863567ffffffffffffffff808211156130ac57600080fd5b6130b88a838b01612c15565b975060208901359150808211156130ce57600080fd5b506130db89828a01612c15565b9550506130ea60408801612d66565b93506130f860608801612d66565b925061310660808801612d66565b915061311460a08801612d66565b90509295509295509295565b60006020828403121561313257600080fd5b6129b182613025565b600080600080600080600080600060c08a8c03121561315957600080fd5b893567ffffffffffffffff8082111561317157600080fd5b61317d8d838e01612c15565b9a5060208c0135995060408c0135985060608c01359150808211156131a157600080fd5b6131ad8d838e01612b16565b909850965060808c01359150808211156131c657600080fd5b6131d28d838e01612b16565b909650945060a08c01359150808211156131eb57600080fd5b506131f88c828d01612b16565b915080935050809150509295985092959850929598565b81835260007f07ffffffffffffffffffffffffffffffffffffffffffffffffffffffffffffff83111561324157600080fd5b8260051b80836020870137939093016020019392505050565b60408152600061326e60408301868861320f565b828103602084015261328181858761320f565b979650505050505050565b60408152600061329f6040830185612f42565b90508260208301529392505050565b6000602082840312156132c057600080fd5b81516129b181613036565b8681526080602082015260006132e560808301878961320f565b82810360408401526132f78187612f6e565b9050828103606084015261147281858761320f565b818352818160208501375060006020828401015260006020601f19601f840116840101905092915050565b60408152600061334b60408301858761330c565b9050826020830152949350505050565b634e487b7160e01b600052603260045260246000fd5b6000808335601e1984360301811261338857600080fd5b83018035915067ffffffffffffffff8211156133a357600080fd5b6020019150600581901b3603821315612b5b57600080fd5b634e487b7160e01b600052601160045260246000fd5b600060001982036133e4576133e46133bb565b5060010190565b6000808335601e1984360301811261340257600080fd5b830160208101925035905067ffffffffffffffff81111561342257600080fd5b8060051b3603821315612b5b57600080fd5b81835260006020808501808196508560051b810191508460005b8781101561348457828403895261346582886133eb565b61347086828461320f565b9a87019a955050509084019060010161344e565b5091979650505050505050565b6080815260006134a560808301898b61320f565b602083820381850152818883528183019050818960051b8401018a60005b8b8110156134fd57601f198684030184526134de828e6133eb565b6134e985828461320f565b9587019594505050908401906001016134c3565b50508581036040870152885180825283820194509150600582901b81018301838a0160005b8481101561355057601f1984840301875261353e838351612f6e565b96860196925090850190600101613522565b5050868103606088015261356581898b613434565b9e9d5050505050505050505050505050565b6001600160a01b038616815260606020820152600061359a60608301868861320f565b82810360408401526116bc81858761320f565b60007f07ffffffffffffffffffffffffffffffffffffffffffffffffffffffffffffff8311156135dc57600080fd5b8260051b80838637939093019392505050565b60006135fc8284866135ad565b949350505050565b600067ffffffffffffffff82111561361e5761361e612bce565b5060051b60200190565b600061363b61363684613604565b612be4565b8381529050602080820190600585901b84018681111561365a57600080fd5b845b8181101561369657803567ffffffffffffffff81111561367c5760008081fd5b61368889828901612c15565b85525092820192820161365c565b505050509392505050565b60006129b1368484613628565b6000808335601e198436030181126136c557600080fd5b83018035915067ffffffffffffffff8211156136e057600080fd5b602001915036819003821315612b5b57600080fd5b6001600160a01b038616815284602082015283604082015260806060820152600061328160808301848661330c565b6001600160a01b0387168152600060206080818401526137476080840189612f6e565b838103604085015261375a81888a61320f565b84810360608601528581529050818101600586901b820183018760005b888110156137e657601f198584030184528135601e198b360301811261379c57600080fd5b8a01868101903567ffffffffffffffff8111156137b857600080fd5b8036038213156137c757600080fd5b6137d285828461330c565b958801959450505090850190600101613777565b50909c9b505050505050505050505050565b600061380661363684613604565b83815260208082019190600586811b86013681111561382457600080fd5b865b818110156138b157803567ffffffffffffffff8111156138465760008081fd5b880136601f8201126138585760008081fd5b803561386661363682613604565b81815290851b820186019086810190368311156138835760008081fd5b928701925b828410156138a157833582529287019290870190613888565b8952505050948301948301613826565b5092979650505050505050565b60006138cc61363684613604565b80848252602080830192508560051b8501368111156138ea57600080fd5b855b8181101561393a57803567ffffffffffffffff81111561390c5760008081fd5b870136601f82011261391e5760008081fd5b61392c368235868401613628565b8652509382019382016138ec565b50919695505050505050565b600061395461363684613604565b83815260208082019190600586811b86013681111561397257600080fd5b865b818110156138b157803567ffffffffffffffff8111156139945760008081fd5b880136601f8201126139a65760008081fd5b80356139b461363682613604565b81815290851b820186019086810190368311156139d15760008081fd5b928701925b828410156139ef578335825292870192908701906139d6565b8952505050948301948301613974565b600181811c90821680613a1357607f821691505b602082108103613a3357634e487b7160e01b600052602260045260246000fd5b50919050565b60008251613a4b818460208701612f1e565b9190910192915050565b815160009082906020808601845b83811015613a7f57815185529382019390820190600101613a63565b50929695505050505050565b6020815260006135fc60208301848661330c565b600060208284031215613ab157600080fd5b5051919050565b600061ffff808316818103613acf57613acf6133bb565b6001019392505050565b7f416363657373436f6e74726f6c3a206163636f756e7420000000000000000000815260008351613b11816017850160208801612f1e565b7f206973206d697373696e6720726f6c65200000000000000000000000000000006017918401918201528351613b4e816028840160208801612f1e565b01602801949350505050565b6020815260006129b16020830184612f42565b601f8211156107cf57600081815260208120601f850160051c81016020861015613b945750805b601f850160051c820191505b818110156119e757828155600101613ba0565b815167ffffffffffffffff811115613bcd57613bcd612bce565b613be181613bdb84546139ff565b84613b6d565b602080601f831160018114613c165760008415613bfe5750858301515b600019600386901b1c1916600185901b1785556119e7565b600085815260208120601f198616915b82811015613c4557888601518255948401946001909101908401613c26565b5085821015613c635787850151600019600388901b60f8161c191681555b5050505050600190811b01905550565b808202811582820484141761054d5761054d6133bb565b8082018082111561054d5761054d6133bb565b600081613cac57613cac6133bb565b50600019019056fea2646970667358221220f05ad7d44e260459dfb1e3041191db82c4b254a4059000667067959881cb865f64736f6c63430008120033",
  "devdoc": {
    "author": "The Sandbox",
    "events": {
      "EIP712DomainChanged()": {
        "details": "MAY be emitted to signal that the domain could have changed."
      },
      "Initialized(uint8)": {
        "details": "Triggered when the contract has been initialized or reinitialized."
      },
      "Paused(address)": {
        "details": "Emitted when the pause is triggered by `account`."
      },
      "RoleAdminChanged(bytes32,bytes32,bytes32)": {
        "details": "Emitted when `newAdminRole` is set as ``role``'s admin role, replacing `previousAdminRole` `DEFAULT_ADMIN_ROLE` is the starting admin for all roles, despite {RoleAdminChanged} not being emitted signaling this. _Available since v3.1._"
      },
      "RoleGranted(bytes32,address,address)": {
        "details": "Emitted when `account` is granted `role`. `sender` is the account that originated the contract call, an admin role bearer except when using {AccessControl-_setupRole}."
      },
      "RoleRevoked(bytes32,address,address)": {
        "details": "Emitted when `account` is revoked `role`. `sender` is the account that originated the contract call:   - if using `revokeRole`, it is the admin role bearer   - if using `renounceRole`, it is the role bearer (i.e. `account`)"
      },
      "TrustedForwarderSet(address,address,address)": {
        "params": {
          "newTrustedForwarder": "new trusted forwarder",
          "oldTrustedForwarder": "old trusted forwarder",
          "operator": "the sender of the transaction"
        }
      },
      "Unpaused(address)": {
        "details": "Emitted when the pause is lifted by `account`."
      }
    },
    "kind": "dev",
    "methods": {
      "burnAndReveal(bytes,uint256,uint256,uint256[],string[],bytes32[])": {
        "details": "Should be used where it is not required to keep the metadata secret, e.g. mythical assets where users select their desired abilities and enhancements",
        "params": {
          "amounts": "The amount of assets to reveal (sum must be equal to the burnAmount)",
          "burnAmount": "The amount of assets to burn",
          "metadataHashes": "The array of hashes for asset metadata",
          "prevTokenId": "The tokenId of the unrevealed asset",
          "revealHashes": "A revealHash array providing a random bytes32 generated by the TSB backend for each new tokenId",
          "signature": "Signature created on the TSB backend containing INSTANT_REVEAL_TYPEHASH and associated data, must be signed by authorized signer"
        }
      },
      "constructor": {
        "custom:oz-upgrades-unsafe-allow": "constructor"
      },
      "eip712Domain()": {
        "details": "See {EIP-5267}. _Available since v4.9._"
      },
      "getAssetContract()": {
        "returns": {
          "assetContractAddres": "The asset contract address"
        }
      },
      "getAuthValidator()": {
        "returns": {
          "authValidatorContractAddress": "The auth validator address"
        }
      },
      "getRoleAdmin(bytes32)": {
        "details": "Returns the admin role that controls `role`. See {grantRole} and {revokeRole}. To change a role's admin, use {_setRoleAdmin}."
      },
      "getTierInstantRevealAllowed(uint8)": {
        "params": {
          "tier": "The tier to check"
        },
        "returns": {
          "instantRevealAllowed": "Boolean representing whether instant reveal is allowed for the given tier"
        }
      },
      "getTrustedForwarder()": {
        "returns": {
          "_0": "return the address of the trusted forwarder"
        }
      },
      "grantRole(bytes32,address)": {
        "details": "Grants `role` to `account`. If `account` had not been already granted `role`, emits a {RoleGranted} event. Requirements: - the caller must have ``role``'s admin role. May emit a {RoleGranted} event."
      },
      "hasRole(bytes32,address)": {
        "details": "Returns `true` if `account` has been granted `role`."
      },
      "initialize(string,string,address,address,address,address)": {
        "params": {
          "_assetContract": "The address of the asset contract",
          "_authValidator": "The address of the AuthSuperValidator contract",
          "_forwarder": "The address of the forwarder contract"
        }
      },
      "isTrustedForwarder(address)": {
        "params": {
          "forwarder": "trusted forwarder address to check"
        },
        "returns": {
          "_0": "true if the address is the same as the trusted forwarder"
        }
      },
      "paused()": {
        "details": "Returns true if the contract is paused, and false otherwise."
      },
      "renounceRole(bytes32,address)": {
        "details": "Revokes `role` from the calling account. Roles are often managed via {grantRole} and {revokeRole}: this function's purpose is to provide a mechanism for accounts to lose their privileges if they are compromised (such as when a trusted device is misplaced). If the calling account had been revoked `role`, emits a {RoleRevoked} event. Requirements: - the caller must be `account`. May emit a {RoleRevoked} event."
      },
      "revealBatchBurn(uint256[],uint256[])": {
        "details": "Can be used to burn multiple copies of the same token id, each copy will be revealed separately",
        "params": {
          "amounts": "the amounts of the assets to burn",
          "tokenIds": "the tokenIds of the assets to burn"
        }
      },
      "revealBatchMint(bytes,uint256[],uint256[][],string[][],bytes32[][])": {
        "details": "Can be used to reveal multiple copies of the same token id",
        "params": {
          "amounts": "The amount of assets to reveal (must be equal to the length of revealHashes)",
          "metadataHashes": "The array of hashes for asset metadata",
          "prevTokenIds": "The tokenId of the unrevealed asset",
          "revealHashes": "Array of revealHash arrays providing random bytes32 generated by the TSB backend for each new tokenId",
          "signature": "Signatures created on the TSB backend containing REVEAL_TYPEHASH and associated data, must be signed by authorized signer"
        }
      },
      "revealBurn(uint256,uint256)": {
        "details": "the reveal mechanism works through burning the asset and minting a new one with updated tokenId",
        "params": {
          "amount": "the amount of tokens to reveal",
          "tokenId": "the tokenId of id idasset to reveal"
        }
      },
      "revealHashUsed(bytes32)": {
        "returns": {
          "hashUsed": "Boolean representing whether the hash has been used"
        }
      },
      "revealMint(bytes,uint256,uint256[],string[],bytes32[])": {
        "details": "Can be used to reveal multiple copies of the same token id",
        "params": {
          "amounts": "The amount of assets to reveal (length reflects the number of types of reveal tokens and must be equal to the length of revealHashes)",
          "metadataHashes": "The array of hashes for revealed asset metadata",
          "prevTokenId": "The tokenId of the unrevealed asset",
          "revealHashes": "A revealHash array providing a random bytes32 generated by the TSB backend for each new tokenId",
          "signature": "Signature created on the TSB backend containing REVEAL_TYPEHASH and associated data, must be signed by authorized signer"
        }
      },
      "revokeRole(bytes32,address)": {
        "details": "Revokes `role` from `account`. If `account` had been granted `role`, emits a {RoleRevoked} event. Requirements: - the caller must have ``role``'s admin role. May emit a {RoleRevoked} event."
      },
      "setTierInstantRevealAllowed(uint8,bool)": {
        "params": {
          "allowed": "allow or disallow instant reveal for the given tier",
          "tier": "the tier to set the permission for"
        }
      },
      "setTrustedForwarder(address)": {
        "details": "Change the address of the trusted forwarder for meta-TX",
        "params": {
          "trustedForwarder": "The new trustedForwarder"
        }
      },
      "supportsInterface(bytes4)": {
        "details": "See {IERC165-supportsInterface}."
      }
    },
    "title": "AssetReveal",
    "version": 1
  },
  "userdoc": {
    "events": {
      "TrustedForwarderSet(address,address,address)": {
        "notice": "Emitted when a `newTrustedForwarder` is set, replacing the `oldTrustedForwarder`"
      }
    },
    "kind": "user",
    "methods": {
      "burnAndReveal(bytes,uint256,uint256,uint256[],string[],bytes32[])": {
        "notice": "Reveal assets to view their abilities and enhancements and mint them in a single transaction"
      },
      "getAssetContract()": {
        "notice": "Get the asset contract address"
      },
      "getAuthValidator()": {
        "notice": "Get the auth validator address"
      },
      "getTierInstantRevealAllowed(uint8)": {
        "notice": "Get permission for instant reveal for a given tier"
      },
      "getTrustedForwarder()": {
        "notice": "return the address of the trusted forwarder"
      },
      "initialize(string,string,address,address,address,address)": {
        "notice": "Initialize the contract"
      },
      "isTrustedForwarder(address)": {
        "notice": "return true if the forwarder is the trusted forwarder"
      },
      "pause()": {
        "notice": "Pause the contracts mint and burn functions"
      },
      "revealBatchBurn(uint256[],uint256[])": {
        "notice": "Burn multiple assets to be able to reveal them later"
      },
      "revealBatchMint(bytes,uint256[],uint256[][],string[][],bytes32[][])": {
        "notice": "Mint multiple assets with revealed abilities and enhancements"
      },
      "revealBurn(uint256,uint256)": {
        "notice": "Reveal an asset to view its abilities and enhancements"
      },
      "revealHashUsed(bytes32)": {
        "notice": "Get the status of a revealHash"
      },
      "revealMint(bytes,uint256,uint256[],string[],bytes32[])": {
        "notice": "Reveal assets to view their abilities and enhancements"
      },
      "setTierInstantRevealAllowed(uint8,bool)": {
        "notice": "Set permission for instant reveal for a given tier"
      },
      "setTrustedForwarder(address)": {
        "notice": "Set a new trusted forwarder address, limited to DEFAULT_ADMIN_ROLE only"
      },
      "unpause()": {
        "notice": "Unpause the contracts mint and burn functions"
      }
    },
    "notice": "Contract for burning and revealing assets",
    "version": 1
  },
  "storageLayout": {
    "storage": [
      {
        "astId": 502,
        "contract": "@sandbox-smart-contracts/asset/contracts/AssetReveal.sol:AssetReveal",
        "label": "_initialized",
        "offset": 0,
        "slot": "0",
        "type": "t_uint8"
      },
      {
        "astId": 505,
        "contract": "@sandbox-smart-contracts/asset/contracts/AssetReveal.sol:AssetReveal",
        "label": "_initializing",
        "offset": 1,
        "slot": "0",
        "type": "t_bool"
      },
      {
        "astId": 2965,
        "contract": "@sandbox-smart-contracts/asset/contracts/AssetReveal.sol:AssetReveal",
        "label": "__gap",
        "offset": 0,
        "slot": "1",
        "type": "t_array(t_uint256)50_storage"
      },
      {
        "astId": 3888,
        "contract": "@sandbox-smart-contracts/asset/contracts/AssetReveal.sol:AssetReveal",
        "label": "__gap",
        "offset": 0,
        "slot": "51",
        "type": "t_array(t_uint256)50_storage"
      },
      {
        "astId": 82,
        "contract": "@sandbox-smart-contracts/asset/contracts/AssetReveal.sol:AssetReveal",
        "label": "_roles",
        "offset": 0,
        "slot": "101",
        "type": "t_mapping(t_bytes32,t_struct(RoleData)77_storage)"
      },
      {
        "astId": 377,
        "contract": "@sandbox-smart-contracts/asset/contracts/AssetReveal.sol:AssetReveal",
        "label": "__gap",
        "offset": 0,
        "slot": "102",
        "type": "t_array(t_uint256)49_storage"
      },
      {
        "astId": 11744,
        "contract": "@sandbox-smart-contracts/asset/contracts/AssetReveal.sol:AssetReveal",
        "label": "_trustedForwarder",
        "offset": 0,
        "slot": "151",
        "type": "t_address"
      },
      {
        "astId": 11855,
        "contract": "@sandbox-smart-contracts/asset/contracts/AssetReveal.sol:AssetReveal",
        "label": "__gap",
        "offset": 0,
        "slot": "152",
        "type": "t_array(t_uint256)49_storage"
      },
      {
        "astId": 3579,
        "contract": "@sandbox-smart-contracts/asset/contracts/AssetReveal.sol:AssetReveal",
        "label": "_hashedName",
        "offset": 0,
        "slot": "201",
        "type": "t_bytes32"
      },
      {
        "astId": 3582,
        "contract": "@sandbox-smart-contracts/asset/contracts/AssetReveal.sol:AssetReveal",
        "label": "_hashedVersion",
        "offset": 0,
        "slot": "202",
        "type": "t_bytes32"
      },
      {
        "astId": 3584,
        "contract": "@sandbox-smart-contracts/asset/contracts/AssetReveal.sol:AssetReveal",
        "label": "_name",
        "offset": 0,
        "slot": "203",
        "type": "t_string_storage"
      },
      {
        "astId": 3586,
        "contract": "@sandbox-smart-contracts/asset/contracts/AssetReveal.sol:AssetReveal",
        "label": "_version",
        "offset": 0,
        "slot": "204",
        "type": "t_string_storage"
      },
      {
        "astId": 3844,
        "contract": "@sandbox-smart-contracts/asset/contracts/AssetReveal.sol:AssetReveal",
        "label": "__gap",
        "offset": 0,
        "slot": "205",
        "type": "t_array(t_uint256)48_storage"
      },
      {
        "astId": 685,
        "contract": "@sandbox-smart-contracts/asset/contracts/AssetReveal.sol:AssetReveal",
        "label": "_paused",
        "offset": 0,
        "slot": "253",
        "type": "t_bool"
      },
      {
        "astId": 790,
        "contract": "@sandbox-smart-contracts/asset/contracts/AssetReveal.sol:AssetReveal",
        "label": "__gap",
        "offset": 0,
        "slot": "254",
        "type": "t_array(t_uint256)49_storage"
      },
      {
        "astId": 8421,
        "contract": "@sandbox-smart-contracts/asset/contracts/AssetReveal.sol:AssetReveal",
        "label": "assetContract",
        "offset": 0,
        "slot": "303",
        "type": "t_contract(IAsset)10610"
      },
      {
        "astId": 8424,
        "contract": "@sandbox-smart-contracts/asset/contracts/AssetReveal.sol:AssetReveal",
        "label": "authValidator",
        "offset": 0,
        "slot": "304",
        "type": "t_contract(AuthSuperValidator)9788"
      },
      {
        "astId": 8430,
        "contract": "@sandbox-smart-contracts/asset/contracts/AssetReveal.sol:AssetReveal",
        "label": "revealIds",
        "offset": 0,
        "slot": "305",
        "type": "t_mapping(t_address,t_mapping(t_uint256,t_uint16))"
      },
      {
        "astId": 8434,
        "contract": "@sandbox-smart-contracts/asset/contracts/AssetReveal.sol:AssetReveal",
        "label": "revealHashesUsed",
        "offset": 0,
        "slot": "306",
        "type": "t_mapping(t_bytes32,t_bool)"
      },
      {
        "astId": 8438,
        "contract": "@sandbox-smart-contracts/asset/contracts/AssetReveal.sol:AssetReveal",
        "label": "tierInstantRevealAllowed",
        "offset": 0,
        "slot": "307",
        "type": "t_mapping(t_uint8,t_bool)"
      }
    ],
    "types": {
      "t_address": {
        "encoding": "inplace",
        "label": "address",
        "numberOfBytes": "20"
      },
      "t_array(t_uint256)48_storage": {
        "base": "t_uint256",
        "encoding": "inplace",
        "label": "uint256[48]",
        "numberOfBytes": "1536"
      },
      "t_array(t_uint256)49_storage": {
        "base": "t_uint256",
        "encoding": "inplace",
        "label": "uint256[49]",
        "numberOfBytes": "1568"
      },
      "t_array(t_uint256)50_storage": {
        "base": "t_uint256",
        "encoding": "inplace",
        "label": "uint256[50]",
        "numberOfBytes": "1600"
      },
      "t_bool": {
        "encoding": "inplace",
        "label": "bool",
        "numberOfBytes": "1"
      },
      "t_bytes32": {
        "encoding": "inplace",
        "label": "bytes32",
        "numberOfBytes": "32"
      },
      "t_contract(AuthSuperValidator)9788": {
        "encoding": "inplace",
        "label": "contract AuthSuperValidator",
        "numberOfBytes": "20"
      },
      "t_contract(IAsset)10610": {
        "encoding": "inplace",
        "label": "contract IAsset",
        "numberOfBytes": "20"
      },
      "t_mapping(t_address,t_bool)": {
        "encoding": "mapping",
        "key": "t_address",
        "label": "mapping(address => bool)",
        "numberOfBytes": "32",
        "value": "t_bool"
      },
      "t_mapping(t_address,t_mapping(t_uint256,t_uint16))": {
        "encoding": "mapping",
        "key": "t_address",
        "label": "mapping(address => mapping(uint256 => uint16))",
        "numberOfBytes": "32",
        "value": "t_mapping(t_uint256,t_uint16)"
      },
      "t_mapping(t_bytes32,t_bool)": {
        "encoding": "mapping",
        "key": "t_bytes32",
        "label": "mapping(bytes32 => bool)",
        "numberOfBytes": "32",
        "value": "t_bool"
      },
      "t_mapping(t_bytes32,t_struct(RoleData)77_storage)": {
        "encoding": "mapping",
        "key": "t_bytes32",
        "label": "mapping(bytes32 => struct AccessControlUpgradeable.RoleData)",
        "numberOfBytes": "32",
        "value": "t_struct(RoleData)77_storage"
      },
      "t_mapping(t_uint256,t_uint16)": {
        "encoding": "mapping",
        "key": "t_uint256",
        "label": "mapping(uint256 => uint16)",
        "numberOfBytes": "32",
        "value": "t_uint16"
      },
      "t_mapping(t_uint8,t_bool)": {
        "encoding": "mapping",
        "key": "t_uint8",
        "label": "mapping(uint8 => bool)",
        "numberOfBytes": "32",
        "value": "t_bool"
      },
      "t_string_storage": {
        "encoding": "bytes",
        "label": "string",
        "numberOfBytes": "32"
      },
      "t_struct(RoleData)77_storage": {
        "encoding": "inplace",
        "label": "struct AccessControlUpgradeable.RoleData",
        "members": [
          {
            "astId": 74,
            "contract": "@sandbox-smart-contracts/asset/contracts/AssetReveal.sol:AssetReveal",
            "label": "members",
            "offset": 0,
            "slot": "0",
            "type": "t_mapping(t_address,t_bool)"
          },
          {
            "astId": 76,
            "contract": "@sandbox-smart-contracts/asset/contracts/AssetReveal.sol:AssetReveal",
            "label": "adminRole",
            "offset": 0,
            "slot": "1",
            "type": "t_bytes32"
          }
        ],
        "numberOfBytes": "64"
      },
      "t_uint16": {
        "encoding": "inplace",
        "label": "uint16",
        "numberOfBytes": "2"
      },
      "t_uint256": {
        "encoding": "inplace",
        "label": "uint256",
        "numberOfBytes": "32"
      },
      "t_uint8": {
        "encoding": "inplace",
        "label": "uint8",
        "numberOfBytes": "1"
      }
    }
  }
}