{
  "address": "0x80160a8f1A98cb387ae8e46E8C10931EEF07a490",
  "abi": [
    {
      "inputs": [],
      "stateMutability": "nonpayable",
      "type": "constructor"
    },
    {
      "anonymous": false,
      "inputs": [
        {
          "indexed": true,
          "internalType": "address",
          "name": "account",
          "type": "address"
        },
        {
          "indexed": true,
          "internalType": "address",
          "name": "operator",
          "type": "address"
        },
        {
          "indexed": false,
          "internalType": "bool",
          "name": "approved",
          "type": "bool"
        }
      ],
      "name": "ApprovalForAll",
      "type": "event"
    },
    {
      "anonymous": false,
      "inputs": [
        {
          "indexed": false,
          "internalType": "uint16",
          "name": "royaltyBPS",
          "type": "uint16"
        }
      ],
      "name": "DefaultRoyaltyBpsSet",
      "type": "event"
    },
    {
      "anonymous": false,
      "inputs": [
        {
          "indexed": false,
          "internalType": "address",
          "name": "recipient",
          "type": "address"
        }
      ],
      "name": "DefaultRoyaltyReceiverSet",
      "type": "event"
    },
    {
      "anonymous": false,
      "inputs": [
        {
          "indexed": false,
          "internalType": "uint8",
          "name": "version",
          "type": "uint8"
        }
      ],
      "name": "Initialized",
      "type": "event"
    },
    {
      "anonymous": false,
      "inputs": [
        {
          "indexed": true,
          "internalType": "bytes32",
          "name": "role",
          "type": "bytes32"
        },
        {
          "indexed": true,
          "internalType": "bytes32",
          "name": "previousAdminRole",
          "type": "bytes32"
        },
        {
          "indexed": true,
          "internalType": "bytes32",
          "name": "newAdminRole",
          "type": "bytes32"
        }
      ],
      "name": "RoleAdminChanged",
      "type": "event"
    },
    {
      "anonymous": false,
      "inputs": [
        {
          "indexed": true,
          "internalType": "bytes32",
          "name": "role",
          "type": "bytes32"
        },
        {
          "indexed": true,
          "internalType": "address",
          "name": "account",
          "type": "address"
        },
        {
          "indexed": true,
          "internalType": "address",
          "name": "sender",
          "type": "address"
        }
      ],
      "name": "RoleGranted",
      "type": "event"
    },
    {
      "anonymous": false,
      "inputs": [
        {
          "indexed": true,
          "internalType": "bytes32",
          "name": "role",
          "type": "bytes32"
        },
        {
          "indexed": true,
          "internalType": "address",
          "name": "account",
          "type": "address"
        },
        {
          "indexed": true,
          "internalType": "address",
          "name": "sender",
          "type": "address"
        }
      ],
      "name": "RoleRevoked",
      "type": "event"
    },
    {
      "anonymous": false,
      "inputs": [
        {
          "indexed": false,
          "internalType": "address",
          "name": "splitter",
          "type": "address"
        },
        {
          "indexed": false,
          "internalType": "address",
          "name": "recipient",
          "type": "address"
        }
      ],
      "name": "RoyaltyRecipientSet",
      "type": "event"
    },
    {
      "anonymous": false,
      "inputs": [
        {
          "indexed": false,
          "internalType": "uint256",
          "name": "tokenId",
          "type": "uint256"
        }
      ],
      "name": "TokenRoyaltyRemoved",
      "type": "event"
    },
    {
      "anonymous": false,
      "inputs": [
        {
          "indexed": false,
          "internalType": "uint256",
          "name": "tokenId",
          "type": "uint256"
        },
        {
          "indexed": false,
          "internalType": "address",
          "name": "recipient",
          "type": "address"
        }
      ],
      "name": "TokenRoyaltySet",
      "type": "event"
    },
    {
      "anonymous": false,
      "inputs": [
        {
          "indexed": true,
          "internalType": "address",
          "name": "operator",
          "type": "address"
        },
        {
          "indexed": true,
          "internalType": "address",
          "name": "from",
          "type": "address"
        },
        {
          "indexed": true,
          "internalType": "address",
          "name": "to",
          "type": "address"
        },
        {
          "indexed": false,
          "internalType": "uint256[]",
          "name": "ids",
          "type": "uint256[]"
        },
        {
          "indexed": false,
          "internalType": "uint256[]",
          "name": "values",
          "type": "uint256[]"
        }
      ],
      "name": "TransferBatch",
      "type": "event"
    },
    {
      "anonymous": false,
      "inputs": [
        {
          "indexed": true,
          "internalType": "address",
          "name": "operator",
          "type": "address"
        },
        {
          "indexed": true,
          "internalType": "address",
          "name": "from",
          "type": "address"
        },
        {
          "indexed": true,
          "internalType": "address",
          "name": "to",
          "type": "address"
        },
        {
          "indexed": false,
          "internalType": "uint256",
          "name": "id",
          "type": "uint256"
        },
        {
          "indexed": false,
          "internalType": "uint256",
          "name": "value",
          "type": "uint256"
        }
      ],
      "name": "TransferSingle",
      "type": "event"
    },
    {
      "anonymous": false,
      "inputs": [
        {
          "indexed": true,
          "internalType": "address",
          "name": "newTrustedForwarderAddress",
          "type": "address"
        }
      ],
      "name": "TrustedForwarderChanged",
      "type": "event"
    },
    {
      "anonymous": false,
      "inputs": [
        {
          "indexed": false,
          "internalType": "string",
          "name": "value",
          "type": "string"
        },
        {
          "indexed": true,
          "internalType": "uint256",
          "name": "id",
          "type": "uint256"
        }
      ],
      "name": "URI",
      "type": "event"
    },
    {
      "inputs": [],
      "name": "BURNER_ROLE",
      "outputs": [
        {
          "internalType": "bytes32",
          "name": "",
          "type": "bytes32"
        }
      ],
      "stateMutability": "view",
      "type": "function"
    },
    {
      "inputs": [],
      "name": "DEFAULT_ADMIN_ROLE",
      "outputs": [
        {
          "internalType": "bytes32",
          "name": "",
          "type": "bytes32"
        }
      ],
      "stateMutability": "view",
      "type": "function"
    },
    {
      "inputs": [],
      "name": "MINTER_ROLE",
      "outputs": [
        {
          "internalType": "bytes32",
          "name": "",
          "type": "bytes32"
        }
      ],
      "stateMutability": "view",
      "type": "function"
    },
    {
      "inputs": [],
      "name": "MODERATOR_ROLE",
      "outputs": [
        {
          "internalType": "bytes32",
          "name": "",
          "type": "bytes32"
        }
      ],
      "stateMutability": "view",
      "type": "function"
    },
    {
      "inputs": [
        {
          "internalType": "uint256",
          "name": "",
          "type": "uint256"
        }
      ],
      "name": "_tokenRoyaltiesSplitter",
      "outputs": [
        {
          "internalType": "address payable",
          "name": "",
          "type": "address"
        }
      ],
      "stateMutability": "view",
      "type": "function"
    },
    {
      "inputs": [
        {
          "internalType": "address",
          "name": "account",
          "type": "address"
        },
        {
          "internalType": "uint256",
          "name": "id",
          "type": "uint256"
        }
      ],
      "name": "balanceOf",
      "outputs": [
        {
          "internalType": "uint256",
          "name": "",
          "type": "uint256"
        }
      ],
      "stateMutability": "view",
      "type": "function"
    },
    {
      "inputs": [
        {
          "internalType": "address[]",
          "name": "accounts",
          "type": "address[]"
        },
        {
          "internalType": "uint256[]",
          "name": "ids",
          "type": "uint256[]"
        }
      ],
      "name": "balanceOfBatch",
      "outputs": [
        {
          "internalType": "uint256[]",
          "name": "",
          "type": "uint256[]"
        }
      ],
      "stateMutability": "view",
      "type": "function"
    },
    {
      "inputs": [
        {
          "internalType": "address",
          "name": "account",
          "type": "address"
        },
        {
          "internalType": "uint256",
          "name": "id",
          "type": "uint256"
        },
        {
          "internalType": "uint256",
          "name": "value",
          "type": "uint256"
        }
      ],
      "name": "burn",
      "outputs": [],
      "stateMutability": "nonpayable",
      "type": "function"
    },
    {
      "inputs": [
        {
          "internalType": "address",
          "name": "account",
          "type": "address"
        },
        {
          "internalType": "uint256[]",
          "name": "ids",
          "type": "uint256[]"
        },
        {
          "internalType": "uint256[]",
          "name": "values",
          "type": "uint256[]"
        }
      ],
      "name": "burnBatch",
      "outputs": [],
      "stateMutability": "nonpayable",
      "type": "function"
    },
    {
      "inputs": [
        {
          "internalType": "address",
          "name": "account",
          "type": "address"
        },
        {
          "internalType": "uint256[]",
          "name": "ids",
          "type": "uint256[]"
        },
        {
          "internalType": "uint256[]",
          "name": "amounts",
          "type": "uint256[]"
        }
      ],
      "name": "burnBatchFrom",
      "outputs": [],
      "stateMutability": "nonpayable",
      "type": "function"
    },
    {
      "inputs": [
        {
          "internalType": "address",
          "name": "account",
          "type": "address"
        },
        {
          "internalType": "uint256",
          "name": "id",
          "type": "uint256"
        },
        {
          "internalType": "uint256",
          "name": "amount",
          "type": "uint256"
        }
      ],
      "name": "burnFrom",
      "outputs": [],
      "stateMutability": "nonpayable",
      "type": "function"
    },
    {
      "inputs": [
        {
          "internalType": "uint256",
          "name": "id",
          "type": "uint256"
        }
      ],
      "name": "exists",
      "outputs": [
        {
          "internalType": "bool",
          "name": "",
          "type": "bool"
        }
      ],
      "stateMutability": "view",
      "type": "function"
    },
    {
      "inputs": [],
      "name": "getAllSplits",
      "outputs": [
        {
          "internalType": "address payable[]",
          "name": "splits",
          "type": "address[]"
        }
      ],
      "stateMutability": "view",
      "type": "function"
    },
    {
      "inputs": [
        {
          "internalType": "uint256",
          "name": "tokenId",
          "type": "uint256"
        }
      ],
      "name": "getCreatorAddress",
      "outputs": [
        {
          "internalType": "address",
          "name": "creator",
          "type": "address"
        }
      ],
      "stateMutability": "pure",
      "type": "function"
    },
    {
      "inputs": [
        {
          "internalType": "uint256",
          "name": "tokenId",
          "type": "uint256"
        }
      ],
      "name": "getCreatorNonce",
      "outputs": [
        {
          "internalType": "uint16",
          "name": "",
          "type": "uint16"
        }
      ],
      "stateMutability": "pure",
      "type": "function"
    },
    {
      "inputs": [
        {
          "internalType": "uint256",
          "name": "tokenId",
          "type": "uint256"
        }
      ],
      "name": "getRecipients",
      "outputs": [
        {
          "components": [
            {
              "internalType": "address payable",
              "name": "recipient",
              "type": "address"
            },
            {
              "internalType": "uint16",
              "name": "bps",
              "type": "uint16"
            }
          ],
          "internalType": "struct Recipient[]",
          "name": "",
          "type": "tuple[]"
        }
      ],
      "stateMutability": "view",
      "type": "function"
    },
    {
      "inputs": [
        {
          "internalType": "uint256",
          "name": "tokenId",
          "type": "uint256"
        }
      ],
      "name": "getRevealNonce",
      "outputs": [
        {
          "internalType": "uint16",
          "name": "",
          "type": "uint16"
        }
      ],
      "stateMutability": "pure",
      "type": "function"
    },
    {
      "inputs": [
        {
          "internalType": "bytes32",
          "name": "role",
          "type": "bytes32"
        }
      ],
      "name": "getRoleAdmin",
      "outputs": [
        {
          "internalType": "bytes32",
          "name": "",
          "type": "bytes32"
        }
      ],
      "stateMutability": "view",
      "type": "function"
    },
    {
      "inputs": [
        {
          "internalType": "uint256",
          "name": "tokenId",
          "type": "uint256"
        }
      ],
      "name": "getTier",
      "outputs": [
        {
          "internalType": "uint8",
          "name": "tier",
          "type": "uint8"
        }
      ],
      "stateMutability": "pure",
      "type": "function"
    },
    {
      "inputs": [
        {
          "internalType": "string",
          "name": "metadataHash",
          "type": "string"
        }
      ],
      "name": "getTokenIdByMetadataHash",
      "outputs": [
        {
          "internalType": "uint256",
          "name": "",
          "type": "uint256"
        }
      ],
      "stateMutability": "view",
      "type": "function"
    },
    {
      "inputs": [],
      "name": "getTokenRoyalties",
      "outputs": [
        {
          "components": [
            {
              "internalType": "uint256",
              "name": "tokenId",
              "type": "uint256"
            },
            {
              "internalType": "uint16",
              "name": "royaltyBPS",
              "type": "uint16"
            },
            {
              "components": [
                {
                  "internalType": "address payable",
                  "name": "recipient",
                  "type": "address"
                },
                {
                  "internalType": "uint16",
                  "name": "bps",
                  "type": "uint16"
                }
              ],
              "internalType": "struct Recipient[]",
              "name": "recipients",
              "type": "tuple[]"
            }
          ],
          "internalType": "struct IMultiRoyaltyDistributor.TokenRoyaltyConfig[]",
          "name": "royaltyConfigs",
          "type": "tuple[]"
        }
      ],
      "stateMutability": "view",
      "type": "function"
    },
    {
      "inputs": [],
      "name": "getTrustedForwarder",
      "outputs": [
        {
          "internalType": "address",
          "name": "trustedForwarder",
          "type": "address"
        }
      ],
      "stateMutability": "view",
      "type": "function"
    },
    {
      "inputs": [
        {
          "internalType": "bytes32",
          "name": "role",
          "type": "bytes32"
        },
        {
          "internalType": "address",
          "name": "account",
          "type": "address"
        }
      ],
      "name": "grantRole",
      "outputs": [],
      "stateMutability": "nonpayable",
      "type": "function"
    },
    {
      "inputs": [
        {
          "internalType": "bytes32",
          "name": "role",
          "type": "bytes32"
        },
        {
          "internalType": "address",
          "name": "account",
          "type": "address"
        }
      ],
      "name": "hasRole",
      "outputs": [
        {
          "internalType": "bool",
          "name": "",
          "type": "bool"
        }
      ],
      "stateMutability": "view",
      "type": "function"
    },
    {
      "inputs": [
        {
          "internalType": "string",
          "name": "",
          "type": "string"
        }
      ],
      "name": "hashUsed",
      "outputs": [
        {
          "internalType": "uint256",
          "name": "",
          "type": "uint256"
        }
      ],
      "stateMutability": "view",
      "type": "function"
    },
    {
      "inputs": [
        {
          "internalType": "address",
          "name": "forwarder",
          "type": "address"
        },
        {
          "internalType": "address",
          "name": "assetAdmin",
          "type": "address"
        },
        {
          "internalType": "string",
          "name": "baseUri",
          "type": "string"
        },
        {
          "internalType": "address",
          "name": "commonSubscription",
          "type": "address"
        },
        {
          "internalType": "address",
          "name": "_manager",
          "type": "address"
        }
      ],
      "name": "initialize",
      "outputs": [],
      "stateMutability": "nonpayable",
      "type": "function"
    },
    {
      "inputs": [
        {
          "internalType": "address",
          "name": "account",
          "type": "address"
        },
        {
          "internalType": "address",
          "name": "operator",
          "type": "address"
        }
      ],
      "name": "isApprovedForAll",
      "outputs": [
        {
          "internalType": "bool",
          "name": "",
          "type": "bool"
        }
      ],
      "stateMutability": "view",
      "type": "function"
    },
    {
      "inputs": [
        {
          "internalType": "uint256",
          "name": "tokenId",
          "type": "uint256"
        }
      ],
      "name": "isBridged",
      "outputs": [
        {
          "internalType": "bool",
          "name": "",
          "type": "bool"
        }
      ],
      "stateMutability": "pure",
      "type": "function"
    },
    {
      "inputs": [
        {
          "internalType": "uint256",
          "name": "tokenId",
          "type": "uint256"
        }
      ],
      "name": "isRevealed",
      "outputs": [
        {
          "internalType": "bool",
          "name": "",
          "type": "bool"
        }
      ],
      "stateMutability": "pure",
      "type": "function"
    },
    {
      "inputs": [
        {
          "internalType": "address",
          "name": "forwarder",
          "type": "address"
        }
      ],
      "name": "isTrustedForwarder",
      "outputs": [
        {
          "internalType": "bool",
          "name": "",
          "type": "bool"
        }
      ],
      "stateMutability": "view",
      "type": "function"
    },
    {
      "inputs": [
        {
          "internalType": "address",
          "name": "to",
          "type": "address"
        },
        {
          "internalType": "uint256",
          "name": "id",
          "type": "uint256"
        },
        {
          "internalType": "uint256",
          "name": "amount",
          "type": "uint256"
        },
        {
          "internalType": "string",
          "name": "metadataHash",
          "type": "string"
        }
      ],
      "name": "mint",
      "outputs": [],
      "stateMutability": "nonpayable",
      "type": "function"
    },
    {
      "inputs": [
        {
          "internalType": "address",
          "name": "to",
          "type": "address"
        },
        {
          "internalType": "uint256[]",
          "name": "ids",
          "type": "uint256[]"
        },
        {
          "internalType": "uint256[]",
          "name": "amounts",
          "type": "uint256[]"
        },
        {
          "internalType": "string[]",
          "name": "metadataHashes",
          "type": "string[]"
        }
      ],
      "name": "mintBatch",
      "outputs": [],
      "stateMutability": "nonpayable",
      "type": "function"
    },
    {
      "inputs": [],
      "name": "operatorFilterRegistry",
      "outputs": [
        {
          "internalType": "contract IOperatorFilterRegistry",
          "name": "",
          "type": "address"
        }
      ],
      "stateMutability": "view",
      "type": "function"
    },
    {
      "inputs": [
        {
          "internalType": "address",
          "name": "subscriptionOrRegistrantToCopy",
          "type": "address"
        },
        {
          "internalType": "bool",
          "name": "subscribe",
          "type": "bool"
        }
      ],
      "name": "registerAndSubscribe",
      "outputs": [],
      "stateMutability": "nonpayable",
      "type": "function"
    },
    {
      "inputs": [
        {
          "internalType": "bytes32",
          "name": "role",
          "type": "bytes32"
        },
        {
          "internalType": "address",
          "name": "account",
          "type": "address"
        }
      ],
      "name": "renounceRole",
      "outputs": [],
      "stateMutability": "nonpayable",
      "type": "function"
    },
    {
      "inputs": [
        {
          "internalType": "bytes32",
          "name": "role",
          "type": "bytes32"
        },
        {
          "internalType": "address",
          "name": "account",
          "type": "address"
        }
      ],
      "name": "revokeRole",
      "outputs": [],
      "stateMutability": "nonpayable",
      "type": "function"
    },
    {
      "inputs": [
        {
          "internalType": "uint256",
          "name": "tokenId",
          "type": "uint256"
        },
        {
          "internalType": "uint256",
          "name": "value",
          "type": "uint256"
        }
      ],
      "name": "royaltyInfo",
      "outputs": [
        {
          "internalType": "address",
          "name": "",
          "type": "address"
        },
        {
          "internalType": "uint256",
          "name": "",
          "type": "uint256"
        }
      ],
      "stateMutability": "view",
      "type": "function"
    },
    {
      "inputs": [],
      "name": "royaltyManager",
      "outputs": [
        {
          "internalType": "address",
          "name": "",
          "type": "address"
        }
      ],
      "stateMutability": "view",
      "type": "function"
    },
    {
      "inputs": [
        {
          "internalType": "address",
          "name": "from",
          "type": "address"
        },
        {
          "internalType": "address",
          "name": "to",
          "type": "address"
        },
        {
          "internalType": "uint256[]",
          "name": "ids",
          "type": "uint256[]"
        },
        {
          "internalType": "uint256[]",
          "name": "amounts",
          "type": "uint256[]"
        },
        {
          "internalType": "bytes",
          "name": "data",
          "type": "bytes"
        }
      ],
      "name": "safeBatchTransferFrom",
      "outputs": [],
      "stateMutability": "nonpayable",
      "type": "function"
    },
    {
      "inputs": [
        {
          "internalType": "address",
          "name": "from",
          "type": "address"
        },
        {
          "internalType": "address",
          "name": "to",
          "type": "address"
        },
        {
          "internalType": "uint256",
          "name": "id",
          "type": "uint256"
        },
        {
          "internalType": "uint256",
          "name": "amount",
          "type": "uint256"
        },
        {
          "internalType": "bytes",
          "name": "data",
          "type": "bytes"
        }
      ],
      "name": "safeTransferFrom",
      "outputs": [],
      "stateMutability": "nonpayable",
      "type": "function"
    },
    {
      "inputs": [
        {
          "internalType": "address",
          "name": "operator",
          "type": "address"
        },
        {
          "internalType": "bool",
          "name": "approved",
          "type": "bool"
        }
      ],
      "name": "setApprovalForAll",
      "outputs": [],
      "stateMutability": "nonpayable",
      "type": "function"
    },
    {
      "inputs": [
        {
          "internalType": "string",
          "name": "baseURI",
          "type": "string"
        }
      ],
      "name": "setBaseURI",
      "outputs": [],
      "stateMutability": "nonpayable",
      "type": "function"
    },
    {
      "inputs": [
        {
          "internalType": "address",
          "name": "registry",
          "type": "address"
        }
      ],
      "name": "setOperatorRegistry",
      "outputs": [],
      "stateMutability": "nonpayable",
      "type": "function"
    },
    {
      "inputs": [
        {
          "internalType": "uint256",
          "name": "tokenId",
          "type": "uint256"
        },
        {
          "internalType": "address payable",
          "name": "recipient",
          "type": "address"
        },
        {
          "internalType": "address",
          "name": "creator",
          "type": "address"
        }
      ],
      "name": "setTokenRoyalties",
      "outputs": [],
      "stateMutability": "nonpayable",
      "type": "function"
    },
    {
      "inputs": [
        {
          "internalType": "uint256",
          "name": "tokenId",
          "type": "uint256"
        },
        {
          "internalType": "string",
          "name": "metadata",
          "type": "string"
        }
      ],
      "name": "setTokenURI",
      "outputs": [],
      "stateMutability": "nonpayable",
      "type": "function"
    },
    {
      "inputs": [
        {
          "internalType": "address",
          "name": "trustedForwarder",
          "type": "address"
        }
      ],
      "name": "setTrustedForwarder",
      "outputs": [],
      "stateMutability": "nonpayable",
      "type": "function"
    },
    {
      "inputs": [
        {
          "internalType": "bytes4",
          "name": "id",
          "type": "bytes4"
        }
      ],
      "name": "supportsInterface",
      "outputs": [
        {
          "internalType": "bool",
          "name": "",
          "type": "bool"
        }
      ],
      "stateMutability": "view",
      "type": "function"
    },
    {
      "inputs": [
        {
          "internalType": "uint256",
          "name": "id",
          "type": "uint256"
        }
      ],
      "name": "totalSupply",
      "outputs": [
        {
          "internalType": "uint256",
          "name": "",
          "type": "uint256"
        }
      ],
      "stateMutability": "view",
      "type": "function"
    },
    {
      "inputs": [
        {
          "internalType": "uint256",
          "name": "tokenId",
          "type": "uint256"
        }
      ],
      "name": "uri",
      "outputs": [
        {
          "internalType": "string",
          "name": "",
          "type": "string"
        }
      ],
      "stateMutability": "view",
      "type": "function"
    }
  ],
  "transactionHash": "0xce908acb88e5141bf28749f09b6a7aa64b3069553b4cc495b5cc7d0054303233",
  "args": [],
  "numDeployments": 1,
  "solcInputHash": "2c3b4b6dffad52d9ee7aef38c085eed3",
  "bytecode": "0x60806040523480156200001157600080fd5b506200001c62000022565b620000e3565b600054610100900460ff16156200008f5760405162461bcd60e51b815260206004820152602760248201527f496e697469616c697a61626c653a20636f6e747261637420697320696e697469604482015266616c697a696e6760c81b606482015260840160405180910390fd5b60005460ff90811614620000e1576000805460ff191660ff9081179091556040519081527f7f26b83ff96e1f2b6a682f133852f6798a09c465da95921460cefb38474024989060200160405180910390a15b565b614f2880620000f36000396000f3fe608060405234801561001057600080fd5b506004361061032a5760003560e01c806381de2dc2116101b2578063bb7fde71116100f9578063da742228116100a2578063f242432a1161007c578063f242432a1461081c578063f5298aca1461082f578063fd90e89714610842578063fdda1d0e1461086257600080fd5b8063da742228146107b9578063e985e9c5146107cc578063ee295d621461080857600080fd5b8063ce1b815f116100d3578063ce1b815f14610768578063d53913931461077f578063d547741f146107a657600080fd5b8063bb7fde7114610720578063bd85b03914610733578063befa66451461075357600080fd5b8063a22cb4651161015b578063abe3960311610135578063abe39603146106cd578063ac4a0fb6146106f9578063b0ccc31e1461070c57600080fd5b8063a22cb46514610694578063a30b4db9146106a7578063a55784ef146106ba57600080fd5b806397905c1e1161018c57806397905c1e146106645780639d28fb8614610679578063a217fddf1461068c57600080fd5b806381de2dc21461060557806391d1485414610618578063933f39581461065157600080fd5b806336568abe1161027657806355f804b31161021f5780636b566cb2116101f95780636b566cb214610589578063791459ea146105cb578063797669c9146105de57600080fd5b806355f804b31461053b578063572b6c051461054e5780636b20c4541461057657600080fd5b80634f124995116102505780634f124995146104f35780634f558e79146105065780635055fbc31461052857600080fd5b806336568abe1461049b5780634e1273f4146104ae5780634f062c5a146104ce57600080fd5b8063248a9ca3116102d85780632a55205a116102b25780632a55205a146104435780632eb2c2d6146104755780632f2ff15d1461048857600080fd5b8063248a9ca3146103d3578063282c51f3146103f65780632a41a3551461041d57600080fd5b8063124d91e511610309578063124d91e514610398578063162094c4146103ad57806320820ec3146103c057600080fd5b8062fdd58e1461032f57806301ffc9a7146103555780630e89341c14610378575b600080fd5b61034261033d366004613ed1565b610875565b6040519081526020015b60405180910390f35b610368610363366004613f13565b610923565b604051901515815260200161034c565b61038b610386366004613f30565b610995565b60405161034c9190613f99565b6103ab6103a6366004613fac565b6109a0565b005b6103ab6103bb3660046140be565b6109db565b6103ab6103ce36600461419a565b610a14565b6103426103e1366004613f30565b600090815260c9602052604090206001015490565b6103427f3c11d16cbaffd01df69ce1c404f6340ee057498f5f00246190ea54220576a84881565b61043061042b366004613f30565b610a49565b60405161ffff909116815260200161034c565b610456610451366004614210565b610a59565b604080516001600160a01b03909316835260208301919091520161034c565b6103ab610483366004614232565b610b7b565b6103ab6104963660046142e0565b610c86565b6103ab6104a93660046142e0565b610cab565b6104c16104bc366004614310565b610d47565b60405161034c919061440e565b6104e16104dc366004613f30565b610e85565b60405160ff909116815260200161034c565b6103ab610501366004614421565b610e94565b610368610514366004613f30565b600090815260fb6020526040902054151590565b610368610536366004613f30565b610eaa565b6103ab610549366004614463565b610eb5565b61036861055c366004614498565b6000546201000090046001600160a01b0390811691161490565b6103ab61058436600461419a565b610ec9565b6105b3610597366004613f30565b610161602052600090815260409020546001600160a01b031681565b6040516001600160a01b03909116815260200161034c565b6103ab6105d93660046144c3565b610f65565b6103427f71f3d55856e4058ed06ee057d79ada615f65cdf5f9ee88181b914225088f834f81565b610430610613366004613f30565b610ff6565b6103686106263660046142e0565b600091825260c9602090815260408084206001600160a01b0393909316845291905290205460ff1690565b61036861065f366004613f30565b611006565b61066c611017565b60405161034c9190614539565b6103ab610687366004614498565b61119d565b610342600081565b6103ab6106a23660046144c3565b61123d565b6105b36106b5366004613f30565b611325565b6103ab6106c83660046145da565b61132d565b6103426106db366004614463565b80516020818301810180516101638252928201919093012091525481565b6103ab6107073660046146f2565b611522565b61015f546105b3906001600160a01b031681565b6103ab61072e36600461477c565b6116d6565b610342610741366004613f30565b600090815260fb602052604090205490565b61075b611731565b60405161034c91906147df565b6000546201000090046001600160a01b03166105b3565b6103427f9f2df0fed2c77648de5860a4cc508cd0818c85b8b8a1ab4ceeef8d981c8956a681565b6103ab6107b43660046142e0565b61194b565b6103ab6107c7366004614498565b611970565b6103686107da36600461482c565b6001600160a01b03918216600090815260666020908152604080832093909416825291909152205460ff1690565b610160546105b3906001600160a01b031681565b6103ab61082a36600461485a565b611a60565b6103ab61083d366004613fac565b611c80565b610855610850366004613f30565b611d1c565b60405161034c91906148c3565b610342610870366004614463565b611ec1565b60006001600160a01b0383166108f85760405162461bcd60e51b815260206004820152602a60248201527f455243313135353a2061646472657373207a65726f206973206e6f742061207660448201527f616c6964206f776e65720000000000000000000000000000000000000000000060648201526084015b60405180910390fd5b5060008181526065602090815260408083206001600160a01b03861684529091529020545b92915050565b60006001600160e01b031982167fa30b4db900000000000000000000000000000000000000000000000000000000148061098657507f572b6c05000000000000000000000000000000000000000000000000000000006001600160e01b03198316145b8061091d575061091d82611eea565b606061091d82611f90565b7f3c11d16cbaffd01df69ce1c404f6340ee057498f5f00246190ea54220576a8486109ca81612072565b6109d5848484612086565b50505050565b7f71f3d55856e4058ed06ee057d79ada615f65cdf5f9ee88181b914225088f834f610a0581612072565b610a0f838361225d565b505050565b7f3c11d16cbaffd01df69ce1c404f6340ee057498f5f00246190ea54220576a848610a3e81612072565b6109d58484846122bb565b600061091d8260b81c61ffff1690565b60008060008061016060009054906101000a90046001600160a01b03166001600160a01b031663a86a28d16040518163ffffffff1660e01b81526004016040805180830381865afa158015610ab2573d6000803e3d6000fd5b505050506040513d601f19601f82011682018060405250810190610ad691906148ed565b6000888152610161602052604090205491935091506001600160a01b031615610b3857600086815261016160205260409020546001600160a01b0316612710610b2361ffff841688614938565b610b2d919061494f565b935093505050610b74565b6001600160a01b03821615801590610b53575061ffff811615155b15610b6a5781612710610b2361ffff841688614938565b6000809350935050505b9250929050565b61015f5485906001600160a01b03163b15610c7157336001600160a01b03821603610bb257610bad868686868661254d565b610c7e565b61015f54604051633185c44d60e21b81523060048201523360248201526001600160a01b039091169063c617113490604401602060405180830381865afa158015610c01573d6000803e3d6000fd5b505050506040513d601f19601f82011682018060405250810190610c259190614971565b610c715760405162461bcd60e51b815260206004820152601460248201527f4f70657261746f72204e6f7420416c6c6f77656400000000000000000000000060448201526064016108ef565b610c7e868686868661254d565b505050505050565b600082815260c96020526040902060010154610ca181612072565b610a0f83836125f2565b610cb3612695565b6001600160a01b0316816001600160a01b031614610d395760405162461bcd60e51b815260206004820152602f60248201527f416363657373436f6e74726f6c3a2063616e206f6e6c792072656e6f756e636560448201527f20726f6c657320666f722073656c66000000000000000000000000000000000060648201526084016108ef565b610d4382826126a4565b5050565b60608151835114610dc05760405162461bcd60e51b815260206004820152602960248201527f455243313135353a206163636f756e747320616e6420696473206c656e67746860448201527f206d69736d61746368000000000000000000000000000000000000000000000060648201526084016108ef565b6000835167ffffffffffffffff811115610ddc57610ddc613fe1565b604051908082528060200260200182016040528015610e05578160200160208202803683370190505b50905060005b8451811015610e7d57610e50858281518110610e2957610e2961498e565b6020026020010151858381518110610e4357610e4361498e565b6020026020010151610875565b828281518110610e6257610e6261498e565b6020908102919091010152610e76816149a4565b9050610e0b565b509392505050565b600061091d8260a01c60ff1690565b6000610e9f81612072565b6109d5848484612745565b600061091d82612897565b6000610ec081612072565b610d43826128b5565b610ed1612695565b6001600160a01b0316836001600160a01b03161480610ef75750610ef7836107da612695565b610f5a5760405162461bcd60e51b815260206004820152602e60248201527f455243313135353a2063616c6c6572206973206e6f7420746f6b656e206f776e60448201526d195c881bdc88185c1c1c9bdd995960921b60648201526084016108ef565b610a0f8383836122bb565b6000610f7081612072565b6001600160a01b038316610fec5760405162461bcd60e51b815260206004820152602960248201527f41737365743a20737562736372697074696f6e2063616e2774206265207a657260448201527f6f2061646472657373000000000000000000000000000000000000000000000060648201526084016108ef565b610a0f83836128c2565b600061091d8260a81c61ffff1690565b6000600160c883901c81161461091d565b6101625460609067ffffffffffffffff81111561103657611036613fe1565b60405190808252806020026020018201604052801561108357816020015b604080516060808201835260008083526020830152918101919091528152602001906001900390816110545790505b50905060005b610162548110156111995760408051606080820183526000808352602083015291810191909152600061016283815481106110c6576110c661498e565b60009182526020808320909101548083526101619091526040909120549091506001600160a01b0316801561116157806001600160a01b031663d78d610b6040518163ffffffff1660e01b8152600401600060405180830381865afa158015611133573d6000803e3d6000fd5b505050506040513d6000823e601f3d908101601f1916820160405261115b91908101906149be565b60408401525b8183528451839086908690811061117a5761117a61498e565b602002602001018190525050505080611192906149a4565b9050611089565b5090565b60006111a881612072565b6001600160a01b03821661120c5760405162461bcd60e51b815260206004820152602560248201527f41737365743a2072656769737472792063616e2774206265207a65726f206164604482015264647265737360d81b60648201526084016108ef565b5061015f805473ffffffffffffffffffffffffffffffffffffffff19166001600160a01b0392909216919091179055565b61015f5482906001600160a01b03163b156113135761015f54604051633185c44d60e21b81523060048201526001600160a01b0383811660248301529091169063c617113490604401602060405180830381865afa1580156112a3573d6000803e3d6000fd5b505050506040513d601f19601f820116820180604052508101906112c79190614971565b6113135760405162461bcd60e51b815260206004820152601460248201527f4f70657261746f72204e6f7420416c6c6f77656400000000000000000000000060448201526064016108ef565b610a0f61131e612695565b8484612a8e565b60008161091d565b7f9f2df0fed2c77648de5860a4cc508cd0818c85b8b8a1ab4ceeef8d981c8956a661135781612072565b81518451146113ce5760405162461bcd60e51b815260206004820152602b60248201527f41737365743a2069647320616e64206d6574616461746148617368206c656e6760448201527f7468206d69736d6174636800000000000000000000000000000000000000000060648201526084016108ef565b82518451146114455760405162461bcd60e51b815260206004820152602660248201527f41737365743a2069647320616e6420616d6f756e7473206c656e677468206d6960448201527f736d61746368000000000000000000000000000000000000000000000000000060648201526084016108ef565b60005b845181101561149f5761148d8582815181106114665761146661498e565b60200260200101518483815181106114805761148061498e565b6020026020010151612b82565b80611497816149a4565b915050611448565b506114bb85858560405180602001604052806000815250612c69565b60005b8451811015610c7e5760006114e98683815181106114de576114de61498e565b602002602001015190565b905061150f8683815181106115005761150061498e565b60200260200101518283612745565b508061151a816149a4565b9150506114be565b600054610100900460ff16158080156115425750600054600160ff909116105b8061155c5750303b15801561155c575060005460ff166001145b6115ce5760405162461bcd60e51b815260206004820152602e60248201527f496e697469616c697a61626c653a20636f6e747261637420697320616c72656160448201527f647920696e697469616c697a656400000000000000000000000000000000000060648201526084016108ef565b6000805460ff1916600117905580156115f1576000805461ff0019166101001790555b6115fa846128b5565b611602612e66565b61160a612e66565b600080547fffffffffffffffffffff0000000000000000000000000000000000000000ffff16620100006001600160a01b0389160217905561164a612e66565b6116556000866125f2565b611660836001612ee5565b610160805473ffffffffffffffffffffffffffffffffffffffff19166001600160a01b0384161790558015610c7e576000805461ff0019169055604051600181527f7f26b83ff96e1f2b6a682f133852f6798a09c465da95921460cefb38474024989060200160405180910390a1505050505050565b7f9f2df0fed2c77648de5860a4cc508cd0818c85b8b8a1ab4ceeef8d981c8956a661170081612072565b61170a8483612b82565b61172585858560405180602001604052806000815250612f9a565b83610c7e818080612745565b6101625461016054604080517fa86a28d10000000000000000000000000000000000000000000000000000000081528151606094600094909385936001600160a01b039092169263a86a28d19260048082019392918290030181865afa15801561179f573d6000803e3d6000fd5b505050506040513d601f19601f820116820180604052508101906117c391906148ed565b5090506001600160a01b0381161561186857610162546117e4906001614a91565b67ffffffffffffffff8111156117fc576117fc613fe1565b604051908082528060200260200182016040528015611825578160200160208202803683370190505b509350808460008151811061183c5761183c61498e565b6001600160a01b039092166020928302919091019091015260019250611861826149a4565b91506118b1565b6101625467ffffffffffffffff81111561188457611884613fe1565b6040519080825280602002602001820160405280156118ad578160200160208202803683370190505b5093505b825b828110156119445761016160006101626118cd8785614aa4565b815481106118dd576118dd61498e565b9060005260206000200154815260200190815260200160002060009054906101000a90046001600160a01b031685828151811061191c5761191c61498e565b6001600160a01b039092166020928302919091019091015261193d816149a4565b90506118b3565b5050505090565b600082815260c9602052604090206001015461196681612072565b610a0f83836126a4565b600061197b81612072565b6001600160a01b0382166119f75760405162461bcd60e51b815260206004820152602e60248201527f41737365743a207472757374656420666f727761726465722063616e2774206260448201527f65207a65726f206164647265737300000000000000000000000000000000000060648201526084016108ef565b600080547fffffffffffffffffffff0000000000000000000000000000000000000000ffff16620100006001600160a01b03851690810291909117825560405190917f871264f4293af7d2865ae7eae628b228f4991c57cb45b39c99f0b774ebe2901891a25050565b61015f5485906001600160a01b03163b15611be257336001600160a01b03821603611b2357611a8d612695565b6001600160a01b0316866001600160a01b03161480611ab35750611ab3866107da612695565b611b165760405162461bcd60e51b815260206004820152602e60248201527f455243313135353a2063616c6c6572206973206e6f7420746f6b656e206f776e60448201526d195c881bdc88185c1c1c9bdd995960921b60648201526084016108ef565b610bad86868686866130dd565b61015f54604051633185c44d60e21b81523060048201523360248201526001600160a01b039091169063c617113490604401602060405180830381865afa158015611b72573d6000803e3d6000fd5b505050506040513d601f19601f82011682018060405250810190611b969190614971565b611be25760405162461bcd60e51b815260206004820152601460248201527f4f70657261746f72204e6f7420416c6c6f77656400000000000000000000000060448201526064016108ef565b611bea612695565b6001600160a01b0316866001600160a01b03161480611c105750611c10866107da612695565b611c735760405162461bcd60e51b815260206004820152602e60248201527f455243313135353a2063616c6c6572206973206e6f7420746f6b656e206f776e60448201526d195c881bdc88185c1c1c9bdd995960921b60648201526084016108ef565b610c7e86868686866130dd565b611c88612695565b6001600160a01b0316836001600160a01b03161480611cae5750611cae836107da612695565b611d115760405162461bcd60e51b815260206004820152602e60248201527f455243313135353a2063616c6c6572206973206e6f7420746f6b656e206f776e60448201526d195c881bdc88185c1c1c9bdd995960921b60648201526084016108ef565b610a0f838383612086565b60008181526101616020526040808220546101605482517fa86a28d100000000000000000000000000000000000000000000000000000000815283516060956001600160a01b039485169590949093169263a86a28d192600480820193918290030181865afa158015611d93573d6000803e3d6000fd5b505050506040513d601f19601f82011682018060405250810190611db791906148ed565b5090506001600160a01b03821615611e3757816001600160a01b031663d78d610b6040518163ffffffff1660e01b8152600401600060405180830381865afa158015611e07573d6000803e3d6000fd5b505050506040513d6000823e601f3d908101601f19168201604052611e2f91908101906149be565b949350505050565b604080516001808252818301909252600091816020015b6040805180820190915260008082526020820152815260200190600190039081611e4e5790505090506040518060400160405280836001600160a01b0316815260200161271061ffff1681525081600081518110611eae57611eae61498e565b6020908102919091010152949350505050565b600061016382604051611ed49190614ab7565b9081526020016040518091039020549050919050565b60006001600160e01b031982167f2a55205a000000000000000000000000000000000000000000000000000000001480611f4d57506001600160e01b031982167f667873ce00000000000000000000000000000000000000000000000000000000145b80611f8157506001600160e01b031982167ffd90e89700000000000000000000000000000000000000000000000000000000145b8061091d575061091d826132b8565b600081815261012e6020526040812080546060929190611faf90614ad3565b80601f0160208091040260200160405190810160405280929190818152602001828054611fdb90614ad3565b80156120285780601f10611ffd57610100808354040283529160200191612028565b820191906000526020600020905b81548152906001019060200180831161200b57829003601f168201915b50505050509050600081511161204657612041836132f6565b61206b565b61012d8160405160200161205b929190614b0d565b6040516020818303038152906040525b9392505050565b6120838161207e612695565b61338a565b50565b6001600160a01b0383166121025760405162461bcd60e51b815260206004820152602360248201527f455243313135353a206275726e2066726f6d20746865207a65726f206164647260448201527f657373000000000000000000000000000000000000000000000000000000000060648201526084016108ef565b600061210c612695565b90506000612119846133ff565b90506000612126846133ff565b90506121468387600085856040518060200160405280600081525061344a565b60008581526065602090815260408083206001600160a01b038a168452909152902054848110156121de5760405162461bcd60e51b8152602060048201526024808201527f455243313135353a206275726e20616d6f756e7420657863656564732062616c60448201527f616e63650000000000000000000000000000000000000000000000000000000060648201526084016108ef565b60008681526065602090815260408083206001600160a01b038b81168086529184528285208a8703905582518b81529384018a90529092908816917fc3d58168c5ae7397731d063d5bbf3d657854427343f4c083240f7aacaa2d0f62910160405180910390a46040805160208101909152600090525b50505050505050565b600082815261012e602052604090206122768282614bda565b50817f6bb7ff708619ba0610cba295a58592e0451dee2622938c8755667688daf3529b6122a284610995565b6040516122af9190613f99565b60405180910390a25050565b6001600160a01b0383166123375760405162461bcd60e51b815260206004820152602360248201527f455243313135353a206275726e2066726f6d20746865207a65726f206164647260448201527f657373000000000000000000000000000000000000000000000000000000000060648201526084016108ef565b80518251146123995760405162461bcd60e51b815260206004820152602860248201527f455243313135353a2069647320616e6420616d6f756e7473206c656e677468206044820152670dad2e6dac2e8c6d60c31b60648201526084016108ef565b60006123a3612695565b90506123c38185600086866040518060200160405280600081525061344a565b60005b83518110156124e05760008482815181106123e3576123e361498e565b6020026020010151905060008483815181106124015761240161498e565b60209081029190910181015160008481526065835260408082206001600160a01b038c1683529093529190912054909150818110156124a75760405162461bcd60e51b8152602060048201526024808201527f455243313135353a206275726e20616d6f756e7420657863656564732062616c60448201527f616e63650000000000000000000000000000000000000000000000000000000060648201526084016108ef565b60009283526065602090815260408085206001600160a01b038b16865290915290922091039055806124d8816149a4565b9150506123c6565b5060006001600160a01b0316846001600160a01b0316826001600160a01b03167f4a39dc06d4c0dbc64b70af90fd698a233a518aa5d07e595d983b8c0526c8f7fb8686604051612531929190614c9a565b60405180910390a46040805160208101909152600090526109d5565b612555612695565b6001600160a01b0316856001600160a01b0316148061257b575061257b856107da612695565b6125de5760405162461bcd60e51b815260206004820152602e60248201527f455243313135353a2063616c6c6572206973206e6f7420746f6b656e206f776e60448201526d195c881bdc88185c1c1c9bdd995960921b60648201526084016108ef565b6125eb8585858585613458565b5050505050565b600082815260c9602090815260408083206001600160a01b038516845290915290205460ff16610d4357600082815260c9602090815260408083206001600160a01b03851684529091529020805460ff19166001179055612651612695565b6001600160a01b0316816001600160a01b0316837f2f8788117e7eff1d82e926ec794901d17c78024a50270940304540a733656f0d60405160405180910390a45050565b600061269f6136dd565b905090565b600082815260c9602090815260408083206001600160a01b038516845290915290205460ff1615610d4357600082815260c9602090815260408083206001600160a01b03851684529091529020805460ff19169055612701612695565b6001600160a01b0316816001600160a01b0316837ff6391f5c32d9c69d2a47ea670b442974b53935d1edc7fd64eb21e047a839171b60405160405180910390a45050565b610160546040517ff06040b40000000000000000000000000000000000000000000000000000000081526001600160a01b0383811660048301528481166024830152600092169063f06040b4906044016020604051808303816000875af11580156127b4573d6000803e3d6000fd5b505050506040513d601f19601f820116820180604052508101906127d89190614cc8565b6000858152610161602052604080822080546001600160a01b03851673ffffffffffffffffffffffffffffffffffffffff19909116179055610162805460018101825592527f29af0939a5988989bfee913a9ad10b9335cb63ebc9fd2b69e5f877d0455ac919909101869055519091507f5fe98ba0109a6edc7f59e8c943b6a42a0d8508aebe2e37c874eca88f747bb0779061288990869086909182526001600160a01b0316602082015260400190565b60405180910390a150505050565b6000806128a88360b81c61ffff1690565b61ffff1615159392505050565b61012d610d438282614bda565b61015f546001600160a01b03163b15610d435761015f546040517fc3c5a5470000000000000000000000000000000000000000000000000000000081523060048201526001600160a01b039091169063c3c5a547906024016020604051808303816000875af1158015612939573d6000803e3d6000fd5b505050506040513d601f19601f8201168201806040525081019061295d9190614971565b610d435780156129e35761015f546040517f7d3e3dbe0000000000000000000000000000000000000000000000000000000081523060048201526001600160a01b03848116602483015290911690637d3e3dbe906044015b600060405180830381600087803b1580156129cf57600080fd5b505af1158015610c7e573d6000803e3d6000fd5b6001600160a01b03821615612a445761015f546040517fa0af29030000000000000000000000000000000000000000000000000000000081523060048201526001600160a01b0384811660248301529091169063a0af2903906044016129b5565b61015f546040517f4420e4860000000000000000000000000000000000000000000000000000000081523060048201526001600160a01b0390911690634420e486906024016129b5565b816001600160a01b0316836001600160a01b031603612b155760405162461bcd60e51b815260206004820152602960248201527f455243313135353a2073657474696e6720617070726f76616c2073746174757360448201527f20666f722073656c66000000000000000000000000000000000000000000000060648201526084016108ef565b6001600160a01b03838116600081815260666020908152604080832094871680845294825291829020805460ff191686151590811790915591519182527f17307eab39ab6107e8899845ad3d59bd9653f200f220920489ca2b5937696c31910160405180910390a3505050565b61016381604051612b939190614ab7565b908152602001604051809103902054600014612c3d578161016382604051612bbb9190614ab7565b90815260200160405180910390205414610d435760405162461bcd60e51b815260206004820152602960248201527f41737365743a206e6f7420616c6c6f77656420746f207265757365206d65746160448201527f646174612068617368000000000000000000000000000000000000000000000060648201526084016108ef565b8161016382604051612c4f9190614ab7565b90815260405190819003602001902055610d43828261225d565b6001600160a01b038416612ce55760405162461bcd60e51b815260206004820152602160248201527f455243313135353a206d696e7420746f20746865207a65726f2061646472657360448201527f730000000000000000000000000000000000000000000000000000000000000060648201526084016108ef565b8151835114612d475760405162461bcd60e51b815260206004820152602860248201527f455243313135353a2069647320616e6420616d6f756e7473206c656e677468206044820152670dad2e6dac2e8c6d60c31b60648201526084016108ef565b6000612d51612695565b9050612d628160008787878761344a565b60005b8451811015612dfe57838181518110612d8057612d8061498e565b602002602001015160656000878481518110612d9e57612d9e61498e565b602002602001015181526020019081526020016000206000886001600160a01b03166001600160a01b031681526020019081526020016000206000828254612de69190614a91565b90915550819050612df6816149a4565b915050612d65565b50846001600160a01b031660006001600160a01b0316826001600160a01b03167f4a39dc06d4c0dbc64b70af90fd698a233a518aa5d07e595d983b8c0526c8f7fb8787604051612e4f929190614c9a565b60405180910390a46125eb81600087878787613729565b600054610100900460ff16612ee35760405162461bcd60e51b815260206004820152602b60248201527f496e697469616c697a61626c653a20636f6e7472616374206973206e6f74206960448201527f6e697469616c697a696e6700000000000000000000000000000000000000000060648201526084016108ef565b565b600054610100900460ff16612f625760405162461bcd60e51b815260206004820152602b60248201527f496e697469616c697a61626c653a20636f6e7472616374206973206e6f74206960448201527f6e697469616c697a696e6700000000000000000000000000000000000000000060648201526084016108ef565b61015f805473ffffffffffffffffffffffffffffffffffffffff19166daaeb6d7670e522a718067333cd4e179055610d4382826128c2565b6001600160a01b0384166130165760405162461bcd60e51b815260206004820152602160248201527f455243313135353a206d696e7420746f20746865207a65726f2061646472657360448201527f730000000000000000000000000000000000000000000000000000000000000060648201526084016108ef565b6000613020612695565b9050600061302d856133ff565b9050600061303a856133ff565b905061304b8360008985858961344a565b60008681526065602090815260408083206001600160a01b038b1684529091528120805487929061307d908490614a91565b909155505060408051878152602081018790526001600160a01b03808a1692600092918716917fc3d58168c5ae7397731d063d5bbf3d657854427343f4c083240f7aacaa2d0f62910160405180910390a461225483600089898989613915565b6001600160a01b0384166131415760405162461bcd60e51b815260206004820152602560248201527f455243313135353a207472616e7366657220746f20746865207a65726f206164604482015264647265737360d81b60648201526084016108ef565b600061314b612695565b90506000613158856133ff565b90506000613165856133ff565b905061317583898985858961344a565b60008681526065602090815260408083206001600160a01b038c1684529091529020548581101561320e5760405162461bcd60e51b815260206004820152602a60248201527f455243313135353a20696e73756666696369656e742062616c616e636520666f60448201527f72207472616e736665720000000000000000000000000000000000000000000060648201526084016108ef565b60008781526065602090815260408083206001600160a01b038d8116855292528083208985039055908a1682528120805488929061324d908490614a91565b909155505060408051888152602081018890526001600160a01b03808b16928c821692918816917fc3d58168c5ae7397731d063d5bbf3d657854427343f4c083240f7aacaa2d0f62910160405180910390a46132ad848a8a8a8a8a613915565b505050505050505050565b60006001600160e01b031982167f7965db0b00000000000000000000000000000000000000000000000000000000148061091d575061091d82613a58565b60606067805461330590614ad3565b80601f016020809104026020016040519081016040528092919081815260200182805461333190614ad3565b801561337e5780601f106133535761010080835404028352916020019161337e565b820191906000526020600020905b81548152906001019060200180831161336157829003601f168201915b50505050509050919050565b600082815260c9602090815260408083206001600160a01b038516845290915290205460ff16610d43576133bd81613af3565b6133c8836020613b05565b6040516020016133d9929190614ce5565b60408051601f198184030181529082905262461bcd60e51b82526108ef91600401613f99565b604080516001808252818301909252606091600091906020808301908036833701905050905082816000815181106134395761343961498e565b602090810291909101015292915050565b610c7e868686868686613d2e565b81518351146134ba5760405162461bcd60e51b815260206004820152602860248201527f455243313135353a2069647320616e6420616d6f756e7473206c656e677468206044820152670dad2e6dac2e8c6d60c31b60648201526084016108ef565b6001600160a01b03841661351e5760405162461bcd60e51b815260206004820152602560248201527f455243313135353a207472616e7366657220746f20746865207a65726f206164604482015264647265737360d81b60648201526084016108ef565b6000613528612695565b905061353881878787878761344a565b60005b84518110156136775760008582815181106135585761355861498e565b6020026020010151905060008583815181106135765761357661498e565b60209081029190910181015160008481526065835260408082206001600160a01b038e16835290935291909120549091508181101561361d5760405162461bcd60e51b815260206004820152602a60248201527f455243313135353a20696e73756666696369656e742062616c616e636520666f60448201527f72207472616e736665720000000000000000000000000000000000000000000060648201526084016108ef565b60008381526065602090815260408083206001600160a01b038e8116855292528083208585039055908b1682528120805484929061365c908490614a91565b9250508190555050505080613670906149a4565b905061353b565b50846001600160a01b0316866001600160a01b0316826001600160a01b03167f4a39dc06d4c0dbc64b70af90fd698a233a518aa5d07e595d983b8c0526c8f7fb87876040516136c7929190614c9a565b60405180910390a4610c7e818787878787613729565b600080546201000090046001600160a01b0316330361372157507fffffffffffffffffffffffffffffffffffffffffffffffffffffffffffffffec36013560601c90565b503390565b90565b6001600160a01b0384163b15610c7e576040517fbc197c810000000000000000000000000000000000000000000000000000000081526001600160a01b0385169063bc197c81906137869089908990889088908890600401614d66565b6020604051808303816000875af19250505080156137c1575060408051601f3d908101601f191682019092526137be91810190614db8565b60015b613876576137cd614dd5565b806308c379a00361380657506137e1614df0565b806137ec5750613808565b8060405162461bcd60e51b81526004016108ef9190613f99565b505b60405162461bcd60e51b815260206004820152603460248201527f455243313135353a207472616e7366657220746f206e6f6e2d4552433131353560448201527f526563656976657220696d706c656d656e74657200000000000000000000000060648201526084016108ef565b6001600160e01b031981167fbc197c8100000000000000000000000000000000000000000000000000000000146122545760405162461bcd60e51b815260206004820152602860248201527f455243313135353a204552433131353552656365697665722072656a6563746560448201527f6420746f6b656e7300000000000000000000000000000000000000000000000060648201526084016108ef565b6001600160a01b0384163b15610c7e576040517ff23a6e610000000000000000000000000000000000000000000000000000000081526001600160a01b0385169063f23a6e61906139729089908990889088908890600401614e98565b6020604051808303816000875af19250505080156139ad575060408051601f3d908101601f191682019092526139aa91810190614db8565b60015b6139b9576137cd614dd5565b6001600160e01b031981167ff23a6e6100000000000000000000000000000000000000000000000000000000146122545760405162461bcd60e51b815260206004820152602860248201527f455243313135353a204552433131353552656365697665722072656a6563746560448201527f6420746f6b656e7300000000000000000000000000000000000000000000000060648201526084016108ef565b60006001600160e01b031982167fd9b67a26000000000000000000000000000000000000000000000000000000001480613abb57506001600160e01b031982167f0e89341c00000000000000000000000000000000000000000000000000000000145b8061091d57507f01ffc9a7000000000000000000000000000000000000000000000000000000006001600160e01b031983161461091d565b606061091d6001600160a01b03831660145b60606000613b14836002614938565b613b1f906002614a91565b67ffffffffffffffff811115613b3757613b37613fe1565b6040519080825280601f01601f191660200182016040528015613b61576020820181803683370190505b5090507f300000000000000000000000000000000000000000000000000000000000000081600081518110613b9857613b9861498e565b60200101907effffffffffffffffffffffffffffffffffffffffffffffffffffffffffffff1916908160001a9053507f780000000000000000000000000000000000000000000000000000000000000081600181518110613bfb57613bfb61498e565b60200101907effffffffffffffffffffffffffffffffffffffffffffffffffffffffffffff1916908160001a9053506000613c37846002614938565b613c42906001614a91565b90505b6001811115613cdf577f303132333435363738396162636465660000000000000000000000000000000085600f1660108110613c8357613c8361498e565b1a60f81b828281518110613c9957613c9961498e565b60200101907effffffffffffffffffffffffffffffffffffffffffffffffffffffffffffff1916908160001a90535060049490941c93613cd881614edb565b9050613c45565b50831561206b5760405162461bcd60e51b815260206004820181905260248201527f537472696e67733a20686578206c656e67746820696e73756666696369656e7460448201526064016108ef565b6001600160a01b038516613db55760005b8351811015613db357828181518110613d5a57613d5a61498e565b602002602001015160fb6000868481518110613d7857613d7861498e565b602002602001015181526020019081526020016000206000828254613d9d9190614a91565b90915550613dac9050816149a4565b9050613d3f565b505b6001600160a01b038416610c7e5760005b8351811015612254576000848281518110613de357613de361498e565b602002602001015190506000848381518110613e0157613e0161498e565b60200260200101519050600060fb600084815260200190815260200160002054905081811015613e995760405162461bcd60e51b815260206004820152602860248201527f455243313135353a206275726e20616d6f756e74206578636565647320746f7460448201527f616c537570706c7900000000000000000000000000000000000000000000000060648201526084016108ef565b600092835260fb602052604090922091039055613eb5816149a4565b9050613dc6565b6001600160a01b038116811461208357600080fd5b60008060408385031215613ee457600080fd5b8235613eef81613ebc565b946020939093013593505050565b6001600160e01b03198116811461208357600080fd5b600060208284031215613f2557600080fd5b813561206b81613efd565b600060208284031215613f4257600080fd5b5035919050565b60005b83811015613f64578181015183820152602001613f4c565b50506000910152565b60008151808452613f85816020860160208601613f49565b601f01601f19169290920160200192915050565b60208152600061206b6020830184613f6d565b600080600060608486031215613fc157600080fd5b8335613fcc81613ebc565b95602085013595506040909401359392505050565b634e487b7160e01b600052604160045260246000fd5b6040810181811067ffffffffffffffff8211171561401757614017613fe1565b60405250565b601f19601f830116810181811067ffffffffffffffff8211171561404357614043613fe1565b6040525050565b600082601f83011261405b57600080fd5b813567ffffffffffffffff81111561407557614075613fe1565b60405161408c6020601f19601f850116018261401d565b8181528460208386010111156140a157600080fd5b816020850160208301376000918101602001919091529392505050565b600080604083850312156140d157600080fd5b82359150602083013567ffffffffffffffff8111156140ef57600080fd5b6140fb8582860161404a565b9150509250929050565b600067ffffffffffffffff82111561411f5761411f613fe1565b5060051b60200190565b600082601f83011261413a57600080fd5b8135602061414782614105565b604051614154828261401d565b83815260059390931b850182019282810191508684111561417457600080fd5b8286015b8481101561418f5780358352918301918301614178565b509695505050505050565b6000806000606084860312156141af57600080fd5b83356141ba81613ebc565b9250602084013567ffffffffffffffff808211156141d757600080fd5b6141e387838801614129565b935060408601359150808211156141f957600080fd5b5061420686828701614129565b9150509250925092565b6000806040838503121561422357600080fd5b50508035926020909101359150565b600080600080600060a0868803121561424a57600080fd5b853561425581613ebc565b9450602086013561426581613ebc565b9350604086013567ffffffffffffffff8082111561428257600080fd5b61428e89838a01614129565b945060608801359150808211156142a457600080fd5b6142b089838a01614129565b935060808801359150808211156142c657600080fd5b506142d38882890161404a565b9150509295509295909350565b600080604083850312156142f357600080fd5b82359150602083013561430581613ebc565b809150509250929050565b6000806040838503121561432357600080fd5b823567ffffffffffffffff8082111561433b57600080fd5b818501915085601f83011261434f57600080fd5b8135602061435c82614105565b604051614369828261401d565b83815260059390931b850182019282810191508984111561438957600080fd5b948201945b838610156143b05785356143a181613ebc565b8252948201949082019061438e565b965050860135925050808211156143c657600080fd5b506140fb85828601614129565b600081518084526020808501945080840160005b83811015614403578151875295820195908201906001016143e7565b509495945050505050565b60208152600061206b60208301846143d3565b60008060006060848603121561443657600080fd5b83359250602084013561444881613ebc565b9150604084013561445881613ebc565b809150509250925092565b60006020828403121561447557600080fd5b813567ffffffffffffffff81111561448c57600080fd5b611e2f8482850161404a565b6000602082840312156144aa57600080fd5b813561206b81613ebc565b801515811461208357600080fd5b600080604083850312156144d657600080fd5b82356144e181613ebc565b91506020830135614305816144b5565b600081518084526020808501945080840160005b8381101561440357815180516001600160a01b0316885283015161ffff168388015260409096019590820190600101614505565b60006020808301818452808551808352604092508286019150828160051b87010184880160005b838110156145cc578883037fffffffffffffffffffffffffffffffffffffffffffffffffffffffffffffffc00185528151805184528781015161ffff168885015286015160608785018190526145b8818601836144f1565b968901969450505090860190600101614560565b509098975050505050505050565b600080600080608085870312156145f057600080fd5b84356145fb81613ebc565b935060208581013567ffffffffffffffff8082111561461957600080fd5b61462589838a01614129565b9550604088013591508082111561463b57600080fd5b61464789838a01614129565b9450606088013591508082111561465d57600080fd5b818801915088601f83011261467157600080fd5b813561467c81614105565b604051614689828261401d565b82815260059290921b840185019185810191508b8311156146a957600080fd5b8585015b838110156146e1578035858111156146c55760008081fd5b6146d38e89838a010161404a565b8452509186019186016146ad565b50989b979a50959850505050505050565b600080600080600060a0868803121561470a57600080fd5b853561471581613ebc565b9450602086013561472581613ebc565b9350604086013567ffffffffffffffff81111561474157600080fd5b61474d8882890161404a565b935050606086013561475e81613ebc565b9150608086013561476e81613ebc565b809150509295509295909350565b6000806000806080858703121561479257600080fd5b843561479d81613ebc565b93506020850135925060408501359150606085013567ffffffffffffffff8111156147c757600080fd5b6147d38782880161404a565b91505092959194509250565b6020808252825182820181905260009190848201906040850190845b818110156148205783516001600160a01b0316835292840192918401916001016147fb565b50909695505050505050565b6000806040838503121561483f57600080fd5b823561484a81613ebc565b9150602083013561430581613ebc565b600080600080600060a0868803121561487257600080fd5b853561487d81613ebc565b9450602086013561488d81613ebc565b93506040860135925060608601359150608086013567ffffffffffffffff8111156148b757600080fd5b6142d38882890161404a565b60208152600061206b60208301846144f1565b805161ffff811681146148e857600080fd5b919050565b6000806040838503121561490057600080fd5b825161490b81613ebc565b9150614919602084016148d6565b90509250929050565b634e487b7160e01b600052601160045260246000fd5b808202811582820484141761091d5761091d614922565b60008261496c57634e487b7160e01b600052601260045260246000fd5b500490565b60006020828403121561498357600080fd5b815161206b816144b5565b634e487b7160e01b600052603260045260246000fd5b600060001982036149b7576149b7614922565b5060010190565b600060208083850312156149d157600080fd5b825167ffffffffffffffff8111156149e857600080fd5b8301601f810185136149f957600080fd5b8051614a0481614105565b60408051614a12838261401d565b83815260069390931b8401850192858101925088841115614a3257600080fd5b938501935b83851015614a855781858a031215614a4f5760008081fd5b8151614a5a81613ff7565b8551614a6581613ebc565b8152614a728688016148d6565b8188015283529381019391850191614a37565b98975050505050505050565b8082018082111561091d5761091d614922565b8181038181111561091d5761091d614922565b60008251614ac9818460208701613f49565b9190910192915050565b600181811c90821680614ae757607f821691505b602082108103614b0757634e487b7160e01b600052602260045260246000fd5b50919050565b6000808454614b1b81614ad3565b60018281168015614b335760018114614b4857614b77565b60ff1984168752821515830287019450614b77565b8860005260208060002060005b85811015614b6e5781548a820152908401908201614b55565b50505082870194505b505050508351614b8b818360208801613f49565b01949350505050565b601f821115610a0f57600081815260208120601f850160051c81016020861015614bbb5750805b601f850160051c820191505b81811015610c7e57828155600101614bc7565b815167ffffffffffffffff811115614bf457614bf4613fe1565b614c0881614c028454614ad3565b84614b94565b602080601f831160018114614c3d5760008415614c255750858301515b600019600386901b1c1916600185901b178555610c7e565b600085815260208120601f198616915b82811015614c6c57888601518255948401946001909101908401614c4d565b5085821015614c8a5787850151600019600388901b60f8161c191681555b5050505050600190811b01905550565b604081526000614cad60408301856143d3565b8281036020840152614cbf81856143d3565b95945050505050565b600060208284031215614cda57600080fd5b815161206b81613ebc565b7f416363657373436f6e74726f6c3a206163636f756e7420000000000000000000815260008351614d1d816017850160208801613f49565b7f206973206d697373696e6720726f6c65200000000000000000000000000000006017918401918201528351614d5a816028840160208801613f49565b01602801949350505050565b60006001600160a01b03808816835280871660208401525060a06040830152614d9260a08301866143d3565b8281036060840152614da481866143d3565b90508281036080840152614a858185613f6d565b600060208284031215614dca57600080fd5b815161206b81613efd565b600060033d11156137265760046000803e5060005160e01c90565b600060443d1015614dfe5790565b6040517ffffffffffffffffffffffffffffffffffffffffffffffffffffffffffffffffc803d016004833e81513d67ffffffffffffffff8160248401118184111715614e4c57505050505090565b8285019150815181811115614e645750505050505090565b843d8701016020828501011115614e7e5750505050505090565b614e8d6020828601018761401d565b509095945050505050565b60006001600160a01b03808816835280871660208401525084604083015283606083015260a06080830152614ed060a0830184613f6d565b979650505050505050565b600081614eea57614eea614922565b50600019019056fea26469706673582212203102588adb6a1f3bb1811ad62789a6e859f5e3893f0ddd02aeb321fca956ba3764736f6c63430008120033",
  "devdoc": {
    "events": {
      "ApprovalForAll(address,address,bool)": {
        "details": "Emitted when `account` grants or revokes permission to `operator` to transfer their tokens, according to `approved`."
      },
      "Initialized(uint8)": {
        "details": "Triggered when the contract has been initialized or reinitialized."
      },
      "RoleAdminChanged(bytes32,bytes32,bytes32)": {
        "details": "Emitted when `newAdminRole` is set as ``role``'s admin role, replacing `previousAdminRole` `DEFAULT_ADMIN_ROLE` is the starting admin for all roles, despite {RoleAdminChanged} not being emitted signaling this. _Available since v3.1._"
      },
      "RoleGranted(bytes32,address,address)": {
        "details": "Emitted when `account` is granted `role`. `sender` is the account that originated the contract call, an admin role bearer except when using {AccessControl-_setupRole}."
      },
      "RoleRevoked(bytes32,address,address)": {
        "details": "Emitted when `account` is revoked `role`. `sender` is the account that originated the contract call:   - if using `revokeRole`, it is the admin role bearer   - if using `renounceRole`, it is the role bearer (i.e. `account`)"
      },
      "TransferBatch(address,address,address,uint256[],uint256[])": {
        "details": "Equivalent to multiple {TransferSingle} events, where `operator`, `from` and `to` are the same for all transfers."
      },
      "TransferSingle(address,address,address,uint256,uint256)": {
        "details": "Emitted when `value` tokens of token type `id` are transferred from `from` to `to` by `operator`."
      },
      "URI(string,uint256)": {
        "details": "Emitted when the URI for token type `id` changes to `value`, if it is a non-programmatic URI. If an {URI} event was emitted for `id`, the standard https://eips.ethereum.org/EIPS/eip-1155#metadata-extensions[guarantees] that `value` will equal the value returned by {IERC1155MetadataURI-uri}."
      }
    },
    "kind": "dev",
    "methods": {
      "balanceOf(address,uint256)": {
        "details": "See {IERC1155-balanceOf}. Requirements: - `account` cannot be the zero address."
      },
      "balanceOfBatch(address[],uint256[])": {
        "details": "See {IERC1155-balanceOfBatch}. Requirements: - `accounts` and `ids` must have the same length."
      },
      "burnBatchFrom(address,uint256[],uint256[])": {
        "details": "Only the minter role can burn tokensThis function was added with token recycling and bridging in mind but may have other use casesThe length of the ids and amounts arrays must be the same",
        "params": {
          "account": "The account to burn tokens from",
          "amounts": "An array of amounts of tokens to burn",
          "ids": "An array of token ids to burn"
        }
      },
      "burnFrom(address,uint256,uint256)": {
        "details": "Only the minter role can burn tokensThis function was added with token recycling and bridging in mind but may have other use cases",
        "params": {
          "account": "The account to burn tokens from",
          "amount": "The amount of tokens to burn",
          "id": "The token id to burn"
        }
      },
      "constructor": {
        "custom:oz-upgrades-unsafe-allow": "constructor"
      },
      "exists(uint256)": {
        "details": "Indicates whether any token exist with a given id, or not."
      },
      "getAllSplits()": {
        "returns": {
          "splits": "the royalty receiver's array"
        }
      },
      "getCreatorAddress(uint256)": {
        "params": {
          "tokenId": "The token id to extract the creator address from"
        },
        "returns": {
          "creator": "The asset creator address"
        }
      },
      "getCreatorNonce(uint256)": {
        "params": {
          "tokenId": "The token id to extract the asset nonce from"
        },
        "returns": {
          "_0": "creatorNonce The asset creator nonce"
        }
      },
      "getRecipients(uint256)": {
        "details": "returns the default address for tokens with no recipients.",
        "params": {
          "tokenId": "is the token id for which the recipient should be returned."
        },
        "returns": {
          "_0": "addresses of royalty recipient of the token."
        }
      },
      "getRevealNonce(uint256)": {
        "params": {
          "tokenId": "The token id to extract reveal nonce from"
        },
        "returns": {
          "_0": "revealNonce The reveal nonce of the asset"
        }
      },
      "getRoleAdmin(bytes32)": {
        "details": "Returns the admin role that controls `role`. See {grantRole} and {revokeRole}. To change a role's admin, use {_setRoleAdmin}."
      },
      "getTier(uint256)": {
        "params": {
          "tokenId": "The token id to extract the tier from"
        },
        "returns": {
          "tier": "The asset tier, determined by the catalyst used to create it"
        }
      },
      "getTokenRoyalties()": {
        "returns": {
          "royaltyConfigs": "receivers and their split array as long as the number of tokens."
        }
      },
      "grantRole(bytes32,address)": {
        "details": "Grants `role` to `account`. If `account` had not been already granted `role`, emits a {RoleGranted} event. Requirements: - the caller must have ``role``'s admin role. May emit a {RoleGranted} event."
      },
      "hasRole(bytes32,address)": {
        "details": "Returns `true` if `account` has been granted `role`."
      },
      "isApprovedForAll(address,address)": {
        "details": "See {IERC1155-isApprovedForAll}."
      },
      "isBridged(uint256)": {
        "params": {
          "tokenId": "The token id to extract the bridged flag from"
        },
        "returns": {
          "_0": "bridged Whether the asset is bridged or not"
        }
      },
      "isRevealed(uint256)": {
        "params": {
          "tokenId": "The token id to extract the revealed flag from"
        },
        "returns": {
          "_0": "isRevealed Whether the asset is revealed or not"
        }
      },
      "mint(address,uint256,uint256,string)": {
        "details": "Only callable by the minter role",
        "params": {
          "amount": "The amount of the token to mint",
          "id": "The id of the token to mint",
          "to": "The address of the recipient"
        }
      },
      "mintBatch(address,uint256[],uint256[],string[])": {
        "details": "Only callable by the minter role",
        "params": {
          "amounts": "The amounts of the tokens to mint",
          "ids": "The ids of the tokens to mint",
          "to": "The address of the recipient"
        }
      },
      "registerAndSubscribe(address,bool)": {
        "details": "used to register contract and subscribe to the subscriptionOrRegistrantToCopy's black list.",
        "params": {
          "subscribe": "bool to signify subscription \"true\"\" or to copy the list \"false\".",
          "subscriptionOrRegistrantToCopy": "registration address of the list to subscribe."
        }
      },
      "renounceRole(bytes32,address)": {
        "details": "Revokes `role` from the calling account. Roles are often managed via {grantRole} and {revokeRole}: this function's purpose is to provide a mechanism for accounts to lose their privileges if they are compromised (such as when a trusted device is misplaced). If the calling account had been revoked `role`, emits a {RoleRevoked} event. Requirements: - the caller must be `account`. May emit a {RoleRevoked} event."
      },
      "revokeRole(bytes32,address)": {
        "details": "Revokes `role` from `account`. If `account` had been granted `role`, emits a {RoleRevoked} event. Requirements: - the caller must have ``role``'s admin role. May emit a {RoleRevoked} event."
      },
      "royaltyInfo(uint256,uint256)": {
        "params": {
          "tokenId": "of the token for which the royalty is needed to be distributed",
          "value": "the amount on which the royalty is calculated"
        },
        "returns": {
          "_0": "address the royalty receiver",
          "_1": "value the EIP2981 royalty"
        }
      },
      "safeBatchTransferFrom(address,address,uint256[],uint256[],bytes)": {
        "details": "call data should be optimized to order ids so packedBalance can be used efficiently.",
        "params": {
          "amounts": "amount of each token type transfered.",
          "data": "aditional data accompanying the transfer.",
          "from": "address from which tokens are transfered.",
          "ids": "ids of each token type transfered.",
          "to": "address to which the token will be transfered."
        }
      },
      "safeTransferFrom(address,address,uint256,uint256,bytes)": {
        "params": {
          "amount": "amount of token transfered.",
          "data": "aditional data accompanying the transfer.",
          "from": "address from which tokens are transfered.",
          "id": "the token type transfered.",
          "to": "address to which the token will be transfered."
        }
      },
      "setApprovalForAll(address,bool)": {
        "params": {
          "approved": "whether to approve or revoke",
          "operator": "address which will be granted rights to transfer all tokens of the caller."
        }
      },
      "setBaseURI(string)": {
        "params": {
          "baseURI": "The new base URI"
        }
      },
      "setOperatorRegistry(address)": {
        "params": {
          "registry": "the address of the registry"
        }
      },
      "setTokenRoyalties(uint256,address,address)": {
        "params": {
          "creator": "the creactor of the tokens.",
          "recipient": "the royalty recipient for the splitter of the creator.",
          "tokenId": "the id of the token for which the EIP2981 royalty is set for."
        }
      },
      "setTokenURI(uint256,string)": {
        "details": "The metadata hash should be the IPFS CIDv1 base32 encoded hash",
        "params": {
          "metadata": "The new URI for asset's metadata",
          "tokenId": "The token id to set URI for"
        }
      },
      "setTrustedForwarder(address)": {
        "details": "Change the address of the trusted forwarder for meta-TX",
        "params": {
          "trustedForwarder": "The new trustedForwarder"
        }
      },
      "supportsInterface(bytes4)": {
        "params": {
          "id": "the interface identifier, as specified in ERC-165."
        },
        "returns": {
          "_0": "`true` if the contract implements `id`."
        }
      },
      "totalSupply(uint256)": {
        "details": "Total amount of tokens in with a given id."
      },
      "uri(uint256)": {
        "params": {
          "tokenId": "The token id to get URI for"
        },
        "returns": {
          "_0": "tokenURI the URI of the token"
        }
      }
    },
    "version": 1
  },
  "userdoc": {
    "kind": "user",
    "methods": {
      "burnBatchFrom(address,uint256[],uint256[])": {
        "notice": "Burn a batch of tokens from a given account"
      },
      "burnFrom(address,uint256,uint256)": {
        "notice": "Burn a token from a given account"
      },
      "getAllSplits()": {
        "notice": "returns the EIP-2981 royalty receiver for each token (i.e. splitters) including the default royalty receiver."
      },
      "getCreatorAddress(uint256)": {
        "notice": "Extracts the creator address from a given token id"
      },
      "getCreatorNonce(uint256)": {
        "notice": "Extracts the asset nonce from a given token id"
      },
      "getRecipients(uint256)": {
        "notice": "returns the royalty recipients for each tokenId."
      },
      "getRevealNonce(uint256)": {
        "notice": "Extracts the abilities and enhancements hash from a given token id"
      },
      "getTier(uint256)": {
        "notice": "Extracts the tier from a given token id"
      },
      "getTokenRoyalties()": {
        "notice": "Returns royalty receivers and their split of royalty for each token"
      },
      "isBridged(uint256)": {
        "notice": "Extracts the bridged flag from a given token id"
      },
      "isRevealed(uint256)": {
        "notice": "Extracts the revealed flag from a given token id"
      },
      "mint(address,uint256,uint256,string)": {
        "notice": "Mint new tokens"
      },
      "mintBatch(address,uint256[],uint256[],string[])": {
        "notice": "Mint new tokens with catalyst tier chosen by the creator"
      },
      "registerAndSubscribe(address,bool)": {
        "notice": "This function is used to register Asset contract on the Operator Filterer Registry of Opensea.can only be called by admin."
      },
      "royaltyInfo(uint256,uint256)": {
        "notice": "EIP 2981 royalty info function to return the royalty receiver and royalty amount"
      },
      "safeBatchTransferFrom(address,address,uint256[],uint256[],bytes)": {
        "notice": "Transfers `values` tokens of type `ids` from  `from` to `to` (with safety call)."
      },
      "safeTransferFrom(address,address,uint256,uint256,bytes)": {
        "notice": "Transfers `value` tokens of type `id` from  `from` to `to`  (with safety call)."
      },
      "setApprovalForAll(address,bool)": {
        "notice": "Enable or disable approval for `operator` to manage all of the caller's tokens."
      },
      "setBaseURI(string)": {
        "notice": "Set a new base URI"
      },
      "setOperatorRegistry(address)": {
        "notice": "sets filter registry address deployed in test"
      },
      "setTokenRoyalties(uint256,address,address)": {
        "notice": "could be used to deploy splitter and set tokens royalties"
      },
      "setTokenURI(uint256,string)": {
        "notice": "Set a new URI for specific tokenid"
      },
      "setTrustedForwarder(address)": {
        "notice": "Set a new trusted forwarder address, limited to DEFAULT_ADMIN_ROLE only"
      },
      "supportsInterface(bytes4)": {
        "notice": "Query if a contract implements interface `id`."
      },
      "uri(uint256)": {
        "notice": "returns full token URI, including baseURI and token metadata URI"
      }
    },
    "version": 1
  },
  "storageLayout": {
    "storage": [
      {
        "astId": 746,
        "contract": "@sandbox-smart-contracts/asset/contracts/Asset.sol:Asset",
        "label": "_initialized",
        "offset": 0,
        "slot": "0",
        "type": "t_uint8"
      },
      {
        "astId": 749,
        "contract": "@sandbox-smart-contracts/asset/contracts/Asset.sol:Asset",
        "label": "_initializing",
        "offset": 1,
        "slot": "0",
        "type": "t_bool"
      },
      {
        "astId": 10714,
        "contract": "@sandbox-smart-contracts/asset/contracts/Asset.sol:Asset",
        "label": "_trustedForwarder",
        "offset": 2,
        "slot": "0",
        "type": "t_address"
      },
      {
        "astId": 3300,
        "contract": "@sandbox-smart-contracts/asset/contracts/Asset.sol:Asset",
        "label": "__gap",
        "offset": 0,
        "slot": "1",
        "type": "t_array(t_uint256)50_storage"
      },
      {
        "astId": 4223,
        "contract": "@sandbox-smart-contracts/asset/contracts/Asset.sol:Asset",
        "label": "__gap",
        "offset": 0,
        "slot": "51",
        "type": "t_array(t_uint256)50_storage"
      },
      {
        "astId": 937,
        "contract": "@sandbox-smart-contracts/asset/contracts/Asset.sol:Asset",
        "label": "_balances",
        "offset": 0,
        "slot": "101",
        "type": "t_mapping(t_uint256,t_mapping(t_address,t_uint256))"
      },
      {
        "astId": 943,
        "contract": "@sandbox-smart-contracts/asset/contracts/Asset.sol:Asset",
        "label": "_operatorApprovals",
        "offset": 0,
        "slot": "102",
        "type": "t_mapping(t_address,t_mapping(t_address,t_bool))"
      },
      {
        "astId": 945,
        "contract": "@sandbox-smart-contracts/asset/contracts/Asset.sol:Asset",
        "label": "_uri",
        "offset": 0,
        "slot": "103",
        "type": "t_string_storage"
      },
      {
        "astId": 2152,
        "contract": "@sandbox-smart-contracts/asset/contracts/Asset.sol:Asset",
        "label": "__gap",
        "offset": 0,
        "slot": "104",
        "type": "t_array(t_uint256)47_storage"
      },
      {
        "astId": 2404,
        "contract": "@sandbox-smart-contracts/asset/contracts/Asset.sol:Asset",
        "label": "__gap",
        "offset": 0,
        "slot": "151",
        "type": "t_array(t_uint256)50_storage"
      },
      {
        "astId": 194,
        "contract": "@sandbox-smart-contracts/asset/contracts/Asset.sol:Asset",
        "label": "_roles",
        "offset": 0,
        "slot": "201",
        "type": "t_mapping(t_bytes32,t_struct(RoleData)189_storage)"
      },
      {
        "astId": 489,
        "contract": "@sandbox-smart-contracts/asset/contracts/Asset.sol:Asset",
        "label": "__gap",
        "offset": 0,
        "slot": "202",
        "type": "t_array(t_uint256)49_storage"
      },
      {
        "astId": 2430,
        "contract": "@sandbox-smart-contracts/asset/contracts/Asset.sol:Asset",
        "label": "_totalSupply",
        "offset": 0,
        "slot": "251",
        "type": "t_mapping(t_uint256,t_uint256)"
      },
      {
        "astId": 2581,
        "contract": "@sandbox-smart-contracts/asset/contracts/Asset.sol:Asset",
        "label": "__gap",
        "offset": 0,
        "slot": "252",
        "type": "t_array(t_uint256)49_storage"
      },
      {
        "astId": 2616,
        "contract": "@sandbox-smart-contracts/asset/contracts/Asset.sol:Asset",
        "label": "_baseURI",
        "offset": 0,
        "slot": "301",
        "type": "t_string_storage"
      },
      {
        "astId": 2620,
        "contract": "@sandbox-smart-contracts/asset/contracts/Asset.sol:Asset",
        "label": "_tokenURIs",
        "offset": 0,
        "slot": "302",
        "type": "t_mapping(t_uint256,t_string_storage)"
      },
      {
        "astId": 2695,
        "contract": "@sandbox-smart-contracts/asset/contracts/Asset.sol:Asset",
        "label": "__gap",
        "offset": 0,
        "slot": "303",
        "type": "t_array(t_uint256)48_storage"
      },
      {
        "astId": 11515,
        "contract": "@sandbox-smart-contracts/asset/contracts/Asset.sol:Asset",
        "label": "operatorFilterRegistry",
        "offset": 0,
        "slot": "351",
        "type": "t_contract(IOperatorFilterRegistry)11896"
      },
      {
        "astId": 11927,
        "contract": "@sandbox-smart-contracts/asset/contracts/Asset.sol:Asset",
        "label": "royaltyManager",
        "offset": 0,
        "slot": "352",
        "type": "t_address"
      },
      {
        "astId": 11931,
        "contract": "@sandbox-smart-contracts/asset/contracts/Asset.sol:Asset",
        "label": "_tokenRoyaltiesSplitter",
        "offset": 0,
        "slot": "353",
        "type": "t_mapping(t_uint256,t_address_payable)"
      },
      {
        "astId": 11934,
        "contract": "@sandbox-smart-contracts/asset/contracts/Asset.sol:Asset",
        "label": "_tokensWithRoyalties",
        "offset": 0,
        "slot": "354",
        "type": "t_array(t_uint256)dyn_storage"
      },
      {
        "astId": 8501,
        "contract": "@sandbox-smart-contracts/asset/contracts/Asset.sol:Asset",
        "label": "hashUsed",
        "offset": 0,
        "slot": "355",
        "type": "t_mapping(t_string_memory_ptr,t_uint256)"
      }
    ],
    "types": {
      "t_address": {
        "encoding": "inplace",
        "label": "address",
        "numberOfBytes": "20"
      },
      "t_address_payable": {
        "encoding": "inplace",
        "label": "address payable",
        "numberOfBytes": "20"
      },
      "t_array(t_uint256)47_storage": {
        "base": "t_uint256",
        "encoding": "inplace",
        "label": "uint256[47]",
        "numberOfBytes": "1504"
      },
      "t_array(t_uint256)48_storage": {
        "base": "t_uint256",
        "encoding": "inplace",
        "label": "uint256[48]",
        "numberOfBytes": "1536"
      },
      "t_array(t_uint256)49_storage": {
        "base": "t_uint256",
        "encoding": "inplace",
        "label": "uint256[49]",
        "numberOfBytes": "1568"
      },
      "t_array(t_uint256)50_storage": {
        "base": "t_uint256",
        "encoding": "inplace",
        "label": "uint256[50]",
        "numberOfBytes": "1600"
      },
      "t_array(t_uint256)dyn_storage": {
        "base": "t_uint256",
        "encoding": "dynamic_array",
        "label": "uint256[]",
        "numberOfBytes": "32"
      },
      "t_bool": {
        "encoding": "inplace",
        "label": "bool",
        "numberOfBytes": "1"
      },
      "t_bytes32": {
        "encoding": "inplace",
        "label": "bytes32",
        "numberOfBytes": "32"
      },
      "t_contract(IOperatorFilterRegistry)11896": {
        "encoding": "inplace",
        "label": "contract IOperatorFilterRegistry",
        "numberOfBytes": "20"
      },
      "t_mapping(t_address,t_bool)": {
        "encoding": "mapping",
        "key": "t_address",
        "label": "mapping(address => bool)",
        "numberOfBytes": "32",
        "value": "t_bool"
      },
      "t_mapping(t_address,t_mapping(t_address,t_bool))": {
        "encoding": "mapping",
        "key": "t_address",
        "label": "mapping(address => mapping(address => bool))",
        "numberOfBytes": "32",
        "value": "t_mapping(t_address,t_bool)"
      },
      "t_mapping(t_address,t_uint256)": {
        "encoding": "mapping",
        "key": "t_address",
        "label": "mapping(address => uint256)",
        "numberOfBytes": "32",
        "value": "t_uint256"
      },
      "t_mapping(t_bytes32,t_struct(RoleData)189_storage)": {
        "encoding": "mapping",
        "key": "t_bytes32",
        "label": "mapping(bytes32 => struct AccessControlUpgradeable.RoleData)",
        "numberOfBytes": "32",
        "value": "t_struct(RoleData)189_storage"
      },
      "t_mapping(t_string_memory_ptr,t_uint256)": {
        "encoding": "mapping",
        "key": "t_string_memory_ptr",
        "label": "mapping(string => uint256)",
        "numberOfBytes": "32",
        "value": "t_uint256"
      },
      "t_mapping(t_uint256,t_address_payable)": {
        "encoding": "mapping",
        "key": "t_uint256",
        "label": "mapping(uint256 => address payable)",
        "numberOfBytes": "32",
        "value": "t_address_payable"
      },
      "t_mapping(t_uint256,t_mapping(t_address,t_uint256))": {
        "encoding": "mapping",
        "key": "t_uint256",
        "label": "mapping(uint256 => mapping(address => uint256))",
        "numberOfBytes": "32",
        "value": "t_mapping(t_address,t_uint256)"
      },
      "t_mapping(t_uint256,t_string_storage)": {
        "encoding": "mapping",
        "key": "t_uint256",
        "label": "mapping(uint256 => string)",
        "numberOfBytes": "32",
        "value": "t_string_storage"
      },
      "t_mapping(t_uint256,t_uint256)": {
        "encoding": "mapping",
        "key": "t_uint256",
        "label": "mapping(uint256 => uint256)",
        "numberOfBytes": "32",
        "value": "t_uint256"
      },
      "t_string_memory_ptr": {
        "encoding": "bytes",
        "label": "string",
        "numberOfBytes": "32"
      },
      "t_string_storage": {
        "encoding": "bytes",
        "label": "string",
        "numberOfBytes": "32"
      },
      "t_struct(RoleData)189_storage": {
        "encoding": "inplace",
        "label": "struct AccessControlUpgradeable.RoleData",
        "members": [
          {
            "astId": 186,
            "contract": "@sandbox-smart-contracts/asset/contracts/Asset.sol:Asset",
            "label": "members",
            "offset": 0,
            "slot": "0",
            "type": "t_mapping(t_address,t_bool)"
          },
          {
            "astId": 188,
            "contract": "@sandbox-smart-contracts/asset/contracts/Asset.sol:Asset",
            "label": "adminRole",
            "offset": 0,
            "slot": "1",
            "type": "t_bytes32"
          }
        ],
        "numberOfBytes": "64"
      },
      "t_uint256": {
        "encoding": "inplace",
        "label": "uint256",
        "numberOfBytes": "32"
      },
      "t_uint8": {
        "encoding": "inplace",
        "label": "uint8",
        "numberOfBytes": "1"
      }
    }
  }
}