{
  "address": "0xCC9D295C2EbaEbDba84E971b753f436C47D8A241",
  "abi": [
    {
      "inputs": [],
      "stateMutability": "nonpayable",
      "type": "constructor"
    },
    {
      "anonymous": false,
      "inputs": [
        {
          "indexed": true,
          "internalType": "address",
          "name": "account",
          "type": "address"
        },
        {
          "indexed": true,
          "internalType": "address",
          "name": "operator",
          "type": "address"
        },
        {
          "indexed": false,
          "internalType": "bool",
          "name": "approved",
          "type": "bool"
        }
      ],
      "name": "ApprovalForAll",
      "type": "event"
    },
    {
      "anonymous": false,
      "inputs": [
        {
          "indexed": false,
          "internalType": "uint8",
          "name": "version",
          "type": "uint8"
        }
      ],
      "name": "Initialized",
      "type": "event"
    },
    {
      "anonymous": false,
      "inputs": [
        {
          "indexed": true,
          "internalType": "bytes32",
          "name": "role",
          "type": "bytes32"
        },
        {
          "indexed": true,
          "internalType": "bytes32",
          "name": "previousAdminRole",
          "type": "bytes32"
        },
        {
          "indexed": true,
          "internalType": "bytes32",
          "name": "newAdminRole",
          "type": "bytes32"
        }
      ],
      "name": "RoleAdminChanged",
      "type": "event"
    },
    {
      "anonymous": false,
      "inputs": [
        {
          "indexed": true,
          "internalType": "bytes32",
          "name": "role",
          "type": "bytes32"
        },
        {
          "indexed": true,
          "internalType": "address",
          "name": "account",
          "type": "address"
        },
        {
          "indexed": true,
          "internalType": "address",
          "name": "sender",
          "type": "address"
        }
      ],
      "name": "RoleGranted",
      "type": "event"
    },
    {
      "anonymous": false,
      "inputs": [
        {
          "indexed": true,
          "internalType": "bytes32",
          "name": "role",
          "type": "bytes32"
        },
        {
          "indexed": true,
          "internalType": "address",
          "name": "account",
          "type": "address"
        },
        {
          "indexed": true,
          "internalType": "address",
          "name": "sender",
          "type": "address"
        }
      ],
      "name": "RoleRevoked",
      "type": "event"
    },
    {
      "anonymous": false,
      "inputs": [
        {
          "indexed": true,
          "internalType": "address",
          "name": "operator",
          "type": "address"
        },
        {
          "indexed": true,
          "internalType": "address",
          "name": "from",
          "type": "address"
        },
        {
          "indexed": true,
          "internalType": "address",
          "name": "to",
          "type": "address"
        },
        {
          "indexed": false,
          "internalType": "uint256[]",
          "name": "ids",
          "type": "uint256[]"
        },
        {
          "indexed": false,
          "internalType": "uint256[]",
          "name": "values",
          "type": "uint256[]"
        }
      ],
      "name": "TransferBatch",
      "type": "event"
    },
    {
      "anonymous": false,
      "inputs": [
        {
          "indexed": true,
          "internalType": "address",
          "name": "operator",
          "type": "address"
        },
        {
          "indexed": true,
          "internalType": "address",
          "name": "from",
          "type": "address"
        },
        {
          "indexed": true,
          "internalType": "address",
          "name": "to",
          "type": "address"
        },
        {
          "indexed": false,
          "internalType": "uint256",
          "name": "id",
          "type": "uint256"
        },
        {
          "indexed": false,
          "internalType": "uint256",
          "name": "value",
          "type": "uint256"
        }
      ],
      "name": "TransferSingle",
      "type": "event"
    },
    {
      "anonymous": false,
      "inputs": [
        {
          "indexed": false,
          "internalType": "string",
          "name": "value",
          "type": "string"
        },
        {
          "indexed": true,
          "internalType": "uint256",
          "name": "id",
          "type": "uint256"
        }
      ],
      "name": "URI",
      "type": "event"
    },
    {
      "inputs": [],
      "name": "BRIDGE_MINTER_ROLE",
      "outputs": [
        {
          "internalType": "bytes32",
          "name": "",
          "type": "bytes32"
        }
      ],
      "stateMutability": "view",
      "type": "function"
    },
    {
      "inputs": [],
      "name": "BURNER_ROLE",
      "outputs": [
        {
          "internalType": "bytes32",
          "name": "",
          "type": "bytes32"
        }
      ],
      "stateMutability": "view",
      "type": "function"
    },
    {
      "inputs": [],
      "name": "DEFAULT_ADMIN_ROLE",
      "outputs": [
        {
          "internalType": "bytes32",
          "name": "",
          "type": "bytes32"
        }
      ],
      "stateMutability": "view",
      "type": "function"
    },
    {
      "inputs": [],
      "name": "MINTER_ROLE",
      "outputs": [
        {
          "internalType": "bytes32",
          "name": "",
          "type": "bytes32"
        }
      ],
      "stateMutability": "view",
      "type": "function"
    },
    {
      "inputs": [
        {
          "internalType": "address",
          "name": "account",
          "type": "address"
        },
        {
          "internalType": "uint256",
          "name": "id",
          "type": "uint256"
        }
      ],
      "name": "balanceOf",
      "outputs": [
        {
          "internalType": "uint256",
          "name": "",
          "type": "uint256"
        }
      ],
      "stateMutability": "view",
      "type": "function"
    },
    {
      "inputs": [
        {
          "internalType": "address[]",
          "name": "accounts",
          "type": "address[]"
        },
        {
          "internalType": "uint256[]",
          "name": "ids",
          "type": "uint256[]"
        }
      ],
      "name": "balanceOfBatch",
      "outputs": [
        {
          "internalType": "uint256[]",
          "name": "",
          "type": "uint256[]"
        }
      ],
      "stateMutability": "view",
      "type": "function"
    },
    {
      "inputs": [
        {
          "internalType": "uint256",
          "name": "",
          "type": "uint256"
        }
      ],
      "name": "bridgedTokensNonces",
      "outputs": [
        {
          "internalType": "uint16",
          "name": "",
          "type": "uint16"
        }
      ],
      "stateMutability": "view",
      "type": "function"
    },
    {
      "inputs": [
        {
          "internalType": "address",
          "name": "account",
          "type": "address"
        },
        {
          "internalType": "uint256",
          "name": "id",
          "type": "uint256"
        },
        {
          "internalType": "uint256",
          "name": "value",
          "type": "uint256"
        }
      ],
      "name": "burn",
      "outputs": [],
      "stateMutability": "nonpayable",
      "type": "function"
    },
    {
      "inputs": [
        {
          "internalType": "address",
          "name": "account",
          "type": "address"
        },
        {
          "internalType": "uint256[]",
          "name": "ids",
          "type": "uint256[]"
        },
        {
          "internalType": "uint256[]",
          "name": "values",
          "type": "uint256[]"
        }
      ],
      "name": "burnBatch",
      "outputs": [],
      "stateMutability": "nonpayable",
      "type": "function"
    },
    {
      "inputs": [
        {
          "internalType": "address",
          "name": "account",
          "type": "address"
        },
        {
          "internalType": "uint256[]",
          "name": "ids",
          "type": "uint256[]"
        },
        {
          "internalType": "uint256[]",
          "name": "amounts",
          "type": "uint256[]"
        }
      ],
      "name": "burnBatchFrom",
      "outputs": [],
      "stateMutability": "nonpayable",
      "type": "function"
    },
    {
      "inputs": [
        {
          "internalType": "address",
          "name": "account",
          "type": "address"
        },
        {
          "internalType": "uint256",
          "name": "id",
          "type": "uint256"
        },
        {
          "internalType": "uint256",
          "name": "amount",
          "type": "uint256"
        }
      ],
      "name": "burnFrom",
      "outputs": [],
      "stateMutability": "nonpayable",
      "type": "function"
    },
    {
      "inputs": [
        {
          "internalType": "uint256",
          "name": "id",
          "type": "uint256"
        }
      ],
      "name": "exists",
      "outputs": [
        {
          "internalType": "bool",
          "name": "",
          "type": "bool"
        }
      ],
      "stateMutability": "view",
      "type": "function"
    },
    {
      "inputs": [
        {
          "internalType": "bytes32",
          "name": "role",
          "type": "bytes32"
        }
      ],
      "name": "getRoleAdmin",
      "outputs": [
        {
          "internalType": "bytes32",
          "name": "",
          "type": "bytes32"
        }
      ],
      "stateMutability": "view",
      "type": "function"
    },
    {
      "inputs": [
        {
          "internalType": "string",
          "name": "metadataHash",
          "type": "string"
        }
      ],
      "name": "getTokenIdByMetadataHash",
      "outputs": [
        {
          "internalType": "uint256",
          "name": "",
          "type": "uint256"
        }
      ],
      "stateMutability": "view",
      "type": "function"
    },
    {
      "inputs": [],
      "name": "getTrustedForwarder",
      "outputs": [
        {
          "internalType": "address",
          "name": "trustedForwarder",
          "type": "address"
        }
      ],
      "stateMutability": "view",
      "type": "function"
    },
    {
      "inputs": [
        {
          "internalType": "bytes32",
          "name": "role",
          "type": "bytes32"
        },
        {
          "internalType": "address",
          "name": "account",
          "type": "address"
        }
      ],
      "name": "grantRole",
      "outputs": [],
      "stateMutability": "nonpayable",
      "type": "function"
    },
    {
      "inputs": [
        {
          "internalType": "bytes32",
          "name": "role",
          "type": "bytes32"
        },
        {
          "internalType": "address",
          "name": "account",
          "type": "address"
        }
      ],
      "name": "hasRole",
      "outputs": [
        {
          "internalType": "bool",
          "name": "",
          "type": "bool"
        }
      ],
      "stateMutability": "view",
      "type": "function"
    },
    {
      "inputs": [
        {
          "internalType": "string",
          "name": "",
          "type": "string"
        }
      ],
      "name": "hashUsed",
      "outputs": [
        {
          "internalType": "uint256",
          "name": "",
          "type": "uint256"
        }
      ],
      "stateMutability": "view",
      "type": "function"
    },
    {
      "inputs": [
        {
          "internalType": "address",
          "name": "forwarder",
          "type": "address"
        },
        {
          "internalType": "address",
          "name": "assetAdmin",
          "type": "address"
        },
        {
          "internalType": "uint256[]",
          "name": "catalystTiers",
          "type": "uint256[]"
        },
        {
          "internalType": "uint256[]",
          "name": "catalystRecycleCopiesNeeded",
          "type": "uint256[]"
        },
        {
          "internalType": "string",
          "name": "baseUri",
          "type": "string"
        }
      ],
      "name": "initialize",
      "outputs": [],
      "stateMutability": "nonpayable",
      "type": "function"
    },
    {
      "inputs": [
        {
          "internalType": "address",
          "name": "account",
          "type": "address"
        },
        {
          "internalType": "address",
          "name": "operator",
          "type": "address"
        }
      ],
      "name": "isApprovedForAll",
      "outputs": [
        {
          "internalType": "bool",
          "name": "",
          "type": "bool"
        }
      ],
      "stateMutability": "view",
      "type": "function"
    },
    {
      "inputs": [
        {
          "internalType": "address",
          "name": "forwarder",
          "type": "address"
        }
      ],
      "name": "isTrustedForwarder",
      "outputs": [
        {
          "internalType": "bool",
          "name": "",
          "type": "bool"
        }
      ],
      "stateMutability": "view",
      "type": "function"
    },
    {
      "inputs": [
        {
          "internalType": "address",
          "name": "to",
          "type": "address"
        },
        {
          "internalType": "uint256",
          "name": "id",
          "type": "uint256"
        },
        {
          "internalType": "uint256",
          "name": "amount",
          "type": "uint256"
        },
        {
          "internalType": "string",
          "name": "metadataHash",
          "type": "string"
        }
      ],
      "name": "mint",
      "outputs": [],
      "stateMutability": "nonpayable",
      "type": "function"
    },
    {
      "inputs": [
        {
          "internalType": "address",
          "name": "to",
          "type": "address"
        },
        {
          "internalType": "uint256[]",
          "name": "ids",
          "type": "uint256[]"
        },
        {
          "internalType": "uint256[]",
          "name": "amounts",
          "type": "uint256[]"
        },
        {
          "internalType": "string[]",
          "name": "metadataHashes",
          "type": "string[]"
        }
      ],
      "name": "mintBatch",
      "outputs": [],
      "stateMutability": "nonpayable",
      "type": "function"
    },
    {
      "inputs": [
        {
          "internalType": "uint256",
          "name": "",
          "type": "uint256"
        }
      ],
      "name": "recyclingAmounts",
      "outputs": [
        {
          "internalType": "uint256",
          "name": "",
          "type": "uint256"
        }
      ],
      "stateMutability": "view",
      "type": "function"
    },
    {
      "inputs": [
        {
          "internalType": "bytes32",
          "name": "role",
          "type": "bytes32"
        },
        {
          "internalType": "address",
          "name": "account",
          "type": "address"
        }
      ],
      "name": "renounceRole",
      "outputs": [],
      "stateMutability": "nonpayable",
      "type": "function"
    },
    {
      "inputs": [
        {
          "internalType": "bytes32",
          "name": "role",
          "type": "bytes32"
        },
        {
          "internalType": "address",
          "name": "account",
          "type": "address"
        }
      ],
      "name": "revokeRole",
      "outputs": [],
      "stateMutability": "nonpayable",
      "type": "function"
    },
    {
      "inputs": [
        {
          "internalType": "address",
          "name": "from",
          "type": "address"
        },
        {
          "internalType": "address",
          "name": "to",
          "type": "address"
        },
        {
          "internalType": "uint256[]",
          "name": "ids",
          "type": "uint256[]"
        },
        {
          "internalType": "uint256[]",
          "name": "amounts",
          "type": "uint256[]"
        },
        {
          "internalType": "bytes",
          "name": "data",
          "type": "bytes"
        }
      ],
      "name": "safeBatchTransferFrom",
      "outputs": [],
      "stateMutability": "nonpayable",
      "type": "function"
    },
    {
      "inputs": [
        {
          "internalType": "address",
          "name": "from",
          "type": "address"
        },
        {
          "internalType": "address",
          "name": "to",
          "type": "address"
        },
        {
          "internalType": "uint256",
          "name": "id",
          "type": "uint256"
        },
        {
          "internalType": "uint256",
          "name": "amount",
          "type": "uint256"
        },
        {
          "internalType": "bytes",
          "name": "data",
          "type": "bytes"
        }
      ],
      "name": "safeTransferFrom",
      "outputs": [],
      "stateMutability": "nonpayable",
      "type": "function"
    },
    {
      "inputs": [
        {
          "internalType": "address",
          "name": "operator",
          "type": "address"
        },
        {
          "internalType": "bool",
          "name": "approved",
          "type": "bool"
        }
      ],
      "name": "setApprovalForAll",
      "outputs": [],
      "stateMutability": "nonpayable",
      "type": "function"
    },
    {
      "inputs": [
        {
          "internalType": "string",
          "name": "baseURI",
          "type": "string"
        }
      ],
      "name": "setBaseURI",
      "outputs": [],
      "stateMutability": "nonpayable",
      "type": "function"
    },
    {
      "inputs": [
        {
          "internalType": "uint256",
          "name": "tokenId",
          "type": "uint256"
        },
        {
          "internalType": "string",
          "name": "metadata",
          "type": "string"
        }
      ],
      "name": "setTokenUri",
      "outputs": [],
      "stateMutability": "nonpayable",
      "type": "function"
    },
    {
      "inputs": [
        {
          "internalType": "bytes4",
          "name": "id",
          "type": "bytes4"
        }
      ],
      "name": "supportsInterface",
      "outputs": [
        {
          "internalType": "bool",
          "name": "",
          "type": "bool"
        }
      ],
      "stateMutability": "view",
      "type": "function"
    },
    {
      "inputs": [
        {
          "internalType": "uint256",
          "name": "id",
          "type": "uint256"
        }
      ],
      "name": "totalSupply",
      "outputs": [
        {
          "internalType": "uint256",
          "name": "",
          "type": "uint256"
        }
      ],
      "stateMutability": "view",
      "type": "function"
    },
    {
      "inputs": [
        {
          "internalType": "uint256",
          "name": "tokenId",
          "type": "uint256"
        }
      ],
      "name": "uri",
      "outputs": [
        {
          "internalType": "string",
          "name": "",
          "type": "string"
        }
      ],
      "stateMutability": "view",
      "type": "function"
    }
  ],
  "transactionHash": "0x1f5158db4d9d9f3d86a2beaffeedb79ade7f748eaefe7ec73562e4745363980c",
  "args": [],
  "numDeployments": 1,
  "solcInputHash": "aa89ec7c5852a3f9c9624be1c456e61c",
  "bytecode": "0x60806040523480156200001157600080fd5b506200001c62000022565b620000e3565b600054610100900460ff16156200008f5760405162461bcd60e51b815260206004820152602760248201527f496e697469616c697a61626c653a20636f6e747261637420697320696e697469604482015266616c697a696e6760c81b606482015260840160405180910390fd5b60005460ff90811614620000e1576000805460ff191660ff9081179091556040519081527f7f26b83ff96e1f2b6a682f133852f6798a09c465da95921460cefb38474024989060200160405180910390a15b565b61386f80620000f36000396000f3fe608060405234801561001057600080fd5b50600436106102255760003560e01c80637b958ed01161012a578063c07c49bb116100bd578063e60dfc1f1161008c578063f242432a11610071578063f242432a146105da578063f5298aca146105ed578063fdda1d0e1461060057600080fd5b8063e60dfc1f14610566578063e985e9c51461059e57600080fd5b8063c07c49bb146104db578063ce1b815f14610502578063d53913931461052c578063d547741f1461055357600080fd5b8063a55784ef116100f9578063a55784ef14610469578063abe396031461047c578063bb7fde71146104a8578063bd85b039146104bb57600080fd5b80637b958ed0146103f457806391d1485414610415578063a217fddf1461044e578063a22cb4651461045657600080fd5b80632f2ff15d116101bd5780634f558e791161018c578063572b6c0511610171578063572b6c05146103a657806357f7789e146103ce5780636b20c454146103e157600080fd5b80634f558e791461037157806355f804b31461039357600080fd5b80632f2ff15d1461031857806336568abe1461032b57806341e17e401461033e5780634e1273f41461035157600080fd5b806320820ec3116101f957806320820ec3146102a8578063248a9ca3146102bb578063282c51f3146102de5780632eb2c2d61461030557600080fd5b8062fdd58e1461022a57806301ffc9a7146102505780630e89341c14610273578063124d91e514610293575b600080fd5b61023d610238366004612b0c565b610613565b6040519081526020015b60405180910390f35b61026361025e366004612b4c565b6106c1565b6040519015158152602001610247565b610286610281366004612b69565b6107c2565b6040516102479190612bd2565b6102a66102a1366004612be5565b6107cd565b005b6102a66102b6366004612cf0565b610808565b61023d6102c9366004612b69565b600090815260c9602052604090206001015490565b61023d7f3c11d16cbaffd01df69ce1c404f6340ee057498f5f00246190ea54220576a84881565b6102a6610313366004612dd8565b61083d565b6102a6610326366004612e82565b6108f1565b6102a6610339366004612e82565b61091b565b6102a661034c366004612efa565b6109b7565b61036461035f366004612faf565b610ba2565b60405161024791906130b5565b61026361037f366004612b69565b600090815260fb6020526040902054151590565b6102a66103a13660046130c8565b610ce0565b6102636103b4366004613105565b6000546201000090046001600160a01b0390811691161490565b6102a66103dc366004613120565b610cf4565b6102a66103ef366004612cf0565b610d09565b61023d610402366004612b69565b61015f6020526000908152604090205481565b610263610423366004612e82565b600091825260c9602090815260408084206001600160a01b0393909316845291905290205460ff1690565b61023d600081565b6102a661046436600461315d565b610db4565b6102a6610477366004613199565b610dc6565b61023d61048a3660046130c8565b80516020818301810180516101618252928201919093012091525481565b6102a66104b63660046132af565b610edc565b61023d6104c9366004612b69565b600090815260fb602052604090205490565b61023d7f60400965d90814aa36ab657cbeca3e3b701e320f6373ae1db85824fee2a7982281565b6000546201000090046001600160a01b03166040516001600160a01b039091168152602001610247565b61023d7f9f2df0fed2c77648de5860a4cc508cd0818c85b8b8a1ab4ceeef8d981c8956a681565b6102a6610561366004612e82565b610f2b565b61058b610574366004612b69565b6101606020526000908152604090205461ffff1681565b60405161ffff9091168152602001610247565b6102636105ac366004613310565b6001600160a01b03918216600090815260666020908152604080832093909416825291909152205460ff1690565b6102a66105e836600461333a565b610f50565b6102a66105fb366004612be5565b610ffd565b61023d61060e3660046130c8565b6110a8565b60006001600160a01b0383166106965760405162461bcd60e51b815260206004820152602a60248201527f455243313135353a2061646472657373207a65726f206973206e6f742061207660448201527f616c6964206f776e65720000000000000000000000000000000000000000000060648201526084015b60405180910390fd5b5060008181526065602090815260408083206001600160a01b03861684529091529020545b92915050565b60006001600160e01b031982167f01ffc9a700000000000000000000000000000000000000000000000000000000148061072457506001600160e01b031982167fd9b67a2600000000000000000000000000000000000000000000000000000000145b8061075857506001600160e01b031982167f0e89341c00000000000000000000000000000000000000000000000000000000145b8061078c57506001600160e01b031982167f7965db0b00000000000000000000000000000000000000000000000000000000145b806106bb5750506001600160e01b0319167f572b6c05000000000000000000000000000000000000000000000000000000001490565b60606106bb826110d1565b7f3c11d16cbaffd01df69ce1c404f6340ee057498f5f00246190ea54220576a8486107f7816111b3565b6108028484846111c7565b50505050565b7f3c11d16cbaffd01df69ce1c404f6340ee057498f5f00246190ea54220576a848610832816111b3565b61080284848461139e565b610845611630565b6001600160a01b0316856001600160a01b0316148061086b575061086b856105ac611630565b6108dd5760405162461bcd60e51b815260206004820152602e60248201527f455243313135353a2063616c6c6572206973206e6f7420746f6b656e206f776e60448201527f6572206f7220617070726f766564000000000000000000000000000000000000606482015260840161068d565b6108ea858585858561163f565b5050505050565b600082815260c9602052604090206001015461090c816111b3565b61091683836118e4565b505050565b610923611630565b6001600160a01b0316816001600160a01b0316146109a95760405162461bcd60e51b815260206004820152602f60248201527f416363657373436f6e74726f6c3a2063616e206f6e6c792072656e6f756e636560448201527f20726f6c657320666f722073656c660000000000000000000000000000000000606482015260840161068d565b6109b38282611987565b5050565b600054610100900460ff16158080156109d75750600054600160ff909116105b806109f15750303b1580156109f1575060005460ff166001145b610a635760405162461bcd60e51b815260206004820152602e60248201527f496e697469616c697a61626c653a20636f6e747261637420697320616c72656160448201527f647920696e697469616c697a6564000000000000000000000000000000000000606482015260840161068d565b6000805460ff191660011790558015610a86576000805461ff0019166101001790555b610a8f82611a28565b610a97611a35565b610a9f611a35565b600080547fffffffffffffffffffff0000000000000000000000000000000000000000ffff16620100006001600160a01b038b1602179055610adf611a35565b610aea6000886118e4565b60005b85811015610b5157848482818110610b0757610b0761339f565b9050602002013561015f6000898985818110610b2557610b2561339f565b905060200201358152602001908152602001600020819055508080610b49906133cb565b915050610aed565b508015610b98576000805461ff0019169055604051600181527f7f26b83ff96e1f2b6a682f133852f6798a09c465da95921460cefb38474024989060200160405180910390a15b5050505050505050565b60608151835114610c1b5760405162461bcd60e51b815260206004820152602960248201527f455243313135353a206163636f756e747320616e6420696473206c656e67746860448201527f206d69736d617463680000000000000000000000000000000000000000000000606482015260840161068d565b6000835167ffffffffffffffff811115610c3757610c37612c18565b604051908082528060200260200182016040528015610c60578160200160208202803683370190505b50905060005b8451811015610cd857610cab858281518110610c8457610c8461339f565b6020026020010151858381518110610c9e57610c9e61339f565b6020026020010151610613565b828281518110610cbd57610cbd61339f565b6020908102919091010152610cd1816133cb565b9050610c66565b509392505050565b6000610ceb816111b3565b6109b382611a28565b6000610cff816111b3565b6109168383611ab4565b610d11611630565b6001600160a01b0316836001600160a01b03161480610d375750610d37836105ac611630565b610da95760405162461bcd60e51b815260206004820152602e60248201527f455243313135353a2063616c6c6572206973206e6f7420746f6b656e206f776e60448201527f6572206f7220617070726f766564000000000000000000000000000000000000606482015260840161068d565b61091683838361139e565b6109b3610dbf611630565b8383611b12565b7f9f2df0fed2c77648de5860a4cc508cd0818c85b8b8a1ab4ceeef8d981c8956a6610df0816111b3565b8151845114610e665760405162461bcd60e51b8152602060048201526024808201527f69647320616e64206d6574616461746148617368206c656e677468206d69736d60448201527f6174636800000000000000000000000000000000000000000000000000000000606482015260840161068d565b60005b8451811015610ec057610eae858281518110610e8757610e8761339f565b6020026020010151848381518110610ea157610ea161339f565b6020026020010151611c06565b80610eb8816133cb565b915050610e69565b506108ea85858560405180602001604052806000815250611d17565b7f9f2df0fed2c77648de5860a4cc508cd0818c85b8b8a1ab4ceeef8d981c8956a6610f06816111b3565b610f108483611c06565b6108ea85858560405180602001604052806000815250611f14565b600082815260c96020526040902060010154610f46816111b3565b6109168383611987565b610f58611630565b6001600160a01b0316856001600160a01b03161480610f7e5750610f7e856105ac611630565b610ff05760405162461bcd60e51b815260206004820152602e60248201527f455243313135353a2063616c6c6572206973206e6f7420746f6b656e206f776e60448201527f6572206f7220617070726f766564000000000000000000000000000000000000606482015260840161068d565b6108ea8585858585612057565b611005611630565b6001600160a01b0316836001600160a01b0316148061102b575061102b836105ac611630565b61109d5760405162461bcd60e51b815260206004820152602e60248201527f455243313135353a2063616c6c6572206973206e6f7420746f6b656e206f776e60448201527f6572206f7220617070726f766564000000000000000000000000000000000000606482015260840161068d565b6109168383836111c7565b6000610161826040516110bb91906133e5565b9081526020016040518091039020549050919050565b600081815261012e60205260408120805460609291906110f090613401565b80601f016020809104026020016040519081016040528092919081815260200182805461111c90613401565b80156111695780601f1061113e57610100808354040283529160200191611169565b820191906000526020600020905b81548152906001019060200180831161114c57829003601f168201915b505050505090506000815111611187576111828361224a565b6111ac565b61012d8160405160200161119c92919061343b565b6040516020818303038152906040525b9392505050565b6111c4816111bf611630565b6122de565b50565b6001600160a01b0383166112435760405162461bcd60e51b815260206004820152602360248201527f455243313135353a206275726e2066726f6d20746865207a65726f206164647260448201527f6573730000000000000000000000000000000000000000000000000000000000606482015260840161068d565b600061124d611630565b9050600061125a84612353565b9050600061126784612353565b90506112878387600085856040518060200160405280600081525061239e565b60008581526065602090815260408083206001600160a01b038a1684529091529020548481101561131f5760405162461bcd60e51b8152602060048201526024808201527f455243313135353a206275726e20616d6f756e7420657863656564732062616c60448201527f616e636500000000000000000000000000000000000000000000000000000000606482015260840161068d565b60008681526065602090815260408083206001600160a01b038b81168086529184528285208a8703905582518b81529384018a90529092908816917fc3d58168c5ae7397731d063d5bbf3d657854427343f4c083240f7aacaa2d0f62910160405180910390a46040805160208101909152600090525b50505050505050565b6001600160a01b03831661141a5760405162461bcd60e51b815260206004820152602360248201527f455243313135353a206275726e2066726f6d20746865207a65726f206164647260448201527f6573730000000000000000000000000000000000000000000000000000000000606482015260840161068d565b805182511461147c5760405162461bcd60e51b815260206004820152602860248201527f455243313135353a2069647320616e6420616d6f756e7473206c656e677468206044820152670dad2e6dac2e8c6d60c31b606482015260840161068d565b6000611486611630565b90506114a68185600086866040518060200160405280600081525061239e565b60005b83518110156115c35760008482815181106114c6576114c661339f565b6020026020010151905060008483815181106114e4576114e461339f565b60209081029190910181015160008481526065835260408082206001600160a01b038c16835290935291909120549091508181101561158a5760405162461bcd60e51b8152602060048201526024808201527f455243313135353a206275726e20616d6f756e7420657863656564732062616c60448201527f616e636500000000000000000000000000000000000000000000000000000000606482015260840161068d565b60009283526065602090815260408085206001600160a01b038b16865290915290922091039055806115bb816133cb565b9150506114a9565b5060006001600160a01b0316846001600160a01b0316826001600160a01b03167f4a39dc06d4c0dbc64b70af90fd698a233a518aa5d07e595d983b8c0526c8f7fb86866040516116149291906134c2565b60405180910390a4604080516020810190915260009052610802565b600061163a6123ac565b905090565b81518351146116a15760405162461bcd60e51b815260206004820152602860248201527f455243313135353a2069647320616e6420616d6f756e7473206c656e677468206044820152670dad2e6dac2e8c6d60c31b606482015260840161068d565b6001600160a01b03841661171d5760405162461bcd60e51b815260206004820152602560248201527f455243313135353a207472616e7366657220746f20746865207a65726f20616460448201527f6472657373000000000000000000000000000000000000000000000000000000606482015260840161068d565b6000611727611630565b905061173781878787878761239e565b60005b84518110156118765760008582815181106117575761175761339f565b6020026020010151905060008583815181106117755761177561339f565b60209081029190910181015160008481526065835260408082206001600160a01b038e16835290935291909120549091508181101561181c5760405162461bcd60e51b815260206004820152602a60248201527f455243313135353a20696e73756666696369656e742062616c616e636520666f60448201527f72207472616e7366657200000000000000000000000000000000000000000000606482015260840161068d565b60008381526065602090815260408083206001600160a01b038e8116855292528083208585039055908b1682528120805484929061185b9084906134f0565b925050819055505050508061186f906133cb565b905061173a565b50846001600160a01b0316866001600160a01b0316826001600160a01b03167f4a39dc06d4c0dbc64b70af90fd698a233a518aa5d07e595d983b8c0526c8f7fb87876040516118c69291906134c2565b60405180910390a46118dc8187878787876123f8565b505050505050565b600082815260c9602090815260408083206001600160a01b038516845290915290205460ff166109b357600082815260c9602090815260408083206001600160a01b03851684529091529020805460ff19166001179055611943611630565b6001600160a01b0316816001600160a01b0316837f2f8788117e7eff1d82e926ec794901d17c78024a50270940304540a733656f0d60405160405180910390a45050565b600082815260c9602090815260408083206001600160a01b038516845290915290205460ff16156109b357600082815260c9602090815260408083206001600160a01b03851684529091529020805460ff191690556119e4611630565b6001600160a01b0316816001600160a01b0316837ff6391f5c32d9c69d2a47ea670b442974b53935d1edc7fd64eb21e047a839171b60405160405180910390a45050565b61012d6109b38282613549565b600054610100900460ff16611ab25760405162461bcd60e51b815260206004820152602b60248201527f496e697469616c697a61626c653a20636f6e7472616374206973206e6f74206960448201527f6e697469616c697a696e67000000000000000000000000000000000000000000606482015260840161068d565b565b600082815261012e60205260409020611acd8282613549565b50817f6bb7ff708619ba0610cba295a58592e0451dee2622938c8755667688daf3529b611af9846107c2565b604051611b069190612bd2565b60405180910390a25050565b816001600160a01b0316836001600160a01b031603611b995760405162461bcd60e51b815260206004820152602960248201527f455243313135353a2073657474696e6720617070726f76616c2073746174757360448201527f20666f722073656c660000000000000000000000000000000000000000000000606482015260840161068d565b6001600160a01b03838116600081815260666020908152604080832094871680845294825291829020805460ff191686151590811790915591519182527f17307eab39ab6107e8899845ad3d59bd9653f200f220920489ca2b5937696c31910160405180910390a3505050565b7f9f2df0fed2c77648de5860a4cc508cd0818c85b8b8a1ab4ceeef8d981c8956a6611c30816111b3565b61016182604051611c4191906133e5565b908152602001604051809103902054600014611ceb578261016183604051611c6991906133e5565b908152602001604051809103902054146109165760405162461bcd60e51b815260206004820152602260248201527f6d657461646174612068617368206d69736d6174636820666f7220746f6b656e60448201527f4964000000000000000000000000000000000000000000000000000000000000606482015260840161068d565b8261016183604051611cfd91906133e5565b908152604051908190036020019020556109168383611ab4565b6001600160a01b038416611d935760405162461bcd60e51b815260206004820152602160248201527f455243313135353a206d696e7420746f20746865207a65726f2061646472657360448201527f7300000000000000000000000000000000000000000000000000000000000000606482015260840161068d565b8151835114611df55760405162461bcd60e51b815260206004820152602860248201527f455243313135353a2069647320616e6420616d6f756e7473206c656e677468206044820152670dad2e6dac2e8c6d60c31b606482015260840161068d565b6000611dff611630565b9050611e108160008787878761239e565b60005b8451811015611eac57838181518110611e2e57611e2e61339f565b602002602001015160656000878481518110611e4c57611e4c61339f565b602002602001015181526020019081526020016000206000886001600160a01b03166001600160a01b031681526020019081526020016000206000828254611e9491906134f0565b90915550819050611ea4816133cb565b915050611e13565b50846001600160a01b031660006001600160a01b0316826001600160a01b03167f4a39dc06d4c0dbc64b70af90fd698a233a518aa5d07e595d983b8c0526c8f7fb8787604051611efd9291906134c2565b60405180910390a46108ea816000878787876123f8565b6001600160a01b038416611f905760405162461bcd60e51b815260206004820152602160248201527f455243313135353a206d696e7420746f20746865207a65726f2061646472657360448201527f7300000000000000000000000000000000000000000000000000000000000000606482015260840161068d565b6000611f9a611630565b90506000611fa785612353565b90506000611fb485612353565b9050611fc58360008985858961239e565b60008681526065602090815260408083206001600160a01b038b16845290915281208054879290611ff79084906134f0565b909155505060408051878152602081018790526001600160a01b03808a1692600092918716917fc3d58168c5ae7397731d063d5bbf3d657854427343f4c083240f7aacaa2d0f62910160405180910390a4611395836000898989896125e4565b6001600160a01b0384166120d35760405162461bcd60e51b815260206004820152602560248201527f455243313135353a207472616e7366657220746f20746865207a65726f20616460448201527f6472657373000000000000000000000000000000000000000000000000000000606482015260840161068d565b60006120dd611630565b905060006120ea85612353565b905060006120f785612353565b905061210783898985858961239e565b60008681526065602090815260408083206001600160a01b038c168452909152902054858110156121a05760405162461bcd60e51b815260206004820152602a60248201527f455243313135353a20696e73756666696369656e742062616c616e636520666f60448201527f72207472616e7366657200000000000000000000000000000000000000000000606482015260840161068d565b60008781526065602090815260408083206001600160a01b038d8116855292528083208985039055908a168252812080548892906121df9084906134f0565b909155505060408051888152602081018890526001600160a01b03808b16928c821692918816917fc3d58168c5ae7397731d063d5bbf3d657854427343f4c083240f7aacaa2d0f62910160405180910390a461223f848a8a8a8a8a6125e4565b505050505050505050565b60606067805461225990613401565b80601f016020809104026020016040519081016040528092919081815260200182805461228590613401565b80156122d25780601f106122a7576101008083540402835291602001916122d2565b820191906000526020600020905b8154815290600101906020018083116122b557829003601f168201915b50505050509050919050565b600082815260c9602090815260408083206001600160a01b038516845290915290205460ff166109b35761231181612727565b61231c836020612739565b60405160200161232d929190613609565b60408051601f198184030181529082905262461bcd60e51b825261068d91600401612bd2565b6040805160018082528183019092526060916000919060208083019080368337019050509050828160008151811061238d5761238d61339f565b602090810291909101015292915050565b6118dc868686868686612962565b600080546201000090046001600160a01b031633036123f057507fffffffffffffffffffffffffffffffffffffffffffffffffffffffffffffffec36013560601c90565b503390565b90565b6001600160a01b0384163b156118dc576040517fbc197c810000000000000000000000000000000000000000000000000000000081526001600160a01b0385169063bc197c8190612455908990899088908890889060040161368a565b6020604051808303816000875af1925050508015612490575060408051601f3d908101601f1916820190925261248d918101906136e8565b60015b6125455761249c613705565b806308c379a0036124d557506124b0613720565b806124bb57506124d7565b8060405162461bcd60e51b815260040161068d9190612bd2565b505b60405162461bcd60e51b815260206004820152603460248201527f455243313135353a207472616e7366657220746f206e6f6e2d4552433131353560448201527f526563656976657220696d706c656d656e746572000000000000000000000000606482015260840161068d565b6001600160e01b031981167fbc197c8100000000000000000000000000000000000000000000000000000000146113955760405162461bcd60e51b815260206004820152602860248201527f455243313135353a204552433131353552656365697665722072656a6563746560448201527f6420746f6b656e73000000000000000000000000000000000000000000000000606482015260840161068d565b6001600160a01b0384163b156118dc576040517ff23a6e610000000000000000000000000000000000000000000000000000000081526001600160a01b0385169063f23a6e619061264190899089908890889088906004016137c8565b6020604051808303816000875af192505050801561267c575060408051601f3d908101601f19168201909252612679918101906136e8565b60015b6126885761249c613705565b6001600160e01b031981167ff23a6e6100000000000000000000000000000000000000000000000000000000146113955760405162461bcd60e51b815260206004820152602860248201527f455243313135353a204552433131353552656365697665722072656a6563746560448201527f6420746f6b656e73000000000000000000000000000000000000000000000000606482015260840161068d565b60606106bb6001600160a01b03831660145b6060600061274883600261380b565b6127539060026134f0565b67ffffffffffffffff81111561276b5761276b612c18565b6040519080825280601f01601f191660200182016040528015612795576020820181803683370190505b5090507f3000000000000000000000000000000000000000000000000000000000000000816000815181106127cc576127cc61339f565b60200101907effffffffffffffffffffffffffffffffffffffffffffffffffffffffffffff1916908160001a9053507f78000000000000000000000000000000000000000000000000000000000000008160018151811061282f5761282f61339f565b60200101907effffffffffffffffffffffffffffffffffffffffffffffffffffffffffffff1916908160001a905350600061286b84600261380b565b6128769060016134f0565b90505b6001811115612913577f303132333435363738396162636465660000000000000000000000000000000085600f16601081106128b7576128b761339f565b1a60f81b8282815181106128cd576128cd61339f565b60200101907effffffffffffffffffffffffffffffffffffffffffffffffffffffffffffff1916908160001a90535060049490941c9361290c81613822565b9050612879565b5083156111ac5760405162461bcd60e51b815260206004820181905260248201527f537472696e67733a20686578206c656e67746820696e73756666696369656e74604482015260640161068d565b6001600160a01b0385166129e95760005b83518110156129e75782818151811061298e5761298e61339f565b602002602001015160fb60008684815181106129ac576129ac61339f565b6020026020010151815260200190815260200160002060008282546129d191906134f0565b909155506129e09050816133cb565b9050612973565b505b6001600160a01b0384166118dc5760005b8351811015611395576000848281518110612a1757612a1761339f565b602002602001015190506000848381518110612a3557612a3561339f565b60200260200101519050600060fb600084815260200190815260200160002054905081811015612acd5760405162461bcd60e51b815260206004820152602860248201527f455243313135353a206275726e20616d6f756e74206578636565647320746f7460448201527f616c537570706c79000000000000000000000000000000000000000000000000606482015260840161068d565b600092835260fb602052604090922091039055612ae9816133cb565b90506129fa565b80356001600160a01b0381168114612b0757600080fd5b919050565b60008060408385031215612b1f57600080fd5b612b2883612af0565b946020939093013593505050565b6001600160e01b0319811681146111c457600080fd5b600060208284031215612b5e57600080fd5b81356111ac81612b36565b600060208284031215612b7b57600080fd5b5035919050565b60005b83811015612b9d578181015183820152602001612b85565b50506000910152565b60008151808452612bbe816020860160208601612b82565b601f01601f19169290920160200192915050565b6020815260006111ac6020830184612ba6565b600080600060608486031215612bfa57600080fd5b612c0384612af0565b95602085013595506040909401359392505050565b634e487b7160e01b600052604160045260246000fd5b601f19601f830116810181811067ffffffffffffffff82111715612c5457612c54612c18565b6040525050565b600067ffffffffffffffff821115612c7557612c75612c18565b5060051b60200190565b600082601f830112612c9057600080fd5b81356020612c9d82612c5b565b604051612caa8282612c2e565b83815260059390931b8501820192828101915086841115612cca57600080fd5b8286015b84811015612ce55780358352918301918301612cce565b509695505050505050565b600080600060608486031215612d0557600080fd5b612d0e84612af0565b9250602084013567ffffffffffffffff80821115612d2b57600080fd5b612d3787838801612c7f565b93506040860135915080821115612d4d57600080fd5b50612d5a86828701612c7f565b9150509250925092565b600082601f830112612d7557600080fd5b813567ffffffffffffffff811115612d8f57612d8f612c18565b604051612da66020601f19601f8501160182612c2e565b818152846020838601011115612dbb57600080fd5b816020850160208301376000918101602001919091529392505050565b600080600080600060a08688031215612df057600080fd5b612df986612af0565b9450612e0760208701612af0565b9350604086013567ffffffffffffffff80821115612e2457600080fd5b612e3089838a01612c7f565b94506060880135915080821115612e4657600080fd5b612e5289838a01612c7f565b93506080880135915080821115612e6857600080fd5b50612e7588828901612d64565b9150509295509295909350565b60008060408385031215612e9557600080fd5b82359150612ea560208401612af0565b90509250929050565b60008083601f840112612ec057600080fd5b50813567ffffffffffffffff811115612ed857600080fd5b6020830191508360208260051b8501011115612ef357600080fd5b9250929050565b600080600080600080600060a0888a031215612f1557600080fd5b612f1e88612af0565b9650612f2c60208901612af0565b9550604088013567ffffffffffffffff80821115612f4957600080fd5b612f558b838c01612eae565b909750955060608a0135915080821115612f6e57600080fd5b612f7a8b838c01612eae565b909550935060808a0135915080821115612f9357600080fd5b50612fa08a828b01612d64565b91505092959891949750929550565b60008060408385031215612fc257600080fd5b823567ffffffffffffffff80821115612fda57600080fd5b818501915085601f830112612fee57600080fd5b81356020612ffb82612c5b565b6040516130088282612c2e565b83815260059390931b850182019282810191508984111561302857600080fd5b948201945b8386101561304d5761303e86612af0565b8252948201949082019061302d565b9650508601359250508082111561306357600080fd5b5061307085828601612c7f565b9150509250929050565b600081518084526020808501945080840160005b838110156130aa5781518752958201959082019060010161308e565b509495945050505050565b6020815260006111ac602083018461307a565b6000602082840312156130da57600080fd5b813567ffffffffffffffff8111156130f157600080fd5b6130fd84828501612d64565b949350505050565b60006020828403121561311757600080fd5b6111ac82612af0565b6000806040838503121561313357600080fd5b82359150602083013567ffffffffffffffff81111561315157600080fd5b61307085828601612d64565b6000806040838503121561317057600080fd5b61317983612af0565b91506020830135801515811461318e57600080fd5b809150509250929050565b600080600080608085870312156131af57600080fd5b6131b885612af0565b935060208086013567ffffffffffffffff808211156131d657600080fd5b6131e289838a01612c7f565b955060408801359150808211156131f857600080fd5b61320489838a01612c7f565b9450606088013591508082111561321a57600080fd5b818801915088601f83011261322e57600080fd5b813561323981612c5b565b6040516132468282612c2e565b82815260059290921b840185019185810191508b83111561326657600080fd5b8585015b8381101561329e578035858111156132825760008081fd5b6132908e89838a0101612d64565b84525091860191860161326a565b50989b979a50959850505050505050565b600080600080608085870312156132c557600080fd5b6132ce85612af0565b93506020850135925060408501359150606085013567ffffffffffffffff8111156132f857600080fd5b61330487828801612d64565b91505092959194509250565b6000806040838503121561332357600080fd5b61332c83612af0565b9150612ea560208401612af0565b600080600080600060a0868803121561335257600080fd5b61335b86612af0565b945061336960208701612af0565b93506040860135925060608601359150608086013567ffffffffffffffff81111561339357600080fd5b612e7588828901612d64565b634e487b7160e01b600052603260045260246000fd5b634e487b7160e01b600052601160045260246000fd5b600060001982036133de576133de6133b5565b5060010190565b600082516133f7818460208701612b82565b9190910192915050565b600181811c9082168061341557607f821691505b60208210810361343557634e487b7160e01b600052602260045260246000fd5b50919050565b600080845461344981613401565b600182811680156134615760018114613476576134a5565b60ff19841687528215158302870194506134a5565b8860005260208060002060005b8581101561349c5781548a820152908401908201613483565b50505082870194505b5050505083516134b9818360208801612b82565b01949350505050565b6040815260006134d5604083018561307a565b82810360208401526134e7818561307a565b95945050505050565b808201808211156106bb576106bb6133b5565b601f82111561091657600081815260208120601f850160051c8101602086101561352a5750805b601f850160051c820191505b818110156118dc57828155600101613536565b815167ffffffffffffffff81111561356357613563612c18565b613577816135718454613401565b84613503565b602080601f8311600181146135ac57600084156135945750858301515b600019600386901b1c1916600185901b1785556118dc565b600085815260208120601f198616915b828110156135db578886015182559484019460019091019084016135bc565b50858210156135f95787850151600019600388901b60f8161c191681555b5050505050600190811b01905550565b7f416363657373436f6e74726f6c3a206163636f756e7420000000000000000000815260008351613641816017850160208801612b82565b7f206973206d697373696e6720726f6c6520000000000000000000000000000000601791840191820152835161367e816028840160208801612b82565b01602801949350505050565b60006001600160a01b03808816835280871660208401525060a060408301526136b660a083018661307a565b82810360608401526136c8818661307a565b905082810360808401526136dc8185612ba6565b98975050505050505050565b6000602082840312156136fa57600080fd5b81516111ac81612b36565b600060033d11156123f55760046000803e5060005160e01c90565b600060443d101561372e5790565b6040517ffffffffffffffffffffffffffffffffffffffffffffffffffffffffffffffffc803d016004833e81513d67ffffffffffffffff816024840111818411171561377c57505050505090565b82850191508151818111156137945750505050505090565b843d87010160208285010111156137ae5750505050505090565b6137bd60208286010187612c2e565b509095945050505050565b60006001600160a01b03808816835280871660208401525084604083015283606083015260a0608083015261380060a0830184612ba6565b979650505050505050565b80820281158282048414176106bb576106bb6133b5565b600081613831576138316133b5565b50600019019056fea2646970667358221220fd1de53f8bb5dcc8ca83b8fa677c2193a615c490ce00b82b5b0340974d538c5364736f6c63430008120033",
  "devdoc": {
    "events": {
      "ApprovalForAll(address,address,bool)": {
        "details": "Emitted when `account` grants or revokes permission to `operator` to transfer their tokens, according to `approved`."
      },
      "Initialized(uint8)": {
        "details": "Triggered when the contract has been initialized or reinitialized."
      },
      "RoleAdminChanged(bytes32,bytes32,bytes32)": {
        "details": "Emitted when `newAdminRole` is set as ``role``'s admin role, replacing `previousAdminRole` `DEFAULT_ADMIN_ROLE` is the starting admin for all roles, despite {RoleAdminChanged} not being emitted signaling this. _Available since v3.1._"
      },
      "RoleGranted(bytes32,address,address)": {
        "details": "Emitted when `account` is granted `role`. `sender` is the account that originated the contract call, an admin role bearer except when using {AccessControl-_setupRole}."
      },
      "RoleRevoked(bytes32,address,address)": {
        "details": "Emitted when `account` is revoked `role`. `sender` is the account that originated the contract call:   - if using `revokeRole`, it is the admin role bearer   - if using `renounceRole`, it is the role bearer (i.e. `account`)"
      },
      "TransferBatch(address,address,address,uint256[],uint256[])": {
        "details": "Equivalent to multiple {TransferSingle} events, where `operator`, `from` and `to` are the same for all transfers."
      },
      "TransferSingle(address,address,address,uint256,uint256)": {
        "details": "Emitted when `value` tokens of token type `id` are transferred from `from` to `to` by `operator`."
      },
      "URI(string,uint256)": {
        "details": "Emitted when the URI for token type `id` changes to `value`, if it is a non-programmatic URI. If an {URI} event was emitted for `id`, the standard https://eips.ethereum.org/EIPS/eip-1155#metadata-extensions[guarantees] that `value` will equal the value returned by {IERC1155MetadataURI-uri}."
      }
    },
    "kind": "dev",
    "methods": {
      "balanceOf(address,uint256)": {
        "details": "See {IERC1155-balanceOf}. Requirements: - `account` cannot be the zero address."
      },
      "balanceOfBatch(address[],uint256[])": {
        "details": "See {IERC1155-balanceOfBatch}. Requirements: - `accounts` and `ids` must have the same length."
      },
      "burnBatchFrom(address,uint256[],uint256[])": {
        "details": "Only the minter role can burn tokensThis function was added with token recycling and bridging in mind but may have other use casesThe length of the ids and amounts arrays must be the same",
        "params": {
          "account": "The account to burn tokens from",
          "amounts": "An array of amounts of tokens to burn",
          "ids": "An array of token ids to burn"
        }
      },
      "burnFrom(address,uint256,uint256)": {
        "details": "Only the minter role can burn tokensThis function was added with token recycling and bridging in mind but may have other use cases",
        "params": {
          "account": "The account to burn tokens from",
          "amount": "The amount of tokens to burn",
          "id": "The token id to burn"
        }
      },
      "constructor": {
        "custom:oz-upgrades-unsafe-allow": "constructor"
      },
      "exists(uint256)": {
        "details": "Indicates whether any token exist with a given id, or not."
      },
      "getRoleAdmin(bytes32)": {
        "details": "Returns the admin role that controls `role`. See {grantRole} and {revokeRole}. To change a role's admin, use {_setRoleAdmin}."
      },
      "grantRole(bytes32,address)": {
        "details": "Grants `role` to `account`. If `account` had not been already granted `role`, emits a {RoleGranted} event. Requirements: - the caller must have ``role``'s admin role. May emit a {RoleGranted} event."
      },
      "hasRole(bytes32,address)": {
        "details": "Returns `true` if `account` has been granted `role`."
      },
      "isApprovedForAll(address,address)": {
        "details": "See {IERC1155-isApprovedForAll}."
      },
      "mint(address,uint256,uint256,string)": {
        "details": "Only callable by the minter role",
        "params": {
          "amount": "The amount of the token to mint",
          "id": "The id of the token to mint",
          "to": "The address of the recipient"
        }
      },
      "mintBatch(address,uint256[],uint256[],string[])": {
        "details": "Only callable by the minter role",
        "params": {
          "amounts": "The amounts of the tokens to mint",
          "ids": "The ids of the tokens to mint",
          "to": "The address of the recipient"
        }
      },
      "renounceRole(bytes32,address)": {
        "details": "Revokes `role` from the calling account. Roles are often managed via {grantRole} and {revokeRole}: this function's purpose is to provide a mechanism for accounts to lose their privileges if they are compromised (such as when a trusted device is misplaced). If the calling account had been revoked `role`, emits a {RoleRevoked} event. Requirements: - the caller must be `account`. May emit a {RoleRevoked} event."
      },
      "revokeRole(bytes32,address)": {
        "details": "Revokes `role` from `account`. If `account` had been granted `role`, emits a {RoleRevoked} event. Requirements: - the caller must have ``role``'s admin role. May emit a {RoleRevoked} event."
      },
      "safeBatchTransferFrom(address,address,uint256[],uint256[],bytes)": {
        "details": "See {IERC1155-safeBatchTransferFrom}."
      },
      "safeTransferFrom(address,address,uint256,uint256,bytes)": {
        "details": "See {IERC1155-safeTransferFrom}."
      },
      "setApprovalForAll(address,bool)": {
        "details": "See {IERC1155-setApprovalForAll}."
      },
      "setBaseURI(string)": {
        "params": {
          "baseURI": "The new base URI"
        }
      },
      "setTokenUri(uint256,string)": {
        "params": {
          "metadata": "The new uri for asset's metadata",
          "tokenId": "The token id to set URI for"
        }
      },
      "supportsInterface(bytes4)": {
        "params": {
          "id": "the interface identifier, as specified in ERC-165."
        },
        "returns": {
          "_0": "`true` if the contract implements `id`."
        }
      },
      "totalSupply(uint256)": {
        "details": "Total amount of tokens in with a given id."
      },
      "uri(uint256)": {
        "params": {
          "tokenId": "The token id to get URI for"
        },
        "returns": {
          "_0": "tokenURI the URI of the token"
        }
      }
    },
    "version": 1
  },
  "userdoc": {
    "kind": "user",
    "methods": {
      "burnBatchFrom(address,uint256[],uint256[])": {
        "notice": "Burn a batch of tokens from a given account"
      },
      "burnFrom(address,uint256,uint256)": {
        "notice": "Burn a token from a given account"
      },
      "mint(address,uint256,uint256,string)": {
        "notice": "Mint new tokens"
      },
      "mintBatch(address,uint256[],uint256[],string[])": {
        "notice": "Mint new tokens with catalyst tier chosen by the creator"
      },
      "setBaseURI(string)": {
        "notice": "Set a new base URI"
      },
      "setTokenUri(uint256,string)": {
        "notice": "Set a new URI for specific tokenid"
      },
      "supportsInterface(bytes4)": {
        "notice": "Query if a contract implements interface `id`."
      },
      "uri(uint256)": {
        "notice": "returns full token URI, including baseURI and token metadata URI"
      }
    },
    "version": 1
  },
  "storageLayout": {
    "storage": [
      {
        "astId": 459,
        "contract": "@sandbox-smart-contracts/asset/contracts/Asset.sol:Asset",
        "label": "_initialized",
        "offset": 0,
        "slot": "0",
        "type": "t_uint8"
      },
      {
        "astId": 462,
        "contract": "@sandbox-smart-contracts/asset/contracts/Asset.sol:Asset",
        "label": "_initializing",
        "offset": 1,
        "slot": "0",
        "type": "t_bool"
      },
      {
        "astId": 10165,
        "contract": "@sandbox-smart-contracts/asset/contracts/Asset.sol:Asset",
        "label": "_trustedForwarder",
        "offset": 2,
        "slot": "0",
        "type": "t_address"
      },
      {
        "astId": 3013,
        "contract": "@sandbox-smart-contracts/asset/contracts/Asset.sol:Asset",
        "label": "__gap",
        "offset": 0,
        "slot": "1",
        "type": "t_array(t_uint256)50_storage"
      },
      {
        "astId": 3936,
        "contract": "@sandbox-smart-contracts/asset/contracts/Asset.sol:Asset",
        "label": "__gap",
        "offset": 0,
        "slot": "51",
        "type": "t_array(t_uint256)50_storage"
      },
      {
        "astId": 650,
        "contract": "@sandbox-smart-contracts/asset/contracts/Asset.sol:Asset",
        "label": "_balances",
        "offset": 0,
        "slot": "101",
        "type": "t_mapping(t_uint256,t_mapping(t_address,t_uint256))"
      },
      {
        "astId": 656,
        "contract": "@sandbox-smart-contracts/asset/contracts/Asset.sol:Asset",
        "label": "_operatorApprovals",
        "offset": 0,
        "slot": "102",
        "type": "t_mapping(t_address,t_mapping(t_address,t_bool))"
      },
      {
        "astId": 658,
        "contract": "@sandbox-smart-contracts/asset/contracts/Asset.sol:Asset",
        "label": "_uri",
        "offset": 0,
        "slot": "103",
        "type": "t_string_storage"
      },
      {
        "astId": 1865,
        "contract": "@sandbox-smart-contracts/asset/contracts/Asset.sol:Asset",
        "label": "__gap",
        "offset": 0,
        "slot": "104",
        "type": "t_array(t_uint256)47_storage"
      },
      {
        "astId": 2117,
        "contract": "@sandbox-smart-contracts/asset/contracts/Asset.sol:Asset",
        "label": "__gap",
        "offset": 0,
        "slot": "151",
        "type": "t_array(t_uint256)50_storage"
      },
      {
        "astId": 39,
        "contract": "@sandbox-smart-contracts/asset/contracts/Asset.sol:Asset",
        "label": "_roles",
        "offset": 0,
        "slot": "201",
        "type": "t_mapping(t_bytes32,t_struct(RoleData)34_storage)"
      },
      {
        "astId": 334,
        "contract": "@sandbox-smart-contracts/asset/contracts/Asset.sol:Asset",
        "label": "__gap",
        "offset": 0,
        "slot": "202",
        "type": "t_array(t_uint256)49_storage"
      },
      {
        "astId": 2143,
        "contract": "@sandbox-smart-contracts/asset/contracts/Asset.sol:Asset",
        "label": "_totalSupply",
        "offset": 0,
        "slot": "251",
        "type": "t_mapping(t_uint256,t_uint256)"
      },
      {
        "astId": 2294,
        "contract": "@sandbox-smart-contracts/asset/contracts/Asset.sol:Asset",
        "label": "__gap",
        "offset": 0,
        "slot": "252",
        "type": "t_array(t_uint256)49_storage"
      },
      {
        "astId": 2329,
        "contract": "@sandbox-smart-contracts/asset/contracts/Asset.sol:Asset",
        "label": "_baseURI",
        "offset": 0,
        "slot": "301",
        "type": "t_string_storage"
      },
      {
        "astId": 2333,
        "contract": "@sandbox-smart-contracts/asset/contracts/Asset.sol:Asset",
        "label": "_tokenURIs",
        "offset": 0,
        "slot": "302",
        "type": "t_mapping(t_uint256,t_string_storage)"
      },
      {
        "astId": 2408,
        "contract": "@sandbox-smart-contracts/asset/contracts/Asset.sol:Asset",
        "label": "__gap",
        "offset": 0,
        "slot": "303",
        "type": "t_array(t_uint256)48_storage"
      },
      {
        "astId": 7232,
        "contract": "@sandbox-smart-contracts/asset/contracts/Asset.sol:Asset",
        "label": "recyclingAmounts",
        "offset": 0,
        "slot": "351",
        "type": "t_mapping(t_uint256,t_uint256)"
      },
      {
        "astId": 7236,
        "contract": "@sandbox-smart-contracts/asset/contracts/Asset.sol:Asset",
        "label": "bridgedTokensNonces",
        "offset": 0,
        "slot": "352",
        "type": "t_mapping(t_uint256,t_uint16)"
      },
      {
        "astId": 7240,
        "contract": "@sandbox-smart-contracts/asset/contracts/Asset.sol:Asset",
        "label": "hashUsed",
        "offset": 0,
        "slot": "353",
        "type": "t_mapping(t_string_memory_ptr,t_uint256)"
      }
    ],
    "types": {
      "t_address": {
        "encoding": "inplace",
        "label": "address",
        "numberOfBytes": "20"
      },
      "t_array(t_uint256)47_storage": {
        "base": "t_uint256",
        "encoding": "inplace",
        "label": "uint256[47]",
        "numberOfBytes": "1504"
      },
      "t_array(t_uint256)48_storage": {
        "base": "t_uint256",
        "encoding": "inplace",
        "label": "uint256[48]",
        "numberOfBytes": "1536"
      },
      "t_array(t_uint256)49_storage": {
        "base": "t_uint256",
        "encoding": "inplace",
        "label": "uint256[49]",
        "numberOfBytes": "1568"
      },
      "t_array(t_uint256)50_storage": {
        "base": "t_uint256",
        "encoding": "inplace",
        "label": "uint256[50]",
        "numberOfBytes": "1600"
      },
      "t_bool": {
        "encoding": "inplace",
        "label": "bool",
        "numberOfBytes": "1"
      },
      "t_bytes32": {
        "encoding": "inplace",
        "label": "bytes32",
        "numberOfBytes": "32"
      },
      "t_mapping(t_address,t_bool)": {
        "encoding": "mapping",
        "key": "t_address",
        "label": "mapping(address => bool)",
        "numberOfBytes": "32",
        "value": "t_bool"
      },
      "t_mapping(t_address,t_mapping(t_address,t_bool))": {
        "encoding": "mapping",
        "key": "t_address",
        "label": "mapping(address => mapping(address => bool))",
        "numberOfBytes": "32",
        "value": "t_mapping(t_address,t_bool)"
      },
      "t_mapping(t_address,t_uint256)": {
        "encoding": "mapping",
        "key": "t_address",
        "label": "mapping(address => uint256)",
        "numberOfBytes": "32",
        "value": "t_uint256"
      },
      "t_mapping(t_bytes32,t_struct(RoleData)34_storage)": {
        "encoding": "mapping",
        "key": "t_bytes32",
        "label": "mapping(bytes32 => struct AccessControlUpgradeable.RoleData)",
        "numberOfBytes": "32",
        "value": "t_struct(RoleData)34_storage"
      },
      "t_mapping(t_string_memory_ptr,t_uint256)": {
        "encoding": "mapping",
        "key": "t_string_memory_ptr",
        "label": "mapping(string => uint256)",
        "numberOfBytes": "32",
        "value": "t_uint256"
      },
      "t_mapping(t_uint256,t_mapping(t_address,t_uint256))": {
        "encoding": "mapping",
        "key": "t_uint256",
        "label": "mapping(uint256 => mapping(address => uint256))",
        "numberOfBytes": "32",
        "value": "t_mapping(t_address,t_uint256)"
      },
      "t_mapping(t_uint256,t_string_storage)": {
        "encoding": "mapping",
        "key": "t_uint256",
        "label": "mapping(uint256 => string)",
        "numberOfBytes": "32",
        "value": "t_string_storage"
      },
      "t_mapping(t_uint256,t_uint16)": {
        "encoding": "mapping",
        "key": "t_uint256",
        "label": "mapping(uint256 => uint16)",
        "numberOfBytes": "32",
        "value": "t_uint16"
      },
      "t_mapping(t_uint256,t_uint256)": {
        "encoding": "mapping",
        "key": "t_uint256",
        "label": "mapping(uint256 => uint256)",
        "numberOfBytes": "32",
        "value": "t_uint256"
      },
      "t_string_memory_ptr": {
        "encoding": "bytes",
        "label": "string",
        "numberOfBytes": "32"
      },
      "t_string_storage": {
        "encoding": "bytes",
        "label": "string",
        "numberOfBytes": "32"
      },
      "t_struct(RoleData)34_storage": {
        "encoding": "inplace",
        "label": "struct AccessControlUpgradeable.RoleData",
        "members": [
          {
            "astId": 31,
            "contract": "@sandbox-smart-contracts/asset/contracts/Asset.sol:Asset",
            "label": "members",
            "offset": 0,
            "slot": "0",
            "type": "t_mapping(t_address,t_bool)"
          },
          {
            "astId": 33,
            "contract": "@sandbox-smart-contracts/asset/contracts/Asset.sol:Asset",
            "label": "adminRole",
            "offset": 0,
            "slot": "1",
            "type": "t_bytes32"
          }
        ],
        "numberOfBytes": "64"
      },
      "t_uint16": {
        "encoding": "inplace",
        "label": "uint16",
        "numberOfBytes": "2"
      },
      "t_uint256": {
        "encoding": "inplace",
        "label": "uint256",
        "numberOfBytes": "32"
      },
      "t_uint8": {
        "encoding": "inplace",
        "label": "uint8",
        "numberOfBytes": "1"
      }
    }
  }
}