{
  "address": "0x46D2D2be1aEb899949f327C3b7d32BeFA0470761",
  "abi": [
    {
      "inputs": [],
      "stateMutability": "nonpayable",
      "type": "constructor"
    },
    {
      "anonymous": false,
      "inputs": [
        {
          "indexed": true,
          "internalType": "address",
          "name": "account",
          "type": "address"
        },
        {
          "indexed": true,
          "internalType": "address",
          "name": "operator",
          "type": "address"
        },
        {
          "indexed": false,
          "internalType": "bool",
          "name": "approved",
          "type": "bool"
        }
      ],
      "name": "ApprovalForAll",
      "type": "event"
    },
    {
      "anonymous": false,
      "inputs": [
        {
          "indexed": true,
          "internalType": "address",
          "name": "newDefaultRoyaltyRecipient",
          "type": "address"
        },
        {
          "indexed": false,
          "internalType": "uint256",
          "name": "newDefaultRoyaltyAmount",
          "type": "uint256"
        }
      ],
      "name": "DefaultRoyaltyChanged",
      "type": "event"
    },
    {
      "anonymous": false,
      "inputs": [
        {
          "indexed": false,
          "internalType": "uint8",
          "name": "version",
          "type": "uint8"
        }
      ],
      "name": "Initialized",
      "type": "event"
    },
    {
      "anonymous": false,
      "inputs": [
        {
          "indexed": false,
          "internalType": "uint256",
          "name": "catalystId",
          "type": "uint256"
        }
      ],
      "name": "NewCatalystTypeAdded",
      "type": "event"
    },
    {
      "anonymous": false,
      "inputs": [
        {
          "indexed": true,
          "internalType": "bytes32",
          "name": "role",
          "type": "bytes32"
        },
        {
          "indexed": true,
          "internalType": "bytes32",
          "name": "previousAdminRole",
          "type": "bytes32"
        },
        {
          "indexed": true,
          "internalType": "bytes32",
          "name": "newAdminRole",
          "type": "bytes32"
        }
      ],
      "name": "RoleAdminChanged",
      "type": "event"
    },
    {
      "anonymous": false,
      "inputs": [
        {
          "indexed": true,
          "internalType": "bytes32",
          "name": "role",
          "type": "bytes32"
        },
        {
          "indexed": true,
          "internalType": "address",
          "name": "account",
          "type": "address"
        },
        {
          "indexed": true,
          "internalType": "address",
          "name": "sender",
          "type": "address"
        }
      ],
      "name": "RoleGranted",
      "type": "event"
    },
    {
      "anonymous": false,
      "inputs": [
        {
          "indexed": true,
          "internalType": "bytes32",
          "name": "role",
          "type": "bytes32"
        },
        {
          "indexed": true,
          "internalType": "address",
          "name": "account",
          "type": "address"
        },
        {
          "indexed": true,
          "internalType": "address",
          "name": "sender",
          "type": "address"
        }
      ],
      "name": "RoleRevoked",
      "type": "event"
    },
    {
      "anonymous": false,
      "inputs": [
        {
          "indexed": true,
          "internalType": "address",
          "name": "operator",
          "type": "address"
        },
        {
          "indexed": true,
          "internalType": "address",
          "name": "from",
          "type": "address"
        },
        {
          "indexed": true,
          "internalType": "address",
          "name": "to",
          "type": "address"
        },
        {
          "indexed": false,
          "internalType": "uint256[]",
          "name": "ids",
          "type": "uint256[]"
        },
        {
          "indexed": false,
          "internalType": "uint256[]",
          "name": "values",
          "type": "uint256[]"
        }
      ],
      "name": "TransferBatch",
      "type": "event"
    },
    {
      "anonymous": false,
      "inputs": [
        {
          "indexed": true,
          "internalType": "address",
          "name": "operator",
          "type": "address"
        },
        {
          "indexed": true,
          "internalType": "address",
          "name": "from",
          "type": "address"
        },
        {
          "indexed": true,
          "internalType": "address",
          "name": "to",
          "type": "address"
        },
        {
          "indexed": false,
          "internalType": "uint256",
          "name": "id",
          "type": "uint256"
        },
        {
          "indexed": false,
          "internalType": "uint256",
          "name": "value",
          "type": "uint256"
        }
      ],
      "name": "TransferSingle",
      "type": "event"
    },
    {
      "anonymous": false,
      "inputs": [
        {
          "indexed": true,
          "internalType": "address",
          "name": "newTrustedForwarderAddress",
          "type": "address"
        }
      ],
      "name": "TrustedForwarderChanged",
      "type": "event"
    },
    {
      "anonymous": false,
      "inputs": [
        {
          "indexed": false,
          "internalType": "string",
          "name": "value",
          "type": "string"
        },
        {
          "indexed": true,
          "internalType": "uint256",
          "name": "id",
          "type": "uint256"
        }
      ],
      "name": "URI",
      "type": "event"
    },
    {
      "inputs": [],
      "name": "BURNER_ROLE",
      "outputs": [
        {
          "internalType": "bytes32",
          "name": "",
          "type": "bytes32"
        }
      ],
      "stateMutability": "view",
      "type": "function"
    },
    {
      "inputs": [],
      "name": "DEFAULT_ADMIN_ROLE",
      "outputs": [
        {
          "internalType": "bytes32",
          "name": "",
          "type": "bytes32"
        }
      ],
      "stateMutability": "view",
      "type": "function"
    },
    {
      "inputs": [],
      "name": "MINTER_ROLE",
      "outputs": [
        {
          "internalType": "bytes32",
          "name": "",
          "type": "bytes32"
        }
      ],
      "stateMutability": "view",
      "type": "function"
    },
    {
      "inputs": [
        {
          "internalType": "string",
          "name": "ipfsCID",
          "type": "string"
        }
      ],
      "name": "addNewCatalystType",
      "outputs": [],
      "stateMutability": "nonpayable",
      "type": "function"
    },
    {
      "inputs": [
        {
          "internalType": "address",
          "name": "account",
          "type": "address"
        },
        {
          "internalType": "uint256",
          "name": "id",
          "type": "uint256"
        }
      ],
      "name": "balanceOf",
      "outputs": [
        {
          "internalType": "uint256",
          "name": "",
          "type": "uint256"
        }
      ],
      "stateMutability": "view",
      "type": "function"
    },
    {
      "inputs": [
        {
          "internalType": "address[]",
          "name": "accounts",
          "type": "address[]"
        },
        {
          "internalType": "uint256[]",
          "name": "ids",
          "type": "uint256[]"
        }
      ],
      "name": "balanceOfBatch",
      "outputs": [
        {
          "internalType": "uint256[]",
          "name": "",
          "type": "uint256[]"
        }
      ],
      "stateMutability": "view",
      "type": "function"
    },
    {
      "inputs": [
        {
          "internalType": "address",
          "name": "account",
          "type": "address"
        },
        {
          "internalType": "uint256",
          "name": "id",
          "type": "uint256"
        },
        {
          "internalType": "uint256",
          "name": "value",
          "type": "uint256"
        }
      ],
      "name": "burn",
      "outputs": [],
      "stateMutability": "nonpayable",
      "type": "function"
    },
    {
      "inputs": [
        {
          "internalType": "address",
          "name": "account",
          "type": "address"
        },
        {
          "internalType": "uint256[]",
          "name": "ids",
          "type": "uint256[]"
        },
        {
          "internalType": "uint256[]",
          "name": "values",
          "type": "uint256[]"
        }
      ],
      "name": "burnBatch",
      "outputs": [],
      "stateMutability": "nonpayable",
      "type": "function"
    },
    {
      "inputs": [
        {
          "internalType": "address",
          "name": "account",
          "type": "address"
        },
        {
          "internalType": "uint256[]",
          "name": "ids",
          "type": "uint256[]"
        },
        {
          "internalType": "uint256[]",
          "name": "amounts",
          "type": "uint256[]"
        }
      ],
      "name": "burnBatchFrom",
      "outputs": [],
      "stateMutability": "nonpayable",
      "type": "function"
    },
    {
      "inputs": [
        {
          "internalType": "address",
          "name": "account",
          "type": "address"
        },
        {
          "internalType": "uint256",
          "name": "id",
          "type": "uint256"
        },
        {
          "internalType": "uint256",
          "name": "amount",
          "type": "uint256"
        }
      ],
      "name": "burnFrom",
      "outputs": [],
      "stateMutability": "nonpayable",
      "type": "function"
    },
    {
      "inputs": [
        {
          "internalType": "uint256",
          "name": "id",
          "type": "uint256"
        }
      ],
      "name": "exists",
      "outputs": [
        {
          "internalType": "bool",
          "name": "",
          "type": "bool"
        }
      ],
      "stateMutability": "view",
      "type": "function"
    },
    {
      "inputs": [
        {
          "internalType": "bytes32",
          "name": "role",
          "type": "bytes32"
        }
      ],
      "name": "getRoleAdmin",
      "outputs": [
        {
          "internalType": "bytes32",
          "name": "",
          "type": "bytes32"
        }
      ],
      "stateMutability": "view",
      "type": "function"
    },
    {
      "inputs": [],
      "name": "getTrustedForwarder",
      "outputs": [
        {
          "internalType": "address",
          "name": "trustedForwarder",
          "type": "address"
        }
      ],
      "stateMutability": "view",
      "type": "function"
    },
    {
      "inputs": [
        {
          "internalType": "bytes32",
          "name": "role",
          "type": "bytes32"
        },
        {
          "internalType": "address",
          "name": "account",
          "type": "address"
        }
      ],
      "name": "grantRole",
      "outputs": [],
      "stateMutability": "nonpayable",
      "type": "function"
    },
    {
      "inputs": [
        {
          "internalType": "bytes32",
          "name": "role",
          "type": "bytes32"
        },
        {
          "internalType": "address",
          "name": "account",
          "type": "address"
        }
      ],
      "name": "hasRole",
      "outputs": [
        {
          "internalType": "bool",
          "name": "",
          "type": "bool"
        }
      ],
      "stateMutability": "view",
      "type": "function"
    },
    {
      "inputs": [],
      "name": "highestTierIndex",
      "outputs": [
        {
          "internalType": "uint256",
          "name": "",
          "type": "uint256"
        }
      ],
      "stateMutability": "view",
      "type": "function"
    },
    {
      "inputs": [
        {
          "internalType": "string",
          "name": "_baseUri",
          "type": "string"
        },
        {
          "internalType": "address",
          "name": "_trustedForwarder",
          "type": "address"
        },
        {
          "internalType": "address",
          "name": "_subscription",
          "type": "address"
        },
        {
          "internalType": "address",
          "name": "_defaultAdmin",
          "type": "address"
        },
        {
          "internalType": "address",
          "name": "_defaultMinter",
          "type": "address"
        },
        {
          "internalType": "string[]",
          "name": "_catalystIpfsCID",
          "type": "string[]"
        },
        {
          "internalType": "address",
          "name": "_royaltyManager",
          "type": "address"
        }
      ],
      "name": "initialize",
      "outputs": [],
      "stateMutability": "nonpayable",
      "type": "function"
    },
    {
      "inputs": [
        {
          "internalType": "address",
          "name": "account",
          "type": "address"
        },
        {
          "internalType": "address",
          "name": "operator",
          "type": "address"
        }
      ],
      "name": "isApprovedForAll",
      "outputs": [
        {
          "internalType": "bool",
          "name": "",
          "type": "bool"
        }
      ],
      "stateMutability": "view",
      "type": "function"
    },
    {
      "inputs": [
        {
          "internalType": "address",
          "name": "forwarder",
          "type": "address"
        }
      ],
      "name": "isTrustedForwarder",
      "outputs": [
        {
          "internalType": "bool",
          "name": "",
          "type": "bool"
        }
      ],
      "stateMutability": "view",
      "type": "function"
    },
    {
      "inputs": [
        {
          "internalType": "address",
          "name": "to",
          "type": "address"
        },
        {
          "internalType": "uint256",
          "name": "id",
          "type": "uint256"
        },
        {
          "internalType": "uint256",
          "name": "amount",
          "type": "uint256"
        }
      ],
      "name": "mint",
      "outputs": [],
      "stateMutability": "nonpayable",
      "type": "function"
    },
    {
      "inputs": [
        {
          "internalType": "address",
          "name": "to",
          "type": "address"
        },
        {
          "internalType": "uint256[]",
          "name": "ids",
          "type": "uint256[]"
        },
        {
          "internalType": "uint256[]",
          "name": "amounts",
          "type": "uint256[]"
        }
      ],
      "name": "mintBatch",
      "outputs": [],
      "stateMutability": "nonpayable",
      "type": "function"
    },
    {
      "inputs": [],
      "name": "operatorFilterRegistry",
      "outputs": [
        {
          "internalType": "contract IOperatorFilterRegistry",
          "name": "",
          "type": "address"
        }
      ],
      "stateMutability": "view",
      "type": "function"
    },
    {
      "inputs": [
        {
          "internalType": "bytes32",
          "name": "role",
          "type": "bytes32"
        },
        {
          "internalType": "address",
          "name": "account",
          "type": "address"
        }
      ],
      "name": "renounceRole",
      "outputs": [],
      "stateMutability": "nonpayable",
      "type": "function"
    },
    {
      "inputs": [
        {
          "internalType": "bytes32",
          "name": "role",
          "type": "bytes32"
        },
        {
          "internalType": "address",
          "name": "account",
          "type": "address"
        }
      ],
      "name": "revokeRole",
      "outputs": [],
      "stateMutability": "nonpayable",
      "type": "function"
    },
    {
      "inputs": [
        {
          "internalType": "uint256",
          "name": "",
          "type": "uint256"
        },
        {
          "internalType": "uint256",
          "name": "_salePrice",
          "type": "uint256"
        }
      ],
      "name": "royaltyInfo",
      "outputs": [
        {
          "internalType": "address",
          "name": "receiver",
          "type": "address"
        },
        {
          "internalType": "uint256",
          "name": "royaltyAmount",
          "type": "uint256"
        }
      ],
      "stateMutability": "view",
      "type": "function"
    },
    {
      "inputs": [],
      "name": "royaltyManager",
      "outputs": [
        {
          "internalType": "contract IRoyaltyManager",
          "name": "",
          "type": "address"
        }
      ],
      "stateMutability": "view",
      "type": "function"
    },
    {
      "inputs": [
        {
          "internalType": "address",
          "name": "from",
          "type": "address"
        },
        {
          "internalType": "address",
          "name": "to",
          "type": "address"
        },
        {
          "internalType": "uint256[]",
          "name": "ids",
          "type": "uint256[]"
        },
        {
          "internalType": "uint256[]",
          "name": "values",
          "type": "uint256[]"
        },
        {
          "internalType": "bytes",
          "name": "data",
          "type": "bytes"
        }
      ],
      "name": "safeBatchTransferFrom",
      "outputs": [],
      "stateMutability": "nonpayable",
      "type": "function"
    },
    {
      "inputs": [
        {
          "internalType": "address",
          "name": "from",
          "type": "address"
        },
        {
          "internalType": "address",
          "name": "to",
          "type": "address"
        },
        {
          "internalType": "uint256",
          "name": "id",
          "type": "uint256"
        },
        {
          "internalType": "uint256",
          "name": "value",
          "type": "uint256"
        },
        {
          "internalType": "bytes",
          "name": "data",
          "type": "bytes"
        }
      ],
      "name": "safeTransferFrom",
      "outputs": [],
      "stateMutability": "nonpayable",
      "type": "function"
    },
    {
      "inputs": [
        {
          "internalType": "address",
          "name": "operator",
          "type": "address"
        },
        {
          "internalType": "bool",
          "name": "approved",
          "type": "bool"
        }
      ],
      "name": "setApprovalForAll",
      "outputs": [],
      "stateMutability": "nonpayable",
      "type": "function"
    },
    {
      "inputs": [
        {
          "internalType": "string",
          "name": "baseURI",
          "type": "string"
        }
      ],
      "name": "setBaseURI",
      "outputs": [],
      "stateMutability": "nonpayable",
      "type": "function"
    },
    {
      "inputs": [
        {
          "internalType": "uint256",
          "name": "tokenId",
          "type": "uint256"
        },
        {
          "internalType": "string",
          "name": "metadataHash",
          "type": "string"
        }
      ],
      "name": "setMetadataHash",
      "outputs": [],
      "stateMutability": "nonpayable",
      "type": "function"
    },
    {
      "inputs": [
        {
          "internalType": "address",
          "name": "trustedForwarder",
          "type": "address"
        }
      ],
      "name": "setTrustedForwarder",
      "outputs": [],
      "stateMutability": "nonpayable",
      "type": "function"
    },
    {
      "inputs": [
        {
          "internalType": "bytes4",
          "name": "interfaceId",
          "type": "bytes4"
        }
      ],
      "name": "supportsInterface",
      "outputs": [
        {
          "internalType": "bool",
          "name": "",
          "type": "bool"
        }
      ],
      "stateMutability": "view",
      "type": "function"
    },
    {
      "inputs": [
        {
          "internalType": "uint256",
          "name": "id",
          "type": "uint256"
        }
      ],
      "name": "totalSupply",
      "outputs": [
        {
          "internalType": "uint256",
          "name": "",
          "type": "uint256"
        }
      ],
      "stateMutability": "view",
      "type": "function"
    },
    {
      "inputs": [
        {
          "internalType": "uint256",
          "name": "tokenId",
          "type": "uint256"
        }
      ],
      "name": "uri",
      "outputs": [
        {
          "internalType": "string",
          "name": "",
          "type": "string"
        }
      ],
      "stateMutability": "view",
      "type": "function"
    }
  ],
  "transactionHash": "0x117bbe7a9c996790e0e9fa0a4345984cc3b460876615ef97b2b1c5b75c1754d2",
  "args": [],
  "numDeployments": 1,
  "solcInputHash": "ceb274902183f5f625535381b6163583",
  "bytecode": "0x60806040523480156200001157600080fd5b506200001c62000022565b620000e3565b600054610100900460ff16156200008f5760405162461bcd60e51b815260206004820152602760248201527f496e697469616c697a61626c653a20636f6e747261637420697320696e697469604482015266616c697a696e6760c81b606482015260840160405180910390fd5b60005460ff90811614620000e1576000805460ff191660ff9081179091556040519081527f7f26b83ff96e1f2b6a682f133852f6798a09c465da95921460cefb38474024989060200160405180910390a15b565b61434e80620000f36000396000f3fe608060405234801561001057600080fd5b50600436106102405760003560e01c8063572b6c0511610145578063d5391393116100bd578063e985e9c51161008c578063f242432a11610071578063f242432a146105bd578063f3bdecc1146105d0578063f5298aca146105e357600080fd5b8063e985e9c51461056d578063ee295d62146105a957600080fd5b8063d53913931461050d578063d547741f14610534578063d81d0a1514610547578063da7422281461055a57600080fd5b8063a217fddf11610114578063b0ccc31e116100f9578063b0ccc31e146104af578063bd85b039146104db578063ce1b815f146104fb57600080fd5b8063a217fddf14610494578063a22cb4651461049c57600080fd5b8063572b6c051461041a5780636b20c4541461043d57806371e0276c1461045057806391d148541461045a57600080fd5b8063282c51f3116101d857806336568abe116101a75780634f558e791161018c5780634f558e79146103d2578063512c97e9146103f457806355f804b31461040757600080fd5b806336568abe1461039f5780634e1273f4146103b257600080fd5b8063282c51f3146103205780632a55205a146103475780632eb2c2d6146103795780632f2ff15d1461038c57600080fd5b8063156e29f611610214578063156e29f6146102c35780631a87b277146102d657806320820ec3146102e9578063248a9ca3146102fc57600080fd5b8062fdd58e1461024557806301ffc9a71461026b5780630e89341c1461028e578063124d91e5146102ae575b600080fd5b61025861025336600461369c565b6105f6565b6040519081526020015b60405180910390f35b61027e6102793660046136de565b6106a4565b6040519015158152602001610262565b6102a161029c3660046136fb565b6106f6565b6040516102629190613764565b6102c16102bc366004613777565b610701565b005b6102c16102d1366004613777565b61073c565b6102c16102e4366004613863565b6107e8565b6102c16102f7366004613935565b61089f565b61025861030a3660046136fb565b600090815261012e602052604090206001015490565b6102587f3c11d16cbaffd01df69ce1c404f6340ee057498f5f00246190ea54220576a84881565b61035a6103553660046139ab565b6108d4565b604080516001600160a01b039093168352602083019190915201610262565b6102c16103873660046139cd565b61097a565b6102c161039a366004613a7b565b610a85565b6102c16103ad366004613a7b565b610ab0565b6103c56103c0366004613aab565b610b4c565b6040516102629190613ba9565b61027e6103e03660046136fb565b600090815260c96020526040902054151590565b6102c1610402366004613bbc565b610c8a565b6102c1610415366004613863565b610d76565b61027e610428366004613bf9565b61012d546001600160a01b0391821691161490565b6102c161044b366004613935565b610e01565b6102586101625481565b61027e610468366004613a7b565b600091825261012e602090815260408084206001600160a01b0393909316845291905290205460ff1690565b610258600081565b6102c16104aa366004613c24565b610eac565b610160546104c3906001600160a01b031681565b6040516001600160a01b039091168152602001610262565b6102586104e93660046136fb565b600090815260c9602052604090205490565b61012d546001600160a01b03166104c3565b6102587f9f2df0fed2c77648de5860a4cc508cd0818c85b8b8a1ab4ceeef8d981c8956a681565b6102c1610542366004613a7b565b610f94565b6102c1610555366004613935565b610fba565b6102c1610568366004613bf9565b6110af565b61027e61057b366004613c52565b6001600160a01b03918216600090815260666020908152604080832093909416825291909152205460ff1690565b610161546104c3906001600160a01b031681565b6102c16105cb366004613c80565b61118f565b6102c16105de366004613ce9565b61128d565b6102c16105f1366004613777565b6117b8565b60006001600160a01b0383166106795760405162461bcd60e51b815260206004820152602a60248201527f455243313135353a2061646472657373207a65726f206973206e6f742061207660448201527f616c6964206f776e65720000000000000000000000000000000000000000000060648201526084015b60405180910390fd5b5060008181526065602090815260408083206001600160a01b03861684529091529020545b92915050565b60006106af82611863565b806106be57506106be826118fe565b8061069e57507f2a55205a000000000000000000000000000000000000000000000000000000006001600160e01b031983161461069e565b606061069e8261193c565b7f3c11d16cbaffd01df69ce1c404f6340ee057498f5f00246190ea54220576a84861072b81611a1c565b610736848484611a30565b50505050565b7f9f2df0fed2c77648de5860a4cc508cd0818c85b8b8a1ab4ceeef8d981c8956a661076681611a1c565b8260008111801561077a5750610162548111155b6107c65760405162461bcd60e51b815260206004820152601d60248201527f436174616c7973743a20696e76616c696420636174616c7973742069640000006044820152606401610670565b6107e185858560405180602001604052806000815250611c07565b5050505050565b60006107f381611a1c565b81516000036108445760405162461bcd60e51b815260206004820152601c60248201527f436174616c7973743a204349442063616e277420626520656d707479000000006044820152606401610670565b60006101626000815461085690613e3b565b918290555090506108678184611d4a565b6040518181527f0fc221b41b73e1c4f9d65566cf090e650d0246fb5c0434a32e9b313a39636d169060200160405180910390a1505050565b7f3c11d16cbaffd01df69ce1c404f6340ee057498f5f00246190ea54220576a8486108c981611a1c565b610736848484611da7565b600080600061016160009054906101000a90046001600160a01b03166001600160a01b031663a86a28d16040518163ffffffff1660e01b81526004016040805180830381865afa15801561092c573d6000803e3d6000fd5b505050506040513d601f19601f820116820180604052508101906109509190613e55565b909350905061271061096661ffff831686613e8b565b6109709190613ea2565b9150509250929050565b6101605485906001600160a01b03163b15610a7057336001600160a01b038216036109b1576109ac8686868686612039565b610a7d565b61016054604051633185c44d60e21b81523060048201523360248201526001600160a01b039091169063c617113490604401602060405180830381865afa158015610a00573d6000803e3d6000fd5b505050506040513d601f19601f82011682018060405250810190610a249190613ec4565b610a705760405162461bcd60e51b815260206004820152601460248201527f4f70657261746f72204e6f7420416c6c6f7765640000000000000000000000006044820152606401610670565b610a7d8686868686612039565b505050505050565b600082815261012e6020526040902060010154610aa181611a1c565b610aab83836122d6565b505050565b610ab861237b565b6001600160a01b0316816001600160a01b031614610b3e5760405162461bcd60e51b815260206004820152602f60248201527f416363657373436f6e74726f6c3a2063616e206f6e6c792072656e6f756e636560448201527f20726f6c657320666f722073656c6600000000000000000000000000000000006064820152608401610670565b610b48828261238a565b5050565b60608151835114610bc55760405162461bcd60e51b815260206004820152602960248201527f455243313135353a206163636f756e747320616e6420696473206c656e67746860448201527f206d69736d6174636800000000000000000000000000000000000000000000006064820152608401610670565b6000835167ffffffffffffffff811115610be157610be16137ac565b604051908082528060200260200182016040528015610c0a578160200160208202803683370190505b50905060005b8451811015610c8257610c55858281518110610c2e57610c2e613ee1565b6020026020010151858381518110610c4857610c48613ee1565b60200260200101516105f6565b828281518110610c6757610c67613ee1565b6020908102919091010152610c7b81613e3b565b9050610c10565b509392505050565b6000610c9581611a1c565b82600081118015610ca95750610162548111155b610cf55760405162461bcd60e51b815260206004820152601d60248201527f436174616c7973743a20696e76616c696420636174616c7973742069640000006044820152606401610670565b8251600003610d6c5760405162461bcd60e51b815260206004820152602560248201527f436174616c7973743a206d65746164617461486173682063616e27742062652060448201527f656d7074790000000000000000000000000000000000000000000000000000006064820152608401610670565b6107368484611d4a565b6000610d8181611a1c565b8151600003610df85760405162461bcd60e51b815260206004820152602160248201527f436174616c7973743a2062617365207572692063616e277420626520656d707460448201527f79000000000000000000000000000000000000000000000000000000000000006064820152608401610670565b610b488261242d565b610e0961237b565b6001600160a01b0316836001600160a01b03161480610e2f5750610e2f8361057b61237b565b610ea15760405162461bcd60e51b815260206004820152602e60248201527f455243313135353a2063616c6c6572206973206e6f7420746f6b656e206f776e60448201527f6572206f7220617070726f7665640000000000000000000000000000000000006064820152608401610670565b610aab838383611da7565b6101605482906001600160a01b03163b15610f825761016054604051633185c44d60e21b81523060048201526001600160a01b0383811660248301529091169063c617113490604401602060405180830381865afa158015610f12573d6000803e3d6000fd5b505050506040513d601f19601f82011682018060405250810190610f369190613ec4565b610f825760405162461bcd60e51b815260206004820152601460248201527f4f70657261746f72204e6f7420416c6c6f7765640000000000000000000000006044820152606401610670565b610aab610f8d61237b565b8484612439565b600082815261012e6020526040902060010154610fb081611a1c565b610aab838361238a565b7f9f2df0fed2c77648de5860a4cc508cd0818c85b8b8a1ab4ceeef8d981c8956a6610fe481611a1c565b60005b835181101561109357600084828151811061100457611004613ee1565b602002602001015111801561103557506101625484828151811061102a5761102a613ee1565b602002602001015111155b6110815760405162461bcd60e51b815260206004820152601d60248201527f436174616c7973743a20696e76616c696420636174616c7973742069640000006044820152606401610670565b8061108b81613e3b565b915050610fe7565b506107368484846040518060200160405280600081525061252d565b60006110ba81611a1c565b6001600160a01b0382166111365760405162461bcd60e51b815260206004820152603160248201527f436174616c7973743a207472757374656420666f727761726465722063616e2760448201527f74206265207a65726f20616464726573730000000000000000000000000000006064820152608401610670565b61012d805473ffffffffffffffffffffffffffffffffffffffff19166001600160a01b0384169081179091556040517f871264f4293af7d2865ae7eae628b228f4991c57cb45b39c99f0b774ebe2901890600090a25050565b6101605485906001600160a01b03163b1561128057336001600160a01b038216036111c1576109ac868686868661272a565b61016054604051633185c44d60e21b81523060048201523360248201526001600160a01b039091169063c617113490604401602060405180830381865afa158015611210573d6000803e3d6000fd5b505050506040513d601f19601f820116820180604052508101906112349190613ec4565b6112805760405162461bcd60e51b815260206004820152601460248201527f4f70657261746f72204e6f7420416c6c6f7765640000000000000000000000006044820152606401610670565b610a7d868686868661272a565b600054610100900460ff16158080156112ad5750600054600160ff909116105b806112c75750303b1580156112c7575060005460ff166001145b6113395760405162461bcd60e51b815260206004820152602e60248201527f496e697469616c697a61626c653a20636f6e747261637420697320616c72656160448201527f647920696e697469616c697a65640000000000000000000000000000000000006064820152608401610670565b6000805460ff19166001179055801561135c576000805461ff0019166101001790555b87516000036113d35760405162461bcd60e51b815260206004820152602160248201527f436174616c7973743a2062617365207572692063616e277420626520656d707460448201527f79000000000000000000000000000000000000000000000000000000000000006064820152608401610670565b6001600160a01b03871661144f5760405162461bcd60e51b815260206004820152602960248201527f436174616c7973743a207472757374656420666f727761726465722063616e2760448201527f74206265207a65726f00000000000000000000000000000000000000000000006064820152608401610670565b6001600160a01b0386166114ca5760405162461bcd60e51b8152602060048201526024808201527f436174616c7973743a20737562736372697074696f6e2063616e27742062652060448201527f7a65726f000000000000000000000000000000000000000000000000000000006064820152608401610670565b6001600160a01b0385166115205760405162461bcd60e51b815260206004820152601d60248201527f436174616c7973743a2061646d696e2063616e2774206265207a65726f0000006044820152606401610670565b6001600160a01b0384166115765760405162461bcd60e51b815260206004820152601e60248201527f436174616c7973743a206d696e7465722063616e2774206265207a65726f00006044820152606401610670565b6001600160a01b0382166115f25760405162461bcd60e51b815260206004820152602760248201527f436174616c7973743a20726f79616c7479206d616e616765722063616e27742060448201527f6265207a65726f000000000000000000000000000000000000000000000000006064820152608401610670565b6115fb8861291d565b611603612991565b61160b612991565b611613612991565b61161b6129fe565b61012d805473ffffffffffffffffffffffffffffffffffffffff19166001600160a01b03891617905561164f866001612a71565b6116588861242d565b6116636000866122d6565b61168d7f9f2df0fed2c77648de5860a4cc508cd0818c85b8b8a1ab4ceeef8d981c8956a6856122d6565b610161805473ffffffffffffffffffffffffffffffffffffffff19166001600160a01b03841617905560005b8351811015611767578381815181106116d4576116d4613ee1565b60200260200101515160000361172c5760405162461bcd60e51b815260206004820152601c60248201527f436174616c7973743a204349442063616e277420626520656d707479000000006044820152606401610670565b61174f8185838151811061174257611742613ee1565b6020026020010151611d4a565b6101628190558061175f81613e3b565b9150506116b9565b5080156117ae576000805461ff0019169055604051600181527f7f26b83ff96e1f2b6a682f133852f6798a09c465da95921460cefb38474024989060200160405180910390a15b5050505050505050565b6117c061237b565b6001600160a01b0316836001600160a01b031614806117e657506117e68361057b61237b565b6118585760405162461bcd60e51b815260206004820152602e60248201527f455243313135353a2063616c6c6572206973206e6f7420746f6b656e206f776e60448201527f6572206f7220617070726f7665640000000000000000000000000000000000006064820152608401610670565b610aab838383611a30565b60006001600160e01b031982167fd9b67a260000000000000000000000000000000000000000000000000000000014806118c657506001600160e01b031982167f0e89341c00000000000000000000000000000000000000000000000000000000145b8061069e57507f01ffc9a7000000000000000000000000000000000000000000000000000000006001600160e01b031983161461069e565b60006001600160e01b031982167f7965db0b00000000000000000000000000000000000000000000000000000000148061069e575061069e82611863565b600081815260fc602052604081208054606092919061195a90613ef7565b80601f016020809104026020016040519081016040528092919081815260200182805461198690613ef7565b80156119d35780601f106119a8576101008083540402835291602001916119d3565b820191906000526020600020905b8154815290600101906020018083116119b657829003601f168201915b5050505050905060008151116119f1576119ec83612ccc565b611a15565b60fb81604051602001611a05929190613f31565b6040516020818303038152906040525b9392505050565b611a2d81611a2861237b565b612d60565b50565b6001600160a01b038316611aac5760405162461bcd60e51b815260206004820152602360248201527f455243313135353a206275726e2066726f6d20746865207a65726f206164647260448201527f65737300000000000000000000000000000000000000000000000000000000006064820152608401610670565b6000611ab661237b565b90506000611ac384612dd6565b90506000611ad084612dd6565b9050611af083876000858560405180602001604052806000815250612e21565b60008581526065602090815260408083206001600160a01b038a16845290915290205484811015611b885760405162461bcd60e51b8152602060048201526024808201527f455243313135353a206275726e20616d6f756e7420657863656564732062616c60448201527f616e6365000000000000000000000000000000000000000000000000000000006064820152608401610670565b60008681526065602090815260408083206001600160a01b038b81168086529184528285208a8703905582518b81529384018a90529092908816917fc3d58168c5ae7397731d063d5bbf3d657854427343f4c083240f7aacaa2d0f62910160405180910390a46040805160208101909152600090525b50505050505050565b6001600160a01b038416611c835760405162461bcd60e51b815260206004820152602160248201527f455243313135353a206d696e7420746f20746865207a65726f2061646472657360448201527f73000000000000000000000000000000000000000000000000000000000000006064820152608401610670565b6000611c8d61237b565b90506000611c9a85612dd6565b90506000611ca785612dd6565b9050611cb883600089858589612e21565b60008681526065602090815260408083206001600160a01b038b16845290915281208054879290611cea908490613fb8565b909155505060408051878152602081018790526001600160a01b03808a1692600092918716917fc3d58168c5ae7397731d063d5bbf3d657854427343f4c083240f7aacaa2d0f62910160405180910390a4611bfe83600089898989612e2f565b600082815260fc60205260409020611d628282614011565b50817f6bb7ff708619ba0610cba295a58592e0451dee2622938c8755667688daf3529b611d8e846106f6565b604051611d9b9190613764565b60405180910390a25050565b6001600160a01b038316611e235760405162461bcd60e51b815260206004820152602360248201527f455243313135353a206275726e2066726f6d20746865207a65726f206164647260448201527f65737300000000000000000000000000000000000000000000000000000000006064820152608401610670565b8051825114611e855760405162461bcd60e51b815260206004820152602860248201527f455243313135353a2069647320616e6420616d6f756e7473206c656e677468206044820152670dad2e6dac2e8c6d60c31b6064820152608401610670565b6000611e8f61237b565b9050611eaf81856000868660405180602001604052806000815250612e21565b60005b8351811015611fcc576000848281518110611ecf57611ecf613ee1565b602002602001015190506000848381518110611eed57611eed613ee1565b60209081029190910181015160008481526065835260408082206001600160a01b038c168352909352919091205490915081811015611f935760405162461bcd60e51b8152602060048201526024808201527f455243313135353a206275726e20616d6f756e7420657863656564732062616c60448201527f616e6365000000000000000000000000000000000000000000000000000000006064820152608401610670565b60009283526065602090815260408085206001600160a01b038b1686529091529092209103905580611fc481613e3b565b915050611eb2565b5060006001600160a01b0316846001600160a01b0316826001600160a01b03167f4a39dc06d4c0dbc64b70af90fd698a233a518aa5d07e595d983b8c0526c8f7fb868660405161201d9291906140d1565b60405180910390a4604080516020810190915260009052610736565b815183511461209b5760405162461bcd60e51b815260206004820152602860248201527f455243313135353a2069647320616e6420616d6f756e7473206c656e677468206044820152670dad2e6dac2e8c6d60c31b6064820152608401610670565b6001600160a01b0384166121175760405162461bcd60e51b815260206004820152602560248201527f455243313135353a207472616e7366657220746f20746865207a65726f20616460448201527f64726573730000000000000000000000000000000000000000000000000000006064820152608401610670565b600061212161237b565b9050612131818787878787612e21565b60005b845181101561227057600085828151811061215157612151613ee1565b60200260200101519050600085838151811061216f5761216f613ee1565b60209081029190910181015160008481526065835260408082206001600160a01b038e1683529093529190912054909150818110156122165760405162461bcd60e51b815260206004820152602a60248201527f455243313135353a20696e73756666696369656e742062616c616e636520666f60448201527f72207472616e73666572000000000000000000000000000000000000000000006064820152608401610670565b60008381526065602090815260408083206001600160a01b038e8116855292528083208585039055908b16825281208054849290612255908490613fb8565b925050819055505050508061226990613e3b565b9050612134565b50846001600160a01b0316866001600160a01b0316826001600160a01b03167f4a39dc06d4c0dbc64b70af90fd698a233a518aa5d07e595d983b8c0526c8f7fb87876040516122c09291906140d1565b60405180910390a4610a7d81878787878761301b565b600082815261012e602090815260408083206001600160a01b038516845290915290205460ff16610b4857600082815261012e602090815260408083206001600160a01b03851684529091529020805460ff1916600117905561233761237b565b6001600160a01b0316816001600160a01b0316837f2f8788117e7eff1d82e926ec794901d17c78024a50270940304540a733656f0d60405160405180910390a45050565b600061238561315e565b905090565b600082815261012e602090815260408083206001600160a01b038516845290915290205460ff1615610b4857600082815261012e602090815260408083206001600160a01b03851684529091529020805460ff191690556123e961237b565b6001600160a01b0316816001600160a01b0316837ff6391f5c32d9c69d2a47ea670b442974b53935d1edc7fd64eb21e047a839171b60405160405180910390a45050565b60fb610b488282614011565b816001600160a01b0316836001600160a01b0316036124c05760405162461bcd60e51b815260206004820152602960248201527f455243313135353a2073657474696e6720617070726f76616c2073746174757360448201527f20666f722073656c6600000000000000000000000000000000000000000000006064820152608401610670565b6001600160a01b03838116600081815260666020908152604080832094871680845294825291829020805460ff191686151590811790915591519182527f17307eab39ab6107e8899845ad3d59bd9653f200f220920489ca2b5937696c31910160405180910390a3505050565b6001600160a01b0384166125a95760405162461bcd60e51b815260206004820152602160248201527f455243313135353a206d696e7420746f20746865207a65726f2061646472657360448201527f73000000000000000000000000000000000000000000000000000000000000006064820152608401610670565b815183511461260b5760405162461bcd60e51b815260206004820152602860248201527f455243313135353a2069647320616e6420616d6f756e7473206c656e677468206044820152670dad2e6dac2e8c6d60c31b6064820152608401610670565b600061261561237b565b905061262681600087878787612e21565b60005b84518110156126c25783818151811061264457612644613ee1565b60200260200101516065600087848151811061266257612662613ee1565b602002602001015181526020019081526020016000206000886001600160a01b03166001600160a01b0316815260200190815260200160002060008282546126aa9190613fb8565b909155508190506126ba81613e3b565b915050612629565b50846001600160a01b031660006001600160a01b0316826001600160a01b03167f4a39dc06d4c0dbc64b70af90fd698a233a518aa5d07e595d983b8c0526c8f7fb87876040516127139291906140d1565b60405180910390a46107e18160008787878761301b565b6001600160a01b0384166127a65760405162461bcd60e51b815260206004820152602560248201527f455243313135353a207472616e7366657220746f20746865207a65726f20616460448201527f64726573730000000000000000000000000000000000000000000000000000006064820152608401610670565b60006127b061237b565b905060006127bd85612dd6565b905060006127ca85612dd6565b90506127da838989858589612e21565b60008681526065602090815260408083206001600160a01b038c168452909152902054858110156128735760405162461bcd60e51b815260206004820152602a60248201527f455243313135353a20696e73756666696369656e742062616c616e636520666f60448201527f72207472616e73666572000000000000000000000000000000000000000000006064820152608401610670565b60008781526065602090815260408083206001600160a01b038d8116855292528083208985039055908a168252812080548892906128b2908490613fb8565b909155505060408051888152602081018890526001600160a01b03808b16928c821692918816917fc3d58168c5ae7397731d063d5bbf3d657854427343f4c083240f7aacaa2d0f62910160405180910390a4612912848a8a8a8a8a612e2f565b505050505050505050565b600054610100900460ff166129885760405162461bcd60e51b815260206004820152602b60248201527f496e697469616c697a61626c653a20636f6e7472616374206973206e6f74206960448201526a6e697469616c697a696e6760a81b6064820152608401610670565b611a2d816131a7565b600054610100900460ff166129fc5760405162461bcd60e51b815260206004820152602b60248201527f496e697469616c697a61626c653a20636f6e7472616374206973206e6f74206960448201526a6e697469616c697a696e6760a81b6064820152608401610670565b565b600054610100900460ff16612a695760405162461bcd60e51b815260206004820152602b60248201527f496e697469616c697a61626c653a20636f6e7472616374206973206e6f74206960448201526a6e697469616c697a696e6760a81b6064820152608401610670565b6129fc61321b565b600054610100900460ff16612adc5760405162461bcd60e51b815260206004820152602b60248201527f496e697469616c697a61626c653a20636f6e7472616374206973206e6f74206960448201526a6e697469616c697a696e6760a81b6064820152608401610670565b610160805473ffffffffffffffffffffffffffffffffffffffff19166daaeb6d7670e522a718067333cd4e9081179091553b15610b4857610160546040517fc3c5a5470000000000000000000000000000000000000000000000000000000081523060048201526001600160a01b039091169063c3c5a547906024016020604051808303816000875af1158015612b77573d6000803e3d6000fd5b505050506040513d601f19601f82011682018060405250810190612b9b9190613ec4565b610b48578015612c2157610160546040517f7d3e3dbe0000000000000000000000000000000000000000000000000000000081523060048201526001600160a01b03848116602483015290911690637d3e3dbe906044015b600060405180830381600087803b158015612c0d57600080fd5b505af1158015610a7d573d6000803e3d6000fd5b6001600160a01b03821615612c8257610160546040517fa0af29030000000000000000000000000000000000000000000000000000000081523060048201526001600160a01b0384811660248301529091169063a0af290390604401612bf3565b610160546040517f4420e4860000000000000000000000000000000000000000000000000000000081523060048201526001600160a01b0390911690634420e48690602401612bf3565b606060678054612cdb90613ef7565b80601f0160208091040260200160405190810160405280929190818152602001828054612d0790613ef7565b8015612d545780601f10612d2957610100808354040283529160200191612d54565b820191906000526020600020905b815481529060010190602001808311612d3757829003601f168201915b50505050509050919050565b600082815261012e602090815260408083206001600160a01b038516845290915290205460ff16610b4857612d94816132a2565b612d9f8360206132b4565b604051602001612db09291906140ff565b60408051601f198184030181529082905262461bcd60e51b825261067091600401613764565b60408051600180825281830190925260609160009190602080830190803683370190505090508281600081518110612e1057612e10613ee1565b602090810291909101015292915050565b610a7d8686868686866134dd565b6001600160a01b0384163b15610a7d576040517ff23a6e610000000000000000000000000000000000000000000000000000000081526001600160a01b0385169063f23a6e6190612e8c9089908990889088908890600401614180565b6020604051808303816000875af1925050508015612ec7575060408051601f3d908101601f19168201909252612ec4918101906141c3565b60015b612f7c57612ed36141e0565b806308c379a003612f0c5750612ee76141fb565b80612ef25750612f0e565b8060405162461bcd60e51b81526004016106709190613764565b505b60405162461bcd60e51b815260206004820152603460248201527f455243313135353a207472616e7366657220746f206e6f6e2d4552433131353560448201527f526563656976657220696d706c656d656e7465720000000000000000000000006064820152608401610670565b6001600160e01b031981167ff23a6e610000000000000000000000000000000000000000000000000000000014611bfe5760405162461bcd60e51b815260206004820152602860248201527f455243313135353a204552433131353552656365697665722072656a6563746560448201527f6420746f6b656e730000000000000000000000000000000000000000000000006064820152608401610670565b6001600160a01b0384163b15610a7d576040517fbc197c810000000000000000000000000000000000000000000000000000000081526001600160a01b0385169063bc197c819061307890899089908890889088906004016142a3565b6020604051808303816000875af19250505080156130b3575060408051601f3d908101601f191682019092526130b0918101906141c3565b60015b6130bf57612ed36141e0565b6001600160e01b031981167fbc197c810000000000000000000000000000000000000000000000000000000014611bfe5760405162461bcd60e51b815260206004820152602860248201527f455243313135353a204552433131353552656365697665722072656a6563746560448201527f6420746f6b656e730000000000000000000000000000000000000000000000006064820152608401610670565b61012d546000906001600160a01b0316330361319f57507fffffffffffffffffffffffffffffffffffffffffffffffffffffffffffffffec36013560601c90565b503390565b90565b600054610100900460ff166132125760405162461bcd60e51b815260206004820152602b60248201527f496e697469616c697a61626c653a20636f6e7472616374206973206e6f74206960448201526a6e697469616c697a696e6760a81b6064820152608401610670565b611a2d8161366b565b600054610100900460ff166132865760405162461bcd60e51b815260206004820152602b60248201527f496e697469616c697a61626c653a20636f6e7472616374206973206e6f74206960448201526a6e697469616c697a696e6760a81b6064820152608401610670565b60408051602081019091526000815260fb90611a2d9082614011565b606061069e6001600160a01b03831660145b606060006132c3836002613e8b565b6132ce906002613fb8565b67ffffffffffffffff8111156132e6576132e66137ac565b6040519080825280601f01601f191660200182016040528015613310576020820181803683370190505b5090507f30000000000000000000000000000000000000000000000000000000000000008160008151811061334757613347613ee1565b60200101907effffffffffffffffffffffffffffffffffffffffffffffffffffffffffffff1916908160001a9053507f7800000000000000000000000000000000000000000000000000000000000000816001815181106133aa576133aa613ee1565b60200101907effffffffffffffffffffffffffffffffffffffffffffffffffffffffffffff1916908160001a90535060006133e6846002613e8b565b6133f1906001613fb8565b90505b600181111561348e577f303132333435363738396162636465660000000000000000000000000000000085600f166010811061343257613432613ee1565b1a60f81b82828151811061344857613448613ee1565b60200101907effffffffffffffffffffffffffffffffffffffffffffffffffffffffffffff1916908160001a90535060049490941c9361348781614301565b90506133f4565b508315611a155760405162461bcd60e51b815260206004820181905260248201527f537472696e67733a20686578206c656e67746820696e73756666696369656e746044820152606401610670565b6001600160a01b0385166135645760005b83518110156135625782818151811061350957613509613ee1565b602002602001015160c9600086848151811061352757613527613ee1565b60200260200101518152602001908152602001600020600082825461354c9190613fb8565b9091555061355b905081613e3b565b90506134ee565b505b6001600160a01b038416610a7d5760005b8351811015611bfe57600084828151811061359257613592613ee1565b6020026020010151905060008483815181106135b0576135b0613ee1565b60200260200101519050600060c96000848152602001908152602001600020549050818110156136485760405162461bcd60e51b815260206004820152602860248201527f455243313135353a206275726e20616d6f756e74206578636565647320746f7460448201527f616c537570706c790000000000000000000000000000000000000000000000006064820152608401610670565b600092835260c960205260409092209103905561366481613e3b565b9050613575565b6067610b488282614011565b6001600160a01b0381168114611a2d57600080fd5b803561369781613677565b919050565b600080604083850312156136af57600080fd5b82356136ba81613677565b946020939093013593505050565b6001600160e01b031981168114611a2d57600080fd5b6000602082840312156136f057600080fd5b8135611a15816136c8565b60006020828403121561370d57600080fd5b5035919050565b60005b8381101561372f578181015183820152602001613717565b50506000910152565b60008151808452613750816020860160208601613714565b601f01601f19169290920160200192915050565b602081526000611a156020830184613738565b60008060006060848603121561378c57600080fd5b833561379781613677565b95602085013595506040909401359392505050565b634e487b7160e01b600052604160045260246000fd5b601f19601f830116810181811067ffffffffffffffff821117156137e8576137e86137ac565b6040525050565b600082601f83011261380057600080fd5b813567ffffffffffffffff81111561381a5761381a6137ac565b6040516138316020601f19601f85011601826137c2565b81815284602083860101111561384657600080fd5b816020850160208301376000918101602001919091529392505050565b60006020828403121561387557600080fd5b813567ffffffffffffffff81111561388c57600080fd5b613898848285016137ef565b949350505050565b600067ffffffffffffffff8211156138ba576138ba6137ac565b5060051b60200190565b600082601f8301126138d557600080fd5b813560206138e2826138a0565b6040516138ef82826137c2565b83815260059390931b850182019282810191508684111561390f57600080fd5b8286015b8481101561392a5780358352918301918301613913565b509695505050505050565b60008060006060848603121561394a57600080fd5b833561395581613677565b9250602084013567ffffffffffffffff8082111561397257600080fd5b61397e878388016138c4565b9350604086013591508082111561399457600080fd5b506139a1868287016138c4565b9150509250925092565b600080604083850312156139be57600080fd5b50508035926020909101359150565b600080600080600060a086880312156139e557600080fd5b85356139f081613677565b94506020860135613a0081613677565b9350604086013567ffffffffffffffff80821115613a1d57600080fd5b613a2989838a016138c4565b94506060880135915080821115613a3f57600080fd5b613a4b89838a016138c4565b93506080880135915080821115613a6157600080fd5b50613a6e888289016137ef565b9150509295509295909350565b60008060408385031215613a8e57600080fd5b823591506020830135613aa081613677565b809150509250929050565b60008060408385031215613abe57600080fd5b823567ffffffffffffffff80821115613ad657600080fd5b818501915085601f830112613aea57600080fd5b81356020613af7826138a0565b604051613b0482826137c2565b83815260059390931b8501820192828101915089841115613b2457600080fd5b948201945b83861015613b4b578535613b3c81613677565b82529482019490820190613b29565b96505086013592505080821115613b6157600080fd5b50610970858286016138c4565b600081518084526020808501945080840160005b83811015613b9e57815187529582019590820190600101613b82565b509495945050505050565b602081526000611a156020830184613b6e565b60008060408385031215613bcf57600080fd5b82359150602083013567ffffffffffffffff811115613bed57600080fd5b610970858286016137ef565b600060208284031215613c0b57600080fd5b8135611a1581613677565b8015158114611a2d57600080fd5b60008060408385031215613c3757600080fd5b8235613c4281613677565b91506020830135613aa081613c16565b60008060408385031215613c6557600080fd5b8235613c7081613677565b91506020830135613aa081613677565b600080600080600060a08688031215613c9857600080fd5b8535613ca381613677565b94506020860135613cb381613677565b93506040860135925060608601359150608086013567ffffffffffffffff811115613cdd57600080fd5b613a6e888289016137ef565b600080600080600080600060e0888a031215613d0457600080fd5b67ffffffffffffffff8089351115613d1b57600080fd5b613d288a8a358b016137ef565b97506020890135613d3881613677565b96506040890135613d4881613677565b95506060890135613d5881613677565b94506080890135613d6881613677565b935060a089013581811115613d7c57600080fd5b8901601f81018b13613d8d57600080fd5b8035613d98816138a0565b604051613da582826137c2565b80915082815260208101915060208360051b85010192508d831115613dc957600080fd5b602084015b83811015613e02578581351115613de457600080fd5b613df48f602083358801016137ef565b835260209283019201613dce565b508096505050505050613e1760c0890161368c565b905092959891949750929550565b634e487b7160e01b600052601160045260246000fd5b60006000198203613e4e57613e4e613e25565b5060010190565b60008060408385031215613e6857600080fd5b8251613e7381613677565b602084015190925061ffff81168114613aa057600080fd5b808202811582820484141761069e5761069e613e25565b600082613ebf57634e487b7160e01b600052601260045260246000fd5b500490565b600060208284031215613ed657600080fd5b8151611a1581613c16565b634e487b7160e01b600052603260045260246000fd5b600181811c90821680613f0b57607f821691505b602082108103613f2b57634e487b7160e01b600052602260045260246000fd5b50919050565b6000808454613f3f81613ef7565b60018281168015613f575760018114613f6c57613f9b565b60ff1984168752821515830287019450613f9b565b8860005260208060002060005b85811015613f925781548a820152908401908201613f79565b50505082870194505b505050508351613faf818360208801613714565b01949350505050565b8082018082111561069e5761069e613e25565b601f821115610aab57600081815260208120601f850160051c81016020861015613ff25750805b601f850160051c820191505b81811015610a7d57828155600101613ffe565b815167ffffffffffffffff81111561402b5761402b6137ac565b61403f816140398454613ef7565b84613fcb565b602080601f831160018114614074576000841561405c5750858301515b600019600386901b1c1916600185901b178555610a7d565b600085815260208120601f198616915b828110156140a357888601518255948401946001909101908401614084565b50858210156140c15787850151600019600388901b60f8161c191681555b5050505050600190811b01905550565b6040815260006140e46040830185613b6e565b82810360208401526140f68185613b6e565b95945050505050565b7f416363657373436f6e74726f6c3a206163636f756e7420000000000000000000815260008351614137816017850160208801613714565b7f206973206d697373696e6720726f6c65200000000000000000000000000000006017918401918201528351614174816028840160208801613714565b01602801949350505050565b60006001600160a01b03808816835280871660208401525084604083015283606083015260a060808301526141b860a0830184613738565b979650505050505050565b6000602082840312156141d557600080fd5b8151611a15816136c8565b600060033d11156131a45760046000803e5060005160e01c90565b600060443d10156142095790565b6040517ffffffffffffffffffffffffffffffffffffffffffffffffffffffffffffffffc803d016004833e81513d67ffffffffffffffff816024840111818411171561425757505050505090565b828501915081518181111561426f5750505050505090565b843d87010160208285010111156142895750505050505090565b614298602082860101876137c2565b509095945050505050565b60006001600160a01b03808816835280871660208401525060a060408301526142cf60a0830186613b6e565b82810360608401526142e18186613b6e565b905082810360808401526142f58185613738565b98975050505050505050565b60008161431057614310613e25565b50600019019056fea2646970667358221220532d072420a26a9e791c4bdcaa40be4e45a24a387b48c4d598c7c0ed5c65ce8c64736f6c63430008120033",
  "devdoc": {
    "author": "The Sandbox",
    "details": "An ERC1155 contract that manages catalysts, extends multiple OpenZeppelin contracts to provide a variety of features including, AccessControl, URIStorage, Burnable and more. The contract includes support for meta transactions.",
    "events": {
      "ApprovalForAll(address,address,bool)": {
        "details": "Emitted when `account` grants or revokes permission to `operator` to transfer their tokens, according to `approved`."
      },
      "Initialized(uint8)": {
        "details": "Triggered when the contract has been initialized or reinitialized."
      },
      "RoleAdminChanged(bytes32,bytes32,bytes32)": {
        "details": "Emitted when `newAdminRole` is set as ``role``'s admin role, replacing `previousAdminRole` `DEFAULT_ADMIN_ROLE` is the starting admin for all roles, despite {RoleAdminChanged} not being emitted signaling this. _Available since v3.1._"
      },
      "RoleGranted(bytes32,address,address)": {
        "details": "Emitted when `account` is granted `role`. `sender` is the account that originated the contract call, an admin role bearer except when using {AccessControl-_setupRole}."
      },
      "RoleRevoked(bytes32,address,address)": {
        "details": "Emitted when `account` is revoked `role`. `sender` is the account that originated the contract call:   - if using `revokeRole`, it is the admin role bearer   - if using `renounceRole`, it is the role bearer (i.e. `account`)"
      },
      "TransferBatch(address,address,address,uint256[],uint256[])": {
        "details": "Equivalent to multiple {TransferSingle} events, where `operator`, `from` and `to` are the same for all transfers."
      },
      "TransferSingle(address,address,address,uint256,uint256)": {
        "details": "Emitted when `value` tokens of token type `id` are transferred from `from` to `to` by `operator`."
      },
      "URI(string,uint256)": {
        "details": "Emitted when the URI for token type `id` changes to `value`, if it is a non-programmatic URI. If an {URI} event was emitted for `id`, the standard https://eips.ethereum.org/EIPS/eip-1155#metadata-extensions[guarantees] that `value` will equal the value returned by {IERC1155MetadataURI-uri}."
      }
    },
    "kind": "dev",
    "methods": {
      "addNewCatalystType(string)": {
        "params": {
          "ipfsCID": "The royalty bps for the catalyst"
        }
      },
      "balanceOf(address,uint256)": {
        "details": "See {IERC1155-balanceOf}. Requirements: - `account` cannot be the zero address."
      },
      "balanceOfBatch(address[],uint256[])": {
        "details": "See {IERC1155-balanceOfBatch}. Requirements: - `accounts` and `ids` must have the same length."
      },
      "burnBatchFrom(address,uint256[],uint256[])": {
        "params": {
          "account": "The address to burn from",
          "amounts": "The amounts to be burned",
          "ids": "The token ids to burn"
        }
      },
      "burnFrom(address,uint256,uint256)": {
        "params": {
          "account": "The address to burn from",
          "amount": "The amount to be burned",
          "id": "The token id to burn"
        }
      },
      "constructor": {
        "custom:oz-upgrades-unsafe-allow": "constructor"
      },
      "exists(uint256)": {
        "details": "Indicates whether any token exist with a given id, or not."
      },
      "getRoleAdmin(bytes32)": {
        "details": "Returns the admin role that controls `role`. See {grantRole} and {revokeRole}. To change a role's admin, use {_setRoleAdmin}."
      },
      "grantRole(bytes32,address)": {
        "details": "Grants `role` to `account`. If `account` had not been already granted `role`, emits a {RoleGranted} event. Requirements: - the caller must have ``role``'s admin role. May emit a {RoleGranted} event."
      },
      "hasRole(bytes32,address)": {
        "details": "Returns `true` if `account` has been granted `role`."
      },
      "initialize(string,address,address,address,address,string[],address)": {
        "params": {
          "_baseUri": "The base URI for the token metadata, most likely set to ipfs://.",
          "_catalystIpfsCID": "The IPFS content identifiers for each catalyst.",
          "_defaultAdmin": "The default admin address.",
          "_defaultMinter": "The default minter address.",
          "_royaltyManager": ", the address of the Manager contract for common royalty recipient",
          "_subscription": "The subscription address.",
          "_trustedForwarder": "The trusted forwarder for meta transactions."
        }
      },
      "isApprovedForAll(address,address)": {
        "details": "See {IERC1155-isApprovedForAll}."
      },
      "mint(address,uint256,uint256)": {
        "params": {
          "amount": "The amount to be minted",
          "id": "The token id to mint",
          "to": "The address that will own the minted token"
        }
      },
      "mintBatch(address,uint256[],uint256[])": {
        "params": {
          "amounts": "The amounts to be minted per token id",
          "ids": "The token ids to mint",
          "to": "The address that will own the minted tokens"
        }
      },
      "renounceRole(bytes32,address)": {
        "details": "Revokes `role` from the calling account. Roles are often managed via {grantRole} and {revokeRole}: this function's purpose is to provide a mechanism for accounts to lose their privileges if they are compromised (such as when a trusted device is misplaced). If the calling account had been revoked `role`, emits a {RoleRevoked} event. Requirements: - the caller must be `account`. May emit a {RoleRevoked} event."
      },
      "revokeRole(bytes32,address)": {
        "details": "Revokes `role` from `account`. If `account` had been granted `role`, emits a {RoleRevoked} event. Requirements: - the caller must have ``role``'s admin role. May emit a {RoleRevoked} event."
      },
      "royaltyInfo(uint256,uint256)": {
        "details": "tokenId is one of the EIP2981 args for this function can't be removed",
        "params": {
          "_salePrice": "the price of token on which the royalty is calculated"
        },
        "returns": {
          "receiver": "the receiver of royalty",
          "royaltyAmount": "the amount of royalty"
        }
      },
      "safeBatchTransferFrom(address,address,uint256[],uint256[],bytes)": {
        "details": "call data should be optimized to order ids so packedBalance can be used efficiently.",
        "params": {
          "data": "aditional data accompanying the transfer.",
          "from": "address from which tokens are transfered.",
          "ids": "ids of each token type transfered.",
          "to": "address to which the token will be transfered.",
          "values": "amount of each token type transfered."
        }
      },
      "safeTransferFrom(address,address,uint256,uint256,bytes)": {
        "params": {
          "data": "aditional data accompanying the transfer.",
          "from": "address from which tokens are transfered.",
          "id": "the token type transfered.",
          "to": "address to which the token will be transfered.",
          "value": "amount of token transfered."
        }
      },
      "setApprovalForAll(address,bool)": {
        "params": {
          "approved": "whether to approve or revoke",
          "operator": "address which will be granted rights to transfer all tokens of the caller."
        }
      },
      "setBaseURI(string)": {
        "params": {
          "baseURI": "The new base URI"
        }
      },
      "setMetadataHash(uint256,string)": {
        "params": {
          "metadataHash": "The new URI",
          "tokenId": "The token id to set URI for"
        }
      },
      "setTrustedForwarder(address)": {
        "details": "Change the address of the trusted forwarder for meta-TX",
        "params": {
          "trustedForwarder": "The new trustedForwarder"
        }
      },
      "supportsInterface(bytes4)": {
        "params": {
          "interfaceId": "the interface identifier, as specified in ERC-165."
        },
        "returns": {
          "_0": "`true` if the contract implements `id`."
        }
      },
      "totalSupply(uint256)": {
        "details": "Total amount of tokens in with a given id."
      },
      "uri(uint256)": {
        "params": {
          "tokenId": "The token id to get URI for"
        },
        "returns": {
          "_0": "tokenURI the URI of the token"
        }
      }
    },
    "title": "Catalyst",
    "version": 1
  },
  "userdoc": {
    "kind": "user",
    "methods": {
      "addNewCatalystType(string)": {
        "notice": "Add a new catalyst type, limited to DEFAULT_ADMIN_ROLE only"
      },
      "burnBatchFrom(address,uint256[],uint256[])": {
        "notice": "Burns a batch of tokens from a specific address"
      },
      "burnFrom(address,uint256,uint256)": {
        "notice": "Burns a specified amount of tokens from a specific address"
      },
      "initialize(string,address,address,address,address,string[],address)": {
        "notice": "Initialize the contract, setting up initial values for various features."
      },
      "mint(address,uint256,uint256)": {
        "notice": "Mints a new token, limited to MINTER_ROLE only"
      },
      "mintBatch(address,uint256[],uint256[])": {
        "notice": "Mints a batch of tokens, limited to MINTER_ROLE only"
      },
      "royaltyInfo(uint256,uint256)": {
        "notice": "Returns how much royalty is owed and to whom based on ERC2981"
      },
      "safeBatchTransferFrom(address,address,uint256[],uint256[],bytes)": {
        "notice": "Transfers `values` tokens of type `ids` from  `from` to `to` (with safety call)."
      },
      "safeTransferFrom(address,address,uint256,uint256,bytes)": {
        "notice": "Transfers `value` tokens of type `id` from  `from` to `to`  (with safety call)."
      },
      "setApprovalForAll(address,bool)": {
        "notice": "Enable or disable approval for `operator` to manage all of the caller's tokens."
      },
      "setBaseURI(string)": {
        "notice": "Set a new base URI"
      },
      "setMetadataHash(uint256,string)": {
        "notice": "Set a new URI for specific tokenid"
      },
      "setTrustedForwarder(address)": {
        "notice": "Set a new trusted forwarder address, limited to DEFAULT_ADMIN_ROLE only"
      },
      "supportsInterface(bytes4)": {
        "notice": "Query if a contract implements interface `id`."
      },
      "uri(uint256)": {
        "notice": "returns full token URI, including baseURI and token metadata URI"
      }
    },
    "notice": "THis contract manages catalysts which are used to mint new assets.",
    "version": 1
  },
  "storageLayout": {
    "storage": [
      {
        "astId": 486,
        "contract": "@sandbox-smart-contracts/asset/contracts/Catalyst.sol:Catalyst",
        "label": "_initialized",
        "offset": 0,
        "slot": "0",
        "type": "t_uint8"
      },
      {
        "astId": 489,
        "contract": "@sandbox-smart-contracts/asset/contracts/Catalyst.sol:Catalyst",
        "label": "_initializing",
        "offset": 1,
        "slot": "0",
        "type": "t_bool"
      },
      {
        "astId": 3040,
        "contract": "@sandbox-smart-contracts/asset/contracts/Catalyst.sol:Catalyst",
        "label": "__gap",
        "offset": 0,
        "slot": "1",
        "type": "t_array(t_uint256)50_storage"
      },
      {
        "astId": 3963,
        "contract": "@sandbox-smart-contracts/asset/contracts/Catalyst.sol:Catalyst",
        "label": "__gap",
        "offset": 0,
        "slot": "51",
        "type": "t_array(t_uint256)50_storage"
      },
      {
        "astId": 677,
        "contract": "@sandbox-smart-contracts/asset/contracts/Catalyst.sol:Catalyst",
        "label": "_balances",
        "offset": 0,
        "slot": "101",
        "type": "t_mapping(t_uint256,t_mapping(t_address,t_uint256))"
      },
      {
        "astId": 683,
        "contract": "@sandbox-smart-contracts/asset/contracts/Catalyst.sol:Catalyst",
        "label": "_operatorApprovals",
        "offset": 0,
        "slot": "102",
        "type": "t_mapping(t_address,t_mapping(t_address,t_bool))"
      },
      {
        "astId": 685,
        "contract": "@sandbox-smart-contracts/asset/contracts/Catalyst.sol:Catalyst",
        "label": "_uri",
        "offset": 0,
        "slot": "103",
        "type": "t_string_storage"
      },
      {
        "astId": 1892,
        "contract": "@sandbox-smart-contracts/asset/contracts/Catalyst.sol:Catalyst",
        "label": "__gap",
        "offset": 0,
        "slot": "104",
        "type": "t_array(t_uint256)47_storage"
      },
      {
        "astId": 2144,
        "contract": "@sandbox-smart-contracts/asset/contracts/Catalyst.sol:Catalyst",
        "label": "__gap",
        "offset": 0,
        "slot": "151",
        "type": "t_array(t_uint256)50_storage"
      },
      {
        "astId": 2170,
        "contract": "@sandbox-smart-contracts/asset/contracts/Catalyst.sol:Catalyst",
        "label": "_totalSupply",
        "offset": 0,
        "slot": "201",
        "type": "t_mapping(t_uint256,t_uint256)"
      },
      {
        "astId": 2321,
        "contract": "@sandbox-smart-contracts/asset/contracts/Catalyst.sol:Catalyst",
        "label": "__gap",
        "offset": 0,
        "slot": "202",
        "type": "t_array(t_uint256)49_storage"
      },
      {
        "astId": 2356,
        "contract": "@sandbox-smart-contracts/asset/contracts/Catalyst.sol:Catalyst",
        "label": "_baseURI",
        "offset": 0,
        "slot": "251",
        "type": "t_string_storage"
      },
      {
        "astId": 2360,
        "contract": "@sandbox-smart-contracts/asset/contracts/Catalyst.sol:Catalyst",
        "label": "_tokenURIs",
        "offset": 0,
        "slot": "252",
        "type": "t_mapping(t_uint256,t_string_storage)"
      },
      {
        "astId": 2435,
        "contract": "@sandbox-smart-contracts/asset/contracts/Catalyst.sol:Catalyst",
        "label": "__gap",
        "offset": 0,
        "slot": "253",
        "type": "t_array(t_uint256)48_storage"
      },
      {
        "astId": 8434,
        "contract": "@sandbox-smart-contracts/asset/contracts/Catalyst.sol:Catalyst",
        "label": "_trustedForwarder",
        "offset": 0,
        "slot": "301",
        "type": "t_address"
      },
      {
        "astId": 66,
        "contract": "@sandbox-smart-contracts/asset/contracts/Catalyst.sol:Catalyst",
        "label": "_roles",
        "offset": 0,
        "slot": "302",
        "type": "t_mapping(t_bytes32,t_struct(RoleData)61_storage)"
      },
      {
        "astId": 361,
        "contract": "@sandbox-smart-contracts/asset/contracts/Catalyst.sol:Catalyst",
        "label": "__gap",
        "offset": 0,
        "slot": "303",
        "type": "t_array(t_uint256)49_storage"
      },
      {
        "astId": 9105,
        "contract": "@sandbox-smart-contracts/asset/contracts/Catalyst.sol:Catalyst",
        "label": "operatorFilterRegistry",
        "offset": 0,
        "slot": "352",
        "type": "t_contract(IOperatorFilterRegistry)9473"
      },
      {
        "astId": 9487,
        "contract": "@sandbox-smart-contracts/asset/contracts/Catalyst.sol:Catalyst",
        "label": "royaltyManager",
        "offset": 0,
        "slot": "353",
        "type": "t_contract(IRoyaltyManager)9617"
      },
      {
        "astId": 7815,
        "contract": "@sandbox-smart-contracts/asset/contracts/Catalyst.sol:Catalyst",
        "label": "highestTierIndex",
        "offset": 0,
        "slot": "354",
        "type": "t_uint256"
      }
    ],
    "types": {
      "t_address": {
        "encoding": "inplace",
        "label": "address",
        "numberOfBytes": "20"
      },
      "t_array(t_uint256)47_storage": {
        "base": "t_uint256",
        "encoding": "inplace",
        "label": "uint256[47]",
        "numberOfBytes": "1504"
      },
      "t_array(t_uint256)48_storage": {
        "base": "t_uint256",
        "encoding": "inplace",
        "label": "uint256[48]",
        "numberOfBytes": "1536"
      },
      "t_array(t_uint256)49_storage": {
        "base": "t_uint256",
        "encoding": "inplace",
        "label": "uint256[49]",
        "numberOfBytes": "1568"
      },
      "t_array(t_uint256)50_storage": {
        "base": "t_uint256",
        "encoding": "inplace",
        "label": "uint256[50]",
        "numberOfBytes": "1600"
      },
      "t_bool": {
        "encoding": "inplace",
        "label": "bool",
        "numberOfBytes": "1"
      },
      "t_bytes32": {
        "encoding": "inplace",
        "label": "bytes32",
        "numberOfBytes": "32"
      },
      "t_contract(IOperatorFilterRegistry)9473": {
        "encoding": "inplace",
        "label": "contract IOperatorFilterRegistry",
        "numberOfBytes": "20"
      },
      "t_contract(IRoyaltyManager)9617": {
        "encoding": "inplace",
        "label": "contract IRoyaltyManager",
        "numberOfBytes": "20"
      },
      "t_mapping(t_address,t_bool)": {
        "encoding": "mapping",
        "key": "t_address",
        "label": "mapping(address => bool)",
        "numberOfBytes": "32",
        "value": "t_bool"
      },
      "t_mapping(t_address,t_mapping(t_address,t_bool))": {
        "encoding": "mapping",
        "key": "t_address",
        "label": "mapping(address => mapping(address => bool))",
        "numberOfBytes": "32",
        "value": "t_mapping(t_address,t_bool)"
      },
      "t_mapping(t_address,t_uint256)": {
        "encoding": "mapping",
        "key": "t_address",
        "label": "mapping(address => uint256)",
        "numberOfBytes": "32",
        "value": "t_uint256"
      },
      "t_mapping(t_bytes32,t_struct(RoleData)61_storage)": {
        "encoding": "mapping",
        "key": "t_bytes32",
        "label": "mapping(bytes32 => struct AccessControlUpgradeable.RoleData)",
        "numberOfBytes": "32",
        "value": "t_struct(RoleData)61_storage"
      },
      "t_mapping(t_uint256,t_mapping(t_address,t_uint256))": {
        "encoding": "mapping",
        "key": "t_uint256",
        "label": "mapping(uint256 => mapping(address => uint256))",
        "numberOfBytes": "32",
        "value": "t_mapping(t_address,t_uint256)"
      },
      "t_mapping(t_uint256,t_string_storage)": {
        "encoding": "mapping",
        "key": "t_uint256",
        "label": "mapping(uint256 => string)",
        "numberOfBytes": "32",
        "value": "t_string_storage"
      },
      "t_mapping(t_uint256,t_uint256)": {
        "encoding": "mapping",
        "key": "t_uint256",
        "label": "mapping(uint256 => uint256)",
        "numberOfBytes": "32",
        "value": "t_uint256"
      },
      "t_string_storage": {
        "encoding": "bytes",
        "label": "string",
        "numberOfBytes": "32"
      },
      "t_struct(RoleData)61_storage": {
        "encoding": "inplace",
        "label": "struct AccessControlUpgradeable.RoleData",
        "members": [
          {
            "astId": 58,
            "contract": "@sandbox-smart-contracts/asset/contracts/Catalyst.sol:Catalyst",
            "label": "members",
            "offset": 0,
            "slot": "0",
            "type": "t_mapping(t_address,t_bool)"
          },
          {
            "astId": 60,
            "contract": "@sandbox-smart-contracts/asset/contracts/Catalyst.sol:Catalyst",
            "label": "adminRole",
            "offset": 0,
            "slot": "1",
            "type": "t_bytes32"
          }
        ],
        "numberOfBytes": "64"
      },
      "t_uint256": {
        "encoding": "inplace",
        "label": "uint256",
        "numberOfBytes": "32"
      },
      "t_uint8": {
        "encoding": "inplace",
        "label": "uint8",
        "numberOfBytes": "1"
      }
    }
  }
}