{
  "address": "0xB22D3170C89AeAd8DbfF625F8f4A9D8BbaD64CE2",
  "abi": [
    {
      "inputs": [],
      "stateMutability": "nonpayable",
      "type": "constructor"
    },
    {
      "anonymous": false,
      "inputs": [
        {
          "indexed": true,
          "internalType": "address",
          "name": "previousOwner",
          "type": "address"
        },
        {
          "indexed": true,
          "internalType": "address",
          "name": "newOwner",
          "type": "address"
        }
      ],
      "name": "OwnershipTransferred",
      "type": "event"
    },
    {
      "inputs": [],
      "name": "DEFAULT_SUBSCRIPTION",
      "outputs": [
        {
          "internalType": "address",
          "name": "",
          "type": "address"
        }
      ],
      "stateMutability": "view",
      "type": "function"
    },
    {
      "inputs": [],
      "name": "operatorFilterRegistry",
      "outputs": [
        {
          "internalType": "contract IOperatorFilterRegistry",
          "name": "",
          "type": "address"
        }
      ],
      "stateMutability": "view",
      "type": "function"
    },
    {
      "inputs": [],
      "name": "owner",
      "outputs": [
        {
          "internalType": "address",
          "name": "",
          "type": "address"
        }
      ],
      "stateMutability": "view",
      "type": "function"
    },
    {
      "inputs": [],
      "name": "renounceOwnership",
      "outputs": [],
      "stateMutability": "nonpayable",
      "type": "function"
    },
    {
      "inputs": [
        {
          "internalType": "address",
          "name": "newOwner",
          "type": "address"
        }
      ],
      "name": "transferOwnership",
      "outputs": [],
      "stateMutability": "nonpayable",
      "type": "function"
    }
  ],
  "transactionHash": "0x695c559bd8e2ff93ddce22cf05c81fa1ee03d2ecbc89281b463b65875c0ccafa",
  "args": [],
  "numDeployments": 1,
  "solcInputHash": "bd10ef45797bc7e664de7280929fd385",
  "bytecode": "0x608060405234801561001057600080fd5b5061001a336100ad565b6daaeb6d7670e522a718067333cd4e3b156100a85760405163a0af290360e01b8152306004820152733cc6cdda760b79bafa08df41ecfa224f810dceb660248201526daaeb6d7670e522a718067333cd4e9063a0af290390604401600060405180830381600087803b15801561008f57600080fd5b505af11580156100a3573d6000803e3d6000fd5b505050505b6100fd565b600080546001600160a01b038381166001600160a01b0319831681178455604051919092169283917f8be0079c531659141344cd1fd0a4f28419497f9722a3daafe3b4186f6b6457e09190a35050565b6103358061010c6000396000f3fe608060405234801561001057600080fd5b50600436106100675760003560e01c8063b0ccc31e11610050578063b0ccc31e146100b9578063f2fde38b146100ce578063f9c0611c146100e157600080fd5b8063715018a61461006c5780638da5cb5b14610076575b600080fd5b6100746100fc565b005b60005473ffffffffffffffffffffffffffffffffffffffff165b60405173ffffffffffffffffffffffffffffffffffffffff909116815260200160405180910390f35b6100906daaeb6d7670e522a718067333cd4e81565b6100746100dc3660046102c2565b610110565b610090733cc6cdda760b79bafa08df41ecfa224f810dceb681565b6101046101cc565b61010e600061024d565b565b6101186101cc565b73ffffffffffffffffffffffffffffffffffffffff81166101c0576040517f08c379a000000000000000000000000000000000000000000000000000000000815260206004820152602660248201527f4f776e61626c653a206e6577206f776e657220697320746865207a65726f206160448201527f646472657373000000000000000000000000000000000000000000000000000060648201526084015b60405180910390fd5b6101c98161024d565b50565b60005473ffffffffffffffffffffffffffffffffffffffff16331461010e576040517f08c379a000000000000000000000000000000000000000000000000000000000815260206004820181905260248201527f4f776e61626c653a2063616c6c6572206973206e6f7420746865206f776e657260448201526064016101b7565b6000805473ffffffffffffffffffffffffffffffffffffffff8381167fffffffffffffffffffffffff0000000000000000000000000000000000000000831681178455604051919092169283917f8be0079c531659141344cd1fd0a4f28419497f9722a3daafe3b4186f6b6457e09190a35050565b6000602082840312156102d457600080fd5b813573ffffffffffffffffffffffffffffffffffffffff811681146102f857600080fd5b939250505056fea2646970667358221220bf8d532b1bc60b8a8b3f8c0e98ce9beedfb641b04d9370ba56e7d530f508f8c264736f6c63430008120033",
  "devdoc": {
    "author": "The Sandbox",
    "kind": "dev",
    "methods": {
      "owner()": {
        "details": "Returns the address of the current owner."
      },
      "renounceOwnership()": {
        "details": "Leaves the contract without owner. It will not be possible to call `onlyOwner` functions. Can only be called by the current owner. NOTE: Renouncing ownership will leave the contract without an owner, thereby disabling any functionality that is only available to the owner."
      },
      "transferOwnership(address)": {
        "details": "Transfers ownership of the contract to a new account (`newOwner`). Can only be called by the current owner."
      }
    },
    "title": "OperatorFilterSubription",
    "version": 1
  },
  "userdoc": {
    "kind": "user",
    "methods": {},
    "notice": "This contract is meant to register and copy the default subscription of the OpenSea for the operator filter and our Token contract are supposed to subscribe to this contract on openSea operator filter registry",
    "version": 1
  },
  "storageLayout": {
    "storage": [
      {
        "astId": 4343,
        "contract": "@sandbox-smart-contracts/dependency-operator-filter/contracts/OperatorFilterSubscription.sol:OperatorFilterSubscription",
        "label": "_owner",
        "offset": 0,
        "slot": "0",
        "type": "t_address"
      }
    ],
    "types": {
      "t_address": {
        "encoding": "inplace",
        "label": "address",
        "numberOfBytes": "20"
      }
    }
  }
}