{
  "address": "0x74504e0e5c7da578da2d6630ba66fa20a54e1bfc",
  "abi": [
    {
      "inputs": [],
      "stateMutability": "nonpayable",
      "type": "constructor"
    },
    {
      "anonymous": false,
      "inputs": [
        {
          "indexed": false,
          "internalType": "uint8",
          "name": "version",
          "type": "uint8"
        }
      ],
      "name": "Initialized",
      "type": "event"
    },
    {
      "anonymous": false,
      "inputs": [
        {
          "indexed": true,
          "internalType": "address",
          "name": "previousOwner",
          "type": "address"
        },
        {
          "indexed": true,
          "internalType": "address",
          "name": "newOwner",
          "type": "address"
        }
      ],
      "name": "OwnershipTransferred",
      "type": "event"
    },
    {
      "anonymous": false,
      "inputs": [
        {
          "indexed": true,
          "internalType": "address",
          "name": "token",
          "type": "address"
        },
        {
          "components": [
            {
              "internalType": "address",
              "name": "account",
              "type": "address"
            },
            {
              "internalType": "uint96",
              "name": "value",
              "type": "uint96"
            }
          ],
          "indexed": false,
          "internalType": "struct LibPart.Part[]",
          "name": "royalties",
          "type": "tuple[]"
        }
      ],
      "name": "RoyaltiesSetForContract",
      "type": "event"
    },
    {
      "anonymous": false,
      "inputs": [
        {
          "indexed": true,
          "internalType": "address",
          "name": "token",
          "type": "address"
        },
        {
          "indexed": true,
          "internalType": "uint256",
          "name": "tokenId",
          "type": "uint256"
        },
        {
          "components": [
            {
              "internalType": "address",
              "name": "account",
              "type": "address"
            },
            {
              "internalType": "uint96",
              "name": "value",
              "type": "uint96"
            }
          ],
          "indexed": false,
          "internalType": "struct LibPart.Part[]",
          "name": "royalties",
          "type": "tuple[]"
        }
      ],
      "name": "RoyaltiesSetForToken",
      "type": "event"
    },
    {
      "inputs": [],
      "name": "__RoyaltiesRegistry_init",
      "outputs": [],
      "stateMutability": "nonpayable",
      "type": "function"
    },
    {
      "inputs": [
        {
          "internalType": "address",
          "name": "token",
          "type": "address"
        }
      ],
      "name": "clearRoyaltiesType",
      "outputs": [],
      "stateMutability": "nonpayable",
      "type": "function"
    },
    {
      "inputs": [
        {
          "internalType": "address",
          "name": "token",
          "type": "address"
        },
        {
          "internalType": "uint256",
          "name": "royaltiesType",
          "type": "uint256"
        }
      ],
      "name": "forceSetRoyaltiesType",
      "outputs": [],
      "stateMutability": "nonpayable",
      "type": "function"
    },
    {
      "inputs": [
        {
          "internalType": "address",
          "name": "token",
          "type": "address"
        }
      ],
      "name": "getProvider",
      "outputs": [
        {
          "internalType": "address",
          "name": "",
          "type": "address"
        }
      ],
      "stateMutability": "view",
      "type": "function"
    },
    {
      "inputs": [
        {
          "internalType": "address",
          "name": "token",
          "type": "address"
        },
        {
          "internalType": "uint256",
          "name": "tokenId",
          "type": "uint256"
        }
      ],
      "name": "getRoyalties",
      "outputs": [
        {
          "components": [
            {
              "internalType": "address",
              "name": "account",
              "type": "address"
            },
            {
              "internalType": "uint96",
              "name": "value",
              "type": "uint96"
            }
          ],
          "internalType": "struct LibPart.Part[]",
          "name": "",
          "type": "tuple[]"
        }
      ],
      "stateMutability": "nonpayable",
      "type": "function"
    },
    {
      "inputs": [
        {
          "internalType": "address",
          "name": "token",
          "type": "address"
        }
      ],
      "name": "getRoyaltiesType",
      "outputs": [
        {
          "internalType": "uint256",
          "name": "",
          "type": "uint256"
        }
      ],
      "stateMutability": "view",
      "type": "function"
    },
    {
      "inputs": [],
      "name": "owner",
      "outputs": [
        {
          "internalType": "address",
          "name": "",
          "type": "address"
        }
      ],
      "stateMutability": "view",
      "type": "function"
    },
    {
      "inputs": [],
      "name": "renounceOwnership",
      "outputs": [],
      "stateMutability": "nonpayable",
      "type": "function"
    },
    {
      "inputs": [
        {
          "internalType": "address",
          "name": "",
          "type": "address"
        }
      ],
      "name": "royaltiesByToken",
      "outputs": [
        {
          "internalType": "bool",
          "name": "initialized",
          "type": "bool"
        }
      ],
      "stateMutability": "view",
      "type": "function"
    },
    {
      "inputs": [
        {
          "internalType": "bytes32",
          "name": "",
          "type": "bytes32"
        }
      ],
      "name": "royaltiesByTokenAndTokenId",
      "outputs": [
        {
          "internalType": "bool",
          "name": "initialized",
          "type": "bool"
        }
      ],
      "stateMutability": "view",
      "type": "function"
    },
    {
      "inputs": [
        {
          "internalType": "address",
          "name": "",
          "type": "address"
        }
      ],
      "name": "royaltiesProviders",
      "outputs": [
        {
          "internalType": "uint256",
          "name": "",
          "type": "uint256"
        }
      ],
      "stateMutability": "view",
      "type": "function"
    },
    {
      "inputs": [
        {
          "internalType": "address",
          "name": "token",
          "type": "address"
        },
        {
          "internalType": "address",
          "name": "provider",
          "type": "address"
        }
      ],
      "name": "setProviderByToken",
      "outputs": [],
      "stateMutability": "nonpayable",
      "type": "function"
    },
    {
      "inputs": [
        {
          "internalType": "address",
          "name": "token",
          "type": "address"
        },
        {
          "components": [
            {
              "internalType": "address",
              "name": "account",
              "type": "address"
            },
            {
              "internalType": "uint96",
              "name": "value",
              "type": "uint96"
            }
          ],
          "internalType": "struct LibPart.Part[]",
          "name": "royalties",
          "type": "tuple[]"
        }
      ],
      "name": "setRoyaltiesByToken",
      "outputs": [],
      "stateMutability": "nonpayable",
      "type": "function"
    },
    {
      "inputs": [
        {
          "internalType": "address",
          "name": "newOwner",
          "type": "address"
        }
      ],
      "name": "transferOwnership",
      "outputs": [],
      "stateMutability": "nonpayable",
      "type": "function"
    }
  ],
  "transactionHash": "0xc0338e74a01bab4dd4b875f3534fc7c2309c2331b1417e61a2db8252283cd4a5",
  "args": [],
  "numDeployments": 1,
  "solcInputHash": "ecd1b268b7f8423b750f66ee2d2cf788",
  "bytecode": "0x608060405234801561001057600080fd5b5061001961001e565b6100dd565b600054610100900460ff161561008a5760405162461bcd60e51b815260206004820152602760248201527f496e697469616c697a61626c653a20636f6e747261637420697320696e697469604482015266616c697a696e6760c81b606482015260840160405180910390fd5b60005460ff908116146100db576000805460ff191660ff9081179091556040519081527f7f26b83ff96e1f2b6a682f133852f6798a09c465da95921460cefb38474024989060200160405180910390a15b565b611af9806100ec6000396000f3fe608060405234801561001057600080fd5b50600436106100ea5760003560e01c80639ca7dc7a1161008c578063d836f01311610066578063d836f01314610215578063f2fde38b14610228578063f39cc7061461023b578063fc73be001461025b57600080fd5b80639ca7dc7a146101bf578063acf14efb146101df578063d1da3cce146101f257600080fd5b806355f21eb7116100c857806355f21eb714610144578063715018a61461018557806382b19f121461018d5780638da5cb5b146101ae57600080fd5b806305df952f146100ef57806327fff8ab1461012757806336eff6c214610131575b600080fd5b6101126100fd3660046114a2565b60666020526000908152604090205460ff1681565b60405190151581526020015b60405180910390f35b61012f61026e565b005b61012f61013f3660046114bf565b610393565b61016d6101523660046114a2565b6001600160a01b031660009081526067602052604090205490565b6040516001600160a01b03909116815260200161011e565b61012f6103c9565b6101a061019b3660046114a2565b6103dd565b60405190815260200161011e565b6033546001600160a01b031661016d565b6101d26101cd3660046114bf565b610405565b60405161011e91906114eb565b61012f6101ed3660046115ff565b6105c2565b6101126102003660046116e0565b60656020526000908152604090205460ff1681565b61012f6102233660046116f9565b61092b565b61012f6102363660046114a2565b610940565b6101a06102493660046114a2565b60676020526000908152604090205481565b61012f6102693660046114a2565b6109cd565b600054610100900460ff161580801561028e5750600054600160ff909116105b806102a85750303b1580156102a8575060005460ff166001145b61031f5760405162461bcd60e51b815260206004820152602e60248201527f496e697469616c697a61626c653a20636f6e747261637420697320616c72656160448201527f647920696e697469616c697a656400000000000000000000000000000000000060648201526084015b60405180910390fd5b6000805460ff191660011790558015610342576000805461ff0019166101001790555b61034a6109f8565b8015610390576000805461ff0019169055604051600181527f7f26b83ff96e1f2b6a682f133852f6798a09c465da95921460cefb38474024989060200160405180910390a15b50565b61039c82610a7d565b6103c582826103c0856001600160a01b031660009081526067602052604090205490565b610b58565b5050565b6103d1610c00565b6103db6000610c5a565b565b6001600160a01b0381166000908152606760205260408120546103ff90610cc4565b92915050565b6001600160a01b038216600090815260676020526040812054606091819061042c82610cc4565b90508061044a5761043d8683610d18565b905061044a868284610b58565b600181036104fb576001600160a01b038616600090815260666020908152604080832060010180548251818502810185019093528083529193909284015b828210156104ed57600084815260209081902060408051808201909152908401546001600160a01b03811682527401000000000000000000000000000000000000000090046bffffffffffffffffffffffff1681830152825260019092019101610488565b5050505093505050506103ff565b600281036105185761050e868684610e14565b93505050506103ff565b6003810361052a5761050e8686610ef4565b6004810361057a57604080516000808252602082019092529061056f565b60408051808201909152600080825260208201528152602001906001900390816105485790505b5093505050506103ff565b60405162461bcd60e51b815260206004820152601f60248201527f736f6d657468696e672077726f6e6720696e20676574526f79616c74696573006044820152606401610316565b6105cb82610a7d565b6001600160a01b03821660009081526067602052604081208190556105f4908390600190610b58565b6001600160a01b0382166000908152606660205260408120805460ff1916815581610622600183018261145b565b505060005b82518110156108535760006001600160a01b031683828151811061064d5761064d611732565b6020026020010151600001516001600160a01b0316036106d55760405162461bcd60e51b815260206004820152602c60248201527f526f79616c746965734279546f6b656e20726563697069656e742073686f756c60448201527f642062652070726573656e7400000000000000000000000000000000000000006064820152608401610316565b8281815181106106e7576106e7611732565b6020026020010151602001516bffffffffffffffffffffffff166000036107765760405162461bcd60e51b815260206004820152603060248201527f526f79616c74792076616c756520666f7220526f79616c746965734279546f6b60448201527f656e2073686f756c64206265203e2030000000000000000000000000000000006064820152608401610316565b60666000856001600160a01b03166001600160a01b031681526020019081526020016000206001018382815181106107b0576107b0611732565b6020908102919091018101518254600181018455600093845292829020815191909201516bffffffffffffffffffffffff1674010000000000000000000000000000000000000000026001600160a01b0390911617910155825183908290811061081c5761081c611732565b6020026020010151602001516bffffffffffffffffffffffff1682610841919061175e565b915061084c81611771565b9050610627565b5061271081106108cb5760405162461bcd60e51b815260206004820152602a60248201527f53657420627920746f6b656e20726f79616c746965732073756d206d6f72652c60448201527f207468616e2031303025000000000000000000000000000000000000000000006064820152608401610316565b6001600160a01b03831660008181526066602052604090819020805460ff19166001179055517fc026171b9a7c9009d6a748a19a0a3cb877978a585e1647a87a786d724bbde1279061091e9085906114eb565b60405180910390a2505050565b61093482610a7d565b6103c582600283610b58565b610948610c00565b6001600160a01b0381166109c45760405162461bcd60e51b815260206004820152602660248201527f4f776e61626c653a206e6577206f776e657220697320746865207a65726f206160448201527f64647265737300000000000000000000000000000000000000000000000000006064820152608401610316565b61039081610c5a565b6109d681610a7d565b6001600160a01b03908116600090815260676020526040902080549091169055565b600054610100900460ff16610a755760405162461bcd60e51b815260206004820152602b60248201527f496e697469616c697a61626c653a20636f6e7472616374206973206e6f74206960448201527f6e697469616c697a696e670000000000000000000000000000000000000000006064820152608401610316565b6103db6112a2565b6033546001600160a01b03163314801590610b0b5750336001600160a01b0316816001600160a01b0316638da5cb5b6040518163ffffffff1660e01b8152600401602060405180830381865afa158015610adb573d6000803e3d6000fd5b505050506040513d601f19601f82011682018060405250810190610aff919061178b565b6001600160a01b031614155b156103905760405162461bcd60e51b815260206004820152601860248201527f546f6b656e206f776e6572206e6f7420646574656374656400000000000000006044820152606401610316565b600082118015610b69575060048211155b610bb55760405162461bcd60e51b815260206004820152601360248201527f77726f6e6720726f79616c7469657354797065000000000000000000000000006044820152606401610316565b610bc1826101006117a8565b610bcc90600261189f565b610bdf906001600160a01b03831661175e565b6001600160a01b039093166000908152606760205260409020929092555050565b6033546001600160a01b031633146103db5760405162461bcd60e51b815260206004820181905260248201527f4f776e61626c653a2063616c6c6572206973206e6f7420746865206f776e65726044820152606401610316565b603380546001600160a01b038381167fffffffffffffffffffffffff0000000000000000000000000000000000000000831681179093556040519116919082907f8be0079c531659141344cd1fd0a4f28419497f9722a3daafe3b4186f6b6457e090600090a35050565b600060015b60048111610d0f57610cdd816101006117a8565b610ce890600261189f565b610cf290846118ab565b600103610cff5792915050565b610d0881611771565b9050610cc9565b50600092915050565b6040517f01ffc9a70000000000000000000000000000000000000000000000000000000081527f2a55205a0000000000000000000000000000000000000000000000000000000060048201526000906001600160a01b038416906301ffc9a790602401602060405180830381865afa925050508015610db4575060408051601f3d908101601f19168201909252610db1918101906118cd565b60015b15610dcb578015610dc95760039150506103ff565b505b6001600160a01b03821615610de2575060026103ff565b6001600160a01b03831660009081526066602052604090205460ff1615610e0b575060016103ff565b50600492915050565b6040517f9ca7dc7a0000000000000000000000000000000000000000000000000000000081526001600160a01b0384811660048301526024820184905260609190831690639ca7dc7a906044016000604051808303816000875af1925050508015610ea157506040513d6000823e601f3d908101601f19168201604052610e9e91908101906118ef565b60015b610eea576040805160008082526020820190925290610ee2565b6040805180820190915260008082526020820152815260200190600190039081610ebb5790505b509050610eed565b90505b9392505050565b6040517f2a55205a00000000000000000000000000000000000000000000000000000000815260048101829052620f424060248201526060906001600160a01b03841690632a55205a906044016040805180830381865afa925050508015610f79575060408051601f3d908101601f19168201909252610f76918101906119b8565b60015b610fc2576040805160008082526020820190925290610fba565b6040805180820190915260008082526020820152815260200190600190039081610f935790505b5090506103ff565b6040517f01ffc9a70000000000000000000000000000000000000000000000000000000081527ffd90e8970000000000000000000000000000000000000000000000000000000060048201526001600160a01b038616906301ffc9a790602401602060405180830381865afa92505050801561105b575060408051601f3d908101601f19168201909252611058918101906118cd565b60015b611072576110698282611328565b925050506103ff565b8015611298576040517ffd90e897000000000000000000000000000000000000000000000000000000008152600481018690526001600160a01b0387169063fd90e89790602401600060405180830381865afa9250505080156110f757506040513d6000823e601f3d908101601f191682016040526110f491908101906119e6565b60015b6111055761050e8383611328565b80518067ffffffffffffffff81111561112057611120611551565b60405190808252806020026020018201604052801561116557816020015b604080518082019091526000808252602082015281526020019060019003908161113e5790505b5095506000805b8281101561123c57600084828151811061118857611188611732565b6020026020010151905080600001518983815181106111a9576111a9611732565b6020908102919091018101516001600160a01b03909216909152810151600090620f4240906111dd908a9061ffff16611aac565b6111e791906118ab565b9050808a84815181106111fc576111fc611732565b6020908102919091018101516bffffffffffffffffffffffff909216910152611225818561175e565b93505050808061123490611771565b91505061116c565b508481111561128d5760405162461bcd60e51b815260206004820181905260248201527f526f79616c7469657352656769737472793a20496e76616c69642073706c69746044820152606401610316565b5050505050506103ff565b61050e8383611328565b600054610100900460ff1661131f5760405162461bcd60e51b815260206004820152602b60248201527f496e697469616c697a61626c653a20636f6e7472616374206973206e6f74206960448201527f6e697469616c697a696e670000000000000000000000000000000000000000006064820152608401610316565b6103db33610c5a565b6060808260000361133a5790506103ff565b6000620f424061134c85612710611aac565b61135691906118ab565b905061271081106113a95760405162461bcd60e51b815260206004820152601b60248201527f526f79616c7469657320323938312065786365656473203130302500000000006044820152606401610316565b60408051600180825281830190925290816020015b60408051808201909152600080825260208201528152602001906001900390816113be57905050915084826000815181106113fb576113fb611732565b6020026020010151600001906001600160a01b031690816001600160a01b031681525050808260008151811061143357611433611732565b6020908102919091018101516bffffffffffffffffffffffff90921691015250905092915050565b508054600082559060005260206000209081019061039091905b808211156114895760008155600101611475565b5090565b6001600160a01b038116811461039057600080fd5b6000602082840312156114b457600080fd5b8135610eed8161148d565b600080604083850312156114d257600080fd5b82356114dd8161148d565b946020939093013593505050565b602080825282518282018190526000919060409081850190868401855b8281101561154457815180516001600160a01b031685528601516bffffffffffffffffffffffff16868501529284019290850190600101611508565b5091979650505050505050565b634e487b7160e01b600052604160045260246000fd5b6040805190810167ffffffffffffffff8111828210171561158a5761158a611551565b60405290565b604051601f8201601f1916810167ffffffffffffffff811182821017156115b9576115b9611551565b604052919050565b600067ffffffffffffffff8211156115db576115db611551565b5060051b60200190565b6bffffffffffffffffffffffff8116811461039057600080fd5b600080604080848603121561161357600080fd5b833561161e8161148d565b925060208481013567ffffffffffffffff81111561163b57600080fd5b8501601f8101871361164c57600080fd5b803561165f61165a826115c1565b611590565b81815260069190911b8201830190838101908983111561167e57600080fd5b928401925b828410156116d05785848b03121561169b5760008081fd5b6116a3611567565b84356116ae8161148d565b8152848601356116bd816115e5565b8187015282529285019290840190611683565b8096505050505050509250929050565b6000602082840312156116f257600080fd5b5035919050565b6000806040838503121561170c57600080fd5b82356117178161148d565b915060208301356117278161148d565b809150509250929050565b634e487b7160e01b600052603260045260246000fd5b634e487b7160e01b600052601160045260246000fd5b808201808211156103ff576103ff611748565b6000600019820361178457611784611748565b5060010190565b60006020828403121561179d57600080fd5b8151610eed8161148d565b818103818111156103ff576103ff611748565b600181815b808511156117f65781600019048211156117dc576117dc611748565b808516156117e957918102915b93841c93908002906117c0565b509250929050565b60008261180d575060016103ff565b8161181a575060006103ff565b8160018114611830576002811461183a57611856565b60019150506103ff565b60ff84111561184b5761184b611748565b50506001821b6103ff565b5060208310610133831016604e8410600b8410161715611879575081810a6103ff565b61188383836117bb565b806000190482111561189757611897611748565b029392505050565b6000610eed83836117fe565b6000826118c857634e487b7160e01b600052601260045260246000fd5b500490565b6000602082840312156118df57600080fd5b81518015158114610eed57600080fd5b6000602080838503121561190257600080fd5b825167ffffffffffffffff81111561191957600080fd5b8301601f8101851361192a57600080fd5b805161193861165a826115c1565b81815260069190911b8201830190838101908783111561195757600080fd5b928401925b828410156119ad57604084890312156119755760008081fd5b61197d611567565b84516119888161148d565b815284860151611997816115e5565b818701528252604093909301929084019061195c565b979650505050505050565b600080604083850312156119cb57600080fd5b82516119d68161148d565b6020939093015192949293505050565b600060208083850312156119f957600080fd5b825167ffffffffffffffff811115611a1057600080fd5b8301601f81018513611a2157600080fd5b8051611a2f61165a826115c1565b81815260069190911b82018301908381019087831115611a4e57600080fd5b928401925b828410156119ad5760408489031215611a6c5760008081fd5b611a74611567565b8451611a7f8161148d565b81528486015161ffff81168114611a965760008081fd5b8187015282526040939093019290840190611a53565b80820281158282048414176103ff576103ff61174856fea2646970667358221220250d401ba179c2783ab09b3f3c91945cb03ff28b13e0754440bfec1c0306754464736f6c63430008150033",
  "devdoc": {
    "events": {
      "Initialized(uint8)": {
        "details": "Triggered when the contract has been initialized or reinitialized."
      },
      "RoyaltiesSetForContract(address,(address,uint96)[])": {
        "params": {
          "royalties": "array of royalties",
          "token": "token address"
        }
      },
      "RoyaltiesSetForToken(address,uint256,(address,uint96)[])": {
        "params": {
          "royalties": "deprecated",
          "token": "deprecated",
          "tokenId": "deprecated"
        }
      }
    },
    "kind": "dev",
    "methods": {
      "clearRoyaltiesType(address)": {
        "params": {
          "token": "address of token"
        }
      },
      "constructor": {
        "custom:oz-upgrades-unsafe-allow": "constructor",
        "details": "this protects the implementation contract from being initialized."
      },
      "forceSetRoyaltiesType(address,uint256)": {
        "params": {
          "royaltiesType": "roayalty type",
          "token": "address of token"
        }
      },
      "getProvider(address)": {
        "params": {
          "token": "token address"
        },
        "returns": {
          "_0": "address of provider"
        }
      },
      "getRoyalties(address,uint256)": {
        "params": {
          "token": "address of token",
          "tokenId": "id of token"
        },
        "returns": {
          "_0": "royalties in form of an array of Parts"
        }
      },
      "getRoyaltiesType(address)": {
        "params": {
          "token": "token address"
        },
        "returns": {
          "_0": "royalty type"
        }
      },
      "owner()": {
        "details": "Returns the address of the current owner."
      },
      "renounceOwnership()": {
        "details": "Leaves the contract without owner. It will not be possible to call `onlyOwner` functions. Can only be called by the current owner. NOTE: Renouncing ownership will leave the contract without an owner, thereby disabling any functionality that is only available to the owner."
      },
      "setProviderByToken(address,address)": {
        "params": {
          "provider": "address of provider",
          "token": "token address"
        }
      },
      "setRoyaltiesByToken(address,(address,uint96)[])": {
        "params": {
          "royalties": "array of royalties",
          "token": "address of token"
        }
      },
      "transferOwnership(address)": {
        "details": "Transfers ownership of the contract to a new account (`newOwner`). Can only be called by the current owner."
      }
    },
    "stateVariables": {
      "royaltiesProviders": {
        "return": "royaltiesProviders external providers",
        "returns": {
          "_0": "royaltiesProviders external providers"
        }
      }
    },
    "title": "royalties registry contract",
    "version": 1
  },
  "userdoc": {
    "events": {
      "RoyaltiesSetForContract(address,(address,uint96)[])": {
        "notice": "emitted when royalties is set for token"
      },
      "RoyaltiesSetForToken(address,uint256,(address,uint96)[])": {
        "notice": "deprecated"
      }
    },
    "kind": "user",
    "methods": {
      "__RoyaltiesRegistry_init()": {
        "notice": "Royalties registry initializer"
      },
      "clearRoyaltiesType(address)": {
        "notice": "clears royalties type for token contract"
      },
      "forceSetRoyaltiesType(address,uint256)": {
        "notice": "clears and sets new royalties type for token contract"
      },
      "getProvider(address)": {
        "notice": "returns provider address for token contract from royaltiesProviders mapping"
      },
      "getRoyalties(address,uint256)": {
        "notice": "returns royalties for token contract and token id"
      },
      "getRoyaltiesType(address)": {
        "notice": "returns royalties type for token contract"
      },
      "royaltiesByToken(address)": {
        "notice": "stores royalties for token contract, set in setRoyaltiesByToken() method"
      },
      "royaltiesByTokenAndTokenId(bytes32)": {
        "notice": "deprecated"
      },
      "royaltiesProviders(address)": {
        "notice": "stores external provider and royalties type for token contract"
      },
      "setProviderByToken(address,address)": {
        "notice": "sets external provider for token contract, and royalties type = 4"
      },
      "setRoyaltiesByToken(address,(address,uint96)[])": {
        "notice": "sets royalties for token contract in royaltiesByToken mapping and royalties type = 1"
      }
    },
    "notice": "contract allows to processing different types of royalties",
    "version": 1
  },
  "storageLayout": {
    "storage": [
      {
        "astId": 586,
        "contract": "@sandbox-smart-contracts/marketplace/contracts/royalties-registry/RoyaltiesRegistry.sol:RoyaltiesRegistry",
        "label": "_initialized",
        "offset": 0,
        "slot": "0",
        "type": "t_uint8"
      },
      {
        "astId": 589,
        "contract": "@sandbox-smart-contracts/marketplace/contracts/royalties-registry/RoyaltiesRegistry.sol:RoyaltiesRegistry",
        "label": "_initializing",
        "offset": 1,
        "slot": "0",
        "type": "t_bool"
      },
      {
        "astId": 1974,
        "contract": "@sandbox-smart-contracts/marketplace/contracts/royalties-registry/RoyaltiesRegistry.sol:RoyaltiesRegistry",
        "label": "__gap",
        "offset": 0,
        "slot": "1",
        "type": "t_array(t_uint256)50_storage"
      },
      {
        "astId": 419,
        "contract": "@sandbox-smart-contracts/marketplace/contracts/royalties-registry/RoyaltiesRegistry.sol:RoyaltiesRegistry",
        "label": "_owner",
        "offset": 0,
        "slot": "51",
        "type": "t_address"
      },
      {
        "astId": 539,
        "contract": "@sandbox-smart-contracts/marketplace/contracts/royalties-registry/RoyaltiesRegistry.sol:RoyaltiesRegistry",
        "label": "__gap",
        "offset": 0,
        "slot": "52",
        "type": "t_array(t_uint256)49_storage"
      },
      {
        "astId": 6436,
        "contract": "@sandbox-smart-contracts/marketplace/contracts/royalties-registry/RoyaltiesRegistry.sol:RoyaltiesRegistry",
        "label": "royaltiesByTokenAndTokenId",
        "offset": 0,
        "slot": "101",
        "type": "t_mapping(t_bytes32,t_struct(RoyaltiesSet)6427_storage)"
      },
      {
        "astId": 6442,
        "contract": "@sandbox-smart-contracts/marketplace/contracts/royalties-registry/RoyaltiesRegistry.sol:RoyaltiesRegistry",
        "label": "royaltiesByToken",
        "offset": 0,
        "slot": "102",
        "type": "t_mapping(t_address,t_struct(RoyaltiesSet)6427_storage)"
      },
      {
        "astId": 6447,
        "contract": "@sandbox-smart-contracts/marketplace/contracts/royalties-registry/RoyaltiesRegistry.sol:RoyaltiesRegistry",
        "label": "royaltiesProviders",
        "offset": 0,
        "slot": "103",
        "type": "t_mapping(t_address,t_uint256)"
      },
      {
        "astId": 7166,
        "contract": "@sandbox-smart-contracts/marketplace/contracts/royalties-registry/RoyaltiesRegistry.sol:RoyaltiesRegistry",
        "label": "__gap",
        "offset": 0,
        "slot": "104",
        "type": "t_array(t_uint256)46_storage"
      }
    ],
    "types": {
      "t_address": {
        "encoding": "inplace",
        "label": "address",
        "numberOfBytes": "20"
      },
      "t_array(t_struct(Part)6333_storage)dyn_storage": {
        "base": "t_struct(Part)6333_storage",
        "encoding": "dynamic_array",
        "label": "struct LibPart.Part[]",
        "numberOfBytes": "32"
      },
      "t_array(t_uint256)46_storage": {
        "base": "t_uint256",
        "encoding": "inplace",
        "label": "uint256[46]",
        "numberOfBytes": "1472"
      },
      "t_array(t_uint256)49_storage": {
        "base": "t_uint256",
        "encoding": "inplace",
        "label": "uint256[49]",
        "numberOfBytes": "1568"
      },
      "t_array(t_uint256)50_storage": {
        "base": "t_uint256",
        "encoding": "inplace",
        "label": "uint256[50]",
        "numberOfBytes": "1600"
      },
      "t_bool": {
        "encoding": "inplace",
        "label": "bool",
        "numberOfBytes": "1"
      },
      "t_bytes32": {
        "encoding": "inplace",
        "label": "bytes32",
        "numberOfBytes": "32"
      },
      "t_mapping(t_address,t_struct(RoyaltiesSet)6427_storage)": {
        "encoding": "mapping",
        "key": "t_address",
        "label": "mapping(address => struct RoyaltiesRegistry.RoyaltiesSet)",
        "numberOfBytes": "32",
        "value": "t_struct(RoyaltiesSet)6427_storage"
      },
      "t_mapping(t_address,t_uint256)": {
        "encoding": "mapping",
        "key": "t_address",
        "label": "mapping(address => uint256)",
        "numberOfBytes": "32",
        "value": "t_uint256"
      },
      "t_mapping(t_bytes32,t_struct(RoyaltiesSet)6427_storage)": {
        "encoding": "mapping",
        "key": "t_bytes32",
        "label": "mapping(bytes32 => struct RoyaltiesRegistry.RoyaltiesSet)",
        "numberOfBytes": "32",
        "value": "t_struct(RoyaltiesSet)6427_storage"
      },
      "t_struct(Part)6333_storage": {
        "encoding": "inplace",
        "label": "struct LibPart.Part",
        "members": [
          {
            "astId": 6330,
            "contract": "@sandbox-smart-contracts/marketplace/contracts/royalties-registry/RoyaltiesRegistry.sol:RoyaltiesRegistry",
            "label": "account",
            "offset": 0,
            "slot": "0",
            "type": "t_address"
          },
          {
            "astId": 6332,
            "contract": "@sandbox-smart-contracts/marketplace/contracts/royalties-registry/RoyaltiesRegistry.sol:RoyaltiesRegistry",
            "label": "value",
            "offset": 20,
            "slot": "0",
            "type": "t_uint96"
          }
        ],
        "numberOfBytes": "32"
      },
      "t_struct(RoyaltiesSet)6427_storage": {
        "encoding": "inplace",
        "label": "struct RoyaltiesRegistry.RoyaltiesSet",
        "members": [
          {
            "astId": 6422,
            "contract": "@sandbox-smart-contracts/marketplace/contracts/royalties-registry/RoyaltiesRegistry.sol:RoyaltiesRegistry",
            "label": "initialized",
            "offset": 0,
            "slot": "0",
            "type": "t_bool"
          },
          {
            "astId": 6426,
            "contract": "@sandbox-smart-contracts/marketplace/contracts/royalties-registry/RoyaltiesRegistry.sol:RoyaltiesRegistry",
            "label": "royalties",
            "offset": 0,
            "slot": "1",
            "type": "t_array(t_struct(Part)6333_storage)dyn_storage"
          }
        ],
        "numberOfBytes": "64"
      },
      "t_uint256": {
        "encoding": "inplace",
        "label": "uint256",
        "numberOfBytes": "32"
      },
      "t_uint8": {
        "encoding": "inplace",
        "label": "uint8",
        "numberOfBytes": "1"
      },
      "t_uint96": {
        "encoding": "inplace",
        "label": "uint96",
        "numberOfBytes": "12"
      }
    }
  }
}