{
  "address": "0x6ae14ED710f456995e053e0327a7467143EF0E95",
  "abi": [
    {
      "inputs": [],
      "stateMutability": "nonpayable",
      "type": "constructor"
    },
    {
      "anonymous": false,
      "inputs": [
        {
          "indexed": true,
          "internalType": "address",
          "name": "erc20Contract",
          "type": "address"
        },
        {
          "indexed": true,
          "internalType": "address",
          "name": "account",
          "type": "address"
        },
        {
          "indexed": false,
          "internalType": "uint256",
          "name": "amount",
          "type": "uint256"
        }
      ],
      "name": "ERC20Transferred",
      "type": "event"
    },
    {
      "anonymous": false,
      "inputs": [
        {
          "indexed": true,
          "internalType": "address",
          "name": "account",
          "type": "address"
        },
        {
          "indexed": false,
          "internalType": "uint256",
          "name": "amount",
          "type": "uint256"
        }
      ],
      "name": "ETHTransferred",
      "type": "event"
    },
    {
      "anonymous": false,
      "inputs": [
        {
          "indexed": false,
          "internalType": "uint8",
          "name": "version",
          "type": "uint8"
        }
      ],
      "name": "Initialized",
      "type": "event"
    },
    {
      "anonymous": false,
      "inputs": [
        {
          "indexed": true,
          "internalType": "address",
          "name": "previousOwner",
          "type": "address"
        },
        {
          "indexed": true,
          "internalType": "address",
          "name": "newOwner",
          "type": "address"
        }
      ],
      "name": "OwnershipTransferred",
      "type": "event"
    },
    {
      "anonymous": false,
      "inputs": [
        {
          "indexed": true,
          "internalType": "address",
          "name": "recipientAddress",
          "type": "address"
        }
      ],
      "name": "RecipientSet",
      "type": "event"
    },
    {
      "inputs": [],
      "name": "getRecipients",
      "outputs": [
        {
          "components": [
            {
              "internalType": "address payable",
              "name": "recipient",
              "type": "address"
            },
            {
              "internalType": "uint16",
              "name": "bps",
              "type": "uint16"
            }
          ],
          "internalType": "struct Recipient[]",
          "name": "recipients",
          "type": "tuple[]"
        }
      ],
      "stateMutability": "view",
      "type": "function"
    },
    {
      "inputs": [
        {
          "internalType": "address payable",
          "name": "recipientAddress",
          "type": "address"
        },
        {
          "internalType": "address",
          "name": "_royaltyManager",
          "type": "address"
        }
      ],
      "name": "initialize",
      "outputs": [],
      "stateMutability": "nonpayable",
      "type": "function"
    },
    {
      "inputs": [
        {
          "internalType": "address",
          "name": "forwarder",
          "type": "address"
        }
      ],
      "name": "isTrustedForwarder",
      "outputs": [
        {
          "internalType": "bool",
          "name": "",
          "type": "bool"
        }
      ],
      "stateMutability": "view",
      "type": "function"
    },
    {
      "inputs": [],
      "name": "owner",
      "outputs": [
        {
          "internalType": "address",
          "name": "",
          "type": "address"
        }
      ],
      "stateMutability": "view",
      "type": "function"
    },
    {
      "inputs": [],
      "name": "recipient",
      "outputs": [
        {
          "internalType": "address payable",
          "name": "",
          "type": "address"
        }
      ],
      "stateMutability": "view",
      "type": "function"
    },
    {
      "inputs": [],
      "name": "renounceOwnership",
      "outputs": [],
      "stateMutability": "nonpayable",
      "type": "function"
    },
    {
      "inputs": [],
      "name": "royaltyManager",
      "outputs": [
        {
          "internalType": "contract IRoyaltyManager",
          "name": "",
          "type": "address"
        }
      ],
      "stateMutability": "view",
      "type": "function"
    },
    {
      "inputs": [
        {
          "components": [
            {
              "internalType": "address payable",
              "name": "recipient",
              "type": "address"
            },
            {
              "internalType": "uint16",
              "name": "bps",
              "type": "uint16"
            }
          ],
          "internalType": "struct Recipient[]",
          "name": "recipients",
          "type": "tuple[]"
        }
      ],
      "name": "setRecipients",
      "outputs": [],
      "stateMutability": "nonpayable",
      "type": "function"
    },
    {
      "inputs": [
        {
          "internalType": "contract IERC20",
          "name": "erc20Contract",
          "type": "address"
        }
      ],
      "name": "splitERC20Tokens",
      "outputs": [],
      "stateMutability": "nonpayable",
      "type": "function"
    },
    {
      "inputs": [],
      "name": "splitETH",
      "outputs": [],
      "stateMutability": "payable",
      "type": "function"
    },
    {
      "inputs": [
        {
          "internalType": "bytes4",
          "name": "interfaceId",
          "type": "bytes4"
        }
      ],
      "name": "supportsInterface",
      "outputs": [
        {
          "internalType": "bool",
          "name": "isSupported",
          "type": "bool"
        }
      ],
      "stateMutability": "view",
      "type": "function"
    },
    {
      "inputs": [
        {
          "internalType": "address",
          "name": "newOwner",
          "type": "address"
        }
      ],
      "name": "transferOwnership",
      "outputs": [],
      "stateMutability": "nonpayable",
      "type": "function"
    },
    {
      "stateMutability": "payable",
      "type": "receive"
    }
  ],
  "transactionHash": "0x5f25e81efe2c39479d690544fa7743936a9dd99905d27ad7f3ca4d3c4f493d77",
  "args": [],
  "numDeployments": 1,
  "solcInputHash": "467ad2aa755667473a7c4622090bf333",
  "bytecode": "0x608060405234801561001057600080fd5b5061001961001e565b6100dd565b600054610100900460ff161561008a5760405162461bcd60e51b815260206004820152602760248201527f496e697469616c697a61626c653a20636f6e747261637420697320696e697469604482015266616c697a696e6760c81b606482015260840160405180910390fd5b60005460ff908116146100db576000805460ff191660ff9081179091556040519081527f7f26b83ff96e1f2b6a682f133852f6798a09c465da95921460cefb38474024989060200160405180910390a15b565b611b74806100ec6000396000f3fe6080604052600436106100cb5760003560e01c80638da5cb5b11610074578063d78d610b1161004e578063d78d610b14610208578063ee295d621461022a578063f2fde38b1461024a57600080fd5b80638da5cb5b146101c2578063c1426d0e146101e0578063d1aa25d01461020057600080fd5b8063572b6c05116100a5578063572b6c051461015557806366d003ac14610175578063715018a6146101ad57600080fd5b806301ffc9a7146100e057806320dc8ff714610115578063485cc9551461013557600080fd5b366100db576100d93461026a565b005b600080fd5b3480156100ec57600080fd5b506101006100fb36600461182a565b610590565b60405190151581526020015b60405180910390f35b34801561012157600080fd5b506100d9610130366004611888565b610629565b34801561014157600080fd5b506100d96101503660046118a5565b610683565b34801561016157600080fd5b50610100610170366004611888565b6107fc565b34801561018157600080fd5b50609754610195906001600160a01b031681565b6040516001600160a01b03909116815260200161010c565b3480156101b957600080fd5b506100d9610807565b3480156101ce57600080fd5b506033546001600160a01b0316610195565b3480156101ec57600080fd5b506100d96101fb3660046118de565b61081b565b6100d96108a8565b34801561021457600080fd5b5061021d6108b1565b60405161010c9190611953565b34801561023657600080fd5b50609854610195906001600160a01b031681565b34801561025657600080fd5b506100d9610265366004611888565b610a72565b801561058d5760985460408051638b49fde760e01b815281516000936001600160a01b031692638b49fde792600480820193918290030181865afa1580156102b6573d6000803e3d6000fd5b505050506040513d601f19601f820116820180604052508101906102da91906119c1565b90506000609860009054906101000a90046001600160a01b03166001600160a01b031663706ec2fe6040518163ffffffff1660e01b8152600401602060405180830381865afa158015610331573d6000803e3d6000fd5b505050506040513d601f19601f820116820180604052508101906103559190611a2c565b6040805160028082526060820190925291925060009190816020015b604080518082019091526000808252602082015281526020019060019003908161037157505060975481519192506001600160a01b03169082906000906103ba576103ba611a47565b6020026020010151600001906001600160a01b031690816001600160a01b03168152505081816000815181106103f2576103f2611a47565b60200260200101516020019061ffff16908161ffff1681525050828160018151811061042057610420611a47565b60200260200101819052506000806000600184510390505b80156104e657600084828151811061045257610452611a47565b60200260200101519050612710816020015161ffff1689028161047757610477611a5d565b8251919004948501949350610495906001600160a01b031684610aff565b80600001516001600160a01b03167f1445764fe3fdfc2a9812ff42e9b65c2e7896d5162851f78f7d4a5578f7346ff1846040516104d491815260200190565b60405180910390a25060001901610438565b508186039050610526818460008151811061050357610503611a47565b6020026020010151600001516001600160a01b0316610aff90919063ffffffff16565b8260008151811061053957610539611a47565b6020026020010151600001516001600160a01b03167f1445764fe3fdfc2a9812ff42e9b65c2e7896d5162851f78f7d4a5578f7346ff18260405161057f91815260200190565b60405180910390a250505050505b50565b60007fffffffff0000000000000000000000000000000000000000000000000000000082167f16cf0c0500000000000000000000000000000000000000000000000000000000148061062357507f01ffc9a7000000000000000000000000000000000000000000000000000000007fffffffff000000000000000000000000000000000000000000000000000000008316145b92915050565b61063281610c18565b61058d5760405162461bcd60e51b815260206004820152601960248201527f53706c69743a2045524332302073706c6974206661696c65640000000000000060448201526064015b60405180910390fd5b600054610100900460ff16158080156106a35750600054600160ff909116105b806106bd5750303b1580156106bd575060005460ff166001145b61072f5760405162461bcd60e51b815260206004820152602e60248201527f496e697469616c697a61626c653a20636f6e747261637420697320616c72656160448201527f647920696e697469616c697a6564000000000000000000000000000000000000606482015260840161067a565b600080547fffffffffffffffffffffffffffffffffffffffffffffffffffffffffffffff001660011790558015610770576000805461ff0019166101001790555b6098805473ffffffffffffffffffffffffffffffffffffffff19166001600160a01b0384161790556107a183611114565b6107a961116b565b6107b16111f0565b80156107f7576000805461ff0019169055604051600181527f7f26b83ff96e1f2b6a682f133852f6798a09c465da95921460cefb38474024989060200160405180910390a15b505050565b60006106238261126d565b61080f61130f565b6108196000611388565b565b61082361130f565b600181146108735760405162461bcd60e51b815260206004820152601860248201527f496e76616c6964207265636970656e7473206c656e6774680000000000000000604482015260640161067a565b6108a48282600081811061088957610889611a47565b61089f9260206040909202019081019150611888565b611114565b5050565b6108194761026a565b60985460408051638b49fde760e01b815281516060936000936001600160a01b0390911692638b49fde792600480830193928290030181865afa1580156108fc573d6000803e3d6000fd5b505050506040513d601f19601f8201168201806040525081019061092091906119c1565b90506000609860009054906101000a90046001600160a01b03166001600160a01b031663706ec2fe6040518163ffffffff1660e01b8152600401602060405180830381865afa158015610977573d6000803e3d6000fd5b505050506040513d601f19601f8201168201806040525081019061099b9190611a2c565b60408051600280825260608201909252919250816020015b60408051808201909152600080825260208201528152602001906001900390816109b357505060975481519194506001600160a01b03169084906000906109fc576109fc611a47565b6020026020010151600001906001600160a01b031690816001600160a01b0316815250508083600081518110610a3457610a34611a47565b60200260200101516020019061ffff16908161ffff16815250508183600181518110610a6257610a62611a47565b6020026020010181905250505090565b610a7a61130f565b6001600160a01b038116610af65760405162461bcd60e51b815260206004820152602660248201527f4f776e61626c653a206e6577206f776e657220697320746865207a65726f206160448201527f6464726573730000000000000000000000000000000000000000000000000000606482015260840161067a565b61058d81611388565b80471015610b4f5760405162461bcd60e51b815260206004820152601d60248201527f416464726573733a20696e73756666696369656e742062616c616e6365000000604482015260640161067a565b6000826001600160a01b03168260405160006040518083038185875af1925050503d8060008114610b9c576040519150601f19603f3d011682016040523d82523d6000602084013e610ba1565b606091505b50509050806107f75760405162461bcd60e51b815260206004820152603a60248201527f416464726573733a20756e61626c6520746f2073656e642076616c75652c207260448201527f6563697069656e74206d61792068617665207265766572746564000000000000606482015260840161067a565b6040517f70a082310000000000000000000000000000000000000000000000000000000081523060048201526000906001600160a01b038316906370a0823190602401602060405180830381865afa925050508015610c94575060408051601f3d908101601f19168201909252610c9191810190611a73565b60015b610ca057506000919050565b80600003610cb15750600092915050565b60985460408051638b49fde760e01b815281516000936001600160a01b031692638b49fde792600480820193918290030181865afa158015610cf7573d6000803e3d6000fd5b505050506040513d601f19601f82011682018060405250810190610d1b91906119c1565b90506000609860009054906101000a90046001600160a01b03166001600160a01b031663706ec2fe6040518163ffffffff1660e01b8152600401602060405180830381865afa158015610d72573d6000803e3d6000fd5b505050506040513d601f19601f82011682018060405250810190610d969190611a2c565b9050610da06113e7565b6001600160a01b031682600001516001600160a01b03161480610dd85750610dc66113e7565b6097546001600160a01b039081169116145b610e4a5760405162461bcd60e51b815260206004820152603260248201527f53706c69743a2043616e206f6e6c792062652063616c6c6564206279206f6e6560448201527f206f662074686520726563697069656e74730000000000000000000000000000606482015260840161067a565b60408051600280825260608201909252600091816020015b6040805180820190915260008082526020820152815260200190600190039081610e6257505060975481519192506001600160a01b0316908290600090610eab57610eab611a47565b6020026020010151600001906001600160a01b031690816001600160a01b0316815250508181600081518110610ee357610ee3611a47565b60200260200101516020019061ffff16908161ffff16815250508281600181518110610f1157610f11611a47565b60200260200101819052506000806000600184510390505b801561105d576000848281518110610f4357610f43611a47565b60200260200101519050610f68816020015161ffff16896113f690919063ffffffff16565b909950935088610fe05760405162461bcd60e51b815260206004820152602860248201527f526f79616c747953706c69747465723a204d756c7469706c69636174696f6e2060448201527f4f766572666c6f77000000000000000000000000000000000000000000000000606482015260840161067a565b80516127109094049392840192611002906001600160a01b038c169086611441565b80600001516001600160a01b03168a6001600160a01b03167fe8de91d538b06154a2c48315768c5046f47e127d7fd3f726fd85cc723f29b0528660405161104b91815260200190565b60405180910390a35060001901610f29565b5080860391506110968360008151811061107957611079611a47565b6020908102919091010151516001600160a01b038a169084611441565b826000815181106110a9576110a9611a47565b6020026020010151600001516001600160a01b0316886001600160a01b03167fe8de91d538b06154a2c48315768c5046f47e127d7fd3f726fd85cc723f29b052846040516110f991815260200190565b60405180910390a3506001979650505050505050565b919050565b6097805473ffffffffffffffffffffffffffffffffffffffff19166001600160a01b0383169081179091556040517f9d900d71c28433348acb1bec780a061608a96b149370abce77fd54ba2d47940190600090a250565b600054610100900460ff166111e85760405162461bcd60e51b815260206004820152602b60248201527f496e697469616c697a61626c653a20636f6e7472616374206973206e6f74206960448201527f6e697469616c697a696e67000000000000000000000000000000000000000000606482015260840161067a565b6108196114c1565b600054610100900460ff166108195760405162461bcd60e51b815260206004820152602b60248201527f496e697469616c697a61626c653a20636f6e7472616374206973206e6f74206960448201527f6e697469616c697a696e67000000000000000000000000000000000000000000606482015260840161067a565b609854604080517fce1b815f00000000000000000000000000000000000000000000000000000000815290516000926001600160a01b03169163ce1b815f9160048083019260209291908290030181865afa1580156112d0573d6000803e3d6000fd5b505050506040513d601f19601f820116820180604052508101906112f49190611a8c565b6001600160a01b0316826001600160a01b0316149050919050565b6113176113e7565b6001600160a01b03166113326033546001600160a01b031690565b6001600160a01b0316146108195760405162461bcd60e51b815260206004820181905260248201527f4f776e61626c653a2063616c6c6572206973206e6f7420746865206f776e6572604482015260640161067a565b603380546001600160a01b0383811673ffffffffffffffffffffffffffffffffffffffff19831681179093556040519116919082907f8be0079c531659141344cd1fd0a4f28419497f9722a3daafe3b4186f6b6457e090600090a35050565b60006113f161154e565b905090565b6000808360000361140d575060019050600061143a565b8383028385828161142057611420611a5d565b041461143357600080925092505061143a565b6001925090505b9250929050565b604080516001600160a01b038416602482015260448082018490528251808303909101815260649091019091526020810180517bffffffffffffffffffffffffffffffffffffffffffffffffffffffff167fa9059cbb000000000000000000000000000000000000000000000000000000001790526107f790849061159b565b600054610100900460ff1661153e5760405162461bcd60e51b815260206004820152602b60248201527f496e697469616c697a61626c653a20636f6e7472616374206973206e6f74206960448201527f6e697469616c697a696e67000000000000000000000000000000000000000000606482015260840161067a565b6108196115496113e7565b611388565b60006115593361126d565b8015611566575060143610155b1561159657507fffffffffffffffffffffffffffffffffffffffffffffffffffffffffffffffec36013560601c90565b503390565b60006115f0826040518060400160405280602081526020017f5361666545524332303a206c6f772d6c6576656c2063616c6c206661696c6564815250856001600160a01b03166116839092919063ffffffff16565b90508051600014806116115750808060200190518101906116119190611aa9565b6107f75760405162461bcd60e51b815260206004820152602a60248201527f5361666545524332303a204552433230206f7065726174696f6e20646964206e60448201527f6f74207375636365656400000000000000000000000000000000000000000000606482015260840161067a565b6060611692848460008561169a565b949350505050565b6060824710156117125760405162461bcd60e51b815260206004820152602660248201527f416464726573733a20696e73756666696369656e742062616c616e636520666f60448201527f722063616c6c0000000000000000000000000000000000000000000000000000606482015260840161067a565b600080866001600160a01b0316858760405161172e9190611aef565b60006040518083038185875af1925050503d806000811461176b576040519150601f19603f3d011682016040523d82523d6000602084013e611770565b606091505b50915091506117818783838761178c565b979650505050505050565b606083156117fb5782516000036117f4576001600160a01b0385163b6117f45760405162461bcd60e51b815260206004820152601d60248201527f416464726573733a2063616c6c20746f206e6f6e2d636f6e7472616374000000604482015260640161067a565b5081611692565b61169283838151156118105781518083602001fd5b8060405162461bcd60e51b815260040161067a9190611b0b565b60006020828403121561183c57600080fd5b81357fffffffff000000000000000000000000000000000000000000000000000000008116811461186c57600080fd5b9392505050565b6001600160a01b038116811461058d57600080fd5b60006020828403121561189a57600080fd5b813561186c81611873565b600080604083850312156118b857600080fd5b82356118c381611873565b915060208301356118d381611873565b809150509250929050565b600080602083850312156118f157600080fd5b823567ffffffffffffffff8082111561190957600080fd5b818501915085601f83011261191d57600080fd5b81358181111561192c57600080fd5b8660208260061b850101111561194157600080fd5b60209290920196919550909350505050565b602080825282518282018190526000919060409081850190868401855b828110156119a257815180516001600160a01b0316855286015161ffff16868501529284019290850190600101611970565b5091979650505050505050565b805161ffff8116811461110f57600080fd5b6000604082840312156119d357600080fd5b6040516040810181811067ffffffffffffffff82111715611a0457634e487b7160e01b600052604160045260246000fd5b6040528251611a1281611873565b8152611a20602084016119af565b60208201529392505050565b600060208284031215611a3e57600080fd5b61186c826119af565b634e487b7160e01b600052603260045260246000fd5b634e487b7160e01b600052601260045260246000fd5b600060208284031215611a8557600080fd5b5051919050565b600060208284031215611a9e57600080fd5b815161186c81611873565b600060208284031215611abb57600080fd5b8151801515811461186c57600080fd5b60005b83811015611ae6578181015183820152602001611ace565b50506000910152565b60008251611b01818460208701611acb565b9190910192915050565b6020815260008251806020840152611b2a816040850160208701611acb565b601f01601f1916919091016040019291505056fea2646970667358221220559f27f072948db4cb7ec0b49ff3a05f06eb32b7389b096d21a0d359945b2e6664736f6c63430008120033",
  "devdoc": {
    "author": "The Sandbox",
    "events": {
      "Initialized(uint8)": {
        "details": "Triggered when the contract has been initialized or reinitialized."
      }
    },
    "kind": "dev",
    "methods": {
      "constructor": {
        "custom:oz-upgrades-unsafe-allow": "constructor",
        "details": "this protects the implementation contract from behing initialized."
      },
      "getRecipients()": {
        "returns": {
          "recipients": "array of royalty recipients through the splitter and their splits of royalty."
        }
      },
      "initialize(address,address)": {
        "details": "can only be run once.",
        "params": {
          "_royaltyManager": "the address of the royalty manager contract",
          "recipientAddress": "the wallet of the creator when the contract is deployed"
        }
      },
      "isTrustedForwarder(address)": {
        "params": {
          "forwarder": "trusted forwarder address to check"
        },
        "returns": {
          "_0": "true if the address is the same as the trusted forwarder"
        }
      },
      "owner()": {
        "details": "Returns the address of the current owner."
      },
      "renounceOwnership()": {
        "details": "Leaves the contract without owner. It will not be possible to call `onlyOwner` functions. Can only be called by the current owner. NOTE: Renouncing ownership will leave the contract without an owner, thereby disabling any functionality that is only available to the owner."
      },
      "setRecipients((address,uint16)[])": {
        "details": "only the owner can call this.",
        "params": {
          "recipients": "the array of recipients which should only have one recipient."
        }
      },
      "splitERC20Tokens(address)": {
        "details": "can only be called by one of the recipients",
        "params": {
          "erc20Contract": "the address of the tokens to be split."
        }
      },
      "splitETH()": {
        "details": "normally ETH should be split automatically by receive function."
      },
      "supportsInterface(bytes4)": {
        "params": {
          "interfaceId": "the interface identifier, as specified in ERC-165."
        },
        "returns": {
          "isSupported": "`true` if the contract implements `id`."
        }
      },
      "transferOwnership(address)": {
        "details": "Transfers ownership of the contract to a new account (`newOwner`). Can only be called by the current owner."
      }
    },
    "title": "RoyaltySplitter",
    "version": 1
  },
  "userdoc": {
    "kind": "user",
    "methods": {
      "getRecipients()": {
        "notice": "to get recipients of royalty through this splitter and their splits of royalty."
      },
      "initialize(address,address)": {
        "notice": "initialize the contract"
      },
      "isTrustedForwarder(address)": {
        "notice": "return true if the forwarder is the trusted forwarder"
      },
      "setRecipients((address,uint16)[])": {
        "notice": "sets recipient for the splitter"
      },
      "splitERC20Tokens(address)": {
        "notice": "split ERC20 Tokens owned by this contract."
      },
      "splitETH()": {
        "notice": "Splits and forwards ETH to the royalty receivers"
      },
      "supportsInterface(bytes4)": {
        "notice": "Query if a contract implements interface `id`."
      }
    },
    "notice": "RoyaltySplitter contract is deployed by the RoyaltyManager contract for a creator to get his royalty's share.",
    "version": 1
  },
  "storageLayout": {
    "storage": [
      {
        "astId": 686,
        "contract": "@sandbox-smart-contracts/dependency-royalty-management/contracts/RoyaltySplitter.sol:RoyaltySplitter",
        "label": "_initialized",
        "offset": 0,
        "slot": "0",
        "type": "t_uint8"
      },
      {
        "astId": 689,
        "contract": "@sandbox-smart-contracts/dependency-royalty-management/contracts/RoyaltySplitter.sol:RoyaltySplitter",
        "label": "_initializing",
        "offset": 1,
        "slot": "0",
        "type": "t_bool"
      },
      {
        "astId": 1219,
        "contract": "@sandbox-smart-contracts/dependency-royalty-management/contracts/RoyaltySplitter.sol:RoyaltySplitter",
        "label": "__gap",
        "offset": 0,
        "slot": "1",
        "type": "t_array(t_uint256)50_storage"
      },
      {
        "astId": 558,
        "contract": "@sandbox-smart-contracts/dependency-royalty-management/contracts/RoyaltySplitter.sol:RoyaltySplitter",
        "label": "_owner",
        "offset": 0,
        "slot": "51",
        "type": "t_address"
      },
      {
        "astId": 678,
        "contract": "@sandbox-smart-contracts/dependency-royalty-management/contracts/RoyaltySplitter.sol:RoyaltySplitter",
        "label": "__gap",
        "offset": 0,
        "slot": "52",
        "type": "t_array(t_uint256)49_storage"
      },
      {
        "astId": 1492,
        "contract": "@sandbox-smart-contracts/dependency-royalty-management/contracts/RoyaltySplitter.sol:RoyaltySplitter",
        "label": "__gap",
        "offset": 0,
        "slot": "101",
        "type": "t_array(t_uint256)50_storage"
      },
      {
        "astId": 4293,
        "contract": "@sandbox-smart-contracts/dependency-royalty-management/contracts/RoyaltySplitter.sol:RoyaltySplitter",
        "label": "recipient",
        "offset": 0,
        "slot": "151",
        "type": "t_address_payable"
      },
      {
        "astId": 4296,
        "contract": "@sandbox-smart-contracts/dependency-royalty-management/contracts/RoyaltySplitter.sol:RoyaltySplitter",
        "label": "royaltyManager",
        "offset": 0,
        "slot": "152",
        "type": "t_contract(IRoyaltyManager)5008"
      }
    ],
    "types": {
      "t_address": {
        "encoding": "inplace",
        "label": "address",
        "numberOfBytes": "20"
      },
      "t_address_payable": {
        "encoding": "inplace",
        "label": "address payable",
        "numberOfBytes": "20"
      },
      "t_array(t_uint256)49_storage": {
        "base": "t_uint256",
        "encoding": "inplace",
        "label": "uint256[49]",
        "numberOfBytes": "1568"
      },
      "t_array(t_uint256)50_storage": {
        "base": "t_uint256",
        "encoding": "inplace",
        "label": "uint256[50]",
        "numberOfBytes": "1600"
      },
      "t_bool": {
        "encoding": "inplace",
        "label": "bool",
        "numberOfBytes": "1"
      },
      "t_contract(IRoyaltyManager)5008": {
        "encoding": "inplace",
        "label": "contract IRoyaltyManager",
        "numberOfBytes": "20"
      },
      "t_uint256": {
        "encoding": "inplace",
        "label": "uint256",
        "numberOfBytes": "32"
      },
      "t_uint8": {
        "encoding": "inplace",
        "label": "uint8",
        "numberOfBytes": "1"
      }
    }
  }
}