{
  "address": "0x4022EfD364AB869E06284012be5d60EB71490c4E",
  "abi": [
    {
      "anonymous": false,
      "inputs": [
        {
          "indexed": true,
          "internalType": "address",
          "name": "erc20Contract",
          "type": "address"
        },
        {
          "indexed": true,
          "internalType": "address",
          "name": "account",
          "type": "address"
        },
        {
          "indexed": false,
          "internalType": "uint256",
          "name": "amount",
          "type": "uint256"
        }
      ],
      "name": "ERC20Transferred",
      "type": "event"
    },
    {
      "anonymous": false,
      "inputs": [
        {
          "indexed": true,
          "internalType": "address",
          "name": "account",
          "type": "address"
        },
        {
          "indexed": false,
          "internalType": "uint256",
          "name": "amount",
          "type": "uint256"
        }
      ],
      "name": "ETHTransferred",
      "type": "event"
    },
    {
      "anonymous": false,
      "inputs": [
        {
          "indexed": false,
          "internalType": "uint8",
          "name": "version",
          "type": "uint8"
        }
      ],
      "name": "Initialized",
      "type": "event"
    },
    {
      "anonymous": false,
      "inputs": [
        {
          "indexed": true,
          "internalType": "address",
          "name": "previousOwner",
          "type": "address"
        },
        {
          "indexed": true,
          "internalType": "address",
          "name": "newOwner",
          "type": "address"
        }
      ],
      "name": "OwnershipTransferred",
      "type": "event"
    },
    {
      "inputs": [],
      "name": "_recipient",
      "outputs": [
        {
          "internalType": "address payable",
          "name": "",
          "type": "address"
        }
      ],
      "stateMutability": "view",
      "type": "function"
    },
    {
      "inputs": [],
      "name": "_royaltyManager",
      "outputs": [
        {
          "internalType": "contract IRoyaltyManager",
          "name": "",
          "type": "address"
        }
      ],
      "stateMutability": "view",
      "type": "function"
    },
    {
      "inputs": [],
      "name": "getRecipients",
      "outputs": [
        {
          "components": [
            {
              "internalType": "address payable",
              "name": "recipient",
              "type": "address"
            },
            {
              "internalType": "uint16",
              "name": "bps",
              "type": "uint16"
            }
          ],
          "internalType": "struct Recipient[]",
          "name": "",
          "type": "tuple[]"
        }
      ],
      "stateMutability": "view",
      "type": "function"
    },
    {
      "inputs": [
        {
          "internalType": "address payable",
          "name": "recipient",
          "type": "address"
        },
        {
          "internalType": "address",
          "name": "royaltyManager",
          "type": "address"
        }
      ],
      "name": "initialize",
      "outputs": [],
      "stateMutability": "nonpayable",
      "type": "function"
    },
    {
      "inputs": [
        {
          "internalType": "address",
          "name": "forwarder",
          "type": "address"
        }
      ],
      "name": "isTrustedForwarder",
      "outputs": [
        {
          "internalType": "bool",
          "name": "",
          "type": "bool"
        }
      ],
      "stateMutability": "view",
      "type": "function"
    },
    {
      "inputs": [],
      "name": "owner",
      "outputs": [
        {
          "internalType": "address",
          "name": "",
          "type": "address"
        }
      ],
      "stateMutability": "view",
      "type": "function"
    },
    {
      "inputs": [
        {
          "internalType": "address payable",
          "name": "target",
          "type": "address"
        },
        {
          "internalType": "bytes",
          "name": "callData",
          "type": "bytes"
        }
      ],
      "name": "proxyCall",
      "outputs": [],
      "stateMutability": "nonpayable",
      "type": "function"
    },
    {
      "inputs": [],
      "name": "renounceOwnership",
      "outputs": [],
      "stateMutability": "nonpayable",
      "type": "function"
    },
    {
      "inputs": [
        {
          "components": [
            {
              "internalType": "address payable",
              "name": "recipient",
              "type": "address"
            },
            {
              "internalType": "uint16",
              "name": "bps",
              "type": "uint16"
            }
          ],
          "internalType": "struct Recipient[]",
          "name": "recipients",
          "type": "tuple[]"
        }
      ],
      "name": "setRecipients",
      "outputs": [],
      "stateMutability": "nonpayable",
      "type": "function"
    },
    {
      "inputs": [
        {
          "internalType": "contract IERC20",
          "name": "erc20Contract",
          "type": "address"
        }
      ],
      "name": "splitERC20Tokens",
      "outputs": [],
      "stateMutability": "nonpayable",
      "type": "function"
    },
    {
      "inputs": [],
      "name": "splitETH",
      "outputs": [],
      "stateMutability": "payable",
      "type": "function"
    },
    {
      "inputs": [
        {
          "internalType": "bytes4",
          "name": "interfaceId",
          "type": "bytes4"
        }
      ],
      "name": "supportsInterface",
      "outputs": [
        {
          "internalType": "bool",
          "name": "",
          "type": "bool"
        }
      ],
      "stateMutability": "view",
      "type": "function"
    },
    {
      "inputs": [
        {
          "internalType": "address",
          "name": "newOwner",
          "type": "address"
        }
      ],
      "name": "transferOwnership",
      "outputs": [],
      "stateMutability": "nonpayable",
      "type": "function"
    },
    {
      "stateMutability": "payable",
      "type": "receive"
    }
  ],
  "transactionHash": "0xdf92baf657e9c40315d74f4b722158fe22fff1f15624f3b65eb9179deac0a7a7",
  "args": [],
  "numDeployments": 1,
  "solcInputHash": "e64fd56b3bfae7f817a31de5cae19a1b",
  "bytecode": "0x608060405234801561001057600080fd5b50611ee4806100206000396000f3fe6080604052600436106100d65760003560e01c8063715018a61161007f578063d1aa25d011610059578063d1aa25d01461022b578063d4cca5f114610233578063d78d610b14610253578063f2fde38b1461027557600080fd5b8063715018a6146101d85780638da5cb5b146101ed578063c1426d0e1461020b57600080fd5b8063485cc955116100b0578063485cc95514610160578063572b6c0514610180578063663cb1bb146101a057600080fd5b806301ffc9a7146100eb57806320dc8ff7146101205780632a31f6b41461014057600080fd5b366100e6576100e434610295565b005b600080fd5b3480156100f757600080fd5b5061010b610106366004611af4565b6105bb565b60405190151581526020015b60405180910390f35b34801561012c57600080fd5b506100e461013b366004611b4b565b610654565b34801561014c57600080fd5b506100e461015b366004611b68565b6106ae565b34801561016c57600080fd5b506100e461017b366004611bed565b610999565b34801561018c57600080fd5b5061010b61019b366004611b4b565b610b16565b3480156101ac57600080fd5b506098546101c0906001600160a01b031681565b6040516001600160a01b039091168152602001610117565b3480156101e457600080fd5b506100e4610b21565b3480156101f957600080fd5b506033546001600160a01b03166101c0565b34801561021757600080fd5b506100e4610226366004611c26565b610b35565b6100e4610b4b565b34801561023f57600080fd5b506097546101c0906001600160a01b031681565b34801561025f57600080fd5b50610268610b54565b6040516101179190611c9b565b34801561028157600080fd5b506100e4610290366004611b4b565b610d1b565b80156105b85760985460408051638b49fde760e01b815281516000936001600160a01b031692638b49fde792600480820193918290030181865afa1580156102e1573d6000803e3d6000fd5b505050506040513d601f19601f820116820180604052508101906103059190611d09565b90506000609860009054906101000a90046001600160a01b03166001600160a01b031663706ec2fe6040518163ffffffff1660e01b8152600401602060405180830381865afa15801561035c573d6000803e3d6000fd5b505050506040513d601f19601f820116820180604052508101906103809190611d74565b6040805160028082526060820190925291925060009190816020015b604080518082019091526000808252602082015281526020019060019003908161039c57505060975481519192506001600160a01b03169082906000906103e5576103e5611d8f565b6020026020010151600001906001600160a01b031690816001600160a01b031681525050818160008151811061041d5761041d611d8f565b60200260200101516020019061ffff16908161ffff1681525050828160018151811061044b5761044b611d8f565b60200260200101819052506000806000600184510390505b801561051157600084828151811061047d5761047d611d8f565b60200260200101519050612710816020015161ffff168902816104a2576104a2611da5565b82519190049485019493506104c0906001600160a01b031684610da8565b80600001516001600160a01b03167f1445764fe3fdfc2a9812ff42e9b65c2e7896d5162851f78f7d4a5578f7346ff1846040516104ff91815260200190565b60405180910390a25060001901610463565b508186039050610551818460008151811061052e5761052e611d8f565b6020026020010151600001516001600160a01b0316610da890919063ffffffff16565b8260008151811061056457610564611d8f565b6020026020010151600001516001600160a01b03167f1445764fe3fdfc2a9812ff42e9b65c2e7896d5162851f78f7d4a5578f7346ff1826040516105aa91815260200190565b60405180910390a250505050505b50565b60007fffffffff0000000000000000000000000000000000000000000000000000000082167f16cf0c0500000000000000000000000000000000000000000000000000000000148061064e57507f01ffc9a7000000000000000000000000000000000000000000000000000000007fffffffff000000000000000000000000000000000000000000000000000000008316145b92915050565b61065d81610ec1565b6105b85760405162461bcd60e51b815260206004820152601960248201527f53706c69743a2045524332302073706c6974206661696c65640000000000000060448201526064015b60405180910390fd5b60985460408051638b49fde760e01b815281516000936001600160a01b031692638b49fde792600480820193918290030181865afa1580156106f4573d6000803e3d6000fd5b505050506040513d601f19601f820116820180604052508101906107189190611d09565b9050610722611461565b6001600160a01b031681600001516001600160a01b0316148061075a5750610748611461565b6097546001600160a01b039081169116145b6107cc5760405162461bcd60e51b815260206004820152603260248201527f53706c69743a2043616e206f6e6c792062652063616c6c6564206279206f6e6560448201527f206f662074686520726563697069656e7473000000000000000000000000000060648201526084016106a5565b61081663095ea7b360e01b84848080601f01602080910402602001604051908101604052809392919081815260200183838082843760009201919091525092939250506114709050565b15801561086a5750610868633950935160e01b84848080601f01602080910402602001604051908101604052809392919081815260200183838082843760009201919091525092939250506114709050565b155b6108dc5760405162461bcd60e51b815260206004820152602160248201527f53706c69743a20455243323020746f6b656e73206d7573742062652073706c6960448201527f740000000000000000000000000000000000000000000000000000000000000060648201526084016106a5565b6040517f20dc8ff70000000000000000000000000000000000000000000000000000000081526001600160a01b038516600482015230906320dc8ff790602401600060405180830381600087803b15801561093657600080fd5b505af1925050508015610947575060015b5061099283838080601f016020809104026020016040519081016040528093929190818152602001838380828437600092019190915250506001600160a01b0388169291505061152c565b5050505050565b600054610100900460ff16158080156109b95750600054600160ff909116105b806109d35750303b1580156109d3575060005460ff166001145b610a455760405162461bcd60e51b815260206004820152602e60248201527f496e697469616c697a61626c653a20636f6e747261637420697320616c72656160448201527f647920696e697469616c697a656400000000000000000000000000000000000060648201526084016106a5565b600080547fffffffffffffffffffffffffffffffffffffffffffffffffffffffffffffff001660011790558015610a86576000805461ff0019166101001790555b609880546001600160a01b0380851673ffffffffffffffffffffffffffffffffffffffff19928316179092556097805492861692909116919091179055610acb611577565b8015610b11576000805461ff0019169055604051600181527f7f26b83ff96e1f2b6a682f133852f6798a09c465da95921460cefb38474024989060200160405180910390a15b505050565b600061064e826115fc565b610b2961169e565b610b336000611717565b565b610b3d61169e565b610b478282611776565b5050565b610b3347610295565b60985460408051638b49fde760e01b815281516060936000936001600160a01b0390911692638b49fde792600480830193928290030181865afa158015610b9f573d6000803e3d6000fd5b505050506040513d601f19601f82011682018060405250810190610bc39190611d09565b90506000609860009054906101000a90046001600160a01b03166001600160a01b031663706ec2fe6040518163ffffffff1660e01b8152600401602060405180830381865afa158015610c1a573d6000803e3d6000fd5b505050506040513d601f19601f82011682018060405250810190610c3e9190611d74565b6040805160028082526060820190925291925060009190816020015b6040805180820190915260008082526020820152815260200190600190039081610c5a57505060975481519192506001600160a01b0316908290600090610ca357610ca3611d8f565b6020026020010151600001906001600160a01b031690816001600160a01b0316815250508181600081518110610cdb57610cdb611d8f565b60200260200101516020019061ffff16908161ffff16815250508281600181518110610d0957610d09611d8f565b60209081029190910101529392505050565b610d2361169e565b6001600160a01b038116610d9f5760405162461bcd60e51b815260206004820152602660248201527f4f776e61626c653a206e6577206f776e657220697320746865207a65726f206160448201527f646472657373000000000000000000000000000000000000000000000000000060648201526084016106a5565b6105b881611717565b80471015610df85760405162461bcd60e51b815260206004820152601d60248201527f416464726573733a20696e73756666696369656e742062616c616e636500000060448201526064016106a5565b6000826001600160a01b03168260405160006040518083038185875af1925050503d8060008114610e45576040519150601f19603f3d011682016040523d82523d6000602084013e610e4a565b606091505b5050905080610b115760405162461bcd60e51b815260206004820152603a60248201527f416464726573733a20756e61626c6520746f2073656e642076616c75652c207260448201527f6563697069656e74206d6179206861766520726576657274656400000000000060648201526084016106a5565b6040517f70a082310000000000000000000000000000000000000000000000000000000081523060048201526000906001600160a01b038316906370a0823190602401602060405180830381865afa925050508015610f3d575060408051601f3d908101601f19168201909252610f3a91810190611dbb565b60015b610f4957506000919050565b80600003610f5a5750600092915050565b60985460408051638b49fde760e01b815281516000936001600160a01b031692638b49fde792600480820193918290030181865afa158015610fa0573d6000803e3d6000fd5b505050506040513d601f19601f82011682018060405250810190610fc49190611d09565b90506000609860009054906101000a90046001600160a01b03166001600160a01b031663706ec2fe6040518163ffffffff1660e01b8152600401602060405180830381865afa15801561101b573d6000803e3d6000fd5b505050506040513d601f19601f8201168201806040525081019061103f9190611d74565b9050611049611461565b6001600160a01b031682600001516001600160a01b03161480611081575061106f611461565b6097546001600160a01b039081169116145b6110f35760405162461bcd60e51b815260206004820152603260248201527f53706c69743a2043616e206f6e6c792062652063616c6c6564206279206f6e6560448201527f206f662074686520726563697069656e7473000000000000000000000000000060648201526084016106a5565b60408051600280825260608201909252600091816020015b604080518082019091526000808252602082015281526020019060019003908161110b57505060975481519192506001600160a01b031690829060009061115457611154611d8f565b6020026020010151600001906001600160a01b031690816001600160a01b031681525050818160008151811061118c5761118c611d8f565b60200260200101516020019061ffff16908161ffff168152505082816001815181106111ba576111ba611d8f565b60200260200101819052506000806000600184510390505b801561131b5760008482815181106111ec576111ec611d8f565b602002602001015190506000611213826020015161ffff168a61183d90919063ffffffff16565b83516040517fa9059cbb0000000000000000000000000000000000000000000000000000000081526001600160a01b03918216600482015261271090920460248301819052975095870195919250908c169063a9059cbb906044016020604051808303816000875af19250505080156112a9575060408051601f3d908101601f191682019092526112a691810190611dd4565b60015b6112be575060009a9950505050505050505050565b5081600001516001600160a01b03168b6001600160a01b03167fe8de91d538b06154a2c48315768c5046f47e127d7fd3f726fd85cc723f29b0528760405161130891815260200190565b60405180910390a35050600019016111d2565b508086039150876001600160a01b031663a9059cbb8460008151811061134357611343611d8f565b6020908102919091010151516040517fffffffff0000000000000000000000000000000000000000000000000000000060e084901b1681526001600160a01b039091166004820152602481018590526044016020604051808303816000875af19250505080156113d0575060408051601f3d908101601f191682019092526113cd91810190611dd4565b60015b6113e257506000979650505050505050565b50826000815181106113f6576113f6611d8f565b6020026020010151600001516001600160a01b0316886001600160a01b03167fe8de91d538b06154a2c48315768c5046f47e127d7fd3f726fd85cc723f29b0528460405161144691815260200190565b60405180910390a3506001979650505050505050565b919050565b600061146b611888565b905090565b60006004835110156114845750600061064e565b60005b6004811015611522578281600481106114a2576114a2611d8f565b1a60f81b7effffffffffffffffffffffffffffffffffffffffffffffffffffffffffffff19168482815181106114da576114da611d8f565b01602001517fff00000000000000000000000000000000000000000000000000000000000000161461151057600091505061064e565b8061151a81611df6565b915050611487565b5060019392505050565b6060611570838360006040518060400160405280601e81526020017f416464726573733a206c6f772d6c6576656c2063616c6c206661696c656400008152506118d5565b9392505050565b600054610100900460ff166115f45760405162461bcd60e51b815260206004820152602b60248201527f496e697469616c697a61626c653a20636f6e7472616374206973206e6f74206960448201527f6e697469616c697a696e6700000000000000000000000000000000000000000060648201526084016106a5565b610b336119c9565b609854604080517fce1b815f00000000000000000000000000000000000000000000000000000000815290516000926001600160a01b03169163ce1b815f9160048083019260209291908290030181865afa15801561165f573d6000803e3d6000fd5b505050506040513d601f19601f820116820180604052508101906116839190611e1e565b6001600160a01b0316826001600160a01b0316149050919050565b6116a6611461565b6001600160a01b03166116c16033546001600160a01b031690565b6001600160a01b031614610b335760405162461bcd60e51b815260206004820181905260248201527f4f776e61626c653a2063616c6c6572206973206e6f7420746865206f776e657260448201526064016106a5565b603380546001600160a01b0383811673ffffffffffffffffffffffffffffffffffffffff19831681179093556040519116919082907f8be0079c531659141344cd1fd0a4f28419497f9722a3daafe3b4186f6b6457e090600090a35050565b6097805473ffffffffffffffffffffffffffffffffffffffff19169055600181146117e35760405162461bcd60e51b815260206004820152601860248201527f496e76616c6964207265636970656e7473206c656e677468000000000000000060448201526064016106a5565b818160008181106117f6576117f6611d8f565b61180c9260206040909202019081019150611b4b565b6097805473ffffffffffffffffffffffffffffffffffffffff19166001600160a01b03929092169190911790555050565b600080836000036118545750600190506000611881565b8383028385828161186757611867611da5565b041461187a576000809250925050611881565b6001925090505b9250929050565b6000611893336115fc565b80156118a0575060143610155b156118d057507fffffffffffffffffffffffffffffffffffffffffffffffffffffffffffffffec36013560601c90565b503390565b60608247101561194d5760405162461bcd60e51b815260206004820152602660248201527f416464726573733a20696e73756666696369656e742062616c616e636520666f60448201527f722063616c6c000000000000000000000000000000000000000000000000000060648201526084016106a5565b600080866001600160a01b031685876040516119699190611e5f565b60006040518083038185875af1925050503d80600081146119a6576040519150601f19603f3d011682016040523d82523d6000602084013e6119ab565b606091505b50915091506119bc87838387611a56565b925050505b949350505050565b600054610100900460ff16611a465760405162461bcd60e51b815260206004820152602b60248201527f496e697469616c697a61626c653a20636f6e7472616374206973206e6f74206960448201527f6e697469616c697a696e6700000000000000000000000000000000000000000060648201526084016106a5565b610b33611a51611461565b611717565b60608315611ac5578251600003611abe576001600160a01b0385163b611abe5760405162461bcd60e51b815260206004820152601d60248201527f416464726573733a2063616c6c20746f206e6f6e2d636f6e747261637400000060448201526064016106a5565b50816119c1565b6119c18383815115611ada5781518083602001fd5b8060405162461bcd60e51b81526004016106a59190611e7b565b600060208284031215611b0657600080fd5b81357fffffffff000000000000000000000000000000000000000000000000000000008116811461157057600080fd5b6001600160a01b03811681146105b857600080fd5b600060208284031215611b5d57600080fd5b813561157081611b36565b600080600060408486031215611b7d57600080fd5b8335611b8881611b36565b9250602084013567ffffffffffffffff80821115611ba557600080fd5b818601915086601f830112611bb957600080fd5b813581811115611bc857600080fd5b876020828501011115611bda57600080fd5b6020830194508093505050509250925092565b60008060408385031215611c0057600080fd5b8235611c0b81611b36565b91506020830135611c1b81611b36565b809150509250929050565b60008060208385031215611c3957600080fd5b823567ffffffffffffffff80821115611c5157600080fd5b818501915085601f830112611c6557600080fd5b813581811115611c7457600080fd5b8660208260061b8501011115611c8957600080fd5b60209290920196919550909350505050565b602080825282518282018190526000919060409081850190868401855b82811015611cea57815180516001600160a01b0316855286015161ffff16868501529284019290850190600101611cb8565b5091979650505050505050565b805161ffff8116811461145c57600080fd5b600060408284031215611d1b57600080fd5b6040516040810181811067ffffffffffffffff82111715611d4c57634e487b7160e01b600052604160045260246000fd5b6040528251611d5a81611b36565b8152611d6860208401611cf7565b60208201529392505050565b600060208284031215611d8657600080fd5b61157082611cf7565b634e487b7160e01b600052603260045260246000fd5b634e487b7160e01b600052601260045260246000fd5b600060208284031215611dcd57600080fd5b5051919050565b600060208284031215611de657600080fd5b8151801515811461157057600080fd5b60006000198203611e1757634e487b7160e01b600052601160045260246000fd5b5060010190565b600060208284031215611e3057600080fd5b815161157081611b36565b60005b83811015611e56578181015183820152602001611e3e565b50506000910152565b60008251611e71818460208701611e3b565b9190910192915050565b6020815260008251806020840152611e9a816040850160208701611e3b565b601f01601f1916919091016040019291505056fea2646970667358221220e0a6d5b5165e5a2ce9111658444a4f8e39022faa7c3f91cbe6ae0a9f3ef50e1164736f6c63430008120033",
  "devdoc": {
    "author": "The Sandbox",
    "events": {
      "Initialized(uint8)": {
        "details": "Triggered when the contract has been initialized or reinitialized."
      }
    },
    "kind": "dev",
    "methods": {
      "getRecipients()": {
        "returns": {
          "_0": "recipients of royalty through this splitter and their splits of royalty."
        }
      },
      "initialize(address,address)": {
        "details": "can only be run once.",
        "params": {
          "recipient": "the wallet of the creator when the contract is deployed",
          "royaltyManager": "the address of the royalty manager contract"
        }
      },
      "isTrustedForwarder(address)": {
        "params": {
          "forwarder": "trusted forwarder address to check"
        },
        "returns": {
          "_0": "true if the address is the same as the trusted forwarder"
        }
      },
      "owner()": {
        "details": "Returns the address of the current owner."
      },
      "proxyCall(address,bytes)": {
        "details": "first attempts to split ERC20 tokens.",
        "params": {
          "callData": "for the call.",
          "target": "target of the call"
        }
      },
      "renounceOwnership()": {
        "details": "Leaves the contract without owner. It will not be possible to call `onlyOwner` functions. Can only be called by the current owner. NOTE: Renouncing ownership will leave the contract without an owner, thereby disabling any functionality that is only available to the owner."
      },
      "setRecipients((address,uint16)[])": {
        "details": "only the owner can call this.",
        "params": {
          "recipients": "the array of recipients which should only have one recipient."
        }
      },
      "splitERC20Tokens(address)": {
        "details": "can only be called by one of the recipients",
        "params": {
          "erc20Contract": "the address of the tokens to be split."
        }
      },
      "splitETH()": {
        "details": "normally ETH should be split automatically by receive function."
      },
      "transferOwnership(address)": {
        "details": "Transfers ownership of the contract to a new account (`newOwner`). Can only be called by the current owner."
      }
    },
    "title": "RoyaltySplitter",
    "version": 1
  },
  "userdoc": {
    "kind": "user",
    "methods": {
      "getRecipients()": {
        "notice": "to get recipients of royalty through this splitter and their splits of royalty."
      },
      "initialize(address,address)": {
        "notice": "initialize the contract"
      },
      "isTrustedForwarder(address)": {
        "notice": "return true if the forwarder is the trusted forwarder"
      },
      "proxyCall(address,bytes)": {
        "notice": "made for unexpected scenarios when assets are sent to this contact such that they could be recovered."
      },
      "setRecipients((address,uint16)[])": {
        "notice": "sets recipient for the splitter"
      },
      "splitERC20Tokens(address)": {
        "notice": "split ERC20 Tokens owned by this contract."
      },
      "splitETH()": {
        "notice": "Splits and forwards ETH to the royalty receivers"
      }
    },
    "notice": "RoyaltySplitter contract is deployed by the RoyaltyManager contract for a creator to get his royalty's share.",
    "version": 1
  },
  "storageLayout": {
    "storage": [
      {
        "astId": 746,
        "contract": "@sandbox-smart-contracts/dependency-royalty-management/contracts/RoyaltySplitter.sol:RoyaltySplitter",
        "label": "_initialized",
        "offset": 0,
        "slot": "0",
        "type": "t_uint8"
      },
      {
        "astId": 749,
        "contract": "@sandbox-smart-contracts/dependency-royalty-management/contracts/RoyaltySplitter.sol:RoyaltySplitter",
        "label": "_initializing",
        "offset": 1,
        "slot": "0",
        "type": "t_bool"
      },
      {
        "astId": 3300,
        "contract": "@sandbox-smart-contracts/dependency-royalty-management/contracts/RoyaltySplitter.sol:RoyaltySplitter",
        "label": "__gap",
        "offset": 0,
        "slot": "1",
        "type": "t_array(t_uint256)50_storage"
      },
      {
        "astId": 574,
        "contract": "@sandbox-smart-contracts/dependency-royalty-management/contracts/RoyaltySplitter.sol:RoyaltySplitter",
        "label": "_owner",
        "offset": 0,
        "slot": "51",
        "type": "t_address"
      },
      {
        "astId": 694,
        "contract": "@sandbox-smart-contracts/dependency-royalty-management/contracts/RoyaltySplitter.sol:RoyaltySplitter",
        "label": "__gap",
        "offset": 0,
        "slot": "52",
        "type": "t_array(t_uint256)49_storage"
      },
      {
        "astId": 4223,
        "contract": "@sandbox-smart-contracts/dependency-royalty-management/contracts/RoyaltySplitter.sol:RoyaltySplitter",
        "label": "__gap",
        "offset": 0,
        "slot": "101",
        "type": "t_array(t_uint256)50_storage"
      },
      {
        "astId": 14233,
        "contract": "@sandbox-smart-contracts/dependency-royalty-management/contracts/RoyaltySplitter.sol:RoyaltySplitter",
        "label": "_recipient",
        "offset": 0,
        "slot": "151",
        "type": "t_address_payable"
      },
      {
        "astId": 14236,
        "contract": "@sandbox-smart-contracts/dependency-royalty-management/contracts/RoyaltySplitter.sol:RoyaltySplitter",
        "label": "_royaltyManager",
        "offset": 0,
        "slot": "152",
        "type": "t_contract(IRoyaltyManager)15073"
      }
    ],
    "types": {
      "t_address": {
        "encoding": "inplace",
        "label": "address",
        "numberOfBytes": "20"
      },
      "t_address_payable": {
        "encoding": "inplace",
        "label": "address payable",
        "numberOfBytes": "20"
      },
      "t_array(t_uint256)49_storage": {
        "base": "t_uint256",
        "encoding": "inplace",
        "label": "uint256[49]",
        "numberOfBytes": "1568"
      },
      "t_array(t_uint256)50_storage": {
        "base": "t_uint256",
        "encoding": "inplace",
        "label": "uint256[50]",
        "numberOfBytes": "1600"
      },
      "t_bool": {
        "encoding": "inplace",
        "label": "bool",
        "numberOfBytes": "1"
      },
      "t_contract(IRoyaltyManager)15073": {
        "encoding": "inplace",
        "label": "contract IRoyaltyManager",
        "numberOfBytes": "20"
      },
      "t_uint256": {
        "encoding": "inplace",
        "label": "uint256",
        "numberOfBytes": "32"
      },
      "t_uint8": {
        "encoding": "inplace",
        "label": "uint8",
        "numberOfBytes": "1"
      }
    }
  }
}