{
  "abi": [
    {
      "inputs": [],
      "stateMutability": "nonpayable",
      "type": "constructor"
    },
    {
      "inputs": [],
      "name": "OnlyOwner",
      "type": "error"
    },
    {
      "inputs": [
        {
          "internalType": "address",
          "name": "operator",
          "type": "address"
        }
      ],
      "name": "OperatorNotAllowed",
      "type": "error"
    },
    {
      "anonymous": false,
      "inputs": [
        {
          "indexed": false,
          "internalType": "address",
          "name": "_address",
          "type": "address"
        }
      ],
      "name": "AllowedExecuteMintSet",
      "type": "event"
    },
    {
      "anonymous": false,
      "inputs": [
        {
          "indexed": true,
          "internalType": "address",
          "name": "owner",
          "type": "address"
        },
        {
          "indexed": true,
          "internalType": "address",
          "name": "approved",
          "type": "address"
        },
        {
          "indexed": true,
          "internalType": "uint256",
          "name": "tokenId",
          "type": "uint256"
        }
      ],
      "name": "Approval",
      "type": "event"
    },
    {
      "anonymous": false,
      "inputs": [
        {
          "indexed": true,
          "internalType": "address",
          "name": "owner",
          "type": "address"
        },
        {
          "indexed": true,
          "internalType": "address",
          "name": "operator",
          "type": "address"
        },
        {
          "indexed": false,
          "internalType": "bool",
          "name": "approved",
          "type": "bool"
        }
      ],
      "name": "ApprovalForAll",
      "type": "event"
    },
    {
      "anonymous": false,
      "inputs": [
        {
          "indexed": false,
          "internalType": "string",
          "name": "baseURI",
          "type": "string"
        }
      ],
      "name": "BaseURISet",
      "type": "event"
    },
    {
      "anonymous": false,
      "inputs": [
        {
          "indexed": false,
          "internalType": "string",
          "name": "baseURI",
          "type": "string"
        },
        {
          "indexed": false,
          "internalType": "string",
          "name": "_name",
          "type": "string"
        },
        {
          "indexed": false,
          "internalType": "string",
          "name": "_symbol",
          "type": "string"
        },
        {
          "indexed": false,
          "internalType": "address",
          "name": "_sandOwner",
          "type": "address"
        },
        {
          "indexed": false,
          "internalType": "address",
          "name": "_signAddress",
          "type": "address"
        },
        {
          "indexed": false,
          "internalType": "uint256",
          "name": "_maxSupply",
          "type": "uint256"
        },
        {
          "indexed": false,
          "internalType": "address",
          "name": "_registry",
          "type": "address"
        },
        {
          "indexed": false,
          "internalType": "address",
          "name": "_operatorFiltererSubscription",
          "type": "address"
        },
        {
          "indexed": false,
          "internalType": "bool",
          "name": "_operatorFiltererSubscriptionSubscribe",
          "type": "bool"
        }
      ],
      "name": "ContractInitialized",
      "type": "event"
    },
    {
      "anonymous": false,
      "inputs": [
        {
          "indexed": false,
          "internalType": "uint8",
          "name": "version",
          "type": "uint8"
        }
      ],
      "name": "Initialized",
      "type": "event"
    },
    {
      "anonymous": false,
      "inputs": [
        {
          "indexed": true,
          "internalType": "address",
          "name": "previousOwner",
          "type": "address"
        },
        {
          "indexed": true,
          "internalType": "address",
          "name": "newOwner",
          "type": "address"
        }
      ],
      "name": "OwnershipTransferred",
      "type": "event"
    },
    {
      "anonymous": false,
      "inputs": [
        {
          "indexed": false,
          "internalType": "uint256",
          "name": "_tokenId",
          "type": "uint256"
        },
        {
          "indexed": false,
          "internalType": "uint256",
          "name": "_personalizationMask",
          "type": "uint256"
        }
      ],
      "name": "Personalized",
      "type": "event"
    },
    {
      "anonymous": false,
      "inputs": [
        {
          "indexed": false,
          "internalType": "bool",
          "name": "_pause",
          "type": "bool"
        }
      ],
      "name": "SaleToggled",
      "type": "event"
    },
    {
      "anonymous": false,
      "inputs": [
        {
          "indexed": false,
          "internalType": "address",
          "name": "_owner",
          "type": "address"
        }
      ],
      "name": "SandOwnerSet",
      "type": "event"
    },
    {
      "anonymous": false,
      "inputs": [
        {
          "indexed": false,
          "internalType": "address",
          "name": "_signAddress",
          "type": "address"
        }
      ],
      "name": "SignAddressSet",
      "type": "event"
    },
    {
      "anonymous": false,
      "inputs": [
        {
          "indexed": true,
          "internalType": "address",
          "name": "from",
          "type": "address"
        },
        {
          "indexed": true,
          "internalType": "address",
          "name": "to",
          "type": "address"
        },
        {
          "indexed": true,
          "internalType": "uint256",
          "name": "tokenId",
          "type": "uint256"
        }
      ],
      "name": "Transfer",
      "type": "event"
    },
    {
      "anonymous": false,
      "inputs": [
        {
          "indexed": false,
          "internalType": "uint256",
          "name": "_waveMaxTokens",
          "type": "uint256"
        },
        {
          "indexed": false,
          "internalType": "uint256",
          "name": "_waveMaxTokensToBuy",
          "type": "uint256"
        },
        {
          "indexed": false,
          "internalType": "uint256",
          "name": "_waveSingleTokenPrice",
          "type": "uint256"
        }
      ],
      "name": "WaveSetup",
      "type": "event"
    },
    {
      "inputs": [],
      "name": "allowedToExecuteMint",
      "outputs": [
        {
          "internalType": "address",
          "name": "",
          "type": "address"
        }
      ],
      "stateMutability": "view",
      "type": "function"
    },
    {
      "inputs": [
        {
          "internalType": "address",
          "name": "operator",
          "type": "address"
        },
        {
          "internalType": "uint256",
          "name": "tokenId",
          "type": "uint256"
        }
      ],
      "name": "approve",
      "outputs": [],
      "stateMutability": "nonpayable",
      "type": "function"
    },
    {
      "inputs": [
        {
          "internalType": "address",
          "name": "owner",
          "type": "address"
        }
      ],
      "name": "balanceOf",
      "outputs": [
        {
          "internalType": "uint256",
          "name": "",
          "type": "uint256"
        }
      ],
      "stateMutability": "view",
      "type": "function"
    },
    {
      "inputs": [],
      "name": "baseTokenURI",
      "outputs": [
        {
          "internalType": "string",
          "name": "",
          "type": "string"
        }
      ],
      "stateMutability": "view",
      "type": "function"
    },
    {
      "inputs": [],
      "name": "chain",
      "outputs": [
        {
          "internalType": "uint256",
          "name": "",
          "type": "uint256"
        }
      ],
      "stateMutability": "view",
      "type": "function"
    },
    {
      "inputs": [
        {
          "internalType": "address",
          "name": "_wallet",
          "type": "address"
        },
        {
          "internalType": "uint256",
          "name": "_amount",
          "type": "uint256"
        }
      ],
      "name": "checkMintAllowed",
      "outputs": [
        {
          "internalType": "bool",
          "name": "",
          "type": "bool"
        }
      ],
      "stateMutability": "view",
      "type": "function"
    },
    {
      "inputs": [
        {
          "internalType": "uint256",
          "name": "tokenId",
          "type": "uint256"
        }
      ],
      "name": "getApproved",
      "outputs": [
        {
          "internalType": "address",
          "name": "",
          "type": "address"
        }
      ],
      "stateMutability": "view",
      "type": "function"
    },
    {
      "inputs": [],
      "name": "getTrustedForwarder",
      "outputs": [
        {
          "internalType": "address",
          "name": "trustedForwarder",
          "type": "address"
        }
      ],
      "stateMutability": "view",
      "type": "function"
    },
    {
      "inputs": [],
      "name": "indexWave",
      "outputs": [
        {
          "internalType": "uint256",
          "name": "",
          "type": "uint256"
        }
      ],
      "stateMutability": "view",
      "type": "function"
    },
    {
      "inputs": [
        {
          "internalType": "address",
          "name": "owner",
          "type": "address"
        },
        {
          "internalType": "address",
          "name": "operator",
          "type": "address"
        }
      ],
      "name": "isApprovedForAll",
      "outputs": [
        {
          "internalType": "bool",
          "name": "",
          "type": "bool"
        }
      ],
      "stateMutability": "view",
      "type": "function"
    },
    {
      "inputs": [
        {
          "internalType": "address",
          "name": "forwarder",
          "type": "address"
        }
      ],
      "name": "isTrustedForwarder",
      "outputs": [
        {
          "internalType": "bool",
          "name": "",
          "type": "bool"
        }
      ],
      "stateMutability": "view",
      "type": "function"
    },
    {
      "inputs": [],
      "name": "maxSupply",
      "outputs": [
        {
          "internalType": "uint256",
          "name": "",
          "type": "uint256"
        }
      ],
      "stateMutability": "view",
      "type": "function"
    },
    {
      "inputs": [
        {
          "internalType": "address",
          "name": "_wallet",
          "type": "address"
        },
        {
          "internalType": "uint256",
          "name": "_amount",
          "type": "uint256"
        },
        {
          "internalType": "uint256",
          "name": "_signatureId",
          "type": "uint256"
        },
        {
          "internalType": "bytes",
          "name": "_signature",
          "type": "bytes"
        }
      ],
      "name": "mint",
      "outputs": [],
      "stateMutability": "nonpayable",
      "type": "function"
    },
    {
      "inputs": [],
      "name": "name",
      "outputs": [
        {
          "internalType": "string",
          "name": "",
          "type": "string"
        }
      ],
      "stateMutability": "view",
      "type": "function"
    },
    {
      "inputs": [],
      "name": "operatorFilterRegistry",
      "outputs": [
        {
          "internalType": "contract IOperatorFilterRegistry",
          "name": "",
          "type": "address"
        }
      ],
      "stateMutability": "view",
      "type": "function"
    },
    {
      "inputs": [],
      "name": "owner",
      "outputs": [
        {
          "internalType": "address",
          "name": "",
          "type": "address"
        }
      ],
      "stateMutability": "view",
      "type": "function"
    },
    {
      "inputs": [
        {
          "internalType": "uint256",
          "name": "tokenId",
          "type": "uint256"
        }
      ],
      "name": "ownerOf",
      "outputs": [
        {
          "internalType": "address",
          "name": "",
          "type": "address"
        }
      ],
      "stateMutability": "view",
      "type": "function"
    },
    {
      "inputs": [],
      "name": "paused",
      "outputs": [
        {
          "internalType": "uint256",
          "name": "",
          "type": "uint256"
        }
      ],
      "stateMutability": "view",
      "type": "function"
    },
    {
      "inputs": [
        {
          "internalType": "uint256",
          "name": "_tokenId",
          "type": "uint256"
        }
      ],
      "name": "personalizationOf",
      "outputs": [
        {
          "internalType": "uint256",
          "name": "",
          "type": "uint256"
        }
      ],
      "stateMutability": "view",
      "type": "function"
    },
    {
      "inputs": [
        {
          "internalType": "uint256",
          "name": "",
          "type": "uint256"
        }
      ],
      "name": "personalizationTraits",
      "outputs": [
        {
          "internalType": "uint256",
          "name": "",
          "type": "uint256"
        }
      ],
      "stateMutability": "view",
      "type": "function"
    },
    {
      "inputs": [
        {
          "internalType": "uint256",
          "name": "_signatureId",
          "type": "uint256"
        },
        {
          "internalType": "bytes",
          "name": "_signature",
          "type": "bytes"
        },
        {
          "internalType": "uint256",
          "name": "_tokenId",
          "type": "uint256"
        },
        {
          "internalType": "uint256",
          "name": "_personalizationMask",
          "type": "uint256"
        }
      ],
      "name": "personalize",
      "outputs": [],
      "stateMutability": "nonpayable",
      "type": "function"
    },
    {
      "inputs": [
        {
          "internalType": "uint256",
          "name": "_count",
          "type": "uint256"
        }
      ],
      "name": "price",
      "outputs": [
        {
          "internalType": "uint256",
          "name": "",
          "type": "uint256"
        }
      ],
      "stateMutability": "view",
      "type": "function"
    },
    {
      "inputs": [],
      "name": "renounceOwnership",
      "outputs": [],
      "stateMutability": "nonpayable",
      "type": "function"
    },
    {
      "inputs": [
        {
          "internalType": "address",
          "name": "from",
          "type": "address"
        },
        {
          "internalType": "address",
          "name": "to",
          "type": "address"
        },
        {
          "internalType": "uint256",
          "name": "tokenId",
          "type": "uint256"
        }
      ],
      "name": "safeTransferFrom",
      "outputs": [],
      "stateMutability": "nonpayable",
      "type": "function"
    },
    {
      "inputs": [
        {
          "internalType": "address",
          "name": "from",
          "type": "address"
        },
        {
          "internalType": "address",
          "name": "to",
          "type": "address"
        },
        {
          "internalType": "uint256",
          "name": "tokenId",
          "type": "uint256"
        },
        {
          "internalType": "bytes",
          "name": "data",
          "type": "bytes"
        }
      ],
      "name": "safeTransferFrom",
      "outputs": [],
      "stateMutability": "nonpayable",
      "type": "function"
    },
    {
      "inputs": [],
      "name": "sandOwner",
      "outputs": [
        {
          "internalType": "address",
          "name": "",
          "type": "address"
        }
      ],
      "stateMutability": "view",
      "type": "function"
    },
    {
      "inputs": [
        {
          "internalType": "address",
          "name": "_address",
          "type": "address"
        }
      ],
      "name": "setAllowedExecuteMint",
      "outputs": [],
      "stateMutability": "nonpayable",
      "type": "function"
    },
    {
      "inputs": [
        {
          "internalType": "address",
          "name": "operator",
          "type": "address"
        },
        {
          "internalType": "bool",
          "name": "approved",
          "type": "bool"
        }
      ],
      "name": "setApprovalForAll",
      "outputs": [],
      "stateMutability": "nonpayable",
      "type": "function"
    },
    {
      "inputs": [
        {
          "internalType": "string",
          "name": "baseURI",
          "type": "string"
        }
      ],
      "name": "setBaseURI",
      "outputs": [],
      "stateMutability": "nonpayable",
      "type": "function"
    },
    {
      "inputs": [
        {
          "internalType": "address",
          "name": "_owner",
          "type": "address"
        }
      ],
      "name": "setSandOwnerAddress",
      "outputs": [],
      "stateMutability": "nonpayable",
      "type": "function"
    },
    {
      "inputs": [
        {
          "internalType": "address",
          "name": "_signAddress",
          "type": "address"
        }
      ],
      "name": "setSignAddress",
      "outputs": [],
      "stateMutability": "nonpayable",
      "type": "function"
    },
    {
      "inputs": [
        {
          "internalType": "uint256",
          "name": "_waveMaxTokens",
          "type": "uint256"
        },
        {
          "internalType": "uint256",
          "name": "_waveMaxTokensToBuy",
          "type": "uint256"
        },
        {
          "internalType": "uint256",
          "name": "_waveSingleTokenPrice",
          "type": "uint256"
        }
      ],
      "name": "setupWave",
      "outputs": [],
      "stateMutability": "nonpayable",
      "type": "function"
    },
    {
      "inputs": [],
      "name": "signAddress",
      "outputs": [
        {
          "internalType": "address",
          "name": "",
          "type": "address"
        }
      ],
      "stateMutability": "view",
      "type": "function"
    },
    {
      "inputs": [
        {
          "internalType": "bytes4",
          "name": "interfaceId",
          "type": "bytes4"
        }
      ],
      "name": "supportsInterface",
      "outputs": [
        {
          "internalType": "bool",
          "name": "",
          "type": "bool"
        }
      ],
      "stateMutability": "view",
      "type": "function"
    },
    {
      "inputs": [],
      "name": "symbol",
      "outputs": [
        {
          "internalType": "string",
          "name": "",
          "type": "string"
        }
      ],
      "stateMutability": "view",
      "type": "function"
    },
    {
      "inputs": [],
      "name": "toggleSale",
      "outputs": [],
      "stateMutability": "nonpayable",
      "type": "function"
    },
    {
      "inputs": [
        {
          "internalType": "uint256",
          "name": "index",
          "type": "uint256"
        }
      ],
      "name": "tokenByIndex",
      "outputs": [
        {
          "internalType": "uint256",
          "name": "",
          "type": "uint256"
        }
      ],
      "stateMutability": "view",
      "type": "function"
    },
    {
      "inputs": [
        {
          "internalType": "address",
          "name": "owner",
          "type": "address"
        },
        {
          "internalType": "uint256",
          "name": "index",
          "type": "uint256"
        }
      ],
      "name": "tokenOfOwnerByIndex",
      "outputs": [
        {
          "internalType": "uint256",
          "name": "",
          "type": "uint256"
        }
      ],
      "stateMutability": "view",
      "type": "function"
    },
    {
      "inputs": [
        {
          "internalType": "uint256",
          "name": "tokenId",
          "type": "uint256"
        }
      ],
      "name": "tokenURI",
      "outputs": [
        {
          "internalType": "string",
          "name": "",
          "type": "string"
        }
      ],
      "stateMutability": "view",
      "type": "function"
    },
    {
      "inputs": [],
      "name": "totalSupply",
      "outputs": [
        {
          "internalType": "uint256",
          "name": "",
          "type": "uint256"
        }
      ],
      "stateMutability": "view",
      "type": "function"
    },
    {
      "inputs": [
        {
          "internalType": "address",
          "name": "from",
          "type": "address"
        },
        {
          "internalType": "address",
          "name": "to",
          "type": "address"
        },
        {
          "internalType": "uint256",
          "name": "tokenId",
          "type": "uint256"
        }
      ],
      "name": "transferFrom",
      "outputs": [],
      "stateMutability": "nonpayable",
      "type": "function"
    },
    {
      "inputs": [
        {
          "internalType": "address",
          "name": "newOwner",
          "type": "address"
        }
      ],
      "name": "transferOwnership",
      "outputs": [],
      "stateMutability": "nonpayable",
      "type": "function"
    },
    {
      "inputs": [
        {
          "internalType": "address",
          "name": "newRegistry",
          "type": "address"
        }
      ],
      "name": "updateOperatorFilterRegistryAddress",
      "outputs": [],
      "stateMutability": "nonpayable",
      "type": "function"
    },
    {
      "inputs": [],
      "name": "waveMaxTokens",
      "outputs": [
        {
          "internalType": "uint256",
          "name": "",
          "type": "uint256"
        }
      ],
      "stateMutability": "view",
      "type": "function"
    },
    {
      "inputs": [],
      "name": "waveMaxTokensToBuy",
      "outputs": [
        {
          "internalType": "uint256",
          "name": "",
          "type": "uint256"
        }
      ],
      "stateMutability": "view",
      "type": "function"
    },
    {
      "inputs": [
        {
          "internalType": "address",
          "name": "",
          "type": "address"
        },
        {
          "internalType": "uint256",
          "name": "",
          "type": "uint256"
        }
      ],
      "name": "waveOwnerToClaimedCounts",
      "outputs": [
        {
          "internalType": "uint256",
          "name": "",
          "type": "uint256"
        }
      ],
      "stateMutability": "view",
      "type": "function"
    },
    {
      "inputs": [],
      "name": "waveSingleTokenPrice",
      "outputs": [
        {
          "internalType": "uint256",
          "name": "",
          "type": "uint256"
        }
      ],
      "stateMutability": "view",
      "type": "function"
    },
    {
      "inputs": [],
      "name": "waveTotalMinted",
      "outputs": [
        {
          "internalType": "uint256",
          "name": "",
          "type": "uint256"
        }
      ],
      "stateMutability": "view",
      "type": "function"
    }
  ],
  "bytecode": {
    "object": "0x60806040523480156200001157600080fd5b506200001c62000022565b620000e4565b600054610100900460ff16156200008f5760405162461bcd60e51b815260206004820152602760248201527f496e697469616c697a61626c653a20636f6e747261637420697320696e697469604482015266616c697a696e6760c81b606482015260840160405180910390fd5b60005460ff9081161015620000e2576000805460ff191660ff9081179091556040519081527f7f26b83ff96e1f2b6a682f133852f6798a09c465da95921460cefb38474024989060200160405180910390a15b565b6138bf80620000f46000396000f3fe608060405234801561001057600080fd5b50600436106102a05760003560e01c806368d4a77811610167578063b88d4fde116100ce578063d5878eaa11610087578063d5878eaa146105d2578063d5abeb01146105dc578063df9740da146105e6578063e89bcd09146105f0578063e985e9c514610604578063f2fde38b1461064057600080fd5b8063b88d4fde14610579578063b8d1e5321461058c578063c763e5a11461059f578063c87b56dd146105a5578063ce1b815f146105b8578063d547cfb7146105ca57600080fd5b80638da5cb5b116101205780638da5cb5b1461050d57806395d89b411461051557806397944ba21461051d578063a22cb4651461053e578063ac3149e314610551578063b0ccc31e1461056557600080fd5b806368d4a7781461049857806370a08231146104c4578063715018a6146104d7578063731133e9146104df5780637d8966e4146104f257806382bc7877146104fa57600080fd5b80632f745c591161020b57806355f804b3116101c457806355f804b314610411578063572b6c05146104245780635c975abb146104475780636352211e14610451578063671b2a3114610464578063677ec90f1461047757600080fd5b80632f745c59146103ba57806334b35ac0146103cd5780633e84aa5e146103d757806342842e0e146103e1578063433ad106146103f45780634f6ccce7146103fe57600080fd5b806318160ddd1161025d57806318160ddd146103495780631992c3f31461035b57806323b872dd1461036e57806324a6f0851461038157806326a49e3714610394578063283ca77c146103a757600080fd5b806301ffc9a7146102a55780630682bdbc146102cd57806306fdde03146102f9578063081812fc1461030e578063095ea7b3146103215780631513704514610336575b600080fd5b6102b86102b33660046130e5565b610653565b60405190151581526020015b60405180910390f35b61016d546102e1906001600160a01b031681565b6040516001600160a01b0390911681526020016102c4565b61030161067e565b6040516102c4919061315a565b6102e161031c36600461316d565b610710565b61033461032f3660046131a2565b610737565b005b6103346103443660046131cc565b6107fd565b6099545b6040519081526020016102c4565b6103346103693660046131e7565b6108b1565b61033461037c366004613213565b610a7d565b61033461038f3660046131cc565b610b55565b61034d6103a236600461316d565b610bfa565b6102b86103b53660046131a2565b610c0b565b61034d6103c83660046131a2565b610c2e565b61034d6101675481565b61034d6101645481565b6103346103ef366004613213565b610cc4565b61034d6101635481565b61034d61040c36600461316d565b610d91565b61033461041f3660046132db565b610e24565b6102b86104323660046131cc565b61012d546001600160a01b0391821691161490565b61034d6101685481565b6102e161045f36600461316d565b610eaf565b610334610472366004613344565b610f0f565b61034d61048536600461316d565b6101666020526000908152604090205481565b61034d6104a63660046131a2565b61016560209081526000928352604080842090915290825290205481565b61034d6104d23660046131cc565b6110cf565b610334611155565b6103346104ed36600461339b565b6111b1565b610334611582565b6103346105083660046131cc565b6115df565b6102e161168c565b6103016116a5565b61034d61052b36600461316d565b6000908152610166602052604090205490565b61033461054c36600461340a565b6116b4565b61016b546102e1906001600160a01b031681565b61015f546102e1906001600160a01b031681565b610334610587366004613441565b611770565b61033461059a3660046131cc565b61184b565b4661034d565b6103016105b336600461316d565b6118a7565b61012d546001600160a01b03166102e1565b61030161190d565b61034d6101615481565b61034d6101605481565b61034d6101625481565b61016c546102e1906001600160a01b031681565b6102b8610612366004613491565b6001600160a01b039182166000908152606a6020908152604080832093909416825291909152205460ff1690565b61033461064e3660046131cc565b61199c565b60006001600160e01b0319821663780e9d6360e01b1480610678575061067882611a15565b92915050565b60606065805461068d906134c4565b80601f01602080910402602001604051908101604052809291908181526020018280546106b9906134c4565b80156107065780601f106106db57610100808354040283529160200191610706565b820191906000526020600020905b8154815290600101906020018083116106e957829003601f168201915b5050505050905090565b600061071b82611a65565b506000908152606960205260409020546001600160a01b031690565b61015f5482906001600160a01b03163b156107ee5761015f54604051633185c44d60e21b81523060048201526001600160a01b0383811660248301529091169063c617113490604401602060405180830381865afa15801561079d573d6000803e3d6000fd5b505050506040513d601f19601f820116820180604052508101906107c191906134fe565b6107ee57604051633b79c77360e21b81526001600160a01b03821660048201526024015b60405180910390fd5b6107f88383611ac4565b505050565b610805611be6565b6001600160a01b03811661085b5760405162461bcd60e51b815260206004820152601c60248201527f5369676e2061646472657373206973207a65726f20616464726573730000000060448201526064016107e5565b61016d80546001600160a01b0319166001600160a01b0383169081179091556040519081527f0e58c0652c5df5dddc98a8856c5a814ba7aedf70cc4ef2c72a040d1ff0fe5ebd906020015b60405180910390a150565b6108b9611be6565b6101605483111561091f5760405162461bcd60e51b815260206004820152602a60248201527f5f776176654d6178546f6b656e732073686f756c64206e6f7420657863656564604482015269206d6178537570706c7960b01b60648201526084016107e5565b60008311801561092f5750600082115b6109735760405162461bcd60e51b815260206004820152601560248201527424b73b30b634b21031b7b73334b3bab930ba34b7b760591b60448201526064016107e5565b61016854156109b95760405162461bcd60e51b815260206004820152601260248201527110dbdb9d1c9858dd081a5cc81c185d5cd95960721b60448201526064016107e5565b82821115610a095760405162461bcd60e51b815260206004820152601c60248201527f496e76616c696420737570706c7920636f6e66696775726174696f6e0000000060448201526064016107e5565b6101618390556101628290556101638190556000610164819055610167805491610a3283613531565b909155505060408051848152602081018490529081018290527fe564a4bf9e4db3797c60fe6b6be0c2b012e6557df177e1b63883bd29d00db8de9060600160405180910390a1505050565b61015f5483906001600160a01b03163b15610b4457336001600160a01b03821603610ab257610aad848484611c57565b610b4f565b61015f54604051633185c44d60e21b81523060048201523360248201526001600160a01b039091169063c617113490604401602060405180830381865afa158015610b01573d6000803e3d6000fd5b505050506040513d601f19601f82011682018060405250810190610b2591906134fe565b610b4457604051633b79c77360e21b81523360048201526024016107e5565b610b4f848484611c57565b50505050565b610b5d611be6565b6001600160a01b038116610bab5760405162461bcd60e51b81526020600482015260156024820152744f776e6572206973207a65726f206164647265737360581b60448201526064016107e5565b61016c80546001600160a01b0319166001600160a01b0383169081179091556040519081527fa7a30e0f8be04cc86d8bab5131d01fc28dd5512abb25522217ee56ecea313ce0906020016108a6565b60008161016354610678919061354a565b6000610c1682611c8f565b8015610c275750610c278383611cb6565b9392505050565b6000610c39836110cf565b8210610c9b5760405162461bcd60e51b815260206004820152602b60248201527f455243373231456e756d657261626c653a206f776e657220696e646578206f7560448201526a74206f6620626f756e647360a81b60648201526084016107e5565b506001600160a01b03919091166000908152609760209081526040808320938352929052205490565b61015f5483906001600160a01b03163b15610d8657336001600160a01b03821603610cf457610aad848484611d38565b61015f54604051633185c44d60e21b81523060048201523360248201526001600160a01b039091169063c617113490604401602060405180830381865afa158015610d43573d6000803e3d6000fd5b505050506040513d601f19601f82011682018060405250810190610d6791906134fe565b610d8657604051633b79c77360e21b81523360048201526024016107e5565b610b4f848484611d38565b6000610d9c60995490565b8210610dff5760405162461bcd60e51b815260206004820152602c60248201527f455243373231456e756d657261626c653a20676c6f62616c20696e646578206f60448201526b7574206f6620626f756e647360a01b60648201526084016107e5565b60998281548110610e1257610e12613569565b90600052602060002001549050919050565b610e2c611be6565b8051600003610e725760405162461bcd60e51b815260206004820152601260248201527118985cd9555492481a5cc81b9bdd081cd95d60721b60448201526064016107e5565b61016e610e7f82826135cd565b507ff9c7803e94e0d3c02900d8a90893a6d5e90dd04d32a4cfe825520f82bf9f32f6816040516108a6919061315a565b6000818152606760205260408120546001600160a01b0316806106785760405162461bcd60e51b8152602060048201526018602482015277115490cdcc8c4e881a5b9d985b1a59081d1bdad95b88125160421b60448201526064016107e5565b610f17611d53565b6001600160a01b0316610f2983610eaf565b6001600160a01b031614610fa55760405162461bcd60e51b815260206004820152603d60248201527f596f75206d75737420626520746865206f776e6572206f662074686520746f6b60448201527f656e20696e206f7264657220746f20706572736f6e616c697a6520697400000060648201526084016107e5565b60008481526101696020526040902054156110025760405162461bcd60e51b815260206004820152601860248201527f5369676e6174757265496420616c72656164792075736564000000000000000060448201526064016107e5565b61016d546001600160a01b031661102561101a611d53565b86304687878a611d5d565b6001600160a01b03161461106e5760405162461bcd60e51b815260206004820152601060248201526f14da59db985d1d5c994819985a5b195960821b60448201526064016107e5565b6000848152610169602090815260408083206001905584835261016682529182902083905581518481529081018390527f37c5b85bb9cbe019726db5bf44dfd0053ed3e09554d9f97a9778b5b8dd65f620910160405180910390a150505050565b60006001600160a01b0382166111395760405162461bcd60e51b815260206004820152602960248201527f4552433732313a2061646472657373207a65726f206973206e6f7420612076616044820152683634b21037bbb732b960b91b60648201526084016107e5565b506001600160a01b031660009081526068602052604090205490565b61115d611be6565b60405162461bcd60e51b815260206004820152602360248201527f52656e6f756e6365206f776e657273686970206973206e6f7420617661696c61604482015262626c6560e81b60648201526084016107e5565b6111b9611e10565b6000610167541161120c5760405162461bcd60e51b815260206004820152601a60248201527f436f6e7472616374206973206e6f7420636f6e6669677572656400000000000060448201526064016107e5565b61016b546001600160a01b0316611221611d53565b6001600160a01b0316146112655760405162461bcd60e51b815260206004820152600b60248201526a139bdd08185b1b1bddd95960aa1b60448201526064016107e5565b61016854156112ab5760405162461bcd60e51b815260206004820152601260248201527110dbdb9d1c9858dd081a5cc81c185d5cd95960721b60448201526064016107e5565b6001600160a01b0384166112fa5760405162461bcd60e51b815260206004820152601660248201527557616c6c6574206973207a65726f206164647265737360501b60448201526064016107e5565b6000831161133f5760405162461bcd60e51b81526020600482015260126024820152710416d6f756e742063616e6e6f7420626520360741b60448201526064016107e5565b600082815261016960205260409020541561139c5760405162461bcd60e51b815260206004820152601860248201527f7369676e6174757265496420616c72656164792075736564000000000000000060448201526064016107e5565b61016d546001600160a01b03166113b68584304686611e69565b6001600160a01b0316146113ff5760405162461bcd60e51b815260206004820152601060248201526f14da59db985d1d5c994819985a5b195960821b60448201526064016107e5565b6000828152610169602052604090206001905561141b83611c8f565b6114585760405162461bcd60e51b815260206004820152600e60248201526d15d85d994818dbdb5c1b195d195960921b60448201526064016107e5565b6114628484611cb6565b61149c5760405162461bcd60e51b815260206004820152600b60248201526a13585e08185b1b1bddd95960aa1b60448201526064016107e5565b60006114a784610bfa565b905080156114cf576114cf6114ba611d53565b61016c5487906001600160a01b031684611eab565b6001600160a01b038516600090815261016560205260408120610167548692906114fb9060019061368d565b8152602001908152602001600020600082825461151891906136a4565b9250508190555083610164600082825461153291906136a4565b90915550600090505b848110156115765760006115578761155260995490565b611f05565b90506115638782612021565b508061156e81613531565b91505061153b565b5050610b4f600160fb55565b61158a611be6565b610168541561159a57600061159d565b60015b60ff16610168819055604051600190911481527f37ae8f893f8baa4aef207505c0e4d730119d73dc1363bbee6fda5f5d52c3cf179060200160405180910390a1565b6115e7611be6565b6001600160a01b03811661163d5760405162461bcd60e51b815260206004820152601760248201527f41646472657373206973207a65726f206164647265737300000000000000000060448201526064016107e5565b61016b80546001600160a01b0319166001600160a01b0383169081179091556040519081527f8eb903ef93f1949409fbfad9304ceafc3ab8211c9ddbe9732ce8b1ede00efb34906020016108a6565b60006116a060c9546001600160a01b031690565b905090565b60606066805461068d906134c4565b61015f5482906001600160a01b03163b156117665761015f54604051633185c44d60e21b81523060048201526001600160a01b0383811660248301529091169063c617113490604401602060405180830381865afa15801561171a573d6000803e3d6000fd5b505050506040513d601f19601f8201168201806040525081019061173e91906134fe565b61176657604051633b79c77360e21b81526001600160a01b03821660048201526024016107e5565b6107f8838361203f565b61015f5484906001600160a01b03163b1561183857336001600160a01b038216036117a6576117a185858585612051565b611844565b61015f54604051633185c44d60e21b81523060048201523360248201526001600160a01b039091169063c617113490604401602060405180830381865afa1580156117f5573d6000803e3d6000fd5b505050506040513d601f19601f8201168201806040525081019061181991906134fe565b61183857604051633b79c77360e21b81523360048201526024016107e5565b61184485858585612051565b5050505050565b61185361168c565b6001600160a01b0316336001600160a01b03161461188457604051635fc483c560e01b815260040160405180910390fd5b61015f80546001600160a01b0319166001600160a01b0392909216919091179055565b60606118b282611a65565b60006118bc61208a565b905060008151116118dc5760405180602001604052806000815250610c27565b806118e68461209a565b6040516020016118f79291906136bc565b6040516020818303038152906040529392505050565b61016e805461191b906134c4565b80601f0160208091040260200160405190810160405280929190818152602001828054611947906134c4565b80156119945780601f1061196957610100808354040283529160200191611994565b820191906000526020600020905b81548152906001019060200180831161197757829003601f168201915b505050505081565b6119a4611be6565b6001600160a01b038116611a095760405162461bcd60e51b815260206004820152602660248201527f4f776e61626c653a206e6577206f776e657220697320746865207a65726f206160448201526564647265737360d01b60648201526084016107e5565b611a128161212d565b50565b60006001600160e01b031982166380ac58cd60e01b1480611a4657506001600160e01b03198216635b5e139f60e01b145b8061067857506301ffc9a760e01b6001600160e01b0319831614610678565b6000818152606760205260409020546001600160a01b0316611a125760405162461bcd60e51b8152602060048201526018602482015277115490cdcc8c4e881a5b9d985b1a59081d1bdad95b88125160421b60448201526064016107e5565b6000611acf82610eaf565b9050806001600160a01b0316836001600160a01b031603611b3c5760405162461bcd60e51b815260206004820152602160248201527f4552433732313a20617070726f76616c20746f2063757272656e74206f776e656044820152603960f91b60648201526084016107e5565b806001600160a01b0316611b4e611d53565b6001600160a01b03161480611b6a5750611b6a81610612611d53565b611bdc5760405162461bcd60e51b815260206004820152603d60248201527f4552433732313a20617070726f76652063616c6c6572206973206e6f7420746f60448201527f6b656e206f776e6572206f7220617070726f76656420666f7220616c6c00000060648201526084016107e5565b6107f8838361217f565b611bee611d53565b6001600160a01b0316611bff61168c565b6001600160a01b031614611c555760405162461bcd60e51b815260206004820181905260248201527f4f776e61626c653a2063616c6c6572206973206e6f7420746865206f776e657260448201526064016107e5565b565b611c68611c62611d53565b826121ed565b611c845760405162461bcd60e51b81526004016107e5906136eb565b6107f883838361226c565b600080821180156106785750610161548261016454611cae91906136a4565b111592915050565b600061016254826101656000866001600160a01b03166001600160a01b031681526020019081526020016000206000600161016754611cf5919061368d565b815260200190815260200160002054611d0e91906136a4565b11158015610c2757506101605482611d2560995490565b611d2f91906136a4565b11159392505050565b6107f883838360405180602001604052806000815250611770565b60006116a06123dd565b604080516001600160a01b03808a16602083015291810188905290861660608201526080810185905260a0810184905260c08101839052600090611e049060e0015b60408051601f198184030181529082905280516020918201207f19457468657265756d205369676e6564204d6573736167653a0a33320000000091830191909152603c820152605c016040516020818303038152906040528051906020012083612405565b98975050505050505050565b600260fb5403611e625760405162461bcd60e51b815260206004820152601f60248201527f5265656e7472616e637947756172643a207265656e7472616e742063616c6c0060448201526064016107e5565b600260fb55565b604080516001600160a01b038088166020830152918101869052908416606082015260808101839052600090611ea19060a001611d9f565b9695505050505050565b604080516001600160a01b0385811660248301528416604482015260648082018490528251808303909101815260849091019091526020810180516001600160e01b03166323b872dd60e01b179052610b4f908590612429565b6000808261016054611f17919061368d565b6040516bffffffffffffffffffffffff19606087901b1660208201524460348201524260548201526074810182905290915060009082906094016040516020818303038152906040528051906020012060001c611f749190613738565b600081815261016a6020526040902054909150819015611fa05750600081815261016a60205260409020545b61016a6000611fb060018661368d565b815260200190815260200160002054600003611fe657611fd160018461368d565b600083815261016a6020526040902055612018565b61016a6000611ff660018661368d565b8152602080820192909252604090810160009081205485825261016a90935220555b95945050505050565b61203b8282604051806020016040528060008152506124fb565b5050565b61203b61204a611d53565b838361252e565b61206261205c611d53565b836121ed565b61207e5760405162461bcd60e51b81526004016107e5906136eb565b610b4f848484846125fc565b606061016e805461068d906134c4565b606060006120a78361262f565b600101905060008167ffffffffffffffff8111156120c7576120c761324f565b6040519080825280601f01601f1916602001820160405280156120f1576020820181803683370190505b5090508181016020015b600019016f181899199a1a9b1b9c1cb0b131b232b360811b600a86061a8153600a85049450846120fb57509392505050565b60c980546001600160a01b038381166001600160a01b0319831681179093556040519116919082907f8be0079c531659141344cd1fd0a4f28419497f9722a3daafe3b4186f6b6457e090600090a35050565b600081815260696020526040902080546001600160a01b0319166001600160a01b03841690811790915581906121b482610eaf565b6001600160a01b03167f8c5be1e5ebec7d5bd14f71427d1e84f3dd0314c0f7b2291e5b200ac8c7c3b92560405160405180910390a45050565b6000806121f983610eaf565b9050806001600160a01b0316846001600160a01b0316148061224057506001600160a01b038082166000908152606a602090815260408083209388168352929052205460ff165b806122645750836001600160a01b031661225984610710565b6001600160a01b0316145b949350505050565b826001600160a01b031661227f82610eaf565b6001600160a01b0316146122a55760405162461bcd60e51b81526004016107e59061375a565b6001600160a01b0382166123075760405162461bcd60e51b8152602060048201526024808201527f4552433732313a207472616e7366657220746f20746865207a65726f206164646044820152637265737360e01b60648201526084016107e5565b6123148383836001612707565b826001600160a01b031661232782610eaf565b6001600160a01b03161461234d5760405162461bcd60e51b81526004016107e59061375a565b600081815260696020908152604080832080546001600160a01b03199081169091556001600160a01b0387811680865260688552838620805460001901905590871680865283862080546001019055868652606790945282852080549092168417909155905184937fddf252ad1be2c89b69c2b068fc378daa952ba7f163c4a11628f55a4df523b3ef91a4505050565b61012d546000906001600160a01b03163303612400575060131936013560601c90565b503390565b6000806000612414858561283b565b9150915061242181612880565b509392505050565b600061247e826040518060400160405280602081526020017f5361666545524332303a206c6f772d6c6576656c2063616c6c206661696c6564815250856001600160a01b03166129ca9092919063ffffffff16565b8051909150156107f8578080602001905181019061249c91906134fe565b6107f85760405162461bcd60e51b815260206004820152602a60248201527f5361666545524332303a204552433230206f7065726174696f6e20646964206e6044820152691bdd081cdd58d8d9595960b21b60648201526084016107e5565b61250583836129d9565b6125126000848484612b72565b6107f85760405162461bcd60e51b81526004016107e59061379f565b816001600160a01b0316836001600160a01b03160361258f5760405162461bcd60e51b815260206004820152601960248201527f4552433732313a20617070726f766520746f2063616c6c65720000000000000060448201526064016107e5565b6001600160a01b038381166000818152606a6020908152604080832094871680845294825291829020805460ff191686151590811790915591519182527f17307eab39ab6107e8899845ad3d59bd9653f200f220920489ca2b5937696c31910160405180910390a3505050565b61260784848461226c565b61261384848484612b72565b610b4f5760405162461bcd60e51b81526004016107e59061379f565b60008072184f03e93ff9f4daa797ed6e38ed64bf6a1f0160401b831061266e5772184f03e93ff9f4daa797ed6e38ed64bf6a1f0160401b830492506040015b6d04ee2d6d415b85acef8100000000831061269a576d04ee2d6d415b85acef8100000000830492506020015b662386f26fc1000083106126b857662386f26fc10000830492506010015b6305f5e10083106126d0576305f5e100830492506008015b61271083106126e457612710830492506004015b606483106126f6576064830492506002015b600a83106106785760010192915050565b61271384848484612c7a565b60018111156127825760405162461bcd60e51b815260206004820152603560248201527f455243373231456e756d657261626c653a20636f6e7365637574697665207472604482015274185b9cd9995c9cc81b9bdd081cdd5c1c1bdc9d1959605a1b60648201526084016107e5565b816001600160a01b0385166127de576127d981609980546000838152609a60205260408120829055600182018355919091527f72a152ddfb8e864297c917af52ea6c1c68aead0fee1a62673fcc7e0c94979d000155565b612801565b836001600160a01b0316856001600160a01b031614612801576128018582612d02565b6001600160a01b038416612818576117a181612d9f565b846001600160a01b0316846001600160a01b031614611844576118448482612e4e565b60008082516041036128715760208301516040840151606085015160001a61286587828585612e92565b94509450505050612879565b506000905060025b9250929050565b6000816004811115612894576128946137f1565b0361289c5750565b60018160048111156128b0576128b06137f1565b036128fd5760405162461bcd60e51b815260206004820152601860248201527f45434453413a20696e76616c6964207369676e6174757265000000000000000060448201526064016107e5565b6002816004811115612911576129116137f1565b0361295e5760405162461bcd60e51b815260206004820152601f60248201527f45434453413a20696e76616c6964207369676e6174757265206c656e6774680060448201526064016107e5565b6003816004811115612972576129726137f1565b03611a125760405162461bcd60e51b815260206004820152602260248201527f45434453413a20696e76616c6964207369676e6174757265202773272076616c604482015261756560f01b60648201526084016107e5565b60606122648484600085612f56565b6001600160a01b038216612a2f5760405162461bcd60e51b815260206004820181905260248201527f4552433732313a206d696e7420746f20746865207a65726f206164647265737360448201526064016107e5565b6000818152606760205260409020546001600160a01b031615612a945760405162461bcd60e51b815260206004820152601c60248201527f4552433732313a20746f6b656e20616c7265616479206d696e7465640000000060448201526064016107e5565b612aa2600083836001612707565b6000818152606760205260409020546001600160a01b031615612b075760405162461bcd60e51b815260206004820152601c60248201527f4552433732313a20746f6b656e20616c7265616479206d696e7465640000000060448201526064016107e5565b6001600160a01b038216600081815260686020908152604080832080546001019055848352606790915280822080546001600160a01b0319168417905551839291907fddf252ad1be2c89b69c2b068fc378daa952ba7f163c4a11628f55a4df523b3ef908290a45050565b60006001600160a01b0384163b15612c6f57836001600160a01b031663150b7a02612b9b611d53565b8786866040518563ffffffff1660e01b8152600401612bbd9493929190613807565b6020604051808303816000875af1925050508015612bf8575060408051601f3d908101601f19168201909252612bf59181019061383a565b60015b612c55573d808015612c26576040519150601f19603f3d011682016040523d82523d6000602084013e612c2b565b606091505b508051600003612c4d5760405162461bcd60e51b81526004016107e59061379f565b805181602001fd5b6001600160e01b031916630a85bd0160e11b149050612264565b506001949350505050565b6001811115610b4f576001600160a01b03841615612cc0576001600160a01b03841660009081526068602052604081208054839290612cba90849061368d565b90915550505b6001600160a01b03831615610b4f576001600160a01b03831660009081526068602052604081208054839290612cf79084906136a4565b909155505050505050565b60006001612d0f846110cf565b612d19919061368d565b600083815260986020526040902054909150808214612d6c576001600160a01b03841660009081526097602090815260408083208584528252808320548484528184208190558352609890915290208190555b5060009182526098602090815260408084208490556001600160a01b039094168352609781528383209183525290812055565b609954600090612db19060019061368d565b6000838152609a602052604081205460998054939450909284908110612dd957612dd9613569565b906000526020600020015490508060998381548110612dfa57612dfa613569565b6000918252602080832090910192909255828152609a90915260408082208490558582528120556099805480612e3257612e32613857565b6001900381819060005260206000200160009055905550505050565b6000612e59836110cf565b6001600160a01b039093166000908152609760209081526040808320868452825280832085905593825260989052919091209190915550565b6000807f7fffffffffffffffffffffffffffffff5d576e7357a4501ddfe92f46681b20a0831115612ec95750600090506003612f4d565b6040805160008082526020820180845289905260ff881692820192909252606081018690526080810185905260019060a0016020604051602081039080840390855afa158015612f1d573d6000803e3d6000fd5b5050604051601f1901519150506001600160a01b038116612f4657600060019250925050612f4d565b9150600090505b94509492505050565b606082471015612fb75760405162461bcd60e51b815260206004820152602660248201527f416464726573733a20696e73756666696369656e742062616c616e636520666f6044820152651c8818d85b1b60d21b60648201526084016107e5565b600080866001600160a01b03168587604051612fd3919061386d565b60006040518083038185875af1925050503d8060008114613010576040519150601f19603f3d011682016040523d82523d6000602084013e613015565b606091505b509150915061302687838387613031565b979650505050505050565b606083156130a0578251600003613099576001600160a01b0385163b6130995760405162461bcd60e51b815260206004820152601d60248201527f416464726573733a2063616c6c20746f206e6f6e2d636f6e747261637400000060448201526064016107e5565b5081612264565b61226483838151156130b55781518083602001fd5b8060405162461bcd60e51b81526004016107e5919061315a565b6001600160e01b031981168114611a1257600080fd5b6000602082840312156130f757600080fd5b8135610c27816130cf565b60005b8381101561311d578181015183820152602001613105565b83811115610b4f5750506000910152565b60008151808452613146816020860160208601613102565b601f01601f19169290920160200192915050565b602081526000610c27602083018461312e565b60006020828403121561317f57600080fd5b5035919050565b80356001600160a01b038116811461319d57600080fd5b919050565b600080604083850312156131b557600080fd5b6131be83613186565b946020939093013593505050565b6000602082840312156131de57600080fd5b610c2782613186565b6000806000606084860312156131fc57600080fd5b505081359360208301359350604090920135919050565b60008060006060848603121561322857600080fd5b61323184613186565b925061323f60208501613186565b9150604084013590509250925092565b634e487b7160e01b600052604160045260246000fd5b600067ffffffffffffffff808411156132805761328061324f565b604051601f8501601f19908116603f011681019082821181831017156132a8576132a861324f565b816040528093508581528686860111156132c157600080fd5b858560208301376000602087830101525050509392505050565b6000602082840312156132ed57600080fd5b813567ffffffffffffffff81111561330457600080fd5b8201601f8101841361331557600080fd5b61226484823560208401613265565b600082601f83011261333557600080fd5b610c2783833560208501613265565b6000806000806080858703121561335a57600080fd5b84359350602085013567ffffffffffffffff81111561337857600080fd5b61338487828801613324565b949794965050505060408301359260600135919050565b600080600080608085870312156133b157600080fd5b6133ba85613186565b93506020850135925060408501359150606085013567ffffffffffffffff8111156133e457600080fd5b6133f087828801613324565b91505092959194509250565b8015158114611a1257600080fd5b6000806040838503121561341d57600080fd5b61342683613186565b91506020830135613436816133fc565b809150509250929050565b6000806000806080858703121561345757600080fd5b61346085613186565b935061346e60208601613186565b925060408501359150606085013567ffffffffffffffff8111156133e457600080fd5b600080604083850312156134a457600080fd5b6134ad83613186565b91506134bb60208401613186565b90509250929050565b600181811c908216806134d857607f821691505b6020821081036134f857634e487b7160e01b600052602260045260246000fd5b50919050565b60006020828403121561351057600080fd5b8151610c27816133fc565b634e487b7160e01b600052601160045260246000fd5b6000600182016135435761354361351b565b5060010190565b60008160001904831182151516156135645761356461351b565b500290565b634e487b7160e01b600052603260045260246000fd5b601f8211156107f857600081815260208120601f850160051c810160208610156135a65750805b601f850160051c820191505b818110156135c5578281556001016135b2565b505050505050565b815167ffffffffffffffff8111156135e7576135e761324f565b6135fb816135f584546134c4565b8461357f565b602080601f83116001811461363057600084156136185750858301515b600019600386901b1c1916600185901b1785556135c5565b600085815260208120601f198616915b8281101561365f57888601518255948401946001909101908401613640565b508582101561367d5787850151600019600388901b60f8161c191681555b5050505050600190811b01905550565b60008282101561369f5761369f61351b565b500390565b600082198211156136b7576136b761351b565b500190565b600083516136ce818460208801613102565b8351908301906136e2818360208801613102565b01949350505050565b6020808252602d908201527f4552433732313a2063616c6c6572206973206e6f7420746f6b656e206f776e6560408201526c1c881bdc88185c1c1c9bdd9959609a1b606082015260800190565b60008261375557634e487b7160e01b600052601260045260246000fd5b500690565b60208082526025908201527f4552433732313a207472616e736665722066726f6d20696e636f72726563742060408201526437bbb732b960d91b606082015260800190565b60208082526032908201527f4552433732313a207472616e7366657220746f206e6f6e20455243373231526560408201527131b2b4bb32b91034b6b83632b6b2b73a32b960711b606082015260800190565b634e487b7160e01b600052602160045260246000fd5b6001600160a01b0385811682528416602082015260408101839052608060608201819052600090611ea19083018461312e565b60006020828403121561384c57600080fd5b8151610c27816130cf565b634e487b7160e01b600052603160045260246000fd5b6000825161387f818460208701613102565b919091019291505056fea264697066735822122052bc88a2a3fa453d09d754716463cb224d4b52e39e03cee9f871f9bf38715da964736f6c634300080f0033",
    "linkReferences": {}
  },
  "methodIdentifiers": {
    "allowedToExecuteMint()": "ac3149e3",
    "approve(address,uint256)": "095ea7b3",
    "balanceOf(address)": "70a08231",
    "baseTokenURI()": "d547cfb7",
    "chain()": "c763e5a1",
    "checkMintAllowed(address,uint256)": "283ca77c",
    "getApproved(uint256)": "081812fc",
    "getTrustedForwarder()": "ce1b815f",
    "indexWave()": "34b35ac0",
    "isApprovedForAll(address,address)": "e985e9c5",
    "isTrustedForwarder(address)": "572b6c05",
    "maxSupply()": "d5abeb01",
    "mint(address,uint256,uint256,bytes)": "731133e9",
    "name()": "06fdde03",
    "operatorFilterRegistry()": "b0ccc31e",
    "owner()": "8da5cb5b",
    "ownerOf(uint256)": "6352211e",
    "paused()": "5c975abb",
    "personalizationOf(uint256)": "97944ba2",
    "personalizationTraits(uint256)": "677ec90f",
    "personalize(uint256,bytes,uint256,uint256)": "671b2a31",
    "price(uint256)": "26a49e37",
    "renounceOwnership()": "715018a6",
    "safeTransferFrom(address,address,uint256)": "42842e0e",
    "safeTransferFrom(address,address,uint256,bytes)": "b88d4fde",
    "sandOwner()": "e89bcd09",
    "setAllowedExecuteMint(address)": "82bc7877",
    "setApprovalForAll(address,bool)": "a22cb465",
    "setBaseURI(string)": "55f804b3",
    "setSandOwnerAddress(address)": "24a6f085",
    "setSignAddress(address)": "15137045",
    "setupWave(uint256,uint256,uint256)": "1992c3f3",
    "signAddress()": "0682bdbc",
    "supportsInterface(bytes4)": "01ffc9a7",
    "symbol()": "95d89b41",
    "toggleSale()": "7d8966e4",
    "tokenByIndex(uint256)": "4f6ccce7",
    "tokenOfOwnerByIndex(address,uint256)": "2f745c59",
    "tokenURI(uint256)": "c87b56dd",
    "totalSupply()": "18160ddd",
    "transferFrom(address,address,uint256)": "23b872dd",
    "transferOwnership(address)": "f2fde38b",
    "updateOperatorFilterRegistryAddress(address)": "b8d1e532",
    "waveMaxTokens()": "d5878eaa",
    "waveMaxTokensToBuy()": "df9740da",
    "waveOwnerToClaimedCounts(address,uint256)": "68d4a778",
    "waveSingleTokenPrice()": "433ad106",
    "waveTotalMinted()": "3e84aa5e"
  },
  "id": 89
}