{
  "address": "0x8968e988568EC6b566E88b739c34BBa4a9f1c4A2",
  "abi": [
    {
      "inputs": [
        {
          "internalType": "address",
          "name": "asset",
          "type": "address"
        },
        {
          "internalType": "address",
          "name": "admin",
          "type": "address"
        },
        {
          "internalType": "bytes32",
          "name": "merkleRoot",
          "type": "bytes32"
        },
        {
          "internalType": "address",
          "name": "assetsHolder",
          "type": "address"
        },
        {
          "internalType": "uint256",
          "name": "expiryTime",
          "type": "uint256"
        }
      ],
      "stateMutability": "nonpayable",
      "type": "constructor"
    },
    {
      "anonymous": false,
      "inputs": [
        {
          "indexed": false,
          "internalType": "address",
          "name": "oldAdmin",
          "type": "address"
        },
        {
          "indexed": false,
          "internalType": "address",
          "name": "newAdmin",
          "type": "address"
        }
      ],
      "name": "AdminChanged",
      "type": "event"
    },
    {
      "anonymous": false,
      "inputs": [
        {
          "indexed": false,
          "internalType": "address",
          "name": "to",
          "type": "address"
        },
        {
          "indexed": false,
          "internalType": "uint256[]",
          "name": "assetIds",
          "type": "uint256[]"
        },
        {
          "indexed": false,
          "internalType": "uint256[]",
          "name": "assetValues",
          "type": "uint256[]"
        }
      ],
      "name": "ClaimedAssets",
      "type": "event"
    },
    {
      "inputs": [
        {
          "internalType": "address",
          "name": "newAdmin",
          "type": "address"
        }
      ],
      "name": "changeAdmin",
      "outputs": [],
      "stateMutability": "nonpayable",
      "type": "function"
    },
    {
      "inputs": [
        {
          "internalType": "address",
          "name": "to",
          "type": "address"
        },
        {
          "internalType": "uint256[]",
          "name": "assetIds",
          "type": "uint256[]"
        },
        {
          "internalType": "uint256[]",
          "name": "assetValues",
          "type": "uint256[]"
        },
        {
          "internalType": "bytes32[]",
          "name": "proof",
          "type": "bytes32[]"
        },
        {
          "internalType": "bytes32",
          "name": "salt",
          "type": "bytes32"
        }
      ],
      "name": "claimAssets",
      "outputs": [],
      "stateMutability": "nonpayable",
      "type": "function"
    },
    {
      "inputs": [
        {
          "internalType": "address",
          "name": "",
          "type": "address"
        }
      ],
      "name": "claimed",
      "outputs": [
        {
          "internalType": "bool",
          "name": "",
          "type": "bool"
        }
      ],
      "stateMutability": "view",
      "type": "function"
    },
    {
      "inputs": [],
      "name": "getAdmin",
      "outputs": [
        {
          "internalType": "address",
          "name": "",
          "type": "address"
        }
      ],
      "stateMutability": "view",
      "type": "function"
    },
    {
      "inputs": [
        {
          "internalType": "address",
          "name": "",
          "type": "address"
        },
        {
          "internalType": "address",
          "name": "",
          "type": "address"
        },
        {
          "internalType": "uint256[]",
          "name": "",
          "type": "uint256[]"
        },
        {
          "internalType": "uint256[]",
          "name": "",
          "type": "uint256[]"
        },
        {
          "internalType": "bytes",
          "name": "",
          "type": "bytes"
        }
      ],
      "name": "onERC1155BatchReceived",
      "outputs": [
        {
          "internalType": "bytes4",
          "name": "",
          "type": "bytes4"
        }
      ],
      "stateMutability": "pure",
      "type": "function"
    },
    {
      "inputs": [
        {
          "internalType": "address",
          "name": "",
          "type": "address"
        },
        {
          "internalType": "address",
          "name": "",
          "type": "address"
        },
        {
          "internalType": "uint256",
          "name": "",
          "type": "uint256"
        },
        {
          "internalType": "uint256",
          "name": "",
          "type": "uint256"
        },
        {
          "internalType": "bytes",
          "name": "",
          "type": "bytes"
        }
      ],
      "name": "onERC1155Received",
      "outputs": [
        {
          "internalType": "bytes4",
          "name": "",
          "type": "bytes4"
        }
      ],
      "stateMutability": "pure",
      "type": "function"
    },
    {
      "inputs": [
        {
          "internalType": "bytes32",
          "name": "merkleRoot",
          "type": "bytes32"
        }
      ],
      "name": "setMerkleRoot",
      "outputs": [],
      "stateMutability": "nonpayable",
      "type": "function"
    }
  ],
  "transactionHash": "0xaa4d16e7c63eb6f585927113b147cfe0ed2a350d62df7e583b83ac03867b93d7",
  "args": [
    "0x8055a2c0f7EB177BeaB357B70E6504402d2b5fF6",
    "0x0000000000000000000000000000000000000000",
    "0x69be195edd8c2b8b31b4c4a0894e4a80adca8d201d01870b8639e2ae31125212",
    "0x0000000000000000000000000000000000000000",
    "0xFFFFFFFFFFFFFFFFFFFFFFFFFFFFFFFFFFFFFFFFFFFFFFFFFFFFFFFFFFFFFFFF"
  ],
  "linkedData": [
    {
      "reservedAddress": "0xA20E0E4fCCF921D449c21c4b696d1491201597C1",
      "assetIds": [
        "41506478881403507969696680653240014914910929820314476107906210059990541021184"
      ],
      "assetValues": [
        1
      ]
    },
    {
      "reservedAddress": "0x2128d2366151a01f63F4fC560e885e10eCa475BF",
      "assetIds": [
        "41506478881403507969696680653240014914910929820314476107906210059990541021184"
      ],
      "assetValues": [
        1
      ]
    },
    {
      "reservedAddress": "0xbDDB98Cee24aDF58b751259ed174Dd0a58Afd1Cc",
      "assetIds": [
        "41506478881403507969696680653240014914910929820314476107906210059990541021184"
      ],
      "assetValues": [
        1
      ]
    },
    {
      "reservedAddress": "0xD726cdA113774e8628307989D5abFd63aE6F14De",
      "assetIds": [
        "41506478881403507969696680653240014914910929820314476107906210059990541021184"
      ],
      "assetValues": [
        1
      ]
    },
    {
      "reservedAddress": "0x1765Acd5b00c8CD123F2971E2608CE37B3B17c66",
      "assetIds": [
        "41506478881403507969696680653240014914910929820314476107906210059990541021184"
      ],
      "assetValues": [
        1
      ]
    },
    {
      "reservedAddress": "0xfc28B6dc92bA0B06aA895b14e37f59a28BeD34C7",
      "assetIds": [
        "41506478881403507969696680653240014914910929820314476107906210059990541021184"
      ],
      "assetValues": [
        1
      ]
    },
    {
      "reservedAddress": "0x32322E3e3E32C3A2e82E96630Af052bb49943ADB",
      "assetIds": [
        "41506478881403507969696680653240014914910929820314476107906210059990541021184"
      ],
      "assetValues": [
        1
      ]
    },
    {
      "reservedAddress": "0xE3FAA8cA364f23479122F19B01C16E4046213F68",
      "assetIds": [
        "41506478881403507969696680653240014914910929820314476107906210059990541021184"
      ],
      "assetValues": [
        1
      ]
    },
    {
      "reservedAddress": "0x0F7fD9C06185586B08aB522179238b5c86820409",
      "assetIds": [
        "41506478881403507969696680653240014914910929820314476107906210059990541021184"
      ],
      "assetValues": [
        1
      ]
    },
    {
      "reservedAddress": "0x7B4110B0b99Ad645C593f6497Eda77Aa7875416f",
      "assetIds": [
        "41506478881403507969696680653240014914910929820314476107906210059990541021184"
      ],
      "assetValues": [
        1
      ]
    },
    {
      "reservedAddress": "0x4dF3C2C04F5AB81a6b27fA3DD05ecEcAEe1194ba",
      "assetIds": [
        "41506478881403507969696680653240014914910929820314476107906210059990541021184"
      ],
      "assetValues": [
        1
      ]
    },
    {
      "reservedAddress": "0xB319695ffF5Fe2934697Bc76aC307595C6009598",
      "assetIds": [
        "41506478881403507969696680653240014914910929820314476107906210059990541021184"
      ],
      "assetValues": [
        1
      ]
    },
    {
      "reservedAddress": "0x7116982BC84cB4993F0A7eBf84DE3fc702eB605e",
      "assetIds": [
        "41506478881403507969696680653240014914910929820314476107906210059990541021184"
      ],
      "assetValues": [
        1
      ]
    },
    {
      "reservedAddress": "0x57B3bb9d075487e13C9c9d0D0dB883D6E050D059",
      "assetIds": [
        "41506478881403507969696680653240014914910929820314476107906210059990541021184"
      ],
      "assetValues": [
        1
      ]
    },
    {
      "reservedAddress": "0xBCDE366987eB1736e93428252753B0F468f9DE92",
      "assetIds": [
        "41506478881403507969696680653240014914910929820314476107906210059990541021184"
      ],
      "assetValues": [
        1
      ]
    },
    {
      "reservedAddress": "0xCE433cc911D8DD8FeB5Ef0614f3f908527D03eeD",
      "assetIds": [
        "41506478881403507969696680653240014914910929820314476107906210059990541021184"
      ],
      "assetValues": [
        1
      ]
    },
    {
      "reservedAddress": "0xC882F427330eEb47F96623925086fA2BE9572434",
      "assetIds": [
        "41506478881403507969696680653240014914910929820314476107906210059990541021184"
      ],
      "assetValues": [
        1
      ]
    },
    {
      "reservedAddress": "0xF9831501728289e96fF780ee439BAC75565C57dE",
      "assetIds": [
        "41506478881403507969696680653240014914910929820314476107906210059990541021184"
      ],
      "assetValues": [
        1
      ]
    },
    {
      "reservedAddress": "0x6c14E662b2f29eaB9a33F349f674E6543212532e",
      "assetIds": [
        "41506478881403507969696680653240014914910929820314476107906210059990541021184"
      ],
      "assetValues": [
        1
      ]
    },
    {
      "reservedAddress": "0x00166dc077f76c0619c680f9c992af715bed69b0",
      "assetIds": [
        "41506478881403507969696680653240014914910929820314476107906210059990541021184"
      ],
      "assetValues": [
        1
      ]
    },
    {
      "reservedAddress": "0x002556d2ff1766dc2dcfe95c3066745c0eb2d885",
      "assetIds": [
        "41506478881403507969696680653240014914910929820314476107906210059990541021184"
      ],
      "assetValues": [
        1
      ]
    },
    {
      "reservedAddress": "0x005018f9716f7c617c183fc3b4dd0eb17f72edc3",
      "assetIds": [
        "41506478881403507969696680653240014914910929820314476107906210059990541021184"
      ],
      "assetValues": [
        1
      ]
    },
    {
      "reservedAddress": "0x005c25473bf2367aa821a7072332820ac9902547",
      "assetIds": [
        "41506478881403507969696680653240014914910929820314476107906210059990541021184"
      ],
      "assetValues": [
        1
      ]
    },
    {
      "reservedAddress": "0x00b18ff3222fc785ea8b2ad5521ae472bdeed240",
      "assetIds": [
        "41506478881403507969696680653240014914910929820314476107906210059990541021184"
      ],
      "assetValues": [
        1
      ]
    },
    {
      "reservedAddress": "0x00bb44c02949cedd63fc008efa2a1b80b975836a",
      "assetIds": [
        "41506478881403507969696680653240014914910929820314476107906210059990541021184"
      ],
      "assetValues": [
        1
      ]
    },
    {
      "reservedAddress": "0x00e9119ab8ded94a3d677bb7ea518f1dff69b913",
      "assetIds": [
        "41506478881403507969696680653240014914910929820314476107906210059990541021184"
      ],
      "assetValues": [
        1
      ]
    },
    {
      "reservedAddress": "0x00f580085576d50f1c9769b6f9958c0a5598e882",
      "assetIds": [
        "41506478881403507969696680653240014914910929820314476107906210059990541021184"
      ],
      "assetValues": [
        1
      ]
    },
    {
      "reservedAddress": "0x015e6fbce5119c32db66e7c544365749bb26cf8b",
      "assetIds": [
        "41506478881403507969696680653240014914910929820314476107906210059990541021184"
      ],
      "assetValues": [
        1
      ]
    },
    {
      "reservedAddress": "0x01b3f674eaeda38c7dd58830bbd08fc9b0834f28",
      "assetIds": [
        "41506478881403507969696680653240014914910929820314476107906210059990541021184"
      ],
      "assetValues": [
        1
      ]
    },
    {
      "reservedAddress": "0x01c63b87dc8fea30bc276617deaa2b692d3a6ef0",
      "assetIds": [
        "41506478881403507969696680653240014914910929820314476107906210059990541021184"
      ],
      "assetValues": [
        1
      ]
    },
    {
      "reservedAddress": "0x01cb023186cab05220554ee75b4d69921dd051f1",
      "assetIds": [
        "41506478881403507969696680653240014914910929820314476107906210059990541021184"
      ],
      "assetValues": [
        1
      ]
    },
    {
      "reservedAddress": "0x0242762ad29d4a5fb0db260d44669e55806e477b",
      "assetIds": [
        "41506478881403507969696680653240014914910929820314476107906210059990541021184"
      ],
      "assetValues": [
        1
      ]
    },
    {
      "reservedAddress": "0x02589eb68e4ed2f858fe176891c58f39f4bb8b5b",
      "assetIds": [
        "41506478881403507969696680653240014914910929820314476107906210059990541021184"
      ],
      "assetValues": [
        1
      ]
    },
    {
      "reservedAddress": "0x02702d610a73521c461d2a7ba6daf0af326d91ec",
      "assetIds": [
        "41506478881403507969696680653240014914910929820314476107906210059990541021184"
      ],
      "assetValues": [
        1
      ]
    },
    {
      "reservedAddress": "0x02977fa2b6cf31c38762c3ca506f7274545c994a",
      "assetIds": [
        "41506478881403507969696680653240014914910929820314476107906210059990541021184"
      ],
      "assetValues": [
        1
      ]
    },
    {
      "reservedAddress": "0x029aa19e4b7b3fd8cb997133f7732e5e6a593d67",
      "assetIds": [
        "41506478881403507969696680653240014914910929820314476107906210059990541021184"
      ],
      "assetValues": [
        1
      ]
    },
    {
      "reservedAddress": "0x02ab69e61f7caf7025258fb2047776aca0a151fd",
      "assetIds": [
        "41506478881403507969696680653240014914910929820314476107906210059990541021184"
      ],
      "assetValues": [
        1
      ]
    },
    {
      "reservedAddress": "0x02c545e7e16afbbe405fad98a8a5a9a9feece114",
      "assetIds": [
        "41506478881403507969696680653240014914910929820314476107906210059990541021184"
      ],
      "assetValues": [
        1
      ]
    },
    {
      "reservedAddress": "0x0371e2825658986dfee0c2205b7d0ea6e2cab42d",
      "assetIds": [
        "41506478881403507969696680653240014914910929820314476107906210059990541021184"
      ],
      "assetValues": [
        1
      ]
    },
    {
      "reservedAddress": "0x039e4a6d9633fa330918b1e6dc8183085c9e9b1e",
      "assetIds": [
        "41506478881403507969696680653240014914910929820314476107906210059990541021184"
      ],
      "assetValues": [
        1
      ]
    },
    {
      "reservedAddress": "0x03aa25efa105a6c1682a1e0a4c689951f27b5ef5",
      "assetIds": [
        "41506478881403507969696680653240014914910929820314476107906210059990541021184"
      ],
      "assetValues": [
        1
      ]
    },
    {
      "reservedAddress": "0x03cd4191fe7db66c96a7453a10631983e443f87a",
      "assetIds": [
        "41506478881403507969696680653240014914910929820314476107906210059990541021184"
      ],
      "assetValues": [
        1
      ]
    },
    {
      "reservedAddress": "0x03d6968f256d052e9e7777361c3ae4bd266088af",
      "assetIds": [
        "41506478881403507969696680653240014914910929820314476107906210059990541021184"
      ],
      "assetValues": [
        1
      ]
    },
    {
      "reservedAddress": "0x03da8292331de50e6d8a4e577e3696d88a9c95a4",
      "assetIds": [
        "41506478881403507969696680653240014914910929820314476107906210059990541021184"
      ],
      "assetValues": [
        1
      ]
    },
    {
      "reservedAddress": "0x03ea64a5ced21e2cccfaea0aec283d0a0afe9424",
      "assetIds": [
        "41506478881403507969696680653240014914910929820314476107906210059990541021184"
      ],
      "assetValues": [
        1
      ]
    },
    {
      "reservedAddress": "0x041685a1439185bac44eb05e8044b5efc2614758",
      "assetIds": [
        "41506478881403507969696680653240014914910929820314476107906210059990541021184"
      ],
      "assetValues": [
        1
      ]
    },
    {
      "reservedAddress": "0x042347fa50f7f2ea35768b60935d59524a925031",
      "assetIds": [
        "41506478881403507969696680653240014914910929820314476107906210059990541021184"
      ],
      "assetValues": [
        1
      ]
    },
    {
      "reservedAddress": "0x042796806943301623f76c2f5f1ed311372e12df",
      "assetIds": [
        "41506478881403507969696680653240014914910929820314476107906210059990541021184"
      ],
      "assetValues": [
        1
      ]
    },
    {
      "reservedAddress": "0x043237484b71fc7de10e9105afe498d3f4b80653",
      "assetIds": [
        "41506478881403507969696680653240014914910929820314476107906210059990541021184"
      ],
      "assetValues": [
        1
      ]
    },
    {
      "reservedAddress": "0x047194c053a2805d345fb6498a47c0b4f85434bf",
      "assetIds": [
        "41506478881403507969696680653240014914910929820314476107906210059990541021184"
      ],
      "assetValues": [
        1
      ]
    },
    {
      "reservedAddress": "0x04af51a271f4a7f5d54c86aacd30b72c03e99eae",
      "assetIds": [
        "41506478881403507969696680653240014914910929820314476107906210059990541021184"
      ],
      "assetValues": [
        1
      ]
    },
    {
      "reservedAddress": "0x04c160dfce93dedbc60b509b7db84761c1b3a690",
      "assetIds": [
        "41506478881403507969696680653240014914910929820314476107906210059990541021184"
      ],
      "assetValues": [
        1
      ]
    },
    {
      "reservedAddress": "0x051dce94b53dcf1f51af1d3bc14f615b87650424",
      "assetIds": [
        "41506478881403507969696680653240014914910929820314476107906210059990541021184"
      ],
      "assetValues": [
        1
      ]
    },
    {
      "reservedAddress": "0x051ef9357128b8bbe6bf5e29d1775612c26cbae7",
      "assetIds": [
        "41506478881403507969696680653240014914910929820314476107906210059990541021184"
      ],
      "assetValues": [
        1
      ]
    },
    {
      "reservedAddress": "0x0539c940ae6db86f9b9bb8707bdfc31eebb28746",
      "assetIds": [
        "41506478881403507969696680653240014914910929820314476107906210059990541021184"
      ],
      "assetValues": [
        1
      ]
    },
    {
      "reservedAddress": "0x055e73da1306a9d7fea2a9d3c2318387eda2913a",
      "assetIds": [
        "41506478881403507969696680653240014914910929820314476107906210059990541021184"
      ],
      "assetValues": [
        1
      ]
    },
    {
      "reservedAddress": "0x056f27ec16a06811ef88efabca068710c97c76b6",
      "assetIds": [
        "41506478881403507969696680653240014914910929820314476107906210059990541021184"
      ],
      "assetValues": [
        1
      ]
    },
    {
      "reservedAddress": "0x05baca0bd84cac13d8ffb86c49dc58debcb54672",
      "assetIds": [
        "41506478881403507969696680653240014914910929820314476107906210059990541021184"
      ],
      "assetValues": [
        1
      ]
    },
    {
      "reservedAddress": "0x05be306af289bad22e5585c016b5d67d28ec3534",
      "assetIds": [
        "41506478881403507969696680653240014914910929820314476107906210059990541021184"
      ],
      "assetValues": [
        1
      ]
    },
    {
      "reservedAddress": "0x0609f96f56bee9abde1ac9721a14396a2dba6245",
      "assetIds": [
        "41506478881403507969696680653240014914910929820314476107906210059990541021184"
      ],
      "assetValues": [
        1
      ]
    },
    {
      "reservedAddress": "0x0633654457a06aa12755d892187c083c3893dea7",
      "assetIds": [
        "41506478881403507969696680653240014914910929820314476107906210059990541021184"
      ],
      "assetValues": [
        1
      ]
    },
    {
      "reservedAddress": "0x0652b88b423d432c8eb02a7416247fd10d567286",
      "assetIds": [
        "41506478881403507969696680653240014914910929820314476107906210059990541021184"
      ],
      "assetValues": [
        1
      ]
    },
    {
      "reservedAddress": "0x06618da0fd231844ac9a37f5ef86d946c45a4fdc",
      "assetIds": [
        "41506478881403507969696680653240014914910929820314476107906210059990541021184"
      ],
      "assetValues": [
        1
      ]
    },
    {
      "reservedAddress": "0x067018bacb704d9fb774fd00572d8eddb4adbbad",
      "assetIds": [
        "41506478881403507969696680653240014914910929820314476107906210059990541021184"
      ],
      "assetValues": [
        1
      ]
    },
    {
      "reservedAddress": "0x0672e0ccd57df9bf4d6fdeff3e86d60438544fbc",
      "assetIds": [
        "41506478881403507969696680653240014914910929820314476107906210059990541021184"
      ],
      "assetValues": [
        1
      ]
    },
    {
      "reservedAddress": "0x06c93df4de7a1d6ff530c7c2c3bed65aa88258f1",
      "assetIds": [
        "41506478881403507969696680653240014914910929820314476107906210059990541021184"
      ],
      "assetValues": [
        1
      ]
    },
    {
      "reservedAddress": "0x06ce1f5d0ee2de871d962ed40df5e9ae81fae604",
      "assetIds": [
        "41506478881403507969696680653240014914910929820314476107906210059990541021184"
      ],
      "assetValues": [
        1
      ]
    },
    {
      "reservedAddress": "0x06d2b82427755ed7cc3b11643013acd639ac3c31",
      "assetIds": [
        "41506478881403507969696680653240014914910929820314476107906210059990541021184"
      ],
      "assetValues": [
        1
      ]
    },
    {
      "reservedAddress": "0x0700c5c8b622d6ef17527e8c51f18cb0bb18d708",
      "assetIds": [
        "41506478881403507969696680653240014914910929820314476107906210059990541021184"
      ],
      "assetValues": [
        1
      ]
    },
    {
      "reservedAddress": "0x0704420e4f750a97281ebc73871131838359777b",
      "assetIds": [
        "41506478881403507969696680653240014914910929820314476107906210059990541021184"
      ],
      "assetValues": [
        1
      ]
    },
    {
      "reservedAddress": "0x0766c9b7f93508780aa42a579d394e88fb0cd7d6",
      "assetIds": [
        "41506478881403507969696680653240014914910929820314476107906210059990541021184"
      ],
      "assetValues": [
        1
      ]
    },
    {
      "reservedAddress": "0x07b41b36bbe057672afae60a26a538c96c246a0d",
      "assetIds": [
        "41506478881403507969696680653240014914910929820314476107906210059990541021184"
      ],
      "assetValues": [
        1
      ]
    },
    {
      "reservedAddress": "0x07d6256d5cfe583541f573451975526b998f107e",
      "assetIds": [
        "41506478881403507969696680653240014914910929820314476107906210059990541021184"
      ],
      "assetValues": [
        1
      ]
    },
    {
      "reservedAddress": "0x07d63ece2441f04a0a8954d3fcd0dd4b6822460d",
      "assetIds": [
        "41506478881403507969696680653240014914910929820314476107906210059990541021184"
      ],
      "assetValues": [
        1
      ]
    },
    {
      "reservedAddress": "0x07f3e34c3c23ff2a160c2213131f06d7aef61a47",
      "assetIds": [
        "41506478881403507969696680653240014914910929820314476107906210059990541021184"
      ],
      "assetValues": [
        1
      ]
    },
    {
      "reservedAddress": "0x080ad9d187b0fd917313bcb99b9fed79ec6b5aae",
      "assetIds": [
        "41506478881403507969696680653240014914910929820314476107906210059990541021184"
      ],
      "assetValues": [
        1
      ]
    },
    {
      "reservedAddress": "0x080b24cda8df4c9c2215bdfc6947dd200c561ca7",
      "assetIds": [
        "41506478881403507969696680653240014914910929820314476107906210059990541021184"
      ],
      "assetValues": [
        1
      ]
    },
    {
      "reservedAddress": "0x085c4a5e8e10c4c4bbaeeecffcaa5374897bf931",
      "assetIds": [
        "41506478881403507969696680653240014914910929820314476107906210059990541021184"
      ],
      "assetValues": [
        1
      ]
    },
    {
      "reservedAddress": "0x086972d010fe81e84bc1f583bfe110da7bb8832a",
      "assetIds": [
        "41506478881403507969696680653240014914910929820314476107906210059990541021184"
      ],
      "assetValues": [
        1
      ]
    },
    {
      "reservedAddress": "0x08894e02b950fc44ef7a81da248d4f0bfd6659d4",
      "assetIds": [
        "41506478881403507969696680653240014914910929820314476107906210059990541021184"
      ],
      "assetValues": [
        1
      ]
    },
    {
      "reservedAddress": "0x0889ffd6c0c90adc3659cb9efd8b76f7d0bb20e9",
      "assetIds": [
        "41506478881403507969696680653240014914910929820314476107906210059990541021184"
      ],
      "assetValues": [
        1
      ]
    },
    {
      "reservedAddress": "0x08bf8d6fa77f7bc937e62dcb7a5d1201890c48fa",
      "assetIds": [
        "41506478881403507969696680653240014914910929820314476107906210059990541021184"
      ],
      "assetValues": [
        1
      ]
    },
    {
      "reservedAddress": "0x0925d347f811d264879271d2905f54309eaccb93",
      "assetIds": [
        "41506478881403507969696680653240014914910929820314476107906210059990541021184"
      ],
      "assetValues": [
        1
      ]
    },
    {
      "reservedAddress": "0x093314ee74761ccbb1378a7b7a19821538f6396e",
      "assetIds": [
        "41506478881403507969696680653240014914910929820314476107906210059990541021184"
      ],
      "assetValues": [
        1
      ]
    },
    {
      "reservedAddress": "0x09447f57dcb8d8b04829d969f5d6ce1fc7ef7a64",
      "assetIds": [
        "41506478881403507969696680653240014914910929820314476107906210059990541021184"
      ],
      "assetValues": [
        1
      ]
    },
    {
      "reservedAddress": "0x0951df14fe6cf17b0c716826a3af7bd1bcf7f460",
      "assetIds": [
        "41506478881403507969696680653240014914910929820314476107906210059990541021184"
      ],
      "assetValues": [
        1
      ]
    },
    {
      "reservedAddress": "0x09921d2688bc433917583d9dcbd92c08f2d3dfad",
      "assetIds": [
        "41506478881403507969696680653240014914910929820314476107906210059990541021184"
      ],
      "assetValues": [
        1
      ]
    },
    {
      "reservedAddress": "0x09a5e9ffe158e81e677ff5b7ac7a966780ff2427",
      "assetIds": [
        "41506478881403507969696680653240014914910929820314476107906210059990541021184"
      ],
      "assetValues": [
        1
      ]
    },
    {
      "reservedAddress": "0x0a2492d1b9a80fe094a011d645666653f3d3fc09",
      "assetIds": [
        "41506478881403507969696680653240014914910929820314476107906210059990541021184"
      ],
      "assetValues": [
        1
      ]
    },
    {
      "reservedAddress": "0x0a26e8a4305ad5d9e6844e9d2aad05262b1285e6",
      "assetIds": [
        "41506478881403507969696680653240014914910929820314476107906210059990541021184"
      ],
      "assetValues": [
        1
      ]
    },
    {
      "reservedAddress": "0x0a51a62791347b7e6db0a1d422b47e540ed51db5",
      "assetIds": [
        "41506478881403507969696680653240014914910929820314476107906210059990541021184"
      ],
      "assetValues": [
        1
      ]
    },
    {
      "reservedAddress": "0x0b02b2836299c73ec96bd287442984949c7a6f84",
      "assetIds": [
        "41506478881403507969696680653240014914910929820314476107906210059990541021184"
      ],
      "assetValues": [
        1
      ]
    },
    {
      "reservedAddress": "0x0b401f042e55b0339b3d657c3d759235f2ebd350",
      "assetIds": [
        "41506478881403507969696680653240014914910929820314476107906210059990541021184"
      ],
      "assetValues": [
        1
      ]
    },
    {
      "reservedAddress": "0x0b604134e2fd978ec2618f8539ed8151143576d2",
      "assetIds": [
        "41506478881403507969696680653240014914910929820314476107906210059990541021184"
      ],
      "assetValues": [
        1
      ]
    },
    {
      "reservedAddress": "0x0b64eeeeaf23b475863d50bb79bd118cacd64378",
      "assetIds": [
        "41506478881403507969696680653240014914910929820314476107906210059990541021184"
      ],
      "assetValues": [
        1
      ]
    },
    {
      "reservedAddress": "0x0b946efae53975b97a0d1d02f75fabf55d0d6a96",
      "assetIds": [
        "41506478881403507969696680653240014914910929820314476107906210059990541021184"
      ],
      "assetValues": [
        1
      ]
    },
    {
      "reservedAddress": "0x0bdea430a43fa05226d9b56d9353b50fd352b2c7",
      "assetIds": [
        "41506478881403507969696680653240014914910929820314476107906210059990541021184"
      ],
      "assetValues": [
        1
      ]
    },
    {
      "reservedAddress": "0x0c00a2dcb50cc7edbe956bdf8da91495b8dbb89f",
      "assetIds": [
        "41506478881403507969696680653240014914910929820314476107906210059990541021184"
      ],
      "assetValues": [
        1
      ]
    },
    {
      "reservedAddress": "0x0c18cc3a37e6969df5cce67d1579d645115b4861",
      "assetIds": [
        "41506478881403507969696680653240014914910929820314476107906210059990541021184"
      ],
      "assetValues": [
        1
      ]
    },
    {
      "reservedAddress": "0x0ca8786842fbabb8cf55fe9fb4bae05dadbd0bac",
      "assetIds": [
        "41506478881403507969696680653240014914910929820314476107906210059990541021184"
      ],
      "assetValues": [
        1
      ]
    },
    {
      "reservedAddress": "0x0cc4b7a766edf2791236876f05e5f14d044fab35",
      "assetIds": [
        "41506478881403507969696680653240014914910929820314476107906210059990541021184"
      ],
      "assetValues": [
        1
      ]
    },
    {
      "reservedAddress": "0x0cd46345cd68e38f08280cfb24dc0a0dff8bbf6f",
      "assetIds": [
        "41506478881403507969696680653240014914910929820314476107906210059990541021184"
      ],
      "assetValues": [
        1
      ]
    },
    {
      "reservedAddress": "0x0cf45df98650bbe510f7c6e222fe5d917a4afe00",
      "assetIds": [
        "41506478881403507969696680653240014914910929820314476107906210059990541021184"
      ],
      "assetValues": [
        1
      ]
    },
    {
      "reservedAddress": "0x0d341d16a207ffb066ca102cdf37c89f56a5018b",
      "assetIds": [
        "41506478881403507969696680653240014914910929820314476107906210059990541021184"
      ],
      "assetValues": [
        1
      ]
    },
    {
      "reservedAddress": "0x0d588abc5e6c298874c006b03d622bef496800a0",
      "assetIds": [
        "41506478881403507969696680653240014914910929820314476107906210059990541021184"
      ],
      "assetValues": [
        1
      ]
    },
    {
      "reservedAddress": "0x0d677aae6831a4c8286573fa91bac75fc6bc04d0",
      "assetIds": [
        "41506478881403507969696680653240014914910929820314476107906210059990541021184"
      ],
      "assetValues": [
        1
      ]
    },
    {
      "reservedAddress": "0x0d67846b640ea3d7e7ba12206b3d73b78adece53",
      "assetIds": [
        "41506478881403507969696680653240014914910929820314476107906210059990541021184"
      ],
      "assetValues": [
        1
      ]
    },
    {
      "reservedAddress": "0x0d958e7ad5b7e35a7559738467d0b22b365f1475",
      "assetIds": [
        "41506478881403507969696680653240014914910929820314476107906210059990541021184"
      ],
      "assetValues": [
        1
      ]
    },
    {
      "reservedAddress": "0x0de6d3bef0d5dbd40bacbde2d0f7836e130897af",
      "assetIds": [
        "41506478881403507969696680653240014914910929820314476107906210059990541021184"
      ],
      "assetValues": [
        1
      ]
    },
    {
      "reservedAddress": "0x0e038690449c99e982bb0ab9ff4cf1a9b84e304f",
      "assetIds": [
        "41506478881403507969696680653240014914910929820314476107906210059990541021184"
      ],
      "assetValues": [
        1
      ]
    },
    {
      "reservedAddress": "0x0e52b9228f901b393c182a5c30f2a10db2ae247b",
      "assetIds": [
        "41506478881403507969696680653240014914910929820314476107906210059990541021184"
      ],
      "assetValues": [
        1
      ]
    },
    {
      "reservedAddress": "0x0e91f1bf71d176052a127b6dd680b333b4284b89",
      "assetIds": [
        "41506478881403507969696680653240014914910929820314476107906210059990541021184"
      ],
      "assetValues": [
        1
      ]
    },
    {
      "reservedAddress": "0x0ec2da7be970d90e286db37b63215bd52ba7a21a",
      "assetIds": [
        "41506478881403507969696680653240014914910929820314476107906210059990541021184"
      ],
      "assetValues": [
        1
      ]
    },
    {
      "reservedAddress": "0x0ed84bacfba2477695be935079eecaa0a44d74ee",
      "assetIds": [
        "41506478881403507969696680653240014914910929820314476107906210059990541021184"
      ],
      "assetValues": [
        1
      ]
    },
    {
      "reservedAddress": "0x0f02a15b6f7e2bad308eaf17bc35554b580326a7",
      "assetIds": [
        "41506478881403507969696680653240014914910929820314476107906210059990541021184"
      ],
      "assetValues": [
        1
      ]
    },
    {
      "reservedAddress": "0x0f0924a3a5111e7987a23a49af826d2ba431342e",
      "assetIds": [
        "41506478881403507969696680653240014914910929820314476107906210059990541021184"
      ],
      "assetValues": [
        1
      ]
    },
    {
      "reservedAddress": "0x0f28082ef6ac9639fddc69c9ab18ec6d50becb50",
      "assetIds": [
        "41506478881403507969696680653240014914910929820314476107906210059990541021184"
      ],
      "assetValues": [
        1
      ]
    },
    {
      "reservedAddress": "0x0f44ce21323a9515735714355a8e2ab59e092ca5",
      "assetIds": [
        "41506478881403507969696680653240014914910929820314476107906210059990541021184"
      ],
      "assetValues": [
        1
      ]
    },
    {
      "reservedAddress": "0x100b471e69ff5da03f7eeaa664d70967eb0143bd",
      "assetIds": [
        "41506478881403507969696680653240014914910929820314476107906210059990541021184"
      ],
      "assetValues": [
        1
      ]
    },
    {
      "reservedAddress": "0x102defe537692e9f5a7a93f19f3dc28697a1dc60",
      "assetIds": [
        "41506478881403507969696680653240014914910929820314476107906210059990541021184"
      ],
      "assetValues": [
        1
      ]
    },
    {
      "reservedAddress": "0x1070ccd20d2bd203c5e687f2b6d76d3557b4e04d",
      "assetIds": [
        "41506478881403507969696680653240014914910929820314476107906210059990541021184"
      ],
      "assetValues": [
        1
      ]
    },
    {
      "reservedAddress": "0x108c07764a22dfcffd08f0eb1a74e12f57002809",
      "assetIds": [
        "41506478881403507969696680653240014914910929820314476107906210059990541021184"
      ],
      "assetValues": [
        1
      ]
    },
    {
      "reservedAddress": "0x10a854297504e132d3675587b494eaaf05b94040",
      "assetIds": [
        "41506478881403507969696680653240014914910929820314476107906210059990541021184"
      ],
      "assetValues": [
        1
      ]
    },
    {
      "reservedAddress": "0x10f546a6f4d20d91e5a8506124384759c9f4bc79",
      "assetIds": [
        "41506478881403507969696680653240014914910929820314476107906210059990541021184"
      ],
      "assetValues": [
        1
      ]
    },
    {
      "reservedAddress": "0x111061a4323e866c1933d55b5712c3b960a27e54",
      "assetIds": [
        "41506478881403507969696680653240014914910929820314476107906210059990541021184"
      ],
      "assetValues": [
        1
      ]
    },
    {
      "reservedAddress": "0x112fa84ec35ca5f1a56203e42878c9fbde5e95b6",
      "assetIds": [
        "41506478881403507969696680653240014914910929820314476107906210059990541021184"
      ],
      "assetValues": [
        1
      ]
    },
    {
      "reservedAddress": "0x1145f2b36876e8e7ca8aec737f6e6c6ef9bebcb6",
      "assetIds": [
        "41506478881403507969696680653240014914910929820314476107906210059990541021184"
      ],
      "assetValues": [
        1
      ]
    },
    {
      "reservedAddress": "0x115b72c42fa4d48777a26f612a26bdecf3d40b2d",
      "assetIds": [
        "41506478881403507969696680653240014914910929820314476107906210059990541021184"
      ],
      "assetValues": [
        1
      ]
    },
    {
      "reservedAddress": "0x116a45d9cd43c16d3835d09c735a69befd447866",
      "assetIds": [
        "41506478881403507969696680653240014914910929820314476107906210059990541021184"
      ],
      "assetValues": [
        1
      ]
    },
    {
      "reservedAddress": "0x1187a364dcb403897574ac135ea39549dacd8f0f",
      "assetIds": [
        "41506478881403507969696680653240014914910929820314476107906210059990541021184"
      ],
      "assetValues": [
        1
      ]
    },
    {
      "reservedAddress": "0x118d1e272a8a026ad109b3e3f69fe93b19d0dd12",
      "assetIds": [
        "41506478881403507969696680653240014914910929820314476107906210059990541021184"
      ],
      "assetValues": [
        1
      ]
    },
    {
      "reservedAddress": "0x11b505466d9f7177eee9316f553788329d98f792",
      "assetIds": [
        "41506478881403507969696680653240014914910929820314476107906210059990541021184"
      ],
      "assetValues": [
        1
      ]
    },
    {
      "reservedAddress": "0x11b7681ad0b91c23f734abda6048b9524f49518b",
      "assetIds": [
        "41506478881403507969696680653240014914910929820314476107906210059990541021184"
      ],
      "assetValues": [
        1
      ]
    },
    {
      "reservedAddress": "0x11c0b2347c92903308e0a10bdd0ce99d0f649a46",
      "assetIds": [
        "41506478881403507969696680653240014914910929820314476107906210059990541021184"
      ],
      "assetValues": [
        1
      ]
    },
    {
      "reservedAddress": "0x11ed66b222de23a37785a7a62008fc2654893887",
      "assetIds": [
        "41506478881403507969696680653240014914910929820314476107906210059990541021184"
      ],
      "assetValues": [
        1
      ]
    },
    {
      "reservedAddress": "0x12236584445f305c41cc6967d13589c59c472330",
      "assetIds": [
        "41506478881403507969696680653240014914910929820314476107906210059990541021184"
      ],
      "assetValues": [
        1
      ]
    },
    {
      "reservedAddress": "0x1235323ed02b9a5759bb19a1555ec2b9c8b43dbc",
      "assetIds": [
        "41506478881403507969696680653240014914910929820314476107906210059990541021184"
      ],
      "assetValues": [
        1
      ]
    },
    {
      "reservedAddress": "0x123e0b16ab322b9a718d654ad1e6b35f690dc77f",
      "assetIds": [
        "41506478881403507969696680653240014914910929820314476107906210059990541021184"
      ],
      "assetValues": [
        1
      ]
    },
    {
      "reservedAddress": "0x1256e7992564ab22e332532472c916bd8d1e1ca7",
      "assetIds": [
        "41506478881403507969696680653240014914910929820314476107906210059990541021184"
      ],
      "assetValues": [
        1
      ]
    },
    {
      "reservedAddress": "0x12710513dab50f6982d5b7d7054c5a0a2af5ddfc",
      "assetIds": [
        "41506478881403507969696680653240014914910929820314476107906210059990541021184"
      ],
      "assetValues": [
        1
      ]
    },
    {
      "reservedAddress": "0x129d784067e4bef907f504692e3963716ab21c30",
      "assetIds": [
        "41506478881403507969696680653240014914910929820314476107906210059990541021184"
      ],
      "assetValues": [
        1
      ]
    },
    {
      "reservedAddress": "0x12a0e25e62c1dbd32e505446062b26aecb65f028",
      "assetIds": [
        "41506478881403507969696680653240014914910929820314476107906210059990541021184"
      ],
      "assetValues": [
        1
      ]
    },
    {
      "reservedAddress": "0x12aeaa309995ae134d7b610256f9d269b9b40e69",
      "assetIds": [
        "41506478881403507969696680653240014914910929820314476107906210059990541021184"
      ],
      "assetValues": [
        1
      ]
    },
    {
      "reservedAddress": "0x12c5bb996002b4fe34f96b923af97924be19d869",
      "assetIds": [
        "41506478881403507969696680653240014914910929820314476107906210059990541021184"
      ],
      "assetValues": [
        1
      ]
    },
    {
      "reservedAddress": "0x12ef2cd4231d5cf655a6cdd4ac1524ffaa439c17",
      "assetIds": [
        "41506478881403507969696680653240014914910929820314476107906210059990541021184"
      ],
      "assetValues": [
        1
      ]
    },
    {
      "reservedAddress": "0x1323674423cb2dd3c2f30a3bd121d2c96d22016b",
      "assetIds": [
        "41506478881403507969696680653240014914910929820314476107906210059990541021184"
      ],
      "assetValues": [
        1
      ]
    },
    {
      "reservedAddress": "0x1332706a6b68b80c24f7d5fe1d24379c34265e59",
      "assetIds": [
        "41506478881403507969696680653240014914910929820314476107906210059990541021184"
      ],
      "assetValues": [
        1
      ]
    },
    {
      "reservedAddress": "0x13546e2b86177b0b2891115f8909fed66029250f",
      "assetIds": [
        "41506478881403507969696680653240014914910929820314476107906210059990541021184"
      ],
      "assetValues": [
        1
      ]
    },
    {
      "reservedAddress": "0x13fb97da9d2407da6dbc2d6c175b51d0f5d9d903",
      "assetIds": [
        "41506478881403507969696680653240014914910929820314476107906210059990541021184"
      ],
      "assetValues": [
        1
      ]
    },
    {
      "reservedAddress": "0x142066eeba654e744cb4089c584062e3cfb0066a",
      "assetIds": [
        "41506478881403507969696680653240014914910929820314476107906210059990541021184"
      ],
      "assetValues": [
        1
      ]
    },
    {
      "reservedAddress": "0x14508af4e9b344cccbdb39c709a3649efb4aed89",
      "assetIds": [
        "41506478881403507969696680653240014914910929820314476107906210059990541021184"
      ],
      "assetValues": [
        1
      ]
    },
    {
      "reservedAddress": "0x1513b312128163efea62ba98991e593a61081d74",
      "assetIds": [
        "41506478881403507969696680653240014914910929820314476107906210059990541021184"
      ],
      "assetValues": [
        1
      ]
    },
    {
      "reservedAddress": "0x151a7379bea8a7fd1051c046b00d7607a479104b",
      "assetIds": [
        "41506478881403507969696680653240014914910929820314476107906210059990541021184"
      ],
      "assetValues": [
        1
      ]
    },
    {
      "reservedAddress": "0x1525e840ed940d440ba4f33b08561ac4558f590e",
      "assetIds": [
        "41506478881403507969696680653240014914910929820314476107906210059990541021184"
      ],
      "assetValues": [
        1
      ]
    },
    {
      "reservedAddress": "0x152d030f6a7fac2f8239a8c4cac25d76c231dfb3",
      "assetIds": [
        "41506478881403507969696680653240014914910929820314476107906210059990541021184"
      ],
      "assetValues": [
        1
      ]
    },
    {
      "reservedAddress": "0x15442595fbc74b97ff3459d37d845dac867dafaa",
      "assetIds": [
        "41506478881403507969696680653240014914910929820314476107906210059990541021184"
      ],
      "assetValues": [
        1
      ]
    },
    {
      "reservedAddress": "0x16059b9a2a85dc6a692784e14a7e15a82ef87905",
      "assetIds": [
        "41506478881403507969696680653240014914910929820314476107906210059990541021184"
      ],
      "assetValues": [
        1
      ]
    },
    {
      "reservedAddress": "0x160e58e418d107fc3ece00eb85c095a2033d30e9",
      "assetIds": [
        "41506478881403507969696680653240014914910929820314476107906210059990541021184"
      ],
      "assetValues": [
        1
      ]
    },
    {
      "reservedAddress": "0x167539702b5501aadd9b0b85e53532fd57cc71a9",
      "assetIds": [
        "41506478881403507969696680653240014914910929820314476107906210059990541021184"
      ],
      "assetValues": [
        1
      ]
    },
    {
      "reservedAddress": "0x167f897440cfd5227f22349779841f83ddda126a",
      "assetIds": [
        "41506478881403507969696680653240014914910929820314476107906210059990541021184"
      ],
      "assetValues": [
        1
      ]
    },
    {
      "reservedAddress": "0x16aa0a4865a9188ee4888424f72fea33d175b734",
      "assetIds": [
        "41506478881403507969696680653240014914910929820314476107906210059990541021184"
      ],
      "assetValues": [
        1
      ]
    },
    {
      "reservedAddress": "0x16e7c9556e1d7de626ac8144805dc20180628eea",
      "assetIds": [
        "41506478881403507969696680653240014914910929820314476107906210059990541021184"
      ],
      "assetValues": [
        1
      ]
    },
    {
      "reservedAddress": "0x16fbdcd354f05b493e75fdfe24cd295972087d08",
      "assetIds": [
        "41506478881403507969696680653240014914910929820314476107906210059990541021184"
      ],
      "assetValues": [
        1
      ]
    },
    {
      "reservedAddress": "0x170789528a4b2e035fb1d0b4867475aa8c7466c0",
      "assetIds": [
        "41506478881403507969696680653240014914910929820314476107906210059990541021184"
      ],
      "assetValues": [
        1
      ]
    },
    {
      "reservedAddress": "0x171c1cf42c8e11589381f5e4846ffe4e2c7f6d95",
      "assetIds": [
        "41506478881403507969696680653240014914910929820314476107906210059990541021184"
      ],
      "assetValues": [
        1
      ]
    },
    {
      "reservedAddress": "0x17a6b7fc4d460a9533b38d4e91955702e6323998",
      "assetIds": [
        "41506478881403507969696680653240014914910929820314476107906210059990541021184"
      ],
      "assetValues": [
        1
      ]
    },
    {
      "reservedAddress": "0x17ccdda3914ab73f480feea2eca6381c2ce6d4b9",
      "assetIds": [
        "41506478881403507969696680653240014914910929820314476107906210059990541021184"
      ],
      "assetValues": [
        1
      ]
    },
    {
      "reservedAddress": "0x17d9008eda9eea957ec8db3a9f30c7ef89c59b58",
      "assetIds": [
        "41506478881403507969696680653240014914910929820314476107906210059990541021184"
      ],
      "assetValues": [
        1
      ]
    },
    {
      "reservedAddress": "0x1831570e2145ce1048eb566edb9612ec867aa736",
      "assetIds": [
        "41506478881403507969696680653240014914910929820314476107906210059990541021184"
      ],
      "assetValues": [
        1
      ]
    },
    {
      "reservedAddress": "0x1857034ef7c022c4373370ff5211be3da7ea27c1",
      "assetIds": [
        "41506478881403507969696680653240014914910929820314476107906210059990541021184"
      ],
      "assetValues": [
        1
      ]
    },
    {
      "reservedAddress": "0x1878637da33bd51910353da5a3beb039a8c8d0fc",
      "assetIds": [
        "41506478881403507969696680653240014914910929820314476107906210059990541021184"
      ],
      "assetValues": [
        1
      ]
    },
    {
      "reservedAddress": "0x1891c5f6e7a566b2d8017573a807c14678a005af",
      "assetIds": [
        "41506478881403507969696680653240014914910929820314476107906210059990541021184"
      ],
      "assetValues": [
        1
      ]
    },
    {
      "reservedAddress": "0x189c7c007c6bede6080caf2b856ea7797fbd1b4b",
      "assetIds": [
        "41506478881403507969696680653240014914910929820314476107906210059990541021184"
      ],
      "assetValues": [
        1
      ]
    },
    {
      "reservedAddress": "0x18adf984e5ba11a700b90888f4fcac25287cfa07",
      "assetIds": [
        "41506478881403507969696680653240014914910929820314476107906210059990541021184"
      ],
      "assetValues": [
        1
      ]
    },
    {
      "reservedAddress": "0x18ccfa5744f679c5e37c7dca74ee3b34dbf78ae6",
      "assetIds": [
        "41506478881403507969696680653240014914910929820314476107906210059990541021184"
      ],
      "assetValues": [
        1
      ]
    },
    {
      "reservedAddress": "0x1916c05fd89ef9b60d5296ca432cf274989c68b6",
      "assetIds": [
        "41506478881403507969696680653240014914910929820314476107906210059990541021184"
      ],
      "assetValues": [
        1
      ]
    },
    {
      "reservedAddress": "0x19221de454ca78e846f0aee7273f20c02b9065c4",
      "assetIds": [
        "41506478881403507969696680653240014914910929820314476107906210059990541021184"
      ],
      "assetValues": [
        1
      ]
    },
    {
      "reservedAddress": "0x192afe5debda27ba3f14beb04d0f888c78f923e7",
      "assetIds": [
        "41506478881403507969696680653240014914910929820314476107906210059990541021184"
      ],
      "assetValues": [
        1
      ]
    },
    {
      "reservedAddress": "0x1955fb8a66abf772ae91a6221555b7c422f58a7f",
      "assetIds": [
        "41506478881403507969696680653240014914910929820314476107906210059990541021184"
      ],
      "assetValues": [
        1
      ]
    },
    {
      "reservedAddress": "0x195bef397b9ffb374d95dfd56c3dfcda30999f6f",
      "assetIds": [
        "41506478881403507969696680653240014914910929820314476107906210059990541021184"
      ],
      "assetValues": [
        1
      ]
    },
    {
      "reservedAddress": "0x1985c5b2495842770538e3c0ec9c2fd61179598c",
      "assetIds": [
        "41506478881403507969696680653240014914910929820314476107906210059990541021184"
      ],
      "assetValues": [
        1
      ]
    },
    {
      "reservedAddress": "0x1997169fc82abdc3f54e14e1e2cd75cba24db73c",
      "assetIds": [
        "41506478881403507969696680653240014914910929820314476107906210059990541021184"
      ],
      "assetValues": [
        1
      ]
    },
    {
      "reservedAddress": "0x19b2dda7e0f834a25d079026428c7b66670cc488",
      "assetIds": [
        "41506478881403507969696680653240014914910929820314476107906210059990541021184"
      ],
      "assetValues": [
        1
      ]
    },
    {
      "reservedAddress": "0x19b5b368ddaaf2248fbd25de9b3fbdef6cc6cc64",
      "assetIds": [
        "41506478881403507969696680653240014914910929820314476107906210059990541021184"
      ],
      "assetValues": [
        1
      ]
    },
    {
      "reservedAddress": "0x19dd9425fc3bff996d0eb3f21afb457c467d1882",
      "assetIds": [
        "41506478881403507969696680653240014914910929820314476107906210059990541021184"
      ],
      "assetValues": [
        1
      ]
    },
    {
      "reservedAddress": "0x1a1a64ac35ea174cda812bc9e6b65ac846c59236",
      "assetIds": [
        "41506478881403507969696680653240014914910929820314476107906210059990541021184"
      ],
      "assetValues": [
        1
      ]
    },
    {
      "reservedAddress": "0x1a1dfc69bcca1521ba39f87c7569c9a1db006415",
      "assetIds": [
        "41506478881403507969696680653240014914910929820314476107906210059990541021184"
      ],
      "assetValues": [
        1
      ]
    },
    {
      "reservedAddress": "0x1a38c9706524bed59792af9d265ad1add993857c",
      "assetIds": [
        "41506478881403507969696680653240014914910929820314476107906210059990541021184"
      ],
      "assetValues": [
        1
      ]
    },
    {
      "reservedAddress": "0x1a6db538813dbfa63e1f19f8804447187b7d401d",
      "assetIds": [
        "41506478881403507969696680653240014914910929820314476107906210059990541021184"
      ],
      "assetValues": [
        1
      ]
    },
    {
      "reservedAddress": "0x1b3cd68b2fcea1e02b12bfcb83c7f167df55283c",
      "assetIds": [
        "41506478881403507969696680653240014914910929820314476107906210059990541021184"
      ],
      "assetValues": [
        1
      ]
    },
    {
      "reservedAddress": "0x1b88ff8fcb1b677c3771e9ed56a620df010b5829",
      "assetIds": [
        "41506478881403507969696680653240014914910929820314476107906210059990541021184"
      ],
      "assetValues": [
        1
      ]
    },
    {
      "reservedAddress": "0x1b8e15229f052b42c1bdff4a7d131fa600447972",
      "assetIds": [
        "41506478881403507969696680653240014914910929820314476107906210059990541021184"
      ],
      "assetValues": [
        1
      ]
    },
    {
      "reservedAddress": "0x1b9d39da4aab19dccfbc17a16f876effcc73eafd",
      "assetIds": [
        "41506478881403507969696680653240014914910929820314476107906210059990541021184"
      ],
      "assetValues": [
        1
      ]
    },
    {
      "reservedAddress": "0x1c230f1b9deb1ce6c68fda7152d6a725ae08b8e2",
      "assetIds": [
        "41506478881403507969696680653240014914910929820314476107906210059990541021184"
      ],
      "assetValues": [
        1
      ]
    },
    {
      "reservedAddress": "0x1c26cf6ba8ddb064618fce4b98447587bc83a3f6",
      "assetIds": [
        "41506478881403507969696680653240014914910929820314476107906210059990541021184"
      ],
      "assetValues": [
        1
      ]
    },
    {
      "reservedAddress": "0x1c5a7e2250cc51ebec2b8fefe2ef705c01a483ce",
      "assetIds": [
        "41506478881403507969696680653240014914910929820314476107906210059990541021184"
      ],
      "assetValues": [
        1
      ]
    },
    {
      "reservedAddress": "0x1c5eb68630ccd90c3152fb9dee3a1c2a7201631d",
      "assetIds": [
        "41506478881403507969696680653240014914910929820314476107906210059990541021184"
      ],
      "assetValues": [
        1
      ]
    },
    {
      "reservedAddress": "0x1c6672083e30bda743c3c92bdbd0b1fcccfcc944",
      "assetIds": [
        "41506478881403507969696680653240014914910929820314476107906210059990541021184"
      ],
      "assetValues": [
        1
      ]
    },
    {
      "reservedAddress": "0x1c785fc082c128ed33228b3c9817a97b1ce17024",
      "assetIds": [
        "41506478881403507969696680653240014914910929820314476107906210059990541021184"
      ],
      "assetValues": [
        1
      ]
    },
    {
      "reservedAddress": "0x1c8733149a7e66a13fe1797b2634371e91ea1191",
      "assetIds": [
        "41506478881403507969696680653240014914910929820314476107906210059990541021184"
      ],
      "assetValues": [
        1
      ]
    },
    {
      "reservedAddress": "0x1cd00e043275fa3d6d4f29b6a5e426f967eab307",
      "assetIds": [
        "41506478881403507969696680653240014914910929820314476107906210059990541021184"
      ],
      "assetValues": [
        1
      ]
    },
    {
      "reservedAddress": "0x1d141ffd350da9a8cc3f7b88fc60a4a7aae84aad",
      "assetIds": [
        "41506478881403507969696680653240014914910929820314476107906210059990541021184"
      ],
      "assetValues": [
        1
      ]
    },
    {
      "reservedAddress": "0x1d21dd4d82f8f162b562570125937ac1488b1930",
      "assetIds": [
        "41506478881403507969696680653240014914910929820314476107906210059990541021184"
      ],
      "assetValues": [
        1
      ]
    },
    {
      "reservedAddress": "0x1d3b416ddd86008cb30e3e7da33cce85efad8aca",
      "assetIds": [
        "41506478881403507969696680653240014914910929820314476107906210059990541021184"
      ],
      "assetValues": [
        1
      ]
    },
    {
      "reservedAddress": "0x1d3c68cba44315834beddccdab3aef75b4454e29",
      "assetIds": [
        "41506478881403507969696680653240014914910929820314476107906210059990541021184"
      ],
      "assetValues": [
        1
      ]
    },
    {
      "reservedAddress": "0x1d761e926aabe366f572b5cb2a4c313f7758f0ae",
      "assetIds": [
        "41506478881403507969696680653240014914910929820314476107906210059990541021184"
      ],
      "assetValues": [
        1
      ]
    },
    {
      "reservedAddress": "0x1dbe1df6b52fa1cfe6a4760496826995db8613ec",
      "assetIds": [
        "41506478881403507969696680653240014914910929820314476107906210059990541021184"
      ],
      "assetValues": [
        1
      ]
    },
    {
      "reservedAddress": "0x1dc707e04b4db23beec21019593fe8e7361c1157",
      "assetIds": [
        "41506478881403507969696680653240014914910929820314476107906210059990541021184"
      ],
      "assetValues": [
        1
      ]
    },
    {
      "reservedAddress": "0x1dfaabdb3abc89d7b325b6a820b94f9aefad6c30",
      "assetIds": [
        "41506478881403507969696680653240014914910929820314476107906210059990541021184"
      ],
      "assetValues": [
        1
      ]
    },
    {
      "reservedAddress": "0x1e33fa287537f185f0cb89f8ef69bbf54fe64ec2",
      "assetIds": [
        "41506478881403507969696680653240014914910929820314476107906210059990541021184"
      ],
      "assetValues": [
        1
      ]
    },
    {
      "reservedAddress": "0x1e37146870ec455b53dfa1809f6e9f02ad06ce7b",
      "assetIds": [
        "41506478881403507969696680653240014914910929820314476107906210059990541021184"
      ],
      "assetValues": [
        1
      ]
    },
    {
      "reservedAddress": "0x1e556616494e451139b6092155c2bc0057f34d40",
      "assetIds": [
        "41506478881403507969696680653240014914910929820314476107906210059990541021184"
      ],
      "assetValues": [
        1
      ]
    },
    {
      "reservedAddress": "0x1f1163c6c0a85e91fe60f8dd5d1a7007ddbf95c9",
      "assetIds": [
        "41506478881403507969696680653240014914910929820314476107906210059990541021184"
      ],
      "assetValues": [
        1
      ]
    },
    {
      "reservedAddress": "0x1f52ef0357da6a0bda15c5823f0b54e32a9cbb94",
      "assetIds": [
        "41506478881403507969696680653240014914910929820314476107906210059990541021184"
      ],
      "assetValues": [
        1
      ]
    },
    {
      "reservedAddress": "0x1f56e5e61e002339f4685bb77515b52e20538ac5",
      "assetIds": [
        "41506478881403507969696680653240014914910929820314476107906210059990541021184"
      ],
      "assetValues": [
        1
      ]
    },
    {
      "reservedAddress": "0x1f6045b5b25634a69bb685b2029529140f1fd9e4",
      "assetIds": [
        "41506478881403507969696680653240014914910929820314476107906210059990541021184"
      ],
      "assetValues": [
        1
      ]
    },
    {
      "reservedAddress": "0x1f811a633f53d92751b955681f2a3114c92fa69f",
      "assetIds": [
        "41506478881403507969696680653240014914910929820314476107906210059990541021184"
      ],
      "assetValues": [
        1
      ]
    },
    {
      "reservedAddress": "0x1f92fc15bcbeb4dd24eefbead8d7aee409f891dc",
      "assetIds": [
        "41506478881403507969696680653240014914910929820314476107906210059990541021184"
      ],
      "assetValues": [
        1
      ]
    },
    {
      "reservedAddress": "0x1fac12dbc20dcd3583694ceda95eecfe72165431",
      "assetIds": [
        "41506478881403507969696680653240014914910929820314476107906210059990541021184"
      ],
      "assetValues": [
        1
      ]
    },
    {
      "reservedAddress": "0x1fd252771bc2dfd38ec774efeeb3c6ab7e8e535b",
      "assetIds": [
        "41506478881403507969696680653240014914910929820314476107906210059990541021184"
      ],
      "assetValues": [
        1
      ]
    },
    {
      "reservedAddress": "0x1fd50f346d8c3f7c519f0e595d4c18a5ef38c17c",
      "assetIds": [
        "41506478881403507969696680653240014914910929820314476107906210059990541021184"
      ],
      "assetValues": [
        1
      ]
    },
    {
      "reservedAddress": "0x1fdea016598eae85e4e80969206ce8c228233511",
      "assetIds": [
        "41506478881403507969696680653240014914910929820314476107906210059990541021184"
      ],
      "assetValues": [
        1
      ]
    },
    {
      "reservedAddress": "0x1fe2a6e59a0ef1e9bb6cfac6e6f9b5f666908824",
      "assetIds": [
        "41506478881403507969696680653240014914910929820314476107906210059990541021184"
      ],
      "assetValues": [
        1
      ]
    },
    {
      "reservedAddress": "0x203ead050b5b97271939b004e89a97e4027e17ed",
      "assetIds": [
        "41506478881403507969696680653240014914910929820314476107906210059990541021184"
      ],
      "assetValues": [
        1
      ]
    },
    {
      "reservedAddress": "0x206e462e301224ea18ee05c8c6300ce69257720d",
      "assetIds": [
        "41506478881403507969696680653240014914910929820314476107906210059990541021184"
      ],
      "assetValues": [
        1
      ]
    },
    {
      "reservedAddress": "0x20f9ac526834fc98205aa4d0ee63c2f85b385042",
      "assetIds": [
        "41506478881403507969696680653240014914910929820314476107906210059990541021184"
      ],
      "assetValues": [
        1
      ]
    },
    {
      "reservedAddress": "0x211c6ffb4fb308794ad507ad30a4503c220efc6c",
      "assetIds": [
        "41506478881403507969696680653240014914910929820314476107906210059990541021184"
      ],
      "assetValues": [
        1
      ]
    },
    {
      "reservedAddress": "0x211c91ccce78f645f311ba74af55a01af3f5c545",
      "assetIds": [
        "41506478881403507969696680653240014914910929820314476107906210059990541021184"
      ],
      "assetValues": [
        1
      ]
    },
    {
      "reservedAddress": "0x2130b458c140d9e0384f5ef3b42507dd03a76832",
      "assetIds": [
        "41506478881403507969696680653240014914910929820314476107906210059990541021184"
      ],
      "assetValues": [
        1
      ]
    },
    {
      "reservedAddress": "0x213cd78f59bce7f119a2acc868a567d6a80163d6",
      "assetIds": [
        "41506478881403507969696680653240014914910929820314476107906210059990541021184"
      ],
      "assetValues": [
        1
      ]
    },
    {
      "reservedAddress": "0x21404146053651905d3585fb0cf5e70614819b2e",
      "assetIds": [
        "41506478881403507969696680653240014914910929820314476107906210059990541021184"
      ],
      "assetValues": [
        1
      ]
    },
    {
      "reservedAddress": "0x21543a89d39730bc239623fd9a41bf379dc3f6f1",
      "assetIds": [
        "41506478881403507969696680653240014914910929820314476107906210059990541021184"
      ],
      "assetValues": [
        1
      ]
    },
    {
      "reservedAddress": "0x215548d386b636b33040984f23a3fdb63b0eb1b1",
      "assetIds": [
        "41506478881403507969696680653240014914910929820314476107906210059990541021184"
      ],
      "assetValues": [
        1
      ]
    },
    {
      "reservedAddress": "0x215d67998dacd9da4118e4a4899bec60b79987a0",
      "assetIds": [
        "41506478881403507969696680653240014914910929820314476107906210059990541021184"
      ],
      "assetValues": [
        1
      ]
    },
    {
      "reservedAddress": "0x21631d18d9681d4ffdd460fc45fa52159fcd95c8",
      "assetIds": [
        "41506478881403507969696680653240014914910929820314476107906210059990541021184"
      ],
      "assetValues": [
        1
      ]
    },
    {
      "reservedAddress": "0x217c70a564a9bc0572426fc068eff0caf70e6b41",
      "assetIds": [
        "41506478881403507969696680653240014914910929820314476107906210059990541021184"
      ],
      "assetValues": [
        1
      ]
    },
    {
      "reservedAddress": "0x21a9b0cbbe0d3883afa01f9a0fea1e89efb56036",
      "assetIds": [
        "41506478881403507969696680653240014914910929820314476107906210059990541021184"
      ],
      "assetValues": [
        1
      ]
    },
    {
      "reservedAddress": "0x21c268fc4ee06a4bc281e1e11ea3e0006e1184a9",
      "assetIds": [
        "41506478881403507969696680653240014914910929820314476107906210059990541021184"
      ],
      "assetValues": [
        1
      ]
    },
    {
      "reservedAddress": "0x21c9d39f385250ecc600be4cabeeacbb49a8927b",
      "assetIds": [
        "41506478881403507969696680653240014914910929820314476107906210059990541021184"
      ],
      "assetValues": [
        1
      ]
    },
    {
      "reservedAddress": "0x21d15d354de0dc27a0a79ec2871606ea78532052",
      "assetIds": [
        "41506478881403507969696680653240014914910929820314476107906210059990541021184"
      ],
      "assetValues": [
        1
      ]
    },
    {
      "reservedAddress": "0x21d6564fb174f78ea9a6efcbcf60c6083ed2378a",
      "assetIds": [
        "41506478881403507969696680653240014914910929820314476107906210059990541021184"
      ],
      "assetValues": [
        1
      ]
    },
    {
      "reservedAddress": "0x21e3f3db518cceb1cbd046975bfe907a6aa19054",
      "assetIds": [
        "41506478881403507969696680653240014914910929820314476107906210059990541021184"
      ],
      "assetValues": [
        1
      ]
    },
    {
      "reservedAddress": "0x21f6794882b0d38c28abc2b675afc0b413776640",
      "assetIds": [
        "41506478881403507969696680653240014914910929820314476107906210059990541021184"
      ],
      "assetValues": [
        1
      ]
    },
    {
      "reservedAddress": "0x2213a3c4a1377439f2b866c3a0ead7e9929eec4b",
      "assetIds": [
        "41506478881403507969696680653240014914910929820314476107906210059990541021184"
      ],
      "assetValues": [
        1
      ]
    },
    {
      "reservedAddress": "0x2216bb594761e1092405cb9dcf05c81b9cf11e93",
      "assetIds": [
        "41506478881403507969696680653240014914910929820314476107906210059990541021184"
      ],
      "assetValues": [
        1
      ]
    },
    {
      "reservedAddress": "0x224c3345828bd25cb71bc454ab65cd6b0bb7d765",
      "assetIds": [
        "41506478881403507969696680653240014914910929820314476107906210059990541021184"
      ],
      "assetValues": [
        1
      ]
    },
    {
      "reservedAddress": "0x22bafa0694d73fb7e774290135b98d15e2486508",
      "assetIds": [
        "41506478881403507969696680653240014914910929820314476107906210059990541021184"
      ],
      "assetValues": [
        1
      ]
    },
    {
      "reservedAddress": "0x230a4f12cf3f1b39de136fa462b8a553df2150f1",
      "assetIds": [
        "41506478881403507969696680653240014914910929820314476107906210059990541021184"
      ],
      "assetValues": [
        1
      ]
    },
    {
      "reservedAddress": "0x2316b36d718353dd2334965337a8fcb21f6c4be5",
      "assetIds": [
        "41506478881403507969696680653240014914910929820314476107906210059990541021184"
      ],
      "assetValues": [
        1
      ]
    },
    {
      "reservedAddress": "0x23430e50a560b968f3d3eed8f804fe6d3c36a078",
      "assetIds": [
        "41506478881403507969696680653240014914910929820314476107906210059990541021184"
      ],
      "assetValues": [
        1
      ]
    },
    {
      "reservedAddress": "0x234857105585f99a6bb80fbca009309b7b7aa779",
      "assetIds": [
        "41506478881403507969696680653240014914910929820314476107906210059990541021184"
      ],
      "assetValues": [
        1
      ]
    },
    {
      "reservedAddress": "0x234a14fddcc2e533156b5a636db9a071d54e9baf",
      "assetIds": [
        "41506478881403507969696680653240014914910929820314476107906210059990541021184"
      ],
      "assetValues": [
        1
      ]
    },
    {
      "reservedAddress": "0x2388c724e350759ca282b2133e4c2f56ded60cd7",
      "assetIds": [
        "41506478881403507969696680653240014914910929820314476107906210059990541021184"
      ],
      "assetValues": [
        1
      ]
    },
    {
      "reservedAddress": "0x2389b162e4d22ad91b8820da0652f6cf115f33d5",
      "assetIds": [
        "41506478881403507969696680653240014914910929820314476107906210059990541021184"
      ],
      "assetValues": [
        1
      ]
    },
    {
      "reservedAddress": "0x238f24101876377e9178d125d0747de7fad9c3b2",
      "assetIds": [
        "41506478881403507969696680653240014914910929820314476107906210059990541021184"
      ],
      "assetValues": [
        1
      ]
    },
    {
      "reservedAddress": "0x23a9f30d53357f46a1e43b19b9ad176014a94922",
      "assetIds": [
        "41506478881403507969696680653240014914910929820314476107906210059990541021184"
      ],
      "assetValues": [
        1
      ]
    },
    {
      "reservedAddress": "0x23abd34ac3c08b261196c5061d04a613d18dd2db",
      "assetIds": [
        "41506478881403507969696680653240014914910929820314476107906210059990541021184"
      ],
      "assetValues": [
        1
      ]
    },
    {
      "reservedAddress": "0x23af5518409043cf8e438ca96e2bff719442dea3",
      "assetIds": [
        "41506478881403507969696680653240014914910929820314476107906210059990541021184"
      ],
      "assetValues": [
        1
      ]
    },
    {
      "reservedAddress": "0x23d141e4ef2a05dc34ce73b672973bdb0bdcfaf0",
      "assetIds": [
        "41506478881403507969696680653240014914910929820314476107906210059990541021184"
      ],
      "assetValues": [
        1
      ]
    },
    {
      "reservedAddress": "0x240cc373085818ed0a26f388b8629773d6482505",
      "assetIds": [
        "41506478881403507969696680653240014914910929820314476107906210059990541021184"
      ],
      "assetValues": [
        1
      ]
    },
    {
      "reservedAddress": "0x24435205eaf97df22b6f2a2463ba039497596ba4",
      "assetIds": [
        "41506478881403507969696680653240014914910929820314476107906210059990541021184"
      ],
      "assetValues": [
        1
      ]
    },
    {
      "reservedAddress": "0x249bf58257bb15fc078a2af0c156fcd717f983ca",
      "assetIds": [
        "41506478881403507969696680653240014914910929820314476107906210059990541021184"
      ],
      "assetValues": [
        1
      ]
    },
    {
      "reservedAddress": "0x24c5dffc8d7dcf2ace9e33b9c1f27f353bac0612",
      "assetIds": [
        "41506478881403507969696680653240014914910929820314476107906210059990541021184"
      ],
      "assetValues": [
        1
      ]
    },
    {
      "reservedAddress": "0x24e96d3c3358b35171bd6da4c1ac8a75a5bd0ba0",
      "assetIds": [
        "41506478881403507969696680653240014914910929820314476107906210059990541021184"
      ],
      "assetValues": [
        1
      ]
    },
    {
      "reservedAddress": "0x24f8ecf02cd9e3b21ceb16a468096a5f7f319ef3",
      "assetIds": [
        "41506478881403507969696680653240014914910929820314476107906210059990541021184"
      ],
      "assetValues": [
        1
      ]
    },
    {
      "reservedAddress": "0x24f9112ef82d70ccb612b26e7743405d83bfeda2",
      "assetIds": [
        "41506478881403507969696680653240014914910929820314476107906210059990541021184"
      ],
      "assetValues": [
        1
      ]
    },
    {
      "reservedAddress": "0x25125e438b7ae0f9ae8511d83abb0f4574217c7a",
      "assetIds": [
        "41506478881403507969696680653240014914910929820314476107906210059990541021184"
      ],
      "assetValues": [
        1
      ]
    },
    {
      "reservedAddress": "0x2578200f642b2e8eb464b2483b23ec3012fb2414",
      "assetIds": [
        "41506478881403507969696680653240014914910929820314476107906210059990541021184"
      ],
      "assetValues": [
        1
      ]
    },
    {
      "reservedAddress": "0x25afd857c7831c91951cd94ba63af237d28604d0",
      "assetIds": [
        "41506478881403507969696680653240014914910929820314476107906210059990541021184"
      ],
      "assetValues": [
        1
      ]
    },
    {
      "reservedAddress": "0x25ccf7e4a3ed574325733219d99253694329493e",
      "assetIds": [
        "41506478881403507969696680653240014914910929820314476107906210059990541021184"
      ],
      "assetValues": [
        1
      ]
    },
    {
      "reservedAddress": "0x25d9b5288c2934d877fc5f69105a9108938512ac",
      "assetIds": [
        "41506478881403507969696680653240014914910929820314476107906210059990541021184"
      ],
      "assetValues": [
        1
      ]
    },
    {
      "reservedAddress": "0x25fec9a78da3be5b19168fcab86743355772149f",
      "assetIds": [
        "41506478881403507969696680653240014914910929820314476107906210059990541021184"
      ],
      "assetValues": [
        1
      ]
    },
    {
      "reservedAddress": "0x25fff4689be582515ac968cc85e9b6d56076a297",
      "assetIds": [
        "41506478881403507969696680653240014914910929820314476107906210059990541021184"
      ],
      "assetValues": [
        1
      ]
    },
    {
      "reservedAddress": "0x2642f681ec87f87d7eac5068165e31f468a5f05e",
      "assetIds": [
        "41506478881403507969696680653240014914910929820314476107906210059990541021184"
      ],
      "assetValues": [
        1
      ]
    },
    {
      "reservedAddress": "0x268a41e5097c7aadeec644817f73f7bcd4785141",
      "assetIds": [
        "41506478881403507969696680653240014914910929820314476107906210059990541021184"
      ],
      "assetValues": [
        1
      ]
    },
    {
      "reservedAddress": "0x26921a182cf9d6f33730d7f37e1a86fd430863af",
      "assetIds": [
        "41506478881403507969696680653240014914910929820314476107906210059990541021184"
      ],
      "assetValues": [
        1
      ]
    },
    {
      "reservedAddress": "0x26a22514d3ac0b05e2f4f04df96ef302ba434cbe",
      "assetIds": [
        "41506478881403507969696680653240014914910929820314476107906210059990541021184"
      ],
      "assetValues": [
        1
      ]
    },
    {
      "reservedAddress": "0x26a6dc267e276fded7b40251c8fc08b1b40df367",
      "assetIds": [
        "41506478881403507969696680653240014914910929820314476107906210059990541021184"
      ],
      "assetValues": [
        1
      ]
    },
    {
      "reservedAddress": "0x270864586801f4bdf2022a9c85071ec9e7e08dd2",
      "assetIds": [
        "41506478881403507969696680653240014914910929820314476107906210059990541021184"
      ],
      "assetValues": [
        1
      ]
    },
    {
      "reservedAddress": "0x27272c30ceabb38e38f7031aae9abb991beb9604",
      "assetIds": [
        "41506478881403507969696680653240014914910929820314476107906210059990541021184"
      ],
      "assetValues": [
        1
      ]
    },
    {
      "reservedAddress": "0x27698c5806ad3c76be873b36856cfbf9dac20406",
      "assetIds": [
        "41506478881403507969696680653240014914910929820314476107906210059990541021184"
      ],
      "assetValues": [
        1
      ]
    },
    {
      "reservedAddress": "0x2776dca31dfc7cce9c30a94917d0d72605b52ada",
      "assetIds": [
        "41506478881403507969696680653240014914910929820314476107906210059990541021184"
      ],
      "assetValues": [
        1
      ]
    },
    {
      "reservedAddress": "0x278a0dcbdd26093b79360dd68d4c5ea53deedd49",
      "assetIds": [
        "41506478881403507969696680653240014914910929820314476107906210059990541021184"
      ],
      "assetValues": [
        1
      ]
    },
    {
      "reservedAddress": "0x2797e4851d48e00624c456fe3a7164480d30b784",
      "assetIds": [
        "41506478881403507969696680653240014914910929820314476107906210059990541021184"
      ],
      "assetValues": [
        1
      ]
    },
    {
      "reservedAddress": "0x27cd61c3e4b7ec8b07eb960ebb8695f12b166c3d",
      "assetIds": [
        "41506478881403507969696680653240014914910929820314476107906210059990541021184"
      ],
      "assetValues": [
        1
      ]
    },
    {
      "reservedAddress": "0x27cfb1b71a3dcd6b7f19c273b70154a516b17c4f",
      "assetIds": [
        "41506478881403507969696680653240014914910929820314476107906210059990541021184"
      ],
      "assetValues": [
        1
      ]
    },
    {
      "reservedAddress": "0x28398e255a07421c1dacede3a9b77fa9c8fbb252",
      "assetIds": [
        "41506478881403507969696680653240014914910929820314476107906210059990541021184"
      ],
      "assetValues": [
        1
      ]
    },
    {
      "reservedAddress": "0x2842c8bdd2ffb99fd1ba35b0554e1df280d74c6f",
      "assetIds": [
        "41506478881403507969696680653240014914910929820314476107906210059990541021184"
      ],
      "assetValues": [
        1
      ]
    },
    {
      "reservedAddress": "0x285b7f8cb734dd5c249869dc96963c3873a3ae14",
      "assetIds": [
        "41506478881403507969696680653240014914910929820314476107906210059990541021184"
      ],
      "assetValues": [
        1
      ]
    },
    {
      "reservedAddress": "0x286291621f9f0715fd0aacd2e8c13f15691a1706",
      "assetIds": [
        "41506478881403507969696680653240014914910929820314476107906210059990541021184"
      ],
      "assetValues": [
        1
      ]
    },
    {
      "reservedAddress": "0x286934bbaee844a88ca9ef633d5e513cc404790f",
      "assetIds": [
        "41506478881403507969696680653240014914910929820314476107906210059990541021184"
      ],
      "assetValues": [
        1
      ]
    },
    {
      "reservedAddress": "0x28b2d304ef768fe2582ed5c315a31523b7c3233d",
      "assetIds": [
        "41506478881403507969696680653240014914910929820314476107906210059990541021184"
      ],
      "assetValues": [
        1
      ]
    },
    {
      "reservedAddress": "0x28cc7490d49fad39dd0db8fbaf3108475e1ea310",
      "assetIds": [
        "41506478881403507969696680653240014914910929820314476107906210059990541021184"
      ],
      "assetValues": [
        1
      ]
    },
    {
      "reservedAddress": "0x29263967ecf5d2c808e750f875634c9771a9badd",
      "assetIds": [
        "41506478881403507969696680653240014914910929820314476107906210059990541021184"
      ],
      "assetValues": [
        1
      ]
    },
    {
      "reservedAddress": "0x297c55e99d50182670fe711474d27d5c2d43a5d1",
      "assetIds": [
        "41506478881403507969696680653240014914910929820314476107906210059990541021184"
      ],
      "assetValues": [
        1
      ]
    },
    {
      "reservedAddress": "0x29af7bd54d7b9a5c5aa50eb0f3da9bbe51e062ef",
      "assetIds": [
        "41506478881403507969696680653240014914910929820314476107906210059990541021184"
      ],
      "assetValues": [
        1
      ]
    },
    {
      "reservedAddress": "0x29f63f75d0a6d08d50983020ea8b0bbaf7859ba7",
      "assetIds": [
        "41506478881403507969696680653240014914910929820314476107906210059990541021184"
      ],
      "assetValues": [
        1
      ]
    },
    {
      "reservedAddress": "0x2a04470c3e3ece4a7a0c13c7bc68525af7d92840",
      "assetIds": [
        "41506478881403507969696680653240014914910929820314476107906210059990541021184"
      ],
      "assetValues": [
        1
      ]
    },
    {
      "reservedAddress": "0x2a1152be99179ad4964a9f2a8c8d1bb905b79bf4",
      "assetIds": [
        "41506478881403507969696680653240014914910929820314476107906210059990541021184"
      ],
      "assetValues": [
        1
      ]
    },
    {
      "reservedAddress": "0x2a5ad14250f9eeb2cd6598c59e2786f70c171b65",
      "assetIds": [
        "41506478881403507969696680653240014914910929820314476107906210059990541021184"
      ],
      "assetValues": [
        1
      ]
    },
    {
      "reservedAddress": "0x2a678781388a9a73232e0b14bf14880b0eceb2e8",
      "assetIds": [
        "41506478881403507969696680653240014914910929820314476107906210059990541021184"
      ],
      "assetValues": [
        1
      ]
    },
    {
      "reservedAddress": "0x2a83048d848b4d2cd1e867dcf151486943759eea",
      "assetIds": [
        "41506478881403507969696680653240014914910929820314476107906210059990541021184"
      ],
      "assetValues": [
        1
      ]
    },
    {
      "reservedAddress": "0x2b00d0d2412281756ae2dccfba73752fd9df1886",
      "assetIds": [
        "41506478881403507969696680653240014914910929820314476107906210059990541021184"
      ],
      "assetValues": [
        1
      ]
    },
    {
      "reservedAddress": "0x2b114eec4f9f7e6f76e5a82e14d316a2d3808902",
      "assetIds": [
        "41506478881403507969696680653240014914910929820314476107906210059990541021184"
      ],
      "assetValues": [
        1
      ]
    },
    {
      "reservedAddress": "0x2b311d4f8ede7fd78c95547ef570043dd2e26793",
      "assetIds": [
        "41506478881403507969696680653240014914910929820314476107906210059990541021184"
      ],
      "assetValues": [
        1
      ]
    },
    {
      "reservedAddress": "0x2b776cbd98415181fbf001abbf17bb92649cd0ba",
      "assetIds": [
        "41506478881403507969696680653240014914910929820314476107906210059990541021184"
      ],
      "assetValues": [
        1
      ]
    },
    {
      "reservedAddress": "0x2b930761f11dd3afc29e5c40bef8bb9bf12ab61e",
      "assetIds": [
        "41506478881403507969696680653240014914910929820314476107906210059990541021184"
      ],
      "assetValues": [
        1
      ]
    },
    {
      "reservedAddress": "0x2b9d54e060a0592ae669acb30d5c155a4f363ca2",
      "assetIds": [
        "41506478881403507969696680653240014914910929820314476107906210059990541021184"
      ],
      "assetValues": [
        1
      ]
    },
    {
      "reservedAddress": "0x2ba8ebed94a70581efd973455b85535d1e98a59e",
      "assetIds": [
        "41506478881403507969696680653240014914910929820314476107906210059990541021184"
      ],
      "assetValues": [
        1
      ]
    },
    {
      "reservedAddress": "0x2baf1556a3924948a10ab51f24d965480f397843",
      "assetIds": [
        "41506478881403507969696680653240014914910929820314476107906210059990541021184"
      ],
      "assetValues": [
        1
      ]
    },
    {
      "reservedAddress": "0x2bd595e7ffc811f0b46d7280f0bebacfe573408b",
      "assetIds": [
        "41506478881403507969696680653240014914910929820314476107906210059990541021184"
      ],
      "assetValues": [
        1
      ]
    },
    {
      "reservedAddress": "0x2bd655d1e97328e5bd53e7344ffd0f1e225d6e3d",
      "assetIds": [
        "41506478881403507969696680653240014914910929820314476107906210059990541021184"
      ],
      "assetValues": [
        1
      ]
    },
    {
      "reservedAddress": "0x2c13460bd42875bea47909891d75479067e98a1d",
      "assetIds": [
        "41506478881403507969696680653240014914910929820314476107906210059990541021184"
      ],
      "assetValues": [
        1
      ]
    },
    {
      "reservedAddress": "0x2c1c0e2943446a2bb32d4e69dd499998057b1122",
      "assetIds": [
        "41506478881403507969696680653240014914910929820314476107906210059990541021184"
      ],
      "assetValues": [
        1
      ]
    },
    {
      "reservedAddress": "0x2c3f500d7b743eae6a41831184ff1caae951ea12",
      "assetIds": [
        "41506478881403507969696680653240014914910929820314476107906210059990541021184"
      ],
      "assetValues": [
        1
      ]
    },
    {
      "reservedAddress": "0x2c6c2b1a1f2b0739a2457a46d43fdf06c07e30c4",
      "assetIds": [
        "41506478881403507969696680653240014914910929820314476107906210059990541021184"
      ],
      "assetValues": [
        1
      ]
    },
    {
      "reservedAddress": "0x2c7a221e153a55ea60b52bb3930277de99419a3e",
      "assetIds": [
        "41506478881403507969696680653240014914910929820314476107906210059990541021184"
      ],
      "assetValues": [
        1
      ]
    },
    {
      "reservedAddress": "0x2c95cf4df95566dcb123c8a7d3f0853fe8c32cba",
      "assetIds": [
        "41506478881403507969696680653240014914910929820314476107906210059990541021184"
      ],
      "assetValues": [
        1
      ]
    },
    {
      "reservedAddress": "0x2cd36fc11944703132db7b8333d09a9b44485764",
      "assetIds": [
        "41506478881403507969696680653240014914910929820314476107906210059990541021184"
      ],
      "assetValues": [
        1
      ]
    },
    {
      "reservedAddress": "0x2cf1dae5e529f3025d5d0036d59da06a024fb706",
      "assetIds": [
        "41506478881403507969696680653240014914910929820314476107906210059990541021184"
      ],
      "assetValues": [
        1
      ]
    },
    {
      "reservedAddress": "0x2d2861a73e7e4c2739edfeecbd9673f1863cb22e",
      "assetIds": [
        "41506478881403507969696680653240014914910929820314476107906210059990541021184"
      ],
      "assetValues": [
        1
      ]
    },
    {
      "reservedAddress": "0x2d36c0aa6c98a95b372b346265e1d022d08b8856",
      "assetIds": [
        "41506478881403507969696680653240014914910929820314476107906210059990541021184"
      ],
      "assetValues": [
        1
      ]
    },
    {
      "reservedAddress": "0x2d49715d125c00320e4e05457da707779622ab0f",
      "assetIds": [
        "41506478881403507969696680653240014914910929820314476107906210059990541021184"
      ],
      "assetValues": [
        1
      ]
    },
    {
      "reservedAddress": "0x2d66939cf5e9e03980903bc4aeee98f67162e058",
      "assetIds": [
        "41506478881403507969696680653240014914910929820314476107906210059990541021184"
      ],
      "assetValues": [
        1
      ]
    },
    {
      "reservedAddress": "0x2de2299db048a9e3b8d1934b8dae11b8041cc4fd",
      "assetIds": [
        "41506478881403507969696680653240014914910929820314476107906210059990541021184"
      ],
      "assetValues": [
        1
      ]
    },
    {
      "reservedAddress": "0x2de5b23fae83a61d6422c64d1f20c487399af0a1",
      "assetIds": [
        "41506478881403507969696680653240014914910929820314476107906210059990541021184"
      ],
      "assetValues": [
        1
      ]
    },
    {
      "reservedAddress": "0x2de7040994abf7b8064b91b4cae73e9432d84f00",
      "assetIds": [
        "41506478881403507969696680653240014914910929820314476107906210059990541021184"
      ],
      "assetValues": [
        1
      ]
    },
    {
      "reservedAddress": "0x2dfe15d193ab764cebc2af34dd1ec3999867caa2",
      "assetIds": [
        "41506478881403507969696680653240014914910929820314476107906210059990541021184"
      ],
      "assetValues": [
        1
      ]
    },
    {
      "reservedAddress": "0x2e0d4482621b233e29bdd5556a74c9f94578218b",
      "assetIds": [
        "41506478881403507969696680653240014914910929820314476107906210059990541021184"
      ],
      "assetValues": [
        1
      ]
    },
    {
      "reservedAddress": "0x2e0d63ffcb08ea20ff3acdbb72dfec97343885d2",
      "assetIds": [
        "41506478881403507969696680653240014914910929820314476107906210059990541021184"
      ],
      "assetValues": [
        1
      ]
    },
    {
      "reservedAddress": "0x2e2ad5f7e5dded7b039fa9317e75b40f087a8d3c",
      "assetIds": [
        "41506478881403507969696680653240014914910929820314476107906210059990541021184"
      ],
      "assetValues": [
        1
      ]
    },
    {
      "reservedAddress": "0x2e6dc78be2e80ad3fc0d09e79c0160fa01b78057",
      "assetIds": [
        "41506478881403507969696680653240014914910929820314476107906210059990541021184"
      ],
      "assetValues": [
        1
      ]
    },
    {
      "reservedAddress": "0x2ea55c0af9ebbe4543a805b3ce95c9b4be612238",
      "assetIds": [
        "41506478881403507969696680653240014914910929820314476107906210059990541021184"
      ],
      "assetValues": [
        1
      ]
    },
    {
      "reservedAddress": "0x2eb9013864defebbcc66a0431e37251c05e356c8",
      "assetIds": [
        "41506478881403507969696680653240014914910929820314476107906210059990541021184"
      ],
      "assetValues": [
        1
      ]
    },
    {
      "reservedAddress": "0x2edcf97f4406da5bc664b208427b9ae75778f7db",
      "assetIds": [
        "41506478881403507969696680653240014914910929820314476107906210059990541021184"
      ],
      "assetValues": [
        1
      ]
    },
    {
      "reservedAddress": "0x2ee0485f71764bcd2062a84d9455688c581b90f8",
      "assetIds": [
        "41506478881403507969696680653240014914910929820314476107906210059990541021184"
      ],
      "assetValues": [
        1
      ]
    },
    {
      "reservedAddress": "0x2ee92c196d63f2313a52c4bb48f427361460636b",
      "assetIds": [
        "41506478881403507969696680653240014914910929820314476107906210059990541021184"
      ],
      "assetValues": [
        1
      ]
    },
    {
      "reservedAddress": "0x2f067301a5a5e4f001dcac40a4d155ac4c60f243",
      "assetIds": [
        "41506478881403507969696680653240014914910929820314476107906210059990541021184"
      ],
      "assetValues": [
        1
      ]
    },
    {
      "reservedAddress": "0x2f1ab89d61f7b2f5fe2b5ca2e0fd30ba6803b84b",
      "assetIds": [
        "41506478881403507969696680653240014914910929820314476107906210059990541021184"
      ],
      "assetValues": [
        1
      ]
    },
    {
      "reservedAddress": "0x2f57d65f82576b4b7a31b21ef2b4bcdf60df2133",
      "assetIds": [
        "41506478881403507969696680653240014914910929820314476107906210059990541021184"
      ],
      "assetValues": [
        1
      ]
    },
    {
      "reservedAddress": "0x2f7a9223ca8ccfa212ff200e4928ffca30786d16",
      "assetIds": [
        "41506478881403507969696680653240014914910929820314476107906210059990541021184"
      ],
      "assetValues": [
        1
      ]
    },
    {
      "reservedAddress": "0x2f7fcb49ff16a247eb7ece9afcbf418de053c420",
      "assetIds": [
        "41506478881403507969696680653240014914910929820314476107906210059990541021184"
      ],
      "assetValues": [
        1
      ]
    },
    {
      "reservedAddress": "0x2f9eb05f0c01f62e8b5ff5e72ab4f821b0f956ae",
      "assetIds": [
        "41506478881403507969696680653240014914910929820314476107906210059990541021184"
      ],
      "assetValues": [
        1
      ]
    },
    {
      "reservedAddress": "0x302b9dfc92da56a19477c891a7b95cb7e32a5a69",
      "assetIds": [
        "41506478881403507969696680653240014914910929820314476107906210059990541021184"
      ],
      "assetValues": [
        1
      ]
    },
    {
      "reservedAddress": "0x302f8bdc93bc0fdcadd358d8cdfb7a3fdf3e9c1d",
      "assetIds": [
        "41506478881403507969696680653240014914910929820314476107906210059990541021184"
      ],
      "assetValues": [
        1
      ]
    },
    {
      "reservedAddress": "0x3056bdc47ad6edb397b0cb0ee4bd5da4de27ce61",
      "assetIds": [
        "41506478881403507969696680653240014914910929820314476107906210059990541021184"
      ],
      "assetValues": [
        1
      ]
    },
    {
      "reservedAddress": "0x30709238d0026a0733f958031dede4208a1bffc6",
      "assetIds": [
        "41506478881403507969696680653240014914910929820314476107906210059990541021184"
      ],
      "assetValues": [
        1
      ]
    },
    {
      "reservedAddress": "0x309934b6b1ef896d04f3536d50db456cd22d3b58",
      "assetIds": [
        "41506478881403507969696680653240014914910929820314476107906210059990541021184"
      ],
      "assetValues": [
        1
      ]
    },
    {
      "reservedAddress": "0x30c81f019d52a63f482cdaabf93454990cdbc0cc",
      "assetIds": [
        "41506478881403507969696680653240014914910929820314476107906210059990541021184"
      ],
      "assetValues": [
        1
      ]
    },
    {
      "reservedAddress": "0x30d58a2e004170f839295c3f37d7e7dfd0ef2310",
      "assetIds": [
        "41506478881403507969696680653240014914910929820314476107906210059990541021184"
      ],
      "assetValues": [
        1
      ]
    },
    {
      "reservedAddress": "0x30d85f3cadca1f00f1a21b75ad92074c0504de26",
      "assetIds": [
        "41506478881403507969696680653240014914910929820314476107906210059990541021184"
      ],
      "assetValues": [
        1
      ]
    },
    {
      "reservedAddress": "0x30e6caed39353656239d56a7a5d4373de7661ee0",
      "assetIds": [
        "41506478881403507969696680653240014914910929820314476107906210059990541021184"
      ],
      "assetValues": [
        1
      ]
    },
    {
      "reservedAddress": "0x315789bd35ccc7322019fb345053c16a51250acf",
      "assetIds": [
        "41506478881403507969696680653240014914910929820314476107906210059990541021184"
      ],
      "assetValues": [
        1
      ]
    },
    {
      "reservedAddress": "0x3175125aedfc43ec8930541f6f0550596b82a5b2",
      "assetIds": [
        "41506478881403507969696680653240014914910929820314476107906210059990541021184"
      ],
      "assetValues": [
        1
      ]
    },
    {
      "reservedAddress": "0x31e30f8b162819e0fefea24d3ebbce4a63ba9139",
      "assetIds": [
        "41506478881403507969696680653240014914910929820314476107906210059990541021184"
      ],
      "assetValues": [
        1
      ]
    },
    {
      "reservedAddress": "0x31fca1d8410a2496e671d23618d6fe7df571e54b",
      "assetIds": [
        "41506478881403507969696680653240014914910929820314476107906210059990541021184"
      ],
      "assetValues": [
        1
      ]
    },
    {
      "reservedAddress": "0x3238934316238ebbda1ffb229ec9a37bf66c5564",
      "assetIds": [
        "41506478881403507969696680653240014914910929820314476107906210059990541021184"
      ],
      "assetValues": [
        1
      ]
    },
    {
      "reservedAddress": "0x324af5819c02af9ec7be388072d1618f8bc0fd2a",
      "assetIds": [
        "41506478881403507969696680653240014914910929820314476107906210059990541021184"
      ],
      "assetValues": [
        1
      ]
    },
    {
      "reservedAddress": "0x324d0b714dee68fc765d7b169417b68e348e953d",
      "assetIds": [
        "41506478881403507969696680653240014914910929820314476107906210059990541021184"
      ],
      "assetValues": [
        1
      ]
    },
    {
      "reservedAddress": "0x32606a1b77a7914371087e9bcb5f102cf4c54233",
      "assetIds": [
        "41506478881403507969696680653240014914910929820314476107906210059990541021184"
      ],
      "assetValues": [
        1
      ]
    },
    {
      "reservedAddress": "0x329f65031082e29723b740557495cbcbdb3e4e28",
      "assetIds": [
        "41506478881403507969696680653240014914910929820314476107906210059990541021184"
      ],
      "assetValues": [
        1
      ]
    },
    {
      "reservedAddress": "0x329fc9c1b64112148b7366c3016c35bd524fcf35",
      "assetIds": [
        "41506478881403507969696680653240014914910929820314476107906210059990541021184"
      ],
      "assetValues": [
        1
      ]
    },
    {
      "reservedAddress": "0x32a75c51ea891707c2ad76a5780b37f5bfd725ac",
      "assetIds": [
        "41506478881403507969696680653240014914910929820314476107906210059990541021184"
      ],
      "assetValues": [
        1
      ]
    },
    {
      "reservedAddress": "0x32b241e39c0402b7f7798e7fe70aae3e31b3e728",
      "assetIds": [
        "41506478881403507969696680653240014914910929820314476107906210059990541021184"
      ],
      "assetValues": [
        1
      ]
    },
    {
      "reservedAddress": "0x3337bcb228ac5b5ca2781aa16285088a9b992301",
      "assetIds": [
        "41506478881403507969696680653240014914910929820314476107906210059990541021184"
      ],
      "assetValues": [
        1
      ]
    },
    {
      "reservedAddress": "0x3401ea5a8d91c5e3944962c0148b08ac4a77f153",
      "assetIds": [
        "41506478881403507969696680653240014914910929820314476107906210059990541021184"
      ],
      "assetValues": [
        1
      ]
    },
    {
      "reservedAddress": "0x3423cc5098deb208eb00dcea99fb5d1955460800",
      "assetIds": [
        "41506478881403507969696680653240014914910929820314476107906210059990541021184"
      ],
      "assetValues": [
        1
      ]
    },
    {
      "reservedAddress": "0x34412f139492d294adb5cd119fb5673beb0b1b43",
      "assetIds": [
        "41506478881403507969696680653240014914910929820314476107906210059990541021184"
      ],
      "assetValues": [
        1
      ]
    },
    {
      "reservedAddress": "0x34908a34090910fec2b269ec66a71baca9cae36d",
      "assetIds": [
        "41506478881403507969696680653240014914910929820314476107906210059990541021184"
      ],
      "assetValues": [
        1
      ]
    },
    {
      "reservedAddress": "0x349ebd5af5e73ea5fb872983a882f7b818cb7c49",
      "assetIds": [
        "41506478881403507969696680653240014914910929820314476107906210059990541021184"
      ],
      "assetValues": [
        1
      ]
    },
    {
      "reservedAddress": "0x34ded520a4de6831af970a4211ca24959b6fa092",
      "assetIds": [
        "41506478881403507969696680653240014914910929820314476107906210059990541021184"
      ],
      "assetValues": [
        1
      ]
    },
    {
      "reservedAddress": "0x34df9ce7995776ea457d3cce536be492d6589cb0",
      "assetIds": [
        "41506478881403507969696680653240014914910929820314476107906210059990541021184"
      ],
      "assetValues": [
        1
      ]
    },
    {
      "reservedAddress": "0x34ec9c1d89ce8afa701d079fd908fca95f49667a",
      "assetIds": [
        "41506478881403507969696680653240014914910929820314476107906210059990541021184"
      ],
      "assetValues": [
        1
      ]
    },
    {
      "reservedAddress": "0x35825c0db8d493abb23234c5dd1535b54565b269",
      "assetIds": [
        "41506478881403507969696680653240014914910929820314476107906210059990541021184"
      ],
      "assetValues": [
        1
      ]
    },
    {
      "reservedAddress": "0x3585357fbd020cd614d7289fea4dd7618fa59047",
      "assetIds": [
        "41506478881403507969696680653240014914910929820314476107906210059990541021184"
      ],
      "assetValues": [
        1
      ]
    },
    {
      "reservedAddress": "0x35f34185f753d5fef739d46dba7a26b2bd88c83d",
      "assetIds": [
        "41506478881403507969696680653240014914910929820314476107906210059990541021184"
      ],
      "assetValues": [
        1
      ]
    },
    {
      "reservedAddress": "0x36241340ceaee8c126d398719b6eecd96035b45b",
      "assetIds": [
        "41506478881403507969696680653240014914910929820314476107906210059990541021184"
      ],
      "assetValues": [
        1
      ]
    },
    {
      "reservedAddress": "0x364bfb413dbb9344a6bd157b741cf43d59b8b2c1",
      "assetIds": [
        "41506478881403507969696680653240014914910929820314476107906210059990541021184"
      ],
      "assetValues": [
        1
      ]
    },
    {
      "reservedAddress": "0x364f79957ec745a5f7f53aff4d6c4cdc6e6afd99",
      "assetIds": [
        "41506478881403507969696680653240014914910929820314476107906210059990541021184"
      ],
      "assetValues": [
        1
      ]
    },
    {
      "reservedAddress": "0x366401d0c187eb5194488cbcf4ff7ebe6b8b221f",
      "assetIds": [
        "41506478881403507969696680653240014914910929820314476107906210059990541021184"
      ],
      "assetValues": [
        1
      ]
    },
    {
      "reservedAddress": "0x368e15c9eba4f0e4b60869eb7e7ad43d4457875c",
      "assetIds": [
        "41506478881403507969696680653240014914910929820314476107906210059990541021184"
      ],
      "assetValues": [
        1
      ]
    },
    {
      "reservedAddress": "0x369378f65bea146234fd290fc1ac59d0ecf921ed",
      "assetIds": [
        "41506478881403507969696680653240014914910929820314476107906210059990541021184"
      ],
      "assetValues": [
        1
      ]
    },
    {
      "reservedAddress": "0x36c4c53bb6b0b8c59e98b35a1eabb5d43b5bc27f",
      "assetIds": [
        "41506478881403507969696680653240014914910929820314476107906210059990541021184"
      ],
      "assetValues": [
        1
      ]
    },
    {
      "reservedAddress": "0x37151fecdf7795eae149276eadd93d68894db868",
      "assetIds": [
        "41506478881403507969696680653240014914910929820314476107906210059990541021184"
      ],
      "assetValues": [
        1
      ]
    },
    {
      "reservedAddress": "0x375015ca588faacd7e59967681649fb74a8b3466",
      "assetIds": [
        "41506478881403507969696680653240014914910929820314476107906210059990541021184"
      ],
      "assetValues": [
        1
      ]
    },
    {
      "reservedAddress": "0x375ea8e1cd49d30331c1556d4ac5d0ff417d58a0",
      "assetIds": [
        "41506478881403507969696680653240014914910929820314476107906210059990541021184"
      ],
      "assetValues": [
        1
      ]
    },
    {
      "reservedAddress": "0x378749112782431f9e43fb50255048654bafa3c9",
      "assetIds": [
        "41506478881403507969696680653240014914910929820314476107906210059990541021184"
      ],
      "assetValues": [
        1
      ]
    },
    {
      "reservedAddress": "0x378777a2450f9075ccb333fdcf5027790ae123ad",
      "assetIds": [
        "41506478881403507969696680653240014914910929820314476107906210059990541021184"
      ],
      "assetValues": [
        1
      ]
    },
    {
      "reservedAddress": "0x37c701ecd86cdddba614cf194d9a41d1f9c55145",
      "assetIds": [
        "41506478881403507969696680653240014914910929820314476107906210059990541021184"
      ],
      "assetValues": [
        1
      ]
    },
    {
      "reservedAddress": "0x37e0684904b5ce10b5818ea444202072f41e3025",
      "assetIds": [
        "41506478881403507969696680653240014914910929820314476107906210059990541021184"
      ],
      "assetValues": [
        1
      ]
    },
    {
      "reservedAddress": "0x381b0a36e73d9e250fd7cc635c43da9fd77f1111",
      "assetIds": [
        "41506478881403507969696680653240014914910929820314476107906210059990541021184"
      ],
      "assetValues": [
        1
      ]
    },
    {
      "reservedAddress": "0x382c29bb63af1e6bd3fc818fea85bd25afb0e92e",
      "assetIds": [
        "41506478881403507969696680653240014914910929820314476107906210059990541021184"
      ],
      "assetValues": [
        1
      ]
    },
    {
      "reservedAddress": "0x3843377c1617c909e0044ea3bbd050f62737f316",
      "assetIds": [
        "41506478881403507969696680653240014914910929820314476107906210059990541021184"
      ],
      "assetValues": [
        1
      ]
    },
    {
      "reservedAddress": "0x38641196845f04fe595b9db249b16642eade0f14",
      "assetIds": [
        "41506478881403507969696680653240014914910929820314476107906210059990541021184"
      ],
      "assetValues": [
        1
      ]
    },
    {
      "reservedAddress": "0x3888739b69d5984af2b5b65cc31b6b108b320566",
      "assetIds": [
        "41506478881403507969696680653240014914910929820314476107906210059990541021184"
      ],
      "assetValues": [
        1
      ]
    },
    {
      "reservedAddress": "0x388b0fbf50e37396c1f2e439e2c0469c978fc470",
      "assetIds": [
        "41506478881403507969696680653240014914910929820314476107906210059990541021184"
      ],
      "assetValues": [
        1
      ]
    },
    {
      "reservedAddress": "0x38c1649b72fd245e434b9db29f6148a90aa7ca12",
      "assetIds": [
        "41506478881403507969696680653240014914910929820314476107906210059990541021184"
      ],
      "assetValues": [
        1
      ]
    },
    {
      "reservedAddress": "0x38e481367e0c50f4166ad2a1c9fde0e3c662cfba",
      "assetIds": [
        "41506478881403507969696680653240014914910929820314476107906210059990541021184"
      ],
      "assetValues": [
        1
      ]
    },
    {
      "reservedAddress": "0x38f1dfdcaf2f0d70c29d4af6a4aa9e920efe8b18",
      "assetIds": [
        "41506478881403507969696680653240014914910929820314476107906210059990541021184"
      ],
      "assetValues": [
        1
      ]
    },
    {
      "reservedAddress": "0x392421d0ad53ec7cadac5a98168ad7ae51ee394c",
      "assetIds": [
        "41506478881403507969696680653240014914910929820314476107906210059990541021184"
      ],
      "assetValues": [
        1
      ]
    },
    {
      "reservedAddress": "0x3925d00e6a46396d18b8a67ae7d003a4d7e89ab2",
      "assetIds": [
        "41506478881403507969696680653240014914910929820314476107906210059990541021184"
      ],
      "assetValues": [
        1
      ]
    },
    {
      "reservedAddress": "0x392f7d3c9cd823b550cf8e90b8302876dbe0cebd",
      "assetIds": [
        "41506478881403507969696680653240014914910929820314476107906210059990541021184"
      ],
      "assetValues": [
        1
      ]
    },
    {
      "reservedAddress": "0x397d53e4436c34b794f858e243b61a54fd2199b2",
      "assetIds": [
        "41506478881403507969696680653240014914910929820314476107906210059990541021184"
      ],
      "assetValues": [
        1
      ]
    },
    {
      "reservedAddress": "0x398341cdc3f4dd1ac0654c537ebdf9de73199465",
      "assetIds": [
        "41506478881403507969696680653240014914910929820314476107906210059990541021184"
      ],
      "assetValues": [
        1
      ]
    },
    {
      "reservedAddress": "0x399d07303275719fb83acb468249a9a26ae2f674",
      "assetIds": [
        "41506478881403507969696680653240014914910929820314476107906210059990541021184"
      ],
      "assetValues": [
        1
      ]
    },
    {
      "reservedAddress": "0x39b30685ebca7391fdde2984d758b56eae5b19b8",
      "assetIds": [
        "41506478881403507969696680653240014914910929820314476107906210059990541021184"
      ],
      "assetValues": [
        1
      ]
    },
    {
      "reservedAddress": "0x39d5011b4e0f87ba1c4047d62ce9d50fe0cf4303",
      "assetIds": [
        "41506478881403507969696680653240014914910929820314476107906210059990541021184"
      ],
      "assetValues": [
        1
      ]
    },
    {
      "reservedAddress": "0x39f258c87807b99987443d0a0d6526a6d0b93c34",
      "assetIds": [
        "41506478881403507969696680653240014914910929820314476107906210059990541021184"
      ],
      "assetValues": [
        1
      ]
    },
    {
      "reservedAddress": "0x3a121c46a6c3aaf501ca2b7397f1bfe368924863",
      "assetIds": [
        "41506478881403507969696680653240014914910929820314476107906210059990541021184"
      ],
      "assetValues": [
        1
      ]
    },
    {
      "reservedAddress": "0x3a296edd14dce0e900d1251f423ff3727b58b95d",
      "assetIds": [
        "41506478881403507969696680653240014914910929820314476107906210059990541021184"
      ],
      "assetValues": [
        1
      ]
    },
    {
      "reservedAddress": "0x3a3355805181ba5752cb52cebe8c95c0f3ed3d61",
      "assetIds": [
        "41506478881403507969696680653240014914910929820314476107906210059990541021184"
      ],
      "assetValues": [
        1
      ]
    },
    {
      "reservedAddress": "0x3a3ea23961809b89f5b8afa877b6f0003d5e1995",
      "assetIds": [
        "41506478881403507969696680653240014914910929820314476107906210059990541021184"
      ],
      "assetValues": [
        1
      ]
    },
    {
      "reservedAddress": "0x3a4fec5ac612da1b71dd21317178e6dac612de24",
      "assetIds": [
        "41506478881403507969696680653240014914910929820314476107906210059990541021184"
      ],
      "assetValues": [
        1
      ]
    },
    {
      "reservedAddress": "0x3a6b433f4b497f1d5d49f3462d4d40992288fd8e",
      "assetIds": [
        "41506478881403507969696680653240014914910929820314476107906210059990541021184"
      ],
      "assetValues": [
        1
      ]
    },
    {
      "reservedAddress": "0x3aaa78b25d916923fda9b7f486fde0f9c37dd132",
      "assetIds": [
        "41506478881403507969696680653240014914910929820314476107906210059990541021184"
      ],
      "assetValues": [
        1
      ]
    },
    {
      "reservedAddress": "0x3aaed2fa94a012dc322e297924aea8a6d019ba59",
      "assetIds": [
        "41506478881403507969696680653240014914910929820314476107906210059990541021184"
      ],
      "assetValues": [
        1
      ]
    },
    {
      "reservedAddress": "0x3ab765b40a9c0c939716874ea75b5bc44b763e53",
      "assetIds": [
        "41506478881403507969696680653240014914910929820314476107906210059990541021184"
      ],
      "assetValues": [
        1
      ]
    },
    {
      "reservedAddress": "0x3ac753ed33239486188c384ca792ea90f2fafaa1",
      "assetIds": [
        "41506478881403507969696680653240014914910929820314476107906210059990541021184"
      ],
      "assetValues": [
        1
      ]
    },
    {
      "reservedAddress": "0x3acb5eaecfab99d01e86f7068ae7b90479fb50e9",
      "assetIds": [
        "41506478881403507969696680653240014914910929820314476107906210059990541021184"
      ],
      "assetValues": [
        1
      ]
    },
    {
      "reservedAddress": "0x3af395f085ac04dc4fc26c247d6b8bf11b282b8a",
      "assetIds": [
        "41506478881403507969696680653240014914910929820314476107906210059990541021184"
      ],
      "assetValues": [
        1
      ]
    },
    {
      "reservedAddress": "0x3b02692ab73431e2e263421b1b6ecf89cdb6714c",
      "assetIds": [
        "41506478881403507969696680653240014914910929820314476107906210059990541021184"
      ],
      "assetValues": [
        1
      ]
    },
    {
      "reservedAddress": "0x3b0b4be1a3962e67273ea72ea34c95e06603d661",
      "assetIds": [
        "41506478881403507969696680653240014914910929820314476107906210059990541021184"
      ],
      "assetValues": [
        1
      ]
    },
    {
      "reservedAddress": "0x3b1f03fc8e2ff11e0ca3ec94153f6ce0a9de8244",
      "assetIds": [
        "41506478881403507969696680653240014914910929820314476107906210059990541021184"
      ],
      "assetValues": [
        1
      ]
    },
    {
      "reservedAddress": "0x3b326b5527b705ce9dddb276d6342506d043a607",
      "assetIds": [
        "41506478881403507969696680653240014914910929820314476107906210059990541021184"
      ],
      "assetValues": [
        1
      ]
    },
    {
      "reservedAddress": "0x3b3f04deb78e8d12929af043b12b605e552eeace",
      "assetIds": [
        "41506478881403507969696680653240014914910929820314476107906210059990541021184"
      ],
      "assetValues": [
        1
      ]
    },
    {
      "reservedAddress": "0x3b6b628930e56136cf95dd44e4b8ae98c89dbd6e",
      "assetIds": [
        "41506478881403507969696680653240014914910929820314476107906210059990541021184"
      ],
      "assetValues": [
        1
      ]
    },
    {
      "reservedAddress": "0x3bc9339e968f0931c5760e3cddcdbcf852cff726",
      "assetIds": [
        "41506478881403507969696680653240014914910929820314476107906210059990541021184"
      ],
      "assetValues": [
        1
      ]
    },
    {
      "reservedAddress": "0x3bcdb996b99a24b086ffe56b7a5b72c8cd9e723a",
      "assetIds": [
        "41506478881403507969696680653240014914910929820314476107906210059990541021184"
      ],
      "assetValues": [
        1
      ]
    },
    {
      "reservedAddress": "0x3bd77b00f02c8bcff586c565e2c5e6b6c5878ec3",
      "assetIds": [
        "41506478881403507969696680653240014914910929820314476107906210059990541021184"
      ],
      "assetValues": [
        1
      ]
    },
    {
      "reservedAddress": "0x3bf8d93bbe15c002a2c731d5139077aa1c7002cd",
      "assetIds": [
        "41506478881403507969696680653240014914910929820314476107906210059990541021184"
      ],
      "assetValues": [
        1
      ]
    },
    {
      "reservedAddress": "0x3c1c9f9ca6c366c835260e9b41edfb6df991b6e7",
      "assetIds": [
        "41506478881403507969696680653240014914910929820314476107906210059990541021184"
      ],
      "assetValues": [
        1
      ]
    },
    {
      "reservedAddress": "0x3c3d26bfc1835e113d8adc8ce5de7f1a68079eba",
      "assetIds": [
        "41506478881403507969696680653240014914910929820314476107906210059990541021184"
      ],
      "assetValues": [
        1
      ]
    },
    {
      "reservedAddress": "0x3c474891be0ba5fa5215d33eac59b8547cd00dfe",
      "assetIds": [
        "41506478881403507969696680653240014914910929820314476107906210059990541021184"
      ],
      "assetValues": [
        1
      ]
    },
    {
      "reservedAddress": "0x3c5185f3688a2c79d91805fcc96da2f50b7e2228",
      "assetIds": [
        "41506478881403507969696680653240014914910929820314476107906210059990541021184"
      ],
      "assetValues": [
        1
      ]
    },
    {
      "reservedAddress": "0x3c5de42f02debbaa235f7a28e4b992362ffee0b6",
      "assetIds": [
        "41506478881403507969696680653240014914910929820314476107906210059990541021184"
      ],
      "assetValues": [
        1
      ]
    },
    {
      "reservedAddress": "0x3c6d73475d8a64cec5b5170853ab38ccf51eb130",
      "assetIds": [
        "41506478881403507969696680653240014914910929820314476107906210059990541021184"
      ],
      "assetValues": [
        1
      ]
    },
    {
      "reservedAddress": "0x3d0f4cac67369805cd75121dbf8bfdb7aa1dfa07",
      "assetIds": [
        "41506478881403507969696680653240014914910929820314476107906210059990541021184"
      ],
      "assetValues": [
        1
      ]
    },
    {
      "reservedAddress": "0x3d14f15ca66e64ae7eb13a9b37ead23d07f30983",
      "assetIds": [
        "41506478881403507969696680653240014914910929820314476107906210059990541021184"
      ],
      "assetValues": [
        1
      ]
    },
    {
      "reservedAddress": "0x3d150171043528fb88920bc90c911ba2400cb2e2",
      "assetIds": [
        "41506478881403507969696680653240014914910929820314476107906210059990541021184"
      ],
      "assetValues": [
        1
      ]
    },
    {
      "reservedAddress": "0x3d2596aedcfef405f04eb78c38426113d19aadda",
      "assetIds": [
        "41506478881403507969696680653240014914910929820314476107906210059990541021184"
      ],
      "assetValues": [
        1
      ]
    },
    {
      "reservedAddress": "0x3d3aed24128c45a019418dfe0a9929a55c561e32",
      "assetIds": [
        "41506478881403507969696680653240014914910929820314476107906210059990541021184"
      ],
      "assetValues": [
        1
      ]
    },
    {
      "reservedAddress": "0x3d8d23b84d9670e571afffad947eba9056e77a21",
      "assetIds": [
        "41506478881403507969696680653240014914910929820314476107906210059990541021184"
      ],
      "assetValues": [
        1
      ]
    },
    {
      "reservedAddress": "0x3d8dee1f12e269f9e560cc985cfd11bbcbb411e8",
      "assetIds": [
        "41506478881403507969696680653240014914910929820314476107906210059990541021184"
      ],
      "assetValues": [
        1
      ]
    },
    {
      "reservedAddress": "0x3de7848b2a46f8c01931436cae8cd1ec915345b2",
      "assetIds": [
        "41506478881403507969696680653240014914910929820314476107906210059990541021184"
      ],
      "assetValues": [
        1
      ]
    },
    {
      "reservedAddress": "0x3e17258a44f938db9803c18c3c762653f5a23e54",
      "assetIds": [
        "41506478881403507969696680653240014914910929820314476107906210059990541021184"
      ],
      "assetValues": [
        1
      ]
    },
    {
      "reservedAddress": "0x3e23c480179a61251f38ebf273eea827ab644fd2",
      "assetIds": [
        "41506478881403507969696680653240014914910929820314476107906210059990541021184"
      ],
      "assetValues": [
        1
      ]
    },
    {
      "reservedAddress": "0x3e4363669963edea9382c7e861e5139e1c31c84d",
      "assetIds": [
        "41506478881403507969696680653240014914910929820314476107906210059990541021184"
      ],
      "assetValues": [
        1
      ]
    },
    {
      "reservedAddress": "0x3eb2d65ab6e1f2d4614a75ec33ddff68fb42fc50",
      "assetIds": [
        "41506478881403507969696680653240014914910929820314476107906210059990541021184"
      ],
      "assetValues": [
        1
      ]
    },
    {
      "reservedAddress": "0x3ef49a8204dea874d57c723b31f49e93993c284f",
      "assetIds": [
        "41506478881403507969696680653240014914910929820314476107906210059990541021184"
      ],
      "assetValues": [
        1
      ]
    },
    {
      "reservedAddress": "0x3f175a3100875a1415a66b2e5f5952a062171e5b",
      "assetIds": [
        "41506478881403507969696680653240014914910929820314476107906210059990541021184"
      ],
      "assetValues": [
        1
      ]
    },
    {
      "reservedAddress": "0x3f3c7f88e66432e4997f6009864b86a64a4592e5",
      "assetIds": [
        "41506478881403507969696680653240014914910929820314476107906210059990541021184"
      ],
      "assetValues": [
        1
      ]
    },
    {
      "reservedAddress": "0x3f52dfcef058c6ceb6cd6d18c0be39b4b7c761a8",
      "assetIds": [
        "41506478881403507969696680653240014914910929820314476107906210059990541021184"
      ],
      "assetValues": [
        1
      ]
    },
    {
      "reservedAddress": "0x3f52f9061a8892b87b6adc271b99921d8a125668",
      "assetIds": [
        "41506478881403507969696680653240014914910929820314476107906210059990541021184"
      ],
      "assetValues": [
        1
      ]
    },
    {
      "reservedAddress": "0x3f5d791107f2b9b654cfd703f1b1b47a69eee2d8",
      "assetIds": [
        "41506478881403507969696680653240014914910929820314476107906210059990541021184"
      ],
      "assetValues": [
        1
      ]
    },
    {
      "reservedAddress": "0x3fa756e0b4afcc0f0bfd755281fedf82d92927bd",
      "assetIds": [
        "41506478881403507969696680653240014914910929820314476107906210059990541021184"
      ],
      "assetValues": [
        1
      ]
    },
    {
      "reservedAddress": "0x3fc688368644519d97892c72b8bcaecfbef8aee0",
      "assetIds": [
        "41506478881403507969696680653240014914910929820314476107906210059990541021184"
      ],
      "assetValues": [
        1
      ]
    },
    {
      "reservedAddress": "0x3fdf6b7355c05ea6b3a224bb711cffbee8d20ac2",
      "assetIds": [
        "41506478881403507969696680653240014914910929820314476107906210059990541021184"
      ],
      "assetValues": [
        1
      ]
    },
    {
      "reservedAddress": "0x3ff1b53c047b71b91cb8818bd66db5a3a075f53c",
      "assetIds": [
        "41506478881403507969696680653240014914910929820314476107906210059990541021184"
      ],
      "assetValues": [
        1
      ]
    },
    {
      "reservedAddress": "0x40284eafdd374f1057093686a5e9f65c8e0b8018",
      "assetIds": [
        "41506478881403507969696680653240014914910929820314476107906210059990541021184"
      ],
      "assetValues": [
        1
      ]
    },
    {
      "reservedAddress": "0x402a3dc85647bf3ce0a7faf177311687d8b872ca",
      "assetIds": [
        "41506478881403507969696680653240014914910929820314476107906210059990541021184"
      ],
      "assetValues": [
        1
      ]
    },
    {
      "reservedAddress": "0x404fc81573c7f69218174c7a266e0be63d054471",
      "assetIds": [
        "41506478881403507969696680653240014914910929820314476107906210059990541021184"
      ],
      "assetValues": [
        1
      ]
    },
    {
      "reservedAddress": "0x4059e94f431b2c48373c3cf962b257b7a4b1dc63",
      "assetIds": [
        "41506478881403507969696680653240014914910929820314476107906210059990541021184"
      ],
      "assetValues": [
        1
      ]
    },
    {
      "reservedAddress": "0x407739cc47a268a85702c12453cba03917bba84b",
      "assetIds": [
        "41506478881403507969696680653240014914910929820314476107906210059990541021184"
      ],
      "assetValues": [
        1
      ]
    },
    {
      "reservedAddress": "0x407dbc332f834e51737e428fe22ce10fcdb4214f",
      "assetIds": [
        "41506478881403507969696680653240014914910929820314476107906210059990541021184"
      ],
      "assetValues": [
        1
      ]
    },
    {
      "reservedAddress": "0x409abfa5de7c12ac24c8aa8085b30b01e9239cfd",
      "assetIds": [
        "41506478881403507969696680653240014914910929820314476107906210059990541021184"
      ],
      "assetValues": [
        1
      ]
    },
    {
      "reservedAddress": "0x4158144162e45c608752c704933351f55b825786",
      "assetIds": [
        "41506478881403507969696680653240014914910929820314476107906210059990541021184"
      ],
      "assetValues": [
        1
      ]
    },
    {
      "reservedAddress": "0x41bd9ede67476deff711c1ddbd702b741dcc23d8",
      "assetIds": [
        "41506478881403507969696680653240014914910929820314476107906210059990541021184"
      ],
      "assetValues": [
        1
      ]
    },
    {
      "reservedAddress": "0x41cfb96bdf9d9074949447585a4387453a659436",
      "assetIds": [
        "41506478881403507969696680653240014914910929820314476107906210059990541021184"
      ],
      "assetValues": [
        1
      ]
    },
    {
      "reservedAddress": "0x41f5543ddfe54be8ec7889794c6c63e8d4718586",
      "assetIds": [
        "41506478881403507969696680653240014914910929820314476107906210059990541021184"
      ],
      "assetValues": [
        1
      ]
    },
    {
      "reservedAddress": "0x422b5dd8cf4047ec539624d3af786be7ed85529e",
      "assetIds": [
        "41506478881403507969696680653240014914910929820314476107906210059990541021184"
      ],
      "assetValues": [
        1
      ]
    },
    {
      "reservedAddress": "0x426923e98e347158d5c471a9391edaea95516473",
      "assetIds": [
        "41506478881403507969696680653240014914910929820314476107906210059990541021184"
      ],
      "assetValues": [
        1
      ]
    },
    {
      "reservedAddress": "0x428fcbf68ad13156283d23d9420d9694780e8848",
      "assetIds": [
        "41506478881403507969696680653240014914910929820314476107906210059990541021184"
      ],
      "assetValues": [
        1
      ]
    },
    {
      "reservedAddress": "0x4315cd07b8cbc66f86d547e49f0de5e3bfc314d4",
      "assetIds": [
        "41506478881403507969696680653240014914910929820314476107906210059990541021184"
      ],
      "assetValues": [
        1
      ]
    },
    {
      "reservedAddress": "0x432917834ce1197fc6606bf011bc6af92a9d2d8e",
      "assetIds": [
        "41506478881403507969696680653240014914910929820314476107906210059990541021184"
      ],
      "assetValues": [
        1
      ]
    },
    {
      "reservedAddress": "0x43f830c90be0e4873d5a05058981c9f5d424525a",
      "assetIds": [
        "41506478881403507969696680653240014914910929820314476107906210059990541021184"
      ],
      "assetValues": [
        1
      ]
    },
    {
      "reservedAddress": "0x4451752cf1cccb75f660b6e93e027333fbeb88e4",
      "assetIds": [
        "41506478881403507969696680653240014914910929820314476107906210059990541021184"
      ],
      "assetValues": [
        1
      ]
    },
    {
      "reservedAddress": "0x44588eda41bab760dce9e92eb7bb0f83d8845a23",
      "assetIds": [
        "41506478881403507969696680653240014914910929820314476107906210059990541021184"
      ],
      "assetValues": [
        1
      ]
    },
    {
      "reservedAddress": "0x44832e9f0d7d04dbdd7a00160f30e83968444286",
      "assetIds": [
        "41506478881403507969696680653240014914910929820314476107906210059990541021184"
      ],
      "assetValues": [
        1
      ]
    },
    {
      "reservedAddress": "0x448d77988d531449e88d8dbc811ed728179f72b5",
      "assetIds": [
        "41506478881403507969696680653240014914910929820314476107906210059990541021184"
      ],
      "assetValues": [
        1
      ]
    },
    {
      "reservedAddress": "0x44bc1e612e11d0acd2c43218ea55717ac28e3a40",
      "assetIds": [
        "41506478881403507969696680653240014914910929820314476107906210059990541021184"
      ],
      "assetValues": [
        1
      ]
    },
    {
      "reservedAddress": "0x44dd180658a38777e2fb2d655fb828e4bd394e6b",
      "assetIds": [
        "41506478881403507969696680653240014914910929820314476107906210059990541021184"
      ],
      "assetValues": [
        1
      ]
    },
    {
      "reservedAddress": "0x4536eff666ff7f68ab540857f73c9822d10ad236",
      "assetIds": [
        "41506478881403507969696680653240014914910929820314476107906210059990541021184"
      ],
      "assetValues": [
        1
      ]
    },
    {
      "reservedAddress": "0x457cee441349076fa7ab4bf7c616c02c16cb10fa",
      "assetIds": [
        "41506478881403507969696680653240014914910929820314476107906210059990541021184"
      ],
      "assetValues": [
        1
      ]
    },
    {
      "reservedAddress": "0x45c7811c459a43d0c17ef18f33a2c8921ac4ecf8",
      "assetIds": [
        "41506478881403507969696680653240014914910929820314476107906210059990541021184"
      ],
      "assetValues": [
        1
      ]
    },
    {
      "reservedAddress": "0x45e86624d224c18b9c6b2abac0e780f621f9fca5",
      "assetIds": [
        "41506478881403507969696680653240014914910929820314476107906210059990541021184"
      ],
      "assetValues": [
        1
      ]
    },
    {
      "reservedAddress": "0x45ffadb496166a0cb634ce69c46fd57b8fed4658",
      "assetIds": [
        "41506478881403507969696680653240014914910929820314476107906210059990541021184"
      ],
      "assetValues": [
        1
      ]
    },
    {
      "reservedAddress": "0x461ae8c33224aceb7f1259095dd2a334ad20f322",
      "assetIds": [
        "41506478881403507969696680653240014914910929820314476107906210059990541021184"
      ],
      "assetValues": [
        1
      ]
    },
    {
      "reservedAddress": "0x464d17c7cdf39c15a3a2888d7835bfd9de9a4e81",
      "assetIds": [
        "41506478881403507969696680653240014914910929820314476107906210059990541021184"
      ],
      "assetValues": [
        1
      ]
    },
    {
      "reservedAddress": "0x4689d6581b12321bb480d343eb24b33be4b07d9e",
      "assetIds": [
        "41506478881403507969696680653240014914910929820314476107906210059990541021184"
      ],
      "assetValues": [
        1
      ]
    },
    {
      "reservedAddress": "0x46c7aa74e35e21c996744f64707557f79244e3ac",
      "assetIds": [
        "41506478881403507969696680653240014914910929820314476107906210059990541021184"
      ],
      "assetValues": [
        1
      ]
    },
    {
      "reservedAddress": "0x46ddec05e55550bc83cb5032b278106cd3b2104e",
      "assetIds": [
        "41506478881403507969696680653240014914910929820314476107906210059990541021184"
      ],
      "assetValues": [
        1
      ]
    },
    {
      "reservedAddress": "0x46e3f628a062a0aa1dd615e77001690841f691d9",
      "assetIds": [
        "41506478881403507969696680653240014914910929820314476107906210059990541021184"
      ],
      "assetValues": [
        1
      ]
    },
    {
      "reservedAddress": "0x4761b143a8fd1340d6c021addc60583ee65161ae",
      "assetIds": [
        "41506478881403507969696680653240014914910929820314476107906210059990541021184"
      ],
      "assetValues": [
        1
      ]
    },
    {
      "reservedAddress": "0x477a87ab3b736f192b1b4dce4e484e1b83a786b4",
      "assetIds": [
        "41506478881403507969696680653240014914910929820314476107906210059990541021184"
      ],
      "assetValues": [
        1
      ]
    },
    {
      "reservedAddress": "0x47cbb32d70e53c59290a32b7b806fe5aee02b43d",
      "assetIds": [
        "41506478881403507969696680653240014914910929820314476107906210059990541021184"
      ],
      "assetValues": [
        1
      ]
    },
    {
      "reservedAddress": "0x47d34d4876f06b6181a6f2346aad9b6e85b64a30",
      "assetIds": [
        "41506478881403507969696680653240014914910929820314476107906210059990541021184"
      ],
      "assetValues": [
        1
      ]
    },
    {
      "reservedAddress": "0x47de76492cf9fc04a01dbe042c3b39d957090639",
      "assetIds": [
        "41506478881403507969696680653240014914910929820314476107906210059990541021184"
      ],
      "assetValues": [
        1
      ]
    },
    {
      "reservedAddress": "0x47fea52a4b79954fede50ee07b3f5d22696c8586",
      "assetIds": [
        "41506478881403507969696680653240014914910929820314476107906210059990541021184"
      ],
      "assetValues": [
        1
      ]
    },
    {
      "reservedAddress": "0x4866597d5b56dae8920095d6bb8fb2b8f828aa1d",
      "assetIds": [
        "41506478881403507969696680653240014914910929820314476107906210059990541021184"
      ],
      "assetValues": [
        1
      ]
    },
    {
      "reservedAddress": "0x4876e166d85b1772825059749c1ea8cd13d23b15",
      "assetIds": [
        "41506478881403507969696680653240014914910929820314476107906210059990541021184"
      ],
      "assetValues": [
        1
      ]
    },
    {
      "reservedAddress": "0x488acfbddacd51de552e9bfc89ce5ef708188bca",
      "assetIds": [
        "41506478881403507969696680653240014914910929820314476107906210059990541021184"
      ],
      "assetValues": [
        1
      ]
    },
    {
      "reservedAddress": "0x4893ce4d89f4d3626e9ce9dbfd71a2d315a774b7",
      "assetIds": [
        "41506478881403507969696680653240014914910929820314476107906210059990541021184"
      ],
      "assetValues": [
        1
      ]
    },
    {
      "reservedAddress": "0x48c94e8f4c0f0a125bed72e292c8dc84673e4dfc",
      "assetIds": [
        "41506478881403507969696680653240014914910929820314476107906210059990541021184"
      ],
      "assetValues": [
        1
      ]
    },
    {
      "reservedAddress": "0x48d8bbfd42a5c39473fa17abc21f23b536090095",
      "assetIds": [
        "41506478881403507969696680653240014914910929820314476107906210059990541021184"
      ],
      "assetValues": [
        1
      ]
    },
    {
      "reservedAddress": "0x48dcda2f1afcd3887bb16484da4360da36793c74",
      "assetIds": [
        "41506478881403507969696680653240014914910929820314476107906210059990541021184"
      ],
      "assetValues": [
        1
      ]
    },
    {
      "reservedAddress": "0x4906e4f95ad546ce865916f65c825e00630bffa8",
      "assetIds": [
        "41506478881403507969696680653240014914910929820314476107906210059990541021184"
      ],
      "assetValues": [
        1
      ]
    },
    {
      "reservedAddress": "0x4911e3049a846a2495c2474d45a4d578abdeaeab",
      "assetIds": [
        "41506478881403507969696680653240014914910929820314476107906210059990541021184"
      ],
      "assetValues": [
        1
      ]
    },
    {
      "reservedAddress": "0x4935e37162b7357e5a36b56c34273fb9d9283aea",
      "assetIds": [
        "41506478881403507969696680653240014914910929820314476107906210059990541021184"
      ],
      "assetValues": [
        1
      ]
    },
    {
      "reservedAddress": "0x49792649e34eac3e220142ff0b536a759b7f609e",
      "assetIds": [
        "41506478881403507969696680653240014914910929820314476107906210059990541021184"
      ],
      "assetValues": [
        1
      ]
    },
    {
      "reservedAddress": "0x49bc1aab6bada6c4186ab4824d2a3c23426af817",
      "assetIds": [
        "41506478881403507969696680653240014914910929820314476107906210059990541021184"
      ],
      "assetValues": [
        1
      ]
    },
    {
      "reservedAddress": "0x49ce143a9ea298e683560263afd7da7bfeec4e97",
      "assetIds": [
        "41506478881403507969696680653240014914910929820314476107906210059990541021184"
      ],
      "assetValues": [
        1
      ]
    },
    {
      "reservedAddress": "0x4a2ea96722b01c1e626fba0f4806257454c24458",
      "assetIds": [
        "41506478881403507969696680653240014914910929820314476107906210059990541021184"
      ],
      "assetValues": [
        1
      ]
    },
    {
      "reservedAddress": "0x4a33a29ade766580efb33bf8c35b7dd492c47e37",
      "assetIds": [
        "41506478881403507969696680653240014914910929820314476107906210059990541021184"
      ],
      "assetValues": [
        1
      ]
    },
    {
      "reservedAddress": "0x4a5294ee54ef7efc84970655dd58d9ec540b7202",
      "assetIds": [
        "41506478881403507969696680653240014914910929820314476107906210059990541021184"
      ],
      "assetValues": [
        1
      ]
    },
    {
      "reservedAddress": "0x4a60796c0c8eb2d1eec40ac86cea3e3c6cf96e0b",
      "assetIds": [
        "41506478881403507969696680653240014914910929820314476107906210059990541021184"
      ],
      "assetValues": [
        1
      ]
    },
    {
      "reservedAddress": "0x4a687916143dc9f6db7ce070511d59a3c62ccb03",
      "assetIds": [
        "41506478881403507969696680653240014914910929820314476107906210059990541021184"
      ],
      "assetValues": [
        1
      ]
    },
    {
      "reservedAddress": "0x4a88705fbe6913a749f6e5798d9645596e51f7c9",
      "assetIds": [
        "41506478881403507969696680653240014914910929820314476107906210059990541021184"
      ],
      "assetValues": [
        1
      ]
    },
    {
      "reservedAddress": "0x4b4a367c6f5018529b3bbe0bee27c7dae043331a",
      "assetIds": [
        "41506478881403507969696680653240014914910929820314476107906210059990541021184"
      ],
      "assetValues": [
        1
      ]
    },
    {
      "reservedAddress": "0x4b4bfa4cac2db875bfa1e1bf0172edd8465e32ca",
      "assetIds": [
        "41506478881403507969696680653240014914910929820314476107906210059990541021184"
      ],
      "assetValues": [
        1
      ]
    },
    {
      "reservedAddress": "0x4b7158ca8e015a1c5c0080adc0c3a87371f5de06",
      "assetIds": [
        "41506478881403507969696680653240014914910929820314476107906210059990541021184"
      ],
      "assetValues": [
        1
      ]
    },
    {
      "reservedAddress": "0x4b96b8a4854322ef2b3efbdb1352f6ccdda0fd1f",
      "assetIds": [
        "41506478881403507969696680653240014914910929820314476107906210059990541021184"
      ],
      "assetValues": [
        1
      ]
    },
    {
      "reservedAddress": "0x4b9a166b94037947cd44baf6d993be0eb1240447",
      "assetIds": [
        "41506478881403507969696680653240014914910929820314476107906210059990541021184"
      ],
      "assetValues": [
        1
      ]
    },
    {
      "reservedAddress": "0x4b9eb35f9316b2be1e4a95b2f6c2618c1e1099a4",
      "assetIds": [
        "41506478881403507969696680653240014914910929820314476107906210059990541021184"
      ],
      "assetValues": [
        1
      ]
    },
    {
      "reservedAddress": "0x4bb2c5d686dd260a40a72ed5ce0aeb07f972ec34",
      "assetIds": [
        "41506478881403507969696680653240014914910929820314476107906210059990541021184"
      ],
      "assetValues": [
        1
      ]
    },
    {
      "reservedAddress": "0x4bf1fbc233cd6109c35a4cd9d34540173af3234c",
      "assetIds": [
        "41506478881403507969696680653240014914910929820314476107906210059990541021184"
      ],
      "assetValues": [
        1
      ]
    },
    {
      "reservedAddress": "0x4c2064c5380bbff3a2526ab914bebab7f3cdab33",
      "assetIds": [
        "41506478881403507969696680653240014914910929820314476107906210059990541021184"
      ],
      "assetValues": [
        1
      ]
    },
    {
      "reservedAddress": "0x4c47ab777f1f64d1f3d6efbf1cc7ab5a5224af4a",
      "assetIds": [
        "41506478881403507969696680653240014914910929820314476107906210059990541021184"
      ],
      "assetValues": [
        1
      ]
    },
    {
      "reservedAddress": "0x4c6514efcd93425a70830ecfe9f9f5436de91d57",
      "assetIds": [
        "41506478881403507969696680653240014914910929820314476107906210059990541021184"
      ],
      "assetValues": [
        1
      ]
    },
    {
      "reservedAddress": "0x4c6deb122f1329c575ad7d5bfe2191a1474ea4aa",
      "assetIds": [
        "41506478881403507969696680653240014914910929820314476107906210059990541021184"
      ],
      "assetValues": [
        1
      ]
    },
    {
      "reservedAddress": "0x4c7c9b9b72a8667fbd16690e88f4076954d929ab",
      "assetIds": [
        "41506478881403507969696680653240014914910929820314476107906210059990541021184"
      ],
      "assetValues": [
        1
      ]
    },
    {
      "reservedAddress": "0x4c7cf431a89fd0b4f44cf41c4e63b954482e4887",
      "assetIds": [
        "41506478881403507969696680653240014914910929820314476107906210059990541021184"
      ],
      "assetValues": [
        1
      ]
    },
    {
      "reservedAddress": "0x4c87d7d0f38b47951e568be9cef767b0d283d2db",
      "assetIds": [
        "41506478881403507969696680653240014914910929820314476107906210059990541021184"
      ],
      "assetValues": [
        1
      ]
    },
    {
      "reservedAddress": "0x4c8df6f36404be277cbf9502256874eef0ba1e76",
      "assetIds": [
        "41506478881403507969696680653240014914910929820314476107906210059990541021184"
      ],
      "assetValues": [
        1
      ]
    },
    {
      "reservedAddress": "0x4c9b02c3545767a9290ff00d94051fea36def106",
      "assetIds": [
        "41506478881403507969696680653240014914910929820314476107906210059990541021184"
      ],
      "assetValues": [
        1
      ]
    },
    {
      "reservedAddress": "0x4cb01b6672bc750821af952ec5a2447fc90195b1",
      "assetIds": [
        "41506478881403507969696680653240014914910929820314476107906210059990541021184"
      ],
      "assetValues": [
        1
      ]
    },
    {
      "reservedAddress": "0x4cda119c7bec1685bb39ebcf9e4be4252670a754",
      "assetIds": [
        "41506478881403507969696680653240014914910929820314476107906210059990541021184"
      ],
      "assetValues": [
        1
      ]
    },
    {
      "reservedAddress": "0x4ce5bf228a21eb022e0545bb5d1de6b3ce459129",
      "assetIds": [
        "41506478881403507969696680653240014914910929820314476107906210059990541021184"
      ],
      "assetValues": [
        1
      ]
    },
    {
      "reservedAddress": "0x4ce7d126dcb606008a711b46c2d8df50d88e4244",
      "assetIds": [
        "41506478881403507969696680653240014914910929820314476107906210059990541021184"
      ],
      "assetValues": [
        1
      ]
    },
    {
      "reservedAddress": "0x4d270a7ea8887e58b5b15cb1f582ef16ab839608",
      "assetIds": [
        "41506478881403507969696680653240014914910929820314476107906210059990541021184"
      ],
      "assetValues": [
        1
      ]
    },
    {
      "reservedAddress": "0x4d29fc6fceba665aa51a399a54d89d40fc30b71f",
      "assetIds": [
        "41506478881403507969696680653240014914910929820314476107906210059990541021184"
      ],
      "assetValues": [
        1
      ]
    },
    {
      "reservedAddress": "0x4d31fe849b8fe4e4d8f66fe94dacf1b1ac0cd301",
      "assetIds": [
        "41506478881403507969696680653240014914910929820314476107906210059990541021184"
      ],
      "assetValues": [
        1
      ]
    },
    {
      "reservedAddress": "0x4d3711c1effbc584127f03b3c3054f18f0cb3870",
      "assetIds": [
        "41506478881403507969696680653240014914910929820314476107906210059990541021184"
      ],
      "assetValues": [
        1
      ]
    },
    {
      "reservedAddress": "0x4d40e2541f943e48ec81dcce70647386b0e89132",
      "assetIds": [
        "41506478881403507969696680653240014914910929820314476107906210059990541021184"
      ],
      "assetValues": [
        1
      ]
    },
    {
      "reservedAddress": "0x4d59308c0f27a1bac79d84e7d1f157d4b29304d1",
      "assetIds": [
        "41506478881403507969696680653240014914910929820314476107906210059990541021184"
      ],
      "assetValues": [
        1
      ]
    },
    {
      "reservedAddress": "0x4d71e1178f9a5b7650a2917e8384702ef32390f9",
      "assetIds": [
        "41506478881403507969696680653240014914910929820314476107906210059990541021184"
      ],
      "assetValues": [
        1
      ]
    },
    {
      "reservedAddress": "0x4dbea90381ceb21925eb0a9ca39d7300afb7e5e1",
      "assetIds": [
        "41506478881403507969696680653240014914910929820314476107906210059990541021184"
      ],
      "assetValues": [
        1
      ]
    },
    {
      "reservedAddress": "0x4df96b9f2df9062d97295964d487417d1e0333d0",
      "assetIds": [
        "41506478881403507969696680653240014914910929820314476107906210059990541021184"
      ],
      "assetValues": [
        1
      ]
    },
    {
      "reservedAddress": "0x4e04a5320ca2e6278c5192136e6992659dcf4607",
      "assetIds": [
        "41506478881403507969696680653240014914910929820314476107906210059990541021184"
      ],
      "assetValues": [
        1
      ]
    },
    {
      "reservedAddress": "0x4e3c864e3f1797f3c544b456d084b8f5fa214de9",
      "assetIds": [
        "41506478881403507969696680653240014914910929820314476107906210059990541021184"
      ],
      "assetValues": [
        1
      ]
    },
    {
      "reservedAddress": "0x4e72aab59a23cd4e5cbbb3b1bb9675e64005c3fa",
      "assetIds": [
        "41506478881403507969696680653240014914910929820314476107906210059990541021184"
      ],
      "assetValues": [
        1
      ]
    },
    {
      "reservedAddress": "0x4eb47e129317ac4ef88b89ac6bb906b60232732e",
      "assetIds": [
        "41506478881403507969696680653240014914910929820314476107906210059990541021184"
      ],
      "assetValues": [
        1
      ]
    },
    {
      "reservedAddress": "0x4ec3db71e279b46d61bef1db2a0d5c04fa0cdf73",
      "assetIds": [
        "41506478881403507969696680653240014914910929820314476107906210059990541021184"
      ],
      "assetValues": [
        1
      ]
    },
    {
      "reservedAddress": "0x4ecfd881eb71bdcc58cbeabbe79f90d435da58b0",
      "assetIds": [
        "41506478881403507969696680653240014914910929820314476107906210059990541021184"
      ],
      "assetValues": [
        1
      ]
    },
    {
      "reservedAddress": "0x4ee5e0e66f1bb573c82bb48fda43a449390ffa73",
      "assetIds": [
        "41506478881403507969696680653240014914910929820314476107906210059990541021184"
      ],
      "assetValues": [
        1
      ]
    },
    {
      "reservedAddress": "0x4ef1a210a74fdfd9cc7507924e918b0f5c392b24",
      "assetIds": [
        "41506478881403507969696680653240014914910929820314476107906210059990541021184"
      ],
      "assetValues": [
        1
      ]
    },
    {
      "reservedAddress": "0x4f00aaf040b47fb5c98b87ea2fec25c55161a850",
      "assetIds": [
        "41506478881403507969696680653240014914910929820314476107906210059990541021184"
      ],
      "assetValues": [
        1
      ]
    },
    {
      "reservedAddress": "0x4f26b192e0d4c918d44d52b1e6055411b95cf083",
      "assetIds": [
        "41506478881403507969696680653240014914910929820314476107906210059990541021184"
      ],
      "assetValues": [
        1
      ]
    },
    {
      "reservedAddress": "0x4f31bfdee182626076e98a2aa6cbef2d490bda4c",
      "assetIds": [
        "41506478881403507969696680653240014914910929820314476107906210059990541021184"
      ],
      "assetValues": [
        1
      ]
    },
    {
      "reservedAddress": "0x4f6cb155b513c6b917beab345a01be235a2db28e",
      "assetIds": [
        "41506478881403507969696680653240014914910929820314476107906210059990541021184"
      ],
      "assetValues": [
        1
      ]
    },
    {
      "reservedAddress": "0x4f6f3ac1acbc2f2ac4cfe9af1435f8653652ade4",
      "assetIds": [
        "41506478881403507969696680653240014914910929820314476107906210059990541021184"
      ],
      "assetValues": [
        1
      ]
    },
    {
      "reservedAddress": "0x4f809effb315a91093169e17e6e1bf8f27889240",
      "assetIds": [
        "41506478881403507969696680653240014914910929820314476107906210059990541021184"
      ],
      "assetValues": [
        1
      ]
    },
    {
      "reservedAddress": "0x4fbf43715bda5cd8d913c8e39a88227f00c605fa",
      "assetIds": [
        "41506478881403507969696680653240014914910929820314476107906210059990541021184"
      ],
      "assetValues": [
        1
      ]
    },
    {
      "reservedAddress": "0x4fcf23940db5ba039f0f49dc40edcc1513b9372d",
      "assetIds": [
        "41506478881403507969696680653240014914910929820314476107906210059990541021184"
      ],
      "assetValues": [
        1
      ]
    },
    {
      "reservedAddress": "0x501ffc7ee44f7986c24fb5bf7c04c1ed6377ec87",
      "assetIds": [
        "41506478881403507969696680653240014914910929820314476107906210059990541021184"
      ],
      "assetValues": [
        1
      ]
    },
    {
      "reservedAddress": "0x5029c43bcb0ba8bd6e94845abd2aa5fbbd6e33db",
      "assetIds": [
        "41506478881403507969696680653240014914910929820314476107906210059990541021184"
      ],
      "assetValues": [
        1
      ]
    },
    {
      "reservedAddress": "0x5086d6c9f7f6799fa66a8826c753c3f98dea0ddb",
      "assetIds": [
        "41506478881403507969696680653240014914910929820314476107906210059990541021184"
      ],
      "assetValues": [
        1
      ]
    },
    {
      "reservedAddress": "0x50a1d51f094bade5d056c300a2985a2272490e5b",
      "assetIds": [
        "41506478881403507969696680653240014914910929820314476107906210059990541021184"
      ],
      "assetValues": [
        1
      ]
    },
    {
      "reservedAddress": "0x5143925b8005f234e3f344fda937e59ca8b0e115",
      "assetIds": [
        "41506478881403507969696680653240014914910929820314476107906210059990541021184"
      ],
      "assetValues": [
        1
      ]
    },
    {
      "reservedAddress": "0x517ff5b16c6059a5d9957420ccd05d7c8cabd9fb",
      "assetIds": [
        "41506478881403507969696680653240014914910929820314476107906210059990541021184"
      ],
      "assetValues": [
        1
      ]
    },
    {
      "reservedAddress": "0x519e19eac9ead404343c68224dd2a22c5c25f992",
      "assetIds": [
        "41506478881403507969696680653240014914910929820314476107906210059990541021184"
      ],
      "assetValues": [
        1
      ]
    },
    {
      "reservedAddress": "0x51b00954e77d9475d693956d022a7cecf5b519f1",
      "assetIds": [
        "41506478881403507969696680653240014914910929820314476107906210059990541021184"
      ],
      "assetValues": [
        1
      ]
    },
    {
      "reservedAddress": "0x51c3016d6699480ec6becdf2155079c27ebae040",
      "assetIds": [
        "41506478881403507969696680653240014914910929820314476107906210059990541021184"
      ],
      "assetValues": [
        1
      ]
    },
    {
      "reservedAddress": "0x52029325ab640c933e86fea95002c1b9a774a6b5",
      "assetIds": [
        "41506478881403507969696680653240014914910929820314476107906210059990541021184"
      ],
      "assetValues": [
        1
      ]
    },
    {
      "reservedAddress": "0x522e2cc70083f86e9a926c641ca63a69b580cf47",
      "assetIds": [
        "41506478881403507969696680653240014914910929820314476107906210059990541021184"
      ],
      "assetValues": [
        1
      ]
    },
    {
      "reservedAddress": "0x5287f1fb8cc0d73f3e8c896a8c02a1d4e190b931",
      "assetIds": [
        "41506478881403507969696680653240014914910929820314476107906210059990541021184"
      ],
      "assetValues": [
        1
      ]
    },
    {
      "reservedAddress": "0x52af787439a82f36d6ef6b0da0f0e5ecce29ff90",
      "assetIds": [
        "41506478881403507969696680653240014914910929820314476107906210059990541021184"
      ],
      "assetValues": [
        1
      ]
    },
    {
      "reservedAddress": "0x52cb5d7656f7bce0c86388861b246f75ed53b731",
      "assetIds": [
        "41506478881403507969696680653240014914910929820314476107906210059990541021184"
      ],
      "assetValues": [
        1
      ]
    },
    {
      "reservedAddress": "0x52eb1e66c42a59f3ae6ec88897c1e731cfc53e5f",
      "assetIds": [
        "41506478881403507969696680653240014914910929820314476107906210059990541021184"
      ],
      "assetValues": [
        1
      ]
    },
    {
      "reservedAddress": "0x531ff999493f8997d156197f6533d244e6c1c873",
      "assetIds": [
        "41506478881403507969696680653240014914910929820314476107906210059990541021184"
      ],
      "assetValues": [
        1
      ]
    },
    {
      "reservedAddress": "0x53422d7da1334bab84a5ee9b70e1c5f39f635a0b",
      "assetIds": [
        "41506478881403507969696680653240014914910929820314476107906210059990541021184"
      ],
      "assetValues": [
        1
      ]
    },
    {
      "reservedAddress": "0x534ee82b996c74203653d21b16422219ff6e2b0d",
      "assetIds": [
        "41506478881403507969696680653240014914910929820314476107906210059990541021184"
      ],
      "assetValues": [
        1
      ]
    },
    {
      "reservedAddress": "0x53527b460f7890652279bbaf5922654648bdc634",
      "assetIds": [
        "41506478881403507969696680653240014914910929820314476107906210059990541021184"
      ],
      "assetValues": [
        1
      ]
    },
    {
      "reservedAddress": "0x535e9d69758b9cb3dfbdb3691808487619eaa30a",
      "assetIds": [
        "41506478881403507969696680653240014914910929820314476107906210059990541021184"
      ],
      "assetValues": [
        1
      ]
    },
    {
      "reservedAddress": "0x536b55d904f9cb5eeb8e7ee32385dc8b3ad0476d",
      "assetIds": [
        "41506478881403507969696680653240014914910929820314476107906210059990541021184"
      ],
      "assetValues": [
        1
      ]
    },
    {
      "reservedAddress": "0x53b4c941c85bbbd75ba06e4e88402b2cd5aff9a7",
      "assetIds": [
        "41506478881403507969696680653240014914910929820314476107906210059990541021184"
      ],
      "assetValues": [
        1
      ]
    },
    {
      "reservedAddress": "0x53faac5e7ea135828db4bbefebdccde8c755e611",
      "assetIds": [
        "41506478881403507969696680653240014914910929820314476107906210059990541021184"
      ],
      "assetValues": [
        1
      ]
    },
    {
      "reservedAddress": "0x54021e58af1756dc70ce7034d7636de2d2f1fa74",
      "assetIds": [
        "41506478881403507969696680653240014914910929820314476107906210059990541021184"
      ],
      "assetValues": [
        1
      ]
    },
    {
      "reservedAddress": "0x543f39508598e746978452ce608b50a58a7455f2",
      "assetIds": [
        "41506478881403507969696680653240014914910929820314476107906210059990541021184"
      ],
      "assetValues": [
        1
      ]
    },
    {
      "reservedAddress": "0x5445affbd75840fcecad4b893653b2c61a8c7c5a",
      "assetIds": [
        "41506478881403507969696680653240014914910929820314476107906210059990541021184"
      ],
      "assetValues": [
        1
      ]
    },
    {
      "reservedAddress": "0x54782336c37fcd7cc31f2cd7a1a45a68a3bbf9e7",
      "assetIds": [
        "41506478881403507969696680653240014914910929820314476107906210059990541021184"
      ],
      "assetValues": [
        1
      ]
    },
    {
      "reservedAddress": "0x548ff463f99d27020b26cea3f0842f9d70a283bd",
      "assetIds": [
        "41506478881403507969696680653240014914910929820314476107906210059990541021184"
      ],
      "assetValues": [
        1
      ]
    },
    {
      "reservedAddress": "0x54aede904987dce7c0c683e9585b02267f18b69d",
      "assetIds": [
        "41506478881403507969696680653240014914910929820314476107906210059990541021184"
      ],
      "assetValues": [
        1
      ]
    },
    {
      "reservedAddress": "0x54c2af4f669246554cdb50f005f08b20e2d505b8",
      "assetIds": [
        "41506478881403507969696680653240014914910929820314476107906210059990541021184"
      ],
      "assetValues": [
        1
      ]
    },
    {
      "reservedAddress": "0x54dbd83cdc27e2d5d93b01d7463648738c3883ba",
      "assetIds": [
        "41506478881403507969696680653240014914910929820314476107906210059990541021184"
      ],
      "assetValues": [
        1
      ]
    },
    {
      "reservedAddress": "0x553e12b4b9400484103e1722542c86cf96a8f705",
      "assetIds": [
        "41506478881403507969696680653240014914910929820314476107906210059990541021184"
      ],
      "assetValues": [
        1
      ]
    },
    {
      "reservedAddress": "0x553f2dc3f12f85d05d88536a2fe5400f3a395f95",
      "assetIds": [
        "41506478881403507969696680653240014914910929820314476107906210059990541021184"
      ],
      "assetValues": [
        1
      ]
    },
    {
      "reservedAddress": "0x554073882606d8bece042e3da329fdbd5f4436ef",
      "assetIds": [
        "41506478881403507969696680653240014914910929820314476107906210059990541021184"
      ],
      "assetValues": [
        1
      ]
    },
    {
      "reservedAddress": "0x55682956d3d90b4efc74ceb4cc628ffd02faf714",
      "assetIds": [
        "41506478881403507969696680653240014914910929820314476107906210059990541021184"
      ],
      "assetValues": [
        1
      ]
    },
    {
      "reservedAddress": "0x557863cb135fed1eaccbd941d4a1b2809ed80afc",
      "assetIds": [
        "41506478881403507969696680653240014914910929820314476107906210059990541021184"
      ],
      "assetValues": [
        1
      ]
    },
    {
      "reservedAddress": "0x55bb37cf47f5c0aced1da7c9111704b18f4207be",
      "assetIds": [
        "41506478881403507969696680653240014914910929820314476107906210059990541021184"
      ],
      "assetValues": [
        1
      ]
    },
    {
      "reservedAddress": "0x55c0f20123862ad1f6c1b235d06ccb5ebbe97414",
      "assetIds": [
        "41506478881403507969696680653240014914910929820314476107906210059990541021184"
      ],
      "assetValues": [
        1
      ]
    },
    {
      "reservedAddress": "0x55c44b2827d73ba7edaff4fe21f7e12f57e4115b",
      "assetIds": [
        "41506478881403507969696680653240014914910929820314476107906210059990541021184"
      ],
      "assetValues": [
        1
      ]
    },
    {
      "reservedAddress": "0x55de6db9660b24f5e7b73a0c37f50b7994238c91",
      "assetIds": [
        "41506478881403507969696680653240014914910929820314476107906210059990541021184"
      ],
      "assetValues": [
        1
      ]
    },
    {
      "reservedAddress": "0x563197584e5b90d4328e2ee6c14c9c6fa267389b",
      "assetIds": [
        "41506478881403507969696680653240014914910929820314476107906210059990541021184"
      ],
      "assetValues": [
        1
      ]
    },
    {
      "reservedAddress": "0x56905ea3ad3d8be3452d01439c14cc591c2d9491",
      "assetIds": [
        "41506478881403507969696680653240014914910929820314476107906210059990541021184"
      ],
      "assetValues": [
        1
      ]
    },
    {
      "reservedAddress": "0x569aa6d2bdbbf19da1eeee239b1526a855613981",
      "assetIds": [
        "41506478881403507969696680653240014914910929820314476107906210059990541021184"
      ],
      "assetValues": [
        1
      ]
    },
    {
      "reservedAddress": "0x56bb601866f4ce3b827485c3583b981c5cd6107b",
      "assetIds": [
        "41506478881403507969696680653240014914910929820314476107906210059990541021184"
      ],
      "assetValues": [
        1
      ]
    },
    {
      "reservedAddress": "0x56d34535309ca211aa947eeda8cb5129c55ca4f0",
      "assetIds": [
        "41506478881403507969696680653240014914910929820314476107906210059990541021184"
      ],
      "assetValues": [
        1
      ]
    },
    {
      "reservedAddress": "0x56e52c4761394c733156d5ff1db78471b00b258e",
      "assetIds": [
        "41506478881403507969696680653240014914910929820314476107906210059990541021184"
      ],
      "assetValues": [
        1
      ]
    },
    {
      "reservedAddress": "0x56e773b0a620205e9f72265b6013b65b84c2c4af",
      "assetIds": [
        "41506478881403507969696680653240014914910929820314476107906210059990541021184"
      ],
      "assetValues": [
        1
      ]
    },
    {
      "reservedAddress": "0x56f712c49406b7ae673ecfc164515382bc1055d3",
      "assetIds": [
        "41506478881403507969696680653240014914910929820314476107906210059990541021184"
      ],
      "assetValues": [
        1
      ]
    },
    {
      "reservedAddress": "0x5701068ca0ba0338a5b64e8f59d5ae661e9ecfc0",
      "assetIds": [
        "41506478881403507969696680653240014914910929820314476107906210059990541021184"
      ],
      "assetValues": [
        1
      ]
    },
    {
      "reservedAddress": "0x573348fc35bae6716a0d67641a49cfa1797ed609",
      "assetIds": [
        "41506478881403507969696680653240014914910929820314476107906210059990541021184"
      ],
      "assetValues": [
        1
      ]
    },
    {
      "reservedAddress": "0x57511e026ec15e5c0248d041f34c3fff1cbb6ad0",
      "assetIds": [
        "41506478881403507969696680653240014914910929820314476107906210059990541021184"
      ],
      "assetValues": [
        1
      ]
    },
    {
      "reservedAddress": "0x576094a4f4bc9678e4a250d1c1a440d4f7d9cc86",
      "assetIds": [
        "41506478881403507969696680653240014914910929820314476107906210059990541021184"
      ],
      "assetValues": [
        1
      ]
    },
    {
      "reservedAddress": "0x577f7bda60bf5adaaa923f9df8533a193c9546b1",
      "assetIds": [
        "41506478881403507969696680653240014914910929820314476107906210059990541021184"
      ],
      "assetValues": [
        1
      ]
    },
    {
      "reservedAddress": "0x579e2016a530f293c48ea9fb1b3746eff0731a69",
      "assetIds": [
        "41506478881403507969696680653240014914910929820314476107906210059990541021184"
      ],
      "assetValues": [
        1
      ]
    },
    {
      "reservedAddress": "0x57a041300a0b4d7fe6af1cbcd9f511e463767ed7",
      "assetIds": [
        "41506478881403507969696680653240014914910929820314476107906210059990541021184"
      ],
      "assetValues": [
        1
      ]
    },
    {
      "reservedAddress": "0x5812602b6427e3dae54df18188bd78e428ca9184",
      "assetIds": [
        "41506478881403507969696680653240014914910929820314476107906210059990541021184"
      ],
      "assetValues": [
        1
      ]
    },
    {
      "reservedAddress": "0x581b3d2cdcd3911d9bbf503550c3f6c1f3c997b1",
      "assetIds": [
        "41506478881403507969696680653240014914910929820314476107906210059990541021184"
      ],
      "assetValues": [
        1
      ]
    },
    {
      "reservedAddress": "0x581da8c659cd1ff7310516d9d6feb22d70f9b9ec",
      "assetIds": [
        "41506478881403507969696680653240014914910929820314476107906210059990541021184"
      ],
      "assetValues": [
        1
      ]
    },
    {
      "reservedAddress": "0x587b2523cd96c134e248667ef0219b51e5f05166",
      "assetIds": [
        "41506478881403507969696680653240014914910929820314476107906210059990541021184"
      ],
      "assetValues": [
        1
      ]
    },
    {
      "reservedAddress": "0x58aa247c070e00a08aa89608fe4bcfcf8f023f87",
      "assetIds": [
        "41506478881403507969696680653240014914910929820314476107906210059990541021184"
      ],
      "assetValues": [
        1
      ]
    },
    {
      "reservedAddress": "0x58b7aa5bed029a5d149e108ad4bdf836d10f70ea",
      "assetIds": [
        "41506478881403507969696680653240014914910929820314476107906210059990541021184"
      ],
      "assetValues": [
        1
      ]
    },
    {
      "reservedAddress": "0x58d49377c74fe5aa1c098d9ed4161248b73faa30",
      "assetIds": [
        "41506478881403507969696680653240014914910929820314476107906210059990541021184"
      ],
      "assetValues": [
        1
      ]
    },
    {
      "reservedAddress": "0x594feb6ee83addaefc8ae8e8450cb9e3f803dfb6",
      "assetIds": [
        "41506478881403507969696680653240014914910929820314476107906210059990541021184"
      ],
      "assetValues": [
        1
      ]
    },
    {
      "reservedAddress": "0x596b3be39f9b9ea1b79f1bf2e70c0730f576b8b7",
      "assetIds": [
        "41506478881403507969696680653240014914910929820314476107906210059990541021184"
      ],
      "assetValues": [
        1
      ]
    },
    {
      "reservedAddress": "0x5990491f5d359e4043d126c36b03cf58146e3dda",
      "assetIds": [
        "41506478881403507969696680653240014914910929820314476107906210059990541021184"
      ],
      "assetValues": [
        1
      ]
    },
    {
      "reservedAddress": "0x59a63c6233b146db1ff957bc854508098693200a",
      "assetIds": [
        "41506478881403507969696680653240014914910929820314476107906210059990541021184"
      ],
      "assetValues": [
        1
      ]
    },
    {
      "reservedAddress": "0x59ab5da5ac2b086d6d679481227c38b500f08c3d",
      "assetIds": [
        "41506478881403507969696680653240014914910929820314476107906210059990541021184"
      ],
      "assetValues": [
        1
      ]
    },
    {
      "reservedAddress": "0x59b9339a8a3d78a5ffbc86998c85f3c07fa4b1b2",
      "assetIds": [
        "41506478881403507969696680653240014914910929820314476107906210059990541021184"
      ],
      "assetValues": [
        1
      ]
    },
    {
      "reservedAddress": "0x59ec0edb51ab373c94e1f93fa3cdaaa94aae582b",
      "assetIds": [
        "41506478881403507969696680653240014914910929820314476107906210059990541021184"
      ],
      "assetValues": [
        1
      ]
    },
    {
      "reservedAddress": "0x5a0d9a111263431b22d4d806c104d81ec4b2f90b",
      "assetIds": [
        "41506478881403507969696680653240014914910929820314476107906210059990541021184"
      ],
      "assetValues": [
        1
      ]
    },
    {
      "reservedAddress": "0x5a1e5f9c2c4c4635d8a6b2a9bb4d035aecc117f3",
      "assetIds": [
        "41506478881403507969696680653240014914910929820314476107906210059990541021184"
      ],
      "assetValues": [
        1
      ]
    },
    {
      "reservedAddress": "0x5a361121861ba05597a05ead0763998e96416368",
      "assetIds": [
        "41506478881403507969696680653240014914910929820314476107906210059990541021184"
      ],
      "assetValues": [
        1
      ]
    },
    {
      "reservedAddress": "0x5a74c56f26824ab4ce95ac35c95b2c5406b327f2",
      "assetIds": [
        "41506478881403507969696680653240014914910929820314476107906210059990541021184"
      ],
      "assetValues": [
        1
      ]
    },
    {
      "reservedAddress": "0x5a83b9cdfb6b24692abe12f8a9b5aa3627a767df",
      "assetIds": [
        "41506478881403507969696680653240014914910929820314476107906210059990541021184"
      ],
      "assetValues": [
        1
      ]
    },
    {
      "reservedAddress": "0x5a8577ba598abce3a5e6cb42595e4e86ceb95a4f",
      "assetIds": [
        "41506478881403507969696680653240014914910929820314476107906210059990541021184"
      ],
      "assetValues": [
        1
      ]
    },
    {
      "reservedAddress": "0x5a99742cc3e7116056d6cb5c0a5068f661e454ae",
      "assetIds": [
        "41506478881403507969696680653240014914910929820314476107906210059990541021184"
      ],
      "assetValues": [
        1
      ]
    },
    {
      "reservedAddress": "0x5a9b8026032db575b2b42af7853df193ad9adb25",
      "assetIds": [
        "41506478881403507969696680653240014914910929820314476107906210059990541021184"
      ],
      "assetValues": [
        1
      ]
    },
    {
      "reservedAddress": "0x5aafe0d5659f7d8e9af11845b249d0466e4cf658",
      "assetIds": [
        "41506478881403507969696680653240014914910929820314476107906210059990541021184"
      ],
      "assetValues": [
        1
      ]
    },
    {
      "reservedAddress": "0x5aeedbc6b655c13950f32e5e8a0760d15bbe0afb",
      "assetIds": [
        "41506478881403507969696680653240014914910929820314476107906210059990541021184"
      ],
      "assetValues": [
        1
      ]
    },
    {
      "reservedAddress": "0x5b227e0bc0ac356d32750f39c90b2de6796f1193",
      "assetIds": [
        "41506478881403507969696680653240014914910929820314476107906210059990541021184"
      ],
      "assetValues": [
        1
      ]
    },
    {
      "reservedAddress": "0x5b3adc694608fa593da061659aeaec8d4b91e1b6",
      "assetIds": [
        "41506478881403507969696680653240014914910929820314476107906210059990541021184"
      ],
      "assetValues": [
        1
      ]
    },
    {
      "reservedAddress": "0x5b50fb8281cb679a3102d3de22dd05a1ad895e8f",
      "assetIds": [
        "41506478881403507969696680653240014914910929820314476107906210059990541021184"
      ],
      "assetValues": [
        1
      ]
    },
    {
      "reservedAddress": "0x5ba3e11abf8c93186637847ec590fcd3aa588bd2",
      "assetIds": [
        "41506478881403507969696680653240014914910929820314476107906210059990541021184"
      ],
      "assetValues": [
        1
      ]
    },
    {
      "reservedAddress": "0x5bb59db58252cf7485e6730f6803f26825d58c53",
      "assetIds": [
        "41506478881403507969696680653240014914910929820314476107906210059990541021184"
      ],
      "assetValues": [
        1
      ]
    },
    {
      "reservedAddress": "0x5bc3d5a39a50be2348b9c529f81ae79f00945897",
      "assetIds": [
        "41506478881403507969696680653240014914910929820314476107906210059990541021184"
      ],
      "assetValues": [
        1
      ]
    },
    {
      "reservedAddress": "0x5bd602edaa3038b764d62dd4be600d91d66dc7d1",
      "assetIds": [
        "41506478881403507969696680653240014914910929820314476107906210059990541021184"
      ],
      "assetValues": [
        1
      ]
    },
    {
      "reservedAddress": "0x5c1e426ad2dfea720df76d7af2f0645c580295bd",
      "assetIds": [
        "41506478881403507969696680653240014914910929820314476107906210059990541021184"
      ],
      "assetValues": [
        1
      ]
    },
    {
      "reservedAddress": "0x5c5aa4157480ef3f6361c502eea018604710162e",
      "assetIds": [
        "41506478881403507969696680653240014914910929820314476107906210059990541021184"
      ],
      "assetValues": [
        1
      ]
    },
    {
      "reservedAddress": "0x5c5b6cade3f45fca78aac5a9877f1b73c51300e3",
      "assetIds": [
        "41506478881403507969696680653240014914910929820314476107906210059990541021184"
      ],
      "assetValues": [
        1
      ]
    },
    {
      "reservedAddress": "0x5c7c0fdc44b44673f070535897d1208104a28950",
      "assetIds": [
        "41506478881403507969696680653240014914910929820314476107906210059990541021184"
      ],
      "assetValues": [
        1
      ]
    },
    {
      "reservedAddress": "0x5c9a8da85e1c1fc7501925c6db595f99852c6e7c",
      "assetIds": [
        "41506478881403507969696680653240014914910929820314476107906210059990541021184"
      ],
      "assetValues": [
        1
      ]
    },
    {
      "reservedAddress": "0x5ca1e81bd97c7503bc1fe0be1291ae0e68e8f819",
      "assetIds": [
        "41506478881403507969696680653240014914910929820314476107906210059990541021184"
      ],
      "assetValues": [
        1
      ]
    },
    {
      "reservedAddress": "0x5cdf232ab03973d015e0758eab5d3ee34a3d0112",
      "assetIds": [
        "41506478881403507969696680653240014914910929820314476107906210059990541021184"
      ],
      "assetValues": [
        1
      ]
    },
    {
      "reservedAddress": "0x5d0ed5eb34c3de684e6c720892201c11f11c7bb0",
      "assetIds": [
        "41506478881403507969696680653240014914910929820314476107906210059990541021184"
      ],
      "assetValues": [
        1
      ]
    },
    {
      "reservedAddress": "0x5d11bf225a06faca24b0c18f3a674d2e93a5d7b0",
      "assetIds": [
        "41506478881403507969696680653240014914910929820314476107906210059990541021184"
      ],
      "assetValues": [
        1
      ]
    },
    {
      "reservedAddress": "0x5d8749514e7bd0e681b26c6cf8352e7ddee65eae",
      "assetIds": [
        "41506478881403507969696680653240014914910929820314476107906210059990541021184"
      ],
      "assetValues": [
        1
      ]
    },
    {
      "reservedAddress": "0x5de290885e508f3b89fa53448f148f5f132ebf3f",
      "assetIds": [
        "41506478881403507969696680653240014914910929820314476107906210059990541021184"
      ],
      "assetValues": [
        1
      ]
    },
    {
      "reservedAddress": "0x5de8edbe0e7c5c9afb2d088a45e20dfa65bb3b0b",
      "assetIds": [
        "41506478881403507969696680653240014914910929820314476107906210059990541021184"
      ],
      "assetValues": [
        1
      ]
    },
    {
      "reservedAddress": "0x5dea60eef2bfcef3a808a219b562145d1b80bd7d",
      "assetIds": [
        "41506478881403507969696680653240014914910929820314476107906210059990541021184"
      ],
      "assetValues": [
        1
      ]
    },
    {
      "reservedAddress": "0x5e2a3d93e64875926becdf8d109f5154dbf495f4",
      "assetIds": [
        "41506478881403507969696680653240014914910929820314476107906210059990541021184"
      ],
      "assetValues": [
        1
      ]
    },
    {
      "reservedAddress": "0x5e3709c45c00ecb9a69b7b397611ee0eb5fc9a24",
      "assetIds": [
        "41506478881403507969696680653240014914910929820314476107906210059990541021184"
      ],
      "assetValues": [
        1
      ]
    },
    {
      "reservedAddress": "0x5e37b7e461beace6f0049ee50f86aac66ec78344",
      "assetIds": [
        "41506478881403507969696680653240014914910929820314476107906210059990541021184"
      ],
      "assetValues": [
        1
      ]
    },
    {
      "reservedAddress": "0x5e4f6b35fc06342e8db4ffd78cca3fa16a9aba33",
      "assetIds": [
        "41506478881403507969696680653240014914910929820314476107906210059990541021184"
      ],
      "assetValues": [
        1
      ]
    },
    {
      "reservedAddress": "0x5e85e86f136e1fb41a80d29240f7da899c618bb9",
      "assetIds": [
        "41506478881403507969696680653240014914910929820314476107906210059990541021184"
      ],
      "assetValues": [
        1
      ]
    },
    {
      "reservedAddress": "0x5e95128f86908f9308dc79c7f5a27ed4e77ab137",
      "assetIds": [
        "41506478881403507969696680653240014914910929820314476107906210059990541021184"
      ],
      "assetValues": [
        1
      ]
    },
    {
      "reservedAddress": "0x5e994894a2bc0cf6676b1b4a6237790ce49acd2e",
      "assetIds": [
        "41506478881403507969696680653240014914910929820314476107906210059990541021184"
      ],
      "assetValues": [
        1
      ]
    },
    {
      "reservedAddress": "0x5eef26e0dc4c724a9e86593dfb3f031d4625f3cc",
      "assetIds": [
        "41506478881403507969696680653240014914910929820314476107906210059990541021184"
      ],
      "assetValues": [
        1
      ]
    },
    {
      "reservedAddress": "0x5f439a0e0a04a5b8f8979f6bf0ba505b43a8f8fc",
      "assetIds": [
        "41506478881403507969696680653240014914910929820314476107906210059990541021184"
      ],
      "assetValues": [
        1
      ]
    },
    {
      "reservedAddress": "0x5f5c57c2b35abbd8648b8a4137dec2d247b66d82",
      "assetIds": [
        "41506478881403507969696680653240014914910929820314476107906210059990541021184"
      ],
      "assetValues": [
        1
      ]
    },
    {
      "reservedAddress": "0x5f71a2bbeebd36c8cf3a07a7c57f0c70d492f810",
      "assetIds": [
        "41506478881403507969696680653240014914910929820314476107906210059990541021184"
      ],
      "assetValues": [
        1
      ]
    },
    {
      "reservedAddress": "0x5fa382e67e589f7bc6d4696a46654cbe3bae595f",
      "assetIds": [
        "41506478881403507969696680653240014914910929820314476107906210059990541021184"
      ],
      "assetValues": [
        1
      ]
    },
    {
      "reservedAddress": "0x5fab6be8a82b5c5af57844016614e6c409e09597",
      "assetIds": [
        "41506478881403507969696680653240014914910929820314476107906210059990541021184"
      ],
      "assetValues": [
        1
      ]
    },
    {
      "reservedAddress": "0x5fdedc3f3f211f15c8a0c2d8330e2affc49e3157",
      "assetIds": [
        "41506478881403507969696680653240014914910929820314476107906210059990541021184"
      ],
      "assetValues": [
        1
      ]
    },
    {
      "reservedAddress": "0x60168827bd15e9baef7c6a282c654eb6dec110de",
      "assetIds": [
        "41506478881403507969696680653240014914910929820314476107906210059990541021184"
      ],
      "assetValues": [
        1
      ]
    },
    {
      "reservedAddress": "0x60226a096fdcc916e01f1feb94f21096fdd9f2a1",
      "assetIds": [
        "41506478881403507969696680653240014914910929820314476107906210059990541021184"
      ],
      "assetValues": [
        1
      ]
    },
    {
      "reservedAddress": "0x604a060d8eaa48bf10ed99b6f643557d645dde82",
      "assetIds": [
        "41506478881403507969696680653240014914910929820314476107906210059990541021184"
      ],
      "assetValues": [
        1
      ]
    },
    {
      "reservedAddress": "0x60785d49d0bb61dd0204b2f72a23e2f9775f0576",
      "assetIds": [
        "41506478881403507969696680653240014914910929820314476107906210059990541021184"
      ],
      "assetValues": [
        1
      ]
    },
    {
      "reservedAddress": "0x6099b873858717d325ec5631b10b330c3d1546fd",
      "assetIds": [
        "41506478881403507969696680653240014914910929820314476107906210059990541021184"
      ],
      "assetValues": [
        1
      ]
    },
    {
      "reservedAddress": "0x60b27b6aca4d8613123eef40fe8147b4e416a322",
      "assetIds": [
        "41506478881403507969696680653240014914910929820314476107906210059990541021184"
      ],
      "assetValues": [
        1
      ]
    },
    {
      "reservedAddress": "0x60d38778adbbeeac88f741b833cbb9877228eea0",
      "assetIds": [
        "41506478881403507969696680653240014914910929820314476107906210059990541021184"
      ],
      "assetValues": [
        1
      ]
    },
    {
      "reservedAddress": "0x60f0d5102579e7b6f59bbeed986bb197603c23ac",
      "assetIds": [
        "41506478881403507969696680653240014914910929820314476107906210059990541021184"
      ],
      "assetValues": [
        1
      ]
    },
    {
      "reservedAddress": "0x6123d4abd919f6c17a218546a5b35b15a7fb354b",
      "assetIds": [
        "41506478881403507969696680653240014914910929820314476107906210059990541021184"
      ],
      "assetValues": [
        1
      ]
    },
    {
      "reservedAddress": "0x613ee38938ab8909a2a8af7784d89bfcbe49bf41",
      "assetIds": [
        "41506478881403507969696680653240014914910929820314476107906210059990541021184"
      ],
      "assetValues": [
        1
      ]
    },
    {
      "reservedAddress": "0x616b561c4d85e3b776b38c349ff62efcf8e25613",
      "assetIds": [
        "41506478881403507969696680653240014914910929820314476107906210059990541021184"
      ],
      "assetValues": [
        1
      ]
    },
    {
      "reservedAddress": "0x61762d5a5d18a43480a986142537542c3262cf37",
      "assetIds": [
        "41506478881403507969696680653240014914910929820314476107906210059990541021184"
      ],
      "assetValues": [
        1
      ]
    },
    {
      "reservedAddress": "0x6186290b28d511bff971631c916244a9fc539cfe",
      "assetIds": [
        "41506478881403507969696680653240014914910929820314476107906210059990541021184"
      ],
      "assetValues": [
        1
      ]
    },
    {
      "reservedAddress": "0x61987699055394c65355f2797d3e4e589f7fabf4",
      "assetIds": [
        "41506478881403507969696680653240014914910929820314476107906210059990541021184"
      ],
      "assetValues": [
        1
      ]
    },
    {
      "reservedAddress": "0x61b408373b2d9fe160deb68b734eb3556cba6715",
      "assetIds": [
        "41506478881403507969696680653240014914910929820314476107906210059990541021184"
      ],
      "assetValues": [
        1
      ]
    },
    {
      "reservedAddress": "0x61bca7c4364c81bdfc72f67714efbab63fa70d25",
      "assetIds": [
        "41506478881403507969696680653240014914910929820314476107906210059990541021184"
      ],
      "assetValues": [
        1
      ]
    },
    {
      "reservedAddress": "0x61d2f6cd7d4a463e2b0464692c81a8b94f85f51e",
      "assetIds": [
        "41506478881403507969696680653240014914910929820314476107906210059990541021184"
      ],
      "assetValues": [
        1
      ]
    },
    {
      "reservedAddress": "0x61fae0a71ade78fdac265a883e118d1e645f178a",
      "assetIds": [
        "41506478881403507969696680653240014914910929820314476107906210059990541021184"
      ],
      "assetValues": [
        1
      ]
    },
    {
      "reservedAddress": "0x6218df9e82cf9825d55fbb6203e919b5efe0e699",
      "assetIds": [
        "41506478881403507969696680653240014914910929820314476107906210059990541021184"
      ],
      "assetValues": [
        1
      ]
    },
    {
      "reservedAddress": "0x62782b5363c10d549e298921b60fdac490419596",
      "assetIds": [
        "41506478881403507969696680653240014914910929820314476107906210059990541021184"
      ],
      "assetValues": [
        1
      ]
    },
    {
      "reservedAddress": "0x62a476fecbb75095306a88d69a3520e7eafda5af",
      "assetIds": [
        "41506478881403507969696680653240014914910929820314476107906210059990541021184"
      ],
      "assetValues": [
        1
      ]
    },
    {
      "reservedAddress": "0x62abe7f56b87e9c41a5aa0b34516c9b21ee7b725",
      "assetIds": [
        "41506478881403507969696680653240014914910929820314476107906210059990541021184"
      ],
      "assetValues": [
        1
      ]
    },
    {
      "reservedAddress": "0x62ce0a2dd39f50bd91f67b1538b8dbdac99271b1",
      "assetIds": [
        "41506478881403507969696680653240014914910929820314476107906210059990541021184"
      ],
      "assetValues": [
        1
      ]
    },
    {
      "reservedAddress": "0x62d5a89fabd1b6eea0c62e3f4118ff62adcdfd23",
      "assetIds": [
        "41506478881403507969696680653240014914910929820314476107906210059990541021184"
      ],
      "assetValues": [
        1
      ]
    },
    {
      "reservedAddress": "0x62d5cb169405e88d899ee84328d4cd86fbf7c07b",
      "assetIds": [
        "41506478881403507969696680653240014914910929820314476107906210059990541021184"
      ],
      "assetValues": [
        1
      ]
    },
    {
      "reservedAddress": "0x62ea91d7816a83bc5e2c43872dfedf2ad6238704",
      "assetIds": [
        "41506478881403507969696680653240014914910929820314476107906210059990541021184"
      ],
      "assetValues": [
        1
      ]
    },
    {
      "reservedAddress": "0x632aa3b390358bbf0051fec464497b64cc399217",
      "assetIds": [
        "41506478881403507969696680653240014914910929820314476107906210059990541021184"
      ],
      "assetValues": [
        1
      ]
    },
    {
      "reservedAddress": "0x63331b1126b94a666bbefe9917db05503e510238",
      "assetIds": [
        "41506478881403507969696680653240014914910929820314476107906210059990541021184"
      ],
      "assetValues": [
        1
      ]
    },
    {
      "reservedAddress": "0x6356ff6b2f5dbc94339ee3f1a6b04fb855c0400c",
      "assetIds": [
        "41506478881403507969696680653240014914910929820314476107906210059990541021184"
      ],
      "assetValues": [
        1
      ]
    },
    {
      "reservedAddress": "0x63b99ee9afd7c06a21598b87831138b15e8712ab",
      "assetIds": [
        "41506478881403507969696680653240014914910929820314476107906210059990541021184"
      ],
      "assetValues": [
        1
      ]
    },
    {
      "reservedAddress": "0x63cbb00bbb19e834e48b5fcfac78422c705efd8c",
      "assetIds": [
        "41506478881403507969696680653240014914910929820314476107906210059990541021184"
      ],
      "assetValues": [
        1
      ]
    },
    {
      "reservedAddress": "0x641cc751b1978f08038e92363c98f79b132dcc86",
      "assetIds": [
        "41506478881403507969696680653240014914910929820314476107906210059990541021184"
      ],
      "assetValues": [
        1
      ]
    },
    {
      "reservedAddress": "0x64288c0881acbedc4bbdc4d7fee785f7dda54716",
      "assetIds": [
        "41506478881403507969696680653240014914910929820314476107906210059990541021184"
      ],
      "assetValues": [
        1
      ]
    },
    {
      "reservedAddress": "0x6439543a2ff1d78d25abdc8daa75bb004e210183",
      "assetIds": [
        "41506478881403507969696680653240014914910929820314476107906210059990541021184"
      ],
      "assetValues": [
        1
      ]
    },
    {
      "reservedAddress": "0x6468b6907bf4d4cc7fa337a7d53b8253e6d76161",
      "assetIds": [
        "41506478881403507969696680653240014914910929820314476107906210059990541021184"
      ],
      "assetValues": [
        1
      ]
    },
    {
      "reservedAddress": "0x646f429c3e56b7f42050e1cb5ab6db63002b0b72",
      "assetIds": [
        "41506478881403507969696680653240014914910929820314476107906210059990541021184"
      ],
      "assetValues": [
        1
      ]
    },
    {
      "reservedAddress": "0x64f7839cd249c7b853a8958578068d80e1f34723",
      "assetIds": [
        "41506478881403507969696680653240014914910929820314476107906210059990541021184"
      ],
      "assetValues": [
        1
      ]
    },
    {
      "reservedAddress": "0x653d63e4f2d7112a19f5eb993890a3f27b48ada5",
      "assetIds": [
        "41506478881403507969696680653240014914910929820314476107906210059990541021184"
      ],
      "assetValues": [
        1
      ]
    },
    {
      "reservedAddress": "0x65585a93ef8fa8d400508c579f5e718db2c44449",
      "assetIds": [
        "41506478881403507969696680653240014914910929820314476107906210059990541021184"
      ],
      "assetValues": [
        1
      ]
    },
    {
      "reservedAddress": "0x655c7eadf9360603cb5077d8dc57fa07bcf61d55",
      "assetIds": [
        "41506478881403507969696680653240014914910929820314476107906210059990541021184"
      ],
      "assetValues": [
        1
      ]
    },
    {
      "reservedAddress": "0x659e1dd6133c9b99f07c87232444f6ff122a1445",
      "assetIds": [
        "41506478881403507969696680653240014914910929820314476107906210059990541021184"
      ],
      "assetValues": [
        1
      ]
    },
    {
      "reservedAddress": "0x65a8da09f53f318972ac983bbba574f38e337647",
      "assetIds": [
        "41506478881403507969696680653240014914910929820314476107906210059990541021184"
      ],
      "assetValues": [
        1
      ]
    },
    {
      "reservedAddress": "0x65ee9c601146f7542dfc4420704f4aa181e9a8c1",
      "assetIds": [
        "41506478881403507969696680653240014914910929820314476107906210059990541021184"
      ],
      "assetValues": [
        1
      ]
    },
    {
      "reservedAddress": "0x65f48e4b8a95649b2e9c393d93448812a23435dc",
      "assetIds": [
        "41506478881403507969696680653240014914910929820314476107906210059990541021184"
      ],
      "assetValues": [
        1
      ]
    },
    {
      "reservedAddress": "0x65f9deacd2eb34ea0e86be918f922ed5fcab75a0",
      "assetIds": [
        "41506478881403507969696680653240014914910929820314476107906210059990541021184"
      ],
      "assetValues": [
        1
      ]
    },
    {
      "reservedAddress": "0x6658a7ca006dfefd75dc99e7de063b17bdc66b6f",
      "assetIds": [
        "41506478881403507969696680653240014914910929820314476107906210059990541021184"
      ],
      "assetValues": [
        1
      ]
    },
    {
      "reservedAddress": "0x665cb256bca4b8faa655beb02c0ae892edf80426",
      "assetIds": [
        "41506478881403507969696680653240014914910929820314476107906210059990541021184"
      ],
      "assetValues": [
        1
      ]
    },
    {
      "reservedAddress": "0x66633cc6b84cd127a0bb84864c1a4ea0172469a6",
      "assetIds": [
        "41506478881403507969696680653240014914910929820314476107906210059990541021184"
      ],
      "assetValues": [
        1
      ]
    },
    {
      "reservedAddress": "0x66b844184b194eeb027745e6ad0a7482092d5a1e",
      "assetIds": [
        "41506478881403507969696680653240014914910929820314476107906210059990541021184"
      ],
      "assetValues": [
        1
      ]
    },
    {
      "reservedAddress": "0x66d0e180af64fb368679f91765affc99174396ac",
      "assetIds": [
        "41506478881403507969696680653240014914910929820314476107906210059990541021184"
      ],
      "assetValues": [
        1
      ]
    },
    {
      "reservedAddress": "0x671ca294bcaf35f303024c3b881637407d8257d4",
      "assetIds": [
        "41506478881403507969696680653240014914910929820314476107906210059990541021184"
      ],
      "assetValues": [
        1
      ]
    },
    {
      "reservedAddress": "0x6722846282868a9c084b423aee79eb8ff69fc497",
      "assetIds": [
        "41506478881403507969696680653240014914910929820314476107906210059990541021184"
      ],
      "assetValues": [
        1
      ]
    },
    {
      "reservedAddress": "0x6777529d538c57d6cc6d46da4610758245470dab",
      "assetIds": [
        "41506478881403507969696680653240014914910929820314476107906210059990541021184"
      ],
      "assetValues": [
        1
      ]
    },
    {
      "reservedAddress": "0x67e1ab582fd4744c04a817593a089e82129bc18c",
      "assetIds": [
        "41506478881403507969696680653240014914910929820314476107906210059990541021184"
      ],
      "assetValues": [
        1
      ]
    },
    {
      "reservedAddress": "0x67f0db1fd60a9eeae3360e1fd3460082645d27ea",
      "assetIds": [
        "41506478881403507969696680653240014914910929820314476107906210059990541021184"
      ],
      "assetValues": [
        1
      ]
    },
    {
      "reservedAddress": "0x67f5e3dde17775d2143d8d9fe5dc5883f58c8954",
      "assetIds": [
        "41506478881403507969696680653240014914910929820314476107906210059990541021184"
      ],
      "assetValues": [
        1
      ]
    },
    {
      "reservedAddress": "0x67ffb0c645f5843ff88a6ff0fc91fd1798974e57",
      "assetIds": [
        "41506478881403507969696680653240014914910929820314476107906210059990541021184"
      ],
      "assetValues": [
        1
      ]
    },
    {
      "reservedAddress": "0x681694d348f45c9eca4e968cc4cdf996352970ac",
      "assetIds": [
        "41506478881403507969696680653240014914910929820314476107906210059990541021184"
      ],
      "assetValues": [
        1
      ]
    },
    {
      "reservedAddress": "0x681ba60c0def303fe6e9736ffdd2709d2c314491",
      "assetIds": [
        "41506478881403507969696680653240014914910929820314476107906210059990541021184"
      ],
      "assetValues": [
        1
      ]
    },
    {
      "reservedAddress": "0x6823fd15c2b804019e4cc772e2fa5faa354407eb",
      "assetIds": [
        "41506478881403507969696680653240014914910929820314476107906210059990541021184"
      ],
      "assetValues": [
        1
      ]
    },
    {
      "reservedAddress": "0x682ad45cbcf00b358c7906dbedf2e34951cf7874",
      "assetIds": [
        "41506478881403507969696680653240014914910929820314476107906210059990541021184"
      ],
      "assetValues": [
        1
      ]
    },
    {
      "reservedAddress": "0x6842ed77c0dc86e3c9629fd5cf6865d68bb62b30",
      "assetIds": [
        "41506478881403507969696680653240014914910929820314476107906210059990541021184"
      ],
      "assetValues": [
        1
      ]
    },
    {
      "reservedAddress": "0x686f2152eed480a424bd69f3a92b5c87c4074ec6",
      "assetIds": [
        "41506478881403507969696680653240014914910929820314476107906210059990541021184"
      ],
      "assetValues": [
        1
      ]
    },
    {
      "reservedAddress": "0x68703d68bdbae0190c5ea577e34a4ad67221c0b9",
      "assetIds": [
        "41506478881403507969696680653240014914910929820314476107906210059990541021184"
      ],
      "assetValues": [
        1
      ]
    },
    {
      "reservedAddress": "0x687d21d0d452ec8ab22b7e4143fa8fc9b595de3f",
      "assetIds": [
        "41506478881403507969696680653240014914910929820314476107906210059990541021184"
      ],
      "assetValues": [
        1
      ]
    },
    {
      "reservedAddress": "0x68d36dcbdd7bbf206e27134f28103abe7cf972df",
      "assetIds": [
        "41506478881403507969696680653240014914910929820314476107906210059990541021184"
      ],
      "assetValues": [
        1
      ]
    },
    {
      "reservedAddress": "0x68e5c9097b6bf864903d730fd894537daaecce90",
      "assetIds": [
        "41506478881403507969696680653240014914910929820314476107906210059990541021184"
      ],
      "assetValues": [
        1
      ]
    },
    {
      "reservedAddress": "0x68fb35686337d7b0ece3cd391b22042e07ca5be1",
      "assetIds": [
        "41506478881403507969696680653240014914910929820314476107906210059990541021184"
      ],
      "assetValues": [
        1
      ]
    },
    {
      "reservedAddress": "0x69424bb4f42807a2b5dc4d8509edb927ae83dce9",
      "assetIds": [
        "41506478881403507969696680653240014914910929820314476107906210059990541021184"
      ],
      "assetValues": [
        1
      ]
    },
    {
      "reservedAddress": "0x694595ff7eca7e0b30fc3e71d690e0ca3aa66b04",
      "assetIds": [
        "41506478881403507969696680653240014914910929820314476107906210059990541021184"
      ],
      "assetValues": [
        1
      ]
    },
    {
      "reservedAddress": "0x69528c13dcb9d6d5bcb68fd77f8d5498f841ffe4",
      "assetIds": [
        "41506478881403507969696680653240014914910929820314476107906210059990541021184"
      ],
      "assetValues": [
        1
      ]
    },
    {
      "reservedAddress": "0x695e9089fdd7d92037e525ac2cb59a509a0e9a84",
      "assetIds": [
        "41506478881403507969696680653240014914910929820314476107906210059990541021184"
      ],
      "assetValues": [
        1
      ]
    },
    {
      "reservedAddress": "0x6967e0d3205e63c66e1596a4c35829c5acf07958",
      "assetIds": [
        "41506478881403507969696680653240014914910929820314476107906210059990541021184"
      ],
      "assetValues": [
        1
      ]
    },
    {
      "reservedAddress": "0x696b72d7156830c451c3988059e2e47784d53ffa",
      "assetIds": [
        "41506478881403507969696680653240014914910929820314476107906210059990541021184"
      ],
      "assetValues": [
        1
      ]
    },
    {
      "reservedAddress": "0x6988303a3854c098b903ceacf4ae54530ceb3d98",
      "assetIds": [
        "41506478881403507969696680653240014914910929820314476107906210059990541021184"
      ],
      "assetValues": [
        1
      ]
    },
    {
      "reservedAddress": "0x698c716d2998ba8b508b6e1751e794106388d583",
      "assetIds": [
        "41506478881403507969696680653240014914910929820314476107906210059990541021184"
      ],
      "assetValues": [
        1
      ]
    },
    {
      "reservedAddress": "0x698fa6437475f3f86df33ea0cb612ad529954811",
      "assetIds": [
        "41506478881403507969696680653240014914910929820314476107906210059990541021184"
      ],
      "assetValues": [
        1
      ]
    },
    {
      "reservedAddress": "0x69df7dd293eeff309d8fa12126be3f5d2eb277e2",
      "assetIds": [
        "41506478881403507969696680653240014914910929820314476107906210059990541021184"
      ],
      "assetValues": [
        1
      ]
    },
    {
      "reservedAddress": "0x6a655fa1a0bb525781389f065e16d688b5965926",
      "assetIds": [
        "41506478881403507969696680653240014914910929820314476107906210059990541021184"
      ],
      "assetValues": [
        1
      ]
    },
    {
      "reservedAddress": "0x6a7cc5e205bce058454e1576419f3dab1ce21637",
      "assetIds": [
        "41506478881403507969696680653240014914910929820314476107906210059990541021184"
      ],
      "assetValues": [
        1
      ]
    },
    {
      "reservedAddress": "0x6a9ee69b6781c18164ee9f7c58f1763bcffc7c51",
      "assetIds": [
        "41506478881403507969696680653240014914910929820314476107906210059990541021184"
      ],
      "assetValues": [
        1
      ]
    },
    {
      "reservedAddress": "0x6aaea0cabb9ba8031ea59087eab131edc07a6022",
      "assetIds": [
        "41506478881403507969696680653240014914910929820314476107906210059990541021184"
      ],
      "assetValues": [
        1
      ]
    },
    {
      "reservedAddress": "0x6acad2cb890c7f095ca3c4840a135df4517b3067",
      "assetIds": [
        "41506478881403507969696680653240014914910929820314476107906210059990541021184"
      ],
      "assetValues": [
        1
      ]
    },
    {
      "reservedAddress": "0x6b40176cdf732dbb35c1d0575c9b829817410984",
      "assetIds": [
        "41506478881403507969696680653240014914910929820314476107906210059990541021184"
      ],
      "assetValues": [
        1
      ]
    },
    {
      "reservedAddress": "0x6b4923ca6696658e0c3adf0452caabe7c182f63a",
      "assetIds": [
        "41506478881403507969696680653240014914910929820314476107906210059990541021184"
      ],
      "assetValues": [
        1
      ]
    },
    {
      "reservedAddress": "0x6b7d87b652add0b2b5bf0bfe62215b045d452fa8",
      "assetIds": [
        "41506478881403507969696680653240014914910929820314476107906210059990541021184"
      ],
      "assetValues": [
        1
      ]
    },
    {
      "reservedAddress": "0x6b82ddfc6fdc0386fb93822273950d4b22b3460b",
      "assetIds": [
        "41506478881403507969696680653240014914910929820314476107906210059990541021184"
      ],
      "assetValues": [
        1
      ]
    },
    {
      "reservedAddress": "0x6be045fc5cf6bde69907edf8d3d99be79f1929d7",
      "assetIds": [
        "41506478881403507969696680653240014914910929820314476107906210059990541021184"
      ],
      "assetValues": [
        1
      ]
    },
    {
      "reservedAddress": "0x6be1bffb69c216f4716e0555b617a2ae1b3844dd",
      "assetIds": [
        "41506478881403507969696680653240014914910929820314476107906210059990541021184"
      ],
      "assetValues": [
        1
      ]
    },
    {
      "reservedAddress": "0x6c0f96048e967a5811a2632b425b65868cbb2c4b",
      "assetIds": [
        "41506478881403507969696680653240014914910929820314476107906210059990541021184"
      ],
      "assetValues": [
        1
      ]
    },
    {
      "reservedAddress": "0x6c1058a00bc00d6aca3da8ae2d96573bd1c75ce1",
      "assetIds": [
        "41506478881403507969696680653240014914910929820314476107906210059990541021184"
      ],
      "assetValues": [
        1
      ]
    },
    {
      "reservedAddress": "0x6c36eeb29736c935e3e90392c3ed419c72f40767",
      "assetIds": [
        "41506478881403507969696680653240014914910929820314476107906210059990541021184"
      ],
      "assetValues": [
        1
      ]
    },
    {
      "reservedAddress": "0x6c48aed1258b5366d67bc98f3d51af5d0feaecb5",
      "assetIds": [
        "41506478881403507969696680653240014914910929820314476107906210059990541021184"
      ],
      "assetValues": [
        1
      ]
    },
    {
      "reservedAddress": "0x6c7c59e2f211b6d8948da9af6883f708fda27222",
      "assetIds": [
        "41506478881403507969696680653240014914910929820314476107906210059990541021184"
      ],
      "assetValues": [
        1
      ]
    },
    {
      "reservedAddress": "0x6c9e731cc543f8094eda483447070997cfbd0fe1",
      "assetIds": [
        "41506478881403507969696680653240014914910929820314476107906210059990541021184"
      ],
      "assetValues": [
        1
      ]
    },
    {
      "reservedAddress": "0x6cb804ba91d05adf5883f598d833147a5473f491",
      "assetIds": [
        "41506478881403507969696680653240014914910929820314476107906210059990541021184"
      ],
      "assetValues": [
        1
      ]
    },
    {
      "reservedAddress": "0x6d253a1f74ae8a4169f0b0b6cf62c7e128766fcc",
      "assetIds": [
        "41506478881403507969696680653240014914910929820314476107906210059990541021184"
      ],
      "assetValues": [
        1
      ]
    },
    {
      "reservedAddress": "0x6d2555e01c338625c9a825061a0338c23233b97a",
      "assetIds": [
        "41506478881403507969696680653240014914910929820314476107906210059990541021184"
      ],
      "assetValues": [
        1
      ]
    },
    {
      "reservedAddress": "0x6dc0844367056def125a904af62fc653fea193ad",
      "assetIds": [
        "41506478881403507969696680653240014914910929820314476107906210059990541021184"
      ],
      "assetValues": [
        1
      ]
    },
    {
      "reservedAddress": "0x6dc6ef807bf9ac0c595f16a38e32d60afa4a47fa",
      "assetIds": [
        "41506478881403507969696680653240014914910929820314476107906210059990541021184"
      ],
      "assetValues": [
        1
      ]
    },
    {
      "reservedAddress": "0x6e37d29b046598fceb6a7c7e0da6a0af01ccbda5",
      "assetIds": [
        "41506478881403507969696680653240014914910929820314476107906210059990541021184"
      ],
      "assetValues": [
        1
      ]
    },
    {
      "reservedAddress": "0x6e566e755d009e4c2507d470d65bba43b348cc66",
      "assetIds": [
        "41506478881403507969696680653240014914910929820314476107906210059990541021184"
      ],
      "assetValues": [
        1
      ]
    },
    {
      "reservedAddress": "0x6e63a4caeccb4f341ee9c9175c9cc554bdb6d10b",
      "assetIds": [
        "41506478881403507969696680653240014914910929820314476107906210059990541021184"
      ],
      "assetValues": [
        1
      ]
    },
    {
      "reservedAddress": "0x6e646d288148da0f62e601cdcc5a15d42ee92409",
      "assetIds": [
        "41506478881403507969696680653240014914910929820314476107906210059990541021184"
      ],
      "assetValues": [
        1
      ]
    },
    {
      "reservedAddress": "0x6e76d9280bb01ad28dc155efb85872a48fed2f12",
      "assetIds": [
        "41506478881403507969696680653240014914910929820314476107906210059990541021184"
      ],
      "assetValues": [
        1
      ]
    },
    {
      "reservedAddress": "0x6e9075da365be17041e704a16d39652a7a54b862",
      "assetIds": [
        "41506478881403507969696680653240014914910929820314476107906210059990541021184"
      ],
      "assetValues": [
        1
      ]
    },
    {
      "reservedAddress": "0x6edae6dc599452915806fecb51cc1032c3d9dd65",
      "assetIds": [
        "41506478881403507969696680653240014914910929820314476107906210059990541021184"
      ],
      "assetValues": [
        1
      ]
    },
    {
      "reservedAddress": "0x6edf7496aa68e3b4ba4a232dc00285c6890cd0ed",
      "assetIds": [
        "41506478881403507969696680653240014914910929820314476107906210059990541021184"
      ],
      "assetValues": [
        1
      ]
    },
    {
      "reservedAddress": "0x6f4fbe333f727892a41aee0c59e6432b1a5926a0",
      "assetIds": [
        "41506478881403507969696680653240014914910929820314476107906210059990541021184"
      ],
      "assetValues": [
        1
      ]
    },
    {
      "reservedAddress": "0x6f6416cc1fadd7b65902df6446fb42389238db48",
      "assetIds": [
        "41506478881403507969696680653240014914910929820314476107906210059990541021184"
      ],
      "assetValues": [
        1
      ]
    },
    {
      "reservedAddress": "0x6fa565dbd0fbbbb2ad7b0c5ba31730ae09209610",
      "assetIds": [
        "41506478881403507969696680653240014914910929820314476107906210059990541021184"
      ],
      "assetValues": [
        1
      ]
    },
    {
      "reservedAddress": "0x6fe56284fd2e92a38857a6b0c4a1285304dfa9ec",
      "assetIds": [
        "41506478881403507969696680653240014914910929820314476107906210059990541021184"
      ],
      "assetValues": [
        1
      ]
    },
    {
      "reservedAddress": "0x70209e640230327acc75664767ea4ac345065925",
      "assetIds": [
        "41506478881403507969696680653240014914910929820314476107906210059990541021184"
      ],
      "assetValues": [
        1
      ]
    },
    {
      "reservedAddress": "0x705dab8bdd0bf910ab1434f6c7d1a003b1ddeffd",
      "assetIds": [
        "41506478881403507969696680653240014914910929820314476107906210059990541021184"
      ],
      "assetValues": [
        1
      ]
    },
    {
      "reservedAddress": "0x706ba77d09dad6aab72d45fd945e2d2533430757",
      "assetIds": [
        "41506478881403507969696680653240014914910929820314476107906210059990541021184"
      ],
      "assetValues": [
        1
      ]
    },
    {
      "reservedAddress": "0x707294245894b6a6a9713a41bf38a397b3b784e1",
      "assetIds": [
        "41506478881403507969696680653240014914910929820314476107906210059990541021184"
      ],
      "assetValues": [
        1
      ]
    },
    {
      "reservedAddress": "0x708d15d6b33b588a38fc9a822ea52b4a4c0f2894",
      "assetIds": [
        "41506478881403507969696680653240014914910929820314476107906210059990541021184"
      ],
      "assetValues": [
        1
      ]
    },
    {
      "reservedAddress": "0x70c4754eaf188fe204f2e7a36be1220ed9db174b",
      "assetIds": [
        "41506478881403507969696680653240014914910929820314476107906210059990541021184"
      ],
      "assetValues": [
        1
      ]
    },
    {
      "reservedAddress": "0x70d89bde1329e344c9325af2e86c9cadd3ff39dd",
      "assetIds": [
        "41506478881403507969696680653240014914910929820314476107906210059990541021184"
      ],
      "assetValues": [
        1
      ]
    },
    {
      "reservedAddress": "0x710e3772232ca9d8e9a0fadfcd1406425c1179c7",
      "assetIds": [
        "41506478881403507969696680653240014914910929820314476107906210059990541021184"
      ],
      "assetValues": [
        1
      ]
    },
    {
      "reservedAddress": "0x71458ff472515ac71e61353856a29a3081cf90ad",
      "assetIds": [
        "41506478881403507969696680653240014914910929820314476107906210059990541021184"
      ],
      "assetValues": [
        1
      ]
    },
    {
      "reservedAddress": "0x714e6a851aba9f597db2096c19c6b25cbf235d3c",
      "assetIds": [
        "41506478881403507969696680653240014914910929820314476107906210059990541021184"
      ],
      "assetValues": [
        1
      ]
    },
    {
      "reservedAddress": "0x716e1e47667a71e361232141e72b4c9b6e9491af",
      "assetIds": [
        "41506478881403507969696680653240014914910929820314476107906210059990541021184"
      ],
      "assetValues": [
        1
      ]
    },
    {
      "reservedAddress": "0x7188f0554c915e0535f366a8c2f1b546dda0f8c0",
      "assetIds": [
        "41506478881403507969696680653240014914910929820314476107906210059990541021184"
      ],
      "assetValues": [
        1
      ]
    },
    {
      "reservedAddress": "0x7205a1b9c5cf6494ba2ceb5adcca831c05536912",
      "assetIds": [
        "41506478881403507969696680653240014914910929820314476107906210059990541021184"
      ],
      "assetValues": [
        1
      ]
    },
    {
      "reservedAddress": "0x7221e37fec261309bf4bd4e95dc129f1372f8082",
      "assetIds": [
        "41506478881403507969696680653240014914910929820314476107906210059990541021184"
      ],
      "assetValues": [
        1
      ]
    },
    {
      "reservedAddress": "0x7244c03add8146179742de152b49232defe91c90",
      "assetIds": [
        "41506478881403507969696680653240014914910929820314476107906210059990541021184"
      ],
      "assetValues": [
        1
      ]
    },
    {
      "reservedAddress": "0x725bb89b2021a88f468b774502f8d670c24a6c50",
      "assetIds": [
        "41506478881403507969696680653240014914910929820314476107906210059990541021184"
      ],
      "assetValues": [
        1
      ]
    },
    {
      "reservedAddress": "0x725f82c096bd72b500c2f6dd7306c46c59de1353",
      "assetIds": [
        "41506478881403507969696680653240014914910929820314476107906210059990541021184"
      ],
      "assetValues": [
        1
      ]
    },
    {
      "reservedAddress": "0x728247292aad5355e8ee41d803c662a4763b0364",
      "assetIds": [
        "41506478881403507969696680653240014914910929820314476107906210059990541021184"
      ],
      "assetValues": [
        1
      ]
    },
    {
      "reservedAddress": "0x728bd56a965dc3b9ada745301c2f731599d2fe13",
      "assetIds": [
        "41506478881403507969696680653240014914910929820314476107906210059990541021184"
      ],
      "assetValues": [
        1
      ]
    },
    {
      "reservedAddress": "0x72c8280defc12277281ce52820e10c7816197b4e",
      "assetIds": [
        "41506478881403507969696680653240014914910929820314476107906210059990541021184"
      ],
      "assetValues": [
        1
      ]
    },
    {
      "reservedAddress": "0x734dfdf8b3ef5f068c0b8766a3fabaccdb9f9c28",
      "assetIds": [
        "41506478881403507969696680653240014914910929820314476107906210059990541021184"
      ],
      "assetValues": [
        1
      ]
    },
    {
      "reservedAddress": "0x736dde3e0f5c588ddc53ad7f0f65667c0cca2801",
      "assetIds": [
        "41506478881403507969696680653240014914910929820314476107906210059990541021184"
      ],
      "assetValues": [
        1
      ]
    },
    {
      "reservedAddress": "0x7376ec0af6936c7ebf886edcabd53392d0014f43",
      "assetIds": [
        "41506478881403507969696680653240014914910929820314476107906210059990541021184"
      ],
      "assetValues": [
        1
      ]
    },
    {
      "reservedAddress": "0x73856db0d1d135f5b88922b329676e5b30d79e48",
      "assetIds": [
        "41506478881403507969696680653240014914910929820314476107906210059990541021184"
      ],
      "assetValues": [
        1
      ]
    },
    {
      "reservedAddress": "0x73b05ee2c52147ab6e3c6f55a48ac521ac93808e",
      "assetIds": [
        "41506478881403507969696680653240014914910929820314476107906210059990541021184"
      ],
      "assetValues": [
        1
      ]
    },
    {
      "reservedAddress": "0x73deaeb8aa241b6fcdb992060ae43193cccbf638",
      "assetIds": [
        "41506478881403507969696680653240014914910929820314476107906210059990541021184"
      ],
      "assetValues": [
        1
      ]
    },
    {
      "reservedAddress": "0x73e2def3b5002763f4c7a1fb34c8e8c53f04f247",
      "assetIds": [
        "41506478881403507969696680653240014914910929820314476107906210059990541021184"
      ],
      "assetValues": [
        1
      ]
    },
    {
      "reservedAddress": "0x7405fe24003a50e4f4117d35e9b5a9f5e512fede",
      "assetIds": [
        "41506478881403507969696680653240014914910929820314476107906210059990541021184"
      ],
      "assetValues": [
        1
      ]
    },
    {
      "reservedAddress": "0x740b56c8aa83111f561e9267471e464dc667a020",
      "assetIds": [
        "41506478881403507969696680653240014914910929820314476107906210059990541021184"
      ],
      "assetValues": [
        1
      ]
    },
    {
      "reservedAddress": "0x743a1f68dab15a9969337bb4cfcc889f43a65f0e",
      "assetIds": [
        "41506478881403507969696680653240014914910929820314476107906210059990541021184"
      ],
      "assetValues": [
        1
      ]
    },
    {
      "reservedAddress": "0x7457865ba58c4fe72fc43ec8fdf61c818caa93f4",
      "assetIds": [
        "41506478881403507969696680653240014914910929820314476107906210059990541021184"
      ],
      "assetValues": [
        1
      ]
    },
    {
      "reservedAddress": "0x745ceb2f642a56dc16c608a8cc813b3eb3634819",
      "assetIds": [
        "41506478881403507969696680653240014914910929820314476107906210059990541021184"
      ],
      "assetValues": [
        1
      ]
    },
    {
      "reservedAddress": "0x747ad6ccf36514dafa33ac969b01f207c0e046f6",
      "assetIds": [
        "41506478881403507969696680653240014914910929820314476107906210059990541021184"
      ],
      "assetValues": [
        1
      ]
    },
    {
      "reservedAddress": "0x74c3b4a05f68669c5d744f699c505168eeee4f96",
      "assetIds": [
        "41506478881403507969696680653240014914910929820314476107906210059990541021184"
      ],
      "assetValues": [
        1
      ]
    },
    {
      "reservedAddress": "0x74cae5c8203541bbde358bcbbe4621e93363eccf",
      "assetIds": [
        "41506478881403507969696680653240014914910929820314476107906210059990541021184"
      ],
      "assetValues": [
        1
      ]
    },
    {
      "reservedAddress": "0x74e2f04def059397d4a3382fd4a85df062d75bf4",
      "assetIds": [
        "41506478881403507969696680653240014914910929820314476107906210059990541021184"
      ],
      "assetValues": [
        1
      ]
    },
    {
      "reservedAddress": "0x74eb14f611c13f52c701a8e25571e480e4736bd4",
      "assetIds": [
        "41506478881403507969696680653240014914910929820314476107906210059990541021184"
      ],
      "assetValues": [
        1
      ]
    },
    {
      "reservedAddress": "0x74eff2413d9c7d46d03e9cdd88550b86f05ef917",
      "assetIds": [
        "41506478881403507969696680653240014914910929820314476107906210059990541021184"
      ],
      "assetValues": [
        1
      ]
    },
    {
      "reservedAddress": "0x7516d337dded2bdb8724ef3b0841dbd0b48cd7a3",
      "assetIds": [
        "41506478881403507969696680653240014914910929820314476107906210059990541021184"
      ],
      "assetValues": [
        1
      ]
    },
    {
      "reservedAddress": "0x75178936054e89a56263eff03af543f8c7fd53b3",
      "assetIds": [
        "41506478881403507969696680653240014914910929820314476107906210059990541021184"
      ],
      "assetValues": [
        1
      ]
    },
    {
      "reservedAddress": "0x759b98f35269f53bd9b2125465f683b922efab09",
      "assetIds": [
        "41506478881403507969696680653240014914910929820314476107906210059990541021184"
      ],
      "assetValues": [
        1
      ]
    },
    {
      "reservedAddress": "0x759de6b9806a5f695b8fe92f58a6771fb5db52c6",
      "assetIds": [
        "41506478881403507969696680653240014914910929820314476107906210059990541021184"
      ],
      "assetValues": [
        1
      ]
    },
    {
      "reservedAddress": "0x75a08951340a388486062019515f1e75fdb733d1",
      "assetIds": [
        "41506478881403507969696680653240014914910929820314476107906210059990541021184"
      ],
      "assetValues": [
        1
      ]
    },
    {
      "reservedAddress": "0x75b07e64161ace39d6eab54d25f25410ffd3d458",
      "assetIds": [
        "41506478881403507969696680653240014914910929820314476107906210059990541021184"
      ],
      "assetValues": [
        1
      ]
    },
    {
      "reservedAddress": "0x75ef2eff7b12f5f900ef5c787036deab18423d1a",
      "assetIds": [
        "41506478881403507969696680653240014914910929820314476107906210059990541021184"
      ],
      "assetValues": [
        1
      ]
    },
    {
      "reservedAddress": "0x7627974e190bdda082f252a4f5acfe6c0e93d364",
      "assetIds": [
        "41506478881403507969696680653240014914910929820314476107906210059990541021184"
      ],
      "assetValues": [
        1
      ]
    },
    {
      "reservedAddress": "0x763607d0276044b8fd5f62713a1923593cb9e0b2",
      "assetIds": [
        "41506478881403507969696680653240014914910929820314476107906210059990541021184"
      ],
      "assetValues": [
        1
      ]
    },
    {
      "reservedAddress": "0x76577582aed09cdd86dfc2c26e0f654240c4f4b4",
      "assetIds": [
        "41506478881403507969696680653240014914910929820314476107906210059990541021184"
      ],
      "assetValues": [
        1
      ]
    },
    {
      "reservedAddress": "0x765f4ca3d2a139ea7d72984f953c20fcf68bc754",
      "assetIds": [
        "41506478881403507969696680653240014914910929820314476107906210059990541021184"
      ],
      "assetValues": [
        1
      ]
    },
    {
      "reservedAddress": "0x7672b17d5eebb7194d57066f86fbcb4e85a7e10e",
      "assetIds": [
        "41506478881403507969696680653240014914910929820314476107906210059990541021184"
      ],
      "assetValues": [
        1
      ]
    },
    {
      "reservedAddress": "0x770f213eeb11edc1778a9262c7358fa8f6a03151",
      "assetIds": [
        "41506478881403507969696680653240014914910929820314476107906210059990541021184"
      ],
      "assetValues": [
        1
      ]
    },
    {
      "reservedAddress": "0x7726220d74920dd5beda209130807ea1241f4964",
      "assetIds": [
        "41506478881403507969696680653240014914910929820314476107906210059990541021184"
      ],
      "assetValues": [
        1
      ]
    },
    {
      "reservedAddress": "0x7729f688f4fb00f2cdadf3048840e100b53d081c",
      "assetIds": [
        "41506478881403507969696680653240014914910929820314476107906210059990541021184"
      ],
      "assetValues": [
        1
      ]
    },
    {
      "reservedAddress": "0x7763d4ce482c35b59aa0fc48ae2eabd00f60b82e",
      "assetIds": [
        "41506478881403507969696680653240014914910929820314476107906210059990541021184"
      ],
      "assetValues": [
        1
      ]
    },
    {
      "reservedAddress": "0x776aba7cb3d6acd84d9e32a0e8dcbbb76d51a4f6",
      "assetIds": [
        "41506478881403507969696680653240014914910929820314476107906210059990541021184"
      ],
      "assetValues": [
        1
      ]
    },
    {
      "reservedAddress": "0x77782cb99086962725c934f7a8c7818d159e4f71",
      "assetIds": [
        "41506478881403507969696680653240014914910929820314476107906210059990541021184"
      ],
      "assetValues": [
        1
      ]
    },
    {
      "reservedAddress": "0x777e3c0a3e02dfaf51c98227601073d703b6d8f5",
      "assetIds": [
        "41506478881403507969696680653240014914910929820314476107906210059990541021184"
      ],
      "assetValues": [
        1
      ]
    },
    {
      "reservedAddress": "0x778ad3b228c30ef078877364564e68a0f2a4376a",
      "assetIds": [
        "41506478881403507969696680653240014914910929820314476107906210059990541021184"
      ],
      "assetValues": [
        1
      ]
    },
    {
      "reservedAddress": "0x779c217e377eb84ec7524caa0b1b45877983f8d4",
      "assetIds": [
        "41506478881403507969696680653240014914910929820314476107906210059990541021184"
      ],
      "assetValues": [
        1
      ]
    },
    {
      "reservedAddress": "0x780cabb2388fa79945c9f5b0e4d5e52adfedc2c7",
      "assetIds": [
        "41506478881403507969696680653240014914910929820314476107906210059990541021184"
      ],
      "assetValues": [
        1
      ]
    },
    {
      "reservedAddress": "0x781f7dcf572c3ca8dd015aba63b1fc2ac1451d54",
      "assetIds": [
        "41506478881403507969696680653240014914910929820314476107906210059990541021184"
      ],
      "assetValues": [
        1
      ]
    },
    {
      "reservedAddress": "0x782c93e1c530a283ef738a58b5671a8fc2d8153f",
      "assetIds": [
        "41506478881403507969696680653240014914910929820314476107906210059990541021184"
      ],
      "assetValues": [
        1
      ]
    },
    {
      "reservedAddress": "0x78784bcefce924a08d32e727c778a841a63b7599",
      "assetIds": [
        "41506478881403507969696680653240014914910929820314476107906210059990541021184"
      ],
      "assetValues": [
        1
      ]
    },
    {
      "reservedAddress": "0x789a98d01b4ef0c49a264657d046a4f6f88768d7",
      "assetIds": [
        "41506478881403507969696680653240014914910929820314476107906210059990541021184"
      ],
      "assetValues": [
        1
      ]
    },
    {
      "reservedAddress": "0x78a74656958149fe94df120096ee9fd334fa2eb8",
      "assetIds": [
        "41506478881403507969696680653240014914910929820314476107906210059990541021184"
      ],
      "assetValues": [
        1
      ]
    },
    {
      "reservedAddress": "0x78c97961f7a75b85b737b42769bb8ccca3fdc6b6",
      "assetIds": [
        "41506478881403507969696680653240014914910929820314476107906210059990541021184"
      ],
      "assetValues": [
        1
      ]
    },
    {
      "reservedAddress": "0x78de1f9f2648562ad5938c50f0b4de23925a2a95",
      "assetIds": [
        "41506478881403507969696680653240014914910929820314476107906210059990541021184"
      ],
      "assetValues": [
        1
      ]
    },
    {
      "reservedAddress": "0x790992538e18e817b2d5666ace0d8d9024cc72eb",
      "assetIds": [
        "41506478881403507969696680653240014914910929820314476107906210059990541021184"
      ],
      "assetValues": [
        1
      ]
    },
    {
      "reservedAddress": "0x7924afdecf45d815fb609b7a2da514327733e287",
      "assetIds": [
        "41506478881403507969696680653240014914910929820314476107906210059990541021184"
      ],
      "assetValues": [
        1
      ]
    },
    {
      "reservedAddress": "0x79532a9262259fc38f687e956df64720a750e917",
      "assetIds": [
        "41506478881403507969696680653240014914910929820314476107906210059990541021184"
      ],
      "assetValues": [
        1
      ]
    },
    {
      "reservedAddress": "0x796f116f7b6463b9ee0e652e35f65b00dd12a8fc",
      "assetIds": [
        "41506478881403507969696680653240014914910929820314476107906210059990541021184"
      ],
      "assetValues": [
        1
      ]
    },
    {
      "reservedAddress": "0x7998a7a0a377e52b03e7ca702668f54d2cc0f743",
      "assetIds": [
        "41506478881403507969696680653240014914910929820314476107906210059990541021184"
      ],
      "assetValues": [
        1
      ]
    },
    {
      "reservedAddress": "0x79b33876135ea1cc4ab3d4c7018d36410b074faa",
      "assetIds": [
        "41506478881403507969696680653240014914910929820314476107906210059990541021184"
      ],
      "assetValues": [
        1
      ]
    },
    {
      "reservedAddress": "0x79d0059702137b1a906ea4f2a390f8a3a453127a",
      "assetIds": [
        "41506478881403507969696680653240014914910929820314476107906210059990541021184"
      ],
      "assetValues": [
        1
      ]
    },
    {
      "reservedAddress": "0x79d4d0df5733222047fc73e6097a144f51350009",
      "assetIds": [
        "41506478881403507969696680653240014914910929820314476107906210059990541021184"
      ],
      "assetValues": [
        1
      ]
    },
    {
      "reservedAddress": "0x7a71220a72c99786d9954eea1623d953f7c1ef5c",
      "assetIds": [
        "41506478881403507969696680653240014914910929820314476107906210059990541021184"
      ],
      "assetValues": [
        1
      ]
    },
    {
      "reservedAddress": "0x7a8e7b7197e94d2cb194dbed7a80575c047a7575",
      "assetIds": [
        "41506478881403507969696680653240014914910929820314476107906210059990541021184"
      ],
      "assetValues": [
        1
      ]
    },
    {
      "reservedAddress": "0x7a9ef6f481e4f1790053ad8bf4a154c625b4e7b2",
      "assetIds": [
        "41506478881403507969696680653240014914910929820314476107906210059990541021184"
      ],
      "assetValues": [
        1
      ]
    },
    {
      "reservedAddress": "0x7a9fe22691c811ea339d9b73150e6911a5343dca",
      "assetIds": [
        "41506478881403507969696680653240014914910929820314476107906210059990541021184"
      ],
      "assetValues": [
        1
      ]
    },
    {
      "reservedAddress": "0x7af7ca67aa827f58e0659c52a641aee55a43b535",
      "assetIds": [
        "41506478881403507969696680653240014914910929820314476107906210059990541021184"
      ],
      "assetValues": [
        1
      ]
    },
    {
      "reservedAddress": "0x7affefbd0b77319a89e0b335c67a085081d23e42",
      "assetIds": [
        "41506478881403507969696680653240014914910929820314476107906210059990541021184"
      ],
      "assetValues": [
        1
      ]
    },
    {
      "reservedAddress": "0x7b1d4f3602f0fe16c4f611e124d3d7b307245ba8",
      "assetIds": [
        "41506478881403507969696680653240014914910929820314476107906210059990541021184"
      ],
      "assetValues": [
        1
      ]
    },
    {
      "reservedAddress": "0x7b40c9250d2697ec25936d4c901df046d59623d2",
      "assetIds": [
        "41506478881403507969696680653240014914910929820314476107906210059990541021184"
      ],
      "assetValues": [
        1
      ]
    },
    {
      "reservedAddress": "0x7b6dc4b5f15f7a094bb0f3ed66582e92c52b3851",
      "assetIds": [
        "41506478881403507969696680653240014914910929820314476107906210059990541021184"
      ],
      "assetValues": [
        1
      ]
    },
    {
      "reservedAddress": "0x7b76cdbaa2d109507b955279b424254d5529b29e",
      "assetIds": [
        "41506478881403507969696680653240014914910929820314476107906210059990541021184"
      ],
      "assetValues": [
        1
      ]
    },
    {
      "reservedAddress": "0x7b995c1980bb981f81b8be6c510d2d585acab047",
      "assetIds": [
        "41506478881403507969696680653240014914910929820314476107906210059990541021184"
      ],
      "assetValues": [
        1
      ]
    },
    {
      "reservedAddress": "0x7bd16221c898f29c2bb3931722043a6769dfe8ba",
      "assetIds": [
        "41506478881403507969696680653240014914910929820314476107906210059990541021184"
      ],
      "assetValues": [
        1
      ]
    },
    {
      "reservedAddress": "0x7beed30332656ca4220cb2ce8e4508fb18013e8d",
      "assetIds": [
        "41506478881403507969696680653240014914910929820314476107906210059990541021184"
      ],
      "assetValues": [
        1
      ]
    },
    {
      "reservedAddress": "0x7bf573afd09ccdc18ca18aa388a9efc9dbe0744b",
      "assetIds": [
        "41506478881403507969696680653240014914910929820314476107906210059990541021184"
      ],
      "assetValues": [
        1
      ]
    },
    {
      "reservedAddress": "0x7c0d2f1eb3dc2cc21d6118789d26f2db09311b1d",
      "assetIds": [
        "41506478881403507969696680653240014914910929820314476107906210059990541021184"
      ],
      "assetValues": [
        1
      ]
    },
    {
      "reservedAddress": "0x7c7d093b4fb96c89fcc29cd4c24c15db0ed669df",
      "assetIds": [
        "41506478881403507969696680653240014914910929820314476107906210059990541021184"
      ],
      "assetValues": [
        1
      ]
    },
    {
      "reservedAddress": "0x7c870bdd103937e30ef20ab31cdc4e43208a9a6c",
      "assetIds": [
        "41506478881403507969696680653240014914910929820314476107906210059990541021184"
      ],
      "assetValues": [
        1
      ]
    },
    {
      "reservedAddress": "0x7c8879c0ae2813571c08a005538492e77cb21233",
      "assetIds": [
        "41506478881403507969696680653240014914910929820314476107906210059990541021184"
      ],
      "assetValues": [
        1
      ]
    },
    {
      "reservedAddress": "0x7ca989100519ba7f49a9d08bc16ba557a10aafd6",
      "assetIds": [
        "41506478881403507969696680653240014914910929820314476107906210059990541021184"
      ],
      "assetValues": [
        1
      ]
    },
    {
      "reservedAddress": "0x7d074cac5ab2f0f115e60cb4bf5f1d439c469e9b",
      "assetIds": [
        "41506478881403507969696680653240014914910929820314476107906210059990541021184"
      ],
      "assetValues": [
        1
      ]
    },
    {
      "reservedAddress": "0x7d238bb0b5b3bf494144fa261d20522f6131b125",
      "assetIds": [
        "41506478881403507969696680653240014914910929820314476107906210059990541021184"
      ],
      "assetValues": [
        1
      ]
    },
    {
      "reservedAddress": "0x7d3758fe093aa9e7eecd442427fdc53cc3e3291f",
      "assetIds": [
        "41506478881403507969696680653240014914910929820314476107906210059990541021184"
      ],
      "assetValues": [
        1
      ]
    },
    {
      "reservedAddress": "0x7d5d8ccfed714bae0124352fad01cb792c8d315f",
      "assetIds": [
        "41506478881403507969696680653240014914910929820314476107906210059990541021184"
      ],
      "assetValues": [
        1
      ]
    },
    {
      "reservedAddress": "0x7d9d544e56d53b5b44d9a631a0088176bf1546af",
      "assetIds": [
        "41506478881403507969696680653240014914910929820314476107906210059990541021184"
      ],
      "assetValues": [
        1
      ]
    },
    {
      "reservedAddress": "0x7db797de80c5ea4c6dfe25b15e017624be0f23d1",
      "assetIds": [
        "41506478881403507969696680653240014914910929820314476107906210059990541021184"
      ],
      "assetValues": [
        1
      ]
    },
    {
      "reservedAddress": "0x7dd9f0c23fb61ca3f36b8414306310f963093c12",
      "assetIds": [
        "41506478881403507969696680653240014914910929820314476107906210059990541021184"
      ],
      "assetValues": [
        1
      ]
    },
    {
      "reservedAddress": "0x7dde0ffdcc18f10352544b348267be38c91e2676",
      "assetIds": [
        "41506478881403507969696680653240014914910929820314476107906210059990541021184"
      ],
      "assetValues": [
        1
      ]
    },
    {
      "reservedAddress": "0x7e209a10f704b70a1e3e5506aa0066dfc025fbf7",
      "assetIds": [
        "41506478881403507969696680653240014914910929820314476107906210059990541021184"
      ],
      "assetValues": [
        1
      ]
    },
    {
      "reservedAddress": "0x7e23a0a9fd1105ca4b1dc9b7e0f0aab3b7071caa",
      "assetIds": [
        "41506478881403507969696680653240014914910929820314476107906210059990541021184"
      ],
      "assetValues": [
        1
      ]
    },
    {
      "reservedAddress": "0x7e2e1879e832752b323ddb74217489375e335c63",
      "assetIds": [
        "41506478881403507969696680653240014914910929820314476107906210059990541021184"
      ],
      "assetValues": [
        1
      ]
    },
    {
      "reservedAddress": "0x7e30c4cffdbe6df08cd258ee723d1fcd8d234b4f",
      "assetIds": [
        "41506478881403507969696680653240014914910929820314476107906210059990541021184"
      ],
      "assetValues": [
        1
      ]
    },
    {
      "reservedAddress": "0x7e5589c37949ad070851f27924bccf1efd4afba0",
      "assetIds": [
        "41506478881403507969696680653240014914910929820314476107906210059990541021184"
      ],
      "assetValues": [
        1
      ]
    },
    {
      "reservedAddress": "0x7e90873ae44d0caca3e125a05f93f2883b5850a3",
      "assetIds": [
        "41506478881403507969696680653240014914910929820314476107906210059990541021184"
      ],
      "assetValues": [
        1
      ]
    },
    {
      "reservedAddress": "0x7eb2d14ae4378f0e5b3e172f9f09f51cb1a39efa",
      "assetIds": [
        "41506478881403507969696680653240014914910929820314476107906210059990541021184"
      ],
      "assetValues": [
        1
      ]
    },
    {
      "reservedAddress": "0x7ebabcbbb3c3afc3ec944783d6306b80bb5f87fb",
      "assetIds": [
        "41506478881403507969696680653240014914910929820314476107906210059990541021184"
      ],
      "assetValues": [
        1
      ]
    },
    {
      "reservedAddress": "0x7ee8f8f465896f56edbdb5209015b64249c96ddc",
      "assetIds": [
        "41506478881403507969696680653240014914910929820314476107906210059990541021184"
      ],
      "assetValues": [
        1
      ]
    },
    {
      "reservedAddress": "0x7ef890bb009cce76f8b798b49c2f51e01e81a3ae",
      "assetIds": [
        "41506478881403507969696680653240014914910929820314476107906210059990541021184"
      ],
      "assetValues": [
        1
      ]
    },
    {
      "reservedAddress": "0x7f6f528ad92d29f03a11f8723974f1888db20b19",
      "assetIds": [
        "41506478881403507969696680653240014914910929820314476107906210059990541021184"
      ],
      "assetValues": [
        1
      ]
    },
    {
      "reservedAddress": "0x7f709bc5be1c1721a50ac1867bfef62679986f5c",
      "assetIds": [
        "41506478881403507969696680653240014914910929820314476107906210059990541021184"
      ],
      "assetValues": [
        1
      ]
    },
    {
      "reservedAddress": "0x7f737d9f92d3d03684d1ee568ff4abf65efac453",
      "assetIds": [
        "41506478881403507969696680653240014914910929820314476107906210059990541021184"
      ],
      "assetValues": [
        1
      ]
    },
    {
      "reservedAddress": "0x7f82e84c2021a311131e894ceff475047ded4673",
      "assetIds": [
        "41506478881403507969696680653240014914910929820314476107906210059990541021184"
      ],
      "assetValues": [
        1
      ]
    },
    {
      "reservedAddress": "0x7fae4785a47973d03b97398d1cc5d9b32611230b",
      "assetIds": [
        "41506478881403507969696680653240014914910929820314476107906210059990541021184"
      ],
      "assetValues": [
        1
      ]
    },
    {
      "reservedAddress": "0x7fb6bbb8bd4c70ddc33d71a5adc1f21db067c277",
      "assetIds": [
        "41506478881403507969696680653240014914910929820314476107906210059990541021184"
      ],
      "assetValues": [
        1
      ]
    },
    {
      "reservedAddress": "0x7fdcd78669591bc6bf7a9e9925acd8ad55061fd8",
      "assetIds": [
        "41506478881403507969696680653240014914910929820314476107906210059990541021184"
      ],
      "assetValues": [
        1
      ]
    },
    {
      "reservedAddress": "0x800e024232b0075dde78441e20339560f01e8a43",
      "assetIds": [
        "41506478881403507969696680653240014914910929820314476107906210059990541021184"
      ],
      "assetValues": [
        1
      ]
    },
    {
      "reservedAddress": "0x801a6e23f7cfe1b0c41ed13f0fb24d986463dd38",
      "assetIds": [
        "41506478881403507969696680653240014914910929820314476107906210059990541021184"
      ],
      "assetValues": [
        1
      ]
    },
    {
      "reservedAddress": "0x803094f13242b6b2613e6a7935e44413c34a0aad",
      "assetIds": [
        "41506478881403507969696680653240014914910929820314476107906210059990541021184"
      ],
      "assetValues": [
        1
      ]
    },
    {
      "reservedAddress": "0x8034dfe021f5a9a3f1c19bc19226c50b58d0450c",
      "assetIds": [
        "41506478881403507969696680653240014914910929820314476107906210059990541021184"
      ],
      "assetValues": [
        1
      ]
    },
    {
      "reservedAddress": "0x803c8be6430a2c2c75ce0c898c5c7f0f9247b686",
      "assetIds": [
        "41506478881403507969696680653240014914910929820314476107906210059990541021184"
      ],
      "assetValues": [
        1
      ]
    },
    {
      "reservedAddress": "0x804604f55fe79ad0237696465c57d3de997c14c1",
      "assetIds": [
        "41506478881403507969696680653240014914910929820314476107906210059990541021184"
      ],
      "assetValues": [
        1
      ]
    },
    {
      "reservedAddress": "0x80547ec1ff1f2f43a5f8d1d9badf71cb2f423b1b",
      "assetIds": [
        "41506478881403507969696680653240014914910929820314476107906210059990541021184"
      ],
      "assetValues": [
        1
      ]
    },
    {
      "reservedAddress": "0x8091587f4dd6019196e89fe82a5ee40400fa8bf9",
      "assetIds": [
        "41506478881403507969696680653240014914910929820314476107906210059990541021184"
      ],
      "assetValues": [
        1
      ]
    },
    {
      "reservedAddress": "0x80c5cae1fc0b6a548ea16fe40171d01555f4f57e",
      "assetIds": [
        "41506478881403507969696680653240014914910929820314476107906210059990541021184"
      ],
      "assetValues": [
        1
      ]
    },
    {
      "reservedAddress": "0x80d53fb97e6d5d9a86722cbfbb012da183c4012b",
      "assetIds": [
        "41506478881403507969696680653240014914910929820314476107906210059990541021184"
      ],
      "assetValues": [
        1
      ]
    },
    {
      "reservedAddress": "0x80e205298ec8c1b34952e43a7f52ab2659b99999",
      "assetIds": [
        "41506478881403507969696680653240014914910929820314476107906210059990541021184"
      ],
      "assetValues": [
        1
      ]
    },
    {
      "reservedAddress": "0x81743cff3d2e2c8b39cc8917aaa2527dda26e779",
      "assetIds": [
        "41506478881403507969696680653240014914910929820314476107906210059990541021184"
      ],
      "assetValues": [
        1
      ]
    },
    {
      "reservedAddress": "0x81f647f6c532fa412892ee237bf24e730b7dff22",
      "assetIds": [
        "41506478881403507969696680653240014914910929820314476107906210059990541021184"
      ],
      "assetValues": [
        1
      ]
    },
    {
      "reservedAddress": "0x8224a40c8fcb20c5e20d3971431dfd3e3629b426",
      "assetIds": [
        "41506478881403507969696680653240014914910929820314476107906210059990541021184"
      ],
      "assetValues": [
        1
      ]
    },
    {
      "reservedAddress": "0x8263285454c86dc44ec3a132050da4a55e0c1f8a",
      "assetIds": [
        "41506478881403507969696680653240014914910929820314476107906210059990541021184"
      ],
      "assetValues": [
        1
      ]
    },
    {
      "reservedAddress": "0x828e61350430f2c2cb3b5bb9142f8692682613ad",
      "assetIds": [
        "41506478881403507969696680653240014914910929820314476107906210059990541021184"
      ],
      "assetValues": [
        1
      ]
    },
    {
      "reservedAddress": "0x82a7e02b745c24ba513b691d62487b21a0778e38",
      "assetIds": [
        "41506478881403507969696680653240014914910929820314476107906210059990541021184"
      ],
      "assetValues": [
        1
      ]
    },
    {
      "reservedAddress": "0x82e7bb7391de6b49666980046f605ec2d8048771",
      "assetIds": [
        "41506478881403507969696680653240014914910929820314476107906210059990541021184"
      ],
      "assetValues": [
        1
      ]
    },
    {
      "reservedAddress": "0x8342bca6223a537ff6ec9509ffc3006f11738266",
      "assetIds": [
        "41506478881403507969696680653240014914910929820314476107906210059990541021184"
      ],
      "assetValues": [
        1
      ]
    },
    {
      "reservedAddress": "0x8352ec6b95b8fc75f28e02ade4c363c52572bd7e",
      "assetIds": [
        "41506478881403507969696680653240014914910929820314476107906210059990541021184"
      ],
      "assetValues": [
        1
      ]
    },
    {
      "reservedAddress": "0x837c68f834170eaed28547b0a46ecbb923987127",
      "assetIds": [
        "41506478881403507969696680653240014914910929820314476107906210059990541021184"
      ],
      "assetValues": [
        1
      ]
    },
    {
      "reservedAddress": "0x839a4ee8fcd799f8431f6f5d8755e3ffef053762",
      "assetIds": [
        "41506478881403507969696680653240014914910929820314476107906210059990541021184"
      ],
      "assetValues": [
        1
      ]
    },
    {
      "reservedAddress": "0x83a50ae53f483d4c2f65d646a69896551d6c5696",
      "assetIds": [
        "41506478881403507969696680653240014914910929820314476107906210059990541021184"
      ],
      "assetValues": [
        1
      ]
    },
    {
      "reservedAddress": "0x83ac0e38c52231bf081196502e385f66eff49338",
      "assetIds": [
        "41506478881403507969696680653240014914910929820314476107906210059990541021184"
      ],
      "assetValues": [
        1
      ]
    },
    {
      "reservedAddress": "0x83aeedaa68438f8fddb96a5b518d27b127c2750b",
      "assetIds": [
        "41506478881403507969696680653240014914910929820314476107906210059990541021184"
      ],
      "assetValues": [
        1
      ]
    },
    {
      "reservedAddress": "0x83c0599626e84871d85e0aa080d5813541fd4054",
      "assetIds": [
        "41506478881403507969696680653240014914910929820314476107906210059990541021184"
      ],
      "assetValues": [
        1
      ]
    },
    {
      "reservedAddress": "0x83c785b14d506e7ea9d237131ae672240464408b",
      "assetIds": [
        "41506478881403507969696680653240014914910929820314476107906210059990541021184"
      ],
      "assetValues": [
        1
      ]
    },
    {
      "reservedAddress": "0x83c9440dc34da00c47a0d4dc2b598d7bdb1b53f7",
      "assetIds": [
        "41506478881403507969696680653240014914910929820314476107906210059990541021184"
      ],
      "assetValues": [
        1
      ]
    },
    {
      "reservedAddress": "0x83f2caae34ca71580f4b12aeeeab078af4553294",
      "assetIds": [
        "41506478881403507969696680653240014914910929820314476107906210059990541021184"
      ],
      "assetValues": [
        1
      ]
    },
    {
      "reservedAddress": "0x83f5e3bebe02425a6c2fbfd8915cb3250b619aae",
      "assetIds": [
        "41506478881403507969696680653240014914910929820314476107906210059990541021184"
      ],
      "assetValues": [
        1
      ]
    },
    {
      "reservedAddress": "0x83f86f6646bca97daae8ca257ab5a6eca0cf7e93",
      "assetIds": [
        "41506478881403507969696680653240014914910929820314476107906210059990541021184"
      ],
      "assetValues": [
        1
      ]
    },
    {
      "reservedAddress": "0x8410865e23bcba7070032e4d34b85b6e98a518a4",
      "assetIds": [
        "41506478881403507969696680653240014914910929820314476107906210059990541021184"
      ],
      "assetValues": [
        1
      ]
    },
    {
      "reservedAddress": "0x8466408330ac793c2c7051f0403154b2166d8f47",
      "assetIds": [
        "41506478881403507969696680653240014914910929820314476107906210059990541021184"
      ],
      "assetValues": [
        1
      ]
    },
    {
      "reservedAddress": "0x851497cf9b1362858c095cdd577b506d24f57336",
      "assetIds": [
        "41506478881403507969696680653240014914910929820314476107906210059990541021184"
      ],
      "assetValues": [
        1
      ]
    },
    {
      "reservedAddress": "0x851df6d473f2bb61f19741f811c7a46ab129b7ca",
      "assetIds": [
        "41506478881403507969696680653240014914910929820314476107906210059990541021184"
      ],
      "assetValues": [
        1
      ]
    },
    {
      "reservedAddress": "0x854865641338fc2e4273d149a08664b5e3237429",
      "assetIds": [
        "41506478881403507969696680653240014914910929820314476107906210059990541021184"
      ],
      "assetValues": [
        1
      ]
    },
    {
      "reservedAddress": "0x8570a007e5eb6b85cc5dba6298f3f064b749630a",
      "assetIds": [
        "41506478881403507969696680653240014914910929820314476107906210059990541021184"
      ],
      "assetValues": [
        1
      ]
    },
    {
      "reservedAddress": "0x857d5884fc42cea646bd62cc84f806aeb9a2ae6f",
      "assetIds": [
        "41506478881403507969696680653240014914910929820314476107906210059990541021184"
      ],
      "assetValues": [
        1
      ]
    },
    {
      "reservedAddress": "0x858e4f0872dabd52b7a3f1e41c6c7518ccd67db4",
      "assetIds": [
        "41506478881403507969696680653240014914910929820314476107906210059990541021184"
      ],
      "assetValues": [
        1
      ]
    },
    {
      "reservedAddress": "0x861107cb9b5767792a25677e09945882c564f6c2",
      "assetIds": [
        "41506478881403507969696680653240014914910929820314476107906210059990541021184"
      ],
      "assetValues": [
        1
      ]
    },
    {
      "reservedAddress": "0x8614f300e1ded998a7cad360f49c9a36abfe88a7",
      "assetIds": [
        "41506478881403507969696680653240014914910929820314476107906210059990541021184"
      ],
      "assetValues": [
        1
      ]
    },
    {
      "reservedAddress": "0x861a006efc11bae20f76beec725a24ac018f4af3",
      "assetIds": [
        "41506478881403507969696680653240014914910929820314476107906210059990541021184"
      ],
      "assetValues": [
        1
      ]
    },
    {
      "reservedAddress": "0x861e61e49a27e1c3dcb40400db6ab205b2fa97d4",
      "assetIds": [
        "41506478881403507969696680653240014914910929820314476107906210059990541021184"
      ],
      "assetValues": [
        1
      ]
    },
    {
      "reservedAddress": "0x8625d262e2e2f5529499c79f5e26ff20d644f3a9",
      "assetIds": [
        "41506478881403507969696680653240014914910929820314476107906210059990541021184"
      ],
      "assetValues": [
        1
      ]
    },
    {
      "reservedAddress": "0x8644f3757a869d9dc27adb272c2497df644e2bf0",
      "assetIds": [
        "41506478881403507969696680653240014914910929820314476107906210059990541021184"
      ],
      "assetValues": [
        1
      ]
    },
    {
      "reservedAddress": "0x86d3d0a700c42aa1742bba62e562c95c22311f52",
      "assetIds": [
        "41506478881403507969696680653240014914910929820314476107906210059990541021184"
      ],
      "assetValues": [
        1
      ]
    },
    {
      "reservedAddress": "0x86de2b6e55ddb8b3a6caaffb307fadb63cdcf4f9",
      "assetIds": [
        "41506478881403507969696680653240014914910929820314476107906210059990541021184"
      ],
      "assetValues": [
        1
      ]
    },
    {
      "reservedAddress": "0x873d76049ac71619538849d1f97bc50645a5e6ff",
      "assetIds": [
        "41506478881403507969696680653240014914910929820314476107906210059990541021184"
      ],
      "assetValues": [
        1
      ]
    },
    {
      "reservedAddress": "0x879bb924671d4d4c5bbd23aa98c689fef02b511d",
      "assetIds": [
        "41506478881403507969696680653240014914910929820314476107906210059990541021184"
      ],
      "assetValues": [
        1
      ]
    },
    {
      "reservedAddress": "0x87c524f48f9fb7621da5589ea4946371d458869c",
      "assetIds": [
        "41506478881403507969696680653240014914910929820314476107906210059990541021184"
      ],
      "assetValues": [
        1
      ]
    },
    {
      "reservedAddress": "0x87ef9672f449379a7f70288d4e6b9460f44907f2",
      "assetIds": [
        "41506478881403507969696680653240014914910929820314476107906210059990541021184"
      ],
      "assetValues": [
        1
      ]
    },
    {
      "reservedAddress": "0x87fc1313880d579039ac48db8b25428ed5f33c4a",
      "assetIds": [
        "41506478881403507969696680653240014914910929820314476107906210059990541021184"
      ],
      "assetValues": [
        1
      ]
    },
    {
      "reservedAddress": "0x88214d6410945738e43c4ec12354bf6f3f12454a",
      "assetIds": [
        "41506478881403507969696680653240014914910929820314476107906210059990541021184"
      ],
      "assetValues": [
        1
      ]
    },
    {
      "reservedAddress": "0x8834ada4a68c6f6c8e176c508340938da63396dd",
      "assetIds": [
        "41506478881403507969696680653240014914910929820314476107906210059990541021184"
      ],
      "assetValues": [
        1
      ]
    },
    {
      "reservedAddress": "0x8842e1e8556ab4a73a6e1f00da6b5e94c8701ec8",
      "assetIds": [
        "41506478881403507969696680653240014914910929820314476107906210059990541021184"
      ],
      "assetValues": [
        1
      ]
    },
    {
      "reservedAddress": "0x88611ba5b29f8d5d337c991738ae01c9f8de696d",
      "assetIds": [
        "41506478881403507969696680653240014914910929820314476107906210059990541021184"
      ],
      "assetValues": [
        1
      ]
    },
    {
      "reservedAddress": "0x88bd0b4026af3bc601fff74ed4798b0388406310",
      "assetIds": [
        "41506478881403507969696680653240014914910929820314476107906210059990541021184"
      ],
      "assetValues": [
        1
      ]
    },
    {
      "reservedAddress": "0x88df4ef1ac8bdfc08e420086e278e0227aa27f5b",
      "assetIds": [
        "41506478881403507969696680653240014914910929820314476107906210059990541021184"
      ],
      "assetValues": [
        1
      ]
    },
    {
      "reservedAddress": "0x8928e8e0c3c803178aa3b4ff4a4477b2ec48554e",
      "assetIds": [
        "41506478881403507969696680653240014914910929820314476107906210059990541021184"
      ],
      "assetValues": [
        1
      ]
    },
    {
      "reservedAddress": "0x893bd18ef97a1b7108a2e67dd5cf3e9b08ccd46e",
      "assetIds": [
        "41506478881403507969696680653240014914910929820314476107906210059990541021184"
      ],
      "assetValues": [
        1
      ]
    },
    {
      "reservedAddress": "0x894d97162f08e63d682143a542377406ca74f54c",
      "assetIds": [
        "41506478881403507969696680653240014914910929820314476107906210059990541021184"
      ],
      "assetValues": [
        1
      ]
    },
    {
      "reservedAddress": "0x897960f9ef34961093dcbc2b26b2730e2172fd53",
      "assetIds": [
        "41506478881403507969696680653240014914910929820314476107906210059990541021184"
      ],
      "assetValues": [
        1
      ]
    },
    {
      "reservedAddress": "0x899301f0c8dba423a890ee544ab93f55dfcaec8e",
      "assetIds": [
        "41506478881403507969696680653240014914910929820314476107906210059990541021184"
      ],
      "assetValues": [
        1
      ]
    },
    {
      "reservedAddress": "0x8a0d29ffeecb01b12f3b4e285114c798f7879b16",
      "assetIds": [
        "41506478881403507969696680653240014914910929820314476107906210059990541021184"
      ],
      "assetValues": [
        1
      ]
    },
    {
      "reservedAddress": "0x8a290a2641ee251b168bc9bc3d735bfe5a86f009",
      "assetIds": [
        "41506478881403507969696680653240014914910929820314476107906210059990541021184"
      ],
      "assetValues": [
        1
      ]
    },
    {
      "reservedAddress": "0x8a3708558a1ab29de8b3389a6ade86433c220c39",
      "assetIds": [
        "41506478881403507969696680653240014914910929820314476107906210059990541021184"
      ],
      "assetValues": [
        1
      ]
    },
    {
      "reservedAddress": "0x8a419e49555dc54cc2d54780b844accc419749be",
      "assetIds": [
        "41506478881403507969696680653240014914910929820314476107906210059990541021184"
      ],
      "assetValues": [
        1
      ]
    },
    {
      "reservedAddress": "0x8a6c71f6bd157ca34be2c9770c5471d2ae128e1e",
      "assetIds": [
        "41506478881403507969696680653240014914910929820314476107906210059990541021184"
      ],
      "assetValues": [
        1
      ]
    },
    {
      "reservedAddress": "0x8aa7303666c844884b0689307b9a7dd780f66d7a",
      "assetIds": [
        "41506478881403507969696680653240014914910929820314476107906210059990541021184"
      ],
      "assetValues": [
        1
      ]
    },
    {
      "reservedAddress": "0x8ab4007fc87c50e13f4ce5835c13118d9f2ec77d",
      "assetIds": [
        "41506478881403507969696680653240014914910929820314476107906210059990541021184"
      ],
      "assetValues": [
        1
      ]
    },
    {
      "reservedAddress": "0x8ab85cbe4c76738fad550074916ab5a6368b8425",
      "assetIds": [
        "41506478881403507969696680653240014914910929820314476107906210059990541021184"
      ],
      "assetValues": [
        1
      ]
    },
    {
      "reservedAddress": "0x8ad49ad489d4bcfaef6933c16ff2a4b3797ef77e",
      "assetIds": [
        "41506478881403507969696680653240014914910929820314476107906210059990541021184"
      ],
      "assetValues": [
        1
      ]
    },
    {
      "reservedAddress": "0x8aec83d907656ffe0f00dee38ff5d43177fe651b",
      "assetIds": [
        "41506478881403507969696680653240014914910929820314476107906210059990541021184"
      ],
      "assetValues": [
        1
      ]
    },
    {
      "reservedAddress": "0x8af2c077633b30292f3ac7ae0dfd0a43b5f9a972",
      "assetIds": [
        "41506478881403507969696680653240014914910929820314476107906210059990541021184"
      ],
      "assetValues": [
        1
      ]
    },
    {
      "reservedAddress": "0x8b09b326f4027c576b5c9b3daa9d7fd785b757df",
      "assetIds": [
        "41506478881403507969696680653240014914910929820314476107906210059990541021184"
      ],
      "assetValues": [
        1
      ]
    },
    {
      "reservedAddress": "0x8ba0a5bb174ac98c90a13365f56e058281220faa",
      "assetIds": [
        "41506478881403507969696680653240014914910929820314476107906210059990541021184"
      ],
      "assetValues": [
        1
      ]
    },
    {
      "reservedAddress": "0x8bce57b7b84218397ffb6cefae99f4792ee8161d",
      "assetIds": [
        "41506478881403507969696680653240014914910929820314476107906210059990541021184"
      ],
      "assetValues": [
        1
      ]
    },
    {
      "reservedAddress": "0x8bf79ee1291249b1a5505625816dfc09e2a91f13",
      "assetIds": [
        "41506478881403507969696680653240014914910929820314476107906210059990541021184"
      ],
      "assetValues": [
        1
      ]
    },
    {
      "reservedAddress": "0x8c04a5777aa418f6b40a33e1984e605067bd2043",
      "assetIds": [
        "41506478881403507969696680653240014914910929820314476107906210059990541021184"
      ],
      "assetValues": [
        1
      ]
    },
    {
      "reservedAddress": "0x8c15bd664a35aec5b212bcfc9dfeaae24c991bc6",
      "assetIds": [
        "41506478881403507969696680653240014914910929820314476107906210059990541021184"
      ],
      "assetValues": [
        1
      ]
    },
    {
      "reservedAddress": "0x8c2e67bd3d0f432ef75d9ae6623cd0dfbce66050",
      "assetIds": [
        "41506478881403507969696680653240014914910929820314476107906210059990541021184"
      ],
      "assetValues": [
        1
      ]
    },
    {
      "reservedAddress": "0x8c7ba5d481d47369e1e435b11943a2095748b2fb",
      "assetIds": [
        "41506478881403507969696680653240014914910929820314476107906210059990541021184"
      ],
      "assetValues": [
        1
      ]
    },
    {
      "reservedAddress": "0x8cacb17f18ddf34ea35be228f30a2c41e8a11d75",
      "assetIds": [
        "41506478881403507969696680653240014914910929820314476107906210059990541021184"
      ],
      "assetValues": [
        1
      ]
    },
    {
      "reservedAddress": "0x8cad02a7bd7db34ef5f40a93ed013453210bec57",
      "assetIds": [
        "41506478881403507969696680653240014914910929820314476107906210059990541021184"
      ],
      "assetValues": [
        1
      ]
    },
    {
      "reservedAddress": "0x8cdffff69c394ee7c1a544931c12f0a56fe98420",
      "assetIds": [
        "41506478881403507969696680653240014914910929820314476107906210059990541021184"
      ],
      "assetValues": [
        1
      ]
    },
    {
      "reservedAddress": "0x8d09d2543b29206dddf0aa83fcd2d8b77a4ce09d",
      "assetIds": [
        "41506478881403507969696680653240014914910929820314476107906210059990541021184"
      ],
      "assetValues": [
        1
      ]
    },
    {
      "reservedAddress": "0x8d61c148a41f67d3b4d19e1532b464121ef865c9",
      "assetIds": [
        "41506478881403507969696680653240014914910929820314476107906210059990541021184"
      ],
      "assetValues": [
        1
      ]
    },
    {
      "reservedAddress": "0x8d65f45f51763ece71d6deb32f5ca8c73af57e0f",
      "assetIds": [
        "41506478881403507969696680653240014914910929820314476107906210059990541021184"
      ],
      "assetValues": [
        1
      ]
    },
    {
      "reservedAddress": "0x8da9ef68b4baf91e61951338289d77ba63a7d4a1",
      "assetIds": [
        "41506478881403507969696680653240014914910929820314476107906210059990541021184"
      ],
      "assetValues": [
        1
      ]
    },
    {
      "reservedAddress": "0x8e063c7bd604a699be1e6356a4a8ed5a2c8aa065",
      "assetIds": [
        "41506478881403507969696680653240014914910929820314476107906210059990541021184"
      ],
      "assetValues": [
        1
      ]
    },
    {
      "reservedAddress": "0x8e0f45ebdb09f0ccbd1961605265d5c12b363030",
      "assetIds": [
        "41506478881403507969696680653240014914910929820314476107906210059990541021184"
      ],
      "assetValues": [
        1
      ]
    },
    {
      "reservedAddress": "0x8e894bf5ac281075a1cd1d08129d6691c2e27eda",
      "assetIds": [
        "41506478881403507969696680653240014914910929820314476107906210059990541021184"
      ],
      "assetValues": [
        1
      ]
    },
    {
      "reservedAddress": "0x8e9b0a7d325b5f4738221f98d5f47ee2cd1e46b7",
      "assetIds": [
        "41506478881403507969696680653240014914910929820314476107906210059990541021184"
      ],
      "assetValues": [
        1
      ]
    },
    {
      "reservedAddress": "0x8ea893c3b8aae5d163597c1dc00dd21eb0e3ce6a",
      "assetIds": [
        "41506478881403507969696680653240014914910929820314476107906210059990541021184"
      ],
      "assetValues": [
        1
      ]
    },
    {
      "reservedAddress": "0x8ec2b87953099a120449effc8d00485c14cad13a",
      "assetIds": [
        "41506478881403507969696680653240014914910929820314476107906210059990541021184"
      ],
      "assetValues": [
        1
      ]
    },
    {
      "reservedAddress": "0x8ec7cff35823b4c62679092ccbc67f35c13c2874",
      "assetIds": [
        "41506478881403507969696680653240014914910929820314476107906210059990541021184"
      ],
      "assetValues": [
        1
      ]
    },
    {
      "reservedAddress": "0x8ec966fa2dd054198de66bc03cd725f2d19bf3a1",
      "assetIds": [
        "41506478881403507969696680653240014914910929820314476107906210059990541021184"
      ],
      "assetValues": [
        1
      ]
    },
    {
      "reservedAddress": "0x8f324d174f41d3d00f13d01b7581f9fefc05e815",
      "assetIds": [
        "41506478881403507969696680653240014914910929820314476107906210059990541021184"
      ],
      "assetValues": [
        1
      ]
    },
    {
      "reservedAddress": "0x8f3b566f10db11b682942dbda74f90279104d0a1",
      "assetIds": [
        "41506478881403507969696680653240014914910929820314476107906210059990541021184"
      ],
      "assetValues": [
        1
      ]
    },
    {
      "reservedAddress": "0x8f43c0f0d8bbb36f5eae29f59ef5b3d28f5c2d3f",
      "assetIds": [
        "41506478881403507969696680653240014914910929820314476107906210059990541021184"
      ],
      "assetValues": [
        1
      ]
    },
    {
      "reservedAddress": "0x8f91a830f387a79ec51f7ab6ab13dbb61d0e91a5",
      "assetIds": [
        "41506478881403507969696680653240014914910929820314476107906210059990541021184"
      ],
      "assetValues": [
        1
      ]
    },
    {
      "reservedAddress": "0x8fa01faf2cb4d89bb3e0846ba1e3227ba4b3c2ac",
      "assetIds": [
        "41506478881403507969696680653240014914910929820314476107906210059990541021184"
      ],
      "assetValues": [
        1
      ]
    },
    {
      "reservedAddress": "0x8fbf353fa43332781d95bbde2b7864858a3a1998",
      "assetIds": [
        "41506478881403507969696680653240014914910929820314476107906210059990541021184"
      ],
      "assetValues": [
        1
      ]
    },
    {
      "reservedAddress": "0x9025296d7caa64c10e1f2be2e42c1b966d232378",
      "assetIds": [
        "41506478881403507969696680653240014914910929820314476107906210059990541021184"
      ],
      "assetValues": [
        1
      ]
    },
    {
      "reservedAddress": "0x9050c755691e9089e08adee29462bab6b338def0",
      "assetIds": [
        "41506478881403507969696680653240014914910929820314476107906210059990541021184"
      ],
      "assetValues": [
        1
      ]
    },
    {
      "reservedAddress": "0x907074670c081dfffbdef0bba8b42d55b92fbd3f",
      "assetIds": [
        "41506478881403507969696680653240014914910929820314476107906210059990541021184"
      ],
      "assetValues": [
        1
      ]
    },
    {
      "reservedAddress": "0x908399612e3228ed99dbf35edc272cd2ddcc8f14",
      "assetIds": [
        "41506478881403507969696680653240014914910929820314476107906210059990541021184"
      ],
      "assetValues": [
        1
      ]
    },
    {
      "reservedAddress": "0x90c2601669d0f98814c02981a6208f6a1bdd671d",
      "assetIds": [
        "41506478881403507969696680653240014914910929820314476107906210059990541021184"
      ],
      "assetValues": [
        1
      ]
    },
    {
      "reservedAddress": "0x90c7455673fe1b7d6b1ab3808436cee7965602d0",
      "assetIds": [
        "41506478881403507969696680653240014914910929820314476107906210059990541021184"
      ],
      "assetValues": [
        1
      ]
    },
    {
      "reservedAddress": "0x90f440e449c47f4caf78c62c131dfc38ab491d4a",
      "assetIds": [
        "41506478881403507969696680653240014914910929820314476107906210059990541021184"
      ],
      "assetValues": [
        1
      ]
    },
    {
      "reservedAddress": "0x910a0fd69032423f771219cb93510bf798b45f46",
      "assetIds": [
        "41506478881403507969696680653240014914910929820314476107906210059990541021184"
      ],
      "assetValues": [
        1
      ]
    },
    {
      "reservedAddress": "0x919a9c74b8f626469d10babea019de70ae23aa5f",
      "assetIds": [
        "41506478881403507969696680653240014914910929820314476107906210059990541021184"
      ],
      "assetValues": [
        1
      ]
    },
    {
      "reservedAddress": "0x91a3c733500f8ac317fb95e32f8be70559c5f52b",
      "assetIds": [
        "41506478881403507969696680653240014914910929820314476107906210059990541021184"
      ],
      "assetValues": [
        1
      ]
    },
    {
      "reservedAddress": "0x91a80f52706fa8a4ed629a4d6d3fa06d3da853f8",
      "assetIds": [
        "41506478881403507969696680653240014914910929820314476107906210059990541021184"
      ],
      "assetValues": [
        1
      ]
    },
    {
      "reservedAddress": "0x91c6142769b1300f9697f73b6e8ff77113d2526b",
      "assetIds": [
        "41506478881403507969696680653240014914910929820314476107906210059990541021184"
      ],
      "assetValues": [
        1
      ]
    },
    {
      "reservedAddress": "0x921a03b257a705f498227e9c6cb3b54e73447127",
      "assetIds": [
        "41506478881403507969696680653240014914910929820314476107906210059990541021184"
      ],
      "assetValues": [
        1
      ]
    },
    {
      "reservedAddress": "0x922c3800c278c5d45e282f6b83fe0bfc713e3eb3",
      "assetIds": [
        "41506478881403507969696680653240014914910929820314476107906210059990541021184"
      ],
      "assetValues": [
        1
      ]
    },
    {
      "reservedAddress": "0x9284442bcbdb12befe51911760715a03d61a79b3",
      "assetIds": [
        "41506478881403507969696680653240014914910929820314476107906210059990541021184"
      ],
      "assetValues": [
        1
      ]
    },
    {
      "reservedAddress": "0x92bc8640422ecf452d8c75ba7a7f3ad878658f03",
      "assetIds": [
        "41506478881403507969696680653240014914910929820314476107906210059990541021184"
      ],
      "assetValues": [
        1
      ]
    },
    {
      "reservedAddress": "0x92f7f5dc0808a4d280dcb1499095e400731dc2f2",
      "assetIds": [
        "41506478881403507969696680653240014914910929820314476107906210059990541021184"
      ],
      "assetValues": [
        1
      ]
    },
    {
      "reservedAddress": "0x92f93fadcacb86f6bd163a87a0944341b838cc62",
      "assetIds": [
        "41506478881403507969696680653240014914910929820314476107906210059990541021184"
      ],
      "assetValues": [
        1
      ]
    },
    {
      "reservedAddress": "0x92fab452e2f14c7730f79031906e06326c916946",
      "assetIds": [
        "41506478881403507969696680653240014914910929820314476107906210059990541021184"
      ],
      "assetValues": [
        1
      ]
    },
    {
      "reservedAddress": "0x92fc9f4c758ad86effc9d2962bfe52ed3d9aa996",
      "assetIds": [
        "41506478881403507969696680653240014914910929820314476107906210059990541021184"
      ],
      "assetValues": [
        1
      ]
    },
    {
      "reservedAddress": "0x931eb9d2e9b0e496aac1dcdf778399ad762e3739",
      "assetIds": [
        "41506478881403507969696680653240014914910929820314476107906210059990541021184"
      ],
      "assetValues": [
        1
      ]
    },
    {
      "reservedAddress": "0x934b6be0b47e9464b74d28378388ee18df5065fc",
      "assetIds": [
        "41506478881403507969696680653240014914910929820314476107906210059990541021184"
      ],
      "assetValues": [
        1
      ]
    },
    {
      "reservedAddress": "0x93633e7ccb65600437aa4c1c0eafa8f4324cdd9c",
      "assetIds": [
        "41506478881403507969696680653240014914910929820314476107906210059990541021184"
      ],
      "assetValues": [
        1
      ]
    },
    {
      "reservedAddress": "0x9379b82fd33e65cce9b58bebb80bc2c06eb4a88c",
      "assetIds": [
        "41506478881403507969696680653240014914910929820314476107906210059990541021184"
      ],
      "assetValues": [
        1
      ]
    },
    {
      "reservedAddress": "0x939def73ef2caae224da3f0d233040d3c5e99e98",
      "assetIds": [
        "41506478881403507969696680653240014914910929820314476107906210059990541021184"
      ],
      "assetValues": [
        1
      ]
    },
    {
      "reservedAddress": "0x93baf3beeed6088f73aace6119b372dd85ee2b3d",
      "assetIds": [
        "41506478881403507969696680653240014914910929820314476107906210059990541021184"
      ],
      "assetValues": [
        1
      ]
    },
    {
      "reservedAddress": "0x93e47fa01ab10fd00fadff72b9e380d99e7c83e8",
      "assetIds": [
        "41506478881403507969696680653240014914910929820314476107906210059990541021184"
      ],
      "assetValues": [
        1
      ]
    },
    {
      "reservedAddress": "0x94bab16aad0fa49ab7eea4de36f01380a292805d",
      "assetIds": [
        "41506478881403507969696680653240014914910929820314476107906210059990541021184"
      ],
      "assetValues": [
        1
      ]
    },
    {
      "reservedAddress": "0x94c25ea64eb6c041f4f363cae311777ffa1ade2e",
      "assetIds": [
        "41506478881403507969696680653240014914910929820314476107906210059990541021184"
      ],
      "assetValues": [
        1
      ]
    },
    {
      "reservedAddress": "0x94c39a367313a4e6437c2e5ce5b69b8e33c8cd6d",
      "assetIds": [
        "41506478881403507969696680653240014914910929820314476107906210059990541021184"
      ],
      "assetValues": [
        1
      ]
    },
    {
      "reservedAddress": "0x94d0ae8d04cd79d1edb905a9982e43f7fe40fdd3",
      "assetIds": [
        "41506478881403507969696680653240014914910929820314476107906210059990541021184"
      ],
      "assetValues": [
        1
      ]
    },
    {
      "reservedAddress": "0x9518d856ab1be2bc80cd874f2ec7d2abdc06f1ce",
      "assetIds": [
        "41506478881403507969696680653240014914910929820314476107906210059990541021184"
      ],
      "assetValues": [
        1
      ]
    },
    {
      "reservedAddress": "0x954c659df6b25a16cb0269af516c1dd3e35f699d",
      "assetIds": [
        "41506478881403507969696680653240014914910929820314476107906210059990541021184"
      ],
      "assetValues": [
        1
      ]
    },
    {
      "reservedAddress": "0x95515617e50bd9a5aa175c3688c5f5917ed78f35",
      "assetIds": [
        "41506478881403507969696680653240014914910929820314476107906210059990541021184"
      ],
      "assetValues": [
        1
      ]
    },
    {
      "reservedAddress": "0x956f1ce3ff2ea59a8b41df83ce9f85ed59d73f92",
      "assetIds": [
        "41506478881403507969696680653240014914910929820314476107906210059990541021184"
      ],
      "assetValues": [
        1
      ]
    },
    {
      "reservedAddress": "0x95785ddb6b7c2069520a547bda324359600fee01",
      "assetIds": [
        "41506478881403507969696680653240014914910929820314476107906210059990541021184"
      ],
      "assetValues": [
        1
      ]
    },
    {
      "reservedAddress": "0x9589aadf0abea2f303b4c824444ea7fac4f3856a",
      "assetIds": [
        "41506478881403507969696680653240014914910929820314476107906210059990541021184"
      ],
      "assetValues": [
        1
      ]
    },
    {
      "reservedAddress": "0x95a26811f45b2b7f442d23c4a6560473598af9c4",
      "assetIds": [
        "41506478881403507969696680653240014914910929820314476107906210059990541021184"
      ],
      "assetValues": [
        1
      ]
    },
    {
      "reservedAddress": "0x95bb8919f6f74e5fee6a97e6a1aa26501abae0ec",
      "assetIds": [
        "41506478881403507969696680653240014914910929820314476107906210059990541021184"
      ],
      "assetValues": [
        1
      ]
    },
    {
      "reservedAddress": "0x95ca6b9617f287bc9dd91e5c4be0ab94972050da",
      "assetIds": [
        "41506478881403507969696680653240014914910929820314476107906210059990541021184"
      ],
      "assetValues": [
        1
      ]
    },
    {
      "reservedAddress": "0x95d0a55b2a9e5a9a5625c832db664d05e0a402f1",
      "assetIds": [
        "41506478881403507969696680653240014914910929820314476107906210059990541021184"
      ],
      "assetValues": [
        1
      ]
    },
    {
      "reservedAddress": "0x95ebf2dfd6213f5817c7f5868bd86fc1b854c1b1",
      "assetIds": [
        "41506478881403507969696680653240014914910929820314476107906210059990541021184"
      ],
      "assetValues": [
        1
      ]
    },
    {
      "reservedAddress": "0x963c64a0bf0cc791f4bc31a30dbf53ebab7b6ec0",
      "assetIds": [
        "41506478881403507969696680653240014914910929820314476107906210059990541021184"
      ],
      "assetValues": [
        1
      ]
    },
    {
      "reservedAddress": "0x964b4677c8a6b56f7a85857d854171d5402da46c",
      "assetIds": [
        "41506478881403507969696680653240014914910929820314476107906210059990541021184"
      ],
      "assetValues": [
        1
      ]
    },
    {
      "reservedAddress": "0x96644bfd639667b3e182630c5e3bdcb5f7875c87",
      "assetIds": [
        "41506478881403507969696680653240014914910929820314476107906210059990541021184"
      ],
      "assetValues": [
        1
      ]
    },
    {
      "reservedAddress": "0x966d0c4485278a55113dc1f1e9e2044a3cb50c33",
      "assetIds": [
        "41506478881403507969696680653240014914910929820314476107906210059990541021184"
      ],
      "assetValues": [
        1
      ]
    },
    {
      "reservedAddress": "0x9671a3fbbfb13d68e5770afed424f8915ea0ada3",
      "assetIds": [
        "41506478881403507969696680653240014914910929820314476107906210059990541021184"
      ],
      "assetValues": [
        1
      ]
    },
    {
      "reservedAddress": "0x96efb884224b41b09cfd6f4a06f9e35e59dd69b4",
      "assetIds": [
        "41506478881403507969696680653240014914910929820314476107906210059990541021184"
      ],
      "assetValues": [
        1
      ]
    },
    {
      "reservedAddress": "0x96f1542746782850c86d2ae5ae729c655df447fd",
      "assetIds": [
        "41506478881403507969696680653240014914910929820314476107906210059990541021184"
      ],
      "assetValues": [
        1
      ]
    },
    {
      "reservedAddress": "0x96f69cc93973dad6eedf0c3c8b3be0487467d9c8",
      "assetIds": [
        "41506478881403507969696680653240014914910929820314476107906210059990541021184"
      ],
      "assetValues": [
        1
      ]
    },
    {
      "reservedAddress": "0x97046c1da47d0d89c245c338982d26ae2263eae1",
      "assetIds": [
        "41506478881403507969696680653240014914910929820314476107906210059990541021184"
      ],
      "assetValues": [
        1
      ]
    },
    {
      "reservedAddress": "0x972d3b844962d1aa28192009f97f14608c9840ea",
      "assetIds": [
        "41506478881403507969696680653240014914910929820314476107906210059990541021184"
      ],
      "assetValues": [
        1
      ]
    },
    {
      "reservedAddress": "0x972e633f5f6f62d1f2a13977f113941fcb3b606b",
      "assetIds": [
        "41506478881403507969696680653240014914910929820314476107906210059990541021184"
      ],
      "assetValues": [
        1
      ]
    },
    {
      "reservedAddress": "0x975e8a2da745c3ed3c53b7130d421320ebc6cb60",
      "assetIds": [
        "41506478881403507969696680653240014914910929820314476107906210059990541021184"
      ],
      "assetValues": [
        1
      ]
    },
    {
      "reservedAddress": "0x982546bffdef9faaa3e30cc76f72a534515e04f5",
      "assetIds": [
        "41506478881403507969696680653240014914910929820314476107906210059990541021184"
      ],
      "assetValues": [
        1
      ]
    },
    {
      "reservedAddress": "0x983c1c3c23c4c58fa1f89195cd86803d899a6cc9",
      "assetIds": [
        "41506478881403507969696680653240014914910929820314476107906210059990541021184"
      ],
      "assetValues": [
        1
      ]
    },
    {
      "reservedAddress": "0x9845bc3476d1f891266d2a4c7be093e2527c489c",
      "assetIds": [
        "41506478881403507969696680653240014914910929820314476107906210059990541021184"
      ],
      "assetValues": [
        1
      ]
    },
    {
      "reservedAddress": "0x9850347954bb5528004963a7a196328e4596c6e7",
      "assetIds": [
        "41506478881403507969696680653240014914910929820314476107906210059990541021184"
      ],
      "assetValues": [
        1
      ]
    },
    {
      "reservedAddress": "0x985d554590f3f73b707259b58ceb5177de89d1e0",
      "assetIds": [
        "41506478881403507969696680653240014914910929820314476107906210059990541021184"
      ],
      "assetValues": [
        1
      ]
    },
    {
      "reservedAddress": "0x986fcf5d763cc15598f02571e80fbcc95b4fd39f",
      "assetIds": [
        "41506478881403507969696680653240014914910929820314476107906210059990541021184"
      ],
      "assetValues": [
        1
      ]
    },
    {
      "reservedAddress": "0x9870d7fb6bd72042749228d228949da8aa937e73",
      "assetIds": [
        "41506478881403507969696680653240014914910929820314476107906210059990541021184"
      ],
      "assetValues": [
        1
      ]
    },
    {
      "reservedAddress": "0x988e6a8cd9e23596c67d9d7fb37d2fc170e2acac",
      "assetIds": [
        "41506478881403507969696680653240014914910929820314476107906210059990541021184"
      ],
      "assetValues": [
        1
      ]
    },
    {
      "reservedAddress": "0x98bce2cc31c3c05c6d28eecdb1476e7a133ea563",
      "assetIds": [
        "41506478881403507969696680653240014914910929820314476107906210059990541021184"
      ],
      "assetValues": [
        1
      ]
    },
    {
      "reservedAddress": "0x98c993d9d09900fc08f2f67a21973bbe26e26240",
      "assetIds": [
        "41506478881403507969696680653240014914910929820314476107906210059990541021184"
      ],
      "assetValues": [
        1
      ]
    },
    {
      "reservedAddress": "0x98d29d96b05c47bd32062298f3f18ef758427304",
      "assetIds": [
        "41506478881403507969696680653240014914910929820314476107906210059990541021184"
      ],
      "assetValues": [
        1
      ]
    },
    {
      "reservedAddress": "0x98e7d253f8ccacd754c1abd77ef57ec40631dd32",
      "assetIds": [
        "41506478881403507969696680653240014914910929820314476107906210059990541021184"
      ],
      "assetValues": [
        1
      ]
    },
    {
      "reservedAddress": "0x98ee235244a99fde7aadafb0c0fc77845d9e055a",
      "assetIds": [
        "41506478881403507969696680653240014914910929820314476107906210059990541021184"
      ],
      "assetValues": [
        1
      ]
    },
    {
      "reservedAddress": "0x98f9350895fd5bd493b6e44e2340a191176fb8fb",
      "assetIds": [
        "41506478881403507969696680653240014914910929820314476107906210059990541021184"
      ],
      "assetValues": [
        1
      ]
    },
    {
      "reservedAddress": "0x98f94853591149a26d13145aa7a56440ad6bdab6",
      "assetIds": [
        "41506478881403507969696680653240014914910929820314476107906210059990541021184"
      ],
      "assetValues": [
        1
      ]
    },
    {
      "reservedAddress": "0x9900865334180fe2a507ca1a3122b61a94cc2e3e",
      "assetIds": [
        "41506478881403507969696680653240014914910929820314476107906210059990541021184"
      ],
      "assetValues": [
        1
      ]
    },
    {
      "reservedAddress": "0x990a43fa665ce8b3d61b106c24094136da5878e2",
      "assetIds": [
        "41506478881403507969696680653240014914910929820314476107906210059990541021184"
      ],
      "assetValues": [
        1
      ]
    },
    {
      "reservedAddress": "0x992931cb309055b105327dee9eb7afa702442d89",
      "assetIds": [
        "41506478881403507969696680653240014914910929820314476107906210059990541021184"
      ],
      "assetValues": [
        1
      ]
    },
    {
      "reservedAddress": "0x993894799d8ae6ed114766a603dd9f0dee1b67a4",
      "assetIds": [
        "41506478881403507969696680653240014914910929820314476107906210059990541021184"
      ],
      "assetValues": [
        1
      ]
    },
    {
      "reservedAddress": "0x993b7a91150083380f0023d52c85e5141263635b",
      "assetIds": [
        "41506478881403507969696680653240014914910929820314476107906210059990541021184"
      ],
      "assetValues": [
        1
      ]
    },
    {
      "reservedAddress": "0x9962187d69dfa1ce33f9e6d619a3ec2c6ca42604",
      "assetIds": [
        "41506478881403507969696680653240014914910929820314476107906210059990541021184"
      ],
      "assetValues": [
        1
      ]
    },
    {
      "reservedAddress": "0x99a811e5c62add613975456292f836115aea0164",
      "assetIds": [
        "41506478881403507969696680653240014914910929820314476107906210059990541021184"
      ],
      "assetValues": [
        1
      ]
    },
    {
      "reservedAddress": "0x99b613b7bc72762812cbcedb23794aee1fea23a4",
      "assetIds": [
        "41506478881403507969696680653240014914910929820314476107906210059990541021184"
      ],
      "assetValues": [
        1
      ]
    },
    {
      "reservedAddress": "0x99b625d8aba147c6144eaeb1ad4490c71f8a8f44",
      "assetIds": [
        "41506478881403507969696680653240014914910929820314476107906210059990541021184"
      ],
      "assetValues": [
        1
      ]
    },
    {
      "reservedAddress": "0x99ef027cc92cd1e414e69fb18d95ef208e7997f8",
      "assetIds": [
        "41506478881403507969696680653240014914910929820314476107906210059990541021184"
      ],
      "assetValues": [
        1
      ]
    },
    {
      "reservedAddress": "0x9a1ef682de80304b7e63b0a1d7b780fc84650eca",
      "assetIds": [
        "41506478881403507969696680653240014914910929820314476107906210059990541021184"
      ],
      "assetValues": [
        1
      ]
    },
    {
      "reservedAddress": "0x9a29967db9bb57bc4d16271b4b4884c2becefced",
      "assetIds": [
        "41506478881403507969696680653240014914910929820314476107906210059990541021184"
      ],
      "assetValues": [
        1
      ]
    },
    {
      "reservedAddress": "0x9a30bffb988cc24c4debc5d307090f36b3f9da57",
      "assetIds": [
        "41506478881403507969696680653240014914910929820314476107906210059990541021184"
      ],
      "assetValues": [
        1
      ]
    },
    {
      "reservedAddress": "0x9a33b79d74dacd2488a472e2119b9cb29bd02ce4",
      "assetIds": [
        "41506478881403507969696680653240014914910929820314476107906210059990541021184"
      ],
      "assetValues": [
        1
      ]
    },
    {
      "reservedAddress": "0x9a3a55723dc8974289ec64ee6517fcfb20577b40",
      "assetIds": [
        "41506478881403507969696680653240014914910929820314476107906210059990541021184"
      ],
      "assetValues": [
        1
      ]
    },
    {
      "reservedAddress": "0x9a6c4436eaced8a99e14a395da42525012e0b69f",
      "assetIds": [
        "41506478881403507969696680653240014914910929820314476107906210059990541021184"
      ],
      "assetValues": [
        1
      ]
    },
    {
      "reservedAddress": "0x9a7d259300521b1e910f2b59a59fbb42c66e840f",
      "assetIds": [
        "41506478881403507969696680653240014914910929820314476107906210059990541021184"
      ],
      "assetValues": [
        1
      ]
    },
    {
      "reservedAddress": "0x9a8a42ffd15bc5781e98ace7ce2e84b67f90dbbd",
      "assetIds": [
        "41506478881403507969696680653240014914910929820314476107906210059990541021184"
      ],
      "assetValues": [
        1
      ]
    },
    {
      "reservedAddress": "0x9ae452e5bd703f0fe1afc79776137b38024d4f2e",
      "assetIds": [
        "41506478881403507969696680653240014914910929820314476107906210059990541021184"
      ],
      "assetValues": [
        1
      ]
    },
    {
      "reservedAddress": "0x9ae7d6779e537a689e8c238d66c8900570dacaad",
      "assetIds": [
        "41506478881403507969696680653240014914910929820314476107906210059990541021184"
      ],
      "assetValues": [
        1
      ]
    },
    {
      "reservedAddress": "0x9aebb9dff1ec06e387d2aef848b7fe90aa94bc21",
      "assetIds": [
        "41506478881403507969696680653240014914910929820314476107906210059990541021184"
      ],
      "assetValues": [
        1
      ]
    },
    {
      "reservedAddress": "0x9af906c01f75154dd3402dfa441c7a4251c3201f",
      "assetIds": [
        "41506478881403507969696680653240014914910929820314476107906210059990541021184"
      ],
      "assetValues": [
        1
      ]
    },
    {
      "reservedAddress": "0x9b21ce1a88a6c2faed274b68f42cf80321e4a7b7",
      "assetIds": [
        "41506478881403507969696680653240014914910929820314476107906210059990541021184"
      ],
      "assetValues": [
        1
      ]
    },
    {
      "reservedAddress": "0x9b3ab6e82700d470108f3229e64fe8397b60229d",
      "assetIds": [
        "41506478881403507969696680653240014914910929820314476107906210059990541021184"
      ],
      "assetValues": [
        1
      ]
    },
    {
      "reservedAddress": "0x9b66137da669f2e6277832a3d2c91edfe963e64c",
      "assetIds": [
        "41506478881403507969696680653240014914910929820314476107906210059990541021184"
      ],
      "assetValues": [
        1
      ]
    },
    {
      "reservedAddress": "0x9b8ac2dd33963a117058f3414e70ee12cf8cc6c4",
      "assetIds": [
        "41506478881403507969696680653240014914910929820314476107906210059990541021184"
      ],
      "assetValues": [
        1
      ]
    },
    {
      "reservedAddress": "0x9bc0222ccd513b5b9f5944c67e95afa202f0a158",
      "assetIds": [
        "41506478881403507969696680653240014914910929820314476107906210059990541021184"
      ],
      "assetValues": [
        1
      ]
    },
    {
      "reservedAddress": "0x9bde9fde7944a4b51217af82f9dcd8ce6d6131c0",
      "assetIds": [
        "41506478881403507969696680653240014914910929820314476107906210059990541021184"
      ],
      "assetValues": [
        1
      ]
    },
    {
      "reservedAddress": "0x9bdfa9cd5ba914ffb2b7d622629719177f7eb8f2",
      "assetIds": [
        "41506478881403507969696680653240014914910929820314476107906210059990541021184"
      ],
      "assetValues": [
        1
      ]
    },
    {
      "reservedAddress": "0x9be96a6e861d2e5aff1fe0738bed664b6f0b543e",
      "assetIds": [
        "41506478881403507969696680653240014914910929820314476107906210059990541021184"
      ],
      "assetValues": [
        1
      ]
    },
    {
      "reservedAddress": "0x9c1363e8a8dac64147c3e5e6533dacf269471247",
      "assetIds": [
        "41506478881403507969696680653240014914910929820314476107906210059990541021184"
      ],
      "assetValues": [
        1
      ]
    },
    {
      "reservedAddress": "0x9c3fab19441cafe85e3d3a25b8476b81a8f11fab",
      "assetIds": [
        "41506478881403507969696680653240014914910929820314476107906210059990541021184"
      ],
      "assetValues": [
        1
      ]
    },
    {
      "reservedAddress": "0x9c6aa0c104455d21e0c2771bcd9dd42db69f2e65",
      "assetIds": [
        "41506478881403507969696680653240014914910929820314476107906210059990541021184"
      ],
      "assetValues": [
        1
      ]
    },
    {
      "reservedAddress": "0x9c9feeb6f792c79f813f1959e6daf0e9afbfd3c6",
      "assetIds": [
        "41506478881403507969696680653240014914910929820314476107906210059990541021184"
      ],
      "assetValues": [
        1
      ]
    },
    {
      "reservedAddress": "0x9ca26730aa028d098c52c3974ab89ec81c74f56c",
      "assetIds": [
        "41506478881403507969696680653240014914910929820314476107906210059990541021184"
      ],
      "assetValues": [
        1
      ]
    },
    {
      "reservedAddress": "0x9cab2657f8551c7dab6d4a770693fb7a49fe768b",
      "assetIds": [
        "41506478881403507969696680653240014914910929820314476107906210059990541021184"
      ],
      "assetValues": [
        1
      ]
    },
    {
      "reservedAddress": "0x9ccb89c59e0040fe96814d02832ed6533cbada55",
      "assetIds": [
        "41506478881403507969696680653240014914910929820314476107906210059990541021184"
      ],
      "assetValues": [
        1
      ]
    },
    {
      "reservedAddress": "0x9cd9fdd9e479d67b73abe80a36c2784a4f7b6f66",
      "assetIds": [
        "41506478881403507969696680653240014914910929820314476107906210059990541021184"
      ],
      "assetValues": [
        1
      ]
    },
    {
      "reservedAddress": "0x9cf7a1bf516a5bb95458a43ab030242b2aed5ae2",
      "assetIds": [
        "41506478881403507969696680653240014914910929820314476107906210059990541021184"
      ],
      "assetValues": [
        1
      ]
    },
    {
      "reservedAddress": "0x9d11a3b119a3a52a5646cbf53a0151e673e913f5",
      "assetIds": [
        "41506478881403507969696680653240014914910929820314476107906210059990541021184"
      ],
      "assetValues": [
        1
      ]
    },
    {
      "reservedAddress": "0x9d39d4e995b7bec53c8d3a3220083a481e30ccf9",
      "assetIds": [
        "41506478881403507969696680653240014914910929820314476107906210059990541021184"
      ],
      "assetValues": [
        1
      ]
    },
    {
      "reservedAddress": "0x9d5e1b5423a5342ced1c5ff19b5bc61cc0d98193",
      "assetIds": [
        "41506478881403507969696680653240014914910929820314476107906210059990541021184"
      ],
      "assetValues": [
        1
      ]
    },
    {
      "reservedAddress": "0x9d6b3a959339340dcee81512ab984e1b48774e52",
      "assetIds": [
        "41506478881403507969696680653240014914910929820314476107906210059990541021184"
      ],
      "assetValues": [
        1
      ]
    },
    {
      "reservedAddress": "0x9dba06139aa8b963ce2b6174801aef9f44e67e8a",
      "assetIds": [
        "41506478881403507969696680653240014914910929820314476107906210059990541021184"
      ],
      "assetValues": [
        1
      ]
    },
    {
      "reservedAddress": "0x9dc141208d0253287aeaef7d306bfa2dab10be66",
      "assetIds": [
        "41506478881403507969696680653240014914910929820314476107906210059990541021184"
      ],
      "assetValues": [
        1
      ]
    },
    {
      "reservedAddress": "0x9ddbe1f25a0ce69c073e8fb9c9e56c8483d99a90",
      "assetIds": [
        "41506478881403507969696680653240014914910929820314476107906210059990541021184"
      ],
      "assetValues": [
        1
      ]
    },
    {
      "reservedAddress": "0x9de43abbcc3b08001e8328fdd0bb3d30f6655cef",
      "assetIds": [
        "41506478881403507969696680653240014914910929820314476107906210059990541021184"
      ],
      "assetValues": [
        1
      ]
    },
    {
      "reservedAddress": "0x9de5382716a0cb7efc87fe0de4868674a92cdbb7",
      "assetIds": [
        "41506478881403507969696680653240014914910929820314476107906210059990541021184"
      ],
      "assetValues": [
        1
      ]
    },
    {
      "reservedAddress": "0x9e52ba298b6c7fe03617facc25a27a0f476b0f98",
      "assetIds": [
        "41506478881403507969696680653240014914910929820314476107906210059990541021184"
      ],
      "assetValues": [
        1
      ]
    },
    {
      "reservedAddress": "0x9e693b3c3cc68282056af5b05e9c7daa413aa47c",
      "assetIds": [
        "41506478881403507969696680653240014914910929820314476107906210059990541021184"
      ],
      "assetValues": [
        1
      ]
    },
    {
      "reservedAddress": "0x9ee7aae879d4381b7ac177189f46efd451cddf7a",
      "assetIds": [
        "41506478881403507969696680653240014914910929820314476107906210059990541021184"
      ],
      "assetValues": [
        1
      ]
    },
    {
      "reservedAddress": "0x9eec0b5bd8a48047f0dcc61e98b4b92951480f98",
      "assetIds": [
        "41506478881403507969696680653240014914910929820314476107906210059990541021184"
      ],
      "assetValues": [
        1
      ]
    },
    {
      "reservedAddress": "0x9f0c01ce31fcf414749bdb538cb97ffa9a1024e0",
      "assetIds": [
        "41506478881403507969696680653240014914910929820314476107906210059990541021184"
      ],
      "assetValues": [
        1
      ]
    },
    {
      "reservedAddress": "0x9f1f7957c0456157485a0fc433a5f86403055432",
      "assetIds": [
        "41506478881403507969696680653240014914910929820314476107906210059990541021184"
      ],
      "assetValues": [
        1
      ]
    },
    {
      "reservedAddress": "0x9f5aa14327fb4b61f6f7f1b205501fd1a66bc183",
      "assetIds": [
        "41506478881403507969696680653240014914910929820314476107906210059990541021184"
      ],
      "assetValues": [
        1
      ]
    },
    {
      "reservedAddress": "0x9f92dd5ee09a798e49d558b98fdb1f22a2062c2b",
      "assetIds": [
        "41506478881403507969696680653240014914910929820314476107906210059990541021184"
      ],
      "assetValues": [
        1
      ]
    },
    {
      "reservedAddress": "0x9f97bc4cd56bb4d14fa0302f7ddde02241011ed5",
      "assetIds": [
        "41506478881403507969696680653240014914910929820314476107906210059990541021184"
      ],
      "assetValues": [
        1
      ]
    },
    {
      "reservedAddress": "0x9faefa1c4c779843dcbbccc7b1a20827fee7aa9b",
      "assetIds": [
        "41506478881403507969696680653240014914910929820314476107906210059990541021184"
      ],
      "assetValues": [
        1
      ]
    },
    {
      "reservedAddress": "0x9fbdd6437840641b5dede244b084d31e109a0f23",
      "assetIds": [
        "41506478881403507969696680653240014914910929820314476107906210059990541021184"
      ],
      "assetValues": [
        1
      ]
    },
    {
      "reservedAddress": "0x9fc3657036a1f13cc680f453a681978dcf8dc053",
      "assetIds": [
        "41506478881403507969696680653240014914910929820314476107906210059990541021184"
      ],
      "assetValues": [
        1
      ]
    },
    {
      "reservedAddress": "0x9fc67f2338e6883254fc2a082d58233bea00fdd1",
      "assetIds": [
        "41506478881403507969696680653240014914910929820314476107906210059990541021184"
      ],
      "assetValues": [
        1
      ]
    },
    {
      "reservedAddress": "0x9fed225115a1374c7f0faef307d471c80fff1893",
      "assetIds": [
        "41506478881403507969696680653240014914910929820314476107906210059990541021184"
      ],
      "assetValues": [
        1
      ]
    },
    {
      "reservedAddress": "0x9ffc30105e0c473a96859e2d0bdcbc928a1e89b1",
      "assetIds": [
        "41506478881403507969696680653240014914910929820314476107906210059990541021184"
      ],
      "assetValues": [
        1
      ]
    },
    {
      "reservedAddress": "0xa003019940a2ab673d77a723e2110725b19ca04e",
      "assetIds": [
        "41506478881403507969696680653240014914910929820314476107906210059990541021184"
      ],
      "assetValues": [
        1
      ]
    },
    {
      "reservedAddress": "0xa0063128c0169361dfd9b30296e206465a64681c",
      "assetIds": [
        "41506478881403507969696680653240014914910929820314476107906210059990541021184"
      ],
      "assetValues": [
        1
      ]
    },
    {
      "reservedAddress": "0xa0587945d8a0618ac2e986779effb0fdde1b1344",
      "assetIds": [
        "41506478881403507969696680653240014914910929820314476107906210059990541021184"
      ],
      "assetValues": [
        1
      ]
    },
    {
      "reservedAddress": "0xa05b2fe46f8d555b4acc9a32fcbf7ef8e73287cc",
      "assetIds": [
        "41506478881403507969696680653240014914910929820314476107906210059990541021184"
      ],
      "assetValues": [
        1
      ]
    },
    {
      "reservedAddress": "0xa0e1eee5ce9881c716ed5d09377f693dfbb65a9a",
      "assetIds": [
        "41506478881403507969696680653240014914910929820314476107906210059990541021184"
      ],
      "assetValues": [
        1
      ]
    },
    {
      "reservedAddress": "0xa0e65d5528e4f91555914a751b0836b28b7a8367",
      "assetIds": [
        "41506478881403507969696680653240014914910929820314476107906210059990541021184"
      ],
      "assetValues": [
        1
      ]
    },
    {
      "reservedAddress": "0xa0f939965e18e969ddabab056e81dae2e2e7df4d",
      "assetIds": [
        "41506478881403507969696680653240014914910929820314476107906210059990541021184"
      ],
      "assetValues": [
        1
      ]
    },
    {
      "reservedAddress": "0xa1491d0c75478c7ccb0dfabf4fdc842fba0800e7",
      "assetIds": [
        "41506478881403507969696680653240014914910929820314476107906210059990541021184"
      ],
      "assetValues": [
        1
      ]
    },
    {
      "reservedAddress": "0xa15b5d913a8e1d490589b0103c809c8d868a9298",
      "assetIds": [
        "41506478881403507969696680653240014914910929820314476107906210059990541021184"
      ],
      "assetValues": [
        1
      ]
    },
    {
      "reservedAddress": "0xa1733987eace12cb0adf12d3b0c59aacd33663e6",
      "assetIds": [
        "41506478881403507969696680653240014914910929820314476107906210059990541021184"
      ],
      "assetValues": [
        1
      ]
    },
    {
      "reservedAddress": "0xa1758d337343856036858ac32216d7c72be580cc",
      "assetIds": [
        "41506478881403507969696680653240014914910929820314476107906210059990541021184"
      ],
      "assetValues": [
        1
      ]
    },
    {
      "reservedAddress": "0xa18ad0ec028abd4a858c3e7c78ae717c8dc9bb9b",
      "assetIds": [
        "41506478881403507969696680653240014914910929820314476107906210059990541021184"
      ],
      "assetValues": [
        1
      ]
    },
    {
      "reservedAddress": "0xa196a68901fdc0868e7c3864f6df615f0cfc85fb",
      "assetIds": [
        "41506478881403507969696680653240014914910929820314476107906210059990541021184"
      ],
      "assetValues": [
        1
      ]
    },
    {
      "reservedAddress": "0xa1a1ea2f4ef2c85d24de68057939c1d2daf4a131",
      "assetIds": [
        "41506478881403507969696680653240014914910929820314476107906210059990541021184"
      ],
      "assetValues": [
        1
      ]
    },
    {
      "reservedAddress": "0xa1ded698b45641ec37aad9e10c96e801879aab2f",
      "assetIds": [
        "41506478881403507969696680653240014914910929820314476107906210059990541021184"
      ],
      "assetValues": [
        1
      ]
    },
    {
      "reservedAddress": "0xa1e6e4b1d9db1ebd4b7c289b34eb3ba5253f8ca2",
      "assetIds": [
        "41506478881403507969696680653240014914910929820314476107906210059990541021184"
      ],
      "assetValues": [
        1
      ]
    },
    {
      "reservedAddress": "0xa23c7d9ad2dd8a960b5c2c7344a7dc0328c24a9f",
      "assetIds": [
        "41506478881403507969696680653240014914910929820314476107906210059990541021184"
      ],
      "assetValues": [
        1
      ]
    },
    {
      "reservedAddress": "0xa24db1dc8ce36c960bc4517d4b1eb3f3e7c10fff",
      "assetIds": [
        "41506478881403507969696680653240014914910929820314476107906210059990541021184"
      ],
      "assetValues": [
        1
      ]
    },
    {
      "reservedAddress": "0xa280781af4d62ea1c48cc870355e6e84e899aa4b",
      "assetIds": [
        "41506478881403507969696680653240014914910929820314476107906210059990541021184"
      ],
      "assetValues": [
        1
      ]
    },
    {
      "reservedAddress": "0xa281c80d990dbee13206fc161b6259a43636327e",
      "assetIds": [
        "41506478881403507969696680653240014914910929820314476107906210059990541021184"
      ],
      "assetValues": [
        1
      ]
    },
    {
      "reservedAddress": "0xa2bc3605584a0eb4bbf06afb270a52fd5d2bae0a",
      "assetIds": [
        "41506478881403507969696680653240014914910929820314476107906210059990541021184"
      ],
      "assetValues": [
        1
      ]
    },
    {
      "reservedAddress": "0xa2c76115300c594bf067f409f7b9afb507de1e14",
      "assetIds": [
        "41506478881403507969696680653240014914910929820314476107906210059990541021184"
      ],
      "assetValues": [
        1
      ]
    },
    {
      "reservedAddress": "0xa2d316bfb169e6574166535fc654316becff4b6a",
      "assetIds": [
        "41506478881403507969696680653240014914910929820314476107906210059990541021184"
      ],
      "assetValues": [
        1
      ]
    },
    {
      "reservedAddress": "0xa2e358abb6dad485704f01cb479bea5abbae902f",
      "assetIds": [
        "41506478881403507969696680653240014914910929820314476107906210059990541021184"
      ],
      "assetValues": [
        1
      ]
    },
    {
      "reservedAddress": "0xa31dbf0435af02f3b68ec7f985c9388e8ab1e47b",
      "assetIds": [
        "41506478881403507969696680653240014914910929820314476107906210059990541021184"
      ],
      "assetValues": [
        1
      ]
    },
    {
      "reservedAddress": "0xa32f90b21d11561d31ff604745907acc77fb67e3",
      "assetIds": [
        "41506478881403507969696680653240014914910929820314476107906210059990541021184"
      ],
      "assetValues": [
        1
      ]
    },
    {
      "reservedAddress": "0xa338c42cd68dd24931f270836cdbddcea4132770",
      "assetIds": [
        "41506478881403507969696680653240014914910929820314476107906210059990541021184"
      ],
      "assetValues": [
        1
      ]
    },
    {
      "reservedAddress": "0xa3540a412ef30255fb4d50fe6c0b41b9f28da499",
      "assetIds": [
        "41506478881403507969696680653240014914910929820314476107906210059990541021184"
      ],
      "assetValues": [
        1
      ]
    },
    {
      "reservedAddress": "0xa3bdee5ae75b77450eecc4e321c2196fd59922ad",
      "assetIds": [
        "41506478881403507969696680653240014914910929820314476107906210059990541021184"
      ],
      "assetValues": [
        1
      ]
    },
    {
      "reservedAddress": "0xa3ea9b33ce9f0f3789f24a6d7ae131c66d1c1656",
      "assetIds": [
        "41506478881403507969696680653240014914910929820314476107906210059990541021184"
      ],
      "assetValues": [
        1
      ]
    },
    {
      "reservedAddress": "0xa40465bfb39919121472f5f589ea027662c7e847",
      "assetIds": [
        "41506478881403507969696680653240014914910929820314476107906210059990541021184"
      ],
      "assetValues": [
        1
      ]
    },
    {
      "reservedAddress": "0xa41312a0fae3ac1180a1176f9786417a94f71d0c",
      "assetIds": [
        "41506478881403507969696680653240014914910929820314476107906210059990541021184"
      ],
      "assetValues": [
        1
      ]
    },
    {
      "reservedAddress": "0xa4854a30a62c0c5a62ccee9582a2efacba5d41b1",
      "assetIds": [
        "41506478881403507969696680653240014914910929820314476107906210059990541021184"
      ],
      "assetValues": [
        1
      ]
    },
    {
      "reservedAddress": "0xa4981cad0e385cd956a5febb904f36fddaa9dcfe",
      "assetIds": [
        "41506478881403507969696680653240014914910929820314476107906210059990541021184"
      ],
      "assetValues": [
        1
      ]
    },
    {
      "reservedAddress": "0xa49c1e4ee9ebc48ba8fb8166f79d9b628ef64ae6",
      "assetIds": [
        "41506478881403507969696680653240014914910929820314476107906210059990541021184"
      ],
      "assetValues": [
        1
      ]
    },
    {
      "reservedAddress": "0xa4bae12b389c8dd081aed7311a8457f632bcab7c",
      "assetIds": [
        "41506478881403507969696680653240014914910929820314476107906210059990541021184"
      ],
      "assetValues": [
        1
      ]
    },
    {
      "reservedAddress": "0xa4dc7833715b1a8213f4e768abaced04ee25f4e0",
      "assetIds": [
        "41506478881403507969696680653240014914910929820314476107906210059990541021184"
      ],
      "assetValues": [
        1
      ]
    },
    {
      "reservedAddress": "0xa4ed922ad17b9263340e324e81584f0fb7a38d18",
      "assetIds": [
        "41506478881403507969696680653240014914910929820314476107906210059990541021184"
      ],
      "assetValues": [
        1
      ]
    },
    {
      "reservedAddress": "0xa54e005e6dc621076704f7e744ddfc635445f93e",
      "assetIds": [
        "41506478881403507969696680653240014914910929820314476107906210059990541021184"
      ],
      "assetValues": [
        1
      ]
    },
    {
      "reservedAddress": "0xa5554da0dfe0d58e39692e96fe24d7dd62886ae6",
      "assetIds": [
        "41506478881403507969696680653240014914910929820314476107906210059990541021184"
      ],
      "assetValues": [
        1
      ]
    },
    {
      "reservedAddress": "0xa562a3c3565ae588cceab88d4362126eae4cd689",
      "assetIds": [
        "41506478881403507969696680653240014914910929820314476107906210059990541021184"
      ],
      "assetValues": [
        1
      ]
    },
    {
      "reservedAddress": "0xa57033c944106a32658321ec4248ae3571521e9e",
      "assetIds": [
        "41506478881403507969696680653240014914910929820314476107906210059990541021184"
      ],
      "assetValues": [
        1
      ]
    },
    {
      "reservedAddress": "0xa5713ca76a830bd869e473246fd4e9d357ba8656",
      "assetIds": [
        "41506478881403507969696680653240014914910929820314476107906210059990541021184"
      ],
      "assetValues": [
        1
      ]
    },
    {
      "reservedAddress": "0xa57ec481335314d08a263141fd261c9f8d0c678e",
      "assetIds": [
        "41506478881403507969696680653240014914910929820314476107906210059990541021184"
      ],
      "assetValues": [
        1
      ]
    },
    {
      "reservedAddress": "0xa584f712ad5ca229f0a565d59f3eb652c3d753af",
      "assetIds": [
        "41506478881403507969696680653240014914910929820314476107906210059990541021184"
      ],
      "assetValues": [
        1
      ]
    },
    {
      "reservedAddress": "0xa5a1917ffc2ea105fecb69d035f127908e8f1b13",
      "assetIds": [
        "41506478881403507969696680653240014914910929820314476107906210059990541021184"
      ],
      "assetValues": [
        1
      ]
    },
    {
      "reservedAddress": "0xa5a44b4d8402807b718b3ae0912185df9b3b6c7e",
      "assetIds": [
        "41506478881403507969696680653240014914910929820314476107906210059990541021184"
      ],
      "assetValues": [
        1
      ]
    },
    {
      "reservedAddress": "0xa5e2bb97de3c62ca06f1a2293eb7e01c114e9a49",
      "assetIds": [
        "41506478881403507969696680653240014914910929820314476107906210059990541021184"
      ],
      "assetValues": [
        1
      ]
    },
    {
      "reservedAddress": "0xa655c36eba808148497aed8bacd1c8cf6c59335c",
      "assetIds": [
        "41506478881403507969696680653240014914910929820314476107906210059990541021184"
      ],
      "assetValues": [
        1
      ]
    },
    {
      "reservedAddress": "0xa6585b22c2c7c92e80c33bb6620e2869bad08cf5",
      "assetIds": [
        "41506478881403507969696680653240014914910929820314476107906210059990541021184"
      ],
      "assetValues": [
        1
      ]
    },
    {
      "reservedAddress": "0xa6b6fb6a424f4d107fbdd6f3bca610b568ccb2ea",
      "assetIds": [
        "41506478881403507969696680653240014914910929820314476107906210059990541021184"
      ],
      "assetValues": [
        1
      ]
    },
    {
      "reservedAddress": "0xa6bde3b137d102fcc94a9c6d6964bd08e156f9d2",
      "assetIds": [
        "41506478881403507969696680653240014914910929820314476107906210059990541021184"
      ],
      "assetValues": [
        1
      ]
    },
    {
      "reservedAddress": "0xa7e1694c3202ee4b012fc3228b35cd3566accf03",
      "assetIds": [
        "41506478881403507969696680653240014914910929820314476107906210059990541021184"
      ],
      "assetValues": [
        1
      ]
    },
    {
      "reservedAddress": "0xa819c50d511187ce0f6aa352427586d6d0c187f7",
      "assetIds": [
        "41506478881403507969696680653240014914910929820314476107906210059990541021184"
      ],
      "assetValues": [
        1
      ]
    },
    {
      "reservedAddress": "0xa847cdce7c27b42dc16ebbc5c3fb4e8ed1fb0a10",
      "assetIds": [
        "41506478881403507969696680653240014914910929820314476107906210059990541021184"
      ],
      "assetValues": [
        1
      ]
    },
    {
      "reservedAddress": "0xa8749fc77431328e7315aceb110eec956257240e",
      "assetIds": [
        "41506478881403507969696680653240014914910929820314476107906210059990541021184"
      ],
      "assetValues": [
        1
      ]
    },
    {
      "reservedAddress": "0xa898ab42d2f185735ff7ea3d47e93d2b4101d7f5",
      "assetIds": [
        "41506478881403507969696680653240014914910929820314476107906210059990541021184"
      ],
      "assetValues": [
        1
      ]
    },
    {
      "reservedAddress": "0xa8b7496bd530325935c9f6716d1d459b23907aa4",
      "assetIds": [
        "41506478881403507969696680653240014914910929820314476107906210059990541021184"
      ],
      "assetValues": [
        1
      ]
    },
    {
      "reservedAddress": "0xa8d1f5bc680504ddc41b2bc7007e413c3c01221a",
      "assetIds": [
        "41506478881403507969696680653240014914910929820314476107906210059990541021184"
      ],
      "assetValues": [
        1
      ]
    },
    {
      "reservedAddress": "0xa8ec210100fa9b5028bf55221c2e60ddfa739a23",
      "assetIds": [
        "41506478881403507969696680653240014914910929820314476107906210059990541021184"
      ],
      "assetValues": [
        1
      ]
    },
    {
      "reservedAddress": "0xa9007def5301cdb0bb343bc2c290570588a8ba69",
      "assetIds": [
        "41506478881403507969696680653240014914910929820314476107906210059990541021184"
      ],
      "assetValues": [
        1
      ]
    },
    {
      "reservedAddress": "0xa9196e531ae237b3edfe0b10299932cfd5dd494b",
      "assetIds": [
        "41506478881403507969696680653240014914910929820314476107906210059990541021184"
      ],
      "assetValues": [
        1
      ]
    },
    {
      "reservedAddress": "0xa94a194cbce345ed664952420ddb4ded6c47904b",
      "assetIds": [
        "41506478881403507969696680653240014914910929820314476107906210059990541021184"
      ],
      "assetValues": [
        1
      ]
    },
    {
      "reservedAddress": "0xa967d8b2d5b623a4b09eaf985a4463fea19b7668",
      "assetIds": [
        "41506478881403507969696680653240014914910929820314476107906210059990541021184"
      ],
      "assetValues": [
        1
      ]
    },
    {
      "reservedAddress": "0xa96a5c76ab485656a140bacf273b3709553fa7b2",
      "assetIds": [
        "41506478881403507969696680653240014914910929820314476107906210059990541021184"
      ],
      "assetValues": [
        1
      ]
    },
    {
      "reservedAddress": "0xa973df175abef63db2bd89d9f136e87182b3d001",
      "assetIds": [
        "41506478881403507969696680653240014914910929820314476107906210059990541021184"
      ],
      "assetValues": [
        1
      ]
    },
    {
      "reservedAddress": "0xa9ccfcfceda22b98d6ab5729100b49e637326b2c",
      "assetIds": [
        "41506478881403507969696680653240014914910929820314476107906210059990541021184"
      ],
      "assetValues": [
        1
      ]
    },
    {
      "reservedAddress": "0xa9e604d9865836990c135b6382d3201a3aa8b465",
      "assetIds": [
        "41506478881403507969696680653240014914910929820314476107906210059990541021184"
      ],
      "assetValues": [
        1
      ]
    },
    {
      "reservedAddress": "0xa9f7675c9732d8f18182841431a72ee3f1a3d26d",
      "assetIds": [
        "41506478881403507969696680653240014914910929820314476107906210059990541021184"
      ],
      "assetValues": [
        1
      ]
    },
    {
      "reservedAddress": "0xaa089eae69704d383794139318e76b28fdfd8b41",
      "assetIds": [
        "41506478881403507969696680653240014914910929820314476107906210059990541021184"
      ],
      "assetValues": [
        1
      ]
    },
    {
      "reservedAddress": "0xaa73a811a4898ca0e116376be752b3960d554021",
      "assetIds": [
        "41506478881403507969696680653240014914910929820314476107906210059990541021184"
      ],
      "assetValues": [
        1
      ]
    },
    {
      "reservedAddress": "0xaa9fffe053e517eaeb834209e666886ece5f653e",
      "assetIds": [
        "41506478881403507969696680653240014914910929820314476107906210059990541021184"
      ],
      "assetValues": [
        1
      ]
    },
    {
      "reservedAddress": "0xaac411cb67cdae8c6cb0b62d884f5b39fcb6e76e",
      "assetIds": [
        "41506478881403507969696680653240014914910929820314476107906210059990541021184"
      ],
      "assetValues": [
        1
      ]
    },
    {
      "reservedAddress": "0xaaea99d77862860fb6ae15154569afd3c3b7718c",
      "assetIds": [
        "41506478881403507969696680653240014914910929820314476107906210059990541021184"
      ],
      "assetValues": [
        1
      ]
    },
    {
      "reservedAddress": "0xaaf0eb7d49cddbb8d6d516689b9427cf69239c9f",
      "assetIds": [
        "41506478881403507969696680653240014914910929820314476107906210059990541021184"
      ],
      "assetValues": [
        1
      ]
    },
    {
      "reservedAddress": "0xab0afc6f0c1d3b2e0f3650ee9b92e1c6f0098bc1",
      "assetIds": [
        "41506478881403507969696680653240014914910929820314476107906210059990541021184"
      ],
      "assetValues": [
        1
      ]
    },
    {
      "reservedAddress": "0xab251cdb9894c7d7932fe2d376b9ff81a520a82e",
      "assetIds": [
        "41506478881403507969696680653240014914910929820314476107906210059990541021184"
      ],
      "assetValues": [
        1
      ]
    },
    {
      "reservedAddress": "0xab292a0b800865af489fab8eb55306e3df83575f",
      "assetIds": [
        "41506478881403507969696680653240014914910929820314476107906210059990541021184"
      ],
      "assetValues": [
        1
      ]
    },
    {
      "reservedAddress": "0xab4787b17bfb2004c4b074ea64871dfa238bd50c",
      "assetIds": [
        "41506478881403507969696680653240014914910929820314476107906210059990541021184"
      ],
      "assetValues": [
        1
      ]
    },
    {
      "reservedAddress": "0xab98e6106d522665f44ac8a4666e65888861b90b",
      "assetIds": [
        "41506478881403507969696680653240014914910929820314476107906210059990541021184"
      ],
      "assetValues": [
        1
      ]
    },
    {
      "reservedAddress": "0xabb48f9e7fd70d304aef5e79d0e463fddd1fd90d",
      "assetIds": [
        "41506478881403507969696680653240014914910929820314476107906210059990541021184"
      ],
      "assetValues": [
        1
      ]
    },
    {
      "reservedAddress": "0xabd4f7008003dbc655482cee038ba3870014f82e",
      "assetIds": [
        "41506478881403507969696680653240014914910929820314476107906210059990541021184"
      ],
      "assetValues": [
        1
      ]
    },
    {
      "reservedAddress": "0xabd9221a59ba5c03fdd655834f07f44818979698",
      "assetIds": [
        "41506478881403507969696680653240014914910929820314476107906210059990541021184"
      ],
      "assetValues": [
        1
      ]
    },
    {
      "reservedAddress": "0xabf74ad1d57a787cdc2506616733a34933ac9f84",
      "assetIds": [
        "41506478881403507969696680653240014914910929820314476107906210059990541021184"
      ],
      "assetValues": [
        1
      ]
    },
    {
      "reservedAddress": "0xabfa8b1ae655df5c9ba949d81fb14e9061bacc3b",
      "assetIds": [
        "41506478881403507969696680653240014914910929820314476107906210059990541021184"
      ],
      "assetValues": [
        1
      ]
    },
    {
      "reservedAddress": "0xac2cff4eb116a4d492c3bcfc1c629c4f1a24909f",
      "assetIds": [
        "41506478881403507969696680653240014914910929820314476107906210059990541021184"
      ],
      "assetValues": [
        1
      ]
    },
    {
      "reservedAddress": "0xac4adf0a8ef4ccb09fd39c783555af2e141dc757",
      "assetIds": [
        "41506478881403507969696680653240014914910929820314476107906210059990541021184"
      ],
      "assetValues": [
        1
      ]
    },
    {
      "reservedAddress": "0xac55137372b8809b583b178279986a0ed86a6614",
      "assetIds": [
        "41506478881403507969696680653240014914910929820314476107906210059990541021184"
      ],
      "assetValues": [
        1
      ]
    },
    {
      "reservedAddress": "0xac5c2e1a8d1900affa87f303e05145a4e5747dc9",
      "assetIds": [
        "41506478881403507969696680653240014914910929820314476107906210059990541021184"
      ],
      "assetValues": [
        1
      ]
    },
    {
      "reservedAddress": "0xac8849136e6f6bfc86d69d67b0b7416a26ac5286",
      "assetIds": [
        "41506478881403507969696680653240014914910929820314476107906210059990541021184"
      ],
      "assetValues": [
        1
      ]
    },
    {
      "reservedAddress": "0xace8de51a67b9b5892d0d0e17df54499d9509bbe",
      "assetIds": [
        "41506478881403507969696680653240014914910929820314476107906210059990541021184"
      ],
      "assetValues": [
        1
      ]
    },
    {
      "reservedAddress": "0xacf173ef31495f4183f301821605bc8024a80a45",
      "assetIds": [
        "41506478881403507969696680653240014914910929820314476107906210059990541021184"
      ],
      "assetValues": [
        1
      ]
    },
    {
      "reservedAddress": "0xad539b34c4a2db0a0f71f0b2151ef9092d8821ee",
      "assetIds": [
        "41506478881403507969696680653240014914910929820314476107906210059990541021184"
      ],
      "assetValues": [
        1
      ]
    },
    {
      "reservedAddress": "0xad6034c145530682ed7643478b6678e2e2bbaad6",
      "assetIds": [
        "41506478881403507969696680653240014914910929820314476107906210059990541021184"
      ],
      "assetValues": [
        1
      ]
    },
    {
      "reservedAddress": "0xad95618e1023e490961842bc0580a826b0e78b48",
      "assetIds": [
        "41506478881403507969696680653240014914910929820314476107906210059990541021184"
      ],
      "assetValues": [
        1
      ]
    },
    {
      "reservedAddress": "0xadbf145993b6a3b00663b24a8dad3fd97e8114ae",
      "assetIds": [
        "41506478881403507969696680653240014914910929820314476107906210059990541021184"
      ],
      "assetValues": [
        1
      ]
    },
    {
      "reservedAddress": "0xadcb9638ef6bb85fe91b33ab33a6143248a2f2a5",
      "assetIds": [
        "41506478881403507969696680653240014914910929820314476107906210059990541021184"
      ],
      "assetValues": [
        1
      ]
    },
    {
      "reservedAddress": "0xae1692d8d045716c948b707550e91dbd2c55169a",
      "assetIds": [
        "41506478881403507969696680653240014914910929820314476107906210059990541021184"
      ],
      "assetValues": [
        1
      ]
    },
    {
      "reservedAddress": "0xaee3fff95e79b19a4121ef98a4280fc601b06f64",
      "assetIds": [
        "41506478881403507969696680653240014914910929820314476107906210059990541021184"
      ],
      "assetValues": [
        1
      ]
    },
    {
      "reservedAddress": "0xaf253406e0963b65dcac594eb11f6d3665db0781",
      "assetIds": [
        "41506478881403507969696680653240014914910929820314476107906210059990541021184"
      ],
      "assetValues": [
        1
      ]
    },
    {
      "reservedAddress": "0xafa57e81d02c9017aa7f3e90ed781dd7e3891e11",
      "assetIds": [
        "41506478881403507969696680653240014914910929820314476107906210059990541021184"
      ],
      "assetValues": [
        1
      ]
    },
    {
      "reservedAddress": "0xafeaf8edae10c63d0575738a3c42736acdcaeea3",
      "assetIds": [
        "41506478881403507969696680653240014914910929820314476107906210059990541021184"
      ],
      "assetValues": [
        1
      ]
    },
    {
      "reservedAddress": "0xb00cd8e790ec45971a04695849a17a647eb74463",
      "assetIds": [
        "41506478881403507969696680653240014914910929820314476107906210059990541021184"
      ],
      "assetValues": [
        1
      ]
    },
    {
      "reservedAddress": "0xb01b31f8ebdf2ba6371b9d8cdca8b9cbe06face7",
      "assetIds": [
        "41506478881403507969696680653240014914910929820314476107906210059990541021184"
      ],
      "assetValues": [
        1
      ]
    },
    {
      "reservedAddress": "0xb01dbb1a845a9d1c93310e662803a56ed68a22dc",
      "assetIds": [
        "41506478881403507969696680653240014914910929820314476107906210059990541021184"
      ],
      "assetValues": [
        1
      ]
    },
    {
      "reservedAddress": "0xb02b3318559ab841709c5c5902946ff11618f23e",
      "assetIds": [
        "41506478881403507969696680653240014914910929820314476107906210059990541021184"
      ],
      "assetValues": [
        1
      ]
    },
    {
      "reservedAddress": "0xb03e25c2c3731a377b259b84debe451e2d1ff4c2",
      "assetIds": [
        "41506478881403507969696680653240014914910929820314476107906210059990541021184"
      ],
      "assetValues": [
        1
      ]
    },
    {
      "reservedAddress": "0xb049df3c39b9726817c23efb6d58b75b83a19389",
      "assetIds": [
        "41506478881403507969696680653240014914910929820314476107906210059990541021184"
      ],
      "assetValues": [
        1
      ]
    },
    {
      "reservedAddress": "0xb09a080edffe28b62e1c962f1997f886012940d2",
      "assetIds": [
        "41506478881403507969696680653240014914910929820314476107906210059990541021184"
      ],
      "assetValues": [
        1
      ]
    },
    {
      "reservedAddress": "0xb0e8b523712a5d5cca00a8b2c6f8d3a7b5da3892",
      "assetIds": [
        "41506478881403507969696680653240014914910929820314476107906210059990541021184"
      ],
      "assetValues": [
        1
      ]
    },
    {
      "reservedAddress": "0xb10d351ccf64648d27477bedc2722aca885d65f5",
      "assetIds": [
        "41506478881403507969696680653240014914910929820314476107906210059990541021184"
      ],
      "assetValues": [
        1
      ]
    },
    {
      "reservedAddress": "0xb1882e3b9fa9eed4a573d8ce615cca4eb77f3534",
      "assetIds": [
        "41506478881403507969696680653240014914910929820314476107906210059990541021184"
      ],
      "assetValues": [
        1
      ]
    },
    {
      "reservedAddress": "0xb18c385a81c40f1f7b70fe026455f4ea5e425cef",
      "assetIds": [
        "41506478881403507969696680653240014914910929820314476107906210059990541021184"
      ],
      "assetValues": [
        1
      ]
    },
    {
      "reservedAddress": "0xb192e9c2d7d5e61784863cc103db380cd4a9ce69",
      "assetIds": [
        "41506478881403507969696680653240014914910929820314476107906210059990541021184"
      ],
      "assetValues": [
        1
      ]
    },
    {
      "reservedAddress": "0xb1a3c017d613be02f6d195a3909a5ebb390ff625",
      "assetIds": [
        "41506478881403507969696680653240014914910929820314476107906210059990541021184"
      ],
      "assetValues": [
        1
      ]
    },
    {
      "reservedAddress": "0xb1aa108aee9b08b5e205daa7255d8053df0ccdad",
      "assetIds": [
        "41506478881403507969696680653240014914910929820314476107906210059990541021184"
      ],
      "assetValues": [
        1
      ]
    },
    {
      "reservedAddress": "0xb1af13b2e4be55ca69829a23c09a1f5663adf8d0",
      "assetIds": [
        "41506478881403507969696680653240014914910929820314476107906210059990541021184"
      ],
      "assetValues": [
        1
      ]
    },
    {
      "reservedAddress": "0xb1dd78e89c37c85ba76c5339e4324dda1f9d55f1",
      "assetIds": [
        "41506478881403507969696680653240014914910929820314476107906210059990541021184"
      ],
      "assetValues": [
        1
      ]
    },
    {
      "reservedAddress": "0xb215cfebb90d91b1d2f499843800d3105b1366fc",
      "assetIds": [
        "41506478881403507969696680653240014914910929820314476107906210059990541021184"
      ],
      "assetValues": [
        1
      ]
    },
    {
      "reservedAddress": "0xb2472ddcac9e8291e1f350db863e582849b4aae7",
      "assetIds": [
        "41506478881403507969696680653240014914910929820314476107906210059990541021184"
      ],
      "assetValues": [
        1
      ]
    },
    {
      "reservedAddress": "0xb28ce2eb17d846184b06cc5cde0bd00c596b6c92",
      "assetIds": [
        "41506478881403507969696680653240014914910929820314476107906210059990541021184"
      ],
      "assetValues": [
        1
      ]
    },
    {
      "reservedAddress": "0xb294ce56b0b12d0f32d61dca52bd39dae74e1156",
      "assetIds": [
        "41506478881403507969696680653240014914910929820314476107906210059990541021184"
      ],
      "assetValues": [
        1
      ]
    },
    {
      "reservedAddress": "0xb2a6698bb78b0a12ec721a68f7896842bae10a1c",
      "assetIds": [
        "41506478881403507969696680653240014914910929820314476107906210059990541021184"
      ],
      "assetValues": [
        1
      ]
    },
    {
      "reservedAddress": "0xb2c79b9c3c80e3fa5b390792f9750cb5e3b7969d",
      "assetIds": [
        "41506478881403507969696680653240014914910929820314476107906210059990541021184"
      ],
      "assetValues": [
        1
      ]
    },
    {
      "reservedAddress": "0xb2ed0ae7c335482ae8b50f61d1dcfc1882233bfa",
      "assetIds": [
        "41506478881403507969696680653240014914910929820314476107906210059990541021184"
      ],
      "assetValues": [
        1
      ]
    },
    {
      "reservedAddress": "0xb338867bda37adf171b60a9aa59d924ac5548507",
      "assetIds": [
        "41506478881403507969696680653240014914910929820314476107906210059990541021184"
      ],
      "assetValues": [
        1
      ]
    },
    {
      "reservedAddress": "0xb362db8d0a0cddd9c471d4cd768701cfcfa64e1a",
      "assetIds": [
        "41506478881403507969696680653240014914910929820314476107906210059990541021184"
      ],
      "assetValues": [
        1
      ]
    },
    {
      "reservedAddress": "0xb390b1b1d7c5ae9d8904b5e690feaa2ae7f91190",
      "assetIds": [
        "41506478881403507969696680653240014914910929820314476107906210059990541021184"
      ],
      "assetValues": [
        1
      ]
    },
    {
      "reservedAddress": "0xb3c2cf4ead05631fa3fa66a1661298921e9f63de",
      "assetIds": [
        "41506478881403507969696680653240014914910929820314476107906210059990541021184"
      ],
      "assetValues": [
        1
      ]
    },
    {
      "reservedAddress": "0xb3d826146bdd186d84c3e5ab87cbf992a904df57",
      "assetIds": [
        "41506478881403507969696680653240014914910929820314476107906210059990541021184"
      ],
      "assetValues": [
        1
      ]
    },
    {
      "reservedAddress": "0xb3e1b74963301d2ebd72eceae539007c3aff3424",
      "assetIds": [
        "41506478881403507969696680653240014914910929820314476107906210059990541021184"
      ],
      "assetValues": [
        1
      ]
    },
    {
      "reservedAddress": "0xb3e2a7b1295d9ee03e1f300dfccaab2ecd47ee53",
      "assetIds": [
        "41506478881403507969696680653240014914910929820314476107906210059990541021184"
      ],
      "assetValues": [
        1
      ]
    },
    {
      "reservedAddress": "0xb424e194ad69a4666c2dead518c7aecfb4890bd8",
      "assetIds": [
        "41506478881403507969696680653240014914910929820314476107906210059990541021184"
      ],
      "assetValues": [
        1
      ]
    },
    {
      "reservedAddress": "0xb43359eb22ae059de51680ab9e935ce91f2d8dcc",
      "assetIds": [
        "41506478881403507969696680653240014914910929820314476107906210059990541021184"
      ],
      "assetValues": [
        1
      ]
    },
    {
      "reservedAddress": "0xb436141073efe6c21ac6be9a5bb0d1d74f0ce87c",
      "assetIds": [
        "41506478881403507969696680653240014914910929820314476107906210059990541021184"
      ],
      "assetValues": [
        1
      ]
    },
    {
      "reservedAddress": "0xb4367abe9d87c508eceb60c422cbbf8e34aa8dc9",
      "assetIds": [
        "41506478881403507969696680653240014914910929820314476107906210059990541021184"
      ],
      "assetValues": [
        1
      ]
    },
    {
      "reservedAddress": "0xb4ad53a8550a29a46fb38619f3bb3e6af3067640",
      "assetIds": [
        "41506478881403507969696680653240014914910929820314476107906210059990541021184"
      ],
      "assetValues": [
        1
      ]
    },
    {
      "reservedAddress": "0xb4afde7a5e05f5c773ca097dce51cbc81e4057fb",
      "assetIds": [
        "41506478881403507969696680653240014914910929820314476107906210059990541021184"
      ],
      "assetValues": [
        1
      ]
    },
    {
      "reservedAddress": "0xb4f378fcb975abdf7b9fb000a23e84510ad574c4",
      "assetIds": [
        "41506478881403507969696680653240014914910929820314476107906210059990541021184"
      ],
      "assetValues": [
        1
      ]
    },
    {
      "reservedAddress": "0xb4f5cb9f45e339617298fcc4a97b8bf4c51653c0",
      "assetIds": [
        "41506478881403507969696680653240014914910929820314476107906210059990541021184"
      ],
      "assetValues": [
        1
      ]
    },
    {
      "reservedAddress": "0xb51896af65d2f310a5d162658a188c286207c503",
      "assetIds": [
        "41506478881403507969696680653240014914910929820314476107906210059990541021184"
      ],
      "assetValues": [
        1
      ]
    },
    {
      "reservedAddress": "0xb51ad292ea79f06e5c8ce7a45f01d4589476e318",
      "assetIds": [
        "41506478881403507969696680653240014914910929820314476107906210059990541021184"
      ],
      "assetValues": [
        1
      ]
    },
    {
      "reservedAddress": "0xb537458c6d08feeab04cadc38f6794457ca3a59b",
      "assetIds": [
        "41506478881403507969696680653240014914910929820314476107906210059990541021184"
      ],
      "assetValues": [
        1
      ]
    },
    {
      "reservedAddress": "0xb53892fa730211fcde92fd99c33dc16daef7179f",
      "assetIds": [
        "41506478881403507969696680653240014914910929820314476107906210059990541021184"
      ],
      "assetValues": [
        1
      ]
    },
    {
      "reservedAddress": "0xb54a6c54943fde887192c8dc077f8dae1de9b38f",
      "assetIds": [
        "41506478881403507969696680653240014914910929820314476107906210059990541021184"
      ],
      "assetValues": [
        1
      ]
    },
    {
      "reservedAddress": "0xb567f9fdcf40d0eb85f3d5c2cd4d8f14d25d2405",
      "assetIds": [
        "41506478881403507969696680653240014914910929820314476107906210059990541021184"
      ],
      "assetValues": [
        1
      ]
    },
    {
      "reservedAddress": "0xb56e2157aa2069924c66fbc3d989e465008ba760",
      "assetIds": [
        "41506478881403507969696680653240014914910929820314476107906210059990541021184"
      ],
      "assetValues": [
        1
      ]
    },
    {
      "reservedAddress": "0xb57439dbee6579cff8b99e1c80470611da198b7e",
      "assetIds": [
        "41506478881403507969696680653240014914910929820314476107906210059990541021184"
      ],
      "assetValues": [
        1
      ]
    },
    {
      "reservedAddress": "0xb5905dbe33bb3193ed25dbe86c9436981e7cf54c",
      "assetIds": [
        "41506478881403507969696680653240014914910929820314476107906210059990541021184"
      ],
      "assetValues": [
        1
      ]
    },
    {
      "reservedAddress": "0xb61f46f15bc42608b5905a4dc3e75755de9dbfe4",
      "assetIds": [
        "41506478881403507969696680653240014914910929820314476107906210059990541021184"
      ],
      "assetValues": [
        1
      ]
    },
    {
      "reservedAddress": "0xb687a0a94d2daeec6814b659c4fb3db3768ff2a1",
      "assetIds": [
        "41506478881403507969696680653240014914910929820314476107906210059990541021184"
      ],
      "assetValues": [
        1
      ]
    },
    {
      "reservedAddress": "0xb687d41c62674e0ca6fb6560cee24e20a3ed126f",
      "assetIds": [
        "41506478881403507969696680653240014914910929820314476107906210059990541021184"
      ],
      "assetValues": [
        1
      ]
    },
    {
      "reservedAddress": "0xb6a78170adf6e57dedf29313230d86dccf68d62a",
      "assetIds": [
        "41506478881403507969696680653240014914910929820314476107906210059990541021184"
      ],
      "assetValues": [
        1
      ]
    },
    {
      "reservedAddress": "0xb6cdac4b17569459266035335cde926a382e3c37",
      "assetIds": [
        "41506478881403507969696680653240014914910929820314476107906210059990541021184"
      ],
      "assetValues": [
        1
      ]
    },
    {
      "reservedAddress": "0xb6d820e80a2a7c49f94c9d6c8ea08dccedc9ce4c",
      "assetIds": [
        "41506478881403507969696680653240014914910929820314476107906210059990541021184"
      ],
      "assetValues": [
        1
      ]
    },
    {
      "reservedAddress": "0xb701d775ea6ecfa311717b668a8fb7706bef035e",
      "assetIds": [
        "41506478881403507969696680653240014914910929820314476107906210059990541021184"
      ],
      "assetValues": [
        1
      ]
    },
    {
      "reservedAddress": "0xb7098d58cb727ba24f18d6de2c40372e978e29d8",
      "assetIds": [
        "41506478881403507969696680653240014914910929820314476107906210059990541021184"
      ],
      "assetValues": [
        1
      ]
    },
    {
      "reservedAddress": "0xb7324214728c4c35b27d08ecd03fcbf5bf52ab45",
      "assetIds": [
        "41506478881403507969696680653240014914910929820314476107906210059990541021184"
      ],
      "assetValues": [
        1
      ]
    },
    {
      "reservedAddress": "0xb738e8f31e8ca6e074e216d860169be44930286d",
      "assetIds": [
        "41506478881403507969696680653240014914910929820314476107906210059990541021184"
      ],
      "assetValues": [
        1
      ]
    },
    {
      "reservedAddress": "0xb75939a810c36f5ff624fe503202e2f7667e340b",
      "assetIds": [
        "41506478881403507969696680653240014914910929820314476107906210059990541021184"
      ],
      "assetValues": [
        1
      ]
    },
    {
      "reservedAddress": "0xb77567dc47dbbf2f30e4d0747baa20935c1f0197",
      "assetIds": [
        "41506478881403507969696680653240014914910929820314476107906210059990541021184"
      ],
      "assetValues": [
        1
      ]
    },
    {
      "reservedAddress": "0xb793795536a5f4015eb3657a1a3d0009c8811289",
      "assetIds": [
        "41506478881403507969696680653240014914910929820314476107906210059990541021184"
      ],
      "assetValues": [
        1
      ]
    },
    {
      "reservedAddress": "0xb7a7e2ad1cb93e4db4903909a294aab9afa79c04",
      "assetIds": [
        "41506478881403507969696680653240014914910929820314476107906210059990541021184"
      ],
      "assetValues": [
        1
      ]
    },
    {
      "reservedAddress": "0xb804cb279f84292df5e8d78a6b2ff315ad3e8b3c",
      "assetIds": [
        "41506478881403507969696680653240014914910929820314476107906210059990541021184"
      ],
      "assetValues": [
        1
      ]
    },
    {
      "reservedAddress": "0xb83ae0426d0984a121c45398048ab70afd28a9bc",
      "assetIds": [
        "41506478881403507969696680653240014914910929820314476107906210059990541021184"
      ],
      "assetValues": [
        1
      ]
    },
    {
      "reservedAddress": "0xb83f50143aa26324fd4fb84fc51dc82fcf81f164",
      "assetIds": [
        "41506478881403507969696680653240014914910929820314476107906210059990541021184"
      ],
      "assetValues": [
        1
      ]
    },
    {
      "reservedAddress": "0xb853e5b087cf056213676702541d08afd152b679",
      "assetIds": [
        "41506478881403507969696680653240014914910929820314476107906210059990541021184"
      ],
      "assetValues": [
        1
      ]
    },
    {
      "reservedAddress": "0xb85bed017112c7ff677c4e5cb4c8d77060bd8087",
      "assetIds": [
        "41506478881403507969696680653240014914910929820314476107906210059990541021184"
      ],
      "assetValues": [
        1
      ]
    },
    {
      "reservedAddress": "0xb88055edb5c215ce0d572586ce53e051d5817a77",
      "assetIds": [
        "41506478881403507969696680653240014914910929820314476107906210059990541021184"
      ],
      "assetValues": [
        1
      ]
    },
    {
      "reservedAddress": "0xb8adcc8e382a7c43bdfa2e1c47059a1afec10e06",
      "assetIds": [
        "41506478881403507969696680653240014914910929820314476107906210059990541021184"
      ],
      "assetValues": [
        1
      ]
    },
    {
      "reservedAddress": "0xb8f3633b6de622201d3e139a04501c76304c1717",
      "assetIds": [
        "41506478881403507969696680653240014914910929820314476107906210059990541021184"
      ],
      "assetValues": [
        1
      ]
    },
    {
      "reservedAddress": "0xb92c1c620f999db581057631c2f8e43c80d01c50",
      "assetIds": [
        "41506478881403507969696680653240014914910929820314476107906210059990541021184"
      ],
      "assetValues": [
        1
      ]
    },
    {
      "reservedAddress": "0xb93990b7d7c8c70c5c58f9da53f22fe27a6b2429",
      "assetIds": [
        "41506478881403507969696680653240014914910929820314476107906210059990541021184"
      ],
      "assetValues": [
        1
      ]
    },
    {
      "reservedAddress": "0xb9433fd97274c124fff197f78e1c8b0299b3dd9f",
      "assetIds": [
        "41506478881403507969696680653240014914910929820314476107906210059990541021184"
      ],
      "assetValues": [
        1
      ]
    },
    {
      "reservedAddress": "0xb95ca2a7b04915a2e7c52506469f86b058d5f5b6",
      "assetIds": [
        "41506478881403507969696680653240014914910929820314476107906210059990541021184"
      ],
      "assetValues": [
        1
      ]
    },
    {
      "reservedAddress": "0xb972749f6f8b5b7e25f39dd1482de572f94cc3eb",
      "assetIds": [
        "41506478881403507969696680653240014914910929820314476107906210059990541021184"
      ],
      "assetValues": [
        1
      ]
    },
    {
      "reservedAddress": "0xb99f589b02c6767d05a082da86b1eedecbe19368",
      "assetIds": [
        "41506478881403507969696680653240014914910929820314476107906210059990541021184"
      ],
      "assetValues": [
        1
      ]
    },
    {
      "reservedAddress": "0xb9b523164fc210ecaf9ee2b8a7e7c4fe9d32ef08",
      "assetIds": [
        "41506478881403507969696680653240014914910929820314476107906210059990541021184"
      ],
      "assetValues": [
        1
      ]
    },
    {
      "reservedAddress": "0xb9b9784ceb43a7f36c7a75e6cec08a4710ad0514",
      "assetIds": [
        "41506478881403507969696680653240014914910929820314476107906210059990541021184"
      ],
      "assetValues": [
        1
      ]
    },
    {
      "reservedAddress": "0xb9c37ed113879e85c83d5338ff40f5009b2ec271",
      "assetIds": [
        "41506478881403507969696680653240014914910929820314476107906210059990541021184"
      ],
      "assetValues": [
        1
      ]
    },
    {
      "reservedAddress": "0xb9d644d35d66409608da455682326e918091b00e",
      "assetIds": [
        "41506478881403507969696680653240014914910929820314476107906210059990541021184"
      ],
      "assetValues": [
        1
      ]
    },
    {
      "reservedAddress": "0xb9dbf1d4eb5bfd12c21fa1b5b7ab5962220843ce",
      "assetIds": [
        "41506478881403507969696680653240014914910929820314476107906210059990541021184"
      ],
      "assetValues": [
        1
      ]
    },
    {
      "reservedAddress": "0xba0fb1f086b371c2b04a98964c5ddc2154309d95",
      "assetIds": [
        "41506478881403507969696680653240014914910929820314476107906210059990541021184"
      ],
      "assetValues": [
        1
      ]
    },
    {
      "reservedAddress": "0xba178ae12daa78de6592847cf8bb26508ae5d5db",
      "assetIds": [
        "41506478881403507969696680653240014914910929820314476107906210059990541021184"
      ],
      "assetValues": [
        1
      ]
    },
    {
      "reservedAddress": "0xba3343836752bb09626c32f9c78f543a1be046ce",
      "assetIds": [
        "41506478881403507969696680653240014914910929820314476107906210059990541021184"
      ],
      "assetValues": [
        1
      ]
    },
    {
      "reservedAddress": "0xba334436d2b9503d6f6b89ff9c015637436ed6d8",
      "assetIds": [
        "41506478881403507969696680653240014914910929820314476107906210059990541021184"
      ],
      "assetValues": [
        1
      ]
    },
    {
      "reservedAddress": "0xba3c494f3b3937d1c8101ffbe1588023ad5ea0a2",
      "assetIds": [
        "41506478881403507969696680653240014914910929820314476107906210059990541021184"
      ],
      "assetValues": [
        1
      ]
    },
    {
      "reservedAddress": "0xba4a15a05318fad8c9025c56b08dc8c0a9348b92",
      "assetIds": [
        "41506478881403507969696680653240014914910929820314476107906210059990541021184"
      ],
      "assetValues": [
        1
      ]
    },
    {
      "reservedAddress": "0xba5ebecb14e6b951bac87996f737c80812819214",
      "assetIds": [
        "41506478881403507969696680653240014914910929820314476107906210059990541021184"
      ],
      "assetValues": [
        1
      ]
    },
    {
      "reservedAddress": "0xba80294bc79a4b7ede63f3e8b985d2d952d1de99",
      "assetIds": [
        "41506478881403507969696680653240014914910929820314476107906210059990541021184"
      ],
      "assetValues": [
        1
      ]
    },
    {
      "reservedAddress": "0xba9c4c3c61d7e51463fb45fb9c915ca7f938896d",
      "assetIds": [
        "41506478881403507969696680653240014914910929820314476107906210059990541021184"
      ],
      "assetValues": [
        1
      ]
    },
    {
      "reservedAddress": "0xbaa714f95d454c305a0687356d555eac76bd6918",
      "assetIds": [
        "41506478881403507969696680653240014914910929820314476107906210059990541021184"
      ],
      "assetValues": [
        1
      ]
    },
    {
      "reservedAddress": "0xbaa84e6a9e66fa0846931c6bf79e8c2763b50b9d",
      "assetIds": [
        "41506478881403507969696680653240014914910929820314476107906210059990541021184"
      ],
      "assetValues": [
        1
      ]
    },
    {
      "reservedAddress": "0xbac32aa9dbd1020ee2d088d716a1d9c2d20be098",
      "assetIds": [
        "41506478881403507969696680653240014914910929820314476107906210059990541021184"
      ],
      "assetValues": [
        1
      ]
    },
    {
      "reservedAddress": "0xbaffc54777da9ed1208470395114df04407ad032",
      "assetIds": [
        "41506478881403507969696680653240014914910929820314476107906210059990541021184"
      ],
      "assetValues": [
        1
      ]
    },
    {
      "reservedAddress": "0xbb1f0a13c78291712c9c91aedaec35a7d0859a94",
      "assetIds": [
        "41506478881403507969696680653240014914910929820314476107906210059990541021184"
      ],
      "assetValues": [
        1
      ]
    },
    {
      "reservedAddress": "0xbb2c3b9702be77e19b997dd3dc9f4e1f99a33904",
      "assetIds": [
        "41506478881403507969696680653240014914910929820314476107906210059990541021184"
      ],
      "assetValues": [
        1
      ]
    },
    {
      "reservedAddress": "0xbb403d793dda52f8512950953771b7c341086120",
      "assetIds": [
        "41506478881403507969696680653240014914910929820314476107906210059990541021184"
      ],
      "assetValues": [
        1
      ]
    },
    {
      "reservedAddress": "0xbb5e9f954fb0b190225f1b0f9f946d78ff0fa0e6",
      "assetIds": [
        "41506478881403507969696680653240014914910929820314476107906210059990541021184"
      ],
      "assetValues": [
        1
      ]
    },
    {
      "reservedAddress": "0xbc3312d7635c7e3eddc894e8dcc647ccd70928fb",
      "assetIds": [
        "41506478881403507969696680653240014914910929820314476107906210059990541021184"
      ],
      "assetValues": [
        1
      ]
    },
    {
      "reservedAddress": "0xbc34cb7c23cf90508464d37eac241613e4487edf",
      "assetIds": [
        "41506478881403507969696680653240014914910929820314476107906210059990541021184"
      ],
      "assetValues": [
        1
      ]
    },
    {
      "reservedAddress": "0xbc83aa00bc21d50bf186322cd67f40df13e213b4",
      "assetIds": [
        "41506478881403507969696680653240014914910929820314476107906210059990541021184"
      ],
      "assetValues": [
        1
      ]
    },
    {
      "reservedAddress": "0xbc9947c8b019f57014f6b9cebe8571d7ace1d2ca",
      "assetIds": [
        "41506478881403507969696680653240014914910929820314476107906210059990541021184"
      ],
      "assetValues": [
        1
      ]
    },
    {
      "reservedAddress": "0xbcdb2b89e3e5ab5bdae85f41da91f1778807702c",
      "assetIds": [
        "41506478881403507969696680653240014914910929820314476107906210059990541021184"
      ],
      "assetValues": [
        1
      ]
    },
    {
      "reservedAddress": "0xbd0ded378dbb29f84f561c7be642bbaa3bfa43e8",
      "assetIds": [
        "41506478881403507969696680653240014914910929820314476107906210059990541021184"
      ],
      "assetValues": [
        1
      ]
    },
    {
      "reservedAddress": "0xbd12aa424c207e90b66402c1f0aec357e8b1ded7",
      "assetIds": [
        "41506478881403507969696680653240014914910929820314476107906210059990541021184"
      ],
      "assetValues": [
        1
      ]
    },
    {
      "reservedAddress": "0xbd1505235d53f0c7569bc337dd828ee2c7242888",
      "assetIds": [
        "41506478881403507969696680653240014914910929820314476107906210059990541021184"
      ],
      "assetValues": [
        1
      ]
    },
    {
      "reservedAddress": "0xbd261bda33b5812bbc5e330974d4a6b6f587ce66",
      "assetIds": [
        "41506478881403507969696680653240014914910929820314476107906210059990541021184"
      ],
      "assetValues": [
        1
      ]
    },
    {
      "reservedAddress": "0xbd366befd23af4102caba7e11100df3a0c645346",
      "assetIds": [
        "41506478881403507969696680653240014914910929820314476107906210059990541021184"
      ],
      "assetValues": [
        1
      ]
    },
    {
      "reservedAddress": "0xbd7007c9a458f4afd372bd3d8b71e65a16e52cc4",
      "assetIds": [
        "41506478881403507969696680653240014914910929820314476107906210059990541021184"
      ],
      "assetValues": [
        1
      ]
    },
    {
      "reservedAddress": "0xbd87efbd4b883a969b646045dd9a3661468ecc23",
      "assetIds": [
        "41506478881403507969696680653240014914910929820314476107906210059990541021184"
      ],
      "assetValues": [
        1
      ]
    },
    {
      "reservedAddress": "0xbd9cf606a81da379d1ad3874363746f73295915a",
      "assetIds": [
        "41506478881403507969696680653240014914910929820314476107906210059990541021184"
      ],
      "assetValues": [
        1
      ]
    },
    {
      "reservedAddress": "0xbddf0f6f1641f658fc86a23f961336109a5cd8e1",
      "assetIds": [
        "41506478881403507969696680653240014914910929820314476107906210059990541021184"
      ],
      "assetValues": [
        1
      ]
    },
    {
      "reservedAddress": "0xbe19684737a928e02b0b047203fbdbb97e1e59ab",
      "assetIds": [
        "41506478881403507969696680653240014914910929820314476107906210059990541021184"
      ],
      "assetValues": [
        1
      ]
    },
    {
      "reservedAddress": "0xbeb8d430973061f5b77a9905f73e7b0a6a67cd3a",
      "assetIds": [
        "41506478881403507969696680653240014914910929820314476107906210059990541021184"
      ],
      "assetValues": [
        1
      ]
    },
    {
      "reservedAddress": "0xbec2beacae5e0268d9594397e7bdec7695c9ebbe",
      "assetIds": [
        "41506478881403507969696680653240014914910929820314476107906210059990541021184"
      ],
      "assetValues": [
        1
      ]
    },
    {
      "reservedAddress": "0xbec90ab401ca69984ddffccaca83e790ea75c0aa",
      "assetIds": [
        "41506478881403507969696680653240014914910929820314476107906210059990541021184"
      ],
      "assetValues": [
        1
      ]
    },
    {
      "reservedAddress": "0xbf6a58e39238e38c726879ea8f2da2657da4e62d",
      "assetIds": [
        "41506478881403507969696680653240014914910929820314476107906210059990541021184"
      ],
      "assetValues": [
        1
      ]
    },
    {
      "reservedAddress": "0xbf7f78ba86f0d93826cfce01ba4042fa3e599316",
      "assetIds": [
        "41506478881403507969696680653240014914910929820314476107906210059990541021184"
      ],
      "assetValues": [
        1
      ]
    },
    {
      "reservedAddress": "0xbfb0914f92c40e90459d7ac5a808a3de2e70fefb",
      "assetIds": [
        "41506478881403507969696680653240014914910929820314476107906210059990541021184"
      ],
      "assetValues": [
        1
      ]
    },
    {
      "reservedAddress": "0xbfb72dfad2f698d13281073110b0254b3bedd202",
      "assetIds": [
        "41506478881403507969696680653240014914910929820314476107906210059990541021184"
      ],
      "assetValues": [
        1
      ]
    },
    {
      "reservedAddress": "0xbfd96ca7fb73b17be602e526ae9d5c6567feaa1e",
      "assetIds": [
        "41506478881403507969696680653240014914910929820314476107906210059990541021184"
      ],
      "assetValues": [
        1
      ]
    },
    {
      "reservedAddress": "0xbfe21edf68208d803397dec808064436e150a775",
      "assetIds": [
        "41506478881403507969696680653240014914910929820314476107906210059990541021184"
      ],
      "assetValues": [
        1
      ]
    },
    {
      "reservedAddress": "0xc0191f4da181273bdb54695a3df6e8195886f5ba",
      "assetIds": [
        "41506478881403507969696680653240014914910929820314476107906210059990541021184"
      ],
      "assetValues": [
        1
      ]
    },
    {
      "reservedAddress": "0xc025e024e3cca1edc05bb026addde90033755dfa",
      "assetIds": [
        "41506478881403507969696680653240014914910929820314476107906210059990541021184"
      ],
      "assetValues": [
        1
      ]
    },
    {
      "reservedAddress": "0xc03b7a303ff86ccdefe7a880568545d95925b230",
      "assetIds": [
        "41506478881403507969696680653240014914910929820314476107906210059990541021184"
      ],
      "assetValues": [
        1
      ]
    },
    {
      "reservedAddress": "0xc07f41f77e118356c79a90bf42e66a7223bd4e22",
      "assetIds": [
        "41506478881403507969696680653240014914910929820314476107906210059990541021184"
      ],
      "assetValues": [
        1
      ]
    },
    {
      "reservedAddress": "0xc080e234dba2545e93872ce6e96e683a4e29046b",
      "assetIds": [
        "41506478881403507969696680653240014914910929820314476107906210059990541021184"
      ],
      "assetValues": [
        1
      ]
    },
    {
      "reservedAddress": "0xc09647742d1052820756ef9bb749cbbdc139a7c8",
      "assetIds": [
        "41506478881403507969696680653240014914910929820314476107906210059990541021184"
      ],
      "assetValues": [
        1
      ]
    },
    {
      "reservedAddress": "0xc0a5254e904cb62ee95bc4986a53f92c6c70a358",
      "assetIds": [
        "41506478881403507969696680653240014914910929820314476107906210059990541021184"
      ],
      "assetValues": [
        1
      ]
    },
    {
      "reservedAddress": "0xc0ac52b4219000f8ae283164f8ec3b7f2d7adb25",
      "assetIds": [
        "41506478881403507969696680653240014914910929820314476107906210059990541021184"
      ],
      "assetValues": [
        1
      ]
    },
    {
      "reservedAddress": "0xc0eb311c2f846bd359ed8eaa9a766d5e4736846a",
      "assetIds": [
        "41506478881403507969696680653240014914910929820314476107906210059990541021184"
      ],
      "assetValues": [
        1
      ]
    },
    {
      "reservedAddress": "0xc0f030eac8b588817f8da16b9a2cdccc6451b25c",
      "assetIds": [
        "41506478881403507969696680653240014914910929820314476107906210059990541021184"
      ],
      "assetValues": [
        1
      ]
    },
    {
      "reservedAddress": "0xc11da6e5b4df2726fdc31fd215aab41eaf5a3d2f",
      "assetIds": [
        "41506478881403507969696680653240014914910929820314476107906210059990541021184"
      ],
      "assetValues": [
        1
      ]
    },
    {
      "reservedAddress": "0xc13133ffa01efc7af48f5783bf15dd469de849f2",
      "assetIds": [
        "41506478881403507969696680653240014914910929820314476107906210059990541021184"
      ],
      "assetValues": [
        1
      ]
    },
    {
      "reservedAddress": "0xc16ba571325eb80c636ac49103a87725f1030682",
      "assetIds": [
        "41506478881403507969696680653240014914910929820314476107906210059990541021184"
      ],
      "assetValues": [
        1
      ]
    },
    {
      "reservedAddress": "0xc16e1bbaa414e4517a8dabf45209f9fbfb7eb904",
      "assetIds": [
        "41506478881403507969696680653240014914910929820314476107906210059990541021184"
      ],
      "assetValues": [
        1
      ]
    },
    {
      "reservedAddress": "0xc170d7be3aea20b301306e8786faad5109b13537",
      "assetIds": [
        "41506478881403507969696680653240014914910929820314476107906210059990541021184"
      ],
      "assetValues": [
        1
      ]
    },
    {
      "reservedAddress": "0xc19832bfe80f18be65e39e18ebe525ab0389764d",
      "assetIds": [
        "41506478881403507969696680653240014914910929820314476107906210059990541021184"
      ],
      "assetValues": [
        1
      ]
    },
    {
      "reservedAddress": "0xc1983926cab280597c4106cad0470ab121e3af7f",
      "assetIds": [
        "41506478881403507969696680653240014914910929820314476107906210059990541021184"
      ],
      "assetValues": [
        1
      ]
    },
    {
      "reservedAddress": "0xc1b4fc3bdd8acf8f2156f8697cf76f343d0bb577",
      "assetIds": [
        "41506478881403507969696680653240014914910929820314476107906210059990541021184"
      ],
      "assetValues": [
        1
      ]
    },
    {
      "reservedAddress": "0xc1b88ae15df4cb781e25fef2dac25c9a9f38adfc",
      "assetIds": [
        "41506478881403507969696680653240014914910929820314476107906210059990541021184"
      ],
      "assetValues": [
        1
      ]
    },
    {
      "reservedAddress": "0xc1c0e9750fab87ac871ea40d005063f3750fe143",
      "assetIds": [
        "41506478881403507969696680653240014914910929820314476107906210059990541021184"
      ],
      "assetValues": [
        1
      ]
    },
    {
      "reservedAddress": "0xc1d1270445efaccba469f133ddc5070480473e29",
      "assetIds": [
        "41506478881403507969696680653240014914910929820314476107906210059990541021184"
      ],
      "assetValues": [
        1
      ]
    },
    {
      "reservedAddress": "0xc1d349468d717d55c210bcd789f2c56f916b9e9f",
      "assetIds": [
        "41506478881403507969696680653240014914910929820314476107906210059990541021184"
      ],
      "assetValues": [
        1
      ]
    },
    {
      "reservedAddress": "0xc20122e283e1ffeb56ff6d77e739637d5eb03193",
      "assetIds": [
        "41506478881403507969696680653240014914910929820314476107906210059990541021184"
      ],
      "assetValues": [
        1
      ]
    },
    {
      "reservedAddress": "0xc241b508cce35513edea224f9c840b3bd3c60026",
      "assetIds": [
        "41506478881403507969696680653240014914910929820314476107906210059990541021184"
      ],
      "assetValues": [
        1
      ]
    },
    {
      "reservedAddress": "0xc2a12b62451110e44848dc3314711abd737d71f5",
      "assetIds": [
        "41506478881403507969696680653240014914910929820314476107906210059990541021184"
      ],
      "assetValues": [
        1
      ]
    },
    {
      "reservedAddress": "0xc2d98e3b33c7e869b2a7bece2aea82351b97a911",
      "assetIds": [
        "41506478881403507969696680653240014914910929820314476107906210059990541021184"
      ],
      "assetValues": [
        1
      ]
    },
    {
      "reservedAddress": "0xc2f82a1f287b5b5aebff7c19e83e0a16cf3bd041",
      "assetIds": [
        "41506478881403507969696680653240014914910929820314476107906210059990541021184"
      ],
      "assetValues": [
        1
      ]
    },
    {
      "reservedAddress": "0xc317d98f19f565b3832405021f13f5bf8f2af713",
      "assetIds": [
        "41506478881403507969696680653240014914910929820314476107906210059990541021184"
      ],
      "assetValues": [
        1
      ]
    },
    {
      "reservedAddress": "0xc32a5472d8dc1dbea700826ab4b967744565c562",
      "assetIds": [
        "41506478881403507969696680653240014914910929820314476107906210059990541021184"
      ],
      "assetValues": [
        1
      ]
    },
    {
      "reservedAddress": "0xc35cfe8d50e63b48fc624ff91a668c18ef9277a5",
      "assetIds": [
        "41506478881403507969696680653240014914910929820314476107906210059990541021184"
      ],
      "assetValues": [
        1
      ]
    },
    {
      "reservedAddress": "0xc37f067ba622db1685fd7ee8752e58438cf09b93",
      "assetIds": [
        "41506478881403507969696680653240014914910929820314476107906210059990541021184"
      ],
      "assetValues": [
        1
      ]
    },
    {
      "reservedAddress": "0xc38594407dbe2813e5f9bdd5afb36dc2c43b1e60",
      "assetIds": [
        "41506478881403507969696680653240014914910929820314476107906210059990541021184"
      ],
      "assetValues": [
        1
      ]
    },
    {
      "reservedAddress": "0xc3a6e2b72ee8478a85593bfe86fcd612855beae2",
      "assetIds": [
        "41506478881403507969696680653240014914910929820314476107906210059990541021184"
      ],
      "assetValues": [
        1
      ]
    },
    {
      "reservedAddress": "0xc3a736f23a2c2c8f230e099770e6854374e02a9d",
      "assetIds": [
        "41506478881403507969696680653240014914910929820314476107906210059990541021184"
      ],
      "assetValues": [
        1
      ]
    },
    {
      "reservedAddress": "0xc3bf5e6585542fb0ddcb64defa9c6d9b9e3c925d",
      "assetIds": [
        "41506478881403507969696680653240014914910929820314476107906210059990541021184"
      ],
      "assetValues": [
        1
      ]
    },
    {
      "reservedAddress": "0xc3d9a838119b8ec35aa6c7af95021ae59a39d3e6",
      "assetIds": [
        "41506478881403507969696680653240014914910929820314476107906210059990541021184"
      ],
      "assetValues": [
        1
      ]
    },
    {
      "reservedAddress": "0xc3e82a7aa9a83d3ccbe1206e3329d262c0a78fdf",
      "assetIds": [
        "41506478881403507969696680653240014914910929820314476107906210059990541021184"
      ],
      "assetValues": [
        1
      ]
    },
    {
      "reservedAddress": "0xc408f9c63e800e67cd7f0e8abe60bb8624f722ea",
      "assetIds": [
        "41506478881403507969696680653240014914910929820314476107906210059990541021184"
      ],
      "assetValues": [
        1
      ]
    },
    {
      "reservedAddress": "0xc41c908a75cb3de282beb01c213eeb680fd98d96",
      "assetIds": [
        "41506478881403507969696680653240014914910929820314476107906210059990541021184"
      ],
      "assetValues": [
        1
      ]
    },
    {
      "reservedAddress": "0xc42008f4aadc0b487f214d738fcdcea1d0488e9d",
      "assetIds": [
        "41506478881403507969696680653240014914910929820314476107906210059990541021184"
      ],
      "assetValues": [
        1
      ]
    },
    {
      "reservedAddress": "0xc427aec17f6637e4c7cfcf22ae3dc6812a23c4bb",
      "assetIds": [
        "41506478881403507969696680653240014914910929820314476107906210059990541021184"
      ],
      "assetValues": [
        1
      ]
    },
    {
      "reservedAddress": "0xc432702a5b8ae22eccbd55f68f81545526a567d1",
      "assetIds": [
        "41506478881403507969696680653240014914910929820314476107906210059990541021184"
      ],
      "assetValues": [
        1
      ]
    },
    {
      "reservedAddress": "0xc43ea5617a6b38b7560edfb0474031a661d86bec",
      "assetIds": [
        "41506478881403507969696680653240014914910929820314476107906210059990541021184"
      ],
      "assetValues": [
        1
      ]
    },
    {
      "reservedAddress": "0xc43feca6ac10dbd7c04b4c973a298f9227750902",
      "assetIds": [
        "41506478881403507969696680653240014914910929820314476107906210059990541021184"
      ],
      "assetValues": [
        1
      ]
    },
    {
      "reservedAddress": "0xc44505d1111ec42279aede122a77cba17359438d",
      "assetIds": [
        "41506478881403507969696680653240014914910929820314476107906210059990541021184"
      ],
      "assetValues": [
        1
      ]
    },
    {
      "reservedAddress": "0xc44f621fd412714606c793d96dd31ee9275adbc4",
      "assetIds": [
        "41506478881403507969696680653240014914910929820314476107906210059990541021184"
      ],
      "assetValues": [
        1
      ]
    },
    {
      "reservedAddress": "0xc457b444df314e9b41d9c69c9fd5da977f0f0a41",
      "assetIds": [
        "41506478881403507969696680653240014914910929820314476107906210059990541021184"
      ],
      "assetValues": [
        1
      ]
    },
    {
      "reservedAddress": "0xc45d74b2f184796e49ef98a711da8964685f4880",
      "assetIds": [
        "41506478881403507969696680653240014914910929820314476107906210059990541021184"
      ],
      "assetValues": [
        1
      ]
    },
    {
      "reservedAddress": "0xc46c0fc9ef1f93d406806790c45de67854d40f66",
      "assetIds": [
        "41506478881403507969696680653240014914910929820314476107906210059990541021184"
      ],
      "assetValues": [
        1
      ]
    },
    {
      "reservedAddress": "0xc479f8a5b88fb43d4c4695b842da17723456bd7e",
      "assetIds": [
        "41506478881403507969696680653240014914910929820314476107906210059990541021184"
      ],
      "assetValues": [
        1
      ]
    },
    {
      "reservedAddress": "0xc49078bd1c244b97a705991e55e4c7a8242a9958",
      "assetIds": [
        "41506478881403507969696680653240014914910929820314476107906210059990541021184"
      ],
      "assetValues": [
        1
      ]
    },
    {
      "reservedAddress": "0xc4a35eba4536bdbe06a74bd8358d67aa0415f3d4",
      "assetIds": [
        "41506478881403507969696680653240014914910929820314476107906210059990541021184"
      ],
      "assetValues": [
        1
      ]
    },
    {
      "reservedAddress": "0xc4d4569f4dcd02d8ca9f3409977b74f4880b5f6c",
      "assetIds": [
        "41506478881403507969696680653240014914910929820314476107906210059990541021184"
      ],
      "assetValues": [
        1
      ]
    },
    {
      "reservedAddress": "0xc4eab1eaacbf628f0f9aee4b7375bde18dd173c4",
      "assetIds": [
        "41506478881403507969696680653240014914910929820314476107906210059990541021184"
      ],
      "assetValues": [
        1
      ]
    },
    {
      "reservedAddress": "0xc56b9a738e13c9de325b3f01d3f2278a08959ee9",
      "assetIds": [
        "41506478881403507969696680653240014914910929820314476107906210059990541021184"
      ],
      "assetValues": [
        1
      ]
    },
    {
      "reservedAddress": "0xc56e357599de4418c3a33ad611130d2b2b36b19a",
      "assetIds": [
        "41506478881403507969696680653240014914910929820314476107906210059990541021184"
      ],
      "assetValues": [
        1
      ]
    },
    {
      "reservedAddress": "0xc5c5b53438a7fc9cddea4f0ded2d12fbf75b6c76",
      "assetIds": [
        "41506478881403507969696680653240014914910929820314476107906210059990541021184"
      ],
      "assetValues": [
        1
      ]
    },
    {
      "reservedAddress": "0xc6134cbc2202c84c94b21e37b5087d87f7282cad",
      "assetIds": [
        "41506478881403507969696680653240014914910929820314476107906210059990541021184"
      ],
      "assetValues": [
        1
      ]
    },
    {
      "reservedAddress": "0xc634a5c42ee06510bed062ad210f138a4a90bea8",
      "assetIds": [
        "41506478881403507969696680653240014914910929820314476107906210059990541021184"
      ],
      "assetValues": [
        1
      ]
    },
    {
      "reservedAddress": "0xc65b2311400b944063891ccca0629a08f098a633",
      "assetIds": [
        "41506478881403507969696680653240014914910929820314476107906210059990541021184"
      ],
      "assetValues": [
        1
      ]
    },
    {
      "reservedAddress": "0xc6729c943584fe18345b5551599a8fa3e14d432a",
      "assetIds": [
        "41506478881403507969696680653240014914910929820314476107906210059990541021184"
      ],
      "assetValues": [
        1
      ]
    },
    {
      "reservedAddress": "0xc6b2cfc8cf242be856de634921e12fd52f05b3e1",
      "assetIds": [
        "41506478881403507969696680653240014914910929820314476107906210059990541021184"
      ],
      "assetValues": [
        1
      ]
    },
    {
      "reservedAddress": "0xc6c9d802bc16d8746aafcac4781f9a8d442d585d",
      "assetIds": [
        "41506478881403507969696680653240014914910929820314476107906210059990541021184"
      ],
      "assetValues": [
        1
      ]
    },
    {
      "reservedAddress": "0xc6e4ad3ccdfc65687d2d60a454a8bddc1f4d6c06",
      "assetIds": [
        "41506478881403507969696680653240014914910929820314476107906210059990541021184"
      ],
      "assetValues": [
        1
      ]
    },
    {
      "reservedAddress": "0xc6f365f659ac9167d54e0bde7fe155f1bcb1c185",
      "assetIds": [
        "41506478881403507969696680653240014914910929820314476107906210059990541021184"
      ],
      "assetValues": [
        1
      ]
    },
    {
      "reservedAddress": "0xc71981cfc51dc814f8ec0a2db78e5ab29a3b5069",
      "assetIds": [
        "41506478881403507969696680653240014914910929820314476107906210059990541021184"
      ],
      "assetValues": [
        1
      ]
    },
    {
      "reservedAddress": "0xc7419c66ee0ab1b174b729630086c23250cb035e",
      "assetIds": [
        "41506478881403507969696680653240014914910929820314476107906210059990541021184"
      ],
      "assetValues": [
        1
      ]
    },
    {
      "reservedAddress": "0xc74bf69df448bcff22b655eb9fe2bcfb71e77286",
      "assetIds": [
        "41506478881403507969696680653240014914910929820314476107906210059990541021184"
      ],
      "assetValues": [
        1
      ]
    },
    {
      "reservedAddress": "0xc79550c4555a05012757fe8e3305813b528f0edd",
      "assetIds": [
        "41506478881403507969696680653240014914910929820314476107906210059990541021184"
      ],
      "assetValues": [
        1
      ]
    },
    {
      "reservedAddress": "0xc7e201191fd0c87584b30cb6e511a312ae536073",
      "assetIds": [
        "41506478881403507969696680653240014914910929820314476107906210059990541021184"
      ],
      "assetValues": [
        1
      ]
    },
    {
      "reservedAddress": "0xc7f17ec88e1cb1945a546723ecaf91c1aaa22096",
      "assetIds": [
        "41506478881403507969696680653240014914910929820314476107906210059990541021184"
      ],
      "assetValues": [
        1
      ]
    },
    {
      "reservedAddress": "0xc7f6de73163376642a1065eb720094816b4b8654",
      "assetIds": [
        "41506478881403507969696680653240014914910929820314476107906210059990541021184"
      ],
      "assetValues": [
        1
      ]
    },
    {
      "reservedAddress": "0xc887959e93ee09d2ed9302d481da66d2d09baa4e",
      "assetIds": [
        "41506478881403507969696680653240014914910929820314476107906210059990541021184"
      ],
      "assetValues": [
        1
      ]
    },
    {
      "reservedAddress": "0xc8cd3c812fa0123b8f3cf2c5a5a7c7d2c8e71bc4",
      "assetIds": [
        "41506478881403507969696680653240014914910929820314476107906210059990541021184"
      ],
      "assetValues": [
        1
      ]
    },
    {
      "reservedAddress": "0xc8f5cc344d6e3b37cea01ee33057028f298b0ebb",
      "assetIds": [
        "41506478881403507969696680653240014914910929820314476107906210059990541021184"
      ],
      "assetValues": [
        1
      ]
    },
    {
      "reservedAddress": "0xc91faf934708a5e3b3ff8ed212904c4efd2aaf57",
      "assetIds": [
        "41506478881403507969696680653240014914910929820314476107906210059990541021184"
      ],
      "assetValues": [
        1
      ]
    },
    {
      "reservedAddress": "0xc96b8c5cf992b1f891db0ebfadfd315f5a80be3e",
      "assetIds": [
        "41506478881403507969696680653240014914910929820314476107906210059990541021184"
      ],
      "assetValues": [
        1
      ]
    },
    {
      "reservedAddress": "0xc9913a5531c4bff21b27e80d7fbd6a2745ae0f65",
      "assetIds": [
        "41506478881403507969696680653240014914910929820314476107906210059990541021184"
      ],
      "assetValues": [
        1
      ]
    },
    {
      "reservedAddress": "0xc99e33a31dee9cbe8dcf9d2a31add126185af36e",
      "assetIds": [
        "41506478881403507969696680653240014914910929820314476107906210059990541021184"
      ],
      "assetValues": [
        1
      ]
    },
    {
      "reservedAddress": "0xc9c21a9f54ef2851a8dedb48b23e0f010ce1a82a",
      "assetIds": [
        "41506478881403507969696680653240014914910929820314476107906210059990541021184"
      ],
      "assetValues": [
        1
      ]
    },
    {
      "reservedAddress": "0xc9f084fbfc9afcc9f50883a2ab34be940f153d8e",
      "assetIds": [
        "41506478881403507969696680653240014914910929820314476107906210059990541021184"
      ],
      "assetValues": [
        1
      ]
    },
    {
      "reservedAddress": "0xca35dea1a8429078a0a0e482b39d13af4a5ea294",
      "assetIds": [
        "41506478881403507969696680653240014914910929820314476107906210059990541021184"
      ],
      "assetValues": [
        1
      ]
    },
    {
      "reservedAddress": "0xca39d8707fb59d6afa0a1c0e12c3182cf48bb6c3",
      "assetIds": [
        "41506478881403507969696680653240014914910929820314476107906210059990541021184"
      ],
      "assetValues": [
        1
      ]
    },
    {
      "reservedAddress": "0xca4a5ba3650b6eecb99e33f81659036c5f7794e7",
      "assetIds": [
        "41506478881403507969696680653240014914910929820314476107906210059990541021184"
      ],
      "assetValues": [
        1
      ]
    },
    {
      "reservedAddress": "0xca4cd9e8a266734601870a2991f3c73f88c47d45",
      "assetIds": [
        "41506478881403507969696680653240014914910929820314476107906210059990541021184"
      ],
      "assetValues": [
        1
      ]
    },
    {
      "reservedAddress": "0xca7170efbecb7a71813d5c58584c9fb4bd788fc0",
      "assetIds": [
        "41506478881403507969696680653240014914910929820314476107906210059990541021184"
      ],
      "assetValues": [
        1
      ]
    },
    {
      "reservedAddress": "0xca98ef2381fbd75ba80cacfcac6c9dd5710bc9ff",
      "assetIds": [
        "41506478881403507969696680653240014914910929820314476107906210059990541021184"
      ],
      "assetValues": [
        1
      ]
    },
    {
      "reservedAddress": "0xcac2d8e5680fab6fa3db0b9f1210d95b7b153ca1",
      "assetIds": [
        "41506478881403507969696680653240014914910929820314476107906210059990541021184"
      ],
      "assetValues": [
        1
      ]
    },
    {
      "reservedAddress": "0xcad8daf1e928ef0867374e8dd21b15df54f122ab",
      "assetIds": [
        "41506478881403507969696680653240014914910929820314476107906210059990541021184"
      ],
      "assetValues": [
        1
      ]
    },
    {
      "reservedAddress": "0xcae653ef2344b322a026fe186f8775308b29f868",
      "assetIds": [
        "41506478881403507969696680653240014914910929820314476107906210059990541021184"
      ],
      "assetValues": [
        1
      ]
    },
    {
      "reservedAddress": "0xcaee588bbf723acd91fef4b56fca99b0e1567c1d",
      "assetIds": [
        "41506478881403507969696680653240014914910929820314476107906210059990541021184"
      ],
      "assetValues": [
        1
      ]
    },
    {
      "reservedAddress": "0xcafcd62114cfc1d16298a1cfec409bca139c899b",
      "assetIds": [
        "41506478881403507969696680653240014914910929820314476107906210059990541021184"
      ],
      "assetValues": [
        1
      ]
    },
    {
      "reservedAddress": "0xcb03fec846675fadde405585138c563d0097da51",
      "assetIds": [
        "41506478881403507969696680653240014914910929820314476107906210059990541021184"
      ],
      "assetValues": [
        1
      ]
    },
    {
      "reservedAddress": "0xcb1cb03b99ece3dc5596c199656bfca1796cc1e6",
      "assetIds": [
        "41506478881403507969696680653240014914910929820314476107906210059990541021184"
      ],
      "assetValues": [
        1
      ]
    },
    {
      "reservedAddress": "0xcb3f56bb4a5fd1f17e13b5a305a0995250c07a45",
      "assetIds": [
        "41506478881403507969696680653240014914910929820314476107906210059990541021184"
      ],
      "assetValues": [
        1
      ]
    },
    {
      "reservedAddress": "0xcb7c57aaed2591f36e8d7d38fd1103446161ccd1",
      "assetIds": [
        "41506478881403507969696680653240014914910929820314476107906210059990541021184"
      ],
      "assetValues": [
        1
      ]
    },
    {
      "reservedAddress": "0xcb97a9e288e55a2f34ce86fe06f1e6c50b49c6c0",
      "assetIds": [
        "41506478881403507969696680653240014914910929820314476107906210059990541021184"
      ],
      "assetValues": [
        1
      ]
    },
    {
      "reservedAddress": "0xcbecc570be12177fee44edfcc849c68f3cb4bec2",
      "assetIds": [
        "41506478881403507969696680653240014914910929820314476107906210059990541021184"
      ],
      "assetValues": [
        1
      ]
    },
    {
      "reservedAddress": "0xcc1e0a566dbd10869c071c811aba436357858f05",
      "assetIds": [
        "41506478881403507969696680653240014914910929820314476107906210059990541021184"
      ],
      "assetValues": [
        1
      ]
    },
    {
      "reservedAddress": "0xcc844bbf3e5c0800ada73bc688fb1b4a2022e370",
      "assetIds": [
        "41506478881403507969696680653240014914910929820314476107906210059990541021184"
      ],
      "assetValues": [
        1
      ]
    },
    {
      "reservedAddress": "0xccab311d7b996322c74e29f61a131286974cd574",
      "assetIds": [
        "41506478881403507969696680653240014914910929820314476107906210059990541021184"
      ],
      "assetValues": [
        1
      ]
    },
    {
      "reservedAddress": "0xcce0a627557f2b9af402607e5342ba15ad5f0053",
      "assetIds": [
        "41506478881403507969696680653240014914910929820314476107906210059990541021184"
      ],
      "assetValues": [
        1
      ]
    },
    {
      "reservedAddress": "0xcd67550e87e89f65d1f0179a4305afbf6583b8bd",
      "assetIds": [
        "41506478881403507969696680653240014914910929820314476107906210059990541021184"
      ],
      "assetValues": [
        1
      ]
    },
    {
      "reservedAddress": "0xcd763667cd74543bd05c19386347441d3d3f6392",
      "assetIds": [
        "41506478881403507969696680653240014914910929820314476107906210059990541021184"
      ],
      "assetValues": [
        1
      ]
    },
    {
      "reservedAddress": "0xcd7868b784a7a6db12dd4f1c95f1e88bd6b986fc",
      "assetIds": [
        "41506478881403507969696680653240014914910929820314476107906210059990541021184"
      ],
      "assetValues": [
        1
      ]
    },
    {
      "reservedAddress": "0xcda16b83bff0a56d9437d476771702a31192b074",
      "assetIds": [
        "41506478881403507969696680653240014914910929820314476107906210059990541021184"
      ],
      "assetValues": [
        1
      ]
    },
    {
      "reservedAddress": "0xcda3305ee81252c97d37e9e585612a6bb5f32253",
      "assetIds": [
        "41506478881403507969696680653240014914910929820314476107906210059990541021184"
      ],
      "assetValues": [
        1
      ]
    },
    {
      "reservedAddress": "0xcdcd820280fefdb00ad859301ba32157db6cdb15",
      "assetIds": [
        "41506478881403507969696680653240014914910929820314476107906210059990541021184"
      ],
      "assetValues": [
        1
      ]
    },
    {
      "reservedAddress": "0xcddad4fdaa65e7ab74dda9e024f887a6765cafbb",
      "assetIds": [
        "41506478881403507969696680653240014914910929820314476107906210059990541021184"
      ],
      "assetValues": [
        1
      ]
    },
    {
      "reservedAddress": "0xce1369f98f52138a7b6f82b416ddad0318f7c91a",
      "assetIds": [
        "41506478881403507969696680653240014914910929820314476107906210059990541021184"
      ],
      "assetValues": [
        1
      ]
    },
    {
      "reservedAddress": "0xce17cb79ed3f9412440e0edc9f16fdb2ed98335f",
      "assetIds": [
        "41506478881403507969696680653240014914910929820314476107906210059990541021184"
      ],
      "assetValues": [
        1
      ]
    },
    {
      "reservedAddress": "0xce26f5db0b11590bc5d6fc0e736d35f82b654081",
      "assetIds": [
        "41506478881403507969696680653240014914910929820314476107906210059990541021184"
      ],
      "assetValues": [
        1
      ]
    },
    {
      "reservedAddress": "0xce64b057de6c232065b62d97b77bf423eb69ccb9",
      "assetIds": [
        "41506478881403507969696680653240014914910929820314476107906210059990541021184"
      ],
      "assetValues": [
        1
      ]
    },
    {
      "reservedAddress": "0xce6a52ee9f9b6eda89baded55e1d47895eea7649",
      "assetIds": [
        "41506478881403507969696680653240014914910929820314476107906210059990541021184"
      ],
      "assetValues": [
        1
      ]
    },
    {
      "reservedAddress": "0xce77cb4e9161004d6a77eddb7c1d218f3e4696d7",
      "assetIds": [
        "41506478881403507969696680653240014914910929820314476107906210059990541021184"
      ],
      "assetValues": [
        1
      ]
    },
    {
      "reservedAddress": "0xce93c7389b0331f58cc60a9b9c07e8904ab159b6",
      "assetIds": [
        "41506478881403507969696680653240014914910929820314476107906210059990541021184"
      ],
      "assetValues": [
        1
      ]
    },
    {
      "reservedAddress": "0xce9f8bf725e785f85354a52e3f7a6272cbe5c846",
      "assetIds": [
        "41506478881403507969696680653240014914910929820314476107906210059990541021184"
      ],
      "assetValues": [
        1
      ]
    },
    {
      "reservedAddress": "0xced29ba48490c51e4348e654c313ac97762beccc",
      "assetIds": [
        "41506478881403507969696680653240014914910929820314476107906210059990541021184"
      ],
      "assetValues": [
        1
      ]
    },
    {
      "reservedAddress": "0xcee873c0acb9f619b57733e9da0409ebd31abeea",
      "assetIds": [
        "41506478881403507969696680653240014914910929820314476107906210059990541021184"
      ],
      "assetValues": [
        1
      ]
    },
    {
      "reservedAddress": "0xcf0392412216b5bd66f160eddbbb27ff143ac815",
      "assetIds": [
        "41506478881403507969696680653240014914910929820314476107906210059990541021184"
      ],
      "assetValues": [
        1
      ]
    },
    {
      "reservedAddress": "0xcf126728987443bed0289d992963eb36a8b97634",
      "assetIds": [
        "41506478881403507969696680653240014914910929820314476107906210059990541021184"
      ],
      "assetValues": [
        1
      ]
    },
    {
      "reservedAddress": "0xcf2788c29bfb6ea77da3630f52bd089a44f939ae",
      "assetIds": [
        "41506478881403507969696680653240014914910929820314476107906210059990541021184"
      ],
      "assetValues": [
        1
      ]
    },
    {
      "reservedAddress": "0xcf4bc2966b3e172cc44a12a2b5357265f0e9a5c3",
      "assetIds": [
        "41506478881403507969696680653240014914910929820314476107906210059990541021184"
      ],
      "assetValues": [
        1
      ]
    },
    {
      "reservedAddress": "0xcf7f3dc88c6ff7583f9f53b767e9e738733c3c3a",
      "assetIds": [
        "41506478881403507969696680653240014914910929820314476107906210059990541021184"
      ],
      "assetValues": [
        1
      ]
    },
    {
      "reservedAddress": "0xcf81ddc75c1afa46eeed5f6dea31ff352c0d3d2f",
      "assetIds": [
        "41506478881403507969696680653240014914910929820314476107906210059990541021184"
      ],
      "assetValues": [
        1
      ]
    },
    {
      "reservedAddress": "0xcf8c670607138623afe74d3278a0042ac38bb733",
      "assetIds": [
        "41506478881403507969696680653240014914910929820314476107906210059990541021184"
      ],
      "assetValues": [
        1
      ]
    },
    {
      "reservedAddress": "0xcffad0e20f17eea7597f94d4ff4cabe6a745edb6",
      "assetIds": [
        "41506478881403507969696680653240014914910929820314476107906210059990541021184"
      ],
      "assetValues": [
        1
      ]
    },
    {
      "reservedAddress": "0xd00d1eec7502d8a5a85feeee561352068b929a98",
      "assetIds": [
        "41506478881403507969696680653240014914910929820314476107906210059990541021184"
      ],
      "assetValues": [
        1
      ]
    },
    {
      "reservedAddress": "0xd03a19a8069d8426a094cb9b4fd3d3efbc7dfe00",
      "assetIds": [
        "41506478881403507969696680653240014914910929820314476107906210059990541021184"
      ],
      "assetValues": [
        1
      ]
    },
    {
      "reservedAddress": "0xd056666321700092b032b2571431b2478cd6512e",
      "assetIds": [
        "41506478881403507969696680653240014914910929820314476107906210059990541021184"
      ],
      "assetValues": [
        1
      ]
    },
    {
      "reservedAddress": "0xd06a2f3e1d1044a6be69beccf0afc569f6dbbc81",
      "assetIds": [
        "41506478881403507969696680653240014914910929820314476107906210059990541021184"
      ],
      "assetValues": [
        1
      ]
    },
    {
      "reservedAddress": "0xd06cfde774f0099c43124d4c81542fd57f2edf86",
      "assetIds": [
        "41506478881403507969696680653240014914910929820314476107906210059990541021184"
      ],
      "assetValues": [
        1
      ]
    },
    {
      "reservedAddress": "0xd0842237b148b084a91a45f3549a407e5dc43b25",
      "assetIds": [
        "41506478881403507969696680653240014914910929820314476107906210059990541021184"
      ],
      "assetValues": [
        1
      ]
    },
    {
      "reservedAddress": "0xd0a71be52ee3f2f07aa5218c9c3658a50374d87c",
      "assetIds": [
        "41506478881403507969696680653240014914910929820314476107906210059990541021184"
      ],
      "assetValues": [
        1
      ]
    },
    {
      "reservedAddress": "0xd0acc1314f680599dc1a81c04f5b4f9cede43d9c",
      "assetIds": [
        "41506478881403507969696680653240014914910929820314476107906210059990541021184"
      ],
      "assetValues": [
        1
      ]
    },
    {
      "reservedAddress": "0xd136c1a2cf7b033093e449f72062b835254ab23e",
      "assetIds": [
        "41506478881403507969696680653240014914910929820314476107906210059990541021184"
      ],
      "assetValues": [
        1
      ]
    },
    {
      "reservedAddress": "0xd18e8a97d9cd76c6eec603c625fc4db947c858d4",
      "assetIds": [
        "41506478881403507969696680653240014914910929820314476107906210059990541021184"
      ],
      "assetValues": [
        1
      ]
    },
    {
      "reservedAddress": "0xd1a98115cb6eca88af2f6af6c64148ca88b4c6dc",
      "assetIds": [
        "41506478881403507969696680653240014914910929820314476107906210059990541021184"
      ],
      "assetValues": [
        1
      ]
    },
    {
      "reservedAddress": "0xd1c6eff58eaaf56bdd1a2a9e088205c6998d6280",
      "assetIds": [
        "41506478881403507969696680653240014914910929820314476107906210059990541021184"
      ],
      "assetValues": [
        1
      ]
    },
    {
      "reservedAddress": "0xd1cdda4cc78bfb40cc5a07a34e40fd1f16e711a7",
      "assetIds": [
        "41506478881403507969696680653240014914910929820314476107906210059990541021184"
      ],
      "assetValues": [
        1
      ]
    },
    {
      "reservedAddress": "0xd1fa5f0f8cd5122ecc622ccd4624a9358d05b0c8",
      "assetIds": [
        "41506478881403507969696680653240014914910929820314476107906210059990541021184"
      ],
      "assetValues": [
        1
      ]
    },
    {
      "reservedAddress": "0xd27fc8aee201ec6a35f3ae32c457d04c44965158",
      "assetIds": [
        "41506478881403507969696680653240014914910929820314476107906210059990541021184"
      ],
      "assetValues": [
        1
      ]
    },
    {
      "reservedAddress": "0xd2af803ad747ea12acf5ae468056703ae48785b5",
      "assetIds": [
        "41506478881403507969696680653240014914910929820314476107906210059990541021184"
      ],
      "assetValues": [
        1
      ]
    },
    {
      "reservedAddress": "0xd2b2523eba6f19243c01f83d704f0cb3dae21787",
      "assetIds": [
        "41506478881403507969696680653240014914910929820314476107906210059990541021184"
      ],
      "assetValues": [
        1
      ]
    },
    {
      "reservedAddress": "0xd30391e21741c54c32987bcfca3d880e6d261cb0",
      "assetIds": [
        "41506478881403507969696680653240014914910929820314476107906210059990541021184"
      ],
      "assetValues": [
        1
      ]
    },
    {
      "reservedAddress": "0xd3092810bfc5cc9393068840450c1dbcd42038ae",
      "assetIds": [
        "41506478881403507969696680653240014914910929820314476107906210059990541021184"
      ],
      "assetValues": [
        1
      ]
    },
    {
      "reservedAddress": "0xd335b6f80e90aa7b4a5e9798f4ec77853924aec8",
      "assetIds": [
        "41506478881403507969696680653240014914910929820314476107906210059990541021184"
      ],
      "assetValues": [
        1
      ]
    },
    {
      "reservedAddress": "0xd3aeac295a0d44c68e7f2e72577da4b105ac1284",
      "assetIds": [
        "41506478881403507969696680653240014914910929820314476107906210059990541021184"
      ],
      "assetValues": [
        1
      ]
    },
    {
      "reservedAddress": "0xd3aecf9e0856822bd320873e905ae9f78a2977e7",
      "assetIds": [
        "41506478881403507969696680653240014914910929820314476107906210059990541021184"
      ],
      "assetValues": [
        1
      ]
    },
    {
      "reservedAddress": "0xd3ceb8a818c4919b50715f2f5bcd46708809cbf8",
      "assetIds": [
        "41506478881403507969696680653240014914910929820314476107906210059990541021184"
      ],
      "assetValues": [
        1
      ]
    },
    {
      "reservedAddress": "0xd3d33d9088e7f8ec6cc7b7f8ac0abd7f48d08460",
      "assetIds": [
        "41506478881403507969696680653240014914910929820314476107906210059990541021184"
      ],
      "assetValues": [
        1
      ]
    },
    {
      "reservedAddress": "0xd3f245853efdfa3a829f6f51fd8ab7eca0010eca",
      "assetIds": [
        "41506478881403507969696680653240014914910929820314476107906210059990541021184"
      ],
      "assetValues": [
        1
      ]
    },
    {
      "reservedAddress": "0xd40210b326133c2b76b0bbe9483ee4fccc26c06f",
      "assetIds": [
        "41506478881403507969696680653240014914910929820314476107906210059990541021184"
      ],
      "assetValues": [
        1
      ]
    },
    {
      "reservedAddress": "0xd4206305bc1ecf165570256c029e246ccb73e630",
      "assetIds": [
        "41506478881403507969696680653240014914910929820314476107906210059990541021184"
      ],
      "assetValues": [
        1
      ]
    },
    {
      "reservedAddress": "0xd44697afeccc0cb2b018e905f7e6901f5be3f42e",
      "assetIds": [
        "41506478881403507969696680653240014914910929820314476107906210059990541021184"
      ],
      "assetValues": [
        1
      ]
    },
    {
      "reservedAddress": "0xd44fe5724dd7aa35c96d51861f4ca33069fac33a",
      "assetIds": [
        "41506478881403507969696680653240014914910929820314476107906210059990541021184"
      ],
      "assetValues": [
        1
      ]
    },
    {
      "reservedAddress": "0xd4b8e45a5b6cd1f0c23c05babe7c96bd9039c62c",
      "assetIds": [
        "41506478881403507969696680653240014914910929820314476107906210059990541021184"
      ],
      "assetValues": [
        1
      ]
    },
    {
      "reservedAddress": "0xd4e4b54d5a87ea83e7b19fbc43fc421af2c2d7c1",
      "assetIds": [
        "41506478881403507969696680653240014914910929820314476107906210059990541021184"
      ],
      "assetValues": [
        1
      ]
    },
    {
      "reservedAddress": "0xd514f2065fde42a02c73c913735e8e5a2fcc085e",
      "assetIds": [
        "41506478881403507969696680653240014914910929820314476107906210059990541021184"
      ],
      "assetValues": [
        1
      ]
    },
    {
      "reservedAddress": "0xd51ecc14d3a13b0daf1d8cfaf69f24ff2f771714",
      "assetIds": [
        "41506478881403507969696680653240014914910929820314476107906210059990541021184"
      ],
      "assetValues": [
        1
      ]
    },
    {
      "reservedAddress": "0xd5272d601966d295b28fd2a506e77b00d7edb45a",
      "assetIds": [
        "41506478881403507969696680653240014914910929820314476107906210059990541021184"
      ],
      "assetValues": [
        1
      ]
    },
    {
      "reservedAddress": "0xd538d73cdaf15e889444f3e7c3662b200af908fc",
      "assetIds": [
        "41506478881403507969696680653240014914910929820314476107906210059990541021184"
      ],
      "assetValues": [
        1
      ]
    },
    {
      "reservedAddress": "0xd569ef01db3497cacd8ff4e2a6b65b3e5e230aca",
      "assetIds": [
        "41506478881403507969696680653240014914910929820314476107906210059990541021184"
      ],
      "assetValues": [
        1
      ]
    },
    {
      "reservedAddress": "0xd577648dfae1875d5acbee15ef4cb8a58a843e13",
      "assetIds": [
        "41506478881403507969696680653240014914910929820314476107906210059990541021184"
      ],
      "assetValues": [
        1
      ]
    },
    {
      "reservedAddress": "0xd578db7653f343529058da130776aad7748db8b8",
      "assetIds": [
        "41506478881403507969696680653240014914910929820314476107906210059990541021184"
      ],
      "assetValues": [
        1
      ]
    },
    {
      "reservedAddress": "0xd58680f6971281ed5fdf0275b3f6cacd26159acc",
      "assetIds": [
        "41506478881403507969696680653240014914910929820314476107906210059990541021184"
      ],
      "assetValues": [
        1
      ]
    },
    {
      "reservedAddress": "0xd5972eb267792c21bb76728301a8b0eaa0a75b26",
      "assetIds": [
        "41506478881403507969696680653240014914910929820314476107906210059990541021184"
      ],
      "assetValues": [
        1
      ]
    },
    {
      "reservedAddress": "0xd59c88ab107d1e13b773aa63865382e5bbfb1fd4",
      "assetIds": [
        "41506478881403507969696680653240014914910929820314476107906210059990541021184"
      ],
      "assetValues": [
        1
      ]
    },
    {
      "reservedAddress": "0xd5c72465457ff7c8b5095b3bb72825e284f3ef85",
      "assetIds": [
        "41506478881403507969696680653240014914910929820314476107906210059990541021184"
      ],
      "assetValues": [
        1
      ]
    },
    {
      "reservedAddress": "0xd5f18b5ca41f77e60f2c68e2d99ddf1a4169c897",
      "assetIds": [
        "41506478881403507969696680653240014914910929820314476107906210059990541021184"
      ],
      "assetValues": [
        1
      ]
    },
    {
      "reservedAddress": "0xd5f997bbbbec8750e31f2851859ac75fd8272bc0",
      "assetIds": [
        "41506478881403507969696680653240014914910929820314476107906210059990541021184"
      ],
      "assetValues": [
        1
      ]
    },
    {
      "reservedAddress": "0xd6082ab49569000ae690411fd0c81fd4b493c11e",
      "assetIds": [
        "41506478881403507969696680653240014914910929820314476107906210059990541021184"
      ],
      "assetValues": [
        1
      ]
    },
    {
      "reservedAddress": "0xd64d37bdad19aa59d9c43ff4f756f19809bfd761",
      "assetIds": [
        "41506478881403507969696680653240014914910929820314476107906210059990541021184"
      ],
      "assetValues": [
        1
      ]
    },
    {
      "reservedAddress": "0xd66592aa2567e97318dfcabae6572348f998c127",
      "assetIds": [
        "41506478881403507969696680653240014914910929820314476107906210059990541021184"
      ],
      "assetValues": [
        1
      ]
    },
    {
      "reservedAddress": "0xd6702a81f2900ab539ae6e1006e2100f553906df",
      "assetIds": [
        "41506478881403507969696680653240014914910929820314476107906210059990541021184"
      ],
      "assetValues": [
        1
      ]
    },
    {
      "reservedAddress": "0xd67bc67c3a66a92d2c60ae9a5aa3ad9b08ab0662",
      "assetIds": [
        "41506478881403507969696680653240014914910929820314476107906210059990541021184"
      ],
      "assetValues": [
        1
      ]
    },
    {
      "reservedAddress": "0xd69ae924914b9d5e8a8105e5806fd2023f67a7db",
      "assetIds": [
        "41506478881403507969696680653240014914910929820314476107906210059990541021184"
      ],
      "assetValues": [
        1
      ]
    },
    {
      "reservedAddress": "0xd6a946e161acdfe6c3d904842e8ee6b4d6ac74dc",
      "assetIds": [
        "41506478881403507969696680653240014914910929820314476107906210059990541021184"
      ],
      "assetValues": [
        1
      ]
    },
    {
      "reservedAddress": "0xd795026c84af7bc133301fe42c18320dcb1ede07",
      "assetIds": [
        "41506478881403507969696680653240014914910929820314476107906210059990541021184"
      ],
      "assetValues": [
        1
      ]
    },
    {
      "reservedAddress": "0xd7ee758a2666ab81e8657f69e280531e562f99c0",
      "assetIds": [
        "41506478881403507969696680653240014914910929820314476107906210059990541021184"
      ],
      "assetValues": [
        1
      ]
    },
    {
      "reservedAddress": "0xd833e38cae3d7119d1979abcf30b86c0bc635b1c",
      "assetIds": [
        "41506478881403507969696680653240014914910929820314476107906210059990541021184"
      ],
      "assetValues": [
        1
      ]
    },
    {
      "reservedAddress": "0xd84aaf33892870d3f888202510fef38dd3cff262",
      "assetIds": [
        "41506478881403507969696680653240014914910929820314476107906210059990541021184"
      ],
      "assetValues": [
        1
      ]
    },
    {
      "reservedAddress": "0xd89f88ab81820ab109689fabf47d68c35b7888d2",
      "assetIds": [
        "41506478881403507969696680653240014914910929820314476107906210059990541021184"
      ],
      "assetValues": [
        1
      ]
    },
    {
      "reservedAddress": "0xd8a9304720bbfd75031841af4a9c3e253abca8b2",
      "assetIds": [
        "41506478881403507969696680653240014914910929820314476107906210059990541021184"
      ],
      "assetValues": [
        1
      ]
    },
    {
      "reservedAddress": "0xd8af255479a76ee221b2c5fcf95cf5ba019277e9",
      "assetIds": [
        "41506478881403507969696680653240014914910929820314476107906210059990541021184"
      ],
      "assetValues": [
        1
      ]
    },
    {
      "reservedAddress": "0xd8bef4ff3422a76042f0f07c5d6322f91501f2cc",
      "assetIds": [
        "41506478881403507969696680653240014914910929820314476107906210059990541021184"
      ],
      "assetValues": [
        1
      ]
    },
    {
      "reservedAddress": "0xd8d346362f804d5d508cdbaf097a68fea4c939e5",
      "assetIds": [
        "41506478881403507969696680653240014914910929820314476107906210059990541021184"
      ],
      "assetValues": [
        1
      ]
    },
    {
      "reservedAddress": "0xd8d4db2c2c882b61b1d2516d9fb55e3ef61a5998",
      "assetIds": [
        "41506478881403507969696680653240014914910929820314476107906210059990541021184"
      ],
      "assetValues": [
        1
      ]
    },
    {
      "reservedAddress": "0xd901da9d7ad72a366b626ead8652cf68171d3091",
      "assetIds": [
        "41506478881403507969696680653240014914910929820314476107906210059990541021184"
      ],
      "assetValues": [
        1
      ]
    },
    {
      "reservedAddress": "0xd92693c39d3231b96379b636c3bbc9bb73969343",
      "assetIds": [
        "41506478881403507969696680653240014914910929820314476107906210059990541021184"
      ],
      "assetValues": [
        1
      ]
    },
    {
      "reservedAddress": "0xd976406cf6485ebaa86c26fe05added6730c0e1b",
      "assetIds": [
        "41506478881403507969696680653240014914910929820314476107906210059990541021184"
      ],
      "assetValues": [
        1
      ]
    },
    {
      "reservedAddress": "0xd98659215b95be60fa5959ab4a7b0b1e3dc621f6",
      "assetIds": [
        "41506478881403507969696680653240014914910929820314476107906210059990541021184"
      ],
      "assetValues": [
        1
      ]
    },
    {
      "reservedAddress": "0xd9970c44e58579c5ba2c4c5f9828dfac6f855544",
      "assetIds": [
        "41506478881403507969696680653240014914910929820314476107906210059990541021184"
      ],
      "assetValues": [
        1
      ]
    },
    {
      "reservedAddress": "0xd9cb618e01e366a34c1ce89678f70753041767df",
      "assetIds": [
        "41506478881403507969696680653240014914910929820314476107906210059990541021184"
      ],
      "assetValues": [
        1
      ]
    },
    {
      "reservedAddress": "0xd9cc8ddabe7602c1863f4ec37d01c2882004b2d6",
      "assetIds": [
        "41506478881403507969696680653240014914910929820314476107906210059990541021184"
      ],
      "assetValues": [
        1
      ]
    },
    {
      "reservedAddress": "0xd9f873c26d73b1a2b17781cdf33791a56eeb9758",
      "assetIds": [
        "41506478881403507969696680653240014914910929820314476107906210059990541021184"
      ],
      "assetValues": [
        1
      ]
    },
    {
      "reservedAddress": "0xda263a5fc68640d1b47531fd6b01b50d779135f9",
      "assetIds": [
        "41506478881403507969696680653240014914910929820314476107906210059990541021184"
      ],
      "assetValues": [
        1
      ]
    },
    {
      "reservedAddress": "0xda3d24b3c46d02faab063be190b0ee803e91f744",
      "assetIds": [
        "41506478881403507969696680653240014914910929820314476107906210059990541021184"
      ],
      "assetValues": [
        1
      ]
    },
    {
      "reservedAddress": "0xda610b7cef2285b7b81cb605538bc3f83999b2ce",
      "assetIds": [
        "41506478881403507969696680653240014914910929820314476107906210059990541021184"
      ],
      "assetValues": [
        1
      ]
    },
    {
      "reservedAddress": "0xda6d2760f416fe7bb400735ab378f0fff85aec14",
      "assetIds": [
        "41506478881403507969696680653240014914910929820314476107906210059990541021184"
      ],
      "assetValues": [
        1
      ]
    },
    {
      "reservedAddress": "0xda804519fb3c7d7d51a775f5f9a523ce7ac86642",
      "assetIds": [
        "41506478881403507969696680653240014914910929820314476107906210059990541021184"
      ],
      "assetValues": [
        1
      ]
    },
    {
      "reservedAddress": "0xdad1a4e60afdc989173fda505110dab1b9e7645e",
      "assetIds": [
        "41506478881403507969696680653240014914910929820314476107906210059990541021184"
      ],
      "assetValues": [
        1
      ]
    },
    {
      "reservedAddress": "0xdaf1060f23583ee0088dabc18719965b365ed66a",
      "assetIds": [
        "41506478881403507969696680653240014914910929820314476107906210059990541021184"
      ],
      "assetValues": [
        1
      ]
    },
    {
      "reservedAddress": "0xdafde0ca57fe82e4e83e86bd80be5b2742109854",
      "assetIds": [
        "41506478881403507969696680653240014914910929820314476107906210059990541021184"
      ],
      "assetValues": [
        1
      ]
    },
    {
      "reservedAddress": "0xdb19d3186ea32001f6f16867d5d31a39bba139be",
      "assetIds": [
        "41506478881403507969696680653240014914910929820314476107906210059990541021184"
      ],
      "assetValues": [
        1
      ]
    },
    {
      "reservedAddress": "0xdb41a7f2ce73598e5573def4f1eac32da23d518a",
      "assetIds": [
        "41506478881403507969696680653240014914910929820314476107906210059990541021184"
      ],
      "assetValues": [
        1
      ]
    },
    {
      "reservedAddress": "0xdb4a3fd187be8c5a7e5f8a061efd15ad456a95cc",
      "assetIds": [
        "41506478881403507969696680653240014914910929820314476107906210059990541021184"
      ],
      "assetValues": [
        1
      ]
    },
    {
      "reservedAddress": "0xdb5de412a2bf5ed7625288558bda49a39c20bfe8",
      "assetIds": [
        "41506478881403507969696680653240014914910929820314476107906210059990541021184"
      ],
      "assetValues": [
        1
      ]
    },
    {
      "reservedAddress": "0xdb8147ab8e79c7ada385a2abbe8d6cd791190f78",
      "assetIds": [
        "41506478881403507969696680653240014914910929820314476107906210059990541021184"
      ],
      "assetValues": [
        1
      ]
    },
    {
      "reservedAddress": "0xdb9f1c06919adf39230e7441fc64b3c746f4de3e",
      "assetIds": [
        "41506478881403507969696680653240014914910929820314476107906210059990541021184"
      ],
      "assetValues": [
        1
      ]
    },
    {
      "reservedAddress": "0xdbee66a794d8970f1a743a6165f9534956c0fb89",
      "assetIds": [
        "41506478881403507969696680653240014914910929820314476107906210059990541021184"
      ],
      "assetValues": [
        1
      ]
    },
    {
      "reservedAddress": "0xdca7266b3f1759bc66328b9ccd3b7f351eaa7c23",
      "assetIds": [
        "41506478881403507969696680653240014914910929820314476107906210059990541021184"
      ],
      "assetValues": [
        1
      ]
    },
    {
      "reservedAddress": "0xdce52ff71a87f968b2aca01a8ea1f073a73dcbf9",
      "assetIds": [
        "41506478881403507969696680653240014914910929820314476107906210059990541021184"
      ],
      "assetValues": [
        1
      ]
    },
    {
      "reservedAddress": "0xdd2dcdc7ba8ea57c258f155dace3d1f7f11b3110",
      "assetIds": [
        "41506478881403507969696680653240014914910929820314476107906210059990541021184"
      ],
      "assetValues": [
        1
      ]
    },
    {
      "reservedAddress": "0xdda9ffa8199d8868725bbbc27797ee117eefc55c",
      "assetIds": [
        "41506478881403507969696680653240014914910929820314476107906210059990541021184"
      ],
      "assetValues": [
        1
      ]
    },
    {
      "reservedAddress": "0xddaac482530e2d5c31c19727c6721e192d539666",
      "assetIds": [
        "41506478881403507969696680653240014914910929820314476107906210059990541021184"
      ],
      "assetValues": [
        1
      ]
    },
    {
      "reservedAddress": "0xddb92a96054132801cae3943b2f966fc2c308ac8",
      "assetIds": [
        "41506478881403507969696680653240014914910929820314476107906210059990541021184"
      ],
      "assetValues": [
        1
      ]
    },
    {
      "reservedAddress": "0xddc6877551f518f441a2a26efe74f8f91e60b1ee",
      "assetIds": [
        "41506478881403507969696680653240014914910929820314476107906210059990541021184"
      ],
      "assetValues": [
        1
      ]
    },
    {
      "reservedAddress": "0xddd7ba7d0c1a348c225655e593464b6b7234fa93",
      "assetIds": [
        "41506478881403507969696680653240014914910929820314476107906210059990541021184"
      ],
      "assetValues": [
        1
      ]
    },
    {
      "reservedAddress": "0xde078c11e0885fb28057436a4ab751189c1b3416",
      "assetIds": [
        "41506478881403507969696680653240014914910929820314476107906210059990541021184"
      ],
      "assetValues": [
        1
      ]
    },
    {
      "reservedAddress": "0xde0becb25ee6822896da8b78834fc2a3dc1f1209",
      "assetIds": [
        "41506478881403507969696680653240014914910929820314476107906210059990541021184"
      ],
      "assetValues": [
        1
      ]
    },
    {
      "reservedAddress": "0xde4183c8b38258bd505ef59faeaad30239944020",
      "assetIds": [
        "41506478881403507969696680653240014914910929820314476107906210059990541021184"
      ],
      "assetValues": [
        1
      ]
    },
    {
      "reservedAddress": "0xde893e0c6d8f05f5e8cd3097961be367725943ae",
      "assetIds": [
        "41506478881403507969696680653240014914910929820314476107906210059990541021184"
      ],
      "assetValues": [
        1
      ]
    },
    {
      "reservedAddress": "0xdea51b918e5449ce3d69ad1414a0f7185fd3f09b",
      "assetIds": [
        "41506478881403507969696680653240014914910929820314476107906210059990541021184"
      ],
      "assetValues": [
        1
      ]
    },
    {
      "reservedAddress": "0xdede1ea5eee0dc8f19256438a34d240375533f27",
      "assetIds": [
        "41506478881403507969696680653240014914910929820314476107906210059990541021184"
      ],
      "assetValues": [
        1
      ]
    },
    {
      "reservedAddress": "0xdf0f194039011ec37af91331148dc339311a5e59",
      "assetIds": [
        "41506478881403507969696680653240014914910929820314476107906210059990541021184"
      ],
      "assetValues": [
        1
      ]
    },
    {
      "reservedAddress": "0xdf104da5321484e3f7241b2f55c8ea4a846fc03a",
      "assetIds": [
        "41506478881403507969696680653240014914910929820314476107906210059990541021184"
      ],
      "assetValues": [
        1
      ]
    },
    {
      "reservedAddress": "0xdf14100b76a5b5fd46fba22b7ac124919cffc92a",
      "assetIds": [
        "41506478881403507969696680653240014914910929820314476107906210059990541021184"
      ],
      "assetValues": [
        1
      ]
    },
    {
      "reservedAddress": "0xdf3e18e87a9bbf4ff39f0561c057f88f738bfe62",
      "assetIds": [
        "41506478881403507969696680653240014914910929820314476107906210059990541021184"
      ],
      "assetValues": [
        1
      ]
    },
    {
      "reservedAddress": "0xdf40920f41d6df69954017ed7ebb15fb1795b116",
      "assetIds": [
        "41506478881403507969696680653240014914910929820314476107906210059990541021184"
      ],
      "assetValues": [
        1
      ]
    },
    {
      "reservedAddress": "0xdfa31ea14c23271af7c7583c17f6751d8411921e",
      "assetIds": [
        "41506478881403507969696680653240014914910929820314476107906210059990541021184"
      ],
      "assetValues": [
        1
      ]
    },
    {
      "reservedAddress": "0xdfc82ead713bdc57bda92e177c3ae097f296df11",
      "assetIds": [
        "41506478881403507969696680653240014914910929820314476107906210059990541021184"
      ],
      "assetValues": [
        1
      ]
    },
    {
      "reservedAddress": "0xdfc96a46e644bb723f0f50d70d5be076e68f3669",
      "assetIds": [
        "41506478881403507969696680653240014914910929820314476107906210059990541021184"
      ],
      "assetValues": [
        1
      ]
    },
    {
      "reservedAddress": "0xdfebc4efb2cf2c184ad4f8ee62e4046acff9fb39",
      "assetIds": [
        "41506478881403507969696680653240014914910929820314476107906210059990541021184"
      ],
      "assetValues": [
        1
      ]
    },
    {
      "reservedAddress": "0xdfeef2424c3b6881a9305784843b33a749a2904b",
      "assetIds": [
        "41506478881403507969696680653240014914910929820314476107906210059990541021184"
      ],
      "assetValues": [
        1
      ]
    },
    {
      "reservedAddress": "0xdff92adb0c822cdcbd5768d8ca03de428a2f2c1a",
      "assetIds": [
        "41506478881403507969696680653240014914910929820314476107906210059990541021184"
      ],
      "assetValues": [
        1
      ]
    },
    {
      "reservedAddress": "0xe000d197600c7c79b972057302b224c3ff469e34",
      "assetIds": [
        "41506478881403507969696680653240014914910929820314476107906210059990541021184"
      ],
      "assetValues": [
        1
      ]
    },
    {
      "reservedAddress": "0xe002a455400d42c95ffbf24bf5cb9a82d5b35dcd",
      "assetIds": [
        "41506478881403507969696680653240014914910929820314476107906210059990541021184"
      ],
      "assetValues": [
        1
      ]
    },
    {
      "reservedAddress": "0xe01a97fc4607a388a41626d5e039fdecbfc6acd9",
      "assetIds": [
        "41506478881403507969696680653240014914910929820314476107906210059990541021184"
      ],
      "assetValues": [
        1
      ]
    },
    {
      "reservedAddress": "0xe053d57eb638434c395f53de9bd37bf6727bc089",
      "assetIds": [
        "41506478881403507969696680653240014914910929820314476107906210059990541021184"
      ],
      "assetValues": [
        1
      ]
    },
    {
      "reservedAddress": "0xe068d7105ce4de28b075cd039f76ad5df4cc42cd",
      "assetIds": [
        "41506478881403507969696680653240014914910929820314476107906210059990541021184"
      ],
      "assetValues": [
        1
      ]
    },
    {
      "reservedAddress": "0xe069f62a3ac39e3d82c3396bab7efd65392a4b64",
      "assetIds": [
        "41506478881403507969696680653240014914910929820314476107906210059990541021184"
      ],
      "assetValues": [
        1
      ]
    },
    {
      "reservedAddress": "0xe07ef543c16431275718cc1f114b0241ff217278",
      "assetIds": [
        "41506478881403507969696680653240014914910929820314476107906210059990541021184"
      ],
      "assetValues": [
        1
      ]
    },
    {
      "reservedAddress": "0xe082d4e79c8e9587deb8539f3454da340b0f5668",
      "assetIds": [
        "41506478881403507969696680653240014914910929820314476107906210059990541021184"
      ],
      "assetValues": [
        1
      ]
    },
    {
      "reservedAddress": "0xe08b3443ecaf9da1ce31fd58c94f85021a9c5d4c",
      "assetIds": [
        "41506478881403507969696680653240014914910929820314476107906210059990541021184"
      ],
      "assetValues": [
        1
      ]
    },
    {
      "reservedAddress": "0xe0b795554ed78c7889635c0044a38c1f5f2f7e0a",
      "assetIds": [
        "41506478881403507969696680653240014914910929820314476107906210059990541021184"
      ],
      "assetValues": [
        1
      ]
    },
    {
      "reservedAddress": "0xe0f5afbfa874cef79e67deb4f9bdbf96f36c9083",
      "assetIds": [
        "41506478881403507969696680653240014914910929820314476107906210059990541021184"
      ],
      "assetValues": [
        1
      ]
    },
    {
      "reservedAddress": "0xe11bce467f2ffda6d0b67c4070f4710712d1ef60",
      "assetIds": [
        "41506478881403507969696680653240014914910929820314476107906210059990541021184"
      ],
      "assetValues": [
        1
      ]
    },
    {
      "reservedAddress": "0xe173cc94d4755b72eb9196cf50dbcd2cba54e348",
      "assetIds": [
        "41506478881403507969696680653240014914910929820314476107906210059990541021184"
      ],
      "assetValues": [
        1
      ]
    },
    {
      "reservedAddress": "0xe18bdf11308836ca8f482abcd29cfd3283a909e4",
      "assetIds": [
        "41506478881403507969696680653240014914910929820314476107906210059990541021184"
      ],
      "assetValues": [
        1
      ]
    },
    {
      "reservedAddress": "0xe1a1deeca808f8489c390281e3be60d703565bb9",
      "assetIds": [
        "41506478881403507969696680653240014914910929820314476107906210059990541021184"
      ],
      "assetValues": [
        1
      ]
    },
    {
      "reservedAddress": "0xe1b3faadc1712f5f64afbf5581fd4f8289bbd20b",
      "assetIds": [
        "41506478881403507969696680653240014914910929820314476107906210059990541021184"
      ],
      "assetValues": [
        1
      ]
    },
    {
      "reservedAddress": "0xe2361a4f968b3cd2593b3eee3fde72ced6ae8d47",
      "assetIds": [
        "41506478881403507969696680653240014914910929820314476107906210059990541021184"
      ],
      "assetValues": [
        1
      ]
    },
    {
      "reservedAddress": "0xe24449034d0b0c9c083f9a2c194ccb273b493467",
      "assetIds": [
        "41506478881403507969696680653240014914910929820314476107906210059990541021184"
      ],
      "assetValues": [
        1
      ]
    },
    {
      "reservedAddress": "0xe27df05e6d7a0a20915e7d4548aa2d53875a425e",
      "assetIds": [
        "41506478881403507969696680653240014914910929820314476107906210059990541021184"
      ],
      "assetValues": [
        1
      ]
    },
    {
      "reservedAddress": "0xe2c2bbac29a8991c21d50cfb76d56ef455d85157",
      "assetIds": [
        "41506478881403507969696680653240014914910929820314476107906210059990541021184"
      ],
      "assetValues": [
        1
      ]
    },
    {
      "reservedAddress": "0xe2f10e155ab86f988f118fdf2628bb073e95dae7",
      "assetIds": [
        "41506478881403507969696680653240014914910929820314476107906210059990541021184"
      ],
      "assetValues": [
        1
      ]
    },
    {
      "reservedAddress": "0xe2f5d180626d29e753b9b1ce6e833be01deb36e2",
      "assetIds": [
        "41506478881403507969696680653240014914910929820314476107906210059990541021184"
      ],
      "assetValues": [
        1
      ]
    },
    {
      "reservedAddress": "0xe2f8e11632bfcefb384d61a64dc754bd22621fe3",
      "assetIds": [
        "41506478881403507969696680653240014914910929820314476107906210059990541021184"
      ],
      "assetValues": [
        1
      ]
    },
    {
      "reservedAddress": "0xe31536f9335cbd5eb12d1d01f60dcd8cbeb57acd",
      "assetIds": [
        "41506478881403507969696680653240014914910929820314476107906210059990541021184"
      ],
      "assetValues": [
        1
      ]
    },
    {
      "reservedAddress": "0xe33d7c73946fd6a18a39a0a22e25508ba5289ede",
      "assetIds": [
        "41506478881403507969696680653240014914910929820314476107906210059990541021184"
      ],
      "assetValues": [
        1
      ]
    },
    {
      "reservedAddress": "0xe383023516abafc8166579ae163ac8045aa43a10",
      "assetIds": [
        "41506478881403507969696680653240014914910929820314476107906210059990541021184"
      ],
      "assetValues": [
        1
      ]
    },
    {
      "reservedAddress": "0xe3af3184c6e9f09da7aa53aa7fe9c496ea359915",
      "assetIds": [
        "41506478881403507969696680653240014914910929820314476107906210059990541021184"
      ],
      "assetValues": [
        1
      ]
    },
    {
      "reservedAddress": "0xe3c223b28effb679796fcf16fef763b8cb0f8343",
      "assetIds": [
        "41506478881403507969696680653240014914910929820314476107906210059990541021184"
      ],
      "assetValues": [
        1
      ]
    },
    {
      "reservedAddress": "0xe3cbce2768fcff5cb0e1ecc63840de096a3bcb9d",
      "assetIds": [
        "41506478881403507969696680653240014914910929820314476107906210059990541021184"
      ],
      "assetValues": [
        1
      ]
    },
    {
      "reservedAddress": "0xe3d9a8af4d578a3eccfde1944d0c3d52e98d2ec6",
      "assetIds": [
        "41506478881403507969696680653240014914910929820314476107906210059990541021184"
      ],
      "assetValues": [
        1
      ]
    },
    {
      "reservedAddress": "0xe419c3ffa35af2df4c9f9f3380b9a8fcf35ead70",
      "assetIds": [
        "41506478881403507969696680653240014914910929820314476107906210059990541021184"
      ],
      "assetValues": [
        1
      ]
    },
    {
      "reservedAddress": "0xe4203cefc0a62587096e836af05d729578f97ab8",
      "assetIds": [
        "41506478881403507969696680653240014914910929820314476107906210059990541021184"
      ],
      "assetValues": [
        1
      ]
    },
    {
      "reservedAddress": "0xe4347d34d8c0c941926e84b56cb9dfcbcf4154fa",
      "assetIds": [
        "41506478881403507969696680653240014914910929820314476107906210059990541021184"
      ],
      "assetValues": [
        1
      ]
    },
    {
      "reservedAddress": "0xe43840e77829b2df75959b7107d172060ab6bd87",
      "assetIds": [
        "41506478881403507969696680653240014914910929820314476107906210059990541021184"
      ],
      "assetValues": [
        1
      ]
    },
    {
      "reservedAddress": "0xe44aede3f7d3849c4803c22ac8b65384298b7b0a",
      "assetIds": [
        "41506478881403507969696680653240014914910929820314476107906210059990541021184"
      ],
      "assetValues": [
        1
      ]
    },
    {
      "reservedAddress": "0xe45c7e4427aeef6a1bdcf266b61dc2b4741631ff",
      "assetIds": [
        "41506478881403507969696680653240014914910929820314476107906210059990541021184"
      ],
      "assetValues": [
        1
      ]
    },
    {
      "reservedAddress": "0xe480a4e6747bd295b42ace8cd99ed43f715fc58d",
      "assetIds": [
        "41506478881403507969696680653240014914910929820314476107906210059990541021184"
      ],
      "assetValues": [
        1
      ]
    },
    {
      "reservedAddress": "0xe49a75da3df73c47a4c637f936aeec04417a39c8",
      "assetIds": [
        "41506478881403507969696680653240014914910929820314476107906210059990541021184"
      ],
      "assetValues": [
        1
      ]
    },
    {
      "reservedAddress": "0xe4b0a0b49065bf508f5f4848d18da8450585c206",
      "assetIds": [
        "41506478881403507969696680653240014914910929820314476107906210059990541021184"
      ],
      "assetValues": [
        1
      ]
    },
    {
      "reservedAddress": "0xe4c140a67a3a95913a6e2fcfc6d6434d94c07641",
      "assetIds": [
        "41506478881403507969696680653240014914910929820314476107906210059990541021184"
      ],
      "assetValues": [
        1
      ]
    },
    {
      "reservedAddress": "0xe4cfc6244b04c16d6b9bd12f0ff37cd908de5908",
      "assetIds": [
        "41506478881403507969696680653240014914910929820314476107906210059990541021184"
      ],
      "assetValues": [
        1
      ]
    },
    {
      "reservedAddress": "0xe4db239bdbfc3fe1bf89d0d570f53f1dde24ebee",
      "assetIds": [
        "41506478881403507969696680653240014914910929820314476107906210059990541021184"
      ],
      "assetValues": [
        1
      ]
    },
    {
      "reservedAddress": "0xe5546ea6535859c5d16373ecabde6de89fb2a4ce",
      "assetIds": [
        "41506478881403507969696680653240014914910929820314476107906210059990541021184"
      ],
      "assetValues": [
        1
      ]
    },
    {
      "reservedAddress": "0xe5aa04a4f6db9441f1832b48f45111b20287c800",
      "assetIds": [
        "41506478881403507969696680653240014914910929820314476107906210059990541021184"
      ],
      "assetValues": [
        1
      ]
    },
    {
      "reservedAddress": "0xe5d448bd01f9df6c2b44912262253d8fbf004825",
      "assetIds": [
        "41506478881403507969696680653240014914910929820314476107906210059990541021184"
      ],
      "assetValues": [
        1
      ]
    },
    {
      "reservedAddress": "0xe60cba37cab441a268583f9ff963ecc59c4964b3",
      "assetIds": [
        "41506478881403507969696680653240014914910929820314476107906210059990541021184"
      ],
      "assetValues": [
        1
      ]
    },
    {
      "reservedAddress": "0xe614065a4ac6d478f141db4595325b537ffa2ea5",
      "assetIds": [
        "41506478881403507969696680653240014914910929820314476107906210059990541021184"
      ],
      "assetValues": [
        1
      ]
    },
    {
      "reservedAddress": "0xe6227e7393ff139cb2094ff08013ede92dd08402",
      "assetIds": [
        "41506478881403507969696680653240014914910929820314476107906210059990541021184"
      ],
      "assetValues": [
        1
      ]
    },
    {
      "reservedAddress": "0xe6690a6cef204333ee0cf4be75b8fb98de07a79b",
      "assetIds": [
        "41506478881403507969696680653240014914910929820314476107906210059990541021184"
      ],
      "assetValues": [
        1
      ]
    },
    {
      "reservedAddress": "0xe67e053295834b64e72d9640432071b58a2cec3c",
      "assetIds": [
        "41506478881403507969696680653240014914910929820314476107906210059990541021184"
      ],
      "assetValues": [
        1
      ]
    },
    {
      "reservedAddress": "0xe6c71bf7bd7dfff41a7c698c7d02d90d095a6618",
      "assetIds": [
        "41506478881403507969696680653240014914910929820314476107906210059990541021184"
      ],
      "assetValues": [
        1
      ]
    },
    {
      "reservedAddress": "0xe6dabf4dcb44c7a630074eae8d6124319a8f109c",
      "assetIds": [
        "41506478881403507969696680653240014914910929820314476107906210059990541021184"
      ],
      "assetValues": [
        1
      ]
    },
    {
      "reservedAddress": "0xe7079eec020ddfc3f1c0abe1d946c55e6ed30eb3",
      "assetIds": [
        "41506478881403507969696680653240014914910929820314476107906210059990541021184"
      ],
      "assetValues": [
        1
      ]
    },
    {
      "reservedAddress": "0xe741f716049de5514e8304b1c666ee2b18f7027e",
      "assetIds": [
        "41506478881403507969696680653240014914910929820314476107906210059990541021184"
      ],
      "assetValues": [
        1
      ]
    },
    {
      "reservedAddress": "0xe76a6619581dd7122bc127a6f018ba035b182aaa",
      "assetIds": [
        "41506478881403507969696680653240014914910929820314476107906210059990541021184"
      ],
      "assetValues": [
        1
      ]
    },
    {
      "reservedAddress": "0xe7931239a57f98fbac1957a15376830884120a76",
      "assetIds": [
        "41506478881403507969696680653240014914910929820314476107906210059990541021184"
      ],
      "assetValues": [
        1
      ]
    },
    {
      "reservedAddress": "0xe7d3a93f13cec74f8741ad7c0f55dcbbeff4caf9",
      "assetIds": [
        "41506478881403507969696680653240014914910929820314476107906210059990541021184"
      ],
      "assetValues": [
        1
      ]
    },
    {
      "reservedAddress": "0xe80de17dd3fa25e11beda818305bfcf44146114a",
      "assetIds": [
        "41506478881403507969696680653240014914910929820314476107906210059990541021184"
      ],
      "assetValues": [
        1
      ]
    },
    {
      "reservedAddress": "0xe8636765c702765d14556b3070210387386fa1dc",
      "assetIds": [
        "41506478881403507969696680653240014914910929820314476107906210059990541021184"
      ],
      "assetValues": [
        1
      ]
    },
    {
      "reservedAddress": "0xe86784509edb543a0426d21b83b9cdbbcf7b952f",
      "assetIds": [
        "41506478881403507969696680653240014914910929820314476107906210059990541021184"
      ],
      "assetValues": [
        1
      ]
    },
    {
      "reservedAddress": "0xe86dd30d2bdcac79e32453ae29153f342acc93f9",
      "assetIds": [
        "41506478881403507969696680653240014914910929820314476107906210059990541021184"
      ],
      "assetValues": [
        1
      ]
    },
    {
      "reservedAddress": "0xe8c8271baa2d476fecd5ae2727ece63d2ae661df",
      "assetIds": [
        "41506478881403507969696680653240014914910929820314476107906210059990541021184"
      ],
      "assetValues": [
        1
      ]
    },
    {
      "reservedAddress": "0xe907f7e8c6b7bc96935291cda9dfc3821db0e939",
      "assetIds": [
        "41506478881403507969696680653240014914910929820314476107906210059990541021184"
      ],
      "assetValues": [
        1
      ]
    },
    {
      "reservedAddress": "0xe9646ed0fa6015fa67c39c23d5beec6a65e59940",
      "assetIds": [
        "41506478881403507969696680653240014914910929820314476107906210059990541021184"
      ],
      "assetValues": [
        1
      ]
    },
    {
      "reservedAddress": "0xe9659ca29dec45c493fabd388dd12be3084b4c06",
      "assetIds": [
        "41506478881403507969696680653240014914910929820314476107906210059990541021184"
      ],
      "assetValues": [
        1
      ]
    },
    {
      "reservedAddress": "0xe972e8e4c39445e1da1d3262af51a0b1cf8880e8",
      "assetIds": [
        "41506478881403507969696680653240014914910929820314476107906210059990541021184"
      ],
      "assetValues": [
        1
      ]
    },
    {
      "reservedAddress": "0xe975b9587014e4aeafcc13d5ee1c878b0f583054",
      "assetIds": [
        "41506478881403507969696680653240014914910929820314476107906210059990541021184"
      ],
      "assetValues": [
        1
      ]
    },
    {
      "reservedAddress": "0xe99ec2071db77e2ef9ae6a5e7af7cb2350110eb1",
      "assetIds": [
        "41506478881403507969696680653240014914910929820314476107906210059990541021184"
      ],
      "assetValues": [
        1
      ]
    },
    {
      "reservedAddress": "0xe9bb842f4535fb16aefd984c4c06e97e55a50318",
      "assetIds": [
        "41506478881403507969696680653240014914910929820314476107906210059990541021184"
      ],
      "assetValues": [
        1
      ]
    },
    {
      "reservedAddress": "0xe9bd8b7ef22f29b43e11d3133e12c32662d5af1f",
      "assetIds": [
        "41506478881403507969696680653240014914910929820314476107906210059990541021184"
      ],
      "assetValues": [
        1
      ]
    },
    {
      "reservedAddress": "0xe9d705ef46b83b2e1e991c7bd96f52ec304f00ac",
      "assetIds": [
        "41506478881403507969696680653240014914910929820314476107906210059990541021184"
      ],
      "assetValues": [
        1
      ]
    },
    {
      "reservedAddress": "0xea3c05d6f69eba831e3d31c2bbe79359fe082a0a",
      "assetIds": [
        "41506478881403507969696680653240014914910929820314476107906210059990541021184"
      ],
      "assetValues": [
        1
      ]
    },
    {
      "reservedAddress": "0xeacbc7bca0f61d2d7b78ce7e131b419292394ebc",
      "assetIds": [
        "41506478881403507969696680653240014914910929820314476107906210059990541021184"
      ],
      "assetValues": [
        1
      ]
    },
    {
      "reservedAddress": "0xeae03eb54eb26b38057544895e834af42fc46a69",
      "assetIds": [
        "41506478881403507969696680653240014914910929820314476107906210059990541021184"
      ],
      "assetValues": [
        1
      ]
    },
    {
      "reservedAddress": "0xeae98e98cea0577cf78e2efce00b3faa9444130c",
      "assetIds": [
        "41506478881403507969696680653240014914910929820314476107906210059990541021184"
      ],
      "assetValues": [
        1
      ]
    },
    {
      "reservedAddress": "0xeafd739b154bc178ca4959edb42e9dbafe4af1ca",
      "assetIds": [
        "41506478881403507969696680653240014914910929820314476107906210059990541021184"
      ],
      "assetValues": [
        1
      ]
    },
    {
      "reservedAddress": "0xeb187aeaf8b07bb4dfe78532c8e548280af98bd5",
      "assetIds": [
        "41506478881403507969696680653240014914910929820314476107906210059990541021184"
      ],
      "assetValues": [
        1
      ]
    },
    {
      "reservedAddress": "0xeb3257b17a100cd755a1c1bb51559bc877077fb5",
      "assetIds": [
        "41506478881403507969696680653240014914910929820314476107906210059990541021184"
      ],
      "assetValues": [
        1
      ]
    },
    {
      "reservedAddress": "0xeb5887d4b1e68c80e19028ad7a6613dad6f61ad7",
      "assetIds": [
        "41506478881403507969696680653240014914910929820314476107906210059990541021184"
      ],
      "assetValues": [
        1
      ]
    },
    {
      "reservedAddress": "0xebafeeee4ae5275fd6c064a589b8bcdef4e554d1",
      "assetIds": [
        "41506478881403507969696680653240014914910929820314476107906210059990541021184"
      ],
      "assetValues": [
        1
      ]
    },
    {
      "reservedAddress": "0xec2a709ae5cf85ca5dbbee3c874c548ca61f7dbe",
      "assetIds": [
        "41506478881403507969696680653240014914910929820314476107906210059990541021184"
      ],
      "assetValues": [
        1
      ]
    },
    {
      "reservedAddress": "0xec462b802b250f83756294a79c5bce080b6e9b43",
      "assetIds": [
        "41506478881403507969696680653240014914910929820314476107906210059990541021184"
      ],
      "assetValues": [
        1
      ]
    },
    {
      "reservedAddress": "0xec4fd16bac6cd01c4cafb709c0acca0c053d0543",
      "assetIds": [
        "41506478881403507969696680653240014914910929820314476107906210059990541021184"
      ],
      "assetValues": [
        1
      ]
    },
    {
      "reservedAddress": "0xecb1d3048520016581b88b5825dd722ceb818303",
      "assetIds": [
        "41506478881403507969696680653240014914910929820314476107906210059990541021184"
      ],
      "assetValues": [
        1
      ]
    },
    {
      "reservedAddress": "0xecbde5878a4127b8def2af355dc7e2be5311f904",
      "assetIds": [
        "41506478881403507969696680653240014914910929820314476107906210059990541021184"
      ],
      "assetValues": [
        1
      ]
    },
    {
      "reservedAddress": "0xecd5e98bd002708868f36bb6daa29e16f11b98c0",
      "assetIds": [
        "41506478881403507969696680653240014914910929820314476107906210059990541021184"
      ],
      "assetValues": [
        1
      ]
    },
    {
      "reservedAddress": "0xece6084125a0efd3179ecb2d8192081d19f5a6af",
      "assetIds": [
        "41506478881403507969696680653240014914910929820314476107906210059990541021184"
      ],
      "assetValues": [
        1
      ]
    },
    {
      "reservedAddress": "0xecf702898e29d402039d3410d950c79c377fd8bd",
      "assetIds": [
        "41506478881403507969696680653240014914910929820314476107906210059990541021184"
      ],
      "assetValues": [
        1
      ]
    },
    {
      "reservedAddress": "0xed02f16a57c32a08b55d923bf4690d200722f462",
      "assetIds": [
        "41506478881403507969696680653240014914910929820314476107906210059990541021184"
      ],
      "assetValues": [
        1
      ]
    },
    {
      "reservedAddress": "0xed154afc178c4f85625224516485d672d24592ea",
      "assetIds": [
        "41506478881403507969696680653240014914910929820314476107906210059990541021184"
      ],
      "assetValues": [
        1
      ]
    },
    {
      "reservedAddress": "0xed6d66c7ba32912153626a20b6493554d9e2e694",
      "assetIds": [
        "41506478881403507969696680653240014914910929820314476107906210059990541021184"
      ],
      "assetValues": [
        1
      ]
    },
    {
      "reservedAddress": "0xed721dc63328be92a08b6b7d677e11100c945ea9",
      "assetIds": [
        "41506478881403507969696680653240014914910929820314476107906210059990541021184"
      ],
      "assetValues": [
        1
      ]
    },
    {
      "reservedAddress": "0xed8ae2e67af00604feff19e0a042cefd94cb4622",
      "assetIds": [
        "41506478881403507969696680653240014914910929820314476107906210059990541021184"
      ],
      "assetValues": [
        1
      ]
    },
    {
      "reservedAddress": "0xed8e4430689fe60bdc8a757dcf09bf12f9aff013",
      "assetIds": [
        "41506478881403507969696680653240014914910929820314476107906210059990541021184"
      ],
      "assetValues": [
        1
      ]
    },
    {
      "reservedAddress": "0xeda359b4b35cf309a1922e47ced15c5cd95a593d",
      "assetIds": [
        "41506478881403507969696680653240014914910929820314476107906210059990541021184"
      ],
      "assetValues": [
        1
      ]
    },
    {
      "reservedAddress": "0xeda996ac2c710ba00f3d7d4e222d6a9fb1a47bb4",
      "assetIds": [
        "41506478881403507969696680653240014914910929820314476107906210059990541021184"
      ],
      "assetValues": [
        1
      ]
    },
    {
      "reservedAddress": "0xedb7f337a3e4f1523a25d56e205a287168991f7c",
      "assetIds": [
        "41506478881403507969696680653240014914910929820314476107906210059990541021184"
      ],
      "assetValues": [
        1
      ]
    },
    {
      "reservedAddress": "0xedbf3e389d6777a764e719439492c909d7228f69",
      "assetIds": [
        "41506478881403507969696680653240014914910929820314476107906210059990541021184"
      ],
      "assetValues": [
        1
      ]
    },
    {
      "reservedAddress": "0xedd1f30d69898e4cb710cfb47c6114d31e6fed06",
      "assetIds": [
        "41506478881403507969696680653240014914910929820314476107906210059990541021184"
      ],
      "assetValues": [
        1
      ]
    },
    {
      "reservedAddress": "0xede0df61313246a214a90707014ce77c36ac252d",
      "assetIds": [
        "41506478881403507969696680653240014914910929820314476107906210059990541021184"
      ],
      "assetValues": [
        1
      ]
    },
    {
      "reservedAddress": "0xee3ce6ad7de4b7f842d8b7e68f21af5886b485ac",
      "assetIds": [
        "41506478881403507969696680653240014914910929820314476107906210059990541021184"
      ],
      "assetValues": [
        1
      ]
    },
    {
      "reservedAddress": "0xee5c256721abe58af6f582c0efd6774dd2765038",
      "assetIds": [
        "41506478881403507969696680653240014914910929820314476107906210059990541021184"
      ],
      "assetValues": [
        1
      ]
    },
    {
      "reservedAddress": "0xeea8778ef9e3e9af985792f656b7486a293f10a5",
      "assetIds": [
        "41506478881403507969696680653240014914910929820314476107906210059990541021184"
      ],
      "assetValues": [
        1
      ]
    },
    {
      "reservedAddress": "0xeecd442505b9f5497c5548d310c779d24e14140f",
      "assetIds": [
        "41506478881403507969696680653240014914910929820314476107906210059990541021184"
      ],
      "assetValues": [
        1
      ]
    },
    {
      "reservedAddress": "0xeef8a2846b5889086c2996bab62147f69635f919",
      "assetIds": [
        "41506478881403507969696680653240014914910929820314476107906210059990541021184"
      ],
      "assetValues": [
        1
      ]
    },
    {
      "reservedAddress": "0xef6f8a8c65d2f0b8e5b51c411ec6d65d599f203f",
      "assetIds": [
        "41506478881403507969696680653240014914910929820314476107906210059990541021184"
      ],
      "assetValues": [
        1
      ]
    },
    {
      "reservedAddress": "0xef83a548317e6fd2c7478483a57e6af6da25fbe4",
      "assetIds": [
        "41506478881403507969696680653240014914910929820314476107906210059990541021184"
      ],
      "assetValues": [
        1
      ]
    },
    {
      "reservedAddress": "0xef917ff4751c617096a9ed25feef4c3bc242c36e",
      "assetIds": [
        "41506478881403507969696680653240014914910929820314476107906210059990541021184"
      ],
      "assetValues": [
        1
      ]
    },
    {
      "reservedAddress": "0xf0103243f4d22b5696588646b21313d85916a16a",
      "assetIds": [
        "41506478881403507969696680653240014914910929820314476107906210059990541021184"
      ],
      "assetValues": [
        1
      ]
    },
    {
      "reservedAddress": "0xf0190e7505c072577be3281eeada81c192c24684",
      "assetIds": [
        "41506478881403507969696680653240014914910929820314476107906210059990541021184"
      ],
      "assetValues": [
        1
      ]
    },
    {
      "reservedAddress": "0xf060bf50e8a1524b0939002b26a8a03999e9ac57",
      "assetIds": [
        "41506478881403507969696680653240014914910929820314476107906210059990541021184"
      ],
      "assetValues": [
        1
      ]
    },
    {
      "reservedAddress": "0xf09d1acbf092ec47970a2aa9e16bc658b2ecf15e",
      "assetIds": [
        "41506478881403507969696680653240014914910929820314476107906210059990541021184"
      ],
      "assetValues": [
        1
      ]
    },
    {
      "reservedAddress": "0xf0abcfeaa30a95d32569fcf2b3a48bc7cb639871",
      "assetIds": [
        "41506478881403507969696680653240014914910929820314476107906210059990541021184"
      ],
      "assetValues": [
        1
      ]
    },
    {
      "reservedAddress": "0xf0ba18e81755d9e5078c9bae7de8a6e3a4cee9b0",
      "assetIds": [
        "41506478881403507969696680653240014914910929820314476107906210059990541021184"
      ],
      "assetValues": [
        1
      ]
    },
    {
      "reservedAddress": "0xf0fcd118844ba6c498c09f09c8601c66ac152fd5",
      "assetIds": [
        "41506478881403507969696680653240014914910929820314476107906210059990541021184"
      ],
      "assetValues": [
        1
      ]
    },
    {
      "reservedAddress": "0xf1229e60f2a58b02ea6fc4c300ef76e756e8cea6",
      "assetIds": [
        "41506478881403507969696680653240014914910929820314476107906210059990541021184"
      ],
      "assetValues": [
        1
      ]
    },
    {
      "reservedAddress": "0xf13f663dd51016bc27d65aced39c938759fe39b3",
      "assetIds": [
        "41506478881403507969696680653240014914910929820314476107906210059990541021184"
      ],
      "assetValues": [
        1
      ]
    },
    {
      "reservedAddress": "0xf19564f016e99f8c40c2ab756bdc1895698297a0",
      "assetIds": [
        "41506478881403507969696680653240014914910929820314476107906210059990541021184"
      ],
      "assetValues": [
        1
      ]
    },
    {
      "reservedAddress": "0xf1b4c53ee2f422f0f42122971b5cab519ff8bcdb",
      "assetIds": [
        "41506478881403507969696680653240014914910929820314476107906210059990541021184"
      ],
      "assetValues": [
        1
      ]
    },
    {
      "reservedAddress": "0xf1d310525c6b1253bd90e9a53ecb2c36d84bf27a",
      "assetIds": [
        "41506478881403507969696680653240014914910929820314476107906210059990541021184"
      ],
      "assetValues": [
        1
      ]
    },
    {
      "reservedAddress": "0xf1dcd175e5cc03b50ab3ad22a2ca08ebae643880",
      "assetIds": [
        "41506478881403507969696680653240014914910929820314476107906210059990541021184"
      ],
      "assetValues": [
        1
      ]
    },
    {
      "reservedAddress": "0xf23adce99089bd884dfc860a4178046e26efc79f",
      "assetIds": [
        "41506478881403507969696680653240014914910929820314476107906210059990541021184"
      ],
      "assetValues": [
        1
      ]
    },
    {
      "reservedAddress": "0xf27078bf9bdc462fe72bc06e3273dde7c5a41bb5",
      "assetIds": [
        "41506478881403507969696680653240014914910929820314476107906210059990541021184"
      ],
      "assetValues": [
        1
      ]
    },
    {
      "reservedAddress": "0xf28765dbcc80f3fd1df9b5d72b42e899b9d584d4",
      "assetIds": [
        "41506478881403507969696680653240014914910929820314476107906210059990541021184"
      ],
      "assetValues": [
        1
      ]
    },
    {
      "reservedAddress": "0xf2de48a38d4df6663431d6f94a5e722cb0fd6b17",
      "assetIds": [
        "41506478881403507969696680653240014914910929820314476107906210059990541021184"
      ],
      "assetValues": [
        1
      ]
    },
    {
      "reservedAddress": "0xf333d6b04d27a2c5e21a339478d8fe165f069ade",
      "assetIds": [
        "41506478881403507969696680653240014914910929820314476107906210059990541021184"
      ],
      "assetValues": [
        1
      ]
    },
    {
      "reservedAddress": "0xf354eb4b8329f3d4b81e6e3b8fe6bb2df993136d",
      "assetIds": [
        "41506478881403507969696680653240014914910929820314476107906210059990541021184"
      ],
      "assetValues": [
        1
      ]
    },
    {
      "reservedAddress": "0xf39328db65f8834d2d1e03b2b6eec10d9a63ca08",
      "assetIds": [
        "41506478881403507969696680653240014914910929820314476107906210059990541021184"
      ],
      "assetValues": [
        1
      ]
    },
    {
      "reservedAddress": "0xf3b9640c32590bfb94b848f9dc5a84127f91fe33",
      "assetIds": [
        "41506478881403507969696680653240014914910929820314476107906210059990541021184"
      ],
      "assetValues": [
        1
      ]
    },
    {
      "reservedAddress": "0xf3bc6a45ece468fda1b8b9e4a669474612a14275",
      "assetIds": [
        "41506478881403507969696680653240014914910929820314476107906210059990541021184"
      ],
      "assetValues": [
        1
      ]
    },
    {
      "reservedAddress": "0xf3cd7261f2515c815d2bc0bc509ff38e45e05d6d",
      "assetIds": [
        "41506478881403507969696680653240014914910929820314476107906210059990541021184"
      ],
      "assetValues": [
        1
      ]
    },
    {
      "reservedAddress": "0xf4140f2721f5fd76ea2a3b6864ab49e0fba1f7d0",
      "assetIds": [
        "41506478881403507969696680653240014914910929820314476107906210059990541021184"
      ],
      "assetValues": [
        1
      ]
    },
    {
      "reservedAddress": "0xf41d7fa182f12e6f8f27c68d960df12c04a25d11",
      "assetIds": [
        "41506478881403507969696680653240014914910929820314476107906210059990541021184"
      ],
      "assetValues": [
        1
      ]
    },
    {
      "reservedAddress": "0xf4480e4848dea4a939d32a90704ad58be80d79d0",
      "assetIds": [
        "41506478881403507969696680653240014914910929820314476107906210059990541021184"
      ],
      "assetValues": [
        1
      ]
    },
    {
      "reservedAddress": "0xf4613132baca9aabe16a04ed388e9efcf3972475",
      "assetIds": [
        "41506478881403507969696680653240014914910929820314476107906210059990541021184"
      ],
      "assetValues": [
        1
      ]
    },
    {
      "reservedAddress": "0xf48522afe16ef6ce7f6ddee5dddd81f26c1ee153",
      "assetIds": [
        "41506478881403507969696680653240014914910929820314476107906210059990541021184"
      ],
      "assetValues": [
        1
      ]
    },
    {
      "reservedAddress": "0xf4cd1141edc5d9dabde73470f52bb3037723c35e",
      "assetIds": [
        "41506478881403507969696680653240014914910929820314476107906210059990541021184"
      ],
      "assetValues": [
        1
      ]
    },
    {
      "reservedAddress": "0xf4faa3d21cabe99ba4dfb530a785e8cf0b68024a",
      "assetIds": [
        "41506478881403507969696680653240014914910929820314476107906210059990541021184"
      ],
      "assetValues": [
        1
      ]
    },
    {
      "reservedAddress": "0xf52242b0b776c5fcf32794efbf68cc3837345579",
      "assetIds": [
        "41506478881403507969696680653240014914910929820314476107906210059990541021184"
      ],
      "assetValues": [
        1
      ]
    },
    {
      "reservedAddress": "0xf586ac16f1fac1b902e6f40e91cc05350502222c",
      "assetIds": [
        "41506478881403507969696680653240014914910929820314476107906210059990541021184"
      ],
      "assetValues": [
        1
      ]
    },
    {
      "reservedAddress": "0xf5b054462ef5c4ce77feac7a5d805f162e140a80",
      "assetIds": [
        "41506478881403507969696680653240014914910929820314476107906210059990541021184"
      ],
      "assetValues": [
        1
      ]
    },
    {
      "reservedAddress": "0xf5e4ee8cb27c04cf8ffb3d0a50cd84359e4538e4",
      "assetIds": [
        "41506478881403507969696680653240014914910929820314476107906210059990541021184"
      ],
      "assetValues": [
        1
      ]
    },
    {
      "reservedAddress": "0xf60d2a9de2a9e5dd827a6757ac1bccb4eeecc7c4",
      "assetIds": [
        "41506478881403507969696680653240014914910929820314476107906210059990541021184"
      ],
      "assetValues": [
        1
      ]
    },
    {
      "reservedAddress": "0xf61b73ad4ed8e812d818ecdd173efdb4f82bdda9",
      "assetIds": [
        "41506478881403507969696680653240014914910929820314476107906210059990541021184"
      ],
      "assetValues": [
        1
      ]
    },
    {
      "reservedAddress": "0xf649a341ec9b57b3469f506b0475ee4ad54acf16",
      "assetIds": [
        "41506478881403507969696680653240014914910929820314476107906210059990541021184"
      ],
      "assetValues": [
        1
      ]
    },
    {
      "reservedAddress": "0xf64c00c2693dbe08400ab0a263408f457f70a829",
      "assetIds": [
        "41506478881403507969696680653240014914910929820314476107906210059990541021184"
      ],
      "assetValues": [
        1
      ]
    },
    {
      "reservedAddress": "0xf6725f2e91e273b19c647fbbfb85c47a4d48ac7c",
      "assetIds": [
        "41506478881403507969696680653240014914910929820314476107906210059990541021184"
      ],
      "assetValues": [
        1
      ]
    },
    {
      "reservedAddress": "0xf67f27b0c31067d0253d2f3e08fa925f235be5c5",
      "assetIds": [
        "41506478881403507969696680653240014914910929820314476107906210059990541021184"
      ],
      "assetValues": [
        1
      ]
    },
    {
      "reservedAddress": "0xf6b11609c3a5bcdeba0eab46799a3ed7c1323db8",
      "assetIds": [
        "41506478881403507969696680653240014914910929820314476107906210059990541021184"
      ],
      "assetValues": [
        1
      ]
    },
    {
      "reservedAddress": "0xf6b738a8fef757e7b14408ef6a71a4b02e857171",
      "assetIds": [
        "41506478881403507969696680653240014914910929820314476107906210059990541021184"
      ],
      "assetValues": [
        1
      ]
    },
    {
      "reservedAddress": "0xf6c29e3d6ab839a413ce3b54af59a6d4ee5ce5a5",
      "assetIds": [
        "41506478881403507969696680653240014914910929820314476107906210059990541021184"
      ],
      "assetValues": [
        1
      ]
    },
    {
      "reservedAddress": "0xf700084b07babd4cf44765da5a31ebbd2a63b680",
      "assetIds": [
        "41506478881403507969696680653240014914910929820314476107906210059990541021184"
      ],
      "assetValues": [
        1
      ]
    },
    {
      "reservedAddress": "0xf73887b8e0fe39874b3cedccc1ec59f2b8370c4c",
      "assetIds": [
        "41506478881403507969696680653240014914910929820314476107906210059990541021184"
      ],
      "assetValues": [
        1
      ]
    },
    {
      "reservedAddress": "0xf73c935815908ad9a056fc50269f95d8ba032e9d",
      "assetIds": [
        "41506478881403507969696680653240014914910929820314476107906210059990541021184"
      ],
      "assetValues": [
        1
      ]
    },
    {
      "reservedAddress": "0xf748879edbe8cca140940788163d7be4d2a2e46a",
      "assetIds": [
        "41506478881403507969696680653240014914910929820314476107906210059990541021184"
      ],
      "assetValues": [
        1
      ]
    },
    {
      "reservedAddress": "0xf74ca8f62d7c810a4f30c5a3dacef01e9a76b666",
      "assetIds": [
        "41506478881403507969696680653240014914910929820314476107906210059990541021184"
      ],
      "assetValues": [
        1
      ]
    },
    {
      "reservedAddress": "0xf74e4c4d6882fb518c135b97f5bf7f7dbe28fcd4",
      "assetIds": [
        "41506478881403507969696680653240014914910929820314476107906210059990541021184"
      ],
      "assetValues": [
        1
      ]
    },
    {
      "reservedAddress": "0xf7742ad0215ca5b95793117a471fd037e938cb68",
      "assetIds": [
        "41506478881403507969696680653240014914910929820314476107906210059990541021184"
      ],
      "assetValues": [
        1
      ]
    },
    {
      "reservedAddress": "0xf7d48932f456e98d2ff824e38830e8f59de13f4a",
      "assetIds": [
        "41506478881403507969696680653240014914910929820314476107906210059990541021184"
      ],
      "assetValues": [
        1
      ]
    },
    {
      "reservedAddress": "0xf7e4ac558fe9eadd91ebb3cd77d4aa2ab234496c",
      "assetIds": [
        "41506478881403507969696680653240014914910929820314476107906210059990541021184"
      ],
      "assetValues": [
        1
      ]
    },
    {
      "reservedAddress": "0xf7f12d64e7aece2918c9c1942118baa193dafd9e",
      "assetIds": [
        "41506478881403507969696680653240014914910929820314476107906210059990541021184"
      ],
      "assetValues": [
        1
      ]
    },
    {
      "reservedAddress": "0xf80485ed7646b9fd913e872bc6515200cbf8182d",
      "assetIds": [
        "41506478881403507969696680653240014914910929820314476107906210059990541021184"
      ],
      "assetValues": [
        1
      ]
    },
    {
      "reservedAddress": "0xf805e52ff6e1cc093af8bcc328d217ace04575bb",
      "assetIds": [
        "41506478881403507969696680653240014914910929820314476107906210059990541021184"
      ],
      "assetValues": [
        1
      ]
    },
    {
      "reservedAddress": "0xf806157c8845592b16220f39ae75376cb671dbbc",
      "assetIds": [
        "41506478881403507969696680653240014914910929820314476107906210059990541021184"
      ],
      "assetValues": [
        1
      ]
    },
    {
      "reservedAddress": "0xf81b19ac039610c52ac000c2d8425a3aa96efdf3",
      "assetIds": [
        "41506478881403507969696680653240014914910929820314476107906210059990541021184"
      ],
      "assetValues": [
        1
      ]
    },
    {
      "reservedAddress": "0xf8526b275f1f2e07b84352e8d254070909a387ac",
      "assetIds": [
        "41506478881403507969696680653240014914910929820314476107906210059990541021184"
      ],
      "assetValues": [
        1
      ]
    },
    {
      "reservedAddress": "0xf8599a7fbf4ca355130b624cd42323d22b3dc12b",
      "assetIds": [
        "41506478881403507969696680653240014914910929820314476107906210059990541021184"
      ],
      "assetValues": [
        1
      ]
    },
    {
      "reservedAddress": "0xf867410cea18c04e8faf8c87ec801fae0db4c3f2",
      "assetIds": [
        "41506478881403507969696680653240014914910929820314476107906210059990541021184"
      ],
      "assetValues": [
        1
      ]
    },
    {
      "reservedAddress": "0xf86b7afef4190c6bb8e58ef31a0b21299a791a88",
      "assetIds": [
        "41506478881403507969696680653240014914910929820314476107906210059990541021184"
      ],
      "assetValues": [
        1
      ]
    },
    {
      "reservedAddress": "0xf8731e83ecda9d6170a64515a2ce5c73ca9fc44f",
      "assetIds": [
        "41506478881403507969696680653240014914910929820314476107906210059990541021184"
      ],
      "assetValues": [
        1
      ]
    },
    {
      "reservedAddress": "0xf8796f9a77a32cd7f6ae881c7e726181da242c98",
      "assetIds": [
        "41506478881403507969696680653240014914910929820314476107906210059990541021184"
      ],
      "assetValues": [
        1
      ]
    },
    {
      "reservedAddress": "0xf89bb80788a728688015765c8f4b75f96a87a5b3",
      "assetIds": [
        "41506478881403507969696680653240014914910929820314476107906210059990541021184"
      ],
      "assetValues": [
        1
      ]
    },
    {
      "reservedAddress": "0xf89be918c3d9989dd1e454bd21e1fc3afb7e6eeb",
      "assetIds": [
        "41506478881403507969696680653240014914910929820314476107906210059990541021184"
      ],
      "assetValues": [
        1
      ]
    },
    {
      "reservedAddress": "0xf8c133926e4b9cf586f88455e9455ddd4a494458",
      "assetIds": [
        "41506478881403507969696680653240014914910929820314476107906210059990541021184"
      ],
      "assetValues": [
        1
      ]
    },
    {
      "reservedAddress": "0xf8e4862b9d31b122ea4e61fc00ce98098c307d6b",
      "assetIds": [
        "41506478881403507969696680653240014914910929820314476107906210059990541021184"
      ],
      "assetValues": [
        1
      ]
    },
    {
      "reservedAddress": "0xf8ff0dded559c4a5304d13fc620f0308d6d5cd4e",
      "assetIds": [
        "41506478881403507969696680653240014914910929820314476107906210059990541021184"
      ],
      "assetValues": [
        1
      ]
    },
    {
      "reservedAddress": "0xf90995764129b793e6b8b8b5e6171c47282273ff",
      "assetIds": [
        "41506478881403507969696680653240014914910929820314476107906210059990541021184"
      ],
      "assetValues": [
        1
      ]
    },
    {
      "reservedAddress": "0xf916671679fc8ce5b3db08b2d80f63df05a6fd0c",
      "assetIds": [
        "41506478881403507969696680653240014914910929820314476107906210059990541021184"
      ],
      "assetValues": [
        1
      ]
    },
    {
      "reservedAddress": "0xf978c2cbe1ed541419bba845121106334850cfd9",
      "assetIds": [
        "41506478881403507969696680653240014914910929820314476107906210059990541021184"
      ],
      "assetValues": [
        1
      ]
    },
    {
      "reservedAddress": "0xf9bc63d17113720f895d89834d0a5ef2c642f480",
      "assetIds": [
        "41506478881403507969696680653240014914910929820314476107906210059990541021184"
      ],
      "assetValues": [
        1
      ]
    },
    {
      "reservedAddress": "0xf9cdc2e6d2faa732d30609603801de020706cd70",
      "assetIds": [
        "41506478881403507969696680653240014914910929820314476107906210059990541021184"
      ],
      "assetValues": [
        1
      ]
    },
    {
      "reservedAddress": "0xf9efecb4ef6038283bb8b44ff0bf7b1a7dc20542",
      "assetIds": [
        "41506478881403507969696680653240014914910929820314476107906210059990541021184"
      ],
      "assetValues": [
        1
      ]
    },
    {
      "reservedAddress": "0xfa27ecb396afa9a370204f17e436a2b1089ad16d",
      "assetIds": [
        "41506478881403507969696680653240014914910929820314476107906210059990541021184"
      ],
      "assetValues": [
        1
      ]
    },
    {
      "reservedAddress": "0xfa49c9dc40fcf170972637533a835eacc60c502e",
      "assetIds": [
        "41506478881403507969696680653240014914910929820314476107906210059990541021184"
      ],
      "assetValues": [
        1
      ]
    },
    {
      "reservedAddress": "0xfa82d67466489e75c9621990460b03c81daf36df",
      "assetIds": [
        "41506478881403507969696680653240014914910929820314476107906210059990541021184"
      ],
      "assetValues": [
        1
      ]
    },
    {
      "reservedAddress": "0xfab9a3d37999e12252b47468d2ffd4be15936012",
      "assetIds": [
        "41506478881403507969696680653240014914910929820314476107906210059990541021184"
      ],
      "assetValues": [
        1
      ]
    },
    {
      "reservedAddress": "0xfad0ea578c6c63fe495dc0ef9cf73fc2c69e1f47",
      "assetIds": [
        "41506478881403507969696680653240014914910929820314476107906210059990541021184"
      ],
      "assetValues": [
        1
      ]
    },
    {
      "reservedAddress": "0xfaded64a8339bc2d6df24fd3d595a625505f7571",
      "assetIds": [
        "41506478881403507969696680653240014914910929820314476107906210059990541021184"
      ],
      "assetValues": [
        1
      ]
    },
    {
      "reservedAddress": "0xfb09608b6700d4ed6d5dbcfb26e890a0e0ea1226",
      "assetIds": [
        "41506478881403507969696680653240014914910929820314476107906210059990541021184"
      ],
      "assetValues": [
        1
      ]
    },
    {
      "reservedAddress": "0xfb2337f4fef5682283565a156aec1d25d8c4aa31",
      "assetIds": [
        "41506478881403507969696680653240014914910929820314476107906210059990541021184"
      ],
      "assetValues": [
        1
      ]
    },
    {
      "reservedAddress": "0xfb9bdaa6895a91bb08ea6a0ab9aaea6d9e2e930f",
      "assetIds": [
        "41506478881403507969696680653240014914910929820314476107906210059990541021184"
      ],
      "assetValues": [
        1
      ]
    },
    {
      "reservedAddress": "0xfbce0cbb70bd0bf43b11f721beaf941980c5ff4a",
      "assetIds": [
        "41506478881403507969696680653240014914910929820314476107906210059990541021184"
      ],
      "assetValues": [
        1
      ]
    },
    {
      "reservedAddress": "0xfc1bc3ecbf9b3a24adc65aa9acd44626c0167d56",
      "assetIds": [
        "41506478881403507969696680653240014914910929820314476107906210059990541021184"
      ],
      "assetValues": [
        1
      ]
    },
    {
      "reservedAddress": "0xfc206a474f6475cf441c497bdcd18550edb3a12f",
      "assetIds": [
        "41506478881403507969696680653240014914910929820314476107906210059990541021184"
      ],
      "assetValues": [
        1
      ]
    },
    {
      "reservedAddress": "0xfc322dc62617689f1c91f45fb008685c0343cca5",
      "assetIds": [
        "41506478881403507969696680653240014914910929820314476107906210059990541021184"
      ],
      "assetValues": [
        1
      ]
    },
    {
      "reservedAddress": "0xfc38a1fb7e571c8b53dbd4267bffd2ac22adecf5",
      "assetIds": [
        "41506478881403507969696680653240014914910929820314476107906210059990541021184"
      ],
      "assetValues": [
        1
      ]
    },
    {
      "reservedAddress": "0xfc4740a68e256856a07074640d9b161cfdd2e3f3",
      "assetIds": [
        "41506478881403507969696680653240014914910929820314476107906210059990541021184"
      ],
      "assetValues": [
        1
      ]
    },
    {
      "reservedAddress": "0xfca395327da9a77444152465120c0e4d2b908e3b",
      "assetIds": [
        "41506478881403507969696680653240014914910929820314476107906210059990541021184"
      ],
      "assetValues": [
        1
      ]
    },
    {
      "reservedAddress": "0xfcc5ed7db9e501785c08a20b66f3367e777c5e38",
      "assetIds": [
        "41506478881403507969696680653240014914910929820314476107906210059990541021184"
      ],
      "assetValues": [
        1
      ]
    },
    {
      "reservedAddress": "0xfcdcad1824b99a1143d7c31a965f14ba26334fe7",
      "assetIds": [
        "41506478881403507969696680653240014914910929820314476107906210059990541021184"
      ],
      "assetValues": [
        1
      ]
    },
    {
      "reservedAddress": "0xfcea4a977d433d4b82337b6a223646f26c841375",
      "assetIds": [
        "41506478881403507969696680653240014914910929820314476107906210059990541021184"
      ],
      "assetValues": [
        1
      ]
    },
    {
      "reservedAddress": "0xfd460445eac89817b7ba98e18a034f3939f8f274",
      "assetIds": [
        "41506478881403507969696680653240014914910929820314476107906210059990541021184"
      ],
      "assetValues": [
        1
      ]
    },
    {
      "reservedAddress": "0xfda3714200c0814cf819e65835512f5032ac03f6",
      "assetIds": [
        "41506478881403507969696680653240014914910929820314476107906210059990541021184"
      ],
      "assetValues": [
        1
      ]
    },
    {
      "reservedAddress": "0xfdd43923340736ffbcb31c808ac644922c1df05d",
      "assetIds": [
        "41506478881403507969696680653240014914910929820314476107906210059990541021184"
      ],
      "assetValues": [
        1
      ]
    },
    {
      "reservedAddress": "0xfdf83fd9a613bff4762eefcc0fa63effb43337e7",
      "assetIds": [
        "41506478881403507969696680653240014914910929820314476107906210059990541021184"
      ],
      "assetValues": [
        1
      ]
    },
    {
      "reservedAddress": "0xfe13a69994743ae68053ccc7a4d601d2b63c9318",
      "assetIds": [
        "41506478881403507969696680653240014914910929820314476107906210059990541021184"
      ],
      "assetValues": [
        1
      ]
    },
    {
      "reservedAddress": "0xfe25d2c76b86cdbfdda9e52e808cdb25b46a5dad",
      "assetIds": [
        "41506478881403507969696680653240014914910929820314476107906210059990541021184"
      ],
      "assetValues": [
        1
      ]
    },
    {
      "reservedAddress": "0xfe4f6371bd64cc2645586ea4b051321306003688",
      "assetIds": [
        "41506478881403507969696680653240014914910929820314476107906210059990541021184"
      ],
      "assetValues": [
        1
      ]
    },
    {
      "reservedAddress": "0xfe9f33afb375732c5c3fa76187bbc469d470b8cc",
      "assetIds": [
        "41506478881403507969696680653240014914910929820314476107906210059990541021184"
      ],
      "assetValues": [
        1
      ]
    },
    {
      "reservedAddress": "0xfea8aa833b27299be08a5506f9341205078b15be",
      "assetIds": [
        "41506478881403507969696680653240014914910929820314476107906210059990541021184"
      ],
      "assetValues": [
        1
      ]
    },
    {
      "reservedAddress": "0xfec33a90737254dcf9aa33188a11f32797197f93",
      "assetIds": [
        "41506478881403507969696680653240014914910929820314476107906210059990541021184"
      ],
      "assetValues": [
        1
      ]
    },
    {
      "reservedAddress": "0xff08f103a63a653d518bd9f8a837b795c6f110c3",
      "assetIds": [
        "41506478881403507969696680653240014914910929820314476107906210059990541021184"
      ],
      "assetValues": [
        1
      ]
    },
    {
      "reservedAddress": "0xff0ffbee6c59071f1ebd8af08cf38bf8836a3371",
      "assetIds": [
        "41506478881403507969696680653240014914910929820314476107906210059990541021184"
      ],
      "assetValues": [
        1
      ]
    },
    {
      "reservedAddress": "0xff16d64179a02d6a56a1183a28f1d6293646e2dd",
      "assetIds": [
        "41506478881403507969696680653240014914910929820314476107906210059990541021184"
      ],
      "assetValues": [
        1
      ]
    },
    {
      "reservedAddress": "0xff1a9252def51ede4489c05998f5e7cf8ad2c1b3",
      "assetIds": [
        "41506478881403507969696680653240014914910929820314476107906210059990541021184"
      ],
      "assetValues": [
        1
      ]
    },
    {
      "reservedAddress": "0xff1e5270cc6448dfc0fc07861332e9bf07ab4bb3",
      "assetIds": [
        "41506478881403507969696680653240014914910929820314476107906210059990541021184"
      ],
      "assetValues": [
        1
      ]
    },
    {
      "reservedAddress": "0xff3fc772434505abff38eecde3c689d4b0254528",
      "assetIds": [
        "41506478881403507969696680653240014914910929820314476107906210059990541021184"
      ],
      "assetValues": [
        1
      ]
    },
    {
      "reservedAddress": "0xff52319f6e041a63565413a445f2c105f66255b6",
      "assetIds": [
        "41506478881403507969696680653240014914910929820314476107906210059990541021184"
      ],
      "assetValues": [
        1
      ]
    },
    {
      "reservedAddress": "0xff5ea56a0462c0d028784fb13e2b8faf87082e3b",
      "assetIds": [
        "41506478881403507969696680653240014914910929820314476107906210059990541021184"
      ],
      "assetValues": [
        1
      ]
    },
    {
      "reservedAddress": "0xff78bad7f3fefbf552a2978e1455d0126da9ba76",
      "assetIds": [
        "41506478881403507969696680653240014914910929820314476107906210059990541021184"
      ],
      "assetValues": [
        1
      ]
    },
    {
      "reservedAddress": "0xff79ad62d19066e43b99eed19f94e11b0e0b5688",
      "assetIds": [
        "41506478881403507969696680653240014914910929820314476107906210059990541021184"
      ],
      "assetValues": [
        1
      ]
    },
    {
      "reservedAddress": "0xff9dc94d18611353a8635042864303d6b6ce90f9",
      "assetIds": [
        "41506478881403507969696680653240014914910929820314476107906210059990541021184"
      ],
      "assetValues": [
        1
      ]
    },
    {
      "reservedAddress": "0xffa4c67e34f0f9df75cc1bb4e2efd25f383082f3",
      "assetIds": [
        "41506478881403507969696680653240014914910929820314476107906210059990541021184"
      ],
      "assetValues": [
        1
      ]
    },
    {
      "reservedAddress": "0xffc617a199e9717f0a3208371b026d93e56b10eb",
      "assetIds": [
        "41506478881403507969696680653240014914910929820314476107906210059990541021184"
      ],
      "assetValues": [
        1
      ]
    },
    {
      "reservedAddress": "0xfffcdf981d58eb28a8b270a0f9d5e7ff7bd8cbf5",
      "assetIds": [
        "41506478881403507969696680653240014914910929820314476107906210059990541021184"
      ],
      "assetValues": [
        1
      ]
    },
    {
      "reservedAddress": "0xfffd181efce6c38291bf2fcafbbb0d75d5ebc77e",
      "assetIds": [
        "41506478881403507969696680653240014914910929820314476107906210059990541021184"
      ],
      "assetValues": [
        1
      ]
    }
  ],
  "solcInputHash": "03fb797234b3993780ca5854e51c66e9",
  "bytecode": "0x60e060405234801561001057600080fd5b50604051610e3b380380610e3b833981810160405260a081101561003357600080fd5b508051602082015160408301516060808501516080958601519185901b6001600160601b0319169095529293919290919084826001600160a01b0381166100775750305b606081811b6001600160601b03191660a052600080546001600160a01b0319166001600160a01b0398891617815560019690965560c0849052608051901c965094909416935091610d5991506100e2903980610442525080610aa5525080610a765250610d596000f3fe608060405234801561001057600080fd5b506004361061007d5760003560e01c80638f2839701161005b5780638f283970146101e9578063bc197c811461020f578063c884ef8314610371578063f23a6e61146103ab5761007d565b80631703e85c146100825780636e9960c3146101a85780637cb64759146101cc575b600080fd5b6101a6600480360360a081101561009857600080fd5b6001600160a01b0382351691908101906040810160208201356401000000008111156100c357600080fd5b8201836020820111156100d557600080fd5b803590602001918460208302840111640100000000831117156100f757600080fd5b91939092909160208101903564010000000081111561011557600080fd5b82018360208201111561012757600080fd5b8035906020019184602083028401116401000000008311171561014957600080fd5b91939092909160208101903564010000000081111561016757600080fd5b82018360208201111561017957600080fd5b8035906020019184602083028401116401000000008311171561019b57600080fd5b919350915035610440565b005b6101b06105d8565b604080516001600160a01b039092168252519081900360200190f35b6101a6600480360360208110156101e257600080fd5b50356105e7565b6101a6600480360360208110156101ff57600080fd5b50356001600160a01b03166106a0565b61033c600480360360a081101561022557600080fd5b6001600160a01b03823581169260208101359091169181019060608101604082013564010000000081111561025957600080fd5b82018360208201111561026b57600080fd5b8035906020019184602083028401116401000000008311171561028d57600080fd5b9193909290916020810190356401000000008111156102ab57600080fd5b8201836020820111156102bd57600080fd5b803590602001918460208302840111640100000000831117156102df57600080fd5b9193909290916020810190356401000000008111156102fd57600080fd5b82018360208201111561030f57600080fd5b8035906020019184600183028401116401000000008311171561033157600080fd5b509092509050610781565b604080517fffffffff000000000000000000000000000000000000000000000000000000009092168252519081900360200190f35b6103976004803603602081101561038757600080fd5b50356001600160a01b03166107ae565b604080519115158252519081900360200190f35b61033c600480360360a08110156103c157600080fd5b6001600160a01b03823581169260208101359091169160408201359160608101359181019060a08101608082013564010000000081111561040157600080fd5b82018360208201111561041357600080fd5b8035906020019184600183028401116401000000008311171561043557600080fd5b5090925090506107c3565b7f000000000000000000000000000000000000000000000000000000000000000042106104b4576040805162461bcd60e51b815260206004820152601460248201527f434c41494d5f504552494f445f49535f4f564552000000000000000000000000604482015290519081900360640190fd5b6001600160a01b03881661050f576040805162461bcd60e51b815260206004820152601760248201527f494e56414c49445f544f5f5a45524f5f41444452455353000000000000000000604482015290519081900360640190fd5b6001600160a01b03881660009081526002602052604090205460ff161561057d576040805162461bcd60e51b815260206004820152601b60248201527f44455354494e4154494f4e5f414c52454144595f434c41494d45440000000000604482015290519081900360640190fd5b6001600160a01b038816600090815260026020526040902080547fffffffffffffffffffffffffffffffffffffffffffffffffffffffffffffff001660011790556105ce88888888888888886107ee565b5050505050505050565b6000546001600160a01b031690565b6000546001600160a01b03163314610646576040805162461bcd60e51b815260206004820152600a60248201527f41444d494e5f4f4e4c5900000000000000000000000000000000000000000000604482015290519081900360640190fd5b6001541561069b576040805162461bcd60e51b815260206004820152601760248201527f4d45524b4c455f524f4f545f414c52454144595f534554000000000000000000604482015290519081900360640190fd5b600155565b6000546001600160a01b031633146106ff576040805162461bcd60e51b815260206004820152601360248201527f41444d494e5f4143434553535f44454e49454400000000000000000000000000604482015290519081900360640190fd5b600054604080516001600160a01b039283168152918316602083015280517f7e644d79422f17c01e4894b5f4f588d331ebfa28653d42ae832dc59e38c9798f9281900390910190a1600080547fffffffffffffffffffffffff0000000000000000000000000000000000000000166001600160a01b0392909216919091179055565b7fbc197c810000000000000000000000000000000000000000000000000000000098975050505050505050565b60026020526000908152604090205460ff1681565b7ff23a6e61000000000000000000000000000000000000000000000000000000009695505050505050565b61088f8888888080602002602001604051908101604052809392919081815260200183836020028082843760009201919091525050604080516020808c0282810182019093528b82529093508b92508a91829185019084908082843760009201919091525050604080516020808b0282810182019093528a82529093508a9250899182918501908490808284376000920191909152508892506109ab915050565b6108fd8888888080602002602001604051908101604052809392919081815260200183836020028082843760009201919091525050604080516020808c0282810182019093528b82529093508b92508a918291850190849080828437600092019190915250610a7492505050565b7f7197de5398384ebaa85c57406356f07bec2ea8a342960e5445ac084ae8fa2651888888888860405180866001600160a01b0316815260200180602001806020018381038352878782818152602001925060200280828437600083820152601f01601f19169091018481038352858152602090810191508690860280828437600083820152604051601f909101601f1916909201829003995090975050505050505050a15050505050505050565b8251845114610a01576040805162461bcd60e51b815260206004820152600d60248201527f494e56414c49445f494e50555400000000000000000000000000000000000000604482015290519081900360640190fd5b6000610a0f86868685610bd1565b9050610a1b8382610c78565b610a6c576040805162461bcd60e51b815260206004820152600d60248201527f494e56414c49445f434c41494d00000000000000000000000000000000000000604482015290519081900360640190fd5b505050505050565b7f00000000000000000000000000000000000000000000000000000000000000006001600160a01b0316632eb2c2d67f00000000000000000000000000000000000000000000000000000000000000008585856040518563ffffffff1660e01b815260040180856001600160a01b03168152602001846001600160a01b03168152602001806020018060200180602001848103845286818151815260200191508051906020019060200280838360005b83811015610b3c578181015183820152602001610b24565b50505050905001848103835285818151815260200191508051906020019060200280838360005b83811015610b7b578181015183820152602001610b63565b50505050905001848103825260008152602001602001975050505050505050600060405180830381600087803b158015610bb457600080fd5b505af1158015610bc8573d6000803e3d6000fd5b50505050505050565b60008484848460405160200180856001600160a01b031660601b8152601401848051906020019060200280838360005b83811015610c19578181015183820152602001610c01565b50505050905001838051906020019060200280838360005b83811015610c49578181015183820152602001610c31565b505050509190910192835250506040805180830381526020928301909152805191012098975050505050505050565b600081815b8451811015610d17576000858281518110610c9457fe5b6020026020010151905080831015610cdc5782816040516020018083815260200182815260200192505050604051602081830303815290604052805190602001209250610d0e565b808360405160200180838152602001828152602001925050506040516020818303038152906040528051906020012092505b50600101610c7d565b5060015414939250505056fea2646970667358221220317bbaa3d47a7e1dfdd73913dadb7aa6fa00fb0add486bd7b2f7c5b04d03ccd464736f6c63430007050033",
  "devdoc": {
    "kind": "dev",
    "methods": {
      "changeAdmin(address)": {
        "details": "Change the administrator to be `newAdmin`.",
        "params": {
          "newAdmin": "The address of the new administrator."
        }
      },
      "claimAssets(address,uint256[],uint256[],bytes32[],bytes32)": {
        "params": {
          "assetIds": "The array of IDs of the asset tokens.",
          "assetValues": "The amounts of each token ID to transfer.",
          "proof": "The proof submitted for verification.",
          "salt": "The salt submitted for verification.",
          "to": "The intended recipient (reserved address) of the ERC1155 tokens."
        }
      },
      "getAdmin()": {
        "details": "Get the current administrator of this contract.",
        "returns": {
          "_0": "The current administrator of this contract."
        }
      },
      "setMerkleRoot(bytes32)": {
        "params": {
          "merkleRoot": "The merkle root hash of the asset data."
        }
      }
    },
    "title": "AssetGiveaway contract.",
    "version": 1
  },
  "userdoc": {
    "kind": "user",
    "methods": {
      "claimAssets(address,uint256[],uint256[],bytes32[],bytes32)": {
        "notice": "Function to permit the claiming of an asset to a reserved address."
      },
      "setMerkleRoot(bytes32)": {
        "notice": "Function to set the merkle root hash for the asset data, if it is 0."
      }
    },
    "notice": "This contract manages ERC1155 claims.",
    "version": 1
  },
  "storageLayout": {
    "storage": [
      {
        "astId": 7710,
        "contract": "src/solc_0.7/claims/AssetGiveaway/AssetGiveaway.sol:AssetGiveaway",
        "label": "_admin",
        "offset": 0,
        "slot": "0",
        "type": "t_address"
      },
      {
        "astId": 5404,
        "contract": "src/solc_0.7/claims/AssetGiveaway/AssetGiveaway.sol:AssetGiveaway",
        "label": "_merkleRoot",
        "offset": 0,
        "slot": "1",
        "type": "t_bytes32"
      },
      {
        "astId": 5249,
        "contract": "src/solc_0.7/claims/AssetGiveaway/AssetGiveaway.sol:AssetGiveaway",
        "label": "claimed",
        "offset": 0,
        "slot": "2",
        "type": "t_mapping(t_address,t_bool)"
      }
    ],
    "types": {
      "t_address": {
        "encoding": "inplace",
        "label": "address",
        "numberOfBytes": "20"
      },
      "t_bool": {
        "encoding": "inplace",
        "label": "bool",
        "numberOfBytes": "1"
      },
      "t_bytes32": {
        "encoding": "inplace",
        "label": "bytes32",
        "numberOfBytes": "32"
      },
      "t_mapping(t_address,t_bool)": {
        "encoding": "mapping",
        "key": "t_address",
        "label": "mapping(address => bool)",
        "numberOfBytes": "32",
        "value": "t_bool"
      }
    }
  }
}