{
  "address": "0x1E41A234335Cf0Ec477D8D8A3d6C70733c37ED41",
  "abi": [
    {
      "inputs": [
        {
          "internalType": "address",
          "name": "asset",
          "type": "address"
        },
        {
          "internalType": "address",
          "name": "admin",
          "type": "address"
        },
        {
          "internalType": "bytes32",
          "name": "merkleRoot",
          "type": "bytes32"
        },
        {
          "internalType": "address",
          "name": "assetsHolder",
          "type": "address"
        },
        {
          "internalType": "uint256",
          "name": "expiryTime",
          "type": "uint256"
        }
      ],
      "stateMutability": "nonpayable",
      "type": "constructor"
    },
    {
      "anonymous": false,
      "inputs": [
        {
          "indexed": false,
          "internalType": "address",
          "name": "oldAdmin",
          "type": "address"
        },
        {
          "indexed": false,
          "internalType": "address",
          "name": "newAdmin",
          "type": "address"
        }
      ],
      "name": "AdminChanged",
      "type": "event"
    },
    {
      "anonymous": false,
      "inputs": [
        {
          "indexed": false,
          "internalType": "address",
          "name": "to",
          "type": "address"
        },
        {
          "indexed": false,
          "internalType": "uint256[]",
          "name": "assetIds",
          "type": "uint256[]"
        },
        {
          "indexed": false,
          "internalType": "uint256[]",
          "name": "assetValues",
          "type": "uint256[]"
        }
      ],
      "name": "ClaimedAssets",
      "type": "event"
    },
    {
      "inputs": [
        {
          "internalType": "address",
          "name": "newAdmin",
          "type": "address"
        }
      ],
      "name": "changeAdmin",
      "outputs": [],
      "stateMutability": "nonpayable",
      "type": "function"
    },
    {
      "inputs": [
        {
          "internalType": "address",
          "name": "to",
          "type": "address"
        },
        {
          "internalType": "uint256[]",
          "name": "assetIds",
          "type": "uint256[]"
        },
        {
          "internalType": "uint256[]",
          "name": "assetValues",
          "type": "uint256[]"
        },
        {
          "internalType": "bytes32[]",
          "name": "proof",
          "type": "bytes32[]"
        },
        {
          "internalType": "bytes32",
          "name": "salt",
          "type": "bytes32"
        }
      ],
      "name": "claimAssets",
      "outputs": [],
      "stateMutability": "nonpayable",
      "type": "function"
    },
    {
      "inputs": [
        {
          "internalType": "address",
          "name": "",
          "type": "address"
        }
      ],
      "name": "claimed",
      "outputs": [
        {
          "internalType": "bool",
          "name": "",
          "type": "bool"
        }
      ],
      "stateMutability": "view",
      "type": "function"
    },
    {
      "inputs": [],
      "name": "getAdmin",
      "outputs": [
        {
          "internalType": "address",
          "name": "",
          "type": "address"
        }
      ],
      "stateMutability": "view",
      "type": "function"
    },
    {
      "inputs": [
        {
          "internalType": "address",
          "name": "",
          "type": "address"
        },
        {
          "internalType": "address",
          "name": "",
          "type": "address"
        },
        {
          "internalType": "uint256[]",
          "name": "",
          "type": "uint256[]"
        },
        {
          "internalType": "uint256[]",
          "name": "",
          "type": "uint256[]"
        },
        {
          "internalType": "bytes",
          "name": "",
          "type": "bytes"
        }
      ],
      "name": "onERC1155BatchReceived",
      "outputs": [
        {
          "internalType": "bytes4",
          "name": "",
          "type": "bytes4"
        }
      ],
      "stateMutability": "pure",
      "type": "function"
    },
    {
      "inputs": [
        {
          "internalType": "address",
          "name": "",
          "type": "address"
        },
        {
          "internalType": "address",
          "name": "",
          "type": "address"
        },
        {
          "internalType": "uint256",
          "name": "",
          "type": "uint256"
        },
        {
          "internalType": "uint256",
          "name": "",
          "type": "uint256"
        },
        {
          "internalType": "bytes",
          "name": "",
          "type": "bytes"
        }
      ],
      "name": "onERC1155Received",
      "outputs": [
        {
          "internalType": "bytes4",
          "name": "",
          "type": "bytes4"
        }
      ],
      "stateMutability": "pure",
      "type": "function"
    },
    {
      "inputs": [
        {
          "internalType": "bytes32",
          "name": "merkleRoot",
          "type": "bytes32"
        }
      ],
      "name": "setMerkleRoot",
      "outputs": [],
      "stateMutability": "nonpayable",
      "type": "function"
    }
  ],
  "transactionHash": "0x4505c4d1dff51c63325f7399f4f03871526be61d0706b1229872757a0628f552",
  "args": [
    "0x8055a2c0f7EB177BeaB357B70E6504402d2b5fF6",
    "0x0000000000000000000000000000000000000000",
    "0xb00f7818d65df14fc049e9c18e3268c4eb49947a401221c92417d203b93fce13",
    "0x0000000000000000000000000000000000000000",
    "0xFFFFFFFFFFFFFFFFFFFFFFFFFFFFFFFFFFFFFFFFFFFFFFFFFFFFFFFFFFFFFFFF"
  ],
  "linkedData": [
    {
      "reservedAddress": "0x57B3bb9d075487e13C9c9d0D0dB883D6E050D059",
      "assetIds": [
        "41506478881403507969696680653240014914910929820314476107906210059990541021187"
      ],
      "assetValues": [
        1
      ]
    },
    {
      "reservedAddress": "0xBCDE366987eB1736e93428252753B0F468f9DE92",
      "assetIds": [
        "41506478881403507969696680653240014914910929820314476107906210059990541021187"
      ],
      "assetValues": [
        6
      ]
    },
    {
      "reservedAddress": "0xCE433cc911D8DD8FeB5Ef0614f3f908527D03eeD",
      "assetIds": [
        "41506478881403507969696680653240014914910929820314476107906210059990541021187"
      ],
      "assetValues": [
        1
      ]
    },
    {
      "reservedAddress": "0xC882F427330eEb47F96623925086fA2BE9572434",
      "assetIds": [
        "41506478881403507969696680653240014914910929820314476107906210059990541021187"
      ],
      "assetValues": [
        1
      ]
    },
    {
      "reservedAddress": "0xF9831501728289e96fF780ee439BAC75565C57dE",
      "assetIds": [
        "41506478881403507969696680653240014914910929820314476107906210059990541021187"
      ],
      "assetValues": [
        1
      ]
    },
    {
      "reservedAddress": "0x6c14E662b2f29eaB9a33F349f674E6543212532e",
      "assetIds": [
        "41506478881403507969696680653240014914910929820314476107906210059990541021187"
      ],
      "assetValues": [
        1
      ]
    },
    {
      "reservedAddress": "0x8C2E67Bd3D0f432eF75D9AE6623Cd0DFbCE66050",
      "assetIds": [
        "41506478881403507969696680653240014914910929820314476107906210059990541021187"
      ],
      "assetValues": [
        1
      ]
    },
    {
      "reservedAddress": "0x7A9fe22691c811ea339D9B73150e6911a5343DcA",
      "assetIds": [
        "41506478881403507969696680653240014914910929820314476107906210059990541021187"
      ],
      "assetValues": [
        1
      ]
    },
    {
      "reservedAddress": "0xA20E0E4fCCF921D449c21c4b696d1491201597C1",
      "assetIds": [
        "41506478881403507969696680653240014914910929820314476107906210059990541021187"
      ],
      "assetValues": [
        1
      ]
    },
    {
      "reservedAddress": "0x2128d2366151a01f63F4fC560e885e10eCa475BF",
      "assetIds": [
        "41506478881403507969696680653240014914910929820314476107906210059990541021187"
      ],
      "assetValues": [
        1
      ]
    },
    {
      "reservedAddress": "0xbDDB98Cee24aDF58b751259ed174Dd0a58Afd1Cc",
      "assetIds": [
        "41506478881403507969696680653240014914910929820314476107906210059990541021187"
      ],
      "assetValues": [
        2
      ]
    },
    {
      "reservedAddress": "0xD726cdA113774e8628307989D5abFd63aE6F14De",
      "assetIds": [
        "41506478881403507969696680653240014914910929820314476107906210059990541021187"
      ],
      "assetValues": [
        1
      ]
    },
    {
      "reservedAddress": "0x1765Acd5b00c8CD123F2971E2608CE37B3B17c66",
      "assetIds": [
        "41506478881403507969696680653240014914910929820314476107906210059990541021187"
      ],
      "assetValues": [
        1
      ]
    },
    {
      "reservedAddress": "0x5BC3D5A39a50BE2348b9C529f81aE79f00945897",
      "assetIds": [
        "41506478881403507969696680653240014914910929820314476107906210059990541021187"
      ],
      "assetValues": [
        1
      ]
    },
    {
      "reservedAddress": "0x18d06d806b00d954730f140ec4c1d7a064b0fb9d",
      "assetIds": [
        "41506478881403507969696680653240014914910929820314476107906210059990541021187"
      ],
      "assetValues": [
        2
      ]
    },
    {
      "reservedAddress": "0x1fd73afe047e1949b6f5298e1cbe543d84d37c2b",
      "assetIds": [
        "41506478881403507969696680653240014914910929820314476107906210059990541021187"
      ],
      "assetValues": [
        2
      ]
    },
    {
      "reservedAddress": "0x216f8095d417d2c6cee649c918d3351121b2f40d",
      "assetIds": [
        "41506478881403507969696680653240014914910929820314476107906210059990541021187"
      ],
      "assetValues": [
        1
      ]
    },
    {
      "reservedAddress": "0x2213a3c4a1377439f2b866c3a0ead7e9929eec4b",
      "assetIds": [
        "41506478881403507969696680653240014914910929820314476107906210059990541021187"
      ],
      "assetValues": [
        1
      ]
    },
    {
      "reservedAddress": "0x244427ff2e7fb4540c96095ea4d0006363052afe",
      "assetIds": [
        "41506478881403507969696680653240014914910929820314476107906210059990541021187"
      ],
      "assetValues": [
        1
      ]
    },
    {
      "reservedAddress": "0x29877a3b2d57b775a0a1cc729f4fa470556b1471",
      "assetIds": [
        "41506478881403507969696680653240014914910929820314476107906210059990541021187"
      ],
      "assetValues": [
        2
      ]
    },
    {
      "reservedAddress": "0x2a04470c3e3ece4a7a0c13c7bc68525af7d92840",
      "assetIds": [
        "41506478881403507969696680653240014914910929820314476107906210059990541021187"
      ],
      "assetValues": [
        1
      ]
    },
    {
      "reservedAddress": "0x2d66939cf5e9e03980903bc4aeee98f67162e058",
      "assetIds": [
        "41506478881403507969696680653240014914910929820314476107906210059990541021187"
      ],
      "assetValues": [
        1
      ]
    },
    {
      "reservedAddress": "0x2de5b23fae83a61d6422c64d1f20c487399af0a1",
      "assetIds": [
        "41506478881403507969696680653240014914910929820314476107906210059990541021187"
      ],
      "assetValues": [
        1
      ]
    },
    {
      "reservedAddress": "0x30414ee1fda82c94114318d9ab5b97efb7fdff71",
      "assetIds": [
        "41506478881403507969696680653240014914910929820314476107906210059990541021187"
      ],
      "assetValues": [
        4
      ]
    },
    {
      "reservedAddress": "0x32e9c9397e6257bce4d9e47cf7e697059f22661c",
      "assetIds": [
        "41506478881403507969696680653240014914910929820314476107906210059990541021187"
      ],
      "assetValues": [
        1
      ]
    },
    {
      "reservedAddress": "0x33826b2367a70083c268d4b0fb2c0696f05ffc83",
      "assetIds": [
        "41506478881403507969696680653240014914910929820314476107906210059990541021187"
      ],
      "assetValues": [
        1
      ]
    },
    {
      "reservedAddress": "0x33cf288a08fac26094289e48b32f9d790642701e",
      "assetIds": [
        "41506478881403507969696680653240014914910929820314476107906210059990541021187"
      ],
      "assetValues": [
        2
      ]
    },
    {
      "reservedAddress": "0x34ded520a4de6831af970a4211ca24959b6fa092",
      "assetIds": [
        "41506478881403507969696680653240014914910929820314476107906210059990541021187"
      ],
      "assetValues": [
        2
      ]
    },
    {
      "reservedAddress": "0x3bd77b00f02c8bcff586c565e2c5e6b6c5878ec3",
      "assetIds": [
        "41506478881403507969696680653240014914910929820314476107906210059990541021187"
      ],
      "assetValues": [
        1
      ]
    },
    {
      "reservedAddress": "0x3c474891be0ba5fa5215d33eac59b8547cd00dfe",
      "assetIds": [
        "41506478881403507969696680653240014914910929820314476107906210059990541021187"
      ],
      "assetValues": [
        1
      ]
    },
    {
      "reservedAddress": "0x3d0d7f8720a02cfc9fee5dc7dc08181303a6ed86",
      "assetIds": [
        "41506478881403507969696680653240014914910929820314476107906210059990541021187"
      ],
      "assetValues": [
        1
      ]
    },
    {
      "reservedAddress": "0x4059e94f431b2c48373c3cf962b257b7a4b1dc63",
      "assetIds": [
        "41506478881403507969696680653240014914910929820314476107906210059990541021187"
      ],
      "assetValues": [
        1
      ]
    },
    {
      "reservedAddress": "0x45beacbb0e144718e17deac4dd810a7501244c89",
      "assetIds": [
        "41506478881403507969696680653240014914910929820314476107906210059990541021187"
      ],
      "assetValues": [
        1
      ]
    },
    {
      "reservedAddress": "0x4689d6581b12321bb480d343eb24b33be4b07d9e",
      "assetIds": [
        "41506478881403507969696680653240014914910929820314476107906210059990541021187"
      ],
      "assetValues": [
        1
      ]
    },
    {
      "reservedAddress": "0x46957ddb724da08a47dde1e455c6e437d2a749f8",
      "assetIds": [
        "41506478881403507969696680653240014914910929820314476107906210059990541021187"
      ],
      "assetValues": [
        1
      ]
    },
    {
      "reservedAddress": "0x4748664b688569c2711e9715b5e42fddf15e38df",
      "assetIds": [
        "41506478881403507969696680653240014914910929820314476107906210059990541021187"
      ],
      "assetValues": [
        1
      ]
    },
    {
      "reservedAddress": "0x48f4a4650caa36cbbf6200d8dd8bf3179c16b32d",
      "assetIds": [
        "41506478881403507969696680653240014914910929820314476107906210059990541021187"
      ],
      "assetValues": [
        1
      ]
    },
    {
      "reservedAddress": "0x4a1c106660301b436585f73d249e3b195a6a611c",
      "assetIds": [
        "41506478881403507969696680653240014914910929820314476107906210059990541021187"
      ],
      "assetValues": [
        1
      ]
    },
    {
      "reservedAddress": "0x4c189b2c808d44f10a40c5264f86fe917711c1c1",
      "assetIds": [
        "41506478881403507969696680653240014914910929820314476107906210059990541021187"
      ],
      "assetValues": [
        1
      ]
    },
    {
      "reservedAddress": "0x4d3711c1effbc584127f03b3c3054f18f0cb3870",
      "assetIds": [
        "41506478881403507969696680653240014914910929820314476107906210059990541021187"
      ],
      "assetValues": [
        1
      ]
    },
    {
      "reservedAddress": "0x4dbea90381ceb21925eb0a9ca39d7300afb7e5e1",
      "assetIds": [
        "41506478881403507969696680653240014914910929820314476107906210059990541021187"
      ],
      "assetValues": [
        1
      ]
    },
    {
      "reservedAddress": "0x4e3c864e3f1797f3c544b456d084b8f5fa214de9",
      "assetIds": [
        "41506478881403507969696680653240014914910929820314476107906210059990541021187"
      ],
      "assetValues": [
        1
      ]
    },
    {
      "reservedAddress": "0x539edd96b903c6bfda5a54a28a74a85432309a88",
      "assetIds": [
        "41506478881403507969696680653240014914910929820314476107906210059990541021187"
      ],
      "assetValues": [
        5
      ]
    },
    {
      "reservedAddress": "0x54aede904987dce7c0c683e9585b02267f18b69d",
      "assetIds": [
        "41506478881403507969696680653240014914910929820314476107906210059990541021187"
      ],
      "assetValues": [
        2
      ]
    },
    {
      "reservedAddress": "0x55c6bb90bee3fcc734b21c8dbb66f96e2cb65b2a",
      "assetIds": [
        "41506478881403507969696680653240014914910929820314476107906210059990541021187"
      ],
      "assetValues": [
        6
      ]
    },
    {
      "reservedAddress": "0x57037b585567535ff910fad7f3f1e687958cbc5a",
      "assetIds": [
        "41506478881403507969696680653240014914910929820314476107906210059990541021187"
      ],
      "assetValues": [
        1
      ]
    },
    {
      "reservedAddress": "0x5c1e426ad2dfea720df76d7af2f0645c580295bd",
      "assetIds": [
        "41506478881403507969696680653240014914910929820314476107906210059990541021187"
      ],
      "assetValues": [
        1
      ]
    },
    {
      "reservedAddress": "0x5cced75f222413c34b5bcaffb7e45ebdc7d31c2b",
      "assetIds": [
        "41506478881403507969696680653240014914910929820314476107906210059990541021187"
      ],
      "assetValues": [
        1
      ]
    },
    {
      "reservedAddress": "0x5e00e9dbc7e7484fda6dbf9d1ff633ba90c3c8e8",
      "assetIds": [
        "41506478881403507969696680653240014914910929820314476107906210059990541021187"
      ],
      "assetValues": [
        1
      ]
    },
    {
      "reservedAddress": "0x5f53667eafa08a0aa29196f0e781535d34fb7fe7",
      "assetIds": [
        "41506478881403507969696680653240014914910929820314476107906210059990541021187"
      ],
      "assetValues": [
        1
      ]
    },
    {
      "reservedAddress": "0x5f64676b7b96d2836b5d88cdc729d9f1703f0a0e",
      "assetIds": [
        "41506478881403507969696680653240014914910929820314476107906210059990541021187"
      ],
      "assetValues": [
        1
      ]
    },
    {
      "reservedAddress": "0x613ee38938ab8909a2a8af7784d89bfcbe49bf41",
      "assetIds": [
        "41506478881403507969696680653240014914910929820314476107906210059990541021187"
      ],
      "assetValues": [
        1
      ]
    },
    {
      "reservedAddress": "0x616b561c4d85e3b776b38c349ff62efcf8e25613",
      "assetIds": [
        "41506478881403507969696680653240014914910929820314476107906210059990541021187"
      ],
      "assetValues": [
        1
      ]
    },
    {
      "reservedAddress": "0x62d5a89fabd1b6eea0c62e3f4118ff62adcdfd23",
      "assetIds": [
        "41506478881403507969696680653240014914910929820314476107906210059990541021187"
      ],
      "assetValues": [
        2
      ]
    },
    {
      "reservedAddress": "0x65e3c6fd5c6814b3a604fd556d5ada7e524a73ec",
      "assetIds": [
        "41506478881403507969696680653240014914910929820314476107906210059990541021187"
      ],
      "assetValues": [
        1
      ]
    },
    {
      "reservedAddress": "0x65f48e4b8a95649b2e9c393d93448812a23435dc",
      "assetIds": [
        "41506478881403507969696680653240014914910929820314476107906210059990541021187"
      ],
      "assetValues": [
        1
      ]
    },
    {
      "reservedAddress": "0x67b4d281c1ce5854ce512d2fd07bd071edad5f68",
      "assetIds": [
        "41506478881403507969696680653240014914910929820314476107906210059990541021187"
      ],
      "assetValues": [
        1
      ]
    },
    {
      "reservedAddress": "0x687e6c2d22cf5768650d7af7b3d88bfac5d3d498",
      "assetIds": [
        "41506478881403507969696680653240014914910929820314476107906210059990541021187"
      ],
      "assetValues": [
        1
      ]
    },
    {
      "reservedAddress": "0x6bf951d16b2a1d36bf0aaa9d52ebdc8800e42cc8",
      "assetIds": [
        "41506478881403507969696680653240014914910929820314476107906210059990541021187"
      ],
      "assetValues": [
        1
      ]
    },
    {
      "reservedAddress": "0x6d8643f61bbebdacdc0c969229e52061f85f41fd",
      "assetIds": [
        "41506478881403507969696680653240014914910929820314476107906210059990541021187"
      ],
      "assetValues": [
        1
      ]
    },
    {
      "reservedAddress": "0x73deaeb8aa241b6fcdb992060ae43193cccbf638",
      "assetIds": [
        "41506478881403507969696680653240014914910929820314476107906210059990541021187"
      ],
      "assetValues": [
        5
      ]
    },
    {
      "reservedAddress": "0x7423fab4f4835ebdaa204c1e439792c7a75cb3f9",
      "assetIds": [
        "41506478881403507969696680653240014914910929820314476107906210059990541021187"
      ],
      "assetValues": [
        1
      ]
    },
    {
      "reservedAddress": "0x75e0818d6dae962da515231773edd84df4e8aa7d",
      "assetIds": [
        "41506478881403507969696680653240014914910929820314476107906210059990541021187"
      ],
      "assetValues": [
        1
      ]
    },
    {
      "reservedAddress": "0x7764b9f18b15364bc399448bd305fb4cb9774a19",
      "assetIds": [
        "41506478881403507969696680653240014914910929820314476107906210059990541021187"
      ],
      "assetValues": [
        1
      ]
    },
    {
      "reservedAddress": "0x7767fea8bc523ab250b505df3e89a43b9c658e64",
      "assetIds": [
        "41506478881403507969696680653240014914910929820314476107906210059990541021187"
      ],
      "assetValues": [
        1
      ]
    },
    {
      "reservedAddress": "0x79c2c8c8764d276390dee4fd6e339cad7fc23a43",
      "assetIds": [
        "41506478881403507969696680653240014914910929820314476107906210059990541021187"
      ],
      "assetValues": [
        2
      ]
    },
    {
      "reservedAddress": "0x7aa69b5ee49c4d3170e037960ca6c83f61241395",
      "assetIds": [
        "41506478881403507969696680653240014914910929820314476107906210059990541021187"
      ],
      "assetValues": [
        1
      ]
    },
    {
      "reservedAddress": "0x7febd37833b47ecd4952e4e76cebb74012257bd5",
      "assetIds": [
        "41506478881403507969696680653240014914910929820314476107906210059990541021187"
      ],
      "assetValues": [
        1
      ]
    },
    {
      "reservedAddress": "0x808d142f042e31db476ce740566ddcaab0a3eade",
      "assetIds": [
        "41506478881403507969696680653240014914910929820314476107906210059990541021187"
      ],
      "assetValues": [
        1
      ]
    },
    {
      "reservedAddress": "0x83f86f6646bca97daae8ca257ab5a6eca0cf7e93",
      "assetIds": [
        "41506478881403507969696680653240014914910929820314476107906210059990541021187"
      ],
      "assetValues": [
        1
      ]
    },
    {
      "reservedAddress": "0x854f1269b659a727a2268ab86ff77cfb30bfb358",
      "assetIds": [
        "41506478881403507969696680653240014914910929820314476107906210059990541021187"
      ],
      "assetValues": [
        1
      ]
    },
    {
      "reservedAddress": "0x86dd12f688398a8d43182ce6863637a55d13fb4f",
      "assetIds": [
        "41506478881403507969696680653240014914910929820314476107906210059990541021187"
      ],
      "assetValues": [
        1
      ]
    },
    {
      "reservedAddress": "0x8851362132466e9a1836921f59d8a20d6fbf950b",
      "assetIds": [
        "41506478881403507969696680653240014914910929820314476107906210059990541021187"
      ],
      "assetValues": [
        1
      ]
    },
    {
      "reservedAddress": "0x8a559bc81aec5b46d5ee3d7eea14ff473b8e693e",
      "assetIds": [
        "41506478881403507969696680653240014914910929820314476107906210059990541021187"
      ],
      "assetValues": [
        1
      ]
    },
    {
      "reservedAddress": "0x8adace41ec579423f149d7402f282301fcfaff36",
      "assetIds": [
        "41506478881403507969696680653240014914910929820314476107906210059990541021187"
      ],
      "assetValues": [
        1
      ]
    },
    {
      "reservedAddress": "0x8c2e67bd3d0f432ef75d9ae6623cd0dfbce66050",
      "assetIds": [
        "41506478881403507969696680653240014914910929820314476107906210059990541021187"
      ],
      "assetValues": [
        1
      ]
    },
    {
      "reservedAddress": "0x8c542e83cbf8c2f2d99f9d40da8c3c8ca45fd301",
      "assetIds": [
        "41506478881403507969696680653240014914910929820314476107906210059990541021187"
      ],
      "assetValues": [
        2
      ]
    },
    {
      "reservedAddress": "0x8e9b0a7d325b5f4738221f98d5f47ee2cd1e46b7",
      "assetIds": [
        "41506478881403507969696680653240014914910929820314476107906210059990541021187"
      ],
      "assetValues": [
        1
      ]
    },
    {
      "reservedAddress": "0x90907c88948df5f7b7ba6cc2d742f6ce1dcb0c49",
      "assetIds": [
        "41506478881403507969696680653240014914910929820314476107906210059990541021187"
      ],
      "assetValues": [
        1
      ]
    },
    {
      "reservedAddress": "0x940dbb08c0895726214cd1db2241dad30166465b",
      "assetIds": [
        "41506478881403507969696680653240014914910929820314476107906210059990541021187"
      ],
      "assetValues": [
        3
      ]
    },
    {
      "reservedAddress": "0x957b904ca727f693ffb9d0627eb25d76cf8077aa",
      "assetIds": [
        "41506478881403507969696680653240014914910929820314476107906210059990541021187"
      ],
      "assetValues": [
        2
      ]
    },
    {
      "reservedAddress": "0x964573c810bcd7c6a66e3881de7dcb3572653444",
      "assetIds": [
        "41506478881403507969696680653240014914910929820314476107906210059990541021187"
      ],
      "assetValues": [
        1
      ]
    },
    {
      "reservedAddress": "0x965aff02f429038d7500ba020251e72a8aa87943",
      "assetIds": [
        "41506478881403507969696680653240014914910929820314476107906210059990541021187"
      ],
      "assetValues": [
        1
      ]
    },
    {
      "reservedAddress": "0x97046c1da47d0d89c245c338982d26ae2263eae1",
      "assetIds": [
        "41506478881403507969696680653240014914910929820314476107906210059990541021187"
      ],
      "assetValues": [
        1
      ]
    },
    {
      "reservedAddress": "0x9b8e0dcaaaaff050039ad8623c9a8674e4af0615",
      "assetIds": [
        "41506478881403507969696680653240014914910929820314476107906210059990541021187"
      ],
      "assetValues": [
        4
      ]
    },
    {
      "reservedAddress": "0x9df3ce27a24fbffe3a6921dbe10d0c33604eb5fa",
      "assetIds": [
        "41506478881403507969696680653240014914910929820314476107906210059990541021187"
      ],
      "assetValues": [
        2
      ]
    },
    {
      "reservedAddress": "0x9e85d3af5b6b7b59d3762c04fcdff06ce4834e5c",
      "assetIds": [
        "41506478881403507969696680653240014914910929820314476107906210059990541021187"
      ],
      "assetValues": [
        2
      ]
    },
    {
      "reservedAddress": "0xa1a1ea2f4ef2c85d24de68057939c1d2daf4a131",
      "assetIds": [
        "41506478881403507969696680653240014914910929820314476107906210059990541021187"
      ],
      "assetValues": [
        1
      ]
    },
    {
      "reservedAddress": "0xa205921cb6ffffe2c567804292406200bd0672b0",
      "assetIds": [
        "41506478881403507969696680653240014914910929820314476107906210059990541021187"
      ],
      "assetValues": [
        1
      ]
    },
    {
      "reservedAddress": "0xa5b6ed1711b0894b37bc9047f3ac141fb7cac490",
      "assetIds": [
        "41506478881403507969696680653240014914910929820314476107906210059990541021187"
      ],
      "assetValues": [
        1
      ]
    },
    {
      "reservedAddress": "0xa6a0079fa8c24868ecb16b9f890df3acdf815252",
      "assetIds": [
        "41506478881403507969696680653240014914910929820314476107906210059990541021187"
      ],
      "assetValues": [
        1
      ]
    },
    {
      "reservedAddress": "0xa819c50d511187ce0f6aa352427586d6d0c187f7",
      "assetIds": [
        "41506478881403507969696680653240014914910929820314476107906210059990541021187"
      ],
      "assetValues": [
        1
      ]
    },
    {
      "reservedAddress": "0xa9ccfcfceda22b98d6ab5729100b49e637326b2c",
      "assetIds": [
        "41506478881403507969696680653240014914910929820314476107906210059990541021187"
      ],
      "assetValues": [
        1
      ]
    },
    {
      "reservedAddress": "0xabb48f9e7fd70d304aef5e79d0e463fddd1fd90d",
      "assetIds": [
        "41506478881403507969696680653240014914910929820314476107906210059990541021187"
      ],
      "assetValues": [
        1
      ]
    },
    {
      "reservedAddress": "0xac1e9454384a28c81c78deea2d0a9814b51aed83",
      "assetIds": [
        "41506478881403507969696680653240014914910929820314476107906210059990541021187"
      ],
      "assetValues": [
        1
      ]
    },
    {
      "reservedAddress": "0xaf21ede42eaac990490ff9a55398beb96dce0526",
      "assetIds": [
        "41506478881403507969696680653240014914910929820314476107906210059990541021187"
      ],
      "assetValues": [
        1
      ]
    },
    {
      "reservedAddress": "0xb09511b387e0bbbd987fac4433aff5839dee5ef4",
      "assetIds": [
        "41506478881403507969696680653240014914910929820314476107906210059990541021187"
      ],
      "assetValues": [
        1
      ]
    },
    {
      "reservedAddress": "0xb0b6f83c89a636b35715b3034b91d789aa8ea115",
      "assetIds": [
        "41506478881403507969696680653240014914910929820314476107906210059990541021187"
      ],
      "assetValues": [
        1
      ]
    },
    {
      "reservedAddress": "0xb1aa108aee9b08b5e205daa7255d8053df0ccdad",
      "assetIds": [
        "41506478881403507969696680653240014914910929820314476107906210059990541021187"
      ],
      "assetValues": [
        1
      ]
    },
    {
      "reservedAddress": "0xb1e6c5db3465c1ca94e8bc76de80f38eea577e01",
      "assetIds": [
        "41506478881403507969696680653240014914910929820314476107906210059990541021187"
      ],
      "assetValues": [
        1
      ]
    },
    {
      "reservedAddress": "0xb61df49f901afa5f1ce3339143faca6b0e231f42",
      "assetIds": [
        "41506478881403507969696680653240014914910929820314476107906210059990541021187"
      ],
      "assetValues": [
        1
      ]
    },
    {
      "reservedAddress": "0xb8adcc8e382a7c43bdfa2e1c47059a1afec10e06",
      "assetIds": [
        "41506478881403507969696680653240014914910929820314476107906210059990541021187"
      ],
      "assetValues": [
        18
      ]
    },
    {
      "reservedAddress": "0xba8a7a0a3280c5a0025fbd363375a208c4edc1c5",
      "assetIds": [
        "41506478881403507969696680653240014914910929820314476107906210059990541021187"
      ],
      "assetValues": [
        1
      ]
    },
    {
      "reservedAddress": "0xbaa84e6a9e66fa0846931c6bf79e8c2763b50b9d",
      "assetIds": [
        "41506478881403507969696680653240014914910929820314476107906210059990541021187"
      ],
      "assetValues": [
        6
      ]
    },
    {
      "reservedAddress": "0xbc6ac7f8f5f8b2ff56bf5ab75b1d0bd5108a18e3",
      "assetIds": [
        "41506478881403507969696680653240014914910929820314476107906210059990541021187"
      ],
      "assetValues": [
        1
      ]
    },
    {
      "reservedAddress": "0xbe0a06c8880dab8c8a672cab2f1afbea33f2d428",
      "assetIds": [
        "41506478881403507969696680653240014914910929820314476107906210059990541021187"
      ],
      "assetValues": [
        1
      ]
    },
    {
      "reservedAddress": "0xc1d349468d717d55c210bcd789f2c56f916b9e9f",
      "assetIds": [
        "41506478881403507969696680653240014914910929820314476107906210059990541021187"
      ],
      "assetValues": [
        3
      ]
    },
    {
      "reservedAddress": "0xc4f2a6baa2bb21c04ffdd7cb497b6d5ea5840b0e",
      "assetIds": [
        "41506478881403507969696680653240014914910929820314476107906210059990541021187"
      ],
      "assetValues": [
        1
      ]
    },
    {
      "reservedAddress": "0xc71981cfc51dc814f8ec0a2db78e5ab29a3b5069",
      "assetIds": [
        "41506478881403507969696680653240014914910929820314476107906210059990541021187"
      ],
      "assetValues": [
        2
      ]
    },
    {
      "reservedAddress": "0xcb45adccd82d5379124702ba72904a43a5b6f584",
      "assetIds": [
        "41506478881403507969696680653240014914910929820314476107906210059990541021187"
      ],
      "assetValues": [
        5
      ]
    },
    {
      "reservedAddress": "0xcc844bbf3e5c0800ada73bc688fb1b4a2022e370",
      "assetIds": [
        "41506478881403507969696680653240014914910929820314476107906210059990541021187"
      ],
      "assetValues": [
        1
      ]
    },
    {
      "reservedAddress": "0xcd79d3172014de5f23ee141002ad1cc8336781de",
      "assetIds": [
        "41506478881403507969696680653240014914910929820314476107906210059990541021187"
      ],
      "assetValues": [
        1
      ]
    },
    {
      "reservedAddress": "0xd065f374360fa1480c0cdf6c98c288abccab7d48",
      "assetIds": [
        "41506478881403507969696680653240014914910929820314476107906210059990541021187"
      ],
      "assetValues": [
        1
      ]
    },
    {
      "reservedAddress": "0xd2c07c61fe042af46efcf87edba81e67dffbcd24",
      "assetIds": [
        "41506478881403507969696680653240014914910929820314476107906210059990541021187"
      ],
      "assetValues": [
        1
      ]
    },
    {
      "reservedAddress": "0xd3474bd2f558b12e83810ec7d8af14f2d1d08137",
      "assetIds": [
        "41506478881403507969696680653240014914910929820314476107906210059990541021187"
      ],
      "assetValues": [
        1
      ]
    },
    {
      "reservedAddress": "0xd5f997bbbbec8750e31f2851859ac75fd8272bc0",
      "assetIds": [
        "41506478881403507969696680653240014914910929820314476107906210059990541021187"
      ],
      "assetValues": [
        1
      ]
    },
    {
      "reservedAddress": "0xd89f88ab81820ab109689fabf47d68c35b7888d2",
      "assetIds": [
        "41506478881403507969696680653240014914910929820314476107906210059990541021187"
      ],
      "assetValues": [
        1
      ]
    },
    {
      "reservedAddress": "0xd941f5c21c8886c09d7787ddac6cd0dbfcd0a4fc",
      "assetIds": [
        "41506478881403507969696680653240014914910929820314476107906210059990541021187"
      ],
      "assetValues": [
        1
      ]
    },
    {
      "reservedAddress": "0xdd0a4223b501176c1ce551185c09c1ab0bc0599c",
      "assetIds": [
        "41506478881403507969696680653240014914910929820314476107906210059990541021187"
      ],
      "assetValues": [
        1
      ]
    },
    {
      "reservedAddress": "0xde1b33d69897a065b9da61b9ac21194c9e6dacd7",
      "assetIds": [
        "41506478881403507969696680653240014914910929820314476107906210059990541021187"
      ],
      "assetValues": [
        1
      ]
    },
    {
      "reservedAddress": "0xdf0f194039011ec37af91331148dc339311a5e59",
      "assetIds": [
        "41506478881403507969696680653240014914910929820314476107906210059990541021187"
      ],
      "assetValues": [
        1
      ]
    },
    {
      "reservedAddress": "0xe000d197600c7c79b972057302b224c3ff469e34",
      "assetIds": [
        "41506478881403507969696680653240014914910929820314476107906210059990541021187"
      ],
      "assetValues": [
        1
      ]
    },
    {
      "reservedAddress": "0xe43840e77829b2df75959b7107d172060ab6bd87",
      "assetIds": [
        "41506478881403507969696680653240014914910929820314476107906210059990541021187"
      ],
      "assetValues": [
        1
      ]
    },
    {
      "reservedAddress": "0xe6dabf4dcb44c7a630074eae8d6124319a8f109c",
      "assetIds": [
        "41506478881403507969696680653240014914910929820314476107906210059990541021187"
      ],
      "assetValues": [
        1
      ]
    },
    {
      "reservedAddress": "0xeadc2dfa080bc004d11771bd2f7d20d256217252",
      "assetIds": [
        "41506478881403507969696680653240014914910929820314476107906210059990541021187"
      ],
      "assetValues": [
        1
      ]
    },
    {
      "reservedAddress": "0xedbf3e389d6777a764e719439492c909d7228f69",
      "assetIds": [
        "41506478881403507969696680653240014914910929820314476107906210059990541021187"
      ],
      "assetValues": [
        1
      ]
    },
    {
      "reservedAddress": "0xee1c1f7a6c916b9d8e66f2bbf332c76dfc6cf6d1",
      "assetIds": [
        "41506478881403507969696680653240014914910929820314476107906210059990541021187"
      ],
      "assetValues": [
        1
      ]
    },
    {
      "reservedAddress": "0xee61b5408f80ed8fff296fdf8cb1495d6db60bc3",
      "assetIds": [
        "41506478881403507969696680653240014914910929820314476107906210059990541021187"
      ],
      "assetValues": [
        3
      ]
    },
    {
      "reservedAddress": "0xef23bcc2fbcca605ddc0b41108795411f73a4de3",
      "assetIds": [
        "41506478881403507969696680653240014914910929820314476107906210059990541021187"
      ],
      "assetValues": [
        1
      ]
    },
    {
      "reservedAddress": "0xf189e3733ac6644b1ed5d399365633247dac98e0",
      "assetIds": [
        "41506478881403507969696680653240014914910929820314476107906210059990541021187"
      ],
      "assetValues": [
        1
      ]
    },
    {
      "reservedAddress": "0xf421f93babcfa8b3b557016b702766d90698c574",
      "assetIds": [
        "41506478881403507969696680653240014914910929820314476107906210059990541021187"
      ],
      "assetValues": [
        1
      ]
    },
    {
      "reservedAddress": "0xf95d6be07f2fbcd69e9552bfc59a4251d3827582",
      "assetIds": [
        "41506478881403507969696680653240014914910929820314476107906210059990541021187"
      ],
      "assetValues": [
        1
      ]
    },
    {
      "reservedAddress": "0xfa4bd205e4be0cefa0c02f1dd79a14f4e6f0fc83",
      "assetIds": [
        "41506478881403507969696680653240014914910929820314476107906210059990541021187"
      ],
      "assetValues": [
        1
      ]
    },
    {
      "reservedAddress": "0xfa8118fec97722451e36e84be84c37dd960a1ef2",
      "assetIds": [
        "41506478881403507969696680653240014914910929820314476107906210059990541021187"
      ],
      "assetValues": [
        1
      ]
    },
    {
      "reservedAddress": "0xfad0ea578c6c63fe495dc0ef9cf73fc2c69e1f47",
      "assetIds": [
        "41506478881403507969696680653240014914910929820314476107906210059990541021187"
      ],
      "assetValues": [
        1
      ]
    },
    {
      "reservedAddress": "0xfbd80f23acc9107df8687a40b058b1aca0655d23",
      "assetIds": [
        "41506478881403507969696680653240014914910929820314476107906210059990541021187"
      ],
      "assetValues": [
        1
      ]
    },
    {
      "reservedAddress": "0xffdb1f9ffcf4e6c47033d2c75eb3e2baa8f8088b",
      "assetIds": [
        "41506478881403507969696680653240014914910929820314476107906210059990541021187"
      ],
      "assetValues": [
        1
      ]
    }
  ],
  "solcInputHash": "41dc59db22a04a09569f893665365c4c",
  "bytecode": "0x60e060405234801561001057600080fd5b50604051610e3b380380610e3b833981810160405260a081101561003357600080fd5b508051602082015160408301516060808501516080958601519185901b6001600160601b0319169095529293919290919084826001600160a01b0381166100775750305b606081811b6001600160601b03191660a052600080546001600160a01b0319166001600160a01b0398891617815560019690965560c0849052608051901c965094909416935091610d5991506100e2903980610442525080610aa5525080610a765250610d596000f3fe608060405234801561001057600080fd5b506004361061007d5760003560e01c80638f2839701161005b5780638f283970146101e9578063bc197c811461020f578063c884ef8314610371578063f23a6e61146103ab5761007d565b80631703e85c146100825780636e9960c3146101a85780637cb64759146101cc575b600080fd5b6101a6600480360360a081101561009857600080fd5b6001600160a01b0382351691908101906040810160208201356401000000008111156100c357600080fd5b8201836020820111156100d557600080fd5b803590602001918460208302840111640100000000831117156100f757600080fd5b91939092909160208101903564010000000081111561011557600080fd5b82018360208201111561012757600080fd5b8035906020019184602083028401116401000000008311171561014957600080fd5b91939092909160208101903564010000000081111561016757600080fd5b82018360208201111561017957600080fd5b8035906020019184602083028401116401000000008311171561019b57600080fd5b919350915035610440565b005b6101b06105d8565b604080516001600160a01b039092168252519081900360200190f35b6101a6600480360360208110156101e257600080fd5b50356105e7565b6101a6600480360360208110156101ff57600080fd5b50356001600160a01b03166106a0565b61033c600480360360a081101561022557600080fd5b6001600160a01b03823581169260208101359091169181019060608101604082013564010000000081111561025957600080fd5b82018360208201111561026b57600080fd5b8035906020019184602083028401116401000000008311171561028d57600080fd5b9193909290916020810190356401000000008111156102ab57600080fd5b8201836020820111156102bd57600080fd5b803590602001918460208302840111640100000000831117156102df57600080fd5b9193909290916020810190356401000000008111156102fd57600080fd5b82018360208201111561030f57600080fd5b8035906020019184600183028401116401000000008311171561033157600080fd5b509092509050610781565b604080517fffffffff000000000000000000000000000000000000000000000000000000009092168252519081900360200190f35b6103976004803603602081101561038757600080fd5b50356001600160a01b03166107ae565b604080519115158252519081900360200190f35b61033c600480360360a08110156103c157600080fd5b6001600160a01b03823581169260208101359091169160408201359160608101359181019060a08101608082013564010000000081111561040157600080fd5b82018360208201111561041357600080fd5b8035906020019184600183028401116401000000008311171561043557600080fd5b5090925090506107c3565b7f000000000000000000000000000000000000000000000000000000000000000042106104b4576040805162461bcd60e51b815260206004820152601460248201527f434c41494d5f504552494f445f49535f4f564552000000000000000000000000604482015290519081900360640190fd5b6001600160a01b03881661050f576040805162461bcd60e51b815260206004820152601760248201527f494e56414c49445f544f5f5a45524f5f41444452455353000000000000000000604482015290519081900360640190fd5b6001600160a01b03881660009081526002602052604090205460ff161561057d576040805162461bcd60e51b815260206004820152601b60248201527f44455354494e4154494f4e5f414c52454144595f434c41494d45440000000000604482015290519081900360640190fd5b6001600160a01b038816600090815260026020526040902080547fffffffffffffffffffffffffffffffffffffffffffffffffffffffffffffff001660011790556105ce88888888888888886107ee565b5050505050505050565b6000546001600160a01b031690565b6000546001600160a01b03163314610646576040805162461bcd60e51b815260206004820152600a60248201527f41444d494e5f4f4e4c5900000000000000000000000000000000000000000000604482015290519081900360640190fd5b6001541561069b576040805162461bcd60e51b815260206004820152601760248201527f4d45524b4c455f524f4f545f414c52454144595f534554000000000000000000604482015290519081900360640190fd5b600155565b6000546001600160a01b031633146106ff576040805162461bcd60e51b815260206004820152601360248201527f41444d494e5f4143434553535f44454e49454400000000000000000000000000604482015290519081900360640190fd5b600054604080516001600160a01b039283168152918316602083015280517f7e644d79422f17c01e4894b5f4f588d331ebfa28653d42ae832dc59e38c9798f9281900390910190a1600080547fffffffffffffffffffffffff0000000000000000000000000000000000000000166001600160a01b0392909216919091179055565b7fbc197c810000000000000000000000000000000000000000000000000000000098975050505050505050565b60026020526000908152604090205460ff1681565b7ff23a6e61000000000000000000000000000000000000000000000000000000009695505050505050565b61088f8888888080602002602001604051908101604052809392919081815260200183836020028082843760009201919091525050604080516020808c0282810182019093528b82529093508b92508a91829185019084908082843760009201919091525050604080516020808b0282810182019093528a82529093508a9250899182918501908490808284376000920191909152508892506109ab915050565b6108fd8888888080602002602001604051908101604052809392919081815260200183836020028082843760009201919091525050604080516020808c0282810182019093528b82529093508b92508a918291850190849080828437600092019190915250610a7492505050565b7f7197de5398384ebaa85c57406356f07bec2ea8a342960e5445ac084ae8fa2651888888888860405180866001600160a01b0316815260200180602001806020018381038352878782818152602001925060200280828437600083820152601f01601f19169091018481038352858152602090810191508690860280828437600083820152604051601f909101601f1916909201829003995090975050505050505050a15050505050505050565b8251845114610a01576040805162461bcd60e51b815260206004820152600d60248201527f494e56414c49445f494e50555400000000000000000000000000000000000000604482015290519081900360640190fd5b6000610a0f86868685610bd1565b9050610a1b8382610c78565b610a6c576040805162461bcd60e51b815260206004820152600d60248201527f494e56414c49445f434c41494d00000000000000000000000000000000000000604482015290519081900360640190fd5b505050505050565b7f00000000000000000000000000000000000000000000000000000000000000006001600160a01b0316632eb2c2d67f00000000000000000000000000000000000000000000000000000000000000008585856040518563ffffffff1660e01b815260040180856001600160a01b03168152602001846001600160a01b03168152602001806020018060200180602001848103845286818151815260200191508051906020019060200280838360005b83811015610b3c578181015183820152602001610b24565b50505050905001848103835285818151815260200191508051906020019060200280838360005b83811015610b7b578181015183820152602001610b63565b50505050905001848103825260008152602001602001975050505050505050600060405180830381600087803b158015610bb457600080fd5b505af1158015610bc8573d6000803e3d6000fd5b50505050505050565b60008484848460405160200180856001600160a01b031660601b8152601401848051906020019060200280838360005b83811015610c19578181015183820152602001610c01565b50505050905001838051906020019060200280838360005b83811015610c49578181015183820152602001610c31565b505050509190910192835250506040805180830381526020928301909152805191012098975050505050505050565b600081815b8451811015610d17576000858281518110610c9457fe5b6020026020010151905080831015610cdc5782816040516020018083815260200182815260200192505050604051602081830303815290604052805190602001209250610d0e565b808360405160200180838152602001828152602001925050506040516020818303038152906040528051906020012092505b50600101610c7d565b5060015414939250505056fea2646970667358221220317bbaa3d47a7e1dfdd73913dadb7aa6fa00fb0add486bd7b2f7c5b04d03ccd464736f6c63430007050033",
  "devdoc": {
    "kind": "dev",
    "methods": {
      "changeAdmin(address)": {
        "details": "Change the administrator to be `newAdmin`.",
        "params": {
          "newAdmin": "The address of the new administrator."
        }
      },
      "claimAssets(address,uint256[],uint256[],bytes32[],bytes32)": {
        "params": {
          "assetIds": "The array of IDs of the asset tokens.",
          "assetValues": "The amounts of each token ID to transfer.",
          "proof": "The proof submitted for verification.",
          "salt": "The salt submitted for verification.",
          "to": "The intended recipient (reserved address) of the ERC1155 tokens."
        }
      },
      "getAdmin()": {
        "details": "Get the current administrator of this contract.",
        "returns": {
          "_0": "The current administrator of this contract."
        }
      },
      "setMerkleRoot(bytes32)": {
        "params": {
          "merkleRoot": "The merkle root hash of the asset data."
        }
      }
    },
    "title": "AssetGiveaway contract.",
    "version": 1
  },
  "userdoc": {
    "kind": "user",
    "methods": {
      "claimAssets(address,uint256[],uint256[],bytes32[],bytes32)": {
        "notice": "Function to permit the claiming of an asset to a reserved address."
      },
      "setMerkleRoot(bytes32)": {
        "notice": "Function to set the merkle root hash for the asset data, if it is 0."
      }
    },
    "notice": "This contract manages ERC1155 claims.",
    "version": 1
  },
  "storageLayout": {
    "storage": [
      {
        "astId": 7710,
        "contract": "src/solc_0.7/claims/AssetGiveaway/AssetGiveaway.sol:AssetGiveaway",
        "label": "_admin",
        "offset": 0,
        "slot": "0",
        "type": "t_address"
      },
      {
        "astId": 5404,
        "contract": "src/solc_0.7/claims/AssetGiveaway/AssetGiveaway.sol:AssetGiveaway",
        "label": "_merkleRoot",
        "offset": 0,
        "slot": "1",
        "type": "t_bytes32"
      },
      {
        "astId": 5249,
        "contract": "src/solc_0.7/claims/AssetGiveaway/AssetGiveaway.sol:AssetGiveaway",
        "label": "claimed",
        "offset": 0,
        "slot": "2",
        "type": "t_mapping(t_address,t_bool)"
      }
    ],
    "types": {
      "t_address": {
        "encoding": "inplace",
        "label": "address",
        "numberOfBytes": "20"
      },
      "t_bool": {
        "encoding": "inplace",
        "label": "bool",
        "numberOfBytes": "1"
      },
      "t_bytes32": {
        "encoding": "inplace",
        "label": "bytes32",
        "numberOfBytes": "32"
      },
      "t_mapping(t_address,t_bool)": {
        "encoding": "mapping",
        "key": "t_address",
        "label": "mapping(address => bool)",
        "numberOfBytes": "32",
        "value": "t_bool"
      }
    }
  }
}