{
  "address": "0x1dDb5F5FeD55082ACac08Ec16e0036Bd75614E14",
  "abi": [
    {
      "inputs": [
        {
          "internalType": "address",
          "name": "landAddress",
          "type": "address"
        },
        {
          "internalType": "address",
          "name": "sandContractAddress",
          "type": "address"
        },
        {
          "internalType": "address",
          "name": "initialMetaTx",
          "type": "address"
        },
        {
          "internalType": "address",
          "name": "admin",
          "type": "address"
        },
        {
          "internalType": "address payable",
          "name": "initialWalletAddress",
          "type": "address"
        },
        {
          "internalType": "bytes32",
          "name": "merkleRoot",
          "type": "bytes32"
        },
        {
          "internalType": "uint256",
          "name": "expiryTime",
          "type": "uint256"
        },
        {
          "internalType": "address",
          "name": "initialSigningWallet",
          "type": "address"
        },
        {
          "internalType": "uint256",
          "name": "initialMaxCommissionRate",
          "type": "uint256"
        },
        {
          "internalType": "address",
          "name": "estate",
          "type": "address"
        },
        {
          "internalType": "address",
          "name": "asset",
          "type": "address"
        },
        {
          "internalType": "address",
          "name": "feeDistributor",
          "type": "address"
        }
      ],
      "stateMutability": "nonpayable",
      "type": "constructor"
    },
    {
      "anonymous": false,
      "inputs": [
        {
          "indexed": false,
          "internalType": "address",
          "name": "oldAdmin",
          "type": "address"
        },
        {
          "indexed": false,
          "internalType": "address",
          "name": "newAdmin",
          "type": "address"
        }
      ],
      "name": "AdminChanged",
      "type": "event"
    },
    {
      "anonymous": false,
      "inputs": [
        {
          "indexed": true,
          "internalType": "address",
          "name": "buyer",
          "type": "address"
        },
        {
          "indexed": true,
          "internalType": "address",
          "name": "to",
          "type": "address"
        },
        {
          "indexed": true,
          "internalType": "uint256",
          "name": "topCornerId",
          "type": "uint256"
        },
        {
          "indexed": false,
          "internalType": "uint256",
          "name": "size",
          "type": "uint256"
        },
        {
          "indexed": false,
          "internalType": "uint256",
          "name": "price",
          "type": "uint256"
        },
        {
          "indexed": false,
          "internalType": "address",
          "name": "token",
          "type": "address"
        },
        {
          "indexed": false,
          "internalType": "uint256",
          "name": "amountPaid",
          "type": "uint256"
        }
      ],
      "name": "LandQuadPurchased",
      "type": "event"
    },
    {
      "anonymous": false,
      "inputs": [
        {
          "indexed": false,
          "internalType": "address",
          "name": "metaTransactionProcessor",
          "type": "address"
        },
        {
          "indexed": false,
          "internalType": "bool",
          "name": "enabled",
          "type": "bool"
        }
      ],
      "name": "MetaTransactionProcessor",
      "type": "event"
    },
    {
      "anonymous": false,
      "inputs": [
        {
          "indexed": true,
          "internalType": "address",
          "name": "referrer",
          "type": "address"
        },
        {
          "indexed": true,
          "internalType": "address",
          "name": "referee",
          "type": "address"
        },
        {
          "indexed": true,
          "internalType": "address",
          "name": "token",
          "type": "address"
        },
        {
          "indexed": false,
          "internalType": "uint256",
          "name": "amount",
          "type": "uint256"
        },
        {
          "indexed": false,
          "internalType": "uint256",
          "name": "commission",
          "type": "uint256"
        },
        {
          "indexed": false,
          "internalType": "uint256",
          "name": "commissionRate",
          "type": "uint256"
        }
      ],
      "name": "ReferralUsed",
      "type": "event"
    },
    {
      "inputs": [
        {
          "internalType": "address",
          "name": "buyer",
          "type": "address"
        },
        {
          "internalType": "address",
          "name": "to",
          "type": "address"
        },
        {
          "internalType": "address",
          "name": "reserved",
          "type": "address"
        },
        {
          "internalType": "uint256",
          "name": "x",
          "type": "uint256"
        },
        {
          "internalType": "uint256",
          "name": "y",
          "type": "uint256"
        },
        {
          "internalType": "uint256",
          "name": "size",
          "type": "uint256"
        },
        {
          "internalType": "uint256",
          "name": "priceInSand",
          "type": "uint256"
        },
        {
          "internalType": "uint256",
          "name": "adjustedPriceInSand",
          "type": "uint256"
        },
        {
          "internalType": "bytes32",
          "name": "salt",
          "type": "bytes32"
        },
        {
          "internalType": "uint256[]",
          "name": "assetIds",
          "type": "uint256[]"
        },
        {
          "internalType": "bytes32[]",
          "name": "proof",
          "type": "bytes32[]"
        },
        {
          "internalType": "bytes",
          "name": "referral",
          "type": "bytes"
        }
      ],
      "name": "buyLandWithSand",
      "outputs": [],
      "stateMutability": "nonpayable",
      "type": "function"
    },
    {
      "inputs": [
        {
          "internalType": "address",
          "name": "newAdmin",
          "type": "address"
        }
      ],
      "name": "changeAdmin",
      "outputs": [],
      "stateMutability": "nonpayable",
      "type": "function"
    },
    {
      "inputs": [
        {
          "internalType": "bytes",
          "name": "referral",
          "type": "bytes"
        }
      ],
      "name": "decodeReferral",
      "outputs": [
        {
          "internalType": "bytes",
          "name": "",
          "type": "bytes"
        },
        {
          "internalType": "address",
          "name": "",
          "type": "address"
        },
        {
          "internalType": "address",
          "name": "",
          "type": "address"
        },
        {
          "internalType": "uint256",
          "name": "",
          "type": "uint256"
        },
        {
          "internalType": "uint256",
          "name": "",
          "type": "uint256"
        }
      ],
      "stateMutability": "pure",
      "type": "function"
    },
    {
      "inputs": [],
      "name": "getAdmin",
      "outputs": [
        {
          "internalType": "address",
          "name": "",
          "type": "address"
        }
      ],
      "stateMutability": "view",
      "type": "function"
    },
    {
      "inputs": [],
      "name": "getExpiryTime",
      "outputs": [
        {
          "internalType": "uint256",
          "name": "",
          "type": "uint256"
        }
      ],
      "stateMutability": "view",
      "type": "function"
    },
    {
      "inputs": [],
      "name": "getMaxCommisionRate",
      "outputs": [
        {
          "internalType": "uint256",
          "name": "",
          "type": "uint256"
        }
      ],
      "stateMutability": "view",
      "type": "function"
    },
    {
      "inputs": [],
      "name": "getMerkleRoot",
      "outputs": [
        {
          "internalType": "bytes32",
          "name": "",
          "type": "bytes32"
        }
      ],
      "stateMutability": "view",
      "type": "function"
    },
    {
      "inputs": [],
      "name": "getSandMultiplier",
      "outputs": [
        {
          "internalType": "uint256",
          "name": "",
          "type": "uint256"
        }
      ],
      "stateMutability": "view",
      "type": "function"
    },
    {
      "inputs": [],
      "name": "getSigningWallet",
      "outputs": [
        {
          "internalType": "address",
          "name": "",
          "type": "address"
        }
      ],
      "stateMutability": "view",
      "type": "function"
    },
    {
      "inputs": [
        {
          "internalType": "address",
          "name": "who",
          "type": "address"
        }
      ],
      "name": "isMetaTransactionProcessor",
      "outputs": [
        {
          "internalType": "bool",
          "name": "",
          "type": "bool"
        }
      ],
      "stateMutability": "view",
      "type": "function"
    },
    {
      "inputs": [
        {
          "internalType": "bytes",
          "name": "signature",
          "type": "bytes"
        },
        {
          "internalType": "address",
          "name": "referrer",
          "type": "address"
        },
        {
          "internalType": "address",
          "name": "referee",
          "type": "address"
        },
        {
          "internalType": "uint256",
          "name": "expiryTime",
          "type": "uint256"
        },
        {
          "internalType": "uint256",
          "name": "commissionRate",
          "type": "uint256"
        }
      ],
      "name": "isReferralValid",
      "outputs": [
        {
          "internalType": "bool",
          "name": "",
          "type": "bool"
        }
      ],
      "stateMutability": "view",
      "type": "function"
    },
    {
      "inputs": [
        {
          "internalType": "address",
          "name": "",
          "type": "address"
        },
        {
          "internalType": "address",
          "name": "",
          "type": "address"
        },
        {
          "internalType": "uint256[]",
          "name": "",
          "type": "uint256[]"
        },
        {
          "internalType": "uint256[]",
          "name": "",
          "type": "uint256[]"
        },
        {
          "internalType": "bytes",
          "name": "",
          "type": "bytes"
        }
      ],
      "name": "onERC1155BatchReceived",
      "outputs": [
        {
          "internalType": "bytes4",
          "name": "",
          "type": "bytes4"
        }
      ],
      "stateMutability": "pure",
      "type": "function"
    },
    {
      "inputs": [
        {
          "internalType": "address",
          "name": "",
          "type": "address"
        },
        {
          "internalType": "address",
          "name": "",
          "type": "address"
        },
        {
          "internalType": "uint256",
          "name": "",
          "type": "uint256"
        },
        {
          "internalType": "uint256",
          "name": "",
          "type": "uint256"
        },
        {
          "internalType": "bytes",
          "name": "",
          "type": "bytes"
        }
      ],
      "name": "onERC1155Received",
      "outputs": [
        {
          "internalType": "bytes4",
          "name": "",
          "type": "bytes4"
        }
      ],
      "stateMutability": "pure",
      "type": "function"
    },
    {
      "inputs": [
        {
          "internalType": "uint256",
          "name": "newMultiplier",
          "type": "uint256"
        }
      ],
      "name": "rebalanceSand",
      "outputs": [],
      "stateMutability": "nonpayable",
      "type": "function"
    },
    {
      "inputs": [
        {
          "internalType": "address",
          "name": "metaTransactionProcessor",
          "type": "address"
        },
        {
          "internalType": "bool",
          "name": "enabled",
          "type": "bool"
        }
      ],
      "name": "setMetaTransactionProcessor",
      "outputs": [],
      "stateMutability": "nonpayable",
      "type": "function"
    },
    {
      "inputs": [
        {
          "internalType": "address payable",
          "name": "newWallet",
          "type": "address"
        }
      ],
      "name": "setReceivingWallet",
      "outputs": [],
      "stateMutability": "nonpayable",
      "type": "function"
    },
    {
      "inputs": [
        {
          "internalType": "uint256",
          "name": "newMaxCommissionRate",
          "type": "uint256"
        }
      ],
      "name": "updateMaxCommissionRate",
      "outputs": [],
      "stateMutability": "nonpayable",
      "type": "function"
    },
    {
      "inputs": [
        {
          "internalType": "address",
          "name": "newSigningWallet",
          "type": "address"
        }
      ],
      "name": "updateSigningWallet",
      "outputs": [],
      "stateMutability": "nonpayable",
      "type": "function"
    },
    {
      "inputs": [
        {
          "internalType": "address",
          "name": "to",
          "type": "address"
        },
        {
          "internalType": "uint256[]",
          "name": "assetIds",
          "type": "uint256[]"
        },
        {
          "internalType": "uint256[]",
          "name": "values",
          "type": "uint256[]"
        }
      ],
      "name": "withdrawAssets",
      "outputs": [],
      "stateMutability": "nonpayable",
      "type": "function"
    }
  ],
  "transactionHash": "0x255bc0033fff19b0c1098f3823bbb213a57554dcbf2584f2e654db8304bf5fb0",
  "args": [
    "0xaF40A483bF77AAb7b7D13dB18187E6D62C1EA41b",
    "0xCc933a862fc15379E441F2A16Cb943D385a4695f",
    "0xCc933a862fc15379E441F2A16Cb943D385a4695f",
    "0xa4519D601F43D0b8f167842a367465681F652252",
    "0x60927eB036621b801491B6c5e9A60A8d2dEeD75A",
    "0x4c3748b74a7f6f8d58fd7a1067f6cca52d7ea4d6fd400404b855418df9e7dbf1",
    1662728400,
    "0xB7060D3FeCAC3AE1F0A0AA416E3e8E472257950e",
    2000,
    "0x0000000000000000000000000000000000000000",
    "0x8055a2c0f7EB177BeaB357B70E6504402d2b5fF6",
    "0x5983532A5b9009E05428595b87F19e42068a232B"
  ],
  "linkedData": [
    {
      "x": 0,
      "y": 328,
      "size": 1,
      "price": "1011000000000000000000",
      "reserved": "",
      "salt": "0xecca596bc5b548ae94d4e39cf3955b64f2c206d507ebb227f2ce92b6318d3300",
      "assetIds": []
    },
    {
      "x": 0,
      "y": 329,
      "size": 1,
      "price": "1011000000000000000000",
      "reserved": "0x7a9fe22691c811ea339d9b73150e6911a5343dca",
      "salt": "0x14f2537a5d9375f7403f90df071d799e1e513d6814097d06bee1f0b94c1c57a2",
      "assetIds": []
    },
    {
      "x": 0,
      "y": 330,
      "size": 1,
      "price": "1011000000000000000000",
      "reserved": "",
      "salt": "0x78cee5ccb5daa42fed887b9295808f0cb200693cc6fd5f2b570b633d6ad44704",
      "assetIds": []
    },
    {
      "x": 0,
      "y": 331,
      "size": 1,
      "price": "1011000000000000000000",
      "reserved": "",
      "salt": "0xc83ae296edefd8cb4737dccf865f7769179df60a4010d565527ad11908e5d256",
      "assetIds": []
    },
    {
      "x": 0,
      "y": 332,
      "size": 1,
      "price": "1011000000000000000000",
      "reserved": "",
      "salt": "0xe17bc15e69c67f87cf8fa33714b3e05b3d3ac401b1ff675418a2be68d748042c",
      "assetIds": []
    },
    {
      "x": 0,
      "y": 333,
      "size": 1,
      "price": "1011000000000000000000",
      "reserved": "",
      "salt": "0x0ec8c85515a38255be4445207dd6b1910efe78feed62e07f7404d893eabdc5aa",
      "assetIds": []
    },
    {
      "x": 0,
      "y": 334,
      "size": 1,
      "price": "1011000000000000000000",
      "reserved": "0x7a9fe22691c811ea339d9b73150e6911a5343dca",
      "salt": "0x5d8e51748c68ca27dc020b075d0cc95c71953b6509a002bacda0356cf8f98552",
      "assetIds": []
    },
    {
      "x": 0,
      "y": 335,
      "size": 1,
      "price": "1011000000000000000000",
      "reserved": "",
      "salt": "0x4ef776a04c5d8b2e94d722a717df75604b3717cb94949fba3fd9e03a0b4ba5a8",
      "assetIds": []
    },
    {
      "x": 0,
      "y": 336,
      "size": 1,
      "price": "1011000000000000000000",
      "reserved": "",
      "salt": "0xffa001f43b44bb1d9cf10418e258b6739e8c8f35994b81b9ab7403ef92ff65d9",
      "assetIds": []
    },
    {
      "x": 0,
      "y": 337,
      "size": 1,
      "price": "1011000000000000000000",
      "reserved": "",
      "salt": "0xbf41f8bc2f5afb2ce25a655a4258c76e2d17813d6c04c814400307ef1337f55e",
      "assetIds": []
    },
    {
      "x": 0,
      "y": 338,
      "size": 1,
      "price": "1011000000000000000000",
      "reserved": "0x7a9fe22691c811ea339d9b73150e6911a5343dca",
      "salt": "0xad82b5eed21476e10d4045c3405784240510d3e0c585e1180ecd440a39ccda03",
      "assetIds": []
    },
    {
      "x": 0,
      "y": 339,
      "size": 1,
      "price": "4683000000000000000000",
      "reserved": "",
      "salt": "0x1b268c243f296ff1e27da9e5618ac922d52afa8f2923fab3addfc0094503c4b7",
      "assetIds": [
        "41506478881403507969696680653240014914910929820314476107906210059990541021188"
      ]
    },
    {
      "x": 0,
      "y": 340,
      "size": 1,
      "price": "4683000000000000000000",
      "reserved": "",
      "salt": "0x1cdf0dc74ad7079c77356a8ba7ac00a1b9faf7b5a0e010c2df75a6c206b17478",
      "assetIds": [
        "41506478881403507969696680653240014914910929820314476107906210059990541021188"
      ]
    },
    {
      "x": 0,
      "y": 341,
      "size": 1,
      "price": "4683000000000000000000",
      "reserved": "",
      "salt": "0x5aa3da625eff8201d7512c46bce8174d57abc055579c7c4cdd9c4e128180b246",
      "assetIds": [
        "41506478881403507969696680653240014914910929820314476107906210059990541021188"
      ]
    },
    {
      "x": 0,
      "y": 342,
      "size": 1,
      "price": "1011000000000000000000",
      "reserved": "0x7a9fe22691c811ea339d9b73150e6911a5343dca",
      "salt": "0xe6f0d631046667fb1ddff606ae02c6b011024325eda8ff0538606f472cc9c97f",
      "assetIds": []
    },
    {
      "x": 0,
      "y": 343,
      "size": 1,
      "price": "1011000000000000000000",
      "reserved": "0x7a9fe22691c811ea339d9b73150e6911a5343dca",
      "salt": "0xfa346c866bac90b891751cc1fc0dfea6a33dba70251b913cf75d21dae97aec1f",
      "assetIds": []
    },
    {
      "x": 0,
      "y": 344,
      "size": 1,
      "price": "1011000000000000000000",
      "reserved": "0x7a9fe22691c811ea339d9b73150e6911a5343dca",
      "salt": "0xce7c3026179f102482eae1a55e8ea89753918d7bb5f0eed6158d1d3097ac2327",
      "assetIds": []
    },
    {
      "x": 0,
      "y": 348,
      "size": 1,
      "price": "1011000000000000000000",
      "reserved": "",
      "salt": "0x8c4f0084c86eb5f196c3a1498604c45cfbe707becd87f36c9a2b43dd1c7c7f4e",
      "assetIds": []
    },
    {
      "x": 0,
      "y": 349,
      "size": 1,
      "price": "1011000000000000000000",
      "reserved": "0x7a9fe22691c811ea339d9b73150e6911a5343dca",
      "salt": "0x72bb43e41ba44ecc13c36cb9933a064a72fbc4375f9560e71ffe81ea9da616bf",
      "assetIds": []
    },
    {
      "x": 0,
      "y": 350,
      "size": 1,
      "price": "1011000000000000000000",
      "reserved": "",
      "salt": "0x64d359588dd6b22f739a7d77703d7d59582fd1748ad5b7d5111a090417d6e8fc",
      "assetIds": []
    },
    {
      "x": 0,
      "y": 351,
      "size": 1,
      "price": "1011000000000000000000",
      "reserved": "",
      "salt": "0x6f2443e683e14bb79e8ba6a521454d74bc310b5631af3bb81a5038d26cf4a9b1",
      "assetIds": []
    },
    {
      "x": 0,
      "y": 352,
      "size": 1,
      "price": "1011000000000000000000",
      "reserved": "0x7a9fe22691c811ea339d9b73150e6911a5343dca",
      "salt": "0x52166e436d412c305f6a1bec7c08ff86cf9efb3827d46b1ff7994fecb1aa0f69",
      "assetIds": []
    },
    {
      "x": 0,
      "y": 353,
      "size": 1,
      "price": "1011000000000000000000",
      "reserved": "",
      "salt": "0x3784f5b36558d804af1574973f968fd3d7ac102156054dda3cf16cc73aa4da8b",
      "assetIds": []
    },
    {
      "x": 0,
      "y": 354,
      "size": 1,
      "price": "1011000000000000000000",
      "reserved": "",
      "salt": "0x60c1e6425e9052777111cd214bd58e10237280767ef1575a29d60adea478f5cd",
      "assetIds": []
    },
    {
      "x": 0,
      "y": 355,
      "size": 1,
      "price": "1011000000000000000000",
      "reserved": "",
      "salt": "0x9c956299cf39adf9ca437b1c41184a6fc32d360ed1a195aa97a7856524e9f001",
      "assetIds": []
    },
    {
      "x": 0,
      "y": 356,
      "size": 1,
      "price": "1011000000000000000000",
      "reserved": "0x7a9fe22691c811ea339d9b73150e6911a5343dca",
      "salt": "0x073d45a77aec0bdb81de44c3a2d46535f8541c8b0801c582ba09a49d59f6cb3d",
      "assetIds": []
    },
    {
      "x": 1,
      "y": 328,
      "size": 1,
      "price": "1011000000000000000000",
      "reserved": "",
      "salt": "0xb82c3eb3343c0fab5aee148d8356048d17c119c4ad05b2066928ca49f447be72",
      "assetIds": []
    },
    {
      "x": 1,
      "y": 329,
      "size": 1,
      "price": "1011000000000000000000",
      "reserved": "",
      "salt": "0x845330b99d1c892af3c8c7993c2e6a061ecbdd3260763ac6731dd08ce9c8ae9f",
      "assetIds": []
    },
    {
      "x": 1,
      "y": 330,
      "size": 1,
      "price": "1011000000000000000000",
      "reserved": "",
      "salt": "0x66a83257f9bd895e203a47ddbbed65ff94dd9754b88a68df8d3c61e6b4998b10",
      "assetIds": []
    },
    {
      "x": 1,
      "y": 331,
      "size": 1,
      "price": "1011000000000000000000",
      "reserved": "",
      "salt": "0x90d64d090314b08334aa43e23978ccd2e5145849d313f2c8a6cb80e2408a9bc0",
      "assetIds": []
    },
    {
      "x": 1,
      "y": 332,
      "size": 1,
      "price": "1011000000000000000000",
      "reserved": "",
      "salt": "0x96f2bc3e49fe767aa160da455664b96a7341edfc9b3970ec849133707506a344",
      "assetIds": []
    },
    {
      "x": 1,
      "y": 333,
      "size": 1,
      "price": "1011000000000000000000",
      "reserved": "",
      "salt": "0x3bbf3b58a47f093eea72c6e704449718e0c0934a8382a11dcc0fa1976c81a42f",
      "assetIds": []
    },
    {
      "x": 1,
      "y": 334,
      "size": 1,
      "price": "1011000000000000000000",
      "reserved": "",
      "salt": "0xaee90609505f35496ccad8e69e84377a7088d47370c91a1bf417df91943e0a00",
      "assetIds": []
    },
    {
      "x": 1,
      "y": 335,
      "size": 1,
      "price": "1011000000000000000000",
      "reserved": "",
      "salt": "0x6b90524d9b59d0c7397eba60bca69426404b331af1abe66403e8f4372a16c5db",
      "assetIds": []
    },
    {
      "x": 1,
      "y": 336,
      "size": 1,
      "price": "1011000000000000000000",
      "reserved": "0x7a9fe22691c811ea339d9b73150e6911a5343dca",
      "salt": "0x2a61da292cee94e78e2d96715106a71652760b5b8961e903ccc6b941d150f05e",
      "assetIds": []
    },
    {
      "x": 1,
      "y": 337,
      "size": 1,
      "price": "4683000000000000000000",
      "reserved": "",
      "salt": "0x3aa5c3f0437c064f1283ae6084e288698838d0c5146d9e7df5061ceaef4883fe",
      "assetIds": [
        "41506478881403507969696680653240014914910929820314476107906210059990541021188"
      ]
    },
    {
      "x": 1,
      "y": 338,
      "size": 1,
      "price": "4683000000000000000000",
      "reserved": "",
      "salt": "0x04d2e468ba6fcaaf44f07ab727576602aa4449b21b57cbfb985ad9ea80274735",
      "assetIds": [
        "41506478881403507969696680653240014914910929820314476107906210059990541021188"
      ]
    },
    {
      "x": 1,
      "y": 339,
      "size": 1,
      "price": "4683000000000000000000",
      "reserved": "",
      "salt": "0x6225075b0e4a9976157d2914921c2a46180f52beee3e7a0d2cf87452bdfc859c",
      "assetIds": [
        "41506478881403507969696680653240014914910929820314476107906210059990541021188"
      ]
    },
    {
      "x": 1,
      "y": 340,
      "size": 1,
      "price": "4683000000000000000000",
      "reserved": "",
      "salt": "0x9fef3c2de033e2e706b81dcb446150eb724f4c84796a879090bc405b22795916",
      "assetIds": [
        "41506478881403507969696680653240014914910929820314476107906210059990541021188"
      ]
    },
    {
      "x": 1,
      "y": 341,
      "size": 1,
      "price": "4683000000000000000000",
      "reserved": "",
      "salt": "0x21bfa9c0715c14bb5346d2c113177dc595a3e0865630ca01117985d9a7194c26",
      "assetIds": [
        "41506478881403507969696680653240014914910929820314476107906210059990541021188"
      ]
    },
    {
      "x": 1,
      "y": 342,
      "size": 1,
      "price": "4683000000000000000000",
      "reserved": "",
      "salt": "0x92c3f32d606bd9fcf425561d01ebb257de8106aae1433bf8fb213109d8bfc88c",
      "assetIds": [
        "41506478881403507969696680653240014914910929820314476107906210059990541021188"
      ]
    },
    {
      "x": 1,
      "y": 343,
      "size": 1,
      "price": "4683000000000000000000",
      "reserved": "",
      "salt": "0x08f5350a319bb1b71a4b52f25665f488bf88849d731e73576a5e9ca8ea52af84",
      "assetIds": [
        "41506478881403507969696680653240014914910929820314476107906210059990541021188"
      ]
    },
    {
      "x": 1,
      "y": 344,
      "size": 1,
      "price": "4683000000000000000000",
      "reserved": "",
      "salt": "0xe001c77745b5d5f2237a79c118777c1c5a41ace0e808234a0c9d1ad1e23c9efd",
      "assetIds": [
        "41506478881403507969696680653240014914910929820314476107906210059990541021188"
      ]
    },
    {
      "x": 1,
      "y": 348,
      "size": 1,
      "price": "1011000000000000000000",
      "reserved": "",
      "salt": "0xfbdd50efa02c04f31a5fe95497531eef0f682f317c25b6dc20c0d2ffad237571",
      "assetIds": []
    },
    {
      "x": 1,
      "y": 349,
      "size": 1,
      "price": "1011000000000000000000",
      "reserved": "0x7a9fe22691c811ea339d9b73150e6911a5343dca",
      "salt": "0xa621de2da6fefb977b28e08532d698fcc6212c8a300e653392499d4a5619f14a",
      "assetIds": []
    },
    {
      "x": 1,
      "y": 350,
      "size": 1,
      "price": "1011000000000000000000",
      "reserved": "",
      "salt": "0xc72da24bc26521f07082eb2bb4dec997d30c19885ccf917776691decbbb1f1ff",
      "assetIds": []
    },
    {
      "x": 1,
      "y": 351,
      "size": 1,
      "price": "1011000000000000000000",
      "reserved": "",
      "salt": "0x9aa73972ed23446ac7755ee25833054af8951ef3693e0e1cf067c069414f1625",
      "assetIds": []
    },
    {
      "x": 1,
      "y": 352,
      "size": 1,
      "price": "1011000000000000000000",
      "reserved": "",
      "salt": "0x5d364166e8f9560a50b24fa5a9e09878744fd8ce8d991a9fbdaddc5eab6727df",
      "assetIds": []
    },
    {
      "x": 1,
      "y": 353,
      "size": 1,
      "price": "1011000000000000000000",
      "reserved": "0x7a9fe22691c811ea339d9b73150e6911a5343dca",
      "salt": "0xc1ac444da7a97fd4f8a736ef09bc9e6fb8e7af7120d7d976c46c5ea4376a821a",
      "assetIds": []
    },
    {
      "x": 1,
      "y": 354,
      "size": 1,
      "price": "1011000000000000000000",
      "reserved": "",
      "salt": "0xfea6628077fe3c9e8f4861806e45dbe3350590e55e4a13abfe08d80037d18d55",
      "assetIds": []
    },
    {
      "x": 1,
      "y": 355,
      "size": 1,
      "price": "1011000000000000000000",
      "reserved": "0x7a9fe22691c811ea339d9b73150e6911a5343dca",
      "salt": "0xbfad474ae92ba9f43614c2c9d19b055ded6318229fa9acf22c4b0045e87f641c",
      "assetIds": []
    },
    {
      "x": 1,
      "y": 356,
      "size": 1,
      "price": "1011000000000000000000",
      "reserved": "",
      "salt": "0x18daa11e2811e5b8c18e7b595297dbdc02ac3163bc75749c545b87b322c3269e",
      "assetIds": []
    },
    {
      "x": 2,
      "y": 328,
      "size": 1,
      "price": "1011000000000000000000",
      "reserved": "0x7a9fe22691c811ea339d9b73150e6911a5343dca",
      "salt": "0x84767b5300fc8f8cfe26a43db66c835d2d3f59e8b0817c33570018fc37d17d20",
      "assetIds": []
    },
    {
      "x": 2,
      "y": 329,
      "size": 1,
      "price": "1011000000000000000000",
      "reserved": "",
      "salt": "0x9267ffa438f6987f01dc47e1b8e3ee6f2ee63812fe9d4968c2c68aecba2d8792",
      "assetIds": []
    },
    {
      "x": 2,
      "y": 330,
      "size": 1,
      "price": "1011000000000000000000",
      "reserved": "0x7a9fe22691c811ea339d9b73150e6911a5343dca",
      "salt": "0xe092a190f97cb66dd6b5517bbcf685cc1d6269b5b631d1c62e230a48661bdd06",
      "assetIds": []
    },
    {
      "x": 2,
      "y": 331,
      "size": 1,
      "price": "1011000000000000000000",
      "reserved": "",
      "salt": "0x2f18037e6f0c5369ac10c9407a85e5ae58e7895c8545dcfdfcd05420e790dc53",
      "assetIds": []
    },
    {
      "x": 2,
      "y": 332,
      "size": 1,
      "price": "1011000000000000000000",
      "reserved": "",
      "salt": "0x4f9463b8b2bb4f5160813ee5b015391ddc7f58f85534c00b191314a92f88027c",
      "assetIds": []
    },
    {
      "x": 2,
      "y": 333,
      "size": 1,
      "price": "1011000000000000000000",
      "reserved": "",
      "salt": "0x4db3f31eb380d7ccf25cdb777af4166a3a229124df5999aea04e7c74756d6450",
      "assetIds": []
    },
    {
      "x": 2,
      "y": 334,
      "size": 1,
      "price": "1011000000000000000000",
      "reserved": "",
      "salt": "0x412e64b62e49442012bb37b2ec5ff7b9107bba6c9900df6ca075e6712bf4c0e8",
      "assetIds": []
    },
    {
      "x": 2,
      "y": 335,
      "size": 1,
      "price": "1011000000000000000000",
      "reserved": "0x7a9fe22691c811ea339d9b73150e6911a5343dca",
      "salt": "0x72cd5dd2cb272f69ba602fa65f5b81f174499868de616f1b9e0ec49ec66e09f7",
      "assetIds": []
    },
    {
      "x": 2,
      "y": 336,
      "size": 1,
      "price": "4683000000000000000000",
      "reserved": "",
      "salt": "0x01b007a00df956d95a495be37532ea4c8f64420df942381b6f0f64aecea184fe",
      "assetIds": [
        "41506478881403507969696680653240014914910929820314476107906210059990541021188"
      ]
    },
    {
      "x": 2,
      "y": 337,
      "size": 1,
      "price": "4683000000000000000000",
      "reserved": "",
      "salt": "0x5ef201d6c6893ff4baebadc4dde975fb0073be449b8ba86d4009856cb8e3f240",
      "assetIds": [
        "41506478881403507969696680653240014914910929820314476107906210059990541021188"
      ]
    },
    {
      "x": 2,
      "y": 338,
      "size": 1,
      "price": "4683000000000000000000",
      "reserved": "",
      "salt": "0xae006d5abadf2d30f35eebbcb8eda34d6bd7bf0b342e71c90fbe4d1fa5c2aa19",
      "assetIds": [
        "41506478881403507969696680653240014914910929820314476107906210059990541021188"
      ]
    },
    {
      "x": 2,
      "y": 339,
      "size": 1,
      "price": "4683000000000000000000",
      "reserved": "",
      "salt": "0x406b9448346bb147b08c9506accf273f2eef4e0375dc83e1759ef622cf4df21a",
      "assetIds": [
        "41506478881403507969696680653240014914910929820314476107906210059990541021188"
      ]
    },
    {
      "x": 2,
      "y": 340,
      "size": 1,
      "price": "4683000000000000000000",
      "reserved": "",
      "salt": "0xd924dc35b57d8ef2ee868ae91b563240f56635e8289478ea80806a487231064c",
      "assetIds": [
        "41506478881403507969696680653240014914910929820314476107906210059990541021188"
      ]
    },
    {
      "x": 2,
      "y": 341,
      "size": 1,
      "price": "4683000000000000000000",
      "reserved": "",
      "salt": "0x2fb1c3d416b50947c6972831d9d38801cf00192a5e0b8b9bbe5849a284796540",
      "assetIds": [
        "41506478881403507969696680653240014914910929820314476107906210059990541021188"
      ]
    },
    {
      "x": 2,
      "y": 342,
      "size": 1,
      "price": "4683000000000000000000",
      "reserved": "",
      "salt": "0x84647de4494a893b1027cbc38aefa874e212197e4b7a4f92253c38236565d4ce",
      "assetIds": [
        "41506478881403507969696680653240014914910929820314476107906210059990541021188"
      ]
    },
    {
      "x": 2,
      "y": 343,
      "size": 1,
      "price": "4683000000000000000000",
      "reserved": "",
      "salt": "0xb3df6dfe35d056286e415818000d6942dd5a917781bdf069f643a9c98ecabb97",
      "assetIds": [
        "41506478881403507969696680653240014914910929820314476107906210059990541021188"
      ]
    },
    {
      "x": 2,
      "y": 344,
      "size": 1,
      "price": "4683000000000000000000",
      "reserved": "",
      "salt": "0x7ff00d7846154bb2d629d2977f603887c5ff65fca68cdf2df1adc93608d09da9",
      "assetIds": [
        "41506478881403507969696680653240014914910929820314476107906210059990541021188"
      ]
    },
    {
      "x": 2,
      "y": 348,
      "size": 1,
      "price": "1011000000000000000000",
      "reserved": "",
      "salt": "0xa28152f7b68ccc475afec23fe24d962782fce98d89a286db3d5be70ceef11cb1",
      "assetIds": []
    },
    {
      "x": 2,
      "y": 349,
      "size": 1,
      "price": "1011000000000000000000",
      "reserved": "",
      "salt": "0x4f2634ef0b9a415755fc8204adb0934de8b207e17d4c7101e3948611c23218d1",
      "assetIds": []
    },
    {
      "x": 2,
      "y": 350,
      "size": 1,
      "price": "1011000000000000000000",
      "reserved": "",
      "salt": "0xa044ffbb1aa41bde19a6871bb62abfb73a93ca5de2f7b5bd02ca58ecd28db1e4",
      "assetIds": []
    },
    {
      "x": 2,
      "y": 351,
      "size": 1,
      "price": "1011000000000000000000",
      "reserved": "",
      "salt": "0x5df27be2e13fd6f12dc9e25822307d377a1006c9180b7df107e71e6f7266a8fb",
      "assetIds": []
    },
    {
      "x": 2,
      "y": 352,
      "size": 1,
      "price": "1011000000000000000000",
      "reserved": "",
      "salt": "0x3735cf38850eedc7334da5e107284858cecfaf0f7b91d966bcac8ce6cd56f9b7",
      "assetIds": []
    },
    {
      "x": 2,
      "y": 353,
      "size": 1,
      "price": "1011000000000000000000",
      "reserved": "",
      "salt": "0x3a82741e6bb31aa9fb8e64e55607235cc8d9fb184367d761c7fed5f1cb61d94e",
      "assetIds": []
    },
    {
      "x": 2,
      "y": 354,
      "size": 1,
      "price": "1011000000000000000000",
      "reserved": "",
      "salt": "0x702c82138e57a93a4e6495f2d015b4fb4808a2c9b27a3e10f9c129bbd28508fe",
      "assetIds": []
    },
    {
      "x": 2,
      "y": 355,
      "size": 1,
      "price": "1011000000000000000000",
      "reserved": "",
      "salt": "0xdf3a798583951e381c22250cc71ab295fe9b7e7915408d3d3d35a33fa94bcbfb",
      "assetIds": []
    },
    {
      "x": 2,
      "y": 356,
      "size": 1,
      "price": "1011000000000000000000",
      "reserved": "",
      "salt": "0xb40574eb8c712a916a76b5c28e87d8c106e113f18b3546127289136eedafb919",
      "assetIds": []
    },
    {
      "x": 3,
      "y": 328,
      "size": 1,
      "price": "1011000000000000000000",
      "reserved": "",
      "salt": "0x5893a26429a6ef8e3e2d8d3b4a8a6cc4d3d986b766b0534921bdb87442ece552",
      "assetIds": []
    },
    {
      "x": 3,
      "y": 329,
      "size": 1,
      "price": "1011000000000000000000",
      "reserved": "",
      "salt": "0xcd79501bbb057800535e46b50fce52be795b53bdac6900af222477c17e103617",
      "assetIds": []
    },
    {
      "x": 3,
      "y": 330,
      "size": 1,
      "price": "1011000000000000000000",
      "reserved": "0x7a9fe22691c811ea339d9b73150e6911a5343dca",
      "salt": "0x2425eb4c817d866e61e8735ffbf7a3a7cb449949531e7a040cc7df763d6531bd",
      "assetIds": []
    },
    {
      "x": 3,
      "y": 331,
      "size": 1,
      "price": "1011000000000000000000",
      "reserved": "",
      "salt": "0x14e26401c84dfbaa887c2150f2d5a33f47360262a9bced66549e68b5abd7c760",
      "assetIds": []
    },
    {
      "x": 3,
      "y": 332,
      "size": 1,
      "price": "1011000000000000000000",
      "reserved": "0x7a9fe22691c811ea339d9b73150e6911a5343dca",
      "salt": "0xe9674af267fdfcf9920c068497ab95f17b058e93fbcfc52074f2a1dc03d5d99e",
      "assetIds": []
    },
    {
      "x": 3,
      "y": 333,
      "size": 1,
      "price": "1011000000000000000000",
      "reserved": "",
      "salt": "0x4bced16856f41c7540acd54c0e0668e7fd17c4af00ca61654c259703f9336ced",
      "assetIds": []
    },
    {
      "x": 3,
      "y": 334,
      "size": 1,
      "price": "1011000000000000000000",
      "reserved": "0x7a9fe22691c811ea339d9b73150e6911a5343dca",
      "salt": "0xba2a0dfb22629ddd59fe060bd713ae3e276e1e9f844f15a37def3446970cca22",
      "assetIds": []
    },
    {
      "x": 3,
      "y": 335,
      "size": 1,
      "price": "1011000000000000000000",
      "reserved": "",
      "salt": "0x33e294e9cbdd76ad009008724415921b18a8509e8a6dac6929e28c7123ba683e",
      "assetIds": []
    },
    {
      "x": 3,
      "y": 336,
      "size": 1,
      "price": "4683000000000000000000",
      "reserved": "",
      "salt": "0x866dc48cbd25926502e1c56d62e9defc90dcbde954f25e0ac18d029e59e5b482",
      "assetIds": [
        "41506478881403507969696680653240014914910929820314476107906210059990541021188"
      ]
    },
    {
      "x": 3,
      "y": 337,
      "size": 1,
      "price": "4683000000000000000000",
      "reserved": "",
      "salt": "0xce26233f492d138b97e8d5c02d46036c80d99080725e93f15abfebaa4e074a58",
      "assetIds": [
        "41506478881403507969696680653240014914910929820314476107906210059990541021188"
      ]
    },
    {
      "x": 3,
      "y": 338,
      "size": 1,
      "price": "1011000000000000000000",
      "reserved": "0x7a9fe22691c811ea339d9b73150e6911a5343dca",
      "salt": "0xf097a8ea297ad730790c17ffc7bd8edbffd1dedf5069011e1e2006010921bc7c",
      "assetIds": []
    },
    {
      "x": 3,
      "y": 339,
      "size": 1,
      "price": "4683000000000000000000",
      "reserved": "",
      "salt": "0x8526c8f0c850eee261b5efc28dcde40a1a77f8e0b869214c97cb3e6e1153346a",
      "assetIds": [
        "41506478881403507969696680653240014914910929820314476107906210059990541021188"
      ]
    },
    {
      "x": 3,
      "y": 340,
      "size": 1,
      "price": "4683000000000000000000",
      "reserved": "",
      "salt": "0x04977bacc2e07e1be46323542cb7547d037f4e4b651d4b7affb3478ed5ae1c20",
      "assetIds": [
        "41506478881403507969696680653240014914910929820314476107906210059990541021188"
      ]
    },
    {
      "x": 3,
      "y": 341,
      "size": 1,
      "price": "4683000000000000000000",
      "reserved": "",
      "salt": "0x8fef3187c27f5f2f392f57c90baa59565d3d0ef23eb33d365d6b2cfb87873d63",
      "assetIds": [
        "41506478881403507969696680653240014914910929820314476107906210059990541021188"
      ]
    },
    {
      "x": 3,
      "y": 342,
      "size": 1,
      "price": "4683000000000000000000",
      "reserved": "",
      "salt": "0x851abb0b0f6f163f0bd382d346549b74a8d6b709a43e0ddb0f45c8ffe513e6c4",
      "assetIds": [
        "41506478881403507969696680653240014914910929820314476107906210059990541021188"
      ]
    },
    {
      "x": 3,
      "y": 343,
      "size": 1,
      "price": "4683000000000000000000",
      "reserved": "",
      "salt": "0xdeadb9d9a4d65db4c1725a7330ff52480bca2cd5b86d6d7e68722c35d25deb0c",
      "assetIds": [
        "41506478881403507969696680653240014914910929820314476107906210059990541021188"
      ]
    },
    {
      "x": 3,
      "y": 344,
      "size": 1,
      "price": "4683000000000000000000",
      "reserved": "",
      "salt": "0xabd4868f3a6a9ba5ba10dbfd50f3bb50820cb7f5af4d74543aa92f577f127525",
      "assetIds": [
        "41506478881403507969696680653240014914910929820314476107906210059990541021188"
      ]
    },
    {
      "x": 3,
      "y": 345,
      "size": 1,
      "price": "4683000000000000000000",
      "reserved": "",
      "salt": "0xe52296011d04ce94f68a927818582671d0704811959a9aa23de156aa0cbcf2f6",
      "assetIds": [
        "41506478881403507969696680653240014914910929820314476107906210059990541021188"
      ]
    },
    {
      "x": 3,
      "y": 346,
      "size": 1,
      "price": "1011000000000000000000",
      "reserved": "0x7a9fe22691c811ea339d9b73150e6911a5343dca",
      "salt": "0xbe297725c743757019295d18f53b242f0db3e3f67e6a55b0f990349a899f7255",
      "assetIds": []
    },
    {
      "x": 3,
      "y": 347,
      "size": 1,
      "price": "1011000000000000000000",
      "reserved": "",
      "salt": "0x2479420ca0252682aa65c281b8b6fa8a8178df856e9e081464a6f4b09c28c666",
      "assetIds": []
    },
    {
      "x": 3,
      "y": 354,
      "size": 1,
      "price": "1011000000000000000000",
      "reserved": "",
      "salt": "0xade5c8e436f0e1242f96255e1d4a1b8dcb42cf954f051fda446902487a71bcd8",
      "assetIds": []
    },
    {
      "x": 3,
      "y": 355,
      "size": 1,
      "price": "1011000000000000000000",
      "reserved": "",
      "salt": "0x978cbec9aedb8f4ef0f43b0251febe1f715e94d81f66471dfd7b1518c3b66a08",
      "assetIds": []
    },
    {
      "x": 3,
      "y": 356,
      "size": 1,
      "price": "1011000000000000000000",
      "reserved": "0x7a9fe22691c811ea339d9b73150e6911a5343dca",
      "salt": "0x350c3bd24699711f11846e5cae0500d45df31da98162d9f680b8f8590a047245",
      "assetIds": []
    },
    {
      "x": 4,
      "y": 328,
      "size": 1,
      "price": "1011000000000000000000",
      "reserved": "",
      "salt": "0x8d77ce688e36d82fa231a6b37b9dd0dabfe1c1ae2e829133119b0c401bb7870d",
      "assetIds": []
    },
    {
      "x": 4,
      "y": 329,
      "size": 1,
      "price": "1011000000000000000000",
      "reserved": "",
      "salt": "0x8c2822d86e2bd7dfabb2c69f3dc4bf8e268eb84c0ba8facc3dd0ad531b8fecac",
      "assetIds": []
    },
    {
      "x": 4,
      "y": 330,
      "size": 1,
      "price": "1011000000000000000000",
      "reserved": "",
      "salt": "0xd4331a048dd75fc5a7f4ddcd2712ca9c0ae716c1da2a055d6bd98c5bba0f6356",
      "assetIds": []
    },
    {
      "x": 4,
      "y": 331,
      "size": 1,
      "price": "1011000000000000000000",
      "reserved": "",
      "salt": "0xccbef4fd2982ef370a5967cbe03c76e5e6ac45b63630d5e5ce753b00868a0f3a",
      "assetIds": []
    },
    {
      "x": 4,
      "y": 332,
      "size": 1,
      "price": "1011000000000000000000",
      "reserved": "0x7a9fe22691c811ea339d9b73150e6911a5343dca",
      "salt": "0x8848ffc42b95fcf31082ae6636e5b43c8a2b3a5cfadf9c3780dd9ab4e3f8590f",
      "assetIds": []
    },
    {
      "x": 4,
      "y": 333,
      "size": 1,
      "price": "1011000000000000000000",
      "reserved": "",
      "salt": "0x35cb2ebf80e2e733b7f642194ad9dad47f90a66889c4831d0986ecde2c4af198",
      "assetIds": []
    },
    {
      "x": 4,
      "y": 334,
      "size": 1,
      "price": "1011000000000000000000",
      "reserved": "0x7a9fe22691c811ea339d9b73150e6911a5343dca",
      "salt": "0xf53a9f9e29c6ae98233a095f4e4374197ac35dfaae28d302026354372f60fdcf",
      "assetIds": []
    },
    {
      "x": 4,
      "y": 335,
      "size": 1,
      "price": "1011000000000000000000",
      "reserved": "",
      "salt": "0x120c16bbeaa8901be615f26d545da01ec910c1e971e5cae05eceae0df2f133cf",
      "assetIds": []
    },
    {
      "x": 4,
      "y": 336,
      "size": 1,
      "price": "4683000000000000000000",
      "reserved": "",
      "salt": "0x2a2178825279c29286375e37c2ca2948f7a61a03ef4bfd3984a2f27e76bcd058",
      "assetIds": [
        "41506478881403507969696680653240014914910929820314476107906210059990541021188"
      ]
    },
    {
      "x": 4,
      "y": 337,
      "size": 1,
      "price": "4683000000000000000000",
      "reserved": "",
      "salt": "0x5add0d85ae135b1172baaadf8ba9d98f4fb79b0839857e92935b80ebe6d0fd5a",
      "assetIds": [
        "41506478881403507969696680653240014914910929820314476107906210059990541021188"
      ]
    },
    {
      "x": 4,
      "y": 338,
      "size": 1,
      "price": "4683000000000000000000",
      "reserved": "",
      "salt": "0x6abdf4bbc0778caeeae384018d6fe3155727fa9064a184cc734f615c1932e8aa",
      "assetIds": [
        "41506478881403507969696680653240014914910929820314476107906210059990541021188"
      ]
    },
    {
      "x": 4,
      "y": 339,
      "size": 1,
      "price": "4683000000000000000000",
      "reserved": "",
      "salt": "0xb62577a9e690eb692b0cae2cbfdb0328ce5144a3bc767d9cb87f25c5e01b6a8b",
      "assetIds": [
        "41506478881403507969696680653240014914910929820314476107906210059990541021188"
      ]
    },
    {
      "x": 4,
      "y": 340,
      "size": 1,
      "price": "4683000000000000000000",
      "reserved": "",
      "salt": "0x3246b9bea56094de2b6b4eb3402d0269ff8e3633a0d596f9a955550c1a5bd2b9",
      "assetIds": [
        "41506478881403507969696680653240014914910929820314476107906210059990541021188"
      ]
    },
    {
      "x": 4,
      "y": 341,
      "size": 1,
      "price": "4683000000000000000000",
      "reserved": "",
      "salt": "0x2eb893a24ec52a83b0d9f45bba5e4f874fae30f6219817b01a493b06005120b8",
      "assetIds": [
        "41506478881403507969696680653240014914910929820314476107906210059990541021188"
      ]
    },
    {
      "x": 4,
      "y": 342,
      "size": 1,
      "price": "4683000000000000000000",
      "reserved": "",
      "salt": "0x02d0c673738ddb3d1c103586410eb916fb694e5076bf86fc60bc7c0d9f538423",
      "assetIds": [
        "41506478881403507969696680653240014914910929820314476107906210059990541021188"
      ]
    },
    {
      "x": 4,
      "y": 343,
      "size": 1,
      "price": "4683000000000000000000",
      "reserved": "",
      "salt": "0xa9f49fac056da13a41a3ed1b0029354d4456936d749fd217e60c21d8bebfc040",
      "assetIds": [
        "41506478881403507969696680653240014914910929820314476107906210059990541021188"
      ]
    },
    {
      "x": 4,
      "y": 344,
      "size": 1,
      "price": "4683000000000000000000",
      "reserved": "",
      "salt": "0xd90478c07099e7805e5970bacfbdcdeec3947253270877e7b33a98a9c9e9b847",
      "assetIds": [
        "41506478881403507969696680653240014914910929820314476107906210059990541021188"
      ]
    },
    {
      "x": 4,
      "y": 345,
      "size": 1,
      "price": "4683000000000000000000",
      "reserved": "",
      "salt": "0x8e24bc97e2be85747f30b7bc815db69beacbe86990759e2cf68312d720180dd2",
      "assetIds": [
        "41506478881403507969696680653240014914910929820314476107906210059990541021188"
      ]
    },
    {
      "x": 4,
      "y": 346,
      "size": 1,
      "price": "4683000000000000000000",
      "reserved": "",
      "salt": "0xa1d4e00be956ed2f89f1faf68de272c297933931b1baad764acca7d5b85d2023",
      "assetIds": [
        "41506478881403507969696680653240014914910929820314476107906210059990541021188"
      ]
    },
    {
      "x": 4,
      "y": 347,
      "size": 1,
      "price": "1011000000000000000000",
      "reserved": "0x7a9fe22691c811ea339d9b73150e6911a5343dca",
      "salt": "0x6a19733c57b953a6a69716ba14edccabce9b16c6b2efdef8e4b3b41b073a65bf",
      "assetIds": []
    },
    {
      "x": 4,
      "y": 354,
      "size": 1,
      "price": "1011000000000000000000",
      "reserved": "",
      "salt": "0x068ed241c227c58df837d3dcabc3a569410e19abfd968229f6a432487bf84541",
      "assetIds": []
    },
    {
      "x": 4,
      "y": 355,
      "size": 1,
      "price": "1011000000000000000000",
      "reserved": "0x7a9fe22691c811ea339d9b73150e6911a5343dca",
      "salt": "0xdd5fe215a036f2845b1655081a0d019d9f80b9f84057fdf9bbad540a723a45fe",
      "assetIds": []
    },
    {
      "x": 4,
      "y": 356,
      "size": 1,
      "price": "1011000000000000000000",
      "reserved": "",
      "salt": "0xb84ae8aa5b59e8af677f272ea36f69b086c42c9a03fc7638e7b275fcc32bacd7",
      "assetIds": []
    },
    {
      "x": 5,
      "y": 328,
      "size": 1,
      "price": "1011000000000000000000",
      "reserved": "",
      "salt": "0x114067361932091db043d77a5e7d605a8413d6873bb08a04e7bcb1a23226e0c7",
      "assetIds": []
    },
    {
      "x": 5,
      "y": 329,
      "size": 1,
      "price": "1011000000000000000000",
      "reserved": "",
      "salt": "0x408d7e93ae5455e24ee47971b94095c514025ebb8fde2e601a6db88ec48c75f5",
      "assetIds": []
    },
    {
      "x": 5,
      "y": 330,
      "size": 1,
      "price": "1011000000000000000000",
      "reserved": "",
      "salt": "0x343a616189fcf82b25eedf3ab46dd9a91f9857632576933d71919e1f3aa0d3e2",
      "assetIds": []
    },
    {
      "x": 5,
      "y": 331,
      "size": 1,
      "price": "1011000000000000000000",
      "reserved": "",
      "salt": "0x48cc25309d50b11d521e6b0b23906a5d4a18edd0f47cbd941da0f763b6a934f5",
      "assetIds": []
    },
    {
      "x": 5,
      "y": 332,
      "size": 1,
      "price": "1011000000000000000000",
      "reserved": "",
      "salt": "0xf164a00580b5899e5ac1db3ac45324cfdff53c34464981977689545dff545238",
      "assetIds": []
    },
    {
      "x": 5,
      "y": 333,
      "size": 1,
      "price": "1011000000000000000000",
      "reserved": "",
      "salt": "0x52d9296764c84c0c582f7e0038afc844c5fa3bbd875846a1823b0e3c7a1ed8b7",
      "assetIds": []
    },
    {
      "x": 5,
      "y": 334,
      "size": 1,
      "price": "1011000000000000000000",
      "reserved": "",
      "salt": "0xa17a08a8f274218e9c33be3cb0c3fc7706854b22d9fc0be0c62b191adf340ea7",
      "assetIds": []
    },
    {
      "x": 5,
      "y": 335,
      "size": 1,
      "price": "1011000000000000000000",
      "reserved": "",
      "salt": "0x2f2b19d39f3f0d65f5e71f65630b55008bcaf278963cc7a60696c107caefdb4d",
      "assetIds": []
    },
    {
      "x": 5,
      "y": 336,
      "size": 1,
      "price": "4683000000000000000000",
      "reserved": "",
      "salt": "0x44224a859f4feae0e92f3157caf812e12394af6f9741f8c857913e16dfec9588",
      "assetIds": [
        "41506478881403507969696680653240014914910929820314476107906210059990541021188"
      ]
    },
    {
      "x": 5,
      "y": 337,
      "size": 1,
      "price": "4683000000000000000000",
      "reserved": "",
      "salt": "0x22de6e6d23bbcd539463a0c78d62d3cbe4956a84cee18219d43d748145a9415a",
      "assetIds": [
        "41506478881403507969696680653240014914910929820314476107906210059990541021188"
      ]
    },
    {
      "x": 5,
      "y": 338,
      "size": 1,
      "price": "4683000000000000000000",
      "reserved": "",
      "salt": "0x380645c62ebc71d642d146fd5a759c3a2f9801bfeacb1f126785fc2e9d2bbc78",
      "assetIds": [
        "41506478881403507969696680653240014914910929820314476107906210059990541021188"
      ]
    },
    {
      "x": 5,
      "y": 339,
      "size": 1,
      "price": "4683000000000000000000",
      "reserved": "",
      "salt": "0x5e65b99d584fa5e543423e62986938b7d79fc66d7ef5a14b8f9d5a5bc555c087",
      "assetIds": [
        "41506478881403507969696680653240014914910929820314476107906210059990541021188"
      ]
    },
    {
      "x": 5,
      "y": 340,
      "size": 1,
      "price": "4683000000000000000000",
      "reserved": "",
      "salt": "0x11bbc851d71646f014768528099e06977ef0cf95cf559b7fcbd947a03bb572fc",
      "assetIds": [
        "41506478881403507969696680653240014914910929820314476107906210059990541021188"
      ]
    },
    {
      "x": 5,
      "y": 341,
      "size": 1,
      "price": "4683000000000000000000",
      "reserved": "",
      "salt": "0x77b49ec111c89c2601cc8ae08c6cd2cbf287e5ec9db94b8004b7eb1818462c93",
      "assetIds": [
        "41506478881403507969696680653240014914910929820314476107906210059990541021188"
      ]
    },
    {
      "x": 5,
      "y": 342,
      "size": 1,
      "price": "4683000000000000000000",
      "reserved": "",
      "salt": "0x891f07be4298e0b6bf6000696949f5ccf49d64388f81a21345fea288da0a8eca",
      "assetIds": [
        "41506478881403507969696680653240014914910929820314476107906210059990541021188"
      ]
    },
    {
      "x": 5,
      "y": 343,
      "size": 1,
      "price": "1011000000000000000000",
      "reserved": "0x7a9fe22691c811ea339d9b73150e6911a5343dca",
      "salt": "0xb56a12e436ac03ac58d1767e76b81d8fb8400b66fc195a35607e466d9974f529",
      "assetIds": []
    },
    {
      "x": 5,
      "y": 344,
      "size": 1,
      "price": "4683000000000000000000",
      "reserved": "",
      "salt": "0xec9d395529db27efb5a4676dc4c701deb3c62a61428a198aaf4e75560e94edf1",
      "assetIds": [
        "41506478881403507969696680653240014914910929820314476107906210059990541021188"
      ]
    },
    {
      "x": 5,
      "y": 345,
      "size": 1,
      "price": "4683000000000000000000",
      "reserved": "",
      "salt": "0x6beea4e20aa30997ec6f5ec7cd897483a375bb13a114552956bb605c46cd8653",
      "assetIds": [
        "41506478881403507969696680653240014914910929820314476107906210059990541021188"
      ]
    },
    {
      "x": 5,
      "y": 346,
      "size": 1,
      "price": "4683000000000000000000",
      "reserved": "",
      "salt": "0xbdca24c91e37c51d4d6db33656c9fd651b8f9f21aa4ce004bfb4ab4c8e731b8f",
      "assetIds": [
        "41506478881403507969696680653240014914910929820314476107906210059990541021188"
      ]
    },
    {
      "x": 5,
      "y": 347,
      "size": 1,
      "price": "1011000000000000000000",
      "reserved": "0x7a9fe22691c811ea339d9b73150e6911a5343dca",
      "salt": "0xa3aa82465fa11217bda496da7d0724facfda209d974ad8ec68f2b90480aefa92",
      "assetIds": []
    },
    {
      "x": 5,
      "y": 354,
      "size": 1,
      "price": "1011000000000000000000",
      "reserved": "",
      "salt": "0xec535a2b57a36235b11823c07424d05333cefa265ef4b4aeabf8338c909fab38",
      "assetIds": []
    },
    {
      "x": 5,
      "y": 355,
      "size": 1,
      "price": "1011000000000000000000",
      "reserved": "",
      "salt": "0x1571469c5315d87c9ad3cab46fd876cb189d44491ce730237923535e75d8ebab",
      "assetIds": []
    },
    {
      "x": 5,
      "y": 356,
      "size": 1,
      "price": "1011000000000000000000",
      "reserved": "",
      "salt": "0xbd5d80c0076e0079346a0fbce88da8231266c6fc4394422fcaab03d0d5e77906",
      "assetIds": []
    },
    {
      "x": 6,
      "y": 328,
      "size": 1,
      "price": "1011000000000000000000",
      "reserved": "0x7a9fe22691c811ea339d9b73150e6911a5343dca",
      "salt": "0xa90de2ac1190bc83d652e3875307b8eb14ba8df9dcdf1bdb7459e95f1474deaf",
      "assetIds": []
    },
    {
      "x": 6,
      "y": 329,
      "size": 1,
      "price": "1011000000000000000000",
      "reserved": "",
      "salt": "0x79602357357898934139a0566b33e2102e3226699709bb89550b9226348ab14e",
      "assetIds": []
    },
    {
      "x": 6,
      "y": 330,
      "size": 1,
      "price": "1011000000000000000000",
      "reserved": "",
      "salt": "0x5202cd7770dda3ba5b54e7f45e5ee17c24b8e98c10036907c0f6c42ccc28802f",
      "assetIds": []
    },
    {
      "x": 6,
      "y": 331,
      "size": 1,
      "price": "1011000000000000000000",
      "reserved": "0x7a9fe22691c811ea339d9b73150e6911a5343dca",
      "salt": "0xd57d5ea17707113934c873513a9937e54ca29389a781504601d5383f0b1cde6b",
      "assetIds": []
    },
    {
      "x": 6,
      "y": 332,
      "size": 1,
      "price": "1011000000000000000000",
      "reserved": "",
      "salt": "0x99403828868a9e20c5ebead099882c67a240ea287c672c2f1c89275381a6a55f",
      "assetIds": []
    },
    {
      "x": 6,
      "y": 333,
      "size": 1,
      "price": "1011000000000000000000",
      "reserved": "",
      "salt": "0x5194502f6e4cf7d24ba84ccf61ea6001a2fe467a62b8405691026acf41a796f1",
      "assetIds": []
    },
    {
      "x": 6,
      "y": 334,
      "size": 1,
      "price": "1011000000000000000000",
      "reserved": "",
      "salt": "0x94142a25b1792f3ee24d3c05fc58fdf5168811118a019e6d4f573bafeb6ca832",
      "assetIds": []
    },
    {
      "x": 6,
      "y": 335,
      "size": 1,
      "price": "1011000000000000000000",
      "reserved": "",
      "salt": "0xb5a6bbd10c8c6bcb364af740ad833bae9d3ccbd62cf49df8388c3f90c2a5917c",
      "assetIds": []
    },
    {
      "x": 6,
      "y": 342,
      "size": 1,
      "price": "4683000000000000000000",
      "reserved": "",
      "salt": "0xdf90b7714abb3bf427dc1574c1390b07c04dc174992d894a3bf9190e2c5d6ce6",
      "assetIds": [
        "41506478881403507969696680653240014914910929820314476107906210059990541021188"
      ]
    },
    {
      "x": 6,
      "y": 343,
      "size": 1,
      "price": "4683000000000000000000",
      "reserved": "",
      "salt": "0xd2720f4cec68829326d4c2d4a64f0e9d917b47323e6fd402b91848431e9ccd73",
      "assetIds": [
        "41506478881403507969696680653240014914910929820314476107906210059990541021188"
      ]
    },
    {
      "x": 6,
      "y": 344,
      "size": 1,
      "price": "4683000000000000000000",
      "reserved": "",
      "salt": "0x9e019a97a00ad685b9e4b6e690df5a29741fde3d19857bbac2fc43b00c260af4",
      "assetIds": [
        "41506478881403507969696680653240014914910929820314476107906210059990541021188"
      ]
    },
    {
      "x": 6,
      "y": 345,
      "size": 1,
      "price": "4683000000000000000000",
      "reserved": "",
      "salt": "0x139723dd16e9963e96a5bcec62279d12c3c5aa4ba873cf9f293bd452f3591f9e",
      "assetIds": [
        "41506478881403507969696680653240014914910929820314476107906210059990541021188"
      ]
    },
    {
      "x": 6,
      "y": 346,
      "size": 1,
      "price": "4683000000000000000000",
      "reserved": "",
      "salt": "0x06c2fa1dae2c7f4ef92b5ddc875b78bd6951688b1e5db4052329c78daaf77d81",
      "assetIds": [
        "41506478881403507969696680653240014914910929820314476107906210059990541021188"
      ]
    },
    {
      "x": 6,
      "y": 347,
      "size": 1,
      "price": "1011000000000000000000",
      "reserved": "",
      "salt": "0xe7f7532c72aabb56a862d94e7ed7782ea55efa8bf71a05779c679dc9f6396323",
      "assetIds": []
    },
    {
      "x": 6,
      "y": 348,
      "size": 1,
      "price": "1011000000000000000000",
      "reserved": "0x7a9fe22691c811ea339d9b73150e6911a5343dca",
      "salt": "0xa369a65553332c400b1270a0f34482e8d8ff1254990278fee5cc13755b7ac1c1",
      "assetIds": []
    },
    {
      "x": 6,
      "y": 349,
      "size": 1,
      "price": "1011000000000000000000",
      "reserved": "",
      "salt": "0xc1952ae38862b367167e44753524d00f156a70821589cb67d34f3c956521d94f",
      "assetIds": []
    },
    {
      "x": 6,
      "y": 350,
      "size": 1,
      "price": "1011000000000000000000",
      "reserved": "",
      "salt": "0x5b94df7dcc3012ca4c3ea2d4c2916fbf79340b4a0d9e091e041e51296c1dc69c",
      "assetIds": []
    },
    {
      "x": 6,
      "y": 351,
      "size": 1,
      "price": "1011000000000000000000",
      "reserved": "",
      "salt": "0x3a4652d2dc566ebe8a99c161a5a1f55f96c90bd224a04221baae353c573963a7",
      "assetIds": []
    },
    {
      "x": 6,
      "y": 352,
      "size": 1,
      "price": "1011000000000000000000",
      "reserved": "",
      "salt": "0x807a50d18ebdb15b3a195f81640a2f1baff4d6332ba13b3830a65814abe9d5c1",
      "assetIds": []
    },
    {
      "x": 6,
      "y": 353,
      "size": 1,
      "price": "1011000000000000000000",
      "reserved": "",
      "salt": "0xc7a90944ba0897eb7177f01ee461dec4dd9f1aab92b75c4bdb26f959f18de47c",
      "assetIds": []
    },
    {
      "x": 6,
      "y": 354,
      "size": 1,
      "price": "1011000000000000000000",
      "reserved": "",
      "salt": "0xaa3036e0d426adc890217a6643b72298adc1daaba34987ca7d898a8cda8bc25c",
      "assetIds": []
    },
    {
      "x": 6,
      "y": 355,
      "size": 1,
      "price": "1011000000000000000000",
      "reserved": "",
      "salt": "0xcd83527adbf0cd2a943714dd633857f6cb360b0e89267f05dc01986100d566b3",
      "assetIds": []
    },
    {
      "x": 6,
      "y": 356,
      "size": 1,
      "price": "1011000000000000000000",
      "reserved": "",
      "salt": "0xbccfc786a4c2cf7ade31ec185a10c39006c6410421eb2a00fd7f8dad93cc3cff",
      "assetIds": []
    },
    {
      "x": 7,
      "y": 328,
      "size": 1,
      "price": "1011000000000000000000",
      "reserved": "0x7a9fe22691c811ea339d9b73150e6911a5343dca",
      "salt": "0x5d1dc1088bf8ed72ff4c218498d8f8b7d5c37784f3315a7b7e234ec4882b3ead",
      "assetIds": []
    },
    {
      "x": 7,
      "y": 329,
      "size": 1,
      "price": "1011000000000000000000",
      "reserved": "",
      "salt": "0x2290e58518e78983bd00aa860a6592b07dcf99b45eac9e352afdfd64dc32c68e",
      "assetIds": []
    },
    {
      "x": 7,
      "y": 330,
      "size": 1,
      "price": "1011000000000000000000",
      "reserved": "",
      "salt": "0xa4b2e294cb07e6ff62c93748296f25960265e24489dff98636ee62eafe2e0887",
      "assetIds": []
    },
    {
      "x": 7,
      "y": 331,
      "size": 1,
      "price": "1011000000000000000000",
      "reserved": "",
      "salt": "0x003ad44ea787e0fe262e475a68b7d9190f8f2048c4ff7606f24495bbb7904fe9",
      "assetIds": []
    },
    {
      "x": 7,
      "y": 332,
      "size": 1,
      "price": "1011000000000000000000",
      "reserved": "",
      "salt": "0x4294bc969ff55121e2afa09cf1f44b4d0b49dfd4d1078d9b897c042944672280",
      "assetIds": []
    },
    {
      "x": 7,
      "y": 333,
      "size": 1,
      "price": "1011000000000000000000",
      "reserved": "0x7a9fe22691c811ea339d9b73150e6911a5343dca",
      "salt": "0x3e1ceb347f7dc2f4d27a58806397e63d3c9a576b65396825287d4a38bbe50049",
      "assetIds": []
    },
    {
      "x": 7,
      "y": 334,
      "size": 1,
      "price": "1011000000000000000000",
      "reserved": "",
      "salt": "0xa08722cbb25f8aea2e839ee4b12d842b640ef6bc289563efe2cd3396fa860e18",
      "assetIds": []
    },
    {
      "x": 7,
      "y": 335,
      "size": 1,
      "price": "1011000000000000000000",
      "reserved": "0x7a9fe22691c811ea339d9b73150e6911a5343dca",
      "salt": "0x9125b670c87287f44ebfdbf823d23aee48e7b4557b661d1529302e2d53f5a5ce",
      "assetIds": []
    },
    {
      "x": 7,
      "y": 342,
      "size": 1,
      "price": "4683000000000000000000",
      "reserved": "",
      "salt": "0xd332cb1fb4a34fc5f5c4d1ec48ef1ffe66d0e464d0771edbc726e12839cbf75e",
      "assetIds": [
        "41506478881403507969696680653240014914910929820314476107906210059990541021188"
      ]
    },
    {
      "x": 7,
      "y": 343,
      "size": 1,
      "price": "4683000000000000000000",
      "reserved": "",
      "salt": "0xc094587ea22bb0c5655020cd9689e5e166a7bae869b3247ae8fd12615b044f8c",
      "assetIds": [
        "41506478881403507969696680653240014914910929820314476107906210059990541021188"
      ]
    },
    {
      "x": 7,
      "y": 344,
      "size": 1,
      "price": "4683000000000000000000",
      "reserved": "",
      "salt": "0x49bdd22c4a8535e9a1019e66378afecd960109cb7f118a429fd63377cb92d34c",
      "assetIds": [
        "41506478881403507969696680653240014914910929820314476107906210059990541021188"
      ]
    },
    {
      "x": 7,
      "y": 345,
      "size": 1,
      "price": "4683000000000000000000",
      "reserved": "",
      "salt": "0x6ac22425cb8510c584ec47a3a69add18cdf9488ab54edf4623b45632913c1c5a",
      "assetIds": [
        "41506478881403507969696680653240014914910929820314476107906210059990541021188"
      ]
    },
    {
      "x": 7,
      "y": 346,
      "size": 1,
      "price": "4683000000000000000000",
      "reserved": "",
      "salt": "0xffeabbf25c8cd48b190d182c2c6b823d41007aebabdf4c6f6b64574121459f8e",
      "assetIds": [
        "41506478881403507969696680653240014914910929820314476107906210059990541021188"
      ]
    },
    {
      "x": 7,
      "y": 347,
      "size": 1,
      "price": "1011000000000000000000",
      "reserved": "",
      "salt": "0x2f64555ff213a129851f5d2651718dc630d4d9ea61e4b6625c03f3a63ca780cc",
      "assetIds": []
    },
    {
      "x": 7,
      "y": 348,
      "size": 1,
      "price": "1011000000000000000000",
      "reserved": "0x7a9fe22691c811ea339d9b73150e6911a5343dca",
      "salt": "0xb8a0d2d00bcebf6c20d10b61e76373f839e38292f960848d20a54567288586ed",
      "assetIds": []
    },
    {
      "x": 7,
      "y": 349,
      "size": 1,
      "price": "1011000000000000000000",
      "reserved": "",
      "salt": "0x462e08ae04658812ab17dcfbf5a87a2b22dec6a41e22c30a0b8332b05b71ae37",
      "assetIds": []
    },
    {
      "x": 7,
      "y": 350,
      "size": 1,
      "price": "1011000000000000000000",
      "reserved": "",
      "salt": "0xc24488d468a06ca310fcd597a35525b4ffa8ba1f2a71d9c9e4863750454f322d",
      "assetIds": []
    },
    {
      "x": 7,
      "y": 351,
      "size": 1,
      "price": "1011000000000000000000",
      "reserved": "0x7a9fe22691c811ea339d9b73150e6911a5343dca",
      "salt": "0x8ef0deb698dea55cd3ec9d39728b605dd1e7482bf6fe1ffa8366ce04c75e048e",
      "assetIds": []
    },
    {
      "x": 7,
      "y": 352,
      "size": 1,
      "price": "1011000000000000000000",
      "reserved": "",
      "salt": "0x8194a8cce3eb5c194ec4c4dea7393514068b12003b17b1831228fa17de3a4e17",
      "assetIds": []
    },
    {
      "x": 7,
      "y": 353,
      "size": 1,
      "price": "1011000000000000000000",
      "reserved": "0x7a9fe22691c811ea339d9b73150e6911a5343dca",
      "salt": "0xdde6d254af2668d491b2b42f3b4e27075859de8358995331a2720380122ddda1",
      "assetIds": []
    },
    {
      "x": 7,
      "y": 354,
      "size": 1,
      "price": "1011000000000000000000",
      "reserved": "",
      "salt": "0xefadf148efe75a58fe496ade42f0407a0acd6deaf99d4b1e3f0585b5068b6d56",
      "assetIds": []
    },
    {
      "x": 7,
      "y": 355,
      "size": 1,
      "price": "1011000000000000000000",
      "reserved": "",
      "salt": "0x118d98f8154d92d05c6b96f27cf8516c525e4a1f98ff09bde52bd699ba78cea8",
      "assetIds": []
    },
    {
      "x": 7,
      "y": 356,
      "size": 1,
      "price": "1011000000000000000000",
      "reserved": "",
      "salt": "0x20d8ad9d3df0885fadd71d962f8e27fd81262c425b7841f38f81ed2a687c4d42",
      "assetIds": []
    },
    {
      "x": 8,
      "y": 328,
      "size": 1,
      "price": "1011000000000000000000",
      "reserved": "",
      "salt": "0x8393f99c53e2a81f11c986b42ea2b0dc6464a769af2f678b75cad3a44d4c5cfb",
      "assetIds": []
    },
    {
      "x": 8,
      "y": 329,
      "size": 1,
      "price": "1011000000000000000000",
      "reserved": "",
      "salt": "0xc8ceda591de044f70efc495adb378582bdd57c866923620460e26ac8fe32fed6",
      "assetIds": []
    },
    {
      "x": 8,
      "y": 330,
      "size": 1,
      "price": "1011000000000000000000",
      "reserved": "",
      "salt": "0xe7cc95a0cf3b8a28c7ce9f7166985775a688fe29afcb3cabbb6be02d3c8d793d",
      "assetIds": []
    },
    {
      "x": 8,
      "y": 331,
      "size": 1,
      "price": "1011000000000000000000",
      "reserved": "",
      "salt": "0x16e3d0050c16b7e515cd9f2cf3911fd3f55083d764cc6935540f0f0212ee9e5c",
      "assetIds": []
    },
    {
      "x": 8,
      "y": 332,
      "size": 1,
      "price": "1011000000000000000000",
      "reserved": "",
      "salt": "0xb4ec7e7b6ad2b137d9a4c65dbc34b73eebc7b2a09012ae080f2a0b431fee671b",
      "assetIds": []
    },
    {
      "x": 8,
      "y": 333,
      "size": 1,
      "price": "1011000000000000000000",
      "reserved": "",
      "salt": "0x229bb017a74c13a674450776f9ff4b3786a683acd319aac35ae2b7859f4beb60",
      "assetIds": []
    },
    {
      "x": 8,
      "y": 334,
      "size": 1,
      "price": "1011000000000000000000",
      "reserved": "",
      "salt": "0x304adbb743a15bb082c6dc73610e449643645db6390225c6bd7ebf7c40fe8fd4",
      "assetIds": []
    },
    {
      "x": 8,
      "y": 335,
      "size": 1,
      "price": "1011000000000000000000",
      "reserved": "",
      "salt": "0x3e94bb7b7edff3af38733b84372612726f94c13fc8bdda08f9d0aee51fc07d4a",
      "assetIds": []
    },
    {
      "x": 8,
      "y": 342,
      "size": 1,
      "price": "4683000000000000000000",
      "reserved": "",
      "salt": "0x573eba967638dd15dad4b4bca783bcd49bccf429b23a2e6dc1de2abde6c40b3b",
      "assetIds": [
        "41506478881403507969696680653240014914910929820314476107906210059990541021188"
      ]
    },
    {
      "x": 8,
      "y": 343,
      "size": 1,
      "price": "4683000000000000000000",
      "reserved": "",
      "salt": "0x56b30670d9b74a3de09f9a1715fcad90c539d44f408713bd1700075d70d940d2",
      "assetIds": [
        "41506478881403507969696680653240014914910929820314476107906210059990541021188"
      ]
    },
    {
      "x": 8,
      "y": 344,
      "size": 1,
      "price": "4683000000000000000000",
      "reserved": "",
      "salt": "0xc39d62c6579db9442f87916821c0ef7dc6757a39571fe6497e05e2dc07770523",
      "assetIds": [
        "41506478881403507969696680653240014914910929820314476107906210059990541021188"
      ]
    },
    {
      "x": 8,
      "y": 345,
      "size": 1,
      "price": "4683000000000000000000",
      "reserved": "",
      "salt": "0xc73c38e41264de6f93fde89fe9f4b3d256d93ec12a1c2dff5115fc8bcc458cfc",
      "assetIds": [
        "41506478881403507969696680653240014914910929820314476107906210059990541021188"
      ]
    },
    {
      "x": 8,
      "y": 346,
      "size": 1,
      "price": "4683000000000000000000",
      "reserved": "",
      "salt": "0x318fd5f9c65dbe83c4856bfa1edd9fd86fbc798fbbdfdac4c54dfa06dd07f373",
      "assetIds": [
        "41506478881403507969696680653240014914910929820314476107906210059990541021188"
      ]
    },
    {
      "x": 8,
      "y": 347,
      "size": 1,
      "price": "1011000000000000000000",
      "reserved": "",
      "salt": "0xe423003e10395d5aea0100caf3d0696266d017e8ff38a0d8d837babbc3f83dba",
      "assetIds": []
    },
    {
      "x": 8,
      "y": 348,
      "size": 1,
      "price": "1011000000000000000000",
      "reserved": "",
      "salt": "0xf4f633b60782140fdca052d82c7aadfe8c3a4f2458ab214c8aa82e655cb9b326",
      "assetIds": []
    },
    {
      "x": 8,
      "y": 349,
      "size": 1,
      "price": "1011000000000000000000",
      "reserved": "",
      "salt": "0x5d8aee7d28841613923cd00b9b79100981e4df1e3049457485eaf887f15b02e9",
      "assetIds": []
    },
    {
      "x": 8,
      "y": 350,
      "size": 1,
      "price": "1011000000000000000000",
      "reserved": "",
      "salt": "0x3efd63af229938f63cd66af2b3bf3a8f6662432494cc6dbfcbfea95ea41664c0",
      "assetIds": []
    },
    {
      "x": 8,
      "y": 351,
      "size": 1,
      "price": "1011000000000000000000",
      "reserved": "",
      "salt": "0xc37c3d803e4b9cb84ed1e1cdb71eb629d031dcb4ad540c4a1e47919f2ce79ca3",
      "assetIds": []
    },
    {
      "x": 8,
      "y": 352,
      "size": 1,
      "price": "1011000000000000000000",
      "reserved": "",
      "salt": "0xb94c921456746cf29d98d43d2da46a209a4d99f7aba85e8feebf09d6e0d2f14c",
      "assetIds": []
    },
    {
      "x": 8,
      "y": 353,
      "size": 1,
      "price": "1011000000000000000000",
      "reserved": "",
      "salt": "0xa1b41783b51e6a1c1962938578364ce60615cae1fa32ad8f692a4d8a84b08d81",
      "assetIds": []
    },
    {
      "x": 8,
      "y": 354,
      "size": 1,
      "price": "1011000000000000000000",
      "reserved": "",
      "salt": "0xb31f552030aecb8700242afd7053164c1579d0b562c24a85853b6d954912dbba",
      "assetIds": []
    },
    {
      "x": 8,
      "y": 355,
      "size": 1,
      "price": "1011000000000000000000",
      "reserved": "",
      "salt": "0x077bd226f491f14200c760e0b95aae0c4dc3437415eeae7bb8903ea3d4f31ea9",
      "assetIds": []
    },
    {
      "x": 8,
      "y": 356,
      "size": 1,
      "price": "1011000000000000000000",
      "reserved": "0x7a9fe22691c811ea339d9b73150e6911a5343dca",
      "salt": "0x2f56a6612c7a179a20f30e15d3bbeec15329ce88c21e5a8d2aa783a48dc5f02b",
      "assetIds": []
    },
    {
      "x": 9,
      "y": 328,
      "size": 1,
      "price": "1011000000000000000000",
      "reserved": "",
      "salt": "0x974e262037bef483ad06f0f82714be650aabf39e9f9c7a6b4f97b93b168f0d61",
      "assetIds": []
    },
    {
      "x": 9,
      "y": 329,
      "size": 1,
      "price": "1011000000000000000000",
      "reserved": "",
      "salt": "0x67c0daa71018863c2ca63029ade129cd7063e1cffb2127da0e34f2fb65457796",
      "assetIds": []
    },
    {
      "x": 9,
      "y": 330,
      "size": 1,
      "price": "1011000000000000000000",
      "reserved": "",
      "salt": "0xb764c38fa821de2671bd5983aac990ffcc6ca98d420eb83daf169063523dae55",
      "assetIds": []
    },
    {
      "x": 9,
      "y": 331,
      "size": 1,
      "price": "1011000000000000000000",
      "reserved": "",
      "salt": "0x4391e16188caa83a0594cbaa763adb1f84892920b7479f4cc1850a4f1b441233",
      "assetIds": []
    },
    {
      "x": 9,
      "y": 332,
      "size": 1,
      "price": "1011000000000000000000",
      "reserved": "",
      "salt": "0x3bbcfb3a50ae112cfdd9b7eadaa050f4b363d8fc30f51a377ceba8e98142fb94",
      "assetIds": []
    },
    {
      "x": 9,
      "y": 333,
      "size": 1,
      "price": "1011000000000000000000",
      "reserved": "",
      "salt": "0xc7b9aae520c4b16e060ce381ff481e03a57a22a731dec7d7fa1260acb4b5eab5",
      "assetIds": []
    },
    {
      "x": 9,
      "y": 334,
      "size": 1,
      "price": "1011000000000000000000",
      "reserved": "",
      "salt": "0x125b521b6929331bdc758968b840a7b465be7eee42f1657bead4ae3b6c8dfee6",
      "assetIds": []
    },
    {
      "x": 9,
      "y": 335,
      "size": 1,
      "price": "4683000000000000000000",
      "reserved": "",
      "salt": "0x670cf0f4052d4953b1716e6e0ae7260f9e887b73bf6bd8b0504340502114aa4e",
      "assetIds": [
        "41506478881403507969696680653240014914910929820314476107906210059990541021188"
      ]
    },
    {
      "x": 9,
      "y": 336,
      "size": 1,
      "price": "4683000000000000000000",
      "reserved": "",
      "salt": "0x6c17be905dbd30ce1a320bfd02554c1921dbb48c2fe49d21b022f3d224a1ac32",
      "assetIds": [
        "41506478881403507969696680653240014914910929820314476107906210059990541021188"
      ]
    },
    {
      "x": 9,
      "y": 337,
      "size": 1,
      "price": "1011000000000000000000",
      "reserved": "0x7a9fe22691c811ea339d9b73150e6911a5343dca",
      "salt": "0x9ac30a33ccb5dc89d65ce0902879fb73e4091edc1e6182b13a1c8e0caffff6be",
      "assetIds": []
    },
    {
      "x": 9,
      "y": 338,
      "size": 1,
      "price": "4683000000000000000000",
      "reserved": "",
      "salt": "0xfd7609f2229f97c3ff5d331904b68d6a83055842b2f8e3b9d488ccc70f282ab8",
      "assetIds": [
        "41506478881403507969696680653240014914910929820314476107906210059990541021188"
      ]
    },
    {
      "x": 9,
      "y": 339,
      "size": 1,
      "price": "4683000000000000000000",
      "reserved": "",
      "salt": "0xeab5460ad02d2c43adcb17a25464be280f41660e8db3941a3661ffa13080e471",
      "assetIds": [
        "41506478881403507969696680653240014914910929820314476107906210059990541021188"
      ]
    },
    {
      "x": 9,
      "y": 340,
      "size": 1,
      "price": "4683000000000000000000",
      "reserved": "",
      "salt": "0x870fdc9e57e873a6bfa0c3ac20d129a3789711a1a5f5e7527d8fd8aaaaae59ac",
      "assetIds": [
        "41506478881403507969696680653240014914910929820314476107906210059990541021188"
      ]
    },
    {
      "x": 9,
      "y": 341,
      "size": 1,
      "price": "4683000000000000000000",
      "reserved": "",
      "salt": "0x4e3db79f60c47d5e8247ec5a78caf6cb53ef47dc9f5cabab63587dded9c1bd58",
      "assetIds": [
        "41506478881403507969696680653240014914910929820314476107906210059990541021188"
      ]
    },
    {
      "x": 9,
      "y": 342,
      "size": 1,
      "price": "4683000000000000000000",
      "reserved": "",
      "salt": "0x4dd5df218686afeee6c437b2954c679c15004eea095cf9d94aedec613d1a6cb5",
      "assetIds": [
        "41506478881403507969696680653240014914910929820314476107906210059990541021188"
      ]
    },
    {
      "x": 9,
      "y": 343,
      "size": 1,
      "price": "4683000000000000000000",
      "reserved": "",
      "salt": "0xf1ba349e1646ceb44d105db7154a27a922e45813aeed039a689ad76b66e47109",
      "assetIds": [
        "41506478881403507969696680653240014914910929820314476107906210059990541021188"
      ]
    },
    {
      "x": 9,
      "y": 344,
      "size": 1,
      "price": "4683000000000000000000",
      "reserved": "",
      "salt": "0x72a1efd35f479fd96adc9afdbed51517854b264ec1e377b0f17245b4299723ab",
      "assetIds": [
        "41506478881403507969696680653240014914910929820314476107906210059990541021188"
      ]
    },
    {
      "x": 9,
      "y": 345,
      "size": 1,
      "price": "4683000000000000000000",
      "reserved": "",
      "salt": "0xd4823242b1007aa6183b843724bdedb8c2ddc67b92a37243ef463305de0b6016",
      "assetIds": [
        "41506478881403507969696680653240014914910929820314476107906210059990541021188"
      ]
    },
    {
      "x": 9,
      "y": 346,
      "size": 1,
      "price": "1011000000000000000000",
      "reserved": "0x7a9fe22691c811ea339d9b73150e6911a5343dca",
      "salt": "0x33e7d31e59b0a7033be84cd979ebcbe7b0bb3ad29633e257fc7a57694363af65",
      "assetIds": []
    },
    {
      "x": 9,
      "y": 347,
      "size": 1,
      "price": "1011000000000000000000",
      "reserved": "0x7a9fe22691c811ea339d9b73150e6911a5343dca",
      "salt": "0xf3884013d335d825c501f30e221fe478d25d021c210e0e453cd8ead240351d80",
      "assetIds": []
    },
    {
      "x": 9,
      "y": 348,
      "size": 1,
      "price": "1011000000000000000000",
      "reserved": "",
      "salt": "0x19a58e96c89698e8a5f2e45f9099993a514d1aabd7658b9a7f6b4097105cd546",
      "assetIds": []
    },
    {
      "x": 9,
      "y": 349,
      "size": 1,
      "price": "1011000000000000000000",
      "reserved": "0x7a9fe22691c811ea339d9b73150e6911a5343dca",
      "salt": "0xfccfde0cd691d7a72d7140622327c47c3559245f74cefae9c09a4411560147d0",
      "assetIds": []
    },
    {
      "x": 9,
      "y": 350,
      "size": 1,
      "price": "1011000000000000000000",
      "reserved": "",
      "salt": "0x0eb82f538a984023525f4a9d650e7fc4df319b0a811eafa7d2d4a0c91ff8b7e0",
      "assetIds": []
    },
    {
      "x": 9,
      "y": 351,
      "size": 1,
      "price": "1011000000000000000000",
      "reserved": "",
      "salt": "0x170a82612c55d6c2cb520458b5729e68ece9cbb43f6582eb5c5487ea0e3f9020",
      "assetIds": []
    },
    {
      "x": 9,
      "y": 352,
      "size": 1,
      "price": "1011000000000000000000",
      "reserved": "",
      "salt": "0x0a39944e24d140079c40d38b9f5cb50d797e220e11868742f6efcaa6a6c70f5b",
      "assetIds": []
    },
    {
      "x": 9,
      "y": 353,
      "size": 1,
      "price": "1011000000000000000000",
      "reserved": "",
      "salt": "0xa7c646785e1c9279f384f1d7c5e813d4e0a496234aace5018614e6336018d1fc",
      "assetIds": []
    },
    {
      "x": 9,
      "y": 354,
      "size": 1,
      "price": "1011000000000000000000",
      "reserved": "",
      "salt": "0xdb5d7a1cb666b7b600d78bc5cf4fe0a28f4bfa91bd365384865c5895bda419c9",
      "assetIds": []
    },
    {
      "x": 9,
      "y": 355,
      "size": 1,
      "price": "1011000000000000000000",
      "reserved": "0x7a9fe22691c811ea339d9b73150e6911a5343dca",
      "salt": "0x3fb296a7e8e82e2c2529bf35898cb934de8258e107c66b47606269a453fade03",
      "assetIds": []
    },
    {
      "x": 9,
      "y": 356,
      "size": 1,
      "price": "1011000000000000000000",
      "reserved": "",
      "salt": "0xd2d1fce29ff22d28f157b851c56539a6df64f6379a2cb49c83d0f233401c0067",
      "assetIds": []
    },
    {
      "x": 10,
      "y": 328,
      "size": 1,
      "price": "1011000000000000000000",
      "reserved": "",
      "salt": "0x5e0c646f5c9bd56be12f2eae0e6dbd5a941fe27ebed712a7447587b06980eaee",
      "assetIds": []
    },
    {
      "x": 10,
      "y": 329,
      "size": 1,
      "price": "1011000000000000000000",
      "reserved": "0x7a9fe22691c811ea339d9b73150e6911a5343dca",
      "salt": "0xe65a87a24dac4fb1c798c31d252d7862a8ee4f603864eedb2d11accd327f3b39",
      "assetIds": []
    },
    {
      "x": 10,
      "y": 330,
      "size": 1,
      "price": "1011000000000000000000",
      "reserved": "",
      "salt": "0x22e7393fae56e0c4f7c9c3fd182362131d7b3de87e6b8ff5a1dc4ef1de894f44",
      "assetIds": []
    },
    {
      "x": 10,
      "y": 331,
      "size": 1,
      "price": "1011000000000000000000",
      "reserved": "0x7a9fe22691c811ea339d9b73150e6911a5343dca",
      "salt": "0xf1bbd46065c002435dd6e6de6b9f5c2f3744b264c5c923363d5a8083268d6be8",
      "assetIds": []
    },
    {
      "x": 10,
      "y": 332,
      "size": 1,
      "price": "1011000000000000000000",
      "reserved": "",
      "salt": "0xb910ce4fbfaff4cab6a007ba5c3889cc7730125a6e4d9fc231eb2e7995d6b556",
      "assetIds": []
    },
    {
      "x": 10,
      "y": 333,
      "size": 1,
      "price": "1011000000000000000000",
      "reserved": "",
      "salt": "0x7bccfe550e24a6fee7311289d78dd618207acc83701bc9b085823409f2aca6dc",
      "assetIds": []
    },
    {
      "x": 10,
      "y": 334,
      "size": 1,
      "price": "1011000000000000000000",
      "reserved": "",
      "salt": "0x4a199a99e65d4c35dff9d1f85c00ac66b0ded28b4c901f44543fa7b28764604a",
      "assetIds": []
    },
    {
      "x": 10,
      "y": 335,
      "size": 1,
      "price": "4683000000000000000000",
      "reserved": "",
      "salt": "0x8e37a2672bb53da0efb987df0398856062d74bb49c7baf16cd45a9934adb5294",
      "assetIds": [
        "41506478881403507969696680653240014914910929820314476107906210059990541021188"
      ]
    },
    {
      "x": 10,
      "y": 336,
      "size": 1,
      "price": "4683000000000000000000",
      "reserved": "",
      "salt": "0x4ee456802010099ced63cbaa9c83013e9b3884c892a363838b964c33a5f96a66",
      "assetIds": [
        "41506478881403507969696680653240014914910929820314476107906210059990541021188"
      ]
    },
    {
      "x": 10,
      "y": 337,
      "size": 1,
      "price": "4683000000000000000000",
      "reserved": "",
      "salt": "0x69fdcacf67ee6c5cfafb3ca6ab2515dd567ab5497b44794ebe7b3927cde5fd42",
      "assetIds": [
        "41506478881403507969696680653240014914910929820314476107906210059990541021188"
      ]
    },
    {
      "x": 10,
      "y": 338,
      "size": 1,
      "price": "4683000000000000000000",
      "reserved": "",
      "salt": "0xf661db5b6540237c3188aa111f62463aad9eb5510e64721e8b03c3a92b430985",
      "assetIds": [
        "41506478881403507969696680653240014914910929820314476107906210059990541021188"
      ]
    },
    {
      "x": 10,
      "y": 339,
      "size": 1,
      "price": "4683000000000000000000",
      "reserved": "",
      "salt": "0xf4de75933600cd32c0faebb46f868c18cc2f17f4f2f554fafbc0c35ae83c60bf",
      "assetIds": [
        "41506478881403507969696680653240014914910929820314476107906210059990541021188"
      ]
    },
    {
      "x": 10,
      "y": 340,
      "size": 1,
      "price": "4683000000000000000000",
      "reserved": "",
      "salt": "0xc0c878840c68333465b74284bd77eea96c055c22c040a05024cb19c976bfca1a",
      "assetIds": [
        "41506478881403507969696680653240014914910929820314476107906210059990541021188"
      ]
    },
    {
      "x": 10,
      "y": 341,
      "size": 1,
      "price": "4683000000000000000000",
      "reserved": "",
      "salt": "0xa75c877be02407b8189b79a315bfb995cd40d4c32cdd474c02112d004dfe61e9",
      "assetIds": [
        "41506478881403507969696680653240014914910929820314476107906210059990541021188"
      ]
    },
    {
      "x": 10,
      "y": 342,
      "size": 1,
      "price": "4683000000000000000000",
      "reserved": "",
      "salt": "0x9d35a88cc2f1fcf7533ff007a3224743c1f2c28dc59e3c95963cbd4f0462f8b6",
      "assetIds": [
        "41506478881403507969696680653240014914910929820314476107906210059990541021188"
      ]
    },
    {
      "x": 10,
      "y": 343,
      "size": 1,
      "price": "4683000000000000000000",
      "reserved": "",
      "salt": "0x907ba92efce8897f9cb2babafafa39c05f5a66353f282cdde75cd58e0d1a43c7",
      "assetIds": [
        "41506478881403507969696680653240014914910929820314476107906210059990541021188"
      ]
    },
    {
      "x": 10,
      "y": 344,
      "size": 1,
      "price": "1011000000000000000000",
      "reserved": "0x7a9fe22691c811ea339d9b73150e6911a5343dca",
      "salt": "0x918385ff25359a265ad94c85f4e9e4de00706240229ffc01553e601097faae1b",
      "assetIds": []
    },
    {
      "x": 10,
      "y": 345,
      "size": 1,
      "price": "4683000000000000000000",
      "reserved": "",
      "salt": "0x8e94cb98d580a837b2dc35ec9360fbff7496d0c40426c53006954ab2d93f76db",
      "assetIds": [
        "41506478881403507969696680653240014914910929820314476107906210059990541021188"
      ]
    },
    {
      "x": 10,
      "y": 346,
      "size": 1,
      "price": "1011000000000000000000",
      "reserved": "0x7a9fe22691c811ea339d9b73150e6911a5343dca",
      "salt": "0xec756f3157d7914c560fff2c0fb937aad403198976a5e7b80445686c54f7d476",
      "assetIds": []
    },
    {
      "x": 10,
      "y": 347,
      "size": 1,
      "price": "1011000000000000000000",
      "reserved": "",
      "salt": "0x1d4a5feab61d37efca776d48499379e2f275580bc7e64ed70a70897f29ae386c",
      "assetIds": []
    },
    {
      "x": 10,
      "y": 348,
      "size": 1,
      "price": "1011000000000000000000",
      "reserved": "0x7a9fe22691c811ea339d9b73150e6911a5343dca",
      "salt": "0xc3631f68311e0333d6b557f076b839683dea558def8673a22937ce72bc7847a4",
      "assetIds": []
    },
    {
      "x": 10,
      "y": 349,
      "size": 1,
      "price": "1011000000000000000000",
      "reserved": "",
      "salt": "0x2753f32ca1204212d635f2e7b19f19a126159291000cfdde2025b2c1e5f13470",
      "assetIds": []
    },
    {
      "x": 10,
      "y": 350,
      "size": 1,
      "price": "1011000000000000000000",
      "reserved": "",
      "salt": "0x497f1075b7dda01e3be06489652aac5e4c8949e03bb7de30409458b067170250",
      "assetIds": []
    },
    {
      "x": 10,
      "y": 351,
      "size": 1,
      "price": "1011000000000000000000",
      "reserved": "0x7a9fe22691c811ea339d9b73150e6911a5343dca",
      "salt": "0x2a5346c783dc2d370eef43b9f352a0bacbffd2c832502e435c8463514abd8802",
      "assetIds": []
    },
    {
      "x": 10,
      "y": 352,
      "size": 1,
      "price": "1011000000000000000000",
      "reserved": "",
      "salt": "0x56f1cc96f9ffb5dbd11238801d68b0b5edf3fe3899dde3e2ca085f963eaef93e",
      "assetIds": []
    },
    {
      "x": 10,
      "y": 353,
      "size": 1,
      "price": "1011000000000000000000",
      "reserved": "0x7a9fe22691c811ea339d9b73150e6911a5343dca",
      "salt": "0x2aa659313f0a990ab49d80255db80c608be959264c3c26ca029267c38486088d",
      "assetIds": []
    },
    {
      "x": 10,
      "y": 354,
      "size": 1,
      "price": "1011000000000000000000",
      "reserved": "",
      "salt": "0x6ab16ff9f55619d4fab3735d5064b35ccb0b39ff6adc0b8eb607ff7ce7c112ea",
      "assetIds": []
    },
    {
      "x": 10,
      "y": 355,
      "size": 1,
      "price": "1011000000000000000000",
      "reserved": "0x7a9fe22691c811ea339d9b73150e6911a5343dca",
      "salt": "0xc9e212dc8c28b13958e03509497e9f991f9c50070e50702a8ab127ef2a23c61f",
      "assetIds": []
    },
    {
      "x": 10,
      "y": 356,
      "size": 1,
      "price": "1011000000000000000000",
      "reserved": "",
      "salt": "0x1fa0c8933bb7469112e6cf9dc48db88b9695661f98af22b48c8d202b9cece7da",
      "assetIds": []
    },
    {
      "x": 11,
      "y": 328,
      "size": 1,
      "price": "1011000000000000000000",
      "reserved": "",
      "salt": "0x28d1fedb097fccfba7a66ab996b9db1d70c3ab9cc45b2fbce3010534476dd24b",
      "assetIds": []
    },
    {
      "x": 11,
      "y": 329,
      "size": 1,
      "price": "1011000000000000000000",
      "reserved": "",
      "salt": "0x54df35f215ab47c82d8ff60b49614fba24c2753c2d7e17af7c26d43b2e25b480",
      "assetIds": []
    },
    {
      "x": 11,
      "y": 330,
      "size": 1,
      "price": "1011000000000000000000",
      "reserved": "",
      "salt": "0x46180b772e409adb713acd1ae430d167c224fdb2042332a3393d579b64bceeb1",
      "assetIds": []
    },
    {
      "x": 11,
      "y": 331,
      "size": 1,
      "price": "1011000000000000000000",
      "reserved": "",
      "salt": "0xf2ae6e76c0e0819dae2cd742a54a107716b5f828d06a53642c27accb622e2a43",
      "assetIds": []
    },
    {
      "x": 11,
      "y": 332,
      "size": 1,
      "price": "1011000000000000000000",
      "reserved": "0x7a9fe22691c811ea339d9b73150e6911a5343dca",
      "salt": "0xe153ee80b17fedb38ac2ebad7ec703f47f732d6d140428809bc915217a294e6c",
      "assetIds": []
    },
    {
      "x": 11,
      "y": 333,
      "size": 1,
      "price": "1011000000000000000000",
      "reserved": "",
      "salt": "0xff3aa055d6e04cbed1418992769dcae6f3890e95d339f93730166bf223258cb1",
      "assetIds": []
    },
    {
      "x": 11,
      "y": 334,
      "size": 1,
      "price": "1011000000000000000000",
      "reserved": "",
      "salt": "0x28b6a3697fbc02a25f568edbb0b8969ee8c4b3e2f6973e98e805620fa49d0b34",
      "assetIds": []
    },
    {
      "x": 11,
      "y": 335,
      "size": 1,
      "price": "1011000000000000000000",
      "reserved": "0x7a9fe22691c811ea339d9b73150e6911a5343dca",
      "salt": "0xee5cfc76098504cbd62d3d5b494314227a6b59b82242fa5eb1ab521966d17913",
      "assetIds": []
    },
    {
      "x": 11,
      "y": 336,
      "size": 1,
      "price": "4683000000000000000000",
      "reserved": "",
      "salt": "0x9fc137ba333471d6c514664cd297c19f1cf2d55465a137593f5b41c9b135a364",
      "assetIds": [
        "41506478881403507969696680653240014914910929820314476107906210059990541021188"
      ]
    },
    {
      "x": 11,
      "y": 337,
      "size": 1,
      "price": "4683000000000000000000",
      "reserved": "",
      "salt": "0x90b51eb820aa516820d3c8c7e9fee8abfbe44b8bfad103bacfe5236d30070d10",
      "assetIds": [
        "41506478881403507969696680653240014914910929820314476107906210059990541021188"
      ]
    },
    {
      "x": 11,
      "y": 338,
      "size": 1,
      "price": "4683000000000000000000",
      "reserved": "",
      "salt": "0x051d76f10378a93e2af4985567436888dc9f72d58cd4abdcb5e10d6c15310826",
      "assetIds": [
        "41506478881403507969696680653240014914910929820314476107906210059990541021188"
      ]
    },
    {
      "x": 11,
      "y": 339,
      "size": 1,
      "price": "4683000000000000000000",
      "reserved": "",
      "salt": "0xfab25b84b6fb6b3073f3e87ab00776a1d171ee2941b1ae5ef46ed980e2cf2f63",
      "assetIds": [
        "41506478881403507969696680653240014914910929820314476107906210059990541021188"
      ]
    },
    {
      "x": 11,
      "y": 340,
      "size": 1,
      "price": "4683000000000000000000",
      "reserved": "",
      "salt": "0x81de9ee0300b51bf1aa81ed05dd5eb4a52025bf42f1c476cad29ea766e65b14d",
      "assetIds": [
        "41506478881403507969696680653240014914910929820314476107906210059990541021188"
      ]
    },
    {
      "x": 11,
      "y": 341,
      "size": 1,
      "price": "4683000000000000000000",
      "reserved": "",
      "salt": "0xbc138cbc9f00571fd2bb7b260026b161747b6645afda790c4ddf8c8da1662175",
      "assetIds": [
        "41506478881403507969696680653240014914910929820314476107906210059990541021188"
      ]
    },
    {
      "x": 11,
      "y": 342,
      "size": 1,
      "price": "4683000000000000000000",
      "reserved": "",
      "salt": "0x91f3d2b7ce04978ef4caef8e519843679eab0fada2d6c1fb616d6a66c0004192",
      "assetIds": [
        "41506478881403507969696680653240014914910929820314476107906210059990541021188"
      ]
    },
    {
      "x": 11,
      "y": 343,
      "size": 1,
      "price": "4683000000000000000000",
      "reserved": "",
      "salt": "0x8b6dd99e67c3e41895f69bd930a7d51aa0859ed131aac763575584b803edf198",
      "assetIds": [
        "41506478881403507969696680653240014914910929820314476107906210059990541021188"
      ]
    },
    {
      "x": 11,
      "y": 344,
      "size": 1,
      "price": "4683000000000000000000",
      "reserved": "",
      "salt": "0x034e92bbe80b539413fb33f51620a7afb0d008aba4f4c6ac6af3c48f79e0500e",
      "assetIds": [
        "41506478881403507969696680653240014914910929820314476107906210059990541021188"
      ]
    },
    {
      "x": 11,
      "y": 345,
      "size": 1,
      "price": "4683000000000000000000",
      "reserved": "",
      "salt": "0x50cd8b1acf8f4d763ad9f95ce275954c0f18fd8c200e018c1e81b88e14f2c0d7",
      "assetIds": [
        "41506478881403507969696680653240014914910929820314476107906210059990541021188"
      ]
    },
    {
      "x": 11,
      "y": 346,
      "size": 1,
      "price": "1011000000000000000000",
      "reserved": "",
      "salt": "0x26364b9e4f36da3e70e3ee1a90f3b029faac12f3ac0babe4f0aac677d26d8837",
      "assetIds": []
    },
    {
      "x": 11,
      "y": 347,
      "size": 1,
      "price": "1011000000000000000000",
      "reserved": "",
      "salt": "0x9a25754f14d7fc867054bf0072e52c6854fd6aa704a961d1ff426805cf020e6d",
      "assetIds": []
    },
    {
      "x": 11,
      "y": 348,
      "size": 1,
      "price": "1011000000000000000000",
      "reserved": "",
      "salt": "0xb2a7b6e8711456c28425bdef1e03a9d9b36ef36dfb2223ad0ce329a65eb1018f",
      "assetIds": []
    },
    {
      "x": 11,
      "y": 349,
      "size": 1,
      "price": "1011000000000000000000",
      "reserved": "0x7a9fe22691c811ea339d9b73150e6911a5343dca",
      "salt": "0xd6b4c358d81d22aaa2162fb125d7713ef8c48f3738f28bd432e1408b58c5608a",
      "assetIds": []
    },
    {
      "x": 11,
      "y": 350,
      "size": 1,
      "price": "1011000000000000000000",
      "reserved": "0x7a9fe22691c811ea339d9b73150e6911a5343dca",
      "salt": "0x784650d9587abcfde434bddf4659b879a0e99614f0e2e8f3252fefb4cfe0e750",
      "assetIds": []
    },
    {
      "x": 11,
      "y": 351,
      "size": 1,
      "price": "1011000000000000000000",
      "reserved": "",
      "salt": "0x21c7b8eff3c2a25b44a038167a8f1dfc0a60763f0f29d52759e6e5bf6ee839e3",
      "assetIds": []
    },
    {
      "x": 11,
      "y": 352,
      "size": 1,
      "price": "1011000000000000000000",
      "reserved": "",
      "salt": "0xcb691955eaf793e94baca611d29a66105955b6811a9044eadde256383adb511f",
      "assetIds": []
    },
    {
      "x": 11,
      "y": 353,
      "size": 1,
      "price": "1011000000000000000000",
      "reserved": "",
      "salt": "0x8106f21a4df91228062f6b4388128de06f78d21c5c57b318fa4fc1b4541098a3",
      "assetIds": []
    },
    {
      "x": 11,
      "y": 354,
      "size": 1,
      "price": "1011000000000000000000",
      "reserved": "",
      "salt": "0x231c89ed202217e89861e635aaf78cd8e8a4b1f5c61103dceffa193bd38f41dc",
      "assetIds": []
    },
    {
      "x": 11,
      "y": 355,
      "size": 1,
      "price": "1011000000000000000000",
      "reserved": "",
      "salt": "0xca7ce621043d923f8c4d13a38302d4b0c88eaf256d7c82c471a0f4b8ad5d7ec0",
      "assetIds": []
    },
    {
      "x": 11,
      "y": 356,
      "size": 1,
      "price": "1011000000000000000000",
      "reserved": "",
      "salt": "0x9296ef1c7fcecaea7024788e622944d470e12894e9735fa7fd6bf3a1996f503f",
      "assetIds": []
    },
    {
      "x": 12,
      "y": 328,
      "size": 1,
      "price": "1011000000000000000000",
      "reserved": "0x7a9fe22691c811ea339d9b73150e6911a5343dca",
      "salt": "0xf7bd67526c299ab65aba3e63107ed6c39262cc273c101c829e08df625d44d8dd",
      "assetIds": []
    },
    {
      "x": 12,
      "y": 329,
      "size": 1,
      "price": "1011000000000000000000",
      "reserved": "",
      "salt": "0xd814d650a0f716c6b3542718a62cc32e21c34b78d1c07dadc788ac1fffcd54be",
      "assetIds": []
    },
    {
      "x": 12,
      "y": 330,
      "size": 1,
      "price": "1011000000000000000000",
      "reserved": "0x7a9fe22691c811ea339d9b73150e6911a5343dca",
      "salt": "0xacde3e5df5962160318c834a94900830ddd396456d4227c20abc7eaf1168bd42",
      "assetIds": []
    },
    {
      "x": 12,
      "y": 331,
      "size": 1,
      "price": "1011000000000000000000",
      "reserved": "",
      "salt": "0xbd2d94485d1666c10a7b6e16977bae3466a4946aa8fe4b53984be6397d8a08dc",
      "assetIds": []
    },
    {
      "x": 12,
      "y": 332,
      "size": 1,
      "price": "1011000000000000000000",
      "reserved": "",
      "salt": "0xaabdf311fb0cbcee0cb4a46fe20180357f292dd9b6b8085ecbc294f5abdee4c6",
      "assetIds": []
    },
    {
      "x": 12,
      "y": 333,
      "size": 1,
      "price": "1011000000000000000000",
      "reserved": "",
      "salt": "0x0f8c5c207b5d5c78c5c220b9b833beb9c7f4f5f7cb6fa319398ff1d135c2b46a",
      "assetIds": []
    },
    {
      "x": 12,
      "y": 334,
      "size": 1,
      "price": "1011000000000000000000",
      "reserved": "",
      "salt": "0xe1a7d845a7f2924655d744841b8d6845028ce8d330682e86f8e3e1330c1eef28",
      "assetIds": []
    },
    {
      "x": 12,
      "y": 335,
      "size": 1,
      "price": "1011000000000000000000",
      "reserved": "",
      "salt": "0x3f2e8c8ff78c53748122eb4f65869a2cbe7150fc08484b4e37f923d51e454335",
      "assetIds": []
    },
    {
      "x": 12,
      "y": 354,
      "size": 1,
      "price": "1011000000000000000000",
      "reserved": "",
      "salt": "0xc1bb8f1364e072795e8decfdf8870aaf9cf2b98fe6b2a4e8f1813145d1897b63",
      "assetIds": []
    },
    {
      "x": 12,
      "y": 355,
      "size": 1,
      "price": "1011000000000000000000",
      "reserved": "0x7a9fe22691c811ea339d9b73150e6911a5343dca",
      "salt": "0x52b52ddc02cf66b842fa238b9830fc82455807096f728c6f4c02d49051efb9cf",
      "assetIds": []
    },
    {
      "x": 12,
      "y": 356,
      "size": 1,
      "price": "1011000000000000000000",
      "reserved": "0x7a9fe22691c811ea339d9b73150e6911a5343dca",
      "salt": "0xe98b3281d0ac65c27bb7ff66b3c3fd10641ae93718082cc083ad5d689f9465da",
      "assetIds": []
    },
    {
      "x": 12,
      "y": 357,
      "size": 1,
      "price": "1011000000000000000000",
      "reserved": "",
      "salt": "0x7ee2f4f0bddfa50719078858683c4204c825a9195b835a6b8f0a609fb98010ec",
      "assetIds": []
    },
    {
      "x": 12,
      "y": 358,
      "size": 1,
      "price": "1011000000000000000000",
      "reserved": "",
      "salt": "0xda0128599968206cc09388e8186eb7bbbc0dc41a104c6676a60e7021585b7400",
      "assetIds": []
    },
    {
      "x": 12,
      "y": 359,
      "size": 1,
      "price": "1011000000000000000000",
      "reserved": "0x7a9fe22691c811ea339d9b73150e6911a5343dca",
      "salt": "0x9630776a6dcf78aff0f74eb15a48303150dea9a9de428b2d08abf425c6e37bf9",
      "assetIds": []
    },
    {
      "x": 13,
      "y": 328,
      "size": 1,
      "price": "1011000000000000000000",
      "reserved": "0x7a9fe22691c811ea339d9b73150e6911a5343dca",
      "salt": "0x9b22a4935bc45e57704f800505513278bf395d77520bd07367c650b3eaff3ca2",
      "assetIds": []
    },
    {
      "x": 13,
      "y": 329,
      "size": 1,
      "price": "1011000000000000000000",
      "reserved": "",
      "salt": "0x42f05caf12bc7e7f81662f6e2f3f3cd317eb7b0b621a2dca7d4348c4e83bb656",
      "assetIds": []
    },
    {
      "x": 13,
      "y": 330,
      "size": 1,
      "price": "1011000000000000000000",
      "reserved": "0x7a9fe22691c811ea339d9b73150e6911a5343dca",
      "salt": "0xa60785c37a05da9c0c301d35e64c7db1c926596d7e9480ded6e56f6537eed27e",
      "assetIds": []
    },
    {
      "x": 13,
      "y": 331,
      "size": 1,
      "price": "1011000000000000000000",
      "reserved": "",
      "salt": "0x12e225876fd100d60e1de3e88b00d6d075bebdffb7265b83e29e06f070074331",
      "assetIds": []
    },
    {
      "x": 13,
      "y": 332,
      "size": 1,
      "price": "1011000000000000000000",
      "reserved": "",
      "salt": "0x1e86d57d79a5322545958145e22d156b6eba9f90c666d46f981f271ec63623e7",
      "assetIds": []
    },
    {
      "x": 13,
      "y": 333,
      "size": 1,
      "price": "1011000000000000000000",
      "reserved": "",
      "salt": "0x5003280e7de8239377aaf360d18f14fd2fdb8c024f006777742702e3a099fd38",
      "assetIds": []
    },
    {
      "x": 13,
      "y": 334,
      "size": 1,
      "price": "1011000000000000000000",
      "reserved": "",
      "salt": "0x3c5c292a2750a5ef7356a86aac1059baea762ea35c07b9f688ea5c2e7d59d013",
      "assetIds": []
    },
    {
      "x": 13,
      "y": 335,
      "size": 1,
      "price": "1011000000000000000000",
      "reserved": "",
      "salt": "0xf6b2de8a2fff3189a013be928fcdbd6cd7a7ec62b6462a91575ce8778a208cdd",
      "assetIds": []
    },
    {
      "x": 13,
      "y": 354,
      "size": 1,
      "price": "1011000000000000000000",
      "reserved": "",
      "salt": "0x26f18626059ce2ce88bf7ed42d061b26a56883b6a5f0d259e31c58c262720d7c",
      "assetIds": []
    },
    {
      "x": 13,
      "y": 355,
      "size": 1,
      "price": "1011000000000000000000",
      "reserved": "",
      "salt": "0x221ac46de2b6966a9bc68f218740b64e2eb812e513e8b0d7a1de3e19644f29ed",
      "assetIds": []
    },
    {
      "x": 13,
      "y": 356,
      "size": 1,
      "price": "1011000000000000000000",
      "reserved": "",
      "salt": "0x2330ed1ea885ace3bb7b2aabfeca326a5f218bc35fa3acb98513131b4758990c",
      "assetIds": []
    },
    {
      "x": 13,
      "y": 357,
      "size": 1,
      "price": "1011000000000000000000",
      "reserved": "",
      "salt": "0x8bd7462b7a3f214197d153b776a3a69d5ccc3d3219a06c4d3f5c80934ff99c1d",
      "assetIds": []
    },
    {
      "x": 13,
      "y": 358,
      "size": 1,
      "price": "1011000000000000000000",
      "reserved": "",
      "salt": "0xd2f54ba46bbef2223560678e1de44b7aa21cd96528d1c16021a01c255bd4e024",
      "assetIds": []
    },
    {
      "x": 13,
      "y": 359,
      "size": 1,
      "price": "1011000000000000000000",
      "reserved": "",
      "salt": "0x23adf02dfa29d1129032c94df22e5c1553205b867a260971dc32d6699f5f5c1a",
      "assetIds": []
    },
    {
      "x": 14,
      "y": 328,
      "size": 1,
      "price": "1011000000000000000000",
      "reserved": "",
      "salt": "0x8d0a826d07151f8eba9f57382c6c6a94530ead3c4a59a642abb431176c8e3d81",
      "assetIds": []
    },
    {
      "x": 14,
      "y": 329,
      "size": 1,
      "price": "1011000000000000000000",
      "reserved": "",
      "salt": "0x011022d0b3c57d6d3ad48264fd75266743f578703f3ed33612aad8a23f64f127",
      "assetIds": []
    },
    {
      "x": 14,
      "y": 330,
      "size": 1,
      "price": "1011000000000000000000",
      "reserved": "",
      "salt": "0xb52564e595b24eaadc5613da4c70e0bd4aba0e97094445d112974ef2954f7a7e",
      "assetIds": []
    },
    {
      "x": 14,
      "y": 331,
      "size": 1,
      "price": "1011000000000000000000",
      "reserved": "",
      "salt": "0xd72e77562d9e3b194620a5193cf536c219124b8348f66660e88308871b0f9f9d",
      "assetIds": []
    },
    {
      "x": 14,
      "y": 332,
      "size": 1,
      "price": "1011000000000000000000",
      "reserved": "0x7a9fe22691c811ea339d9b73150e6911a5343dca",
      "salt": "0x3cd2c990c6e69dac023c353c28067b146d0670890c5667ff6c3f27cc812ca419",
      "assetIds": []
    },
    {
      "x": 14,
      "y": 333,
      "size": 1,
      "price": "1011000000000000000000",
      "reserved": "",
      "salt": "0x71ebfffda53781b8bd9bf3f5affe83388a14d8c3262907a806f95a8366b17914",
      "assetIds": []
    },
    {
      "x": 14,
      "y": 334,
      "size": 1,
      "price": "1011000000000000000000",
      "reserved": "0x7a9fe22691c811ea339d9b73150e6911a5343dca",
      "salt": "0x1a8d53635a0ea8d50f6c456bd84956f7f688a8046bc08bdc742361206447d7d3",
      "assetIds": []
    },
    {
      "x": 14,
      "y": 335,
      "size": 1,
      "price": "1011000000000000000000",
      "reserved": "0x7a9fe22691c811ea339d9b73150e6911a5343dca",
      "salt": "0x6f5d0d2e2eeeea46e651aaf0317ac130edffd6a820dfeea903e17e24f290cb1d",
      "assetIds": []
    },
    {
      "x": 14,
      "y": 354,
      "size": 1,
      "price": "1011000000000000000000",
      "reserved": "",
      "salt": "0x7d23812e2610fa34b0290f61fcd25459f784305a527f77349788a2e880c4daeb",
      "assetIds": []
    },
    {
      "x": 14,
      "y": 355,
      "size": 1,
      "price": "1011000000000000000000",
      "reserved": "0x7a9fe22691c811ea339d9b73150e6911a5343dca",
      "salt": "0x68b0b259814713532156ca923e5c895d25a79c3e12538d02154c52b6d52c66e2",
      "assetIds": []
    },
    {
      "x": 14,
      "y": 356,
      "size": 1,
      "price": "1011000000000000000000",
      "reserved": "",
      "salt": "0x121d0684e840a95ef99990afddbae63b3f4955ee94b31f0c0a1af5cfb5e7dbf6",
      "assetIds": []
    },
    {
      "x": 14,
      "y": 357,
      "size": 1,
      "price": "1011000000000000000000",
      "reserved": "",
      "salt": "0x35be846f44112adad1af47f3ec8d2edebacbb701cb177384f7220af2364b1281",
      "assetIds": []
    },
    {
      "x": 14,
      "y": 358,
      "size": 1,
      "price": "1011000000000000000000",
      "reserved": "0x7a9fe22691c811ea339d9b73150e6911a5343dca",
      "salt": "0x19e17d8673bdbca563c76c2f5ed99ae1ff55b1d0015e930a6dfc97f2e07e4a4c",
      "assetIds": []
    },
    {
      "x": 14,
      "y": 359,
      "size": 1,
      "price": "1011000000000000000000",
      "reserved": "",
      "salt": "0xfef22aa6ca583eec218e346e66f50585a6da99ba90c2da581e2ee07d0feb693c",
      "assetIds": []
    },
    {
      "x": 15,
      "y": 328,
      "size": 1,
      "price": "1011000000000000000000",
      "reserved": "",
      "salt": "0x4314ee8ebbe33772d284a19a23264349760eab51b639e0aa51b1076a24d64a80",
      "assetIds": []
    },
    {
      "x": 15,
      "y": 329,
      "size": 1,
      "price": "1011000000000000000000",
      "reserved": "0x7a9fe22691c811ea339d9b73150e6911a5343dca",
      "salt": "0x9829c8c22b7c3a2670d3ca0167fb8b1fb36a46bf56b53492467f412570f193b5",
      "assetIds": []
    },
    {
      "x": 15,
      "y": 330,
      "size": 1,
      "price": "1011000000000000000000",
      "reserved": "",
      "salt": "0xfd471e328da78130ee9e36a294cbc4f297c75bdb618c7a1c966521c7b6446c70",
      "assetIds": []
    },
    {
      "x": 15,
      "y": 331,
      "size": 1,
      "price": "1011000000000000000000",
      "reserved": "",
      "salt": "0xd921d5846b602bdb6edfd791e33d189cc6a54087ea897363e6bf49d251abb4ce",
      "assetIds": []
    },
    {
      "x": 15,
      "y": 332,
      "size": 1,
      "price": "1011000000000000000000",
      "reserved": "",
      "salt": "0x5e4308f4d39131be8e8da37c16d6502720c6bd52525e221bbc0bb2f4744fe3dd",
      "assetIds": []
    },
    {
      "x": 15,
      "y": 333,
      "size": 1,
      "price": "1011000000000000000000",
      "reserved": "",
      "salt": "0x5edb0ec0037d2a2406dfb52e4cbc2bddc6b28e13efb821b14eb89676d4129ce1",
      "assetIds": []
    },
    {
      "x": 15,
      "y": 334,
      "size": 1,
      "price": "1011000000000000000000",
      "reserved": "",
      "salt": "0xf550e84bca7f48461a16211284736df6b457ceabd4b67e4ffd247aaac52846ef",
      "assetIds": []
    },
    {
      "x": 15,
      "y": 335,
      "size": 1,
      "price": "1011000000000000000000",
      "reserved": "",
      "salt": "0xdc6a68c024d5b09543ccb2c04b85eadd9939b187c10a5e4142df6da73d224304",
      "assetIds": []
    },
    {
      "x": 15,
      "y": 354,
      "size": 1,
      "price": "1011000000000000000000",
      "reserved": "",
      "salt": "0xa46f577c0252659caa0c72b08730968ea4471930f1ddccfb390c7c17dd7a45fb",
      "assetIds": []
    },
    {
      "x": 15,
      "y": 355,
      "size": 1,
      "price": "1011000000000000000000",
      "reserved": "",
      "salt": "0xf03b70f8a4fdc571638eb59e435291f3c6fa8aefa1519ccdfa928a3157164a96",
      "assetIds": []
    },
    {
      "x": 15,
      "y": 356,
      "size": 1,
      "price": "1011000000000000000000",
      "reserved": "",
      "salt": "0x21443dde687a0b78f7dae7117dbd8fa724473ea5661686de816bcada74ded895",
      "assetIds": []
    },
    {
      "x": 15,
      "y": 357,
      "size": 1,
      "price": "1011000000000000000000",
      "reserved": "",
      "salt": "0x0e60d18ce5c95e9dc08756c3c98ee13a3ad39b98241ca3028cd79ffe42cbfb36",
      "assetIds": []
    },
    {
      "x": 15,
      "y": 358,
      "size": 1,
      "price": "1011000000000000000000",
      "reserved": "",
      "salt": "0xdd07faaf42020b74c4d0bd4858751100e7425cc174661bc2f573cd83b445cc8c",
      "assetIds": []
    },
    {
      "x": 15,
      "y": 359,
      "size": 1,
      "price": "1011000000000000000000",
      "reserved": "",
      "salt": "0xb5a57eaca4b85b22753874ad867674c53398666f226c1d0b7bc991396a5f2e36",
      "assetIds": []
    },
    {
      "x": 16,
      "y": 328,
      "size": 1,
      "price": "1011000000000000000000",
      "reserved": "",
      "salt": "0x50f129790074d535e6b845756cf77216f734b00fcc64282e9ab7bad6c1bf8f78",
      "assetIds": []
    },
    {
      "x": 16,
      "y": 329,
      "size": 1,
      "price": "1011000000000000000000",
      "reserved": "",
      "salt": "0x9ed415b62f4be7fe17d06a60fc422a96128e9aa2faf5a48c117ca49d60744e51",
      "assetIds": []
    },
    {
      "x": 16,
      "y": 330,
      "size": 1,
      "price": "1011000000000000000000",
      "reserved": "",
      "salt": "0x1cedb14c338feea2ae11145d7374dee287e310c85f4c54c4c5105343fe3e8cff",
      "assetIds": []
    },
    {
      "x": 16,
      "y": 331,
      "size": 1,
      "price": "1011000000000000000000",
      "reserved": "0x7a9fe22691c811ea339d9b73150e6911a5343dca",
      "salt": "0xf2a2ddf8dbe331cf7e87a0a20169a1c48a51d736a342bc798ddd72d72050d29c",
      "assetIds": []
    },
    {
      "x": 16,
      "y": 332,
      "size": 1,
      "price": "1011000000000000000000",
      "reserved": "",
      "salt": "0xea661eb9af827608ed1af339f9f51b896cfa9e2897b2741e3f50e94bfaac6988",
      "assetIds": []
    },
    {
      "x": 16,
      "y": 333,
      "size": 1,
      "price": "1011000000000000000000",
      "reserved": "",
      "salt": "0xb07b35c1018a5493e1d3048c9c17e8f23eb1020b7630a4560ffa5ce6183640b1",
      "assetIds": []
    },
    {
      "x": 16,
      "y": 334,
      "size": 1,
      "price": "1011000000000000000000",
      "reserved": "",
      "salt": "0x6b101864cd76339232691e7703a6ff89a1c386e56d50061a84274d434502e187",
      "assetIds": []
    },
    {
      "x": 16,
      "y": 335,
      "size": 1,
      "price": "1011000000000000000000",
      "reserved": "",
      "salt": "0x2e2af5fd84fc555235178461f1a324cb119303c1aaa9213fc1a014f4884dd2a9",
      "assetIds": []
    },
    {
      "x": 16,
      "y": 354,
      "size": 1,
      "price": "1011000000000000000000",
      "reserved": "",
      "salt": "0x823b45a81de99681df0bb739ef909706e9ccf07931f0360ea05f9b202196600e",
      "assetIds": []
    },
    {
      "x": 16,
      "y": 355,
      "size": 1,
      "price": "1011000000000000000000",
      "reserved": "0x7a9fe22691c811ea339d9b73150e6911a5343dca",
      "salt": "0x56b4bbe9a50072d5fda7ce407fbb7f79830a6a5e36015938cc3b524bb1d83bcb",
      "assetIds": []
    },
    {
      "x": 16,
      "y": 356,
      "size": 1,
      "price": "1011000000000000000000",
      "reserved": "0x7a9fe22691c811ea339d9b73150e6911a5343dca",
      "salt": "0x30797c61daf19c26838190ffa986481ba231165439f89b63551fe8a312109623",
      "assetIds": []
    },
    {
      "x": 16,
      "y": 357,
      "size": 1,
      "price": "1011000000000000000000",
      "reserved": "",
      "salt": "0x936100dcc7578fef9e5d3e1c617f149ac7f8058aba73c1af605b9f53c0633411",
      "assetIds": []
    },
    {
      "x": 16,
      "y": 358,
      "size": 1,
      "price": "1011000000000000000000",
      "reserved": "",
      "salt": "0x04279da87c2633af30806743329bf15f0da16cca081e379776af705302ffc9a9",
      "assetIds": []
    },
    {
      "x": 16,
      "y": 359,
      "size": 1,
      "price": "1011000000000000000000",
      "reserved": "",
      "salt": "0x0116f367d818b3c9bba5da9a0a57721eb87d5f93b0cb4f6df24879ae9409d806",
      "assetIds": []
    },
    {
      "x": 17,
      "y": 328,
      "size": 1,
      "price": "1011000000000000000000",
      "reserved": "",
      "salt": "0x58f9add40d280c894550073e2713681feb152d1c61dc695330ae191c1f1f5570",
      "assetIds": []
    },
    {
      "x": 17,
      "y": 329,
      "size": 1,
      "price": "1011000000000000000000",
      "reserved": "0x7a9fe22691c811ea339d9b73150e6911a5343dca",
      "salt": "0x3c84099d12b0c89e10c3a89cfbda67698ad57c11dc70120c897d89120507d572",
      "assetIds": []
    },
    {
      "x": 17,
      "y": 330,
      "size": 1,
      "price": "1011000000000000000000",
      "reserved": "",
      "salt": "0xd9dfc00bf2fb691a488eb2970ab35164fc8a96e1f8b8bcb4ab36837e1ca99175",
      "assetIds": []
    },
    {
      "x": 17,
      "y": 331,
      "size": 1,
      "price": "1011000000000000000000",
      "reserved": "",
      "salt": "0x5e5d044e24b5ce6ea7199a9c1b6fcc7a399d90a18ed51f109fa5509e43278f6d",
      "assetIds": []
    },
    {
      "x": 17,
      "y": 332,
      "size": 1,
      "price": "1011000000000000000000",
      "reserved": "",
      "salt": "0xbc697c9db55ed71fdefcb2d7b84e56da7cd9b21f7e2a4010ac2464598ca7f4b4",
      "assetIds": []
    },
    {
      "x": 17,
      "y": 333,
      "size": 1,
      "price": "1011000000000000000000",
      "reserved": "",
      "salt": "0xee915ba08c88b6f8c39cd2012049f8c4f8bc4e0e088d538b0dbcddec8b968737",
      "assetIds": []
    },
    {
      "x": 17,
      "y": 334,
      "size": 1,
      "price": "1011000000000000000000",
      "reserved": "",
      "salt": "0x81eecadf6687363b6bca3f78fe877a130bce4bb9dc3072365ea18d134a113916",
      "assetIds": []
    },
    {
      "x": 17,
      "y": 335,
      "size": 1,
      "price": "1011000000000000000000",
      "reserved": "",
      "salt": "0x3325f816f458e00b79f3e3dc1a24ec85bbbd0e4d3dd26e58e7a5c9794bfff60c",
      "assetIds": []
    },
    {
      "x": 17,
      "y": 354,
      "size": 1,
      "price": "1011000000000000000000",
      "reserved": "",
      "salt": "0x9ceb6685be3b0ebf65117dde5c0c7f7e30acd5faceefb97b8e69f246794aa240",
      "assetIds": []
    },
    {
      "x": 17,
      "y": 355,
      "size": 1,
      "price": "1011000000000000000000",
      "reserved": "",
      "salt": "0x87ff930cf4cde8a25105c3b1ac359c99b5b8fe47df7c7db67ec08710a72ff055",
      "assetIds": []
    },
    {
      "x": 17,
      "y": 356,
      "size": 1,
      "price": "1011000000000000000000",
      "reserved": "",
      "salt": "0x90d532e70004646d281cb6ecba568ff530dea0a32398d3aa90a63238bdf1dbb7",
      "assetIds": []
    },
    {
      "x": 17,
      "y": 357,
      "size": 1,
      "price": "1011000000000000000000",
      "reserved": "",
      "salt": "0x4b5a9775cfc25bffc828f03af77fbb647d3dd0422ca5957bf55396f778d42ee1",
      "assetIds": []
    },
    {
      "x": 17,
      "y": 358,
      "size": 1,
      "price": "1011000000000000000000",
      "reserved": "0x7a9fe22691c811ea339d9b73150e6911a5343dca",
      "salt": "0x252f2b8f552e2151028b69e3fd5d672f5493bc60839b45e0aedc07af0cd01dc4",
      "assetIds": []
    },
    {
      "x": 17,
      "y": 359,
      "size": 1,
      "price": "1011000000000000000000",
      "reserved": "0x7a9fe22691c811ea339d9b73150e6911a5343dca",
      "salt": "0xea351ad5d38c62f1ed10f266df07fb83e3903ff01364f9ea469f2323e105c618",
      "assetIds": []
    },
    {
      "x": 18,
      "y": 328,
      "size": 1,
      "price": "1011000000000000000000",
      "reserved": "",
      "salt": "0x1a65f9b3301e97eb871502adc458da723f2177f1e86625a2a6a60cc4dfd22f02",
      "assetIds": []
    },
    {
      "x": 18,
      "y": 329,
      "size": 1,
      "price": "1011000000000000000000",
      "reserved": "",
      "salt": "0x44154ced00223f648154e663ab50f89143ae5ee18c7ab22a55bd976d5e628540",
      "assetIds": []
    },
    {
      "x": 18,
      "y": 330,
      "size": 1,
      "price": "1011000000000000000000",
      "reserved": "",
      "salt": "0xa862a3f0340c0458b9caac478d030e05bfb49591c9a9770e73a6d1524d110ad2",
      "assetIds": []
    },
    {
      "x": 18,
      "y": 331,
      "size": 1,
      "price": "1011000000000000000000",
      "reserved": "",
      "salt": "0x19601ff305eb2417ec8efb27054de9220db36ba48a90f7ce151563a0d62e9900",
      "assetIds": []
    },
    {
      "x": 18,
      "y": 332,
      "size": 1,
      "price": "1011000000000000000000",
      "reserved": "",
      "salt": "0x070e29a80ab0a361f33df5dc1c290390a32f7aeb2e829730e3b7fc778413c81f",
      "assetIds": []
    },
    {
      "x": 18,
      "y": 333,
      "size": 1,
      "price": "1011000000000000000000",
      "reserved": "0x7a9fe22691c811ea339d9b73150e6911a5343dca",
      "salt": "0x5a7bed7dc2fd00345f97a36e06853b03500e581f550ad514c2bc88b526eae7f7",
      "assetIds": []
    },
    {
      "x": 18,
      "y": 334,
      "size": 1,
      "price": "1011000000000000000000",
      "reserved": "",
      "salt": "0xde3950ff7167b1289d62ab9ab51cfa62139b263fad8a7e4f4f53a2ec70fdcf5c",
      "assetIds": []
    },
    {
      "x": 18,
      "y": 335,
      "size": 1,
      "price": "1011000000000000000000",
      "reserved": "",
      "salt": "0x59d284a82b45cc1f2cc484ac662eedd6a4c25b8c465faf97aa0edff3a52365d5",
      "assetIds": []
    },
    {
      "x": 18,
      "y": 348,
      "size": 1,
      "price": "1011000000000000000000",
      "reserved": "",
      "salt": "0x07461803557778a4567dd7248067f780496f2b798a2356d7dcf07d955db5e33b",
      "assetIds": []
    },
    {
      "x": 18,
      "y": 349,
      "size": 1,
      "price": "1011000000000000000000",
      "reserved": "0x7a9fe22691c811ea339d9b73150e6911a5343dca",
      "salt": "0xd25be44ca2c20332fe9e9fadc8f784da5cbfac3632a9104ce2826b820a9e61ca",
      "assetIds": []
    },
    {
      "x": 18,
      "y": 350,
      "size": 1,
      "price": "1011000000000000000000",
      "reserved": "",
      "salt": "0x4dd7045160e7f48465fbfba42d11fdc94844be47b94d7420b4089dfebc8eea77",
      "assetIds": []
    },
    {
      "x": 18,
      "y": 351,
      "size": 1,
      "price": "1011000000000000000000",
      "reserved": "0x7a9fe22691c811ea339d9b73150e6911a5343dca",
      "salt": "0xf871e0868ff70f84ea99fa7aaa7126a63289591a15d2c4d8542498300bd454e4",
      "assetIds": []
    },
    {
      "x": 18,
      "y": 352,
      "size": 1,
      "price": "1011000000000000000000",
      "reserved": "",
      "salt": "0x3bbf64a82f9af2c487630fd6de23a4f971e96eeddeb29c2f4ab5bf36b42af250",
      "assetIds": []
    },
    {
      "x": 18,
      "y": 353,
      "size": 1,
      "price": "1011000000000000000000",
      "reserved": "0x7a9fe22691c811ea339d9b73150e6911a5343dca",
      "salt": "0x9115d0f3c66108487ee3d935801f1efcb2fee1b5a237245167c72766272de99d",
      "assetIds": []
    },
    {
      "x": 19,
      "y": 328,
      "size": 1,
      "price": "1011000000000000000000",
      "reserved": "",
      "salt": "0x27d37636049a3e1a7eed91c1ceda2e6a72605dccaf986eb12a9255a2a29d09c3",
      "assetIds": []
    },
    {
      "x": 19,
      "y": 329,
      "size": 1,
      "price": "1011000000000000000000",
      "reserved": "",
      "salt": "0x7f7650c81ca722adbf3d8f77074f47795f9af981bf3213e18949729c58b265dc",
      "assetIds": []
    },
    {
      "x": 19,
      "y": 330,
      "size": 1,
      "price": "1011000000000000000000",
      "reserved": "",
      "salt": "0xff3a935310cfdc3581172c1cbd999bd59f9c862341f098568b2e22abfc7ba70b",
      "assetIds": []
    },
    {
      "x": 19,
      "y": 331,
      "size": 1,
      "price": "1011000000000000000000",
      "reserved": "",
      "salt": "0xebc15eeebdebf4a2bce494ab3e50a79fc48bf4abc6e257f0959902e03d914d15",
      "assetIds": []
    },
    {
      "x": 19,
      "y": 332,
      "size": 1,
      "price": "1011000000000000000000",
      "reserved": "",
      "salt": "0x719fb9a3523637c096956f58bfd36187f9f9e6ab8b53fbbcc72ee56e899d554c",
      "assetIds": []
    },
    {
      "x": 19,
      "y": 333,
      "size": 1,
      "price": "1011000000000000000000",
      "reserved": "",
      "salt": "0x02b4cba00fed9c07b7cae9fac8d3956bd3bd52265b783891ca1fbc620f1b6d76",
      "assetIds": []
    },
    {
      "x": 19,
      "y": 334,
      "size": 1,
      "price": "1011000000000000000000",
      "reserved": "",
      "salt": "0x330fe305f5f4fe4c6a1d568518a493edcd8139c1cec76703812bcf6556225999",
      "assetIds": []
    },
    {
      "x": 19,
      "y": 335,
      "size": 1,
      "price": "1011000000000000000000",
      "reserved": "0x7a9fe22691c811ea339d9b73150e6911a5343dca",
      "salt": "0x5f941a39daf5f7c026bf80161892919716550293f646657acfb25be32da6aebe",
      "assetIds": []
    },
    {
      "x": 19,
      "y": 348,
      "size": 1,
      "price": "1011000000000000000000",
      "reserved": "",
      "salt": "0xea77e3937ac93c6688d917cf85244d072d3a9d91552875a8619eca13f3f911d0",
      "assetIds": []
    },
    {
      "x": 19,
      "y": 349,
      "size": 1,
      "price": "1011000000000000000000",
      "reserved": "0x7a9fe22691c811ea339d9b73150e6911a5343dca",
      "salt": "0xb47b3c28e1bb764252e6b68e8c10e6b3fafae317ed56684e2d3db1e70e899f8d",
      "assetIds": []
    },
    {
      "x": 19,
      "y": 350,
      "size": 1,
      "price": "1011000000000000000000",
      "reserved": "",
      "salt": "0xd834394bf1eab3ba7df551c4b8fa4723818a7aee4c746a36ffaab894eb800bd8",
      "assetIds": []
    },
    {
      "x": 19,
      "y": 351,
      "size": 1,
      "price": "1011000000000000000000",
      "reserved": "",
      "salt": "0xba7f4b1d0c944107dd07fad38a3eea34d029c454ecff117f1ffaa8ad9095fbc7",
      "assetIds": []
    },
    {
      "x": 19,
      "y": 352,
      "size": 1,
      "price": "1011000000000000000000",
      "reserved": "0x7a9fe22691c811ea339d9b73150e6911a5343dca",
      "salt": "0x8fa8eadd95c07bc177ce7df21ef905ce7e881c3e73a2f5bd20476364c5ad75d4",
      "assetIds": []
    },
    {
      "x": 19,
      "y": 353,
      "size": 1,
      "price": "1011000000000000000000",
      "reserved": "",
      "salt": "0x75e01379b4408915176dbb743cb9c0ddcb0713706000b4c64de6917ccc066398",
      "assetIds": []
    },
    {
      "x": 20,
      "y": 328,
      "size": 1,
      "price": "1011000000000000000000",
      "reserved": "0x7a9fe22691c811ea339d9b73150e6911a5343dca",
      "salt": "0x35f2f8b48f33115900ec333c0a5e51ed77919cf19f87c00b744ad543d7a0ce0f",
      "assetIds": []
    },
    {
      "x": 20,
      "y": 329,
      "size": 1,
      "price": "1011000000000000000000",
      "reserved": "",
      "salt": "0x97df00b4d0d68a545da3636c6d7ddd6cf9ac2293ff02ddabd0a0e3ff3e85bad0",
      "assetIds": []
    },
    {
      "x": 20,
      "y": 330,
      "size": 1,
      "price": "1011000000000000000000",
      "reserved": "0x7a9fe22691c811ea339d9b73150e6911a5343dca",
      "salt": "0xfec69ee80b7eaa032cb8778b831696bd146bc224f13fa4bde9c7adc1b9db2a33",
      "assetIds": []
    },
    {
      "x": 20,
      "y": 331,
      "size": 1,
      "price": "1011000000000000000000",
      "reserved": "",
      "salt": "0x977233673e78c649073561e50391cef2815d36fce753c892ec433abc8c2a7265",
      "assetIds": []
    },
    {
      "x": 20,
      "y": 332,
      "size": 1,
      "price": "1011000000000000000000",
      "reserved": "",
      "salt": "0x4b142648ce38489cd97b38554a98a7a50c59ce1e2a9a3b305b5b620c71fb66bd",
      "assetIds": []
    },
    {
      "x": 20,
      "y": 333,
      "size": 1,
      "price": "1011000000000000000000",
      "reserved": "0x7a9fe22691c811ea339d9b73150e6911a5343dca",
      "salt": "0x6b07c4db83dc9054b58dc4d4492fbba46ed3902a2b186edc1c6f60b98d43c65e",
      "assetIds": []
    },
    {
      "x": 20,
      "y": 334,
      "size": 1,
      "price": "1011000000000000000000",
      "reserved": "",
      "salt": "0x08b5fba857a41d54d24cdfc5486a767473ede84034a9f3950968fa77f0b0096b",
      "assetIds": []
    },
    {
      "x": 20,
      "y": 335,
      "size": 1,
      "price": "1011000000000000000000",
      "reserved": "0x7a9fe22691c811ea339d9b73150e6911a5343dca",
      "salt": "0x939378cc14972d2da694c0147b3b6fc6dd0ddfd9aadda5b08e62a42504bc00b8",
      "assetIds": []
    },
    {
      "x": 20,
      "y": 348,
      "size": 1,
      "price": "1011000000000000000000",
      "reserved": "",
      "salt": "0x2458011a29f8835d2e82afe367d60e56e85a8027497b1e8479e6f009fa95aa5b",
      "assetIds": []
    },
    {
      "x": 20,
      "y": 349,
      "size": 1,
      "price": "1011000000000000000000",
      "reserved": "",
      "salt": "0xfbb943694ce0a00ce9f01b0b9c15b821c45597ca2f04e4e4a7c35f77f5753c8f",
      "assetIds": []
    },
    {
      "x": 20,
      "y": 350,
      "size": 1,
      "price": "1011000000000000000000",
      "reserved": "",
      "salt": "0xde0c408fd8d717884c0de77a7e2ba7c2dc059100f4b7eeec1af9f5fa3f40caa6",
      "assetIds": []
    },
    {
      "x": 20,
      "y": 351,
      "size": 1,
      "price": "1011000000000000000000",
      "reserved": "",
      "salt": "0xb5cffbac4261407260805b9b6cb47d5a256dbe7b024b57b27f58ac613bbb6674",
      "assetIds": []
    },
    {
      "x": 20,
      "y": 352,
      "size": 1,
      "price": "1011000000000000000000",
      "reserved": "",
      "salt": "0xaf896ed586675899d3e8ae877af5d96e4e31c51f04c8c3a866346817198e4b33",
      "assetIds": []
    },
    {
      "x": 20,
      "y": 353,
      "size": 1,
      "price": "1011000000000000000000",
      "reserved": "",
      "salt": "0xc29f73bf0d30ddf7e2c7374a7db6245c9c66447bc54cfca7f3f331c41e75dd99",
      "assetIds": []
    },
    {
      "x": 21,
      "y": 328,
      "size": 1,
      "price": "1011000000000000000000",
      "reserved": "",
      "salt": "0xd9ea3b6c36bc8d968a1a6fc8af2a022b40719c84131a9996e992c6c1a82fc018",
      "assetIds": []
    },
    {
      "x": 21,
      "y": 329,
      "size": 1,
      "price": "1011000000000000000000",
      "reserved": "",
      "salt": "0x9ff9553ed363807bc4f036499430c2a2d8ca308b046bd475cea4b09310c912cf",
      "assetIds": []
    },
    {
      "x": 21,
      "y": 330,
      "size": 1,
      "price": "1011000000000000000000",
      "reserved": "",
      "salt": "0x79be7280c669c75129ee43812fc629c799f263d92be8561807fedd4dc6fb181e",
      "assetIds": []
    },
    {
      "x": 21,
      "y": 331,
      "size": 1,
      "price": "1011000000000000000000",
      "reserved": "",
      "salt": "0x74e336feba390073abe408f1dd750035f9f4ab7c11b4e9f0acef65933b69949e",
      "assetIds": []
    },
    {
      "x": 21,
      "y": 332,
      "size": 1,
      "price": "1011000000000000000000",
      "reserved": "",
      "salt": "0x9fffe980f0ac6b641945e3729a90cdd9f2dcddb04068bc739f9a30a65d73039d",
      "assetIds": []
    },
    {
      "x": 21,
      "y": 333,
      "size": 1,
      "price": "1011000000000000000000",
      "reserved": "",
      "salt": "0x809acea23e06b79a1eb6ac9841049cf1f5be05e9a913b047655f7e4c80ff5631",
      "assetIds": []
    },
    {
      "x": 21,
      "y": 334,
      "size": 1,
      "price": "1011000000000000000000",
      "reserved": "",
      "salt": "0x6f3627251c446227396f95acb65284ecb414b3a8c1926ef3919fb51e40266493",
      "assetIds": []
    },
    {
      "x": 21,
      "y": 335,
      "size": 1,
      "price": "1011000000000000000000",
      "reserved": "",
      "salt": "0x87fcdb139a547ba8b61aba9a3a07fe565d7c3ec02c3078ec6f58d7d7f0b70f1a",
      "assetIds": []
    },
    {
      "x": 21,
      "y": 348,
      "size": 1,
      "price": "1011000000000000000000",
      "reserved": "",
      "salt": "0x0253552fbbd1bf0d74ba57d41d6457aa7cb2ced64bcebf63ea4b2df503f61aa2",
      "assetIds": []
    },
    {
      "x": 21,
      "y": 349,
      "size": 1,
      "price": "1011000000000000000000",
      "reserved": "",
      "salt": "0x5291545dfc679e6e607af1e019606864fd3e6e7a20125a37c8ba7545dcd196c1",
      "assetIds": []
    },
    {
      "x": 21,
      "y": 350,
      "size": 1,
      "price": "1011000000000000000000",
      "reserved": "0x7a9fe22691c811ea339d9b73150e6911a5343dca",
      "salt": "0x38a07db7f105c450b9be345781b39bb394b30d5c2b106831635adff52ec00fbb",
      "assetIds": []
    },
    {
      "x": 21,
      "y": 351,
      "size": 1,
      "price": "1011000000000000000000",
      "reserved": "",
      "salt": "0x53eeb4a0911b23daa1771d460c6b1c614be9680540963bcc2717e48893e21d0e",
      "assetIds": []
    },
    {
      "x": 21,
      "y": 352,
      "size": 1,
      "price": "1011000000000000000000",
      "reserved": "",
      "salt": "0x178d7e898a02a97e83a16fd9b6fea088e6856c19f37f52ae2fe2ea2f4606145b",
      "assetIds": []
    },
    {
      "x": 21,
      "y": 353,
      "size": 1,
      "price": "1011000000000000000000",
      "reserved": "",
      "salt": "0x06562d51983ad0de28680a17b7bcbcbee9c66d00e0286a0b53f987cf028e9344",
      "assetIds": []
    },
    {
      "x": 21,
      "y": 354,
      "size": 1,
      "price": "1011000000000000000000",
      "reserved": "0x7a9fe22691c811ea339d9b73150e6911a5343dca",
      "salt": "0xfeb120d53dfad608f8e8c930492b95338c879fd16c87c014cbc95840f5cd469b",
      "assetIds": []
    },
    {
      "x": 22,
      "y": 328,
      "size": 1,
      "price": "1011000000000000000000",
      "reserved": "",
      "salt": "0xeea850d9eff92b1420669654814fe4cf36ddeb53acea8e02b2ce1c52564e65e7",
      "assetIds": []
    },
    {
      "x": 22,
      "y": 329,
      "size": 1,
      "price": "1011000000000000000000",
      "reserved": "0x7a9fe22691c811ea339d9b73150e6911a5343dca",
      "salt": "0x464f1a5492ffc6a4b0a72a3329cbcdc3e1a8a2386ffcb4d782f15ad25be77cdf",
      "assetIds": []
    },
    {
      "x": 22,
      "y": 330,
      "size": 1,
      "price": "1011000000000000000000",
      "reserved": "",
      "salt": "0xff8f9088f25325359356b960461c6b5d01cf80f7e70cbde310302af32ac4eca1",
      "assetIds": []
    },
    {
      "x": 22,
      "y": 331,
      "size": 1,
      "price": "1011000000000000000000",
      "reserved": "0x7a9fe22691c811ea339d9b73150e6911a5343dca",
      "salt": "0xde7d499dc4ba688403be4b944427f0c195b3c4c24e3acef230f4d3b4b3a67c4a",
      "assetIds": []
    },
    {
      "x": 22,
      "y": 332,
      "size": 1,
      "price": "1011000000000000000000",
      "reserved": "0x7a9fe22691c811ea339d9b73150e6911a5343dca",
      "salt": "0xde30c921dd0ceb63a2efe624f6a94ed43d38e1f4f0b9b245ba12a3b12ba71c49",
      "assetIds": []
    },
    {
      "x": 22,
      "y": 333,
      "size": 1,
      "price": "1011000000000000000000",
      "reserved": "",
      "salt": "0xecffe9092468899c1576ec818638b2af7ab24d482cc4ae008f61d69492b49bf8",
      "assetIds": []
    },
    {
      "x": 22,
      "y": 334,
      "size": 1,
      "price": "1011000000000000000000",
      "reserved": "",
      "salt": "0x79e9d1a9d38a4aa2b0dae972fce922818d0a83467613744edd9e9f9374e44e29",
      "assetIds": []
    },
    {
      "x": 22,
      "y": 335,
      "size": 1,
      "price": "1011000000000000000000",
      "reserved": "0x7a9fe22691c811ea339d9b73150e6911a5343dca",
      "salt": "0x4300c4a5849780b40a0fa33558b10441f8b099a7cd18ee929d1b35ce0fb24a0f",
      "assetIds": []
    },
    {
      "x": 22,
      "y": 348,
      "size": 1,
      "price": "1011000000000000000000",
      "reserved": "",
      "salt": "0x28f6d7a2782804407dbe2faf3641d12285c3f18f694769a0da9f6313759f9204",
      "assetIds": []
    },
    {
      "x": 22,
      "y": 349,
      "size": 1,
      "price": "1011000000000000000000",
      "reserved": "0x7a9fe22691c811ea339d9b73150e6911a5343dca",
      "salt": "0x1657916bd56075b7da7a4c7589f67a0f68b9319c95ac5bac0dc3f842dc3bd3bd",
      "assetIds": []
    },
    {
      "x": 22,
      "y": 350,
      "size": 1,
      "price": "1011000000000000000000",
      "reserved": "",
      "salt": "0xb3630c3cd43544b521864de17b54c819301d4a98d7b409b21e06433736c5c550",
      "assetIds": []
    },
    {
      "x": 22,
      "y": 351,
      "size": 1,
      "price": "1011000000000000000000",
      "reserved": "",
      "salt": "0xc26821b07e0cb697650c3e8fa79ff8aada6706fb2a49ec83c8a41407943cfefe",
      "assetIds": []
    },
    {
      "x": 22,
      "y": 352,
      "size": 1,
      "price": "1011000000000000000000",
      "reserved": "0x7a9fe22691c811ea339d9b73150e6911a5343dca",
      "salt": "0x6d470debbdd172c37b36339bb2d95002416ea70005de95fc1909c3bf492ca81a",
      "assetIds": []
    },
    {
      "x": 22,
      "y": 353,
      "size": 1,
      "price": "1011000000000000000000",
      "reserved": "",
      "salt": "0xa810db0bd9c26f7b23e2cf384dba3aae5f317df6006f1a21c824769132eae9b0",
      "assetIds": []
    },
    {
      "x": 22,
      "y": 354,
      "size": 1,
      "price": "1011000000000000000000",
      "reserved": "",
      "salt": "0xfcbf4080d4eb5d164aad5ab2c9283905f4390d4b1228ab9c0d49c493a237cd31",
      "assetIds": []
    },
    {
      "x": 23,
      "y": 327,
      "size": 1,
      "price": "1011000000000000000000",
      "reserved": "",
      "salt": "0xf9487102b56415f0be9111c7f58bc797f09c3d91b5473920a5527a1e10d38194",
      "assetIds": []
    },
    {
      "x": 23,
      "y": 328,
      "size": 1,
      "price": "1011000000000000000000",
      "reserved": "",
      "salt": "0x02bfd7ba07a3ed2e1da7ab500a5aae7fd47b0ead6dc5350a1f36de7aa5f48428",
      "assetIds": []
    },
    {
      "x": 23,
      "y": 329,
      "size": 1,
      "price": "1011000000000000000000",
      "reserved": "",
      "salt": "0x9d660b072043dd98d30d6394ab87ea311cc052eb1edcb553c41406473302df62",
      "assetIds": []
    },
    {
      "x": 23,
      "y": 330,
      "size": 1,
      "price": "1011000000000000000000",
      "reserved": "",
      "salt": "0xf22b5120e52708ce6695c0e5374bdc124d4810a87ae60efd4c04ce1504c8b510",
      "assetIds": []
    },
    {
      "x": 23,
      "y": 331,
      "size": 1,
      "price": "1011000000000000000000",
      "reserved": "",
      "salt": "0xd0ccd1fbaa875f34c57d3ccee3b9d2f02b5bc5fa30e95f5995420264fbc64535",
      "assetIds": []
    },
    {
      "x": 23,
      "y": 332,
      "size": 1,
      "price": "1011000000000000000000",
      "reserved": "",
      "salt": "0xf6c664f16a6fd014f84b11324cb39799a2e3949941dd318838707efc4696dd6d",
      "assetIds": []
    },
    {
      "x": 23,
      "y": 333,
      "size": 1,
      "price": "1011000000000000000000",
      "reserved": "",
      "salt": "0xaf331ff230da97fa19c9ec1842de67adf775a882b6801da3f25483475f5664d7",
      "assetIds": []
    },
    {
      "x": 23,
      "y": 334,
      "size": 1,
      "price": "1011000000000000000000",
      "reserved": "",
      "salt": "0x8baaaec1ba600dfb62ee6b235cd778ac07773e5316acb2c1ce485bde890dbd13",
      "assetIds": []
    },
    {
      "x": 23,
      "y": 335,
      "size": 1,
      "price": "1011000000000000000000",
      "reserved": "0x7a9fe22691c811ea339d9b73150e6911a5343dca",
      "salt": "0xcdc6c71b532d8ce21bff3f5615c63f25ee8f8e517abac7340065eb004f5db4a9",
      "assetIds": []
    },
    {
      "x": 23,
      "y": 348,
      "size": 1,
      "price": "1011000000000000000000",
      "reserved": "",
      "salt": "0xd1e344918ce1c6451eaa61571b0dfcb592ee61f56dc1cd6fb6549df3b149c1b1",
      "assetIds": []
    },
    {
      "x": 23,
      "y": 349,
      "size": 1,
      "price": "1011000000000000000000",
      "reserved": "",
      "salt": "0x5e8280377226954beb675fd067185c98c4cb5602f814ef3d1f7618d94a5bc10f",
      "assetIds": []
    },
    {
      "x": 23,
      "y": 350,
      "size": 1,
      "price": "1011000000000000000000",
      "reserved": "",
      "salt": "0x2abb10b890065b224aebb458402a89e95e1761420a48d0f7e8f31b9558a14214",
      "assetIds": []
    },
    {
      "x": 23,
      "y": 351,
      "size": 1,
      "price": "1011000000000000000000",
      "reserved": "",
      "salt": "0xf03e5724a579939c23681748ce0d1fe13cebd3123e2a04cb5e8f7ebc20bb052d",
      "assetIds": []
    },
    {
      "x": 23,
      "y": 352,
      "size": 1,
      "price": "1011000000000000000000",
      "reserved": "0x7a9fe22691c811ea339d9b73150e6911a5343dca",
      "salt": "0xca14f5e5a40f93d939a61479240aad4646a7fe201f7e3cdfc0bb75c5882a1ba0",
      "assetIds": []
    },
    {
      "x": 23,
      "y": 353,
      "size": 1,
      "price": "1011000000000000000000",
      "reserved": "",
      "salt": "0x43dad2679a108e4365edb925c0190fa5fb7bbdd92ddbf1a09f490644456b4012",
      "assetIds": []
    },
    {
      "x": 23,
      "y": 354,
      "size": 1,
      "price": "1011000000000000000000",
      "reserved": "",
      "salt": "0xff9e6999a5ac3535afe152a12e8689ed8cf73c485dbc05f56c729055f988c755",
      "assetIds": []
    },
    {
      "x": 24,
      "y": 327,
      "size": 1,
      "price": "1011000000000000000000",
      "reserved": "",
      "salt": "0x8ac9cd3e20d432cf3087710d30bcff0ecd3c42c4cba52cc99a32a9f4b62b431c",
      "assetIds": []
    },
    {
      "x": 24,
      "y": 328,
      "size": 1,
      "price": "1011000000000000000000",
      "reserved": "",
      "salt": "0xd077f213e5c7f8ecfed07bbd6214c957b50006421f76cf93f01e1d527d20b7e8",
      "assetIds": []
    },
    {
      "x": 24,
      "y": 329,
      "size": 1,
      "price": "1011000000000000000000",
      "reserved": "0x7a9fe22691c811ea339d9b73150e6911a5343dca",
      "salt": "0x38a04470a48ceda5d28ed72d91276e21412df24a804c52ae17334ee91d59c07c",
      "assetIds": []
    },
    {
      "x": 24,
      "y": 330,
      "size": 1,
      "price": "1011000000000000000000",
      "reserved": "",
      "salt": "0x8815a441b5118b5987659fd215847e72a37368289dbb56bbf6025f1b7d6bc9cb",
      "assetIds": []
    },
    {
      "x": 24,
      "y": 331,
      "size": 1,
      "price": "1011000000000000000000",
      "reserved": "",
      "salt": "0x2c65e9fbac4086f7e7dd53822f5d57aaf6e770727e3a42098d9cedf250135f82",
      "assetIds": []
    },
    {
      "x": 24,
      "y": 332,
      "size": 1,
      "price": "1011000000000000000000",
      "reserved": "",
      "salt": "0x6f49fe28e37805c91107a432fd03914635d15e0f6a07873c8c0f4a3fccc6ec28",
      "assetIds": []
    },
    {
      "x": 24,
      "y": 333,
      "size": 1,
      "price": "1011000000000000000000",
      "reserved": "",
      "salt": "0xeafe8e9077787c025f9a88f01602b09ec6da03b1c449bb90d92b84aa91d68bce",
      "assetIds": []
    },
    {
      "x": 24,
      "y": 334,
      "size": 1,
      "price": "1011000000000000000000",
      "reserved": "",
      "salt": "0xedbc86e02c8d3a6df42b79c62287db0d9df65d9d5a1f6aac228e1f89af0a1254",
      "assetIds": []
    },
    {
      "x": 24,
      "y": 335,
      "size": 1,
      "price": "1011000000000000000000",
      "reserved": "",
      "salt": "0x7308e5f299231bcc6f701ba15a0a3faf87d33a997cf45a6f89eaef3eead647a3",
      "assetIds": []
    },
    {
      "x": 24,
      "y": 342,
      "size": 1,
      "price": "1011000000000000000000",
      "reserved": "",
      "salt": "0x2d19d4683126c40e007af1152d302ec5295f91d3b5ca2e4ed7c52690eb0fe8bc",
      "assetIds": []
    },
    {
      "x": 24,
      "y": 343,
      "size": 1,
      "price": "1011000000000000000000",
      "reserved": "",
      "salt": "0xf41933517fd697d4ae664c6983ecfc9ed9696337f25703d32cf2b7adcf5799d9",
      "assetIds": []
    },
    {
      "x": 24,
      "y": 344,
      "size": 1,
      "price": "1011000000000000000000",
      "reserved": "",
      "salt": "0xe4beb8619ac94dda103cef8ec1d710913f78baca133e5414aa27370f75ececb5",
      "assetIds": []
    },
    {
      "x": 24,
      "y": 345,
      "size": 1,
      "price": "1011000000000000000000",
      "reserved": "",
      "salt": "0x6c929d17197daf07a80c68b63342b4b0b7847b884ea0250b1d4f9be3cac9e807",
      "assetIds": []
    },
    {
      "x": 24,
      "y": 346,
      "size": 1,
      "price": "1011000000000000000000",
      "reserved": "0x7a9fe22691c811ea339d9b73150e6911a5343dca",
      "salt": "0x32471f7b0e99ab0512340add53f38a5b747439c8fff9b3a1b9c3537911db2409",
      "assetIds": []
    },
    {
      "x": 24,
      "y": 347,
      "size": 1,
      "price": "1011000000000000000000",
      "reserved": "",
      "salt": "0xaf07124096eb832270fa4188b3d13d856c775c6201ad32445af2627c70197faf",
      "assetIds": []
    },
    {
      "x": 24,
      "y": 348,
      "size": 1,
      "price": "1011000000000000000000",
      "reserved": "",
      "salt": "0x6765f7ed338caea11418c283f1114f9d49dc46d7df0fd66ae1287201288b428c",
      "assetIds": []
    },
    {
      "x": 24,
      "y": 349,
      "size": 1,
      "price": "1011000000000000000000",
      "reserved": "",
      "salt": "0x3c58a2004e4f21ea178433384a5ffb8c083b5e81594538740ccc49e3d46a89ea",
      "assetIds": []
    },
    {
      "x": 24,
      "y": 350,
      "size": 1,
      "price": "1011000000000000000000",
      "reserved": "",
      "salt": "0xd44eb80ba2ce6a2ae5a4a51c00e96ff748df605fe801506b76a84b4265ef00da",
      "assetIds": []
    },
    {
      "x": 24,
      "y": 351,
      "size": 1,
      "price": "1011000000000000000000",
      "reserved": "",
      "salt": "0x5e0eb014415eb07be10b0ab8bde519d98de6982443b29711a414dc4dc6790837",
      "assetIds": []
    },
    {
      "x": 24,
      "y": 352,
      "size": 1,
      "price": "1011000000000000000000",
      "reserved": "",
      "salt": "0x7839f2ecc3040de614356043512804a9cb2f2d16b64140ae5a7d81c4a3c1996f",
      "assetIds": []
    },
    {
      "x": 24,
      "y": 353,
      "size": 1,
      "price": "1011000000000000000000",
      "reserved": "0x7a9fe22691c811ea339d9b73150e6911a5343dca",
      "salt": "0x303a282e2467a5fffe431eac8d0079982e0a9d642957dd2fc2d4bf20d3279f9e",
      "assetIds": []
    },
    {
      "x": 24,
      "y": 354,
      "size": 1,
      "price": "1011000000000000000000",
      "reserved": "",
      "salt": "0xddc4cb25819bc7e3e571b679c87454599388771632ac50bd9b21fd96da65c6a8",
      "assetIds": []
    },
    {
      "x": 25,
      "y": 327,
      "size": 1,
      "price": "1011000000000000000000",
      "reserved": "",
      "salt": "0x94e58cb35905b6f9a620e2006a42ed2304c5bc7e40d589aefbede0e875dab08a",
      "assetIds": []
    },
    {
      "x": 25,
      "y": 328,
      "size": 1,
      "price": "1011000000000000000000",
      "reserved": "",
      "salt": "0x97e83b9f82cbb5dc16d0b73265c3c8123f6f7e06a5c908972524f5af3b8ed61a",
      "assetIds": []
    },
    {
      "x": 25,
      "y": 329,
      "size": 1,
      "price": "1011000000000000000000",
      "reserved": "0x7a9fe22691c811ea339d9b73150e6911a5343dca",
      "salt": "0xe9b87b0903375554a3f2c6aa4a2e31f1e5a1fbb1ccbdb9054d101abf4ffcb5eb",
      "assetIds": []
    },
    {
      "x": 25,
      "y": 330,
      "size": 1,
      "price": "1011000000000000000000",
      "reserved": "",
      "salt": "0x5bf90f02b0de1b306b26677711f34b3f2ea79d700b6f6dd08109bb2df4500dcf",
      "assetIds": []
    },
    {
      "x": 25,
      "y": 331,
      "size": 1,
      "price": "1011000000000000000000",
      "reserved": "",
      "salt": "0x164cd6242b99b447fc0f951b917b1da8489eaeba426d4486d53f0717d5170ca3",
      "assetIds": []
    },
    {
      "x": 25,
      "y": 332,
      "size": 1,
      "price": "1011000000000000000000",
      "reserved": "0x7a9fe22691c811ea339d9b73150e6911a5343dca",
      "salt": "0xf9d5dc8d509fad3d694a6b7ecb810c6df67840869d4253e1e1472fd872344aa7",
      "assetIds": []
    },
    {
      "x": 25,
      "y": 333,
      "size": 1,
      "price": "1011000000000000000000",
      "reserved": "",
      "salt": "0x9a0ea43f8867a2f07b7b158071adff39aeff1627b880c62bdc9e45f3461a52c4",
      "assetIds": []
    },
    {
      "x": 25,
      "y": 334,
      "size": 1,
      "price": "1011000000000000000000",
      "reserved": "0x7a9fe22691c811ea339d9b73150e6911a5343dca",
      "salt": "0xc781a9bf14bbf87bc7019b9fd80363db9bae0550db126001567b52e76f83794c",
      "assetIds": []
    },
    {
      "x": 25,
      "y": 335,
      "size": 1,
      "price": "1011000000000000000000",
      "reserved": "",
      "salt": "0xf166445a42947b3a7737df5949816c9efae09ae9297e45c5ed8ca83bad669f46",
      "assetIds": []
    },
    {
      "x": 25,
      "y": 342,
      "size": 1,
      "price": "1011000000000000000000",
      "reserved": "0x7a9fe22691c811ea339d9b73150e6911a5343dca",
      "salt": "0x06cc292b02be9145d0c324aa1ea628c3a083e6b9dac05b23fa68d46c5a9212b9",
      "assetIds": []
    },
    {
      "x": 25,
      "y": 343,
      "size": 1,
      "price": "1011000000000000000000",
      "reserved": "",
      "salt": "0x5aaa9d1027697dfe6d1ae2817d40f4e2ac28d937776fa3fca0013abf59dcca69",
      "assetIds": []
    },
    {
      "x": 25,
      "y": 344,
      "size": 1,
      "price": "1011000000000000000000",
      "reserved": "0x7a9fe22691c811ea339d9b73150e6911a5343dca",
      "salt": "0xb3e035cb7d81fe693a6d1b9b94b11951a96f34e4747f5a7e4a411e7a9d4a82b1",
      "assetIds": []
    },
    {
      "x": 25,
      "y": 345,
      "size": 1,
      "price": "1011000000000000000000",
      "reserved": "",
      "salt": "0x7068a696858b2fc0a0ef813e450c18eb4ab4e423d899f59315edaeefc6490f4e",
      "assetIds": []
    },
    {
      "x": 25,
      "y": 348,
      "size": 1,
      "price": "1011000000000000000000",
      "reserved": "",
      "salt": "0xd5f2a9fd4c7e4cb20899578f7362fad1e54bee7e3aa0eca82f84f83970d23bc5",
      "assetIds": []
    },
    {
      "x": 25,
      "y": 349,
      "size": 1,
      "price": "1011000000000000000000",
      "reserved": "0x7a9fe22691c811ea339d9b73150e6911a5343dca",
      "salt": "0xbd8e72f900403063616112fb38195871dad306fffd8481fa8b9c978dde11b0d3",
      "assetIds": []
    },
    {
      "x": 25,
      "y": 350,
      "size": 1,
      "price": "1011000000000000000000",
      "reserved": "0x7a9fe22691c811ea339d9b73150e6911a5343dca",
      "salt": "0x38fa08ee335d9b0e533e75bc8232ff82ff2031ea638bff0235a947e580f45069",
      "assetIds": []
    },
    {
      "x": 25,
      "y": 351,
      "size": 1,
      "price": "1011000000000000000000",
      "reserved": "",
      "salt": "0x645d11872c94b52f265eb608e3f346913d2f5c50186b7dd51a31de0bc3fab86b",
      "assetIds": []
    },
    {
      "x": 25,
      "y": 352,
      "size": 1,
      "price": "1011000000000000000000",
      "reserved": "",
      "salt": "0x7f62f54b120582e7fb15a3ad8f96fd1f3b29b23263ad6a47229086fbe1037664",
      "assetIds": []
    },
    {
      "x": 25,
      "y": 353,
      "size": 1,
      "price": "1011000000000000000000",
      "reserved": "",
      "salt": "0x407e9e1047c7894ff2327694983060ddad7bef19a38b885ae2f2a8e399d03995",
      "assetIds": []
    },
    {
      "x": 25,
      "y": 354,
      "size": 1,
      "price": "1011000000000000000000",
      "reserved": "",
      "salt": "0xacc6b08f29fd89e91128e5d3c9b4407617705c436ed55dd97ea2192ed20acde3",
      "assetIds": []
    },
    {
      "x": 26,
      "y": 327,
      "size": 1,
      "price": "1011000000000000000000",
      "reserved": "",
      "salt": "0xa879894d14392bf18dba232cfe346bb40ad63f26649a8918861e7a81dbca8e38",
      "assetIds": []
    },
    {
      "x": 26,
      "y": 328,
      "size": 1,
      "price": "1011000000000000000000",
      "reserved": "",
      "salt": "0xa955aaf91a408af6d6038ad67fe26f871ab0c0a0bd3d535996586e8950aff108",
      "assetIds": []
    },
    {
      "x": 26,
      "y": 329,
      "size": 1,
      "price": "1011000000000000000000",
      "reserved": "",
      "salt": "0x669e87032a908313109ab0d34c0f9d3ca04a640cc2be620c6cb40610b4cad548",
      "assetIds": []
    },
    {
      "x": 26,
      "y": 330,
      "size": 1,
      "price": "1011000000000000000000",
      "reserved": "",
      "salt": "0x58c82215db96a1b54f561c5200d5e26749c42c9fc19c79a2351230227357f73a",
      "assetIds": []
    },
    {
      "x": 26,
      "y": 331,
      "size": 1,
      "price": "1011000000000000000000",
      "reserved": "",
      "salt": "0x8e2b5a451d67ca3063eea62c5286ea5b6f4221717e263b45ad34fdb9f3c27665",
      "assetIds": []
    },
    {
      "x": 26,
      "y": 332,
      "size": 1,
      "price": "1011000000000000000000",
      "reserved": "",
      "salt": "0x3ff4a7cd624cd3fe873b9469a3339a4202873e30a1261cc59238f0eac61e0952",
      "assetIds": []
    },
    {
      "x": 26,
      "y": 333,
      "size": 1,
      "price": "1011000000000000000000",
      "reserved": "",
      "salt": "0xbc4b576e04eb1dcf0330b12cc6e5b5f3b1e009f6387e001bf0e781c5b1569dc1",
      "assetIds": []
    },
    {
      "x": 26,
      "y": 334,
      "size": 1,
      "price": "1011000000000000000000",
      "reserved": "",
      "salt": "0x1ab6d99c6e8baa93d02b1f6cade2ca5e239bd8771c8e81c3be85e75fa80d1d9a",
      "assetIds": []
    },
    {
      "x": 26,
      "y": 335,
      "size": 1,
      "price": "1011000000000000000000",
      "reserved": "",
      "salt": "0xc7c25d8e77a73ddc51eff783780ff3be60ef68556e6405a8fbbd4145a0032101",
      "assetIds": []
    },
    {
      "x": 26,
      "y": 342,
      "size": 1,
      "price": "1011000000000000000000",
      "reserved": "",
      "salt": "0xf443677521fd878c396acc1ce1357c993ff7f72669f5e1b3211c2b927ea481d9",
      "assetIds": []
    },
    {
      "x": 26,
      "y": 343,
      "size": 1,
      "price": "1011000000000000000000",
      "reserved": "",
      "salt": "0x7930082c5f9bbd9e84bb5db401037c6e7407d827bf7288fc9a4920d4b4dd3fdd",
      "assetIds": []
    },
    {
      "x": 26,
      "y": 344,
      "size": 1,
      "price": "1011000000000000000000",
      "reserved": "0x7a9fe22691c811ea339d9b73150e6911a5343dca",
      "salt": "0x7ed489143ff22d7c99d43b61e2c5dc5fa0016554263c7bd950636c7ce9f548c2",
      "assetIds": []
    },
    {
      "x": 26,
      "y": 345,
      "size": 1,
      "price": "1011000000000000000000",
      "reserved": "",
      "salt": "0xace1ec1dadaf7eb1ed70af971a620d65c2206c59e9c633d7fd4ba941838a7342",
      "assetIds": []
    },
    {
      "x": 27,
      "y": 325,
      "size": 1,
      "price": "1011000000000000000000",
      "reserved": "",
      "salt": "0xf9481fe4f719ab21bc792f1292bfa8c5145208bdffcdc3a6d2ff12f8113e7302",
      "assetIds": []
    },
    {
      "x": 27,
      "y": 326,
      "size": 1,
      "price": "1011000000000000000000",
      "reserved": "",
      "salt": "0x936ea0246f9497ef7466c969b2cb3e6c6b3b7c030b6d068cc47c83be92daaefe",
      "assetIds": []
    },
    {
      "x": 27,
      "y": 327,
      "size": 1,
      "price": "1011000000000000000000",
      "reserved": "",
      "salt": "0x0cd48bb4bdce6b73eb2d1cf52644290530564d2231ef985ed565c2c0cfb08251",
      "assetIds": []
    },
    {
      "x": 27,
      "y": 328,
      "size": 1,
      "price": "1011000000000000000000",
      "reserved": "",
      "salt": "0xe6a1a7f48a1a323cd64b52f7020144fe74e0719da227ae3ccc41fd3f0fecaf36",
      "assetIds": []
    },
    {
      "x": 27,
      "y": 329,
      "size": 1,
      "price": "1011000000000000000000",
      "reserved": "",
      "salt": "0x0da0a734cb27279d13c7d7e671c1ef2fa38df3c54d32aca8a4c0783b9d38ca28",
      "assetIds": []
    },
    {
      "x": 27,
      "y": 330,
      "size": 1,
      "price": "1011000000000000000000",
      "reserved": "",
      "salt": "0xc4c458e24214b864f7cba4315f0cf0a9eb67bc69d6a83d66b203799786f515c0",
      "assetIds": []
    },
    {
      "x": 27,
      "y": 331,
      "size": 1,
      "price": "1011000000000000000000",
      "reserved": "",
      "salt": "0xccf47492ed38da5a2ccb66e788cf3a4d7d50fbd0554197b66d325239fca492bf",
      "assetIds": []
    },
    {
      "x": 27,
      "y": 332,
      "size": 1,
      "price": "1011000000000000000000",
      "reserved": "",
      "salt": "0xafc0fed6a8342ed091dcf47d0f2f17418cf13d8f177d99a4f3eee6b78831df4a",
      "assetIds": []
    },
    {
      "x": 27,
      "y": 333,
      "size": 1,
      "price": "1011000000000000000000",
      "reserved": "",
      "salt": "0xaf8214021bb35f88978646a4a862e0495ab549fdc27e0adc987ff362fabb983b",
      "assetIds": []
    },
    {
      "x": 27,
      "y": 334,
      "size": 1,
      "price": "1011000000000000000000",
      "reserved": "",
      "salt": "0x1051078504790e0a0ca9fdc60d373e29aa2a2a72234a60d838befaff426e77ee",
      "assetIds": []
    },
    {
      "x": 27,
      "y": 335,
      "size": 1,
      "price": "1011000000000000000000",
      "reserved": "",
      "salt": "0xb500b9fe0b8049e961ab5155c12c78abc1e3f6c24c71b5efe5b4b399d60971ec",
      "assetIds": []
    },
    {
      "x": 27,
      "y": 342,
      "size": 1,
      "price": "1011000000000000000000",
      "reserved": "",
      "salt": "0x2f66476a47bf5a4208b51867ee1822500033aa0b0affea2c3e926f95249b49de",
      "assetIds": []
    },
    {
      "x": 27,
      "y": 343,
      "size": 1,
      "price": "1011000000000000000000",
      "reserved": "",
      "salt": "0x7d35098e47457b2b0215a2fe2df0a416402eaa5f24a117fd23a057d8e04d6d5b",
      "assetIds": []
    },
    {
      "x": 27,
      "y": 344,
      "size": 1,
      "price": "1011000000000000000000",
      "reserved": "",
      "salt": "0x49f02e44727dc5ffb32e9b7ee15e9cebb9c5a2bef31267bec70da516ad76254b",
      "assetIds": []
    },
    {
      "x": 27,
      "y": 345,
      "size": 1,
      "price": "1011000000000000000000",
      "reserved": "",
      "salt": "0xe669754072903cdc46617987d191d4d7c738bebc4c262aeffd693a9acc061c7f",
      "assetIds": []
    },
    {
      "x": 28,
      "y": 325,
      "size": 1,
      "price": "1011000000000000000000",
      "reserved": "",
      "salt": "0xefd8804b86836c32e8f72cbb5d0c4cda1cbf6b03ccd3bb31a09f427305263476",
      "assetIds": []
    },
    {
      "x": 28,
      "y": 326,
      "size": 1,
      "price": "1011000000000000000000",
      "reserved": "0x7a9fe22691c811ea339d9b73150e6911a5343dca",
      "salt": "0xd8e149443627125c219cf98d82cea5cc6e16030d8ef02502f69b137d20f3f78a",
      "assetIds": []
    },
    {
      "x": 28,
      "y": 327,
      "size": 1,
      "price": "1011000000000000000000",
      "reserved": "",
      "salt": "0xf9fbe996f77544553bd74de035b55511a59d6c314ff87cef292e216917d944ec",
      "assetIds": []
    },
    {
      "x": 28,
      "y": 328,
      "size": 1,
      "price": "1011000000000000000000",
      "reserved": "",
      "salt": "0x9da33e5ef31f792f57505b5d7b19c376fc74e653990368a88363abcba2e2ec0e",
      "assetIds": []
    },
    {
      "x": 28,
      "y": 329,
      "size": 1,
      "price": "1011000000000000000000",
      "reserved": "",
      "salt": "0xa99da14b243d79986c9e4cbd669a1c5617394918dd783a8d05afb04883573a68",
      "assetIds": []
    },
    {
      "x": 28,
      "y": 330,
      "size": 1,
      "price": "1011000000000000000000",
      "reserved": "",
      "salt": "0x650a9d18dcc46f912248bde0e8ef5f31dcce243b6de1337af58956388ef37674",
      "assetIds": []
    },
    {
      "x": 28,
      "y": 331,
      "size": 1,
      "price": "1011000000000000000000",
      "reserved": "0x7a9fe22691c811ea339d9b73150e6911a5343dca",
      "salt": "0x8a4c28dbd045705882a4dc163df3e6958c4b665e3f571c6648a50c46f06aa6de",
      "assetIds": []
    },
    {
      "x": 28,
      "y": 332,
      "size": 1,
      "price": "1011000000000000000000",
      "reserved": "",
      "salt": "0x419ef3e3dadafd0227ab000366818a1d3cbd5d2479ec033fad70fc4085ea5015",
      "assetIds": []
    },
    {
      "x": 28,
      "y": 333,
      "size": 1,
      "price": "1011000000000000000000",
      "reserved": "",
      "salt": "0x41d83e92ad25c4d0b44a1e8fe21b66dfbd6d061d9c118052c8dacf53c49ffd70",
      "assetIds": []
    },
    {
      "x": 28,
      "y": 334,
      "size": 1,
      "price": "1011000000000000000000",
      "reserved": "",
      "salt": "0x9ae63758609d959d3aad9be61790731758fe376007555c8f771e2a370c32c646",
      "assetIds": []
    },
    {
      "x": 28,
      "y": 335,
      "size": 1,
      "price": "1011000000000000000000",
      "reserved": "0x7a9fe22691c811ea339d9b73150e6911a5343dca",
      "salt": "0x8d936b094d448ac32c8c328f26eb314c430c52fe591e6b6fcae341192b058005",
      "assetIds": []
    },
    {
      "x": 28,
      "y": 342,
      "size": 1,
      "price": "1011000000000000000000",
      "reserved": "0x7a9fe22691c811ea339d9b73150e6911a5343dca",
      "salt": "0xdace77996b7e0147ee0014ab334095b8bd7cd321cb0fbb23c765e11e60c76234",
      "assetIds": []
    },
    {
      "x": 28,
      "y": 343,
      "size": 1,
      "price": "1011000000000000000000",
      "reserved": "",
      "salt": "0x22a2d263ba703b296c37bc37422bd8ddae2a276b2c7183e4764bd2ef6669ceac",
      "assetIds": []
    },
    {
      "x": 28,
      "y": 344,
      "size": 1,
      "price": "1011000000000000000000",
      "reserved": "",
      "salt": "0x27063e99b6fceca9e26837c4e0841efd75f80ecddf2b19e6a712880c12789a60",
      "assetIds": []
    },
    {
      "x": 28,
      "y": 345,
      "size": 1,
      "price": "1011000000000000000000",
      "reserved": "",
      "salt": "0xf5b9d53cd71a171a264a9fb6513f56ed960db038ec6487fdd89fe3b37877792b",
      "assetIds": []
    },
    {
      "x": 29,
      "y": 324,
      "size": 1,
      "price": "1011000000000000000000",
      "reserved": "0x7a9fe22691c811ea339d9b73150e6911a5343dca",
      "salt": "0x3678c984206a26b4439815bb10acc1de9e9830709f0fbf7a6fb4880384f1f64c",
      "assetIds": []
    },
    {
      "x": 29,
      "y": 325,
      "size": 1,
      "price": "1011000000000000000000",
      "reserved": "",
      "salt": "0xe5ad78f9a92a07ecd8f49fc9bf0880acc6a72321950998b4357e95f97ea8d3e0",
      "assetIds": []
    },
    {
      "x": 29,
      "y": 326,
      "size": 1,
      "price": "1011000000000000000000",
      "reserved": "0x7a9fe22691c811ea339d9b73150e6911a5343dca",
      "salt": "0x9ddbd85534950b2e1b15eb830bd924e41721aa210ecbabefac597210e727e70a",
      "assetIds": []
    },
    {
      "x": 29,
      "y": 327,
      "size": 1,
      "price": "1011000000000000000000",
      "reserved": "",
      "salt": "0x0c41e56b4312bd70d8a4166d5de5b9712d0eb46feb8f2a14dc5c059d07315024",
      "assetIds": []
    },
    {
      "x": 29,
      "y": 328,
      "size": 1,
      "price": "1011000000000000000000",
      "reserved": "",
      "salt": "0xa6998d27dd52f0ba529dc3fdce5a63b577168539272ce9622b164c032bd55d84",
      "assetIds": []
    },
    {
      "x": 29,
      "y": 329,
      "size": 1,
      "price": "1011000000000000000000",
      "reserved": "",
      "salt": "0x037f04a883e4a076ca097b227b754733dc39403a99b2e55485509dccca5bc77f",
      "assetIds": []
    },
    {
      "x": 29,
      "y": 330,
      "size": 1,
      "price": "1011000000000000000000",
      "reserved": "0x7a9fe22691c811ea339d9b73150e6911a5343dca",
      "salt": "0xdf762995235b5b67ae0fb18592d676945568b2222626bcd93a799a448976cf52",
      "assetIds": []
    },
    {
      "x": 29,
      "y": 331,
      "size": 1,
      "price": "1011000000000000000000",
      "reserved": "",
      "salt": "0xd47313705c0256250aafc68179efd9f79302b7951933457a6c3a7507deffa6e9",
      "assetIds": []
    },
    {
      "x": 29,
      "y": 332,
      "size": 1,
      "price": "1011000000000000000000",
      "reserved": "",
      "salt": "0xc242e62943f061f5c88af42c1558627c51cbaf6cc7a0fa239d12eb21e768da44",
      "assetIds": []
    },
    {
      "x": 29,
      "y": 333,
      "size": 1,
      "price": "1011000000000000000000",
      "reserved": "0x7a9fe22691c811ea339d9b73150e6911a5343dca",
      "salt": "0xb50d11f66166de67644cdda1915278c4d6e6699b1c6a87453c663eeba62d5c63",
      "assetIds": []
    },
    {
      "x": 29,
      "y": 334,
      "size": 1,
      "price": "1011000000000000000000",
      "reserved": "",
      "salt": "0x9bf86876580a662521220f5e248274341a805a3cd07fb04913341478ad498270",
      "assetIds": []
    },
    {
      "x": 29,
      "y": 335,
      "size": 1,
      "price": "1011000000000000000000",
      "reserved": "",
      "salt": "0xe1bd45ed22449ad76de64d7466eb4f7b43a09a0d61e5d53d5a85942fa8d5bf25",
      "assetIds": []
    },
    {
      "x": 29,
      "y": 342,
      "size": 1,
      "price": "1011000000000000000000",
      "reserved": "0x7a9fe22691c811ea339d9b73150e6911a5343dca",
      "salt": "0x3189aee1930c6be1d4569222ffe56d627dfce8a43929dc02ec8dc90a63953e0d",
      "assetIds": []
    },
    {
      "x": 29,
      "y": 343,
      "size": 1,
      "price": "1011000000000000000000",
      "reserved": "",
      "salt": "0x8b5bf4c0aecb5161b14590b224c8311b99ea9002e3d6af3b6854a419e2af4aae",
      "assetIds": []
    },
    {
      "x": 29,
      "y": 344,
      "size": 1,
      "price": "1011000000000000000000",
      "reserved": "",
      "salt": "0xa5baa7868ad4539840617f5560b09339cbb0f09eadcfee1544379c37aba79472",
      "assetIds": []
    },
    {
      "x": 29,
      "y": 345,
      "size": 1,
      "price": "1011000000000000000000",
      "reserved": "0x7a9fe22691c811ea339d9b73150e6911a5343dca",
      "salt": "0x8a6be15a2a2a57dcbcf47bf51309082eb642bfc366014be572eedfe9a57922f8",
      "assetIds": []
    },
    {
      "x": 30,
      "y": 324,
      "size": 1,
      "price": "1011000000000000000000",
      "reserved": "",
      "salt": "0x3fb3cf18af94274ea38b7ac124a94182155221fe113707a5cf0db4f8ce8d5614",
      "assetIds": []
    },
    {
      "x": 30,
      "y": 325,
      "size": 1,
      "price": "1011000000000000000000",
      "reserved": "",
      "salt": "0x36d66b3c2b29c249a56f383aff7ddaffb12bf39d9977d313bbc7c308d932d7fa",
      "assetIds": []
    },
    {
      "x": 30,
      "y": 326,
      "size": 1,
      "price": "1011000000000000000000",
      "reserved": "",
      "salt": "0x6d9b8c6a8e56f4658b880f27b1370ab9e5b0083eeab3a7e1eed738e34c0ec606",
      "assetIds": []
    },
    {
      "x": 30,
      "y": 327,
      "size": 1,
      "price": "1011000000000000000000",
      "reserved": "",
      "salt": "0x69d9d96c3d65e9349edb8d4ed40e0bed09101856699e261e313e033f31e99794",
      "assetIds": []
    },
    {
      "x": 30,
      "y": 328,
      "size": 1,
      "price": "1011000000000000000000",
      "reserved": "0x7a9fe22691c811ea339d9b73150e6911a5343dca",
      "salt": "0xe881afa46cf88f57317964ded1ba04d6cfbec785bff53d457092d881f0617f4e",
      "assetIds": []
    },
    {
      "x": 30,
      "y": 329,
      "size": 1,
      "price": "1011000000000000000000",
      "reserved": "",
      "salt": "0x312433f761289bd277797da516037f2d1ebcca7ba6627c2b5bb75dee4aa55f36",
      "assetIds": []
    },
    {
      "x": 30,
      "y": 342,
      "size": 1,
      "price": "1011000000000000000000",
      "reserved": "",
      "salt": "0xd71487b5309b7d159abe5520e158c3098dfd39a44fdad7d25214fa4b1f1b88b9",
      "assetIds": []
    },
    {
      "x": 30,
      "y": 343,
      "size": 1,
      "price": "1011000000000000000000",
      "reserved": "0x7a9fe22691c811ea339d9b73150e6911a5343dca",
      "salt": "0x6891b1d4c0b23a9a2c657e17c87ce7c2d4758343ee4283b2706333df7bd78027",
      "assetIds": []
    },
    {
      "x": 30,
      "y": 344,
      "size": 1,
      "price": "1011000000000000000000",
      "reserved": "",
      "salt": "0x5165c2c316912d35f443bb077e662b04b527c505dd3ab65a180c6945f08754cf",
      "assetIds": []
    },
    {
      "x": 30,
      "y": 345,
      "size": 1,
      "price": "1011000000000000000000",
      "reserved": "",
      "salt": "0x2905bd9d39d8d023b93e66d8c6cb532d6e5e6762c0ba30ef122f9ca0192156e0",
      "assetIds": []
    },
    {
      "x": 31,
      "y": 324,
      "size": 1,
      "price": "1011000000000000000000",
      "reserved": "",
      "salt": "0x227b6ad80a1639b4ca3d98a6bf9c85e82d3adeff7762d5b7cb803fad401cbf5d",
      "assetIds": []
    },
    {
      "x": 31,
      "y": 325,
      "size": 1,
      "price": "1011000000000000000000",
      "reserved": "0x7a9fe22691c811ea339d9b73150e6911a5343dca",
      "salt": "0x9ced296f45daf1486706556aa5985e4d9f7e3809f07620894a6e89d5af37bb55",
      "assetIds": []
    },
    {
      "x": 31,
      "y": 326,
      "size": 1,
      "price": "1011000000000000000000",
      "reserved": "0x7a9fe22691c811ea339d9b73150e6911a5343dca",
      "salt": "0x3c892c9c9317f76268547b90438c8b90e39635317f0582d5ff402dc9815456c0",
      "assetIds": []
    },
    {
      "x": 31,
      "y": 327,
      "size": 1,
      "price": "1011000000000000000000",
      "reserved": "",
      "salt": "0xbff58c0c906a13a8a576372a04abac9c9e9193003058ca5f81fdc0ae0fa03d0d",
      "assetIds": []
    },
    {
      "x": 31,
      "y": 328,
      "size": 1,
      "price": "1011000000000000000000",
      "reserved": "0x7a9fe22691c811ea339d9b73150e6911a5343dca",
      "salt": "0x0e6a99a7b06290e0a66998e33823a31f2c9fad0c47253d333ed2f0568e67612b",
      "assetIds": []
    },
    {
      "x": 31,
      "y": 329,
      "size": 1,
      "price": "1011000000000000000000",
      "reserved": "",
      "salt": "0x54a5bc590ab24c3896bfde97587b6546006c44579994a8a340a80d9d7c6b3179",
      "assetIds": []
    },
    {
      "x": 31,
      "y": 342,
      "size": 1,
      "price": "1011000000000000000000",
      "reserved": "",
      "salt": "0xee4497ba4b5dc52eb3062f71d45cd9bb512906357c43d778c0b8400c524fb4f4",
      "assetIds": []
    },
    {
      "x": 31,
      "y": 343,
      "size": 1,
      "price": "1011000000000000000000",
      "reserved": "0x7a9fe22691c811ea339d9b73150e6911a5343dca",
      "salt": "0x00a0cdd78825f7091620d8e16683cfc611c3a1d0ef6bb17c355ef539e7356e25",
      "assetIds": []
    },
    {
      "x": 31,
      "y": 344,
      "size": 1,
      "price": "1011000000000000000000",
      "reserved": "",
      "salt": "0x52ea0f45a52b7fb39cf0a675f0cc752be7c0107427f737e09b620905a8d451bf",
      "assetIds": []
    },
    {
      "x": 31,
      "y": 345,
      "size": 1,
      "price": "1011000000000000000000",
      "reserved": "",
      "salt": "0x2f9fa188d4bea511e49d44442fafc22f6088b3f3ec7616f9a22535466afdbf8c",
      "assetIds": []
    },
    {
      "x": 32,
      "y": 324,
      "size": 1,
      "price": "1011000000000000000000",
      "reserved": "",
      "salt": "0x6990923d361de7afc0d993c9342c3b2d16da251a953eb0ced1c83d59ee16fa77",
      "assetIds": []
    },
    {
      "x": 32,
      "y": 325,
      "size": 1,
      "price": "1011000000000000000000",
      "reserved": "",
      "salt": "0x6443da23a1bc8feed9ae81985472ad52214426833b4034db849c637c235474b0",
      "assetIds": []
    },
    {
      "x": 32,
      "y": 326,
      "size": 1,
      "price": "1011000000000000000000",
      "reserved": "",
      "salt": "0xbbb445bcdc6e23b0221a51f8a1924ca427dac4a6d0547823675da2fa2ed4e22c",
      "assetIds": []
    },
    {
      "x": 32,
      "y": 327,
      "size": 1,
      "price": "1011000000000000000000",
      "reserved": "",
      "salt": "0xf43fd62dd9ecbba2102fd13553400173be8263f4c6c83a0b654158a2134b644a",
      "assetIds": []
    },
    {
      "x": 32,
      "y": 328,
      "size": 1,
      "price": "1011000000000000000000",
      "reserved": "",
      "salt": "0x12c4545a292a08b72288c868e203dead86bb6c46c448281f7ef897f32854d447",
      "assetIds": []
    },
    {
      "x": 32,
      "y": 329,
      "size": 1,
      "price": "1011000000000000000000",
      "reserved": "",
      "salt": "0x06794ed690ac4b2a9b825c41b2435eac6be9ff06cc3b4f56be2c8e3122f0a013",
      "assetIds": []
    },
    {
      "x": 32,
      "y": 342,
      "size": 1,
      "price": "1011000000000000000000",
      "reserved": "",
      "salt": "0x03b9795b620f5d6a66b344ec7bc7a4ac8725a4b2e2b082318f3771ddc124bcc5",
      "assetIds": []
    },
    {
      "x": 32,
      "y": 343,
      "size": 1,
      "price": "1011000000000000000000",
      "reserved": "",
      "salt": "0x73251e1472c33c5d53e6599765776fc410abc64bec0cf533168c1e5d65fc9774",
      "assetIds": []
    },
    {
      "x": 32,
      "y": 344,
      "size": 1,
      "price": "1011000000000000000000",
      "reserved": "",
      "salt": "0xff30e7edc38796a1970f060aea9028e3e229fb43170faa01ae07c061c64b4b23",
      "assetIds": []
    },
    {
      "x": 32,
      "y": 345,
      "size": 1,
      "price": "1011000000000000000000",
      "reserved": "0x7a9fe22691c811ea339d9b73150e6911a5343dca",
      "salt": "0xcd25240454fcb204bcf0553b11bb7d47197f16331d4966b66d60684e0c62656b",
      "assetIds": []
    },
    {
      "x": 33,
      "y": 324,
      "size": 1,
      "price": "1011000000000000000000",
      "reserved": "",
      "salt": "0x21d5f3900862e2cc6f6a139b48fa766d73346c9eb47b6cd90e53651cd4b59037",
      "assetIds": []
    },
    {
      "x": 33,
      "y": 325,
      "size": 1,
      "price": "1011000000000000000000",
      "reserved": "",
      "salt": "0x521c88ffd2cd73374ed88d7e3e5d449d3076366be7b50699850367d69c8c32d7",
      "assetIds": []
    },
    {
      "x": 33,
      "y": 326,
      "size": 1,
      "price": "1011000000000000000000",
      "reserved": "",
      "salt": "0x58f85a838bad2784a35989877e96d4dcb7b984dd21cf770caef08928899f4ccc",
      "assetIds": []
    },
    {
      "x": 33,
      "y": 327,
      "size": 1,
      "price": "1011000000000000000000",
      "reserved": "",
      "salt": "0xdec24ddef4b33f602181dafa27a5add89f17766dfb7b3a3d9bae7a2e3b9ecd32",
      "assetIds": []
    },
    {
      "x": 33,
      "y": 328,
      "size": 1,
      "price": "1011000000000000000000",
      "reserved": "",
      "salt": "0x5dd25aa08cf1fb65c2dc06d33b2e20e3d9427a30a039369e1ffbf4e68830fbde",
      "assetIds": []
    },
    {
      "x": 33,
      "y": 329,
      "size": 1,
      "price": "1011000000000000000000",
      "reserved": "",
      "salt": "0xf91a01603bfe027acb0e4b4e49960d4b87d6673283fff28d6bb4f5fc4e0bf6f5",
      "assetIds": []
    },
    {
      "x": 33,
      "y": 342,
      "size": 1,
      "price": "1011000000000000000000",
      "reserved": "",
      "salt": "0x3cb57211331736f777bd0696a43aaf5ccb6315c82c11e53a03e0bd4cb6b2dca6",
      "assetIds": []
    },
    {
      "x": 33,
      "y": 343,
      "size": 1,
      "price": "1011000000000000000000",
      "reserved": "",
      "salt": "0xc758ed57819bdca8e7170d80c0f36761489bf51f0d8c4f292b84cc0c64643f0d",
      "assetIds": []
    },
    {
      "x": 33,
      "y": 344,
      "size": 1,
      "price": "1011000000000000000000",
      "reserved": "",
      "salt": "0xb6f23bba87428df1d4f9ccb29fa69c41dafeae79a2d9591be638cfe1537ee83b",
      "assetIds": []
    },
    {
      "x": 33,
      "y": 345,
      "size": 1,
      "price": "1011000000000000000000",
      "reserved": "",
      "salt": "0xeb21c70e00a8b4f15e3dbac51254baac6897393c3ba77fc14f6554519e41f3b2",
      "assetIds": []
    },
    {
      "x": 34,
      "y": 324,
      "size": 1,
      "price": "1011000000000000000000",
      "reserved": "",
      "salt": "0x48e1c8faadf38b7950af0dd5928830c4612ed3541546edcaad48d369b3b7fd43",
      "assetIds": []
    },
    {
      "x": 34,
      "y": 325,
      "size": 1,
      "price": "1011000000000000000000",
      "reserved": "0x7a9fe22691c811ea339d9b73150e6911a5343dca",
      "salt": "0xc306eea09e25fddcd103607eb7e43e24ab9b770dc82ec52f40404a954a379c79",
      "assetIds": []
    },
    {
      "x": 34,
      "y": 326,
      "size": 1,
      "price": "1011000000000000000000",
      "reserved": "0x7a9fe22691c811ea339d9b73150e6911a5343dca",
      "salt": "0x3e544d0fa3d799cc8e3725d2f69843114a0ce68c60c5ff374d37d81d4284e2af",
      "assetIds": []
    },
    {
      "x": 34,
      "y": 327,
      "size": 1,
      "price": "1011000000000000000000",
      "reserved": "",
      "salt": "0x5b51b39b17698f54523393a41dcd558526c92bef3c825caef8ad16952733dcab",
      "assetIds": []
    },
    {
      "x": 34,
      "y": 328,
      "size": 1,
      "price": "1011000000000000000000",
      "reserved": "",
      "salt": "0x742e00c5874449001477c06c92e9bb957b9578cf97929d216cb9b24c89bc9f1d",
      "assetIds": []
    },
    {
      "x": 34,
      "y": 329,
      "size": 1,
      "price": "1011000000000000000000",
      "reserved": "0x7a9fe22691c811ea339d9b73150e6911a5343dca",
      "salt": "0x12ff676a5965f47120ef101532f61376dd36440e55d4f2be949eb1a5a12addcc",
      "assetIds": []
    },
    {
      "x": 34,
      "y": 342,
      "size": 1,
      "price": "1011000000000000000000",
      "reserved": "0x7a9fe22691c811ea339d9b73150e6911a5343dca",
      "salt": "0xdaf1fc836c300984e7676eccec9a7b4b72470e809ceff7aa60f1f2c0ad385865",
      "assetIds": []
    },
    {
      "x": 34,
      "y": 343,
      "size": 1,
      "price": "1011000000000000000000",
      "reserved": "",
      "salt": "0x114a82b99ce8848a0bcf9fe2e2a276f0920c8ca6c84e82d33bc36be7ead72d78",
      "assetIds": []
    },
    {
      "x": 34,
      "y": 344,
      "size": 1,
      "price": "1011000000000000000000",
      "reserved": "",
      "salt": "0xb58a2023a6747a8824ab43ee7af7de84b383e5c6b59ddf92e38d45b030c4469e",
      "assetIds": []
    },
    {
      "x": 34,
      "y": 345,
      "size": 1,
      "price": "1011000000000000000000",
      "reserved": "",
      "salt": "0x0baedf7d78af4cdfec3fa198dee9c549cad2ea90f99e2aa6a1feae90f4370c1b",
      "assetIds": []
    },
    {
      "x": 35,
      "y": 324,
      "size": 1,
      "price": "1011000000000000000000",
      "reserved": "",
      "salt": "0x31d55678197c8f278286fe022516c9b323315d4bf76cfd5f58f16ed3cfc034a2",
      "assetIds": []
    },
    {
      "x": 35,
      "y": 325,
      "size": 1,
      "price": "1011000000000000000000",
      "reserved": "",
      "salt": "0xf3db6ba6f98f2304b6af15d7381a4dbfecceb5b820dcf64a5b1a5239967eb0fd",
      "assetIds": []
    },
    {
      "x": 35,
      "y": 326,
      "size": 1,
      "price": "1011000000000000000000",
      "reserved": "",
      "salt": "0x39009059dbd1ceb9190fcde92b37886216da3f3733f752968cc4f4dff84992f2",
      "assetIds": []
    },
    {
      "x": 35,
      "y": 327,
      "size": 1,
      "price": "1011000000000000000000",
      "reserved": "",
      "salt": "0xe30dc82fae8e6c81a48de00074c11cd7613eedb79cb3bb8d09b2ff928b72b733",
      "assetIds": []
    },
    {
      "x": 35,
      "y": 328,
      "size": 1,
      "price": "1011000000000000000000",
      "reserved": "",
      "salt": "0xe7981bdd29f15d69496ba41ad8a062b71c14aee2d24439cb9bcf2d125ddcda98",
      "assetIds": []
    },
    {
      "x": 35,
      "y": 329,
      "size": 1,
      "price": "1011000000000000000000",
      "reserved": "",
      "salt": "0x5b6f2480aebe1cc8d8edc68cbe6f6d6a155b531a5226c1ff73a00a72d3552423",
      "assetIds": []
    },
    {
      "x": 35,
      "y": 342,
      "size": 1,
      "price": "1011000000000000000000",
      "reserved": "",
      "salt": "0x46864fc5ef54984660babd296b7fe6f5912f3cc162995efd5ba1e16feeac6a90",
      "assetIds": []
    },
    {
      "x": 35,
      "y": 343,
      "size": 1,
      "price": "1011000000000000000000",
      "reserved": "0x7a9fe22691c811ea339d9b73150e6911a5343dca",
      "salt": "0xab93920ca6758a1fd1fb60f920c8d02902bdae7beacbc92edd84de31059b81d5",
      "assetIds": []
    },
    {
      "x": 35,
      "y": 344,
      "size": 1,
      "price": "1011000000000000000000",
      "reserved": "",
      "salt": "0x910e81dfb6f3c4aa5b6b2d37c61b873b55b4ddc4d9153ea69c33b363baafcfdc",
      "assetIds": []
    },
    {
      "x": 35,
      "y": 345,
      "size": 1,
      "price": "1011000000000000000000",
      "reserved": "",
      "salt": "0xad9e0e78e454968de8f503d3f312cc308ea4a83d83e53845e9642f59dc6eec9c",
      "assetIds": []
    },
    {
      "x": 36,
      "y": 324,
      "size": 1,
      "price": "1011000000000000000000",
      "reserved": "",
      "salt": "0x9cc2651e069de07cb79a52e25adc082b3491c3f06c61948a1a90430e07fc8f5d",
      "assetIds": []
    },
    {
      "x": 36,
      "y": 325,
      "size": 1,
      "price": "1011000000000000000000",
      "reserved": "",
      "salt": "0x64a23436fc95a60365d670e8c8a0e8189d9252c7069a9576e5166312a6401b68",
      "assetIds": []
    },
    {
      "x": 36,
      "y": 326,
      "size": 1,
      "price": "1011000000000000000000",
      "reserved": "",
      "salt": "0xddcd0aa18a7e812b432e598e29da7b8b6423d9415c7d1b8b4829135042b8147d",
      "assetIds": []
    },
    {
      "x": 36,
      "y": 327,
      "size": 1,
      "price": "1011000000000000000000",
      "reserved": "",
      "salt": "0x79b9a99ded0ab8a1134995f586438d6131ddf702cc45498045a119538230aeaf",
      "assetIds": []
    },
    {
      "x": 36,
      "y": 328,
      "size": 1,
      "price": "1011000000000000000000",
      "reserved": "0x7a9fe22691c811ea339d9b73150e6911a5343dca",
      "salt": "0x3ece1806b90738b90cf03d19f914d44e18eaf2eafc6044c55116ec2321c6c97d",
      "assetIds": []
    },
    {
      "x": 36,
      "y": 329,
      "size": 1,
      "price": "1011000000000000000000",
      "reserved": "",
      "salt": "0xe95565789b17383fef111fc5ce478052c7b0de804d99cec4a36f51b4c6f2db0c",
      "assetIds": []
    },
    {
      "x": 36,
      "y": 333,
      "size": 1,
      "price": "1011000000000000000000",
      "reserved": "",
      "salt": "0x04ce440967ee92d554fb80085fb878c0f08a45fe6ac7ff2b3b4e10c2e2928a4f",
      "assetIds": []
    },
    {
      "x": 36,
      "y": 334,
      "size": 1,
      "price": "1011000000000000000000",
      "reserved": "",
      "salt": "0x22c01eda0accb99aeb14ee8d3d2bc93090a31e56642c21d67fa01bebd6edff46",
      "assetIds": []
    },
    {
      "x": 36,
      "y": 335,
      "size": 1,
      "price": "1011000000000000000000",
      "reserved": "",
      "salt": "0x968b2f399c503baffc3a86f31ccfd8f9f0f007b7859881da4e6355e4878e991c",
      "assetIds": []
    },
    {
      "x": 36,
      "y": 336,
      "size": 1,
      "price": "1011000000000000000000",
      "reserved": "",
      "salt": "0x2be859e3cf3c75cecddad90d8b81c93e3dd5812e6a25aa973b229f8ba8894311",
      "assetIds": []
    },
    {
      "x": 36,
      "y": 337,
      "size": 1,
      "price": "1011000000000000000000",
      "reserved": "0x7a9fe22691c811ea339d9b73150e6911a5343dca",
      "salt": "0x76b3cbc6a65a2bc1fc85413f70083f24ef0657df02695ae1d1ee77acc7017214",
      "assetIds": []
    },
    {
      "x": 36,
      "y": 338,
      "size": 1,
      "price": "1011000000000000000000",
      "reserved": "",
      "salt": "0x5da398773aa369832d3e675c540e8616f46087e328543f8acca9f922f4e8431d",
      "assetIds": []
    },
    {
      "x": 36,
      "y": 339,
      "size": 1,
      "price": "1011000000000000000000",
      "reserved": "",
      "salt": "0x2eb9a6ad1cea4463dfdf8280a97aaf65bf525a03393464925c5a7eb0df0b7ff5",
      "assetIds": []
    },
    {
      "x": 36,
      "y": 340,
      "size": 1,
      "price": "1011000000000000000000",
      "reserved": "",
      "salt": "0xd03d9d067b87639203739b08bc8c05a395e266274451c62a663d0ef7f4761de4",
      "assetIds": []
    },
    {
      "x": 36,
      "y": 341,
      "size": 1,
      "price": "1011000000000000000000",
      "reserved": "0x7a9fe22691c811ea339d9b73150e6911a5343dca",
      "salt": "0x9438cde4c45036a2d80bfababb8efbfe633fd0ee3142470e1b8f13a9336f8c13",
      "assetIds": []
    },
    {
      "x": 36,
      "y": 342,
      "size": 1,
      "price": "1011000000000000000000",
      "reserved": "",
      "salt": "0x5cd59638fd0ddcb50221e84739e2ee1b42da6f1bb354b444cee2f21d53de868f",
      "assetIds": []
    },
    {
      "x": 36,
      "y": 343,
      "size": 1,
      "price": "1011000000000000000000",
      "reserved": "0x7a9fe22691c811ea339d9b73150e6911a5343dca",
      "salt": "0x881257c4f1cc3b3009878e47720cc1486c1c125f2a04641c8ffd1f9b3d5fca4d",
      "assetIds": []
    },
    {
      "x": 36,
      "y": 344,
      "size": 1,
      "price": "1011000000000000000000",
      "reserved": "",
      "salt": "0x51d591f76e1de0079da051ed91ef042b505da1933549b31e9500804090d5b3c5",
      "assetIds": []
    },
    {
      "x": 36,
      "y": 345,
      "size": 1,
      "price": "1011000000000000000000",
      "reserved": "0x7a9fe22691c811ea339d9b73150e6911a5343dca",
      "salt": "0xab143f38bb745eca9950a9b319d669162215ab9049bd22d72fb4b35fa3d94fe4",
      "assetIds": []
    },
    {
      "x": 37,
      "y": 324,
      "size": 1,
      "price": "1011000000000000000000",
      "reserved": "",
      "salt": "0x2ec49b754d0cd00d37829108122152d5471a32d2552e4c26da4c75a79d6b1f03",
      "assetIds": []
    },
    {
      "x": 37,
      "y": 325,
      "size": 1,
      "price": "1011000000000000000000",
      "reserved": "",
      "salt": "0x9f47d101a88db7a8c9427fb36362382f985f39432a33da74e920063091ea95b5",
      "assetIds": []
    },
    {
      "x": 37,
      "y": 326,
      "size": 1,
      "price": "1011000000000000000000",
      "reserved": "",
      "salt": "0x95082b5b239d86fc8395f7b2b6189ad90a0529838266616d764a8a78ac9c3ec5",
      "assetIds": []
    },
    {
      "x": 37,
      "y": 327,
      "size": 1,
      "price": "1011000000000000000000",
      "reserved": "0x7a9fe22691c811ea339d9b73150e6911a5343dca",
      "salt": "0x4a3ebc9a1c83333352d96fb4d47d3ef1090b260ea40f1392f0e6b965aab735dd",
      "assetIds": []
    },
    {
      "x": 37,
      "y": 328,
      "size": 1,
      "price": "1011000000000000000000",
      "reserved": "",
      "salt": "0xc24bf3e493c110ca99bfa036f6a3ef744b1ae702e05b5b3d999181d62dccdc27",
      "assetIds": []
    },
    {
      "x": 37,
      "y": 329,
      "size": 1,
      "price": "1011000000000000000000",
      "reserved": "",
      "salt": "0xbe0b612afdfed9f9169d30800cb1386dda3c841ff563102903ecd211b7460a81",
      "assetIds": []
    },
    {
      "x": 37,
      "y": 333,
      "size": 1,
      "price": "1011000000000000000000",
      "reserved": "",
      "salt": "0x2bf2baa568b821e6a1c10eb52b0eaa33fa9f123cd7f2472610f8e2e4da0f553a",
      "assetIds": []
    },
    {
      "x": 37,
      "y": 334,
      "size": 1,
      "price": "1011000000000000000000",
      "reserved": "0x7a9fe22691c811ea339d9b73150e6911a5343dca",
      "salt": "0x6a61fbd43c184adef02001b6f3a2527725dc05b93d1d905a3679141485d7bf09",
      "assetIds": []
    },
    {
      "x": 37,
      "y": 335,
      "size": 1,
      "price": "1011000000000000000000",
      "reserved": "",
      "salt": "0xe73265fa232c6e291331453311a10d45ec62bf407c6a9de9495443ee67a4971d",
      "assetIds": []
    },
    {
      "x": 37,
      "y": 336,
      "size": 1,
      "price": "1011000000000000000000",
      "reserved": "",
      "salt": "0x088b18cc7d13eef1120e8edebd55f1c4921110eb62c04b3294dd5a46b81ade08",
      "assetIds": []
    },
    {
      "x": 37,
      "y": 337,
      "size": 1,
      "price": "1011000000000000000000",
      "reserved": "",
      "salt": "0x93e05083724e03a0b803118859c518a5c375ccccd561636c4442c8521f698061",
      "assetIds": []
    },
    {
      "x": 37,
      "y": 338,
      "size": 1,
      "price": "1011000000000000000000",
      "reserved": "",
      "salt": "0xf89695132daa23dc2b3140e760ebc6ed0eef0b6c3dfaf8768d2e6b2f8e92e46d",
      "assetIds": []
    },
    {
      "x": 37,
      "y": 339,
      "size": 1,
      "price": "1011000000000000000000",
      "reserved": "",
      "salt": "0xba7810e49e4d0211168f6c0e53e14e0e5e7459a14293840add27e1077b6e6aff",
      "assetIds": []
    },
    {
      "x": 37,
      "y": 340,
      "size": 1,
      "price": "1011000000000000000000",
      "reserved": "",
      "salt": "0xb878b329341a44384fafd94be3b17264039a862a9cc4619dc105bca7c343017c",
      "assetIds": []
    },
    {
      "x": 37,
      "y": 341,
      "size": 1,
      "price": "1011000000000000000000",
      "reserved": "",
      "salt": "0xc6328baaeca881e0c182b9e859149dab67fc27f5365db8df082eada97637f5fe",
      "assetIds": []
    },
    {
      "x": 37,
      "y": 342,
      "size": 1,
      "price": "1011000000000000000000",
      "reserved": "",
      "salt": "0x5377008d54c3349fb064a68284530021d9bb4eace55f9ae2f7f70a5442a2b07a",
      "assetIds": []
    },
    {
      "x": 37,
      "y": 343,
      "size": 1,
      "price": "1011000000000000000000",
      "reserved": "0x7a9fe22691c811ea339d9b73150e6911a5343dca",
      "salt": "0xaf56d19d74135ca380a4bfb07f61a0b6a3deff14d2bd954230aba30ed84bbb56",
      "assetIds": []
    },
    {
      "x": 37,
      "y": 344,
      "size": 1,
      "price": "1011000000000000000000",
      "reserved": "",
      "salt": "0x8a6e91170a7dbf53af060b9ac3f23f0005a334ef8e2c7d96fcebbe559fd2ca24",
      "assetIds": []
    },
    {
      "x": 37,
      "y": 345,
      "size": 1,
      "price": "1011000000000000000000",
      "reserved": "",
      "salt": "0xe94b2a67445f18e132ff7551479d1fbc7c3d7ff9889844aaa94d009046efa564",
      "assetIds": []
    },
    {
      "x": 38,
      "y": 324,
      "size": 1,
      "price": "1011000000000000000000",
      "reserved": "0x7a9fe22691c811ea339d9b73150e6911a5343dca",
      "salt": "0xa937c58616895db65732e188a290b6ab17a0de17d3aacc6a484240f2dd97f9a0",
      "assetIds": []
    },
    {
      "x": 38,
      "y": 325,
      "size": 1,
      "price": "1011000000000000000000",
      "reserved": "",
      "salt": "0x5b353995b1439886e49160fd23bef125e73dacdd3a2cf356641c6a4535e0006b",
      "assetIds": []
    },
    {
      "x": 38,
      "y": 326,
      "size": 1,
      "price": "1011000000000000000000",
      "reserved": "",
      "salt": "0x791bc776e8b24e2a2c77cfb6cce86e78bb1c9ee0d0578e9147772e088d05737d",
      "assetIds": []
    },
    {
      "x": 38,
      "y": 327,
      "size": 1,
      "price": "1011000000000000000000",
      "reserved": "",
      "salt": "0x37970b49116ede0c6a48b553accdfaff054e577c45695d35615f2b0f6f030c6a",
      "assetIds": []
    },
    {
      "x": 38,
      "y": 328,
      "size": 1,
      "price": "1011000000000000000000",
      "reserved": "0x7a9fe22691c811ea339d9b73150e6911a5343dca",
      "salt": "0x97e8c2a9209d4814ee1e180004a6ff2b363499a85d690d079d496e74c397075f",
      "assetIds": []
    },
    {
      "x": 38,
      "y": 329,
      "size": 1,
      "price": "1011000000000000000000",
      "reserved": "",
      "salt": "0xded149b063f0f6b5ec0180fde00297611ebb7dfe48fb627342cbfaa00362247b",
      "assetIds": []
    },
    {
      "x": 38,
      "y": 333,
      "size": 1,
      "price": "1011000000000000000000",
      "reserved": "",
      "salt": "0x5c96301b5033f3b7f9bb6e9364309e56def2be53b165109f5205a3827979b523",
      "assetIds": []
    },
    {
      "x": 38,
      "y": 334,
      "size": 1,
      "price": "1011000000000000000000",
      "reserved": "",
      "salt": "0xd92d99b25a478b89f5361c7991a384407c0c87f6a5af5873a50f48da3d3f358f",
      "assetIds": []
    },
    {
      "x": 38,
      "y": 335,
      "size": 1,
      "price": "1011000000000000000000",
      "reserved": "",
      "salt": "0x2fc4a46111a568e2f15ae216b93103c875d486a2abf39c15ee4447291fb0cd32",
      "assetIds": []
    },
    {
      "x": 38,
      "y": 336,
      "size": 1,
      "price": "1011000000000000000000",
      "reserved": "",
      "salt": "0x7a0513e929a4c73eee807ca759510ba8e104d810a2c015ab10c8c48ecf37caae",
      "assetIds": []
    },
    {
      "x": 38,
      "y": 337,
      "size": 1,
      "price": "1011000000000000000000",
      "reserved": "",
      "salt": "0xdac68d6e61ed4bb2dedfd0f3c9ac29d7d46ee132c723e37c1f09b64255ac4354",
      "assetIds": []
    },
    {
      "x": 38,
      "y": 338,
      "size": 1,
      "price": "1011000000000000000000",
      "reserved": "",
      "salt": "0xe5f374891fea260e132086cc53d58f15009f4c5b139457015ec77e890e4d5147",
      "assetIds": []
    },
    {
      "x": 38,
      "y": 339,
      "size": 1,
      "price": "1011000000000000000000",
      "reserved": "0x7a9fe22691c811ea339d9b73150e6911a5343dca",
      "salt": "0xcc0558878cc3a20f19e90c8c6a2b0e150456387b9125d41bf4d3fb160dc430fb",
      "assetIds": []
    },
    {
      "x": 38,
      "y": 340,
      "size": 1,
      "price": "1011000000000000000000",
      "reserved": "",
      "salt": "0xff283215799812072cd12b90eb9bd863993469f1fad3c8773b7cfe539f501ab0",
      "assetIds": []
    },
    {
      "x": 38,
      "y": 341,
      "size": 1,
      "price": "1011000000000000000000",
      "reserved": "",
      "salt": "0xf0a7c1fb6885f87f93df146a916e43a77d88400e92d6a1690eaf440a52446c96",
      "assetIds": []
    },
    {
      "x": 38,
      "y": 342,
      "size": 1,
      "price": "1011000000000000000000",
      "reserved": "",
      "salt": "0x0d9f99983599dc6955709f5f18992d86f6ba3b616ccb96ae2ecb7325bde2f8ba",
      "assetIds": []
    },
    {
      "x": 38,
      "y": 343,
      "size": 1,
      "price": "1011000000000000000000",
      "reserved": "",
      "salt": "0xb8f02e9d0e6ee2aac41fd002870eb0e8e97e285265786dc5a8f704fbb3bcc348",
      "assetIds": []
    },
    {
      "x": 38,
      "y": 344,
      "size": 1,
      "price": "1011000000000000000000",
      "reserved": "",
      "salt": "0x84357f1ffead6986926c5a893d282b1ab4c948c40c3c3389623d2f6e5e44b3af",
      "assetIds": []
    },
    {
      "x": 38,
      "y": 345,
      "size": 1,
      "price": "1011000000000000000000",
      "reserved": "",
      "salt": "0x558ec3dc5055b1927116ac8c59633d68d9b07769d0f1cb5230bdfe67d46dc713",
      "assetIds": []
    },
    {
      "x": 39,
      "y": 324,
      "size": 1,
      "price": "1011000000000000000000",
      "reserved": "0x7a9fe22691c811ea339d9b73150e6911a5343dca",
      "salt": "0x8a39b6ef8a148d22721a937fbe39268f0585d99b2563440b53a5a60974b46121",
      "assetIds": []
    },
    {
      "x": 39,
      "y": 325,
      "size": 1,
      "price": "1011000000000000000000",
      "reserved": "",
      "salt": "0x0d5b669464f620426be4a68527dd247ecbdf43b65ab961792eb3f046acb168bf",
      "assetIds": []
    },
    {
      "x": 39,
      "y": 326,
      "size": 1,
      "price": "1011000000000000000000",
      "reserved": "",
      "salt": "0x4dbb673742fa0a133c1a29df137bed9f63f2e475ea39507b9c5d5b26adcf41ef",
      "assetIds": []
    },
    {
      "x": 39,
      "y": 327,
      "size": 1,
      "price": "1011000000000000000000",
      "reserved": "",
      "salt": "0x8b267a95f3ac2995b34050aa657d43fd31977fc993176ae98e4316a7a1f99a8d",
      "assetIds": []
    },
    {
      "x": 39,
      "y": 328,
      "size": 1,
      "price": "1011000000000000000000",
      "reserved": "",
      "salt": "0xda3e61b57b0b230c9e89eab45e5c7082155c08afea2492ac297f6bc47f9ac0b0",
      "assetIds": []
    },
    {
      "x": 39,
      "y": 329,
      "size": 1,
      "price": "1011000000000000000000",
      "reserved": "",
      "salt": "0xc5f5d1e2f9e0bfb9e4716f7f1af6a372236a537694a151c335bf1a71151e2a9d",
      "assetIds": []
    },
    {
      "x": 39,
      "y": 330,
      "size": 1,
      "price": "1011000000000000000000",
      "reserved": "",
      "salt": "0x7a3ce0d067094440cba1a46b38ff20ae00b2630ef0d340bff53049c2cf7d0245",
      "assetIds": []
    },
    {
      "x": 39,
      "y": 331,
      "size": 1,
      "price": "1011000000000000000000",
      "reserved": "",
      "salt": "0x8d4b7c27a602c3582b77fdad533c85f161d8a36fb67c3fe410b2431860ef9d23",
      "assetIds": []
    },
    {
      "x": 39,
      "y": 332,
      "size": 1,
      "price": "1011000000000000000000",
      "reserved": "",
      "salt": "0xbc66c61004a5ec4a8c4e9bfbfc124f2871cae493f41eefb77609777abc222ba6",
      "assetIds": []
    },
    {
      "x": 39,
      "y": 333,
      "size": 1,
      "price": "1011000000000000000000",
      "reserved": "",
      "salt": "0x3fe7c922a3449d1b1e2732c47d3fbad44354aec5ea093cd61e2b75a85477ebb2",
      "assetIds": []
    },
    {
      "x": 39,
      "y": 334,
      "size": 1,
      "price": "1011000000000000000000",
      "reserved": "",
      "salt": "0x159c405717148e35952d0e8092de88718211736ae5380cc55fb3c29202630493",
      "assetIds": []
    },
    {
      "x": 39,
      "y": 335,
      "size": 1,
      "price": "1011000000000000000000",
      "reserved": "0x7a9fe22691c811ea339d9b73150e6911a5343dca",
      "salt": "0xcd125053434b4ef13aebfe902313a3c0fdea1c0073071a03ec32279b29532ed9",
      "assetIds": []
    },
    {
      "x": 39,
      "y": 336,
      "size": 1,
      "price": "1011000000000000000000",
      "reserved": "",
      "salt": "0x5629b5853f045918f781a9ba50e1e9b0d6e7f6e9ca2e7680f77ed7d9fd82fbff",
      "assetIds": []
    },
    {
      "x": 39,
      "y": 337,
      "size": 1,
      "price": "1011000000000000000000",
      "reserved": "",
      "salt": "0x6943852ceaa8bb4e376df6f9a4e5e53e4471b2fc63eca5bae48f8c23dd0050b2",
      "assetIds": []
    },
    {
      "x": 39,
      "y": 338,
      "size": 1,
      "price": "1011000000000000000000",
      "reserved": "",
      "salt": "0x42a322dab796071fa33091d0a556143d478bbd1b0e02dd0cb4e2096a0a2ececa",
      "assetIds": []
    },
    {
      "x": 39,
      "y": 339,
      "size": 1,
      "price": "1011000000000000000000",
      "reserved": "",
      "salt": "0x03b648843dd8599428585cb04124654d7670789f258b2bc96a6b2f8a6c50fd41",
      "assetIds": []
    },
    {
      "x": 39,
      "y": 340,
      "size": 1,
      "price": "1011000000000000000000",
      "reserved": "",
      "salt": "0xc87a6bc5433ae6bfdcf9624af5a4a28e6ebdae9a8ab1697178a72b1e174fc03b",
      "assetIds": []
    },
    {
      "x": 39,
      "y": 341,
      "size": 1,
      "price": "1011000000000000000000",
      "reserved": "",
      "salt": "0x987188abb7aebc7fb60fac191c36e1bb3c5ebb18fac47575a97adb2e206ac2a4",
      "assetIds": []
    },
    {
      "x": 40,
      "y": 324,
      "size": 1,
      "price": "1011000000000000000000",
      "reserved": "0x7a9fe22691c811ea339d9b73150e6911a5343dca",
      "salt": "0xcda2b16144397014656d174191255e36c8cda2bf36aef75ca2b68730612c8abc",
      "assetIds": []
    },
    {
      "x": 40,
      "y": 325,
      "size": 1,
      "price": "1011000000000000000000",
      "reserved": "",
      "salt": "0x0c968b6faf1f0dca6eaa2d51a643d44ab54649655f83b9b6804386ba75632026",
      "assetIds": []
    },
    {
      "x": 40,
      "y": 326,
      "size": 1,
      "price": "1011000000000000000000",
      "reserved": "0x7a9fe22691c811ea339d9b73150e6911a5343dca",
      "salt": "0x81b936c291b502489cc98d7cf75174b3f964fbf7b9657f6f36fe30c59fa94c30",
      "assetIds": []
    },
    {
      "x": 40,
      "y": 327,
      "size": 1,
      "price": "1011000000000000000000",
      "reserved": "",
      "salt": "0x48e4f6f7b55a9c102621476d5b0e192cc73dd5b4088b868cd8d0ef0a083a34dd",
      "assetIds": []
    },
    {
      "x": 40,
      "y": 328,
      "size": 1,
      "price": "1011000000000000000000",
      "reserved": "",
      "salt": "0x48e9eb3c5a409da85b605651f12e0e60953ad35ba89547ed5fed54d66207cdd5",
      "assetIds": []
    },
    {
      "x": 40,
      "y": 329,
      "size": 1,
      "price": "1011000000000000000000",
      "reserved": "",
      "salt": "0x08e811a69d4c3ebf1417617a83464577bc420714b4829452dcff5246acb9f6ef",
      "assetIds": []
    },
    {
      "x": 40,
      "y": 330,
      "size": 1,
      "price": "1011000000000000000000",
      "reserved": "",
      "salt": "0x7c0980bb9d699f874bb328f016f3aa0547c0e13a121ad98746e0be7eed138077",
      "assetIds": []
    },
    {
      "x": 40,
      "y": 331,
      "size": 1,
      "price": "1011000000000000000000",
      "reserved": "",
      "salt": "0xf6b7a49f28d18ad31fa6ebd5fc364f6f64d46d01c67ba87330eaeafb122439bb",
      "assetIds": []
    },
    {
      "x": 40,
      "y": 332,
      "size": 1,
      "price": "1011000000000000000000",
      "reserved": "",
      "salt": "0x55e76d844feac83b507fe850015c84244de3bef8e72161c8615f02fa233ae826",
      "assetIds": []
    },
    {
      "x": 40,
      "y": 333,
      "size": 1,
      "price": "1011000000000000000000",
      "reserved": "",
      "salt": "0x1cb05d23185fa23651781944527c2ec468c781bc891c99f16df01732152d6217",
      "assetIds": []
    },
    {
      "x": 40,
      "y": 334,
      "size": 1,
      "price": "1011000000000000000000",
      "reserved": "0x7a9fe22691c811ea339d9b73150e6911a5343dca",
      "salt": "0x3705745c6fc117b9325465a54b7df3e258dbb2dd41423a59281f3d784ce52ceb",
      "assetIds": []
    },
    {
      "x": 40,
      "y": 335,
      "size": 1,
      "price": "1011000000000000000000",
      "reserved": "",
      "salt": "0x00fa51e17248cb3c25f6a1da8d84c982394e959789ed9990663af67dd4a48daf",
      "assetIds": []
    },
    {
      "x": 40,
      "y": 336,
      "size": 1,
      "price": "1011000000000000000000",
      "reserved": "",
      "salt": "0x594a5f0a16d73d787b8a2527ca9f8c2d96bb52d0b6ef741cfc7d9f50f47a7f21",
      "assetIds": []
    },
    {
      "x": 40,
      "y": 337,
      "size": 1,
      "price": "1011000000000000000000",
      "reserved": "",
      "salt": "0xe44620761ed48953029b9fbc39b1e3d06756cd0cd987afe111be92de34378bd6",
      "assetIds": []
    },
    {
      "x": 40,
      "y": 338,
      "size": 1,
      "price": "1011000000000000000000",
      "reserved": "",
      "salt": "0xa97c07242ca3e0e7df61d46c7f664f054fa85811be9bb033c7668caeece88349",
      "assetIds": []
    },
    {
      "x": 40,
      "y": 339,
      "size": 1,
      "price": "1011000000000000000000",
      "reserved": "",
      "salt": "0xb8d5f8f82066c330d88396ded1727dee639c69526df9e32b1e4baffd212ab490",
      "assetIds": []
    },
    {
      "x": 40,
      "y": 340,
      "size": 1,
      "price": "1011000000000000000000",
      "reserved": "",
      "salt": "0xc26bf6a366c95c031a631c2b832cc3fc9cbd5d28f75aaf0b20b45559901894fa",
      "assetIds": []
    },
    {
      "x": 40,
      "y": 341,
      "size": 1,
      "price": "1011000000000000000000",
      "reserved": "",
      "salt": "0xe8e89b6b4baebdec7d1435c62872ff6fb8c5a1997d5089a1dd1c2189226a24d4",
      "assetIds": []
    },
    {
      "x": 41,
      "y": 324,
      "size": 1,
      "price": "1011000000000000000000",
      "reserved": "",
      "salt": "0x34e5b817ed2bcfa2df7fab8e1016c0d42beb313749064970ffd1a4de781cac14",
      "assetIds": []
    },
    {
      "x": 41,
      "y": 325,
      "size": 1,
      "price": "1011000000000000000000",
      "reserved": "",
      "salt": "0x8c9cb1cd27125ec73cdbe14169b95fc444c9a6f4dfb5a3515658751131cd47e9",
      "assetIds": []
    },
    {
      "x": 41,
      "y": 326,
      "size": 1,
      "price": "1011000000000000000000",
      "reserved": "",
      "salt": "0xef676cfbcf223861088f26fe305c5696062a35bafb447a4b2684184d91896def",
      "assetIds": []
    },
    {
      "x": 41,
      "y": 327,
      "size": 1,
      "price": "1011000000000000000000",
      "reserved": "",
      "salt": "0x5767d6a73f4b3fc71d5967739c6621f452f05f49818ee051cd7541bc02785648",
      "assetIds": []
    },
    {
      "x": 41,
      "y": 328,
      "size": 1,
      "price": "1011000000000000000000",
      "reserved": "0x7a9fe22691c811ea339d9b73150e6911a5343dca",
      "salt": "0xe54f4df0fec1325024b2108c7d76943c1cfc906f371236c654667c784a9a5e08",
      "assetIds": []
    },
    {
      "x": 41,
      "y": 329,
      "size": 1,
      "price": "1011000000000000000000",
      "reserved": "0x7a9fe22691c811ea339d9b73150e6911a5343dca",
      "salt": "0x08e891a6aac5f8b76ce012c8e6eebf54459f00158ee506bb751ed3f22e2a7d31",
      "assetIds": []
    },
    {
      "x": 41,
      "y": 330,
      "size": 1,
      "price": "1011000000000000000000",
      "reserved": "",
      "salt": "0x2bd1df6cef749a8c4a39a4b46c19b5263502cc53a163af9ebeb7de3447897aa3",
      "assetIds": []
    },
    {
      "x": 41,
      "y": 331,
      "size": 1,
      "price": "1011000000000000000000",
      "reserved": "0x7a9fe22691c811ea339d9b73150e6911a5343dca",
      "salt": "0xe2991f9bc4ccad2249bf5a00b0a99b9ce1478a8229d0051f98947f63455357d9",
      "assetIds": []
    },
    {
      "x": 41,
      "y": 332,
      "size": 1,
      "price": "1011000000000000000000",
      "reserved": "",
      "salt": "0xbb6dc808855073792dccad41a029972b43512cd5fa78cbca5b86e9d462d4277f",
      "assetIds": []
    },
    {
      "x": 41,
      "y": 333,
      "size": 1,
      "price": "1011000000000000000000",
      "reserved": "",
      "salt": "0x3a3d904889d63a34d8028934aabdcea979357c3a9330449330adf1a6f7ed6065",
      "assetIds": []
    },
    {
      "x": 41,
      "y": 334,
      "size": 1,
      "price": "1011000000000000000000",
      "reserved": "",
      "salt": "0xcbd16a4a4aaee0eb66717a82284d8c3c6301ef7ec67c58c1ba0575fafadf35d3",
      "assetIds": []
    },
    {
      "x": 41,
      "y": 335,
      "size": 1,
      "price": "1011000000000000000000",
      "reserved": "",
      "salt": "0xd540c6a6b18050bd9ba612764859b2e96eaa86625635c44384958588267e78b7",
      "assetIds": []
    },
    {
      "x": 41,
      "y": 336,
      "size": 1,
      "price": "1011000000000000000000",
      "reserved": "",
      "salt": "0x2b0a3f1fa59bef00e7212619e54209c5f0c3a35fb42b61f4b9f9a2eef6e4fdd1",
      "assetIds": []
    },
    {
      "x": 41,
      "y": 337,
      "size": 1,
      "price": "1011000000000000000000",
      "reserved": "0x7a9fe22691c811ea339d9b73150e6911a5343dca",
      "salt": "0xe947b008a72a6eb20a51f31c47b860d2267b9121472d23b9734fb1c207449ede",
      "assetIds": []
    },
    {
      "x": 41,
      "y": 338,
      "size": 1,
      "price": "1011000000000000000000",
      "reserved": "0x7a9fe22691c811ea339d9b73150e6911a5343dca",
      "salt": "0xb938f5438f60ee8eba0efc183814358720e55115c141eea55b57911be8b98c06",
      "assetIds": []
    },
    {
      "x": 41,
      "y": 339,
      "size": 1,
      "price": "1011000000000000000000",
      "reserved": "",
      "salt": "0x19ac0e0e2a3b3cba3d6af65db65a106c713c008b5d51634a42039d4692879db3",
      "assetIds": []
    },
    {
      "x": 41,
      "y": 340,
      "size": 1,
      "price": "1011000000000000000000",
      "reserved": "",
      "salt": "0xba454d841fdc398871bf87e8f4325ca59a549a082fecab70ca4230b378f0494f",
      "assetIds": []
    },
    {
      "x": 41,
      "y": 341,
      "size": 1,
      "price": "1011000000000000000000",
      "reserved": "0x7a9fe22691c811ea339d9b73150e6911a5343dca",
      "salt": "0xcc19dd0f6059e9b3d4a5a3b39f1c6594953d176ce53f7bdf0a35d78b67b490db",
      "assetIds": []
    },
    {
      "x": 0,
      "y": 345,
      "size": 3,
      "price": "8648000000000000000000",
      "reserved": "0x7a9fe22691c811ea339d9b73150e6911a5343dca",
      "salt": "0x92ff2b23bd0997edcd9ae1c3016c40c27af1e963d486600b649cd236351c633e",
      "assetIds": []
    },
    {
      "x": 3,
      "y": 348,
      "size": 3,
      "price": "8648000000000000000000",
      "reserved": "0x7a9fe22691c811ea339d9b73150e6911a5343dca",
      "salt": "0x2765019da82a75c8b4edb95ce8e03738054eb0dd21dc3d7818c45e8cdcfe90e1",
      "assetIds": []
    },
    {
      "x": 3,
      "y": 351,
      "size": 3,
      "price": "8648000000000000000000",
      "reserved": "0x7a9fe22691c811ea339d9b73150e6911a5343dca",
      "salt": "0x1fa4d4ef0383d5064d3797487203684655679669386be9ab6edfe3e2c46084e1",
      "assetIds": []
    },
    {
      "x": 6,
      "y": 336,
      "size": 3,
      "price": "8648000000000000000000",
      "reserved": "0x7a9fe22691c811ea339d9b73150e6911a5343dca",
      "salt": "0x7a9ce7fb2d460f912a08d8117f7fee7b569ef6726f89fe3e81ea441a3b7da679",
      "assetIds": []
    },
    {
      "x": 6,
      "y": 339,
      "size": 3,
      "price": "8648000000000000000000",
      "reserved": "0x7a9fe22691c811ea339d9b73150e6911a5343dca",
      "salt": "0x289c12dc347fa5e7daadac0a79ccd34a7e7d0dd78b247a4402d2fa8d0d8eb25c",
      "assetIds": []
    },
    {
      "x": 36,
      "y": 330,
      "size": 3,
      "price": "8648000000000000000000",
      "reserved": "0x7a9fe22691c811ea339d9b73150e6911a5343dca",
      "salt": "0x7207760c106cd9ec79406eb4416d78c93426d4a313571d2bc810ad570c6b625e",
      "assetIds": []
    },
    {
      "x": 12,
      "y": 348,
      "size": 6,
      "price": "32772000000000000000000",
      "reserved": "0x7a9fe22691c811ea339d9b73150e6911a5343dca",
      "salt": "0x37daf8379abf41ac189fe06404513121bb1116faed305d7e3f594ce20113f3f1",
      "assetIds": []
    },
    {
      "x": 24,
      "y": 336,
      "size": 6,
      "price": "32772000000000000000000",
      "reserved": "0x7a9fe22691c811ea339d9b73150e6911a5343dca",
      "salt": "0xba9a547b8ddeebbabbf7ddd52033426e779917f708669d4ef3376d7367f93ba1",
      "assetIds": []
    },
    {
      "x": 30,
      "y": 330,
      "size": 6,
      "price": "32772000000000000000000",
      "reserved": "0x7a9fe22691c811ea339d9b73150e6911a5343dca",
      "salt": "0xaf78478ad32784f8662ac4e2f360124fcdf9880bf2ffa396ac18e80d659983bc",
      "assetIds": []
    },
    {
      "x": 30,
      "y": 336,
      "size": 6,
      "price": "32772000000000000000000",
      "reserved": "0x7a9fe22691c811ea339d9b73150e6911a5343dca",
      "salt": "0x9e185d30cadcddc01977772facd273827a2f4fa503bb7b5ffc137f617ad9f478",
      "assetIds": []
    },
    {
      "x": 12,
      "y": 336,
      "size": 12,
      "price": "123806000000000000000000",
      "reserved": "0x7a9fe22691c811ea339d9b73150e6911a5343dca",
      "salt": "0xb73714b4b1598f55d56f54bd7435365a2491c51e027cf4c0bed6f594efe1d4fc",
      "assetIds": []
    },
    {
      "x": 144,
      "y": 192,
      "size": 12,
      "price": "123806000000000000000000",
      "reserved": "0x7a9fe22691c811ea339d9b73150e6911a5343dca",
      "salt": "0x54616b6350d0c146ec08cb55600aa41ea68b624f4985c44b506fd4f8e6dff3e5",
      "assetIds": []
    }
  ],
  "solcInputHash": "ea3f750ed6a3f377b8756d8b7b11eedf",
  "bytecode": "0x610160604052620d2f006005556103e860075534801561001e57600080fd5b5060405161242e38038061242e833981810160405261018081101561004257600080fd5b50805160208201516040830151606080850151608086015160a08088015160c0808a015160e08b01516101008c01516101208d01516101408e0151610160909e0151600280546001600160a01b0319166001600160a01b03861617905560038390558d8b1b6001600160601b0319908116909852998c901b909616909352999a9899979895979496929590949391926100dc8a600161014a565b600680546001600160a01b03199081166001600160a01b039a8b1617909155610140979097526101209590955260008054909616979096169690961790935550606093841b6001600160601b031990811660e05292841b831660805290921b1661010052506101ae92505050565b6001600160a01b038216600081815260016020908152604091829020805460ff191685151590811790915582519384529083015280517fb21eb88b4e33b3f1281830a7178d74d8aa73220416215726b68ae23d539515cb9281900390910190a15050565b60805160601c60a05160601c60c05160601c60e05160601c6101005160601c61012051610140516121fb610233600039806109375280611d44525080610913528061139a525080611da45250806115d252806116f4525080610c50528061159c5280611dd852508061166152806116c5525080610dfa528061190852506121fb6000f3fe608060405234801561001057600080fd5b50600436106101515760003560e01c8063984d6252116100cd578063dc5074af11610081578063ecb255b511610066578063ecb255b514610857578063f23a6e6114610874578063f2e7b3811461090957610151565b8063dc5074af14610814578063e56f8a9e1461083a57610151565b8063bc197c81116100b2578063bc197c81146105d3578063c10a420814610735578063caed35001461080c57610151565b8063984d6252146104db578063b522ecff146105ad57610151565b80636e9960c3116101245780638a04af6a116101095780638a04af6a1461032a5780638a12b82f146103585780638f283970146104b557610151565b80636e9960c3146102fe57806377f1c3ac1461032257610151565b806325cb5bc014610156578063495906571461017057806358bc29441461017857806365194ce7146101a0575b600080fd5b61015e610911565b60408051918252519081900360200190f35b61015e610935565b61019e6004803603602081101561018e57600080fd5b50356001600160a01b0316610959565b005b610246600480360360208110156101b657600080fd5b8101906020810181356401000000008111156101d157600080fd5b8201836020820111156101e357600080fd5b8035906020019184600183028401116401000000008311171561020557600080fd5b91908080601f016020809104026020016040519081016040528093929190818152602001838380828437600092019190915250929550610a04945050505050565b6040518080602001866001600160a01b03166001600160a01b03168152602001856001600160a01b03166001600160a01b03168152602001848152602001838152602001828103825287818151815260200191508051906020019080838360005b838110156102bf5781810151838201526020016102a7565b50505050905090810190601f1680156102ec5780820380516001836020036101000a031916815260200191505b50965050505050505060405180910390f35b610306610b09565b604080516001600160a01b039092168252519081900360200190f35b61015e610b18565b61019e6004803603604081101561034057600080fd5b506001600160a01b0381351690602001351515610b1e565b61019e600480360361018081101561036f57600080fd5b6001600160a01b038235811692602081013582169260408201359092169160608201359160808101359160a08201359160c08101359160e0820135916101008101359181019061014081016101208201356401000000008111156103d257600080fd5b8201836020820111156103e457600080fd5b8035906020019184602083028401116401000000008311171561040657600080fd5b91939092909160208101903564010000000081111561042457600080fd5b82018360208201111561043657600080fd5b8035906020019184602083028401116401000000008311171561045857600080fd5b91939092909160208101903564010000000081111561047657600080fd5b82018360208201111561048857600080fd5b803590602001918460018302840111640100000000831117156104aa57600080fd5b509092509050610b75565b61019e600480360360208110156104cb57600080fd5b50356001600160a01b0316610cc3565b61019e600480360360608110156104f157600080fd5b6001600160a01b03823516919081019060408101602082013564010000000081111561051c57600080fd5b82018360208201111561052e57600080fd5b8035906020019184602083028401116401000000008311171561055057600080fd5b91939092909160208101903564010000000081111561056e57600080fd5b82018360208201111561058057600080fd5b803590602001918460208302840111640100000000831117156105a257600080fd5b509092509050610d99565b61019e600480360360208110156105c357600080fd5b50356001600160a01b0316610f24565b610700600480360360a08110156105e957600080fd5b6001600160a01b03823581169260208101359091169181019060608101604082013564010000000081111561061d57600080fd5b82018360208201111561062f57600080fd5b8035906020019184602083028401116401000000008311171561065157600080fd5b91939092909160208101903564010000000081111561066f57600080fd5b82018360208201111561068157600080fd5b803590602001918460208302840111640100000000831117156106a357600080fd5b9193909290916020810190356401000000008111156106c157600080fd5b8201836020820111156106d357600080fd5b803590602001918460018302840111640100000000831117156106f557600080fd5b50909250905061100d565b604080517fffffffff000000000000000000000000000000000000000000000000000000009092168252519081900360200190f35b6107f8600480360360a081101561074b57600080fd5b81019060208101813564010000000081111561076657600080fd5b82018360208201111561077857600080fd5b8035906020019184600183028401116401000000008311171561079a57600080fd5b91908080601f016020809104026020016040519081016040528093929190818152602001838380828437600092019190915250929550506001600160a01b03833581169450602084013516926040810135925060600135905061103a565b604080519115158252519081900360200190f35b610306611176565b6107f86004803603602081101561082a57600080fd5b50356001600160a01b0316611185565b61019e6004803603602081101561085057600080fd5b50356111a3565b61019e6004803603602081101561086d57600080fd5b5035611207565b610700600480360360a081101561088a57600080fd5b6001600160a01b03823581169260208101359091169160408201359160608101359181019060a0810160808201356401000000008111156108ca57600080fd5b8201836020820111156108dc57600080fd5b803590602001918460018302840111640100000000831117156108fe57600080fd5b50909250905061126b565b61015e611296565b7f000000000000000000000000000000000000000000000000000000000000000090565b7f000000000000000000000000000000000000000000000000000000000000000090565b6000546001600160a01b031633146109b8576040805162461bcd60e51b815260206004820152601060248201527f53656e646572206e6f742061646d696e00000000000000000000000000000000604482015290519081900360640190fd5b600554600280546001600160a01b03908116600090815260046020526040902042909301909255805473ffffffffffffffffffffffffffffffffffffffff191692909116919091179055565b606060008060008060606000806000808a80602001905160a0811015610a2957600080fd5b8101908080516040519392919084640100000000821115610a4957600080fd5b908301906020820185811115610a5e57600080fd5b8251640100000000811182820188101715610a7857600080fd5b82525081516020918201929091019080838360005b83811015610aa5578181015183820152602001610a8d565b50505050905090810190601f168015610ad25780820380516001836020036101000a031916815260200191505b5060409081526020820151908201516060830151608090930151959f50909d509b5099509197505050505050505091939590929450565b6000546001600160a01b031690565b60035490565b6000546001600160a01b03163314610b675760405162461bcd60e51b815260040180806020018281038252602e815260200180612198602e913960400191505060405180910390fd5b610b71828261129c565b5050565b610b7f898961131e565b610c048f8e8e8e8e8e8d8d8d80806020026020016040519081016040528093929190818152602001838360200280828437600081840152601f19601f820116905080830192505050505050508c8c8080602002602001604051908101604052809392919081815260200183836020028082843760009201919091525061139892505050565b610c458f8984848080601f01602080910402602001604051908101604052809392919081815260200183838082843760009201919091525061157592505050565b610c758f8f8e8e8e8d7f00000000000000000000000000000000000000000000000000000000000000008f6115c6565b610cb28e87878080602002602001604051908101604052809392919081815260200183836020028082843760009201919091525061189192505050565b505050505050505050505050505050565b6000546001600160a01b03163314610d22576040805162461bcd60e51b815260206004820152601b60248201527f6f6e6c792061646d696e2063616e206368616e67652061646d696e0000000000604482015290519081900360640190fd5b600054604080516001600160a01b039283168152918316602083015280517f7e644d79422f17c01e4894b5f4f588d331ebfa28653d42ae832dc59e38c9798f9281900390910190a16000805473ffffffffffffffffffffffffffffffffffffffff19166001600160a01b0392909216919091179055565b6000546001600160a01b03163314610df8576040805162461bcd60e51b815260206004820152600e60248201527f4e4f545f415554484f52495a4544000000000000000000000000000000000000604482015290519081900360640190fd5b7f00000000000000000000000000000000000000000000000000000000000000006001600160a01b0316632eb2c2d63087878787876040518763ffffffff1660e01b815260040180876001600160a01b03166001600160a01b03168152602001866001600160a01b03166001600160a01b031681526020018060200180602001806020018481038452888882818152602001925060200280828437600083820152601f01601f19169091018581038452868152602090810191508790870280828437600081840152601f19601f8201169050808301925050508481038252600081526020016020019950505050505050505050600060405180830381600087803b158015610f0557600080fd5b505af1158015610f19573d6000803e3d6000fd5b505050505050505050565b6001600160a01b038116610f7f576040805162461bcd60e51b815260206004820152600c60248201527f5a45524f5f414444524553530000000000000000000000000000000000000000604482015290519081900360640190fd5b6000546001600160a01b03163314610fde576040805162461bcd60e51b815260206004820152600e60248201527f4e4f545f415554484f52495a4544000000000000000000000000000000000000604482015290519081900360640190fd5b6006805473ffffffffffffffffffffffffffffffffffffffff19166001600160a01b0392909216919091179055565b7fbc197c810000000000000000000000000000000000000000000000000000000098975050505050505050565b600060035482118061105d5750836001600160a01b0316856001600160a01b0316145b8061106757508242115b156110745750600061116d565b60408051606087811b7fffffffffffffffffffffffffffffffffffffffff0000000000000000000000009081166020808501919091529188901b166034830152604882018690526068808301869052835180840390910181526088830184528051908201207f19457468657265756d205369676e6564204d6573736167653a0a33320000000060a884015260c48084018290528451808503909101815260e4909301909352815191012060009061112b9089611a55565b6001600160a01b03811660009081526004602052604090205490915042116111585760019250505061116d565b6002546001600160a01b039081169116149150505b95945050505050565b6002546001600160a01b031690565b6001600160a01b031660009081526001602052604090205460ff1690565b6000546001600160a01b03163314611202576040805162461bcd60e51b815260206004820152601060248201527f53656e646572206e6f742061646d696e00000000000000000000000000000000604482015290519081900360640190fd5b600355565b6000546001600160a01b03163314611266576040805162461bcd60e51b815260206004820152600e60248201527f4e4f545f415554484f52495a4544000000000000000000000000000000000000604482015290519081900360640190fd5b600755565b7ff23a6e61000000000000000000000000000000000000000000000000000000009695505050505050565b60075490565b6001600160a01b03821660008181526001602090815260409182902080547fffffffffffffffffffffffffffffffffffffffffffffffffffffffffffffff001685151590811790915582519384529083015280517fb21eb88b4e33b3f1281830a7178d74d8aa73220416215726b68ae23d539515cb9281900390910190a15050565b6113456103e861133960075485611b2290919063ffffffff16565b9063ffffffff611b9816565b8114610b71576040805162461bcd60e51b815260206004820152600d60248201527f494e56414c49445f505249434500000000000000000000000000000000000000604482015290519081900360640190fd5b7f0000000000000000000000000000000000000000000000000000000000000000421061140c576040805162461bcd60e51b815260206004820152600c60248201527f53414c455f49535f4f5645520000000000000000000000000000000000000000604482015290519081900360640190fd5b6001600160a01b03891633148061143257503360009081526001602052604090205460ff165b611483576040805162461bcd60e51b815260206004820152600e60248201527f4e4f545f415554484f52495a4544000000000000000000000000000000000000604482015290519081900360640190fd5b6001600160a01b03881615806114aa5750886001600160a01b0316886001600160a01b0316145b6114fb576040805162461bcd60e51b815260206004820152600d60248201527f52455345525645445f4c414e4400000000000000000000000000000000000000604482015290519081900360640190fd5b600061150c888888888d8989611bfd565b90506115188282611ca2565b611569576040805162461bcd60e51b815260206004820152600c60248201527f494e56414c49445f4c414e440000000000000000000000000000000000000000604482015290519081900360640190fd5b50505050505050505050565b60006115818484611d6b565b6006549091506115c0908590839085906001600160a01b03167f0000000000000000000000000000000000000000000000000000000000000000611eb8565b50505050565b83600114806115fc57507f00000000000000000000000000000000000000000000000000000000000000006001600160a01b0316155b156116c357604080517f6e1e3bbf0000000000000000000000000000000000000000000000000000000081526001600160a01b03898116600483015260248201879052604482018990526064820188905260a06084830152600060a4830181905292517f000000000000000000000000000000000000000000000000000000000000000090911692636e1e3bbf9260e4808201939182900301818387803b1580156116a657600080fd5b505af11580156116ba573d6000803e3d6000fd5b50505050611827565b7f00000000000000000000000000000000000000000000000000000000000000006001600160a01b0316636e1e3bbf7f00000000000000000000000000000000000000000000000000000000000000008689898c60405160200180826001600160a01b03166001600160a01b031681526020019150506040516020818303038152906040526040518663ffffffff1660e01b815260040180866001600160a01b03166001600160a01b0316815260200185815260200184815260200183815260200180602001828103825283818151815260200191508051906020019080838360005b838110156117be5781810151838201526020016117a6565b50505050905090810190601f1680156117eb5780820380516001836020036101000a031916815260200191505b509650505050505050600060405180830381600087803b15801561180e57600080fd5b505af1158015611822573d6000803e3d6000fd5b505050505b60408051858152602081018590526001600160a01b03848116828401526060820184905291516101988802890192808b1692908c16917fe4dfa6ac11314892f3029b34a25b1a887da3b1cab2bbf8506d87128ba6e3ac029181900360800190a45050505050505050565b6060815167ffffffffffffffff811180156118ab57600080fd5b506040519080825280602002602001820160405280156118d5578160200160208202803683370190505b50905060005b82518110156119055760018282815181106118f257fe5b60209081029190910101526001016118db565b507f00000000000000000000000000000000000000000000000000000000000000006001600160a01b0316632eb2c2d6308585856040518563ffffffff1660e01b815260040180856001600160a01b03166001600160a01b03168152602001846001600160a01b03166001600160a01b03168152602001806020018060200180602001848103845286818151815260200191508051906020019060200280838360005b838110156119c05781810151838201526020016119a8565b50505050905001848103835285818151815260200191508051906020019060200280838360005b838110156119ff5781810151838201526020016119e7565b50505050905001848103825260008152602001602001975050505050505050600060405180830381600087803b158015611a3857600080fd5b505af1158015611a4c573d6000803e3d6000fd5b50505050505050565b60008151604114611a6557600080fd5b60208201516040830151606084015160001a601b811015611a8457601b015b8060ff16601b1480611a9957508060ff16601c145b611aa257600080fd5b6040805160008152602080820180845289905260ff8416828401526060820186905260808201859052915160019260a0808401939192601f1981019281900390910190855afa158015611af9573d6000803e3d6000fd5b5050604051601f1901519450506001600160a01b038416611b1957600080fd5b50505092915050565b600082611b3157506000611b92565b5081810281838281611b3f57fe5b0414611b92576040805162461bcd60e51b815260206004820152600860248201527f6f766572666c6f77000000000000000000000000000000000000000000000000604482015290519081900360640190fd5b92915050565b600081611bec576040805162461bcd60e51b815260206004820152600960248201527f64697662797a65726f0000000000000000000000000000000000000000000000604482015290519081900360640190fd5b818381611bf557fe5b049392505050565b60008787878787878760405160200180888152602001878152602001868152602001858152602001846001600160a01b03166001600160a01b031660601b8152601401838152602001828051906020019060200280838360005b83811015611c6f578181015183820152602001611c57565b50505050905001975050505050505050604051602081830303815290604052805190602001209050979650505050505050565b600081815b8451811015611d41576000858281518110611cbe57fe5b6020026020010151905080831015611d065782816040516020018083815260200182815260200192505050604051602081830303815290604052805190602001209250611d38565b808360405160200180838152602001828152602001925050506040516020818303038152906040528051906020012092505b50600101611ca7565b507f0000000000000000000000000000000000000000000000000000000000000000149392505050565b600080611d84606461133985600563ffffffff611b2216565b604080516323b872dd60e01b81526001600160a01b0387811660048301527f0000000000000000000000000000000000000000000000000000000000000000811660248301526044820184905291519293507f0000000000000000000000000000000000000000000000000000000000000000909116916323b872dd916064808201926020929091908290030181600087803b158015611e2357600080fd5b505af1158015611e37573d6000803e3d6000fd5b505050506040513d6020811015611e4d57600080fd5b5051611ea0576040805162461bcd60e51b815260206004820152601360248201527f4645455f5452414e534645525f4641494c454400000000000000000000000000604482015290519081900360640190fd5b611eb0838263ffffffff61213a16565b949350505050565b82518190859015612062576060600080600080611ed48a610a04565b9398509196509450925090506000611eef868686868661103a565b15611f7d57611f09611f018d84611b22565b612710611b98565b9050886001600160a01b0316846001600160a01b0316866001600160a01b03167fac7a699eb95c3c6d390ec4626de17ef9a67b35891efdb197beba7c7fdd45fac48f858760405180848152602001838152602001828152602001935050505060405180910390a4611f7a878261213a565b96505b801561205b57604080516323b872dd60e01b81526001600160a01b038f811660048301528781166024830152604482018490529151918a16916323b872dd916064808201926020929091908290030181600087803b158015611fde57600080fd5b505af1158015611ff2573d6000803e3d6000fd5b505050506040513d602081101561200857600080fd5b505161205b576040805162461bcd60e51b815260206004820152601960248201527f636f6d6d6973696f6e207472616e73666572206661696c656400000000000000604482015290519081900360640190fd5b5050505050505b604080516323b872dd60e01b81526001600160a01b0389811660048301528681166024830152604482018490529151918416916323b872dd916064808201926020929091908290030181600087803b1580156120bd57600080fd5b505af11580156120d1573d6000803e3d6000fd5b505050506040513d60208110156120e757600080fd5b5051611a4c576040805162461bcd60e51b815260206004820152601760248201527f7061796d656e74207472616e73666572206661696c6564000000000000000000604482015290519081900360640190fd5b600082821115612191576040805162461bcd60e51b815260206004820152600860248201527f756e6465666c6f77000000000000000000000000000000000000000000000000604482015290519081900360640190fd5b5090039056fe6f6e6c792061646d696e2063616e207365747570206d6574615472616e73616374696f6e50726f636573736f7273a26469706673582212200ff38c5741c66b2a22a9a9ee2abe0f55626323082b6b4443921fd3b25484584a64736f6c63430006050033",
  "devdoc": {
    "methods": {
      "buyLandWithSand(address,address,address,uint256,uint256,uint256,uint256,uint256,bytes32,uint256[],bytes32[],bytes)": {
        "params": {
          "buyer": "address that perform the payment",
          "priceInSand": "price in SAND to purchase that Land",
          "proof": "merkleProof for that particular Land",
          "reserved": "the reserved address (if any)",
          "size": "size of the pack of Land to purchase",
          "to": "address that will own the purchased Land",
          "x": "x coordinate of the Land",
          "y": "y coordinate of the Land"
        }
      },
      "changeAdmin(address)": {
        "details": "change the administrator to be `newAdmin`.",
        "params": {
          "newAdmin": "address of the new administrator."
        }
      },
      "getAdmin()": {
        "details": "gives the current administrator of this contract.",
        "returns": {
          "_0": "the current administrator of this contract."
        }
      },
      "getSigningWallet()": {
        "details": "signing wallet authorized for referral",
        "returns": {
          "_0": "the address of the signing wallet"
        }
      },
      "isMetaTransactionProcessor(address)": {
        "details": "check whether address `who` is given meta-transaction execution rights.",
        "params": {
          "who": "The address to query."
        },
        "returns": {
          "_0": "whether the address has meta-transaction execution rights."
        }
      },
      "isReferralValid(bytes,address,address,uint256,uint256)": {
        "params": {
          "commissionRate": "The commissionRate of the referral",
          "expiryTime": "The expiry time of the referral",
          "referee": "The address of the referee",
          "referrer": "The address of the referrer",
          "signature": "The signature to check (signed referral)"
        },
        "returns": {
          "_0": "True if the referral is valid"
        }
      },
      "setMetaTransactionProcessor(address,bool)": {
        "details": "Enable or disable the ability of `metaTransactionProcessor` to perform meta-tx (metaTransactionProcessor rights).",
        "params": {
          "enabled": "set whether the metaTransactionProcessor is enabled or disabled.",
          "metaTransactionProcessor": "address that will be given/removed metaTransactionProcessor rights."
        }
      },
      "setReceivingWallet(address)": {
        "params": {
          "newWallet": "address of the new receiving wallet"
        }
      },
      "updateMaxCommissionRate(uint256)": {
        "details": "Update the maximum commission rate",
        "params": {
          "newMaxCommissionRate": "The new maximum commission rate"
        }
      },
      "updateSigningWallet(address)": {
        "details": "Update the signing wallet",
        "params": {
          "newSigningWallet": "The new address of the signing wallet"
        }
      },
      "withdrawAssets(address,uint256[],uint256[])": {
        "params": {
          "assetIds": "the assetIds to be transferred",
          "to": "intended recipient of the asset tokens",
          "values": "the quantities of the assetIds to be transferred"
        }
      }
    },
    "title": "Estate Sale contract with referral"
  },
  "userdoc": {
    "methods": {
      "buyLandWithSand(address,address,address,uint256,uint256,uint256,uint256,uint256,bytes32,uint256[],bytes32[],bytes)": {
        "notice": "buy Land with SAND using the merkle proof associated with it"
      },
      "getExpiryTime()": {
        "notice": "Gets the expiry time for the current sale"
      },
      "getMaxCommisionRate()": {
        "notice": "the max commision rate"
      },
      "getMerkleRoot()": {
        "notice": "Gets the Merkle root associated with the current sale"
      },
      "isReferralValid(bytes,address,address,uint256,uint256)": {
        "notice": "Check if a referral is valid"
      },
      "setReceivingWallet(address)": {
        "notice": "set the wallet receiving the proceeds"
      },
      "withdrawAssets(address,uint256[],uint256[])": {
        "notice": "enable Admin to withdraw remaining assets from EstateSaleWithFee contract"
      }
    },
    "notice": "This contract manages the sale of our lands as Estates"
  },
  "storageLayout": {
    "storage": [
      {
        "astId": 13640,
        "contract": "src/solc_0.6/EstateSale/EstateSaleWithFee.sol:EstateSaleWithFee",
        "label": "_admin",
        "offset": 0,
        "slot": "0",
        "type": "t_address"
      },
      {
        "astId": 13702,
        "contract": "src/solc_0.6/EstateSale/EstateSaleWithFee.sol:EstateSaleWithFee",
        "label": "_metaTransactionContracts",
        "offset": 0,
        "slot": "1",
        "type": "t_mapping(t_address,t_bool)"
      },
      {
        "astId": 11818,
        "contract": "src/solc_0.6/EstateSale/EstateSaleWithFee.sol:EstateSaleWithFee",
        "label": "_signingWallet",
        "offset": 0,
        "slot": "2",
        "type": "t_address"
      },
      {
        "astId": 11820,
        "contract": "src/solc_0.6/EstateSale/EstateSaleWithFee.sol:EstateSaleWithFee",
        "label": "_maxCommissionRate",
        "offset": 0,
        "slot": "3",
        "type": "t_uint256"
      },
      {
        "astId": 11824,
        "contract": "src/solc_0.6/EstateSale/EstateSaleWithFee.sol:EstateSaleWithFee",
        "label": "_previousSigningWallets",
        "offset": 0,
        "slot": "4",
        "type": "t_mapping(t_address,t_uint256)"
      },
      {
        "astId": 11833,
        "contract": "src/solc_0.6/EstateSale/EstateSaleWithFee.sol:EstateSaleWithFee",
        "label": "_previousSigningDelay",
        "offset": 0,
        "slot": "5",
        "type": "t_uint256"
      },
      {
        "astId": 8205,
        "contract": "src/solc_0.6/EstateSale/EstateSaleWithFee.sol:EstateSaleWithFee",
        "label": "_wallet",
        "offset": 0,
        "slot": "6",
        "type": "t_address_payable"
      },
      {
        "astId": 8215,
        "contract": "src/solc_0.6/EstateSale/EstateSaleWithFee.sol:EstateSaleWithFee",
        "label": "_multiplier",
        "offset": 0,
        "slot": "7",
        "type": "t_uint256"
      }
    ],
    "types": {
      "t_address": {
        "encoding": "inplace",
        "label": "address",
        "numberOfBytes": "20"
      },
      "t_address_payable": {
        "encoding": "inplace",
        "label": "address payable",
        "numberOfBytes": "20"
      },
      "t_bool": {
        "encoding": "inplace",
        "label": "bool",
        "numberOfBytes": "1"
      },
      "t_mapping(t_address,t_bool)": {
        "encoding": "mapping",
        "key": "t_address",
        "label": "mapping(address => bool)",
        "numberOfBytes": "32",
        "value": "t_bool"
      },
      "t_mapping(t_address,t_uint256)": {
        "encoding": "mapping",
        "key": "t_address",
        "label": "mapping(address => uint256)",
        "numberOfBytes": "32",
        "value": "t_uint256"
      },
      "t_uint256": {
        "encoding": "inplace",
        "label": "uint256",
        "numberOfBytes": "32"
      }
    }
  }
}