{
  "address": "0x005124ac20cc32D6AD097E375AbF3b0D0CD7d69c",
  "abi": [
    {
      "inputs": [
        {
          "internalType": "address",
          "name": "landAddress",
          "type": "address"
        },
        {
          "internalType": "address",
          "name": "sandContractAddress",
          "type": "address"
        },
        {
          "internalType": "address",
          "name": "initialMetaTx",
          "type": "address"
        },
        {
          "internalType": "address",
          "name": "admin",
          "type": "address"
        },
        {
          "internalType": "address payable",
          "name": "initialWalletAddress",
          "type": "address"
        },
        {
          "internalType": "bytes32",
          "name": "merkleRoot",
          "type": "bytes32"
        },
        {
          "internalType": "uint256",
          "name": "expiryTime",
          "type": "uint256"
        },
        {
          "internalType": "address",
          "name": "initialSigningWallet",
          "type": "address"
        },
        {
          "internalType": "uint256",
          "name": "initialMaxCommissionRate",
          "type": "uint256"
        },
        {
          "internalType": "address",
          "name": "estate",
          "type": "address"
        },
        {
          "internalType": "address",
          "name": "asset",
          "type": "address"
        },
        {
          "internalType": "address",
          "name": "feeDistributor",
          "type": "address"
        },
        {
          "internalType": "address",
          "name": "authValidator",
          "type": "address"
        }
      ],
      "stateMutability": "nonpayable",
      "type": "constructor"
    },
    {
      "anonymous": false,
      "inputs": [
        {
          "indexed": false,
          "internalType": "address",
          "name": "oldAdmin",
          "type": "address"
        },
        {
          "indexed": false,
          "internalType": "address",
          "name": "newAdmin",
          "type": "address"
        }
      ],
      "name": "AdminChanged",
      "type": "event"
    },
    {
      "anonymous": false,
      "inputs": [
        {
          "indexed": true,
          "internalType": "address",
          "name": "buyer",
          "type": "address"
        },
        {
          "indexed": true,
          "internalType": "address",
          "name": "to",
          "type": "address"
        },
        {
          "indexed": true,
          "internalType": "uint256",
          "name": "topCornerId",
          "type": "uint256"
        },
        {
          "indexed": false,
          "internalType": "uint256",
          "name": "size",
          "type": "uint256"
        },
        {
          "indexed": false,
          "internalType": "uint256",
          "name": "price",
          "type": "uint256"
        },
        {
          "indexed": false,
          "internalType": "address",
          "name": "token",
          "type": "address"
        },
        {
          "indexed": false,
          "internalType": "uint256",
          "name": "amountPaid",
          "type": "uint256"
        }
      ],
      "name": "LandQuadPurchased",
      "type": "event"
    },
    {
      "anonymous": false,
      "inputs": [
        {
          "indexed": false,
          "internalType": "address",
          "name": "metaTransactionProcessor",
          "type": "address"
        },
        {
          "indexed": false,
          "internalType": "bool",
          "name": "enabled",
          "type": "bool"
        }
      ],
      "name": "MetaTransactionProcessor",
      "type": "event"
    },
    {
      "anonymous": false,
      "inputs": [
        {
          "indexed": true,
          "internalType": "address",
          "name": "referrer",
          "type": "address"
        },
        {
          "indexed": true,
          "internalType": "address",
          "name": "referee",
          "type": "address"
        },
        {
          "indexed": true,
          "internalType": "address",
          "name": "token",
          "type": "address"
        },
        {
          "indexed": false,
          "internalType": "uint256",
          "name": "amount",
          "type": "uint256"
        },
        {
          "indexed": false,
          "internalType": "uint256",
          "name": "commission",
          "type": "uint256"
        },
        {
          "indexed": false,
          "internalType": "uint256",
          "name": "commissionRate",
          "type": "uint256"
        }
      ],
      "name": "ReferralUsed",
      "type": "event"
    },
    {
      "inputs": [
        {
          "internalType": "address",
          "name": "buyer",
          "type": "address"
        },
        {
          "internalType": "address",
          "name": "to",
          "type": "address"
        },
        {
          "internalType": "address",
          "name": "reserved",
          "type": "address"
        },
        {
          "internalType": "uint256[]",
          "name": "info",
          "type": "uint256[]"
        },
        {
          "internalType": "bytes32",
          "name": "salt",
          "type": "bytes32"
        },
        {
          "internalType": "uint256[]",
          "name": "assetIds",
          "type": "uint256[]"
        },
        {
          "internalType": "bytes32[]",
          "name": "proof",
          "type": "bytes32[]"
        },
        {
          "internalType": "bytes",
          "name": "referral",
          "type": "bytes"
        },
        {
          "internalType": "bytes",
          "name": "signature",
          "type": "bytes"
        }
      ],
      "name": "buyLandWithSand",
      "outputs": [],
      "stateMutability": "nonpayable",
      "type": "function"
    },
    {
      "inputs": [
        {
          "internalType": "address",
          "name": "newAdmin",
          "type": "address"
        }
      ],
      "name": "changeAdmin",
      "outputs": [],
      "stateMutability": "nonpayable",
      "type": "function"
    },
    {
      "inputs": [
        {
          "internalType": "bytes",
          "name": "referral",
          "type": "bytes"
        }
      ],
      "name": "decodeReferral",
      "outputs": [
        {
          "internalType": "bytes",
          "name": "",
          "type": "bytes"
        },
        {
          "internalType": "address",
          "name": "",
          "type": "address"
        },
        {
          "internalType": "address",
          "name": "",
          "type": "address"
        },
        {
          "internalType": "uint256",
          "name": "",
          "type": "uint256"
        },
        {
          "internalType": "uint256",
          "name": "",
          "type": "uint256"
        }
      ],
      "stateMutability": "pure",
      "type": "function"
    },
    {
      "inputs": [],
      "name": "getAdmin",
      "outputs": [
        {
          "internalType": "address",
          "name": "",
          "type": "address"
        }
      ],
      "stateMutability": "view",
      "type": "function"
    },
    {
      "inputs": [],
      "name": "getExpiryTime",
      "outputs": [
        {
          "internalType": "uint256",
          "name": "",
          "type": "uint256"
        }
      ],
      "stateMutability": "view",
      "type": "function"
    },
    {
      "inputs": [],
      "name": "getMaxCommisionRate",
      "outputs": [
        {
          "internalType": "uint256",
          "name": "",
          "type": "uint256"
        }
      ],
      "stateMutability": "view",
      "type": "function"
    },
    {
      "inputs": [],
      "name": "getMerkleRoot",
      "outputs": [
        {
          "internalType": "bytes32",
          "name": "",
          "type": "bytes32"
        }
      ],
      "stateMutability": "view",
      "type": "function"
    },
    {
      "inputs": [],
      "name": "getSigningWallet",
      "outputs": [
        {
          "internalType": "address",
          "name": "",
          "type": "address"
        }
      ],
      "stateMutability": "view",
      "type": "function"
    },
    {
      "inputs": [
        {
          "internalType": "address",
          "name": "who",
          "type": "address"
        }
      ],
      "name": "isMetaTransactionProcessor",
      "outputs": [
        {
          "internalType": "bool",
          "name": "",
          "type": "bool"
        }
      ],
      "stateMutability": "view",
      "type": "function"
    },
    {
      "inputs": [
        {
          "internalType": "bytes",
          "name": "signature",
          "type": "bytes"
        },
        {
          "internalType": "address",
          "name": "referrer",
          "type": "address"
        },
        {
          "internalType": "address",
          "name": "referee",
          "type": "address"
        },
        {
          "internalType": "uint256",
          "name": "expiryTime",
          "type": "uint256"
        },
        {
          "internalType": "uint256",
          "name": "commissionRate",
          "type": "uint256"
        }
      ],
      "name": "isReferralValid",
      "outputs": [
        {
          "internalType": "bool",
          "name": "",
          "type": "bool"
        }
      ],
      "stateMutability": "view",
      "type": "function"
    },
    {
      "inputs": [
        {
          "internalType": "address",
          "name": "",
          "type": "address"
        },
        {
          "internalType": "address",
          "name": "",
          "type": "address"
        },
        {
          "internalType": "uint256[]",
          "name": "",
          "type": "uint256[]"
        },
        {
          "internalType": "uint256[]",
          "name": "",
          "type": "uint256[]"
        },
        {
          "internalType": "bytes",
          "name": "",
          "type": "bytes"
        }
      ],
      "name": "onERC1155BatchReceived",
      "outputs": [
        {
          "internalType": "bytes4",
          "name": "",
          "type": "bytes4"
        }
      ],
      "stateMutability": "pure",
      "type": "function"
    },
    {
      "inputs": [
        {
          "internalType": "address",
          "name": "",
          "type": "address"
        },
        {
          "internalType": "address",
          "name": "",
          "type": "address"
        },
        {
          "internalType": "uint256",
          "name": "",
          "type": "uint256"
        },
        {
          "internalType": "uint256",
          "name": "",
          "type": "uint256"
        },
        {
          "internalType": "bytes",
          "name": "",
          "type": "bytes"
        }
      ],
      "name": "onERC1155Received",
      "outputs": [
        {
          "internalType": "bytes4",
          "name": "",
          "type": "bytes4"
        }
      ],
      "stateMutability": "pure",
      "type": "function"
    },
    {
      "inputs": [
        {
          "internalType": "address",
          "name": "metaTransactionProcessor",
          "type": "address"
        },
        {
          "internalType": "bool",
          "name": "enabled",
          "type": "bool"
        }
      ],
      "name": "setMetaTransactionProcessor",
      "outputs": [],
      "stateMutability": "nonpayable",
      "type": "function"
    },
    {
      "inputs": [
        {
          "internalType": "address payable",
          "name": "newWallet",
          "type": "address"
        }
      ],
      "name": "setReceivingWallet",
      "outputs": [],
      "stateMutability": "nonpayable",
      "type": "function"
    },
    {
      "inputs": [
        {
          "internalType": "uint256",
          "name": "newMaxCommissionRate",
          "type": "uint256"
        }
      ],
      "name": "updateMaxCommissionRate",
      "outputs": [],
      "stateMutability": "nonpayable",
      "type": "function"
    },
    {
      "inputs": [
        {
          "internalType": "address",
          "name": "newSigningWallet",
          "type": "address"
        }
      ],
      "name": "updateSigningWallet",
      "outputs": [],
      "stateMutability": "nonpayable",
      "type": "function"
    },
    {
      "inputs": [
        {
          "internalType": "address",
          "name": "to",
          "type": "address"
        },
        {
          "internalType": "uint256[]",
          "name": "assetIds",
          "type": "uint256[]"
        },
        {
          "internalType": "uint256[]",
          "name": "values",
          "type": "uint256[]"
        }
      ],
      "name": "withdrawAssets",
      "outputs": [],
      "stateMutability": "nonpayable",
      "type": "function"
    }
  ],
  "transactionHash": "0x46a2d79621605d5a5ff71be34690486490d4bbd127f97468fdf0ba85dc40ef3f",
  "args": [
    "0x2FA5E1c6a9a95d6d59045209a3588FF26adBad87",
    "0xCc933a862fc15379E441F2A16Cb943D385a4695f",
    "0xCc933a862fc15379E441F2A16Cb943D385a4695f",
    "0xa4519D601F43D0b8f167842a367465681F652252",
    "0x60927eB036621b801491B6c5e9A60A8d2dEeD75A",
    "0xb22a31f0116b423b8242b4f36f9bb74df5dde5d3f35c8f144c99ec820b532c9c",
    1678453200,
    "0xB7060D3FeCAC3AE1F0A0AA416E3e8E472257950e",
    2000,
    "0x0000000000000000000000000000000000000000",
    "0x8055a2c0f7EB177BeaB357B70E6504402d2b5fF6",
    "0x5983532A5b9009E05428595b87F19e42068a232B",
    "0x94cA164E3d7B13700eC356a1540f7Ae7c239A2b3"
  ],
  "linkedData": [
    {
      "x": 192,
      "y": 81,
      "size": 1,
      "price": "1011000000000000000000",
      "reserved": "",
      "salt": "0x4c169448c8badbed3cf1bafe09695461e3dec561ff4503c33a72a2ed8dedc2b6",
      "assetIds": []
    },
    {
      "x": 192,
      "y": 82,
      "size": 1,
      "price": "1011000000000000000000",
      "reserved": "",
      "salt": "0xf103a12ce26341cb0197062a1a490861a70b8b5fb7f59f5ac21fadcdf96a6123",
      "assetIds": []
    },
    {
      "x": 192,
      "y": 83,
      "size": 1,
      "price": "1011000000000000000000",
      "reserved": "",
      "salt": "0xda8c408f0ea275e4f650adc48d63497e6f8019bb02761933d69ea966e87c8e1b",
      "assetIds": []
    },
    {
      "x": 192,
      "y": 84,
      "size": 1,
      "price": "1011000000000000000000",
      "reserved": "",
      "salt": "0x22fca167e2137c3400d0583c23a6ee93debda106c6353c684fa8b72c8c1e8430",
      "assetIds": []
    },
    {
      "x": 192,
      "y": 85,
      "size": 1,
      "price": "1011000000000000000000",
      "reserved": "",
      "salt": "0x122a4c839a9627f197247f9b97ec727e797cc694a7dcc326bc511f5b6a4dea1e",
      "assetIds": []
    },
    {
      "x": 192,
      "y": 86,
      "size": 1,
      "price": "1011000000000000000000",
      "reserved": "",
      "salt": "0xef5acfa1677e9be294151c840fb2b94fc2c1c35fa82fb85ca704f1c3bd3aab35",
      "assetIds": []
    },
    {
      "x": 193,
      "y": 81,
      "size": 1,
      "price": "1011000000000000000000",
      "reserved": "",
      "salt": "0x5cf4f880057ae0435d77d446474a6210c54da8df83df0b05f742a1295e196ab2",
      "assetIds": []
    },
    {
      "x": 193,
      "y": 82,
      "size": 1,
      "price": "1011000000000000000000",
      "reserved": "",
      "salt": "0x256a03f36eca4a62d8dfdafde3515bbd9a6d319ccd300b65d4308547571ebb04",
      "assetIds": []
    },
    {
      "x": 193,
      "y": 83,
      "size": 1,
      "price": "1011000000000000000000",
      "reserved": "",
      "salt": "0x4b50fcefcebbeeaa4717eae2ac157a220af08497ed435bf74815e53a799ec11c",
      "assetIds": []
    },
    {
      "x": 193,
      "y": 84,
      "size": 1,
      "price": "1011000000000000000000",
      "reserved": "",
      "salt": "0xd1e6b1d4eb71ccde3e54d78684483a22db5355f2ba34a81056ac2389d8ffbbf3",
      "assetIds": []
    },
    {
      "x": 193,
      "y": 85,
      "size": 1,
      "price": "1011000000000000000000",
      "reserved": "",
      "salt": "0xdaeb1cd1d10eb0d47c17e0a00a50fe200bd7fad7e8b68652994bb670cee9a0ac",
      "assetIds": []
    },
    {
      "x": 193,
      "y": 86,
      "size": 1,
      "price": "1011000000000000000000",
      "reserved": "",
      "salt": "0x82ae67b70eae8aa4ee6703f0e8d4747b4de23277323279e9ccffbce3397d4327",
      "assetIds": []
    },
    {
      "x": 194,
      "y": 81,
      "size": 1,
      "price": "1011000000000000000000",
      "reserved": "",
      "salt": "0x6055b6f0af04c94ca9e472982942f3492e7a3fc808eff18862d301660786e4f1",
      "assetIds": []
    },
    {
      "x": 194,
      "y": 82,
      "size": 1,
      "price": "1011000000000000000000",
      "reserved": "",
      "salt": "0xa607c63540577e2f360da5187a3063f29c123db457e6d8ce88b76794b9c53a13",
      "assetIds": []
    },
    {
      "x": 194,
      "y": 83,
      "size": 1,
      "price": "1011000000000000000000",
      "reserved": "",
      "salt": "0x0811d372a0bd0bd419b998dd68333b3d75a75971829b1df34d9f455ea1e0a018",
      "assetIds": []
    },
    {
      "x": 194,
      "y": 84,
      "size": 1,
      "price": "1011000000000000000000",
      "reserved": "",
      "salt": "0x660868a35c4ceb64969299419048df2369d46039113df21d3a015967ba595516",
      "assetIds": []
    },
    {
      "x": 194,
      "y": 85,
      "size": 1,
      "price": "1011000000000000000000",
      "reserved": "",
      "salt": "0xe88bdefb94c02d7e2f8eab9b10bbbb9afb19f4eb84ba687f39d5564aacfe706a",
      "assetIds": []
    },
    {
      "x": 194,
      "y": 86,
      "size": 1,
      "price": "1011000000000000000000",
      "reserved": "",
      "salt": "0xece330fb2b3a949167082c1401861839b2988b155e1c4e36e624ffdac25ae606",
      "assetIds": []
    },
    {
      "x": 195,
      "y": 78,
      "size": 1,
      "price": "1011000000000000000000",
      "reserved": "",
      "salt": "0xaf8856bc772492bb5d82a3f747d9e5caec8f0d43847e24dbfd5b71e4e3baf328",
      "assetIds": []
    },
    {
      "x": 195,
      "y": 79,
      "size": 1,
      "price": "1011000000000000000000",
      "reserved": "",
      "salt": "0x7d36dae4ba53d277901befa5ee1d8d7703b53f02063bb2068c4037c57e175cc1",
      "assetIds": []
    },
    {
      "x": 195,
      "y": 80,
      "size": 1,
      "price": "1011000000000000000000",
      "reserved": "",
      "salt": "0xf6ad99e25eb4eb498016217d1affaec5a6a1976c4615aebd5d42f168fe9b4739",
      "assetIds": []
    },
    {
      "x": 195,
      "y": 81,
      "size": 1,
      "price": "1011000000000000000000",
      "reserved": "",
      "salt": "0xde130f76c32a9c42737cc33beb704729253020ba234c84299d30661aaa6b8b2b",
      "assetIds": []
    },
    {
      "x": 195,
      "y": 82,
      "size": 1,
      "price": "1011000000000000000000",
      "reserved": "",
      "salt": "0xbac1c110584907d229141adc2cc55e56d55f74614afdc63b162561dc9765ccdc",
      "assetIds": []
    },
    {
      "x": 195,
      "y": 83,
      "size": 1,
      "price": "1011000000000000000000",
      "reserved": "",
      "salt": "0x7a509bb61f0b5cd8c7282cfffbaf34803cd66d2e0412aae1e954af1b765a444d",
      "assetIds": []
    },
    {
      "x": 195,
      "y": 87,
      "size": 1,
      "price": "1011000000000000000000",
      "reserved": "",
      "salt": "0x60c254da3fdc70675698829c58cf02aad6a0758ce408863e65f4056c6b175e36",
      "assetIds": []
    },
    {
      "x": 195,
      "y": 88,
      "size": 1,
      "price": "1011000000000000000000",
      "reserved": "",
      "salt": "0x56a31322985e5852e5079b2cbb178b7ed0a71f5b38a298fd818ae127744b1d70",
      "assetIds": []
    },
    {
      "x": 195,
      "y": 89,
      "size": 1,
      "price": "1011000000000000000000",
      "reserved": "",
      "salt": "0xe6c4ed084758e464478db9579e4c1722ffa88e72c5dc96d2e05be3c7f096d062",
      "assetIds": []
    },
    {
      "x": 195,
      "y": 90,
      "size": 1,
      "price": "1011000000000000000000",
      "reserved": "",
      "salt": "0x501956ef59deb32b291686ef173eb59ff46a95d423a072bd416523f84246e25d",
      "assetIds": []
    },
    {
      "x": 195,
      "y": 91,
      "size": 1,
      "price": "1011000000000000000000",
      "reserved": "",
      "salt": "0xed197d40fddee098d9b5a15c5173e95115e339a97e9ac981c2d8feef9a8fae2b",
      "assetIds": []
    },
    {
      "x": 195,
      "y": 92,
      "size": 1,
      "price": "1011000000000000000000",
      "reserved": "",
      "salt": "0x4136b2830ad114933d897de3fcade8b500dbeb7259119e4e584990bb541b7426",
      "assetIds": []
    },
    {
      "x": 195,
      "y": 93,
      "size": 1,
      "price": "1011000000000000000000",
      "reserved": "",
      "salt": "0x1bebbc5098f9afe6b64a6c6b036a1fbfb8b4e8872fcdccfae6e6bb4b3dc836f5",
      "assetIds": []
    },
    {
      "x": 195,
      "y": 94,
      "size": 1,
      "price": "1011000000000000000000",
      "reserved": "",
      "salt": "0x7fe1822695f691e35e46665ef9f043ea075158b2c8a2cc615176b518f4a05d0a",
      "assetIds": []
    },
    {
      "x": 195,
      "y": 95,
      "size": 1,
      "price": "1011000000000000000000",
      "reserved": "",
      "salt": "0x4c0d9f31863c9ed2790f5a6eb1b9985a703d8b73e15644f810bfad256cf638c0",
      "assetIds": []
    },
    {
      "x": 195,
      "y": 96,
      "size": 1,
      "price": "1011000000000000000000",
      "reserved": "",
      "salt": "0x5c0eb36f7bcc38ebf0cd73cc7bbfb0c215bc48270eb244850a7e8746ba34afe1",
      "assetIds": []
    },
    {
      "x": 195,
      "y": 97,
      "size": 1,
      "price": "1011000000000000000000",
      "reserved": "",
      "salt": "0xc0803cbc371af58fd87d0f78a5cd16e09c922a0f478e363051b6358a008f9589",
      "assetIds": []
    },
    {
      "x": 195,
      "y": 98,
      "size": 1,
      "price": "1011000000000000000000",
      "reserved": "",
      "salt": "0xe97a6508ba50744343304d8df8fce367e992f5230535996b99872d34089f29f8",
      "assetIds": []
    },
    {
      "x": 195,
      "y": 99,
      "size": 1,
      "price": "1011000000000000000000",
      "reserved": "",
      "salt": "0x6708ea8e77aa0b7dd709f80c8fad6f20c727ae4b821987edec7f2c0481195fa8",
      "assetIds": []
    },
    {
      "x": 195,
      "y": 100,
      "size": 1,
      "price": "1011000000000000000000",
      "reserved": "",
      "salt": "0x376e5e7ef18517f846e54af981cd252ce2e0190a9b3601b413df29e7a6330ef1",
      "assetIds": []
    },
    {
      "x": 195,
      "y": 101,
      "size": 1,
      "price": "1011000000000000000000",
      "reserved": "",
      "salt": "0x1f43c93104cb2a91740bc6fafe4ba95f7a5d7a8b65c1ba3a13b18deb4c222687",
      "assetIds": []
    },
    {
      "x": 196,
      "y": 78,
      "size": 1,
      "price": "1011000000000000000000",
      "reserved": "",
      "salt": "0x67107b1a675dc143e0e834920d472a17613833cc433072a764093957c0f0e923",
      "assetIds": []
    },
    {
      "x": 196,
      "y": 79,
      "size": 1,
      "price": "4683000000000000000000",
      "reserved": "",
      "salt": "0x1c4b18b6ca19b9fa6dcb9ee89ec3e7f42060263bccced35769f015ba1eaf5205",
      "assetIds": [
        "41506478881403507969696680653240014914910929820314476107906210059990541021185"
      ]
    },
    {
      "x": 196,
      "y": 80,
      "size": 1,
      "price": "4683000000000000000000",
      "reserved": "",
      "salt": "0x5e507777ce58a91294e48aebc0926a2e375a46907b2266c21af9f6d632d2b307",
      "assetIds": [
        "41506478881403507969696680653240014914910929820314476107906210059990541021185"
      ]
    },
    {
      "x": 196,
      "y": 81,
      "size": 1,
      "price": "4683000000000000000000",
      "reserved": "",
      "salt": "0xddb479362d4ad504f35d87899c421625cd4d9368e3afd71d2e221183b4c6f0fc",
      "assetIds": [
        "41506478881403507969696680653240014914910929820314476107906210059990541021185"
      ]
    },
    {
      "x": 196,
      "y": 82,
      "size": 1,
      "price": "4683000000000000000000",
      "reserved": "",
      "salt": "0x2813f25e39a240f31998550c0c70ebbdbce4c640288dad3724d9d575e6208ce5",
      "assetIds": [
        "41506478881403507969696680653240014914910929820314476107906210059990541021185"
      ]
    },
    {
      "x": 196,
      "y": 83,
      "size": 1,
      "price": "1011000000000000000000",
      "reserved": "",
      "salt": "0x59da737e632a163eaf358af93562867bba2a9bc0b46e27c156fbdff21edbc602",
      "assetIds": []
    },
    {
      "x": 196,
      "y": 87,
      "size": 1,
      "price": "1011000000000000000000",
      "reserved": "",
      "salt": "0xfa214305931d92f54b5997eeb247a610e56c03eb87691d3791f81414f6719149",
      "assetIds": []
    },
    {
      "x": 196,
      "y": 88,
      "size": 1,
      "price": "1011000000000000000000",
      "reserved": "",
      "salt": "0x4770b9ca14b152a467814766b77a5e9ca51bbcc99b6f7bf0c83c2d25bd53f8eb",
      "assetIds": []
    },
    {
      "x": 196,
      "y": 89,
      "size": 1,
      "price": "1011000000000000000000",
      "reserved": "",
      "salt": "0x8c61e8f9f2347aab9993b43d594993d025df159ceccacdd68a65c3d768fb0ae3",
      "assetIds": []
    },
    {
      "x": 196,
      "y": 90,
      "size": 1,
      "price": "1011000000000000000000",
      "reserved": "",
      "salt": "0x143682935e0c64ae73e7a2322af6c1bddf789eb8cba132aab5b2008020ce6d43",
      "assetIds": []
    },
    {
      "x": 196,
      "y": 91,
      "size": 1,
      "price": "4683000000000000000000",
      "reserved": "",
      "salt": "0x7dd8bc06d16b5af717b3eb72179e6d856fa354f5be0ca6799bbeb31094eae614",
      "assetIds": [
        "41506478881403507969696680653240014914910929820314476107906210059990541021185"
      ]
    },
    {
      "x": 196,
      "y": 92,
      "size": 1,
      "price": "4683000000000000000000",
      "reserved": "",
      "salt": "0xe47cd5a587fb74b0938758cee4158bfbc6d79259ed5d036798de8298d7a306c6",
      "assetIds": [
        "41506478881403507969696680653240014914910929820314476107906210059990541021185"
      ]
    },
    {
      "x": 196,
      "y": 93,
      "size": 1,
      "price": "4683000000000000000000",
      "reserved": "",
      "salt": "0x6f1dd75071f2389c693c73262f7a7b246c614ec0a8d3db94548f7d27ad10eac1",
      "assetIds": [
        "41506478881403507969696680653240014914910929820314476107906210059990541021185"
      ]
    },
    {
      "x": 196,
      "y": 94,
      "size": 1,
      "price": "4683000000000000000000",
      "reserved": "",
      "salt": "0xa9502a1d0dcee45c579c86709c870689e56fd7d3f08a1e7bf167eb1c3e521d6d",
      "assetIds": [
        "41506478881403507969696680653240014914910929820314476107906210059990541021185"
      ]
    },
    {
      "x": 196,
      "y": 95,
      "size": 1,
      "price": "1011000000000000000000",
      "reserved": "",
      "salt": "0x593b61aad1ad30fc2b5227d4d7cfd3394328378fe6e0daaebac10039d0aaeb48",
      "assetIds": []
    },
    {
      "x": 196,
      "y": 96,
      "size": 1,
      "price": "1011000000000000000000",
      "reserved": "",
      "salt": "0x93d9af27359fc2df039c1190112c2a8ae829b2f5196e587fc40d0c45aaed0e98",
      "assetIds": []
    },
    {
      "x": 196,
      "y": 97,
      "size": 1,
      "price": "1011000000000000000000",
      "reserved": "",
      "salt": "0x8b31d3d5966863af898f0b475d8e71687c04189b1b946da1df74c44bfdb312d7",
      "assetIds": []
    },
    {
      "x": 196,
      "y": 98,
      "size": 1,
      "price": "1011000000000000000000",
      "reserved": "",
      "salt": "0x0b4fea3a9702d6ffe51748775a2f20d41ebe3e2730ab8402009a8ba2702071eb",
      "assetIds": []
    },
    {
      "x": 196,
      "y": 99,
      "size": 1,
      "price": "1011000000000000000000",
      "reserved": "",
      "salt": "0x96da7f07b106cf5cca877ce5d369704e69b68f064926b422380d23acc93fe08a",
      "assetIds": []
    },
    {
      "x": 196,
      "y": 100,
      "size": 1,
      "price": "1011000000000000000000",
      "reserved": "",
      "salt": "0x4a9fb2369bbed87174d3ba435521c8fac1d15f2942bbab4190fa21dfbe2fa468",
      "assetIds": []
    },
    {
      "x": 196,
      "y": 101,
      "size": 1,
      "price": "1011000000000000000000",
      "reserved": "",
      "salt": "0xe7097de9d7a973305f7dbfde56f24594b5fff217d541166b99fb91a99038246a",
      "assetIds": []
    },
    {
      "x": 197,
      "y": 78,
      "size": 1,
      "price": "4683000000000000000000",
      "reserved": "",
      "salt": "0x65060ed40af826358f7cc01d2a8892bb4bc6f8a4eb380aafee345bdd529a9528",
      "assetIds": [
        "41506478881403507969696680653240014914910929820314476107906210059990541021185"
      ]
    },
    {
      "x": 197,
      "y": 79,
      "size": 1,
      "price": "4683000000000000000000",
      "reserved": "",
      "salt": "0xe605ab6dd0767251eb72b83ed5c18869f3dda25cfb408bad1019f85e148d2f38",
      "assetIds": [
        "41506478881403507969696680653240014914910929820314476107906210059990541021185"
      ]
    },
    {
      "x": 197,
      "y": 80,
      "size": 1,
      "price": "4683000000000000000000",
      "reserved": "",
      "salt": "0xda91fac5451179ea69c801a363d8d8e220806c3b3fdd667ca085bbe22d95d252",
      "assetIds": [
        "41506478881403507969696680653240014914910929820314476107906210059990541021185"
      ]
    },
    {
      "x": 197,
      "y": 81,
      "size": 1,
      "price": "4683000000000000000000",
      "reserved": "",
      "salt": "0x59cb183284185cead0f7544292736ad5a0c8e401452a491753dd691b76887f4a",
      "assetIds": [
        "41506478881403507969696680653240014914910929820314476107906210059990541021185"
      ]
    },
    {
      "x": 197,
      "y": 82,
      "size": 1,
      "price": "4683000000000000000000",
      "reserved": "",
      "salt": "0x42d0c38ff7f10476caaa5bcd62c79fdc6b92f702d1920bad13638e4ad1ef457a",
      "assetIds": [
        "41506478881403507969696680653240014914910929820314476107906210059990541021185"
      ]
    },
    {
      "x": 197,
      "y": 83,
      "size": 1,
      "price": "4683000000000000000000",
      "reserved": "",
      "salt": "0x123b838f4780a11bcca9b410adb1cde2b083da04a2c2c595bdb2c6188bdddb93",
      "assetIds": [
        "41506478881403507969696680653240014914910929820314476107906210059990541021185"
      ]
    },
    {
      "x": 197,
      "y": 87,
      "size": 1,
      "price": "1011000000000000000000",
      "reserved": "",
      "salt": "0xa0900d1ea3ecb9ee87ec2cc3aabdad2a84c427b84a991005ac9a8baee60daf64",
      "assetIds": []
    },
    {
      "x": 197,
      "y": 88,
      "size": 1,
      "price": "1011000000000000000000",
      "reserved": "",
      "salt": "0xeea284367a71ad97612ef35b2fa70b75afebb2d31c93a56328d83de3fae40fe1",
      "assetIds": []
    },
    {
      "x": 197,
      "y": 89,
      "size": 1,
      "price": "1011000000000000000000",
      "reserved": "",
      "salt": "0xf98cafad33cb24920ae89bc60569b76ac10f56ab145f6e08ee48ffa51911d9dd",
      "assetIds": []
    },
    {
      "x": 197,
      "y": 90,
      "size": 1,
      "price": "4683000000000000000000",
      "reserved": "",
      "salt": "0xf75bb8e15d7f8fa4bf06e7fd29a339a5565f28c3e873d2d6f4c2753d7e90b902",
      "assetIds": [
        "41506478881403507969696680653240014914910929820314476107906210059990541021185"
      ]
    },
    {
      "x": 197,
      "y": 91,
      "size": 1,
      "price": "4683000000000000000000",
      "reserved": "",
      "salt": "0x0d5eb1b3fe17dd7febbb2ec6b5b5ed754c33e462d83cf243b9b5c1e0a5d48a04",
      "assetIds": [
        "41506478881403507969696680653240014914910929820314476107906210059990541021185"
      ]
    },
    {
      "x": 197,
      "y": 92,
      "size": 1,
      "price": "4683000000000000000000",
      "reserved": "",
      "salt": "0x6cab9bee24e57d82a3bd467c23f2a20be7dd79b112f7dd6a0748e66f0a8d0f06",
      "assetIds": [
        "41506478881403507969696680653240014914910929820314476107906210059990541021185"
      ]
    },
    {
      "x": 197,
      "y": 93,
      "size": 1,
      "price": "4683000000000000000000",
      "reserved": "",
      "salt": "0x954dff618d89b9c41882f20c94a60dac1e9546bf0db03428259dba4883a0a2ab",
      "assetIds": [
        "41506478881403507969696680653240014914910929820314476107906210059990541021185"
      ]
    },
    {
      "x": 197,
      "y": 94,
      "size": 1,
      "price": "4683000000000000000000",
      "reserved": "",
      "salt": "0x34fb9cb39c52d861c92743703f18a33747c27ce8209ab1a0e7eee9ffba2ac8f6",
      "assetIds": [
        "41506478881403507969696680653240014914910929820314476107906210059990541021185"
      ]
    },
    {
      "x": 197,
      "y": 95,
      "size": 1,
      "price": "4683000000000000000000",
      "reserved": "",
      "salt": "0x5dd42dbeb7e8ba1753a25ab59db6456a6bdec9b8c5851368c6e2260ecf0c15d7",
      "assetIds": [
        "41506478881403507969696680653240014914910929820314476107906210059990541021185"
      ]
    },
    {
      "x": 197,
      "y": 96,
      "size": 1,
      "price": "1011000000000000000000",
      "reserved": "",
      "salt": "0x09d3fcc86dc02169fb80688d2b619ac1a6add30e82244d3271fe9c4bfe52e038",
      "assetIds": []
    },
    {
      "x": 197,
      "y": 97,
      "size": 1,
      "price": "1011000000000000000000",
      "reserved": "",
      "salt": "0x1465549c8e093168319edd25edb21d372ec60e36d727c1ca7b509a91993f3dc9",
      "assetIds": []
    },
    {
      "x": 197,
      "y": 98,
      "size": 1,
      "price": "1011000000000000000000",
      "reserved": "",
      "salt": "0x37b31cfbf8e41ac8954f23ff42c19ca2b74d38cbdaca97c7e1e8d8ca16b26a01",
      "assetIds": []
    },
    {
      "x": 197,
      "y": 99,
      "size": 1,
      "price": "1011000000000000000000",
      "reserved": "",
      "salt": "0xf573007c568539d532f3e56575b5ade55658811bd0f642a9a973c63e0450545f",
      "assetIds": []
    },
    {
      "x": 197,
      "y": 100,
      "size": 1,
      "price": "1011000000000000000000",
      "reserved": "",
      "salt": "0x82e51458b9bce6a3749b1931996fab7ad7fc71b06b3b335ce797ae8be2bdeb52",
      "assetIds": []
    },
    {
      "x": 197,
      "y": 101,
      "size": 1,
      "price": "1011000000000000000000",
      "reserved": "",
      "salt": "0xdeddc6f49c61692b95d3e416d866899cc1a840dd3fd6f7f4c0fb0e81fdac68b9",
      "assetIds": []
    },
    {
      "x": 198,
      "y": 77,
      "size": 1,
      "price": "4683000000000000000000",
      "reserved": "",
      "salt": "0x6476f58a275a33c30f079894d7b55a607f53141e500c1eb54281c9929e742649",
      "assetIds": [
        "41506478881403507969696680653240014914910929820314476107906210059990541021185"
      ]
    },
    {
      "x": 198,
      "y": 84,
      "size": 1,
      "price": "4683000000000000000000",
      "reserved": "",
      "salt": "0x382392769ba24291b133358a491dc51a60c7add37fcb18c72c7b09a9357513f5",
      "assetIds": [
        "41506478881403507969696680653240014914910929820314476107906210059990541021185"
      ]
    },
    {
      "x": 198,
      "y": 85,
      "size": 1,
      "price": "1011000000000000000000",
      "reserved": "",
      "salt": "0x1d7a0995042ff8d9d4536138dfc38d83e6c0bdfe17357c7c7e650d9f5d34fddf",
      "assetIds": []
    },
    {
      "x": 198,
      "y": 86,
      "size": 1,
      "price": "1011000000000000000000",
      "reserved": "",
      "salt": "0xd3d7bc609172f5ebe59e77e0512115e24a2a4e3227668b1f51e2e35f5d192301",
      "assetIds": []
    },
    {
      "x": 198,
      "y": 87,
      "size": 1,
      "price": "1011000000000000000000",
      "reserved": "",
      "salt": "0xf483cea7c79e80dcdec4ca66e0e2a91e4ac264a8645ec5c9741ab6b5215244f9",
      "assetIds": []
    },
    {
      "x": 198,
      "y": 88,
      "size": 1,
      "price": "1011000000000000000000",
      "reserved": "",
      "salt": "0xe8bbbb51508ce649d560414a4f0e75088f34d85518b6288a95957c4d8f88fc26",
      "assetIds": []
    },
    {
      "x": 198,
      "y": 89,
      "size": 1,
      "price": "4683000000000000000000",
      "reserved": "",
      "salt": "0xe1e0bbf1c3614b1867b6cf0c4fbdb0b2b6ce181d285446af9453e592a566994d",
      "assetIds": [
        "41506478881403507969696680653240014914910929820314476107906210059990541021185"
      ]
    },
    {
      "x": 198,
      "y": 96,
      "size": 1,
      "price": "4683000000000000000000",
      "reserved": "",
      "salt": "0x97130ad5b16f0387e13159ac8b581496a7c3d28f2464e6e3dfc72d53b2123b50",
      "assetIds": [
        "41506478881403507969696680653240014914910929820314476107906210059990541021185"
      ]
    },
    {
      "x": 198,
      "y": 97,
      "size": 1,
      "price": "1011000000000000000000",
      "reserved": "",
      "salt": "0x136572690b52e4485133595ae550eb96820ee9cc6d0cdac69b7350f2f26dde86",
      "assetIds": []
    },
    {
      "x": 198,
      "y": 98,
      "size": 1,
      "price": "1011000000000000000000",
      "reserved": "",
      "salt": "0x36419de411d9ce72237739032c6d4b41d3ded583cb58570de35ffb066de6f972",
      "assetIds": []
    },
    {
      "x": 198,
      "y": 99,
      "size": 1,
      "price": "1011000000000000000000",
      "reserved": "",
      "salt": "0x7b45a38f2ecd2d86c5feca0e5ee01a301a6b6a7f06b83de0f8a41daa9686eb14",
      "assetIds": []
    },
    {
      "x": 198,
      "y": 100,
      "size": 1,
      "price": "1011000000000000000000",
      "reserved": "",
      "salt": "0x4e06d986a87fc558265e5fae6fac3e050395b9b2acacc440c08797333febd6b6",
      "assetIds": []
    },
    {
      "x": 198,
      "y": 101,
      "size": 1,
      "price": "1011000000000000000000",
      "reserved": "",
      "salt": "0x080768fc75c35d7833375f9056e68450bf93e3fe69a7a50bdd8ca6eb7d26ae48",
      "assetIds": []
    },
    {
      "x": 199,
      "y": 77,
      "size": 1,
      "price": "4683000000000000000000",
      "reserved": "",
      "salt": "0xc768db4fb1a17a7257676d8c24a1d9a44085b2f62f5c9862d876e17c6ddab588",
      "assetIds": [
        "41506478881403507969696680653240014914910929820314476107906210059990541021185"
      ]
    },
    {
      "x": 199,
      "y": 84,
      "size": 1,
      "price": "4683000000000000000000",
      "reserved": "",
      "salt": "0x82c25b00214b650795a68422404130f91868a1ea9d9cc77dfa611b4871af4d72",
      "assetIds": [
        "41506478881403507969696680653240014914910929820314476107906210059990541021185"
      ]
    },
    {
      "x": 199,
      "y": 85,
      "size": 1,
      "price": "4683000000000000000000",
      "reserved": "",
      "salt": "0x0b6df070cf3db65cf3c762722edce522030255cd65315349c4c02cbaf37b6bce",
      "assetIds": [
        "41506478881403507969696680653240014914910929820314476107906210059990541021185"
      ]
    },
    {
      "x": 199,
      "y": 86,
      "size": 1,
      "price": "1011000000000000000000",
      "reserved": "",
      "salt": "0x1d8745a663fd366b0ad66bbe24ea2e741e9dfd990959f578d5277eafa651f51e",
      "assetIds": []
    },
    {
      "x": 199,
      "y": 87,
      "size": 1,
      "price": "1011000000000000000000",
      "reserved": "",
      "salt": "0x9d82812352cc919a66e479f4585b0e63f6460b9b27972e7187eb95f11120cc1c",
      "assetIds": []
    },
    {
      "x": 199,
      "y": 88,
      "size": 1,
      "price": "4683000000000000000000",
      "reserved": "",
      "salt": "0xff48371218b33192a9f70d3fe982e288430c0eddff05ba167a019e11721c75f6",
      "assetIds": [
        "41506478881403507969696680653240014914910929820314476107906210059990541021185"
      ]
    },
    {
      "x": 199,
      "y": 89,
      "size": 1,
      "price": "4683000000000000000000",
      "reserved": "",
      "salt": "0xd5bc15820553af99c894a6ed18b1338f1ed982b176dba53fe8a707c531b7c9e4",
      "assetIds": [
        "41506478881403507969696680653240014914910929820314476107906210059990541021185"
      ]
    },
    {
      "x": 199,
      "y": 96,
      "size": 1,
      "price": "4683000000000000000000",
      "reserved": "",
      "salt": "0xed244ce0eb39bf2bfbc1812dfe0ebf0e0fa6f3948e5721b520eecad2e8185e9f",
      "assetIds": [
        "41506478881403507969696680653240014914910929820314476107906210059990541021185"
      ]
    },
    {
      "x": 199,
      "y": 97,
      "size": 1,
      "price": "4683000000000000000000",
      "reserved": "",
      "salt": "0x48932876004a2d596ed5789ac6d079c976f59ee635d7f4759c42c6f066e2db0b",
      "assetIds": [
        "41506478881403507969696680653240014914910929820314476107906210059990541021185"
      ]
    },
    {
      "x": 199,
      "y": 98,
      "size": 1,
      "price": "1011000000000000000000",
      "reserved": "",
      "salt": "0xb13d5179e69fcf0d039312c53ec1ed02ae2185eea3ebb3d4dcb8612e274d8d1a",
      "assetIds": []
    },
    {
      "x": 199,
      "y": 99,
      "size": 1,
      "price": "1011000000000000000000",
      "reserved": "",
      "salt": "0xb39ce7dda7acaf4c9f02a9c3f03a332334deaa5d211a19d7f4bbe7d43f4770fa",
      "assetIds": []
    },
    {
      "x": 199,
      "y": 100,
      "size": 1,
      "price": "1011000000000000000000",
      "reserved": "",
      "salt": "0x44d204d3cb78bfaa17dde38afcbb8bf7907aca75edbdcaf20d49dcee0f94d156",
      "assetIds": []
    },
    {
      "x": 199,
      "y": 101,
      "size": 1,
      "price": "1011000000000000000000",
      "reserved": "",
      "salt": "0x30c6f2d51c6888898c0b5b35f3555d69d7d33d3d4e004ac856de04dbd6666326",
      "assetIds": []
    },
    {
      "x": 200,
      "y": 77,
      "size": 1,
      "price": "4683000000000000000000",
      "reserved": "",
      "salt": "0x9b2daead4d983aff4c263e479e2f3959d9d66cca735c165b443dcf27001edd82",
      "assetIds": [
        "41506478881403507969696680653240014914910929820314476107906210059990541021185"
      ]
    },
    {
      "x": 200,
      "y": 84,
      "size": 1,
      "price": "4683000000000000000000",
      "reserved": "",
      "salt": "0xf55acee6ea62b42a3d00e9a4dfc457d985e3fe4c2f23b3de044287f91c80e1b3",
      "assetIds": [
        "41506478881403507969696680653240014914910929820314476107906210059990541021185"
      ]
    },
    {
      "x": 200,
      "y": 85,
      "size": 1,
      "price": "4683000000000000000000",
      "reserved": "",
      "salt": "0x06c81bfe33f7ed2b05ac17aa0af20def9e364e629f1454855ca6dbdfb87e4745",
      "assetIds": [
        "41506478881403507969696680653240014914910929820314476107906210059990541021185"
      ]
    },
    {
      "x": 200,
      "y": 86,
      "size": 1,
      "price": "1011000000000000000000",
      "reserved": "",
      "salt": "0x8ac760c10317cb2693465d95a6085cc31f655a1cdb8a065140f1ad7cef22b703",
      "assetIds": []
    },
    {
      "x": 200,
      "y": 87,
      "size": 1,
      "price": "1011000000000000000000",
      "reserved": "",
      "salt": "0x292f3b5e20a668257bedd0bc1bacea693e74f34d8ac87e6e1ce8f9e0dc3f7ab0",
      "assetIds": []
    },
    {
      "x": 200,
      "y": 88,
      "size": 1,
      "price": "4683000000000000000000",
      "reserved": "",
      "salt": "0x8306cc83d3bbdbd0403dddb1ab15ccf033966d8d3ee7f741fe264fca097d0cc4",
      "assetIds": [
        "41506478881403507969696680653240014914910929820314476107906210059990541021185"
      ]
    },
    {
      "x": 200,
      "y": 89,
      "size": 1,
      "price": "4683000000000000000000",
      "reserved": "",
      "salt": "0xc0e33f148862203a76b3d299b096360a2ba8f6920cb598cd2a841dd6bf808d78",
      "assetIds": [
        "41506478881403507969696680653240014914910929820314476107906210059990541021185"
      ]
    },
    {
      "x": 200,
      "y": 96,
      "size": 1,
      "price": "4683000000000000000000",
      "reserved": "",
      "salt": "0x607b2754007899a9cfd20ffae39518e05c2de94d73edfcc29312e6d89a1a6d66",
      "assetIds": [
        "41506478881403507969696680653240014914910929820314476107906210059990541021185"
      ]
    },
    {
      "x": 200,
      "y": 97,
      "size": 1,
      "price": "4683000000000000000000",
      "reserved": "",
      "salt": "0xc4456d69a5dd57fd1cec211e7631300d2dc4876c76f045edceaec1763027ee3f",
      "assetIds": [
        "41506478881403507969696680653240014914910929820314476107906210059990541021185"
      ]
    },
    {
      "x": 200,
      "y": 98,
      "size": 1,
      "price": "1011000000000000000000",
      "reserved": "",
      "salt": "0xd9fe18c56c2d0214e225cbc23f17eeede6857f3319b70cde98fef4c3d497cedd",
      "assetIds": []
    },
    {
      "x": 200,
      "y": 99,
      "size": 1,
      "price": "1011000000000000000000",
      "reserved": "",
      "salt": "0x02f8d9bb99e37a5bd8c5cda9380b0126961b495de7bf86a3ac6f948a7e1f6054",
      "assetIds": []
    },
    {
      "x": 200,
      "y": 100,
      "size": 1,
      "price": "1011000000000000000000",
      "reserved": "",
      "salt": "0xe939482f9d143b75c2f9475e1c238df51ed86a54dbd619b6004453edff80d1d4",
      "assetIds": []
    },
    {
      "x": 200,
      "y": 101,
      "size": 1,
      "price": "1011000000000000000000",
      "reserved": "",
      "salt": "0x6d4bc9b4c7765609952ccac46c94e0be8c053439a0ab3a6bd2b2db62d609ddfa",
      "assetIds": []
    },
    {
      "x": 201,
      "y": 77,
      "size": 1,
      "price": "4683000000000000000000",
      "reserved": "",
      "salt": "0x17d195184b130e78c76d50765d8c78e6ee2b1b21c06a9d4c0ea667867bbabb07",
      "assetIds": [
        "41506478881403507969696680653240014914910929820314476107906210059990541021185"
      ]
    },
    {
      "x": 201,
      "y": 84,
      "size": 1,
      "price": "4683000000000000000000",
      "reserved": "",
      "salt": "0x4602aa1fb3a7e5e6d95f6276448e8daa439581ffe150ea45206f3a321d72614a",
      "assetIds": [
        "41506478881403507969696680653240014914910929820314476107906210059990541021185"
      ]
    },
    {
      "x": 201,
      "y": 85,
      "size": 1,
      "price": "4683000000000000000000",
      "reserved": "",
      "salt": "0xd47d8b2252dd99624781e271a5469ac86bdb0dfebc39c703000d96ee2ddf29ce",
      "assetIds": [
        "41506478881403507969696680653240014914910929820314476107906210059990541021185"
      ]
    },
    {
      "x": 201,
      "y": 86,
      "size": 1,
      "price": "1011000000000000000000",
      "reserved": "",
      "salt": "0x31b5daf14fb516f0a7a83ee8c5d145a658990ddb66d589bd3d55c3d915cd77d2",
      "assetIds": []
    },
    {
      "x": 201,
      "y": 87,
      "size": 1,
      "price": "1011000000000000000000",
      "reserved": "",
      "salt": "0xa31fb82fe08453cc249f3f9e148ca04332d1ec087867f703dd5150bebae2d66b",
      "assetIds": []
    },
    {
      "x": 201,
      "y": 88,
      "size": 1,
      "price": "4683000000000000000000",
      "reserved": "",
      "salt": "0xa9441e37119322accdac9c3e8632a6a224c1bafc8d4b7f0d042fc29815a57586",
      "assetIds": [
        "41506478881403507969696680653240014914910929820314476107906210059990541021185"
      ]
    },
    {
      "x": 201,
      "y": 89,
      "size": 1,
      "price": "4683000000000000000000",
      "reserved": "",
      "salt": "0xad66148e99b626a9341b3fb95c3be82bece02abf4bd0fe8f45b7a21b8eddaea1",
      "assetIds": [
        "41506478881403507969696680653240014914910929820314476107906210059990541021185"
      ]
    },
    {
      "x": 201,
      "y": 96,
      "size": 1,
      "price": "4683000000000000000000",
      "reserved": "",
      "salt": "0xc168e60ef944c29638a4202f7ffc9c09a4385c2d4225b8a637e35b514c6272d4",
      "assetIds": [
        "41506478881403507969696680653240014914910929820314476107906210059990541021185"
      ]
    },
    {
      "x": 201,
      "y": 97,
      "size": 1,
      "price": "4683000000000000000000",
      "reserved": "",
      "salt": "0x2ef99731e89396fad310022381ea62472e12abb778a8708969425a14af333638",
      "assetIds": [
        "41506478881403507969696680653240014914910929820314476107906210059990541021185"
      ]
    },
    {
      "x": 201,
      "y": 98,
      "size": 1,
      "price": "1011000000000000000000",
      "reserved": "",
      "salt": "0xcd2a4469a9c7d02ca3b8c5a5ce42a5504627f3fabb0ee997624ea11bd7d03ff3",
      "assetIds": []
    },
    {
      "x": 201,
      "y": 99,
      "size": 1,
      "price": "1011000000000000000000",
      "reserved": "",
      "salt": "0x7bc538b025d772e8d292afb2160103a7ef12a04eb1bf1b5b3a85bbccfcc5a8dd",
      "assetIds": []
    },
    {
      "x": 201,
      "y": 100,
      "size": 1,
      "price": "1011000000000000000000",
      "reserved": "",
      "salt": "0xc85743b53074a475637374b3e1e34ccf71e4dd79e626851e42f847c875d5e2f1",
      "assetIds": []
    },
    {
      "x": 201,
      "y": 101,
      "size": 1,
      "price": "1011000000000000000000",
      "reserved": "",
      "salt": "0xa8b3fad6ac0b7e28c222dba7c308bf6eb07ae91159ae573cee0be0e2c216e261",
      "assetIds": []
    },
    {
      "x": 202,
      "y": 77,
      "size": 1,
      "price": "4683000000000000000000",
      "reserved": "",
      "salt": "0x89e128d88ec0fec603ecc26d1365016e3b94ce02dbebcb18a4f3268ed777ba29",
      "assetIds": [
        "41506478881403507969696680653240014914910929820314476107906210059990541021185"
      ]
    },
    {
      "x": 202,
      "y": 84,
      "size": 1,
      "price": "4683000000000000000000",
      "reserved": "",
      "salt": "0x04926dd1fe8ef055b74de94e47aa88e20e563575fbf96cdc9c544c32a7dea10f",
      "assetIds": [
        "41506478881403507969696680653240014914910929820314476107906210059990541021185"
      ]
    },
    {
      "x": 202,
      "y": 85,
      "size": 1,
      "price": "1011000000000000000000",
      "reserved": "",
      "salt": "0x951cd58dd394dd4d64148c5ea76dba4e63c6690b8ef0919463182734eceb8c48",
      "assetIds": []
    },
    {
      "x": 202,
      "y": 86,
      "size": 1,
      "price": "1011000000000000000000",
      "reserved": "",
      "salt": "0x7def2e47b87feb393f55506327cdefce29c96e444cde5b6f04f9af3baa63703e",
      "assetIds": []
    },
    {
      "x": 202,
      "y": 87,
      "size": 1,
      "price": "1011000000000000000000",
      "reserved": "",
      "salt": "0x8c0ead65e672a0bf4902379af0f1c86f48d0c6418e6cf8e28ec6ea6091968de8",
      "assetIds": []
    },
    {
      "x": 202,
      "y": 88,
      "size": 1,
      "price": "4683000000000000000000",
      "reserved": "",
      "salt": "0x0993edfc4f57ca27d5cd9a85a9567ede008922b0cf082ac9800bd31cda09159a",
      "assetIds": [
        "41506478881403507969696680653240014914910929820314476107906210059990541021185"
      ]
    },
    {
      "x": 202,
      "y": 89,
      "size": 1,
      "price": "4683000000000000000000",
      "reserved": "",
      "salt": "0x7337250544e98af34ef62f83ea60926483fd3a596211d772c4039ccb036335b7",
      "assetIds": [
        "41506478881403507969696680653240014914910929820314476107906210059990541021185"
      ]
    },
    {
      "x": 202,
      "y": 96,
      "size": 1,
      "price": "4683000000000000000000",
      "reserved": "",
      "salt": "0x9abcd89708b09a792b961674da058c2215ff175e9d82aceeefca03b440b9458d",
      "assetIds": [
        "41506478881403507969696680653240014914910929820314476107906210059990541021185"
      ]
    },
    {
      "x": 202,
      "y": 97,
      "size": 1,
      "price": "4683000000000000000000",
      "reserved": "",
      "salt": "0x4f751ba184f926a7c840bd7d52929ba371a7444e57186197852c4d4a9e76aeca",
      "assetIds": [
        "41506478881403507969696680653240014914910929820314476107906210059990541021185"
      ]
    },
    {
      "x": 202,
      "y": 98,
      "size": 1,
      "price": "1011000000000000000000",
      "reserved": "",
      "salt": "0x1e0ab1f1bd97b6e733094f200ce8cdd7709ef694020711cdb54f00e04255ea4b",
      "assetIds": []
    },
    {
      "x": 202,
      "y": 99,
      "size": 1,
      "price": "1011000000000000000000",
      "reserved": "",
      "salt": "0xeb78290a628093efc74ec378fc8ca214428c8fcd831111601344091b2cdf199b",
      "assetIds": []
    },
    {
      "x": 202,
      "y": 100,
      "size": 1,
      "price": "1011000000000000000000",
      "reserved": "",
      "salt": "0x3790716742ab40ec22078f3a6f28fdc6493e0e8389c32c1795c9e9c3b8389946",
      "assetIds": []
    },
    {
      "x": 202,
      "y": 101,
      "size": 1,
      "price": "1011000000000000000000",
      "reserved": "",
      "salt": "0x771b6c3a076c1771fbcf5e07b7101791a20e1f821cefd508b317cb1e45934150",
      "assetIds": []
    },
    {
      "x": 203,
      "y": 77,
      "size": 1,
      "price": "4683000000000000000000",
      "reserved": "",
      "salt": "0xa4fedde0e36ef98d2720f7bcf472044c572216569041e8994d55595c7d01be4d",
      "assetIds": [
        "41506478881403507969696680653240014914910929820314476107906210059990541021185"
      ]
    },
    {
      "x": 203,
      "y": 84,
      "size": 1,
      "price": "4683000000000000000000",
      "reserved": "",
      "salt": "0x95ee432b89756125fb45642920affa0ab275ac75c74f84ddaae411f36ae79e1a",
      "assetIds": [
        "41506478881403507969696680653240014914910929820314476107906210059990541021185"
      ]
    },
    {
      "x": 203,
      "y": 85,
      "size": 1,
      "price": "1011000000000000000000",
      "reserved": "",
      "salt": "0xe5ceb8598f40302c4d57ddb506fffb0fb59cd0a9347b089600bd0e0fb83115b3",
      "assetIds": []
    },
    {
      "x": 203,
      "y": 86,
      "size": 1,
      "price": "1011000000000000000000",
      "reserved": "",
      "salt": "0xab594fc5f68144ccbc317dc75bd731beb8356f8e7a9652e301956507fa53d272",
      "assetIds": []
    },
    {
      "x": 203,
      "y": 87,
      "size": 1,
      "price": "1011000000000000000000",
      "reserved": "",
      "salt": "0xa5b9ed42cb61a70d993628bf4f1435681bbf2f518f57a9a28e6f1e6198b6ebc5",
      "assetIds": []
    },
    {
      "x": 203,
      "y": 88,
      "size": 1,
      "price": "1011000000000000000000",
      "reserved": "",
      "salt": "0xc939ef9f1e7120fcd5970f3404d203cd3b6679cc87da38db95ef3bc4cc77e0db",
      "assetIds": []
    },
    {
      "x": 203,
      "y": 89,
      "size": 1,
      "price": "4683000000000000000000",
      "reserved": "",
      "salt": "0x4687e4c212ad67e455ba96381b887f762cd27413feeb80e5b8eba96fd54a5d90",
      "assetIds": [
        "41506478881403507969696680653240014914910929820314476107906210059990541021185"
      ]
    },
    {
      "x": 203,
      "y": 96,
      "size": 1,
      "price": "4683000000000000000000",
      "reserved": "",
      "salt": "0x65f4a05f28c3b668cf41952a2347fae937055a14d5ff56ec29e683ff2f38208f",
      "assetIds": [
        "41506478881403507969696680653240014914910929820314476107906210059990541021185"
      ]
    },
    {
      "x": 203,
      "y": 97,
      "size": 1,
      "price": "1011000000000000000000",
      "reserved": "",
      "salt": "0x1e86456bf3ee1b09e72e2c8307c956c3138ebe1c636da9549d8c7de4dc186fbc",
      "assetIds": []
    },
    {
      "x": 203,
      "y": 98,
      "size": 1,
      "price": "1011000000000000000000",
      "reserved": "",
      "salt": "0xceb64952dbbb3398cbda78c1e731bee4a5dcabee188167d63f267f44878327e2",
      "assetIds": []
    },
    {
      "x": 203,
      "y": 99,
      "size": 1,
      "price": "1011000000000000000000",
      "reserved": "",
      "salt": "0x952fcf0b958395df7e0026e5d28ebdf9dafc82eb80ab605044692ad0a1626bfb",
      "assetIds": []
    },
    {
      "x": 203,
      "y": 100,
      "size": 1,
      "price": "1011000000000000000000",
      "reserved": "",
      "salt": "0x286e96681f78ce6399e3093a3f672fe091b75f04d6acaf118dd3b41000733d62",
      "assetIds": []
    },
    {
      "x": 203,
      "y": 101,
      "size": 1,
      "price": "1011000000000000000000",
      "reserved": "",
      "salt": "0x64caf7a6523762efefb8d498bcbfed1369982c2d3714fc84006b918332a3c20a",
      "assetIds": []
    },
    {
      "x": 204,
      "y": 76,
      "size": 1,
      "price": "1011000000000000000000",
      "reserved": "",
      "salt": "0x6296a6e138f9f00fe7dcf6338b3a9a63dbc4ff18af5827e70876326d55f3eaad",
      "assetIds": []
    },
    {
      "x": 204,
      "y": 77,
      "size": 1,
      "price": "1011000000000000000000",
      "reserved": "",
      "salt": "0x001ed8ece3697fe21304654809a15eb6497acdbcde2eea9024bdefe7dc14c829",
      "assetIds": []
    },
    {
      "x": 204,
      "y": 78,
      "size": 1,
      "price": "4683000000000000000000",
      "reserved": "",
      "salt": "0x318dd465cb80c257d6fe990e0951e14371042802e7033321cfb63c3640baabd2",
      "assetIds": [
        "41506478881403507969696680653240014914910929820314476107906210059990541021185"
      ]
    },
    {
      "x": 204,
      "y": 79,
      "size": 1,
      "price": "4683000000000000000000",
      "reserved": "",
      "salt": "0x9c717b0d7a0f2234d2231a60880e746685065d52cef66c5ba38d15796117b9dc",
      "assetIds": [
        "41506478881403507969696680653240014914910929820314476107906210059990541021185"
      ]
    },
    {
      "x": 204,
      "y": 80,
      "size": 1,
      "price": "4683000000000000000000",
      "reserved": "",
      "salt": "0xbe2715b9ec0302870c780977c7c03ab673aee022d45b75140416a79dc05a5450",
      "assetIds": [
        "41506478881403507969696680653240014914910929820314476107906210059990541021185"
      ]
    },
    {
      "x": 204,
      "y": 81,
      "size": 1,
      "price": "4683000000000000000000",
      "reserved": "",
      "salt": "0x87f7c452540625a1fd93c353e1166352bd4c6df7dc4d34df145835e2fc9901b9",
      "assetIds": [
        "41506478881403507969696680653240014914910929820314476107906210059990541021185"
      ]
    },
    {
      "x": 204,
      "y": 82,
      "size": 1,
      "price": "4683000000000000000000",
      "reserved": "",
      "salt": "0x9686373f86df10bef5469ca817d04b820492121d9537ab8f6d5a68310226e77c",
      "assetIds": [
        "41506478881403507969696680653240014914910929820314476107906210059990541021185"
      ]
    },
    {
      "x": 204,
      "y": 83,
      "size": 1,
      "price": "4683000000000000000000",
      "reserved": "",
      "salt": "0xe8017af635814d0186608e5e1acc661fea95b550a8c1bfa8465d012855a8d49c",
      "assetIds": [
        "41506478881403507969696680653240014914910929820314476107906210059990541021185"
      ]
    },
    {
      "x": 204,
      "y": 84,
      "size": 1,
      "price": "1011000000000000000000",
      "reserved": "",
      "salt": "0xb9055b2f0c7a1724d268cbfaf7aacdf8d7dbaf206f8c7e1f7d650695255b4bc7",
      "assetIds": []
    },
    {
      "x": 204,
      "y": 85,
      "size": 1,
      "price": "1011000000000000000000",
      "reserved": "",
      "salt": "0xfe42d6e4a7e001b58ade3eb42d928e79fada6dd85b7a8a1d2d9a202f9dc6b3ea",
      "assetIds": []
    },
    {
      "x": 204,
      "y": 86,
      "size": 1,
      "price": "1011000000000000000000",
      "reserved": "",
      "salt": "0x871e7e9b9b04da2026a820fb616edb2d8bbf05dc36206b592ee93d6236cfcf04",
      "assetIds": []
    },
    {
      "x": 204,
      "y": 87,
      "size": 1,
      "price": "1011000000000000000000",
      "reserved": "",
      "salt": "0x9374368d205e84d1959be281029d0c8cba81b399d37ef7a904ad6e2ebffd5a31",
      "assetIds": []
    },
    {
      "x": 204,
      "y": 88,
      "size": 1,
      "price": "1011000000000000000000",
      "reserved": "",
      "salt": "0x57c2ceeca36dd28e00a923650764b3dc12f8db822c202e4796879ff404319bba",
      "assetIds": []
    },
    {
      "x": 204,
      "y": 89,
      "size": 1,
      "price": "1011000000000000000000",
      "reserved": "",
      "salt": "0x9d77b0d17a8c365bd6df615d1bce73db5f804cdc54a0d5fc0510e1c44c490922",
      "assetIds": []
    },
    {
      "x": 204,
      "y": 90,
      "size": 1,
      "price": "4683000000000000000000",
      "reserved": "",
      "salt": "0x1be25720914730a4647add8bc43e5787f3bb1be173cfb2b8cf43b6da28150c01",
      "assetIds": [
        "41506478881403507969696680653240014914910929820314476107906210059990541021185"
      ]
    },
    {
      "x": 204,
      "y": 91,
      "size": 1,
      "price": "4683000000000000000000",
      "reserved": "",
      "salt": "0x266a77b299b7c8045e43115b26365fae279f9ba03eda5778e0814396904bd7d9",
      "assetIds": [
        "41506478881403507969696680653240014914910929820314476107906210059990541021185"
      ]
    },
    {
      "x": 204,
      "y": 92,
      "size": 1,
      "price": "4683000000000000000000",
      "reserved": "",
      "salt": "0xfcb110df86040d86a1c7f5664ae2d0ff769efc1671b514f50fc85fd503ff3566",
      "assetIds": [
        "41506478881403507969696680653240014914910929820314476107906210059990541021185"
      ]
    },
    {
      "x": 204,
      "y": 93,
      "size": 1,
      "price": "4683000000000000000000",
      "reserved": "",
      "salt": "0xd379e9a6b1700517689d901b94f29da2dac6890e1667f4a5b3a77ec08bd14413",
      "assetIds": [
        "41506478881403507969696680653240014914910929820314476107906210059990541021185"
      ]
    },
    {
      "x": 204,
      "y": 94,
      "size": 1,
      "price": "4683000000000000000000",
      "reserved": "",
      "salt": "0x90a8e60e3a217fd01296718c132fb36cad5b467fb6ea232a711a15f38afc928c",
      "assetIds": [
        "41506478881403507969696680653240014914910929820314476107906210059990541021185"
      ]
    },
    {
      "x": 204,
      "y": 95,
      "size": 1,
      "price": "4683000000000000000000",
      "reserved": "",
      "salt": "0x422c666267586149f3a0953bd92664e65389c07029486626017f011e7046890e",
      "assetIds": [
        "41506478881403507969696680653240014914910929820314476107906210059990541021185"
      ]
    },
    {
      "x": 205,
      "y": 76,
      "size": 1,
      "price": "1011000000000000000000",
      "reserved": "",
      "salt": "0x0417c478cd50589b21f3591e247055c9451423bca4930240ca34edbcd211eb67",
      "assetIds": []
    },
    {
      "x": 205,
      "y": 77,
      "size": 1,
      "price": "1011000000000000000000",
      "reserved": "",
      "salt": "0x529d1814cbe8315758d6e6de1bf54b8b02dc9267f9e57158f99ad0c3033b4a61",
      "assetIds": []
    },
    {
      "x": 205,
      "y": 78,
      "size": 1,
      "price": "1011000000000000000000",
      "reserved": "",
      "salt": "0x2f37b15848e64d892cab7bfc47d808b9c254c1cc9644bbc06c98d192e0d6372a",
      "assetIds": []
    },
    {
      "x": 205,
      "y": 79,
      "size": 1,
      "price": "4683000000000000000000",
      "reserved": "",
      "salt": "0x27a55cb35283025756f3ae8b67ce59d6c2ed367f87d5cda81ea69b5579ae13df",
      "assetIds": [
        "41506478881403507969696680653240014914910929820314476107906210059990541021185"
      ]
    },
    {
      "x": 205,
      "y": 80,
      "size": 1,
      "price": "4683000000000000000000",
      "reserved": "",
      "salt": "0x6dacd1d7e1a1a77c2b3656cf8e89e621179cff7e20d8a1c2df4c52051827119d",
      "assetIds": [
        "41506478881403507969696680653240014914910929820314476107906210059990541021185"
      ]
    },
    {
      "x": 205,
      "y": 81,
      "size": 1,
      "price": "4683000000000000000000",
      "reserved": "",
      "salt": "0x0bbcb79c0f64afea4aab459cc166699e0557b7e7dbf1a8e6410fac1698da5b3f",
      "assetIds": [
        "41506478881403507969696680653240014914910929820314476107906210059990541021185"
      ]
    },
    {
      "x": 205,
      "y": 82,
      "size": 1,
      "price": "4683000000000000000000",
      "reserved": "",
      "salt": "0x0d20d24d859f82c30ec368f8642ad46177e6e11e46aae10c3faa7b01e7a0efcf",
      "assetIds": [
        "41506478881403507969696680653240014914910929820314476107906210059990541021185"
      ]
    },
    {
      "x": 205,
      "y": 83,
      "size": 1,
      "price": "1011000000000000000000",
      "reserved": "",
      "salt": "0x6860a688af81a3cf587434a42acb645084cee66cb37524488e083f90f875ba0f",
      "assetIds": []
    },
    {
      "x": 205,
      "y": 84,
      "size": 1,
      "price": "1011000000000000000000",
      "reserved": "",
      "salt": "0xedeae4b31058f86c9454617e5fc6419b224ca8b3f8e0f5de79c4a8397eede628",
      "assetIds": []
    },
    {
      "x": 205,
      "y": 85,
      "size": 1,
      "price": "1011000000000000000000",
      "reserved": "",
      "salt": "0xf7cd2e601b98a6edcef4c44a59600cb6d78878b5551302b7a99128bc8a84558e",
      "assetIds": []
    },
    {
      "x": 205,
      "y": 86,
      "size": 1,
      "price": "1011000000000000000000",
      "reserved": "",
      "salt": "0x5522625309a1697f3639ebd0b25f952a6ad1dba9761b2aa9c614268fbf094c5d",
      "assetIds": []
    },
    {
      "x": 205,
      "y": 87,
      "size": 1,
      "price": "1011000000000000000000",
      "reserved": "",
      "salt": "0x7778f0101b5f08be41d67347e6c6a3b010b3d348aa518becb75b6cc36e5cd20e",
      "assetIds": []
    },
    {
      "x": 205,
      "y": 88,
      "size": 1,
      "price": "1011000000000000000000",
      "reserved": "",
      "salt": "0x2efd320338f6631f0c7e423a161ea080c3eac218f09c8999538f577763256075",
      "assetIds": []
    },
    {
      "x": 205,
      "y": 89,
      "size": 1,
      "price": "1011000000000000000000",
      "reserved": "",
      "salt": "0x562c7d7c58ff2fd4047d139cc0cb98bda1fcda05a3c3fbb982cf334accff27bb",
      "assetIds": []
    },
    {
      "x": 205,
      "y": 90,
      "size": 1,
      "price": "4683000000000000000000",
      "reserved": "",
      "salt": "0x48fcfed4fc566c03c42ddc0114101a883466e6bc84225a5e4b514fe9b1a5e519",
      "assetIds": [
        "41506478881403507969696680653240014914910929820314476107906210059990541021185"
      ]
    },
    {
      "x": 205,
      "y": 91,
      "size": 1,
      "price": "4683000000000000000000",
      "reserved": "",
      "salt": "0x802c18eeb7b343c8f76058429e356e30096ee9f42518d95f59a88905baa7d813",
      "assetIds": [
        "41506478881403507969696680653240014914910929820314476107906210059990541021185"
      ]
    },
    {
      "x": 205,
      "y": 92,
      "size": 1,
      "price": "4683000000000000000000",
      "reserved": "",
      "salt": "0x3ceb9cdd914ab2b203cc87a6c6ba5345c21cdc98f3492406c73ae09e370d47dc",
      "assetIds": [
        "41506478881403507969696680653240014914910929820314476107906210059990541021185"
      ]
    },
    {
      "x": 205,
      "y": 93,
      "size": 1,
      "price": "4683000000000000000000",
      "reserved": "",
      "salt": "0x89c6fb916a76895345f57c4b6510b3b21d65257ab7ebc94abceeb244cfd7abb4",
      "assetIds": [
        "41506478881403507969696680653240014914910929820314476107906210059990541021185"
      ]
    },
    {
      "x": 205,
      "y": 94,
      "size": 1,
      "price": "4683000000000000000000",
      "reserved": "",
      "salt": "0x3579e6ca1fff3a61d08d44563b674e01e7a30ae615c24039279b16d4af742549",
      "assetIds": [
        "41506478881403507969696680653240014914910929820314476107906210059990541021185"
      ]
    },
    {
      "x": 205,
      "y": 95,
      "size": 1,
      "price": "1011000000000000000000",
      "reserved": "",
      "salt": "0xecc7a778736bac9ca80224fe2e524aa9e25742f5b9eab52c0257f95c919887d6",
      "assetIds": []
    },
    {
      "x": 206,
      "y": 76,
      "size": 1,
      "price": "1011000000000000000000",
      "reserved": "",
      "salt": "0x5e3139f2377abb5a0d56570ec751d49447ae8dfb18a0f01d6e719e3b86b081a6",
      "assetIds": []
    },
    {
      "x": 206,
      "y": 77,
      "size": 1,
      "price": "1011000000000000000000",
      "reserved": "",
      "salt": "0xb21b53f3ce3bd5541af5753289cef6145d55f592c049f0e4adf833caa6970b81",
      "assetIds": []
    },
    {
      "x": 206,
      "y": 78,
      "size": 1,
      "price": "1011000000000000000000",
      "reserved": "",
      "salt": "0xa0d8f266ea313ccc37d27afa3db3ff0828d183b5d3297dc863d89df9b7a40ffd",
      "assetIds": []
    },
    {
      "x": 206,
      "y": 79,
      "size": 1,
      "price": "1011000000000000000000",
      "reserved": "",
      "salt": "0xbd37b719f64a2f4d40f317f951705eced5cf441464d8185b90eeea270fab0cc7",
      "assetIds": []
    },
    {
      "x": 206,
      "y": 80,
      "size": 1,
      "price": "1011000000000000000000",
      "reserved": "",
      "salt": "0x52ea42b87074689518f8fe14d9cdfe369bb54fc23cf6517cac726c383f5151dc",
      "assetIds": []
    },
    {
      "x": 206,
      "y": 81,
      "size": 1,
      "price": "1011000000000000000000",
      "reserved": "",
      "salt": "0x580237841f92ddac95535f07d4347e404dbb83f967d41d020016defead7502e5",
      "assetIds": []
    },
    {
      "x": 206,
      "y": 82,
      "size": 1,
      "price": "1011000000000000000000",
      "reserved": "",
      "salt": "0xe85a7fe718104cb3ef830c7560e6952f40edca0ef85ee4b29101bb64e2457c38",
      "assetIds": []
    },
    {
      "x": 206,
      "y": 83,
      "size": 1,
      "price": "1011000000000000000000",
      "reserved": "",
      "salt": "0xa7a0a541aac8634196b9cf5fcc90fa1fee990da897a51f6db8b0bb94bda407d9",
      "assetIds": []
    },
    {
      "x": 206,
      "y": 84,
      "size": 1,
      "price": "1011000000000000000000",
      "reserved": "",
      "salt": "0x58385128492949cad77335b7b5b2e94250ac51084483bb7efc4013a9b9ff821e",
      "assetIds": []
    },
    {
      "x": 206,
      "y": 85,
      "size": 1,
      "price": "1011000000000000000000",
      "reserved": "",
      "salt": "0x407b923693125f5281bee85d51de8cf320e1b3bc479288a54d4b800c26ed811e",
      "assetIds": []
    },
    {
      "x": 206,
      "y": 86,
      "size": 1,
      "price": "1011000000000000000000",
      "reserved": "",
      "salt": "0xdf4417cc1918da2477510a76350d57167a2f0f57672f5e24e24ccbb9ce01b4e6",
      "assetIds": []
    },
    {
      "x": 206,
      "y": 87,
      "size": 1,
      "price": "1011000000000000000000",
      "reserved": "",
      "salt": "0x1d43c3dfb9409a4f0136998c9568c4f26bd1285175587bf6fc439f7b510ea3eb",
      "assetIds": []
    },
    {
      "x": 206,
      "y": 88,
      "size": 1,
      "price": "1011000000000000000000",
      "reserved": "",
      "salt": "0x66171825a62b6b42d3475431733729245d3ecc24351200259a986d52e907e397",
      "assetIds": []
    },
    {
      "x": 206,
      "y": 89,
      "size": 1,
      "price": "1011000000000000000000",
      "reserved": "",
      "salt": "0xe99c17b726bd118b1afdaa7e51e13844f74c61c12e7fd7c551688b624e4117d0",
      "assetIds": []
    },
    {
      "x": 206,
      "y": 90,
      "size": 1,
      "price": "1011000000000000000000",
      "reserved": "",
      "salt": "0xe1d7f3e181840d630bd9adb3511ce04be9cd8acf3ff7b4a077d06f300dbd5f43",
      "assetIds": []
    },
    {
      "x": 206,
      "y": 91,
      "size": 1,
      "price": "1011000000000000000000",
      "reserved": "",
      "salt": "0xae1b0662ff76519e04ca9ccd1e1cd1467699d4cefacf8a80aa7181fd432a2976",
      "assetIds": []
    },
    {
      "x": 206,
      "y": 92,
      "size": 1,
      "price": "1011000000000000000000",
      "reserved": "",
      "salt": "0xa5b4e4497cc0f43101299c8446dddbf54338bde118f444066b3997ebed38a145",
      "assetIds": []
    },
    {
      "x": 206,
      "y": 93,
      "size": 1,
      "price": "1011000000000000000000",
      "reserved": "",
      "salt": "0xd2b9d3b039e11b634e6c6e449ae137843037196a08aa909cfb78f1d7241a9b72",
      "assetIds": []
    },
    {
      "x": 206,
      "y": 94,
      "size": 1,
      "price": "1011000000000000000000",
      "reserved": "",
      "salt": "0xaa9fc2acc9b8f369f65cd2bee7872365811a3ffb7a65fdc630ef4c5bf2fbee73",
      "assetIds": []
    },
    {
      "x": 206,
      "y": 95,
      "size": 1,
      "price": "1011000000000000000000",
      "reserved": "",
      "salt": "0x8ba221c79c654c35a8f2f48498e58e14ce01458c8ea3dcba709700d951ca83b1",
      "assetIds": []
    },
    {
      "x": 207,
      "y": 76,
      "size": 1,
      "price": "1011000000000000000000",
      "reserved": "",
      "salt": "0xee8ab33ea7491c4bd9028bbd9e9fd84a3eeecff4cf75b6a7dd11119d17c1ef3a",
      "assetIds": []
    },
    {
      "x": 207,
      "y": 77,
      "size": 1,
      "price": "1011000000000000000000",
      "reserved": "",
      "salt": "0xf712640736d1f1319cb7a41f7c718c62e5bcfe456ac0d820e90eedaf3c2d5601",
      "assetIds": []
    },
    {
      "x": 207,
      "y": 78,
      "size": 1,
      "price": "1011000000000000000000",
      "reserved": "",
      "salt": "0x834aeb6ceb9702c74d2b376611bbb8953b77026cd4a0f2d1e972ed4303be52cb",
      "assetIds": []
    },
    {
      "x": 207,
      "y": 79,
      "size": 1,
      "price": "1011000000000000000000",
      "reserved": "",
      "salt": "0xb5ddcd85147ea8dbcba3b2965ac8f85800716ad5e76e9f6b8836921665e4da3a",
      "assetIds": []
    },
    {
      "x": 207,
      "y": 80,
      "size": 1,
      "price": "1011000000000000000000",
      "reserved": "",
      "salt": "0x341ba8f5310b18724c0b3670bfed653d2e94e4a3d1a8ff94f975a48f09009b94",
      "assetIds": []
    },
    {
      "x": 207,
      "y": 81,
      "size": 1,
      "price": "1011000000000000000000",
      "reserved": "",
      "salt": "0xcadbcc8f566f3dcf7b09820d792487105dbf992037b3ed8f61f23616065547d1",
      "assetIds": []
    },
    {
      "x": 207,
      "y": 82,
      "size": 1,
      "price": "1011000000000000000000",
      "reserved": "",
      "salt": "0xad8e3761ecc824d2aaeb1240c346c993478147740cf1f0bf5ce486e685194d3f",
      "assetIds": []
    },
    {
      "x": 207,
      "y": 83,
      "size": 1,
      "price": "1011000000000000000000",
      "reserved": "",
      "salt": "0xf892a4a1e2b1174a8f16b408c790adbc781dcd063ce42a2574f0004e905fa345",
      "assetIds": []
    },
    {
      "x": 207,
      "y": 84,
      "size": 1,
      "price": "1011000000000000000000",
      "reserved": "",
      "salt": "0xe712469e36fc09ca588e1577cb497ae4fa347612334e7542ab4d655783652bca",
      "assetIds": []
    },
    {
      "x": 207,
      "y": 85,
      "size": 1,
      "price": "1011000000000000000000",
      "reserved": "",
      "salt": "0x6bb13b21f9da53f84575afdb53595a38e67408acba49028fa68c05daff070deb",
      "assetIds": []
    },
    {
      "x": 207,
      "y": 86,
      "size": 1,
      "price": "1011000000000000000000",
      "reserved": "",
      "salt": "0x9b693c0841caf4071e1e05aa892d0c9734095dfb617f423a33cd7c3f4684c6db",
      "assetIds": []
    },
    {
      "x": 207,
      "y": 87,
      "size": 1,
      "price": "1011000000000000000000",
      "reserved": "",
      "salt": "0x95bb64bdbb1b79b5a83ae146c996c209649d4d66ce4395eb0114953b81d7a337",
      "assetIds": []
    },
    {
      "x": 207,
      "y": 88,
      "size": 1,
      "price": "1011000000000000000000",
      "reserved": "",
      "salt": "0x913653d080343bf6eb0740b79390444a5bea64670866eb9215f8511aed6403be",
      "assetIds": []
    },
    {
      "x": 207,
      "y": 89,
      "size": 1,
      "price": "1011000000000000000000",
      "reserved": "",
      "salt": "0xfda31fd7eb6848c2b3ceb117bcbf54c6cb439b131ab5f0afab49d2c212ebc174",
      "assetIds": []
    },
    {
      "x": 208,
      "y": 76,
      "size": 1,
      "price": "1011000000000000000000",
      "reserved": "",
      "salt": "0x1a9996432238df3384078c3083bcbfc983b89ef4eba54c9812f7e1dfbc0619c0",
      "assetIds": []
    },
    {
      "x": 208,
      "y": 77,
      "size": 1,
      "price": "1011000000000000000000",
      "reserved": "",
      "salt": "0xd0004b4e75789522d81acf501253c75e40af9dd9808340c9e0defd4720b40fd7",
      "assetIds": []
    },
    {
      "x": 208,
      "y": 78,
      "size": 1,
      "price": "1011000000000000000000",
      "reserved": "",
      "salt": "0x15e4f23d135c2fc47b8f874c8394412d5fda285d91fad545026dd4f2fbb4c0b8",
      "assetIds": []
    },
    {
      "x": 208,
      "y": 79,
      "size": 1,
      "price": "4683000000000000000000",
      "reserved": "",
      "salt": "0x7237b11672bd943467db6b064afd54eaa8cd344d3c5b51530d1c777f632111a7",
      "assetIds": [
        "41506478881403507969696680653240014914910929820314476107906210059990541021185"
      ]
    },
    {
      "x": 208,
      "y": 80,
      "size": 1,
      "price": "4683000000000000000000",
      "reserved": "",
      "salt": "0xe17ecbc356347a613aaee79983baf7dde7755b08acca79766db33947ec7cfcf1",
      "assetIds": [
        "41506478881403507969696680653240014914910929820314476107906210059990541021185"
      ]
    },
    {
      "x": 208,
      "y": 81,
      "size": 1,
      "price": "4683000000000000000000",
      "reserved": "",
      "salt": "0x7ba76d24fb13a2bd6ca7fbe1fc1664ea1d290c5d5e1a7c97f0c49924ddb9be2b",
      "assetIds": [
        "41506478881403507969696680653240014914910929820314476107906210059990541021185"
      ]
    },
    {
      "x": 208,
      "y": 82,
      "size": 1,
      "price": "1011000000000000000000",
      "reserved": "",
      "salt": "0x7e0f945213cf977e1b3db942f0cdd48ada9f16be1eefe67347c0cccc4fc172db",
      "assetIds": []
    },
    {
      "x": 208,
      "y": 83,
      "size": 1,
      "price": "1011000000000000000000",
      "reserved": "",
      "salt": "0x1e5189e8264b6ee9c7d555d28e63d681e6ccece2b44fe1d90a430616f0c46306",
      "assetIds": []
    },
    {
      "x": 208,
      "y": 84,
      "size": 1,
      "price": "1011000000000000000000",
      "reserved": "",
      "salt": "0x99ae5d89f591fe73bc14be294fca664fbafd5d62d4075c4c79b24f026d4eed61",
      "assetIds": []
    },
    {
      "x": 208,
      "y": 85,
      "size": 1,
      "price": "1011000000000000000000",
      "reserved": "",
      "salt": "0x33811345fd48f2c36bef79856c391b0bc8cb1f90a4105c8c76d5845121279698",
      "assetIds": []
    },
    {
      "x": 208,
      "y": 86,
      "size": 1,
      "price": "1011000000000000000000",
      "reserved": "",
      "salt": "0xb61cc1f60ebf91abd7d098037dc82ea0c1c9f9ae4034b077d804b37e8c602a20",
      "assetIds": []
    },
    {
      "x": 208,
      "y": 87,
      "size": 1,
      "price": "1011000000000000000000",
      "reserved": "",
      "salt": "0x9d8fcc5a9637e1b7cd8b5f2d8e3a6388317ceb716393fa39fbfadd18fb41f474",
      "assetIds": []
    },
    {
      "x": 208,
      "y": 88,
      "size": 1,
      "price": "1011000000000000000000",
      "reserved": "",
      "salt": "0xfc077df0c2aabfafb8ac93fc68bd192e514185cb972a7004f4c8e05be6ef4bbe",
      "assetIds": []
    },
    {
      "x": 208,
      "y": 89,
      "size": 1,
      "price": "1011000000000000000000",
      "reserved": "",
      "salt": "0x6c5cd5be3ba8693c404e3ca571538c182af33da02fd296acd8eae91fb2513445",
      "assetIds": []
    },
    {
      "x": 209,
      "y": 76,
      "size": 1,
      "price": "1011000000000000000000",
      "reserved": "",
      "salt": "0xd25c8a08ab109cd53ffcd22ddd8ad38e0238427d6e8c2fe45a514e3e89f9daf1",
      "assetIds": []
    },
    {
      "x": 209,
      "y": 77,
      "size": 1,
      "price": "1011000000000000000000",
      "reserved": "",
      "salt": "0xc6d4b638dc76bcaddb290e0a71c640ff731e29d6d1639052c6d0ee1da7e75a07",
      "assetIds": []
    },
    {
      "x": 209,
      "y": 78,
      "size": 1,
      "price": "4683000000000000000000",
      "reserved": "",
      "salt": "0xf7d41976ea827ed598642fefc616e9d63b57fb30b9c7b710fc34be7edf833df7",
      "assetIds": [
        "41506478881403507969696680653240014914910929820314476107906210059990541021185"
      ]
    },
    {
      "x": 209,
      "y": 79,
      "size": 1,
      "price": "4683000000000000000000",
      "reserved": "",
      "salt": "0xbf0a376f6c14f183a9f6839128788797167077f0bd1de1b308746a48cf9ad398",
      "assetIds": [
        "41506478881403507969696680653240014914910929820314476107906210059990541021185"
      ]
    },
    {
      "x": 209,
      "y": 80,
      "size": 1,
      "price": "4683000000000000000000",
      "reserved": "",
      "salt": "0x87046c5647b70338fe0eb5ebb239f3ecab3682518abb7da09143af7e62dbb33a",
      "assetIds": [
        "41506478881403507969696680653240014914910929820314476107906210059990541021185"
      ]
    },
    {
      "x": 209,
      "y": 81,
      "size": 1,
      "price": "4683000000000000000000",
      "reserved": "",
      "salt": "0xb698cd5f2ce091945d51c8367174e57a100e521cd54b5ba753c14f2e4dc72f84",
      "assetIds": [
        "41506478881403507969696680653240014914910929820314476107906210059990541021185"
      ]
    },
    {
      "x": 209,
      "y": 82,
      "size": 1,
      "price": "4683000000000000000000",
      "reserved": "",
      "salt": "0x4381c75edb147b66b94f589684a560aa21871173a736a97d0ebe38eb147e264f",
      "assetIds": [
        "41506478881403507969696680653240014914910929820314476107906210059990541021185"
      ]
    },
    {
      "x": 209,
      "y": 83,
      "size": 1,
      "price": "4683000000000000000000",
      "reserved": "",
      "salt": "0xc148ab11c716695b2e3941411f381730b00b1c94686b7e0278be6d94bfbe9779",
      "assetIds": [
        "41506478881403507969696680653240014914910929820314476107906210059990541021185"
      ]
    },
    {
      "x": 209,
      "y": 84,
      "size": 1,
      "price": "1011000000000000000000",
      "reserved": "",
      "salt": "0x8225d90c66e0b83b94e9c8b974eb48095a0310a99e7117a28cd28dbca9886935",
      "assetIds": []
    },
    {
      "x": 209,
      "y": 85,
      "size": 1,
      "price": "1011000000000000000000",
      "reserved": "",
      "salt": "0x03aefe9271d486680c0c982e3eb3061061796b9941078299652fe81ff1f7c801",
      "assetIds": []
    },
    {
      "x": 209,
      "y": 86,
      "size": 1,
      "price": "1011000000000000000000",
      "reserved": "",
      "salt": "0xcb774556ec04db306efda39545761ccceab9a7d32f1544ad2c4acbe045aa1594",
      "assetIds": []
    },
    {
      "x": 209,
      "y": 87,
      "size": 1,
      "price": "1011000000000000000000",
      "reserved": "",
      "salt": "0x455d09f9e47564c696de03df3ac3bf8513ee6ad2d939018a5786c4289e2ef88f",
      "assetIds": []
    },
    {
      "x": 209,
      "y": 88,
      "size": 1,
      "price": "1011000000000000000000",
      "reserved": "",
      "salt": "0xe21f93fcd195b24007444b502afa291897f48815d53a4d04b44d3087c9feadd4",
      "assetIds": []
    },
    {
      "x": 209,
      "y": 89,
      "size": 1,
      "price": "1011000000000000000000",
      "reserved": "",
      "salt": "0x3a4ac6166c71bb48db3652bb56dbadd0d018f7e3c8ec162b0d335dc711ecc5a5",
      "assetIds": []
    },
    {
      "x": 210,
      "y": 76,
      "size": 1,
      "price": "1011000000000000000000",
      "reserved": "",
      "salt": "0xda4010d39d37bcc23621e5b9970f91777e72d0660e3ca112dfbbbfe2a3227fec",
      "assetIds": []
    },
    {
      "x": 210,
      "y": 77,
      "size": 1,
      "price": "4683000000000000000000",
      "reserved": "",
      "salt": "0x8dc3ea757b1f537e292d6a906163fa629b0b1133f6795745aca188b64691669c",
      "assetIds": [
        "41506478881403507969696680653240014914910929820314476107906210059990541021185"
      ]
    },
    {
      "x": 210,
      "y": 84,
      "size": 1,
      "price": "4683000000000000000000",
      "reserved": "",
      "salt": "0x20131a6ff86ed8d2a07bbe982edd4bdd734491561948e491149a2e40653eeef2",
      "assetIds": [
        "41506478881403507969696680653240014914910929820314476107906210059990541021185"
      ]
    },
    {
      "x": 210,
      "y": 85,
      "size": 1,
      "price": "1011000000000000000000",
      "reserved": "",
      "salt": "0x982372d645f9a92f0166b0f04cfd83631c81083708d71178ff65845e6e496f00",
      "assetIds": []
    },
    {
      "x": 210,
      "y": 86,
      "size": 1,
      "price": "1011000000000000000000",
      "reserved": "",
      "salt": "0x427d965800d884475414ef55f89de2f5008f190d3ad47c5278f1563fb17b9077",
      "assetIds": []
    },
    {
      "x": 211,
      "y": 76,
      "size": 1,
      "price": "1011000000000000000000",
      "reserved": "",
      "salt": "0x61684fd28350a9b46bae175e773ad4a3a6268a345a1c261c2ed6b5e4bd4d7fb2",
      "assetIds": []
    },
    {
      "x": 211,
      "y": 77,
      "size": 1,
      "price": "4683000000000000000000",
      "reserved": "",
      "salt": "0x10b6a56a16b4610e07236cf041b8a6a697d1a2f7a254b05fd8c2c18f7ac9c3ab",
      "assetIds": [
        "41506478881403507969696680653240014914910929820314476107906210059990541021185"
      ]
    },
    {
      "x": 211,
      "y": 84,
      "size": 1,
      "price": "4683000000000000000000",
      "reserved": "",
      "salt": "0xfcd2287b2598b31760e01efbb245a4a719d07b2b4b68e95f6baf2a32dae2a792",
      "assetIds": [
        "41506478881403507969696680653240014914910929820314476107906210059990541021185"
      ]
    },
    {
      "x": 211,
      "y": 85,
      "size": 1,
      "price": "4683000000000000000000",
      "reserved": "",
      "salt": "0xb9aaff8d0502f39747ed140b91501ee74161fc1c149a42a5be6525072c60f75c",
      "assetIds": [
        "41506478881403507969696680653240014914910929820314476107906210059990541021185"
      ]
    },
    {
      "x": 211,
      "y": 86,
      "size": 1,
      "price": "1011000000000000000000",
      "reserved": "",
      "salt": "0x2bd0410fcce203deb18d17be4dd8be6a7f77ea79659affa63c4eca3b8d4aad42",
      "assetIds": []
    },
    {
      "x": 212,
      "y": 76,
      "size": 1,
      "price": "1011000000000000000000",
      "reserved": "",
      "salt": "0xb88455ff64c2b0ad8f2a545de2a319d53d9ada1b2d65614fb162644e28dd8bac",
      "assetIds": []
    },
    {
      "x": 212,
      "y": 77,
      "size": 1,
      "price": "4683000000000000000000",
      "reserved": "",
      "salt": "0x9f1a89372d0962e7a05f77b4c28a5957bdb93094e606380439f81c13c223776d",
      "assetIds": [
        "41506478881403507969696680653240014914910929820314476107906210059990541021185"
      ]
    },
    {
      "x": 212,
      "y": 84,
      "size": 1,
      "price": "4683000000000000000000",
      "reserved": "",
      "salt": "0x1f194ad02d290006d5c854e6979349f230bcbff57e9fd306319f6d35b8c67f81",
      "assetIds": [
        "41506478881403507969696680653240014914910929820314476107906210059990541021185"
      ]
    },
    {
      "x": 212,
      "y": 85,
      "size": 1,
      "price": "4683000000000000000000",
      "reserved": "",
      "salt": "0xc8750370618b5b7fb343f3ed51c6b70aa12d6d9b865a52d6fe1b9611303c4d82",
      "assetIds": [
        "41506478881403507969696680653240014914910929820314476107906210059990541021185"
      ]
    },
    {
      "x": 212,
      "y": 86,
      "size": 1,
      "price": "1011000000000000000000",
      "reserved": "",
      "salt": "0xc09750607bf8b69aa47b22520ec9eb20318e855a604192c9e05ac152539eb5c8",
      "assetIds": []
    },
    {
      "x": 213,
      "y": 76,
      "size": 1,
      "price": "1011000000000000000000",
      "reserved": "",
      "salt": "0x1fdcc7b152900f5c1e3e024cfc93ade85f75f40e8eef2f881cd215ed6b73b9b5",
      "assetIds": []
    },
    {
      "x": 213,
      "y": 77,
      "size": 1,
      "price": "4683000000000000000000",
      "reserved": "",
      "salt": "0x77ee2383683d9d6cb1b5887bb9ae64477523035fe81bf3f8fd5bab33af7b1fc6",
      "assetIds": [
        "41506478881403507969696680653240014914910929820314476107906210059990541021185"
      ]
    },
    {
      "x": 213,
      "y": 84,
      "size": 1,
      "price": "4683000000000000000000",
      "reserved": "",
      "salt": "0xa9a37ccb19a5ad2bc5526a58660450844aa09acce0ef4309bc7f474e61e3026e",
      "assetIds": [
        "41506478881403507969696680653240014914910929820314476107906210059990541021185"
      ]
    },
    {
      "x": 213,
      "y": 85,
      "size": 1,
      "price": "4683000000000000000000",
      "reserved": "",
      "salt": "0x6285ea59a625a09d9bd8d48f1a3a6aef68b271d302eaa787a81c770b6c5d3c57",
      "assetIds": [
        "41506478881403507969696680653240014914910929820314476107906210059990541021185"
      ]
    },
    {
      "x": 213,
      "y": 86,
      "size": 1,
      "price": "1011000000000000000000",
      "reserved": "",
      "salt": "0x7552febca83020ca58ec204d16c5575d827f0319ff160c95bde0d61173d8c52a",
      "assetIds": []
    },
    {
      "x": 214,
      "y": 75,
      "size": 1,
      "price": "1011000000000000000000",
      "reserved": "",
      "salt": "0x771b849c7d831a2498fc55fc88e09a2cb310c1891a43fbc566b2727c910ead1f",
      "assetIds": []
    },
    {
      "x": 214,
      "y": 76,
      "size": 1,
      "price": "1011000000000000000000",
      "reserved": "",
      "salt": "0xd87d691b0e1ad9cf8e63d0fd2febf767bbfd3d29a151a45c8f7efe00b9cbbffb",
      "assetIds": []
    },
    {
      "x": 214,
      "y": 77,
      "size": 1,
      "price": "4683000000000000000000",
      "reserved": "",
      "salt": "0xa98cddb65ee5b20886a28b7f23c98bf179190c25a8ab7b7962700a4f89845bea",
      "assetIds": [
        "41506478881403507969696680653240014914910929820314476107906210059990541021185"
      ]
    },
    {
      "x": 214,
      "y": 84,
      "size": 1,
      "price": "4683000000000000000000",
      "reserved": "",
      "salt": "0xd533e2c2d3c76b33b04a2c7cc6e8daf724f2c9f04e3ce81ec5b207a11ee9edea",
      "assetIds": [
        "41506478881403507969696680653240014914910929820314476107906210059990541021185"
      ]
    },
    {
      "x": 214,
      "y": 85,
      "size": 1,
      "price": "4683000000000000000000",
      "reserved": "",
      "salt": "0x9eba3850ef6406ac59f53293663121002a49d4f05ba20b12ae6508e7d34bfed7",
      "assetIds": [
        "41506478881403507969696680653240014914910929820314476107906210059990541021185"
      ]
    },
    {
      "x": 214,
      "y": 86,
      "size": 1,
      "price": "1011000000000000000000",
      "reserved": "",
      "salt": "0x2e75fc53696ef9c01667e5b57183648f74ca83cc9b1ee1379c353ce7964d4342",
      "assetIds": []
    },
    {
      "x": 215,
      "y": 75,
      "size": 1,
      "price": "1011000000000000000000",
      "reserved": "",
      "salt": "0x7ddb86a02fdd3f912a7b2918c51fcebd768a2b57596fe21ff302f1d898d0b848",
      "assetIds": []
    },
    {
      "x": 215,
      "y": 76,
      "size": 1,
      "price": "1011000000000000000000",
      "reserved": "",
      "salt": "0xe654e010f44b220c0df68bfb907e67408ce1fed30b38e23e5e0d9e3830126738",
      "assetIds": []
    },
    {
      "x": 215,
      "y": 77,
      "size": 1,
      "price": "4683000000000000000000",
      "reserved": "",
      "salt": "0x3a56bd00c080f5b87eaaa6f3b5ee1708e5e8cd04f2fcd402e90f514d02118a22",
      "assetIds": [
        "41506478881403507969696680653240014914910929820314476107906210059990541021185"
      ]
    },
    {
      "x": 215,
      "y": 84,
      "size": 1,
      "price": "4683000000000000000000",
      "reserved": "",
      "salt": "0xcdf1061dbc816eca2c2ec9c18ab30a6d12b0ac2920489a333754c93bc95300d8",
      "assetIds": [
        "41506478881403507969696680653240014914910929820314476107906210059990541021185"
      ]
    },
    {
      "x": 215,
      "y": 85,
      "size": 1,
      "price": "1011000000000000000000",
      "reserved": "",
      "salt": "0x74acbc00673db5cdfe6313a6e1a7863338318229b4e35753dcd243229d5a76d4",
      "assetIds": []
    },
    {
      "x": 215,
      "y": 86,
      "size": 1,
      "price": "1011000000000000000000",
      "reserved": "",
      "salt": "0x127fc21d6293069d80f2c4a6444ce843bc01d2c8c5d4fd9a409281dfa6246cd7",
      "assetIds": []
    },
    {
      "x": 216,
      "y": 78,
      "size": 1,
      "price": "4683000000000000000000",
      "reserved": "",
      "salt": "0x4163e097784409f4f6721906d0f436ddc3f941de957f74ef9501e952ccb32350",
      "assetIds": [
        "41506478881403507969696680653240014914910929820314476107906210059990541021185"
      ]
    },
    {
      "x": 216,
      "y": 79,
      "size": 1,
      "price": "4683000000000000000000",
      "reserved": "",
      "salt": "0xc860ad22b1d21b46ba676a14580f8a8f8f93274bdf07066410c9a5db2a7cac61",
      "assetIds": [
        "41506478881403507969696680653240014914910929820314476107906210059990541021185"
      ]
    },
    {
      "x": 216,
      "y": 80,
      "size": 1,
      "price": "4683000000000000000000",
      "reserved": "",
      "salt": "0x976eea8041dfc59f5a63ec8775accc55497acce54eb1549bae859c7bf0c88dea",
      "assetIds": [
        "41506478881403507969696680653240014914910929820314476107906210059990541021185"
      ]
    },
    {
      "x": 216,
      "y": 81,
      "size": 1,
      "price": "4683000000000000000000",
      "reserved": "",
      "salt": "0x06f6742570addb5abb4a0e1eea72cdd984ef22ca6fc19d69d65fedffa322a163",
      "assetIds": [
        "41506478881403507969696680653240014914910929820314476107906210059990541021185"
      ]
    },
    {
      "x": 216,
      "y": 82,
      "size": 1,
      "price": "4683000000000000000000",
      "reserved": "",
      "salt": "0x07f0f3d326387d5aee0ce93f67a63c7d26ba0529b1027c3a0687c99e1d0e17fb",
      "assetIds": [
        "41506478881403507969696680653240014914910929820314476107906210059990541021185"
      ]
    },
    {
      "x": 216,
      "y": 83,
      "size": 1,
      "price": "4683000000000000000000",
      "reserved": "",
      "salt": "0x57865cfc5dd1d39d512e909967a9032c140e2f6e183fb1234234f7de80d6a00f",
      "assetIds": [
        "41506478881403507969696680653240014914910929820314476107906210059990541021185"
      ]
    },
    {
      "x": 217,
      "y": 78,
      "size": 1,
      "price": "1011000000000000000000",
      "reserved": "",
      "salt": "0x5224cb68e19faf0dfab077c479bf835af164553a0d1aa04ec96b2ffd7ad74903",
      "assetIds": []
    },
    {
      "x": 217,
      "y": 79,
      "size": 1,
      "price": "1011000000000000000000",
      "reserved": "",
      "salt": "0xf75d4917d85191eddcdd9c413f03de9a3ce2793516f2b12b001915f4278ba10e",
      "assetIds": []
    },
    {
      "x": 217,
      "y": 80,
      "size": 1,
      "price": "4683000000000000000000",
      "reserved": "",
      "salt": "0x8c93ce8ae9604fd5ca57e80671231962a1d19346e0628702ded23d18df310d43",
      "assetIds": [
        "41506478881403507969696680653240014914910929820314476107906210059990541021185"
      ]
    },
    {
      "x": 217,
      "y": 81,
      "size": 1,
      "price": "4683000000000000000000",
      "reserved": "",
      "salt": "0x3388069737af0167a25b8fe4845ac67064ea8ed208e6b5ebdf71701a9860d5bc",
      "assetIds": [
        "41506478881403507969696680653240014914910929820314476107906210059990541021185"
      ]
    },
    {
      "x": 217,
      "y": 82,
      "size": 1,
      "price": "4683000000000000000000",
      "reserved": "",
      "salt": "0x197e298c6fa4d06664b075b925b6b3cc7dda97e2e07c0d2754d86ddaac55cbe3",
      "assetIds": [
        "41506478881403507969696680653240014914910929820314476107906210059990541021185"
      ]
    },
    {
      "x": 217,
      "y": 83,
      "size": 1,
      "price": "1011000000000000000000",
      "reserved": "",
      "salt": "0x73f63343527310ce5091472dad7a06243b094f88076c7ba5f4a09aeb0956b93f",
      "assetIds": []
    },
    {
      "x": 218,
      "y": 78,
      "size": 1,
      "price": "1011000000000000000000",
      "reserved": "",
      "salt": "0xedd8477615761434047424d57036f185e1c7dea9f611b266c6bedac43db161c2",
      "assetIds": []
    },
    {
      "x": 218,
      "y": 79,
      "size": 1,
      "price": "1011000000000000000000",
      "reserved": "",
      "salt": "0x6bfb3322686c86567a226bc024f3e5627f8e0992753c7127f6862dc252cf9ad2",
      "assetIds": []
    },
    {
      "x": 218,
      "y": 80,
      "size": 1,
      "price": "1011000000000000000000",
      "reserved": "",
      "salt": "0x7a65f98e2df4668013383229c2da529ca87c6b2a8fa7ab666d7a24a44105ab01",
      "assetIds": []
    },
    {
      "x": 218,
      "y": 81,
      "size": 1,
      "price": "1011000000000000000000",
      "reserved": "",
      "salt": "0x051e7f7ac4f8a0c4374a773a513487295cab867e282275f8a8288a4a02fda64e",
      "assetIds": []
    },
    {
      "x": 218,
      "y": 82,
      "size": 1,
      "price": "1011000000000000000000",
      "reserved": "",
      "salt": "0xf5b64b57dbecccbd6ceaef47ddb517271d275783e421f863a169835104c07827",
      "assetIds": []
    },
    {
      "x": 218,
      "y": 83,
      "size": 1,
      "price": "1011000000000000000000",
      "reserved": "",
      "salt": "0xd2246a2d9e4a9ce8d4b8d180b878a7fe38dff7c8dab211de25a8effe29e22688",
      "assetIds": []
    },
    {
      "x": 219,
      "y": 75,
      "size": 1,
      "price": "1011000000000000000000",
      "reserved": "",
      "salt": "0x132b9ec75fe5cbc0431dbd3f8f60b5f529ba8d4a6949317cfbe234af3807d50f",
      "assetIds": []
    },
    {
      "x": 219,
      "y": 76,
      "size": 1,
      "price": "1011000000000000000000",
      "reserved": "",
      "salt": "0x4ad752ae2286d5384f4d60c121d659bd95502019632a6e85ad80c1ab192cdf47",
      "assetIds": []
    },
    {
      "x": 219,
      "y": 77,
      "size": 1,
      "price": "1011000000000000000000",
      "reserved": "",
      "salt": "0x1bf7210c0336f9c4cef51dd257d0b892f19ecc877b512598c6aea41c1d24bf43",
      "assetIds": []
    },
    {
      "x": 220,
      "y": 75,
      "size": 1,
      "price": "1011000000000000000000",
      "reserved": "",
      "salt": "0xe211c47cb5b9fa755945aaac90d3111289bb9f3ee1e70fec8783e5b61f54c259",
      "assetIds": []
    },
    {
      "x": 220,
      "y": 76,
      "size": 1,
      "price": "1011000000000000000000",
      "reserved": "",
      "salt": "0x2abc259df319d92e6034067989b76f97c18c4867b629371a97e7694e9132c777",
      "assetIds": []
    },
    {
      "x": 220,
      "y": 77,
      "size": 1,
      "price": "1011000000000000000000",
      "reserved": "",
      "salt": "0x4d811e0d08ea8126c09030a7edd75934840170dc4429f14d274f58549fbbaf8d",
      "assetIds": []
    },
    {
      "x": 221,
      "y": 75,
      "size": 1,
      "price": "1011000000000000000000",
      "reserved": "",
      "salt": "0x8ee0a841b53d7bf19a469960fc6da5ba9a626ce1c282d50b46744a27498433f4",
      "assetIds": []
    },
    {
      "x": 221,
      "y": 76,
      "size": 1,
      "price": "1011000000000000000000",
      "reserved": "",
      "salt": "0x388e5b2deab0b2dbb0c9b4763f011a0a6cbdcc7b2fee4930fc5a9e42c473a5a6",
      "assetIds": []
    },
    {
      "x": 221,
      "y": 77,
      "size": 1,
      "price": "1011000000000000000000",
      "reserved": "",
      "salt": "0xb92582e06d51b38dba727f5217b73222fa2b3cf470e41f8e2703abd33e3bc981",
      "assetIds": []
    },
    {
      "x": 192,
      "y": 78,
      "size": 3,
      "price": "8648000000000000000000",
      "reserved": "0x7a9fe22691c811ea339d9b73150e6911a5343dca",
      "salt": "0x35d664917a95220c7aa0874d3597bbf05fa4c7726f322029294a7e973d4a5fd7",
      "assetIds": []
    },
    {
      "x": 195,
      "y": 84,
      "size": 3,
      "price": "8648000000000000000000",
      "reserved": "0x7a9fe22691c811ea339d9b73150e6911a5343dca",
      "salt": "0x25536d74225f4af4126a10034715063b1b721f14a1264f0e2c112413a25f88e8",
      "assetIds": []
    },
    {
      "x": 210,
      "y": 99,
      "size": 3,
      "price": "8648000000000000000000",
      "reserved": "0x7a9fe22691c811ea339d9b73150e6911a5343dca",
      "salt": "0x5de55370eab5ae635c040438c590ac317216e29df00d004240d36dc3621ed77a",
      "assetIds": []
    },
    {
      "x": 216,
      "y": 75,
      "size": 3,
      "price": "8648000000000000000000",
      "reserved": "0x7a9fe22691c811ea339d9b73150e6911a5343dca",
      "salt": "0x8ac2dea639a573bbe5645a422a377af5cfbc7c06123c3c0822437555076a11fb",
      "assetIds": []
    },
    {
      "x": 198,
      "y": 78,
      "size": 6,
      "price": "32772000000000000000000",
      "reserved": "0x7a9fe22691c811ea339d9b73150e6911a5343dca",
      "salt": "0x9ab09720f6e9ffcd4cf105adc3f7e99ca62d552e6e88a81cc7bc770a674a6d10",
      "assetIds": []
    },
    {
      "x": 198,
      "y": 90,
      "size": 6,
      "price": "32772000000000000000000",
      "reserved": "0x7a9fe22691c811ea339d9b73150e6911a5343dca",
      "salt": "0x80035a5f23d94c092b489f55780ffce62e2213f38538f7f39272aae09ec3c94c",
      "assetIds": []
    },
    {
      "x": 204,
      "y": 96,
      "size": 6,
      "price": "32772000000000000000000",
      "reserved": "0x7a9fe22691c811ea339d9b73150e6911a5343dca",
      "salt": "0xd6e830d4e304f3c87e1f8b7aecb51e07029fb385c509bf5607f18882633efc70",
      "assetIds": []
    },
    {
      "x": 210,
      "y": 78,
      "size": 6,
      "price": "32772000000000000000000",
      "reserved": "0x7a9fe22691c811ea339d9b73150e6911a5343dca",
      "salt": "0xc8eaa6c8a292fe9150b60808e44deac5d6c56146a91cc57ff5f7f12f81955b51",
      "assetIds": []
    }
  ],
  "solcInputHash": "e17a5bb930c92aaeeb80a52119ce77b7",
  "bytecode": "0x610160604052620d2f0060055534801561001857600080fd5b506040516200284d3803806200284d83398181016040526101a081101561003e57600080fd5b50805160208201516040830151606080850151608086015160a08088015160c0808a015160e08b01516101008c01516101208d01516101408e01516101608f0151610180909f0151600280546001600160a01b0319166001600160a01b03871617905560038490558e8c1b6001600160601b03199081169099529a8d901b9097169094529a9b999a98999698959793969195909490939091906100e28b600161015d565b600680546001600160a01b039a8b166001600160a01b031991821617909155610140989098526101209690965260008054998916998816999099179098556001600160601b0319606092831b811660e05290821b811660805296901b909516610100525060078054919093169116179055506101c192505050565b6001600160a01b038216600081815260016020908152604091829020805460ff191685151590811790915582519384529083015280517fb21eb88b4e33b3f1281830a7178d74d8aa73220416215726b68ae23d539515cb9281900390910190a15050565b60805160601c60a05160601c60c05160601c60e05160601c6101005160601c61012051610140516126066200024760003980610b3d528061206c525080610b1952806112ec5250806120da525080611841528061199e5250806117f75280611b9d528061210e525080611872528061196f525080610eb25280611c8952506126066000f3fe608060405234801561001057600080fd5b506004361061011b5760003560e01c80638f283970116100b2578063c10a420811610081578063dc5074af11610066578063dc5074af1461085f578063e56f8a9e14610885578063f23a6e61146108a25761011b565b8063c10a420814610780578063caed3500146108575761011b565b80638f28397014610500578063984d625214610526578063b522ecff146105f8578063bc197c811461061e5761011b565b806365194ce7116100ee57806365194ce7146103485780636e9960c3146104a657806377f1c3ac146104ca5780638a04af6a146104d25761011b565b80631187fd3c1461012057806325cb5bc014610300578063495906571461031a57806358bc294414610322575b600080fd5b6102fe600480360361012081101561013757600080fd5b6001600160a01b038235811692602081013582169260408201359092169181019060808101606082013564010000000081111561017357600080fd5b82018360208201111561018557600080fd5b803590602001918460208302840111640100000000831117156101a757600080fd5b919390928235926040810190602001356401000000008111156101c957600080fd5b8201836020820111156101db57600080fd5b803590602001918460208302840111640100000000831117156101fd57600080fd5b91939092909160208101903564010000000081111561021b57600080fd5b82018360208201111561022d57600080fd5b8035906020019184602083028401116401000000008311171561024f57600080fd5b91939092909160208101903564010000000081111561026d57600080fd5b82018360208201111561027f57600080fd5b803590602001918460018302840111640100000000831117156102a157600080fd5b9193909290916020810190356401000000008111156102bf57600080fd5b8201836020820111156102d157600080fd5b803590602001918460018302840111640100000000831117156102f357600080fd5b509092509050610937565b005b610308610b17565b60408051918252519081900360200190f35b610308610b3b565b6102fe6004803603602081101561033857600080fd5b50356001600160a01b0316610b5f565b6103ee6004803603602081101561035e57600080fd5b81019060208101813564010000000081111561037957600080fd5b82018360208201111561038b57600080fd5b803590602001918460018302840111640100000000831117156103ad57600080fd5b91908080601f016020809104026020016040519081016040528093929190818152602001838380828437600092019190915250929550610c0a945050505050565b6040518080602001866001600160a01b03166001600160a01b03168152602001856001600160a01b03166001600160a01b03168152602001848152602001838152602001828103825287818151815260200191508051906020019080838360005b8381101561046757818101518382015260200161044f565b50505050905090810190601f1680156104945780820380516001836020036101000a031916815260200191505b50965050505050505060405180910390f35b6104ae610d0f565b604080516001600160a01b039092168252519081900360200190f35b610308610d1e565b6102fe600480360360408110156104e857600080fd5b506001600160a01b0381351690602001351515610d24565b6102fe6004803603602081101561051657600080fd5b50356001600160a01b0316610d7b565b6102fe6004803603606081101561053c57600080fd5b6001600160a01b03823516919081019060408101602082013564010000000081111561056757600080fd5b82018360208201111561057957600080fd5b8035906020019184602083028401116401000000008311171561059b57600080fd5b9193909290916020810190356401000000008111156105b957600080fd5b8201836020820111156105cb57600080fd5b803590602001918460208302840111640100000000831117156105ed57600080fd5b509092509050610e51565b6102fe6004803603602081101561060e57600080fd5b50356001600160a01b0316610fdc565b61074b600480360360a081101561063457600080fd5b6001600160a01b03823581169260208101359091169181019060608101604082013564010000000081111561066857600080fd5b82018360208201111561067a57600080fd5b8035906020019184602083028401116401000000008311171561069c57600080fd5b9193909290916020810190356401000000008111156106ba57600080fd5b8201836020820111156106cc57600080fd5b803590602001918460208302840111640100000000831117156106ee57600080fd5b91939092909160208101903564010000000081111561070c57600080fd5b82018360208201111561071e57600080fd5b8035906020019184600183028401116401000000008311171561074057600080fd5b5090925090506110c5565b604080517fffffffff000000000000000000000000000000000000000000000000000000009092168252519081900360200190f35b610843600480360360a081101561079657600080fd5b8101906020810181356401000000008111156107b157600080fd5b8201836020820111156107c357600080fd5b803590602001918460018302840111640100000000831117156107e557600080fd5b91908080601f016020809104026020016040519081016040528093929190818152602001838380828437600092019190915250929550506001600160a01b0383358116945060208401351692604081013592506060013590506110f2565b604080519115158252519081900360200190f35b6104ae61122e565b6108436004803603602081101561087557600080fd5b50356001600160a01b031661123d565b6102fe6004803603602081101561089b57600080fd5b503561125b565b61074b600480360360a08110156108b857600080fd5b6001600160a01b03823581169260208101359091169160408201359160608101359181019060a0810160808201356401000000008111156108f857600080fd5b82018360208201111561090a57600080fd5b8035906020019184600183028401116401000000008311171561092c57600080fd5b5090925090506112bf565b6109418e8d6112ea565b610a388d8d8d8d80806020026020016040519081016040528093929190818152602001838360200280828437600081840152601f19601f820116905080830192505050505050508c8c8c80806020026020016040519081016040528093929190818152602001838360200280828437600081840152601f19601f820116905080830192505050505050508b8b8080602002602001604051908101604052809392919081815260200183836020028082843760009201919091525050604080516020601f8d018190048102820181019092528b815292508b91508a908190840183828082843760009201919091525061144d92505050565b610a8c8e8c8c6003818110610a4957fe5b9050602002013586868080601f0160208091040260200160405190810160405280939291908181526020018383808284376000920191909152506117d092505050565b610aca8e8e8d8d8080602002602001604051908101604052809392919081815260200183836020028082843760009201919091525061182192505050565b610b078d898980806020026020016040519081016040528093929190818152602001838360200280828437600092019190915250611c1292505050565b5050505050505050505050505050565b7f000000000000000000000000000000000000000000000000000000000000000090565b7f000000000000000000000000000000000000000000000000000000000000000090565b6000546001600160a01b03163314610bbe576040805162461bcd60e51b815260206004820152601060248201527f53656e646572206e6f742061646d696e00000000000000000000000000000000604482015290519081900360640190fd5b600554600280546001600160a01b03908116600090815260046020526040902042909301909255805473ffffffffffffffffffffffffffffffffffffffff191692909116919091179055565b606060008060008060606000806000808a80602001905160a0811015610c2f57600080fd5b8101908080516040519392919084640100000000821115610c4f57600080fd5b908301906020820185811115610c6457600080fd5b8251640100000000811182820188101715610c7e57600080fd5b82525081516020918201929091019080838360005b83811015610cab578181015183820152602001610c93565b50505050905090810190601f168015610cd85780820380516001836020036101000a031916815260200191505b5060409081526020820151908201516060830151608090930151959f50909d509b5099509197505050505050505091939590929450565b6000546001600160a01b031690565b60035490565b6000546001600160a01b03163314610d6d5760405162461bcd60e51b815260040180806020018281038252602e8152602001806125a3602e913960400191505060405180910390fd5b610d778282611dd6565b5050565b6000546001600160a01b03163314610dda576040805162461bcd60e51b815260206004820152601b60248201527f6f6e6c792061646d696e2063616e206368616e67652061646d696e0000000000604482015290519081900360640190fd5b600054604080516001600160a01b039283168152918316602083015280517f7e644d79422f17c01e4894b5f4f588d331ebfa28653d42ae832dc59e38c9798f9281900390910190a16000805473ffffffffffffffffffffffffffffffffffffffff19166001600160a01b0392909216919091179055565b6000546001600160a01b03163314610eb0576040805162461bcd60e51b815260206004820152600e60248201527f4e4f545f415554484f52495a4544000000000000000000000000000000000000604482015290519081900360640190fd5b7f00000000000000000000000000000000000000000000000000000000000000006001600160a01b0316632eb2c2d63087878787876040518763ffffffff1660e01b815260040180876001600160a01b03166001600160a01b03168152602001866001600160a01b03166001600160a01b031681526020018060200180602001806020018481038452888882818152602001925060200280828437600083820152601f01601f19169091018581038452868152602090810191508790870280828437600081840152601f19601f8201169050808301925050508481038252600081526020016020019950505050505050505050600060405180830381600087803b158015610fbd57600080fd5b505af1158015610fd1573d6000803e3d6000fd5b505050505050505050565b6001600160a01b038116611037576040805162461bcd60e51b815260206004820152600c60248201527f5a45524f5f414444524553530000000000000000000000000000000000000000604482015290519081900360640190fd5b6000546001600160a01b03163314611096576040805162461bcd60e51b815260206004820152600e60248201527f4e4f545f415554484f52495a4544000000000000000000000000000000000000604482015290519081900360640190fd5b6006805473ffffffffffffffffffffffffffffffffffffffff19166001600160a01b0392909216919091179055565b7fbc197c810000000000000000000000000000000000000000000000000000000098975050505050505050565b60006003548211806111155750836001600160a01b0316856001600160a01b0316145b8061111f57508242115b1561112c57506000611225565b60408051606087811b7fffffffffffffffffffffffffffffffffffffffff0000000000000000000000009081166020808501919091529188901b166034830152604882018690526068808301869052835180840390910181526088830184528051908201207f19457468657265756d205369676e6564204d6573736167653a0a33320000000060a884015260c48084018290528451808503909101815260e490930190935281519101206000906111e39089611e58565b6001600160a01b038116600090815260046020526040902054909150421161121057600192505050611225565b6002546001600160a01b039081169116149150505b95945050505050565b6002546001600160a01b031690565b6001600160a01b031660009081526001602052604090205460ff1690565b6000546001600160a01b031633146112ba576040805162461bcd60e51b815260206004820152601060248201527f53656e646572206e6f742061646d696e00000000000000000000000000000000604482015290519081900360640190fd5b600355565b7ff23a6e61000000000000000000000000000000000000000000000000000000009695505050505050565b7f0000000000000000000000000000000000000000000000000000000000000000421061135e576040805162461bcd60e51b815260206004820152600c60248201527f53414c455f49535f4f5645520000000000000000000000000000000000000000604482015290519081900360640190fd5b6001600160a01b03821633148061138457503360009081526001602052604090205460ff165b6113d5576040805162461bcd60e51b815260206004820152600e60248201527f4e4f545f415554484f52495a4544000000000000000000000000000000000000604482015290519081900360640190fd5b6001600160a01b03811615806113fc5750816001600160a01b0316816001600160a01b0316145b610d77576040805162461bcd60e51b815260206004820152600d60248201527f52455345525645445f4c414e4400000000000000000000000000000000000000604482015290519081900360640190fd5b600087878760008151811061145e57fe5b60200260200101518860018151811061147357fe5b60200260200101518960028151811061148857fe5b60200260200101518a60038151811061149d57fe5b60200260200101518a8a60405160200180828051906020019060200280838360005b838110156114d75781810151838201526020016114bf565b50505050905001915050604051602081830303815290604052805190602001208a60405160200180828051906020019060200280838360005b83811015611528578181015183820152602001611510565b5050505090500191505060405160208183030381529060405280519060200120604051602001808a6001600160a01b03166001600160a01b031660601b8152601401896001600160a01b03166001600160a01b031660601b81526014018881526020018781526020018681526020018581526020018481526020018381526020018281526020019950505050505050505050604051602081830303815290604052805190602001209050600760009054906101000a90046001600160a01b03166001600160a01b031663012847ed83836040518363ffffffff1660e01b81526004018080602001838152602001828103825284818151815260200191508051906020019080838360005b8381101561164a578181015183820152602001611632565b50505050905090810190601f1680156116775780820380516001836020036101000a031916815260200191505b50935050505060206040518083038186803b15801561169557600080fd5b505afa1580156116a9573d6000803e3d6000fd5b505050506040513d60208110156116bf57600080fd5b5051611712576040805162461bcd60e51b815260206004820152600c60248201527f494e56414c49445f415554480000000000000000000000000000000000000000604482015290519081900360640190fd5b60006117738760008151811061172457fe5b60200260200101518860018151811061173957fe5b60200260200101518960028151811061174e57fe5b60200260200101518a60038151811061176357fe5b60200260200101518c8b8b611f25565b905061177f8482611fca565b610fd1576040805162461bcd60e51b815260206004820152600c60248201527f494e56414c49445f4c414e440000000000000000000000000000000000000000604482015290519081900360640190fd5b60006117dc8484612095565b60065490915061181b908590839085906001600160a01b03167f00000000000000000000000000000000000000000000000000000000000000006121ee565b50505050565b8060028151811061182e57fe5b60200260200101516001148061186b57507f00000000000000000000000000000000000000000000000000000000000000006001600160a01b0316155b1561196d577f00000000000000000000000000000000000000000000000000000000000000006001600160a01b0316636e1e3bbf83836002815181106118ad57fe5b6020026020010151846000815181106118c257fe5b6020026020010151856001815181106118d757fe5b60200260200101516040518563ffffffff1660e01b815260040180856001600160a01b03166001600160a01b031681526020018481526020018381526020018281526020018060200182810382526000815260200160200195505050505050600060405180830381600087803b15801561195057600080fd5b505af1158015611964573d6000803e3d6000fd5b50505050611b0d565b7f00000000000000000000000000000000000000000000000000000000000000006001600160a01b0316636e1e3bbf7f0000000000000000000000000000000000000000000000000000000000000000836002815181106119ca57fe5b6020026020010151846000815181106119df57fe5b6020026020010151856001815181106119f457fe5b60200260200101518760405160200180826001600160a01b03166001600160a01b031681526020019150506040516020818303038152906040526040518663ffffffff1660e01b815260040180866001600160a01b03166001600160a01b0316815260200185815260200184815260200183815260200180602001828103825283818151815260200191508051906020019080838360005b83811015611aa4578181015183820152602001611a8c565b50505050905090810190601f168015611ad15780820380516001836020036101000a031916815260200191505b509650505050505050600060405180830381600087803b158015611af457600080fd5b505af1158015611b08573d6000803e3d6000fd5b505050505b61019881600181518110611b1d57fe5b60200260200101510281600081518110611b3357fe5b602002602001015101826001600160a01b0316846001600160a01b03167fe4dfa6ac11314892f3029b34a25b1a887da3b1cab2bbf8506d87128ba6e3ac0284600281518110611b7e57fe5b602002602001015185600381518110611b9357fe5b60200260200101517f000000000000000000000000000000000000000000000000000000000000000087600381518110611bc957fe5b602002602001015160405180858152602001848152602001836001600160a01b03166001600160a01b0316815260200182815260200194505050505060405180910390a4505050565b6060815167ffffffffffffffff81118015611c2c57600080fd5b50604051908082528060200260200182016040528015611c56578160200160208202803683370190505b50905060005b8251811015611c86576001828281518110611c7357fe5b6020908102919091010152600101611c5c565b507f00000000000000000000000000000000000000000000000000000000000000006001600160a01b0316632eb2c2d6308585856040518563ffffffff1660e01b815260040180856001600160a01b03166001600160a01b03168152602001846001600160a01b03166001600160a01b03168152602001806020018060200180602001848103845286818151815260200191508051906020019060200280838360005b83811015611d41578181015183820152602001611d29565b50505050905001848103835285818151815260200191508051906020019060200280838360005b83811015611d80578181015183820152602001611d68565b50505050905001848103825260008152602001602001975050505050505050600060405180830381600087803b158015611db957600080fd5b505af1158015611dcd573d6000803e3d6000fd5b50505050505050565b6001600160a01b03821660008181526001602090815260409182902080547fffffffffffffffffffffffffffffffffffffffffffffffffffffffffffffff001685151590811790915582519384529083015280517fb21eb88b4e33b3f1281830a7178d74d8aa73220416215726b68ae23d539515cb9281900390910190a15050565b60008151604114611e6857600080fd5b60208201516040830151606084015160001a601b811015611e8757601b015b8060ff16601b1480611e9c57508060ff16601c145b611ea557600080fd5b6040805160008152602080820180845289905260ff8416828401526060820186905260808201859052915160019260a0808401939192601f1981019281900390910190855afa158015611efc573d6000803e3d6000fd5b5050604051601f1901519450506001600160a01b038416611f1c57600080fd5b50505092915050565b60008787878787878760405160200180888152602001878152602001868152602001858152602001846001600160a01b03166001600160a01b031660601b8152601401838152602001828051906020019060200280838360005b83811015611f97578181015183820152602001611f7f565b50505050905001975050505050505050604051602081830303815290604052805190602001209050979650505050505050565b600081815b8451811015612069576000858281518110611fe657fe5b602002602001015190508083101561202e5782816040516020018083815260200182815260200192505050604051602081830303815290604052805190602001209250612060565b808360405160200180838152602001828152602001925050506040516020818303038152906040528051906020012092505b50600101611fcf565b507f00000000000000000000000000000000000000000000000000000000000000001490505b92915050565b6000806120ba60646120ae85600563ffffffff61247016565b9063ffffffff6124e016565b604080516323b872dd60e01b81526001600160a01b0387811660048301527f0000000000000000000000000000000000000000000000000000000000000000811660248301526044820184905291519293507f0000000000000000000000000000000000000000000000000000000000000000909116916323b872dd916064808201926020929091908290030181600087803b15801561215957600080fd5b505af115801561216d573d6000803e3d6000fd5b505050506040513d602081101561218357600080fd5b50516121d6576040805162461bcd60e51b815260206004820152601360248201527f4645455f5452414e534645525f4641494c454400000000000000000000000000604482015290519081900360640190fd5b6121e6838263ffffffff61254516565b949350505050565b8251819085901561239857606060008060008061220a8a610c0a565b939850919650945092509050600061222586868686866110f2565b156122b35761223f6122378d84612470565b6127106124e0565b9050886001600160a01b0316846001600160a01b0316866001600160a01b03167fac7a699eb95c3c6d390ec4626de17ef9a67b35891efdb197beba7c7fdd45fac48f858760405180848152602001838152602001828152602001935050505060405180910390a46122b08782612545565b96505b801561239157604080516323b872dd60e01b81526001600160a01b038f811660048301528781166024830152604482018490529151918a16916323b872dd916064808201926020929091908290030181600087803b15801561231457600080fd5b505af1158015612328573d6000803e3d6000fd5b505050506040513d602081101561233e57600080fd5b5051612391576040805162461bcd60e51b815260206004820152601960248201527f636f6d6d6973696f6e207472616e73666572206661696c656400000000000000604482015290519081900360640190fd5b5050505050505b604080516323b872dd60e01b81526001600160a01b0389811660048301528681166024830152604482018490529151918416916323b872dd916064808201926020929091908290030181600087803b1580156123f357600080fd5b505af1158015612407573d6000803e3d6000fd5b505050506040513d602081101561241d57600080fd5b5051611dcd576040805162461bcd60e51b815260206004820152601760248201527f7061796d656e74207472616e73666572206661696c6564000000000000000000604482015290519081900360640190fd5b60008261247f5750600061208f565b508181028183828161248d57fe5b041461208f576040805162461bcd60e51b815260206004820152600860248201527f6f766572666c6f77000000000000000000000000000000000000000000000000604482015290519081900360640190fd5b600081612534576040805162461bcd60e51b815260206004820152600960248201527f64697662797a65726f0000000000000000000000000000000000000000000000604482015290519081900360640190fd5b81838161253d57fe5b049392505050565b60008282111561259c576040805162461bcd60e51b815260206004820152600860248201527f756e6465666c6f77000000000000000000000000000000000000000000000000604482015290519081900360640190fd5b5090039056fe6f6e6c792061646d696e2063616e207365747570206d6574615472616e73616374696f6e50726f636573736f7273a2646970667358221220fc9205bafc138c1de206481f144dc3e7818922fbe1a20d2a71392e5e2e413c1a64736f6c63430006050033",
  "devdoc": {
    "methods": {
      "buyLandWithSand(address,address,address,uint256[],bytes32,uint256[],bytes32[],bytes,bytes)": {
        "params": {
          "buyer": "address that perform the payment",
          "info": "[X_INDEX=0] x coordinate of the Land [Y_INDEX=1] y coordinate of the Land [SIZE_INDEX=2] size of the pack of Land to purchase [PRICE_INDEX=3] price in SAND to purchase that Land",
          "proof": "merkleProof for that particular Land",
          "reserved": "the reserved address (if any)",
          "to": "address that will own the purchased Land"
        }
      },
      "changeAdmin(address)": {
        "details": "change the administrator to be `newAdmin`.",
        "params": {
          "newAdmin": "address of the new administrator."
        }
      },
      "getAdmin()": {
        "details": "gives the current administrator of this contract.",
        "returns": {
          "_0": "the current administrator of this contract."
        }
      },
      "getSigningWallet()": {
        "details": "signing wallet authorized for referral",
        "returns": {
          "_0": "the address of the signing wallet"
        }
      },
      "isMetaTransactionProcessor(address)": {
        "details": "check whether address `who` is given meta-transaction execution rights.",
        "params": {
          "who": "The address to query."
        },
        "returns": {
          "_0": "whether the address has meta-transaction execution rights."
        }
      },
      "isReferralValid(bytes,address,address,uint256,uint256)": {
        "params": {
          "commissionRate": "The commissionRate of the referral",
          "expiryTime": "The expiry time of the referral",
          "referee": "The address of the referee",
          "referrer": "The address of the referrer",
          "signature": "The signature to check (signed referral)"
        },
        "returns": {
          "_0": "True if the referral is valid"
        }
      },
      "setMetaTransactionProcessor(address,bool)": {
        "details": "Enable or disable the ability of `metaTransactionProcessor` to perform meta-tx (metaTransactionProcessor rights).",
        "params": {
          "enabled": "set whether the metaTransactionProcessor is enabled or disabled.",
          "metaTransactionProcessor": "address that will be given/removed metaTransactionProcessor rights."
        }
      },
      "setReceivingWallet(address)": {
        "params": {
          "newWallet": "address of the new receiving wallet"
        }
      },
      "updateMaxCommissionRate(uint256)": {
        "details": "Update the maximum commission rate",
        "params": {
          "newMaxCommissionRate": "The new maximum commission rate"
        }
      },
      "updateSigningWallet(address)": {
        "details": "Update the signing wallet",
        "params": {
          "newSigningWallet": "The new address of the signing wallet"
        }
      },
      "withdrawAssets(address,uint256[],uint256[])": {
        "params": {
          "assetIds": "the assetIds to be transferred",
          "to": "intended recipient of the asset tokens",
          "values": "the quantities of the assetIds to be transferred"
        }
      }
    },
    "title": "Estate Sale contract with referral"
  },
  "userdoc": {
    "methods": {
      "buyLandWithSand(address,address,address,uint256[],bytes32,uint256[],bytes32[],bytes,bytes)": {
        "notice": "buy Land with SAND using the merkle proof associated with it"
      },
      "getExpiryTime()": {
        "notice": "Gets the expiry time for the current sale"
      },
      "getMaxCommisionRate()": {
        "notice": "the max commision rate"
      },
      "getMerkleRoot()": {
        "notice": "Gets the Merkle root associated with the current sale"
      },
      "isReferralValid(bytes,address,address,uint256,uint256)": {
        "notice": "Check if a referral is valid"
      },
      "setReceivingWallet(address)": {
        "notice": "set the wallet receiving the proceeds"
      },
      "withdrawAssets(address,uint256[],uint256[])": {
        "notice": "enable Admin to withdraw remaining assets from EstateSaleWithFee contract"
      }
    },
    "notice": "This contract manages the sale of our lands as Estates"
  },
  "storageLayout": {
    "storage": [
      {
        "astId": 13650,
        "contract": "src/solc_0.6/EstateSale/EstateSaleWithAuth.sol:EstateSaleWithAuth",
        "label": "_admin",
        "offset": 0,
        "slot": "0",
        "type": "t_address"
      },
      {
        "astId": 13712,
        "contract": "src/solc_0.6/EstateSale/EstateSaleWithAuth.sol:EstateSaleWithAuth",
        "label": "_metaTransactionContracts",
        "offset": 0,
        "slot": "1",
        "type": "t_mapping(t_address,t_bool)"
      },
      {
        "astId": 11828,
        "contract": "src/solc_0.6/EstateSale/EstateSaleWithAuth.sol:EstateSaleWithAuth",
        "label": "_signingWallet",
        "offset": 0,
        "slot": "2",
        "type": "t_address"
      },
      {
        "astId": 11830,
        "contract": "src/solc_0.6/EstateSale/EstateSaleWithAuth.sol:EstateSaleWithAuth",
        "label": "_maxCommissionRate",
        "offset": 0,
        "slot": "3",
        "type": "t_uint256"
      },
      {
        "astId": 11834,
        "contract": "src/solc_0.6/EstateSale/EstateSaleWithAuth.sol:EstateSaleWithAuth",
        "label": "_previousSigningWallets",
        "offset": 0,
        "slot": "4",
        "type": "t_mapping(t_address,t_uint256)"
      },
      {
        "astId": 11843,
        "contract": "src/solc_0.6/EstateSale/EstateSaleWithAuth.sol:EstateSaleWithAuth",
        "label": "_previousSigningDelay",
        "offset": 0,
        "slot": "5",
        "type": "t_uint256"
      },
      {
        "astId": 7453,
        "contract": "src/solc_0.6/EstateSale/EstateSaleWithAuth.sol:EstateSaleWithAuth",
        "label": "_wallet",
        "offset": 0,
        "slot": "6",
        "type": "t_address_payable"
      },
      {
        "astId": 7455,
        "contract": "src/solc_0.6/EstateSale/EstateSaleWithAuth.sol:EstateSaleWithAuth",
        "label": "_authValidator",
        "offset": 0,
        "slot": "7",
        "type": "t_contract(AuthValidator)6784"
      }
    ],
    "types": {
      "t_address": {
        "encoding": "inplace",
        "label": "address",
        "numberOfBytes": "20"
      },
      "t_address_payable": {
        "encoding": "inplace",
        "label": "address payable",
        "numberOfBytes": "20"
      },
      "t_bool": {
        "encoding": "inplace",
        "label": "bool",
        "numberOfBytes": "1"
      },
      "t_contract(AuthValidator)6784": {
        "encoding": "inplace",
        "label": "contract AuthValidator",
        "numberOfBytes": "20"
      },
      "t_mapping(t_address,t_bool)": {
        "encoding": "mapping",
        "key": "t_address",
        "label": "mapping(address => bool)",
        "numberOfBytes": "32",
        "value": "t_bool"
      },
      "t_mapping(t_address,t_uint256)": {
        "encoding": "mapping",
        "key": "t_address",
        "label": "mapping(address => uint256)",
        "numberOfBytes": "32",
        "value": "t_uint256"
      },
      "t_uint256": {
        "encoding": "inplace",
        "label": "uint256",
        "numberOfBytes": "32"
      }
    }
  }
}