{
  "address": "0x11332c5a837fAB3C07Bd28e9a250D9AB82599e8f",
  "abi": [
    {
      "inputs": [
        {
          "internalType": "address",
          "name": "landAddress",
          "type": "address"
        },
        {
          "internalType": "address",
          "name": "sandContractAddress",
          "type": "address"
        },
        {
          "internalType": "address",
          "name": "initialMetaTx",
          "type": "address"
        },
        {
          "internalType": "address",
          "name": "admin",
          "type": "address"
        },
        {
          "internalType": "address payable",
          "name": "initialWalletAddress",
          "type": "address"
        },
        {
          "internalType": "bytes32",
          "name": "merkleRoot",
          "type": "bytes32"
        },
        {
          "internalType": "uint256",
          "name": "expiryTime",
          "type": "uint256"
        },
        {
          "internalType": "address",
          "name": "initialSigningWallet",
          "type": "address"
        },
        {
          "internalType": "uint256",
          "name": "initialMaxCommissionRate",
          "type": "uint256"
        },
        {
          "internalType": "address",
          "name": "estate",
          "type": "address"
        },
        {
          "internalType": "address",
          "name": "asset",
          "type": "address"
        },
        {
          "internalType": "address",
          "name": "feeDistributor",
          "type": "address"
        }
      ],
      "stateMutability": "nonpayable",
      "type": "constructor"
    },
    {
      "anonymous": false,
      "inputs": [
        {
          "indexed": false,
          "internalType": "address",
          "name": "oldAdmin",
          "type": "address"
        },
        {
          "indexed": false,
          "internalType": "address",
          "name": "newAdmin",
          "type": "address"
        }
      ],
      "name": "AdminChanged",
      "type": "event"
    },
    {
      "anonymous": false,
      "inputs": [
        {
          "indexed": true,
          "internalType": "address",
          "name": "buyer",
          "type": "address"
        },
        {
          "indexed": true,
          "internalType": "address",
          "name": "to",
          "type": "address"
        },
        {
          "indexed": true,
          "internalType": "uint256",
          "name": "topCornerId",
          "type": "uint256"
        },
        {
          "indexed": false,
          "internalType": "uint256",
          "name": "size",
          "type": "uint256"
        },
        {
          "indexed": false,
          "internalType": "uint256",
          "name": "price",
          "type": "uint256"
        },
        {
          "indexed": false,
          "internalType": "address",
          "name": "token",
          "type": "address"
        },
        {
          "indexed": false,
          "internalType": "uint256",
          "name": "amountPaid",
          "type": "uint256"
        }
      ],
      "name": "LandQuadPurchased",
      "type": "event"
    },
    {
      "anonymous": false,
      "inputs": [
        {
          "indexed": false,
          "internalType": "address",
          "name": "metaTransactionProcessor",
          "type": "address"
        },
        {
          "indexed": false,
          "internalType": "bool",
          "name": "enabled",
          "type": "bool"
        }
      ],
      "name": "MetaTransactionProcessor",
      "type": "event"
    },
    {
      "anonymous": false,
      "inputs": [
        {
          "indexed": true,
          "internalType": "address",
          "name": "referrer",
          "type": "address"
        },
        {
          "indexed": true,
          "internalType": "address",
          "name": "referee",
          "type": "address"
        },
        {
          "indexed": true,
          "internalType": "address",
          "name": "token",
          "type": "address"
        },
        {
          "indexed": false,
          "internalType": "uint256",
          "name": "amount",
          "type": "uint256"
        },
        {
          "indexed": false,
          "internalType": "uint256",
          "name": "commission",
          "type": "uint256"
        },
        {
          "indexed": false,
          "internalType": "uint256",
          "name": "commissionRate",
          "type": "uint256"
        }
      ],
      "name": "ReferralUsed",
      "type": "event"
    },
    {
      "inputs": [
        {
          "internalType": "address",
          "name": "buyer",
          "type": "address"
        },
        {
          "internalType": "address",
          "name": "to",
          "type": "address"
        },
        {
          "internalType": "address",
          "name": "reserved",
          "type": "address"
        },
        {
          "internalType": "uint256",
          "name": "x",
          "type": "uint256"
        },
        {
          "internalType": "uint256",
          "name": "y",
          "type": "uint256"
        },
        {
          "internalType": "uint256",
          "name": "size",
          "type": "uint256"
        },
        {
          "internalType": "uint256",
          "name": "priceInSand",
          "type": "uint256"
        },
        {
          "internalType": "uint256",
          "name": "adjustedPriceInSand",
          "type": "uint256"
        },
        {
          "internalType": "bytes32",
          "name": "salt",
          "type": "bytes32"
        },
        {
          "internalType": "uint256[]",
          "name": "assetIds",
          "type": "uint256[]"
        },
        {
          "internalType": "bytes32[]",
          "name": "proof",
          "type": "bytes32[]"
        },
        {
          "internalType": "bytes",
          "name": "referral",
          "type": "bytes"
        }
      ],
      "name": "buyLandWithSand",
      "outputs": [],
      "stateMutability": "nonpayable",
      "type": "function"
    },
    {
      "inputs": [
        {
          "internalType": "address",
          "name": "newAdmin",
          "type": "address"
        }
      ],
      "name": "changeAdmin",
      "outputs": [],
      "stateMutability": "nonpayable",
      "type": "function"
    },
    {
      "inputs": [
        {
          "internalType": "bytes",
          "name": "referral",
          "type": "bytes"
        }
      ],
      "name": "decodeReferral",
      "outputs": [
        {
          "internalType": "bytes",
          "name": "",
          "type": "bytes"
        },
        {
          "internalType": "address",
          "name": "",
          "type": "address"
        },
        {
          "internalType": "address",
          "name": "",
          "type": "address"
        },
        {
          "internalType": "uint256",
          "name": "",
          "type": "uint256"
        },
        {
          "internalType": "uint256",
          "name": "",
          "type": "uint256"
        }
      ],
      "stateMutability": "pure",
      "type": "function"
    },
    {
      "inputs": [],
      "name": "getAdmin",
      "outputs": [
        {
          "internalType": "address",
          "name": "",
          "type": "address"
        }
      ],
      "stateMutability": "view",
      "type": "function"
    },
    {
      "inputs": [],
      "name": "getExpiryTime",
      "outputs": [
        {
          "internalType": "uint256",
          "name": "",
          "type": "uint256"
        }
      ],
      "stateMutability": "view",
      "type": "function"
    },
    {
      "inputs": [],
      "name": "getMaxCommisionRate",
      "outputs": [
        {
          "internalType": "uint256",
          "name": "",
          "type": "uint256"
        }
      ],
      "stateMutability": "view",
      "type": "function"
    },
    {
      "inputs": [],
      "name": "getMerkleRoot",
      "outputs": [
        {
          "internalType": "bytes32",
          "name": "",
          "type": "bytes32"
        }
      ],
      "stateMutability": "view",
      "type": "function"
    },
    {
      "inputs": [],
      "name": "getSandMultiplier",
      "outputs": [
        {
          "internalType": "uint256",
          "name": "",
          "type": "uint256"
        }
      ],
      "stateMutability": "view",
      "type": "function"
    },
    {
      "inputs": [],
      "name": "getSigningWallet",
      "outputs": [
        {
          "internalType": "address",
          "name": "",
          "type": "address"
        }
      ],
      "stateMutability": "view",
      "type": "function"
    },
    {
      "inputs": [
        {
          "internalType": "address",
          "name": "who",
          "type": "address"
        }
      ],
      "name": "isMetaTransactionProcessor",
      "outputs": [
        {
          "internalType": "bool",
          "name": "",
          "type": "bool"
        }
      ],
      "stateMutability": "view",
      "type": "function"
    },
    {
      "inputs": [
        {
          "internalType": "bytes",
          "name": "signature",
          "type": "bytes"
        },
        {
          "internalType": "address",
          "name": "referrer",
          "type": "address"
        },
        {
          "internalType": "address",
          "name": "referee",
          "type": "address"
        },
        {
          "internalType": "uint256",
          "name": "expiryTime",
          "type": "uint256"
        },
        {
          "internalType": "uint256",
          "name": "commissionRate",
          "type": "uint256"
        }
      ],
      "name": "isReferralValid",
      "outputs": [
        {
          "internalType": "bool",
          "name": "",
          "type": "bool"
        }
      ],
      "stateMutability": "view",
      "type": "function"
    },
    {
      "inputs": [
        {
          "internalType": "address",
          "name": "",
          "type": "address"
        },
        {
          "internalType": "address",
          "name": "",
          "type": "address"
        },
        {
          "internalType": "uint256[]",
          "name": "",
          "type": "uint256[]"
        },
        {
          "internalType": "uint256[]",
          "name": "",
          "type": "uint256[]"
        },
        {
          "internalType": "bytes",
          "name": "",
          "type": "bytes"
        }
      ],
      "name": "onERC1155BatchReceived",
      "outputs": [
        {
          "internalType": "bytes4",
          "name": "",
          "type": "bytes4"
        }
      ],
      "stateMutability": "pure",
      "type": "function"
    },
    {
      "inputs": [
        {
          "internalType": "address",
          "name": "",
          "type": "address"
        },
        {
          "internalType": "address",
          "name": "",
          "type": "address"
        },
        {
          "internalType": "uint256",
          "name": "",
          "type": "uint256"
        },
        {
          "internalType": "uint256",
          "name": "",
          "type": "uint256"
        },
        {
          "internalType": "bytes",
          "name": "",
          "type": "bytes"
        }
      ],
      "name": "onERC1155Received",
      "outputs": [
        {
          "internalType": "bytes4",
          "name": "",
          "type": "bytes4"
        }
      ],
      "stateMutability": "pure",
      "type": "function"
    },
    {
      "inputs": [
        {
          "internalType": "uint256",
          "name": "newMultiplier",
          "type": "uint256"
        }
      ],
      "name": "rebalanceSand",
      "outputs": [],
      "stateMutability": "nonpayable",
      "type": "function"
    },
    {
      "inputs": [
        {
          "internalType": "address",
          "name": "metaTransactionProcessor",
          "type": "address"
        },
        {
          "internalType": "bool",
          "name": "enabled",
          "type": "bool"
        }
      ],
      "name": "setMetaTransactionProcessor",
      "outputs": [],
      "stateMutability": "nonpayable",
      "type": "function"
    },
    {
      "inputs": [
        {
          "internalType": "address payable",
          "name": "newWallet",
          "type": "address"
        }
      ],
      "name": "setReceivingWallet",
      "outputs": [],
      "stateMutability": "nonpayable",
      "type": "function"
    },
    {
      "inputs": [
        {
          "internalType": "uint256",
          "name": "newMaxCommissionRate",
          "type": "uint256"
        }
      ],
      "name": "updateMaxCommissionRate",
      "outputs": [],
      "stateMutability": "nonpayable",
      "type": "function"
    },
    {
      "inputs": [
        {
          "internalType": "address",
          "name": "newSigningWallet",
          "type": "address"
        }
      ],
      "name": "updateSigningWallet",
      "outputs": [],
      "stateMutability": "nonpayable",
      "type": "function"
    },
    {
      "inputs": [
        {
          "internalType": "address",
          "name": "to",
          "type": "address"
        },
        {
          "internalType": "uint256[]",
          "name": "assetIds",
          "type": "uint256[]"
        },
        {
          "internalType": "uint256[]",
          "name": "values",
          "type": "uint256[]"
        }
      ],
      "name": "withdrawAssets",
      "outputs": [],
      "stateMutability": "nonpayable",
      "type": "function"
    }
  ],
  "transactionHash": "0x8ce43e37234064a63106f5a8256e2daf47a518387831d956dc8d368d68965cde",
  "args": [
    "0xaF40A483bF77AAb7b7D13dB18187E6D62C1EA41b",
    "0xCc933a862fc15379E441F2A16Cb943D385a4695f",
    "0xCc933a862fc15379E441F2A16Cb943D385a4695f",
    "0xa4519D601F43D0b8f167842a367465681F652252",
    "0x60927eB036621b801491B6c5e9A60A8d2dEeD75A",
    "0xa284801f90c84c829fb6ad406f08ef345eda6ae0170f6722a0dadf9776218489",
    1663938000,
    "0xB7060D3FeCAC3AE1F0A0AA416E3e8E472257950e",
    2000,
    "0x0000000000000000000000000000000000000000",
    "0x8055a2c0f7EB177BeaB357B70E6504402d2b5fF6",
    "0x5983532A5b9009E05428595b87F19e42068a232B"
  ],
  "linkedData": [
    {
      "x": 156,
      "y": 192,
      "size": 1,
      "price": "4683000000000000000000",
      "reserved": "",
      "salt": "0x8b61ff51a977ce434e54d15cee118876b8e35c7e52829885ea17a93add83436c",
      "assetIds": [
        "41506478881403507969696680653240014914910929820314476107906210059990541021189"
      ]
    },
    {
      "x": 156,
      "y": 193,
      "size": 1,
      "price": "1011000000000000000000",
      "reserved": "0x7a9fe22691c811ea339d9b73150e6911a5343dca",
      "salt": "0x808d62959f471041c200debc3c5beec512fa4a46ac0c60caf6e93d56a963080a",
      "assetIds": []
    },
    {
      "x": 156,
      "y": 194,
      "size": 1,
      "price": "1011000000000000000000",
      "reserved": "0x7a9fe22691c811ea339d9b73150e6911a5343dca",
      "salt": "0xf80234dc1b66756499060d87e9268a827a10e603cd7864d331330c4e2f481936",
      "assetIds": []
    },
    {
      "x": 156,
      "y": 195,
      "size": 1,
      "price": "1011000000000000000000",
      "reserved": "",
      "salt": "0xbab9264bac65c0fc5ca2159104487ead54b7a543921bb584fb3c7f3759136ba6",
      "assetIds": []
    },
    {
      "x": 156,
      "y": 196,
      "size": 1,
      "price": "1011000000000000000000",
      "reserved": "",
      "salt": "0xc5cd1e797137bdcae094f4c7ca711d3da9ca0add67ba8f99575441d766f79453",
      "assetIds": []
    },
    {
      "x": 156,
      "y": 197,
      "size": 1,
      "price": "1011000000000000000000",
      "reserved": "",
      "salt": "0x31aa59ec46a6961b29b3d0bafe3dad9b945af2e8236069cab1096048799ad9b0",
      "assetIds": []
    },
    {
      "x": 156,
      "y": 198,
      "size": 1,
      "price": "1011000000000000000000",
      "reserved": "",
      "salt": "0xb7440e71dca6c00f9c42ebbf6e346ef52ac14716386924a0b8001a30b82fb3a1",
      "assetIds": []
    },
    {
      "x": 156,
      "y": 199,
      "size": 1,
      "price": "1011000000000000000000",
      "reserved": "",
      "salt": "0x26d6b12a75e70f921a424e5528aae64945cafb63898a8d0a84a8000b9672a351",
      "assetIds": []
    },
    {
      "x": 156,
      "y": 200,
      "size": 1,
      "price": "1011000000000000000000",
      "reserved": "",
      "salt": "0x5a7b39cdf6c7489dad5406735f5bada3380b2e79f82f9551fc9b1c82720b2f2e",
      "assetIds": []
    },
    {
      "x": 156,
      "y": 201,
      "size": 1,
      "price": "1011000000000000000000",
      "reserved": "",
      "salt": "0x50a9f085d4077d977ba24a9bbff9317c7332296a1733f36748c68cc91b78bc78",
      "assetIds": []
    },
    {
      "x": 156,
      "y": 202,
      "size": 1,
      "price": "1011000000000000000000",
      "reserved": "",
      "salt": "0x103682c2dbe96cafd9eb47c86fd213985aac7f622f925d61deee14f41f4b160f",
      "assetIds": []
    },
    {
      "x": 156,
      "y": 203,
      "size": 1,
      "price": "1011000000000000000000",
      "reserved": "",
      "salt": "0x7dabfe7643042456444803f76058b6bbfd58fdf3fbed9c9d74dc305da8e9b7af",
      "assetIds": []
    },
    {
      "x": 156,
      "y": 204,
      "size": 1,
      "price": "1011000000000000000000",
      "reserved": "",
      "salt": "0x4795004106b2770e7dd91cc277a893e68f15ef13f9d1835cf8ccfc0ec7ec8939",
      "assetIds": []
    },
    {
      "x": 156,
      "y": 205,
      "size": 1,
      "price": "1011000000000000000000",
      "reserved": "",
      "salt": "0x2108e5493b95c08131682ae3371d0e1521a7a6932178abdb94aa2949aa6b2b84",
      "assetIds": []
    },
    {
      "x": 156,
      "y": 206,
      "size": 1,
      "price": "1011000000000000000000",
      "reserved": "",
      "salt": "0x4010a1edda44a97c9ea319df7ac8d14c2eb827a023787474eac47c1040d05aaa",
      "assetIds": []
    },
    {
      "x": 156,
      "y": 207,
      "size": 1,
      "price": "1011000000000000000000",
      "reserved": "",
      "salt": "0xd86237560803361b14b1e1d71e51669c7dd55794799b260c1c5fba757943ad3e",
      "assetIds": []
    },
    {
      "x": 156,
      "y": 208,
      "size": 1,
      "price": "1011000000000000000000",
      "reserved": "",
      "salt": "0x7857cbbee55d26ebc62b75992e5c2e25f3b29961315f5c0cb534b10e40855737",
      "assetIds": []
    },
    {
      "x": 157,
      "y": 192,
      "size": 1,
      "price": "4683000000000000000000",
      "reserved": "",
      "salt": "0xbcc658ac00baa11314113c06275b3569f22348d9e7422145c13b8bbb0b7a532c",
      "assetIds": [
        "41506478881403507969696680653240014914910929820314476107906210059990541021188"
      ]
    },
    {
      "x": 157,
      "y": 193,
      "size": 1,
      "price": "4683000000000000000000",
      "reserved": "",
      "salt": "0x3e313081c931a5b256cb72605d8d7242be80b28d7de0f129512471724192c5ea",
      "assetIds": [
        "41506478881403507969696680653240014914910929820314476107906210059990541021186"
      ]
    },
    {
      "x": 157,
      "y": 194,
      "size": 1,
      "price": "4683000000000000000000",
      "reserved": "",
      "salt": "0x37ee1d2de955cf486088937cd17fd42c81dc482cf273c338177744f0cf2f9ac1",
      "assetIds": [
        "41506478881403507969696680653240014914910929820314476107906210059990541021186"
      ]
    },
    {
      "x": 157,
      "y": 195,
      "size": 1,
      "price": "1011000000000000000000",
      "reserved": "",
      "salt": "0x6f2a7c7d2d6111740cba49e4469ae5636bcd268f6cc4640ff1936f3833624662",
      "assetIds": []
    },
    {
      "x": 157,
      "y": 196,
      "size": 1,
      "price": "1011000000000000000000",
      "reserved": "",
      "salt": "0x3809be86956b596eef48961aa119256f31797d17f2956b18b9131c2bbce58f01",
      "assetIds": []
    },
    {
      "x": 157,
      "y": 197,
      "size": 1,
      "price": "1011000000000000000000",
      "reserved": "",
      "salt": "0xddac0ebda44899bc4f456f7f83882f2f3a646aac16f44103ae3223854a52c2d9",
      "assetIds": []
    },
    {
      "x": 157,
      "y": 198,
      "size": 1,
      "price": "1011000000000000000000",
      "reserved": "",
      "salt": "0xffb3c870510fadcb4399b2ebd89814c5b4550cf8d2cf63fc2f8fdca035f42987",
      "assetIds": []
    },
    {
      "x": 157,
      "y": 199,
      "size": 1,
      "price": "1011000000000000000000",
      "reserved": "",
      "salt": "0x2da78ab47923497d4099d9f836bd4c0beb34f37221f04bbd59c3a3a9026907e7",
      "assetIds": []
    },
    {
      "x": 157,
      "y": 200,
      "size": 1,
      "price": "1011000000000000000000",
      "reserved": "",
      "salt": "0xafc8a67b667814506badb12b6c85450791c4d21a3b8a8c25776e6accb5a622bd",
      "assetIds": []
    },
    {
      "x": 157,
      "y": 201,
      "size": 1,
      "price": "1011000000000000000000",
      "reserved": "",
      "salt": "0xe1712d479de2bde9b181c969514826e27f0600ddd44372b9d44b59d092beabe0",
      "assetIds": []
    },
    {
      "x": 157,
      "y": 202,
      "size": 1,
      "price": "1011000000000000000000",
      "reserved": "0x7a9fe22691c811ea339d9b73150e6911a5343dca",
      "salt": "0x80451a3c66a779add3b7b12c5b5dc34931a048e569be9dbb01f4cb2d1e041a28",
      "assetIds": []
    },
    {
      "x": 157,
      "y": 203,
      "size": 1,
      "price": "1011000000000000000000",
      "reserved": "",
      "salt": "0xf6b87a34f92b4ae6eba31dfdc0fa464005f407e14a32dc02bdb2182515174995",
      "assetIds": []
    },
    {
      "x": 157,
      "y": 204,
      "size": 1,
      "price": "1011000000000000000000",
      "reserved": "",
      "salt": "0x53fd4683e094c53cf2f2a2ca34f73fdc20cf173652bae27a62bc741c1e36fd78",
      "assetIds": []
    },
    {
      "x": 157,
      "y": 205,
      "size": 1,
      "price": "1011000000000000000000",
      "reserved": "",
      "salt": "0xa77e57193f3e32df76acb15f58b0e54838be027c0e71cf2ad9c6fa5d5143db23",
      "assetIds": []
    },
    {
      "x": 157,
      "y": 206,
      "size": 1,
      "price": "1011000000000000000000",
      "reserved": "",
      "salt": "0xfb7e5609543cfdbff366d99bd99d206b58f8c86c3949f8f7aa25abcb4fc5746e",
      "assetIds": []
    },
    {
      "x": 157,
      "y": 207,
      "size": 1,
      "price": "1011000000000000000000",
      "reserved": "0x7a9fe22691c811ea339d9b73150e6911a5343dca",
      "salt": "0x1c4c4f9bd3874447526761bd0bcf29cd62e34a69418cfb8b5009c2b113d3fc9f",
      "assetIds": []
    },
    {
      "x": 157,
      "y": 208,
      "size": 1,
      "price": "1011000000000000000000",
      "reserved": "",
      "salt": "0x511fa58e7fc4ceeb6fffcbb2b9511b2ddb602da270c0ef4ee336518045b0fbf3",
      "assetIds": []
    },
    {
      "x": 158,
      "y": 192,
      "size": 1,
      "price": "4683000000000000000000",
      "reserved": "",
      "salt": "0x0f9d061c2e9872be42ccf3e48af4e2d39425c2c5ba2c649a16817cf4893c0e54",
      "assetIds": [
        "41506478881403507969696680653240014914910929820314476107906210059990541021188"
      ]
    },
    {
      "x": 158,
      "y": 193,
      "size": 1,
      "price": "4683000000000000000000",
      "reserved": "",
      "salt": "0x718bb0de94db664b094d54d1d4736cf2a0b04b64970949a4b609af165d0895b1",
      "assetIds": [
        "41506478881403507969696680653240014914910929820314476107906210059990541021188"
      ]
    },
    {
      "x": 158,
      "y": 194,
      "size": 1,
      "price": "4683000000000000000000",
      "reserved": "",
      "salt": "0x75e735f1f84b2f40e098bf6d5f3f08af54afbde559691b38f126b7f05aaa83bc",
      "assetIds": [
        "41506478881403507969696680653240014914910929820314476107906210059990541021186"
      ]
    },
    {
      "x": 158,
      "y": 195,
      "size": 1,
      "price": "4683000000000000000000",
      "reserved": "",
      "salt": "0xdc020fa5f9f742b0c0adb36575a746f9d7a8611ef52e409b4d6529861297fdc8",
      "assetIds": [
        "41506478881403507969696680653240014914910929820314476107906210059990541021189"
      ]
    },
    {
      "x": 158,
      "y": 196,
      "size": 1,
      "price": "1011000000000000000000",
      "reserved": "",
      "salt": "0x7f27da69e0cf2793d8709b6cbaf96142cbfddc8d71d4e1281a86c5380ca493c5",
      "assetIds": []
    },
    {
      "x": 158,
      "y": 197,
      "size": 1,
      "price": "1011000000000000000000",
      "reserved": "",
      "salt": "0x4e8e41eb031c6cb78a8cb776755b23cf12d04ea6432029c62457b1802c88472d",
      "assetIds": []
    },
    {
      "x": 158,
      "y": 198,
      "size": 1,
      "price": "1011000000000000000000",
      "reserved": "",
      "salt": "0x4e167be84790516220c8bda79a84bf92e4b3658b22710c41ba6180acb559fb49",
      "assetIds": []
    },
    {
      "x": 158,
      "y": 199,
      "size": 1,
      "price": "1011000000000000000000",
      "reserved": "0x7a9fe22691c811ea339d9b73150e6911a5343dca",
      "salt": "0x55d428caca795954f6b1e701c76c2af2231a1c95b3cd1d8ff8d0d8d823ec1f5e",
      "assetIds": []
    },
    {
      "x": 158,
      "y": 200,
      "size": 1,
      "price": "1011000000000000000000",
      "reserved": "",
      "salt": "0xe85331f2a9e8a92db3f15290dbb994fb6cf019f56974f13a943108494563a029",
      "assetIds": []
    },
    {
      "x": 158,
      "y": 201,
      "size": 1,
      "price": "1011000000000000000000",
      "reserved": "",
      "salt": "0x148dbba14552582f173cf7515318fc93eba45d95a2f15618b4a59c08ae6d96bc",
      "assetIds": []
    },
    {
      "x": 158,
      "y": 202,
      "size": 1,
      "price": "1011000000000000000000",
      "reserved": "",
      "salt": "0x9d0acf00ad8753800e76939b1786ae77572b560cf6040fbaf69f779331daa589",
      "assetIds": []
    },
    {
      "x": 158,
      "y": 203,
      "size": 1,
      "price": "1011000000000000000000",
      "reserved": "",
      "salt": "0x580b50d069edd1ea940de9ad1990c367ad20832dc90e42753a1c9a69882ad373",
      "assetIds": []
    },
    {
      "x": 158,
      "y": 204,
      "size": 1,
      "price": "1011000000000000000000",
      "reserved": "",
      "salt": "0x583f31e25edf5ec2c6c72fa3c0caf1daa6c2c88b8f43003b1dbf140d69e67ecf",
      "assetIds": []
    },
    {
      "x": 158,
      "y": 205,
      "size": 1,
      "price": "1011000000000000000000",
      "reserved": "",
      "salt": "0xdc696a2728eb48cbad49a9ed96b59cbf02046aac37ed50a1c5d5be1c8a95966e",
      "assetIds": []
    },
    {
      "x": 158,
      "y": 206,
      "size": 1,
      "price": "1011000000000000000000",
      "reserved": "",
      "salt": "0x5cc821dc02af8cd14edbafab0ff6365c590eee1efb1f72c0326b15b8837e60a5",
      "assetIds": []
    },
    {
      "x": 158,
      "y": 207,
      "size": 1,
      "price": "1011000000000000000000",
      "reserved": "",
      "salt": "0xcfa585d3ad1db70a51dbe136c9958c49ffad829c0f5ffbd8db82aa7ea906bb0e",
      "assetIds": []
    },
    {
      "x": 158,
      "y": 208,
      "size": 1,
      "price": "1011000000000000000000",
      "reserved": "",
      "salt": "0xa0f78c4fe7db7b6ea8535d621f6852ea55ec260048aa1a5a02d198b5402f563e",
      "assetIds": []
    },
    {
      "x": 159,
      "y": 192,
      "size": 1,
      "price": "4683000000000000000000",
      "reserved": "",
      "salt": "0xe5d773c30f606415d6f09005b04b271fb0959f345bff9c2f3dcecddbe1dd13d2",
      "assetIds": [
        "41506478881403507969696680653240014914910929820314476107906210059990541021188"
      ]
    },
    {
      "x": 159,
      "y": 193,
      "size": 1,
      "price": "4683000000000000000000",
      "reserved": "",
      "salt": "0x61d21d357358417c513ecb0d35cba084d0395dd147e794ff9cef564bd944ea17",
      "assetIds": [
        "41506478881403507969696680653240014914910929820314476107906210059990541021186"
      ]
    },
    {
      "x": 159,
      "y": 194,
      "size": 1,
      "price": "4683000000000000000000",
      "reserved": "",
      "salt": "0x78f26299bcebf4f5e978fa40c5f2dd6d9a490dbb5bd50e8053dcd594694156a4",
      "assetIds": [
        "41506478881403507969696680653240014914910929820314476107906210059990541021186"
      ]
    },
    {
      "x": 159,
      "y": 195,
      "size": 1,
      "price": "4683000000000000000000",
      "reserved": "",
      "salt": "0x8f35d0a52e4a148af1751461593d069addfe326460617a2c988fbf9f387609fb",
      "assetIds": [
        "41506478881403507969696680653240014914910929820314476107906210059990541021189"
      ]
    },
    {
      "x": 159,
      "y": 196,
      "size": 1,
      "price": "1011000000000000000000",
      "reserved": "0x7a9fe22691c811ea339d9b73150e6911a5343dca",
      "salt": "0x2301a5ddefd835bf583e976af520870d6a3cd58b3c4d85c601da0a035b6a2b07",
      "assetIds": []
    },
    {
      "x": 159,
      "y": 197,
      "size": 1,
      "price": "1011000000000000000000",
      "reserved": "",
      "salt": "0xe99c2a2b30a21dcf97308a4b60738272506d876688fc9f21daf02f1e58dc51b4",
      "assetIds": []
    },
    {
      "x": 159,
      "y": 198,
      "size": 1,
      "price": "1011000000000000000000",
      "reserved": "",
      "salt": "0x73d34fd384de9d7440c3bd7a681dc69ffa896231f6e90946c37948c02e3ac2e3",
      "assetIds": []
    },
    {
      "x": 159,
      "y": 199,
      "size": 1,
      "price": "1011000000000000000000",
      "reserved": "",
      "salt": "0xa11c542eeba893c4a71f87a6e26c6a375af48bfe825ec29be4f92a977eabbabf",
      "assetIds": []
    },
    {
      "x": 159,
      "y": 200,
      "size": 1,
      "price": "1011000000000000000000",
      "reserved": "",
      "salt": "0x43241a57a7f2fb7dd26f97193882273e388f06a1e8cfbe4e92a26817fb6f395b",
      "assetIds": []
    },
    {
      "x": 159,
      "y": 201,
      "size": 1,
      "price": "1011000000000000000000",
      "reserved": "",
      "salt": "0x6a519f23e15bcde1b2c0ff6316b7744d9ada235dd6fd9ca6cb3b8ded9ab78f39",
      "assetIds": []
    },
    {
      "x": 159,
      "y": 202,
      "size": 1,
      "price": "1011000000000000000000",
      "reserved": "",
      "salt": "0x633b18edead69cacbe8ccd66432ade4ffcbac73494e1c10fde71ffd756937560",
      "assetIds": []
    },
    {
      "x": 159,
      "y": 203,
      "size": 1,
      "price": "1011000000000000000000",
      "reserved": "",
      "salt": "0x2bd0cdb8aaeff8c96c3cb284bce04855908867af740a12c6984c04468ab76619",
      "assetIds": []
    },
    {
      "x": 159,
      "y": 204,
      "size": 1,
      "price": "1011000000000000000000",
      "reserved": "",
      "salt": "0xbbc202912077fe70bc478ffd3ba4f033154c655db6909695f0c680b6e5820194",
      "assetIds": []
    },
    {
      "x": 159,
      "y": 205,
      "size": 1,
      "price": "1011000000000000000000",
      "reserved": "0x7a9fe22691c811ea339d9b73150e6911a5343dca",
      "salt": "0x76b5c67f1aea8b4ffb23cde6695274fbb3ac58ee1ba714262d36ae13866754ae",
      "assetIds": []
    },
    {
      "x": 159,
      "y": 206,
      "size": 1,
      "price": "1011000000000000000000",
      "reserved": "",
      "salt": "0x6c1705e01ca15a545c6505a65cb2b4b4cc1e86feda2d22ca94486df25874b3d0",
      "assetIds": []
    },
    {
      "x": 160,
      "y": 192,
      "size": 1,
      "price": "4683000000000000000000",
      "reserved": "",
      "salt": "0x682630f7c4805c9cb805eff6df69d20fd09ae19b1cd0bd7200670506b416c757",
      "assetIds": [
        "41506478881403507969696680653240014914910929820314476107906210059990541021189"
      ]
    },
    {
      "x": 160,
      "y": 193,
      "size": 1,
      "price": "4683000000000000000000",
      "reserved": "",
      "salt": "0xc8602cd1653181bd2affc463ee2c16549cbc12d873b057eb6ab32eae51db0e40",
      "assetIds": [
        "41506478881403507969696680653240014914910929820314476107906210059990541021188"
      ]
    },
    {
      "x": 160,
      "y": 194,
      "size": 1,
      "price": "4683000000000000000000",
      "reserved": "",
      "salt": "0x0587e5d5c11a3add978166839335c0f025089d8f7e9d78b510cb51e5433b5ce3",
      "assetIds": [
        "41506478881403507969696680653240014914910929820314476107906210059990541021189"
      ]
    },
    {
      "x": 160,
      "y": 195,
      "size": 1,
      "price": "1011000000000000000000",
      "reserved": "",
      "salt": "0x2748b6c86caceeb022da2c7b38d2dcf91e9ba8aeb65828a78a2a9792640c8ec7",
      "assetIds": []
    },
    {
      "x": 160,
      "y": 196,
      "size": 1,
      "price": "1011000000000000000000",
      "reserved": "",
      "salt": "0x9f2210acf68558c314989d3493a4f216777273fe227525b0c47a4474cf87bbad",
      "assetIds": []
    },
    {
      "x": 160,
      "y": 197,
      "size": 1,
      "price": "1011000000000000000000",
      "reserved": "",
      "salt": "0x7b09831ddfd2c8bf3aece2708eda564137e877a165ef7f94fb19618f0434e516",
      "assetIds": []
    },
    {
      "x": 160,
      "y": 198,
      "size": 1,
      "price": "1011000000000000000000",
      "reserved": "",
      "salt": "0xdfbdf765cda0fd3b94d5bd9cc3e654e9c9076d62a52bbf8f03b6858415c29a3a",
      "assetIds": []
    },
    {
      "x": 160,
      "y": 199,
      "size": 1,
      "price": "1011000000000000000000",
      "reserved": "",
      "salt": "0x76d5253cc4d5ed5705c8dc72af54785de4ef828a4a4e6c52eb91b4d9b4c78e51",
      "assetIds": []
    },
    {
      "x": 160,
      "y": 200,
      "size": 1,
      "price": "1011000000000000000000",
      "reserved": "",
      "salt": "0xa51d24b16c17183aa376b45bce98a59fb482d2b918fd78e26851ef0b3849c835",
      "assetIds": []
    },
    {
      "x": 160,
      "y": 201,
      "size": 1,
      "price": "1011000000000000000000",
      "reserved": "0x7a9fe22691c811ea339d9b73150e6911a5343dca",
      "salt": "0xb1ecc6faa4535d165f6836b8cef29cc5ac7051fc1db611b66dfb13adf4eb21ed",
      "assetIds": []
    },
    {
      "x": 160,
      "y": 202,
      "size": 1,
      "price": "1011000000000000000000",
      "reserved": "",
      "salt": "0x54ef1855b13618183e9f41fce73ab29199e76af8037a8380753e6a679261689c",
      "assetIds": []
    },
    {
      "x": 160,
      "y": 203,
      "size": 1,
      "price": "1011000000000000000000",
      "reserved": "",
      "salt": "0x2d18a78b7f2fa24ee299d5e27257134f99341c7d7801ca867487eacb936d90d9",
      "assetIds": []
    },
    {
      "x": 160,
      "y": 204,
      "size": 1,
      "price": "1011000000000000000000",
      "reserved": "",
      "salt": "0x70483cc582a65cc36a89bbb9b2cabbb9f14dd815b1e5355b722614153e2ffd9e",
      "assetIds": []
    },
    {
      "x": 160,
      "y": 205,
      "size": 1,
      "price": "1011000000000000000000",
      "reserved": "",
      "salt": "0x013bff287da22978ed0256540069092b7a3f16692799ae8f55a8ab4c8b061dbb",
      "assetIds": []
    },
    {
      "x": 160,
      "y": 206,
      "size": 1,
      "price": "1011000000000000000000",
      "reserved": "",
      "salt": "0x461113716dbfe2cd552bc64f1a3648f4d170d97981dfa3d4c5465878683e7be3",
      "assetIds": []
    },
    {
      "x": 161,
      "y": 192,
      "size": 1,
      "price": "4683000000000000000000",
      "reserved": "",
      "salt": "0x9fa3e889c04a5de5392e8c247fdfa8c67d0f85d6aacd014dfb9559c1406f4db7",
      "assetIds": [
        "41506478881403507969696680653240014914910929820314476107906210059990541021186"
      ]
    },
    {
      "x": 161,
      "y": 193,
      "size": 1,
      "price": "4683000000000000000000",
      "reserved": "",
      "salt": "0x073bf474a5e9579f9f7239d5378ceee90f6672cfeb2e65f357a441d617121496",
      "assetIds": [
        "41506478881403507969696680653240014914910929820314476107906210059990541021186"
      ]
    },
    {
      "x": 161,
      "y": 194,
      "size": 1,
      "price": "1011000000000000000000",
      "reserved": "0x7a9fe22691c811ea339d9b73150e6911a5343dca",
      "salt": "0xf7c8ef30082a82a3c1c29097d1907abf7f51a82091aa34274d2b1488c4233853",
      "assetIds": []
    },
    {
      "x": 161,
      "y": 195,
      "size": 1,
      "price": "1011000000000000000000",
      "reserved": "",
      "salt": "0x1512ac271a04b313c73b405a0b70366c77ef934db47d3a1fd4ea2a6327d05b81",
      "assetIds": []
    },
    {
      "x": 161,
      "y": 196,
      "size": 1,
      "price": "1011000000000000000000",
      "reserved": "",
      "salt": "0x3353396283be9a08913f6dc80f63638333cba145dcf97db28c575201f55d7b62",
      "assetIds": []
    },
    {
      "x": 161,
      "y": 197,
      "size": 1,
      "price": "1011000000000000000000",
      "reserved": "",
      "salt": "0x98d9b1f96150b02a0eac5d27e157380c1519ef7ce7f5f93aa88e89a9460e1dab",
      "assetIds": []
    },
    {
      "x": 161,
      "y": 198,
      "size": 1,
      "price": "1011000000000000000000",
      "reserved": "",
      "salt": "0x56a82590fdbb08ec1a59f111e4afa51f191d00509296991e896c093035eb4627",
      "assetIds": []
    },
    {
      "x": 161,
      "y": 199,
      "size": 1,
      "price": "1011000000000000000000",
      "reserved": "",
      "salt": "0x2c30d56e38f8e247d71c537e9d23bfc5ae69a3e3133eb77ae022b9a47d11c76c",
      "assetIds": []
    },
    {
      "x": 161,
      "y": 200,
      "size": 1,
      "price": "1011000000000000000000",
      "reserved": "",
      "salt": "0x4a12b0e04c98270657e73c8f4bb0bfc19a8a6b5d9e2f60b8d94c7260ef9c89c4",
      "assetIds": []
    },
    {
      "x": 161,
      "y": 201,
      "size": 1,
      "price": "1011000000000000000000",
      "reserved": "",
      "salt": "0x2ffc705cec29f1b69a9dba765c4b912e16b8df48aa62e50728aceff357d4ae50",
      "assetIds": []
    },
    {
      "x": 161,
      "y": 202,
      "size": 1,
      "price": "1011000000000000000000",
      "reserved": "",
      "salt": "0xd8e958e912c2eb75c318d26429583b5fbfd5df9c9ef0f292086dfbbaa78d39d6",
      "assetIds": []
    },
    {
      "x": 161,
      "y": 203,
      "size": 1,
      "price": "1011000000000000000000",
      "reserved": "",
      "salt": "0x0d982e885187dec7f1bce6b6f5176583525ea6f97600a106df63c851172f0ad7",
      "assetIds": []
    },
    {
      "x": 161,
      "y": 204,
      "size": 1,
      "price": "1011000000000000000000",
      "reserved": "",
      "salt": "0x3e9bec9866c996aefbf49fbd73c803b522b7613441836e465fb2f4af44826b85",
      "assetIds": []
    },
    {
      "x": 161,
      "y": 205,
      "size": 1,
      "price": "1011000000000000000000",
      "reserved": "",
      "salt": "0xbbbe7964408f4fb85c1f93e4494107143c787731fa7284ad4945edc53fe38e8c",
      "assetIds": []
    },
    {
      "x": 161,
      "y": 206,
      "size": 1,
      "price": "1011000000000000000000",
      "reserved": "",
      "salt": "0x2a7f4e6554c43e755745d982a9f2cf8d3876354adda1413a8001fdbbb617d772",
      "assetIds": []
    },
    {
      "x": 162,
      "y": 198,
      "size": 1,
      "price": "1011000000000000000000",
      "reserved": "",
      "salt": "0xb77966f4d0bd1bf6e1dc597d68c8dc4ced949e73c2b46ed69f2ac031600e81fb",
      "assetIds": []
    },
    {
      "x": 162,
      "y": 199,
      "size": 1,
      "price": "1011000000000000000000",
      "reserved": "",
      "salt": "0xdd5de4962d8aa817f6f08aea9b44144a1765b1eed75b711d7b8223b142863626",
      "assetIds": []
    },
    {
      "x": 162,
      "y": 200,
      "size": 1,
      "price": "1011000000000000000000",
      "reserved": "",
      "salt": "0xd81dd01080f1d5cbcda95294988d6f5ec7db26fbc8032f22d77286a27e729dfd",
      "assetIds": []
    },
    {
      "x": 162,
      "y": 201,
      "size": 1,
      "price": "1011000000000000000000",
      "reserved": "",
      "salt": "0xb7a0c361ca5017621fd53e799a1bea7996033145d1fcbea7e996853e886a0213",
      "assetIds": []
    },
    {
      "x": 162,
      "y": 202,
      "size": 1,
      "price": "1011000000000000000000",
      "reserved": "",
      "salt": "0x6e56e6dc8bf7dc20b334185c7371eac0ea73afca2f831a70d7db39e1046e611c",
      "assetIds": []
    },
    {
      "x": 162,
      "y": 203,
      "size": 1,
      "price": "1011000000000000000000",
      "reserved": "",
      "salt": "0xbe4df04d89e53f92189da538faba9475bdc61ee7c91e9f169250051d2aa3478b",
      "assetIds": []
    },
    {
      "x": 163,
      "y": 198,
      "size": 1,
      "price": "1011000000000000000000",
      "reserved": "",
      "salt": "0x1a31f3bc7c314f6c5ce62c7fb04ed03cc1a263b170a9d729e962946566ec0442",
      "assetIds": []
    },
    {
      "x": 163,
      "y": 199,
      "size": 1,
      "price": "1011000000000000000000",
      "reserved": "",
      "salt": "0xd4ac7b445016fd7468aeb1e2f0abede24c69c60cabd0cc23363db9ee27c6b921",
      "assetIds": []
    },
    {
      "x": 163,
      "y": 200,
      "size": 1,
      "price": "1011000000000000000000",
      "reserved": "",
      "salt": "0x10ffb054f3b30857e390e89430672a2daac966b3bda4c4c6f92962b19108eede",
      "assetIds": []
    },
    {
      "x": 163,
      "y": 201,
      "size": 1,
      "price": "1011000000000000000000",
      "reserved": "",
      "salt": "0x97228dcce6ed2e2c976ebf0e685a9687cf6a396df838c69ff845238f807e17fa",
      "assetIds": []
    },
    {
      "x": 163,
      "y": 202,
      "size": 1,
      "price": "1011000000000000000000",
      "reserved": "",
      "salt": "0xf578e3ce0ae55ef10af17b79e6770df0985fa607fc6b923a54d937d10370fc44",
      "assetIds": []
    },
    {
      "x": 163,
      "y": 203,
      "size": 1,
      "price": "1011000000000000000000",
      "reserved": "",
      "salt": "0x08780c97e08790de9397d8fc83df247dbff148051b47e4fc5336b96930858915",
      "assetIds": []
    },
    {
      "x": 164,
      "y": 198,
      "size": 1,
      "price": "1011000000000000000000",
      "reserved": "",
      "salt": "0x6c6d6a700d65d9a7a0b48cd699c8307eddfa5467f34b995eb90f11c03b67bd95",
      "assetIds": []
    },
    {
      "x": 164,
      "y": 199,
      "size": 1,
      "price": "1011000000000000000000",
      "reserved": "0x7a9fe22691c811ea339d9b73150e6911a5343dca",
      "salt": "0x7e790b823b075eaaf26e03f211dcfbe025fa939615d952b9d388e1249ed0a89e",
      "assetIds": []
    },
    {
      "x": 164,
      "y": 200,
      "size": 1,
      "price": "1011000000000000000000",
      "reserved": "",
      "salt": "0x62d6c68f7105783f71a0f3959a5a1fec65b303b83188e180b0a626791cb0eb7f",
      "assetIds": []
    },
    {
      "x": 164,
      "y": 201,
      "size": 1,
      "price": "1011000000000000000000",
      "reserved": "",
      "salt": "0xb3ab2f80fae900bda464b98259d8b03d62eea1c7c9f7ca5689456f3dec871e58",
      "assetIds": []
    },
    {
      "x": 164,
      "y": 202,
      "size": 1,
      "price": "1011000000000000000000",
      "reserved": "",
      "salt": "0xf66c7434625e91dfc1763f97d1038ca977dfc831eca2838b8b50e4bb451fd965",
      "assetIds": []
    },
    {
      "x": 164,
      "y": 203,
      "size": 1,
      "price": "1011000000000000000000",
      "reserved": "",
      "salt": "0xee236d8c45975fb09db4ff2361eca4e092d90b765f033ca18039ddf2d342908a",
      "assetIds": []
    },
    {
      "x": 165,
      "y": 198,
      "size": 1,
      "price": "1011000000000000000000",
      "reserved": "",
      "salt": "0xc5c8ad820848b872e39b1c466ebfacb85491719917faeeabdcdb5e6b24755cc5",
      "assetIds": []
    },
    {
      "x": 165,
      "y": 199,
      "size": 1,
      "price": "1011000000000000000000",
      "reserved": "",
      "salt": "0x55894c0c8308d4ed75984ef4832f6e5b82e9c43d50340da87574bd8fa887027d",
      "assetIds": []
    },
    {
      "x": 165,
      "y": 200,
      "size": 1,
      "price": "1011000000000000000000",
      "reserved": "",
      "salt": "0x4efb97c2fa8a733b31abc0710569b8bf2283fdaac53c9d948d2fe7c105aa426d",
      "assetIds": []
    },
    {
      "x": 165,
      "y": 201,
      "size": 1,
      "price": "1011000000000000000000",
      "reserved": "",
      "salt": "0xcf99ccdc170b6206b3202ba7abfa09814b7d4a6b14b0f4c33696d76b4a46d7d6",
      "assetIds": []
    },
    {
      "x": 165,
      "y": 202,
      "size": 1,
      "price": "1011000000000000000000",
      "reserved": "",
      "salt": "0x7624fbcbf40371d4fdf4614b1df522d543b8fbb631258c403d0c266562a351ef",
      "assetIds": []
    },
    {
      "x": 165,
      "y": 203,
      "size": 1,
      "price": "1011000000000000000000",
      "reserved": "",
      "salt": "0xeb03d24e052fe83d6a99ac0531596fabf3bef05e1de3bf7896dff2162321e0b1",
      "assetIds": []
    },
    {
      "x": 166,
      "y": 198,
      "size": 1,
      "price": "1011000000000000000000",
      "reserved": "",
      "salt": "0xa11c561a7ec96ab22cf212d44c39248c8f10e639f278a8e7f7ac8085e6f61870",
      "assetIds": []
    },
    {
      "x": 166,
      "y": 199,
      "size": 1,
      "price": "1011000000000000000000",
      "reserved": "",
      "salt": "0x710884d6bf26f29798e33b0ba1b26312472d3b1e38004f04f02608841ed421c7",
      "assetIds": []
    },
    {
      "x": 166,
      "y": 200,
      "size": 1,
      "price": "1011000000000000000000",
      "reserved": "",
      "salt": "0x0a93e1de5597db9338220b0fef034853bea65562ad2aacda21cb23c547504372",
      "assetIds": []
    },
    {
      "x": 166,
      "y": 201,
      "size": 1,
      "price": "1011000000000000000000",
      "reserved": "",
      "salt": "0x659ffab3761740e44643ac00cdbf85afa424aa7df9f35f73e290c28de0a43a21",
      "assetIds": []
    },
    {
      "x": 166,
      "y": 202,
      "size": 1,
      "price": "1011000000000000000000",
      "reserved": "0x7a9fe22691c811ea339d9b73150e6911a5343dca",
      "salt": "0x755b9c77ba95ddcce305e364c20b60dc14538bad2aea7aadf11db9bca44f55e2",
      "assetIds": []
    },
    {
      "x": 166,
      "y": 203,
      "size": 1,
      "price": "1011000000000000000000",
      "reserved": "",
      "salt": "0xee2071ab65b8e8922bd850462b29f305de3f20e6a184acb8f2430ed5e337f428",
      "assetIds": []
    },
    {
      "x": 167,
      "y": 198,
      "size": 1,
      "price": "1011000000000000000000",
      "reserved": "",
      "salt": "0x9e021198eb650ab5c47942294fbe5789f2e900f33c5f8ab2d6c19737a9e9e777",
      "assetIds": []
    },
    {
      "x": 167,
      "y": 199,
      "size": 1,
      "price": "1011000000000000000000",
      "reserved": "",
      "salt": "0xc194a2db817b9955b6f4ee935211b7a5316739f92f2c1aa4c3b61eeb2476c177",
      "assetIds": []
    },
    {
      "x": 167,
      "y": 200,
      "size": 1,
      "price": "1011000000000000000000",
      "reserved": "",
      "salt": "0x015b9987f8097e88074d5a22a14840558a6c2c934066ff6c1f4a1990dac47e5b",
      "assetIds": []
    },
    {
      "x": 167,
      "y": 201,
      "size": 1,
      "price": "1011000000000000000000",
      "reserved": "",
      "salt": "0x607b20cfb02466b45026c37be069a505bc5d47c8f0d69249c10291db1c39a5c4",
      "assetIds": []
    },
    {
      "x": 167,
      "y": 202,
      "size": 1,
      "price": "1011000000000000000000",
      "reserved": "",
      "salt": "0xff01ebbb583b6bcbf24383666cab1ae335a1645acbe650ad603dafa4fbb9bb07",
      "assetIds": []
    },
    {
      "x": 167,
      "y": 203,
      "size": 1,
      "price": "1011000000000000000000",
      "reserved": "",
      "salt": "0x8085e34bb135c3289af62e5babfbe8f14b4754d740e85a850ce3d8ff3fb93b4c",
      "assetIds": []
    },
    {
      "x": 168,
      "y": 162,
      "size": 1,
      "price": "1011000000000000000000",
      "reserved": "",
      "salt": "0xe72e1d42104c7724cadd29fd7d081e9845cc2ac182a5f73ae717fca1ae4b705a",
      "assetIds": []
    },
    {
      "x": 168,
      "y": 163,
      "size": 1,
      "price": "1011000000000000000000",
      "reserved": "",
      "salt": "0x5688668c395a73487e61a24f03a97bb0a1e392115dc91f121acd91d8b209abc6",
      "assetIds": []
    },
    {
      "x": 168,
      "y": 164,
      "size": 1,
      "price": "1011000000000000000000",
      "reserved": "",
      "salt": "0x06fe84c02ff3422535e58235053b445aa3483712d7a9a5e6872bdbb5f3bdacd2",
      "assetIds": []
    },
    {
      "x": 168,
      "y": 165,
      "size": 1,
      "price": "1011000000000000000000",
      "reserved": "",
      "salt": "0xd54fc15d925d18b1d28bb558315e619b0854986d4015bd191139d509ad69b33d",
      "assetIds": []
    },
    {
      "x": 168,
      "y": 166,
      "size": 1,
      "price": "1011000000000000000000",
      "reserved": "",
      "salt": "0x23b796c526ca1fb09502e7343287a73da4d17cd378b97f3c8c015dd9acc3b59e",
      "assetIds": []
    },
    {
      "x": 168,
      "y": 167,
      "size": 1,
      "price": "4683000000000000000000",
      "reserved": "",
      "salt": "0x6eff0957b8341777a04c064dc6a238c2e9e2ce751366f03404a34eee31480372",
      "assetIds": [
        "41506478881403507969696680653240014914910929820314476107906210059990541021188"
      ]
    },
    {
      "x": 168,
      "y": 168,
      "size": 1,
      "price": "4683000000000000000000",
      "reserved": "",
      "salt": "0x3a8328392bfa3ec7e6ad3fd52f60921ae35e3c0064d47d156cfae17f79567978",
      "assetIds": [
        "41506478881403507969696680653240014914910929820314476107906210059990541021188"
      ]
    },
    {
      "x": 168,
      "y": 169,
      "size": 1,
      "price": "4683000000000000000000",
      "reserved": "",
      "salt": "0x97ae238679e13b0175dce9c56808e38ef609a4988879f3e0a777be949de8fec5",
      "assetIds": [
        "41506478881403507969696680653240014914910929820314476107906210059990541021189"
      ]
    },
    {
      "x": 168,
      "y": 170,
      "size": 1,
      "price": "4683000000000000000000",
      "reserved": "",
      "salt": "0x7f4f40914a428d0f505c1cbe9d36304977cdf9fef2f77eb04199c1acb19285d9",
      "assetIds": [
        "41506478881403507969696680653240014914910929820314476107906210059990541021186"
      ]
    },
    {
      "x": 168,
      "y": 171,
      "size": 1,
      "price": "4683000000000000000000",
      "reserved": "",
      "salt": "0x8eefd55045bf1d60b795030c4a66d1c40782e249af992675529f4ed204038652",
      "assetIds": [
        "41506478881403507969696680653240014914910929820314476107906210059990541021189"
      ]
    },
    {
      "x": 168,
      "y": 172,
      "size": 1,
      "price": "4683000000000000000000",
      "reserved": "",
      "salt": "0x1d4159a74b7111c57a3ff4752cf5a6e311013b149000b19f41480a60e92dac62",
      "assetIds": [
        "41506478881403507969696680653240014914910929820314476107906210059990541021186"
      ]
    },
    {
      "x": 168,
      "y": 173,
      "size": 1,
      "price": "4683000000000000000000",
      "reserved": "",
      "salt": "0xef18da03d139409d11073accd79184c1eba6d3869ae1cf34191615e53e8ec925",
      "assetIds": [
        "41506478881403507969696680653240014914910929820314476107906210059990541021186"
      ]
    },
    {
      "x": 168,
      "y": 174,
      "size": 1,
      "price": "4683000000000000000000",
      "reserved": "",
      "salt": "0x55fb4b64982924a6d34026902e32b6f22b616a1d2e494e163def5dc5532ae023",
      "assetIds": [
        "41506478881403507969696680653240014914910929820314476107906210059990541021188"
      ]
    },
    {
      "x": 168,
      "y": 175,
      "size": 1,
      "price": "4683000000000000000000",
      "reserved": "",
      "salt": "0x0ce974048efabeb51eb3ba907748d69acdf7093097f3ca92b9e856ac8aaf3af3",
      "assetIds": [
        "41506478881403507969696680653240014914910929820314476107906210059990541021188"
      ]
    },
    {
      "x": 168,
      "y": 176,
      "size": 1,
      "price": "4683000000000000000000",
      "reserved": "",
      "salt": "0x9852f680618efee5fb8b1363818c1dd2c0f287d47df01d7a61d5f72a44c07973",
      "assetIds": [
        "41506478881403507969696680653240014914910929820314476107906210059990541021189"
      ]
    },
    {
      "x": 168,
      "y": 177,
      "size": 1,
      "price": "4683000000000000000000",
      "reserved": "",
      "salt": "0x9834ac46e815254ce5ad581807fc3d38dd263370ede4dbdba60a2ddb0150b958",
      "assetIds": [
        "41506478881403507969696680653240014914910929820314476107906210059990541021186"
      ]
    },
    {
      "x": 168,
      "y": 178,
      "size": 1,
      "price": "4683000000000000000000",
      "reserved": "",
      "salt": "0x186dee3d01795ae5155e87bf2904eb0dada008fdca7ef68ffa04373a3e66a8ce",
      "assetIds": [
        "41506478881403507969696680653240014914910929820314476107906210059990541021188"
      ]
    },
    {
      "x": 168,
      "y": 179,
      "size": 1,
      "price": "4683000000000000000000",
      "reserved": "",
      "salt": "0xa691b6507861166eb73f84b79a21fefc636cd71b80257c93030b785f01201507",
      "assetIds": [
        "41506478881403507969696680653240014914910929820314476107906210059990541021189"
      ]
    },
    {
      "x": 168,
      "y": 192,
      "size": 1,
      "price": "4683000000000000000000",
      "reserved": "",
      "salt": "0xb7ae092dafc159379637fc96aa9a1bfae6f5454b5502f02e33fb46f48829c7f9",
      "assetIds": [
        "41506478881403507969696680653240014914910929820314476107906210059990541021186"
      ]
    },
    {
      "x": 168,
      "y": 193,
      "size": 1,
      "price": "4683000000000000000000",
      "reserved": "",
      "salt": "0xf88463fce3651e240b8c59028266b25978ba80214e956c851076daeb03e2a560",
      "assetIds": [
        "41506478881403507969696680653240014914910929820314476107906210059990541021189"
      ]
    },
    {
      "x": 168,
      "y": 194,
      "size": 1,
      "price": "4683000000000000000000",
      "reserved": "",
      "salt": "0xf1abe145ab23cbea7a1208edf928b88e2c2e89f1346cb3102f6682ec89b6969c",
      "assetIds": [
        "41506478881403507969696680653240014914910929820314476107906210059990541021189"
      ]
    },
    {
      "x": 168,
      "y": 195,
      "size": 1,
      "price": "1011000000000000000000",
      "reserved": "",
      "salt": "0x4cbb94af5a99762a77a2a4fc2ab439c5a107efcadcacb3575b72cdf1f748e175",
      "assetIds": []
    },
    {
      "x": 168,
      "y": 196,
      "size": 1,
      "price": "1011000000000000000000",
      "reserved": "",
      "salt": "0x5d6a037397bbcc1598d6ee77c053aa8392eb206e2281cc6f87235a314287a628",
      "assetIds": []
    },
    {
      "x": 168,
      "y": 197,
      "size": 1,
      "price": "1011000000000000000000",
      "reserved": "",
      "salt": "0x55f3c2e941f9e5c2046755e9f7a3cfcb965b7a4b4ff349fb5d7d7b6503af67f4",
      "assetIds": []
    },
    {
      "x": 169,
      "y": 162,
      "size": 1,
      "price": "1011000000000000000000",
      "reserved": "",
      "salt": "0x433f2f78892e28adff6a36c83c64f3fd14f6554391acd47bbc9c363f17d1c2c5",
      "assetIds": []
    },
    {
      "x": 169,
      "y": 163,
      "size": 1,
      "price": "1011000000000000000000",
      "reserved": "",
      "salt": "0xe7b06813d01fdb2f5472db749d7d697f7431c0ad44230536eeabbd8dd28456aa",
      "assetIds": []
    },
    {
      "x": 169,
      "y": 164,
      "size": 1,
      "price": "1011000000000000000000",
      "reserved": "",
      "salt": "0xda1264284d5136e7fd1d9faa861de9ba795add1ed685ee5f1aa6bd08e4819828",
      "assetIds": []
    },
    {
      "x": 169,
      "y": 165,
      "size": 1,
      "price": "1011000000000000000000",
      "reserved": "",
      "salt": "0xac1a956b8e7581b0901677d4edd3783f8c599a5873dfe2da52145dd3b2b1eea9",
      "assetIds": []
    },
    {
      "x": 169,
      "y": 166,
      "size": 1,
      "price": "1011000000000000000000",
      "reserved": "0x7a9fe22691c811ea339d9b73150e6911a5343dca",
      "salt": "0x88790f5a1d7e03587cd4054362f4ca2962b588033eac4b71e53f304c668aa60b",
      "assetIds": []
    },
    {
      "x": 169,
      "y": 167,
      "size": 1,
      "price": "4683000000000000000000",
      "reserved": "",
      "salt": "0x72553fb42c0789ffc585204119b7d1f074caaca3cd93d5293497e9d3b8a996f3",
      "assetIds": [
        "41506478881403507969696680653240014914910929820314476107906210059990541021188"
      ]
    },
    {
      "x": 169,
      "y": 168,
      "size": 1,
      "price": "4683000000000000000000",
      "reserved": "",
      "salt": "0x05792fd45a7c199ec747e2d30aa31e1e89e50d7b7e1dc39d20928550b80ac585",
      "assetIds": [
        "41506478881403507969696680653240014914910929820314476107906210059990541021189"
      ]
    },
    {
      "x": 169,
      "y": 169,
      "size": 1,
      "price": "4683000000000000000000",
      "reserved": "",
      "salt": "0x7cd7c3523f05681a756dfa4e74918a746102aedbc1faf437fd3cffb38c7b9f03",
      "assetIds": [
        "41506478881403507969696680653240014914910929820314476107906210059990541021189"
      ]
    },
    {
      "x": 169,
      "y": 170,
      "size": 1,
      "price": "4683000000000000000000",
      "reserved": "",
      "salt": "0x6012a8055c005ca136f392e103b978b6b64565199575e008ab22a5c36a4b77e4",
      "assetIds": [
        "41506478881403507969696680653240014914910929820314476107906210059990541021188"
      ]
    },
    {
      "x": 169,
      "y": 171,
      "size": 1,
      "price": "4683000000000000000000",
      "reserved": "",
      "salt": "0x82072aebd1bcb58e988b15e24fab786665bda3fb5af4a1cd4568d383072df90c",
      "assetIds": [
        "41506478881403507969696680653240014914910929820314476107906210059990541021189"
      ]
    },
    {
      "x": 169,
      "y": 172,
      "size": 1,
      "price": "4683000000000000000000",
      "reserved": "",
      "salt": "0x86be5fc944ec2d2f431cc51ca1080c63949d8407216fe519c6f55a1756d97bce",
      "assetIds": [
        "41506478881403507969696680653240014914910929820314476107906210059990541021189"
      ]
    },
    {
      "x": 169,
      "y": 173,
      "size": 1,
      "price": "4683000000000000000000",
      "reserved": "",
      "salt": "0x29b6939969c01dcd8203233b6cabf6b405a848693a15f821629ff7f8a5a725b1",
      "assetIds": [
        "41506478881403507969696680653240014914910929820314476107906210059990541021186"
      ]
    },
    {
      "x": 169,
      "y": 174,
      "size": 1,
      "price": "4683000000000000000000",
      "reserved": "",
      "salt": "0xbad0cd6c8f4df6ea9c8b5a3f27edb1fa82ae0210021e1e78cbe999542e909c4d",
      "assetIds": [
        "41506478881403507969696680653240014914910929820314476107906210059990541021188"
      ]
    },
    {
      "x": 169,
      "y": 175,
      "size": 1,
      "price": "4683000000000000000000",
      "reserved": "",
      "salt": "0x6d1698bd5e4ef0cb98415a34308df38827616253a5694438d30517c65d2d5591",
      "assetIds": [
        "41506478881403507969696680653240014914910929820314476107906210059990541021189"
      ]
    },
    {
      "x": 169,
      "y": 176,
      "size": 1,
      "price": "4683000000000000000000",
      "reserved": "",
      "salt": "0xffcc787f3a9a2ce71395164c8160b2f9b05693a95544d8841ecccc39bdb65365",
      "assetIds": [
        "41506478881403507969696680653240014914910929820314476107906210059990541021188"
      ]
    },
    {
      "x": 169,
      "y": 177,
      "size": 1,
      "price": "4683000000000000000000",
      "reserved": "",
      "salt": "0x78ef5c3611e57fd361e05f1ea01b0f90ce6e72f92af914c12b25e42d3e9d89fa",
      "assetIds": [
        "41506478881403507969696680653240014914910929820314476107906210059990541021186"
      ]
    },
    {
      "x": 169,
      "y": 178,
      "size": 1,
      "price": "4683000000000000000000",
      "reserved": "",
      "salt": "0x337293da6790781e61d279fb9dcbebda351eb677390eca7cb068b391627ecca3",
      "assetIds": [
        "41506478881403507969696680653240014914910929820314476107906210059990541021186"
      ]
    },
    {
      "x": 169,
      "y": 179,
      "size": 1,
      "price": "4683000000000000000000",
      "reserved": "",
      "salt": "0x272483238cddd7e1e540237b2b20dc0376930cd309e769537dee0c7802dd82db",
      "assetIds": [
        "41506478881403507969696680653240014914910929820314476107906210059990541021188"
      ]
    },
    {
      "x": 169,
      "y": 192,
      "size": 1,
      "price": "4683000000000000000000",
      "reserved": "",
      "salt": "0x7fdf2641ffe10bd224d10315c44031284672309a046fa7a0bae957cd26de78da",
      "assetIds": [
        "41506478881403507969696680653240014914910929820314476107906210059990541021186"
      ]
    },
    {
      "x": 169,
      "y": 193,
      "size": 1,
      "price": "4683000000000000000000",
      "reserved": "",
      "salt": "0xe7c7af66c9c83c08de9333a8076610421b73bed9c7a42e8cdc78df1f690e9692",
      "assetIds": [
        "41506478881403507969696680653240014914910929820314476107906210059990541021186"
      ]
    },
    {
      "x": 169,
      "y": 194,
      "size": 1,
      "price": "4683000000000000000000",
      "reserved": "",
      "salt": "0x0996c77ff0e9fc209f3423f52170429c8e657e28d201c1114b4bd07862b93360",
      "assetIds": [
        "41506478881403507969696680653240014914910929820314476107906210059990541021188"
      ]
    },
    {
      "x": 169,
      "y": 195,
      "size": 1,
      "price": "1011000000000000000000",
      "reserved": "",
      "salt": "0xeb6651b6af43cde25eb46928b25df407626b3c83aea388be76c3e77dc36c723d",
      "assetIds": []
    },
    {
      "x": 169,
      "y": 196,
      "size": 1,
      "price": "1011000000000000000000",
      "reserved": "",
      "salt": "0x0dc41859e6dc85d6eed920e1aca444fd0ae727705ac0495f0075a36d1f5c4576",
      "assetIds": []
    },
    {
      "x": 169,
      "y": 197,
      "size": 1,
      "price": "1011000000000000000000",
      "reserved": "",
      "salt": "0xca8bceb362fd5295d47a810df3f340c438f69c37f99bf998aaaa541fdc7c3e99",
      "assetIds": []
    },
    {
      "x": 170,
      "y": 162,
      "size": 1,
      "price": "1011000000000000000000",
      "reserved": "",
      "salt": "0x9a6cdcb39ee58e086b93803b7e5fa44595f07d5c6834662ca673367610f8d346",
      "assetIds": []
    },
    {
      "x": 170,
      "y": 163,
      "size": 1,
      "price": "1011000000000000000000",
      "reserved": "",
      "salt": "0x3d7565be713215d638b1b40b84d21ec650dfc561f302595939b5ccc49e9df23e",
      "assetIds": []
    },
    {
      "x": 170,
      "y": 164,
      "size": 1,
      "price": "1011000000000000000000",
      "reserved": "",
      "salt": "0xb553ceba5640396620cd8929505c11ecea9ef640783fe3dd39081ec03c2d9ef3",
      "assetIds": []
    },
    {
      "x": 170,
      "y": 165,
      "size": 1,
      "price": "1011000000000000000000",
      "reserved": "",
      "salt": "0xc422d58f9c39e77b2b91b09f4028397ab533cf5eafa168ac7d56b91bc5e909dd",
      "assetIds": []
    },
    {
      "x": 170,
      "y": 166,
      "size": 1,
      "price": "1011000000000000000000",
      "reserved": "",
      "salt": "0x64938e6ccfdeb0f6c3b0eefabcf9e15b5b72fca88e49ca85e18d1d6aa8e3bfa8",
      "assetIds": []
    },
    {
      "x": 170,
      "y": 167,
      "size": 1,
      "price": "4683000000000000000000",
      "reserved": "",
      "salt": "0x1718041e13d2b816131be6e9c19b88e64c91b9c1733cbfc9d140f3eba130d74e",
      "assetIds": [
        "41506478881403507969696680653240014914910929820314476107906210059990541021189"
      ]
    },
    {
      "x": 170,
      "y": 168,
      "size": 1,
      "price": "4683000000000000000000",
      "reserved": "",
      "salt": "0x0756ff655d3ba18c5f47bb20635ebfcdba769759094b377dfabe547132b94823",
      "assetIds": [
        "41506478881403507969696680653240014914910929820314476107906210059990541021186"
      ]
    },
    {
      "x": 170,
      "y": 169,
      "size": 1,
      "price": "4683000000000000000000",
      "reserved": "",
      "salt": "0x1b50a0be674701b300c2d60885c4766c8a7f3a9bc14f2d9d138c10032517de09",
      "assetIds": [
        "41506478881403507969696680653240014914910929820314476107906210059990541021189"
      ]
    },
    {
      "x": 170,
      "y": 170,
      "size": 1,
      "price": "4683000000000000000000",
      "reserved": "",
      "salt": "0xb5895031d1dec42c123dfa02c4ee156d38000e1160c5364b8aa0da40d8338bdd",
      "assetIds": [
        "41506478881403507969696680653240014914910929820314476107906210059990541021188"
      ]
    },
    {
      "x": 170,
      "y": 171,
      "size": 1,
      "price": "4683000000000000000000",
      "reserved": "",
      "salt": "0x2ca1ec80963d3bc6d41eb1be2151ad844d4484e0ceb200690c3697b3f8611f33",
      "assetIds": [
        "41506478881403507969696680653240014914910929820314476107906210059990541021189"
      ]
    },
    {
      "x": 170,
      "y": 172,
      "size": 1,
      "price": "4683000000000000000000",
      "reserved": "",
      "salt": "0x0037d8e61dd1416d1d247b09e7bcac378ed32a4bf1b895f575a2531299453c8c",
      "assetIds": [
        "41506478881403507969696680653240014914910929820314476107906210059990541021189"
      ]
    },
    {
      "x": 170,
      "y": 173,
      "size": 1,
      "price": "4683000000000000000000",
      "reserved": "",
      "salt": "0x3381e687e7d59d6503943a7dc172a8d704cb53562eecc72e87701ca6991bbf02",
      "assetIds": [
        "41506478881403507969696680653240014914910929820314476107906210059990541021188"
      ]
    },
    {
      "x": 170,
      "y": 174,
      "size": 1,
      "price": "4683000000000000000000",
      "reserved": "",
      "salt": "0x8fd47f28430e5051dd33281d6f16db0b969863609aa08d48d17f9f39093ae804",
      "assetIds": [
        "41506478881403507969696680653240014914910929820314476107906210059990541021189"
      ]
    },
    {
      "x": 170,
      "y": 175,
      "size": 1,
      "price": "4683000000000000000000",
      "reserved": "",
      "salt": "0x9093ff3353508556d9fbeb341478f4be5566d87014e12f3cd8aeaf798772b65a",
      "assetIds": [
        "41506478881403507969696680653240014914910929820314476107906210059990541021188"
      ]
    },
    {
      "x": 170,
      "y": 176,
      "size": 1,
      "price": "4683000000000000000000",
      "reserved": "",
      "salt": "0xd8ede3d6318647436e6f5708f1f9da7a0abe1dc3235cbd8b6c060bb4b91b98b6",
      "assetIds": [
        "41506478881403507969696680653240014914910929820314476107906210059990541021188"
      ]
    },
    {
      "x": 170,
      "y": 177,
      "size": 1,
      "price": "4683000000000000000000",
      "reserved": "",
      "salt": "0x6c2cb910578e5310bae6edcfca54af4108b2cfcb7084bdf25176a0d981a652e8",
      "assetIds": [
        "41506478881403507969696680653240014914910929820314476107906210059990541021188"
      ]
    },
    {
      "x": 170,
      "y": 178,
      "size": 1,
      "price": "4683000000000000000000",
      "reserved": "",
      "salt": "0xc773bdddb6a604df8480edec71009865a551abd3f4718e3097b7d9471446b178",
      "assetIds": [
        "41506478881403507969696680653240014914910929820314476107906210059990541021186"
      ]
    },
    {
      "x": 170,
      "y": 179,
      "size": 1,
      "price": "4683000000000000000000",
      "reserved": "",
      "salt": "0x91d31797a259b2367f76d5efec7be7eaef9b36f95b61e66cbae05d353f915643",
      "assetIds": [
        "41506478881403507969696680653240014914910929820314476107906210059990541021188"
      ]
    },
    {
      "x": 170,
      "y": 192,
      "size": 1,
      "price": "4683000000000000000000",
      "reserved": "",
      "salt": "0x291f561bb6455452e04dc28ffae0a3efeec9567f5455d58204a69415e859eb2f",
      "assetIds": [
        "41506478881403507969696680653240014914910929820314476107906210059990541021188"
      ]
    },
    {
      "x": 170,
      "y": 193,
      "size": 1,
      "price": "4683000000000000000000",
      "reserved": "",
      "salt": "0x589306c0cb71ef30d0b9917919cf2996f24326ddb8bdce58c5cf40d11b9ceff5",
      "assetIds": [
        "41506478881403507969696680653240014914910929820314476107906210059990541021189"
      ]
    },
    {
      "x": 170,
      "y": 194,
      "size": 1,
      "price": "1011000000000000000000",
      "reserved": "",
      "salt": "0x52754e06cc92b6c6ec872c833184348e4c81f1270e8be22ff15b35b01b5f9beb",
      "assetIds": []
    },
    {
      "x": 170,
      "y": 195,
      "size": 1,
      "price": "1011000000000000000000",
      "reserved": "",
      "salt": "0x2bcb5d735a487eb3587a345cd085b8b993fe26ba34dddd32be3adc3299d29139",
      "assetIds": []
    },
    {
      "x": 170,
      "y": 196,
      "size": 1,
      "price": "1011000000000000000000",
      "reserved": "",
      "salt": "0xaf027509a6c6ec52bd6be36f3dd691b11b1984f5f908c545a187b957670fe671",
      "assetIds": []
    },
    {
      "x": 170,
      "y": 197,
      "size": 1,
      "price": "1011000000000000000000",
      "reserved": "",
      "salt": "0xd9f6cffd1f558bd7b9da3cf4ebbca5142f812233d29719a4974e119b5b82217e",
      "assetIds": []
    },
    {
      "x": 171,
      "y": 162,
      "size": 1,
      "price": "1011000000000000000000",
      "reserved": "",
      "salt": "0xca49857c4e9fcffc04c86b741f4c808c6ca0823656769d5afba841a899c03988",
      "assetIds": []
    },
    {
      "x": 171,
      "y": 163,
      "size": 1,
      "price": "1011000000000000000000",
      "reserved": "0x7a9fe22691c811ea339d9b73150e6911a5343dca",
      "salt": "0x3383121c6d8a5c36cb9cafb59f15e69aefde0ec7f8e487925c90aee20bd25f82",
      "assetIds": []
    },
    {
      "x": 171,
      "y": 164,
      "size": 1,
      "price": "1011000000000000000000",
      "reserved": "",
      "salt": "0xc007f8efd0ab8dfe7f9a649adccfd22363005d0a4ee1eb132dcfaaed3defcab2",
      "assetIds": []
    },
    {
      "x": 171,
      "y": 165,
      "size": 1,
      "price": "1011000000000000000000",
      "reserved": "",
      "salt": "0x95926c7fc35063446c60655b96af73e2f8b6536537e567d28297c9e65c1e475a",
      "assetIds": []
    },
    {
      "x": 171,
      "y": 166,
      "size": 1,
      "price": "1011000000000000000000",
      "reserved": "",
      "salt": "0x4f0806dccb414f92c1f1f7cdf7d83967cd39f5285819c2694ee2ca094055d5d9",
      "assetIds": []
    },
    {
      "x": 171,
      "y": 167,
      "size": 1,
      "price": "4683000000000000000000",
      "reserved": "",
      "salt": "0x4258dd578f3cc667c2f709866e87496580d957b8437b95804a1fe71e008670d5",
      "assetIds": [
        "41506478881403507969696680653240014914910929820314476107906210059990541021188"
      ]
    },
    {
      "x": 171,
      "y": 168,
      "size": 1,
      "price": "4683000000000000000000",
      "reserved": "",
      "salt": "0xc5807b52b8f591e418dbbe152eba2c4e4a051c21c41912eafd669285b193e19b",
      "assetIds": [
        "41506478881403507969696680653240014914910929820314476107906210059990541021186"
      ]
    },
    {
      "x": 171,
      "y": 169,
      "size": 1,
      "price": "4683000000000000000000",
      "reserved": "",
      "salt": "0xcf49e9b15e7a2927bc079dc12685540b677862868486310ae0cc092ccf62917a",
      "assetIds": [
        "41506478881403507969696680653240014914910929820314476107906210059990541021189"
      ]
    },
    {
      "x": 171,
      "y": 170,
      "size": 1,
      "price": "4683000000000000000000",
      "reserved": "",
      "salt": "0xbdf6a284fe194f67e2ec7c705823ac67a49ada11f121ad3a4a5927adc49d54cd",
      "assetIds": [
        "41506478881403507969696680653240014914910929820314476107906210059990541021189"
      ]
    },
    {
      "x": 171,
      "y": 171,
      "size": 1,
      "price": "4683000000000000000000",
      "reserved": "",
      "salt": "0x095a6e89b10088f6f137071b54adbf06a5c34c7c797231e579d13f1185350414",
      "assetIds": [
        "41506478881403507969696680653240014914910929820314476107906210059990541021188"
      ]
    },
    {
      "x": 171,
      "y": 172,
      "size": 1,
      "price": "4683000000000000000000",
      "reserved": "",
      "salt": "0x7068a07f66d960f1635dc6a8be5aaa1492e671ed4b8da6f9d6deaf7be778ed4d",
      "assetIds": [
        "41506478881403507969696680653240014914910929820314476107906210059990541021186"
      ]
    },
    {
      "x": 171,
      "y": 173,
      "size": 1,
      "price": "4683000000000000000000",
      "reserved": "",
      "salt": "0xf9037ee33451fb539f101e543ac537deaff43caf04278d1fc09d14d53af6e25e",
      "assetIds": [
        "41506478881403507969696680653240014914910929820314476107906210059990541021186"
      ]
    },
    {
      "x": 171,
      "y": 174,
      "size": 1,
      "price": "4683000000000000000000",
      "reserved": "",
      "salt": "0x59548e9d066cd855edcc72d9bf87078ac9a0398b115accd5c5f851856fe05101",
      "assetIds": [
        "41506478881403507969696680653240014914910929820314476107906210059990541021188"
      ]
    },
    {
      "x": 171,
      "y": 175,
      "size": 1,
      "price": "4683000000000000000000",
      "reserved": "",
      "salt": "0xd9e2cad2eb08da107adcf3cadf130a56c2f19e1f9ad6e590819ac4b164f4bdd0",
      "assetIds": [
        "41506478881403507969696680653240014914910929820314476107906210059990541021188"
      ]
    },
    {
      "x": 171,
      "y": 176,
      "size": 1,
      "price": "4683000000000000000000",
      "reserved": "",
      "salt": "0x9429b3d3a632386697ab8f191a596ea531f79b56a5c415e4c5d96f53076a3396",
      "assetIds": [
        "41506478881403507969696680653240014914910929820314476107906210059990541021186"
      ]
    },
    {
      "x": 171,
      "y": 177,
      "size": 1,
      "price": "4683000000000000000000",
      "reserved": "",
      "salt": "0x3741ad4cb7381dd14e1ea8429ce53d28fa73d86a07e58266733956c3e70faf2f",
      "assetIds": [
        "41506478881403507969696680653240014914910929820314476107906210059990541021186"
      ]
    },
    {
      "x": 171,
      "y": 178,
      "size": 1,
      "price": "4683000000000000000000",
      "reserved": "",
      "salt": "0xd4b2b337f31f6969f58d0b37bdb988723cb10d8a483f999c5fff05cbd4024092",
      "assetIds": [
        "41506478881403507969696680653240014914910929820314476107906210059990541021186"
      ]
    },
    {
      "x": 171,
      "y": 179,
      "size": 1,
      "price": "4683000000000000000000",
      "reserved": "",
      "salt": "0x8620c62cebd8234c48e7925fef4f1d6fc3f847b18d9baeee8466cc7ea3e70cc6",
      "assetIds": [
        "41506478881403507969696680653240014914910929820314476107906210059990541021189"
      ]
    },
    {
      "x": 171,
      "y": 192,
      "size": 1,
      "price": "4683000000000000000000",
      "reserved": "",
      "salt": "0x188320a92ddb8565bd6b86d2417cbe7130a3bc0f9745c6aa092d0e33939cb90d",
      "assetIds": [
        "41506478881403507969696680653240014914910929820314476107906210059990541021188"
      ]
    },
    {
      "x": 171,
      "y": 193,
      "size": 1,
      "price": "1011000000000000000000",
      "reserved": "0x7a9fe22691c811ea339d9b73150e6911a5343dca",
      "salt": "0xbb647b0c4490711edafff4d678862830880236108c5e4080a2c189e5183face1",
      "assetIds": []
    },
    {
      "x": 171,
      "y": 194,
      "size": 1,
      "price": "1011000000000000000000",
      "reserved": "",
      "salt": "0xc30176f782dc2e2c7f0292545f9401b0114bbca39399f7751b446deebf417bfd",
      "assetIds": []
    },
    {
      "x": 171,
      "y": 195,
      "size": 1,
      "price": "1011000000000000000000",
      "reserved": "",
      "salt": "0xa001ef2b2a25706b8fb4b132a1af91cbc60129da81842cbb9f34e77f6f841681",
      "assetIds": []
    },
    {
      "x": 171,
      "y": 196,
      "size": 1,
      "price": "1011000000000000000000",
      "reserved": "",
      "salt": "0x39fb5562202fc2918447ddcc8e7f9c6897124f73e1143e5b2dcd5890d6449f9f",
      "assetIds": []
    },
    {
      "x": 171,
      "y": 197,
      "size": 1,
      "price": "1011000000000000000000",
      "reserved": "",
      "salt": "0xa5770225a5f9aa1c59ebe8d5bfe4c4d8d7a7c59e246e0e318ce324f87b420adb",
      "assetIds": []
    },
    {
      "x": 172,
      "y": 162,
      "size": 1,
      "price": "1011000000000000000000",
      "reserved": "",
      "salt": "0x9599a2f1e40b4ba02e765efe0724cf2764316a1c511d4ba2b8ff050d2b10fe8b",
      "assetIds": []
    },
    {
      "x": 172,
      "y": 163,
      "size": 1,
      "price": "1011000000000000000000",
      "reserved": "",
      "salt": "0xac535f5368450878c9db2740f4554ecb5874a2ce07f6ed0c6403b33c539805f7",
      "assetIds": []
    },
    {
      "x": 172,
      "y": 164,
      "size": 1,
      "price": "1011000000000000000000",
      "reserved": "",
      "salt": "0x6096daaef4e8bc357ba4a8163106c1e4130d1393b1b5e923ce2c1e66ce782cc9",
      "assetIds": []
    },
    {
      "x": 172,
      "y": 165,
      "size": 1,
      "price": "1011000000000000000000",
      "reserved": "",
      "salt": "0xfd86874bbf092db54635f272e1f74285706be6d92681205e64f912f1915d9173",
      "assetIds": []
    },
    {
      "x": 172,
      "y": 166,
      "size": 1,
      "price": "1011000000000000000000",
      "reserved": "",
      "salt": "0x05657612a27292ad90e5c28a250efedda17c9bfc6495de0ad2aa4533ec1d4279",
      "assetIds": []
    },
    {
      "x": 172,
      "y": 167,
      "size": 1,
      "price": "4683000000000000000000",
      "reserved": "",
      "salt": "0x652091c47f6f62db781edd9d4d2e8095e2c8ce0c37f31067b8961452378fb061",
      "assetIds": [
        "41506478881403507969696680653240014914910929820314476107906210059990541021186"
      ]
    },
    {
      "x": 172,
      "y": 168,
      "size": 1,
      "price": "4683000000000000000000",
      "reserved": "",
      "salt": "0x7480a9b38f2c8c0fb4831d003595096a33bc88d58837c6a07467c5970cd6e5dc",
      "assetIds": [
        "41506478881403507969696680653240014914910929820314476107906210059990541021188"
      ]
    },
    {
      "x": 172,
      "y": 169,
      "size": 1,
      "price": "4683000000000000000000",
      "reserved": "",
      "salt": "0x533abe6dc4d9c6a2455a32afbc322fd26c7d47185e008ff82b7ca497d249580f",
      "assetIds": [
        "41506478881403507969696680653240014914910929820314476107906210059990541021188"
      ]
    },
    {
      "x": 172,
      "y": 170,
      "size": 1,
      "price": "1011000000000000000000",
      "reserved": "0x7a9fe22691c811ea339d9b73150e6911a5343dca",
      "salt": "0xb8099a1bd8838260a796ff766af8715dd4657abb15066e8453544182e33a2283",
      "assetIds": []
    },
    {
      "x": 172,
      "y": 171,
      "size": 1,
      "price": "4683000000000000000000",
      "reserved": "",
      "salt": "0x4563833da0da924eff134b7c1cc1be702a8f7099443d3dd17c6ec65e3430b303",
      "assetIds": [
        "41506478881403507969696680653240014914910929820314476107906210059990541021186"
      ]
    },
    {
      "x": 172,
      "y": 172,
      "size": 1,
      "price": "4683000000000000000000",
      "reserved": "",
      "salt": "0x6dd45e47188dcd60bbcd14feb0bf9effb5dc9fd7ce11d975b44627b655e97729",
      "assetIds": [
        "41506478881403507969696680653240014914910929820314476107906210059990541021186"
      ]
    },
    {
      "x": 172,
      "y": 173,
      "size": 1,
      "price": "4683000000000000000000",
      "reserved": "",
      "salt": "0xc39475079d82dd06202952f51b1387767560d6ed3d42e22cb92f7cb6405d7908",
      "assetIds": [
        "41506478881403507969696680653240014914910929820314476107906210059990541021188"
      ]
    },
    {
      "x": 172,
      "y": 174,
      "size": 1,
      "price": "4683000000000000000000",
      "reserved": "",
      "salt": "0x1f51a79dbaea09c89ce595efe73c73f1501f99dff2661b86b8ef2d9feaa01285",
      "assetIds": [
        "41506478881403507969696680653240014914910929820314476107906210059990541021186"
      ]
    },
    {
      "x": 172,
      "y": 175,
      "size": 1,
      "price": "4683000000000000000000",
      "reserved": "",
      "salt": "0xbb9760099162e1d24e96f83e37eb4e4aafb4bbfe7e2b2a53b471cbe80e0e0d62",
      "assetIds": [
        "41506478881403507969696680653240014914910929820314476107906210059990541021186"
      ]
    },
    {
      "x": 172,
      "y": 176,
      "size": 1,
      "price": "4683000000000000000000",
      "reserved": "",
      "salt": "0x11004bb16fa60c13074478c8bca85a0b16e38d2a704360e846e70d82deb40218",
      "assetIds": [
        "41506478881403507969696680653240014914910929820314476107906210059990541021189"
      ]
    },
    {
      "x": 172,
      "y": 177,
      "size": 1,
      "price": "4683000000000000000000",
      "reserved": "",
      "salt": "0x57e2b4660a0339960cc528e6a4f3d5f1f12f9ce60653ec983442ca23daa456ac",
      "assetIds": [
        "41506478881403507969696680653240014914910929820314476107906210059990541021189"
      ]
    },
    {
      "x": 172,
      "y": 178,
      "size": 1,
      "price": "4683000000000000000000",
      "reserved": "",
      "salt": "0x05373269ef057e5ebba4a412db3351be6bb796fd99018c88cf13da5d1bba1cbd",
      "assetIds": [
        "41506478881403507969696680653240014914910929820314476107906210059990541021189"
      ]
    },
    {
      "x": 172,
      "y": 179,
      "size": 1,
      "price": "4683000000000000000000",
      "reserved": "",
      "salt": "0x67ad8bff7e325faf4f8085425fe76f75f343f8a03ab4420485634aae1bcd0f1e",
      "assetIds": [
        "41506478881403507969696680653240014914910929820314476107906210059990541021189"
      ]
    },
    {
      "x": 172,
      "y": 192,
      "size": 1,
      "price": "4683000000000000000000",
      "reserved": "",
      "salt": "0x56ba7f2d6c90f1ef2bd2b164a140c1343af8d1fc7094718f10cbcd2fd390796d",
      "assetIds": [
        "41506478881403507969696680653240014914910929820314476107906210059990541021189"
      ]
    },
    {
      "x": 172,
      "y": 193,
      "size": 1,
      "price": "1011000000000000000000",
      "reserved": "",
      "salt": "0x1fee39a7994cd96b43d9636931dab75eef820ae48e7ff5cb2f680de1b23e807e",
      "assetIds": []
    },
    {
      "x": 172,
      "y": 194,
      "size": 1,
      "price": "1011000000000000000000",
      "reserved": "",
      "salt": "0xe5df7d0c3580aa6f5634c522c4841ec9aa7ec6e2cc37dba9d137651ff05bf37a",
      "assetIds": []
    },
    {
      "x": 172,
      "y": 195,
      "size": 1,
      "price": "1011000000000000000000",
      "reserved": "",
      "salt": "0xe20d4dc40493adde9fe5935c9b9c2720b62e8507a859bb9ffe3035ef20258fde",
      "assetIds": []
    },
    {
      "x": 172,
      "y": 196,
      "size": 1,
      "price": "1011000000000000000000",
      "reserved": "",
      "salt": "0xf1140c1a74585bfe4662d0abd11baaa480abbeb80ff6026883331f6ecb7e69a3",
      "assetIds": []
    },
    {
      "x": 172,
      "y": 197,
      "size": 1,
      "price": "1011000000000000000000",
      "reserved": "",
      "salt": "0xf3ce943b10db6cb7ed755c18149b664ec17e51421e389d639e9e81ac6c6941c8",
      "assetIds": []
    },
    {
      "x": 173,
      "y": 162,
      "size": 1,
      "price": "1011000000000000000000",
      "reserved": "",
      "salt": "0x9685cf83b82525ac672034ff60bd595a2d4fb719566f3b22099b1feebcf1d589",
      "assetIds": []
    },
    {
      "x": 173,
      "y": 163,
      "size": 1,
      "price": "1011000000000000000000",
      "reserved": "",
      "salt": "0x1debfd1c8b3af70a08b538826568826904dfbea76b3e746c6421528f6e15aea3",
      "assetIds": []
    },
    {
      "x": 173,
      "y": 164,
      "size": 1,
      "price": "1011000000000000000000",
      "reserved": "",
      "salt": "0xa3d4ffa5654d5a279a89a74d3b01722da112cb9c151a6744eddfd94166fd42b5",
      "assetIds": []
    },
    {
      "x": 173,
      "y": 165,
      "size": 1,
      "price": "1011000000000000000000",
      "reserved": "",
      "salt": "0x2b7c0a5b564ec06e88a308db533d004189b6638930b0615f0bd38cc023309e8c",
      "assetIds": []
    },
    {
      "x": 173,
      "y": 166,
      "size": 1,
      "price": "1011000000000000000000",
      "reserved": "",
      "salt": "0x63c9c05617cd3c0887a2d02a72f8a097185132db0fcd34c32dad592b49950141",
      "assetIds": []
    },
    {
      "x": 173,
      "y": 167,
      "size": 1,
      "price": "1011000000000000000000",
      "reserved": "",
      "salt": "0x2b4c0e64ad6ecadf714610faa9b34435df4038e9a1f104acdac2242b2a0cdc39",
      "assetIds": []
    },
    {
      "x": 173,
      "y": 168,
      "size": 1,
      "price": "4683000000000000000000",
      "reserved": "",
      "salt": "0xfbd225226345975ce65de4fbdb689ec01812985f40e04a6b5f2c21fd01c40bb4",
      "assetIds": [
        "41506478881403507969696680653240014914910929820314476107906210059990541021188"
      ]
    },
    {
      "x": 173,
      "y": 169,
      "size": 1,
      "price": "4683000000000000000000",
      "reserved": "",
      "salt": "0xb1eff9f50ebf226649245d1e0dc9c2030142edd835f7d72ad08d19fcc3b300d4",
      "assetIds": [
        "41506478881403507969696680653240014914910929820314476107906210059990541021186"
      ]
    },
    {
      "x": 173,
      "y": 170,
      "size": 1,
      "price": "4683000000000000000000",
      "reserved": "",
      "salt": "0xcbdc2f77465bcbb104b0bce6f809e84e009ea92d3f101287988018f919960ea1",
      "assetIds": [
        "41506478881403507969696680653240014914910929820314476107906210059990541021188"
      ]
    },
    {
      "x": 173,
      "y": 171,
      "size": 1,
      "price": "4683000000000000000000",
      "reserved": "",
      "salt": "0x16450cc10dfe9bc9f0246ea2482ced7b68b0345dbf294c11f8241bd9e1af1e90",
      "assetIds": [
        "41506478881403507969696680653240014914910929820314476107906210059990541021186"
      ]
    },
    {
      "x": 173,
      "y": 172,
      "size": 1,
      "price": "4683000000000000000000",
      "reserved": "",
      "salt": "0x02455564f661b25f70511aa8212c589eab7e6e793d88aa5b38362872b0c7fa3f",
      "assetIds": [
        "41506478881403507969696680653240014914910929820314476107906210059990541021188"
      ]
    },
    {
      "x": 173,
      "y": 173,
      "size": 1,
      "price": "4683000000000000000000",
      "reserved": "",
      "salt": "0x3cfa7c57df6c08cedbac443cfad2edebbf7a6dfa86fa955339f4854fe1bef5d5",
      "assetIds": [
        "41506478881403507969696680653240014914910929820314476107906210059990541021188"
      ]
    },
    {
      "x": 173,
      "y": 174,
      "size": 1,
      "price": "4683000000000000000000",
      "reserved": "",
      "salt": "0xdbbd350f482135ab9ed7e0bd5d93ca836789df2dc02cda6ff8139c9bb292a14a",
      "assetIds": [
        "41506478881403507969696680653240014914910929820314476107906210059990541021189"
      ]
    },
    {
      "x": 173,
      "y": 175,
      "size": 1,
      "price": "4683000000000000000000",
      "reserved": "",
      "salt": "0xe1e138296befa4af4bdb2d1cd22230c22552d69b6a1d5173c75fa83b46f95559",
      "assetIds": [
        "41506478881403507969696680653240014914910929820314476107906210059990541021186"
      ]
    },
    {
      "x": 173,
      "y": 176,
      "size": 1,
      "price": "1011000000000000000000",
      "reserved": "0x7a9fe22691c811ea339d9b73150e6911a5343dca",
      "salt": "0x8a6a622d7f21d19a86c4fe985daba94f19f684c1b5efc911a36b9658afc70007",
      "assetIds": []
    },
    {
      "x": 173,
      "y": 177,
      "size": 1,
      "price": "1011000000000000000000",
      "reserved": "0x7a9fe22691c811ea339d9b73150e6911a5343dca",
      "salt": "0xeaae0d29649696d043f687901600f6e6ff1d667a722d7d476f1773ab7385add1",
      "assetIds": []
    },
    {
      "x": 173,
      "y": 178,
      "size": 1,
      "price": "4683000000000000000000",
      "reserved": "",
      "salt": "0x57ee7d396f1b0e28c392275d77e1383126573bf4b68f24cfa011b590c8fa8444",
      "assetIds": [
        "41506478881403507969696680653240014914910929820314476107906210059990541021189"
      ]
    },
    {
      "x": 173,
      "y": 179,
      "size": 1,
      "price": "4683000000000000000000",
      "reserved": "",
      "salt": "0xe8894d284074f92f094d386696bb3a1e8f83aaec761df789015096bbeb70420a",
      "assetIds": [
        "41506478881403507969696680653240014914910929820314476107906210059990541021188"
      ]
    },
    {
      "x": 173,
      "y": 192,
      "size": 1,
      "price": "1011000000000000000000",
      "reserved": "0x7a9fe22691c811ea339d9b73150e6911a5343dca",
      "salt": "0xbeacef0ab5390ec054437ac6714dcf73d17e78ef4d1c3349a4600515d900d609",
      "assetIds": []
    },
    {
      "x": 173,
      "y": 193,
      "size": 1,
      "price": "1011000000000000000000",
      "reserved": "",
      "salt": "0x76371c9d07e2d08ded7d2a7cff8d1706258ae30c6c8cbd56d48f5c9d50b2b9e9",
      "assetIds": []
    },
    {
      "x": 173,
      "y": 194,
      "size": 1,
      "price": "1011000000000000000000",
      "reserved": "",
      "salt": "0x288e64231f85d9c13de2823e4824dbf10523dd60108bf368c500cb3551247d68",
      "assetIds": []
    },
    {
      "x": 173,
      "y": 195,
      "size": 1,
      "price": "1011000000000000000000",
      "reserved": "0x7a9fe22691c811ea339d9b73150e6911a5343dca",
      "salt": "0xc3c94ac81db11c9ff0923e422e00267fca389ed93032e6e24fbdf0847c4e9b61",
      "assetIds": []
    },
    {
      "x": 173,
      "y": 196,
      "size": 1,
      "price": "1011000000000000000000",
      "reserved": "",
      "salt": "0x4ce90af6f3520284c1c7198fe39642752d058c0ea8a0844193576255e0c9931b",
      "assetIds": []
    },
    {
      "x": 173,
      "y": 197,
      "size": 1,
      "price": "1011000000000000000000",
      "reserved": "0x7a9fe22691c811ea339d9b73150e6911a5343dca",
      "salt": "0x0776914604c1d7ec7e5881f601f87a4c54c530ec6aa3926df9238a44cb46069a",
      "assetIds": []
    },
    {
      "x": 174,
      "y": 162,
      "size": 1,
      "price": "1011000000000000000000",
      "reserved": "",
      "salt": "0xf56423c387535f1a318c5ae2a3e9ecf93bf495b78d1b8fb3874e458f9ad06931",
      "assetIds": []
    },
    {
      "x": 174,
      "y": 163,
      "size": 1,
      "price": "1011000000000000000000",
      "reserved": "",
      "salt": "0x40323072027a2fa751459173b67fb4b7871ce29a828f9d53f48e46e105a70226",
      "assetIds": []
    },
    {
      "x": 174,
      "y": 164,
      "size": 1,
      "price": "1011000000000000000000",
      "reserved": "",
      "salt": "0x7c04b2885b3ac7fcc6a6af25689172c5837b84a1713260f6b8d25ed42d4fa402",
      "assetIds": []
    },
    {
      "x": 174,
      "y": 165,
      "size": 1,
      "price": "1011000000000000000000",
      "reserved": "",
      "salt": "0x8b02a200368ef5e998d9b2a729f8f5f1cc47bff690811bfd042450b57a05b335",
      "assetIds": []
    },
    {
      "x": 174,
      "y": 166,
      "size": 1,
      "price": "1011000000000000000000",
      "reserved": "",
      "salt": "0xf7469c7629700c1986c602c1901cf1c43a1e608f05aebb6cf804d1bcc2376985",
      "assetIds": []
    },
    {
      "x": 174,
      "y": 167,
      "size": 1,
      "price": "1011000000000000000000",
      "reserved": "",
      "salt": "0x9a07615addc03fd9c1f5a6e8c2b49dcaea4221265b4a979f487f9b9039341b48",
      "assetIds": []
    },
    {
      "x": 174,
      "y": 168,
      "size": 1,
      "price": "1011000000000000000000",
      "reserved": "0x7a9fe22691c811ea339d9b73150e6911a5343dca",
      "salt": "0x8940ce2fe515e279e27520038aa9e0872706e3bec3120111f83029ea6e78701e",
      "assetIds": []
    },
    {
      "x": 174,
      "y": 169,
      "size": 1,
      "price": "1011000000000000000000",
      "reserved": "",
      "salt": "0x271872dc96468ec8a311aa5b192ca17aa2007358835c631de9ea4761b51a66a8",
      "assetIds": []
    },
    {
      "x": 174,
      "y": 170,
      "size": 1,
      "price": "1011000000000000000000",
      "reserved": "",
      "salt": "0x8c0b3316d3513018f523bbfa47e890d35c0fb79b830173adeec3be03098a3832",
      "assetIds": []
    },
    {
      "x": 174,
      "y": 171,
      "size": 1,
      "price": "1011000000000000000000",
      "reserved": "",
      "salt": "0x8b692ef3fa4e33213f9faa1c8412a34a61aca5a6232e66704d201f4d2d45910a",
      "assetIds": []
    },
    {
      "x": 174,
      "y": 172,
      "size": 1,
      "price": "1011000000000000000000",
      "reserved": "",
      "salt": "0x41f52e870e8db01019f7d9549e94d3b50f87fae060610cdd8877aff796f793dc",
      "assetIds": []
    },
    {
      "x": 174,
      "y": 173,
      "size": 1,
      "price": "1011000000000000000000",
      "reserved": "",
      "salt": "0x432434ef1d3149bbf623be4115ea8ffb745dacc089994e74454d8aeb173c5f08",
      "assetIds": []
    },
    {
      "x": 174,
      "y": 192,
      "size": 1,
      "price": "1011000000000000000000",
      "reserved": "",
      "salt": "0xfabc31633c37c7cee35d50a06a4780ec978aa0a0e3070d0cbc887b07cd5ba86c",
      "assetIds": []
    },
    {
      "x": 174,
      "y": 193,
      "size": 1,
      "price": "1011000000000000000000",
      "reserved": "",
      "salt": "0xa89ff02b15c6951fbf0a755f4bfabaf168a7fa07318e07cb2e3c844b5fd4c09f",
      "assetIds": []
    },
    {
      "x": 174,
      "y": 194,
      "size": 1,
      "price": "1011000000000000000000",
      "reserved": "",
      "salt": "0xf8f0c2de8db23a7e8bde1c3bf0d13f25a7ce9189bd83efe777db7240f0ae8336",
      "assetIds": []
    },
    {
      "x": 174,
      "y": 195,
      "size": 1,
      "price": "1011000000000000000000",
      "reserved": "",
      "salt": "0x365c1086c78d51b40c88e19d7774115eb15dcf7349cc271386cb9392512940ff",
      "assetIds": []
    },
    {
      "x": 174,
      "y": 196,
      "size": 1,
      "price": "1011000000000000000000",
      "reserved": "",
      "salt": "0x459bf10657f4a0aec5c522c40ebc84d4803d00b805821d104390659d31fdcb6d",
      "assetIds": []
    },
    {
      "x": 174,
      "y": 197,
      "size": 1,
      "price": "1011000000000000000000",
      "reserved": "",
      "salt": "0x1329a25d7f501b93c8d2b8f3ed52ed5707ae58333cbb77823ac68d8574cc8be5",
      "assetIds": []
    },
    {
      "x": 175,
      "y": 162,
      "size": 1,
      "price": "1011000000000000000000",
      "reserved": "",
      "salt": "0xa3bb285a3894b2d35c7cbda866c08208124c07687ee6e420e50e2dc553d903ff",
      "assetIds": []
    },
    {
      "x": 175,
      "y": 163,
      "size": 1,
      "price": "1011000000000000000000",
      "reserved": "",
      "salt": "0xcf72152e62edc3667dfc7ff7aaf9b31d9fec5c58f9f2643415b08ad3103f9be3",
      "assetIds": []
    },
    {
      "x": 175,
      "y": 164,
      "size": 1,
      "price": "1011000000000000000000",
      "reserved": "",
      "salt": "0xc9c9e9baab6b038d5ce0c6c24c801979c785c96d674444002e855d2fbebf335f",
      "assetIds": []
    },
    {
      "x": 175,
      "y": 165,
      "size": 1,
      "price": "1011000000000000000000",
      "reserved": "0x7a9fe22691c811ea339d9b73150e6911a5343dca",
      "salt": "0x3c9413f3a0085dcbeae3d58910af7b291421d494a50bf8af24f37ee5755642cf",
      "assetIds": []
    },
    {
      "x": 175,
      "y": 166,
      "size": 1,
      "price": "1011000000000000000000",
      "reserved": "",
      "salt": "0x5b8536d6e7a7f7422f217c6276d1828f6d9da359c98d00d6e934d2545153d296",
      "assetIds": []
    },
    {
      "x": 175,
      "y": 167,
      "size": 1,
      "price": "1011000000000000000000",
      "reserved": "",
      "salt": "0x98299be4207d4913157fed4b67b84402e6dc748da9b9d451fced577896f2a460",
      "assetIds": []
    },
    {
      "x": 175,
      "y": 168,
      "size": 1,
      "price": "1011000000000000000000",
      "reserved": "",
      "salt": "0x0fdb3da5ea8e2fc05cbaf0a5649f6eabc2716ae12bcd76a46fe6bf85702f6ca2",
      "assetIds": []
    },
    {
      "x": 175,
      "y": 169,
      "size": 1,
      "price": "1011000000000000000000",
      "reserved": "",
      "salt": "0xa0e22ddea75ca67cc01df9f8cee9951c849fd0b2189bb88bc8a93d1a25eaa1bd",
      "assetIds": []
    },
    {
      "x": 175,
      "y": 170,
      "size": 1,
      "price": "1011000000000000000000",
      "reserved": "",
      "salt": "0x9d966baec430b9f45d8f090929efeec412ff7fa1fdca658f330439d1183b2a99",
      "assetIds": []
    },
    {
      "x": 175,
      "y": 171,
      "size": 1,
      "price": "1011000000000000000000",
      "reserved": "",
      "salt": "0x01492d7a926b38bb4db91c4b48fd089fbb6db02acedecb49180a554a4c39c2b7",
      "assetIds": []
    },
    {
      "x": 175,
      "y": 172,
      "size": 1,
      "price": "1011000000000000000000",
      "reserved": "",
      "salt": "0x5bc5c2ca8f6df26b919211da8925c88b4403307977732a970261500d143f0862",
      "assetIds": []
    },
    {
      "x": 175,
      "y": 173,
      "size": 1,
      "price": "1011000000000000000000",
      "reserved": "0x7a9fe22691c811ea339d9b73150e6911a5343dca",
      "salt": "0xdbf9c50df2271b977561cc240eeb1e1b2e09ccb9f4f2668961f5422f4a624cff",
      "assetIds": []
    },
    {
      "x": 175,
      "y": 192,
      "size": 1,
      "price": "1011000000000000000000",
      "reserved": "",
      "salt": "0x7448098cb76c0ae4b551d116f967b0f906e2c3c7d3ce1c2b3399f9e1f4b61524",
      "assetIds": []
    },
    {
      "x": 175,
      "y": 193,
      "size": 1,
      "price": "1011000000000000000000",
      "reserved": "",
      "salt": "0x6be180e509d129f66695f1c2242996a5e6da438a7eb3ed324fd5590ea23c7b60",
      "assetIds": []
    },
    {
      "x": 175,
      "y": 194,
      "size": 1,
      "price": "1011000000000000000000",
      "reserved": "0x7a9fe22691c811ea339d9b73150e6911a5343dca",
      "salt": "0xc98ccdc79ccfb86dbc3bd06765faed3a63acd1e72ed41051125eab73ec167acf",
      "assetIds": []
    },
    {
      "x": 175,
      "y": 195,
      "size": 1,
      "price": "1011000000000000000000",
      "reserved": "",
      "salt": "0x83c953c2c8fddd23c2a963190edfae1905dcdd07f78f5badea6e03ad74b38a42",
      "assetIds": []
    },
    {
      "x": 175,
      "y": 196,
      "size": 1,
      "price": "1011000000000000000000",
      "reserved": "",
      "salt": "0x9297757f6b8e5e8c6a0b03c95a43bb713a6ef1e2ef5d0b4abe8b3245ab07a187",
      "assetIds": []
    },
    {
      "x": 175,
      "y": 197,
      "size": 1,
      "price": "1011000000000000000000",
      "reserved": "",
      "salt": "0x9b297dd1d2fd878c3ea31b9301756903d2c4125d8a7a7949ed4cab44a834d7bc",
      "assetIds": []
    },
    {
      "x": 176,
      "y": 162,
      "size": 1,
      "price": "1011000000000000000000",
      "reserved": "",
      "salt": "0x69dae78d1df2e33032cd897b1282b53eed3862172f64c130a2e6b17f8b30796a",
      "assetIds": []
    },
    {
      "x": 176,
      "y": 163,
      "size": 1,
      "price": "1011000000000000000000",
      "reserved": "",
      "salt": "0x28a33a9cef506348a8a3923b9e4aa7bf41dc13839aa4c3c57b0638e9ec2e1fe0",
      "assetIds": []
    },
    {
      "x": 176,
      "y": 164,
      "size": 1,
      "price": "1011000000000000000000",
      "reserved": "",
      "salt": "0x52f848611873e50c5ecb850fdd58774c98d8de19cc75de85da19fed86338114e",
      "assetIds": []
    },
    {
      "x": 176,
      "y": 165,
      "size": 1,
      "price": "1011000000000000000000",
      "reserved": "",
      "salt": "0x161f72ef53d00332dd752136eda20ba7596714573d6a02eb408e3d4bfbf8cd6e",
      "assetIds": []
    },
    {
      "x": 176,
      "y": 166,
      "size": 1,
      "price": "1011000000000000000000",
      "reserved": "",
      "salt": "0x90e89de80ad5fbb65b80817f9dff615ec24a33a1638a9ba5d0df01e8c288fce3",
      "assetIds": []
    },
    {
      "x": 176,
      "y": 167,
      "size": 1,
      "price": "1011000000000000000000",
      "reserved": "",
      "salt": "0xc23bb68d5585a989356ffb1390fd9adc4005e6fa43b7ceeede574f3fd493596b",
      "assetIds": []
    },
    {
      "x": 176,
      "y": 168,
      "size": 1,
      "price": "1011000000000000000000",
      "reserved": "",
      "salt": "0x9f4ab0898e95a92f020b423630ce147514bfb718360263397c26098dff68a88a",
      "assetIds": []
    },
    {
      "x": 176,
      "y": 169,
      "size": 1,
      "price": "1011000000000000000000",
      "reserved": "",
      "salt": "0x90dc765a21f95df007adc657cabf534ed7f25e9420e20f5421e572edea8c1261",
      "assetIds": []
    },
    {
      "x": 176,
      "y": 170,
      "size": 1,
      "price": "1011000000000000000000",
      "reserved": "",
      "salt": "0x137cb9773710b7a6baffd647eb8acf880b85c45f0090a17f9dc69fb71d8d826f",
      "assetIds": []
    },
    {
      "x": 176,
      "y": 171,
      "size": 1,
      "price": "1011000000000000000000",
      "reserved": "",
      "salt": "0x193f480ee1d06e66620fbe4717cb206a3c835341d1fc8f73cb9398a776682657",
      "assetIds": []
    },
    {
      "x": 176,
      "y": 172,
      "size": 1,
      "price": "1011000000000000000000",
      "reserved": "",
      "salt": "0x51043d0a5353854da36fda000e9de12eedbc1da4f5096bd4b931ceca3adc2978",
      "assetIds": []
    },
    {
      "x": 176,
      "y": 173,
      "size": 1,
      "price": "1011000000000000000000",
      "reserved": "",
      "salt": "0xdea4eb1e84aa57730b20cd66ffb27b19fb60bb41c34af13327be62282f4dfb14",
      "assetIds": []
    },
    {
      "x": 176,
      "y": 192,
      "size": 1,
      "price": "1011000000000000000000",
      "reserved": "",
      "salt": "0xd9970c4d0e7a7d1403813bf554c6492396f808486c98f7af83b74d76df3a5c6d",
      "assetIds": []
    },
    {
      "x": 176,
      "y": 193,
      "size": 1,
      "price": "1011000000000000000000",
      "reserved": "",
      "salt": "0x90cd8ddbaef8246e9f5a5b02d1d27eed5d9a48e10a49203f3d5e9bd48f66f18e",
      "assetIds": []
    },
    {
      "x": 176,
      "y": 194,
      "size": 1,
      "price": "1011000000000000000000",
      "reserved": "",
      "salt": "0x6caf77a1cb0bfc2a3d352a9e8ecd055ea6f044f11b6c614837d318629140e4c2",
      "assetIds": []
    },
    {
      "x": 176,
      "y": 195,
      "size": 1,
      "price": "1011000000000000000000",
      "reserved": "",
      "salt": "0xa0d10da9913759a9d0bd99fb48769ce7003fd3828969e9ffdb8096ac50e48652",
      "assetIds": []
    },
    {
      "x": 176,
      "y": 196,
      "size": 1,
      "price": "1011000000000000000000",
      "reserved": "",
      "salt": "0x7ed26908b9ba373459e420ab5458ee3071519cd4f4ade1c6ebaa36281675cda3",
      "assetIds": []
    },
    {
      "x": 176,
      "y": 197,
      "size": 1,
      "price": "1011000000000000000000",
      "reserved": "",
      "salt": "0x8c66cfcd2572ab8fe4c3f115561c86a155d271115bd7736ed203b5fcd55bef82",
      "assetIds": []
    },
    {
      "x": 177,
      "y": 162,
      "size": 1,
      "price": "1011000000000000000000",
      "reserved": "",
      "salt": "0xe7d3a7eafd76d286cc7622bb444df5d73cce31761f79790dbf91d3f1df81c058",
      "assetIds": []
    },
    {
      "x": 177,
      "y": 163,
      "size": 1,
      "price": "1011000000000000000000",
      "reserved": "",
      "salt": "0x5e94346be08d540cfc33dfe5be9142c73bddbd577485af394a1f3a9a104cbe73",
      "assetIds": []
    },
    {
      "x": 177,
      "y": 164,
      "size": 1,
      "price": "1011000000000000000000",
      "reserved": "",
      "salt": "0x1b9c9be960cc6b473da3cbe5343d400c6d572b7dcf8fa081b79d9c50991212cc",
      "assetIds": []
    },
    {
      "x": 177,
      "y": 165,
      "size": 1,
      "price": "1011000000000000000000",
      "reserved": "",
      "salt": "0x250eae0563c586cee0836887a371994f0f9b2da84a70dacc09703ac5178be7b5",
      "assetIds": []
    },
    {
      "x": 177,
      "y": 166,
      "size": 1,
      "price": "1011000000000000000000",
      "reserved": "",
      "salt": "0xd54f8603ab300555a088de65d195df7ae47caae83c370190e784940bb2d78bfc",
      "assetIds": []
    },
    {
      "x": 177,
      "y": 167,
      "size": 1,
      "price": "1011000000000000000000",
      "reserved": "",
      "salt": "0x8c454c6ca5bcafe2dee890a640b5379b07f09d30cf35c897aa18483d4d9260dd",
      "assetIds": []
    },
    {
      "x": 177,
      "y": 168,
      "size": 1,
      "price": "1011000000000000000000",
      "reserved": "",
      "salt": "0x3976f9e68b44e5a2d810e75266e9e7ce03b7c1d5c6c6c1baf10fefc6c464a95e",
      "assetIds": []
    },
    {
      "x": 177,
      "y": 169,
      "size": 1,
      "price": "1011000000000000000000",
      "reserved": "",
      "salt": "0x5141bced8c4413f56a040725b6022c5bdcb5afb50b2139a1230824551e36f1e0",
      "assetIds": []
    },
    {
      "x": 177,
      "y": 170,
      "size": 1,
      "price": "1011000000000000000000",
      "reserved": "",
      "salt": "0x2eb8bc438760998bab31ffd0f3ccdaacda85c3eb5475c91f0ddf8e8a9bef132c",
      "assetIds": []
    },
    {
      "x": 177,
      "y": 171,
      "size": 1,
      "price": "1011000000000000000000",
      "reserved": "",
      "salt": "0xab44a9813777ef2117ae19610b817c562925c31edb1684e675a6e2c59d0cfae3",
      "assetIds": []
    },
    {
      "x": 177,
      "y": 172,
      "size": 1,
      "price": "1011000000000000000000",
      "reserved": "",
      "salt": "0xb6e207310cd7d2d45782e564d7ea0425ff0ba494a75839c1955ad84c4c302353",
      "assetIds": []
    },
    {
      "x": 177,
      "y": 173,
      "size": 1,
      "price": "1011000000000000000000",
      "reserved": "",
      "salt": "0xf5d958a19ac63bd7602f80d516db4d21043a59a29d12ec4a47cb421f5ffd2fb8",
      "assetIds": []
    },
    {
      "x": 177,
      "y": 192,
      "size": 1,
      "price": "1011000000000000000000",
      "reserved": "",
      "salt": "0x72e8812f95431d782be505419e2fcae54046f0d08c6f48c344c4c3d8dd6566cf",
      "assetIds": []
    },
    {
      "x": 177,
      "y": 193,
      "size": 1,
      "price": "1011000000000000000000",
      "reserved": "",
      "salt": "0xe7a11d9c4667973c607f8381071ebffdd6fa47cd99da5d351fbe842c553ed3f5",
      "assetIds": []
    },
    {
      "x": 177,
      "y": 194,
      "size": 1,
      "price": "1011000000000000000000",
      "reserved": "",
      "salt": "0x7b3b9024a91e5300287979679beace591fec71ae989a26fbdccab82260fda846",
      "assetIds": []
    },
    {
      "x": 177,
      "y": 195,
      "size": 1,
      "price": "1011000000000000000000",
      "reserved": "",
      "salt": "0x5146476c8f203250c1f08f53151f1b68198988c74699e79e126d953536e341a5",
      "assetIds": []
    },
    {
      "x": 177,
      "y": 196,
      "size": 1,
      "price": "1011000000000000000000",
      "reserved": "",
      "salt": "0xb911497c40f1dab29f82199aaddfb5b072dc3e047180d09694728c2dd84feb84",
      "assetIds": []
    },
    {
      "x": 177,
      "y": 197,
      "size": 1,
      "price": "1011000000000000000000",
      "reserved": "",
      "salt": "0x67b18407a40b8b246d911ca3238fc7a49a4bac5ae567b4dbb85351dcc3f0a850",
      "assetIds": []
    },
    {
      "x": 178,
      "y": 162,
      "size": 1,
      "price": "1011000000000000000000",
      "reserved": "",
      "salt": "0x6f3cd1bee0bfe5149e33e02f2ebd304913431ada1d0918af683e0ec5793d913f",
      "assetIds": []
    },
    {
      "x": 178,
      "y": 163,
      "size": 1,
      "price": "1011000000000000000000",
      "reserved": "",
      "salt": "0x8a94b057d9f89d48bd85a452e6cccc8dc6db05f5140d1086ed07045253cc0c14",
      "assetIds": []
    },
    {
      "x": 178,
      "y": 164,
      "size": 1,
      "price": "1011000000000000000000",
      "reserved": "",
      "salt": "0x0aafe60f637a0f3b75c02a3d23b1cf5f5a510fae0a8bd0a4b8302a0fbd376dd6",
      "assetIds": []
    },
    {
      "x": 178,
      "y": 165,
      "size": 1,
      "price": "1011000000000000000000",
      "reserved": "",
      "salt": "0x2371402f80673dc7dbfe3c3ea364e9e228e715e969eb8c6f9cfe45697d65f24b",
      "assetIds": []
    },
    {
      "x": 178,
      "y": 166,
      "size": 1,
      "price": "1011000000000000000000",
      "reserved": "",
      "salt": "0x10748fba2777e79e69893c202f1c029762d7f523d52f739ba2dae6ecc22236c8",
      "assetIds": []
    },
    {
      "x": 178,
      "y": 167,
      "size": 1,
      "price": "1011000000000000000000",
      "reserved": "",
      "salt": "0x177a37dff4346dc8855b1421728df6ad1285ed5012884c2e3d8cfa6ee603a376",
      "assetIds": []
    },
    {
      "x": 178,
      "y": 168,
      "size": 1,
      "price": "1011000000000000000000",
      "reserved": "",
      "salt": "0xe2ef399274eb42faaa163f3960b48273651c0d98a5b702bc2ac79334799c0b8a",
      "assetIds": []
    },
    {
      "x": 178,
      "y": 169,
      "size": 1,
      "price": "1011000000000000000000",
      "reserved": "",
      "salt": "0x334c31c601e3ce963b0f49b1d2749637c1c0170bf6e68693bdbba7cd717b950d",
      "assetIds": []
    },
    {
      "x": 178,
      "y": 170,
      "size": 1,
      "price": "1011000000000000000000",
      "reserved": "",
      "salt": "0x2f2f9a3d1dfbee4bdff556690e26a320db4c95c0b79524a1aea81abeeea63506",
      "assetIds": []
    },
    {
      "x": 178,
      "y": 171,
      "size": 1,
      "price": "1011000000000000000000",
      "reserved": "",
      "salt": "0x755248cd61ed2e7271405e8e74c876e5f3f296fe59742895057f4e32c452ac4e",
      "assetIds": []
    },
    {
      "x": 178,
      "y": 172,
      "size": 1,
      "price": "1011000000000000000000",
      "reserved": "",
      "salt": "0x11f4a9bab10477ae052378874fb8ccc8f253633e1f3497765d2ceaf133e7e346",
      "assetIds": []
    },
    {
      "x": 178,
      "y": 173,
      "size": 1,
      "price": "1011000000000000000000",
      "reserved": "",
      "salt": "0x357e610e0caafefa6698b3aac626f0816ab97964ef17601e16ea98b10a0f8472",
      "assetIds": []
    },
    {
      "x": 178,
      "y": 192,
      "size": 1,
      "price": "1011000000000000000000",
      "reserved": "",
      "salt": "0x62a378e8cd9c1db42ddd69388cb8c028535626145f227522b6747df9a8ec4828",
      "assetIds": []
    },
    {
      "x": 178,
      "y": 193,
      "size": 1,
      "price": "1011000000000000000000",
      "reserved": "",
      "salt": "0x829e636e6cb6b89b81673a486b8a4f9d0d390f783118e860311235dfe822a614",
      "assetIds": []
    },
    {
      "x": 178,
      "y": 194,
      "size": 1,
      "price": "1011000000000000000000",
      "reserved": "",
      "salt": "0xcd412e94c1b7806859dd87264d28f187bb7033fed4115b371ea7be8514df115d",
      "assetIds": []
    },
    {
      "x": 178,
      "y": 195,
      "size": 1,
      "price": "1011000000000000000000",
      "reserved": "",
      "salt": "0x3bbd106352e1aff0bd76baf4960ff7c181c34e7f5ac638ccdbbc01428d08275e",
      "assetIds": []
    },
    {
      "x": 178,
      "y": 196,
      "size": 1,
      "price": "1011000000000000000000",
      "reserved": "0x7a9fe22691c811ea339d9b73150e6911a5343dca",
      "salt": "0x852d0a8a2d4812d00366c93c0fa984976455a1a87961f5d5ba2d25a472b8a22f",
      "assetIds": []
    },
    {
      "x": 178,
      "y": 197,
      "size": 1,
      "price": "1011000000000000000000",
      "reserved": "",
      "salt": "0x5bf10f2964720cfc83f241699168ef487ae7fc74583784ac8451bc6497d6f23d",
      "assetIds": []
    },
    {
      "x": 179,
      "y": 162,
      "size": 1,
      "price": "1011000000000000000000",
      "reserved": "",
      "salt": "0x0d3766eaf5e2da867a2741ba035cd5fa30d93477f96f168e7685dc62479d175c",
      "assetIds": []
    },
    {
      "x": 179,
      "y": 163,
      "size": 1,
      "price": "1011000000000000000000",
      "reserved": "",
      "salt": "0xf70d0e0a371f454d9d2c18398021da752eb7af4b3c16de238fde089ac5da095e",
      "assetIds": []
    },
    {
      "x": 179,
      "y": 164,
      "size": 1,
      "price": "1011000000000000000000",
      "reserved": "0x7a9fe22691c811ea339d9b73150e6911a5343dca",
      "salt": "0x68bab44624936134bfa7ecbe9cd87526eb221f8d196606fcc041173ccf51a2e0",
      "assetIds": []
    },
    {
      "x": 179,
      "y": 165,
      "size": 1,
      "price": "1011000000000000000000",
      "reserved": "",
      "salt": "0xa5f8849c9ec4ae43df340e23bc14fc7753aef216c6ea8aedc37a974ae5d5f76f",
      "assetIds": []
    },
    {
      "x": 179,
      "y": 166,
      "size": 1,
      "price": "1011000000000000000000",
      "reserved": "",
      "salt": "0x02262dced7b6e0f9c270404bae435e609b32acc50ff61f4a8e685d5f17f58b2c",
      "assetIds": []
    },
    {
      "x": 179,
      "y": 167,
      "size": 1,
      "price": "1011000000000000000000",
      "reserved": "",
      "salt": "0xee091cad02b5bef9527f262842a74b2570aa4537c2f385d747864fe9f7335c45",
      "assetIds": []
    },
    {
      "x": 179,
      "y": 168,
      "size": 1,
      "price": "1011000000000000000000",
      "reserved": "",
      "salt": "0x6f5b8679e0b5185d7ba0535460762136f001257ff3e93eaa4626f25302e1ddb3",
      "assetIds": []
    },
    {
      "x": 179,
      "y": 169,
      "size": 1,
      "price": "1011000000000000000000",
      "reserved": "",
      "salt": "0x25e74f56ed776c5f9c48300adee70390775dc6200b1ed9ccdb258ad3869221ed",
      "assetIds": []
    },
    {
      "x": 179,
      "y": 170,
      "size": 1,
      "price": "1011000000000000000000",
      "reserved": "",
      "salt": "0x293ec51cc3caea8532da7033435c664f117eff8761e899ab898a19599e7699e0",
      "assetIds": []
    },
    {
      "x": 179,
      "y": 171,
      "size": 1,
      "price": "1011000000000000000000",
      "reserved": "",
      "salt": "0x7529a71b3fa7d8d97738afbfc742fae6b0b1e126bb869a82be51ec22a3de6318",
      "assetIds": []
    },
    {
      "x": 179,
      "y": 172,
      "size": 1,
      "price": "1011000000000000000000",
      "reserved": "",
      "salt": "0xd03767299d2ff612b37fad2ea2a18fbaaafddc0df03c76d42a61afe4c03bca94",
      "assetIds": []
    },
    {
      "x": 179,
      "y": 173,
      "size": 1,
      "price": "1011000000000000000000",
      "reserved": "",
      "salt": "0x65e0ae239935963d47215eacfbfb2db310380bad8619bc6500323b901e1d45a6",
      "assetIds": []
    },
    {
      "x": 179,
      "y": 192,
      "size": 1,
      "price": "1011000000000000000000",
      "reserved": "",
      "salt": "0xac8abe16734a75070eed4df1421b6a0bd29e9093b70f7ecae56eab0e4c5532e1",
      "assetIds": []
    },
    {
      "x": 179,
      "y": 193,
      "size": 1,
      "price": "1011000000000000000000",
      "reserved": "0x7a9fe22691c811ea339d9b73150e6911a5343dca",
      "salt": "0xc6336029759413e518178706302d0313f7ef8482089d62f322a02ba83f50ea3b",
      "assetIds": []
    },
    {
      "x": 179,
      "y": 194,
      "size": 1,
      "price": "1011000000000000000000",
      "reserved": "",
      "salt": "0x3052d6d9647476468de81821ad26b9a26ed65ea0aa63fcfd8eae5741f70c2904",
      "assetIds": []
    },
    {
      "x": 179,
      "y": 195,
      "size": 1,
      "price": "1011000000000000000000",
      "reserved": "",
      "salt": "0x0fa7d0ab9092f8dae27fc5278332373340ce5934b0b1abc82b984ef810611200",
      "assetIds": []
    },
    {
      "x": 179,
      "y": 196,
      "size": 1,
      "price": "1011000000000000000000",
      "reserved": "",
      "salt": "0x769b6fb484b57011355056b7f996c81db0bd58d0d9825e5ba7af38d020b5c4e2",
      "assetIds": []
    },
    {
      "x": 179,
      "y": 197,
      "size": 1,
      "price": "1011000000000000000000",
      "reserved": "",
      "salt": "0xa5cb5ff6dca4ab4cef1890bc97a2eb43cd096c87c55c75e53b172362b640b872",
      "assetIds": []
    },
    {
      "x": 180,
      "y": 162,
      "size": 1,
      "price": "1011000000000000000000",
      "reserved": "",
      "salt": "0x022102256356acbf672cc1e4b8c1ee9836081f07a1f86e51186ffff80c33709d",
      "assetIds": []
    },
    {
      "x": 180,
      "y": 163,
      "size": 1,
      "price": "1011000000000000000000",
      "reserved": "",
      "salt": "0x4738be47651d091b83c5197192ae0b44d07496fc5874db3c6dfd62a9160b67e3",
      "assetIds": []
    },
    {
      "x": 180,
      "y": 164,
      "size": 1,
      "price": "1011000000000000000000",
      "reserved": "",
      "salt": "0x8cca69a9e7bc170776a7383a4474f3635154b85647acb2ff74aa39eec955be0a",
      "assetIds": []
    },
    {
      "x": 180,
      "y": 165,
      "size": 1,
      "price": "1011000000000000000000",
      "reserved": "",
      "salt": "0xe87a67671c7026fb611e7246ae82c4ac27b5c82cff599c8db30f4d2fe52ac976",
      "assetIds": []
    },
    {
      "x": 180,
      "y": 166,
      "size": 1,
      "price": "1011000000000000000000",
      "reserved": "",
      "salt": "0x1c955ddd60ad9157818e0b161f1696c304c417c7f056c385421cf6f7ee106118",
      "assetIds": []
    },
    {
      "x": 180,
      "y": 167,
      "size": 1,
      "price": "1011000000000000000000",
      "reserved": "",
      "salt": "0x39c17252907e8c12641a6d5b1940a03c3b00c208426cbb93899201fa2ec83576",
      "assetIds": []
    },
    {
      "x": 180,
      "y": 168,
      "size": 1,
      "price": "1011000000000000000000",
      "reserved": "",
      "salt": "0x201bcac9811479ff49cecdf9ae2a3577f39700d2fe1450c5a93df5c092aa6dc2",
      "assetIds": []
    },
    {
      "x": 180,
      "y": 169,
      "size": 1,
      "price": "1011000000000000000000",
      "reserved": "0x7a9fe22691c811ea339d9b73150e6911a5343dca",
      "salt": "0x86abf3d8d5bc6e0e4f9d4e80399df7a534c781de13ca85b66500ad53fb7a5801",
      "assetIds": []
    },
    {
      "x": 180,
      "y": 170,
      "size": 1,
      "price": "1011000000000000000000",
      "reserved": "",
      "salt": "0x4dee790d770b2317bce5ae6e8d811e5c7dbe8c01992a744309f6ea1e7f511128",
      "assetIds": []
    },
    {
      "x": 180,
      "y": 171,
      "size": 1,
      "price": "1011000000000000000000",
      "reserved": "",
      "salt": "0x37661e0bb02a28d0d88add0fc8bce01a579b18ef9740761acf789b8553c1cef7",
      "assetIds": []
    },
    {
      "x": 180,
      "y": 172,
      "size": 1,
      "price": "1011000000000000000000",
      "reserved": "",
      "salt": "0x02033f7cf9f19bcb7b1f26aac5b2469fa85214e9e969f335352c01e9d67a19df",
      "assetIds": []
    },
    {
      "x": 180,
      "y": 173,
      "size": 1,
      "price": "1011000000000000000000",
      "reserved": "",
      "salt": "0xf64bff782bc63d11d68e46c32c81a5fdd353da07b670e139701188a20aa43662",
      "assetIds": []
    },
    {
      "x": 180,
      "y": 174,
      "size": 1,
      "price": "1011000000000000000000",
      "reserved": "",
      "salt": "0x6481db6da24ec2a742b9fafe6068be2708c9b0d218aacd0284d50e8818e7b88d",
      "assetIds": []
    },
    {
      "x": 180,
      "y": 175,
      "size": 1,
      "price": "1011000000000000000000",
      "reserved": "",
      "salt": "0x3c569d61764467feab93885ace998d588f5781ab6c9742339a80c4b7f2a5110a",
      "assetIds": []
    },
    {
      "x": 180,
      "y": 176,
      "size": 1,
      "price": "1011000000000000000000",
      "reserved": "",
      "salt": "0x8766965c98f6a42674a8fb1ad34edfc530a12358857f736a8fe3b87475e1463d",
      "assetIds": []
    },
    {
      "x": 180,
      "y": 177,
      "size": 1,
      "price": "1011000000000000000000",
      "reserved": "",
      "salt": "0xef0a3360e6af761bc88ba36f80b114312c39715e4c67abaf53d70c5d43d54059",
      "assetIds": []
    },
    {
      "x": 180,
      "y": 178,
      "size": 1,
      "price": "1011000000000000000000",
      "reserved": "0x7a9fe22691c811ea339d9b73150e6911a5343dca",
      "salt": "0x7e7c8a255472cd5e33d45db2f8cd54d5734a793e225f5baa70df63e5aac70669",
      "assetIds": []
    },
    {
      "x": 180,
      "y": 179,
      "size": 1,
      "price": "1011000000000000000000",
      "reserved": "",
      "salt": "0xb3783cedd561f940352997281e7e0b2b22d7969c07dfbd51687bc7ced59192eb",
      "assetIds": []
    },
    {
      "x": 180,
      "y": 186,
      "size": 1,
      "price": "1011000000000000000000",
      "reserved": "",
      "salt": "0x0ad2d4560dc06f0483d9805c17d0d64c25856900d67a0a95e6298044d851f3be",
      "assetIds": []
    },
    {
      "x": 180,
      "y": 187,
      "size": 1,
      "price": "1011000000000000000000",
      "reserved": "0x7a9fe22691c811ea339d9b73150e6911a5343dca",
      "salt": "0xf9557cf23399f9c134cbc87c7192fe04b7c258148464439f7b03f4ba5886f565",
      "assetIds": []
    },
    {
      "x": 180,
      "y": 188,
      "size": 1,
      "price": "1011000000000000000000",
      "reserved": "",
      "salt": "0xe554929c970376886a23d7ae0d346670c6be76438bdc90aff93fa9464d0a2a52",
      "assetIds": []
    },
    {
      "x": 180,
      "y": 189,
      "size": 1,
      "price": "1011000000000000000000",
      "reserved": "",
      "salt": "0x85cfa7885d176752327a87a62e504ba989b0fdf125c5feae4c20d13dce508644",
      "assetIds": []
    },
    {
      "x": 180,
      "y": 190,
      "size": 1,
      "price": "1011000000000000000000",
      "reserved": "",
      "salt": "0x96646687a038491258e35155ee47bc15b461769a02974ab0d9e8c437d8b19125",
      "assetIds": []
    },
    {
      "x": 180,
      "y": 191,
      "size": 1,
      "price": "1011000000000000000000",
      "reserved": "",
      "salt": "0x10d40dd069b0966369bcdcae31d090fbc3cab4ac9713e05bf0295d7fdbbd5812",
      "assetIds": []
    },
    {
      "x": 180,
      "y": 192,
      "size": 1,
      "price": "1011000000000000000000",
      "reserved": "",
      "salt": "0x7f80ed106a18c4536b1ffef06881846c6a5ac52e8fd7ac5db10a2d53a2630192",
      "assetIds": []
    },
    {
      "x": 180,
      "y": 193,
      "size": 1,
      "price": "1011000000000000000000",
      "reserved": "",
      "salt": "0x535f1bee555fda6f6d24cf2f9e68c81561095a6abbbbf4440e3be42b6bef375c",
      "assetIds": []
    },
    {
      "x": 180,
      "y": 194,
      "size": 1,
      "price": "1011000000000000000000",
      "reserved": "",
      "salt": "0xf23825c07fa591e2c30a31604b7170d2c20375c71428f9d03aa371b41a840628",
      "assetIds": []
    },
    {
      "x": 180,
      "y": 195,
      "size": 1,
      "price": "1011000000000000000000",
      "reserved": "",
      "salt": "0x90bf629fe3c053ce387314b90ba424acfc7b3f9f597b0e73879b8620998824db",
      "assetIds": []
    },
    {
      "x": 180,
      "y": 196,
      "size": 1,
      "price": "1011000000000000000000",
      "reserved": "",
      "salt": "0xcd28b119092da1b09ab5d3b153c4acae044dde75ca4e5e48c777f580028ac50a",
      "assetIds": []
    },
    {
      "x": 180,
      "y": 197,
      "size": 1,
      "price": "1011000000000000000000",
      "reserved": "",
      "salt": "0xcc743198f0faafdeb479d1de04905209ea5e18baa14bfd64ef96b3f046ac7731",
      "assetIds": []
    },
    {
      "x": 181,
      "y": 164,
      "size": 1,
      "price": "1011000000000000000000",
      "reserved": "",
      "salt": "0xb63a09153d28e4ebf758f82e3301273e94109290158931147b0bfa0aec6ee7b3",
      "assetIds": []
    },
    {
      "x": 181,
      "y": 165,
      "size": 1,
      "price": "1011000000000000000000",
      "reserved": "",
      "salt": "0x4341eefb9b1c05ce8fbcd4b3a743c7c7f3353546c4aa0aba2c518c89b26f6e14",
      "assetIds": []
    },
    {
      "x": 181,
      "y": 166,
      "size": 1,
      "price": "1011000000000000000000",
      "reserved": "",
      "salt": "0x1de7bef4902c91bcf028c1d1f25de3baa88d72414f7949e76b3427ecba638788",
      "assetIds": []
    },
    {
      "x": 181,
      "y": 167,
      "size": 1,
      "price": "1011000000000000000000",
      "reserved": "",
      "salt": "0xb764920efae1f8d3543c4bb6b7af78dc1dc1a7b9f752757c0562ac578571abe7",
      "assetIds": []
    },
    {
      "x": 181,
      "y": 168,
      "size": 1,
      "price": "1011000000000000000000",
      "reserved": "",
      "salt": "0xc3d9bdce74e6a44271b600736e640902fbc4f79e4a7578d1c8d783ac77352e47",
      "assetIds": []
    },
    {
      "x": 181,
      "y": 169,
      "size": 1,
      "price": "1011000000000000000000",
      "reserved": "",
      "salt": "0x7f4bb2cf0b3c8aab45bd0cb4ef8d5d475290f68c8ebcad62a10ee714cfe0d771",
      "assetIds": []
    },
    {
      "x": 181,
      "y": 170,
      "size": 1,
      "price": "1011000000000000000000",
      "reserved": "",
      "salt": "0x0a96e4f5a9c5669f4f818a3b047915e9e0405e07a3ce3e538c26b72cf255fbe0",
      "assetIds": []
    },
    {
      "x": 181,
      "y": 171,
      "size": 1,
      "price": "1011000000000000000000",
      "reserved": "",
      "salt": "0xe597a06fe65677de9dec1012a6d91b8ba8fe21fb5b7eb305102934e8cb6707e3",
      "assetIds": []
    },
    {
      "x": 181,
      "y": 172,
      "size": 1,
      "price": "1011000000000000000000",
      "reserved": "0x7a9fe22691c811ea339d9b73150e6911a5343dca",
      "salt": "0xd3e278861b8d792b9cc925ed8b003fa82a7664605674ba88c64e6f0445f37e3e",
      "assetIds": []
    },
    {
      "x": 181,
      "y": 173,
      "size": 1,
      "price": "1011000000000000000000",
      "reserved": "",
      "salt": "0xccc540ad9ed3068f5932d35588a79b658e2cdc8c8c66cfd27ea1bd4cfd5d70ac",
      "assetIds": []
    },
    {
      "x": 181,
      "y": 174,
      "size": 1,
      "price": "1011000000000000000000",
      "reserved": "",
      "salt": "0xfa968e22c520239419d2199526cb05389bae92c6a5dc47c958c7234ed377470d",
      "assetIds": []
    },
    {
      "x": 181,
      "y": 175,
      "size": 1,
      "price": "1011000000000000000000",
      "reserved": "",
      "salt": "0x1d11ddc1f15f4b2f77de2288a32f736278ea1bda6c9733f70b7ea867fc274418",
      "assetIds": []
    },
    {
      "x": 181,
      "y": 176,
      "size": 1,
      "price": "1011000000000000000000",
      "reserved": "",
      "salt": "0x40065a5bbc2c45c752fcdf71e8eeff8ee59eba1f965274fec3f1a7b31c949cf8",
      "assetIds": []
    },
    {
      "x": 181,
      "y": 177,
      "size": 1,
      "price": "1011000000000000000000",
      "reserved": "",
      "salt": "0x198ce151d14047d694a575c947f373afec7a5173faf3986aa5bd8feebeff53d1",
      "assetIds": []
    },
    {
      "x": 181,
      "y": 178,
      "size": 1,
      "price": "1011000000000000000000",
      "reserved": "",
      "salt": "0x43a01cf8e4fb8600fc1eae01ca18caa1ab8dc81686cd726398c43e52acd9fcaf",
      "assetIds": []
    },
    {
      "x": 181,
      "y": 179,
      "size": 1,
      "price": "1011000000000000000000",
      "reserved": "",
      "salt": "0xcba4332bac68394fee24481a1611ee6c7e60eff814e072efa7da90815e1acd37",
      "assetIds": []
    },
    {
      "x": 181,
      "y": 186,
      "size": 1,
      "price": "1011000000000000000000",
      "reserved": "",
      "salt": "0x63a822206066a98bdefd6322da3c92752ecb5e0e3741f5ea1668aec1a109c453",
      "assetIds": []
    },
    {
      "x": 181,
      "y": 187,
      "size": 1,
      "price": "1011000000000000000000",
      "reserved": "",
      "salt": "0x637728daf7759c11c445e48902c2e10ccca9b563e60b5119b38c96a551382d37",
      "assetIds": []
    },
    {
      "x": 181,
      "y": 188,
      "size": 1,
      "price": "1011000000000000000000",
      "reserved": "",
      "salt": "0x7f9c0c0862051544fe3aa7b36776eaad9b90581d0ea14501f11dfc4082ee0d26",
      "assetIds": []
    },
    {
      "x": 181,
      "y": 189,
      "size": 1,
      "price": "1011000000000000000000",
      "reserved": "",
      "salt": "0xad1f381aa08476fe6ff01a659e2775b6affabcf580eac2da7f583618b97cb36a",
      "assetIds": []
    },
    {
      "x": 181,
      "y": 190,
      "size": 1,
      "price": "1011000000000000000000",
      "reserved": "",
      "salt": "0x8baddcb3eb3293e91bd515501ff2c7474b5afd8deecfed0ac4d62336a2317853",
      "assetIds": []
    },
    {
      "x": 181,
      "y": 191,
      "size": 1,
      "price": "1011000000000000000000",
      "reserved": "",
      "salt": "0xeee77b00c1bf7a6aaa23fed8d7e827b0722ebf032f366578a0ec5d4d7aeec503",
      "assetIds": []
    },
    {
      "x": 181,
      "y": 192,
      "size": 1,
      "price": "1011000000000000000000",
      "reserved": "",
      "salt": "0x6bba94cc32c05859e6a6573860076604ee6484b6a454677fc1b3c90b9c8ce50f",
      "assetIds": []
    },
    {
      "x": 181,
      "y": 193,
      "size": 1,
      "price": "1011000000000000000000",
      "reserved": "",
      "salt": "0x7ec0c271be5806d99551ec818a6afd2d6c2a6d3cbd282a1dca9d6b8723dea4b4",
      "assetIds": []
    },
    {
      "x": 181,
      "y": 194,
      "size": 1,
      "price": "1011000000000000000000",
      "reserved": "",
      "salt": "0x16e15ec71f47f11ccaa966705cba419d306c9a3f32dab8466404c9de1242d839",
      "assetIds": []
    },
    {
      "x": 181,
      "y": 195,
      "size": 1,
      "price": "1011000000000000000000",
      "reserved": "",
      "salt": "0x27276c04594e12cce6f7a0d343b4454a85ba1373e07352afc59d9c19ebd752cc",
      "assetIds": []
    },
    {
      "x": 181,
      "y": 196,
      "size": 1,
      "price": "1011000000000000000000",
      "reserved": "",
      "salt": "0xb6f4ac90df1a0291389b46219143435e9aabd673da1770bf9ca12fa2cc9c8548",
      "assetIds": []
    },
    {
      "x": 181,
      "y": 197,
      "size": 1,
      "price": "1011000000000000000000",
      "reserved": "",
      "salt": "0x2ce04ea77facfa918de91a77a98b38f0d2b69884e79bbbd64fa67b20d7a5f5c8",
      "assetIds": []
    },
    {
      "x": 182,
      "y": 164,
      "size": 1,
      "price": "1011000000000000000000",
      "reserved": "",
      "salt": "0x190d8cbad3f14cb2b041576f38e223a08c2a33d428d4cd684b912c1e5e932128",
      "assetIds": []
    },
    {
      "x": 182,
      "y": 165,
      "size": 1,
      "price": "1011000000000000000000",
      "reserved": "",
      "salt": "0x06ab0dadda74bb4f0c032c089c6201e1e5aeaaeb69070aca5964a9a496869b22",
      "assetIds": []
    },
    {
      "x": 182,
      "y": 166,
      "size": 1,
      "price": "1011000000000000000000",
      "reserved": "",
      "salt": "0x99c47266dc7f12b3d8a382180f9b6a1b7eee2a5e2ea01aed8f5a24b6212e85ad",
      "assetIds": []
    },
    {
      "x": 182,
      "y": 167,
      "size": 1,
      "price": "1011000000000000000000",
      "reserved": "",
      "salt": "0xe27738618fe9ebf67bb9d867ff9bd983feb1927209f052ebf8d10395903b6064",
      "assetIds": []
    },
    {
      "x": 182,
      "y": 168,
      "size": 1,
      "price": "1011000000000000000000",
      "reserved": "",
      "salt": "0xafe44ed16c64ccfa2a6e07c3ca39ad35788eeb99d4c83cf0ba03c7d8216d111b",
      "assetIds": []
    },
    {
      "x": 182,
      "y": 169,
      "size": 1,
      "price": "1011000000000000000000",
      "reserved": "",
      "salt": "0x10036a1ab170c0c3ae9bcc983ae5f832cee8737458eedfdaac290ed90cfd6aa4",
      "assetIds": []
    },
    {
      "x": 182,
      "y": 170,
      "size": 1,
      "price": "1011000000000000000000",
      "reserved": "",
      "salt": "0xc2024e026a4d4df8776d243846f275d570a42ebadabc5f4e650705f89037b936",
      "assetIds": []
    },
    {
      "x": 182,
      "y": 171,
      "size": 1,
      "price": "1011000000000000000000",
      "reserved": "",
      "salt": "0xf02fa10843be19ddee5f4034bfe466cb5ac08c90a6a04878463d0ae0ee34e15b",
      "assetIds": []
    },
    {
      "x": 182,
      "y": 172,
      "size": 1,
      "price": "1011000000000000000000",
      "reserved": "",
      "salt": "0x38c931da7a36d96bbb3fb7fcd68d7fbd2fd7f17fb781a797c6f0b8676f352c67",
      "assetIds": []
    },
    {
      "x": 182,
      "y": 173,
      "size": 1,
      "price": "1011000000000000000000",
      "reserved": "0x7a9fe22691c811ea339d9b73150e6911a5343dca",
      "salt": "0xa7d12863e9b48f3fa8a626508cbbf41266195b58e01224e65bdced0f7da0ccf5",
      "assetIds": []
    },
    {
      "x": 182,
      "y": 174,
      "size": 1,
      "price": "1011000000000000000000",
      "reserved": "",
      "salt": "0x293ee61f1d436abe5fecd2031a7a1193468d5792b8a1fb3f237f5884e9f95a56",
      "assetIds": []
    },
    {
      "x": 182,
      "y": 175,
      "size": 1,
      "price": "1011000000000000000000",
      "reserved": "",
      "salt": "0x189492001b3b312bada22b2def36ad6e92575fa9af2d794a0184c33d130e6cdb",
      "assetIds": []
    },
    {
      "x": 182,
      "y": 176,
      "size": 1,
      "price": "1011000000000000000000",
      "reserved": "",
      "salt": "0xccc691374b3a6e8aba2202679dd32457ea53ccd46de50e431bd235566841f0d0",
      "assetIds": []
    },
    {
      "x": 182,
      "y": 177,
      "size": 1,
      "price": "1011000000000000000000",
      "reserved": "",
      "salt": "0xfd38854aba9d5789d8263737bff0b239db20def23b609be796baf72ca64b13d5",
      "assetIds": []
    },
    {
      "x": 182,
      "y": 178,
      "size": 1,
      "price": "1011000000000000000000",
      "reserved": "",
      "salt": "0xd8eb6699cf264d4fd4337d63d7fcc9a606818f1f727e5268d990c3598edce06d",
      "assetIds": []
    },
    {
      "x": 182,
      "y": 179,
      "size": 1,
      "price": "1011000000000000000000",
      "reserved": "",
      "salt": "0xa6eef5f91ce621f400b39b19f80f9551849d8391fa37fc80f09e21a859f46ed8",
      "assetIds": []
    },
    {
      "x": 182,
      "y": 186,
      "size": 1,
      "price": "1011000000000000000000",
      "reserved": "",
      "salt": "0x71aefe67ec4b3e29764bc3bc897e184f34055f34df5bc31676984bfd47e00b8f",
      "assetIds": []
    },
    {
      "x": 182,
      "y": 187,
      "size": 1,
      "price": "1011000000000000000000",
      "reserved": "",
      "salt": "0xd7441bbc27fb7261fe6cad5624001b54296a9abd2a7b08109dccf2fe64862d06",
      "assetIds": []
    },
    {
      "x": 182,
      "y": 188,
      "size": 1,
      "price": "1011000000000000000000",
      "reserved": "",
      "salt": "0xfe7f792ed0cf1679f18b59a81fc0f48584fb966d612d5a96950a4d1357b24233",
      "assetIds": []
    },
    {
      "x": 182,
      "y": 189,
      "size": 1,
      "price": "1011000000000000000000",
      "reserved": "",
      "salt": "0x1e9920a6d6ff1e3776400763c2fef369bd36320f72720812b7181f8f977a386a",
      "assetIds": []
    },
    {
      "x": 182,
      "y": 190,
      "size": 1,
      "price": "1011000000000000000000",
      "reserved": "",
      "salt": "0x48c7484c54224ed816b57e20f225e75bf5ba9c53ebff04200ad747d08ef56d62",
      "assetIds": []
    },
    {
      "x": 182,
      "y": 191,
      "size": 1,
      "price": "1011000000000000000000",
      "reserved": "",
      "salt": "0x24227547839837ad97c41e1ce56d3f45c4d6e1e97d362c72391e73c1ff86b00b",
      "assetIds": []
    },
    {
      "x": 182,
      "y": 192,
      "size": 1,
      "price": "1011000000000000000000",
      "reserved": "",
      "salt": "0x2e5b7df11e9edb8c8977dd1133a71f27aff01031bb3ca738f29d4d62f0fcae7a",
      "assetIds": []
    },
    {
      "x": 182,
      "y": 193,
      "size": 1,
      "price": "1011000000000000000000",
      "reserved": "",
      "salt": "0xc0f3f8a580b66a18665436c85b1f6a2418d074a2ab87f51746603de8bc8dd206",
      "assetIds": []
    },
    {
      "x": 182,
      "y": 194,
      "size": 1,
      "price": "1011000000000000000000",
      "reserved": "",
      "salt": "0xe0f865a790a2c98dea698d13d806336f68088e51ce99af41055d4f4e55be43a1",
      "assetIds": []
    },
    {
      "x": 182,
      "y": 195,
      "size": 1,
      "price": "1011000000000000000000",
      "reserved": "",
      "salt": "0x5bc412ec857327ce019c5b2b886fe6ec0f8b61bc58b396553fb792ca3d26255c",
      "assetIds": []
    },
    {
      "x": 182,
      "y": 196,
      "size": 1,
      "price": "1011000000000000000000",
      "reserved": "0x7a9fe22691c811ea339d9b73150e6911a5343dca",
      "salt": "0xfd8d5fcb31239389c0f8a8b3c182304381dc7f53eeeaf5ba5b4d30a7303d6b27",
      "assetIds": []
    },
    {
      "x": 182,
      "y": 197,
      "size": 1,
      "price": "1011000000000000000000",
      "reserved": "",
      "salt": "0x57007d47cae8d4145aa217677dd8cf84a279429ba32b7748eb9cd3c4089c2d54",
      "assetIds": []
    },
    {
      "x": 183,
      "y": 164,
      "size": 1,
      "price": "1011000000000000000000",
      "reserved": "",
      "salt": "0x9354b482ef08ec9cc0fec900ce265d16b6618d6699c1b9c94af5e565078d1e5d",
      "assetIds": []
    },
    {
      "x": 183,
      "y": 165,
      "size": 1,
      "price": "1011000000000000000000",
      "reserved": "",
      "salt": "0xe972eaba1e36910389dfab9c4f525eadd7341a81158c25d2e19c541fcabbbd39",
      "assetIds": []
    },
    {
      "x": 183,
      "y": 166,
      "size": 1,
      "price": "1011000000000000000000",
      "reserved": "",
      "salt": "0x619f27a9dadef22bcee0735c52907d79c9dc53513a453f775020045971e2021b",
      "assetIds": []
    },
    {
      "x": 183,
      "y": 167,
      "size": 1,
      "price": "1011000000000000000000",
      "reserved": "0x7a9fe22691c811ea339d9b73150e6911a5343dca",
      "salt": "0xe456977e72d409afd85b3be5b7f0aaac4a933bdc4dfa96c6ced064faf1466f94",
      "assetIds": []
    },
    {
      "x": 183,
      "y": 168,
      "size": 1,
      "price": "1011000000000000000000",
      "reserved": "",
      "salt": "0x12e58084b7d4072a9cf379fd888d6f07efd2465fca9f355bf011dc12b3aff6f2",
      "assetIds": []
    },
    {
      "x": 183,
      "y": 169,
      "size": 1,
      "price": "1011000000000000000000",
      "reserved": "",
      "salt": "0xb8579c7ed607d92aeaa240be88add74fad5685b3c1ed4e7a688f90b425412169",
      "assetIds": []
    },
    {
      "x": 183,
      "y": 170,
      "size": 1,
      "price": "1011000000000000000000",
      "reserved": "",
      "salt": "0x0bdab45499298a7bbf9601f0c91236a31f4fc0cad73af45cb1cdc1fb252953da",
      "assetIds": []
    },
    {
      "x": 183,
      "y": 171,
      "size": 1,
      "price": "1011000000000000000000",
      "reserved": "",
      "salt": "0x0e311693f5a5db652fb65b9e29417e6642b7a5838d7b52bcdacac9efb5438ea7",
      "assetIds": []
    },
    {
      "x": 183,
      "y": 172,
      "size": 1,
      "price": "1011000000000000000000",
      "reserved": "",
      "salt": "0xb91a58f1a0ec324f426739bc38240fb3d7b4a9ba51e4a4ac663bdd083645b83e",
      "assetIds": []
    },
    {
      "x": 183,
      "y": 173,
      "size": 1,
      "price": "1011000000000000000000",
      "reserved": "",
      "salt": "0x9777308ac9313ab928b3030551e3919a953449081e6543c87fcb64ae0294e292",
      "assetIds": []
    },
    {
      "x": 183,
      "y": 174,
      "size": 1,
      "price": "1011000000000000000000",
      "reserved": "",
      "salt": "0xa59eccf7145dfa2dbd5963dd5c37794708bd2160aa2292a4c61f993b628df064",
      "assetIds": []
    },
    {
      "x": 183,
      "y": 175,
      "size": 1,
      "price": "1011000000000000000000",
      "reserved": "",
      "salt": "0xcf4334a35da8b1f4a0663b70027ea6f39448d0dd213c053d8fcd0bb8f8a624e5",
      "assetIds": []
    },
    {
      "x": 183,
      "y": 176,
      "size": 1,
      "price": "1011000000000000000000",
      "reserved": "",
      "salt": "0x1ffea18f0660b63485f3100579df31a5a9763661ab1d2f3b41440c69ca5de9d2",
      "assetIds": []
    },
    {
      "x": 183,
      "y": 177,
      "size": 1,
      "price": "1011000000000000000000",
      "reserved": "0x7a9fe22691c811ea339d9b73150e6911a5343dca",
      "salt": "0x29a92dd6d7ee81c8d90e2c206fa22a6a551655deb2381af383375fa98b1a9c86",
      "assetIds": []
    },
    {
      "x": 183,
      "y": 178,
      "size": 1,
      "price": "1011000000000000000000",
      "reserved": "",
      "salt": "0x7b138867e69442bab8f06d2bc0644114f0427286bb0d97a2ad9f09a9f2a8ae49",
      "assetIds": []
    },
    {
      "x": 183,
      "y": 179,
      "size": 1,
      "price": "1011000000000000000000",
      "reserved": "",
      "salt": "0xe70a2e8042f924be6d5df56843674e38a554b593b883b1d02950880894cee316",
      "assetIds": []
    },
    {
      "x": 183,
      "y": 186,
      "size": 1,
      "price": "1011000000000000000000",
      "reserved": "",
      "salt": "0xad5e2c432ba76e3c7f393174b66a89f2a701b8dcfe6f0c90a4dccb07b1a2769d",
      "assetIds": []
    },
    {
      "x": 183,
      "y": 187,
      "size": 1,
      "price": "1011000000000000000000",
      "reserved": "",
      "salt": "0xe0274d5727a712829e68b849e7dda7b8f7ebde71b4260372da3f44fe8e7e5cef",
      "assetIds": []
    },
    {
      "x": 183,
      "y": 188,
      "size": 1,
      "price": "1011000000000000000000",
      "reserved": "",
      "salt": "0xb642a2acd6a8d3eeb4298f65fbabb66ddd7cdcf7c8bf395443f384577b15b38b",
      "assetIds": []
    },
    {
      "x": 183,
      "y": 189,
      "size": 1,
      "price": "1011000000000000000000",
      "reserved": "0x7a9fe22691c811ea339d9b73150e6911a5343dca",
      "salt": "0x96075adb0d4f87a26cd80aa4b46d1e1ba807423bbec91ea9e26f13acb90a0957",
      "assetIds": []
    },
    {
      "x": 183,
      "y": 190,
      "size": 1,
      "price": "1011000000000000000000",
      "reserved": "",
      "salt": "0x9b6481c5d559ac59dc28a76ceb8e1e058d566e4f28d2aea727d1a6a81a59170a",
      "assetIds": []
    },
    {
      "x": 183,
      "y": 191,
      "size": 1,
      "price": "1011000000000000000000",
      "reserved": "",
      "salt": "0x6c4a4be597f13454d62b4844bb63129e14ba74a7d0372fe400d487c6dbcca37f",
      "assetIds": []
    },
    {
      "x": 183,
      "y": 195,
      "size": 1,
      "price": "1011000000000000000000",
      "reserved": "",
      "salt": "0x2cf10b504fe294eeb69f64edffd075655c3c5b746d4d5353b66fa29b3eb0cfb6",
      "assetIds": []
    },
    {
      "x": 183,
      "y": 196,
      "size": 1,
      "price": "1011000000000000000000",
      "reserved": "",
      "salt": "0xe5e482fafe3498ea25c512175b6257d9a99ca1e5bb6370d296a6855d16776d8e",
      "assetIds": []
    },
    {
      "x": 183,
      "y": 197,
      "size": 1,
      "price": "1011000000000000000000",
      "reserved": "",
      "salt": "0x851cec5274d772ff3a519230790af785033772b7070c73b32b3ebedfcdde3662",
      "assetIds": []
    },
    {
      "x": 184,
      "y": 164,
      "size": 1,
      "price": "1011000000000000000000",
      "reserved": "",
      "salt": "0x8d6474279d0b62a88b3bfd04f14814c21a099bad3130f5830a8eaa6f34a65137",
      "assetIds": []
    },
    {
      "x": 184,
      "y": 165,
      "size": 1,
      "price": "1011000000000000000000",
      "reserved": "",
      "salt": "0xcc85b394abc0f43fe61cd4fb86b75f24295d04ff3f6316ec0a10c4d52af3499b",
      "assetIds": []
    },
    {
      "x": 184,
      "y": 166,
      "size": 1,
      "price": "1011000000000000000000",
      "reserved": "",
      "salt": "0x1ba1df0f7f66881ec110e563b8eb3158d32d5a1f8074d283bb989ec54780a0bb",
      "assetIds": []
    },
    {
      "x": 184,
      "y": 167,
      "size": 1,
      "price": "1011000000000000000000",
      "reserved": "",
      "salt": "0x158845f5cadd0227f934fd7422957a52a134a6f492710cfc74aeb8e406c4ab83",
      "assetIds": []
    },
    {
      "x": 184,
      "y": 168,
      "size": 1,
      "price": "1011000000000000000000",
      "reserved": "",
      "salt": "0x5daf536f39fde425ffd3ba64c5ba54301dea875168fe05944f4095ad5e5c9f5d",
      "assetIds": []
    },
    {
      "x": 184,
      "y": 169,
      "size": 1,
      "price": "1011000000000000000000",
      "reserved": "",
      "salt": "0x2ee359ba47bbfccfebde3430e1af425460e4c35c76897f86d59d7adf3eb5f9e0",
      "assetIds": []
    },
    {
      "x": 184,
      "y": 170,
      "size": 1,
      "price": "1011000000000000000000",
      "reserved": "",
      "salt": "0x67d3bdae7732a8a8cea381b46f935fb0e9860355dae8814daafa203aaa16aeab",
      "assetIds": []
    },
    {
      "x": 184,
      "y": 171,
      "size": 1,
      "price": "1011000000000000000000",
      "reserved": "",
      "salt": "0x6f3d5b1688df40d281a04de78d7d3e4c60ac3b78e5513095e4b5a83d19fea53d",
      "assetIds": []
    },
    {
      "x": 184,
      "y": 172,
      "size": 1,
      "price": "1011000000000000000000",
      "reserved": "",
      "salt": "0x0303e0045172603f24c11b169ad80790d218270fb0b313029cb575d111110c31",
      "assetIds": []
    },
    {
      "x": 184,
      "y": 173,
      "size": 1,
      "price": "1011000000000000000000",
      "reserved": "",
      "salt": "0xd3a054eea29ef7f277f1783d826e9795c6f9572aa4c7c3b044decef3fb334164",
      "assetIds": []
    },
    {
      "x": 184,
      "y": 174,
      "size": 1,
      "price": "1011000000000000000000",
      "reserved": "",
      "salt": "0x35a5a7a526d552a9681fed748498644f8c55fe31d87826ff96a10cf38cd4f1f2",
      "assetIds": []
    },
    {
      "x": 184,
      "y": 175,
      "size": 1,
      "price": "1011000000000000000000",
      "reserved": "",
      "salt": "0x6b9e50406f4e7f16ba820854dc9b59b4de1b25cb7b24c83a979d169505872580",
      "assetIds": []
    },
    {
      "x": 184,
      "y": 176,
      "size": 1,
      "price": "1011000000000000000000",
      "reserved": "",
      "salt": "0x09ee4ec4a4476bf393cb938697e3dc4f2164d1b381cd5ea7c356f2bc355726f0",
      "assetIds": []
    },
    {
      "x": 184,
      "y": 177,
      "size": 1,
      "price": "1011000000000000000000",
      "reserved": "",
      "salt": "0xea769baf7c11c243612b61420b1687549ae0baeba3b342a955aef9822bdc73b9",
      "assetIds": []
    },
    {
      "x": 184,
      "y": 178,
      "size": 1,
      "price": "1011000000000000000000",
      "reserved": "",
      "salt": "0x843f28f1269cae8ab60827b90b16e529a8dbd5ca1c3373bd4758f72ac8390459",
      "assetIds": []
    },
    {
      "x": 184,
      "y": 179,
      "size": 1,
      "price": "1011000000000000000000",
      "reserved": "",
      "salt": "0x66c81b5d099b80a3c49650104e58526161edcf251fd6f49c7c192f2d00d75007",
      "assetIds": []
    },
    {
      "x": 184,
      "y": 186,
      "size": 1,
      "price": "1011000000000000000000",
      "reserved": "",
      "salt": "0x35fe90d886ea6a618818d79cc5f966d59cfb22d384ae85e10385f1b6283a00c5",
      "assetIds": []
    },
    {
      "x": 184,
      "y": 187,
      "size": 1,
      "price": "1011000000000000000000",
      "reserved": "",
      "salt": "0x1037e9047c7105c874dccdee931c16e861e12ab5a45fc20c8dc9e74e143202db",
      "assetIds": []
    },
    {
      "x": 184,
      "y": 188,
      "size": 1,
      "price": "1011000000000000000000",
      "reserved": "",
      "salt": "0xab8cd858bb85bfa0a6d354636ec7a5a7d6d31431b8f150d668c30e212c4120cc",
      "assetIds": []
    },
    {
      "x": 184,
      "y": 189,
      "size": 1,
      "price": "1011000000000000000000",
      "reserved": "",
      "salt": "0xfa0f07cfb1e4a74c2ec6186bd2e6fecec2dc56c2303ab497b968daff35545250",
      "assetIds": []
    },
    {
      "x": 184,
      "y": 190,
      "size": 1,
      "price": "1011000000000000000000",
      "reserved": "",
      "salt": "0xe87ba6e1114b2c7d815c6987e5d9c3ab744c05216ed6c2045a439e1bee02d017",
      "assetIds": []
    },
    {
      "x": 184,
      "y": 191,
      "size": 1,
      "price": "1011000000000000000000",
      "reserved": "",
      "salt": "0x40e200e1a14b24a6932680c015f743e86f6303813127b3ed1df261b15ea057f0",
      "assetIds": []
    },
    {
      "x": 184,
      "y": 195,
      "size": 1,
      "price": "1011000000000000000000",
      "reserved": "",
      "salt": "0xa4fa4904b5f44ede92a3830a23d7c1ee9e80aaab6fcb407124fa57175ce6c7cd",
      "assetIds": []
    },
    {
      "x": 184,
      "y": 196,
      "size": 1,
      "price": "1011000000000000000000",
      "reserved": "",
      "salt": "0xa558f9b9385b1433bf69a7c902932ba65e5074bed6ff50af3d405e630202a84e",
      "assetIds": []
    },
    {
      "x": 184,
      "y": 197,
      "size": 1,
      "price": "1011000000000000000000",
      "reserved": "",
      "salt": "0xbd664306e4a760a8356d8f3f86fcdbd4ff11996e071f07e88db13ad9932568f6",
      "assetIds": []
    },
    {
      "x": 185,
      "y": 164,
      "size": 1,
      "price": "1011000000000000000000",
      "reserved": "",
      "salt": "0xc79fc5bcebf05cc027195f1dc2250804d3677fb473a54d92d7d9eb40051fe55c",
      "assetIds": []
    },
    {
      "x": 185,
      "y": 165,
      "size": 1,
      "price": "1011000000000000000000",
      "reserved": "",
      "salt": "0xffb502e2163c09c2436fc72372fdd0500ff49b7a34db307bef837ff8afea176c",
      "assetIds": []
    },
    {
      "x": 185,
      "y": 166,
      "size": 1,
      "price": "1011000000000000000000",
      "reserved": "",
      "salt": "0xc912f18cf2fe4fc8b2befe4f6bf112777f2ac53c28405742233ca7a5dcad334e",
      "assetIds": []
    },
    {
      "x": 185,
      "y": 167,
      "size": 1,
      "price": "1011000000000000000000",
      "reserved": "",
      "salt": "0x0c7bf9b63204cac2a8f4527ca1b5fcd1d761eed9c2930a0660163e25dd3df279",
      "assetIds": []
    },
    {
      "x": 185,
      "y": 168,
      "size": 1,
      "price": "1011000000000000000000",
      "reserved": "",
      "salt": "0xfe2ab91212385a3932fbe5434ab28fac77a39351793e968a62a2ba0221739aa3",
      "assetIds": []
    },
    {
      "x": 185,
      "y": 169,
      "size": 1,
      "price": "1011000000000000000000",
      "reserved": "",
      "salt": "0xef84ca0a7da0240dbe6ff9e3ccd8e04709f741012320b053487f1d9fe42c845c",
      "assetIds": []
    },
    {
      "x": 185,
      "y": 170,
      "size": 1,
      "price": "1011000000000000000000",
      "reserved": "",
      "salt": "0xb85f62f05f5be7801bb62075cef6d2538b397fcdf1880c671a14ea4a87d9e859",
      "assetIds": []
    },
    {
      "x": 185,
      "y": 171,
      "size": 1,
      "price": "1011000000000000000000",
      "reserved": "",
      "salt": "0xd35400abb740dd23bd405a401af238bec30a2e4522eac9e90c4f31ac5fc65a66",
      "assetIds": []
    },
    {
      "x": 185,
      "y": 172,
      "size": 1,
      "price": "1011000000000000000000",
      "reserved": "",
      "salt": "0x8cb6a5685b76596e85b5d738e6fde68425575044afa071522cb989e082320f37",
      "assetIds": []
    },
    {
      "x": 185,
      "y": 173,
      "size": 1,
      "price": "1011000000000000000000",
      "reserved": "",
      "salt": "0xaea5218d23624bf071b7e8bf67fec72a58ea7f1b8c0613adaad72f63c8d13cf5",
      "assetIds": []
    },
    {
      "x": 185,
      "y": 174,
      "size": 1,
      "price": "1011000000000000000000",
      "reserved": "",
      "salt": "0x89ee06c75d9a5aa5f480d123ffd549e3d7966123a80f46240cadd4390a73a6c5",
      "assetIds": []
    },
    {
      "x": 185,
      "y": 175,
      "size": 1,
      "price": "1011000000000000000000",
      "reserved": "",
      "salt": "0xe467ed435a4db5dc9ba0e228f3bd101a2f82b2f05fb2ab8ae809e5aa2f74f184",
      "assetIds": []
    },
    {
      "x": 185,
      "y": 176,
      "size": 1,
      "price": "1011000000000000000000",
      "reserved": "",
      "salt": "0xe28dec28b7ff30599c883e8cfb2da51c73106443b5f2f725828864dc8a4e484c",
      "assetIds": []
    },
    {
      "x": 185,
      "y": 177,
      "size": 1,
      "price": "4683000000000000000000",
      "reserved": "",
      "salt": "0xb071b0ee3e2447cc9a1c6404bc25c1871b189a03fa707a5f86cb65e2f388bc1b",
      "assetIds": [
        "41506478881403507969696680653240014914910929820314476107906210059990541021188"
      ]
    },
    {
      "x": 185,
      "y": 178,
      "size": 1,
      "price": "4683000000000000000000",
      "reserved": "",
      "salt": "0xfc5c7fecd81c5022b1233e3f2daa59bfa13cb2f0ff8735f7cb8436d4fb65e7df",
      "assetIds": [
        "41506478881403507969696680653240014914910929820314476107906210059990541021188"
      ]
    },
    {
      "x": 185,
      "y": 179,
      "size": 1,
      "price": "1011000000000000000000",
      "reserved": "0x7a9fe22691c811ea339d9b73150e6911a5343dca",
      "salt": "0xc2ec6358ece637e1941e841e4e370324fd7b4233a6091637e688ccbb780c98f9",
      "assetIds": []
    },
    {
      "x": 185,
      "y": 186,
      "size": 1,
      "price": "1011000000000000000000",
      "reserved": "",
      "salt": "0xae07e57be26d35f83f83504669670b46bfcc7b296829cbdb4ed170e659c7241b",
      "assetIds": []
    },
    {
      "x": 185,
      "y": 187,
      "size": 1,
      "price": "1011000000000000000000",
      "reserved": "",
      "salt": "0x9797379fbb7cb6ed488c4678d8b9cb008defe51ca35ae10471f82143b3984ca0",
      "assetIds": []
    },
    {
      "x": 185,
      "y": 188,
      "size": 1,
      "price": "1011000000000000000000",
      "reserved": "",
      "salt": "0x5883fa86280f38a3c4683a835d2efbe848f13452b7a98bb0d432601f2a42e372",
      "assetIds": []
    },
    {
      "x": 185,
      "y": 189,
      "size": 1,
      "price": "1011000000000000000000",
      "reserved": "",
      "salt": "0xf54cf9ad77e4e002541d1824d0e8c1378d8d97c9472d4e525c87627f75223c87",
      "assetIds": []
    },
    {
      "x": 185,
      "y": 190,
      "size": 1,
      "price": "1011000000000000000000",
      "reserved": "",
      "salt": "0xd57565e2518bf26d7b658335eed53fff38b188585a1b64d342810070873835c9",
      "assetIds": []
    },
    {
      "x": 185,
      "y": 191,
      "size": 1,
      "price": "1011000000000000000000",
      "reserved": "",
      "salt": "0x3d8e073c6bf3826d33566675c98715c5770acde143570014bc0f5ce0947e7312",
      "assetIds": []
    },
    {
      "x": 185,
      "y": 195,
      "size": 1,
      "price": "1011000000000000000000",
      "reserved": "",
      "salt": "0xa1eac692c27ebddbc2791e371f19793017bb86526abed97fdf829204feb0cd34",
      "assetIds": []
    },
    {
      "x": 185,
      "y": 196,
      "size": 1,
      "price": "1011000000000000000000",
      "reserved": "",
      "salt": "0x0b258af6aecde9dd943708cefe38f202a02ccc64ae7019118c7b563276f49019",
      "assetIds": []
    },
    {
      "x": 185,
      "y": 197,
      "size": 1,
      "price": "1011000000000000000000",
      "reserved": "",
      "salt": "0xddfc75a4a80b9706c1361179d92165f07a3e7507455c6fa553ae1f400d463408",
      "assetIds": []
    },
    {
      "x": 186,
      "y": 164,
      "size": 1,
      "price": "1011000000000000000000",
      "reserved": "",
      "salt": "0xd4f02fa6ab867c2a15d7c0400a1d5ceaef48540d05aa9c95e97ae1aa1885eb86",
      "assetIds": []
    },
    {
      "x": 186,
      "y": 165,
      "size": 1,
      "price": "1011000000000000000000",
      "reserved": "",
      "salt": "0x934df549681df21e06cdc4aaad193015dddd1325cc684d6e4236ea9d04d1eaa0",
      "assetIds": []
    },
    {
      "x": 186,
      "y": 166,
      "size": 1,
      "price": "1011000000000000000000",
      "reserved": "",
      "salt": "0xc9142bfe6c92226255fd3b43f6e0804dedf482e0c795dcaac090645b3a859d71",
      "assetIds": []
    },
    {
      "x": 186,
      "y": 167,
      "size": 1,
      "price": "1011000000000000000000",
      "reserved": "",
      "salt": "0x56a011182c4c9bb7b1dce472855ab698d8963d154e2bfdb7fe6858c0f216d180",
      "assetIds": []
    },
    {
      "x": 186,
      "y": 168,
      "size": 1,
      "price": "1011000000000000000000",
      "reserved": "",
      "salt": "0x71f1825541ff0ddc1e15ae23482cbeb601bc30d19915b9b096021517cfce751e",
      "assetIds": []
    },
    {
      "x": 186,
      "y": 169,
      "size": 1,
      "price": "1011000000000000000000",
      "reserved": "",
      "salt": "0x41878a07b1eb05be8603bda724f55ecf4117c7e457e1b6cbc79883a3236b056a",
      "assetIds": []
    },
    {
      "x": 186,
      "y": 170,
      "size": 1,
      "price": "1011000000000000000000",
      "reserved": "",
      "salt": "0x654e3006cebb0af5edd91bf13965fb194e41699b21c06a52601970d28f8e2249",
      "assetIds": []
    },
    {
      "x": 186,
      "y": 171,
      "size": 1,
      "price": "1011000000000000000000",
      "reserved": "",
      "salt": "0xa49ef55b63d62e79fdc70969ecd229d990fa5a2e325279179579efe72ec3ec83",
      "assetIds": []
    },
    {
      "x": 186,
      "y": 172,
      "size": 1,
      "price": "1011000000000000000000",
      "reserved": "0x7a9fe22691c811ea339d9b73150e6911a5343dca",
      "salt": "0xeca79129b28fae35242a0eebee2140d841542aaa10ad68bf2ef9d01efec5bb0f",
      "assetIds": []
    },
    {
      "x": 186,
      "y": 173,
      "size": 1,
      "price": "4683000000000000000000",
      "reserved": "",
      "salt": "0xb5c61045c00dee7a1ea18bc6ae99b22b9bbdf6911b5f4691e220de7da1f57dd4",
      "assetIds": [
        "41506478881403507969696680653240014914910929820314476107906210059990541021186"
      ]
    },
    {
      "x": 186,
      "y": 174,
      "size": 1,
      "price": "4683000000000000000000",
      "reserved": "",
      "salt": "0x3a0f1e692e05abac00607f1f51b8dbb652f8bacec5438d57253f041329067c1a",
      "assetIds": [
        "41506478881403507969696680653240014914910929820314476107906210059990541021189"
      ]
    },
    {
      "x": 186,
      "y": 175,
      "size": 1,
      "price": "4683000000000000000000",
      "reserved": "",
      "salt": "0xaf71920d5a1398b6a712b42fa5ab70ccc2b9f62af97f8918985999207b2fb212",
      "assetIds": [
        "41506478881403507969696680653240014914910929820314476107906210059990541021189"
      ]
    },
    {
      "x": 186,
      "y": 176,
      "size": 1,
      "price": "4683000000000000000000",
      "reserved": "",
      "salt": "0x3fb85051aabbfaaacfa1576d452ba07e775c5d7891cbdfa77c89789dfecc191b",
      "assetIds": [
        "41506478881403507969696680653240014914910929820314476107906210059990541021189"
      ]
    },
    {
      "x": 186,
      "y": 177,
      "size": 1,
      "price": "4683000000000000000000",
      "reserved": "",
      "salt": "0x6d368201562331f671e6e81092e84411f4c8012ed988de81d9d690d3ab27ffd2",
      "assetIds": [
        "41506478881403507969696680653240014914910929820314476107906210059990541021188"
      ]
    },
    {
      "x": 186,
      "y": 178,
      "size": 1,
      "price": "4683000000000000000000",
      "reserved": "",
      "salt": "0xda8715fef94c616958bb9dafc9178acc86c76ccf0a687d47274321a2daf58256",
      "assetIds": [
        "41506478881403507969696680653240014914910929820314476107906210059990541021186"
      ]
    },
    {
      "x": 186,
      "y": 179,
      "size": 1,
      "price": "4683000000000000000000",
      "reserved": "",
      "salt": "0xe0f5564210b150487f54e18a956378fde76a859f364f3fe0bce817ca492e0bf3",
      "assetIds": [
        "41506478881403507969696680653240014914910929820314476107906210059990541021189"
      ]
    },
    {
      "x": 186,
      "y": 180,
      "size": 1,
      "price": "4683000000000000000000",
      "reserved": "",
      "salt": "0x1e4a117b2448da81c06022dd11f5e94ae225311e33de23a55d0208807946665f",
      "assetIds": [
        "41506478881403507969696680653240014914910929820314476107906210059990541021188"
      ]
    },
    {
      "x": 186,
      "y": 181,
      "size": 1,
      "price": "4683000000000000000000",
      "reserved": "",
      "salt": "0x8aa058432f01fcaa6dbe34ea329699b60450fee89657e9c49c6dd9c353d5e942",
      "assetIds": [
        "41506478881403507969696680653240014914910929820314476107906210059990541021186"
      ]
    },
    {
      "x": 186,
      "y": 182,
      "size": 1,
      "price": "4683000000000000000000",
      "reserved": "",
      "salt": "0x0c2017888a977f7245bf8138754f31306be76e42cbce75d427ddb6f76842c758",
      "assetIds": [
        "41506478881403507969696680653240014914910929820314476107906210059990541021189"
      ]
    },
    {
      "x": 186,
      "y": 189,
      "size": 1,
      "price": "1011000000000000000000",
      "reserved": "",
      "salt": "0x6c598d04ee739f99f481298a22e7368a9af4113fe6d49e55f353f0d0f1aa5fda",
      "assetIds": []
    },
    {
      "x": 186,
      "y": 190,
      "size": 1,
      "price": "1011000000000000000000",
      "reserved": "",
      "salt": "0x1379724b384d35bfc18ae4bbabd9e1cb87f2f1da6c7c70b3be858e44712f6e3d",
      "assetIds": []
    },
    {
      "x": 186,
      "y": 191,
      "size": 1,
      "price": "1011000000000000000000",
      "reserved": "",
      "salt": "0xaa83574198a03bc679ede14ebfa3ef27ac29f7ec3be0f88fc30316bb8f70c5c5",
      "assetIds": []
    },
    {
      "x": 186,
      "y": 192,
      "size": 1,
      "price": "1011000000000000000000",
      "reserved": "",
      "salt": "0xf7475310963a443cce1b4eb28bc7b64d5a1432a088b0ff024435bb83620f6589",
      "assetIds": []
    },
    {
      "x": 186,
      "y": 193,
      "size": 1,
      "price": "1011000000000000000000",
      "reserved": "",
      "salt": "0x1dd8ed9745317e3670e2c25c77397224f36b0fa17b47af220112de430ef9b359",
      "assetIds": []
    },
    {
      "x": 186,
      "y": 194,
      "size": 1,
      "price": "1011000000000000000000",
      "reserved": "",
      "salt": "0x2b04dcb00744d96ea38c1cb804fa126112ddc939cfc26f1ca8bd857133d956eb",
      "assetIds": []
    },
    {
      "x": 187,
      "y": 164,
      "size": 1,
      "price": "1011000000000000000000",
      "reserved": "",
      "salt": "0xbf35575eadcc946cc142d069f6951ac0d73cf0b0972b014e5ea7d2c3558b93a0",
      "assetIds": []
    },
    {
      "x": 187,
      "y": 165,
      "size": 1,
      "price": "1011000000000000000000",
      "reserved": "",
      "salt": "0xc54684d625175663eaabc4469f79d29dc409d5e7f4de2bf3330c6b26d9b75623",
      "assetIds": []
    },
    {
      "x": 187,
      "y": 166,
      "size": 1,
      "price": "1011000000000000000000",
      "reserved": "",
      "salt": "0x50393960ccec97ea37f3b24612654d7e4a01b99fe1272fdc59a374bf1538e861",
      "assetIds": []
    },
    {
      "x": 187,
      "y": 167,
      "size": 1,
      "price": "1011000000000000000000",
      "reserved": "",
      "salt": "0xa62b02ec3bdc48d4e1bbf4dba3f179a9262fdb7f17abf55f6014be4b22ac75b9",
      "assetIds": []
    },
    {
      "x": 187,
      "y": 168,
      "size": 1,
      "price": "1011000000000000000000",
      "reserved": "",
      "salt": "0x80361f30300bf0774d594c482f0a3391867e421f1fbf0de0d6e7f808757a3e86",
      "assetIds": []
    },
    {
      "x": 187,
      "y": 169,
      "size": 1,
      "price": "1011000000000000000000",
      "reserved": "",
      "salt": "0x34108016e5abbbbed87a4dc48a6dd7636cd35c8287589a3e0e66e9f671a17d02",
      "assetIds": []
    },
    {
      "x": 187,
      "y": 170,
      "size": 1,
      "price": "1011000000000000000000",
      "reserved": "",
      "salt": "0xa48295e79f2c9e56eda1d030b6e2fad33a937efcfbe842a91cf962229cf62741",
      "assetIds": []
    },
    {
      "x": 187,
      "y": 171,
      "size": 1,
      "price": "1011000000000000000000",
      "reserved": "",
      "salt": "0xfa8c08437d1669b1dd5171df5658cb23a39e25b1869d96752b33c006731f5327",
      "assetIds": []
    },
    {
      "x": 187,
      "y": 172,
      "size": 1,
      "price": "1011000000000000000000",
      "reserved": "",
      "salt": "0xb82c7e82cbec06fab340758db2aab88c7d4c6938f107159d557e2f7880e939f3",
      "assetIds": []
    },
    {
      "x": 187,
      "y": 173,
      "size": 1,
      "price": "4683000000000000000000",
      "reserved": "",
      "salt": "0x1fb7a8d72befb6f039c86e1744ab7c477499add5014f30bb7cbb33c29ee7285f",
      "assetIds": [
        "41506478881403507969696680653240014914910929820314476107906210059990541021186"
      ]
    },
    {
      "x": 187,
      "y": 174,
      "size": 1,
      "price": "4683000000000000000000",
      "reserved": "",
      "salt": "0xbc847ffa8b8c18e360d44efdb9ca51c23d4b05ba0244c219f716c91d20ac3c79",
      "assetIds": [
        "41506478881403507969696680653240014914910929820314476107906210059990541021188"
      ]
    },
    {
      "x": 187,
      "y": 175,
      "size": 1,
      "price": "4683000000000000000000",
      "reserved": "",
      "salt": "0x2f12bf027b32c1f444865a6932d412c563656dbcd0f4d5b28b21ad28d6c0a7a3",
      "assetIds": [
        "41506478881403507969696680653240014914910929820314476107906210059990541021188"
      ]
    },
    {
      "x": 187,
      "y": 176,
      "size": 1,
      "price": "4683000000000000000000",
      "reserved": "",
      "salt": "0xaba71686d3b87bd60e791861e2f4b8dcb2596e869f274729c3222d06493e53eb",
      "assetIds": [
        "41506478881403507969696680653240014914910929820314476107906210059990541021186"
      ]
    },
    {
      "x": 187,
      "y": 177,
      "size": 1,
      "price": "4683000000000000000000",
      "reserved": "",
      "salt": "0xc4fad5b1d6366e2a38c549ae4a022d755715845f8092e49b5ae751110b2eba9a",
      "assetIds": [
        "41506478881403507969696680653240014914910929820314476107906210059990541021186"
      ]
    },
    {
      "x": 187,
      "y": 178,
      "size": 1,
      "price": "4683000000000000000000",
      "reserved": "",
      "salt": "0x5d9950383188f54e93caacf493b5ab90bd4cb1e717ccb609f4a140cabcb5c031",
      "assetIds": [
        "41506478881403507969696680653240014914910929820314476107906210059990541021186"
      ]
    },
    {
      "x": 187,
      "y": 179,
      "size": 1,
      "price": "4683000000000000000000",
      "reserved": "",
      "salt": "0x07f578e29419bd564fa2eb0084aca6ff39d3f6d8d498854f30756718daf72010",
      "assetIds": [
        "41506478881403507969696680653240014914910929820314476107906210059990541021189"
      ]
    },
    {
      "x": 187,
      "y": 180,
      "size": 1,
      "price": "4683000000000000000000",
      "reserved": "",
      "salt": "0xee24e8b2f13373ba2f58bb9b490141fe670a9c97034b0f1113f91a9a5e92c156",
      "assetIds": [
        "41506478881403507969696680653240014914910929820314476107906210059990541021186"
      ]
    },
    {
      "x": 187,
      "y": 181,
      "size": 1,
      "price": "4683000000000000000000",
      "reserved": "",
      "salt": "0x42e99c5fa162f707467456960dd702968f8284f19cc69f4d113861c4903fae01",
      "assetIds": [
        "41506478881403507969696680653240014914910929820314476107906210059990541021189"
      ]
    },
    {
      "x": 187,
      "y": 182,
      "size": 1,
      "price": "1011000000000000000000",
      "reserved": "0x7a9fe22691c811ea339d9b73150e6911a5343dca",
      "salt": "0x5434e8698966a098887877682424e8433229444714a4fc4643d2e142c36c7be1",
      "assetIds": []
    },
    {
      "x": 187,
      "y": 189,
      "size": 1,
      "price": "1011000000000000000000",
      "reserved": "",
      "salt": "0xbfb3242f2b2b763f137a02630f34107d153de3c054255ab6613439c9496a30f5",
      "assetIds": []
    },
    {
      "x": 187,
      "y": 190,
      "size": 1,
      "price": "1011000000000000000000",
      "reserved": "",
      "salt": "0xac16b1f167228df216d0c7cb4f8e3f4fb4754672db7bf7eb94bcf840f137409b",
      "assetIds": []
    },
    {
      "x": 187,
      "y": 191,
      "size": 1,
      "price": "1011000000000000000000",
      "reserved": "",
      "salt": "0xb48e200fcfbf8bac3721e59109e3aa7643087f49bf54a9f273c579508211b956",
      "assetIds": []
    },
    {
      "x": 187,
      "y": 192,
      "size": 1,
      "price": "1011000000000000000000",
      "reserved": "",
      "salt": "0x3f9e06af989f686280dd9480448fa267842ef29ba5986191c2ec30941c27a137",
      "assetIds": []
    },
    {
      "x": 187,
      "y": 193,
      "size": 1,
      "price": "1011000000000000000000",
      "reserved": "",
      "salt": "0xb60456b2f983b63f432d074a59aa4726030e0d94bc04a512c0d2fd5d2f03d6bf",
      "assetIds": []
    },
    {
      "x": 187,
      "y": 194,
      "size": 1,
      "price": "1011000000000000000000",
      "reserved": "",
      "salt": "0x9772bb978236f1ca12db2dc75e8b8898babc3a7545b4e9fb91eb0d8be12a1244",
      "assetIds": []
    },
    {
      "x": 188,
      "y": 164,
      "size": 1,
      "price": "1011000000000000000000",
      "reserved": "0x7a9fe22691c811ea339d9b73150e6911a5343dca",
      "salt": "0x298ffe7d83224491b7dfc5968611081cbb73ae2850a6e09a25c15d26092924f2",
      "assetIds": []
    },
    {
      "x": 188,
      "y": 165,
      "size": 1,
      "price": "1011000000000000000000",
      "reserved": "",
      "salt": "0x03b1de39dd342e3ef59a3f596316d6928e677b10fbacce37496ae8f7e0cd7717",
      "assetIds": []
    },
    {
      "x": 188,
      "y": 166,
      "size": 1,
      "price": "1011000000000000000000",
      "reserved": "",
      "salt": "0x91020ce66a096c5ebf301d97049f6e646c0451e525364787d674f616316130eb",
      "assetIds": []
    },
    {
      "x": 188,
      "y": 167,
      "size": 1,
      "price": "1011000000000000000000",
      "reserved": "",
      "salt": "0x5bc47074535bb4ccd0b3c718601284c98986ee68ef3c27b09b89a274c85a7339",
      "assetIds": []
    },
    {
      "x": 188,
      "y": 168,
      "size": 1,
      "price": "1011000000000000000000",
      "reserved": "",
      "salt": "0x585e9ac57f64f3e89173d287675da1a2b9868d3481eeb3717fe84ad7c875710f",
      "assetIds": []
    },
    {
      "x": 188,
      "y": 169,
      "size": 1,
      "price": "1011000000000000000000",
      "reserved": "",
      "salt": "0xc603bfa5dee9afb79d3c3a2627c0a0b78ff197bcc17e29c9426ce1a922f90b3e",
      "assetIds": []
    },
    {
      "x": 188,
      "y": 170,
      "size": 1,
      "price": "1011000000000000000000",
      "reserved": "",
      "salt": "0xb18aee2379100e54ade3d4786afd15b9b98d1a0514a939d7a1738ae3c7fed20b",
      "assetIds": []
    },
    {
      "x": 188,
      "y": 171,
      "size": 1,
      "price": "1011000000000000000000",
      "reserved": "0x7a9fe22691c811ea339d9b73150e6911a5343dca",
      "salt": "0xa0628a47b555ae96c8c5e96615e4abb7320283d3730600e6f5b3c3806d4d3d61",
      "assetIds": []
    },
    {
      "x": 188,
      "y": 172,
      "size": 1,
      "price": "1011000000000000000000",
      "reserved": "",
      "salt": "0x71e5d18e0b8b482e8b7d1d4b10a95c3802e452c5201c00121a5dcf24bbc4dd16",
      "assetIds": []
    },
    {
      "x": 188,
      "y": 173,
      "size": 1,
      "price": "4683000000000000000000",
      "reserved": "",
      "salt": "0x8e89e69165b9eff4fdbcb7f36d630ae448615d86b033cae08a4852ae1f35d4aa",
      "assetIds": [
        "41506478881403507969696680653240014914910929820314476107906210059990541021186"
      ]
    },
    {
      "x": 188,
      "y": 174,
      "size": 1,
      "price": "4683000000000000000000",
      "reserved": "",
      "salt": "0x4af263cc6a472e3460a50581cf94cb7be53f8f651a0f04e7f2fc5a3243b52b6a",
      "assetIds": [
        "41506478881403507969696680653240014914910929820314476107906210059990541021189"
      ]
    },
    {
      "x": 188,
      "y": 175,
      "size": 1,
      "price": "4683000000000000000000",
      "reserved": "",
      "salt": "0x2a7d72c45db476feb41a5ba51e9c3e9ae7b58f1ec43bc3fcf20bb00455548683",
      "assetIds": [
        "41506478881403507969696680653240014914910929820314476107906210059990541021188"
      ]
    },
    {
      "x": 188,
      "y": 176,
      "size": 1,
      "price": "4683000000000000000000",
      "reserved": "",
      "salt": "0x166a37cc6445a981eef0e107d7a2a463e4d4213ac08de3c0b1da5029f6c5c6b6",
      "assetIds": [
        "41506478881403507969696680653240014914910929820314476107906210059990541021186"
      ]
    },
    {
      "x": 188,
      "y": 177,
      "size": 1,
      "price": "4683000000000000000000",
      "reserved": "",
      "salt": "0xe7f573bcbc0d494926e0bebb3ccd0020c98516099ee7c595059e2bf3b610a106",
      "assetIds": [
        "41506478881403507969696680653240014914910929820314476107906210059990541021186"
      ]
    },
    {
      "x": 188,
      "y": 178,
      "size": 1,
      "price": "4683000000000000000000",
      "reserved": "",
      "salt": "0x703aa13b0f619a7c2087e7e11d388d3599fea1b4efdbd02911d617a3cf951016",
      "assetIds": [
        "41506478881403507969696680653240014914910929820314476107906210059990541021186"
      ]
    },
    {
      "x": 188,
      "y": 179,
      "size": 1,
      "price": "4683000000000000000000",
      "reserved": "",
      "salt": "0x67d1d921996c5db0ed8e5a5c78a10f98e4c8fe8e06d863c08c11cd51b05e8e90",
      "assetIds": [
        "41506478881403507969696680653240014914910929820314476107906210059990541021189"
      ]
    },
    {
      "x": 188,
      "y": 180,
      "size": 1,
      "price": "4683000000000000000000",
      "reserved": "",
      "salt": "0x41fbbe795458b6a4e5eda1b682d67578208f44a8ed870779c92342185af7487c",
      "assetIds": [
        "41506478881403507969696680653240014914910929820314476107906210059990541021188"
      ]
    },
    {
      "x": 188,
      "y": 181,
      "size": 1,
      "price": "4683000000000000000000",
      "reserved": "",
      "salt": "0xcabaef805fba4c4ac617669f3137ea7350cc330905d4ce63aa5624be0608a5d0",
      "assetIds": [
        "41506478881403507969696680653240014914910929820314476107906210059990541021188"
      ]
    },
    {
      "x": 188,
      "y": 182,
      "size": 1,
      "price": "1011000000000000000000",
      "reserved": "0x7a9fe22691c811ea339d9b73150e6911a5343dca",
      "salt": "0x26c515775dbf92ffeb3cc2814e3c19047a3aad346cabe987f93a14a807572a93",
      "assetIds": []
    },
    {
      "x": 188,
      "y": 189,
      "size": 1,
      "price": "1011000000000000000000",
      "reserved": "",
      "salt": "0xef16b6c2630c4d71e6d6831744dd526da4896692f3c21fbfdb3fd3bae99378bd",
      "assetIds": []
    },
    {
      "x": 188,
      "y": 190,
      "size": 1,
      "price": "1011000000000000000000",
      "reserved": "",
      "salt": "0x019f7a6dae3f0204c6a9b2a30cdf1a596b5a003598d9513d82e8f73f8692e8dc",
      "assetIds": []
    },
    {
      "x": 188,
      "y": 191,
      "size": 1,
      "price": "1011000000000000000000",
      "reserved": "",
      "salt": "0xa3ff7a6a76b9e98d06f2ff073f93622b1b69d8556c0f579b1b639dc6ea9bc34c",
      "assetIds": []
    },
    {
      "x": 188,
      "y": 192,
      "size": 1,
      "price": "4683000000000000000000",
      "reserved": "",
      "salt": "0x6856e441697c713d8e929005dd0f882752abf4a53d0e4706848377f58dfcc285",
      "assetIds": [
        "41506478881403507969696680653240014914910929820314476107906210059990541021188"
      ]
    },
    {
      "x": 188,
      "y": 193,
      "size": 1,
      "price": "4683000000000000000000",
      "reserved": "",
      "salt": "0xef973f68a6c1301d944ae007d8b0cb2d810077dde502fffa5a856f6605c1e984",
      "assetIds": [
        "41506478881403507969696680653240014914910929820314476107906210059990541021188"
      ]
    },
    {
      "x": 188,
      "y": 194,
      "size": 1,
      "price": "1011000000000000000000",
      "reserved": "",
      "salt": "0xa56394210fc814dbe37312e46f5ca885a30c4df2371bde09221cb89f5a0424fe",
      "assetIds": []
    },
    {
      "x": 189,
      "y": 164,
      "size": 1,
      "price": "1011000000000000000000",
      "reserved": "",
      "salt": "0xc8aa99d722f0a0f9f37a902aff67280bf0ab9ab95c93cc516063d00394985af2",
      "assetIds": []
    },
    {
      "x": 189,
      "y": 165,
      "size": 1,
      "price": "1011000000000000000000",
      "reserved": "",
      "salt": "0x5cb667f805262df1afa304f8b9bed4535e353b0a8a1df7791d31bacf671f18f6",
      "assetIds": []
    },
    {
      "x": 189,
      "y": 166,
      "size": 1,
      "price": "1011000000000000000000",
      "reserved": "",
      "salt": "0xdaa79b66fa86d73fa138f9eecb9e533bc753ff4319433b0acb0707dd7aea3fb8",
      "assetIds": []
    },
    {
      "x": 189,
      "y": 167,
      "size": 1,
      "price": "1011000000000000000000",
      "reserved": "",
      "salt": "0x36de98e19ba1f45795a1544c6185ddcb5d37d78bb25e199ae5c55a5dc7e860a6",
      "assetIds": []
    },
    {
      "x": 189,
      "y": 168,
      "size": 1,
      "price": "1011000000000000000000",
      "reserved": "",
      "salt": "0xeb82b7dce6fad288c7f1e75c9a5af1bd53ef0064560d7273553541afe97689dc",
      "assetIds": []
    },
    {
      "x": 189,
      "y": 169,
      "size": 1,
      "price": "1011000000000000000000",
      "reserved": "",
      "salt": "0x61657b26e202dc330550d6a8ea4c737a9422b40df52b5c10beb32f5e49a25b2c",
      "assetIds": []
    },
    {
      "x": 189,
      "y": 170,
      "size": 1,
      "price": "1011000000000000000000",
      "reserved": "",
      "salt": "0xa739df4ccea1329c7e7cdd1937da7294b11b353f0d51e754a9d7b0484f6f19a6",
      "assetIds": []
    },
    {
      "x": 189,
      "y": 171,
      "size": 1,
      "price": "1011000000000000000000",
      "reserved": "",
      "salt": "0x5447746bc80d47ae9ec4b36eebc1330dbd24f13b4c2689d60b88cd2db5b88674",
      "assetIds": []
    },
    {
      "x": 189,
      "y": 172,
      "size": 1,
      "price": "1011000000000000000000",
      "reserved": "",
      "salt": "0x273d722f7e7985c91bdbf2ec3e7d31dfff98f461a66e47172cbf8414e275e4b8",
      "assetIds": []
    },
    {
      "x": 189,
      "y": 173,
      "size": 1,
      "price": "1011000000000000000000",
      "reserved": "",
      "salt": "0x0f643850918887718e8ca4b27684d64288968c473086c7302192c57521002e79",
      "assetIds": []
    },
    {
      "x": 189,
      "y": 174,
      "size": 1,
      "price": "4683000000000000000000",
      "reserved": "",
      "salt": "0x3769152f9a408f44151d21ccb7051138424962cb55bb5edace12cf7a673ef57e",
      "assetIds": [
        "41506478881403507969696680653240014914910929820314476107906210059990541021189"
      ]
    },
    {
      "x": 189,
      "y": 175,
      "size": 1,
      "price": "4683000000000000000000",
      "reserved": "",
      "salt": "0x618b455a2ed387912c49d1c83bbb3057e326fadec99f5871fb24d1356117c6fc",
      "assetIds": [
        "41506478881403507969696680653240014914910929820314476107906210059990541021189"
      ]
    },
    {
      "x": 189,
      "y": 176,
      "size": 1,
      "price": "4683000000000000000000",
      "reserved": "",
      "salt": "0x039259bafa7284d8a5189bd669188b94ebdb871dd96fb5e263845b58e829f8dd",
      "assetIds": [
        "41506478881403507969696680653240014914910929820314476107906210059990541021189"
      ]
    },
    {
      "x": 189,
      "y": 180,
      "size": 1,
      "price": "4683000000000000000000",
      "reserved": "",
      "salt": "0xa51b009323fbd23c4c470583b8ab4c71844050da8f7a1b6ecdfd86bcc1784a61",
      "assetIds": [
        "41506478881403507969696680653240014914910929820314476107906210059990541021189"
      ]
    },
    {
      "x": 189,
      "y": 181,
      "size": 1,
      "price": "4683000000000000000000",
      "reserved": "",
      "salt": "0x90022d97c5ed277d3e4114b9a82bf2ab64a6a9dd8ffc80ac361082c96be51dda",
      "assetIds": [
        "41506478881403507969696680653240014914910929820314476107906210059990541021188"
      ]
    },
    {
      "x": 189,
      "y": 182,
      "size": 1,
      "price": "4683000000000000000000",
      "reserved": "",
      "salt": "0x60f8fdbf37ec6b2cb900f77539771b6f12b72f70b3db6ed52169a1d26009e8f8",
      "assetIds": [
        "41506478881403507969696680653240014914910929820314476107906210059990541021188"
      ]
    },
    {
      "x": 189,
      "y": 183,
      "size": 1,
      "price": "1011000000000000000000",
      "reserved": "",
      "salt": "0x9dec0524b70c42a43e1913ab9821965b42f8341611d1f3d4cf00aa1f537e3835",
      "assetIds": []
    },
    {
      "x": 189,
      "y": 184,
      "size": 1,
      "price": "1011000000000000000000",
      "reserved": "",
      "salt": "0xc0e456c3f18382c9cb94f49a374cf170d885faac9ac1268cd051ec93801c1fab",
      "assetIds": []
    },
    {
      "x": 189,
      "y": 185,
      "size": 1,
      "price": "1011000000000000000000",
      "reserved": "",
      "salt": "0x7cbbc093593d14714f3631b59d6a1abc394d4cb68fb26a8b878637967e5e5662",
      "assetIds": []
    },
    {
      "x": 189,
      "y": 186,
      "size": 1,
      "price": "1011000000000000000000",
      "reserved": "",
      "salt": "0x0412e4e172100b0c8f23fd7288045c657fb8ea8223ba16595f4790d677658945",
      "assetIds": []
    },
    {
      "x": 189,
      "y": 187,
      "size": 1,
      "price": "1011000000000000000000",
      "reserved": "",
      "salt": "0x4f71786ca53c37a30a0c1caff0be6cc917c22e008763300de286d4bc158e1c1d",
      "assetIds": []
    },
    {
      "x": 189,
      "y": 188,
      "size": 1,
      "price": "1011000000000000000000",
      "reserved": "",
      "salt": "0x9e7842aef8218fec322980ad97b008f4f17fc00629660cb2506b307eead3bb5e",
      "assetIds": []
    },
    {
      "x": 189,
      "y": 189,
      "size": 1,
      "price": "1011000000000000000000",
      "reserved": "",
      "salt": "0x726392a44f9c7882bd39b0627bda007579e7317d799437bf04a3197c6e3b6032",
      "assetIds": []
    },
    {
      "x": 189,
      "y": 190,
      "size": 1,
      "price": "1011000000000000000000",
      "reserved": "0x7a9fe22691c811ea339d9b73150e6911a5343dca",
      "salt": "0x5c7381721958fb4fc81f53fd152daecd75a8324b9ce836681927f5b62e84e4df",
      "assetIds": []
    },
    {
      "x": 189,
      "y": 191,
      "size": 1,
      "price": "1011000000000000000000",
      "reserved": "",
      "salt": "0xe9956a9f2658d6caf9d19685a966e1edd0fd8a20ff408bb3c5019ebdb2d0e941",
      "assetIds": []
    },
    {
      "x": 189,
      "y": 192,
      "size": 1,
      "price": "4683000000000000000000",
      "reserved": "",
      "salt": "0x5697531dd235a69dcb227eb59a925b846dc87310756b719432923d4da05d2824",
      "assetIds": [
        "41506478881403507969696680653240014914910929820314476107906210059990541021186"
      ]
    },
    {
      "x": 189,
      "y": 193,
      "size": 1,
      "price": "4683000000000000000000",
      "reserved": "",
      "salt": "0x08514154c40f183f14f44d362b95a3d22dbd282375359aabde1245e880240d3c",
      "assetIds": [
        "41506478881403507969696680653240014914910929820314476107906210059990541021189"
      ]
    },
    {
      "x": 189,
      "y": 194,
      "size": 1,
      "price": "4683000000000000000000",
      "reserved": "",
      "salt": "0x98649a4bd277aabeee039e23487b9a957a826211c0a3c6d1d5255604736c21db",
      "assetIds": [
        "41506478881403507969696680653240014914910929820314476107906210059990541021188"
      ]
    },
    {
      "x": 190,
      "y": 164,
      "size": 1,
      "price": "1011000000000000000000",
      "reserved": "",
      "salt": "0xcfd334c5f58b066c1e4089da830603215ff7d235bfa22497a713ffd9af058ac6",
      "assetIds": []
    },
    {
      "x": 190,
      "y": 165,
      "size": 1,
      "price": "1011000000000000000000",
      "reserved": "",
      "salt": "0xc9ed4693c3c296fb4e1e26d0ef206af415534f246e81e6a24f969088459e10c6",
      "assetIds": []
    },
    {
      "x": 190,
      "y": 166,
      "size": 1,
      "price": "1011000000000000000000",
      "reserved": "0x7a9fe22691c811ea339d9b73150e6911a5343dca",
      "salt": "0xe644921522f3443f6187dbb1e46bee5cf21079b41ef11722bc80209025717051",
      "assetIds": []
    },
    {
      "x": 190,
      "y": 167,
      "size": 1,
      "price": "1011000000000000000000",
      "reserved": "",
      "salt": "0x14bb88639337b679b345e70e57e6a9a12966b3b15530d3fc6f711d37c90ae6ba",
      "assetIds": []
    },
    {
      "x": 190,
      "y": 168,
      "size": 1,
      "price": "1011000000000000000000",
      "reserved": "",
      "salt": "0x876278fb3afb42781df5f2791bde3d95a7e4b46ac5a5dd97a8c1823a47e936b4",
      "assetIds": []
    },
    {
      "x": 190,
      "y": 169,
      "size": 1,
      "price": "1011000000000000000000",
      "reserved": "",
      "salt": "0x761542e5bf1ba08b3a0d97a373bbc83271285ccfda8e75a1d0f31cd967baa049",
      "assetIds": []
    },
    {
      "x": 190,
      "y": 170,
      "size": 1,
      "price": "1011000000000000000000",
      "reserved": "",
      "salt": "0xd8ef04a45a374fbb05fd16e2cd561adbe8b52baab1a745bdd4ee0b5b79b0ab65",
      "assetIds": []
    },
    {
      "x": 190,
      "y": 171,
      "size": 1,
      "price": "1011000000000000000000",
      "reserved": "0x7a9fe22691c811ea339d9b73150e6911a5343dca",
      "salt": "0xb4a15ef87ba8f1d95830910931fa811fad92218666248ff51725c28132b42943",
      "assetIds": []
    },
    {
      "x": 190,
      "y": 172,
      "size": 1,
      "price": "1011000000000000000000",
      "reserved": "",
      "salt": "0x57dd8482d35b1d7877aa966f589abb5638e11ab5247079492dc097e7807580ff",
      "assetIds": []
    },
    {
      "x": 190,
      "y": 173,
      "size": 1,
      "price": "1011000000000000000000",
      "reserved": "",
      "salt": "0x8623735ca629eb775ff6acaa4f8e3f252c8fca5c1cfce55ed8fbcfa766a72a06",
      "assetIds": []
    },
    {
      "x": 190,
      "y": 174,
      "size": 1,
      "price": "4683000000000000000000",
      "reserved": "",
      "salt": "0xb11f44500e0ed0f9a087d2f4c68b77621fb61ac3ddd050cb7eeb97e3aafd16b7",
      "assetIds": [
        "41506478881403507969696680653240014914910929820314476107906210059990541021189"
      ]
    },
    {
      "x": 190,
      "y": 175,
      "size": 1,
      "price": "4683000000000000000000",
      "reserved": "",
      "salt": "0xb5efdd7f8e1b32e6c692fb6e55cdea94ec1caa75bcdb3cc08c34812d200ae98d",
      "assetIds": [
        "41506478881403507969696680653240014914910929820314476107906210059990541021189"
      ]
    },
    {
      "x": 190,
      "y": 176,
      "size": 1,
      "price": "4683000000000000000000",
      "reserved": "",
      "salt": "0x2e25f9ad7d4fc8bfbd2b9c97ad90c4523fefe878c63d31a4accf9e9f23bb1385",
      "assetIds": [
        "41506478881403507969696680653240014914910929820314476107906210059990541021188"
      ]
    },
    {
      "x": 190,
      "y": 180,
      "size": 1,
      "price": "4683000000000000000000",
      "reserved": "",
      "salt": "0x6f667f141d1b6a64485fce60ac0db5f75af9412096d0cd99a87731e18b2fc237",
      "assetIds": [
        "41506478881403507969696680653240014914910929820314476107906210059990541021186"
      ]
    },
    {
      "x": 190,
      "y": 181,
      "size": 1,
      "price": "4683000000000000000000",
      "reserved": "",
      "salt": "0x562e10a561de1f8e1335efd7bbe7ce4580a76baae3e39ff4aa6c9a5fb9a578c7",
      "assetIds": [
        "41506478881403507969696680653240014914910929820314476107906210059990541021188"
      ]
    },
    {
      "x": 190,
      "y": 182,
      "size": 1,
      "price": "4683000000000000000000",
      "reserved": "",
      "salt": "0x9c19b216e1deec29d5035dc6a05c1c61bef8ee50e0473a2851e6c6a04f6e19e0",
      "assetIds": [
        "41506478881403507969696680653240014914910929820314476107906210059990541021188"
      ]
    },
    {
      "x": 190,
      "y": 183,
      "size": 1,
      "price": "1011000000000000000000",
      "reserved": "",
      "salt": "0xeffc5a234e37497177c6c9584ed54b68b522e212e12e00b1d6410a80fe7234af",
      "assetIds": []
    },
    {
      "x": 190,
      "y": 184,
      "size": 1,
      "price": "1011000000000000000000",
      "reserved": "",
      "salt": "0xe44201eab75048bc227026b3a99e937568501cfda8b2c07ea9c6db7daea4834a",
      "assetIds": []
    },
    {
      "x": 190,
      "y": 185,
      "size": 1,
      "price": "1011000000000000000000",
      "reserved": "",
      "salt": "0x3f4715ea4773ff09d8339144a68b52786a876cd6794fc6d66b6977552f2e7e4f",
      "assetIds": []
    },
    {
      "x": 190,
      "y": 186,
      "size": 1,
      "price": "1011000000000000000000",
      "reserved": "",
      "salt": "0x9be210f0c5f3c6ea89417434b0c0e523d3e449d43615c0e7e2e9b8174fe5108d",
      "assetIds": []
    },
    {
      "x": 190,
      "y": 187,
      "size": 1,
      "price": "1011000000000000000000",
      "reserved": "0x7a9fe22691c811ea339d9b73150e6911a5343dca",
      "salt": "0x74f9369aa5a32af6c7ef00c66e34a4340d19b0bb77b9e9d687aa1b0d93335c8c",
      "assetIds": []
    },
    {
      "x": 190,
      "y": 188,
      "size": 1,
      "price": "1011000000000000000000",
      "reserved": "",
      "salt": "0x70750c10e93b881807600152054bcdc7e4d1403901c612f3caa3488748f87f5a",
      "assetIds": []
    },
    {
      "x": 190,
      "y": 189,
      "size": 1,
      "price": "1011000000000000000000",
      "reserved": "",
      "salt": "0x0665eb32f27eb74d7fec8ee9da9b9f590573b14303190aa09daa40fe30ca07e0",
      "assetIds": []
    },
    {
      "x": 190,
      "y": 190,
      "size": 1,
      "price": "1011000000000000000000",
      "reserved": "",
      "salt": "0xdd6b903a3e7153a6f75a16ac32de1a17f858d55e5c1973a2db234737faedf103",
      "assetIds": []
    },
    {
      "x": 190,
      "y": 191,
      "size": 1,
      "price": "1011000000000000000000",
      "reserved": "",
      "salt": "0xe28ad5246728f1d96771645fd0177f6e7a9c13ba4fd42fcf64ae63e20107824f",
      "assetIds": []
    },
    {
      "x": 190,
      "y": 192,
      "size": 1,
      "price": "4683000000000000000000",
      "reserved": "",
      "salt": "0x827f6e3a2a76d4f9331d6f756599ad1e490d6bc86c3f527b16e663f335f08ea6",
      "assetIds": [
        "41506478881403507969696680653240014914910929820314476107906210059990541021189"
      ]
    },
    {
      "x": 190,
      "y": 193,
      "size": 1,
      "price": "4683000000000000000000",
      "reserved": "",
      "salt": "0xfbe7fb8979ef1747f619851b700fa5513f3f238495778e1415d08a588851e481",
      "assetIds": [
        "41506478881403507969696680653240014914910929820314476107906210059990541021189"
      ]
    },
    {
      "x": 190,
      "y": 194,
      "size": 1,
      "price": "4683000000000000000000",
      "reserved": "",
      "salt": "0x165321bb19932ccb7857b762686cb8abc97029fec00b42bc1415a49b39ddd2b5",
      "assetIds": [
        "41506478881403507969696680653240014914910929820314476107906210059990541021189"
      ]
    },
    {
      "x": 191,
      "y": 164,
      "size": 1,
      "price": "1011000000000000000000",
      "reserved": "",
      "salt": "0x2b2a79c1395dcf6cccf7451536cecf8361305f73965c406ab47b56651b663aad",
      "assetIds": []
    },
    {
      "x": 191,
      "y": 165,
      "size": 1,
      "price": "1011000000000000000000",
      "reserved": "",
      "salt": "0xd23f47fffd5ea6be255e4f13f8acd8f8a5d47fec1ec1c2aacea575e17a63fc63",
      "assetIds": []
    },
    {
      "x": 191,
      "y": 166,
      "size": 1,
      "price": "1011000000000000000000",
      "reserved": "",
      "salt": "0x3aeb904f9990ceb6f854e4bc6aa052be595ef1c616e0ff2644b4c2fd8c10c03c",
      "assetIds": []
    },
    {
      "x": 191,
      "y": 167,
      "size": 1,
      "price": "1011000000000000000000",
      "reserved": "",
      "salt": "0xf9bd7abe32fc64ba5dbd527ab4740c7e12bbc6913419899afa156e350371d7f7",
      "assetIds": []
    },
    {
      "x": 191,
      "y": 168,
      "size": 1,
      "price": "1011000000000000000000",
      "reserved": "",
      "salt": "0xeb1aa8c4fc102a671549bb615f85eaf0c4a0a54c68aafd765879dc9c1ee72a8b",
      "assetIds": []
    },
    {
      "x": 191,
      "y": 169,
      "size": 1,
      "price": "1011000000000000000000",
      "reserved": "",
      "salt": "0x5211c5965cef2b1fd46ed37cf0c0e4d4e6d64fbbd5cd5a4dbdabdbf3d5ff543f",
      "assetIds": []
    },
    {
      "x": 191,
      "y": 170,
      "size": 1,
      "price": "1011000000000000000000",
      "reserved": "",
      "salt": "0x6a2edb0d601e26d6d616502f5f8205ec25b533b7360252d8ec62c192b14d1a5f",
      "assetIds": []
    },
    {
      "x": 191,
      "y": 171,
      "size": 1,
      "price": "1011000000000000000000",
      "reserved": "",
      "salt": "0xb897985015ca8b7d64b2f9a3aa5d1d60f43e1012e2b38b2e21b0b64d3ad26fea",
      "assetIds": []
    },
    {
      "x": 191,
      "y": 172,
      "size": 1,
      "price": "1011000000000000000000",
      "reserved": "",
      "salt": "0x511c8feb87e8fee456338a18233bf02a855dadfbb91a794c2929aff26216cb4d",
      "assetIds": []
    },
    {
      "x": 191,
      "y": 173,
      "size": 1,
      "price": "1011000000000000000000",
      "reserved": "",
      "salt": "0x2827c06a4451cd6c1a48a3892cc467f98e6bd1e7ff24ea79cb57754cb7a5b73a",
      "assetIds": []
    },
    {
      "x": 191,
      "y": 174,
      "size": 1,
      "price": "4683000000000000000000",
      "reserved": "",
      "salt": "0x38324d41956c776c7e9faabf7cea0dcdd268a2518ec498be4bf7d861f6616142",
      "assetIds": [
        "41506478881403507969696680653240014914910929820314476107906210059990541021189"
      ]
    },
    {
      "x": 191,
      "y": 175,
      "size": 1,
      "price": "4683000000000000000000",
      "reserved": "",
      "salt": "0x8e7e4ac92115ecfb26d3858dafb8677a473bdcf272426bf03276310d5d2e0cf6",
      "assetIds": [
        "41506478881403507969696680653240014914910929820314476107906210059990541021186"
      ]
    },
    {
      "x": 191,
      "y": 176,
      "size": 1,
      "price": "4683000000000000000000",
      "reserved": "",
      "salt": "0xb444d4b0cd14408fe403616b829478471cc67f382437527d7898a83da5913f54",
      "assetIds": [
        "41506478881403507969696680653240014914910929820314476107906210059990541021189"
      ]
    },
    {
      "x": 191,
      "y": 180,
      "size": 1,
      "price": "4683000000000000000000",
      "reserved": "",
      "salt": "0x01a928b9b6978544f0eccbc24b9edbe020e71269c47f24c231556116ec5911a4",
      "assetIds": [
        "41506478881403507969696680653240014914910929820314476107906210059990541021189"
      ]
    },
    {
      "x": 191,
      "y": 181,
      "size": 1,
      "price": "4683000000000000000000",
      "reserved": "",
      "salt": "0x425885bcdcaa603fe5a2d0314672b849ad7e971c271ec92d765de2370b6992c4",
      "assetIds": [
        "41506478881403507969696680653240014914910929820314476107906210059990541021186"
      ]
    },
    {
      "x": 191,
      "y": 182,
      "size": 1,
      "price": "4683000000000000000000",
      "reserved": "",
      "salt": "0x46d05a11e65ec1220c948547eda9ccad7a0e41a7a79c7f9aee83f373ce9a3f3e",
      "assetIds": [
        "41506478881403507969696680653240014914910929820314476107906210059990541021186"
      ]
    },
    {
      "x": 191,
      "y": 183,
      "size": 1,
      "price": "1011000000000000000000",
      "reserved": "",
      "salt": "0x13ab06a0eae812dac5112e19c6c8ad790461673eac9e3ea28cf289fc15a18950",
      "assetIds": []
    },
    {
      "x": 191,
      "y": 184,
      "size": 1,
      "price": "1011000000000000000000",
      "reserved": "",
      "salt": "0xd6fc9bfe81b7efea9ed51ed5fa0369da0909e81d85d9cd38f8af3d8045270b08",
      "assetIds": []
    },
    {
      "x": 191,
      "y": 185,
      "size": 1,
      "price": "1011000000000000000000",
      "reserved": "",
      "salt": "0x1a7e093c440b426a3cd2ae48f9d5fb6e210887645f03e90767e7fa00178c6d2c",
      "assetIds": []
    },
    {
      "x": 191,
      "y": 186,
      "size": 1,
      "price": "1011000000000000000000",
      "reserved": "",
      "salt": "0xdee04ddba14065db0c7ae07b6b12dd0ade0f36a04905680f30162ce0b401b2ff",
      "assetIds": []
    },
    {
      "x": 191,
      "y": 187,
      "size": 1,
      "price": "1011000000000000000000",
      "reserved": "",
      "salt": "0x75f045b90a3e689f1e91060b87461e4b48106922ca9e66405f4e0c92984c866a",
      "assetIds": []
    },
    {
      "x": 191,
      "y": 188,
      "size": 1,
      "price": "1011000000000000000000",
      "reserved": "",
      "salt": "0x22d1d23ed0eda0312b794c3a15bbd54f797a7d5aef99f138614b0ed7a18bbebf",
      "assetIds": []
    },
    {
      "x": 191,
      "y": 189,
      "size": 1,
      "price": "1011000000000000000000",
      "reserved": "",
      "salt": "0x26086a40474a5e315263612251a04161ddaa408bba60b54f8ff2ceb431cc33ce",
      "assetIds": []
    },
    {
      "x": 191,
      "y": 190,
      "size": 1,
      "price": "4683000000000000000000",
      "reserved": "",
      "salt": "0x43994be3b49f06af08294c667da674d2889f944527118cb43f8168130be1482e",
      "assetIds": [
        "41506478881403507969696680653240014914910929820314476107906210059990541021186"
      ]
    },
    {
      "x": 191,
      "y": 191,
      "size": 1,
      "price": "4683000000000000000000",
      "reserved": "",
      "salt": "0xefc5c4633adab3724018308d2e98425454dc82e3504fedb36846536f7e449c3e",
      "assetIds": [
        "41506478881403507969696680653240014914910929820314476107906210059990541021186"
      ]
    },
    {
      "x": 191,
      "y": 192,
      "size": 1,
      "price": "4683000000000000000000",
      "reserved": "",
      "salt": "0x6612e5d5e27204602ef23742c6d25b0a96c342bc9c05872a574114c9d39c32f3",
      "assetIds": [
        "41506478881403507969696680653240014914910929820314476107906210059990541021186"
      ]
    },
    {
      "x": 191,
      "y": 193,
      "size": 1,
      "price": "4683000000000000000000",
      "reserved": "",
      "salt": "0xf6c33aed62ed9569c100dcd521f8241305975ec1f9c368ada6a9eba470895d7d",
      "assetIds": [
        "41506478881403507969696680653240014914910929820314476107906210059990541021188"
      ]
    },
    {
      "x": 191,
      "y": 194,
      "size": 1,
      "price": "4683000000000000000000",
      "reserved": "",
      "salt": "0x224308fa3379ebd08ae9fbf377243f3379e691f9b82103b52d0f58ba612dd9ca",
      "assetIds": [
        "41506478881403507969696680653240014914910929820314476107906210059990541021188"
      ]
    },
    {
      "x": 192,
      "y": 164,
      "size": 1,
      "price": "1011000000000000000000",
      "reserved": "0x7a9fe22691c811ea339d9b73150e6911a5343dca",
      "salt": "0xf239b9fc8bb894f27a33266333fcb344783154d28dd7b423b558460854c3343b",
      "assetIds": []
    },
    {
      "x": 192,
      "y": 165,
      "size": 1,
      "price": "1011000000000000000000",
      "reserved": "",
      "salt": "0xc0c8aa97f57016bb19048b23a13ea94e720b9e58171a3137dc1f5e75f113600c",
      "assetIds": []
    },
    {
      "x": 192,
      "y": 166,
      "size": 1,
      "price": "1011000000000000000000",
      "reserved": "",
      "salt": "0x296d20d522469fa16a53f60edf3a5c0eaac39430ce712687cdf3d34f64e18d42",
      "assetIds": []
    },
    {
      "x": 192,
      "y": 167,
      "size": 1,
      "price": "1011000000000000000000",
      "reserved": "",
      "salt": "0x401be33bba4aa3c653cdab25a6712d8dd10d9f6b8f1d5bf5e36176667274d464",
      "assetIds": []
    },
    {
      "x": 192,
      "y": 174,
      "size": 1,
      "price": "4683000000000000000000",
      "reserved": "",
      "salt": "0xbedd08b66303ccb23d0b11a0cf1f99f62e19a1a54c7599f7bd38f214cd1bc49c",
      "assetIds": [
        "41506478881403507969696680653240014914910929820314476107906210059990541021186"
      ]
    },
    {
      "x": 192,
      "y": 175,
      "size": 1,
      "price": "4683000000000000000000",
      "reserved": "",
      "salt": "0x85956cc2ede09cfd69a9764ec9645cc8808b67fc9c07b4e9716655bc6fbfa977",
      "assetIds": [
        "41506478881403507969696680653240014914910929820314476107906210059990541021189"
      ]
    },
    {
      "x": 192,
      "y": 176,
      "size": 1,
      "price": "4683000000000000000000",
      "reserved": "",
      "salt": "0x36a3aec0de15c2ddf02b84deddbaf95d13e9f61ddc6e6dda38308185b56eddca",
      "assetIds": [
        "41506478881403507969696680653240014914910929820314476107906210059990541021188"
      ]
    },
    {
      "x": 192,
      "y": 180,
      "size": 1,
      "price": "4683000000000000000000",
      "reserved": "",
      "salt": "0xfd2cbdf9f461ffe15a9abe2dc2b18d9e21945a09b4406ab3e890a4be83218af8",
      "assetIds": [
        "41506478881403507969696680653240014914910929820314476107906210059990541021189"
      ]
    },
    {
      "x": 192,
      "y": 181,
      "size": 1,
      "price": "4683000000000000000000",
      "reserved": "",
      "salt": "0x323c796297edb8ce4584d0e642aad1b35d89623677b448bdfd974ea112a1abb7",
      "assetIds": [
        "41506478881403507969696680653240014914910929820314476107906210059990541021186"
      ]
    },
    {
      "x": 192,
      "y": 182,
      "size": 1,
      "price": "4683000000000000000000",
      "reserved": "",
      "salt": "0xbf1942941de04d9f594ab05e59d334edd67402b3d3f64de9999f38daa516dfa6",
      "assetIds": [
        "41506478881403507969696680653240014914910929820314476107906210059990541021186"
      ]
    },
    {
      "x": 192,
      "y": 186,
      "size": 1,
      "price": "1011000000000000000000",
      "reserved": "",
      "salt": "0xeecc02380e5e214ea1367858cb77595f14b36d57fd5c9d23b650fdd0f4cacbd8",
      "assetIds": []
    },
    {
      "x": 192,
      "y": 187,
      "size": 1,
      "price": "1011000000000000000000",
      "reserved": "",
      "salt": "0xa8498cce4c3a895f4e9d87ad2781751cc37344c2fc430a45a7695a0afbd42269",
      "assetIds": []
    },
    {
      "x": 192,
      "y": 188,
      "size": 1,
      "price": "1011000000000000000000",
      "reserved": "",
      "salt": "0xd0070e7fa92f2e34491147fb3c5f102c34978a838d245cf7b6b4ab7ee3525bbb",
      "assetIds": []
    },
    {
      "x": 192,
      "y": 189,
      "size": 1,
      "price": "1011000000000000000000",
      "reserved": "0x7a9fe22691c811ea339d9b73150e6911a5343dca",
      "salt": "0x56b9c5a2ca72fec781ea0c9403fa65fa4e77555944fc8fbff57ececde2c591f4",
      "assetIds": []
    },
    {
      "x": 192,
      "y": 190,
      "size": 1,
      "price": "4683000000000000000000",
      "reserved": "",
      "salt": "0xc23ba24ef15d490eb34c2a659b27323cc1b23b875fdcad0820b65e50bb76175a",
      "assetIds": [
        "41506478881403507969696680653240014914910929820314476107906210059990541021188"
      ]
    },
    {
      "x": 192,
      "y": 191,
      "size": 1,
      "price": "4683000000000000000000",
      "reserved": "",
      "salt": "0x7e616c51c7658ff9a2ac9dc57b2fe1e5915c91b93b801a3db8dd8730f9228b37",
      "assetIds": [
        "41506478881403507969696680653240014914910929820314476107906210059990541021186"
      ]
    },
    {
      "x": 193,
      "y": 165,
      "size": 1,
      "price": "1011000000000000000000",
      "reserved": "",
      "salt": "0x177f120609bf83b65d112b6fbfe0b597564195266487651df755fac31fd2942b",
      "assetIds": []
    },
    {
      "x": 193,
      "y": 166,
      "size": 1,
      "price": "1011000000000000000000",
      "reserved": "",
      "salt": "0xc53d1850e8a25c741e73cbff0306217ef5b2e4c9fd55c5421efd8aa9edaf9891",
      "assetIds": []
    },
    {
      "x": 193,
      "y": 167,
      "size": 1,
      "price": "1011000000000000000000",
      "reserved": "",
      "salt": "0xbc0adf3ae865aa850c4bbcfc104c770d3f34a36f645aecd3e8bea487a2d31b79",
      "assetIds": []
    },
    {
      "x": 193,
      "y": 174,
      "size": 1,
      "price": "1011000000000000000000",
      "reserved": "0x7a9fe22691c811ea339d9b73150e6911a5343dca",
      "salt": "0x00704c0e84d0656c245cfc69fa503d7cb7545815f9f53fdf9d48f3de37593b3f",
      "assetIds": []
    },
    {
      "x": 193,
      "y": 175,
      "size": 1,
      "price": "4683000000000000000000",
      "reserved": "",
      "salt": "0xc3f922e203c318accf177ddffce9b3f199a346565ac4c97a7baeb1235d1426f5",
      "assetIds": [
        "41506478881403507969696680653240014914910929820314476107906210059990541021188"
      ]
    },
    {
      "x": 193,
      "y": 176,
      "size": 1,
      "price": "4683000000000000000000",
      "reserved": "",
      "salt": "0xa9450dff5a8b4238f33bf358ab50c10233c5220cc398981c7a896c7c37a81717",
      "assetIds": [
        "41506478881403507969696680653240014914910929820314476107906210059990541021188"
      ]
    },
    {
      "x": 193,
      "y": 180,
      "size": 1,
      "price": "4683000000000000000000",
      "reserved": "",
      "salt": "0x16ee2eafd50e142d0b1c44abfbb11407645870b80ad6ac14e41911a6c0141985",
      "assetIds": [
        "41506478881403507969696680653240014914910929820314476107906210059990541021188"
      ]
    },
    {
      "x": 193,
      "y": 181,
      "size": 1,
      "price": "4683000000000000000000",
      "reserved": "",
      "salt": "0x658825253d73f9b59113e1d8f7b4e3f3f58082711b916fc963e47209f3bbc74b",
      "assetIds": [
        "41506478881403507969696680653240014914910929820314476107906210059990541021189"
      ]
    },
    {
      "x": 193,
      "y": 182,
      "size": 1,
      "price": "4683000000000000000000",
      "reserved": "",
      "salt": "0xb5af7d138e438da3648211a26acc5b1b15871fc9366da7223228f06b0b643de2",
      "assetIds": [
        "41506478881403507969696680653240014914910929820314476107906210059990541021188"
      ]
    },
    {
      "x": 193,
      "y": 186,
      "size": 1,
      "price": "1011000000000000000000",
      "reserved": "",
      "salt": "0xb51b8125e9fde58f94ed4996f2b33870794a172d84d9d5e893fd070285dcb684",
      "assetIds": []
    },
    {
      "x": 193,
      "y": 187,
      "size": 1,
      "price": "1011000000000000000000",
      "reserved": "",
      "salt": "0xcb6cab0f3283fc67180753b954d0676f89b65a6303086326fd36ebc7c504269a",
      "assetIds": []
    },
    {
      "x": 193,
      "y": 188,
      "size": 1,
      "price": "1011000000000000000000",
      "reserved": "",
      "salt": "0x6a2ce05d93fbc9433aced8782bbe6ba25de91850238e55afb7d3b9f3550055a2",
      "assetIds": []
    },
    {
      "x": 193,
      "y": 189,
      "size": 1,
      "price": "4683000000000000000000",
      "reserved": "",
      "salt": "0xb4d5da3bf20011bb6bb279d860192b504b6fc656f21a96d32851091eb3bae7c0",
      "assetIds": [
        "41506478881403507969696680653240014914910929820314476107906210059990541021186"
      ]
    },
    {
      "x": 193,
      "y": 190,
      "size": 1,
      "price": "4683000000000000000000",
      "reserved": "",
      "salt": "0x811f120b168214369266bccd9b954a1efdf4bffc15b0e56c9d5f1aa15ea96f32",
      "assetIds": [
        "41506478881403507969696680653240014914910929820314476107906210059990541021188"
      ]
    },
    {
      "x": 193,
      "y": 191,
      "size": 1,
      "price": "4683000000000000000000",
      "reserved": "",
      "salt": "0x4c4dc23e6fb2e7fbaccdb005ab062e5d14b53dfe909a51e23dc63bdf5565efd1",
      "assetIds": [
        "41506478881403507969696680653240014914910929820314476107906210059990541021186"
      ]
    },
    {
      "x": 194,
      "y": 165,
      "size": 1,
      "price": "1011000000000000000000",
      "reserved": "",
      "salt": "0x8f45bd2c982f54722754b2fa4330c69c9ad05527b4445964de4d61cab267fae0",
      "assetIds": []
    },
    {
      "x": 194,
      "y": 166,
      "size": 1,
      "price": "1011000000000000000000",
      "reserved": "",
      "salt": "0x276c274c23ae8936da54caa704c02455b98d06e80560efd0e9414dac4781117a",
      "assetIds": []
    },
    {
      "x": 194,
      "y": 167,
      "size": 1,
      "price": "1011000000000000000000",
      "reserved": "",
      "salt": "0x5156d3ac4a748224f85d2db1a24286b76c623f0f8780bed448857334280d12e4",
      "assetIds": []
    },
    {
      "x": 194,
      "y": 174,
      "size": 1,
      "price": "1011000000000000000000",
      "reserved": "0x7a9fe22691c811ea339d9b73150e6911a5343dca",
      "salt": "0xfbfe1faeecabba4d829638872b0ae70a9a863f6774d8fedf80de6c0cf806c489",
      "assetIds": []
    },
    {
      "x": 194,
      "y": 175,
      "size": 1,
      "price": "4683000000000000000000",
      "reserved": "",
      "salt": "0xe0167a52ff6c7f43c55922954a346b5c96bb4cbd83110c2e4f58b4ccc370429b",
      "assetIds": [
        "41506478881403507969696680653240014914910929820314476107906210059990541021188"
      ]
    },
    {
      "x": 194,
      "y": 176,
      "size": 1,
      "price": "4683000000000000000000",
      "reserved": "",
      "salt": "0x44484c53ed351989e0fec7347edc1143bf6c3689b22a5067843a25726d58229b",
      "assetIds": [
        "41506478881403507969696680653240014914910929820314476107906210059990541021186"
      ]
    },
    {
      "x": 194,
      "y": 180,
      "size": 1,
      "price": "4683000000000000000000",
      "reserved": "",
      "salt": "0xfbed37da086cf64c8704641e6ffbca3e43db5e44fccace82d9c360652eb494e6",
      "assetIds": [
        "41506478881403507969696680653240014914910929820314476107906210059990541021186"
      ]
    },
    {
      "x": 194,
      "y": 181,
      "size": 1,
      "price": "4683000000000000000000",
      "reserved": "",
      "salt": "0x3f6bb1ed46ae1adaaf4ee19c2236ce9e94a22b83142d1b247fc36f1144508fdf",
      "assetIds": [
        "41506478881403507969696680653240014914910929820314476107906210059990541021186"
      ]
    },
    {
      "x": 194,
      "y": 182,
      "size": 1,
      "price": "1011000000000000000000",
      "reserved": "0x7a9fe22691c811ea339d9b73150e6911a5343dca",
      "salt": "0x65ab87cfbb0a61a73868826bfeb4e70b794b9841d4650ef12f373faba9f7e51b",
      "assetIds": []
    },
    {
      "x": 194,
      "y": 186,
      "size": 1,
      "price": "1011000000000000000000",
      "reserved": "",
      "salt": "0x6c1b923d3610dbbe354ddc4104602ea308351d144591abac7fcd08f54e73187f",
      "assetIds": []
    },
    {
      "x": 194,
      "y": 187,
      "size": 1,
      "price": "1011000000000000000000",
      "reserved": "",
      "salt": "0xbc515f1536a90177a17a2f12d7980101269cdc9697f58118746d40d566bed3d8",
      "assetIds": []
    },
    {
      "x": 194,
      "y": 188,
      "size": 1,
      "price": "1011000000000000000000",
      "reserved": "",
      "salt": "0x2b751476ad83c33ae58eb142d766032eb847e0a67cdc4537e1f90c76db33efe7",
      "assetIds": []
    },
    {
      "x": 194,
      "y": 189,
      "size": 1,
      "price": "4683000000000000000000",
      "reserved": "",
      "salt": "0x92dad8663bb480745a1000acddd48c30538dc24d28fe3827184e215e752faec1",
      "assetIds": [
        "41506478881403507969696680653240014914910929820314476107906210059990541021188"
      ]
    },
    {
      "x": 194,
      "y": 190,
      "size": 1,
      "price": "4683000000000000000000",
      "reserved": "",
      "salt": "0xccfd12eb2212577e55b122a5c4f5ebe1ea4f3b97664d862d299735654269e06d",
      "assetIds": [
        "41506478881403507969696680653240014914910929820314476107906210059990541021188"
      ]
    },
    {
      "x": 194,
      "y": 191,
      "size": 1,
      "price": "4683000000000000000000",
      "reserved": "",
      "salt": "0x0b371b7db17f53725a07c9e8ae525b00bd79f6a300334fe4dd7cbb001a1a632f",
      "assetIds": [
        "41506478881403507969696680653240014914910929820314476107906210059990541021189"
      ]
    },
    {
      "x": 195,
      "y": 165,
      "size": 1,
      "price": "1011000000000000000000",
      "reserved": "",
      "salt": "0xa09284e81fb3a6e9632deb1ba16cc07ea7e37bd1b5822d4b466de040559fd307",
      "assetIds": []
    },
    {
      "x": 195,
      "y": 166,
      "size": 1,
      "price": "1011000000000000000000",
      "reserved": "",
      "salt": "0xe7208c326abf75f6ff39cc7edb536b99c78744be7bd36431ab25fc1a83e1127d",
      "assetIds": []
    },
    {
      "x": 195,
      "y": 167,
      "size": 1,
      "price": "1011000000000000000000",
      "reserved": "",
      "salt": "0x19c80158719c995f672bbc80acff5c2e95741bb558224bb9a8f37a37adece36c",
      "assetIds": []
    },
    {
      "x": 195,
      "y": 174,
      "size": 1,
      "price": "1011000000000000000000",
      "reserved": "",
      "salt": "0x811122982ad61b370915cdeb8a332c77d4c409bc573f5ba71272b58e3a4b0805",
      "assetIds": []
    },
    {
      "x": 195,
      "y": 175,
      "size": 1,
      "price": "1011000000000000000000",
      "reserved": "",
      "salt": "0xbd18a62842bc3587aa11ab3edf978d331f9ed42ce28c19a56248969edb9bf426",
      "assetIds": []
    },
    {
      "x": 195,
      "y": 176,
      "size": 1,
      "price": "1011000000000000000000",
      "reserved": "",
      "salt": "0xf834ce877e6dcafdd56b0ba35aa191aab54693b3a5c437d1c85bf3f00866c4e1",
      "assetIds": []
    },
    {
      "x": 195,
      "y": 177,
      "size": 1,
      "price": "1011000000000000000000",
      "reserved": "",
      "salt": "0x9dedb5fde69d46146967fc17c25cf5f1cfc67e63ed2db500cc827bc91f732e2e",
      "assetIds": []
    },
    {
      "x": 195,
      "y": 178,
      "size": 1,
      "price": "1011000000000000000000",
      "reserved": "",
      "salt": "0x728d4c201b37a05b92e0f40919089a15854bc2d0189bcc9e4957435ffa4c1ed6",
      "assetIds": []
    },
    {
      "x": 195,
      "y": 179,
      "size": 1,
      "price": "1011000000000000000000",
      "reserved": "",
      "salt": "0x820e2e5473e4d03f2e7c1be131f77a13455e068ab918ecd870601570f4c173e3",
      "assetIds": []
    },
    {
      "x": 195,
      "y": 180,
      "size": 1,
      "price": "1011000000000000000000",
      "reserved": "",
      "salt": "0x7e53f23367066a78d2d14074a3f94334526954536331393b1d7faac6337b6397",
      "assetIds": []
    },
    {
      "x": 195,
      "y": 181,
      "size": 1,
      "price": "1011000000000000000000",
      "reserved": "",
      "salt": "0x9e61061efff53f930e9ab662784031a131f48718b4171648dfdb6fb12e83b893",
      "assetIds": []
    },
    {
      "x": 195,
      "y": 182,
      "size": 1,
      "price": "1011000000000000000000",
      "reserved": "",
      "salt": "0x9c8962d2c53fd05dd64e98fd39287712380e99e216ec96978452fc055158373d",
      "assetIds": []
    },
    {
      "x": 195,
      "y": 183,
      "size": 1,
      "price": "1011000000000000000000",
      "reserved": "",
      "salt": "0x9395dd77d64a7c3333d98cc3ace35ccbe42b50fe87f7126cbf774f30548872af",
      "assetIds": []
    },
    {
      "x": 195,
      "y": 184,
      "size": 1,
      "price": "1011000000000000000000",
      "reserved": "",
      "salt": "0x01cc0953aece436310875633bc598c8e92df7b695b6ad772a9a345456988df0e",
      "assetIds": []
    },
    {
      "x": 195,
      "y": 185,
      "size": 1,
      "price": "1011000000000000000000",
      "reserved": "",
      "salt": "0x86056492fe856e89e5f5605b1f46aab2c55c524d47c4391d129047f5b1cbed22",
      "assetIds": []
    },
    {
      "x": 195,
      "y": 186,
      "size": 1,
      "price": "1011000000000000000000",
      "reserved": "",
      "salt": "0xab3061d894d4d01bdcdb3dfe002710d30530a53d51ef888117ee2f4de7674107",
      "assetIds": []
    },
    {
      "x": 195,
      "y": 187,
      "size": 1,
      "price": "1011000000000000000000",
      "reserved": "",
      "salt": "0xca3a1cbca316e8d1877fc3a6038f49ecf45e737404bb69384e9458f806f8e333",
      "assetIds": []
    },
    {
      "x": 195,
      "y": 188,
      "size": 1,
      "price": "1011000000000000000000",
      "reserved": "",
      "salt": "0x49896fc4ffb12c41a90e924267bc773e8b01fe00524872cbabc6d245335477ba",
      "assetIds": []
    },
    {
      "x": 195,
      "y": 189,
      "size": 1,
      "price": "4683000000000000000000",
      "reserved": "",
      "salt": "0x47ac88e461420bc667a74101a8661137f6eb3123f0a223fae581c391830879b4",
      "assetIds": [
        "41506478881403507969696680653240014914910929820314476107906210059990541021186"
      ]
    },
    {
      "x": 195,
      "y": 190,
      "size": 1,
      "price": "4683000000000000000000",
      "reserved": "",
      "salt": "0x985d67ef69e0d925cf2f5c726d20734f3945b55f79a70467e09a980db829e011",
      "assetIds": [
        "41506478881403507969696680653240014914910929820314476107906210059990541021186"
      ]
    },
    {
      "x": 195,
      "y": 191,
      "size": 1,
      "price": "4683000000000000000000",
      "reserved": "",
      "salt": "0x6591bef3caa61bec3c5d27b1ced24aa7ad9ee19c9db5591a5cfdae5a3ddd18db",
      "assetIds": [
        "41506478881403507969696680653240014914910929820314476107906210059990541021188"
      ]
    },
    {
      "x": 196,
      "y": 165,
      "size": 1,
      "price": "1011000000000000000000",
      "reserved": "",
      "salt": "0xaa0bde781a7dce5290bcd539829942a6b29709e0d0e0ec49aac362e44174b456",
      "assetIds": []
    },
    {
      "x": 196,
      "y": 166,
      "size": 1,
      "price": "1011000000000000000000",
      "reserved": "0x7a9fe22691c811ea339d9b73150e6911a5343dca",
      "salt": "0x963d40ab5e8678b6f859ac32a8abcc1fd4dbc3f13b8ca027f6ef261e8864757c",
      "assetIds": []
    },
    {
      "x": 196,
      "y": 167,
      "size": 1,
      "price": "1011000000000000000000",
      "reserved": "",
      "salt": "0xaecd534576683460c2a7ef28a7542de135f188252ea755a33162c8621d1e066e",
      "assetIds": []
    },
    {
      "x": 196,
      "y": 174,
      "size": 1,
      "price": "1011000000000000000000",
      "reserved": "",
      "salt": "0xf1b3312e9fd2e846d4be89509314a0f725098b4e0c5000fcc185be05611c31e4",
      "assetIds": []
    },
    {
      "x": 196,
      "y": 175,
      "size": 1,
      "price": "1011000000000000000000",
      "reserved": "",
      "salt": "0xbe9520c531f67ce378893f00e827296530a477e8e74e20ddf19814bff84c9c7b",
      "assetIds": []
    },
    {
      "x": 196,
      "y": 176,
      "size": 1,
      "price": "1011000000000000000000",
      "reserved": "",
      "salt": "0x85ec6cc84c58598478668f6be67146beda6c6ba54c5a20d3ab5f791fdd4c0119",
      "assetIds": []
    },
    {
      "x": 196,
      "y": 177,
      "size": 1,
      "price": "1011000000000000000000",
      "reserved": "",
      "salt": "0xf7a46b8af1f3a5c106e7fa3d9097dda12b5382bea38d9cc0baf8cfc759b7ac99",
      "assetIds": []
    },
    {
      "x": 196,
      "y": 178,
      "size": 1,
      "price": "1011000000000000000000",
      "reserved": "",
      "salt": "0x8349949c0d5c35ece1d9025069aa951b2968732b200f3409da9e7eadb4d21593",
      "assetIds": []
    },
    {
      "x": 196,
      "y": 179,
      "size": 1,
      "price": "1011000000000000000000",
      "reserved": "",
      "salt": "0x3cba940140cb1c9169e47bf0ec0da73b5c74fa32aa4f4617cd5d991c5fb01f97",
      "assetIds": []
    },
    {
      "x": 196,
      "y": 180,
      "size": 1,
      "price": "1011000000000000000000",
      "reserved": "",
      "salt": "0x723452935bf06ceed631bbaa70c5f504d9a156546c48bcbb8669d2a18d113510",
      "assetIds": []
    },
    {
      "x": 196,
      "y": 181,
      "size": 1,
      "price": "1011000000000000000000",
      "reserved": "",
      "salt": "0xec6e4a65698ba518c96112850d9f919e5350e7b53fdab7619ae141492a399bab",
      "assetIds": []
    },
    {
      "x": 196,
      "y": 182,
      "size": 1,
      "price": "1011000000000000000000",
      "reserved": "",
      "salt": "0x63b914aef2e56ce2210b8b5432026cd601be74b56ba0d33f1b1a47a51fe1cbe3",
      "assetIds": []
    },
    {
      "x": 196,
      "y": 183,
      "size": 1,
      "price": "1011000000000000000000",
      "reserved": "",
      "salt": "0xce8f5f0c6ef558aabdbf6166359510b85ce604c55721cde191f7293fc95e1cc1",
      "assetIds": []
    },
    {
      "x": 196,
      "y": 184,
      "size": 1,
      "price": "1011000000000000000000",
      "reserved": "",
      "salt": "0x89fad4d1555ee7e0ef5be1443ef13da2c8fa2022b10843e69c252d350e357215",
      "assetIds": []
    },
    {
      "x": 196,
      "y": 185,
      "size": 1,
      "price": "1011000000000000000000",
      "reserved": "",
      "salt": "0x047be3bb58c1421e2d96bff311e8fa619d4d8697b15398ac890e03c07b924071",
      "assetIds": []
    },
    {
      "x": 196,
      "y": 186,
      "size": 1,
      "price": "1011000000000000000000",
      "reserved": "",
      "salt": "0x7e3d5a1af888dff8356ae60a4b425cdc9759d9f85b7aa44afd990d0454d9bab0",
      "assetIds": []
    },
    {
      "x": 196,
      "y": 187,
      "size": 1,
      "price": "1011000000000000000000",
      "reserved": "",
      "salt": "0xbcd191ddba9badc9a6d25631eee20f74fc6796dc61695b883f31c56cf0af30d2",
      "assetIds": []
    },
    {
      "x": 196,
      "y": 188,
      "size": 1,
      "price": "1011000000000000000000",
      "reserved": "",
      "salt": "0x66d19c4440f0f71c750dfdb391fde96849c036cad8efdaec00b1593dd0b3f634",
      "assetIds": []
    },
    {
      "x": 196,
      "y": 189,
      "size": 1,
      "price": "4683000000000000000000",
      "reserved": "",
      "salt": "0x9dc0ade9e51ef21f5e5f07b8939d5650b28f4fee0069722213cc3f745e1b56e5",
      "assetIds": [
        "41506478881403507969696680653240014914910929820314476107906210059990541021189"
      ]
    },
    {
      "x": 196,
      "y": 190,
      "size": 1,
      "price": "4683000000000000000000",
      "reserved": "",
      "salt": "0x0e179126bbea0114529abcf203246e134823b1d4464e0555ab172d3355ea0376",
      "assetIds": [
        "41506478881403507969696680653240014914910929820314476107906210059990541021186"
      ]
    },
    {
      "x": 196,
      "y": 191,
      "size": 1,
      "price": "4683000000000000000000",
      "reserved": "",
      "salt": "0x6ef0110c6154b3fa8de6e94556db3ae0a2ef224b50711be7055dce9233b928a8",
      "assetIds": [
        "41506478881403507969696680653240014914910929820314476107906210059990541021188"
      ]
    },
    {
      "x": 197,
      "y": 165,
      "size": 1,
      "price": "1011000000000000000000",
      "reserved": "",
      "salt": "0x0e85897bee65d097ae501e41acc23f082bee43daccf6fbb33b6a2d4adedad6b7",
      "assetIds": []
    },
    {
      "x": 197,
      "y": 166,
      "size": 1,
      "price": "1011000000000000000000",
      "reserved": "",
      "salt": "0x7070106ae571667b1bd31f41c43fc7d2373ec2a4ede00dea3bd80d4dc42cf1fd",
      "assetIds": []
    },
    {
      "x": 197,
      "y": 167,
      "size": 1,
      "price": "1011000000000000000000",
      "reserved": "",
      "salt": "0x2362cc8dede26a936e1a3f727542f9148b8cb415e4f3ed11718f95849beed7bf",
      "assetIds": []
    },
    {
      "x": 197,
      "y": 174,
      "size": 1,
      "price": "1011000000000000000000",
      "reserved": "",
      "salt": "0x8806865364bcc499f59ea13f19c170407c08ff7a0b2e3bde29cfcc373f407f93",
      "assetIds": []
    },
    {
      "x": 197,
      "y": 175,
      "size": 1,
      "price": "1011000000000000000000",
      "reserved": "",
      "salt": "0xa49e2dae410174b71059bbee07ee954a2f5063c51aa7fd447280571d81a24ef0",
      "assetIds": []
    },
    {
      "x": 197,
      "y": 176,
      "size": 1,
      "price": "1011000000000000000000",
      "reserved": "",
      "salt": "0x529de5e1f818673d884c313f8ca5311bcaa7e895d679a984f33162a427dfaff6",
      "assetIds": []
    },
    {
      "x": 197,
      "y": 177,
      "size": 1,
      "price": "1011000000000000000000",
      "reserved": "",
      "salt": "0x7ec756d996279b5b989a85c1314a7ac12ce94fb25c2085890021b43a0e3977c8",
      "assetIds": []
    },
    {
      "x": 197,
      "y": 178,
      "size": 1,
      "price": "1011000000000000000000",
      "reserved": "",
      "salt": "0xd00c9ecd24bb29bd1148fce54b7d433b58eaa858a669a8362bd74d6b26b00e3f",
      "assetIds": []
    },
    {
      "x": 197,
      "y": 179,
      "size": 1,
      "price": "1011000000000000000000",
      "reserved": "",
      "salt": "0xe17199405e5097e2014e8c6d1cf7f3182db7ac921d1e5299d377b19d5a31edde",
      "assetIds": []
    },
    {
      "x": 197,
      "y": 180,
      "size": 1,
      "price": "1011000000000000000000",
      "reserved": "",
      "salt": "0x660d4cccb9ae4cba0b751f0c69b4ae71ad671e349f34e9fd2a161f763cfbc455",
      "assetIds": []
    },
    {
      "x": 197,
      "y": 181,
      "size": 1,
      "price": "1011000000000000000000",
      "reserved": "",
      "salt": "0xaa4ce3d3749d2aa84e83f1af3473fae279b9dcc2318b37defa179debab1ad0a5",
      "assetIds": []
    },
    {
      "x": 197,
      "y": 182,
      "size": 1,
      "price": "1011000000000000000000",
      "reserved": "",
      "salt": "0x95891cc2b3d0fe5d0a06492e036f425af7c0e3e95890b4a9accf10a254815e55",
      "assetIds": []
    },
    {
      "x": 197,
      "y": 183,
      "size": 1,
      "price": "1011000000000000000000",
      "reserved": "",
      "salt": "0xb1f0a7fd08054c6cb7a7548fd1c787f8f7d0257bdeaa36010f9873ac3725fa3a",
      "assetIds": []
    },
    {
      "x": 197,
      "y": 184,
      "size": 1,
      "price": "1011000000000000000000",
      "reserved": "",
      "salt": "0xf6329e96979c25363b3e6a80860a9ca30efc40fd3cda521bb380846d388188c8",
      "assetIds": []
    },
    {
      "x": 197,
      "y": 185,
      "size": 1,
      "price": "1011000000000000000000",
      "reserved": "",
      "salt": "0xcd4e1a88f065639018219719497a225bcd707673534bc22284729a4d432c0359",
      "assetIds": []
    },
    {
      "x": 197,
      "y": 186,
      "size": 1,
      "price": "1011000000000000000000",
      "reserved": "",
      "salt": "0x1e2299e37ff0392093c1d221e3dba57818f4523e181752e6a79afedcc641aa0b",
      "assetIds": []
    },
    {
      "x": 197,
      "y": 187,
      "size": 1,
      "price": "1011000000000000000000",
      "reserved": "",
      "salt": "0x3549789962ec77c9fa0fd2e4e493e041dc79989d4e8cded1aadab2a16240b90c",
      "assetIds": []
    },
    {
      "x": 197,
      "y": 188,
      "size": 1,
      "price": "1011000000000000000000",
      "reserved": "",
      "salt": "0x23d807cd28e616db82f4240d01aa3de54c797eca788139adac9b2d0063c8fd73",
      "assetIds": []
    },
    {
      "x": 197,
      "y": 189,
      "size": 1,
      "price": "1011000000000000000000",
      "reserved": "0x7a9fe22691c811ea339d9b73150e6911a5343dca",
      "salt": "0x666ce8baecc81c46165a56dd92a694965701947ef11cc7c45265ee37507bfded",
      "assetIds": []
    },
    {
      "x": 197,
      "y": 190,
      "size": 1,
      "price": "4683000000000000000000",
      "reserved": "",
      "salt": "0xc3538cd5ad75a2fd2784a9dc52af53d0f63204f7dc030b827c036cb18cd3918a",
      "assetIds": [
        "41506478881403507969696680653240014914910929820314476107906210059990541021189"
      ]
    },
    {
      "x": 197,
      "y": 191,
      "size": 1,
      "price": "4683000000000000000000",
      "reserved": "",
      "salt": "0xd27345e466dc4f030dd8b1ec54e57d9d1e071fdf9ab64e183bfe23dfb81a23a0",
      "assetIds": [
        "41506478881403507969696680653240014914910929820314476107906210059990541021189"
      ]
    },
    {
      "x": 198,
      "y": 174,
      "size": 1,
      "price": "1011000000000000000000",
      "reserved": "",
      "salt": "0x1869be300d2cfd59775f9866334cc24e516a410df4f0141c46020887e73d9bdf",
      "assetIds": []
    },
    {
      "x": 198,
      "y": 175,
      "size": 1,
      "price": "1011000000000000000000",
      "reserved": "",
      "salt": "0x0ee00868b996982dc1538f0eb731bb488a573d4c416785c71af137760af1cde8",
      "assetIds": []
    },
    {
      "x": 198,
      "y": 176,
      "size": 1,
      "price": "1011000000000000000000",
      "reserved": "",
      "salt": "0xc3a5cb08f69e5efc7e9c2ac3c8c26b0a03bad1ff80346c0c5ff8ec8785b09870",
      "assetIds": []
    },
    {
      "x": 198,
      "y": 177,
      "size": 1,
      "price": "1011000000000000000000",
      "reserved": "",
      "salt": "0x1515bd17c1a24e5d090630c55034d3eb8e493fe6620b2c220051250bf4c42ad2",
      "assetIds": []
    },
    {
      "x": 198,
      "y": 178,
      "size": 1,
      "price": "1011000000000000000000",
      "reserved": "",
      "salt": "0x555872d625a96096ae484063b769962cf111fae8f7e1ccfb7b1c662ff41a79f9",
      "assetIds": []
    },
    {
      "x": 198,
      "y": 179,
      "size": 1,
      "price": "1011000000000000000000",
      "reserved": "",
      "salt": "0x2d3377757d275d6857957ab58e81381491614dda3c776cc592cc5a8d1b165e8e",
      "assetIds": []
    },
    {
      "x": 198,
      "y": 180,
      "size": 1,
      "price": "1011000000000000000000",
      "reserved": "",
      "salt": "0x64453e30b124fd83da83473eb5e96de4e1225e11870cd25b99feda1ea6465df4",
      "assetIds": []
    },
    {
      "x": 198,
      "y": 181,
      "size": 1,
      "price": "1011000000000000000000",
      "reserved": "",
      "salt": "0x4bb9afba6ddf7ef9e791372014b773312cf22c2d1d7600c0f2b9212a7da93c6b",
      "assetIds": []
    },
    {
      "x": 198,
      "y": 182,
      "size": 1,
      "price": "1011000000000000000000",
      "reserved": "",
      "salt": "0x187f9a29b2d278a36c69fb5e9559aad88ccbbdfed676fbc7a1e45935c62343aa",
      "assetIds": []
    },
    {
      "x": 198,
      "y": 183,
      "size": 1,
      "price": "1011000000000000000000",
      "reserved": "",
      "salt": "0x6898a57536cdf3fca123f7a6d8f92e09a22af2a264d1a2e6346cb81194acdad7",
      "assetIds": []
    },
    {
      "x": 198,
      "y": 184,
      "size": 1,
      "price": "1011000000000000000000",
      "reserved": "0x7a9fe22691c811ea339d9b73150e6911a5343dca",
      "salt": "0x5496ea5a817defd731e19946dffe1448ed1eed85dc4ad8c31527bf21a1d7717f",
      "assetIds": []
    },
    {
      "x": 198,
      "y": 185,
      "size": 1,
      "price": "1011000000000000000000",
      "reserved": "",
      "salt": "0x24b4d0689dd45070e5af41059ef9f7c051b324c4b546cd892daca2bd966f5e7d",
      "assetIds": []
    },
    {
      "x": 198,
      "y": 186,
      "size": 1,
      "price": "1011000000000000000000",
      "reserved": "",
      "salt": "0x0a9d9d24e5cf2e5d25cac7383242a9e3b9c899b1aa7acbd1934646e09af893a1",
      "assetIds": []
    },
    {
      "x": 198,
      "y": 187,
      "size": 1,
      "price": "1011000000000000000000",
      "reserved": "",
      "salt": "0xbaa9a67ede367af14aa97403a9b01ee406c7f6abfbc0b95849e9b78b963c1241",
      "assetIds": []
    },
    {
      "x": 198,
      "y": 188,
      "size": 1,
      "price": "1011000000000000000000",
      "reserved": "",
      "salt": "0x2a57b3511d1304ad36fbbda2f48c456fcee05873415201a85f6580332948a733",
      "assetIds": []
    },
    {
      "x": 198,
      "y": 189,
      "size": 1,
      "price": "4683000000000000000000",
      "reserved": "",
      "salt": "0x217aba30d19507e6a721ab6ba9803a85dd4994fcce8f4ea4a7280a3e38ad5222",
      "assetIds": [
        "41506478881403507969696680653240014914910929820314476107906210059990541021189"
      ]
    },
    {
      "x": 198,
      "y": 190,
      "size": 1,
      "price": "4683000000000000000000",
      "reserved": "",
      "salt": "0x425048be6c6f4f70e7de8bb408585c130fcbc84146551607a1e6ee48c55277cf",
      "assetIds": [
        "41506478881403507969696680653240014914910929820314476107906210059990541021186"
      ]
    },
    {
      "x": 198,
      "y": 191,
      "size": 1,
      "price": "4683000000000000000000",
      "reserved": "",
      "salt": "0xe74cb53054acc7565964e6c4681048936efc65adee50baee3c7ace3c9ed73aae",
      "assetIds": [
        "41506478881403507969696680653240014914910929820314476107906210059990541021186"
      ]
    },
    {
      "x": 199,
      "y": 174,
      "size": 1,
      "price": "1011000000000000000000",
      "reserved": "",
      "salt": "0x0017adc9f0c9a3bd058d5c3e4dff4ba447953feac9171d568172a3cc9e30056d",
      "assetIds": []
    },
    {
      "x": 199,
      "y": 175,
      "size": 1,
      "price": "1011000000000000000000",
      "reserved": "",
      "salt": "0xd85c11ca0b36e15fc76be4885d4650b04bcfddd42f30ff39003543c3b2052c47",
      "assetIds": []
    },
    {
      "x": 199,
      "y": 176,
      "size": 1,
      "price": "1011000000000000000000",
      "reserved": "0x7a9fe22691c811ea339d9b73150e6911a5343dca",
      "salt": "0x0ef6b27e16dab913f81b7929a2b91baafad4e9ccdf6bd7bfb1173ad6dd18df2b",
      "assetIds": []
    },
    {
      "x": 199,
      "y": 177,
      "size": 1,
      "price": "1011000000000000000000",
      "reserved": "",
      "salt": "0x8aafda73c133f09cfec0c861097db03595dc0c47c0aaadced21da268c4615523",
      "assetIds": []
    },
    {
      "x": 199,
      "y": 178,
      "size": 1,
      "price": "1011000000000000000000",
      "reserved": "",
      "salt": "0x48ec956f64eec63b2c14870d366339f24990d58ad42d71b7213766f83db8ea14",
      "assetIds": []
    },
    {
      "x": 199,
      "y": 179,
      "size": 1,
      "price": "1011000000000000000000",
      "reserved": "",
      "salt": "0xe721c4f9a0e083d452a23952a6db7aa131ddccea49d51d2882a8ff7034d3e4cf",
      "assetIds": []
    },
    {
      "x": 199,
      "y": 180,
      "size": 1,
      "price": "1011000000000000000000",
      "reserved": "",
      "salt": "0x31f783f97abdf2b9a11915a2d688c8284ad4e24c0c78d6c18256479a25c91246",
      "assetIds": []
    },
    {
      "x": 199,
      "y": 181,
      "size": 1,
      "price": "1011000000000000000000",
      "reserved": "0x7a9fe22691c811ea339d9b73150e6911a5343dca",
      "salt": "0xaf7429c18fd2ecbbc8021c5796c606b52bb89242997a865bc95ad1ab5de92b44",
      "assetIds": []
    },
    {
      "x": 199,
      "y": 182,
      "size": 1,
      "price": "1011000000000000000000",
      "reserved": "",
      "salt": "0x385058abc4208d03c5eac5f812bd849995eba8e01a905edeb386d30ae4385dd8",
      "assetIds": []
    },
    {
      "x": 199,
      "y": 183,
      "size": 1,
      "price": "1011000000000000000000",
      "reserved": "",
      "salt": "0x73992e1cd7bd0116848338cd06b3dd58e898361b3a694f864af4acb8c3e8c82b",
      "assetIds": []
    },
    {
      "x": 199,
      "y": 184,
      "size": 1,
      "price": "1011000000000000000000",
      "reserved": "",
      "salt": "0xfcf2248aea7ddeb4899bbf7c123574745780309b5c97aa6027c8fddc2f1633e5",
      "assetIds": []
    },
    {
      "x": 199,
      "y": 185,
      "size": 1,
      "price": "1011000000000000000000",
      "reserved": "",
      "salt": "0x6aed056f38306a38a8cb4b1bcee9f830ebc2067e96a94a4de483d3aa61ec14b9",
      "assetIds": []
    },
    {
      "x": 199,
      "y": 186,
      "size": 1,
      "price": "1011000000000000000000",
      "reserved": "0x7a9fe22691c811ea339d9b73150e6911a5343dca",
      "salt": "0x18ad7630b41563fb148eea1f99fecc4cec4097e13ba9282810819abd6e3f6569",
      "assetIds": []
    },
    {
      "x": 199,
      "y": 187,
      "size": 1,
      "price": "1011000000000000000000",
      "reserved": "",
      "salt": "0x0944c7c245f7bec5991dd288e2b93dd7fc67af47dc90f224d17141d68801301d",
      "assetIds": []
    },
    {
      "x": 199,
      "y": 188,
      "size": 1,
      "price": "1011000000000000000000",
      "reserved": "",
      "salt": "0x6517c58114baa7b21177b2679bffddc740eda3947ba8a8ad89ad575b5a5d9d79",
      "assetIds": []
    },
    {
      "x": 199,
      "y": 189,
      "size": 1,
      "price": "4683000000000000000000",
      "reserved": "",
      "salt": "0xb5d72325efefa0f0b094ef92e719e7296cb490f108455f0371083bf95533d53d",
      "assetIds": [
        "41506478881403507969696680653240014914910929820314476107906210059990541021189"
      ]
    },
    {
      "x": 199,
      "y": 190,
      "size": 1,
      "price": "4683000000000000000000",
      "reserved": "",
      "salt": "0xee8538fc976cda5a6b18d39b97406a44a99dee09bca963a39661832815da6d6e",
      "assetIds": [
        "41506478881403507969696680653240014914910929820314476107906210059990541021186"
      ]
    },
    {
      "x": 199,
      "y": 191,
      "size": 1,
      "price": "4683000000000000000000",
      "reserved": "",
      "salt": "0x8d404fcca090e0ad4986ae3e42c890ccfba475789e4ed7bb1ae1c7b8eafe1d49",
      "assetIds": [
        "41506478881403507969696680653240014914910929820314476107906210059990541021189"
      ]
    },
    {
      "x": 200,
      "y": 182,
      "size": 1,
      "price": "1011000000000000000000",
      "reserved": "",
      "salt": "0xbaf64104b61e967add785c4ff316be06bc7fb37bb533365454fcf933ba45e503",
      "assetIds": []
    },
    {
      "x": 200,
      "y": 183,
      "size": 1,
      "price": "1011000000000000000000",
      "reserved": "",
      "salt": "0xe584847b0a7eadf383ae8f9d1effe75d978b8b3ca808367d385550bb29d57d40",
      "assetIds": []
    },
    {
      "x": 200,
      "y": 184,
      "size": 1,
      "price": "1011000000000000000000",
      "reserved": "",
      "salt": "0x0dd081e4a59ac6419395a17e15de803e34ffdd7da163dca356cd0092b69a0fe5",
      "assetIds": []
    },
    {
      "x": 200,
      "y": 185,
      "size": 1,
      "price": "1011000000000000000000",
      "reserved": "",
      "salt": "0x9049969db71f6e5b077bf04afc985efd43584fed2c934d4b3c1a8d024f14c5f2",
      "assetIds": []
    },
    {
      "x": 200,
      "y": 186,
      "size": 1,
      "price": "1011000000000000000000",
      "reserved": "",
      "salt": "0xef98bdd7399487d32a272699fb467db2231e4eac2a9df1840655c4972198e3a0",
      "assetIds": []
    },
    {
      "x": 200,
      "y": 187,
      "size": 1,
      "price": "1011000000000000000000",
      "reserved": "",
      "salt": "0x3b03ef7cc661ea45189f2f5ccd4e88beadd03ea937a338243ecbe9645af75364",
      "assetIds": []
    },
    {
      "x": 200,
      "y": 188,
      "size": 1,
      "price": "1011000000000000000000",
      "reserved": "",
      "salt": "0x28fd8a73d704fb5666bffe776a3dc87432e66aabca0a1052b4ad351dcdc4d43c",
      "assetIds": []
    },
    {
      "x": 200,
      "y": 189,
      "size": 1,
      "price": "4683000000000000000000",
      "reserved": "",
      "salt": "0x824da65f46c99943ae2fa91e559d02e07b0aee60cb012983fc251654cd8411e6",
      "assetIds": [
        "41506478881403507969696680653240014914910929820314476107906210059990541021189"
      ]
    },
    {
      "x": 200,
      "y": 190,
      "size": 1,
      "price": "4683000000000000000000",
      "reserved": "",
      "salt": "0xcbb16c6febd8ec73c98ccd91d339b3bab6be33eb6245a3e109b7bf380cfcef5a",
      "assetIds": [
        "41506478881403507969696680653240014914910929820314476107906210059990541021189"
      ]
    },
    {
      "x": 200,
      "y": 191,
      "size": 1,
      "price": "4683000000000000000000",
      "reserved": "",
      "salt": "0x837b7bee8149a0dcb1d61042c40f58ceeb835baaff72f8c629bbf4cc494aeb60",
      "assetIds": [
        "41506478881403507969696680653240014914910929820314476107906210059990541021189"
      ]
    },
    {
      "x": 183,
      "y": 192,
      "size": 3,
      "price": "8648000000000000000000",
      "reserved": "0x7a9fe22691c811ea339d9b73150e6911a5343dca",
      "salt": "0x26b95fd262107e4a1df02e7e06902302ffc2c636caf551409a7248b61ce1fcf8",
      "assetIds": []
    },
    {
      "x": 186,
      "y": 183,
      "size": 3,
      "price": "8648000000000000000000",
      "reserved": "0x7a9fe22691c811ea339d9b73150e6911a5343dca",
      "salt": "0xf2e96ae81d0b7e137895dd31757e299065c2e66a39fc8c0715b65ba31b7f62de",
      "assetIds": []
    },
    {
      "x": 186,
      "y": 186,
      "size": 3,
      "price": "8648000000000000000000",
      "reserved": "0x7a9fe22691c811ea339d9b73150e6911a5343dca",
      "salt": "0x0674c2ce1285c5aca4730adc1a746f0730c4a882512e4a129d1a10294689a787",
      "assetIds": []
    },
    {
      "x": 186,
      "y": 195,
      "size": 3,
      "price": "8648000000000000000000",
      "reserved": "0x7a9fe22691c811ea339d9b73150e6911a5343dca",
      "salt": "0xf51f08ebe1d6a56b4cde2413feee8de41a9e65be61d1890c413c2a9f520e0dba",
      "assetIds": []
    },
    {
      "x": 189,
      "y": 177,
      "size": 3,
      "price": "8648000000000000000000",
      "reserved": "0x7a9fe22691c811ea339d9b73150e6911a5343dca",
      "salt": "0xe862ccbf1c49cd987440fafa6cfb025703be13778babe791281e389008b62a7e",
      "assetIds": []
    },
    {
      "x": 189,
      "y": 195,
      "size": 3,
      "price": "8648000000000000000000",
      "reserved": "0x7a9fe22691c811ea339d9b73150e6911a5343dca",
      "salt": "0xc7b0e514c3972ac42d91687ec38350ded14eeae6f4d56679deb6337894aa13ff",
      "assetIds": []
    },
    {
      "x": 192,
      "y": 177,
      "size": 3,
      "price": "8648000000000000000000",
      "reserved": "0x7a9fe22691c811ea339d9b73150e6911a5343dca",
      "salt": "0xf6dc459d5c62fd5e80143833c7763db4e54bd5cd6e363c02baedcf1e341f8423",
      "assetIds": []
    },
    {
      "x": 192,
      "y": 183,
      "size": 3,
      "price": "8648000000000000000000",
      "reserved": "0x7a9fe22691c811ea339d9b73150e6911a5343dca",
      "salt": "0x74dbfedeb7b939745990ace6dbc7f19d5058e1c18c492e8c0ffaec573592046f",
      "assetIds": []
    },
    {
      "x": 162,
      "y": 192,
      "size": 6,
      "price": "32772000000000000000000",
      "reserved": "0x7a9fe22691c811ea339d9b73150e6911a5343dca",
      "salt": "0x8bab0e9ead2294313cf49dc5b50a543a276c418e941d37ae04c156e2565ec09c",
      "assetIds": []
    },
    {
      "x": 174,
      "y": 174,
      "size": 6,
      "price": "32772000000000000000000",
      "reserved": "0x7a9fe22691c811ea339d9b73150e6911a5343dca",
      "salt": "0xfeb83b0db6cd071c005aa593beff2ee4d84c33c9702f4ed20dbebdbaa9fc7439",
      "assetIds": []
    },
    {
      "x": 180,
      "y": 180,
      "size": 6,
      "price": "32772000000000000000000",
      "reserved": "0x7a9fe22691c811ea339d9b73150e6911a5343dca",
      "salt": "0xfeee6d80c3758c37015b0f0c189d75e74d99c2b27929f6139a697470b2918ba8",
      "assetIds": []
    },
    {
      "x": 192,
      "y": 168,
      "size": 6,
      "price": "32772000000000000000000",
      "reserved": "0x7a9fe22691c811ea339d9b73150e6911a5343dca",
      "salt": "0xe0225e92dcf5bff25a0c1b346b6cb8981153e249c57ddb8ede67279796c0a1d4",
      "assetIds": []
    },
    {
      "x": 168,
      "y": 180,
      "size": 12,
      "price": "123806000000000000000000",
      "reserved": "0x7a9fe22691c811ea339d9b73150e6911a5343dca",
      "salt": "0x610e57ffa7862afc1ba2f2be6cfbb01d99ece959e2c9e1cfff3bdb1e85938791",
      "assetIds": []
    },
    {
      "x": 144,
      "y": 168,
      "size": 24,
      "price": "466102000000000000000000",
      "reserved": "0x7a9fe22691c811ea339d9b73150e6911a5343dca",
      "salt": "0x9235afa4fba1d4235e2464dce9ed41899c07456ae09867531912eba7d0b622c3",
      "assetIds": []
    }
  ],
  "solcInputHash": "ea3f750ed6a3f377b8756d8b7b11eedf",
  "bytecode": "0x610160604052620d2f006005556103e860075534801561001e57600080fd5b5060405161242e38038061242e833981810160405261018081101561004257600080fd5b50805160208201516040830151606080850151608086015160a08088015160c0808a015160e08b01516101008c01516101208d01516101408e0151610160909e0151600280546001600160a01b0319166001600160a01b03861617905560038390558d8b1b6001600160601b0319908116909852998c901b909616909352999a9899979895979496929590949391926100dc8a600161014a565b600680546001600160a01b03199081166001600160a01b039a8b1617909155610140979097526101209590955260008054909616979096169690961790935550606093841b6001600160601b031990811660e05292841b831660805290921b1661010052506101ae92505050565b6001600160a01b038216600081815260016020908152604091829020805460ff191685151590811790915582519384529083015280517fb21eb88b4e33b3f1281830a7178d74d8aa73220416215726b68ae23d539515cb9281900390910190a15050565b60805160601c60a05160601c60c05160601c60e05160601c6101005160601c61012051610140516121fb610233600039806109375280611d44525080610913528061139a525080611da45250806115d252806116f4525080610c50528061159c5280611dd852508061166152806116c5525080610dfa528061190852506121fb6000f3fe608060405234801561001057600080fd5b50600436106101515760003560e01c8063984d6252116100cd578063dc5074af11610081578063ecb255b511610066578063ecb255b514610857578063f23a6e6114610874578063f2e7b3811461090957610151565b8063dc5074af14610814578063e56f8a9e1461083a57610151565b8063bc197c81116100b2578063bc197c81146105d3578063c10a420814610735578063caed35001461080c57610151565b8063984d6252146104db578063b522ecff146105ad57610151565b80636e9960c3116101245780638a04af6a116101095780638a04af6a1461032a5780638a12b82f146103585780638f283970146104b557610151565b80636e9960c3146102fe57806377f1c3ac1461032257610151565b806325cb5bc014610156578063495906571461017057806358bc29441461017857806365194ce7146101a0575b600080fd5b61015e610911565b60408051918252519081900360200190f35b61015e610935565b61019e6004803603602081101561018e57600080fd5b50356001600160a01b0316610959565b005b610246600480360360208110156101b657600080fd5b8101906020810181356401000000008111156101d157600080fd5b8201836020820111156101e357600080fd5b8035906020019184600183028401116401000000008311171561020557600080fd5b91908080601f016020809104026020016040519081016040528093929190818152602001838380828437600092019190915250929550610a04945050505050565b6040518080602001866001600160a01b03166001600160a01b03168152602001856001600160a01b03166001600160a01b03168152602001848152602001838152602001828103825287818151815260200191508051906020019080838360005b838110156102bf5781810151838201526020016102a7565b50505050905090810190601f1680156102ec5780820380516001836020036101000a031916815260200191505b50965050505050505060405180910390f35b610306610b09565b604080516001600160a01b039092168252519081900360200190f35b61015e610b18565b61019e6004803603604081101561034057600080fd5b506001600160a01b0381351690602001351515610b1e565b61019e600480360361018081101561036f57600080fd5b6001600160a01b038235811692602081013582169260408201359092169160608201359160808101359160a08201359160c08101359160e0820135916101008101359181019061014081016101208201356401000000008111156103d257600080fd5b8201836020820111156103e457600080fd5b8035906020019184602083028401116401000000008311171561040657600080fd5b91939092909160208101903564010000000081111561042457600080fd5b82018360208201111561043657600080fd5b8035906020019184602083028401116401000000008311171561045857600080fd5b91939092909160208101903564010000000081111561047657600080fd5b82018360208201111561048857600080fd5b803590602001918460018302840111640100000000831117156104aa57600080fd5b509092509050610b75565b61019e600480360360208110156104cb57600080fd5b50356001600160a01b0316610cc3565b61019e600480360360608110156104f157600080fd5b6001600160a01b03823516919081019060408101602082013564010000000081111561051c57600080fd5b82018360208201111561052e57600080fd5b8035906020019184602083028401116401000000008311171561055057600080fd5b91939092909160208101903564010000000081111561056e57600080fd5b82018360208201111561058057600080fd5b803590602001918460208302840111640100000000831117156105a257600080fd5b509092509050610d99565b61019e600480360360208110156105c357600080fd5b50356001600160a01b0316610f24565b610700600480360360a08110156105e957600080fd5b6001600160a01b03823581169260208101359091169181019060608101604082013564010000000081111561061d57600080fd5b82018360208201111561062f57600080fd5b8035906020019184602083028401116401000000008311171561065157600080fd5b91939092909160208101903564010000000081111561066f57600080fd5b82018360208201111561068157600080fd5b803590602001918460208302840111640100000000831117156106a357600080fd5b9193909290916020810190356401000000008111156106c157600080fd5b8201836020820111156106d357600080fd5b803590602001918460018302840111640100000000831117156106f557600080fd5b50909250905061100d565b604080517fffffffff000000000000000000000000000000000000000000000000000000009092168252519081900360200190f35b6107f8600480360360a081101561074b57600080fd5b81019060208101813564010000000081111561076657600080fd5b82018360208201111561077857600080fd5b8035906020019184600183028401116401000000008311171561079a57600080fd5b91908080601f016020809104026020016040519081016040528093929190818152602001838380828437600092019190915250929550506001600160a01b03833581169450602084013516926040810135925060600135905061103a565b604080519115158252519081900360200190f35b610306611176565b6107f86004803603602081101561082a57600080fd5b50356001600160a01b0316611185565b61019e6004803603602081101561085057600080fd5b50356111a3565b61019e6004803603602081101561086d57600080fd5b5035611207565b610700600480360360a081101561088a57600080fd5b6001600160a01b03823581169260208101359091169160408201359160608101359181019060a0810160808201356401000000008111156108ca57600080fd5b8201836020820111156108dc57600080fd5b803590602001918460018302840111640100000000831117156108fe57600080fd5b50909250905061126b565b61015e611296565b7f000000000000000000000000000000000000000000000000000000000000000090565b7f000000000000000000000000000000000000000000000000000000000000000090565b6000546001600160a01b031633146109b8576040805162461bcd60e51b815260206004820152601060248201527f53656e646572206e6f742061646d696e00000000000000000000000000000000604482015290519081900360640190fd5b600554600280546001600160a01b03908116600090815260046020526040902042909301909255805473ffffffffffffffffffffffffffffffffffffffff191692909116919091179055565b606060008060008060606000806000808a80602001905160a0811015610a2957600080fd5b8101908080516040519392919084640100000000821115610a4957600080fd5b908301906020820185811115610a5e57600080fd5b8251640100000000811182820188101715610a7857600080fd5b82525081516020918201929091019080838360005b83811015610aa5578181015183820152602001610a8d565b50505050905090810190601f168015610ad25780820380516001836020036101000a031916815260200191505b5060409081526020820151908201516060830151608090930151959f50909d509b5099509197505050505050505091939590929450565b6000546001600160a01b031690565b60035490565b6000546001600160a01b03163314610b675760405162461bcd60e51b815260040180806020018281038252602e815260200180612198602e913960400191505060405180910390fd5b610b71828261129c565b5050565b610b7f898961131e565b610c048f8e8e8e8e8e8d8d8d80806020026020016040519081016040528093929190818152602001838360200280828437600081840152601f19601f820116905080830192505050505050508c8c8080602002602001604051908101604052809392919081815260200183836020028082843760009201919091525061139892505050565b610c458f8984848080601f01602080910402602001604051908101604052809392919081815260200183838082843760009201919091525061157592505050565b610c758f8f8e8e8e8d7f00000000000000000000000000000000000000000000000000000000000000008f6115c6565b610cb28e87878080602002602001604051908101604052809392919081815260200183836020028082843760009201919091525061189192505050565b505050505050505050505050505050565b6000546001600160a01b03163314610d22576040805162461bcd60e51b815260206004820152601b60248201527f6f6e6c792061646d696e2063616e206368616e67652061646d696e0000000000604482015290519081900360640190fd5b600054604080516001600160a01b039283168152918316602083015280517f7e644d79422f17c01e4894b5f4f588d331ebfa28653d42ae832dc59e38c9798f9281900390910190a16000805473ffffffffffffffffffffffffffffffffffffffff19166001600160a01b0392909216919091179055565b6000546001600160a01b03163314610df8576040805162461bcd60e51b815260206004820152600e60248201527f4e4f545f415554484f52495a4544000000000000000000000000000000000000604482015290519081900360640190fd5b7f00000000000000000000000000000000000000000000000000000000000000006001600160a01b0316632eb2c2d63087878787876040518763ffffffff1660e01b815260040180876001600160a01b03166001600160a01b03168152602001866001600160a01b03166001600160a01b031681526020018060200180602001806020018481038452888882818152602001925060200280828437600083820152601f01601f19169091018581038452868152602090810191508790870280828437600081840152601f19601f8201169050808301925050508481038252600081526020016020019950505050505050505050600060405180830381600087803b158015610f0557600080fd5b505af1158015610f19573d6000803e3d6000fd5b505050505050505050565b6001600160a01b038116610f7f576040805162461bcd60e51b815260206004820152600c60248201527f5a45524f5f414444524553530000000000000000000000000000000000000000604482015290519081900360640190fd5b6000546001600160a01b03163314610fde576040805162461bcd60e51b815260206004820152600e60248201527f4e4f545f415554484f52495a4544000000000000000000000000000000000000604482015290519081900360640190fd5b6006805473ffffffffffffffffffffffffffffffffffffffff19166001600160a01b0392909216919091179055565b7fbc197c810000000000000000000000000000000000000000000000000000000098975050505050505050565b600060035482118061105d5750836001600160a01b0316856001600160a01b0316145b8061106757508242115b156110745750600061116d565b60408051606087811b7fffffffffffffffffffffffffffffffffffffffff0000000000000000000000009081166020808501919091529188901b166034830152604882018690526068808301869052835180840390910181526088830184528051908201207f19457468657265756d205369676e6564204d6573736167653a0a33320000000060a884015260c48084018290528451808503909101815260e4909301909352815191012060009061112b9089611a55565b6001600160a01b03811660009081526004602052604090205490915042116111585760019250505061116d565b6002546001600160a01b039081169116149150505b95945050505050565b6002546001600160a01b031690565b6001600160a01b031660009081526001602052604090205460ff1690565b6000546001600160a01b03163314611202576040805162461bcd60e51b815260206004820152601060248201527f53656e646572206e6f742061646d696e00000000000000000000000000000000604482015290519081900360640190fd5b600355565b6000546001600160a01b03163314611266576040805162461bcd60e51b815260206004820152600e60248201527f4e4f545f415554484f52495a4544000000000000000000000000000000000000604482015290519081900360640190fd5b600755565b7ff23a6e61000000000000000000000000000000000000000000000000000000009695505050505050565b60075490565b6001600160a01b03821660008181526001602090815260409182902080547fffffffffffffffffffffffffffffffffffffffffffffffffffffffffffffff001685151590811790915582519384529083015280517fb21eb88b4e33b3f1281830a7178d74d8aa73220416215726b68ae23d539515cb9281900390910190a15050565b6113456103e861133960075485611b2290919063ffffffff16565b9063ffffffff611b9816565b8114610b71576040805162461bcd60e51b815260206004820152600d60248201527f494e56414c49445f505249434500000000000000000000000000000000000000604482015290519081900360640190fd5b7f0000000000000000000000000000000000000000000000000000000000000000421061140c576040805162461bcd60e51b815260206004820152600c60248201527f53414c455f49535f4f5645520000000000000000000000000000000000000000604482015290519081900360640190fd5b6001600160a01b03891633148061143257503360009081526001602052604090205460ff165b611483576040805162461bcd60e51b815260206004820152600e60248201527f4e4f545f415554484f52495a4544000000000000000000000000000000000000604482015290519081900360640190fd5b6001600160a01b03881615806114aa5750886001600160a01b0316886001600160a01b0316145b6114fb576040805162461bcd60e51b815260206004820152600d60248201527f52455345525645445f4c414e4400000000000000000000000000000000000000604482015290519081900360640190fd5b600061150c888888888d8989611bfd565b90506115188282611ca2565b611569576040805162461bcd60e51b815260206004820152600c60248201527f494e56414c49445f4c414e440000000000000000000000000000000000000000604482015290519081900360640190fd5b50505050505050505050565b60006115818484611d6b565b6006549091506115c0908590839085906001600160a01b03167f0000000000000000000000000000000000000000000000000000000000000000611eb8565b50505050565b83600114806115fc57507f00000000000000000000000000000000000000000000000000000000000000006001600160a01b0316155b156116c357604080517f6e1e3bbf0000000000000000000000000000000000000000000000000000000081526001600160a01b03898116600483015260248201879052604482018990526064820188905260a06084830152600060a4830181905292517f000000000000000000000000000000000000000000000000000000000000000090911692636e1e3bbf9260e4808201939182900301818387803b1580156116a657600080fd5b505af11580156116ba573d6000803e3d6000fd5b50505050611827565b7f00000000000000000000000000000000000000000000000000000000000000006001600160a01b0316636e1e3bbf7f00000000000000000000000000000000000000000000000000000000000000008689898c60405160200180826001600160a01b03166001600160a01b031681526020019150506040516020818303038152906040526040518663ffffffff1660e01b815260040180866001600160a01b03166001600160a01b0316815260200185815260200184815260200183815260200180602001828103825283818151815260200191508051906020019080838360005b838110156117be5781810151838201526020016117a6565b50505050905090810190601f1680156117eb5780820380516001836020036101000a031916815260200191505b509650505050505050600060405180830381600087803b15801561180e57600080fd5b505af1158015611822573d6000803e3d6000fd5b505050505b60408051858152602081018590526001600160a01b03848116828401526060820184905291516101988802890192808b1692908c16917fe4dfa6ac11314892f3029b34a25b1a887da3b1cab2bbf8506d87128ba6e3ac029181900360800190a45050505050505050565b6060815167ffffffffffffffff811180156118ab57600080fd5b506040519080825280602002602001820160405280156118d5578160200160208202803683370190505b50905060005b82518110156119055760018282815181106118f257fe5b60209081029190910101526001016118db565b507f00000000000000000000000000000000000000000000000000000000000000006001600160a01b0316632eb2c2d6308585856040518563ffffffff1660e01b815260040180856001600160a01b03166001600160a01b03168152602001846001600160a01b03166001600160a01b03168152602001806020018060200180602001848103845286818151815260200191508051906020019060200280838360005b838110156119c05781810151838201526020016119a8565b50505050905001848103835285818151815260200191508051906020019060200280838360005b838110156119ff5781810151838201526020016119e7565b50505050905001848103825260008152602001602001975050505050505050600060405180830381600087803b158015611a3857600080fd5b505af1158015611a4c573d6000803e3d6000fd5b50505050505050565b60008151604114611a6557600080fd5b60208201516040830151606084015160001a601b811015611a8457601b015b8060ff16601b1480611a9957508060ff16601c145b611aa257600080fd5b6040805160008152602080820180845289905260ff8416828401526060820186905260808201859052915160019260a0808401939192601f1981019281900390910190855afa158015611af9573d6000803e3d6000fd5b5050604051601f1901519450506001600160a01b038416611b1957600080fd5b50505092915050565b600082611b3157506000611b92565b5081810281838281611b3f57fe5b0414611b92576040805162461bcd60e51b815260206004820152600860248201527f6f766572666c6f77000000000000000000000000000000000000000000000000604482015290519081900360640190fd5b92915050565b600081611bec576040805162461bcd60e51b815260206004820152600960248201527f64697662797a65726f0000000000000000000000000000000000000000000000604482015290519081900360640190fd5b818381611bf557fe5b049392505050565b60008787878787878760405160200180888152602001878152602001868152602001858152602001846001600160a01b03166001600160a01b031660601b8152601401838152602001828051906020019060200280838360005b83811015611c6f578181015183820152602001611c57565b50505050905001975050505050505050604051602081830303815290604052805190602001209050979650505050505050565b600081815b8451811015611d41576000858281518110611cbe57fe5b6020026020010151905080831015611d065782816040516020018083815260200182815260200192505050604051602081830303815290604052805190602001209250611d38565b808360405160200180838152602001828152602001925050506040516020818303038152906040528051906020012092505b50600101611ca7565b507f0000000000000000000000000000000000000000000000000000000000000000149392505050565b600080611d84606461133985600563ffffffff611b2216565b604080516323b872dd60e01b81526001600160a01b0387811660048301527f0000000000000000000000000000000000000000000000000000000000000000811660248301526044820184905291519293507f0000000000000000000000000000000000000000000000000000000000000000909116916323b872dd916064808201926020929091908290030181600087803b158015611e2357600080fd5b505af1158015611e37573d6000803e3d6000fd5b505050506040513d6020811015611e4d57600080fd5b5051611ea0576040805162461bcd60e51b815260206004820152601360248201527f4645455f5452414e534645525f4641494c454400000000000000000000000000604482015290519081900360640190fd5b611eb0838263ffffffff61213a16565b949350505050565b82518190859015612062576060600080600080611ed48a610a04565b9398509196509450925090506000611eef868686868661103a565b15611f7d57611f09611f018d84611b22565b612710611b98565b9050886001600160a01b0316846001600160a01b0316866001600160a01b03167fac7a699eb95c3c6d390ec4626de17ef9a67b35891efdb197beba7c7fdd45fac48f858760405180848152602001838152602001828152602001935050505060405180910390a4611f7a878261213a565b96505b801561205b57604080516323b872dd60e01b81526001600160a01b038f811660048301528781166024830152604482018490529151918a16916323b872dd916064808201926020929091908290030181600087803b158015611fde57600080fd5b505af1158015611ff2573d6000803e3d6000fd5b505050506040513d602081101561200857600080fd5b505161205b576040805162461bcd60e51b815260206004820152601960248201527f636f6d6d6973696f6e207472616e73666572206661696c656400000000000000604482015290519081900360640190fd5b5050505050505b604080516323b872dd60e01b81526001600160a01b0389811660048301528681166024830152604482018490529151918416916323b872dd916064808201926020929091908290030181600087803b1580156120bd57600080fd5b505af11580156120d1573d6000803e3d6000fd5b505050506040513d60208110156120e757600080fd5b5051611a4c576040805162461bcd60e51b815260206004820152601760248201527f7061796d656e74207472616e73666572206661696c6564000000000000000000604482015290519081900360640190fd5b600082821115612191576040805162461bcd60e51b815260206004820152600860248201527f756e6465666c6f77000000000000000000000000000000000000000000000000604482015290519081900360640190fd5b5090039056fe6f6e6c792061646d696e2063616e207365747570206d6574615472616e73616374696f6e50726f636573736f7273a26469706673582212200ff38c5741c66b2a22a9a9ee2abe0f55626323082b6b4443921fd3b25484584a64736f6c63430006050033",
  "devdoc": {
    "methods": {
      "buyLandWithSand(address,address,address,uint256,uint256,uint256,uint256,uint256,bytes32,uint256[],bytes32[],bytes)": {
        "params": {
          "buyer": "address that perform the payment",
          "priceInSand": "price in SAND to purchase that Land",
          "proof": "merkleProof for that particular Land",
          "reserved": "the reserved address (if any)",
          "size": "size of the pack of Land to purchase",
          "to": "address that will own the purchased Land",
          "x": "x coordinate of the Land",
          "y": "y coordinate of the Land"
        }
      },
      "changeAdmin(address)": {
        "details": "change the administrator to be `newAdmin`.",
        "params": {
          "newAdmin": "address of the new administrator."
        }
      },
      "getAdmin()": {
        "details": "gives the current administrator of this contract.",
        "returns": {
          "_0": "the current administrator of this contract."
        }
      },
      "getSigningWallet()": {
        "details": "signing wallet authorized for referral",
        "returns": {
          "_0": "the address of the signing wallet"
        }
      },
      "isMetaTransactionProcessor(address)": {
        "details": "check whether address `who` is given meta-transaction execution rights.",
        "params": {
          "who": "The address to query."
        },
        "returns": {
          "_0": "whether the address has meta-transaction execution rights."
        }
      },
      "isReferralValid(bytes,address,address,uint256,uint256)": {
        "params": {
          "commissionRate": "The commissionRate of the referral",
          "expiryTime": "The expiry time of the referral",
          "referee": "The address of the referee",
          "referrer": "The address of the referrer",
          "signature": "The signature to check (signed referral)"
        },
        "returns": {
          "_0": "True if the referral is valid"
        }
      },
      "setMetaTransactionProcessor(address,bool)": {
        "details": "Enable or disable the ability of `metaTransactionProcessor` to perform meta-tx (metaTransactionProcessor rights).",
        "params": {
          "enabled": "set whether the metaTransactionProcessor is enabled or disabled.",
          "metaTransactionProcessor": "address that will be given/removed metaTransactionProcessor rights."
        }
      },
      "setReceivingWallet(address)": {
        "params": {
          "newWallet": "address of the new receiving wallet"
        }
      },
      "updateMaxCommissionRate(uint256)": {
        "details": "Update the maximum commission rate",
        "params": {
          "newMaxCommissionRate": "The new maximum commission rate"
        }
      },
      "updateSigningWallet(address)": {
        "details": "Update the signing wallet",
        "params": {
          "newSigningWallet": "The new address of the signing wallet"
        }
      },
      "withdrawAssets(address,uint256[],uint256[])": {
        "params": {
          "assetIds": "the assetIds to be transferred",
          "to": "intended recipient of the asset tokens",
          "values": "the quantities of the assetIds to be transferred"
        }
      }
    },
    "title": "Estate Sale contract with referral"
  },
  "userdoc": {
    "methods": {
      "buyLandWithSand(address,address,address,uint256,uint256,uint256,uint256,uint256,bytes32,uint256[],bytes32[],bytes)": {
        "notice": "buy Land with SAND using the merkle proof associated with it"
      },
      "getExpiryTime()": {
        "notice": "Gets the expiry time for the current sale"
      },
      "getMaxCommisionRate()": {
        "notice": "the max commision rate"
      },
      "getMerkleRoot()": {
        "notice": "Gets the Merkle root associated with the current sale"
      },
      "isReferralValid(bytes,address,address,uint256,uint256)": {
        "notice": "Check if a referral is valid"
      },
      "setReceivingWallet(address)": {
        "notice": "set the wallet receiving the proceeds"
      },
      "withdrawAssets(address,uint256[],uint256[])": {
        "notice": "enable Admin to withdraw remaining assets from EstateSaleWithFee contract"
      }
    },
    "notice": "This contract manages the sale of our lands as Estates"
  },
  "storageLayout": {
    "storage": [
      {
        "astId": 13640,
        "contract": "src/solc_0.6/EstateSale/EstateSaleWithFee.sol:EstateSaleWithFee",
        "label": "_admin",
        "offset": 0,
        "slot": "0",
        "type": "t_address"
      },
      {
        "astId": 13702,
        "contract": "src/solc_0.6/EstateSale/EstateSaleWithFee.sol:EstateSaleWithFee",
        "label": "_metaTransactionContracts",
        "offset": 0,
        "slot": "1",
        "type": "t_mapping(t_address,t_bool)"
      },
      {
        "astId": 11818,
        "contract": "src/solc_0.6/EstateSale/EstateSaleWithFee.sol:EstateSaleWithFee",
        "label": "_signingWallet",
        "offset": 0,
        "slot": "2",
        "type": "t_address"
      },
      {
        "astId": 11820,
        "contract": "src/solc_0.6/EstateSale/EstateSaleWithFee.sol:EstateSaleWithFee",
        "label": "_maxCommissionRate",
        "offset": 0,
        "slot": "3",
        "type": "t_uint256"
      },
      {
        "astId": 11824,
        "contract": "src/solc_0.6/EstateSale/EstateSaleWithFee.sol:EstateSaleWithFee",
        "label": "_previousSigningWallets",
        "offset": 0,
        "slot": "4",
        "type": "t_mapping(t_address,t_uint256)"
      },
      {
        "astId": 11833,
        "contract": "src/solc_0.6/EstateSale/EstateSaleWithFee.sol:EstateSaleWithFee",
        "label": "_previousSigningDelay",
        "offset": 0,
        "slot": "5",
        "type": "t_uint256"
      },
      {
        "astId": 8205,
        "contract": "src/solc_0.6/EstateSale/EstateSaleWithFee.sol:EstateSaleWithFee",
        "label": "_wallet",
        "offset": 0,
        "slot": "6",
        "type": "t_address_payable"
      },
      {
        "astId": 8215,
        "contract": "src/solc_0.6/EstateSale/EstateSaleWithFee.sol:EstateSaleWithFee",
        "label": "_multiplier",
        "offset": 0,
        "slot": "7",
        "type": "t_uint256"
      }
    ],
    "types": {
      "t_address": {
        "encoding": "inplace",
        "label": "address",
        "numberOfBytes": "20"
      },
      "t_address_payable": {
        "encoding": "inplace",
        "label": "address payable",
        "numberOfBytes": "20"
      },
      "t_bool": {
        "encoding": "inplace",
        "label": "bool",
        "numberOfBytes": "1"
      },
      "t_mapping(t_address,t_bool)": {
        "encoding": "mapping",
        "key": "t_address",
        "label": "mapping(address => bool)",
        "numberOfBytes": "32",
        "value": "t_bool"
      },
      "t_mapping(t_address,t_uint256)": {
        "encoding": "mapping",
        "key": "t_address",
        "label": "mapping(address => uint256)",
        "numberOfBytes": "32",
        "value": "t_uint256"
      },
      "t_uint256": {
        "encoding": "inplace",
        "label": "uint256",
        "numberOfBytes": "32"
      }
    }
  }
}