{
  "address": "0xBd05842459E1B2b1F54C5012A83B075328a2f196",
  "abi": [
    {
      "inputs": [
        {
          "internalType": "address",
          "name": "landAddress",
          "type": "address"
        },
        {
          "internalType": "address",
          "name": "sandContractAddress",
          "type": "address"
        },
        {
          "internalType": "address",
          "name": "initialMetaTx",
          "type": "address"
        },
        {
          "internalType": "address",
          "name": "admin",
          "type": "address"
        },
        {
          "internalType": "address payable",
          "name": "initialWalletAddress",
          "type": "address"
        },
        {
          "internalType": "bytes32",
          "name": "merkleRoot",
          "type": "bytes32"
        },
        {
          "internalType": "uint256",
          "name": "expiryTime",
          "type": "uint256"
        },
        {
          "internalType": "address",
          "name": "initialSigningWallet",
          "type": "address"
        },
        {
          "internalType": "uint256",
          "name": "initialMaxCommissionRate",
          "type": "uint256"
        },
        {
          "internalType": "address",
          "name": "estate",
          "type": "address"
        },
        {
          "internalType": "address",
          "name": "asset",
          "type": "address"
        },
        {
          "internalType": "address",
          "name": "feeDistributor",
          "type": "address"
        }
      ],
      "stateMutability": "nonpayable",
      "type": "constructor"
    },
    {
      "anonymous": false,
      "inputs": [
        {
          "indexed": false,
          "internalType": "address",
          "name": "oldAdmin",
          "type": "address"
        },
        {
          "indexed": false,
          "internalType": "address",
          "name": "newAdmin",
          "type": "address"
        }
      ],
      "name": "AdminChanged",
      "type": "event"
    },
    {
      "anonymous": false,
      "inputs": [
        {
          "indexed": true,
          "internalType": "address",
          "name": "buyer",
          "type": "address"
        },
        {
          "indexed": true,
          "internalType": "address",
          "name": "to",
          "type": "address"
        },
        {
          "indexed": true,
          "internalType": "uint256",
          "name": "topCornerId",
          "type": "uint256"
        },
        {
          "indexed": false,
          "internalType": "uint256",
          "name": "size",
          "type": "uint256"
        },
        {
          "indexed": false,
          "internalType": "uint256",
          "name": "price",
          "type": "uint256"
        },
        {
          "indexed": false,
          "internalType": "address",
          "name": "token",
          "type": "address"
        },
        {
          "indexed": false,
          "internalType": "uint256",
          "name": "amountPaid",
          "type": "uint256"
        }
      ],
      "name": "LandQuadPurchased",
      "type": "event"
    },
    {
      "anonymous": false,
      "inputs": [
        {
          "indexed": false,
          "internalType": "address",
          "name": "metaTransactionProcessor",
          "type": "address"
        },
        {
          "indexed": false,
          "internalType": "bool",
          "name": "enabled",
          "type": "bool"
        }
      ],
      "name": "MetaTransactionProcessor",
      "type": "event"
    },
    {
      "anonymous": false,
      "inputs": [
        {
          "indexed": true,
          "internalType": "address",
          "name": "referrer",
          "type": "address"
        },
        {
          "indexed": true,
          "internalType": "address",
          "name": "referee",
          "type": "address"
        },
        {
          "indexed": true,
          "internalType": "address",
          "name": "token",
          "type": "address"
        },
        {
          "indexed": false,
          "internalType": "uint256",
          "name": "amount",
          "type": "uint256"
        },
        {
          "indexed": false,
          "internalType": "uint256",
          "name": "commission",
          "type": "uint256"
        },
        {
          "indexed": false,
          "internalType": "uint256",
          "name": "commissionRate",
          "type": "uint256"
        }
      ],
      "name": "ReferralUsed",
      "type": "event"
    },
    {
      "inputs": [
        {
          "internalType": "address",
          "name": "buyer",
          "type": "address"
        },
        {
          "internalType": "address",
          "name": "to",
          "type": "address"
        },
        {
          "internalType": "address",
          "name": "reserved",
          "type": "address"
        },
        {
          "internalType": "uint256",
          "name": "x",
          "type": "uint256"
        },
        {
          "internalType": "uint256",
          "name": "y",
          "type": "uint256"
        },
        {
          "internalType": "uint256",
          "name": "size",
          "type": "uint256"
        },
        {
          "internalType": "uint256",
          "name": "priceInSand",
          "type": "uint256"
        },
        {
          "internalType": "uint256",
          "name": "adjustedPriceInSand",
          "type": "uint256"
        },
        {
          "internalType": "bytes32",
          "name": "salt",
          "type": "bytes32"
        },
        {
          "internalType": "uint256[]",
          "name": "assetIds",
          "type": "uint256[]"
        },
        {
          "internalType": "bytes32[]",
          "name": "proof",
          "type": "bytes32[]"
        },
        {
          "internalType": "bytes",
          "name": "referral",
          "type": "bytes"
        }
      ],
      "name": "buyLandWithSand",
      "outputs": [],
      "stateMutability": "nonpayable",
      "type": "function"
    },
    {
      "inputs": [
        {
          "internalType": "address",
          "name": "newAdmin",
          "type": "address"
        }
      ],
      "name": "changeAdmin",
      "outputs": [],
      "stateMutability": "nonpayable",
      "type": "function"
    },
    {
      "inputs": [
        {
          "internalType": "bytes",
          "name": "referral",
          "type": "bytes"
        }
      ],
      "name": "decodeReferral",
      "outputs": [
        {
          "internalType": "bytes",
          "name": "",
          "type": "bytes"
        },
        {
          "internalType": "address",
          "name": "",
          "type": "address"
        },
        {
          "internalType": "address",
          "name": "",
          "type": "address"
        },
        {
          "internalType": "uint256",
          "name": "",
          "type": "uint256"
        },
        {
          "internalType": "uint256",
          "name": "",
          "type": "uint256"
        }
      ],
      "stateMutability": "pure",
      "type": "function"
    },
    {
      "inputs": [],
      "name": "getAdmin",
      "outputs": [
        {
          "internalType": "address",
          "name": "",
          "type": "address"
        }
      ],
      "stateMutability": "view",
      "type": "function"
    },
    {
      "inputs": [],
      "name": "getExpiryTime",
      "outputs": [
        {
          "internalType": "uint256",
          "name": "",
          "type": "uint256"
        }
      ],
      "stateMutability": "view",
      "type": "function"
    },
    {
      "inputs": [],
      "name": "getMaxCommisionRate",
      "outputs": [
        {
          "internalType": "uint256",
          "name": "",
          "type": "uint256"
        }
      ],
      "stateMutability": "view",
      "type": "function"
    },
    {
      "inputs": [],
      "name": "getMerkleRoot",
      "outputs": [
        {
          "internalType": "bytes32",
          "name": "",
          "type": "bytes32"
        }
      ],
      "stateMutability": "view",
      "type": "function"
    },
    {
      "inputs": [],
      "name": "getSandMultiplier",
      "outputs": [
        {
          "internalType": "uint256",
          "name": "",
          "type": "uint256"
        }
      ],
      "stateMutability": "view",
      "type": "function"
    },
    {
      "inputs": [],
      "name": "getSigningWallet",
      "outputs": [
        {
          "internalType": "address",
          "name": "",
          "type": "address"
        }
      ],
      "stateMutability": "view",
      "type": "function"
    },
    {
      "inputs": [
        {
          "internalType": "address",
          "name": "who",
          "type": "address"
        }
      ],
      "name": "isMetaTransactionProcessor",
      "outputs": [
        {
          "internalType": "bool",
          "name": "",
          "type": "bool"
        }
      ],
      "stateMutability": "view",
      "type": "function"
    },
    {
      "inputs": [
        {
          "internalType": "bytes",
          "name": "signature",
          "type": "bytes"
        },
        {
          "internalType": "address",
          "name": "referrer",
          "type": "address"
        },
        {
          "internalType": "address",
          "name": "referee",
          "type": "address"
        },
        {
          "internalType": "uint256",
          "name": "expiryTime",
          "type": "uint256"
        },
        {
          "internalType": "uint256",
          "name": "commissionRate",
          "type": "uint256"
        }
      ],
      "name": "isReferralValid",
      "outputs": [
        {
          "internalType": "bool",
          "name": "",
          "type": "bool"
        }
      ],
      "stateMutability": "view",
      "type": "function"
    },
    {
      "inputs": [
        {
          "internalType": "address",
          "name": "",
          "type": "address"
        },
        {
          "internalType": "address",
          "name": "",
          "type": "address"
        },
        {
          "internalType": "uint256[]",
          "name": "",
          "type": "uint256[]"
        },
        {
          "internalType": "uint256[]",
          "name": "",
          "type": "uint256[]"
        },
        {
          "internalType": "bytes",
          "name": "",
          "type": "bytes"
        }
      ],
      "name": "onERC1155BatchReceived",
      "outputs": [
        {
          "internalType": "bytes4",
          "name": "",
          "type": "bytes4"
        }
      ],
      "stateMutability": "pure",
      "type": "function"
    },
    {
      "inputs": [
        {
          "internalType": "address",
          "name": "",
          "type": "address"
        },
        {
          "internalType": "address",
          "name": "",
          "type": "address"
        },
        {
          "internalType": "uint256",
          "name": "",
          "type": "uint256"
        },
        {
          "internalType": "uint256",
          "name": "",
          "type": "uint256"
        },
        {
          "internalType": "bytes",
          "name": "",
          "type": "bytes"
        }
      ],
      "name": "onERC1155Received",
      "outputs": [
        {
          "internalType": "bytes4",
          "name": "",
          "type": "bytes4"
        }
      ],
      "stateMutability": "pure",
      "type": "function"
    },
    {
      "inputs": [
        {
          "internalType": "uint256",
          "name": "newMultiplier",
          "type": "uint256"
        }
      ],
      "name": "rebalanceSand",
      "outputs": [],
      "stateMutability": "nonpayable",
      "type": "function"
    },
    {
      "inputs": [
        {
          "internalType": "address",
          "name": "metaTransactionProcessor",
          "type": "address"
        },
        {
          "internalType": "bool",
          "name": "enabled",
          "type": "bool"
        }
      ],
      "name": "setMetaTransactionProcessor",
      "outputs": [],
      "stateMutability": "nonpayable",
      "type": "function"
    },
    {
      "inputs": [
        {
          "internalType": "address payable",
          "name": "newWallet",
          "type": "address"
        }
      ],
      "name": "setReceivingWallet",
      "outputs": [],
      "stateMutability": "nonpayable",
      "type": "function"
    },
    {
      "inputs": [
        {
          "internalType": "uint256",
          "name": "newMaxCommissionRate",
          "type": "uint256"
        }
      ],
      "name": "updateMaxCommissionRate",
      "outputs": [],
      "stateMutability": "nonpayable",
      "type": "function"
    },
    {
      "inputs": [
        {
          "internalType": "address",
          "name": "newSigningWallet",
          "type": "address"
        }
      ],
      "name": "updateSigningWallet",
      "outputs": [],
      "stateMutability": "nonpayable",
      "type": "function"
    },
    {
      "inputs": [
        {
          "internalType": "address",
          "name": "to",
          "type": "address"
        },
        {
          "internalType": "uint256[]",
          "name": "assetIds",
          "type": "uint256[]"
        },
        {
          "internalType": "uint256[]",
          "name": "values",
          "type": "uint256[]"
        }
      ],
      "name": "withdrawAssets",
      "outputs": [],
      "stateMutability": "nonpayable",
      "type": "function"
    }
  ],
  "transactionHash": "0x9c49281edb91c95aa30847777bacdee8e3cb127c90b3be9a4c71eeca3f1d54ea",
  "args": [
    "0xaF40A483bF77AAb7b7D13dB18187E6D62C1EA41b",
    "0xCc933a862fc15379E441F2A16Cb943D385a4695f",
    "0xCc933a862fc15379E441F2A16Cb943D385a4695f",
    "0xa4519D601F43D0b8f167842a367465681F652252",
    "0x60927eB036621b801491B6c5e9A60A8d2dEeD75A",
    "0xd446b917cdc2990f31dced803aab3145230343fb5f4116447e5232694a396069",
    1659445200,
    "0xB7060D3FeCAC3AE1F0A0AA416E3e8E472257950e",
    2000,
    "0x0000000000000000000000000000000000000000",
    "0x8055a2c0f7EB177BeaB357B70E6504402d2b5fF6",
    "0x5983532A5b9009E05428595b87F19e42068a232B"
  ],
  "linkedData": [
    {
      "x": 0,
      "y": 40,
      "size": 1,
      "price": "1011000000000000000000",
      "reserved": "",
      "salt": "0xd7713672f4735f1f96ffa5f94d14639e26e5f901df5b118ee4ec3b24adcf7fc5",
      "assetIds": []
    },
    {
      "x": 0,
      "y": 41,
      "size": 1,
      "price": "1011000000000000000000",
      "reserved": "",
      "salt": "0xb99a08d45007c5afe2ec2a9cb25c5f8f30ca3c5422caf41b5c39d183a0434c25",
      "assetIds": []
    },
    {
      "x": 0,
      "y": 42,
      "size": 1,
      "price": "1011000000000000000000",
      "reserved": "",
      "salt": "0x5d8f71bd73dfefd35f5f7198d4a30486b35953fe3a90db1c40439ea1e70b192d",
      "assetIds": []
    },
    {
      "x": 0,
      "y": 43,
      "size": 1,
      "price": "1011000000000000000000",
      "reserved": "",
      "salt": "0x5bab9ab8f2db7155848895a003d22038a78b055a46980d42d6de69a59bf7245a",
      "assetIds": []
    },
    {
      "x": 0,
      "y": 44,
      "size": 1,
      "price": "1011000000000000000000",
      "reserved": "",
      "salt": "0xbe235e186360cf6d644c479e15dbeb46e58c377b58b15b275b85b77e2e398b27",
      "assetIds": []
    },
    {
      "x": 0,
      "y": 45,
      "size": 1,
      "price": "1011000000000000000000",
      "reserved": "",
      "salt": "0x4b0674317d3102e330130d36d4643f0331a8fe1e42ea29b8a0186c7af20a4d10",
      "assetIds": []
    },
    {
      "x": 0,
      "y": 46,
      "size": 1,
      "price": "1011000000000000000000",
      "reserved": "",
      "salt": "0x0bc970b54bb9105cae95e5eaca3019ab1fbf65ac92f2ea00ab480af89ad17d90",
      "assetIds": []
    },
    {
      "x": 0,
      "y": 47,
      "size": 1,
      "price": "1011000000000000000000",
      "reserved": "",
      "salt": "0x80ce4d64e0c03cc983d55bab0710492a39f05588dff84b6eff37003a921d5145",
      "assetIds": []
    },
    {
      "x": 0,
      "y": 48,
      "size": 1,
      "price": "1011000000000000000000",
      "reserved": "0x7a9fe22691c811ea339d9b73150e6911a5343dca",
      "salt": "0xa28820523091aba8da4de921439b4558886c9614121dd57a09ca4c174c63bdb8",
      "assetIds": []
    },
    {
      "x": 0,
      "y": 49,
      "size": 1,
      "price": "1011000000000000000000",
      "reserved": "",
      "salt": "0x5582340b282c8def19c9fb9faab374c94f8fa9a946b870b99ce73ce48b82b92d",
      "assetIds": []
    },
    {
      "x": 0,
      "y": 50,
      "size": 1,
      "price": "1011000000000000000000",
      "reserved": "",
      "salt": "0x5c5aa56a59e0943dee6318f4e2e91a4b26014a5d07e36ee123edefc82aa9180b",
      "assetIds": []
    },
    {
      "x": 0,
      "y": 51,
      "size": 1,
      "price": "1011000000000000000000",
      "reserved": "",
      "salt": "0x936a08bd3a7822d5989ca6d1e9b625d780c31641ada6850424a2bc6f6fb38d22",
      "assetIds": []
    },
    {
      "x": 0,
      "y": 52,
      "size": 1,
      "price": "1011000000000000000000",
      "reserved": "",
      "salt": "0x6596778775119c9bb268766678187e320f9d5c97de4021f8a10e286fc5826e1e",
      "assetIds": []
    },
    {
      "x": 0,
      "y": 53,
      "size": 1,
      "price": "1011000000000000000000",
      "reserved": "0x7a9fe22691c811ea339d9b73150e6911a5343dca",
      "salt": "0xe23c6832ba96b73085f75de1ff242ad95db503f002b5fef7ac450c6131b03996",
      "assetIds": []
    },
    {
      "x": 0,
      "y": 54,
      "size": 1,
      "price": "1011000000000000000000",
      "reserved": "",
      "salt": "0x5ca5190e779d2e45eb23a4c28b845f2ba2a1cffea1c9ec7cedb4cc96cabc6f51",
      "assetIds": []
    },
    {
      "x": 0,
      "y": 55,
      "size": 1,
      "price": "1011000000000000000000",
      "reserved": "",
      "salt": "0xcb01e83d5802c37c814fe0e60cdfaa238b2d50388fec100c6df8f88acaed77aa",
      "assetIds": []
    },
    {
      "x": 0,
      "y": 56,
      "size": 1,
      "price": "1011000000000000000000",
      "reserved": "",
      "salt": "0x81206731c8cee9ce42f16c51201c91ff3b8add865b328f9f0a945dc687a59b98",
      "assetIds": []
    },
    {
      "x": 0,
      "y": 57,
      "size": 1,
      "price": "1011000000000000000000",
      "reserved": "",
      "salt": "0x790f598fb7730bdbcafb1bbc9db94527e3dacd385af490f89d91b70aba65b930",
      "assetIds": []
    },
    {
      "x": 0,
      "y": 58,
      "size": 1,
      "price": "1011000000000000000000",
      "reserved": "",
      "salt": "0xca671dae672e95d6ab12746432191b6acf1e28b8409e17dbb387be83653954ce",
      "assetIds": []
    },
    {
      "x": 0,
      "y": 59,
      "size": 1,
      "price": "1011000000000000000000",
      "reserved": "",
      "salt": "0xbfdcc902bfc638033468c15b797e27cf2e2ffd03b60a86449e4a80e35ef26082",
      "assetIds": []
    },
    {
      "x": 0,
      "y": 66,
      "size": 1,
      "price": "1011000000000000000000",
      "reserved": "0x7a9fe22691c811ea339d9b73150e6911a5343dca",
      "salt": "0x904f8518a41c1e0cb442e994050f5af18fd83617890a93c2731029573f812a8d",
      "assetIds": []
    },
    {
      "x": 0,
      "y": 67,
      "size": 1,
      "price": "1011000000000000000000",
      "reserved": "",
      "salt": "0xd68055dbd7c1be26256d59e896cf03ca05f278f1c6eda15e21538814bd1500eb",
      "assetIds": []
    },
    {
      "x": 0,
      "y": 68,
      "size": 1,
      "price": "1011000000000000000000",
      "reserved": "",
      "salt": "0xb53bcfaf01ecc2053eb6070012be6939bdb08ffd85c1a280e97761edcbad651b",
      "assetIds": []
    },
    {
      "x": 0,
      "y": 69,
      "size": 1,
      "price": "1011000000000000000000",
      "reserved": "0x7a9fe22691c811ea339d9b73150e6911a5343dca",
      "salt": "0x392ba46a899cedc3ac0611d2f571ece1d3ee0f528c9bfb65d251181ee74ffbc3",
      "assetIds": []
    },
    {
      "x": 0,
      "y": 70,
      "size": 1,
      "price": "1011000000000000000000",
      "reserved": "",
      "salt": "0xa24073dce4532647ff33e1fe60fbdc987c76173b932f6d2477f52424d104f7b6",
      "assetIds": []
    },
    {
      "x": 0,
      "y": 71,
      "size": 1,
      "price": "1011000000000000000000",
      "reserved": "",
      "salt": "0xf53d3352ef98d620076b4eb5b05b718dca67b4d5210e4c9e45a9a8a602236f12",
      "assetIds": []
    },
    {
      "x": 0,
      "y": 90,
      "size": 1,
      "price": "1011000000000000000000",
      "reserved": "",
      "salt": "0x21f63c72ca799ddf8824bcd522fa950241fceb3e4bf49d22ca8446dc0d214cf6",
      "assetIds": []
    },
    {
      "x": 0,
      "y": 91,
      "size": 1,
      "price": "1011000000000000000000",
      "reserved": "",
      "salt": "0xafed6c8bc0680cebc270a41e04aafaaf147bd2a8c03a3c6b0293b2ffc8121aa4",
      "assetIds": []
    },
    {
      "x": 0,
      "y": 92,
      "size": 1,
      "price": "1011000000000000000000",
      "reserved": "0x7a9fe22691c811ea339d9b73150e6911a5343dca",
      "salt": "0x285419acc460fa21764e9da7eda4e07986693216fafde081121fe27c5a65ea5f",
      "assetIds": []
    },
    {
      "x": 0,
      "y": 93,
      "size": 1,
      "price": "1011000000000000000000",
      "reserved": "",
      "salt": "0xc3af8fe0cb56ca2a28aed6087d5c7de3957dc4cd52e06aeef807ce2a0dbf5361",
      "assetIds": []
    },
    {
      "x": 0,
      "y": 94,
      "size": 1,
      "price": "1011000000000000000000",
      "reserved": "",
      "salt": "0x81294eb35bb81ceb4b1bbb4674af20298fbdc36212bf0eda683a89b5003a5149",
      "assetIds": []
    },
    {
      "x": 0,
      "y": 95,
      "size": 1,
      "price": "1011000000000000000000",
      "reserved": "",
      "salt": "0xc53a1774af990841ddd22c8fdbcafd63ae49d8f235c331a052c9f5a7464dcbc2",
      "assetIds": []
    },
    {
      "x": 1,
      "y": 40,
      "size": 1,
      "price": "1011000000000000000000",
      "reserved": "",
      "salt": "0xcf8bb54f358be627f88e56522b7d4c08173bebbc6ae04d215fd4b9aaf6518cef",
      "assetIds": []
    },
    {
      "x": 1,
      "y": 41,
      "size": 1,
      "price": "1011000000000000000000",
      "reserved": "",
      "salt": "0xcc06a6e389cc507ea6724e5263705f374fbebe5d50e8d5d106da3f06240f11b0",
      "assetIds": []
    },
    {
      "x": 1,
      "y": 42,
      "size": 1,
      "price": "1011000000000000000000",
      "reserved": "",
      "salt": "0x7946f0b3a05ab9fcc5befacb4483c2ca1ad3ccd8acab73b98564abfcfe7e53de",
      "assetIds": []
    },
    {
      "x": 1,
      "y": 43,
      "size": 1,
      "price": "1011000000000000000000",
      "reserved": "",
      "salt": "0x7f3a5dc42c74c28bc84f6ed75fe9c85d6b11aa577e9fc4a67466b588ce4e6470",
      "assetIds": []
    },
    {
      "x": 1,
      "y": 44,
      "size": 1,
      "price": "1011000000000000000000",
      "reserved": "",
      "salt": "0x5b4da4a2012e016ff321f10a29598e57c9b46f24c569508603ca1bb09120cf0f",
      "assetIds": []
    },
    {
      "x": 1,
      "y": 45,
      "size": 1,
      "price": "1011000000000000000000",
      "reserved": "",
      "salt": "0x0f29a95f0eba16844af9f578221181726430b12c0e433adefd6825f42f22a9ea",
      "assetIds": []
    },
    {
      "x": 1,
      "y": 46,
      "size": 1,
      "price": "1011000000000000000000",
      "reserved": "",
      "salt": "0xd44f30e0fcdeeb2af68606271a2224a765cf6d6c996e0239bb04d60a560b43fd",
      "assetIds": []
    },
    {
      "x": 1,
      "y": 47,
      "size": 1,
      "price": "1011000000000000000000",
      "reserved": "",
      "salt": "0x26fdf2f8a58dd79adf7dd13eeac1c3cf2cbbe66ede7db508bcf02dde81dc28a1",
      "assetIds": []
    },
    {
      "x": 1,
      "y": 48,
      "size": 1,
      "price": "1011000000000000000000",
      "reserved": "",
      "salt": "0x0f45e6da98129d584425c50c0bed51fe6c8e8793567e9203e1bb135f0fc4caa1",
      "assetIds": []
    },
    {
      "x": 1,
      "y": 49,
      "size": 1,
      "price": "1011000000000000000000",
      "reserved": "",
      "salt": "0xe7af65f959fcba510927edb1709f8afcf5cfa467ff6e06e8b2375c3ed3e24999",
      "assetIds": []
    },
    {
      "x": 1,
      "y": 50,
      "size": 1,
      "price": "1011000000000000000000",
      "reserved": "",
      "salt": "0x7c7adbf5b09bcbf1eaa5eca42199a449543d51d04857869c081da9748269527b",
      "assetIds": []
    },
    {
      "x": 1,
      "y": 51,
      "size": 1,
      "price": "1011000000000000000000",
      "reserved": "0x7a9fe22691c811ea339d9b73150e6911a5343dca",
      "salt": "0x5c96fe6646bf7d86f1a41039bb5cc0936a700c6c730a0a468d3d4377338f0c5a",
      "assetIds": []
    },
    {
      "x": 1,
      "y": 52,
      "size": 1,
      "price": "1011000000000000000000",
      "reserved": "",
      "salt": "0x5a4acf40fcfc5580c4b5c9a9187784f0fc2e99a461d37157a620d336aea9db91",
      "assetIds": []
    },
    {
      "x": 1,
      "y": 53,
      "size": 1,
      "price": "1011000000000000000000",
      "reserved": "",
      "salt": "0xabc894e3a4655fdbb0ec5b9d92243cb77614361cc9dc9cb4ef4e7e0820b8d563",
      "assetIds": []
    },
    {
      "x": 1,
      "y": 54,
      "size": 1,
      "price": "1011000000000000000000",
      "reserved": "",
      "salt": "0x3334ee4d9474ce63d603b5fcb1e4ee07a15251d3744d92be726c9dce37569a15",
      "assetIds": []
    },
    {
      "x": 1,
      "y": 55,
      "size": 1,
      "price": "1011000000000000000000",
      "reserved": "0x7a9fe22691c811ea339d9b73150e6911a5343dca",
      "salt": "0x65bf72a5ae7173cfa3260bb638ae6091333fee79a31a4068c6a9dfa46a9abac2",
      "assetIds": []
    },
    {
      "x": 1,
      "y": 56,
      "size": 1,
      "price": "1011000000000000000000",
      "reserved": "",
      "salt": "0xa5345658707a730a94c00da65ea4fc4749c7d68bb36d1e8ab2e053439f3b954d",
      "assetIds": []
    },
    {
      "x": 1,
      "y": 57,
      "size": 1,
      "price": "1011000000000000000000",
      "reserved": "",
      "salt": "0x3d54213f849ccb231753df6e4ad7da19072fcfd782b1120438df32d76cf166fc",
      "assetIds": []
    },
    {
      "x": 1,
      "y": 58,
      "size": 1,
      "price": "1011000000000000000000",
      "reserved": "0x7a9fe22691c811ea339d9b73150e6911a5343dca",
      "salt": "0x04f1c9e268f6b5365e9e21ca7b0d462d56c0dcddb19828964511588b045fcaa7",
      "assetIds": []
    },
    {
      "x": 1,
      "y": 59,
      "size": 1,
      "price": "1011000000000000000000",
      "reserved": "",
      "salt": "0x4d5bbb3593a673580cf39742416d0300e3c1339ca47051270f899036cb729348",
      "assetIds": []
    },
    {
      "x": 1,
      "y": 66,
      "size": 1,
      "price": "1011000000000000000000",
      "reserved": "",
      "salt": "0x6b4fdd75dae308103eb3a0146f9c5352cb33095c2cc5554ea5ca5a66452816b6",
      "assetIds": []
    },
    {
      "x": 1,
      "y": 67,
      "size": 1,
      "price": "1011000000000000000000",
      "reserved": "",
      "salt": "0x4e3ca3beb26bbc50d0e962b8736b3884c68922d3b722776ac9d9e9b7f5476ca1",
      "assetIds": []
    },
    {
      "x": 1,
      "y": 68,
      "size": 1,
      "price": "1011000000000000000000",
      "reserved": "",
      "salt": "0x74f1a3bcc04f3ef4ba6b0991ffd41625a6cf295aaafb810713040b0ba5309662",
      "assetIds": []
    },
    {
      "x": 1,
      "y": 69,
      "size": 1,
      "price": "1011000000000000000000",
      "reserved": "",
      "salt": "0x0a6b70767539ba72b7730c07af3c5d83d33afca0f84dcc01d8ba43953f7ee87c",
      "assetIds": []
    },
    {
      "x": 1,
      "y": 70,
      "size": 1,
      "price": "1011000000000000000000",
      "reserved": "",
      "salt": "0xa3844ecfa35bbe37483149afac5935fa87ce33c5d6a9feeedaf60f2ee5d6fb98",
      "assetIds": []
    },
    {
      "x": 1,
      "y": 71,
      "size": 1,
      "price": "1011000000000000000000",
      "reserved": "",
      "salt": "0x1c2bcd0b16e0b71864612ba27540194aa48470f1251a7b9a69364018e52d5796",
      "assetIds": []
    },
    {
      "x": 1,
      "y": 90,
      "size": 1,
      "price": "1011000000000000000000",
      "reserved": "0x7a9fe22691c811ea339d9b73150e6911a5343dca",
      "salt": "0x14c91bddaeed761559b56463e7c550df725567130c3af53215b5eb3f4622333b",
      "assetIds": []
    },
    {
      "x": 1,
      "y": 91,
      "size": 1,
      "price": "1011000000000000000000",
      "reserved": "",
      "salt": "0x202b8889ead6b27ccb5eb5793729c513dee3448e6ae350c0f04ca1c31a304e55",
      "assetIds": []
    },
    {
      "x": 1,
      "y": 92,
      "size": 1,
      "price": "1011000000000000000000",
      "reserved": "",
      "salt": "0x34045ceef657bcbe14983b516067314b29ef9e2f8f8a807385473eb0549a3a7d",
      "assetIds": []
    },
    {
      "x": 1,
      "y": 93,
      "size": 1,
      "price": "1011000000000000000000",
      "reserved": "",
      "salt": "0x6194d13a0bd1fcc49bb4cd4796e8d96e3eee26b211520df49d756140ddedfae5",
      "assetIds": []
    },
    {
      "x": 1,
      "y": 94,
      "size": 1,
      "price": "1011000000000000000000",
      "reserved": "",
      "salt": "0xbeab6f50154f67675cf4c745f7efeb4af692877a7417e5e5fbbd2019043b0267",
      "assetIds": []
    },
    {
      "x": 1,
      "y": 95,
      "size": 1,
      "price": "1011000000000000000000",
      "reserved": "",
      "salt": "0x0f0516aa150d522de67cce201599d3dba2f3cf29a6f4ebe9bbd61eb0af1b84da",
      "assetIds": []
    },
    {
      "x": 2,
      "y": 40,
      "size": 1,
      "price": "1011000000000000000000",
      "reserved": "",
      "salt": "0x49d4ac49d8135cc75901313b554ce7a60425796e7eb8dbdb8c4caac9b13d2d6f",
      "assetIds": []
    },
    {
      "x": 2,
      "y": 41,
      "size": 1,
      "price": "1011000000000000000000",
      "reserved": "",
      "salt": "0x46651ddc0c4b4985dd6384c6132e328927fe0c4761904448d05a47fa5e836bac",
      "assetIds": []
    },
    {
      "x": 2,
      "y": 42,
      "size": 1,
      "price": "1011000000000000000000",
      "reserved": "0x7a9fe22691c811ea339d9b73150e6911a5343dca",
      "salt": "0xd75d7535c3ee7d2e0f97bef69b5041d68a72fcc5abe33a5723c0389e9deff359",
      "assetIds": []
    },
    {
      "x": 2,
      "y": 43,
      "size": 1,
      "price": "1011000000000000000000",
      "reserved": "",
      "salt": "0x131c01e06255e528ea4e4d84e985e3211e6445b8bc840e960a903105c7a30236",
      "assetIds": []
    },
    {
      "x": 2,
      "y": 44,
      "size": 1,
      "price": "1011000000000000000000",
      "reserved": "",
      "salt": "0x21b6a23debb8b9f01ee207a59602847139e1208fa23bdfe14bcd5271fe22268b",
      "assetIds": []
    },
    {
      "x": 2,
      "y": 45,
      "size": 1,
      "price": "1011000000000000000000",
      "reserved": "0x7a9fe22691c811ea339d9b73150e6911a5343dca",
      "salt": "0xbb6f75eab0b50c365723f06f9e2ecfebdfebb5c25feb39319f80a7faddb29262",
      "assetIds": []
    },
    {
      "x": 2,
      "y": 46,
      "size": 1,
      "price": "1011000000000000000000",
      "reserved": "",
      "salt": "0xc16c795946d4981469dad476993470373469ba6db747692de74657b58a29fbae",
      "assetIds": []
    },
    {
      "x": 2,
      "y": 47,
      "size": 1,
      "price": "1011000000000000000000",
      "reserved": "",
      "salt": "0xb92be1f9a8eafbf5b06cb9ec0d399ac563c6012b62b66aeac80b9f78762e581b",
      "assetIds": []
    },
    {
      "x": 2,
      "y": 48,
      "size": 1,
      "price": "1011000000000000000000",
      "reserved": "",
      "salt": "0x730505df816b3fe97cbfa0444fecd3d70d2598d748e4bfcb22f85f2f4450d3fc",
      "assetIds": []
    },
    {
      "x": 2,
      "y": 49,
      "size": 1,
      "price": "1011000000000000000000",
      "reserved": "0x7a9fe22691c811ea339d9b73150e6911a5343dca",
      "salt": "0x455db3238885b2e138d9c969da68fd5903d37379d4304637c778465527370d9e",
      "assetIds": []
    },
    {
      "x": 2,
      "y": 50,
      "size": 1,
      "price": "1011000000000000000000",
      "reserved": "",
      "salt": "0xc8c05b08e0fea686ab49c6346ddf5d7e2719f56c2917ced3322a82eb9cbf693a",
      "assetIds": []
    },
    {
      "x": 2,
      "y": 51,
      "size": 1,
      "price": "1011000000000000000000",
      "reserved": "",
      "salt": "0x679b5a4b9414423929a909da73a74540c1803d008b1a78256bccdf4c60de3f44",
      "assetIds": []
    },
    {
      "x": 2,
      "y": 52,
      "size": 1,
      "price": "1011000000000000000000",
      "reserved": "",
      "salt": "0xd6a4ad5feebb5c79674312e17d3661f268fcfe95452a1b3d09d072b0d478060f",
      "assetIds": []
    },
    {
      "x": 2,
      "y": 53,
      "size": 1,
      "price": "1011000000000000000000",
      "reserved": "",
      "salt": "0x8336bfb57e3fab0c1471f5d3eae9c4f21088d773e744bb3ca2d951be190dc31a",
      "assetIds": []
    },
    {
      "x": 2,
      "y": 54,
      "size": 1,
      "price": "1011000000000000000000",
      "reserved": "",
      "salt": "0x58d018e4a10c74f262dd19030e4b73b0c2af07292d5d788543b09162aee6f0e7",
      "assetIds": []
    },
    {
      "x": 2,
      "y": 55,
      "size": 1,
      "price": "1011000000000000000000",
      "reserved": "",
      "salt": "0xcf4523c7b6470deac28bb215104dcea9f29739953dd0caef836e0fb71de1df2d",
      "assetIds": []
    },
    {
      "x": 2,
      "y": 56,
      "size": 1,
      "price": "1011000000000000000000",
      "reserved": "",
      "salt": "0x55d6078720e92cca230cab8bd82617c9095004be8fd81af314d9c8e0abd9ba53",
      "assetIds": []
    },
    {
      "x": 2,
      "y": 57,
      "size": 1,
      "price": "1011000000000000000000",
      "reserved": "",
      "salt": "0x1583c3148b60617a31b048f73288365bd73ec282280b8c277080a1d54ad63800",
      "assetIds": []
    },
    {
      "x": 2,
      "y": 58,
      "size": 1,
      "price": "1011000000000000000000",
      "reserved": "",
      "salt": "0xc6ff8ebc86eafc286ade5b1b94eaa5b3f05e84518e423c977a5cefde54f1e666",
      "assetIds": []
    },
    {
      "x": 2,
      "y": 59,
      "size": 1,
      "price": "1011000000000000000000",
      "reserved": "",
      "salt": "0xa9d629e409a254da4f4ee1cb337e4eb550e17b231d604674d315c3e95f81f3d8",
      "assetIds": []
    },
    {
      "x": 2,
      "y": 66,
      "size": 1,
      "price": "1011000000000000000000",
      "reserved": "",
      "salt": "0x887328898b5277ea2b377b5cd9471e7ae19f6c8cf3795cd7eaffa3194adb322a",
      "assetIds": []
    },
    {
      "x": 2,
      "y": 67,
      "size": 1,
      "price": "1011000000000000000000",
      "reserved": "",
      "salt": "0x3ba0ca6021cd6ee2d3e67ef53800ea4c47635f6400acfd1d974a04a4bbfe19f2",
      "assetIds": []
    },
    {
      "x": 2,
      "y": 68,
      "size": 1,
      "price": "1011000000000000000000",
      "reserved": "",
      "salt": "0xb4352704f77248f4e8532453a3fb01ac6c9a0d7eb3f8178fe6a46f53fd0950fb",
      "assetIds": []
    },
    {
      "x": 2,
      "y": 69,
      "size": 1,
      "price": "1011000000000000000000",
      "reserved": "",
      "salt": "0xbe96cb2fd95983378114eed68cd641b610809965077cc68d9a06682e07ee86b1",
      "assetIds": []
    },
    {
      "x": 2,
      "y": 70,
      "size": 1,
      "price": "1011000000000000000000",
      "reserved": "",
      "salt": "0x06c07169cffdd1488cbd8dd6cdbbac286cc825f85148a93fb031dab7bb0a0f28",
      "assetIds": []
    },
    {
      "x": 2,
      "y": 71,
      "size": 1,
      "price": "1011000000000000000000",
      "reserved": "",
      "salt": "0x87a8edb55c62dbae2f1142e436ba998870218f1338414417bf4deb756be9d2ab",
      "assetIds": []
    },
    {
      "x": 2,
      "y": 90,
      "size": 1,
      "price": "1011000000000000000000",
      "reserved": "",
      "salt": "0xb24cf2ea1d9c7c9c3e130932bb823a71e22818df29ce5da8c5ea04fa02769a36",
      "assetIds": []
    },
    {
      "x": 2,
      "y": 91,
      "size": 1,
      "price": "1011000000000000000000",
      "reserved": "",
      "salt": "0xf82ff3ef933682a50517c8b4724a96ad7a05dbfa31352dd549734ea469a6f077",
      "assetIds": []
    },
    {
      "x": 2,
      "y": 92,
      "size": 1,
      "price": "1011000000000000000000",
      "reserved": "0x7a9fe22691c811ea339d9b73150e6911a5343dca",
      "salt": "0x7598062ec7c143eaf65592456b1807848018bfa91871a0289eb90d55559aecff",
      "assetIds": []
    },
    {
      "x": 2,
      "y": 93,
      "size": 1,
      "price": "1011000000000000000000",
      "reserved": "",
      "salt": "0xf3687dc5082da816a8a24b8c51a4447ce7b73aedbb7919e7a7cb638a447c5f18",
      "assetIds": []
    },
    {
      "x": 2,
      "y": 94,
      "size": 1,
      "price": "1011000000000000000000",
      "reserved": "",
      "salt": "0x63fd047759200b9d8bd43afeed28af636e81269e4b3b3179d48ae2477d54988e",
      "assetIds": []
    },
    {
      "x": 2,
      "y": 95,
      "size": 1,
      "price": "1011000000000000000000",
      "reserved": "",
      "salt": "0x96cee4d0894f1b707d5fd4f160adae427f2d7eaea61b0014673dfaed90722525",
      "assetIds": []
    },
    {
      "x": 3,
      "y": 40,
      "size": 1,
      "price": "1011000000000000000000",
      "reserved": "",
      "salt": "0x41d84bb3d53a858356413d1b017ed3e248b2cd0e275f0672678b5595b950a863",
      "assetIds": []
    },
    {
      "x": 3,
      "y": 41,
      "size": 1,
      "price": "1011000000000000000000",
      "reserved": "0x7a9fe22691c811ea339d9b73150e6911a5343dca",
      "salt": "0x9b75a54f162a30387655760243d6464dd68f960529b7e16ba8d11493432da4f7",
      "assetIds": []
    },
    {
      "x": 3,
      "y": 42,
      "size": 1,
      "price": "1011000000000000000000",
      "reserved": "",
      "salt": "0x1e7c3575c9ae60eba4c4d699df5326fd0266de49e9d1c685e1ab298ac3d92961",
      "assetIds": []
    },
    {
      "x": 3,
      "y": 43,
      "size": 1,
      "price": "1011000000000000000000",
      "reserved": "0x7a9fe22691c811ea339d9b73150e6911a5343dca",
      "salt": "0x20ffe6606ef8af5368ab1d5efcd422644d998bed64c2c9cf8a32d8c52ba21309",
      "assetIds": []
    },
    {
      "x": 3,
      "y": 44,
      "size": 1,
      "price": "1011000000000000000000",
      "reserved": "",
      "salt": "0x9b5f1ecfc94e8cfd74489f7ac9c56906e2ad434f926a0dd77274f7ec4002f854",
      "assetIds": []
    },
    {
      "x": 3,
      "y": 45,
      "size": 1,
      "price": "1011000000000000000000",
      "reserved": "",
      "salt": "0x0d4bc1654ab7d47e7729f6028003cfc9583f8a7cd10f23d369d54fa0907c07e1",
      "assetIds": []
    },
    {
      "x": 3,
      "y": 46,
      "size": 1,
      "price": "1011000000000000000000",
      "reserved": "",
      "salt": "0x10970abb3ba4701f5a6b452e19179c52580074f50e5a185da90a3fb6a750a5ac",
      "assetIds": []
    },
    {
      "x": 3,
      "y": 47,
      "size": 1,
      "price": "1011000000000000000000",
      "reserved": "0x7a9fe22691c811ea339d9b73150e6911a5343dca",
      "salt": "0xb3ecf300aafab5d9c17a46d24422564b1957968d57653199022be66e79b2a8d4",
      "assetIds": []
    },
    {
      "x": 3,
      "y": 48,
      "size": 1,
      "price": "1011000000000000000000",
      "reserved": "",
      "salt": "0x449ac8d78eda98cf10077e7bf339e6780540ae6c608618de5bded219dd612b42",
      "assetIds": []
    },
    {
      "x": 3,
      "y": 49,
      "size": 1,
      "price": "1011000000000000000000",
      "reserved": "",
      "salt": "0x9c2d0dd7330079632cf023881a147985b6883d52235e1d399a05d7426eb19f89",
      "assetIds": []
    },
    {
      "x": 3,
      "y": 50,
      "size": 1,
      "price": "1011000000000000000000",
      "reserved": "",
      "salt": "0x078dc9f6014f4e92999f1b331ceec675849e14243d5ae626cd42a7e3f42b8089",
      "assetIds": []
    },
    {
      "x": 3,
      "y": 51,
      "size": 1,
      "price": "1011000000000000000000",
      "reserved": "",
      "salt": "0xdca251fd9be88ec19648eabdfd633d33ca8f999b7535c4fd53c59deb4373391f",
      "assetIds": []
    },
    {
      "x": 3,
      "y": 52,
      "size": 1,
      "price": "1011000000000000000000",
      "reserved": "0x7a9fe22691c811ea339d9b73150e6911a5343dca",
      "salt": "0xe7a850dfa40db63270e26ddaaff589d0c1605e7bb02fc5cd1aaf118fc55e916b",
      "assetIds": []
    },
    {
      "x": 3,
      "y": 53,
      "size": 1,
      "price": "1011000000000000000000",
      "reserved": "",
      "salt": "0x8e40031a2a08922c0ae6d56c16d7ee834b78aa27115bda8d1f65190cdb8c885d",
      "assetIds": []
    },
    {
      "x": 3,
      "y": 57,
      "size": 1,
      "price": "1011000000000000000000",
      "reserved": "",
      "salt": "0x946deaceb3e290bed3aff6513ef0a58de4cf1c8bb01ebc52dc4fcfb0bc93fa0c",
      "assetIds": []
    },
    {
      "x": 3,
      "y": 58,
      "size": 1,
      "price": "1011000000000000000000",
      "reserved": "",
      "salt": "0x380b86ef364a7c1695581b97343c151fe3b93d0bd20e62f451cc565d6f58a44b",
      "assetIds": []
    },
    {
      "x": 3,
      "y": 59,
      "size": 1,
      "price": "1011000000000000000000",
      "reserved": "0x7a9fe22691c811ea339d9b73150e6911a5343dca",
      "salt": "0xb411ebe43ccfc858b10ff50d15bc5dffb7866f6ae2a3feb148e7dfcf54ed7ade",
      "assetIds": []
    },
    {
      "x": 3,
      "y": 66,
      "size": 1,
      "price": "1011000000000000000000",
      "reserved": "",
      "salt": "0xb8213aab23bf0196815e9bb88216d8eca9749edd6691227bada530f5328e2cc4",
      "assetIds": []
    },
    {
      "x": 3,
      "y": 67,
      "size": 1,
      "price": "1011000000000000000000",
      "reserved": "0x7a9fe22691c811ea339d9b73150e6911a5343dca",
      "salt": "0x6ba0144bd3b40fab0744d9ed338f9fba3abb82340d91754ad2f72c30ac5616d9",
      "assetIds": []
    },
    {
      "x": 3,
      "y": 68,
      "size": 1,
      "price": "1011000000000000000000",
      "reserved": "",
      "salt": "0xdf9618628f45a06b93c26a8ced73fe87b7de6a321e4c96e3d4805a92a8500b80",
      "assetIds": []
    },
    {
      "x": 3,
      "y": 69,
      "size": 1,
      "price": "1011000000000000000000",
      "reserved": "",
      "salt": "0xc8f6f074b44d3be78bf93221c867f36c1381fe1cdc8ac45f39ace85b5d431ee0",
      "assetIds": []
    },
    {
      "x": 3,
      "y": 70,
      "size": 1,
      "price": "1011000000000000000000",
      "reserved": "0x7a9fe22691c811ea339d9b73150e6911a5343dca",
      "salt": "0x73b6420579cc312a36d9cee3d896b0f92581dec6758c2c958a5e494b11af4876",
      "assetIds": []
    },
    {
      "x": 3,
      "y": 71,
      "size": 1,
      "price": "1011000000000000000000",
      "reserved": "",
      "salt": "0x9e39ea04917821784a54edf557b78e2aabc2267a79c447726023f8e23ce356b5",
      "assetIds": []
    },
    {
      "x": 3,
      "y": 90,
      "size": 1,
      "price": "1011000000000000000000",
      "reserved": "",
      "salt": "0x21d7a3b0ccd58032f967a1778d35b0b91ee0542d480e69c287f47ec8fd631c5d",
      "assetIds": []
    },
    {
      "x": 3,
      "y": 91,
      "size": 1,
      "price": "1011000000000000000000",
      "reserved": "",
      "salt": "0x22948d8d3a46d77a3a379ea4d8d98d62be5df1ac1cfd044c6670e517558f084f",
      "assetIds": []
    },
    {
      "x": 3,
      "y": 92,
      "size": 1,
      "price": "1011000000000000000000",
      "reserved": "",
      "salt": "0xc339310cc1be3c80d54731b74ede2b6e7f850d2da546bdc34bf8b350d16b4721",
      "assetIds": []
    },
    {
      "x": 3,
      "y": 93,
      "size": 1,
      "price": "1011000000000000000000",
      "reserved": "",
      "salt": "0xcee341a484ab9de666c656d7e8dff436257e79cbd5de515c8b08111ae6dae62f",
      "assetIds": []
    },
    {
      "x": 3,
      "y": 94,
      "size": 1,
      "price": "1011000000000000000000",
      "reserved": "",
      "salt": "0xbdc0e87019b9b2cbe8255778837840c574a48abb77c540c933bdd01379815048",
      "assetIds": []
    },
    {
      "x": 3,
      "y": 95,
      "size": 1,
      "price": "1011000000000000000000",
      "reserved": "0x7a9fe22691c811ea339d9b73150e6911a5343dca",
      "salt": "0xd2460aebe3fe58363cceb7fdc6d1bd8a4c7d56e946ebdbe1e2bd61320f4671f8",
      "assetIds": []
    },
    {
      "x": 4,
      "y": 40,
      "size": 1,
      "price": "1011000000000000000000",
      "reserved": "",
      "salt": "0x3f411cc20eb479224402fd14ea3e5931641ad60939b68e9fbcd17dff744d59dd",
      "assetIds": []
    },
    {
      "x": 4,
      "y": 41,
      "size": 1,
      "price": "1011000000000000000000",
      "reserved": "0x7a9fe22691c811ea339d9b73150e6911a5343dca",
      "salt": "0xfbd7872bcbee81b2cec910ffb0c8a4ae4efb85a251dad92ff5fe5c84eff7d378",
      "assetIds": []
    },
    {
      "x": 4,
      "y": 42,
      "size": 1,
      "price": "1011000000000000000000",
      "reserved": "",
      "salt": "0xdea4db9fa7593ae52bd7462425403984ef2dab4119261164f088aaaf5047f635",
      "assetIds": []
    },
    {
      "x": 4,
      "y": 43,
      "size": 1,
      "price": "1011000000000000000000",
      "reserved": "",
      "salt": "0x50c4d0046b73d4b85ebe89842e8f1319c1a84b4d4d05e760d8e75030bc369cd7",
      "assetIds": []
    },
    {
      "x": 4,
      "y": 44,
      "size": 1,
      "price": "1011000000000000000000",
      "reserved": "",
      "salt": "0xdbbf2fa8642a1dec244f54f2e4978148df921e25f744bac81fd6a12b63efe24f",
      "assetIds": []
    },
    {
      "x": 4,
      "y": 45,
      "size": 1,
      "price": "1011000000000000000000",
      "reserved": "",
      "salt": "0xa13824c14b1415db0ec4e051017263d3f3ccf40e78470686899a9f2f0cc3502e",
      "assetIds": []
    },
    {
      "x": 4,
      "y": 46,
      "size": 1,
      "price": "1011000000000000000000",
      "reserved": "",
      "salt": "0x195d5a17ef6e607b6035267829113f20b2d44fc5e891ff73b484cf6ce210b4c4",
      "assetIds": []
    },
    {
      "x": 4,
      "y": 47,
      "size": 1,
      "price": "1011000000000000000000",
      "reserved": "",
      "salt": "0x4ef5c72c9885fd8f9c27393c7fa828df205c179b74c36f2b2b3541bbe17cd8c4",
      "assetIds": []
    },
    {
      "x": 4,
      "y": 48,
      "size": 1,
      "price": "1011000000000000000000",
      "reserved": "",
      "salt": "0x0acbf0032cd53acc0eb432b5c98f1ee3fbdd7ab2eee0e51f1942c8546a47b114",
      "assetIds": []
    },
    {
      "x": 4,
      "y": 49,
      "size": 1,
      "price": "1011000000000000000000",
      "reserved": "",
      "salt": "0xb7c6a5c4fa4e40c2bc603f56b4f6bcf6ae1d21f75cd17b05a7efbe17ffc64a6a",
      "assetIds": []
    },
    {
      "x": 4,
      "y": 50,
      "size": 1,
      "price": "1011000000000000000000",
      "reserved": "",
      "salt": "0xdd9956e7b9f9b91c4f94fecb6d839f675f4e0f48dd372a60f1289e2d20d4f9b3",
      "assetIds": []
    },
    {
      "x": 4,
      "y": 51,
      "size": 1,
      "price": "1011000000000000000000",
      "reserved": "",
      "salt": "0x4ad2fa393e66a9fcced933264179046ee277de907bc8b3e2ebbfa825b7466635",
      "assetIds": []
    },
    {
      "x": 4,
      "y": 52,
      "size": 1,
      "price": "1011000000000000000000",
      "reserved": "",
      "salt": "0x4bd01f9004894e3d42a7533ce785a647f20702017f863f2e09c5a50ab5cc0557",
      "assetIds": []
    },
    {
      "x": 4,
      "y": 53,
      "size": 1,
      "price": "1011000000000000000000",
      "reserved": "",
      "salt": "0x3e8614210333c3df3a2fa16b7d07b7d11c42f87ae5f5fdc28710c81ba98f6279",
      "assetIds": []
    },
    {
      "x": 4,
      "y": 57,
      "size": 1,
      "price": "1011000000000000000000",
      "reserved": "",
      "salt": "0x586de72ed7ea53b88ebc74701f83268a0e9c3c4d94b34445e04188ef3358bb87",
      "assetIds": []
    },
    {
      "x": 4,
      "y": 58,
      "size": 1,
      "price": "1011000000000000000000",
      "reserved": "",
      "salt": "0x651f3d6abc7dfe0aea46a2cdfae0024436309c00063e031f4a18d5d7d022f761",
      "assetIds": []
    },
    {
      "x": 4,
      "y": 59,
      "size": 1,
      "price": "1011000000000000000000",
      "reserved": "",
      "salt": "0x0783c581807a69cab96fb45ed019863734cf8fda4eba19356baef4a34b169be3",
      "assetIds": []
    },
    {
      "x": 4,
      "y": 66,
      "size": 1,
      "price": "1011000000000000000000",
      "reserved": "",
      "salt": "0xe212ea75270698d2f67ad6796d638c245fb737550af04b943b90378b05619dc8",
      "assetIds": []
    },
    {
      "x": 4,
      "y": 67,
      "size": 1,
      "price": "1011000000000000000000",
      "reserved": "",
      "salt": "0x97a4d9d0aab8f3349c61f0a10fd42999e59c9e84725a34729f47fe86d12c02a9",
      "assetIds": []
    },
    {
      "x": 4,
      "y": 68,
      "size": 1,
      "price": "1011000000000000000000",
      "reserved": "",
      "salt": "0x04832fafa89a00fa9cc8e3d2a97956d4abce9da55e4d5cb92de2afe5a9f93d3c",
      "assetIds": []
    },
    {
      "x": 4,
      "y": 69,
      "size": 1,
      "price": "1011000000000000000000",
      "reserved": "",
      "salt": "0xd5ff6619a00e97f67bec7d4703590f410c4acde20fb73e2e1cb173b63a794930",
      "assetIds": []
    },
    {
      "x": 4,
      "y": 70,
      "size": 1,
      "price": "1011000000000000000000",
      "reserved": "",
      "salt": "0xeab2ccf3ea9ef1f3ad02d8408e6562c8d916a4d557613570aab702040f76c652",
      "assetIds": []
    },
    {
      "x": 4,
      "y": 71,
      "size": 1,
      "price": "1011000000000000000000",
      "reserved": "",
      "salt": "0x15b6f3567666223c94dde0c2b112d219b5039b2027895c83c676bb95e6855718",
      "assetIds": []
    },
    {
      "x": 4,
      "y": 90,
      "size": 1,
      "price": "1011000000000000000000",
      "reserved": "",
      "salt": "0xc4903d1358009fcff3623fc8deb7ea3dde67463cda9533b3b28e67e1cb040363",
      "assetIds": []
    },
    {
      "x": 4,
      "y": 91,
      "size": 1,
      "price": "1011000000000000000000",
      "reserved": "",
      "salt": "0x9b4575a8518c2e5f6638369a597c8ce38ad37300f5800d1b9dbbcada03512d7e",
      "assetIds": []
    },
    {
      "x": 4,
      "y": 92,
      "size": 1,
      "price": "1011000000000000000000",
      "reserved": "",
      "salt": "0xacbaac3a61942961b07fe83c2d082d914ece5563ac5732db0ea1e96c16b560a4",
      "assetIds": []
    },
    {
      "x": 4,
      "y": 93,
      "size": 1,
      "price": "1011000000000000000000",
      "reserved": "",
      "salt": "0x797eb479fe3b7ac411a11ec446a5ad0056063d2a2b63011b646ae41ced7151ea",
      "assetIds": []
    },
    {
      "x": 4,
      "y": 94,
      "size": 1,
      "price": "1011000000000000000000",
      "reserved": "",
      "salt": "0x34aacb33113034695502337496d37e6daf87e3c59f4514442c7c71dc57ac0978",
      "assetIds": []
    },
    {
      "x": 4,
      "y": 95,
      "size": 1,
      "price": "1011000000000000000000",
      "reserved": "",
      "salt": "0x8221d1306c302c61ea020038cd07b6acf46a05ec29c0e087eebc63065cf8eb49",
      "assetIds": []
    },
    {
      "x": 5,
      "y": 40,
      "size": 1,
      "price": "1011000000000000000000",
      "reserved": "",
      "salt": "0xc6356232abe405e95211385eddba7b9726cf5576def78c9e294818c3c25f43ee",
      "assetIds": []
    },
    {
      "x": 5,
      "y": 41,
      "size": 1,
      "price": "1011000000000000000000",
      "reserved": "",
      "salt": "0x3675da89f9a1c27e5601d8397d521652e29d624e9e225d40abbbaa1bbd769c5c",
      "assetIds": []
    },
    {
      "x": 5,
      "y": 42,
      "size": 1,
      "price": "1011000000000000000000",
      "reserved": "",
      "salt": "0x2f3cd054a11b41719693a2ff14cdfc3f9b31eb6d336b75b6f00e88da7b896b1a",
      "assetIds": []
    },
    {
      "x": 5,
      "y": 43,
      "size": 1,
      "price": "1011000000000000000000",
      "reserved": "",
      "salt": "0x2a8ffc3b1e8e16fdeaea05404a9d5fe19dd379113cbcb9e2f0be04dfa3e85cb9",
      "assetIds": []
    },
    {
      "x": 5,
      "y": 44,
      "size": 1,
      "price": "1011000000000000000000",
      "reserved": "",
      "salt": "0x50c2999725d0a24f9316f7c4684a4ab1d4e76facb228091ca2b968fd6e0877b9",
      "assetIds": []
    },
    {
      "x": 5,
      "y": 45,
      "size": 1,
      "price": "1011000000000000000000",
      "reserved": "",
      "salt": "0x07ac7eb679c70adf6c953fa3bea06d9adff3926e143ecaae82b5c903eb296f59",
      "assetIds": []
    },
    {
      "x": 5,
      "y": 46,
      "size": 1,
      "price": "1011000000000000000000",
      "reserved": "",
      "salt": "0x5ba7db48c307aeb7770aa0ce5ea51b7a0dffe2d9124c925a471741b11e076303",
      "assetIds": []
    },
    {
      "x": 5,
      "y": 47,
      "size": 1,
      "price": "1011000000000000000000",
      "reserved": "",
      "salt": "0xdb1bd75b19cd597d900a7a733b9db8e23f00097a8af09c15d427b35e5906b629",
      "assetIds": []
    },
    {
      "x": 5,
      "y": 48,
      "size": 1,
      "price": "1011000000000000000000",
      "reserved": "",
      "salt": "0x84ac6270d0875157c7d12719a6944a585b2615f05326cea2ed2911619d474375",
      "assetIds": []
    },
    {
      "x": 5,
      "y": 49,
      "size": 1,
      "price": "1011000000000000000000",
      "reserved": "0x7a9fe22691c811ea339d9b73150e6911a5343dca",
      "salt": "0x229e2dc2c67bb7a605d7d036c5458e82a8d8a732d43459baaed4e10300ae3bf9",
      "assetIds": []
    },
    {
      "x": 5,
      "y": 50,
      "size": 1,
      "price": "1011000000000000000000",
      "reserved": "",
      "salt": "0x5a81270b954f5de6600a643dded0d0bf8e63a99747d315ad04383ffc77c5b21e",
      "assetIds": []
    },
    {
      "x": 5,
      "y": 51,
      "size": 1,
      "price": "1011000000000000000000",
      "reserved": "",
      "salt": "0x9bc9b79e4e0696b6420f4f23260ed213d627c7ab704652cec7f4d7c73c3ed08b",
      "assetIds": []
    },
    {
      "x": 5,
      "y": 52,
      "size": 1,
      "price": "1011000000000000000000",
      "reserved": "",
      "salt": "0xc54817f5adb3d7249f02d8df7dce5d6da93a4be472f11bb24566ba6086a7053d",
      "assetIds": []
    },
    {
      "x": 5,
      "y": 53,
      "size": 1,
      "price": "1011000000000000000000",
      "reserved": "",
      "salt": "0xaf0a64bf25ee5948e016c4527b8786330b558d86339bb0ed328a72a6a8746b3c",
      "assetIds": []
    },
    {
      "x": 5,
      "y": 57,
      "size": 1,
      "price": "1011000000000000000000",
      "reserved": "0x7a9fe22691c811ea339d9b73150e6911a5343dca",
      "salt": "0xc2369de044ac068d6d9441568f24140779c6fab58d981efd7d37292ea30a1b2a",
      "assetIds": []
    },
    {
      "x": 5,
      "y": 58,
      "size": 1,
      "price": "1011000000000000000000",
      "reserved": "",
      "salt": "0x39f7d3331bc0b05074707031c203b4766ac586f85989661549af6fe1f8d8e576",
      "assetIds": []
    },
    {
      "x": 5,
      "y": 59,
      "size": 1,
      "price": "1011000000000000000000",
      "reserved": "",
      "salt": "0x0d5b2604176cd66f48a9f54a1dc615c6331ff26640206d99b933f898f2d9baa2",
      "assetIds": []
    },
    {
      "x": 5,
      "y": 66,
      "size": 1,
      "price": "1011000000000000000000",
      "reserved": "",
      "salt": "0x6d567a2c36e17579568df42ccbe1891a72f3728e2560a732245279465495e0e6",
      "assetIds": []
    },
    {
      "x": 5,
      "y": 67,
      "size": 1,
      "price": "1011000000000000000000",
      "reserved": "",
      "salt": "0x6aa934cbf7be475904efbad7e8d6731a4e050a7267822c7f83ecded223be53b8",
      "assetIds": []
    },
    {
      "x": 5,
      "y": 68,
      "size": 1,
      "price": "1011000000000000000000",
      "reserved": "",
      "salt": "0x5a29d4d3b875efe5f536a1b50d24032127e24739144f341a648fa5ba335cbcfd",
      "assetIds": []
    },
    {
      "x": 5,
      "y": 69,
      "size": 1,
      "price": "1011000000000000000000",
      "reserved": "",
      "salt": "0xd9cd7c1e47ed8e710b247f026efefdaae9d09496bd74e8e12507ab1040ce08bd",
      "assetIds": []
    },
    {
      "x": 5,
      "y": 70,
      "size": 1,
      "price": "1011000000000000000000",
      "reserved": "",
      "salt": "0xce7272dc46ff0bc5f709f86d1b6b6d3ea43c6242e7aad2e34199272b215657a9",
      "assetIds": []
    },
    {
      "x": 5,
      "y": 71,
      "size": 1,
      "price": "1011000000000000000000",
      "reserved": "",
      "salt": "0x40e2e4ed9aaae82e23cc159cd6d345a42a5237eda15896dcad794e6fdf95ce45",
      "assetIds": []
    },
    {
      "x": 5,
      "y": 90,
      "size": 1,
      "price": "1011000000000000000000",
      "reserved": "",
      "salt": "0x8e0b1d055b62432f5b817dd6e4be2a4b7d719940301d65495d1889655a21b1be",
      "assetIds": []
    },
    {
      "x": 5,
      "y": 91,
      "size": 1,
      "price": "1011000000000000000000",
      "reserved": "",
      "salt": "0x36403cd232d229903fab78033ba9c5a615dba33837b5d3e7bbb3439a6e4786fd",
      "assetIds": []
    },
    {
      "x": 5,
      "y": 92,
      "size": 1,
      "price": "1011000000000000000000",
      "reserved": "",
      "salt": "0xdd0595bd4f043e565274438905f959fb92b1da2db69ab68319e4c9b333e69c70",
      "assetIds": []
    },
    {
      "x": 5,
      "y": 93,
      "size": 1,
      "price": "1011000000000000000000",
      "reserved": "",
      "salt": "0xf9ee32f81a61433148f38cabeebdf7ceea136148bb4801b4a276fc1870b62ca7",
      "assetIds": []
    },
    {
      "x": 5,
      "y": 94,
      "size": 1,
      "price": "1011000000000000000000",
      "reserved": "",
      "salt": "0x2a19b80e0e974331173f97056706cd58da8784d921d5034a1fdd7a1072150c1c",
      "assetIds": []
    },
    {
      "x": 5,
      "y": 95,
      "size": 1,
      "price": "1011000000000000000000",
      "reserved": "",
      "salt": "0x931ee04fe5b743d90bc029c7db940be45eef0051a4133f511bdb8cad07f3cd1f",
      "assetIds": []
    },
    {
      "x": 6,
      "y": 40,
      "size": 1,
      "price": "1011000000000000000000",
      "reserved": "",
      "salt": "0xf7ef226552586491bd9a62d563addbc7554301432a592db2e51b64499fa571fe",
      "assetIds": []
    },
    {
      "x": 6,
      "y": 41,
      "size": 1,
      "price": "1011000000000000000000",
      "reserved": "",
      "salt": "0xdcc32a9f56358335949db7d0f4f82a33c1cd8e786b9c255c1c4790f5ccab6cab",
      "assetIds": []
    },
    {
      "x": 6,
      "y": 42,
      "size": 1,
      "price": "1011000000000000000000",
      "reserved": "",
      "salt": "0x7c1ace3d1074096f2869a875c9bb87ff7d8f08deadc6b29f49604b556f9ccc46",
      "assetIds": []
    },
    {
      "x": 6,
      "y": 43,
      "size": 1,
      "price": "1011000000000000000000",
      "reserved": "",
      "salt": "0xeab8a90933bb366a444d55b8e6456c49cdfeff37357eb4677d8d8835809ab171",
      "assetIds": []
    },
    {
      "x": 6,
      "y": 44,
      "size": 1,
      "price": "1011000000000000000000",
      "reserved": "0x7a9fe22691c811ea339d9b73150e6911a5343dca",
      "salt": "0x717af57dcadfa48770800596bc85e8551c43e93162d03fe7dbb2992a97f1af9b",
      "assetIds": []
    },
    {
      "x": 6,
      "y": 45,
      "size": 1,
      "price": "1011000000000000000000",
      "reserved": "",
      "salt": "0xd653ae47ea872bd645f31f36026d8255b09f73cd173e4215282e6f24aab0ec22",
      "assetIds": []
    },
    {
      "x": 6,
      "y": 46,
      "size": 1,
      "price": "1011000000000000000000",
      "reserved": "",
      "salt": "0x126da7147dfa906eb0c9271c357b2d6c34d83433396786bc0b8f919a7ec978e3",
      "assetIds": []
    },
    {
      "x": 6,
      "y": 47,
      "size": 1,
      "price": "1011000000000000000000",
      "reserved": "",
      "salt": "0x29dd47932ccc80b10e9889d29c88fdf24d1786ac4c582c1139310993151c882b",
      "assetIds": []
    },
    {
      "x": 6,
      "y": 48,
      "size": 1,
      "price": "1011000000000000000000",
      "reserved": "",
      "salt": "0xb1aafa1113e54a8b008d74292c67c46f7b0154daad4051ad99e5511f8e43383b",
      "assetIds": []
    },
    {
      "x": 6,
      "y": 49,
      "size": 1,
      "price": "1011000000000000000000",
      "reserved": "",
      "salt": "0x67ee68ea850b70b4a5e322af14d4813963f6579f2cdb2a5f63321f84e2a6b6b1",
      "assetIds": []
    },
    {
      "x": 6,
      "y": 50,
      "size": 1,
      "price": "1011000000000000000000",
      "reserved": "",
      "salt": "0x5b0f65b9de1f55d51366c06615e42e998a13fe7a2defcd2092f473fc0897f8dd",
      "assetIds": []
    },
    {
      "x": 6,
      "y": 51,
      "size": 1,
      "price": "1011000000000000000000",
      "reserved": "",
      "salt": "0xd8bc562246b38bfacf625815193352262a0f9759a625ddb3435d6fd111c52445",
      "assetIds": []
    },
    {
      "x": 6,
      "y": 52,
      "size": 1,
      "price": "1011000000000000000000",
      "reserved": "",
      "salt": "0xb5b19e5425d2a36a8b78e9157dcd128e5438a4a3990ff41953a50c62d1fc17d9",
      "assetIds": []
    },
    {
      "x": 6,
      "y": 53,
      "size": 1,
      "price": "1011000000000000000000",
      "reserved": "",
      "salt": "0xc56594232c57c4c3d0636cacc074f82ebdc96e46563f192f9091237317207d95",
      "assetIds": []
    },
    {
      "x": 6,
      "y": 60,
      "size": 1,
      "price": "4683000000000000000000",
      "reserved": "",
      "salt": "0xb3a14894eeec938a5700b49fdb394d801bee58583bda10dfc4dd55658db658aa",
      "assetIds": [
        "41506478881403507969696680653240014914910929820314476107906210059990541021186"
      ]
    },
    {
      "x": 6,
      "y": 61,
      "size": 1,
      "price": "1011000000000000000000",
      "reserved": "0x7a9fe22691c811ea339d9b73150e6911a5343dca",
      "salt": "0x36b29b067ff967a48caf19733f6fa7c578807ab8491939e491f7a17f91085221",
      "assetIds": []
    },
    {
      "x": 6,
      "y": 62,
      "size": 1,
      "price": "1011000000000000000000",
      "reserved": "",
      "salt": "0x4cca5f94bf9a6c7368b9fd259b9f7ab070475fa6103f13087f3f9806d078516a",
      "assetIds": []
    },
    {
      "x": 6,
      "y": 63,
      "size": 1,
      "price": "4683000000000000000000",
      "reserved": "",
      "salt": "0x92e0e862ff81823c5321c4a6c39ab19a2ec653c1e2f6434bcdc0821103313c1b",
      "assetIds": [
        "41506478881403507969696680653240014914910929820314476107906210059990541021186"
      ]
    },
    {
      "x": 6,
      "y": 64,
      "size": 1,
      "price": "4683000000000000000000",
      "reserved": "",
      "salt": "0x8999279f459d0ebb3a4a2f45ef6fd8dc9aa16bc5625631ec0d0da670568a85f6",
      "assetIds": [
        "41506478881403507969696680653240014914910929820314476107906210059990541021186"
      ]
    },
    {
      "x": 6,
      "y": 65,
      "size": 1,
      "price": "1011000000000000000000",
      "reserved": "0x7a9fe22691c811ea339d9b73150e6911a5343dca",
      "salt": "0x281449c4dfb68a69cabb3557564bae6c8cc5d45e1783e4a9f2cca3fac6cf4649",
      "assetIds": []
    },
    {
      "x": 6,
      "y": 66,
      "size": 1,
      "price": "1011000000000000000000",
      "reserved": "",
      "salt": "0xba00d267ec674de7dcf0dfdeb7a3bded6425bd96e596a00383202fb2d07ab7ca",
      "assetIds": []
    },
    {
      "x": 6,
      "y": 67,
      "size": 1,
      "price": "1011000000000000000000",
      "reserved": "0x7a9fe22691c811ea339d9b73150e6911a5343dca",
      "salt": "0xd831f55e960235a246167ee1f8074a9e3789ec983c799b60080966a84aa6c53f",
      "assetIds": []
    },
    {
      "x": 6,
      "y": 68,
      "size": 1,
      "price": "1011000000000000000000",
      "reserved": "",
      "salt": "0x90f052aca627a11c0171357e0dedcc21be927212d9bdfdf83dbcbcb0d7431dc6",
      "assetIds": []
    },
    {
      "x": 6,
      "y": 69,
      "size": 1,
      "price": "1011000000000000000000",
      "reserved": "",
      "salt": "0x25d2760cf837e5320516907efb54748a2dcc032f6fc536bb224effc6a6f39fa4",
      "assetIds": []
    },
    {
      "x": 6,
      "y": 70,
      "size": 1,
      "price": "1011000000000000000000",
      "reserved": "",
      "salt": "0x0e0fde151660d0504b2d28cb86742849d2137161bac9b5010dc6f342e5fb2abf",
      "assetIds": []
    },
    {
      "x": 6,
      "y": 71,
      "size": 1,
      "price": "1011000000000000000000",
      "reserved": "",
      "salt": "0xda874b105508ad9ef2b12e6dcd3b6a8d1e473c4376694d8ad05e37c76747f219",
      "assetIds": []
    },
    {
      "x": 6,
      "y": 84,
      "size": 1,
      "price": "1011000000000000000000",
      "reserved": "0x7a9fe22691c811ea339d9b73150e6911a5343dca",
      "salt": "0x0476118c70123e4011e4c8c638434ec85605da1b34293bd53d5da463d7c9238d",
      "assetIds": []
    },
    {
      "x": 6,
      "y": 85,
      "size": 1,
      "price": "1011000000000000000000",
      "reserved": "",
      "salt": "0x0cdedbe0324d7fc23ec1e735e2fa709d0e7857e2af6777bb1c16af5617ed5bc8",
      "assetIds": []
    },
    {
      "x": 6,
      "y": 86,
      "size": 1,
      "price": "1011000000000000000000",
      "reserved": "",
      "salt": "0x3ce246527481f1d6dd4be18fdabd5a5e162b21c8dc124a69e12d3ac83903c938",
      "assetIds": []
    },
    {
      "x": 6,
      "y": 87,
      "size": 1,
      "price": "1011000000000000000000",
      "reserved": "0x7a9fe22691c811ea339d9b73150e6911a5343dca",
      "salt": "0x70c554c12f1be5e66428dcbb484ff7945eb7e35e63b0b3c51ed1c53a3f002bd5",
      "assetIds": []
    },
    {
      "x": 6,
      "y": 88,
      "size": 1,
      "price": "1011000000000000000000",
      "reserved": "",
      "salt": "0xefccc563c8f7584dec50bb9902bb3af13ff1fb6c165db4579e747e386a5118a1",
      "assetIds": []
    },
    {
      "x": 6,
      "y": 89,
      "size": 1,
      "price": "1011000000000000000000",
      "reserved": "",
      "salt": "0xef1f3eec97ed562d008b08c92e87ea8e6094653eb65679640066dff5fe0417e7",
      "assetIds": []
    },
    {
      "x": 6,
      "y": 90,
      "size": 1,
      "price": "1011000000000000000000",
      "reserved": "",
      "salt": "0x2d6158af79651515652893951a5c4c00ce222f74c62c7dfe94980aa5d214c68c",
      "assetIds": []
    },
    {
      "x": 6,
      "y": 91,
      "size": 1,
      "price": "1011000000000000000000",
      "reserved": "",
      "salt": "0x3363cc03281687c318a0b44154de81cbc11f533c739e0f6ae99abc8225f288f2",
      "assetIds": []
    },
    {
      "x": 6,
      "y": 92,
      "size": 1,
      "price": "1011000000000000000000",
      "reserved": "",
      "salt": "0x907f7acabe8dab20f1e73d7376a5c8e5091d8ad42470af4f240cf44b510ba44c",
      "assetIds": []
    },
    {
      "x": 6,
      "y": 93,
      "size": 1,
      "price": "1011000000000000000000",
      "reserved": "",
      "salt": "0x4fbbeb09b3d6a68c24784ae12b632727e487b0864b2ff306f3f094d28b7218e2",
      "assetIds": []
    },
    {
      "x": 6,
      "y": 94,
      "size": 1,
      "price": "1011000000000000000000",
      "reserved": "",
      "salt": "0x38f63d3a67ffd6af7856e0105eef29788b52abb6380884c8eb8c95a075beb140",
      "assetIds": []
    },
    {
      "x": 6,
      "y": 95,
      "size": 1,
      "price": "1011000000000000000000",
      "reserved": "",
      "salt": "0x13f1b18c740802f4344b237b33ce3d62205cb457d34b963d2e676b5f005767c3",
      "assetIds": []
    },
    {
      "x": 7,
      "y": 40,
      "size": 1,
      "price": "1011000000000000000000",
      "reserved": "",
      "salt": "0xe38c9e60d88eb0226deaa627febed489964ca461242d036230d311c1928e6ce7",
      "assetIds": []
    },
    {
      "x": 7,
      "y": 41,
      "size": 1,
      "price": "1011000000000000000000",
      "reserved": "",
      "salt": "0x5949911cc7c240eee16502c62e6545f944d399711ef14ac2816bf6ab85323a87",
      "assetIds": []
    },
    {
      "x": 7,
      "y": 42,
      "size": 1,
      "price": "1011000000000000000000",
      "reserved": "0x7a9fe22691c811ea339d9b73150e6911a5343dca",
      "salt": "0x3c7b1fda08d77e0daeacccb331005cf51967be90d9c80df9a1064c89b469b0e0",
      "assetIds": []
    },
    {
      "x": 7,
      "y": 43,
      "size": 1,
      "price": "1011000000000000000000",
      "reserved": "",
      "salt": "0xd4605ef2d4e7bb5b1158a70c6c28fd09cdb2d7c7bf4f2edea474de230314c2f4",
      "assetIds": []
    },
    {
      "x": 7,
      "y": 44,
      "size": 1,
      "price": "1011000000000000000000",
      "reserved": "",
      "salt": "0x3bb6c541cda0c31ee97d761a36e329e004062d41530961da41d343aefb90d1d2",
      "assetIds": []
    },
    {
      "x": 7,
      "y": 45,
      "size": 1,
      "price": "1011000000000000000000",
      "reserved": "",
      "salt": "0x1e6729eaa9975146e0a32c4348b8480d03137a5768382e8a969fe23955803fbe",
      "assetIds": []
    },
    {
      "x": 7,
      "y": 46,
      "size": 1,
      "price": "1011000000000000000000",
      "reserved": "",
      "salt": "0xac396850300b7119c5f99a48387fc00ec575ab4b242065eb4c7a92d22bc42b11",
      "assetIds": []
    },
    {
      "x": 7,
      "y": 47,
      "size": 1,
      "price": "1011000000000000000000",
      "reserved": "",
      "salt": "0x5e7cece08fdc46a1bc87f03e55dc27591cb7369126d7ab676eb4596ac861988e",
      "assetIds": []
    },
    {
      "x": 7,
      "y": 48,
      "size": 1,
      "price": "1011000000000000000000",
      "reserved": "",
      "salt": "0x0b1c7cb2f2238008dc790f6c819ffb46c63e26a19a0402f6d74bbc91aa308b62",
      "assetIds": []
    },
    {
      "x": 7,
      "y": 49,
      "size": 1,
      "price": "1011000000000000000000",
      "reserved": "",
      "salt": "0x74663c37aa5f567af16ddbd30088208147958380a39115092b8b800593b2eb92",
      "assetIds": []
    },
    {
      "x": 7,
      "y": 50,
      "size": 1,
      "price": "1011000000000000000000",
      "reserved": "",
      "salt": "0x3edebb2f690083adef148874e35a3bf0e0e7c63eeb5ff3a7beb1641e74d4ef4d",
      "assetIds": []
    },
    {
      "x": 7,
      "y": 51,
      "size": 1,
      "price": "1011000000000000000000",
      "reserved": "",
      "salt": "0xe267aa4dbef630cca55d8dab0431e57a5c7e6a310f3be87d511700696869e90c",
      "assetIds": []
    },
    {
      "x": 7,
      "y": 52,
      "size": 1,
      "price": "1011000000000000000000",
      "reserved": "0x7a9fe22691c811ea339d9b73150e6911a5343dca",
      "salt": "0xae76c8b69b0b0f73439602d8bd7888d6027ba64dcefb5006d1e4437c545d46e1",
      "assetIds": []
    },
    {
      "x": 7,
      "y": 53,
      "size": 1,
      "price": "1011000000000000000000",
      "reserved": "",
      "salt": "0xefb35193a4bc186ac9e2bd9e80e5622a5cae282361c888ab055b654fc5631c5a",
      "assetIds": []
    },
    {
      "x": 7,
      "y": 60,
      "size": 1,
      "price": "4683000000000000000000",
      "reserved": "",
      "salt": "0xe54be3e302f7793a2bfb382284cb04420dfce3ece0b976ec60e88c2d700258e2",
      "assetIds": [
        "41506478881403507969696680653240014914910929820314476107906210059990541021186"
      ]
    },
    {
      "x": 7,
      "y": 61,
      "size": 1,
      "price": "4683000000000000000000",
      "reserved": "",
      "salt": "0xf2974ba6439151a08f214b7ad58754816282f90de3190150ffb101458193fb78",
      "assetIds": [
        "41506478881403507969696680653240014914910929820314476107906210059990541021186"
      ]
    },
    {
      "x": 7,
      "y": 62,
      "size": 1,
      "price": "4683000000000000000000",
      "reserved": "",
      "salt": "0x830f5af7115f4dc3c6a2b5f0df535bbebd7e221b0d055b1ff6c86e406e97becf",
      "assetIds": [
        "41506478881403507969696680653240014914910929820314476107906210059990541021186"
      ]
    },
    {
      "x": 7,
      "y": 63,
      "size": 1,
      "price": "4683000000000000000000",
      "reserved": "",
      "salt": "0xf5cd6546451ca274a63a2bf8c9dccca2b87a8c7a7cac637fec0184bd18d3be1c",
      "assetIds": [
        "41506478881403507969696680653240014914910929820314476107906210059990541021186"
      ]
    },
    {
      "x": 7,
      "y": 64,
      "size": 1,
      "price": "4683000000000000000000",
      "reserved": "",
      "salt": "0x5ba7f0659f2fa251c00a93942c3af112d2217402be7c08de97edad5b8fc16192",
      "assetIds": [
        "41506478881403507969696680653240014914910929820314476107906210059990541021186"
      ]
    },
    {
      "x": 7,
      "y": 65,
      "size": 1,
      "price": "1011000000000000000000",
      "reserved": "0x7a9fe22691c811ea339d9b73150e6911a5343dca",
      "salt": "0x27fee4650caaae0db93634f037a0322cae9a86dccd59519ecaca2ac56c846de4",
      "assetIds": []
    },
    {
      "x": 7,
      "y": 66,
      "size": 1,
      "price": "1011000000000000000000",
      "reserved": "",
      "salt": "0xaef6b36d7d935eac2c9c812d9cbada77fb055c4a638b89dded3bd74f5bcac1a3",
      "assetIds": []
    },
    {
      "x": 7,
      "y": 67,
      "size": 1,
      "price": "1011000000000000000000",
      "reserved": "",
      "salt": "0xb88531e5952f30c756410dd935bd27e66ec8e80807825c3760888588f66f1944",
      "assetIds": []
    },
    {
      "x": 7,
      "y": 68,
      "size": 1,
      "price": "1011000000000000000000",
      "reserved": "",
      "salt": "0xd5c6973ae4e98e0f7f134eccbcd36096284030bb8245c0c503b7c9fbd51461f7",
      "assetIds": []
    },
    {
      "x": 7,
      "y": 69,
      "size": 1,
      "price": "1011000000000000000000",
      "reserved": "",
      "salt": "0x7e40ee6c3c93a77ec66fe2ba7af9fbc69b40c84c1d74c0646660b8a85f2143a8",
      "assetIds": []
    },
    {
      "x": 7,
      "y": 70,
      "size": 1,
      "price": "1011000000000000000000",
      "reserved": "0x7a9fe22691c811ea339d9b73150e6911a5343dca",
      "salt": "0xefca45c43390d7925b083430926ae78c664404e1cedeb1e250c578bb77858a71",
      "assetIds": []
    },
    {
      "x": 7,
      "y": 71,
      "size": 1,
      "price": "1011000000000000000000",
      "reserved": "",
      "salt": "0x3ddf2fb5b4ddf39b7025302ddfaca835b02d49c2efb641f32958251d72623506",
      "assetIds": []
    },
    {
      "x": 7,
      "y": 84,
      "size": 1,
      "price": "1011000000000000000000",
      "reserved": "",
      "salt": "0x049674d6c773dd75cddbf61a7d578aa6b6ffdb9a3eabe149a84bbec0f34d9190",
      "assetIds": []
    },
    {
      "x": 7,
      "y": 85,
      "size": 1,
      "price": "1011000000000000000000",
      "reserved": "",
      "salt": "0xc0762abfb23b0f12c7adc72defd0b430d8dbb6a937608b76a4b67306283b334c",
      "assetIds": []
    },
    {
      "x": 7,
      "y": 86,
      "size": 1,
      "price": "1011000000000000000000",
      "reserved": "",
      "salt": "0x355d5fe4d4a07c5200a0549a131916e9fa040088a88d5169e1a877735444d959",
      "assetIds": []
    },
    {
      "x": 7,
      "y": 87,
      "size": 1,
      "price": "1011000000000000000000",
      "reserved": "",
      "salt": "0xfb8d503ce6e0f5bc78e8dd88a73dc113a2638cb8e94a4005aa1e312e71b1beb0",
      "assetIds": []
    },
    {
      "x": 7,
      "y": 88,
      "size": 1,
      "price": "1011000000000000000000",
      "reserved": "",
      "salt": "0xc2821f028a67425e9df8a5520a0fc8cb64355392ac193b1b602a4f0db95f4eb8",
      "assetIds": []
    },
    {
      "x": 7,
      "y": 89,
      "size": 1,
      "price": "1011000000000000000000",
      "reserved": "0x7a9fe22691c811ea339d9b73150e6911a5343dca",
      "salt": "0x21a7ed6722221187ee7a948ed5cf9575154d6c7ec09af0a785dc84a44cfb5be2",
      "assetIds": []
    },
    {
      "x": 7,
      "y": 90,
      "size": 1,
      "price": "1011000000000000000000",
      "reserved": "",
      "salt": "0x561fc68fa5921b6cf7efa647eb664211159f966e375b2bf0f06a0079c7ebbb36",
      "assetIds": []
    },
    {
      "x": 7,
      "y": 91,
      "size": 1,
      "price": "1011000000000000000000",
      "reserved": "",
      "salt": "0x685fed396af3e643e7ec1feca79db209b5155cad63a4a85573a792b1f1098c04",
      "assetIds": []
    },
    {
      "x": 7,
      "y": 92,
      "size": 1,
      "price": "1011000000000000000000",
      "reserved": "",
      "salt": "0x5395e74d701ca3befed331c28386a51cac31796e062405db1be33772e53be043",
      "assetIds": []
    },
    {
      "x": 7,
      "y": 93,
      "size": 1,
      "price": "1011000000000000000000",
      "reserved": "",
      "salt": "0xcdf76c4cb641e3053b9f5baea3957f19bad5ca2c8f0d98f70e4902b93d82bfb6",
      "assetIds": []
    },
    {
      "x": 7,
      "y": 94,
      "size": 1,
      "price": "1011000000000000000000",
      "reserved": "0x7a9fe22691c811ea339d9b73150e6911a5343dca",
      "salt": "0x512880f7768020e84523b5c5432e03b9ff6595005c3af5ab8126778cd27a794a",
      "assetIds": []
    },
    {
      "x": 7,
      "y": 95,
      "size": 1,
      "price": "1011000000000000000000",
      "reserved": "",
      "salt": "0xcb037b720cb04efa1fb6a372272d0bf3240d64c98187b84d9918c82cbf1e7b3e",
      "assetIds": []
    },
    {
      "x": 8,
      "y": 40,
      "size": 1,
      "price": "1011000000000000000000",
      "reserved": "",
      "salt": "0x6da4207a1587c8c5a59e47e30d2a5f5d166db60c715180421afdb527b88c19a1",
      "assetIds": []
    },
    {
      "x": 8,
      "y": 41,
      "size": 1,
      "price": "1011000000000000000000",
      "reserved": "",
      "salt": "0xcbe1401bb18d8ffd1ddad602a6d250175ca16a7889f881d4c1355467257ef756",
      "assetIds": []
    },
    {
      "x": 8,
      "y": 42,
      "size": 1,
      "price": "1011000000000000000000",
      "reserved": "0x7a9fe22691c811ea339d9b73150e6911a5343dca",
      "salt": "0x463b04a2df5662d01d260da86b235872c4c1173534b09eaf60e0c1ccc0aa3a84",
      "assetIds": []
    },
    {
      "x": 8,
      "y": 43,
      "size": 1,
      "price": "1011000000000000000000",
      "reserved": "",
      "salt": "0x66376217e101574208424720d8eb3f5661b1ba5817b896f3152f0eaf8cee9cd9",
      "assetIds": []
    },
    {
      "x": 8,
      "y": 44,
      "size": 1,
      "price": "1011000000000000000000",
      "reserved": "",
      "salt": "0x57aa15a6bc7db10ad10808ee5f1ae4d5e49175baf1bf7abe533433e235293383",
      "assetIds": []
    },
    {
      "x": 8,
      "y": 45,
      "size": 1,
      "price": "1011000000000000000000",
      "reserved": "",
      "salt": "0xb53f7e571d1da0063d92092d3aa5502a44f48d8fd7ef7798dd27e340260328ee",
      "assetIds": []
    },
    {
      "x": 8,
      "y": 46,
      "size": 1,
      "price": "1011000000000000000000",
      "reserved": "0x7a9fe22691c811ea339d9b73150e6911a5343dca",
      "salt": "0xf4a4a416f48cf507bd52c751a5ef57cb8443725725ff29f0491b4ffa620a152b",
      "assetIds": []
    },
    {
      "x": 8,
      "y": 47,
      "size": 1,
      "price": "1011000000000000000000",
      "reserved": "",
      "salt": "0x742fdbe3d0fd2c0558a441ed86664e78305b75c57dbd2855f9f1569ce7a3d834",
      "assetIds": []
    },
    {
      "x": 8,
      "y": 48,
      "size": 1,
      "price": "1011000000000000000000",
      "reserved": "",
      "salt": "0x938a61aa1031fc53ebbaa3dabb7e002b0867cee1a23b1b893a2d571573732c91",
      "assetIds": []
    },
    {
      "x": 8,
      "y": 49,
      "size": 1,
      "price": "1011000000000000000000",
      "reserved": "",
      "salt": "0x8ce6a0f950479e0da993ec75af4ec3c7f17c6012d7adad13455ba7b6ea38c1a6",
      "assetIds": []
    },
    {
      "x": 8,
      "y": 50,
      "size": 1,
      "price": "1011000000000000000000",
      "reserved": "0x7a9fe22691c811ea339d9b73150e6911a5343dca",
      "salt": "0x30710038dd4a0e43a083986e8711134073543b37c0be93aefa654d17e66980c8",
      "assetIds": []
    },
    {
      "x": 8,
      "y": 51,
      "size": 1,
      "price": "1011000000000000000000",
      "reserved": "",
      "salt": "0x33051c3873e3f745ccd9c11e9c38a2f9605c38c73ecef826d89be78fc63a9dc5",
      "assetIds": []
    },
    {
      "x": 8,
      "y": 52,
      "size": 1,
      "price": "1011000000000000000000",
      "reserved": "",
      "salt": "0x2c6ec7de13b0860075f2fe91689ba86509654a3e241db9fe4b80385d86293b24",
      "assetIds": []
    },
    {
      "x": 8,
      "y": 53,
      "size": 1,
      "price": "1011000000000000000000",
      "reserved": "",
      "salt": "0xa38c312dfeb8842c22ee2178912f5bdfa01eaf34ba6740e2eee49ba1eac02022",
      "assetIds": []
    },
    {
      "x": 8,
      "y": 60,
      "size": 1,
      "price": "4683000000000000000000",
      "reserved": "",
      "salt": "0x477da09af5aec82c2c5069f09f9c9f05585e67b0d33f55b86c2784ed7aa18c4a",
      "assetIds": [
        "41506478881403507969696680653240014914910929820314476107906210059990541021186"
      ]
    },
    {
      "x": 8,
      "y": 61,
      "size": 1,
      "price": "4683000000000000000000",
      "reserved": "",
      "salt": "0x9f770313f8ffa1590eebe9ab8a9c018ebc8eb2cdf1ecc131add27b5a13b8e688",
      "assetIds": [
        "41506478881403507969696680653240014914910929820314476107906210059990541021186"
      ]
    },
    {
      "x": 8,
      "y": 62,
      "size": 1,
      "price": "4683000000000000000000",
      "reserved": "",
      "salt": "0x1daf967098da3340388876e7769514573e4b51a4767cf90fe32604c4ac8a8c71",
      "assetIds": [
        "41506478881403507969696680653240014914910929820314476107906210059990541021186"
      ]
    },
    {
      "x": 8,
      "y": 63,
      "size": 1,
      "price": "4683000000000000000000",
      "reserved": "",
      "salt": "0x1d2d208f17c08446b2bb6db9c2020c86c3287179a9590a01ec4013388512f095",
      "assetIds": [
        "41506478881403507969696680653240014914910929820314476107906210059990541021186"
      ]
    },
    {
      "x": 8,
      "y": 64,
      "size": 1,
      "price": "4683000000000000000000",
      "reserved": "",
      "salt": "0x627debe771a96f926c0d206d295692032eb8989a7364f4e117b22148715088ca",
      "assetIds": [
        "41506478881403507969696680653240014914910929820314476107906210059990541021186"
      ]
    },
    {
      "x": 8,
      "y": 65,
      "size": 1,
      "price": "4683000000000000000000",
      "reserved": "",
      "salt": "0xe07cec5ce66f91affcd14d730c2bcb4883eed9327db63ddb9d434d6f54268676",
      "assetIds": [
        "41506478881403507969696680653240014914910929820314476107906210059990541021186"
      ]
    },
    {
      "x": 8,
      "y": 66,
      "size": 1,
      "price": "1011000000000000000000",
      "reserved": "",
      "salt": "0x2e28485ec9931fcd439e6161f08799fc5bd6fdcfee9fbe448daa5dd5efd25051",
      "assetIds": []
    },
    {
      "x": 8,
      "y": 67,
      "size": 1,
      "price": "1011000000000000000000",
      "reserved": "",
      "salt": "0x9b474926ee86b06fea95847e2c9cbaff5eeeda0d1719f60b83d1ddc7942a3e81",
      "assetIds": []
    },
    {
      "x": 8,
      "y": 68,
      "size": 1,
      "price": "1011000000000000000000",
      "reserved": "",
      "salt": "0x6f0559ef59ec25480934109763d67ec6788ef70d1dd6df1407dd0068ccb4ab49",
      "assetIds": []
    },
    {
      "x": 8,
      "y": 69,
      "size": 1,
      "price": "1011000000000000000000",
      "reserved": "",
      "salt": "0xf0cbbb5178a6b4177c6a94df43e09c861644581fe288c93a3529eb4cdf3b9a16",
      "assetIds": []
    },
    {
      "x": 8,
      "y": 70,
      "size": 1,
      "price": "1011000000000000000000",
      "reserved": "",
      "salt": "0xa557e7884cf3e40fba07a4e7b7491063fceda0fae0ee94a9133709dae99f3be9",
      "assetIds": []
    },
    {
      "x": 8,
      "y": 71,
      "size": 1,
      "price": "1011000000000000000000",
      "reserved": "",
      "salt": "0xade30ab917df020c7851014dde5e897843027ee088783bdeb23ad87c3673526b",
      "assetIds": []
    },
    {
      "x": 8,
      "y": 84,
      "size": 1,
      "price": "1011000000000000000000",
      "reserved": "",
      "salt": "0xa883614d46b2810e1c13a76e8b052f4fbb2ef802a71cdd570f3e81ba395047c3",
      "assetIds": []
    },
    {
      "x": 8,
      "y": 85,
      "size": 1,
      "price": "1011000000000000000000",
      "reserved": "",
      "salt": "0xb0ecdec6c4ccf337c8ff5fdd2c93cf736e50934f80af36cbccd65bedc4a854cb",
      "assetIds": []
    },
    {
      "x": 8,
      "y": 86,
      "size": 1,
      "price": "1011000000000000000000",
      "reserved": "",
      "salt": "0xf92eed26a2f61153c2925df48770ea70be78466a2a8f6788ec89fdd1f6551489",
      "assetIds": []
    },
    {
      "x": 8,
      "y": 87,
      "size": 1,
      "price": "1011000000000000000000",
      "reserved": "",
      "salt": "0xdb3a80166ee01d32da49af4a3e3c8ecc7aa0ccbed3907182292d66ad30fd77e4",
      "assetIds": []
    },
    {
      "x": 8,
      "y": 88,
      "size": 1,
      "price": "1011000000000000000000",
      "reserved": "",
      "salt": "0x3743d5cd2329369d862ad78e17fec66dbae88041b94df9c1edb080ddb0f55ea9",
      "assetIds": []
    },
    {
      "x": 8,
      "y": 89,
      "size": 1,
      "price": "1011000000000000000000",
      "reserved": "",
      "salt": "0xe15832a009028639b4803602137b55d20f173823b85d4f055007aff17072e068",
      "assetIds": []
    },
    {
      "x": 8,
      "y": 90,
      "size": 1,
      "price": "1011000000000000000000",
      "reserved": "",
      "salt": "0xe523dd159c6f12e7995364565efec4dae94b27118935ca9c9d6d5fa522b7f014",
      "assetIds": []
    },
    {
      "x": 8,
      "y": 91,
      "size": 1,
      "price": "1011000000000000000000",
      "reserved": "",
      "salt": "0xcaeaa98c04d0e2c9bc4e3147a922754661da5dbb68f5c735071f684f5fa34005",
      "assetIds": []
    },
    {
      "x": 8,
      "y": 92,
      "size": 1,
      "price": "1011000000000000000000",
      "reserved": "",
      "salt": "0x5c7737c8b30cfb360689db24b181faeb3c1ffeb90d562e08d81975694bd16e54",
      "assetIds": []
    },
    {
      "x": 8,
      "y": 93,
      "size": 1,
      "price": "1011000000000000000000",
      "reserved": "0x7a9fe22691c811ea339d9b73150e6911a5343dca",
      "salt": "0x021ebbb385b06b3a064b713eba308c3583b6a45e6f542d2947310369d6c7b872",
      "assetIds": []
    },
    {
      "x": 8,
      "y": 94,
      "size": 1,
      "price": "1011000000000000000000",
      "reserved": "",
      "salt": "0xc7e413ecfa9fffbed9c465cc79cfd35f541c423d35143cf3b924bd9202622933",
      "assetIds": []
    },
    {
      "x": 8,
      "y": 95,
      "size": 1,
      "price": "1011000000000000000000",
      "reserved": "",
      "salt": "0xcc1c20e3cca6463e2739891acbfc28b9fa7a9f80e959f493e28245a816017d59",
      "assetIds": []
    },
    {
      "x": 9,
      "y": 40,
      "size": 1,
      "price": "1011000000000000000000",
      "reserved": "",
      "salt": "0x0aa33449b0da58f56a47f3cf5c663e142ab7eba9c2148a94d713d5fc5b4efe44",
      "assetIds": []
    },
    {
      "x": 9,
      "y": 41,
      "size": 1,
      "price": "1011000000000000000000",
      "reserved": "",
      "salt": "0x61a15446072becbb5b915b32a393908ca8d43bcb7a9d05b8b7ef27358b6ce923",
      "assetIds": []
    },
    {
      "x": 9,
      "y": 45,
      "size": 1,
      "price": "1011000000000000000000",
      "reserved": "",
      "salt": "0xe26a4b448b5dd51f6351c32e105bf993a91f2c44e12dab7011a8e41af7bd04a4",
      "assetIds": []
    },
    {
      "x": 9,
      "y": 46,
      "size": 1,
      "price": "1011000000000000000000",
      "reserved": "",
      "salt": "0xcb3a504c0f3e00fb0e9dfa23580bd459851590f6dc81663843a5de9f1de952d8",
      "assetIds": []
    },
    {
      "x": 9,
      "y": 47,
      "size": 1,
      "price": "1011000000000000000000",
      "reserved": "",
      "salt": "0x1dc1e4d47c8bf37b58be859a245921173223fd07750e56b345af37b0996f97f2",
      "assetIds": []
    },
    {
      "x": 9,
      "y": 48,
      "size": 1,
      "price": "1011000000000000000000",
      "reserved": "",
      "salt": "0x9bf26999d06a65ea9ad754c07444177eed0ac8378c4c76d7841f082b7fcf288a",
      "assetIds": []
    },
    {
      "x": 9,
      "y": 49,
      "size": 1,
      "price": "1011000000000000000000",
      "reserved": "",
      "salt": "0x7cbefbd5773fb71db6b6de576a9d4880197fd440cecd1c47312da0b6a1d76e25",
      "assetIds": []
    },
    {
      "x": 9,
      "y": 50,
      "size": 1,
      "price": "1011000000000000000000",
      "reserved": "",
      "salt": "0x8814695164854559ec5a962bfddde32fb9740158b24b95ff0f18e2b53efc3ebc",
      "assetIds": []
    },
    {
      "x": 9,
      "y": 51,
      "size": 1,
      "price": "1011000000000000000000",
      "reserved": "",
      "salt": "0x3ddad2b70e250f026bd23386e83bef385ecbe102dbba18014d4a0865ef4a64e4",
      "assetIds": []
    },
    {
      "x": 9,
      "y": 52,
      "size": 1,
      "price": "1011000000000000000000",
      "reserved": "",
      "salt": "0x83eadd659625cbd063ad546da25e47e43108a048ef267e2814f0c3339ee96a31",
      "assetIds": []
    },
    {
      "x": 9,
      "y": 53,
      "size": 1,
      "price": "1011000000000000000000",
      "reserved": "",
      "salt": "0xc19891bff1a9ea99bc62c67f260e780cd33a5f2aca731eebf7a31c04991e0461",
      "assetIds": []
    },
    {
      "x": 9,
      "y": 60,
      "size": 1,
      "price": "4683000000000000000000",
      "reserved": "",
      "salt": "0xf1b6bde88795253f6a6098752b2f5520ec387ded4fcd2323b48045ca0728e8c5",
      "assetIds": [
        "41506478881403507969696680653240014914910929820314476107906210059990541021186"
      ]
    },
    {
      "x": 9,
      "y": 61,
      "size": 1,
      "price": "4683000000000000000000",
      "reserved": "",
      "salt": "0xc04aea6f42881125b1d82cfc0c9f6fd410834ce7af194ca77459867eae71e9cb",
      "assetIds": [
        "41506478881403507969696680653240014914910929820314476107906210059990541021186"
      ]
    },
    {
      "x": 9,
      "y": 62,
      "size": 1,
      "price": "4683000000000000000000",
      "reserved": "",
      "salt": "0x534c21afd226c2261f58fbe678722ead0f92108cb170c4196282256164626bca",
      "assetIds": [
        "41506478881403507969696680653240014914910929820314476107906210059990541021186"
      ]
    },
    {
      "x": 9,
      "y": 63,
      "size": 1,
      "price": "1011000000000000000000",
      "reserved": "0x7a9fe22691c811ea339d9b73150e6911a5343dca",
      "salt": "0x7e5e9c290e98bfa7c7518144f57bdaf5e57aeb73b1ac3f13bb7d16655034b0b4",
      "assetIds": []
    },
    {
      "x": 9,
      "y": 64,
      "size": 1,
      "price": "4683000000000000000000",
      "reserved": "",
      "salt": "0x36815a24849daae3581e717a942ceda7375743808029c3a5c1c83a7d31de6400",
      "assetIds": [
        "41506478881403507969696680653240014914910929820314476107906210059990541021186"
      ]
    },
    {
      "x": 9,
      "y": 65,
      "size": 1,
      "price": "4683000000000000000000",
      "reserved": "",
      "salt": "0xaacf6806299b5c13def9116e73c362f73b07d24d4cb04025f7dc9a87ec1c5c03",
      "assetIds": [
        "41506478881403507969696680653240014914910929820314476107906210059990541021186"
      ]
    },
    {
      "x": 9,
      "y": 66,
      "size": 1,
      "price": "4683000000000000000000",
      "reserved": "",
      "salt": "0x9e5eb9ea01d1fa27f701f3cac99262ee57360216243ac942a4df5b0c310d75b7",
      "assetIds": [
        "41506478881403507969696680653240014914910929820314476107906210059990541021186"
      ]
    },
    {
      "x": 9,
      "y": 67,
      "size": 1,
      "price": "1011000000000000000000",
      "reserved": "",
      "salt": "0xce7e099c51d626a35fc94369850e772dac04a2ac131ecf7ede84e78298fd52f9",
      "assetIds": []
    },
    {
      "x": 9,
      "y": 68,
      "size": 1,
      "price": "1011000000000000000000",
      "reserved": "0x7a9fe22691c811ea339d9b73150e6911a5343dca",
      "salt": "0x3ce09da3eea71799f259591d039cee4b035c44ad8a82c9af0aaac8726a0624bf",
      "assetIds": []
    },
    {
      "x": 9,
      "y": 69,
      "size": 1,
      "price": "1011000000000000000000",
      "reserved": "",
      "salt": "0xe6c06dc5ff0caef8ea9461efe64333490e45e1e68b60a7924ea4f4c27d793c2d",
      "assetIds": []
    },
    {
      "x": 9,
      "y": 70,
      "size": 1,
      "price": "1011000000000000000000",
      "reserved": "",
      "salt": "0x56c3d5d3b2cf776c5dca96c47d556b3bfb3464aeade382a993ad060fd0793175",
      "assetIds": []
    },
    {
      "x": 9,
      "y": 71,
      "size": 1,
      "price": "1011000000000000000000",
      "reserved": "",
      "salt": "0x58ddbe76804c0b72538ffdacd1f9c7da2ec096408719235a4e9a734adeae15a3",
      "assetIds": []
    },
    {
      "x": 9,
      "y": 90,
      "size": 1,
      "price": "1011000000000000000000",
      "reserved": "",
      "salt": "0x8e44597e21a64725eaca7f6c6f60d53be22efd259943eeacdd8c43794246e2b5",
      "assetIds": []
    },
    {
      "x": 9,
      "y": 91,
      "size": 1,
      "price": "1011000000000000000000",
      "reserved": "",
      "salt": "0x6665741ed0660614c760cb1de20c0c788faec1b6b1df1c070614d0e14e08a4d5",
      "assetIds": []
    },
    {
      "x": 9,
      "y": 92,
      "size": 1,
      "price": "1011000000000000000000",
      "reserved": "",
      "salt": "0x2fcd0363f7a896836dc46cb7dc48e1013022a33bea59282181b69704ec30c2f5",
      "assetIds": []
    },
    {
      "x": 9,
      "y": 93,
      "size": 1,
      "price": "1011000000000000000000",
      "reserved": "",
      "salt": "0x2d6394261720fdbe78901976f229c7d069836aad56e269c263d545fec9cda00e",
      "assetIds": []
    },
    {
      "x": 9,
      "y": 94,
      "size": 1,
      "price": "1011000000000000000000",
      "reserved": "",
      "salt": "0xd2e8732474bd4c9049503131be4a0fc1480e9e13e2ca38ce711fbc17404199fe",
      "assetIds": []
    },
    {
      "x": 9,
      "y": 95,
      "size": 1,
      "price": "1011000000000000000000",
      "reserved": "0x7a9fe22691c811ea339d9b73150e6911a5343dca",
      "salt": "0x11dbdf05453b812d0189c06fb37227dcb5f8f38c1aae308e63972fffd2d8ce2e",
      "assetIds": []
    },
    {
      "x": 10,
      "y": 39,
      "size": 1,
      "price": "1011000000000000000000",
      "reserved": "0x7a9fe22691c811ea339d9b73150e6911a5343dca",
      "salt": "0x31ca4fa8263437aa3bf31860880479db4b72e31afd565185b71eeba583b8fb80",
      "assetIds": []
    },
    {
      "x": 10,
      "y": 40,
      "size": 1,
      "price": "1011000000000000000000",
      "reserved": "",
      "salt": "0x53e0be66fbc4516c0efd7582973ef5cb8bc4d7d1e400155e8bea12c152ffb56b",
      "assetIds": []
    },
    {
      "x": 10,
      "y": 41,
      "size": 1,
      "price": "1011000000000000000000",
      "reserved": "",
      "salt": "0x6203c43bf23cb6830f23d694e4826cfd8984fbc1101a7040e1d8ff6b51418ec6",
      "assetIds": []
    },
    {
      "x": 10,
      "y": 45,
      "size": 1,
      "price": "1011000000000000000000",
      "reserved": "",
      "salt": "0xbe9eb27ea55846b94ddb4b6a4617c3ee977bddd0ebb94111b1a46618925249eb",
      "assetIds": []
    },
    {
      "x": 10,
      "y": 46,
      "size": 1,
      "price": "1011000000000000000000",
      "reserved": "",
      "salt": "0x0c19880edf20515e1ab7bfec7e2d40a05dadce512f33799fd0b6388f56f44472",
      "assetIds": []
    },
    {
      "x": 10,
      "y": 47,
      "size": 1,
      "price": "1011000000000000000000",
      "reserved": "",
      "salt": "0xd35a46830aef5eb1b20662f51a566aab061a1592f5dfd530202475c70dfdb0ff",
      "assetIds": []
    },
    {
      "x": 10,
      "y": 48,
      "size": 1,
      "price": "1011000000000000000000",
      "reserved": "",
      "salt": "0xaaec2a490197d3f966658b5a8f9836875f54755507b6e4180bccffe012549bac",
      "assetIds": []
    },
    {
      "x": 10,
      "y": 49,
      "size": 1,
      "price": "1011000000000000000000",
      "reserved": "0x7a9fe22691c811ea339d9b73150e6911a5343dca",
      "salt": "0xa8d75b3c245c6a0ff9c7211ef8dafe3e5c741a3ae1fda00b3af3c53a5dac8119",
      "assetIds": []
    },
    {
      "x": 10,
      "y": 50,
      "size": 1,
      "price": "1011000000000000000000",
      "reserved": "",
      "salt": "0x7e156d7209c6af04e25c09dd3d161bcfa8aa05e775d1ee2fc1363577aec42d34",
      "assetIds": []
    },
    {
      "x": 10,
      "y": 51,
      "size": 1,
      "price": "1011000000000000000000",
      "reserved": "",
      "salt": "0x0f2970e16741b84d760db38874bbd32e7b4ae8bf69179367929914f951cc85ce",
      "assetIds": []
    },
    {
      "x": 10,
      "y": 52,
      "size": 1,
      "price": "1011000000000000000000",
      "reserved": "0x7a9fe22691c811ea339d9b73150e6911a5343dca",
      "salt": "0x8d9ce98b68d0d355ab48ffab58319bd3cecec6593e0e854ec745cce712734279",
      "assetIds": []
    },
    {
      "x": 10,
      "y": 53,
      "size": 1,
      "price": "1011000000000000000000",
      "reserved": "",
      "salt": "0xec4b453f069e95cd851040c2adb0d0b08d3d3de55992941abc92a1f2f388433e",
      "assetIds": []
    },
    {
      "x": 10,
      "y": 60,
      "size": 1,
      "price": "4683000000000000000000",
      "reserved": "",
      "salt": "0x294008de9e9f141fb621f4e0b3033974b49fe14c7872d3fc70a2567573cf2e75",
      "assetIds": [
        "41506478881403507969696680653240014914910929820314476107906210059990541021186"
      ]
    },
    {
      "x": 10,
      "y": 61,
      "size": 1,
      "price": "4683000000000000000000",
      "reserved": "",
      "salt": "0xf588eac11f2ed8c9d0e7ef6c6f094d8dc2cb06e61e696836b9bcbd5d3b6e6529",
      "assetIds": [
        "41506478881403507969696680653240014914910929820314476107906210059990541021186"
      ]
    },
    {
      "x": 10,
      "y": 62,
      "size": 1,
      "price": "4683000000000000000000",
      "reserved": "",
      "salt": "0x70b7aebab3d4ce7a9641cc461e572909ab3440881b06d76b36fa79e8bedb5956",
      "assetIds": [
        "41506478881403507969696680653240014914910929820314476107906210059990541021186"
      ]
    },
    {
      "x": 10,
      "y": 63,
      "size": 1,
      "price": "4683000000000000000000",
      "reserved": "",
      "salt": "0x4c13a53ff7d8394b3b362c7a9f90c37680b6cf3d38e5aa586aa7cf0f08c9fec5",
      "assetIds": [
        "41506478881403507969696680653240014914910929820314476107906210059990541021186"
      ]
    },
    {
      "x": 10,
      "y": 64,
      "size": 1,
      "price": "4683000000000000000000",
      "reserved": "",
      "salt": "0x96e46e0f7570ff72ed0f77e0b03495e0400a7efbef0184df98c28ee029b6f740",
      "assetIds": [
        "41506478881403507969696680653240014914910929820314476107906210059990541021186"
      ]
    },
    {
      "x": 10,
      "y": 65,
      "size": 1,
      "price": "4683000000000000000000",
      "reserved": "",
      "salt": "0x3a96f80ac98d48a3409b710a4029dcd1d5896b5894b7fc119edf4ed2aa7851ee",
      "assetIds": [
        "41506478881403507969696680653240014914910929820314476107906210059990541021186"
      ]
    },
    {
      "x": 10,
      "y": 66,
      "size": 1,
      "price": "4683000000000000000000",
      "reserved": "",
      "salt": "0xf106ce46e583a1032c3318b48c41e9ac377699fa27fcdd555a1b5e4844a89329",
      "assetIds": [
        "41506478881403507969696680653240014914910929820314476107906210059990541021186"
      ]
    },
    {
      "x": 10,
      "y": 67,
      "size": 1,
      "price": "1011000000000000000000",
      "reserved": "",
      "salt": "0x65f87d77b143e6a71dac54e07a7f3ed642cbf854db84518c067ab6c99bbd70d2",
      "assetIds": []
    },
    {
      "x": 10,
      "y": 68,
      "size": 1,
      "price": "1011000000000000000000",
      "reserved": "",
      "salt": "0x39acc86807aef00b13d2461b22a6244ab240ae7e1a8233feec4905ef0d8f3b6d",
      "assetIds": []
    },
    {
      "x": 10,
      "y": 69,
      "size": 1,
      "price": "1011000000000000000000",
      "reserved": "",
      "salt": "0x50714084c23c924c153aff3e9488faaa121893de6466f1b0470e671fd42981c5",
      "assetIds": []
    },
    {
      "x": 10,
      "y": 70,
      "size": 1,
      "price": "1011000000000000000000",
      "reserved": "",
      "salt": "0x53ab87b087d3c7ae55a366c765c2625d15251d1ca0152a9860ec1112d05ace57",
      "assetIds": []
    },
    {
      "x": 10,
      "y": 71,
      "size": 1,
      "price": "1011000000000000000000",
      "reserved": "",
      "salt": "0x987d6707765d7e6f75db589a1beb315861e68b04f02d2a2bf73af7c683fe5c9f",
      "assetIds": []
    },
    {
      "x": 10,
      "y": 90,
      "size": 1,
      "price": "1011000000000000000000",
      "reserved": "",
      "salt": "0x6cecb6748982d4e998e35adba0a31b83074911a5c95c55ed64c7d10fb3f953ba",
      "assetIds": []
    },
    {
      "x": 10,
      "y": 91,
      "size": 1,
      "price": "1011000000000000000000",
      "reserved": "",
      "salt": "0xc6fd8459e2536c5d673a60dc13d98bb4bfb532c81357217730ea65de2d40cae8",
      "assetIds": []
    },
    {
      "x": 10,
      "y": 92,
      "size": 1,
      "price": "1011000000000000000000",
      "reserved": "",
      "salt": "0x8aa1c0342f5b61ec247f20a8d558b6a7bc8010999f60366ccdc14113605be1b1",
      "assetIds": []
    },
    {
      "x": 10,
      "y": 93,
      "size": 1,
      "price": "1011000000000000000000",
      "reserved": "",
      "salt": "0x36f3884edf60082628654e479e315c9a20652b0b54b0cfa99c147500e2887ba2",
      "assetIds": []
    },
    {
      "x": 10,
      "y": 94,
      "size": 1,
      "price": "1011000000000000000000",
      "reserved": "",
      "salt": "0xca4d060bf824bbf31c223d49ddbbd37081f0007b7aa186479f2cc2f3c2229052",
      "assetIds": []
    },
    {
      "x": 10,
      "y": 95,
      "size": 1,
      "price": "1011000000000000000000",
      "reserved": "",
      "salt": "0xf089c2175a79ca8c14e0f569d201ec1bf2480db103ee3711a236504ccd63e22e",
      "assetIds": []
    },
    {
      "x": 11,
      "y": 39,
      "size": 1,
      "price": "1011000000000000000000",
      "reserved": "0x7a9fe22691c811ea339d9b73150e6911a5343dca",
      "salt": "0x3c4d91e2d6944b64173679dada62c6af73b757730e61bd7181d0f138a637f2f2",
      "assetIds": []
    },
    {
      "x": 11,
      "y": 40,
      "size": 1,
      "price": "1011000000000000000000",
      "reserved": "",
      "salt": "0x437152973187513ffe565f0be70ff2a6c7ba72f5c2fad30723eb94b188dd9d6f",
      "assetIds": []
    },
    {
      "x": 11,
      "y": 41,
      "size": 1,
      "price": "1011000000000000000000",
      "reserved": "",
      "salt": "0x8e784ac7041f0ad95f367c44e3d9306950f1ef5d2b87719b34417f61948e78f8",
      "assetIds": []
    },
    {
      "x": 11,
      "y": 45,
      "size": 1,
      "price": "1011000000000000000000",
      "reserved": "",
      "salt": "0x07e313773882707df77d3797eaa1ee9e2381cc1c2f0b06ac64ac58accfc82105",
      "assetIds": []
    },
    {
      "x": 11,
      "y": 46,
      "size": 1,
      "price": "1011000000000000000000",
      "reserved": "",
      "salt": "0x1ac76c8fbdea57b605cb50605af367e96af76b35f97774a0845f0372f1c2d44a",
      "assetIds": []
    },
    {
      "x": 11,
      "y": 47,
      "size": 1,
      "price": "1011000000000000000000",
      "reserved": "",
      "salt": "0x85781d63ca9e822ea5e132dffcd20dc5f070def15588c933c4126f35d4fd6285",
      "assetIds": []
    },
    {
      "x": 11,
      "y": 48,
      "size": 1,
      "price": "1011000000000000000000",
      "reserved": "",
      "salt": "0x970e543c08f9b0d4b91a3c64553b3d27a144bcf46e3a95debee8497cbd1c839a",
      "assetIds": []
    },
    {
      "x": 11,
      "y": 49,
      "size": 1,
      "price": "1011000000000000000000",
      "reserved": "",
      "salt": "0x9e45837391dcb3b09891b2b52460a3a8821a213ba6b04e056cebb82238a857fc",
      "assetIds": []
    },
    {
      "x": 11,
      "y": 50,
      "size": 1,
      "price": "1011000000000000000000",
      "reserved": "",
      "salt": "0x996a0b8df6432dfb631cea5c35612e688649ae8b5ff3e721aa02ec0676817b9f",
      "assetIds": []
    },
    {
      "x": 11,
      "y": 51,
      "size": 1,
      "price": "1011000000000000000000",
      "reserved": "",
      "salt": "0xfd7463d27bbc9c7d59606d59459996234e8095a329cd91e94761ce3389baa5b9",
      "assetIds": []
    },
    {
      "x": 11,
      "y": 52,
      "size": 1,
      "price": "4683000000000000000000",
      "reserved": "",
      "salt": "0x8d89844d8e047f805fe6a2a2db5e6a6d7284ed45985185196433879ba4765407",
      "assetIds": [
        "41506478881403507969696680653240014914910929820314476107906210059990541021186"
      ]
    },
    {
      "x": 11,
      "y": 53,
      "size": 1,
      "price": "4683000000000000000000",
      "reserved": "",
      "salt": "0x23eb383d1db7193d484a4f4c0ffddf2a0b3a6c9674c27b9b46e871805261b5b5",
      "assetIds": [
        "41506478881403507969696680653240014914910929820314476107906210059990541021186"
      ]
    },
    {
      "x": 11,
      "y": 60,
      "size": 1,
      "price": "4683000000000000000000",
      "reserved": "",
      "salt": "0xdf8d3ed110baa7accf24245bed634aa5844873ace2206e794ef9f87d4386243f",
      "assetIds": [
        "41506478881403507969696680653240014914910929820314476107906210059990541021186"
      ]
    },
    {
      "x": 11,
      "y": 61,
      "size": 1,
      "price": "4683000000000000000000",
      "reserved": "",
      "salt": "0xcbc0e07196384a0788543be39960be6fe4aa70d7ff9f8eb47ba16c5e31dd2697",
      "assetIds": [
        "41506478881403507969696680653240014914910929820314476107906210059990541021186"
      ]
    },
    {
      "x": 11,
      "y": 62,
      "size": 1,
      "price": "4683000000000000000000",
      "reserved": "",
      "salt": "0xe64edc21738dc42fc59818b7dc58db609f1a38e215b7ce07d67679500105dbd6",
      "assetIds": [
        "41506478881403507969696680653240014914910929820314476107906210059990541021186"
      ]
    },
    {
      "x": 11,
      "y": 63,
      "size": 1,
      "price": "4683000000000000000000",
      "reserved": "",
      "salt": "0x24d9b8b55d26cf53101759d93c055742fee0709c0c429609011fdc767c5b64db",
      "assetIds": [
        "41506478881403507969696680653240014914910929820314476107906210059990541021186"
      ]
    },
    {
      "x": 11,
      "y": 64,
      "size": 1,
      "price": "4683000000000000000000",
      "reserved": "",
      "salt": "0x52683bd9d9cf8c4d9be11dd7833521cae95214b874915212bfc28db8cec9419f",
      "assetIds": [
        "41506478881403507969696680653240014914910929820314476107906210059990541021186"
      ]
    },
    {
      "x": 11,
      "y": 65,
      "size": 1,
      "price": "4683000000000000000000",
      "reserved": "",
      "salt": "0xedb7f706ce3f95f15b6dd0c30ae1334e547c4f2820a679270ba49d411e88ae1a",
      "assetIds": [
        "41506478881403507969696680653240014914910929820314476107906210059990541021186"
      ]
    },
    {
      "x": 11,
      "y": 66,
      "size": 1,
      "price": "1011000000000000000000",
      "reserved": "0x7a9fe22691c811ea339d9b73150e6911a5343dca",
      "salt": "0xbac56485449ad2f8343ead8a67059d0ff70b2c9c14066cc91a00f24793e2f33d",
      "assetIds": []
    },
    {
      "x": 11,
      "y": 67,
      "size": 1,
      "price": "1011000000000000000000",
      "reserved": "",
      "salt": "0x4e01e47e837d2d45cd32e0ff109848853703639649152e11e69e2b2a6a342b5b",
      "assetIds": []
    },
    {
      "x": 11,
      "y": 68,
      "size": 1,
      "price": "1011000000000000000000",
      "reserved": "",
      "salt": "0xc0446176d568db4a224f52b71f1bcfc743a36a1064b23503b516b27056fb5ddc",
      "assetIds": []
    },
    {
      "x": 11,
      "y": 69,
      "size": 1,
      "price": "1011000000000000000000",
      "reserved": "",
      "salt": "0x8fc38e4b312135fa2085a6c4ac5f2ea19e6259921424aea02321a75af31213c9",
      "assetIds": []
    },
    {
      "x": 11,
      "y": 70,
      "size": 1,
      "price": "1011000000000000000000",
      "reserved": "",
      "salt": "0xfb44bd771bdd3e779ac0efd154faa8cfa21669aeff8d1d0757f2901c3b44aed4",
      "assetIds": []
    },
    {
      "x": 11,
      "y": 71,
      "size": 1,
      "price": "1011000000000000000000",
      "reserved": "",
      "salt": "0x11694454521007fed9f9e280c7b4af6976de35efbe6afb91ff1c270abfa2f167",
      "assetIds": []
    },
    {
      "x": 11,
      "y": 90,
      "size": 1,
      "price": "1011000000000000000000",
      "reserved": "",
      "salt": "0x435070e93fbb65fc3fa7325e6afe2d759a35e8eacfa189a27723a0dbbd6b1325",
      "assetIds": []
    },
    {
      "x": 11,
      "y": 91,
      "size": 1,
      "price": "1011000000000000000000",
      "reserved": "",
      "salt": "0x9b0382d68fa7fd3fd120e9f691a64d21b1d0c1f211d77ed63fce45edf6ce42e9",
      "assetIds": []
    },
    {
      "x": 11,
      "y": 92,
      "size": 1,
      "price": "1011000000000000000000",
      "reserved": "",
      "salt": "0x29892d4d161db9b9ee5c2c5784ef137d563eaec6faba818801895ccfbc046926",
      "assetIds": []
    },
    {
      "x": 11,
      "y": 93,
      "size": 1,
      "price": "1011000000000000000000",
      "reserved": "",
      "salt": "0x9b2bb081c4392bea9fa597fae647494e02ca2bd4b8c4fa3960a8e6155d79d6f3",
      "assetIds": []
    },
    {
      "x": 11,
      "y": 94,
      "size": 1,
      "price": "1011000000000000000000",
      "reserved": "",
      "salt": "0xbc9cba6c39128729fc310df2fea87e91460f03e3731e07f5733c3b10f1c99892",
      "assetIds": []
    },
    {
      "x": 11,
      "y": 95,
      "size": 1,
      "price": "1011000000000000000000",
      "reserved": "0x7a9fe22691c811ea339d9b73150e6911a5343dca",
      "salt": "0x01ea6d52adf226af02d8343e7298a818b9b4259d0b48422a89983fe9838be708",
      "assetIds": []
    },
    {
      "x": 12,
      "y": 39,
      "size": 1,
      "price": "1011000000000000000000",
      "reserved": "0x7a9fe22691c811ea339d9b73150e6911a5343dca",
      "salt": "0x53adf37973abc7b3d1a628a18375cf205803c95647cedc9d45d6ebdaa6c04bee",
      "assetIds": []
    },
    {
      "x": 12,
      "y": 40,
      "size": 1,
      "price": "1011000000000000000000",
      "reserved": "",
      "salt": "0x1af6213d6cde1dc4e745b6802ae4dcd3b21d6d0d71c14b1dcb9ecab1b7057f7c",
      "assetIds": []
    },
    {
      "x": 12,
      "y": 41,
      "size": 1,
      "price": "1011000000000000000000",
      "reserved": "",
      "salt": "0xeaa1da3d9a6e24e6638161290017cd7ef5e5ce51893a644972b61987f92956dd",
      "assetIds": []
    },
    {
      "x": 12,
      "y": 42,
      "size": 1,
      "price": "1011000000000000000000",
      "reserved": "",
      "salt": "0x70f89ab50cd10a356655b7688234be176d1aaae9a9e412e3e12a44143b21c3b7",
      "assetIds": []
    },
    {
      "x": 12,
      "y": 43,
      "size": 1,
      "price": "1011000000000000000000",
      "reserved": "",
      "salt": "0xf867cb761d9ce3e35d3c371ce3f96fe4232148e7526b1d7dd8801dca01523a81",
      "assetIds": []
    },
    {
      "x": 12,
      "y": 44,
      "size": 1,
      "price": "1011000000000000000000",
      "reserved": "0x7a9fe22691c811ea339d9b73150e6911a5343dca",
      "salt": "0x3d8ec4dd2c7b849bb93db971c5107bca77230773d850b40e0fd816ccd084474a",
      "assetIds": []
    },
    {
      "x": 12,
      "y": 45,
      "size": 1,
      "price": "1011000000000000000000",
      "reserved": "",
      "salt": "0xc756355c4f9365c00c32cedf0bd6b3b86d1aecf21c01f18b6ed99f89fcd7f13e",
      "assetIds": []
    },
    {
      "x": 12,
      "y": 46,
      "size": 1,
      "price": "1011000000000000000000",
      "reserved": "",
      "salt": "0xfa4d07eee8a1a473ac7d344dc04e2ddfb8c3e918edf7f76c059dc0ebdb136fe2",
      "assetIds": []
    },
    {
      "x": 12,
      "y": 47,
      "size": 1,
      "price": "1011000000000000000000",
      "reserved": "0x7a9fe22691c811ea339d9b73150e6911a5343dca",
      "salt": "0x410ccaa2f0ef58f2dc34a5e064c94c4a50c7809c1d9e8731f086eeaacf8bcde6",
      "assetIds": []
    },
    {
      "x": 12,
      "y": 48,
      "size": 1,
      "price": "1011000000000000000000",
      "reserved": "",
      "salt": "0xb5dede67eb6c957072b9ec3ec51e931e1b75b6958e85c70a51af793a79cf2b28",
      "assetIds": []
    },
    {
      "x": 12,
      "y": 49,
      "size": 1,
      "price": "1011000000000000000000",
      "reserved": "0x7a9fe22691c811ea339d9b73150e6911a5343dca",
      "salt": "0x6524ebf319d2de50f07a948e8a7cd46ff206fd380b0f7a01a11363950d2c91e3",
      "assetIds": []
    },
    {
      "x": 12,
      "y": 50,
      "size": 1,
      "price": "1011000000000000000000",
      "reserved": "",
      "salt": "0x184bfab108f55153b7ed29afb435869bec2cc8298c98a4199a6253ade8010dc2",
      "assetIds": []
    },
    {
      "x": 12,
      "y": 51,
      "size": 1,
      "price": "1011000000000000000000",
      "reserved": "0x7a9fe22691c811ea339d9b73150e6911a5343dca",
      "salt": "0x48803851e68ddbafeb2ef96b5cfec7f01145c73d59e6052d76c029a5247e230a",
      "assetIds": []
    },
    {
      "x": 12,
      "y": 52,
      "size": 1,
      "price": "4683000000000000000000",
      "reserved": "",
      "salt": "0x019292d92ea80aec3fca815283ddef527ca66cf5e2f0ffad17026819ec154d35",
      "assetIds": [
        "41506478881403507969696680653240014914910929820314476107906210059990541021186"
      ]
    },
    {
      "x": 12,
      "y": 53,
      "size": 1,
      "price": "4683000000000000000000",
      "reserved": "",
      "salt": "0xc50342a36fcdad4299e78e337a81e1f9b3f57ecce1d351dcce33d40585597f7b",
      "assetIds": [
        "41506478881403507969696680653240014914910929820314476107906210059990541021186"
      ]
    },
    {
      "x": 12,
      "y": 54,
      "size": 1,
      "price": "4683000000000000000000",
      "reserved": "",
      "salt": "0x7bc13d7930f56f96730c181d17219b6f10054eec80df7a66fde293781a7f958a",
      "assetIds": [
        "41506478881403507969696680653240014914910929820314476107906210059990541021186"
      ]
    },
    {
      "x": 12,
      "y": 55,
      "size": 1,
      "price": "4683000000000000000000",
      "reserved": "",
      "salt": "0xd14b4594c41fcb76899e9011a69cfee826515340b9c9e8c4b87f48d679c19895",
      "assetIds": [
        "41506478881403507969696680653240014914910929820314476107906210059990541021186"
      ]
    },
    {
      "x": 12,
      "y": 56,
      "size": 1,
      "price": "4683000000000000000000",
      "reserved": "",
      "salt": "0x3b40a421db49232c2aebe72f9c9324465accd691a3740afed4f60179d28dc8a5",
      "assetIds": [
        "41506478881403507969696680653240014914910929820314476107906210059990541021186"
      ]
    },
    {
      "x": 12,
      "y": 63,
      "size": 1,
      "price": "4683000000000000000000",
      "reserved": "",
      "salt": "0x9291c98c98b3902589ce0cf1488d55278fe3af143a217fdffbf49900bf5ed837",
      "assetIds": [
        "41506478881403507969696680653240014914910929820314476107906210059990541021186"
      ]
    },
    {
      "x": 12,
      "y": 64,
      "size": 1,
      "price": "4683000000000000000000",
      "reserved": "",
      "salt": "0x6ccf93cfb22b59cd0663a2c022e2f9cd952f0ca4511c428de00f1f442960aca6",
      "assetIds": [
        "41506478881403507969696680653240014914910929820314476107906210059990541021186"
      ]
    },
    {
      "x": 12,
      "y": 65,
      "size": 1,
      "price": "4683000000000000000000",
      "reserved": "",
      "salt": "0x601d93b95f4c6aa348ec9bb45503fd0145960c666807df0c69ff6bb9d824d4fb",
      "assetIds": [
        "41506478881403507969696680653240014914910929820314476107906210059990541021186"
      ]
    },
    {
      "x": 12,
      "y": 66,
      "size": 1,
      "price": "4683000000000000000000",
      "reserved": "",
      "salt": "0x57f31b79a4a7123e2f4f0d4e0cd2a991ab73d176c6c9a68cabc0c0fe1c41c723",
      "assetIds": [
        "41506478881403507969696680653240014914910929820314476107906210059990541021186"
      ]
    },
    {
      "x": 12,
      "y": 67,
      "size": 1,
      "price": "1011000000000000000000",
      "reserved": "",
      "salt": "0x8a0ba09859fb5ca91f1204b6c0dd43ffc91203195fb8400990423e24e4862077",
      "assetIds": []
    },
    {
      "x": 12,
      "y": 68,
      "size": 1,
      "price": "1011000000000000000000",
      "reserved": "",
      "salt": "0x8e0243ed243a7fadf680cd82788256abaa5ea423d9abe31cc0954952080868a9",
      "assetIds": []
    },
    {
      "x": 12,
      "y": 69,
      "size": 1,
      "price": "1011000000000000000000",
      "reserved": "",
      "salt": "0x4f3dc2122b0cf40756bef764cf2e267ac5ad74b13018a12fd841b93c03cb7b52",
      "assetIds": []
    },
    {
      "x": 12,
      "y": 70,
      "size": 1,
      "price": "1011000000000000000000",
      "reserved": "",
      "salt": "0xd1f09c4bc7842c2a9b90b7d8fa86f2f3619b24bd698d90f006113f2b807bd96b",
      "assetIds": []
    },
    {
      "x": 12,
      "y": 71,
      "size": 1,
      "price": "1011000000000000000000",
      "reserved": "",
      "salt": "0x5d7051caab8d8e0aac6e2008a6bf9f7052880c6e9344ae068e1d29d475ab8394",
      "assetIds": []
    },
    {
      "x": 12,
      "y": 78,
      "size": 1,
      "price": "1011000000000000000000",
      "reserved": "",
      "salt": "0x0059f2fa1425d674efd28191cb5121beef32462583d915bc4fa3583c81863310",
      "assetIds": []
    },
    {
      "x": 12,
      "y": 79,
      "size": 1,
      "price": "1011000000000000000000",
      "reserved": "",
      "salt": "0xbb41c2073f8bcfb5fb967310b3aa0481de03b06a57051b4994e955a47b6dccd5",
      "assetIds": []
    },
    {
      "x": 12,
      "y": 80,
      "size": 1,
      "price": "1011000000000000000000",
      "reserved": "0x7a9fe22691c811ea339d9b73150e6911a5343dca",
      "salt": "0x304fadcfb0553ae1a09d237aaa950d2f2418a00501e9c155b79b03787a2b966f",
      "assetIds": []
    },
    {
      "x": 12,
      "y": 81,
      "size": 1,
      "price": "1011000000000000000000",
      "reserved": "",
      "salt": "0xac80235eff57d2124d49bb2dc6a15785932e6a2798923361be2ac51e14447d69",
      "assetIds": []
    },
    {
      "x": 12,
      "y": 82,
      "size": 1,
      "price": "1011000000000000000000",
      "reserved": "",
      "salt": "0x4a83e77335890bca72ff32a50128904c0946d3a093deba45f77d08ed9f168a79",
      "assetIds": []
    },
    {
      "x": 12,
      "y": 83,
      "size": 1,
      "price": "1011000000000000000000",
      "reserved": "",
      "salt": "0xa222ee46df022de0f7ed5a339c83cfb04fc2c6918f7181dcd5aec419073795e6",
      "assetIds": []
    },
    {
      "x": 12,
      "y": 84,
      "size": 1,
      "price": "1011000000000000000000",
      "reserved": "",
      "salt": "0xcd6d20882d44132387e895b9756a81a84426c9b6a20e731098a60a86bce90b05",
      "assetIds": []
    },
    {
      "x": 12,
      "y": 85,
      "size": 1,
      "price": "1011000000000000000000",
      "reserved": "",
      "salt": "0xa6cf6f21da7fcfbea8d1d2f9d8c12849762d812f47c25628588a99c44734e56c",
      "assetIds": []
    },
    {
      "x": 12,
      "y": 86,
      "size": 1,
      "price": "1011000000000000000000",
      "reserved": "",
      "salt": "0xaf9eb5f2b999d3032b407f40da06758184840e3af161c0d1aadcff65cefbf620",
      "assetIds": []
    },
    {
      "x": 12,
      "y": 87,
      "size": 1,
      "price": "1011000000000000000000",
      "reserved": "",
      "salt": "0x6de585f7a3d964bd795f71c9ab853852c5849efc88727bc4c383e0848da0005e",
      "assetIds": []
    },
    {
      "x": 12,
      "y": 88,
      "size": 1,
      "price": "1011000000000000000000",
      "reserved": "",
      "salt": "0x581aa966abee1902c6c285bc6fbb984e8629ab67a7a32ebf8878e5c91b2dfbe4",
      "assetIds": []
    },
    {
      "x": 12,
      "y": 89,
      "size": 1,
      "price": "1011000000000000000000",
      "reserved": "",
      "salt": "0x66cdab40571d694e84b03f94b3b4c3ba97c6806bbeec26035cf28aac646002f5",
      "assetIds": []
    },
    {
      "x": 12,
      "y": 90,
      "size": 1,
      "price": "1011000000000000000000",
      "reserved": "",
      "salt": "0xb94ec918a7c6f93b62cc0c670b1c6a2ee9eaff1424e830d02bdba66334612520",
      "assetIds": []
    },
    {
      "x": 12,
      "y": 91,
      "size": 1,
      "price": "1011000000000000000000",
      "reserved": "0x7a9fe22691c811ea339d9b73150e6911a5343dca",
      "salt": "0xdc35d2c2e85f6ac06f9f71ff7e0c0e5cf306a02814f30cd604a2f25b38fb7baf",
      "assetIds": []
    },
    {
      "x": 12,
      "y": 92,
      "size": 1,
      "price": "1011000000000000000000",
      "reserved": "",
      "salt": "0xe0ab1eacde92f81a8fc962c9853d417408a39fe20a51a50b63e036c70f67ccaf",
      "assetIds": []
    },
    {
      "x": 12,
      "y": 93,
      "size": 1,
      "price": "1011000000000000000000",
      "reserved": "",
      "salt": "0x6a0ac481f9cc435471743b9daeea3ba8a90c0d2cf98f0e8f45c02b91e36017f4",
      "assetIds": []
    },
    {
      "x": 12,
      "y": 94,
      "size": 1,
      "price": "1011000000000000000000",
      "reserved": "",
      "salt": "0xe0b4147c3481764ca8fcdf0a41ae1412a13cd0f22b9f8d3fdbf711dfa19843a7",
      "assetIds": []
    },
    {
      "x": 12,
      "y": 95,
      "size": 1,
      "price": "1011000000000000000000",
      "reserved": "",
      "salt": "0x572f28c067aa34e51d8543f1b3fd5fd9c28ea3f4f0b1384a124a244ae7655a5a",
      "assetIds": []
    },
    {
      "x": 13,
      "y": 39,
      "size": 1,
      "price": "1011000000000000000000",
      "reserved": "",
      "salt": "0x146e83f6bcf2a93f7e056714c7529ce5c13a9f45bcb1df87772a1c11c29c2019",
      "assetIds": []
    },
    {
      "x": 13,
      "y": 40,
      "size": 1,
      "price": "1011000000000000000000",
      "reserved": "",
      "salt": "0xcad283895f469cf3fb55bb3e88853c733bf2e0ad38c4f107c0f3d2a2c9c689f0",
      "assetIds": []
    },
    {
      "x": 13,
      "y": 41,
      "size": 1,
      "price": "1011000000000000000000",
      "reserved": "0x7a9fe22691c811ea339d9b73150e6911a5343dca",
      "salt": "0x14af5da88eda434f4656a898c53a335b5c4bad32f2b7c9f47bb171fa2ea6e525",
      "assetIds": []
    },
    {
      "x": 13,
      "y": 42,
      "size": 1,
      "price": "1011000000000000000000",
      "reserved": "",
      "salt": "0x21331c3637b9438489ff73722d6183486701a89e7abba275e4242fe93ab549df",
      "assetIds": []
    },
    {
      "x": 13,
      "y": 43,
      "size": 1,
      "price": "1011000000000000000000",
      "reserved": "",
      "salt": "0xf8bdf6eea7f6a83d913eaad0f44d4b957d36edf6bff5781f706df91f56fc9f9b",
      "assetIds": []
    },
    {
      "x": 13,
      "y": 44,
      "size": 1,
      "price": "1011000000000000000000",
      "reserved": "0x7a9fe22691c811ea339d9b73150e6911a5343dca",
      "salt": "0xcc88942e33dc6ab5b9c93b4082649c2cdacf76810ea88e76e9670543d5805155",
      "assetIds": []
    },
    {
      "x": 13,
      "y": 45,
      "size": 1,
      "price": "1011000000000000000000",
      "reserved": "",
      "salt": "0x819fc80ac55593bcb4581e9d94399f9abe2bbadeb48d19b00823ad515795c6d4",
      "assetIds": []
    },
    {
      "x": 13,
      "y": 46,
      "size": 1,
      "price": "1011000000000000000000",
      "reserved": "",
      "salt": "0x7838a9d5c9361ccbd73f58a8d18a76e0bfa3388acda8c0d939c9de8c07511a87",
      "assetIds": []
    },
    {
      "x": 13,
      "y": 47,
      "size": 1,
      "price": "1011000000000000000000",
      "reserved": "",
      "salt": "0x6c65eb71a886b086a6782b792d47a7d7a6199ec2223c6ba461079b21a0518d32",
      "assetIds": []
    },
    {
      "x": 13,
      "y": 48,
      "size": 1,
      "price": "1011000000000000000000",
      "reserved": "",
      "salt": "0x4627c14457c7e6f78152a9e551c2374c72134d50a341797f4565838179b6d05d",
      "assetIds": []
    },
    {
      "x": 13,
      "y": 49,
      "size": 1,
      "price": "1011000000000000000000",
      "reserved": "",
      "salt": "0x63dfdc5b5f64dabdf9e5f4e772d0c398c491a82ed1d3555077fa505dc6d3e238",
      "assetIds": []
    },
    {
      "x": 13,
      "y": 50,
      "size": 1,
      "price": "1011000000000000000000",
      "reserved": "",
      "salt": "0xe766586ff9648bc96d0cd4fbc36931966ea4be64658f14458ee41740638f6759",
      "assetIds": []
    },
    {
      "x": 13,
      "y": 51,
      "size": 1,
      "price": "1011000000000000000000",
      "reserved": "",
      "salt": "0xaf661feb86f0ab68339a13899090d1de8c8defdb7489dcbe89b2fbf97a2a1251",
      "assetIds": []
    },
    {
      "x": 13,
      "y": 52,
      "size": 1,
      "price": "4683000000000000000000",
      "reserved": "",
      "salt": "0x8cb3fe50db5e9f5172a4c570441ed0f7107f9b7832a369e057ab7a169f182172",
      "assetIds": [
        "41506478881403507969696680653240014914910929820314476107906210059990541021186"
      ]
    },
    {
      "x": 13,
      "y": 53,
      "size": 1,
      "price": "4683000000000000000000",
      "reserved": "",
      "salt": "0x7eb8deb3ba2963ab5d56b8edcea42e852d30688dbde2ae85b19de9c4116b42dd",
      "assetIds": [
        "41506478881403507969696680653240014914910929820314476107906210059990541021186"
      ]
    },
    {
      "x": 13,
      "y": 54,
      "size": 1,
      "price": "1011000000000000000000",
      "reserved": "0x7a9fe22691c811ea339d9b73150e6911a5343dca",
      "salt": "0x2bfc989cc7b43886638918a4962114b288e7aa8cf2bbb09ea9810044b03b7c96",
      "assetIds": []
    },
    {
      "x": 13,
      "y": 55,
      "size": 1,
      "price": "4683000000000000000000",
      "reserved": "",
      "salt": "0xfb38ae93b99469b90c37f6549ce7a935a3dd68fc9e9c73e6ab7d6968f1b0b599",
      "assetIds": [
        "41506478881403507969696680653240014914910929820314476107906210059990541021186"
      ]
    },
    {
      "x": 13,
      "y": 56,
      "size": 1,
      "price": "4683000000000000000000",
      "reserved": "",
      "salt": "0xae5a2199a67367c4357f56aee7762cff58554e86d322d40451c1dc8ba4fe56ce",
      "assetIds": [
        "41506478881403507969696680653240014914910929820314476107906210059990541021186"
      ]
    },
    {
      "x": 13,
      "y": 63,
      "size": 1,
      "price": "4683000000000000000000",
      "reserved": "",
      "salt": "0xa5adaa999caf1ce8f627c3175ba224d70a5af5720d60fbbed4f6fdbadeec1120",
      "assetIds": [
        "41506478881403507969696680653240014914910929820314476107906210059990541021186"
      ]
    },
    {
      "x": 13,
      "y": 64,
      "size": 1,
      "price": "4683000000000000000000",
      "reserved": "",
      "salt": "0x66cec8d1df3c10d8cef61a2b3761a13070461cdd8841772385efc47049ce8652",
      "assetIds": [
        "41506478881403507969696680653240014914910929820314476107906210059990541021186"
      ]
    },
    {
      "x": 13,
      "y": 65,
      "size": 1,
      "price": "4683000000000000000000",
      "reserved": "",
      "salt": "0x435da6bc75154cb685f22917018bc128fa0a8c5904e54b62113e4553642a2d53",
      "assetIds": [
        "41506478881403507969696680653240014914910929820314476107906210059990541021186"
      ]
    },
    {
      "x": 13,
      "y": 66,
      "size": 1,
      "price": "4683000000000000000000",
      "reserved": "",
      "salt": "0x5b34ae5b25e5c399bcd19ce470cd3c5acf1af0bf080b182b60bd44b7c2a53213",
      "assetIds": [
        "41506478881403507969696680653240014914910929820314476107906210059990541021186"
      ]
    },
    {
      "x": 13,
      "y": 67,
      "size": 1,
      "price": "1011000000000000000000",
      "reserved": "",
      "salt": "0x5847f8eeee76c5649507f3ee82394b4108e4cd1572912981484eada06c4d269f",
      "assetIds": []
    },
    {
      "x": 13,
      "y": 68,
      "size": 1,
      "price": "1011000000000000000000",
      "reserved": "",
      "salt": "0x8b271b1e74d2c4fb0119455d7c82c1c4054137e05f2d7cfc1e037171abc41373",
      "assetIds": []
    },
    {
      "x": 13,
      "y": 69,
      "size": 1,
      "price": "1011000000000000000000",
      "reserved": "",
      "salt": "0x023be7fc6d0d761c83a8fcfe9d50c121a5dd3f74161b12542b8d3fccbada14af",
      "assetIds": []
    },
    {
      "x": 13,
      "y": 70,
      "size": 1,
      "price": "1011000000000000000000",
      "reserved": "",
      "salt": "0x789808d804e4d0dedd6f623eed2fc26be7eef452359f8ead6211e43f84edd34e",
      "assetIds": []
    },
    {
      "x": 13,
      "y": 71,
      "size": 1,
      "price": "1011000000000000000000",
      "reserved": "0x7a9fe22691c811ea339d9b73150e6911a5343dca",
      "salt": "0x9bf3a0a79bc223c4bbd33be1c2d4edba950b5a77a5e1c0f81f7bacbca07da141",
      "assetIds": []
    },
    {
      "x": 13,
      "y": 78,
      "size": 1,
      "price": "1011000000000000000000",
      "reserved": "",
      "salt": "0x81e4b827e8aca8f8689145773bea796b4b343f65596de42b42f076638a98401e",
      "assetIds": []
    },
    {
      "x": 13,
      "y": 79,
      "size": 1,
      "price": "1011000000000000000000",
      "reserved": "0x7a9fe22691c811ea339d9b73150e6911a5343dca",
      "salt": "0x01105d05e995410b44a8b963dd3e4f9278796702d0f92a2f4db6b8a6862014f6",
      "assetIds": []
    },
    {
      "x": 13,
      "y": 80,
      "size": 1,
      "price": "1011000000000000000000",
      "reserved": "",
      "salt": "0xe1f556eac0e85941baf58fad3558411cdbb162155d86569d876f90cf64b45e12",
      "assetIds": []
    },
    {
      "x": 13,
      "y": 81,
      "size": 1,
      "price": "1011000000000000000000",
      "reserved": "",
      "salt": "0xeae92713f06d856b1be181d244ff98115cb82c0dcbcfcfe9eb20bd3f6c0fa27b",
      "assetIds": []
    },
    {
      "x": 13,
      "y": 82,
      "size": 1,
      "price": "1011000000000000000000",
      "reserved": "",
      "salt": "0x9a9f8baedc45c04dd7f6ed381e811ca1aee6279c043b0f7a6110b332a70ec7e9",
      "assetIds": []
    },
    {
      "x": 13,
      "y": 83,
      "size": 1,
      "price": "1011000000000000000000",
      "reserved": "",
      "salt": "0xf3aa43081352dbfc45ead02361d2f8e9515c7eebbf60830691b04de1239affb5",
      "assetIds": []
    },
    {
      "x": 13,
      "y": 84,
      "size": 1,
      "price": "1011000000000000000000",
      "reserved": "",
      "salt": "0x539d85265666d9b74c360613d377858e323ff9848c066f92e7d6b83a6e05c056",
      "assetIds": []
    },
    {
      "x": 13,
      "y": 85,
      "size": 1,
      "price": "1011000000000000000000",
      "reserved": "0x7a9fe22691c811ea339d9b73150e6911a5343dca",
      "salt": "0xf246b64d89f8fd3c8cbdaca13475c8fc465df68e787eb48ce0d493a8e0ca7407",
      "assetIds": []
    },
    {
      "x": 13,
      "y": 86,
      "size": 1,
      "price": "1011000000000000000000",
      "reserved": "",
      "salt": "0x2f1e4e78b32884c428aabbe9564337a3eb5be3d5c6d671d9449e19fabb467dd8",
      "assetIds": []
    },
    {
      "x": 13,
      "y": 87,
      "size": 1,
      "price": "1011000000000000000000",
      "reserved": "",
      "salt": "0x879cc16a5f26aefae02adad8e939b98ae21b5934aef47444b38831154d0b48fb",
      "assetIds": []
    },
    {
      "x": 13,
      "y": 88,
      "size": 1,
      "price": "1011000000000000000000",
      "reserved": "",
      "salt": "0x2817b64093b54306e7cfa430a5159a19fb6d5ead4f7e107abdf0064ab8824805",
      "assetIds": []
    },
    {
      "x": 13,
      "y": 89,
      "size": 1,
      "price": "1011000000000000000000",
      "reserved": "",
      "salt": "0x8a24713c8c1a4d2cff9b69bdfb18642e8c18edbaaaf36b521d6e8414628d10f8",
      "assetIds": []
    },
    {
      "x": 13,
      "y": 90,
      "size": 1,
      "price": "1011000000000000000000",
      "reserved": "",
      "salt": "0x51dfc05690cc6d9b1c07ec9038eebfee7ede4a73780507536e525090b04bc3de",
      "assetIds": []
    },
    {
      "x": 13,
      "y": 91,
      "size": 1,
      "price": "1011000000000000000000",
      "reserved": "",
      "salt": "0x3ab13f27e33b943e5a183a776242367912b6903e9f1d583fc74f5f412fb396da",
      "assetIds": []
    },
    {
      "x": 13,
      "y": 92,
      "size": 1,
      "price": "1011000000000000000000",
      "reserved": "",
      "salt": "0xc4bd7864fb1b7e8e4b2a78f423fc5f0daddc80dcd8c2499607b30ba610e7dea9",
      "assetIds": []
    },
    {
      "x": 13,
      "y": 93,
      "size": 1,
      "price": "1011000000000000000000",
      "reserved": "",
      "salt": "0x1f952107c3adae099cab822d3bc71c531abfc1d44c7a1a22df2c8b79989aab16",
      "assetIds": []
    },
    {
      "x": 13,
      "y": 94,
      "size": 1,
      "price": "1011000000000000000000",
      "reserved": "",
      "salt": "0x8499c500b0d7529d40f3de0325958491f1717b02d2d909e21793fb9bf44a1c92",
      "assetIds": []
    },
    {
      "x": 13,
      "y": 95,
      "size": 1,
      "price": "1011000000000000000000",
      "reserved": "",
      "salt": "0xc63a27f1e1f376edc120f91848e14ea3264abde38e5efd433aafd3f4977a4868",
      "assetIds": []
    },
    {
      "x": 14,
      "y": 39,
      "size": 1,
      "price": "1011000000000000000000",
      "reserved": "",
      "salt": "0xf114551c12dccc0aa5792b7d3d8be7aa31e15d16704d8b53f05a79dabf7a1657",
      "assetIds": []
    },
    {
      "x": 14,
      "y": 40,
      "size": 1,
      "price": "1011000000000000000000",
      "reserved": "",
      "salt": "0x6545cc28943e3b08d4ce08b3637f27a4ea5dc2c4b00c3c5e1b620db0c6a5d8ba",
      "assetIds": []
    },
    {
      "x": 14,
      "y": 48,
      "size": 1,
      "price": "1011000000000000000000",
      "reserved": "",
      "salt": "0xdfcb4a8df362e08d506fef5b5908fc64ddcad74042ed6cc43d3381b48e1e27ce",
      "assetIds": []
    },
    {
      "x": 14,
      "y": 49,
      "size": 1,
      "price": "1011000000000000000000",
      "reserved": "",
      "salt": "0x92dadff5d73d5f24e61e76cc1ae633abdb898a9a0db53e4b48af38dd2ff1c6f2",
      "assetIds": []
    },
    {
      "x": 14,
      "y": 50,
      "size": 1,
      "price": "1011000000000000000000",
      "reserved": "",
      "salt": "0x5e367cce344dc2f54923899fc0fdbd5d3395deff8017217039c15e95c70f60af",
      "assetIds": []
    },
    {
      "x": 14,
      "y": 51,
      "size": 1,
      "price": "4683000000000000000000",
      "reserved": "",
      "salt": "0x50178edcf2d4783d4c2c1dada6f4969931ba7056e1b7e6f4a7e89b454dc44f21",
      "assetIds": [
        "41506478881403507969696680653240014914910929820314476107906210059990541021186"
      ]
    },
    {
      "x": 14,
      "y": 52,
      "size": 1,
      "price": "4683000000000000000000",
      "reserved": "",
      "salt": "0xb6144d1baa693d326496c63c0e6468751552279dbfb3d3c2717379cfc4d21296",
      "assetIds": [
        "41506478881403507969696680653240014914910929820314476107906210059990541021186"
      ]
    },
    {
      "x": 14,
      "y": 53,
      "size": 1,
      "price": "4683000000000000000000",
      "reserved": "",
      "salt": "0xedd1ed28901027c19b43a2f77010830734b03b5dd8fdec37cce79998162d722c",
      "assetIds": [
        "41506478881403507969696680653240014914910929820314476107906210059990541021186"
      ]
    },
    {
      "x": 14,
      "y": 54,
      "size": 1,
      "price": "4683000000000000000000",
      "reserved": "",
      "salt": "0x1dbb4d13195daef9c1b0b3d014b022862b5c60cd52648863c8877235c1156005",
      "assetIds": [
        "41506478881403507969696680653240014914910929820314476107906210059990541021186"
      ]
    },
    {
      "x": 14,
      "y": 55,
      "size": 1,
      "price": "4683000000000000000000",
      "reserved": "",
      "salt": "0x7d00b16b1acb9e596fa45420ee05d7adb87f7e2afea892b3af39a3820715e401",
      "assetIds": [
        "41506478881403507969696680653240014914910929820314476107906210059990541021186"
      ]
    },
    {
      "x": 14,
      "y": 56,
      "size": 1,
      "price": "4683000000000000000000",
      "reserved": "",
      "salt": "0xeaabd9bd0dd3ddaf4b0c0a23a001c38aa289220792dcd3f45458655d0bfd0f6b",
      "assetIds": [
        "41506478881403507969696680653240014914910929820314476107906210059990541021186"
      ]
    },
    {
      "x": 14,
      "y": 63,
      "size": 1,
      "price": "4683000000000000000000",
      "reserved": "",
      "salt": "0xe866ce118fc966f4027e686a3521d5387e2d8f66da893a2c77e25b847468c80d",
      "assetIds": [
        "41506478881403507969696680653240014914910929820314476107906210059990541021186"
      ]
    },
    {
      "x": 14,
      "y": 64,
      "size": 1,
      "price": "4683000000000000000000",
      "reserved": "",
      "salt": "0xcd725edd277c9fa010b849dd976825dee7596c478c029123558dfcea7f1c098a",
      "assetIds": [
        "41506478881403507969696680653240014914910929820314476107906210059990541021186"
      ]
    },
    {
      "x": 14,
      "y": 65,
      "size": 1,
      "price": "4683000000000000000000",
      "reserved": "",
      "salt": "0x5800f7b57eab3091cf9248066e5f5da89d34848079270a220a8ee8db6ff1988b",
      "assetIds": [
        "41506478881403507969696680653240014914910929820314476107906210059990541021186"
      ]
    },
    {
      "x": 14,
      "y": 66,
      "size": 1,
      "price": "4683000000000000000000",
      "reserved": "",
      "salt": "0xfd832eb747b8e4a7002bf3c055f0a9c37cdcb38858d0af843320239feed1ae95",
      "assetIds": [
        "41506478881403507969696680653240014914910929820314476107906210059990541021186"
      ]
    },
    {
      "x": 14,
      "y": 67,
      "size": 1,
      "price": "1011000000000000000000",
      "reserved": "",
      "salt": "0xd3f96e24be3cf8401663c1722f585885025a8495480ec486b71ce4ead74a002a",
      "assetIds": []
    },
    {
      "x": 14,
      "y": 68,
      "size": 1,
      "price": "1011000000000000000000",
      "reserved": "",
      "salt": "0x02ee1bf30adf8242cd201cdb5862e029ec912f5f2e45107f662733aa7a220b9a",
      "assetIds": []
    },
    {
      "x": 14,
      "y": 69,
      "size": 1,
      "price": "1011000000000000000000",
      "reserved": "0x7a9fe22691c811ea339d9b73150e6911a5343dca",
      "salt": "0xe883c6398c860a266e2ae5484711c6ca0ce67fc504aa0ac402250f613b9ad3b4",
      "assetIds": []
    },
    {
      "x": 14,
      "y": 70,
      "size": 1,
      "price": "1011000000000000000000",
      "reserved": "",
      "salt": "0x2d1a22b8e6567e2a2adba581971d7d2401b2c9dc9d2856cf58a05d1295744640",
      "assetIds": []
    },
    {
      "x": 14,
      "y": 71,
      "size": 1,
      "price": "1011000000000000000000",
      "reserved": "",
      "salt": "0x56c176d01f3d3519d21db36dda3e291bb8d7522a99e0e941dcf740e50093e300",
      "assetIds": []
    },
    {
      "x": 14,
      "y": 78,
      "size": 1,
      "price": "1011000000000000000000",
      "reserved": "",
      "salt": "0x06f61254c1fe78a080a8f7baa60f7ef9710e6c1d42101462f0fa5e822099db81",
      "assetIds": []
    },
    {
      "x": 14,
      "y": 79,
      "size": 1,
      "price": "1011000000000000000000",
      "reserved": "",
      "salt": "0x30da7f4753a52e8d934d15a967784b50c31b17c5cf6b76de033e2a0ad4cfa2af",
      "assetIds": []
    },
    {
      "x": 14,
      "y": 80,
      "size": 1,
      "price": "1011000000000000000000",
      "reserved": "",
      "salt": "0x0985ab14db9595cab87372c8672c50370432a834f53e03d9252091b83879b695",
      "assetIds": []
    },
    {
      "x": 14,
      "y": 81,
      "size": 1,
      "price": "1011000000000000000000",
      "reserved": "",
      "salt": "0xa959ea690bc0abde4e699d2ee442c12016a5f87769a5ed201ea9662f397f709c",
      "assetIds": []
    },
    {
      "x": 14,
      "y": 82,
      "size": 1,
      "price": "1011000000000000000000",
      "reserved": "",
      "salt": "0x14491adf5228549d04a75913ce92977c13493c36fb1c76e6e0ea8b4540c1a9aa",
      "assetIds": []
    },
    {
      "x": 14,
      "y": 83,
      "size": 1,
      "price": "1011000000000000000000",
      "reserved": "",
      "salt": "0xb689a08b23cf9a5b9d398e17655556b878a68cea88d21f3897d39862c6d5bd48",
      "assetIds": []
    },
    {
      "x": 14,
      "y": 84,
      "size": 1,
      "price": "1011000000000000000000",
      "reserved": "",
      "salt": "0xf76373e8dfc3dd242a9e36b4e8935aae08993d64777ff99909e7871a4c3728aa",
      "assetIds": []
    },
    {
      "x": 14,
      "y": 85,
      "size": 1,
      "price": "1011000000000000000000",
      "reserved": "",
      "salt": "0xe3793715205e3bbe34520c4ca6aa40d42a552f5e54274005486ff6e5a8e10cad",
      "assetIds": []
    },
    {
      "x": 14,
      "y": 86,
      "size": 1,
      "price": "1011000000000000000000",
      "reserved": "",
      "salt": "0xb1ec8e690aadb556da7cb512fb2c1442494d2a481befc25e5c574f2a6d927e53",
      "assetIds": []
    },
    {
      "x": 14,
      "y": 87,
      "size": 1,
      "price": "1011000000000000000000",
      "reserved": "",
      "salt": "0x0463bf50d000555db5bae4501cd069a0adeeebd893d35820a30031778c6bba38",
      "assetIds": []
    },
    {
      "x": 14,
      "y": 88,
      "size": 1,
      "price": "1011000000000000000000",
      "reserved": "0x7a9fe22691c811ea339d9b73150e6911a5343dca",
      "salt": "0xf17d3cf42864e3f991b5ad69a232c0db4a01a4966e210cb4a4115c61524419f4",
      "assetIds": []
    },
    {
      "x": 14,
      "y": 89,
      "size": 1,
      "price": "1011000000000000000000",
      "reserved": "",
      "salt": "0xd18115ca74d79a127753e1c7c4143f3c771c31a33d49a09ad6fc741fd3bd3416",
      "assetIds": []
    },
    {
      "x": 14,
      "y": 90,
      "size": 1,
      "price": "1011000000000000000000",
      "reserved": "",
      "salt": "0xc67de336d1d97846cb0747805cda04f6bbe849b2c73fc73d28bf9e6b8912ca54",
      "assetIds": []
    },
    {
      "x": 14,
      "y": 91,
      "size": 1,
      "price": "1011000000000000000000",
      "reserved": "",
      "salt": "0xb720f8e40eeeb87e3751faeca688e0c821734ae79352e0b552ca733a56a82145",
      "assetIds": []
    },
    {
      "x": 14,
      "y": 92,
      "size": 1,
      "price": "1011000000000000000000",
      "reserved": "",
      "salt": "0x3f17d129ed1601081fa7cc6993a149947e4fedddd6605321a45fc17fffb3b27e",
      "assetIds": []
    },
    {
      "x": 14,
      "y": 93,
      "size": 1,
      "price": "1011000000000000000000",
      "reserved": "0x7a9fe22691c811ea339d9b73150e6911a5343dca",
      "salt": "0x2bde29161709f80ce0db4eaae6a37ac3f03bf473e8df15c4226ad6a7268b2efd",
      "assetIds": []
    },
    {
      "x": 14,
      "y": 94,
      "size": 1,
      "price": "1011000000000000000000",
      "reserved": "",
      "salt": "0x1fef315dbdff4d363d0e248063389c2b2b25f4b63d7106979bcf5d45a7240bcb",
      "assetIds": []
    },
    {
      "x": 14,
      "y": 95,
      "size": 1,
      "price": "1011000000000000000000",
      "reserved": "",
      "salt": "0xbc2d8adb9bd466e87e9f37b87fa38a776dcf2b2f3bc85afe3200d892ec9bd6d1",
      "assetIds": []
    },
    {
      "x": 15,
      "y": 54,
      "size": 1,
      "price": "4683000000000000000000",
      "reserved": "",
      "salt": "0x16a2a388fdb36d61f1e80f3beff212935223e59269e2ec1b2510f6ea94845c96",
      "assetIds": [
        "41506478881403507969696680653240014914910929820314476107906210059990541021186"
      ]
    },
    {
      "x": 15,
      "y": 55,
      "size": 1,
      "price": "4683000000000000000000",
      "reserved": "",
      "salt": "0xb2cebc16a528fffffe28399567536ac3203606f12845520ce61417d0161176c8",
      "assetIds": [
        "41506478881403507969696680653240014914910929820314476107906210059990541021186"
      ]
    },
    {
      "x": 15,
      "y": 56,
      "size": 1,
      "price": "4683000000000000000000",
      "reserved": "",
      "salt": "0xb64c9e489a516e16ff2b8506689d8817d850941fba233dc6fd02f1e323d4d0bf",
      "assetIds": [
        "41506478881403507969696680653240014914910929820314476107906210059990541021186"
      ]
    },
    {
      "x": 15,
      "y": 57,
      "size": 1,
      "price": "4683000000000000000000",
      "reserved": "",
      "salt": "0xee4ec957f7548eedd05852cd90c58e97990e9f1bce67f7c44fb0ba42f7fc88b6",
      "assetIds": [
        "41506478881403507969696680653240014914910929820314476107906210059990541021186"
      ]
    },
    {
      "x": 15,
      "y": 58,
      "size": 1,
      "price": "4683000000000000000000",
      "reserved": "",
      "salt": "0xe5cde187e6b8b4660cd2353cc00d208b6f8b6c5d0cfa10040ab6a95894cc3fba",
      "assetIds": [
        "41506478881403507969696680653240014914910929820314476107906210059990541021186"
      ]
    },
    {
      "x": 15,
      "y": 59,
      "size": 1,
      "price": "4683000000000000000000",
      "reserved": "",
      "salt": "0x8d78c410f8b52881b2429add47db7c60ac7816375504b5cd47199d45dfa49ec9",
      "assetIds": [
        "41506478881403507969696680653240014914910929820314476107906210059990541021186"
      ]
    },
    {
      "x": 15,
      "y": 60,
      "size": 1,
      "price": "4683000000000000000000",
      "reserved": "",
      "salt": "0x7942ac607be44002dd7a23f84458d23ad80aa0b71ca8471a7e818a6902d20bb1",
      "assetIds": [
        "41506478881403507969696680653240014914910929820314476107906210059990541021186"
      ]
    },
    {
      "x": 15,
      "y": 61,
      "size": 1,
      "price": "4683000000000000000000",
      "reserved": "",
      "salt": "0xb34af1dfe71f78edc867bcc5b633991fac26ce7e32859dddca6afe00c8858278",
      "assetIds": [
        "41506478881403507969696680653240014914910929820314476107906210059990541021186"
      ]
    },
    {
      "x": 15,
      "y": 62,
      "size": 1,
      "price": "4683000000000000000000",
      "reserved": "",
      "salt": "0x0e8dac32b98091297998abeea47d5dc23a3f40fea1dee9cb76f9fa3e063ddf9f",
      "assetIds": [
        "41506478881403507969696680653240014914910929820314476107906210059990541021186"
      ]
    },
    {
      "x": 15,
      "y": 63,
      "size": 1,
      "price": "4683000000000000000000",
      "reserved": "",
      "salt": "0x77a8273f790e5a3286ad812f3ffc4e637ff52798319b1eb352211767933cac69",
      "assetIds": [
        "41506478881403507969696680653240014914910929820314476107906210059990541021186"
      ]
    },
    {
      "x": 15,
      "y": 64,
      "size": 1,
      "price": "4683000000000000000000",
      "reserved": "",
      "salt": "0xeb463780a8c343acf34edcc1598d6738fba521f13ade4350e99cd7c8af1d4399",
      "assetIds": [
        "41506478881403507969696680653240014914910929820314476107906210059990541021186"
      ]
    },
    {
      "x": 15,
      "y": 65,
      "size": 1,
      "price": "4683000000000000000000",
      "reserved": "",
      "salt": "0xd3d795022db21e34b9e894060a3f6f300b0ce2d8db0324d4f95c97738246f760",
      "assetIds": [
        "41506478881403507969696680653240014914910929820314476107906210059990541021186"
      ]
    },
    {
      "x": 15,
      "y": 66,
      "size": 1,
      "price": "4683000000000000000000",
      "reserved": "",
      "salt": "0x5a5cc5d294246e1efe07ff71dae2f029a86f7c7d3fd42005b024abe2d1871743",
      "assetIds": [
        "41506478881403507969696680653240014914910929820314476107906210059990541021186"
      ]
    },
    {
      "x": 15,
      "y": 67,
      "size": 1,
      "price": "1011000000000000000000",
      "reserved": "",
      "salt": "0xe97f5d16426c3ffddd6aa59be467f74b70648650222a0f23eea30b08efe9651f",
      "assetIds": []
    },
    {
      "x": 15,
      "y": 68,
      "size": 1,
      "price": "1011000000000000000000",
      "reserved": "",
      "salt": "0x6759af21cbf421cb4815e838523422f0b1ed03aac9f7484c0e84e89976d69a8c",
      "assetIds": []
    },
    {
      "x": 15,
      "y": 69,
      "size": 1,
      "price": "1011000000000000000000",
      "reserved": "",
      "salt": "0x0b3f3fdd6b6ef2ca81477e823667ca4ebf316de8761e4087347443f5d08010e8",
      "assetIds": []
    },
    {
      "x": 15,
      "y": 70,
      "size": 1,
      "price": "1011000000000000000000",
      "reserved": "",
      "salt": "0x5488b58b29256e3d34d5771bf77d0fcd9be1e47549d709590228bbcfc49f477c",
      "assetIds": []
    },
    {
      "x": 15,
      "y": 71,
      "size": 1,
      "price": "1011000000000000000000",
      "reserved": "",
      "salt": "0xa72b3bfc964ed1309f61ab580d10e4f2f3a72f9b752be12294a1c60670b4c4a0",
      "assetIds": []
    },
    {
      "x": 15,
      "y": 78,
      "size": 1,
      "price": "1011000000000000000000",
      "reserved": "",
      "salt": "0x8852caa4bd77cd1c81c2eb699696cd6739ad337db7d6a452f92b9191bc6ed70e",
      "assetIds": []
    },
    {
      "x": 15,
      "y": 79,
      "size": 1,
      "price": "1011000000000000000000",
      "reserved": "",
      "salt": "0xa721c382e8b107cf6b67afa1619cfcdc9f5c4c8c0ac79ceb46f5c2cc909b67d8",
      "assetIds": []
    },
    {
      "x": 15,
      "y": 80,
      "size": 1,
      "price": "1011000000000000000000",
      "reserved": "",
      "salt": "0x07ca4422fe287e1e4379482a5a6df47b3e85c0e95f95b202f2bb155afc763152",
      "assetIds": []
    },
    {
      "x": 15,
      "y": 81,
      "size": 1,
      "price": "1011000000000000000000",
      "reserved": "",
      "salt": "0x5088bb86712bd5c5f711cf48fd7b047ead0bb70f65fd825841cccba0f7e05b88",
      "assetIds": []
    },
    {
      "x": 15,
      "y": 82,
      "size": 1,
      "price": "1011000000000000000000",
      "reserved": "",
      "salt": "0xaa79b72858e6f6b20ba6f8cb6549e54789e8f98894baa420577a52980b5f4733",
      "assetIds": []
    },
    {
      "x": 15,
      "y": 83,
      "size": 1,
      "price": "1011000000000000000000",
      "reserved": "0x7a9fe22691c811ea339d9b73150e6911a5343dca",
      "salt": "0x2a37936a9bed89ed4827314d85a09829ee3a971f6e78a9263e99ba55482eb71e",
      "assetIds": []
    },
    {
      "x": 15,
      "y": 84,
      "size": 1,
      "price": "1011000000000000000000",
      "reserved": "",
      "salt": "0x479f2d24bf43895b5fd35859d4826ce1a37e63f6ea0044cef63ae5c40e299cb7",
      "assetIds": []
    },
    {
      "x": 15,
      "y": 85,
      "size": 1,
      "price": "1011000000000000000000",
      "reserved": "",
      "salt": "0x8df0ae75d00d2dfd13a6899cb684e4ce3ca18dcbf9e7fecea17e0fb6f11bb0f7",
      "assetIds": []
    },
    {
      "x": 15,
      "y": 86,
      "size": 1,
      "price": "1011000000000000000000",
      "reserved": "0x7a9fe22691c811ea339d9b73150e6911a5343dca",
      "salt": "0xe59af9aa45aae3509fe9449c8a93ae0951169dbdaf9aba7cccff242896ad19cd",
      "assetIds": []
    },
    {
      "x": 15,
      "y": 87,
      "size": 1,
      "price": "1011000000000000000000",
      "reserved": "",
      "salt": "0xe7e2c2e6de34d4dbcd1412e2b12a2ee029e6951a5a4794283b23b447f7e650b6",
      "assetIds": []
    },
    {
      "x": 16,
      "y": 57,
      "size": 1,
      "price": "4683000000000000000000",
      "reserved": "",
      "salt": "0x2c0ed826b842a654c067608873bd6f33f96f62e3bc78e2bcc122800ea4b8ce5e",
      "assetIds": [
        "41506478881403507969696680653240014914910929820314476107906210059990541021186"
      ]
    },
    {
      "x": 16,
      "y": 58,
      "size": 1,
      "price": "4683000000000000000000",
      "reserved": "",
      "salt": "0x95009f48a40b724faa8eeaec22056be0f69f710b089c82bec2e080779a6cd577",
      "assetIds": [
        "41506478881403507969696680653240014914910929820314476107906210059990541021186"
      ]
    },
    {
      "x": 16,
      "y": 59,
      "size": 1,
      "price": "4683000000000000000000",
      "reserved": "",
      "salt": "0x67fb063da87a282bc837323c5a63831925b29ac641eee462a45f5738180562d6",
      "assetIds": [
        "41506478881403507969696680653240014914910929820314476107906210059990541021186"
      ]
    },
    {
      "x": 16,
      "y": 60,
      "size": 1,
      "price": "4683000000000000000000",
      "reserved": "",
      "salt": "0xfa54e6157d7aaab22ce1a970c493430a1b0e3a75556d9f509b0e3ae5f52259f9",
      "assetIds": [
        "41506478881403507969696680653240014914910929820314476107906210059990541021186"
      ]
    },
    {
      "x": 16,
      "y": 61,
      "size": 1,
      "price": "4683000000000000000000",
      "reserved": "",
      "salt": "0x684a66e5407185252093e1ba5d24d012cb8a59bef71ce4a6a7681053f4894ffd",
      "assetIds": [
        "41506478881403507969696680653240014914910929820314476107906210059990541021186"
      ]
    },
    {
      "x": 16,
      "y": 62,
      "size": 1,
      "price": "4683000000000000000000",
      "reserved": "",
      "salt": "0x4c88624aaa892e797c440dac1761f8e63ebc1f8a0c15338af53651ee6f5d5c8e",
      "assetIds": [
        "41506478881403507969696680653240014914910929820314476107906210059990541021186"
      ]
    },
    {
      "x": 16,
      "y": 63,
      "size": 1,
      "price": "4683000000000000000000",
      "reserved": "",
      "salt": "0x210f20b387ccf9cef70b103b68558664d7ce08c888511a790ba74c09a8fea1e4",
      "assetIds": [
        "41506478881403507969696680653240014914910929820314476107906210059990541021186"
      ]
    },
    {
      "x": 16,
      "y": 64,
      "size": 1,
      "price": "4683000000000000000000",
      "reserved": "",
      "salt": "0xa92d0c1fde65a063017ee23f860350c14a96491de0c2d0dcf507ca448cdc0508",
      "assetIds": [
        "41506478881403507969696680653240014914910929820314476107906210059990541021186"
      ]
    },
    {
      "x": 16,
      "y": 65,
      "size": 1,
      "price": "4683000000000000000000",
      "reserved": "",
      "salt": "0xb8f95698264ca0d9c980c9ba8c0890cb695b9d238f19c6228be117376ff5ddd6",
      "assetIds": [
        "41506478881403507969696680653240014914910929820314476107906210059990541021186"
      ]
    },
    {
      "x": 16,
      "y": 66,
      "size": 1,
      "price": "4683000000000000000000",
      "reserved": "",
      "salt": "0x4cb07d8b99d7d7423a6e21b8b56e7c20ad81c45fdd3ba5d6193c593c56cb43bf",
      "assetIds": [
        "41506478881403507969696680653240014914910929820314476107906210059990541021186"
      ]
    },
    {
      "x": 16,
      "y": 67,
      "size": 1,
      "price": "1011000000000000000000",
      "reserved": "",
      "salt": "0xe204a6bfc9e2f1dfa614d1c640cca05fa4106ce84dc0af06264c46ed0a16cce7",
      "assetIds": []
    },
    {
      "x": 16,
      "y": 68,
      "size": 1,
      "price": "1011000000000000000000",
      "reserved": "",
      "salt": "0xadadac22d3d8fd20b998414480140fd375267d2be5b7964ad94b3af51eb4c489",
      "assetIds": []
    },
    {
      "x": 16,
      "y": 69,
      "size": 1,
      "price": "1011000000000000000000",
      "reserved": "",
      "salt": "0x22d0bc259187ec536f216ae5babefcca8f76d03c52ffb2ddae150137885867c6",
      "assetIds": []
    },
    {
      "x": 16,
      "y": 70,
      "size": 1,
      "price": "1011000000000000000000",
      "reserved": "",
      "salt": "0x19274daf4e72d3ef13a8f2a164270633e050b61a05826e0f45ab175b1e1325e8",
      "assetIds": []
    },
    {
      "x": 16,
      "y": 71,
      "size": 1,
      "price": "1011000000000000000000",
      "reserved": "",
      "salt": "0x9f5e7a0f021beb3527a4ce2844a2d1801dee346d575896e67e93b38fc77a593e",
      "assetIds": []
    },
    {
      "x": 16,
      "y": 78,
      "size": 1,
      "price": "1011000000000000000000",
      "reserved": "",
      "salt": "0xcdc87c940afc31b2fcd20897cc1cc9d20714f63e64edde809806cc76c0f4be02",
      "assetIds": []
    },
    {
      "x": 16,
      "y": 79,
      "size": 1,
      "price": "1011000000000000000000",
      "reserved": "",
      "salt": "0xa6e494bbafdfa8544f695cff196c893720edd00d8ae31363652ff558ff921adf",
      "assetIds": []
    },
    {
      "x": 16,
      "y": 80,
      "size": 1,
      "price": "1011000000000000000000",
      "reserved": "",
      "salt": "0x1529311d0e9adceb3ecb808ec9b44e7b56338dd662ca50330e9f2d9f351c6200",
      "assetIds": []
    },
    {
      "x": 16,
      "y": 81,
      "size": 1,
      "price": "1011000000000000000000",
      "reserved": "0x7a9fe22691c811ea339d9b73150e6911a5343dca",
      "salt": "0x94ab15691fd4972771bd99a401725d3bb9edb10301b1dd03576183a2c79982b2",
      "assetIds": []
    },
    {
      "x": 16,
      "y": 82,
      "size": 1,
      "price": "1011000000000000000000",
      "reserved": "",
      "salt": "0x788cc9109e76abc904c99acdde334fe29ebd08194f83f0b1b7b92a8ecbccb3ff",
      "assetIds": []
    },
    {
      "x": 16,
      "y": 83,
      "size": 1,
      "price": "1011000000000000000000",
      "reserved": "",
      "salt": "0xf88c83cc2d70c1160c002602b531a347606f7b3c646d6a12fb5a6877344b830f",
      "assetIds": []
    },
    {
      "x": 16,
      "y": 84,
      "size": 1,
      "price": "1011000000000000000000",
      "reserved": "",
      "salt": "0xbfd323ffc765358a4b178f99755b90b62e0c5fc3f0fa74a777973529fcd480cf",
      "assetIds": []
    },
    {
      "x": 16,
      "y": 85,
      "size": 1,
      "price": "1011000000000000000000",
      "reserved": "0x7a9fe22691c811ea339d9b73150e6911a5343dca",
      "salt": "0xb29b751923c4ad0c730444da1c83fe7776fc993a86c73ee13e2223de829165d9",
      "assetIds": []
    },
    {
      "x": 16,
      "y": 86,
      "size": 1,
      "price": "1011000000000000000000",
      "reserved": "",
      "salt": "0x95fa9279c55610cd53b14c97c876f5ca686281e25c9830f0956cb1f20f236929",
      "assetIds": []
    },
    {
      "x": 16,
      "y": 87,
      "size": 1,
      "price": "1011000000000000000000",
      "reserved": "",
      "salt": "0xdb2c0b8f61f770fc15cf0c17fb223ca5fbab3a3c4f5c984813ac2d2e4ff5dcdc",
      "assetIds": []
    },
    {
      "x": 17,
      "y": 60,
      "size": 1,
      "price": "4683000000000000000000",
      "reserved": "",
      "salt": "0x8cb8066b384759b272f06d92b9d6a5d64818e233b2cdcfe4163eca8976f05a05",
      "assetIds": [
        "41506478881403507969696680653240014914910929820314476107906210059990541021186"
      ]
    },
    {
      "x": 17,
      "y": 61,
      "size": 1,
      "price": "4683000000000000000000",
      "reserved": "",
      "salt": "0x3e707c5a05a7dce48adf6eb49a615faf9c93090e32755a73877c3fe04ee68deb",
      "assetIds": [
        "41506478881403507969696680653240014914910929820314476107906210059990541021186"
      ]
    },
    {
      "x": 17,
      "y": 62,
      "size": 1,
      "price": "4683000000000000000000",
      "reserved": "",
      "salt": "0xb3d3dda5183e272e4482d7ae49e907ed5eaf0b29b67ce4dc9fe4e67aacff6168",
      "assetIds": [
        "41506478881403507969696680653240014914910929820314476107906210059990541021186"
      ]
    },
    {
      "x": 17,
      "y": 63,
      "size": 1,
      "price": "1011000000000000000000",
      "reserved": "0x7a9fe22691c811ea339d9b73150e6911a5343dca",
      "salt": "0x8f11bc065bec84e79de0582e1e6661035f1ed1c7baf8bad0de35e935ba256929",
      "assetIds": []
    },
    {
      "x": 17,
      "y": 64,
      "size": 1,
      "price": "4683000000000000000000",
      "reserved": "",
      "salt": "0x5dd631e8d6f91d0fcd0e87efb06e4ec201480c97140f8e0269ba5af047931172",
      "assetIds": [
        "41506478881403507969696680653240014914910929820314476107906210059990541021186"
      ]
    },
    {
      "x": 17,
      "y": 65,
      "size": 1,
      "price": "4683000000000000000000",
      "reserved": "",
      "salt": "0x1bcc75af3cbe3a712492b8c18c7c451f417d9cb1837085b15eade72fea3eff12",
      "assetIds": [
        "41506478881403507969696680653240014914910929820314476107906210059990541021186"
      ]
    },
    {
      "x": 17,
      "y": 66,
      "size": 1,
      "price": "1011000000000000000000",
      "reserved": "0x7a9fe22691c811ea339d9b73150e6911a5343dca",
      "salt": "0x95219ae83c347338d41b5589cf9177654bd36c552f804ceed2dc7db87a9825ae",
      "assetIds": []
    },
    {
      "x": 17,
      "y": 67,
      "size": 1,
      "price": "1011000000000000000000",
      "reserved": "",
      "salt": "0x1f27d61e7fded92c82fe16f08b655875404a4c584838b48f289c863927cdb567",
      "assetIds": []
    },
    {
      "x": 17,
      "y": 68,
      "size": 1,
      "price": "1011000000000000000000",
      "reserved": "",
      "salt": "0x033eac8d05d58af87ca79bb78bfb54b75940cbbcb32eb28469072f0ac6d35bdf",
      "assetIds": []
    },
    {
      "x": 17,
      "y": 69,
      "size": 1,
      "price": "1011000000000000000000",
      "reserved": "",
      "salt": "0x8ee8c6bc23b82d9412c74b1a8b0b7b7450a155d4cc40f8e948280906db9ba3e8",
      "assetIds": []
    },
    {
      "x": 17,
      "y": 70,
      "size": 1,
      "price": "1011000000000000000000",
      "reserved": "0x7a9fe22691c811ea339d9b73150e6911a5343dca",
      "salt": "0x71e32da23f44b46afca380cbc804d790e63482458b7ff19e2bbdf05ee9cd5680",
      "assetIds": []
    },
    {
      "x": 17,
      "y": 71,
      "size": 1,
      "price": "1011000000000000000000",
      "reserved": "",
      "salt": "0xa38e17b779900995070c74ebb26ec34b42b52a69283f186e55083175c52c25d6",
      "assetIds": []
    },
    {
      "x": 17,
      "y": 78,
      "size": 1,
      "price": "1011000000000000000000",
      "reserved": "",
      "salt": "0xbd2b1d6634512a09646537380b55735f570cb61addb46fe8d960381ba8cc65f2",
      "assetIds": []
    },
    {
      "x": 17,
      "y": 79,
      "size": 1,
      "price": "1011000000000000000000",
      "reserved": "",
      "salt": "0x3435a095e08195d006b249b3a308249266f9df5236234a673c6be34159406ed2",
      "assetIds": []
    },
    {
      "x": 17,
      "y": 80,
      "size": 1,
      "price": "1011000000000000000000",
      "reserved": "",
      "salt": "0xd063995099a36b8044f0b789383eb2e472e8c8983a7257f0442b6d7073643cb8",
      "assetIds": []
    },
    {
      "x": 17,
      "y": 81,
      "size": 1,
      "price": "1011000000000000000000",
      "reserved": "",
      "salt": "0xe32b2f0feb9917a3a38e164c1f7220cd78108c837842a32737d4792d039cc840",
      "assetIds": []
    },
    {
      "x": 17,
      "y": 82,
      "size": 1,
      "price": "1011000000000000000000",
      "reserved": "",
      "salt": "0x48cdaa20fdebe56f0213f6bd8e20a6c17f51464e244b31c8c8628dce88a8cded",
      "assetIds": []
    },
    {
      "x": 17,
      "y": 83,
      "size": 1,
      "price": "1011000000000000000000",
      "reserved": "0x7a9fe22691c811ea339d9b73150e6911a5343dca",
      "salt": "0x8aaf65b42f6b32c315a7107d4b4c977121049ccfb3e5d7bd9e0707e6ebc091c6",
      "assetIds": []
    },
    {
      "x": 17,
      "y": 84,
      "size": 1,
      "price": "1011000000000000000000",
      "reserved": "",
      "salt": "0x2032ba7e36b841ec2d581c4e2d08df2e81a82b05fcd98c5656197b6b49e1fb6c",
      "assetIds": []
    },
    {
      "x": 17,
      "y": 85,
      "size": 1,
      "price": "1011000000000000000000",
      "reserved": "",
      "salt": "0x8dd2b54dd0828570a50fbf5af1831256da3bc2fc973480655d5bca283e32ba2f",
      "assetIds": []
    },
    {
      "x": 17,
      "y": 86,
      "size": 1,
      "price": "1011000000000000000000",
      "reserved": "",
      "salt": "0x5888b586d3a9983a3eb0aff2bfe64a0071f628377c2b6c7c155691e9cae618c4",
      "assetIds": []
    },
    {
      "x": 17,
      "y": 87,
      "size": 1,
      "price": "1011000000000000000000",
      "reserved": "",
      "salt": "0x309ac0033068a3b04af7fc51d74aad03bbddfecdcd603ee66467c0d7a64ceb0c",
      "assetIds": []
    },
    {
      "x": 18,
      "y": 60,
      "size": 1,
      "price": "4683000000000000000000",
      "reserved": "",
      "salt": "0xaeb512e478218e4541186da99bf720c0e20cc335d501078f054b7623fbdac89b",
      "assetIds": [
        "41506478881403507969696680653240014914910929820314476107906210059990541021186"
      ]
    },
    {
      "x": 18,
      "y": 61,
      "size": 1,
      "price": "4683000000000000000000",
      "reserved": "",
      "salt": "0xd912b5d52a4dc9dcd78956714a19db2cad410c4f543ef8ae7ea62787d8c6f65a",
      "assetIds": [
        "41506478881403507969696680653240014914910929820314476107906210059990541021186"
      ]
    },
    {
      "x": 18,
      "y": 62,
      "size": 1,
      "price": "4683000000000000000000",
      "reserved": "",
      "salt": "0xc98ef858d525d48c4c0de00141ba9852c00a27f2951ae0d956b02ba1696e30cf",
      "assetIds": [
        "41506478881403507969696680653240014914910929820314476107906210059990541021186"
      ]
    },
    {
      "x": 18,
      "y": 63,
      "size": 1,
      "price": "4683000000000000000000",
      "reserved": "",
      "salt": "0x6a9746a39620ef278bdde47ff6cdbf41b2945537563a7d8c74eea6ecbe2fdd1b",
      "assetIds": [
        "41506478881403507969696680653240014914910929820314476107906210059990541021186"
      ]
    },
    {
      "x": 18,
      "y": 64,
      "size": 1,
      "price": "4683000000000000000000",
      "reserved": "",
      "salt": "0x32f666b6dab649dcc36b0ddf9875471c27bfb4ee44ead18af704b97ae8cf46ab",
      "assetIds": [
        "41506478881403507969696680653240014914910929820314476107906210059990541021186"
      ]
    },
    {
      "x": 18,
      "y": 65,
      "size": 1,
      "price": "4683000000000000000000",
      "reserved": "",
      "salt": "0x51600bf541d41ca5332dc174b4ba2876740b6526ffc9839a7db2325dba7273b4",
      "assetIds": [
        "41506478881403507969696680653240014914910929820314476107906210059990541021186"
      ]
    },
    {
      "x": 18,
      "y": 66,
      "size": 1,
      "price": "4683000000000000000000",
      "reserved": "",
      "salt": "0x31fc4a2c3bfab6fe26d351028b3bfae71bab34410f53bd8ddce490d431db88c0",
      "assetIds": [
        "41506478881403507969696680653240014914910929820314476107906210059990541021186"
      ]
    },
    {
      "x": 18,
      "y": 67,
      "size": 1,
      "price": "4683000000000000000000",
      "reserved": "",
      "salt": "0xe1fd41581f2e12782d7b9368ee6f964b933caed4aca084b990c8ee15f227c12f",
      "assetIds": [
        "41506478881403507969696680653240014914910929820314476107906210059990541021186"
      ]
    },
    {
      "x": 18,
      "y": 68,
      "size": 1,
      "price": "1011000000000000000000",
      "reserved": "",
      "salt": "0xed5f8cfda82f059eeb5abd567d0be22ae2b099fe472bbc478d0f10b0128d7ec4",
      "assetIds": []
    },
    {
      "x": 18,
      "y": 69,
      "size": 1,
      "price": "1011000000000000000000",
      "reserved": "",
      "salt": "0x9c5196c04b10cdccd46afaa253d8ffb97ede876f246379c2ce16db50ec99cca1",
      "assetIds": []
    },
    {
      "x": 18,
      "y": 70,
      "size": 1,
      "price": "1011000000000000000000",
      "reserved": "",
      "salt": "0x048d64d34a68b91014f320e708722dfb2ad96bf0aaebf54a0ae2758af8f0fb58",
      "assetIds": []
    },
    {
      "x": 18,
      "y": 71,
      "size": 1,
      "price": "1011000000000000000000",
      "reserved": "",
      "salt": "0xc62456d36b3660a6932ccfb4c0e7a854c290606a70c0e3e11916288c11abb359",
      "assetIds": []
    },
    {
      "x": 18,
      "y": 75,
      "size": 1,
      "price": "1011000000000000000000",
      "reserved": "",
      "salt": "0x37c51eaec8c2c13699635cfea224ebcc01e8312d972e32f3e92b42d92d94cb65",
      "assetIds": []
    },
    {
      "x": 18,
      "y": 76,
      "size": 1,
      "price": "1011000000000000000000",
      "reserved": "",
      "salt": "0x3c3ef11ef41a5e7b8a48caa48f0e7ae4cbcfafdd76752fc3b8f5841dc687ac2d",
      "assetIds": []
    },
    {
      "x": 18,
      "y": 77,
      "size": 1,
      "price": "1011000000000000000000",
      "reserved": "",
      "salt": "0x653403050c7e1e05117e7b13d2de292a23f78572434087fa156bbec9c4e8a5b1",
      "assetIds": []
    },
    {
      "x": 18,
      "y": 78,
      "size": 1,
      "price": "1011000000000000000000",
      "reserved": "",
      "salt": "0xf2e66093c072922860fcd58f4e47117e8a7f80866cbc440f3214713a143759d6",
      "assetIds": []
    },
    {
      "x": 18,
      "y": 79,
      "size": 1,
      "price": "1011000000000000000000",
      "reserved": "0x7a9fe22691c811ea339d9b73150e6911a5343dca",
      "salt": "0x365dbb2d4a0713fc85873d558b58b15a08d3eaca95dad1c8f4f3fc2d8900eb60",
      "assetIds": []
    },
    {
      "x": 18,
      "y": 80,
      "size": 1,
      "price": "1011000000000000000000",
      "reserved": "",
      "salt": "0xa4e0068a8bc9fb4bf1a9497323e31b1265a9bd7890e57a2aab2b4aae0b374882",
      "assetIds": []
    },
    {
      "x": 18,
      "y": 81,
      "size": 1,
      "price": "1011000000000000000000",
      "reserved": "",
      "salt": "0xbd0e029a929aa56a9c5402f5d9016f6188a8d43e74a06c60d210aaea9c404c5e",
      "assetIds": []
    },
    {
      "x": 18,
      "y": 82,
      "size": 1,
      "price": "1011000000000000000000",
      "reserved": "0x7a9fe22691c811ea339d9b73150e6911a5343dca",
      "salt": "0x66dd2e14470385b9b0d3b17f3b27afb4c9f01fd03a13123a272e1b6467088ed7",
      "assetIds": []
    },
    {
      "x": 18,
      "y": 83,
      "size": 1,
      "price": "1011000000000000000000",
      "reserved": "",
      "salt": "0x97ba68431f1e375428fa2643d92dd6841682c58595ea4d4d08f8e248af90d971",
      "assetIds": []
    },
    {
      "x": 19,
      "y": 60,
      "size": 1,
      "price": "4683000000000000000000",
      "reserved": "",
      "salt": "0x3009e4b2dd0943b09dd28cdb6ca65f6c62f6607e1a4f5df1aba69550f54b3530",
      "assetIds": [
        "41506478881403507969696680653240014914910929820314476107906210059990541021186"
      ]
    },
    {
      "x": 19,
      "y": 61,
      "size": 1,
      "price": "4683000000000000000000",
      "reserved": "",
      "salt": "0xe82b9f1590eb122dd66f225fcdc104f9819a80f0dc246222948e14280a258a0d",
      "assetIds": [
        "41506478881403507969696680653240014914910929820314476107906210059990541021186"
      ]
    },
    {
      "x": 19,
      "y": 62,
      "size": 1,
      "price": "4683000000000000000000",
      "reserved": "",
      "salt": "0x2019bf31525240efc70c1b18e68e78b67a53e912039e4cf6fdf74ad711dfb801",
      "assetIds": [
        "41506478881403507969696680653240014914910929820314476107906210059990541021186"
      ]
    },
    {
      "x": 19,
      "y": 63,
      "size": 1,
      "price": "4683000000000000000000",
      "reserved": "",
      "salt": "0xf17c1f0e2132b2dc8c275867752985ac528b7fb55640c06eadf2d86fae1efa15",
      "assetIds": [
        "41506478881403507969696680653240014914910929820314476107906210059990541021186"
      ]
    },
    {
      "x": 19,
      "y": 64,
      "size": 1,
      "price": "4683000000000000000000",
      "reserved": "",
      "salt": "0xaafcf9b3b501de7f735d14c278c2a100116a77f1dc117659ad58b881e969ed03",
      "assetIds": [
        "41506478881403507969696680653240014914910929820314476107906210059990541021186"
      ]
    },
    {
      "x": 19,
      "y": 65,
      "size": 1,
      "price": "4683000000000000000000",
      "reserved": "",
      "salt": "0x03ef2a31938d72bf3c72cbb6d06fc7b51be9c76accd01633ac296823b24c067e",
      "assetIds": [
        "41506478881403507969696680653240014914910929820314476107906210059990541021186"
      ]
    },
    {
      "x": 19,
      "y": 66,
      "size": 1,
      "price": "1011000000000000000000",
      "reserved": "",
      "salt": "0xd0f0ffe7efe53014e17dc09da4139fb9be32e2ed2a6ba56c14d4ea91d5a34c6f",
      "assetIds": []
    },
    {
      "x": 19,
      "y": 67,
      "size": 1,
      "price": "1011000000000000000000",
      "reserved": "",
      "salt": "0x0c1491b61e996db5ee670042103ee208eda4a512ab2e0d39fdf8a535d8e0221e",
      "assetIds": []
    },
    {
      "x": 19,
      "y": 68,
      "size": 1,
      "price": "1011000000000000000000",
      "reserved": "",
      "salt": "0xb6c798d5da15e014531853c54ae91dbeafb8d93214c1932b5b367068047847e5",
      "assetIds": []
    },
    {
      "x": 19,
      "y": 69,
      "size": 1,
      "price": "1011000000000000000000",
      "reserved": "",
      "salt": "0x2b3dbd34874330358d317b9f839da661d13b70608f57da10b000745b4be10064",
      "assetIds": []
    },
    {
      "x": 19,
      "y": 70,
      "size": 1,
      "price": "1011000000000000000000",
      "reserved": "",
      "salt": "0xbbefbb3c6b5ac195a6edf618b2ab0690a5564a520cc8cb9c5f14a63c14e621ad",
      "assetIds": []
    },
    {
      "x": 19,
      "y": 71,
      "size": 1,
      "price": "1011000000000000000000",
      "reserved": "",
      "salt": "0x2750f14d423a75ee0919233a3c8e342ad242ae91a0135b753699520f16908faa",
      "assetIds": []
    },
    {
      "x": 19,
      "y": 75,
      "size": 1,
      "price": "1011000000000000000000",
      "reserved": "0x7a9fe22691c811ea339d9b73150e6911a5343dca",
      "salt": "0x46f846e356d492c440a3816ad24cc566aa1ded6251abdf859d93051b530d3d74",
      "assetIds": []
    },
    {
      "x": 19,
      "y": 76,
      "size": 1,
      "price": "1011000000000000000000",
      "reserved": "",
      "salt": "0xf335fbf0922e6e54d79b7248d95102a26e89f5b6a203ba400a2c6da90ecafc07",
      "assetIds": []
    },
    {
      "x": 19,
      "y": 77,
      "size": 1,
      "price": "1011000000000000000000",
      "reserved": "",
      "salt": "0x7097e5d1b32f4887f1f75ec9f9797982b82f75c63551764f03c6385bfd424d19",
      "assetIds": []
    },
    {
      "x": 19,
      "y": 78,
      "size": 1,
      "price": "1011000000000000000000",
      "reserved": "0x7a9fe22691c811ea339d9b73150e6911a5343dca",
      "salt": "0x20bba70b376d9e828c219eea33335573dd4fc735b1f28feeed32bd3f8dc52455",
      "assetIds": []
    },
    {
      "x": 19,
      "y": 79,
      "size": 1,
      "price": "1011000000000000000000",
      "reserved": "",
      "salt": "0x4f84d07a40608cfcc20c41d1fac2fcffbecc23890a4b68b685d470255ba925bf",
      "assetIds": []
    },
    {
      "x": 19,
      "y": 80,
      "size": 1,
      "price": "1011000000000000000000",
      "reserved": "",
      "salt": "0xc1ece4347f38f5ef41bbfd2e7bbfbc38d7aabd174996af8a5d812a9b71b7c7ca",
      "assetIds": []
    },
    {
      "x": 19,
      "y": 81,
      "size": 1,
      "price": "1011000000000000000000",
      "reserved": "",
      "salt": "0xab76a3df64061991246685f415bdf416f2961139ec768409abc6f06c86cfb95f",
      "assetIds": []
    },
    {
      "x": 19,
      "y": 82,
      "size": 1,
      "price": "1011000000000000000000",
      "reserved": "",
      "salt": "0x9fd452d19b73be45699cd927729008bcf154d585f284cf1d17370c02e7c38230",
      "assetIds": []
    },
    {
      "x": 19,
      "y": 83,
      "size": 1,
      "price": "1011000000000000000000",
      "reserved": "",
      "salt": "0x967a116630de5821b8da2c359ba808cbb69eac759981fb8288d6277573ad9ee2",
      "assetIds": []
    },
    {
      "x": 20,
      "y": 60,
      "size": 1,
      "price": "1011000000000000000000",
      "reserved": "0x7a9fe22691c811ea339d9b73150e6911a5343dca",
      "salt": "0x981d955a3e2724f5f033bbdf36a7d8736990be9834f6f72004d064abd822a1b6",
      "assetIds": []
    },
    {
      "x": 20,
      "y": 61,
      "size": 1,
      "price": "4683000000000000000000",
      "reserved": "",
      "salt": "0xf31baed1369a26e04dc2c6f0cba8cb2f785f7f6154f24e6f85f27f4c33102c05",
      "assetIds": [
        "41506478881403507969696680653240014914910929820314476107906210059990541021186"
      ]
    },
    {
      "x": 20,
      "y": 62,
      "size": 1,
      "price": "4683000000000000000000",
      "reserved": "",
      "salt": "0x93ae383869d68be257945783fcef2900c475ef993777a0600b04d11550208bdb",
      "assetIds": [
        "41506478881403507969696680653240014914910929820314476107906210059990541021186"
      ]
    },
    {
      "x": 20,
      "y": 63,
      "size": 1,
      "price": "4683000000000000000000",
      "reserved": "",
      "salt": "0x93057e49809162287d50e05592e63625f2567fb2afd876dbfd3ac35ecc6f5851",
      "assetIds": [
        "41506478881403507969696680653240014914910929820314476107906210059990541021186"
      ]
    },
    {
      "x": 20,
      "y": 64,
      "size": 1,
      "price": "4683000000000000000000",
      "reserved": "",
      "salt": "0xe51c9f8f5905c26b4e37220f62c919a57d4fb345d5b6e03efba5cbdf5dd58b94",
      "assetIds": [
        "41506478881403507969696680653240014914910929820314476107906210059990541021186"
      ]
    },
    {
      "x": 20,
      "y": 65,
      "size": 1,
      "price": "1011000000000000000000",
      "reserved": "0x7a9fe22691c811ea339d9b73150e6911a5343dca",
      "salt": "0x25680b0fe921f00bc8779feea983cad969cf26d787183f497e4d6f2f6ddf3b6e",
      "assetIds": []
    },
    {
      "x": 20,
      "y": 66,
      "size": 1,
      "price": "1011000000000000000000",
      "reserved": "",
      "salt": "0x4cccd92ccb67ad75417eac9da2f0f6358c14e1505a28c00760c89823fc33fcfc",
      "assetIds": []
    },
    {
      "x": 20,
      "y": 67,
      "size": 1,
      "price": "1011000000000000000000",
      "reserved": "",
      "salt": "0xe3c3157a1f5e0302dca65ecc68f2d38374e9bb039d25f9804eb740f503d0c0fd",
      "assetIds": []
    },
    {
      "x": 20,
      "y": 68,
      "size": 1,
      "price": "1011000000000000000000",
      "reserved": "0x7a9fe22691c811ea339d9b73150e6911a5343dca",
      "salt": "0x46a7b9a08a0f616744408b41e19e3d347f565ed12f2c6fb438f13cd5919d869e",
      "assetIds": []
    },
    {
      "x": 20,
      "y": 69,
      "size": 1,
      "price": "1011000000000000000000",
      "reserved": "",
      "salt": "0x4338a1b6235c1f9cc841c75bd97dd452b612148c38563cb68a772b04e16edf97",
      "assetIds": []
    },
    {
      "x": 20,
      "y": 70,
      "size": 1,
      "price": "1011000000000000000000",
      "reserved": "",
      "salt": "0x1bfa64d0c23fead668a3f2fe82fc70882bb5e9d7a1a0856ef31e1b7c677c2346",
      "assetIds": []
    },
    {
      "x": 20,
      "y": 71,
      "size": 1,
      "price": "1011000000000000000000",
      "reserved": "",
      "salt": "0x1ee07ff065ee366e1ce6844493d5062578039e603165197df01e0425f0c2becb",
      "assetIds": []
    },
    {
      "x": 20,
      "y": 75,
      "size": 1,
      "price": "1011000000000000000000",
      "reserved": "",
      "salt": "0x3c3ad700d26fa7f89d1b169e44017c20d5eb512aaf8f6fe7737d75fceffce961",
      "assetIds": []
    },
    {
      "x": 20,
      "y": 76,
      "size": 1,
      "price": "1011000000000000000000",
      "reserved": "",
      "salt": "0x93c42eaaffe2c4a8f2c3bd35e900c8c1569d296a46ee9083f1c788f071dcf927",
      "assetIds": []
    },
    {
      "x": 20,
      "y": 77,
      "size": 1,
      "price": "1011000000000000000000",
      "reserved": "0x7a9fe22691c811ea339d9b73150e6911a5343dca",
      "salt": "0x448d7c56472555432bd57a4e1b48232b24d1bbba15268dc4d22715ebc1be51dc",
      "assetIds": []
    },
    {
      "x": 20,
      "y": 78,
      "size": 1,
      "price": "1011000000000000000000",
      "reserved": "",
      "salt": "0xc50cbefdd1ee01b26c3cb40d60fa6d5b794f065ac6c266cfcefd68e5df33abee",
      "assetIds": []
    },
    {
      "x": 20,
      "y": 79,
      "size": 1,
      "price": "1011000000000000000000",
      "reserved": "",
      "salt": "0xf9f8c04bcbe50063a77e8a620dc264854dfb3e1f05460ec7d57dfb71dcaa5b12",
      "assetIds": []
    },
    {
      "x": 20,
      "y": 80,
      "size": 1,
      "price": "1011000000000000000000",
      "reserved": "",
      "salt": "0x5f0e165b183df17373077b0c90d2164a8fb351efc0b75d0083ec0d771b521a65",
      "assetIds": []
    },
    {
      "x": 20,
      "y": 81,
      "size": 1,
      "price": "1011000000000000000000",
      "reserved": "0x7a9fe22691c811ea339d9b73150e6911a5343dca",
      "salt": "0x6af105e5fd2434165ab5cd9ddb2817c7554c2468f0b8482823d57272fdad70fd",
      "assetIds": []
    },
    {
      "x": 20,
      "y": 82,
      "size": 1,
      "price": "1011000000000000000000",
      "reserved": "",
      "salt": "0xf987ccad1dc34f687e9d75e995e65cd3f067b3052771c17399f42dd7077e4062",
      "assetIds": []
    },
    {
      "x": 20,
      "y": 83,
      "size": 1,
      "price": "1011000000000000000000",
      "reserved": "",
      "salt": "0xbe1224b1730971836d3090a621513efae81b151f61e680bb19006a0433711df3",
      "assetIds": []
    },
    {
      "x": 21,
      "y": 60,
      "size": 1,
      "price": "4683000000000000000000",
      "reserved": "",
      "salt": "0xef5baa5759382114073c4b0fdd2a858ff37d441128ce92a1511533dd935aedb4",
      "assetIds": [
        "41506478881403507969696680653240014914910929820314476107906210059990541021186"
      ]
    },
    {
      "x": 21,
      "y": 61,
      "size": 1,
      "price": "4683000000000000000000",
      "reserved": "",
      "salt": "0xeaee2da83f91a389b1a2150a48a9e809c4aee9a5f7e6caaa38cec18c3fc5e470",
      "assetIds": [
        "41506478881403507969696680653240014914910929820314476107906210059990541021186"
      ]
    },
    {
      "x": 21,
      "y": 62,
      "size": 1,
      "price": "4683000000000000000000",
      "reserved": "",
      "salt": "0xead0a9d0a8cc0dd1e5ed50969a5576355ba4a1d7262d62865ba4611d7d6d0336",
      "assetIds": [
        "41506478881403507969696680653240014914910929820314476107906210059990541021186"
      ]
    },
    {
      "x": 21,
      "y": 63,
      "size": 1,
      "price": "4683000000000000000000",
      "reserved": "",
      "salt": "0x6dce94d3b889f558fc6c24250f8358b727ab0dde0a99529b2079f2de23a32850",
      "assetIds": [
        "41506478881403507969696680653240014914910929820314476107906210059990541021186"
      ]
    },
    {
      "x": 21,
      "y": 64,
      "size": 1,
      "price": "1011000000000000000000",
      "reserved": "",
      "salt": "0x1a167078e59fe04b436ffc1f9c3d94bda8efda519399de31e3613f81549f5372",
      "assetIds": []
    },
    {
      "x": 21,
      "y": 65,
      "size": 1,
      "price": "1011000000000000000000",
      "reserved": "0x7a9fe22691c811ea339d9b73150e6911a5343dca",
      "salt": "0x9c16401dc90d98d84416135d1f8051ea1b03069b6f85717b68554fdc6c3024e8",
      "assetIds": []
    },
    {
      "x": 21,
      "y": 66,
      "size": 1,
      "price": "1011000000000000000000",
      "reserved": "",
      "salt": "0x7ff1be9b88cb28f02dea1a7f1269ff05306da4bc851ffcb87edf734b2ba99b72",
      "assetIds": []
    },
    {
      "x": 21,
      "y": 67,
      "size": 1,
      "price": "1011000000000000000000",
      "reserved": "",
      "salt": "0xbca7e13c879573677441db133ec0b27f1a2b71afbcd983122b5e451e3e65dd40",
      "assetIds": []
    },
    {
      "x": 21,
      "y": 68,
      "size": 1,
      "price": "1011000000000000000000",
      "reserved": "",
      "salt": "0x4d9f9a8ac07c918e7888904ac8a034adc7d179b098e46f4b20202bfd65a063fd",
      "assetIds": []
    },
    {
      "x": 21,
      "y": 69,
      "size": 1,
      "price": "1011000000000000000000",
      "reserved": "",
      "salt": "0xd128d2c21508b5fcc2a334d5f575e1f335a3ce93e3df5764ff3e62635f0e3927",
      "assetIds": []
    },
    {
      "x": 21,
      "y": 70,
      "size": 1,
      "price": "1011000000000000000000",
      "reserved": "",
      "salt": "0x97a746d19642f56a95b7006834b593d44c7b55c0f14bd2bfab17be5a0914314e",
      "assetIds": []
    },
    {
      "x": 21,
      "y": 71,
      "size": 1,
      "price": "1011000000000000000000",
      "reserved": "",
      "salt": "0x4a837ecb0107ba48820ca70d2370ca39a20bc3b1bac6e1d73ac068a7271050cd",
      "assetIds": []
    },
    {
      "x": 21,
      "y": 72,
      "size": 1,
      "price": "1011000000000000000000",
      "reserved": "0x7a9fe22691c811ea339d9b73150e6911a5343dca",
      "salt": "0x45ee38d039dc17337c0d1557445ea06921368dd05fdbe592914e08eded9a21ba",
      "assetIds": []
    },
    {
      "x": 21,
      "y": 73,
      "size": 1,
      "price": "1011000000000000000000",
      "reserved": "",
      "salt": "0x528f844c167f6350789874848d894f4aef226d906c338d68af605147496c32ff",
      "assetIds": []
    },
    {
      "x": 21,
      "y": 74,
      "size": 1,
      "price": "1011000000000000000000",
      "reserved": "",
      "salt": "0x32cd5c74af20ccf4b4bca1086a27d355938fe90b6673f4c13d81f5012d337eb3",
      "assetIds": []
    },
    {
      "x": 21,
      "y": 75,
      "size": 1,
      "price": "1011000000000000000000",
      "reserved": "",
      "salt": "0xc77907b9fab75d32d9673edea9097d3e1dbe3f856086665702029a7b11d99ab7",
      "assetIds": []
    },
    {
      "x": 21,
      "y": 76,
      "size": 1,
      "price": "1011000000000000000000",
      "reserved": "",
      "salt": "0x0eea427c6cc13aeb46bbe1ccbcdf18ce2704a732ea59da05cf221ba89d3f54cf",
      "assetIds": []
    },
    {
      "x": 21,
      "y": 77,
      "size": 1,
      "price": "1011000000000000000000",
      "reserved": "",
      "salt": "0x7f65146ba9c75e1483ae57d79498f2bac6197b78cf14f986438a6f8ac9222824",
      "assetIds": []
    },
    {
      "x": 21,
      "y": 78,
      "size": 1,
      "price": "1011000000000000000000",
      "reserved": "",
      "salt": "0x6decbb45969fd24c31ecefc8bfb329f62c2dae97863ff4a117ff6a51e882613c",
      "assetIds": []
    },
    {
      "x": 21,
      "y": 79,
      "size": 1,
      "price": "1011000000000000000000",
      "reserved": "0x7a9fe22691c811ea339d9b73150e6911a5343dca",
      "salt": "0x5c791e97cec677706c8c0bfbad89d68daf4449c64943e07dae3c703a67aa95df",
      "assetIds": []
    },
    {
      "x": 21,
      "y": 80,
      "size": 1,
      "price": "1011000000000000000000",
      "reserved": "",
      "salt": "0x12baa32308fc3ab617e980dee9dbbdd6fe041b849e8d47bdc4f13dc05c4e1928",
      "assetIds": []
    },
    {
      "x": 21,
      "y": 81,
      "size": 1,
      "price": "1011000000000000000000",
      "reserved": "",
      "salt": "0x17f9f51abfbf3e17fa5d1d8a4ae76b25c37a3339f68deff259c0aa5479ce0e11",
      "assetIds": []
    },
    {
      "x": 21,
      "y": 82,
      "size": 1,
      "price": "1011000000000000000000",
      "reserved": "",
      "salt": "0x5d2137ddb424294c2674f00bb32a9423d10c8f8fc550d56bba46f3dd2e7cef89",
      "assetIds": []
    },
    {
      "x": 21,
      "y": 83,
      "size": 1,
      "price": "1011000000000000000000",
      "reserved": "",
      "salt": "0xe88cfaa80d879aa3e694a4e39c99b928ccd4f1b02f0e327770d0e34edd2ef312",
      "assetIds": []
    },
    {
      "x": 22,
      "y": 60,
      "size": 1,
      "price": "4683000000000000000000",
      "reserved": "",
      "salt": "0x4a65301ae8ccd2dea8b644e7fc8885f606e6d0be65ab8a71ee7aa21fcf3d5bb5",
      "assetIds": [
        "41506478881403507969696680653240014914910929820314476107906210059990541021186"
      ]
    },
    {
      "x": 22,
      "y": 61,
      "size": 1,
      "price": "4683000000000000000000",
      "reserved": "",
      "salt": "0xd93801756b7d7dcea5759b71e67cfa19a467a81c92b7ce1257c7a8581b1197bf",
      "assetIds": [
        "41506478881403507969696680653240014914910929820314476107906210059990541021186"
      ]
    },
    {
      "x": 22,
      "y": 62,
      "size": 1,
      "price": "4683000000000000000000",
      "reserved": "",
      "salt": "0xa3b0d4a9f998a27b0a6831762c7e583704720634a5abf5510506b55b6600dc7c",
      "assetIds": [
        "41506478881403507969696680653240014914910929820314476107906210059990541021186"
      ]
    },
    {
      "x": 22,
      "y": 63,
      "size": 1,
      "price": "4683000000000000000000",
      "reserved": "",
      "salt": "0xfc36cf728be528150003bc0bc9445e98647612225c3ab03f07e4ef6bd380383a",
      "assetIds": [
        "41506478881403507969696680653240014914910929820314476107906210059990541021186"
      ]
    },
    {
      "x": 22,
      "y": 64,
      "size": 1,
      "price": "1011000000000000000000",
      "reserved": "0x7a9fe22691c811ea339d9b73150e6911a5343dca",
      "salt": "0x812baef9007f06aa12ef1ea02c0f10c1ae7afb184d7ed83d9688f6c390509ac1",
      "assetIds": []
    },
    {
      "x": 22,
      "y": 65,
      "size": 1,
      "price": "1011000000000000000000",
      "reserved": "",
      "salt": "0x97d13ee18a6f63e803c47428d6287a0f33a2102cb02596f70c7536aca43d26ee",
      "assetIds": []
    },
    {
      "x": 22,
      "y": 66,
      "size": 1,
      "price": "1011000000000000000000",
      "reserved": "",
      "salt": "0xd71af95caec658d412e78de9e0dcd35588bf55ee1e18b18dc277a5bf13a93b39",
      "assetIds": []
    },
    {
      "x": 22,
      "y": 67,
      "size": 1,
      "price": "1011000000000000000000",
      "reserved": "",
      "salt": "0x35caa10a90e753dad8aaf21c485f77c50926e9467b9e22b665c92657c12d7988",
      "assetIds": []
    },
    {
      "x": 22,
      "y": 68,
      "size": 1,
      "price": "1011000000000000000000",
      "reserved": "",
      "salt": "0x662f1189ee1289198028dbe2406d0a7471bdb6ff781c349a4b9a885446c97890",
      "assetIds": []
    },
    {
      "x": 22,
      "y": 69,
      "size": 1,
      "price": "1011000000000000000000",
      "reserved": "",
      "salt": "0x4ec24c9e21fcf96a9400e21a9685da9c6cec032da456631190b28bfb7fdaacb8",
      "assetIds": []
    },
    {
      "x": 22,
      "y": 70,
      "size": 1,
      "price": "1011000000000000000000",
      "reserved": "",
      "salt": "0x246b6a61c241a6c2965866ecdbfda1b12fafdf37e2f51bbf1678b2734f2e6d6e",
      "assetIds": []
    },
    {
      "x": 22,
      "y": 71,
      "size": 1,
      "price": "1011000000000000000000",
      "reserved": "",
      "salt": "0x0d696760e6369dba9519956dca1335531db24c01f3622d13e48a3451ab28b81c",
      "assetIds": []
    },
    {
      "x": 22,
      "y": 72,
      "size": 1,
      "price": "1011000000000000000000",
      "reserved": "",
      "salt": "0x2bb27df2a2bee1d265b5a1d6e3d2a333ecbed3b43beb99f2422acfe7588248ba",
      "assetIds": []
    },
    {
      "x": 22,
      "y": 73,
      "size": 1,
      "price": "1011000000000000000000",
      "reserved": "",
      "salt": "0x34c182d8989fe6a5ca882475fa60a8da486ef2a04d9b0842c4d30f13bd54d58d",
      "assetIds": []
    },
    {
      "x": 22,
      "y": 74,
      "size": 1,
      "price": "1011000000000000000000",
      "reserved": "0x7a9fe22691c811ea339d9b73150e6911a5343dca",
      "salt": "0xb2f73e6617b3a33b2d157b9b6dd7770f3d422f6abb60fa4e10cdae986a6de3d4",
      "assetIds": []
    },
    {
      "x": 22,
      "y": 75,
      "size": 1,
      "price": "1011000000000000000000",
      "reserved": "",
      "salt": "0x7d7fb6d152b0d331b1a31219f0584945bcd722bb8b4a92379ee51b66992029ed",
      "assetIds": []
    },
    {
      "x": 22,
      "y": 76,
      "size": 1,
      "price": "1011000000000000000000",
      "reserved": "",
      "salt": "0xd2397371926c400a77cfc44fcc9ce6b2893acfbb645b467fedd96279c311ad8e",
      "assetIds": []
    },
    {
      "x": 22,
      "y": 77,
      "size": 1,
      "price": "1011000000000000000000",
      "reserved": "",
      "salt": "0xf7d3b6ca620b2ec0acf16aa5aff905e4f1cae564735e0fd509ab0b01c96b6868",
      "assetIds": []
    },
    {
      "x": 22,
      "y": 78,
      "size": 1,
      "price": "1011000000000000000000",
      "reserved": "",
      "salt": "0xb49ca6e79f4ebbd14210cbc3b2ae883c162a2eaf282190c86d60f9a31dd072bb",
      "assetIds": []
    },
    {
      "x": 22,
      "y": 79,
      "size": 1,
      "price": "1011000000000000000000",
      "reserved": "",
      "salt": "0x0478f9686ad46aa56981dbf52b817d2bd5a8c147aa1be4c4753450e6519f0176",
      "assetIds": []
    },
    {
      "x": 22,
      "y": 80,
      "size": 1,
      "price": "1011000000000000000000",
      "reserved": "",
      "salt": "0xaf20871b37b537189e063cc619634903d94fcd9c9859d1c3d38e0f7bfadf8cd0",
      "assetIds": []
    },
    {
      "x": 22,
      "y": 81,
      "size": 1,
      "price": "1011000000000000000000",
      "reserved": "",
      "salt": "0xa041c92a2393ee38198d5bbb18ab5317799870f8d50ef9ef5190168fd8f8cd3e",
      "assetIds": []
    },
    {
      "x": 22,
      "y": 82,
      "size": 1,
      "price": "1011000000000000000000",
      "reserved": "",
      "salt": "0x9aa561b53ba159568a20d50ae02935b5924cd6ab21770fe2157e8f765f82921e",
      "assetIds": []
    },
    {
      "x": 22,
      "y": 83,
      "size": 1,
      "price": "1011000000000000000000",
      "reserved": "",
      "salt": "0xd7a53e77a39e5575b7b59a18c18378b7ee61f4643bd5ad06a29fa83e4758ba8e",
      "assetIds": []
    },
    {
      "x": 23,
      "y": 60,
      "size": 1,
      "price": "4683000000000000000000",
      "reserved": "",
      "salt": "0x7a6e1f52abe7a1dbe2b1c26e5d2f1fa84eefa0214412da6db543ba7581ab76a3",
      "assetIds": [
        "41506478881403507969696680653240014914910929820314476107906210059990541021186"
      ]
    },
    {
      "x": 23,
      "y": 61,
      "size": 1,
      "price": "4683000000000000000000",
      "reserved": "",
      "salt": "0x36e307b52687371de003f7144b8ab6d491162572ddd274151fc2a23ee9928b04",
      "assetIds": [
        "41506478881403507969696680653240014914910929820314476107906210059990541021186"
      ]
    },
    {
      "x": 23,
      "y": 62,
      "size": 1,
      "price": "4683000000000000000000",
      "reserved": "",
      "salt": "0x983fad5ab3ca1f5543ec02c4485b702877e0e854a5ce79863beb2cc26afe8747",
      "assetIds": [
        "41506478881403507969696680653240014914910929820314476107906210059990541021186"
      ]
    },
    {
      "x": 23,
      "y": 63,
      "size": 1,
      "price": "4683000000000000000000",
      "reserved": "",
      "salt": "0x8efc21b978be12da4d305ffef96d0fd18621c4e454de3437725be9c05230cba9",
      "assetIds": [
        "41506478881403507969696680653240014914910929820314476107906210059990541021186"
      ]
    },
    {
      "x": 23,
      "y": 64,
      "size": 1,
      "price": "1011000000000000000000",
      "reserved": "",
      "salt": "0xab1dd4b2d598605137b1aeea2615e81120d5ba06c20a10fc2c7500b947ab0b84",
      "assetIds": []
    },
    {
      "x": 23,
      "y": 65,
      "size": 1,
      "price": "1011000000000000000000",
      "reserved": "",
      "salt": "0x7d650772605901f9c6c1122e324733671187f78bb9922222a0a97e0a36d5d72f",
      "assetIds": []
    },
    {
      "x": 23,
      "y": 66,
      "size": 1,
      "price": "1011000000000000000000",
      "reserved": "",
      "salt": "0x0a1f88ae4748393c12b47fb6d79ab90056c3100368c01a2f3b6f7b41a6ee98f0",
      "assetIds": []
    },
    {
      "x": 23,
      "y": 67,
      "size": 1,
      "price": "1011000000000000000000",
      "reserved": "",
      "salt": "0x8939a9d2c625de862e2c0bbbd12b67937b840f628749987505270c934b8107f6",
      "assetIds": []
    },
    {
      "x": 23,
      "y": 68,
      "size": 1,
      "price": "1011000000000000000000",
      "reserved": "",
      "salt": "0x502f15101b162bb7a28e27be7d3be961df38c4b090279393c0c4f8cd6041510f",
      "assetIds": []
    },
    {
      "x": 23,
      "y": 69,
      "size": 1,
      "price": "1011000000000000000000",
      "reserved": "",
      "salt": "0x31c36e05d2768d4ff345c669dd220164d7390054da9007fc4bf1c062c2071fc0",
      "assetIds": []
    },
    {
      "x": 23,
      "y": 70,
      "size": 1,
      "price": "1011000000000000000000",
      "reserved": "",
      "salt": "0xd3d9402885588de8defa28e261a9394a7254a90bc250442129259cba5f5aadd2",
      "assetIds": []
    },
    {
      "x": 23,
      "y": 71,
      "size": 1,
      "price": "1011000000000000000000",
      "reserved": "",
      "salt": "0x881ee54ec7c95c3e7c13c7fd45f649a6661abba771286344cad8393043ab5735",
      "assetIds": []
    },
    {
      "x": 23,
      "y": 72,
      "size": 1,
      "price": "1011000000000000000000",
      "reserved": "",
      "salt": "0x80f12e7e0f60a81f316d9ac70f4e27b854639c421a1e873b11ab6ec0f1c9c0aa",
      "assetIds": []
    },
    {
      "x": 23,
      "y": 73,
      "size": 1,
      "price": "1011000000000000000000",
      "reserved": "",
      "salt": "0x70be257b7725403d557021143ecd26eea258de2d008b9bec1bc0df7ebbc700e2",
      "assetIds": []
    },
    {
      "x": 23,
      "y": 74,
      "size": 1,
      "price": "1011000000000000000000",
      "reserved": "",
      "salt": "0x1e73db1f216cfdf5421fb4985941e425707013d9960a5ecf3e711bb6685b1bb0",
      "assetIds": []
    },
    {
      "x": 23,
      "y": 75,
      "size": 1,
      "price": "1011000000000000000000",
      "reserved": "",
      "salt": "0x73444566b966b253853714f92bd80eb8ee80eb4bda0ad063863345e4c4fa82c5",
      "assetIds": []
    },
    {
      "x": 23,
      "y": 76,
      "size": 1,
      "price": "1011000000000000000000",
      "reserved": "",
      "salt": "0xc7c8754b3e8a65df4a1df195720fb570c653a04fbccddd5673c70837c4e6d3c6",
      "assetIds": []
    },
    {
      "x": 23,
      "y": 77,
      "size": 1,
      "price": "1011000000000000000000",
      "reserved": "",
      "salt": "0x38c7ba1ba0c5ee8ddc8fd3966399a9fb5628f9898a1dd4602652cbfed4972253",
      "assetIds": []
    },
    {
      "x": 23,
      "y": 78,
      "size": 1,
      "price": "1011000000000000000000",
      "reserved": "",
      "salt": "0x8f1d791a7d93ae6f75607bb395e61e044b305d415c6aeb6e52ea408c45871320",
      "assetIds": []
    },
    {
      "x": 23,
      "y": 79,
      "size": 1,
      "price": "1011000000000000000000",
      "reserved": "",
      "salt": "0x9b84e694e381f221a0743f45c6b1f79a4270686a018829821054adb5f04a3180",
      "assetIds": []
    },
    {
      "x": 23,
      "y": 80,
      "size": 1,
      "price": "1011000000000000000000",
      "reserved": "0x7a9fe22691c811ea339d9b73150e6911a5343dca",
      "salt": "0xa4d24523d9d6a375422c25e94b199bd1ce0e6349fc5397d4298eb5543384074c",
      "assetIds": []
    },
    {
      "x": 23,
      "y": 81,
      "size": 1,
      "price": "1011000000000000000000",
      "reserved": "",
      "salt": "0x248f21d5662aef53d9c9d08f96c628594eb66efba4fae945eecddfb7ade4d67b",
      "assetIds": []
    },
    {
      "x": 23,
      "y": 82,
      "size": 1,
      "price": "1011000000000000000000",
      "reserved": "",
      "salt": "0xe84c1e131d3038fe577fed2970bc9f02e7c2d4e15dfc13bef910352a7e50a3b2",
      "assetIds": []
    },
    {
      "x": 23,
      "y": 83,
      "size": 1,
      "price": "1011000000000000000000",
      "reserved": "",
      "salt": "0x1361725816e65e2687cb54a534758c592eea6afc916a2d5bda0b02a7028384df",
      "assetIds": []
    },
    {
      "x": 24,
      "y": 66,
      "size": 1,
      "price": "1011000000000000000000",
      "reserved": "",
      "salt": "0x371c1c597e6a8a199a5d36fc6c70d7e5a7c91798cd3997bd29bd58ca9d9476f3",
      "assetIds": []
    },
    {
      "x": 24,
      "y": 67,
      "size": 1,
      "price": "1011000000000000000000",
      "reserved": "0x7a9fe22691c811ea339d9b73150e6911a5343dca",
      "salt": "0x5a8e8ae5ee5607b7fd125b6abb176dbb3df011b877799c95c5c1be35c6740bf9",
      "assetIds": []
    },
    {
      "x": 24,
      "y": 68,
      "size": 1,
      "price": "1011000000000000000000",
      "reserved": "",
      "salt": "0x9123484db22f33dae5300de0c2b7b950852b03a020ff106cb0d5c686b6d43b06",
      "assetIds": []
    },
    {
      "x": 24,
      "y": 69,
      "size": 1,
      "price": "1011000000000000000000",
      "reserved": "",
      "salt": "0xd8f69e9a012b65b060eebfe92b605a8113d9de897a4a9f9bebddf14b96232bc3",
      "assetIds": []
    },
    {
      "x": 24,
      "y": 70,
      "size": 1,
      "price": "1011000000000000000000",
      "reserved": "",
      "salt": "0x67ae46fe51ab5b80c1af94bdb557c65f00f34a3d226c2f14ddcb4335471c612f",
      "assetIds": []
    },
    {
      "x": 24,
      "y": 71,
      "size": 1,
      "price": "1011000000000000000000",
      "reserved": "",
      "salt": "0x7ec138ea543c1a4b8b6d9593da30b2a716472f2e6e110e4e9790a784fccc777b",
      "assetIds": []
    },
    {
      "x": 25,
      "y": 66,
      "size": 1,
      "price": "1011000000000000000000",
      "reserved": "",
      "salt": "0x31fbe3701c4c3273c50b07adb39ebb65166fcef9a7236c5d710b60d1a70ab308",
      "assetIds": []
    },
    {
      "x": 25,
      "y": 67,
      "size": 1,
      "price": "1011000000000000000000",
      "reserved": "",
      "salt": "0x4ee58ba7d5c50cf2830d8ab4af26643b9815c182e3c2d2654febfa51bf812599",
      "assetIds": []
    },
    {
      "x": 25,
      "y": 68,
      "size": 1,
      "price": "1011000000000000000000",
      "reserved": "",
      "salt": "0x3562f89e26249b6fa6db877f5ddb65587f48da4be284cec3a852acdede79e887",
      "assetIds": []
    },
    {
      "x": 25,
      "y": 69,
      "size": 1,
      "price": "1011000000000000000000",
      "reserved": "",
      "salt": "0x123bf2a5138f17a840c1b14d2e5fdd008573536b4fea719593628270ae20a84e",
      "assetIds": []
    },
    {
      "x": 25,
      "y": 70,
      "size": 1,
      "price": "1011000000000000000000",
      "reserved": "",
      "salt": "0xd6cf57a08eabfb2f9c427b45a96bd38cfcb086ddd3f51dadddd3421428123344",
      "assetIds": []
    },
    {
      "x": 25,
      "y": 71,
      "size": 1,
      "price": "1011000000000000000000",
      "reserved": "",
      "salt": "0x16825d430ce335e388384267ecb035a0974662296722c4a1bbf5481ae1ae2e4c",
      "assetIds": []
    },
    {
      "x": 26,
      "y": 66,
      "size": 1,
      "price": "1011000000000000000000",
      "reserved": "0x7a9fe22691c811ea339d9b73150e6911a5343dca",
      "salt": "0x624aabf53192317814724f00ec0b20c02d7a754ec5cac9eec40537ef9bc005a7",
      "assetIds": []
    },
    {
      "x": 26,
      "y": 67,
      "size": 1,
      "price": "1011000000000000000000",
      "reserved": "",
      "salt": "0xfcb6a60979b749d6bb7de01f0ed90844eb52a97723854b6ee14e9f01247a5231",
      "assetIds": []
    },
    {
      "x": 26,
      "y": 68,
      "size": 1,
      "price": "1011000000000000000000",
      "reserved": "0x7a9fe22691c811ea339d9b73150e6911a5343dca",
      "salt": "0x5394b292cf7dab29a03e7f3f542178b7dce31a7aaed977bc0f757b91c991f5cd",
      "assetIds": []
    },
    {
      "x": 26,
      "y": 69,
      "size": 1,
      "price": "1011000000000000000000",
      "reserved": "",
      "salt": "0xb89c11fcac2570a770f2d1c1316d911971361149d6aa908c1c0c30ffdc7b2331",
      "assetIds": []
    },
    {
      "x": 26,
      "y": 70,
      "size": 1,
      "price": "1011000000000000000000",
      "reserved": "0x7a9fe22691c811ea339d9b73150e6911a5343dca",
      "salt": "0x47e3daa366112a35dbeeadedba22f9401d3742cb2fb9c3acf3715294d4c0eb67",
      "assetIds": []
    },
    {
      "x": 26,
      "y": 71,
      "size": 1,
      "price": "1011000000000000000000",
      "reserved": "",
      "salt": "0x1cb66bcd7b01f41dc5beb1feb2c785ee4ce74ca6f1c430e76034216add87c936",
      "assetIds": []
    },
    {
      "x": 3,
      "y": 54,
      "size": 3,
      "price": "8648000000000000000000",
      "reserved": "0x7a9fe22691c811ea339d9b73150e6911a5343dca",
      "salt": "0x5f6c18dd6df18cc7556059998327552c4188578d022b8d157c059cb6d41940e5",
      "assetIds": []
    },
    {
      "x": 9,
      "y": 42,
      "size": 3,
      "price": "8648000000000000000000",
      "reserved": "0x7a9fe22691c811ea339d9b73150e6911a5343dca",
      "salt": "0x1c102143d609564b7c0e9cdd9562d433fc479e5efc6bbc29145cdb5bb5ba563e",
      "assetIds": []
    },
    {
      "x": 9,
      "y": 84,
      "size": 3,
      "price": "8648000000000000000000",
      "reserved": "0x7a9fe22691c811ea339d9b73150e6911a5343dca",
      "salt": "0xae06e3756d529611e3952afb507976d73705a72b27ee622ff3786ba573f04f09",
      "assetIds": []
    },
    {
      "x": 9,
      "y": 87,
      "size": 3,
      "price": "8648000000000000000000",
      "reserved": "0x7a9fe22691c811ea339d9b73150e6911a5343dca",
      "salt": "0xa60bb62f839059eff199539280f3561ad51662d7d7166efbca95ae983d6a18d4",
      "assetIds": []
    },
    {
      "x": 12,
      "y": 57,
      "size": 3,
      "price": "8648000000000000000000",
      "reserved": "0x7a9fe22691c811ea339d9b73150e6911a5343dca",
      "salt": "0xb588bd7b217462e0dae40429d40bbd63488e54a6be20a2fd32c11492973c6cfd",
      "assetIds": []
    },
    {
      "x": 12,
      "y": 60,
      "size": 3,
      "price": "8648000000000000000000",
      "reserved": "0x7a9fe22691c811ea339d9b73150e6911a5343dca",
      "salt": "0xf6b767f3736eb0c0137b3549670fff931eabef9777b3738b869bb6059c7b54a8",
      "assetIds": []
    },
    {
      "x": 18,
      "y": 72,
      "size": 3,
      "price": "8648000000000000000000",
      "reserved": "0x7a9fe22691c811ea339d9b73150e6911a5343dca",
      "salt": "0x30479a5b25b4adae2a311439b4071f17d32ee79ccc09bd95d9486724ad597d8e",
      "assetIds": []
    },
    {
      "x": 0,
      "y": 60,
      "size": 6,
      "price": "32772000000000000000000",
      "reserved": "0x7a9fe22691c811ea339d9b73150e6911a5343dca",
      "salt": "0x247b6a636c85a8cc7c00194888cc582c9f2a29ec29bb7d047f8187e0a2506580",
      "assetIds": []
    },
    {
      "x": 0,
      "y": 84,
      "size": 6,
      "price": "32772000000000000000000",
      "reserved": "0x7a9fe22691c811ea339d9b73150e6911a5343dca",
      "salt": "0x2fef6b23fe1c474e0ccd6060728b2ab5ae7151efe59f4dbbc2c22f1584f7d8af",
      "assetIds": []
    },
    {
      "x": 6,
      "y": 54,
      "size": 6,
      "price": "32772000000000000000000",
      "reserved": "0x7a9fe22691c811ea339d9b73150e6911a5343dca",
      "salt": "0xa85225efefd532f5683b969620cd0e2c3ebe1473d015b683dae8e895fdb15e75",
      "assetIds": []
    },
    {
      "x": 12,
      "y": 72,
      "size": 6,
      "price": "32772000000000000000000",
      "reserved": "0x7a9fe22691c811ea339d9b73150e6911a5343dca",
      "salt": "0x3f43a73ff251954cfa6e758619a2eab564a9b0cc671371187e25fab662e0be7c",
      "assetIds": []
    },
    {
      "x": 0,
      "y": 72,
      "size": 12,
      "price": "123806000000000000000000",
      "reserved": "0x7a9fe22691c811ea339d9b73150e6911a5343dca",
      "salt": "0xf6683ad46b65fa1555b121f6128b06da832e8ea4cb66cae070148a97824fde6a",
      "assetIds": []
    },
    {
      "x": 144,
      "y": 156,
      "size": 12,
      "price": "123806000000000000000000",
      "reserved": "0x7a9fe22691c811ea339d9b73150e6911a5343dca",
      "salt": "0xdc891d2410260a08542c866b95484b60304da647474cd4fb1d376146686c336f",
      "assetIds": []
    }
  ],
  "solcInputHash": "ea3f750ed6a3f377b8756d8b7b11eedf",
  "bytecode": "0x610160604052620d2f006005556103e860075534801561001e57600080fd5b5060405161242e38038061242e833981810160405261018081101561004257600080fd5b50805160208201516040830151606080850151608086015160a08088015160c0808a015160e08b01516101008c01516101208d01516101408e0151610160909e0151600280546001600160a01b0319166001600160a01b03861617905560038390558d8b1b6001600160601b0319908116909852998c901b909616909352999a9899979895979496929590949391926100dc8a600161014a565b600680546001600160a01b03199081166001600160a01b039a8b1617909155610140979097526101209590955260008054909616979096169690961790935550606093841b6001600160601b031990811660e05292841b831660805290921b1661010052506101ae92505050565b6001600160a01b038216600081815260016020908152604091829020805460ff191685151590811790915582519384529083015280517fb21eb88b4e33b3f1281830a7178d74d8aa73220416215726b68ae23d539515cb9281900390910190a15050565b60805160601c60a05160601c60c05160601c60e05160601c6101005160601c61012051610140516121fb610233600039806109375280611d44525080610913528061139a525080611da45250806115d252806116f4525080610c50528061159c5280611dd852508061166152806116c5525080610dfa528061190852506121fb6000f3fe608060405234801561001057600080fd5b50600436106101515760003560e01c8063984d6252116100cd578063dc5074af11610081578063ecb255b511610066578063ecb255b514610857578063f23a6e6114610874578063f2e7b3811461090957610151565b8063dc5074af14610814578063e56f8a9e1461083a57610151565b8063bc197c81116100b2578063bc197c81146105d3578063c10a420814610735578063caed35001461080c57610151565b8063984d6252146104db578063b522ecff146105ad57610151565b80636e9960c3116101245780638a04af6a116101095780638a04af6a1461032a5780638a12b82f146103585780638f283970146104b557610151565b80636e9960c3146102fe57806377f1c3ac1461032257610151565b806325cb5bc014610156578063495906571461017057806358bc29441461017857806365194ce7146101a0575b600080fd5b61015e610911565b60408051918252519081900360200190f35b61015e610935565b61019e6004803603602081101561018e57600080fd5b50356001600160a01b0316610959565b005b610246600480360360208110156101b657600080fd5b8101906020810181356401000000008111156101d157600080fd5b8201836020820111156101e357600080fd5b8035906020019184600183028401116401000000008311171561020557600080fd5b91908080601f016020809104026020016040519081016040528093929190818152602001838380828437600092019190915250929550610a04945050505050565b6040518080602001866001600160a01b03166001600160a01b03168152602001856001600160a01b03166001600160a01b03168152602001848152602001838152602001828103825287818151815260200191508051906020019080838360005b838110156102bf5781810151838201526020016102a7565b50505050905090810190601f1680156102ec5780820380516001836020036101000a031916815260200191505b50965050505050505060405180910390f35b610306610b09565b604080516001600160a01b039092168252519081900360200190f35b61015e610b18565b61019e6004803603604081101561034057600080fd5b506001600160a01b0381351690602001351515610b1e565b61019e600480360361018081101561036f57600080fd5b6001600160a01b038235811692602081013582169260408201359092169160608201359160808101359160a08201359160c08101359160e0820135916101008101359181019061014081016101208201356401000000008111156103d257600080fd5b8201836020820111156103e457600080fd5b8035906020019184602083028401116401000000008311171561040657600080fd5b91939092909160208101903564010000000081111561042457600080fd5b82018360208201111561043657600080fd5b8035906020019184602083028401116401000000008311171561045857600080fd5b91939092909160208101903564010000000081111561047657600080fd5b82018360208201111561048857600080fd5b803590602001918460018302840111640100000000831117156104aa57600080fd5b509092509050610b75565b61019e600480360360208110156104cb57600080fd5b50356001600160a01b0316610cc3565b61019e600480360360608110156104f157600080fd5b6001600160a01b03823516919081019060408101602082013564010000000081111561051c57600080fd5b82018360208201111561052e57600080fd5b8035906020019184602083028401116401000000008311171561055057600080fd5b91939092909160208101903564010000000081111561056e57600080fd5b82018360208201111561058057600080fd5b803590602001918460208302840111640100000000831117156105a257600080fd5b509092509050610d99565b61019e600480360360208110156105c357600080fd5b50356001600160a01b0316610f24565b610700600480360360a08110156105e957600080fd5b6001600160a01b03823581169260208101359091169181019060608101604082013564010000000081111561061d57600080fd5b82018360208201111561062f57600080fd5b8035906020019184602083028401116401000000008311171561065157600080fd5b91939092909160208101903564010000000081111561066f57600080fd5b82018360208201111561068157600080fd5b803590602001918460208302840111640100000000831117156106a357600080fd5b9193909290916020810190356401000000008111156106c157600080fd5b8201836020820111156106d357600080fd5b803590602001918460018302840111640100000000831117156106f557600080fd5b50909250905061100d565b604080517fffffffff000000000000000000000000000000000000000000000000000000009092168252519081900360200190f35b6107f8600480360360a081101561074b57600080fd5b81019060208101813564010000000081111561076657600080fd5b82018360208201111561077857600080fd5b8035906020019184600183028401116401000000008311171561079a57600080fd5b91908080601f016020809104026020016040519081016040528093929190818152602001838380828437600092019190915250929550506001600160a01b03833581169450602084013516926040810135925060600135905061103a565b604080519115158252519081900360200190f35b610306611176565b6107f86004803603602081101561082a57600080fd5b50356001600160a01b0316611185565b61019e6004803603602081101561085057600080fd5b50356111a3565b61019e6004803603602081101561086d57600080fd5b5035611207565b610700600480360360a081101561088a57600080fd5b6001600160a01b03823581169260208101359091169160408201359160608101359181019060a0810160808201356401000000008111156108ca57600080fd5b8201836020820111156108dc57600080fd5b803590602001918460018302840111640100000000831117156108fe57600080fd5b50909250905061126b565b61015e611296565b7f000000000000000000000000000000000000000000000000000000000000000090565b7f000000000000000000000000000000000000000000000000000000000000000090565b6000546001600160a01b031633146109b8576040805162461bcd60e51b815260206004820152601060248201527f53656e646572206e6f742061646d696e00000000000000000000000000000000604482015290519081900360640190fd5b600554600280546001600160a01b03908116600090815260046020526040902042909301909255805473ffffffffffffffffffffffffffffffffffffffff191692909116919091179055565b606060008060008060606000806000808a80602001905160a0811015610a2957600080fd5b8101908080516040519392919084640100000000821115610a4957600080fd5b908301906020820185811115610a5e57600080fd5b8251640100000000811182820188101715610a7857600080fd5b82525081516020918201929091019080838360005b83811015610aa5578181015183820152602001610a8d565b50505050905090810190601f168015610ad25780820380516001836020036101000a031916815260200191505b5060409081526020820151908201516060830151608090930151959f50909d509b5099509197505050505050505091939590929450565b6000546001600160a01b031690565b60035490565b6000546001600160a01b03163314610b675760405162461bcd60e51b815260040180806020018281038252602e815260200180612198602e913960400191505060405180910390fd5b610b71828261129c565b5050565b610b7f898961131e565b610c048f8e8e8e8e8e8d8d8d80806020026020016040519081016040528093929190818152602001838360200280828437600081840152601f19601f820116905080830192505050505050508c8c8080602002602001604051908101604052809392919081815260200183836020028082843760009201919091525061139892505050565b610c458f8984848080601f01602080910402602001604051908101604052809392919081815260200183838082843760009201919091525061157592505050565b610c758f8f8e8e8e8d7f00000000000000000000000000000000000000000000000000000000000000008f6115c6565b610cb28e87878080602002602001604051908101604052809392919081815260200183836020028082843760009201919091525061189192505050565b505050505050505050505050505050565b6000546001600160a01b03163314610d22576040805162461bcd60e51b815260206004820152601b60248201527f6f6e6c792061646d696e2063616e206368616e67652061646d696e0000000000604482015290519081900360640190fd5b600054604080516001600160a01b039283168152918316602083015280517f7e644d79422f17c01e4894b5f4f588d331ebfa28653d42ae832dc59e38c9798f9281900390910190a16000805473ffffffffffffffffffffffffffffffffffffffff19166001600160a01b0392909216919091179055565b6000546001600160a01b03163314610df8576040805162461bcd60e51b815260206004820152600e60248201527f4e4f545f415554484f52495a4544000000000000000000000000000000000000604482015290519081900360640190fd5b7f00000000000000000000000000000000000000000000000000000000000000006001600160a01b0316632eb2c2d63087878787876040518763ffffffff1660e01b815260040180876001600160a01b03166001600160a01b03168152602001866001600160a01b03166001600160a01b031681526020018060200180602001806020018481038452888882818152602001925060200280828437600083820152601f01601f19169091018581038452868152602090810191508790870280828437600081840152601f19601f8201169050808301925050508481038252600081526020016020019950505050505050505050600060405180830381600087803b158015610f0557600080fd5b505af1158015610f19573d6000803e3d6000fd5b505050505050505050565b6001600160a01b038116610f7f576040805162461bcd60e51b815260206004820152600c60248201527f5a45524f5f414444524553530000000000000000000000000000000000000000604482015290519081900360640190fd5b6000546001600160a01b03163314610fde576040805162461bcd60e51b815260206004820152600e60248201527f4e4f545f415554484f52495a4544000000000000000000000000000000000000604482015290519081900360640190fd5b6006805473ffffffffffffffffffffffffffffffffffffffff19166001600160a01b0392909216919091179055565b7fbc197c810000000000000000000000000000000000000000000000000000000098975050505050505050565b600060035482118061105d5750836001600160a01b0316856001600160a01b0316145b8061106757508242115b156110745750600061116d565b60408051606087811b7fffffffffffffffffffffffffffffffffffffffff0000000000000000000000009081166020808501919091529188901b166034830152604882018690526068808301869052835180840390910181526088830184528051908201207f19457468657265756d205369676e6564204d6573736167653a0a33320000000060a884015260c48084018290528451808503909101815260e4909301909352815191012060009061112b9089611a55565b6001600160a01b03811660009081526004602052604090205490915042116111585760019250505061116d565b6002546001600160a01b039081169116149150505b95945050505050565b6002546001600160a01b031690565b6001600160a01b031660009081526001602052604090205460ff1690565b6000546001600160a01b03163314611202576040805162461bcd60e51b815260206004820152601060248201527f53656e646572206e6f742061646d696e00000000000000000000000000000000604482015290519081900360640190fd5b600355565b6000546001600160a01b03163314611266576040805162461bcd60e51b815260206004820152600e60248201527f4e4f545f415554484f52495a4544000000000000000000000000000000000000604482015290519081900360640190fd5b600755565b7ff23a6e61000000000000000000000000000000000000000000000000000000009695505050505050565b60075490565b6001600160a01b03821660008181526001602090815260409182902080547fffffffffffffffffffffffffffffffffffffffffffffffffffffffffffffff001685151590811790915582519384529083015280517fb21eb88b4e33b3f1281830a7178d74d8aa73220416215726b68ae23d539515cb9281900390910190a15050565b6113456103e861133960075485611b2290919063ffffffff16565b9063ffffffff611b9816565b8114610b71576040805162461bcd60e51b815260206004820152600d60248201527f494e56414c49445f505249434500000000000000000000000000000000000000604482015290519081900360640190fd5b7f0000000000000000000000000000000000000000000000000000000000000000421061140c576040805162461bcd60e51b815260206004820152600c60248201527f53414c455f49535f4f5645520000000000000000000000000000000000000000604482015290519081900360640190fd5b6001600160a01b03891633148061143257503360009081526001602052604090205460ff165b611483576040805162461bcd60e51b815260206004820152600e60248201527f4e4f545f415554484f52495a4544000000000000000000000000000000000000604482015290519081900360640190fd5b6001600160a01b03881615806114aa5750886001600160a01b0316886001600160a01b0316145b6114fb576040805162461bcd60e51b815260206004820152600d60248201527f52455345525645445f4c414e4400000000000000000000000000000000000000604482015290519081900360640190fd5b600061150c888888888d8989611bfd565b90506115188282611ca2565b611569576040805162461bcd60e51b815260206004820152600c60248201527f494e56414c49445f4c414e440000000000000000000000000000000000000000604482015290519081900360640190fd5b50505050505050505050565b60006115818484611d6b565b6006549091506115c0908590839085906001600160a01b03167f0000000000000000000000000000000000000000000000000000000000000000611eb8565b50505050565b83600114806115fc57507f00000000000000000000000000000000000000000000000000000000000000006001600160a01b0316155b156116c357604080517f6e1e3bbf0000000000000000000000000000000000000000000000000000000081526001600160a01b03898116600483015260248201879052604482018990526064820188905260a06084830152600060a4830181905292517f000000000000000000000000000000000000000000000000000000000000000090911692636e1e3bbf9260e4808201939182900301818387803b1580156116a657600080fd5b505af11580156116ba573d6000803e3d6000fd5b50505050611827565b7f00000000000000000000000000000000000000000000000000000000000000006001600160a01b0316636e1e3bbf7f00000000000000000000000000000000000000000000000000000000000000008689898c60405160200180826001600160a01b03166001600160a01b031681526020019150506040516020818303038152906040526040518663ffffffff1660e01b815260040180866001600160a01b03166001600160a01b0316815260200185815260200184815260200183815260200180602001828103825283818151815260200191508051906020019080838360005b838110156117be5781810151838201526020016117a6565b50505050905090810190601f1680156117eb5780820380516001836020036101000a031916815260200191505b509650505050505050600060405180830381600087803b15801561180e57600080fd5b505af1158015611822573d6000803e3d6000fd5b505050505b60408051858152602081018590526001600160a01b03848116828401526060820184905291516101988802890192808b1692908c16917fe4dfa6ac11314892f3029b34a25b1a887da3b1cab2bbf8506d87128ba6e3ac029181900360800190a45050505050505050565b6060815167ffffffffffffffff811180156118ab57600080fd5b506040519080825280602002602001820160405280156118d5578160200160208202803683370190505b50905060005b82518110156119055760018282815181106118f257fe5b60209081029190910101526001016118db565b507f00000000000000000000000000000000000000000000000000000000000000006001600160a01b0316632eb2c2d6308585856040518563ffffffff1660e01b815260040180856001600160a01b03166001600160a01b03168152602001846001600160a01b03166001600160a01b03168152602001806020018060200180602001848103845286818151815260200191508051906020019060200280838360005b838110156119c05781810151838201526020016119a8565b50505050905001848103835285818151815260200191508051906020019060200280838360005b838110156119ff5781810151838201526020016119e7565b50505050905001848103825260008152602001602001975050505050505050600060405180830381600087803b158015611a3857600080fd5b505af1158015611a4c573d6000803e3d6000fd5b50505050505050565b60008151604114611a6557600080fd5b60208201516040830151606084015160001a601b811015611a8457601b015b8060ff16601b1480611a9957508060ff16601c145b611aa257600080fd5b6040805160008152602080820180845289905260ff8416828401526060820186905260808201859052915160019260a0808401939192601f1981019281900390910190855afa158015611af9573d6000803e3d6000fd5b5050604051601f1901519450506001600160a01b038416611b1957600080fd5b50505092915050565b600082611b3157506000611b92565b5081810281838281611b3f57fe5b0414611b92576040805162461bcd60e51b815260206004820152600860248201527f6f766572666c6f77000000000000000000000000000000000000000000000000604482015290519081900360640190fd5b92915050565b600081611bec576040805162461bcd60e51b815260206004820152600960248201527f64697662797a65726f0000000000000000000000000000000000000000000000604482015290519081900360640190fd5b818381611bf557fe5b049392505050565b60008787878787878760405160200180888152602001878152602001868152602001858152602001846001600160a01b03166001600160a01b031660601b8152601401838152602001828051906020019060200280838360005b83811015611c6f578181015183820152602001611c57565b50505050905001975050505050505050604051602081830303815290604052805190602001209050979650505050505050565b600081815b8451811015611d41576000858281518110611cbe57fe5b6020026020010151905080831015611d065782816040516020018083815260200182815260200192505050604051602081830303815290604052805190602001209250611d38565b808360405160200180838152602001828152602001925050506040516020818303038152906040528051906020012092505b50600101611ca7565b507f0000000000000000000000000000000000000000000000000000000000000000149392505050565b600080611d84606461133985600563ffffffff611b2216565b604080516323b872dd60e01b81526001600160a01b0387811660048301527f0000000000000000000000000000000000000000000000000000000000000000811660248301526044820184905291519293507f0000000000000000000000000000000000000000000000000000000000000000909116916323b872dd916064808201926020929091908290030181600087803b158015611e2357600080fd5b505af1158015611e37573d6000803e3d6000fd5b505050506040513d6020811015611e4d57600080fd5b5051611ea0576040805162461bcd60e51b815260206004820152601360248201527f4645455f5452414e534645525f4641494c454400000000000000000000000000604482015290519081900360640190fd5b611eb0838263ffffffff61213a16565b949350505050565b82518190859015612062576060600080600080611ed48a610a04565b9398509196509450925090506000611eef868686868661103a565b15611f7d57611f09611f018d84611b22565b612710611b98565b9050886001600160a01b0316846001600160a01b0316866001600160a01b03167fac7a699eb95c3c6d390ec4626de17ef9a67b35891efdb197beba7c7fdd45fac48f858760405180848152602001838152602001828152602001935050505060405180910390a4611f7a878261213a565b96505b801561205b57604080516323b872dd60e01b81526001600160a01b038f811660048301528781166024830152604482018490529151918a16916323b872dd916064808201926020929091908290030181600087803b158015611fde57600080fd5b505af1158015611ff2573d6000803e3d6000fd5b505050506040513d602081101561200857600080fd5b505161205b576040805162461bcd60e51b815260206004820152601960248201527f636f6d6d6973696f6e207472616e73666572206661696c656400000000000000604482015290519081900360640190fd5b5050505050505b604080516323b872dd60e01b81526001600160a01b0389811660048301528681166024830152604482018490529151918416916323b872dd916064808201926020929091908290030181600087803b1580156120bd57600080fd5b505af11580156120d1573d6000803e3d6000fd5b505050506040513d60208110156120e757600080fd5b5051611a4c576040805162461bcd60e51b815260206004820152601760248201527f7061796d656e74207472616e73666572206661696c6564000000000000000000604482015290519081900360640190fd5b600082821115612191576040805162461bcd60e51b815260206004820152600860248201527f756e6465666c6f77000000000000000000000000000000000000000000000000604482015290519081900360640190fd5b5090039056fe6f6e6c792061646d696e2063616e207365747570206d6574615472616e73616374696f6e50726f636573736f7273a26469706673582212200ff38c5741c66b2a22a9a9ee2abe0f55626323082b6b4443921fd3b25484584a64736f6c63430006050033",
  "devdoc": {
    "methods": {
      "buyLandWithSand(address,address,address,uint256,uint256,uint256,uint256,uint256,bytes32,uint256[],bytes32[],bytes)": {
        "params": {
          "buyer": "address that perform the payment",
          "priceInSand": "price in SAND to purchase that Land",
          "proof": "merkleProof for that particular Land",
          "reserved": "the reserved address (if any)",
          "size": "size of the pack of Land to purchase",
          "to": "address that will own the purchased Land",
          "x": "x coordinate of the Land",
          "y": "y coordinate of the Land"
        }
      },
      "changeAdmin(address)": {
        "details": "change the administrator to be `newAdmin`.",
        "params": {
          "newAdmin": "address of the new administrator."
        }
      },
      "getAdmin()": {
        "details": "gives the current administrator of this contract.",
        "returns": {
          "_0": "the current administrator of this contract."
        }
      },
      "getSigningWallet()": {
        "details": "signing wallet authorized for referral",
        "returns": {
          "_0": "the address of the signing wallet"
        }
      },
      "isMetaTransactionProcessor(address)": {
        "details": "check whether address `who` is given meta-transaction execution rights.",
        "params": {
          "who": "The address to query."
        },
        "returns": {
          "_0": "whether the address has meta-transaction execution rights."
        }
      },
      "isReferralValid(bytes,address,address,uint256,uint256)": {
        "params": {
          "commissionRate": "The commissionRate of the referral",
          "expiryTime": "The expiry time of the referral",
          "referee": "The address of the referee",
          "referrer": "The address of the referrer",
          "signature": "The signature to check (signed referral)"
        },
        "returns": {
          "_0": "True if the referral is valid"
        }
      },
      "setMetaTransactionProcessor(address,bool)": {
        "details": "Enable or disable the ability of `metaTransactionProcessor` to perform meta-tx (metaTransactionProcessor rights).",
        "params": {
          "enabled": "set whether the metaTransactionProcessor is enabled or disabled.",
          "metaTransactionProcessor": "address that will be given/removed metaTransactionProcessor rights."
        }
      },
      "setReceivingWallet(address)": {
        "params": {
          "newWallet": "address of the new receiving wallet"
        }
      },
      "updateMaxCommissionRate(uint256)": {
        "details": "Update the maximum commission rate",
        "params": {
          "newMaxCommissionRate": "The new maximum commission rate"
        }
      },
      "updateSigningWallet(address)": {
        "details": "Update the signing wallet",
        "params": {
          "newSigningWallet": "The new address of the signing wallet"
        }
      },
      "withdrawAssets(address,uint256[],uint256[])": {
        "params": {
          "assetIds": "the assetIds to be transferred",
          "to": "intended recipient of the asset tokens",
          "values": "the quantities of the assetIds to be transferred"
        }
      }
    },
    "title": "Estate Sale contract with referral"
  },
  "userdoc": {
    "methods": {
      "buyLandWithSand(address,address,address,uint256,uint256,uint256,uint256,uint256,bytes32,uint256[],bytes32[],bytes)": {
        "notice": "buy Land with SAND using the merkle proof associated with it"
      },
      "getExpiryTime()": {
        "notice": "Gets the expiry time for the current sale"
      },
      "getMaxCommisionRate()": {
        "notice": "the max commision rate"
      },
      "getMerkleRoot()": {
        "notice": "Gets the Merkle root associated with the current sale"
      },
      "isReferralValid(bytes,address,address,uint256,uint256)": {
        "notice": "Check if a referral is valid"
      },
      "setReceivingWallet(address)": {
        "notice": "set the wallet receiving the proceeds"
      },
      "withdrawAssets(address,uint256[],uint256[])": {
        "notice": "enable Admin to withdraw remaining assets from EstateSaleWithFee contract"
      }
    },
    "notice": "This contract manages the sale of our lands as Estates"
  },
  "storageLayout": {
    "storage": [
      {
        "astId": 13640,
        "contract": "src/solc_0.6/EstateSale/EstateSaleWithFee.sol:EstateSaleWithFee",
        "label": "_admin",
        "offset": 0,
        "slot": "0",
        "type": "t_address"
      },
      {
        "astId": 13702,
        "contract": "src/solc_0.6/EstateSale/EstateSaleWithFee.sol:EstateSaleWithFee",
        "label": "_metaTransactionContracts",
        "offset": 0,
        "slot": "1",
        "type": "t_mapping(t_address,t_bool)"
      },
      {
        "astId": 11818,
        "contract": "src/solc_0.6/EstateSale/EstateSaleWithFee.sol:EstateSaleWithFee",
        "label": "_signingWallet",
        "offset": 0,
        "slot": "2",
        "type": "t_address"
      },
      {
        "astId": 11820,
        "contract": "src/solc_0.6/EstateSale/EstateSaleWithFee.sol:EstateSaleWithFee",
        "label": "_maxCommissionRate",
        "offset": 0,
        "slot": "3",
        "type": "t_uint256"
      },
      {
        "astId": 11824,
        "contract": "src/solc_0.6/EstateSale/EstateSaleWithFee.sol:EstateSaleWithFee",
        "label": "_previousSigningWallets",
        "offset": 0,
        "slot": "4",
        "type": "t_mapping(t_address,t_uint256)"
      },
      {
        "astId": 11833,
        "contract": "src/solc_0.6/EstateSale/EstateSaleWithFee.sol:EstateSaleWithFee",
        "label": "_previousSigningDelay",
        "offset": 0,
        "slot": "5",
        "type": "t_uint256"
      },
      {
        "astId": 8205,
        "contract": "src/solc_0.6/EstateSale/EstateSaleWithFee.sol:EstateSaleWithFee",
        "label": "_wallet",
        "offset": 0,
        "slot": "6",
        "type": "t_address_payable"
      },
      {
        "astId": 8215,
        "contract": "src/solc_0.6/EstateSale/EstateSaleWithFee.sol:EstateSaleWithFee",
        "label": "_multiplier",
        "offset": 0,
        "slot": "7",
        "type": "t_uint256"
      }
    ],
    "types": {
      "t_address": {
        "encoding": "inplace",
        "label": "address",
        "numberOfBytes": "20"
      },
      "t_address_payable": {
        "encoding": "inplace",
        "label": "address payable",
        "numberOfBytes": "20"
      },
      "t_bool": {
        "encoding": "inplace",
        "label": "bool",
        "numberOfBytes": "1"
      },
      "t_mapping(t_address,t_bool)": {
        "encoding": "mapping",
        "key": "t_address",
        "label": "mapping(address => bool)",
        "numberOfBytes": "32",
        "value": "t_bool"
      },
      "t_mapping(t_address,t_uint256)": {
        "encoding": "mapping",
        "key": "t_address",
        "label": "mapping(address => uint256)",
        "numberOfBytes": "32",
        "value": "t_uint256"
      },
      "t_uint256": {
        "encoding": "inplace",
        "label": "uint256",
        "numberOfBytes": "32"
      }
    }
  }
}