{
  "address": "0xaED8e3212F181E016D66E1c76835C8B0EC6FBC15",
  "abi": [
    {
      "inputs": [
        {
          "internalType": "address",
          "name": "landAddress",
          "type": "address"
        },
        {
          "internalType": "address",
          "name": "sandContractAddress",
          "type": "address"
        },
        {
          "internalType": "address",
          "name": "initialMetaTx",
          "type": "address"
        },
        {
          "internalType": "address",
          "name": "admin",
          "type": "address"
        },
        {
          "internalType": "address payable",
          "name": "initialWalletAddress",
          "type": "address"
        },
        {
          "internalType": "bytes32",
          "name": "merkleRoot",
          "type": "bytes32"
        },
        {
          "internalType": "uint256",
          "name": "expiryTime",
          "type": "uint256"
        },
        {
          "internalType": "address",
          "name": "initialSigningWallet",
          "type": "address"
        },
        {
          "internalType": "uint256",
          "name": "initialMaxCommissionRate",
          "type": "uint256"
        },
        {
          "internalType": "address",
          "name": "estate",
          "type": "address"
        },
        {
          "internalType": "address",
          "name": "asset",
          "type": "address"
        },
        {
          "internalType": "address",
          "name": "feeDistributor",
          "type": "address"
        }
      ],
      "stateMutability": "nonpayable",
      "type": "constructor"
    },
    {
      "anonymous": false,
      "inputs": [
        {
          "indexed": false,
          "internalType": "address",
          "name": "oldAdmin",
          "type": "address"
        },
        {
          "indexed": false,
          "internalType": "address",
          "name": "newAdmin",
          "type": "address"
        }
      ],
      "name": "AdminChanged",
      "type": "event"
    },
    {
      "anonymous": false,
      "inputs": [
        {
          "indexed": true,
          "internalType": "address",
          "name": "buyer",
          "type": "address"
        },
        {
          "indexed": true,
          "internalType": "address",
          "name": "to",
          "type": "address"
        },
        {
          "indexed": true,
          "internalType": "uint256",
          "name": "topCornerId",
          "type": "uint256"
        },
        {
          "indexed": false,
          "internalType": "uint256",
          "name": "size",
          "type": "uint256"
        },
        {
          "indexed": false,
          "internalType": "uint256",
          "name": "price",
          "type": "uint256"
        },
        {
          "indexed": false,
          "internalType": "address",
          "name": "token",
          "type": "address"
        },
        {
          "indexed": false,
          "internalType": "uint256",
          "name": "amountPaid",
          "type": "uint256"
        }
      ],
      "name": "LandQuadPurchased",
      "type": "event"
    },
    {
      "anonymous": false,
      "inputs": [
        {
          "indexed": false,
          "internalType": "address",
          "name": "metaTransactionProcessor",
          "type": "address"
        },
        {
          "indexed": false,
          "internalType": "bool",
          "name": "enabled",
          "type": "bool"
        }
      ],
      "name": "MetaTransactionProcessor",
      "type": "event"
    },
    {
      "anonymous": false,
      "inputs": [
        {
          "indexed": true,
          "internalType": "address",
          "name": "referrer",
          "type": "address"
        },
        {
          "indexed": true,
          "internalType": "address",
          "name": "referee",
          "type": "address"
        },
        {
          "indexed": true,
          "internalType": "address",
          "name": "token",
          "type": "address"
        },
        {
          "indexed": false,
          "internalType": "uint256",
          "name": "amount",
          "type": "uint256"
        },
        {
          "indexed": false,
          "internalType": "uint256",
          "name": "commission",
          "type": "uint256"
        },
        {
          "indexed": false,
          "internalType": "uint256",
          "name": "commissionRate",
          "type": "uint256"
        }
      ],
      "name": "ReferralUsed",
      "type": "event"
    },
    {
      "inputs": [
        {
          "internalType": "address",
          "name": "buyer",
          "type": "address"
        },
        {
          "internalType": "address",
          "name": "to",
          "type": "address"
        },
        {
          "internalType": "address",
          "name": "reserved",
          "type": "address"
        },
        {
          "internalType": "uint256",
          "name": "x",
          "type": "uint256"
        },
        {
          "internalType": "uint256",
          "name": "y",
          "type": "uint256"
        },
        {
          "internalType": "uint256",
          "name": "size",
          "type": "uint256"
        },
        {
          "internalType": "uint256",
          "name": "priceInSand",
          "type": "uint256"
        },
        {
          "internalType": "uint256",
          "name": "adjustedPriceInSand",
          "type": "uint256"
        },
        {
          "internalType": "bytes32",
          "name": "salt",
          "type": "bytes32"
        },
        {
          "internalType": "uint256[]",
          "name": "assetIds",
          "type": "uint256[]"
        },
        {
          "internalType": "bytes32[]",
          "name": "proof",
          "type": "bytes32[]"
        },
        {
          "internalType": "bytes",
          "name": "referral",
          "type": "bytes"
        }
      ],
      "name": "buyLandWithSand",
      "outputs": [],
      "stateMutability": "nonpayable",
      "type": "function"
    },
    {
      "inputs": [
        {
          "internalType": "address",
          "name": "newAdmin",
          "type": "address"
        }
      ],
      "name": "changeAdmin",
      "outputs": [],
      "stateMutability": "nonpayable",
      "type": "function"
    },
    {
      "inputs": [
        {
          "internalType": "bytes",
          "name": "referral",
          "type": "bytes"
        }
      ],
      "name": "decodeReferral",
      "outputs": [
        {
          "internalType": "bytes",
          "name": "",
          "type": "bytes"
        },
        {
          "internalType": "address",
          "name": "",
          "type": "address"
        },
        {
          "internalType": "address",
          "name": "",
          "type": "address"
        },
        {
          "internalType": "uint256",
          "name": "",
          "type": "uint256"
        },
        {
          "internalType": "uint256",
          "name": "",
          "type": "uint256"
        }
      ],
      "stateMutability": "pure",
      "type": "function"
    },
    {
      "inputs": [],
      "name": "getAdmin",
      "outputs": [
        {
          "internalType": "address",
          "name": "",
          "type": "address"
        }
      ],
      "stateMutability": "view",
      "type": "function"
    },
    {
      "inputs": [],
      "name": "getExpiryTime",
      "outputs": [
        {
          "internalType": "uint256",
          "name": "",
          "type": "uint256"
        }
      ],
      "stateMutability": "view",
      "type": "function"
    },
    {
      "inputs": [],
      "name": "getMaxCommisionRate",
      "outputs": [
        {
          "internalType": "uint256",
          "name": "",
          "type": "uint256"
        }
      ],
      "stateMutability": "view",
      "type": "function"
    },
    {
      "inputs": [],
      "name": "getMerkleRoot",
      "outputs": [
        {
          "internalType": "bytes32",
          "name": "",
          "type": "bytes32"
        }
      ],
      "stateMutability": "view",
      "type": "function"
    },
    {
      "inputs": [],
      "name": "getSandMultiplier",
      "outputs": [
        {
          "internalType": "uint256",
          "name": "",
          "type": "uint256"
        }
      ],
      "stateMutability": "view",
      "type": "function"
    },
    {
      "inputs": [],
      "name": "getSigningWallet",
      "outputs": [
        {
          "internalType": "address",
          "name": "",
          "type": "address"
        }
      ],
      "stateMutability": "view",
      "type": "function"
    },
    {
      "inputs": [
        {
          "internalType": "address",
          "name": "who",
          "type": "address"
        }
      ],
      "name": "isMetaTransactionProcessor",
      "outputs": [
        {
          "internalType": "bool",
          "name": "",
          "type": "bool"
        }
      ],
      "stateMutability": "view",
      "type": "function"
    },
    {
      "inputs": [
        {
          "internalType": "bytes",
          "name": "signature",
          "type": "bytes"
        },
        {
          "internalType": "address",
          "name": "referrer",
          "type": "address"
        },
        {
          "internalType": "address",
          "name": "referee",
          "type": "address"
        },
        {
          "internalType": "uint256",
          "name": "expiryTime",
          "type": "uint256"
        },
        {
          "internalType": "uint256",
          "name": "commissionRate",
          "type": "uint256"
        }
      ],
      "name": "isReferralValid",
      "outputs": [
        {
          "internalType": "bool",
          "name": "",
          "type": "bool"
        }
      ],
      "stateMutability": "view",
      "type": "function"
    },
    {
      "inputs": [
        {
          "internalType": "address",
          "name": "",
          "type": "address"
        },
        {
          "internalType": "address",
          "name": "",
          "type": "address"
        },
        {
          "internalType": "uint256[]",
          "name": "",
          "type": "uint256[]"
        },
        {
          "internalType": "uint256[]",
          "name": "",
          "type": "uint256[]"
        },
        {
          "internalType": "bytes",
          "name": "",
          "type": "bytes"
        }
      ],
      "name": "onERC1155BatchReceived",
      "outputs": [
        {
          "internalType": "bytes4",
          "name": "",
          "type": "bytes4"
        }
      ],
      "stateMutability": "pure",
      "type": "function"
    },
    {
      "inputs": [
        {
          "internalType": "address",
          "name": "",
          "type": "address"
        },
        {
          "internalType": "address",
          "name": "",
          "type": "address"
        },
        {
          "internalType": "uint256",
          "name": "",
          "type": "uint256"
        },
        {
          "internalType": "uint256",
          "name": "",
          "type": "uint256"
        },
        {
          "internalType": "bytes",
          "name": "",
          "type": "bytes"
        }
      ],
      "name": "onERC1155Received",
      "outputs": [
        {
          "internalType": "bytes4",
          "name": "",
          "type": "bytes4"
        }
      ],
      "stateMutability": "pure",
      "type": "function"
    },
    {
      "inputs": [
        {
          "internalType": "uint256",
          "name": "newMultiplier",
          "type": "uint256"
        }
      ],
      "name": "rebalanceSand",
      "outputs": [],
      "stateMutability": "nonpayable",
      "type": "function"
    },
    {
      "inputs": [
        {
          "internalType": "address",
          "name": "metaTransactionProcessor",
          "type": "address"
        },
        {
          "internalType": "bool",
          "name": "enabled",
          "type": "bool"
        }
      ],
      "name": "setMetaTransactionProcessor",
      "outputs": [],
      "stateMutability": "nonpayable",
      "type": "function"
    },
    {
      "inputs": [
        {
          "internalType": "address payable",
          "name": "newWallet",
          "type": "address"
        }
      ],
      "name": "setReceivingWallet",
      "outputs": [],
      "stateMutability": "nonpayable",
      "type": "function"
    },
    {
      "inputs": [
        {
          "internalType": "uint256",
          "name": "newMaxCommissionRate",
          "type": "uint256"
        }
      ],
      "name": "updateMaxCommissionRate",
      "outputs": [],
      "stateMutability": "nonpayable",
      "type": "function"
    },
    {
      "inputs": [
        {
          "internalType": "address",
          "name": "newSigningWallet",
          "type": "address"
        }
      ],
      "name": "updateSigningWallet",
      "outputs": [],
      "stateMutability": "nonpayable",
      "type": "function"
    },
    {
      "inputs": [
        {
          "internalType": "address",
          "name": "to",
          "type": "address"
        },
        {
          "internalType": "uint256[]",
          "name": "assetIds",
          "type": "uint256[]"
        },
        {
          "internalType": "uint256[]",
          "name": "values",
          "type": "uint256[]"
        }
      ],
      "name": "withdrawAssets",
      "outputs": [],
      "stateMutability": "nonpayable",
      "type": "function"
    }
  ],
  "transactionHash": "0x44cbfbcf6ef7b665eee27ea7def92ac5a4378b92700a6c751c1e191cbcb1c682",
  "args": [
    "0xaF40A483bF77AAb7b7D13dB18187E6D62C1EA41b",
    "0xCc933a862fc15379E441F2A16Cb943D385a4695f",
    "0xCc933a862fc15379E441F2A16Cb943D385a4695f",
    "0xa4519D601F43D0b8f167842a367465681F652252",
    "0x60927eB036621b801491B6c5e9A60A8d2dEeD75A",
    "0x84667e9f2d910bd5514408fa65e0ca794dd26491f55cfe45ea3bfb3269b644a4",
    1658494800,
    "0xB7060D3FeCAC3AE1F0A0AA416E3e8E472257950e",
    2000,
    "0x0000000000000000000000000000000000000000",
    "0x8055a2c0f7EB177BeaB357B70E6504402d2b5fF6",
    "0x5983532A5b9009E05428595b87F19e42068a232B"
  ],
  "linkedData": [
    {
      "x": 192,
      "y": 358,
      "size": 1,
      "price": "1011000000000000000000",
      "reserved": "",
      "salt": "0x3fe480290e877a8f7fa109120569fdbb57a95ec21f868a39e99c149183937966",
      "assetIds": []
    },
    {
      "x": 192,
      "y": 359,
      "size": 1,
      "price": "1011000000000000000000",
      "reserved": "",
      "salt": "0x9e6aad45a8e2dea235c6b856242eaf04c538bd64474824e4a10419247bc0b44c",
      "assetIds": []
    },
    {
      "x": 193,
      "y": 358,
      "size": 1,
      "price": "1011000000000000000000",
      "reserved": "",
      "salt": "0x23863b671b08b6a2a4e26027f2e3facb365cd487e8f8498803eb4827d9fb8649",
      "assetIds": []
    },
    {
      "x": 193,
      "y": 359,
      "size": 1,
      "price": "1011000000000000000000",
      "reserved": "",
      "salt": "0x87fa887f76394c82d21df4e116c2a98ffe1ecc862a5f73276795ea57e3b8d3fd",
      "assetIds": []
    },
    {
      "x": 194,
      "y": 351,
      "size": 1,
      "price": "1011000000000000000000",
      "reserved": "0x7a9fe22691c811ea339d9b73150e6911a5343dca",
      "salt": "0x0bcb8b4cb9e07981a96ce5a70b4e4029561c404fd35ced96a8cb026124490de6",
      "assetIds": []
    },
    {
      "x": 194,
      "y": 352,
      "size": 1,
      "price": "1011000000000000000000",
      "reserved": "0x7a9fe22691c811ea339d9b73150e6911a5343dca",
      "salt": "0x8b07a57bc7008cf0241a299380ec4f37f417d5d3bcbd2689c976f51f68a8e3ac",
      "assetIds": []
    },
    {
      "x": 194,
      "y": 353,
      "size": 1,
      "price": "1011000000000000000000",
      "reserved": "",
      "salt": "0x0d4dce23c010101b5c6a498eada7903c2538230358a06859094661eea25e6e11",
      "assetIds": []
    },
    {
      "x": 194,
      "y": 354,
      "size": 1,
      "price": "1011000000000000000000",
      "reserved": "",
      "salt": "0x8b4dcb3732add5b6357db3d653711d7a84695fb055c9ba3ce01d8222b43e6b92",
      "assetIds": []
    },
    {
      "x": 194,
      "y": 355,
      "size": 1,
      "price": "1011000000000000000000",
      "reserved": "",
      "salt": "0x6c2bb770246ef79ccceb581119eb2f7833a3a6ba59f488d8e374ab7db485f630",
      "assetIds": []
    },
    {
      "x": 194,
      "y": 358,
      "size": 1,
      "price": "1011000000000000000000",
      "reserved": "",
      "salt": "0xd8f6972c77457f11cac0f6b5ce3c05eeea5e440d83e61fa72943bccbafbdf45f",
      "assetIds": []
    },
    {
      "x": 194,
      "y": 359,
      "size": 1,
      "price": "1011000000000000000000",
      "reserved": "0x7a9fe22691c811ea339d9b73150e6911a5343dca",
      "salt": "0x8bc986d8f44b84acb9bef475bc58ec711a674da8e0222d822328857072fb9c09",
      "assetIds": []
    },
    {
      "x": 195,
      "y": 351,
      "size": 1,
      "price": "1011000000000000000000",
      "reserved": "",
      "salt": "0x3a005a41f9ebcc97437d6f26fe006e618ac44b967e9f88ab8d3c75a7884de5d0",
      "assetIds": []
    },
    {
      "x": 195,
      "y": 352,
      "size": 1,
      "price": "1011000000000000000000",
      "reserved": "",
      "salt": "0xaa960844aafd9b2f2fb7e8a7bda7a1319d4af6e93362a855ed0e9da28ba3067a",
      "assetIds": []
    },
    {
      "x": 195,
      "y": 353,
      "size": 1,
      "price": "1011000000000000000000",
      "reserved": "",
      "salt": "0xf781402d02fbc23763c1e8c5d140c959fe9ce79c1b9121be842e48c12d54e7e5",
      "assetIds": []
    },
    {
      "x": 195,
      "y": 354,
      "size": 1,
      "price": "1011000000000000000000",
      "reserved": "",
      "salt": "0xae65f9d03dd18f3a7c83a5dca4488c9894108e96d60c9b20d11d6531dbeabd11",
      "assetIds": []
    },
    {
      "x": 195,
      "y": 355,
      "size": 1,
      "price": "1011000000000000000000",
      "reserved": "",
      "salt": "0x2f76ddeb6dc153c8570711f018f8e4a8a29a23b69d36bca45d6758f22f944653",
      "assetIds": []
    },
    {
      "x": 195,
      "y": 356,
      "size": 1,
      "price": "1011000000000000000000",
      "reserved": "",
      "salt": "0x10bfbf377a1a69938ef3f610f51ec5bfd9aaf0fe86ba37486c65a3f788acb64e",
      "assetIds": []
    },
    {
      "x": 195,
      "y": 357,
      "size": 1,
      "price": "1011000000000000000000",
      "reserved": "",
      "salt": "0x5009737bbe33f8e3443bdcadb2ee82c133b3887d1d72ba8d6a09a3dbc90a0c08",
      "assetIds": []
    },
    {
      "x": 195,
      "y": 358,
      "size": 1,
      "price": "1011000000000000000000",
      "reserved": "0x7a9fe22691c811ea339d9b73150e6911a5343dca",
      "salt": "0x91b3411a4b6a63ae16578d6f77a965c438f41de93bd26e9f081854cfa414ad96",
      "assetIds": []
    },
    {
      "x": 195,
      "y": 359,
      "size": 1,
      "price": "1011000000000000000000",
      "reserved": "",
      "salt": "0x9f45a85f854525a403ad567cdfc0535a2393c9c6d17634afb14935c093f9a91d",
      "assetIds": []
    },
    {
      "x": 196,
      "y": 351,
      "size": 1,
      "price": "1011000000000000000000",
      "reserved": "",
      "salt": "0xe17c3015f1e5a0e85f554f46413ea842caa5a7c66f8d767abbb09049d63932a1",
      "assetIds": []
    },
    {
      "x": 196,
      "y": 352,
      "size": 1,
      "price": "1011000000000000000000",
      "reserved": "0x7a9fe22691c811ea339d9b73150e6911a5343dca",
      "salt": "0xf75809240c486a4037dbbedfc85c4848f5269a2cf71791158445485367cabdce",
      "assetIds": []
    },
    {
      "x": 196,
      "y": 353,
      "size": 1,
      "price": "1011000000000000000000",
      "reserved": "",
      "salt": "0xfe813a5996d81feb743748dcaef85df5e95e53ded4f5bb39479835718ce7f46f",
      "assetIds": []
    },
    {
      "x": 196,
      "y": 354,
      "size": 1,
      "price": "1011000000000000000000",
      "reserved": "",
      "salt": "0x5294131a405af6d20951be98293ba7d88cc3e27e928dc5386885034931493346",
      "assetIds": []
    },
    {
      "x": 196,
      "y": 355,
      "size": 1,
      "price": "1011000000000000000000",
      "reserved": "",
      "salt": "0xb5614fb1b46039dcc7e3c42cad20749cc2a157b5070288c7353746ee1c78c0d1",
      "assetIds": []
    },
    {
      "x": 196,
      "y": 356,
      "size": 1,
      "price": "1011000000000000000000",
      "reserved": "",
      "salt": "0xf6229c0f4bda1f83d558cbd355f962788ad0bc22a26a77dc24fb7dd6f63da026",
      "assetIds": []
    },
    {
      "x": 196,
      "y": 357,
      "size": 1,
      "price": "1011000000000000000000",
      "reserved": "",
      "salt": "0x126a8dfcd0c00b51b07edbef9c0f718f39fbfe07b06aa6b924cdb255a7d73233",
      "assetIds": []
    },
    {
      "x": 196,
      "y": 358,
      "size": 1,
      "price": "1011000000000000000000",
      "reserved": "0x7a9fe22691c811ea339d9b73150e6911a5343dca",
      "salt": "0x3f1205b10c0ad5000242869621dc89508247db31b0002b9c0171395c8e4446ae",
      "assetIds": []
    },
    {
      "x": 196,
      "y": 359,
      "size": 1,
      "price": "1011000000000000000000",
      "reserved": "",
      "salt": "0x6969538a34bf3d612899ace4f774a04a80748edfb0caf294e16aff3c9086ebc6",
      "assetIds": []
    },
    {
      "x": 197,
      "y": 351,
      "size": 1,
      "price": "1011000000000000000000",
      "reserved": "",
      "salt": "0x92e09369367ad17e56794e89bf84b03f98805b2efa317151e89612d3a619cc8c",
      "assetIds": []
    },
    {
      "x": 197,
      "y": 352,
      "size": 1,
      "price": "1011000000000000000000",
      "reserved": "",
      "salt": "0x8857d5845b258486aca644035df78811e1512b4bedf15629aa94581af04e0cda",
      "assetIds": []
    },
    {
      "x": 197,
      "y": 353,
      "size": 1,
      "price": "1011000000000000000000",
      "reserved": "",
      "salt": "0x3fba379bbeffae1a29f5d23cd69b56b03b2aef91f5af83ba0131a3739af0d0df",
      "assetIds": []
    },
    {
      "x": 197,
      "y": 354,
      "size": 1,
      "price": "1011000000000000000000",
      "reserved": "",
      "salt": "0x99fca520f96c9c7a43bbf3cc34050e6fd973cf098ef5d74c4ce843cd00526192",
      "assetIds": []
    },
    {
      "x": 197,
      "y": 355,
      "size": 1,
      "price": "1011000000000000000000",
      "reserved": "0x7a9fe22691c811ea339d9b73150e6911a5343dca",
      "salt": "0xa2c263e2515e03877428c6ebc487997dff53e499db49264c078203968e3c0999",
      "assetIds": []
    },
    {
      "x": 197,
      "y": 356,
      "size": 1,
      "price": "1011000000000000000000",
      "reserved": "",
      "salt": "0xf24bc78e6e02997880716faf5f1cc4ccd26fc1744e759cfba73c10447b27bc9f",
      "assetIds": []
    },
    {
      "x": 197,
      "y": 357,
      "size": 1,
      "price": "1011000000000000000000",
      "reserved": "",
      "salt": "0xe2fbc7f58d716a1dbf6d99cd2a7947c7236864e1bd6158e76fb1201de86313b8",
      "assetIds": []
    },
    {
      "x": 197,
      "y": 358,
      "size": 1,
      "price": "1011000000000000000000",
      "reserved": "",
      "salt": "0x3f2f1ac21f9e0d105f5c3219d60ce889153b4cf90412a31de2b3b3da7825fe13",
      "assetIds": []
    },
    {
      "x": 197,
      "y": 359,
      "size": 1,
      "price": "1011000000000000000000",
      "reserved": "",
      "salt": "0x20cc9fd971c6ee94abb7576db3dcec379b7773bced8f3e592ebcc30bdb6faaad",
      "assetIds": []
    },
    {
      "x": 198,
      "y": 351,
      "size": 1,
      "price": "4683000000000000000000",
      "reserved": "",
      "salt": "0xebe8d28cd28b8b9da49b1f5d6140041678af5f70d6d91a3068f2f7924a62f49e",
      "assetIds": [
        "41506478881403507969696680653240014914910929820314476107906210059990541021186"
      ]
    },
    {
      "x": 198,
      "y": 352,
      "size": 1,
      "price": "1011000000000000000000",
      "reserved": "",
      "salt": "0xa57638cad7b94af2ff98128dc3636953ac451c8f4419f82052b86cf5dc067723",
      "assetIds": []
    },
    {
      "x": 198,
      "y": 353,
      "size": 1,
      "price": "1011000000000000000000",
      "reserved": "",
      "salt": "0x85b0680331102cdf9c91c1d4f932c0d8453e4e06cf1ddc52d2697e03b9540933",
      "assetIds": []
    },
    {
      "x": 198,
      "y": 354,
      "size": 1,
      "price": "1011000000000000000000",
      "reserved": "",
      "salt": "0xe959a370936cb593eb543a1505ea69d531428124ce2a46268f5f61bfd3be2e08",
      "assetIds": []
    },
    {
      "x": 198,
      "y": 355,
      "size": 1,
      "price": "1011000000000000000000",
      "reserved": "",
      "salt": "0x2750b014ec8b18b90714e3caca638b03baee267dcd57cc888dcf2d4dab75fe76",
      "assetIds": []
    },
    {
      "x": 198,
      "y": 356,
      "size": 1,
      "price": "1011000000000000000000",
      "reserved": "",
      "salt": "0x7c912e78952db6de60916ed8599d37a45539d6fb60ff2e29c216b285863b7ae6",
      "assetIds": []
    },
    {
      "x": 198,
      "y": 357,
      "size": 1,
      "price": "1011000000000000000000",
      "reserved": "",
      "salt": "0xdecea41b6070f7231b5e0c1eee0fbe61ee7a895fe70789d66f91dc4e05da40de",
      "assetIds": []
    },
    {
      "x": 198,
      "y": 358,
      "size": 1,
      "price": "1011000000000000000000",
      "reserved": "",
      "salt": "0x65760eafd5fa63c404d5deea0006e57a4ff40e856c9f99eee0973c24baee1cdf",
      "assetIds": []
    },
    {
      "x": 198,
      "y": 359,
      "size": 1,
      "price": "1011000000000000000000",
      "reserved": "",
      "salt": "0x7a277f3d475b827cb17a414bd1109fd18e3ecdfb4a16e3d5d03d46003931a9b2",
      "assetIds": []
    },
    {
      "x": 199,
      "y": 351,
      "size": 1,
      "price": "4683000000000000000000",
      "reserved": "",
      "salt": "0x3009d289b6bde2117226b1e2f4f9847befdaaf641612eeaa687ede035c66d9b2",
      "assetIds": [
        "41506478881403507969696680653240014914910929820314476107906210059990541021186"
      ]
    },
    {
      "x": 199,
      "y": 352,
      "size": 1,
      "price": "1011000000000000000000",
      "reserved": "0x7a9fe22691c811ea339d9b73150e6911a5343dca",
      "salt": "0xda5faf1d817c552ccbe1d7eabbe8438467e58153e8884757e6efbafc9c1833c7",
      "assetIds": []
    },
    {
      "x": 199,
      "y": 353,
      "size": 1,
      "price": "4683000000000000000000",
      "reserved": "",
      "salt": "0x45ceecacfefe62a9dbc70520eecf75965e6ef21719c8f9b659403bda5f29920e",
      "assetIds": [
        "41506478881403507969696680653240014914910929820314476107906210059990541021186"
      ]
    },
    {
      "x": 199,
      "y": 354,
      "size": 1,
      "price": "4683000000000000000000",
      "reserved": "",
      "salt": "0xc253aec8c117c9d918d4c3a8cb6e74817b7a8f5a35fbc636987abde47b66678f",
      "assetIds": [
        "41506478881403507969696680653240014914910929820314476107906210059990541021186"
      ]
    },
    {
      "x": 199,
      "y": 355,
      "size": 1,
      "price": "1011000000000000000000",
      "reserved": "0x7a9fe22691c811ea339d9b73150e6911a5343dca",
      "salt": "0x70f342f30f4ff4f9919c10a4c31688306eb239d42810b7fb765bc029353bfa33",
      "assetIds": []
    },
    {
      "x": 199,
      "y": 356,
      "size": 1,
      "price": "1011000000000000000000",
      "reserved": "",
      "salt": "0xfcaaf2a46a85459c80fc98a6d594a7d18f14d86f7ac661fcdb56d8eaca695c67",
      "assetIds": []
    },
    {
      "x": 199,
      "y": 357,
      "size": 1,
      "price": "1011000000000000000000",
      "reserved": "",
      "salt": "0x55b36adf1603d2981c10a714191fa71d8d193a8de2efd64e314f6234227b12a2",
      "assetIds": []
    },
    {
      "x": 199,
      "y": 358,
      "size": 1,
      "price": "1011000000000000000000",
      "reserved": "",
      "salt": "0x64e50b865f7737396fe3d062b2e23fd633805f6f615edbf62c175f1fbbbe350c",
      "assetIds": []
    },
    {
      "x": 199,
      "y": 359,
      "size": 1,
      "price": "1011000000000000000000",
      "reserved": "",
      "salt": "0x2204993f240c5612513f736ceec90dcf736a037aa44aed97b2b58d60a118a0ff",
      "assetIds": []
    },
    {
      "x": 200,
      "y": 351,
      "size": 1,
      "price": "4683000000000000000000",
      "reserved": "",
      "salt": "0x5b783410d606f83976c3e701351ed03bf0cddbad05a6838fb574d1387703c7fe",
      "assetIds": [
        "41506478881403507969696680653240014914910929820314476107906210059990541021186"
      ]
    },
    {
      "x": 200,
      "y": 352,
      "size": 1,
      "price": "4683000000000000000000",
      "reserved": "",
      "salt": "0x074e57fba55bd6293b2aeb4854a6f7b6ccc574e5d33647d692abd103ecc90b7e",
      "assetIds": [
        "41506478881403507969696680653240014914910929820314476107906210059990541021186"
      ]
    },
    {
      "x": 200,
      "y": 353,
      "size": 1,
      "price": "4683000000000000000000",
      "reserved": "",
      "salt": "0x47300893cb5833c231070861bab94840f2e6faae03fc59efd324dc6e9fe3338c",
      "assetIds": [
        "41506478881403507969696680653240014914910929820314476107906210059990541021186"
      ]
    },
    {
      "x": 200,
      "y": 354,
      "size": 1,
      "price": "4683000000000000000000",
      "reserved": "",
      "salt": "0xe165127f12416ddda6fef4ef897bbae45724328246ba8c435e1ea1f1e4e699ff",
      "assetIds": [
        "41506478881403507969696680653240014914910929820314476107906210059990541021186"
      ]
    },
    {
      "x": 200,
      "y": 355,
      "size": 1,
      "price": "4683000000000000000000",
      "reserved": "",
      "salt": "0x1bf505caf16a6e30fdd4d9b53f997cda4cf60556cdde3ecdba6d3b28f7005562",
      "assetIds": [
        "41506478881403507969696680653240014914910929820314476107906210059990541021186"
      ]
    },
    {
      "x": 200,
      "y": 356,
      "size": 1,
      "price": "1011000000000000000000",
      "reserved": "",
      "salt": "0x8af0aead94f7bbdf9a032a9d0011d1f6bb37b18c1a198cdca9de8f3e898c39ca",
      "assetIds": []
    },
    {
      "x": 200,
      "y": 357,
      "size": 1,
      "price": "1011000000000000000000",
      "reserved": "",
      "salt": "0x49e8bb29f9c2b0702a2fd094df6927e144398fccd0dedb92d07810f7bf9e2a63",
      "assetIds": []
    },
    {
      "x": 200,
      "y": 358,
      "size": 1,
      "price": "1011000000000000000000",
      "reserved": "",
      "salt": "0x89b8e101ce15930e08a4316b57801737fc2f5ad58308b12378b5eab5a1dff8ca",
      "assetIds": []
    },
    {
      "x": 200,
      "y": 359,
      "size": 1,
      "price": "1011000000000000000000",
      "reserved": "",
      "salt": "0x5a521af6553e8bf76c3dee3b910a154897d78445af731a5556522f482bebd19a",
      "assetIds": []
    },
    {
      "x": 201,
      "y": 354,
      "size": 1,
      "price": "4683000000000000000000",
      "reserved": "",
      "salt": "0x2e6b02dcbce0500784450dbf5d03bcfb48b38bd22ec02e52867935de1e425f67",
      "assetIds": [
        "41506478881403507969696680653240014914910929820314476107906210059990541021186"
      ]
    },
    {
      "x": 201,
      "y": 355,
      "size": 1,
      "price": "4683000000000000000000",
      "reserved": "",
      "salt": "0x3e38a0a643db586129d2c2b93da8021506e0fc5881d74914bd9129b6af0aa2a2",
      "assetIds": [
        "41506478881403507969696680653240014914910929820314476107906210059990541021186"
      ]
    },
    {
      "x": 201,
      "y": 356,
      "size": 1,
      "price": "1011000000000000000000",
      "reserved": "",
      "salt": "0xf19056f9110f8ba3322c5be04fd7ff8ba116c3fd7ffaefcb3ed00c77330edccb",
      "assetIds": []
    },
    {
      "x": 201,
      "y": 357,
      "size": 1,
      "price": "1011000000000000000000",
      "reserved": "",
      "salt": "0x56d1467b940e221bb180b6208ff48355cd7a2a9bcc7ecb1f844abc3bf0b79951",
      "assetIds": []
    },
    {
      "x": 201,
      "y": 358,
      "size": 1,
      "price": "1011000000000000000000",
      "reserved": "",
      "salt": "0x2a21ebcfe778633d0600e5ba58c5785cf56af99c4cef34cc75b0b6e0e8183b50",
      "assetIds": []
    },
    {
      "x": 201,
      "y": 359,
      "size": 1,
      "price": "1011000000000000000000",
      "reserved": "",
      "salt": "0x06329fb7bf6690a0f72f4bf592cb1b05b2badd4e577f40e04b92c1159a34d493",
      "assetIds": []
    },
    {
      "x": 202,
      "y": 354,
      "size": 1,
      "price": "4683000000000000000000",
      "reserved": "",
      "salt": "0xdcc2c883c4ce7778abcdad1d006d92b0a17a409609653c7d659a5fb0dd0cd844",
      "assetIds": [
        "41506478881403507969696680653240014914910929820314476107906210059990541021186"
      ]
    },
    {
      "x": 202,
      "y": 355,
      "size": 1,
      "price": "4683000000000000000000",
      "reserved": "",
      "salt": "0xe5c6ce1846003950b768a2eed17e2afbb4e2467c9536d2d343da007e37b5d15f",
      "assetIds": [
        "41506478881403507969696680653240014914910929820314476107906210059990541021186"
      ]
    },
    {
      "x": 202,
      "y": 356,
      "size": 1,
      "price": "1011000000000000000000",
      "reserved": "",
      "salt": "0xecb77dcf8ad5d132f2a3f45704a2670194742df3955cc9774e4a18214d7f2d27",
      "assetIds": []
    },
    {
      "x": 202,
      "y": 357,
      "size": 1,
      "price": "1011000000000000000000",
      "reserved": "",
      "salt": "0xe6d09eafbc476a1b308ed2a077838ff88c02733b2fe75da0c61895bc2ff298db",
      "assetIds": []
    },
    {
      "x": 202,
      "y": 358,
      "size": 1,
      "price": "1011000000000000000000",
      "reserved": "",
      "salt": "0xafdc9e002a5f9912e65eac833ab23bf25bf645e13a1c077ba7e67540ed926a28",
      "assetIds": []
    },
    {
      "x": 202,
      "y": 359,
      "size": 1,
      "price": "1011000000000000000000",
      "reserved": "",
      "salt": "0x74418b6bf022d36be2385db2d46da2ebb182c1553d20b29372e73b810e146082",
      "assetIds": []
    },
    {
      "x": 203,
      "y": 354,
      "size": 1,
      "price": "4683000000000000000000",
      "reserved": "",
      "salt": "0x2d339434e28c3240ff5070399bd20c0c2134f722aa788451531b72b2df3dd139",
      "assetIds": [
        "41506478881403507969696680653240014914910929820314476107906210059990541021186"
      ]
    },
    {
      "x": 203,
      "y": 355,
      "size": 1,
      "price": "4683000000000000000000",
      "reserved": "",
      "salt": "0x14aa58c4ec6481846b28da196dec30b1b1c242a4020d1a1d080bf95650d58980",
      "assetIds": [
        "41506478881403507969696680653240014914910929820314476107906210059990541021186"
      ]
    },
    {
      "x": 203,
      "y": 356,
      "size": 1,
      "price": "1011000000000000000000",
      "reserved": "",
      "salt": "0x465e5c78e5fb50447d402ca93d45287e2a1144a66d281bfdbc2aaedba5088dc6",
      "assetIds": []
    },
    {
      "x": 203,
      "y": 357,
      "size": 1,
      "price": "1011000000000000000000",
      "reserved": "",
      "salt": "0xfa5172e1cdbec74d2295d812ed7eb41efd683005f0556b78540970ae233e0b1d",
      "assetIds": []
    },
    {
      "x": 203,
      "y": 358,
      "size": 1,
      "price": "1011000000000000000000",
      "reserved": "0x7a9fe22691c811ea339d9b73150e6911a5343dca",
      "salt": "0xb43e3497e15e955764b3a5bc2b0f17cb2f268c9624f0dcb1d995105ff1ea6e5e",
      "assetIds": []
    },
    {
      "x": 203,
      "y": 359,
      "size": 1,
      "price": "1011000000000000000000",
      "reserved": "",
      "salt": "0xe1c4ce438799486ebfa5839fac124fe3ed4ac5902c8d51f147641e13703592c2",
      "assetIds": []
    },
    {
      "x": 204,
      "y": 351,
      "size": 1,
      "price": "4683000000000000000000",
      "reserved": "",
      "salt": "0xbfa8191040a4762a498177cf6f0bcc40bfc04f27888c02c028a29840a1c19e1c",
      "assetIds": [
        "41506478881403507969696680653240014914910929820314476107906210059990541021186"
      ]
    },
    {
      "x": 204,
      "y": 352,
      "size": 1,
      "price": "4683000000000000000000",
      "reserved": "",
      "salt": "0x779b16f338d90b91e66104d41a040cf1e08acfaf2817b7d836d269b4a8d240d1",
      "assetIds": [
        "41506478881403507969696680653240014914910929820314476107906210059990541021186"
      ]
    },
    {
      "x": 204,
      "y": 353,
      "size": 1,
      "price": "4683000000000000000000",
      "reserved": "",
      "salt": "0x37df8f9b03e34a713c6b306b2a83dcfe64f44ddf6de3733a65a1989123babb9f",
      "assetIds": [
        "41506478881403507969696680653240014914910929820314476107906210059990541021186"
      ]
    },
    {
      "x": 204,
      "y": 354,
      "size": 1,
      "price": "1011000000000000000000",
      "reserved": "",
      "salt": "0xf724014ac8390958724ab49dd0876568952818524110e4de63e98e866d317427",
      "assetIds": []
    },
    {
      "x": 204,
      "y": 355,
      "size": 1,
      "price": "1011000000000000000000",
      "reserved": "",
      "salt": "0xcba5a711042104dc473b01c022daec90ba5c6f7870a68f33eaef3e2ccd00bbbb",
      "assetIds": []
    },
    {
      "x": 204,
      "y": 356,
      "size": 1,
      "price": "1011000000000000000000",
      "reserved": "",
      "salt": "0x035c94c27c0d7b6328a31bd6b40e50bfbb643197f5b7b44f3192f422cb907987",
      "assetIds": []
    },
    {
      "x": 204,
      "y": 357,
      "size": 1,
      "price": "1011000000000000000000",
      "reserved": "",
      "salt": "0x03c2515234ea1629af9ee34da4b6e79e34821c36e70051819066e1c0cef74566",
      "assetIds": []
    },
    {
      "x": 204,
      "y": 358,
      "size": 1,
      "price": "1011000000000000000000",
      "reserved": "0x7a9fe22691c811ea339d9b73150e6911a5343dca",
      "salt": "0x6223dd53475bd98cc74c309c3a836b1abd97ba9edf7587cff72add546eef5a8b",
      "assetIds": []
    },
    {
      "x": 204,
      "y": 359,
      "size": 1,
      "price": "1011000000000000000000",
      "reserved": "",
      "salt": "0xea77b0e85cc3291024d8e0972cc188d685b2928674033dd524c499289a6cb049",
      "assetIds": []
    },
    {
      "x": 205,
      "y": 351,
      "size": 1,
      "price": "4683000000000000000000",
      "reserved": "",
      "salt": "0xb94eac1670093405d76a178610a2819fbb4226d725807f0c96e7b34249fe1e1c",
      "assetIds": [
        "41506478881403507969696680653240014914910929820314476107906210059990541021186"
      ]
    },
    {
      "x": 205,
      "y": 352,
      "size": 1,
      "price": "4683000000000000000000",
      "reserved": "",
      "salt": "0x3c91170313af09cff051aaf6c353ca7fa453819d99f2f9eeb27aff31bcb6da00",
      "assetIds": [
        "41506478881403507969696680653240014914910929820314476107906210059990541021186"
      ]
    },
    {
      "x": 205,
      "y": 353,
      "size": 1,
      "price": "1011000000000000000000",
      "reserved": "0x7a9fe22691c811ea339d9b73150e6911a5343dca",
      "salt": "0xd48b5911f0981cef010348cbeb24a8864eff706d8915b55bb23b5a7c29414b1b",
      "assetIds": []
    },
    {
      "x": 205,
      "y": 354,
      "size": 1,
      "price": "1011000000000000000000",
      "reserved": "",
      "salt": "0xbb8da2f612062ff1fb68c290f35a720d1b92b7c4b7298228cd7d8b60abf3e410",
      "assetIds": []
    },
    {
      "x": 205,
      "y": 355,
      "size": 1,
      "price": "1011000000000000000000",
      "reserved": "",
      "salt": "0xd9bba888866bdaf73dcdc6a0bdde73dfe8f17b109776f421490d0e4b53dc5f35",
      "assetIds": []
    },
    {
      "x": 205,
      "y": 356,
      "size": 1,
      "price": "1011000000000000000000",
      "reserved": "",
      "salt": "0x1b41043b55ffcef7c971f681fdf14496fafb7a71d4ea1cdcc0f316721b8bba83",
      "assetIds": []
    },
    {
      "x": 205,
      "y": 357,
      "size": 1,
      "price": "1011000000000000000000",
      "reserved": "",
      "salt": "0xc75dc7608d95dd1594ee22085b8f1c03d1e8c1b90839ccbb79a61a802363e1d8",
      "assetIds": []
    },
    {
      "x": 205,
      "y": 358,
      "size": 1,
      "price": "1011000000000000000000",
      "reserved": "",
      "salt": "0xcf4d379e2b9d78c2f99db746100ba55e38af32a13a676aade8ebda27531ac57d",
      "assetIds": []
    },
    {
      "x": 205,
      "y": 359,
      "size": 1,
      "price": "1011000000000000000000",
      "reserved": "",
      "salt": "0x73e54b6f47efec3b2e48f2df05e7e7bd16a9f7b9e35b20c20488337193e4b29f",
      "assetIds": []
    },
    {
      "x": 206,
      "y": 351,
      "size": 1,
      "price": "4683000000000000000000",
      "reserved": "",
      "salt": "0xd218c4a548573f2418b4c48145f716bef07080bbb8d360aebadcc24bbf068887",
      "assetIds": [
        "41506478881403507969696680653240014914910929820314476107906210059990541021186"
      ]
    },
    {
      "x": 206,
      "y": 352,
      "size": 1,
      "price": "4683000000000000000000",
      "reserved": "",
      "salt": "0xa08b58eb8731e7ca50640fa3d0296d213e64d5f58aae13b3ce498bd0cddfa56f",
      "assetIds": [
        "41506478881403507969696680653240014914910929820314476107906210059990541021186"
      ]
    },
    {
      "x": 206,
      "y": 353,
      "size": 1,
      "price": "1011000000000000000000",
      "reserved": "",
      "salt": "0x4579c43afea8951a86172cccde09d86d931a5f3698fe8074381b9e508d279292",
      "assetIds": []
    },
    {
      "x": 206,
      "y": 354,
      "size": 1,
      "price": "1011000000000000000000",
      "reserved": "",
      "salt": "0x2eba06b2cb31a1724474c9a57e07d1f6ec37409febb129032d512517a730a19a",
      "assetIds": []
    },
    {
      "x": 206,
      "y": 355,
      "size": 1,
      "price": "1011000000000000000000",
      "reserved": "",
      "salt": "0x983ecc23033b7044882cbe9f36adc78f702f495cb64d92eb9793db327eec530e",
      "assetIds": []
    },
    {
      "x": 206,
      "y": 356,
      "size": 1,
      "price": "1011000000000000000000",
      "reserved": "0x7a9fe22691c811ea339d9b73150e6911a5343dca",
      "salt": "0x7b4a4d4a7f6a6799a55794e1e1d60d3a63ad1e5fd6bcd4fcd65cf12dabbd80d1",
      "assetIds": []
    },
    {
      "x": 206,
      "y": 357,
      "size": 1,
      "price": "1011000000000000000000",
      "reserved": "",
      "salt": "0x44ecb3acf4ae29cceb3f56f79c5a85f4598aa5abc3ead72ed7f427a11900e534",
      "assetIds": []
    },
    {
      "x": 206,
      "y": 358,
      "size": 1,
      "price": "1011000000000000000000",
      "reserved": "",
      "salt": "0x1f98e020c4a6edd9f328c9c3e22c3c5feff7e23ade3ecd70ead4c5a1ae34269d",
      "assetIds": []
    },
    {
      "x": 206,
      "y": 359,
      "size": 1,
      "price": "1011000000000000000000",
      "reserved": "",
      "salt": "0xb8da872a7ae200a633dd581e27b1f62db70e26d558711c7ee7b2ffc44b8bc4b3",
      "assetIds": []
    },
    {
      "x": 207,
      "y": 351,
      "size": 1,
      "price": "4683000000000000000000",
      "reserved": "",
      "salt": "0xb881bfa1633581d90a4afdad62ad8976154ecaf041fed64205f3e9573b89fe90",
      "assetIds": [
        "41506478881403507969696680653240014914910929820314476107906210059990541021186"
      ]
    },
    {
      "x": 207,
      "y": 352,
      "size": 1,
      "price": "4683000000000000000000",
      "reserved": "",
      "salt": "0x41cbf61049c4e867ae2e025b425199eb8abc4e52131eb7375b95bf7e1096f966",
      "assetIds": [
        "41506478881403507969696680653240014914910929820314476107906210059990541021186"
      ]
    },
    {
      "x": 207,
      "y": 353,
      "size": 1,
      "price": "1011000000000000000000",
      "reserved": "0x7a9fe22691c811ea339d9b73150e6911a5343dca",
      "salt": "0xd5058c6bf51bd9b81e03c06c2b199acca4049d8161677280ee6b5c53e77adf4d",
      "assetIds": []
    },
    {
      "x": 207,
      "y": 354,
      "size": 1,
      "price": "1011000000000000000000",
      "reserved": "",
      "salt": "0x153ba6680ed1d725f3a2a7c9b39753df6c3ac36ae0564bad1eca3c87bd34ea33",
      "assetIds": []
    },
    {
      "x": 207,
      "y": 355,
      "size": 1,
      "price": "1011000000000000000000",
      "reserved": "",
      "salt": "0x545ecc50eac5a3a2661c81cf8b0f5d7dbcb0d17d29561a37b29044de474824d3",
      "assetIds": []
    },
    {
      "x": 207,
      "y": 356,
      "size": 1,
      "price": "1011000000000000000000",
      "reserved": "",
      "salt": "0x18b2d6b83cc0c26e13d023b35ddc52fee24eb153d281a92a103e7846e752ceac",
      "assetIds": []
    },
    {
      "x": 207,
      "y": 357,
      "size": 1,
      "price": "1011000000000000000000",
      "reserved": "",
      "salt": "0x456a7cbfe1a7b6a86c304999b12d69ce2a7585d6a952cb7e4ab08d45879f48e4",
      "assetIds": []
    },
    {
      "x": 207,
      "y": 358,
      "size": 1,
      "price": "1011000000000000000000",
      "reserved": "",
      "salt": "0x5e8c599c41368741e6eb50d15572ba4d0ed4c4116edd44a24cf0a0e3966b2678",
      "assetIds": []
    },
    {
      "x": 208,
      "y": 351,
      "size": 1,
      "price": "4683000000000000000000",
      "reserved": "",
      "salt": "0x27e47ac30ec5048ff25524f95b89c49a03b33d7fbbd0eec098ff59267c6481db",
      "assetIds": [
        "41506478881403507969696680653240014914910929820314476107906210059990541021186"
      ]
    },
    {
      "x": 208,
      "y": 352,
      "size": 1,
      "price": "4683000000000000000000",
      "reserved": "",
      "salt": "0x9bc55ccae117a85e344bef5c577cd8ab90cfe3717b542d55b9c0ef853c11287f",
      "assetIds": [
        "41506478881403507969696680653240014914910929820314476107906210059990541021186"
      ]
    },
    {
      "x": 208,
      "y": 353,
      "size": 1,
      "price": "1011000000000000000000",
      "reserved": "",
      "salt": "0x314f770a520f52b511f0bafe612cacc9b38be1b8581c20fa8f9bfe44a5a3a193",
      "assetIds": []
    },
    {
      "x": 208,
      "y": 354,
      "size": 1,
      "price": "1011000000000000000000",
      "reserved": "",
      "salt": "0x11833569c5ae95c6d86364868e6c5d9386edcf89be4ef5170e6c55a66405154e",
      "assetIds": []
    },
    {
      "x": 208,
      "y": 355,
      "size": 1,
      "price": "1011000000000000000000",
      "reserved": "",
      "salt": "0x02e671a3f146edb6379b74044cbdc278291a347ef6a6bc5316044504b7671d51",
      "assetIds": []
    },
    {
      "x": 208,
      "y": 356,
      "size": 1,
      "price": "1011000000000000000000",
      "reserved": "",
      "salt": "0x3a591b8582f56a7f281377c6f1e332b2674b9c9494521fc2e598264fc55ea72e",
      "assetIds": []
    },
    {
      "x": 208,
      "y": 357,
      "size": 1,
      "price": "1011000000000000000000",
      "reserved": "",
      "salt": "0x28aab576cf2ce2a10c42eae9bd3f9b8c5734131f7e196d8f4fcee2161f9c225c",
      "assetIds": []
    },
    {
      "x": 208,
      "y": 358,
      "size": 1,
      "price": "1011000000000000000000",
      "reserved": "0x7a9fe22691c811ea339d9b73150e6911a5343dca",
      "salt": "0x4d42f480de53897579cfaca9b1e4818f1422631814ebe4d6ebaf8f213639844c",
      "assetIds": []
    },
    {
      "x": 209,
      "y": 351,
      "size": 1,
      "price": "1011000000000000000000",
      "reserved": "",
      "salt": "0x01ca907ee4cc04835ecc6e2a2c822c2bb2690be19a3f56842ad49f86d9cb41e4",
      "assetIds": []
    },
    {
      "x": 209,
      "y": 352,
      "size": 1,
      "price": "1011000000000000000000",
      "reserved": "0x7a9fe22691c811ea339d9b73150e6911a5343dca",
      "salt": "0xe6a036cdfb2a5a6395b88bee60e963ff0b2afb5e633453b7b6b7a1f670e83a26",
      "assetIds": []
    },
    {
      "x": 209,
      "y": 353,
      "size": 1,
      "price": "1011000000000000000000",
      "reserved": "",
      "salt": "0xee8326f2104b4b39063551f4b21e16120245bbd1a0c7fa950fce2e0aa267cda3",
      "assetIds": []
    },
    {
      "x": 209,
      "y": 354,
      "size": 1,
      "price": "1011000000000000000000",
      "reserved": "",
      "salt": "0x81b81368c65737c96bb42302c1ea37dcb59e8ce493b1a883b9f1b6f511fa6123",
      "assetIds": []
    },
    {
      "x": 209,
      "y": 355,
      "size": 1,
      "price": "1011000000000000000000",
      "reserved": "",
      "salt": "0xc1de8aea414014b6d222804b78587d62a8740b120c4afa1937b45d106e40b4b1",
      "assetIds": []
    },
    {
      "x": 209,
      "y": 356,
      "size": 1,
      "price": "1011000000000000000000",
      "reserved": "",
      "salt": "0x368e88de505eaaefb725991299c8a174d17e3b706a18b353e0746bca73223ac8",
      "assetIds": []
    },
    {
      "x": 209,
      "y": 357,
      "size": 1,
      "price": "1011000000000000000000",
      "reserved": "",
      "salt": "0xb5d0c6ea44bf3c1d4affbc2f059270ed8b087abfc6fac7204723ad8d54dc81fc",
      "assetIds": []
    },
    {
      "x": 209,
      "y": 358,
      "size": 1,
      "price": "1011000000000000000000",
      "reserved": "",
      "salt": "0x95142e4148a45c18aba2ab74ff272bc416682b359a00d688355307430d0ee546",
      "assetIds": []
    },
    {
      "x": 210,
      "y": 351,
      "size": 1,
      "price": "1011000000000000000000",
      "reserved": "",
      "salt": "0x7b80907dd50749b8e3fe00e9ca188d288922335c635ac5bf1d0d20582d2132f8",
      "assetIds": []
    },
    {
      "x": 210,
      "y": 352,
      "size": 1,
      "price": "1011000000000000000000",
      "reserved": "",
      "salt": "0x521e09d9cea3a41ca085829768893317596ce883035e9278036a0959d7eca12e",
      "assetIds": []
    },
    {
      "x": 210,
      "y": 353,
      "size": 1,
      "price": "1011000000000000000000",
      "reserved": "",
      "salt": "0xbf8c53e520de01653332976ad8be61f95d534cb9006142a359d3c0c9acdd450b",
      "assetIds": []
    },
    {
      "x": 210,
      "y": 354,
      "size": 1,
      "price": "1011000000000000000000",
      "reserved": "",
      "salt": "0x93db54ab4f0d56e03e92ad88b06aec075a54bfc8c004b1ca32bfe267557038c0",
      "assetIds": []
    },
    {
      "x": 210,
      "y": 355,
      "size": 1,
      "price": "1011000000000000000000",
      "reserved": "",
      "salt": "0xa57108b8ace095dce9897df8a336d63f6da7daeb5e5bfcc63978ba42eb86202d",
      "assetIds": []
    },
    {
      "x": 210,
      "y": 356,
      "size": 1,
      "price": "1011000000000000000000",
      "reserved": "",
      "salt": "0x7bdaae5a8d447d6153d18e5aab270baeb270bd4e1bb3f1f598eab24f77851574",
      "assetIds": []
    },
    {
      "x": 210,
      "y": 357,
      "size": 1,
      "price": "1011000000000000000000",
      "reserved": "",
      "salt": "0xaa6a1082ff1b38df29707c4ff6670cb5688a692f7846206c6eeae6f094a339e7",
      "assetIds": []
    },
    {
      "x": 210,
      "y": 358,
      "size": 1,
      "price": "1011000000000000000000",
      "reserved": "",
      "salt": "0xcf043a15016258ea57550468e67c87e0cf479fda3a0cc0cfed773a03342fc3f3",
      "assetIds": []
    },
    {
      "x": 211,
      "y": 351,
      "size": 1,
      "price": "1011000000000000000000",
      "reserved": "",
      "salt": "0x3443b9b28b574e0530c80865f6216610b47c184824fc50c62be987c5f23d5bc3",
      "assetIds": []
    },
    {
      "x": 211,
      "y": 352,
      "size": 1,
      "price": "1011000000000000000000",
      "reserved": "",
      "salt": "0x6692c53dc9df5937cbcf8820f91da8118a40d38e6708b92df3a34eda9fcc4978",
      "assetIds": []
    },
    {
      "x": 211,
      "y": 353,
      "size": 1,
      "price": "1011000000000000000000",
      "reserved": "",
      "salt": "0x0f087aafa7d76f387dcd32a6b45f43c576349ff429ee1484ac1cf95a929f1527",
      "assetIds": []
    },
    {
      "x": 211,
      "y": 354,
      "size": 1,
      "price": "1011000000000000000000",
      "reserved": "",
      "salt": "0x91b3337484317a8e458de2d36d606770d4a503fd3af306af4299d41585336114",
      "assetIds": []
    },
    {
      "x": 211,
      "y": 355,
      "size": 1,
      "price": "1011000000000000000000",
      "reserved": "",
      "salt": "0xfa580f8d4bbad0deb03a238fb6b3fa6376e6e424060e1e33893d209fac699b81",
      "assetIds": []
    },
    {
      "x": 211,
      "y": 356,
      "size": 1,
      "price": "1011000000000000000000",
      "reserved": "",
      "salt": "0x2b9a17f3b0bf768eac56e41acee971f41460c0511cc09e3327785c1a1d0efb25",
      "assetIds": []
    },
    {
      "x": 211,
      "y": 357,
      "size": 1,
      "price": "1011000000000000000000",
      "reserved": "",
      "salt": "0x4423264296d0755ed3f6afb421e541a8688b26c7a7efda63838cdeda274f412b",
      "assetIds": []
    },
    {
      "x": 211,
      "y": 358,
      "size": 1,
      "price": "1011000000000000000000",
      "reserved": "0x7a9fe22691c811ea339d9b73150e6911a5343dca",
      "salt": "0x7a447380b6bc97a0c31527703e9f0f65e747317be2e8f22cc898bf9e41b8533e",
      "assetIds": []
    },
    {
      "x": 212,
      "y": 351,
      "size": 1,
      "price": "1011000000000000000000",
      "reserved": "",
      "salt": "0x9e3bd9be6b492d1da54d0efbaefb97826db5b5b70b08cab8284aef3bcf0822cf",
      "assetIds": []
    },
    {
      "x": 212,
      "y": 352,
      "size": 1,
      "price": "1011000000000000000000",
      "reserved": "",
      "salt": "0xf7e2b4082d9df127e4d19106521f80ebbf622a3876879d072e65d5c058171b1c",
      "assetIds": []
    },
    {
      "x": 212,
      "y": 353,
      "size": 1,
      "price": "1011000000000000000000",
      "reserved": "0x7a9fe22691c811ea339d9b73150e6911a5343dca",
      "salt": "0xf25303a8dcf1e34595874a0baea995932250298fa8f0c0a842ab9584de17680e",
      "assetIds": []
    },
    {
      "x": 212,
      "y": 354,
      "size": 1,
      "price": "1011000000000000000000",
      "reserved": "",
      "salt": "0x55df995168c0347f391b7293dd24c1bf188c58b40e2dda254776aac083269348",
      "assetIds": []
    },
    {
      "x": 212,
      "y": 355,
      "size": 1,
      "price": "1011000000000000000000",
      "reserved": "0x7a9fe22691c811ea339d9b73150e6911a5343dca",
      "salt": "0xf9798af1633ec0763f24f0515dcdcaf9c946067352e9dc0011de84f2fa7144eb",
      "assetIds": []
    },
    {
      "x": 212,
      "y": 356,
      "size": 1,
      "price": "1011000000000000000000",
      "reserved": "",
      "salt": "0xbd45692dd9a53ef10112f069546f8e638828879c02d74fe600253f02e3264c53",
      "assetIds": []
    },
    {
      "x": 212,
      "y": 357,
      "size": 1,
      "price": "1011000000000000000000",
      "reserved": "",
      "salt": "0x1e8ef496c9825a9bed57ae7db94c90ee1896dc71653343e972b021121c933ef4",
      "assetIds": []
    },
    {
      "x": 212,
      "y": 358,
      "size": 1,
      "price": "1011000000000000000000",
      "reserved": "",
      "salt": "0x76006186034fefb08e63f45066385af0e9d19e72841b49eed42b9b6f20e1ae4b",
      "assetIds": []
    },
    {
      "x": 213,
      "y": 351,
      "size": 1,
      "price": "1011000000000000000000",
      "reserved": "",
      "salt": "0xab4881fa63c5554aaf295de077a2125246b87990e7be18a5415d523f015edd8b",
      "assetIds": []
    },
    {
      "x": 213,
      "y": 352,
      "size": 1,
      "price": "1011000000000000000000",
      "reserved": "",
      "salt": "0x8f262dcf0a29c4a8e00adcb25fe3f117e0c4ae309fbbb07e5bd3c42f6606e8f4",
      "assetIds": []
    },
    {
      "x": 213,
      "y": 353,
      "size": 1,
      "price": "1011000000000000000000",
      "reserved": "",
      "salt": "0x3afacbb6935d2299a1bda59051517774849030ce991340b554b507dda6ec7d37",
      "assetIds": []
    },
    {
      "x": 213,
      "y": 354,
      "size": 1,
      "price": "1011000000000000000000",
      "reserved": "",
      "salt": "0x16719ad33241ba019c32e5e1c508265f17b35d8db0f528280364e657cfa017fa",
      "assetIds": []
    },
    {
      "x": 213,
      "y": 355,
      "size": 1,
      "price": "1011000000000000000000",
      "reserved": "0x7a9fe22691c811ea339d9b73150e6911a5343dca",
      "salt": "0x5810751a73d03ea30fce21683091281f16cc7ecf942f1dc225bcf81cd56fda65",
      "assetIds": []
    },
    {
      "x": 213,
      "y": 356,
      "size": 1,
      "price": "1011000000000000000000",
      "reserved": "",
      "salt": "0x8f009e52d113688f9353faf22d3e8e3d78a59a36a787833621da1417e536ba5c",
      "assetIds": []
    },
    {
      "x": 214,
      "y": 351,
      "size": 1,
      "price": "1011000000000000000000",
      "reserved": "",
      "salt": "0xdade358bda280e793b0bc90567579406ac5fdfc3f6c52c86dc8d55ca05bcb29a",
      "assetIds": []
    },
    {
      "x": 214,
      "y": 352,
      "size": 1,
      "price": "1011000000000000000000",
      "reserved": "",
      "salt": "0xda551912b5cacac26f47a3cbb6d7c20dd510a466ad2fc1db5bcf09fe85aeb598",
      "assetIds": []
    },
    {
      "x": 214,
      "y": 353,
      "size": 1,
      "price": "1011000000000000000000",
      "reserved": "",
      "salt": "0x7df8c64d73faca7401cdac5f2400b60f7fe09e052076aa190ffb13c0a4778284",
      "assetIds": []
    },
    {
      "x": 214,
      "y": 354,
      "size": 1,
      "price": "1011000000000000000000",
      "reserved": "",
      "salt": "0xc4746c31bf0fc9cea325e0edd6b3a38d0eb706380c2fe1851382b906c0b45f53",
      "assetIds": []
    },
    {
      "x": 214,
      "y": 355,
      "size": 1,
      "price": "1011000000000000000000",
      "reserved": "",
      "salt": "0x5ed4bff7cd790349584d537bf7deb0301a871f22459c40c5ca72b185c5c211e8",
      "assetIds": []
    },
    {
      "x": 214,
      "y": 356,
      "size": 1,
      "price": "1011000000000000000000",
      "reserved": "0x7a9fe22691c811ea339d9b73150e6911a5343dca",
      "salt": "0xa7318d97393e6bb7112fb13c7961491fa0ff5166dc9a5502bb5db176cc2a36b6",
      "assetIds": []
    },
    {
      "x": 215,
      "y": 351,
      "size": 1,
      "price": "1011000000000000000000",
      "reserved": "",
      "salt": "0x3126ff05216dc4c158631d2005349f8ecafb8337714aa2d024bc1c449418cb95",
      "assetIds": []
    },
    {
      "x": 215,
      "y": 352,
      "size": 1,
      "price": "1011000000000000000000",
      "reserved": "",
      "salt": "0x68de4804edbeaea2ddbaa646a4f373473edeb3a3de165ae7a2ff7f5b0c007415",
      "assetIds": []
    },
    {
      "x": 215,
      "y": 353,
      "size": 1,
      "price": "1011000000000000000000",
      "reserved": "",
      "salt": "0x40b04f9626c75fffe4b611b608419b8c81eff0e626b7636a44df0a28cb98752c",
      "assetIds": []
    },
    {
      "x": 215,
      "y": 354,
      "size": 1,
      "price": "1011000000000000000000",
      "reserved": "",
      "salt": "0xc840042e59574bf1cdde59f602170acf5b8eaa8a0d794e236d15fe2086dadc59",
      "assetIds": []
    },
    {
      "x": 215,
      "y": 355,
      "size": 1,
      "price": "1011000000000000000000",
      "reserved": "0x7a9fe22691c811ea339d9b73150e6911a5343dca",
      "salt": "0xc3e7d035ca6bcb7e88e179d44a88f70ec13022cb6bee9bd062a6aa380f7dea75",
      "assetIds": []
    },
    {
      "x": 215,
      "y": 356,
      "size": 1,
      "price": "1011000000000000000000",
      "reserved": "",
      "salt": "0x5cf20f4af6486955943dc02ef6721c099e4914be614bff45cb8f705f581d0df7",
      "assetIds": []
    },
    {
      "x": 216,
      "y": 351,
      "size": 1,
      "price": "1011000000000000000000",
      "reserved": "",
      "salt": "0xb47f549960dab6b06ab2e5473396838317eeac2ee724debb5859f8b9ded603fa",
      "assetIds": []
    },
    {
      "x": 216,
      "y": 352,
      "size": 1,
      "price": "1011000000000000000000",
      "reserved": "",
      "salt": "0xbc4219134ec53977fa8822d67bcf90412d9c2eb28002aa2660d62667828d5b16",
      "assetIds": []
    },
    {
      "x": 216,
      "y": 353,
      "size": 1,
      "price": "1011000000000000000000",
      "reserved": "",
      "salt": "0xbbf33baf0978072d3b5c711ef7c8e68006c4330c11438471a1024e1aee6f9573",
      "assetIds": []
    },
    {
      "x": 216,
      "y": 354,
      "size": 1,
      "price": "1011000000000000000000",
      "reserved": "",
      "salt": "0x208ca1d64ce4c76dd597d2b38d77a70c9427e7bd03bc417c0faa0aff22b7d97a",
      "assetIds": []
    },
    {
      "x": 216,
      "y": 355,
      "size": 1,
      "price": "1011000000000000000000",
      "reserved": "",
      "salt": "0xa3d7a06b22afd076abc22d98164968a39fb41411333686ccc3fac1b73a7d7b7c",
      "assetIds": []
    },
    {
      "x": 216,
      "y": 356,
      "size": 1,
      "price": "1011000000000000000000",
      "reserved": "",
      "salt": "0x129bf1a19b5f53a56bd15c63b2a7d14a977a815eaf759ed84bb8d78e30ba3e93",
      "assetIds": []
    },
    {
      "x": 217,
      "y": 350,
      "size": 1,
      "price": "1011000000000000000000",
      "reserved": "0x7a9fe22691c811ea339d9b73150e6911a5343dca",
      "salt": "0x5a6341905acf055cc67d47665cf819ec855a0ce2ecc4726a98e52892d67f869e",
      "assetIds": []
    },
    {
      "x": 217,
      "y": 351,
      "size": 1,
      "price": "1011000000000000000000",
      "reserved": "",
      "salt": "0xae0b263a1ee671c5ac4a17bc38d521ca43c826595b93f2c28d6c50f7bf0ef4a6",
      "assetIds": []
    },
    {
      "x": 217,
      "y": 352,
      "size": 1,
      "price": "1011000000000000000000",
      "reserved": "0x7a9fe22691c811ea339d9b73150e6911a5343dca",
      "salt": "0x95f46b29d654fba3f4e4189c63bb439ba35a3d5205484efbe8321343841b9d33",
      "assetIds": []
    },
    {
      "x": 217,
      "y": 353,
      "size": 1,
      "price": "1011000000000000000000",
      "reserved": "",
      "salt": "0x135d307b0d7f50e53d4c7bc509497139af3ae6089c2899f53489206cbc999f64",
      "assetIds": []
    },
    {
      "x": 217,
      "y": 354,
      "size": 1,
      "price": "1011000000000000000000",
      "reserved": "0x7a9fe22691c811ea339d9b73150e6911a5343dca",
      "salt": "0xb382d62b80f2d140c47234d5126684a4707b0105298217c20248d1c13ec709c3",
      "assetIds": []
    },
    {
      "x": 217,
      "y": 355,
      "size": 1,
      "price": "1011000000000000000000",
      "reserved": "",
      "salt": "0x65e677cf5b2640996e6750fdb066a61881ca29c07e30042c2bc25ed15691d6e7",
      "assetIds": []
    },
    {
      "x": 217,
      "y": 356,
      "size": 1,
      "price": "1011000000000000000000",
      "reserved": "",
      "salt": "0xee60f9d7177052ccec04af26ad9325b3addf92f88ee27e21fa9653084ff7c15a",
      "assetIds": []
    },
    {
      "x": 218,
      "y": 349,
      "size": 1,
      "price": "4683000000000000000000",
      "reserved": "",
      "salt": "0xd5f2f35706ba34e6cc75d45f204ad7534fa936ee53070f325b278e1ad32fa422",
      "assetIds": [
        "41506478881403507969696680653240014914910929820314476107906210059990541021186"
      ]
    },
    {
      "x": 218,
      "y": 350,
      "size": 1,
      "price": "4683000000000000000000",
      "reserved": "",
      "salt": "0x951ce7e803db633638ae1bb12cd2493bf0cf2d1114bf27751679149d3737ad2d",
      "assetIds": [
        "41506478881403507969696680653240014914910929820314476107906210059990541021186"
      ]
    },
    {
      "x": 218,
      "y": 351,
      "size": 1,
      "price": "4683000000000000000000",
      "reserved": "",
      "salt": "0x2d1665db728a18d57780a18fb75f373f178f4c7bddb27176976354c295600ea6",
      "assetIds": [
        "41506478881403507969696680653240014914910929820314476107906210059990541021186"
      ]
    },
    {
      "x": 218,
      "y": 352,
      "size": 1,
      "price": "1011000000000000000000",
      "reserved": "",
      "salt": "0x06b76dae1b3f96c4555f4d6fb3e52fa551079c5abb329488e35c2714a3902d8b",
      "assetIds": []
    },
    {
      "x": 218,
      "y": 353,
      "size": 1,
      "price": "1011000000000000000000",
      "reserved": "",
      "salt": "0x0f8bd4ee2a3fdc8f5ccd76f6fe2d6509b5daa97ba26bd1389632f378ef8e5ac9",
      "assetIds": []
    },
    {
      "x": 218,
      "y": 354,
      "size": 1,
      "price": "1011000000000000000000",
      "reserved": "0x7a9fe22691c811ea339d9b73150e6911a5343dca",
      "salt": "0xed43e12beba060b9a65187b306f19bb810b3066221af5c8482473d9d68993174",
      "assetIds": []
    },
    {
      "x": 218,
      "y": 355,
      "size": 1,
      "price": "1011000000000000000000",
      "reserved": "",
      "salt": "0xd69c594877d1dd1f6e59c4cd591eacffafef277a0ca8053f09ebfe27263a9ea4",
      "assetIds": []
    },
    {
      "x": 218,
      "y": 356,
      "size": 1,
      "price": "1011000000000000000000",
      "reserved": "",
      "salt": "0x486d29bba3b8159de6b13b2acfd597d7e8a0c4e1c2b5a547fb29cf6d32db4ed1",
      "assetIds": []
    },
    {
      "x": 219,
      "y": 336,
      "size": 1,
      "price": "1011000000000000000000",
      "reserved": "",
      "salt": "0x16be2d1454a0b639bdfeb6b83eb93533dd077afbb75f47fbca781eb77c18682a",
      "assetIds": []
    },
    {
      "x": 219,
      "y": 337,
      "size": 1,
      "price": "1011000000000000000000",
      "reserved": "",
      "salt": "0xeea9a180fa60be381999f551e77dc62fc1c68518aee92328b2cec601bd7ba433",
      "assetIds": []
    },
    {
      "x": 219,
      "y": 338,
      "size": 1,
      "price": "4683000000000000000000",
      "reserved": "",
      "salt": "0x7115577fc7965be41fbc776b450a391cea952b5c53c7ea4cfb154153593221c6",
      "assetIds": [
        "41506478881403507969696680653240014914910929820314476107906210059990541021186"
      ]
    },
    {
      "x": 219,
      "y": 342,
      "size": 1,
      "price": "4683000000000000000000",
      "reserved": "",
      "salt": "0xba8b85a965d74564e38e088392e8614ff5f06d1fcd8e5820edd316cd63788191",
      "assetIds": [
        "41506478881403507969696680653240014914910929820314476107906210059990541021186"
      ]
    },
    {
      "x": 219,
      "y": 343,
      "size": 1,
      "price": "1011000000000000000000",
      "reserved": "0x7a9fe22691c811ea339d9b73150e6911a5343dca",
      "salt": "0x01b931ca06818d0b50868c98e96567ba42c400ec350632466262d6ff349840ac",
      "assetIds": []
    },
    {
      "x": 219,
      "y": 344,
      "size": 1,
      "price": "4683000000000000000000",
      "reserved": "",
      "salt": "0xd1fee93409c109834b98621b792d00ebf453ebcc2fc9744af3e093101df51547",
      "assetIds": [
        "41506478881403507969696680653240014914910929820314476107906210059990541021186"
      ]
    },
    {
      "x": 219,
      "y": 345,
      "size": 1,
      "price": "4683000000000000000000",
      "reserved": "",
      "salt": "0x09f6821e23b23355b11f944761f99b988f6131b00f60d68d25974e331b8476ce",
      "assetIds": [
        "41506478881403507969696680653240014914910929820314476107906210059990541021186"
      ]
    },
    {
      "x": 219,
      "y": 346,
      "size": 1,
      "price": "4683000000000000000000",
      "reserved": "",
      "salt": "0x89b383ee0197a1597dbc2515694e2567e5a4eba27c43466b9b38a90d4616e9fd",
      "assetIds": [
        "41506478881403507969696680653240014914910929820314476107906210059990541021186"
      ]
    },
    {
      "x": 219,
      "y": 347,
      "size": 1,
      "price": "4683000000000000000000",
      "reserved": "",
      "salt": "0x018b6786e7409c41de1c7033bb5162eaf33d8eb24a2c759e1c148143384f2e5b",
      "assetIds": [
        "41506478881403507969696680653240014914910929820314476107906210059990541021186"
      ]
    },
    {
      "x": 219,
      "y": 351,
      "size": 1,
      "price": "4683000000000000000000",
      "reserved": "",
      "salt": "0x8fa0c0b940f94f992edf9798d3849051c16fd6e5f910672b44c8a1711a048ab1",
      "assetIds": [
        "41506478881403507969696680653240014914910929820314476107906210059990541021186"
      ]
    },
    {
      "x": 219,
      "y": 352,
      "size": 1,
      "price": "1011000000000000000000",
      "reserved": "0x7a9fe22691c811ea339d9b73150e6911a5343dca",
      "salt": "0x56b217a5d5fb7862358599255f1212b90a36828bfe013e4abec07e2f90bb3254",
      "assetIds": []
    },
    {
      "x": 219,
      "y": 353,
      "size": 1,
      "price": "1011000000000000000000",
      "reserved": "",
      "salt": "0xe6122553385d35b40c138b80f51b0a6032997648f81d4e1f14be0d46738d00b9",
      "assetIds": []
    },
    {
      "x": 219,
      "y": 354,
      "size": 1,
      "price": "1011000000000000000000",
      "reserved": "",
      "salt": "0xed20650545194a2c6e154093cbfaf3724b41fdd11537629cba128407118810e2",
      "assetIds": []
    },
    {
      "x": 219,
      "y": 355,
      "size": 1,
      "price": "1011000000000000000000",
      "reserved": "",
      "salt": "0x788460ac1adbadc258b642a34b581097bb1212a6aa8467a0d826355727df71a9",
      "assetIds": []
    },
    {
      "x": 219,
      "y": 356,
      "size": 1,
      "price": "1011000000000000000000",
      "reserved": "",
      "salt": "0x3ca52cc68352c5c72133b22b7b39dfccac7f9cb4449a97ce11e47849e3c389f7",
      "assetIds": []
    },
    {
      "x": 220,
      "y": 336,
      "size": 1,
      "price": "1011000000000000000000",
      "reserved": "",
      "salt": "0x5ff6f28b26ac38e47e34a15910448d083f6fc11cdac35ab54e92e1f3aaafea07",
      "assetIds": []
    },
    {
      "x": 220,
      "y": 337,
      "size": 1,
      "price": "1011000000000000000000",
      "reserved": "",
      "salt": "0x39933187a187a37a82df0b30ffff44402d89f26dbfafb2bea80044112c9eb959",
      "assetIds": []
    },
    {
      "x": 220,
      "y": 338,
      "size": 1,
      "price": "4683000000000000000000",
      "reserved": "",
      "salt": "0xb6fc5ab9088d259044b442a79ed1c89da00d255d86dbdf1c7ef6ee91942ddfe5",
      "assetIds": [
        "41506478881403507969696680653240014914910929820314476107906210059990541021186"
      ]
    },
    {
      "x": 220,
      "y": 342,
      "size": 1,
      "price": "4683000000000000000000",
      "reserved": "",
      "salt": "0x6a1538dcd184cfed87f9595e704824fd1680c7bdc4f1420cba6ff5a5458192b9",
      "assetIds": [
        "41506478881403507969696680653240014914910929820314476107906210059990541021186"
      ]
    },
    {
      "x": 220,
      "y": 343,
      "size": 1,
      "price": "1011000000000000000000",
      "reserved": "",
      "salt": "0x15d849229eee9c56f4413ec39f9160fcb4d38d0d03f84a21897bff7be2e19e78",
      "assetIds": []
    },
    {
      "x": 220,
      "y": 344,
      "size": 1,
      "price": "4683000000000000000000",
      "reserved": "",
      "salt": "0x7c2cbcd8f1db3cf6c7f48af44ecab0631187a2c0e5feeee6a4f416b6acbb895e",
      "assetIds": [
        "41506478881403507969696680653240014914910929820314476107906210059990541021186"
      ]
    },
    {
      "x": 220,
      "y": 345,
      "size": 1,
      "price": "4683000000000000000000",
      "reserved": "",
      "salt": "0x1049c40f91a90586bd91648cde84ebbda6d20e51cac0a272ac792f1595cc08d1",
      "assetIds": [
        "41506478881403507969696680653240014914910929820314476107906210059990541021186"
      ]
    },
    {
      "x": 220,
      "y": 346,
      "size": 1,
      "price": "4683000000000000000000",
      "reserved": "",
      "salt": "0x5783632170d8d7a9a92ad392f6233d569a38122c2f963e1d4f1784f7bf9b7a3c",
      "assetIds": [
        "41506478881403507969696680653240014914910929820314476107906210059990541021186"
      ]
    },
    {
      "x": 220,
      "y": 347,
      "size": 1,
      "price": "4683000000000000000000",
      "reserved": "",
      "salt": "0x4a17befef85bf81f603cde8158394c51526535ac3aa3168c57278ea91fe6b3fa",
      "assetIds": [
        "41506478881403507969696680653240014914910929820314476107906210059990541021186"
      ]
    },
    {
      "x": 220,
      "y": 351,
      "size": 1,
      "price": "4683000000000000000000",
      "reserved": "",
      "salt": "0xc0f55bab6af63552f385e5bff9956a0937218b2b6f50a345aebf263ae3cba1c4",
      "assetIds": [
        "41506478881403507969696680653240014914910929820314476107906210059990541021186"
      ]
    },
    {
      "x": 220,
      "y": 352,
      "size": 1,
      "price": "4683000000000000000000",
      "reserved": "",
      "salt": "0xd775f2fc85abe8031d6baf5d7bf1940fbf9a4d00ca0aeaed799d9bedbd9e498e",
      "assetIds": [
        "41506478881403507969696680653240014914910929820314476107906210059990541021186"
      ]
    },
    {
      "x": 220,
      "y": 353,
      "size": 1,
      "price": "1011000000000000000000",
      "reserved": "",
      "salt": "0xa95b225f3dbd3d3971d1c5325c8866403a96669e4759d49c74eef1976d21c4c6",
      "assetIds": []
    },
    {
      "x": 220,
      "y": 354,
      "size": 1,
      "price": "1011000000000000000000",
      "reserved": "",
      "salt": "0x56c47afa5a68bf07e18cd20f80a61d96904804f5ecb65ec5f2bc6964057fd4d2",
      "assetIds": []
    },
    {
      "x": 220,
      "y": 355,
      "size": 1,
      "price": "1011000000000000000000",
      "reserved": "",
      "salt": "0x3e4f4803d47c609eda21c8f156cffe1c7aa78952557530b1c37cddc306e29220",
      "assetIds": []
    },
    {
      "x": 220,
      "y": 356,
      "size": 1,
      "price": "1011000000000000000000",
      "reserved": "0x7a9fe22691c811ea339d9b73150e6911a5343dca",
      "salt": "0xefc9857e6090a058beb147594b7fb57d4f77494c495c8923ffca8c50caa551e6",
      "assetIds": []
    },
    {
      "x": 221,
      "y": 336,
      "size": 1,
      "price": "1011000000000000000000",
      "reserved": "",
      "salt": "0xafabf0a5d57437c0b20823b366ef804edcc0dfff5ea9f3f0d873afeb86f0f088",
      "assetIds": []
    },
    {
      "x": 221,
      "y": 337,
      "size": 1,
      "price": "4683000000000000000000",
      "reserved": "",
      "salt": "0x58dbdf7718169174fdcc77ddf88562feaf380d3fe610f91f5e753a35330a30db",
      "assetIds": [
        "41506478881403507969696680653240014914910929820314476107906210059990541021186"
      ]
    },
    {
      "x": 221,
      "y": 338,
      "size": 1,
      "price": "4683000000000000000000",
      "reserved": "",
      "salt": "0xeeb53c34244c6eb3c90dcb26cd86c75aaaee915bd96bd2d592e4fa39bd315b92",
      "assetIds": [
        "41506478881403507969696680653240014914910929820314476107906210059990541021186"
      ]
    },
    {
      "x": 221,
      "y": 342,
      "size": 1,
      "price": "4683000000000000000000",
      "reserved": "",
      "salt": "0x690649269bd298bab4abd0f5a3bbeaa1ccaad1000ebc6a942804960792b908d9",
      "assetIds": [
        "41506478881403507969696680653240014914910929820314476107906210059990541021186"
      ]
    },
    {
      "x": 221,
      "y": 343,
      "size": 1,
      "price": "1011000000000000000000",
      "reserved": "",
      "salt": "0x59b73875e4b075f593c7b5dbae8485d5319c4de0efd9a59dd5ce5cddc11ddfa3",
      "assetIds": []
    },
    {
      "x": 221,
      "y": 344,
      "size": 1,
      "price": "1011000000000000000000",
      "reserved": "",
      "salt": "0x21e19fce97b410ee23e64a33d30b85071686d290d9157e13c9b78a969fc3880a",
      "assetIds": []
    },
    {
      "x": 221,
      "y": 345,
      "size": 1,
      "price": "4683000000000000000000",
      "reserved": "",
      "salt": "0x731555df56324f2b90b5240e5fbe719ac509a55681bc17f883843220cfda49d1",
      "assetIds": [
        "41506478881403507969696680653240014914910929820314476107906210059990541021186"
      ]
    },
    {
      "x": 221,
      "y": 346,
      "size": 1,
      "price": "4683000000000000000000",
      "reserved": "",
      "salt": "0x69d0c0ae8ac96ec4840a48bae817687e75433106ea2df5c2320061f24a13dd8b",
      "assetIds": [
        "41506478881403507969696680653240014914910929820314476107906210059990541021186"
      ]
    },
    {
      "x": 221,
      "y": 347,
      "size": 1,
      "price": "4683000000000000000000",
      "reserved": "",
      "salt": "0x341126372e3ee5aef777cd5b805c6cd9afe5f08ef5b22c86e91c430345fe4de0",
      "assetIds": [
        "41506478881403507969696680653240014914910929820314476107906210059990541021186"
      ]
    },
    {
      "x": 221,
      "y": 351,
      "size": 1,
      "price": "4683000000000000000000",
      "reserved": "",
      "salt": "0x607c1db2388a1dfe744bcf693a3841e8f77d8af1899fed62344b2ae30ce5d27b",
      "assetIds": [
        "41506478881403507969696680653240014914910929820314476107906210059990541021186"
      ]
    },
    {
      "x": 221,
      "y": 352,
      "size": 1,
      "price": "4683000000000000000000",
      "reserved": "",
      "salt": "0x65b3fc3f700260d163861ef696142d1a6338e6d463b58f2d32624da6ddde2fcc",
      "assetIds": [
        "41506478881403507969696680653240014914910929820314476107906210059990541021186"
      ]
    },
    {
      "x": 221,
      "y": 353,
      "size": 1,
      "price": "1011000000000000000000",
      "reserved": "",
      "salt": "0xc07768708c6ef6c7d55156161108d5e2b5615e696599a16b5dea808bde56bce0",
      "assetIds": []
    },
    {
      "x": 221,
      "y": 354,
      "size": 1,
      "price": "1011000000000000000000",
      "reserved": "",
      "salt": "0xe97fcdaa8d1ae359ef9c3e48049e94b1fe470a2dc4993df8dbff44f6fe42d4fd",
      "assetIds": []
    },
    {
      "x": 221,
      "y": 355,
      "size": 1,
      "price": "1011000000000000000000",
      "reserved": "",
      "salt": "0x361b54098cd644829b9f9827ed5d09100a221dab82288e91d1b8c013368ca484",
      "assetIds": []
    },
    {
      "x": 221,
      "y": 356,
      "size": 1,
      "price": "1011000000000000000000",
      "reserved": "",
      "salt": "0x22438180c6418d4198e23faad9dc138e710c623ca1467240a3e7fc185f3e69e3",
      "assetIds": []
    },
    {
      "x": 222,
      "y": 342,
      "size": 1,
      "price": "4683000000000000000000",
      "reserved": "",
      "salt": "0x8d6c6d0c6965a09e632cf0989e9a5ac3d1a334fbd4bf558ae6e09f82fd7453ba",
      "assetIds": [
        "41506478881403507969696680653240014914910929820314476107906210059990541021186"
      ]
    },
    {
      "x": 222,
      "y": 343,
      "size": 1,
      "price": "4683000000000000000000",
      "reserved": "",
      "salt": "0xa05f019c426055fde527c1776b62b8f2d51e2b89fdfa8063104cd94c642172cf",
      "assetIds": [
        "41506478881403507969696680653240014914910929820314476107906210059990541021186"
      ]
    },
    {
      "x": 222,
      "y": 344,
      "size": 1,
      "price": "1011000000000000000000",
      "reserved": "",
      "salt": "0x3e8e67041fae651a01728755013b109216288b597dbf477ba8c544e5157fa645",
      "assetIds": []
    },
    {
      "x": 222,
      "y": 345,
      "size": 1,
      "price": "4683000000000000000000",
      "reserved": "",
      "salt": "0x60206a4325decb9c3e661da02fe89352720f7416ff3fddf37594d8d8199731d5",
      "assetIds": [
        "41506478881403507969696680653240014914910929820314476107906210059990541021186"
      ]
    },
    {
      "x": 222,
      "y": 346,
      "size": 1,
      "price": "4683000000000000000000",
      "reserved": "",
      "salt": "0x9b6764ef6212c0c3b36fdc88fed001aeb2ceeeac4a878c19f78698a30187ad6f",
      "assetIds": [
        "41506478881403507969696680653240014914910929820314476107906210059990541021186"
      ]
    },
    {
      "x": 222,
      "y": 347,
      "size": 1,
      "price": "4683000000000000000000",
      "reserved": "",
      "salt": "0xf3b4c69035889fe66d40ce7b404d77ef0a512b37b6004ee104eb2b4537e1deb1",
      "assetIds": [
        "41506478881403507969696680653240014914910929820314476107906210059990541021186"
      ]
    },
    {
      "x": 222,
      "y": 351,
      "size": 1,
      "price": "4683000000000000000000",
      "reserved": "",
      "salt": "0x17fd9f1933dc32e5ab225478fda77687da04d93e6402ca50231d4f70f98a78b7",
      "assetIds": [
        "41506478881403507969696680653240014914910929820314476107906210059990541021186"
      ]
    },
    {
      "x": 222,
      "y": 352,
      "size": 1,
      "price": "4683000000000000000000",
      "reserved": "",
      "salt": "0x1883da6ac4570f5146125493ff0bcb0dbe8081202c1b155133d527a3890a9f59",
      "assetIds": [
        "41506478881403507969696680653240014914910929820314476107906210059990541021186"
      ]
    },
    {
      "x": 222,
      "y": 353,
      "size": 1,
      "price": "1011000000000000000000",
      "reserved": "",
      "salt": "0xf487d366177f1adaee952f2ab8957b1ee7be385a703b09b4ea422306dc3dd89f",
      "assetIds": []
    },
    {
      "x": 222,
      "y": 354,
      "size": 1,
      "price": "1011000000000000000000",
      "reserved": "0x7a9fe22691c811ea339d9b73150e6911a5343dca",
      "salt": "0xfaf6ec967f514955ef2aa8ec74bf8863d85da34aa0ffe1398b8b6495cbbb1cbd",
      "assetIds": []
    },
    {
      "x": 222,
      "y": 355,
      "size": 1,
      "price": "1011000000000000000000",
      "reserved": "",
      "salt": "0x47a14f4aa18a08c9095cde45d4ca2acbd236b4530906c8b8dcf94643ff2b175a",
      "assetIds": []
    },
    {
      "x": 222,
      "y": 356,
      "size": 1,
      "price": "1011000000000000000000",
      "reserved": "",
      "salt": "0xbdfec516a2106cad00541463fe733eeba3b9cf0b545b1f69b92ffa59a2b1e685",
      "assetIds": []
    },
    {
      "x": 223,
      "y": 342,
      "size": 1,
      "price": "1011000000000000000000",
      "reserved": "",
      "salt": "0x65fc79e268b38a577dc38799ca1066d628a9eee7818469abafa009178f1db968",
      "assetIds": []
    },
    {
      "x": 223,
      "y": 343,
      "size": 1,
      "price": "1011000000000000000000",
      "reserved": "0x7a9fe22691c811ea339d9b73150e6911a5343dca",
      "salt": "0x5f95840b044b17dd7748aab383ec80384007f643672f530325a2eb7ccb053e72",
      "assetIds": []
    },
    {
      "x": 223,
      "y": 344,
      "size": 1,
      "price": "1011000000000000000000",
      "reserved": "",
      "salt": "0xc33019de263254d1c743e9b5c402b51e06d4461e48d9ab199699465d4bc82258",
      "assetIds": []
    },
    {
      "x": 223,
      "y": 345,
      "size": 1,
      "price": "4683000000000000000000",
      "reserved": "",
      "salt": "0xfd3bc524e6353733469969801ce51d3a7c3f9608dc354b175fba6ee5c8a9d33d",
      "assetIds": [
        "41506478881403507969696680653240014914910929820314476107906210059990541021186"
      ]
    },
    {
      "x": 223,
      "y": 346,
      "size": 1,
      "price": "4683000000000000000000",
      "reserved": "",
      "salt": "0xcbfe194c83f91bc2604eff0a0f79e061143d23b39605e9f0b71540aa0e97d04e",
      "assetIds": [
        "41506478881403507969696680653240014914910929820314476107906210059990541021186"
      ]
    },
    {
      "x": 223,
      "y": 347,
      "size": 1,
      "price": "1011000000000000000000",
      "reserved": "",
      "salt": "0x5ae5ec6decaf71c89cbb4b22495c42e4222d5d26c4a8a4e6b2f567c6bd6e5044",
      "assetIds": []
    },
    {
      "x": 223,
      "y": 351,
      "size": 1,
      "price": "4683000000000000000000",
      "reserved": "",
      "salt": "0x6ac467bd49d306c3d5bfba4a0d47ad023be865e6c4756f52bcbda0f54fadea20",
      "assetIds": [
        "41506478881403507969696680653240014914910929820314476107906210059990541021186"
      ]
    },
    {
      "x": 223,
      "y": 352,
      "size": 1,
      "price": "1011000000000000000000",
      "reserved": "",
      "salt": "0xcc8353d5f56a63b7f804f8e316fd598b7f51826ba770e3cb9e3452bc2f16cc94",
      "assetIds": []
    },
    {
      "x": 223,
      "y": 353,
      "size": 1,
      "price": "1011000000000000000000",
      "reserved": "",
      "salt": "0x330f94e989f3e34a24d0d52df35663d0b4a7b314ddc25db7fb8f7318a0fdb73b",
      "assetIds": []
    },
    {
      "x": 223,
      "y": 354,
      "size": 1,
      "price": "1011000000000000000000",
      "reserved": "",
      "salt": "0x7a59f45cfecaaf8fce3b2ab36d4b38f036389d5e558d3e8adb43d5df3e2f50ac",
      "assetIds": []
    },
    {
      "x": 223,
      "y": 355,
      "size": 1,
      "price": "1011000000000000000000",
      "reserved": "",
      "salt": "0x2186b3c3ba46afd392d6bf8fb25c657be2096c9f452edacadbebaf5549a9b606",
      "assetIds": []
    },
    {
      "x": 223,
      "y": 356,
      "size": 1,
      "price": "1011000000000000000000",
      "reserved": "",
      "salt": "0x634b4f780a0507a93476affef0da46366911bee025c162123239ac6c09a7ba7f",
      "assetIds": []
    },
    {
      "x": 224,
      "y": 342,
      "size": 1,
      "price": "4683000000000000000000",
      "reserved": "",
      "salt": "0x7c8e55e9133e0a59afd3ef57552ff96b3af83c1ab1d72ca2e6866abb0222e59c",
      "assetIds": [
        "41506478881403507969696680653240014914910929820314476107906210059990541021186"
      ]
    },
    {
      "x": 224,
      "y": 343,
      "size": 1,
      "price": "1011000000000000000000",
      "reserved": "",
      "salt": "0x0afef0ef3df671eae821534b2299dc3724842856e8ee9ed7b78f45f791125900",
      "assetIds": []
    },
    {
      "x": 224,
      "y": 344,
      "size": 1,
      "price": "1011000000000000000000",
      "reserved": "",
      "salt": "0xc5cb8ee2f4ac6ea4713f59bd3a62937993b0bb9e73dbbd5f8aec5bf8c32a8ec0",
      "assetIds": []
    },
    {
      "x": 224,
      "y": 345,
      "size": 1,
      "price": "1011000000000000000000",
      "reserved": "",
      "salt": "0x17cd8958a829858e1702b89a7052453c062ce3f8501e6c15f0ab37cb8052f15e",
      "assetIds": []
    },
    {
      "x": 224,
      "y": 346,
      "size": 1,
      "price": "1011000000000000000000",
      "reserved": "0x7a9fe22691c811ea339d9b73150e6911a5343dca",
      "salt": "0xf24d893127be853eb57ab55dcbe44f0ea13cd0f6d9f8b04d7b068566beeeb169",
      "assetIds": []
    },
    {
      "x": 224,
      "y": 347,
      "size": 1,
      "price": "1011000000000000000000",
      "reserved": "",
      "salt": "0x7ba96e37e59e031130d827964c3b32c4f724ef021b96b0808812e535c4a02669",
      "assetIds": []
    },
    {
      "x": 224,
      "y": 351,
      "size": 1,
      "price": "4683000000000000000000",
      "reserved": "",
      "salt": "0xbe70d1736ee52ef13600eb93d62de054852c6535922519d2ca3371672752519c",
      "assetIds": [
        "41506478881403507969696680653240014914910929820314476107906210059990541021186"
      ]
    },
    {
      "x": 224,
      "y": 352,
      "size": 1,
      "price": "1011000000000000000000",
      "reserved": "0x7a9fe22691c811ea339d9b73150e6911a5343dca",
      "salt": "0x2c7205564d2546cf94812004eb98b1a31b87ceed458eff4bab63c342675f6882",
      "assetIds": []
    },
    {
      "x": 224,
      "y": 353,
      "size": 1,
      "price": "1011000000000000000000",
      "reserved": "0x7a9fe22691c811ea339d9b73150e6911a5343dca",
      "salt": "0xf68827ad853d7bdbbfa67146247558284a31c30a1b2783d2174044d73fdff958",
      "assetIds": []
    },
    {
      "x": 224,
      "y": 354,
      "size": 1,
      "price": "1011000000000000000000",
      "reserved": "",
      "salt": "0xacdde88f9de18ae039ac41fc3cb643dc6997c77d03469ca4a769530c690fa6a4",
      "assetIds": []
    },
    {
      "x": 224,
      "y": 355,
      "size": 1,
      "price": "1011000000000000000000",
      "reserved": "",
      "salt": "0x68f62ce6d4c78879d81342660b827d88c17a78fd859a2903a043f35449b47317",
      "assetIds": []
    },
    {
      "x": 224,
      "y": 356,
      "size": 1,
      "price": "1011000000000000000000",
      "reserved": "",
      "salt": "0x303729493f86258a236746ca0e2d40ca2dfa208ec712a14dfbf34c0de65d7c4f",
      "assetIds": []
    },
    {
      "x": 225,
      "y": 342,
      "size": 1,
      "price": "4683000000000000000000",
      "reserved": "",
      "salt": "0xaaeb33a75322953bfa400399f0060e0edab47373e30919273ff98b28c58db4e6",
      "assetIds": [
        "41506478881403507969696680653240014914910929820314476107906210059990541021186"
      ]
    },
    {
      "x": 225,
      "y": 343,
      "size": 1,
      "price": "4683000000000000000000",
      "reserved": "",
      "salt": "0xc720c6f4524133f18eeacff8924e92ca9154ec620be51c752bba9cbeff30f0c9",
      "assetIds": [
        "41506478881403507969696680653240014914910929820314476107906210059990541021186"
      ]
    },
    {
      "x": 225,
      "y": 344,
      "size": 1,
      "price": "1011000000000000000000",
      "reserved": "",
      "salt": "0xcdaab2bf8645c527abb06c7eefa951e6b0fbfcd3d75e4720d844aa574108005f",
      "assetIds": []
    },
    {
      "x": 225,
      "y": 345,
      "size": 1,
      "price": "1011000000000000000000",
      "reserved": "",
      "salt": "0x650913e3d31c9db6b287d30d3346409f77563d91f62b209f2b1a9358eccc0547",
      "assetIds": []
    },
    {
      "x": 225,
      "y": 346,
      "size": 1,
      "price": "1011000000000000000000",
      "reserved": "",
      "salt": "0xb9be9e25f7f28e4bd05175c8ef01809d153d7e737867105dccfdf0b7ace8258b",
      "assetIds": []
    },
    {
      "x": 225,
      "y": 347,
      "size": 1,
      "price": "1011000000000000000000",
      "reserved": "0x7a9fe22691c811ea339d9b73150e6911a5343dca",
      "salt": "0x74889586f1228426c2a64d155954c117bc872d1ad07a48a6eebdd5bb5c479df4",
      "assetIds": []
    },
    {
      "x": 225,
      "y": 348,
      "size": 1,
      "price": "1011000000000000000000",
      "reserved": "",
      "salt": "0x01828046fa403d53bb7779981d9cda21ddfe61dfce7e68d347384effe2fa6c4e",
      "assetIds": []
    },
    {
      "x": 225,
      "y": 349,
      "size": 1,
      "price": "1011000000000000000000",
      "reserved": "",
      "salt": "0x65df96481f197729d92bb15a3fad8e273e6004aa317cd9e9fb60fe9a3ec1ad65",
      "assetIds": []
    },
    {
      "x": 225,
      "y": 350,
      "size": 1,
      "price": "1011000000000000000000",
      "reserved": "",
      "salt": "0xe8e63d4e7d9e1ea6a03d5455841aa764c734c9d484727bbfd3dc0b1790fe50bf",
      "assetIds": []
    },
    {
      "x": 225,
      "y": 351,
      "size": 1,
      "price": "1011000000000000000000",
      "reserved": "",
      "salt": "0xb15e3da77f5f841069d3ac9f666a3b7ffca5bd91fa49483ad921f64f548f08c5",
      "assetIds": []
    },
    {
      "x": 225,
      "y": 352,
      "size": 1,
      "price": "1011000000000000000000",
      "reserved": "",
      "salt": "0x802736820668edf41097f614681f5816f69eb43593c10e6bfad935e2c081cd91",
      "assetIds": []
    },
    {
      "x": 225,
      "y": 353,
      "size": 1,
      "price": "1011000000000000000000",
      "reserved": "",
      "salt": "0xa3656f862b9bf2ac04225f8ab46b54616f6a783e8c8c1fce2c1dcf24610d3df6",
      "assetIds": []
    },
    {
      "x": 225,
      "y": 354,
      "size": 1,
      "price": "1011000000000000000000",
      "reserved": "",
      "salt": "0xc173e5e54edfbf31c1190bbf1e474d4f0b2705009bb9346a188e690165322dda",
      "assetIds": []
    },
    {
      "x": 225,
      "y": 355,
      "size": 1,
      "price": "1011000000000000000000",
      "reserved": "",
      "salt": "0x9009da46c432625752e561a4dc6c47141e15a2c6de0548cfdc8025bbbd877026",
      "assetIds": []
    },
    {
      "x": 225,
      "y": 356,
      "size": 1,
      "price": "1011000000000000000000",
      "reserved": "",
      "salt": "0x24403376b901144a9c7bc29f4c04a28c9edb53132f396ae0987b13f6c414c901",
      "assetIds": []
    },
    {
      "x": 226,
      "y": 342,
      "size": 1,
      "price": "4683000000000000000000",
      "reserved": "",
      "salt": "0x0f3dc61a5f829436c104942b762882e0f460a0e02606dde38e7231200e7d7074",
      "assetIds": [
        "41506478881403507969696680653240014914910929820314476107906210059990541021186"
      ]
    },
    {
      "x": 226,
      "y": 343,
      "size": 1,
      "price": "4683000000000000000000",
      "reserved": "",
      "salt": "0xc8ec8751b21cf76e3b5510908907829541927bd9adeca0f2a007bc12648824f5",
      "assetIds": [
        "41506478881403507969696680653240014914910929820314476107906210059990541021186"
      ]
    },
    {
      "x": 226,
      "y": 344,
      "size": 1,
      "price": "1011000000000000000000",
      "reserved": "",
      "salt": "0x39bc5c70d7af1dadcaacc46ceb32c71536cab4d804b4790ca307cbd701f7f2bd",
      "assetIds": []
    },
    {
      "x": 226,
      "y": 345,
      "size": 1,
      "price": "1011000000000000000000",
      "reserved": "0x7a9fe22691c811ea339d9b73150e6911a5343dca",
      "salt": "0xe04a980038a28a1e3eb5824e1cececacafde0f3b58785b6ca2b8639e6ec45784",
      "assetIds": []
    },
    {
      "x": 226,
      "y": 346,
      "size": 1,
      "price": "1011000000000000000000",
      "reserved": "",
      "salt": "0x052b7f8e3566bd191a4233f0dcc4c5797c4bfb67e21af16dbd4bc2649fcc8516",
      "assetIds": []
    },
    {
      "x": 226,
      "y": 347,
      "size": 1,
      "price": "1011000000000000000000",
      "reserved": "0x7a9fe22691c811ea339d9b73150e6911a5343dca",
      "salt": "0x908f2422edd8fdbed9e80b4ac68d2490893e54a6a0d8687da7f8d826f23a775c",
      "assetIds": []
    },
    {
      "x": 226,
      "y": 348,
      "size": 1,
      "price": "1011000000000000000000",
      "reserved": "",
      "salt": "0x28d22a1da04bc96c21008901a3bf5d84462e3ed4f3d08835ed2b689dc0a190cf",
      "assetIds": []
    },
    {
      "x": 226,
      "y": 349,
      "size": 1,
      "price": "1011000000000000000000",
      "reserved": "",
      "salt": "0xd82d94f955fdc6bf9a1888c7c408545b98b1c8fc98f7f30362004df4116f9048",
      "assetIds": []
    },
    {
      "x": 226,
      "y": 350,
      "size": 1,
      "price": "1011000000000000000000",
      "reserved": "",
      "salt": "0x9a3b140ca76d4c79f17d11f754b779e1b5883d5209c595151d42e27e0e4fee5f",
      "assetIds": []
    },
    {
      "x": 226,
      "y": 351,
      "size": 1,
      "price": "1011000000000000000000",
      "reserved": "",
      "salt": "0x968fb060e35aaf61dd60eb5a32ce21d1ecb7d87bbcd2bc151d4899484e3b0c39",
      "assetIds": []
    },
    {
      "x": 226,
      "y": 352,
      "size": 1,
      "price": "1011000000000000000000",
      "reserved": "0x7a9fe22691c811ea339d9b73150e6911a5343dca",
      "salt": "0x60f4c7276fe6b0849d230ef25b90dcf62adcb82695191f19aeef46a16a6a10f2",
      "assetIds": []
    },
    {
      "x": 226,
      "y": 353,
      "size": 1,
      "price": "1011000000000000000000",
      "reserved": "",
      "salt": "0x09c870972a299bb1fc4ddca185152ee500ad977f211aca78d36feb7fac9dd732",
      "assetIds": []
    },
    {
      "x": 226,
      "y": 354,
      "size": 1,
      "price": "1011000000000000000000",
      "reserved": "",
      "salt": "0xa8ce74a4f622fc835ea4aa20bc276cd01354cc1df272d858aba7bd672f84620d",
      "assetIds": []
    },
    {
      "x": 226,
      "y": 355,
      "size": 1,
      "price": "1011000000000000000000",
      "reserved": "",
      "salt": "0xaf0947f77e0398e0252f40ccdee87141490f808362d02cfe24b5d2d7c4e53108",
      "assetIds": []
    },
    {
      "x": 226,
      "y": 356,
      "size": 1,
      "price": "1011000000000000000000",
      "reserved": "0x7a9fe22691c811ea339d9b73150e6911a5343dca",
      "salt": "0x43ebc9b041b2961363eeb2e50ce88999ed23cd80f513fb3559ac858378d277c6",
      "assetIds": []
    },
    {
      "x": 227,
      "y": 342,
      "size": 1,
      "price": "1011000000000000000000",
      "reserved": "0x7a9fe22691c811ea339d9b73150e6911a5343dca",
      "salt": "0xc3461b975e08a6b2e0e676bca66fe9db91a451b3c9ab53c37585fe8bf94c4a19",
      "assetIds": []
    },
    {
      "x": 227,
      "y": 343,
      "size": 1,
      "price": "1011000000000000000000",
      "reserved": "",
      "salt": "0xc172a1a0f03d81d3559d3a362adcf205de6fb41c3ad5a9cef46451ecb0ba2375",
      "assetIds": []
    },
    {
      "x": 227,
      "y": 344,
      "size": 1,
      "price": "1011000000000000000000",
      "reserved": "",
      "salt": "0x8cc50679dd0999b772a938aa4af3725c99427718260700762bf7b39a2db48c2c",
      "assetIds": []
    },
    {
      "x": 227,
      "y": 345,
      "size": 1,
      "price": "1011000000000000000000",
      "reserved": "0x7a9fe22691c811ea339d9b73150e6911a5343dca",
      "salt": "0x8f34f2d90b9822d033de7fe0f009439c10c2804087a1ca104d4bcbc6f29e6579",
      "assetIds": []
    },
    {
      "x": 227,
      "y": 346,
      "size": 1,
      "price": "1011000000000000000000",
      "reserved": "",
      "salt": "0x817fa53ffc938e43ff034ddd39c715363d2624b5a196b117534a3a065b47f27c",
      "assetIds": []
    },
    {
      "x": 227,
      "y": 347,
      "size": 1,
      "price": "1011000000000000000000",
      "reserved": "0x7a9fe22691c811ea339d9b73150e6911a5343dca",
      "salt": "0x254cdc575b8000cfd6467eae26376f087b7f18dc929fa73bb6bfc49bfd7e7eef",
      "assetIds": []
    },
    {
      "x": 227,
      "y": 348,
      "size": 1,
      "price": "1011000000000000000000",
      "reserved": "",
      "salt": "0xf58d29dee557a1f6da2c8752f3dc0f0e2b039210943794dc852548e5b6da0a6b",
      "assetIds": []
    },
    {
      "x": 227,
      "y": 349,
      "size": 1,
      "price": "1011000000000000000000",
      "reserved": "0x7a9fe22691c811ea339d9b73150e6911a5343dca",
      "salt": "0x70b3453a0c9bf0913418553e761638dc94b5c17aaf8e4bfd4db46350ce90de4e",
      "assetIds": []
    },
    {
      "x": 227,
      "y": 350,
      "size": 1,
      "price": "1011000000000000000000",
      "reserved": "",
      "salt": "0x39f9b29519c33c3df61abb052fcbd1e503172696f646498d456407d5099d8e54",
      "assetIds": []
    },
    {
      "x": 227,
      "y": 351,
      "size": 1,
      "price": "1011000000000000000000",
      "reserved": "",
      "salt": "0xf1014640e0b996c66159244b39d435121ef0a22282ece71878259a97ddaff154",
      "assetIds": []
    },
    {
      "x": 227,
      "y": 352,
      "size": 1,
      "price": "1011000000000000000000",
      "reserved": "",
      "salt": "0x8071d673005ec111957d412ec0649dcac3af633145e9d5e048baea6c38325f76",
      "assetIds": []
    },
    {
      "x": 227,
      "y": 353,
      "size": 1,
      "price": "1011000000000000000000",
      "reserved": "",
      "salt": "0x18c2e73417995da9a023e03e41c6121f5315a0a5e7cdcaa68f872411154fd768",
      "assetIds": []
    },
    {
      "x": 227,
      "y": 354,
      "size": 1,
      "price": "1011000000000000000000",
      "reserved": "",
      "salt": "0x4efcdfcbbe754dc5b76dc22023366c760bd34027db7741e4468d0e9d42757cdf",
      "assetIds": []
    },
    {
      "x": 227,
      "y": 355,
      "size": 1,
      "price": "1011000000000000000000",
      "reserved": "",
      "salt": "0xd021dea71c4598a00423a90a8001dbcf8a5d72ed3911e1b9ece7cadceb08e42f",
      "assetIds": []
    },
    {
      "x": 227,
      "y": 356,
      "size": 1,
      "price": "1011000000000000000000",
      "reserved": "",
      "salt": "0x257a0dec11a6c3753d97531d69e2b4389d59bdcb27a73f547f6cb191ecb933c0",
      "assetIds": []
    },
    {
      "x": 228,
      "y": 336,
      "size": 1,
      "price": "1011000000000000000000",
      "reserved": "",
      "salt": "0x2b1a0f12cc3b77874e778af1ea15ad653c16d073c74390206e938249b2f77342",
      "assetIds": []
    },
    {
      "x": 228,
      "y": 337,
      "size": 1,
      "price": "1011000000000000000000",
      "reserved": "",
      "salt": "0xa42c7211e0328398ada064d73e5ae06369e74fe078833a1872881320e4af3502",
      "assetIds": []
    },
    {
      "x": 228,
      "y": 338,
      "size": 1,
      "price": "1011000000000000000000",
      "reserved": "",
      "salt": "0x804d3fab07b8ce4cdf93a7d6adb2882decb3cccc37433f84006dbab82bb87b85",
      "assetIds": []
    },
    {
      "x": 228,
      "y": 339,
      "size": 1,
      "price": "1011000000000000000000",
      "reserved": "",
      "salt": "0xb4e20708460005b6967d5a27384258664f7a8d59ad11b74dcaecb0604069700d",
      "assetIds": []
    },
    {
      "x": 228,
      "y": 340,
      "size": 1,
      "price": "1011000000000000000000",
      "reserved": "",
      "salt": "0x39eb6f864cb0cee2f8c81ee74ad9a4c8cede6c6d37aa5c5abe0d996f75e6f8d9",
      "assetIds": []
    },
    {
      "x": 228,
      "y": 341,
      "size": 1,
      "price": "1011000000000000000000",
      "reserved": "",
      "salt": "0x4dd20058d51d57c3349c4e09b5cea2264d9f8ce3dc181976843c2d06d59edb27",
      "assetIds": []
    },
    {
      "x": 228,
      "y": 348,
      "size": 1,
      "price": "1011000000000000000000",
      "reserved": "",
      "salt": "0x045fcd256fa4e592b969642b9b24dfd3c76f4d5234b71cd3ec1276a1c7be8ddc",
      "assetIds": []
    },
    {
      "x": 228,
      "y": 349,
      "size": 1,
      "price": "1011000000000000000000",
      "reserved": "",
      "salt": "0x0aeee0940e160eb6b8c9a6180df9ec6373e11c3404dd10474f88bfbb201eb1d2",
      "assetIds": []
    },
    {
      "x": 228,
      "y": 350,
      "size": 1,
      "price": "1011000000000000000000",
      "reserved": "",
      "salt": "0x0f0fda1aed1571338be018fafefd93a17abb283b24a54ddced8c2a6fc5e45ad1",
      "assetIds": []
    },
    {
      "x": 228,
      "y": 351,
      "size": 1,
      "price": "1011000000000000000000",
      "reserved": "",
      "salt": "0x1a5965ceab8347982fe3296a42df2a73132faeb171da1ea4eef9f2ed319b3801",
      "assetIds": []
    },
    {
      "x": 228,
      "y": 352,
      "size": 1,
      "price": "1011000000000000000000",
      "reserved": "",
      "salt": "0x42892c9180f55daaffede446a68d1cbeea6e35586a43d014d6bb1e4fe3d09425",
      "assetIds": []
    },
    {
      "x": 228,
      "y": 353,
      "size": 1,
      "price": "1011000000000000000000",
      "reserved": "",
      "salt": "0xeab8abd28aad220e0c00e85b3266a4ec92be2811a81a300857ccf6634d2d6dcc",
      "assetIds": []
    },
    {
      "x": 228,
      "y": 354,
      "size": 1,
      "price": "1011000000000000000000",
      "reserved": "",
      "salt": "0x3707dcdc8ef0d199634d9d64657e3aac92230e4f2f7e39922df3ef59ffa4f556",
      "assetIds": []
    },
    {
      "x": 228,
      "y": 355,
      "size": 1,
      "price": "1011000000000000000000",
      "reserved": "",
      "salt": "0xe7c143c855f746f796cee1ad9555e0ccaddee837939358be3128fcd5f6ff8db4",
      "assetIds": []
    },
    {
      "x": 228,
      "y": 356,
      "size": 1,
      "price": "1011000000000000000000",
      "reserved": "",
      "salt": "0x17e6479cb4976eb354173d00cace7c56b7178b3c78f129d0815b8ccf240edb32",
      "assetIds": []
    },
    {
      "x": 229,
      "y": 336,
      "size": 1,
      "price": "1011000000000000000000",
      "reserved": "",
      "salt": "0x231f7f6f6b2eaf4391a0694b9f4c16032738472b3f94e3a428f0f878d98f18e0",
      "assetIds": []
    },
    {
      "x": 229,
      "y": 337,
      "size": 1,
      "price": "1011000000000000000000",
      "reserved": "",
      "salt": "0x6588ae80314b55ae9537f875117801ddde5190cec4d60e43e0eb77b83b259315",
      "assetIds": []
    },
    {
      "x": 229,
      "y": 338,
      "size": 1,
      "price": "1011000000000000000000",
      "reserved": "",
      "salt": "0x3a273e4c53054ffbfe1eb38e2ef29d556212af87d649d870711fd27820db6ef5",
      "assetIds": []
    },
    {
      "x": 229,
      "y": 339,
      "size": 1,
      "price": "1011000000000000000000",
      "reserved": "",
      "salt": "0xd855fd991467432b9c17132cbff168ba4df553e808a645634e4f318b8a7a8f8e",
      "assetIds": []
    },
    {
      "x": 229,
      "y": 340,
      "size": 1,
      "price": "1011000000000000000000",
      "reserved": "",
      "salt": "0xe7f0b405ae713765ac651d27d2e311eec71a7d5386b26833d8f7d3178c708f5b",
      "assetIds": []
    },
    {
      "x": 229,
      "y": 341,
      "size": 1,
      "price": "1011000000000000000000",
      "reserved": "0x7a9fe22691c811ea339d9b73150e6911a5343dca",
      "salt": "0x42ba1480a6360d92d9950927314bb2750919427be49f84f5af97a19f622057da",
      "assetIds": []
    },
    {
      "x": 229,
      "y": 348,
      "size": 1,
      "price": "1011000000000000000000",
      "reserved": "",
      "salt": "0x7f6cf486a033fa024674abd0e8400d81f1ae7366274d736e50fd9aeff297595f",
      "assetIds": []
    },
    {
      "x": 229,
      "y": 349,
      "size": 1,
      "price": "1011000000000000000000",
      "reserved": "0x7a9fe22691c811ea339d9b73150e6911a5343dca",
      "salt": "0x23371178d9ce789770072b24c6c7d6c149e7bdeaf91aeecd71a7336c0a79ea06",
      "assetIds": []
    },
    {
      "x": 229,
      "y": 350,
      "size": 1,
      "price": "1011000000000000000000",
      "reserved": "",
      "salt": "0x103cbf2215d025fd4d275e8265f082adafffe1eb35f32ebb3d35a45d1a67229e",
      "assetIds": []
    },
    {
      "x": 229,
      "y": 351,
      "size": 1,
      "price": "1011000000000000000000",
      "reserved": "",
      "salt": "0x6b7dba2a7046eff1ea97a7eee0720f396180da544cafc6fc869f3a89928d7d4e",
      "assetIds": []
    },
    {
      "x": 229,
      "y": 352,
      "size": 1,
      "price": "1011000000000000000000",
      "reserved": "",
      "salt": "0x9c0670a651d17131937d780228a8176b9d7475ea8c393fb24ae76c5dda7c3854",
      "assetIds": []
    },
    {
      "x": 229,
      "y": 353,
      "size": 1,
      "price": "1011000000000000000000",
      "reserved": "",
      "salt": "0xcfae7429c5a7ed9726871b2dcb9c5102e8b85e1a7b78b780bd86025474200610",
      "assetIds": []
    },
    {
      "x": 229,
      "y": 354,
      "size": 1,
      "price": "1011000000000000000000",
      "reserved": "0x7a9fe22691c811ea339d9b73150e6911a5343dca",
      "salt": "0xe7615c04c145b8a8089b1abc1f9ded7ee75773ae5f92344c28ee002f863ef6ff",
      "assetIds": []
    },
    {
      "x": 229,
      "y": 355,
      "size": 1,
      "price": "1011000000000000000000",
      "reserved": "",
      "salt": "0x7ce24fdf04264fbb80de09f0ae5079dd157ef770acea4271a4355b7f7a93d00e",
      "assetIds": []
    },
    {
      "x": 229,
      "y": 356,
      "size": 1,
      "price": "1011000000000000000000",
      "reserved": "",
      "salt": "0xd9d38a1179039cba55f62f501ead407d1cf5ece8afdfc6f86802284aa7c9e751",
      "assetIds": []
    },
    {
      "x": 229,
      "y": 357,
      "size": 1,
      "price": "1011000000000000000000",
      "reserved": "",
      "salt": "0xb5eef5d3ccab45e28e92d42f94a8671d312729a9a11a81aae6833b2f0f7a6215",
      "assetIds": []
    },
    {
      "x": 230,
      "y": 336,
      "size": 1,
      "price": "1011000000000000000000",
      "reserved": "",
      "salt": "0x2bafe5aab46a0597ee65348905e51ae067810281e16c10bb0dd292df31e4996a",
      "assetIds": []
    },
    {
      "x": 230,
      "y": 337,
      "size": 1,
      "price": "1011000000000000000000",
      "reserved": "",
      "salt": "0x3be68112553c2b4f95a7453996d2fe56fd2f80871a593a946a3eaccc00b7af2c",
      "assetIds": []
    },
    {
      "x": 230,
      "y": 338,
      "size": 1,
      "price": "1011000000000000000000",
      "reserved": "",
      "salt": "0xb06e72aa7dbacf80d0d9dae63c402fd6af5b2f128e2ca9742f3a565a8a993a32",
      "assetIds": []
    },
    {
      "x": 230,
      "y": 339,
      "size": 1,
      "price": "1011000000000000000000",
      "reserved": "",
      "salt": "0xe0fa8d956fa19678323d86ebc497b1a7993bf6f54243bf24a4f1236934b5bd90",
      "assetIds": []
    },
    {
      "x": 230,
      "y": 340,
      "size": 1,
      "price": "1011000000000000000000",
      "reserved": "",
      "salt": "0x9cc4a8f62822dbd454635fa2688c0c4e6312aa37689adbdd8b6c0357fe70bb04",
      "assetIds": []
    },
    {
      "x": 230,
      "y": 341,
      "size": 1,
      "price": "1011000000000000000000",
      "reserved": "",
      "salt": "0xdf790a3d07a2f3b4cf0e646d16400fd305bd693f23b5bfa90b98c72d615da8aa",
      "assetIds": []
    },
    {
      "x": 230,
      "y": 348,
      "size": 1,
      "price": "1011000000000000000000",
      "reserved": "",
      "salt": "0x9d28d8ad1777d583a7f1a84e6cb33104ef749742b0fcf1e2dde139a643241a88",
      "assetIds": []
    },
    {
      "x": 230,
      "y": 349,
      "size": 1,
      "price": "1011000000000000000000",
      "reserved": "",
      "salt": "0x36ef4084f2d41475a8758c70606b40435fa5e6e967ab39d6933cd58bb9f0c82b",
      "assetIds": []
    },
    {
      "x": 230,
      "y": 350,
      "size": 1,
      "price": "1011000000000000000000",
      "reserved": "",
      "salt": "0x2f506387ed93e0fa8a6e616caceee152f0ce89d0fcb0adcc95466a84d05f869f",
      "assetIds": []
    },
    {
      "x": 230,
      "y": 351,
      "size": 1,
      "price": "1011000000000000000000",
      "reserved": "",
      "salt": "0x1f88c2821c8f8b76524ac6f61c128acf5b97ed184764f242de004ad6891cdecb",
      "assetIds": []
    },
    {
      "x": 230,
      "y": 352,
      "size": 1,
      "price": "1011000000000000000000",
      "reserved": "",
      "salt": "0x8c5fe8b139e131ad25d47300b1f253cef2adbf174b7d27e60b1ced36e2bb538c",
      "assetIds": []
    },
    {
      "x": 230,
      "y": 353,
      "size": 1,
      "price": "1011000000000000000000",
      "reserved": "",
      "salt": "0xfcb9d12abf870644c9b3ae8379dc11b741b02b91e5b01deb25ab211f6efb97dd",
      "assetIds": []
    },
    {
      "x": 230,
      "y": 354,
      "size": 1,
      "price": "1011000000000000000000",
      "reserved": "0x7a9fe22691c811ea339d9b73150e6911a5343dca",
      "salt": "0xe1ce9c982a8cf743e7322974f121d7dfc322faf662617b8de356c6628ab36796",
      "assetIds": []
    },
    {
      "x": 230,
      "y": 355,
      "size": 1,
      "price": "1011000000000000000000",
      "reserved": "",
      "salt": "0x3c51f6c5a5f5b9c7b1254d1ce1f0ee745f2d5b14f44a23e687aa7925f606c0c1",
      "assetIds": []
    },
    {
      "x": 230,
      "y": 356,
      "size": 1,
      "price": "1011000000000000000000",
      "reserved": "",
      "salt": "0x4b6c1596d1c1759273635f99db621f7ffe3af5bc9daef3156308ae8f66f849d4",
      "assetIds": []
    },
    {
      "x": 230,
      "y": 357,
      "size": 1,
      "price": "1011000000000000000000",
      "reserved": "",
      "salt": "0xda7a3b970d4c511f1938f66b8ae3477c374ed84db4ae716a62a52dba8f47f3d0",
      "assetIds": []
    },
    {
      "x": 231,
      "y": 336,
      "size": 1,
      "price": "1011000000000000000000",
      "reserved": "",
      "salt": "0xc01ce8fde57ea0819404f9fe68388c4d47e559f428b975a9bcb3e21ec28304ba",
      "assetIds": []
    },
    {
      "x": 231,
      "y": 337,
      "size": 1,
      "price": "1011000000000000000000",
      "reserved": "",
      "salt": "0xcf4a2af5c8277230be644c36089a0399c1656850245b7b6bb3b909e68f338b9c",
      "assetIds": []
    },
    {
      "x": 231,
      "y": 338,
      "size": 1,
      "price": "1011000000000000000000",
      "reserved": "0x7a9fe22691c811ea339d9b73150e6911a5343dca",
      "salt": "0xd60c46986a4043dd8d94c209eff978dc88d870310f21467e1c7fa91f2ac20c75",
      "assetIds": []
    },
    {
      "x": 231,
      "y": 339,
      "size": 1,
      "price": "1011000000000000000000",
      "reserved": "0x7a9fe22691c811ea339d9b73150e6911a5343dca",
      "salt": "0xabfc8b557bc269a60dfe494cc0ee79c7f70a7fd2309467e08b6306049aadf897",
      "assetIds": []
    },
    {
      "x": 231,
      "y": 340,
      "size": 1,
      "price": "1011000000000000000000",
      "reserved": "0x7a9fe22691c811ea339d9b73150e6911a5343dca",
      "salt": "0x1fa63b672e18cf1e7c53a0e1a660c2bd0f5a130c357eb40e4bc5112d4450224c",
      "assetIds": []
    },
    {
      "x": 231,
      "y": 341,
      "size": 1,
      "price": "4683000000000000000000",
      "reserved": "",
      "salt": "0xa47daa78a81c2757257543b6d04f6baf9181a5b8f7232f09f7272747a13e417a",
      "assetIds": [
        "41506478881403507969696680653240014914910929820314476107906210059990541021186"
      ]
    },
    {
      "x": 231,
      "y": 348,
      "size": 1,
      "price": "1011000000000000000000",
      "reserved": "",
      "salt": "0x023f487b8479a10585fb11e172a9c5f47ebfc756a22fab3ab1199e613e9009ef",
      "assetIds": []
    },
    {
      "x": 231,
      "y": 349,
      "size": 1,
      "price": "1011000000000000000000",
      "reserved": "0x7a9fe22691c811ea339d9b73150e6911a5343dca",
      "salt": "0x48c318152edc2ec3ac14744b906bd7ff824c8a21f41d6dac2d09d1cea0fa146f",
      "assetIds": []
    },
    {
      "x": 231,
      "y": 350,
      "size": 1,
      "price": "1011000000000000000000",
      "reserved": "",
      "salt": "0xc4f5ca5bf192bf694d91f5ef3d104e51e0f4924ad8a6b18cee0c4a340b854e5f",
      "assetIds": []
    },
    {
      "x": 231,
      "y": 351,
      "size": 1,
      "price": "1011000000000000000000",
      "reserved": "0x7a9fe22691c811ea339d9b73150e6911a5343dca",
      "salt": "0x06da8a1a6a29e7c9425808a996bd19cec8324710a98662e861f7ef6f1049f1b8",
      "assetIds": []
    },
    {
      "x": 231,
      "y": 352,
      "size": 1,
      "price": "1011000000000000000000",
      "reserved": "",
      "salt": "0x4945ae6950d98fcc0d4830b5ff4ce20bef6684b03fde02237bb8506340569732",
      "assetIds": []
    },
    {
      "x": 231,
      "y": 353,
      "size": 1,
      "price": "1011000000000000000000",
      "reserved": "",
      "salt": "0x6fdca2dd8c328ab4263483d2d59ceb05e13db917aea49a1d38eb84d858f14bd5",
      "assetIds": []
    },
    {
      "x": 231,
      "y": 354,
      "size": 1,
      "price": "1011000000000000000000",
      "reserved": "",
      "salt": "0x5f8bac27f392b9b35e4190230f9b3aeeb6c8527ff8c75d0ca3c054830fbef44a",
      "assetIds": []
    },
    {
      "x": 231,
      "y": 355,
      "size": 1,
      "price": "1011000000000000000000",
      "reserved": "",
      "salt": "0x4155e956d257c95d00951f14da94e8cf5130be8f859e2ffe320055f4fd48e54f",
      "assetIds": []
    },
    {
      "x": 231,
      "y": 356,
      "size": 1,
      "price": "1011000000000000000000",
      "reserved": "",
      "salt": "0x3b6e5c7f6d91276a20cbe08ece3c716ccab03f2bd0c3fd5442db85ba69e97df6",
      "assetIds": []
    },
    {
      "x": 231,
      "y": 357,
      "size": 1,
      "price": "1011000000000000000000",
      "reserved": "",
      "salt": "0x5cf8403c1739a131cce98fc83281b67705dbc021b270568dbf76125d39e8466f",
      "assetIds": []
    },
    {
      "x": 232,
      "y": 336,
      "size": 1,
      "price": "1011000000000000000000",
      "reserved": "",
      "salt": "0x3670fdd0f312ceb3723e8a7f2db3a785a98cd0a05fdd6efeac7bb2877ad70715",
      "assetIds": []
    },
    {
      "x": 232,
      "y": 337,
      "size": 1,
      "price": "1011000000000000000000",
      "reserved": "",
      "salt": "0x0b6f3f94b8507248a65789032a39849175b917ed2eb6f2a181334093f144d2be",
      "assetIds": []
    },
    {
      "x": 232,
      "y": 338,
      "size": 1,
      "price": "1011000000000000000000",
      "reserved": "",
      "salt": "0xb2ab2d3a3033f94b5a57328466b7ecd6f2e93ec13bd0a6d714bc09c4afaa6aaa",
      "assetIds": []
    },
    {
      "x": 232,
      "y": 339,
      "size": 1,
      "price": "1011000000000000000000",
      "reserved": "",
      "salt": "0x32c21c33a43c5701b50005b71083d075acc5c5a8181f2754ef535e5d06c118d3",
      "assetIds": []
    },
    {
      "x": 232,
      "y": 340,
      "size": 1,
      "price": "1011000000000000000000",
      "reserved": "",
      "salt": "0x940e8676687a55bbb9cdfcc5d1dfc3deeef006ceeb6be92e424c73978ab2ebd0",
      "assetIds": []
    },
    {
      "x": 232,
      "y": 341,
      "size": 1,
      "price": "4683000000000000000000",
      "reserved": "",
      "salt": "0x893b6675a6874b204af2c5ba3ee870f5aa288f812f791f044571bca529a3d3dc",
      "assetIds": [
        "41506478881403507969696680653240014914910929820314476107906210059990541021186"
      ]
    },
    {
      "x": 232,
      "y": 348,
      "size": 1,
      "price": "1011000000000000000000",
      "reserved": "",
      "salt": "0x06c5c9fbb263a6b4dbf986b7b79637011b6bcdf8b13cea73fff7705eaa7d95a5",
      "assetIds": []
    },
    {
      "x": 232,
      "y": 349,
      "size": 1,
      "price": "1011000000000000000000",
      "reserved": "",
      "salt": "0xfd9d47df65499a43da1a5dc49b5da440722cbbce19004196bd27131905b395f5",
      "assetIds": []
    },
    {
      "x": 232,
      "y": 350,
      "size": 1,
      "price": "1011000000000000000000",
      "reserved": "",
      "salt": "0xde428e22275a723c247033bc3703f738077ad39bc6887483feecbfefee1bd677",
      "assetIds": []
    },
    {
      "x": 232,
      "y": 351,
      "size": 1,
      "price": "1011000000000000000000",
      "reserved": "0x7a9fe22691c811ea339d9b73150e6911a5343dca",
      "salt": "0x3da00b267957fa1e4614ff367709e5baf3d96add027b41fde95538c40299da9b",
      "assetIds": []
    },
    {
      "x": 232,
      "y": 352,
      "size": 1,
      "price": "1011000000000000000000",
      "reserved": "",
      "salt": "0x1562d00134d2b27ef377f016a281d310ba1c537b884967224d0041830f77e5de",
      "assetIds": []
    },
    {
      "x": 232,
      "y": 353,
      "size": 1,
      "price": "1011000000000000000000",
      "reserved": "0x7a9fe22691c811ea339d9b73150e6911a5343dca",
      "salt": "0x9c67775c59bc8cc0883dac737ddfafaa3b8fc0d365811b3742cafee791abc918",
      "assetIds": []
    },
    {
      "x": 232,
      "y": 354,
      "size": 1,
      "price": "1011000000000000000000",
      "reserved": "",
      "salt": "0xdae458c49cf21df8d8a4d84454f3db21eb296dfaa63359aa0ebb8b80687a40ff",
      "assetIds": []
    },
    {
      "x": 232,
      "y": 355,
      "size": 1,
      "price": "4683000000000000000000",
      "reserved": "",
      "salt": "0x7f885b2d60e8584ff6b577da15a8e459553aec658735b0ff886db17ed28fea7e",
      "assetIds": [
        "41506478881403507969696680653240014914910929820314476107906210059990541021186"
      ]
    },
    {
      "x": 232,
      "y": 356,
      "size": 1,
      "price": "1011000000000000000000",
      "reserved": "0x7a9fe22691c811ea339d9b73150e6911a5343dca",
      "salt": "0x01364e8dbaf8263167de17c6e076defedc8a6389cdaf2cd91a5f911cda14695a",
      "assetIds": []
    },
    {
      "x": 232,
      "y": 357,
      "size": 1,
      "price": "1011000000000000000000",
      "reserved": "",
      "salt": "0xc6a767f70a34dd5642881a2b9b86b91134de883c1e06fcb5a0db4228c7fae06b",
      "assetIds": []
    },
    {
      "x": 233,
      "y": 336,
      "size": 1,
      "price": "1011000000000000000000",
      "reserved": "",
      "salt": "0x3df7cfe78f17641e588e503a97a27b61a72020aff3755c721d74b1361ad80e59",
      "assetIds": []
    },
    {
      "x": 233,
      "y": 337,
      "size": 1,
      "price": "1011000000000000000000",
      "reserved": "",
      "salt": "0x40f269b6b7557efdfca7b44b64f3edc083a7b8daa910f5c7e14bad7855f03629",
      "assetIds": []
    },
    {
      "x": 233,
      "y": 338,
      "size": 1,
      "price": "1011000000000000000000",
      "reserved": "",
      "salt": "0xd2f2fdb9b4cfdde5fc1b232671c91c7b06bb3fa4ca403bfaa461ea4361bf5748",
      "assetIds": []
    },
    {
      "x": 233,
      "y": 339,
      "size": 1,
      "price": "1011000000000000000000",
      "reserved": "",
      "salt": "0x8adc62d5ea115202325898a3db6fb9c5b41bc20970e46a92990526d24d6e27d2",
      "assetIds": []
    },
    {
      "x": 233,
      "y": 340,
      "size": 1,
      "price": "1011000000000000000000",
      "reserved": "0x7a9fe22691c811ea339d9b73150e6911a5343dca",
      "salt": "0xaf51faa4b715c6b0fa1919ba2c26fffb0a1f2bfe9ff5f6ba1cc8feffbc9f5215",
      "assetIds": []
    },
    {
      "x": 233,
      "y": 341,
      "size": 1,
      "price": "1011000000000000000000",
      "reserved": "0x7a9fe22691c811ea339d9b73150e6911a5343dca",
      "salt": "0xfff36b2b07ba9c49e07c472c31762540c0ee0b8f3f5234468729fe815d74ec17",
      "assetIds": []
    },
    {
      "x": 233,
      "y": 348,
      "size": 1,
      "price": "1011000000000000000000",
      "reserved": "",
      "salt": "0x84f0be04ea2b99e4bac687cc9e9d14c14d94a41348c159d81c74c71fa39a0482",
      "assetIds": []
    },
    {
      "x": 233,
      "y": 349,
      "size": 1,
      "price": "1011000000000000000000",
      "reserved": "",
      "salt": "0x04ebcbee7fc87236fe36ec98a8dbab8335412e0244c9dc16ec22a29eb8897be2",
      "assetIds": []
    },
    {
      "x": 233,
      "y": 350,
      "size": 1,
      "price": "1011000000000000000000",
      "reserved": "",
      "salt": "0x6a3e4432431b8f0160b8419b1cf0e4bfab56664900e5131135b8a51519db772b",
      "assetIds": []
    },
    {
      "x": 233,
      "y": 351,
      "size": 1,
      "price": "1011000000000000000000",
      "reserved": "",
      "salt": "0xf2d99090a2ceaccd6c62b2a3970861f2b3dfb6b713543daa536cad8d7125c77f",
      "assetIds": []
    },
    {
      "x": 233,
      "y": 352,
      "size": 1,
      "price": "1011000000000000000000",
      "reserved": "",
      "salt": "0x105745993157282696633ed6249860a62fea727eb0a7d805b460f72536ad3b45",
      "assetIds": []
    },
    {
      "x": 233,
      "y": 353,
      "size": 1,
      "price": "1011000000000000000000",
      "reserved": "",
      "salt": "0x9087809c9b0b8e254f28feab5ca99290d7898397ca3475a22a2e9ea7c211498f",
      "assetIds": []
    },
    {
      "x": 233,
      "y": 354,
      "size": 1,
      "price": "1011000000000000000000",
      "reserved": "",
      "salt": "0x818a4d293f24ba2677394f8a093c88b26c3904e85bbb7954db15e65a6514c55f",
      "assetIds": []
    },
    {
      "x": 233,
      "y": 355,
      "size": 1,
      "price": "4683000000000000000000",
      "reserved": "",
      "salt": "0xbe06c1e8c0ab0c1bb1fdda1f76898fe827aa69f919f42e48f5115f7a9fb190c0",
      "assetIds": [
        "41506478881403507969696680653240014914910929820314476107906210059990541021186"
      ]
    },
    {
      "x": 233,
      "y": 356,
      "size": 1,
      "price": "4683000000000000000000",
      "reserved": "",
      "salt": "0x82b16a92e4d08cf6135c9cff0b4c9980018d3a56d88812d0f3622c61b827fb86",
      "assetIds": [
        "41506478881403507969696680653240014914910929820314476107906210059990541021186"
      ]
    },
    {
      "x": 233,
      "y": 357,
      "size": 1,
      "price": "1011000000000000000000",
      "reserved": "",
      "salt": "0x7eb8d226993143b758bfcfd42248753b7e129bba238ce4df898523cf086e93e8",
      "assetIds": []
    },
    {
      "x": 233,
      "y": 358,
      "size": 1,
      "price": "1011000000000000000000",
      "reserved": "",
      "salt": "0x067fc7150fec0ca2b5f39c371acf488fa3bdc468c503360af81b595505a20eeb",
      "assetIds": []
    },
    {
      "x": 234,
      "y": 336,
      "size": 1,
      "price": "1011000000000000000000",
      "reserved": "",
      "salt": "0x549a892ca9642a8a86a9efc14bfa00e7d7c5720b40ead65ef9e41f019842d8d9",
      "assetIds": []
    },
    {
      "x": 234,
      "y": 337,
      "size": 1,
      "price": "1011000000000000000000",
      "reserved": "",
      "salt": "0x09b9155e386764a80c407d934f94bace569cd8937f31d694faee5b528b1e5c5e",
      "assetIds": []
    },
    {
      "x": 234,
      "y": 338,
      "size": 1,
      "price": "1011000000000000000000",
      "reserved": "0x7a9fe22691c811ea339d9b73150e6911a5343dca",
      "salt": "0x3f990502872628fa4af795c2acbadb50b2b38e87ce5f41abb072ad88bebfe015",
      "assetIds": []
    },
    {
      "x": 234,
      "y": 339,
      "size": 1,
      "price": "1011000000000000000000",
      "reserved": "",
      "salt": "0x3c150f82d2d4a42fad29b4053a5011a740b66620762d62dcc7d703ffd5ed6039",
      "assetIds": []
    },
    {
      "x": 234,
      "y": 340,
      "size": 1,
      "price": "1011000000000000000000",
      "reserved": "0x7a9fe22691c811ea339d9b73150e6911a5343dca",
      "salt": "0x6bb9a941b14310f9c0c7af311c0b6a1e25c02a36961c104bcf4e82d8b207673d",
      "assetIds": []
    },
    {
      "x": 234,
      "y": 341,
      "size": 1,
      "price": "4683000000000000000000",
      "reserved": "",
      "salt": "0x1257e7fbad38a6c82b97b1a3953583267cacca2ac47efab1093e1cfc16813b3e",
      "assetIds": [
        "41506478881403507969696680653240014914910929820314476107906210059990541021186"
      ]
    },
    {
      "x": 234,
      "y": 342,
      "size": 1,
      "price": "4683000000000000000000",
      "reserved": "",
      "salt": "0x5b6d3652ca2db94114b63c75c895694f3f3f09cf9ba7310a23562527203369f6",
      "assetIds": [
        "41506478881403507969696680653240014914910929820314476107906210059990541021186"
      ]
    },
    {
      "x": 234,
      "y": 343,
      "size": 1,
      "price": "4683000000000000000000",
      "reserved": "",
      "salt": "0xbaf157c22610a610473f99d29e077e0b77a0dcb5196bde885fdf70605553dc7c",
      "assetIds": [
        "41506478881403507969696680653240014914910929820314476107906210059990541021186"
      ]
    },
    {
      "x": 234,
      "y": 344,
      "size": 1,
      "price": "1011000000000000000000",
      "reserved": "0x7a9fe22691c811ea339d9b73150e6911a5343dca",
      "salt": "0x58199800b96d96dd1ba2f7ca19aa276f6b124dee0488cc55d59ee80e4db571d9",
      "assetIds": []
    },
    {
      "x": 234,
      "y": 345,
      "size": 1,
      "price": "4683000000000000000000",
      "reserved": "",
      "salt": "0x4269ef77c2827126c8346bf673e6edb40980abc1ec41dd7303a71d2c3e13bdb2",
      "assetIds": [
        "41506478881403507969696680653240014914910929820314476107906210059990541021186"
      ]
    },
    {
      "x": 234,
      "y": 346,
      "size": 1,
      "price": "4683000000000000000000",
      "reserved": "",
      "salt": "0x6876b3dc9ea917f0e5f478162e79587841af7ba2bf0bd7c3242db89d323ee6de",
      "assetIds": [
        "41506478881403507969696680653240014914910929820314476107906210059990541021186"
      ]
    },
    {
      "x": 234,
      "y": 347,
      "size": 1,
      "price": "4683000000000000000000",
      "reserved": "",
      "salt": "0x9fe6bd8e23ac87396d4674afe8e07e7c8b5b8882791b301859ad00df1e25570d",
      "assetIds": [
        "41506478881403507969696680653240014914910929820314476107906210059990541021186"
      ]
    },
    {
      "x": 234,
      "y": 348,
      "size": 1,
      "price": "1011000000000000000000",
      "reserved": "",
      "salt": "0x0727b4fd19674c260c62ed4738c5ed25c69651e9f31991ca5f28f24fca354d7f",
      "assetIds": []
    },
    {
      "x": 234,
      "y": 349,
      "size": 1,
      "price": "1011000000000000000000",
      "reserved": "",
      "salt": "0xb86bf4965ddc1c0f37cfda11a154c175481f875d46cbd6cbd7a1e628e49e01cc",
      "assetIds": []
    },
    {
      "x": 234,
      "y": 350,
      "size": 1,
      "price": "1011000000000000000000",
      "reserved": "0x7a9fe22691c811ea339d9b73150e6911a5343dca",
      "salt": "0x7652cc79ca332240f6b7060d5f5857e17629b51dbd973c42326551217b587d37",
      "assetIds": []
    },
    {
      "x": 234,
      "y": 351,
      "size": 1,
      "price": "1011000000000000000000",
      "reserved": "0x7a9fe22691c811ea339d9b73150e6911a5343dca",
      "salt": "0x435c7bd3087a98ba63f137ba91e9589cc2f7720abbcd3effdb73611405689f67",
      "assetIds": []
    },
    {
      "x": 234,
      "y": 352,
      "size": 1,
      "price": "1011000000000000000000",
      "reserved": "0x7a9fe22691c811ea339d9b73150e6911a5343dca",
      "salt": "0xcf0f0453bd7b6372ef700d3b5a54121b1465dadaa8fb49313dc326ab548267a0",
      "assetIds": []
    },
    {
      "x": 234,
      "y": 353,
      "size": 1,
      "price": "1011000000000000000000",
      "reserved": "",
      "salt": "0x586663793c6d5a85eeec58f8667e9fdc0bfd8a75fbe3f1901dde1cf43cc8adee",
      "assetIds": []
    },
    {
      "x": 234,
      "y": 354,
      "size": 1,
      "price": "4683000000000000000000",
      "reserved": "",
      "salt": "0x52343418c3a94628ea1d115a93a82fb1f14347829a94b57d6c8a869307b4a167",
      "assetIds": [
        "41506478881403507969696680653240014914910929820314476107906210059990541021186"
      ]
    },
    {
      "x": 234,
      "y": 355,
      "size": 1,
      "price": "4683000000000000000000",
      "reserved": "",
      "salt": "0xa8acc5fcc2178626db5cf1728c3e4354c53c3dfb58b824b560751adb2e48520e",
      "assetIds": [
        "41506478881403507969696680653240014914910929820314476107906210059990541021186"
      ]
    },
    {
      "x": 234,
      "y": 356,
      "size": 1,
      "price": "4683000000000000000000",
      "reserved": "",
      "salt": "0x92ec6824a3fe41affe5b97cd534248f44967efca49d73c0d1998b41fa1c2ad16",
      "assetIds": [
        "41506478881403507969696680653240014914910929820314476107906210059990541021186"
      ]
    },
    {
      "x": 234,
      "y": 357,
      "size": 1,
      "price": "1011000000000000000000",
      "reserved": "",
      "salt": "0x29e02820eaef7e76f15401ef6f419c9757d83a4b9f0ecfc639a1dd6435a2baab",
      "assetIds": []
    },
    {
      "x": 234,
      "y": 358,
      "size": 1,
      "price": "1011000000000000000000",
      "reserved": "",
      "salt": "0xc7e26f3e571eef4976b062ea4ef03ef6eb3b67502efa0f82355a2f1e03fe3f63",
      "assetIds": []
    },
    {
      "x": 235,
      "y": 336,
      "size": 1,
      "price": "1011000000000000000000",
      "reserved": "0x7a9fe22691c811ea339d9b73150e6911a5343dca",
      "salt": "0x22d89b4e4699fb1ceeff723055e713086683c291768c6f897b4b930632cf42a2",
      "assetIds": []
    },
    {
      "x": 235,
      "y": 337,
      "size": 1,
      "price": "1011000000000000000000",
      "reserved": "",
      "salt": "0xdd7e2857e61c2ccc84bea3b74f8f66b97da7e400d8a26a4b8443f6d667821f0f",
      "assetIds": []
    },
    {
      "x": 235,
      "y": 338,
      "size": 1,
      "price": "1011000000000000000000",
      "reserved": "",
      "salt": "0x76f1bbf1d3a4876abf7b1bc2db5e7af8c4d12ebc75aea57698c5fd714c63d19a",
      "assetIds": []
    },
    {
      "x": 235,
      "y": 339,
      "size": 1,
      "price": "1011000000000000000000",
      "reserved": "",
      "salt": "0xbde33dc1aac60085e5440b82dc13e0817c77f7f894da507b17e8783a5cdfe4dd",
      "assetIds": []
    },
    {
      "x": 235,
      "y": 340,
      "size": 1,
      "price": "4683000000000000000000",
      "reserved": "",
      "salt": "0xda3813327eabfc6638149a5b42a71098d6a6cdb8bfe65f5de2030ba60b8bc21c",
      "assetIds": [
        "41506478881403507969696680653240014914910929820314476107906210059990541021186"
      ]
    },
    {
      "x": 235,
      "y": 341,
      "size": 1,
      "price": "1011000000000000000000",
      "reserved": "",
      "salt": "0x0174522be77e6f421b5572fc481ff96a51de1be68b0f251f05af4d1ee6d1c4f2",
      "assetIds": []
    },
    {
      "x": 235,
      "y": 342,
      "size": 1,
      "price": "1011000000000000000000",
      "reserved": "",
      "salt": "0x0007b052f59cbc34196eee537fe287f70cd62562c1d4703328a145ae5df9bdb6",
      "assetIds": []
    },
    {
      "x": 235,
      "y": 343,
      "size": 1,
      "price": "1011000000000000000000",
      "reserved": "",
      "salt": "0x3891c2e11cd1faf18a99c408f9c8f2648235d855d791c52361ae91bae2751fd2",
      "assetIds": []
    },
    {
      "x": 235,
      "y": 344,
      "size": 1,
      "price": "4683000000000000000000",
      "reserved": "",
      "salt": "0xfd1e5c8389f862688f9ae05f42f294a7ee3a13098fa31fcb65926fe47e34b522",
      "assetIds": [
        "41506478881403507969696680653240014914910929820314476107906210059990541021186"
      ]
    },
    {
      "x": 235,
      "y": 345,
      "size": 1,
      "price": "4683000000000000000000",
      "reserved": "",
      "salt": "0xe88597e2e361eb3591823d14cad2372044e23bfcc743281377ebcbe43be7bdab",
      "assetIds": [
        "41506478881403507969696680653240014914910929820314476107906210059990541021186"
      ]
    },
    {
      "x": 235,
      "y": 346,
      "size": 1,
      "price": "1011000000000000000000",
      "reserved": "",
      "salt": "0x775a93c6611dde841c05abc93e1b0ca88fc8b64a1a73ca364744200c59aa997e",
      "assetIds": []
    },
    {
      "x": 235,
      "y": 347,
      "size": 1,
      "price": "4683000000000000000000",
      "reserved": "",
      "salt": "0x3fad1014e3b369f593534e29b53445659a48b455770222b57796f14dbf470238",
      "assetIds": [
        "41506478881403507969696680653240014914910929820314476107906210059990541021186"
      ]
    },
    {
      "x": 235,
      "y": 348,
      "size": 1,
      "price": "4683000000000000000000",
      "reserved": "",
      "salt": "0x1fa3db928bab5ace44a90f4aadbabcd41e55cf7e827022e3fd1e03e87d39f5b7",
      "assetIds": [
        "41506478881403507969696680653240014914910929820314476107906210059990541021186"
      ]
    },
    {
      "x": 235,
      "y": 349,
      "size": 1,
      "price": "4683000000000000000000",
      "reserved": "",
      "salt": "0xb3dfc4d90b57aa9b5e6a7ea7dd6508e37865c28666da6309520b1010af5a3799",
      "assetIds": [
        "41506478881403507969696680653240014914910929820314476107906210059990541021186"
      ]
    },
    {
      "x": 235,
      "y": 350,
      "size": 1,
      "price": "1011000000000000000000",
      "reserved": "",
      "salt": "0x094bd80aef219531dcf5d8b04f8788dee1c7db76492ab63daff1734c5aff2f11",
      "assetIds": []
    },
    {
      "x": 235,
      "y": 351,
      "size": 1,
      "price": "1011000000000000000000",
      "reserved": "",
      "salt": "0x9791cc527633810a49b8f20f74cec45c207376d47865317aaf7dbf871c1b8e58",
      "assetIds": []
    },
    {
      "x": 235,
      "y": 352,
      "size": 1,
      "price": "1011000000000000000000",
      "reserved": "",
      "salt": "0x0fcbb2694470945995fed3f239637598f53a8303b62816976304ab782b5222a7",
      "assetIds": []
    },
    {
      "x": 235,
      "y": 353,
      "size": 1,
      "price": "4683000000000000000000",
      "reserved": "",
      "salt": "0xc5da53f5dcc5edefaf09ed3020233cb83d90d7c9afd15058c8a1367d6ce9ae0e",
      "assetIds": [
        "41506478881403507969696680653240014914910929820314476107906210059990541021186"
      ]
    },
    {
      "x": 235,
      "y": 354,
      "size": 1,
      "price": "1011000000000000000000",
      "reserved": "0x7a9fe22691c811ea339d9b73150e6911a5343dca",
      "salt": "0xe4e49b5aad5ce0d65bfbc048f41346f76302cb3e34db677c731aae5e407322ad",
      "assetIds": []
    },
    {
      "x": 235,
      "y": 355,
      "size": 1,
      "price": "4683000000000000000000",
      "reserved": "",
      "salt": "0x05190d74919d5c3f2fa371e653039edb4520abc6466a2decc0ccb918a4c8c120",
      "assetIds": [
        "41506478881403507969696680653240014914910929820314476107906210059990541021186"
      ]
    },
    {
      "x": 235,
      "y": 356,
      "size": 1,
      "price": "4683000000000000000000",
      "reserved": "",
      "salt": "0x122d967c5dbe203d02437df967481193417f510121ae36582939e5e66a72ddf1",
      "assetIds": [
        "41506478881403507969696680653240014914910929820314476107906210059990541021186"
      ]
    },
    {
      "x": 235,
      "y": 357,
      "size": 1,
      "price": "1011000000000000000000",
      "reserved": "",
      "salt": "0x3067690c27a14d2dd0e9f8c830c2853aca48a3c0a09dc40699e11e562bc9a561",
      "assetIds": []
    },
    {
      "x": 236,
      "y": 336,
      "size": 1,
      "price": "1011000000000000000000",
      "reserved": "",
      "salt": "0xd60e5031e4debc1f61d40a764bdff386796d86f82c0eaba347197b4e7fb6afe7",
      "assetIds": []
    },
    {
      "x": 236,
      "y": 337,
      "size": 1,
      "price": "1011000000000000000000",
      "reserved": "",
      "salt": "0xf5a95c457146f3c9f3fbe977e6801889cf603b48d19d7a68668c5f2677f2ed57",
      "assetIds": []
    },
    {
      "x": 236,
      "y": 338,
      "size": 1,
      "price": "1011000000000000000000",
      "reserved": "0x7a9fe22691c811ea339d9b73150e6911a5343dca",
      "salt": "0xc8eb4c8facef508b303a890b999338c9a613a9ad5e92a045e2bf81adac930a26",
      "assetIds": []
    },
    {
      "x": 236,
      "y": 339,
      "size": 1,
      "price": "4683000000000000000000",
      "reserved": "",
      "salt": "0x08e9f0f2ffcdc70f0116151fe7d0110a1662ca29a72ec7787f9e30d0316754c3",
      "assetIds": [
        "41506478881403507969696680653240014914910929820314476107906210059990541021186"
      ]
    },
    {
      "x": 236,
      "y": 340,
      "size": 1,
      "price": "1011000000000000000000",
      "reserved": "0x7a9fe22691c811ea339d9b73150e6911a5343dca",
      "salt": "0x5d81625dc6b7cab942dfed909ab742ebe007daa8ddf07c99f7fb4166554073eb",
      "assetIds": []
    },
    {
      "x": 236,
      "y": 341,
      "size": 1,
      "price": "1011000000000000000000",
      "reserved": "",
      "salt": "0xafe5ae2ef0edf7428bde506c028580f8f67771b17d778f48d46039b41b4eaa85",
      "assetIds": []
    },
    {
      "x": 236,
      "y": 342,
      "size": 1,
      "price": "1011000000000000000000",
      "reserved": "",
      "salt": "0x73c396e840bdae6b4280508bfa8bb37e4bb1dcafd76302c07781f8b38f79a632",
      "assetIds": []
    },
    {
      "x": 236,
      "y": 343,
      "size": 1,
      "price": "1011000000000000000000",
      "reserved": "",
      "salt": "0xb3a8b9f09c8430f4eb5245e39cb50b6ecce6d5a91e1e56babdb805bb8a4f4ccf",
      "assetIds": []
    },
    {
      "x": 236,
      "y": 344,
      "size": 1,
      "price": "4683000000000000000000",
      "reserved": "",
      "salt": "0xe2ac7554c40a92f095c81d9c624a7db19a2c603d5d0cee911f435ebf002dffa1",
      "assetIds": [
        "41506478881403507969696680653240014914910929820314476107906210059990541021186"
      ]
    },
    {
      "x": 236,
      "y": 345,
      "size": 1,
      "price": "4683000000000000000000",
      "reserved": "",
      "salt": "0xd6254a1312b2a4ae974fae1df267228fa0e6b5e78d47504d49fa8e7401258c3c",
      "assetIds": [
        "41506478881403507969696680653240014914910929820314476107906210059990541021186"
      ]
    },
    {
      "x": 236,
      "y": 346,
      "size": 1,
      "price": "1011000000000000000000",
      "reserved": "",
      "salt": "0x641bfcb89058ce771f81ec15774097f00049bdc28e9a1b12be19c2241f3fe83a",
      "assetIds": []
    },
    {
      "x": 236,
      "y": 347,
      "size": 1,
      "price": "4683000000000000000000",
      "reserved": "",
      "salt": "0x0ad5f0eb3b8dd72055edefecde878190b94c45033cccc8ed330a802372df5d35",
      "assetIds": [
        "41506478881403507969696680653240014914910929820314476107906210059990541021186"
      ]
    },
    {
      "x": 236,
      "y": 348,
      "size": 1,
      "price": "1011000000000000000000",
      "reserved": "0x7a9fe22691c811ea339d9b73150e6911a5343dca",
      "salt": "0x0d08638b3c5169196aca8fab7cb767b281cde535add713bc72442b4c9b7fd4ee",
      "assetIds": []
    },
    {
      "x": 236,
      "y": 349,
      "size": 1,
      "price": "4683000000000000000000",
      "reserved": "",
      "salt": "0x94d31250697d33ab83e33991ce6033ffa578c5e11958289c2c1e9e3b1cb50565",
      "assetIds": [
        "41506478881403507969696680653240014914910929820314476107906210059990541021186"
      ]
    },
    {
      "x": 236,
      "y": 350,
      "size": 1,
      "price": "1011000000000000000000",
      "reserved": "0x7a9fe22691c811ea339d9b73150e6911a5343dca",
      "salt": "0xfab28caddfdc65aae1a7e96e798104f7253f468bd63acd071df66a173df78371",
      "assetIds": []
    },
    {
      "x": 236,
      "y": 351,
      "size": 1,
      "price": "4683000000000000000000",
      "reserved": "",
      "salt": "0x3c6c502c8febc6bf8b549007f189681655fbb8a2103dd6982776b4acae4fb623",
      "assetIds": [
        "41506478881403507969696680653240014914910929820314476107906210059990541021186"
      ]
    },
    {
      "x": 236,
      "y": 352,
      "size": 1,
      "price": "4683000000000000000000",
      "reserved": "",
      "salt": "0xf943cf9e861c245928eaf142b222035194d1c77bc1e5e9fbc1f3f7cdf717aff4",
      "assetIds": [
        "41506478881403507969696680653240014914910929820314476107906210059990541021186"
      ]
    },
    {
      "x": 236,
      "y": 353,
      "size": 1,
      "price": "1011000000000000000000",
      "reserved": "0x7a9fe22691c811ea339d9b73150e6911a5343dca",
      "salt": "0xa9c96abf5c3fea2579cb69bc740752c8968d7651226d2c5e2e99e69c58d16c57",
      "assetIds": []
    },
    {
      "x": 236,
      "y": 354,
      "size": 1,
      "price": "1011000000000000000000",
      "reserved": "0x7a9fe22691c811ea339d9b73150e6911a5343dca",
      "salt": "0x1aa9e90c843475923df0b5ac0fc4fbcb6a2c4b4c336da946556170708b50b5e5",
      "assetIds": []
    },
    {
      "x": 236,
      "y": 355,
      "size": 1,
      "price": "4683000000000000000000",
      "reserved": "",
      "salt": "0x4a0f7b6f98aa905ea6d51777ec4879a920945066e588099dfd216a3929cd517b",
      "assetIds": [
        "41506478881403507969696680653240014914910929820314476107906210059990541021186"
      ]
    },
    {
      "x": 236,
      "y": 356,
      "size": 1,
      "price": "4683000000000000000000",
      "reserved": "",
      "salt": "0xf408dcc4dec169447c92bde4ea0f997ffb7bef3f37a075a1852cac708c637966",
      "assetIds": [
        "41506478881403507969696680653240014914910929820314476107906210059990541021186"
      ]
    },
    {
      "x": 236,
      "y": 357,
      "size": 1,
      "price": "1011000000000000000000",
      "reserved": "",
      "salt": "0xedbb8c9391a75c0a6dab837e17b1f882013532d5bf0e58d58c4a06074a33acd5",
      "assetIds": []
    },
    {
      "x": 237,
      "y": 339,
      "size": 1,
      "price": "4683000000000000000000",
      "reserved": "",
      "salt": "0x4efa5e074e5862d00dfcf5929e77b3f59ed05ddab2b6bf3dedf5fc3881cb9813",
      "assetIds": [
        "41506478881403507969696680653240014914910929820314476107906210059990541021186"
      ]
    },
    {
      "x": 237,
      "y": 340,
      "size": 1,
      "price": "4683000000000000000000",
      "reserved": "",
      "salt": "0xadcc5ec0a9674ea51bcae0ac56345bc3e408c35deb623881469e9fddb3db1481",
      "assetIds": [
        "41506478881403507969696680653240014914910929820314476107906210059990541021186"
      ]
    },
    {
      "x": 237,
      "y": 341,
      "size": 1,
      "price": "4683000000000000000000",
      "reserved": "",
      "salt": "0x26425195b73a48b93e3161b2682de70de83b55eded5ae2747550d1fcd88344fb",
      "assetIds": [
        "41506478881403507969696680653240014914910929820314476107906210059990541021186"
      ]
    },
    {
      "x": 237,
      "y": 342,
      "size": 1,
      "price": "1011000000000000000000",
      "reserved": "0x7a9fe22691c811ea339d9b73150e6911a5343dca",
      "salt": "0xb164bd3e6977aa07d2251b77b62831a948fc80d0d9f8fbd4b0f3b088606d477c",
      "assetIds": []
    },
    {
      "x": 237,
      "y": 343,
      "size": 1,
      "price": "1011000000000000000000",
      "reserved": "",
      "salt": "0x07fdfac26be396cf33658707a378e5666d6d14f43426ad528dbeec5d8ad67063",
      "assetIds": []
    },
    {
      "x": 237,
      "y": 344,
      "size": 1,
      "price": "4683000000000000000000",
      "reserved": "",
      "salt": "0x782de9a7393888369f3c29602a02b2e5a9cbb0ede85b30583f39d622b5c49f45",
      "assetIds": [
        "41506478881403507969696680653240014914910929820314476107906210059990541021186"
      ]
    },
    {
      "x": 237,
      "y": 345,
      "size": 1,
      "price": "4683000000000000000000",
      "reserved": "",
      "salt": "0x82afe72f036966a8cdd36057a83c0da7dfa53b98feb5c47f7db67260e042ca85",
      "assetIds": [
        "41506478881403507969696680653240014914910929820314476107906210059990541021186"
      ]
    },
    {
      "x": 237,
      "y": 346,
      "size": 1,
      "price": "4683000000000000000000",
      "reserved": "",
      "salt": "0x38af5b5f0a95256ec2806708864fed4d0181c79cb184e9ec3bf5ea466da4b349",
      "assetIds": [
        "41506478881403507969696680653240014914910929820314476107906210059990541021186"
      ]
    },
    {
      "x": 237,
      "y": 347,
      "size": 1,
      "price": "1011000000000000000000",
      "reserved": "0x7a9fe22691c811ea339d9b73150e6911a5343dca",
      "salt": "0xaebddd35067eeae23143be1db269b97c6d8cf6927b401def0a8e9c5be153fcff",
      "assetIds": []
    },
    {
      "x": 237,
      "y": 348,
      "size": 1,
      "price": "4683000000000000000000",
      "reserved": "",
      "salt": "0x775948d693f38db13a8bf916abbb4be72919f8151a912bb221d60c5d5c330c4d",
      "assetIds": [
        "41506478881403507969696680653240014914910929820314476107906210059990541021186"
      ]
    },
    {
      "x": 237,
      "y": 349,
      "size": 1,
      "price": "4683000000000000000000",
      "reserved": "",
      "salt": "0xefb03f410e7ef22a04b28f5e76ca2ab2d0befcf8ae1416e34fb434fc24859d59",
      "assetIds": [
        "41506478881403507969696680653240014914910929820314476107906210059990541021186"
      ]
    },
    {
      "x": 237,
      "y": 350,
      "size": 1,
      "price": "4683000000000000000000",
      "reserved": "",
      "salt": "0xeaf5ba360a17e41b7bc7e980a485e54b935502d1c84797be3aaf4f6609de6a0f",
      "assetIds": [
        "41506478881403507969696680653240014914910929820314476107906210059990541021186"
      ]
    },
    {
      "x": 237,
      "y": 354,
      "size": 1,
      "price": "4683000000000000000000",
      "reserved": "",
      "salt": "0x7edb389ec843d0f8808fd41156c72e4dc7fb5b943281a42a0688fe64b87ad503",
      "assetIds": [
        "41506478881403507969696680653240014914910929820314476107906210059990541021186"
      ]
    },
    {
      "x": 237,
      "y": 355,
      "size": 1,
      "price": "4683000000000000000000",
      "reserved": "",
      "salt": "0xbe3509a77e88bb90b86e184a246c70fed1fde6e00045d435678b69b454cfd231",
      "assetIds": [
        "41506478881403507969696680653240014914910929820314476107906210059990541021186"
      ]
    },
    {
      "x": 237,
      "y": 356,
      "size": 1,
      "price": "1011000000000000000000",
      "reserved": "0x7a9fe22691c811ea339d9b73150e6911a5343dca",
      "salt": "0x8d1a2fa636b609a16fd6c05efbcb38d8210017b7f57e808f9ece0494a32c644c",
      "assetIds": []
    },
    {
      "x": 237,
      "y": 357,
      "size": 1,
      "price": "1011000000000000000000",
      "reserved": "",
      "salt": "0x70d4aa0e7883b81059d3d9608c9202f9fd76db6b5f615abace4fb55616a87cde",
      "assetIds": []
    },
    {
      "x": 238,
      "y": 339,
      "size": 1,
      "price": "4683000000000000000000",
      "reserved": "",
      "salt": "0xd64f49a3cd618b7f642cae324288644dbc47405dc8083aa8f5bfebfd1afcf77b",
      "assetIds": [
        "41506478881403507969696680653240014914910929820314476107906210059990541021186"
      ]
    },
    {
      "x": 238,
      "y": 340,
      "size": 1,
      "price": "4683000000000000000000",
      "reserved": "",
      "salt": "0x910896d236d4f07fcc42e15283463ea93c38c766ffe53565ebfe882d325deaa7",
      "assetIds": [
        "41506478881403507969696680653240014914910929820314476107906210059990541021186"
      ]
    },
    {
      "x": 238,
      "y": 341,
      "size": 1,
      "price": "4683000000000000000000",
      "reserved": "",
      "salt": "0x9ae3ce3eb17466cf37bab3640384da4a280dd8de9ac84ac754f6f675b841c25e",
      "assetIds": [
        "41506478881403507969696680653240014914910929820314476107906210059990541021186"
      ]
    },
    {
      "x": 238,
      "y": 342,
      "size": 1,
      "price": "4683000000000000000000",
      "reserved": "",
      "salt": "0x844e0ccfb56f46f461366886d2f64b5404f856e47410b9b1ecd45763cb420765",
      "assetIds": [
        "41506478881403507969696680653240014914910929820314476107906210059990541021186"
      ]
    },
    {
      "x": 238,
      "y": 343,
      "size": 1,
      "price": "4683000000000000000000",
      "reserved": "",
      "salt": "0xd6240f70c0d71c5a237961d659f98b9cf147227a67ea918fb175a93ca0b26dc7",
      "assetIds": [
        "41506478881403507969696680653240014914910929820314476107906210059990541021186"
      ]
    },
    {
      "x": 238,
      "y": 344,
      "size": 1,
      "price": "4683000000000000000000",
      "reserved": "",
      "salt": "0xd8462fb7d861ab981295fb780499dd13e8963dcd1dda9a7544e9c3dfb3d4a29c",
      "assetIds": [
        "41506478881403507969696680653240014914910929820314476107906210059990541021186"
      ]
    },
    {
      "x": 238,
      "y": 345,
      "size": 1,
      "price": "4683000000000000000000",
      "reserved": "",
      "salt": "0x628733d6fc0ed18ae426fd46f07293be7982882b9515ecec6fbf77100d513007",
      "assetIds": [
        "41506478881403507969696680653240014914910929820314476107906210059990541021186"
      ]
    },
    {
      "x": 238,
      "y": 346,
      "size": 1,
      "price": "4683000000000000000000",
      "reserved": "",
      "salt": "0xdf4fd42485b9bd154daa88c4325dfd70af71abf78d3a7e24b7297fdf18934c9a",
      "assetIds": [
        "41506478881403507969696680653240014914910929820314476107906210059990541021186"
      ]
    },
    {
      "x": 238,
      "y": 347,
      "size": 1,
      "price": "4683000000000000000000",
      "reserved": "",
      "salt": "0x11f6c20c24b52c1861181daec4508d47146df899b6d7d3620d4d7c19bad67f99",
      "assetIds": [
        "41506478881403507969696680653240014914910929820314476107906210059990541021186"
      ]
    },
    {
      "x": 238,
      "y": 348,
      "size": 1,
      "price": "4683000000000000000000",
      "reserved": "",
      "salt": "0x1d2798d0dea1252c918f53530b1e57fa0797534254567c239316acea35d1e515",
      "assetIds": [
        "41506478881403507969696680653240014914910929820314476107906210059990541021186"
      ]
    },
    {
      "x": 238,
      "y": 349,
      "size": 1,
      "price": "4683000000000000000000",
      "reserved": "",
      "salt": "0x4dfb8e7a64b46dd95097e617251a6f32836541c42d94d407c7652a57d683219f",
      "assetIds": [
        "41506478881403507969696680653240014914910929820314476107906210059990541021186"
      ]
    },
    {
      "x": 238,
      "y": 350,
      "size": 1,
      "price": "4683000000000000000000",
      "reserved": "",
      "salt": "0x02c48fcbd6e37d83cbe11810a8a0f599453e04da016b644ecbc52e9099dc40e5",
      "assetIds": [
        "41506478881403507969696680653240014914910929820314476107906210059990541021186"
      ]
    },
    {
      "x": 238,
      "y": 354,
      "size": 1,
      "price": "4683000000000000000000",
      "reserved": "",
      "salt": "0x6bf8c46821aa514c45e4075dc211d46ab704447d417d381a8d71b9d8b2f25230",
      "assetIds": [
        "41506478881403507969696680653240014914910929820314476107906210059990541021186"
      ]
    },
    {
      "x": 238,
      "y": 355,
      "size": 1,
      "price": "1011000000000000000000",
      "reserved": "0x7a9fe22691c811ea339d9b73150e6911a5343dca",
      "salt": "0x6bfb4b6fcbb8a8c8ca8104080e947a9ece84e3c03dd1e59b1143043239c46f61",
      "assetIds": []
    },
    {
      "x": 238,
      "y": 356,
      "size": 1,
      "price": "4683000000000000000000",
      "reserved": "",
      "salt": "0x36e216bef096cd1554c40b67cee78051a244a9c1b00e4612373d47d7a4f7c5ab",
      "assetIds": [
        "41506478881403507969696680653240014914910929820314476107906210059990541021186"
      ]
    },
    {
      "x": 238,
      "y": 357,
      "size": 1,
      "price": "1011000000000000000000",
      "reserved": "0x7a9fe22691c811ea339d9b73150e6911a5343dca",
      "salt": "0x1272f42235665f403394c40d811644283526284d46553713c322f9d89cf4b0cd",
      "assetIds": []
    },
    {
      "x": 239,
      "y": 339,
      "size": 1,
      "price": "4683000000000000000000",
      "reserved": "",
      "salt": "0x62d01ceeb72f3a3d6a64ffb0c938e2e439b7fcca8fa6e04ecf668eabb0252b26",
      "assetIds": [
        "41506478881403507969696680653240014914910929820314476107906210059990541021186"
      ]
    },
    {
      "x": 239,
      "y": 340,
      "size": 1,
      "price": "1011000000000000000000",
      "reserved": "0x7a9fe22691c811ea339d9b73150e6911a5343dca",
      "salt": "0x109f8cba4b1ac2792e62407ccc4cc907a4a94a34d9f2ef53368a9cd033df49e4",
      "assetIds": []
    },
    {
      "x": 239,
      "y": 341,
      "size": 1,
      "price": "1011000000000000000000",
      "reserved": "0x7a9fe22691c811ea339d9b73150e6911a5343dca",
      "salt": "0x6c1e4f28df4cd4d5ac0a87846b9c895de069d31da080109f6ef26230c8e8acc5",
      "assetIds": []
    },
    {
      "x": 239,
      "y": 342,
      "size": 1,
      "price": "4683000000000000000000",
      "reserved": "",
      "salt": "0xe36638fabb368ce94e959b37141763cafff0161c0ff53f913765c0ce975c9e24",
      "assetIds": [
        "41506478881403507969696680653240014914910929820314476107906210059990541021186"
      ]
    },
    {
      "x": 239,
      "y": 343,
      "size": 1,
      "price": "4683000000000000000000",
      "reserved": "",
      "salt": "0xf20a1482851dd363fe735f7a0162ca37a0601de2fda9ccf4f1dfe84ca889d9b4",
      "assetIds": [
        "41506478881403507969696680653240014914910929820314476107906210059990541021186"
      ]
    },
    {
      "x": 239,
      "y": 344,
      "size": 1,
      "price": "4683000000000000000000",
      "reserved": "",
      "salt": "0x329b4eb42c7ed6aded8e8b457dd43b49c5fa3f9d39dd2926f4cace880b19d825",
      "assetIds": [
        "41506478881403507969696680653240014914910929820314476107906210059990541021186"
      ]
    },
    {
      "x": 239,
      "y": 345,
      "size": 1,
      "price": "4683000000000000000000",
      "reserved": "",
      "salt": "0x7f07be8007a847859d6a000cff4cec94754dd24a4116fd579b46ece788ec6453",
      "assetIds": [
        "41506478881403507969696680653240014914910929820314476107906210059990541021186"
      ]
    },
    {
      "x": 239,
      "y": 346,
      "size": 1,
      "price": "4683000000000000000000",
      "reserved": "",
      "salt": "0x9b1a1e7324abaaa05c90858c50d1c4601249a486bde10416c3a5b399879e46b8",
      "assetIds": [
        "41506478881403507969696680653240014914910929820314476107906210059990541021186"
      ]
    },
    {
      "x": 239,
      "y": 347,
      "size": 1,
      "price": "4683000000000000000000",
      "reserved": "",
      "salt": "0xab4b601e8bdf0a4d381607cb9fe07880f967d56e6155da5f79932b825e9bdb74",
      "assetIds": [
        "41506478881403507969696680653240014914910929820314476107906210059990541021186"
      ]
    },
    {
      "x": 239,
      "y": 348,
      "size": 1,
      "price": "4683000000000000000000",
      "reserved": "",
      "salt": "0xcb78ca780808bc34649abffbaf4f0d2432cc4897cacb296d06671328b7d6d9c4",
      "assetIds": [
        "41506478881403507969696680653240014914910929820314476107906210059990541021186"
      ]
    },
    {
      "x": 239,
      "y": 349,
      "size": 1,
      "price": "4683000000000000000000",
      "reserved": "",
      "salt": "0xbbc7f7415838533f882dd09fee3d4ccde39293e69189ef09034b7fbc2d09fa05",
      "assetIds": [
        "41506478881403507969696680653240014914910929820314476107906210059990541021186"
      ]
    },
    {
      "x": 239,
      "y": 350,
      "size": 1,
      "price": "4683000000000000000000",
      "reserved": "",
      "salt": "0x91c26c16000339e5202e4e688e847932653b4d1fd78b8ef8141564e82b42156e",
      "assetIds": [
        "41506478881403507969696680653240014914910929820314476107906210059990541021186"
      ]
    },
    {
      "x": 239,
      "y": 354,
      "size": 1,
      "price": "4683000000000000000000",
      "reserved": "",
      "salt": "0x1b94e9fb60836a92600a59ff3a3300e7019f82ca83176d8c11d29ee82a04a44d",
      "assetIds": [
        "41506478881403507969696680653240014914910929820314476107906210059990541021186"
      ]
    },
    {
      "x": 239,
      "y": 355,
      "size": 1,
      "price": "1011000000000000000000",
      "reserved": "0x7a9fe22691c811ea339d9b73150e6911a5343dca",
      "salt": "0xe35171bfc737d2a96fdd1d51e4e269f523060ad7cb223b3f85b79383f8940577",
      "assetIds": []
    },
    {
      "x": 239,
      "y": 356,
      "size": 1,
      "price": "4683000000000000000000",
      "reserved": "",
      "salt": "0xdd8a56a7098753d2980dbe2e7833352e898702c6b9b325be71738d103c38a7aa",
      "assetIds": [
        "41506478881403507969696680653240014914910929820314476107906210059990541021186"
      ]
    },
    {
      "x": 239,
      "y": 357,
      "size": 1,
      "price": "4683000000000000000000",
      "reserved": "",
      "salt": "0x5e1413af4532ae740ed800d34492c713095a7825a53b3adefad3200de8961d3d",
      "assetIds": [
        "41506478881403507969696680653240014914910929820314476107906210059990541021186"
      ]
    },
    {
      "x": 240,
      "y": 318,
      "size": 1,
      "price": "1011000000000000000000",
      "reserved": "",
      "salt": "0x7c3333c3d63ae5b9de0c066811b0c9d1145ccd0ff89ec842d86e4e923f6e6c17",
      "assetIds": []
    },
    {
      "x": 240,
      "y": 319,
      "size": 1,
      "price": "1011000000000000000000",
      "reserved": "",
      "salt": "0x32644ea95e45ca1a8903c1535bbb1a106ab2eaf4a5f7870b8206217deb2688ee",
      "assetIds": []
    },
    {
      "x": 240,
      "y": 320,
      "size": 1,
      "price": "1011000000000000000000",
      "reserved": "",
      "salt": "0x0139d8113d94f26a5fb018b2767c78cc3dc4fb033a3640cc909918ddbd125a35",
      "assetIds": []
    },
    {
      "x": 240,
      "y": 321,
      "size": 1,
      "price": "1011000000000000000000",
      "reserved": "",
      "salt": "0xaedc58075fc12684908db37baab242920f00128c6b1e11b2e3cc7eb88dc33c7e",
      "assetIds": []
    },
    {
      "x": 240,
      "y": 322,
      "size": 1,
      "price": "1011000000000000000000",
      "reserved": "",
      "salt": "0xd269129e15dfc6bb6e03a7240ee0fb457f107743155a3f85337d3b9efcfe04a3",
      "assetIds": []
    },
    {
      "x": 240,
      "y": 323,
      "size": 1,
      "price": "1011000000000000000000",
      "reserved": "",
      "salt": "0x8d7950b5d2228d945b70d2f1fa3060ccf0c65c039e9c8ff80c6b96ccbbca7b72",
      "assetIds": []
    },
    {
      "x": 240,
      "y": 324,
      "size": 1,
      "price": "1011000000000000000000",
      "reserved": "",
      "salt": "0xc9eb50e09e8499d3ddc1c4f645f69f6c9d32302c723613f4dbb839fd32c100d4",
      "assetIds": []
    },
    {
      "x": 240,
      "y": 325,
      "size": 1,
      "price": "1011000000000000000000",
      "reserved": "",
      "salt": "0x667cdfd39331ad21b2de41841c5b2a0bdb1e7660a737fc042e81616466a1ab0d",
      "assetIds": []
    },
    {
      "x": 240,
      "y": 326,
      "size": 1,
      "price": "4683000000000000000000",
      "reserved": "",
      "salt": "0x867e2364ca97190a69b5ed24dce5cc79395d410dd6c4292c04234ec6f8c603d8",
      "assetIds": [
        "41506478881403507969696680653240014914910929820314476107906210059990541021186"
      ]
    },
    {
      "x": 240,
      "y": 333,
      "size": 1,
      "price": "4683000000000000000000",
      "reserved": "",
      "salt": "0xb1a6af17268edba8a94b1b47767f2bec5c2f3c0be493f4671cdb43d79a7c287b",
      "assetIds": [
        "41506478881403507969696680653240014914910929820314476107906210059990541021186"
      ]
    },
    {
      "x": 240,
      "y": 334,
      "size": 1,
      "price": "4683000000000000000000",
      "reserved": "",
      "salt": "0x973d423e5e8e082b009da9a058ca9ae89492f3d3f85385d4d66c0781c06a6541",
      "assetIds": [
        "41506478881403507969696680653240014914910929820314476107906210059990541021186"
      ]
    },
    {
      "x": 240,
      "y": 335,
      "size": 1,
      "price": "4683000000000000000000",
      "reserved": "",
      "salt": "0x7fdf961de4ca2753991fa15c9d7c7b20d2bd1dbb14a4f9feabbd377e7cbbc056",
      "assetIds": [
        "41506478881403507969696680653240014914910929820314476107906210059990541021186"
      ]
    },
    {
      "x": 241,
      "y": 318,
      "size": 1,
      "price": "1011000000000000000000",
      "reserved": "",
      "salt": "0x02626611d4cc5065ff8aeb367846f708ee84c7f8233f1c59f1b01c3f65408944",
      "assetIds": []
    },
    {
      "x": 241,
      "y": 319,
      "size": 1,
      "price": "1011000000000000000000",
      "reserved": "",
      "salt": "0xd1bc956e355316b9455718eec23e91c2e07f99ed17dabf9415b94cd9a992eeb7",
      "assetIds": []
    },
    {
      "x": 241,
      "y": 320,
      "size": 1,
      "price": "1011000000000000000000",
      "reserved": "",
      "salt": "0x28910eda03c68b6f773cc9d988c3ddee9f2f35b5add3cd848a6381388d0b5683",
      "assetIds": []
    },
    {
      "x": 241,
      "y": 321,
      "size": 1,
      "price": "1011000000000000000000",
      "reserved": "0x7a9fe22691c811ea339d9b73150e6911a5343dca",
      "salt": "0xfbc16231dccdee4c8b7479ea6f7ec7c13c2f6ea43539be182df5807d39b770c2",
      "assetIds": []
    },
    {
      "x": 241,
      "y": 322,
      "size": 1,
      "price": "1011000000000000000000",
      "reserved": "",
      "salt": "0x1502a36a7975357927e1f0cb1bed5736030777726ff094f387aea183a83262c5",
      "assetIds": []
    },
    {
      "x": 241,
      "y": 323,
      "size": 1,
      "price": "1011000000000000000000",
      "reserved": "",
      "salt": "0x92b14875128a43e72eb018eedf6d9449f0194d65b912744f2e7aa796ea4a9e2e",
      "assetIds": []
    },
    {
      "x": 241,
      "y": 324,
      "size": 1,
      "price": "1011000000000000000000",
      "reserved": "",
      "salt": "0xaab69df2c78918070d6d4f5e64e3fef1be2840882a69c20322730e29c6c0d87e",
      "assetIds": []
    },
    {
      "x": 241,
      "y": 325,
      "size": 1,
      "price": "1011000000000000000000",
      "reserved": "",
      "salt": "0xb82fc2ef63d4b3f0705a946604d2906f6c682694d07d9839052fd7418f91fa93",
      "assetIds": []
    },
    {
      "x": 241,
      "y": 326,
      "size": 1,
      "price": "4683000000000000000000",
      "reserved": "",
      "salt": "0x0d8c2e7cbc63f34cfd21b7b904f9be952c3d4470649797fbef56a5d830e2e947",
      "assetIds": [
        "41506478881403507969696680653240014914910929820314476107906210059990541021186"
      ]
    },
    {
      "x": 241,
      "y": 333,
      "size": 1,
      "price": "4683000000000000000000",
      "reserved": "",
      "salt": "0x6eabc1cb965f10274d7b0c1c2e2b1c5c815d000b985098285386fbb75e81bb9c",
      "assetIds": [
        "41506478881403507969696680653240014914910929820314476107906210059990541021186"
      ]
    },
    {
      "x": 241,
      "y": 334,
      "size": 1,
      "price": "4683000000000000000000",
      "reserved": "",
      "salt": "0xd8954d82eaa4927dce382d05d92d3b4472a93c2205b9f45ef42ad7bdafda1570",
      "assetIds": [
        "41506478881403507969696680653240014914910929820314476107906210059990541021186"
      ]
    },
    {
      "x": 241,
      "y": 335,
      "size": 1,
      "price": "4683000000000000000000",
      "reserved": "",
      "salt": "0x998a4575105666b946a12172a2fc5d59c2acbdf01fcef97e150aaab8001c9af9",
      "assetIds": [
        "41506478881403507969696680653240014914910929820314476107906210059990541021186"
      ]
    },
    {
      "x": 242,
      "y": 318,
      "size": 1,
      "price": "1011000000000000000000",
      "reserved": "0x7a9fe22691c811ea339d9b73150e6911a5343dca",
      "salt": "0x31f747cc1a10a7b7414e69343bda5f751b8b82d45771132eb66f5cd87455a349",
      "assetIds": []
    },
    {
      "x": 242,
      "y": 319,
      "size": 1,
      "price": "1011000000000000000000",
      "reserved": "",
      "salt": "0x46acc332854dd6f16074392328e71319aaa6bffab15f69f53219122dfada46c7",
      "assetIds": []
    },
    {
      "x": 242,
      "y": 320,
      "size": 1,
      "price": "1011000000000000000000",
      "reserved": "",
      "salt": "0x528385a9ea06560ba93329cad6d1f8783e31a73a97a3d667d0b522d3698b8b82",
      "assetIds": []
    },
    {
      "x": 242,
      "y": 321,
      "size": 1,
      "price": "1011000000000000000000",
      "reserved": "",
      "salt": "0x692f9a940048b7a797ddf5c67d33c8fb449c72c5174bd1b5cea2fdee58415a51",
      "assetIds": []
    },
    {
      "x": 242,
      "y": 322,
      "size": 1,
      "price": "1011000000000000000000",
      "reserved": "",
      "salt": "0xd3064e52188404f933ca9e1af9012a943b4c71f437391338c2d1ae58315d9c9b",
      "assetIds": []
    },
    {
      "x": 242,
      "y": 323,
      "size": 1,
      "price": "1011000000000000000000",
      "reserved": "",
      "salt": "0xf6a127ad61082d52a4e25932b60d924e4c6bc7d84aff0c9a901c4201af69a457",
      "assetIds": []
    },
    {
      "x": 242,
      "y": 324,
      "size": 1,
      "price": "1011000000000000000000",
      "reserved": "",
      "salt": "0xb16f2dd06591e1281d853617bbee5b93cf482c8c9554404c218a2b1c14453182",
      "assetIds": []
    },
    {
      "x": 242,
      "y": 325,
      "size": 1,
      "price": "1011000000000000000000",
      "reserved": "0x7a9fe22691c811ea339d9b73150e6911a5343dca",
      "salt": "0x385cf77ce5c7b1a3bcac5234f7e01f308e7201b6ddb597ab64b9f9398b2580b9",
      "assetIds": []
    },
    {
      "x": 242,
      "y": 326,
      "size": 1,
      "price": "4683000000000000000000",
      "reserved": "",
      "salt": "0x20a2bfe72ac25275993e0247db4351e1991419925817ec31b3e5a458417dd795",
      "assetIds": [
        "41506478881403507969696680653240014914910929820314476107906210059990541021186"
      ]
    },
    {
      "x": 242,
      "y": 333,
      "size": 1,
      "price": "4683000000000000000000",
      "reserved": "",
      "salt": "0x9553e81bf5b25a307ea910940c19215aad184ad6ba410cb9c7fc601e889e7e71",
      "assetIds": [
        "41506478881403507969696680653240014914910929820314476107906210059990541021186"
      ]
    },
    {
      "x": 242,
      "y": 334,
      "size": 1,
      "price": "4683000000000000000000",
      "reserved": "",
      "salt": "0x2df3b1b53f6a05992982c0f18fb95efc22ac38a3932a1049f578ba9f67e10fc0",
      "assetIds": [
        "41506478881403507969696680653240014914910929820314476107906210059990541021186"
      ]
    },
    {
      "x": 242,
      "y": 335,
      "size": 1,
      "price": "4683000000000000000000",
      "reserved": "",
      "salt": "0x5a3d515296b64c630e802210025715618fa7514f483ab6b6dda2e2d54f85e7b6",
      "assetIds": [
        "41506478881403507969696680653240014914910929820314476107906210059990541021186"
      ]
    },
    {
      "x": 243,
      "y": 318,
      "size": 1,
      "price": "1011000000000000000000",
      "reserved": "0x7a9fe22691c811ea339d9b73150e6911a5343dca",
      "salt": "0x57d1deeeb7eea21a0f5c8a6ad259b2d95fb1948843d92e125d9ca2d8bc107680",
      "assetIds": []
    },
    {
      "x": 243,
      "y": 319,
      "size": 1,
      "price": "1011000000000000000000",
      "reserved": "",
      "salt": "0x59d14ff0a7b7ec0d0eec21c0ca5185a0fde4e9f7172017407308f23a3c104063",
      "assetIds": []
    },
    {
      "x": 243,
      "y": 320,
      "size": 1,
      "price": "1011000000000000000000",
      "reserved": "",
      "salt": "0xcb4ff41121875f3054c253585297fe613a21379ec913aa9e58e09e6b866f2eed",
      "assetIds": []
    },
    {
      "x": 243,
      "y": 321,
      "size": 1,
      "price": "1011000000000000000000",
      "reserved": "",
      "salt": "0x191148ae6c63cedb8a7495ee8c44cd6a67d10ca6268d6deaf68c160c90d0dfef",
      "assetIds": []
    },
    {
      "x": 243,
      "y": 322,
      "size": 1,
      "price": "1011000000000000000000",
      "reserved": "",
      "salt": "0xbb9f36aae8e31510799f1a909ae0881cad59fed81a610421624c0d912f0b233c",
      "assetIds": []
    },
    {
      "x": 243,
      "y": 323,
      "size": 1,
      "price": "1011000000000000000000",
      "reserved": "",
      "salt": "0x07b409fd9c76ec52503d1347f60f5d28678ded0f026460610e7176f9f5bc0eb4",
      "assetIds": []
    },
    {
      "x": 243,
      "y": 324,
      "size": 1,
      "price": "1011000000000000000000",
      "reserved": "0x7a9fe22691c811ea339d9b73150e6911a5343dca",
      "salt": "0xc0d90af7bf00087e8b31d3bb5757056a6e32e260c5fa28c2da66a9dbf3de7894",
      "assetIds": []
    },
    {
      "x": 243,
      "y": 325,
      "size": 1,
      "price": "1011000000000000000000",
      "reserved": "",
      "salt": "0xa4acff91a29ee3feea6526f621707a6069f3b4977e696bc4b14ee0554d90257b",
      "assetIds": []
    },
    {
      "x": 243,
      "y": 326,
      "size": 1,
      "price": "1011000000000000000000",
      "reserved": "",
      "salt": "0xe2e43533e0bb2cc9c6cda88c6080d5a241ce134f3ed26d109472305dbb29bf36",
      "assetIds": []
    },
    {
      "x": 243,
      "y": 327,
      "size": 1,
      "price": "4683000000000000000000",
      "reserved": "",
      "salt": "0x3ab2926ae7f2ec927fecff63698754916f8ba5b42136d1b8e39306636232a2ca",
      "assetIds": [
        "41506478881403507969696680653240014914910929820314476107906210059990541021186"
      ]
    },
    {
      "x": 243,
      "y": 328,
      "size": 1,
      "price": "4683000000000000000000",
      "reserved": "",
      "salt": "0x10d482af755302daceecdf22b2ecfbaba1ed0ff89ab9a8467b7c95a76f7f6d40",
      "assetIds": [
        "41506478881403507969696680653240014914910929820314476107906210059990541021186"
      ]
    },
    {
      "x": 243,
      "y": 329,
      "size": 1,
      "price": "4683000000000000000000",
      "reserved": "",
      "salt": "0x3974eb79235cf9cb9d5188ea4beb8e6e90dc471c0ceaae3092c0084f9c40f620",
      "assetIds": [
        "41506478881403507969696680653240014914910929820314476107906210059990541021186"
      ]
    },
    {
      "x": 243,
      "y": 330,
      "size": 1,
      "price": "4683000000000000000000",
      "reserved": "",
      "salt": "0x9add977d75680518aa8613919076d6bbd797322abee130d2dc938f70cfce4820",
      "assetIds": [
        "41506478881403507969696680653240014914910929820314476107906210059990541021186"
      ]
    },
    {
      "x": 243,
      "y": 331,
      "size": 1,
      "price": "4683000000000000000000",
      "reserved": "",
      "salt": "0x00e9fc6464239ac666cdfb06d10b072b99a7a1f0974f7b700a695d7aa0e9eed7",
      "assetIds": [
        "41506478881403507969696680653240014914910929820314476107906210059990541021186"
      ]
    },
    {
      "x": 243,
      "y": 332,
      "size": 1,
      "price": "4683000000000000000000",
      "reserved": "",
      "salt": "0xb0c3f4c03c0c3632ca4fe00f9bade6de32f8e2e060d0bda7ef90d725516f33aa",
      "assetIds": [
        "41506478881403507969696680653240014914910929820314476107906210059990541021186"
      ]
    },
    {
      "x": 243,
      "y": 333,
      "size": 1,
      "price": "4683000000000000000000",
      "reserved": "",
      "salt": "0xa6acfebb31a9f67736ddb0ac575e6926cb7b4a0f410b438d5c02790d69ac50ac",
      "assetIds": [
        "41506478881403507969696680653240014914910929820314476107906210059990541021186"
      ]
    },
    {
      "x": 243,
      "y": 334,
      "size": 1,
      "price": "4683000000000000000000",
      "reserved": "",
      "salt": "0xdce3ebc51ce071cb312a0203da67d0a8ab689cd69281b4a4c224e652db781bfd",
      "assetIds": [
        "41506478881403507969696680653240014914910929820314476107906210059990541021186"
      ]
    },
    {
      "x": 243,
      "y": 335,
      "size": 1,
      "price": "4683000000000000000000",
      "reserved": "",
      "salt": "0x3f338bc5de4dff9a65b5cd0beedf4e35e30c90fb1d4be705988f0178ba813628",
      "assetIds": [
        "41506478881403507969696680653240014914910929820314476107906210059990541021186"
      ]
    },
    {
      "x": 244,
      "y": 318,
      "size": 1,
      "price": "1011000000000000000000",
      "reserved": "",
      "salt": "0xf6ac5f241e13cca65a6fc68f2acaa02aee815b00c09cc3f594d7a47685686619",
      "assetIds": []
    },
    {
      "x": 244,
      "y": 319,
      "size": 1,
      "price": "1011000000000000000000",
      "reserved": "",
      "salt": "0x241e20d5019c7d3f6995c44d7c57d21fd20d8f35d4dd3afce6a444e6a5d98529",
      "assetIds": []
    },
    {
      "x": 244,
      "y": 320,
      "size": 1,
      "price": "1011000000000000000000",
      "reserved": "",
      "salt": "0x40795a4382098547466e4415244418064469026892c1c58ff591dd66f9b164d3",
      "assetIds": []
    },
    {
      "x": 244,
      "y": 321,
      "size": 1,
      "price": "1011000000000000000000",
      "reserved": "",
      "salt": "0x2e4916df8951505bcb8fbb11294048e8afae60f4a844a5fabb79cc4d691aa4b6",
      "assetIds": []
    },
    {
      "x": 244,
      "y": 322,
      "size": 1,
      "price": "1011000000000000000000",
      "reserved": "",
      "salt": "0x9609bb193155d9a5adab12b1a93510b122564bb3fdc842579dda951c7372d6a9",
      "assetIds": []
    },
    {
      "x": 244,
      "y": 323,
      "size": 1,
      "price": "1011000000000000000000",
      "reserved": "0x7a9fe22691c811ea339d9b73150e6911a5343dca",
      "salt": "0xec068e525dded2a987031dfc0b1c12d29361de0aee7b728abc475f26b89a6999",
      "assetIds": []
    },
    {
      "x": 244,
      "y": 324,
      "size": 1,
      "price": "1011000000000000000000",
      "reserved": "",
      "salt": "0xe5edecb1bd627d9e0f52604f945a3f485f76ffcea379e44a4d7301824b640c37",
      "assetIds": []
    },
    {
      "x": 244,
      "y": 325,
      "size": 1,
      "price": "1011000000000000000000",
      "reserved": "",
      "salt": "0x0be13415bd93e0b7622ffc41ca6f6ecbb6c30485b32f8e6b8a1e5a0c96a16354",
      "assetIds": []
    },
    {
      "x": 244,
      "y": 326,
      "size": 1,
      "price": "1011000000000000000000",
      "reserved": "",
      "salt": "0x26bf8748d24a334c691d2dff4be65d57a11593c9b25c1a1a153fe07124bced7b",
      "assetIds": []
    },
    {
      "x": 244,
      "y": 327,
      "size": 1,
      "price": "1011000000000000000000",
      "reserved": "",
      "salt": "0xcd0c055bea7056238a9fa97af75cf12216714a1f58ca097dbca0d4949cce6574",
      "assetIds": []
    },
    {
      "x": 244,
      "y": 328,
      "size": 1,
      "price": "1011000000000000000000",
      "reserved": "",
      "salt": "0xb7a1c439d813f0c8e73bac4fc5fa2728f6cba419c3f1d548140c808c75c28ca4",
      "assetIds": []
    },
    {
      "x": 244,
      "y": 329,
      "size": 1,
      "price": "4683000000000000000000",
      "reserved": "",
      "salt": "0x29177970fcbdebc4650b299df2f488c1b8dc8ee28ad95c1d8d78c84807aa13e6",
      "assetIds": [
        "41506478881403507969696680653240014914910929820314476107906210059990541021186"
      ]
    },
    {
      "x": 244,
      "y": 330,
      "size": 1,
      "price": "4683000000000000000000",
      "reserved": "",
      "salt": "0x73abcb79c83102ff468791ddb83f8b5c1291b6ee0bbf1c4e8531c6ec4ce59e45",
      "assetIds": [
        "41506478881403507969696680653240014914910929820314476107906210059990541021186"
      ]
    },
    {
      "x": 244,
      "y": 331,
      "size": 1,
      "price": "1011000000000000000000",
      "reserved": "0x7a9fe22691c811ea339d9b73150e6911a5343dca",
      "salt": "0xa3b9332bdd419a61407f4ff1607dd82c26769245c48e13e6ec21bfe32e62c1b4",
      "assetIds": []
    },
    {
      "x": 244,
      "y": 332,
      "size": 1,
      "price": "4683000000000000000000",
      "reserved": "",
      "salt": "0xe51a91bb60e96b0d1dd7575e108f15183626a760e84fdba2d5a0421680a0770d",
      "assetIds": [
        "41506478881403507969696680653240014914910929820314476107906210059990541021186"
      ]
    },
    {
      "x": 244,
      "y": 333,
      "size": 1,
      "price": "4683000000000000000000",
      "reserved": "",
      "salt": "0x54888de1ef19884cd95f39b3dc6b85e63de5140d3d797d03a43d74e76a0c0497",
      "assetIds": [
        "41506478881403507969696680653240014914910929820314476107906210059990541021186"
      ]
    },
    {
      "x": 244,
      "y": 334,
      "size": 1,
      "price": "4683000000000000000000",
      "reserved": "",
      "salt": "0x85281c901dd6e63251ce96bf7cb71b8e759d03ebae364c0351cef677295311ae",
      "assetIds": [
        "41506478881403507969696680653240014914910929820314476107906210059990541021186"
      ]
    },
    {
      "x": 244,
      "y": 335,
      "size": 1,
      "price": "4683000000000000000000",
      "reserved": "",
      "salt": "0xcce436fd6c500e959e3fe0482f73854e0da9bc2a0860df7f9aae957ca8687fff",
      "assetIds": [
        "41506478881403507969696680653240014914910929820314476107906210059990541021186"
      ]
    },
    {
      "x": 245,
      "y": 317,
      "size": 1,
      "price": "1011000000000000000000",
      "reserved": "0x7a9fe22691c811ea339d9b73150e6911a5343dca",
      "salt": "0x18661d872a622a597e355fc913f36ba8fc6abb8d7f455ad04cbe1e8d0202c899",
      "assetIds": []
    },
    {
      "x": 245,
      "y": 318,
      "size": 1,
      "price": "1011000000000000000000",
      "reserved": "0x7a9fe22691c811ea339d9b73150e6911a5343dca",
      "salt": "0xe0845e5ffd586d08057d1d8d455fa565b7598ed0beb3268c2d0550cba793f2c8",
      "assetIds": []
    },
    {
      "x": 245,
      "y": 319,
      "size": 1,
      "price": "1011000000000000000000",
      "reserved": "",
      "salt": "0x4258e412cf0e5a05522ec309fa0748ff44c428da550c43632769eff9817198e7",
      "assetIds": []
    },
    {
      "x": 245,
      "y": 320,
      "size": 1,
      "price": "1011000000000000000000",
      "reserved": "",
      "salt": "0xf9f8218a7264e48f93916aa6af7c7294a6fcc7c48d6d17f3242d45f52b5963be",
      "assetIds": []
    },
    {
      "x": 245,
      "y": 321,
      "size": 1,
      "price": "1011000000000000000000",
      "reserved": "",
      "salt": "0x46eac932f5de384f9a25326072e9a97fa4016b8947a8ed441e59f443af639278",
      "assetIds": []
    },
    {
      "x": 245,
      "y": 322,
      "size": 1,
      "price": "1011000000000000000000",
      "reserved": "",
      "salt": "0xf3ec026542429dc00b11b821739f28df01903b1491dab7bc6cdd5eb75f917b0c",
      "assetIds": []
    },
    {
      "x": 245,
      "y": 323,
      "size": 1,
      "price": "1011000000000000000000",
      "reserved": "",
      "salt": "0xd57712d820b3969432ecd175c8fa21c3853faab77e9db7894d8155ecc2b86be1",
      "assetIds": []
    },
    {
      "x": 245,
      "y": 324,
      "size": 1,
      "price": "1011000000000000000000",
      "reserved": "",
      "salt": "0xc4c93f725011d756f8f28ae117956059ff98cee20b79ab356a6fd9a6d02b0d62",
      "assetIds": []
    },
    {
      "x": 245,
      "y": 325,
      "size": 1,
      "price": "1011000000000000000000",
      "reserved": "",
      "salt": "0x04b85606ebeae32ff49152fe559767139f93824ef25796629ed874a2493088dc",
      "assetIds": []
    },
    {
      "x": 245,
      "y": 326,
      "size": 1,
      "price": "1011000000000000000000",
      "reserved": "",
      "salt": "0x1e30d3280052d5f7df34316492263c5eaf460b80426aa07b103e426be5738b45",
      "assetIds": []
    },
    {
      "x": 245,
      "y": 327,
      "size": 1,
      "price": "1011000000000000000000",
      "reserved": "0x7a9fe22691c811ea339d9b73150e6911a5343dca",
      "salt": "0x95a0122246c7797173478cbb6d4204aa876da40dd45d2bca447d92955a82b823",
      "assetIds": []
    },
    {
      "x": 245,
      "y": 328,
      "size": 1,
      "price": "1011000000000000000000",
      "reserved": "0x7a9fe22691c811ea339d9b73150e6911a5343dca",
      "salt": "0x16a98a1f4bf0f7df52433542329d461ff40cd3b6866619f3a8a66d032e8c461b",
      "assetIds": []
    },
    {
      "x": 245,
      "y": 329,
      "size": 1,
      "price": "1011000000000000000000",
      "reserved": "",
      "salt": "0xc9bf5c1817a133a9a989756d61661dd70952fa7d2797ac5bd8cf947ae5c913eb",
      "assetIds": []
    },
    {
      "x": 245,
      "y": 330,
      "size": 1,
      "price": "1011000000000000000000",
      "reserved": "",
      "salt": "0xa6509ac980d13c8faff472e379a228bf88036511521753b6f35474c15bf0cbf8",
      "assetIds": []
    },
    {
      "x": 245,
      "y": 331,
      "size": 1,
      "price": "1011000000000000000000",
      "reserved": "",
      "salt": "0xbe52f5075e2cca4cc983225c9a4807ee7ecc88e3aed31386f00e33fc3b236f76",
      "assetIds": []
    },
    {
      "x": 245,
      "y": 332,
      "size": 1,
      "price": "4683000000000000000000",
      "reserved": "",
      "salt": "0x7993476225ae37032b46fe8775c870002dfb5af4351d716eb36604eb0500aa65",
      "assetIds": [
        "41506478881403507969696680653240014914910929820314476107906210059990541021186"
      ]
    },
    {
      "x": 245,
      "y": 333,
      "size": 1,
      "price": "4683000000000000000000",
      "reserved": "",
      "salt": "0xfa83f118fe357dbee909b6e0222f0f4d092b02484dffa497b45a0a122eb5e656",
      "assetIds": [
        "41506478881403507969696680653240014914910929820314476107906210059990541021186"
      ]
    },
    {
      "x": 245,
      "y": 334,
      "size": 1,
      "price": "1011000000000000000000",
      "reserved": "0x7a9fe22691c811ea339d9b73150e6911a5343dca",
      "salt": "0x9ea85068e9ef3e2a9c4f714ec4d9ed3015740a3f3435a18aa1bd731b840e25ea",
      "assetIds": []
    },
    {
      "x": 245,
      "y": 335,
      "size": 1,
      "price": "4683000000000000000000",
      "reserved": "",
      "salt": "0x35c2c1d8b34c299823b0f1089ee086103444e8ca5b8d2b774ef45fe973f508d0",
      "assetIds": [
        "41506478881403507969696680653240014914910929820314476107906210059990541021186"
      ]
    },
    {
      "x": 246,
      "y": 316,
      "size": 1,
      "price": "1011000000000000000000",
      "reserved": "",
      "salt": "0xaf22a3865a9eaf512b2fda6f8cf70c00696c2e7e7ff5dce2e322f2101444b60d",
      "assetIds": []
    },
    {
      "x": 246,
      "y": 317,
      "size": 1,
      "price": "1011000000000000000000",
      "reserved": "",
      "salt": "0xaf63b7a15e4d3159df75b0ad786a4c2f391122b396a39fae0263cc6b29a585d2",
      "assetIds": []
    },
    {
      "x": 246,
      "y": 318,
      "size": 1,
      "price": "1011000000000000000000",
      "reserved": "",
      "salt": "0x0345e91371b07655ec85110e1e909b8bd06ea1abfa082d059aa8fc75a7c9c3ab",
      "assetIds": []
    },
    {
      "x": 246,
      "y": 319,
      "size": 1,
      "price": "1011000000000000000000",
      "reserved": "",
      "salt": "0x2a7891edbda9ba065ab4a7a79a9840f62ca2935055a747932540585230d788f0",
      "assetIds": []
    },
    {
      "x": 246,
      "y": 320,
      "size": 1,
      "price": "1011000000000000000000",
      "reserved": "",
      "salt": "0xcc74ab0bb956734d770d5585ce1fe4a8062168cbd0ce94f310971f1fae573509",
      "assetIds": []
    },
    {
      "x": 246,
      "y": 321,
      "size": 1,
      "price": "1011000000000000000000",
      "reserved": "",
      "salt": "0x7710d04035fa8968db7be926cd2af43122cb3549d4e1f37fa0b6ee44311fbd7e",
      "assetIds": []
    },
    {
      "x": 246,
      "y": 322,
      "size": 1,
      "price": "1011000000000000000000",
      "reserved": "",
      "salt": "0x6952b022cc80ed2c6c4b2c91545a7e4e67320f1caa592753719e1fa335e36ed8",
      "assetIds": []
    },
    {
      "x": 246,
      "y": 323,
      "size": 1,
      "price": "1011000000000000000000",
      "reserved": "",
      "salt": "0xf5300eb7443a69d90172cb33d11d05350de7c3cc53619384d93425e341ca3da9",
      "assetIds": []
    },
    {
      "x": 246,
      "y": 324,
      "size": 1,
      "price": "1011000000000000000000",
      "reserved": "",
      "salt": "0x42a5ea10f3c870b5d302918efe5ad810a55e434d498e1a107f27d973501d4228",
      "assetIds": []
    },
    {
      "x": 246,
      "y": 325,
      "size": 1,
      "price": "1011000000000000000000",
      "reserved": "",
      "salt": "0xed18d7de4acf92038134f35e5153d47285a53f4f995179dc029259b788385382",
      "assetIds": []
    },
    {
      "x": 246,
      "y": 326,
      "size": 1,
      "price": "1011000000000000000000",
      "reserved": "",
      "salt": "0x2751010d50874749715cdf2031ae41ccbeddee25173ddbadcfa0be74999b6512",
      "assetIds": []
    },
    {
      "x": 246,
      "y": 327,
      "size": 1,
      "price": "1011000000000000000000",
      "reserved": "",
      "salt": "0x3091bda6389b36129c5a9e4d00c9e6d0c9abbaef336006b537c7bd27ac653aee",
      "assetIds": []
    },
    {
      "x": 246,
      "y": 328,
      "size": 1,
      "price": "1011000000000000000000",
      "reserved": "",
      "salt": "0xf07e3132c5d6e62d2a777a839c749216072255cac4b168f1479bd6c1dd1a41b7",
      "assetIds": []
    },
    {
      "x": 246,
      "y": 329,
      "size": 1,
      "price": "1011000000000000000000",
      "reserved": "0x7a9fe22691c811ea339d9b73150e6911a5343dca",
      "salt": "0x79370706847fb07b89975c66004bdddc5b29f5daebd5c7564097cefba10ab87d",
      "assetIds": []
    },
    {
      "x": 246,
      "y": 330,
      "size": 1,
      "price": "1011000000000000000000",
      "reserved": "",
      "salt": "0xa52d8c7daaa04b920541b892cb19d384c923101eca764e1dff38ec51b3e66e06",
      "assetIds": []
    },
    {
      "x": 246,
      "y": 331,
      "size": 1,
      "price": "4683000000000000000000",
      "reserved": "",
      "salt": "0xca666459113619fda6177ea29ee3e97f6aa9f0c7fbca9226c82199d48810d304",
      "assetIds": [
        "41506478881403507969696680653240014914910929820314476107906210059990541021186"
      ]
    },
    {
      "x": 246,
      "y": 332,
      "size": 1,
      "price": "4683000000000000000000",
      "reserved": "",
      "salt": "0x257564694b1ded428c618281216d542987fb0a8f42176d3d56fc9b70166d1944",
      "assetIds": [
        "41506478881403507969696680653240014914910929820314476107906210059990541021186"
      ]
    },
    {
      "x": 246,
      "y": 333,
      "size": 1,
      "price": "4683000000000000000000",
      "reserved": "",
      "salt": "0x4635b6524fd6120804bddef15c214027057892649350123d7ce453c8949c3d4c",
      "assetIds": [
        "41506478881403507969696680653240014914910929820314476107906210059990541021186"
      ]
    },
    {
      "x": 246,
      "y": 334,
      "size": 1,
      "price": "4683000000000000000000",
      "reserved": "",
      "salt": "0xb13c8a1bb95ba4a598bf3beec49028c4ba14a0aa3c2552ed8830be18402c1b53",
      "assetIds": [
        "41506478881403507969696680653240014914910929820314476107906210059990541021186"
      ]
    },
    {
      "x": 246,
      "y": 335,
      "size": 1,
      "price": "4683000000000000000000",
      "reserved": "",
      "salt": "0x36834881b2a645329091b02980d28054ffb345bc4373a6c37cefb824d3cace70",
      "assetIds": [
        "41506478881403507969696680653240014914910929820314476107906210059990541021186"
      ]
    },
    {
      "x": 247,
      "y": 314,
      "size": 1,
      "price": "1011000000000000000000",
      "reserved": "0x7a9fe22691c811ea339d9b73150e6911a5343dca",
      "salt": "0x0be97a707b8ad6f5be32847e8713dd98778c4a7bf3ac64223dda1b91ecb44590",
      "assetIds": []
    },
    {
      "x": 247,
      "y": 315,
      "size": 1,
      "price": "1011000000000000000000",
      "reserved": "",
      "salt": "0xfbea62e42b9ce4befe8477050a7e3a80179631a235749fe166d7f4878fd1ea43",
      "assetIds": []
    },
    {
      "x": 247,
      "y": 316,
      "size": 1,
      "price": "1011000000000000000000",
      "reserved": "",
      "salt": "0xd0e124ae006b1ae9698a4b474eb43479be4d23165e51b9ec093a0c042d6cf371",
      "assetIds": []
    },
    {
      "x": 247,
      "y": 317,
      "size": 1,
      "price": "1011000000000000000000",
      "reserved": "",
      "salt": "0x25071de3bcf4fa1345ce714ebc0eb3614cc7df05b6ae4d4557bb3cbb70ff60a0",
      "assetIds": []
    },
    {
      "x": 247,
      "y": 318,
      "size": 1,
      "price": "1011000000000000000000",
      "reserved": "",
      "salt": "0x0c1a6cdb0fe9f283efed16e60f15be8b8833c78de0cff27a2cf3aa5132250669",
      "assetIds": []
    },
    {
      "x": 247,
      "y": 319,
      "size": 1,
      "price": "1011000000000000000000",
      "reserved": "",
      "salt": "0xdd47de4b13ed8abdc674d30036063d29a8c54d45449a0ef2f533d736d88f302f",
      "assetIds": []
    },
    {
      "x": 247,
      "y": 320,
      "size": 1,
      "price": "1011000000000000000000",
      "reserved": "",
      "salt": "0xe6ec320901e94b985f2181d1b35e7f53cbe7bf43f4d8e63706b3786a77ce75c1",
      "assetIds": []
    },
    {
      "x": 247,
      "y": 321,
      "size": 1,
      "price": "1011000000000000000000",
      "reserved": "",
      "salt": "0x8dd9e302d856228533615ffa54241e19b60e8747f79e6872be86184b50289b1f",
      "assetIds": []
    },
    {
      "x": 247,
      "y": 322,
      "size": 1,
      "price": "1011000000000000000000",
      "reserved": "",
      "salt": "0x1389007860dc9be11bbc3b91f13da68269258c3e7712b47b3a4982418f248df6",
      "assetIds": []
    },
    {
      "x": 247,
      "y": 323,
      "size": 1,
      "price": "1011000000000000000000",
      "reserved": "0x7a9fe22691c811ea339d9b73150e6911a5343dca",
      "salt": "0xd13399f3c9d1131f9a54dff070aed6ed7376178c70de4f5b53a4e2f87ff302e1",
      "assetIds": []
    },
    {
      "x": 247,
      "y": 324,
      "size": 1,
      "price": "1011000000000000000000",
      "reserved": "",
      "salt": "0x19edfffa485557e827060da893857bf413942ddcd59639cf1ca1abbf9d8c09e3",
      "assetIds": []
    },
    {
      "x": 247,
      "y": 325,
      "size": 1,
      "price": "1011000000000000000000",
      "reserved": "",
      "salt": "0x29bbeb6d812740253a60076c6764580f01267b5098a27b9a7eeb714fb39898fb",
      "assetIds": []
    },
    {
      "x": 247,
      "y": 326,
      "size": 1,
      "price": "1011000000000000000000",
      "reserved": "",
      "salt": "0x5f7bd47383e908b43c5850ee8793706797dbf9640e710b7c21d49432b4e6241d",
      "assetIds": []
    },
    {
      "x": 247,
      "y": 327,
      "size": 1,
      "price": "1011000000000000000000",
      "reserved": "",
      "salt": "0x243101fb16dab47e06e8407d3892a1692993404bf764befef173d20978b2d087",
      "assetIds": []
    },
    {
      "x": 247,
      "y": 328,
      "size": 1,
      "price": "1011000000000000000000",
      "reserved": "",
      "salt": "0xa6449c1b98de8a5393bc07ff6ab3de99d04195def4d40e33f2098bd9c6bd8dbe",
      "assetIds": []
    },
    {
      "x": 247,
      "y": 329,
      "size": 1,
      "price": "1011000000000000000000",
      "reserved": "",
      "salt": "0x6a1348fd2ac0c4853f46721ba9d01e6ffb9577f281de21dc93292465e9464804",
      "assetIds": []
    },
    {
      "x": 247,
      "y": 330,
      "size": 1,
      "price": "1011000000000000000000",
      "reserved": "",
      "salt": "0xbda2f8e2c559246f72dfc37c71d1bf844cbfc87935df898e491dd46b80d1fdb1",
      "assetIds": []
    },
    {
      "x": 247,
      "y": 331,
      "size": 1,
      "price": "4683000000000000000000",
      "reserved": "",
      "salt": "0x7c3288f74c6f6be541c87e8420274152508afafe9b2dc5feb70150c7a4e95953",
      "assetIds": [
        "41506478881403507969696680653240014914910929820314476107906210059990541021186"
      ]
    },
    {
      "x": 247,
      "y": 332,
      "size": 1,
      "price": "4683000000000000000000",
      "reserved": "",
      "salt": "0x206041a4ef1d77d59e692ad042b28689b03302ed13db416fb8884d0dc5f163b4",
      "assetIds": [
        "41506478881403507969696680653240014914910929820314476107906210059990541021186"
      ]
    },
    {
      "x": 247,
      "y": 333,
      "size": 1,
      "price": "4683000000000000000000",
      "reserved": "",
      "salt": "0xc26a2a484e9e211bf0b4450c2ec33095064a6bf3d50ba110572c41732c156a2e",
      "assetIds": [
        "41506478881403507969696680653240014914910929820314476107906210059990541021186"
      ]
    },
    {
      "x": 247,
      "y": 334,
      "size": 1,
      "price": "4683000000000000000000",
      "reserved": "",
      "salt": "0x0b3c5980331ee1b9dde97cc671590905d8bed8d09a5b81cc2cd460a5d3813e99",
      "assetIds": [
        "41506478881403507969696680653240014914910929820314476107906210059990541021186"
      ]
    },
    {
      "x": 247,
      "y": 335,
      "size": 1,
      "price": "4683000000000000000000",
      "reserved": "",
      "salt": "0x4fa4bd55117372df036857692a0c615b92533056c55e56b0c89a95a8bc9dcb76",
      "assetIds": [
        "41506478881403507969696680653240014914910929820314476107906210059990541021186"
      ]
    },
    {
      "x": 248,
      "y": 313,
      "size": 1,
      "price": "1011000000000000000000",
      "reserved": "",
      "salt": "0x35503251e351ae10af22fa096904acc43e7ca766703ab6c42217ef8620ce4377",
      "assetIds": []
    },
    {
      "x": 248,
      "y": 314,
      "size": 1,
      "price": "1011000000000000000000",
      "reserved": "",
      "salt": "0x90687e8895b30881a03775cf62f312b87c04bf42a4b9bfe173a3c51886250c21",
      "assetIds": []
    },
    {
      "x": 248,
      "y": 315,
      "size": 1,
      "price": "1011000000000000000000",
      "reserved": "0x7a9fe22691c811ea339d9b73150e6911a5343dca",
      "salt": "0x564b8f1870bce5ee0756ce2b7a900e9e47bcaa44ea1845a358327622e49e7164",
      "assetIds": []
    },
    {
      "x": 248,
      "y": 316,
      "size": 1,
      "price": "1011000000000000000000",
      "reserved": "",
      "salt": "0xa300bbbe4f501241f63d6ccbaa9fe3c8b4d670b42b051a9c14744fe8371d2b5d",
      "assetIds": []
    },
    {
      "x": 248,
      "y": 317,
      "size": 1,
      "price": "1011000000000000000000",
      "reserved": "",
      "salt": "0x6fb385aa17f199498a37f385e99b0c9fef7c6693d8a462533807faebf5368313",
      "assetIds": []
    },
    {
      "x": 248,
      "y": 318,
      "size": 1,
      "price": "1011000000000000000000",
      "reserved": "",
      "salt": "0x9391e892d73ac20d486b7c153331151bd964684b75a9ee0c54663fcd572f2070",
      "assetIds": []
    },
    {
      "x": 248,
      "y": 319,
      "size": 1,
      "price": "1011000000000000000000",
      "reserved": "",
      "salt": "0x34c4ec19da1d76d5ce77187d820de4c1f3ec5cca57f30affae43791c44de014c",
      "assetIds": []
    },
    {
      "x": 248,
      "y": 320,
      "size": 1,
      "price": "1011000000000000000000",
      "reserved": "",
      "salt": "0xc1aff2babd7dddc622d22860dc8c3aa97364107d58a963895b450f3f610950dc",
      "assetIds": []
    },
    {
      "x": 248,
      "y": 321,
      "size": 1,
      "price": "1011000000000000000000",
      "reserved": "",
      "salt": "0x8b8e509cf8972be6cd799ff9c3be2ca479a26903fb4d84442bfde8f684ccc234",
      "assetIds": []
    },
    {
      "x": 248,
      "y": 322,
      "size": 1,
      "price": "1011000000000000000000",
      "reserved": "",
      "salt": "0x8243b015b479d11b11681667e7d59d0176e2de77e90100c25ebf603ec778f397",
      "assetIds": []
    },
    {
      "x": 248,
      "y": 323,
      "size": 1,
      "price": "1011000000000000000000",
      "reserved": "",
      "salt": "0x5627c37cf13e068181c43effd4ba30e0771824a469b242010d57eaec5bdd1426",
      "assetIds": []
    },
    {
      "x": 248,
      "y": 324,
      "size": 1,
      "price": "1011000000000000000000",
      "reserved": "",
      "salt": "0xf632b1e5f169f7f0fe64b10f476842687320a961de91821544f7768234efadef",
      "assetIds": []
    },
    {
      "x": 248,
      "y": 325,
      "size": 1,
      "price": "1011000000000000000000",
      "reserved": "",
      "salt": "0x156f422414ddd7d8f164d532f3e49439bddb61222a6be7083be622661aae2d6b",
      "assetIds": []
    },
    {
      "x": 248,
      "y": 326,
      "size": 1,
      "price": "1011000000000000000000",
      "reserved": "",
      "salt": "0xccc86bd140a53fd7c85e982c2d91096304417b25a46e7dab2a6e7b77d771fbac",
      "assetIds": []
    },
    {
      "x": 248,
      "y": 327,
      "size": 1,
      "price": "1011000000000000000000",
      "reserved": "",
      "salt": "0xeb72beb43f3e42a07e915c90f52b9caf5101ca65a81d624652138a64d0eaefc9",
      "assetIds": []
    },
    {
      "x": 248,
      "y": 328,
      "size": 1,
      "price": "1011000000000000000000",
      "reserved": "0x7a9fe22691c811ea339d9b73150e6911a5343dca",
      "salt": "0x01d8fb30d09532e8dd04ba63eb8a54ee632ef77496899d119a8c60bfd981fa84",
      "assetIds": []
    },
    {
      "x": 248,
      "y": 329,
      "size": 1,
      "price": "1011000000000000000000",
      "reserved": "",
      "salt": "0xa2c2cd04bdb71fec780871c1940004452c49d7e559dfa9655603ad3c17a8684b",
      "assetIds": []
    },
    {
      "x": 248,
      "y": 330,
      "size": 1,
      "price": "4683000000000000000000",
      "reserved": "",
      "salt": "0x0051d513ee50fd6647e50518a0ed4a61c6d170c1644ada18b34634d879dcbd9f",
      "assetIds": [
        "41506478881403507969696680653240014914910929820314476107906210059990541021186"
      ]
    },
    {
      "x": 248,
      "y": 331,
      "size": 1,
      "price": "4683000000000000000000",
      "reserved": "",
      "salt": "0xafbce8ec197205474bf2d88758924e7f246a011b6fafda74030dcc59452fe7eb",
      "assetIds": [
        "41506478881403507969696680653240014914910929820314476107906210059990541021186"
      ]
    },
    {
      "x": 248,
      "y": 332,
      "size": 1,
      "price": "4683000000000000000000",
      "reserved": "",
      "salt": "0x662f2fa52d081ce9f8fc9849158055262bc930a1ef18d02e3d75d6c07ed8f4e5",
      "assetIds": [
        "41506478881403507969696680653240014914910929820314476107906210059990541021186"
      ]
    },
    {
      "x": 248,
      "y": 333,
      "size": 1,
      "price": "4683000000000000000000",
      "reserved": "",
      "salt": "0x68c77c16ca69b131e523b113dbedc5d0bd3c5bbe0e95bbec385f9cc39e2cb46e",
      "assetIds": [
        "41506478881403507969696680653240014914910929820314476107906210059990541021186"
      ]
    },
    {
      "x": 248,
      "y": 334,
      "size": 1,
      "price": "1011000000000000000000",
      "reserved": "0x7a9fe22691c811ea339d9b73150e6911a5343dca",
      "salt": "0xef21c4ba69ad765fa08a6ed17402dbed56cbc7b6e3cdcd4de9943ecc14080104",
      "assetIds": []
    },
    {
      "x": 248,
      "y": 335,
      "size": 1,
      "price": "4683000000000000000000",
      "reserved": "",
      "salt": "0xb21edb7229c39582f5d43e7e50ddeafb1b5e7067b98f70f53199f0cf5ec112e6",
      "assetIds": [
        "41506478881403507969696680653240014914910929820314476107906210059990541021186"
      ]
    },
    {
      "x": 249,
      "y": 313,
      "size": 1,
      "price": "1011000000000000000000",
      "reserved": "",
      "salt": "0x10038934f610c54f549a190e45b16d1151e2b0f9d7bfd6e43fb954f5ae432f8b",
      "assetIds": []
    },
    {
      "x": 249,
      "y": 314,
      "size": 1,
      "price": "1011000000000000000000",
      "reserved": "",
      "salt": "0x577c7614ee915344ab3d95dafa164869139c638dab94ba248c8d51470ff0bb26",
      "assetIds": []
    },
    {
      "x": 249,
      "y": 315,
      "size": 1,
      "price": "1011000000000000000000",
      "reserved": "",
      "salt": "0x0b7de00773c097e4865faae35098652990ae84be8f56f30f102361cc00de5d44",
      "assetIds": []
    },
    {
      "x": 249,
      "y": 316,
      "size": 1,
      "price": "1011000000000000000000",
      "reserved": "",
      "salt": "0xea76d5a378e721fc8a41df181b0e8b720b2420512206604c4362e16b379986f3",
      "assetIds": []
    },
    {
      "x": 249,
      "y": 317,
      "size": 1,
      "price": "1011000000000000000000",
      "reserved": "",
      "salt": "0x4b030badfb5cb9707bd0097781674e79b1d5a058f96752d6a12f90c0af67c1f0",
      "assetIds": []
    },
    {
      "x": 249,
      "y": 318,
      "size": 1,
      "price": "1011000000000000000000",
      "reserved": "",
      "salt": "0x7bd25b80868b98489a5640c5132f146159cd1457c7091f8056cc41adcf7e64a1",
      "assetIds": []
    },
    {
      "x": 249,
      "y": 319,
      "size": 1,
      "price": "1011000000000000000000",
      "reserved": "",
      "salt": "0x86a12ea1ea264b0126a6830a48e4f80a31284701db48f396a635b75c1af66d72",
      "assetIds": []
    },
    {
      "x": 249,
      "y": 320,
      "size": 1,
      "price": "1011000000000000000000",
      "reserved": "",
      "salt": "0x5f6fd52d61ab3e53e736a15d2a6cf360386acd87ed9dee84aeefe1962fd81f13",
      "assetIds": []
    },
    {
      "x": 249,
      "y": 321,
      "size": 1,
      "price": "1011000000000000000000",
      "reserved": "0x7a9fe22691c811ea339d9b73150e6911a5343dca",
      "salt": "0xf742b00580d330b556ef12d957a24347014e4a3ab1a1dcb734a75ce42461f7a9",
      "assetIds": []
    },
    {
      "x": 249,
      "y": 322,
      "size": 1,
      "price": "1011000000000000000000",
      "reserved": "",
      "salt": "0x503288df13a5ff9b02ea427474a7c946d01cdd1ca844e115ae04d8bb24c08015",
      "assetIds": []
    },
    {
      "x": 249,
      "y": 323,
      "size": 1,
      "price": "1011000000000000000000",
      "reserved": "",
      "salt": "0xa4190ca3f3c87dc3a8b6e9b5f89df34a59fe3ed18daec449596bd666e2822ecd",
      "assetIds": []
    },
    {
      "x": 249,
      "y": 324,
      "size": 1,
      "price": "1011000000000000000000",
      "reserved": "",
      "salt": "0xa9c552c148c67fe09f973f1d8732a7f737ce9e499a4e54f5219976b717b70957",
      "assetIds": []
    },
    {
      "x": 249,
      "y": 325,
      "size": 1,
      "price": "1011000000000000000000",
      "reserved": "0x7a9fe22691c811ea339d9b73150e6911a5343dca",
      "salt": "0xfa9c9e4df663b4bd7fcfb0000150822b4b61a609949614a19efd24f0a0935185",
      "assetIds": []
    },
    {
      "x": 249,
      "y": 326,
      "size": 1,
      "price": "1011000000000000000000",
      "reserved": "",
      "salt": "0x235b1a79338c7e085a5a2063ba857ff514ceeb9840e63a2ff315a9afb8b00725",
      "assetIds": []
    },
    {
      "x": 249,
      "y": 327,
      "size": 1,
      "price": "1011000000000000000000",
      "reserved": "",
      "salt": "0xbc3fe848ac53469252e7d3f6ee185893820f8bfe6d24b3a43899b7ebd4e71d24",
      "assetIds": []
    },
    {
      "x": 249,
      "y": 328,
      "size": 1,
      "price": "1011000000000000000000",
      "reserved": "",
      "salt": "0x5dfed7b4ed4fc8e1131a074af9efdce8a2a88c5b6d951856c712643f4eee1b40",
      "assetIds": []
    },
    {
      "x": 249,
      "y": 329,
      "size": 1,
      "price": "1011000000000000000000",
      "reserved": "",
      "salt": "0xa8e3044614bdb7e7d96a7f4b7b89699114972babde6c2285df2a1f6cfe498424",
      "assetIds": []
    },
    {
      "x": 249,
      "y": 330,
      "size": 1,
      "price": "4683000000000000000000",
      "reserved": "",
      "salt": "0x44f4e312747e513e5b419222de35d99efe8d45248f6964f2c9f8248fc01f29e6",
      "assetIds": [
        "41506478881403507969696680653240014914910929820314476107906210059990541021186"
      ]
    },
    {
      "x": 249,
      "y": 331,
      "size": 1,
      "price": "4683000000000000000000",
      "reserved": "",
      "salt": "0xa8cd6640622f46d76ddebda5d6404c35bb1736062fe0234d08495040aa05bf89",
      "assetIds": [
        "41506478881403507969696680653240014914910929820314476107906210059990541021186"
      ]
    },
    {
      "x": 249,
      "y": 332,
      "size": 1,
      "price": "4683000000000000000000",
      "reserved": "",
      "salt": "0x0702cbbaa82b11a01c1393af6f32b44cfcb71c8de7ed281b6bc26f601528bd9f",
      "assetIds": [
        "41506478881403507969696680653240014914910929820314476107906210059990541021186"
      ]
    },
    {
      "x": 249,
      "y": 333,
      "size": 1,
      "price": "4683000000000000000000",
      "reserved": "",
      "salt": "0xbfa146dfab964e1be3ca03bc00a653ce260681986718a1072047252c81faa478",
      "assetIds": [
        "41506478881403507969696680653240014914910929820314476107906210059990541021186"
      ]
    },
    {
      "x": 249,
      "y": 334,
      "size": 1,
      "price": "4683000000000000000000",
      "reserved": "",
      "salt": "0xb7bc083b22e27a4b60b2f3abbd4b37f44262f2c0de43bec637efff43894395f4",
      "assetIds": [
        "41506478881403507969696680653240014914910929820314476107906210059990541021186"
      ]
    },
    {
      "x": 249,
      "y": 335,
      "size": 1,
      "price": "4683000000000000000000",
      "reserved": "",
      "salt": "0x978851249dc4e016f493c1170368ca3a7775f4be1a8c74dc747573f57695bf36",
      "assetIds": [
        "41506478881403507969696680653240014914910929820314476107906210059990541021186"
      ]
    },
    {
      "x": 250,
      "y": 313,
      "size": 1,
      "price": "1011000000000000000000",
      "reserved": "",
      "salt": "0x5248b147fdca68b5e9ed327c3d7cc7242101f9838a6e21b34d3423fd1fef2559",
      "assetIds": []
    },
    {
      "x": 250,
      "y": 314,
      "size": 1,
      "price": "1011000000000000000000",
      "reserved": "",
      "salt": "0x6bbb351c5b931b9bd02595a1cc56629a59743c93b7f195df5cc1ef86d15c6624",
      "assetIds": []
    },
    {
      "x": 250,
      "y": 315,
      "size": 1,
      "price": "1011000000000000000000",
      "reserved": "",
      "salt": "0x3bd8e03d4b801ac4851467fb5e6e5ab9395951cc1060337bcd2ba78da80daa04",
      "assetIds": []
    },
    {
      "x": 250,
      "y": 316,
      "size": 1,
      "price": "1011000000000000000000",
      "reserved": "",
      "salt": "0xdb4a75c1f546c21235416d0aca58d21033dc18e4ebf0a752f75fb1729fb25baf",
      "assetIds": []
    },
    {
      "x": 250,
      "y": 317,
      "size": 1,
      "price": "1011000000000000000000",
      "reserved": "",
      "salt": "0xffc10a866eb3bdf963496d5ac30e58b285f84aa866c2fa4a41e0fc66d342fd03",
      "assetIds": []
    },
    {
      "x": 250,
      "y": 318,
      "size": 1,
      "price": "1011000000000000000000",
      "reserved": "",
      "salt": "0x5e27c2e807bc6570a62f5372fb0501111c0eceebea09b5580607159c311606c5",
      "assetIds": []
    },
    {
      "x": 250,
      "y": 319,
      "size": 1,
      "price": "1011000000000000000000",
      "reserved": "",
      "salt": "0x10bd2d996c24560ce59e642c0a31eed96c45ea8282eb76bd76575578f3a6a109",
      "assetIds": []
    },
    {
      "x": 250,
      "y": 320,
      "size": 1,
      "price": "1011000000000000000000",
      "reserved": "",
      "salt": "0x7afeaa1822b81bb6f93d6de581bd6f840a26f22a90fc190af4c3951f56222678",
      "assetIds": []
    },
    {
      "x": 250,
      "y": 321,
      "size": 1,
      "price": "1011000000000000000000",
      "reserved": "",
      "salt": "0xda4fce31ded220235e582a7494c91cc8b73edffc40cd9c4b637d229d09dd137f",
      "assetIds": []
    },
    {
      "x": 250,
      "y": 322,
      "size": 1,
      "price": "1011000000000000000000",
      "reserved": "",
      "salt": "0x7c66ce723817450bb5aac1c99ffb369e0a9b2392046261d529600caefe79d7a8",
      "assetIds": []
    },
    {
      "x": 250,
      "y": 323,
      "size": 1,
      "price": "1011000000000000000000",
      "reserved": "",
      "salt": "0x7634c43d239fa8cf8e38ddbc2922ebe53045d9f58f90895985b5526cbf57653b",
      "assetIds": []
    },
    {
      "x": 250,
      "y": 324,
      "size": 1,
      "price": "1011000000000000000000",
      "reserved": "",
      "salt": "0xceea2ec532f4fbd602af07d0631718cb49749395bb5b7fb6ae80e1c33136b22a",
      "assetIds": []
    },
    {
      "x": 250,
      "y": 325,
      "size": 1,
      "price": "1011000000000000000000",
      "reserved": "",
      "salt": "0x5c55936fd8e81bf89c0a63841c8854de03d33e1aaa917a4ce3aa35e3bf25f84e",
      "assetIds": []
    },
    {
      "x": 250,
      "y": 326,
      "size": 1,
      "price": "1011000000000000000000",
      "reserved": "",
      "salt": "0x513517f6676219e4dfc24a200e0ea8471a15ec7889a4837e1287c981d615292c",
      "assetIds": []
    },
    {
      "x": 250,
      "y": 327,
      "size": 1,
      "price": "1011000000000000000000",
      "reserved": "",
      "salt": "0x327a4e38f4c759cf32673ce6639940dcc8af9f26e1fa5b639e69843395fedb74",
      "assetIds": []
    },
    {
      "x": 250,
      "y": 328,
      "size": 1,
      "price": "1011000000000000000000",
      "reserved": "",
      "salt": "0x0e5265cb6d42963692ab9bea32641d74025fb18066809a5442cf5c044cb84b6b",
      "assetIds": []
    },
    {
      "x": 250,
      "y": 329,
      "size": 1,
      "price": "1011000000000000000000",
      "reserved": "",
      "salt": "0xeb17f84157a3e24246abb072be8fb5c91e8b91c18f2ebf0539e72b83e93821c3",
      "assetIds": []
    },
    {
      "x": 250,
      "y": 330,
      "size": 1,
      "price": "1011000000000000000000",
      "reserved": "",
      "salt": "0xc8dd2964ada8e4a7686e5f98f554e8778c92b9f49f4ab8841e41a2d50322e594",
      "assetIds": []
    },
    {
      "x": 250,
      "y": 331,
      "size": 1,
      "price": "4683000000000000000000",
      "reserved": "",
      "salt": "0xc1b60bb51c1eae92675a68c0ae7ac992c58f29a656f124b6abffbc0162e7c6e2",
      "assetIds": [
        "41506478881403507969696680653240014914910929820314476107906210059990541021186"
      ]
    },
    {
      "x": 250,
      "y": 332,
      "size": 1,
      "price": "4683000000000000000000",
      "reserved": "",
      "salt": "0x6f094b857d5f14dbe2410f8cd394b636cfc7e7d5874b1ef062e123bb445f93a8",
      "assetIds": [
        "41506478881403507969696680653240014914910929820314476107906210059990541021186"
      ]
    },
    {
      "x": 250,
      "y": 333,
      "size": 1,
      "price": "4683000000000000000000",
      "reserved": "",
      "salt": "0x7f3ec6ae55daf9d07e08fb5eb4c8c69844dcaaabc46b6999e261e14fe919e8cb",
      "assetIds": [
        "41506478881403507969696680653240014914910929820314476107906210059990541021186"
      ]
    },
    {
      "x": 250,
      "y": 334,
      "size": 1,
      "price": "4683000000000000000000",
      "reserved": "",
      "salt": "0x121eedddd519a2c81e0225eff040e8d560575c9fd39c6b3e949a6947a55c0542",
      "assetIds": [
        "41506478881403507969696680653240014914910929820314476107906210059990541021186"
      ]
    },
    {
      "x": 250,
      "y": 335,
      "size": 1,
      "price": "4683000000000000000000",
      "reserved": "",
      "salt": "0xa591aa1f161d45edd20c60853de3b53ad64e073b767e09caa9f8fd167b114e7f",
      "assetIds": [
        "41506478881403507969696680653240014914910929820314476107906210059990541021186"
      ]
    },
    {
      "x": 251,
      "y": 313,
      "size": 1,
      "price": "1011000000000000000000",
      "reserved": "",
      "salt": "0xc8b47ed6dc78a55cb619712eafa507c54f4d4ad766f30eb7eb134dd2ca1dbe4f",
      "assetIds": []
    },
    {
      "x": 251,
      "y": 314,
      "size": 1,
      "price": "1011000000000000000000",
      "reserved": "",
      "salt": "0x0eefc18ea67ad488ba66b4166072f263c5515f00cd009a93111cce9ed527214d",
      "assetIds": []
    },
    {
      "x": 251,
      "y": 315,
      "size": 1,
      "price": "1011000000000000000000",
      "reserved": "",
      "salt": "0x6d0b98c8f6b2669fc148442db6fd15a42dc9ce549237322f9f93a13cf9ecd20c",
      "assetIds": []
    },
    {
      "x": 251,
      "y": 316,
      "size": 1,
      "price": "1011000000000000000000",
      "reserved": "",
      "salt": "0xbfedcb66c30c795db12c17c21172702baf487d57d5b954cb8ed3952b4d87c22f",
      "assetIds": []
    },
    {
      "x": 251,
      "y": 317,
      "size": 1,
      "price": "1011000000000000000000",
      "reserved": "",
      "salt": "0x56226bb9a5645dc0422f5c1104c26dafdd7875ce456b5fd1e0c84385fd175ebb",
      "assetIds": []
    },
    {
      "x": 251,
      "y": 318,
      "size": 1,
      "price": "1011000000000000000000",
      "reserved": "",
      "salt": "0x47510e6e876f1d835e452e9e9fa12ba4a4cfdd6fa46cc47bda62ec30bf2310ee",
      "assetIds": []
    },
    {
      "x": 251,
      "y": 319,
      "size": 1,
      "price": "1011000000000000000000",
      "reserved": "",
      "salt": "0xb332f185142b7efa31f57be8744b5d4430de754cdfceeebf0558df8efb01da51",
      "assetIds": []
    },
    {
      "x": 251,
      "y": 320,
      "size": 1,
      "price": "1011000000000000000000",
      "reserved": "0x7a9fe22691c811ea339d9b73150e6911a5343dca",
      "salt": "0x46e3deb19bc29a40591f306806866bda9d7084933fefdb4e47c9c573474f343f",
      "assetIds": []
    },
    {
      "x": 251,
      "y": 321,
      "size": 1,
      "price": "1011000000000000000000",
      "reserved": "",
      "salt": "0x3bf8b0b8d27eb25204cf20c3c244cd6594bef68b3f71c2489e527ccad1c8343c",
      "assetIds": []
    },
    {
      "x": 251,
      "y": 322,
      "size": 1,
      "price": "1011000000000000000000",
      "reserved": "",
      "salt": "0x570af91e65a8690af5aaf67d8f8fcba1dee7c531da53e1a52315737cdcabd7b7",
      "assetIds": []
    },
    {
      "x": 251,
      "y": 323,
      "size": 1,
      "price": "1011000000000000000000",
      "reserved": "",
      "salt": "0x4de312e9f1e4cbe34f6b180362cb6899a493c24664c030b8ca687797e8629263",
      "assetIds": []
    },
    {
      "x": 251,
      "y": 324,
      "size": 1,
      "price": "1011000000000000000000",
      "reserved": "0x7a9fe22691c811ea339d9b73150e6911a5343dca",
      "salt": "0x789801cf752a1b94285e059870fae54a6698d1312003879ee01ab2be1a681684",
      "assetIds": []
    },
    {
      "x": 251,
      "y": 325,
      "size": 1,
      "price": "1011000000000000000000",
      "reserved": "",
      "salt": "0x1dbc138f22eb53ea576d8ca1a04ea95d522efaae31666f59da58714e90244216",
      "assetIds": []
    },
    {
      "x": 251,
      "y": 326,
      "size": 1,
      "price": "1011000000000000000000",
      "reserved": "",
      "salt": "0xeada43dc5de7b6c5a2c37ac435ce1160d19b6a60051a2245bd024b8feb1d7123",
      "assetIds": []
    },
    {
      "x": 251,
      "y": 327,
      "size": 1,
      "price": "1011000000000000000000",
      "reserved": "0x7a9fe22691c811ea339d9b73150e6911a5343dca",
      "salt": "0xd30be2525a9608bada849168e0d7223219a92c8820ff3ad606ac5a9251ad5e66",
      "assetIds": []
    },
    {
      "x": 251,
      "y": 328,
      "size": 1,
      "price": "1011000000000000000000",
      "reserved": "",
      "salt": "0xcbbccc03c06416d38d9d899e4fac05721f5a7c7a1f197ef2499f999213f66f4e",
      "assetIds": []
    },
    {
      "x": 251,
      "y": 329,
      "size": 1,
      "price": "1011000000000000000000",
      "reserved": "",
      "salt": "0xee9165615bdaada9711d5341c047050e4003e11ef55283d6914ed8d8e70b0153",
      "assetIds": []
    },
    {
      "x": 251,
      "y": 330,
      "size": 1,
      "price": "1011000000000000000000",
      "reserved": "",
      "salt": "0x9776357f7becf764156a47fedc1f128aedc8d8a37f363cb8f3ed918d48789483",
      "assetIds": []
    },
    {
      "x": 251,
      "y": 331,
      "size": 1,
      "price": "4683000000000000000000",
      "reserved": "",
      "salt": "0x6a3d59ce1b17e6e717e665c9682988c05331fc1abb75d8cab85fa002f3accd68",
      "assetIds": [
        "41506478881403507969696680653240014914910929820314476107906210059990541021186"
      ]
    },
    {
      "x": 251,
      "y": 332,
      "size": 1,
      "price": "4683000000000000000000",
      "reserved": "",
      "salt": "0x92a003b7d040b6d7b17974c15393c3369356885c2a9b58e13eb6e1505c3274df",
      "assetIds": [
        "41506478881403507969696680653240014914910929820314476107906210059990541021186"
      ]
    },
    {
      "x": 251,
      "y": 333,
      "size": 1,
      "price": "4683000000000000000000",
      "reserved": "",
      "salt": "0x70bb4ddcc02025b64bd7c7340bd72fba3f4a57cbbd27dbbb9a31afbc598cc067",
      "assetIds": [
        "41506478881403507969696680653240014914910929820314476107906210059990541021186"
      ]
    },
    {
      "x": 251,
      "y": 334,
      "size": 1,
      "price": "4683000000000000000000",
      "reserved": "",
      "salt": "0x782e80e63840f66c01f52c74bb5e597e2867b2ad7e3968d9dcae2f2ba6e257ad",
      "assetIds": [
        "41506478881403507969696680653240014914910929820314476107906210059990541021186"
      ]
    },
    {
      "x": 251,
      "y": 335,
      "size": 1,
      "price": "4683000000000000000000",
      "reserved": "",
      "salt": "0x8859f757239850cc7d6a64dc888123b2924256d4dbbff08f2f8844560abbd31a",
      "assetIds": [
        "41506478881403507969696680653240014914910929820314476107906210059990541021186"
      ]
    },
    {
      "x": 252,
      "y": 313,
      "size": 1,
      "price": "1011000000000000000000",
      "reserved": "",
      "salt": "0x52540c4477adcb137210bfb3fe89222bba18024398c25263171f2d6491496940",
      "assetIds": []
    },
    {
      "x": 252,
      "y": 314,
      "size": 1,
      "price": "1011000000000000000000",
      "reserved": "",
      "salt": "0x9ae88e4bd46e766eb166062f91ec2d40b50ca7387ff2121785c8751c8aeb54b1",
      "assetIds": []
    },
    {
      "x": 252,
      "y": 315,
      "size": 1,
      "price": "1011000000000000000000",
      "reserved": "",
      "salt": "0x0925ec8e2af6b795baf45588b84446604355b2490e198f443a52fc92390f696b",
      "assetIds": []
    },
    {
      "x": 252,
      "y": 316,
      "size": 1,
      "price": "1011000000000000000000",
      "reserved": "",
      "salt": "0xfe3698ebe44a237bd8547d2c157ae822489180bd56bf42cfd26a7827bf7ca410",
      "assetIds": []
    },
    {
      "x": 252,
      "y": 317,
      "size": 1,
      "price": "1011000000000000000000",
      "reserved": "",
      "salt": "0x44eb702ca4fe6490371c4255649ad9ac055e395de6ce8756baacdd240d2386e9",
      "assetIds": []
    },
    {
      "x": 252,
      "y": 318,
      "size": 1,
      "price": "1011000000000000000000",
      "reserved": "",
      "salt": "0x268f905721ea93bf97ba1b71dd321b2a42ccf6887321b10772369e43bad274d6",
      "assetIds": []
    },
    {
      "x": 252,
      "y": 319,
      "size": 1,
      "price": "1011000000000000000000",
      "reserved": "",
      "salt": "0x1b63bd66af6cdf1d5d1df875c52d6452e8c94fa0b0fcc4273fefceeb8d8e20e0",
      "assetIds": []
    },
    {
      "x": 252,
      "y": 320,
      "size": 1,
      "price": "1011000000000000000000",
      "reserved": "",
      "salt": "0x9535996d5f361a4b3121b99a950b4c42b053238c6dbe44b6bbd7b56b6f035974",
      "assetIds": []
    },
    {
      "x": 252,
      "y": 321,
      "size": 1,
      "price": "1011000000000000000000",
      "reserved": "",
      "salt": "0x69dd78b3182420f338b5c94e5fbb5d2d13fc40242c120e62d09f4b843d2ee5c5",
      "assetIds": []
    },
    {
      "x": 252,
      "y": 322,
      "size": 1,
      "price": "1011000000000000000000",
      "reserved": "",
      "salt": "0xe259b5ba1ed28b5b70d3c5c621590427550b66c97fa27b0f624dd39a40837eae",
      "assetIds": []
    },
    {
      "x": 252,
      "y": 323,
      "size": 1,
      "price": "1011000000000000000000",
      "reserved": "",
      "salt": "0x39855c63f7a64fc3a5d7d41628d380ef35b20793c3d65b50fe489c7fcad91cf6",
      "assetIds": []
    },
    {
      "x": 253,
      "y": 313,
      "size": 1,
      "price": "1011000000000000000000",
      "reserved": "",
      "salt": "0xb399928a485f415c939d21674d53f730a8bb619dd5b90b103c01d68841a3c494",
      "assetIds": []
    },
    {
      "x": 253,
      "y": 314,
      "size": 1,
      "price": "1011000000000000000000",
      "reserved": "",
      "salt": "0x49706d113b909424b34596a92d485be862c224100ebf2b8c246a4c51d0c45ab7",
      "assetIds": []
    },
    {
      "x": 253,
      "y": 315,
      "size": 1,
      "price": "1011000000000000000000",
      "reserved": "",
      "salt": "0x111a78b746e8a06f427c9779101cb7750faacbf00a691d39f98bd6383fe1a3ef",
      "assetIds": []
    },
    {
      "x": 253,
      "y": 316,
      "size": 1,
      "price": "1011000000000000000000",
      "reserved": "0x7a9fe22691c811ea339d9b73150e6911a5343dca",
      "salt": "0xb35aa64125769cc616207f69d6fddf513d0db21b3e36a3700d9b86cb09592f01",
      "assetIds": []
    },
    {
      "x": 253,
      "y": 317,
      "size": 1,
      "price": "1011000000000000000000",
      "reserved": "",
      "salt": "0x1526cd028a7ee8145b4633f3afa9376d76e23e00103d5db3d89d532e159f1daa",
      "assetIds": []
    },
    {
      "x": 253,
      "y": 318,
      "size": 1,
      "price": "1011000000000000000000",
      "reserved": "",
      "salt": "0xa686dca73e3b8ba25184e4786575e5dfb8edaaac7927593b0c7fee9847941d74",
      "assetIds": []
    },
    {
      "x": 253,
      "y": 319,
      "size": 1,
      "price": "1011000000000000000000",
      "reserved": "",
      "salt": "0x38a2d533c2af5f7f1388cef1a684fb46217465a1369eb3e514200ccf2e8c758a",
      "assetIds": []
    },
    {
      "x": 253,
      "y": 320,
      "size": 1,
      "price": "1011000000000000000000",
      "reserved": "",
      "salt": "0x92dda6c5d0b243ab740d382f8c33a91f888b55509e926a405077f93ee0e69f9b",
      "assetIds": []
    },
    {
      "x": 253,
      "y": 321,
      "size": 1,
      "price": "1011000000000000000000",
      "reserved": "",
      "salt": "0xc8357f184b76623015bea41b30d529afe6fbbc13ff5d8ba92665bf8bb2669add",
      "assetIds": []
    },
    {
      "x": 253,
      "y": 322,
      "size": 1,
      "price": "1011000000000000000000",
      "reserved": "",
      "salt": "0xa94616ab675c14ae9c96be831f85596981c33ac643da4e90aa63761f1b96bf3a",
      "assetIds": []
    },
    {
      "x": 253,
      "y": 323,
      "size": 1,
      "price": "1011000000000000000000",
      "reserved": "",
      "salt": "0x8d04ea167f13964e4b4e55ebd2e22b73fd0ba85e5b283daa27c2a000ec7abfae",
      "assetIds": []
    },
    {
      "x": 254,
      "y": 312,
      "size": 1,
      "price": "1011000000000000000000",
      "reserved": "0x7a9fe22691c811ea339d9b73150e6911a5343dca",
      "salt": "0x3a290cc20216c2d9789034d3a7e24a4a589b32cbde5974644243dcd27577c81c",
      "assetIds": []
    },
    {
      "x": 254,
      "y": 313,
      "size": 1,
      "price": "1011000000000000000000",
      "reserved": "",
      "salt": "0xea302469ba9297b0f3830859b2525303e083f46b78ef0b6a5e806c6e57b76910",
      "assetIds": []
    },
    {
      "x": 254,
      "y": 314,
      "size": 1,
      "price": "1011000000000000000000",
      "reserved": "",
      "salt": "0x6e0b8a0affb2dc5314b525e78af619ba8dda19bb1b77176f5aca313c131fb666",
      "assetIds": []
    },
    {
      "x": 254,
      "y": 315,
      "size": 1,
      "price": "1011000000000000000000",
      "reserved": "",
      "salt": "0x0377617e598dd7a80fb7a090101ac767dad37a5b1544284153211b0edf2e55ce",
      "assetIds": []
    },
    {
      "x": 254,
      "y": 316,
      "size": 1,
      "price": "1011000000000000000000",
      "reserved": "",
      "salt": "0xd0b8957b23bc8d175fccbadf86605e79c7be9f91c6346ee342c6a91332996de1",
      "assetIds": []
    },
    {
      "x": 254,
      "y": 317,
      "size": 1,
      "price": "1011000000000000000000",
      "reserved": "",
      "salt": "0xeff52997469a72136cedba86cb8cfbc9de5b916d0fd24edc89e9742a69fc53ad",
      "assetIds": []
    },
    {
      "x": 254,
      "y": 318,
      "size": 1,
      "price": "1011000000000000000000",
      "reserved": "",
      "salt": "0xb80f35167411ca713fa49b754c4446820a14b63b6eb33abddb28a9422838b768",
      "assetIds": []
    },
    {
      "x": 254,
      "y": 319,
      "size": 1,
      "price": "1011000000000000000000",
      "reserved": "",
      "salt": "0x119f2dc11395a33edd76a7d0fdd50d77a423c7d9c41aef551401f0aea51a6e78",
      "assetIds": []
    },
    {
      "x": 254,
      "y": 320,
      "size": 1,
      "price": "1011000000000000000000",
      "reserved": "",
      "salt": "0x3fa34d177762adf75330807eb1ef91d0261e4fe77bcb2a6b4b32cea3100b61d6",
      "assetIds": []
    },
    {
      "x": 254,
      "y": 321,
      "size": 1,
      "price": "1011000000000000000000",
      "reserved": "",
      "salt": "0xd8a51e44bb1fee21365ceeba88ff67eeb1e1ee9bc2eeae85748cd819823b289b",
      "assetIds": []
    },
    {
      "x": 254,
      "y": 322,
      "size": 1,
      "price": "1011000000000000000000",
      "reserved": "0x7a9fe22691c811ea339d9b73150e6911a5343dca",
      "salt": "0x84f105f64fac8916a0616f7740b4a1df669f6ba15683858260776345ad7cd084",
      "assetIds": []
    },
    {
      "x": 254,
      "y": 323,
      "size": 1,
      "price": "1011000000000000000000",
      "reserved": "",
      "salt": "0xb6826e6af671717755d4c7164e7c897ada2747181f6c5f159c3198f6fd3bfdd3",
      "assetIds": []
    },
    {
      "x": 255,
      "y": 312,
      "size": 1,
      "price": "1011000000000000000000",
      "reserved": "0x7a9fe22691c811ea339d9b73150e6911a5343dca",
      "salt": "0x60e81a5d93b11bdaa3af027db1f6a01e34ab0be1aa65237a0a412450c55c69f7",
      "assetIds": []
    },
    {
      "x": 255,
      "y": 313,
      "size": 1,
      "price": "1011000000000000000000",
      "reserved": "",
      "salt": "0xc9046eb980da95ff46d6fb4e8a4a40ed8ce00e85b82e7a491f56c2da027200a0",
      "assetIds": []
    },
    {
      "x": 255,
      "y": 314,
      "size": 1,
      "price": "1011000000000000000000",
      "reserved": "",
      "salt": "0x8b2bfe522cc6349cbd9fdb9a9f9e06e0a3d29fdb2f9d6a7a0d514787ae6c2eaf",
      "assetIds": []
    },
    {
      "x": 255,
      "y": 315,
      "size": 1,
      "price": "1011000000000000000000",
      "reserved": "",
      "salt": "0x507d17759af645ca95786ce1eafc480921b0d228bde7b9d93a8f6f32b1a15c27",
      "assetIds": []
    },
    {
      "x": 255,
      "y": 316,
      "size": 1,
      "price": "1011000000000000000000",
      "reserved": "",
      "salt": "0x25ed5810b50cb8b7007ec9b2390449ccc506e6d077a9bce45ef6c224bcaffddb",
      "assetIds": []
    },
    {
      "x": 255,
      "y": 317,
      "size": 1,
      "price": "1011000000000000000000",
      "reserved": "",
      "salt": "0x2e818ff8ef2a6578d7e5668ee8e5eb168bb3e2addf5a8dffdfc6e5d067a2ed07",
      "assetIds": []
    },
    {
      "x": 255,
      "y": 318,
      "size": 1,
      "price": "1011000000000000000000",
      "reserved": "",
      "salt": "0xb806ade0eba8787b377a1538664618c6550ece70ccb1a802829edf2e0f7b727b",
      "assetIds": []
    },
    {
      "x": 255,
      "y": 319,
      "size": 1,
      "price": "1011000000000000000000",
      "reserved": "",
      "salt": "0x52f5a3306f4a4bd58d96fa637bbdae0d20117cb2148323c580617545a473a7e7",
      "assetIds": []
    },
    {
      "x": 255,
      "y": 320,
      "size": 1,
      "price": "1011000000000000000000",
      "reserved": "",
      "salt": "0x408d1afbf08f8b6b54b879e7c9ee88d09359e387befe2c7a7744a7fe8067f652",
      "assetIds": []
    },
    {
      "x": 255,
      "y": 321,
      "size": 1,
      "price": "1011000000000000000000",
      "reserved": "",
      "salt": "0xa1c8d615e4a260442801adb13316a3fee973db6415632ee1f49f7e696b21de48",
      "assetIds": []
    },
    {
      "x": 255,
      "y": 322,
      "size": 1,
      "price": "1011000000000000000000",
      "reserved": "",
      "salt": "0xe24c1439d70b41c17b7a7996ecaea6b8e38280d4500f4822ce6bb02688c43d88",
      "assetIds": []
    },
    {
      "x": 255,
      "y": 323,
      "size": 1,
      "price": "4683000000000000000000",
      "reserved": "",
      "salt": "0x7953febaa1655de2b6d37c0c3d4aa62cfd576b64808b524db575088e66b301cb",
      "assetIds": [
        "41506478881403507969696680653240014914910929820314476107906210059990541021186"
      ]
    },
    {
      "x": 256,
      "y": 312,
      "size": 1,
      "price": "1011000000000000000000",
      "reserved": "",
      "salt": "0x8f3eedbe114824297b15a658e57c51767496b7f3762a50cd03f02667b6d24fff",
      "assetIds": []
    },
    {
      "x": 256,
      "y": 313,
      "size": 1,
      "price": "1011000000000000000000",
      "reserved": "",
      "salt": "0xb4d72d05094ff9a2c56cb1957eaa6163c25841ad4927bce5de378b43b4422b3f",
      "assetIds": []
    },
    {
      "x": 256,
      "y": 314,
      "size": 1,
      "price": "1011000000000000000000",
      "reserved": "",
      "salt": "0x135bd729dc5216aa239c7088f6010da525f5a7e5ed62d416f613bdd3340ac818",
      "assetIds": []
    },
    {
      "x": 256,
      "y": 315,
      "size": 1,
      "price": "1011000000000000000000",
      "reserved": "",
      "salt": "0x07c28e59228f2465dea99a160cd4f6d55b45f7249a3e4549d112921adbaf6540",
      "assetIds": []
    },
    {
      "x": 256,
      "y": 316,
      "size": 1,
      "price": "1011000000000000000000",
      "reserved": "",
      "salt": "0x6ac324c350f6130ce1ee2d01737041122bc526c045dcdcd8bde3ed43c935dee3",
      "assetIds": []
    },
    {
      "x": 256,
      "y": 317,
      "size": 1,
      "price": "1011000000000000000000",
      "reserved": "",
      "salt": "0xd2ef547da8f99654f5a10d49140519e75c47caec32ad449aa8175c3a6327d2f6",
      "assetIds": []
    },
    {
      "x": 256,
      "y": 318,
      "size": 1,
      "price": "4683000000000000000000",
      "reserved": "",
      "salt": "0x97901e5ec37fb9477db36b9e081d5b1afcf643dce59607e6fa1750820e1c82c0",
      "assetIds": [
        "41506478881403507969696680653240014914910929820314476107906210059990541021186"
      ]
    },
    {
      "x": 256,
      "y": 319,
      "size": 1,
      "price": "4683000000000000000000",
      "reserved": "",
      "salt": "0xabbab476f7a2cca4eb99b0f4694242ae24a0f3a76c109ad6e3524e7117b6dc22",
      "assetIds": [
        "41506478881403507969696680653240014914910929820314476107906210059990541021186"
      ]
    },
    {
      "x": 256,
      "y": 320,
      "size": 1,
      "price": "4683000000000000000000",
      "reserved": "",
      "salt": "0xc954a9b8f98f82959c0ee83adc29120d489b02d9d68497675dc8dd6c5304dd26",
      "assetIds": [
        "41506478881403507969696680653240014914910929820314476107906210059990541021186"
      ]
    },
    {
      "x": 256,
      "y": 321,
      "size": 1,
      "price": "4683000000000000000000",
      "reserved": "",
      "salt": "0x9f8e45ffa688e87a1495c5a0731b0de2c4387be26b395aac0af4a841de60d7a7",
      "assetIds": [
        "41506478881403507969696680653240014914910929820314476107906210059990541021186"
      ]
    },
    {
      "x": 256,
      "y": 322,
      "size": 1,
      "price": "1011000000000000000000",
      "reserved": "",
      "salt": "0x5c58b4ee112642f435a7986c29055826cdceb5e447ff617b6b77c291f6f4480b",
      "assetIds": []
    },
    {
      "x": 256,
      "y": 323,
      "size": 1,
      "price": "4683000000000000000000",
      "reserved": "",
      "salt": "0xeff390203cec62bbfe3671e07adb92f8294c39d47c1f528aec363b6469dcd49a",
      "assetIds": [
        "41506478881403507969696680653240014914910929820314476107906210059990541021186"
      ]
    },
    {
      "x": 257,
      "y": 312,
      "size": 1,
      "price": "1011000000000000000000",
      "reserved": "",
      "salt": "0x896cdbf3ce3c36a3eec3c74cc664145485476ef7f3209065baac89359a791ed8",
      "assetIds": []
    },
    {
      "x": 257,
      "y": 313,
      "size": 1,
      "price": "1011000000000000000000",
      "reserved": "",
      "salt": "0x3b13364a342b518f8cfa9d16aedd2c27f651372a6f13b7641bd8e6a7167a8bfa",
      "assetIds": []
    },
    {
      "x": 257,
      "y": 314,
      "size": 1,
      "price": "1011000000000000000000",
      "reserved": "",
      "salt": "0x72212821c7922b8c88474cb043389cd0d1b76d3191cf548ab3da285dfbd2a9db",
      "assetIds": []
    },
    {
      "x": 257,
      "y": 315,
      "size": 1,
      "price": "1011000000000000000000",
      "reserved": "0x7a9fe22691c811ea339d9b73150e6911a5343dca",
      "salt": "0xf54fe0dbfe34d6ecc8bafbfb765eb1b0838e19fb1225c57e1e144362a216031b",
      "assetIds": []
    },
    {
      "x": 257,
      "y": 316,
      "size": 1,
      "price": "1011000000000000000000",
      "reserved": "",
      "salt": "0x1e1f67c4c40aa8ccbc800f6e01bc519809b42e84ff8ada4b8ea105442985e81b",
      "assetIds": []
    },
    {
      "x": 257,
      "y": 317,
      "size": 1,
      "price": "4683000000000000000000",
      "reserved": "",
      "salt": "0x9970e4b0027ef5d422cde91d4d531dfdf8fa95889225e6fdd684b35ad92f9be9",
      "assetIds": [
        "41506478881403507969696680653240014914910929820314476107906210059990541021186"
      ]
    },
    {
      "x": 257,
      "y": 318,
      "size": 1,
      "price": "4683000000000000000000",
      "reserved": "",
      "salt": "0xdcdc0754ea75d52d5044689e145a771b3948fdd822ed1bc569471805145e629b",
      "assetIds": [
        "41506478881403507969696680653240014914910929820314476107906210059990541021186"
      ]
    },
    {
      "x": 257,
      "y": 319,
      "size": 1,
      "price": "4683000000000000000000",
      "reserved": "",
      "salt": "0x7a2dd61da26587f14e30ee6f59037cb4c939d8897cce20ccf2722685290a3557",
      "assetIds": [
        "41506478881403507969696680653240014914910929820314476107906210059990541021186"
      ]
    },
    {
      "x": 257,
      "y": 320,
      "size": 1,
      "price": "4683000000000000000000",
      "reserved": "",
      "salt": "0x5c9bd21446ac2fea66a9197fd8f865b091189d15670f7b506e21354bd52cf05d",
      "assetIds": [
        "41506478881403507969696680653240014914910929820314476107906210059990541021186"
      ]
    },
    {
      "x": 257,
      "y": 321,
      "size": 1,
      "price": "4683000000000000000000",
      "reserved": "",
      "salt": "0x6da6879c18b6445710f2bcc556b5d998c251ceffbfb76588c867ba5e847d3aef",
      "assetIds": [
        "41506478881403507969696680653240014914910929820314476107906210059990541021186"
      ]
    },
    {
      "x": 257,
      "y": 322,
      "size": 1,
      "price": "4683000000000000000000",
      "reserved": "",
      "salt": "0x80eba7accb02d927fe8ee89d2f678aa9ca8729014f959bde061c4a399ebe4fc1",
      "assetIds": [
        "41506478881403507969696680653240014914910929820314476107906210059990541021186"
      ]
    },
    {
      "x": 257,
      "y": 323,
      "size": 1,
      "price": "4683000000000000000000",
      "reserved": "",
      "salt": "0xec30d8d6e83172a25c20809879163097e4483e0aa9f5dee0f51d21fdeb60f507",
      "assetIds": [
        "41506478881403507969696680653240014914910929820314476107906210059990541021186"
      ]
    },
    {
      "x": 258,
      "y": 312,
      "size": 1,
      "price": "1011000000000000000000",
      "reserved": "",
      "salt": "0x382a6901499d82ef685cf56ac673c37785741d51f87febcd3d9f7c4190e1a4df",
      "assetIds": []
    },
    {
      "x": 258,
      "y": 313,
      "size": 1,
      "price": "1011000000000000000000",
      "reserved": "",
      "salt": "0xc54887ec5f0474c25363cda84b3a6ef97e64a4f30f6d5cad26f4c4ff12f3a9c1",
      "assetIds": []
    },
    {
      "x": 258,
      "y": 314,
      "size": 1,
      "price": "1011000000000000000000",
      "reserved": "",
      "salt": "0x2bcd1ea9f8a0e0b50ac939993bd6a58725b1fd2a33488f219528b6709dd07f2f",
      "assetIds": []
    },
    {
      "x": 258,
      "y": 315,
      "size": 1,
      "price": "1011000000000000000000",
      "reserved": "",
      "salt": "0x80eba19cc70254c4e507f76b4dfa247d22fb457b93402f78d4d36bf87dd296e8",
      "assetIds": []
    },
    {
      "x": 258,
      "y": 316,
      "size": 1,
      "price": "1011000000000000000000",
      "reserved": "",
      "salt": "0xad9541901d179ec4b6cb9944716812761dc6074763b4163844b7675405390f1a",
      "assetIds": []
    },
    {
      "x": 258,
      "y": 317,
      "size": 1,
      "price": "4683000000000000000000",
      "reserved": "",
      "salt": "0xbb19f411c3392feab190a805a8aa6fecef29ecea62a8c6e206ef5bf1b4506504",
      "assetIds": [
        "41506478881403507969696680653240014914910929820314476107906210059990541021186"
      ]
    },
    {
      "x": 259,
      "y": 312,
      "size": 1,
      "price": "1011000000000000000000",
      "reserved": "",
      "salt": "0xc11baf23a2e88c1daff63ff42d2b9162fab0d01cfe1bd67f9ae3fa88b7a1e4db",
      "assetIds": []
    },
    {
      "x": 259,
      "y": 313,
      "size": 1,
      "price": "1011000000000000000000",
      "reserved": "0x7a9fe22691c811ea339d9b73150e6911a5343dca",
      "salt": "0x9ce79d1f1fa7b7409fc0687a97c6d5db94cee46c25ae68a9f6ec4eca36ebef66",
      "assetIds": []
    },
    {
      "x": 259,
      "y": 314,
      "size": 1,
      "price": "1011000000000000000000",
      "reserved": "",
      "salt": "0x4a117a034d511a9c3ab683ba59f12cd4e5afff294dc06e71b244f779678b5cdb",
      "assetIds": []
    },
    {
      "x": 259,
      "y": 315,
      "size": 1,
      "price": "1011000000000000000000",
      "reserved": "",
      "salt": "0x5440a51cd23d4d656392d4557dbee3a8500d49df903e4025b26508cba26b567e",
      "assetIds": []
    },
    {
      "x": 259,
      "y": 316,
      "size": 1,
      "price": "4683000000000000000000",
      "reserved": "",
      "salt": "0xa59955b0e6eb13e111fae955bd4924dec189e74dd2124526017dc4e930972c2c",
      "assetIds": [
        "41506478881403507969696680653240014914910929820314476107906210059990541021186"
      ]
    },
    {
      "x": 259,
      "y": 317,
      "size": 1,
      "price": "4683000000000000000000",
      "reserved": "",
      "salt": "0xa011de19317ddcf71f0ae75d4863bc4218f614cd0d152270d404c68dfab181eb",
      "assetIds": [
        "41506478881403507969696680653240014914910929820314476107906210059990541021186"
      ]
    },
    {
      "x": 260,
      "y": 312,
      "size": 1,
      "price": "1011000000000000000000",
      "reserved": "",
      "salt": "0xbc7116b70d7d458625eef5209f7584103a676469bc5ff9544de7a954480d9978",
      "assetIds": []
    },
    {
      "x": 260,
      "y": 313,
      "size": 1,
      "price": "1011000000000000000000",
      "reserved": "",
      "salt": "0x1e082a2cb0c9ce59da5521ec3d77c95cbb6f2df97529189b83ae6fc24c7a10bf",
      "assetIds": []
    },
    {
      "x": 260,
      "y": 314,
      "size": 1,
      "price": "1011000000000000000000",
      "reserved": "",
      "salt": "0x14f3b68971d1a6a105508a165afb3b50de66eb6db17bb70fb125e3622c88bae8",
      "assetIds": []
    },
    {
      "x": 260,
      "y": 315,
      "size": 1,
      "price": "1011000000000000000000",
      "reserved": "",
      "salt": "0x286fdd140386ed8a3d12cef155f64e3839311deade072d136c321ad2ffc7fa9e",
      "assetIds": []
    },
    {
      "x": 260,
      "y": 316,
      "size": 1,
      "price": "4683000000000000000000",
      "reserved": "",
      "salt": "0x10ad1b3670f67fde50d91f2c17250ea88ef48d04309ab0006aecb0101b0f0af7",
      "assetIds": [
        "41506478881403507969696680653240014914910929820314476107906210059990541021186"
      ]
    },
    {
      "x": 260,
      "y": 317,
      "size": 1,
      "price": "4683000000000000000000",
      "reserved": "",
      "salt": "0x81ea99300ddade71f0d91a9e458b97c8001463c30c4c83c744f3f7c0b6e94f95",
      "assetIds": [
        "41506478881403507969696680653240014914910929820314476107906210059990541021186"
      ]
    },
    {
      "x": 261,
      "y": 312,
      "size": 1,
      "price": "1011000000000000000000",
      "reserved": "",
      "salt": "0x05b3aa813af61cb821c16b5f38e248ffbdddd3a240ef0890b9bc1e9084b16602",
      "assetIds": []
    },
    {
      "x": 261,
      "y": 313,
      "size": 1,
      "price": "1011000000000000000000",
      "reserved": "0x7a9fe22691c811ea339d9b73150e6911a5343dca",
      "salt": "0x5f1a7baa75b176e283c8d3078263fdbc9588f31ea7b70c8af7fcb93b2114bbb0",
      "assetIds": []
    },
    {
      "x": 261,
      "y": 314,
      "size": 1,
      "price": "1011000000000000000000",
      "reserved": "",
      "salt": "0x7a7aba046bcd37d944f69b37fc82a373294bf74c8e323aa45e7044e85de64cb2",
      "assetIds": []
    },
    {
      "x": 261,
      "y": 315,
      "size": 1,
      "price": "1011000000000000000000",
      "reserved": "",
      "salt": "0x58c1764c0e9bc7d8a90d85e5e1518d2f685b6aefcec9a6952adaa2ecac5f86b2",
      "assetIds": []
    },
    {
      "x": 261,
      "y": 316,
      "size": 1,
      "price": "4683000000000000000000",
      "reserved": "",
      "salt": "0xf8d0fc79004e49417ed9adaffb9c84fdb1b4a5324fa3b372ad69cba174d544ee",
      "assetIds": [
        "41506478881403507969696680653240014914910929820314476107906210059990541021186"
      ]
    },
    {
      "x": 261,
      "y": 317,
      "size": 1,
      "price": "4683000000000000000000",
      "reserved": "",
      "salt": "0xee83cdf4f37062dbf697965b901dd1d10d0e60f9740a638afa3925501037b192",
      "assetIds": [
        "41506478881403507969696680653240014914910929820314476107906210059990541021186"
      ]
    },
    {
      "x": 262,
      "y": 312,
      "size": 1,
      "price": "1011000000000000000000",
      "reserved": "",
      "salt": "0x11287a33c877cf60a38bd49a4f8b8419bf167043aac736ad068614d62e66af78",
      "assetIds": []
    },
    {
      "x": 262,
      "y": 313,
      "size": 1,
      "price": "1011000000000000000000",
      "reserved": "",
      "salt": "0xcd00b1af849d5893093ca32b60c0a258e5dce46782364ee50804e1d4038759a7",
      "assetIds": []
    },
    {
      "x": 262,
      "y": 314,
      "size": 1,
      "price": "1011000000000000000000",
      "reserved": "",
      "salt": "0x7ee36581c8bc216e28d2b151ef0d43a98a410628ff7b0d0abadeca0ba8d531a0",
      "assetIds": []
    },
    {
      "x": 262,
      "y": 315,
      "size": 1,
      "price": "1011000000000000000000",
      "reserved": "",
      "salt": "0x4d423f944e725f5b1d9c8013ff0b75aa772932b3900363f8112a7434ef6b6a42",
      "assetIds": []
    },
    {
      "x": 262,
      "y": 316,
      "size": 1,
      "price": "4683000000000000000000",
      "reserved": "",
      "salt": "0x76c76fb7697b6094f8a9a634774115229079cf54b372b5c29a64f7a66ff03533",
      "assetIds": [
        "41506478881403507969696680653240014914910929820314476107906210059990541021186"
      ]
    },
    {
      "x": 262,
      "y": 317,
      "size": 1,
      "price": "4683000000000000000000",
      "reserved": "",
      "salt": "0x34613d0cf3843a0761126600e4578d1768c0eccd34063420f0f77945209d3c6a",
      "assetIds": [
        "41506478881403507969696680653240014914910929820314476107906210059990541021186"
      ]
    },
    {
      "x": 263,
      "y": 312,
      "size": 1,
      "price": "1011000000000000000000",
      "reserved": "",
      "salt": "0x4fa5c49ba03f886fa493b4f64f40607b72098c0bc31f7a230fc2dff588bd5457",
      "assetIds": []
    },
    {
      "x": 263,
      "y": 313,
      "size": 1,
      "price": "1011000000000000000000",
      "reserved": "0x7a9fe22691c811ea339d9b73150e6911a5343dca",
      "salt": "0x09f5ab8399942c8b65b0a33523687d52aa7f62b80751b0771976b0665e46c75d",
      "assetIds": []
    },
    {
      "x": 263,
      "y": 314,
      "size": 1,
      "price": "1011000000000000000000",
      "reserved": "",
      "salt": "0xcb21aaecc714f19114f5de3aef1c784bce70a9d49a942d5dbe125a9b85f11a32",
      "assetIds": []
    },
    {
      "x": 263,
      "y": 315,
      "size": 1,
      "price": "1011000000000000000000",
      "reserved": "0x7a9fe22691c811ea339d9b73150e6911a5343dca",
      "salt": "0x39a0e24101bf05ee5c0a5fc1495d4a5e8704754f905b15519469b2cd04ac334b",
      "assetIds": []
    },
    {
      "x": 263,
      "y": 316,
      "size": 1,
      "price": "4683000000000000000000",
      "reserved": "",
      "salt": "0x326a3a294e8a0744c6f559b72ee46144309ddc3e4abe4ffe95cdf9fc2b8f3a68",
      "assetIds": [
        "41506478881403507969696680653240014914910929820314476107906210059990541021186"
      ]
    },
    {
      "x": 263,
      "y": 317,
      "size": 1,
      "price": "4683000000000000000000",
      "reserved": "",
      "salt": "0xe8101c1ef12a50a9e36ad885f4a9b260a4fdc1366e0219465582b3cd620357c1",
      "assetIds": [
        "41506478881403507969696680653240014914910929820314476107906210059990541021186"
      ]
    },
    {
      "x": 264,
      "y": 312,
      "size": 1,
      "price": "1011000000000000000000",
      "reserved": "0x7a9fe22691c811ea339d9b73150e6911a5343dca",
      "salt": "0x2245fa09a314ee8d16f583bb4a07baa84f3376736fd33d1b528166e517e4d590",
      "assetIds": []
    },
    {
      "x": 264,
      "y": 313,
      "size": 1,
      "price": "1011000000000000000000",
      "reserved": "",
      "salt": "0x1a8a371a192569172e2ccfd1077d777b9f56e73014697f49153f8ecb6e879629",
      "assetIds": []
    },
    {
      "x": 264,
      "y": 314,
      "size": 1,
      "price": "1011000000000000000000",
      "reserved": "",
      "salt": "0x45b67d1b88c75febbfeee423114161722068b85838e34dadcfae27e535ea4d9c",
      "assetIds": []
    },
    {
      "x": 264,
      "y": 315,
      "size": 1,
      "price": "1011000000000000000000",
      "reserved": "0x7a9fe22691c811ea339d9b73150e6911a5343dca",
      "salt": "0xa6b0c84b2201995907709b0a4af288d3b4aba242115accec567e21e40348a620",
      "assetIds": []
    },
    {
      "x": 264,
      "y": 316,
      "size": 1,
      "price": "4683000000000000000000",
      "reserved": "",
      "salt": "0xa18aa358fc8eaedbde9a326af11b2075c9705cbf307f19142ac13e39175cd93a",
      "assetIds": [
        "41506478881403507969696680653240014914910929820314476107906210059990541021186"
      ]
    },
    {
      "x": 264,
      "y": 317,
      "size": 1,
      "price": "4683000000000000000000",
      "reserved": "",
      "salt": "0x4ac9d906ef0b91e28254a8f6222d12b043d1606699df0a489da9fb816da413b7",
      "assetIds": [
        "41506478881403507969696680653240014914910929820314476107906210059990541021186"
      ]
    },
    {
      "x": 264,
      "y": 318,
      "size": 1,
      "price": "4683000000000000000000",
      "reserved": "",
      "salt": "0x44d45fbda5fdf6562c8cce7ea4463548b4ff120e85378b54b3dee955369321c1",
      "assetIds": [
        "41506478881403507969696680653240014914910929820314476107906210059990541021186"
      ]
    },
    {
      "x": 264,
      "y": 319,
      "size": 1,
      "price": "4683000000000000000000",
      "reserved": "",
      "salt": "0xb1d1296d9c7cdb3c0f6a9c43cdba7474ab823d389431d2c7b196836d7320788f",
      "assetIds": [
        "41506478881403507969696680653240014914910929820314476107906210059990541021186"
      ]
    },
    {
      "x": 264,
      "y": 320,
      "size": 1,
      "price": "4683000000000000000000",
      "reserved": "",
      "salt": "0xabc59b530146dc58443a77e25b3aa6265fd4822889bfec4b595c5b896ae0547e",
      "assetIds": [
        "41506478881403507969696680653240014914910929820314476107906210059990541021186"
      ]
    },
    {
      "x": 264,
      "y": 321,
      "size": 1,
      "price": "4683000000000000000000",
      "reserved": "",
      "salt": "0x0eef94f5ff56a63ca4ff1780f839a3766e738d4f03ff274c62ed9597b235fe96",
      "assetIds": [
        "41506478881403507969696680653240014914910929820314476107906210059990541021186"
      ]
    },
    {
      "x": 264,
      "y": 322,
      "size": 1,
      "price": "4683000000000000000000",
      "reserved": "",
      "salt": "0x64bee19c20aff2c892a3b1a64c6bdc6684a5e7fd6c5962451bdf9c20799a1598",
      "assetIds": [
        "41506478881403507969696680653240014914910929820314476107906210059990541021186"
      ]
    },
    {
      "x": 264,
      "y": 323,
      "size": 1,
      "price": "4683000000000000000000",
      "reserved": "",
      "salt": "0x17a8445dc1155d0c1a3b901b012ea7485e42d6d7f0cf772c89437a831a3a239d",
      "assetIds": [
        "41506478881403507969696680653240014914910929820314476107906210059990541021186"
      ]
    },
    {
      "x": 265,
      "y": 312,
      "size": 1,
      "price": "1011000000000000000000",
      "reserved": "",
      "salt": "0x1b19fcef230b29ef15d0420e5509134010ff10d3389cd0ec6d58e8ab307915ee",
      "assetIds": []
    },
    {
      "x": 265,
      "y": 313,
      "size": 1,
      "price": "1011000000000000000000",
      "reserved": "",
      "salt": "0xdb3038effe31e341ad12fe68782338cc6ce53235f9528f478eecf2b1bfdb9a8c",
      "assetIds": []
    },
    {
      "x": 265,
      "y": 314,
      "size": 1,
      "price": "1011000000000000000000",
      "reserved": "",
      "salt": "0xd044548b06847e01bd7168cf4d58c033523d57c00474b7118f057c72059fbdb2",
      "assetIds": []
    },
    {
      "x": 265,
      "y": 315,
      "size": 1,
      "price": "1011000000000000000000",
      "reserved": "",
      "salt": "0x83d281eed6865ac86c1fd560573ad447c96762fd6e4bee657d53f0ea84d03178",
      "assetIds": []
    },
    {
      "x": 265,
      "y": 316,
      "size": 1,
      "price": "1011000000000000000000",
      "reserved": "",
      "salt": "0xabb42a3c102dc93757b58449125ee61867b77e58e10e9bc13a9bbab2d4f458b4",
      "assetIds": []
    },
    {
      "x": 265,
      "y": 317,
      "size": 1,
      "price": "1011000000000000000000",
      "reserved": "",
      "salt": "0xb30dfeec74b21af0b36627279bf4ed913fe0c68f62d46403d78f04302dabd0c7",
      "assetIds": []
    },
    {
      "x": 265,
      "y": 318,
      "size": 1,
      "price": "1011000000000000000000",
      "reserved": "",
      "salt": "0xd2ca0b3ebc7ebd5f93903eca11dac2754965f57dcdbc31dce964b8f909ab29b9",
      "assetIds": []
    },
    {
      "x": 265,
      "y": 319,
      "size": 1,
      "price": "1011000000000000000000",
      "reserved": "",
      "salt": "0x6140845b1d9985cb8d5b8d28ad08f8f0ace6b631a429db66139e18bbbcf3889c",
      "assetIds": []
    },
    {
      "x": 265,
      "y": 320,
      "size": 1,
      "price": "1011000000000000000000",
      "reserved": "",
      "salt": "0xb63b6e9472f242576274658968c0f9da4815c578828775c4636a15e13a27aa94",
      "assetIds": []
    },
    {
      "x": 265,
      "y": 321,
      "size": 1,
      "price": "1011000000000000000000",
      "reserved": "0x7a9fe22691c811ea339d9b73150e6911a5343dca",
      "salt": "0x055725092a3cb576936afc61398682eee0304a313e2056bdf47d698de9101daf",
      "assetIds": []
    },
    {
      "x": 265,
      "y": 322,
      "size": 1,
      "price": "4683000000000000000000",
      "reserved": "",
      "salt": "0xcb29c95cb75b576e03ee46549b7f67b246a20f62d33751cfa037f155e2ac9a88",
      "assetIds": [
        "41506478881403507969696680653240014914910929820314476107906210059990541021186"
      ]
    },
    {
      "x": 265,
      "y": 323,
      "size": 1,
      "price": "4683000000000000000000",
      "reserved": "",
      "salt": "0x11b8b8e275b3a54a9af80b2ef3a89e337f40559c7ef1720d9c4f9e7fcfb92610",
      "assetIds": [
        "41506478881403507969696680653240014914910929820314476107906210059990541021186"
      ]
    },
    {
      "x": 266,
      "y": 312,
      "size": 1,
      "price": "1011000000000000000000",
      "reserved": "",
      "salt": "0x0cbadbaefeccd12ff854f6c6821a18b908f11cdade59ddaebbbd990fa77eb396",
      "assetIds": []
    },
    {
      "x": 266,
      "y": 313,
      "size": 1,
      "price": "1011000000000000000000",
      "reserved": "",
      "salt": "0xbacd19f7848405251a6b20caf9af165f2a750d995e884a5d94c0d44680e70f74",
      "assetIds": []
    },
    {
      "x": 266,
      "y": 314,
      "size": 1,
      "price": "1011000000000000000000",
      "reserved": "",
      "salt": "0x3da9ee22ded8a0143a9c4a3396b874a02635dcc3ebeda9b727461eb53708efe7",
      "assetIds": []
    },
    {
      "x": 266,
      "y": 315,
      "size": 1,
      "price": "1011000000000000000000",
      "reserved": "",
      "salt": "0x92ec47f5281adfd757643a4553b20210b3c20037146c9520744aebb8fd524a90",
      "assetIds": []
    },
    {
      "x": 266,
      "y": 316,
      "size": 1,
      "price": "1011000000000000000000",
      "reserved": "",
      "salt": "0x8c6da3d5afaad1e5b84eeb435da2092ff0d2095bf333dc35f184d632d4efe18a",
      "assetIds": []
    },
    {
      "x": 266,
      "y": 317,
      "size": 1,
      "price": "1011000000000000000000",
      "reserved": "0x7a9fe22691c811ea339d9b73150e6911a5343dca",
      "salt": "0x997a401ea771d1de67905664f7811cd03ab30a0ea254b335e780b607b5f5c254",
      "assetIds": []
    },
    {
      "x": 266,
      "y": 318,
      "size": 1,
      "price": "1011000000000000000000",
      "reserved": "",
      "salt": "0xe44eba011d5301cbd915b8490ef05e56cd0d96951fd795df527095cf37328832",
      "assetIds": []
    },
    {
      "x": 266,
      "y": 319,
      "size": 1,
      "price": "1011000000000000000000",
      "reserved": "",
      "salt": "0x3e1d200ca1b9aa5409330993ce30974836f4d86fe1b51150b5f10cd9b1910c22",
      "assetIds": []
    },
    {
      "x": 266,
      "y": 320,
      "size": 1,
      "price": "1011000000000000000000",
      "reserved": "",
      "salt": "0x44475b8f8535fb2dadff89d64b3d74046af4a4132e65c966f61388d447af3e9a",
      "assetIds": []
    },
    {
      "x": 266,
      "y": 321,
      "size": 1,
      "price": "1011000000000000000000",
      "reserved": "",
      "salt": "0xa828d5f9081f553f81723b6bf690d901e360f2d0179918fb10c39eba861d1bb8",
      "assetIds": []
    },
    {
      "x": 266,
      "y": 322,
      "size": 1,
      "price": "4683000000000000000000",
      "reserved": "",
      "salt": "0xc038d37b448a72c71abb9e72491755e47423d461f6491c7ba5befa1b9f59857e",
      "assetIds": [
        "41506478881403507969696680653240014914910929820314476107906210059990541021186"
      ]
    },
    {
      "x": 266,
      "y": 323,
      "size": 1,
      "price": "4683000000000000000000",
      "reserved": "",
      "salt": "0x3d8dd6d50cf2b99fa64e7da8af850ba3f707c1086ed601b2bc7a8d109e477708",
      "assetIds": [
        "41506478881403507969696680653240014914910929820314476107906210059990541021186"
      ]
    },
    {
      "x": 267,
      "y": 312,
      "size": 1,
      "price": "1011000000000000000000",
      "reserved": "",
      "salt": "0x62791a35ac1b64dad00cd532ae63f58e714fd6bd911e37a8f5d80862dedf8043",
      "assetIds": []
    },
    {
      "x": 267,
      "y": 313,
      "size": 1,
      "price": "1011000000000000000000",
      "reserved": "",
      "salt": "0xeed59b7d1a41931c1b0a0527f345db54c6f3749524f109a75137a9f544cd7398",
      "assetIds": []
    },
    {
      "x": 267,
      "y": 314,
      "size": 1,
      "price": "1011000000000000000000",
      "reserved": "",
      "salt": "0x69174709d0dd68f9acf585fa3c9b2b1b0d5beffa2285ea44f9149b28ebdb5317",
      "assetIds": []
    },
    {
      "x": 267,
      "y": 315,
      "size": 1,
      "price": "1011000000000000000000",
      "reserved": "",
      "salt": "0x5711360ee55c2d28386455498b398fd8cb512781905fe947df506eecd9c8c646",
      "assetIds": []
    },
    {
      "x": 267,
      "y": 316,
      "size": 1,
      "price": "1011000000000000000000",
      "reserved": "",
      "salt": "0xab70d482f5440b8d83246207c7a79cb85c311251a3003d7abc5fe47f7716ac48",
      "assetIds": []
    },
    {
      "x": 267,
      "y": 317,
      "size": 1,
      "price": "1011000000000000000000",
      "reserved": "",
      "salt": "0x82c74a46ce1ede66e6a7cfaff871f7c7f0e87a609dbf77f29f805300b86021aa",
      "assetIds": []
    },
    {
      "x": 267,
      "y": 318,
      "size": 1,
      "price": "1011000000000000000000",
      "reserved": "",
      "salt": "0x0c25fcb3d33149fdf09dab0d1cdb87d57d90b2135282a82e819dabdd3eac0e2d",
      "assetIds": []
    },
    {
      "x": 267,
      "y": 319,
      "size": 1,
      "price": "1011000000000000000000",
      "reserved": "0x7a9fe22691c811ea339d9b73150e6911a5343dca",
      "salt": "0xc9c1602811c25f56337559a5c28e61454e7dd90a867c2335f678b8e15649e7b0",
      "assetIds": []
    },
    {
      "x": 267,
      "y": 320,
      "size": 1,
      "price": "1011000000000000000000",
      "reserved": "0x7a9fe22691c811ea339d9b73150e6911a5343dca",
      "salt": "0x2be03cf2f466459f82e273777b1dfcc7f9fa074a050363f6a7d46c76956660d3",
      "assetIds": []
    },
    {
      "x": 267,
      "y": 321,
      "size": 1,
      "price": "4683000000000000000000",
      "reserved": "",
      "salt": "0xa6b30f488b22f948f0cc2998febced6cecea865b4451fde1c43b6b162b0e715c",
      "assetIds": [
        "41506478881403507969696680653240014914910929820314476107906210059990541021186"
      ]
    },
    {
      "x": 267,
      "y": 322,
      "size": 1,
      "price": "4683000000000000000000",
      "reserved": "",
      "salt": "0x511c682109d2ca8ba8298e68c076824efb42af5e6e7cdfdab5ae70341e77bb17",
      "assetIds": [
        "41506478881403507969696680653240014914910929820314476107906210059990541021186"
      ]
    },
    {
      "x": 267,
      "y": 323,
      "size": 1,
      "price": "4683000000000000000000",
      "reserved": "",
      "salt": "0x0a44ba72f0f30146c9a266fb662df560d4e23f4965ce61811ff59c11e2956d6c",
      "assetIds": [
        "41506478881403507969696680653240014914910929820314476107906210059990541021186"
      ]
    },
    {
      "x": 268,
      "y": 312,
      "size": 1,
      "price": "1011000000000000000000",
      "reserved": "",
      "salt": "0x52ee6888959a0f2c74bfbc74d6654da70747feec352000bc899aecb363624a5e",
      "assetIds": []
    },
    {
      "x": 268,
      "y": 313,
      "size": 1,
      "price": "1011000000000000000000",
      "reserved": "",
      "salt": "0x17abc098725fe24b6ec47fe9fd63e25919bca30848c358b86bb5f14ec80d352a",
      "assetIds": []
    },
    {
      "x": 268,
      "y": 314,
      "size": 1,
      "price": "1011000000000000000000",
      "reserved": "",
      "salt": "0x37add2cee141e4db539c601daf998af1187e22e72ea3c70866f18e0374069f4d",
      "assetIds": []
    },
    {
      "x": 268,
      "y": 315,
      "size": 1,
      "price": "1011000000000000000000",
      "reserved": "",
      "salt": "0xef2aac23d6c31658c4211285e94adf20edcbf56ea85aa7d08dedabe5608d092c",
      "assetIds": []
    },
    {
      "x": 268,
      "y": 316,
      "size": 1,
      "price": "1011000000000000000000",
      "reserved": "",
      "salt": "0x405353added099439d28ddbea962f69218660d064db51422b80afbc624b11ad9",
      "assetIds": []
    },
    {
      "x": 268,
      "y": 317,
      "size": 1,
      "price": "1011000000000000000000",
      "reserved": "",
      "salt": "0x0f1fbac142242d9728b12479dde0d22d32cfac5229d441789f8e0f48021275cd",
      "assetIds": []
    },
    {
      "x": 268,
      "y": 318,
      "size": 1,
      "price": "1011000000000000000000",
      "reserved": "",
      "salt": "0xe001e79d339e5be8cef2785a796a2596799476c593a6500d6821eef9e1a49189",
      "assetIds": []
    },
    {
      "x": 268,
      "y": 319,
      "size": 1,
      "price": "1011000000000000000000",
      "reserved": "",
      "salt": "0x76f5b2b4475a092cd2a8d025208a12c0f23bc30e623137b0aca560b79107d1a7",
      "assetIds": []
    },
    {
      "x": 268,
      "y": 320,
      "size": 1,
      "price": "1011000000000000000000",
      "reserved": "0x7a9fe22691c811ea339d9b73150e6911a5343dca",
      "salt": "0x9663a6b2d08c16dc3f957b38bfe4712de2f8f21ed87125e9eb8d41a9e5f2e799",
      "assetIds": []
    },
    {
      "x": 268,
      "y": 321,
      "size": 1,
      "price": "1011000000000000000000",
      "reserved": "0x7a9fe22691c811ea339d9b73150e6911a5343dca",
      "salt": "0x7f7b5e615825a766b2c4400458812e1d6261c816938cc3894f948ad19e6d26ef",
      "assetIds": []
    },
    {
      "x": 268,
      "y": 322,
      "size": 1,
      "price": "4683000000000000000000",
      "reserved": "",
      "salt": "0xa3ce93a5c8a51d96af83eb87657925093cd8abd6f599d9924c0812bc066536cd",
      "assetIds": [
        "41506478881403507969696680653240014914910929820314476107906210059990541021186"
      ]
    },
    {
      "x": 268,
      "y": 323,
      "size": 1,
      "price": "4683000000000000000000",
      "reserved": "",
      "salt": "0xa5d6df360aafa66fd4e01427f9089ebc6b882539b513812472f9d17b76b6ec0b",
      "assetIds": [
        "41506478881403507969696680653240014914910929820314476107906210059990541021186"
      ]
    },
    {
      "x": 269,
      "y": 312,
      "size": 1,
      "price": "1011000000000000000000",
      "reserved": "",
      "salt": "0x4e5dd2136056dd2809f63096c79cf41729e269a1bb77d34ad561fcfa3f153b75",
      "assetIds": []
    },
    {
      "x": 269,
      "y": 313,
      "size": 1,
      "price": "1011000000000000000000",
      "reserved": "",
      "salt": "0xef65d1f37f967e573cfa68ee28878ab377c1bb490d90f3f9c0c44f27eac9d998",
      "assetIds": []
    },
    {
      "x": 269,
      "y": 314,
      "size": 1,
      "price": "1011000000000000000000",
      "reserved": "",
      "salt": "0x7a574a03f9725cf3582a33a2817b3077827a49273cfa9db74fa8f426a5aa29aa",
      "assetIds": []
    },
    {
      "x": 269,
      "y": 315,
      "size": 1,
      "price": "1011000000000000000000",
      "reserved": "0x7a9fe22691c811ea339d9b73150e6911a5343dca",
      "salt": "0xaf1e24afff1be4cc1a921d914989da699d6b13f793a0f3bf7fb7d72040cc7663",
      "assetIds": []
    },
    {
      "x": 269,
      "y": 316,
      "size": 1,
      "price": "1011000000000000000000",
      "reserved": "",
      "salt": "0xb4c2edad20b28467727230b106f7d92feafb26025b156576fb39ddf57ad5a98f",
      "assetIds": []
    },
    {
      "x": 269,
      "y": 317,
      "size": 1,
      "price": "1011000000000000000000",
      "reserved": "",
      "salt": "0x5c9b10c9ccf5c33336f7f9a6e15ebd26d806bbb9b73e732284a0e13199b97239",
      "assetIds": []
    },
    {
      "x": 269,
      "y": 318,
      "size": 1,
      "price": "1011000000000000000000",
      "reserved": "0x7a9fe22691c811ea339d9b73150e6911a5343dca",
      "salt": "0x49e50ac4f78d9171475e879d1e45e70263dd88d945f47bdc0f2e062af3e96ffd",
      "assetIds": []
    },
    {
      "x": 269,
      "y": 319,
      "size": 1,
      "price": "1011000000000000000000",
      "reserved": "",
      "salt": "0x336b917b9c04f26f5b52c063aa7be999b6f1d95ce4581d17a42c4d8b545b5f7a",
      "assetIds": []
    },
    {
      "x": 269,
      "y": 320,
      "size": 1,
      "price": "4683000000000000000000",
      "reserved": "",
      "salt": "0x7781961d19bbb04017bd2efa9f3534f1281cab53354394c702653002e94b9d43",
      "assetIds": [
        "41506478881403507969696680653240014914910929820314476107906210059990541021186"
      ]
    },
    {
      "x": 269,
      "y": 321,
      "size": 1,
      "price": "4683000000000000000000",
      "reserved": "",
      "salt": "0x2be2cee6767edb10d3a006865eccada0201c8cacf859d91de54544afa4ae411b",
      "assetIds": [
        "41506478881403507969696680653240014914910929820314476107906210059990541021186"
      ]
    },
    {
      "x": 269,
      "y": 322,
      "size": 1,
      "price": "4683000000000000000000",
      "reserved": "",
      "salt": "0x7cefe407182d6d02b88ba950e0a3819a5a0bdf8122066950b9da036ff57b7db6",
      "assetIds": [
        "41506478881403507969696680653240014914910929820314476107906210059990541021186"
      ]
    },
    {
      "x": 269,
      "y": 323,
      "size": 1,
      "price": "4683000000000000000000",
      "reserved": "",
      "salt": "0x868e121ca52a410e523e3f929f1c0a333e35a9ef2d8ddf1dc0c2b0265e9152af",
      "assetIds": [
        "41506478881403507969696680653240014914910929820314476107906210059990541021186"
      ]
    },
    {
      "x": 270,
      "y": 312,
      "size": 1,
      "price": "1011000000000000000000",
      "reserved": "",
      "salt": "0x7feb4b2a5265d9be2f07e8238c1b43c648a2e5c2742d6467afafda3a4d2b22bd",
      "assetIds": []
    },
    {
      "x": 270,
      "y": 313,
      "size": 1,
      "price": "1011000000000000000000",
      "reserved": "",
      "salt": "0x5d4f30e5d9499b1476be64f46cb15f191b0a92b7246a63dea7efe16aff34427d",
      "assetIds": []
    },
    {
      "x": 270,
      "y": 314,
      "size": 1,
      "price": "1011000000000000000000",
      "reserved": "",
      "salt": "0xe6d87f7897316bfa769ef863403543802749456a7d7a52e22fb321fe83b2a6fd",
      "assetIds": []
    },
    {
      "x": 270,
      "y": 315,
      "size": 1,
      "price": "1011000000000000000000",
      "reserved": "",
      "salt": "0xcf0fdcddad30b664442526765111882754a2b85f3bbdaa7c0912e10f817693b4",
      "assetIds": []
    },
    {
      "x": 270,
      "y": 316,
      "size": 1,
      "price": "1011000000000000000000",
      "reserved": "",
      "salt": "0x47fc59cd739e3b771a85762045cefd74871cabab6048c729f96c7c0fe7eb3f48",
      "assetIds": []
    },
    {
      "x": 270,
      "y": 317,
      "size": 1,
      "price": "1011000000000000000000",
      "reserved": "",
      "salt": "0xcbf95d10e547b14d68cb3741226c2026144a9d9104884d364857fd1b913c362f",
      "assetIds": []
    },
    {
      "x": 270,
      "y": 318,
      "size": 1,
      "price": "1011000000000000000000",
      "reserved": "",
      "salt": "0x6fb9a8a3701249faa9775ca3d8c897364a2d62a1cac731202f1109632967123c",
      "assetIds": []
    },
    {
      "x": 270,
      "y": 319,
      "size": 1,
      "price": "1011000000000000000000",
      "reserved": "",
      "salt": "0xcb81ffb7112bc490851f07e592706a7fe8a39725edad2fcd398e26b3cda53afc",
      "assetIds": []
    },
    {
      "x": 270,
      "y": 320,
      "size": 1,
      "price": "4683000000000000000000",
      "reserved": "",
      "salt": "0xcc11ddf600d8d225e69718ef11f70c218ce392b2768450a919a0d6c560a654a0",
      "assetIds": [
        "41506478881403507969696680653240014914910929820314476107906210059990541021186"
      ]
    },
    {
      "x": 271,
      "y": 312,
      "size": 1,
      "price": "1011000000000000000000",
      "reserved": "",
      "salt": "0xfcbfbd6396b5b189f271d92f2f30971b2b261206ae237270bcdffd90d6e1a587",
      "assetIds": []
    },
    {
      "x": 271,
      "y": 313,
      "size": 1,
      "price": "1011000000000000000000",
      "reserved": "",
      "salt": "0x7be0e875b19e564fc330cd44369fde9e771a42d83e537936cb22736075653f46",
      "assetIds": []
    },
    {
      "x": 271,
      "y": 314,
      "size": 1,
      "price": "1011000000000000000000",
      "reserved": "",
      "salt": "0x0cb67389a0273d7897ddeef481e453f304df847ef759cbaeb87928862fcf7134",
      "assetIds": []
    },
    {
      "x": 271,
      "y": 315,
      "size": 1,
      "price": "1011000000000000000000",
      "reserved": "",
      "salt": "0x1f4902575568dbaf94cec76a28fbac7aad5d9b30c8eb1ed57ea377346ce8e649",
      "assetIds": []
    },
    {
      "x": 271,
      "y": 316,
      "size": 1,
      "price": "1011000000000000000000",
      "reserved": "",
      "salt": "0xdd140e693c4a600d19c6ef25ad8500f7f2d0b42bd2a424a87f0c7d803029626e",
      "assetIds": []
    },
    {
      "x": 271,
      "y": 317,
      "size": 1,
      "price": "1011000000000000000000",
      "reserved": "0x7a9fe22691c811ea339d9b73150e6911a5343dca",
      "salt": "0xfcc1cfb16095a330bae152fec3a7566dbd18b834c785734ed47737e05bd305a0",
      "assetIds": []
    },
    {
      "x": 271,
      "y": 318,
      "size": 1,
      "price": "1011000000000000000000",
      "reserved": "",
      "salt": "0x747d3e1a5aba9dff69ba60a627eaf9cbb138b6bf9bb923445bed876931047245",
      "assetIds": []
    },
    {
      "x": 271,
      "y": 319,
      "size": 1,
      "price": "1011000000000000000000",
      "reserved": "0x7a9fe22691c811ea339d9b73150e6911a5343dca",
      "salt": "0xff808cb3e39c6963b05a2c82059dfd0b5ac772b0c7f4a2c5f6da28f9a66055d4",
      "assetIds": []
    },
    {
      "x": 271,
      "y": 320,
      "size": 1,
      "price": "4683000000000000000000",
      "reserved": "",
      "salt": "0xdba0d93a58e9290de4c5a5b054552ae0bdff94833e614b5f570076f785651887",
      "assetIds": [
        "41506478881403507969696680653240014914910929820314476107906210059990541021186"
      ]
    },
    {
      "x": 272,
      "y": 312,
      "size": 1,
      "price": "1011000000000000000000",
      "reserved": "",
      "salt": "0x996f6bedb2b01c2d7aad2d82efb0c7caac6b2bc9376ada8b4a2725a2c48d5471",
      "assetIds": []
    },
    {
      "x": 272,
      "y": 313,
      "size": 1,
      "price": "1011000000000000000000",
      "reserved": "0x7a9fe22691c811ea339d9b73150e6911a5343dca",
      "salt": "0x4dd8e8657f0930c011a64188cabc2db2bdec4aea8662eba731387345ee5195ed",
      "assetIds": []
    },
    {
      "x": 272,
      "y": 314,
      "size": 1,
      "price": "1011000000000000000000",
      "reserved": "",
      "salt": "0x5362bf27c29620454dbf6a32fe7e61407748fd4966610cfbb910960b1acb7122",
      "assetIds": []
    },
    {
      "x": 272,
      "y": 315,
      "size": 1,
      "price": "1011000000000000000000",
      "reserved": "0x7a9fe22691c811ea339d9b73150e6911a5343dca",
      "salt": "0xd90a1ffaaf863e7877f6b79c216151dc844840f802e602a50c129ea7a8cd2e78",
      "assetIds": []
    },
    {
      "x": 272,
      "y": 316,
      "size": 1,
      "price": "1011000000000000000000",
      "reserved": "",
      "salt": "0x3277471dc77be5f488bc3367016e3843cf448a6eaa5e355b154fbf888872c976",
      "assetIds": []
    },
    {
      "x": 272,
      "y": 317,
      "size": 1,
      "price": "1011000000000000000000",
      "reserved": "",
      "salt": "0xbb42400f36cfd3916ab5ced7ff34725ca2d4f2c86f72331b50512da445f51206",
      "assetIds": []
    },
    {
      "x": 272,
      "y": 318,
      "size": 1,
      "price": "1011000000000000000000",
      "reserved": "",
      "salt": "0xabaffc030585c46dd6f52cfc021220c45bd1b8a000fb476d84c77f6831a2ccb6",
      "assetIds": []
    },
    {
      "x": 272,
      "y": 319,
      "size": 1,
      "price": "1011000000000000000000",
      "reserved": "",
      "salt": "0x7bbbe7855a2bd985985286db17746b73c89a43a8809e660e873e2f9458566edc",
      "assetIds": []
    },
    {
      "x": 272,
      "y": 320,
      "size": 1,
      "price": "4683000000000000000000",
      "reserved": "",
      "salt": "0x5af539288ffb9f2cf1d5e02a55b25df7332234f78470472d8a38852d22a09a74",
      "assetIds": [
        "41506478881403507969696680653240014914910929820314476107906210059990541021186"
      ]
    },
    {
      "x": 273,
      "y": 312,
      "size": 1,
      "price": "1011000000000000000000",
      "reserved": "",
      "salt": "0x186541dc54fd283f037f0c2e90a24f38e1e64b1c9953d06a4a108e9a24592608",
      "assetIds": []
    },
    {
      "x": 273,
      "y": 313,
      "size": 1,
      "price": "1011000000000000000000",
      "reserved": "",
      "salt": "0x149b3851df93a7e12e3c5cb148ae7cdeea7a62086dcf46bd8643c3950445ba80",
      "assetIds": []
    },
    {
      "x": 273,
      "y": 314,
      "size": 1,
      "price": "1011000000000000000000",
      "reserved": "",
      "salt": "0x394ddc93b9b0d31430badff39aa35b0845f8678fa2ded8fbe4be94883ec85dee",
      "assetIds": []
    },
    {
      "x": 273,
      "y": 315,
      "size": 1,
      "price": "1011000000000000000000",
      "reserved": "0x7a9fe22691c811ea339d9b73150e6911a5343dca",
      "salt": "0xaf68af7e4aea3371667d76c59634140027a3f3b727ac93a1320b59f59b1d5491",
      "assetIds": []
    },
    {
      "x": 273,
      "y": 316,
      "size": 1,
      "price": "1011000000000000000000",
      "reserved": "",
      "salt": "0xf786b9a39382b9d98688284a4e674cceaf7be1bfba2a666df987aeb73df3b2e4",
      "assetIds": []
    },
    {
      "x": 273,
      "y": 317,
      "size": 1,
      "price": "1011000000000000000000",
      "reserved": "",
      "salt": "0x0371bbf05700cdace8580d1528205346e2d700307dff8b6e8e7b54c8a870e46b",
      "assetIds": []
    },
    {
      "x": 273,
      "y": 318,
      "size": 1,
      "price": "1011000000000000000000",
      "reserved": "",
      "salt": "0x3d70bd31d8cbfa5466878ef901bff0db5503693d04cab539d41aac07bfd73884",
      "assetIds": []
    },
    {
      "x": 273,
      "y": 319,
      "size": 1,
      "price": "1011000000000000000000",
      "reserved": "",
      "salt": "0x146a7eac74ce7024a89fb96078e26fa3674c168268d13c3e2416d0eda4c46af6",
      "assetIds": []
    },
    {
      "x": 273,
      "y": 320,
      "size": 1,
      "price": "4683000000000000000000",
      "reserved": "",
      "salt": "0xa7936469ab8d11a5f6a122b45235ec025ace5d08e46a4dd58e66ae304d861b5b",
      "assetIds": [
        "41506478881403507969696680653240014914910929820314476107906210059990541021186"
      ]
    },
    {
      "x": 273,
      "y": 321,
      "size": 1,
      "price": "4683000000000000000000",
      "reserved": "",
      "salt": "0xa6fc3fbaee984e310a0538f9889d6cd9be93d0a7b9b0ea6063102a4f45e8480a",
      "assetIds": [
        "41506478881403507969696680653240014914910929820314476107906210059990541021186"
      ]
    },
    {
      "x": 273,
      "y": 322,
      "size": 1,
      "price": "4683000000000000000000",
      "reserved": "",
      "salt": "0xe3ac6a5bf4b7dffdae725c919fd9ebc0eeea4451da7bb08ae8c8685c55e31b6c",
      "assetIds": [
        "41506478881403507969696680653240014914910929820314476107906210059990541021186"
      ]
    },
    {
      "x": 273,
      "y": 323,
      "size": 1,
      "price": "4683000000000000000000",
      "reserved": "",
      "salt": "0x726d501c62bbd9940e598551eda4fa0e924b5e2e32582af31610588a3b363651",
      "assetIds": [
        "41506478881403507969696680653240014914910929820314476107906210059990541021186"
      ]
    },
    {
      "x": 274,
      "y": 312,
      "size": 1,
      "price": "1011000000000000000000",
      "reserved": "0x7a9fe22691c811ea339d9b73150e6911a5343dca",
      "salt": "0x0c3a57fdf57f8ab1af3d9296130ff8e27f1798b12e15f50e0911e607039cc287",
      "assetIds": []
    },
    {
      "x": 274,
      "y": 313,
      "size": 1,
      "price": "1011000000000000000000",
      "reserved": "",
      "salt": "0x6c53a98ba796f51c855f506761e7e465206e93b93747eb287becffae8bedef99",
      "assetIds": []
    },
    {
      "x": 274,
      "y": 314,
      "size": 1,
      "price": "1011000000000000000000",
      "reserved": "",
      "salt": "0xa10d562cfd7bb98491da4c34742fa1b63c8b016f6491992694262ba44247e36c",
      "assetIds": []
    },
    {
      "x": 274,
      "y": 315,
      "size": 1,
      "price": "1011000000000000000000",
      "reserved": "",
      "salt": "0xfe7b5222b6497d95b6077116bde7e4eeebaec4dc6a52bbc9a9f33cef1e10d281",
      "assetIds": []
    },
    {
      "x": 274,
      "y": 316,
      "size": 1,
      "price": "1011000000000000000000",
      "reserved": "",
      "salt": "0x4323b2f8767997a270f2e968b75469fb6a3b68a3e47f104254f58ec89ff3888a",
      "assetIds": []
    },
    {
      "x": 274,
      "y": 317,
      "size": 1,
      "price": "1011000000000000000000",
      "reserved": "",
      "salt": "0x49948efb29defeb2f6c5c1fa6eb9a16014f08ee2d264a6814ab98944db0701fd",
      "assetIds": []
    },
    {
      "x": 274,
      "y": 318,
      "size": 1,
      "price": "1011000000000000000000",
      "reserved": "",
      "salt": "0x21db59ea0d1ccfbb951b37a1b34f93475ac89e63732769b815989f1afc9714b9",
      "assetIds": []
    },
    {
      "x": 274,
      "y": 319,
      "size": 1,
      "price": "1011000000000000000000",
      "reserved": "",
      "salt": "0x62859e1b840f8bcbfdeadcc48fd13bad4cbf1c5fcf4661988ae08b488b0970a8",
      "assetIds": []
    },
    {
      "x": 274,
      "y": 320,
      "size": 1,
      "price": "1011000000000000000000",
      "reserved": "",
      "salt": "0x335c7807754c58a799a3a1cbb03af0fe50a338a3aab0e9f84f8740c3d6d0234a",
      "assetIds": []
    },
    {
      "x": 274,
      "y": 321,
      "size": 1,
      "price": "1011000000000000000000",
      "reserved": "",
      "salt": "0x842336eea0ca940ccb2c628c79d90ecf1941f3ec110421fbc88624b882b7c0e0",
      "assetIds": []
    },
    {
      "x": 274,
      "y": 322,
      "size": 1,
      "price": "1011000000000000000000",
      "reserved": "0x7a9fe22691c811ea339d9b73150e6911a5343dca",
      "salt": "0xbd70176af1e20093393ab4424e86be32520ffe73896bb76e33d8e00ccb058296",
      "assetIds": []
    },
    {
      "x": 274,
      "y": 323,
      "size": 1,
      "price": "4683000000000000000000",
      "reserved": "",
      "salt": "0x58ca5a6541bc0ae1d5e66f6eeb7d224952308b8824ad2f9290d44148b2c1245d",
      "assetIds": [
        "41506478881403507969696680653240014914910929820314476107906210059990541021186"
      ]
    },
    {
      "x": 275,
      "y": 312,
      "size": 1,
      "price": "1011000000000000000000",
      "reserved": "",
      "salt": "0x093e5071621ff19fdef55482ab56947e1d7bc41648e298ff8fc5bab432a3ad8d",
      "assetIds": []
    },
    {
      "x": 275,
      "y": 313,
      "size": 1,
      "price": "1011000000000000000000",
      "reserved": "",
      "salt": "0x526c2925cb6452ae09b179861a1d68ab0b3bb94276fd92f4d66914da9292feaa",
      "assetIds": []
    },
    {
      "x": 275,
      "y": 314,
      "size": 1,
      "price": "1011000000000000000000",
      "reserved": "",
      "salt": "0x4e34dadf7854c63a26cb8c6523803df0b1c3adfd802e6464ef0074ef13f63379",
      "assetIds": []
    },
    {
      "x": 275,
      "y": 315,
      "size": 1,
      "price": "1011000000000000000000",
      "reserved": "",
      "salt": "0xea727e8db37355c1e484e0d74ef97364d27a5e819b916479528f785015e0ab19",
      "assetIds": []
    },
    {
      "x": 275,
      "y": 316,
      "size": 1,
      "price": "1011000000000000000000",
      "reserved": "0x7a9fe22691c811ea339d9b73150e6911a5343dca",
      "salt": "0xf00fd3b7cef8c26daecd5f48b246746dea73974a998528215f7460fc2ffc7652",
      "assetIds": []
    },
    {
      "x": 275,
      "y": 317,
      "size": 1,
      "price": "1011000000000000000000",
      "reserved": "",
      "salt": "0x55fcb67aca8f46561810ee17fe8cffb6fcabb798d48bcf1c8389ebe5e55ff0ea",
      "assetIds": []
    },
    {
      "x": 275,
      "y": 318,
      "size": 1,
      "price": "1011000000000000000000",
      "reserved": "",
      "salt": "0x8fc2554cf2a38e43d093cee71d2917ae376163492772e8b2a19c6c8e619d6caf",
      "assetIds": []
    },
    {
      "x": 275,
      "y": 319,
      "size": 1,
      "price": "1011000000000000000000",
      "reserved": "",
      "salt": "0x9b3bbf4a76244a14f9719123a176c4815cfbe08368128db0fc9423f12a87d118",
      "assetIds": []
    },
    {
      "x": 275,
      "y": 320,
      "size": 1,
      "price": "4683000000000000000000",
      "reserved": "",
      "salt": "0x7b9257cf600f521bc0c01dc42f888f093989fc85427d4f9c37f86be5340335db",
      "assetIds": [
        "41506478881403507969696680653240014914910929820314476107906210059990541021186"
      ]
    },
    {
      "x": 275,
      "y": 321,
      "size": 1,
      "price": "4683000000000000000000",
      "reserved": "",
      "salt": "0x824133d50047323471f46eeeaced5775f9fd8debca7f54f01ea59b2f68236eac",
      "assetIds": [
        "41506478881403507969696680653240014914910929820314476107906210059990541021186"
      ]
    },
    {
      "x": 275,
      "y": 322,
      "size": 1,
      "price": "4683000000000000000000",
      "reserved": "",
      "salt": "0xed7fe73963ba7a281ad8bee516058652c8d5fb8b6d21aacc3a33d3ee88240072",
      "assetIds": [
        "41506478881403507969696680653240014914910929820314476107906210059990541021186"
      ]
    },
    {
      "x": 275,
      "y": 323,
      "size": 1,
      "price": "4683000000000000000000",
      "reserved": "",
      "salt": "0x0fa7e484e7cf69279cd4ad19983ca4ecc8f662ebade2ad10bcdf4e529ab974bf",
      "assetIds": [
        "41506478881403507969696680653240014914910929820314476107906210059990541021186"
      ]
    },
    {
      "x": 276,
      "y": 312,
      "size": 1,
      "price": "1011000000000000000000",
      "reserved": "",
      "salt": "0x141a89b1111b6cda0c79287edcb2c560666ff94d7fe2e15c886b6ae943727594",
      "assetIds": []
    },
    {
      "x": 276,
      "y": 313,
      "size": 1,
      "price": "1011000000000000000000",
      "reserved": "0x7a9fe22691c811ea339d9b73150e6911a5343dca",
      "salt": "0x9867cf3b4db6693cb8961cbd810f67fd02d505a3a482f454db1383e8c0a79fc4",
      "assetIds": []
    },
    {
      "x": 276,
      "y": 314,
      "size": 1,
      "price": "1011000000000000000000",
      "reserved": "",
      "salt": "0x8e092f9b2ce33c2a794d1d2a4420dda356f9d046677449b9d13dbcb260d87532",
      "assetIds": []
    },
    {
      "x": 276,
      "y": 315,
      "size": 1,
      "price": "1011000000000000000000",
      "reserved": "",
      "salt": "0x27eb21b98a9ced5d5efde02b361c4bae93f1ceaf4811e2c72903ff486c7e2ea8",
      "assetIds": []
    },
    {
      "x": 276,
      "y": 316,
      "size": 1,
      "price": "1011000000000000000000",
      "reserved": "",
      "salt": "0x26c40dcbcf1901a15124cb076fe0d5b0988138adb651bf77c71253b16482222e",
      "assetIds": []
    },
    {
      "x": 276,
      "y": 317,
      "size": 1,
      "price": "1011000000000000000000",
      "reserved": "",
      "salt": "0xd57138f6ee74fbf55c9f61c99c0adf34abbc0381b34a0d5ce5a51a6d51b16a9e",
      "assetIds": []
    },
    {
      "x": 276,
      "y": 318,
      "size": 1,
      "price": "1011000000000000000000",
      "reserved": "",
      "salt": "0x36d6ee7a39e35fdde6bcfcac2a91db81759f83d5f0533d09f5d3cbccc3b896c5",
      "assetIds": []
    },
    {
      "x": 276,
      "y": 319,
      "size": 1,
      "price": "1011000000000000000000",
      "reserved": "",
      "salt": "0x9cd73d8ba5648d02fbf2be10c3e2b2e700e2414776133c0f2d45fc62133fcada",
      "assetIds": []
    },
    {
      "x": 276,
      "y": 320,
      "size": 1,
      "price": "1011000000000000000000",
      "reserved": "",
      "salt": "0xdc8bcd5609dcb4fe6697434390c9ffa631569218708311fb91756bcdb38656c4",
      "assetIds": []
    },
    {
      "x": 276,
      "y": 321,
      "size": 1,
      "price": "4683000000000000000000",
      "reserved": "",
      "salt": "0x7e8c3e5479855f92236b3acce968c001c2954149b6623a89440f7591f712c6a3",
      "assetIds": [
        "41506478881403507969696680653240014914910929820314476107906210059990541021186"
      ]
    },
    {
      "x": 276,
      "y": 322,
      "size": 1,
      "price": "4683000000000000000000",
      "reserved": "",
      "salt": "0xa2720cf2555f47d8ec20b119a99df8dcb3ecdd6f5f3ffbcbe28b95c774f1dc11",
      "assetIds": [
        "41506478881403507969696680653240014914910929820314476107906210059990541021186"
      ]
    },
    {
      "x": 276,
      "y": 323,
      "size": 1,
      "price": "4683000000000000000000",
      "reserved": "",
      "salt": "0xffc995576d983f910cd031f6d579dcc64db3c7176a1709d27c879568077ab64a",
      "assetIds": [
        "41506478881403507969696680653240014914910929820314476107906210059990541021186"
      ]
    },
    {
      "x": 276,
      "y": 324,
      "size": 1,
      "price": "4683000000000000000000",
      "reserved": "",
      "salt": "0x135fbd9694c0b4a8c8a63dddf50cb45e5814fa20bc0d14168e59544261b53cad",
      "assetIds": [
        "41506478881403507969696680653240014914910929820314476107906210059990541021186"
      ]
    },
    {
      "x": 276,
      "y": 325,
      "size": 1,
      "price": "4683000000000000000000",
      "reserved": "",
      "salt": "0x666e82c183812a2ca61c7207f3432d4cb76ffb14b0c59c356272f302600e776b",
      "assetIds": [
        "41506478881403507969696680653240014914910929820314476107906210059990541021186"
      ]
    },
    {
      "x": 276,
      "y": 326,
      "size": 1,
      "price": "4683000000000000000000",
      "reserved": "",
      "salt": "0xc6501bcd0cb9054d5abe8c0dd8cc1894ed5ea6a180d42491bcc0813f4cb95118",
      "assetIds": [
        "41506478881403507969696680653240014914910929820314476107906210059990541021186"
      ]
    },
    {
      "x": 276,
      "y": 327,
      "size": 1,
      "price": "4683000000000000000000",
      "reserved": "",
      "salt": "0x47126720e151209099fd618b23740cb973b39dcbcb71cfe161d717cbbfe89d79",
      "assetIds": [
        "41506478881403507969696680653240014914910929820314476107906210059990541021186"
      ]
    },
    {
      "x": 276,
      "y": 328,
      "size": 1,
      "price": "4683000000000000000000",
      "reserved": "",
      "salt": "0xf55e15982b613be3ecc81addfe8726aaf7bc5f76a3b25994341b0c57983e5574",
      "assetIds": [
        "41506478881403507969696680653240014914910929820314476107906210059990541021186"
      ]
    },
    {
      "x": 276,
      "y": 329,
      "size": 1,
      "price": "4683000000000000000000",
      "reserved": "",
      "salt": "0xfb0106c948027e3cb5d44ea9193635fdd100d685769b603a3d29eb4e11b439d5",
      "assetIds": [
        "41506478881403507969696680653240014914910929820314476107906210059990541021186"
      ]
    },
    {
      "x": 276,
      "y": 330,
      "size": 1,
      "price": "4683000000000000000000",
      "reserved": "",
      "salt": "0xed9a47a6101a5582573e735dd6ff881b006c4401fc0815615e3db3557ecd10f5",
      "assetIds": [
        "41506478881403507969696680653240014914910929820314476107906210059990541021186"
      ]
    },
    {
      "x": 276,
      "y": 331,
      "size": 1,
      "price": "4683000000000000000000",
      "reserved": "",
      "salt": "0xaacfa6a8606a8515d352206e45567d03ed98eb050ccb86839f9cb7a65963a66c",
      "assetIds": [
        "41506478881403507969696680653240014914910929820314476107906210059990541021186"
      ]
    },
    {
      "x": 276,
      "y": 332,
      "size": 1,
      "price": "4683000000000000000000",
      "reserved": "",
      "salt": "0xad1f32adf904ad0214b4c62570dc10f25bb4325b694a0aae4846d2374f97d3f1",
      "assetIds": [
        "41506478881403507969696680653240014914910929820314476107906210059990541021186"
      ]
    },
    {
      "x": 276,
      "y": 333,
      "size": 1,
      "price": "4683000000000000000000",
      "reserved": "",
      "salt": "0x32e1ae6b990c41d1f0f163d0d81d06ac204bc20fae4c335b08570e916d8ffb6e",
      "assetIds": [
        "41506478881403507969696680653240014914910929820314476107906210059990541021186"
      ]
    },
    {
      "x": 276,
      "y": 334,
      "size": 1,
      "price": "4683000000000000000000",
      "reserved": "",
      "salt": "0xcbf62659f8008a449b9eaf13b68e81b2f2f965391fc8907422220129542aedec",
      "assetIds": [
        "41506478881403507969696680653240014914910929820314476107906210059990541021186"
      ]
    },
    {
      "x": 276,
      "y": 335,
      "size": 1,
      "price": "4683000000000000000000",
      "reserved": "",
      "salt": "0x3fe0c8a8c695f5bad680f6a7b27dbfb35da7c94824af95bf3228914a3141175a",
      "assetIds": [
        "41506478881403507969696680653240014914910929820314476107906210059990541021186"
      ]
    },
    {
      "x": 277,
      "y": 312,
      "size": 1,
      "price": "1011000000000000000000",
      "reserved": "",
      "salt": "0xd0f5da7725194e3105fda4136843ace04463b0f7efad8fa46da91aee8348c7b6",
      "assetIds": []
    },
    {
      "x": 277,
      "y": 313,
      "size": 1,
      "price": "1011000000000000000000",
      "reserved": "",
      "salt": "0xf21cc9ddae591e1c61523b513d0f6f97afbca0134a09bb94855e1ddc233846e6",
      "assetIds": []
    },
    {
      "x": 277,
      "y": 314,
      "size": 1,
      "price": "1011000000000000000000",
      "reserved": "",
      "salt": "0xdd4908528ed6630e4b04a92814e04532af167634f4564f4bbabff97d134779eb",
      "assetIds": []
    },
    {
      "x": 277,
      "y": 315,
      "size": 1,
      "price": "1011000000000000000000",
      "reserved": "0x7a9fe22691c811ea339d9b73150e6911a5343dca",
      "salt": "0x950796301d22761f9b1b4f2f3a8a1cdbc2d413b27d26306f13b87e0e5269db0a",
      "assetIds": []
    },
    {
      "x": 277,
      "y": 316,
      "size": 1,
      "price": "1011000000000000000000",
      "reserved": "",
      "salt": "0xba00353b51b7d5408707743e0e9bbf090c777ecc368ee24ea4d1a019a6817538",
      "assetIds": []
    },
    {
      "x": 277,
      "y": 317,
      "size": 1,
      "price": "1011000000000000000000",
      "reserved": "",
      "salt": "0xd59c72be605e17b1ced1a65034d895a5f64d41a6c9a6e68709cbf96e80c3c705",
      "assetIds": []
    },
    {
      "x": 277,
      "y": 318,
      "size": 1,
      "price": "1011000000000000000000",
      "reserved": "0x7a9fe22691c811ea339d9b73150e6911a5343dca",
      "salt": "0xb6d20375eb6b41b2be9301a2926345435cffd82696f77375e4aa39b665823e7d",
      "assetIds": []
    },
    {
      "x": 277,
      "y": 319,
      "size": 1,
      "price": "1011000000000000000000",
      "reserved": "0x7a9fe22691c811ea339d9b73150e6911a5343dca",
      "salt": "0xf059480d567e2307947cacea301a13c07c288a906b644d6db2dc1780ca94937d",
      "assetIds": []
    },
    {
      "x": 277,
      "y": 320,
      "size": 1,
      "price": "1011000000000000000000",
      "reserved": "",
      "salt": "0x737d217eda3ae86f8b3c28d6580aadbfdfcf36931f734f3378e9f7f2eb7d1a67",
      "assetIds": []
    },
    {
      "x": 277,
      "y": 321,
      "size": 1,
      "price": "1011000000000000000000",
      "reserved": "",
      "salt": "0xcb89988a670a7a56f294f3e4b50cede6462dac32a7e1518443282eb7c01bd1c1",
      "assetIds": []
    },
    {
      "x": 277,
      "y": 322,
      "size": 1,
      "price": "1011000000000000000000",
      "reserved": "0x7a9fe22691c811ea339d9b73150e6911a5343dca",
      "salt": "0x18b52a72aeafc1d14fd716ac2f7cf1e2ecdc05f1e7e2e7c5d1386a7a680b3c9e",
      "assetIds": []
    },
    {
      "x": 277,
      "y": 323,
      "size": 1,
      "price": "1011000000000000000000",
      "reserved": "0x7a9fe22691c811ea339d9b73150e6911a5343dca",
      "salt": "0x97f37e66642c28bc254bab503c664d0e2159cd27ce181aa58d50eea1b8c37fdd",
      "assetIds": []
    },
    {
      "x": 277,
      "y": 324,
      "size": 1,
      "price": "4683000000000000000000",
      "reserved": "",
      "salt": "0x22c60e4d893210a671e26a7e20286e42a4b4eedaefb2d37eafcf756921d39555",
      "assetIds": [
        "41506478881403507969696680653240014914910929820314476107906210059990541021186"
      ]
    },
    {
      "x": 277,
      "y": 325,
      "size": 1,
      "price": "4683000000000000000000",
      "reserved": "",
      "salt": "0xa0e215844359a3957a944c3610a8ee277d104fcf03f807a7906938d4ebdb06d9",
      "assetIds": [
        "41506478881403507969696680653240014914910929820314476107906210059990541021186"
      ]
    },
    {
      "x": 277,
      "y": 326,
      "size": 1,
      "price": "1011000000000000000000",
      "reserved": "0x7a9fe22691c811ea339d9b73150e6911a5343dca",
      "salt": "0x3fa55f3ae5b66f89809c33da72853351f284a097d3acf1a85bd1f77d3618aba9",
      "assetIds": []
    },
    {
      "x": 277,
      "y": 327,
      "size": 1,
      "price": "4683000000000000000000",
      "reserved": "",
      "salt": "0x40da6fff9a6743e6f630a7a82f9065c9c17e00342bc720c0a4adfae4130db84b",
      "assetIds": [
        "41506478881403507969696680653240014914910929820314476107906210059990541021186"
      ]
    },
    {
      "x": 277,
      "y": 328,
      "size": 1,
      "price": "4683000000000000000000",
      "reserved": "",
      "salt": "0xf3291346b13a86bd8ce455a018b51b7777d998b584fd23fb38b7c1cd5e3b51ca",
      "assetIds": [
        "41506478881403507969696680653240014914910929820314476107906210059990541021186"
      ]
    },
    {
      "x": 277,
      "y": 329,
      "size": 1,
      "price": "4683000000000000000000",
      "reserved": "",
      "salt": "0xd388121ae4bc9348c4e73e0de01f23006ade2c69345e55bb2eb66a308e12b0de",
      "assetIds": [
        "41506478881403507969696680653240014914910929820314476107906210059990541021186"
      ]
    },
    {
      "x": 277,
      "y": 330,
      "size": 1,
      "price": "4683000000000000000000",
      "reserved": "",
      "salt": "0xb62a922aa4fdd64bf6f6d863523bec2c455a0b488c52aa1bb0c9d116c04b4f47",
      "assetIds": [
        "41506478881403507969696680653240014914910929820314476107906210059990541021186"
      ]
    },
    {
      "x": 277,
      "y": 331,
      "size": 1,
      "price": "1011000000000000000000",
      "reserved": "0x7a9fe22691c811ea339d9b73150e6911a5343dca",
      "salt": "0x3703d8becd8f6990926ca6cd7f63b9a3dcfc77520735e200bef0c2dc38c33883",
      "assetIds": []
    },
    {
      "x": 277,
      "y": 332,
      "size": 1,
      "price": "4683000000000000000000",
      "reserved": "",
      "salt": "0x6c8a62d944b591b4198865635bb032166a6671a210ca9fe25172026a634dbc8f",
      "assetIds": [
        "41506478881403507969696680653240014914910929820314476107906210059990541021186"
      ]
    },
    {
      "x": 277,
      "y": 333,
      "size": 1,
      "price": "4683000000000000000000",
      "reserved": "",
      "salt": "0x64eda66619584665eb5a6cc35f14ce35ff73ea77dd428a9bf579bdfd6e1e39d6",
      "assetIds": [
        "41506478881403507969696680653240014914910929820314476107906210059990541021186"
      ]
    },
    {
      "x": 277,
      "y": 334,
      "size": 1,
      "price": "4683000000000000000000",
      "reserved": "",
      "salt": "0x9236a0f46173c9267685508237c8e2205ce4a6a671d1668f50e50d7140c6fe5a",
      "assetIds": [
        "41506478881403507969696680653240014914910929820314476107906210059990541021186"
      ]
    },
    {
      "x": 277,
      "y": 335,
      "size": 1,
      "price": "1011000000000000000000",
      "reserved": "0x7a9fe22691c811ea339d9b73150e6911a5343dca",
      "salt": "0x96c396963100ab59fd8148c1410f3cef156b7d5d10b7d2e127329c8f0d3266ff",
      "assetIds": []
    },
    {
      "x": 278,
      "y": 312,
      "size": 1,
      "price": "1011000000000000000000",
      "reserved": "",
      "salt": "0x6cc469e10a2dbe1f6572c8b5429bb81de593a2a15bd93a9b3c4b88c0dde4d249",
      "assetIds": []
    },
    {
      "x": 278,
      "y": 313,
      "size": 1,
      "price": "1011000000000000000000",
      "reserved": "",
      "salt": "0x233743bf87cee9f3a3d8148acb38109213aff3a57ccff6dda0c92588f6a5284a",
      "assetIds": []
    },
    {
      "x": 278,
      "y": 314,
      "size": 1,
      "price": "1011000000000000000000",
      "reserved": "",
      "salt": "0x1bc18d1eeab7c28365b715f766b03abf9302cfc7d6351a32715e94c8aa4d5b13",
      "assetIds": []
    },
    {
      "x": 278,
      "y": 315,
      "size": 1,
      "price": "1011000000000000000000",
      "reserved": "",
      "salt": "0xe4ad0f6efbda68a463a2c06f0b8be50eb5ef77d5fc9c1f41528a45f575961fa6",
      "assetIds": []
    },
    {
      "x": 278,
      "y": 316,
      "size": 1,
      "price": "1011000000000000000000",
      "reserved": "",
      "salt": "0xe9d016fe6971bfb39adbe73edd95503fa160353e1753d6b9d65fdb8058924017",
      "assetIds": []
    },
    {
      "x": 278,
      "y": 317,
      "size": 1,
      "price": "1011000000000000000000",
      "reserved": "",
      "salt": "0x24a8f08aba2e0d41765bbe41a7883afede56bd6b0fc906f625775c7b1e0437af",
      "assetIds": []
    },
    {
      "x": 278,
      "y": 318,
      "size": 1,
      "price": "1011000000000000000000",
      "reserved": "",
      "salt": "0x65ef0598d01d03a8036a63fcecd154985c9c8f6dcdf148478f8bba629adabc1c",
      "assetIds": []
    },
    {
      "x": 278,
      "y": 319,
      "size": 1,
      "price": "1011000000000000000000",
      "reserved": "",
      "salt": "0x41595e264143ab2046978808a09e8aa36c127615b93d7fb524aff47e25e4e2ff",
      "assetIds": []
    },
    {
      "x": 278,
      "y": 320,
      "size": 1,
      "price": "1011000000000000000000",
      "reserved": "0x7a9fe22691c811ea339d9b73150e6911a5343dca",
      "salt": "0xc3a6b625df606b87ab61733c8eb46cc2f1d866079416653de19125e84c009297",
      "assetIds": []
    },
    {
      "x": 278,
      "y": 321,
      "size": 1,
      "price": "1011000000000000000000",
      "reserved": "",
      "salt": "0x8db45cd9c12bf0db5daa06a2a39aff03f9502fdd33bd0da11aa9d333e22a51b4",
      "assetIds": []
    },
    {
      "x": 278,
      "y": 322,
      "size": 1,
      "price": "1011000000000000000000",
      "reserved": "",
      "salt": "0x878dfccea463b359b533c7babb84f21add8b95ca0a0c470de94a959b802d1711",
      "assetIds": []
    },
    {
      "x": 278,
      "y": 323,
      "size": 1,
      "price": "1011000000000000000000",
      "reserved": "",
      "salt": "0xd4477496812501ec760e57391796fe19bec6470b0f224a9d0e81922e8b715784",
      "assetIds": []
    },
    {
      "x": 278,
      "y": 324,
      "size": 1,
      "price": "1011000000000000000000",
      "reserved": "",
      "salt": "0x04644abf6ab885e7ad52eb788e86cf6405a7d40599f5bb4e9b8634c32aeae599",
      "assetIds": []
    },
    {
      "x": 278,
      "y": 325,
      "size": 1,
      "price": "1011000000000000000000",
      "reserved": "",
      "salt": "0xd6f1245623c1a5fc434e9fd1307f16ea94d2ca4e01ab8aed5035e1c164fb4320",
      "assetIds": []
    },
    {
      "x": 278,
      "y": 326,
      "size": 1,
      "price": "1011000000000000000000",
      "reserved": "",
      "salt": "0xa7829c84d583cac7b7bfff1acf9835defa0c7ff5d61ee68567ef5e24517aad70",
      "assetIds": []
    },
    {
      "x": 278,
      "y": 327,
      "size": 1,
      "price": "1011000000000000000000",
      "reserved": "",
      "salt": "0x546695f91cc4b35727ed4ffbbc341116278ef1a67739bd4e8a5f1bde4cf13f25",
      "assetIds": []
    },
    {
      "x": 278,
      "y": 328,
      "size": 1,
      "price": "1011000000000000000000",
      "reserved": "",
      "salt": "0x1fb5cebe86377f1533f5ff5136c1f9faac0b6afc49325078f16fb5b469f60846",
      "assetIds": []
    },
    {
      "x": 278,
      "y": 329,
      "size": 1,
      "price": "1011000000000000000000",
      "reserved": "",
      "salt": "0xb7c1312ab9cde4fda67ebda6c0fb1d455b30c8beb5ecd47ac722ce661069589f",
      "assetIds": []
    },
    {
      "x": 278,
      "y": 330,
      "size": 1,
      "price": "1011000000000000000000",
      "reserved": "",
      "salt": "0xa7397fe96427cf8a638d4087964640fb303059cbba2573d222b83aa022ae0271",
      "assetIds": []
    },
    {
      "x": 278,
      "y": 331,
      "size": 1,
      "price": "1011000000000000000000",
      "reserved": "",
      "salt": "0xeb2c9d5ddbf1e477d4dfb745219f06b5c088b69520b4a9418f6954678447b7b0",
      "assetIds": []
    },
    {
      "x": 278,
      "y": 332,
      "size": 1,
      "price": "1011000000000000000000",
      "reserved": "",
      "salt": "0x6708fd517a2955ac8b030d6ee22e6d2a18cf676420268a330c1da602ee3fcb52",
      "assetIds": []
    },
    {
      "x": 278,
      "y": 333,
      "size": 1,
      "price": "1011000000000000000000",
      "reserved": "0x7a9fe22691c811ea339d9b73150e6911a5343dca",
      "salt": "0x57eb632ad630b7fc3f4f89c56644788bc41c514cb9e4fc0d21bac5d78170df6c",
      "assetIds": []
    },
    {
      "x": 278,
      "y": 334,
      "size": 1,
      "price": "1011000000000000000000",
      "reserved": "",
      "salt": "0xa9e39a4f69ac6a5d4ac075b4d2291e859f7c7d9905ee785ef62a958cd85ac2e3",
      "assetIds": []
    },
    {
      "x": 278,
      "y": 335,
      "size": 1,
      "price": "1011000000000000000000",
      "reserved": "0x7a9fe22691c811ea339d9b73150e6911a5343dca",
      "salt": "0x7025a5a93c1ff140702e2deb3eb71c359b79f9afc3eeea5ef4afd70016849762",
      "assetIds": []
    },
    {
      "x": 279,
      "y": 312,
      "size": 1,
      "price": "1011000000000000000000",
      "reserved": "",
      "salt": "0x26cc97044b1933969d3fc0f19e395bfdcdc6f34b49a5156e57c577c4a079022c",
      "assetIds": []
    },
    {
      "x": 279,
      "y": 313,
      "size": 1,
      "price": "1011000000000000000000",
      "reserved": "0x7a9fe22691c811ea339d9b73150e6911a5343dca",
      "salt": "0xcc39d6699ce5facf334920c43c0a787358cb80a8663fdaf5a23d2aefae3f0fca",
      "assetIds": []
    },
    {
      "x": 279,
      "y": 314,
      "size": 1,
      "price": "1011000000000000000000",
      "reserved": "",
      "salt": "0x10f1d07e4d50c90b0a213772c5a45e83ad03cc428b5f04b9f9d69e68cba98626",
      "assetIds": []
    },
    {
      "x": 279,
      "y": 315,
      "size": 1,
      "price": "1011000000000000000000",
      "reserved": "",
      "salt": "0xb4ee8b5a70d9c86e0e722dbe8b6321f630a6b869b0a878430ef3b7b1066da637",
      "assetIds": []
    },
    {
      "x": 279,
      "y": 316,
      "size": 1,
      "price": "1011000000000000000000",
      "reserved": "",
      "salt": "0x20b26ebd6b7341d80870eea1e294fbe7ada0c51448b37b546023ebb702461990",
      "assetIds": []
    },
    {
      "x": 279,
      "y": 317,
      "size": 1,
      "price": "1011000000000000000000",
      "reserved": "",
      "salt": "0xad4b57d2f5a0cd58a7ceec2c38793822fc6105d967cc803f588755cbc07fcb65",
      "assetIds": []
    },
    {
      "x": 279,
      "y": 318,
      "size": 1,
      "price": "1011000000000000000000",
      "reserved": "",
      "salt": "0x0e65b065b8a9efbff635c955490071d16757895430718f47bcbb45c4e63ee961",
      "assetIds": []
    },
    {
      "x": 279,
      "y": 319,
      "size": 1,
      "price": "1011000000000000000000",
      "reserved": "",
      "salt": "0x7abf9bdda07cd6d85ad0585d3bb88ad81c686569ed96f8b0b0c6b3757514f00f",
      "assetIds": []
    },
    {
      "x": 279,
      "y": 320,
      "size": 1,
      "price": "1011000000000000000000",
      "reserved": "",
      "salt": "0x941db5056f6b11f413e242fcdc8617fc2ff48e31692e454931be6ea8fe1fa5cf",
      "assetIds": []
    },
    {
      "x": 279,
      "y": 321,
      "size": 1,
      "price": "1011000000000000000000",
      "reserved": "",
      "salt": "0xfd39cf16fd776aee1ea20098406fe7c758d324efc2c64b7d9d56dde2cf2541cf",
      "assetIds": []
    },
    {
      "x": 279,
      "y": 322,
      "size": 1,
      "price": "1011000000000000000000",
      "reserved": "0x7a9fe22691c811ea339d9b73150e6911a5343dca",
      "salt": "0x87e475b9cfa32207adfe9f49cfbd0209ba455d291a44c715a11e95fd0e2f83fb",
      "assetIds": []
    },
    {
      "x": 279,
      "y": 323,
      "size": 1,
      "price": "1011000000000000000000",
      "reserved": "0x7a9fe22691c811ea339d9b73150e6911a5343dca",
      "salt": "0x4613df38b91187f17356ca63142ceb8cb6c94834780e393a7c1c8ce57f41da51",
      "assetIds": []
    },
    {
      "x": 279,
      "y": 324,
      "size": 1,
      "price": "1011000000000000000000",
      "reserved": "",
      "salt": "0x2a2ff7ff69e0f1e47e9f17c00fa28e5d9acda0852c90d320219104fdc65a06ac",
      "assetIds": []
    },
    {
      "x": 279,
      "y": 325,
      "size": 1,
      "price": "1011000000000000000000",
      "reserved": "",
      "salt": "0xdbb8d0ed0067c112098071959fa70895fe67b2e66c0fa97cf611105f7c72d2ca",
      "assetIds": []
    },
    {
      "x": 279,
      "y": 326,
      "size": 1,
      "price": "1011000000000000000000",
      "reserved": "",
      "salt": "0xff4950794171e981fb15261d52f1c916d537b94424122f0a41ec8098addb7d2d",
      "assetIds": []
    },
    {
      "x": 279,
      "y": 327,
      "size": 1,
      "price": "1011000000000000000000",
      "reserved": "",
      "salt": "0x16bb57becca774d6a4077fb6e73bdc8a5a4c969696ac92759e4d3ac9a64cbc38",
      "assetIds": []
    },
    {
      "x": 279,
      "y": 328,
      "size": 1,
      "price": "1011000000000000000000",
      "reserved": "",
      "salt": "0xaab35a84265914f17d99706f18034e4c59f7fd2b8e9c47745649eff66b01ae14",
      "assetIds": []
    },
    {
      "x": 279,
      "y": 329,
      "size": 1,
      "price": "1011000000000000000000",
      "reserved": "",
      "salt": "0x5ad35e0c27409218b36a37c43e61deb5546d9bcbbb6abb6983f73e119c5eb568",
      "assetIds": []
    },
    {
      "x": 279,
      "y": 330,
      "size": 1,
      "price": "1011000000000000000000",
      "reserved": "",
      "salt": "0x163c5fb728f55e0ab3a565bd9c3c8f48f38c7c2daed49d4e082cbe1ae1f7cfd0",
      "assetIds": []
    },
    {
      "x": 279,
      "y": 331,
      "size": 1,
      "price": "1011000000000000000000",
      "reserved": "",
      "salt": "0x9d427fe818af517194514f1ab40c1c3f69e08d9caa8288dd368537aa736fe6e7",
      "assetIds": []
    },
    {
      "x": 279,
      "y": 332,
      "size": 1,
      "price": "1011000000000000000000",
      "reserved": "0x7a9fe22691c811ea339d9b73150e6911a5343dca",
      "salt": "0x22283a3097e0c731038dade123f181375df45d3d51f999169ee98521294e0940",
      "assetIds": []
    },
    {
      "x": 279,
      "y": 333,
      "size": 1,
      "price": "1011000000000000000000",
      "reserved": "",
      "salt": "0x8b7db0f107a282b9e7b7792d6389a5a26ddf804e1fec0183b77dc0e32ffdad86",
      "assetIds": []
    },
    {
      "x": 279,
      "y": 334,
      "size": 1,
      "price": "1011000000000000000000",
      "reserved": "0x7a9fe22691c811ea339d9b73150e6911a5343dca",
      "salt": "0xf6c9cf5f4e916d3f506ff325856667c3e974009253288d1453e2d9218166af40",
      "assetIds": []
    },
    {
      "x": 279,
      "y": 335,
      "size": 1,
      "price": "1011000000000000000000",
      "reserved": "0x7a9fe22691c811ea339d9b73150e6911a5343dca",
      "salt": "0xeeb3b94833fcaa9b9d35719224a5600ab83bf7c0bb6ade1a1dfd41b265d069dc",
      "assetIds": []
    },
    {
      "x": 280,
      "y": 312,
      "size": 1,
      "price": "1011000000000000000000",
      "reserved": "0x7a9fe22691c811ea339d9b73150e6911a5343dca",
      "salt": "0xc0aa276ada50893923c767b13b0c9fa8e3950b0cf44fcb1613be6d35fe7c9bab",
      "assetIds": []
    },
    {
      "x": 280,
      "y": 313,
      "size": 1,
      "price": "1011000000000000000000",
      "reserved": "",
      "salt": "0x516b27692b2c9eadfc32ac48e03210f7493299e6196a76446b40ef7b692bc4d0",
      "assetIds": []
    },
    {
      "x": 280,
      "y": 314,
      "size": 1,
      "price": "1011000000000000000000",
      "reserved": "",
      "salt": "0x0da02768fd9b92709cdc8633bb0451213b3334101000673c4f4752e2e448afcf",
      "assetIds": []
    },
    {
      "x": 280,
      "y": 315,
      "size": 1,
      "price": "1011000000000000000000",
      "reserved": "",
      "salt": "0x550c3f7c9585ae099088ea0f7549c7a77425a3bdaea3a14fe9afcb75b9b8cdce",
      "assetIds": []
    },
    {
      "x": 280,
      "y": 316,
      "size": 1,
      "price": "1011000000000000000000",
      "reserved": "",
      "salt": "0x0ef8b6d2aef49b35f9ed5375f9fe95b9c43e517d5d5c657de46574a859317d0a",
      "assetIds": []
    },
    {
      "x": 280,
      "y": 317,
      "size": 1,
      "price": "1011000000000000000000",
      "reserved": "",
      "salt": "0x9901915e8900cc8936fa6ad2ca8fd26b2850a97d6160e9b3c37d0945cb92e48a",
      "assetIds": []
    },
    {
      "x": 280,
      "y": 318,
      "size": 1,
      "price": "1011000000000000000000",
      "reserved": "",
      "salt": "0xe9c73c3c24c5c7f9af626591b3923e8e77b8b0f3a2972ec1373d655282a56c6c",
      "assetIds": []
    },
    {
      "x": 280,
      "y": 319,
      "size": 1,
      "price": "1011000000000000000000",
      "reserved": "",
      "salt": "0x1720fa32b6c93cbf04adb320c352ffb1a10d482c9b8e032b5bc75c39c2223617",
      "assetIds": []
    },
    {
      "x": 280,
      "y": 320,
      "size": 1,
      "price": "1011000000000000000000",
      "reserved": "",
      "salt": "0x54877c79ec3ff6432fd5e3f81b09869b44e3c980caaf16da52f0df052ca547a4",
      "assetIds": []
    },
    {
      "x": 280,
      "y": 321,
      "size": 1,
      "price": "1011000000000000000000",
      "reserved": "",
      "salt": "0xd853fcb3a1887acc7a75738b46a6b7a02d5bc7cd21ba7e17fdc8b105fcd06112",
      "assetIds": []
    },
    {
      "x": 280,
      "y": 322,
      "size": 1,
      "price": "1011000000000000000000",
      "reserved": "",
      "salt": "0x11e963272df762a6fab32b3d280e055957d964e79a29336251a704849540f3fe",
      "assetIds": []
    },
    {
      "x": 280,
      "y": 323,
      "size": 1,
      "price": "1011000000000000000000",
      "reserved": "",
      "salt": "0x1fcf24c4595ce909312928fb28a2046582a29455e73414f9fd39a98712e39375",
      "assetIds": []
    },
    {
      "x": 280,
      "y": 324,
      "size": 1,
      "price": "1011000000000000000000",
      "reserved": "",
      "salt": "0x93f9ce417347da199537d1ef6dffa47f7973451511495758c4129738db8fab17",
      "assetIds": []
    },
    {
      "x": 280,
      "y": 325,
      "size": 1,
      "price": "1011000000000000000000",
      "reserved": "",
      "salt": "0x1b61efa59261d740898d15fd7cc41a47df2b0f976ad660cf8b308d9c5e07cd01",
      "assetIds": []
    },
    {
      "x": 280,
      "y": 326,
      "size": 1,
      "price": "1011000000000000000000",
      "reserved": "",
      "salt": "0x51cf08c032e35f587384cf3adaf5533ca1261041e594af9adfc797e2afd08098",
      "assetIds": []
    },
    {
      "x": 280,
      "y": 327,
      "size": 1,
      "price": "1011000000000000000000",
      "reserved": "",
      "salt": "0xdab0ba97cee66e0d11c98e7e86cecdbf011a0e17be7ffcef366bf2661c0e9165",
      "assetIds": []
    },
    {
      "x": 280,
      "y": 328,
      "size": 1,
      "price": "1011000000000000000000",
      "reserved": "",
      "salt": "0x12194fa353d332ddb7a9114dcb55db7dede2923149435728be12959e5dda66d4",
      "assetIds": []
    },
    {
      "x": 280,
      "y": 329,
      "size": 1,
      "price": "1011000000000000000000",
      "reserved": "0x7a9fe22691c811ea339d9b73150e6911a5343dca",
      "salt": "0xe34a21f69c0b27a7e972b81332f20054143e1331886b78ba2293eb07b6e55d98",
      "assetIds": []
    },
    {
      "x": 280,
      "y": 330,
      "size": 1,
      "price": "1011000000000000000000",
      "reserved": "",
      "salt": "0x66e9e6fa143e1df643544bff7eb1a73e66e36f327cc9c05ea7487a4ba995432d",
      "assetIds": []
    },
    {
      "x": 280,
      "y": 331,
      "size": 1,
      "price": "1011000000000000000000",
      "reserved": "0x7a9fe22691c811ea339d9b73150e6911a5343dca",
      "salt": "0x01cdf5a3378ddaba1f122f6117541f2e8e86bd95871cdec3520d15a534e41bfa",
      "assetIds": []
    },
    {
      "x": 280,
      "y": 332,
      "size": 1,
      "price": "1011000000000000000000",
      "reserved": "",
      "salt": "0xec7d28c4f4c5d325721c9a0a6bfae9faab917735f2956ab7d36cb823ac3f49a9",
      "assetIds": []
    },
    {
      "x": 280,
      "y": 333,
      "size": 1,
      "price": "1011000000000000000000",
      "reserved": "",
      "salt": "0x249519a6d5634a9e82f41255b4e8d8cbbca58ace639171dc63b5daa1539e575e",
      "assetIds": []
    },
    {
      "x": 280,
      "y": 334,
      "size": 1,
      "price": "1011000000000000000000",
      "reserved": "",
      "salt": "0x65400ecfb4d29c73d9e2f95a93b3d6d70807eba4e981190b90d4db116eb7bc07",
      "assetIds": []
    },
    {
      "x": 280,
      "y": 335,
      "size": 1,
      "price": "1011000000000000000000",
      "reserved": "",
      "salt": "0x12e4407c78d33024978a2a29cb810b73dcaf7d8e61414a0a88b2ea836fb6eac5",
      "assetIds": []
    },
    {
      "x": 281,
      "y": 312,
      "size": 1,
      "price": "1011000000000000000000",
      "reserved": "",
      "salt": "0x3fb1bd94dd60a796a71c86313bcf6a6b511094af7605e84b021d72f0d09f7f4e",
      "assetIds": []
    },
    {
      "x": 281,
      "y": 313,
      "size": 1,
      "price": "1011000000000000000000",
      "reserved": "",
      "salt": "0x1596247ff0f1f517d7428166487432532f74724519ab6121a7f741bdf5985c6a",
      "assetIds": []
    },
    {
      "x": 281,
      "y": 314,
      "size": 1,
      "price": "1011000000000000000000",
      "reserved": "",
      "salt": "0x46ec453f3ad28dd41c2138a5a2b7af3d7f77a9a58b0d597f3d86a00e8466b3e4",
      "assetIds": []
    },
    {
      "x": 281,
      "y": 315,
      "size": 1,
      "price": "1011000000000000000000",
      "reserved": "",
      "salt": "0xc8541e2bc308948c56272cae402d6ba53865142734bed28729ca80ff4da81e29",
      "assetIds": []
    },
    {
      "x": 281,
      "y": 316,
      "size": 1,
      "price": "1011000000000000000000",
      "reserved": "",
      "salt": "0x25c0edb6c194bd2014a840b5e6b2f858b731dbf5abe0fbe7402c87c0db20fc26",
      "assetIds": []
    },
    {
      "x": 281,
      "y": 317,
      "size": 1,
      "price": "1011000000000000000000",
      "reserved": "",
      "salt": "0x794538ed1f3d6eb3aef0df65b062023bb06f296319d039daeea9b062a502bd30",
      "assetIds": []
    },
    {
      "x": 281,
      "y": 318,
      "size": 1,
      "price": "1011000000000000000000",
      "reserved": "",
      "salt": "0x1bd69a6fc4f90048cc541090c4f5ba227b04219a8f44a684d6b6334db258fac0",
      "assetIds": []
    },
    {
      "x": 281,
      "y": 319,
      "size": 1,
      "price": "1011000000000000000000",
      "reserved": "",
      "salt": "0x5e7ef248007d5abb426cb6e9a1441f1baaa4be185b30d64357c5bd7ce40852dd",
      "assetIds": []
    },
    {
      "x": 281,
      "y": 320,
      "size": 1,
      "price": "1011000000000000000000",
      "reserved": "",
      "salt": "0x4a02a7b8cf1e9251aa5d5dcacaefbe3fa7f97c0e5c34674f85c800aa53201a45",
      "assetIds": []
    },
    {
      "x": 281,
      "y": 321,
      "size": 1,
      "price": "1011000000000000000000",
      "reserved": "0x7a9fe22691c811ea339d9b73150e6911a5343dca",
      "salt": "0x5d87e54970e8bf7d22df90481a1e38f37d9705beea691b81be826c2ea3985060",
      "assetIds": []
    },
    {
      "x": 281,
      "y": 322,
      "size": 1,
      "price": "1011000000000000000000",
      "reserved": "",
      "salt": "0xcdf42da2a6693ba31ff6fefabf0dd2371083b248f51a6bc6a17f2c991b19468c",
      "assetIds": []
    },
    {
      "x": 281,
      "y": 323,
      "size": 1,
      "price": "1011000000000000000000",
      "reserved": "",
      "salt": "0xbf54fb2a91871b5ef869d93b02e7af29d7acd2bc9e63d789a521c6b31cf1affa",
      "assetIds": []
    },
    {
      "x": 281,
      "y": 324,
      "size": 1,
      "price": "1011000000000000000000",
      "reserved": "",
      "salt": "0x5616d88c18f698826b27ffc291644c26da30b3f73537e26e0e40de38523eefc1",
      "assetIds": []
    },
    {
      "x": 281,
      "y": 325,
      "size": 1,
      "price": "1011000000000000000000",
      "reserved": "",
      "salt": "0xe2655a5c6477458db7d1d3c45e91971efd1c7dc1813126fbe2d5abf3022106e2",
      "assetIds": []
    },
    {
      "x": 281,
      "y": 326,
      "size": 1,
      "price": "1011000000000000000000",
      "reserved": "",
      "salt": "0x77490cdf25cdc682fdc54bbb01322ca5abf655273e539c1f4462937cc9d5356c",
      "assetIds": []
    },
    {
      "x": 281,
      "y": 327,
      "size": 1,
      "price": "1011000000000000000000",
      "reserved": "",
      "salt": "0x0294dc77f707918554e124a427877a27683c0ca05c22a1ded1e9f1c2854f5e10",
      "assetIds": []
    },
    {
      "x": 281,
      "y": 328,
      "size": 1,
      "price": "1011000000000000000000",
      "reserved": "",
      "salt": "0xfe9c28d9129d1b5d18f0454d68615b01437ca8d57058c03a3926ae42feb8a1cf",
      "assetIds": []
    },
    {
      "x": 281,
      "y": 329,
      "size": 1,
      "price": "1011000000000000000000",
      "reserved": "",
      "salt": "0x669efdffcb369c76885f986537bf387ece176ba9901c56a295225152ca5e0659",
      "assetIds": []
    },
    {
      "x": 281,
      "y": 330,
      "size": 1,
      "price": "1011000000000000000000",
      "reserved": "",
      "salt": "0x5b89e72ae590dc27d9ec5ee4d2335f615817283603b02fa6891c6feb2d66923f",
      "assetIds": []
    },
    {
      "x": 281,
      "y": 331,
      "size": 1,
      "price": "1011000000000000000000",
      "reserved": "0x7a9fe22691c811ea339d9b73150e6911a5343dca",
      "salt": "0x51ec5fce8603aa483e59877624a9b9f84b2476e898de72c15b546ad306958c37",
      "assetIds": []
    },
    {
      "x": 281,
      "y": 332,
      "size": 1,
      "price": "1011000000000000000000",
      "reserved": "",
      "salt": "0xd09196eb00e3651f48ec16cd76a32c1ce11fe1aa26e121f7167e5868e37ae9e2",
      "assetIds": []
    },
    {
      "x": 281,
      "y": 333,
      "size": 1,
      "price": "1011000000000000000000",
      "reserved": "",
      "salt": "0x605a51a0c63d01afb1ec920d637addecf9d34a8372da72cd4fcce651d63a9332",
      "assetIds": []
    },
    {
      "x": 281,
      "y": 334,
      "size": 1,
      "price": "1011000000000000000000",
      "reserved": "",
      "salt": "0x2d8d298c1867648d3ad7872a3338e2b3daa0fb3dba559695d177494e6f5f6a7b",
      "assetIds": []
    },
    {
      "x": 281,
      "y": 335,
      "size": 1,
      "price": "1011000000000000000000",
      "reserved": "",
      "salt": "0x4f4b53446887544b5b52f9b4e46d75cbc4078fa21f8947598ee42fe2c34c8bee",
      "assetIds": []
    },
    {
      "x": 282,
      "y": 312,
      "size": 1,
      "price": "1011000000000000000000",
      "reserved": "",
      "salt": "0x00f3bea7eba56a7bc3fc1ac8e62b3fa145f6f47e55a817630f927dd2a84fc78a",
      "assetIds": []
    },
    {
      "x": 282,
      "y": 313,
      "size": 1,
      "price": "1011000000000000000000",
      "reserved": "",
      "salt": "0x5ab3f317c5ede82d5d99fea3c5b66509f7c4248538538fb6ed70b6556edaad55",
      "assetIds": []
    },
    {
      "x": 282,
      "y": 314,
      "size": 1,
      "price": "1011000000000000000000",
      "reserved": "",
      "salt": "0x1ab00bd6aed53b9034316d3b973689744c7e10e68b431e798457b07025f710b2",
      "assetIds": []
    },
    {
      "x": 282,
      "y": 315,
      "size": 1,
      "price": "1011000000000000000000",
      "reserved": "",
      "salt": "0xb0b9df2521cd996477bccee4b6961d51ad1ea4be6f8e7b815e3d7e85548ef272",
      "assetIds": []
    },
    {
      "x": 282,
      "y": 316,
      "size": 1,
      "price": "1011000000000000000000",
      "reserved": "",
      "salt": "0x1e30c6c4c3a06dd44ae21a3e483c6f7b9c3c02cb3470b0ffe1078e72ac6f8b1d",
      "assetIds": []
    },
    {
      "x": 282,
      "y": 317,
      "size": 1,
      "price": "1011000000000000000000",
      "reserved": "",
      "salt": "0x1ab4d70291546be69378fe3d4f3f8b38ab3eb451db6e0b764470fc9cd61cffd9",
      "assetIds": []
    },
    {
      "x": 282,
      "y": 318,
      "size": 1,
      "price": "1011000000000000000000",
      "reserved": "",
      "salt": "0xfb099d41400e249d107a605f1b388e3f8a0391c4f2461333fd9e9b2c32eeb6e5",
      "assetIds": []
    },
    {
      "x": 282,
      "y": 319,
      "size": 1,
      "price": "1011000000000000000000",
      "reserved": "",
      "salt": "0xad3897fa3b6e7f347279133172cebcf2a83850dc85d69845c3df8ab26ec17cde",
      "assetIds": []
    },
    {
      "x": 282,
      "y": 320,
      "size": 1,
      "price": "1011000000000000000000",
      "reserved": "",
      "salt": "0xa930a85fb92e3c2203eeb943adc1ab87954447beb69d8a65cdef28951d990536",
      "assetIds": []
    },
    {
      "x": 282,
      "y": 321,
      "size": 1,
      "price": "1011000000000000000000",
      "reserved": "",
      "salt": "0xba4c02114688516919b17df8f0299f432b7c04910bf0d8ec39ace5cb68cf9d06",
      "assetIds": []
    },
    {
      "x": 282,
      "y": 322,
      "size": 1,
      "price": "1011000000000000000000",
      "reserved": "",
      "salt": "0x1a05bce394d61ef19549a5ed12de6c67399c47d5eb7ad6439ea68fbb9193d8ef",
      "assetIds": []
    },
    {
      "x": 282,
      "y": 323,
      "size": 1,
      "price": "1011000000000000000000",
      "reserved": "0x7a9fe22691c811ea339d9b73150e6911a5343dca",
      "salt": "0xb2dc9c489adaef3aef5aa7dd587e43e35c6beaf08cc5bb09ab9fc91dc6b7a072",
      "assetIds": []
    },
    {
      "x": 282,
      "y": 324,
      "size": 1,
      "price": "1011000000000000000000",
      "reserved": "",
      "salt": "0xc5fd8e482b8678b7aafdb3bf8a15ed7c63e4db03c54f14308bd17b1f4c121c71",
      "assetIds": []
    },
    {
      "x": 282,
      "y": 325,
      "size": 1,
      "price": "1011000000000000000000",
      "reserved": "",
      "salt": "0xf52649577d8e00e38a6d04b43a6ac14a12e7c2bbcbcf58d9ee2b9a85e7b5e39d",
      "assetIds": []
    },
    {
      "x": 282,
      "y": 326,
      "size": 1,
      "price": "1011000000000000000000",
      "reserved": "",
      "salt": "0xb05fa875c527e8352271a46e1d5a1ba647a055d2c0cfccf5d95a37ca9b7a6e81",
      "assetIds": []
    },
    {
      "x": 282,
      "y": 327,
      "size": 1,
      "price": "1011000000000000000000",
      "reserved": "",
      "salt": "0xbe9c8141cd72a856775259cd696eb4c8bcc9e1cd3ff37eb83b7d8ded4a49ef0a",
      "assetIds": []
    },
    {
      "x": 282,
      "y": 328,
      "size": 1,
      "price": "1011000000000000000000",
      "reserved": "",
      "salt": "0xdc1ef519287bd50cf451fdbca0593141ff45af4e17545cd30eede9cfd5cabbd6",
      "assetIds": []
    },
    {
      "x": 282,
      "y": 329,
      "size": 1,
      "price": "1011000000000000000000",
      "reserved": "",
      "salt": "0x998605f2a3c33e2688f551bbb142909c8298cfce8954044443a2e8d32054da15",
      "assetIds": []
    },
    {
      "x": 282,
      "y": 330,
      "size": 1,
      "price": "1011000000000000000000",
      "reserved": "0x7a9fe22691c811ea339d9b73150e6911a5343dca",
      "salt": "0x1d701b8afc6b06907dbb81f1ee8af37d541f0b84b8f6460888b203e417e5a656",
      "assetIds": []
    },
    {
      "x": 282,
      "y": 331,
      "size": 1,
      "price": "1011000000000000000000",
      "reserved": "",
      "salt": "0x089ac925f0c7a219c66d447d6790646321654a74305b53d7037c2e9c46c36eb7",
      "assetIds": []
    },
    {
      "x": 282,
      "y": 332,
      "size": 1,
      "price": "1011000000000000000000",
      "reserved": "",
      "salt": "0x5e338f64fbc316e69e3674da41e58ab9e8e4e0582cfae51008c4faab6a5a9e08",
      "assetIds": []
    },
    {
      "x": 282,
      "y": 333,
      "size": 1,
      "price": "1011000000000000000000",
      "reserved": "0x7a9fe22691c811ea339d9b73150e6911a5343dca",
      "salt": "0xe9b3b70a1d48b82c55f09a9f9834c906034a225c4bc7b46b35878a46a938aa08",
      "assetIds": []
    },
    {
      "x": 282,
      "y": 334,
      "size": 1,
      "price": "1011000000000000000000",
      "reserved": "",
      "salt": "0x47f4e70c2c0cb8adc1f8fb64fd793ac1f2f87755550e68a9e37c0583f6bcede2",
      "assetIds": []
    },
    {
      "x": 282,
      "y": 335,
      "size": 1,
      "price": "1011000000000000000000",
      "reserved": "",
      "salt": "0x3e7eff3d81244246eae7d8e965054bd71aebd2536b7d3d255567ea83910e29ff",
      "assetIds": []
    },
    {
      "x": 283,
      "y": 312,
      "size": 1,
      "price": "1011000000000000000000",
      "reserved": "",
      "salt": "0x376a26ad691ffb183f10de965cf72bca39c6940f8eaa332466bea7ce41ba756b",
      "assetIds": []
    },
    {
      "x": 283,
      "y": 313,
      "size": 1,
      "price": "1011000000000000000000",
      "reserved": "",
      "salt": "0x8506bed13b111a82cf4277391184fc896e8f8e51afcf103ac9dab9ca39d147cd",
      "assetIds": []
    },
    {
      "x": 283,
      "y": 314,
      "size": 1,
      "price": "1011000000000000000000",
      "reserved": "",
      "salt": "0x5e6f8554abeb327a173394f2f32ee0f79513331dc10456ed3b9a7dc021341c03",
      "assetIds": []
    },
    {
      "x": 283,
      "y": 315,
      "size": 1,
      "price": "1011000000000000000000",
      "reserved": "",
      "salt": "0x1cf5bbd94e510935437e4c337f8e04beeedc41d9dff044b605cf78c5773937fb",
      "assetIds": []
    },
    {
      "x": 283,
      "y": 316,
      "size": 1,
      "price": "1011000000000000000000",
      "reserved": "",
      "salt": "0x506d0d45c9169de82ae7e37b913542f688a5d841398fb070676f194c6969b625",
      "assetIds": []
    },
    {
      "x": 283,
      "y": 317,
      "size": 1,
      "price": "1011000000000000000000",
      "reserved": "",
      "salt": "0x273e7b66046a0f760b8028ca67ba83a554cf5f1ebbe31f8b089e3f78ed2f4662",
      "assetIds": []
    },
    {
      "x": 283,
      "y": 318,
      "size": 1,
      "price": "1011000000000000000000",
      "reserved": "",
      "salt": "0x36b803d4fdf3295b22c6afb28bf856aa7561d8dacea41b452a79f40f006b7e63",
      "assetIds": []
    },
    {
      "x": 283,
      "y": 319,
      "size": 1,
      "price": "1011000000000000000000",
      "reserved": "",
      "salt": "0xd4f8cfd35d5b26daaa2b71f95fae5c8e73dffcec47e39b766de3a0b2ef024760",
      "assetIds": []
    },
    {
      "x": 283,
      "y": 320,
      "size": 1,
      "price": "1011000000000000000000",
      "reserved": "",
      "salt": "0x710a781457f1245a5ac91f18ad0688b86835c48dbbeb81379e052ba502ad388f",
      "assetIds": []
    },
    {
      "x": 283,
      "y": 321,
      "size": 1,
      "price": "1011000000000000000000",
      "reserved": "",
      "salt": "0xb5cfc97540a8f32836f7cf06ac37ec088abb4a04b62173b2dabdd06aa01244e1",
      "assetIds": []
    },
    {
      "x": 283,
      "y": 322,
      "size": 1,
      "price": "1011000000000000000000",
      "reserved": "",
      "salt": "0x13643eb4dce2bb58d1b3047b0e5beb23c8d82a19879708eb1621a58c4a266d35",
      "assetIds": []
    },
    {
      "x": 283,
      "y": 323,
      "size": 1,
      "price": "1011000000000000000000",
      "reserved": "",
      "salt": "0x69a3d01d1084824dbdf8469752a7cad0ae6d4dac8fe14eab126eb8fc124918fb",
      "assetIds": []
    },
    {
      "x": 283,
      "y": 324,
      "size": 1,
      "price": "1011000000000000000000",
      "reserved": "",
      "salt": "0x50459e6347ed49cc79404893bea3293a511ab611fe2847b97bbb112f622c7c91",
      "assetIds": []
    },
    {
      "x": 283,
      "y": 325,
      "size": 1,
      "price": "1011000000000000000000",
      "reserved": "",
      "salt": "0xabf01b481ba4bd6b78687476f35ca2489a249bd62b2d4975601f9ccb2d34c4dd",
      "assetIds": []
    },
    {
      "x": 283,
      "y": 326,
      "size": 1,
      "price": "1011000000000000000000",
      "reserved": "",
      "salt": "0x96597cc2df0842a2961cc94b8dac0d4ba20e9e0d1024a8bf32e39b24d86d0caf",
      "assetIds": []
    },
    {
      "x": 283,
      "y": 327,
      "size": 1,
      "price": "1011000000000000000000",
      "reserved": "",
      "salt": "0x1e260c43a895277d482b336d4e7ba018031ca486beea327b62fabf075e706d18",
      "assetIds": []
    },
    {
      "x": 283,
      "y": 328,
      "size": 1,
      "price": "1011000000000000000000",
      "reserved": "",
      "salt": "0x931fa79c73e98e0c44aca163c39de09ebed07f7a66f47aa5831ec1752bd7b1f7",
      "assetIds": []
    },
    {
      "x": 283,
      "y": 329,
      "size": 1,
      "price": "1011000000000000000000",
      "reserved": "",
      "salt": "0xa3331377c77021c9313d5961bbda0d7d0de088691aed0b62a0ba0b2e492c14a2",
      "assetIds": []
    },
    {
      "x": 283,
      "y": 330,
      "size": 1,
      "price": "1011000000000000000000",
      "reserved": "",
      "salt": "0x23079a03391e02759a7eae56d577eba7ddd0819baa3778509d1a8b8beddf513d",
      "assetIds": []
    },
    {
      "x": 283,
      "y": 331,
      "size": 1,
      "price": "1011000000000000000000",
      "reserved": "",
      "salt": "0x2168054301d820ed3cce788533fec2fac5cd140fa093caaf507e8d295ebf3b5f",
      "assetIds": []
    },
    {
      "x": 283,
      "y": 332,
      "size": 1,
      "price": "1011000000000000000000",
      "reserved": "",
      "salt": "0x989b1484df01cb10f428c699e8361b77188764fcf8dd3b5dfcd880d3bcf46716",
      "assetIds": []
    },
    {
      "x": 283,
      "y": 333,
      "size": 1,
      "price": "1011000000000000000000",
      "reserved": "0x7a9fe22691c811ea339d9b73150e6911a5343dca",
      "salt": "0xd53338cf8f03c1e5a185ef291c3c8abbd4a119c139c6e4f8de974912c0ccce20",
      "assetIds": []
    },
    {
      "x": 283,
      "y": 334,
      "size": 1,
      "price": "1011000000000000000000",
      "reserved": "",
      "salt": "0x2847515205ad8d01a99a5b501c3a61867a58cd0280ee8c28de87568119c62ce7",
      "assetIds": []
    },
    {
      "x": 283,
      "y": 335,
      "size": 1,
      "price": "1011000000000000000000",
      "reserved": "",
      "salt": "0x34762cde262c45324d89e75530fc9d83956a6a71233f1ac5c69893245f9fd203",
      "assetIds": []
    },
    {
      "x": 284,
      "y": 312,
      "size": 1,
      "price": "1011000000000000000000",
      "reserved": "",
      "salt": "0xd6ef6d63505a17d362139bf0ace11f4fa4e7f93a256031a7d8d61b3382985322",
      "assetIds": []
    },
    {
      "x": 284,
      "y": 313,
      "size": 1,
      "price": "1011000000000000000000",
      "reserved": "",
      "salt": "0xe7165183c55cf232e7fad7b2f0e49c342e6013ff33b65278ca8e1807598bc654",
      "assetIds": []
    },
    {
      "x": 284,
      "y": 314,
      "size": 1,
      "price": "1011000000000000000000",
      "reserved": "",
      "salt": "0x0b34ecfa650b14e2af95811e9dc69441cdaff8a5cd22a3fac05202795c8c9646",
      "assetIds": []
    },
    {
      "x": 284,
      "y": 315,
      "size": 1,
      "price": "1011000000000000000000",
      "reserved": "",
      "salt": "0x9fbc240d0b03a73f1728c9b69daff134e5394d47f5f2cb530264fdda88e1f629",
      "assetIds": []
    },
    {
      "x": 284,
      "y": 316,
      "size": 1,
      "price": "1011000000000000000000",
      "reserved": "",
      "salt": "0x69cf0b6cb4d7a6615415f2e4a7efd4161e8a7349d5062658ffb5c41361012271",
      "assetIds": []
    },
    {
      "x": 284,
      "y": 317,
      "size": 1,
      "price": "1011000000000000000000",
      "reserved": "",
      "salt": "0xb3e2446d38d397f978b0813b63f78dfa8dfef3746dc9393e240cfb2835fe5af6",
      "assetIds": []
    },
    {
      "x": 284,
      "y": 318,
      "size": 1,
      "price": "1011000000000000000000",
      "reserved": "",
      "salt": "0x498c9a4c27d416bc340841b6f451fe70bfac258d9b9e1b1f79bc5b05f3fbc666",
      "assetIds": []
    },
    {
      "x": 284,
      "y": 319,
      "size": 1,
      "price": "1011000000000000000000",
      "reserved": "0x7a9fe22691c811ea339d9b73150e6911a5343dca",
      "salt": "0xe56656e6102913609646b5ed1036cda6e20e9022563312025eacde511d1a129d",
      "assetIds": []
    },
    {
      "x": 284,
      "y": 320,
      "size": 1,
      "price": "1011000000000000000000",
      "reserved": "",
      "salt": "0x25dbe7ff0c88cfc28288460ba2deed44907bc1436fd210e0d359f1c320431747",
      "assetIds": []
    },
    {
      "x": 284,
      "y": 321,
      "size": 1,
      "price": "1011000000000000000000",
      "reserved": "",
      "salt": "0xe04d75d0fface570d51d38572d36b074ce67e0ae8c49a74eab78b147c38dd67d",
      "assetIds": []
    },
    {
      "x": 284,
      "y": 322,
      "size": 1,
      "price": "1011000000000000000000",
      "reserved": "",
      "salt": "0xe5e64de918158dbb917397d31794e724d72e64761f37e5d4a27c6a3c438fa054",
      "assetIds": []
    },
    {
      "x": 284,
      "y": 323,
      "size": 1,
      "price": "1011000000000000000000",
      "reserved": "",
      "salt": "0xc0d5947c5fa1493b11fdfe94e184d91c21f7a8b4b0e7bc76ab54945545cd3e0a",
      "assetIds": []
    },
    {
      "x": 284,
      "y": 324,
      "size": 1,
      "price": "1011000000000000000000",
      "reserved": "",
      "salt": "0x5dfda49be0dcf65c0988c6657a7e2977d9ccc77c019064a3fdb3e1a64cb09e7c",
      "assetIds": []
    },
    {
      "x": 284,
      "y": 325,
      "size": 1,
      "price": "1011000000000000000000",
      "reserved": "0x7a9fe22691c811ea339d9b73150e6911a5343dca",
      "salt": "0xb32e70bcb8508b680bf66dad46aec503a1eb75897875e19778338fa4c89d5508",
      "assetIds": []
    },
    {
      "x": 284,
      "y": 326,
      "size": 1,
      "price": "1011000000000000000000",
      "reserved": "",
      "salt": "0xc35d6e040125c5c37c40b4d02ea8015129eb9de9037ecff9b5f4a0ea399e7152",
      "assetIds": []
    },
    {
      "x": 284,
      "y": 327,
      "size": 1,
      "price": "1011000000000000000000",
      "reserved": "0x7a9fe22691c811ea339d9b73150e6911a5343dca",
      "salt": "0xa698f1c7b2c4145d8933ebd9cf48645971bddd5f0fa0a01663b5b604a29ff6a5",
      "assetIds": []
    },
    {
      "x": 284,
      "y": 328,
      "size": 1,
      "price": "1011000000000000000000",
      "reserved": "",
      "salt": "0xaaaee5cf0349b97fb49ae4775e5f3026e04b3adc78f5a2c31fcf403a231d950e",
      "assetIds": []
    },
    {
      "x": 284,
      "y": 329,
      "size": 1,
      "price": "1011000000000000000000",
      "reserved": "",
      "salt": "0x5cca539a34c0472af13b5cc809ab9e5f30f5ad22dac46074d5af195acb8f909d",
      "assetIds": []
    },
    {
      "x": 284,
      "y": 330,
      "size": 1,
      "price": "1011000000000000000000",
      "reserved": "",
      "salt": "0xfb9cc6af6ffa314e3476777c8e4b4b9abad467105a122b596c673a054ecf56d7",
      "assetIds": []
    },
    {
      "x": 284,
      "y": 331,
      "size": 1,
      "price": "1011000000000000000000",
      "reserved": "",
      "salt": "0xc93000a81483aaea558bc75befceffcb6494f3a5669529ad758c29f8fab8bf7a",
      "assetIds": []
    },
    {
      "x": 284,
      "y": 332,
      "size": 1,
      "price": "1011000000000000000000",
      "reserved": "",
      "salt": "0x7ce8128f6e3a0653db5628b39ac48c8f1b07fccd32734d286268aa987ef54051",
      "assetIds": []
    },
    {
      "x": 284,
      "y": 333,
      "size": 1,
      "price": "1011000000000000000000",
      "reserved": "",
      "salt": "0xf0a95520d14fadaf53e1cb68518959a587135cb0dee7f112155932afa1145f53",
      "assetIds": []
    },
    {
      "x": 284,
      "y": 334,
      "size": 1,
      "price": "1011000000000000000000",
      "reserved": "",
      "salt": "0x6cda7948a5aea48c1d4c14b2d10f58d30a2b4437f21543d6128d5e52d8135d9e",
      "assetIds": []
    },
    {
      "x": 284,
      "y": 335,
      "size": 1,
      "price": "1011000000000000000000",
      "reserved": "",
      "salt": "0x1ee5ce1c0ca539552cb68dcfa8e17d21217655e7d81ab878a96165ded88dc097",
      "assetIds": []
    },
    {
      "x": 285,
      "y": 312,
      "size": 1,
      "price": "1011000000000000000000",
      "reserved": "",
      "salt": "0x4248fabc436e5c252ef6a2a6f146c4963edb6070e552b82d7beda41a2799a48c",
      "assetIds": []
    },
    {
      "x": 285,
      "y": 313,
      "size": 1,
      "price": "1011000000000000000000",
      "reserved": "",
      "salt": "0x40d6f8cbc5adc8c537e3b6b03573bde541e83963a4e47c8d91729e28d8910927",
      "assetIds": []
    },
    {
      "x": 285,
      "y": 314,
      "size": 1,
      "price": "1011000000000000000000",
      "reserved": "",
      "salt": "0x31ce8f483895c8989d63cf241c56262f211a71b749b6846805221195e1ddcda0",
      "assetIds": []
    },
    {
      "x": 285,
      "y": 315,
      "size": 1,
      "price": "1011000000000000000000",
      "reserved": "",
      "salt": "0x234e6f49d8c68dac8c8cb5c784877111a330f46366da2407f72ef387ebf47399",
      "assetIds": []
    },
    {
      "x": 285,
      "y": 316,
      "size": 1,
      "price": "1011000000000000000000",
      "reserved": "0x7a9fe22691c811ea339d9b73150e6911a5343dca",
      "salt": "0xbec584428183cc27e889d60fb2a1521e7ed74617d1b5b39a9c03100610973171",
      "assetIds": []
    },
    {
      "x": 285,
      "y": 317,
      "size": 1,
      "price": "1011000000000000000000",
      "reserved": "",
      "salt": "0x8110e60185e0231f2e9a87e72b48f28cb98cbaf65807e69ede557951fb27b353",
      "assetIds": []
    },
    {
      "x": 285,
      "y": 318,
      "size": 1,
      "price": "1011000000000000000000",
      "reserved": "0x7a9fe22691c811ea339d9b73150e6911a5343dca",
      "salt": "0x8c95fdf5979da0f8c672fc0cbec30601a9602162c4648e38ac1853cf742bdc12",
      "assetIds": []
    },
    {
      "x": 285,
      "y": 319,
      "size": 1,
      "price": "1011000000000000000000",
      "reserved": "",
      "salt": "0x92814cc66291361a2601ac95345693e50101f0466e7a22d47556e57b0616f71f",
      "assetIds": []
    },
    {
      "x": 285,
      "y": 320,
      "size": 1,
      "price": "1011000000000000000000",
      "reserved": "0x7a9fe22691c811ea339d9b73150e6911a5343dca",
      "salt": "0x6d52704f6480a5d07e0537fad7c9ee890c6d432909edcdaac70a1fd736e72ebb",
      "assetIds": []
    },
    {
      "x": 285,
      "y": 321,
      "size": 1,
      "price": "1011000000000000000000",
      "reserved": "",
      "salt": "0x4859aabcf8fcf55e5482ab48c295373883a49cc7bb4cc607f43ce59cf1d29892",
      "assetIds": []
    },
    {
      "x": 285,
      "y": 322,
      "size": 1,
      "price": "1011000000000000000000",
      "reserved": "",
      "salt": "0xe24da367b09a0d7bf9d7c66002e1c7503655aff6fc0a9fb1cc4c7092dda66430",
      "assetIds": []
    },
    {
      "x": 285,
      "y": 323,
      "size": 1,
      "price": "1011000000000000000000",
      "reserved": "",
      "salt": "0xfd22ddf11c72dcc68ddfafe1bfcdde5597234eae2a77c4f00028e9fe6bead3dc",
      "assetIds": []
    },
    {
      "x": 285,
      "y": 324,
      "size": 1,
      "price": "1011000000000000000000",
      "reserved": "",
      "salt": "0xbfa84ca1625ffde1c9726bdcf500e234ac08a4c641d49ebbc354919dc2dfac99",
      "assetIds": []
    },
    {
      "x": 285,
      "y": 325,
      "size": 1,
      "price": "1011000000000000000000",
      "reserved": "",
      "salt": "0x6f342c30ea20e847e9babb09c67ea994b7d43590255502c8f1ded75618cc906e",
      "assetIds": []
    },
    {
      "x": 285,
      "y": 326,
      "size": 1,
      "price": "1011000000000000000000",
      "reserved": "",
      "salt": "0x23c0ba8fa32ca07b418859e31a6a6271efe73c07d6d9c1f01072735b90a1660f",
      "assetIds": []
    },
    {
      "x": 285,
      "y": 327,
      "size": 1,
      "price": "1011000000000000000000",
      "reserved": "0x7a9fe22691c811ea339d9b73150e6911a5343dca",
      "salt": "0x77cf235b4ae5a5af242630a2670a95702dd5c26518b0833a493eee2fd053b733",
      "assetIds": []
    },
    {
      "x": 285,
      "y": 328,
      "size": 1,
      "price": "1011000000000000000000",
      "reserved": "",
      "salt": "0xf4964c2ae9716feba8c448c92ae539d95e725af20cbf1c66e08690a11d635ab7",
      "assetIds": []
    },
    {
      "x": 285,
      "y": 329,
      "size": 1,
      "price": "1011000000000000000000",
      "reserved": "",
      "salt": "0xd5033e26d8f30f64501274528c9575605c16f9d87cb86bd04eb32464d11b551c",
      "assetIds": []
    },
    {
      "x": 285,
      "y": 330,
      "size": 1,
      "price": "1011000000000000000000",
      "reserved": "",
      "salt": "0xf66c2a164b66ab5aaa470af85fa2a0f3f82650c232880e519253617625b91913",
      "assetIds": []
    },
    {
      "x": 285,
      "y": 331,
      "size": 1,
      "price": "1011000000000000000000",
      "reserved": "",
      "salt": "0x70f867d55d586ec810d27e7125f7975eef003a39c3847ec2b53faf4cfb4a318e",
      "assetIds": []
    },
    {
      "x": 285,
      "y": 332,
      "size": 1,
      "price": "1011000000000000000000",
      "reserved": "0x7a9fe22691c811ea339d9b73150e6911a5343dca",
      "salt": "0x0f1d61dde6c7c38577a640131fc36e69308aa9f4a2d51c9588e840cf53ae2fe5",
      "assetIds": []
    },
    {
      "x": 285,
      "y": 333,
      "size": 1,
      "price": "1011000000000000000000",
      "reserved": "",
      "salt": "0xcbf3393275eb3b638c5be11373a00312ba232a0c907fd960b730025907eb0216",
      "assetIds": []
    },
    {
      "x": 285,
      "y": 334,
      "size": 1,
      "price": "1011000000000000000000",
      "reserved": "",
      "salt": "0xf5b6fc3c03392a9c08d1cdb0111d1b0e4e669bca18c666bd7b1b75ede52339bb",
      "assetIds": []
    },
    {
      "x": 285,
      "y": 335,
      "size": 1,
      "price": "1011000000000000000000",
      "reserved": "",
      "salt": "0xe2ef3a7ae8e292bfb4483aa7bf20c99bc278271a648bc6b3ad1e9a1eaf42ea43",
      "assetIds": []
    },
    {
      "x": 286,
      "y": 312,
      "size": 1,
      "price": "1011000000000000000000",
      "reserved": "",
      "salt": "0x28c780a8db75c49c29c5507ee0ee8e416bb25ccfdb47ba79cfcaaddba5889529",
      "assetIds": []
    },
    {
      "x": 286,
      "y": 313,
      "size": 1,
      "price": "1011000000000000000000",
      "reserved": "",
      "salt": "0x8989d523ba0cf97bcf285a84dd22519d66ed843180e4643cd6d287d0bbb0c12b",
      "assetIds": []
    },
    {
      "x": 286,
      "y": 314,
      "size": 1,
      "price": "1011000000000000000000",
      "reserved": "",
      "salt": "0x9cda99ae812ca087a7941318e67579ebbb24905335e1d4716ffc6eca67c19fb2",
      "assetIds": []
    },
    {
      "x": 286,
      "y": 315,
      "size": 1,
      "price": "1011000000000000000000",
      "reserved": "",
      "salt": "0x61271cfd4d09fbc2dab86df7b174ee094c33bc867a79be2ec540f7292d3c9a43",
      "assetIds": []
    },
    {
      "x": 286,
      "y": 316,
      "size": 1,
      "price": "1011000000000000000000",
      "reserved": "0x7a9fe22691c811ea339d9b73150e6911a5343dca",
      "salt": "0x8b233e0afdce5c37fae9c3a77587614852a6357f2cc4a1ffbc346729054e187e",
      "assetIds": []
    },
    {
      "x": 286,
      "y": 317,
      "size": 1,
      "price": "1011000000000000000000",
      "reserved": "",
      "salt": "0x8d85dcc5ada6c77aa734d2c2111e8f028b4f58a396178ffb97d18d015a7e4239",
      "assetIds": []
    },
    {
      "x": 286,
      "y": 318,
      "size": 1,
      "price": "1011000000000000000000",
      "reserved": "",
      "salt": "0x143089bd3821683aa213255f3f84a3182f332bf7b158564aebeffcf343b1a5eb",
      "assetIds": []
    },
    {
      "x": 286,
      "y": 319,
      "size": 1,
      "price": "1011000000000000000000",
      "reserved": "",
      "salt": "0x84fdc0cf281a2defbde12763d3625484bb0201b5deb6ddb40e3d72e9ae436d6e",
      "assetIds": []
    },
    {
      "x": 286,
      "y": 320,
      "size": 1,
      "price": "1011000000000000000000",
      "reserved": "",
      "salt": "0x5eebcad924528243dd4e39d0475f5e1c316c07f732dc2067addd24a16f38ac0c",
      "assetIds": []
    },
    {
      "x": 286,
      "y": 321,
      "size": 1,
      "price": "1011000000000000000000",
      "reserved": "0x7a9fe22691c811ea339d9b73150e6911a5343dca",
      "salt": "0x14beb1448d7e9aab6c1492eebf68a643fce411ef456d570095fa017140c2be2c",
      "assetIds": []
    },
    {
      "x": 286,
      "y": 322,
      "size": 1,
      "price": "1011000000000000000000",
      "reserved": "",
      "salt": "0xd63d5de14d66a799279bde4baeafc7e4859e69c65238e85211524735a5082c10",
      "assetIds": []
    },
    {
      "x": 286,
      "y": 323,
      "size": 1,
      "price": "1011000000000000000000",
      "reserved": "0x7a9fe22691c811ea339d9b73150e6911a5343dca",
      "salt": "0xb81f6ac6d61808f34ea812a9435208df0c56472230b07eb0d2c6f2c369d49671",
      "assetIds": []
    },
    {
      "x": 286,
      "y": 324,
      "size": 1,
      "price": "1011000000000000000000",
      "reserved": "",
      "salt": "0x5f186b7bec82678c400050b5ce385a249172fae87729176a3d37823a9cb145b2",
      "assetIds": []
    },
    {
      "x": 286,
      "y": 325,
      "size": 1,
      "price": "1011000000000000000000",
      "reserved": "",
      "salt": "0x04368d6fb96f961c1dd3ab2142d20f5c5201fe36bd88a494d50a1db9567ace0c",
      "assetIds": []
    },
    {
      "x": 286,
      "y": 326,
      "size": 1,
      "price": "1011000000000000000000",
      "reserved": "",
      "salt": "0x4019e577978c204e6b9b6453ccdf3c827c01d40b7f930b071aa3ceb49c601070",
      "assetIds": []
    },
    {
      "x": 286,
      "y": 327,
      "size": 1,
      "price": "1011000000000000000000",
      "reserved": "",
      "salt": "0x167cdb3541f45bf177f74b4e9407d1b8acf34da1fe9aa1cece5bc235e44b0645",
      "assetIds": []
    },
    {
      "x": 286,
      "y": 328,
      "size": 1,
      "price": "1011000000000000000000",
      "reserved": "",
      "salt": "0x2a7688691de6dde321206871646c4292f61958b9aac3397564216e5fa36ce98e",
      "assetIds": []
    },
    {
      "x": 286,
      "y": 329,
      "size": 1,
      "price": "1011000000000000000000",
      "reserved": "",
      "salt": "0xc93c4b6fde361ab154d36b680b7f5ed025f7219d69ad852ea1aa8964a76c6aba",
      "assetIds": []
    },
    {
      "x": 286,
      "y": 330,
      "size": 1,
      "price": "1011000000000000000000",
      "reserved": "",
      "salt": "0x373d185e99c055d7c19c94433dbef9050fc4fab5eaabeea9f527734836108a5d",
      "assetIds": []
    },
    {
      "x": 286,
      "y": 331,
      "size": 1,
      "price": "1011000000000000000000",
      "reserved": "",
      "salt": "0x1f7e1c352dd573797de1654e0a1ac493a2e8b4d2c5644b49a4ae43fd269345bc",
      "assetIds": []
    },
    {
      "x": 286,
      "y": 332,
      "size": 1,
      "price": "1011000000000000000000",
      "reserved": "",
      "salt": "0x23d8401648f8127edd14c54fd17b0df64cc645a747f629d6aed290a4c672a786",
      "assetIds": []
    },
    {
      "x": 286,
      "y": 333,
      "size": 1,
      "price": "1011000000000000000000",
      "reserved": "",
      "salt": "0xeed669018eb4c8d5815d4bb82b78b5a73f6251a718d266a09e20712ec52c81aa",
      "assetIds": []
    },
    {
      "x": 286,
      "y": 334,
      "size": 1,
      "price": "1011000000000000000000",
      "reserved": "",
      "salt": "0xbbf80336426bde06bc60f43c88d6e0de53207ee6722987da63502f463badda99",
      "assetIds": []
    },
    {
      "x": 286,
      "y": 335,
      "size": 1,
      "price": "1011000000000000000000",
      "reserved": "",
      "salt": "0xebfec15985d2fb5543b8422792377c6ab37b4d2f41b60665f5223ab71fbf2104",
      "assetIds": []
    },
    {
      "x": 287,
      "y": 312,
      "size": 1,
      "price": "1011000000000000000000",
      "reserved": "",
      "salt": "0xf076cfe74460e0e7ea5b602f5ad644e983dcd811f5e057920aa49bee5764e233",
      "assetIds": []
    },
    {
      "x": 287,
      "y": 313,
      "size": 1,
      "price": "1011000000000000000000",
      "reserved": "",
      "salt": "0x52735a49720bb9de52fee135d91a610218d08a1998121f182f5a1ecc2cf12df7",
      "assetIds": []
    },
    {
      "x": 287,
      "y": 314,
      "size": 1,
      "price": "1011000000000000000000",
      "reserved": "",
      "salt": "0xf72b9a5fb5f0f50e881580169e496dc71594fd155d334bd1756ec954fda493d5",
      "assetIds": []
    },
    {
      "x": 287,
      "y": 315,
      "size": 1,
      "price": "1011000000000000000000",
      "reserved": "",
      "salt": "0x8a3781d42c2e6157c573848a4c315d3a8c90f60996cafb486b43abd77462546b",
      "assetIds": []
    },
    {
      "x": 287,
      "y": 316,
      "size": 1,
      "price": "1011000000000000000000",
      "reserved": "",
      "salt": "0x19a1fa790f79ac469c2e1a2aa301051c4a399df4f0e448784f3f123a62d230ad",
      "assetIds": []
    },
    {
      "x": 287,
      "y": 317,
      "size": 1,
      "price": "1011000000000000000000",
      "reserved": "",
      "salt": "0xb818d10c17562dec9b0eb18d3e04a3a30f9b9eca505d977a03be133354120d3f",
      "assetIds": []
    },
    {
      "x": 287,
      "y": 318,
      "size": 1,
      "price": "1011000000000000000000",
      "reserved": "",
      "salt": "0x4acf6861819d1386a7f38aba4e883d1b1db70a9b93195871fcd0b87342b1c634",
      "assetIds": []
    },
    {
      "x": 287,
      "y": 319,
      "size": 1,
      "price": "1011000000000000000000",
      "reserved": "",
      "salt": "0x25c9419cbb693555b78b90a69766daeaaef552981ad0138b3055e87453b05214",
      "assetIds": []
    },
    {
      "x": 287,
      "y": 320,
      "size": 1,
      "price": "1011000000000000000000",
      "reserved": "",
      "salt": "0x60d59e9a6e7868d8710bc54e3110e52c2a834fc97a75b4ed249e6d672de9fef0",
      "assetIds": []
    },
    {
      "x": 287,
      "y": 321,
      "size": 1,
      "price": "1011000000000000000000",
      "reserved": "",
      "salt": "0xd0a3980799a344a25b355d2487987249325d0e44a879a61a558ebbaeaeb2c5de",
      "assetIds": []
    },
    {
      "x": 287,
      "y": 322,
      "size": 1,
      "price": "1011000000000000000000",
      "reserved": "",
      "salt": "0xab34c3452114b5ef4f8ebb665ede82f96e6f7f7c2165a544e64c1771f32a64b4",
      "assetIds": []
    },
    {
      "x": 287,
      "y": 323,
      "size": 1,
      "price": "1011000000000000000000",
      "reserved": "",
      "salt": "0x5d44be3f91db9e02dbeac1e60878a6f2aef95a52e69405586bd21f4b4664dcf4",
      "assetIds": []
    },
    {
      "x": 287,
      "y": 324,
      "size": 1,
      "price": "1011000000000000000000",
      "reserved": "",
      "salt": "0x0d297ec6bd41d4902942c510ee9ddee97c0a8f156a334bf7e251ea9cd105c0ee",
      "assetIds": []
    },
    {
      "x": 287,
      "y": 325,
      "size": 1,
      "price": "1011000000000000000000",
      "reserved": "",
      "salt": "0x4acaeb425d7493aa5c66b71125a13a7e89e7ef3f202327d6377adae2c0634b39",
      "assetIds": []
    },
    {
      "x": 287,
      "y": 326,
      "size": 1,
      "price": "1011000000000000000000",
      "reserved": "",
      "salt": "0xb6c142cf4250514a7c6beb18d111cadc49e5ef01a370c6b632df982096cc7838",
      "assetIds": []
    },
    {
      "x": 287,
      "y": 327,
      "size": 1,
      "price": "1011000000000000000000",
      "reserved": "",
      "salt": "0x0eae993f3b37bc8fe268f87df2ec7fd360a53e44e000e31e14198057d04c4125",
      "assetIds": []
    },
    {
      "x": 287,
      "y": 328,
      "size": 1,
      "price": "1011000000000000000000",
      "reserved": "",
      "salt": "0x6e36745955cb53fb84d973fc9d3677f15cc37af19b7f404c7b26468de88e49f6",
      "assetIds": []
    },
    {
      "x": 287,
      "y": 329,
      "size": 1,
      "price": "1011000000000000000000",
      "reserved": "",
      "salt": "0x9efde12c81e0fca34ab136d2ac31f8f4684390be66b2d090f4a86b31b33c524f",
      "assetIds": []
    },
    {
      "x": 287,
      "y": 330,
      "size": 1,
      "price": "1011000000000000000000",
      "reserved": "0x7a9fe22691c811ea339d9b73150e6911a5343dca",
      "salt": "0x3a3655a3aaa5ed0752eb7ddee25ef5add0610661ca3aa1e22cd5b371661641fd",
      "assetIds": []
    },
    {
      "x": 287,
      "y": 331,
      "size": 1,
      "price": "1011000000000000000000",
      "reserved": "",
      "salt": "0x71d3484af45976b9cc7d52143d3df25769f3cbc4d3b9ff2e830848c71cbe011d",
      "assetIds": []
    },
    {
      "x": 287,
      "y": 332,
      "size": 1,
      "price": "1011000000000000000000",
      "reserved": "",
      "salt": "0x64d2d20d7162cf85add333320b0df132e64e95c50d188b9a63d71029808b412f",
      "assetIds": []
    },
    {
      "x": 287,
      "y": 333,
      "size": 1,
      "price": "1011000000000000000000",
      "reserved": "",
      "salt": "0xffe398d494d47412c5e7f597e462554e74129141012abe30390bb81d168067bf",
      "assetIds": []
    },
    {
      "x": 287,
      "y": 334,
      "size": 1,
      "price": "1011000000000000000000",
      "reserved": "",
      "salt": "0xbc5b383e6b0a875dd107290b678d851a5c4352d30da164b264ed36e2366d58bc",
      "assetIds": []
    },
    {
      "x": 287,
      "y": 335,
      "size": 1,
      "price": "1011000000000000000000",
      "reserved": "",
      "salt": "0x2fb5728aa61c8188ed014255b170a8fc6fb4be767897aa7ccb930eb30e587aa3",
      "assetIds": []
    },
    {
      "x": 201,
      "y": 351,
      "size": 3,
      "price": "8648000000000000000000",
      "reserved": "0x7a9fe22691c811ea339d9b73150e6911a5343dca",
      "salt": "0xa64956606d09e7bd68e26fa3f158374886d93d01fdb9427a5cadf73c189f8899",
      "assetIds": []
    },
    {
      "x": 219,
      "y": 339,
      "size": 3,
      "price": "8648000000000000000000",
      "reserved": "0x7a9fe22691c811ea339d9b73150e6911a5343dca",
      "salt": "0xe103ef12314e7afa5e664a5f1ce559d89d1d1fe60c2f4a2dff1dfd2b03da0a5b",
      "assetIds": []
    },
    {
      "x": 219,
      "y": 348,
      "size": 3,
      "price": "8648000000000000000000",
      "reserved": "0x7a9fe22691c811ea339d9b73150e6911a5343dca",
      "salt": "0x44d1602a9abebb7b1300ddd0e70773c34d760f923387a8376ae90389a6f96d83",
      "assetIds": []
    },
    {
      "x": 222,
      "y": 348,
      "size": 3,
      "price": "8648000000000000000000",
      "reserved": "0x7a9fe22691c811ea339d9b73150e6911a5343dca",
      "salt": "0xa5626ecdf505162a47cad29d3113aa1c8733f84a6c895396d91a4e6ef8804203",
      "assetIds": []
    },
    {
      "x": 237,
      "y": 336,
      "size": 3,
      "price": "8648000000000000000000",
      "reserved": "0x7a9fe22691c811ea339d9b73150e6911a5343dca",
      "salt": "0x76b5d124bb2356cff97afb6be6bef6603b86dd659837acd888410bfd6548109a",
      "assetIds": []
    },
    {
      "x": 237,
      "y": 351,
      "size": 3,
      "price": "8648000000000000000000",
      "reserved": "0x7a9fe22691c811ea339d9b73150e6911a5343dca",
      "salt": "0x8b303e958a64c71c9492d9bc9b42e5c01a9a2b42df0a143901711374ff39e475",
      "assetIds": []
    },
    {
      "x": 240,
      "y": 327,
      "size": 3,
      "price": "8648000000000000000000",
      "reserved": "0x7a9fe22691c811ea339d9b73150e6911a5343dca",
      "salt": "0x23bef0233891c1e10658162d43e7f0e76f7b4ff6934f87eaa50d7b4f44f9e6f0",
      "assetIds": []
    },
    {
      "x": 240,
      "y": 330,
      "size": 3,
      "price": "8648000000000000000000",
      "reserved": "0x7a9fe22691c811ea339d9b73150e6911a5343dca",
      "salt": "0xfec9aaca7db5bb2bf7287789cc5657993f17ac46096f323faf322de205da3c39",
      "assetIds": []
    },
    {
      "x": 270,
      "y": 321,
      "size": 3,
      "price": "8648000000000000000000",
      "reserved": "0x7a9fe22691c811ea339d9b73150e6911a5343dca",
      "salt": "0xf5dc440f70858609a245a53a0da740266d5cc21dae92437d60035af8063f3a6a",
      "assetIds": []
    },
    {
      "x": 222,
      "y": 336,
      "size": 6,
      "price": "32772000000000000000000",
      "reserved": "0x7a9fe22691c811ea339d9b73150e6911a5343dca",
      "salt": "0xab7bf1ee0cdd0651ea715736c8f63568e37d9296382dab7829466aed8bfb6cd9",
      "assetIds": []
    },
    {
      "x": 228,
      "y": 342,
      "size": 6,
      "price": "32772000000000000000000",
      "reserved": "0x7a9fe22691c811ea339d9b73150e6911a5343dca",
      "salt": "0x66650881145a3f29a7f0f291157924abba200db443fdc68160df651e22c9a3b7",
      "assetIds": []
    },
    {
      "x": 258,
      "y": 318,
      "size": 6,
      "price": "32772000000000000000000",
      "reserved": "0x7a9fe22691c811ea339d9b73150e6911a5343dca",
      "salt": "0x6e3365257e593b6377630c1f9702292b006f8b9103ddf8213952e4852b0adfc1",
      "assetIds": []
    },
    {
      "x": 252,
      "y": 324,
      "size": 12,
      "price": "123806000000000000000000",
      "reserved": "0x7a9fe22691c811ea339d9b73150e6911a5343dca",
      "salt": "0x15cfd21a090b2d1f9887526ab91b2c79c21455f18b0fb10a5d9593e697b17f1b",
      "assetIds": []
    },
    {
      "x": 264,
      "y": 324,
      "size": 12,
      "price": "123806000000000000000000",
      "reserved": "0x7a9fe22691c811ea339d9b73150e6911a5343dca",
      "salt": "0xf30687c585094cf7243cbd9ae3df5ac93a15d0fa8ca15674f662ad6f8b105ba0",
      "assetIds": []
    },
    {
      "x": 240,
      "y": 336,
      "size": 24,
      "price": "466102000000000000000000",
      "reserved": "0x7a9fe22691c811ea339d9b73150e6911a5343dca",
      "salt": "0x40a60bf60a0304be4c8216dbb420ca147986c6385d17ade487cf11f797c31df0",
      "assetIds": []
    }
  ],
  "solcInputHash": "313f455adab9ae93096e43acc50d7d38",
  "bytecode": "0x610160604052620d2f006005556103e860075534801561001e57600080fd5b5060405161242e38038061242e833981810160405261018081101561004257600080fd5b50805160208201516040830151606080850151608086015160a08088015160c0808a015160e08b01516101008c01516101208d01516101408e0151610160909e0151600280546001600160a01b0319166001600160a01b03861617905560038390558d8b1b6001600160601b0319908116909852998c901b909616909352999a9899979895979496929590949391926100dc8a600161014a565b600680546001600160a01b03199081166001600160a01b039a8b1617909155610140979097526101209590955260008054909616979096169690961790935550606093841b6001600160601b031990811660e05292841b831660805290921b1661010052506101ae92505050565b6001600160a01b038216600081815260016020908152604091829020805460ff191685151590811790915582519384529083015280517fb21eb88b4e33b3f1281830a7178d74d8aa73220416215726b68ae23d539515cb9281900390910190a15050565b60805160601c60a05160601c60c05160601c60e05160601c6101005160601c61012051610140516121fb610233600039806109375280611d44525080610913528061139a525080611da45250806115d252806116f4525080610c50528061159c5280611dd852508061166152806116c5525080610dfa528061190852506121fb6000f3fe608060405234801561001057600080fd5b50600436106101515760003560e01c8063984d6252116100cd578063dc5074af11610081578063ecb255b511610066578063ecb255b514610857578063f23a6e6114610874578063f2e7b3811461090957610151565b8063dc5074af14610814578063e56f8a9e1461083a57610151565b8063bc197c81116100b2578063bc197c81146105d3578063c10a420814610735578063caed35001461080c57610151565b8063984d6252146104db578063b522ecff146105ad57610151565b80636e9960c3116101245780638a04af6a116101095780638a04af6a1461032a5780638a12b82f146103585780638f283970146104b557610151565b80636e9960c3146102fe57806377f1c3ac1461032257610151565b806325cb5bc014610156578063495906571461017057806358bc29441461017857806365194ce7146101a0575b600080fd5b61015e610911565b60408051918252519081900360200190f35b61015e610935565b61019e6004803603602081101561018e57600080fd5b50356001600160a01b0316610959565b005b610246600480360360208110156101b657600080fd5b8101906020810181356401000000008111156101d157600080fd5b8201836020820111156101e357600080fd5b8035906020019184600183028401116401000000008311171561020557600080fd5b91908080601f016020809104026020016040519081016040528093929190818152602001838380828437600092019190915250929550610a04945050505050565b6040518080602001866001600160a01b03166001600160a01b03168152602001856001600160a01b03166001600160a01b03168152602001848152602001838152602001828103825287818151815260200191508051906020019080838360005b838110156102bf5781810151838201526020016102a7565b50505050905090810190601f1680156102ec5780820380516001836020036101000a031916815260200191505b50965050505050505060405180910390f35b610306610b09565b604080516001600160a01b039092168252519081900360200190f35b61015e610b18565b61019e6004803603604081101561034057600080fd5b506001600160a01b0381351690602001351515610b1e565b61019e600480360361018081101561036f57600080fd5b6001600160a01b038235811692602081013582169260408201359092169160608201359160808101359160a08201359160c08101359160e0820135916101008101359181019061014081016101208201356401000000008111156103d257600080fd5b8201836020820111156103e457600080fd5b8035906020019184602083028401116401000000008311171561040657600080fd5b91939092909160208101903564010000000081111561042457600080fd5b82018360208201111561043657600080fd5b8035906020019184602083028401116401000000008311171561045857600080fd5b91939092909160208101903564010000000081111561047657600080fd5b82018360208201111561048857600080fd5b803590602001918460018302840111640100000000831117156104aa57600080fd5b509092509050610b75565b61019e600480360360208110156104cb57600080fd5b50356001600160a01b0316610cc3565b61019e600480360360608110156104f157600080fd5b6001600160a01b03823516919081019060408101602082013564010000000081111561051c57600080fd5b82018360208201111561052e57600080fd5b8035906020019184602083028401116401000000008311171561055057600080fd5b91939092909160208101903564010000000081111561056e57600080fd5b82018360208201111561058057600080fd5b803590602001918460208302840111640100000000831117156105a257600080fd5b509092509050610d99565b61019e600480360360208110156105c357600080fd5b50356001600160a01b0316610f24565b610700600480360360a08110156105e957600080fd5b6001600160a01b03823581169260208101359091169181019060608101604082013564010000000081111561061d57600080fd5b82018360208201111561062f57600080fd5b8035906020019184602083028401116401000000008311171561065157600080fd5b91939092909160208101903564010000000081111561066f57600080fd5b82018360208201111561068157600080fd5b803590602001918460208302840111640100000000831117156106a357600080fd5b9193909290916020810190356401000000008111156106c157600080fd5b8201836020820111156106d357600080fd5b803590602001918460018302840111640100000000831117156106f557600080fd5b50909250905061100d565b604080517fffffffff000000000000000000000000000000000000000000000000000000009092168252519081900360200190f35b6107f8600480360360a081101561074b57600080fd5b81019060208101813564010000000081111561076657600080fd5b82018360208201111561077857600080fd5b8035906020019184600183028401116401000000008311171561079a57600080fd5b91908080601f016020809104026020016040519081016040528093929190818152602001838380828437600092019190915250929550506001600160a01b03833581169450602084013516926040810135925060600135905061103a565b604080519115158252519081900360200190f35b610306611176565b6107f86004803603602081101561082a57600080fd5b50356001600160a01b0316611185565b61019e6004803603602081101561085057600080fd5b50356111a3565b61019e6004803603602081101561086d57600080fd5b5035611207565b610700600480360360a081101561088a57600080fd5b6001600160a01b03823581169260208101359091169160408201359160608101359181019060a0810160808201356401000000008111156108ca57600080fd5b8201836020820111156108dc57600080fd5b803590602001918460018302840111640100000000831117156108fe57600080fd5b50909250905061126b565b61015e611296565b7f000000000000000000000000000000000000000000000000000000000000000090565b7f000000000000000000000000000000000000000000000000000000000000000090565b6000546001600160a01b031633146109b8576040805162461bcd60e51b815260206004820152601060248201527f53656e646572206e6f742061646d696e00000000000000000000000000000000604482015290519081900360640190fd5b600554600280546001600160a01b03908116600090815260046020526040902042909301909255805473ffffffffffffffffffffffffffffffffffffffff191692909116919091179055565b606060008060008060606000806000808a80602001905160a0811015610a2957600080fd5b8101908080516040519392919084640100000000821115610a4957600080fd5b908301906020820185811115610a5e57600080fd5b8251640100000000811182820188101715610a7857600080fd5b82525081516020918201929091019080838360005b83811015610aa5578181015183820152602001610a8d565b50505050905090810190601f168015610ad25780820380516001836020036101000a031916815260200191505b5060409081526020820151908201516060830151608090930151959f50909d509b5099509197505050505050505091939590929450565b6000546001600160a01b031690565b60035490565b6000546001600160a01b03163314610b675760405162461bcd60e51b815260040180806020018281038252602e815260200180612198602e913960400191505060405180910390fd5b610b71828261129c565b5050565b610b7f898961131e565b610c048f8e8e8e8e8e8d8d8d80806020026020016040519081016040528093929190818152602001838360200280828437600081840152601f19601f820116905080830192505050505050508c8c8080602002602001604051908101604052809392919081815260200183836020028082843760009201919091525061139892505050565b610c458f8984848080601f01602080910402602001604051908101604052809392919081815260200183838082843760009201919091525061157592505050565b610c758f8f8e8e8e8d7f00000000000000000000000000000000000000000000000000000000000000008f6115c6565b610cb28e87878080602002602001604051908101604052809392919081815260200183836020028082843760009201919091525061189192505050565b505050505050505050505050505050565b6000546001600160a01b03163314610d22576040805162461bcd60e51b815260206004820152601b60248201527f6f6e6c792061646d696e2063616e206368616e67652061646d696e0000000000604482015290519081900360640190fd5b600054604080516001600160a01b039283168152918316602083015280517f7e644d79422f17c01e4894b5f4f588d331ebfa28653d42ae832dc59e38c9798f9281900390910190a16000805473ffffffffffffffffffffffffffffffffffffffff19166001600160a01b0392909216919091179055565b6000546001600160a01b03163314610df8576040805162461bcd60e51b815260206004820152600e60248201527f4e4f545f415554484f52495a4544000000000000000000000000000000000000604482015290519081900360640190fd5b7f00000000000000000000000000000000000000000000000000000000000000006001600160a01b0316632eb2c2d63087878787876040518763ffffffff1660e01b815260040180876001600160a01b03166001600160a01b03168152602001866001600160a01b03166001600160a01b031681526020018060200180602001806020018481038452888882818152602001925060200280828437600083820152601f01601f19169091018581038452868152602090810191508790870280828437600081840152601f19601f8201169050808301925050508481038252600081526020016020019950505050505050505050600060405180830381600087803b158015610f0557600080fd5b505af1158015610f19573d6000803e3d6000fd5b505050505050505050565b6001600160a01b038116610f7f576040805162461bcd60e51b815260206004820152600c60248201527f5a45524f5f414444524553530000000000000000000000000000000000000000604482015290519081900360640190fd5b6000546001600160a01b03163314610fde576040805162461bcd60e51b815260206004820152600e60248201527f4e4f545f415554484f52495a4544000000000000000000000000000000000000604482015290519081900360640190fd5b6006805473ffffffffffffffffffffffffffffffffffffffff19166001600160a01b0392909216919091179055565b7fbc197c810000000000000000000000000000000000000000000000000000000098975050505050505050565b600060035482118061105d5750836001600160a01b0316856001600160a01b0316145b8061106757508242115b156110745750600061116d565b60408051606087811b7fffffffffffffffffffffffffffffffffffffffff0000000000000000000000009081166020808501919091529188901b166034830152604882018690526068808301869052835180840390910181526088830184528051908201207f19457468657265756d205369676e6564204d6573736167653a0a33320000000060a884015260c48084018290528451808503909101815260e4909301909352815191012060009061112b9089611a55565b6001600160a01b03811660009081526004602052604090205490915042116111585760019250505061116d565b6002546001600160a01b039081169116149150505b95945050505050565b6002546001600160a01b031690565b6001600160a01b031660009081526001602052604090205460ff1690565b6000546001600160a01b03163314611202576040805162461bcd60e51b815260206004820152601060248201527f53656e646572206e6f742061646d696e00000000000000000000000000000000604482015290519081900360640190fd5b600355565b6000546001600160a01b03163314611266576040805162461bcd60e51b815260206004820152600e60248201527f4e4f545f415554484f52495a4544000000000000000000000000000000000000604482015290519081900360640190fd5b600755565b7ff23a6e61000000000000000000000000000000000000000000000000000000009695505050505050565b60075490565b6001600160a01b03821660008181526001602090815260409182902080547fffffffffffffffffffffffffffffffffffffffffffffffffffffffffffffff001685151590811790915582519384529083015280517fb21eb88b4e33b3f1281830a7178d74d8aa73220416215726b68ae23d539515cb9281900390910190a15050565b6113456103e861133960075485611b2290919063ffffffff16565b9063ffffffff611b9816565b8114610b71576040805162461bcd60e51b815260206004820152600d60248201527f494e56414c49445f505249434500000000000000000000000000000000000000604482015290519081900360640190fd5b7f0000000000000000000000000000000000000000000000000000000000000000421061140c576040805162461bcd60e51b815260206004820152600c60248201527f53414c455f49535f4f5645520000000000000000000000000000000000000000604482015290519081900360640190fd5b6001600160a01b03891633148061143257503360009081526001602052604090205460ff165b611483576040805162461bcd60e51b815260206004820152600e60248201527f4e4f545f415554484f52495a4544000000000000000000000000000000000000604482015290519081900360640190fd5b6001600160a01b03881615806114aa5750886001600160a01b0316886001600160a01b0316145b6114fb576040805162461bcd60e51b815260206004820152600d60248201527f52455345525645445f4c414e4400000000000000000000000000000000000000604482015290519081900360640190fd5b600061150c888888888d8989611bfd565b90506115188282611ca2565b611569576040805162461bcd60e51b815260206004820152600c60248201527f494e56414c49445f4c414e440000000000000000000000000000000000000000604482015290519081900360640190fd5b50505050505050505050565b60006115818484611d6b565b6006549091506115c0908590839085906001600160a01b03167f0000000000000000000000000000000000000000000000000000000000000000611eb8565b50505050565b83600114806115fc57507f00000000000000000000000000000000000000000000000000000000000000006001600160a01b0316155b156116c357604080517f6e1e3bbf0000000000000000000000000000000000000000000000000000000081526001600160a01b03898116600483015260248201879052604482018990526064820188905260a06084830152600060a4830181905292517f000000000000000000000000000000000000000000000000000000000000000090911692636e1e3bbf9260e4808201939182900301818387803b1580156116a657600080fd5b505af11580156116ba573d6000803e3d6000fd5b50505050611827565b7f00000000000000000000000000000000000000000000000000000000000000006001600160a01b0316636e1e3bbf7f00000000000000000000000000000000000000000000000000000000000000008689898c60405160200180826001600160a01b03166001600160a01b031681526020019150506040516020818303038152906040526040518663ffffffff1660e01b815260040180866001600160a01b03166001600160a01b0316815260200185815260200184815260200183815260200180602001828103825283818151815260200191508051906020019080838360005b838110156117be5781810151838201526020016117a6565b50505050905090810190601f1680156117eb5780820380516001836020036101000a031916815260200191505b509650505050505050600060405180830381600087803b15801561180e57600080fd5b505af1158015611822573d6000803e3d6000fd5b505050505b60408051858152602081018590526001600160a01b03848116828401526060820184905291516101988802890192808b1692908c16917fe4dfa6ac11314892f3029b34a25b1a887da3b1cab2bbf8506d87128ba6e3ac029181900360800190a45050505050505050565b6060815167ffffffffffffffff811180156118ab57600080fd5b506040519080825280602002602001820160405280156118d5578160200160208202803683370190505b50905060005b82518110156119055760018282815181106118f257fe5b60209081029190910101526001016118db565b507f00000000000000000000000000000000000000000000000000000000000000006001600160a01b0316632eb2c2d6308585856040518563ffffffff1660e01b815260040180856001600160a01b03166001600160a01b03168152602001846001600160a01b03166001600160a01b03168152602001806020018060200180602001848103845286818151815260200191508051906020019060200280838360005b838110156119c05781810151838201526020016119a8565b50505050905001848103835285818151815260200191508051906020019060200280838360005b838110156119ff5781810151838201526020016119e7565b50505050905001848103825260008152602001602001975050505050505050600060405180830381600087803b158015611a3857600080fd5b505af1158015611a4c573d6000803e3d6000fd5b50505050505050565b60008151604114611a6557600080fd5b60208201516040830151606084015160001a601b811015611a8457601b015b8060ff16601b1480611a9957508060ff16601c145b611aa257600080fd5b6040805160008152602080820180845289905260ff8416828401526060820186905260808201859052915160019260a0808401939192601f1981019281900390910190855afa158015611af9573d6000803e3d6000fd5b5050604051601f1901519450506001600160a01b038416611b1957600080fd5b50505092915050565b600082611b3157506000611b92565b5081810281838281611b3f57fe5b0414611b92576040805162461bcd60e51b815260206004820152600860248201527f6f766572666c6f77000000000000000000000000000000000000000000000000604482015290519081900360640190fd5b92915050565b600081611bec576040805162461bcd60e51b815260206004820152600960248201527f64697662797a65726f0000000000000000000000000000000000000000000000604482015290519081900360640190fd5b818381611bf557fe5b049392505050565b60008787878787878760405160200180888152602001878152602001868152602001858152602001846001600160a01b03166001600160a01b031660601b8152601401838152602001828051906020019060200280838360005b83811015611c6f578181015183820152602001611c57565b50505050905001975050505050505050604051602081830303815290604052805190602001209050979650505050505050565b600081815b8451811015611d41576000858281518110611cbe57fe5b6020026020010151905080831015611d065782816040516020018083815260200182815260200192505050604051602081830303815290604052805190602001209250611d38565b808360405160200180838152602001828152602001925050506040516020818303038152906040528051906020012092505b50600101611ca7565b507f0000000000000000000000000000000000000000000000000000000000000000149392505050565b600080611d84606461133985600563ffffffff611b2216565b604080516323b872dd60e01b81526001600160a01b0387811660048301527f0000000000000000000000000000000000000000000000000000000000000000811660248301526044820184905291519293507f0000000000000000000000000000000000000000000000000000000000000000909116916323b872dd916064808201926020929091908290030181600087803b158015611e2357600080fd5b505af1158015611e37573d6000803e3d6000fd5b505050506040513d6020811015611e4d57600080fd5b5051611ea0576040805162461bcd60e51b815260206004820152601360248201527f4645455f5452414e534645525f4641494c454400000000000000000000000000604482015290519081900360640190fd5b611eb0838263ffffffff61213a16565b949350505050565b82518190859015612062576060600080600080611ed48a610a04565b9398509196509450925090506000611eef868686868661103a565b15611f7d57611f09611f018d84611b22565b612710611b98565b9050886001600160a01b0316846001600160a01b0316866001600160a01b03167fac7a699eb95c3c6d390ec4626de17ef9a67b35891efdb197beba7c7fdd45fac48f858760405180848152602001838152602001828152602001935050505060405180910390a4611f7a878261213a565b96505b801561205b57604080516323b872dd60e01b81526001600160a01b038f811660048301528781166024830152604482018490529151918a16916323b872dd916064808201926020929091908290030181600087803b158015611fde57600080fd5b505af1158015611ff2573d6000803e3d6000fd5b505050506040513d602081101561200857600080fd5b505161205b576040805162461bcd60e51b815260206004820152601960248201527f636f6d6d6973696f6e207472616e73666572206661696c656400000000000000604482015290519081900360640190fd5b5050505050505b604080516323b872dd60e01b81526001600160a01b0389811660048301528681166024830152604482018490529151918416916323b872dd916064808201926020929091908290030181600087803b1580156120bd57600080fd5b505af11580156120d1573d6000803e3d6000fd5b505050506040513d60208110156120e757600080fd5b5051611a4c576040805162461bcd60e51b815260206004820152601760248201527f7061796d656e74207472616e73666572206661696c6564000000000000000000604482015290519081900360640190fd5b600082821115612191576040805162461bcd60e51b815260206004820152600860248201527f756e6465666c6f77000000000000000000000000000000000000000000000000604482015290519081900360640190fd5b5090039056fe6f6e6c792061646d696e2063616e207365747570206d6574615472616e73616374696f6e50726f636573736f7273a26469706673582212200ff38c5741c66b2a22a9a9ee2abe0f55626323082b6b4443921fd3b25484584a64736f6c63430006050033",
  "devdoc": {
    "methods": {
      "buyLandWithSand(address,address,address,uint256,uint256,uint256,uint256,uint256,bytes32,uint256[],bytes32[],bytes)": {
        "params": {
          "buyer": "address that perform the payment",
          "priceInSand": "price in SAND to purchase that Land",
          "proof": "merkleProof for that particular Land",
          "reserved": "the reserved address (if any)",
          "size": "size of the pack of Land to purchase",
          "to": "address that will own the purchased Land",
          "x": "x coordinate of the Land",
          "y": "y coordinate of the Land"
        }
      },
      "changeAdmin(address)": {
        "details": "change the administrator to be `newAdmin`.",
        "params": {
          "newAdmin": "address of the new administrator."
        }
      },
      "getAdmin()": {
        "details": "gives the current administrator of this contract.",
        "returns": {
          "_0": "the current administrator of this contract."
        }
      },
      "getSigningWallet()": {
        "details": "signing wallet authorized for referral",
        "returns": {
          "_0": "the address of the signing wallet"
        }
      },
      "isMetaTransactionProcessor(address)": {
        "details": "check whether address `who` is given meta-transaction execution rights.",
        "params": {
          "who": "The address to query."
        },
        "returns": {
          "_0": "whether the address has meta-transaction execution rights."
        }
      },
      "isReferralValid(bytes,address,address,uint256,uint256)": {
        "params": {
          "commissionRate": "The commissionRate of the referral",
          "expiryTime": "The expiry time of the referral",
          "referee": "The address of the referee",
          "referrer": "The address of the referrer",
          "signature": "The signature to check (signed referral)"
        },
        "returns": {
          "_0": "True if the referral is valid"
        }
      },
      "setMetaTransactionProcessor(address,bool)": {
        "details": "Enable or disable the ability of `metaTransactionProcessor` to perform meta-tx (metaTransactionProcessor rights).",
        "params": {
          "enabled": "set whether the metaTransactionProcessor is enabled or disabled.",
          "metaTransactionProcessor": "address that will be given/removed metaTransactionProcessor rights."
        }
      },
      "setReceivingWallet(address)": {
        "params": {
          "newWallet": "address of the new receiving wallet"
        }
      },
      "updateMaxCommissionRate(uint256)": {
        "details": "Update the maximum commission rate",
        "params": {
          "newMaxCommissionRate": "The new maximum commission rate"
        }
      },
      "updateSigningWallet(address)": {
        "details": "Update the signing wallet",
        "params": {
          "newSigningWallet": "The new address of the signing wallet"
        }
      },
      "withdrawAssets(address,uint256[],uint256[])": {
        "params": {
          "assetIds": "the assetIds to be transferred",
          "to": "intended recipient of the asset tokens",
          "values": "the quantities of the assetIds to be transferred"
        }
      }
    },
    "title": "Estate Sale contract with referral"
  },
  "userdoc": {
    "methods": {
      "buyLandWithSand(address,address,address,uint256,uint256,uint256,uint256,uint256,bytes32,uint256[],bytes32[],bytes)": {
        "notice": "buy Land with SAND using the merkle proof associated with it"
      },
      "getExpiryTime()": {
        "notice": "Gets the expiry time for the current sale"
      },
      "getMaxCommisionRate()": {
        "notice": "the max commision rate"
      },
      "getMerkleRoot()": {
        "notice": "Gets the Merkle root associated with the current sale"
      },
      "isReferralValid(bytes,address,address,uint256,uint256)": {
        "notice": "Check if a referral is valid"
      },
      "setReceivingWallet(address)": {
        "notice": "set the wallet receiving the proceeds"
      },
      "withdrawAssets(address,uint256[],uint256[])": {
        "notice": "enable Admin to withdraw remaining assets from EstateSaleWithFee contract"
      }
    },
    "notice": "This contract manages the sale of our lands as Estates"
  },
  "storageLayout": {
    "storage": [
      {
        "astId": 12779,
        "contract": "src/solc_0.6/EstateSale/EstateSaleWithFee.sol:EstateSaleWithFee",
        "label": "_admin",
        "offset": 0,
        "slot": "0",
        "type": "t_address"
      },
      {
        "astId": 12841,
        "contract": "src/solc_0.6/EstateSale/EstateSaleWithFee.sol:EstateSaleWithFee",
        "label": "_metaTransactionContracts",
        "offset": 0,
        "slot": "1",
        "type": "t_mapping(t_address,t_bool)"
      },
      {
        "astId": 10957,
        "contract": "src/solc_0.6/EstateSale/EstateSaleWithFee.sol:EstateSaleWithFee",
        "label": "_signingWallet",
        "offset": 0,
        "slot": "2",
        "type": "t_address"
      },
      {
        "astId": 10959,
        "contract": "src/solc_0.6/EstateSale/EstateSaleWithFee.sol:EstateSaleWithFee",
        "label": "_maxCommissionRate",
        "offset": 0,
        "slot": "3",
        "type": "t_uint256"
      },
      {
        "astId": 10963,
        "contract": "src/solc_0.6/EstateSale/EstateSaleWithFee.sol:EstateSaleWithFee",
        "label": "_previousSigningWallets",
        "offset": 0,
        "slot": "4",
        "type": "t_mapping(t_address,t_uint256)"
      },
      {
        "astId": 10972,
        "contract": "src/solc_0.6/EstateSale/EstateSaleWithFee.sol:EstateSaleWithFee",
        "label": "_previousSigningDelay",
        "offset": 0,
        "slot": "5",
        "type": "t_uint256"
      },
      {
        "astId": 7344,
        "contract": "src/solc_0.6/EstateSale/EstateSaleWithFee.sol:EstateSaleWithFee",
        "label": "_wallet",
        "offset": 0,
        "slot": "6",
        "type": "t_address_payable"
      },
      {
        "astId": 7354,
        "contract": "src/solc_0.6/EstateSale/EstateSaleWithFee.sol:EstateSaleWithFee",
        "label": "_multiplier",
        "offset": 0,
        "slot": "7",
        "type": "t_uint256"
      }
    ],
    "types": {
      "t_address": {
        "encoding": "inplace",
        "label": "address",
        "numberOfBytes": "20"
      },
      "t_address_payable": {
        "encoding": "inplace",
        "label": "address payable",
        "numberOfBytes": "20"
      },
      "t_bool": {
        "encoding": "inplace",
        "label": "bool",
        "numberOfBytes": "1"
      },
      "t_mapping(t_address,t_bool)": {
        "encoding": "mapping",
        "key": "t_address",
        "label": "mapping(address => bool)",
        "numberOfBytes": "32",
        "value": "t_bool"
      },
      "t_mapping(t_address,t_uint256)": {
        "encoding": "mapping",
        "key": "t_address",
        "label": "mapping(address => uint256)",
        "numberOfBytes": "32",
        "value": "t_uint256"
      },
      "t_uint256": {
        "encoding": "inplace",
        "label": "uint256",
        "numberOfBytes": "32"
      }
    }
  }
}