{
  "address": "0x7515814b327fF0b86D2f3d36557EeCd32FB2dbC7",
  "abi": [
    {
      "inputs": [
        {
          "internalType": "address",
          "name": "landAddress",
          "type": "address"
        },
        {
          "internalType": "address",
          "name": "sandContractAddress",
          "type": "address"
        },
        {
          "internalType": "address",
          "name": "initialMetaTx",
          "type": "address"
        },
        {
          "internalType": "address",
          "name": "admin",
          "type": "address"
        },
        {
          "internalType": "address payable",
          "name": "initialWalletAddress",
          "type": "address"
        },
        {
          "internalType": "bytes32",
          "name": "merkleRoot",
          "type": "bytes32"
        },
        {
          "internalType": "uint256",
          "name": "expiryTime",
          "type": "uint256"
        },
        {
          "internalType": "address",
          "name": "initialSigningWallet",
          "type": "address"
        },
        {
          "internalType": "uint256",
          "name": "initialMaxCommissionRate",
          "type": "uint256"
        },
        {
          "internalType": "address",
          "name": "estate",
          "type": "address"
        },
        {
          "internalType": "address",
          "name": "asset",
          "type": "address"
        },
        {
          "internalType": "address",
          "name": "feeDistributor",
          "type": "address"
        }
      ],
      "stateMutability": "nonpayable",
      "type": "constructor"
    },
    {
      "anonymous": false,
      "inputs": [
        {
          "indexed": false,
          "internalType": "address",
          "name": "oldAdmin",
          "type": "address"
        },
        {
          "indexed": false,
          "internalType": "address",
          "name": "newAdmin",
          "type": "address"
        }
      ],
      "name": "AdminChanged",
      "type": "event"
    },
    {
      "anonymous": false,
      "inputs": [
        {
          "indexed": true,
          "internalType": "address",
          "name": "buyer",
          "type": "address"
        },
        {
          "indexed": true,
          "internalType": "address",
          "name": "to",
          "type": "address"
        },
        {
          "indexed": true,
          "internalType": "uint256",
          "name": "topCornerId",
          "type": "uint256"
        },
        {
          "indexed": false,
          "internalType": "uint256",
          "name": "size",
          "type": "uint256"
        },
        {
          "indexed": false,
          "internalType": "uint256",
          "name": "price",
          "type": "uint256"
        },
        {
          "indexed": false,
          "internalType": "address",
          "name": "token",
          "type": "address"
        },
        {
          "indexed": false,
          "internalType": "uint256",
          "name": "amountPaid",
          "type": "uint256"
        }
      ],
      "name": "LandQuadPurchased",
      "type": "event"
    },
    {
      "anonymous": false,
      "inputs": [
        {
          "indexed": false,
          "internalType": "address",
          "name": "metaTransactionProcessor",
          "type": "address"
        },
        {
          "indexed": false,
          "internalType": "bool",
          "name": "enabled",
          "type": "bool"
        }
      ],
      "name": "MetaTransactionProcessor",
      "type": "event"
    },
    {
      "anonymous": false,
      "inputs": [
        {
          "indexed": true,
          "internalType": "address",
          "name": "referrer",
          "type": "address"
        },
        {
          "indexed": true,
          "internalType": "address",
          "name": "referee",
          "type": "address"
        },
        {
          "indexed": true,
          "internalType": "address",
          "name": "token",
          "type": "address"
        },
        {
          "indexed": false,
          "internalType": "uint256",
          "name": "amount",
          "type": "uint256"
        },
        {
          "indexed": false,
          "internalType": "uint256",
          "name": "commission",
          "type": "uint256"
        },
        {
          "indexed": false,
          "internalType": "uint256",
          "name": "commissionRate",
          "type": "uint256"
        }
      ],
      "name": "ReferralUsed",
      "type": "event"
    },
    {
      "inputs": [
        {
          "internalType": "address",
          "name": "buyer",
          "type": "address"
        },
        {
          "internalType": "address",
          "name": "to",
          "type": "address"
        },
        {
          "internalType": "address",
          "name": "reserved",
          "type": "address"
        },
        {
          "internalType": "uint256",
          "name": "x",
          "type": "uint256"
        },
        {
          "internalType": "uint256",
          "name": "y",
          "type": "uint256"
        },
        {
          "internalType": "uint256",
          "name": "size",
          "type": "uint256"
        },
        {
          "internalType": "uint256",
          "name": "priceInSand",
          "type": "uint256"
        },
        {
          "internalType": "uint256",
          "name": "adjustedPriceInSand",
          "type": "uint256"
        },
        {
          "internalType": "bytes32",
          "name": "salt",
          "type": "bytes32"
        },
        {
          "internalType": "uint256[]",
          "name": "assetIds",
          "type": "uint256[]"
        },
        {
          "internalType": "bytes32[]",
          "name": "proof",
          "type": "bytes32[]"
        },
        {
          "internalType": "bytes",
          "name": "referral",
          "type": "bytes"
        }
      ],
      "name": "buyLandWithSand",
      "outputs": [],
      "stateMutability": "nonpayable",
      "type": "function"
    },
    {
      "inputs": [
        {
          "internalType": "address",
          "name": "newAdmin",
          "type": "address"
        }
      ],
      "name": "changeAdmin",
      "outputs": [],
      "stateMutability": "nonpayable",
      "type": "function"
    },
    {
      "inputs": [
        {
          "internalType": "bytes",
          "name": "referral",
          "type": "bytes"
        }
      ],
      "name": "decodeReferral",
      "outputs": [
        {
          "internalType": "bytes",
          "name": "",
          "type": "bytes"
        },
        {
          "internalType": "address",
          "name": "",
          "type": "address"
        },
        {
          "internalType": "address",
          "name": "",
          "type": "address"
        },
        {
          "internalType": "uint256",
          "name": "",
          "type": "uint256"
        },
        {
          "internalType": "uint256",
          "name": "",
          "type": "uint256"
        }
      ],
      "stateMutability": "pure",
      "type": "function"
    },
    {
      "inputs": [],
      "name": "getAdmin",
      "outputs": [
        {
          "internalType": "address",
          "name": "",
          "type": "address"
        }
      ],
      "stateMutability": "view",
      "type": "function"
    },
    {
      "inputs": [],
      "name": "getExpiryTime",
      "outputs": [
        {
          "internalType": "uint256",
          "name": "",
          "type": "uint256"
        }
      ],
      "stateMutability": "view",
      "type": "function"
    },
    {
      "inputs": [],
      "name": "getMaxCommisionRate",
      "outputs": [
        {
          "internalType": "uint256",
          "name": "",
          "type": "uint256"
        }
      ],
      "stateMutability": "view",
      "type": "function"
    },
    {
      "inputs": [],
      "name": "getMerkleRoot",
      "outputs": [
        {
          "internalType": "bytes32",
          "name": "",
          "type": "bytes32"
        }
      ],
      "stateMutability": "view",
      "type": "function"
    },
    {
      "inputs": [],
      "name": "getSandMultiplier",
      "outputs": [
        {
          "internalType": "uint256",
          "name": "",
          "type": "uint256"
        }
      ],
      "stateMutability": "view",
      "type": "function"
    },
    {
      "inputs": [],
      "name": "getSigningWallet",
      "outputs": [
        {
          "internalType": "address",
          "name": "",
          "type": "address"
        }
      ],
      "stateMutability": "view",
      "type": "function"
    },
    {
      "inputs": [
        {
          "internalType": "address",
          "name": "who",
          "type": "address"
        }
      ],
      "name": "isMetaTransactionProcessor",
      "outputs": [
        {
          "internalType": "bool",
          "name": "",
          "type": "bool"
        }
      ],
      "stateMutability": "view",
      "type": "function"
    },
    {
      "inputs": [
        {
          "internalType": "bytes",
          "name": "signature",
          "type": "bytes"
        },
        {
          "internalType": "address",
          "name": "referrer",
          "type": "address"
        },
        {
          "internalType": "address",
          "name": "referee",
          "type": "address"
        },
        {
          "internalType": "uint256",
          "name": "expiryTime",
          "type": "uint256"
        },
        {
          "internalType": "uint256",
          "name": "commissionRate",
          "type": "uint256"
        }
      ],
      "name": "isReferralValid",
      "outputs": [
        {
          "internalType": "bool",
          "name": "",
          "type": "bool"
        }
      ],
      "stateMutability": "view",
      "type": "function"
    },
    {
      "inputs": [
        {
          "internalType": "address",
          "name": "",
          "type": "address"
        },
        {
          "internalType": "address",
          "name": "",
          "type": "address"
        },
        {
          "internalType": "uint256[]",
          "name": "",
          "type": "uint256[]"
        },
        {
          "internalType": "uint256[]",
          "name": "",
          "type": "uint256[]"
        },
        {
          "internalType": "bytes",
          "name": "",
          "type": "bytes"
        }
      ],
      "name": "onERC1155BatchReceived",
      "outputs": [
        {
          "internalType": "bytes4",
          "name": "",
          "type": "bytes4"
        }
      ],
      "stateMutability": "pure",
      "type": "function"
    },
    {
      "inputs": [
        {
          "internalType": "address",
          "name": "",
          "type": "address"
        },
        {
          "internalType": "address",
          "name": "",
          "type": "address"
        },
        {
          "internalType": "uint256",
          "name": "",
          "type": "uint256"
        },
        {
          "internalType": "uint256",
          "name": "",
          "type": "uint256"
        },
        {
          "internalType": "bytes",
          "name": "",
          "type": "bytes"
        }
      ],
      "name": "onERC1155Received",
      "outputs": [
        {
          "internalType": "bytes4",
          "name": "",
          "type": "bytes4"
        }
      ],
      "stateMutability": "pure",
      "type": "function"
    },
    {
      "inputs": [
        {
          "internalType": "uint256",
          "name": "newMultiplier",
          "type": "uint256"
        }
      ],
      "name": "rebalanceSand",
      "outputs": [],
      "stateMutability": "nonpayable",
      "type": "function"
    },
    {
      "inputs": [
        {
          "internalType": "address",
          "name": "metaTransactionProcessor",
          "type": "address"
        },
        {
          "internalType": "bool",
          "name": "enabled",
          "type": "bool"
        }
      ],
      "name": "setMetaTransactionProcessor",
      "outputs": [],
      "stateMutability": "nonpayable",
      "type": "function"
    },
    {
      "inputs": [
        {
          "internalType": "address payable",
          "name": "newWallet",
          "type": "address"
        }
      ],
      "name": "setReceivingWallet",
      "outputs": [],
      "stateMutability": "nonpayable",
      "type": "function"
    },
    {
      "inputs": [
        {
          "internalType": "uint256",
          "name": "newMaxCommissionRate",
          "type": "uint256"
        }
      ],
      "name": "updateMaxCommissionRate",
      "outputs": [],
      "stateMutability": "nonpayable",
      "type": "function"
    },
    {
      "inputs": [
        {
          "internalType": "address",
          "name": "newSigningWallet",
          "type": "address"
        }
      ],
      "name": "updateSigningWallet",
      "outputs": [],
      "stateMutability": "nonpayable",
      "type": "function"
    },
    {
      "inputs": [
        {
          "internalType": "address",
          "name": "to",
          "type": "address"
        },
        {
          "internalType": "uint256[]",
          "name": "assetIds",
          "type": "uint256[]"
        },
        {
          "internalType": "uint256[]",
          "name": "values",
          "type": "uint256[]"
        }
      ],
      "name": "withdrawAssets",
      "outputs": [],
      "stateMutability": "nonpayable",
      "type": "function"
    }
  ],
  "transactionHash": "0xfc7ca8f893c857a69f380049f35308cfac88a276ba2093c83874c66b6eb79574",
  "args": [
    "0xaF40A483bF77AAb7b7D13dB18187E6D62C1EA41b",
    "0xCc933a862fc15379E441F2A16Cb943D385a4695f",
    "0xCc933a862fc15379E441F2A16Cb943D385a4695f",
    "0xa4519D601F43D0b8f167842a367465681F652252",
    "0x60927eB036621b801491B6c5e9A60A8d2dEeD75A",
    "0xd27087e9d2e92f4907ea67c3afa00c402eed717ab318298346590cde60088ffc",
    1663333200,
    "0xB7060D3FeCAC3AE1F0A0AA416E3e8E472257950e",
    2000,
    "0x0000000000000000000000000000000000000000",
    "0x8055a2c0f7EB177BeaB357B70E6504402d2b5fF6",
    "0x5983532A5b9009E05428595b87F19e42068a232B"
  ],
  "linkedData": [
    {
      "x": 285,
      "y": 168,
      "size": 1,
      "price": "1011000000000000000000",
      "reserved": "",
      "salt": "0x076aa9fbc87dce569457061ce1d6f69cd2482eb4a9679e3acd4bc03e05b8ce2b",
      "assetIds": []
    },
    {
      "x": 285,
      "y": 169,
      "size": 1,
      "price": "1011000000000000000000",
      "reserved": "",
      "salt": "0x8a667d43cc47424e01bafb342034ed29e55e0b477f19239c8f15e692945e3547",
      "assetIds": []
    },
    {
      "x": 285,
      "y": 170,
      "size": 1,
      "price": "1011000000000000000000",
      "reserved": "",
      "salt": "0x20a180fa02438269e6e6977e57a7987bf6885b150813c40bd30c7fd424ef7cc1",
      "assetIds": []
    },
    {
      "x": 285,
      "y": 171,
      "size": 1,
      "price": "1011000000000000000000",
      "reserved": "",
      "salt": "0xf25fc47f8fe82ef30605c89b912ae266f12dd6b7db4ce31841ea17dac7f1bcf4",
      "assetIds": []
    },
    {
      "x": 285,
      "y": 172,
      "size": 1,
      "price": "1011000000000000000000",
      "reserved": "",
      "salt": "0xfc94d4a8711240c32101111cfc8d0417f7367a690ad05910fa596e8b9e50cad5",
      "assetIds": []
    },
    {
      "x": 285,
      "y": 173,
      "size": 1,
      "price": "1011000000000000000000",
      "reserved": "",
      "salt": "0x2f4b31b0ef613759706b192f9938403d9182321abe177a4d1108293af009a536",
      "assetIds": []
    },
    {
      "x": 285,
      "y": 174,
      "size": 1,
      "price": "1011000000000000000000",
      "reserved": "",
      "salt": "0xb9b63d844e71ede93b3a91200d0f010626b3c5cd75dd1526dc1d359a3dc3867e",
      "assetIds": []
    },
    {
      "x": 285,
      "y": 175,
      "size": 1,
      "price": "1011000000000000000000",
      "reserved": "",
      "salt": "0x6f7d9ccb7307434826a090506fe08deb7dbaab0dd34775dd797267374721d05c",
      "assetIds": []
    },
    {
      "x": 285,
      "y": 176,
      "size": 1,
      "price": "1011000000000000000000",
      "reserved": "",
      "salt": "0xd04ae8e940b74a42be482f7fcf04fdfd53bc9ed32706a38706115e61d8f8b79c",
      "assetIds": []
    },
    {
      "x": 285,
      "y": 177,
      "size": 1,
      "price": "1011000000000000000000",
      "reserved": "",
      "salt": "0x5e5f3643362a5c96187927f6a77f4978b19635449a37dd950fb663bcb2a0936e",
      "assetIds": []
    },
    {
      "x": 285,
      "y": 178,
      "size": 1,
      "price": "1011000000000000000000",
      "reserved": "",
      "salt": "0xd71fa40ec55350621fe1ca0add03af361f50bd94b3d3202de3fe042e4d784cbb",
      "assetIds": []
    },
    {
      "x": 285,
      "y": 179,
      "size": 1,
      "price": "1011000000000000000000",
      "reserved": "",
      "salt": "0x2981666e8a6c1a29e7cbc150a113084366b18f815919886fbb36e944c3b515a0",
      "assetIds": []
    },
    {
      "x": 286,
      "y": 168,
      "size": 1,
      "price": "1011000000000000000000",
      "reserved": "",
      "salt": "0xe87d79c666b264aff6d95016c6394bfb7e427cf7e647e979e93c1abac38b7369",
      "assetIds": []
    },
    {
      "x": 286,
      "y": 169,
      "size": 1,
      "price": "1011000000000000000000",
      "reserved": "",
      "salt": "0xc0d41e5694c81f6a973d4cc0107f44ed19aa86bff4a29638428babca202281fd",
      "assetIds": []
    },
    {
      "x": 286,
      "y": 170,
      "size": 1,
      "price": "1011000000000000000000",
      "reserved": "",
      "salt": "0xceb246ad4cba8e440dd99a0b3eea0e80f48c569223dd8d19192c22b64364f280",
      "assetIds": []
    },
    {
      "x": 286,
      "y": 171,
      "size": 1,
      "price": "1011000000000000000000",
      "reserved": "",
      "salt": "0x071cfd9ffb37a15b40d1174025a5d7455f9e4d56500e40f640dbc40d854c65fa",
      "assetIds": []
    },
    {
      "x": 286,
      "y": 172,
      "size": 1,
      "price": "1011000000000000000000",
      "reserved": "",
      "salt": "0x8bc84a22dcea7d01f22899a6b9396ecfb6cd2dccf2c647ac2b0300dc6346339d",
      "assetIds": []
    },
    {
      "x": 286,
      "y": 173,
      "size": 1,
      "price": "1011000000000000000000",
      "reserved": "",
      "salt": "0x65b1c03e7a48a1973fd21c5f06c14dbc98d4b3843562dc1b588a258982113db6",
      "assetIds": []
    },
    {
      "x": 286,
      "y": 174,
      "size": 1,
      "price": "1011000000000000000000",
      "reserved": "",
      "salt": "0xdcdc5bfcec71b08caa463488f3740faaa65e07c70d5d886125f4bb2bd64c00a7",
      "assetIds": []
    },
    {
      "x": 286,
      "y": 175,
      "size": 1,
      "price": "1011000000000000000000",
      "reserved": "",
      "salt": "0x7fb346edb07908c8995d4faf1ccb5308975a55bcbc647df0fea470f710737cac",
      "assetIds": []
    },
    {
      "x": 286,
      "y": 176,
      "size": 1,
      "price": "1011000000000000000000",
      "reserved": "",
      "salt": "0x252abbaf754ccb6aaa26793fa1bc4231823c063b50284873f519fc4c7f0d10ae",
      "assetIds": []
    },
    {
      "x": 286,
      "y": 177,
      "size": 1,
      "price": "1011000000000000000000",
      "reserved": "",
      "salt": "0xa0c18be9acc8a20e0b2f4cd37f8fb9068552faca67e5398a4be7472b34b0065d",
      "assetIds": []
    },
    {
      "x": 286,
      "y": 178,
      "size": 1,
      "price": "1011000000000000000000",
      "reserved": "",
      "salt": "0x30ad9b992dd11e668139a44834adf062fcf2c0a01ad1a5a7853e5bd963b080cc",
      "assetIds": []
    },
    {
      "x": 286,
      "y": 179,
      "size": 1,
      "price": "1011000000000000000000",
      "reserved": "",
      "salt": "0x4fc5a79a829dc45926e8fac2c8e0044b665ae49230a105971f31115017462983",
      "assetIds": []
    },
    {
      "x": 286,
      "y": 180,
      "size": 1,
      "price": "1011000000000000000000",
      "reserved": "",
      "salt": "0xd43906c5b258179e9fb7d90f01c9222286eb2b6cfd803f72e807f2dc643aa308",
      "assetIds": []
    },
    {
      "x": 286,
      "y": 181,
      "size": 1,
      "price": "1011000000000000000000",
      "reserved": "",
      "salt": "0x491be3d1f8adc29d9b8b3e4356cabe46f95fd473caf7ada374f4de725d3484af",
      "assetIds": []
    },
    {
      "x": 286,
      "y": 182,
      "size": 1,
      "price": "1011000000000000000000",
      "reserved": "",
      "salt": "0xe35ae42863ed1c9c93c8b8f18bb8394be2afb2f8374d5d4b72b2116a5c58b906",
      "assetIds": []
    },
    {
      "x": 287,
      "y": 168,
      "size": 1,
      "price": "1011000000000000000000",
      "reserved": "",
      "salt": "0xee91ba84402a7053dfba82a7697175da59f48f8a2de431c1d9210fc198d432c4",
      "assetIds": []
    },
    {
      "x": 287,
      "y": 169,
      "size": 1,
      "price": "1011000000000000000000",
      "reserved": "",
      "salt": "0xac846b73421d6a705eeb0b7ef7e82cecdf5b94a8b3c9671f499fc97ad4f58956",
      "assetIds": []
    },
    {
      "x": 287,
      "y": 170,
      "size": 1,
      "price": "1011000000000000000000",
      "reserved": "",
      "salt": "0xa3a5c190db9422524dcb3b6b44a30053d5ec470387fdd4d9d4278c161dedc230",
      "assetIds": []
    },
    {
      "x": 287,
      "y": 171,
      "size": 1,
      "price": "1011000000000000000000",
      "reserved": "",
      "salt": "0x8b1b7c871202413977d5813983283ed4e9df65d5b2edce1447f6f66a0d1b117e",
      "assetIds": []
    },
    {
      "x": 287,
      "y": 172,
      "size": 1,
      "price": "1011000000000000000000",
      "reserved": "",
      "salt": "0xe63d8eb6bd9279aac96a03cecaa44b6460ec7420401454ac89019ed25b23e171",
      "assetIds": []
    },
    {
      "x": 287,
      "y": 173,
      "size": 1,
      "price": "1011000000000000000000",
      "reserved": "",
      "salt": "0x1f785220341e4cdf244d25fe87cc735ae5508fa29f7dbb9806f6e513b51b50bc",
      "assetIds": []
    },
    {
      "x": 287,
      "y": 174,
      "size": 1,
      "price": "1011000000000000000000",
      "reserved": "",
      "salt": "0xbf4b87cb75f86f1bf1ce6d6c9f9f995d8814620ebf28dd3e40764c1239a4755b",
      "assetIds": []
    },
    {
      "x": 287,
      "y": 175,
      "size": 1,
      "price": "1011000000000000000000",
      "reserved": "",
      "salt": "0x2cfd508521c363cc4ed4bc70e6d481927ba913b6147327d4af63904df4d80090",
      "assetIds": []
    },
    {
      "x": 287,
      "y": 176,
      "size": 1,
      "price": "1011000000000000000000",
      "reserved": "",
      "salt": "0xe5c272fb9561308dc47cf5af299aed4011364fbabf091f2576abdfa2fe335e43",
      "assetIds": []
    },
    {
      "x": 287,
      "y": 177,
      "size": 1,
      "price": "1011000000000000000000",
      "reserved": "",
      "salt": "0xfc189599f7c68e91e99a5fcda899d72c49c92292e6ac8329a4ec7086a87bd739",
      "assetIds": []
    },
    {
      "x": 287,
      "y": 178,
      "size": 1,
      "price": "1011000000000000000000",
      "reserved": "",
      "salt": "0x03d7830f3d235be9d3f102dd58388cb3d938fa80be9a855463578b6dac83f0ab",
      "assetIds": []
    },
    {
      "x": 287,
      "y": 179,
      "size": 1,
      "price": "1011000000000000000000",
      "reserved": "",
      "salt": "0xcc1bea668ef9aa39cf3153448d7ec5cb89324949cd0893ad2c9fddbda6205dc2",
      "assetIds": []
    },
    {
      "x": 287,
      "y": 180,
      "size": 1,
      "price": "1011000000000000000000",
      "reserved": "",
      "salt": "0xbbeba9ae517091820acbd0a0d5e8b398f86941cfd19f47c533b3bdd4a183f599",
      "assetIds": []
    },
    {
      "x": 287,
      "y": 181,
      "size": 1,
      "price": "1011000000000000000000",
      "reserved": "",
      "salt": "0x6ed9c668ca8e6e6ddb0ed223e3112b6cb01b61db27a4aa51e23cd015a2113a25",
      "assetIds": []
    },
    {
      "x": 287,
      "y": 182,
      "size": 1,
      "price": "1011000000000000000000",
      "reserved": "",
      "salt": "0x80ae4eda50992d2c40f29b827faf61fcdf7640a318a2adc2595b86179cb81fce",
      "assetIds": []
    },
    {
      "x": 287,
      "y": 183,
      "size": 1,
      "price": "1011000000000000000000",
      "reserved": "",
      "salt": "0x9ad2db035d70b83acf592ff39ff2f876d4b145f0b9732019c86b2c0828f4b4d8",
      "assetIds": []
    },
    {
      "x": 287,
      "y": 184,
      "size": 1,
      "price": "1011000000000000000000",
      "reserved": "",
      "salt": "0x7dde0fe7e0db3d836e1ef1c4eee7a6bb3f5a05ae56ab0c26bc7fedaadbfd3ee2",
      "assetIds": []
    },
    {
      "x": 287,
      "y": 185,
      "size": 1,
      "price": "1011000000000000000000",
      "reserved": "",
      "salt": "0x5e968f8ddfce62561872c2d12d9e4dbf6e0a2b8b9c5cf0fe93d3fffb2bcd1aaa",
      "assetIds": []
    },
    {
      "x": 287,
      "y": 186,
      "size": 1,
      "price": "1011000000000000000000",
      "reserved": "",
      "salt": "0x8d3c94a3ccf507dd33a7bd636b1c16edc728d46a1edb75754b0e357097f61d4b",
      "assetIds": []
    },
    {
      "x": 288,
      "y": 168,
      "size": 1,
      "price": "1011000000000000000000",
      "reserved": "",
      "salt": "0xe4da4e2f59e39688089b537f1f3c34dc34a7b265dc018a2bd8265150e4cd4625",
      "assetIds": []
    },
    {
      "x": 288,
      "y": 169,
      "size": 1,
      "price": "1011000000000000000000",
      "reserved": "",
      "salt": "0xb92f473f90e4d910dbb0b84c75d52529b0e5bea60a789745ccaa2394847c8824",
      "assetIds": []
    },
    {
      "x": 288,
      "y": 170,
      "size": 1,
      "price": "1011000000000000000000",
      "reserved": "",
      "salt": "0x99407bdc4387b75fa1f94be3f3588f78b2476b5943f2b45eb2143eda9e9321df",
      "assetIds": []
    },
    {
      "x": 288,
      "y": 171,
      "size": 1,
      "price": "1011000000000000000000",
      "reserved": "",
      "salt": "0xc16135d465df831cb6257ac695e7137d79bef630ce99dfa3e34cba0085b386e0",
      "assetIds": []
    },
    {
      "x": 288,
      "y": 172,
      "size": 1,
      "price": "1011000000000000000000",
      "reserved": "",
      "salt": "0x0e3541d4130652639f5b07e240618de7cbfc170ab5f6defbfe1ec5c34173994b",
      "assetIds": []
    },
    {
      "x": 288,
      "y": 173,
      "size": 1,
      "price": "1011000000000000000000",
      "reserved": "",
      "salt": "0xbee217958f9db9b34b57815d5588419c20dc652e647fd1f2255aaf6c889e3a27",
      "assetIds": []
    },
    {
      "x": 288,
      "y": 174,
      "size": 1,
      "price": "1011000000000000000000",
      "reserved": "",
      "salt": "0x1f279dd1438cb71f07f99f812aaee0ea32ef7f419162ce26c0179dbee6ec708a",
      "assetIds": []
    },
    {
      "x": 288,
      "y": 175,
      "size": 1,
      "price": "1011000000000000000000",
      "reserved": "",
      "salt": "0x649d2dcf8f05bc97d736dd3667128089914ebaf426bfff74d6e18f7d5226ad70",
      "assetIds": []
    },
    {
      "x": 288,
      "y": 176,
      "size": 1,
      "price": "1011000000000000000000",
      "reserved": "",
      "salt": "0x45290279a6e91d1204c83d3c9c8032e0b957e7dc2165a776840c1263e403a1e9",
      "assetIds": []
    },
    {
      "x": 288,
      "y": 177,
      "size": 1,
      "price": "1011000000000000000000",
      "reserved": "",
      "salt": "0xb34f7f55ecf8b666920bbec1aacf1fd0b0ebfae68fb026b4950e073fa0deb77a",
      "assetIds": []
    },
    {
      "x": 288,
      "y": 178,
      "size": 1,
      "price": "1011000000000000000000",
      "reserved": "",
      "salt": "0xf21c3ba215963b62c136d639ecd1b24e881e444b13bf236528500251f9873b61",
      "assetIds": []
    },
    {
      "x": 288,
      "y": 179,
      "size": 1,
      "price": "1011000000000000000000",
      "reserved": "",
      "salt": "0xdb972ab7d530e43da464220c590204588046418346101ffb2481656cac213228",
      "assetIds": []
    },
    {
      "x": 288,
      "y": 180,
      "size": 1,
      "price": "1011000000000000000000",
      "reserved": "",
      "salt": "0x318c56f853895d4b91020af74435684e3e5c673d25dae5157e21792dccdc7ffd",
      "assetIds": []
    },
    {
      "x": 288,
      "y": 181,
      "size": 1,
      "price": "1011000000000000000000",
      "reserved": "",
      "salt": "0x8600aa8c01a3101e807385cf610527b5f2e706fcf79c79ca19d332b093b00ff6",
      "assetIds": []
    },
    {
      "x": 288,
      "y": 182,
      "size": 1,
      "price": "1011000000000000000000",
      "reserved": "",
      "salt": "0x89a39e3ae356a5ab1e36f11e6753d65d36f71ae1c70d4b8a9e70f75e0c8a47b1",
      "assetIds": []
    },
    {
      "x": 288,
      "y": 183,
      "size": 1,
      "price": "1011000000000000000000",
      "reserved": "",
      "salt": "0xb28818b52528ec6cedc1933be32a4845beace4a6f8b5908e7249911141044be3",
      "assetIds": []
    },
    {
      "x": 288,
      "y": 184,
      "size": 1,
      "price": "1011000000000000000000",
      "reserved": "",
      "salt": "0xa6109818853c17479365777a03e80548c3189904cac801f494b64b77603fa55b",
      "assetIds": []
    },
    {
      "x": 288,
      "y": 185,
      "size": 1,
      "price": "1011000000000000000000",
      "reserved": "",
      "salt": "0xf159c4e45c13f36ea6fbbbd3b2f0a1886da4f23e54adfe6a44ef4765755193fd",
      "assetIds": []
    },
    {
      "x": 288,
      "y": 186,
      "size": 1,
      "price": "1011000000000000000000",
      "reserved": "",
      "salt": "0xe4dc2194948c26249049439297955e7638c6d071a6073bec5d44d67ec379103b",
      "assetIds": []
    },
    {
      "x": 289,
      "y": 168,
      "size": 1,
      "price": "1011000000000000000000",
      "reserved": "",
      "salt": "0x37d8e844a6d1af6351527edb5b83b42df911b08d22fbe66a4e09c6e4708c8c54",
      "assetIds": []
    },
    {
      "x": 289,
      "y": 169,
      "size": 1,
      "price": "1011000000000000000000",
      "reserved": "",
      "salt": "0x56e79a56c560f405147c74e49a56337f82b650a3817e25123b5075dba970fdff",
      "assetIds": []
    },
    {
      "x": 289,
      "y": 170,
      "size": 1,
      "price": "1011000000000000000000",
      "reserved": "",
      "salt": "0xc40bf5fa0d504d4fb76c64e7ce5b45be89a0af90ddb3c2d01cd0836ff99fab61",
      "assetIds": []
    },
    {
      "x": 289,
      "y": 171,
      "size": 1,
      "price": "1011000000000000000000",
      "reserved": "",
      "salt": "0x61be0a70c77265fe291d2adb6480bbd2510b5044a9c938b8e42a6677a9cc2e1b",
      "assetIds": []
    },
    {
      "x": 289,
      "y": 172,
      "size": 1,
      "price": "1011000000000000000000",
      "reserved": "",
      "salt": "0xb15a140fd3c2e429278f0f1e8e261f6587a2d4f367b40dd1ce6b62e9509d4ef3",
      "assetIds": []
    },
    {
      "x": 289,
      "y": 173,
      "size": 1,
      "price": "1011000000000000000000",
      "reserved": "",
      "salt": "0xc57867c4eac3988df1d02f3cab0d5e5e51a5e1711d745fc5e4eac2f9e4af9043",
      "assetIds": []
    },
    {
      "x": 289,
      "y": 174,
      "size": 1,
      "price": "1011000000000000000000",
      "reserved": "",
      "salt": "0xd6d1f1281277e8de3734426e9a51dd92654bd92621e9a3a8dc301e349e30dcf9",
      "assetIds": []
    },
    {
      "x": 289,
      "y": 175,
      "size": 1,
      "price": "1011000000000000000000",
      "reserved": "",
      "salt": "0x00806ac48310e9086188b6504821b9778aa70ca5a916ff8be77d0721551a6470",
      "assetIds": []
    },
    {
      "x": 289,
      "y": 176,
      "size": 1,
      "price": "1011000000000000000000",
      "reserved": "",
      "salt": "0xb1011294f800184756861aafbf0aa60e4c569f72153ea1c85f7820c33d2645ca",
      "assetIds": []
    },
    {
      "x": 289,
      "y": 177,
      "size": 1,
      "price": "1011000000000000000000",
      "reserved": "",
      "salt": "0x663c51c13519cd8e1ed54961af49fd2240760733801f4668b3dc9582dd7093b3",
      "assetIds": []
    },
    {
      "x": 289,
      "y": 178,
      "size": 1,
      "price": "1011000000000000000000",
      "reserved": "",
      "salt": "0x37549872264a89511ceec27b60b9453e05f0a2e2ef1dc9bd768602b7380f844a",
      "assetIds": []
    },
    {
      "x": 289,
      "y": 179,
      "size": 1,
      "price": "1011000000000000000000",
      "reserved": "",
      "salt": "0x874b0a1177998a60ee58a67bc1337dfa9bce90b152ccf60050aa682f08e00d1d",
      "assetIds": []
    },
    {
      "x": 289,
      "y": 180,
      "size": 1,
      "price": "1011000000000000000000",
      "reserved": "",
      "salt": "0x1ccee666217cd8e5e9d0bdbf003b868d90061568d674c7311fea37c035e2523c",
      "assetIds": []
    },
    {
      "x": 289,
      "y": 181,
      "size": 1,
      "price": "1011000000000000000000",
      "reserved": "",
      "salt": "0xc51b50d319105b8ed95a6a0b6ff6562ab8a875ec4e7d6250acb577eddff214f2",
      "assetIds": []
    },
    {
      "x": 289,
      "y": 182,
      "size": 1,
      "price": "1011000000000000000000",
      "reserved": "",
      "salt": "0x9130a2ed4dc825925db709b1ac23db961f558441630cc179b519ff3ac6f72394",
      "assetIds": []
    },
    {
      "x": 289,
      "y": 183,
      "size": 1,
      "price": "1011000000000000000000",
      "reserved": "",
      "salt": "0x61e776006486e008b45a9c3663fae44a0b1c225cdb0002a7581d095e503b5d34",
      "assetIds": []
    },
    {
      "x": 289,
      "y": 184,
      "size": 1,
      "price": "1011000000000000000000",
      "reserved": "",
      "salt": "0xa68b5db2604f30b5609a4b7243918c4dbb248686bf8ca179f2347792cb3a3382",
      "assetIds": []
    },
    {
      "x": 289,
      "y": 185,
      "size": 1,
      "price": "1011000000000000000000",
      "reserved": "",
      "salt": "0x7cce9760ed466041954288b45424d664eba91962dab31abe2e3e2a863b40c3c1",
      "assetIds": []
    },
    {
      "x": 289,
      "y": 186,
      "size": 1,
      "price": "1011000000000000000000",
      "reserved": "",
      "salt": "0x7a776d763d178b2147fd2edb30da8367766f1e3a5ad542bfa3bd887f8af6a985",
      "assetIds": []
    },
    {
      "x": 290,
      "y": 168,
      "size": 1,
      "price": "1011000000000000000000",
      "reserved": "",
      "salt": "0x05f831230f419f9f480a8f48830c1cf0d8f9c8df7b35ff618bb73407d3f92adb",
      "assetIds": []
    },
    {
      "x": 290,
      "y": 169,
      "size": 1,
      "price": "1011000000000000000000",
      "reserved": "",
      "salt": "0x06cd1389b8f4172aa703f2c2efbc2971ef5ddd794c0e6ba0975b07b8460a9f75",
      "assetIds": []
    },
    {
      "x": 290,
      "y": 170,
      "size": 1,
      "price": "1011000000000000000000",
      "reserved": "",
      "salt": "0x40aaa7fc00b205390247b107663c9c7a9065478c892ab025d2e3e0923a8cf591",
      "assetIds": []
    },
    {
      "x": 290,
      "y": 171,
      "size": 1,
      "price": "1011000000000000000000",
      "reserved": "",
      "salt": "0x0e14c6bab1b70493333effd45895ec18371cb79d93c117e9007cf06f41aafdd9",
      "assetIds": []
    },
    {
      "x": 290,
      "y": 172,
      "size": 1,
      "price": "1011000000000000000000",
      "reserved": "",
      "salt": "0xbeb664b635c78bc165b0a5f3a3bcef88ed36de5ed5714b1746c681e0ef708efa",
      "assetIds": []
    },
    {
      "x": 290,
      "y": 173,
      "size": 1,
      "price": "1011000000000000000000",
      "reserved": "",
      "salt": "0x060ec4aac55efea8089b6e01f742cbaf270bac4ba8a4775bb1193c395f5ece3c",
      "assetIds": []
    },
    {
      "x": 290,
      "y": 174,
      "size": 1,
      "price": "1011000000000000000000",
      "reserved": "",
      "salt": "0x522af35895c44d0e18b33e19862dd9b2c74fcf633976bf05b99a18e000aeb74a",
      "assetIds": []
    },
    {
      "x": 290,
      "y": 175,
      "size": 1,
      "price": "1011000000000000000000",
      "reserved": "",
      "salt": "0x4610edd8951e674dfd4f8de40e851e4731ba56a72e86ade59f0164bdf724c121",
      "assetIds": []
    },
    {
      "x": 290,
      "y": 176,
      "size": 1,
      "price": "1011000000000000000000",
      "reserved": "",
      "salt": "0x635083b9a210e2ba1a93245ec33ecdca774dfb1c206821b5050f558bf48be07d",
      "assetIds": []
    },
    {
      "x": 290,
      "y": 177,
      "size": 1,
      "price": "1011000000000000000000",
      "reserved": "",
      "salt": "0x381af0090ca29e84979076d384bc9ee6e99785f36a91a4e0888e7e93b4d83dbf",
      "assetIds": []
    },
    {
      "x": 290,
      "y": 178,
      "size": 1,
      "price": "1011000000000000000000",
      "reserved": "",
      "salt": "0x0ec4aeea427176ac835ef64fe628bd2cb21113ce4f24589280145d71d58bc940",
      "assetIds": []
    },
    {
      "x": 290,
      "y": 179,
      "size": 1,
      "price": "1011000000000000000000",
      "reserved": "",
      "salt": "0xde686428981cba6afeac576a396daac10386138437841bb809f4d4e5a6e6fc2a",
      "assetIds": []
    },
    {
      "x": 290,
      "y": 180,
      "size": 1,
      "price": "1011000000000000000000",
      "reserved": "",
      "salt": "0xa477ebba3e94882ee3b8c8facbc86d1d3aef64a6901b18ed5a7d5134a5f3f30e",
      "assetIds": []
    },
    {
      "x": 290,
      "y": 181,
      "size": 1,
      "price": "1011000000000000000000",
      "reserved": "",
      "salt": "0xdca7e12c3c070d2530a726d5816bbe576bac15cc0d8d74c1b866304c8c3ae71a",
      "assetIds": []
    },
    {
      "x": 290,
      "y": 182,
      "size": 1,
      "price": "1011000000000000000000",
      "reserved": "",
      "salt": "0x99e52db33c48933d5b05c54a741f92169920a95a4e193756adfd74d5653741d9",
      "assetIds": []
    },
    {
      "x": 290,
      "y": 183,
      "size": 1,
      "price": "1011000000000000000000",
      "reserved": "",
      "salt": "0x858b8fa176a15b1de5b8d778122285110e7bdfb9e6669cd8a59cab274bb6b03b",
      "assetIds": []
    },
    {
      "x": 290,
      "y": 184,
      "size": 1,
      "price": "1011000000000000000000",
      "reserved": "",
      "salt": "0xe29dca29088677892ed74b02c64e06c07289c893654e6d5cbb768a1fc0ff23ed",
      "assetIds": []
    },
    {
      "x": 290,
      "y": 185,
      "size": 1,
      "price": "1011000000000000000000",
      "reserved": "",
      "salt": "0xe44835f1e22acaf25359f8d7700720b20ade75231042f4de3bea347f4e1f81d1",
      "assetIds": []
    },
    {
      "x": 290,
      "y": 186,
      "size": 1,
      "price": "1011000000000000000000",
      "reserved": "",
      "salt": "0x652ccecec7f92a974cb5aacaf88927a5746d119ac4fec332539cc0208728f9ed",
      "assetIds": []
    },
    {
      "x": 291,
      "y": 168,
      "size": 1,
      "price": "1011000000000000000000",
      "reserved": "",
      "salt": "0xab9be5aeafda1245674037cb912a8f837621caa0363131eeac1e3843f75a740d",
      "assetIds": []
    },
    {
      "x": 291,
      "y": 169,
      "size": 1,
      "price": "1011000000000000000000",
      "reserved": "",
      "salt": "0xc1da09b8a3a77b6cc59dc03e047692253f920f8dc8d725794e2f59399c4877a8",
      "assetIds": []
    },
    {
      "x": 291,
      "y": 170,
      "size": 1,
      "price": "1011000000000000000000",
      "reserved": "",
      "salt": "0xd1f38d990a8aa510f35a0ccf0c317a24f9e15bfeac4ea8e7da8f843eb391affe",
      "assetIds": []
    },
    {
      "x": 291,
      "y": 171,
      "size": 1,
      "price": "1011000000000000000000",
      "reserved": "",
      "salt": "0xdf2f3c7adb735ab894060715a7f7329dffbf43743da4bc2041b67b6600636724",
      "assetIds": []
    },
    {
      "x": 291,
      "y": 172,
      "size": 1,
      "price": "1011000000000000000000",
      "reserved": "",
      "salt": "0xa2b870006363d1e69ca1399c03d0e4e12c926a1405b5fe4dd670fe15300a0da6",
      "assetIds": []
    },
    {
      "x": 291,
      "y": 173,
      "size": 1,
      "price": "1011000000000000000000",
      "reserved": "",
      "salt": "0xee759c32bf5be29b3ab80ff13a2d38e74bdfe117d2ce4a5931b4bd3e5e2edb37",
      "assetIds": []
    },
    {
      "x": 291,
      "y": 174,
      "size": 1,
      "price": "1011000000000000000000",
      "reserved": "",
      "salt": "0x43f8dc66d55b2737ced169e4afcd36668600ddced306cd88c63d4e014a4ded76",
      "assetIds": []
    },
    {
      "x": 291,
      "y": 175,
      "size": 1,
      "price": "1011000000000000000000",
      "reserved": "",
      "salt": "0x660a759cddcae721368b58c37a80efb1e78d5d26f5613b1a2bae376fa82f24ed",
      "assetIds": []
    },
    {
      "x": 291,
      "y": 176,
      "size": 1,
      "price": "1011000000000000000000",
      "reserved": "",
      "salt": "0x4bd0a178fd4f79772280504dd70e51ca5462462e134b7cae273aa1d24d113174",
      "assetIds": []
    },
    {
      "x": 291,
      "y": 177,
      "size": 1,
      "price": "1011000000000000000000",
      "reserved": "",
      "salt": "0x957aa96b7cc31463682a344cad83399e3c5a026a425ea1bbe314e77cf1e2253c",
      "assetIds": []
    },
    {
      "x": 291,
      "y": 178,
      "size": 1,
      "price": "1011000000000000000000",
      "reserved": "",
      "salt": "0x28bb688435b4b6441b28148816ac41ad8f0aa1e20d833b674dca81dc24183a9b",
      "assetIds": []
    },
    {
      "x": 291,
      "y": 179,
      "size": 1,
      "price": "1011000000000000000000",
      "reserved": "",
      "salt": "0xd8951f08955dcc6ce12f042a7a9dad424b960636ec583531c73ecd3b54e34a98",
      "assetIds": []
    },
    {
      "x": 291,
      "y": 183,
      "size": 1,
      "price": "1011000000000000000000",
      "reserved": "",
      "salt": "0x1e3b3327bdecc9a36712ce735ec29c0b8aa1211e96b4235938a50af1227708c0",
      "assetIds": []
    },
    {
      "x": 291,
      "y": 184,
      "size": 1,
      "price": "1011000000000000000000",
      "reserved": "",
      "salt": "0x06f8b1d1cf53c4762205c6fce1cd117c640dbeac75f720ef050b7d7b2080bd05",
      "assetIds": []
    },
    {
      "x": 291,
      "y": 185,
      "size": 1,
      "price": "1011000000000000000000",
      "reserved": "",
      "salt": "0xb8b28f6f417cfdb60443631b485d166e2a8644151866bc41caee44ca676adc94",
      "assetIds": []
    },
    {
      "x": 291,
      "y": 186,
      "size": 1,
      "price": "1011000000000000000000",
      "reserved": "",
      "salt": "0x625abc9ffbd0722f9b776dcdc884e956608f34e81054bcf959e627300227adf9",
      "assetIds": []
    },
    {
      "x": 292,
      "y": 168,
      "size": 1,
      "price": "1011000000000000000000",
      "reserved": "",
      "salt": "0x006f26da5cf16b681813b581c13c5efddc25f8b0a6219228bf776db1e230d6de",
      "assetIds": []
    },
    {
      "x": 292,
      "y": 169,
      "size": 1,
      "price": "1011000000000000000000",
      "reserved": "",
      "salt": "0x8d8734008a5ab0746363e964575b921b43efd54c0a795c8f59cc39443878137f",
      "assetIds": []
    },
    {
      "x": 292,
      "y": 170,
      "size": 1,
      "price": "1011000000000000000000",
      "reserved": "",
      "salt": "0xc4d82688fa0100a91bdc0a0507ec2895400e986ef544b80fe1e7485e08ed45a6",
      "assetIds": []
    },
    {
      "x": 292,
      "y": 171,
      "size": 1,
      "price": "1011000000000000000000",
      "reserved": "",
      "salt": "0x6837d6230ca167c40b7696c73419b627814de5a152a983ee34d07fc9d4f9135f",
      "assetIds": []
    },
    {
      "x": 292,
      "y": 172,
      "size": 1,
      "price": "1011000000000000000000",
      "reserved": "",
      "salt": "0xde992f628724c7cad4ab1f389e75997f68c6a86b2283e6749df26217e11e065a",
      "assetIds": []
    },
    {
      "x": 292,
      "y": 173,
      "size": 1,
      "price": "1011000000000000000000",
      "reserved": "",
      "salt": "0xbe8cdf0b2de79ec2d71f68c0da7f9957b0a10dd0d951fb8adab02162fc8fc130",
      "assetIds": []
    },
    {
      "x": 292,
      "y": 174,
      "size": 1,
      "price": "1011000000000000000000",
      "reserved": "",
      "salt": "0x05161b21c79759130d0f9a93ce447b4be4e1e4cee8e7fd0ebdd5cd0e8a2d645a",
      "assetIds": []
    },
    {
      "x": 292,
      "y": 175,
      "size": 1,
      "price": "1011000000000000000000",
      "reserved": "",
      "salt": "0x5f36afe754944dbc87e21fe46bc65fba85429299c715d43b6612ac91385c713c",
      "assetIds": []
    },
    {
      "x": 292,
      "y": 176,
      "size": 1,
      "price": "1011000000000000000000",
      "reserved": "",
      "salt": "0x78fb0b0f4f7443543818d96ad67fb2400657994004c2ec001763e19d1a29eff3",
      "assetIds": []
    },
    {
      "x": 292,
      "y": 177,
      "size": 1,
      "price": "1011000000000000000000",
      "reserved": "",
      "salt": "0x806d6f7ceec49b26b23825aac24fad66de2afa9f3514889ae97048e461935d3b",
      "assetIds": []
    },
    {
      "x": 292,
      "y": 178,
      "size": 1,
      "price": "1011000000000000000000",
      "reserved": "",
      "salt": "0xdaf43b03dbae210541fe8bed2ba010c356fb6582f4fd4ea860cd076fdf9dc9d0",
      "assetIds": []
    },
    {
      "x": 292,
      "y": 179,
      "size": 1,
      "price": "1011000000000000000000",
      "reserved": "",
      "salt": "0x84277adcd0216e8eec80af16b4043319cc83c9e4b875b24d81264e904f588449",
      "assetIds": []
    },
    {
      "x": 292,
      "y": 183,
      "size": 1,
      "price": "1011000000000000000000",
      "reserved": "",
      "salt": "0x0ce1df4d0775db80afbd7f0abea799b223ca740eb088d8b960ba1bf25b44462c",
      "assetIds": []
    },
    {
      "x": 292,
      "y": 184,
      "size": 1,
      "price": "1011000000000000000000",
      "reserved": "",
      "salt": "0xde1b24c1c9dcbba3d30beaabefc3f8cc57ce1e9a86813b718eb6016b54888f25",
      "assetIds": []
    },
    {
      "x": 292,
      "y": 185,
      "size": 1,
      "price": "1011000000000000000000",
      "reserved": "",
      "salt": "0x31a4a1c802b601661a2ed41504eea1bfe578976e04fb20341685405edfde098a",
      "assetIds": []
    },
    {
      "x": 292,
      "y": 186,
      "size": 1,
      "price": "1011000000000000000000",
      "reserved": "",
      "salt": "0xe347778d3f678f5a793534706d98f91e1291400c8327f15b5cf31bbafc9bcc4c",
      "assetIds": []
    },
    {
      "x": 292,
      "y": 187,
      "size": 1,
      "price": "1011000000000000000000",
      "reserved": "",
      "salt": "0x0e56d8ae2901b61ebdd59e3b6eb0a54b714e6befc3678ec5e4b590279791220b",
      "assetIds": []
    },
    {
      "x": 293,
      "y": 168,
      "size": 1,
      "price": "1011000000000000000000",
      "reserved": "",
      "salt": "0xf52b668e7ff120f42d1b1a7f499358be4472f86caba3df4cc61d43122b628a8e",
      "assetIds": []
    },
    {
      "x": 293,
      "y": 169,
      "size": 1,
      "price": "1011000000000000000000",
      "reserved": "",
      "salt": "0x0f0a5bcf96532fe60d498c2fc264f58d98faa16f1302b2675eb0606992fe44fa",
      "assetIds": []
    },
    {
      "x": 293,
      "y": 170,
      "size": 1,
      "price": "1011000000000000000000",
      "reserved": "",
      "salt": "0xbe1dd06fd7a7ea93e8b95769676d907160bde674ae6622c7b5ffca1d0728a360",
      "assetIds": []
    },
    {
      "x": 293,
      "y": 171,
      "size": 1,
      "price": "1011000000000000000000",
      "reserved": "",
      "salt": "0xb8122ab0c651fb0a7eeecaf77dc406707899969418e1a68ce35a15968e8eebf7",
      "assetIds": []
    },
    {
      "x": 293,
      "y": 172,
      "size": 1,
      "price": "1011000000000000000000",
      "reserved": "",
      "salt": "0x8af9298e5e1c6b35b8480ff9b28deb01bd47aa6e758a06a3aef4ac868c3f9b90",
      "assetIds": []
    },
    {
      "x": 293,
      "y": 173,
      "size": 1,
      "price": "1011000000000000000000",
      "reserved": "",
      "salt": "0xc70e55af2c1b7ce10a7d5c3b90bae7863e5b69f288ce7bd5258ed8c3b64b5cce",
      "assetIds": []
    },
    {
      "x": 293,
      "y": 174,
      "size": 1,
      "price": "1011000000000000000000",
      "reserved": "",
      "salt": "0xda3f093ad10b03699767a7888815b93e353bf1e88f26f6adb5cdadd4641b9479",
      "assetIds": []
    },
    {
      "x": 293,
      "y": 175,
      "size": 1,
      "price": "1011000000000000000000",
      "reserved": "",
      "salt": "0x2fb079894fbf58796108dacb7796163e4cf7c0c9a3ba799f7239b3be9531cb57",
      "assetIds": []
    },
    {
      "x": 293,
      "y": 176,
      "size": 1,
      "price": "1011000000000000000000",
      "reserved": "",
      "salt": "0x1cf5a40177ad1bc077a5f7c3567b8bce1bcf54437c9b26d071e56d810b92f379",
      "assetIds": []
    },
    {
      "x": 293,
      "y": 177,
      "size": 1,
      "price": "1011000000000000000000",
      "reserved": "",
      "salt": "0x328671f7e0df995df62ac3327f982c2a650cff6193bdd79213ef8c3c66994137",
      "assetIds": []
    },
    {
      "x": 293,
      "y": 178,
      "size": 1,
      "price": "1011000000000000000000",
      "reserved": "",
      "salt": "0xb14804e1b8603c5d69ef7972a623e58fd15d736421f53612a07e58a0eda13720",
      "assetIds": []
    },
    {
      "x": 293,
      "y": 179,
      "size": 1,
      "price": "1011000000000000000000",
      "reserved": "",
      "salt": "0xa5a87cedf5cf6766dfa1c4a4cd59db557f83659cb7585edcb68a2b909f257105",
      "assetIds": []
    },
    {
      "x": 293,
      "y": 183,
      "size": 1,
      "price": "1011000000000000000000",
      "reserved": "",
      "salt": "0xc7d9c6cd32fb4919d61f3155c5a1d56137924f64963fa542613b45e8e4696746",
      "assetIds": []
    },
    {
      "x": 293,
      "y": 184,
      "size": 1,
      "price": "1011000000000000000000",
      "reserved": "",
      "salt": "0x476f42a19c02b0e674e0b50a0be667970e1bb85134fcff95af84a138661c9a0d",
      "assetIds": []
    },
    {
      "x": 293,
      "y": 185,
      "size": 1,
      "price": "1011000000000000000000",
      "reserved": "",
      "salt": "0xf6c5f9d6216fe7a9272f1f218770ff46f53594f7fc9ab872b7e1ccc255f697b2",
      "assetIds": []
    },
    {
      "x": 293,
      "y": 186,
      "size": 1,
      "price": "1011000000000000000000",
      "reserved": "",
      "salt": "0xaea4d465a148fd29c6e03ab33fd481d52c037fe3b215d92f43026cd5f3138aa7",
      "assetIds": []
    },
    {
      "x": 293,
      "y": 187,
      "size": 1,
      "price": "1011000000000000000000",
      "reserved": "",
      "salt": "0x9d0fe9defc10da203852754eed556efd4fb89ba8a223e806938de7e1c36f0ca6",
      "assetIds": []
    },
    {
      "x": 294,
      "y": 165,
      "size": 1,
      "price": "1011000000000000000000",
      "reserved": "",
      "salt": "0xe587d25e572bc85bbd624a261b8e72eddcc168f2df2c17858f8dcacdb0839692",
      "assetIds": []
    },
    {
      "x": 294,
      "y": 166,
      "size": 1,
      "price": "1011000000000000000000",
      "reserved": "",
      "salt": "0x159ca48749a3240e33e39062f1692fa5e8ab270bdcf1a0a0f09bdef22ecc920b",
      "assetIds": []
    },
    {
      "x": 294,
      "y": 167,
      "size": 1,
      "price": "1011000000000000000000",
      "reserved": "",
      "salt": "0xc3e5fc36648f5fe0d0943a318696d12aee33355a307e69056c549ec0ec49b3b9",
      "assetIds": []
    },
    {
      "x": 294,
      "y": 174,
      "size": 1,
      "price": "1011000000000000000000",
      "reserved": "",
      "salt": "0xf5083aab41bf77956af6174c31483e82e30b9680ccf6ea20255eec19a114ec0c",
      "assetIds": []
    },
    {
      "x": 294,
      "y": 175,
      "size": 1,
      "price": "1011000000000000000000",
      "reserved": "",
      "salt": "0x647acb18cb1fbd328417ea58147254f2dc588150db377935671a5a4b471e4f7d",
      "assetIds": []
    },
    {
      "x": 294,
      "y": 176,
      "size": 1,
      "price": "1011000000000000000000",
      "reserved": "",
      "salt": "0xd3729fb0f4b9961e0ff9767305badd25a295272984df853c4af4de9fd722b9a6",
      "assetIds": []
    },
    {
      "x": 294,
      "y": 177,
      "size": 1,
      "price": "1011000000000000000000",
      "reserved": "",
      "salt": "0xf10d46367a1b3100975b452ec77e8894f85ed6b4c641c2fca570268bf31054b6",
      "assetIds": []
    },
    {
      "x": 294,
      "y": 178,
      "size": 1,
      "price": "1011000000000000000000",
      "reserved": "",
      "salt": "0xe8bbd472fe85201d8477f3ed88f222c5712c1fd9863dfcc34375ffa00198065f",
      "assetIds": []
    },
    {
      "x": 294,
      "y": 179,
      "size": 1,
      "price": "1011000000000000000000",
      "reserved": "",
      "salt": "0x78231f52ad4fe5e9b36fc4e0ba9eb59813270c366ab8c29f57b7ae078cc9ebc1",
      "assetIds": []
    },
    {
      "x": 294,
      "y": 180,
      "size": 1,
      "price": "1011000000000000000000",
      "reserved": "",
      "salt": "0x76169f90afb6f905e85f38cf8e8e5e0f718b10fce19fb75d33a407b3691e4924",
      "assetIds": []
    },
    {
      "x": 294,
      "y": 181,
      "size": 1,
      "price": "1011000000000000000000",
      "reserved": "",
      "salt": "0x7f81a3eddf40381e8bdbbe8af06c0d9609f17bd8065ecba755c078baa3999969",
      "assetIds": []
    },
    {
      "x": 294,
      "y": 182,
      "size": 1,
      "price": "1011000000000000000000",
      "reserved": "",
      "salt": "0xa3b1bcc8b0f25981b06359aad667963142412f05923de32b922e616f49498ca2",
      "assetIds": []
    },
    {
      "x": 294,
      "y": 183,
      "size": 1,
      "price": "1011000000000000000000",
      "reserved": "",
      "salt": "0x8a856e14c9e66db4362988f5ba97f184b793490f5f210f902b5cc9538bd608d8",
      "assetIds": []
    },
    {
      "x": 294,
      "y": 184,
      "size": 1,
      "price": "1011000000000000000000",
      "reserved": "",
      "salt": "0x665630416460122244af8761a4cdb6ac43ad81749a30ec8f213c4d8699c306d9",
      "assetIds": []
    },
    {
      "x": 294,
      "y": 185,
      "size": 1,
      "price": "1011000000000000000000",
      "reserved": "",
      "salt": "0x7f255f0183b87d2f085f2bd45709810ca48fd1e79aa05970bf63bf277d1bd229",
      "assetIds": []
    },
    {
      "x": 294,
      "y": 186,
      "size": 1,
      "price": "1011000000000000000000",
      "reserved": "",
      "salt": "0x1424802faa5369f0cf5eac6ae75e7789ade66640a4811475aeaab5ce7dc333ee",
      "assetIds": []
    },
    {
      "x": 294,
      "y": 187,
      "size": 1,
      "price": "1011000000000000000000",
      "reserved": "",
      "salt": "0xb832d2c762dfe77882f4ac3ef3c0b9dec64e9ef611a6b181b452e02285b6fb2c",
      "assetIds": []
    },
    {
      "x": 295,
      "y": 165,
      "size": 1,
      "price": "1011000000000000000000",
      "reserved": "",
      "salt": "0x3abb5fea49976893acab8756b1cdc874038095bdcec5d07c27f7891f9b98a9df",
      "assetIds": []
    },
    {
      "x": 295,
      "y": 166,
      "size": 1,
      "price": "1011000000000000000000",
      "reserved": "",
      "salt": "0x95925560fe9778b53a35d876c9f1298136ce3e738a1c2a45e9643c68a635292d",
      "assetIds": []
    },
    {
      "x": 295,
      "y": 167,
      "size": 1,
      "price": "1011000000000000000000",
      "reserved": "",
      "salt": "0x211da0f4e33d370fa5302d9beadcc78d412a9c3ad697e5a2906c50a6b5ee50fd",
      "assetIds": []
    },
    {
      "x": 295,
      "y": 174,
      "size": 1,
      "price": "1011000000000000000000",
      "reserved": "",
      "salt": "0xf93ef3fee1466e1ed780293aacc4f8400be6d4fe07b3b54d473043e8d6ad32e0",
      "assetIds": []
    },
    {
      "x": 295,
      "y": 175,
      "size": 1,
      "price": "1011000000000000000000",
      "reserved": "",
      "salt": "0x43a2f001c75678f31d0863158510f56a3e331e3f1369ed683c1d6600dc4fc3c3",
      "assetIds": []
    },
    {
      "x": 295,
      "y": 176,
      "size": 1,
      "price": "1011000000000000000000",
      "reserved": "",
      "salt": "0x5ba50457c7fb24f1489c71d45660d9fcfbae9005bf2a655ff2bfe79dae552864",
      "assetIds": []
    },
    {
      "x": 295,
      "y": 177,
      "size": 1,
      "price": "1011000000000000000000",
      "reserved": "",
      "salt": "0x099cf560634ccce4b7c18b40234d58ec1b13e4587ee1b6206e448701eac62513",
      "assetIds": []
    },
    {
      "x": 295,
      "y": 178,
      "size": 1,
      "price": "1011000000000000000000",
      "reserved": "",
      "salt": "0x9419cea80e20166fe239faa10015e595a26e482360fd44dda0f36b9965002681",
      "assetIds": []
    },
    {
      "x": 295,
      "y": 179,
      "size": 1,
      "price": "1011000000000000000000",
      "reserved": "",
      "salt": "0x65a9f68467148f156e120d29c281658f34f4da371b0cca8a04d788e3017e0ab6",
      "assetIds": []
    },
    {
      "x": 295,
      "y": 180,
      "size": 1,
      "price": "1011000000000000000000",
      "reserved": "",
      "salt": "0x4c77d7e8c63beed8249c18ca0cb59a52c6090838d9dc1fd966fe0c8dab0fe962",
      "assetIds": []
    },
    {
      "x": 295,
      "y": 181,
      "size": 1,
      "price": "1011000000000000000000",
      "reserved": "",
      "salt": "0xc359c9f815e37a591636f286fbc3bb05c11392528ec13e87781428cc510ed6bd",
      "assetIds": []
    },
    {
      "x": 295,
      "y": 182,
      "size": 1,
      "price": "1011000000000000000000",
      "reserved": "",
      "salt": "0xe4f91d07f5905667ec77a4750bba327c4475a663ba65107081abadf5596079de",
      "assetIds": []
    },
    {
      "x": 295,
      "y": 183,
      "size": 1,
      "price": "1011000000000000000000",
      "reserved": "",
      "salt": "0xec3805fc840bf55c01060de2be8002c0ca3f8e523415dfd02483125f138ff82b",
      "assetIds": []
    },
    {
      "x": 295,
      "y": 184,
      "size": 1,
      "price": "1011000000000000000000",
      "reserved": "",
      "salt": "0x8c4fb1d09caf587272a4c166a964aae5cd61a1453edcfdc1c627e3541bd7134a",
      "assetIds": []
    },
    {
      "x": 295,
      "y": 185,
      "size": 1,
      "price": "1011000000000000000000",
      "reserved": "",
      "salt": "0x1d1a1da8fa659aeb0acc56238dc156c85bc301a527940006e17993fef34da6f6",
      "assetIds": []
    },
    {
      "x": 295,
      "y": 186,
      "size": 1,
      "price": "1011000000000000000000",
      "reserved": "",
      "salt": "0xa8d3b3a2750ace34c7f3fbfed63e93993b289296d31ccc799792373c74296990",
      "assetIds": []
    },
    {
      "x": 295,
      "y": 187,
      "size": 1,
      "price": "1011000000000000000000",
      "reserved": "",
      "salt": "0x315efb7342b4ae5cb7b4cf1c8129686d4b7e6077b3060eeb7e0d3381b0107b3c",
      "assetIds": []
    },
    {
      "x": 296,
      "y": 165,
      "size": 1,
      "price": "1011000000000000000000",
      "reserved": "",
      "salt": "0x6a8f35d83b8f0d903af826b551d2d9bec177ecab2fb7c0a4112e146e1ccbbfcd",
      "assetIds": []
    },
    {
      "x": 296,
      "y": 166,
      "size": 1,
      "price": "1011000000000000000000",
      "reserved": "",
      "salt": "0xb21e49f72e85ef915f9786e5409b61c28f8e31a037ed1d62775824d948dc0ca4",
      "assetIds": []
    },
    {
      "x": 296,
      "y": 167,
      "size": 1,
      "price": "4683000000000000000000",
      "reserved": "",
      "salt": "0x35e1ef3b027511bbc3aaefaf24fa3fb1a601e19520060ad6996345ab87ba0f9a",
      "assetIds": [
        "41506478881403507969696680653240014914910929820314476107906210059990541021189"
      ]
    },
    {
      "x": 296,
      "y": 174,
      "size": 1,
      "price": "1011000000000000000000",
      "reserved": "",
      "salt": "0xcfadba33d031f14d27021936956bd967a0a153066e9da407757c57e53cc853d4",
      "assetIds": []
    },
    {
      "x": 296,
      "y": 175,
      "size": 1,
      "price": "1011000000000000000000",
      "reserved": "",
      "salt": "0x97c65c2ebd19ada1862406aac51c6e7742e94ea56ffed1ecaba25c3fcda769cb",
      "assetIds": []
    },
    {
      "x": 296,
      "y": 176,
      "size": 1,
      "price": "1011000000000000000000",
      "reserved": "",
      "salt": "0x861a5eaca67e1ce186ec406a3d6de19634b5d5ead7c2cdaa31d6c0e74699894d",
      "assetIds": []
    },
    {
      "x": 296,
      "y": 177,
      "size": 1,
      "price": "1011000000000000000000",
      "reserved": "",
      "salt": "0x7ac2b9a40783c563c295a21a1a7e1b986311788e8236b619f8a14345c4e917ce",
      "assetIds": []
    },
    {
      "x": 296,
      "y": 178,
      "size": 1,
      "price": "1011000000000000000000",
      "reserved": "",
      "salt": "0xf08f0bb999e7481a72185ab624ed9baf1f4a4e8cc9f60695542891cf906be496",
      "assetIds": []
    },
    {
      "x": 296,
      "y": 179,
      "size": 1,
      "price": "1011000000000000000000",
      "reserved": "",
      "salt": "0x529671a7d70a4241356e0e51e9f6bac32f8c73eb681d049dbf8e6cdfab15f337",
      "assetIds": []
    },
    {
      "x": 296,
      "y": 180,
      "size": 1,
      "price": "1011000000000000000000",
      "reserved": "",
      "salt": "0xeec33faaaa8686fad936039b330e9e1ffc01264fad1373046120d1cd65f1d96c",
      "assetIds": []
    },
    {
      "x": 296,
      "y": 181,
      "size": 1,
      "price": "1011000000000000000000",
      "reserved": "",
      "salt": "0x51ac108a3e87eedb9e6124064f0aaa40e9abf6d5669b99c410408fb798629dbe",
      "assetIds": []
    },
    {
      "x": 296,
      "y": 182,
      "size": 1,
      "price": "1011000000000000000000",
      "reserved": "",
      "salt": "0x58ad16900070841d7af390b5d18c32ac69f0bd58ca92b8ce83bc341ee6f953f1",
      "assetIds": []
    },
    {
      "x": 296,
      "y": 183,
      "size": 1,
      "price": "1011000000000000000000",
      "reserved": "",
      "salt": "0x03cd381f89b4b9b1d25c808a33ec901e0f866365b37a46f2e24e3669d09a9c76",
      "assetIds": []
    },
    {
      "x": 296,
      "y": 184,
      "size": 1,
      "price": "1011000000000000000000",
      "reserved": "",
      "salt": "0xf3e9253078bb23cff857c367b03017c6e1f76c6fd315136ebaed4a0143c46de8",
      "assetIds": []
    },
    {
      "x": 296,
      "y": 185,
      "size": 1,
      "price": "1011000000000000000000",
      "reserved": "",
      "salt": "0x177c274edf7802179453c506ed116b40d2d79dc156083988cb66e135dfa886ea",
      "assetIds": []
    },
    {
      "x": 296,
      "y": 186,
      "size": 1,
      "price": "1011000000000000000000",
      "reserved": "",
      "salt": "0xcb08f6e68835affed334d2eed9f127250b5a95e9d79ebc2c10a05b769f8072bb",
      "assetIds": []
    },
    {
      "x": 296,
      "y": 187,
      "size": 1,
      "price": "1011000000000000000000",
      "reserved": "",
      "salt": "0xe78a31aa308b8d2c093ca2a0bb4d8c89480e2f3ed548f00b545c30e90092b8f7",
      "assetIds": []
    },
    {
      "x": 297,
      "y": 162,
      "size": 1,
      "price": "1011000000000000000000",
      "reserved": "",
      "salt": "0xd7ff521e16e228bd6c5cae33df580c9decc82f8b7a9e1b710564ec7fa400dadb",
      "assetIds": []
    },
    {
      "x": 297,
      "y": 163,
      "size": 1,
      "price": "1011000000000000000000",
      "reserved": "",
      "salt": "0x8ef66e30ba519b5c1b86ae743edf1dcea0ba266ccb81e8aba3e0be38a1985922",
      "assetIds": []
    },
    {
      "x": 297,
      "y": 164,
      "size": 1,
      "price": "4683000000000000000000",
      "reserved": "",
      "salt": "0x7751358504abec0ecae665ffe538db656b5abe0efabbab45ccb3536705b5b3c9",
      "assetIds": [
        "41506478881403507969696680653240014914910929820314476107906210059990541021189"
      ]
    },
    {
      "x": 297,
      "y": 165,
      "size": 1,
      "price": "4683000000000000000000",
      "reserved": "",
      "salt": "0xd0365536aec3a2292e894264162481c2859fcb5a20c695169f8ad3ee234285e4",
      "assetIds": [
        "41506478881403507969696680653240014914910929820314476107906210059990541021189"
      ]
    },
    {
      "x": 297,
      "y": 166,
      "size": 1,
      "price": "4683000000000000000000",
      "reserved": "",
      "salt": "0x4cd6bb28aa71edc0b0a9e38e73424fe71f0532f89356acc818f58c96582804b6",
      "assetIds": [
        "41506478881403507969696680653240014914910929820314476107906210059990541021189"
      ]
    },
    {
      "x": 297,
      "y": 167,
      "size": 1,
      "price": "4683000000000000000000",
      "reserved": "",
      "salt": "0xe8233f347d3ed1aefc5c10c3dc587f9431069f97a2612570499657ae79eb59bc",
      "assetIds": [
        "41506478881403507969696680653240014914910929820314476107906210059990541021189"
      ]
    },
    {
      "x": 297,
      "y": 174,
      "size": 1,
      "price": "1011000000000000000000",
      "reserved": "",
      "salt": "0xfe645f9f9b5ded1088fbf5399622be14f2665e99e366e09822b81b11dec609db",
      "assetIds": []
    },
    {
      "x": 297,
      "y": 175,
      "size": 1,
      "price": "1011000000000000000000",
      "reserved": "",
      "salt": "0x59c77476789e831200d56cf2eca9258972292086b505fd1fb557a97e7ae8d534",
      "assetIds": []
    },
    {
      "x": 297,
      "y": 176,
      "size": 1,
      "price": "1011000000000000000000",
      "reserved": "",
      "salt": "0x2f3f7b3c658bb231243c79eab464cd6b11a59d4abd0b6caa6f3ebae4e862ab2c",
      "assetIds": []
    },
    {
      "x": 297,
      "y": 177,
      "size": 1,
      "price": "1011000000000000000000",
      "reserved": "",
      "salt": "0x04dfb6adae094091e0984339a9b9d8c6bdcb5754e3ab896386b8a04f4945163c",
      "assetIds": []
    },
    {
      "x": 297,
      "y": 178,
      "size": 1,
      "price": "1011000000000000000000",
      "reserved": "",
      "salt": "0x0476886ddd936d60565be4fdeca5942b71aa9863dcd751b42a22a4779044c2c0",
      "assetIds": []
    },
    {
      "x": 297,
      "y": 179,
      "size": 1,
      "price": "1011000000000000000000",
      "reserved": "",
      "salt": "0x986e15e58af92d7664bde0f362db35fc01a06cde05424294a843e862b90332a3",
      "assetIds": []
    },
    {
      "x": 297,
      "y": 180,
      "size": 1,
      "price": "1011000000000000000000",
      "reserved": "",
      "salt": "0xfe330d6cf249857d2b0576170b2de283968224e0093e7060253c8f4086178473",
      "assetIds": []
    },
    {
      "x": 297,
      "y": 181,
      "size": 1,
      "price": "1011000000000000000000",
      "reserved": "",
      "salt": "0xfedb6c0cee33778b1d9de18307e6785dfe1d5367799fc8aa9dadc431b96bacd4",
      "assetIds": []
    },
    {
      "x": 297,
      "y": 182,
      "size": 1,
      "price": "1011000000000000000000",
      "reserved": "",
      "salt": "0x656d051fd1e22a9e438cca778c9b222fdb39514db1e94c4e2039767ecbe36e9b",
      "assetIds": []
    },
    {
      "x": 297,
      "y": 183,
      "size": 1,
      "price": "1011000000000000000000",
      "reserved": "",
      "salt": "0xad649fe793cb08607664e44432b8cca9870677c348e08e122d732b05aca27134",
      "assetIds": []
    },
    {
      "x": 297,
      "y": 184,
      "size": 1,
      "price": "1011000000000000000000",
      "reserved": "",
      "salt": "0x6ba82aacf17967ff3de2a927d373633709a4f3c5403afd150fe0396393390a84",
      "assetIds": []
    },
    {
      "x": 297,
      "y": 185,
      "size": 1,
      "price": "1011000000000000000000",
      "reserved": "",
      "salt": "0xf76a52a56b847ecbd432c7ceff1cfd661d25ba79f6ea66d5d74880abfbc60f74",
      "assetIds": []
    },
    {
      "x": 297,
      "y": 186,
      "size": 1,
      "price": "1011000000000000000000",
      "reserved": "",
      "salt": "0x7c297975af2ad3ef6d875b5bb1fed84a3aa364eb9ba05077cafa857c19577262",
      "assetIds": []
    },
    {
      "x": 297,
      "y": 187,
      "size": 1,
      "price": "1011000000000000000000",
      "reserved": "",
      "salt": "0x8e5e3686272d6fc60c8a9874d95901d0b5ea2a15ca7b08a4943cec9d1080d717",
      "assetIds": []
    },
    {
      "x": 298,
      "y": 162,
      "size": 1,
      "price": "1011000000000000000000",
      "reserved": "",
      "salt": "0xa21ed5e7df0eef12263b3a08e742ba9475fa492c254a0a8b4a3d9e5f53a010fa",
      "assetIds": []
    },
    {
      "x": 298,
      "y": 163,
      "size": 1,
      "price": "4683000000000000000000",
      "reserved": "",
      "salt": "0x6ece31a348d183f4063b29dc888e37b40d1b4c5718e0e3ca8acef86a1f32dee2",
      "assetIds": [
        "41506478881403507969696680653240014914910929820314476107906210059990541021189"
      ]
    },
    {
      "x": 298,
      "y": 164,
      "size": 1,
      "price": "4683000000000000000000",
      "reserved": "",
      "salt": "0x58517dac3bde52d4521a6191178e5ca46571fa3b0b167547c7c80db3687ab826",
      "assetIds": [
        "41506478881403507969696680653240014914910929820314476107906210059990541021189"
      ]
    },
    {
      "x": 298,
      "y": 165,
      "size": 1,
      "price": "4683000000000000000000",
      "reserved": "",
      "salt": "0x5a13628516bccb6c30ad9a20d494a78ea4be6a4fb047347229571158696ab2b3",
      "assetIds": [
        "41506478881403507969696680653240014914910929820314476107906210059990541021189"
      ]
    },
    {
      "x": 298,
      "y": 166,
      "size": 1,
      "price": "4683000000000000000000",
      "reserved": "",
      "salt": "0x9fccd196a9a641f4393d49d53b15d72598e6b7bf1183efb8df0c972bd5812bd4",
      "assetIds": [
        "41506478881403507969696680653240014914910929820314476107906210059990541021189"
      ]
    },
    {
      "x": 298,
      "y": 167,
      "size": 1,
      "price": "4683000000000000000000",
      "reserved": "",
      "salt": "0x571e2df5418b63cf0db0fb96fba0937e5c55855475973c19d05ffa05e952d260",
      "assetIds": [
        "41506478881403507969696680653240014914910929820314476107906210059990541021189"
      ]
    },
    {
      "x": 298,
      "y": 174,
      "size": 1,
      "price": "4683000000000000000000",
      "reserved": "",
      "salt": "0x40c1b5d5564f505d60b39500e651de855414feba730caed6d8bc74205f3b3386",
      "assetIds": [
        "41506478881403507969696680653240014914910929820314476107906210059990541021189"
      ]
    },
    {
      "x": 298,
      "y": 175,
      "size": 1,
      "price": "1011000000000000000000",
      "reserved": "",
      "salt": "0xcf950bc175c7a5b9561ccf674c5bde78713162f32f7b366abdeb43cf5b7fc62f",
      "assetIds": []
    },
    {
      "x": 298,
      "y": 176,
      "size": 1,
      "price": "1011000000000000000000",
      "reserved": "",
      "salt": "0x5ff1c5217e7379b95d5baceb3981b20793bb0972b9d8c017a8cf743e75486e69",
      "assetIds": []
    },
    {
      "x": 298,
      "y": 177,
      "size": 1,
      "price": "1011000000000000000000",
      "reserved": "",
      "salt": "0x5c366e8d7a9408c35dd2fce23e8ed6211eef6f8f9446d71a396f4da3f2f47886",
      "assetIds": []
    },
    {
      "x": 298,
      "y": 178,
      "size": 1,
      "price": "1011000000000000000000",
      "reserved": "",
      "salt": "0x7de00cbb6ab482fc7adc945592bcd1123b21164f2735fc87fa7df0c2316259c4",
      "assetIds": []
    },
    {
      "x": 298,
      "y": 179,
      "size": 1,
      "price": "1011000000000000000000",
      "reserved": "",
      "salt": "0x23385aa092294cb22dad1a22d25f3a25a9ce1f6bafe0f36a2ca08b1f90ec5897",
      "assetIds": []
    },
    {
      "x": 298,
      "y": 180,
      "size": 1,
      "price": "1011000000000000000000",
      "reserved": "",
      "salt": "0xf9f0ce6e3bd75a65a6409d4c6986ce8aed9b11b39a3ebc7557a1ab5e05ccbea8",
      "assetIds": []
    },
    {
      "x": 298,
      "y": 181,
      "size": 1,
      "price": "1011000000000000000000",
      "reserved": "",
      "salt": "0x8bfd9f8e03aa6710bed6aa513a51f5d3df49600c4abcd7374d22d2770df777e9",
      "assetIds": []
    },
    {
      "x": 298,
      "y": 182,
      "size": 1,
      "price": "1011000000000000000000",
      "reserved": "",
      "salt": "0xcbea0a624907b4ad154ce7006d398d90b2da1222678f9811deec88f8177ca062",
      "assetIds": []
    },
    {
      "x": 298,
      "y": 183,
      "size": 1,
      "price": "1011000000000000000000",
      "reserved": "",
      "salt": "0xc3c4ffeacba20eade2a3be5da5305db491a8c3983fb27c4bb284f446b83a7d1a",
      "assetIds": []
    },
    {
      "x": 298,
      "y": 184,
      "size": 1,
      "price": "1011000000000000000000",
      "reserved": "",
      "salt": "0x37fd39d2ee3bad3274eadaa9e5720ad7d0f67ffc8b789d22f984752c90272584",
      "assetIds": []
    },
    {
      "x": 298,
      "y": 185,
      "size": 1,
      "price": "1011000000000000000000",
      "reserved": "",
      "salt": "0x501bd69f470c905204e2961cb81b1116b4b3f638cd61708d8e33e4c148217116",
      "assetIds": []
    },
    {
      "x": 298,
      "y": 186,
      "size": 1,
      "price": "1011000000000000000000",
      "reserved": "",
      "salt": "0x9574f595dbbff0abec84174370be05a3d9884709a719dd0d3d149652d1db398d",
      "assetIds": []
    },
    {
      "x": 298,
      "y": 187,
      "size": 1,
      "price": "1011000000000000000000",
      "reserved": "",
      "salt": "0xce0cd4cadb125ba7546933e2028d082904a06fe6ff61f5ae98c9e53c229afe39",
      "assetIds": []
    },
    {
      "x": 299,
      "y": 162,
      "size": 1,
      "price": "1011000000000000000000",
      "reserved": "",
      "salt": "0xb71cc8b172fa61c8b7d0c92ad0fee626f185cdc107445025eea901373e735472",
      "assetIds": []
    },
    {
      "x": 299,
      "y": 163,
      "size": 1,
      "price": "4683000000000000000000",
      "reserved": "",
      "salt": "0xec45f8bb9605286d946382a6a2e8a852498be7d168a8af3f8331f7136e3fa518",
      "assetIds": [
        "41506478881403507969696680653240014914910929820314476107906210059990541021189"
      ]
    },
    {
      "x": 299,
      "y": 164,
      "size": 1,
      "price": "4683000000000000000000",
      "reserved": "",
      "salt": "0x8ed0772e2fc38489e9fd3db55fb89bea227be3c45091259ff5cbf19ce814c8f6",
      "assetIds": [
        "41506478881403507969696680653240014914910929820314476107906210059990541021189"
      ]
    },
    {
      "x": 299,
      "y": 165,
      "size": 1,
      "price": "4683000000000000000000",
      "reserved": "",
      "salt": "0x7b9d44857373a85bfe0df0ec7733d286bf5fb4982ff7a880c36a2e7a2d78c673",
      "assetIds": [
        "41506478881403507969696680653240014914910929820314476107906210059990541021189"
      ]
    },
    {
      "x": 299,
      "y": 166,
      "size": 1,
      "price": "4683000000000000000000",
      "reserved": "",
      "salt": "0x0d3a48d035238ef3e4d0bd74872960c3e2c27b9ebf21cdd06e3804d87f3c4f95",
      "assetIds": [
        "41506478881403507969696680653240014914910929820314476107906210059990541021189"
      ]
    },
    {
      "x": 299,
      "y": 167,
      "size": 1,
      "price": "4683000000000000000000",
      "reserved": "",
      "salt": "0x512f60bb9c91786c00435051c2fc61bd761552e2e3dacca542fe32c6dd250af0",
      "assetIds": [
        "41506478881403507969696680653240014914910929820314476107906210059990541021189"
      ]
    },
    {
      "x": 299,
      "y": 174,
      "size": 1,
      "price": "4683000000000000000000",
      "reserved": "",
      "salt": "0xf799f15a52c33d730f22a060c05e92f151f79b63a713021932985dcd72b02564",
      "assetIds": [
        "41506478881403507969696680653240014914910929820314476107906210059990541021189"
      ]
    },
    {
      "x": 299,
      "y": 175,
      "size": 1,
      "price": "1011000000000000000000",
      "reserved": "",
      "salt": "0xb3cdfdff34678c42276b62bd92b0261b3d89a327b552885e1159f5893579b514",
      "assetIds": []
    },
    {
      "x": 299,
      "y": 176,
      "size": 1,
      "price": "1011000000000000000000",
      "reserved": "",
      "salt": "0x6ad8f8fcc8a3ac55b13ba9c7f826c69537919c0401e9c097a4648b33d0e7db45",
      "assetIds": []
    },
    {
      "x": 299,
      "y": 177,
      "size": 1,
      "price": "1011000000000000000000",
      "reserved": "",
      "salt": "0x56ec207ffa5031597eb663749fab4794d8840749f9f79f7bf10dc6ae4307c1fd",
      "assetIds": []
    },
    {
      "x": 299,
      "y": 178,
      "size": 1,
      "price": "1011000000000000000000",
      "reserved": "",
      "salt": "0xdd93bf2767796818acbf78562250eb5d19d1b2c975870692410956949fbc37a2",
      "assetIds": []
    },
    {
      "x": 299,
      "y": 179,
      "size": 1,
      "price": "1011000000000000000000",
      "reserved": "",
      "salt": "0x9bbdba3423f1b9492d51d49beced51ae9d33e20a731b63aecbaba427415456b4",
      "assetIds": []
    },
    {
      "x": 299,
      "y": 180,
      "size": 1,
      "price": "1011000000000000000000",
      "reserved": "",
      "salt": "0x471e32f554d358644fe0af25bc9fbb063c1a6a783a0d2bbf9264829f595abcd2",
      "assetIds": []
    },
    {
      "x": 299,
      "y": 181,
      "size": 1,
      "price": "1011000000000000000000",
      "reserved": "",
      "salt": "0xf36b716795b2a33d551e2561aa032b71e9ef1bf59a4169191a4801b337796e68",
      "assetIds": []
    },
    {
      "x": 299,
      "y": 182,
      "size": 1,
      "price": "1011000000000000000000",
      "reserved": "",
      "salt": "0x8fc3025731a3acd5a474dfde421cf0d637309aa9a6954af82d565d824ff958d3",
      "assetIds": []
    },
    {
      "x": 299,
      "y": 183,
      "size": 1,
      "price": "1011000000000000000000",
      "reserved": "",
      "salt": "0x6cf094d4c1a9b204e538abc5105c555ce0fc7835fd8972fe76fdb806c0975c2f",
      "assetIds": []
    },
    {
      "x": 299,
      "y": 184,
      "size": 1,
      "price": "1011000000000000000000",
      "reserved": "",
      "salt": "0x06adc4bdfe5ef1617f37652c77b09eea7be71e2959043e729cbf7778ee076f2d",
      "assetIds": []
    },
    {
      "x": 299,
      "y": 185,
      "size": 1,
      "price": "1011000000000000000000",
      "reserved": "",
      "salt": "0x18dd166ac8cab271678b28dae5b81ab6f28ae03f0c3e0f1b8e538809dadf4f01",
      "assetIds": []
    },
    {
      "x": 299,
      "y": 186,
      "size": 1,
      "price": "1011000000000000000000",
      "reserved": "",
      "salt": "0x809ac056ce86317258a2f93dc473e764e2972ff8720cb4c394140ed227e28a56",
      "assetIds": []
    },
    {
      "x": 299,
      "y": 187,
      "size": 1,
      "price": "1011000000000000000000",
      "reserved": "",
      "salt": "0x1730d5ee649efcb699ca077ca0f3d04c5000de55a9bf594fa00246b5f14885db",
      "assetIds": []
    },
    {
      "x": 299,
      "y": 188,
      "size": 1,
      "price": "1011000000000000000000",
      "reserved": "",
      "salt": "0x38de4f322b42d725198e139b9c8d31cbb3b1731bde5d66c507621e94f2251bc5",
      "assetIds": []
    },
    {
      "x": 300,
      "y": 162,
      "size": 1,
      "price": "1011000000000000000000",
      "reserved": "",
      "salt": "0x6750f047e7e17482dfa49c310a4942759c76a0a752d0ad74c2e2370732472c5b",
      "assetIds": []
    },
    {
      "x": 300,
      "y": 163,
      "size": 1,
      "price": "4683000000000000000000",
      "reserved": "",
      "salt": "0x36b5a6ca798d2eb71e4f412a26d87b9ee1285ee0f8f8775dfa8eff6788d6720a",
      "assetIds": [
        "41506478881403507969696680653240014914910929820314476107906210059990541021189"
      ]
    },
    {
      "x": 300,
      "y": 164,
      "size": 1,
      "price": "4683000000000000000000",
      "reserved": "",
      "salt": "0x8a25e609e3a8ae57e0c298c8c767e863a05499bafe9d4d520c4dd17cc43aaa2e",
      "assetIds": [
        "41506478881403507969696680653240014914910929820314476107906210059990541021189"
      ]
    },
    {
      "x": 300,
      "y": 165,
      "size": 1,
      "price": "4683000000000000000000",
      "reserved": "",
      "salt": "0xb125f2d5b17d63970037b8140f3c1f82b756275b871f726b20b94fa6065d7459",
      "assetIds": [
        "41506478881403507969696680653240014914910929820314476107906210059990541021189"
      ]
    },
    {
      "x": 300,
      "y": 166,
      "size": 1,
      "price": "4683000000000000000000",
      "reserved": "",
      "salt": "0xc0cdf8ab9167179ec37f1c1bc9b06ba2a549d7937fcb7176cd85dd572c251ae8",
      "assetIds": [
        "41506478881403507969696680653240014914910929820314476107906210059990541021189"
      ]
    },
    {
      "x": 300,
      "y": 167,
      "size": 1,
      "price": "4683000000000000000000",
      "reserved": "",
      "salt": "0x385d94b660c3c6702e705743d557d296562280fa887db247a54730b16ae8efaf",
      "assetIds": [
        "41506478881403507969696680653240014914910929820314476107906210059990541021189"
      ]
    },
    {
      "x": 300,
      "y": 171,
      "size": 1,
      "price": "4683000000000000000000",
      "reserved": "",
      "salt": "0x761644469d9f42f455f0ae70ae76bd900075db4e9696ef3e35ae4e801e25af61",
      "assetIds": [
        "41506478881403507969696680653240014914910929820314476107906210059990541021189"
      ]
    },
    {
      "x": 300,
      "y": 172,
      "size": 1,
      "price": "4683000000000000000000",
      "reserved": "",
      "salt": "0xc0355aabd380a0b91f0e5485ddbb087cea27f9b91c13e8acd6fd7bc6440c7128",
      "assetIds": [
        "41506478881403507969696680653240014914910929820314476107906210059990541021189"
      ]
    },
    {
      "x": 300,
      "y": 173,
      "size": 1,
      "price": "4683000000000000000000",
      "reserved": "",
      "salt": "0xc134de5da3e69cf3f0bf6a54672d70009955661bee82907351fb76652b2470ce",
      "assetIds": [
        "41506478881403507969696680653240014914910929820314476107906210059990541021189"
      ]
    },
    {
      "x": 300,
      "y": 174,
      "size": 1,
      "price": "4683000000000000000000",
      "reserved": "",
      "salt": "0x38b9ebd9c3956c660530349cbeda50de80876361a3c83185d1bb9ce80c3a1413",
      "assetIds": [
        "41506478881403507969696680653240014914910929820314476107906210059990541021189"
      ]
    },
    {
      "x": 300,
      "y": 175,
      "size": 1,
      "price": "4683000000000000000000",
      "reserved": "",
      "salt": "0x302dbcf935c135c5891b0048194b5973e1c3646ffa33a88c86ee3270a0fccada",
      "assetIds": [
        "41506478881403507969696680653240014914910929820314476107906210059990541021189"
      ]
    },
    {
      "x": 300,
      "y": 176,
      "size": 1,
      "price": "1011000000000000000000",
      "reserved": "",
      "salt": "0xfa67f51c307688c04a40728fff0a615b3e74a2d5664be5a070f7f7aa5473ca0b",
      "assetIds": []
    },
    {
      "x": 300,
      "y": 177,
      "size": 1,
      "price": "1011000000000000000000",
      "reserved": "",
      "salt": "0xbfc33329500295cf5f80ae907fb48f051bddece656468b5612d2249d867028cb",
      "assetIds": []
    },
    {
      "x": 300,
      "y": 178,
      "size": 1,
      "price": "1011000000000000000000",
      "reserved": "",
      "salt": "0xa4caf7969872da6e73fe18c38b67444242ccb7174a6e694cde28b452046bd29b",
      "assetIds": []
    },
    {
      "x": 300,
      "y": 179,
      "size": 1,
      "price": "1011000000000000000000",
      "reserved": "",
      "salt": "0x3d589e6d1fb6842ff8d97f2c5578e7a4c8cb0a721a64172487ce2e08eeed8f11",
      "assetIds": []
    },
    {
      "x": 300,
      "y": 183,
      "size": 1,
      "price": "1011000000000000000000",
      "reserved": "",
      "salt": "0x7270a1e0a9c4f3ce221255ebcd2dd34fd4658682e50d4c71fb44100cccc1ffd6",
      "assetIds": []
    },
    {
      "x": 300,
      "y": 184,
      "size": 1,
      "price": "1011000000000000000000",
      "reserved": "",
      "salt": "0x75a60ae2d4fc1cfe465758ef3c309194e65371c8749a0c1c00b30171828516aa",
      "assetIds": []
    },
    {
      "x": 300,
      "y": 185,
      "size": 1,
      "price": "1011000000000000000000",
      "reserved": "",
      "salt": "0xe913d78c46d063279925c318015660b7e3322d5e39de8ac7f009241f29e715f9",
      "assetIds": []
    },
    {
      "x": 300,
      "y": 186,
      "size": 1,
      "price": "1011000000000000000000",
      "reserved": "",
      "salt": "0x6707cc5630076aa5fb4c3a5c36fa99aa93dba4797321542a23bdc20e6e6c9f42",
      "assetIds": []
    },
    {
      "x": 300,
      "y": 187,
      "size": 1,
      "price": "1011000000000000000000",
      "reserved": "",
      "salt": "0xebfbbbb1447d1f26600a959dd86317d87909884fec7bb4859f2c1e38c14f2233",
      "assetIds": []
    },
    {
      "x": 300,
      "y": 188,
      "size": 1,
      "price": "1011000000000000000000",
      "reserved": "",
      "salt": "0x14b6b141d25445131997821c3fd51404391d8352f658fac14bd0b16d0cc92aea",
      "assetIds": []
    },
    {
      "x": 301,
      "y": 162,
      "size": 1,
      "price": "1011000000000000000000",
      "reserved": "",
      "salt": "0x053a07815117d06fab7b680de5ea4f00c463d923f96e84cd4d271956c3f01b67",
      "assetIds": []
    },
    {
      "x": 301,
      "y": 163,
      "size": 1,
      "price": "4683000000000000000000",
      "reserved": "",
      "salt": "0x5be01927074f6771e14edbf2864009e73157fc62639e38d1932709eac43316df",
      "assetIds": [
        "41506478881403507969696680653240014914910929820314476107906210059990541021189"
      ]
    },
    {
      "x": 301,
      "y": 164,
      "size": 1,
      "price": "4683000000000000000000",
      "reserved": "",
      "salt": "0x5bbcc26b400eebd1067a3ed1d83203f050f7e7afe0779570855250b3d334fd42",
      "assetIds": [
        "41506478881403507969696680653240014914910929820314476107906210059990541021189"
      ]
    },
    {
      "x": 301,
      "y": 165,
      "size": 1,
      "price": "4683000000000000000000",
      "reserved": "",
      "salt": "0xb96f014af0bf220b5de1fd8c39064cfdb3666a78de92c05b038578e05d4a2683",
      "assetIds": [
        "41506478881403507969696680653240014914910929820314476107906210059990541021189"
      ]
    },
    {
      "x": 301,
      "y": 166,
      "size": 1,
      "price": "4683000000000000000000",
      "reserved": "",
      "salt": "0x72df9d0df4a815ec6874bc8dea9377728d070ec3ccd8683452673ff11e95cc8f",
      "assetIds": [
        "41506478881403507969696680653240014914910929820314476107906210059990541021189"
      ]
    },
    {
      "x": 301,
      "y": 167,
      "size": 1,
      "price": "4683000000000000000000",
      "reserved": "",
      "salt": "0x5c30be1d53c73b0fe2ec66b2498c249fbebb27ed1194281df0efdcaa1d555df8",
      "assetIds": [
        "41506478881403507969696680653240014914910929820314476107906210059990541021189"
      ]
    },
    {
      "x": 301,
      "y": 171,
      "size": 1,
      "price": "4683000000000000000000",
      "reserved": "",
      "salt": "0xb984fb2f5cfe6dfe985312bcd5d3daed2ef87e2f3ccfa3ac0394daa3415c15ae",
      "assetIds": [
        "41506478881403507969696680653240014914910929820314476107906210059990541021189"
      ]
    },
    {
      "x": 301,
      "y": 172,
      "size": 1,
      "price": "4683000000000000000000",
      "reserved": "",
      "salt": "0x1e6455a49c21de48a4075b7aa0fe65e128d63b64af711160140140bbfb8f52ce",
      "assetIds": [
        "41506478881403507969696680653240014914910929820314476107906210059990541021189"
      ]
    },
    {
      "x": 301,
      "y": 173,
      "size": 1,
      "price": "4683000000000000000000",
      "reserved": "",
      "salt": "0xda7c23dc2a7f89262ffd696fbf9495fe7e73fa48a2fb4c1dc85bfc4ae96a8660",
      "assetIds": [
        "41506478881403507969696680653240014914910929820314476107906210059990541021189"
      ]
    },
    {
      "x": 301,
      "y": 174,
      "size": 1,
      "price": "4683000000000000000000",
      "reserved": "",
      "salt": "0x7445a5dc67bd742e7ed39333eda2a0b73c24d36bfc105c7f0004fd21d56e86ac",
      "assetIds": [
        "41506478881403507969696680653240014914910929820314476107906210059990541021189"
      ]
    },
    {
      "x": 301,
      "y": 175,
      "size": 1,
      "price": "4683000000000000000000",
      "reserved": "",
      "salt": "0x1d50c18d5af1ffda26dd5a6b7014cd8fccbed7fe3a592d7494488aca9d11320f",
      "assetIds": [
        "41506478881403507969696680653240014914910929820314476107906210059990541021189"
      ]
    },
    {
      "x": 301,
      "y": 176,
      "size": 1,
      "price": "1011000000000000000000",
      "reserved": "",
      "salt": "0xfcac69bc1ed07d09e31d0aaa4d23215edad7737c70f179182774c7f92b49e144",
      "assetIds": []
    },
    {
      "x": 301,
      "y": 177,
      "size": 1,
      "price": "1011000000000000000000",
      "reserved": "",
      "salt": "0xe4b3c9ed51368b27d710a7fd534faab3e7152585882b5814c81a849b92f8e31e",
      "assetIds": []
    },
    {
      "x": 301,
      "y": 178,
      "size": 1,
      "price": "1011000000000000000000",
      "reserved": "",
      "salt": "0x942ae9b3a8824227c8f1ed159597f5c3831d207dcbc3485302c333b16a9270c2",
      "assetIds": []
    },
    {
      "x": 301,
      "y": 179,
      "size": 1,
      "price": "1011000000000000000000",
      "reserved": "",
      "salt": "0x498e85521c73eeaaf2122b38f486ddb24bb07f1da4d1ab0a9b7af5955c93e23b",
      "assetIds": []
    },
    {
      "x": 301,
      "y": 183,
      "size": 1,
      "price": "1011000000000000000000",
      "reserved": "",
      "salt": "0x8885b3dff1048a4228b1aab62cbc7a691f60f18f042246dbf8add51bc8b251e5",
      "assetIds": []
    },
    {
      "x": 301,
      "y": 184,
      "size": 1,
      "price": "1011000000000000000000",
      "reserved": "",
      "salt": "0x81afbec3cf0fc053403d5f811accba2c45b8014d2867d328d37cf98fe70d2ebb",
      "assetIds": []
    },
    {
      "x": 301,
      "y": 185,
      "size": 1,
      "price": "1011000000000000000000",
      "reserved": "",
      "salt": "0xc194b9bfbb0a05825e37c1b0e70052145a50df7896a420a53004ad8b99993540",
      "assetIds": []
    },
    {
      "x": 301,
      "y": 186,
      "size": 1,
      "price": "1011000000000000000000",
      "reserved": "",
      "salt": "0x3e08df4253552d8d7be0ead903056d8eeb57952e953455c6cfdf90afac1cb49d",
      "assetIds": []
    },
    {
      "x": 301,
      "y": 187,
      "size": 1,
      "price": "1011000000000000000000",
      "reserved": "",
      "salt": "0x0dc513e15b880464503c77a8119a76b7491b97e69eddc6bfcca00dbe6e2da735",
      "assetIds": []
    },
    {
      "x": 301,
      "y": 188,
      "size": 1,
      "price": "1011000000000000000000",
      "reserved": "",
      "salt": "0x298352fa232752510811391a46a2b2a6887794ba03ece87f65543b6b06f47236",
      "assetIds": []
    },
    {
      "x": 302,
      "y": 162,
      "size": 1,
      "price": "1011000000000000000000",
      "reserved": "",
      "salt": "0xf7eb721770ea343c6869400a3e44aab8bf820f4d618343bfb8bfa96e16332fb9",
      "assetIds": []
    },
    {
      "x": 302,
      "y": 163,
      "size": 1,
      "price": "4683000000000000000000",
      "reserved": "",
      "salt": "0x7ebfd9a9ec04e49d531c965c2c179f7d0fbd5a881867c5a5a5a0fa03612689ad",
      "assetIds": [
        "41506478881403507969696680653240014914910929820314476107906210059990541021189"
      ]
    },
    {
      "x": 302,
      "y": 164,
      "size": 1,
      "price": "4683000000000000000000",
      "reserved": "",
      "salt": "0x88d69786b2e5d4efab2e17e1dfa565e78a3aa6c3738459e1b359102398452daa",
      "assetIds": [
        "41506478881403507969696680653240014914910929820314476107906210059990541021189"
      ]
    },
    {
      "x": 302,
      "y": 165,
      "size": 1,
      "price": "4683000000000000000000",
      "reserved": "",
      "salt": "0x53aaffe521d42c88147300af1b5f3bdec59938907f5d1932feb59f28a7626155",
      "assetIds": [
        "41506478881403507969696680653240014914910929820314476107906210059990541021189"
      ]
    },
    {
      "x": 302,
      "y": 166,
      "size": 1,
      "price": "4683000000000000000000",
      "reserved": "",
      "salt": "0x7e6b2b989d6405c59d05d545120bb22edcf4be3cf06eab2d858e711ea93d23b2",
      "assetIds": [
        "41506478881403507969696680653240014914910929820314476107906210059990541021189"
      ]
    },
    {
      "x": 302,
      "y": 167,
      "size": 1,
      "price": "4683000000000000000000",
      "reserved": "",
      "salt": "0xe984a572a62f6a0484af7da28e5aacbde2e61036fdfbe65a50c80b97160603b7",
      "assetIds": [
        "41506478881403507969696680653240014914910929820314476107906210059990541021189"
      ]
    },
    {
      "x": 302,
      "y": 171,
      "size": 1,
      "price": "4683000000000000000000",
      "reserved": "",
      "salt": "0x979011a3894d6080ca917b8fc6177c9aa98baba53071e1a60723d9461e0bbe11",
      "assetIds": [
        "41506478881403507969696680653240014914910929820314476107906210059990541021189"
      ]
    },
    {
      "x": 302,
      "y": 172,
      "size": 1,
      "price": "4683000000000000000000",
      "reserved": "",
      "salt": "0xd57fc33cc386f994fc0411d21f9c5ec004231aa46c883f68b178c3e426a8aae0",
      "assetIds": [
        "41506478881403507969696680653240014914910929820314476107906210059990541021189"
      ]
    },
    {
      "x": 302,
      "y": 173,
      "size": 1,
      "price": "4683000000000000000000",
      "reserved": "",
      "salt": "0x491bf3111447320df055ed1f41a8f95b32bbcecfcb8088823e5d2cf784b569c1",
      "assetIds": [
        "41506478881403507969696680653240014914910929820314476107906210059990541021189"
      ]
    },
    {
      "x": 302,
      "y": 174,
      "size": 1,
      "price": "4683000000000000000000",
      "reserved": "",
      "salt": "0xc2e8a2fcb7e935d51b7f9b1eaee7f4d87d9d2f4be4bc7e9ab3daa5e751280f52",
      "assetIds": [
        "41506478881403507969696680653240014914910929820314476107906210059990541021189"
      ]
    },
    {
      "x": 302,
      "y": 175,
      "size": 1,
      "price": "4683000000000000000000",
      "reserved": "",
      "salt": "0xff26e94723e2bc0bb20c54edb00b3d433abb24a273d9bff8e52f66caf4718123",
      "assetIds": [
        "41506478881403507969696680653240014914910929820314476107906210059990541021189"
      ]
    },
    {
      "x": 302,
      "y": 176,
      "size": 1,
      "price": "4683000000000000000000",
      "reserved": "",
      "salt": "0x186cfa9c2794788fa1db2a7e343a8c0b038f43564411309862d48089f8421dae",
      "assetIds": [
        "41506478881403507969696680653240014914910929820314476107906210059990541021189"
      ]
    },
    {
      "x": 302,
      "y": 177,
      "size": 1,
      "price": "1011000000000000000000",
      "reserved": "",
      "salt": "0x70a6700ea678f335b288391c3d0732aa4e193a1d30e5a95ebeb1d431a39ffed7",
      "assetIds": []
    },
    {
      "x": 302,
      "y": 178,
      "size": 1,
      "price": "1011000000000000000000",
      "reserved": "",
      "salt": "0xf796565dcd9f8fa5b11d3c460c06e2bd96a212577d7c55c33984db3f96189275",
      "assetIds": []
    },
    {
      "x": 302,
      "y": 179,
      "size": 1,
      "price": "1011000000000000000000",
      "reserved": "",
      "salt": "0x7487007a74a67956ec6c7a8ba364632e8faac19c068c18b18b055a77a07860cf",
      "assetIds": []
    },
    {
      "x": 302,
      "y": 183,
      "size": 1,
      "price": "1011000000000000000000",
      "reserved": "",
      "salt": "0xf17706735b23f4c22e63a3b533ab973130fbb3aad84b08777cd0c31179d7f918",
      "assetIds": []
    },
    {
      "x": 302,
      "y": 184,
      "size": 1,
      "price": "1011000000000000000000",
      "reserved": "",
      "salt": "0x9827ca3fdd93f056f1617eaa64b3542582f3d7622c39a40d5d48948bd933312f",
      "assetIds": []
    },
    {
      "x": 302,
      "y": 185,
      "size": 1,
      "price": "1011000000000000000000",
      "reserved": "",
      "salt": "0x6dcc2c44a2dfde9e3d6957714dfcc19510735d37c3e21b6a7bf5cfee1bde76d5",
      "assetIds": []
    },
    {
      "x": 302,
      "y": 186,
      "size": 1,
      "price": "1011000000000000000000",
      "reserved": "",
      "salt": "0xda11d0403350e6b5d57a09dff1272e46fec8d6d6524faf9beea38915d1b04573",
      "assetIds": []
    },
    {
      "x": 302,
      "y": 187,
      "size": 1,
      "price": "1011000000000000000000",
      "reserved": "",
      "salt": "0xcf9c902a5a116eb6a8f83a5f0d69bac98c2217c37a51185bc0e33cdb6ec19339",
      "assetIds": []
    },
    {
      "x": 302,
      "y": 188,
      "size": 1,
      "price": "1011000000000000000000",
      "reserved": "",
      "salt": "0x3318906a70baa029b019b40972ee88622d91c024212d78988ee8a75ec5575e77",
      "assetIds": []
    },
    {
      "x": 303,
      "y": 162,
      "size": 1,
      "price": "1011000000000000000000",
      "reserved": "",
      "salt": "0xf53843f2c5d270374dd01d459fd7d09ec1a255bc8a2499881a53321d28c8f8d2",
      "assetIds": []
    },
    {
      "x": 303,
      "y": 163,
      "size": 1,
      "price": "4683000000000000000000",
      "reserved": "",
      "salt": "0x128811be758d5e49bd58a98e8a5f97320e8d467605c6e72ca50c870bf9f60238",
      "assetIds": [
        "41506478881403507969696680653240014914910929820314476107906210059990541021189"
      ]
    },
    {
      "x": 303,
      "y": 164,
      "size": 1,
      "price": "4683000000000000000000",
      "reserved": "",
      "salt": "0xe28dae113ab8a5ba603d0b04e3db15316de1e935f09d90be753ebb654ec03f11",
      "assetIds": [
        "41506478881403507969696680653240014914910929820314476107906210059990541021189"
      ]
    },
    {
      "x": 303,
      "y": 165,
      "size": 1,
      "price": "4683000000000000000000",
      "reserved": "",
      "salt": "0x459c296e2e78237ed826c7ef9f22fab05446da67d6888f8a46202a64bbef592a",
      "assetIds": [
        "41506478881403507969696680653240014914910929820314476107906210059990541021189"
      ]
    },
    {
      "x": 303,
      "y": 166,
      "size": 1,
      "price": "4683000000000000000000",
      "reserved": "",
      "salt": "0x17618b395802b4953e37987526fad87bd0e0b1adad54900ee646bfcd072c7f0d",
      "assetIds": [
        "41506478881403507969696680653240014914910929820314476107906210059990541021189"
      ]
    },
    {
      "x": 303,
      "y": 167,
      "size": 1,
      "price": "4683000000000000000000",
      "reserved": "",
      "salt": "0xed4f3cf7607fe4109dae2a765dfe9fbfffae9e8a8ab17c814ed058d79070633b",
      "assetIds": [
        "41506478881403507969696680653240014914910929820314476107906210059990541021189"
      ]
    },
    {
      "x": 303,
      "y": 168,
      "size": 1,
      "price": "4683000000000000000000",
      "reserved": "",
      "salt": "0x95a1c9a0c146c6489260f0f47c1f39d36dc952b49436bb31296d556393962b6d",
      "assetIds": [
        "41506478881403507969696680653240014914910929820314476107906210059990541021189"
      ]
    },
    {
      "x": 303,
      "y": 169,
      "size": 1,
      "price": "4683000000000000000000",
      "reserved": "",
      "salt": "0x621431a99808eace3719271a758fd3a56d6ca5e1443735b84e9d5e3f9ad796c3",
      "assetIds": [
        "41506478881403507969696680653240014914910929820314476107906210059990541021189"
      ]
    },
    {
      "x": 303,
      "y": 170,
      "size": 1,
      "price": "4683000000000000000000",
      "reserved": "",
      "salt": "0xcf90942bb676d3c5c106357e4080e577774d204c26f443c71dd435b9a251c3bb",
      "assetIds": [
        "41506478881403507969696680653240014914910929820314476107906210059990541021189"
      ]
    },
    {
      "x": 303,
      "y": 171,
      "size": 1,
      "price": "4683000000000000000000",
      "reserved": "",
      "salt": "0x61dfda6d3752b2253826cadb2f23a051742b16da80a6fe61f8bfe245ff370f4b",
      "assetIds": [
        "41506478881403507969696680653240014914910929820314476107906210059990541021189"
      ]
    },
    {
      "x": 303,
      "y": 172,
      "size": 1,
      "price": "4683000000000000000000",
      "reserved": "",
      "salt": "0xde51ba76889de4dd79b154a5ac1e50fdef3088765dadef6e92d342424117c6b2",
      "assetIds": [
        "41506478881403507969696680653240014914910929820314476107906210059990541021189"
      ]
    },
    {
      "x": 303,
      "y": 173,
      "size": 1,
      "price": "4683000000000000000000",
      "reserved": "",
      "salt": "0x0d13bcab1ee5d60953006d572b5309deb5907f3893621551fa97b62fdd30ce97",
      "assetIds": [
        "41506478881403507969696680653240014914910929820314476107906210059990541021189"
      ]
    },
    {
      "x": 303,
      "y": 174,
      "size": 1,
      "price": "4683000000000000000000",
      "reserved": "",
      "salt": "0x6c12efbb58691e975be1ee21b99fb225329ebbde4c6da1b3e643a82354f48e6d",
      "assetIds": [
        "41506478881403507969696680653240014914910929820314476107906210059990541021189"
      ]
    },
    {
      "x": 303,
      "y": 175,
      "size": 1,
      "price": "4683000000000000000000",
      "reserved": "",
      "salt": "0x969bc7e91f646f70b06f2a7058aba7764cf5bec9d9fe630e134390bc47079482",
      "assetIds": [
        "41506478881403507969696680653240014914910929820314476107906210059990541021189"
      ]
    },
    {
      "x": 303,
      "y": 176,
      "size": 1,
      "price": "4683000000000000000000",
      "reserved": "",
      "salt": "0x7802ab8354200cfce4d74934bbc48f3b3ec3306e17403a1e8c9687a07e62ff09",
      "assetIds": [
        "41506478881403507969696680653240014914910929820314476107906210059990541021189"
      ]
    },
    {
      "x": 303,
      "y": 183,
      "size": 1,
      "price": "1011000000000000000000",
      "reserved": "",
      "salt": "0xe4120d0ca6423c496488a09d6eb8b0a4d218d15044b9c3d240702e6fbd97453c",
      "assetIds": []
    },
    {
      "x": 303,
      "y": 184,
      "size": 1,
      "price": "1011000000000000000000",
      "reserved": "",
      "salt": "0x384b5a2b7c18d3aaade2dfa0d9cde2d57fe794f5d88c6a1ba3df12a5b9cd236e",
      "assetIds": []
    },
    {
      "x": 303,
      "y": 185,
      "size": 1,
      "price": "1011000000000000000000",
      "reserved": "",
      "salt": "0x65c32bf099872c10d2fe29865d5eefed5706fa526980e63455da82d5998705f3",
      "assetIds": []
    },
    {
      "x": 303,
      "y": 186,
      "size": 1,
      "price": "1011000000000000000000",
      "reserved": "",
      "salt": "0x2d4056b57ec23984c07b40742d7b60f1da6fb32d27927f3fa21229b4480b1f3c",
      "assetIds": []
    },
    {
      "x": 303,
      "y": 187,
      "size": 1,
      "price": "1011000000000000000000",
      "reserved": "",
      "salt": "0x0d9a54255c3ae4983730384e786bc411628bd9b0a63e092265569ad395296524",
      "assetIds": []
    },
    {
      "x": 303,
      "y": 188,
      "size": 1,
      "price": "1011000000000000000000",
      "reserved": "",
      "salt": "0x487a2d52a6a46ac1e609470f16223491786c2c7ba57aa3b8479f6ea95755ddcb",
      "assetIds": []
    },
    {
      "x": 304,
      "y": 162,
      "size": 1,
      "price": "1011000000000000000000",
      "reserved": "",
      "salt": "0xa338a965d438b868fdf04407d9bd169382f77b4dfc6df3a7877223e8a2022c02",
      "assetIds": []
    },
    {
      "x": 304,
      "y": 163,
      "size": 1,
      "price": "4683000000000000000000",
      "reserved": "",
      "salt": "0xb802c0b8fdedace8878c30a92368e63645a2773dde71742bef3d2e7e622f1f42",
      "assetIds": [
        "41506478881403507969696680653240014914910929820314476107906210059990541021189"
      ]
    },
    {
      "x": 304,
      "y": 164,
      "size": 1,
      "price": "4683000000000000000000",
      "reserved": "",
      "salt": "0x290cd7ddb2004a3f3982eb3a75c3f1d2c98886bb4f1195ec8ba29e0e8c7a0195",
      "assetIds": [
        "41506478881403507969696680653240014914910929820314476107906210059990541021189"
      ]
    },
    {
      "x": 304,
      "y": 165,
      "size": 1,
      "price": "4683000000000000000000",
      "reserved": "",
      "salt": "0x35207bb3afa118a5c2807c13ac74d2aab25c72a771858f17975c94a6c80bbf1f",
      "assetIds": [
        "41506478881403507969696680653240014914910929820314476107906210059990541021189"
      ]
    },
    {
      "x": 304,
      "y": 166,
      "size": 1,
      "price": "4683000000000000000000",
      "reserved": "",
      "salt": "0xf555974dbc84246261974d40a88cb14cf834374745a303580f0b7f18c178ab7e",
      "assetIds": [
        "41506478881403507969696680653240014914910929820314476107906210059990541021189"
      ]
    },
    {
      "x": 304,
      "y": 167,
      "size": 1,
      "price": "4683000000000000000000",
      "reserved": "",
      "salt": "0xa38403cf0afb27d82f550e7f025ba81f682be8eb7a9fee340dcaa662812ade19",
      "assetIds": [
        "41506478881403507969696680653240014914910929820314476107906210059990541021189"
      ]
    },
    {
      "x": 304,
      "y": 168,
      "size": 1,
      "price": "4683000000000000000000",
      "reserved": "",
      "salt": "0x7c1b0ba2717dfd26da9e2ea3952aed57a9400e724ef2dd48deccfd3afa27d95a",
      "assetIds": [
        "41506478881403507969696680653240014914910929820314476107906210059990541021189"
      ]
    },
    {
      "x": 304,
      "y": 169,
      "size": 1,
      "price": "4683000000000000000000",
      "reserved": "",
      "salt": "0x01c102099d567afd8273726a5a88b3395007344082f5d1a63b37caa182471da0",
      "assetIds": [
        "41506478881403507969696680653240014914910929820314476107906210059990541021189"
      ]
    },
    {
      "x": 304,
      "y": 170,
      "size": 1,
      "price": "4683000000000000000000",
      "reserved": "",
      "salt": "0x3db7f9cb45e4f3b711ef2bb515d491eb66ed80ea91fa6e508282067a725e97fe",
      "assetIds": [
        "41506478881403507969696680653240014914910929820314476107906210059990541021189"
      ]
    },
    {
      "x": 304,
      "y": 171,
      "size": 1,
      "price": "4683000000000000000000",
      "reserved": "",
      "salt": "0xbcad8505aa5625106466737bf5e358695e82fec9a6956e079122c911996d870a",
      "assetIds": [
        "41506478881403507969696680653240014914910929820314476107906210059990541021189"
      ]
    },
    {
      "x": 304,
      "y": 172,
      "size": 1,
      "price": "4683000000000000000000",
      "reserved": "",
      "salt": "0x4f524d75e1dbc8dba68223e8d33d1e0e6e6a72e3b588faf7a32bb7878a15239d",
      "assetIds": [
        "41506478881403507969696680653240014914910929820314476107906210059990541021189"
      ]
    },
    {
      "x": 304,
      "y": 173,
      "size": 1,
      "price": "4683000000000000000000",
      "reserved": "",
      "salt": "0x1b47d1c1bdf6d36d4dfaf3b63eae9f1d9e9d973dafb312a8a69ccaa08cbbae8c",
      "assetIds": [
        "41506478881403507969696680653240014914910929820314476107906210059990541021189"
      ]
    },
    {
      "x": 304,
      "y": 174,
      "size": 1,
      "price": "4683000000000000000000",
      "reserved": "",
      "salt": "0x926ec466d943d097a72408dc7fbcebf929c1ad7448cbbb649144a9ed5e3f596c",
      "assetIds": [
        "41506478881403507969696680653240014914910929820314476107906210059990541021189"
      ]
    },
    {
      "x": 304,
      "y": 175,
      "size": 1,
      "price": "4683000000000000000000",
      "reserved": "",
      "salt": "0xb378a5cb95efe304450ef613c1121546923a14e5ca6cb1eb531df2deac6e153b",
      "assetIds": [
        "41506478881403507969696680653240014914910929820314476107906210059990541021189"
      ]
    },
    {
      "x": 304,
      "y": 176,
      "size": 1,
      "price": "1011000000000000000000",
      "reserved": "",
      "salt": "0xf5f32735f15d21f3872378377f340136da68367dfc70e2048c03a51d985a836f",
      "assetIds": []
    },
    {
      "x": 304,
      "y": 183,
      "size": 1,
      "price": "1011000000000000000000",
      "reserved": "",
      "salt": "0x02bd3454ce05413c148905b472e46017ea02fa2d50778db19dc0f73af1900421",
      "assetIds": []
    },
    {
      "x": 304,
      "y": 184,
      "size": 1,
      "price": "1011000000000000000000",
      "reserved": "",
      "salt": "0xe7d0df11b0d6535a17b8c06b009495eb0def4dab16909d72e0d1c02dc7b2c69a",
      "assetIds": []
    },
    {
      "x": 304,
      "y": 185,
      "size": 1,
      "price": "1011000000000000000000",
      "reserved": "",
      "salt": "0x474a0d2942fc84b81332882fc580c185a263ffe5806946a6e448e581e0f363d1",
      "assetIds": []
    },
    {
      "x": 304,
      "y": 186,
      "size": 1,
      "price": "1011000000000000000000",
      "reserved": "",
      "salt": "0x84f11bb61a70fddb1d646437b9760ea48f8984ee73acd4be6e2aae51c73765a5",
      "assetIds": []
    },
    {
      "x": 304,
      "y": 187,
      "size": 1,
      "price": "1011000000000000000000",
      "reserved": "",
      "salt": "0x403f64be4554f79faa1dbf24aa5d8e8770c2f4699086e877da1a260ecc8e4a02",
      "assetIds": []
    },
    {
      "x": 304,
      "y": 188,
      "size": 1,
      "price": "1011000000000000000000",
      "reserved": "",
      "salt": "0x4b4ca75fc340df5adf7f54b2577e115ef47e7332e31a581bfc0a4ea9a5032da1",
      "assetIds": []
    },
    {
      "x": 305,
      "y": 162,
      "size": 1,
      "price": "1011000000000000000000",
      "reserved": "",
      "salt": "0xa8cac688d28cf02dc3fba2038ff34a0c869896e4eca03699656b3caac0ddc4df",
      "assetIds": []
    },
    {
      "x": 305,
      "y": 163,
      "size": 1,
      "price": "4683000000000000000000",
      "reserved": "",
      "salt": "0x43f110f16b0e9e7f8bbc99d25bcf55e6e0724ad5bd28583091b6bb27697bb9ff",
      "assetIds": [
        "41506478881403507969696680653240014914910929820314476107906210059990541021189"
      ]
    },
    {
      "x": 305,
      "y": 164,
      "size": 1,
      "price": "4683000000000000000000",
      "reserved": "",
      "salt": "0x270481d9280c88407e6b99f14b7745673ca0d3feadb3305cd48352b381529797",
      "assetIds": [
        "41506478881403507969696680653240014914910929820314476107906210059990541021189"
      ]
    },
    {
      "x": 305,
      "y": 165,
      "size": 1,
      "price": "4683000000000000000000",
      "reserved": "",
      "salt": "0xad7eae061e5e64cd5e90920150ce15c94bf135ec0cb460978f6c4c21dd679c2e",
      "assetIds": [
        "41506478881403507969696680653240014914910929820314476107906210059990541021189"
      ]
    },
    {
      "x": 305,
      "y": 166,
      "size": 1,
      "price": "4683000000000000000000",
      "reserved": "",
      "salt": "0x7da5130abc79f697db1c6f007423802f29ff8cdb0f978d9e4b489a8241b78e50",
      "assetIds": [
        "41506478881403507969696680653240014914910929820314476107906210059990541021189"
      ]
    },
    {
      "x": 305,
      "y": 167,
      "size": 1,
      "price": "4683000000000000000000",
      "reserved": "",
      "salt": "0x66edd88276845cd422a12df81522e94e8f32046191eebd3f06fe9eedfb4652be",
      "assetIds": [
        "41506478881403507969696680653240014914910929820314476107906210059990541021189"
      ]
    },
    {
      "x": 305,
      "y": 168,
      "size": 1,
      "price": "4683000000000000000000",
      "reserved": "",
      "salt": "0xe05d570ae563d11423f8e43190393d655ad2ecc116fdb6d061c66b367bbfdefc",
      "assetIds": [
        "41506478881403507969696680653240014914910929820314476107906210059990541021189"
      ]
    },
    {
      "x": 305,
      "y": 169,
      "size": 1,
      "price": "4683000000000000000000",
      "reserved": "",
      "salt": "0xb319e02c1d133ae0594df7bea65d216c5ec199ecfb8cb9c35ec7a56854466884",
      "assetIds": [
        "41506478881403507969696680653240014914910929820314476107906210059990541021189"
      ]
    },
    {
      "x": 305,
      "y": 170,
      "size": 1,
      "price": "4683000000000000000000",
      "reserved": "",
      "salt": "0xf210fc0214aec5f7f584e96dcf2b05cf785d78ace43e7cd257e69ef5c4a4947c",
      "assetIds": [
        "41506478881403507969696680653240014914910929820314476107906210059990541021189"
      ]
    },
    {
      "x": 305,
      "y": 171,
      "size": 1,
      "price": "4683000000000000000000",
      "reserved": "",
      "salt": "0xfd51f29b6d673dd47ac27d1a7e17ce8af70fed12275a22e340f4d34228af89e8",
      "assetIds": [
        "41506478881403507969696680653240014914910929820314476107906210059990541021189"
      ]
    },
    {
      "x": 305,
      "y": 172,
      "size": 1,
      "price": "4683000000000000000000",
      "reserved": "",
      "salt": "0x730a9e9e6f38219b3320e55a934d19c12af04c045b660e66c8d3232fdb70664b",
      "assetIds": [
        "41506478881403507969696680653240014914910929820314476107906210059990541021189"
      ]
    },
    {
      "x": 305,
      "y": 173,
      "size": 1,
      "price": "4683000000000000000000",
      "reserved": "",
      "salt": "0x28b1b8222718b32458d6842fb580addd6f37c1adf72451f5698d9ac211cb5bee",
      "assetIds": [
        "41506478881403507969696680653240014914910929820314476107906210059990541021189"
      ]
    },
    {
      "x": 305,
      "y": 174,
      "size": 1,
      "price": "4683000000000000000000",
      "reserved": "",
      "salt": "0x5f831711c50e953d340631affc2eece7b37954bb8829415752f444ed6f7777f1",
      "assetIds": [
        "41506478881403507969696680653240014914910929820314476107906210059990541021189"
      ]
    },
    {
      "x": 305,
      "y": 175,
      "size": 1,
      "price": "4683000000000000000000",
      "reserved": "",
      "salt": "0x098ddd3bd205f4242669e38fe684d384483060374b3dbcaad744e5d468a0e656",
      "assetIds": [
        "41506478881403507969696680653240014914910929820314476107906210059990541021189"
      ]
    },
    {
      "x": 305,
      "y": 176,
      "size": 1,
      "price": "1011000000000000000000",
      "reserved": "",
      "salt": "0xfedf9e473c42b39fc22eb294010cd8a2e25f978653d7555e8510efedf04eda9e",
      "assetIds": []
    },
    {
      "x": 305,
      "y": 183,
      "size": 1,
      "price": "1011000000000000000000",
      "reserved": "",
      "salt": "0xe2671f7edc05bdd0df79178924e7bfa42ae2cc9b4c66dda5797a6dad02b1ade1",
      "assetIds": []
    },
    {
      "x": 305,
      "y": 184,
      "size": 1,
      "price": "1011000000000000000000",
      "reserved": "",
      "salt": "0x217607f8017469aba2bba371606f0d0103e343d7bf52db23d1cb20d843314b75",
      "assetIds": []
    },
    {
      "x": 305,
      "y": 185,
      "size": 1,
      "price": "1011000000000000000000",
      "reserved": "",
      "salt": "0x8edf4fa4f0c168100ead9005a3b25fafcc2cf4e6b865f82a5de23daebff838ed",
      "assetIds": []
    },
    {
      "x": 305,
      "y": 186,
      "size": 1,
      "price": "1011000000000000000000",
      "reserved": "",
      "salt": "0x9cf0fefa25859c6d6e4fcd287b3a0aca979098f88f32f91a6e452c53de7ebc7b",
      "assetIds": []
    },
    {
      "x": 305,
      "y": 187,
      "size": 1,
      "price": "1011000000000000000000",
      "reserved": "",
      "salt": "0xf641279082e60874415240e75b60c825501ec7c6e10e194796b6bc2fcafcf25c",
      "assetIds": []
    },
    {
      "x": 305,
      "y": 188,
      "size": 1,
      "price": "1011000000000000000000",
      "reserved": "",
      "salt": "0x8834b1a35778956a7fd90ff7935b001e8639941c30aea0eb2926df1c84520f4d",
      "assetIds": []
    },
    {
      "x": 306,
      "y": 168,
      "size": 1,
      "price": "4683000000000000000000",
      "reserved": "",
      "salt": "0x116230eaf725af594111f7bc1664e2145f69334e21522f50ae424aa381543c4d",
      "assetIds": [
        "41506478881403507969696680653240014914910929820314476107906210059990541021189"
      ]
    },
    {
      "x": 306,
      "y": 169,
      "size": 1,
      "price": "4683000000000000000000",
      "reserved": "",
      "salt": "0x49be17e6a40f96161eae87c58c83b1d6e3b4d1c434680e05cf565c0b866b083e",
      "assetIds": [
        "41506478881403507969696680653240014914910929820314476107906210059990541021189"
      ]
    },
    {
      "x": 306,
      "y": 170,
      "size": 1,
      "price": "4683000000000000000000",
      "reserved": "",
      "salt": "0xdfbd1a5ffd39852ea25a282b83bbd5a51beec3130d0fcbf76b56e50c063e7607",
      "assetIds": [
        "41506478881403507969696680653240014914910929820314476107906210059990541021189"
      ]
    },
    {
      "x": 306,
      "y": 171,
      "size": 1,
      "price": "1011000000000000000000",
      "reserved": "",
      "salt": "0xd3981cd3782725603ba25b73944e5a6e776be5bebd49512daa37c2999d05327b",
      "assetIds": []
    },
    {
      "x": 306,
      "y": 172,
      "size": 1,
      "price": "1011000000000000000000",
      "reserved": "",
      "salt": "0xf7214f34e3defa1ad15d5cb6cc26e104223acbef0c2df4e8a92a771918a7ce63",
      "assetIds": []
    },
    {
      "x": 306,
      "y": 173,
      "size": 1,
      "price": "1011000000000000000000",
      "reserved": "",
      "salt": "0xb62dc97a662358404c68d54b8848c8757d3b7d201fab6d5a80fb3456f3ee4825",
      "assetIds": []
    },
    {
      "x": 306,
      "y": 174,
      "size": 1,
      "price": "1011000000000000000000",
      "reserved": "",
      "salt": "0x2e044f9806f1128090e833a000e503ac6d1cc13539662c13361b822c7b784cff",
      "assetIds": []
    },
    {
      "x": 306,
      "y": 175,
      "size": 1,
      "price": "1011000000000000000000",
      "reserved": "",
      "salt": "0x1c62d72d786b560036d96e5796d2be3ba922edca5929ea4849157f8c5f2ee6b2",
      "assetIds": []
    },
    {
      "x": 306,
      "y": 176,
      "size": 1,
      "price": "1011000000000000000000",
      "reserved": "",
      "salt": "0xb6634c384df2425fd31cde917778fee3e9276436cee3a5df7a7f46574d50aa78",
      "assetIds": []
    },
    {
      "x": 306,
      "y": 177,
      "size": 1,
      "price": "1011000000000000000000",
      "reserved": "",
      "salt": "0x3919ebfb906c5997653a097e8f422325009d88da4ed08dc617f7f9c62e3d72d6",
      "assetIds": []
    },
    {
      "x": 306,
      "y": 178,
      "size": 1,
      "price": "1011000000000000000000",
      "reserved": "",
      "salt": "0x12f6301e48f2db2eb8f92a2133fbd49fd8f0f93670e86119c2cf3e8841ddd744",
      "assetIds": []
    },
    {
      "x": 306,
      "y": 179,
      "size": 1,
      "price": "1011000000000000000000",
      "reserved": "",
      "salt": "0xaf9f62b65807fd3951e66042c05367697c400eac1351cb4a72d18633bc031cc0",
      "assetIds": []
    },
    {
      "x": 306,
      "y": 186,
      "size": 1,
      "price": "1011000000000000000000",
      "reserved": "",
      "salt": "0xa291d275a28ca97ea7c76b48d63d11b6e9c6962544b9c165308146f778c14b04",
      "assetIds": []
    },
    {
      "x": 306,
      "y": 187,
      "size": 1,
      "price": "1011000000000000000000",
      "reserved": "",
      "salt": "0x596269e63670191306eef78dad0113f0b7d0854afffb842aa446d2462a4dc8c6",
      "assetIds": []
    },
    {
      "x": 306,
      "y": 188,
      "size": 1,
      "price": "1011000000000000000000",
      "reserved": "",
      "salt": "0x5d24bd20b0271292853c3b7dc83e0ab82469196b3c2fb9656817c129780f45c2",
      "assetIds": []
    },
    {
      "x": 307,
      "y": 168,
      "size": 1,
      "price": "4683000000000000000000",
      "reserved": "",
      "salt": "0x2aafd4e67201a5e2adc1f0ff475689625bd3bc641031bf2c283160f36faf4681",
      "assetIds": [
        "41506478881403507969696680653240014914910929820314476107906210059990541021189"
      ]
    },
    {
      "x": 307,
      "y": 169,
      "size": 1,
      "price": "4683000000000000000000",
      "reserved": "",
      "salt": "0x02c056f0331eb837da269424d8d913de966b1346920d442c63803ed9bf59486d",
      "assetIds": [
        "41506478881403507969696680653240014914910929820314476107906210059990541021189"
      ]
    },
    {
      "x": 307,
      "y": 170,
      "size": 1,
      "price": "4683000000000000000000",
      "reserved": "",
      "salt": "0xf59b87e33e6806ba193ab22db809471528fd9c2c761a213b990a6d7ab6733705",
      "assetIds": [
        "41506478881403507969696680653240014914910929820314476107906210059990541021189"
      ]
    },
    {
      "x": 307,
      "y": 171,
      "size": 1,
      "price": "1011000000000000000000",
      "reserved": "",
      "salt": "0x64756a87b43e9ba216f6ddda2652040e0bdcbfcdf2292d4b8ea75fb23aba76a6",
      "assetIds": []
    },
    {
      "x": 307,
      "y": 172,
      "size": 1,
      "price": "1011000000000000000000",
      "reserved": "",
      "salt": "0x8ee757ef3eccbc7333454ebaeb2f6e2bd839e144364027d6debdfd62723e7eeb",
      "assetIds": []
    },
    {
      "x": 307,
      "y": 173,
      "size": 1,
      "price": "1011000000000000000000",
      "reserved": "",
      "salt": "0xa8181cd3b6e6e5bcd09bc75c037e368b52f71cddd2046d2d79e15708d6a1ccff",
      "assetIds": []
    },
    {
      "x": 307,
      "y": 174,
      "size": 1,
      "price": "1011000000000000000000",
      "reserved": "",
      "salt": "0xd6b6ae9a94b570b78e5db5545c529a526265a90b15c267f59150d5076f9dbefe",
      "assetIds": []
    },
    {
      "x": 307,
      "y": 175,
      "size": 1,
      "price": "1011000000000000000000",
      "reserved": "",
      "salt": "0xaec4ef46c60efc8d66dcd00ee707f4e2dc1d24525d7fd3d58b6f4afad7a4227f",
      "assetIds": []
    },
    {
      "x": 307,
      "y": 176,
      "size": 1,
      "price": "1011000000000000000000",
      "reserved": "",
      "salt": "0x22733c730971a2485d8aa36d15009913566d898c3de42753ff3535b3357f4530",
      "assetIds": []
    },
    {
      "x": 307,
      "y": 177,
      "size": 1,
      "price": "1011000000000000000000",
      "reserved": "",
      "salt": "0xe4755681cfad6783218ddc0c3a67fb4959ec52d5fb45450d96d0509be9e57c8c",
      "assetIds": []
    },
    {
      "x": 307,
      "y": 178,
      "size": 1,
      "price": "1011000000000000000000",
      "reserved": "",
      "salt": "0xf6339ee45fc9ddedde6da1085f7408378759ad3416171ce10e15ba5b081f0f83",
      "assetIds": []
    },
    {
      "x": 307,
      "y": 179,
      "size": 1,
      "price": "1011000000000000000000",
      "reserved": "",
      "salt": "0xbc95aa8c7cc7d718b785a7a956a82965594b486a78b73a97b91a8de663524830",
      "assetIds": []
    },
    {
      "x": 307,
      "y": 186,
      "size": 1,
      "price": "1011000000000000000000",
      "reserved": "",
      "salt": "0xb80dc4c9afb683e08129e5da6ad8df4b3fd3ce93586bedaf420ce370273bff74",
      "assetIds": []
    },
    {
      "x": 307,
      "y": 187,
      "size": 1,
      "price": "1011000000000000000000",
      "reserved": "",
      "salt": "0xd2d4405547cc1b4eaa7907e46dc2d64b898479563e247557097f57c786716052",
      "assetIds": []
    },
    {
      "x": 307,
      "y": 188,
      "size": 1,
      "price": "1011000000000000000000",
      "reserved": "",
      "salt": "0xfcd62825e33c7f7838d20d24954e7b03a4ce237de252833e0152ea70c6402a37",
      "assetIds": []
    },
    {
      "x": 308,
      "y": 168,
      "size": 1,
      "price": "4683000000000000000000",
      "reserved": "",
      "salt": "0x90e1418b19f50c4021deb11bb42cb007fd6ddb5258118a5b7a972d08d6c815ab",
      "assetIds": [
        "41506478881403507969696680653240014914910929820314476107906210059990541021189"
      ]
    },
    {
      "x": 308,
      "y": 169,
      "size": 1,
      "price": "1011000000000000000000",
      "reserved": "",
      "salt": "0xa98d84c288f99a2099eada61b3b9bce9eb5f245a3c00e4da11a49db5a22601ca",
      "assetIds": []
    },
    {
      "x": 308,
      "y": 170,
      "size": 1,
      "price": "4683000000000000000000",
      "reserved": "",
      "salt": "0xd00c9ab0854342b4e43cb6e9f4e2dcd2688dc5ddcf5544569cfbb292d1876ef0",
      "assetIds": [
        "41506478881403507969696680653240014914910929820314476107906210059990541021189"
      ]
    },
    {
      "x": 308,
      "y": 171,
      "size": 1,
      "price": "1011000000000000000000",
      "reserved": "",
      "salt": "0x85cdab2d1957e20fb384587e3118682bedb3789b7546e0efcd1194cbc21bcf8e",
      "assetIds": []
    },
    {
      "x": 308,
      "y": 172,
      "size": 1,
      "price": "1011000000000000000000",
      "reserved": "",
      "salt": "0x0cd024b8dcea8bd839e856cbbb57a66e7d8318907af769c40566d3f2a02ab98f",
      "assetIds": []
    },
    {
      "x": 308,
      "y": 173,
      "size": 1,
      "price": "1011000000000000000000",
      "reserved": "",
      "salt": "0x8c1ec5f766424d85df820cf0d3d1d6683959cb2deebedd7b287b2b2b41405621",
      "assetIds": []
    },
    {
      "x": 308,
      "y": 174,
      "size": 1,
      "price": "1011000000000000000000",
      "reserved": "",
      "salt": "0x7db5c292d04e488f9ef1dc1070e7d27231a623806a07013218416bcaafd928fb",
      "assetIds": []
    },
    {
      "x": 308,
      "y": 175,
      "size": 1,
      "price": "1011000000000000000000",
      "reserved": "",
      "salt": "0x7a59ec85312d5885aa7e92170798464ea40be4ba39dd5a0ec1dd90eb9dc9fbd6",
      "assetIds": []
    },
    {
      "x": 308,
      "y": 176,
      "size": 1,
      "price": "1011000000000000000000",
      "reserved": "",
      "salt": "0x46f6fc294a66976e2c64ca606eeba0bbe622079241a1ca1c1cf534b6eb718e91",
      "assetIds": []
    },
    {
      "x": 308,
      "y": 177,
      "size": 1,
      "price": "1011000000000000000000",
      "reserved": "",
      "salt": "0x7aa55c164dd8ef31c8ae767b3dffaac4fa2fbc163ff0ba96bc8f40fb559ac317",
      "assetIds": []
    },
    {
      "x": 308,
      "y": 178,
      "size": 1,
      "price": "1011000000000000000000",
      "reserved": "",
      "salt": "0x1e0e8e28f764984710d2471e61247b4a41d7f4819ac5eb942cd5f202f08f7f33",
      "assetIds": []
    },
    {
      "x": 308,
      "y": 179,
      "size": 1,
      "price": "1011000000000000000000",
      "reserved": "",
      "salt": "0x31b96206b0da5cec874c4cf0aa7e457466d0e5fac3db45b7f668a9532fad3eb8",
      "assetIds": []
    },
    {
      "x": 308,
      "y": 186,
      "size": 1,
      "price": "1011000000000000000000",
      "reserved": "",
      "salt": "0xbdc1ad37240f4f2ba347757d30695005010ccdef5532983c1778d1c16efc9cf5",
      "assetIds": []
    },
    {
      "x": 308,
      "y": 187,
      "size": 1,
      "price": "1011000000000000000000",
      "reserved": "",
      "salt": "0x030c193ae90963b207a4be91c495fee0e7a82d86dc6e65f1a085c5b140d3e86b",
      "assetIds": []
    },
    {
      "x": 308,
      "y": 188,
      "size": 1,
      "price": "1011000000000000000000",
      "reserved": "",
      "salt": "0x168e78f231e24f8286b0fb5ff471dc3ddbe5be3c6391502bd1234ba95b6964ed",
      "assetIds": []
    },
    {
      "x": 309,
      "y": 168,
      "size": 1,
      "price": "4683000000000000000000",
      "reserved": "",
      "salt": "0xc372ff6da8609b8e3f9f439c163cde44feeac869806fbc616712e45029623666",
      "assetIds": [
        "41506478881403507969696680653240014914910929820314476107906210059990541021189"
      ]
    },
    {
      "x": 309,
      "y": 169,
      "size": 1,
      "price": "1011000000000000000000",
      "reserved": "",
      "salt": "0x7daec993d489e06eb8a62e608812b9c7cf30467669fdc048194db21f6371debf",
      "assetIds": []
    },
    {
      "x": 309,
      "y": 170,
      "size": 1,
      "price": "1011000000000000000000",
      "reserved": "",
      "salt": "0xd08732f8626634600ee5c632abfa06a87726f85c1718bee9d9ebdff3f89fe3e7",
      "assetIds": []
    },
    {
      "x": 309,
      "y": 171,
      "size": 1,
      "price": "1011000000000000000000",
      "reserved": "",
      "salt": "0x6c1c912853d524862951e2954fa00e571c30db95218850bb0e2a1c0d55fc32aa",
      "assetIds": []
    },
    {
      "x": 309,
      "y": 172,
      "size": 1,
      "price": "1011000000000000000000",
      "reserved": "",
      "salt": "0x0198404cc8c2a53ebb7993352f764b1c78469c40c7f4f64a5add21b1ba8d6621",
      "assetIds": []
    },
    {
      "x": 309,
      "y": 173,
      "size": 1,
      "price": "1011000000000000000000",
      "reserved": "",
      "salt": "0xa7fa6920b108d67f5415a15d62d4362e17ba15d8be915f1b3757219700f55a06",
      "assetIds": []
    },
    {
      "x": 309,
      "y": 174,
      "size": 1,
      "price": "1011000000000000000000",
      "reserved": "",
      "salt": "0x883ec5b7a38d3301318b6560b1933fa34976514eb55449570de1b602e13dd774",
      "assetIds": []
    },
    {
      "x": 309,
      "y": 175,
      "size": 1,
      "price": "1011000000000000000000",
      "reserved": "",
      "salt": "0x31860447b613c9da2c223ef9ac6207fb4b79079f7bd9482ff731dc641850c583",
      "assetIds": []
    },
    {
      "x": 309,
      "y": 176,
      "size": 1,
      "price": "1011000000000000000000",
      "reserved": "",
      "salt": "0xee67198bdc78cdb365a13cf9af355c9207a53e11c70404d4a0bf0ecc2ac02cdb",
      "assetIds": []
    },
    {
      "x": 309,
      "y": 177,
      "size": 1,
      "price": "1011000000000000000000",
      "reserved": "",
      "salt": "0x5de66bee6f54c375d954f74b1d73e5d9c333c3c32a2e3f85e6eb8fae81e787da",
      "assetIds": []
    },
    {
      "x": 309,
      "y": 178,
      "size": 1,
      "price": "1011000000000000000000",
      "reserved": "",
      "salt": "0xbdd17c07844dd0b1df45b30207d437c91da2d05a6012180ae1ea7f8f97075712",
      "assetIds": []
    },
    {
      "x": 309,
      "y": 179,
      "size": 1,
      "price": "1011000000000000000000",
      "reserved": "",
      "salt": "0xca78b672ef70b8f77e5dc4530cf8459b5c6416399e1440fdb8d5e7c9627a94cc",
      "assetIds": []
    },
    {
      "x": 310,
      "y": 168,
      "size": 1,
      "price": "1011000000000000000000",
      "reserved": "",
      "salt": "0x335631b5b28d8afb56863496023dc8cbbe4294031a710e447a621f1199ce3daf",
      "assetIds": []
    },
    {
      "x": 310,
      "y": 169,
      "size": 1,
      "price": "1011000000000000000000",
      "reserved": "",
      "salt": "0x8ce5830ee15e56c1c3c650cd2ebb317b7b3bfaf9b86b767a90a21a955e676433",
      "assetIds": []
    },
    {
      "x": 310,
      "y": 170,
      "size": 1,
      "price": "1011000000000000000000",
      "reserved": "",
      "salt": "0x302b202a2fa2fcca76970af310f03781533bd01c124b810112c1c34239482f96",
      "assetIds": []
    },
    {
      "x": 310,
      "y": 171,
      "size": 1,
      "price": "1011000000000000000000",
      "reserved": "",
      "salt": "0xf637d5eff509ba688fd478e28eba8dab02626ee276bbe911119382b9f4239c21",
      "assetIds": []
    },
    {
      "x": 310,
      "y": 172,
      "size": 1,
      "price": "1011000000000000000000",
      "reserved": "",
      "salt": "0x8882787ae4687ceb019ea7040cfb3c12396f5e97f707bafcd396699e4915de5d",
      "assetIds": []
    },
    {
      "x": 310,
      "y": 173,
      "size": 1,
      "price": "1011000000000000000000",
      "reserved": "",
      "salt": "0x3a101c2e397762f536341d5d2553855adf4ca7eb6379051e8470154a5353e20e",
      "assetIds": []
    },
    {
      "x": 310,
      "y": 174,
      "size": 1,
      "price": "1011000000000000000000",
      "reserved": "",
      "salt": "0x782927dda69f97026b59cb4c9c58e8cfb17b9f587deaae49e242ab21de999d3e",
      "assetIds": []
    },
    {
      "x": 310,
      "y": 175,
      "size": 1,
      "price": "1011000000000000000000",
      "reserved": "",
      "salt": "0xc49d0a95b153b8580ed392710b03fb9be68c2f5a404982409d1bd6ee34266b2b",
      "assetIds": []
    },
    {
      "x": 310,
      "y": 176,
      "size": 1,
      "price": "1011000000000000000000",
      "reserved": "",
      "salt": "0xd62ed5bab86020d349d335a86cc0449b4ca581cc19a8f8921b465de459411c63",
      "assetIds": []
    },
    {
      "x": 310,
      "y": 177,
      "size": 1,
      "price": "1011000000000000000000",
      "reserved": "",
      "salt": "0x53a221628ece9d35068bd532ca8da1971937a79fa39b8aae2509b61d1ef79873",
      "assetIds": []
    },
    {
      "x": 310,
      "y": 178,
      "size": 1,
      "price": "1011000000000000000000",
      "reserved": "",
      "salt": "0x283801fc21779fd9b4069d11666bac8f535aa139e0e07af9b52c3ad19e349422",
      "assetIds": []
    },
    {
      "x": 310,
      "y": 179,
      "size": 1,
      "price": "1011000000000000000000",
      "reserved": "",
      "salt": "0xfb699ad66ca47f69aaf1cdb903031533c97a0bcaebfe3afbbcef3b47adff2878",
      "assetIds": []
    },
    {
      "x": 311,
      "y": 168,
      "size": 1,
      "price": "1011000000000000000000",
      "reserved": "",
      "salt": "0xf5dd07bacfa572670fae796e460b084c89390e77af9ae1854bf194f7d9c63ae6",
      "assetIds": []
    },
    {
      "x": 311,
      "y": 169,
      "size": 1,
      "price": "1011000000000000000000",
      "reserved": "",
      "salt": "0x9daf617ea9d007ec73e5ffc645961491459718fcaf4d7ca6f3e559b0e29d4fba",
      "assetIds": []
    },
    {
      "x": 311,
      "y": 170,
      "size": 1,
      "price": "1011000000000000000000",
      "reserved": "",
      "salt": "0x0a1b506235519693481f99b6a4e62f19c3281558ff95c7de831765d461e005ed",
      "assetIds": []
    },
    {
      "x": 311,
      "y": 171,
      "size": 1,
      "price": "1011000000000000000000",
      "reserved": "",
      "salt": "0x60a6cb303e1c6e7a9db167293de2b921abb944d73b4416e7ab7eee6212c1011f",
      "assetIds": []
    },
    {
      "x": 311,
      "y": 172,
      "size": 1,
      "price": "1011000000000000000000",
      "reserved": "",
      "salt": "0xc125c936f1787a96b9496fcd7ee909f5c1f532709752a71041705e5152ebce71",
      "assetIds": []
    },
    {
      "x": 311,
      "y": 173,
      "size": 1,
      "price": "1011000000000000000000",
      "reserved": "",
      "salt": "0x861f82d139b583dd9ec2a6fe0ddbfcafce30c85b0743430e441594f01f9e3621",
      "assetIds": []
    },
    {
      "x": 311,
      "y": 174,
      "size": 1,
      "price": "1011000000000000000000",
      "reserved": "",
      "salt": "0xbaef121a83d561255249d3256babafc2cd34a85a82ab6152e349cf6040753f8a",
      "assetIds": []
    },
    {
      "x": 311,
      "y": 175,
      "size": 1,
      "price": "1011000000000000000000",
      "reserved": "",
      "salt": "0x0ca22ebed3ced8055d4f899be66cbe96d53d83b1ffbaa39a699e8d1bd60cc248",
      "assetIds": []
    },
    {
      "x": 311,
      "y": 176,
      "size": 1,
      "price": "1011000000000000000000",
      "reserved": "",
      "salt": "0x31677045e5bc943363c2cb8e2b892dfd6e3245f09f171da7de0dce421130c5cc",
      "assetIds": []
    },
    {
      "x": 311,
      "y": 177,
      "size": 1,
      "price": "1011000000000000000000",
      "reserved": "",
      "salt": "0xd2b1eef24df40667c8873933d60cf57ff7c982035b6d70abd3dbd3f6e2de03f8",
      "assetIds": []
    },
    {
      "x": 311,
      "y": 178,
      "size": 1,
      "price": "1011000000000000000000",
      "reserved": "",
      "salt": "0x73169a742cf463b101cb0ad8ea08971439fba2a7bc6a5e12931c21c5d4d9fcf9",
      "assetIds": []
    },
    {
      "x": 311,
      "y": 179,
      "size": 1,
      "price": "1011000000000000000000",
      "reserved": "",
      "salt": "0xf80ac8eac88ceb27ee87ae2b7057391ef527a8e06c47e5aa28887759f45db9dd",
      "assetIds": []
    },
    {
      "x": 312,
      "y": 159,
      "size": 1,
      "price": "1011000000000000000000",
      "reserved": "",
      "salt": "0xe230c334bd46001157a79ad5481a0ce6d447b362f8afbd846c0ebbaeeddf8077",
      "assetIds": []
    },
    {
      "x": 312,
      "y": 160,
      "size": 1,
      "price": "1011000000000000000000",
      "reserved": "",
      "salt": "0x5c6a5c6fa225af0548287053d1de49fd4875734932c440a767fc8977607d1e4d",
      "assetIds": []
    },
    {
      "x": 312,
      "y": 161,
      "size": 1,
      "price": "1011000000000000000000",
      "reserved": "",
      "salt": "0x18fa944595ed838e780b3b80daf2957571da78c68a31e6b572bc04a2b92f738e",
      "assetIds": []
    },
    {
      "x": 312,
      "y": 162,
      "size": 1,
      "price": "1011000000000000000000",
      "reserved": "",
      "salt": "0x254cb146827f59efa69a7c97068da1a0b1730df68d25f79097bbb43a9f315b26",
      "assetIds": []
    },
    {
      "x": 312,
      "y": 163,
      "size": 1,
      "price": "1011000000000000000000",
      "reserved": "",
      "salt": "0x5cbf608dc5df7b75643c934a1386ef54e25c04cd23a3c2dfe40a390da8ba0a96",
      "assetIds": []
    },
    {
      "x": 312,
      "y": 164,
      "size": 1,
      "price": "1011000000000000000000",
      "reserved": "",
      "salt": "0xd1d7f66488e5c0be201d7a0a5c9a71864b1a92b20dc855931c104d33788379f5",
      "assetIds": []
    },
    {
      "x": 312,
      "y": 177,
      "size": 1,
      "price": "1011000000000000000000",
      "reserved": "",
      "salt": "0xe371a2bcf32e29665654922153cc775a9aca60c21a390d2cd52492a45ea13221",
      "assetIds": []
    },
    {
      "x": 312,
      "y": 178,
      "size": 1,
      "price": "1011000000000000000000",
      "reserved": "",
      "salt": "0xa56c02bcde09da155ad69713bb14957855cdfddb4f47c219479641f0107e9ebc",
      "assetIds": []
    },
    {
      "x": 312,
      "y": 179,
      "size": 1,
      "price": "1011000000000000000000",
      "reserved": "",
      "salt": "0x98bfd8d325016c4c99ef596dc6be1312cdd2d853a7d95aa6409996597303af22",
      "assetIds": []
    },
    {
      "x": 313,
      "y": 159,
      "size": 1,
      "price": "1011000000000000000000",
      "reserved": "",
      "salt": "0xb8924db0b7a36f2112f84bceff33057b7e66c7deb621c95a9ab399c0ab470ed4",
      "assetIds": []
    },
    {
      "x": 313,
      "y": 160,
      "size": 1,
      "price": "1011000000000000000000",
      "reserved": "",
      "salt": "0xed8401fa50e5742d726f1a3d0697dcb4ffd893310b6f4272f98ccf986a78bf8c",
      "assetIds": []
    },
    {
      "x": 313,
      "y": 161,
      "size": 1,
      "price": "1011000000000000000000",
      "reserved": "",
      "salt": "0x683f50623808bfe124dd2c5503a4e6e5847b7e136f97ed9ae91bdf158b4416c4",
      "assetIds": []
    },
    {
      "x": 313,
      "y": 162,
      "size": 1,
      "price": "1011000000000000000000",
      "reserved": "",
      "salt": "0x73a108e2a4f1512bde2b93a0e8c49bf34dc14ed974ed6da9a89a70f98d14187f",
      "assetIds": []
    },
    {
      "x": 313,
      "y": 163,
      "size": 1,
      "price": "1011000000000000000000",
      "reserved": "",
      "salt": "0x004d4408e2f69ab7d91377931f5ece70f8b68feb6a61d5a75663c202f28fd183",
      "assetIds": []
    },
    {
      "x": 313,
      "y": 164,
      "size": 1,
      "price": "1011000000000000000000",
      "reserved": "",
      "salt": "0x70ed2f31f6c1907e49b786dcd3ea67911450bf9925201c3b0f7b545a771aaf3b",
      "assetIds": []
    },
    {
      "x": 313,
      "y": 177,
      "size": 1,
      "price": "1011000000000000000000",
      "reserved": "",
      "salt": "0xc6e1a0b06dfa93634beb9426cb314426e54902249f63c8c8fd7ccf0075215d27",
      "assetIds": []
    },
    {
      "x": 313,
      "y": 178,
      "size": 1,
      "price": "1011000000000000000000",
      "reserved": "",
      "salt": "0x40ab45e846f6ca2542cde9aec4419b7acb8d3715ca3217e803b4102139438b5c",
      "assetIds": []
    },
    {
      "x": 313,
      "y": 179,
      "size": 1,
      "price": "1011000000000000000000",
      "reserved": "",
      "salt": "0x8d2f939668b0fb0c0ef48c76ac102153747a2a4440d2963c0b30b8a64f0e9d93",
      "assetIds": []
    },
    {
      "x": 314,
      "y": 159,
      "size": 1,
      "price": "1011000000000000000000",
      "reserved": "",
      "salt": "0xab19cce3d72e22edd0c08a39a6874785db9ccf2f313ab87812e3f63b5ab9fc73",
      "assetIds": []
    },
    {
      "x": 314,
      "y": 160,
      "size": 1,
      "price": "1011000000000000000000",
      "reserved": "",
      "salt": "0x60aef800ea8824b031306df17a25eb1b0f8460a45e0c738ef84ee3abeb30861c",
      "assetIds": []
    },
    {
      "x": 314,
      "y": 161,
      "size": 1,
      "price": "1011000000000000000000",
      "reserved": "",
      "salt": "0x4c5d73ee3a60877c7a017007fe323a92591752d9b0989629f19cbcdf95a7cf2c",
      "assetIds": []
    },
    {
      "x": 314,
      "y": 162,
      "size": 1,
      "price": "1011000000000000000000",
      "reserved": "",
      "salt": "0x78945e19b3ac464993e9292592123a1e682cd91d03da7b1472ab2e0dc7478b8f",
      "assetIds": []
    },
    {
      "x": 314,
      "y": 163,
      "size": 1,
      "price": "1011000000000000000000",
      "reserved": "",
      "salt": "0xa4b4352e4d1fbd05cdc1a830c7bf13c6b0f581e92980643b172fde139a6385da",
      "assetIds": []
    },
    {
      "x": 314,
      "y": 164,
      "size": 1,
      "price": "1011000000000000000000",
      "reserved": "",
      "salt": "0x3ac9b6989ea50cb04c3be4e7b19c296bc9c5375f00e61baf0c2accfa053086ee",
      "assetIds": []
    },
    {
      "x": 314,
      "y": 177,
      "size": 1,
      "price": "1011000000000000000000",
      "reserved": "",
      "salt": "0x838cd72c02706444cbcc081522080d1cd304c2cd0ad6f6aa7942d97c40b9f48b",
      "assetIds": []
    },
    {
      "x": 314,
      "y": 178,
      "size": 1,
      "price": "1011000000000000000000",
      "reserved": "",
      "salt": "0x1eafdebcb8f93b92861c4e719b0f11f01c585e2cd3b534fcf40d16abe7782ea9",
      "assetIds": []
    },
    {
      "x": 314,
      "y": 179,
      "size": 1,
      "price": "1011000000000000000000",
      "reserved": "",
      "salt": "0xf438fdb5924d62de6d7bca08dabcc2d9de6eb496904a4975a8d884e4e122cd1c",
      "assetIds": []
    },
    {
      "x": 315,
      "y": 162,
      "size": 1,
      "price": "1011000000000000000000",
      "reserved": "",
      "salt": "0x6da0dcd263bf919b2e6e0c6800cc218acdcbe80161558e620bb8f0fd5e75cca7",
      "assetIds": []
    },
    {
      "x": 315,
      "y": 163,
      "size": 1,
      "price": "1011000000000000000000",
      "reserved": "",
      "salt": "0x79839f3f82dbf08abba52d90c481e075dbd57ae140a2df6f8ab3570d88abfc9d",
      "assetIds": []
    },
    {
      "x": 315,
      "y": 164,
      "size": 1,
      "price": "1011000000000000000000",
      "reserved": "",
      "salt": "0x880cb804b9de043af04d6d6cb3190f7deedb3577a702aafa3ac15fa34368513a",
      "assetIds": []
    },
    {
      "x": 315,
      "y": 165,
      "size": 1,
      "price": "1011000000000000000000",
      "reserved": "",
      "salt": "0xc447cf8a049a080e48044cbeab5503c355f39298da7f14a9bbad67207176dafb",
      "assetIds": []
    },
    {
      "x": 315,
      "y": 166,
      "size": 1,
      "price": "1011000000000000000000",
      "reserved": "",
      "salt": "0x2806202bee1a36bcea130d0d26bb2124af447f452358d5b3a995c17909814ed0",
      "assetIds": []
    },
    {
      "x": 315,
      "y": 167,
      "size": 1,
      "price": "1011000000000000000000",
      "reserved": "",
      "salt": "0xde3f289a4d549cfbbc34a7d593386e92c55dde9813823b30af125baca585f31b",
      "assetIds": []
    },
    {
      "x": 316,
      "y": 162,
      "size": 1,
      "price": "1011000000000000000000",
      "reserved": "",
      "salt": "0xbb0cf37254a96c460158b54873e2cae78ad382e5c2935abe14bda1d38a467690",
      "assetIds": []
    },
    {
      "x": 316,
      "y": 163,
      "size": 1,
      "price": "1011000000000000000000",
      "reserved": "",
      "salt": "0xb56c052dd2c70c3780bb17dec650b75f486ef1aafa770c54427ac99c4889a36f",
      "assetIds": []
    },
    {
      "x": 316,
      "y": 164,
      "size": 1,
      "price": "1011000000000000000000",
      "reserved": "",
      "salt": "0x1de278c5cb6177ee7de6681f77f2d2e6aa2f494bdfb8e689cefd808643c430d9",
      "assetIds": []
    },
    {
      "x": 316,
      "y": 165,
      "size": 1,
      "price": "1011000000000000000000",
      "reserved": "",
      "salt": "0xde720e472783c0752b571a9cac59ad86cd21f5034a39482b962ed25d92598752",
      "assetIds": []
    },
    {
      "x": 316,
      "y": 166,
      "size": 1,
      "price": "1011000000000000000000",
      "reserved": "",
      "salt": "0x3655c6afa20883d31457e5c788863ff30cef03ff4f2f51d9475a988d20de9d20",
      "assetIds": []
    },
    {
      "x": 316,
      "y": 167,
      "size": 1,
      "price": "1011000000000000000000",
      "reserved": "",
      "salt": "0x4b4cfdd2528f0bad32da69e34093820480ea1ab40b3c35bd65686077f0104343",
      "assetIds": []
    },
    {
      "x": 317,
      "y": 162,
      "size": 1,
      "price": "1011000000000000000000",
      "reserved": "",
      "salt": "0x94836c158bc4a6b287ffd66ccfc2a1be5fd871f696324fdf44e831edc458c05c",
      "assetIds": []
    },
    {
      "x": 317,
      "y": 163,
      "size": 1,
      "price": "1011000000000000000000",
      "reserved": "",
      "salt": "0x4e9d91884b852f3a9c5229f441216aeece4ae7a80b56bd0b458851a7acae51d8",
      "assetIds": []
    },
    {
      "x": 317,
      "y": 164,
      "size": 1,
      "price": "1011000000000000000000",
      "reserved": "",
      "salt": "0x10ce1e41fb383e6f8d89bdf727393b166e1f9d598901b589e60686d9c9526adc",
      "assetIds": []
    },
    {
      "x": 317,
      "y": 165,
      "size": 1,
      "price": "1011000000000000000000",
      "reserved": "",
      "salt": "0xf55f85fe34a5e52e4d5febb248d9a5db97662b1072528263b70b44dc10e68cb0",
      "assetIds": []
    },
    {
      "x": 317,
      "y": 166,
      "size": 1,
      "price": "1011000000000000000000",
      "reserved": "",
      "salt": "0xd6281618fc456d866c64ccfde04dc8fd907b40cab71eaa0759fbd4a9b4fa7675",
      "assetIds": []
    },
    {
      "x": 317,
      "y": 167,
      "size": 1,
      "price": "1011000000000000000000",
      "reserved": "",
      "salt": "0xfc3d8e13aeaf08eed03fcc383e947bbde91f71c8d30691c2fcdde504fda0d371",
      "assetIds": []
    },
    {
      "x": 291,
      "y": 180,
      "size": 3,
      "price": "8648000000000000000000",
      "reserved": "0x7a9fe22691c811ea339d9b73150e6911a5343dca",
      "salt": "0x50ba460bd2b10d6c94323c9e5b7ced6892c1045aa0d2e9877cfbef913f96e655",
      "assetIds": []
    },
    {
      "x": 300,
      "y": 168,
      "size": 3,
      "price": "8648000000000000000000",
      "reserved": "0x7a9fe22691c811ea339d9b73150e6911a5343dca",
      "salt": "0x73335ff7984aff561fb058014db2ef51be5b1eee5f27f2054c0c042616dce7d6",
      "assetIds": []
    },
    {
      "x": 300,
      "y": 180,
      "size": 3,
      "price": "8648000000000000000000",
      "reserved": "0x7a9fe22691c811ea339d9b73150e6911a5343dca",
      "salt": "0x980ad693d571192c6d4869f2d39b2352cc2430263934b85a21a996fa2993c5e0",
      "assetIds": []
    },
    {
      "x": 303,
      "y": 177,
      "size": 3,
      "price": "8648000000000000000000",
      "reserved": "0x7a9fe22691c811ea339d9b73150e6911a5343dca",
      "salt": "0x3a7f0f24f6b2ce66520b81d871160333d684c434105c8f2fdaea40fa9ebba580",
      "assetIds": []
    },
    {
      "x": 303,
      "y": 180,
      "size": 3,
      "price": "8648000000000000000000",
      "reserved": "0x7a9fe22691c811ea339d9b73150e6911a5343dca",
      "salt": "0x02eeb5bb65d1ba528274b813cb52cd11b1467c2ce3878d7a37b36e42fd7d348d",
      "assetIds": []
    },
    {
      "x": 312,
      "y": 165,
      "size": 3,
      "price": "8648000000000000000000",
      "reserved": "0x7a9fe22691c811ea339d9b73150e6911a5343dca",
      "salt": "0xd457f3c6c41f03e10177a6086b31303ae8056cb33506bd4584b08811375c8311",
      "assetIds": []
    },
    {
      "x": 312,
      "y": 168,
      "size": 3,
      "price": "8648000000000000000000",
      "reserved": "0x7a9fe22691c811ea339d9b73150e6911a5343dca",
      "salt": "0x08d43f9f3170789af783d5350dcdd0b4ac953ab6fa0dad75eb8a67d87d3725fa",
      "assetIds": []
    },
    {
      "x": 294,
      "y": 168,
      "size": 6,
      "price": "32772000000000000000000",
      "reserved": "0x7a9fe22691c811ea339d9b73150e6911a5343dca",
      "salt": "0x4393f9fdfc197129b33d7547d0ea256dcc271a17a48e38aff08ec8c2fc997671",
      "assetIds": []
    },
    {
      "x": 306,
      "y": 162,
      "size": 6,
      "price": "32772000000000000000000",
      "reserved": "0x7a9fe22691c811ea339d9b73150e6911a5343dca",
      "salt": "0x2d1438232f0f75e7c62fe9cc6a473e9414c379af67828800c13466354a6f7911",
      "assetIds": []
    },
    {
      "x": 306,
      "y": 180,
      "size": 6,
      "price": "32772000000000000000000",
      "reserved": "0x7a9fe22691c811ea339d9b73150e6911a5343dca",
      "salt": "0x824218e117a94c08af779dad1635d6e3a17f9dc862d51b6194b755af576cb1a0",
      "assetIds": []
    },
    {
      "x": 156,
      "y": 156,
      "size": 12,
      "price": "123806000000000000000000",
      "reserved": "0x7a9fe22691c811ea339d9b73150e6911a5343dca",
      "salt": "0x55699a8c90d589e3c767bef2101b1ee57ea6dcfce49a55fdacb48e8258aec988",
      "assetIds": []
    }
  ],
  "solcInputHash": "ea3f750ed6a3f377b8756d8b7b11eedf",
  "bytecode": "0x610160604052620d2f006005556103e860075534801561001e57600080fd5b5060405161242e38038061242e833981810160405261018081101561004257600080fd5b50805160208201516040830151606080850151608086015160a08088015160c0808a015160e08b01516101008c01516101208d01516101408e0151610160909e0151600280546001600160a01b0319166001600160a01b03861617905560038390558d8b1b6001600160601b0319908116909852998c901b909616909352999a9899979895979496929590949391926100dc8a600161014a565b600680546001600160a01b03199081166001600160a01b039a8b1617909155610140979097526101209590955260008054909616979096169690961790935550606093841b6001600160601b031990811660e05292841b831660805290921b1661010052506101ae92505050565b6001600160a01b038216600081815260016020908152604091829020805460ff191685151590811790915582519384529083015280517fb21eb88b4e33b3f1281830a7178d74d8aa73220416215726b68ae23d539515cb9281900390910190a15050565b60805160601c60a05160601c60c05160601c60e05160601c6101005160601c61012051610140516121fb610233600039806109375280611d44525080610913528061139a525080611da45250806115d252806116f4525080610c50528061159c5280611dd852508061166152806116c5525080610dfa528061190852506121fb6000f3fe608060405234801561001057600080fd5b50600436106101515760003560e01c8063984d6252116100cd578063dc5074af11610081578063ecb255b511610066578063ecb255b514610857578063f23a6e6114610874578063f2e7b3811461090957610151565b8063dc5074af14610814578063e56f8a9e1461083a57610151565b8063bc197c81116100b2578063bc197c81146105d3578063c10a420814610735578063caed35001461080c57610151565b8063984d6252146104db578063b522ecff146105ad57610151565b80636e9960c3116101245780638a04af6a116101095780638a04af6a1461032a5780638a12b82f146103585780638f283970146104b557610151565b80636e9960c3146102fe57806377f1c3ac1461032257610151565b806325cb5bc014610156578063495906571461017057806358bc29441461017857806365194ce7146101a0575b600080fd5b61015e610911565b60408051918252519081900360200190f35b61015e610935565b61019e6004803603602081101561018e57600080fd5b50356001600160a01b0316610959565b005b610246600480360360208110156101b657600080fd5b8101906020810181356401000000008111156101d157600080fd5b8201836020820111156101e357600080fd5b8035906020019184600183028401116401000000008311171561020557600080fd5b91908080601f016020809104026020016040519081016040528093929190818152602001838380828437600092019190915250929550610a04945050505050565b6040518080602001866001600160a01b03166001600160a01b03168152602001856001600160a01b03166001600160a01b03168152602001848152602001838152602001828103825287818151815260200191508051906020019080838360005b838110156102bf5781810151838201526020016102a7565b50505050905090810190601f1680156102ec5780820380516001836020036101000a031916815260200191505b50965050505050505060405180910390f35b610306610b09565b604080516001600160a01b039092168252519081900360200190f35b61015e610b18565b61019e6004803603604081101561034057600080fd5b506001600160a01b0381351690602001351515610b1e565b61019e600480360361018081101561036f57600080fd5b6001600160a01b038235811692602081013582169260408201359092169160608201359160808101359160a08201359160c08101359160e0820135916101008101359181019061014081016101208201356401000000008111156103d257600080fd5b8201836020820111156103e457600080fd5b8035906020019184602083028401116401000000008311171561040657600080fd5b91939092909160208101903564010000000081111561042457600080fd5b82018360208201111561043657600080fd5b8035906020019184602083028401116401000000008311171561045857600080fd5b91939092909160208101903564010000000081111561047657600080fd5b82018360208201111561048857600080fd5b803590602001918460018302840111640100000000831117156104aa57600080fd5b509092509050610b75565b61019e600480360360208110156104cb57600080fd5b50356001600160a01b0316610cc3565b61019e600480360360608110156104f157600080fd5b6001600160a01b03823516919081019060408101602082013564010000000081111561051c57600080fd5b82018360208201111561052e57600080fd5b8035906020019184602083028401116401000000008311171561055057600080fd5b91939092909160208101903564010000000081111561056e57600080fd5b82018360208201111561058057600080fd5b803590602001918460208302840111640100000000831117156105a257600080fd5b509092509050610d99565b61019e600480360360208110156105c357600080fd5b50356001600160a01b0316610f24565b610700600480360360a08110156105e957600080fd5b6001600160a01b03823581169260208101359091169181019060608101604082013564010000000081111561061d57600080fd5b82018360208201111561062f57600080fd5b8035906020019184602083028401116401000000008311171561065157600080fd5b91939092909160208101903564010000000081111561066f57600080fd5b82018360208201111561068157600080fd5b803590602001918460208302840111640100000000831117156106a357600080fd5b9193909290916020810190356401000000008111156106c157600080fd5b8201836020820111156106d357600080fd5b803590602001918460018302840111640100000000831117156106f557600080fd5b50909250905061100d565b604080517fffffffff000000000000000000000000000000000000000000000000000000009092168252519081900360200190f35b6107f8600480360360a081101561074b57600080fd5b81019060208101813564010000000081111561076657600080fd5b82018360208201111561077857600080fd5b8035906020019184600183028401116401000000008311171561079a57600080fd5b91908080601f016020809104026020016040519081016040528093929190818152602001838380828437600092019190915250929550506001600160a01b03833581169450602084013516926040810135925060600135905061103a565b604080519115158252519081900360200190f35b610306611176565b6107f86004803603602081101561082a57600080fd5b50356001600160a01b0316611185565b61019e6004803603602081101561085057600080fd5b50356111a3565b61019e6004803603602081101561086d57600080fd5b5035611207565b610700600480360360a081101561088a57600080fd5b6001600160a01b03823581169260208101359091169160408201359160608101359181019060a0810160808201356401000000008111156108ca57600080fd5b8201836020820111156108dc57600080fd5b803590602001918460018302840111640100000000831117156108fe57600080fd5b50909250905061126b565b61015e611296565b7f000000000000000000000000000000000000000000000000000000000000000090565b7f000000000000000000000000000000000000000000000000000000000000000090565b6000546001600160a01b031633146109b8576040805162461bcd60e51b815260206004820152601060248201527f53656e646572206e6f742061646d696e00000000000000000000000000000000604482015290519081900360640190fd5b600554600280546001600160a01b03908116600090815260046020526040902042909301909255805473ffffffffffffffffffffffffffffffffffffffff191692909116919091179055565b606060008060008060606000806000808a80602001905160a0811015610a2957600080fd5b8101908080516040519392919084640100000000821115610a4957600080fd5b908301906020820185811115610a5e57600080fd5b8251640100000000811182820188101715610a7857600080fd5b82525081516020918201929091019080838360005b83811015610aa5578181015183820152602001610a8d565b50505050905090810190601f168015610ad25780820380516001836020036101000a031916815260200191505b5060409081526020820151908201516060830151608090930151959f50909d509b5099509197505050505050505091939590929450565b6000546001600160a01b031690565b60035490565b6000546001600160a01b03163314610b675760405162461bcd60e51b815260040180806020018281038252602e815260200180612198602e913960400191505060405180910390fd5b610b71828261129c565b5050565b610b7f898961131e565b610c048f8e8e8e8e8e8d8d8d80806020026020016040519081016040528093929190818152602001838360200280828437600081840152601f19601f820116905080830192505050505050508c8c8080602002602001604051908101604052809392919081815260200183836020028082843760009201919091525061139892505050565b610c458f8984848080601f01602080910402602001604051908101604052809392919081815260200183838082843760009201919091525061157592505050565b610c758f8f8e8e8e8d7f00000000000000000000000000000000000000000000000000000000000000008f6115c6565b610cb28e87878080602002602001604051908101604052809392919081815260200183836020028082843760009201919091525061189192505050565b505050505050505050505050505050565b6000546001600160a01b03163314610d22576040805162461bcd60e51b815260206004820152601b60248201527f6f6e6c792061646d696e2063616e206368616e67652061646d696e0000000000604482015290519081900360640190fd5b600054604080516001600160a01b039283168152918316602083015280517f7e644d79422f17c01e4894b5f4f588d331ebfa28653d42ae832dc59e38c9798f9281900390910190a16000805473ffffffffffffffffffffffffffffffffffffffff19166001600160a01b0392909216919091179055565b6000546001600160a01b03163314610df8576040805162461bcd60e51b815260206004820152600e60248201527f4e4f545f415554484f52495a4544000000000000000000000000000000000000604482015290519081900360640190fd5b7f00000000000000000000000000000000000000000000000000000000000000006001600160a01b0316632eb2c2d63087878787876040518763ffffffff1660e01b815260040180876001600160a01b03166001600160a01b03168152602001866001600160a01b03166001600160a01b031681526020018060200180602001806020018481038452888882818152602001925060200280828437600083820152601f01601f19169091018581038452868152602090810191508790870280828437600081840152601f19601f8201169050808301925050508481038252600081526020016020019950505050505050505050600060405180830381600087803b158015610f0557600080fd5b505af1158015610f19573d6000803e3d6000fd5b505050505050505050565b6001600160a01b038116610f7f576040805162461bcd60e51b815260206004820152600c60248201527f5a45524f5f414444524553530000000000000000000000000000000000000000604482015290519081900360640190fd5b6000546001600160a01b03163314610fde576040805162461bcd60e51b815260206004820152600e60248201527f4e4f545f415554484f52495a4544000000000000000000000000000000000000604482015290519081900360640190fd5b6006805473ffffffffffffffffffffffffffffffffffffffff19166001600160a01b0392909216919091179055565b7fbc197c810000000000000000000000000000000000000000000000000000000098975050505050505050565b600060035482118061105d5750836001600160a01b0316856001600160a01b0316145b8061106757508242115b156110745750600061116d565b60408051606087811b7fffffffffffffffffffffffffffffffffffffffff0000000000000000000000009081166020808501919091529188901b166034830152604882018690526068808301869052835180840390910181526088830184528051908201207f19457468657265756d205369676e6564204d6573736167653a0a33320000000060a884015260c48084018290528451808503909101815260e4909301909352815191012060009061112b9089611a55565b6001600160a01b03811660009081526004602052604090205490915042116111585760019250505061116d565b6002546001600160a01b039081169116149150505b95945050505050565b6002546001600160a01b031690565b6001600160a01b031660009081526001602052604090205460ff1690565b6000546001600160a01b03163314611202576040805162461bcd60e51b815260206004820152601060248201527f53656e646572206e6f742061646d696e00000000000000000000000000000000604482015290519081900360640190fd5b600355565b6000546001600160a01b03163314611266576040805162461bcd60e51b815260206004820152600e60248201527f4e4f545f415554484f52495a4544000000000000000000000000000000000000604482015290519081900360640190fd5b600755565b7ff23a6e61000000000000000000000000000000000000000000000000000000009695505050505050565b60075490565b6001600160a01b03821660008181526001602090815260409182902080547fffffffffffffffffffffffffffffffffffffffffffffffffffffffffffffff001685151590811790915582519384529083015280517fb21eb88b4e33b3f1281830a7178d74d8aa73220416215726b68ae23d539515cb9281900390910190a15050565b6113456103e861133960075485611b2290919063ffffffff16565b9063ffffffff611b9816565b8114610b71576040805162461bcd60e51b815260206004820152600d60248201527f494e56414c49445f505249434500000000000000000000000000000000000000604482015290519081900360640190fd5b7f0000000000000000000000000000000000000000000000000000000000000000421061140c576040805162461bcd60e51b815260206004820152600c60248201527f53414c455f49535f4f5645520000000000000000000000000000000000000000604482015290519081900360640190fd5b6001600160a01b03891633148061143257503360009081526001602052604090205460ff165b611483576040805162461bcd60e51b815260206004820152600e60248201527f4e4f545f415554484f52495a4544000000000000000000000000000000000000604482015290519081900360640190fd5b6001600160a01b03881615806114aa5750886001600160a01b0316886001600160a01b0316145b6114fb576040805162461bcd60e51b815260206004820152600d60248201527f52455345525645445f4c414e4400000000000000000000000000000000000000604482015290519081900360640190fd5b600061150c888888888d8989611bfd565b90506115188282611ca2565b611569576040805162461bcd60e51b815260206004820152600c60248201527f494e56414c49445f4c414e440000000000000000000000000000000000000000604482015290519081900360640190fd5b50505050505050505050565b60006115818484611d6b565b6006549091506115c0908590839085906001600160a01b03167f0000000000000000000000000000000000000000000000000000000000000000611eb8565b50505050565b83600114806115fc57507f00000000000000000000000000000000000000000000000000000000000000006001600160a01b0316155b156116c357604080517f6e1e3bbf0000000000000000000000000000000000000000000000000000000081526001600160a01b03898116600483015260248201879052604482018990526064820188905260a06084830152600060a4830181905292517f000000000000000000000000000000000000000000000000000000000000000090911692636e1e3bbf9260e4808201939182900301818387803b1580156116a657600080fd5b505af11580156116ba573d6000803e3d6000fd5b50505050611827565b7f00000000000000000000000000000000000000000000000000000000000000006001600160a01b0316636e1e3bbf7f00000000000000000000000000000000000000000000000000000000000000008689898c60405160200180826001600160a01b03166001600160a01b031681526020019150506040516020818303038152906040526040518663ffffffff1660e01b815260040180866001600160a01b03166001600160a01b0316815260200185815260200184815260200183815260200180602001828103825283818151815260200191508051906020019080838360005b838110156117be5781810151838201526020016117a6565b50505050905090810190601f1680156117eb5780820380516001836020036101000a031916815260200191505b509650505050505050600060405180830381600087803b15801561180e57600080fd5b505af1158015611822573d6000803e3d6000fd5b505050505b60408051858152602081018590526001600160a01b03848116828401526060820184905291516101988802890192808b1692908c16917fe4dfa6ac11314892f3029b34a25b1a887da3b1cab2bbf8506d87128ba6e3ac029181900360800190a45050505050505050565b6060815167ffffffffffffffff811180156118ab57600080fd5b506040519080825280602002602001820160405280156118d5578160200160208202803683370190505b50905060005b82518110156119055760018282815181106118f257fe5b60209081029190910101526001016118db565b507f00000000000000000000000000000000000000000000000000000000000000006001600160a01b0316632eb2c2d6308585856040518563ffffffff1660e01b815260040180856001600160a01b03166001600160a01b03168152602001846001600160a01b03166001600160a01b03168152602001806020018060200180602001848103845286818151815260200191508051906020019060200280838360005b838110156119c05781810151838201526020016119a8565b50505050905001848103835285818151815260200191508051906020019060200280838360005b838110156119ff5781810151838201526020016119e7565b50505050905001848103825260008152602001602001975050505050505050600060405180830381600087803b158015611a3857600080fd5b505af1158015611a4c573d6000803e3d6000fd5b50505050505050565b60008151604114611a6557600080fd5b60208201516040830151606084015160001a601b811015611a8457601b015b8060ff16601b1480611a9957508060ff16601c145b611aa257600080fd5b6040805160008152602080820180845289905260ff8416828401526060820186905260808201859052915160019260a0808401939192601f1981019281900390910190855afa158015611af9573d6000803e3d6000fd5b5050604051601f1901519450506001600160a01b038416611b1957600080fd5b50505092915050565b600082611b3157506000611b92565b5081810281838281611b3f57fe5b0414611b92576040805162461bcd60e51b815260206004820152600860248201527f6f766572666c6f77000000000000000000000000000000000000000000000000604482015290519081900360640190fd5b92915050565b600081611bec576040805162461bcd60e51b815260206004820152600960248201527f64697662797a65726f0000000000000000000000000000000000000000000000604482015290519081900360640190fd5b818381611bf557fe5b049392505050565b60008787878787878760405160200180888152602001878152602001868152602001858152602001846001600160a01b03166001600160a01b031660601b8152601401838152602001828051906020019060200280838360005b83811015611c6f578181015183820152602001611c57565b50505050905001975050505050505050604051602081830303815290604052805190602001209050979650505050505050565b600081815b8451811015611d41576000858281518110611cbe57fe5b6020026020010151905080831015611d065782816040516020018083815260200182815260200192505050604051602081830303815290604052805190602001209250611d38565b808360405160200180838152602001828152602001925050506040516020818303038152906040528051906020012092505b50600101611ca7565b507f0000000000000000000000000000000000000000000000000000000000000000149392505050565b600080611d84606461133985600563ffffffff611b2216565b604080516323b872dd60e01b81526001600160a01b0387811660048301527f0000000000000000000000000000000000000000000000000000000000000000811660248301526044820184905291519293507f0000000000000000000000000000000000000000000000000000000000000000909116916323b872dd916064808201926020929091908290030181600087803b158015611e2357600080fd5b505af1158015611e37573d6000803e3d6000fd5b505050506040513d6020811015611e4d57600080fd5b5051611ea0576040805162461bcd60e51b815260206004820152601360248201527f4645455f5452414e534645525f4641494c454400000000000000000000000000604482015290519081900360640190fd5b611eb0838263ffffffff61213a16565b949350505050565b82518190859015612062576060600080600080611ed48a610a04565b9398509196509450925090506000611eef868686868661103a565b15611f7d57611f09611f018d84611b22565b612710611b98565b9050886001600160a01b0316846001600160a01b0316866001600160a01b03167fac7a699eb95c3c6d390ec4626de17ef9a67b35891efdb197beba7c7fdd45fac48f858760405180848152602001838152602001828152602001935050505060405180910390a4611f7a878261213a565b96505b801561205b57604080516323b872dd60e01b81526001600160a01b038f811660048301528781166024830152604482018490529151918a16916323b872dd916064808201926020929091908290030181600087803b158015611fde57600080fd5b505af1158015611ff2573d6000803e3d6000fd5b505050506040513d602081101561200857600080fd5b505161205b576040805162461bcd60e51b815260206004820152601960248201527f636f6d6d6973696f6e207472616e73666572206661696c656400000000000000604482015290519081900360640190fd5b5050505050505b604080516323b872dd60e01b81526001600160a01b0389811660048301528681166024830152604482018490529151918416916323b872dd916064808201926020929091908290030181600087803b1580156120bd57600080fd5b505af11580156120d1573d6000803e3d6000fd5b505050506040513d60208110156120e757600080fd5b5051611a4c576040805162461bcd60e51b815260206004820152601760248201527f7061796d656e74207472616e73666572206661696c6564000000000000000000604482015290519081900360640190fd5b600082821115612191576040805162461bcd60e51b815260206004820152600860248201527f756e6465666c6f77000000000000000000000000000000000000000000000000604482015290519081900360640190fd5b5090039056fe6f6e6c792061646d696e2063616e207365747570206d6574615472616e73616374696f6e50726f636573736f7273a26469706673582212200ff38c5741c66b2a22a9a9ee2abe0f55626323082b6b4443921fd3b25484584a64736f6c63430006050033",
  "devdoc": {
    "methods": {
      "buyLandWithSand(address,address,address,uint256,uint256,uint256,uint256,uint256,bytes32,uint256[],bytes32[],bytes)": {
        "params": {
          "buyer": "address that perform the payment",
          "priceInSand": "price in SAND to purchase that Land",
          "proof": "merkleProof for that particular Land",
          "reserved": "the reserved address (if any)",
          "size": "size of the pack of Land to purchase",
          "to": "address that will own the purchased Land",
          "x": "x coordinate of the Land",
          "y": "y coordinate of the Land"
        }
      },
      "changeAdmin(address)": {
        "details": "change the administrator to be `newAdmin`.",
        "params": {
          "newAdmin": "address of the new administrator."
        }
      },
      "getAdmin()": {
        "details": "gives the current administrator of this contract.",
        "returns": {
          "_0": "the current administrator of this contract."
        }
      },
      "getSigningWallet()": {
        "details": "signing wallet authorized for referral",
        "returns": {
          "_0": "the address of the signing wallet"
        }
      },
      "isMetaTransactionProcessor(address)": {
        "details": "check whether address `who` is given meta-transaction execution rights.",
        "params": {
          "who": "The address to query."
        },
        "returns": {
          "_0": "whether the address has meta-transaction execution rights."
        }
      },
      "isReferralValid(bytes,address,address,uint256,uint256)": {
        "params": {
          "commissionRate": "The commissionRate of the referral",
          "expiryTime": "The expiry time of the referral",
          "referee": "The address of the referee",
          "referrer": "The address of the referrer",
          "signature": "The signature to check (signed referral)"
        },
        "returns": {
          "_0": "True if the referral is valid"
        }
      },
      "setMetaTransactionProcessor(address,bool)": {
        "details": "Enable or disable the ability of `metaTransactionProcessor` to perform meta-tx (metaTransactionProcessor rights).",
        "params": {
          "enabled": "set whether the metaTransactionProcessor is enabled or disabled.",
          "metaTransactionProcessor": "address that will be given/removed metaTransactionProcessor rights."
        }
      },
      "setReceivingWallet(address)": {
        "params": {
          "newWallet": "address of the new receiving wallet"
        }
      },
      "updateMaxCommissionRate(uint256)": {
        "details": "Update the maximum commission rate",
        "params": {
          "newMaxCommissionRate": "The new maximum commission rate"
        }
      },
      "updateSigningWallet(address)": {
        "details": "Update the signing wallet",
        "params": {
          "newSigningWallet": "The new address of the signing wallet"
        }
      },
      "withdrawAssets(address,uint256[],uint256[])": {
        "params": {
          "assetIds": "the assetIds to be transferred",
          "to": "intended recipient of the asset tokens",
          "values": "the quantities of the assetIds to be transferred"
        }
      }
    },
    "title": "Estate Sale contract with referral"
  },
  "userdoc": {
    "methods": {
      "buyLandWithSand(address,address,address,uint256,uint256,uint256,uint256,uint256,bytes32,uint256[],bytes32[],bytes)": {
        "notice": "buy Land with SAND using the merkle proof associated with it"
      },
      "getExpiryTime()": {
        "notice": "Gets the expiry time for the current sale"
      },
      "getMaxCommisionRate()": {
        "notice": "the max commision rate"
      },
      "getMerkleRoot()": {
        "notice": "Gets the Merkle root associated with the current sale"
      },
      "isReferralValid(bytes,address,address,uint256,uint256)": {
        "notice": "Check if a referral is valid"
      },
      "setReceivingWallet(address)": {
        "notice": "set the wallet receiving the proceeds"
      },
      "withdrawAssets(address,uint256[],uint256[])": {
        "notice": "enable Admin to withdraw remaining assets from EstateSaleWithFee contract"
      }
    },
    "notice": "This contract manages the sale of our lands as Estates"
  },
  "storageLayout": {
    "storage": [
      {
        "astId": 13640,
        "contract": "src/solc_0.6/EstateSale/EstateSaleWithFee.sol:EstateSaleWithFee",
        "label": "_admin",
        "offset": 0,
        "slot": "0",
        "type": "t_address"
      },
      {
        "astId": 13702,
        "contract": "src/solc_0.6/EstateSale/EstateSaleWithFee.sol:EstateSaleWithFee",
        "label": "_metaTransactionContracts",
        "offset": 0,
        "slot": "1",
        "type": "t_mapping(t_address,t_bool)"
      },
      {
        "astId": 11818,
        "contract": "src/solc_0.6/EstateSale/EstateSaleWithFee.sol:EstateSaleWithFee",
        "label": "_signingWallet",
        "offset": 0,
        "slot": "2",
        "type": "t_address"
      },
      {
        "astId": 11820,
        "contract": "src/solc_0.6/EstateSale/EstateSaleWithFee.sol:EstateSaleWithFee",
        "label": "_maxCommissionRate",
        "offset": 0,
        "slot": "3",
        "type": "t_uint256"
      },
      {
        "astId": 11824,
        "contract": "src/solc_0.6/EstateSale/EstateSaleWithFee.sol:EstateSaleWithFee",
        "label": "_previousSigningWallets",
        "offset": 0,
        "slot": "4",
        "type": "t_mapping(t_address,t_uint256)"
      },
      {
        "astId": 11833,
        "contract": "src/solc_0.6/EstateSale/EstateSaleWithFee.sol:EstateSaleWithFee",
        "label": "_previousSigningDelay",
        "offset": 0,
        "slot": "5",
        "type": "t_uint256"
      },
      {
        "astId": 8205,
        "contract": "src/solc_0.6/EstateSale/EstateSaleWithFee.sol:EstateSaleWithFee",
        "label": "_wallet",
        "offset": 0,
        "slot": "6",
        "type": "t_address_payable"
      },
      {
        "astId": 8215,
        "contract": "src/solc_0.6/EstateSale/EstateSaleWithFee.sol:EstateSaleWithFee",
        "label": "_multiplier",
        "offset": 0,
        "slot": "7",
        "type": "t_uint256"
      }
    ],
    "types": {
      "t_address": {
        "encoding": "inplace",
        "label": "address",
        "numberOfBytes": "20"
      },
      "t_address_payable": {
        "encoding": "inplace",
        "label": "address payable",
        "numberOfBytes": "20"
      },
      "t_bool": {
        "encoding": "inplace",
        "label": "bool",
        "numberOfBytes": "1"
      },
      "t_mapping(t_address,t_bool)": {
        "encoding": "mapping",
        "key": "t_address",
        "label": "mapping(address => bool)",
        "numberOfBytes": "32",
        "value": "t_bool"
      },
      "t_mapping(t_address,t_uint256)": {
        "encoding": "mapping",
        "key": "t_address",
        "label": "mapping(address => uint256)",
        "numberOfBytes": "32",
        "value": "t_uint256"
      },
      "t_uint256": {
        "encoding": "inplace",
        "label": "uint256",
        "numberOfBytes": "32"
      }
    }
  }
}