{
  "address": "0x67EDd5Fa8e1d7FBd704e3492D9096b850ca82b6a",
  "abi": [
    {
      "inputs": [
        {
          "internalType": "address",
          "name": "landAddress",
          "type": "address"
        },
        {
          "internalType": "address",
          "name": "sandContractAddress",
          "type": "address"
        },
        {
          "internalType": "address",
          "name": "initialMetaTx",
          "type": "address"
        },
        {
          "internalType": "address",
          "name": "admin",
          "type": "address"
        },
        {
          "internalType": "address payable",
          "name": "initialWalletAddress",
          "type": "address"
        },
        {
          "internalType": "bytes32",
          "name": "merkleRoot",
          "type": "bytes32"
        },
        {
          "internalType": "uint256",
          "name": "expiryTime",
          "type": "uint256"
        },
        {
          "internalType": "address",
          "name": "initialSigningWallet",
          "type": "address"
        },
        {
          "internalType": "uint256",
          "name": "initialMaxCommissionRate",
          "type": "uint256"
        },
        {
          "internalType": "address",
          "name": "estate",
          "type": "address"
        },
        {
          "internalType": "address",
          "name": "asset",
          "type": "address"
        },
        {
          "internalType": "address",
          "name": "feeDistributor",
          "type": "address"
        }
      ],
      "stateMutability": "nonpayable",
      "type": "constructor"
    },
    {
      "anonymous": false,
      "inputs": [
        {
          "indexed": false,
          "internalType": "address",
          "name": "oldAdmin",
          "type": "address"
        },
        {
          "indexed": false,
          "internalType": "address",
          "name": "newAdmin",
          "type": "address"
        }
      ],
      "name": "AdminChanged",
      "type": "event"
    },
    {
      "anonymous": false,
      "inputs": [
        {
          "indexed": true,
          "internalType": "address",
          "name": "buyer",
          "type": "address"
        },
        {
          "indexed": true,
          "internalType": "address",
          "name": "to",
          "type": "address"
        },
        {
          "indexed": true,
          "internalType": "uint256",
          "name": "topCornerId",
          "type": "uint256"
        },
        {
          "indexed": false,
          "internalType": "uint256",
          "name": "size",
          "type": "uint256"
        },
        {
          "indexed": false,
          "internalType": "uint256",
          "name": "price",
          "type": "uint256"
        },
        {
          "indexed": false,
          "internalType": "address",
          "name": "token",
          "type": "address"
        },
        {
          "indexed": false,
          "internalType": "uint256",
          "name": "amountPaid",
          "type": "uint256"
        }
      ],
      "name": "LandQuadPurchased",
      "type": "event"
    },
    {
      "anonymous": false,
      "inputs": [
        {
          "indexed": false,
          "internalType": "address",
          "name": "metaTransactionProcessor",
          "type": "address"
        },
        {
          "indexed": false,
          "internalType": "bool",
          "name": "enabled",
          "type": "bool"
        }
      ],
      "name": "MetaTransactionProcessor",
      "type": "event"
    },
    {
      "anonymous": false,
      "inputs": [
        {
          "indexed": true,
          "internalType": "address",
          "name": "referrer",
          "type": "address"
        },
        {
          "indexed": true,
          "internalType": "address",
          "name": "referee",
          "type": "address"
        },
        {
          "indexed": true,
          "internalType": "address",
          "name": "token",
          "type": "address"
        },
        {
          "indexed": false,
          "internalType": "uint256",
          "name": "amount",
          "type": "uint256"
        },
        {
          "indexed": false,
          "internalType": "uint256",
          "name": "commission",
          "type": "uint256"
        },
        {
          "indexed": false,
          "internalType": "uint256",
          "name": "commissionRate",
          "type": "uint256"
        }
      ],
      "name": "ReferralUsed",
      "type": "event"
    },
    {
      "inputs": [
        {
          "internalType": "address",
          "name": "buyer",
          "type": "address"
        },
        {
          "internalType": "address",
          "name": "to",
          "type": "address"
        },
        {
          "internalType": "address",
          "name": "reserved",
          "type": "address"
        },
        {
          "internalType": "uint256",
          "name": "x",
          "type": "uint256"
        },
        {
          "internalType": "uint256",
          "name": "y",
          "type": "uint256"
        },
        {
          "internalType": "uint256",
          "name": "size",
          "type": "uint256"
        },
        {
          "internalType": "uint256",
          "name": "priceInSand",
          "type": "uint256"
        },
        {
          "internalType": "uint256",
          "name": "adjustedPriceInSand",
          "type": "uint256"
        },
        {
          "internalType": "bytes32",
          "name": "salt",
          "type": "bytes32"
        },
        {
          "internalType": "uint256[]",
          "name": "assetIds",
          "type": "uint256[]"
        },
        {
          "internalType": "bytes32[]",
          "name": "proof",
          "type": "bytes32[]"
        },
        {
          "internalType": "bytes",
          "name": "referral",
          "type": "bytes"
        }
      ],
      "name": "buyLandWithSand",
      "outputs": [],
      "stateMutability": "nonpayable",
      "type": "function"
    },
    {
      "inputs": [
        {
          "internalType": "address",
          "name": "newAdmin",
          "type": "address"
        }
      ],
      "name": "changeAdmin",
      "outputs": [],
      "stateMutability": "nonpayable",
      "type": "function"
    },
    {
      "inputs": [
        {
          "internalType": "bytes",
          "name": "referral",
          "type": "bytes"
        }
      ],
      "name": "decodeReferral",
      "outputs": [
        {
          "internalType": "bytes",
          "name": "",
          "type": "bytes"
        },
        {
          "internalType": "address",
          "name": "",
          "type": "address"
        },
        {
          "internalType": "address",
          "name": "",
          "type": "address"
        },
        {
          "internalType": "uint256",
          "name": "",
          "type": "uint256"
        },
        {
          "internalType": "uint256",
          "name": "",
          "type": "uint256"
        }
      ],
      "stateMutability": "pure",
      "type": "function"
    },
    {
      "inputs": [],
      "name": "getAdmin",
      "outputs": [
        {
          "internalType": "address",
          "name": "",
          "type": "address"
        }
      ],
      "stateMutability": "view",
      "type": "function"
    },
    {
      "inputs": [],
      "name": "getExpiryTime",
      "outputs": [
        {
          "internalType": "uint256",
          "name": "",
          "type": "uint256"
        }
      ],
      "stateMutability": "view",
      "type": "function"
    },
    {
      "inputs": [],
      "name": "getMaxCommisionRate",
      "outputs": [
        {
          "internalType": "uint256",
          "name": "",
          "type": "uint256"
        }
      ],
      "stateMutability": "view",
      "type": "function"
    },
    {
      "inputs": [],
      "name": "getMerkleRoot",
      "outputs": [
        {
          "internalType": "bytes32",
          "name": "",
          "type": "bytes32"
        }
      ],
      "stateMutability": "view",
      "type": "function"
    },
    {
      "inputs": [],
      "name": "getSandMultiplier",
      "outputs": [
        {
          "internalType": "uint256",
          "name": "",
          "type": "uint256"
        }
      ],
      "stateMutability": "view",
      "type": "function"
    },
    {
      "inputs": [],
      "name": "getSigningWallet",
      "outputs": [
        {
          "internalType": "address",
          "name": "",
          "type": "address"
        }
      ],
      "stateMutability": "view",
      "type": "function"
    },
    {
      "inputs": [
        {
          "internalType": "address",
          "name": "who",
          "type": "address"
        }
      ],
      "name": "isMetaTransactionProcessor",
      "outputs": [
        {
          "internalType": "bool",
          "name": "",
          "type": "bool"
        }
      ],
      "stateMutability": "view",
      "type": "function"
    },
    {
      "inputs": [
        {
          "internalType": "bytes",
          "name": "signature",
          "type": "bytes"
        },
        {
          "internalType": "address",
          "name": "referrer",
          "type": "address"
        },
        {
          "internalType": "address",
          "name": "referee",
          "type": "address"
        },
        {
          "internalType": "uint256",
          "name": "expiryTime",
          "type": "uint256"
        },
        {
          "internalType": "uint256",
          "name": "commissionRate",
          "type": "uint256"
        }
      ],
      "name": "isReferralValid",
      "outputs": [
        {
          "internalType": "bool",
          "name": "",
          "type": "bool"
        }
      ],
      "stateMutability": "view",
      "type": "function"
    },
    {
      "inputs": [
        {
          "internalType": "address",
          "name": "",
          "type": "address"
        },
        {
          "internalType": "address",
          "name": "",
          "type": "address"
        },
        {
          "internalType": "uint256[]",
          "name": "",
          "type": "uint256[]"
        },
        {
          "internalType": "uint256[]",
          "name": "",
          "type": "uint256[]"
        },
        {
          "internalType": "bytes",
          "name": "",
          "type": "bytes"
        }
      ],
      "name": "onERC1155BatchReceived",
      "outputs": [
        {
          "internalType": "bytes4",
          "name": "",
          "type": "bytes4"
        }
      ],
      "stateMutability": "pure",
      "type": "function"
    },
    {
      "inputs": [
        {
          "internalType": "address",
          "name": "",
          "type": "address"
        },
        {
          "internalType": "address",
          "name": "",
          "type": "address"
        },
        {
          "internalType": "uint256",
          "name": "",
          "type": "uint256"
        },
        {
          "internalType": "uint256",
          "name": "",
          "type": "uint256"
        },
        {
          "internalType": "bytes",
          "name": "",
          "type": "bytes"
        }
      ],
      "name": "onERC1155Received",
      "outputs": [
        {
          "internalType": "bytes4",
          "name": "",
          "type": "bytes4"
        }
      ],
      "stateMutability": "pure",
      "type": "function"
    },
    {
      "inputs": [
        {
          "internalType": "uint256",
          "name": "newMultiplier",
          "type": "uint256"
        }
      ],
      "name": "rebalanceSand",
      "outputs": [],
      "stateMutability": "nonpayable",
      "type": "function"
    },
    {
      "inputs": [
        {
          "internalType": "address",
          "name": "metaTransactionProcessor",
          "type": "address"
        },
        {
          "internalType": "bool",
          "name": "enabled",
          "type": "bool"
        }
      ],
      "name": "setMetaTransactionProcessor",
      "outputs": [],
      "stateMutability": "nonpayable",
      "type": "function"
    },
    {
      "inputs": [
        {
          "internalType": "address payable",
          "name": "newWallet",
          "type": "address"
        }
      ],
      "name": "setReceivingWallet",
      "outputs": [],
      "stateMutability": "nonpayable",
      "type": "function"
    },
    {
      "inputs": [
        {
          "internalType": "uint256",
          "name": "newMaxCommissionRate",
          "type": "uint256"
        }
      ],
      "name": "updateMaxCommissionRate",
      "outputs": [],
      "stateMutability": "nonpayable",
      "type": "function"
    },
    {
      "inputs": [
        {
          "internalType": "address",
          "name": "newSigningWallet",
          "type": "address"
        }
      ],
      "name": "updateSigningWallet",
      "outputs": [],
      "stateMutability": "nonpayable",
      "type": "function"
    },
    {
      "inputs": [
        {
          "internalType": "address",
          "name": "to",
          "type": "address"
        },
        {
          "internalType": "uint256[]",
          "name": "assetIds",
          "type": "uint256[]"
        },
        {
          "internalType": "uint256[]",
          "name": "values",
          "type": "uint256[]"
        }
      ],
      "name": "withdrawAssets",
      "outputs": [],
      "stateMutability": "nonpayable",
      "type": "function"
    }
  ],
  "transactionHash": "0x1539079147c3cace37d13ff69defe84099411656b285370c2c23b84204fe658d",
  "args": [
    "0xaF40A483bF77AAb7b7D13dB18187E6D62C1EA41b",
    "0xCc933a862fc15379E441F2A16Cb943D385a4695f",
    "0xCc933a862fc15379E441F2A16Cb943D385a4695f",
    "0xa4519D601F43D0b8f167842a367465681F652252",
    "0x60927eB036621b801491B6c5e9A60A8d2dEeD75A",
    "0x245b4a61a14c6d5f48240b1d108a00e9fdfb75fa4b545858ea3f45887a3ce3de",
    1654866000,
    "0xB7060D3FeCAC3AE1F0A0AA416E3e8E472257950e",
    2000,
    "0x0000000000000000000000000000000000000000",
    "0x8055a2c0f7EB177BeaB357B70E6504402d2b5fF6",
    "0x5983532A5b9009E05428595b87F19e42068a232B"
  ],
  "linkedData": [
    {
      "x": 120,
      "y": 354,
      "size": 1,
      "price": "1011000000000000000000",
      "reserved": "",
      "salt": "0x038fcab959284527d3aea79647d25543df3a3e34763cd9bdbf4239650f208d20",
      "assetIds": []
    },
    {
      "x": 120,
      "y": 355,
      "size": 1,
      "price": "1011000000000000000000",
      "reserved": "",
      "salt": "0xfcd3e8c13d9e063c840e34d44650a3f8db6f7c12b8b2ec88e67fdb3c245c6857",
      "assetIds": []
    },
    {
      "x": 120,
      "y": 356,
      "size": 1,
      "price": "1011000000000000000000",
      "reserved": "",
      "salt": "0x2a00ef363308eaa87bbbb07b0b31f8ca93669fee0755c366f7bf151ff54e7c76",
      "assetIds": []
    },
    {
      "x": 120,
      "y": 357,
      "size": 1,
      "price": "1011000000000000000000",
      "reserved": "",
      "salt": "0x2cbade1de19cf65fc9d3739ef5a8837c2416b2bbf3312e3a6752ed0bb9845a38",
      "assetIds": []
    },
    {
      "x": 120,
      "y": 358,
      "size": 1,
      "price": "1011000000000000000000",
      "reserved": "",
      "salt": "0x07839607f1c4bf272daf358f08d21fe5bbb7ec44101e91b40cfcadadbf2ab5f4",
      "assetIds": []
    },
    {
      "x": 120,
      "y": 359,
      "size": 1,
      "price": "1011000000000000000000",
      "reserved": "",
      "salt": "0x4d29185d148012161761f3ffe23663fd1808224cbede80ba64cd5cd14c31888a",
      "assetIds": []
    },
    {
      "x": 120,
      "y": 366,
      "size": 1,
      "price": "1011000000000000000000",
      "reserved": "",
      "salt": "0x294097bf0880428e017733763a8ca91ff0db67be0b04f54a15ca433ed18fdd68",
      "assetIds": []
    },
    {
      "x": 120,
      "y": 367,
      "size": 1,
      "price": "1011000000000000000000",
      "reserved": "",
      "salt": "0x4eb74902a474f3c24172aefdcbf41f2c171ab6e0bc5c1d27458d6f66c1218af3",
      "assetIds": []
    },
    {
      "x": 120,
      "y": 368,
      "size": 1,
      "price": "1011000000000000000000",
      "reserved": "",
      "salt": "0xd541eeb849809155dd110cdf7d2000baafe33a86eb529979d7fcc0cb35f8281b",
      "assetIds": []
    },
    {
      "x": 120,
      "y": 369,
      "size": 1,
      "price": "1011000000000000000000",
      "reserved": "",
      "salt": "0x51f413313f8122a04bccdffa900ca4ca5d41b9d462d81462076992f008ac9edf",
      "assetIds": []
    },
    {
      "x": 120,
      "y": 370,
      "size": 1,
      "price": "1011000000000000000000",
      "reserved": "",
      "salt": "0x58e0617cdb5ee0baec18e045cb67381af47065c5780d41a686c49310bd6c0c28",
      "assetIds": []
    },
    {
      "x": 120,
      "y": 371,
      "size": 1,
      "price": "1011000000000000000000",
      "reserved": "",
      "salt": "0xea01fd7ac42f5c3a84bb612735766869c145b2fce10bee9191007fce3586d7cb",
      "assetIds": []
    },
    {
      "x": 120,
      "y": 378,
      "size": 1,
      "price": "4683000000000000000000",
      "reserved": "",
      "salt": "0x6182f17ec4be4d3378508f20c1b519ee1b84af8b66bbdcd81576253a7c0abcca",
      "assetIds": [
        "41506478881403507969696680653240014914910929820314476107906210059990541021186"
      ]
    },
    {
      "x": 120,
      "y": 379,
      "size": 1,
      "price": "1011000000000000000000",
      "reserved": "",
      "salt": "0x2e33d21acc6556b23206461a10be4cafe59b9b0192365b1b5931852e9a9c73f3",
      "assetIds": []
    },
    {
      "x": 120,
      "y": 380,
      "size": 1,
      "price": "1011000000000000000000",
      "reserved": "0x7a9fe22691c811ea339d9b73150e6911a5343dca",
      "salt": "0x9d70141ce22e47bec75c4db03d2051a4a11787f63cee645299b7e13060fd1408",
      "assetIds": []
    },
    {
      "x": 120,
      "y": 381,
      "size": 1,
      "price": "1011000000000000000000",
      "reserved": "",
      "salt": "0xd6758bcc3b1c72cc9f5c46673786abf6489afbb9c236eaa70827f313c1e21e57",
      "assetIds": []
    },
    {
      "x": 120,
      "y": 382,
      "size": 1,
      "price": "1011000000000000000000",
      "reserved": "",
      "salt": "0x331d53241ed8e383a6f77b15ee736a36ad7a5c994208f66c2a6bc72751b123bb",
      "assetIds": []
    },
    {
      "x": 120,
      "y": 383,
      "size": 1,
      "price": "1011000000000000000000",
      "reserved": "",
      "salt": "0xcc3a8fe9cb5b962f3124d297abfbc57aacb1e6c3b216a29a2bbcf470a7596b82",
      "assetIds": []
    },
    {
      "x": 120,
      "y": 384,
      "size": 1,
      "price": "4683000000000000000000",
      "reserved": "",
      "salt": "0x6df07e4c765bf1d8e80faa7a040f0d3b1535cb37d05c8abea96ee7cd682801e3",
      "assetIds": [
        "41506478881403507969696680653240014914910929820314476107906210059990541021186"
      ]
    },
    {
      "x": 120,
      "y": 385,
      "size": 1,
      "price": "4683000000000000000000",
      "reserved": "",
      "salt": "0xfc9e5eeec5ad8d6c050e3599e541ab4b186a46c5aec40c2228febc991ac589f5",
      "assetIds": [
        "41506478881403507969696680653240014914910929820314476107906210059990541021186"
      ]
    },
    {
      "x": 120,
      "y": 386,
      "size": 1,
      "price": "4683000000000000000000",
      "reserved": "",
      "salt": "0xb4c3d8b53fb70d5715dcb3115bc653e23b0e42c2a6f4c9b69abaf8db65cfc2e2",
      "assetIds": [
        "41506478881403507969696680653240014914910929820314476107906210059990541021186"
      ]
    },
    {
      "x": 120,
      "y": 390,
      "size": 1,
      "price": "4683000000000000000000",
      "reserved": "",
      "salt": "0x653e0cf2e243cefc55e77b2424a001e0f859e065b38c118778a9e891e9ce4038",
      "assetIds": [
        "41506478881403507969696680653240014914910929820314476107906210059990541021186"
      ]
    },
    {
      "x": 120,
      "y": 391,
      "size": 1,
      "price": "4683000000000000000000",
      "reserved": "",
      "salt": "0x806aa3e72bbc4033b2310ea73d5e99bfc4efbe947a72b924564f90b89d588fa1",
      "assetIds": [
        "41506478881403507969696680653240014914910929820314476107906210059990541021186"
      ]
    },
    {
      "x": 120,
      "y": 392,
      "size": 1,
      "price": "4683000000000000000000",
      "reserved": "",
      "salt": "0x7644f7c66bd9ae2e9ed368f116e8ed5827f043c74ec043b53fd0afbde3d1e3d6",
      "assetIds": [
        "41506478881403507969696680653240014914910929820314476107906210059990541021186"
      ]
    },
    {
      "x": 121,
      "y": 354,
      "size": 1,
      "price": "1011000000000000000000",
      "reserved": "",
      "salt": "0x958fa57f7d41792468c0b31fbc51001f4028b882e1a42456a580a4acc106faa6",
      "assetIds": []
    },
    {
      "x": 121,
      "y": 355,
      "size": 1,
      "price": "1011000000000000000000",
      "reserved": "",
      "salt": "0x1bffff82f78b781fe21aca67978449f14a029ad47e3cdf0bbe5521338a804c8e",
      "assetIds": []
    },
    {
      "x": 121,
      "y": 356,
      "size": 1,
      "price": "1011000000000000000000",
      "reserved": "0x7a9fe22691c811ea339d9b73150e6911a5343dca",
      "salt": "0x5bb519f20e2f646b2ab82484637186b83e5f4dba76a6df74923b940bb1c91ccd",
      "assetIds": []
    },
    {
      "x": 121,
      "y": 357,
      "size": 1,
      "price": "1011000000000000000000",
      "reserved": "",
      "salt": "0x647a96d30fd892022f8ee7f7e9832bd5d150a474405fa193c75f16264a1c362f",
      "assetIds": []
    },
    {
      "x": 121,
      "y": 358,
      "size": 1,
      "price": "1011000000000000000000",
      "reserved": "",
      "salt": "0x571f65f7b237642c9fa08e723f073f278a179b50a5af608a07c2172aae633546",
      "assetIds": []
    },
    {
      "x": 121,
      "y": 359,
      "size": 1,
      "price": "1011000000000000000000",
      "reserved": "",
      "salt": "0x2855b36047bdaf2497bea070ca9eae6d85b898b5f9967c2062a0a015c96ba62d",
      "assetIds": []
    },
    {
      "x": 121,
      "y": 366,
      "size": 1,
      "price": "1011000000000000000000",
      "reserved": "",
      "salt": "0x27e26169cfff2ef32bbf907dd5abc4ff5f130614076361c4531437d3d0bc0731",
      "assetIds": []
    },
    {
      "x": 121,
      "y": 367,
      "size": 1,
      "price": "1011000000000000000000",
      "reserved": "0x7a9fe22691c811ea339d9b73150e6911a5343dca",
      "salt": "0xcc9f10f79b1fe5993d7ee15cc797eeeeff1aeb14bcac52f81089e95c85e4f77b",
      "assetIds": []
    },
    {
      "x": 121,
      "y": 368,
      "size": 1,
      "price": "1011000000000000000000",
      "reserved": "",
      "salt": "0x54a611d71ee7a0af360a8b98c1bd1aa17f8bda3716cd71772b80f60f54cbf5c1",
      "assetIds": []
    },
    {
      "x": 121,
      "y": 369,
      "size": 1,
      "price": "1011000000000000000000",
      "reserved": "",
      "salt": "0x6272dc7f7cc540de50ce9ce444cfa09a05bd7fa96d2dfc825bd1724f5fc8226a",
      "assetIds": []
    },
    {
      "x": 121,
      "y": 370,
      "size": 1,
      "price": "1011000000000000000000",
      "reserved": "",
      "salt": "0x5d009bac7d76ca208c784e755d0e9cecba87046b3ac2c093c0d6c4b8a19e9a7a",
      "assetIds": []
    },
    {
      "x": 121,
      "y": 371,
      "size": 1,
      "price": "1011000000000000000000",
      "reserved": "0x7a9fe22691c811ea339d9b73150e6911a5343dca",
      "salt": "0x9d93d3682e6ef016ed20edfdd529ab38127eb9a157410385d89c0a4630067fc7",
      "assetIds": []
    },
    {
      "x": 121,
      "y": 378,
      "size": 1,
      "price": "4683000000000000000000",
      "reserved": "",
      "salt": "0x0bf092d3abe33c035478f6a751e8015dba5989a95c6aaa604a94cee38a9912ea",
      "assetIds": [
        "41506478881403507969696680653240014914910929820314476107906210059990541021186"
      ]
    },
    {
      "x": 121,
      "y": 379,
      "size": 1,
      "price": "1011000000000000000000",
      "reserved": "",
      "salt": "0x7d9ef46c3f6a78cd17d9878e1b0c7b967b35e2b52730f8f0fa73941f016877ff",
      "assetIds": []
    },
    {
      "x": 121,
      "y": 380,
      "size": 1,
      "price": "1011000000000000000000",
      "reserved": "",
      "salt": "0xac2d9bb5102829b328e5c7fbdca0dc041ee1698ec311305cd2cea5f6944101b1",
      "assetIds": []
    },
    {
      "x": 121,
      "y": 381,
      "size": 1,
      "price": "1011000000000000000000",
      "reserved": "",
      "salt": "0xdf4c7c13e2c73970b4ea80e0a649bcde235bddc5457f05f8d13d472d00b639f4",
      "assetIds": []
    },
    {
      "x": 121,
      "y": 382,
      "size": 1,
      "price": "1011000000000000000000",
      "reserved": "",
      "salt": "0xd60c506dcac6829611a9f007d6bbe1bfc4d2510cd8cdde646986965b8c8a9fdc",
      "assetIds": []
    },
    {
      "x": 121,
      "y": 383,
      "size": 1,
      "price": "1011000000000000000000",
      "reserved": "",
      "salt": "0x24c76f5eca8b2278f9f76745ad1c73aa31336e8e7bc912700951b265528f0ae5",
      "assetIds": []
    },
    {
      "x": 121,
      "y": 384,
      "size": 1,
      "price": "1011000000000000000000",
      "reserved": "0x7a9fe22691c811ea339d9b73150e6911a5343dca",
      "salt": "0x4f06a982f5b866c1c6d893660d521e9eb81ba531b4874b5ee031c4e1b7a6854f",
      "assetIds": []
    },
    {
      "x": 121,
      "y": 385,
      "size": 1,
      "price": "4683000000000000000000",
      "reserved": "",
      "salt": "0x37428cd1501eb495e67c5852cf53e3ad61cfca86ff096232f13890dd7651ad67",
      "assetIds": [
        "41506478881403507969696680653240014914910929820314476107906210059990541021186"
      ]
    },
    {
      "x": 121,
      "y": 386,
      "size": 1,
      "price": "4683000000000000000000",
      "reserved": "",
      "salt": "0xcf89999e4c90b976d3bfb3dab62196bdce643050f466d5eb79fcba12e45f21e8",
      "assetIds": [
        "41506478881403507969696680653240014914910929820314476107906210059990541021186"
      ]
    },
    {
      "x": 121,
      "y": 390,
      "size": 1,
      "price": "4683000000000000000000",
      "reserved": "",
      "salt": "0x2f09dd158703c01cc707dbfc414493de00ed2063d3d8aa850415b6988afff65c",
      "assetIds": [
        "41506478881403507969696680653240014914910929820314476107906210059990541021186"
      ]
    },
    {
      "x": 121,
      "y": 391,
      "size": 1,
      "price": "4683000000000000000000",
      "reserved": "",
      "salt": "0x19731d053873584f4ee5e49456ad90143933dbfd5ecb0f5133707546a3036599",
      "assetIds": [
        "41506478881403507969696680653240014914910929820314476107906210059990541021186"
      ]
    },
    {
      "x": 121,
      "y": 392,
      "size": 1,
      "price": "4683000000000000000000",
      "reserved": "",
      "salt": "0x383f453e166f0f4075142f7476b8e4dff6001a0a5ab00d1806db0e732fb8a75d",
      "assetIds": [
        "41506478881403507969696680653240014914910929820314476107906210059990541021186"
      ]
    },
    {
      "x": 122,
      "y": 354,
      "size": 1,
      "price": "1011000000000000000000",
      "reserved": "",
      "salt": "0x66e8800b933f059fb42398c6d69d23ce9ac18073022ee74319255313e07cce87",
      "assetIds": []
    },
    {
      "x": 122,
      "y": 355,
      "size": 1,
      "price": "1011000000000000000000",
      "reserved": "",
      "salt": "0x8811b2a3ec8976fcd900fc5bb55540fdbc906e00558dbe263beb0f93ea4b0f81",
      "assetIds": []
    },
    {
      "x": 122,
      "y": 356,
      "size": 1,
      "price": "1011000000000000000000",
      "reserved": "",
      "salt": "0x26def01329b27bb79ced55fd3ae88041676ad467c1d441f70b0fe0c7b205296f",
      "assetIds": []
    },
    {
      "x": 122,
      "y": 357,
      "size": 1,
      "price": "1011000000000000000000",
      "reserved": "",
      "salt": "0x6dfce348cdbd8ef778a6c1da5c733b7233e759e43f156927c022a8ed8051ec78",
      "assetIds": []
    },
    {
      "x": 122,
      "y": 358,
      "size": 1,
      "price": "1011000000000000000000",
      "reserved": "",
      "salt": "0xe21bc0b35883bba7ac7ac17b08d3f0f30b5b0d357b2c2404044cceaa111954ad",
      "assetIds": []
    },
    {
      "x": 122,
      "y": 359,
      "size": 1,
      "price": "1011000000000000000000",
      "reserved": "",
      "salt": "0xe53514dafcae4068378c86c2d03ac86007d125566660b7869f8e0a197f9e6b27",
      "assetIds": []
    },
    {
      "x": 122,
      "y": 366,
      "size": 1,
      "price": "1011000000000000000000",
      "reserved": "",
      "salt": "0x3e5acbda72d11f0765f01cbe36914c45720ebb4c1190ec480ca752fa8a316dee",
      "assetIds": []
    },
    {
      "x": 122,
      "y": 367,
      "size": 1,
      "price": "1011000000000000000000",
      "reserved": "",
      "salt": "0x35b02f069c87b0a8fcd5b0b6545bdf0d9ea1ac20bdf055295b71401f212545af",
      "assetIds": []
    },
    {
      "x": 122,
      "y": 368,
      "size": 1,
      "price": "1011000000000000000000",
      "reserved": "",
      "salt": "0xc2e38e7717428313dd3ac22d3bd86526dc113477eb09ec18cddb9d6551d9779d",
      "assetIds": []
    },
    {
      "x": 122,
      "y": 369,
      "size": 1,
      "price": "1011000000000000000000",
      "reserved": "",
      "salt": "0xf7cf1079f4cc59753c30a667dd418719b8a3050c13cca9da063018779be57026",
      "assetIds": []
    },
    {
      "x": 122,
      "y": 370,
      "size": 1,
      "price": "1011000000000000000000",
      "reserved": "",
      "salt": "0x9e886a973a5bfe33dcd87ff2ccb4bb865dd619638c10331df145a593341a94c3",
      "assetIds": []
    },
    {
      "x": 122,
      "y": 371,
      "size": 1,
      "price": "1011000000000000000000",
      "reserved": "",
      "salt": "0xe1f9bb70d501f0d558c10ec87ad68ed408eca66f7273d295c65a183da67a6873",
      "assetIds": []
    },
    {
      "x": 122,
      "y": 378,
      "size": 1,
      "price": "4683000000000000000000",
      "reserved": "",
      "salt": "0xacfa68b0333b78931fae64fc0b7bda61eee9871a691c708614c21efb046f6a38",
      "assetIds": [
        "41506478881403507969696680653240014914910929820314476107906210059990541021186"
      ]
    },
    {
      "x": 122,
      "y": 379,
      "size": 1,
      "price": "1011000000000000000000",
      "reserved": "",
      "salt": "0x81d3d7d4188a8a89139bd08ae811f8cb32e41ef9f3c93f0ad43a145f6c06b2ca",
      "assetIds": []
    },
    {
      "x": 122,
      "y": 380,
      "size": 1,
      "price": "1011000000000000000000",
      "reserved": "0x7a9fe22691c811ea339d9b73150e6911a5343dca",
      "salt": "0x315d86696a5e1ef53a3d9504ced053a464959069b40d8ee4e05ea0ee8c2a286f",
      "assetIds": []
    },
    {
      "x": 122,
      "y": 381,
      "size": 1,
      "price": "1011000000000000000000",
      "reserved": "0x7a9fe22691c811ea339d9b73150e6911a5343dca",
      "salt": "0x5c0743915404870c6df29abef2e87dcda992abb0f2dd5cddf10695d10ec317e2",
      "assetIds": []
    },
    {
      "x": 122,
      "y": 382,
      "size": 1,
      "price": "1011000000000000000000",
      "reserved": "",
      "salt": "0x9485cff51ac4ab0b039fb967857e0d69e954d578ee7a24956ad573ae5eaefc80",
      "assetIds": []
    },
    {
      "x": 122,
      "y": 383,
      "size": 1,
      "price": "1011000000000000000000",
      "reserved": "",
      "salt": "0x5579e936689c0aa4ed936a299e81d3ae53f30e03a47480977842fde1bb876fcc",
      "assetIds": []
    },
    {
      "x": 122,
      "y": 384,
      "size": 1,
      "price": "1011000000000000000000",
      "reserved": "",
      "salt": "0xec036848b162392c36f41600334e7d62109527612288ac5a0c479a0fe69dcbbb",
      "assetIds": []
    },
    {
      "x": 122,
      "y": 385,
      "size": 1,
      "price": "4683000000000000000000",
      "reserved": "",
      "salt": "0x493f9d63a5667d5b79fd88a19e679bb87ff5384615e116c6bf3d826bf9bc6b75",
      "assetIds": [
        "41506478881403507969696680653240014914910929820314476107906210059990541021186"
      ]
    },
    {
      "x": 122,
      "y": 386,
      "size": 1,
      "price": "4683000000000000000000",
      "reserved": "",
      "salt": "0xa4df8b86d39d0d4dc6761962d639404c3c62f3755bbb45bbaee54d15d8c21163",
      "assetIds": [
        "41506478881403507969696680653240014914910929820314476107906210059990541021186"
      ]
    },
    {
      "x": 122,
      "y": 390,
      "size": 1,
      "price": "4683000000000000000000",
      "reserved": "",
      "salt": "0xabd983b9225f6e5e289edbfb3d0bad6d22dba0c06756bf5ded693d4359a1089f",
      "assetIds": [
        "41506478881403507969696680653240014914910929820314476107906210059990541021186"
      ]
    },
    {
      "x": 122,
      "y": 391,
      "size": 1,
      "price": "4683000000000000000000",
      "reserved": "",
      "salt": "0x8c1e859f71865c46aaefca0b4b15574fc1a025ac8f10cdc7346c24db48e3d309",
      "assetIds": [
        "41506478881403507969696680653240014914910929820314476107906210059990541021186"
      ]
    },
    {
      "x": 122,
      "y": 392,
      "size": 1,
      "price": "4683000000000000000000",
      "reserved": "",
      "salt": "0x9be37d019a094cc10925ec9417cf2cddd86f3781356b81317f7ecaded4d0b828",
      "assetIds": [
        "41506478881403507969696680653240014914910929820314476107906210059990541021186"
      ]
    },
    {
      "x": 123,
      "y": 354,
      "size": 1,
      "price": "1011000000000000000000",
      "reserved": "",
      "salt": "0x93e3ee9c598ac5793013d0d7bd171c9ff3a75eaf5766fc8000d5906e28be49c6",
      "assetIds": []
    },
    {
      "x": 123,
      "y": 355,
      "size": 1,
      "price": "1011000000000000000000",
      "reserved": "",
      "salt": "0x7bce80eb45b797b6b6eebb063a80c7542a63e14171e086a54c65bd36a7a9f874",
      "assetIds": []
    },
    {
      "x": 123,
      "y": 356,
      "size": 1,
      "price": "1011000000000000000000",
      "reserved": "",
      "salt": "0xa2d06e9e0c06b762344ec3da18616637783c5d41d468ae337a802fbd87a0ba69",
      "assetIds": []
    },
    {
      "x": 123,
      "y": 357,
      "size": 1,
      "price": "1011000000000000000000",
      "reserved": "",
      "salt": "0x293a920a97133ad491d446b5b1de212f654f1aca5133041f7f6786e0b11b6a78",
      "assetIds": []
    },
    {
      "x": 123,
      "y": 358,
      "size": 1,
      "price": "1011000000000000000000",
      "reserved": "0x7a9fe22691c811ea339d9b73150e6911a5343dca",
      "salt": "0xc25a0a1c33ef30ff0943ecdefa476447d21419e292372120dd3007e9d7d4a4a0",
      "assetIds": []
    },
    {
      "x": 123,
      "y": 359,
      "size": 1,
      "price": "1011000000000000000000",
      "reserved": "",
      "salt": "0x7b5d05011568bc235508b70bdecb7349a4f6d635a535b97ad2c349931a7b7db6",
      "assetIds": []
    },
    {
      "x": 123,
      "y": 366,
      "size": 1,
      "price": "1011000000000000000000",
      "reserved": "",
      "salt": "0x8dc9a473bd4512c901494fd7be09c2f3914ec9dff2b4bdbe3d7f648aeca0a6b0",
      "assetIds": []
    },
    {
      "x": 123,
      "y": 367,
      "size": 1,
      "price": "1011000000000000000000",
      "reserved": "",
      "salt": "0xde4ef8527e9c5aa40dcb57e6bf19284efb080ac0640a2153af4e5aff22ff4bbe",
      "assetIds": []
    },
    {
      "x": 123,
      "y": 368,
      "size": 1,
      "price": "1011000000000000000000",
      "reserved": "",
      "salt": "0xa106bd2968b1440c3e17acf8db443ecb337a76b6e76bf210cccd88bf06946c91",
      "assetIds": []
    },
    {
      "x": 123,
      "y": 369,
      "size": 1,
      "price": "1011000000000000000000",
      "reserved": "",
      "salt": "0x7fca9fc384aeb26cf40e81781a5f37151f8fe192fca04fb9b677d5f14be80c2e",
      "assetIds": []
    },
    {
      "x": 123,
      "y": 370,
      "size": 1,
      "price": "1011000000000000000000",
      "reserved": "",
      "salt": "0x9dc5c0e3ce79cbb4aedae2e3ad161c55b9547312130b78b22b669f3b6e0887cf",
      "assetIds": []
    },
    {
      "x": 123,
      "y": 371,
      "size": 1,
      "price": "1011000000000000000000",
      "reserved": "",
      "salt": "0xf5ab0ee839bffe4437240012f0299695d598e47ed8452ec2d1fd8f56697fa228",
      "assetIds": []
    },
    {
      "x": 123,
      "y": 372,
      "size": 1,
      "price": "1011000000000000000000",
      "reserved": "0x7a9fe22691c811ea339d9b73150e6911a5343dca",
      "salt": "0x0634c012f62b524e1842dbdb15847a19b4db40fb32f5bed330728303513acf6b",
      "assetIds": []
    },
    {
      "x": 123,
      "y": 373,
      "size": 1,
      "price": "1011000000000000000000",
      "reserved": "0x7a9fe22691c811ea339d9b73150e6911a5343dca",
      "salt": "0xa7185f455d11741f4e64dcbe404a57b9da2477147426aa57f93c4d7989361f7c",
      "assetIds": []
    },
    {
      "x": 123,
      "y": 374,
      "size": 1,
      "price": "4683000000000000000000",
      "reserved": "",
      "salt": "0x72a4d06a435248723e38ba8a33a05354667ff014880320705703b931741863e3",
      "assetIds": [
        "41506478881403507969696680653240014914910929820314476107906210059990541021186"
      ]
    },
    {
      "x": 123,
      "y": 375,
      "size": 1,
      "price": "4683000000000000000000",
      "reserved": "",
      "salt": "0x02a3388b36fe96a216984dd1f71fd8b32d5200e9cf378a5614f2e97c78b3df44",
      "assetIds": [
        "41506478881403507969696680653240014914910929820314476107906210059990541021186"
      ]
    },
    {
      "x": 123,
      "y": 376,
      "size": 1,
      "price": "4683000000000000000000",
      "reserved": "",
      "salt": "0x9f2572027be875e0cd505dda5e845388b915a56f49faf07c3d7468852cada658",
      "assetIds": [
        "41506478881403507969696680653240014914910929820314476107906210059990541021186"
      ]
    },
    {
      "x": 123,
      "y": 377,
      "size": 1,
      "price": "4683000000000000000000",
      "reserved": "",
      "salt": "0x8e4993f6baf420bb6efc6a66157067868ca8402838354f45786f32ae198b12fa",
      "assetIds": [
        "41506478881403507969696680653240014914910929820314476107906210059990541021186"
      ]
    },
    {
      "x": 123,
      "y": 381,
      "size": 1,
      "price": "1011000000000000000000",
      "reserved": "",
      "salt": "0x7dd66cd0723aef0e51af1e54627dd5b4db353c7d694d86fc5069bf3505e0811e",
      "assetIds": []
    },
    {
      "x": 123,
      "y": 382,
      "size": 1,
      "price": "1011000000000000000000",
      "reserved": "0x7a9fe22691c811ea339d9b73150e6911a5343dca",
      "salt": "0xe71ff384e9cc9058eef266749474a3422d81d00723ae5e724c1d5b7c319a88c1",
      "assetIds": []
    },
    {
      "x": 123,
      "y": 383,
      "size": 1,
      "price": "1011000000000000000000",
      "reserved": "",
      "salt": "0x3a51e6d71fe246f5833e4a29e2b7b49718e79bb91022735245d18c22b39c47e8",
      "assetIds": []
    },
    {
      "x": 123,
      "y": 384,
      "size": 1,
      "price": "1011000000000000000000",
      "reserved": "0x7a9fe22691c811ea339d9b73150e6911a5343dca",
      "salt": "0xcf737c4b6a9b9f5282425624793e03ee4fb99810b0d79243232062b3bfea54f9",
      "assetIds": []
    },
    {
      "x": 123,
      "y": 385,
      "size": 1,
      "price": "4683000000000000000000",
      "reserved": "",
      "salt": "0x682177b42572cc3240385492d3d2ecb67a2ba10db96cd61a0f2ef54220c409ac",
      "assetIds": [
        "41506478881403507969696680653240014914910929820314476107906210059990541021186"
      ]
    },
    {
      "x": 123,
      "y": 386,
      "size": 1,
      "price": "4683000000000000000000",
      "reserved": "",
      "salt": "0x7475792224ed15a55ce814aae26241c130cc4bce85c66e0b5d1a77aaedf63dfc",
      "assetIds": [
        "41506478881403507969696680653240014914910929820314476107906210059990541021186"
      ]
    },
    {
      "x": 123,
      "y": 387,
      "size": 1,
      "price": "4683000000000000000000",
      "reserved": "",
      "salt": "0x0ed7174b86f8462ae0be96084188ebe89f16b12cfe2d98b43d04682cd4975448",
      "assetIds": [
        "41506478881403507969696680653240014914910929820314476107906210059990541021186"
      ]
    },
    {
      "x": 123,
      "y": 388,
      "size": 1,
      "price": "4683000000000000000000",
      "reserved": "",
      "salt": "0x3a96451e89a28ee8b68a18fdbc93a9bccc9965d4c5e28ed5d86fe5ce02dd7aa9",
      "assetIds": [
        "41506478881403507969696680653240014914910929820314476107906210059990541021186"
      ]
    },
    {
      "x": 123,
      "y": 389,
      "size": 1,
      "price": "4683000000000000000000",
      "reserved": "",
      "salt": "0xc9e583f27cd6c3f94c696a8a47f4453b031191cf360189d6f436f159cca4019c",
      "assetIds": [
        "41506478881403507969696680653240014914910929820314476107906210059990541021186"
      ]
    },
    {
      "x": 123,
      "y": 390,
      "size": 1,
      "price": "4683000000000000000000",
      "reserved": "",
      "salt": "0xe8d81d961e868a21f90c517b16b8ca3b07dee2a1951a2f8030858eec94a23310",
      "assetIds": [
        "41506478881403507969696680653240014914910929820314476107906210059990541021186"
      ]
    },
    {
      "x": 123,
      "y": 391,
      "size": 1,
      "price": "4683000000000000000000",
      "reserved": "",
      "salt": "0xa9400e460d247e439e0c5e1783f14aeace3b0b0271fd6b1a465a63091b9dca45",
      "assetIds": [
        "41506478881403507969696680653240014914910929820314476107906210059990541021186"
      ]
    },
    {
      "x": 123,
      "y": 392,
      "size": 1,
      "price": "4683000000000000000000",
      "reserved": "",
      "salt": "0xeb77dedf4b8c1f969fdcf118439bcb1c92aec8203084a60124f080ff2c26dcea",
      "assetIds": [
        "41506478881403507969696680653240014914910929820314476107906210059990541021186"
      ]
    },
    {
      "x": 123,
      "y": 393,
      "size": 1,
      "price": "4683000000000000000000",
      "reserved": "",
      "salt": "0x44054db86b578a509856d42a268edae5f8acfee6d875cd949dc5d2047460c5dd",
      "assetIds": [
        "41506478881403507969696680653240014914910929820314476107906210059990541021186"
      ]
    },
    {
      "x": 123,
      "y": 394,
      "size": 1,
      "price": "4683000000000000000000",
      "reserved": "",
      "salt": "0xa1c53abf4267a1c89eeeb2d4e96e71f068f50a36190b2a041a5431d8b90776ec",
      "assetIds": [
        "41506478881403507969696680653240014914910929820314476107906210059990541021186"
      ]
    },
    {
      "x": 123,
      "y": 395,
      "size": 1,
      "price": "4683000000000000000000",
      "reserved": "",
      "salt": "0x13cb1e7323ceadaf541ac6be808072ab4670e25f894226fe0ba1accbe7a1e193",
      "assetIds": [
        "41506478881403507969696680653240014914910929820314476107906210059990541021186"
      ]
    },
    {
      "x": 124,
      "y": 354,
      "size": 1,
      "price": "1011000000000000000000",
      "reserved": "",
      "salt": "0xbc79fda9ee35b9f446b179f3016f69e3b3615e7103ebd37c4fa9aea9e4bacfb9",
      "assetIds": []
    },
    {
      "x": 124,
      "y": 355,
      "size": 1,
      "price": "1011000000000000000000",
      "reserved": "",
      "salt": "0x6eb73537f3e623f59b22c436edf59857061353debd0d769dfb0802c635e82212",
      "assetIds": []
    },
    {
      "x": 124,
      "y": 356,
      "size": 1,
      "price": "1011000000000000000000",
      "reserved": "",
      "salt": "0x15c46c90e0fd81ded9358b43e754359a02fcbab004ea66bd46c8bf6642ed6430",
      "assetIds": []
    },
    {
      "x": 124,
      "y": 357,
      "size": 1,
      "price": "1011000000000000000000",
      "reserved": "",
      "salt": "0xa1f7f464218d5b509f8a4916939c127da6859640ec329cb9edc4630a6fe852c9",
      "assetIds": []
    },
    {
      "x": 124,
      "y": 358,
      "size": 1,
      "price": "1011000000000000000000",
      "reserved": "",
      "salt": "0x9f521f07bc159a859c319e46d6cccc7eda57af894add185bf9fa464404e41b41",
      "assetIds": []
    },
    {
      "x": 124,
      "y": 359,
      "size": 1,
      "price": "1011000000000000000000",
      "reserved": "",
      "salt": "0x00d7d6e7b67b528ad951f51f30483bb07e8f1e33255bc704a7a0971f5396a2ac",
      "assetIds": []
    },
    {
      "x": 124,
      "y": 366,
      "size": 1,
      "price": "1011000000000000000000",
      "reserved": "",
      "salt": "0x1b803b4c3d2447cda4b4ef5d591353865c73cbca056c26d07ddf3d9cc34c3e39",
      "assetIds": []
    },
    {
      "x": 124,
      "y": 367,
      "size": 1,
      "price": "1011000000000000000000",
      "reserved": "",
      "salt": "0x0e7d3d4026585a2fe68446db18061fce62ac608a50ae8d68c6686763d0029a3a",
      "assetIds": []
    },
    {
      "x": 124,
      "y": 368,
      "size": 1,
      "price": "1011000000000000000000",
      "reserved": "0x7a9fe22691c811ea339d9b73150e6911a5343dca",
      "salt": "0x298b494db249f170587b53b62d24343aa77632ffc19a84d03fcc9bbebbb808dd",
      "assetIds": []
    },
    {
      "x": 124,
      "y": 369,
      "size": 1,
      "price": "1011000000000000000000",
      "reserved": "",
      "salt": "0x7179f1616fcbaa0239a45abd4e7cd13fc7c54092c8ccbf06dfc45a79d5047f2e",
      "assetIds": []
    },
    {
      "x": 124,
      "y": 370,
      "size": 1,
      "price": "1011000000000000000000",
      "reserved": "0x7a9fe22691c811ea339d9b73150e6911a5343dca",
      "salt": "0x368529dcfd4b07c3364b84602f653fc7388fcbd62d582967eadc042e10392891",
      "assetIds": []
    },
    {
      "x": 124,
      "y": 371,
      "size": 1,
      "price": "1011000000000000000000",
      "reserved": "",
      "salt": "0x12b8e1622ba802fa25339492e5d53755c153c558c6f9d9fc020e183169f07462",
      "assetIds": []
    },
    {
      "x": 124,
      "y": 372,
      "size": 1,
      "price": "1011000000000000000000",
      "reserved": "",
      "salt": "0x8c725f8c153e7453118d8f067f0a560e652d36dc3bf6cba9011b0c11f3d1836d",
      "assetIds": []
    },
    {
      "x": 124,
      "y": 373,
      "size": 1,
      "price": "1011000000000000000000",
      "reserved": "",
      "salt": "0x6b284768b6288f276e0dfa62de0ebe6ccc08aa35b650df456f6efe102a12a94b",
      "assetIds": []
    },
    {
      "x": 124,
      "y": 374,
      "size": 1,
      "price": "1011000000000000000000",
      "reserved": "0x7a9fe22691c811ea339d9b73150e6911a5343dca",
      "salt": "0x2d0aa4eda1c000126bcca762707ed5f146f93fca9178d2f62a4fe06355a63688",
      "assetIds": []
    },
    {
      "x": 124,
      "y": 375,
      "size": 1,
      "price": "1011000000000000000000",
      "reserved": "0x7a9fe22691c811ea339d9b73150e6911a5343dca",
      "salt": "0xdfdc0d011aa3ac4dddfda6ac4e1a7ecf6aa4024c29356d2e91d607bdc8a1ad2c",
      "assetIds": []
    },
    {
      "x": 124,
      "y": 376,
      "size": 1,
      "price": "1011000000000000000000",
      "reserved": "",
      "salt": "0x4e6efc2e2b5961884041cdb562f3dda104bbbbfcbb83ecd83d00165c1282fa33",
      "assetIds": []
    },
    {
      "x": 124,
      "y": 377,
      "size": 1,
      "price": "1011000000000000000000",
      "reserved": "0x7a9fe22691c811ea339d9b73150e6911a5343dca",
      "salt": "0xabb4602ebe39d260efb478c56942c46c5b496a8c68f738e696ef60ad28a13979",
      "assetIds": []
    },
    {
      "x": 124,
      "y": 381,
      "size": 1,
      "price": "1011000000000000000000",
      "reserved": "",
      "salt": "0xeee54927a206563e6dcf507941ef5183fa35e39d284697b361880515d7fd92e4",
      "assetIds": []
    },
    {
      "x": 124,
      "y": 382,
      "size": 1,
      "price": "1011000000000000000000",
      "reserved": "",
      "salt": "0xca127d56239f635c4db34ebf57d8c5472a87e76f81df430573285fc6c8b3b46e",
      "assetIds": []
    },
    {
      "x": 124,
      "y": 383,
      "size": 1,
      "price": "1011000000000000000000",
      "reserved": "",
      "salt": "0xf8d3f07923a91b53bc7b857e2e78c59f5801c47ccc5fb3bb983a539eb98f7ed6",
      "assetIds": []
    },
    {
      "x": 124,
      "y": 384,
      "size": 1,
      "price": "1011000000000000000000",
      "reserved": "",
      "salt": "0xf4638a97fafccf21597d61951fe7f36ee7184f5b88be97fd2710fc7922a26a9a",
      "assetIds": []
    },
    {
      "x": 124,
      "y": 385,
      "size": 1,
      "price": "4683000000000000000000",
      "reserved": "",
      "salt": "0x6239c1b35456562508595a2dc7b2acad6d73da4945f8df7e629517cc7ea75b9e",
      "assetIds": [
        "41506478881403507969696680653240014914910929820314476107906210059990541021186"
      ]
    },
    {
      "x": 124,
      "y": 386,
      "size": 1,
      "price": "4683000000000000000000",
      "reserved": "",
      "salt": "0x29e7229eb8090f5191f83360bff4b81311171ccaf86979467b66433892ab8eeb",
      "assetIds": [
        "41506478881403507969696680653240014914910929820314476107906210059990541021186"
      ]
    },
    {
      "x": 124,
      "y": 387,
      "size": 1,
      "price": "1011000000000000000000",
      "reserved": "",
      "salt": "0x1fe6e9c880c0b7aaaeeadf1eeb1881b5021ec4393c62194ee929401eb03fa620",
      "assetIds": []
    },
    {
      "x": 124,
      "y": 388,
      "size": 1,
      "price": "4683000000000000000000",
      "reserved": "",
      "salt": "0x60f89f1acb4ede2639dec740bd650084bc3c5da0415895c01f140a035d8ae4c8",
      "assetIds": [
        "41506478881403507969696680653240014914910929820314476107906210059990541021186"
      ]
    },
    {
      "x": 124,
      "y": 389,
      "size": 1,
      "price": "1011000000000000000000",
      "reserved": "",
      "salt": "0x37a57608bf98f28f9daa6d9495b2f88f5f408f18bf76c9e32fd0b32529806eb4",
      "assetIds": []
    },
    {
      "x": 124,
      "y": 390,
      "size": 1,
      "price": "1011000000000000000000",
      "reserved": "",
      "salt": "0x71c56b5738f521117fa90a5d0e5a2d704ffd2e16bca6b857cad9e4cc46313c2b",
      "assetIds": []
    },
    {
      "x": 124,
      "y": 391,
      "size": 1,
      "price": "1011000000000000000000",
      "reserved": "0x7a9fe22691c811ea339d9b73150e6911a5343dca",
      "salt": "0x505acf62e294c3c4276129d9219150249c99ef7b9e46371f05d96754b1fd8118",
      "assetIds": []
    },
    {
      "x": 124,
      "y": 392,
      "size": 1,
      "price": "1011000000000000000000",
      "reserved": "",
      "salt": "0x389f299d0edbc29afe2a163e4ca9a047b9c124db54c386a68903963e4d4161a8",
      "assetIds": []
    },
    {
      "x": 124,
      "y": 393,
      "size": 1,
      "price": "4683000000000000000000",
      "reserved": "",
      "salt": "0xb26341ed7883d6b5609916f06bb85815c3b24584238311268f5b0016e28e7081",
      "assetIds": [
        "41506478881403507969696680653240014914910929820314476107906210059990541021186"
      ]
    },
    {
      "x": 124,
      "y": 394,
      "size": 1,
      "price": "4683000000000000000000",
      "reserved": "",
      "salt": "0xfeed365eee8cfc27e90e1f02cd0a51d69668ad9c6fd584c68e193072810f2189",
      "assetIds": [
        "41506478881403507969696680653240014914910929820314476107906210059990541021186"
      ]
    },
    {
      "x": 124,
      "y": 395,
      "size": 1,
      "price": "4683000000000000000000",
      "reserved": "",
      "salt": "0xb3cfdc8490cd2b21fc95d6a724db2db92e0dd9144edbc7f1456939971019752c",
      "assetIds": [
        "41506478881403507969696680653240014914910929820314476107906210059990541021186"
      ]
    },
    {
      "x": 125,
      "y": 354,
      "size": 1,
      "price": "1011000000000000000000",
      "reserved": "",
      "salt": "0xaf85a7627073938552869d193437a4f3e738e499637b89c4f1930bc3389b5bf0",
      "assetIds": []
    },
    {
      "x": 125,
      "y": 355,
      "size": 1,
      "price": "1011000000000000000000",
      "reserved": "",
      "salt": "0xf7a4c4ea3bb1df831b349e5fb11fe4d2f5d7888feb029eb76766ad9ff3e1ec1f",
      "assetIds": []
    },
    {
      "x": 125,
      "y": 356,
      "size": 1,
      "price": "1011000000000000000000",
      "reserved": "",
      "salt": "0x4bb572b74765e484d01a58b93155434aef9372e52665d6c8279f6e4fe65af278",
      "assetIds": []
    },
    {
      "x": 125,
      "y": 357,
      "size": 1,
      "price": "1011000000000000000000",
      "reserved": "",
      "salt": "0xde522921eab713de51749ac4a34b55f23e9abacaffbfbfa645415b5ef9685ec9",
      "assetIds": []
    },
    {
      "x": 125,
      "y": 358,
      "size": 1,
      "price": "1011000000000000000000",
      "reserved": "",
      "salt": "0x528c6b15bf9b139a00688eb85700f62363e9b66a454ed0018a459da05bd39232",
      "assetIds": []
    },
    {
      "x": 125,
      "y": 359,
      "size": 1,
      "price": "1011000000000000000000",
      "reserved": "",
      "salt": "0xdd7f1efde0764ae3f1b41ddb304326913405ebf9827265b29d358387b53a5d27",
      "assetIds": []
    },
    {
      "x": 125,
      "y": 366,
      "size": 1,
      "price": "1011000000000000000000",
      "reserved": "",
      "salt": "0x86162e830dfe774efbd497c7b4ac4cf8f3886471f2455f2ae6378855251a9ac5",
      "assetIds": []
    },
    {
      "x": 125,
      "y": 367,
      "size": 1,
      "price": "1011000000000000000000",
      "reserved": "",
      "salt": "0x00ff2cfb1e7b1ae00911a52aace43d3bbba29beceaf4046ab0444a64735c6553",
      "assetIds": []
    },
    {
      "x": 125,
      "y": 368,
      "size": 1,
      "price": "1011000000000000000000",
      "reserved": "",
      "salt": "0xafbdd2ae97f024232a062d75cb9691f0e817d605831aa0952a6e9baba6423b6e",
      "assetIds": []
    },
    {
      "x": 125,
      "y": 369,
      "size": 1,
      "price": "1011000000000000000000",
      "reserved": "",
      "salt": "0x648458608af1b1a0cf77d46076d24cd76b0064e2404113e528faba2d3132fc99",
      "assetIds": []
    },
    {
      "x": 125,
      "y": 370,
      "size": 1,
      "price": "1011000000000000000000",
      "reserved": "",
      "salt": "0xe81598a62edded7f8beb24815fd685b6291519f4d4b877bec8973e30bfa487fc",
      "assetIds": []
    },
    {
      "x": 125,
      "y": 371,
      "size": 1,
      "price": "4683000000000000000000",
      "reserved": "",
      "salt": "0x7d1497e2634e39f4799b5785f2a321951e9b37363b8cee424868e8c936f82da1",
      "assetIds": [
        "41506478881403507969696680653240014914910929820314476107906210059990541021186"
      ]
    },
    {
      "x": 125,
      "y": 372,
      "size": 1,
      "price": "4683000000000000000000",
      "reserved": "",
      "salt": "0xb8611a7254b499d8795ebc590b97fe963bc79262b775c4fcf98ae92615be9e69",
      "assetIds": [
        "41506478881403507969696680653240014914910929820314476107906210059990541021186"
      ]
    },
    {
      "x": 125,
      "y": 373,
      "size": 1,
      "price": "4683000000000000000000",
      "reserved": "",
      "salt": "0x09dff03dbe39f6a88712c41881e707f0efe3d7e7d7247a6be746d429c968f74b",
      "assetIds": [
        "41506478881403507969696680653240014914910929820314476107906210059990541021186"
      ]
    },
    {
      "x": 125,
      "y": 374,
      "size": 1,
      "price": "4683000000000000000000",
      "reserved": "",
      "salt": "0xa5faa1a39ceacff18e7337396b75bfad7e45cb8368994e1346f106d89bac1f33",
      "assetIds": [
        "41506478881403507969696680653240014914910929820314476107906210059990541021186"
      ]
    },
    {
      "x": 125,
      "y": 375,
      "size": 1,
      "price": "4683000000000000000000",
      "reserved": "",
      "salt": "0xdb56d1785cf452075bc3d9e7e949917c99c65ccf4890be5bb8505c785f38fa70",
      "assetIds": [
        "41506478881403507969696680653240014914910929820314476107906210059990541021186"
      ]
    },
    {
      "x": 125,
      "y": 376,
      "size": 1,
      "price": "4683000000000000000000",
      "reserved": "",
      "salt": "0x5e5987088fcc2f6bb627cff1330d699c95523be4db17091c1451bf665ad3f4b2",
      "assetIds": [
        "41506478881403507969696680653240014914910929820314476107906210059990541021186"
      ]
    },
    {
      "x": 125,
      "y": 377,
      "size": 1,
      "price": "4683000000000000000000",
      "reserved": "",
      "salt": "0xebe74f1b56317ca8d4854b49acf03dffc328bcd9e3b02f016b5388bdfccaa590",
      "assetIds": [
        "41506478881403507969696680653240014914910929820314476107906210059990541021186"
      ]
    },
    {
      "x": 125,
      "y": 381,
      "size": 1,
      "price": "1011000000000000000000",
      "reserved": "",
      "salt": "0x7e91b457bd8f7e0d4f41146e0e6371f382f737576f07545f4d2eca04fdf448ab",
      "assetIds": []
    },
    {
      "x": 125,
      "y": 382,
      "size": 1,
      "price": "1011000000000000000000",
      "reserved": "0x7a9fe22691c811ea339d9b73150e6911a5343dca",
      "salt": "0xedc05a0c14d3a71f0f68a19f05a5cf9078ff3cb934db9d46a640d8b686c8f19a",
      "assetIds": []
    },
    {
      "x": 125,
      "y": 383,
      "size": 1,
      "price": "4683000000000000000000",
      "reserved": "",
      "salt": "0xda577e907770c313e8f3e441d70b331b6f21994a7fd1259d902afe9b44f1cf13",
      "assetIds": [
        "41506478881403507969696680653240014914910929820314476107906210059990541021186"
      ]
    },
    {
      "x": 125,
      "y": 384,
      "size": 1,
      "price": "4683000000000000000000",
      "reserved": "",
      "salt": "0x72f8248fdc219767698515ed1bd1c0218de9af7a64cb47c21274d16a18b18f24",
      "assetIds": [
        "41506478881403507969696680653240014914910929820314476107906210059990541021186"
      ]
    },
    {
      "x": 125,
      "y": 385,
      "size": 1,
      "price": "4683000000000000000000",
      "reserved": "",
      "salt": "0x8d380dbb5c94c896211b1013d42427bf9f1d116f8f986fef19f93e18aea7c91b",
      "assetIds": [
        "41506478881403507969696680653240014914910929820314476107906210059990541021186"
      ]
    },
    {
      "x": 125,
      "y": 386,
      "size": 1,
      "price": "4683000000000000000000",
      "reserved": "",
      "salt": "0x7125cb5a234f4154a57397114c832e64f8dcb9f16a81cbdb74cc5cfe7e5ac329",
      "assetIds": [
        "41506478881403507969696680653240014914910929820314476107906210059990541021186"
      ]
    },
    {
      "x": 125,
      "y": 387,
      "size": 1,
      "price": "4683000000000000000000",
      "reserved": "",
      "salt": "0xd13f0282c5f1d221e56bb2cc1f22e9c5a7b9e68a55da2ecc91cdab6ea5650212",
      "assetIds": [
        "41506478881403507969696680653240014914910929820314476107906210059990541021186"
      ]
    },
    {
      "x": 125,
      "y": 388,
      "size": 1,
      "price": "4683000000000000000000",
      "reserved": "",
      "salt": "0x884b4be457204652bc7044db8b1da25a51dce303867f9f4d5b7fb5901dcbd943",
      "assetIds": [
        "41506478881403507969696680653240014914910929820314476107906210059990541021186"
      ]
    },
    {
      "x": 125,
      "y": 389,
      "size": 1,
      "price": "4683000000000000000000",
      "reserved": "",
      "salt": "0x43fee057f586d11bf86c0049e04474f77d8c322836374a9fe8e56f4a876a4b2c",
      "assetIds": [
        "41506478881403507969696680653240014914910929820314476107906210059990541021186"
      ]
    },
    {
      "x": 125,
      "y": 390,
      "size": 1,
      "price": "1011000000000000000000",
      "reserved": "",
      "salt": "0xb0b7c5e3ba25262071f7a7dba30ec5b7b9aa94ac218b3abea20a0003ce528a9e",
      "assetIds": []
    },
    {
      "x": 125,
      "y": 391,
      "size": 1,
      "price": "1011000000000000000000",
      "reserved": "",
      "salt": "0x18bdfb889bbc1af29dabbf705faca3f78176f22a5b128a2b56f433c45de2a93b",
      "assetIds": []
    },
    {
      "x": 125,
      "y": 392,
      "size": 1,
      "price": "1011000000000000000000",
      "reserved": "",
      "salt": "0xb4cabe3f33f95a605cdb2d86e4bc92f549da990002e935715928a3c4bf536a96",
      "assetIds": []
    },
    {
      "x": 125,
      "y": 393,
      "size": 1,
      "price": "1011000000000000000000",
      "reserved": "",
      "salt": "0x8adfb23d75cb7508135a8cffc540342f36f84d7cb42b0891a05e9e974e6fdc83",
      "assetIds": []
    },
    {
      "x": 125,
      "y": 394,
      "size": 1,
      "price": "1011000000000000000000",
      "reserved": "",
      "salt": "0xdcb5bfaaafff45d72c486003c75e5d55eb42c64b312f0d556ac5eac9ad8b2a6f",
      "assetIds": []
    },
    {
      "x": 125,
      "y": 395,
      "size": 1,
      "price": "1011000000000000000000",
      "reserved": "",
      "salt": "0x5ebe21fed01311e7794a900f85479624b2b62d8c7d1ba0ebd26fdef565ed6aa6",
      "assetIds": []
    },
    {
      "x": 126,
      "y": 348,
      "size": 1,
      "price": "1011000000000000000000",
      "reserved": "",
      "salt": "0xf4d4018f808b3bcd106f7874af3bb9ac7a2f61ed1eb4f2b776bce2b18318e09e",
      "assetIds": []
    },
    {
      "x": 126,
      "y": 349,
      "size": 1,
      "price": "1011000000000000000000",
      "reserved": "",
      "salt": "0xa653f55f194fec103615ca3370da050d0950cd217a5fbc95d0bc4fcb4c80293c",
      "assetIds": []
    },
    {
      "x": 126,
      "y": 350,
      "size": 1,
      "price": "1011000000000000000000",
      "reserved": "",
      "salt": "0xc103cfb634fed5e78609b0021bcde41d4207e5d6f4911158d41be3f2f1948dae",
      "assetIds": []
    },
    {
      "x": 126,
      "y": 351,
      "size": 1,
      "price": "1011000000000000000000",
      "reserved": "",
      "salt": "0xf869ed815afbc76688d6b7257bd04883b38a49cafbf56e94f17d946bed2a4464",
      "assetIds": []
    },
    {
      "x": 126,
      "y": 352,
      "size": 1,
      "price": "1011000000000000000000",
      "reserved": "",
      "salt": "0x8acd753d3703934010feda2839fab62273497524c19cfc6ee9bda158198a97de",
      "assetIds": []
    },
    {
      "x": 126,
      "y": 353,
      "size": 1,
      "price": "1011000000000000000000",
      "reserved": "",
      "salt": "0xec7c495b5ac3280ff1d05264ca94dbaded048d4e6071f266bcf641a9cd681b84",
      "assetIds": []
    },
    {
      "x": 126,
      "y": 354,
      "size": 1,
      "price": "1011000000000000000000",
      "reserved": "",
      "salt": "0xa1dfc77ae2891d716d020c39f47ce62f35eb636297abf541e680ee262a3dbd85",
      "assetIds": []
    },
    {
      "x": 126,
      "y": 355,
      "size": 1,
      "price": "1011000000000000000000",
      "reserved": "",
      "salt": "0x06dd4d8baab17158b68fdf693f75d2e4f003ed789573829a863d9b8cee1e70be",
      "assetIds": []
    },
    {
      "x": 126,
      "y": 356,
      "size": 1,
      "price": "1011000000000000000000",
      "reserved": "",
      "salt": "0xa83fabb9c87f23db101b15d3b84f41416448190f122decc00380561682fc2a26",
      "assetIds": []
    },
    {
      "x": 126,
      "y": 360,
      "size": 1,
      "price": "1011000000000000000000",
      "reserved": "0x7a9fe22691c811ea339d9b73150e6911a5343dca",
      "salt": "0x3c78a64a35f6794e1a295bd819ce3f251f609a9d1f8387c0724f4dde3cc0c2fd",
      "assetIds": []
    },
    {
      "x": 126,
      "y": 361,
      "size": 1,
      "price": "1011000000000000000000",
      "reserved": "",
      "salt": "0x0158ea0c44caaad84ddff4cebcd5b77e90999f0fb30fc3d7be8ec60d4cddf454",
      "assetIds": []
    },
    {
      "x": 126,
      "y": 362,
      "size": 1,
      "price": "1011000000000000000000",
      "reserved": "",
      "salt": "0xde091165283cb7a00f612601d7704004184fd20cee9a3327e5f83d8c776efb78",
      "assetIds": []
    },
    {
      "x": 126,
      "y": 363,
      "size": 1,
      "price": "1011000000000000000000",
      "reserved": "",
      "salt": "0x3d6a7bb58681e8262fcb3478aae3aab280929aa592f4b7bed17e43c8123ffede",
      "assetIds": []
    },
    {
      "x": 126,
      "y": 364,
      "size": 1,
      "price": "1011000000000000000000",
      "reserved": "",
      "salt": "0x4564a5ce821d408b8028601097baab17e13ba04295cc2f3979b20c4cfe021fb2",
      "assetIds": []
    },
    {
      "x": 126,
      "y": 365,
      "size": 1,
      "price": "1011000000000000000000",
      "reserved": "",
      "salt": "0x24cb41574bd121950e042bc04ec4c9a8c50762b691c11bc7d4850ac37c738acc",
      "assetIds": []
    },
    {
      "x": 126,
      "y": 366,
      "size": 1,
      "price": "1011000000000000000000",
      "reserved": "",
      "salt": "0xdfb80701aba63d2bbe4b3b6aec5fee0123197a11f846be36c0a7b3d59d6ce0a5",
      "assetIds": []
    },
    {
      "x": 126,
      "y": 367,
      "size": 1,
      "price": "1011000000000000000000",
      "reserved": "",
      "salt": "0xc15cec4bf054a02d9d127bb9a08da6b0521e306a0e819650b068138e7666c1c4",
      "assetIds": []
    },
    {
      "x": 126,
      "y": 368,
      "size": 1,
      "price": "1011000000000000000000",
      "reserved": "",
      "salt": "0xa99e82b11a5ae946baee75bc28ca85b1acaeaf7ca62ab391dd147567c707f9cd",
      "assetIds": []
    },
    {
      "x": 126,
      "y": 369,
      "size": 1,
      "price": "1011000000000000000000",
      "reserved": "",
      "salt": "0x06051fe8d64034680f6b9d837b957d82b8f0bcf0d82f96e59cf2071290508a9c",
      "assetIds": []
    },
    {
      "x": 126,
      "y": 370,
      "size": 1,
      "price": "1011000000000000000000",
      "reserved": "",
      "salt": "0x7d4a2d59c7f4d5719f0a4daf7e28d790f5a16c7127e83fb921808a6e70ed4cef",
      "assetIds": []
    },
    {
      "x": 126,
      "y": 371,
      "size": 1,
      "price": "4683000000000000000000",
      "reserved": "",
      "salt": "0xa7fed1fb59122f650b918df08b98d5eb254a29ae9a88a2bb380b418f80655dbe",
      "assetIds": [
        "41506478881403507969696680653240014914910929820314476107906210059990541021186"
      ]
    },
    {
      "x": 126,
      "y": 378,
      "size": 1,
      "price": "4683000000000000000000",
      "reserved": "",
      "salt": "0x3aca3b76ccda5766fd0a817829193386a8991da331838dc6cba85291e02d1762",
      "assetIds": [
        "41506478881403507969696680653240014914910929820314476107906210059990541021186"
      ]
    },
    {
      "x": 126,
      "y": 379,
      "size": 1,
      "price": "1011000000000000000000",
      "reserved": "",
      "salt": "0x791c62c762f932359d131b596c23b6182eeb23a39fda9435e42cc7d360cd0b9c",
      "assetIds": []
    },
    {
      "x": 126,
      "y": 380,
      "size": 1,
      "price": "1011000000000000000000",
      "reserved": "0x7a9fe22691c811ea339d9b73150e6911a5343dca",
      "salt": "0x6fb2fb77bb90311525c79647b5f55476ea63ad594496b011a332f510c34428d9",
      "assetIds": []
    },
    {
      "x": 126,
      "y": 381,
      "size": 1,
      "price": "1011000000000000000000",
      "reserved": "",
      "salt": "0x44113de50ca82b34071c0c414510d2f6f555f683085d506b372dd576cf53ae58",
      "assetIds": []
    },
    {
      "x": 126,
      "y": 382,
      "size": 1,
      "price": "1011000000000000000000",
      "reserved": "",
      "salt": "0xb0e4b63e49a55578bd3fd294d6ca505e240e960f46032768b8c18747756fce12",
      "assetIds": []
    },
    {
      "x": 126,
      "y": 383,
      "size": 1,
      "price": "4683000000000000000000",
      "reserved": "",
      "salt": "0xcb1c24a3f2dd7104442cdda62cf4c692180e0f1cc6e4986acffa9d26eba42fdc",
      "assetIds": [
        "41506478881403507969696680653240014914910929820314476107906210059990541021186"
      ]
    },
    {
      "x": 126,
      "y": 396,
      "size": 1,
      "price": "4683000000000000000000",
      "reserved": "",
      "salt": "0xc564173968844d2fe7e4b577653b4bc0c2f2c40706e8a3165bea63a4a60a840d",
      "assetIds": [
        "41506478881403507969696680653240014914910929820314476107906210059990541021186"
      ]
    },
    {
      "x": 126,
      "y": 397,
      "size": 1,
      "price": "4683000000000000000000",
      "reserved": "",
      "salt": "0x9ba81ce42a9c46ad1a43f12e6e1a4f7159aadaf6016ce9789a391dd6718e88bd",
      "assetIds": [
        "41506478881403507969696680653240014914910929820314476107906210059990541021186"
      ]
    },
    {
      "x": 126,
      "y": 398,
      "size": 1,
      "price": "4683000000000000000000",
      "reserved": "",
      "salt": "0x7a902b9eb92584c72135c65918658b438e0c267b3be236d3cf012d7d8c7b1996",
      "assetIds": [
        "41506478881403507969696680653240014914910929820314476107906210059990541021186"
      ]
    },
    {
      "x": 126,
      "y": 399,
      "size": 1,
      "price": "4683000000000000000000",
      "reserved": "",
      "salt": "0x7d1d37cfd86226b532f65351b6a0ee9ba104ac819e94f4cc1394ce29a7e3b4c6",
      "assetIds": [
        "41506478881403507969696680653240014914910929820314476107906210059990541021186"
      ]
    },
    {
      "x": 126,
      "y": 400,
      "size": 1,
      "price": "4683000000000000000000",
      "reserved": "",
      "salt": "0x66529e96eb5ae89558e81020ef5f99fe75cbf74f19b3525dd5ec9972cccbef2d",
      "assetIds": [
        "41506478881403507969696680653240014914910929820314476107906210059990541021186"
      ]
    },
    {
      "x": 126,
      "y": 401,
      "size": 1,
      "price": "4683000000000000000000",
      "reserved": "",
      "salt": "0xcfb7610e4af79f81f0c0a3b678b3dba588587bcf966869cb2db6140655d1da97",
      "assetIds": [
        "41506478881403507969696680653240014914910929820314476107906210059990541021186"
      ]
    },
    {
      "x": 126,
      "y": 402,
      "size": 1,
      "price": "4683000000000000000000",
      "reserved": "",
      "salt": "0xdb225e5f37f2fd9f6a8328b683095c024a0880e80de956c1fc0457f542c3f92b",
      "assetIds": [
        "41506478881403507969696680653240014914910929820314476107906210059990541021186"
      ]
    },
    {
      "x": 126,
      "y": 403,
      "size": 1,
      "price": "4683000000000000000000",
      "reserved": "",
      "salt": "0x34f997a0e51743000947f11139ebe52a1bd2cd2ce57c7594ecf4af823003a8a9",
      "assetIds": [
        "41506478881403507969696680653240014914910929820314476107906210059990541021186"
      ]
    },
    {
      "x": 126,
      "y": 404,
      "size": 1,
      "price": "4683000000000000000000",
      "reserved": "",
      "salt": "0x8bda44a0c402cd817dc70e1ddfbb757c9ff0b9ebbc5063a32c58a52ff3749599",
      "assetIds": [
        "41506478881403507969696680653240014914910929820314476107906210059990541021186"
      ]
    },
    {
      "x": 126,
      "y": 405,
      "size": 1,
      "price": "4683000000000000000000",
      "reserved": "",
      "salt": "0x0749f5c62bc11af7acb8dcef9a717d0dcf3be80bb325c622383b3d383b0575cf",
      "assetIds": [
        "41506478881403507969696680653240014914910929820314476107906210059990541021186"
      ]
    },
    {
      "x": 126,
      "y": 406,
      "size": 1,
      "price": "4683000000000000000000",
      "reserved": "",
      "salt": "0xc9d6bc891db10c4fd5d660d86b7b4f8a7a8e1ee97a04a051429905a7606e5932",
      "assetIds": [
        "41506478881403507969696680653240014914910929820314476107906210059990541021186"
      ]
    },
    {
      "x": 126,
      "y": 407,
      "size": 1,
      "price": "4683000000000000000000",
      "reserved": "",
      "salt": "0x2a9dcfb4903f6e61a8c35091c3c6e0c7e6c0fcf6e18405653d945c3841974cd3",
      "assetIds": [
        "41506478881403507969696680653240014914910929820314476107906210059990541021186"
      ]
    },
    {
      "x": 127,
      "y": 348,
      "size": 1,
      "price": "1011000000000000000000",
      "reserved": "",
      "salt": "0xb90bf37f6d0739ecb5b70207b5a06be2eb45c2fbb7ee544597637e4f1e35e0c6",
      "assetIds": []
    },
    {
      "x": 127,
      "y": 349,
      "size": 1,
      "price": "1011000000000000000000",
      "reserved": "",
      "salt": "0x0cafcd25b76c4752fbed720fd43a50807540355e27837532bd10b983257b9eb5",
      "assetIds": []
    },
    {
      "x": 127,
      "y": 350,
      "size": 1,
      "price": "1011000000000000000000",
      "reserved": "",
      "salt": "0x5a778f8846fd064787fdce89c586b864abd7320b00fba5f37575696dbd8d3ff9",
      "assetIds": []
    },
    {
      "x": 127,
      "y": 351,
      "size": 1,
      "price": "1011000000000000000000",
      "reserved": "",
      "salt": "0xf301e48ae5f0d14101c9c603db8a138174133cd86864f2077a41d98ee59ae354",
      "assetIds": []
    },
    {
      "x": 127,
      "y": 352,
      "size": 1,
      "price": "1011000000000000000000",
      "reserved": "",
      "salt": "0xa785d440848328c37d4304a77e2175a05a4de6d4cdf091bbb5955c83afb28090",
      "assetIds": []
    },
    {
      "x": 127,
      "y": 353,
      "size": 1,
      "price": "1011000000000000000000",
      "reserved": "",
      "salt": "0xbae2ff210a7cfc4bfbb8ca879172edafe765b39abd93b54902368b847f56026a",
      "assetIds": []
    },
    {
      "x": 127,
      "y": 354,
      "size": 1,
      "price": "1011000000000000000000",
      "reserved": "0x7a9fe22691c811ea339d9b73150e6911a5343dca",
      "salt": "0x3e6a28473deadc646fd9a2adb17aef1e8ba67b0d791a983505c9234492b5898b",
      "assetIds": []
    },
    {
      "x": 127,
      "y": 355,
      "size": 1,
      "price": "1011000000000000000000",
      "reserved": "",
      "salt": "0x1aa8e6beb6995341cd290c424d00082ea592f520800fd33a2bd47b6a06a69113",
      "assetIds": []
    },
    {
      "x": 127,
      "y": 356,
      "size": 1,
      "price": "1011000000000000000000",
      "reserved": "",
      "salt": "0x9ebe337d9338ae86431cd03724c247d18e135694ed438e80d965911c6ccb207f",
      "assetIds": []
    },
    {
      "x": 127,
      "y": 360,
      "size": 1,
      "price": "1011000000000000000000",
      "reserved": "",
      "salt": "0x1570f391d7ebef9268bc8c1f6731fc5ebe8e539b6fa6053856aada309cb133e0",
      "assetIds": []
    },
    {
      "x": 127,
      "y": 361,
      "size": 1,
      "price": "1011000000000000000000",
      "reserved": "",
      "salt": "0xf7b450580cd16dae5f4e9d1fe801405a5538601a01a48199dc2e324eadd95062",
      "assetIds": []
    },
    {
      "x": 127,
      "y": 362,
      "size": 1,
      "price": "1011000000000000000000",
      "reserved": "",
      "salt": "0x534ea92148cc69858f9db99e38d48292a9823e30f178444124bc3057884dc842",
      "assetIds": []
    },
    {
      "x": 127,
      "y": 363,
      "size": 1,
      "price": "1011000000000000000000",
      "reserved": "0x7a9fe22691c811ea339d9b73150e6911a5343dca",
      "salt": "0x4517c2ee288c0fdfbf419755af1389c354f9824ce6ddef0e0ff84e12b33c5052",
      "assetIds": []
    },
    {
      "x": 127,
      "y": 364,
      "size": 1,
      "price": "1011000000000000000000",
      "reserved": "",
      "salt": "0x758b4628661077bfcde810cd223db050369f8796196aa82f78909968cf8e224a",
      "assetIds": []
    },
    {
      "x": 127,
      "y": 365,
      "size": 1,
      "price": "1011000000000000000000",
      "reserved": "",
      "salt": "0xe2f38c4d3cd524dfbf23f0d53dcac4182c38d35d12bd9f2912f56a491c714718",
      "assetIds": []
    },
    {
      "x": 127,
      "y": 366,
      "size": 1,
      "price": "1011000000000000000000",
      "reserved": "",
      "salt": "0x5825cf082e93edd16c4bc13a475ec2b577d1eafe63e02691e8df0e9380e63d03",
      "assetIds": []
    },
    {
      "x": 127,
      "y": 367,
      "size": 1,
      "price": "1011000000000000000000",
      "reserved": "0x7a9fe22691c811ea339d9b73150e6911a5343dca",
      "salt": "0xe38fc567558de51cd651f467fc3c424291b08b36b4da491b417110eebdbd6790",
      "assetIds": []
    },
    {
      "x": 127,
      "y": 368,
      "size": 1,
      "price": "1011000000000000000000",
      "reserved": "",
      "salt": "0x9ef6d6533453d4c0b36db2ba5a6fd4308e6f9f35a021062a6aa65023a5f0eeae",
      "assetIds": []
    },
    {
      "x": 127,
      "y": 369,
      "size": 1,
      "price": "1011000000000000000000",
      "reserved": "0x7a9fe22691c811ea339d9b73150e6911a5343dca",
      "salt": "0xa7370d1743903ec4155593718dda008e66e85e1044ee2f0a47c1b8b029639ccf",
      "assetIds": []
    },
    {
      "x": 127,
      "y": 370,
      "size": 1,
      "price": "1011000000000000000000",
      "reserved": "",
      "salt": "0x2f35c8534118447b94a06942344b08d8cd2e7b719264a1bfc91ebd519d99004e",
      "assetIds": []
    },
    {
      "x": 127,
      "y": 371,
      "size": 1,
      "price": "4683000000000000000000",
      "reserved": "",
      "salt": "0x69c09e701ce4c17a3ef90ed76bf3ea5e006e75cda531a311eab50b94bb8c4d3e",
      "assetIds": [
        "41506478881403507969696680653240014914910929820314476107906210059990541021186"
      ]
    },
    {
      "x": 127,
      "y": 378,
      "size": 1,
      "price": "4683000000000000000000",
      "reserved": "",
      "salt": "0x32b1d3281b7807b0fc19cea643a3037eccbe0cff8874e2d3c9e8c340a6ec52c1",
      "assetIds": [
        "41506478881403507969696680653240014914910929820314476107906210059990541021186"
      ]
    },
    {
      "x": 127,
      "y": 379,
      "size": 1,
      "price": "1011000000000000000000",
      "reserved": "",
      "salt": "0x6562d42ff06503d437d532926c33980254f53055f54d2558b06f8713020d81cd",
      "assetIds": []
    },
    {
      "x": 127,
      "y": 380,
      "size": 1,
      "price": "1011000000000000000000",
      "reserved": "",
      "salt": "0x91089d7367e2bb9695dc8d48cf0618cf449db6c7f06c81a06803ea8a9579dca7",
      "assetIds": []
    },
    {
      "x": 127,
      "y": 381,
      "size": 1,
      "price": "1011000000000000000000",
      "reserved": "",
      "salt": "0xf05387c6b0897a8cad93911f15d3d8f1c621e728e08b389fdd5a6c473041540e",
      "assetIds": []
    },
    {
      "x": 127,
      "y": 382,
      "size": 1,
      "price": "1011000000000000000000",
      "reserved": "0x7a9fe22691c811ea339d9b73150e6911a5343dca",
      "salt": "0x93e798834c90b8fd855704b4f7c8b66f8b52b1962d53293be6223db268dc633f",
      "assetIds": []
    },
    {
      "x": 127,
      "y": 383,
      "size": 1,
      "price": "4683000000000000000000",
      "reserved": "",
      "salt": "0x114a20b9243ec549bebf5cf0623409702f1e652be4cc06a98a26bc969ec937c4",
      "assetIds": [
        "41506478881403507969696680653240014914910929820314476107906210059990541021186"
      ]
    },
    {
      "x": 127,
      "y": 396,
      "size": 1,
      "price": "4683000000000000000000",
      "reserved": "",
      "salt": "0x573ac47f2db8aa82bea0105e74b35f86a2a253d0164e94a608c63dc70c843434",
      "assetIds": [
        "41506478881403507969696680653240014914910929820314476107906210059990541021186"
      ]
    },
    {
      "x": 127,
      "y": 397,
      "size": 1,
      "price": "1011000000000000000000",
      "reserved": "",
      "salt": "0x44c1d25ad9d7542a745ee79d7654fb66bd2959cee92208de426e9a73f97f1281",
      "assetIds": []
    },
    {
      "x": 127,
      "y": 398,
      "size": 1,
      "price": "1011000000000000000000",
      "reserved": "0x7a9fe22691c811ea339d9b73150e6911a5343dca",
      "salt": "0xb1ddc6c92013ec9e1a934f5161ef45bf5b057bfe7427ea0145f47cdd56015e9c",
      "assetIds": []
    },
    {
      "x": 127,
      "y": 399,
      "size": 1,
      "price": "1011000000000000000000",
      "reserved": "",
      "salt": "0x01aa848f4badb19fa5cb7affb26718704a8a46418297ebbd1b13b107b73b593a",
      "assetIds": []
    },
    {
      "x": 127,
      "y": 400,
      "size": 1,
      "price": "1011000000000000000000",
      "reserved": "",
      "salt": "0xfbe56a1f144c0744a89175882b6b9a101531ec4eabe2a8a01ecd984136bcf471",
      "assetIds": []
    },
    {
      "x": 127,
      "y": 401,
      "size": 1,
      "price": "1011000000000000000000",
      "reserved": "",
      "salt": "0x57a8f59ef717f75e9c64a9a7b27adce98ade96014e3a9848c5a18dff27ba6c80",
      "assetIds": []
    },
    {
      "x": 127,
      "y": 402,
      "size": 1,
      "price": "1011000000000000000000",
      "reserved": "0x7a9fe22691c811ea339d9b73150e6911a5343dca",
      "salt": "0x86cc1a37f1bb7816fee34337ccd9ee9356f8000b3ea2c6cd46f9bea91c9cfed8",
      "assetIds": []
    },
    {
      "x": 127,
      "y": 403,
      "size": 1,
      "price": "4683000000000000000000",
      "reserved": "",
      "salt": "0xaceb1e5bd6864bfce6c4c13428313c6d1cc348a3ae2cd0b52b302c784ee4cad4",
      "assetIds": [
        "41506478881403507969696680653240014914910929820314476107906210059990541021186"
      ]
    },
    {
      "x": 127,
      "y": 404,
      "size": 1,
      "price": "4683000000000000000000",
      "reserved": "",
      "salt": "0xa7af1f26678401520cd3af506d0101182849e0f4c544b2901070acc12159c4dc",
      "assetIds": [
        "41506478881403507969696680653240014914910929820314476107906210059990541021186"
      ]
    },
    {
      "x": 127,
      "y": 405,
      "size": 1,
      "price": "4683000000000000000000",
      "reserved": "",
      "salt": "0xc21d847a186a3a664168c7b3797c04bf0699249e7d51da7610aa6c47c10124ff",
      "assetIds": [
        "41506478881403507969696680653240014914910929820314476107906210059990541021186"
      ]
    },
    {
      "x": 127,
      "y": 406,
      "size": 1,
      "price": "4683000000000000000000",
      "reserved": "",
      "salt": "0x0ec9f650a37af81f573bc7642675052697fc03847c075249e4c9e5908325ec0e",
      "assetIds": [
        "41506478881403507969696680653240014914910929820314476107906210059990541021186"
      ]
    },
    {
      "x": 127,
      "y": 407,
      "size": 1,
      "price": "4683000000000000000000",
      "reserved": "",
      "salt": "0x30763ff476991bb000da050e55097a51336e6b318d2abb433f088c07f1ed480c",
      "assetIds": [
        "41506478881403507969696680653240014914910929820314476107906210059990541021186"
      ]
    },
    {
      "x": 128,
      "y": 348,
      "size": 1,
      "price": "1011000000000000000000",
      "reserved": "",
      "salt": "0x920dd59476279ddd79cdea8827c7a6646af37f84b3347141c28dce4b315c7aa5",
      "assetIds": []
    },
    {
      "x": 128,
      "y": 349,
      "size": 1,
      "price": "1011000000000000000000",
      "reserved": "",
      "salt": "0xb05fef4d9433c9f70ed655027c2d9874968d861771cbcc2642116267f70dfcbd",
      "assetIds": []
    },
    {
      "x": 128,
      "y": 350,
      "size": 1,
      "price": "1011000000000000000000",
      "reserved": "",
      "salt": "0x77d587a9fd574b47a85226dc8d33f933bda800f62664c16b1bfa95f5e8308728",
      "assetIds": []
    },
    {
      "x": 128,
      "y": 351,
      "size": 1,
      "price": "1011000000000000000000",
      "reserved": "0x7a9fe22691c811ea339d9b73150e6911a5343dca",
      "salt": "0x78726c1794b9037dc5f089ee7ec8dde9314cc2812113b2687303aa3d4f3dd667",
      "assetIds": []
    },
    {
      "x": 128,
      "y": 352,
      "size": 1,
      "price": "1011000000000000000000",
      "reserved": "",
      "salt": "0x6aef2c17b5470426ddcb068c1e3a41d983c8373c9d078b962627ef7d0a91b4aa",
      "assetIds": []
    },
    {
      "x": 128,
      "y": 353,
      "size": 1,
      "price": "1011000000000000000000",
      "reserved": "",
      "salt": "0x1abcce9931606bd399fb07e924fdbf70efaebf20bdd4435d2858b5c974116fe7",
      "assetIds": []
    },
    {
      "x": 128,
      "y": 354,
      "size": 1,
      "price": "1011000000000000000000",
      "reserved": "",
      "salt": "0x196b56ebf62f50d252d438645d63e66af535b2b7f83dc4dd688335b2cdaa027d",
      "assetIds": []
    },
    {
      "x": 128,
      "y": 355,
      "size": 1,
      "price": "1011000000000000000000",
      "reserved": "",
      "salt": "0x32d5e111678c278c73dd5872f41fdb06936d39e14236f855235273cda8e5d58a",
      "assetIds": []
    },
    {
      "x": 128,
      "y": 356,
      "size": 1,
      "price": "1011000000000000000000",
      "reserved": "",
      "salt": "0xf7e4790081ade00de995be01839907f1083af4a5caa8775f8377e03ce88c41de",
      "assetIds": []
    },
    {
      "x": 128,
      "y": 360,
      "size": 1,
      "price": "1011000000000000000000",
      "reserved": "",
      "salt": "0xa6de28ea07276317c68545797411291184a8bda0f32685e59fd1ab7ca5782b7c",
      "assetIds": []
    },
    {
      "x": 128,
      "y": 361,
      "size": 1,
      "price": "1011000000000000000000",
      "reserved": "",
      "salt": "0x047233d326f81d40ec13edbc94ae0c855581e3f01ab6b69faac0245813755828",
      "assetIds": []
    },
    {
      "x": 128,
      "y": 362,
      "size": 1,
      "price": "1011000000000000000000",
      "reserved": "",
      "salt": "0xd4cc0be1d59d3c126ad6060e4a8b671274ca5b40cd6a29634332e68e3b4f513e",
      "assetIds": []
    },
    {
      "x": 128,
      "y": 363,
      "size": 1,
      "price": "1011000000000000000000",
      "reserved": "",
      "salt": "0x5a8f529cf7844e825f64f19a606e7c09b26f76d8fa9afc271011cf8aa4fe7776",
      "assetIds": []
    },
    {
      "x": 128,
      "y": 364,
      "size": 1,
      "price": "1011000000000000000000",
      "reserved": "",
      "salt": "0x7837c8a9dab8f2ca015d54626c6b241b118dace5652cc8af0eebe9861ce388f1",
      "assetIds": []
    },
    {
      "x": 128,
      "y": 365,
      "size": 1,
      "price": "1011000000000000000000",
      "reserved": "0x7a9fe22691c811ea339d9b73150e6911a5343dca",
      "salt": "0x20093b05648749ea690721cde0669a91c3b78474f943af16b4f57790ec003b7f",
      "assetIds": []
    },
    {
      "x": 128,
      "y": 366,
      "size": 1,
      "price": "1011000000000000000000",
      "reserved": "",
      "salt": "0xc996e4399c4f9a84dc39c2ab4f02fc329eb31c68007d770d3aa41bc15af11cd5",
      "assetIds": []
    },
    {
      "x": 128,
      "y": 367,
      "size": 1,
      "price": "1011000000000000000000",
      "reserved": "",
      "salt": "0x8165d2ef309049ca3d5bc2272a0d1179b528c6ea3c4aa4a9fbee5a6a15372354",
      "assetIds": []
    },
    {
      "x": 128,
      "y": 368,
      "size": 1,
      "price": "1011000000000000000000",
      "reserved": "",
      "salt": "0xa4101bb174e38643d5920fa0e25d8a7629c9140a009c97faad2cab364702d764",
      "assetIds": []
    },
    {
      "x": 128,
      "y": 369,
      "size": 1,
      "price": "1011000000000000000000",
      "reserved": "",
      "salt": "0x4f193e7092d1e162a447e04aef7cde1d8367ae1549ae1e294f12eff175e63a60",
      "assetIds": []
    },
    {
      "x": 128,
      "y": 370,
      "size": 1,
      "price": "1011000000000000000000",
      "reserved": "0x7a9fe22691c811ea339d9b73150e6911a5343dca",
      "salt": "0x945d1a8b45649d6ac5c9a7cecd2f5b1d3e99ee9f51b87e3bb2202f37694a4daf",
      "assetIds": []
    },
    {
      "x": 128,
      "y": 371,
      "size": 1,
      "price": "4683000000000000000000",
      "reserved": "",
      "salt": "0x6b19a7ae128507d0483d186d1e86a4898a8746cd47ce840bd7c4f68e76f4adec",
      "assetIds": [
        "41506478881403507969696680653240014914910929820314476107906210059990541021186"
      ]
    },
    {
      "x": 128,
      "y": 378,
      "size": 1,
      "price": "4683000000000000000000",
      "reserved": "",
      "salt": "0xec3a6cb8b13280f63013763af97d88df1acd673ed2838a0aa4c873baddf43e4f",
      "assetIds": [
        "41506478881403507969696680653240014914910929820314476107906210059990541021186"
      ]
    },
    {
      "x": 128,
      "y": 379,
      "size": 1,
      "price": "1011000000000000000000",
      "reserved": "0x7a9fe22691c811ea339d9b73150e6911a5343dca",
      "salt": "0xbdacfb2d0a0fc99b094b4f949e61b11b7b0a239640c1cdbe5bbfa812830d824d",
      "assetIds": []
    },
    {
      "x": 128,
      "y": 380,
      "size": 1,
      "price": "1011000000000000000000",
      "reserved": "",
      "salt": "0x85782b0510c357415fddb9d2c71b6b2ab63a2f5b8771c84a6c4a76b5b89698c3",
      "assetIds": []
    },
    {
      "x": 128,
      "y": 381,
      "size": 1,
      "price": "1011000000000000000000",
      "reserved": "0x7a9fe22691c811ea339d9b73150e6911a5343dca",
      "salt": "0xcf04d3b570cf0c3fcd26076d1210c4e04ad7ed23d6ff91690ed5335a91261464",
      "assetIds": []
    },
    {
      "x": 128,
      "y": 382,
      "size": 1,
      "price": "1011000000000000000000",
      "reserved": "",
      "salt": "0xf52e79cae48637cb671793c9e92b007ba27ccc85466a3684dc306eebdd47ec9a",
      "assetIds": []
    },
    {
      "x": 128,
      "y": 383,
      "size": 1,
      "price": "4683000000000000000000",
      "reserved": "",
      "salt": "0x1ec43a5fe9b9528df074fdb806405b738a34ce80317bbbd87db0651ad3c62b0d",
      "assetIds": [
        "41506478881403507969696680653240014914910929820314476107906210059990541021186"
      ]
    },
    {
      "x": 128,
      "y": 396,
      "size": 1,
      "price": "4683000000000000000000",
      "reserved": "",
      "salt": "0x4d5b8610bc2055a914f9731545362fc1e63ed271acaa0cb4951ac54ef35a15c2",
      "assetIds": [
        "41506478881403507969696680653240014914910929820314476107906210059990541021186"
      ]
    },
    {
      "x": 128,
      "y": 397,
      "size": 1,
      "price": "1011000000000000000000",
      "reserved": "",
      "salt": "0xa61a2bcea2b83ebe6e6a6a58cebe5ee52aef11fc0029ef155535411c507ed30e",
      "assetIds": []
    },
    {
      "x": 128,
      "y": 398,
      "size": 1,
      "price": "1011000000000000000000",
      "reserved": "",
      "salt": "0x57801a6eb00486c76af3e105dde4bcef1afeb12bef8c174cb10e3cbd7ebc7114",
      "assetIds": []
    },
    {
      "x": 128,
      "y": 399,
      "size": 1,
      "price": "1011000000000000000000",
      "reserved": "",
      "salt": "0x38d0d55d0730f399deae64ff9a992b841da8c71308cdb6a831a9b341c760a36a",
      "assetIds": []
    },
    {
      "x": 128,
      "y": 400,
      "size": 1,
      "price": "1011000000000000000000",
      "reserved": "0x7a9fe22691c811ea339d9b73150e6911a5343dca",
      "salt": "0xa409197a89a7fdb1d854569b01dbdf45a27f1a0e2ae8208dc1b7d6c6fe1ae57f",
      "assetIds": []
    },
    {
      "x": 128,
      "y": 401,
      "size": 1,
      "price": "1011000000000000000000",
      "reserved": "",
      "salt": "0x044e3dfaaefe0970d66b5b74b8c5d2d72ead29b391adffb4a990c981d1af6271",
      "assetIds": []
    },
    {
      "x": 128,
      "y": 402,
      "size": 1,
      "price": "1011000000000000000000",
      "reserved": "",
      "salt": "0x42afb6af8a5322660f33292b277f6686d9c9a06ab9a559cf186def965f56fb50",
      "assetIds": []
    },
    {
      "x": 128,
      "y": 403,
      "size": 1,
      "price": "4683000000000000000000",
      "reserved": "",
      "salt": "0xb1906f2ac6d8ae5fe22cad49a60444e3978880761a24786330f3681fcece3ce3",
      "assetIds": [
        "41506478881403507969696680653240014914910929820314476107906210059990541021186"
      ]
    },
    {
      "x": 128,
      "y": 404,
      "size": 1,
      "price": "1011000000000000000000",
      "reserved": "",
      "salt": "0xc713ac58638a64c0f9456485130abc81d037adf02c670eb298d3643e57b6b403",
      "assetIds": []
    },
    {
      "x": 128,
      "y": 405,
      "size": 1,
      "price": "1011000000000000000000",
      "reserved": "",
      "salt": "0x76e14e46b36f6e708af756793933cc50d3b7a77eaebe37dcda804e326a8d95e5",
      "assetIds": []
    },
    {
      "x": 128,
      "y": 406,
      "size": 1,
      "price": "1011000000000000000000",
      "reserved": "0x7a9fe22691c811ea339d9b73150e6911a5343dca",
      "salt": "0xd70b7f15c6bff8791c4b05851582ad94a1e9bc82d39c372ea178ae4b626b74e2",
      "assetIds": []
    },
    {
      "x": 128,
      "y": 407,
      "size": 1,
      "price": "1011000000000000000000",
      "reserved": "",
      "salt": "0x8a345e4cc5044bec49f06e84a2ff4316b2836537f9b090e70cfe2aa6702cf074",
      "assetIds": []
    },
    {
      "x": 129,
      "y": 348,
      "size": 1,
      "price": "1011000000000000000000",
      "reserved": "",
      "salt": "0xb0d2655e04697f42a85728c62e9a2384b0ed09bbfd9b607550d04cd8623d37f4",
      "assetIds": []
    },
    {
      "x": 129,
      "y": 349,
      "size": 1,
      "price": "1011000000000000000000",
      "reserved": "",
      "salt": "0x0562fd43a001c38b360b58b5bdbb3bcc97f48afcf3da69df4925e67104842b23",
      "assetIds": []
    },
    {
      "x": 129,
      "y": 350,
      "size": 1,
      "price": "1011000000000000000000",
      "reserved": "",
      "salt": "0xbc9088d59f2fe5a3b740182944504390c5097cdc1f2190789c9a8e2e0c76568d",
      "assetIds": []
    },
    {
      "x": 129,
      "y": 351,
      "size": 1,
      "price": "1011000000000000000000",
      "reserved": "",
      "salt": "0x82695485bdf8c7083d909bdcf03cfe7373bd1dc3bf729c72efece3ef978447ec",
      "assetIds": []
    },
    {
      "x": 129,
      "y": 352,
      "size": 1,
      "price": "1011000000000000000000",
      "reserved": "",
      "salt": "0xfbbfb6517f9feaf30cdaa1aa9b9319e7ac2790a01458e30931859f7f4ad40fe8",
      "assetIds": []
    },
    {
      "x": 129,
      "y": 353,
      "size": 1,
      "price": "1011000000000000000000",
      "reserved": "",
      "salt": "0x43d444610970ced8ada11b6a478d433e63949d1bf75f0171b298d44591b93f41",
      "assetIds": []
    },
    {
      "x": 129,
      "y": 354,
      "size": 1,
      "price": "1011000000000000000000",
      "reserved": "",
      "salt": "0xcaceb17f074ee058b4316edaade8593c3f778b993beab928ae58daebd5cb8df8",
      "assetIds": []
    },
    {
      "x": 129,
      "y": 355,
      "size": 1,
      "price": "1011000000000000000000",
      "reserved": "",
      "salt": "0xb265824ecb567e33660c8bf2dc0e0b6ced6b471e170765aa9d14fb904f028d19",
      "assetIds": []
    },
    {
      "x": 129,
      "y": 356,
      "size": 1,
      "price": "1011000000000000000000",
      "reserved": "",
      "salt": "0xc56e0f16e18326ec096ef68d502c9204ed3d854e2c31594fafd57fd5193546e0",
      "assetIds": []
    },
    {
      "x": 129,
      "y": 357,
      "size": 1,
      "price": "1011000000000000000000",
      "reserved": "",
      "salt": "0xdcd0749070d413617bd182bdb8289aee14bb5caa1fee9aea4705dae537cff22c",
      "assetIds": []
    },
    {
      "x": 129,
      "y": 358,
      "size": 1,
      "price": "1011000000000000000000",
      "reserved": "",
      "salt": "0x6039c64edd333001ffd8d21b64cf46c2631fab2b5a333fe922b7cd467485cb52",
      "assetIds": []
    },
    {
      "x": 129,
      "y": 359,
      "size": 1,
      "price": "1011000000000000000000",
      "reserved": "",
      "salt": "0x1e281c74bbf7e96b5917f9bcd578edcc9e06f2ca9da4d4a06fcf8d5708815947",
      "assetIds": []
    },
    {
      "x": 129,
      "y": 360,
      "size": 1,
      "price": "1011000000000000000000",
      "reserved": "",
      "salt": "0x0f41c8141f40b92b6fe04669d14a95e6676c626af2815b08e64109dea4ed00ae",
      "assetIds": []
    },
    {
      "x": 129,
      "y": 361,
      "size": 1,
      "price": "1011000000000000000000",
      "reserved": "",
      "salt": "0x5d3f27c3265d22f174c9587ed163e89d2491b9895c6691e3007bfe05066f040e",
      "assetIds": []
    },
    {
      "x": 129,
      "y": 362,
      "size": 1,
      "price": "1011000000000000000000",
      "reserved": "0x7a9fe22691c811ea339d9b73150e6911a5343dca",
      "salt": "0x26f2a427b49d7f44e2bd20ca261623116fe62f7aa0bcf1c1043b03a7eeaf1535",
      "assetIds": []
    },
    {
      "x": 129,
      "y": 363,
      "size": 1,
      "price": "1011000000000000000000",
      "reserved": "",
      "salt": "0xf643f372048b86f77a30458ecab6d68546a35fe87dd8f7c19c460676679ea63d",
      "assetIds": []
    },
    {
      "x": 129,
      "y": 364,
      "size": 1,
      "price": "1011000000000000000000",
      "reserved": "",
      "salt": "0x493b435d107719e75e89d8c03f7e847067398fc02d1d9450dfe3aa7c5c9708d5",
      "assetIds": []
    },
    {
      "x": 129,
      "y": 365,
      "size": 1,
      "price": "1011000000000000000000",
      "reserved": "",
      "salt": "0x78aa410ebde50168c69c36bff0ac60b20ae38739d4ab69d5b9329527e664251c",
      "assetIds": []
    },
    {
      "x": 129,
      "y": 369,
      "size": 1,
      "price": "1011000000000000000000",
      "reserved": "",
      "salt": "0xb7f4e776a089c44938220d1a223ad0583c86d477e7223eacda71e2d86485cf0e",
      "assetIds": []
    },
    {
      "x": 129,
      "y": 370,
      "size": 1,
      "price": "1011000000000000000000",
      "reserved": "",
      "salt": "0x80b697a9a9ea03eeefaf4944ec56e42e723e48e710e3dd57f9a6d596668aa099",
      "assetIds": []
    },
    {
      "x": 129,
      "y": 371,
      "size": 1,
      "price": "4683000000000000000000",
      "reserved": "",
      "salt": "0xeaf3f5c738f04448def6b5c1e813b1e3f73f3c8cd475dbdd454674c3eea94a59",
      "assetIds": [
        "41506478881403507969696680653240014914910929820314476107906210059990541021186"
      ]
    },
    {
      "x": 129,
      "y": 378,
      "size": 1,
      "price": "4683000000000000000000",
      "reserved": "",
      "salt": "0x82e619f2fc03c4f0cc7c3ffe5bc271895db294434ef4a188ff65655774b307a5",
      "assetIds": [
        "41506478881403507969696680653240014914910929820314476107906210059990541021186"
      ]
    },
    {
      "x": 129,
      "y": 379,
      "size": 1,
      "price": "1011000000000000000000",
      "reserved": "",
      "salt": "0xf3bab854fb057a45cbbd3b0e09a24c78bd1aeec2a27cffa75066eeb611790356",
      "assetIds": []
    },
    {
      "x": 129,
      "y": 380,
      "size": 1,
      "price": "1011000000000000000000",
      "reserved": "",
      "salt": "0x7c5c91f01ce3533b1f115aa00393e41c72860f224fd9f2949f107257d5c6beab",
      "assetIds": []
    },
    {
      "x": 129,
      "y": 381,
      "size": 1,
      "price": "1011000000000000000000",
      "reserved": "",
      "salt": "0x345f1fe5f45691786d8285de8721d747a1ebb3359198710ea6f0fe062b7763c8",
      "assetIds": []
    },
    {
      "x": 129,
      "y": 382,
      "size": 1,
      "price": "1011000000000000000000",
      "reserved": "0x7a9fe22691c811ea339d9b73150e6911a5343dca",
      "salt": "0x56c6220889c649d386bfa39c276464a68c43bdd8992df744d91a9e952fe57e80",
      "assetIds": []
    },
    {
      "x": 129,
      "y": 383,
      "size": 1,
      "price": "4683000000000000000000",
      "reserved": "",
      "salt": "0x2e5a51f464edcc354c4533a719079dcd7ebbadecc8a2392e5e68cf8626a82bf4",
      "assetIds": [
        "41506478881403507969696680653240014914910929820314476107906210059990541021186"
      ]
    },
    {
      "x": 129,
      "y": 396,
      "size": 1,
      "price": "1011000000000000000000",
      "reserved": "",
      "salt": "0xee5f557f7f1a2630bc7e09a18a2b8e480cc2d03a069939af12ea63f9dbf05256",
      "assetIds": []
    },
    {
      "x": 129,
      "y": 397,
      "size": 1,
      "price": "1011000000000000000000",
      "reserved": "",
      "salt": "0xb2b6f6a315a165d74c1d1c78e17e52dd5798e1146c04a1002ea1f66dacb99afb",
      "assetIds": []
    },
    {
      "x": 129,
      "y": 398,
      "size": 1,
      "price": "1011000000000000000000",
      "reserved": "",
      "salt": "0xcbf6f739da162f17a55a57fe9bed3bd0dde0bd712cd85bc9c710fc155bdcf3bb",
      "assetIds": []
    },
    {
      "x": 129,
      "y": 399,
      "size": 1,
      "price": "1011000000000000000000",
      "reserved": "",
      "salt": "0x4b085797157221b3640bb7a40d1f47f03a807488b13b1a1960b5fd5e1beac6b9",
      "assetIds": []
    },
    {
      "x": 129,
      "y": 400,
      "size": 1,
      "price": "1011000000000000000000",
      "reserved": "",
      "salt": "0x7583d03f85df7de0bda0b76ca7d790282dffa55fa63c753eafee41bbeb2c0acd",
      "assetIds": []
    },
    {
      "x": 129,
      "y": 401,
      "size": 1,
      "price": "1011000000000000000000",
      "reserved": "",
      "salt": "0x2ca2e2f11051bb51c98f4fdb72ba77c56c175cbe494b4cdef510d166ebf1d15a",
      "assetIds": []
    },
    {
      "x": 129,
      "y": 402,
      "size": 1,
      "price": "1011000000000000000000",
      "reserved": "",
      "salt": "0x2227fe5df07cbd125c9f8555cdeac368df1c6f4b9af46e5816e211369e695af7",
      "assetIds": []
    },
    {
      "x": 129,
      "y": 403,
      "size": 1,
      "price": "1011000000000000000000",
      "reserved": "",
      "salt": "0x9e065d1b98eef89d8613b46dd7441f3eef4b4b92129d7ebc19e99577ad2422ff",
      "assetIds": []
    },
    {
      "x": 129,
      "y": 404,
      "size": 1,
      "price": "1011000000000000000000",
      "reserved": "",
      "salt": "0x431ee6e122f082ef969f92dc320e2896de8e6585d05e79af3bb830ed676d9f23",
      "assetIds": []
    },
    {
      "x": 129,
      "y": 405,
      "size": 1,
      "price": "1011000000000000000000",
      "reserved": "",
      "salt": "0xa72ae535ba731f7e156deab71052d6143de8cdd1c8dbb4f5c5c12614c9853a9e",
      "assetIds": []
    },
    {
      "x": 129,
      "y": 406,
      "size": 1,
      "price": "1011000000000000000000",
      "reserved": "",
      "salt": "0x80fa21e2851efad3159e69ff4b107034a5ac4255cbbe36d0dfea2373604a5841",
      "assetIds": []
    },
    {
      "x": 129,
      "y": 407,
      "size": 1,
      "price": "1011000000000000000000",
      "reserved": "",
      "salt": "0x64d2d501a949c96c50a3f920ea266be4be6c115d32dc013bc96b34543ce84f84",
      "assetIds": []
    },
    {
      "x": 130,
      "y": 348,
      "size": 1,
      "price": "1011000000000000000000",
      "reserved": "",
      "salt": "0x3d42c25e5c1f088f398f1e23116380d8c9328b15affd6036ab66664a2e8a53a8",
      "assetIds": []
    },
    {
      "x": 130,
      "y": 349,
      "size": 1,
      "price": "1011000000000000000000",
      "reserved": "",
      "salt": "0x5cb81597e01b5120637d2f5620325b715b5ea4b374ee94d9394f1715e319a542",
      "assetIds": []
    },
    {
      "x": 130,
      "y": 350,
      "size": 1,
      "price": "1011000000000000000000",
      "reserved": "",
      "salt": "0xb5ccbc9f28eb382a61ef24450c9b1205d2a466be6364201aa0d4c5473ec0168c",
      "assetIds": []
    },
    {
      "x": 130,
      "y": 351,
      "size": 1,
      "price": "1011000000000000000000",
      "reserved": "",
      "salt": "0x23c4b81f23182107df65ea7edf6709ed44c7aa8c0dba87e2ca6cd7bb841f76b4",
      "assetIds": []
    },
    {
      "x": 130,
      "y": 352,
      "size": 1,
      "price": "1011000000000000000000",
      "reserved": "",
      "salt": "0x90bf85a7f8f1cd34400909cb193b174f70974da54c6aaa51b8bada8f171337df",
      "assetIds": []
    },
    {
      "x": 130,
      "y": 353,
      "size": 1,
      "price": "1011000000000000000000",
      "reserved": "",
      "salt": "0x01853fe71816cf8d266bd2bbc9b898da96fd41d086b2aa83641f0bbc4b95cdac",
      "assetIds": []
    },
    {
      "x": 130,
      "y": 354,
      "size": 1,
      "price": "1011000000000000000000",
      "reserved": "",
      "salt": "0xf43de91ec9f87ea9181b359ba4734619292d98bf585ff23522e18144b3c7b5f9",
      "assetIds": []
    },
    {
      "x": 130,
      "y": 355,
      "size": 1,
      "price": "1011000000000000000000",
      "reserved": "",
      "salt": "0xad3f52491a8164583c25ecca4afd00a6078a2a4a806bd8a32dceee4b332157c4",
      "assetIds": []
    },
    {
      "x": 130,
      "y": 356,
      "size": 1,
      "price": "1011000000000000000000",
      "reserved": "",
      "salt": "0xf442d9bdb34822205ffcc12f1bf6d2ab18b8f63c650d523b8de6d07057025ee3",
      "assetIds": []
    },
    {
      "x": 130,
      "y": 357,
      "size": 1,
      "price": "1011000000000000000000",
      "reserved": "",
      "salt": "0x6efceacf09f334b7415be9df9e041929cc16dc8bdbced8536995e7baddba8500",
      "assetIds": []
    },
    {
      "x": 130,
      "y": 358,
      "size": 1,
      "price": "4683000000000000000000",
      "reserved": "",
      "salt": "0xb734f56f5da1ee714ca746f2472ac5bced7a4df7583b82c59b7d0c52b94fb320",
      "assetIds": [
        "41506478881403507969696680653240014914910929820314476107906210059990541021186"
      ]
    },
    {
      "x": 130,
      "y": 359,
      "size": 1,
      "price": "4683000000000000000000",
      "reserved": "",
      "salt": "0xa0471c086bb588a074f80244d8be72c7c6ae2b3d3dcd3aaa15daf73e4274c282",
      "assetIds": [
        "41506478881403507969696680653240014914910929820314476107906210059990541021186"
      ]
    },
    {
      "x": 130,
      "y": 360,
      "size": 1,
      "price": "1011000000000000000000",
      "reserved": "0x7a9fe22691c811ea339d9b73150e6911a5343dca",
      "salt": "0x0f68e522498c980aa0a442978fd28b8cbdd17d58f53a2eb86caa365e746c1e78",
      "assetIds": []
    },
    {
      "x": 130,
      "y": 361,
      "size": 1,
      "price": "1011000000000000000000",
      "reserved": "",
      "salt": "0x376c918209535a1247e61ea974281efea63f351ba307f351c7d6500548dcc6de",
      "assetIds": []
    },
    {
      "x": 130,
      "y": 362,
      "size": 1,
      "price": "1011000000000000000000",
      "reserved": "",
      "salt": "0x163b4fec663cdd2d2b03ca847f13a993ca16b3707c7d799b21686de91bea5657",
      "assetIds": []
    },
    {
      "x": 130,
      "y": 363,
      "size": 1,
      "price": "1011000000000000000000",
      "reserved": "",
      "salt": "0x3bc8295b5a0de0e8d9e6e406bf039ca7b82e2c5be097562887faf179d4a798c0",
      "assetIds": []
    },
    {
      "x": 130,
      "y": 364,
      "size": 1,
      "price": "1011000000000000000000",
      "reserved": "",
      "salt": "0x6dea2e5a1672534842218953e369f370a1859a641175187254c8e91a6bbd3055",
      "assetIds": []
    },
    {
      "x": 130,
      "y": 365,
      "size": 1,
      "price": "1011000000000000000000",
      "reserved": "",
      "salt": "0x2eeb283829d80b7348b0f37f59eaf2f6291af6dcde3ff6437d4f4be2c3f69cf4",
      "assetIds": []
    },
    {
      "x": 130,
      "y": 369,
      "size": 1,
      "price": "1011000000000000000000",
      "reserved": "",
      "salt": "0x2603ab0aa03964b526602812abbd421c241cae38216d0ba2e572ad44f63b33a1",
      "assetIds": []
    },
    {
      "x": 130,
      "y": 370,
      "size": 1,
      "price": "1011000000000000000000",
      "reserved": "0x7a9fe22691c811ea339d9b73150e6911a5343dca",
      "salt": "0xe8e08ca6e4d1b69964047033a7ab2cfc6082c001a57e7092859879b959983328",
      "assetIds": []
    },
    {
      "x": 130,
      "y": 371,
      "size": 1,
      "price": "4683000000000000000000",
      "reserved": "",
      "salt": "0x6a9c898bb72f38a17cab8a3e637ddb552d61968e86f36d22b772a15932b96163",
      "assetIds": [
        "41506478881403507969696680653240014914910929820314476107906210059990541021186"
      ]
    },
    {
      "x": 130,
      "y": 378,
      "size": 1,
      "price": "4683000000000000000000",
      "reserved": "",
      "salt": "0xaa62845e0150690154d42e09c1acfa475146b9376a800edbaab78f699024fefe",
      "assetIds": [
        "41506478881403507969696680653240014914910929820314476107906210059990541021186"
      ]
    },
    {
      "x": 130,
      "y": 379,
      "size": 1,
      "price": "4683000000000000000000",
      "reserved": "",
      "salt": "0xafaa5daac4b0ecf397d0587a45261d68cb6aadceb328579ee8fdccabe9cb4310",
      "assetIds": [
        "41506478881403507969696680653240014914910929820314476107906210059990541021186"
      ]
    },
    {
      "x": 130,
      "y": 380,
      "size": 1,
      "price": "1011000000000000000000",
      "reserved": "0x7a9fe22691c811ea339d9b73150e6911a5343dca",
      "salt": "0x757244a6dbf3d2c5831846b92ab32c6b4c6df4ed746f1d6ff26e0e750a762ea2",
      "assetIds": []
    },
    {
      "x": 130,
      "y": 381,
      "size": 1,
      "price": "4683000000000000000000",
      "reserved": "",
      "salt": "0xb78c97110eb42a59680a3f5b05a0588a75c211441739b6eb0025c8a1e146677c",
      "assetIds": [
        "41506478881403507969696680653240014914910929820314476107906210059990541021186"
      ]
    },
    {
      "x": 130,
      "y": 382,
      "size": 1,
      "price": "4683000000000000000000",
      "reserved": "",
      "salt": "0xbc701225f0086225a9bbce38d22919cccbfd55c3381702b84ae967388c75a3c5",
      "assetIds": [
        "41506478881403507969696680653240014914910929820314476107906210059990541021186"
      ]
    },
    {
      "x": 130,
      "y": 383,
      "size": 1,
      "price": "4683000000000000000000",
      "reserved": "",
      "salt": "0x7d3ab57fd55972f332bf06dcca736dc7702183cb8ca9fbce315e642c835f8240",
      "assetIds": [
        "41506478881403507969696680653240014914910929820314476107906210059990541021186"
      ]
    },
    {
      "x": 130,
      "y": 396,
      "size": 1,
      "price": "1011000000000000000000",
      "reserved": "",
      "salt": "0x3ee35edd7f5d657432ab4d1332b8c99978222a3efffb2a1af64073806ad4cb33",
      "assetIds": []
    },
    {
      "x": 130,
      "y": 397,
      "size": 1,
      "price": "1011000000000000000000",
      "reserved": "",
      "salt": "0x231b9cd07d9e31b528c734dd012d32109ef66ba913b197a3298b55cf0c1436d1",
      "assetIds": []
    },
    {
      "x": 130,
      "y": 398,
      "size": 1,
      "price": "1011000000000000000000",
      "reserved": "",
      "salt": "0xea14582dc10e186d770de26a8e2e762f6d33a4ebdc5acdf8d2f1b0e41e1d895e",
      "assetIds": []
    },
    {
      "x": 130,
      "y": 399,
      "size": 1,
      "price": "1011000000000000000000",
      "reserved": "0x7a9fe22691c811ea339d9b73150e6911a5343dca",
      "salt": "0xf33ebd227cd51262bb98491206ff3a92bc66a033f0c1f3b34ab57759c5324ac8",
      "assetIds": []
    },
    {
      "x": 130,
      "y": 400,
      "size": 1,
      "price": "1011000000000000000000",
      "reserved": "",
      "salt": "0xbeb7b8b8b918fdb3644bd8b49782de43ada313e503a8cc56da5c47350c572a87",
      "assetIds": []
    },
    {
      "x": 130,
      "y": 401,
      "size": 1,
      "price": "1011000000000000000000",
      "reserved": "",
      "salt": "0x570a538d27064aec08b4aa2643ae69e28f519687aa2e8d752014e089074a30ac",
      "assetIds": []
    },
    {
      "x": 130,
      "y": 402,
      "size": 1,
      "price": "1011000000000000000000",
      "reserved": "",
      "salt": "0xe6c74aa006971667780c49a8168d22f859f518b6fc4a0165896181fe8500a9c9",
      "assetIds": []
    },
    {
      "x": 130,
      "y": 403,
      "size": 1,
      "price": "1011000000000000000000",
      "reserved": "",
      "salt": "0x3fe446ad4dfc30f3f9ae812d8f86d6350815593975fe34a1f4458b56bc393d4d",
      "assetIds": []
    },
    {
      "x": 130,
      "y": 404,
      "size": 1,
      "price": "1011000000000000000000",
      "reserved": "",
      "salt": "0x6f96db370fa3fc2a50610856788ad7518f5cd5758587e67a30510eede02f5a1e",
      "assetIds": []
    },
    {
      "x": 130,
      "y": 405,
      "size": 1,
      "price": "1011000000000000000000",
      "reserved": "",
      "salt": "0x0117ec7d90aacc626b2bccc6c4f9b95085039f4bcf39576d45a35b2061bc7ea2",
      "assetIds": []
    },
    {
      "x": 130,
      "y": 406,
      "size": 1,
      "price": "1011000000000000000000",
      "reserved": "",
      "salt": "0x6218f5b30d8001d71421b575ca78dd904370d287b82723c2c5e073f5341f1f4b",
      "assetIds": []
    },
    {
      "x": 130,
      "y": 407,
      "size": 1,
      "price": "1011000000000000000000",
      "reserved": "0x7a9fe22691c811ea339d9b73150e6911a5343dca",
      "salt": "0x62d3d26a57858dd3a0fa51c6efe8cf731384726de612ecf7842c1b7f480a3633",
      "assetIds": []
    },
    {
      "x": 131,
      "y": 348,
      "size": 1,
      "price": "4683000000000000000000",
      "reserved": "",
      "salt": "0xf88d0f74b230458195a80023985636c483467e0b76ecec80507834632547b205",
      "assetIds": [
        "41506478881403507969696680653240014914910929820314476107906210059990541021186"
      ]
    },
    {
      "x": 131,
      "y": 349,
      "size": 1,
      "price": "4683000000000000000000",
      "reserved": "",
      "salt": "0x631a9a67dee8caf673960be68881fc7c91bf0b1251ed4ecce7117b4de0fdff9d",
      "assetIds": [
        "41506478881403507969696680653240014914910929820314476107906210059990541021186"
      ]
    },
    {
      "x": 131,
      "y": 350,
      "size": 1,
      "price": "4683000000000000000000",
      "reserved": "",
      "salt": "0x772eca50dc8fc50aea9eb27b6514f6079dbfdec2b4441bf5495f8203ab2db22c",
      "assetIds": [
        "41506478881403507969696680653240014914910929820314476107906210059990541021186"
      ]
    },
    {
      "x": 131,
      "y": 351,
      "size": 1,
      "price": "4683000000000000000000",
      "reserved": "",
      "salt": "0xaadea5a97a4180d48b27f66f858d2442267a276e8c8713e1b687d0d413a1fe36",
      "assetIds": [
        "41506478881403507969696680653240014914910929820314476107906210059990541021186"
      ]
    },
    {
      "x": 131,
      "y": 352,
      "size": 1,
      "price": "4683000000000000000000",
      "reserved": "",
      "salt": "0x99cc1c8f27fc9784978be253370186cdb2b4c437602e0cc70880b55076fa5be7",
      "assetIds": [
        "41506478881403507969696680653240014914910929820314476107906210059990541021186"
      ]
    },
    {
      "x": 131,
      "y": 353,
      "size": 1,
      "price": "4683000000000000000000",
      "reserved": "",
      "salt": "0x693182e3cbaf9ea62501c314b15f6695f7940c0bb6e3a2bbd728d8411a18ff21",
      "assetIds": [
        "41506478881403507969696680653240014914910929820314476107906210059990541021186"
      ]
    },
    {
      "x": 131,
      "y": 354,
      "size": 1,
      "price": "4683000000000000000000",
      "reserved": "",
      "salt": "0x947771f5146cc1aa193ae925ed574ba44e44382d3a58402936360068855f9cc1",
      "assetIds": [
        "41506478881403507969696680653240014914910929820314476107906210059990541021186"
      ]
    },
    {
      "x": 131,
      "y": 355,
      "size": 1,
      "price": "1011000000000000000000",
      "reserved": "0x7a9fe22691c811ea339d9b73150e6911a5343dca",
      "salt": "0xb930c4da59023a088f3d46f46aa4986d2b73bf20338856edd4995f8486d03a6e",
      "assetIds": []
    },
    {
      "x": 131,
      "y": 356,
      "size": 1,
      "price": "4683000000000000000000",
      "reserved": "",
      "salt": "0x6f66da9e9c969ccedae1005f627dcd25318e75b02ce1fe9fb7b65f9acdc24fc5",
      "assetIds": [
        "41506478881403507969696680653240014914910929820314476107906210059990541021186"
      ]
    },
    {
      "x": 131,
      "y": 357,
      "size": 1,
      "price": "4683000000000000000000",
      "reserved": "",
      "salt": "0xc12b8abafb43b620c4ac6c3e6f1f9e6a602134465ee47c371c7f258cd94f6345",
      "assetIds": [
        "41506478881403507969696680653240014914910929820314476107906210059990541021186"
      ]
    },
    {
      "x": 131,
      "y": 358,
      "size": 1,
      "price": "4683000000000000000000",
      "reserved": "",
      "salt": "0x2538611e9b88bac70821e90f9cb3d78ea7ad6d4c025a17ae77f38cd6e0020329",
      "assetIds": [
        "41506478881403507969696680653240014914910929820314476107906210059990541021186"
      ]
    },
    {
      "x": 131,
      "y": 359,
      "size": 1,
      "price": "4683000000000000000000",
      "reserved": "",
      "salt": "0xe016b0bcaf16e8cd6c2bf0ee62b221c73ebf16e48ab5a4a3d17384fcc1ec5aa3",
      "assetIds": [
        "41506478881403507969696680653240014914910929820314476107906210059990541021186"
      ]
    },
    {
      "x": 131,
      "y": 360,
      "size": 1,
      "price": "4683000000000000000000",
      "reserved": "",
      "salt": "0x1d18e988b1001e5e300dfab6847632bc7cbc04f4cba8a4965a6d2ebcc0e95521",
      "assetIds": [
        "41506478881403507969696680653240014914910929820314476107906210059990541021186"
      ]
    },
    {
      "x": 131,
      "y": 361,
      "size": 1,
      "price": "1011000000000000000000",
      "reserved": "",
      "salt": "0xaa9388019832b1821d9604800bfd4a4bda400547baf1a5548373911f87163c07",
      "assetIds": []
    },
    {
      "x": 131,
      "y": 362,
      "size": 1,
      "price": "1011000000000000000000",
      "reserved": "0x7a9fe22691c811ea339d9b73150e6911a5343dca",
      "salt": "0x4b725545c0bc4a2d97dcd0f75c3835bede67ffe43b333414ee8a33ccc52177d0",
      "assetIds": []
    },
    {
      "x": 131,
      "y": 363,
      "size": 1,
      "price": "1011000000000000000000",
      "reserved": "",
      "salt": "0x365871f851d9fcced3a68f4190b112c4b6f9953d177c10b17de9ca1c7173e169",
      "assetIds": []
    },
    {
      "x": 131,
      "y": 364,
      "size": 1,
      "price": "1011000000000000000000",
      "reserved": "0x7a9fe22691c811ea339d9b73150e6911a5343dca",
      "salt": "0x9b73a5105d351646405db9a1ffc90b92eaaddf848dd8a650d543d17f095e6955",
      "assetIds": []
    },
    {
      "x": 131,
      "y": 365,
      "size": 1,
      "price": "1011000000000000000000",
      "reserved": "",
      "salt": "0xdcd88fe69b60624f2eaf6ff1097a9e008906a769aebb98def440c6bd107a260d",
      "assetIds": []
    },
    {
      "x": 131,
      "y": 369,
      "size": 1,
      "price": "1011000000000000000000",
      "reserved": "",
      "salt": "0x5cd9f45433a087608a3f6aaf6bca14f9861182642aa07db88455a29ed7d317da",
      "assetIds": []
    },
    {
      "x": 131,
      "y": 370,
      "size": 1,
      "price": "4683000000000000000000",
      "reserved": "",
      "salt": "0x9ab8871b26735ed959386a0ed6ce05c5851ee808b98ec9c49bc199b5c98d840d",
      "assetIds": [
        "41506478881403507969696680653240014914910929820314476107906210059990541021186"
      ]
    },
    {
      "x": 131,
      "y": 371,
      "size": 1,
      "price": "4683000000000000000000",
      "reserved": "",
      "salt": "0x33e9ae6e1665806f775c7ac95f3afbff14a277c307784dc646e1a30c9c85008d",
      "assetIds": [
        "41506478881403507969696680653240014914910929820314476107906210059990541021186"
      ]
    },
    {
      "x": 131,
      "y": 378,
      "size": 1,
      "price": "4683000000000000000000",
      "reserved": "",
      "salt": "0x15512e8df55825cc77dbc44fe3f9c698d5e968d61ac82b7d607ad1a4d78b6cfd",
      "assetIds": [
        "41506478881403507969696680653240014914910929820314476107906210059990541021186"
      ]
    },
    {
      "x": 131,
      "y": 379,
      "size": 1,
      "price": "4683000000000000000000",
      "reserved": "",
      "salt": "0xa18cdcb01379d96420013d1bf8496a64625f5282c0f166012163040564c55cab",
      "assetIds": [
        "41506478881403507969696680653240014914910929820314476107906210059990541021186"
      ]
    },
    {
      "x": 131,
      "y": 380,
      "size": 1,
      "price": "4683000000000000000000",
      "reserved": "",
      "salt": "0xe1f3a9cf8d11760d41c8d2c451a60b9beb32bbc5fe2a5dd01125301c0a59bd36",
      "assetIds": [
        "41506478881403507969696680653240014914910929820314476107906210059990541021186"
      ]
    },
    {
      "x": 131,
      "y": 381,
      "size": 1,
      "price": "4683000000000000000000",
      "reserved": "",
      "salt": "0x7d4bae11388f89407fb5c4f38952c62f737ddb4e2a9f532334e6565c96182de1",
      "assetIds": [
        "41506478881403507969696680653240014914910929820314476107906210059990541021186"
      ]
    },
    {
      "x": 131,
      "y": 382,
      "size": 1,
      "price": "4683000000000000000000",
      "reserved": "",
      "salt": "0xf2d96dccb9dd7eb404b4fff16a78c8f308631e0d7b0b0b41b9cb6ea76c73eab9",
      "assetIds": [
        "41506478881403507969696680653240014914910929820314476107906210059990541021186"
      ]
    },
    {
      "x": 131,
      "y": 383,
      "size": 1,
      "price": "4683000000000000000000",
      "reserved": "",
      "salt": "0xa0ea09a64622bbbef0e476de4693ef3c7530484a1c8a556758b7f00523650f83",
      "assetIds": [
        "41506478881403507969696680653240014914910929820314476107906210059990541021186"
      ]
    },
    {
      "x": 131,
      "y": 396,
      "size": 1,
      "price": "1011000000000000000000",
      "reserved": "",
      "salt": "0xaee32f0fe4698cb349a5f2cbd571fa1015d8645617be26053f4a93f6e32a3b00",
      "assetIds": []
    },
    {
      "x": 131,
      "y": 397,
      "size": 1,
      "price": "1011000000000000000000",
      "reserved": "",
      "salt": "0xadde4270fe6e7254fdf7d09d086b1a10d82c1cdea2ff01d37b4b046401711b7b",
      "assetIds": []
    },
    {
      "x": 131,
      "y": 398,
      "size": 1,
      "price": "1011000000000000000000",
      "reserved": "",
      "salt": "0xcc97a6887115a85651f34a8a4fb3dcfac4ab985463cde230845db3707eda893a",
      "assetIds": []
    },
    {
      "x": 131,
      "y": 399,
      "size": 1,
      "price": "1011000000000000000000",
      "reserved": "0x7a9fe22691c811ea339d9b73150e6911a5343dca",
      "salt": "0xf4c7f01a15459cb9fae96d5e0897c3cfd09868040dfb04c8a4a0c045a3e1057f",
      "assetIds": []
    },
    {
      "x": 131,
      "y": 400,
      "size": 1,
      "price": "1011000000000000000000",
      "reserved": "",
      "salt": "0x93fe9007331f1e9af0ce7a9577fb38ee53a8ab5c53b94b9cf55064f049fa99ac",
      "assetIds": []
    },
    {
      "x": 131,
      "y": 401,
      "size": 1,
      "price": "1011000000000000000000",
      "reserved": "0x7a9fe22691c811ea339d9b73150e6911a5343dca",
      "salt": "0x30546b489c55dc8b567279007a06cfd93c283ceff232c29b23e3eb2e5ef3e47a",
      "assetIds": []
    },
    {
      "x": 131,
      "y": 402,
      "size": 1,
      "price": "1011000000000000000000",
      "reserved": "",
      "salt": "0x85849bc69b99bec67fb09618e6b1d292122de8aad2688d964bd2d1e672a1eb07",
      "assetIds": []
    },
    {
      "x": 131,
      "y": 403,
      "size": 1,
      "price": "1011000000000000000000",
      "reserved": "",
      "salt": "0x9c2fb024be0fd6565db196bf6b159d87b64edeffc88e5f2474448f42277b76ec",
      "assetIds": []
    },
    {
      "x": 131,
      "y": 404,
      "size": 1,
      "price": "1011000000000000000000",
      "reserved": "",
      "salt": "0xef1e5d2301887e80dd63503d370c29b8545d34b331df19737b57a2d1000a554e",
      "assetIds": []
    },
    {
      "x": 131,
      "y": 405,
      "size": 1,
      "price": "1011000000000000000000",
      "reserved": "0x7a9fe22691c811ea339d9b73150e6911a5343dca",
      "salt": "0x817f267895c8567dfa97a5c984c60f3611d6cd507709e229dc1aa52506ff96d1",
      "assetIds": []
    },
    {
      "x": 131,
      "y": 406,
      "size": 1,
      "price": "1011000000000000000000",
      "reserved": "",
      "salt": "0x055949fca327892d9220c4663084d828fb633eb62207f08cd5a218bae5af2597",
      "assetIds": []
    },
    {
      "x": 131,
      "y": 407,
      "size": 1,
      "price": "1011000000000000000000",
      "reserved": "",
      "salt": "0x451e2fd82554ce6bb885d0cc0138ebba62a45e6da529faa22849cd63b43bfc41",
      "assetIds": []
    },
    {
      "x": 132,
      "y": 346,
      "size": 1,
      "price": "1011000000000000000000",
      "reserved": "",
      "salt": "0x88f7b2181aceee914b01e89474581d3ca52f7a470eebe553d358bbe618b3cd90",
      "assetIds": []
    },
    {
      "x": 132,
      "y": 347,
      "size": 1,
      "price": "4683000000000000000000",
      "reserved": "",
      "salt": "0xe12f6f6ff0d9906b641a408ad91a3cef371dad0076b8a09a9ed37989910d2705",
      "assetIds": [
        "41506478881403507969696680653240014914910929820314476107906210059990541021186"
      ]
    },
    {
      "x": 132,
      "y": 360,
      "size": 1,
      "price": "4683000000000000000000",
      "reserved": "",
      "salt": "0xd4cf2a2312fe9c4fbf9a416570a00b4db03eb9ff849f9122c2c3cdb1cfa6f91c",
      "assetIds": [
        "41506478881403507969696680653240014914910929820314476107906210059990541021186"
      ]
    },
    {
      "x": 132,
      "y": 361,
      "size": 1,
      "price": "1011000000000000000000",
      "reserved": "",
      "salt": "0xf5daaa663ff3db05221fff1d2d36cab8d2d0221717e6f645f5ee6552e4e93cb2",
      "assetIds": []
    },
    {
      "x": 132,
      "y": 362,
      "size": 1,
      "price": "1011000000000000000000",
      "reserved": "",
      "salt": "0x4d319d5f4e52832187d72419ac8ef0dbbe211dfeabdf1061c504964642376d7a",
      "assetIds": []
    },
    {
      "x": 132,
      "y": 363,
      "size": 1,
      "price": "1011000000000000000000",
      "reserved": "",
      "salt": "0xd6d8e048711dc047663e3c9c7b359221610df32836c3b077628f7cc39aa7e997",
      "assetIds": []
    },
    {
      "x": 132,
      "y": 364,
      "size": 1,
      "price": "1011000000000000000000",
      "reserved": "",
      "salt": "0x4733d1e27d6d6a818db917da0730e7ab60eb877a3ee85b83c2d492f7dc4eb222",
      "assetIds": []
    },
    {
      "x": 132,
      "y": 365,
      "size": 1,
      "price": "1011000000000000000000",
      "reserved": "",
      "salt": "0x436e0e2b1bb756ef83c6b2fe244a4d7b867c4fc7f569acfea0483611e9b437aa",
      "assetIds": []
    },
    {
      "x": 132,
      "y": 366,
      "size": 1,
      "price": "1011000000000000000000",
      "reserved": "",
      "salt": "0x92039fc2b997ba85cea6bdee969482b50d6b4a1fcf207973cd33154f7b7dc189",
      "assetIds": []
    },
    {
      "x": 132,
      "y": 367,
      "size": 1,
      "price": "1011000000000000000000",
      "reserved": "",
      "salt": "0xebbcc9f6774614a1492a25fd31c1bb1b3e46f65507985ebd135e481abd38bc6d",
      "assetIds": []
    },
    {
      "x": 132,
      "y": 368,
      "size": 1,
      "price": "1011000000000000000000",
      "reserved": "0x7a9fe22691c811ea339d9b73150e6911a5343dca",
      "salt": "0xec40e06fd3c884f01f283bf6d43cc17641b80f4f4e67390cf220b7ec3b1cc6e4",
      "assetIds": []
    },
    {
      "x": 132,
      "y": 369,
      "size": 1,
      "price": "1011000000000000000000",
      "reserved": "",
      "salt": "0x978326e74c5c1dd95ced180633febbdbbc283e3fbba5234b3b53157a8f0da03d",
      "assetIds": []
    },
    {
      "x": 132,
      "y": 370,
      "size": 1,
      "price": "1011000000000000000000",
      "reserved": "",
      "salt": "0x6034ec9d00158c12699f5d43af7c47d6c592fbb3ea4ea6f3545315f2579c034a",
      "assetIds": []
    },
    {
      "x": 132,
      "y": 371,
      "size": 1,
      "price": "4683000000000000000000",
      "reserved": "",
      "salt": "0xeae178b5a0f64b960bf35f3146ba4c31a5b55ca404824dd7a1cb215a0852cf8e",
      "assetIds": [
        "41506478881403507969696680653240014914910929820314476107906210059990541021186"
      ]
    },
    {
      "x": 132,
      "y": 384,
      "size": 1,
      "price": "4683000000000000000000",
      "reserved": "",
      "salt": "0xf753b003425cc4107298a30e82ed40ee45611fb841fd0e3dce643a519e3a72f9",
      "assetIds": [
        "41506478881403507969696680653240014914910929820314476107906210059990541021186"
      ]
    },
    {
      "x": 132,
      "y": 385,
      "size": 1,
      "price": "4683000000000000000000",
      "reserved": "",
      "salt": "0x9381a72aeaaceb51ef369c580035f8ec928f932904d636549cbaeec81f11ea42",
      "assetIds": [
        "41506478881403507969696680653240014914910929820314476107906210059990541021186"
      ]
    },
    {
      "x": 132,
      "y": 386,
      "size": 1,
      "price": "4683000000000000000000",
      "reserved": "",
      "salt": "0xf3942f1c082626b044c8b5b09cd6ad2d4f49a50d66b2f3682d65ff592d61503b",
      "assetIds": [
        "41506478881403507969696680653240014914910929820314476107906210059990541021186"
      ]
    },
    {
      "x": 132,
      "y": 387,
      "size": 1,
      "price": "4683000000000000000000",
      "reserved": "",
      "salt": "0x044f85e84de8328ef0d98fca5f6e9b7fbebd6769f1371e75c31dd8f5964f6eb8",
      "assetIds": [
        "41506478881403507969696680653240014914910929820314476107906210059990541021186"
      ]
    },
    {
      "x": 132,
      "y": 388,
      "size": 1,
      "price": "4683000000000000000000",
      "reserved": "",
      "salt": "0x7a4e7eef51e3bf49bba1f698a2c47f44c9ef067bf06e9241f2678db7bcac6d7f",
      "assetIds": [
        "41506478881403507969696680653240014914910929820314476107906210059990541021186"
      ]
    },
    {
      "x": 132,
      "y": 389,
      "size": 1,
      "price": "4683000000000000000000",
      "reserved": "",
      "salt": "0x0261a9e7f1a7186b1b19a965f0d62a1eb1b255975cc5c70bf24ac78eba4b56da",
      "assetIds": [
        "41506478881403507969696680653240014914910929820314476107906210059990541021186"
      ]
    },
    {
      "x": 132,
      "y": 393,
      "size": 1,
      "price": "1011000000000000000000",
      "reserved": "0x7a9fe22691c811ea339d9b73150e6911a5343dca",
      "salt": "0xbebaa16dee65be2115f4cef86015505ba9fc06009a9c9742fa5167699e997bbf",
      "assetIds": []
    },
    {
      "x": 132,
      "y": 394,
      "size": 1,
      "price": "1011000000000000000000",
      "reserved": "",
      "salt": "0x80dcc4947aeb4348af9214e411394579303c8771aa6078255f21836f06893953",
      "assetIds": []
    },
    {
      "x": 132,
      "y": 395,
      "size": 1,
      "price": "1011000000000000000000",
      "reserved": "",
      "salt": "0x20ae257310d1d7667c1e16d0c4f6bff215b17fe89dda756022c54445a2b9949a",
      "assetIds": []
    },
    {
      "x": 132,
      "y": 402,
      "size": 1,
      "price": "1011000000000000000000",
      "reserved": "",
      "salt": "0x71fb14672e1b9aed2695467917b55a20e7aafaf516d89b93094693a7df5749b1",
      "assetIds": []
    },
    {
      "x": 132,
      "y": 403,
      "size": 1,
      "price": "1011000000000000000000",
      "reserved": "",
      "salt": "0x2e83f1672094da70d0147f237426592d867f73542c0107e0aa0f3ed441c76b28",
      "assetIds": []
    },
    {
      "x": 132,
      "y": 404,
      "size": 1,
      "price": "1011000000000000000000",
      "reserved": "0x7a9fe22691c811ea339d9b73150e6911a5343dca",
      "salt": "0x8cf8337c777e29bbb09e49cbc6463de4a5b5dac712ae6767492d71acd7feca11",
      "assetIds": []
    },
    {
      "x": 132,
      "y": 405,
      "size": 1,
      "price": "1011000000000000000000",
      "reserved": "",
      "salt": "0x0e8f185e9a96dd7137d87fd7494f69dcd8378c4f228cbd5c5413e21ec93ed621",
      "assetIds": []
    },
    {
      "x": 132,
      "y": 406,
      "size": 1,
      "price": "1011000000000000000000",
      "reserved": "",
      "salt": "0x3671b060e9a89bd7f8168e62a8d0e2ac9ce71c42355da636f39f8d598eef2c0d",
      "assetIds": []
    },
    {
      "x": 132,
      "y": 407,
      "size": 1,
      "price": "1011000000000000000000",
      "reserved": "",
      "salt": "0x3aa0fb042a80eb643a05016c4a068cef8510a337c7eb85cd2813948a6272c080",
      "assetIds": []
    },
    {
      "x": 133,
      "y": 346,
      "size": 1,
      "price": "1011000000000000000000",
      "reserved": "",
      "salt": "0x5ba1d04e221d354cdbcd2a7dbfffdeb5226b1e284bcfa8b77e665c23b6214679",
      "assetIds": []
    },
    {
      "x": 133,
      "y": 347,
      "size": 1,
      "price": "4683000000000000000000",
      "reserved": "",
      "salt": "0x4e3f3534c2f76747a5e40e908a8471c39da9788aa482efcc062dc325b3b6732f",
      "assetIds": [
        "41506478881403507969696680653240014914910929820314476107906210059990541021186"
      ]
    },
    {
      "x": 133,
      "y": 360,
      "size": 1,
      "price": "4683000000000000000000",
      "reserved": "",
      "salt": "0x7acc5d8e90d3b4bc3d04db0212e38e456137138bdb6786f54c37182362b2775d",
      "assetIds": [
        "41506478881403507969696680653240014914910929820314476107906210059990541021186"
      ]
    },
    {
      "x": 133,
      "y": 361,
      "size": 1,
      "price": "1011000000000000000000",
      "reserved": "",
      "salt": "0x26626ec371b38cba1e0b31964643d1da539493dd19369369edeea6ab6acccef8",
      "assetIds": []
    },
    {
      "x": 133,
      "y": 362,
      "size": 1,
      "price": "1011000000000000000000",
      "reserved": "0x7a9fe22691c811ea339d9b73150e6911a5343dca",
      "salt": "0xd7c8875237f3d2d4507bd62941f3923e887b8a7d8c1345cb2080fedf6b3a4967",
      "assetIds": []
    },
    {
      "x": 133,
      "y": 363,
      "size": 1,
      "price": "1011000000000000000000",
      "reserved": "",
      "salt": "0x1ba22e437bf941f1fe029996de4c4bb41ba535438f21cc23caa3496c3ddf567d",
      "assetIds": []
    },
    {
      "x": 133,
      "y": 364,
      "size": 1,
      "price": "1011000000000000000000",
      "reserved": "",
      "salt": "0xbaf7652c69cc86ec0ea95ad6966afb34ad635f6f7cb091f21424e1ecf36befee",
      "assetIds": []
    },
    {
      "x": 133,
      "y": 365,
      "size": 1,
      "price": "1011000000000000000000",
      "reserved": "",
      "salt": "0xb46d9afc6ace755ce04da0b0107fed8559d0df5e97e9000fa0ec7cf38d0d6ca3",
      "assetIds": []
    },
    {
      "x": 133,
      "y": 366,
      "size": 1,
      "price": "1011000000000000000000",
      "reserved": "",
      "salt": "0x3d9d20669374499b036b148a0a1ace862f7b73ba1cb6e6420d0bfe8abde4f3da",
      "assetIds": []
    },
    {
      "x": 133,
      "y": 367,
      "size": 1,
      "price": "1011000000000000000000",
      "reserved": "",
      "salt": "0x605c98823ea467a35692ab6ee3d6fcf00e2fa6eb1dca7d33a066b0bb8c5d4de5",
      "assetIds": []
    },
    {
      "x": 133,
      "y": 368,
      "size": 1,
      "price": "1011000000000000000000",
      "reserved": "",
      "salt": "0xedcb11f5ba71eab768fa793276347cb205e4a5c5d4db394da3a61d18ca4cc395",
      "assetIds": []
    },
    {
      "x": 133,
      "y": 369,
      "size": 1,
      "price": "1011000000000000000000",
      "reserved": "",
      "salt": "0x19ce4ef8f221282f78e95f1455cb85c363caac66fea436cf91bed9c0f33c20b6",
      "assetIds": []
    },
    {
      "x": 133,
      "y": 370,
      "size": 1,
      "price": "1011000000000000000000",
      "reserved": "",
      "salt": "0x27b3bb7ab94c7029f4f05df178f70e4d747cb8e2bb1f45623c1c71d188c7ca8e",
      "assetIds": []
    },
    {
      "x": 133,
      "y": 371,
      "size": 1,
      "price": "4683000000000000000000",
      "reserved": "",
      "salt": "0x3e5f009b7413716e1924f232646cf533d0033bbfdaae959ca0dd6f0f1dca19b0",
      "assetIds": [
        "41506478881403507969696680653240014914910929820314476107906210059990541021186"
      ]
    },
    {
      "x": 133,
      "y": 384,
      "size": 1,
      "price": "4683000000000000000000",
      "reserved": "",
      "salt": "0x62dc0c9b4b7c8c0e7f306e471476408bf302cce5304d9ad6a8e428ea39825f65",
      "assetIds": [
        "41506478881403507969696680653240014914910929820314476107906210059990541021186"
      ]
    },
    {
      "x": 133,
      "y": 385,
      "size": 1,
      "price": "4683000000000000000000",
      "reserved": "",
      "salt": "0x1b92218c5f14c38f4964d8726d46e6bb59caafe233db02c0b01790a6cd544df8",
      "assetIds": [
        "41506478881403507969696680653240014914910929820314476107906210059990541021186"
      ]
    },
    {
      "x": 133,
      "y": 386,
      "size": 1,
      "price": "1011000000000000000000",
      "reserved": "",
      "salt": "0x929ce12ba3fbb1b934f8fc31ebde50b04f4ceab337765b64135bf67057335b72",
      "assetIds": []
    },
    {
      "x": 133,
      "y": 387,
      "size": 1,
      "price": "1011000000000000000000",
      "reserved": "",
      "salt": "0x586456966ec1d8c71a291e74c36bfbb73cc0848f886d0fb55fe562d3990e6143",
      "assetIds": []
    },
    {
      "x": 133,
      "y": 388,
      "size": 1,
      "price": "1011000000000000000000",
      "reserved": "0x7a9fe22691c811ea339d9b73150e6911a5343dca",
      "salt": "0xccdc7c7c3d38654bfccc5b1677b73c920f0b58f8f2a612e6aa4e5df89d316c43",
      "assetIds": []
    },
    {
      "x": 133,
      "y": 389,
      "size": 1,
      "price": "1011000000000000000000",
      "reserved": "",
      "salt": "0xa76c96140124f3466fdc798efbfb1b1eca4b8d85d1eb8cee7d8df8d82a4a686b",
      "assetIds": []
    },
    {
      "x": 133,
      "y": 393,
      "size": 1,
      "price": "1011000000000000000000",
      "reserved": "",
      "salt": "0xadd22ac26a75d3f7531f66080645ff3a9032ef87c9a64a9ea92bace33b8382ee",
      "assetIds": []
    },
    {
      "x": 133,
      "y": 394,
      "size": 1,
      "price": "1011000000000000000000",
      "reserved": "",
      "salt": "0x06ae787909e4d0692257477c25fdd42bb6fd6a7cb032b04adabf3796d959fb25",
      "assetIds": []
    },
    {
      "x": 133,
      "y": 395,
      "size": 1,
      "price": "1011000000000000000000",
      "reserved": "",
      "salt": "0x349130ffcbc62a1cdbab62cdc4befaecda78c27592529a019c4f65bc6be10358",
      "assetIds": []
    },
    {
      "x": 133,
      "y": 402,
      "size": 1,
      "price": "1011000000000000000000",
      "reserved": "",
      "salt": "0x5e0bfbf2f70dca4a58600ea5a6cd0e79df9885e10a3ea64a2d84152700ff7c9a",
      "assetIds": []
    },
    {
      "x": 133,
      "y": 403,
      "size": 1,
      "price": "1011000000000000000000",
      "reserved": "",
      "salt": "0x61c617160d0d30eda499d39d61c18bbae237d1e0bbb7d183097b144308cd8487",
      "assetIds": []
    },
    {
      "x": 133,
      "y": 404,
      "size": 1,
      "price": "1011000000000000000000",
      "reserved": "",
      "salt": "0x2bfb21476fed1b93214705c1a767723c605a69e2d06429f8fcb200a30ca80418",
      "assetIds": []
    },
    {
      "x": 133,
      "y": 405,
      "size": 1,
      "price": "1011000000000000000000",
      "reserved": "0x7a9fe22691c811ea339d9b73150e6911a5343dca",
      "salt": "0x58c126b1bdc4af5202b971632ecbd1196e6c5bc7892811806d5c4273964464eb",
      "assetIds": []
    },
    {
      "x": 133,
      "y": 406,
      "size": 1,
      "price": "1011000000000000000000",
      "reserved": "",
      "salt": "0x070b8630090f186f4985a3bf5b03566647487cf751aa2d68dfdea8445588a785",
      "assetIds": []
    },
    {
      "x": 133,
      "y": 407,
      "size": 1,
      "price": "1011000000000000000000",
      "reserved": "",
      "salt": "0x8787a6a19d2652bd2631f447724cbbc3f80f4fb0b620b535c6542b79bafbd4b9",
      "assetIds": []
    },
    {
      "x": 134,
      "y": 346,
      "size": 1,
      "price": "1011000000000000000000",
      "reserved": "",
      "salt": "0x9253af8dee2ecfea98a1df1b2e06546ca57218d5f33998307296409723cdbec1",
      "assetIds": []
    },
    {
      "x": 134,
      "y": 347,
      "size": 1,
      "price": "4683000000000000000000",
      "reserved": "",
      "salt": "0xb9c22e7c95078a3d198e7e511ff687e228208fd6da8ea223c0cb2ae78a982fbf",
      "assetIds": [
        "41506478881403507969696680653240014914910929820314476107906210059990541021186"
      ]
    },
    {
      "x": 134,
      "y": 360,
      "size": 1,
      "price": "4683000000000000000000",
      "reserved": "",
      "salt": "0x766d038ebea5a7f0ba22669f2d8dc9e18de68401dfa118e920a87516f5199ac3",
      "assetIds": [
        "41506478881403507969696680653240014914910929820314476107906210059990541021186"
      ]
    },
    {
      "x": 134,
      "y": 361,
      "size": 1,
      "price": "1011000000000000000000",
      "reserved": "",
      "salt": "0x1ac988a2cea92e11d6fd3105df801b6c8214ccb85455faa5d43bc2ae11022687",
      "assetIds": []
    },
    {
      "x": 134,
      "y": 362,
      "size": 1,
      "price": "1011000000000000000000",
      "reserved": "0x7a9fe22691c811ea339d9b73150e6911a5343dca",
      "salt": "0xbc385df4acc9fe0ece4dfd6f5370d7399e52a0af424ce2c10c47131399f0c046",
      "assetIds": []
    },
    {
      "x": 134,
      "y": 363,
      "size": 1,
      "price": "1011000000000000000000",
      "reserved": "0x7a9fe22691c811ea339d9b73150e6911a5343dca",
      "salt": "0x3e804879cd7508678aac04966ce4031fb3867ee19c2e9a209676787f2d78ea19",
      "assetIds": []
    },
    {
      "x": 134,
      "y": 364,
      "size": 1,
      "price": "1011000000000000000000",
      "reserved": "",
      "salt": "0x4082bab96da02441b051dcaedb97991ab82563f3b2e0ea81b0115604cc0a33ce",
      "assetIds": []
    },
    {
      "x": 134,
      "y": 365,
      "size": 1,
      "price": "1011000000000000000000",
      "reserved": "0x7a9fe22691c811ea339d9b73150e6911a5343dca",
      "salt": "0x9666b7934c6ed7be22a302081b9c659405bcc10fecf8b6c2603e96c19d928511",
      "assetIds": []
    },
    {
      "x": 134,
      "y": 366,
      "size": 1,
      "price": "1011000000000000000000",
      "reserved": "",
      "salt": "0x51840696a0e839c148d8df9ff5220ed8e6c0ac11bbc4840a536e1c18f4a9cbb0",
      "assetIds": []
    },
    {
      "x": 134,
      "y": 367,
      "size": 1,
      "price": "1011000000000000000000",
      "reserved": "",
      "salt": "0xe0ee8599ff11c3fe70b793b889664568d65650a3dad333e7fc7fcdc664479cd4",
      "assetIds": []
    },
    {
      "x": 134,
      "y": 368,
      "size": 1,
      "price": "1011000000000000000000",
      "reserved": "",
      "salt": "0xf1485ee5c46af7801e49c108378f9b2c2dc72bfaa016f52f7cb794f1ec7ec2e9",
      "assetIds": []
    },
    {
      "x": 134,
      "y": 369,
      "size": 1,
      "price": "1011000000000000000000",
      "reserved": "",
      "salt": "0x688b5d3a8141f3dd0854b87269d36a6c5a917008be9e6afd41cbe2720a1d1a07",
      "assetIds": []
    },
    {
      "x": 134,
      "y": 370,
      "size": 1,
      "price": "1011000000000000000000",
      "reserved": "",
      "salt": "0x19bc070886b29f64506fdf4d739f89c6f3aae038d76212d7e11e3ec738c6c7d0",
      "assetIds": []
    },
    {
      "x": 134,
      "y": 371,
      "size": 1,
      "price": "4683000000000000000000",
      "reserved": "",
      "salt": "0x36102e8863407f0c3a26adefd61ce91d928e31339ad6ca778624a2a3693d06ba",
      "assetIds": [
        "41506478881403507969696680653240014914910929820314476107906210059990541021186"
      ]
    },
    {
      "x": 134,
      "y": 384,
      "size": 1,
      "price": "4683000000000000000000",
      "reserved": "",
      "salt": "0x649aec06bb95c71583528443848bccf6df5b6b705344cf8376ef555a2b3101c0",
      "assetIds": [
        "41506478881403507969696680653240014914910929820314476107906210059990541021186"
      ]
    },
    {
      "x": 134,
      "y": 385,
      "size": 1,
      "price": "1011000000000000000000",
      "reserved": "",
      "salt": "0xfde9987c9457336ad0793b915c131eeb74439efcd787f60e2209729384ab12da",
      "assetIds": []
    },
    {
      "x": 134,
      "y": 386,
      "size": 1,
      "price": "1011000000000000000000",
      "reserved": "0x7a9fe22691c811ea339d9b73150e6911a5343dca",
      "salt": "0x676923fcb8c260ac4444c63d1ed838408fe779f296892dbf8badcad0fbbc785f",
      "assetIds": []
    },
    {
      "x": 134,
      "y": 387,
      "size": 1,
      "price": "1011000000000000000000",
      "reserved": "",
      "salt": "0xec4a97c22e4263284e70f8883c1cd19195ebbb339767c89f0d218a311ef63447",
      "assetIds": []
    },
    {
      "x": 134,
      "y": 388,
      "size": 1,
      "price": "1011000000000000000000",
      "reserved": "",
      "salt": "0x7ddff6e466691d831fc860cbc91f92bcee480532a09f92784e2e72165fcc234c",
      "assetIds": []
    },
    {
      "x": 134,
      "y": 389,
      "size": 1,
      "price": "1011000000000000000000",
      "reserved": "",
      "salt": "0x7892003d2dfd3c505a26aa970aeda2a5252fbe3d08a432ae56e69189faa0e71d",
      "assetIds": []
    },
    {
      "x": 134,
      "y": 393,
      "size": 1,
      "price": "1011000000000000000000",
      "reserved": "0x7a9fe22691c811ea339d9b73150e6911a5343dca",
      "salt": "0xd7507e9b94722319fa23fce4f9d5c1a0a3bf619010870368b263119266dad338",
      "assetIds": []
    },
    {
      "x": 134,
      "y": 394,
      "size": 1,
      "price": "1011000000000000000000",
      "reserved": "",
      "salt": "0xf023db27046497a3836e19d01baeaec72db15707b694b0429f5be69671379543",
      "assetIds": []
    },
    {
      "x": 134,
      "y": 395,
      "size": 1,
      "price": "1011000000000000000000",
      "reserved": "0x7a9fe22691c811ea339d9b73150e6911a5343dca",
      "salt": "0x475a651be5af8f7c705dfe641389578ccd2b2ce01ee26cf73d291448339d6148",
      "assetIds": []
    },
    {
      "x": 134,
      "y": 402,
      "size": 1,
      "price": "1011000000000000000000",
      "reserved": "",
      "salt": "0x3489b6702b4b4127ae4f716de34883855fbdd1addc2400b3fd2abe1fde32aa31",
      "assetIds": []
    },
    {
      "x": 134,
      "y": 403,
      "size": 1,
      "price": "1011000000000000000000",
      "reserved": "",
      "salt": "0x9347085bf1c0f30b941c6f3897856f06a7cddb190a44a32d3566efeba18fc3e2",
      "assetIds": []
    },
    {
      "x": 134,
      "y": 404,
      "size": 1,
      "price": "1011000000000000000000",
      "reserved": "",
      "salt": "0xe436b73a60c0345ddcd7369c7404fff110a5a04e7a9be31d02a6558dd6f33df5",
      "assetIds": []
    },
    {
      "x": 134,
      "y": 405,
      "size": 1,
      "price": "1011000000000000000000",
      "reserved": "",
      "salt": "0xb8ab54d58c05626655b8db2b72d1badb342e938cb9e60812bfd1b2192818812a",
      "assetIds": []
    },
    {
      "x": 134,
      "y": 406,
      "size": 1,
      "price": "1011000000000000000000",
      "reserved": "",
      "salt": "0x28b5453d2a6b82d2f8b14f9e0dcc33b9d5cf7a3e912732a0c2729e213e5d806f",
      "assetIds": []
    },
    {
      "x": 134,
      "y": 407,
      "size": 1,
      "price": "1011000000000000000000",
      "reserved": "",
      "salt": "0xc83a9d207b297c986b1613caf9f9b704939d88c27cd85cb972750073c231cf77",
      "assetIds": []
    },
    {
      "x": 135,
      "y": 346,
      "size": 1,
      "price": "1011000000000000000000",
      "reserved": "",
      "salt": "0xc5ca00dc98a75ec647d42b57bb6b6f7c0f0827c23e03f637266fc7a28997fdf4",
      "assetIds": []
    },
    {
      "x": 135,
      "y": 347,
      "size": 1,
      "price": "4683000000000000000000",
      "reserved": "",
      "salt": "0x0a45111c3250dce3a6f044956900021d5d8cd70e5d3c5f0c2ccd2806c713cf2c",
      "assetIds": [
        "41506478881403507969696680653240014914910929820314476107906210059990541021186"
      ]
    },
    {
      "x": 135,
      "y": 360,
      "size": 1,
      "price": "4683000000000000000000",
      "reserved": "",
      "salt": "0xbfc1999af38cbe91851cee8b565f05c8b9bf7fb13e3ea2ac626ba6829e544c26",
      "assetIds": [
        "41506478881403507969696680653240014914910929820314476107906210059990541021186"
      ]
    },
    {
      "x": 135,
      "y": 361,
      "size": 1,
      "price": "4683000000000000000000",
      "reserved": "",
      "salt": "0xde5151bd667de63cc07642d1de5d0ecac577ef82e851843c11638a9d73b7d088",
      "assetIds": [
        "41506478881403507969696680653240014914910929820314476107906210059990541021186"
      ]
    },
    {
      "x": 135,
      "y": 362,
      "size": 1,
      "price": "1011000000000000000000",
      "reserved": "",
      "salt": "0xba14f7301ddd0c3914f84dc986960134ce14ce1a7a8a102d5bbd8151329914b3",
      "assetIds": []
    },
    {
      "x": 135,
      "y": 363,
      "size": 1,
      "price": "1011000000000000000000",
      "reserved": "",
      "salt": "0x100da5ca99710e47b7460bb4496a5747cb61a6e7a6048e153bf53f8e9c9d2ab1",
      "assetIds": []
    },
    {
      "x": 135,
      "y": 364,
      "size": 1,
      "price": "1011000000000000000000",
      "reserved": "",
      "salt": "0xaa25fb85e1f0325eaa15ed4cff853b557597d90da241c3d63cd7d76f68334561",
      "assetIds": []
    },
    {
      "x": 135,
      "y": 365,
      "size": 1,
      "price": "1011000000000000000000",
      "reserved": "0x7a9fe22691c811ea339d9b73150e6911a5343dca",
      "salt": "0x33fa587925850ff49e58574ecf16f6f1e1727200df2fbd860375190482766017",
      "assetIds": []
    },
    {
      "x": 135,
      "y": 366,
      "size": 1,
      "price": "1011000000000000000000",
      "reserved": "",
      "salt": "0xc0d26b67e7e206613862a0fbbf163d0cec6bd7f4ba9f50ab37404a1dd3bfd0f9",
      "assetIds": []
    },
    {
      "x": 135,
      "y": 367,
      "size": 1,
      "price": "1011000000000000000000",
      "reserved": "",
      "salt": "0x4c1bc7c74d749d9f1c91fe287d09c1e61d9509152b94c92fecc6e1dd121d7735",
      "assetIds": []
    },
    {
      "x": 135,
      "y": 368,
      "size": 1,
      "price": "1011000000000000000000",
      "reserved": "",
      "salt": "0xa89790bd21f056e27592137c29923aa69c24811bb28ed0d2e047f597e8ec0a42",
      "assetIds": []
    },
    {
      "x": 135,
      "y": 369,
      "size": 1,
      "price": "1011000000000000000000",
      "reserved": "",
      "salt": "0x96f297485c65a1a0c328e6afd589336e4c636e27f46c2ab42eff2593d20ba751",
      "assetIds": []
    },
    {
      "x": 135,
      "y": 370,
      "size": 1,
      "price": "1011000000000000000000",
      "reserved": "0x7a9fe22691c811ea339d9b73150e6911a5343dca",
      "salt": "0xe3661bb5627de3743e550075562457a3458eeb53d065292afe8ad1b21386f261",
      "assetIds": []
    },
    {
      "x": 135,
      "y": 371,
      "size": 1,
      "price": "4683000000000000000000",
      "reserved": "",
      "salt": "0x7fad90245f099f77438ea5684a7faae9f75bf59e814f90cf8d2713310b797cbe",
      "assetIds": [
        "41506478881403507969696680653240014914910929820314476107906210059990541021186"
      ]
    },
    {
      "x": 135,
      "y": 384,
      "size": 1,
      "price": "4683000000000000000000",
      "reserved": "",
      "salt": "0xf3daef8559409ec81e5d93766921ca4f5c41ec1ed0bd2174b02da625aeca576f",
      "assetIds": [
        "41506478881403507969696680653240014914910929820314476107906210059990541021186"
      ]
    },
    {
      "x": 135,
      "y": 385,
      "size": 1,
      "price": "1011000000000000000000",
      "reserved": "",
      "salt": "0xc3ea43a2939e25142aa83c3e04aad2fccaf45c4e3781e6dec4d0eb35b900f4ca",
      "assetIds": []
    },
    {
      "x": 135,
      "y": 386,
      "size": 1,
      "price": "1011000000000000000000",
      "reserved": "",
      "salt": "0x78f5ac6806fb8e678caf01ff64d52f2b97a6763a51214bb3da44e7aa2c0e8ea6",
      "assetIds": []
    },
    {
      "x": 135,
      "y": 387,
      "size": 1,
      "price": "1011000000000000000000",
      "reserved": "",
      "salt": "0x0def83c18f915f66c807aac88210df72f17bf5db8ec788f266acf1fa8b9b21e8",
      "assetIds": []
    },
    {
      "x": 135,
      "y": 388,
      "size": 1,
      "price": "1011000000000000000000",
      "reserved": "",
      "salt": "0xe5bec012a1f632617743526aa73fd0e9d7e316c399586efe99444c1c99d12237",
      "assetIds": []
    },
    {
      "x": 135,
      "y": 389,
      "size": 1,
      "price": "1011000000000000000000",
      "reserved": "0x7a9fe22691c811ea339d9b73150e6911a5343dca",
      "salt": "0xf3f6c489fd199be50db6fe46a805a12e5cdafee64fb617bfc10710e9d7635e30",
      "assetIds": []
    },
    {
      "x": 135,
      "y": 390,
      "size": 1,
      "price": "1011000000000000000000",
      "reserved": "",
      "salt": "0xc236c0a626210c80ead0eb2abcaaf14504cb346df7b4b84d8249cf9e31ead9b1",
      "assetIds": []
    },
    {
      "x": 135,
      "y": 391,
      "size": 1,
      "price": "1011000000000000000000",
      "reserved": "0x7a9fe22691c811ea339d9b73150e6911a5343dca",
      "salt": "0xc43a63fc18ad620b9ea186914272ce06303e4a9284e27604567e9fa5a036ff02",
      "assetIds": []
    },
    {
      "x": 135,
      "y": 392,
      "size": 1,
      "price": "1011000000000000000000",
      "reserved": "",
      "salt": "0x1b75cdf4dc231ec787b34f2254ac04d2ba6cd492233e03130eafe69133b11877",
      "assetIds": []
    },
    {
      "x": 135,
      "y": 402,
      "size": 1,
      "price": "1011000000000000000000",
      "reserved": "0x7a9fe22691c811ea339d9b73150e6911a5343dca",
      "salt": "0x5434a9a5f9fe293e65d94c86917ffdd3d08409370d8e7dc914dd7578242f898c",
      "assetIds": []
    },
    {
      "x": 135,
      "y": 403,
      "size": 1,
      "price": "1011000000000000000000",
      "reserved": "",
      "salt": "0x6008f25161ea7f433b0a834dd918eac2d7428351de25dff84bea3367a88a97c4",
      "assetIds": []
    },
    {
      "x": 135,
      "y": 404,
      "size": 1,
      "price": "1011000000000000000000",
      "reserved": "",
      "salt": "0x78ce08d04e7ef6ab6ee053fd0be0159861a9c4aa675df6c4fd359d4bfb35ba7d",
      "assetIds": []
    },
    {
      "x": 135,
      "y": 405,
      "size": 1,
      "price": "1011000000000000000000",
      "reserved": "",
      "salt": "0xb35d656c1a171c27168ab4e4bbdeed1329834c609a9cc36383902dc9c122787e",
      "assetIds": []
    },
    {
      "x": 135,
      "y": 406,
      "size": 1,
      "price": "1011000000000000000000",
      "reserved": "",
      "salt": "0x477b820c47dc0c04489912e74c066714ac61a10075ede5bc8b1957b9baad0b00",
      "assetIds": []
    },
    {
      "x": 135,
      "y": 407,
      "size": 1,
      "price": "1011000000000000000000",
      "reserved": "",
      "salt": "0xc01305e5af7b9f2c240d5b80200377852e91976e4d782d41376f3695a624c534",
      "assetIds": []
    },
    {
      "x": 136,
      "y": 346,
      "size": 1,
      "price": "1011000000000000000000",
      "reserved": "",
      "salt": "0x0ea0e3b2b9193dd44a963fdfa0c966b36b26b86c6743708694c366fef2b85d20",
      "assetIds": []
    },
    {
      "x": 136,
      "y": 347,
      "size": 1,
      "price": "4683000000000000000000",
      "reserved": "",
      "salt": "0x153e27df93af069daf7a73edc1f2c076afc304a121426424960b3413d15d71d0",
      "assetIds": [
        "41506478881403507969696680653240014914910929820314476107906210059990541021186"
      ]
    },
    {
      "x": 136,
      "y": 360,
      "size": 1,
      "price": "4683000000000000000000",
      "reserved": "",
      "salt": "0x2a0173b33ebe41331e97a09fa5c7837538cf11d3e294e388ee06d0aa6293ec70",
      "assetIds": [
        "41506478881403507969696680653240014914910929820314476107906210059990541021186"
      ]
    },
    {
      "x": 136,
      "y": 361,
      "size": 1,
      "price": "4683000000000000000000",
      "reserved": "",
      "salt": "0x003737c97fddab0ca7af47ea74e4449bfac756193438300b6aa771776613c9c7",
      "assetIds": [
        "41506478881403507969696680653240014914910929820314476107906210059990541021186"
      ]
    },
    {
      "x": 136,
      "y": 362,
      "size": 1,
      "price": "1011000000000000000000",
      "reserved": "",
      "salt": "0x7f56d0a1d340f4469462922eedcf6f167364b71408171bd16974975fd93d08ee",
      "assetIds": []
    },
    {
      "x": 136,
      "y": 363,
      "size": 1,
      "price": "1011000000000000000000",
      "reserved": "",
      "salt": "0x9ca3ec6405ef9f881a426dbae1281400dac21b2fce74b4e5a641fc4334e177bd",
      "assetIds": []
    },
    {
      "x": 136,
      "y": 364,
      "size": 1,
      "price": "1011000000000000000000",
      "reserved": "",
      "salt": "0xb0953983fa94c6c19091f2ea1c069862dcf90693b3f8600cb7880b3578944329",
      "assetIds": []
    },
    {
      "x": 136,
      "y": 365,
      "size": 1,
      "price": "4683000000000000000000",
      "reserved": "",
      "salt": "0x1d1ab234606038abd79b5f4a074dc2f6ccc170728a1c4a64a88f8246c7a0c420",
      "assetIds": [
        "41506478881403507969696680653240014914910929820314476107906210059990541021186"
      ]
    },
    {
      "x": 136,
      "y": 366,
      "size": 1,
      "price": "1011000000000000000000",
      "reserved": "0x7a9fe22691c811ea339d9b73150e6911a5343dca",
      "salt": "0x823817764e5b4f12e8637a8696d0c237694897c4d73f398c535efef7d7baf063",
      "assetIds": []
    },
    {
      "x": 136,
      "y": 367,
      "size": 1,
      "price": "1011000000000000000000",
      "reserved": "",
      "salt": "0xf33ad62cc8116281cc58fb16e8a493fe6335c1aaa5b2574415a3ea3974f45ff5",
      "assetIds": []
    },
    {
      "x": 136,
      "y": 368,
      "size": 1,
      "price": "4683000000000000000000",
      "reserved": "",
      "salt": "0x95f8dfefaf35f4a4d614cd66e133903f1eb1c6204fa9eb5a665db5f74bdf35f6",
      "assetIds": [
        "41506478881403507969696680653240014914910929820314476107906210059990541021186"
      ]
    },
    {
      "x": 136,
      "y": 369,
      "size": 1,
      "price": "1011000000000000000000",
      "reserved": "0x7a9fe22691c811ea339d9b73150e6911a5343dca",
      "salt": "0x16bcab70f91d8cccc6348a8052cf9cff5a9bb5d23baf789eaf2bedd6bdbbf8b0",
      "assetIds": []
    },
    {
      "x": 136,
      "y": 370,
      "size": 1,
      "price": "1011000000000000000000",
      "reserved": "",
      "salt": "0xcde8a57dcd21f134680f7c6618067056a61c9e70e1ff83c265fed08be416f2d1",
      "assetIds": []
    },
    {
      "x": 136,
      "y": 371,
      "size": 1,
      "price": "4683000000000000000000",
      "reserved": "",
      "salt": "0xb7939a4489b5f53846b3bc077d234dfcd03c8c2c80a893b05461d85ec3657517",
      "assetIds": [
        "41506478881403507969696680653240014914910929820314476107906210059990541021186"
      ]
    },
    {
      "x": 136,
      "y": 384,
      "size": 1,
      "price": "4683000000000000000000",
      "reserved": "",
      "salt": "0xcc34c0f540e8e6bdcd381b681fcf6b30903eaba106d914078c953a98660f401a",
      "assetIds": [
        "41506478881403507969696680653240014914910929820314476107906210059990541021186"
      ]
    },
    {
      "x": 136,
      "y": 385,
      "size": 1,
      "price": "1011000000000000000000",
      "reserved": "0x7a9fe22691c811ea339d9b73150e6911a5343dca",
      "salt": "0xbd3dd9dcd348f5c11c66cf48607b203d55d4e5aa4bb80df26145dcf3aa4b68b8",
      "assetIds": []
    },
    {
      "x": 136,
      "y": 386,
      "size": 1,
      "price": "1011000000000000000000",
      "reserved": "",
      "salt": "0x12ed6a5a29932af2b8d3f991cea02ba5c7f19401bd97997cd2277374dd6a62b6",
      "assetIds": []
    },
    {
      "x": 136,
      "y": 387,
      "size": 1,
      "price": "1011000000000000000000",
      "reserved": "0x7a9fe22691c811ea339d9b73150e6911a5343dca",
      "salt": "0xdfa6672b8db548f24d2085f110a8876a8c65c445ad51e2a36df48c7eb694838d",
      "assetIds": []
    },
    {
      "x": 136,
      "y": 388,
      "size": 1,
      "price": "1011000000000000000000",
      "reserved": "",
      "salt": "0x13182c19f46c4d0d4fc2386361d1bd11a615ddb47e7a5fd6d9d63839f7b7eed9",
      "assetIds": []
    },
    {
      "x": 136,
      "y": 389,
      "size": 1,
      "price": "1011000000000000000000",
      "reserved": "",
      "salt": "0x529c2722202822b2a385e95477beb8fa49c1a25606beb78fc410ac96373fbbf9",
      "assetIds": []
    },
    {
      "x": 136,
      "y": 390,
      "size": 1,
      "price": "1011000000000000000000",
      "reserved": "",
      "salt": "0x0250d151fd185e726d1375b31f80311332421ea26c4b6bba55194b29d61bc3f7",
      "assetIds": []
    },
    {
      "x": 136,
      "y": 391,
      "size": 1,
      "price": "1011000000000000000000",
      "reserved": "",
      "salt": "0x35f5fb2a96e2d02257dce6b92627453f547ac3569c7ee2ebbedea41408483997",
      "assetIds": []
    },
    {
      "x": 136,
      "y": 392,
      "size": 1,
      "price": "1011000000000000000000",
      "reserved": "",
      "salt": "0xd4d548ff91aa5c537971361a00c356eaec3517ee6ee6088d66dcf84e6218bca6",
      "assetIds": []
    },
    {
      "x": 136,
      "y": 402,
      "size": 1,
      "price": "4683000000000000000000",
      "reserved": "",
      "salt": "0x754dc226db1f972f97284defee48226be20ef72beb189e12d5eda3b7b8eddf13",
      "assetIds": [
        "41506478881403507969696680653240014914910929820314476107906210059990541021186"
      ]
    },
    {
      "x": 136,
      "y": 403,
      "size": 1,
      "price": "4683000000000000000000",
      "reserved": "",
      "salt": "0x5b9de63d7e040aa5dfe574c190ee12e527847bf34cab0009bce59396d7942f31",
      "assetIds": [
        "41506478881403507969696680653240014914910929820314476107906210059990541021186"
      ]
    },
    {
      "x": 136,
      "y": 404,
      "size": 1,
      "price": "4683000000000000000000",
      "reserved": "",
      "salt": "0x0a9dc0eade6ee3eca5135a298bf0d2a81307a61fb3c63e35a6540a70e12714c0",
      "assetIds": [
        "41506478881403507969696680653240014914910929820314476107906210059990541021186"
      ]
    },
    {
      "x": 136,
      "y": 405,
      "size": 1,
      "price": "1011000000000000000000",
      "reserved": "0x7a9fe22691c811ea339d9b73150e6911a5343dca",
      "salt": "0x5d7323ba7a96a7ed5a94755bf710f584ece0e0df0547670cf2b2b00afd13559b",
      "assetIds": []
    },
    {
      "x": 136,
      "y": 406,
      "size": 1,
      "price": "1011000000000000000000",
      "reserved": "0x7a9fe22691c811ea339d9b73150e6911a5343dca",
      "salt": "0x3e9f75dd5d3c0f92cdfd0e9a7e1da8fc53d819b902cccb57c75a7ed3df488c7f",
      "assetIds": []
    },
    {
      "x": 136,
      "y": 407,
      "size": 1,
      "price": "4683000000000000000000",
      "reserved": "",
      "salt": "0x0fad6364b629ee81c8f7c18bdb84bbb89d7f24e2ffbeea52e47b27a9085db4db",
      "assetIds": [
        "41506478881403507969696680653240014914910929820314476107906210059990541021186"
      ]
    },
    {
      "x": 137,
      "y": 346,
      "size": 1,
      "price": "1011000000000000000000",
      "reserved": "",
      "salt": "0x3ede01c0f4e3cbac21e2faccccf72f67dedba5abc564eb0218ac70cbb16465b7",
      "assetIds": []
    },
    {
      "x": 137,
      "y": 347,
      "size": 1,
      "price": "4683000000000000000000",
      "reserved": "",
      "salt": "0xbe2ebcfff29207bc8f57be7db01ba00f78b4f382ea2a6b820596f33e97f67dcf",
      "assetIds": [
        "41506478881403507969696680653240014914910929820314476107906210059990541021186"
      ]
    },
    {
      "x": 137,
      "y": 360,
      "size": 1,
      "price": "4683000000000000000000",
      "reserved": "",
      "salt": "0xb056ff0ab32b3b0c5a901af5c83829a7782815b817efa7b72dbb75cde35eeff5",
      "assetIds": [
        "41506478881403507969696680653240014914910929820314476107906210059990541021186"
      ]
    },
    {
      "x": 137,
      "y": 361,
      "size": 1,
      "price": "1011000000000000000000",
      "reserved": "0x7a9fe22691c811ea339d9b73150e6911a5343dca",
      "salt": "0xc6a0bf45d97a88fe5acd6cc9ecb3f8ddb3864afb36b2843835f0b8dea4192592",
      "assetIds": []
    },
    {
      "x": 137,
      "y": 362,
      "size": 1,
      "price": "1011000000000000000000",
      "reserved": "0x7a9fe22691c811ea339d9b73150e6911a5343dca",
      "salt": "0x69a4e8687b4c04904915ec63b07c0a5c657867effc391bd57f4a5acba74e53f9",
      "assetIds": []
    },
    {
      "x": 137,
      "y": 363,
      "size": 1,
      "price": "1011000000000000000000",
      "reserved": "",
      "salt": "0x33a7253d1e36dffc292a619e146d0586a6cf70dc2145bb691c7499f6a9d4aa9c",
      "assetIds": []
    },
    {
      "x": 137,
      "y": 364,
      "size": 1,
      "price": "1011000000000000000000",
      "reserved": "",
      "salt": "0x33b1b6d188b0224edc91d952870c26ce7bb77528e2f97815d1bb2ee03f5264d5",
      "assetIds": []
    },
    {
      "x": 137,
      "y": 365,
      "size": 1,
      "price": "4683000000000000000000",
      "reserved": "",
      "salt": "0x3398e997c26a6269e0cf322f86caae3e5a8b05dcdbeebf9dcafbdd5d758b02e1",
      "assetIds": [
        "41506478881403507969696680653240014914910929820314476107906210059990541021186"
      ]
    },
    {
      "x": 137,
      "y": 366,
      "size": 1,
      "price": "4683000000000000000000",
      "reserved": "",
      "salt": "0xbd3b7779d3ab06904ee1febfe6f2392ffbef63412a0311eb3b9d5da2fa3eb5dc",
      "assetIds": [
        "41506478881403507969696680653240014914910929820314476107906210059990541021186"
      ]
    },
    {
      "x": 137,
      "y": 367,
      "size": 1,
      "price": "4683000000000000000000",
      "reserved": "",
      "salt": "0xe674d5db19ad73d0618e88d65e331dc88c49425bfe33b80165ab1d2945e62b8c",
      "assetIds": [
        "41506478881403507969696680653240014914910929820314476107906210059990541021186"
      ]
    },
    {
      "x": 137,
      "y": 368,
      "size": 1,
      "price": "4683000000000000000000",
      "reserved": "",
      "salt": "0x3f4cdc2826a27cf7b4ed62dfbc98f7a05e0e3c3f839360ba61b7c87c91907865",
      "assetIds": [
        "41506478881403507969696680653240014914910929820314476107906210059990541021186"
      ]
    },
    {
      "x": 137,
      "y": 369,
      "size": 1,
      "price": "4683000000000000000000",
      "reserved": "",
      "salt": "0x97813623281b79a23339977ba2b08987625a6feec48d3c515f11017e02a835d5",
      "assetIds": [
        "41506478881403507969696680653240014914910929820314476107906210059990541021186"
      ]
    },
    {
      "x": 137,
      "y": 370,
      "size": 1,
      "price": "4683000000000000000000",
      "reserved": "",
      "salt": "0x66ff7b081981292e6c9239d905b98f46a6c94e9cd1e483850f0f9d73f6990420",
      "assetIds": [
        "41506478881403507969696680653240014914910929820314476107906210059990541021186"
      ]
    },
    {
      "x": 137,
      "y": 371,
      "size": 1,
      "price": "4683000000000000000000",
      "reserved": "",
      "salt": "0xdb0fb79754e088e79760af27e7fab23e121b62354446c56dbc64325ab5fc3f7b",
      "assetIds": [
        "41506478881403507969696680653240014914910929820314476107906210059990541021186"
      ]
    },
    {
      "x": 137,
      "y": 384,
      "size": 1,
      "price": "4683000000000000000000",
      "reserved": "",
      "salt": "0x8732cc15bd14dcf86637acb8b7afaa3f7784da76f8ffefcf4273b8cfe347f74d",
      "assetIds": [
        "41506478881403507969696680653240014914910929820314476107906210059990541021186"
      ]
    },
    {
      "x": 137,
      "y": 385,
      "size": 1,
      "price": "1011000000000000000000",
      "reserved": "",
      "salt": "0x862058eab2aa6a6cd594e7104810962f66299cfca41f60e3aee54aa76a7c47a3",
      "assetIds": []
    },
    {
      "x": 137,
      "y": 386,
      "size": 1,
      "price": "1011000000000000000000",
      "reserved": "",
      "salt": "0x482ff00e351d5b331cd75f6975ac17372f68d2c3741ff6e45ce7b1f618ccc5fa",
      "assetIds": []
    },
    {
      "x": 137,
      "y": 387,
      "size": 1,
      "price": "1011000000000000000000",
      "reserved": "",
      "salt": "0xc55b45aebf5957eba4ab92b0acb50ce61be9c0556f92af273ebf57df5bec0eb4",
      "assetIds": []
    },
    {
      "x": 137,
      "y": 388,
      "size": 1,
      "price": "1011000000000000000000",
      "reserved": "",
      "salt": "0x4c0ae10bb637faa9e54e58918e525085a73001361df727bd15c7b2dcaca19f4c",
      "assetIds": []
    },
    {
      "x": 137,
      "y": 389,
      "size": 1,
      "price": "1011000000000000000000",
      "reserved": "",
      "salt": "0x97f0c87aa9744d0cbad69d986dd7abcb720efe9fb573084b20fe450610ab0a1d",
      "assetIds": []
    },
    {
      "x": 137,
      "y": 390,
      "size": 1,
      "price": "1011000000000000000000",
      "reserved": "",
      "salt": "0xe51ee98596a521a5f9e36beff221f3f1c09aca0409ce4815b1802a11a491b61f",
      "assetIds": []
    },
    {
      "x": 137,
      "y": 391,
      "size": 1,
      "price": "1011000000000000000000",
      "reserved": "0x7a9fe22691c811ea339d9b73150e6911a5343dca",
      "salt": "0x61a2ccca98b68ff350fdc642582501cc9e8ab94efc70ebe3ccf18921456020d9",
      "assetIds": []
    },
    {
      "x": 137,
      "y": 392,
      "size": 1,
      "price": "1011000000000000000000",
      "reserved": "",
      "salt": "0x466c4b471164c4c89e6c7e2c94b9dc1249b4974f5307d8f20cff51c634b7992c",
      "assetIds": []
    },
    {
      "x": 137,
      "y": 402,
      "size": 1,
      "price": "4683000000000000000000",
      "reserved": "",
      "salt": "0x1e79c47190960f4d72e1bca404aa06766f72e0bc16c6df31fdd6ebe6a537a372",
      "assetIds": [
        "41506478881403507969696680653240014914910929820314476107906210059990541021186"
      ]
    },
    {
      "x": 137,
      "y": 403,
      "size": 1,
      "price": "4683000000000000000000",
      "reserved": "",
      "salt": "0xc9bfcf088b5b13ebef78cb28cd3e576f53ba12212c34e27c29ee3b4c8cbe1bd4",
      "assetIds": [
        "41506478881403507969696680653240014914910929820314476107906210059990541021186"
      ]
    },
    {
      "x": 137,
      "y": 404,
      "size": 1,
      "price": "4683000000000000000000",
      "reserved": "",
      "salt": "0x449b277ce27581d16e8c27dba6600c391a4e2c3efd281150a42daab9a3c9757a",
      "assetIds": [
        "41506478881403507969696680653240014914910929820314476107906210059990541021186"
      ]
    },
    {
      "x": 137,
      "y": 405,
      "size": 1,
      "price": "4683000000000000000000",
      "reserved": "",
      "salt": "0x7cd52b0e8cffe45602568a704419f70e7a02ae655c396f6a579142fb02ca53cf",
      "assetIds": [
        "41506478881403507969696680653240014914910929820314476107906210059990541021186"
      ]
    },
    {
      "x": 137,
      "y": 406,
      "size": 1,
      "price": "4683000000000000000000",
      "reserved": "",
      "salt": "0xa20f6c5203113f38eea8d74bed84545df07046dbed98770e7addd7d05433ae6a",
      "assetIds": [
        "41506478881403507969696680653240014914910929820314476107906210059990541021186"
      ]
    },
    {
      "x": 137,
      "y": 407,
      "size": 1,
      "price": "4683000000000000000000",
      "reserved": "",
      "salt": "0x1c4e81ed9909423610715895f5c8b4fdc39a799a986feb4a58ce2e54bf3248bc",
      "assetIds": [
        "41506478881403507969696680653240014914910929820314476107906210059990541021186"
      ]
    },
    {
      "x": 138,
      "y": 346,
      "size": 1,
      "price": "1011000000000000000000",
      "reserved": "",
      "salt": "0xd53d6d8ffca4e0aa86ff6b03129db828a3a1f91e0dc5550daf6136c852c74d16",
      "assetIds": []
    },
    {
      "x": 138,
      "y": 347,
      "size": 1,
      "price": "4683000000000000000000",
      "reserved": "",
      "salt": "0x35bd1a745a1a327dd4b2cfe00fb99bfc7d708ed33d35e5efe936aa2577b8eb7a",
      "assetIds": [
        "41506478881403507969696680653240014914910929820314476107906210059990541021186"
      ]
    },
    {
      "x": 138,
      "y": 360,
      "size": 1,
      "price": "4683000000000000000000",
      "reserved": "",
      "salt": "0x3bee449ca01bfc05859b8f4b82e1db3165d243e008b40c3afde6eb269092a9f4",
      "assetIds": [
        "41506478881403507969696680653240014914910929820314476107906210059990541021186"
      ]
    },
    {
      "x": 138,
      "y": 361,
      "size": 1,
      "price": "4683000000000000000000",
      "reserved": "",
      "salt": "0x926d65fff4ef0b07122c346cb6479d02e499a0ccf21f3c6926abab8bc337c27b",
      "assetIds": [
        "41506478881403507969696680653240014914910929820314476107906210059990541021186"
      ]
    },
    {
      "x": 138,
      "y": 362,
      "size": 1,
      "price": "1011000000000000000000",
      "reserved": "0x7a9fe22691c811ea339d9b73150e6911a5343dca",
      "salt": "0xb5a7db6739a1dc6a388266709bb8285693cc550ace4e722241cd05704a513418",
      "assetIds": []
    },
    {
      "x": 138,
      "y": 363,
      "size": 1,
      "price": "1011000000000000000000",
      "reserved": "",
      "salt": "0x800bfce7fa3173d53d6c3246194e83808c1cf57ac32eb1736af2feaa54d07344",
      "assetIds": []
    },
    {
      "x": 138,
      "y": 364,
      "size": 1,
      "price": "1011000000000000000000",
      "reserved": "",
      "salt": "0x1c9b05956d928444be6e52464803806751ddd61906e102735e3b24b0bd30d62c",
      "assetIds": []
    },
    {
      "x": 138,
      "y": 365,
      "size": 1,
      "price": "4683000000000000000000",
      "reserved": "",
      "salt": "0xf4b9b58b345a2d948c1bd40f567d11afaecc6378057362c7608c6da87ed15140",
      "assetIds": [
        "41506478881403507969696680653240014914910929820314476107906210059990541021186"
      ]
    },
    {
      "x": 138,
      "y": 384,
      "size": 1,
      "price": "4683000000000000000000",
      "reserved": "",
      "salt": "0xec0b99fb35a393d95072d8bd0aad005e0018153ea224a4710e992f36a2d33284",
      "assetIds": [
        "41506478881403507969696680653240014914910929820314476107906210059990541021186"
      ]
    },
    {
      "x": 138,
      "y": 385,
      "size": 1,
      "price": "1011000000000000000000",
      "reserved": "0x7a9fe22691c811ea339d9b73150e6911a5343dca",
      "salt": "0xb00dc5a1da9f6b61c278beedec3a05742f3af748a9eb33b6b1f63c156867c4d8",
      "assetIds": []
    },
    {
      "x": 138,
      "y": 386,
      "size": 1,
      "price": "1011000000000000000000",
      "reserved": "",
      "salt": "0x4c53eb0c9e92efe62c34413a1a3b6651e839b6574458a1eaec2c6de6dac7e59e",
      "assetIds": []
    },
    {
      "x": 138,
      "y": 390,
      "size": 1,
      "price": "1011000000000000000000",
      "reserved": "",
      "salt": "0xdef43fd69aa089cfa7a32902e80c23d744dac73fcf3bdcab45d226ed4550de37",
      "assetIds": []
    },
    {
      "x": 138,
      "y": 391,
      "size": 1,
      "price": "1011000000000000000000",
      "reserved": "",
      "salt": "0x7c346e81f2bf388e656d81f988d58186f029954c31a34f58a77a7c0e08632796",
      "assetIds": []
    },
    {
      "x": 138,
      "y": 392,
      "size": 1,
      "price": "1011000000000000000000",
      "reserved": "0x7a9fe22691c811ea339d9b73150e6911a5343dca",
      "salt": "0xe43a6b13ce1ae61397024755cfa076578fe54c84b603c1fb77a0f99764c3fa76",
      "assetIds": []
    },
    {
      "x": 138,
      "y": 393,
      "size": 1,
      "price": "1011000000000000000000",
      "reserved": "",
      "salt": "0xbf615abd62d447df6f53c403917f34657c1ab5a54e1d06335b26e882f3855d79",
      "assetIds": []
    },
    {
      "x": 138,
      "y": 394,
      "size": 1,
      "price": "1011000000000000000000",
      "reserved": "",
      "salt": "0x8b48c1a290b85c00443b409b39dce1b70c98db5c131f0e5d3ac0f20438c8fbef",
      "assetIds": []
    },
    {
      "x": 138,
      "y": 395,
      "size": 1,
      "price": "1011000000000000000000",
      "reserved": "0x7a9fe22691c811ea339d9b73150e6911a5343dca",
      "salt": "0xd62c3d4c99ee9f6003be05b014e17d321175e3753dc70b2a97a99a960f3b7638",
      "assetIds": []
    },
    {
      "x": 138,
      "y": 396,
      "size": 1,
      "price": "1011000000000000000000",
      "reserved": "",
      "salt": "0x7c0d00ba0ef0268333ba9f43c9e72b4b0a91732615ffffe9502d9dac41524ee6",
      "assetIds": []
    },
    {
      "x": 138,
      "y": 397,
      "size": 1,
      "price": "1011000000000000000000",
      "reserved": "0x7a9fe22691c811ea339d9b73150e6911a5343dca",
      "salt": "0x226c371bc7f75be5f2f463ede95301fdc4422ed79f5eb103acdf0e36cb6bcb4e",
      "assetIds": []
    },
    {
      "x": 138,
      "y": 398,
      "size": 1,
      "price": "1011000000000000000000",
      "reserved": "0x7a9fe22691c811ea339d9b73150e6911a5343dca",
      "salt": "0xa784ca92207a2f9910f5c676e5825e6f73f421e2b0b967ef1d8290c2e7f09441",
      "assetIds": []
    },
    {
      "x": 138,
      "y": 399,
      "size": 1,
      "price": "1011000000000000000000",
      "reserved": "",
      "salt": "0xed72a7d3551fe0dab2b52e8c73c0069878268bba88271b52c08213ecbc03b324",
      "assetIds": []
    },
    {
      "x": 138,
      "y": 400,
      "size": 1,
      "price": "1011000000000000000000",
      "reserved": "",
      "salt": "0xbdb96ce3cbfc8e2c976cf90ba04d4922fe9806568ccef6b128581904cc1b2e3f",
      "assetIds": []
    },
    {
      "x": 138,
      "y": 401,
      "size": 1,
      "price": "4683000000000000000000",
      "reserved": "",
      "salt": "0xa8a86c3d58d33d51ff58bbc40d89be240c3ccd70c8fa49170fb15cd9c7ad30fb",
      "assetIds": [
        "41506478881403507969696680653240014914910929820314476107906210059990541021186"
      ]
    },
    {
      "x": 139,
      "y": 346,
      "size": 1,
      "price": "1011000000000000000000",
      "reserved": "",
      "salt": "0x6f76a2c60b97df884b9e0ef3efd78ddc158b6c4c109e51d55886751cf3acc956",
      "assetIds": []
    },
    {
      "x": 139,
      "y": 347,
      "size": 1,
      "price": "4683000000000000000000",
      "reserved": "",
      "salt": "0x1f134fac3193f742eadb7e2c6651b888db1932dcc7652c78960e2e76cf0ad25f",
      "assetIds": [
        "41506478881403507969696680653240014914910929820314476107906210059990541021186"
      ]
    },
    {
      "x": 139,
      "y": 360,
      "size": 1,
      "price": "4683000000000000000000",
      "reserved": "",
      "salt": "0xdac44a4a77b3d17e723eeb3321b367850a24666954b228811495cb3f61a89be4",
      "assetIds": [
        "41506478881403507969696680653240014914910929820314476107906210059990541021186"
      ]
    },
    {
      "x": 139,
      "y": 361,
      "size": 1,
      "price": "1011000000000000000000",
      "reserved": "0x7a9fe22691c811ea339d9b73150e6911a5343dca",
      "salt": "0x941095c989ccf8f0d03e7b3d313cb650670d02c7be3aa1762d3a785a7de2ec07",
      "assetIds": []
    },
    {
      "x": 139,
      "y": 362,
      "size": 1,
      "price": "1011000000000000000000",
      "reserved": "",
      "salt": "0xf71392676955c91060c87d437a01a32944761d9d994407e17fe331a1ff09d11d",
      "assetIds": []
    },
    {
      "x": 139,
      "y": 363,
      "size": 1,
      "price": "1011000000000000000000",
      "reserved": "",
      "salt": "0x31ae02fb338837df0df304434345eac1fe013117ca8a9cdb3a27db9097cb8661",
      "assetIds": []
    },
    {
      "x": 139,
      "y": 364,
      "size": 1,
      "price": "1011000000000000000000",
      "reserved": "0x7a9fe22691c811ea339d9b73150e6911a5343dca",
      "salt": "0x9e00eebc48fd48b3d886e62aeffa63118e1177372e5a6d1df52b9051405434db",
      "assetIds": []
    },
    {
      "x": 139,
      "y": 365,
      "size": 1,
      "price": "4683000000000000000000",
      "reserved": "",
      "salt": "0xc34c597cb89cd5321a6a0acdbd4ab730c6fb0922e4e180f4d491c8c3bf580c58",
      "assetIds": [
        "41506478881403507969696680653240014914910929820314476107906210059990541021186"
      ]
    },
    {
      "x": 139,
      "y": 384,
      "size": 1,
      "price": "4683000000000000000000",
      "reserved": "",
      "salt": "0x816fc6f054c41ed1515cb81924f7fc5d5496f60738e54c3f1e8b6b922a5e4fe1",
      "assetIds": [
        "41506478881403507969696680653240014914910929820314476107906210059990541021186"
      ]
    },
    {
      "x": 139,
      "y": 385,
      "size": 1,
      "price": "4683000000000000000000",
      "reserved": "",
      "salt": "0xff8c569fc97fc8a5ef3f779235c6ab0aa4a56f1b26b1d906ccdc22c4a55c155f",
      "assetIds": [
        "41506478881403507969696680653240014914910929820314476107906210059990541021186"
      ]
    },
    {
      "x": 139,
      "y": 386,
      "size": 1,
      "price": "1011000000000000000000",
      "reserved": "",
      "salt": "0xcfedbe38c46f78b8c79fadb731548419f5af074763615a01aaca70a3840954f5",
      "assetIds": []
    },
    {
      "x": 139,
      "y": 390,
      "size": 1,
      "price": "1011000000000000000000",
      "reserved": "0x7a9fe22691c811ea339d9b73150e6911a5343dca",
      "salt": "0x45963907d7109ea795482f5f4824bc2e90a60aa5448c2e6839b4d0ea035d0f94",
      "assetIds": []
    },
    {
      "x": 139,
      "y": 391,
      "size": 1,
      "price": "1011000000000000000000",
      "reserved": "",
      "salt": "0xb1262cd9894bf766e4a071a30452e4ee58267c934fbf9ec7167ce692bbdf186a",
      "assetIds": []
    },
    {
      "x": 139,
      "y": 392,
      "size": 1,
      "price": "1011000000000000000000",
      "reserved": "",
      "salt": "0x7bae4b39cec18959fb1091a38c86692b098fe9f29b4ca38c01da616bcd436a43",
      "assetIds": []
    },
    {
      "x": 139,
      "y": 393,
      "size": 1,
      "price": "1011000000000000000000",
      "reserved": "",
      "salt": "0x82ddb62434434035e8962606bbee8dbd63c328c4173d69eafcf15d15b7c7f4b2",
      "assetIds": []
    },
    {
      "x": 139,
      "y": 394,
      "size": 1,
      "price": "1011000000000000000000",
      "reserved": "",
      "salt": "0xe6b586d85a6da86de9911a12a34d6cf590e0c683f03a6147bf20bce08f52064f",
      "assetIds": []
    },
    {
      "x": 139,
      "y": 395,
      "size": 1,
      "price": "1011000000000000000000",
      "reserved": "",
      "salt": "0xa2404b70e9837b77c4237a44f6a7c0a6b92e672908156aba76e0ab9f38a25b61",
      "assetIds": []
    },
    {
      "x": 139,
      "y": 396,
      "size": 1,
      "price": "1011000000000000000000",
      "reserved": "",
      "salt": "0x39a48c663edbdf7ff0340cba86ea0250b71f0e02a5ced7c2b3fbee88b2aaf606",
      "assetIds": []
    },
    {
      "x": 139,
      "y": 397,
      "size": 1,
      "price": "1011000000000000000000",
      "reserved": "",
      "salt": "0xaaf0836400259a311f4f792ecd2159c39016bf9d15c4a0ab6ee265489c66fd13",
      "assetIds": []
    },
    {
      "x": 139,
      "y": 398,
      "size": 1,
      "price": "1011000000000000000000",
      "reserved": "",
      "salt": "0x275bd7f1e15ab66885d125b1b8ca90dd4568146e49b195ee4495c3a74fe32c76",
      "assetIds": []
    },
    {
      "x": 139,
      "y": 399,
      "size": 1,
      "price": "1011000000000000000000",
      "reserved": "",
      "salt": "0x86ea89cbfa146b08ec33094f37e1e5a1e990866fc3c803bbd02e61920c267ef3",
      "assetIds": []
    },
    {
      "x": 139,
      "y": 400,
      "size": 1,
      "price": "1011000000000000000000",
      "reserved": "0x7a9fe22691c811ea339d9b73150e6911a5343dca",
      "salt": "0xa76c54c3681c9ed645c96eeb05034a02a0642faa0e9cb3df3162b168e4883edc",
      "assetIds": []
    },
    {
      "x": 139,
      "y": 401,
      "size": 1,
      "price": "4683000000000000000000",
      "reserved": "",
      "salt": "0x0e728afd67ef77b1366e56e0963472e4e126a1575f40a10edac4a282c6fa8d5f",
      "assetIds": [
        "41506478881403507969696680653240014914910929820314476107906210059990541021186"
      ]
    },
    {
      "x": 140,
      "y": 346,
      "size": 1,
      "price": "1011000000000000000000",
      "reserved": "",
      "salt": "0x6be138f9625bddede1369524b341d2bb936f586382a4f5b447fcb2bcad25b0ba",
      "assetIds": []
    },
    {
      "x": 140,
      "y": 347,
      "size": 1,
      "price": "4683000000000000000000",
      "reserved": "",
      "salt": "0x29d3323a77bf306916f6637cdce36cf18e5f25f4159370a3c00a73ff509668de",
      "assetIds": [
        "41506478881403507969696680653240014914910929820314476107906210059990541021186"
      ]
    },
    {
      "x": 140,
      "y": 360,
      "size": 1,
      "price": "4683000000000000000000",
      "reserved": "",
      "salt": "0xbd2e95cead20d5407c1d74e7131f1cf1aceff2906a1f8c64f600bceac6fd3d07",
      "assetIds": [
        "41506478881403507969696680653240014914910929820314476107906210059990541021186"
      ]
    },
    {
      "x": 140,
      "y": 361,
      "size": 1,
      "price": "4683000000000000000000",
      "reserved": "",
      "salt": "0x0d8baa17aa9041fcaafdb7133ccd88202beea71560c14f5b219ca86a6f2658f4",
      "assetIds": [
        "41506478881403507969696680653240014914910929820314476107906210059990541021186"
      ]
    },
    {
      "x": 140,
      "y": 362,
      "size": 1,
      "price": "1011000000000000000000",
      "reserved": "",
      "salt": "0x310c715ca0d7bb61b54fb1fc331145cc83c4d7bed60f1e4e53c95bc164544a40",
      "assetIds": []
    },
    {
      "x": 140,
      "y": 363,
      "size": 1,
      "price": "1011000000000000000000",
      "reserved": "",
      "salt": "0x839f7c014394ee55ced75d551dc494edd71c90eb580cb9f099395500e78a2174",
      "assetIds": []
    },
    {
      "x": 140,
      "y": 364,
      "size": 1,
      "price": "1011000000000000000000",
      "reserved": "",
      "salt": "0x8c0743e6dc831a46f0806b876f096b337027ca3378ca29e4b9f18a4b2797f04c",
      "assetIds": []
    },
    {
      "x": 140,
      "y": 365,
      "size": 1,
      "price": "4683000000000000000000",
      "reserved": "",
      "salt": "0xb8695a2acb5eafaa100d63752c2d818e7b77dbe614244285263e785bd5aa132f",
      "assetIds": [
        "41506478881403507969696680653240014914910929820314476107906210059990541021186"
      ]
    },
    {
      "x": 140,
      "y": 384,
      "size": 1,
      "price": "4683000000000000000000",
      "reserved": "",
      "salt": "0x76627a1618eb6fabb3f9c9b906213e217a627b7ac3ccaaf542aae2c76c73d8f4",
      "assetIds": [
        "41506478881403507969696680653240014914910929820314476107906210059990541021186"
      ]
    },
    {
      "x": 140,
      "y": 385,
      "size": 1,
      "price": "4683000000000000000000",
      "reserved": "",
      "salt": "0xb650135633ab7dc2dc2ebfbaf7e61dbabc7fb24641293c371727ae3ad1841c05",
      "assetIds": [
        "41506478881403507969696680653240014914910929820314476107906210059990541021186"
      ]
    },
    {
      "x": 140,
      "y": 386,
      "size": 1,
      "price": "4683000000000000000000",
      "reserved": "",
      "salt": "0x11fbae1e38aa6aa7b2a7d62e35f3870a7213e5372de751110464224bb9136a17",
      "assetIds": [
        "41506478881403507969696680653240014914910929820314476107906210059990541021186"
      ]
    },
    {
      "x": 140,
      "y": 390,
      "size": 1,
      "price": "1011000000000000000000",
      "reserved": "",
      "salt": "0x2532ff129d3d9445cff12fd390af78e9c2fc9169b918eda2a8d00c18314b9268",
      "assetIds": []
    },
    {
      "x": 140,
      "y": 391,
      "size": 1,
      "price": "1011000000000000000000",
      "reserved": "",
      "salt": "0x690ce0552c593fb6052e265792389e41eda0d8a6e12426c299249ccb46803a61",
      "assetIds": []
    },
    {
      "x": 140,
      "y": 392,
      "size": 1,
      "price": "1011000000000000000000",
      "reserved": "",
      "salt": "0x5fbf207f0c74de4e88aeeba0f95195fb63727f1f053aece3b538f564ef3cb235",
      "assetIds": []
    },
    {
      "x": 140,
      "y": 393,
      "size": 1,
      "price": "1011000000000000000000",
      "reserved": "0x7a9fe22691c811ea339d9b73150e6911a5343dca",
      "salt": "0x74180fd58ef1006b99842d21f6b2fc6ef474e334f66d9b954322ddb2d018e16d",
      "assetIds": []
    },
    {
      "x": 140,
      "y": 394,
      "size": 1,
      "price": "1011000000000000000000",
      "reserved": "",
      "salt": "0x2ee75bb34a54c6d1782ce348c7e64e50108cdc44eee9af582e11aa9183837a26",
      "assetIds": []
    },
    {
      "x": 140,
      "y": 395,
      "size": 1,
      "price": "1011000000000000000000",
      "reserved": "",
      "salt": "0x9c5e071b5dc0aef0aa766138830c84357945965038cba258e15b53f7d8ddaaa8",
      "assetIds": []
    },
    {
      "x": 140,
      "y": 396,
      "size": 1,
      "price": "1011000000000000000000",
      "reserved": "",
      "salt": "0x43ca392b245901e9f391fc155d983c53e358504fb6aaf32343c5c55ef6e028c7",
      "assetIds": []
    },
    {
      "x": 140,
      "y": 397,
      "size": 1,
      "price": "1011000000000000000000",
      "reserved": "",
      "salt": "0x54ebc54b8de3737af04ab86d6ec13e9b5c5eb621d5a0d456b1987c92ce599f58",
      "assetIds": []
    },
    {
      "x": 140,
      "y": 398,
      "size": 1,
      "price": "1011000000000000000000",
      "reserved": "0x7a9fe22691c811ea339d9b73150e6911a5343dca",
      "salt": "0xe836cca5670318872f65dd454a264ff9a5a8064d4cbad0258492efb99d1f94a8",
      "assetIds": []
    },
    {
      "x": 140,
      "y": 399,
      "size": 1,
      "price": "1011000000000000000000",
      "reserved": "",
      "salt": "0x9281e6b2680bac0623f39cdb96e0abe27ed72b722547f01d2670385eff6c072f",
      "assetIds": []
    },
    {
      "x": 140,
      "y": 400,
      "size": 1,
      "price": "1011000000000000000000",
      "reserved": "",
      "salt": "0x496c2345a1fa4f43d113d644a55111f3b73624066e6e6b98153f6fafa78f4a1b",
      "assetIds": []
    },
    {
      "x": 140,
      "y": 401,
      "size": 1,
      "price": "4683000000000000000000",
      "reserved": "",
      "salt": "0x157de8bd5c1c6fc0ec997c8d3bd2dc73c39fa6da7b8193180d1e604a7406db25",
      "assetIds": [
        "41506478881403507969696680653240014914910929820314476107906210059990541021186"
      ]
    },
    {
      "x": 141,
      "y": 346,
      "size": 1,
      "price": "1011000000000000000000",
      "reserved": "",
      "salt": "0x9963ca6c194a67c6eb4dc42c9ea2ab5fbd2a77f643a8e23961c0b3da97fc082b",
      "assetIds": []
    },
    {
      "x": 141,
      "y": 347,
      "size": 1,
      "price": "4683000000000000000000",
      "reserved": "",
      "salt": "0xb87dbf0f1a6cde86ec90133fa91e9712ad4dc1e760a1ae49efd7f6cee0adefd5",
      "assetIds": [
        "41506478881403507969696680653240014914910929820314476107906210059990541021186"
      ]
    },
    {
      "x": 141,
      "y": 360,
      "size": 1,
      "price": "4683000000000000000000",
      "reserved": "",
      "salt": "0xb646a0701b8f14ff747e5dd5d1eaa090f9257d2113c2faa78b29b57ba1fd305c",
      "assetIds": [
        "41506478881403507969696680653240014914910929820314476107906210059990541021186"
      ]
    },
    {
      "x": 141,
      "y": 361,
      "size": 1,
      "price": "4683000000000000000000",
      "reserved": "",
      "salt": "0x93d32a9492e3e22bd8d30223d90cc1d5ba89e8c1b9ab064fa40f8d88939c0889",
      "assetIds": [
        "41506478881403507969696680653240014914910929820314476107906210059990541021186"
      ]
    },
    {
      "x": 141,
      "y": 362,
      "size": 1,
      "price": "1011000000000000000000",
      "reserved": "0x7a9fe22691c811ea339d9b73150e6911a5343dca",
      "salt": "0x8ae7cb220183c05cc47a0ab681e342604eb2317ebd60530b39e56c9e4cd4f798",
      "assetIds": []
    },
    {
      "x": 141,
      "y": 363,
      "size": 1,
      "price": "1011000000000000000000",
      "reserved": "",
      "salt": "0xabf2948393ab75af3be8f29558c6cce89b0e8676f480c25a3acb1c6891cc255f",
      "assetIds": []
    },
    {
      "x": 141,
      "y": 364,
      "size": 1,
      "price": "1011000000000000000000",
      "reserved": "",
      "salt": "0xe2532309a2e2c7c8d532dd0745545d4f4a2a0734f846910d063400ef979f1e64",
      "assetIds": []
    },
    {
      "x": 141,
      "y": 365,
      "size": 1,
      "price": "4683000000000000000000",
      "reserved": "",
      "salt": "0x442989937bd043ea08a888b39656a3e9ba7930cc892ad6bfeb8f457c1f1b218b",
      "assetIds": [
        "41506478881403507969696680653240014914910929820314476107906210059990541021186"
      ]
    },
    {
      "x": 141,
      "y": 384,
      "size": 1,
      "price": "4683000000000000000000",
      "reserved": "",
      "salt": "0x3879db7a48f8e380727390d1ce82d85f25daafa581c789d7ee490165dc3cfed4",
      "assetIds": [
        "41506478881403507969696680653240014914910929820314476107906210059990541021186"
      ]
    },
    {
      "x": 141,
      "y": 385,
      "size": 1,
      "price": "1011000000000000000000",
      "reserved": "0x7a9fe22691c811ea339d9b73150e6911a5343dca",
      "salt": "0x7dd182b887a1485718ca926934100625ba1825b77d77cd46d34cf08d1fe7c6a5",
      "assetIds": []
    },
    {
      "x": 141,
      "y": 386,
      "size": 1,
      "price": "4683000000000000000000",
      "reserved": "",
      "salt": "0x8fb32de54079029868d0b335519446c18de31b301ecd15ecc01d96fc4b05e9af",
      "assetIds": [
        "41506478881403507969696680653240014914910929820314476107906210059990541021186"
      ]
    },
    {
      "x": 141,
      "y": 387,
      "size": 1,
      "price": "1011000000000000000000",
      "reserved": "",
      "salt": "0x5d48ee07ee488728142d933eda9ce6631a13c4503293ec1fc03413dd91b795ff",
      "assetIds": []
    },
    {
      "x": 141,
      "y": 388,
      "size": 1,
      "price": "1011000000000000000000",
      "reserved": "0x7a9fe22691c811ea339d9b73150e6911a5343dca",
      "salt": "0x886c0b1a4da8562303a3add5d5a63e896095025511c1a38c7f296a2a2c94df98",
      "assetIds": []
    },
    {
      "x": 141,
      "y": 389,
      "size": 1,
      "price": "1011000000000000000000",
      "reserved": "",
      "salt": "0x8085af459bfff6c1ea81e017478b09f9a5ee5651cd8ce93cee93edb1e3a1b0a2",
      "assetIds": []
    },
    {
      "x": 141,
      "y": 390,
      "size": 1,
      "price": "1011000000000000000000",
      "reserved": "0x7a9fe22691c811ea339d9b73150e6911a5343dca",
      "salt": "0xad1d4dbfe3498ad6dd54cbb827a0becbaa85fd6c0a413dba59fae6ca15aa642f",
      "assetIds": []
    },
    {
      "x": 141,
      "y": 391,
      "size": 1,
      "price": "1011000000000000000000",
      "reserved": "",
      "salt": "0x81843165594a3306dff64a0202740b98677637212b5a3ea564246e43d92ff42e",
      "assetIds": []
    },
    {
      "x": 141,
      "y": 392,
      "size": 1,
      "price": "1011000000000000000000",
      "reserved": "",
      "salt": "0xa00d0a184227e800d4334d435e9cb5263613cbd9b6d447e49016434da9d12c9a",
      "assetIds": []
    },
    {
      "x": 141,
      "y": 393,
      "size": 1,
      "price": "1011000000000000000000",
      "reserved": "",
      "salt": "0x1f1ddf10acbc452be6fea4a1fc3983a65605ad08e15ae985b5c5206ee0c8a420",
      "assetIds": []
    },
    {
      "x": 141,
      "y": 394,
      "size": 1,
      "price": "1011000000000000000000",
      "reserved": "",
      "salt": "0xb1612a909cef2be19caaaa9ce5b124edae3cab717818455df8b8ca103c847fd0",
      "assetIds": []
    },
    {
      "x": 141,
      "y": 395,
      "size": 1,
      "price": "1011000000000000000000",
      "reserved": "",
      "salt": "0x95b3c3c641110a9fabe6840da2c43e8b04fa0c92b7eb167b6ad6bb47af999975",
      "assetIds": []
    },
    {
      "x": 141,
      "y": 399,
      "size": 1,
      "price": "1011000000000000000000",
      "reserved": "0x7a9fe22691c811ea339d9b73150e6911a5343dca",
      "salt": "0x5c5fe174f010178dbd3648723de954884e5271af5ac9f927ba3dde7236867abe",
      "assetIds": []
    },
    {
      "x": 141,
      "y": 400,
      "size": 1,
      "price": "1011000000000000000000",
      "reserved": "",
      "salt": "0x26eb79c1e153a962b3e80d04882a7539eb643e11baaf6b328b3c45aac32017f1",
      "assetIds": []
    },
    {
      "x": 141,
      "y": 401,
      "size": 1,
      "price": "4683000000000000000000",
      "reserved": "",
      "salt": "0xbc12072e4726d10e4b5a72af8c881270714c8977112bf61e8228a3e08c2dd0a3",
      "assetIds": [
        "41506478881403507969696680653240014914910929820314476107906210059990541021186"
      ]
    },
    {
      "x": 142,
      "y": 346,
      "size": 1,
      "price": "1011000000000000000000",
      "reserved": "",
      "salt": "0x56e2430aafb333104f39126395d6780affa748072ba4ce8caa9a98d58de9d365",
      "assetIds": []
    },
    {
      "x": 142,
      "y": 347,
      "size": 1,
      "price": "4683000000000000000000",
      "reserved": "",
      "salt": "0x83b78737c8d1547d68d8cd15032e92fcc3f6a5d68451fc3978cb76286cb8393e",
      "assetIds": [
        "41506478881403507969696680653240014914910929820314476107906210059990541021186"
      ]
    },
    {
      "x": 142,
      "y": 360,
      "size": 1,
      "price": "4683000000000000000000",
      "reserved": "",
      "salt": "0xcfb672f4d7fba8aed04d4837c2c3f87cc8f9e9aa94d1798b29720867ae67a599",
      "assetIds": [
        "41506478881403507969696680653240014914910929820314476107906210059990541021186"
      ]
    },
    {
      "x": 142,
      "y": 361,
      "size": 1,
      "price": "1011000000000000000000",
      "reserved": "",
      "salt": "0xc7bd0b7af7366e7721e592a134787ab33bdca27f3fcb9333157e2aa01f5be943",
      "assetIds": []
    },
    {
      "x": 142,
      "y": 362,
      "size": 1,
      "price": "1011000000000000000000",
      "reserved": "",
      "salt": "0xff707a67cf1ccf45ce6ccf332e4716f5431f062ac0e30ea534d667347014ff9d",
      "assetIds": []
    },
    {
      "x": 142,
      "y": 363,
      "size": 1,
      "price": "1011000000000000000000",
      "reserved": "",
      "salt": "0x6d04ada8f664280a9ec4b1a5a803bc23d112323acccc432f3860c47f0305336e",
      "assetIds": []
    },
    {
      "x": 142,
      "y": 364,
      "size": 1,
      "price": "1011000000000000000000",
      "reserved": "",
      "salt": "0xec85ae2ad0adb2d2a5b6646a0d0b7951e0067ac2d4921e3eb51c1f77b459e30e",
      "assetIds": []
    },
    {
      "x": 142,
      "y": 365,
      "size": 1,
      "price": "4683000000000000000000",
      "reserved": "",
      "salt": "0x207a443058a3f86766e3421d74c751f5f723b1c0353940c079d548fbd8458ba6",
      "assetIds": [
        "41506478881403507969696680653240014914910929820314476107906210059990541021186"
      ]
    },
    {
      "x": 142,
      "y": 384,
      "size": 1,
      "price": "4683000000000000000000",
      "reserved": "",
      "salt": "0x964ecc3ceeb9e157a15368257a5337afd4b8041510ce8842df7153d8e31f235c",
      "assetIds": [
        "41506478881403507969696680653240014914910929820314476107906210059990541021186"
      ]
    },
    {
      "x": 142,
      "y": 385,
      "size": 1,
      "price": "4683000000000000000000",
      "reserved": "",
      "salt": "0x39ac6b2b748af68378dd45e88e40e260162d32b8671a06a06b22e8cfff06ee52",
      "assetIds": [
        "41506478881403507969696680653240014914910929820314476107906210059990541021186"
      ]
    },
    {
      "x": 142,
      "y": 386,
      "size": 1,
      "price": "4683000000000000000000",
      "reserved": "",
      "salt": "0x16ed84bbb6b0fb595cf9004d76592d62f5ea4db27141c41ca4a05a1c7f270fda",
      "assetIds": [
        "41506478881403507969696680653240014914910929820314476107906210059990541021186"
      ]
    },
    {
      "x": 142,
      "y": 387,
      "size": 1,
      "price": "1011000000000000000000",
      "reserved": "0x7a9fe22691c811ea339d9b73150e6911a5343dca",
      "salt": "0x428bed8a2ce30c1c9a3308c7b1ce522613dc6ada03072fec8766a029f584ffa7",
      "assetIds": []
    },
    {
      "x": 142,
      "y": 388,
      "size": 1,
      "price": "1011000000000000000000",
      "reserved": "",
      "salt": "0x40840b595b4efe34b7f2f3eae16347d8110a6ab45672a47ed17fccbf999b1c77",
      "assetIds": []
    },
    {
      "x": 142,
      "y": 389,
      "size": 1,
      "price": "1011000000000000000000",
      "reserved": "0x7a9fe22691c811ea339d9b73150e6911a5343dca",
      "salt": "0x0ce6b0b0c27eada7abcff6342ea057429cb2bd9e5a96ebd1c2f6f2ea84bd2605",
      "assetIds": []
    },
    {
      "x": 142,
      "y": 390,
      "size": 1,
      "price": "1011000000000000000000",
      "reserved": "",
      "salt": "0xc7ddad3ceab52c7066aeab9e42dfcd69071c54f807bd41492e89dea409e952a2",
      "assetIds": []
    },
    {
      "x": 142,
      "y": 391,
      "size": 1,
      "price": "1011000000000000000000",
      "reserved": "",
      "salt": "0xef3bae2bf717c39e68932ee25e9a3541eb9e0fa88ffd50a37038c8d14c11d211",
      "assetIds": []
    },
    {
      "x": 142,
      "y": 392,
      "size": 1,
      "price": "1011000000000000000000",
      "reserved": "0x7a9fe22691c811ea339d9b73150e6911a5343dca",
      "salt": "0x9be6aa74f12dfcddf8132acc993aa0159d593534c9078ef60c050ee8dc712ea8",
      "assetIds": []
    },
    {
      "x": 142,
      "y": 393,
      "size": 1,
      "price": "1011000000000000000000",
      "reserved": "",
      "salt": "0x5407757b04f75e0c15a23aa86096a41f324e8e754df30fd14779e9094a949d78",
      "assetIds": []
    },
    {
      "x": 142,
      "y": 394,
      "size": 1,
      "price": "1011000000000000000000",
      "reserved": "0x7a9fe22691c811ea339d9b73150e6911a5343dca",
      "salt": "0x0322e5128244bd02bfa6a897e43bd5e21982aaa658a580d8f6f4c9455b88229e",
      "assetIds": []
    },
    {
      "x": 142,
      "y": 395,
      "size": 1,
      "price": "1011000000000000000000",
      "reserved": "",
      "salt": "0x309eb8ab51e284292ebbbab6685f3f3bb42600c713ae7adcc70ac5220bd28f32",
      "assetIds": []
    },
    {
      "x": 142,
      "y": 399,
      "size": 1,
      "price": "1011000000000000000000",
      "reserved": "",
      "salt": "0xedbcdd8fe83ce185c22315e9aebc8b910f71beb5e6185d4d1fef938cdd0f4a64",
      "assetIds": []
    },
    {
      "x": 142,
      "y": 400,
      "size": 1,
      "price": "1011000000000000000000",
      "reserved": "",
      "salt": "0x59463dbe4bb19f6e409bae87d3976da3ff23b5fc2ec6429b98a823ee4ba4c24a",
      "assetIds": []
    },
    {
      "x": 142,
      "y": 401,
      "size": 1,
      "price": "4683000000000000000000",
      "reserved": "",
      "salt": "0x2128842180c9f058c89a9ff3844b828f60d64e0fa4bd3b34338f29e59d06f14e",
      "assetIds": [
        "41506478881403507969696680653240014914910929820314476107906210059990541021186"
      ]
    },
    {
      "x": 143,
      "y": 346,
      "size": 1,
      "price": "1011000000000000000000",
      "reserved": "",
      "salt": "0x821d90acdc94653ba458caf7246c14e432f49a98cad8ab4ad71db6f98651fbf4",
      "assetIds": []
    },
    {
      "x": 143,
      "y": 347,
      "size": 1,
      "price": "4683000000000000000000",
      "reserved": "",
      "salt": "0xfadf092b1cae96e3b1ae45e57709be499e5fd3004dcba6a11bbc29cf9cc5330a",
      "assetIds": [
        "41506478881403507969696680653240014914910929820314476107906210059990541021186"
      ]
    },
    {
      "x": 143,
      "y": 360,
      "size": 1,
      "price": "4683000000000000000000",
      "reserved": "",
      "salt": "0xdbebca2f389daee28e15b174f13802fc2d531cd18ec2fd1b442f22ead8203e51",
      "assetIds": [
        "41506478881403507969696680653240014914910929820314476107906210059990541021186"
      ]
    },
    {
      "x": 143,
      "y": 361,
      "size": 1,
      "price": "1011000000000000000000",
      "reserved": "",
      "salt": "0xe5d2ec8b098f62c4a1e943a4d53d1a8af0b498f4cab862624fc7db895624d133",
      "assetIds": []
    },
    {
      "x": 143,
      "y": 362,
      "size": 1,
      "price": "1011000000000000000000",
      "reserved": "",
      "salt": "0xd0d0e85629a35eb5c3ac50a609e47b63b7df1ccc8959a6b09f270f9bbd84dc2b",
      "assetIds": []
    },
    {
      "x": 143,
      "y": 363,
      "size": 1,
      "price": "1011000000000000000000",
      "reserved": "",
      "salt": "0xfc56ea446ae2277dc50590c15fe143c6ae0b83f3bf7c95df5cb48bc7a1cb02ef",
      "assetIds": []
    },
    {
      "x": 143,
      "y": 364,
      "size": 1,
      "price": "1011000000000000000000",
      "reserved": "",
      "salt": "0xf64d933240b935ba90304588bb1249d13425182b83ffe3ee0a0f3bbebd34a5d1",
      "assetIds": []
    },
    {
      "x": 143,
      "y": 365,
      "size": 1,
      "price": "4683000000000000000000",
      "reserved": "",
      "salt": "0x809a542e08dbbbf1e6912d98bcc21025bf1e3e74240bef62f4dc71762e4f591f",
      "assetIds": [
        "41506478881403507969696680653240014914910929820314476107906210059990541021186"
      ]
    },
    {
      "x": 143,
      "y": 384,
      "size": 1,
      "price": "4683000000000000000000",
      "reserved": "",
      "salt": "0xec17bf87c5c7f09c42d0e50ed5a632b8c05bc7b670375572bb810dd0a91213b3",
      "assetIds": [
        "41506478881403507969696680653240014914910929820314476107906210059990541021186"
      ]
    },
    {
      "x": 143,
      "y": 385,
      "size": 1,
      "price": "4683000000000000000000",
      "reserved": "",
      "salt": "0xffb260f3d2af4b01dc6c9c6f6b483e06e21a8be14526d93f72ee0ad9c4e21d1d",
      "assetIds": [
        "41506478881403507969696680653240014914910929820314476107906210059990541021186"
      ]
    },
    {
      "x": 143,
      "y": 386,
      "size": 1,
      "price": "1011000000000000000000",
      "reserved": "0x7a9fe22691c811ea339d9b73150e6911a5343dca",
      "salt": "0xbb53d11b6c894c6bc11aa01a9e1a65cb28f7a73a6f638fc37d771768ea77dae9",
      "assetIds": []
    },
    {
      "x": 143,
      "y": 387,
      "size": 1,
      "price": "4683000000000000000000",
      "reserved": "",
      "salt": "0x62794c9f226925d78bdd784df391b26443d912e038d11026cc6df26e62493b11",
      "assetIds": [
        "41506478881403507969696680653240014914910929820314476107906210059990541021186"
      ]
    },
    {
      "x": 143,
      "y": 388,
      "size": 1,
      "price": "1011000000000000000000",
      "reserved": "",
      "salt": "0x7abb0dd0c74df6dc44647eb529c29d4ff9f5ffd755db3a80dce7c1869dfcb7c1",
      "assetIds": []
    },
    {
      "x": 143,
      "y": 389,
      "size": 1,
      "price": "1011000000000000000000",
      "reserved": "",
      "salt": "0x244fd6af0cfdcac909e0a943922e646a721e3f7be85b88cb7768b5358d0359d6",
      "assetIds": []
    },
    {
      "x": 143,
      "y": 390,
      "size": 1,
      "price": "1011000000000000000000",
      "reserved": "",
      "salt": "0xb2914a9f119729562dd59a4e05dbd663daff74aca4a35ee3530a48ba56b09588",
      "assetIds": []
    },
    {
      "x": 143,
      "y": 391,
      "size": 1,
      "price": "1011000000000000000000",
      "reserved": "",
      "salt": "0x898de2d00b4050a69057d1f5bf15a4f2505f80c0f0f019b5534ba746d97b9de7",
      "assetIds": []
    },
    {
      "x": 143,
      "y": 392,
      "size": 1,
      "price": "1011000000000000000000",
      "reserved": "",
      "salt": "0xf0de55f6ead7a097b27214eeda9e738ef303c253c7511cdebab0c68b7acac2be",
      "assetIds": []
    },
    {
      "x": 143,
      "y": 393,
      "size": 1,
      "price": "1011000000000000000000",
      "reserved": "",
      "salt": "0x11b226b26446434aa76f016537d4291f51e72f5f547466f4158d812452492728",
      "assetIds": []
    },
    {
      "x": 143,
      "y": 394,
      "size": 1,
      "price": "1011000000000000000000",
      "reserved": "",
      "salt": "0x1dc096f45be54582ce9c303adc457af55604fac9c471dd942142ceadfcfe4cf4",
      "assetIds": []
    },
    {
      "x": 143,
      "y": 395,
      "size": 1,
      "price": "1011000000000000000000",
      "reserved": "0x7a9fe22691c811ea339d9b73150e6911a5343dca",
      "salt": "0x81490f248a43666d67872dc2f1e5819e127ae9050d62325fa5434b603171810b",
      "assetIds": []
    },
    {
      "x": 143,
      "y": 399,
      "size": 1,
      "price": "1011000000000000000000",
      "reserved": "0x7a9fe22691c811ea339d9b73150e6911a5343dca",
      "salt": "0xe6dfbbd6163c2a8864f769f3c4b3c9239358945f38e38bf20ff97a30231d17d9",
      "assetIds": []
    },
    {
      "x": 143,
      "y": 400,
      "size": 1,
      "price": "1011000000000000000000",
      "reserved": "",
      "salt": "0x91108bc5fa03ad25c7622bedae668f254407e4db64cd1819d09c875ee92ec203",
      "assetIds": []
    },
    {
      "x": 143,
      "y": 401,
      "size": 1,
      "price": "4683000000000000000000",
      "reserved": "",
      "salt": "0xecb8b819f7511e754fb56e017cf14904faddfb17b0c5ff93084a91eec13c73e0",
      "assetIds": [
        "41506478881403507969696680653240014914910929820314476107906210059990541021186"
      ]
    },
    {
      "x": 144,
      "y": 346,
      "size": 1,
      "price": "1011000000000000000000",
      "reserved": "",
      "salt": "0x6e2915727cbaffc0e096655d0b56279cebaf190a42496feeba04f6ed498838e7",
      "assetIds": []
    },
    {
      "x": 144,
      "y": 347,
      "size": 1,
      "price": "4683000000000000000000",
      "reserved": "",
      "salt": "0xe28dd2e67f7b1f7bf23454341258d6c2cc74c1c909db765ecbc9cf59705a5f23",
      "assetIds": [
        "41506478881403507969696680653240014914910929820314476107906210059990541021186"
      ]
    },
    {
      "x": 144,
      "y": 348,
      "size": 1,
      "price": "4683000000000000000000",
      "reserved": "",
      "salt": "0xf67287fffd37545527db1f22d467fc83652cf13dca2582c9fe750df40b4c6b5e",
      "assetIds": [
        "41506478881403507969696680653240014914910929820314476107906210059990541021186"
      ]
    },
    {
      "x": 144,
      "y": 349,
      "size": 1,
      "price": "4683000000000000000000",
      "reserved": "",
      "salt": "0x9592a9871fe2454568206314cbea4750b1c8fcfa8e5f7cad79832163d9c7ded7",
      "assetIds": [
        "41506478881403507969696680653240014914910929820314476107906210059990541021186"
      ]
    },
    {
      "x": 144,
      "y": 350,
      "size": 1,
      "price": "4683000000000000000000",
      "reserved": "",
      "salt": "0xeead9f44f3915aadabd518a71405866da2eccf8cf188b0ec8090f07bdf4b9338",
      "assetIds": [
        "41506478881403507969696680653240014914910929820314476107906210059990541021186"
      ]
    },
    {
      "x": 144,
      "y": 351,
      "size": 1,
      "price": "4683000000000000000000",
      "reserved": "",
      "salt": "0x200fec53cecca42bb146214ca8711bf209fd1dfa704af8ce45c9b37376c5ff30",
      "assetIds": [
        "41506478881403507969696680653240014914910929820314476107906210059990541021186"
      ]
    },
    {
      "x": 144,
      "y": 352,
      "size": 1,
      "price": "4683000000000000000000",
      "reserved": "",
      "salt": "0x264f2ad1f98c050c070b96634ee646d20621838ef38600c50329d91e87a4a70e",
      "assetIds": [
        "41506478881403507969696680653240014914910929820314476107906210059990541021186"
      ]
    },
    {
      "x": 144,
      "y": 353,
      "size": 1,
      "price": "4683000000000000000000",
      "reserved": "",
      "salt": "0x6389baf4a9f7bc65b6b481121a1b75207bfa9e2335e993edf3c18e63e4f7afa9",
      "assetIds": [
        "41506478881403507969696680653240014914910929820314476107906210059990541021186"
      ]
    },
    {
      "x": 144,
      "y": 354,
      "size": 1,
      "price": "4683000000000000000000",
      "reserved": "",
      "salt": "0xe4f74947ee400a3058c50365aaa391238f1d3c7886152fc33ac4b9748181b1fe",
      "assetIds": [
        "41506478881403507969696680653240014914910929820314476107906210059990541021186"
      ]
    },
    {
      "x": 144,
      "y": 355,
      "size": 1,
      "price": "4683000000000000000000",
      "reserved": "",
      "salt": "0x9e995fdc5a22951f6d255d175e2e6a386adbf28d5055760e7d99e0b476ccca50",
      "assetIds": [
        "41506478881403507969696680653240014914910929820314476107906210059990541021186"
      ]
    },
    {
      "x": 144,
      "y": 356,
      "size": 1,
      "price": "4683000000000000000000",
      "reserved": "",
      "salt": "0x79042f6a72fbc9eddd224467d57af0064baf9f62577afef460ca197274238c57",
      "assetIds": [
        "41506478881403507969696680653240014914910929820314476107906210059990541021186"
      ]
    },
    {
      "x": 144,
      "y": 357,
      "size": 1,
      "price": "4683000000000000000000",
      "reserved": "",
      "salt": "0xedfde676c99ba738c51c5f2d8069a1b4395f683a4d5398296675dc7d6cc0eb3e",
      "assetIds": [
        "41506478881403507969696680653240014914910929820314476107906210059990541021186"
      ]
    },
    {
      "x": 144,
      "y": 358,
      "size": 1,
      "price": "4683000000000000000000",
      "reserved": "",
      "salt": "0x2b7c01207262e2a576ef755dc684a3755a15738448510d82c2fe31b41fc4ef0b",
      "assetIds": [
        "41506478881403507969696680653240014914910929820314476107906210059990541021186"
      ]
    },
    {
      "x": 144,
      "y": 359,
      "size": 1,
      "price": "4683000000000000000000",
      "reserved": "",
      "salt": "0x084444ab3be5591f747c838d04f13126e0d58aec387595dc83ce4eccfadffa3b",
      "assetIds": [
        "41506478881403507969696680653240014914910929820314476107906210059990541021186"
      ]
    },
    {
      "x": 144,
      "y": 360,
      "size": 1,
      "price": "4683000000000000000000",
      "reserved": "",
      "salt": "0xad8c470468db5deb0fb6b47ed4fcf914a1ac2146764a9741368173ee6bcfc500",
      "assetIds": [
        "41506478881403507969696680653240014914910929820314476107906210059990541021186"
      ]
    },
    {
      "x": 144,
      "y": 361,
      "size": 1,
      "price": "1011000000000000000000",
      "reserved": "0x7a9fe22691c811ea339d9b73150e6911a5343dca",
      "salt": "0x0b2b8ab3cbefe4440c8b88f269c4370b30d79e1a8cd07b0b3f103beaa4823653",
      "assetIds": []
    },
    {
      "x": 144,
      "y": 362,
      "size": 1,
      "price": "1011000000000000000000",
      "reserved": "",
      "salt": "0xdb985dc01a976437a4a87e4dcaa0bedec5adbc001e97f25c311020fdba037a87",
      "assetIds": []
    },
    {
      "x": 144,
      "y": 366,
      "size": 1,
      "price": "4683000000000000000000",
      "reserved": "",
      "salt": "0x7795674dc11c889d027016f2eab47577a97b4b9c4d48d4682db8e76074307b05",
      "assetIds": [
        "41506478881403507969696680653240014914910929820314476107906210059990541021186"
      ]
    },
    {
      "x": 144,
      "y": 367,
      "size": 1,
      "price": "4683000000000000000000",
      "reserved": "",
      "salt": "0x8e4b67b3b73e1c4aa898020ab0ee7f6e38d5f2b96ab187c49393fc76771088e2",
      "assetIds": [
        "41506478881403507969696680653240014914910929820314476107906210059990541021186"
      ]
    },
    {
      "x": 144,
      "y": 368,
      "size": 1,
      "price": "4683000000000000000000",
      "reserved": "",
      "salt": "0x212b1edf28c0b05f3cc9e493a2205e1b183ebf12487f5be377dfd81dc7467f62",
      "assetIds": [
        "41506478881403507969696680653240014914910929820314476107906210059990541021186"
      ]
    },
    {
      "x": 144,
      "y": 369,
      "size": 1,
      "price": "4683000000000000000000",
      "reserved": "",
      "salt": "0xd4cf394d1de7da5653b4d2424b351d742df9499d5484d876a3756d98a078a2c9",
      "assetIds": [
        "41506478881403507969696680653240014914910929820314476107906210059990541021186"
      ]
    },
    {
      "x": 144,
      "y": 370,
      "size": 1,
      "price": "4683000000000000000000",
      "reserved": "",
      "salt": "0x31c6232b0e1c914528698a778151c3347506aa6596df56518cd03ad05d020966",
      "assetIds": [
        "41506478881403507969696680653240014914910929820314476107906210059990541021186"
      ]
    },
    {
      "x": 144,
      "y": 371,
      "size": 1,
      "price": "4683000000000000000000",
      "reserved": "",
      "salt": "0xed02635c63988efea71ea6a65ff5464ae06944d2cc454c92036e25d27bd15c3f",
      "assetIds": [
        "41506478881403507969696680653240014914910929820314476107906210059990541021186"
      ]
    },
    {
      "x": 144,
      "y": 372,
      "size": 1,
      "price": "4683000000000000000000",
      "reserved": "",
      "salt": "0x6f1fe045448f6953765d19eb769b5a7d333306982fe18ccbbbd4a8f81602ec12",
      "assetIds": [
        "41506478881403507969696680653240014914910929820314476107906210059990541021186"
      ]
    },
    {
      "x": 144,
      "y": 373,
      "size": 1,
      "price": "4683000000000000000000",
      "reserved": "",
      "salt": "0x2604cc98750609478993a45583d604900515f4cfd3915fb5a9ed954eb6fd5a23",
      "assetIds": [
        "41506478881403507969696680653240014914910929820314476107906210059990541021186"
      ]
    },
    {
      "x": 144,
      "y": 374,
      "size": 1,
      "price": "4683000000000000000000",
      "reserved": "",
      "salt": "0x84d90da940437ce3f9c95112b538a912648833ea0f7b0b75ce14b0900c361ce8",
      "assetIds": [
        "41506478881403507969696680653240014914910929820314476107906210059990541021186"
      ]
    },
    {
      "x": 144,
      "y": 375,
      "size": 1,
      "price": "4683000000000000000000",
      "reserved": "",
      "salt": "0x2f08a844e81097c3e012b550be54e11aebcf3277a194ee395f3bfaf2c6fc2079",
      "assetIds": [
        "41506478881403507969696680653240014914910929820314476107906210059990541021186"
      ]
    },
    {
      "x": 144,
      "y": 376,
      "size": 1,
      "price": "4683000000000000000000",
      "reserved": "",
      "salt": "0xf73c5ad934829b05e0edab34f4b33299bdf54e7ac5db1d1307516e7f6657e648",
      "assetIds": [
        "41506478881403507969696680653240014914910929820314476107906210059990541021186"
      ]
    },
    {
      "x": 144,
      "y": 377,
      "size": 1,
      "price": "4683000000000000000000",
      "reserved": "",
      "salt": "0x94a5b5594ce3f42422c50776ca3f3b21ba33899ae1e866bc30c96e6df6844733",
      "assetIds": [
        "41506478881403507969696680653240014914910929820314476107906210059990541021186"
      ]
    },
    {
      "x": 144,
      "y": 378,
      "size": 1,
      "price": "4683000000000000000000",
      "reserved": "",
      "salt": "0x419391a7c93c78a67f3466963f540969393ea87707a5729b8da25fb54309ef0f",
      "assetIds": [
        "41506478881403507969696680653240014914910929820314476107906210059990541021186"
      ]
    },
    {
      "x": 144,
      "y": 379,
      "size": 1,
      "price": "4683000000000000000000",
      "reserved": "",
      "salt": "0xc3a2ae2f648d5f4d60f805e775140860e577f00f62cbf223cf50ea57edfe6cb5",
      "assetIds": [
        "41506478881403507969696680653240014914910929820314476107906210059990541021186"
      ]
    },
    {
      "x": 144,
      "y": 380,
      "size": 1,
      "price": "4683000000000000000000",
      "reserved": "",
      "salt": "0x183919cc2eb8899dc8e624c05f5c931377e99ce158ca7950dbbc467e49294e02",
      "assetIds": [
        "41506478881403507969696680653240014914910929820314476107906210059990541021186"
      ]
    },
    {
      "x": 144,
      "y": 381,
      "size": 1,
      "price": "4683000000000000000000",
      "reserved": "",
      "salt": "0x25f08d864e3cad46937d2314f1c3b5a83c2181b80054ad12bd2a732d21716172",
      "assetIds": [
        "41506478881403507969696680653240014914910929820314476107906210059990541021186"
      ]
    },
    {
      "x": 144,
      "y": 382,
      "size": 1,
      "price": "4683000000000000000000",
      "reserved": "",
      "salt": "0x97a8ea994d47951515753e5650f070c072a5126a0f7d430d0f1fb2a8145f5ca3",
      "assetIds": [
        "41506478881403507969696680653240014914910929820314476107906210059990541021186"
      ]
    },
    {
      "x": 144,
      "y": 383,
      "size": 1,
      "price": "4683000000000000000000",
      "reserved": "",
      "salt": "0xc6a15b6e76fafd5ba30466a3da421b48b258cfee95ac9a03a6a800adeb3f00e0",
      "assetIds": [
        "41506478881403507969696680653240014914910929820314476107906210059990541021186"
      ]
    },
    {
      "x": 144,
      "y": 384,
      "size": 1,
      "price": "4683000000000000000000",
      "reserved": "",
      "salt": "0xcbb7d069092187ddd858615a79d31a72d3313da9aaa8d1fb4644d878ea2df2d3",
      "assetIds": [
        "41506478881403507969696680653240014914910929820314476107906210059990541021186"
      ]
    },
    {
      "x": 144,
      "y": 385,
      "size": 1,
      "price": "4683000000000000000000",
      "reserved": "",
      "salt": "0x52c07230e1e790ef57e40cd173afd3e6a699144d46efe4c3644880ecc54e9586",
      "assetIds": [
        "41506478881403507969696680653240014914910929820314476107906210059990541021186"
      ]
    },
    {
      "x": 144,
      "y": 386,
      "size": 1,
      "price": "4683000000000000000000",
      "reserved": "",
      "salt": "0xd875c48546b7b19b4dd4085a9d919f1a26f02d516a0f033104c9a3602f7840c7",
      "assetIds": [
        "41506478881403507969696680653240014914910929820314476107906210059990541021186"
      ]
    },
    {
      "x": 144,
      "y": 387,
      "size": 1,
      "price": "4683000000000000000000",
      "reserved": "",
      "salt": "0x5b403bea84f52d647d7893fa22693c8362580fe283b1abc86446b4a895b45afd",
      "assetIds": [
        "41506478881403507969696680653240014914910929820314476107906210059990541021186"
      ]
    },
    {
      "x": 144,
      "y": 388,
      "size": 1,
      "price": "1011000000000000000000",
      "reserved": "",
      "salt": "0x9a90bfbdfca0e51c9903e50e60b46831376572b42a68a5e27d5d1cb57c107be5",
      "assetIds": []
    },
    {
      "x": 144,
      "y": 389,
      "size": 1,
      "price": "1011000000000000000000",
      "reserved": "",
      "salt": "0x15003390ce493af951cef2d2e1819dcd591635faba68c75bec4eb15bb788bbfb",
      "assetIds": []
    },
    {
      "x": 144,
      "y": 390,
      "size": 1,
      "price": "1011000000000000000000",
      "reserved": "",
      "salt": "0x095e5b05227c88e6a7af3aee246cab2ecaba4fa8e461adb555667df3402db571",
      "assetIds": []
    },
    {
      "x": 144,
      "y": 391,
      "size": 1,
      "price": "1011000000000000000000",
      "reserved": "0x7a9fe22691c811ea339d9b73150e6911a5343dca",
      "salt": "0xa7a0799bc1ecf1fc91e232d9cbca16bd7d3d0a5b5beacf6d9c196f5ce749995e",
      "assetIds": []
    },
    {
      "x": 144,
      "y": 392,
      "size": 1,
      "price": "1011000000000000000000",
      "reserved": "0x7a9fe22691c811ea339d9b73150e6911a5343dca",
      "salt": "0x84d9ead9a29bcc462826e8526c76f27c89dbfdb1ef52ae7b89e0df95c08a38d6",
      "assetIds": []
    },
    {
      "x": 144,
      "y": 393,
      "size": 1,
      "price": "1011000000000000000000",
      "reserved": "0x7a9fe22691c811ea339d9b73150e6911a5343dca",
      "salt": "0xa42def23a70181fdd14fd97b89eb9680c575744c1c1cd9de2767dba1f0f43b46",
      "assetIds": []
    },
    {
      "x": 144,
      "y": 394,
      "size": 1,
      "price": "1011000000000000000000",
      "reserved": "",
      "salt": "0x3632d18e8514dfe5327221cf95fcf80482a4f1d5177080ef9b9f9de88385dfd5",
      "assetIds": []
    },
    {
      "x": 144,
      "y": 395,
      "size": 1,
      "price": "1011000000000000000000",
      "reserved": "0x7a9fe22691c811ea339d9b73150e6911a5343dca",
      "salt": "0x609e0464be061feee0217551867d2537349f4612f310bfda9660afe00a0beb41",
      "assetIds": []
    },
    {
      "x": 144,
      "y": 396,
      "size": 1,
      "price": "1011000000000000000000",
      "reserved": "",
      "salt": "0x0accdaddef6101a11a62e13789678ecdce33d3205c6be8322002ae330ea1a01b",
      "assetIds": []
    },
    {
      "x": 144,
      "y": 397,
      "size": 1,
      "price": "1011000000000000000000",
      "reserved": "",
      "salt": "0x6e61b39711cb03ce5307902da05680352054ed6be29e17dc394e0922d082c306",
      "assetIds": []
    },
    {
      "x": 144,
      "y": 398,
      "size": 1,
      "price": "1011000000000000000000",
      "reserved": "",
      "salt": "0x6c79bc70a99221a3fb653c845413fb0c1dba020259090adb6503526ca21ba60f",
      "assetIds": []
    },
    {
      "x": 144,
      "y": 399,
      "size": 1,
      "price": "1011000000000000000000",
      "reserved": "",
      "salt": "0x26f76972cc04463e6b1cfb62a41612eb29f54f04b56694b8b70bc5b25136de39",
      "assetIds": []
    },
    {
      "x": 144,
      "y": 400,
      "size": 1,
      "price": "1011000000000000000000",
      "reserved": "",
      "salt": "0x86ce9138c8887f16bc2574e746d5804cc4943385eed220712e51833d9f894ded",
      "assetIds": []
    },
    {
      "x": 144,
      "y": 401,
      "size": 1,
      "price": "4683000000000000000000",
      "reserved": "",
      "salt": "0x12bcf135d3c647bab0cdd517b00f7ddf43c8dcb3da9ae2c29aa1a779738248d4",
      "assetIds": [
        "41506478881403507969696680653240014914910929820314476107906210059990541021186"
      ]
    },
    {
      "x": 144,
      "y": 402,
      "size": 1,
      "price": "4683000000000000000000",
      "reserved": "",
      "salt": "0x1119d41fecf77807cbb53feceaa87c7411d7ff88a514e2e71506cc4672e87b13",
      "assetIds": [
        "41506478881403507969696680653240014914910929820314476107906210059990541021186"
      ]
    },
    {
      "x": 144,
      "y": 403,
      "size": 1,
      "price": "4683000000000000000000",
      "reserved": "",
      "salt": "0xa61191a4665f6844c268ccaba57c38bcf60fd73deed7dd821829c51ef016d11d",
      "assetIds": [
        "41506478881403507969696680653240014914910929820314476107906210059990541021186"
      ]
    },
    {
      "x": 144,
      "y": 404,
      "size": 1,
      "price": "4683000000000000000000",
      "reserved": "",
      "salt": "0xb5a9fc9e83896345c587e830918453159645de7f64f65324f0937667f5b41fb4",
      "assetIds": [
        "41506478881403507969696680653240014914910929820314476107906210059990541021186"
      ]
    },
    {
      "x": 144,
      "y": 405,
      "size": 1,
      "price": "4683000000000000000000",
      "reserved": "",
      "salt": "0x9a7026caef9a04c1140e6e28eb4e7897b395c3a587b28cba544140861e929241",
      "assetIds": [
        "41506478881403507969696680653240014914910929820314476107906210059990541021186"
      ]
    },
    {
      "x": 144,
      "y": 406,
      "size": 1,
      "price": "4683000000000000000000",
      "reserved": "",
      "salt": "0x037bf3ce5c40029c27974b32c7c38c96afa3efb05491e14c2f715c21ae02c41b",
      "assetIds": [
        "41506478881403507969696680653240014914910929820314476107906210059990541021186"
      ]
    },
    {
      "x": 144,
      "y": 407,
      "size": 1,
      "price": "4683000000000000000000",
      "reserved": "",
      "salt": "0x1e913527de0df8ed05e8d8ca57092228840816fcfbd16e222b9acc67a8fc912c",
      "assetIds": [
        "41506478881403507969696680653240014914910929820314476107906210059990541021186"
      ]
    },
    {
      "x": 145,
      "y": 346,
      "size": 1,
      "price": "1011000000000000000000",
      "reserved": "",
      "salt": "0x790ba3c4d664b9467c3e11381d062c32804195043f07c9e4579ef77c9132bf2b",
      "assetIds": []
    },
    {
      "x": 145,
      "y": 347,
      "size": 1,
      "price": "1011000000000000000000",
      "reserved": "",
      "salt": "0xb9797fb4376320cda3d738971b8c52d6000ee4e2235f1e80f31f7788bf1b09b9",
      "assetIds": []
    },
    {
      "x": 145,
      "y": 348,
      "size": 1,
      "price": "1011000000000000000000",
      "reserved": "",
      "salt": "0x107a75c030e0bc22be51f80a07d39f74eb137c7b301e5873753292fab839ae7c",
      "assetIds": []
    },
    {
      "x": 145,
      "y": 349,
      "size": 1,
      "price": "1011000000000000000000",
      "reserved": "",
      "salt": "0xbcf61594effed2a9ba7fec365d33ad56cec9fecb7244b944d1e473ab06640783",
      "assetIds": []
    },
    {
      "x": 145,
      "y": 350,
      "size": 1,
      "price": "1011000000000000000000",
      "reserved": "",
      "salt": "0x69803ae186e8429fadc35c88c01f5408b3ff268e2b6f932f26fb55b446953824",
      "assetIds": []
    },
    {
      "x": 145,
      "y": 351,
      "size": 1,
      "price": "1011000000000000000000",
      "reserved": "",
      "salt": "0xbd4b1c6f52b3d208b47728c0416efc9ef4f5a74e493400f60ee647d359674a40",
      "assetIds": []
    },
    {
      "x": 145,
      "y": 352,
      "size": 1,
      "price": "1011000000000000000000",
      "reserved": "",
      "salt": "0xd8ec6fad8215011d6bca6e046b7aec9241e442cf35d70a7a0273b175d9d13738",
      "assetIds": []
    },
    {
      "x": 145,
      "y": 353,
      "size": 1,
      "price": "1011000000000000000000",
      "reserved": "0x7a9fe22691c811ea339d9b73150e6911a5343dca",
      "salt": "0x90f2f64eac72370a9616415af3f5b77ff2123518c12ad7230bf52de86aef6f23",
      "assetIds": []
    },
    {
      "x": 145,
      "y": 354,
      "size": 1,
      "price": "1011000000000000000000",
      "reserved": "",
      "salt": "0x6a5227e34c0d19a5e50554d5c81c61737689f3225e30f5e9339ad0b5e9eb4fc0",
      "assetIds": []
    },
    {
      "x": 145,
      "y": 355,
      "size": 1,
      "price": "1011000000000000000000",
      "reserved": "",
      "salt": "0x493cce6d5c5503ff1621564bf8fd3ac141096ce475cb16cf3c5d94467861b538",
      "assetIds": []
    },
    {
      "x": 145,
      "y": 356,
      "size": 1,
      "price": "1011000000000000000000",
      "reserved": "",
      "salt": "0xfa043fd9744a0b8666d78a6a6701e00c5c08108e4932613e3f696e9376de3d4d",
      "assetIds": []
    },
    {
      "x": 145,
      "y": 357,
      "size": 1,
      "price": "1011000000000000000000",
      "reserved": "",
      "salt": "0x5b34ff78ea7618e84f0f6c4812e7107a1881b0869822665475e1acdeed4a7e76",
      "assetIds": []
    },
    {
      "x": 145,
      "y": 358,
      "size": 1,
      "price": "1011000000000000000000",
      "reserved": "",
      "salt": "0x041111e0b9d2832093daa55a152cc1075c92ca04df152a0f5fee09ebf49cc89b",
      "assetIds": []
    },
    {
      "x": 145,
      "y": 359,
      "size": 1,
      "price": "1011000000000000000000",
      "reserved": "",
      "salt": "0x1cfa71b2c78dc581d539c31eb31f864ec7a6feb6b1845be927ecd8389077ca41",
      "assetIds": []
    },
    {
      "x": 145,
      "y": 360,
      "size": 1,
      "price": "4683000000000000000000",
      "reserved": "",
      "salt": "0x708fb2862cf883358233613837cf2a2f59fdb98b2f7f18ae99df881d87300ecc",
      "assetIds": [
        "41506478881403507969696680653240014914910929820314476107906210059990541021186"
      ]
    },
    {
      "x": 145,
      "y": 361,
      "size": 1,
      "price": "1011000000000000000000",
      "reserved": "0x7a9fe22691c811ea339d9b73150e6911a5343dca",
      "salt": "0x0b0868b8ea35296bf49786d185776675b638bd89b7fa4dbeecb40b87ae7b6bc1",
      "assetIds": []
    },
    {
      "x": 145,
      "y": 362,
      "size": 1,
      "price": "1011000000000000000000",
      "reserved": "",
      "salt": "0xbc0c99c4b38b57f9a4dea29b154434bb30a7ad3fd66349c8860024c188355c2d",
      "assetIds": []
    },
    {
      "x": 145,
      "y": 366,
      "size": 1,
      "price": "1011000000000000000000",
      "reserved": "",
      "salt": "0xf583732f954553e0b3c24573f66944dde58c49d93f86f8d24dd42866ad2f8f70",
      "assetIds": []
    },
    {
      "x": 145,
      "y": 367,
      "size": 1,
      "price": "1011000000000000000000",
      "reserved": "",
      "salt": "0x1a0061a277bcc7a405707f84935af765a29a2600fd6976a91f1ff20af8b097b0",
      "assetIds": []
    },
    {
      "x": 145,
      "y": 368,
      "size": 1,
      "price": "1011000000000000000000",
      "reserved": "",
      "salt": "0x733e7db4bcf289a86f09447d2580b28e0b176480b3fc42f2de533c77c4cc40c3",
      "assetIds": []
    },
    {
      "x": 145,
      "y": 369,
      "size": 1,
      "price": "1011000000000000000000",
      "reserved": "",
      "salt": "0x39befb233d07e20f9c8911438f470e1b5b51d5bf3bb99484f0e2af6e4506f20a",
      "assetIds": []
    },
    {
      "x": 145,
      "y": 370,
      "size": 1,
      "price": "4683000000000000000000",
      "reserved": "",
      "salt": "0xdb2b012d1d1010725a0fdf4aaa92b6aaf5a767d979da31ebdfae44e3da8c5d9e",
      "assetIds": [
        "41506478881403507969696680653240014914910929820314476107906210059990541021186"
      ]
    },
    {
      "x": 145,
      "y": 371,
      "size": 1,
      "price": "4683000000000000000000",
      "reserved": "",
      "salt": "0xede99265e34a396f6c7be920ebb835bc42af618b837de65ef051812a6fd58a3a",
      "assetIds": [
        "41506478881403507969696680653240014914910929820314476107906210059990541021186"
      ]
    },
    {
      "x": 145,
      "y": 372,
      "size": 1,
      "price": "1011000000000000000000",
      "reserved": "0x7a9fe22691c811ea339d9b73150e6911a5343dca",
      "salt": "0x9e24b6152f03d4781c7d9fe6d425cb5abbc1073bbd62dfa4ba2563d098b220ef",
      "assetIds": []
    },
    {
      "x": 145,
      "y": 373,
      "size": 1,
      "price": "4683000000000000000000",
      "reserved": "",
      "salt": "0x3cbed8ef8a09112339cd67e8c876dad28ce5df0a9ce46eaa61fe0b750d533e60",
      "assetIds": [
        "41506478881403507969696680653240014914910929820314476107906210059990541021186"
      ]
    },
    {
      "x": 145,
      "y": 374,
      "size": 1,
      "price": "4683000000000000000000",
      "reserved": "",
      "salt": "0xddd4bd11b03129d59b355a37f1c25cec34ed839b78921079b432db8c6d75562c",
      "assetIds": [
        "41506478881403507969696680653240014914910929820314476107906210059990541021186"
      ]
    },
    {
      "x": 145,
      "y": 375,
      "size": 1,
      "price": "4683000000000000000000",
      "reserved": "",
      "salt": "0x0c0975b76dd778af83fe6bad8d205cb1379378dfd71a5c1cbab10154db03d3d1",
      "assetIds": [
        "41506478881403507969696680653240014914910929820314476107906210059990541021186"
      ]
    },
    {
      "x": 145,
      "y": 376,
      "size": 1,
      "price": "1011000000000000000000",
      "reserved": "0x7a9fe22691c811ea339d9b73150e6911a5343dca",
      "salt": "0x07b808cad639ed6cc42bf9a487efb74829e0be930b33b4d118a7c99f3c9bd113",
      "assetIds": []
    },
    {
      "x": 145,
      "y": 377,
      "size": 1,
      "price": "4683000000000000000000",
      "reserved": "",
      "salt": "0xb47e21fddff10e43d1ca53003a842a63c9e50420f5e3d3be6468fe32311c157f",
      "assetIds": [
        "41506478881403507969696680653240014914910929820314476107906210059990541021186"
      ]
    },
    {
      "x": 145,
      "y": 378,
      "size": 1,
      "price": "1011000000000000000000",
      "reserved": "0x7a9fe22691c811ea339d9b73150e6911a5343dca",
      "salt": "0xc9072296a689e46c1ef7063aaff260ec8a8cd12a562728438df2a6378265e99b",
      "assetIds": []
    },
    {
      "x": 145,
      "y": 379,
      "size": 1,
      "price": "4683000000000000000000",
      "reserved": "",
      "salt": "0x952f23eaa87b2bb3909225209b2ada5e995b5eaee133cb0411bed87f6bd7a3a9",
      "assetIds": [
        "41506478881403507969696680653240014914910929820314476107906210059990541021186"
      ]
    },
    {
      "x": 145,
      "y": 380,
      "size": 1,
      "price": "4683000000000000000000",
      "reserved": "",
      "salt": "0x3e1a8867a99267e0f2d03d7757084a29a24f05e781a791b55d69db6822fbe075",
      "assetIds": [
        "41506478881403507969696680653240014914910929820314476107906210059990541021186"
      ]
    },
    {
      "x": 145,
      "y": 381,
      "size": 1,
      "price": "1011000000000000000000",
      "reserved": "0x7a9fe22691c811ea339d9b73150e6911a5343dca",
      "salt": "0x9bbb1577aa3cbdaa99fa91d62a69b9a0dcc51a3aa918c9dadaa2eff3b892914c",
      "assetIds": []
    },
    {
      "x": 145,
      "y": 382,
      "size": 1,
      "price": "4683000000000000000000",
      "reserved": "",
      "salt": "0x9a82241107d1af04547b54bb939e90fb9828ed2b1dfa4de3c60e461d2764f697",
      "assetIds": [
        "41506478881403507969696680653240014914910929820314476107906210059990541021186"
      ]
    },
    {
      "x": 145,
      "y": 383,
      "size": 1,
      "price": "1011000000000000000000",
      "reserved": "0x7a9fe22691c811ea339d9b73150e6911a5343dca",
      "salt": "0x8e237d0fa446602ca193c1bab0ba99baa570939aaa2f931df926eddfd1c9bdef",
      "assetIds": []
    },
    {
      "x": 145,
      "y": 384,
      "size": 1,
      "price": "4683000000000000000000",
      "reserved": "",
      "salt": "0x0a68ef3c6a551c51b310ecdb6c121fe7f7b117383ce99d34a96baf50a2fb7f14",
      "assetIds": [
        "41506478881403507969696680653240014914910929820314476107906210059990541021186"
      ]
    },
    {
      "x": 145,
      "y": 385,
      "size": 1,
      "price": "1011000000000000000000",
      "reserved": "",
      "salt": "0x362bb05f75a5ded95c3c96f7a992ef4dd362973da9b0b66ca2a8a4b398b772e7",
      "assetIds": []
    },
    {
      "x": 145,
      "y": 386,
      "size": 1,
      "price": "1011000000000000000000",
      "reserved": "",
      "salt": "0xdf85529e606f811647031bb2b22a6e2147d9ca29305ae9c6f255bb161dd2d16c",
      "assetIds": []
    },
    {
      "x": 145,
      "y": 387,
      "size": 1,
      "price": "1011000000000000000000",
      "reserved": "",
      "salt": "0xe83d39da02e6b86fcc322bd976e14fd6c0ca894c422d70c12ac0f516dc5c786a",
      "assetIds": []
    },
    {
      "x": 145,
      "y": 388,
      "size": 1,
      "price": "1011000000000000000000",
      "reserved": "",
      "salt": "0x1549fa6293a53a37529abf9da4163392198421d4bcbb796c62880c900d4dac8a",
      "assetIds": []
    },
    {
      "x": 145,
      "y": 389,
      "size": 1,
      "price": "1011000000000000000000",
      "reserved": "",
      "salt": "0x89a5ff6881a237d81201edf3a3a5f2be182ac5ebce8a9c427972272e8c1c718c",
      "assetIds": []
    },
    {
      "x": 145,
      "y": 390,
      "size": 1,
      "price": "1011000000000000000000",
      "reserved": "",
      "salt": "0xd84a4948c0b3a3538a5ec9b3b45d2ec0b164ebe23cb8b362e401841d19282e0b",
      "assetIds": []
    },
    {
      "x": 145,
      "y": 391,
      "size": 1,
      "price": "1011000000000000000000",
      "reserved": "",
      "salt": "0x273894fa5166bbb26c5d7b260671643fa9d90b3d75e741baea40efa2044ac180",
      "assetIds": []
    },
    {
      "x": 145,
      "y": 392,
      "size": 1,
      "price": "1011000000000000000000",
      "reserved": "",
      "salt": "0x301178a31120fe156b5a2df00167ff17c5b14ae9f0ba1a485261f397e1e042c1",
      "assetIds": []
    },
    {
      "x": 145,
      "y": 393,
      "size": 1,
      "price": "1011000000000000000000",
      "reserved": "",
      "salt": "0x086f73ac7ac9bee75789b5af95236769b0db84d5bc9e38799c2ae18d923b0243",
      "assetIds": []
    },
    {
      "x": 145,
      "y": 394,
      "size": 1,
      "price": "1011000000000000000000",
      "reserved": "",
      "salt": "0xa1ed257a128a14d70422c34466bd44edeef779b380f503e190f968caf6147b7d",
      "assetIds": []
    },
    {
      "x": 145,
      "y": 395,
      "size": 1,
      "price": "1011000000000000000000",
      "reserved": "",
      "salt": "0x07227827a19bedf2b31247bc3f128cd944f852d84403fe9b7e8dc9beae4f34d0",
      "assetIds": []
    },
    {
      "x": 145,
      "y": 396,
      "size": 1,
      "price": "1011000000000000000000",
      "reserved": "",
      "salt": "0x1f25729c3dc0a111b096abeca7920f2b5640809cf92cac26ad1a5851b4aa95d9",
      "assetIds": []
    },
    {
      "x": 145,
      "y": 397,
      "size": 1,
      "price": "1011000000000000000000",
      "reserved": "",
      "salt": "0x502e2a5b660526bad6d722c8785d797acd7e4474df4c305751b47e7b2012e039",
      "assetIds": []
    },
    {
      "x": 145,
      "y": 398,
      "size": 1,
      "price": "1011000000000000000000",
      "reserved": "",
      "salt": "0x86d840c0a61a509de2af320d597e347d76728949ca704d2d08f248fd9ee7befb",
      "assetIds": []
    },
    {
      "x": 145,
      "y": 399,
      "size": 1,
      "price": "1011000000000000000000",
      "reserved": "0x7a9fe22691c811ea339d9b73150e6911a5343dca",
      "salt": "0x566ce5694ab9a1b3ed1a13d04f9de03c6774ce4c71fedc4827ffc695ac6029c5",
      "assetIds": []
    },
    {
      "x": 145,
      "y": 400,
      "size": 1,
      "price": "1011000000000000000000",
      "reserved": "",
      "salt": "0x4a0eec0625cbcaaff275eb07bb668f49d7ccf076fcef8a54c315c565d6f993c3",
      "assetIds": []
    },
    {
      "x": 145,
      "y": 401,
      "size": 1,
      "price": "1011000000000000000000",
      "reserved": "0x7a9fe22691c811ea339d9b73150e6911a5343dca",
      "salt": "0x72c983ce3db1447e2d7f3ec4724494637beeef96a15dc554e7abe138b2f50113",
      "assetIds": []
    },
    {
      "x": 145,
      "y": 402,
      "size": 1,
      "price": "4683000000000000000000",
      "reserved": "",
      "salt": "0x1ad6acae732263923351a2a940301f8498193f1db61a744c6bd6cb4b517027e0",
      "assetIds": [
        "41506478881403507969696680653240014914910929820314476107906210059990541021186"
      ]
    },
    {
      "x": 145,
      "y": 403,
      "size": 1,
      "price": "4683000000000000000000",
      "reserved": "",
      "salt": "0xcedba2211efa97e76d273053e35604e2db0410132e05b90509082244a7b9be17",
      "assetIds": [
        "41506478881403507969696680653240014914910929820314476107906210059990541021186"
      ]
    },
    {
      "x": 145,
      "y": 404,
      "size": 1,
      "price": "4683000000000000000000",
      "reserved": "",
      "salt": "0x2509e2288d2ccecf003c1871810818fa0b00578095213cecbe44e6f4fbaa4e84",
      "assetIds": [
        "41506478881403507969696680653240014914910929820314476107906210059990541021186"
      ]
    },
    {
      "x": 145,
      "y": 405,
      "size": 1,
      "price": "4683000000000000000000",
      "reserved": "",
      "salt": "0xbfa5ec2a77305b30e3c25bb6c79aac40abe5a603c1cb49c642769a2b8e5baba3",
      "assetIds": [
        "41506478881403507969696680653240014914910929820314476107906210059990541021186"
      ]
    },
    {
      "x": 145,
      "y": 406,
      "size": 1,
      "price": "4683000000000000000000",
      "reserved": "",
      "salt": "0xa766d0c53f2e89b345f09411b7d852483c23150df1ecb6d886c7a1c483931cab",
      "assetIds": [
        "41506478881403507969696680653240014914910929820314476107906210059990541021186"
      ]
    },
    {
      "x": 145,
      "y": 407,
      "size": 1,
      "price": "4683000000000000000000",
      "reserved": "",
      "salt": "0x65493d1bc3dec3282ddfdddaa3b67c64845bef891cac5656ffc7292af4d084b2",
      "assetIds": [
        "41506478881403507969696680653240014914910929820314476107906210059990541021186"
      ]
    },
    {
      "x": 146,
      "y": 346,
      "size": 1,
      "price": "1011000000000000000000",
      "reserved": "0x7a9fe22691c811ea339d9b73150e6911a5343dca",
      "salt": "0xb1466ba416eaee4b5f1416cf3076350096a9cc693be26a3231cd1d25e0539bf5",
      "assetIds": []
    },
    {
      "x": 146,
      "y": 347,
      "size": 1,
      "price": "1011000000000000000000",
      "reserved": "",
      "salt": "0x31f7dd56f3b3c1b8254d059fa694ac14b806298f0702ce071958d50b8d343beb",
      "assetIds": []
    },
    {
      "x": 146,
      "y": 348,
      "size": 1,
      "price": "1011000000000000000000",
      "reserved": "0x7a9fe22691c811ea339d9b73150e6911a5343dca",
      "salt": "0x56b028bff7b67e13993e86cebb1a30462727604c1349422866eed39ce1e391db",
      "assetIds": []
    },
    {
      "x": 146,
      "y": 349,
      "size": 1,
      "price": "1011000000000000000000",
      "reserved": "",
      "salt": "0x3b300a3f00d9b78d9baf021cb07530b90f21433789a3727fe78555e89d2e8c9b",
      "assetIds": []
    },
    {
      "x": 146,
      "y": 350,
      "size": 1,
      "price": "1011000000000000000000",
      "reserved": "",
      "salt": "0xc91ae4b37bf90f41b175909fe507015e05f1b1103797f1f52254c63734d5f861",
      "assetIds": []
    },
    {
      "x": 146,
      "y": 351,
      "size": 1,
      "price": "1011000000000000000000",
      "reserved": "",
      "salt": "0x3410c13f9c5a56b0c2beda23965f7ba0611365986e9d8f276e314786dde3c469",
      "assetIds": []
    },
    {
      "x": 146,
      "y": 352,
      "size": 1,
      "price": "1011000000000000000000",
      "reserved": "",
      "salt": "0x0171677bb87933a8af1083d53e1ea03f652d516a985e638a742ad77aa5fbfdda",
      "assetIds": []
    },
    {
      "x": 146,
      "y": 353,
      "size": 1,
      "price": "1011000000000000000000",
      "reserved": "",
      "salt": "0x4c953bdea30546a396855234655e638939fd6db2c1526150d4a72049f7b40bcb",
      "assetIds": []
    },
    {
      "x": 146,
      "y": 354,
      "size": 1,
      "price": "1011000000000000000000",
      "reserved": "",
      "salt": "0x3e8cc74e457ee9ab3ee55dc4f33609eb1e7acb5f0edc79ee312a5412f367c441",
      "assetIds": []
    },
    {
      "x": 146,
      "y": 355,
      "size": 1,
      "price": "1011000000000000000000",
      "reserved": "",
      "salt": "0xb6a100db0d2cfc062cf7f3cb7038f16ea8a39d4b546cc841fe120f9a6ae5a703",
      "assetIds": []
    },
    {
      "x": 146,
      "y": 356,
      "size": 1,
      "price": "1011000000000000000000",
      "reserved": "",
      "salt": "0x46a383f771a261ef9754d4a1622509e7646eda1f7f9c47359da28085583170fb",
      "assetIds": []
    },
    {
      "x": 146,
      "y": 357,
      "size": 1,
      "price": "1011000000000000000000",
      "reserved": "0x7a9fe22691c811ea339d9b73150e6911a5343dca",
      "salt": "0xe68b1b6213d84595059ec6f9f30df3cd6e06677d87b332753da8b58bf5039899",
      "assetIds": []
    },
    {
      "x": 146,
      "y": 358,
      "size": 1,
      "price": "1011000000000000000000",
      "reserved": "",
      "salt": "0x69066156bd81c390655858141977c3f5aa4d230237f364cc7d242ddb70ea42ec",
      "assetIds": []
    },
    {
      "x": 146,
      "y": 359,
      "size": 1,
      "price": "1011000000000000000000",
      "reserved": "",
      "salt": "0x7915ad7f39e973c969df0e1eff8b3d00dd8b7f58206dd81998a691aa32327ebb",
      "assetIds": []
    },
    {
      "x": 146,
      "y": 360,
      "size": 1,
      "price": "1011000000000000000000",
      "reserved": "",
      "salt": "0xc0d4965cdc86b74762df189a905d18c2d667924fcf98b928f296f97f78c106f3",
      "assetIds": []
    },
    {
      "x": 146,
      "y": 361,
      "size": 1,
      "price": "1011000000000000000000",
      "reserved": "",
      "salt": "0x506f99c745d6c11e02a613445c24f5cba6e2a7691ab30280afed0a2aac842c40",
      "assetIds": []
    },
    {
      "x": 146,
      "y": 362,
      "size": 1,
      "price": "1011000000000000000000",
      "reserved": "",
      "salt": "0xde62d16372c86ed26db99b77807005657239e1bd26947cd3922cf72e3b7bbe13",
      "assetIds": []
    },
    {
      "x": 146,
      "y": 366,
      "size": 1,
      "price": "1011000000000000000000",
      "reserved": "",
      "salt": "0xe7ac71b4e2619ae5ca64e9bd004aac2b933f64b0c41d43632768a407f7b638f5",
      "assetIds": []
    },
    {
      "x": 146,
      "y": 367,
      "size": 1,
      "price": "1011000000000000000000",
      "reserved": "",
      "salt": "0xc343972338bd727e49a7348277bb625d1faeba13881fba175c5e9d5ab45803cb",
      "assetIds": []
    },
    {
      "x": 146,
      "y": 368,
      "size": 1,
      "price": "1011000000000000000000",
      "reserved": "0x7a9fe22691c811ea339d9b73150e6911a5343dca",
      "salt": "0xd12bed4d3b83cff58c87a9597eeff10503aab8c18d4a4c1c21345487b547014b",
      "assetIds": []
    },
    {
      "x": 146,
      "y": 369,
      "size": 1,
      "price": "1011000000000000000000",
      "reserved": "",
      "salt": "0x82e41dfd23a1f74f53e0d4679c54471c2c6b5cbbc16a34aa63278bcdb6e6b36b",
      "assetIds": []
    },
    {
      "x": 146,
      "y": 370,
      "size": 1,
      "price": "1011000000000000000000",
      "reserved": "",
      "salt": "0x7c29f947399025b11e8bfceb8e7a774ec0f0e474aeb00000dce721dd8131f3e7",
      "assetIds": []
    },
    {
      "x": 146,
      "y": 371,
      "size": 1,
      "price": "1011000000000000000000",
      "reserved": "0x7a9fe22691c811ea339d9b73150e6911a5343dca",
      "salt": "0xb0eb70913853b313d30ee5362e202a8a938c89a18b1a3501f7bf5e7782620c4a",
      "assetIds": []
    },
    {
      "x": 146,
      "y": 372,
      "size": 1,
      "price": "1011000000000000000000",
      "reserved": "",
      "salt": "0x3bda3905f4f6270789aaf82d54382c3aa976068c31cafc77cd315c8b72509aab",
      "assetIds": []
    },
    {
      "x": 146,
      "y": 373,
      "size": 1,
      "price": "1011000000000000000000",
      "reserved": "",
      "salt": "0x3f245a6cde901dad5a4fdeb78ee6a3accacdce4160d5cd8032200c999e01c3ce",
      "assetIds": []
    },
    {
      "x": 146,
      "y": 374,
      "size": 1,
      "price": "1011000000000000000000",
      "reserved": "0x7a9fe22691c811ea339d9b73150e6911a5343dca",
      "salt": "0x102ef2ee621d671feb9fa8e13bb78d528c72085b85c22cb9bf4949c119b6a33a",
      "assetIds": []
    },
    {
      "x": 146,
      "y": 375,
      "size": 1,
      "price": "1011000000000000000000",
      "reserved": "",
      "salt": "0xf004d1d1197d7c5a2186306cea25f99f1c8d339d51b7c912d4648d847fe316c1",
      "assetIds": []
    },
    {
      "x": 146,
      "y": 376,
      "size": 1,
      "price": "1011000000000000000000",
      "reserved": "0x7a9fe22691c811ea339d9b73150e6911a5343dca",
      "salt": "0x44bc9b12aa8cf4240eb0a4922729a555a24654baadc1b21757fa4465cd568ee1",
      "assetIds": []
    },
    {
      "x": 146,
      "y": 377,
      "size": 1,
      "price": "1011000000000000000000",
      "reserved": "",
      "salt": "0x79fc81991cf84ecbd2a3f0cb9e91ae15f3ddd37282b9c8d348644fd035d2dd33",
      "assetIds": []
    },
    {
      "x": 146,
      "y": 378,
      "size": 1,
      "price": "1011000000000000000000",
      "reserved": "0x7a9fe22691c811ea339d9b73150e6911a5343dca",
      "salt": "0xdda340da84424b62a1fbad0956d7b26a5bff2538621fde44ed3146e58c261b3a",
      "assetIds": []
    },
    {
      "x": 146,
      "y": 379,
      "size": 1,
      "price": "1011000000000000000000",
      "reserved": "",
      "salt": "0x971de3399691c9638fc19baec2280104bd023afc6a9a34775bb572fb41d72551",
      "assetIds": []
    },
    {
      "x": 146,
      "y": 380,
      "size": 1,
      "price": "1011000000000000000000",
      "reserved": "0x7a9fe22691c811ea339d9b73150e6911a5343dca",
      "salt": "0xbbe7616660903ec3a5e5eeacdcfc48353ad79e9f785109dd4d60ea922112adcd",
      "assetIds": []
    },
    {
      "x": 146,
      "y": 381,
      "size": 1,
      "price": "1011000000000000000000",
      "reserved": "",
      "salt": "0x85c46f8742193444e00f3cb165471f5f1c5ff1ad91aa7777b89b97ee79d6b202",
      "assetIds": []
    },
    {
      "x": 146,
      "y": 382,
      "size": 1,
      "price": "1011000000000000000000",
      "reserved": "",
      "salt": "0x07087a8295ba36927f36b08518ffde0513fe0cb1eeb870826d1208b5a5fe0807",
      "assetIds": []
    },
    {
      "x": 146,
      "y": 383,
      "size": 1,
      "price": "1011000000000000000000",
      "reserved": "",
      "salt": "0x278fe05f8cb13a0c2ffc2a0e5265851b52af2522efc2a0ab73bdc9bfaf8255ae",
      "assetIds": []
    },
    {
      "x": 146,
      "y": 384,
      "size": 1,
      "price": "4683000000000000000000",
      "reserved": "",
      "salt": "0xa13a35561c093511ca1782cf45ed2ba26f6fa252235ee12fe88bbd0e5301e3fc",
      "assetIds": [
        "41506478881403507969696680653240014914910929820314476107906210059990541021186"
      ]
    },
    {
      "x": 146,
      "y": 385,
      "size": 1,
      "price": "1011000000000000000000",
      "reserved": "",
      "salt": "0xaed6372f00ac3274d6235c620c9c3239d96bfef6f3e8dec0204eb09f41dc8416",
      "assetIds": []
    },
    {
      "x": 146,
      "y": 386,
      "size": 1,
      "price": "1011000000000000000000",
      "reserved": "",
      "salt": "0x17999fe663e38df07b4fd9ae5a3470b187abb1ca1e34c84db7a3094ee238a695",
      "assetIds": []
    },
    {
      "x": 146,
      "y": 387,
      "size": 1,
      "price": "1011000000000000000000",
      "reserved": "",
      "salt": "0x11d34b383f0b15622227fb99f805cde3611ebbf6a56ddb60f5ef8b4966e8c6ea",
      "assetIds": []
    },
    {
      "x": 146,
      "y": 388,
      "size": 1,
      "price": "1011000000000000000000",
      "reserved": "",
      "salt": "0xddd36749e0ea60974c64d20b5888b2f00a590e949241823d07291e0af7ce2ad4",
      "assetIds": []
    },
    {
      "x": 146,
      "y": 389,
      "size": 1,
      "price": "1011000000000000000000",
      "reserved": "",
      "salt": "0x8253e04952d907ea47e05ff41043290f2efdecdeccdb6447b7432c8e1deb263c",
      "assetIds": []
    },
    {
      "x": 146,
      "y": 390,
      "size": 1,
      "price": "1011000000000000000000",
      "reserved": "",
      "salt": "0xce8655cd29a13fb22aeafe9ad2407a894d1aefb9f6459f10d20a587e5edf3fd0",
      "assetIds": []
    },
    {
      "x": 146,
      "y": 391,
      "size": 1,
      "price": "1011000000000000000000",
      "reserved": "",
      "salt": "0xea4548c3523583fabf2b4440802079acf0c91db96e13de5081d5624053af07c0",
      "assetIds": []
    },
    {
      "x": 146,
      "y": 392,
      "size": 1,
      "price": "1011000000000000000000",
      "reserved": "",
      "salt": "0xc74652fcb7cfa748a32fe89ee8335500bc8fa64fb5fc44352f3ecf62675c8f47",
      "assetIds": []
    },
    {
      "x": 146,
      "y": 393,
      "size": 1,
      "price": "1011000000000000000000",
      "reserved": "0x7a9fe22691c811ea339d9b73150e6911a5343dca",
      "salt": "0x3208547dcd2b7be08d6019259097c9099aa73c2d4576d7e0e9d2358952cb93b0",
      "assetIds": []
    },
    {
      "x": 146,
      "y": 394,
      "size": 1,
      "price": "1011000000000000000000",
      "reserved": "",
      "salt": "0x02a852582bc0bae89f6cd1dcadfc604b1eec682be59833abfee1d348e5bc8938",
      "assetIds": []
    },
    {
      "x": 146,
      "y": 395,
      "size": 1,
      "price": "1011000000000000000000",
      "reserved": "",
      "salt": "0x6af46f98c297618722995bdf035847ebaf1b9030024bb51c70ea3bb75dcd045e",
      "assetIds": []
    },
    {
      "x": 146,
      "y": 396,
      "size": 1,
      "price": "1011000000000000000000",
      "reserved": "0x7a9fe22691c811ea339d9b73150e6911a5343dca",
      "salt": "0x923d78f7b6d3a1605a7f6881ba71fa741690a8e90ec3689d73f8c6507a69cb67",
      "assetIds": []
    },
    {
      "x": 146,
      "y": 397,
      "size": 1,
      "price": "1011000000000000000000",
      "reserved": "",
      "salt": "0xed1fbbb265eb241cd7e9459b4dda7ccd3230deedd1e1c767748160522580ba43",
      "assetIds": []
    },
    {
      "x": 146,
      "y": 398,
      "size": 1,
      "price": "1011000000000000000000",
      "reserved": "0x7a9fe22691c811ea339d9b73150e6911a5343dca",
      "salt": "0xdcaf4065fc09febc389fddeb154e9f3bb6879f7e8ed26faf5a16d90ba888218f",
      "assetIds": []
    },
    {
      "x": 146,
      "y": 399,
      "size": 1,
      "price": "1011000000000000000000",
      "reserved": "",
      "salt": "0x9e8d43ca3cc387fee23411e376ce070b924aff664aa9e68e9f641d034d09d7a9",
      "assetIds": []
    },
    {
      "x": 146,
      "y": 400,
      "size": 1,
      "price": "1011000000000000000000",
      "reserved": "",
      "salt": "0x3e1ce15881570ab57439b148cfcb26ce371b42e74925d3aaa7599bb077d0fac8",
      "assetIds": []
    },
    {
      "x": 146,
      "y": 401,
      "size": 1,
      "price": "1011000000000000000000",
      "reserved": "",
      "salt": "0x40856078a65a75fc959b59c4bd249c286f5ed7cb35dc1764042f76e94e40eecb",
      "assetIds": []
    },
    {
      "x": 146,
      "y": 402,
      "size": 1,
      "price": "1011000000000000000000",
      "reserved": "0x7a9fe22691c811ea339d9b73150e6911a5343dca",
      "salt": "0x8dea158021e59da4390171507fd43f34295c74b7e5e580e0f5cfdf5d0cee4621",
      "assetIds": []
    },
    {
      "x": 146,
      "y": 403,
      "size": 1,
      "price": "1011000000000000000000",
      "reserved": "",
      "salt": "0xd15cdb78e2017eb2d7e75e073b31fbb75792a13e289222fd3b2b3f222e10c89a",
      "assetIds": []
    },
    {
      "x": 146,
      "y": 404,
      "size": 1,
      "price": "1011000000000000000000",
      "reserved": "0x7a9fe22691c811ea339d9b73150e6911a5343dca",
      "salt": "0xca28183d5f321e76abe00ac5c26eb2e9ab892e33a18837917cb47f6167bd2671",
      "assetIds": []
    },
    {
      "x": 146,
      "y": 405,
      "size": 1,
      "price": "1011000000000000000000",
      "reserved": "",
      "salt": "0x91516353ee2e863f90adb580731e33f24eba0a848d1057b6766d4386ddc18def",
      "assetIds": []
    },
    {
      "x": 146,
      "y": 406,
      "size": 1,
      "price": "1011000000000000000000",
      "reserved": "",
      "salt": "0x4c6a70b3adf96860555508a1ce28e51986b656a22f95a6a1f0641417221e28c2",
      "assetIds": []
    },
    {
      "x": 146,
      "y": 407,
      "size": 1,
      "price": "1011000000000000000000",
      "reserved": "",
      "salt": "0xb2ba78dd4b286c46db5fdb2bf03ffc4c878e6cc0e08ee4e95c385f6f83b88dcc",
      "assetIds": []
    },
    {
      "x": 147,
      "y": 351,
      "size": 1,
      "price": "1011000000000000000000",
      "reserved": "0x7a9fe22691c811ea339d9b73150e6911a5343dca",
      "salt": "0x1c1d2fa68bbb074f0cda334b6e6bfd1aead5dda802f5398d0dc7fe2c1e1b8cad",
      "assetIds": []
    },
    {
      "x": 147,
      "y": 352,
      "size": 1,
      "price": "1011000000000000000000",
      "reserved": "",
      "salt": "0xda4333f2e0746873ec88eae292043d4357147c201a7ee666f8b3152961d4f1e6",
      "assetIds": []
    },
    {
      "x": 147,
      "y": 353,
      "size": 1,
      "price": "1011000000000000000000",
      "reserved": "",
      "salt": "0xd833f3447ac7d39cbb14c0ae611d11c3a2f7c4cd2ea81bfccc24b8ae7f849d0a",
      "assetIds": []
    },
    {
      "x": 147,
      "y": 354,
      "size": 1,
      "price": "1011000000000000000000",
      "reserved": "",
      "salt": "0x525c4b822a065b6aa69787ff80fd56a18a046c4a1a15d0f2ba23f8f1f06fe6d3",
      "assetIds": []
    },
    {
      "x": 147,
      "y": 355,
      "size": 1,
      "price": "1011000000000000000000",
      "reserved": "0x7a9fe22691c811ea339d9b73150e6911a5343dca",
      "salt": "0xc7248df4d3e73ef6d1a59aafc7072a0227d4567bf3df444e2ccbbe0826ff9394",
      "assetIds": []
    },
    {
      "x": 147,
      "y": 356,
      "size": 1,
      "price": "1011000000000000000000",
      "reserved": "",
      "salt": "0xb55b8dc297a90c2d542859b60c2b6fb076dcf572707b7856ad103db0aaa64ae3",
      "assetIds": []
    },
    {
      "x": 147,
      "y": 357,
      "size": 1,
      "price": "1011000000000000000000",
      "reserved": "",
      "salt": "0xa1d13eaaed4fc90059420e610f77fa694e89a428e9242540d398221b0a41a94a",
      "assetIds": []
    },
    {
      "x": 147,
      "y": 358,
      "size": 1,
      "price": "1011000000000000000000",
      "reserved": "",
      "salt": "0x19c92f0dd362350ea63eefd74ff13ebd053fe6cb379ae29f7da1814a329b33a4",
      "assetIds": []
    },
    {
      "x": 147,
      "y": 359,
      "size": 1,
      "price": "1011000000000000000000",
      "reserved": "",
      "salt": "0x17e018076202e7a81d647fa4cd42a6cfde41bc35fc271255c8843784bc68186f",
      "assetIds": []
    },
    {
      "x": 147,
      "y": 360,
      "size": 1,
      "price": "1011000000000000000000",
      "reserved": "",
      "salt": "0x974a6a199b870bdae18ce6e66f451d24afd6e486a1d0ce708bc1689626af471a",
      "assetIds": []
    },
    {
      "x": 147,
      "y": 361,
      "size": 1,
      "price": "1011000000000000000000",
      "reserved": "0x7a9fe22691c811ea339d9b73150e6911a5343dca",
      "salt": "0xcce749e04d5209bb47b5fe9cfd3434368470cb317faf85c9bbb83cd95298bbc9",
      "assetIds": []
    },
    {
      "x": 147,
      "y": 362,
      "size": 1,
      "price": "1011000000000000000000",
      "reserved": "",
      "salt": "0x117334fb1771ab62cea195886bdb722fa011d2f619f97359fa60f4364bdf5359",
      "assetIds": []
    },
    {
      "x": 147,
      "y": 363,
      "size": 1,
      "price": "1011000000000000000000",
      "reserved": "0x7a9fe22691c811ea339d9b73150e6911a5343dca",
      "salt": "0xc2ad5ee32ac349ba105afdc896b545043bc8f09ec6f7378625264587e879c31e",
      "assetIds": []
    },
    {
      "x": 147,
      "y": 364,
      "size": 1,
      "price": "1011000000000000000000",
      "reserved": "",
      "salt": "0x50d944f71bfe266c8ffeb1a4324f0fd6fad42a88dc8351672492dc4d8bc6e920",
      "assetIds": []
    },
    {
      "x": 147,
      "y": 365,
      "size": 1,
      "price": "1011000000000000000000",
      "reserved": "0x7a9fe22691c811ea339d9b73150e6911a5343dca",
      "salt": "0x2a8bdd7ebe4d7b65018b73b24dad907c82d856276b900b8b8e4a578190b8ccee",
      "assetIds": []
    },
    {
      "x": 147,
      "y": 366,
      "size": 1,
      "price": "1011000000000000000000",
      "reserved": "",
      "salt": "0xc475cd7f736eef9d99105558f17a7d0832e16ce3813f77fdd1df71c30d7f33b1",
      "assetIds": []
    },
    {
      "x": 147,
      "y": 367,
      "size": 1,
      "price": "1011000000000000000000",
      "reserved": "",
      "salt": "0xaccf0e2362be0679cd9f13884bf7849744a5c64c32dae6ea2aae3995c72632d9",
      "assetIds": []
    },
    {
      "x": 147,
      "y": 368,
      "size": 1,
      "price": "1011000000000000000000",
      "reserved": "",
      "salt": "0x1102c964ae85eed9314162594a4346f888b57961205607d78aefa121554600fb",
      "assetIds": []
    },
    {
      "x": 147,
      "y": 369,
      "size": 1,
      "price": "1011000000000000000000",
      "reserved": "",
      "salt": "0xf0f789e134b138c51067103c63e92c15c5dde937a7ac00740323b338ce659b66",
      "assetIds": []
    },
    {
      "x": 147,
      "y": 370,
      "size": 1,
      "price": "1011000000000000000000",
      "reserved": "0x7a9fe22691c811ea339d9b73150e6911a5343dca",
      "salt": "0x39f3691e5d588e919348ec30820603d076b0c701860703da05a0ff3db31b7729",
      "assetIds": []
    },
    {
      "x": 147,
      "y": 371,
      "size": 1,
      "price": "1011000000000000000000",
      "reserved": "",
      "salt": "0xf1ce8082fbe3e657a47951c59bcb8eddf1af3dd1154f4f68276ad0640ff9f810",
      "assetIds": []
    },
    {
      "x": 147,
      "y": 375,
      "size": 1,
      "price": "1011000000000000000000",
      "reserved": "",
      "salt": "0x6256ccf219e85d0de73c42a33e3b63fc8fd83d2727b0bb187c65f8cf57613724",
      "assetIds": []
    },
    {
      "x": 147,
      "y": 376,
      "size": 1,
      "price": "1011000000000000000000",
      "reserved": "",
      "salt": "0x061cc1a7c4f8a44749a543d83a2ed8866599f9eafef910adcf591ab6b5383af1",
      "assetIds": []
    },
    {
      "x": 147,
      "y": 377,
      "size": 1,
      "price": "1011000000000000000000",
      "reserved": "",
      "salt": "0x375b774533514f871d285e3a6202728d0b6b6da6ca8493b5365475bffdb8035f",
      "assetIds": []
    },
    {
      "x": 147,
      "y": 378,
      "size": 1,
      "price": "1011000000000000000000",
      "reserved": "",
      "salt": "0x843ef7e707b8480b5e243feb7c864f6a030a19e27cd01f8dd816df3c6dc912ea",
      "assetIds": []
    },
    {
      "x": 147,
      "y": 379,
      "size": 1,
      "price": "1011000000000000000000",
      "reserved": "",
      "salt": "0x0882b521b8e61ea0a6168143b81ab0cb094f46f4d85e5cd98289fe24ad300920",
      "assetIds": []
    },
    {
      "x": 147,
      "y": 380,
      "size": 1,
      "price": "1011000000000000000000",
      "reserved": "",
      "salt": "0x64673f2b2cfabc25c66ae932c0c965e6fc13c79d1c75840f74db8be291472123",
      "assetIds": []
    },
    {
      "x": 147,
      "y": 381,
      "size": 1,
      "price": "1011000000000000000000",
      "reserved": "",
      "salt": "0xd4200bc6a67147673573b3ce36b9eb2fcded67fe8c3f6d66a381f8d600c2a867",
      "assetIds": []
    },
    {
      "x": 147,
      "y": 382,
      "size": 1,
      "price": "1011000000000000000000",
      "reserved": "0x7a9fe22691c811ea339d9b73150e6911a5343dca",
      "salt": "0x330439bdd6e221f88d4a366499754982a12a7ebb130b6040970fc598f6a5bc58",
      "assetIds": []
    },
    {
      "x": 147,
      "y": 383,
      "size": 1,
      "price": "1011000000000000000000",
      "reserved": "0x7a9fe22691c811ea339d9b73150e6911a5343dca",
      "salt": "0xb53aff14cc69b4521e059c9db948b7e60b5ebc9025537c565d8b55364ae343df",
      "assetIds": []
    },
    {
      "x": 147,
      "y": 384,
      "size": 1,
      "price": "1011000000000000000000",
      "reserved": "0x7a9fe22691c811ea339d9b73150e6911a5343dca",
      "salt": "0x551c40ba727f68655a8141f3b25dd1a0015b2055ecdc6570e8afd74bad48367b",
      "assetIds": []
    },
    {
      "x": 147,
      "y": 385,
      "size": 1,
      "price": "1011000000000000000000",
      "reserved": "",
      "salt": "0x87def4065b24f63c76228aa520824b867ea71525a0b2f8f626186ca2a15ed50a",
      "assetIds": []
    },
    {
      "x": 147,
      "y": 386,
      "size": 1,
      "price": "1011000000000000000000",
      "reserved": "",
      "salt": "0xd451fb88aebd796fd0d54807527981e3b11ed1d31a8bb5cd79f670c86c5299ee",
      "assetIds": []
    },
    {
      "x": 147,
      "y": 387,
      "size": 1,
      "price": "1011000000000000000000",
      "reserved": "",
      "salt": "0x53c8617a55ea26b76311e5a3dec9a5a2aec715a71417d974a500557e4df19d31",
      "assetIds": []
    },
    {
      "x": 147,
      "y": 388,
      "size": 1,
      "price": "1011000000000000000000",
      "reserved": "",
      "salt": "0xd0eb6b569a8c8eaca479cfdaf4c4a955db08cd998678d9baa677d9fd4448b585",
      "assetIds": []
    },
    {
      "x": 147,
      "y": 389,
      "size": 1,
      "price": "4683000000000000000000",
      "reserved": "",
      "salt": "0x906ce23be85938f0b6b6a2b742ea55db44eb2cfbc58a095d4579963c27e6854c",
      "assetIds": [
        "41506478881403507969696680653240014914910929820314476107906210059990541021186"
      ]
    },
    {
      "x": 147,
      "y": 390,
      "size": 1,
      "price": "1011000000000000000000",
      "reserved": "",
      "salt": "0xd7854950fa140a5a075aadb33805f54613409946ddc2fb52b71e3bf62fd2360c",
      "assetIds": []
    },
    {
      "x": 147,
      "y": 391,
      "size": 1,
      "price": "1011000000000000000000",
      "reserved": "0x7a9fe22691c811ea339d9b73150e6911a5343dca",
      "salt": "0x19474faa2c3a0fe57c35267b245fe825b30027f841dbcbec1dc4447001533380",
      "assetIds": []
    },
    {
      "x": 147,
      "y": 392,
      "size": 1,
      "price": "1011000000000000000000",
      "reserved": "",
      "salt": "0x3f4e9c968d49361cfe1a11040440fa999436c42d36ccf4ba0bd857e1585e965a",
      "assetIds": []
    },
    {
      "x": 147,
      "y": 393,
      "size": 1,
      "price": "1011000000000000000000",
      "reserved": "",
      "salt": "0xfea53aabc54146655b9cdcb288d485d15d97861e0e7a1c5141d2b45f2589dd62",
      "assetIds": []
    },
    {
      "x": 147,
      "y": 394,
      "size": 1,
      "price": "1011000000000000000000",
      "reserved": "",
      "salt": "0x7db882a2ed1111f3ac8bf0393ad13f6d5e42b5cd6633bb3f7c8361503e925378",
      "assetIds": []
    },
    {
      "x": 147,
      "y": 395,
      "size": 1,
      "price": "1011000000000000000000",
      "reserved": "0x7a9fe22691c811ea339d9b73150e6911a5343dca",
      "salt": "0x568fd5533e1477c185cd3edbdf648dd9fe3cceb5f9b6b90e4e9083716c77ff9c",
      "assetIds": []
    },
    {
      "x": 147,
      "y": 396,
      "size": 1,
      "price": "1011000000000000000000",
      "reserved": "",
      "salt": "0x4eb4d4e8e566013c36670602fd6eeb11dfd9651154e34f11499b7c16f9559b15",
      "assetIds": []
    },
    {
      "x": 147,
      "y": 397,
      "size": 1,
      "price": "1011000000000000000000",
      "reserved": "",
      "salt": "0x82a936ce7b1c1bc0daa8899c7cd7b1d34ccfd5514ca89e33b699d517527fdbce",
      "assetIds": []
    },
    {
      "x": 147,
      "y": 398,
      "size": 1,
      "price": "1011000000000000000000",
      "reserved": "",
      "salt": "0x6414d6ec02ad5bfe15da4f16c654220807f656b0002f829b4a720478f55cabb1",
      "assetIds": []
    },
    {
      "x": 147,
      "y": 399,
      "size": 1,
      "price": "1011000000000000000000",
      "reserved": "0x7a9fe22691c811ea339d9b73150e6911a5343dca",
      "salt": "0xdad9e115dc5ab9bfee332749fdc64643d0a74aedbee9524288ab0a41258f3887",
      "assetIds": []
    },
    {
      "x": 147,
      "y": 400,
      "size": 1,
      "price": "1011000000000000000000",
      "reserved": "",
      "salt": "0x0ed094290fc53d64c6ff4fd9bf2d258b24e3c141760a2952ad45d0b02966222a",
      "assetIds": []
    },
    {
      "x": 147,
      "y": 401,
      "size": 1,
      "price": "1011000000000000000000",
      "reserved": "",
      "salt": "0x1753127622c2c6a90aa2d6578f7084ffa02e6901f70fbf8d85582d6ad64e3497",
      "assetIds": []
    },
    {
      "x": 147,
      "y": 402,
      "size": 1,
      "price": "1011000000000000000000",
      "reserved": "",
      "salt": "0x2665cb89bc77d9709ef7cc0c8cb874f7de62827cbdf69513eb348b1e1fd78735",
      "assetIds": []
    },
    {
      "x": 147,
      "y": 403,
      "size": 1,
      "price": "1011000000000000000000",
      "reserved": "",
      "salt": "0x8820dfea7f8c5348842efc5969b0d2b330fdf2f13dd2c7465569ba174db37e3c",
      "assetIds": []
    },
    {
      "x": 147,
      "y": 404,
      "size": 1,
      "price": "1011000000000000000000",
      "reserved": "",
      "salt": "0x6d45359fbe10b029c2f4ba1f2ce86a8a3d10b073a8271b5c4e6cf939d936ac4c",
      "assetIds": []
    },
    {
      "x": 147,
      "y": 405,
      "size": 1,
      "price": "1011000000000000000000",
      "reserved": "",
      "salt": "0xfb113a0f66978e5da67d1bd6290d4e2bea5617eb9de23b682dae129ae1af4afe",
      "assetIds": []
    },
    {
      "x": 147,
      "y": 406,
      "size": 1,
      "price": "1011000000000000000000",
      "reserved": "",
      "salt": "0x9ba25a747fe3899829d1a59b98bde150655cf1c2a193f106e7c135549817e739",
      "assetIds": []
    },
    {
      "x": 147,
      "y": 407,
      "size": 1,
      "price": "1011000000000000000000",
      "reserved": "",
      "salt": "0x42cf3df2569fb6b363c56af14d949afec3b21e1978812d6f7e80447261d13a8e",
      "assetIds": []
    },
    {
      "x": 148,
      "y": 352,
      "size": 1,
      "price": "1011000000000000000000",
      "reserved": "",
      "salt": "0xe4d2d710b4a149223d6943121607467ad8d289f885b5e0a92e207cb3a48f89a4",
      "assetIds": []
    },
    {
      "x": 148,
      "y": 353,
      "size": 1,
      "price": "1011000000000000000000",
      "reserved": "",
      "salt": "0xa080a65b7bcacf0d3a70ed8648cf3ca2b38ac3307c9b096afe568dc5d77f43a6",
      "assetIds": []
    },
    {
      "x": 148,
      "y": 354,
      "size": 1,
      "price": "1011000000000000000000",
      "reserved": "",
      "salt": "0x809cab7bfb9bb8113722fe438033eaed0ff83bfe8c538cbea643cc0dd6066254",
      "assetIds": []
    },
    {
      "x": 148,
      "y": 355,
      "size": 1,
      "price": "1011000000000000000000",
      "reserved": "",
      "salt": "0xb3deb2a90bf097245a9980cdd6861df61c67055018fc14e2c7173abf0a6fdd0f",
      "assetIds": []
    },
    {
      "x": 148,
      "y": 356,
      "size": 1,
      "price": "1011000000000000000000",
      "reserved": "",
      "salt": "0x305c8bb6ccdb0d16aede0eb473b900735c2c9ef44ec8d06c5059433c86629520",
      "assetIds": []
    },
    {
      "x": 148,
      "y": 357,
      "size": 1,
      "price": "1011000000000000000000",
      "reserved": "",
      "salt": "0xef445fd5f243ca6fbe9559e06d3b45be8f5cffcdee36cb7898fddd7397098158",
      "assetIds": []
    },
    {
      "x": 148,
      "y": 358,
      "size": 1,
      "price": "1011000000000000000000",
      "reserved": "",
      "salt": "0xf34711b3a208505373815bfe4cbe9c55cce5735ab42af00c721167a8c3189ee1",
      "assetIds": []
    },
    {
      "x": 148,
      "y": 359,
      "size": 1,
      "price": "1011000000000000000000",
      "reserved": "",
      "salt": "0xe4aab918ad76aed62288cd37723d5d1d488de40022695480ac6906ec9864ab88",
      "assetIds": []
    },
    {
      "x": 148,
      "y": 360,
      "size": 1,
      "price": "1011000000000000000000",
      "reserved": "0x7a9fe22691c811ea339d9b73150e6911a5343dca",
      "salt": "0xae13b84f1a0330ee69ce0eb99198b493d63baf7c21998338344e9d966dc6a74b",
      "assetIds": []
    },
    {
      "x": 148,
      "y": 361,
      "size": 1,
      "price": "1011000000000000000000",
      "reserved": "",
      "salt": "0xa96d91f7037aff9dc337db4c99a2a47318be36f40caf0f5165b6d5b014f18c40",
      "assetIds": []
    },
    {
      "x": 148,
      "y": 362,
      "size": 1,
      "price": "1011000000000000000000",
      "reserved": "0x7a9fe22691c811ea339d9b73150e6911a5343dca",
      "salt": "0xe9a39b44d92526548476efe8f48e476e45d05c836c1fc7863e61d58141f06f99",
      "assetIds": []
    },
    {
      "x": 148,
      "y": 363,
      "size": 1,
      "price": "1011000000000000000000",
      "reserved": "",
      "salt": "0x94c0d13f3321e3eb5c56977f830518ef4c5c86ff7dfba14ef06f15df948d6525",
      "assetIds": []
    },
    {
      "x": 148,
      "y": 364,
      "size": 1,
      "price": "1011000000000000000000",
      "reserved": "0x7a9fe22691c811ea339d9b73150e6911a5343dca",
      "salt": "0x30b42577f39320f25c72e9e94b449e0957f087fed6c3688a1c5bf245ecdf4b90",
      "assetIds": []
    },
    {
      "x": 148,
      "y": 365,
      "size": 1,
      "price": "4683000000000000000000",
      "reserved": "",
      "salt": "0x45cf40ea13bbbdedadd038be97b5878238bbf582181ba3aa74dc259c22bb51a5",
      "assetIds": [
        "41506478881403507969696680653240014914910929820314476107906210059990541021186"
      ]
    },
    {
      "x": 148,
      "y": 366,
      "size": 1,
      "price": "1011000000000000000000",
      "reserved": "0x7a9fe22691c811ea339d9b73150e6911a5343dca",
      "salt": "0xc5c69c5e10fc4b597f651496837ebc87403d23db42d5c3f6917fd3cbe2865fce",
      "assetIds": []
    },
    {
      "x": 148,
      "y": 367,
      "size": 1,
      "price": "1011000000000000000000",
      "reserved": "",
      "salt": "0xcc98a1587eacc47af7a9c47df650c2b69f89b8c7acdd72a6b8c0de6ed026731d",
      "assetIds": []
    },
    {
      "x": 148,
      "y": 368,
      "size": 1,
      "price": "1011000000000000000000",
      "reserved": "",
      "salt": "0x495db243a60055e41c89c0e2034bdfc65720fa8d16876005b398936bb3696eb8",
      "assetIds": []
    },
    {
      "x": 148,
      "y": 369,
      "size": 1,
      "price": "4683000000000000000000",
      "reserved": "",
      "salt": "0xa2ddbaf18d9a30b2fc45f82987f879bf1dcda1eb3c03b1b6288293a829c1caf4",
      "assetIds": [
        "41506478881403507969696680653240014914910929820314476107906210059990541021186"
      ]
    },
    {
      "x": 148,
      "y": 370,
      "size": 1,
      "price": "1011000000000000000000",
      "reserved": "0x7a9fe22691c811ea339d9b73150e6911a5343dca",
      "salt": "0x7aea19e69bccf2d4fefd39540ebd76ff48923ecc6076f6d74bff9f8e3bf32cfd",
      "assetIds": []
    },
    {
      "x": 148,
      "y": 371,
      "size": 1,
      "price": "4683000000000000000000",
      "reserved": "",
      "salt": "0x03e706ec5335609eda467833b2f687cf75fd229bfa7fffe5b4f9db002b4a8490",
      "assetIds": [
        "41506478881403507969696680653240014914910929820314476107906210059990541021186"
      ]
    },
    {
      "x": 148,
      "y": 375,
      "size": 1,
      "price": "1011000000000000000000",
      "reserved": "0x7a9fe22691c811ea339d9b73150e6911a5343dca",
      "salt": "0x7a39be03abfa5d6b08b25d0f497bb21e1895259950d01032be2210ff22668c4d",
      "assetIds": []
    },
    {
      "x": 148,
      "y": 376,
      "size": 1,
      "price": "1011000000000000000000",
      "reserved": "",
      "salt": "0xd32bd3ba151c1e516e18faf53ea806e3f2b9b42439e863d8be1cd5e43604eba7",
      "assetIds": []
    },
    {
      "x": 148,
      "y": 377,
      "size": 1,
      "price": "1011000000000000000000",
      "reserved": "0x7a9fe22691c811ea339d9b73150e6911a5343dca",
      "salt": "0x52381d4fbb19e64515589143cb2fb61a8aa8c5ed3c077d6e80a6466d2824bb99",
      "assetIds": []
    },
    {
      "x": 148,
      "y": 378,
      "size": 1,
      "price": "1011000000000000000000",
      "reserved": "",
      "salt": "0x85443906d8e83bd62c600a1a794e4df984bcd8bfb9df80358633f46ed451bb4a",
      "assetIds": []
    },
    {
      "x": 148,
      "y": 379,
      "size": 1,
      "price": "1011000000000000000000",
      "reserved": "",
      "salt": "0x1c2ae8ea1d5fdbd585e47cb0de04472c5f74d46e813f75635da7bfd4a035c792",
      "assetIds": []
    },
    {
      "x": 148,
      "y": 380,
      "size": 1,
      "price": "1011000000000000000000",
      "reserved": "",
      "salt": "0x59ae080d7480eefeb46831560ab99d14e47a5a1083704d1719cd949422d9ee38",
      "assetIds": []
    },
    {
      "x": 148,
      "y": 381,
      "size": 1,
      "price": "1011000000000000000000",
      "reserved": "",
      "salt": "0x785a82d842473264b3cd6a74a7ff8523f4685589412c55382f643c5fc1f2a2d3",
      "assetIds": []
    },
    {
      "x": 148,
      "y": 382,
      "size": 1,
      "price": "1011000000000000000000",
      "reserved": "",
      "salt": "0x90f88ad83daf717ca2b7a60449e5d8f02b848329dfe6553c28587eaefa849690",
      "assetIds": []
    },
    {
      "x": 148,
      "y": 383,
      "size": 1,
      "price": "1011000000000000000000",
      "reserved": "",
      "salt": "0xf531082aadb380f50c021840a2ab7cc8e557ece8d60b58af4d616e8908c9bd4d",
      "assetIds": []
    },
    {
      "x": 148,
      "y": 384,
      "size": 1,
      "price": "1011000000000000000000",
      "reserved": "",
      "salt": "0x25f36f97c2b33e83587c49f6a368042692f90c9ba45e44e93a53b0cc9a71761f",
      "assetIds": []
    },
    {
      "x": 148,
      "y": 385,
      "size": 1,
      "price": "1011000000000000000000",
      "reserved": "",
      "salt": "0xefabbe9a3ec7fc363511e89eb3f8ef63bb8eab9d142716a038e39154c01aa8c8",
      "assetIds": []
    },
    {
      "x": 148,
      "y": 386,
      "size": 1,
      "price": "1011000000000000000000",
      "reserved": "",
      "salt": "0xc4a8078a743b0e114309253e608c051ad209495494030924a02bb9708b1a4801",
      "assetIds": []
    },
    {
      "x": 148,
      "y": 387,
      "size": 1,
      "price": "1011000000000000000000",
      "reserved": "",
      "salt": "0x0aac518dbe33e72a98a4930833af77d51dcc1dbc14f3618a31d5772ad24fc890",
      "assetIds": []
    },
    {
      "x": 148,
      "y": 388,
      "size": 1,
      "price": "1011000000000000000000",
      "reserved": "",
      "salt": "0xe3bf6c8b8a7c3f9c113ff059b58998b28ca0e53c589bd3f90195a386fcea9e4d",
      "assetIds": []
    },
    {
      "x": 148,
      "y": 389,
      "size": 1,
      "price": "4683000000000000000000",
      "reserved": "",
      "salt": "0x777b07aaab769e3f85196eb4c6669511baef8db7826e7a8838f78018f0a9084a",
      "assetIds": [
        "41506478881403507969696680653240014914910929820314476107906210059990541021186"
      ]
    },
    {
      "x": 148,
      "y": 390,
      "size": 1,
      "price": "1011000000000000000000",
      "reserved": "",
      "salt": "0x52ac2cdada40c4b26e2cb4e31c0e02af583c2eb9e6b9ce90d9f987640a18d40d",
      "assetIds": []
    },
    {
      "x": 148,
      "y": 391,
      "size": 1,
      "price": "1011000000000000000000",
      "reserved": "",
      "salt": "0x0aa1e7c70bf48f3f4eaeb86aa26333cefeba1a76457af247ba7939fc818be44f",
      "assetIds": []
    },
    {
      "x": 148,
      "y": 392,
      "size": 1,
      "price": "1011000000000000000000",
      "reserved": "",
      "salt": "0x264b7f534f533acd64ce70fccee79e7dd951270625e45bba808119cea6a915e5",
      "assetIds": []
    },
    {
      "x": 148,
      "y": 393,
      "size": 1,
      "price": "1011000000000000000000",
      "reserved": "",
      "salt": "0x74c5640724f1b6fdb73290a263996ba3951f8c3a990126012c1631ff8f8a481d",
      "assetIds": []
    },
    {
      "x": 148,
      "y": 394,
      "size": 1,
      "price": "1011000000000000000000",
      "reserved": "0x7a9fe22691c811ea339d9b73150e6911a5343dca",
      "salt": "0x89ccd4243f3c97d5f7a4dad5db71d048dac0953ae383ff3e05287170a3395968",
      "assetIds": []
    },
    {
      "x": 148,
      "y": 395,
      "size": 1,
      "price": "1011000000000000000000",
      "reserved": "",
      "salt": "0xebeeb16632a4d1298e4712e42674b18ddc7a285f35ab20a11470479fb3a76cca",
      "assetIds": []
    },
    {
      "x": 148,
      "y": 396,
      "size": 1,
      "price": "1011000000000000000000",
      "reserved": "0x7a9fe22691c811ea339d9b73150e6911a5343dca",
      "salt": "0x4e1ae3914b110f04d767899f61ff718e0e8ab8179d6c36654b350f7df06a25af",
      "assetIds": []
    },
    {
      "x": 148,
      "y": 397,
      "size": 1,
      "price": "1011000000000000000000",
      "reserved": "",
      "salt": "0x74ce45c2713b8790bd4d34f7785eb477b57838986b4add2c4c676d2f1c968c7e",
      "assetIds": []
    },
    {
      "x": 148,
      "y": 398,
      "size": 1,
      "price": "1011000000000000000000",
      "reserved": "",
      "salt": "0x320a370420371b0c50c1812e59874ba49cd3294cf7b2ad99ef3ae6d5476ccae2",
      "assetIds": []
    },
    {
      "x": 148,
      "y": 399,
      "size": 1,
      "price": "1011000000000000000000",
      "reserved": "",
      "salt": "0xc6e2573f13061425e9aac79e9f4dc64a5e87b78819be83f030497377a690e879",
      "assetIds": []
    },
    {
      "x": 148,
      "y": 400,
      "size": 1,
      "price": "1011000000000000000000",
      "reserved": "",
      "salt": "0x13ffc5f69df012e0c5ecb57d99825299184f0ba5080898962efd20d984985fa1",
      "assetIds": []
    },
    {
      "x": 148,
      "y": 401,
      "size": 1,
      "price": "1011000000000000000000",
      "reserved": "",
      "salt": "0x85ee43c6f7e46d024187de43837c48e28a5ee9a111d2853d99363860d10c0213",
      "assetIds": []
    },
    {
      "x": 148,
      "y": 402,
      "size": 1,
      "price": "1011000000000000000000",
      "reserved": "",
      "salt": "0x99d19b489c560ac6f5f42a3755ce5b8def904631029db7d085c7879b892c5389",
      "assetIds": []
    },
    {
      "x": 148,
      "y": 403,
      "size": 1,
      "price": "1011000000000000000000",
      "reserved": "",
      "salt": "0x807032085cc622be0799350a662bd781dac3b4f1db794f6697832beac3851cfd",
      "assetIds": []
    },
    {
      "x": 148,
      "y": 404,
      "size": 1,
      "price": "1011000000000000000000",
      "reserved": "",
      "salt": "0xf804c789e8a70cbef470e7d51c7e1fe319968cb6c0d782d23f443558212f2661",
      "assetIds": []
    },
    {
      "x": 148,
      "y": 405,
      "size": 1,
      "price": "1011000000000000000000",
      "reserved": "0x7a9fe22691c811ea339d9b73150e6911a5343dca",
      "salt": "0x1d4d1a769ea1a94bb872c556915b8944e8e6d63387e20ff9e533e93a4f86aa11",
      "assetIds": []
    },
    {
      "x": 148,
      "y": 406,
      "size": 1,
      "price": "1011000000000000000000",
      "reserved": "",
      "salt": "0x5b12d4f569a15d0a5d50a2bd2b94f2a4fbb245a81085a6d52e97913ab4ae3e9b",
      "assetIds": []
    },
    {
      "x": 148,
      "y": 407,
      "size": 1,
      "price": "1011000000000000000000",
      "reserved": "",
      "salt": "0x263043abdd876b446b11cbab68726601062fce5fc1112c110ab8a311d7b8f957",
      "assetIds": []
    },
    {
      "x": 149,
      "y": 352,
      "size": 1,
      "price": "1011000000000000000000",
      "reserved": "",
      "salt": "0xcbf464ebb65f0015cf4d0abc93e152b75da4236512fe9af10c4a80b0a018259f",
      "assetIds": []
    },
    {
      "x": 149,
      "y": 353,
      "size": 1,
      "price": "1011000000000000000000",
      "reserved": "",
      "salt": "0xce2a60c69f11c95f0c4a117fac313e8f97c49e6d6d19e42ba8d34248dcdc897c",
      "assetIds": []
    },
    {
      "x": 149,
      "y": 354,
      "size": 1,
      "price": "1011000000000000000000",
      "reserved": "",
      "salt": "0x87c07a41113ae08bddf0b27fa1cf8bc9b00f8142e9537a0c1b5c3f2a251ad1e3",
      "assetIds": []
    },
    {
      "x": 149,
      "y": 355,
      "size": 1,
      "price": "1011000000000000000000",
      "reserved": "",
      "salt": "0x7cb8225d88cb0f301d8f4f13dddd7e7b8468f0cdabebff959b1094fac9e96a62",
      "assetIds": []
    },
    {
      "x": 149,
      "y": 356,
      "size": 1,
      "price": "4683000000000000000000",
      "reserved": "",
      "salt": "0x51b2125ea58ecb0d967f32ea53622ec5d83f01b953b1aeb280676b41e78f028f",
      "assetIds": [
        "41506478881403507969696680653240014914910929820314476107906210059990541021186"
      ]
    },
    {
      "x": 149,
      "y": 357,
      "size": 1,
      "price": "4683000000000000000000",
      "reserved": "",
      "salt": "0x56da5c5c620104a4f9337bd6dc3233aeeb9dfd2bfc9ab29896abbed2233259de",
      "assetIds": [
        "41506478881403507969696680653240014914910929820314476107906210059990541021186"
      ]
    },
    {
      "x": 149,
      "y": 358,
      "size": 1,
      "price": "4683000000000000000000",
      "reserved": "",
      "salt": "0x25d6ec5cf07f43aa072072b6f21a5b59461e0b8cbf09f0346d62fab5525bec27",
      "assetIds": [
        "41506478881403507969696680653240014914910929820314476107906210059990541021186"
      ]
    },
    {
      "x": 149,
      "y": 359,
      "size": 1,
      "price": "4683000000000000000000",
      "reserved": "",
      "salt": "0xc067152ab1e5dd3535ca6a6367903d542e4c34f002f5de53ed343f35d2a672d5",
      "assetIds": [
        "41506478881403507969696680653240014914910929820314476107906210059990541021186"
      ]
    },
    {
      "x": 149,
      "y": 360,
      "size": 1,
      "price": "4683000000000000000000",
      "reserved": "",
      "salt": "0x1ff9344a908d0c631f0ac66fe8b4cb6e97348c16a0c596ba65dff1fd76ec72b5",
      "assetIds": [
        "41506478881403507969696680653240014914910929820314476107906210059990541021186"
      ]
    },
    {
      "x": 149,
      "y": 361,
      "size": 1,
      "price": "4683000000000000000000",
      "reserved": "",
      "salt": "0x4b7babf6f1cb2f1777c9ac8fa5f2be250106e2bfe2fd2bab4ef3147f527ec981",
      "assetIds": [
        "41506478881403507969696680653240014914910929820314476107906210059990541021186"
      ]
    },
    {
      "x": 149,
      "y": 362,
      "size": 1,
      "price": "4683000000000000000000",
      "reserved": "",
      "salt": "0x3e3e468ed676e9d075bf2bf35d01959c544f618bf5df2a41239290deb0c36dc2",
      "assetIds": [
        "41506478881403507969696680653240014914910929820314476107906210059990541021186"
      ]
    },
    {
      "x": 149,
      "y": 363,
      "size": 1,
      "price": "4683000000000000000000",
      "reserved": "",
      "salt": "0x3d9e666bbffacf497583e7394db872f709a71e3aa58e387c4d025617e7352072",
      "assetIds": [
        "41506478881403507969696680653240014914910929820314476107906210059990541021186"
      ]
    },
    {
      "x": 149,
      "y": 364,
      "size": 1,
      "price": "1011000000000000000000",
      "reserved": "",
      "salt": "0x7697ac381844dff90025bfd298b0ca2083896f602189754202423454887df925",
      "assetIds": []
    },
    {
      "x": 149,
      "y": 365,
      "size": 1,
      "price": "4683000000000000000000",
      "reserved": "",
      "salt": "0x3c8d81cb4b7bc86acf89623d293f37e14e90d9a128b632a2eca87b18cb563f9f",
      "assetIds": [
        "41506478881403507969696680653240014914910929820314476107906210059990541021186"
      ]
    },
    {
      "x": 149,
      "y": 366,
      "size": 1,
      "price": "4683000000000000000000",
      "reserved": "",
      "salt": "0xbc68400456c6cb140a24bcd8619b472c920ddeff1784929b2593d865017889a3",
      "assetIds": [
        "41506478881403507969696680653240014914910929820314476107906210059990541021186"
      ]
    },
    {
      "x": 149,
      "y": 367,
      "size": 1,
      "price": "4683000000000000000000",
      "reserved": "",
      "salt": "0x26d4b679f07908486826093c40305490a3db6c7ae6ee900a007c33031b1e6288",
      "assetIds": [
        "41506478881403507969696680653240014914910929820314476107906210059990541021186"
      ]
    },
    {
      "x": 149,
      "y": 368,
      "size": 1,
      "price": "4683000000000000000000",
      "reserved": "",
      "salt": "0xede529453852fb771ca9874394c7c89110fb26ac4e48da7f5b1313499783f1ba",
      "assetIds": [
        "41506478881403507969696680653240014914910929820314476107906210059990541021186"
      ]
    },
    {
      "x": 149,
      "y": 369,
      "size": 1,
      "price": "4683000000000000000000",
      "reserved": "",
      "salt": "0x1c07ec60e20778d1ac478ad070a5a5e47b4f84a7e6c0fdd51ee7eff431a0304d",
      "assetIds": [
        "41506478881403507969696680653240014914910929820314476107906210059990541021186"
      ]
    },
    {
      "x": 149,
      "y": 370,
      "size": 1,
      "price": "4683000000000000000000",
      "reserved": "",
      "salt": "0xe3134fc5395c442a7564831f8133f62b7c2e02e61b4f582b9cf442bf95155d83",
      "assetIds": [
        "41506478881403507969696680653240014914910929820314476107906210059990541021186"
      ]
    },
    {
      "x": 149,
      "y": 371,
      "size": 1,
      "price": "4683000000000000000000",
      "reserved": "",
      "salt": "0xe82eebcd731757c983f529ad0a1114a9cb3c25ec54a0783c3bcab99008e30bf6",
      "assetIds": [
        "41506478881403507969696680653240014914910929820314476107906210059990541021186"
      ]
    },
    {
      "x": 149,
      "y": 375,
      "size": 1,
      "price": "1011000000000000000000",
      "reserved": "",
      "salt": "0xedc02a86b909702b734a57e6fa0fc5c0f698f545ca9a83c1c304da1867856d01",
      "assetIds": []
    },
    {
      "x": 149,
      "y": 376,
      "size": 1,
      "price": "1011000000000000000000",
      "reserved": "0x7a9fe22691c811ea339d9b73150e6911a5343dca",
      "salt": "0xb4e9c441ab074a41d30cd6ef6c5a37d5343abeff157a1e757399032638fd2494",
      "assetIds": []
    },
    {
      "x": 149,
      "y": 377,
      "size": 1,
      "price": "1011000000000000000000",
      "reserved": "",
      "salt": "0xd0069251f98768859a0c56aa4590dd85afced1d8ad11d41625584c557ba3c473",
      "assetIds": []
    },
    {
      "x": 149,
      "y": 378,
      "size": 1,
      "price": "1011000000000000000000",
      "reserved": "",
      "salt": "0xe15095faa0d3b4ba590f12a8a1abd7f744fec2d752c19727ee87a42b4065d14d",
      "assetIds": []
    },
    {
      "x": 149,
      "y": 379,
      "size": 1,
      "price": "1011000000000000000000",
      "reserved": "",
      "salt": "0x311c756f3cf636edd2e442742ca6efcf3b5e58ee1e909ed95f7819f3fa5b1bae",
      "assetIds": []
    },
    {
      "x": 149,
      "y": 380,
      "size": 1,
      "price": "1011000000000000000000",
      "reserved": "",
      "salt": "0x3d587b232f449d6ff645fa55644a2c4076b2a31d9fc4a33a27b03d9d5e217161",
      "assetIds": []
    },
    {
      "x": 149,
      "y": 381,
      "size": 1,
      "price": "1011000000000000000000",
      "reserved": "0x7a9fe22691c811ea339d9b73150e6911a5343dca",
      "salt": "0xdf34fde133f0abd8d025bce2d0ec5d7df08642f7ba67c21577d28066ba1423de",
      "assetIds": []
    },
    {
      "x": 149,
      "y": 382,
      "size": 1,
      "price": "1011000000000000000000",
      "reserved": "",
      "salt": "0x3d38ad67af6461897b622dc4a25a27af48574404bcc4953cb55854c27463996e",
      "assetIds": []
    },
    {
      "x": 149,
      "y": 383,
      "size": 1,
      "price": "1011000000000000000000",
      "reserved": "",
      "salt": "0xca13fe0280af0a562ba82ae2749570ccbb6fdae638f3840ef7d8194a4d230ada",
      "assetIds": []
    },
    {
      "x": 149,
      "y": 384,
      "size": 1,
      "price": "1011000000000000000000",
      "reserved": "0x7a9fe22691c811ea339d9b73150e6911a5343dca",
      "salt": "0xb0e93052c7d7782314ef4b4ffbb7ad691fa3cd16242475b50a2f1391ce49a816",
      "assetIds": []
    },
    {
      "x": 149,
      "y": 385,
      "size": 1,
      "price": "1011000000000000000000",
      "reserved": "",
      "salt": "0x48d3533b80e5f87e5ca14080e6d42929ce785911ecab15658fd2586c7db40c01",
      "assetIds": []
    },
    {
      "x": 149,
      "y": 386,
      "size": 1,
      "price": "1011000000000000000000",
      "reserved": "",
      "salt": "0xef5e7817ac987c51267425ef18f452547d6df108aa9ddcc31043797905c423a1",
      "assetIds": []
    },
    {
      "x": 149,
      "y": 387,
      "size": 1,
      "price": "1011000000000000000000",
      "reserved": "",
      "salt": "0x47518c4bf7e6cc57037c5d52e1c979d1a87bc3fc8b518f3ac9e925510cd9a2c8",
      "assetIds": []
    },
    {
      "x": 149,
      "y": 388,
      "size": 1,
      "price": "4683000000000000000000",
      "reserved": "",
      "salt": "0xd49bf3dc19a44e72284d53ad3e2a9e03ffb86f9f2782a12ba9f453aaca01a502",
      "assetIds": [
        "41506478881403507969696680653240014914910929820314476107906210059990541021186"
      ]
    },
    {
      "x": 149,
      "y": 389,
      "size": 1,
      "price": "4683000000000000000000",
      "reserved": "",
      "salt": "0x3e7bcece7f10fd3e838d9d9dcfbc0df0499962f37caa2b373c42cb7c7b4e8ed2",
      "assetIds": [
        "41506478881403507969696680653240014914910929820314476107906210059990541021186"
      ]
    },
    {
      "x": 149,
      "y": 390,
      "size": 1,
      "price": "4683000000000000000000",
      "reserved": "",
      "salt": "0x6facbfab5cf18e5c9536500fcbd70ac66d0ade5f64d01e0f58f8ab0789c24186",
      "assetIds": [
        "41506478881403507969696680653240014914910929820314476107906210059990541021186"
      ]
    },
    {
      "x": 149,
      "y": 391,
      "size": 1,
      "price": "4683000000000000000000",
      "reserved": "",
      "salt": "0x47e4de4baaaa1853d459cee1d5b73f2ddacacee1592dbe8042be668b26384620",
      "assetIds": [
        "41506478881403507969696680653240014914910929820314476107906210059990541021186"
      ]
    },
    {
      "x": 149,
      "y": 392,
      "size": 1,
      "price": "4683000000000000000000",
      "reserved": "",
      "salt": "0x5dd5eee64099fe51df4381b168211c0efdcddef5bfb88b5fd7bd0f017bde4012",
      "assetIds": [
        "41506478881403507969696680653240014914910929820314476107906210059990541021186"
      ]
    },
    {
      "x": 149,
      "y": 393,
      "size": 1,
      "price": "4683000000000000000000",
      "reserved": "",
      "salt": "0xa410ac3c235f59cd8e129deb6c1d6a443eeb3bd45fa91467ef8120a3a03a1863",
      "assetIds": [
        "41506478881403507969696680653240014914910929820314476107906210059990541021186"
      ]
    },
    {
      "x": 149,
      "y": 394,
      "size": 1,
      "price": "4683000000000000000000",
      "reserved": "",
      "salt": "0x89a54ef8ce30d253d625e180c173be273f80ff73d8fdff3cfc1fa450b27f43f3",
      "assetIds": [
        "41506478881403507969696680653240014914910929820314476107906210059990541021186"
      ]
    },
    {
      "x": 149,
      "y": 395,
      "size": 1,
      "price": "4683000000000000000000",
      "reserved": "",
      "salt": "0x2ca5e8b13213f8508a345a0e5ed3b772273d34a981355cbb259f43700695ad4a",
      "assetIds": [
        "41506478881403507969696680653240014914910929820314476107906210059990541021186"
      ]
    },
    {
      "x": 149,
      "y": 396,
      "size": 1,
      "price": "1011000000000000000000",
      "reserved": "",
      "salt": "0xc0577bc23255992980f2cbe1cf60bff7fc11db08c230f56c41ff8790b7f24838",
      "assetIds": []
    },
    {
      "x": 149,
      "y": 397,
      "size": 1,
      "price": "1011000000000000000000",
      "reserved": "",
      "salt": "0x4c4e7e7391cf262dff541c299cfa513d4e5e4a4264aa29ff16f35c05cd0d8f49",
      "assetIds": []
    },
    {
      "x": 149,
      "y": 398,
      "size": 1,
      "price": "1011000000000000000000",
      "reserved": "",
      "salt": "0xfad711a45ae81f54254b297666932533a289ee7eb0e95c5f74995b4b14af9603",
      "assetIds": []
    },
    {
      "x": 149,
      "y": 399,
      "size": 1,
      "price": "1011000000000000000000",
      "reserved": "",
      "salt": "0x652f2f97c86e005e034ecf652a9d91255a0fd0b065dc687d780b3a80fd9692df",
      "assetIds": []
    },
    {
      "x": 149,
      "y": 400,
      "size": 1,
      "price": "1011000000000000000000",
      "reserved": "0x7a9fe22691c811ea339d9b73150e6911a5343dca",
      "salt": "0x8628b8ec9fc900922243af60671dba69d60b48cb9af8ca401f9925f9b0792049",
      "assetIds": []
    },
    {
      "x": 149,
      "y": 401,
      "size": 1,
      "price": "1011000000000000000000",
      "reserved": "0x7a9fe22691c811ea339d9b73150e6911a5343dca",
      "salt": "0xdc218eca7d96cb50c1425b2c4bbab74cf5cfed230c46edabd8281da70e0d30d4",
      "assetIds": []
    },
    {
      "x": 149,
      "y": 402,
      "size": 1,
      "price": "1011000000000000000000",
      "reserved": "",
      "salt": "0x7c53a1147af76fd89a6975e1526f9c4d897ad929f17d56cfcb15e32ab28afb1f",
      "assetIds": []
    },
    {
      "x": 149,
      "y": 403,
      "size": 1,
      "price": "1011000000000000000000",
      "reserved": "",
      "salt": "0x82c355998be4104cd390aab200d494a37a633cc6779affa2eb3092cee94132ca",
      "assetIds": []
    },
    {
      "x": 149,
      "y": 404,
      "size": 1,
      "price": "1011000000000000000000",
      "reserved": "",
      "salt": "0x1776a7686e32a01fd20da23f744a93cce182d6369d6cd2a378f3ec12e561928c",
      "assetIds": []
    },
    {
      "x": 149,
      "y": 405,
      "size": 1,
      "price": "1011000000000000000000",
      "reserved": "",
      "salt": "0xe79ec3e5b8335d6d58d57e56146025451ee5612a01132d1ba00c0122ac03a309",
      "assetIds": []
    },
    {
      "x": 149,
      "y": 406,
      "size": 1,
      "price": "1011000000000000000000",
      "reserved": "",
      "salt": "0xa328d78eeb7b1192bd673bfcc4da710389f3448336881df19495c93fbe407bde",
      "assetIds": []
    },
    {
      "x": 149,
      "y": 407,
      "size": 1,
      "price": "1011000000000000000000",
      "reserved": "",
      "salt": "0xf132c22d36ad61eac90580ecaae1e58f5d53b524840d2cffe36ced57b9d22a6f",
      "assetIds": []
    },
    {
      "x": 150,
      "y": 352,
      "size": 1,
      "price": "1011000000000000000000",
      "reserved": "",
      "salt": "0x941d7f538290aeff7b676008c873328e75b1fc9ab3208b564a69f6722691af14",
      "assetIds": []
    },
    {
      "x": 150,
      "y": 353,
      "size": 1,
      "price": "1011000000000000000000",
      "reserved": "",
      "salt": "0x32415b9f3aac919a60a8b960d25976ff1d753af5975a31f56fcb8b9d1574784e",
      "assetIds": []
    },
    {
      "x": 150,
      "y": 354,
      "size": 1,
      "price": "4683000000000000000000",
      "reserved": "",
      "salt": "0xa0ed703ae05275f9836eeab1ff2889308a62d92d289420a714fb37f81497786f",
      "assetIds": [
        "41506478881403507969696680653240014914910929820314476107906210059990541021186"
      ]
    },
    {
      "x": 150,
      "y": 355,
      "size": 1,
      "price": "1011000000000000000000",
      "reserved": "0x7a9fe22691c811ea339d9b73150e6911a5343dca",
      "salt": "0x1c1302927f1f8612c78dee7b4170a8bc78185f1ffabf4b26f334a15ac55a3d14",
      "assetIds": []
    },
    {
      "x": 150,
      "y": 356,
      "size": 1,
      "price": "4683000000000000000000",
      "reserved": "",
      "salt": "0x7b4b34a5f6b1503e38b81be0d2a2111ed4c145665dbb4fb08b1417d5d8a6da3f",
      "assetIds": [
        "41506478881403507969696680653240014914910929820314476107906210059990541021186"
      ]
    },
    {
      "x": 150,
      "y": 363,
      "size": 1,
      "price": "4683000000000000000000",
      "reserved": "",
      "salt": "0x4f361836b1fb0b491182b40422e1aa07cad489a2b12a5751dbadb161b6d273ae",
      "assetIds": [
        "41506478881403507969696680653240014914910929820314476107906210059990541021186"
      ]
    },
    {
      "x": 150,
      "y": 364,
      "size": 1,
      "price": "1011000000000000000000",
      "reserved": "",
      "salt": "0xadfbbaa7e372e51647140aec0cc5a544ffdba4178178858631048e67225f840b",
      "assetIds": []
    },
    {
      "x": 150,
      "y": 365,
      "size": 1,
      "price": "4683000000000000000000",
      "reserved": "",
      "salt": "0xef30a0225e85c8491febc579c4a27a492a17b1f7355325b25d1fb3f2aed4c90b",
      "assetIds": [
        "41506478881403507969696680653240014914910929820314476107906210059990541021186"
      ]
    },
    {
      "x": 150,
      "y": 372,
      "size": 1,
      "price": "4683000000000000000000",
      "reserved": "",
      "salt": "0x3d0ee53ff2f37fd08f8928b90eed6950ee8db07b4ffe2156a8c4800ab92912b2",
      "assetIds": [
        "41506478881403507969696680653240014914910929820314476107906210059990541021186"
      ]
    },
    {
      "x": 150,
      "y": 373,
      "size": 1,
      "price": "1011000000000000000000",
      "reserved": "",
      "salt": "0xb4e5306e043248e679e7c513c8ba4427ecb5d1d50c9f8e23abe91fe4a80a8e91",
      "assetIds": []
    },
    {
      "x": 150,
      "y": 374,
      "size": 1,
      "price": "1011000000000000000000",
      "reserved": "",
      "salt": "0xa77d72411a5fb5d1d1e351d5981d05867f08fb05c97c76a34a17190015cc5511",
      "assetIds": []
    },
    {
      "x": 150,
      "y": 384,
      "size": 1,
      "price": "1011000000000000000000",
      "reserved": "",
      "salt": "0xe2ffe6f6387613d20b89d4f7ca6b0b94b667a67b40656f623b9ea77dcf361cda",
      "assetIds": []
    },
    {
      "x": 150,
      "y": 385,
      "size": 1,
      "price": "1011000000000000000000",
      "reserved": "",
      "salt": "0x8b172783511d7b1ba4b3690d19a52598a493d5eb116979503ea8e47187bdde92",
      "assetIds": []
    },
    {
      "x": 150,
      "y": 386,
      "size": 1,
      "price": "1011000000000000000000",
      "reserved": "0x7a9fe22691c811ea339d9b73150e6911a5343dca",
      "salt": "0x2548781b01676b3069e0251d129a911f767db55df9b327fc1b5020ba97b53feb",
      "assetIds": []
    },
    {
      "x": 150,
      "y": 387,
      "size": 1,
      "price": "4683000000000000000000",
      "reserved": "",
      "salt": "0x432a001f1d16fca4a296fc865ad06f19e098abafc744a19a04ca397728759f35",
      "assetIds": [
        "41506478881403507969696680653240014914910929820314476107906210059990541021186"
      ]
    },
    {
      "x": 150,
      "y": 388,
      "size": 1,
      "price": "4683000000000000000000",
      "reserved": "",
      "salt": "0x57d7f1d38ec8112a3af3dd2d8b47718896d406b533afc019f2217bad5d5c93b8",
      "assetIds": [
        "41506478881403507969696680653240014914910929820314476107906210059990541021186"
      ]
    },
    {
      "x": 150,
      "y": 389,
      "size": 1,
      "price": "4683000000000000000000",
      "reserved": "",
      "salt": "0xed0b551da98b759f3589939e58d25d9546b7f4d98bc50c4f339dc2184faf754a",
      "assetIds": [
        "41506478881403507969696680653240014914910929820314476107906210059990541021186"
      ]
    },
    {
      "x": 150,
      "y": 396,
      "size": 1,
      "price": "4683000000000000000000",
      "reserved": "",
      "salt": "0x8359b72785cccf02350616963de9cc283ca36c4c157396387769508f397e9d05",
      "assetIds": [
        "41506478881403507969696680653240014914910929820314476107906210059990541021186"
      ]
    },
    {
      "x": 150,
      "y": 397,
      "size": 1,
      "price": "1011000000000000000000",
      "reserved": "",
      "salt": "0xc11f257c08cb437dd6e745f936e10a4ddd9f41360569333e577891d8aaa0415c",
      "assetIds": []
    },
    {
      "x": 150,
      "y": 398,
      "size": 1,
      "price": "1011000000000000000000",
      "reserved": "0x7a9fe22691c811ea339d9b73150e6911a5343dca",
      "salt": "0xad4895bb85e8d7346cd6e72a07b533334f29faff3e718cda285f1fd1d393bc6d",
      "assetIds": []
    },
    {
      "x": 150,
      "y": 399,
      "size": 1,
      "price": "1011000000000000000000",
      "reserved": "",
      "salt": "0x5b789d173494bfcafd54812c2b922785f7ad72c07807d26a31939bd05a962cca",
      "assetIds": []
    },
    {
      "x": 150,
      "y": 400,
      "size": 1,
      "price": "1011000000000000000000",
      "reserved": "",
      "salt": "0x44fce3f8a9525710382bfb6c9cee60bc06e45daec2370aaaa0e8aa600524c40b",
      "assetIds": []
    },
    {
      "x": 150,
      "y": 401,
      "size": 1,
      "price": "1011000000000000000000",
      "reserved": "",
      "salt": "0xcb4366d06ab9ce1929620a7f74941801555d15a7c01edc8b4570a57ed76f0b25",
      "assetIds": []
    },
    {
      "x": 150,
      "y": 402,
      "size": 1,
      "price": "1011000000000000000000",
      "reserved": "",
      "salt": "0xf70e7325368e2f18e23d989fd7ef21b9068d3f212b08e52a483e9dd1b94a888c",
      "assetIds": []
    },
    {
      "x": 150,
      "y": 403,
      "size": 1,
      "price": "1011000000000000000000",
      "reserved": "0x7a9fe22691c811ea339d9b73150e6911a5343dca",
      "salt": "0xde20ea081f5c7de4162d4aefed9761fc299e01e63230965bf58c079b1890e202",
      "assetIds": []
    },
    {
      "x": 150,
      "y": 404,
      "size": 1,
      "price": "1011000000000000000000",
      "reserved": "",
      "salt": "0xc9dd5b69c477e8189ac91555511667295c42ec128d3de80b986725547ecb2640",
      "assetIds": []
    },
    {
      "x": 150,
      "y": 405,
      "size": 1,
      "price": "1011000000000000000000",
      "reserved": "",
      "salt": "0x3a995fbfc19e268e52ba91b8b5160f4768fadc4a45d1c3288a6901aae3cf2cf4",
      "assetIds": []
    },
    {
      "x": 150,
      "y": 406,
      "size": 1,
      "price": "1011000000000000000000",
      "reserved": "",
      "salt": "0xce42ef2391390144ac778bbb4d0a66d216413e66691f6dd2fac1071b4f729c98",
      "assetIds": []
    },
    {
      "x": 150,
      "y": 407,
      "size": 1,
      "price": "1011000000000000000000",
      "reserved": "",
      "salt": "0x25ead465f21c2eff568309eb65eb2d8e2b67dd7bb61b70ec2643e1332d643410",
      "assetIds": []
    },
    {
      "x": 151,
      "y": 353,
      "size": 1,
      "price": "1011000000000000000000",
      "reserved": "0x7a9fe22691c811ea339d9b73150e6911a5343dca",
      "salt": "0xee0600d164a221d6e979a8c46491b0d31e711e16fb322c2f648711b9f2948a37",
      "assetIds": []
    },
    {
      "x": 151,
      "y": 354,
      "size": 1,
      "price": "4683000000000000000000",
      "reserved": "",
      "salt": "0x3c107102ee82e310b4813fac41202bd29de5ed8f197c0f74d145829e314fc0b6",
      "assetIds": [
        "41506478881403507969696680653240014914910929820314476107906210059990541021186"
      ]
    },
    {
      "x": 151,
      "y": 355,
      "size": 1,
      "price": "1011000000000000000000",
      "reserved": "0x7a9fe22691c811ea339d9b73150e6911a5343dca",
      "salt": "0xd7ff74c5cd1febcea557c19ad36ea04cd5e0a2e4f203891bc9084543d86f2c59",
      "assetIds": []
    },
    {
      "x": 151,
      "y": 356,
      "size": 1,
      "price": "4683000000000000000000",
      "reserved": "",
      "salt": "0x215b7092a7052265b916d516ac43497b65a0684f10cbf71d17958191593d18de",
      "assetIds": [
        "41506478881403507969696680653240014914910929820314476107906210059990541021186"
      ]
    },
    {
      "x": 151,
      "y": 363,
      "size": 1,
      "price": "4683000000000000000000",
      "reserved": "",
      "salt": "0x765defbd3121fc0c972c52a0bb9a60d0080c302872a472875279d68fc859f91e",
      "assetIds": [
        "41506478881403507969696680653240014914910929820314476107906210059990541021186"
      ]
    },
    {
      "x": 151,
      "y": 364,
      "size": 1,
      "price": "1011000000000000000000",
      "reserved": "0x7a9fe22691c811ea339d9b73150e6911a5343dca",
      "salt": "0x5d271e9f7181ebf3fdb89d78ed7bb32d2737bf4266bc4263d5e36ba1f19111ec",
      "assetIds": []
    },
    {
      "x": 151,
      "y": 365,
      "size": 1,
      "price": "4683000000000000000000",
      "reserved": "",
      "salt": "0xa22fded159e734277e7a4da39b9d71b9532f6938148a5816d6397f81b63c1e64",
      "assetIds": [
        "41506478881403507969696680653240014914910929820314476107906210059990541021186"
      ]
    },
    {
      "x": 151,
      "y": 372,
      "size": 1,
      "price": "4683000000000000000000",
      "reserved": "",
      "salt": "0x007312836c652eba87275f50df5a523e4a4b36b39eb6093f253c2799020468a4",
      "assetIds": [
        "41506478881403507969696680653240014914910929820314476107906210059990541021186"
      ]
    },
    {
      "x": 151,
      "y": 373,
      "size": 1,
      "price": "1011000000000000000000",
      "reserved": "0x7a9fe22691c811ea339d9b73150e6911a5343dca",
      "salt": "0x6b0aea64b1ca58ad3ac020d39b591fd7d56b351df15973731cd9e59794d5768c",
      "assetIds": []
    },
    {
      "x": 151,
      "y": 374,
      "size": 1,
      "price": "1011000000000000000000",
      "reserved": "",
      "salt": "0x642e39a1563e9f33142dc3737d511379d621e3bf6a867ac418b72b13a14c58de",
      "assetIds": []
    },
    {
      "x": 151,
      "y": 384,
      "size": 1,
      "price": "1011000000000000000000",
      "reserved": "",
      "salt": "0xaf3065bdc6f237d6a030786fb75075e938129e6db4ebd3716ca0c8ca141d85b6",
      "assetIds": []
    },
    {
      "x": 151,
      "y": 385,
      "size": 1,
      "price": "1011000000000000000000",
      "reserved": "",
      "salt": "0xa2e7cd3af2be8b41fe32cc47cdd03e675e24c9619a2b99e531984e07349fab96",
      "assetIds": []
    },
    {
      "x": 151,
      "y": 386,
      "size": 1,
      "price": "1011000000000000000000",
      "reserved": "",
      "salt": "0xa4acd1a74b160d6248079acde8f325f55ab15374f7287409564d2d130cf2b7d8",
      "assetIds": []
    },
    {
      "x": 151,
      "y": 387,
      "size": 1,
      "price": "1011000000000000000000",
      "reserved": "",
      "salt": "0x0f8a747875dbf7d73b710164109a8ffd3afd6e33e40e6ec36dcbcc3cfcd52c61",
      "assetIds": []
    },
    {
      "x": 151,
      "y": 388,
      "size": 1,
      "price": "1011000000000000000000",
      "reserved": "0x7a9fe22691c811ea339d9b73150e6911a5343dca",
      "salt": "0x27926a066282c70e9dd85d75e586985a520b4ed39015e05eca42ca3208d3a78c",
      "assetIds": []
    },
    {
      "x": 151,
      "y": 389,
      "size": 1,
      "price": "4683000000000000000000",
      "reserved": "",
      "salt": "0x499d53c0f9de3850afc2da29691712ead796f3bc13561e3bf7d4b08febd4ddf6",
      "assetIds": [
        "41506478881403507969696680653240014914910929820314476107906210059990541021186"
      ]
    },
    {
      "x": 151,
      "y": 396,
      "size": 1,
      "price": "4683000000000000000000",
      "reserved": "",
      "salt": "0x3680e6acba33f00262429ff6cdccde82933a84f0b367af6c7443c17c9d10474e",
      "assetIds": [
        "41506478881403507969696680653240014914910929820314476107906210059990541021186"
      ]
    },
    {
      "x": 151,
      "y": 397,
      "size": 1,
      "price": "1011000000000000000000",
      "reserved": "0x7a9fe22691c811ea339d9b73150e6911a5343dca",
      "salt": "0x41faf2fd5e48bab328937bdd9704ecaded56595c8727f59a3275c7fe09276b82",
      "assetIds": []
    },
    {
      "x": 151,
      "y": 398,
      "size": 1,
      "price": "1011000000000000000000",
      "reserved": "",
      "salt": "0x13e7676507431e45a9196083ad3b0ae49855c265a9496f3cdd68e0fd86f1824d",
      "assetIds": []
    },
    {
      "x": 151,
      "y": 399,
      "size": 1,
      "price": "1011000000000000000000",
      "reserved": "",
      "salt": "0xaa1316a7637080504f6b25ed23ee4deef1b03ba2af626707234a5d65755fe5c3",
      "assetIds": []
    },
    {
      "x": 151,
      "y": 400,
      "size": 1,
      "price": "1011000000000000000000",
      "reserved": "",
      "salt": "0x4bb052c547356e53d5c2a55856bcf9dd144ec16d8718dce81707ad7cb7ae6c7a",
      "assetIds": []
    },
    {
      "x": 151,
      "y": 401,
      "size": 1,
      "price": "1011000000000000000000",
      "reserved": "",
      "salt": "0xc574a03d6f5b945f3d1a5932cada0929dca88aed92057f6c2039e60d265daa32",
      "assetIds": []
    },
    {
      "x": 151,
      "y": 402,
      "size": 1,
      "price": "1011000000000000000000",
      "reserved": "0x7a9fe22691c811ea339d9b73150e6911a5343dca",
      "salt": "0x25ffbf8857fd7b253668d9a7ca7262346ddce554208da4cb043ada0a4d1a4932",
      "assetIds": []
    },
    {
      "x": 151,
      "y": 403,
      "size": 1,
      "price": "1011000000000000000000",
      "reserved": "",
      "salt": "0xf26d9c45521e3167dfd002c0ff395b565a1ccadc7e67136b76fe86b7a358b109",
      "assetIds": []
    },
    {
      "x": 151,
      "y": 404,
      "size": 1,
      "price": "1011000000000000000000",
      "reserved": "",
      "salt": "0x0d2238e579d71afa6d6f9042fef9d1cb64202dc0bca444252f39bafc7f71312f",
      "assetIds": []
    },
    {
      "x": 151,
      "y": 405,
      "size": 1,
      "price": "1011000000000000000000",
      "reserved": "",
      "salt": "0x6fc1aacbdc1603de029f5f916b6519673c9561876408cee796f8c75945269b2d",
      "assetIds": []
    },
    {
      "x": 151,
      "y": 406,
      "size": 1,
      "price": "1011000000000000000000",
      "reserved": "",
      "salt": "0xa9213bf9c0a132be5f90628b1722805ecf38963cf652be958cf82a1499bc8ba7",
      "assetIds": []
    },
    {
      "x": 151,
      "y": 407,
      "size": 1,
      "price": "1011000000000000000000",
      "reserved": "0x7a9fe22691c811ea339d9b73150e6911a5343dca",
      "salt": "0x089dd4cfa896a66f30dea6e06cccf6cfbb8eebe0fd71a06d8e0b892969021b95",
      "assetIds": []
    },
    {
      "x": 152,
      "y": 353,
      "size": 1,
      "price": "1011000000000000000000",
      "reserved": "",
      "salt": "0xdff62ace5d5ff6220f865f51ac6b38f014b5ee2d6565edf782045b36f65ac311",
      "assetIds": []
    },
    {
      "x": 152,
      "y": 354,
      "size": 1,
      "price": "4683000000000000000000",
      "reserved": "",
      "salt": "0x0729f35b4f9336672846e8c683dfdce467c3f40f867022e6be751a3b24c2af90",
      "assetIds": [
        "41506478881403507969696680653240014914910929820314476107906210059990541021186"
      ]
    },
    {
      "x": 152,
      "y": 355,
      "size": 1,
      "price": "1011000000000000000000",
      "reserved": "",
      "salt": "0x81029aa87c497b39634ee4c8ee279e0b7da883119ffaa78a7ac95a1b395f7da4",
      "assetIds": []
    },
    {
      "x": 152,
      "y": 356,
      "size": 1,
      "price": "4683000000000000000000",
      "reserved": "",
      "salt": "0x5233cfa273362a00409173495981fa8b43c85162c9947c24882c071e9301e24e",
      "assetIds": [
        "41506478881403507969696680653240014914910929820314476107906210059990541021186"
      ]
    },
    {
      "x": 152,
      "y": 363,
      "size": 1,
      "price": "4683000000000000000000",
      "reserved": "",
      "salt": "0x67d0615a709fcb90cb672aed000ff0143d7c6491c35c0a7f93005b8b3c248097",
      "assetIds": [
        "41506478881403507969696680653240014914910929820314476107906210059990541021186"
      ]
    },
    {
      "x": 152,
      "y": 364,
      "size": 1,
      "price": "4683000000000000000000",
      "reserved": "",
      "salt": "0x919cd176b854849fbb23ba8741b473ee1e04f11ef2687ed7e38b24fbaf99c67d",
      "assetIds": [
        "41506478881403507969696680653240014914910929820314476107906210059990541021186"
      ]
    },
    {
      "x": 152,
      "y": 365,
      "size": 1,
      "price": "4683000000000000000000",
      "reserved": "",
      "salt": "0x28e6f0cf9bdb01fee873fd3095e9de57ba661c9355498d620feaaa661bb261f5",
      "assetIds": [
        "41506478881403507969696680653240014914910929820314476107906210059990541021186"
      ]
    },
    {
      "x": 152,
      "y": 372,
      "size": 1,
      "price": "4683000000000000000000",
      "reserved": "",
      "salt": "0xcc69d46e29d399a02ef54b0aebc9ee24d9252a2f7d5a0f90baf930c11b063fcf",
      "assetIds": [
        "41506478881403507969696680653240014914910929820314476107906210059990541021186"
      ]
    },
    {
      "x": 152,
      "y": 373,
      "size": 1,
      "price": "1011000000000000000000",
      "reserved": "0x7a9fe22691c811ea339d9b73150e6911a5343dca",
      "salt": "0xfc4993895172dafa4be8524d3731fce9065f386af8cd402c542749bf7d4e45cd",
      "assetIds": []
    },
    {
      "x": 152,
      "y": 374,
      "size": 1,
      "price": "1011000000000000000000",
      "reserved": "",
      "salt": "0xb2dbab45bb31aab9ded962b423b47db21676f869c23ee2192e01544aae77a609",
      "assetIds": []
    },
    {
      "x": 152,
      "y": 384,
      "size": 1,
      "price": "1011000000000000000000",
      "reserved": "",
      "salt": "0xf09ec31234d5409e398bb2b738d45e6bb16ae45db3f3fd2d26ec944637fabe5a",
      "assetIds": []
    },
    {
      "x": 152,
      "y": 385,
      "size": 1,
      "price": "1011000000000000000000",
      "reserved": "",
      "salt": "0xb634d5ba417d66a06ab7f3b3816756968ecf6fce72dddbca1ef61efa2edc0613",
      "assetIds": []
    },
    {
      "x": 152,
      "y": 386,
      "size": 1,
      "price": "1011000000000000000000",
      "reserved": "",
      "salt": "0xf7f81eeedbe1f2c928b62b5974f6de232d36d3dd86f6979d232fcd638978cc12",
      "assetIds": []
    },
    {
      "x": 152,
      "y": 387,
      "size": 1,
      "price": "1011000000000000000000",
      "reserved": "",
      "salt": "0x5c2eae28b10551feeebdba80a57ac508e6579ff69decaa4350cf85cd9a409f6a",
      "assetIds": []
    },
    {
      "x": 152,
      "y": 388,
      "size": 1,
      "price": "1011000000000000000000",
      "reserved": "",
      "salt": "0x88a1ffcb0c5f89e398e76d71e4d7862041ff00bb70ff4078752fb8c0bb2d6598",
      "assetIds": []
    },
    {
      "x": 152,
      "y": 389,
      "size": 1,
      "price": "4683000000000000000000",
      "reserved": "",
      "salt": "0xbf347fe9160795e7af495907f2c6bb12496174e529b8c9dcce1b9c5b88ab3313",
      "assetIds": [
        "41506478881403507969696680653240014914910929820314476107906210059990541021186"
      ]
    },
    {
      "x": 152,
      "y": 396,
      "size": 1,
      "price": "4683000000000000000000",
      "reserved": "",
      "salt": "0x02b50de97787603f479187def23855cb24e2a7ab3cf36e8e5348652d33c4623b",
      "assetIds": [
        "41506478881403507969696680653240014914910929820314476107906210059990541021186"
      ]
    },
    {
      "x": 152,
      "y": 397,
      "size": 1,
      "price": "1011000000000000000000",
      "reserved": "0x7a9fe22691c811ea339d9b73150e6911a5343dca",
      "salt": "0xdd85118e7387499a9e534b1601d19e3e2c017caa9ddbb814cddc8b6dce31fce2",
      "assetIds": []
    },
    {
      "x": 152,
      "y": 398,
      "size": 1,
      "price": "1011000000000000000000",
      "reserved": "0x7a9fe22691c811ea339d9b73150e6911a5343dca",
      "salt": "0xa1803e9b84a3dd0d62f5d48f087fa8aca3764a50ad1a14e9e8c03a697b32c892",
      "assetIds": []
    },
    {
      "x": 152,
      "y": 399,
      "size": 1,
      "price": "1011000000000000000000",
      "reserved": "",
      "salt": "0xb82dc0e4911aed32a0abf6936fb451d047518f8509ef2963ba3844b71a629698",
      "assetIds": []
    },
    {
      "x": 152,
      "y": 400,
      "size": 1,
      "price": "1011000000000000000000",
      "reserved": "",
      "salt": "0x18d0cd600015d25fa6ebdd06a7ac914a34c2c453d98b0e23a2daac63a914136b",
      "assetIds": []
    },
    {
      "x": 152,
      "y": 401,
      "size": 1,
      "price": "1011000000000000000000",
      "reserved": "",
      "salt": "0x6faa89b6488ec141d277c8124b01f4d4e641212ef561eb386d424735ef112601",
      "assetIds": []
    },
    {
      "x": 152,
      "y": 402,
      "size": 1,
      "price": "1011000000000000000000",
      "reserved": "",
      "salt": "0x57a1bbb40073bb21aa2ec0ad6c402700ee1c9defd92bc12df36a492d1dee1777",
      "assetIds": []
    },
    {
      "x": 152,
      "y": 403,
      "size": 1,
      "price": "1011000000000000000000",
      "reserved": "",
      "salt": "0xf7bdc7ad5a0b3ad75f68db82e936bb5fada22fc182771a900eb219a308dd17b6",
      "assetIds": []
    },
    {
      "x": 152,
      "y": 404,
      "size": 1,
      "price": "1011000000000000000000",
      "reserved": "0x7a9fe22691c811ea339d9b73150e6911a5343dca",
      "salt": "0x96508180dc16e5a46ce4bc4d56c0e3f772510bab2e250f3123f999d9b7afa962",
      "assetIds": []
    },
    {
      "x": 152,
      "y": 405,
      "size": 1,
      "price": "1011000000000000000000",
      "reserved": "",
      "salt": "0x258108543f5ca2da5a17dd2d2b176a9c62116bad0776d35d3fca4251b02b93e6",
      "assetIds": []
    },
    {
      "x": 152,
      "y": 406,
      "size": 1,
      "price": "1011000000000000000000",
      "reserved": "",
      "salt": "0x758451e9bb1e97406720337738efaa0f9df5f443f582d6bdc0012e1074aef195",
      "assetIds": []
    },
    {
      "x": 152,
      "y": 407,
      "size": 1,
      "price": "1011000000000000000000",
      "reserved": "",
      "salt": "0x4c115833b3e6fe0b608b5dbb6cd0a862c64477eee39b8a9123691a59ad72cea0",
      "assetIds": []
    },
    {
      "x": 153,
      "y": 353,
      "size": 1,
      "price": "1011000000000000000000",
      "reserved": "",
      "salt": "0x878e1eca8de097e3d195cb1068aba934929879020220cfbad6cf6ded76d44bed",
      "assetIds": []
    },
    {
      "x": 153,
      "y": 354,
      "size": 1,
      "price": "4683000000000000000000",
      "reserved": "",
      "salt": "0x30e9547c36f35d253b0501e393a78572368cc409c2c9cfc8bbf4aa23be98fd2c",
      "assetIds": [
        "41506478881403507969696680653240014914910929820314476107906210059990541021186"
      ]
    },
    {
      "x": 153,
      "y": 355,
      "size": 1,
      "price": "1011000000000000000000",
      "reserved": "0x7a9fe22691c811ea339d9b73150e6911a5343dca",
      "salt": "0x861e7b3dd7f405d6f93152e7b6098294f8830fb81db6ea7aa9dc00e4eb9db40b",
      "assetIds": []
    },
    {
      "x": 153,
      "y": 356,
      "size": 1,
      "price": "4683000000000000000000",
      "reserved": "",
      "salt": "0x3ff76d672e6e4f760e979e281039fc219768749a3cf46c3a47e662087978e991",
      "assetIds": [
        "41506478881403507969696680653240014914910929820314476107906210059990541021186"
      ]
    },
    {
      "x": 153,
      "y": 363,
      "size": 1,
      "price": "4683000000000000000000",
      "reserved": "",
      "salt": "0xb1d829cd327c417fe77c4247be7d9910c6f98f6fb05d3a12d0d94c73a3111fe4",
      "assetIds": [
        "41506478881403507969696680653240014914910929820314476107906210059990541021186"
      ]
    },
    {
      "x": 153,
      "y": 364,
      "size": 1,
      "price": "4683000000000000000000",
      "reserved": "",
      "salt": "0xae2341695e32439c59a09d8ea4e7c05c7b99c498017cc71d8f8a07b251b4c90e",
      "assetIds": [
        "41506478881403507969696680653240014914910929820314476107906210059990541021186"
      ]
    },
    {
      "x": 153,
      "y": 365,
      "size": 1,
      "price": "4683000000000000000000",
      "reserved": "",
      "salt": "0x75f1d7161003beabdb1a36c315a01f1757595752a74f22bebedd35b8b6b83b62",
      "assetIds": [
        "41506478881403507969696680653240014914910929820314476107906210059990541021186"
      ]
    },
    {
      "x": 153,
      "y": 372,
      "size": 1,
      "price": "4683000000000000000000",
      "reserved": "",
      "salt": "0x86922ce64c95a95df2de275af8f9f3cced94036cd47edd7f299983fd4b071377",
      "assetIds": [
        "41506478881403507969696680653240014914910929820314476107906210059990541021186"
      ]
    },
    {
      "x": 153,
      "y": 373,
      "size": 1,
      "price": "1011000000000000000000",
      "reserved": "",
      "salt": "0x3425bfcf7b77d97dbe336cc29cd1fc5c70575827ca1a24d5d7c8949b82e94ed6",
      "assetIds": []
    },
    {
      "x": 153,
      "y": 374,
      "size": 1,
      "price": "1011000000000000000000",
      "reserved": "0x7a9fe22691c811ea339d9b73150e6911a5343dca",
      "salt": "0x47d45e7adefa5985bca0113cbec07de257ad8406a77be35b32e606fa32f446e4",
      "assetIds": []
    },
    {
      "x": 153,
      "y": 375,
      "size": 1,
      "price": "1011000000000000000000",
      "reserved": "0x7a9fe22691c811ea339d9b73150e6911a5343dca",
      "salt": "0x4b983e4b7a274c5d0d631e911d3ee2976b5175bf28d85855c4deae601a1cad54",
      "assetIds": []
    },
    {
      "x": 153,
      "y": 376,
      "size": 1,
      "price": "1011000000000000000000",
      "reserved": "0x7a9fe22691c811ea339d9b73150e6911a5343dca",
      "salt": "0xf55d54cac14ef57967b5eedf6c9194d6f16a70a1f45f121a03fc4dbc7cf6dd9a",
      "assetIds": []
    },
    {
      "x": 153,
      "y": 377,
      "size": 1,
      "price": "1011000000000000000000",
      "reserved": "",
      "salt": "0x7d18f169ecb16fb968c32c4e55243e04f069f9310d7ca6c6a26c8ef930efc4bc",
      "assetIds": []
    },
    {
      "x": 153,
      "y": 384,
      "size": 1,
      "price": "1011000000000000000000",
      "reserved": "",
      "salt": "0x7d8cf31e93fc9f549d56d25afa4438ebfce5b3a6c9404a13ff09d9fbf2149aae",
      "assetIds": []
    },
    {
      "x": 153,
      "y": 385,
      "size": 1,
      "price": "1011000000000000000000",
      "reserved": "",
      "salt": "0x269308a1932164a6821596e38ad85e03b145f423d0f4d6e43278d6a5503c015c",
      "assetIds": []
    },
    {
      "x": 153,
      "y": 386,
      "size": 1,
      "price": "1011000000000000000000",
      "reserved": "0x7a9fe22691c811ea339d9b73150e6911a5343dca",
      "salt": "0x1f8c210a5a26d7c63004cb22f4a732ac0f558512d8923932355134f69aecad03",
      "assetIds": []
    },
    {
      "x": 153,
      "y": 387,
      "size": 1,
      "price": "1011000000000000000000",
      "reserved": "",
      "salt": "0xd3bb1322776fe349e0147176d16fef8b26999e2fdd30d7edbb364d9cb4fd3819",
      "assetIds": []
    },
    {
      "x": 153,
      "y": 388,
      "size": 1,
      "price": "1011000000000000000000",
      "reserved": "",
      "salt": "0x93be21076b7e3180e478b098f96098174f18655658b76e06b139e96f437c6547",
      "assetIds": []
    },
    {
      "x": 153,
      "y": 389,
      "size": 1,
      "price": "4683000000000000000000",
      "reserved": "",
      "salt": "0x7fef64d7f2d0dc169e382810065a7d7d6153f7c29f9f4082eb07465a037bbc11",
      "assetIds": [
        "41506478881403507969696680653240014914910929820314476107906210059990541021186"
      ]
    },
    {
      "x": 153,
      "y": 396,
      "size": 1,
      "price": "4683000000000000000000",
      "reserved": "",
      "salt": "0xf500068cac842b58a0011c0da2672a9a1b80fd97294107ffcea5743f4759f02b",
      "assetIds": [
        "41506478881403507969696680653240014914910929820314476107906210059990541021186"
      ]
    },
    {
      "x": 153,
      "y": 397,
      "size": 1,
      "price": "1011000000000000000000",
      "reserved": "",
      "salt": "0x6183cc89fc3e9427941bd0e08d469338a93b3d4f30cbde2058c496202db169df",
      "assetIds": []
    },
    {
      "x": 153,
      "y": 398,
      "size": 1,
      "price": "1011000000000000000000",
      "reserved": "",
      "salt": "0x316c22acb5218f2cebdf59b6d5cffa4d86be70ed46cef5412749f01073712ad0",
      "assetIds": []
    },
    {
      "x": 153,
      "y": 399,
      "size": 1,
      "price": "1011000000000000000000",
      "reserved": "",
      "salt": "0x919c7e29ee4e76f7596c562c7645838ad5b24ed007aafd44d6acd44d511cd83a",
      "assetIds": []
    },
    {
      "x": 153,
      "y": 400,
      "size": 1,
      "price": "1011000000000000000000",
      "reserved": "",
      "salt": "0x37b825073f1e3b78cfa3e9a696047c5652555e228c318641494eb2cf57d98700",
      "assetIds": []
    },
    {
      "x": 153,
      "y": 401,
      "size": 1,
      "price": "1011000000000000000000",
      "reserved": "",
      "salt": "0x0892d7ff5b051d88d712e799406ab4d46b25df40f69d882541de8269d7721e31",
      "assetIds": []
    },
    {
      "x": 153,
      "y": 402,
      "size": 1,
      "price": "1011000000000000000000",
      "reserved": "",
      "salt": "0x311463bcb3aebd3af9003429dfea3087449966810b7ffbacefbe30b6eb5c6634",
      "assetIds": []
    },
    {
      "x": 153,
      "y": 403,
      "size": 1,
      "price": "1011000000000000000000",
      "reserved": "",
      "salt": "0x26960e16d5c5be5042aed5db69ba9c9b1eb8e0ba7ad24c79fcd6b8779bf92557",
      "assetIds": []
    },
    {
      "x": 153,
      "y": 404,
      "size": 1,
      "price": "1011000000000000000000",
      "reserved": "",
      "salt": "0xe8794d043a32adfe7bf73c6e29a586c796e16796bb29902ba03c6c48c8d6965a",
      "assetIds": []
    },
    {
      "x": 153,
      "y": 405,
      "size": 1,
      "price": "1011000000000000000000",
      "reserved": "",
      "salt": "0xb7dd19be37869e2f24fd94d358b3064bbdd4358d138a26a4bb2520267b7b74a6",
      "assetIds": []
    },
    {
      "x": 153,
      "y": 406,
      "size": 1,
      "price": "1011000000000000000000",
      "reserved": "",
      "salt": "0x7b097e0187ce3ae0fbee3b2b8b47a620be50864f93061801ca0d291be519496f",
      "assetIds": []
    },
    {
      "x": 153,
      "y": 407,
      "size": 1,
      "price": "1011000000000000000000",
      "reserved": "",
      "salt": "0x2c24d17ec6bd02bee7a8012177560c3c8cb24ac3834db9809f693b185be30e39",
      "assetIds": []
    },
    {
      "x": 154,
      "y": 353,
      "size": 1,
      "price": "1011000000000000000000",
      "reserved": "",
      "salt": "0x31b3af15d97a6d4d68e222b808df223539960575fab31defb63c86ca9e981c21",
      "assetIds": []
    },
    {
      "x": 154,
      "y": 354,
      "size": 1,
      "price": "4683000000000000000000",
      "reserved": "",
      "salt": "0x9a6bb41c560955bf5cef581a34aa065ac07860aebe4395f9df2ffdc7ac345336",
      "assetIds": [
        "41506478881403507969696680653240014914910929820314476107906210059990541021186"
      ]
    },
    {
      "x": 154,
      "y": 355,
      "size": 1,
      "price": "4683000000000000000000",
      "reserved": "",
      "salt": "0x7cb97f408914a0392d9b1a40eb22cb74affc10b14391e138dec090fd4e3ab74b",
      "assetIds": [
        "41506478881403507969696680653240014914910929820314476107906210059990541021186"
      ]
    },
    {
      "x": 154,
      "y": 356,
      "size": 1,
      "price": "4683000000000000000000",
      "reserved": "",
      "salt": "0x07f1ed4c8cdc5f5c520186939155ed00e0c10f7ca55d34ac7e7a5f977e942fa7",
      "assetIds": [
        "41506478881403507969696680653240014914910929820314476107906210059990541021186"
      ]
    },
    {
      "x": 154,
      "y": 363,
      "size": 1,
      "price": "4683000000000000000000",
      "reserved": "",
      "salt": "0x8150bea8c87945b5caf4b16f7b42a5a75f98843ed3381fadfe00f4b4c8397965",
      "assetIds": [
        "41506478881403507969696680653240014914910929820314476107906210059990541021186"
      ]
    },
    {
      "x": 154,
      "y": 364,
      "size": 1,
      "price": "1011000000000000000000",
      "reserved": "",
      "salt": "0x85ac533b423c595e4c26ee4dbdf76825106999ff16bc9f989fd97054fdfaf5a1",
      "assetIds": []
    },
    {
      "x": 154,
      "y": 365,
      "size": 1,
      "price": "4683000000000000000000",
      "reserved": "",
      "salt": "0xaf08b6b2b43fc70453343dda63792d286be716b9bfa62dee593ce734b270fc7b",
      "assetIds": [
        "41506478881403507969696680653240014914910929820314476107906210059990541021186"
      ]
    },
    {
      "x": 154,
      "y": 372,
      "size": 1,
      "price": "4683000000000000000000",
      "reserved": "",
      "salt": "0x67798f182dcba65e697edb7764eb8aa17865f0181844f8d711684d0c136884cc",
      "assetIds": [
        "41506478881403507969696680653240014914910929820314476107906210059990541021186"
      ]
    },
    {
      "x": 154,
      "y": 373,
      "size": 1,
      "price": "1011000000000000000000",
      "reserved": "",
      "salt": "0xfe0fbdaa6cc73911fae5caefd98211be01b37983eff11ba021a9974db73126d9",
      "assetIds": []
    },
    {
      "x": 154,
      "y": 374,
      "size": 1,
      "price": "1011000000000000000000",
      "reserved": "",
      "salt": "0x044eb50a04b7e75cc7e22d556a0693d66167105b0e65826633650e236e525a29",
      "assetIds": []
    },
    {
      "x": 154,
      "y": 375,
      "size": 1,
      "price": "1011000000000000000000",
      "reserved": "",
      "salt": "0x7048133de7ff1067ddd38e076728fd7d3ec8804b5c4964a94f61fa5ee1a09576",
      "assetIds": []
    },
    {
      "x": 154,
      "y": 376,
      "size": 1,
      "price": "1011000000000000000000",
      "reserved": "",
      "salt": "0x01c7133fdd942b66d1449642e9d90ebfabeb481fcb64f28fe3c8b444e3aa57ac",
      "assetIds": []
    },
    {
      "x": 154,
      "y": 377,
      "size": 1,
      "price": "1011000000000000000000",
      "reserved": "",
      "salt": "0xdaccee8d9ffac6ca8f0b244e3d575c8441fe51a2488833081ac48a6edc6a7bbf",
      "assetIds": []
    },
    {
      "x": 154,
      "y": 384,
      "size": 1,
      "price": "1011000000000000000000",
      "reserved": "0x7a9fe22691c811ea339d9b73150e6911a5343dca",
      "salt": "0x6d8eb379ca45332f66515af86fe22f0474a27e32d3cd986ac99739f3c592c0d4",
      "assetIds": []
    },
    {
      "x": 154,
      "y": 385,
      "size": 1,
      "price": "1011000000000000000000",
      "reserved": "",
      "salt": "0x8abcd27b639ac94455cba1b98f0f8d33d83d6c911c3b608ec955db0f4979b4c8",
      "assetIds": []
    },
    {
      "x": 154,
      "y": 386,
      "size": 1,
      "price": "1011000000000000000000",
      "reserved": "",
      "salt": "0xdafc2a963219dd6a12ed452040d7aeaf41de5e69b82f924d0d50adc312513210",
      "assetIds": []
    },
    {
      "x": 154,
      "y": 387,
      "size": 1,
      "price": "1011000000000000000000",
      "reserved": "",
      "salt": "0xa170f42c31bdb40755edc2ae67eaca1dea0d3a8a5759d8f82f6b675eebce0137",
      "assetIds": []
    },
    {
      "x": 154,
      "y": 388,
      "size": 1,
      "price": "1011000000000000000000",
      "reserved": "",
      "salt": "0x61789db04b4190fc7f32d0c07135f82375d6067e78d19dffc0fdf88b661195af",
      "assetIds": []
    },
    {
      "x": 154,
      "y": 389,
      "size": 1,
      "price": "4683000000000000000000",
      "reserved": "",
      "salt": "0x438a804304c8c9f66de4e07afc870ec5ee37e9aa4b393a470b9b9cd2a7146590",
      "assetIds": [
        "41506478881403507969696680653240014914910929820314476107906210059990541021186"
      ]
    },
    {
      "x": 154,
      "y": 396,
      "size": 1,
      "price": "4683000000000000000000",
      "reserved": "",
      "salt": "0x1fcc6dce49ed5739332c4553a560c5dbab54b60a43fc0db3f9a2e1bd64941e34",
      "assetIds": [
        "41506478881403507969696680653240014914910929820314476107906210059990541021186"
      ]
    },
    {
      "x": 154,
      "y": 397,
      "size": 1,
      "price": "1011000000000000000000",
      "reserved": "0x7a9fe22691c811ea339d9b73150e6911a5343dca",
      "salt": "0xb725c965777f5f3be250681a938c5a33373c0640f8d03265bca6be61853102f6",
      "assetIds": []
    },
    {
      "x": 154,
      "y": 398,
      "size": 1,
      "price": "1011000000000000000000",
      "reserved": "",
      "salt": "0xe2c20799c844dae49d6e1c0ece7bfa3d1070161e4d82b819115c120373be6fa3",
      "assetIds": []
    },
    {
      "x": 154,
      "y": 399,
      "size": 1,
      "price": "1011000000000000000000",
      "reserved": "",
      "salt": "0x5cf52ae499c0be147b056cc1e3909a6343484fa3ac7a1dd3ff1a94006e8dfaef",
      "assetIds": []
    },
    {
      "x": 154,
      "y": 400,
      "size": 1,
      "price": "1011000000000000000000",
      "reserved": "0x7a9fe22691c811ea339d9b73150e6911a5343dca",
      "salt": "0x542344897fee27ea1635ee14fcb68fe59c1d1092519f4900e7956f239d4b774c",
      "assetIds": []
    },
    {
      "x": 154,
      "y": 401,
      "size": 1,
      "price": "1011000000000000000000",
      "reserved": "",
      "salt": "0x41ab31c321772b09383d5ab8808ffa983052be51b8390dc9137b2845f4cd767f",
      "assetIds": []
    },
    {
      "x": 154,
      "y": 402,
      "size": 1,
      "price": "1011000000000000000000",
      "reserved": "",
      "salt": "0x78a8491c12baa98e91eccecb214952fb16abcc70b9375b4ece49e12870310a7e",
      "assetIds": []
    },
    {
      "x": 154,
      "y": 403,
      "size": 1,
      "price": "1011000000000000000000",
      "reserved": "",
      "salt": "0x58cec6662488dd9cad998390012ced44f281075e6c5b4ab5bbf1d7b6d7f63778",
      "assetIds": []
    },
    {
      "x": 154,
      "y": 404,
      "size": 1,
      "price": "1011000000000000000000",
      "reserved": "",
      "salt": "0xf674a07600dbbe23c6606cf820d223935888f573f629ab7c60ea921ae51d4127",
      "assetIds": []
    },
    {
      "x": 154,
      "y": 405,
      "size": 1,
      "price": "1011000000000000000000",
      "reserved": "0x7a9fe22691c811ea339d9b73150e6911a5343dca",
      "salt": "0x740d7880f5d0030389769fb7e1a3359d81955b795ab90798303dccc9b5028e1a",
      "assetIds": []
    },
    {
      "x": 154,
      "y": 406,
      "size": 1,
      "price": "1011000000000000000000",
      "reserved": "",
      "salt": "0x8278cf2932adc2a3c44f127a16006b981b110332460d86d5685eb9a0930d0354",
      "assetIds": []
    },
    {
      "x": 154,
      "y": 407,
      "size": 1,
      "price": "1011000000000000000000",
      "reserved": "",
      "salt": "0xdcacd50d383bd7448ca2209b6d8609670c00d91396f1b04506fc4095fa6170d8",
      "assetIds": []
    },
    {
      "x": 155,
      "y": 353,
      "size": 1,
      "price": "1011000000000000000000",
      "reserved": "",
      "salt": "0x7a7d5f34d750a79fba901d3a4e0bdfeb572f371c7d1a2bcf82935f52d290884a",
      "assetIds": []
    },
    {
      "x": 155,
      "y": 354,
      "size": 1,
      "price": "4683000000000000000000",
      "reserved": "",
      "salt": "0xe931ba91ed44ac90d18294b56b282a734d650377bdf85d8c61b3968e6f3bf8de",
      "assetIds": [
        "41506478881403507969696680653240014914910929820314476107906210059990541021186"
      ]
    },
    {
      "x": 155,
      "y": 355,
      "size": 1,
      "price": "1011000000000000000000",
      "reserved": "0x7a9fe22691c811ea339d9b73150e6911a5343dca",
      "salt": "0x5e2d8276dc3dc13e9e1dd003d9447170457f2fdcb0be6d21833ddb4b0558c5f7",
      "assetIds": []
    },
    {
      "x": 155,
      "y": 356,
      "size": 1,
      "price": "4683000000000000000000",
      "reserved": "",
      "salt": "0x2185f6bc0d14957559725ffbc2056be05b42098125213f8f7418a729cabb42f3",
      "assetIds": [
        "41506478881403507969696680653240014914910929820314476107906210059990541021186"
      ]
    },
    {
      "x": 155,
      "y": 363,
      "size": 1,
      "price": "4683000000000000000000",
      "reserved": "",
      "salt": "0xd59c3fb56cde32be3f4808b7bd07d0bd6f0f322ff145b06b5b869af21d9af2ff",
      "assetIds": [
        "41506478881403507969696680653240014914910929820314476107906210059990541021186"
      ]
    },
    {
      "x": 155,
      "y": 364,
      "size": 1,
      "price": "1011000000000000000000",
      "reserved": "0x7a9fe22691c811ea339d9b73150e6911a5343dca",
      "salt": "0xd50a64ce8512746c558a540c43f30b6b35421bf3c7d0395b948944703c145488",
      "assetIds": []
    },
    {
      "x": 155,
      "y": 365,
      "size": 1,
      "price": "1011000000000000000000",
      "reserved": "",
      "salt": "0xb189a8db58fe5ce1de84049f4ef35a1ea95532be297df10f96471074178eef88",
      "assetIds": []
    },
    {
      "x": 155,
      "y": 372,
      "size": 1,
      "price": "4683000000000000000000",
      "reserved": "",
      "salt": "0xeb18c3e4efca88252d8f4319db114c4d4069d5b2f6b638603604933499fc90be",
      "assetIds": [
        "41506478881403507969696680653240014914910929820314476107906210059990541021186"
      ]
    },
    {
      "x": 155,
      "y": 373,
      "size": 1,
      "price": "1011000000000000000000",
      "reserved": "0x7a9fe22691c811ea339d9b73150e6911a5343dca",
      "salt": "0x3252a9bf1b40b0f4928062925bad6ab2eafd3802c160fd48dbbfd7bfd305d2d7",
      "assetIds": []
    },
    {
      "x": 155,
      "y": 374,
      "size": 1,
      "price": "1011000000000000000000",
      "reserved": "",
      "salt": "0xaabd3a8e8b569beab026b7c53c62ac9d739ef11ce4ea9f97d6a5ee4f0b0c8163",
      "assetIds": []
    },
    {
      "x": 155,
      "y": 375,
      "size": 1,
      "price": "1011000000000000000000",
      "reserved": "0x7a9fe22691c811ea339d9b73150e6911a5343dca",
      "salt": "0xd2258ecef649c3ddc36f71ac3083fe8f46730568758d2494c0d0442fed2465e4",
      "assetIds": []
    },
    {
      "x": 155,
      "y": 376,
      "size": 1,
      "price": "1011000000000000000000",
      "reserved": "",
      "salt": "0xebec95b7eab5293c93f71ec5c7be8d0bce67efeb4bfb7d2a76aeeeeb51303040",
      "assetIds": []
    },
    {
      "x": 155,
      "y": 377,
      "size": 1,
      "price": "1011000000000000000000",
      "reserved": "0x7a9fe22691c811ea339d9b73150e6911a5343dca",
      "salt": "0x57fbac049f5c142a9acc0f05fdec711a51243e948ba9b998396c5e2add9d6ac0",
      "assetIds": []
    },
    {
      "x": 155,
      "y": 384,
      "size": 1,
      "price": "1011000000000000000000",
      "reserved": "",
      "salt": "0x726adc5ed41bab0605b3f642459cbd586b07a2bb391b461f9ad891e4cfa14753",
      "assetIds": []
    },
    {
      "x": 155,
      "y": 385,
      "size": 1,
      "price": "1011000000000000000000",
      "reserved": "",
      "salt": "0xfe36916df14665a495b784ae96fdad77c032dc2a7acdbfa9508fcab5d9b161c3",
      "assetIds": []
    },
    {
      "x": 155,
      "y": 386,
      "size": 1,
      "price": "1011000000000000000000",
      "reserved": "0x7a9fe22691c811ea339d9b73150e6911a5343dca",
      "salt": "0xd6bc18df672846757d125464f9deb9b23cc74377174a861e15d3d4b5b4ebfa41",
      "assetIds": []
    },
    {
      "x": 155,
      "y": 387,
      "size": 1,
      "price": "1011000000000000000000",
      "reserved": "",
      "salt": "0xd08c664ddec5089ee0469c396faffa01f4dac261dc39ca599ebc09c72f31db8a",
      "assetIds": []
    },
    {
      "x": 155,
      "y": 388,
      "size": 1,
      "price": "1011000000000000000000",
      "reserved": "0x7a9fe22691c811ea339d9b73150e6911a5343dca",
      "salt": "0x1d78d8fc63fac186ce3d9afedf9c62bd54251e38a395d289f0cc3a30477b0139",
      "assetIds": []
    },
    {
      "x": 155,
      "y": 389,
      "size": 1,
      "price": "4683000000000000000000",
      "reserved": "",
      "salt": "0x870122595de228ac55bea816201122e9e2cb9dc9b618fa724e14852ec124506e",
      "assetIds": [
        "41506478881403507969696680653240014914910929820314476107906210059990541021186"
      ]
    },
    {
      "x": 155,
      "y": 396,
      "size": 1,
      "price": "4683000000000000000000",
      "reserved": "",
      "salt": "0x3d41cdb853a74494735d09f00bb1c05b3742689c244445691c0667223f9e088a",
      "assetIds": [
        "41506478881403507969696680653240014914910929820314476107906210059990541021186"
      ]
    },
    {
      "x": 155,
      "y": 397,
      "size": 1,
      "price": "1011000000000000000000",
      "reserved": "",
      "salt": "0xcdb961c98b3cc6a5385361d3c9c1919773163b70febc512df0115c8f843b2906",
      "assetIds": []
    },
    {
      "x": 155,
      "y": 398,
      "size": 1,
      "price": "1011000000000000000000",
      "reserved": "",
      "salt": "0x5fa0e22d4275f19cf29aa7cd6ced84afc404b99ca1772cd0215bef018bdf4c0f",
      "assetIds": []
    },
    {
      "x": 155,
      "y": 399,
      "size": 1,
      "price": "1011000000000000000000",
      "reserved": "",
      "salt": "0x40738306dd2bbe073d66fda0349cb4c1052d8f06aa7bc72fec4536a93f73bacc",
      "assetIds": []
    },
    {
      "x": 155,
      "y": 400,
      "size": 1,
      "price": "1011000000000000000000",
      "reserved": "",
      "salt": "0x244c36796f97a243d761198e783dce34cd9e9ed595d34b166d401b67a465cced",
      "assetIds": []
    },
    {
      "x": 155,
      "y": 401,
      "size": 1,
      "price": "1011000000000000000000",
      "reserved": "",
      "salt": "0x9175c3a894fb77e003107c832a9fd918212a3cb3d99973563434a3140cf43188",
      "assetIds": []
    },
    {
      "x": 155,
      "y": 402,
      "size": 1,
      "price": "1011000000000000000000",
      "reserved": "",
      "salt": "0x68339adc8f01bb2998afc340ebc9a75b87e028076f09716247e0240f06e066ad",
      "assetIds": []
    },
    {
      "x": 155,
      "y": 403,
      "size": 1,
      "price": "1011000000000000000000",
      "reserved": "",
      "salt": "0x5cbb3c59a5a1f556d4e6cb5b848f7f7d6ad12e3e9eddfd076373fe084c94d106",
      "assetIds": []
    },
    {
      "x": 155,
      "y": 404,
      "size": 1,
      "price": "1011000000000000000000",
      "reserved": "",
      "salt": "0xb8e8392e7f9b20eb21d23939fa5ec59adbd8ec6a68aa8fe307db93a0131cf4d4",
      "assetIds": []
    },
    {
      "x": 155,
      "y": 405,
      "size": 1,
      "price": "1011000000000000000000",
      "reserved": "",
      "salt": "0x219960aa2bfe325d85f817d895ed1373fa8095f7bfb4b68b7fb18f5ae82073ce",
      "assetIds": []
    },
    {
      "x": 155,
      "y": 406,
      "size": 1,
      "price": "1011000000000000000000",
      "reserved": "",
      "salt": "0xa4439d814f6b9d7f2a4470a5326a38cf4c5b915ad4717f5b8259806db48e1c2c",
      "assetIds": []
    },
    {
      "x": 155,
      "y": 407,
      "size": 1,
      "price": "1011000000000000000000",
      "reserved": "",
      "salt": "0x00d6a759fba5494de51961c286ecc5c51d4d45ce98a5e1374271a74c304cc208",
      "assetIds": []
    },
    {
      "x": 156,
      "y": 353,
      "size": 1,
      "price": "1011000000000000000000",
      "reserved": "",
      "salt": "0xcb7d22848fbfa36c65dd6cb8d987a1b49896bde22856dd654ac5826c8f82d4b9",
      "assetIds": []
    },
    {
      "x": 156,
      "y": 354,
      "size": 1,
      "price": "4683000000000000000000",
      "reserved": "",
      "salt": "0x97d0a49d7ba7f70ec4eda1d60e1002a9312c51cb30338030e46c3f764d81553e",
      "assetIds": [
        "41506478881403507969696680653240014914910929820314476107906210059990541021186"
      ]
    },
    {
      "x": 156,
      "y": 355,
      "size": 1,
      "price": "4683000000000000000000",
      "reserved": "",
      "salt": "0x5e9436eec7b28f5f182590743858e2815c157611356e53a6136accc616e0d115",
      "assetIds": [
        "41506478881403507969696680653240014914910929820314476107906210059990541021186"
      ]
    },
    {
      "x": 156,
      "y": 356,
      "size": 1,
      "price": "4683000000000000000000",
      "reserved": "",
      "salt": "0x99e598b9509802b9bbf09a44d432cd6fbae561eb609547d33a09ede8c976e6ba",
      "assetIds": [
        "41506478881403507969696680653240014914910929820314476107906210059990541021186"
      ]
    },
    {
      "x": 156,
      "y": 357,
      "size": 1,
      "price": "4683000000000000000000",
      "reserved": "",
      "salt": "0x730f7d3b09c699fb9800c769b18011cb29e082ea6771cdd2d03caf7f39cc88b9",
      "assetIds": [
        "41506478881403507969696680653240014914910929820314476107906210059990541021186"
      ]
    },
    {
      "x": 156,
      "y": 358,
      "size": 1,
      "price": "4683000000000000000000",
      "reserved": "",
      "salt": "0xcf54f20c2a376b1525c0e55560176e6c74cc930168beac8f65a50a89f6965b28",
      "assetIds": [
        "41506478881403507969696680653240014914910929820314476107906210059990541021186"
      ]
    },
    {
      "x": 156,
      "y": 359,
      "size": 1,
      "price": "4683000000000000000000",
      "reserved": "",
      "salt": "0xaa44036edf82f65c5661332b854679e9e7b2132e3c9192ca907e171de2c25c41",
      "assetIds": [
        "41506478881403507969696680653240014914910929820314476107906210059990541021186"
      ]
    },
    {
      "x": 156,
      "y": 360,
      "size": 1,
      "price": "4683000000000000000000",
      "reserved": "",
      "salt": "0xe8e4b8bb67beb749df31f4f0cb6d80dd84a5c0aceec7b9cbf91fd8a1615a4d22",
      "assetIds": [
        "41506478881403507969696680653240014914910929820314476107906210059990541021186"
      ]
    },
    {
      "x": 156,
      "y": 361,
      "size": 1,
      "price": "4683000000000000000000",
      "reserved": "",
      "salt": "0x086bf9e2fc00e16565aec45addc29385e04c220636395c4ad3b05eaff1311bb9",
      "assetIds": [
        "41506478881403507969696680653240014914910929820314476107906210059990541021186"
      ]
    },
    {
      "x": 156,
      "y": 362,
      "size": 1,
      "price": "4683000000000000000000",
      "reserved": "",
      "salt": "0x85b518e29e9b2872584511848652a5e253bf4bb4cd629933bdfec8620b22f6e6",
      "assetIds": [
        "41506478881403507969696680653240014914910929820314476107906210059990541021186"
      ]
    },
    {
      "x": 156,
      "y": 363,
      "size": 1,
      "price": "4683000000000000000000",
      "reserved": "",
      "salt": "0x6fda725e65fa415fde1796a913214b8efd4996aaf83434f078e59730ef95c2aa",
      "assetIds": [
        "41506478881403507969696680653240014914910929820314476107906210059990541021186"
      ]
    },
    {
      "x": 156,
      "y": 364,
      "size": 1,
      "price": "1011000000000000000000",
      "reserved": "",
      "salt": "0x9fb2e5da5ffcd4d67b8631b496c5ddea2ef905e60e013b9205d63285673b9345",
      "assetIds": []
    },
    {
      "x": 156,
      "y": 365,
      "size": 1,
      "price": "1011000000000000000000",
      "reserved": "0x7a9fe22691c811ea339d9b73150e6911a5343dca",
      "salt": "0x12176e3a955b2394dff0ac345d4ce3857cef3b31514424429df002189f9a79a7",
      "assetIds": []
    },
    {
      "x": 156,
      "y": 366,
      "size": 1,
      "price": "4683000000000000000000",
      "reserved": "",
      "salt": "0x1199c3cb37daff8e3265b1e86711aacf460167274e9b85212d005924f02427bd",
      "assetIds": [
        "41506478881403507969696680653240014914910929820314476107906210059990541021186"
      ]
    },
    {
      "x": 156,
      "y": 367,
      "size": 1,
      "price": "4683000000000000000000",
      "reserved": "",
      "salt": "0xf397b1cca649e241707257609c861fe1e64a916b22fc82f345c9b4d02aa1c82c",
      "assetIds": [
        "41506478881403507969696680653240014914910929820314476107906210059990541021186"
      ]
    },
    {
      "x": 156,
      "y": 368,
      "size": 1,
      "price": "4683000000000000000000",
      "reserved": "",
      "salt": "0xcc199db4536c64cfe897b7ad92dc8af7cc2efdadf8ef4a15fdb4e94634630b9d",
      "assetIds": [
        "41506478881403507969696680653240014914910929820314476107906210059990541021186"
      ]
    },
    {
      "x": 156,
      "y": 369,
      "size": 1,
      "price": "4683000000000000000000",
      "reserved": "",
      "salt": "0x134ecb3de25a56569210d8e6d92b4d37002873fd4fc01469933a02c5c9a09da9",
      "assetIds": [
        "41506478881403507969696680653240014914910929820314476107906210059990541021186"
      ]
    },
    {
      "x": 156,
      "y": 370,
      "size": 1,
      "price": "4683000000000000000000",
      "reserved": "",
      "salt": "0xb5e4e0adc5bae83896307121e706c1af45cc18bdc3564adf9be7df3d5d422634",
      "assetIds": [
        "41506478881403507969696680653240014914910929820314476107906210059990541021186"
      ]
    },
    {
      "x": 156,
      "y": 371,
      "size": 1,
      "price": "4683000000000000000000",
      "reserved": "",
      "salt": "0x944393d434a9995f3d1e7fed972cc0a7d4c7ea3f2779475c95f332f4363c0741",
      "assetIds": [
        "41506478881403507969696680653240014914910929820314476107906210059990541021186"
      ]
    },
    {
      "x": 156,
      "y": 384,
      "size": 1,
      "price": "1011000000000000000000",
      "reserved": "",
      "salt": "0xce51fc68eddf4f380f5d61a6c45df9ebe43069a5f07f277778edb34ebd601079",
      "assetIds": []
    },
    {
      "x": 156,
      "y": 385,
      "size": 1,
      "price": "1011000000000000000000",
      "reserved": "0x7a9fe22691c811ea339d9b73150e6911a5343dca",
      "salt": "0x26eebe0a65c73e6901e4b3da839543e6e62c91b3512a7bee488ad02a44db91d7",
      "assetIds": []
    },
    {
      "x": 156,
      "y": 386,
      "size": 1,
      "price": "1011000000000000000000",
      "reserved": "0x7a9fe22691c811ea339d9b73150e6911a5343dca",
      "salt": "0x3a9525c985b130d97bd1b40924508bdff2d137bb2f856c568ff52601c4a7bb80",
      "assetIds": []
    },
    {
      "x": 156,
      "y": 387,
      "size": 1,
      "price": "1011000000000000000000",
      "reserved": "",
      "salt": "0xf6cf3abdb4cf2005e5392b874a5c9009dd63c446670b8cf984ed5716c358d0d2",
      "assetIds": []
    },
    {
      "x": 156,
      "y": 388,
      "size": 1,
      "price": "1011000000000000000000",
      "reserved": "0x7a9fe22691c811ea339d9b73150e6911a5343dca",
      "salt": "0xc30ec46b47aa2b14e0bdf082e0ee62bce4e03082f94f03f72dc3a1994da3c1e4",
      "assetIds": []
    },
    {
      "x": 156,
      "y": 389,
      "size": 1,
      "price": "4683000000000000000000",
      "reserved": "",
      "salt": "0xa0a9436e7583a5de4e5e23b540c6be095de71ee32d8a448d0dc913d4a2be12a2",
      "assetIds": [
        "41506478881403507969696680653240014914910929820314476107906210059990541021186"
      ]
    },
    {
      "x": 156,
      "y": 390,
      "size": 1,
      "price": "4683000000000000000000",
      "reserved": "",
      "salt": "0xb99e401a6f14b34afb3d66a5d38048dd905d37bab2d422aa7ab4cdc406c057e6",
      "assetIds": [
        "41506478881403507969696680653240014914910929820314476107906210059990541021186"
      ]
    },
    {
      "x": 156,
      "y": 391,
      "size": 1,
      "price": "4683000000000000000000",
      "reserved": "",
      "salt": "0x4a959d2afacb61d2474a187050dc4f6a9454b8f4d96a22cb091a0bf8d03b617a",
      "assetIds": [
        "41506478881403507969696680653240014914910929820314476107906210059990541021186"
      ]
    },
    {
      "x": 156,
      "y": 392,
      "size": 1,
      "price": "4683000000000000000000",
      "reserved": "",
      "salt": "0x755dde4560e47245d2bc68891067ac96b14a6f41157c863c2b75bb03ad50419c",
      "assetIds": [
        "41506478881403507969696680653240014914910929820314476107906210059990541021186"
      ]
    },
    {
      "x": 156,
      "y": 393,
      "size": 1,
      "price": "4683000000000000000000",
      "reserved": "",
      "salt": "0x36c0d513d2a2269edd7b8822a7a7ee493ecff6a8955d383d6f28baae1e8459e2",
      "assetIds": [
        "41506478881403507969696680653240014914910929820314476107906210059990541021186"
      ]
    },
    {
      "x": 156,
      "y": 394,
      "size": 1,
      "price": "4683000000000000000000",
      "reserved": "",
      "salt": "0x17265f82fd482ce617a2fb86aa2d944bee5991074542dcfe867c8e7af1881832",
      "assetIds": [
        "41506478881403507969696680653240014914910929820314476107906210059990541021186"
      ]
    },
    {
      "x": 156,
      "y": 395,
      "size": 1,
      "price": "4683000000000000000000",
      "reserved": "",
      "salt": "0x4184ba8257f49899b27ad4e8418cd816f07c1da91a2312f85ad926287874fb48",
      "assetIds": [
        "41506478881403507969696680653240014914910929820314476107906210059990541021186"
      ]
    },
    {
      "x": 157,
      "y": 353,
      "size": 1,
      "price": "1011000000000000000000",
      "reserved": "",
      "salt": "0xc4716250c076ad55dbe6526b36a75bde174294d28ec8fc5b3c48c88909f03601",
      "assetIds": []
    },
    {
      "x": 157,
      "y": 354,
      "size": 1,
      "price": "1011000000000000000000",
      "reserved": "",
      "salt": "0x7d0e1401394d06e801cd690efa836f5c2ad250a8f161d60186629c7fb98dbf0a",
      "assetIds": []
    },
    {
      "x": 157,
      "y": 355,
      "size": 1,
      "price": "1011000000000000000000",
      "reserved": "",
      "salt": "0x661fbbf80ba0c02689b97b06a64eadee3a6b28d62d45bb088d51b98abbd5e28b",
      "assetIds": []
    },
    {
      "x": 157,
      "y": 356,
      "size": 1,
      "price": "4683000000000000000000",
      "reserved": "",
      "salt": "0x3f0abc9e84556a1b57ca3afb0ca7e66e319438ae9eb45f7c16d56279c3536d40",
      "assetIds": [
        "41506478881403507969696680653240014914910929820314476107906210059990541021186"
      ]
    },
    {
      "x": 157,
      "y": 357,
      "size": 1,
      "price": "4683000000000000000000",
      "reserved": "",
      "salt": "0x4c055f0477717aac59b194134f102bf4a79eb9244f98e63c5ec300947fd4fe31",
      "assetIds": [
        "41506478881403507969696680653240014914910929820314476107906210059990541021186"
      ]
    },
    {
      "x": 157,
      "y": 358,
      "size": 1,
      "price": "4683000000000000000000",
      "reserved": "",
      "salt": "0xa7b8a6bd4ec4f6fa492adc7e341d71bca04207097e9e853d6ff40b2c9418c468",
      "assetIds": [
        "41506478881403507969696680653240014914910929820314476107906210059990541021186"
      ]
    },
    {
      "x": 157,
      "y": 359,
      "size": 1,
      "price": "4683000000000000000000",
      "reserved": "",
      "salt": "0x00f53a20219ec557e43e1b1764f318cf9447a6b20d7cb42d2d3bf2dbb3262224",
      "assetIds": [
        "41506478881403507969696680653240014914910929820314476107906210059990541021186"
      ]
    },
    {
      "x": 157,
      "y": 360,
      "size": 1,
      "price": "1011000000000000000000",
      "reserved": "0x7a9fe22691c811ea339d9b73150e6911a5343dca",
      "salt": "0x675070a5a449748eea25306ccf7280aeb7044f04f09a22c30ab7f211609c92d8",
      "assetIds": []
    },
    {
      "x": 157,
      "y": 361,
      "size": 1,
      "price": "1011000000000000000000",
      "reserved": "",
      "salt": "0xec03a1e668a047b370f178392906d5034db75f46f6b80ba13b43e5d98583942b",
      "assetIds": []
    },
    {
      "x": 157,
      "y": 362,
      "size": 1,
      "price": "1011000000000000000000",
      "reserved": "",
      "salt": "0x9f9314510bf37951c230485b95bd4138f3341928fdef92eca65c48b4f102f4f0",
      "assetIds": []
    },
    {
      "x": 157,
      "y": 363,
      "size": 1,
      "price": "1011000000000000000000",
      "reserved": "",
      "salt": "0xff494883f710315b1f54e4fd593726a20273413a804c1beb46d7b218f75a0099",
      "assetIds": []
    },
    {
      "x": 157,
      "y": 364,
      "size": 1,
      "price": "1011000000000000000000",
      "reserved": "",
      "salt": "0x06e52d3303feb00719be6a2d81b8e3929578c756df82ba8ef34f5753d5adfb63",
      "assetIds": []
    },
    {
      "x": 157,
      "y": 365,
      "size": 1,
      "price": "1011000000000000000000",
      "reserved": "0x7a9fe22691c811ea339d9b73150e6911a5343dca",
      "salt": "0x9cc81a17fc4f9e370d52c296a739047b5694ea64487ab37b8da2d00b1de9c365",
      "assetIds": []
    },
    {
      "x": 157,
      "y": 366,
      "size": 1,
      "price": "1011000000000000000000",
      "reserved": "",
      "salt": "0x825324ce5c71ac909827a044dd3bc5851b125f006c2a2912dbe95ffe09f46897",
      "assetIds": []
    },
    {
      "x": 157,
      "y": 367,
      "size": 1,
      "price": "1011000000000000000000",
      "reserved": "0x7a9fe22691c811ea339d9b73150e6911a5343dca",
      "salt": "0x5f541264d7add3d8be02e021aea16584f374469818d630a2c5977d65742373f4",
      "assetIds": []
    },
    {
      "x": 157,
      "y": 368,
      "size": 1,
      "price": "4683000000000000000000",
      "reserved": "",
      "salt": "0xce0fa79de72a39dcb2889c255b28172bd58d656ef0ac533f8e0a69deaa756c89",
      "assetIds": [
        "41506478881403507969696680653240014914910929820314476107906210059990541021186"
      ]
    },
    {
      "x": 157,
      "y": 369,
      "size": 1,
      "price": "4683000000000000000000",
      "reserved": "",
      "salt": "0x3247142e6c438e89150eae27aa85b8b4b802e191c834db91814dc93939f78447",
      "assetIds": [
        "41506478881403507969696680653240014914910929820314476107906210059990541021186"
      ]
    },
    {
      "x": 157,
      "y": 370,
      "size": 1,
      "price": "1011000000000000000000",
      "reserved": "",
      "salt": "0x5d1aae8ec092697b3472a22b81a02930ee2cfd499a0dab6c8ed3a1558fa786fb",
      "assetIds": []
    },
    {
      "x": 157,
      "y": 371,
      "size": 1,
      "price": "1011000000000000000000",
      "reserved": "",
      "salt": "0x81613172ba966ac32f37bbd3d711d5b0bc72fb22c553f12972d2e23619dd6b7d",
      "assetIds": []
    },
    {
      "x": 157,
      "y": 384,
      "size": 1,
      "price": "1011000000000000000000",
      "reserved": "",
      "salt": "0x7d67a5efbf52d2c45142c778f32ca67f361ba465800ef0d6081d371437c9af47",
      "assetIds": []
    },
    {
      "x": 157,
      "y": 385,
      "size": 1,
      "price": "1011000000000000000000",
      "reserved": "0x7a9fe22691c811ea339d9b73150e6911a5343dca",
      "salt": "0x44795706461ed48228cddcb99790d3f81eb2201a45a9626d0b88937faf622ece",
      "assetIds": []
    },
    {
      "x": 157,
      "y": 386,
      "size": 1,
      "price": "1011000000000000000000",
      "reserved": "0x7a9fe22691c811ea339d9b73150e6911a5343dca",
      "salt": "0xcadcc216c6f33c50e3d9aee060e5fc2341639e32c434e8eaf69721859f6b36ba",
      "assetIds": []
    },
    {
      "x": 157,
      "y": 387,
      "size": 1,
      "price": "1011000000000000000000",
      "reserved": "",
      "salt": "0x058cc3b865893b9c5cada8109c6466e24efee9f1e5a208e94cc58bbb0a4ec610",
      "assetIds": []
    },
    {
      "x": 157,
      "y": 388,
      "size": 1,
      "price": "1011000000000000000000",
      "reserved": "",
      "salt": "0x15fa9bf659be034a96c8123739c044ff1042a497df58677b9a92cd70991b61ac",
      "assetIds": []
    },
    {
      "x": 157,
      "y": 389,
      "size": 1,
      "price": "1011000000000000000000",
      "reserved": "",
      "salt": "0xccc00aa155ff6fb8e66f6411d942c9edfa367a3280fd501c852f6f11b21b04b2",
      "assetIds": []
    },
    {
      "x": 157,
      "y": 390,
      "size": 1,
      "price": "4683000000000000000000",
      "reserved": "",
      "salt": "0x66699833919a687e46db9c86643c1068082a3808eb81f570ddba0d28ae7033e8",
      "assetIds": [
        "41506478881403507969696680653240014914910929820314476107906210059990541021186"
      ]
    },
    {
      "x": 157,
      "y": 391,
      "size": 1,
      "price": "4683000000000000000000",
      "reserved": "",
      "salt": "0x5dffbb27873a8abcee517b9bd193ffe268eb97ff9f93931f9ed242543effc4b8",
      "assetIds": [
        "41506478881403507969696680653240014914910929820314476107906210059990541021186"
      ]
    },
    {
      "x": 157,
      "y": 392,
      "size": 1,
      "price": "4683000000000000000000",
      "reserved": "",
      "salt": "0x318b9c49e97f9f893ce3d95d4bdd768a80b261933440fff6efce7fae5ede282d",
      "assetIds": [
        "41506478881403507969696680653240014914910929820314476107906210059990541021186"
      ]
    },
    {
      "x": 157,
      "y": 393,
      "size": 1,
      "price": "1011000000000000000000",
      "reserved": "0x7a9fe22691c811ea339d9b73150e6911a5343dca",
      "salt": "0xf5e9c8c46d5b112a6f25052eb387af090278d981d85a1dfc7839d8eaa6b566c7",
      "assetIds": []
    },
    {
      "x": 157,
      "y": 394,
      "size": 1,
      "price": "1011000000000000000000",
      "reserved": "",
      "salt": "0xb21bb564945fff3f764c250544c55329dfee5ab08a86168d9282ffe9fecf4d51",
      "assetIds": []
    },
    {
      "x": 157,
      "y": 395,
      "size": 1,
      "price": "1011000000000000000000",
      "reserved": "",
      "salt": "0xd43cb2c96f321f2b1005fed6a9bfc0f8547880a08f84b52377b564e5ea5c043b",
      "assetIds": []
    },
    {
      "x": 158,
      "y": 353,
      "size": 1,
      "price": "1011000000000000000000",
      "reserved": "",
      "salt": "0xb7466ab09be2eb3a2b054727962adced2b8ea224bab91b69807d9405b16c96cc",
      "assetIds": []
    },
    {
      "x": 158,
      "y": 354,
      "size": 1,
      "price": "1011000000000000000000",
      "reserved": "0x7a9fe22691c811ea339d9b73150e6911a5343dca",
      "salt": "0x325c2317216db36330945d60fe6d5efc5ff6be479b6d82e1d7095c6529aa371a",
      "assetIds": []
    },
    {
      "x": 158,
      "y": 355,
      "size": 1,
      "price": "1011000000000000000000",
      "reserved": "",
      "salt": "0x1da542935ddaef488b536ad4d29eed47cf8f9219bca89cf36c281ce108cab2cf",
      "assetIds": []
    },
    {
      "x": 158,
      "y": 356,
      "size": 1,
      "price": "1011000000000000000000",
      "reserved": "",
      "salt": "0x9967710b569dfbdcfc5f630f49533a3b9f05b6d354a07012d42e7871a5bc8140",
      "assetIds": []
    },
    {
      "x": 158,
      "y": 357,
      "size": 1,
      "price": "1011000000000000000000",
      "reserved": "",
      "salt": "0xaa3b4ac5ba47227bd2c1e2d89ee2e91893d994ee21c363fea9d98d79e5bdb143",
      "assetIds": []
    },
    {
      "x": 158,
      "y": 358,
      "size": 1,
      "price": "4683000000000000000000",
      "reserved": "",
      "salt": "0x69987b0ee8973af8c31ac09b3e40f117f5d1edac4fdbc8ca4e365bb5d47bd32c",
      "assetIds": [
        "41506478881403507969696680653240014914910929820314476107906210059990541021186"
      ]
    },
    {
      "x": 158,
      "y": 359,
      "size": 1,
      "price": "4683000000000000000000",
      "reserved": "",
      "salt": "0xeabdd1e3d3a6a412197f565f299767190d71bb1e672057c4760c6c3e073a37dd",
      "assetIds": [
        "41506478881403507969696680653240014914910929820314476107906210059990541021186"
      ]
    },
    {
      "x": 158,
      "y": 360,
      "size": 1,
      "price": "1011000000000000000000",
      "reserved": "",
      "salt": "0xa63dd7871ca1a4bcfd929d43df733f761738a7eb8090c41ab8d1a1b6cb7cdc01",
      "assetIds": []
    },
    {
      "x": 158,
      "y": 361,
      "size": 1,
      "price": "1011000000000000000000",
      "reserved": "",
      "salt": "0x3c4a12f72f4d3241ee417a9bf07ae5d784c2cd7a5866aadabf9d610055fbf904",
      "assetIds": []
    },
    {
      "x": 158,
      "y": 362,
      "size": 1,
      "price": "1011000000000000000000",
      "reserved": "",
      "salt": "0x24a4b7a43c0d98644948bfca30fefaa292402533a2969f9586d7850e5fbe20b2",
      "assetIds": []
    },
    {
      "x": 158,
      "y": 363,
      "size": 1,
      "price": "1011000000000000000000",
      "reserved": "0x7a9fe22691c811ea339d9b73150e6911a5343dca",
      "salt": "0x3d16dcf1858c9672ba35349ab668b8b30f2c6aa78273c7d4b0c30335e69fd0ba",
      "assetIds": []
    },
    {
      "x": 158,
      "y": 364,
      "size": 1,
      "price": "1011000000000000000000",
      "reserved": "",
      "salt": "0x2663bb52a9e08f26664c7b340ab2dbcc0604406264c72ff911a3c058b53b2004",
      "assetIds": []
    },
    {
      "x": 158,
      "y": 365,
      "size": 1,
      "price": "1011000000000000000000",
      "reserved": "",
      "salt": "0x862a0ffe8cad212f45d26ce3ddb5f133e1848178070c42a1f253a1931a04808e",
      "assetIds": []
    },
    {
      "x": 158,
      "y": 366,
      "size": 1,
      "price": "1011000000000000000000",
      "reserved": "0x7a9fe22691c811ea339d9b73150e6911a5343dca",
      "salt": "0x4b01459061d8538402dc3358a9ac673239b4590c0061fe3cd8304d51968b33a9",
      "assetIds": []
    },
    {
      "x": 158,
      "y": 367,
      "size": 1,
      "price": "1011000000000000000000",
      "reserved": "",
      "salt": "0x4e8355c94c0bfcd2e6a2e297e047f0310691a00f85c4007462535f828ecde4f2",
      "assetIds": []
    },
    {
      "x": 158,
      "y": 368,
      "size": 1,
      "price": "1011000000000000000000",
      "reserved": "",
      "salt": "0xb40b10d1fbeb1b01cdb21ec1fcb73aba1e009dfa7bd8c9ece04630c09b7a38db",
      "assetIds": []
    },
    {
      "x": 158,
      "y": 369,
      "size": 1,
      "price": "1011000000000000000000",
      "reserved": "0x7a9fe22691c811ea339d9b73150e6911a5343dca",
      "salt": "0xf33db592e089e5b570197c70cad2bc0aa933b4177514c412e1a9a4f203e87d46",
      "assetIds": []
    },
    {
      "x": 158,
      "y": 370,
      "size": 1,
      "price": "1011000000000000000000",
      "reserved": "",
      "salt": "0x3e491d6037d882c33683f03cb2af74f0826da77996b9a75c6a008a564f903eb2",
      "assetIds": []
    },
    {
      "x": 158,
      "y": 371,
      "size": 1,
      "price": "1011000000000000000000",
      "reserved": "",
      "salt": "0xcb574c676bff3d984e83373936a7db9eb15566deabe28b15125c22cc92e0e7b4",
      "assetIds": []
    },
    {
      "x": 158,
      "y": 384,
      "size": 1,
      "price": "1011000000000000000000",
      "reserved": "",
      "salt": "0x12a11a288091b40982b785e9eeb103c87bf3f38d4bb9be70d83f185ec3075c42",
      "assetIds": []
    },
    {
      "x": 158,
      "y": 385,
      "size": 1,
      "price": "1011000000000000000000",
      "reserved": "",
      "salt": "0x8c74d208a5618105183ecab7cc4a67d9c2d40e55f12cf2addbb484ef7ad6ff7e",
      "assetIds": []
    },
    {
      "x": 158,
      "y": 386,
      "size": 1,
      "price": "1011000000000000000000",
      "reserved": "",
      "salt": "0x256b0e4e2aed5d873ace3f37e5f4a3fb394829c6aee4a298e27f98ec1e618a32",
      "assetIds": []
    },
    {
      "x": 158,
      "y": 387,
      "size": 1,
      "price": "1011000000000000000000",
      "reserved": "",
      "salt": "0xe769585c67e9859b25f4c685e4869b489c38e83f861920922fe38e5f75e9cbb1",
      "assetIds": []
    },
    {
      "x": 158,
      "y": 388,
      "size": 1,
      "price": "1011000000000000000000",
      "reserved": "0x7a9fe22691c811ea339d9b73150e6911a5343dca",
      "salt": "0x95c8ee90389652c9326b675b33384dbc24b2692c30c79a890484fa308d3744a4",
      "assetIds": []
    },
    {
      "x": 158,
      "y": 389,
      "size": 1,
      "price": "1011000000000000000000",
      "reserved": "",
      "salt": "0xdca3543ac00285af9d71c4c8006dc77544db11d7dd700ddadf5a01f113be98ad",
      "assetIds": []
    },
    {
      "x": 158,
      "y": 390,
      "size": 1,
      "price": "1011000000000000000000",
      "reserved": "0x7a9fe22691c811ea339d9b73150e6911a5343dca",
      "salt": "0x172cf43739184a34e2c14ae5c8ed2868de22cf2b4022d1715bb1f7a74d5e6330",
      "assetIds": []
    },
    {
      "x": 158,
      "y": 391,
      "size": 1,
      "price": "1011000000000000000000",
      "reserved": "",
      "salt": "0x26e3cfe10f737d0e5bf234f5e828c3eaa02609604a5889eedf9c069bd6b4ce98",
      "assetIds": []
    },
    {
      "x": 158,
      "y": 392,
      "size": 1,
      "price": "1011000000000000000000",
      "reserved": "0x7a9fe22691c811ea339d9b73150e6911a5343dca",
      "salt": "0x904b1f0e25c5552b972d65231d0fecd859356d4279c5f8d0fb906b51b0bbb832",
      "assetIds": []
    },
    {
      "x": 158,
      "y": 393,
      "size": 1,
      "price": "1011000000000000000000",
      "reserved": "",
      "salt": "0x0d69a95bc12d488df84bdb8645c31398ededa242740d7eecdb0837e380d12531",
      "assetIds": []
    },
    {
      "x": 158,
      "y": 394,
      "size": 1,
      "price": "1011000000000000000000",
      "reserved": "",
      "salt": "0x1bf1d6bcd3812fb880ca5eb3e9159de742631fc83196eb870093663d9278f189",
      "assetIds": []
    },
    {
      "x": 158,
      "y": 395,
      "size": 1,
      "price": "1011000000000000000000",
      "reserved": "0x7a9fe22691c811ea339d9b73150e6911a5343dca",
      "salt": "0x9553f4273b378b068dd107947784693206a00cccc12782e7fa8856d95a643297",
      "assetIds": []
    },
    {
      "x": 159,
      "y": 353,
      "size": 1,
      "price": "1011000000000000000000",
      "reserved": "",
      "salt": "0x94aeb37158bebbf46d04547b4bb83be01e99c17e329d13e9a79f4f56dc34006a",
      "assetIds": []
    },
    {
      "x": 159,
      "y": 354,
      "size": 1,
      "price": "1011000000000000000000",
      "reserved": "",
      "salt": "0x1e7d7c85e028365d320c7d65a10abec5c388c01be0b313a6b2766e1b3ceea3f6",
      "assetIds": []
    },
    {
      "x": 159,
      "y": 355,
      "size": 1,
      "price": "1011000000000000000000",
      "reserved": "",
      "salt": "0xa8647f16916420e64f36ab0a5a35507ea6f6ac2a9ea556eaf5bb8dcbe37dc9a9",
      "assetIds": []
    },
    {
      "x": 159,
      "y": 356,
      "size": 1,
      "price": "1011000000000000000000",
      "reserved": "",
      "salt": "0x630c75528ef7cc39df90a401bad75903f5e1368a90eb691c94f37a468e4d109f",
      "assetIds": []
    },
    {
      "x": 159,
      "y": 357,
      "size": 1,
      "price": "1011000000000000000000",
      "reserved": "",
      "salt": "0x9f76d072ef31346acf3fa4cb42b6a59d015aa6f6d5f85869078de8177132dca6",
      "assetIds": []
    },
    {
      "x": 159,
      "y": 358,
      "size": 1,
      "price": "1011000000000000000000",
      "reserved": "",
      "salt": "0xec161ce9d54d8405e176b2f8a04006dacb5176b1cb20d99ae8b048f84e37e375",
      "assetIds": []
    },
    {
      "x": 159,
      "y": 359,
      "size": 1,
      "price": "1011000000000000000000",
      "reserved": "",
      "salt": "0xcbed6fc87cb650f1fa8ba9dc35586511e54a28e829e51095b751bf8e581028c6",
      "assetIds": []
    },
    {
      "x": 159,
      "y": 360,
      "size": 1,
      "price": "1011000000000000000000",
      "reserved": "",
      "salt": "0xd374ae0bf224d481a8aac008ffdd66c368a14e20ebb44cc62ec69c9a70f5c1d6",
      "assetIds": []
    },
    {
      "x": 159,
      "y": 361,
      "size": 1,
      "price": "1011000000000000000000",
      "reserved": "0x7a9fe22691c811ea339d9b73150e6911a5343dca",
      "salt": "0xcf23320b1a5a9927bb2ac89a28833400ad1a769e6362dcd02205bc205bf11c60",
      "assetIds": []
    },
    {
      "x": 159,
      "y": 362,
      "size": 1,
      "price": "1011000000000000000000",
      "reserved": "",
      "salt": "0x508ed40d8338b8ff91e03ef60e493543ab8c382d6d8e5dc1b03a49835e542733",
      "assetIds": []
    },
    {
      "x": 159,
      "y": 363,
      "size": 1,
      "price": "1011000000000000000000",
      "reserved": "",
      "salt": "0xe7953c7c7ad0c25e0d45e1f847da6ae2d0cac4951af054c3da00f336ecdff109",
      "assetIds": []
    },
    {
      "x": 159,
      "y": 364,
      "size": 1,
      "price": "1011000000000000000000",
      "reserved": "",
      "salt": "0xab4ce7ade8449943f442172fa1bc15d7da5e36382e6d119e8f2a7899359e62e7",
      "assetIds": []
    },
    {
      "x": 159,
      "y": 365,
      "size": 1,
      "price": "1011000000000000000000",
      "reserved": "0x7a9fe22691c811ea339d9b73150e6911a5343dca",
      "salt": "0xaf85b74fd0b45707c912e87c04714e0efddb73eb0bc83b05163c57b4c1bf3ac8",
      "assetIds": []
    },
    {
      "x": 159,
      "y": 366,
      "size": 1,
      "price": "1011000000000000000000",
      "reserved": "",
      "salt": "0x16ce88f18c246bc21d938ced6b752f2fe23204d9b90de4128ff94bdff7faf4b9",
      "assetIds": []
    },
    {
      "x": 159,
      "y": 367,
      "size": 1,
      "price": "1011000000000000000000",
      "reserved": "0x7a9fe22691c811ea339d9b73150e6911a5343dca",
      "salt": "0x468e25367f2dcd4ccb72b8dd4b51bcec69fb2e5a632e00bf76f4f2755c8c89d7",
      "assetIds": []
    },
    {
      "x": 159,
      "y": 368,
      "size": 1,
      "price": "1011000000000000000000",
      "reserved": "0x7a9fe22691c811ea339d9b73150e6911a5343dca",
      "salt": "0x261212226e7285430cf6c0efb0dc58ec1f6872d80cdfd30126f2f09ed79db683",
      "assetIds": []
    },
    {
      "x": 159,
      "y": 384,
      "size": 1,
      "price": "1011000000000000000000",
      "reserved": "0x7a9fe22691c811ea339d9b73150e6911a5343dca",
      "salt": "0x17c179b001746a7bebc6fb6a0ee39baaeff896ce70621bbe3b0c09960e8fbfee",
      "assetIds": []
    },
    {
      "x": 159,
      "y": 385,
      "size": 1,
      "price": "1011000000000000000000",
      "reserved": "",
      "salt": "0xaee92e6f121eae8c6d0dd9fc5a4b5cf82ad0dc3cb4a8e9744439ecbe2f5fbe63",
      "assetIds": []
    },
    {
      "x": 159,
      "y": 386,
      "size": 1,
      "price": "1011000000000000000000",
      "reserved": "0x7a9fe22691c811ea339d9b73150e6911a5343dca",
      "salt": "0x8ff1034367d1ca20d33792a8b731258ecce800eda216895180ce9dfd4272f5b6",
      "assetIds": []
    },
    {
      "x": 159,
      "y": 387,
      "size": 1,
      "price": "1011000000000000000000",
      "reserved": "",
      "salt": "0x7139e14117ccec70ee7b88c9081583f9d0b124494d0c57797b5ea4c46edc1007",
      "assetIds": []
    },
    {
      "x": 159,
      "y": 388,
      "size": 1,
      "price": "1011000000000000000000",
      "reserved": "",
      "salt": "0x8616c175ae87c24a04bd21c472853f129f3fbd139a050f7edb33c59aa340a16c",
      "assetIds": []
    },
    {
      "x": 159,
      "y": 389,
      "size": 1,
      "price": "1011000000000000000000",
      "reserved": "",
      "salt": "0x1d58fde8362b6cfecb40d9b1cc07b940fcc1a1ec88c5c1815a0ae3758790eb6f",
      "assetIds": []
    },
    {
      "x": 159,
      "y": 390,
      "size": 1,
      "price": "1011000000000000000000",
      "reserved": "",
      "salt": "0xdf62870a30f6e6c87c3f6b1dc41ea9af0ad697d545547dc44c804626fc80d93c",
      "assetIds": []
    },
    {
      "x": 159,
      "y": 391,
      "size": 1,
      "price": "1011000000000000000000",
      "reserved": "0x7a9fe22691c811ea339d9b73150e6911a5343dca",
      "salt": "0xe2ef243521a09e01ad17bc12068ded4423ce85034d871929e46739d6b89ce66f",
      "assetIds": []
    },
    {
      "x": 159,
      "y": 392,
      "size": 1,
      "price": "1011000000000000000000",
      "reserved": "0x7a9fe22691c811ea339d9b73150e6911a5343dca",
      "salt": "0x6ff003be88f50076bb3c3dc2e845a99dd83d838b496aea5fab7e53091acd0dd2",
      "assetIds": []
    },
    {
      "x": 159,
      "y": 393,
      "size": 1,
      "price": "1011000000000000000000",
      "reserved": "0x7a9fe22691c811ea339d9b73150e6911a5343dca",
      "salt": "0xdd53c8972182a232acc8f1af63b96d428faae2377bdbc1fb99b4003d6c876ea4",
      "assetIds": []
    },
    {
      "x": 159,
      "y": 394,
      "size": 1,
      "price": "1011000000000000000000",
      "reserved": "",
      "salt": "0xf680244336cadeb9ccf82138a4b1ad63d22d18607d88b37f6ce3e6100cefc381",
      "assetIds": []
    },
    {
      "x": 159,
      "y": 395,
      "size": 1,
      "price": "1011000000000000000000",
      "reserved": "",
      "salt": "0x2f0e748508850659c56995903c8895fecfebd9804075d88ddce3cb7d8f391e75",
      "assetIds": []
    },
    {
      "x": 160,
      "y": 353,
      "size": 1,
      "price": "1011000000000000000000",
      "reserved": "0x7a9fe22691c811ea339d9b73150e6911a5343dca",
      "salt": "0xa77715b900fb98420c5149726c94f25ec4a6334dd3dde2ac59e419e320ba7500",
      "assetIds": []
    },
    {
      "x": 160,
      "y": 354,
      "size": 1,
      "price": "4683000000000000000000",
      "reserved": "",
      "salt": "0xf2e52b90bf55a4d9800eb7aa41532f6f681a1f5ac089eb1b0729c5678a00d0b4",
      "assetIds": [
        "41506478881403507969696680653240014914910929820314476107906210059990541021186"
      ]
    },
    {
      "x": 160,
      "y": 355,
      "size": 1,
      "price": "1011000000000000000000",
      "reserved": "0x7a9fe22691c811ea339d9b73150e6911a5343dca",
      "salt": "0xb251b6d99e7dce6f2880bc7a8735b89d8466b5003d693fce00867ab05dbb795d",
      "assetIds": []
    },
    {
      "x": 160,
      "y": 356,
      "size": 1,
      "price": "1011000000000000000000",
      "reserved": "",
      "salt": "0xb21bf1a74905478c028628ee783340e2165654d69eab7cdd1d39519ee2585936",
      "assetIds": []
    },
    {
      "x": 160,
      "y": 357,
      "size": 1,
      "price": "1011000000000000000000",
      "reserved": "",
      "salt": "0x97cf6f6a29bc5fb18fd531bc6dd53e327a9d9bbbeef9c9e09823a7c72ef3d21f",
      "assetIds": []
    },
    {
      "x": 160,
      "y": 358,
      "size": 1,
      "price": "1011000000000000000000",
      "reserved": "",
      "salt": "0x278036341171bc86ce72275efb0effb4a2986754cb4339e507625d7a55c7be25",
      "assetIds": []
    },
    {
      "x": 160,
      "y": 359,
      "size": 1,
      "price": "4683000000000000000000",
      "reserved": "",
      "salt": "0x3d374ac2f23e4df98239a8c79bde0045f0a7b93adb31de28e4680870fbddd861",
      "assetIds": [
        "41506478881403507969696680653240014914910929820314476107906210059990541021186"
      ]
    },
    {
      "x": 160,
      "y": 360,
      "size": 1,
      "price": "4683000000000000000000",
      "reserved": "",
      "salt": "0x85f1bf11731328b8e0c4f3b4baf7ee87558392543700c65424f2a55c4432854a",
      "assetIds": [
        "41506478881403507969696680653240014914910929820314476107906210059990541021186"
      ]
    },
    {
      "x": 160,
      "y": 361,
      "size": 1,
      "price": "1011000000000000000000",
      "reserved": "",
      "salt": "0x799fd7b7b876d94aea5ad0b5f1c678c3011d924af097d9932520bcafeacfdf2e",
      "assetIds": []
    },
    {
      "x": 160,
      "y": 362,
      "size": 1,
      "price": "1011000000000000000000",
      "reserved": "",
      "salt": "0x2319500bf528e69bc4547ff23bb8385044b1e1a805c3142cae5161bb6d062f53",
      "assetIds": []
    },
    {
      "x": 160,
      "y": 363,
      "size": 1,
      "price": "1011000000000000000000",
      "reserved": "0x7a9fe22691c811ea339d9b73150e6911a5343dca",
      "salt": "0x52f63cf02a734b27097fe59b2ee8c9beccf956592362584f561e3a1f87784b1b",
      "assetIds": []
    },
    {
      "x": 160,
      "y": 364,
      "size": 1,
      "price": "1011000000000000000000",
      "reserved": "",
      "salt": "0x23edc333e1d2c23f9d29ba9c509403b7ef0c4fc8b38c0015bb17559e60b994d4",
      "assetIds": []
    },
    {
      "x": 160,
      "y": 365,
      "size": 1,
      "price": "1011000000000000000000",
      "reserved": "",
      "salt": "0x3b717ee756061f66eb5b1671083dd473b04c521d28a343bf4f1e4f4ba04723e9",
      "assetIds": []
    },
    {
      "x": 160,
      "y": 366,
      "size": 1,
      "price": "1011000000000000000000",
      "reserved": "",
      "salt": "0x4f29bf804db76f96a037d180a5eb0f2ba36191ece50f94cad8a8b2f859042754",
      "assetIds": []
    },
    {
      "x": 160,
      "y": 367,
      "size": 1,
      "price": "1011000000000000000000",
      "reserved": "",
      "salt": "0xb1a7a9bc4f901ddd269b8cf996f268a4d0edf686c8f3191c88962932d435d720",
      "assetIds": []
    },
    {
      "x": 160,
      "y": 368,
      "size": 1,
      "price": "1011000000000000000000",
      "reserved": "",
      "salt": "0xf0e5e936a61101990745a11da4bd2e9a4c10fec56e71424a8fea998177447b8a",
      "assetIds": []
    },
    {
      "x": 160,
      "y": 384,
      "size": 1,
      "price": "1011000000000000000000",
      "reserved": "",
      "salt": "0x6db45913ac6f85f401c82147f5c7f7848e3e74c2ef98f26f9fdf27bb7e21d319",
      "assetIds": []
    },
    {
      "x": 160,
      "y": 385,
      "size": 1,
      "price": "1011000000000000000000",
      "reserved": "",
      "salt": "0xa22548b42962e9af511810a667b9e31d334429f3acf9c2fc3926b20abaf6622f",
      "assetIds": []
    },
    {
      "x": 160,
      "y": 386,
      "size": 1,
      "price": "1011000000000000000000",
      "reserved": "",
      "salt": "0xde82acfe7bf72721881cbc9250f8013c10da59a21be2da6155b20457ef3b724c",
      "assetIds": []
    },
    {
      "x": 160,
      "y": 387,
      "size": 1,
      "price": "1011000000000000000000",
      "reserved": "0x7a9fe22691c811ea339d9b73150e6911a5343dca",
      "salt": "0x28f8ed6155750eabaed322003eae122a10068d380c30f59278bfdafdd16fcfad",
      "assetIds": []
    },
    {
      "x": 160,
      "y": 388,
      "size": 1,
      "price": "1011000000000000000000",
      "reserved": "",
      "salt": "0xe020f099e57f2c7ee582ed1973c5d708c37fa98e91b678d319e4fb0e763756fd",
      "assetIds": []
    },
    {
      "x": 160,
      "y": 389,
      "size": 1,
      "price": "1011000000000000000000",
      "reserved": "",
      "salt": "0x76d8dd7b5389ae29c18042060db202d66e7c66e6e527027653f40fa4fd787f41",
      "assetIds": []
    },
    {
      "x": 160,
      "y": 390,
      "size": 1,
      "price": "1011000000000000000000",
      "reserved": "",
      "salt": "0x91a2cf07d686cc2a821ce87c7f2a64c527ad74519a98a9ee789b58696b000087",
      "assetIds": []
    },
    {
      "x": 160,
      "y": 391,
      "size": 1,
      "price": "1011000000000000000000",
      "reserved": "",
      "salt": "0xed401d25b1e5fad84c536c9ba7f9798752eeeda4a9958bcd8f66b05e3629a512",
      "assetIds": []
    },
    {
      "x": 160,
      "y": 392,
      "size": 1,
      "price": "1011000000000000000000",
      "reserved": "",
      "salt": "0xdbd8eefe3f3e27a0e93579a51b7f1366633c64a729924736c827ff17a120068c",
      "assetIds": []
    },
    {
      "x": 160,
      "y": 393,
      "size": 1,
      "price": "1011000000000000000000",
      "reserved": "",
      "salt": "0x73784320225a855bc03ea66949c797e29412d20936a219e7bfe8ac130b1ce2ff",
      "assetIds": []
    },
    {
      "x": 160,
      "y": 394,
      "size": 1,
      "price": "1011000000000000000000",
      "reserved": "",
      "salt": "0x594a073dc0bd9b6c9758a270e07cd1250431567ff4abb819b3917905895ef461",
      "assetIds": []
    },
    {
      "x": 160,
      "y": 395,
      "size": 1,
      "price": "1011000000000000000000",
      "reserved": "0x7a9fe22691c811ea339d9b73150e6911a5343dca",
      "salt": "0xb941f1b2c2e7eb9ba5412e8693ab86bf3522f073374641dd0f3e81f131794fee",
      "assetIds": []
    },
    {
      "x": 161,
      "y": 353,
      "size": 1,
      "price": "1011000000000000000000",
      "reserved": "0x7a9fe22691c811ea339d9b73150e6911a5343dca",
      "salt": "0x8a8eb4e7f0afdb4adf1a628ac2cd8f3f50c7e1c3ebac5f44a8dad4c570ecc7f9",
      "assetIds": []
    },
    {
      "x": 161,
      "y": 354,
      "size": 1,
      "price": "4683000000000000000000",
      "reserved": "",
      "salt": "0x87ac53d661cc40e3d63cb489ea3557abd5148597dfb03d4c6890f48bfce3d8df",
      "assetIds": [
        "41506478881403507969696680653240014914910929820314476107906210059990541021186"
      ]
    },
    {
      "x": 161,
      "y": 355,
      "size": 1,
      "price": "4683000000000000000000",
      "reserved": "",
      "salt": "0x5a932aef9cac40c02882ad6b206a33f0702b0d1b2673baf13ee10e2dbba2a3c9",
      "assetIds": [
        "41506478881403507969696680653240014914910929820314476107906210059990541021186"
      ]
    },
    {
      "x": 161,
      "y": 356,
      "size": 1,
      "price": "4683000000000000000000",
      "reserved": "",
      "salt": "0x0698bfa955ef6889a19d599fa8ef4112cb7db7cc46b1d1988184acdd4e651864",
      "assetIds": [
        "41506478881403507969696680653240014914910929820314476107906210059990541021186"
      ]
    },
    {
      "x": 161,
      "y": 357,
      "size": 1,
      "price": "4683000000000000000000",
      "reserved": "",
      "salt": "0x6e806e5d654156514c21fb777b5d2724608586bee0fe9f0906e6c7dc21eca5d3",
      "assetIds": [
        "41506478881403507969696680653240014914910929820314476107906210059990541021186"
      ]
    },
    {
      "x": 161,
      "y": 358,
      "size": 1,
      "price": "4683000000000000000000",
      "reserved": "",
      "salt": "0x75887b4aac092a38a02646a324d1de84d64f34176fb14c30f1b1359bb9d6e082",
      "assetIds": [
        "41506478881403507969696680653240014914910929820314476107906210059990541021186"
      ]
    },
    {
      "x": 161,
      "y": 359,
      "size": 1,
      "price": "4683000000000000000000",
      "reserved": "",
      "salt": "0xadaa20cc09375bfe0a5300a6f6c87129780c6f8b44f7f67ee8aca8eee12187bf",
      "assetIds": [
        "41506478881403507969696680653240014914910929820314476107906210059990541021186"
      ]
    },
    {
      "x": 161,
      "y": 360,
      "size": 1,
      "price": "4683000000000000000000",
      "reserved": "",
      "salt": "0x435b9427d8b978264f7fef4cc1e15cfc2c46bab7d0d5646e7f6153e259bdf6a3",
      "assetIds": [
        "41506478881403507969696680653240014914910929820314476107906210059990541021186"
      ]
    },
    {
      "x": 161,
      "y": 361,
      "size": 1,
      "price": "1011000000000000000000",
      "reserved": "",
      "salt": "0x8a9a65c89d983a357b25550e961128814f1c2043fc94caf74fb10de7fc0dfeec",
      "assetIds": []
    },
    {
      "x": 161,
      "y": 362,
      "size": 1,
      "price": "1011000000000000000000",
      "reserved": "",
      "salt": "0xc0c3ba72751de2682190cb39d53f0a6260d2d73553543da5584c38770e14d904",
      "assetIds": []
    },
    {
      "x": 161,
      "y": 363,
      "size": 1,
      "price": "1011000000000000000000",
      "reserved": "",
      "salt": "0x62ff3c4eda7bc4a3304f0499bd4a6df91549b3d5d8fb9fb53382c6de9cb0611e",
      "assetIds": []
    },
    {
      "x": 161,
      "y": 364,
      "size": 1,
      "price": "1011000000000000000000",
      "reserved": "",
      "salt": "0x7f48f26671e8f6361abc459dba70b6745c56b07159a39b58c9e399eb9260324f",
      "assetIds": []
    },
    {
      "x": 161,
      "y": 365,
      "size": 1,
      "price": "1011000000000000000000",
      "reserved": "",
      "salt": "0x45f6e3fe684768ad499fa27e7a609485fafd4a9f3e9ae15df3c95a0745deb5c2",
      "assetIds": []
    },
    {
      "x": 161,
      "y": 366,
      "size": 1,
      "price": "1011000000000000000000",
      "reserved": "0x7a9fe22691c811ea339d9b73150e6911a5343dca",
      "salt": "0x8c67b1db3046a120c8318e19038c6043bf39962015f801cb514eff965a54f50d",
      "assetIds": []
    },
    {
      "x": 161,
      "y": 367,
      "size": 1,
      "price": "1011000000000000000000",
      "reserved": "",
      "salt": "0x09c095a11dec5c73aa8f7eec4de3910934c3c314b7105fd8a45eedbd4f9882bb",
      "assetIds": []
    },
    {
      "x": 161,
      "y": 368,
      "size": 1,
      "price": "1011000000000000000000",
      "reserved": "",
      "salt": "0x389b20b71a173d4f237f86204842972c82c065d43a651538b3bcc0a6f92672a5",
      "assetIds": []
    },
    {
      "x": 161,
      "y": 384,
      "size": 1,
      "price": "1011000000000000000000",
      "reserved": "0x7a9fe22691c811ea339d9b73150e6911a5343dca",
      "salt": "0x2b3db6f413b8109c4982dc7a2d819fa66085fdc0541539dbd3db9b22676507ec",
      "assetIds": []
    },
    {
      "x": 161,
      "y": 385,
      "size": 1,
      "price": "1011000000000000000000",
      "reserved": "",
      "salt": "0x483534ebbef6dce28d56115f7d8e9eec6516b8bf337ad2b1aae9c3393437908f",
      "assetIds": []
    },
    {
      "x": 161,
      "y": 386,
      "size": 1,
      "price": "1011000000000000000000",
      "reserved": "0x7a9fe22691c811ea339d9b73150e6911a5343dca",
      "salt": "0xf4ca4d5883d54eea22a306c1a2aa4868505436134b98e9ba7ef96eedccacca2a",
      "assetIds": []
    },
    {
      "x": 161,
      "y": 387,
      "size": 1,
      "price": "1011000000000000000000",
      "reserved": "0x7a9fe22691c811ea339d9b73150e6911a5343dca",
      "salt": "0x280375ffde46c22a322f13a6d7bea970c4787e95ff6120432664cd08c29e4325",
      "assetIds": []
    },
    {
      "x": 161,
      "y": 388,
      "size": 1,
      "price": "1011000000000000000000",
      "reserved": "",
      "salt": "0x384e784fa8bf58b1f1af5c81514e4d8df7fd0dd907ff5af596064586572de6c8",
      "assetIds": []
    },
    {
      "x": 161,
      "y": 389,
      "size": 1,
      "price": "1011000000000000000000",
      "reserved": "",
      "salt": "0x71ea65c8b9402e4ff281fa53b398cb70cfe5be770ab715047d3a6ed7effd3c10",
      "assetIds": []
    },
    {
      "x": 161,
      "y": 390,
      "size": 1,
      "price": "1011000000000000000000",
      "reserved": "",
      "salt": "0x991e33dc291187e2bc95af1d73027002a2d168203b57fb612df1ef84031b8069",
      "assetIds": []
    },
    {
      "x": 161,
      "y": 391,
      "size": 1,
      "price": "1011000000000000000000",
      "reserved": "0x7a9fe22691c811ea339d9b73150e6911a5343dca",
      "salt": "0x788762adc8ad33116e67725778840f3e1883e65c51f4bf682f46c199df789e42",
      "assetIds": []
    },
    {
      "x": 161,
      "y": 392,
      "size": 1,
      "price": "1011000000000000000000",
      "reserved": "0x7a9fe22691c811ea339d9b73150e6911a5343dca",
      "salt": "0x76ed2593d6a5db406756439aeecf4c6e70cf196b8a45ab6cd216aada54659dff",
      "assetIds": []
    },
    {
      "x": 161,
      "y": 393,
      "size": 1,
      "price": "1011000000000000000000",
      "reserved": "0x7a9fe22691c811ea339d9b73150e6911a5343dca",
      "salt": "0xb60825c762742555488ac31766e7941af587fa809b7925e7f6ee45894d7de999",
      "assetIds": []
    },
    {
      "x": 161,
      "y": 394,
      "size": 1,
      "price": "1011000000000000000000",
      "reserved": "",
      "salt": "0xfb0298320f6a18e2e00c78f646cf8c24fcc9fb2c831b97f36c1773921e50f6cf",
      "assetIds": []
    },
    {
      "x": 161,
      "y": 395,
      "size": 1,
      "price": "1011000000000000000000",
      "reserved": "",
      "salt": "0xa2867e46e8ffe2d539724599422b1bf489b2d532110522d8178e18ff57a26ebe",
      "assetIds": []
    },
    {
      "x": 162,
      "y": 353,
      "size": 1,
      "price": "1011000000000000000000",
      "reserved": "",
      "salt": "0x5bd1a19393a05b16f7feb24d0410ac64e001544f03cf9bf61b0f6beadcdddecf",
      "assetIds": []
    },
    {
      "x": 162,
      "y": 360,
      "size": 1,
      "price": "4683000000000000000000",
      "reserved": "",
      "salt": "0x3f72d7a70e25357296cb3fc0bc706237c1125899573c39b15528f4df24aa1aaa",
      "assetIds": [
        "41506478881403507969696680653240014914910929820314476107906210059990541021186"
      ]
    },
    {
      "x": 162,
      "y": 361,
      "size": 1,
      "price": "1011000000000000000000",
      "reserved": "",
      "salt": "0xde9728cc3274a41dd717dbc4ebeb47cdb6840280089ac5e2fe5313491fb6e766",
      "assetIds": []
    },
    {
      "x": 162,
      "y": 362,
      "size": 1,
      "price": "1011000000000000000000",
      "reserved": "0x7a9fe22691c811ea339d9b73150e6911a5343dca",
      "salt": "0xfd63845380626f33a53640b006d2281fe993dede163229d1d73deef7bc7e0a35",
      "assetIds": []
    },
    {
      "x": 162,
      "y": 363,
      "size": 1,
      "price": "1011000000000000000000",
      "reserved": "",
      "salt": "0xcd46dd4f3e6af5880e1eb7098d76dd031384162d4c42a20fe79923a5b195fd16",
      "assetIds": []
    },
    {
      "x": 162,
      "y": 364,
      "size": 1,
      "price": "1011000000000000000000",
      "reserved": "",
      "salt": "0x8d43f696aa4b745d26127aecc9508ab88f50766cadeb98098835e0e12b473ef7",
      "assetIds": []
    },
    {
      "x": 162,
      "y": 365,
      "size": 1,
      "price": "1011000000000000000000",
      "reserved": "0x7a9fe22691c811ea339d9b73150e6911a5343dca",
      "salt": "0x5e082f9f074a9346321cfccac82b8e57f65dae4d920f5b4ff195d090798127bd",
      "assetIds": []
    },
    {
      "x": 162,
      "y": 384,
      "size": 1,
      "price": "1011000000000000000000",
      "reserved": "",
      "salt": "0xbb327ce0d63c6a0f218ce2f7f8043acfe34d3fab1e90f6a94e444c0fc3b3274d",
      "assetIds": []
    },
    {
      "x": 162,
      "y": 385,
      "size": 1,
      "price": "1011000000000000000000",
      "reserved": "",
      "salt": "0x7dc5a0110d7fc3c7f98be317febe21ee48d41a4419393e726b96cb1af121f0b8",
      "assetIds": []
    },
    {
      "x": 162,
      "y": 386,
      "size": 1,
      "price": "1011000000000000000000",
      "reserved": "",
      "salt": "0x9bc33745c3aaa602f587c285705ed2baa83e4695b28ea0d40cfc5ff627d9fa39",
      "assetIds": []
    },
    {
      "x": 162,
      "y": 387,
      "size": 1,
      "price": "1011000000000000000000",
      "reserved": "0x7a9fe22691c811ea339d9b73150e6911a5343dca",
      "salt": "0xd2596219cea52628055cc5814c65501197e2c5b0440bac9e182e135a06b538c5",
      "assetIds": []
    },
    {
      "x": 162,
      "y": 388,
      "size": 1,
      "price": "1011000000000000000000",
      "reserved": "",
      "salt": "0x124740b5e8c172abd3785ea8414e14272e3f458da134d0141031d7af8ab0b83d",
      "assetIds": []
    },
    {
      "x": 162,
      "y": 389,
      "size": 1,
      "price": "1011000000000000000000",
      "reserved": "0x7a9fe22691c811ea339d9b73150e6911a5343dca",
      "salt": "0x9f60ade58dd4d9128ac1aa034b7c6d2f460246f671cae00bc0e6c53a191fc093",
      "assetIds": []
    },
    {
      "x": 162,
      "y": 390,
      "size": 1,
      "price": "1011000000000000000000",
      "reserved": "0x7a9fe22691c811ea339d9b73150e6911a5343dca",
      "salt": "0x054c200a5b866407da3f6dadd2cbcdf36a2b241d1d78c3deb1ec6c50437f740c",
      "assetIds": []
    },
    {
      "x": 162,
      "y": 391,
      "size": 1,
      "price": "1011000000000000000000",
      "reserved": "",
      "salt": "0x368512a5cd99e9d342cd878b17572f2734da5f1f022b6aad73ff700a34808621",
      "assetIds": []
    },
    {
      "x": 162,
      "y": 392,
      "size": 1,
      "price": "1011000000000000000000",
      "reserved": "",
      "salt": "0xcb8b4b0c19150e855c5dccbc518f9f6b7427ad083de0f558212f1bbd72dfb8c6",
      "assetIds": []
    },
    {
      "x": 162,
      "y": 393,
      "size": 1,
      "price": "1011000000000000000000",
      "reserved": "",
      "salt": "0xf8cca11586d462419acf766977b8dc0f515bfd7d258e8b3ff0b3bd779cfdd773",
      "assetIds": []
    },
    {
      "x": 162,
      "y": 394,
      "size": 1,
      "price": "1011000000000000000000",
      "reserved": "",
      "salt": "0xbf879b7f83739ae4fb58ee0db7b4aab81c0327363f0ed0fa66562eda971a12f5",
      "assetIds": []
    },
    {
      "x": 162,
      "y": 395,
      "size": 1,
      "price": "1011000000000000000000",
      "reserved": "",
      "salt": "0x14dceeed9d923aab48014b4b79bfbc5b0592956577f6d3b546a7fa9fce6b8c66",
      "assetIds": []
    },
    {
      "x": 163,
      "y": 353,
      "size": 1,
      "price": "1011000000000000000000",
      "reserved": "",
      "salt": "0xd70a732a2b917303445613d7a00506570b55aec57c2d1f11eedabccdecafe4f7",
      "assetIds": []
    },
    {
      "x": 163,
      "y": 360,
      "size": 1,
      "price": "4683000000000000000000",
      "reserved": "",
      "salt": "0xbbcc8aecd5d413f1806f5bb674a8e74266061f00e65a7cc150aa3cf5f5cc20bd",
      "assetIds": [
        "41506478881403507969696680653240014914910929820314476107906210059990541021186"
      ]
    },
    {
      "x": 163,
      "y": 361,
      "size": 1,
      "price": "1011000000000000000000",
      "reserved": "",
      "salt": "0x1e78eac1ea848dfaacbdbe8bdb946ff71e1eb470bb6ee47da5398bd7f764ab6d",
      "assetIds": []
    },
    {
      "x": 163,
      "y": 362,
      "size": 1,
      "price": "1011000000000000000000",
      "reserved": "",
      "salt": "0x01c7c52e26fa126921590bc02fa92437977d6e3e77b50e4d4a221c24777a1500",
      "assetIds": []
    },
    {
      "x": 163,
      "y": 363,
      "size": 1,
      "price": "1011000000000000000000",
      "reserved": "",
      "salt": "0xc922ccf71a04304c6f7b17fabb270ef4a88782ccc7c4dde8355d1091c4f19c01",
      "assetIds": []
    },
    {
      "x": 163,
      "y": 364,
      "size": 1,
      "price": "1011000000000000000000",
      "reserved": "",
      "salt": "0x67fdbf866ac39271477158eec037a442025fcb0dbeea146f01075398501a1cd5",
      "assetIds": []
    },
    {
      "x": 163,
      "y": 365,
      "size": 1,
      "price": "1011000000000000000000",
      "reserved": "",
      "salt": "0x17832fde26c3f74993b4ee786ca4bc0995ad50e4b5ba055fa96c6954b9750840",
      "assetIds": []
    },
    {
      "x": 163,
      "y": 384,
      "size": 1,
      "price": "1011000000000000000000",
      "reserved": "",
      "salt": "0x0736603596cfea89137fca4ad8be648c1fdcbe019b66a8120f770b9f469e1531",
      "assetIds": []
    },
    {
      "x": 163,
      "y": 385,
      "size": 1,
      "price": "1011000000000000000000",
      "reserved": "0x7a9fe22691c811ea339d9b73150e6911a5343dca",
      "salt": "0xb5fae9a9636755a3694b2e9209f3022fe492d9704e236fb3f231baffeb6abfb9",
      "assetIds": []
    },
    {
      "x": 163,
      "y": 386,
      "size": 1,
      "price": "1011000000000000000000",
      "reserved": "",
      "salt": "0x1e364772cfabf6539c034299f7a9256824eabb7130401ce3438105f64fc8f85b",
      "assetIds": []
    },
    {
      "x": 163,
      "y": 387,
      "size": 1,
      "price": "1011000000000000000000",
      "reserved": "",
      "salt": "0x7953a61769e24237fe1d602f6032b82ad210b84fe58ac26348b5d3280d0c15a9",
      "assetIds": []
    },
    {
      "x": 163,
      "y": 388,
      "size": 1,
      "price": "1011000000000000000000",
      "reserved": "",
      "salt": "0x30553185a6db0bc298d68cec5f001c06aeed7f55c50a898dd8be9708aca4c6a4",
      "assetIds": []
    },
    {
      "x": 163,
      "y": 389,
      "size": 1,
      "price": "1011000000000000000000",
      "reserved": "",
      "salt": "0xa0d2cc350880b8c9919e41ccd29b6c0d07e53714855c9e07323c8a1d9341baf7",
      "assetIds": []
    },
    {
      "x": 163,
      "y": 390,
      "size": 1,
      "price": "1011000000000000000000",
      "reserved": "",
      "salt": "0xfbef3b5966d132b2cf8b746eef0f080434255745f3be0db681729331f15449d4",
      "assetIds": []
    },
    {
      "x": 163,
      "y": 391,
      "size": 1,
      "price": "1011000000000000000000",
      "reserved": "",
      "salt": "0xaead6dde9e9c16de26ca6b98ec861269b3d21c7324b27f3c49dff9370f0fae1a",
      "assetIds": []
    },
    {
      "x": 163,
      "y": 392,
      "size": 1,
      "price": "1011000000000000000000",
      "reserved": "0x7a9fe22691c811ea339d9b73150e6911a5343dca",
      "salt": "0x7cd357d9dcb301d5391d3c05e3087d9241144f4b75d1289068b5ffd70e93e1fd",
      "assetIds": []
    },
    {
      "x": 163,
      "y": 393,
      "size": 1,
      "price": "1011000000000000000000",
      "reserved": "",
      "salt": "0x851decacce8e54189816eacebf360556f516e5196a1abc68d57473da0c360b15",
      "assetIds": []
    },
    {
      "x": 163,
      "y": 394,
      "size": 1,
      "price": "1011000000000000000000",
      "reserved": "0x7a9fe22691c811ea339d9b73150e6911a5343dca",
      "salt": "0xcd32f67cd2998cc630cf40d267a947898f666e2747cccad29c6e07df523670ca",
      "assetIds": []
    },
    {
      "x": 163,
      "y": 395,
      "size": 1,
      "price": "1011000000000000000000",
      "reserved": "",
      "salt": "0x5cf359053cc1445df8363bd5b3c2263adeb8368725f16c45083cfe430ee1ef1e",
      "assetIds": []
    },
    {
      "x": 164,
      "y": 353,
      "size": 1,
      "price": "1011000000000000000000",
      "reserved": "",
      "salt": "0xef99d7c4114bef978fcdbaa2b44d32cf797f6d8cf0e756ad7c8918dc8222673d",
      "assetIds": []
    },
    {
      "x": 164,
      "y": 360,
      "size": 1,
      "price": "1011000000000000000000",
      "reserved": "0x7a9fe22691c811ea339d9b73150e6911a5343dca",
      "salt": "0x164937843519c5b734c6b92e60f36adc03cc1b46a57c64cfb0872960ec9f4225",
      "assetIds": []
    },
    {
      "x": 164,
      "y": 361,
      "size": 1,
      "price": "1011000000000000000000",
      "reserved": "",
      "salt": "0xc8928d573a3f091aea98a488e8eb0e6d03358d8fc15fcedee3aaca21bdbf0666",
      "assetIds": []
    },
    {
      "x": 164,
      "y": 362,
      "size": 1,
      "price": "1011000000000000000000",
      "reserved": "",
      "salt": "0x785cba6ff90c05ef21b7a18b0b8e859eb6133ddedc4fdc1337c29dd8a6fddbe0",
      "assetIds": []
    },
    {
      "x": 164,
      "y": 363,
      "size": 1,
      "price": "1011000000000000000000",
      "reserved": "0x7a9fe22691c811ea339d9b73150e6911a5343dca",
      "salt": "0x69b8631484eebd819ebbb0f1dbdaa54822ee92da59d26f617c5f1ae66bcfb1d8",
      "assetIds": []
    },
    {
      "x": 164,
      "y": 364,
      "size": 1,
      "price": "1011000000000000000000",
      "reserved": "",
      "salt": "0x58063fa4844904c5d981785ffa369dd91d97b6b77531dfae0a4b1e9a118cae66",
      "assetIds": []
    },
    {
      "x": 164,
      "y": 365,
      "size": 1,
      "price": "1011000000000000000000",
      "reserved": "0x7a9fe22691c811ea339d9b73150e6911a5343dca",
      "salt": "0xefa6282f7baa45128df7b4f4cde7969c47b7f7c4195c0443be4189e035b5b980",
      "assetIds": []
    },
    {
      "x": 164,
      "y": 384,
      "size": 1,
      "price": "1011000000000000000000",
      "reserved": "",
      "salt": "0xb1cf246422921fb54ed26963f15fcc3d57abbcfe1d421f6059f947bae96805ea",
      "assetIds": []
    },
    {
      "x": 164,
      "y": 385,
      "size": 1,
      "price": "1011000000000000000000",
      "reserved": "",
      "salt": "0xaf305c3d47416b7977e9d0416979843e8f179f5c08995adbcfeb1cca28d0ef4a",
      "assetIds": []
    },
    {
      "x": 164,
      "y": 386,
      "size": 1,
      "price": "1011000000000000000000",
      "reserved": "",
      "salt": "0x1f7da9a4faed348a567dc226651a4f50df2ed6896d3613cd772359f38f74725e",
      "assetIds": []
    },
    {
      "x": 164,
      "y": 387,
      "size": 1,
      "price": "1011000000000000000000",
      "reserved": "",
      "salt": "0xf931ac68cc0c3a43fa3b553e94403793dd2dec48fd42d1b4f3f36d4c34607fe9",
      "assetIds": []
    },
    {
      "x": 164,
      "y": 388,
      "size": 1,
      "price": "1011000000000000000000",
      "reserved": "0x7a9fe22691c811ea339d9b73150e6911a5343dca",
      "salt": "0xb1b572819fc38e2a7a453a23881e69d79263955b53ab77868a42caebf08dc9ce",
      "assetIds": []
    },
    {
      "x": 164,
      "y": 389,
      "size": 1,
      "price": "1011000000000000000000",
      "reserved": "",
      "salt": "0x6db25a88bf27203bb3c503694ea36e09dea24baccbae12d9870dcd5981be932e",
      "assetIds": []
    },
    {
      "x": 164,
      "y": 390,
      "size": 1,
      "price": "1011000000000000000000",
      "reserved": "",
      "salt": "0xc44c4f6b1fabf04a3a07128934960129cf9994a1feabea83c6bd87d2a5472783",
      "assetIds": []
    },
    {
      "x": 164,
      "y": 391,
      "size": 1,
      "price": "1011000000000000000000",
      "reserved": "",
      "salt": "0x4aa9bd44b5e7a8072ea423b8665f9779e436a04fcd779848e8d7ebdfc01c9f55",
      "assetIds": []
    },
    {
      "x": 164,
      "y": 392,
      "size": 1,
      "price": "1011000000000000000000",
      "reserved": "",
      "salt": "0x0b9a8764f812c6cf165500dad847313713b5974884c74584abcfbb460cc075ad",
      "assetIds": []
    },
    {
      "x": 164,
      "y": 393,
      "size": 1,
      "price": "1011000000000000000000",
      "reserved": "",
      "salt": "0xaee03f25d604a66b515e3d68958fe15255ef82b0a7ae2bf155f5085000b0fc29",
      "assetIds": []
    },
    {
      "x": 164,
      "y": 394,
      "size": 1,
      "price": "1011000000000000000000",
      "reserved": "",
      "salt": "0x498de0ba7fb7136e0c803324bff1fcdc710b10c41d39b614d54820af3affc90c",
      "assetIds": []
    },
    {
      "x": 164,
      "y": 395,
      "size": 1,
      "price": "1011000000000000000000",
      "reserved": "",
      "salt": "0xa135ef6de5d18eea893c8d03b1cd093ffd49268a77939a67f93991fb6d27ef08",
      "assetIds": []
    },
    {
      "x": 165,
      "y": 353,
      "size": 1,
      "price": "1011000000000000000000",
      "reserved": "",
      "salt": "0xfb001ee5b17d9f51bd6219a2dea49acef1ffc44bf9c2bdbf13b9958bb628173b",
      "assetIds": []
    },
    {
      "x": 165,
      "y": 360,
      "size": 1,
      "price": "4683000000000000000000",
      "reserved": "",
      "salt": "0x57ffd30627bad7ccdd1aab55571c770a542973e8cb74dbab964a0c2417b55783",
      "assetIds": [
        "41506478881403507969696680653240014914910929820314476107906210059990541021186"
      ]
    },
    {
      "x": 165,
      "y": 361,
      "size": 1,
      "price": "1011000000000000000000",
      "reserved": "",
      "salt": "0x4507aa4ddf7a7418df3d65d3d0a173c18ecbae011c581366e68ff0bf983998e0",
      "assetIds": []
    },
    {
      "x": 165,
      "y": 362,
      "size": 1,
      "price": "1011000000000000000000",
      "reserved": "",
      "salt": "0xad7a8e65dc48c333585fff6e3c0f420038212d23e66c2ac7bc87f4db83ed1730",
      "assetIds": []
    },
    {
      "x": 165,
      "y": 363,
      "size": 1,
      "price": "1011000000000000000000",
      "reserved": "0x7a9fe22691c811ea339d9b73150e6911a5343dca",
      "salt": "0xa738a94c30382aaf80a3d6a37c5f795a4f94cb64e012a47e76d0fc216bfb844c",
      "assetIds": []
    },
    {
      "x": 165,
      "y": 364,
      "size": 1,
      "price": "4683000000000000000000",
      "reserved": "",
      "salt": "0x0690ebc8df047cf3c0c928b2f7ebdf8a464234a7cbf1903b7524997219c6f17d",
      "assetIds": [
        "41506478881403507969696680653240014914910929820314476107906210059990541021186"
      ]
    },
    {
      "x": 165,
      "y": 365,
      "size": 1,
      "price": "4683000000000000000000",
      "reserved": "",
      "salt": "0x2c6659b4ccd972e053a0ce05e3b4fa637874c81e02fbfa12552fe51262df88d4",
      "assetIds": [
        "41506478881403507969696680653240014914910929820314476107906210059990541021186"
      ]
    },
    {
      "x": 165,
      "y": 384,
      "size": 1,
      "price": "1011000000000000000000",
      "reserved": "0x7a9fe22691c811ea339d9b73150e6911a5343dca",
      "salt": "0xea5c1077f7aa1455530440cb066eee92cffaf28ac960faf039e1413fbe31aa1e",
      "assetIds": []
    },
    {
      "x": 165,
      "y": 385,
      "size": 1,
      "price": "1011000000000000000000",
      "reserved": "",
      "salt": "0xa2d7b3be9e735f8c257e5b55c381af9af67c1b1c1f1cff23f3f6f49d26eb4adc",
      "assetIds": []
    },
    {
      "x": 165,
      "y": 386,
      "size": 1,
      "price": "1011000000000000000000",
      "reserved": "",
      "salt": "0x310f700fb545f5deb6f56238cd098753fbaa101265be0df018479b39d4b01eef",
      "assetIds": []
    },
    {
      "x": 165,
      "y": 387,
      "size": 1,
      "price": "1011000000000000000000",
      "reserved": "",
      "salt": "0xe77c08b2fd68842d10ab7b2feea66c706d9fac562854f9a7d2df8722275777d2",
      "assetIds": []
    },
    {
      "x": 165,
      "y": 388,
      "size": 1,
      "price": "1011000000000000000000",
      "reserved": "",
      "salt": "0x66100efa17f8543ea5b205eb7e07827232f59b8d633d345e8e04dafc2f0b28db",
      "assetIds": []
    },
    {
      "x": 165,
      "y": 389,
      "size": 1,
      "price": "1011000000000000000000",
      "reserved": "",
      "salt": "0xf47496fb20ce63892f8398d124f08ccd91dc7171249c76e38bba08196e5b3be2",
      "assetIds": []
    },
    {
      "x": 165,
      "y": 390,
      "size": 1,
      "price": "1011000000000000000000",
      "reserved": "",
      "salt": "0xfd82d36ab8e5e6770a38e8d3cec28db0b806465d38590064a22239d2d610fc53",
      "assetIds": []
    },
    {
      "x": 165,
      "y": 391,
      "size": 1,
      "price": "1011000000000000000000",
      "reserved": "",
      "salt": "0x0031fdf8cbde95525a62ee63513991b832e41c03d1d788c3b7cb9bec531cd860",
      "assetIds": []
    },
    {
      "x": 165,
      "y": 392,
      "size": 1,
      "price": "1011000000000000000000",
      "reserved": "",
      "salt": "0x4d0951b027075eeba027054d7cc6ecef7e47825688c4e9f0cde29c09b3ebaacc",
      "assetIds": []
    },
    {
      "x": 165,
      "y": 393,
      "size": 1,
      "price": "1011000000000000000000",
      "reserved": "0x7a9fe22691c811ea339d9b73150e6911a5343dca",
      "salt": "0x1df2d2d5c896a459466f1ba3411959ebf85f9bd83bb7592bb64e469dcb0adaac",
      "assetIds": []
    },
    {
      "x": 165,
      "y": 394,
      "size": 1,
      "price": "1011000000000000000000",
      "reserved": "",
      "salt": "0xf9ffd4ebe1dcf3a4e97946c8cc451799e9da99e3db49ff2fedfc4495572b9e5d",
      "assetIds": []
    },
    {
      "x": 165,
      "y": 395,
      "size": 1,
      "price": "1011000000000000000000",
      "reserved": "0x7a9fe22691c811ea339d9b73150e6911a5343dca",
      "salt": "0x065809f9ea7710271b267d61257cf2799f4ae2ec5e9d2f158d1568951401ffdf",
      "assetIds": []
    },
    {
      "x": 166,
      "y": 353,
      "size": 1,
      "price": "1011000000000000000000",
      "reserved": "",
      "salt": "0x37f3653579a01baa68473abd3a7d931ce67fe72c8200e7329a51309ae873feb1",
      "assetIds": []
    },
    {
      "x": 166,
      "y": 360,
      "size": 1,
      "price": "4683000000000000000000",
      "reserved": "",
      "salt": "0x4633d32c0d97728e051a676e8815fb1276ffd7b6fa8a48fa46fd45cb2f93f5b3",
      "assetIds": [
        "41506478881403507969696680653240014914910929820314476107906210059990541021186"
      ]
    },
    {
      "x": 166,
      "y": 361,
      "size": 1,
      "price": "4683000000000000000000",
      "reserved": "",
      "salt": "0xd57224dd8a9fa726183744622976d41bfd18e92249f0f9735af8c2b554a775bd",
      "assetIds": [
        "41506478881403507969696680653240014914910929820314476107906210059990541021186"
      ]
    },
    {
      "x": 166,
      "y": 362,
      "size": 1,
      "price": "1011000000000000000000",
      "reserved": "",
      "salt": "0x2e9bd1ec94dd912597e4f39138e5879a8af70087172cb4e550234eb9d985f33b",
      "assetIds": []
    },
    {
      "x": 166,
      "y": 363,
      "size": 1,
      "price": "4683000000000000000000",
      "reserved": "",
      "salt": "0x5ceca2c0d37c563289a797b6c52281b2260d633f55e1a451a2d6032521140cf1",
      "assetIds": [
        "41506478881403507969696680653240014914910929820314476107906210059990541021186"
      ]
    },
    {
      "x": 166,
      "y": 364,
      "size": 1,
      "price": "4683000000000000000000",
      "reserved": "",
      "salt": "0xdb04af3080f350f74a235b9e42b64fcbf7168b6c3df1b0da5ac14d29248df85e",
      "assetIds": [
        "41506478881403507969696680653240014914910929820314476107906210059990541021186"
      ]
    },
    {
      "x": 166,
      "y": 365,
      "size": 1,
      "price": "4683000000000000000000",
      "reserved": "",
      "salt": "0x95046926b3c86300e390965b8e2510af36239a4d5d653e587f9349216224e2c4",
      "assetIds": [
        "41506478881403507969696680653240014914910929820314476107906210059990541021186"
      ]
    },
    {
      "x": 166,
      "y": 384,
      "size": 1,
      "price": "1011000000000000000000",
      "reserved": "",
      "salt": "0x230ba1ce0f19cb2f7681a8cce17c437348c538cd832ba504c03423da50ed0c1d",
      "assetIds": []
    },
    {
      "x": 166,
      "y": 385,
      "size": 1,
      "price": "1011000000000000000000",
      "reserved": "",
      "salt": "0x9a371571151b5593c836c371a74b35bb77b90bbb01ed51123d2601684a3a9f96",
      "assetIds": []
    },
    {
      "x": 166,
      "y": 386,
      "size": 1,
      "price": "1011000000000000000000",
      "reserved": "",
      "salt": "0xa6fdd2fc9638de3886d921eab1403c15d5faa901b4eafcd236f4c0cb34ab30a8",
      "assetIds": []
    },
    {
      "x": 166,
      "y": 387,
      "size": 1,
      "price": "1011000000000000000000",
      "reserved": "",
      "salt": "0x4ab1b368b21d5fe4df4d4a20024fcb873e848c21b3f572c48f83cb3ec02e3017",
      "assetIds": []
    },
    {
      "x": 166,
      "y": 388,
      "size": 1,
      "price": "1011000000000000000000",
      "reserved": "",
      "salt": "0x054a8116091256ca07a038d1af771328906af12b59ab6b0f1fbc220c356d16b5",
      "assetIds": []
    },
    {
      "x": 166,
      "y": 389,
      "size": 1,
      "price": "1011000000000000000000",
      "reserved": "",
      "salt": "0x7f590b4efeb8bdbb9d6aa83132397038f269c9b6dcc7e61b803e63684f0471f5",
      "assetIds": []
    },
    {
      "x": 166,
      "y": 390,
      "size": 1,
      "price": "1011000000000000000000",
      "reserved": "",
      "salt": "0x232d48b7e28b236c1bd47a94760bbc6e96cfd2ee60236006e6cbd84e3def52ea",
      "assetIds": []
    },
    {
      "x": 166,
      "y": 391,
      "size": 1,
      "price": "1011000000000000000000",
      "reserved": "",
      "salt": "0x42fb6213f940d08ae4ae6b995d6957f0f061211205dc44847c1503a92d1d34f6",
      "assetIds": []
    },
    {
      "x": 166,
      "y": 392,
      "size": 1,
      "price": "1011000000000000000000",
      "reserved": "0x7a9fe22691c811ea339d9b73150e6911a5343dca",
      "salt": "0xce46cdda56b3e0aaebaff12238bbf47aed97a4be1afc99994adbb8c2e40b2df6",
      "assetIds": []
    },
    {
      "x": 166,
      "y": 393,
      "size": 1,
      "price": "1011000000000000000000",
      "reserved": "",
      "salt": "0x11bcc123c7f2521434311c2769ee00fc4efcc26b707c3deb57f5ee67806f9596",
      "assetIds": []
    },
    {
      "x": 166,
      "y": 394,
      "size": 1,
      "price": "1011000000000000000000",
      "reserved": "",
      "salt": "0x93b70c74a5d736d7f5e0e2128b4b1deec346c0c63f894afc969798b10a1ed92f",
      "assetIds": []
    },
    {
      "x": 166,
      "y": 395,
      "size": 1,
      "price": "1011000000000000000000",
      "reserved": "",
      "salt": "0xb4dbf30dfc5ce60de7d08d393f54c782a806842941034ec17606922ee7be6e4f",
      "assetIds": []
    },
    {
      "x": 167,
      "y": 353,
      "size": 1,
      "price": "1011000000000000000000",
      "reserved": "",
      "salt": "0x318384dfaec26617daaa7c314d11d4dbebb2e704f167411d68aa56a1a4761308",
      "assetIds": []
    },
    {
      "x": 167,
      "y": 360,
      "size": 1,
      "price": "4683000000000000000000",
      "reserved": "",
      "salt": "0x592f91ed00b4d3a559b99bda9614c49aad9cc86d06339aba5f8a9f3ebf62752d",
      "assetIds": [
        "41506478881403507969696680653240014914910929820314476107906210059990541021186"
      ]
    },
    {
      "x": 167,
      "y": 361,
      "size": 1,
      "price": "4683000000000000000000",
      "reserved": "",
      "salt": "0x623bcbcc1e730e472d5cd32e17330c2d6d104603b1aa1afaefa540815af6eaed",
      "assetIds": [
        "41506478881403507969696680653240014914910929820314476107906210059990541021186"
      ]
    },
    {
      "x": 167,
      "y": 362,
      "size": 1,
      "price": "4683000000000000000000",
      "reserved": "",
      "salt": "0xa72d8b03ab19218ffd3fc2b0f238e88a2f70902b4bbf4daee4cf3d0e809e4578",
      "assetIds": [
        "41506478881403507969696680653240014914910929820314476107906210059990541021186"
      ]
    },
    {
      "x": 167,
      "y": 363,
      "size": 1,
      "price": "4683000000000000000000",
      "reserved": "",
      "salt": "0x94e57d3e808905412e4e736320e7799c78aafc3d896cffaa732a13533ab5b544",
      "assetIds": [
        "41506478881403507969696680653240014914910929820314476107906210059990541021186"
      ]
    },
    {
      "x": 167,
      "y": 364,
      "size": 1,
      "price": "4683000000000000000000",
      "reserved": "",
      "salt": "0xeb018499aef109c59cf73dcf22fb8665bfc83e6ec9e70aeeb20de079a2449f9d",
      "assetIds": [
        "41506478881403507969696680653240014914910929820314476107906210059990541021186"
      ]
    },
    {
      "x": 167,
      "y": 365,
      "size": 1,
      "price": "4683000000000000000000",
      "reserved": "",
      "salt": "0x20f475cc013cdfe3e89835fe4a753bdad707f64f6642748dbebbf05e14c23495",
      "assetIds": [
        "41506478881403507969696680653240014914910929820314476107906210059990541021186"
      ]
    },
    {
      "x": 167,
      "y": 384,
      "size": 1,
      "price": "1011000000000000000000",
      "reserved": "",
      "salt": "0x32214ecd92e3ef234759e314eea7cf3c748154cd425587b0f03d93e11a7f590c",
      "assetIds": []
    },
    {
      "x": 167,
      "y": 385,
      "size": 1,
      "price": "1011000000000000000000",
      "reserved": "",
      "salt": "0x6eb81bae52d4d0a154f5d4ed2c5d4ef9652deeaf4774b8ac6767c6e6e3dc0860",
      "assetIds": []
    },
    {
      "x": 167,
      "y": 386,
      "size": 1,
      "price": "1011000000000000000000",
      "reserved": "",
      "salt": "0x146c4d6ef653e496f6e01a5c77874f6172a42150de39bfc7cebd117e32ef0e70",
      "assetIds": []
    },
    {
      "x": 167,
      "y": 387,
      "size": 1,
      "price": "1011000000000000000000",
      "reserved": "",
      "salt": "0x9ce5dd3e3cdc7087c914fc25411384e420a091cbd3937e19964ca8ab761732c0",
      "assetIds": []
    },
    {
      "x": 167,
      "y": 388,
      "size": 1,
      "price": "1011000000000000000000",
      "reserved": "",
      "salt": "0x0927b9a1f8f6f357397629b421a74404a26dd63a23d23f8d368321c638d8781d",
      "assetIds": []
    },
    {
      "x": 167,
      "y": 389,
      "size": 1,
      "price": "1011000000000000000000",
      "reserved": "0x7a9fe22691c811ea339d9b73150e6911a5343dca",
      "salt": "0x0c93209e39b7d89558ee79493877e1a50e2301ffd4e76525fa876ee20292873a",
      "assetIds": []
    },
    {
      "x": 167,
      "y": 390,
      "size": 1,
      "price": "1011000000000000000000",
      "reserved": "",
      "salt": "0x3ab75adee832986f60a8eca9b584238c5bdb2d6268bad7695a668034586d96df",
      "assetIds": []
    },
    {
      "x": 167,
      "y": 391,
      "size": 1,
      "price": "1011000000000000000000",
      "reserved": "",
      "salt": "0xc12c476eeae7260612cdaba010b2744f101c181cdfd3fc73b8fa0d8989cff07e",
      "assetIds": []
    },
    {
      "x": 167,
      "y": 392,
      "size": 1,
      "price": "1011000000000000000000",
      "reserved": "0x7a9fe22691c811ea339d9b73150e6911a5343dca",
      "salt": "0x9a52b81ee928ebf31495008e9f2f5fe2f4837fc8534954869329227a7109735c",
      "assetIds": []
    },
    {
      "x": 167,
      "y": 393,
      "size": 1,
      "price": "1011000000000000000000",
      "reserved": "0x7a9fe22691c811ea339d9b73150e6911a5343dca",
      "salt": "0xf0eff4583956e7fd6817fe4b66fa45d8361af4d05a5ffa64fbbef31982e086ae",
      "assetIds": []
    },
    {
      "x": 167,
      "y": 394,
      "size": 1,
      "price": "1011000000000000000000",
      "reserved": "",
      "salt": "0x7a4ec6bd945eeb98d84fc174c82f98e04088c6185681f3cff96c976396ddc66b",
      "assetIds": []
    },
    {
      "x": 167,
      "y": 395,
      "size": 1,
      "price": "1011000000000000000000",
      "reserved": "0x7a9fe22691c811ea339d9b73150e6911a5343dca",
      "salt": "0xc364a5e9e9fe538ff2ed556bcb21f2fe9bbd29872bf843bfdd94d4356b007b48",
      "assetIds": []
    },
    {
      "x": 168,
      "y": 384,
      "size": 1,
      "price": "1011000000000000000000",
      "reserved": "0x7a9fe22691c811ea339d9b73150e6911a5343dca",
      "salt": "0x5f1420b928040f5a531ccce1819d6b7dd5564a34d42463cb996c871588952a98",
      "assetIds": []
    },
    {
      "x": 168,
      "y": 385,
      "size": 1,
      "price": "1011000000000000000000",
      "reserved": "",
      "salt": "0x4406f6f7c5e91a44b99aec4878781cc13cd681447aa38e20dd361515d944e772",
      "assetIds": []
    },
    {
      "x": 168,
      "y": 386,
      "size": 1,
      "price": "1011000000000000000000",
      "reserved": "",
      "salt": "0x83e70f0407cd924274692a8df2b5a212b22899825203804a95ff047779ae6098",
      "assetIds": []
    },
    {
      "x": 168,
      "y": 387,
      "size": 1,
      "price": "1011000000000000000000",
      "reserved": "",
      "salt": "0x7c1de50380d3e1b31df9f777499878c532df604f451084b8301b6392b625ae53",
      "assetIds": []
    },
    {
      "x": 168,
      "y": 388,
      "size": 1,
      "price": "1011000000000000000000",
      "reserved": "",
      "salt": "0xa45427d2c9f2619d793202d0cf45cfc5adf1e17752d7a8257d8934e252b089d8",
      "assetIds": []
    },
    {
      "x": 168,
      "y": 389,
      "size": 1,
      "price": "1011000000000000000000",
      "reserved": "",
      "salt": "0x06a70215d044fb3475784b436574b32e832f07a190119d01d41a90559b3b3a21",
      "assetIds": []
    },
    {
      "x": 168,
      "y": 390,
      "size": 1,
      "price": "1011000000000000000000",
      "reserved": "",
      "salt": "0x78fc466f73440855982b12aab7d99d3791fb7f8185cafa359a3335993fab421d",
      "assetIds": []
    },
    {
      "x": 168,
      "y": 391,
      "size": 1,
      "price": "1011000000000000000000",
      "reserved": "",
      "salt": "0xd8b04c2b129d37c528558efc9cfe033eb8059b45a67a66b90964434edef648ba",
      "assetIds": []
    },
    {
      "x": 168,
      "y": 392,
      "size": 1,
      "price": "1011000000000000000000",
      "reserved": "",
      "salt": "0x474cda389a8bfac1c4047bfcb170ab00502be2ac3dc000cec3c3a2fd04b4f0c1",
      "assetIds": []
    },
    {
      "x": 168,
      "y": 393,
      "size": 1,
      "price": "1011000000000000000000",
      "reserved": "",
      "salt": "0xfeffb4e2866bc82fa2f770b2de6399ec9f2398e4e3fdfcb02420cdea72a89754",
      "assetIds": []
    },
    {
      "x": 168,
      "y": 394,
      "size": 1,
      "price": "1011000000000000000000",
      "reserved": "",
      "salt": "0xf332c0115088ab86df6765b6f4ea9e38f385ba57fe3464ff7afceeabefdde868",
      "assetIds": []
    },
    {
      "x": 168,
      "y": 395,
      "size": 1,
      "price": "1011000000000000000000",
      "reserved": "",
      "salt": "0xedb0356b83e6b539528108fa457a42e52fbe1dd57f1cb3017818a50e76f0c3dc",
      "assetIds": []
    },
    {
      "x": 169,
      "y": 384,
      "size": 1,
      "price": "1011000000000000000000",
      "reserved": "",
      "salt": "0xc3138ec7ac470f38eb654738c9ddd01bf7b4621a1dea60a216bc82dd7e00ebaa",
      "assetIds": []
    },
    {
      "x": 169,
      "y": 385,
      "size": 1,
      "price": "1011000000000000000000",
      "reserved": "",
      "salt": "0x23028598f774550c6cc54d6e2c22efd18cad9dd246f0cfa4066a818041826b10",
      "assetIds": []
    },
    {
      "x": 169,
      "y": 386,
      "size": 1,
      "price": "1011000000000000000000",
      "reserved": "",
      "salt": "0x18e1206460d053b9b73000fd4c776df993e615acdf5104ce9bc8e99932e18316",
      "assetIds": []
    },
    {
      "x": 169,
      "y": 387,
      "size": 1,
      "price": "1011000000000000000000",
      "reserved": "",
      "salt": "0x12b8a33d6dd8d9e34d830d176df10ba1132879384c0a1e203671f9f631784c30",
      "assetIds": []
    },
    {
      "x": 169,
      "y": 388,
      "size": 1,
      "price": "1011000000000000000000",
      "reserved": "",
      "salt": "0xf7e28985f18f0bad858a4f0a2da28edbdbacf3ed20a2ae0781bddb8c5ef4ded9",
      "assetIds": []
    },
    {
      "x": 169,
      "y": 389,
      "size": 1,
      "price": "1011000000000000000000",
      "reserved": "",
      "salt": "0x3806b1fbce36e7d7317abdaa0edbfeb799a23f759797a9eaa4e368b040e872b9",
      "assetIds": []
    },
    {
      "x": 169,
      "y": 390,
      "size": 1,
      "price": "1011000000000000000000",
      "reserved": "",
      "salt": "0xda5f51fef6ff3643e8a7aaddad532bd66ce8cca20ab8383aacb1ea09d3cead89",
      "assetIds": []
    },
    {
      "x": 169,
      "y": 391,
      "size": 1,
      "price": "1011000000000000000000",
      "reserved": "",
      "salt": "0xd97c62c31b2ae48bf6e94b35a0108b60cd386e08053ff02cf8b5b15070de33e8",
      "assetIds": []
    },
    {
      "x": 169,
      "y": 392,
      "size": 1,
      "price": "1011000000000000000000",
      "reserved": "",
      "salt": "0x8275e63555b90efcb4900d2b461d289743f7ef3921cf58f772b3371ea4b85b9a",
      "assetIds": []
    },
    {
      "x": 169,
      "y": 393,
      "size": 1,
      "price": "1011000000000000000000",
      "reserved": "",
      "salt": "0x2c272b088e7402ce576b4d5ecde58b496bd6a11b09032dbe78b4e94b84abdaa6",
      "assetIds": []
    },
    {
      "x": 169,
      "y": 394,
      "size": 1,
      "price": "1011000000000000000000",
      "reserved": "",
      "salt": "0xbc627d89d6ec1b55fed652663465cb178667a585b6a5eee4f54e29fcae166fb7",
      "assetIds": []
    },
    {
      "x": 169,
      "y": 395,
      "size": 1,
      "price": "1011000000000000000000",
      "reserved": "",
      "salt": "0x210b4f47d6102403795daecf3a62c8198553b24b20bd735392b347df82a704f5",
      "assetIds": []
    },
    {
      "x": 120,
      "y": 372,
      "size": 3,
      "price": "8648000000000000000000",
      "reserved": "",
      "salt": "0x774020db6015bdd9a73c94c38bee11646745f84a15e0c4e54af1582ec43d6a62",
      "assetIds": []
    },
    {
      "x": 120,
      "y": 375,
      "size": 3,
      "price": "8648000000000000000000",
      "reserved": "0x7a9fe22691c811ea339d9b73150e6911a5343dca",
      "salt": "0x7abf7f12eaa7c5e2ac4565d427e55e5eea27c018c8ba1164a500e3c3effbb2c4",
      "assetIds": []
    },
    {
      "x": 120,
      "y": 387,
      "size": 3,
      "price": "8648000000000000000000",
      "reserved": "0x7a9fe22691c811ea339d9b73150e6911a5343dca",
      "salt": "0xa82f898cf831e6c2924f5b569112c1d81868bca9cd8bc2bc4a5f38bee3b05cfb",
      "assetIds": []
    },
    {
      "x": 120,
      "y": 393,
      "size": 3,
      "price": "8648000000000000000000",
      "reserved": "0x7a9fe22691c811ea339d9b73150e6911a5343dca",
      "salt": "0x99556c36596562086b475b06c7e45ede1794a9619ef2f84b3b8337ba91edc8f6",
      "assetIds": []
    },
    {
      "x": 123,
      "y": 378,
      "size": 3,
      "price": "8648000000000000000000",
      "reserved": "0x7a9fe22691c811ea339d9b73150e6911a5343dca",
      "salt": "0x4dac8992e2e6faffc4598d1c2eb5ed7ddd8745b4546b933b3832e5871d970242",
      "assetIds": []
    },
    {
      "x": 126,
      "y": 357,
      "size": 3,
      "price": "8648000000000000000000",
      "reserved": "0x7a9fe22691c811ea339d9b73150e6911a5343dca",
      "salt": "0x1887aa9554acef7f33bafb51ea3e0669978b305543b0413fee76f5d9a68ee604",
      "assetIds": []
    },
    {
      "x": 129,
      "y": 366,
      "size": 3,
      "price": "8648000000000000000000",
      "reserved": "0x7a9fe22691c811ea339d9b73150e6911a5343dca",
      "salt": "0x719ccb0fe044cc3710ad4f460d890f6d8fb6f7981b80cbbf90e0e91ff7d9b2e7",
      "assetIds": []
    },
    {
      "x": 132,
      "y": 390,
      "size": 3,
      "price": "8648000000000000000000",
      "reserved": "0x7a9fe22691c811ea339d9b73150e6911a5343dca",
      "salt": "0x4202cf430eb09abd725af608fc7491fd10533b7762859be68342957c15eb2c6c",
      "assetIds": []
    },
    {
      "x": 135,
      "y": 393,
      "size": 3,
      "price": "8648000000000000000000",
      "reserved": "",
      "salt": "0x0473aa16ecaac41593f5fcff91d992759b0e3656d01066710afb36c60b559ade",
      "assetIds": []
    },
    {
      "x": 138,
      "y": 387,
      "size": 3,
      "price": "8648000000000000000000",
      "reserved": "0x7a9fe22691c811ea339d9b73150e6911a5343dca",
      "salt": "0x4bbfe319a5d070fbf05e51db35c76b5175c315bfd0c22975fe240dd14ae37083",
      "assetIds": []
    },
    {
      "x": 141,
      "y": 396,
      "size": 3,
      "price": "8648000000000000000000",
      "reserved": "0x7a9fe22691c811ea339d9b73150e6911a5343dca",
      "salt": "0x22053363c25b08d807b1af81142354b178250c219434c84bd3405151a38fa9f1",
      "assetIds": []
    },
    {
      "x": 144,
      "y": 363,
      "size": 3,
      "price": "8648000000000000000000",
      "reserved": "0x7a9fe22691c811ea339d9b73150e6911a5343dca",
      "salt": "0x9d14c310d1187be432c2e03ae6d05bcda554257662df8f63a835f4ad21bf96ff",
      "assetIds": []
    },
    {
      "x": 147,
      "y": 372,
      "size": 3,
      "price": "8648000000000000000000",
      "reserved": "0x7a9fe22691c811ea339d9b73150e6911a5343dca",
      "salt": "0x43bc12032ffa24607e161110443cdbfccbd3d281d83fe7985156bc5e0512be9f",
      "assetIds": []
    },
    {
      "x": 150,
      "y": 357,
      "size": 3,
      "price": "8648000000000000000000",
      "reserved": "0x7a9fe22691c811ea339d9b73150e6911a5343dca",
      "salt": "0xe4509454152b835ae7156a3c60279f2d7a4f057246cd06a3b8dd8d3fdf8abbae",
      "assetIds": []
    },
    {
      "x": 150,
      "y": 360,
      "size": 3,
      "price": "8648000000000000000000",
      "reserved": "0x7a9fe22691c811ea339d9b73150e6911a5343dca",
      "salt": "0xd8b1003b1a6bed8142a3f9db3492a734bccd43cbf57e818bff0dc7195ff09785",
      "assetIds": []
    },
    {
      "x": 150,
      "y": 366,
      "size": 3,
      "price": "8648000000000000000000",
      "reserved": "0x7a9fe22691c811ea339d9b73150e6911a5343dca",
      "salt": "0xe9649fff0ee75a09788e8a508b14d234645408315c02e0ee011ccb6610df567a",
      "assetIds": []
    },
    {
      "x": 150,
      "y": 369,
      "size": 3,
      "price": "8648000000000000000000",
      "reserved": "0x7a9fe22691c811ea339d9b73150e6911a5343dca",
      "salt": "0xc67f63e8ccf842444c06fe58ee2aa021f22b89662bc3952fc9dd4cd0a7257f00",
      "assetIds": []
    },
    {
      "x": 150,
      "y": 375,
      "size": 3,
      "price": "8648000000000000000000",
      "reserved": "0x7a9fe22691c811ea339d9b73150e6911a5343dca",
      "salt": "0xe5307ac1639bef3da4d4f57f99851754a4ba18c9d74295d9a5c17899e7239333",
      "assetIds": []
    },
    {
      "x": 153,
      "y": 357,
      "size": 3,
      "price": "8648000000000000000000",
      "reserved": "0x7a9fe22691c811ea339d9b73150e6911a5343dca",
      "salt": "0xc25c639d5404689c2b360f8aea20f20d1945f7dbbdab05938af96f36aaa6d4d6",
      "assetIds": []
    },
    {
      "x": 153,
      "y": 360,
      "size": 3,
      "price": "8648000000000000000000",
      "reserved": "0x7a9fe22691c811ea339d9b73150e6911a5343dca",
      "salt": "0xbffb5458dc21a4479012d04d7a38e0b553ec27f857fb0537c25570c49ff63d28",
      "assetIds": []
    },
    {
      "x": 153,
      "y": 366,
      "size": 3,
      "price": "8648000000000000000000",
      "reserved": "0x7a9fe22691c811ea339d9b73150e6911a5343dca",
      "salt": "0xb2efb09bc2287fb363390e95b8975961d99ec2f1d9727a28edf233b261a5c59e",
      "assetIds": []
    },
    {
      "x": 153,
      "y": 369,
      "size": 3,
      "price": "8648000000000000000000",
      "reserved": "0x7a9fe22691c811ea339d9b73150e6911a5343dca",
      "salt": "0x850ad86936a0ae1ad04f4c3fd2e97e878afec498185c760f7537e7963b72eeeb",
      "assetIds": []
    },
    {
      "x": 159,
      "y": 369,
      "size": 3,
      "price": "8648000000000000000000",
      "reserved": "0x7a9fe22691c811ea339d9b73150e6911a5343dca",
      "salt": "0x3290ea8fdf5cdd6bb561fa67a86fb7ee2baf4d28a1cc7d6a0b3d6bfd04dcd485",
      "assetIds": []
    },
    {
      "x": 120,
      "y": 348,
      "size": 6,
      "price": "32772000000000000000000",
      "reserved": "0x7a9fe22691c811ea339d9b73150e6911a5343dca",
      "salt": "0x73eee1831eb90134da0e98df183d89e87227d32990c284033c037e9087d38103",
      "assetIds": []
    },
    {
      "x": 120,
      "y": 360,
      "size": 6,
      "price": "32772000000000000000000",
      "reserved": "0x7a9fe22691c811ea339d9b73150e6911a5343dca",
      "salt": "0x4642e2e0d0a13db9010a76ed73902139c692d9f84e4861422f83fb15ff7e8e17",
      "assetIds": []
    },
    {
      "x": 120,
      "y": 396,
      "size": 6,
      "price": "32772000000000000000000",
      "reserved": "0x7a9fe22691c811ea339d9b73150e6911a5343dca",
      "salt": "0xf1f26ef2b6c07e08edc4553fda0a04a6728e3357cba6b42e741d92c3a68cb693",
      "assetIds": []
    },
    {
      "x": 120,
      "y": 402,
      "size": 6,
      "price": "32772000000000000000000",
      "reserved": "0x7a9fe22691c811ea339d9b73150e6911a5343dca",
      "salt": "0xa43633f014b96b916bde67bf8f33bd647114075b63abcd95bd6ffbf2ea34ad0e",
      "assetIds": []
    },
    {
      "x": 126,
      "y": 372,
      "size": 6,
      "price": "32772000000000000000000",
      "reserved": "0x7a9fe22691c811ea339d9b73150e6911a5343dca",
      "salt": "0x6413e7df8db520e8357ee3773ffad14cd5a4cabe0f72c360ec9f0b930d310cba",
      "assetIds": []
    },
    {
      "x": 126,
      "y": 384,
      "size": 6,
      "price": "32772000000000000000000",
      "reserved": "0x7a9fe22691c811ea339d9b73150e6911a5343dca",
      "salt": "0xa0f0b609443aea7461311847b1ec794b474baf453d5618cd383e435450e9ceb4",
      "assetIds": []
    },
    {
      "x": 126,
      "y": 390,
      "size": 6,
      "price": "32772000000000000000000",
      "reserved": "0x7a9fe22691c811ea339d9b73150e6911a5343dca",
      "salt": "0x25593188b87dd6f77f2d9b4195b4d2dd870a749a1d483b8eabd5d6b9aec24ef3",
      "assetIds": []
    },
    {
      "x": 132,
      "y": 396,
      "size": 6,
      "price": "32772000000000000000000",
      "reserved": "0x7a9fe22691c811ea339d9b73150e6911a5343dca",
      "salt": "0x68e8e7e60b030940c074d2b642c6c3ff09d79d71a321c88b5479fdbd9bd37866",
      "assetIds": []
    },
    {
      "x": 138,
      "y": 366,
      "size": 6,
      "price": "32772000000000000000000",
      "reserved": "0x7a9fe22691c811ea339d9b73150e6911a5343dca",
      "salt": "0x61fe57da23ae2b9c733a0d9d7e343cad27d1c43d057c4a81bc631a323a9c7787",
      "assetIds": []
    },
    {
      "x": 138,
      "y": 402,
      "size": 6,
      "price": "32772000000000000000000",
      "reserved": "0x7a9fe22691c811ea339d9b73150e6911a5343dca",
      "salt": "0x565850eb1080858719b2254ebd327750af4e1da8c4631e18c29604a477a69e79",
      "assetIds": []
    },
    {
      "x": 150,
      "y": 378,
      "size": 6,
      "price": "32772000000000000000000",
      "reserved": "0x7a9fe22691c811ea339d9b73150e6911a5343dca",
      "salt": "0x75ce412c7ba2f370ff32427b76fa5b53d87e53e61ca3ec394deeb011dd1c9953",
      "assetIds": []
    },
    {
      "x": 150,
      "y": 390,
      "size": 6,
      "price": "32772000000000000000000",
      "reserved": "0x7a9fe22691c811ea339d9b73150e6911a5343dca",
      "salt": "0x00ad858505f16e5677b2ef953af3430c728b30867621bb1579326e2c0b676591",
      "assetIds": []
    },
    {
      "x": 162,
      "y": 354,
      "size": 6,
      "price": "32772000000000000000000",
      "reserved": "0x7a9fe22691c811ea339d9b73150e6911a5343dca",
      "salt": "0xd687ca787a1a60627d6847b65525fc985c33d2756113fbd7d87bae3c3930772e",
      "assetIds": []
    },
    {
      "x": 162,
      "y": 366,
      "size": 6,
      "price": "32772000000000000000000",
      "reserved": "0x7a9fe22691c811ea339d9b73150e6911a5343dca",
      "salt": "0xe993735feee358a6407a85c014e5ea021d3d56dd5836b14c7514de5203b28fe2",
      "assetIds": []
    },
    {
      "x": 132,
      "y": 348,
      "size": 12,
      "price": "123806000000000000000000",
      "reserved": "0x7a9fe22691c811ea339d9b73150e6911a5343dca",
      "salt": "0x070b256ed3e6f1724bd9e9ea6853dcfab14e29fc1aee9469fe0221704d0cb5cc",
      "assetIds": []
    },
    {
      "x": 132,
      "y": 372,
      "size": 12,
      "price": "123806000000000000000000",
      "reserved": "0x7a9fe22691c811ea339d9b73150e6911a5343dca",
      "salt": "0xf765131bfb37f04bddee3337059a80d3a991d4a6ca9906c7ab1d31777141fdac",
      "assetIds": []
    },
    {
      "x": 156,
      "y": 372,
      "size": 12,
      "price": "123806000000000000000000",
      "reserved": "0x7a9fe22691c811ea339d9b73150e6911a5343dca",
      "salt": "0xd6bb9d91abfadbf557e947dda305f48dd641693e9ee2e331fb0922b7b32f5488",
      "assetIds": []
    },
    {
      "x": 156,
      "y": 396,
      "size": 12,
      "price": "123806000000000000000000",
      "reserved": "0x7a9fe22691c811ea339d9b73150e6911a5343dca",
      "salt": "0x8a2ce32cc5e2b512498b9353f4c52b412e7909e86c24b117cbaf550d81759275",
      "assetIds": []
    },
    {
      "x": 168,
      "y": 348,
      "size": 12,
      "price": "123806000000000000000000",
      "reserved": "0x7a9fe22691c811ea339d9b73150e6911a5343dca",
      "salt": "0x0d9a387d97c684454a41eb211577050ebd676ad89f60bf0a3f3171b34c3f8bff",
      "assetIds": []
    },
    {
      "x": 96,
      "y": 384,
      "size": 24,
      "price": "466102000000000000000000",
      "reserved": "0x7a9fe22691c811ea339d9b73150e6911a5343dca",
      "salt": "0xe48efda7841e0ad2c24c76ec0b025745ca7a2cc95d1a20448ae42ea318d83361",
      "assetIds": []
    },
    {
      "x": 168,
      "y": 360,
      "size": 24,
      "price": "466102000000000000000000",
      "reserved": "0x7a9fe22691c811ea339d9b73150e6911a5343dca",
      "salt": "0xa9aa6af9d332da7c2feca3e72385d8c10a2e03b7245aebda24f35d79b85ae91d",
      "assetIds": []
    }
  ],
  "solcInputHash": "313f455adab9ae93096e43acc50d7d38",
  "bytecode": "0x610160604052620d2f006005556103e860075534801561001e57600080fd5b5060405161242e38038061242e833981810160405261018081101561004257600080fd5b50805160208201516040830151606080850151608086015160a08088015160c0808a015160e08b01516101008c01516101208d01516101408e0151610160909e0151600280546001600160a01b0319166001600160a01b03861617905560038390558d8b1b6001600160601b0319908116909852998c901b909616909352999a9899979895979496929590949391926100dc8a600161014a565b600680546001600160a01b03199081166001600160a01b039a8b1617909155610140979097526101209590955260008054909616979096169690961790935550606093841b6001600160601b031990811660e05292841b831660805290921b1661010052506101ae92505050565b6001600160a01b038216600081815260016020908152604091829020805460ff191685151590811790915582519384529083015280517fb21eb88b4e33b3f1281830a7178d74d8aa73220416215726b68ae23d539515cb9281900390910190a15050565b60805160601c60a05160601c60c05160601c60e05160601c6101005160601c61012051610140516121fb610233600039806109375280611d44525080610913528061139a525080611da45250806115d252806116f4525080610c50528061159c5280611dd852508061166152806116c5525080610dfa528061190852506121fb6000f3fe608060405234801561001057600080fd5b50600436106101515760003560e01c8063984d6252116100cd578063dc5074af11610081578063ecb255b511610066578063ecb255b514610857578063f23a6e6114610874578063f2e7b3811461090957610151565b8063dc5074af14610814578063e56f8a9e1461083a57610151565b8063bc197c81116100b2578063bc197c81146105d3578063c10a420814610735578063caed35001461080c57610151565b8063984d6252146104db578063b522ecff146105ad57610151565b80636e9960c3116101245780638a04af6a116101095780638a04af6a1461032a5780638a12b82f146103585780638f283970146104b557610151565b80636e9960c3146102fe57806377f1c3ac1461032257610151565b806325cb5bc014610156578063495906571461017057806358bc29441461017857806365194ce7146101a0575b600080fd5b61015e610911565b60408051918252519081900360200190f35b61015e610935565b61019e6004803603602081101561018e57600080fd5b50356001600160a01b0316610959565b005b610246600480360360208110156101b657600080fd5b8101906020810181356401000000008111156101d157600080fd5b8201836020820111156101e357600080fd5b8035906020019184600183028401116401000000008311171561020557600080fd5b91908080601f016020809104026020016040519081016040528093929190818152602001838380828437600092019190915250929550610a04945050505050565b6040518080602001866001600160a01b03166001600160a01b03168152602001856001600160a01b03166001600160a01b03168152602001848152602001838152602001828103825287818151815260200191508051906020019080838360005b838110156102bf5781810151838201526020016102a7565b50505050905090810190601f1680156102ec5780820380516001836020036101000a031916815260200191505b50965050505050505060405180910390f35b610306610b09565b604080516001600160a01b039092168252519081900360200190f35b61015e610b18565b61019e6004803603604081101561034057600080fd5b506001600160a01b0381351690602001351515610b1e565b61019e600480360361018081101561036f57600080fd5b6001600160a01b038235811692602081013582169260408201359092169160608201359160808101359160a08201359160c08101359160e0820135916101008101359181019061014081016101208201356401000000008111156103d257600080fd5b8201836020820111156103e457600080fd5b8035906020019184602083028401116401000000008311171561040657600080fd5b91939092909160208101903564010000000081111561042457600080fd5b82018360208201111561043657600080fd5b8035906020019184602083028401116401000000008311171561045857600080fd5b91939092909160208101903564010000000081111561047657600080fd5b82018360208201111561048857600080fd5b803590602001918460018302840111640100000000831117156104aa57600080fd5b509092509050610b75565b61019e600480360360208110156104cb57600080fd5b50356001600160a01b0316610cc3565b61019e600480360360608110156104f157600080fd5b6001600160a01b03823516919081019060408101602082013564010000000081111561051c57600080fd5b82018360208201111561052e57600080fd5b8035906020019184602083028401116401000000008311171561055057600080fd5b91939092909160208101903564010000000081111561056e57600080fd5b82018360208201111561058057600080fd5b803590602001918460208302840111640100000000831117156105a257600080fd5b509092509050610d99565b61019e600480360360208110156105c357600080fd5b50356001600160a01b0316610f24565b610700600480360360a08110156105e957600080fd5b6001600160a01b03823581169260208101359091169181019060608101604082013564010000000081111561061d57600080fd5b82018360208201111561062f57600080fd5b8035906020019184602083028401116401000000008311171561065157600080fd5b91939092909160208101903564010000000081111561066f57600080fd5b82018360208201111561068157600080fd5b803590602001918460208302840111640100000000831117156106a357600080fd5b9193909290916020810190356401000000008111156106c157600080fd5b8201836020820111156106d357600080fd5b803590602001918460018302840111640100000000831117156106f557600080fd5b50909250905061100d565b604080517fffffffff000000000000000000000000000000000000000000000000000000009092168252519081900360200190f35b6107f8600480360360a081101561074b57600080fd5b81019060208101813564010000000081111561076657600080fd5b82018360208201111561077857600080fd5b8035906020019184600183028401116401000000008311171561079a57600080fd5b91908080601f016020809104026020016040519081016040528093929190818152602001838380828437600092019190915250929550506001600160a01b03833581169450602084013516926040810135925060600135905061103a565b604080519115158252519081900360200190f35b610306611176565b6107f86004803603602081101561082a57600080fd5b50356001600160a01b0316611185565b61019e6004803603602081101561085057600080fd5b50356111a3565b61019e6004803603602081101561086d57600080fd5b5035611207565b610700600480360360a081101561088a57600080fd5b6001600160a01b03823581169260208101359091169160408201359160608101359181019060a0810160808201356401000000008111156108ca57600080fd5b8201836020820111156108dc57600080fd5b803590602001918460018302840111640100000000831117156108fe57600080fd5b50909250905061126b565b61015e611296565b7f000000000000000000000000000000000000000000000000000000000000000090565b7f000000000000000000000000000000000000000000000000000000000000000090565b6000546001600160a01b031633146109b8576040805162461bcd60e51b815260206004820152601060248201527f53656e646572206e6f742061646d696e00000000000000000000000000000000604482015290519081900360640190fd5b600554600280546001600160a01b03908116600090815260046020526040902042909301909255805473ffffffffffffffffffffffffffffffffffffffff191692909116919091179055565b606060008060008060606000806000808a80602001905160a0811015610a2957600080fd5b8101908080516040519392919084640100000000821115610a4957600080fd5b908301906020820185811115610a5e57600080fd5b8251640100000000811182820188101715610a7857600080fd5b82525081516020918201929091019080838360005b83811015610aa5578181015183820152602001610a8d565b50505050905090810190601f168015610ad25780820380516001836020036101000a031916815260200191505b5060409081526020820151908201516060830151608090930151959f50909d509b5099509197505050505050505091939590929450565b6000546001600160a01b031690565b60035490565b6000546001600160a01b03163314610b675760405162461bcd60e51b815260040180806020018281038252602e815260200180612198602e913960400191505060405180910390fd5b610b71828261129c565b5050565b610b7f898961131e565b610c048f8e8e8e8e8e8d8d8d80806020026020016040519081016040528093929190818152602001838360200280828437600081840152601f19601f820116905080830192505050505050508c8c8080602002602001604051908101604052809392919081815260200183836020028082843760009201919091525061139892505050565b610c458f8984848080601f01602080910402602001604051908101604052809392919081815260200183838082843760009201919091525061157592505050565b610c758f8f8e8e8e8d7f00000000000000000000000000000000000000000000000000000000000000008f6115c6565b610cb28e87878080602002602001604051908101604052809392919081815260200183836020028082843760009201919091525061189192505050565b505050505050505050505050505050565b6000546001600160a01b03163314610d22576040805162461bcd60e51b815260206004820152601b60248201527f6f6e6c792061646d696e2063616e206368616e67652061646d696e0000000000604482015290519081900360640190fd5b600054604080516001600160a01b039283168152918316602083015280517f7e644d79422f17c01e4894b5f4f588d331ebfa28653d42ae832dc59e38c9798f9281900390910190a16000805473ffffffffffffffffffffffffffffffffffffffff19166001600160a01b0392909216919091179055565b6000546001600160a01b03163314610df8576040805162461bcd60e51b815260206004820152600e60248201527f4e4f545f415554484f52495a4544000000000000000000000000000000000000604482015290519081900360640190fd5b7f00000000000000000000000000000000000000000000000000000000000000006001600160a01b0316632eb2c2d63087878787876040518763ffffffff1660e01b815260040180876001600160a01b03166001600160a01b03168152602001866001600160a01b03166001600160a01b031681526020018060200180602001806020018481038452888882818152602001925060200280828437600083820152601f01601f19169091018581038452868152602090810191508790870280828437600081840152601f19601f8201169050808301925050508481038252600081526020016020019950505050505050505050600060405180830381600087803b158015610f0557600080fd5b505af1158015610f19573d6000803e3d6000fd5b505050505050505050565b6001600160a01b038116610f7f576040805162461bcd60e51b815260206004820152600c60248201527f5a45524f5f414444524553530000000000000000000000000000000000000000604482015290519081900360640190fd5b6000546001600160a01b03163314610fde576040805162461bcd60e51b815260206004820152600e60248201527f4e4f545f415554484f52495a4544000000000000000000000000000000000000604482015290519081900360640190fd5b6006805473ffffffffffffffffffffffffffffffffffffffff19166001600160a01b0392909216919091179055565b7fbc197c810000000000000000000000000000000000000000000000000000000098975050505050505050565b600060035482118061105d5750836001600160a01b0316856001600160a01b0316145b8061106757508242115b156110745750600061116d565b60408051606087811b7fffffffffffffffffffffffffffffffffffffffff0000000000000000000000009081166020808501919091529188901b166034830152604882018690526068808301869052835180840390910181526088830184528051908201207f19457468657265756d205369676e6564204d6573736167653a0a33320000000060a884015260c48084018290528451808503909101815260e4909301909352815191012060009061112b9089611a55565b6001600160a01b03811660009081526004602052604090205490915042116111585760019250505061116d565b6002546001600160a01b039081169116149150505b95945050505050565b6002546001600160a01b031690565b6001600160a01b031660009081526001602052604090205460ff1690565b6000546001600160a01b03163314611202576040805162461bcd60e51b815260206004820152601060248201527f53656e646572206e6f742061646d696e00000000000000000000000000000000604482015290519081900360640190fd5b600355565b6000546001600160a01b03163314611266576040805162461bcd60e51b815260206004820152600e60248201527f4e4f545f415554484f52495a4544000000000000000000000000000000000000604482015290519081900360640190fd5b600755565b7ff23a6e61000000000000000000000000000000000000000000000000000000009695505050505050565b60075490565b6001600160a01b03821660008181526001602090815260409182902080547fffffffffffffffffffffffffffffffffffffffffffffffffffffffffffffff001685151590811790915582519384529083015280517fb21eb88b4e33b3f1281830a7178d74d8aa73220416215726b68ae23d539515cb9281900390910190a15050565b6113456103e861133960075485611b2290919063ffffffff16565b9063ffffffff611b9816565b8114610b71576040805162461bcd60e51b815260206004820152600d60248201527f494e56414c49445f505249434500000000000000000000000000000000000000604482015290519081900360640190fd5b7f0000000000000000000000000000000000000000000000000000000000000000421061140c576040805162461bcd60e51b815260206004820152600c60248201527f53414c455f49535f4f5645520000000000000000000000000000000000000000604482015290519081900360640190fd5b6001600160a01b03891633148061143257503360009081526001602052604090205460ff165b611483576040805162461bcd60e51b815260206004820152600e60248201527f4e4f545f415554484f52495a4544000000000000000000000000000000000000604482015290519081900360640190fd5b6001600160a01b03881615806114aa5750886001600160a01b0316886001600160a01b0316145b6114fb576040805162461bcd60e51b815260206004820152600d60248201527f52455345525645445f4c414e4400000000000000000000000000000000000000604482015290519081900360640190fd5b600061150c888888888d8989611bfd565b90506115188282611ca2565b611569576040805162461bcd60e51b815260206004820152600c60248201527f494e56414c49445f4c414e440000000000000000000000000000000000000000604482015290519081900360640190fd5b50505050505050505050565b60006115818484611d6b565b6006549091506115c0908590839085906001600160a01b03167f0000000000000000000000000000000000000000000000000000000000000000611eb8565b50505050565b83600114806115fc57507f00000000000000000000000000000000000000000000000000000000000000006001600160a01b0316155b156116c357604080517f6e1e3bbf0000000000000000000000000000000000000000000000000000000081526001600160a01b03898116600483015260248201879052604482018990526064820188905260a06084830152600060a4830181905292517f000000000000000000000000000000000000000000000000000000000000000090911692636e1e3bbf9260e4808201939182900301818387803b1580156116a657600080fd5b505af11580156116ba573d6000803e3d6000fd5b50505050611827565b7f00000000000000000000000000000000000000000000000000000000000000006001600160a01b0316636e1e3bbf7f00000000000000000000000000000000000000000000000000000000000000008689898c60405160200180826001600160a01b03166001600160a01b031681526020019150506040516020818303038152906040526040518663ffffffff1660e01b815260040180866001600160a01b03166001600160a01b0316815260200185815260200184815260200183815260200180602001828103825283818151815260200191508051906020019080838360005b838110156117be5781810151838201526020016117a6565b50505050905090810190601f1680156117eb5780820380516001836020036101000a031916815260200191505b509650505050505050600060405180830381600087803b15801561180e57600080fd5b505af1158015611822573d6000803e3d6000fd5b505050505b60408051858152602081018590526001600160a01b03848116828401526060820184905291516101988802890192808b1692908c16917fe4dfa6ac11314892f3029b34a25b1a887da3b1cab2bbf8506d87128ba6e3ac029181900360800190a45050505050505050565b6060815167ffffffffffffffff811180156118ab57600080fd5b506040519080825280602002602001820160405280156118d5578160200160208202803683370190505b50905060005b82518110156119055760018282815181106118f257fe5b60209081029190910101526001016118db565b507f00000000000000000000000000000000000000000000000000000000000000006001600160a01b0316632eb2c2d6308585856040518563ffffffff1660e01b815260040180856001600160a01b03166001600160a01b03168152602001846001600160a01b03166001600160a01b03168152602001806020018060200180602001848103845286818151815260200191508051906020019060200280838360005b838110156119c05781810151838201526020016119a8565b50505050905001848103835285818151815260200191508051906020019060200280838360005b838110156119ff5781810151838201526020016119e7565b50505050905001848103825260008152602001602001975050505050505050600060405180830381600087803b158015611a3857600080fd5b505af1158015611a4c573d6000803e3d6000fd5b50505050505050565b60008151604114611a6557600080fd5b60208201516040830151606084015160001a601b811015611a8457601b015b8060ff16601b1480611a9957508060ff16601c145b611aa257600080fd5b6040805160008152602080820180845289905260ff8416828401526060820186905260808201859052915160019260a0808401939192601f1981019281900390910190855afa158015611af9573d6000803e3d6000fd5b5050604051601f1901519450506001600160a01b038416611b1957600080fd5b50505092915050565b600082611b3157506000611b92565b5081810281838281611b3f57fe5b0414611b92576040805162461bcd60e51b815260206004820152600860248201527f6f766572666c6f77000000000000000000000000000000000000000000000000604482015290519081900360640190fd5b92915050565b600081611bec576040805162461bcd60e51b815260206004820152600960248201527f64697662797a65726f0000000000000000000000000000000000000000000000604482015290519081900360640190fd5b818381611bf557fe5b049392505050565b60008787878787878760405160200180888152602001878152602001868152602001858152602001846001600160a01b03166001600160a01b031660601b8152601401838152602001828051906020019060200280838360005b83811015611c6f578181015183820152602001611c57565b50505050905001975050505050505050604051602081830303815290604052805190602001209050979650505050505050565b600081815b8451811015611d41576000858281518110611cbe57fe5b6020026020010151905080831015611d065782816040516020018083815260200182815260200192505050604051602081830303815290604052805190602001209250611d38565b808360405160200180838152602001828152602001925050506040516020818303038152906040528051906020012092505b50600101611ca7565b507f0000000000000000000000000000000000000000000000000000000000000000149392505050565b600080611d84606461133985600563ffffffff611b2216565b604080516323b872dd60e01b81526001600160a01b0387811660048301527f0000000000000000000000000000000000000000000000000000000000000000811660248301526044820184905291519293507f0000000000000000000000000000000000000000000000000000000000000000909116916323b872dd916064808201926020929091908290030181600087803b158015611e2357600080fd5b505af1158015611e37573d6000803e3d6000fd5b505050506040513d6020811015611e4d57600080fd5b5051611ea0576040805162461bcd60e51b815260206004820152601360248201527f4645455f5452414e534645525f4641494c454400000000000000000000000000604482015290519081900360640190fd5b611eb0838263ffffffff61213a16565b949350505050565b82518190859015612062576060600080600080611ed48a610a04565b9398509196509450925090506000611eef868686868661103a565b15611f7d57611f09611f018d84611b22565b612710611b98565b9050886001600160a01b0316846001600160a01b0316866001600160a01b03167fac7a699eb95c3c6d390ec4626de17ef9a67b35891efdb197beba7c7fdd45fac48f858760405180848152602001838152602001828152602001935050505060405180910390a4611f7a878261213a565b96505b801561205b57604080516323b872dd60e01b81526001600160a01b038f811660048301528781166024830152604482018490529151918a16916323b872dd916064808201926020929091908290030181600087803b158015611fde57600080fd5b505af1158015611ff2573d6000803e3d6000fd5b505050506040513d602081101561200857600080fd5b505161205b576040805162461bcd60e51b815260206004820152601960248201527f636f6d6d6973696f6e207472616e73666572206661696c656400000000000000604482015290519081900360640190fd5b5050505050505b604080516323b872dd60e01b81526001600160a01b0389811660048301528681166024830152604482018490529151918416916323b872dd916064808201926020929091908290030181600087803b1580156120bd57600080fd5b505af11580156120d1573d6000803e3d6000fd5b505050506040513d60208110156120e757600080fd5b5051611a4c576040805162461bcd60e51b815260206004820152601760248201527f7061796d656e74207472616e73666572206661696c6564000000000000000000604482015290519081900360640190fd5b600082821115612191576040805162461bcd60e51b815260206004820152600860248201527f756e6465666c6f77000000000000000000000000000000000000000000000000604482015290519081900360640190fd5b5090039056fe6f6e6c792061646d696e2063616e207365747570206d6574615472616e73616374696f6e50726f636573736f7273a26469706673582212200ff38c5741c66b2a22a9a9ee2abe0f55626323082b6b4443921fd3b25484584a64736f6c63430006050033",
  "devdoc": {
    "methods": {
      "buyLandWithSand(address,address,address,uint256,uint256,uint256,uint256,uint256,bytes32,uint256[],bytes32[],bytes)": {
        "params": {
          "buyer": "address that perform the payment",
          "priceInSand": "price in SAND to purchase that Land",
          "proof": "merkleProof for that particular Land",
          "reserved": "the reserved address (if any)",
          "size": "size of the pack of Land to purchase",
          "to": "address that will own the purchased Land",
          "x": "x coordinate of the Land",
          "y": "y coordinate of the Land"
        }
      },
      "changeAdmin(address)": {
        "details": "change the administrator to be `newAdmin`.",
        "params": {
          "newAdmin": "address of the new administrator."
        }
      },
      "getAdmin()": {
        "details": "gives the current administrator of this contract.",
        "returns": {
          "_0": "the current administrator of this contract."
        }
      },
      "getSigningWallet()": {
        "details": "signing wallet authorized for referral",
        "returns": {
          "_0": "the address of the signing wallet"
        }
      },
      "isMetaTransactionProcessor(address)": {
        "details": "check whether address `who` is given meta-transaction execution rights.",
        "params": {
          "who": "The address to query."
        },
        "returns": {
          "_0": "whether the address has meta-transaction execution rights."
        }
      },
      "isReferralValid(bytes,address,address,uint256,uint256)": {
        "params": {
          "commissionRate": "The commissionRate of the referral",
          "expiryTime": "The expiry time of the referral",
          "referee": "The address of the referee",
          "referrer": "The address of the referrer",
          "signature": "The signature to check (signed referral)"
        },
        "returns": {
          "_0": "True if the referral is valid"
        }
      },
      "setMetaTransactionProcessor(address,bool)": {
        "details": "Enable or disable the ability of `metaTransactionProcessor` to perform meta-tx (metaTransactionProcessor rights).",
        "params": {
          "enabled": "set whether the metaTransactionProcessor is enabled or disabled.",
          "metaTransactionProcessor": "address that will be given/removed metaTransactionProcessor rights."
        }
      },
      "setReceivingWallet(address)": {
        "params": {
          "newWallet": "address of the new receiving wallet"
        }
      },
      "updateMaxCommissionRate(uint256)": {
        "details": "Update the maximum commission rate",
        "params": {
          "newMaxCommissionRate": "The new maximum commission rate"
        }
      },
      "updateSigningWallet(address)": {
        "details": "Update the signing wallet",
        "params": {
          "newSigningWallet": "The new address of the signing wallet"
        }
      },
      "withdrawAssets(address,uint256[],uint256[])": {
        "params": {
          "assetIds": "the assetIds to be transferred",
          "to": "intended recipient of the asset tokens",
          "values": "the quantities of the assetIds to be transferred"
        }
      }
    },
    "title": "Estate Sale contract with referral"
  },
  "userdoc": {
    "methods": {
      "buyLandWithSand(address,address,address,uint256,uint256,uint256,uint256,uint256,bytes32,uint256[],bytes32[],bytes)": {
        "notice": "buy Land with SAND using the merkle proof associated with it"
      },
      "getExpiryTime()": {
        "notice": "Gets the expiry time for the current sale"
      },
      "getMaxCommisionRate()": {
        "notice": "the max commision rate"
      },
      "getMerkleRoot()": {
        "notice": "Gets the Merkle root associated with the current sale"
      },
      "isReferralValid(bytes,address,address,uint256,uint256)": {
        "notice": "Check if a referral is valid"
      },
      "setReceivingWallet(address)": {
        "notice": "set the wallet receiving the proceeds"
      },
      "withdrawAssets(address,uint256[],uint256[])": {
        "notice": "enable Admin to withdraw remaining assets from EstateSaleWithFee contract"
      }
    },
    "notice": "This contract manages the sale of our lands as Estates"
  },
  "storageLayout": {
    "storage": [
      {
        "astId": 12779,
        "contract": "src/solc_0.6/EstateSale/EstateSaleWithFee.sol:EstateSaleWithFee",
        "label": "_admin",
        "offset": 0,
        "slot": "0",
        "type": "t_address"
      },
      {
        "astId": 12841,
        "contract": "src/solc_0.6/EstateSale/EstateSaleWithFee.sol:EstateSaleWithFee",
        "label": "_metaTransactionContracts",
        "offset": 0,
        "slot": "1",
        "type": "t_mapping(t_address,t_bool)"
      },
      {
        "astId": 10957,
        "contract": "src/solc_0.6/EstateSale/EstateSaleWithFee.sol:EstateSaleWithFee",
        "label": "_signingWallet",
        "offset": 0,
        "slot": "2",
        "type": "t_address"
      },
      {
        "astId": 10959,
        "contract": "src/solc_0.6/EstateSale/EstateSaleWithFee.sol:EstateSaleWithFee",
        "label": "_maxCommissionRate",
        "offset": 0,
        "slot": "3",
        "type": "t_uint256"
      },
      {
        "astId": 10963,
        "contract": "src/solc_0.6/EstateSale/EstateSaleWithFee.sol:EstateSaleWithFee",
        "label": "_previousSigningWallets",
        "offset": 0,
        "slot": "4",
        "type": "t_mapping(t_address,t_uint256)"
      },
      {
        "astId": 10972,
        "contract": "src/solc_0.6/EstateSale/EstateSaleWithFee.sol:EstateSaleWithFee",
        "label": "_previousSigningDelay",
        "offset": 0,
        "slot": "5",
        "type": "t_uint256"
      },
      {
        "astId": 7344,
        "contract": "src/solc_0.6/EstateSale/EstateSaleWithFee.sol:EstateSaleWithFee",
        "label": "_wallet",
        "offset": 0,
        "slot": "6",
        "type": "t_address_payable"
      },
      {
        "astId": 7354,
        "contract": "src/solc_0.6/EstateSale/EstateSaleWithFee.sol:EstateSaleWithFee",
        "label": "_multiplier",
        "offset": 0,
        "slot": "7",
        "type": "t_uint256"
      }
    ],
    "types": {
      "t_address": {
        "encoding": "inplace",
        "label": "address",
        "numberOfBytes": "20"
      },
      "t_address_payable": {
        "encoding": "inplace",
        "label": "address payable",
        "numberOfBytes": "20"
      },
      "t_bool": {
        "encoding": "inplace",
        "label": "bool",
        "numberOfBytes": "1"
      },
      "t_mapping(t_address,t_bool)": {
        "encoding": "mapping",
        "key": "t_address",
        "label": "mapping(address => bool)",
        "numberOfBytes": "32",
        "value": "t_bool"
      },
      "t_mapping(t_address,t_uint256)": {
        "encoding": "mapping",
        "key": "t_address",
        "label": "mapping(address => uint256)",
        "numberOfBytes": "32",
        "value": "t_uint256"
      },
      "t_uint256": {
        "encoding": "inplace",
        "label": "uint256",
        "numberOfBytes": "32"
      }
    }
  }
}