{
  "address": "0x109A83b62f7cE2d1b5B154C0c624E234F84E8572",
  "abi": [
    {
      "inputs": [
        {
          "internalType": "address",
          "name": "landAddress",
          "type": "address"
        },
        {
          "internalType": "address",
          "name": "sandContractAddress",
          "type": "address"
        },
        {
          "internalType": "address",
          "name": "initialMetaTx",
          "type": "address"
        },
        {
          "internalType": "address",
          "name": "admin",
          "type": "address"
        },
        {
          "internalType": "address payable",
          "name": "initialWalletAddress",
          "type": "address"
        },
        {
          "internalType": "bytes32",
          "name": "merkleRoot",
          "type": "bytes32"
        },
        {
          "internalType": "uint256",
          "name": "expiryTime",
          "type": "uint256"
        },
        {
          "internalType": "address",
          "name": "initialSigningWallet",
          "type": "address"
        },
        {
          "internalType": "uint256",
          "name": "initialMaxCommissionRate",
          "type": "uint256"
        },
        {
          "internalType": "address",
          "name": "estate",
          "type": "address"
        },
        {
          "internalType": "address",
          "name": "asset",
          "type": "address"
        },
        {
          "internalType": "address",
          "name": "feeDistributor",
          "type": "address"
        }
      ],
      "stateMutability": "nonpayable",
      "type": "constructor"
    },
    {
      "anonymous": false,
      "inputs": [
        {
          "indexed": false,
          "internalType": "address",
          "name": "oldAdmin",
          "type": "address"
        },
        {
          "indexed": false,
          "internalType": "address",
          "name": "newAdmin",
          "type": "address"
        }
      ],
      "name": "AdminChanged",
      "type": "event"
    },
    {
      "anonymous": false,
      "inputs": [
        {
          "indexed": true,
          "internalType": "address",
          "name": "buyer",
          "type": "address"
        },
        {
          "indexed": true,
          "internalType": "address",
          "name": "to",
          "type": "address"
        },
        {
          "indexed": true,
          "internalType": "uint256",
          "name": "topCornerId",
          "type": "uint256"
        },
        {
          "indexed": false,
          "internalType": "uint256",
          "name": "size",
          "type": "uint256"
        },
        {
          "indexed": false,
          "internalType": "uint256",
          "name": "price",
          "type": "uint256"
        },
        {
          "indexed": false,
          "internalType": "address",
          "name": "token",
          "type": "address"
        },
        {
          "indexed": false,
          "internalType": "uint256",
          "name": "amountPaid",
          "type": "uint256"
        }
      ],
      "name": "LandQuadPurchased",
      "type": "event"
    },
    {
      "anonymous": false,
      "inputs": [
        {
          "indexed": false,
          "internalType": "address",
          "name": "metaTransactionProcessor",
          "type": "address"
        },
        {
          "indexed": false,
          "internalType": "bool",
          "name": "enabled",
          "type": "bool"
        }
      ],
      "name": "MetaTransactionProcessor",
      "type": "event"
    },
    {
      "anonymous": false,
      "inputs": [
        {
          "indexed": true,
          "internalType": "address",
          "name": "referrer",
          "type": "address"
        },
        {
          "indexed": true,
          "internalType": "address",
          "name": "referee",
          "type": "address"
        },
        {
          "indexed": true,
          "internalType": "address",
          "name": "token",
          "type": "address"
        },
        {
          "indexed": false,
          "internalType": "uint256",
          "name": "amount",
          "type": "uint256"
        },
        {
          "indexed": false,
          "internalType": "uint256",
          "name": "commission",
          "type": "uint256"
        },
        {
          "indexed": false,
          "internalType": "uint256",
          "name": "commissionRate",
          "type": "uint256"
        }
      ],
      "name": "ReferralUsed",
      "type": "event"
    },
    {
      "inputs": [
        {
          "internalType": "address",
          "name": "buyer",
          "type": "address"
        },
        {
          "internalType": "address",
          "name": "to",
          "type": "address"
        },
        {
          "internalType": "address",
          "name": "reserved",
          "type": "address"
        },
        {
          "internalType": "uint256",
          "name": "x",
          "type": "uint256"
        },
        {
          "internalType": "uint256",
          "name": "y",
          "type": "uint256"
        },
        {
          "internalType": "uint256",
          "name": "size",
          "type": "uint256"
        },
        {
          "internalType": "uint256",
          "name": "priceInSand",
          "type": "uint256"
        },
        {
          "internalType": "uint256",
          "name": "adjustedPriceInSand",
          "type": "uint256"
        },
        {
          "internalType": "bytes32",
          "name": "salt",
          "type": "bytes32"
        },
        {
          "internalType": "uint256[]",
          "name": "assetIds",
          "type": "uint256[]"
        },
        {
          "internalType": "bytes32[]",
          "name": "proof",
          "type": "bytes32[]"
        },
        {
          "internalType": "bytes",
          "name": "referral",
          "type": "bytes"
        }
      ],
      "name": "buyLandWithSand",
      "outputs": [],
      "stateMutability": "nonpayable",
      "type": "function"
    },
    {
      "inputs": [
        {
          "internalType": "address",
          "name": "newAdmin",
          "type": "address"
        }
      ],
      "name": "changeAdmin",
      "outputs": [],
      "stateMutability": "nonpayable",
      "type": "function"
    },
    {
      "inputs": [
        {
          "internalType": "bytes",
          "name": "referral",
          "type": "bytes"
        }
      ],
      "name": "decodeReferral",
      "outputs": [
        {
          "internalType": "bytes",
          "name": "",
          "type": "bytes"
        },
        {
          "internalType": "address",
          "name": "",
          "type": "address"
        },
        {
          "internalType": "address",
          "name": "",
          "type": "address"
        },
        {
          "internalType": "uint256",
          "name": "",
          "type": "uint256"
        },
        {
          "internalType": "uint256",
          "name": "",
          "type": "uint256"
        }
      ],
      "stateMutability": "pure",
      "type": "function"
    },
    {
      "inputs": [],
      "name": "getAdmin",
      "outputs": [
        {
          "internalType": "address",
          "name": "",
          "type": "address"
        }
      ],
      "stateMutability": "view",
      "type": "function"
    },
    {
      "inputs": [],
      "name": "getExpiryTime",
      "outputs": [
        {
          "internalType": "uint256",
          "name": "",
          "type": "uint256"
        }
      ],
      "stateMutability": "view",
      "type": "function"
    },
    {
      "inputs": [],
      "name": "getMaxCommisionRate",
      "outputs": [
        {
          "internalType": "uint256",
          "name": "",
          "type": "uint256"
        }
      ],
      "stateMutability": "view",
      "type": "function"
    },
    {
      "inputs": [],
      "name": "getMerkleRoot",
      "outputs": [
        {
          "internalType": "bytes32",
          "name": "",
          "type": "bytes32"
        }
      ],
      "stateMutability": "view",
      "type": "function"
    },
    {
      "inputs": [],
      "name": "getSandMultiplier",
      "outputs": [
        {
          "internalType": "uint256",
          "name": "",
          "type": "uint256"
        }
      ],
      "stateMutability": "view",
      "type": "function"
    },
    {
      "inputs": [],
      "name": "getSigningWallet",
      "outputs": [
        {
          "internalType": "address",
          "name": "",
          "type": "address"
        }
      ],
      "stateMutability": "view",
      "type": "function"
    },
    {
      "inputs": [
        {
          "internalType": "address",
          "name": "who",
          "type": "address"
        }
      ],
      "name": "isMetaTransactionProcessor",
      "outputs": [
        {
          "internalType": "bool",
          "name": "",
          "type": "bool"
        }
      ],
      "stateMutability": "view",
      "type": "function"
    },
    {
      "inputs": [
        {
          "internalType": "bytes",
          "name": "signature",
          "type": "bytes"
        },
        {
          "internalType": "address",
          "name": "referrer",
          "type": "address"
        },
        {
          "internalType": "address",
          "name": "referee",
          "type": "address"
        },
        {
          "internalType": "uint256",
          "name": "expiryTime",
          "type": "uint256"
        },
        {
          "internalType": "uint256",
          "name": "commissionRate",
          "type": "uint256"
        }
      ],
      "name": "isReferralValid",
      "outputs": [
        {
          "internalType": "bool",
          "name": "",
          "type": "bool"
        }
      ],
      "stateMutability": "view",
      "type": "function"
    },
    {
      "inputs": [
        {
          "internalType": "address",
          "name": "",
          "type": "address"
        },
        {
          "internalType": "address",
          "name": "",
          "type": "address"
        },
        {
          "internalType": "uint256[]",
          "name": "",
          "type": "uint256[]"
        },
        {
          "internalType": "uint256[]",
          "name": "",
          "type": "uint256[]"
        },
        {
          "internalType": "bytes",
          "name": "",
          "type": "bytes"
        }
      ],
      "name": "onERC1155BatchReceived",
      "outputs": [
        {
          "internalType": "bytes4",
          "name": "",
          "type": "bytes4"
        }
      ],
      "stateMutability": "pure",
      "type": "function"
    },
    {
      "inputs": [
        {
          "internalType": "address",
          "name": "",
          "type": "address"
        },
        {
          "internalType": "address",
          "name": "",
          "type": "address"
        },
        {
          "internalType": "uint256",
          "name": "",
          "type": "uint256"
        },
        {
          "internalType": "uint256",
          "name": "",
          "type": "uint256"
        },
        {
          "internalType": "bytes",
          "name": "",
          "type": "bytes"
        }
      ],
      "name": "onERC1155Received",
      "outputs": [
        {
          "internalType": "bytes4",
          "name": "",
          "type": "bytes4"
        }
      ],
      "stateMutability": "pure",
      "type": "function"
    },
    {
      "inputs": [
        {
          "internalType": "uint256",
          "name": "newMultiplier",
          "type": "uint256"
        }
      ],
      "name": "rebalanceSand",
      "outputs": [],
      "stateMutability": "nonpayable",
      "type": "function"
    },
    {
      "inputs": [
        {
          "internalType": "address",
          "name": "metaTransactionProcessor",
          "type": "address"
        },
        {
          "internalType": "bool",
          "name": "enabled",
          "type": "bool"
        }
      ],
      "name": "setMetaTransactionProcessor",
      "outputs": [],
      "stateMutability": "nonpayable",
      "type": "function"
    },
    {
      "inputs": [
        {
          "internalType": "address payable",
          "name": "newWallet",
          "type": "address"
        }
      ],
      "name": "setReceivingWallet",
      "outputs": [],
      "stateMutability": "nonpayable",
      "type": "function"
    },
    {
      "inputs": [
        {
          "internalType": "uint256",
          "name": "newMaxCommissionRate",
          "type": "uint256"
        }
      ],
      "name": "updateMaxCommissionRate",
      "outputs": [],
      "stateMutability": "nonpayable",
      "type": "function"
    },
    {
      "inputs": [
        {
          "internalType": "address",
          "name": "newSigningWallet",
          "type": "address"
        }
      ],
      "name": "updateSigningWallet",
      "outputs": [],
      "stateMutability": "nonpayable",
      "type": "function"
    },
    {
      "inputs": [
        {
          "internalType": "address",
          "name": "to",
          "type": "address"
        },
        {
          "internalType": "uint256[]",
          "name": "assetIds",
          "type": "uint256[]"
        },
        {
          "internalType": "uint256[]",
          "name": "values",
          "type": "uint256[]"
        }
      ],
      "name": "withdrawAssets",
      "outputs": [],
      "stateMutability": "nonpayable",
      "type": "function"
    }
  ],
  "transactionHash": "0xb2f05879e1b5d95c3d528e0b9d374b9e6f019b93814829e669683bffecfc060d",
  "args": [
    "0xaF40A483bF77AAb7b7D13dB18187E6D62C1EA41b",
    "0xCc933a862fc15379E441F2A16Cb943D385a4695f",
    "0xCc933a862fc15379E441F2A16Cb943D385a4695f",
    "0x8A0e83DE499d7543CF486974a6196a35B5F573E7",
    "0x60927eB036621b801491B6c5e9A60A8d2dEeD75A",
    "0xa093fd9fce941134660e5c4bed7259086f881f82fcd2e0639330447f0fa12a98",
    1651237200,
    "0xB7060D3FeCAC3AE1F0A0AA416E3e8E472257950e",
    2000,
    "0x0000000000000000000000000000000000000000",
    "0x8055a2c0f7EB177BeaB357B70E6504402d2b5fF6",
    "0x5983532A5b9009E05428595b87F19e42068a232B"
  ],
  "linkedData": [
    {
      "x": 324,
      "y": 288,
      "size": 1,
      "price": "1011000000000000000000",
      "reserved": "",
      "salt": "0xe399125ca8576997043805ee937411f741c395950dda4831fa30286b14bb4d0a",
      "assetIds": []
    },
    {
      "x": 324,
      "y": 289,
      "size": 1,
      "price": "1011000000000000000000",
      "reserved": "",
      "salt": "0x5770a3aad2ffe39ef0b3f803adbdf89acd4f10ccd01b438aa1b7d4c186dac8f8",
      "assetIds": []
    },
    {
      "x": 324,
      "y": 290,
      "size": 1,
      "price": "1011000000000000000000",
      "reserved": "0x7a9fe22691c811ea339d9b73150e6911a5343dca",
      "salt": "0x8db71a3b332c191aa9b9f733360ad17feb34337d5144cd25bd3bac29a07ad0ce",
      "assetIds": []
    },
    {
      "x": 324,
      "y": 291,
      "size": 1,
      "price": "1011000000000000000000",
      "reserved": "",
      "salt": "0x541cdee547419426f74674c89102d00710422b99666356e1f4ff5b80d6cc995d",
      "assetIds": []
    },
    {
      "x": 324,
      "y": 292,
      "size": 1,
      "price": "1011000000000000000000",
      "reserved": "",
      "salt": "0x232a14e4405d7cf0a2ade13497a3e4b18cca02b28ad6fc04a3d4176388c22db6",
      "assetIds": []
    },
    {
      "x": 324,
      "y": 293,
      "size": 1,
      "price": "1011000000000000000000",
      "reserved": "",
      "salt": "0x4d3a9b51f8fc11526435a067fd0cbdac58f4421279dc9219bd3f48140bafe157",
      "assetIds": []
    },
    {
      "x": 324,
      "y": 294,
      "size": 1,
      "price": "1011000000000000000000",
      "reserved": "",
      "salt": "0x29529331841f1e10efcc88079442785a3cb43d9a3e65a975e59e17e25b918697",
      "assetIds": []
    },
    {
      "x": 324,
      "y": 295,
      "size": 1,
      "price": "1011000000000000000000",
      "reserved": "",
      "salt": "0xb3c82a5b9801fe50b0ea7eb75b7930ab6d34fdc187f6941cea09016304770618",
      "assetIds": []
    },
    {
      "x": 324,
      "y": 296,
      "size": 1,
      "price": "1011000000000000000000",
      "reserved": "",
      "salt": "0x0ab8aa4c74b8d979fc59cd3e019bd3e13355f453b4954000d2dbd6918b165614",
      "assetIds": []
    },
    {
      "x": 324,
      "y": 297,
      "size": 1,
      "price": "1011000000000000000000",
      "reserved": "",
      "salt": "0xe9381d74e9010741179500ff0587698613699c10a720ca2e10761dceeae10bdd",
      "assetIds": []
    },
    {
      "x": 325,
      "y": 288,
      "size": 1,
      "price": "1011000000000000000000",
      "reserved": "",
      "salt": "0xc049f3261b73c779da08eef05997bf9d93dee8630cbb085178187b0517a18301",
      "assetIds": []
    },
    {
      "x": 325,
      "y": 289,
      "size": 1,
      "price": "1011000000000000000000",
      "reserved": "",
      "salt": "0x3dcd58b14e036049e2bf43c2a1cbdc46770cd61a5b400756c896c28d8cee994b",
      "assetIds": []
    },
    {
      "x": 325,
      "y": 290,
      "size": 1,
      "price": "1011000000000000000000",
      "reserved": "",
      "salt": "0xf5ec2bccb3fd340505ca6fb2ba761b1b3848d2b9d9da71a0b7150f30276b8121",
      "assetIds": []
    },
    {
      "x": 325,
      "y": 291,
      "size": 1,
      "price": "1011000000000000000000",
      "reserved": "",
      "salt": "0x6c0a92944b9cea7dba0dcbcb41ac45904792e7dcf4a21f6169be0657b490fbd0",
      "assetIds": []
    },
    {
      "x": 325,
      "y": 292,
      "size": 1,
      "price": "1011000000000000000000",
      "reserved": "",
      "salt": "0x4c725c29dfa6d6fada1e42384d63180110713aeb0ba42b4549df45c920779ed9",
      "assetIds": []
    },
    {
      "x": 325,
      "y": 293,
      "size": 1,
      "price": "1011000000000000000000",
      "reserved": "",
      "salt": "0x65a168bdca9953ba765b9558c637cf35bcac139577024313df0a07fe8d08b410",
      "assetIds": []
    },
    {
      "x": 325,
      "y": 294,
      "size": 1,
      "price": "1011000000000000000000",
      "reserved": "",
      "salt": "0xc8a1d05ad6cd9b3f0aea81496c8b63d4e3e62a577126b0f4dcb7a7de2ae03fcf",
      "assetIds": []
    },
    {
      "x": 325,
      "y": 295,
      "size": 1,
      "price": "1011000000000000000000",
      "reserved": "",
      "salt": "0x3e6067dc65613045c895a036b14b2e38ba19886ec57bda114f73ae5c2969b890",
      "assetIds": []
    },
    {
      "x": 325,
      "y": 296,
      "size": 1,
      "price": "1011000000000000000000",
      "reserved": "",
      "salt": "0x3d0469489487196df8f5546bbaf3f704fb88c11abd58af6a4b1340309b33c9fc",
      "assetIds": []
    },
    {
      "x": 325,
      "y": 297,
      "size": 1,
      "price": "1011000000000000000000",
      "reserved": "",
      "salt": "0x0202fe8151b76f9811bea7e9c92e87dfa2ab9ac8ff434494a7771106ade42c95",
      "assetIds": []
    },
    {
      "x": 326,
      "y": 288,
      "size": 1,
      "price": "1011000000000000000000",
      "reserved": "",
      "salt": "0x5db33269e59a90c15e3b213060257700fa7fd63515364183d5f3841a701c116e",
      "assetIds": []
    },
    {
      "x": 326,
      "y": 289,
      "size": 1,
      "price": "1011000000000000000000",
      "reserved": "",
      "salt": "0xadaa01db3828dc9e106318e3a19634878554efdcd062305e3572c8ad719dbe42",
      "assetIds": []
    },
    {
      "x": 326,
      "y": 290,
      "size": 1,
      "price": "1011000000000000000000",
      "reserved": "",
      "salt": "0x2de75c371303018032d7cbf0c4612f7ef08b877c678ca000738a266c18fee95b",
      "assetIds": []
    },
    {
      "x": 326,
      "y": 291,
      "size": 1,
      "price": "1011000000000000000000",
      "reserved": "",
      "salt": "0x57e23cae41cfaaf6894ee772e9ab927006fc1217fc122edbcee264c0a31e9cb3",
      "assetIds": []
    },
    {
      "x": 326,
      "y": 292,
      "size": 1,
      "price": "1011000000000000000000",
      "reserved": "",
      "salt": "0xd48e43c89ac1c80ea4091b823017c18a7401b98f80238ae48b84040f2b4ec296",
      "assetIds": []
    },
    {
      "x": 326,
      "y": 293,
      "size": 1,
      "price": "1011000000000000000000",
      "reserved": "",
      "salt": "0x3c2d501413daccb54d276818c231d4bc37f82c9093f459932b62c3464819634e",
      "assetIds": []
    },
    {
      "x": 326,
      "y": 294,
      "size": 1,
      "price": "1011000000000000000000",
      "reserved": "",
      "salt": "0x069dfe82c0fdeb15778d9a46b423b48042ac29e1b69586156c5e88c0d4d295eb",
      "assetIds": []
    },
    {
      "x": 326,
      "y": 295,
      "size": 1,
      "price": "1011000000000000000000",
      "reserved": "",
      "salt": "0x94c1cc746302520897d030ab74134726287a5e19de3cd348db257de67d22452c",
      "assetIds": []
    },
    {
      "x": 326,
      "y": 296,
      "size": 1,
      "price": "1011000000000000000000",
      "reserved": "",
      "salt": "0xcc7f42e661f950d7358dffd604d28685cc3beea1740298802af51e4453d0f36b",
      "assetIds": []
    },
    {
      "x": 326,
      "y": 297,
      "size": 1,
      "price": "1011000000000000000000",
      "reserved": "",
      "salt": "0x9f4a741d1b7f0d394a026df893e53091055a79bdda6f483dd9a812ed6fee6f23",
      "assetIds": []
    },
    {
      "x": 326,
      "y": 298,
      "size": 1,
      "price": "1011000000000000000000",
      "reserved": "",
      "salt": "0xe3b66c5696ae747fdde371e3a68791a2ac8aa511c60115beda42a00d3755d82b",
      "assetIds": []
    },
    {
      "x": 326,
      "y": 299,
      "size": 1,
      "price": "1011000000000000000000",
      "reserved": "",
      "salt": "0x065a17047cf52b7ac3ba36a45970ce9be0300f36552c064dab66770257911695",
      "assetIds": []
    },
    {
      "x": 327,
      "y": 288,
      "size": 1,
      "price": "1011000000000000000000",
      "reserved": "0x7a9fe22691c811ea339d9b73150e6911a5343dca",
      "salt": "0x3614a7ce063a2315ce1ea3c464757915633f3a01b318e2c7e163e94c71435fe0",
      "assetIds": []
    },
    {
      "x": 327,
      "y": 289,
      "size": 1,
      "price": "1011000000000000000000",
      "reserved": "",
      "salt": "0x8efb1b1546b453887a474c9a0a7bfed1ae24c884bfdf20e1f328e6bd107c31c3",
      "assetIds": []
    },
    {
      "x": 327,
      "y": 290,
      "size": 1,
      "price": "1011000000000000000000",
      "reserved": "",
      "salt": "0xbd60bb349c2d16add52f37b9e29d55fcf79f5f367d5a705a87f0e528e079370f",
      "assetIds": []
    },
    {
      "x": 327,
      "y": 291,
      "size": 1,
      "price": "1011000000000000000000",
      "reserved": "",
      "salt": "0xd2bef1bd7376c303baa7eb43c2b6ee999d276542d5a57795da1f3a0a0c1e92ea",
      "assetIds": []
    },
    {
      "x": 327,
      "y": 292,
      "size": 1,
      "price": "1011000000000000000000",
      "reserved": "",
      "salt": "0x0ea2fee4f28cd5e9c488decfa6690b1cf35f3a6c67c509dc6aab0f39ad354236",
      "assetIds": []
    },
    {
      "x": 327,
      "y": 293,
      "size": 1,
      "price": "1011000000000000000000",
      "reserved": "",
      "salt": "0x18e5fab2299f217b2fc3d1b82a8152d366961ee21d78654c28aa5a183c209c98",
      "assetIds": []
    },
    {
      "x": 327,
      "y": 294,
      "size": 1,
      "price": "1011000000000000000000",
      "reserved": "",
      "salt": "0xed610cd92eccc2b3b30e95cb910c9d0251ff40e0696a8a7dd1d0f29fa2face25",
      "assetIds": []
    },
    {
      "x": 327,
      "y": 295,
      "size": 1,
      "price": "1011000000000000000000",
      "reserved": "",
      "salt": "0x52d5cb8adaa83e113ce3a0dce20590e950651a6325febbf618e3c9f8b6dda639",
      "assetIds": []
    },
    {
      "x": 327,
      "y": 296,
      "size": 1,
      "price": "1011000000000000000000",
      "reserved": "0x7a9fe22691c811ea339d9b73150e6911a5343dca",
      "salt": "0xe828241b8009e983cc6cd73559875bc42e7a99fcc4e35ad633efcca7703dd147",
      "assetIds": []
    },
    {
      "x": 327,
      "y": 297,
      "size": 1,
      "price": "1011000000000000000000",
      "reserved": "",
      "salt": "0xd8406978777861ea46ba5c547d8ff07f510e28b713db54fc541261750003810a",
      "assetIds": []
    },
    {
      "x": 327,
      "y": 298,
      "size": 1,
      "price": "1011000000000000000000",
      "reserved": "",
      "salt": "0xa5452598b7e7b520323f7c75833d34afb72660ef8404b67049e161085f0e56d9",
      "assetIds": []
    },
    {
      "x": 327,
      "y": 299,
      "size": 1,
      "price": "1011000000000000000000",
      "reserved": "",
      "salt": "0x3c49c837de4a14323d7b3df67f496672b87b42de34027c8c73241e101ec28b91",
      "assetIds": []
    },
    {
      "x": 328,
      "y": 288,
      "size": 1,
      "price": "1011000000000000000000",
      "reserved": "",
      "salt": "0x4490e28f2559b331cc1896b07cde34571c81d6da266cbd0dc29d6489d6f6971f",
      "assetIds": []
    },
    {
      "x": 328,
      "y": 289,
      "size": 1,
      "price": "1011000000000000000000",
      "reserved": "",
      "salt": "0x6d2365bf2d81526045a91c566ef851168b94ebb62ef635c4c23d2c8b4123a370",
      "assetIds": []
    },
    {
      "x": 328,
      "y": 290,
      "size": 1,
      "price": "1011000000000000000000",
      "reserved": "",
      "salt": "0xfe9f84fb871b3e862c4e5e4ce907b87722802f0149ffd94252d1a48867f0e1de",
      "assetIds": []
    },
    {
      "x": 328,
      "y": 291,
      "size": 1,
      "price": "1011000000000000000000",
      "reserved": "",
      "salt": "0x2dce23f2fa58da44c2b644f766883dcd2190d04d9e53a91721a61bd85604272c",
      "assetIds": []
    },
    {
      "x": 328,
      "y": 292,
      "size": 1,
      "price": "1011000000000000000000",
      "reserved": "",
      "salt": "0xbd1145a033160b4a368d1e4e7478480a9044f93232cd6546247d787bfc09fc6e",
      "assetIds": []
    },
    {
      "x": 328,
      "y": 293,
      "size": 1,
      "price": "1011000000000000000000",
      "reserved": "",
      "salt": "0xc43b3bf38e3b881ec019b08630e9793ec1937832e43183744e6b60ff9014ba92",
      "assetIds": []
    },
    {
      "x": 328,
      "y": 294,
      "size": 1,
      "price": "1011000000000000000000",
      "reserved": "",
      "salt": "0xa469e7501fffa547c31da724b32736008c9d2d067ca20d6edf4d63fba2987548",
      "assetIds": []
    },
    {
      "x": 328,
      "y": 295,
      "size": 1,
      "price": "1011000000000000000000",
      "reserved": "",
      "salt": "0x4e623d3613d388a5589f51855e783ecf8da6dccc906f52e72a1422c54b5f22ce",
      "assetIds": []
    },
    {
      "x": 328,
      "y": 296,
      "size": 1,
      "price": "1011000000000000000000",
      "reserved": "",
      "salt": "0xe2e167ca8c9a373f2bb73f1b51c1f23b744dedec876ad1c2055608cf45057b4f",
      "assetIds": []
    },
    {
      "x": 328,
      "y": 297,
      "size": 1,
      "price": "1011000000000000000000",
      "reserved": "",
      "salt": "0x556ef42556dc4e3ac925894e13ef9762656d894775819a337890e082ee6a5f4b",
      "assetIds": []
    },
    {
      "x": 328,
      "y": 298,
      "size": 1,
      "price": "1011000000000000000000",
      "reserved": "",
      "salt": "0x68e42db799ce7873530bf3e5b21bfd791b732249017f2dc1da12c685ad04c184",
      "assetIds": []
    },
    {
      "x": 328,
      "y": 299,
      "size": 1,
      "price": "1011000000000000000000",
      "reserved": "",
      "salt": "0xf5939ca766f85017a4ba13cda856552f5ae8c4baf745cd922a821f4aa5cfb5b1",
      "assetIds": []
    },
    {
      "x": 329,
      "y": 288,
      "size": 1,
      "price": "1011000000000000000000",
      "reserved": "",
      "salt": "0x46502cba8790ca4f7785355233837bf20b58577f6e24c504bd0a7496a9c49481",
      "assetIds": []
    },
    {
      "x": 329,
      "y": 289,
      "size": 1,
      "price": "1011000000000000000000",
      "reserved": "",
      "salt": "0x231c4833f84e2637b82862bedef38fc3120e698ff434e9f02064b43f9fd5e4a2",
      "assetIds": []
    },
    {
      "x": 329,
      "y": 290,
      "size": 1,
      "price": "1011000000000000000000",
      "reserved": "",
      "salt": "0xdeeeacf0f46b8134768a11bc53b062f3c5b089afa1aacb1c1850bd880df802d0",
      "assetIds": []
    },
    {
      "x": 329,
      "y": 291,
      "size": 1,
      "price": "1011000000000000000000",
      "reserved": "",
      "salt": "0x79b33b4dd2b00dfe60374721bcb193063233ca2aa0bde8aa51127d41d1a4a5c6",
      "assetIds": []
    },
    {
      "x": 329,
      "y": 292,
      "size": 1,
      "price": "1011000000000000000000",
      "reserved": "",
      "salt": "0xfab384cec4b5d4dbecf600ff4f5da8d08f8c100f32843a5ddb0ca1d7dc51da12",
      "assetIds": []
    },
    {
      "x": 329,
      "y": 293,
      "size": 1,
      "price": "1011000000000000000000",
      "reserved": "",
      "salt": "0xa1bc65f0eb4164448a6d87d504908674322880f56f4e59bce058893a6b7f0b0c",
      "assetIds": []
    },
    {
      "x": 329,
      "y": 294,
      "size": 1,
      "price": "1011000000000000000000",
      "reserved": "",
      "salt": "0xbaf70996a0c25f4d30a6f78d8608d28fabeba0b716dd38779a842aea1dd4ea7b",
      "assetIds": []
    },
    {
      "x": 329,
      "y": 295,
      "size": 1,
      "price": "1011000000000000000000",
      "reserved": "",
      "salt": "0x9552a605260af6596e4edacd7a589527da8ebe6f6767af4d1cae0e14b4c3712a",
      "assetIds": []
    },
    {
      "x": 329,
      "y": 296,
      "size": 1,
      "price": "1011000000000000000000",
      "reserved": "",
      "salt": "0xd73cff03876168bb4d36025f46d29c83e2ec2b1e234d4f39b3f03df6bb36acf2",
      "assetIds": []
    },
    {
      "x": 329,
      "y": 297,
      "size": 1,
      "price": "1011000000000000000000",
      "reserved": "",
      "salt": "0x62d163a51c86b3cf115e6f39ad6934c4a7e9f95bc5623bff447bb23619a01f53",
      "assetIds": []
    },
    {
      "x": 329,
      "y": 298,
      "size": 1,
      "price": "1011000000000000000000",
      "reserved": "",
      "salt": "0xafd8da859876d3500461d2b5638bdccecf7bfdd6bff6379f96d7fa6f934ea400",
      "assetIds": []
    },
    {
      "x": 329,
      "y": 299,
      "size": 1,
      "price": "1011000000000000000000",
      "reserved": "",
      "salt": "0x34d2a39af8639371ef5772a70b7deffdd9777cfa13913612e0a6277ae0acaf40",
      "assetIds": []
    },
    {
      "x": 330,
      "y": 288,
      "size": 1,
      "price": "1011000000000000000000",
      "reserved": "",
      "salt": "0x71719f70554eeb6d9932d1cbde914b0d1e4c6ff1962fbfc5bb8371cb4b46d849",
      "assetIds": []
    },
    {
      "x": 330,
      "y": 289,
      "size": 1,
      "price": "1011000000000000000000",
      "reserved": "",
      "salt": "0x44502d898efe8897dd5c623bb128e0d6b28106a251e28a028365aa3ac636bc2c",
      "assetIds": []
    },
    {
      "x": 330,
      "y": 290,
      "size": 1,
      "price": "1011000000000000000000",
      "reserved": "",
      "salt": "0x431e0845f75fa62a44801d5251ac31e789833f521ce20a1da7c06bf490ec15d2",
      "assetIds": []
    },
    {
      "x": 330,
      "y": 291,
      "size": 1,
      "price": "1011000000000000000000",
      "reserved": "",
      "salt": "0xf4dc7ab1d4521324ea7ed9d22d5b7f71324a75cc118bbf2b220e949933f8ae98",
      "assetIds": []
    },
    {
      "x": 330,
      "y": 292,
      "size": 1,
      "price": "1011000000000000000000",
      "reserved": "",
      "salt": "0x9853d7d9ca8ed8a9a36b61b993f966d3acc5ea9ceb49eb4219720ad7d9b069cf",
      "assetIds": []
    },
    {
      "x": 330,
      "y": 293,
      "size": 1,
      "price": "1011000000000000000000",
      "reserved": "",
      "salt": "0xa8d5c4818bb021221aed3586a0386f567f73dedc4f854344ba51f6e9ab428777",
      "assetIds": []
    },
    {
      "x": 331,
      "y": 288,
      "size": 1,
      "price": "1011000000000000000000",
      "reserved": "",
      "salt": "0x1cdd4310314a1a4f5909073057f3182b01d3d5524e52646f7018cb2efb74b935",
      "assetIds": []
    },
    {
      "x": 331,
      "y": 289,
      "size": 1,
      "price": "1011000000000000000000",
      "reserved": "",
      "salt": "0x31ceeac11dbd57369176fb330c112b0f837b415400b3612e831435a2caf635ec",
      "assetIds": []
    },
    {
      "x": 331,
      "y": 290,
      "size": 1,
      "price": "1011000000000000000000",
      "reserved": "",
      "salt": "0xa3fe05a4fabcfc17513e08c9db5cb62d85997eac627627c95b061bf0b4be8d2a",
      "assetIds": []
    },
    {
      "x": 331,
      "y": 291,
      "size": 1,
      "price": "1011000000000000000000",
      "reserved": "",
      "salt": "0x64c6cfde3eeee7931b662e33f06fcc01a677438ed4927af654fcdd39fddec434",
      "assetIds": []
    },
    {
      "x": 331,
      "y": 292,
      "size": 1,
      "price": "1011000000000000000000",
      "reserved": "",
      "salt": "0x8dc36521e98a52c1b9295d370b30e8195595448440842de3e1b88e74160b4dec",
      "assetIds": []
    },
    {
      "x": 331,
      "y": 293,
      "size": 1,
      "price": "1011000000000000000000",
      "reserved": "",
      "salt": "0xa0c8048b21673ab5fed1458bae39be6ec714c2df5880cf1d096dec74ae300179",
      "assetIds": []
    },
    {
      "x": 332,
      "y": 288,
      "size": 1,
      "price": "1011000000000000000000",
      "reserved": "",
      "salt": "0x421507891588f37a349bebc00476a896f9a1fe8c8eaa5b061fd4ae648538c384",
      "assetIds": []
    },
    {
      "x": 332,
      "y": 289,
      "size": 1,
      "price": "1011000000000000000000",
      "reserved": "",
      "salt": "0x1d8068b5153b66cb005bd637e1eb4ab275746cd6962268bcf3405d21f9415e21",
      "assetIds": []
    },
    {
      "x": 332,
      "y": 290,
      "size": 1,
      "price": "1011000000000000000000",
      "reserved": "",
      "salt": "0x2323beec701b18f393aad8c30c2bc03c31981c0db2b4de6705785956ea4d5429",
      "assetIds": []
    },
    {
      "x": 332,
      "y": 291,
      "size": 1,
      "price": "1011000000000000000000",
      "reserved": "",
      "salt": "0x9b3a2756a275f2ea0bb72bcbb9402d15c0c2fb77a9c700536fbd5c1407b9dde5",
      "assetIds": []
    },
    {
      "x": 332,
      "y": 292,
      "size": 1,
      "price": "1011000000000000000000",
      "reserved": "",
      "salt": "0xd1c76a942494080fffd63ac4d26ffe19a2110d8b0df9710972bdd0742e051cb2",
      "assetIds": []
    },
    {
      "x": 332,
      "y": 293,
      "size": 1,
      "price": "1011000000000000000000",
      "reserved": "",
      "salt": "0x276d0711a2cdcdc877e6c5d6c55e68921fc545294fd223f2ab99dc6224be49cd",
      "assetIds": []
    },
    {
      "x": 333,
      "y": 261,
      "size": 1,
      "price": "1011000000000000000000",
      "reserved": "",
      "salt": "0x833e377d9ac5c578f5c438418cbd1da66e939464aa5d77a27c8ddb758caf29e3",
      "assetIds": []
    },
    {
      "x": 333,
      "y": 262,
      "size": 1,
      "price": "1011000000000000000000",
      "reserved": "",
      "salt": "0x1d68d153f3608255d94868c60c2c1e69b4eec879c2e954af0e3a376d2618f9b0",
      "assetIds": []
    },
    {
      "x": 333,
      "y": 263,
      "size": 1,
      "price": "1011000000000000000000",
      "reserved": "",
      "salt": "0xaa77152f098ba53097971367ef8cfa461e8b26116f07e93da1a5cba434517015",
      "assetIds": []
    },
    {
      "x": 333,
      "y": 288,
      "size": 1,
      "price": "1011000000000000000000",
      "reserved": "",
      "salt": "0x832fe94d49d4e275a0ced91d2b39d3e8f6e5931386559c1c08fe952977d7c3df",
      "assetIds": []
    },
    {
      "x": 333,
      "y": 289,
      "size": 1,
      "price": "1011000000000000000000",
      "reserved": "",
      "salt": "0x1197d9efbb10662d417f2c645f9e3fad457bd5d923af3ddc99797e0af12420b1",
      "assetIds": []
    },
    {
      "x": 333,
      "y": 290,
      "size": 1,
      "price": "1011000000000000000000",
      "reserved": "",
      "salt": "0xd823b3e1634eed26f07c109ac1ed75c3f97a781d2beacf130f92e96765d47147",
      "assetIds": []
    },
    {
      "x": 334,
      "y": 261,
      "size": 1,
      "price": "1011000000000000000000",
      "reserved": "",
      "salt": "0x39518252d7430d471f1734c916606288ef998eadddabc5224c585b3690550c9a",
      "assetIds": []
    },
    {
      "x": 334,
      "y": 262,
      "size": 1,
      "price": "1011000000000000000000",
      "reserved": "",
      "salt": "0xa428bac89d6757a44ad4d8f3f4edfa8130e5cc6443d7bfd50a45126c9ceaa3ec",
      "assetIds": []
    },
    {
      "x": 334,
      "y": 263,
      "size": 1,
      "price": "1011000000000000000000",
      "reserved": "",
      "salt": "0xa8f07b9dea054650a4ca0461543d2997c7ef6c3d090455abb4077b5b53623e26",
      "assetIds": []
    },
    {
      "x": 334,
      "y": 288,
      "size": 1,
      "price": "1011000000000000000000",
      "reserved": "",
      "salt": "0xf71e22c67712cd53c02b04f5ad5100bc5b348a25fd02500741fcdd90a925ca58",
      "assetIds": []
    },
    {
      "x": 334,
      "y": 289,
      "size": 1,
      "price": "1011000000000000000000",
      "reserved": "",
      "salt": "0x10637ad7912c24fc367342e66dc68ee9988a6bf817bd1e808f6dc023e9b549c2",
      "assetIds": []
    },
    {
      "x": 334,
      "y": 290,
      "size": 1,
      "price": "1011000000000000000000",
      "reserved": "",
      "salt": "0xaa62df7ea876e67e2e39cf95f954aa087a0ab9e9cbdead021e89ae554ab95b47",
      "assetIds": []
    },
    {
      "x": 335,
      "y": 261,
      "size": 1,
      "price": "1011000000000000000000",
      "reserved": "",
      "salt": "0x4d8382b65179325a34e8bdaa5a8b7393e40ebd7983f8c05f2c2a64c17dcbf29d",
      "assetIds": []
    },
    {
      "x": 335,
      "y": 262,
      "size": 1,
      "price": "1011000000000000000000",
      "reserved": "",
      "salt": "0x19b740b3994c416def286a9de2b6eb4106e2aa24ebb3fae4024c7128090349c8",
      "assetIds": []
    },
    {
      "x": 335,
      "y": 263,
      "size": 1,
      "price": "1011000000000000000000",
      "reserved": "",
      "salt": "0x0461412c5533c40c3451cfc0cbb129d794c688b46a2716148ed630387fd7394d",
      "assetIds": []
    },
    {
      "x": 335,
      "y": 288,
      "size": 1,
      "price": "1011000000000000000000",
      "reserved": "0x7a9fe22691c811ea339d9b73150e6911a5343dca",
      "salt": "0x3f9d7689586691330c4047bda255db63ecb1f5211183a50759241b64056bd94b",
      "assetIds": []
    },
    {
      "x": 335,
      "y": 289,
      "size": 1,
      "price": "1011000000000000000000",
      "reserved": "",
      "salt": "0xcda0e2381d7320b1ec68fd7514cee764f22638e422d4bcdb6832c87a18541737",
      "assetIds": []
    },
    {
      "x": 335,
      "y": 290,
      "size": 1,
      "price": "1011000000000000000000",
      "reserved": "",
      "salt": "0xff115a055882a9e077c933b8c8ccf13f74932c745372a055793feaf396b9db1a",
      "assetIds": []
    },
    {
      "x": 336,
      "y": 252,
      "size": 1,
      "price": "1011000000000000000000",
      "reserved": "",
      "salt": "0xd73d1daf889a4b71f46949c7c6f1dd22176d886ab38f971d8d439d4a754994e9",
      "assetIds": []
    },
    {
      "x": 336,
      "y": 253,
      "size": 1,
      "price": "1011000000000000000000",
      "reserved": "",
      "salt": "0x7890121e0f6fa2873c2d02220a11537e9803d52dc72cb4edac25369389d7b283",
      "assetIds": []
    },
    {
      "x": 336,
      "y": 254,
      "size": 1,
      "price": "1011000000000000000000",
      "reserved": "",
      "salt": "0x34cd2fabf7936a68337356d144a2e3a6e292c7e9563ae63b114a8f124d6b79f3",
      "assetIds": []
    },
    {
      "x": 336,
      "y": 258,
      "size": 1,
      "price": "1011000000000000000000",
      "reserved": "",
      "salt": "0x298d47d96a728b2c5dbedf68ccbffb7fdbd93e0c63e0e981526cae270e3ff50a",
      "assetIds": []
    },
    {
      "x": 336,
      "y": 259,
      "size": 1,
      "price": "1011000000000000000000",
      "reserved": "",
      "salt": "0x7c4d955495c7380c8145104c31aac541a8429705f7e81ed9d11ba9633a51910c",
      "assetIds": []
    },
    {
      "x": 336,
      "y": 260,
      "size": 1,
      "price": "1011000000000000000000",
      "reserved": "",
      "salt": "0xda0e2f41e83222a23a820cae4737c4456279e1dc0eb46bc6273ab6f7a7b72857",
      "assetIds": []
    },
    {
      "x": 336,
      "y": 261,
      "size": 1,
      "price": "1011000000000000000000",
      "reserved": "",
      "salt": "0x18bcf1b84ff9f48c60fa822b87c4b2ae89cc3ab1b66fc1243ffecff432fbeab2",
      "assetIds": []
    },
    {
      "x": 336,
      "y": 262,
      "size": 1,
      "price": "1011000000000000000000",
      "reserved": "",
      "salt": "0xe1d774d8d0a74e829b6d2c48e2f5e8c0c772ee5cb745bbc33a4019eb2d8c55e1",
      "assetIds": []
    },
    {
      "x": 336,
      "y": 263,
      "size": 1,
      "price": "1011000000000000000000",
      "reserved": "",
      "salt": "0x7a6245ed390069b69f4442593ad90a6b044c717289023873be01f122200039c9",
      "assetIds": []
    },
    {
      "x": 336,
      "y": 288,
      "size": 1,
      "price": "1011000000000000000000",
      "reserved": "",
      "salt": "0x3586f184e40589e3964c32aa8ac73e7a356ecd70acb0580b383d6aa725b786af",
      "assetIds": []
    },
    {
      "x": 336,
      "y": 289,
      "size": 1,
      "price": "1011000000000000000000",
      "reserved": "",
      "salt": "0x1a421a7a543d052b075b32772898f6da365936e8a8539cd4b2b8c28b82611140",
      "assetIds": []
    },
    {
      "x": 336,
      "y": 290,
      "size": 1,
      "price": "1011000000000000000000",
      "reserved": "",
      "salt": "0xee7437406307229a5805162a6645336293b5112f322eeba68c15d887b5611a4d",
      "assetIds": []
    },
    {
      "x": 336,
      "y": 291,
      "size": 1,
      "price": "1011000000000000000000",
      "reserved": "",
      "salt": "0xec072846211b912e60f80b26d07e73c181bc9081fc1fbe3bc2dfa456c927dea5",
      "assetIds": []
    },
    {
      "x": 336,
      "y": 292,
      "size": 1,
      "price": "1011000000000000000000",
      "reserved": "",
      "salt": "0xa424507b011241d77193a86162064f8de2a9191e912d2059bd847018ca43ca44",
      "assetIds": []
    },
    {
      "x": 336,
      "y": 293,
      "size": 1,
      "price": "1011000000000000000000",
      "reserved": "",
      "salt": "0xd0a3ef07579d474e36c820bba0b6adb40f6c92c7c9a24cf7dcdec1cc3ece1193",
      "assetIds": []
    },
    {
      "x": 336,
      "y": 294,
      "size": 1,
      "price": "1011000000000000000000",
      "reserved": "",
      "salt": "0x83f3ae2680cc018b97ca4a8287583c7a834395dcbc39b0f915d6b6ededf076d3",
      "assetIds": []
    },
    {
      "x": 336,
      "y": 295,
      "size": 1,
      "price": "1011000000000000000000",
      "reserved": "",
      "salt": "0xee55d45b654552d4ce77457e0c77891238d6fcc2850aa65741e789c0aa39c437",
      "assetIds": []
    },
    {
      "x": 336,
      "y": 296,
      "size": 1,
      "price": "1011000000000000000000",
      "reserved": "",
      "salt": "0x06d0b5df8cba1b71a42b14d4cc48851ef7f2b4566506d98688161cabbc358a23",
      "assetIds": []
    },
    {
      "x": 336,
      "y": 297,
      "size": 1,
      "price": "1011000000000000000000",
      "reserved": "",
      "salt": "0x0a39a1d1ed45a417fb38d83054d466ff409d69fb270c2a4b0a30340548d9c669",
      "assetIds": []
    },
    {
      "x": 336,
      "y": 298,
      "size": 1,
      "price": "1011000000000000000000",
      "reserved": "",
      "salt": "0xc50127a6481020c1156b2187be40771b46c69acedd8cac20ad0908d6ddcb747e",
      "assetIds": []
    },
    {
      "x": 336,
      "y": 299,
      "size": 1,
      "price": "1011000000000000000000",
      "reserved": "",
      "salt": "0x3c96916a079d39364dd2b6175a20f57424bc25e75650aa78b4d23956ec41c7ef",
      "assetIds": []
    },
    {
      "x": 337,
      "y": 252,
      "size": 1,
      "price": "1011000000000000000000",
      "reserved": "",
      "salt": "0x256170406d0015aff1bbc6c54d7995101a690e812d9a586151023903e996cc40",
      "assetIds": []
    },
    {
      "x": 337,
      "y": 253,
      "size": 1,
      "price": "1011000000000000000000",
      "reserved": "0x7a9fe22691c811ea339d9b73150e6911a5343dca",
      "salt": "0x2fc781c81c8201dcdff73ee137ec23a0fd502af565fda7d36b096c414b2bca4a",
      "assetIds": []
    },
    {
      "x": 337,
      "y": 254,
      "size": 1,
      "price": "1011000000000000000000",
      "reserved": "",
      "salt": "0xf03e32bd91dc6aa813413a9b2ad987c299afbee3396d54350bdad64030041f51",
      "assetIds": []
    },
    {
      "x": 337,
      "y": 258,
      "size": 1,
      "price": "1011000000000000000000",
      "reserved": "",
      "salt": "0x6b4a4994d28dfa65261a948f6e7be2998a5731d3b7a6462f1ba67b5522ac8e4e",
      "assetIds": []
    },
    {
      "x": 337,
      "y": 259,
      "size": 1,
      "price": "1011000000000000000000",
      "reserved": "",
      "salt": "0xe7c44ff76685d6e350c4d1048aac8fba54d8482a5d675615f87329a414069431",
      "assetIds": []
    },
    {
      "x": 337,
      "y": 260,
      "size": 1,
      "price": "1011000000000000000000",
      "reserved": "",
      "salt": "0x5f1b1465129229dac7f812026720a63683adca47110cf9421217c1347eb21001",
      "assetIds": []
    },
    {
      "x": 337,
      "y": 261,
      "size": 1,
      "price": "1011000000000000000000",
      "reserved": "",
      "salt": "0xd21d0f7a9e21805d942e51276f1f27e95910970748d88e235f5eb7ec122303fe",
      "assetIds": []
    },
    {
      "x": 337,
      "y": 262,
      "size": 1,
      "price": "1011000000000000000000",
      "reserved": "",
      "salt": "0xd04c46a05b456f5c107a21bd91a2b1c94aa55d1d47900c79ec4f994e4caf7002",
      "assetIds": []
    },
    {
      "x": 337,
      "y": 263,
      "size": 1,
      "price": "1011000000000000000000",
      "reserved": "",
      "salt": "0x578a435cdd9b889607b3f5f5232d847a277317878a3c1ee97340c5405662fb62",
      "assetIds": []
    },
    {
      "x": 337,
      "y": 288,
      "size": 1,
      "price": "1011000000000000000000",
      "reserved": "",
      "salt": "0x97e23687cacb9448818e1fea3863e8b79be0cc79212b4d94a9c50b0db59e8673",
      "assetIds": []
    },
    {
      "x": 337,
      "y": 289,
      "size": 1,
      "price": "1011000000000000000000",
      "reserved": "",
      "salt": "0x2704095d689df0d4011c68888e23a39801af9c5086192d40c2ee0fe45eae8606",
      "assetIds": []
    },
    {
      "x": 337,
      "y": 290,
      "size": 1,
      "price": "1011000000000000000000",
      "reserved": "",
      "salt": "0x572b1cf52c3d77d6141c946c5d0a8693fac229814ab8ce48fa7830ecc7355745",
      "assetIds": []
    },
    {
      "x": 337,
      "y": 291,
      "size": 1,
      "price": "1011000000000000000000",
      "reserved": "",
      "salt": "0x38198d7a313602a01d3e2e3a086f8201e29390906385fda8d0803fa883595c19",
      "assetIds": []
    },
    {
      "x": 337,
      "y": 292,
      "size": 1,
      "price": "1011000000000000000000",
      "reserved": "",
      "salt": "0xd6e15322e303a4cef834b8c3c2a431d973a749425b4bdcaee000f8ddd25713f9",
      "assetIds": []
    },
    {
      "x": 337,
      "y": 293,
      "size": 1,
      "price": "1011000000000000000000",
      "reserved": "",
      "salt": "0x7d361dbfd4602ac2c915255eef815e49da76483601353425a3148aed8d6f3982",
      "assetIds": []
    },
    {
      "x": 337,
      "y": 294,
      "size": 1,
      "price": "1011000000000000000000",
      "reserved": "",
      "salt": "0xd37487f4262bae0a69a1c57e4b79ee73c7d9e6e1b95c444135962165f4d09361",
      "assetIds": []
    },
    {
      "x": 337,
      "y": 295,
      "size": 1,
      "price": "1011000000000000000000",
      "reserved": "",
      "salt": "0x9a8264820678139bf4bf3c8c040e079550c728acaa903406eea234551ec15ec4",
      "assetIds": []
    },
    {
      "x": 337,
      "y": 296,
      "size": 1,
      "price": "1011000000000000000000",
      "reserved": "",
      "salt": "0x1be2ac9a1c00b8dd9e3b442b18ca21469f629b10465b2a05f33b59cb9ffe4323",
      "assetIds": []
    },
    {
      "x": 337,
      "y": 297,
      "size": 1,
      "price": "1011000000000000000000",
      "reserved": "",
      "salt": "0x4180134d2d96379105df44a24c0aca71c3de7c61117086a8fc2cfb11366bede3",
      "assetIds": []
    },
    {
      "x": 337,
      "y": 298,
      "size": 1,
      "price": "1011000000000000000000",
      "reserved": "",
      "salt": "0x29a96006a999d85ddea880d79b5adfd569de378652cadeb1c26bc6ca141101c8",
      "assetIds": []
    },
    {
      "x": 337,
      "y": 299,
      "size": 1,
      "price": "1011000000000000000000",
      "reserved": "",
      "salt": "0x335aabfb1ecd936e6d346209034377cc4fe678f57c214505555aaa665036f419",
      "assetIds": []
    },
    {
      "x": 338,
      "y": 252,
      "size": 1,
      "price": "1011000000000000000000",
      "reserved": "",
      "salt": "0x8b3c0c696227984f837acd4c1fe31dd7f54aafc43fd82298d86f5769139199d3",
      "assetIds": []
    },
    {
      "x": 338,
      "y": 253,
      "size": 1,
      "price": "1011000000000000000000",
      "reserved": "",
      "salt": "0x7bfd254862f0b2e36204674d53d2ce68d3ffc6c1a3da05a7405c72c3ead8e107",
      "assetIds": []
    },
    {
      "x": 338,
      "y": 254,
      "size": 1,
      "price": "1011000000000000000000",
      "reserved": "",
      "salt": "0xcdced9d7e4082d01fe3cebe95b0b71967ca0e946d90affc5f43db0948709f492",
      "assetIds": []
    },
    {
      "x": 338,
      "y": 258,
      "size": 1,
      "price": "1011000000000000000000",
      "reserved": "",
      "salt": "0x81b65a57cee8755dc088abe44f214f3b7a52a56407224648001ee43e69a1e8da",
      "assetIds": []
    },
    {
      "x": 338,
      "y": 259,
      "size": 1,
      "price": "1011000000000000000000",
      "reserved": "",
      "salt": "0x11f4b652a61d0f8b1ba6af0608e9800d4e0c5c54d36ee8358075962977e2fa5c",
      "assetIds": []
    },
    {
      "x": 338,
      "y": 260,
      "size": 1,
      "price": "1011000000000000000000",
      "reserved": "",
      "salt": "0x242b2a5215eb4c4ea1d26cfbe52f16ae97d00aa3c042323faf55a9cebfb5842c",
      "assetIds": []
    },
    {
      "x": 338,
      "y": 261,
      "size": 1,
      "price": "1011000000000000000000",
      "reserved": "",
      "salt": "0xae337e677154c17718f04a2e6e034fa256b1b8006f3eabc9bb7a3cecc764d579",
      "assetIds": []
    },
    {
      "x": 338,
      "y": 262,
      "size": 1,
      "price": "1011000000000000000000",
      "reserved": "",
      "salt": "0x6c67a3d1638be8a08985bca9c37d0cfa7d70455e622eaed4f11c2d3b370b175b",
      "assetIds": []
    },
    {
      "x": 338,
      "y": 263,
      "size": 1,
      "price": "1011000000000000000000",
      "reserved": "",
      "salt": "0xbf95b5682131d85bb027bb408cb3fca846fcc622804d2d3eace39b912e0620f4",
      "assetIds": []
    },
    {
      "x": 338,
      "y": 288,
      "size": 1,
      "price": "1011000000000000000000",
      "reserved": "",
      "salt": "0xedc74811683e8bf5bcba6dda69df5f7c891302fa05f9ef64be2f2be156d0a85c",
      "assetIds": []
    },
    {
      "x": 338,
      "y": 289,
      "size": 1,
      "price": "1011000000000000000000",
      "reserved": "0x7a9fe22691c811ea339d9b73150e6911a5343dca",
      "salt": "0x6127877756403959ad66a5297bd3de70046939ec6e59a75eb77b96dada3611b9",
      "assetIds": []
    },
    {
      "x": 338,
      "y": 290,
      "size": 1,
      "price": "1011000000000000000000",
      "reserved": "",
      "salt": "0xa02b3af83e235fc8102f62dc275de871970360fd04bf4948a4971e12b497ec66",
      "assetIds": []
    },
    {
      "x": 338,
      "y": 291,
      "size": 1,
      "price": "1011000000000000000000",
      "reserved": "",
      "salt": "0x2fd77258608b08e08df26569927ce090755e3714c136a7836a79884fd16655ca",
      "assetIds": []
    },
    {
      "x": 338,
      "y": 292,
      "size": 1,
      "price": "1011000000000000000000",
      "reserved": "",
      "salt": "0x17e80516da9cb3f85dea9db8d0f3f7b09d557a548c6c8476886d9fa7a8e5f222",
      "assetIds": []
    },
    {
      "x": 338,
      "y": 293,
      "size": 1,
      "price": "1011000000000000000000",
      "reserved": "",
      "salt": "0x8aee2ad602b4090b59a0e7dcb9d20d5096e117ea65851db54c3011edbb70b615",
      "assetIds": []
    },
    {
      "x": 338,
      "y": 294,
      "size": 1,
      "price": "1011000000000000000000",
      "reserved": "",
      "salt": "0xc946720a03663ab44f9b651afce003efda72bc24dde34d293d9fdd582a0a5b77",
      "assetIds": []
    },
    {
      "x": 338,
      "y": 295,
      "size": 1,
      "price": "1011000000000000000000",
      "reserved": "",
      "salt": "0x354b9865936bbff482e36a7f6d7eae37ccd6777a7925fe324d6eedba777f907b",
      "assetIds": []
    },
    {
      "x": 338,
      "y": 296,
      "size": 1,
      "price": "1011000000000000000000",
      "reserved": "",
      "salt": "0x6d23f650833e4439f6ebde2a11bd62371f4eb000cd2b0b61a52efe2df3b6fc3f",
      "assetIds": []
    },
    {
      "x": 338,
      "y": 297,
      "size": 1,
      "price": "1011000000000000000000",
      "reserved": "",
      "salt": "0x16fca4d76f9fcbef8b75239554d764c804c8098aba91c39d13527974f7f84122",
      "assetIds": []
    },
    {
      "x": 338,
      "y": 298,
      "size": 1,
      "price": "1011000000000000000000",
      "reserved": "",
      "salt": "0x60c13607753cfbc69205eb3d77470c4940ec7f380483bfa3aaca3d656c3087ab",
      "assetIds": []
    },
    {
      "x": 338,
      "y": 299,
      "size": 1,
      "price": "1011000000000000000000",
      "reserved": "",
      "salt": "0x884eda1b10e6b20171f2b26963f47be198b3daa08343528bbc480e5924af538f",
      "assetIds": []
    },
    {
      "x": 339,
      "y": 246,
      "size": 1,
      "price": "1011000000000000000000",
      "reserved": "",
      "salt": "0x65a011507e18ea8924873fa47b2453f0f87e02fccfc3501771bfdb31e2d514e5",
      "assetIds": []
    },
    {
      "x": 339,
      "y": 247,
      "size": 1,
      "price": "1011000000000000000000",
      "reserved": "",
      "salt": "0x9e622bf2d4a45e1ac234148928f4b72f7027f63d2533725355aa3705eb6a2abd",
      "assetIds": []
    },
    {
      "x": 339,
      "y": 248,
      "size": 1,
      "price": "1011000000000000000000",
      "reserved": "",
      "salt": "0xc6a962ce5cbd9cd40933544ae1055278ffed5a0a8c999c5d8320ad7cfe2527fb",
      "assetIds": []
    },
    {
      "x": 339,
      "y": 249,
      "size": 1,
      "price": "1011000000000000000000",
      "reserved": "",
      "salt": "0xf8cd58c8bdac6b0ad6892f1920f3682dc2a6433dacd85b2f5b366e77f2dae8fe",
      "assetIds": []
    },
    {
      "x": 339,
      "y": 250,
      "size": 1,
      "price": "1011000000000000000000",
      "reserved": "",
      "salt": "0xcd08593d53979f561285bb2df7f3dcb65e4dd78e56f01c2d9e9c2b54db0069fe",
      "assetIds": []
    },
    {
      "x": 339,
      "y": 251,
      "size": 1,
      "price": "1011000000000000000000",
      "reserved": "",
      "salt": "0x1389d4c923f0db8bfb4ac9d87519b83bde89015be50c8a5b8a52c5916541ec05",
      "assetIds": []
    },
    {
      "x": 339,
      "y": 255,
      "size": 1,
      "price": "1011000000000000000000",
      "reserved": "",
      "salt": "0xe310fb06f6d3a0efc2f4023826cfec97abd82cf2ede05d7e3344d4ac339b38d5",
      "assetIds": []
    },
    {
      "x": 339,
      "y": 256,
      "size": 1,
      "price": "1011000000000000000000",
      "reserved": "",
      "salt": "0x19ba9c9f01d0f1b17f9fb5447051d0c8961cc2987253feeb30eb7e2018c0447f",
      "assetIds": []
    },
    {
      "x": 339,
      "y": 257,
      "size": 1,
      "price": "1011000000000000000000",
      "reserved": "",
      "salt": "0x3826069fa7164b8c9eddec20602cd98f4ba55f045c41d869f725cc7735c5810c",
      "assetIds": []
    },
    {
      "x": 339,
      "y": 258,
      "size": 1,
      "price": "1011000000000000000000",
      "reserved": "",
      "salt": "0x52d56d4c7070a265c694305f3ac2127e7cb4b30041b1dcd73e73bb6880b61100",
      "assetIds": []
    },
    {
      "x": 339,
      "y": 259,
      "size": 1,
      "price": "1011000000000000000000",
      "reserved": "",
      "salt": "0xf60a3b3d0fb47542d89220ab70d0547cfd75dc3778a19e3cbf8c48a979d3888c",
      "assetIds": []
    },
    {
      "x": 339,
      "y": 260,
      "size": 1,
      "price": "1011000000000000000000",
      "reserved": "",
      "salt": "0x4a7428eaa3c120856b53fe7aa7d3aee0b153013355d07716fdfc4ef20efda753",
      "assetIds": []
    },
    {
      "x": 339,
      "y": 261,
      "size": 1,
      "price": "1011000000000000000000",
      "reserved": "",
      "salt": "0x28c9536ff2012bb3d3fe0ab453b065a03148e2ccb6804f5c0acf8b897368d9ab",
      "assetIds": []
    },
    {
      "x": 339,
      "y": 262,
      "size": 1,
      "price": "1011000000000000000000",
      "reserved": "0x7a9fe22691c811ea339d9b73150e6911a5343dca",
      "salt": "0x49900fda2b302d907830e81fc8ec1ea603bcc3adc39469fa38d5ca865762bbbe",
      "assetIds": []
    },
    {
      "x": 339,
      "y": 263,
      "size": 1,
      "price": "1011000000000000000000",
      "reserved": "",
      "salt": "0x580aeb12ed4efa71b750492715ca282239bf9c0c31691f77f2f47d28f301b79e",
      "assetIds": []
    },
    {
      "x": 339,
      "y": 288,
      "size": 1,
      "price": "1011000000000000000000",
      "reserved": "",
      "salt": "0x8310d1d64292f26a492a825c921c153d660c94d16901e940364405ca51ae5806",
      "assetIds": []
    },
    {
      "x": 339,
      "y": 289,
      "size": 1,
      "price": "1011000000000000000000",
      "reserved": "",
      "salt": "0xc9bcec0febcddee18475b6a2acc0065a8494b7a7518b6e19a3bd0d759d5d8638",
      "assetIds": []
    },
    {
      "x": 339,
      "y": 290,
      "size": 1,
      "price": "1011000000000000000000",
      "reserved": "",
      "salt": "0x166f7d45a709683100db69c5293ac4ed1f433af9ab047541b751405f9aca4cb7",
      "assetIds": []
    },
    {
      "x": 339,
      "y": 291,
      "size": 1,
      "price": "1011000000000000000000",
      "reserved": "",
      "salt": "0x550cbde2b24dcab6ab6dda0cc4b2b315102f710be3487e781207ca1ea3092247",
      "assetIds": []
    },
    {
      "x": 339,
      "y": 292,
      "size": 1,
      "price": "1011000000000000000000",
      "reserved": "",
      "salt": "0x3a6e7dce8f5e6ec3963d7aab83eaa86ce21385dd44091dd9ec0a50a8b0dc5e71",
      "assetIds": []
    },
    {
      "x": 339,
      "y": 293,
      "size": 1,
      "price": "1011000000000000000000",
      "reserved": "",
      "salt": "0x22efb841cad6d268be202ada7831f65ed5cdb717ed22e78eeeb22eb5060c7a91",
      "assetIds": []
    },
    {
      "x": 339,
      "y": 294,
      "size": 1,
      "price": "1011000000000000000000",
      "reserved": "",
      "salt": "0xf008e2040741811ca8e454eb296f78f638c760aa868c7eef572d5cfe6d2e8ec8",
      "assetIds": []
    },
    {
      "x": 339,
      "y": 295,
      "size": 1,
      "price": "1011000000000000000000",
      "reserved": "",
      "salt": "0x773015e14227a84e29978dbb2049c96a7035a13cc7dc3b8e999de3fbbd5ec350",
      "assetIds": []
    },
    {
      "x": 339,
      "y": 296,
      "size": 1,
      "price": "1011000000000000000000",
      "reserved": "",
      "salt": "0x35a3a2ae21dc852be1f8da9d2a104a369cb26f80c3fc2d34a559274fd2cbc4b0",
      "assetIds": []
    },
    {
      "x": 339,
      "y": 297,
      "size": 1,
      "price": "1011000000000000000000",
      "reserved": "",
      "salt": "0xb06deeddab03850cb15ba0511be31df17b569a52b7da776ad7fb97844bafcce1",
      "assetIds": []
    },
    {
      "x": 339,
      "y": 298,
      "size": 1,
      "price": "1011000000000000000000",
      "reserved": "",
      "salt": "0xa9b7a2bbebed330b2a75e2dd3d0d2e8f3d6b88a6dbb34b62cbe986dde8a69d3f",
      "assetIds": []
    },
    {
      "x": 339,
      "y": 299,
      "size": 1,
      "price": "1011000000000000000000",
      "reserved": "",
      "salt": "0xa45b5351caf17ac67325f6df5301c3458e198e034577ff8e4068372b4fa7db9b",
      "assetIds": []
    },
    {
      "x": 340,
      "y": 246,
      "size": 1,
      "price": "1011000000000000000000",
      "reserved": "",
      "salt": "0x67c128c3dcd1f819314eda5a3afebd3c901987ab000893ace882f58cffa51cfe",
      "assetIds": []
    },
    {
      "x": 340,
      "y": 247,
      "size": 1,
      "price": "1011000000000000000000",
      "reserved": "",
      "salt": "0xc63a35fefb2432f57c555320360be1b929867dcf2c06f440e371ef738faf2239",
      "assetIds": []
    },
    {
      "x": 340,
      "y": 248,
      "size": 1,
      "price": "1011000000000000000000",
      "reserved": "",
      "salt": "0x0ac2f4ad6ec3953eb5894dd92f1f49e230ceaad2e910b153b4aa43b6b99b8121",
      "assetIds": []
    },
    {
      "x": 340,
      "y": 249,
      "size": 1,
      "price": "1011000000000000000000",
      "reserved": "",
      "salt": "0xf41e5ef8da42dac78c4d6f686b04388c2eb851f416d694165cd540a45a67890c",
      "assetIds": []
    },
    {
      "x": 340,
      "y": 250,
      "size": 1,
      "price": "1011000000000000000000",
      "reserved": "",
      "salt": "0x6d83d85f05247a26008cd50c3797099adca2a4801ea87666722660e6a4df8dd6",
      "assetIds": []
    },
    {
      "x": 340,
      "y": 251,
      "size": 1,
      "price": "1011000000000000000000",
      "reserved": "",
      "salt": "0xa16f682bd957158d3bc477f1badacddf4f93d3c9a40143dbe0b48b8b659206bc",
      "assetIds": []
    },
    {
      "x": 340,
      "y": 255,
      "size": 1,
      "price": "1011000000000000000000",
      "reserved": "",
      "salt": "0x5d96d5ec3aa1f5aae19c3f0881923257308035ef809541b8f69554649c3b0f72",
      "assetIds": []
    },
    {
      "x": 340,
      "y": 256,
      "size": 1,
      "price": "1011000000000000000000",
      "reserved": "",
      "salt": "0x979757994ad97479dff83a7ec8e08ce62e6e12a7bf350f449f4facb71ce58260",
      "assetIds": []
    },
    {
      "x": 340,
      "y": 257,
      "size": 1,
      "price": "1011000000000000000000",
      "reserved": "",
      "salt": "0x3848ddb1a8c9b13c94189b9debd547fc241b89ab92a33728e1557500e8adb362",
      "assetIds": []
    },
    {
      "x": 340,
      "y": 258,
      "size": 1,
      "price": "1011000000000000000000",
      "reserved": "",
      "salt": "0xe12d4069ac4a3539c10570e5470e67bf1bf4253b112be9ed6d997daa050985ba",
      "assetIds": []
    },
    {
      "x": 340,
      "y": 259,
      "size": 1,
      "price": "1011000000000000000000",
      "reserved": "",
      "salt": "0x10dc9ff79b2838445ad5e2bb59e55a9dfad61aded0fb0ba2d41d70aaff56d277",
      "assetIds": []
    },
    {
      "x": 340,
      "y": 260,
      "size": 1,
      "price": "1011000000000000000000",
      "reserved": "",
      "salt": "0x061ad2ddc1cdb36bd49e0c36aa54ae8e6a77e9ee3e007e0e16e4455faf425149",
      "assetIds": []
    },
    {
      "x": 340,
      "y": 261,
      "size": 1,
      "price": "1011000000000000000000",
      "reserved": "",
      "salt": "0x2f4de2f0fb0880a9fd58a3e6a8f8cdf5d60de5d4f9f169c931e18f64a823cb76",
      "assetIds": []
    },
    {
      "x": 340,
      "y": 262,
      "size": 1,
      "price": "1011000000000000000000",
      "reserved": "",
      "salt": "0x709e747218019b879c065a98d66574993f6d33f85d45a06c0f149d0f56890580",
      "assetIds": []
    },
    {
      "x": 340,
      "y": 263,
      "size": 1,
      "price": "1011000000000000000000",
      "reserved": "",
      "salt": "0x96eede27a0cf022bb8b958a83ad775714c0d6c84651a54bf80875f6295595cc1",
      "assetIds": []
    },
    {
      "x": 340,
      "y": 288,
      "size": 1,
      "price": "1011000000000000000000",
      "reserved": "",
      "salt": "0x3b5ad4ee0516295707fbf297b6a3358ce778e480ab7038164acd86beccf30b58",
      "assetIds": []
    },
    {
      "x": 340,
      "y": 289,
      "size": 1,
      "price": "1011000000000000000000",
      "reserved": "",
      "salt": "0xb5bd958170097dea6ef5c4ec857cce07ffa405eafd3ea5213cb474ac2ef0d8f8",
      "assetIds": []
    },
    {
      "x": 340,
      "y": 290,
      "size": 1,
      "price": "1011000000000000000000",
      "reserved": "",
      "salt": "0x603d16d8b7250f0d96a9e9b11174ea806460b4df86564651b3c380363e34279f",
      "assetIds": []
    },
    {
      "x": 340,
      "y": 291,
      "size": 1,
      "price": "1011000000000000000000",
      "reserved": "",
      "salt": "0x8d3b559ceccc211f03fcbe6a39cc9203ff1844987e45577d2d534c34ddc98fc3",
      "assetIds": []
    },
    {
      "x": 340,
      "y": 292,
      "size": 1,
      "price": "1011000000000000000000",
      "reserved": "",
      "salt": "0xf351bbf9c24e52c73b2d70b8f742e7ca02d9c57cc22f1451cded68f74c6e8723",
      "assetIds": []
    },
    {
      "x": 340,
      "y": 293,
      "size": 1,
      "price": "1011000000000000000000",
      "reserved": "",
      "salt": "0x1e8f5985c63ec54e8aff76cb96ac347b0e7a25be89f3313d12a70ea0f9c53156",
      "assetIds": []
    },
    {
      "x": 340,
      "y": 294,
      "size": 1,
      "price": "1011000000000000000000",
      "reserved": "",
      "salt": "0x38e27678047d414f182978d3f95c161e3d79d7ce98cd08e6879e4808c90e89bd",
      "assetIds": []
    },
    {
      "x": 340,
      "y": 295,
      "size": 1,
      "price": "1011000000000000000000",
      "reserved": "",
      "salt": "0x86eb00ad3439e10b0f3f0d23cb64d540ec26da86a02bbdc406d7c19247389075",
      "assetIds": []
    },
    {
      "x": 340,
      "y": 296,
      "size": 1,
      "price": "1011000000000000000000",
      "reserved": "",
      "salt": "0x1fcca24e9d892f349695b549044dd3ff148d5b0bd39370a41dfdbf0900a3e236",
      "assetIds": []
    },
    {
      "x": 340,
      "y": 297,
      "size": 1,
      "price": "1011000000000000000000",
      "reserved": "",
      "salt": "0x7665fe8e9d58dc4ce484496f29887e9ee1392ec536d9bb08e5caeef7706700cb",
      "assetIds": []
    },
    {
      "x": 340,
      "y": 298,
      "size": 1,
      "price": "1011000000000000000000",
      "reserved": "",
      "salt": "0xb831973479396055f94628b78033c503a112ac94be987e3d0bf5d079c709d424",
      "assetIds": []
    },
    {
      "x": 340,
      "y": 299,
      "size": 1,
      "price": "1011000000000000000000",
      "reserved": "",
      "salt": "0x3163ef9a389bd2fd118a3642b775ad49361d4948284ec68948d56b85637f6679",
      "assetIds": []
    },
    {
      "x": 341,
      "y": 246,
      "size": 1,
      "price": "1011000000000000000000",
      "reserved": "",
      "salt": "0x9bd72009231511a36dd65e4fb8975bdf75395f8d89fef83666d6d29a8199b71c",
      "assetIds": []
    },
    {
      "x": 341,
      "y": 247,
      "size": 1,
      "price": "1011000000000000000000",
      "reserved": "",
      "salt": "0x012ea75f9aec519ede3521966bfa69d385d0e90c99ae85cf987b081e15d7d421",
      "assetIds": []
    },
    {
      "x": 341,
      "y": 248,
      "size": 1,
      "price": "1011000000000000000000",
      "reserved": "",
      "salt": "0x061feecb19185eecade0e9e1bf6dcf221a6a3aea732055c48d09d16e226ceca9",
      "assetIds": []
    },
    {
      "x": 341,
      "y": 249,
      "size": 1,
      "price": "1011000000000000000000",
      "reserved": "",
      "salt": "0x3ce9eaf469308a791ecd7cab428b022fc4a9a33a5f62122066d8c5d20580a02e",
      "assetIds": []
    },
    {
      "x": 341,
      "y": 250,
      "size": 1,
      "price": "1011000000000000000000",
      "reserved": "",
      "salt": "0x3145cec5f22915079be2779742c1762052d56d85955a55ae8e356e72dcc99095",
      "assetIds": []
    },
    {
      "x": 341,
      "y": 251,
      "size": 1,
      "price": "1011000000000000000000",
      "reserved": "",
      "salt": "0x3f6f3551bb24c4032142fcaf18bd80372fdff4b214223911a5949c4e469c38d3",
      "assetIds": []
    },
    {
      "x": 341,
      "y": 255,
      "size": 1,
      "price": "1011000000000000000000",
      "reserved": "",
      "salt": "0x512bd63287467d810e13e2274216527dbeff291af390d8b9679f4f6f34c5af49",
      "assetIds": []
    },
    {
      "x": 341,
      "y": 256,
      "size": 1,
      "price": "1011000000000000000000",
      "reserved": "",
      "salt": "0xd11827be5d35fcc6fd2c87ae3768a3f6043820a7cb95b8878d29f2c35c47ad90",
      "assetIds": []
    },
    {
      "x": 341,
      "y": 257,
      "size": 1,
      "price": "1011000000000000000000",
      "reserved": "",
      "salt": "0x46d024a4f32f0e8d15007ce632e2d78200f36b1a3ddebe0979fd2d3e02a1c14e",
      "assetIds": []
    },
    {
      "x": 341,
      "y": 258,
      "size": 1,
      "price": "1011000000000000000000",
      "reserved": "",
      "salt": "0x4ef757f9be0db1e6757d0f9fc6564fd941f1fe32fdeaa74340a23b89a6aacae5",
      "assetIds": []
    },
    {
      "x": 341,
      "y": 259,
      "size": 1,
      "price": "1011000000000000000000",
      "reserved": "",
      "salt": "0xc50bb8efd12b5cb08ac2faa2a02c23c316936e2a7be2a39069a516b697cddcfd",
      "assetIds": []
    },
    {
      "x": 341,
      "y": 260,
      "size": 1,
      "price": "1011000000000000000000",
      "reserved": "",
      "salt": "0x9f1b971e96334829393a04ca75a6419a20b7d0dbf3986fc95cc87b1b2021256c",
      "assetIds": []
    },
    {
      "x": 341,
      "y": 261,
      "size": 1,
      "price": "1011000000000000000000",
      "reserved": "",
      "salt": "0xbb92adcefb7c7b055fc3ce69e17acf9e8a89d050d6a440f42e30051633aa1fc6",
      "assetIds": []
    },
    {
      "x": 341,
      "y": 262,
      "size": 1,
      "price": "1011000000000000000000",
      "reserved": "",
      "salt": "0xdcd7451587b5648d3260fbbbd9f3cd04b4dc2db7372babadb65ecd7257d601a3",
      "assetIds": []
    },
    {
      "x": 341,
      "y": 263,
      "size": 1,
      "price": "1011000000000000000000",
      "reserved": "",
      "salt": "0xf6dabbf320fa470331118bf25eb2cc553753af3363c0d9f8cea04144188ad612",
      "assetIds": []
    },
    {
      "x": 341,
      "y": 288,
      "size": 1,
      "price": "1011000000000000000000",
      "reserved": "",
      "salt": "0x9bd2bec887c8d3954782f0b366fc9dea2d734a576de7f3313400d1e59a92e3af",
      "assetIds": []
    },
    {
      "x": 341,
      "y": 289,
      "size": 1,
      "price": "1011000000000000000000",
      "reserved": "",
      "salt": "0x45bf07fd613601d1fa9ed391936db97aad3d1149e3d4906bb544d9321c273324",
      "assetIds": []
    },
    {
      "x": 341,
      "y": 290,
      "size": 1,
      "price": "1011000000000000000000",
      "reserved": "",
      "salt": "0x20c08403d1dc0b1ab5e9da020b48f6cbcf09f60064b07ffb3a9736fd6c3a064f",
      "assetIds": []
    },
    {
      "x": 341,
      "y": 291,
      "size": 1,
      "price": "1011000000000000000000",
      "reserved": "",
      "salt": "0x5452de957275d7548322fd5dc5d573db767f851e3b48c435fdfeb36ec472d5af",
      "assetIds": []
    },
    {
      "x": 341,
      "y": 292,
      "size": 1,
      "price": "1011000000000000000000",
      "reserved": "",
      "salt": "0x9cdd5aeb5f6ad906102388758aec7584f7704fa5b70146acd1e8bb9c2699847e",
      "assetIds": []
    },
    {
      "x": 341,
      "y": 293,
      "size": 1,
      "price": "1011000000000000000000",
      "reserved": "",
      "salt": "0x4702dd2baef7c18b465b590bd921d7c1a709cef380ae04937cac4996764426b2",
      "assetIds": []
    },
    {
      "x": 341,
      "y": 294,
      "size": 1,
      "price": "1011000000000000000000",
      "reserved": "",
      "salt": "0x434246464f24c1dd40da2de8fda38a8411da970361d44e51eae4b0008c960279",
      "assetIds": []
    },
    {
      "x": 341,
      "y": 295,
      "size": 1,
      "price": "1011000000000000000000",
      "reserved": "",
      "salt": "0xb5f3d4d29e24ac7f45411eff710244dd37bc68c3105a07bdbc5f14c18aee293b",
      "assetIds": []
    },
    {
      "x": 341,
      "y": 296,
      "size": 1,
      "price": "1011000000000000000000",
      "reserved": "",
      "salt": "0xa1d1eae5f0fa8ca56a0d1af274f59bbdcef105954da8c6fa96837fbcd50e575e",
      "assetIds": []
    },
    {
      "x": 341,
      "y": 297,
      "size": 1,
      "price": "1011000000000000000000",
      "reserved": "",
      "salt": "0x17618aee96d9334ac6df7657a29c02cc80297ee777c45c4ba73903c4482825d2",
      "assetIds": []
    },
    {
      "x": 341,
      "y": 298,
      "size": 1,
      "price": "1011000000000000000000",
      "reserved": "",
      "salt": "0xcb99449b8c9c23d0a95cc4a41a415923de102b67108838dd5eb71f30e7e8efc0",
      "assetIds": []
    },
    {
      "x": 341,
      "y": 299,
      "size": 1,
      "price": "1011000000000000000000",
      "reserved": "",
      "salt": "0x5867a805a1a94575a2dcfb880fb8d93d371e9c38e7d0cd5df49917b5ed2f6141",
      "assetIds": []
    },
    {
      "x": 342,
      "y": 240,
      "size": 1,
      "price": "1011000000000000000000",
      "reserved": "",
      "salt": "0xe5a00084937b9b3857eaf22864e6e040b421164f350ca34cedf8674ae0daa423",
      "assetIds": []
    },
    {
      "x": 342,
      "y": 241,
      "size": 1,
      "price": "1011000000000000000000",
      "reserved": "",
      "salt": "0xe7c20e5232e8f1c90d9eaf50a5f78599b3c22912c7fa67529f1f2675c7f26baf",
      "assetIds": []
    },
    {
      "x": 342,
      "y": 242,
      "size": 1,
      "price": "1011000000000000000000",
      "reserved": "",
      "salt": "0xf6306a664309d56cb3928b42af26088b662c350c1346476bcb3169e534970acc",
      "assetIds": []
    },
    {
      "x": 342,
      "y": 243,
      "size": 1,
      "price": "1011000000000000000000",
      "reserved": "",
      "salt": "0xf79fce5e077e9b5510a1e4e9c087b606e970f97488c5db9c89b7e579b4c6e5b4",
      "assetIds": []
    },
    {
      "x": 342,
      "y": 244,
      "size": 1,
      "price": "1011000000000000000000",
      "reserved": "",
      "salt": "0x2a13c0e6a7f5bbc0fe08f81e4ba05ae9a9dd5977d3a5277aa58559fae8402417",
      "assetIds": []
    },
    {
      "x": 342,
      "y": 245,
      "size": 1,
      "price": "1011000000000000000000",
      "reserved": "",
      "salt": "0x73411f7957983724633dd86f4b17024a58146837056712288ebd86b8646f1194",
      "assetIds": []
    },
    {
      "x": 342,
      "y": 246,
      "size": 1,
      "price": "1011000000000000000000",
      "reserved": "",
      "salt": "0x54d796b837e867285e802d5a0bab793163498be840be0fc6733b8306a1db9361",
      "assetIds": []
    },
    {
      "x": 342,
      "y": 247,
      "size": 1,
      "price": "1011000000000000000000",
      "reserved": "",
      "salt": "0x2b5c8105efd3d8eaff988db7ef7fea3f3f9df0ce05e7aa7c469ca008b771f7e3",
      "assetIds": []
    },
    {
      "x": 342,
      "y": 248,
      "size": 1,
      "price": "1011000000000000000000",
      "reserved": "",
      "salt": "0xb55fead6800341eeb1c78ee5d0730b6f3e3ceb7fffb6f351a04262be44b4d97b",
      "assetIds": []
    },
    {
      "x": 342,
      "y": 249,
      "size": 1,
      "price": "1011000000000000000000",
      "reserved": "",
      "salt": "0x05ade1394b2dae87d28d728b74a5a0c2d298fd66a35ce83058b885dcb60ec077",
      "assetIds": []
    },
    {
      "x": 342,
      "y": 250,
      "size": 1,
      "price": "1011000000000000000000",
      "reserved": "",
      "salt": "0x3d1cc67e0b05f6a9a1a5c890c43fafacb1f2c1467607ffa0222d32ba9c2fd70d",
      "assetIds": []
    },
    {
      "x": 342,
      "y": 251,
      "size": 1,
      "price": "1011000000000000000000",
      "reserved": "",
      "salt": "0x0df69f10fbce890c8f0bec8c3ea16607a48cb5a08f7a38eb74c76a2698a3830e",
      "assetIds": []
    },
    {
      "x": 342,
      "y": 252,
      "size": 1,
      "price": "1011000000000000000000",
      "reserved": "",
      "salt": "0x76effbd1eb6d938d072f553f553fc33c9a60687fcac6ada7f8a54eab2ea768ec",
      "assetIds": []
    },
    {
      "x": 342,
      "y": 253,
      "size": 1,
      "price": "1011000000000000000000",
      "reserved": "",
      "salt": "0xb4c64829e30c695b292ba953a892e34616dc33671de4c51b377db8b426779437",
      "assetIds": []
    },
    {
      "x": 342,
      "y": 254,
      "size": 1,
      "price": "1011000000000000000000",
      "reserved": "",
      "salt": "0x05cb984c4c0f10ab97d9ff451df4e5e357ae561f9b330149cad7b3fe6582a21d",
      "assetIds": []
    },
    {
      "x": 342,
      "y": 255,
      "size": 1,
      "price": "1011000000000000000000",
      "reserved": "",
      "salt": "0xa8f2890c06104354a934dd3b2b96852192f907e6360c6aece19ed76c02969a17",
      "assetIds": []
    },
    {
      "x": 342,
      "y": 256,
      "size": 1,
      "price": "1011000000000000000000",
      "reserved": "",
      "salt": "0xef67487ccf25b6ee6bf4f738a5bafc48b96094d49efecd663ddcacdba092f3ae",
      "assetIds": []
    },
    {
      "x": 342,
      "y": 257,
      "size": 1,
      "price": "1011000000000000000000",
      "reserved": "",
      "salt": "0x20f62d690eeb31883a9254d01cfb1cca0c947728580ffbdd8475837ae2e596ce",
      "assetIds": []
    },
    {
      "x": 342,
      "y": 294,
      "size": 1,
      "price": "1011000000000000000000",
      "reserved": "",
      "salt": "0x1739acaaa446fc502a8524c0d03a95e7f45d2fdb56d38fa995fd803fc1af4558",
      "assetIds": []
    },
    {
      "x": 342,
      "y": 295,
      "size": 1,
      "price": "1011000000000000000000",
      "reserved": "",
      "salt": "0x540b33a466a60456db02950bf56993432784ea357ad99b48acce537ef4fa05e5",
      "assetIds": []
    },
    {
      "x": 342,
      "y": 296,
      "size": 1,
      "price": "1011000000000000000000",
      "reserved": "",
      "salt": "0x4dc1747c9d5bba29b57e6a0610eaef3be638f25ef8e82c51892031c98b9c1c9c",
      "assetIds": []
    },
    {
      "x": 342,
      "y": 297,
      "size": 1,
      "price": "1011000000000000000000",
      "reserved": "",
      "salt": "0x8b4fe77df71835dcc8184817e73b8beb66f05ce36c4f6aac7f90507417112a6c",
      "assetIds": []
    },
    {
      "x": 342,
      "y": 298,
      "size": 1,
      "price": "1011000000000000000000",
      "reserved": "",
      "salt": "0x7334aaccb437ac027342616e32977c42f944de5fd5d6bdfdfc524f169f32bca5",
      "assetIds": []
    },
    {
      "x": 342,
      "y": 299,
      "size": 1,
      "price": "1011000000000000000000",
      "reserved": "",
      "salt": "0xf6d4114a37c9af7aaa2cf1994d16038e37c030377fe89d1419641b2e0656a49d",
      "assetIds": []
    },
    {
      "x": 343,
      "y": 240,
      "size": 1,
      "price": "1011000000000000000000",
      "reserved": "",
      "salt": "0x10cc1abab0f496cced507a29b0475dc9ae5c66022c2e778bca7a0198c4396bb7",
      "assetIds": []
    },
    {
      "x": 343,
      "y": 241,
      "size": 1,
      "price": "1011000000000000000000",
      "reserved": "",
      "salt": "0x9bf39bb72b9c5b6d147ff3ef69b6ad2c8e33462f8e5f5bca0a140cf7299b9bec",
      "assetIds": []
    },
    {
      "x": 343,
      "y": 242,
      "size": 1,
      "price": "1011000000000000000000",
      "reserved": "",
      "salt": "0xd72b3104ea93d9b8455faa2c4159037668325b49dd2c7622ed8e8eee563a9e0b",
      "assetIds": []
    },
    {
      "x": 343,
      "y": 243,
      "size": 1,
      "price": "1011000000000000000000",
      "reserved": "",
      "salt": "0x9359ae98121f0c7acce5e3282092ef15f0317307365ea47b3422c37539f1527f",
      "assetIds": []
    },
    {
      "x": 343,
      "y": 244,
      "size": 1,
      "price": "1011000000000000000000",
      "reserved": "",
      "salt": "0xd7cd5e8787544d33a2904d6d679ee63dbf055055553f044cfe76508855357357",
      "assetIds": []
    },
    {
      "x": 343,
      "y": 245,
      "size": 1,
      "price": "1011000000000000000000",
      "reserved": "",
      "salt": "0x0b4da271646ce54f60c8ff9e02875b23e78edf4f2bd29ce30bed4d39a662e5a3",
      "assetIds": []
    },
    {
      "x": 343,
      "y": 246,
      "size": 1,
      "price": "1011000000000000000000",
      "reserved": "",
      "salt": "0x930119ae8353f88d856a7eb19f7b0feb56c639675290cb9e775e2cfcf791a3c7",
      "assetIds": []
    },
    {
      "x": 343,
      "y": 247,
      "size": 1,
      "price": "1011000000000000000000",
      "reserved": "",
      "salt": "0xdbb7c6d175c6b3ae6979f5255a54aa7623e13999b78c8c5463e762dcaa696868",
      "assetIds": []
    },
    {
      "x": 343,
      "y": 248,
      "size": 1,
      "price": "1011000000000000000000",
      "reserved": "",
      "salt": "0x036f859d5ffb7b899ac77b05f10d11d81d5ebc06b5bf1c539aebe7bd0567effd",
      "assetIds": []
    },
    {
      "x": 343,
      "y": 249,
      "size": 1,
      "price": "1011000000000000000000",
      "reserved": "",
      "salt": "0x553255680a1499d30b53c3ce0f2507138f3f1d0b5aee7f51f1a07a3a2c47f935",
      "assetIds": []
    },
    {
      "x": 343,
      "y": 250,
      "size": 1,
      "price": "1011000000000000000000",
      "reserved": "",
      "salt": "0x20d6b17c9dc223b3695db089ec34244a6ab5ac93b3884c8d41f59e24d92bb939",
      "assetIds": []
    },
    {
      "x": 343,
      "y": 251,
      "size": 1,
      "price": "1011000000000000000000",
      "reserved": "",
      "salt": "0x4b3806d04b17d6ff956122f040448c007de8049d9c934e19f3a64ccddc726c3b",
      "assetIds": []
    },
    {
      "x": 343,
      "y": 252,
      "size": 1,
      "price": "1011000000000000000000",
      "reserved": "",
      "salt": "0x1d6a8de66d3cb7700fa92b9e4907848c39fd12c41f078dffb262210b13e488f3",
      "assetIds": []
    },
    {
      "x": 343,
      "y": 253,
      "size": 1,
      "price": "1011000000000000000000",
      "reserved": "",
      "salt": "0x750e6984162298052b15e96667c15d87bedea718d1b4446f296a975aab1b13e5",
      "assetIds": []
    },
    {
      "x": 343,
      "y": 254,
      "size": 1,
      "price": "1011000000000000000000",
      "reserved": "",
      "salt": "0xb55a177a7fc9462e3a31f0c4b43bf217ba6db2d74ad2c5a72883485f9d243560",
      "assetIds": []
    },
    {
      "x": 343,
      "y": 255,
      "size": 1,
      "price": "1011000000000000000000",
      "reserved": "",
      "salt": "0xd964ccb1847b72566893e566698943771032b6387e4e53f150400675c0d455c5",
      "assetIds": []
    },
    {
      "x": 343,
      "y": 256,
      "size": 1,
      "price": "1011000000000000000000",
      "reserved": "0x7a9fe22691c811ea339d9b73150e6911a5343dca",
      "salt": "0xda40acf749f10dec58f57b047d732194bd45b815987d910e06568e10f122e55f",
      "assetIds": []
    },
    {
      "x": 343,
      "y": 257,
      "size": 1,
      "price": "1011000000000000000000",
      "reserved": "",
      "salt": "0xb5b72ab63a25fa762e7f7bbdbd32a53a4a1349a2ffc23861fd41e93c7155e7ec",
      "assetIds": []
    },
    {
      "x": 343,
      "y": 294,
      "size": 1,
      "price": "1011000000000000000000",
      "reserved": "",
      "salt": "0x1a05237903a035b1d71c83445f99913d2c7b3ac83452cb399aa55d15b6e6e8be",
      "assetIds": []
    },
    {
      "x": 343,
      "y": 295,
      "size": 1,
      "price": "1011000000000000000000",
      "reserved": "0x7a9fe22691c811ea339d9b73150e6911a5343dca",
      "salt": "0xb3c8a7d0d49f06c5e56b92a51b1f19d8dab80431e799a9f928210f583130d26a",
      "assetIds": []
    },
    {
      "x": 343,
      "y": 296,
      "size": 1,
      "price": "1011000000000000000000",
      "reserved": "",
      "salt": "0xd0646b66941bbc39c13ea7aac777ae1398e79f5335d17c4b8b8ef519fc296bc1",
      "assetIds": []
    },
    {
      "x": 343,
      "y": 297,
      "size": 1,
      "price": "1011000000000000000000",
      "reserved": "",
      "salt": "0x6e3712cd39638c9d0658e4eec4423e2700b039336ec97a1b0d46a7cbb518ced8",
      "assetIds": []
    },
    {
      "x": 343,
      "y": 298,
      "size": 1,
      "price": "1011000000000000000000",
      "reserved": "",
      "salt": "0x207c2c5d04c24d52909a44e784e3b0496a3cd607b38bbb91eb417b7808a699c0",
      "assetIds": []
    },
    {
      "x": 343,
      "y": 299,
      "size": 1,
      "price": "1011000000000000000000",
      "reserved": "",
      "salt": "0x322629a9d4d9988b7714872b461ee126f0305778ba719485c0b65f1e725f8400",
      "assetIds": []
    },
    {
      "x": 344,
      "y": 240,
      "size": 1,
      "price": "1011000000000000000000",
      "reserved": "",
      "salt": "0xa0da98f930870a5150d432de45587d9dd83c95eae1aea719c6b2a4f9bf0f498d",
      "assetIds": []
    },
    {
      "x": 344,
      "y": 241,
      "size": 1,
      "price": "1011000000000000000000",
      "reserved": "",
      "salt": "0x5f096f781143bd413b5d85f3fc9a40e888443f4c8bf7cd01e14db11660a6ab96",
      "assetIds": []
    },
    {
      "x": 344,
      "y": 242,
      "size": 1,
      "price": "1011000000000000000000",
      "reserved": "",
      "salt": "0x9885c2e9610ec5de5ac83b4bfc13506292717643ccbe0a7aadfb1d15c5d730cf",
      "assetIds": []
    },
    {
      "x": 344,
      "y": 243,
      "size": 1,
      "price": "1011000000000000000000",
      "reserved": "",
      "salt": "0x5fe9b2daa8e9340616c28315d180e8396096564ceb96dc9616977c94125bb108",
      "assetIds": []
    },
    {
      "x": 344,
      "y": 244,
      "size": 1,
      "price": "1011000000000000000000",
      "reserved": "",
      "salt": "0x0d3d121291bd40326ddbe3689e5f61797113063297825de2ef876402471883af",
      "assetIds": []
    },
    {
      "x": 344,
      "y": 245,
      "size": 1,
      "price": "1011000000000000000000",
      "reserved": "",
      "salt": "0x0cb6f7b9811830ef24e1b4d1b94df08941e3782c75b96d40aa218820cdc25b43",
      "assetIds": []
    },
    {
      "x": 344,
      "y": 246,
      "size": 1,
      "price": "1011000000000000000000",
      "reserved": "",
      "salt": "0xaa5b5b55afc458a9801da5157c43de5f8c3dea67caff6f7c0e996d14833d57a6",
      "assetIds": []
    },
    {
      "x": 344,
      "y": 247,
      "size": 1,
      "price": "1011000000000000000000",
      "reserved": "",
      "salt": "0x34b8ef3a89d8e9644b73e0fc82ee9893ef177555d5d8593bc6b163666d576f16",
      "assetIds": []
    },
    {
      "x": 344,
      "y": 248,
      "size": 1,
      "price": "1011000000000000000000",
      "reserved": "",
      "salt": "0xe39bf94d32cda95f79edca8c4a849644c59970f222bdbf4d007de3920175e93c",
      "assetIds": []
    },
    {
      "x": 344,
      "y": 249,
      "size": 1,
      "price": "1011000000000000000000",
      "reserved": "",
      "salt": "0x68714744a374ba536ac480b5d0e306be77ba7ab8db06b2af8112fcc24842806a",
      "assetIds": []
    },
    {
      "x": 344,
      "y": 250,
      "size": 1,
      "price": "1011000000000000000000",
      "reserved": "",
      "salt": "0xecdcf6a8208de5fbd9581833bf8473e6cf7fe1baea35e5f8989f20c79a55656e",
      "assetIds": []
    },
    {
      "x": 344,
      "y": 251,
      "size": 1,
      "price": "1011000000000000000000",
      "reserved": "",
      "salt": "0xf4349bc958c9d739ac836cf170070586ffd44cea8510579eb930c3214e5ae051",
      "assetIds": []
    },
    {
      "x": 344,
      "y": 252,
      "size": 1,
      "price": "1011000000000000000000",
      "reserved": "",
      "salt": "0xdb41bc29882a960d8764812058685738ae87983c9e6e8b6e86f63fae94a68665",
      "assetIds": []
    },
    {
      "x": 344,
      "y": 253,
      "size": 1,
      "price": "1011000000000000000000",
      "reserved": "",
      "salt": "0x008733ac5d5e313489a984d14632c5181e9311f1ba8537f26048cc290f1195d2",
      "assetIds": []
    },
    {
      "x": 344,
      "y": 254,
      "size": 1,
      "price": "1011000000000000000000",
      "reserved": "",
      "salt": "0xfe56e2a7036baa88a60f50b265ee8905fb94ff23882a4ca7dc9fb518924fd8d7",
      "assetIds": []
    },
    {
      "x": 344,
      "y": 255,
      "size": 1,
      "price": "1011000000000000000000",
      "reserved": "",
      "salt": "0x1d033e579dd24335193fd429cb6ba772e0db4e7b275bfc4a9f37a50e094782cf",
      "assetIds": []
    },
    {
      "x": 344,
      "y": 256,
      "size": 1,
      "price": "1011000000000000000000",
      "reserved": "",
      "salt": "0x364b22c015538020ec66de6ef3ab7d225e6d46692f650a2d58af80acb5994304",
      "assetIds": []
    },
    {
      "x": 344,
      "y": 257,
      "size": 1,
      "price": "1011000000000000000000",
      "reserved": "",
      "salt": "0xc588c2af4bb04e62b2f22d99133fa2079a3076506f9910d0655bf6e54ae3d5c9",
      "assetIds": []
    },
    {
      "x": 344,
      "y": 294,
      "size": 1,
      "price": "1011000000000000000000",
      "reserved": "",
      "salt": "0xef2ed5be444dd325fb01de15996f2b6fe1eeb49ecaa83f11993aa8fc2d65aa5b",
      "assetIds": []
    },
    {
      "x": 344,
      "y": 295,
      "size": 1,
      "price": "1011000000000000000000",
      "reserved": "",
      "salt": "0x64e1be9b8eb566ca12c46ad7c4bed70eb8e3d7b7e389b6cb7e0f3c3f44fd7f00",
      "assetIds": []
    },
    {
      "x": 344,
      "y": 296,
      "size": 1,
      "price": "1011000000000000000000",
      "reserved": "",
      "salt": "0x0d5e831402f5e164ca27e03d12bce2ae5e0bf9fa7906645955c11abae126367a",
      "assetIds": []
    },
    {
      "x": 344,
      "y": 297,
      "size": 1,
      "price": "1011000000000000000000",
      "reserved": "",
      "salt": "0xabaa02ebafa8ef075a9c331a83ffc3b977b638242533521a52ef7bf1fbc4ab57",
      "assetIds": []
    },
    {
      "x": 344,
      "y": 298,
      "size": 1,
      "price": "1011000000000000000000",
      "reserved": "",
      "salt": "0x2c3d14886871067628612033889d168099e5381e5857f634a1da523bf617984e",
      "assetIds": []
    },
    {
      "x": 344,
      "y": 299,
      "size": 1,
      "price": "1011000000000000000000",
      "reserved": "",
      "salt": "0xad4623548bc67589d22067beacb47078de9aedbafbfd688e8ed7115d0276f4ef",
      "assetIds": []
    },
    {
      "x": 345,
      "y": 240,
      "size": 1,
      "price": "1011000000000000000000",
      "reserved": "",
      "salt": "0x3b01a53a4f856594516a57f265b9ef05b44bb83416f2c5b1dbb873dd00f94e2c",
      "assetIds": []
    },
    {
      "x": 345,
      "y": 241,
      "size": 1,
      "price": "1011000000000000000000",
      "reserved": "",
      "salt": "0xd4ac5fb1afd68ca99006bafdf9c536e8b3fed0b20d4a9d41951c461c049e8a36",
      "assetIds": []
    },
    {
      "x": 345,
      "y": 242,
      "size": 1,
      "price": "1011000000000000000000",
      "reserved": "",
      "salt": "0x1fe72462e0cdf3f22952a51528b487646aa949b5d965059695ed2c33d9865541",
      "assetIds": []
    },
    {
      "x": 345,
      "y": 243,
      "size": 1,
      "price": "1011000000000000000000",
      "reserved": "",
      "salt": "0xdf05c4c01e8909773aef2b73c3198331b8b5d0afd3f21924a0acc225a1e3edba",
      "assetIds": []
    },
    {
      "x": 345,
      "y": 244,
      "size": 1,
      "price": "1011000000000000000000",
      "reserved": "0x7a9fe22691c811ea339d9b73150e6911a5343dca",
      "salt": "0x42c67a1009f0592d59c6b88a336dcdd2be2678d0c82102b15c81a34318b407cb",
      "assetIds": []
    },
    {
      "x": 345,
      "y": 245,
      "size": 1,
      "price": "1011000000000000000000",
      "reserved": "",
      "salt": "0x6c99eaacbffb2f249cc6f7791c44e76121abdf8176dbf7a19efdb56943a41e00",
      "assetIds": []
    },
    {
      "x": 345,
      "y": 246,
      "size": 1,
      "price": "1011000000000000000000",
      "reserved": "",
      "salt": "0xcc5380eb7224dbbaa7a7ddce2bb9dc97da861eb1a836e00f47ed74e4fdb766dc",
      "assetIds": []
    },
    {
      "x": 345,
      "y": 247,
      "size": 1,
      "price": "1011000000000000000000",
      "reserved": "",
      "salt": "0x7007469a6733243e4c5334c679be11096e5d42df5f3fcf201889b7ac761390b8",
      "assetIds": []
    },
    {
      "x": 345,
      "y": 248,
      "size": 1,
      "price": "1011000000000000000000",
      "reserved": "",
      "salt": "0xee3f20fcc0efc2e2e8a4937aee5ff8046209f2d8aba62d339e33235baa1ed0d9",
      "assetIds": []
    },
    {
      "x": 345,
      "y": 249,
      "size": 1,
      "price": "1011000000000000000000",
      "reserved": "",
      "salt": "0x6fb79e7cf49c31901dffec9edb974edad02a04c71c5080149f8cd4d61bad2c76",
      "assetIds": []
    },
    {
      "x": 345,
      "y": 250,
      "size": 1,
      "price": "1011000000000000000000",
      "reserved": "",
      "salt": "0x0af17eea683d29f2d6bb88ac1ba4648be42c781469b91032b2f48f6e3243b30d",
      "assetIds": []
    },
    {
      "x": 345,
      "y": 251,
      "size": 1,
      "price": "1011000000000000000000",
      "reserved": "0x7a9fe22691c811ea339d9b73150e6911a5343dca",
      "salt": "0xd61aa5009893e406c5e61f75c2590f8e8f64d9ae7c8201aed0d60ecfd329f77c",
      "assetIds": []
    },
    {
      "x": 345,
      "y": 252,
      "size": 1,
      "price": "1011000000000000000000",
      "reserved": "",
      "salt": "0xc488e5df424868a91e7d9bf02b49b1bd007e97bf1aab4d5b05abf2367a68b64d",
      "assetIds": []
    },
    {
      "x": 345,
      "y": 253,
      "size": 1,
      "price": "1011000000000000000000",
      "reserved": "",
      "salt": "0x250b0fb68494de7f49f8a7e12855ee25c1642d399412e71f1cee8d9ec6e51e7c",
      "assetIds": []
    },
    {
      "x": 345,
      "y": 254,
      "size": 1,
      "price": "1011000000000000000000",
      "reserved": "",
      "salt": "0xaf7e071aaceb39c30bbec87bf2cf0542cf71033ec41ae138f010aee667585c52",
      "assetIds": []
    },
    {
      "x": 345,
      "y": 255,
      "size": 1,
      "price": "1011000000000000000000",
      "reserved": "",
      "salt": "0xf7f2ca2255f96574560123ba455eb70bcf6d4158b3252078233f2a52105c4685",
      "assetIds": []
    },
    {
      "x": 345,
      "y": 256,
      "size": 1,
      "price": "1011000000000000000000",
      "reserved": "",
      "salt": "0xca9d18e187b0bc4662bde4d89ada1c72cdc97cc4a67224a1f03c23d6e85f9407",
      "assetIds": []
    },
    {
      "x": 345,
      "y": 257,
      "size": 1,
      "price": "1011000000000000000000",
      "reserved": "",
      "salt": "0x792f10a987493f3143dc69e75a0d27d55cb5008451653f35830cffdae7c93d30",
      "assetIds": []
    },
    {
      "x": 345,
      "y": 297,
      "size": 1,
      "price": "1011000000000000000000",
      "reserved": "",
      "salt": "0xcd57e7934b0bfacbba86c967dd2f99c25b948a79791b7479849ee22b5aab1b14",
      "assetIds": []
    },
    {
      "x": 345,
      "y": 298,
      "size": 1,
      "price": "1011000000000000000000",
      "reserved": "",
      "salt": "0xa0cf04130ebe2f0fe56319fbdd23685cb48aaf63e3bd8996012873b131fd8895",
      "assetIds": []
    },
    {
      "x": 345,
      "y": 299,
      "size": 1,
      "price": "1011000000000000000000",
      "reserved": "",
      "salt": "0x310dc8dffcd0695d50d9ec45947754b54a1dc582505d0d85b35cb8c3f1d288d5",
      "assetIds": []
    },
    {
      "x": 345,
      "y": 303,
      "size": 1,
      "price": "1011000000000000000000",
      "reserved": "",
      "salt": "0x23ec602d33d1a4ab83d2e3707e78c57342faa52a81b14e5aaeb00ca724118637",
      "assetIds": []
    },
    {
      "x": 345,
      "y": 304,
      "size": 1,
      "price": "1011000000000000000000",
      "reserved": "",
      "salt": "0x64f56103200df1856a39da6f37300dfaca49a91ba9a80c16e9d1bf07447a8c41",
      "assetIds": []
    },
    {
      "x": 345,
      "y": 305,
      "size": 1,
      "price": "1011000000000000000000",
      "reserved": "",
      "salt": "0x72dad26d281c9d6b00982ac977525e47b210e308f3f826dd29efebf7dd5fac07",
      "assetIds": []
    },
    {
      "x": 346,
      "y": 240,
      "size": 1,
      "price": "1011000000000000000000",
      "reserved": "",
      "salt": "0x1baa48553493f1a0fd1916afb91a770ebec45952ed30f7316c3ac3baf3e8e51b",
      "assetIds": []
    },
    {
      "x": 346,
      "y": 241,
      "size": 1,
      "price": "1011000000000000000000",
      "reserved": "",
      "salt": "0x82cf7e996dcbd5771b952598c6e2f4419dc8f23825dfb782b48146c814ffb7b1",
      "assetIds": []
    },
    {
      "x": 346,
      "y": 242,
      "size": 1,
      "price": "1011000000000000000000",
      "reserved": "",
      "salt": "0xc5a06b6b1426ea03147a7313bd22deaf7a384c16903a9861f8e67ff1c35be5e1",
      "assetIds": []
    },
    {
      "x": 346,
      "y": 243,
      "size": 1,
      "price": "1011000000000000000000",
      "reserved": "",
      "salt": "0xa8ab920bbc9e13d4d087289a8b0881e82c1f296a99bb71c8b6c0b4b669f63d4a",
      "assetIds": []
    },
    {
      "x": 346,
      "y": 244,
      "size": 1,
      "price": "1011000000000000000000",
      "reserved": "",
      "salt": "0x03f6fa37364404c0cb9b04141e5148d395b046fa0d68a4d8647d619e25baf0dd",
      "assetIds": []
    },
    {
      "x": 346,
      "y": 245,
      "size": 1,
      "price": "1011000000000000000000",
      "reserved": "",
      "salt": "0x860f19ce7146a89c5bc90ded4b1d612cbef5ee7bb8d41c9cd367a12c2b8a5778",
      "assetIds": []
    },
    {
      "x": 346,
      "y": 246,
      "size": 1,
      "price": "1011000000000000000000",
      "reserved": "",
      "salt": "0xc7bcb905a304032c6853e45c8ea0be8de6fc029947bd25da540c8d700218e4ac",
      "assetIds": []
    },
    {
      "x": 346,
      "y": 247,
      "size": 1,
      "price": "1011000000000000000000",
      "reserved": "",
      "salt": "0xd561d27ab76288f84d3de181001a290e1bd8dd6ce17a85bd76a780b6b066e657",
      "assetIds": []
    },
    {
      "x": 346,
      "y": 248,
      "size": 1,
      "price": "1011000000000000000000",
      "reserved": "",
      "salt": "0xab221c1ee852519d2a8ff753cd8e4086070f0c6b0bde882c8c29350bd362c8fd",
      "assetIds": []
    },
    {
      "x": 346,
      "y": 249,
      "size": 1,
      "price": "1011000000000000000000",
      "reserved": "",
      "salt": "0xdfd45123443e6f3f5f786f742addb3de23acab30c45a628d699126a8e1d7948d",
      "assetIds": []
    },
    {
      "x": 346,
      "y": 250,
      "size": 1,
      "price": "1011000000000000000000",
      "reserved": "",
      "salt": "0xd60f5ed4f62fc09e52e1e8929d59e55c411df9f6a0c35dd68d2c2853f224f9b1",
      "assetIds": []
    },
    {
      "x": 346,
      "y": 251,
      "size": 1,
      "price": "1011000000000000000000",
      "reserved": "",
      "salt": "0x03577f7ef2efc8e9074ecad083a31a7f259b5cfcfefbda9835cd298d5ed0b864",
      "assetIds": []
    },
    {
      "x": 346,
      "y": 252,
      "size": 1,
      "price": "1011000000000000000000",
      "reserved": "",
      "salt": "0x868491a4a684b0126949ae4206ea67df11b0b64adeb75e4860070efc6fd46859",
      "assetIds": []
    },
    {
      "x": 346,
      "y": 253,
      "size": 1,
      "price": "1011000000000000000000",
      "reserved": "",
      "salt": "0x47b8e84e9c1f969d2c1f9917a1c0ac95d5ab52c6ceb9d2f5af496757883438a0",
      "assetIds": []
    },
    {
      "x": 346,
      "y": 254,
      "size": 1,
      "price": "1011000000000000000000",
      "reserved": "",
      "salt": "0x49595e84b8c7e24b40ee86d52f74901caf3ceba988e1c3bf88fb17c1c8f2e83a",
      "assetIds": []
    },
    {
      "x": 346,
      "y": 255,
      "size": 1,
      "price": "1011000000000000000000",
      "reserved": "",
      "salt": "0x5e77586f6ca582a21030c4dc696dcc8a548bbbf6f69aeba23453eefa10b68ea5",
      "assetIds": []
    },
    {
      "x": 346,
      "y": 256,
      "size": 1,
      "price": "1011000000000000000000",
      "reserved": "",
      "salt": "0x4bb555d6f2d240daea6629b67aded986bd18277b30c7b79aae5fc300558dd651",
      "assetIds": []
    },
    {
      "x": 346,
      "y": 257,
      "size": 1,
      "price": "1011000000000000000000",
      "reserved": "",
      "salt": "0x591e46ee210fcae3e5c94d86dcb3c08c3d553010a5af3d54fd3e9e371d4446ca",
      "assetIds": []
    },
    {
      "x": 346,
      "y": 297,
      "size": 1,
      "price": "1011000000000000000000",
      "reserved": "",
      "salt": "0x7019f4ff82f948d84c75c0f4b37e4479647b0423e08da0df0eeb7eb1ef45cba6",
      "assetIds": []
    },
    {
      "x": 346,
      "y": 298,
      "size": 1,
      "price": "1011000000000000000000",
      "reserved": "",
      "salt": "0x2dcf075ec51d8cef5b88fa838a9ee04aab2e5b6b16f2600ee1cdefadf5215226",
      "assetIds": []
    },
    {
      "x": 346,
      "y": 299,
      "size": 1,
      "price": "1011000000000000000000",
      "reserved": "",
      "salt": "0x148b01a18e25bdd1306020cb0bf97ca38b2d1f8f18615607b1bbb9a62c994d09",
      "assetIds": []
    },
    {
      "x": 346,
      "y": 303,
      "size": 1,
      "price": "1011000000000000000000",
      "reserved": "",
      "salt": "0xad408ce8bceef91e110154e40164220d9be93a1ca9496f666c982a30ca87ca33",
      "assetIds": []
    },
    {
      "x": 346,
      "y": 304,
      "size": 1,
      "price": "1011000000000000000000",
      "reserved": "",
      "salt": "0x24e7cf2e44687d8a273b62c3735a2e353ed44e2b25c2497cc9428dc7ac05f12c",
      "assetIds": []
    },
    {
      "x": 346,
      "y": 305,
      "size": 1,
      "price": "1011000000000000000000",
      "reserved": "",
      "salt": "0x1d2ac9192e20d81fb998b6d73e2e271f2541de0d44e273742c3a90e3dc409eeb",
      "assetIds": []
    },
    {
      "x": 347,
      "y": 240,
      "size": 1,
      "price": "1011000000000000000000",
      "reserved": "",
      "salt": "0x2eba1152fac773950f9e474603d22aadc5dfddce51b29180c93db5fcb38b0614",
      "assetIds": []
    },
    {
      "x": 347,
      "y": 241,
      "size": 1,
      "price": "1011000000000000000000",
      "reserved": "",
      "salt": "0xaf2b91240787a9502f5f7648720e9e8d681029543abe5e7a412b5a010307c97d",
      "assetIds": []
    },
    {
      "x": 347,
      "y": 242,
      "size": 1,
      "price": "1011000000000000000000",
      "reserved": "",
      "salt": "0xf8ddee1d9ccc593eeb3bd9af03dc616565da277fc93618904f10bc0cd9a8c1d4",
      "assetIds": []
    },
    {
      "x": 347,
      "y": 243,
      "size": 1,
      "price": "1011000000000000000000",
      "reserved": "",
      "salt": "0x95e22f0de9dcaaee99443d513667b785d7f61d4016beb8d9de6086456bee9ff4",
      "assetIds": []
    },
    {
      "x": 347,
      "y": 244,
      "size": 1,
      "price": "1011000000000000000000",
      "reserved": "",
      "salt": "0x2ba2251276e72400ceefcbf186c6c9fce891abfa4f7d44c55a82b7c69c2d4cf3",
      "assetIds": []
    },
    {
      "x": 347,
      "y": 245,
      "size": 1,
      "price": "1011000000000000000000",
      "reserved": "",
      "salt": "0xccc2229cd8de5e671e3c8a54b9a03a195603007deed8edb588ad9197716f4934",
      "assetIds": []
    },
    {
      "x": 347,
      "y": 246,
      "size": 1,
      "price": "1011000000000000000000",
      "reserved": "",
      "salt": "0xf7b00692821ed8326a15e378ebe3a4a7c23d3bfdb658f1b642c7d59671d5b2d7",
      "assetIds": []
    },
    {
      "x": 347,
      "y": 247,
      "size": 1,
      "price": "1011000000000000000000",
      "reserved": "",
      "salt": "0x85df5af1408de0087f7a090f9595fab0e479a5403b293bcdfddd537de09c5de6",
      "assetIds": []
    },
    {
      "x": 347,
      "y": 248,
      "size": 1,
      "price": "1011000000000000000000",
      "reserved": "",
      "salt": "0x8a5e6c3ffa1fa5e57c65a57b7051ecbf7ca8e1da0db563e966779c4790434be5",
      "assetIds": []
    },
    {
      "x": 347,
      "y": 249,
      "size": 1,
      "price": "1011000000000000000000",
      "reserved": "",
      "salt": "0xc9eb8a588f2f0fba00b6a7df013e8ccf2893e962d67848ccdf2d9fd3f6afb554",
      "assetIds": []
    },
    {
      "x": 347,
      "y": 250,
      "size": 1,
      "price": "1011000000000000000000",
      "reserved": "",
      "salt": "0x6bb353d1c9e8a4877b4e20f3bf204ab096449e8a47b7a21f3f976c8689cfa281",
      "assetIds": []
    },
    {
      "x": 347,
      "y": 251,
      "size": 1,
      "price": "1011000000000000000000",
      "reserved": "",
      "salt": "0x2e6f769c73a4b19280251876bd0f5736809bc1d3facf58291ebc98b0e5a2f12d",
      "assetIds": []
    },
    {
      "x": 347,
      "y": 252,
      "size": 1,
      "price": "1011000000000000000000",
      "reserved": "",
      "salt": "0x18b93b94d02ccf4f85a7f3da4df136e23749925b5d11fc8c3bd37e6fa06b48af",
      "assetIds": []
    },
    {
      "x": 347,
      "y": 253,
      "size": 1,
      "price": "1011000000000000000000",
      "reserved": "",
      "salt": "0xb4b8933d24b551c1144bf0ebde8ff37e4e0db7870adec39e6dc83ea19facffa2",
      "assetIds": []
    },
    {
      "x": 347,
      "y": 254,
      "size": 1,
      "price": "1011000000000000000000",
      "reserved": "",
      "salt": "0xa175e2f6fa9345e4d97316bf375e763e9f71e0796e51d6d356f4e5660c5bead7",
      "assetIds": []
    },
    {
      "x": 347,
      "y": 255,
      "size": 1,
      "price": "1011000000000000000000",
      "reserved": "",
      "salt": "0x12e04d3709c16fb274f1087fd0a7ccce70f710a0bd7afaa341f707f81a0501b1",
      "assetIds": []
    },
    {
      "x": 347,
      "y": 256,
      "size": 1,
      "price": "1011000000000000000000",
      "reserved": "",
      "salt": "0x24ace896da3e0e262229e9ed597cff0b4f2517f696e1ecc6a8fa54c76b95141d",
      "assetIds": []
    },
    {
      "x": 347,
      "y": 257,
      "size": 1,
      "price": "1011000000000000000000",
      "reserved": "",
      "salt": "0x7b5a9bc893a50f4e4ac4856bbe85c9c50aeaed3ee7de978c03daf8deb07e6ded",
      "assetIds": []
    },
    {
      "x": 347,
      "y": 297,
      "size": 1,
      "price": "1011000000000000000000",
      "reserved": "",
      "salt": "0xa89681ef5debdc7cae2d8bb9ef35325a7c852dbfb44f1aa12d9fb283ed30b49c",
      "assetIds": []
    },
    {
      "x": 347,
      "y": 298,
      "size": 1,
      "price": "1011000000000000000000",
      "reserved": "",
      "salt": "0xee45e2e582c08c2372e5a4baec0b39ff55c157dc9033c479261c794ddfca8725",
      "assetIds": []
    },
    {
      "x": 347,
      "y": 299,
      "size": 1,
      "price": "1011000000000000000000",
      "reserved": "",
      "salt": "0x6117dbca13f974127b2f6c941d82ccfee604690168a33b425d19fba22ea9fd01",
      "assetIds": []
    },
    {
      "x": 347,
      "y": 303,
      "size": 1,
      "price": "1011000000000000000000",
      "reserved": "",
      "salt": "0xff8fbe344aa6888c3418757c956ae62864e43a59497ad8494c467227edfb2d44",
      "assetIds": []
    },
    {
      "x": 347,
      "y": 304,
      "size": 1,
      "price": "1011000000000000000000",
      "reserved": "",
      "salt": "0x47915f8c5c757e71beeaf0ed3d3d336277e0ad638ff7e6af1aa69fa0d6b1bb2f",
      "assetIds": []
    },
    {
      "x": 347,
      "y": 305,
      "size": 1,
      "price": "1011000000000000000000",
      "reserved": "",
      "salt": "0xc31c3b596fe873a9e3a0fcb5214f228d5be8b962dec17131fb9eb1e3d4f27fe6",
      "assetIds": []
    },
    {
      "x": 348,
      "y": 255,
      "size": 1,
      "price": "1011000000000000000000",
      "reserved": "",
      "salt": "0xb3db658e679c695df6155d6fa941b1267702493169aec3144c011b2df350a8d4",
      "assetIds": []
    },
    {
      "x": 348,
      "y": 256,
      "size": 1,
      "price": "1011000000000000000000",
      "reserved": "",
      "salt": "0x349de938dfc0ff08572656e8f27efd0615aeeb36c71921d6c7064961c176f39d",
      "assetIds": []
    },
    {
      "x": 348,
      "y": 257,
      "size": 1,
      "price": "1011000000000000000000",
      "reserved": "",
      "salt": "0x8a5d3aa236b40071458f6b8d7a2b60c0ed16c843c417a26bdffbdf40b69f539c",
      "assetIds": []
    },
    {
      "x": 348,
      "y": 258,
      "size": 1,
      "price": "1011000000000000000000",
      "reserved": "",
      "salt": "0xbff5e6a909c6b80eeff6fd058f54a6a8cd6b2ec920f4f1e1efe2d567937dcb20",
      "assetIds": []
    },
    {
      "x": 348,
      "y": 259,
      "size": 1,
      "price": "1011000000000000000000",
      "reserved": "",
      "salt": "0xf21a18e976a5ecd448752aeb4a08be758a7f697311ad59bda00c841393e0e953",
      "assetIds": []
    },
    {
      "x": 348,
      "y": 260,
      "size": 1,
      "price": "1011000000000000000000",
      "reserved": "",
      "salt": "0x488cad2c0a8d48df397f5872d7d3d3f902affe893ff9a5e110b086626171796e",
      "assetIds": []
    },
    {
      "x": 348,
      "y": 261,
      "size": 1,
      "price": "1011000000000000000000",
      "reserved": "",
      "salt": "0x010a25bbb037e5c32667f1145289aaf0dcf46f19cd8018310a55aaad426d9fb0",
      "assetIds": []
    },
    {
      "x": 348,
      "y": 262,
      "size": 1,
      "price": "1011000000000000000000",
      "reserved": "",
      "salt": "0xc0b64a9fbc5fdce33ff38bcd4ff09c51cb71368e559e9b2a80e5e5f16c55e557",
      "assetIds": []
    },
    {
      "x": 348,
      "y": 263,
      "size": 1,
      "price": "1011000000000000000000",
      "reserved": "",
      "salt": "0x7142b6a78f68d2184a87b5784a886840d773de6adf5ceed6294a3133d2c06040",
      "assetIds": []
    },
    {
      "x": 348,
      "y": 300,
      "size": 1,
      "price": "1011000000000000000000",
      "reserved": "",
      "salt": "0x27bf9998303ddc8af9c5703137695d40e2866e82abbfa7dfe5f560d380c5eb65",
      "assetIds": []
    },
    {
      "x": 348,
      "y": 301,
      "size": 1,
      "price": "1011000000000000000000",
      "reserved": "",
      "salt": "0xabb9eb64a1f2bb1b6f7beb824f22422a2ad93f6c5625cfb3f97ae1225cf6c1d1",
      "assetIds": []
    },
    {
      "x": 348,
      "y": 302,
      "size": 1,
      "price": "1011000000000000000000",
      "reserved": "",
      "salt": "0xa5a105eb358167a84724e005b7936009e9769aee8bc06f26730ffc864df8173b",
      "assetIds": []
    },
    {
      "x": 348,
      "y": 303,
      "size": 1,
      "price": "1011000000000000000000",
      "reserved": "",
      "salt": "0x61a4dd0102895318d35734d333a8caa0d3d2c93384a3181916f80c9cf2489a63",
      "assetIds": []
    },
    {
      "x": 348,
      "y": 304,
      "size": 1,
      "price": "1011000000000000000000",
      "reserved": "",
      "salt": "0x8880af28f97bb3a4972fe14ecf8b93f698146e081ef39839cff7952efc40c867",
      "assetIds": []
    },
    {
      "x": 348,
      "y": 305,
      "size": 1,
      "price": "1011000000000000000000",
      "reserved": "",
      "salt": "0x216f2191677d3ed2dd8d97cccd9b43f00bea14f5893dc623c1e43686f2d8a0ab",
      "assetIds": []
    },
    {
      "x": 349,
      "y": 255,
      "size": 1,
      "price": "1011000000000000000000",
      "reserved": "",
      "salt": "0xefeaa3e28d8e8728848057aa0cc711a9af63f020bdc7f43021b1dfdc64d4dd2a",
      "assetIds": []
    },
    {
      "x": 349,
      "y": 256,
      "size": 1,
      "price": "1011000000000000000000",
      "reserved": "",
      "salt": "0x9b52ed408043160ca6992665761e2a958de7662f1e618e80090d010edc856774",
      "assetIds": []
    },
    {
      "x": 349,
      "y": 257,
      "size": 1,
      "price": "1011000000000000000000",
      "reserved": "",
      "salt": "0xd48fb555ba5f5d8e92e49fb9778f5e47cb0d7cf772637d9350d65a68e72cc669",
      "assetIds": []
    },
    {
      "x": 349,
      "y": 258,
      "size": 1,
      "price": "1011000000000000000000",
      "reserved": "",
      "salt": "0xb0ab0a2eb5074b4222f0c1f502c31e4951f16d6b22744856504366c707a7124e",
      "assetIds": []
    },
    {
      "x": 349,
      "y": 259,
      "size": 1,
      "price": "1011000000000000000000",
      "reserved": "",
      "salt": "0x318d815932622af902489942b9a016ecbf65153e62cc8f5261f411b318d67776",
      "assetIds": []
    },
    {
      "x": 349,
      "y": 260,
      "size": 1,
      "price": "1011000000000000000000",
      "reserved": "",
      "salt": "0x8534ea13ee5786828575672decda6d7119c3d0aaa96eee6d219b4584bc95481d",
      "assetIds": []
    },
    {
      "x": 349,
      "y": 261,
      "size": 1,
      "price": "1011000000000000000000",
      "reserved": "",
      "salt": "0xecc1feef7bb64ad563cb38c8587a2c4d96f173accf639fc3aace5e934508b67d",
      "assetIds": []
    },
    {
      "x": 349,
      "y": 262,
      "size": 1,
      "price": "1011000000000000000000",
      "reserved": "",
      "salt": "0xe34dabb710fc7bfeae43259ba2b709c3b6f338e7969057054bf486b4af0bd00f",
      "assetIds": []
    },
    {
      "x": 349,
      "y": 263,
      "size": 1,
      "price": "1011000000000000000000",
      "reserved": "",
      "salt": "0xf127ae0a24c3c07a639b7728e386fb687180654cd96527c1a1935280f1ac87fa",
      "assetIds": []
    },
    {
      "x": 349,
      "y": 300,
      "size": 1,
      "price": "1011000000000000000000",
      "reserved": "",
      "salt": "0x6aa1fad03f8af0648b17845f8014d44cadbe0998c6550c46762aaece490b4061",
      "assetIds": []
    },
    {
      "x": 349,
      "y": 301,
      "size": 1,
      "price": "1011000000000000000000",
      "reserved": "",
      "salt": "0xf7a3f6af8f9ffffe890e1ccf44de5c0d2e0fafee365037e84071a7a80b3f7175",
      "assetIds": []
    },
    {
      "x": 349,
      "y": 302,
      "size": 1,
      "price": "1011000000000000000000",
      "reserved": "",
      "salt": "0x91af8f1fa62f9cae152b424a35879934cd15479fde6ffc1ca43eeab10199cd2f",
      "assetIds": []
    },
    {
      "x": 349,
      "y": 303,
      "size": 1,
      "price": "1011000000000000000000",
      "reserved": "0x7a9fe22691c811ea339d9b73150e6911a5343dca",
      "salt": "0x2aafdac8e6fcd8caa2fde3d5bf7295e13f211182c7027730cfeb4fcea0c1e7e4",
      "assetIds": []
    },
    {
      "x": 349,
      "y": 304,
      "size": 1,
      "price": "1011000000000000000000",
      "reserved": "",
      "salt": "0xcb795af7385932e1f070c70feb3d5f662eac7cbe7137f2f03056d1c02860faaa",
      "assetIds": []
    },
    {
      "x": 349,
      "y": 305,
      "size": 1,
      "price": "1011000000000000000000",
      "reserved": "",
      "salt": "0x93fffe67fd9284b6681551f4b4d86a9d6cd40407ab242eb45b7b8ed9759e488a",
      "assetIds": []
    },
    {
      "x": 350,
      "y": 255,
      "size": 1,
      "price": "1011000000000000000000",
      "reserved": "",
      "salt": "0x9324a30eaf3a99349b6e0a5d30c9d326cfbb95bd190432bcac17807bfb1f1a46",
      "assetIds": []
    },
    {
      "x": 350,
      "y": 256,
      "size": 1,
      "price": "1011000000000000000000",
      "reserved": "",
      "salt": "0x3e46385650394fa5b1e5090609cbc62e238b669cebd00b37524e375c90ad20d3",
      "assetIds": []
    },
    {
      "x": 350,
      "y": 257,
      "size": 1,
      "price": "1011000000000000000000",
      "reserved": "",
      "salt": "0x40ab50134a39dc2d1b360f8a852496586042eb4f4086b12aac15d1e4e762f17b",
      "assetIds": []
    },
    {
      "x": 350,
      "y": 258,
      "size": 1,
      "price": "1011000000000000000000",
      "reserved": "",
      "salt": "0xac8a2b4a13242ecd801d9c65dc0fc800395a033296aafd9ba9d1d3f342d9bae8",
      "assetIds": []
    },
    {
      "x": 350,
      "y": 259,
      "size": 1,
      "price": "1011000000000000000000",
      "reserved": "",
      "salt": "0x23e2506d7a83e33bf80baa1e5156c4b8a145f700d89243bff166f4a476084bf4",
      "assetIds": []
    },
    {
      "x": 350,
      "y": 260,
      "size": 1,
      "price": "1011000000000000000000",
      "reserved": "",
      "salt": "0xa5475fcd8227f28907a93ccab5bf203a0821735f65ed9c0e397a903be7a450a0",
      "assetIds": []
    },
    {
      "x": 350,
      "y": 261,
      "size": 1,
      "price": "1011000000000000000000",
      "reserved": "",
      "salt": "0xbe40e2cd6ad17d271f827bb8ec4d1178605889bddfaf589a03ae181c00709af4",
      "assetIds": []
    },
    {
      "x": 350,
      "y": 262,
      "size": 1,
      "price": "1011000000000000000000",
      "reserved": "",
      "salt": "0x25f3d77582096c0d611023cde5ad9046423b0ce1e6a8759bc93498261946793c",
      "assetIds": []
    },
    {
      "x": 350,
      "y": 263,
      "size": 1,
      "price": "1011000000000000000000",
      "reserved": "",
      "salt": "0x0bf8db92fd0d9c5c8c943e238a724598cf3642d045a2caf39b1294a8fddb31de",
      "assetIds": []
    },
    {
      "x": 350,
      "y": 300,
      "size": 1,
      "price": "1011000000000000000000",
      "reserved": "",
      "salt": "0xd069542d27bad44b6192664f7343db55c29fdec881e58b7ab982d643ae7f0e40",
      "assetIds": []
    },
    {
      "x": 350,
      "y": 301,
      "size": 1,
      "price": "1011000000000000000000",
      "reserved": "",
      "salt": "0xc9d34a99adb9ccb28d80f221107540ff258665afbe7052ebf145adfe93a53c19",
      "assetIds": []
    },
    {
      "x": 350,
      "y": 302,
      "size": 1,
      "price": "1011000000000000000000",
      "reserved": "",
      "salt": "0xa5953f7a302f0b3ea27338d7db4b2aff24a8b32f03071d8d3b0febda1d018cd9",
      "assetIds": []
    },
    {
      "x": 350,
      "y": 303,
      "size": 1,
      "price": "1011000000000000000000",
      "reserved": "",
      "salt": "0x0eebbcbb5c8d35f1c8b3806456bfe910ea267183cc964c9b9c29e4484671ded9",
      "assetIds": []
    },
    {
      "x": 350,
      "y": 304,
      "size": 1,
      "price": "1011000000000000000000",
      "reserved": "",
      "salt": "0x3b56d66a92067477bb2c780065417eab8cd3aed178a86c765cc0717e72cbad0c",
      "assetIds": []
    },
    {
      "x": 350,
      "y": 305,
      "size": 1,
      "price": "1011000000000000000000",
      "reserved": "",
      "salt": "0x7323007cdfe26f16d75906dcb4e0d091e3b97ca6a09f50cedd082aa288ed7aa4",
      "assetIds": []
    },
    {
      "x": 351,
      "y": 252,
      "size": 1,
      "price": "1011000000000000000000",
      "reserved": "",
      "salt": "0x0dfe672a84184b5603f6fcf8b14b22414455efef380da0e7d11ff750ff618893",
      "assetIds": []
    },
    {
      "x": 351,
      "y": 253,
      "size": 1,
      "price": "1011000000000000000000",
      "reserved": "",
      "salt": "0xca5bd419c52fd04a8a089d368ac6b40ec9af92ce8327513e47bbba9f63d0121e",
      "assetIds": []
    },
    {
      "x": 351,
      "y": 254,
      "size": 1,
      "price": "1011000000000000000000",
      "reserved": "",
      "salt": "0x7019d0b348f91bba2457d556ed5358d5bb51e182b73946bf7cba33fe232d9db3",
      "assetIds": []
    },
    {
      "x": 351,
      "y": 255,
      "size": 1,
      "price": "1011000000000000000000",
      "reserved": "",
      "salt": "0x193b0d0a199a568a33ddd66974a61c3656b58b70cba950a3b6ca80e4e65419c6",
      "assetIds": []
    },
    {
      "x": 351,
      "y": 256,
      "size": 1,
      "price": "1011000000000000000000",
      "reserved": "",
      "salt": "0xaf82fd0e4c91df8581ebd5515b077ba11bd6c3b5d2e760a13c7655db1debd532",
      "assetIds": []
    },
    {
      "x": 351,
      "y": 257,
      "size": 1,
      "price": "1011000000000000000000",
      "reserved": "",
      "salt": "0xe1a8720999e02c974d25405bbb82d1a6161a6ef3f350bd34c30e566db870d456",
      "assetIds": []
    },
    {
      "x": 351,
      "y": 258,
      "size": 1,
      "price": "1011000000000000000000",
      "reserved": "",
      "salt": "0x7c8edb898038f29da02a22e7a7b51f1b5431aa46f08dd53798d1a359121b06d0",
      "assetIds": []
    },
    {
      "x": 351,
      "y": 259,
      "size": 1,
      "price": "1011000000000000000000",
      "reserved": "",
      "salt": "0x249d2f1ede3eb5f4ae3619b898dc159a5bda6f28bcb0d3032e1e3bbc0142dae8",
      "assetIds": []
    },
    {
      "x": 351,
      "y": 260,
      "size": 1,
      "price": "1011000000000000000000",
      "reserved": "",
      "salt": "0x818eb1679ef8677141e37c89d99646c7a59521306bc12739644e6adeb8242a62",
      "assetIds": []
    },
    {
      "x": 351,
      "y": 261,
      "size": 1,
      "price": "1011000000000000000000",
      "reserved": "",
      "salt": "0x36f44fc72f8b82c4af2f032a5bded510c97a0b79f42440de1ddc3c0ba7f9a48e",
      "assetIds": []
    },
    {
      "x": 351,
      "y": 262,
      "size": 1,
      "price": "1011000000000000000000",
      "reserved": "",
      "salt": "0x404b7ea983de28b4839314fa7fa856a4368aa9230897db45b976a4891f25090a",
      "assetIds": []
    },
    {
      "x": 351,
      "y": 263,
      "size": 1,
      "price": "1011000000000000000000",
      "reserved": "",
      "salt": "0x869135cd5e4cef30f9e6078047fed805ab3cc7198470dfc35a50bdd29f460f0a",
      "assetIds": []
    },
    {
      "x": 351,
      "y": 300,
      "size": 1,
      "price": "1011000000000000000000",
      "reserved": "",
      "salt": "0x1ba3ba5d99ab6e06b11b34a0e115b8d228bc631621a91e8c00af860fb3e0df1e",
      "assetIds": []
    },
    {
      "x": 351,
      "y": 301,
      "size": 1,
      "price": "1011000000000000000000",
      "reserved": "",
      "salt": "0x0cafd89059aeefdb99ff3fe754342bc15eb0637f950ca0ef992ec6769cc64d65",
      "assetIds": []
    },
    {
      "x": 351,
      "y": 302,
      "size": 1,
      "price": "1011000000000000000000",
      "reserved": "",
      "salt": "0x017b2a0120c9f856ee65f31be0835aa455a3848785ace741612b625411ba8add",
      "assetIds": []
    },
    {
      "x": 351,
      "y": 303,
      "size": 1,
      "price": "1011000000000000000000",
      "reserved": "",
      "salt": "0xdce42abb74de47687688b0a510b349c1eea4acf5f61ff3994f9894230bf7f8b8",
      "assetIds": []
    },
    {
      "x": 351,
      "y": 304,
      "size": 1,
      "price": "1011000000000000000000",
      "reserved": "",
      "salt": "0xdefcf005c6249d1d2bcce904693c155336f4aa4956a787a8cf93d135b3f50ab7",
      "assetIds": []
    },
    {
      "x": 351,
      "y": 305,
      "size": 1,
      "price": "1011000000000000000000",
      "reserved": "",
      "salt": "0x583e8c2d4ac2c8e8cd502011e5fae6c4f24544c2700756024d0d676fea97dee9",
      "assetIds": []
    },
    {
      "x": 352,
      "y": 252,
      "size": 1,
      "price": "1011000000000000000000",
      "reserved": "",
      "salt": "0x9d9bd9a797474ee41a5a0ad45cdfa2eb7d19f9ab68ab1de37bd7073c848c3931",
      "assetIds": []
    },
    {
      "x": 352,
      "y": 253,
      "size": 1,
      "price": "1011000000000000000000",
      "reserved": "",
      "salt": "0x130eb033d433b71438a49c646f119e52f542f883448ef4d5ad36b4230fc39e62",
      "assetIds": []
    },
    {
      "x": 352,
      "y": 254,
      "size": 1,
      "price": "1011000000000000000000",
      "reserved": "",
      "salt": "0x6f9fce673302a8ee3970a4249544810d0c620b002bbeeccecd5c49956a6d8012",
      "assetIds": []
    },
    {
      "x": 352,
      "y": 255,
      "size": 1,
      "price": "1011000000000000000000",
      "reserved": "",
      "salt": "0xc65f69c321060456df3d4a3d4ca79db968535172ae8fc43b1da4ad96d7bb9bf2",
      "assetIds": []
    },
    {
      "x": 352,
      "y": 256,
      "size": 1,
      "price": "1011000000000000000000",
      "reserved": "",
      "salt": "0xbc3385bc66e170690da17f5eb95a35528cf391f4f6a91a6a212d6f5567198dc1",
      "assetIds": []
    },
    {
      "x": 352,
      "y": 257,
      "size": 1,
      "price": "1011000000000000000000",
      "reserved": "",
      "salt": "0x30c94caa09042b0029d37ec033e2b1d6599fe3e235601a513f54f9001bba90cb",
      "assetIds": []
    },
    {
      "x": 352,
      "y": 258,
      "size": 1,
      "price": "1011000000000000000000",
      "reserved": "",
      "salt": "0xe00ee7843e6f1d8bfb57c2b654715d7276a208b4f657a6e4d1024740035c561c",
      "assetIds": []
    },
    {
      "x": 352,
      "y": 259,
      "size": 1,
      "price": "1011000000000000000000",
      "reserved": "",
      "salt": "0x62305ccf4dee4686f8a0e5b180982ed59668aa01e1d4d29f5ff8d1caf9bdecf4",
      "assetIds": []
    },
    {
      "x": 352,
      "y": 260,
      "size": 1,
      "price": "1011000000000000000000",
      "reserved": "",
      "salt": "0xe1daba091db9d22591dfe6f100f3f7c8e3c8b5fadf0297b1f0753df9fdeaabfa",
      "assetIds": []
    },
    {
      "x": 352,
      "y": 261,
      "size": 1,
      "price": "1011000000000000000000",
      "reserved": "",
      "salt": "0x6c645465bebb3c446776551f2d210d065e8110b3197b677f8b21a346c632f3e1",
      "assetIds": []
    },
    {
      "x": 352,
      "y": 262,
      "size": 1,
      "price": "1011000000000000000000",
      "reserved": "0x7a9fe22691c811ea339d9b73150e6911a5343dca",
      "salt": "0xc2f5a158b379fa7da3500628c58b48fb5fee31bb06099c78a801fc4b08e9876a",
      "assetIds": []
    },
    {
      "x": 352,
      "y": 263,
      "size": 1,
      "price": "1011000000000000000000",
      "reserved": "",
      "salt": "0x5f2a37e1991ba817f5880e5a3582755ec163e683ca5a4d2630e7ad4ea4cb2bf1",
      "assetIds": []
    },
    {
      "x": 352,
      "y": 300,
      "size": 1,
      "price": "1011000000000000000000",
      "reserved": "",
      "salt": "0x3e49062e0f88e5dd476bb891b1cb81f3e86a274a3d3107197403e385e95ab7ef",
      "assetIds": []
    },
    {
      "x": 352,
      "y": 301,
      "size": 1,
      "price": "1011000000000000000000",
      "reserved": "",
      "salt": "0x24e13366bdc99e51d28d4b4705c10b093484024575c5d568c854603e0b51d9e9",
      "assetIds": []
    },
    {
      "x": 352,
      "y": 302,
      "size": 1,
      "price": "1011000000000000000000",
      "reserved": "",
      "salt": "0x9474cfa6c7273dd7aab95d70c2993dea01f174361a7b8c8fdab938031f84510d",
      "assetIds": []
    },
    {
      "x": 352,
      "y": 303,
      "size": 1,
      "price": "1011000000000000000000",
      "reserved": "",
      "salt": "0x6b4b5824e0c09e375336d352af5c25fc8feb62cae40c81fb4be9ee36880b165e",
      "assetIds": []
    },
    {
      "x": 352,
      "y": 304,
      "size": 1,
      "price": "1011000000000000000000",
      "reserved": "",
      "salt": "0x4c63a1dc425a6b14ed6dedc6ec77d9af938b505731805737c29a9684eeeba44b",
      "assetIds": []
    },
    {
      "x": 352,
      "y": 305,
      "size": 1,
      "price": "1011000000000000000000",
      "reserved": "",
      "salt": "0x6080d44d141c2567d926d7e83ae60967b0ca33894ea7f37391d58b086741aea6",
      "assetIds": []
    },
    {
      "x": 353,
      "y": 252,
      "size": 1,
      "price": "1011000000000000000000",
      "reserved": "0x7a9fe22691c811ea339d9b73150e6911a5343dca",
      "salt": "0xf9cb0a5c53005013306b77b6b68924326f281c9cc01d0b1cfab2a74ff8d3d2d3",
      "assetIds": []
    },
    {
      "x": 353,
      "y": 253,
      "size": 1,
      "price": "1011000000000000000000",
      "reserved": "",
      "salt": "0xdf307cfcc16d41963853995f059ea9d2981c005605dea8e3017f022b2f35940c",
      "assetIds": []
    },
    {
      "x": 353,
      "y": 254,
      "size": 1,
      "price": "1011000000000000000000",
      "reserved": "",
      "salt": "0xf9111d9cd26cdb02813afbce9f4f459422450ebb9c458e8c2e2a899caf28f2b8",
      "assetIds": []
    },
    {
      "x": 353,
      "y": 255,
      "size": 1,
      "price": "1011000000000000000000",
      "reserved": "",
      "salt": "0x2ac6a36cf83a576a065bad5efd584b134f89bfee26f17ae219a9b8431a3c155b",
      "assetIds": []
    },
    {
      "x": 353,
      "y": 256,
      "size": 1,
      "price": "1011000000000000000000",
      "reserved": "",
      "salt": "0x324d23eccf5509124017b12cadc46fc76c5c611c3497c0969b4b0ac1aebcc048",
      "assetIds": []
    },
    {
      "x": 353,
      "y": 257,
      "size": 1,
      "price": "1011000000000000000000",
      "reserved": "",
      "salt": "0x2833708f5303aa0d516d78a4d6b1a258ccd0b08a566a43a190190260dc2fd47a",
      "assetIds": []
    },
    {
      "x": 353,
      "y": 258,
      "size": 1,
      "price": "1011000000000000000000",
      "reserved": "",
      "salt": "0x0db19c7284923eb2595b949dbbeddabc43c5f3b61cc4b05352a201332fd985da",
      "assetIds": []
    },
    {
      "x": 353,
      "y": 259,
      "size": 1,
      "price": "1011000000000000000000",
      "reserved": "",
      "salt": "0x9965cfa12d2c1320313d8239574959170c24e5eabc21bdebc9132aa3abc597de",
      "assetIds": []
    },
    {
      "x": 353,
      "y": 260,
      "size": 1,
      "price": "1011000000000000000000",
      "reserved": "",
      "salt": "0x15054be3febaf9f872a764318d5a2ed3a15352491d662637b1dbd8fed96ec679",
      "assetIds": []
    },
    {
      "x": 353,
      "y": 261,
      "size": 1,
      "price": "1011000000000000000000",
      "reserved": "",
      "salt": "0x473ea55b0b1ae811b12eecc859d3d01ff2f279c4c54778f35e24f034436a6403",
      "assetIds": []
    },
    {
      "x": 353,
      "y": 262,
      "size": 1,
      "price": "1011000000000000000000",
      "reserved": "",
      "salt": "0x29a19a41b307a94c3ef85b7b3afacf09bb64e48cd3800813c0ebdd32e6f1a345",
      "assetIds": []
    },
    {
      "x": 353,
      "y": 263,
      "size": 1,
      "price": "1011000000000000000000",
      "reserved": "",
      "salt": "0x51ad38f891e048842fa905cf7bfe41b6e6093bfa933873628adc8697d078460c",
      "assetIds": []
    },
    {
      "x": 353,
      "y": 300,
      "size": 1,
      "price": "1011000000000000000000",
      "reserved": "",
      "salt": "0x4dffa5604c9afc9edbcdb75c42652666c39565bfef3d3dafc4e1d6e9cfe31dac",
      "assetIds": []
    },
    {
      "x": 353,
      "y": 301,
      "size": 1,
      "price": "1011000000000000000000",
      "reserved": "",
      "salt": "0x2b11002f6fb038dc1089003d68dbb4cdd9f7e04a07db8406a2314547d99c1aef",
      "assetIds": []
    },
    {
      "x": 353,
      "y": 302,
      "size": 1,
      "price": "1011000000000000000000",
      "reserved": "",
      "salt": "0x9954c1b6371df2687e9a0e5ba8ef52dcafb1c09843ca068496c3df108b0ca444",
      "assetIds": []
    },
    {
      "x": 353,
      "y": 303,
      "size": 1,
      "price": "1011000000000000000000",
      "reserved": "",
      "salt": "0x4730396d4cfd5aa63077bd42dbdab0237651ec328a146d2e80bad8d80ebd5ebb",
      "assetIds": []
    },
    {
      "x": 353,
      "y": 304,
      "size": 1,
      "price": "1011000000000000000000",
      "reserved": "",
      "salt": "0x6e74c11d42c1f12b02fd94c02c7f81790d68b3b2804cfba73e137972b91b03b5",
      "assetIds": []
    },
    {
      "x": 353,
      "y": 305,
      "size": 1,
      "price": "1011000000000000000000",
      "reserved": "",
      "salt": "0xd8837f8829e9a8ab85353c8c8f11d8628aa91f4a0efd5bf66852d658a20f4d2a",
      "assetIds": []
    },
    {
      "x": 354,
      "y": 252,
      "size": 1,
      "price": "1011000000000000000000",
      "reserved": "",
      "salt": "0xe83696aa45f71ee102713fadaefc86ab86c68e85bef60c1fa0abcf591aa152ca",
      "assetIds": []
    },
    {
      "x": 354,
      "y": 253,
      "size": 1,
      "price": "1011000000000000000000",
      "reserved": "",
      "salt": "0x76b6b514ea5ab7fc2040d4ba18380fd28299a325754b712401bd883669154597",
      "assetIds": []
    },
    {
      "x": 354,
      "y": 254,
      "size": 1,
      "price": "1011000000000000000000",
      "reserved": "",
      "salt": "0x025847280005161f5f851487850ddef64ffe6799a0817ad42859d0e008f7c896",
      "assetIds": []
    },
    {
      "x": 354,
      "y": 255,
      "size": 1,
      "price": "1011000000000000000000",
      "reserved": "",
      "salt": "0x109d538adc3b02a0f93e65a26e4ee8c0bcba750f45c6afa0947e475759dda20b",
      "assetIds": []
    },
    {
      "x": 354,
      "y": 256,
      "size": 1,
      "price": "1011000000000000000000",
      "reserved": "",
      "salt": "0x5569c4f59f99a6d2e99b6add592373094f7517fd04c78842909bfc817f702082",
      "assetIds": []
    },
    {
      "x": 354,
      "y": 257,
      "size": 1,
      "price": "1011000000000000000000",
      "reserved": "",
      "salt": "0x372f1a5b832b62959eb67dc752301ec84319ac3aede25832955fb226ae7915e1",
      "assetIds": []
    },
    {
      "x": 354,
      "y": 300,
      "size": 1,
      "price": "1011000000000000000000",
      "reserved": "",
      "salt": "0xc8af249fad74208e80ba70dadd4f9ef020a2c1c3db5c6c78cfd8e8a88745cc2d",
      "assetIds": []
    },
    {
      "x": 354,
      "y": 301,
      "size": 1,
      "price": "1011000000000000000000",
      "reserved": "",
      "salt": "0x5ec346667425357193af1be64ca72cd1e94affcb8357eb87f13cc800ffd0eef5",
      "assetIds": []
    },
    {
      "x": 354,
      "y": 302,
      "size": 1,
      "price": "1011000000000000000000",
      "reserved": "",
      "salt": "0xb74498e89af543c7ae97b374fcca440ffad7ef84dd72ec222a89046022c24695",
      "assetIds": []
    },
    {
      "x": 354,
      "y": 303,
      "size": 1,
      "price": "1011000000000000000000",
      "reserved": "",
      "salt": "0x1b3f1c11d1591ac0d53518c0d55cb7ca54b13e2853adf418811cc5a02a1085d2",
      "assetIds": []
    },
    {
      "x": 354,
      "y": 304,
      "size": 1,
      "price": "1011000000000000000000",
      "reserved": "",
      "salt": "0xde93cd858caa1947b6149bc2510cd2db36f379b9fb6dfcbd59c1b938c90e6891",
      "assetIds": []
    },
    {
      "x": 354,
      "y": 305,
      "size": 1,
      "price": "1011000000000000000000",
      "reserved": "",
      "salt": "0xbe0bbb565972a78a648c936f83f63b333ac02b02f23ea97d585db3164d333332",
      "assetIds": []
    },
    {
      "x": 354,
      "y": 306,
      "size": 1,
      "price": "1011000000000000000000",
      "reserved": "",
      "salt": "0x3d5240bc124fd405984f19dcf6de783b2ba1dbc1a5526aa3dbe7cd7a27e9392b",
      "assetIds": []
    },
    {
      "x": 354,
      "y": 307,
      "size": 1,
      "price": "1011000000000000000000",
      "reserved": "",
      "salt": "0x310a9da8b489b0c0d801de5eace64982734918097e65a73ec22dc25cc7131884",
      "assetIds": []
    },
    {
      "x": 354,
      "y": 308,
      "size": 1,
      "price": "1011000000000000000000",
      "reserved": "",
      "salt": "0xb4ca3a2d9a94f9d24eaf1697606bc05fe6a0b9c48054172da59b079ab0764702",
      "assetIds": []
    },
    {
      "x": 354,
      "y": 309,
      "size": 1,
      "price": "1011000000000000000000",
      "reserved": "",
      "salt": "0xccf03711549c5601d33a3e0ff4319e687b6c6fb88a1dd19347356dc8f01dd2f7",
      "assetIds": []
    },
    {
      "x": 354,
      "y": 310,
      "size": 1,
      "price": "1011000000000000000000",
      "reserved": "",
      "salt": "0xd96fb5edc6f433fba483a1d1e95a3bc5f27efb042a1b60e224996af2e31ab6bb",
      "assetIds": []
    },
    {
      "x": 354,
      "y": 311,
      "size": 1,
      "price": "1011000000000000000000",
      "reserved": "",
      "salt": "0xecf4d398ea2b22df4938198104cb38a3ec8b5c4fdb9986f8664a2d08c27e1bae",
      "assetIds": []
    },
    {
      "x": 355,
      "y": 252,
      "size": 1,
      "price": "1011000000000000000000",
      "reserved": "",
      "salt": "0x669ee40f9440f84c2265ef1a264c4162f72fc51263b1403bb74319cb5e4df8a6",
      "assetIds": []
    },
    {
      "x": 355,
      "y": 253,
      "size": 1,
      "price": "1011000000000000000000",
      "reserved": "",
      "salt": "0xc05855b73a8d3494f6b70d4bcbd3038c4fec7f0a8a3bcb4d7c2ac7d6453a177c",
      "assetIds": []
    },
    {
      "x": 355,
      "y": 254,
      "size": 1,
      "price": "1011000000000000000000",
      "reserved": "",
      "salt": "0xf5b91ab85830e52347bf6b2cdd755d1d90211de2c36056ad5dff9d2702c74ceb",
      "assetIds": []
    },
    {
      "x": 355,
      "y": 255,
      "size": 1,
      "price": "1011000000000000000000",
      "reserved": "",
      "salt": "0xf7db7105186db71a7eece18f6622ace9cc0763e8e2d0ca22ba648f6b6106f958",
      "assetIds": []
    },
    {
      "x": 355,
      "y": 256,
      "size": 1,
      "price": "1011000000000000000000",
      "reserved": "",
      "salt": "0xdc1e0619baabb72aa0b6258358ab7bf6a28f5dfccb216c91c17724a0836a6bfa",
      "assetIds": []
    },
    {
      "x": 355,
      "y": 257,
      "size": 1,
      "price": "1011000000000000000000",
      "reserved": "",
      "salt": "0xd100388a939a7f56a9500f07095b3e3acc85ec732000e1564a82b2d298c5b6ad",
      "assetIds": []
    },
    {
      "x": 355,
      "y": 300,
      "size": 1,
      "price": "1011000000000000000000",
      "reserved": "",
      "salt": "0xb93495ec83c9c15ec73e6301c1d11c9853504c2d0881720a5f235864b9f3ffff",
      "assetIds": []
    },
    {
      "x": 355,
      "y": 301,
      "size": 1,
      "price": "1011000000000000000000",
      "reserved": "",
      "salt": "0xd0190c25df7b2e61134ace9e7b3a765abe6d4f54b1194b25f9a1490430f93dd4",
      "assetIds": []
    },
    {
      "x": 355,
      "y": 302,
      "size": 1,
      "price": "1011000000000000000000",
      "reserved": "",
      "salt": "0xefc12ae8db969ac1b37703c8538a2d8526cb0723cc05299e68d81e2c3fbbc71f",
      "assetIds": []
    },
    {
      "x": 355,
      "y": 303,
      "size": 1,
      "price": "1011000000000000000000",
      "reserved": "",
      "salt": "0x6bd48732dd69d538286e55ed46f72c2f65757db6099f8b040f2c0909b5a61504",
      "assetIds": []
    },
    {
      "x": 355,
      "y": 304,
      "size": 1,
      "price": "1011000000000000000000",
      "reserved": "",
      "salt": "0xbbf8da8201807f6044998878974b840cf26f7875eda7c95c8fd2d103c140fb59",
      "assetIds": []
    },
    {
      "x": 355,
      "y": 305,
      "size": 1,
      "price": "1011000000000000000000",
      "reserved": "0x7a9fe22691c811ea339d9b73150e6911a5343dca",
      "salt": "0x6911ebbfd850701faeef73aad1d2ac1796ca4e2f09488e8d9093a5e94879a001",
      "assetIds": []
    },
    {
      "x": 355,
      "y": 306,
      "size": 1,
      "price": "1011000000000000000000",
      "reserved": "",
      "salt": "0x175b31540fd6556bd77f2edf1323beb31874071d962bbccc9822c454b8bb0b33",
      "assetIds": []
    },
    {
      "x": 355,
      "y": 307,
      "size": 1,
      "price": "1011000000000000000000",
      "reserved": "",
      "salt": "0x38088f656dba2f34c31df015758e628bbe2454107b82e311ed4e21a1e2234376",
      "assetIds": []
    },
    {
      "x": 355,
      "y": 308,
      "size": 1,
      "price": "1011000000000000000000",
      "reserved": "",
      "salt": "0xf6473f4318de6a84334d1e548318d855e735dea558ffa062bc9150566124d4fe",
      "assetIds": []
    },
    {
      "x": 355,
      "y": 309,
      "size": 1,
      "price": "1011000000000000000000",
      "reserved": "",
      "salt": "0x6a9e51979660684aa3644e4fb562ae0a0ee762f42c3271e6b2e171bc2f13d777",
      "assetIds": []
    },
    {
      "x": 355,
      "y": 310,
      "size": 1,
      "price": "1011000000000000000000",
      "reserved": "",
      "salt": "0xb872e5780354f2ddf147a6511b33fa598e43c4c5b5edbedddd0e62d963ecfcbc",
      "assetIds": []
    },
    {
      "x": 355,
      "y": 311,
      "size": 1,
      "price": "1011000000000000000000",
      "reserved": "",
      "salt": "0x2b3d88432b2bb549841f7fd8cffa459ae8b876a5512150cae9d6817f9a41effb",
      "assetIds": []
    },
    {
      "x": 356,
      "y": 252,
      "size": 1,
      "price": "1011000000000000000000",
      "reserved": "",
      "salt": "0xd5519580812efa5a4c0b3b1bfbd3e016abdb63cc1aa18e31024ec6e1e7ad7dd6",
      "assetIds": []
    },
    {
      "x": 356,
      "y": 253,
      "size": 1,
      "price": "1011000000000000000000",
      "reserved": "",
      "salt": "0x9826f77153038021c5f8fa0957fd71fab92d67135e9af6751d2a1e4af74bafb7",
      "assetIds": []
    },
    {
      "x": 356,
      "y": 254,
      "size": 1,
      "price": "1011000000000000000000",
      "reserved": "",
      "salt": "0xeb7ca711cd845100d9f8d51dc0769b3390da13463d79aaa27a2eae1ccba0d180",
      "assetIds": []
    },
    {
      "x": 356,
      "y": 255,
      "size": 1,
      "price": "1011000000000000000000",
      "reserved": "",
      "salt": "0xf405d75255e154ee5c9dc08ceeb2ce053a96ddc777867bebb868b18e852d05e7",
      "assetIds": []
    },
    {
      "x": 356,
      "y": 256,
      "size": 1,
      "price": "1011000000000000000000",
      "reserved": "",
      "salt": "0x89fdedefd64d2d7ce13bc4c406adfc91fac12c5a741c97dc498e323aa33b4227",
      "assetIds": []
    },
    {
      "x": 356,
      "y": 257,
      "size": 1,
      "price": "1011000000000000000000",
      "reserved": "",
      "salt": "0xeac7e9dea89ddb4909897c1b50505aaa4c3ac71e56009548c4b753bb3cdd4c06",
      "assetIds": []
    },
    {
      "x": 356,
      "y": 300,
      "size": 1,
      "price": "1011000000000000000000",
      "reserved": "",
      "salt": "0x08347840eee53fafb1df93ee468665b9eaeb29cca0355c2712b299154ed5f11a",
      "assetIds": []
    },
    {
      "x": 356,
      "y": 301,
      "size": 1,
      "price": "1011000000000000000000",
      "reserved": "",
      "salt": "0xc444e3d546888fd73bae398aa4d9d6c2418491b4bbc183dd550d647d32f6578e",
      "assetIds": []
    },
    {
      "x": 356,
      "y": 302,
      "size": 1,
      "price": "1011000000000000000000",
      "reserved": "",
      "salt": "0xa0203e63cb2ca4d5804519e5db13adcd3eafde7607daab1111ca35f3035dd115",
      "assetIds": []
    },
    {
      "x": 356,
      "y": 303,
      "size": 1,
      "price": "1011000000000000000000",
      "reserved": "",
      "salt": "0xe2a94d68158430de26c73db4737ee77e537c2e3276c995b8cb9428c08f3b07b2",
      "assetIds": []
    },
    {
      "x": 356,
      "y": 304,
      "size": 1,
      "price": "1011000000000000000000",
      "reserved": "",
      "salt": "0xfd94003dac4bf912b4b9a41aad5e38397c6bbbaa68ed0ec2702928142d58e834",
      "assetIds": []
    },
    {
      "x": 356,
      "y": 305,
      "size": 1,
      "price": "1011000000000000000000",
      "reserved": "",
      "salt": "0x0e0fee28e20afe7bc8411edfe8eb7b43613165fcde411c9e0b8165ae2dbb5648",
      "assetIds": []
    },
    {
      "x": 356,
      "y": 306,
      "size": 1,
      "price": "1011000000000000000000",
      "reserved": "",
      "salt": "0xa37cfdbc79f8811cb2a593f94d7dfa5a00ac8aa3edc29169e247c1b7039fd8d2",
      "assetIds": []
    },
    {
      "x": 356,
      "y": 307,
      "size": 1,
      "price": "1011000000000000000000",
      "reserved": "",
      "salt": "0x8d9e489432f87571be6f07fb871401e9db65c954bcd4e2d4d3cea2766ac9d32a",
      "assetIds": []
    },
    {
      "x": 356,
      "y": 308,
      "size": 1,
      "price": "1011000000000000000000",
      "reserved": "",
      "salt": "0x5467f898beb7a8d87f93f522fea63959cf0ab37994cddcf7d00a3270a59ba14f",
      "assetIds": []
    },
    {
      "x": 356,
      "y": 309,
      "size": 1,
      "price": "1011000000000000000000",
      "reserved": "",
      "salt": "0xa30fdda5aa975a679fc003469ccd087081694068b075941ab4cfbcf832dea7dd",
      "assetIds": []
    },
    {
      "x": 356,
      "y": 310,
      "size": 1,
      "price": "1011000000000000000000",
      "reserved": "",
      "salt": "0x911c940a411c64cbadc6230cde89e114ab437082bed551e43d5b38fca1c000b9",
      "assetIds": []
    },
    {
      "x": 356,
      "y": 311,
      "size": 1,
      "price": "1011000000000000000000",
      "reserved": "",
      "salt": "0xa1fd4ef6c507cd4b83cb3f161ab0d8379a5232fadc4e5aead6f0a5094a073741",
      "assetIds": []
    },
    {
      "x": 357,
      "y": 252,
      "size": 1,
      "price": "1011000000000000000000",
      "reserved": "",
      "salt": "0x15d1a9a281f05321b0983a9f04284b310e963f2937ad29813783b23e107717fd",
      "assetIds": []
    },
    {
      "x": 357,
      "y": 253,
      "size": 1,
      "price": "1011000000000000000000",
      "reserved": "",
      "salt": "0xf414df8ab41e0f9b2bda883efe1a0e18b3a8aafffa4d706e7f9afe9d61f4e8da",
      "assetIds": []
    },
    {
      "x": 357,
      "y": 254,
      "size": 1,
      "price": "1011000000000000000000",
      "reserved": "",
      "salt": "0xaa4ff15c3a895984a7c871fd37819992b8da997c410fbaa46e7999e80c41f5f8",
      "assetIds": []
    },
    {
      "x": 357,
      "y": 255,
      "size": 1,
      "price": "1011000000000000000000",
      "reserved": "",
      "salt": "0x4115d3ef47c871f01426e2cb09578503c226ce852118c2b358f41734afa088d0",
      "assetIds": []
    },
    {
      "x": 357,
      "y": 256,
      "size": 1,
      "price": "1011000000000000000000",
      "reserved": "",
      "salt": "0x3504206a132ad79bc5687ef81401505b63855d6189a8488cd13166164fe5ec3b",
      "assetIds": []
    },
    {
      "x": 357,
      "y": 257,
      "size": 1,
      "price": "1011000000000000000000",
      "reserved": "",
      "salt": "0xa0fd4224e467304d7af02e7c9c23791cb76d25a9d769171175a46cacb41bfd1e",
      "assetIds": []
    },
    {
      "x": 357,
      "y": 300,
      "size": 1,
      "price": "1011000000000000000000",
      "reserved": "",
      "salt": "0x8d70931711313f3e0677a6a4accd917415394a87d1990040f111fcf9f8358767",
      "assetIds": []
    },
    {
      "x": 357,
      "y": 301,
      "size": 1,
      "price": "1011000000000000000000",
      "reserved": "",
      "salt": "0x9d60a890043fcee6625c4d474306271931e11e838dede71d3d1cb74e1ec2e772",
      "assetIds": []
    },
    {
      "x": 357,
      "y": 302,
      "size": 1,
      "price": "1011000000000000000000",
      "reserved": "",
      "salt": "0x3efb1f6cc53df8daa0f160fb633989f6b0c4e1b6aa54558d2ea66b93163e3bf8",
      "assetIds": []
    },
    {
      "x": 357,
      "y": 306,
      "size": 1,
      "price": "1011000000000000000000",
      "reserved": "",
      "salt": "0x1208070e51d01e0de48113e0d923333c6eba27a7c19b5ae8606c358a47e19f02",
      "assetIds": []
    },
    {
      "x": 357,
      "y": 307,
      "size": 1,
      "price": "1011000000000000000000",
      "reserved": "",
      "salt": "0xcf3e38e92e5b096e81a97cba7c7bcdca3866d75daca9196a9940995a1a1a2da3",
      "assetIds": []
    },
    {
      "x": 357,
      "y": 308,
      "size": 1,
      "price": "1011000000000000000000",
      "reserved": "",
      "salt": "0xab82cfee1233eec775c92f03d0b9ad1c06dbb779df3322f79b6cadfc3a9d1bbd",
      "assetIds": []
    },
    {
      "x": 358,
      "y": 252,
      "size": 1,
      "price": "1011000000000000000000",
      "reserved": "",
      "salt": "0xe6bb4727ff7aaeaf32b959526e4f14f1e3e960e8bba3152a7e65b7e48908200e",
      "assetIds": []
    },
    {
      "x": 358,
      "y": 253,
      "size": 1,
      "price": "1011000000000000000000",
      "reserved": "",
      "salt": "0x9d3dcc11ef8d45276b3c3f55e5e12b1360672acee4d880066c21592367e132b6",
      "assetIds": []
    },
    {
      "x": 358,
      "y": 254,
      "size": 1,
      "price": "1011000000000000000000",
      "reserved": "0x7a9fe22691c811ea339d9b73150e6911a5343dca",
      "salt": "0xab6ad7c271d78a4074a1073911b86fe40ea52ee84841059b8df5a96cebf5238d",
      "assetIds": []
    },
    {
      "x": 358,
      "y": 255,
      "size": 1,
      "price": "1011000000000000000000",
      "reserved": "",
      "salt": "0x2fe12a2b80e82db9cc8a07a92a99139da591845ef2e6301e4420c468622dff0e",
      "assetIds": []
    },
    {
      "x": 358,
      "y": 256,
      "size": 1,
      "price": "1011000000000000000000",
      "reserved": "",
      "salt": "0xcce13f42117105ad720d50b7ba919c6090600389729ce78f8b872087461b0001",
      "assetIds": []
    },
    {
      "x": 358,
      "y": 257,
      "size": 1,
      "price": "1011000000000000000000",
      "reserved": "",
      "salt": "0xc826f6c8455d5c3bddf0c231de11bf07a097393b3bbf5e888359682986535fb8",
      "assetIds": []
    },
    {
      "x": 358,
      "y": 300,
      "size": 1,
      "price": "1011000000000000000000",
      "reserved": "",
      "salt": "0x1a553e20e710ffb4c67c0f666e8c9d10bbfbc3832bffdc01fc121ababdad54fd",
      "assetIds": []
    },
    {
      "x": 358,
      "y": 301,
      "size": 1,
      "price": "1011000000000000000000",
      "reserved": "",
      "salt": "0x5a1a181aedc0e96d35075d188edb6f6ce7535853932094dfc477f4b7578fe124",
      "assetIds": []
    },
    {
      "x": 358,
      "y": 302,
      "size": 1,
      "price": "1011000000000000000000",
      "reserved": "",
      "salt": "0x0933c1d8c2f365a1e78ebc2100334189597fade5987c0055e12cb8eb4e27a75e",
      "assetIds": []
    },
    {
      "x": 358,
      "y": 306,
      "size": 1,
      "price": "1011000000000000000000",
      "reserved": "",
      "salt": "0x9b2104b58e0f85915e0c6b4e5b538ae439faec4c12941afe36b56fa9b92cc3d4",
      "assetIds": []
    },
    {
      "x": 358,
      "y": 307,
      "size": 1,
      "price": "1011000000000000000000",
      "reserved": "",
      "salt": "0x28409a2d820e73979de7706acf43f9477fc105ddcbbf8d9b7f7bf52b6991bcce",
      "assetIds": []
    },
    {
      "x": 358,
      "y": 308,
      "size": 1,
      "price": "1011000000000000000000",
      "reserved": "",
      "salt": "0x4500d177cee5beea2eeb2c80ed8c2deab3935b4067b794f7da8eec6f40cea98f",
      "assetIds": []
    },
    {
      "x": 359,
      "y": 252,
      "size": 1,
      "price": "1011000000000000000000",
      "reserved": "",
      "salt": "0x31323f049c8154811ff73da005852c73441fda03dc886eed9ab97720addbaffa",
      "assetIds": []
    },
    {
      "x": 359,
      "y": 253,
      "size": 1,
      "price": "1011000000000000000000",
      "reserved": "",
      "salt": "0x537045cc16b9a1de729477cde51ef77d098854c8741da71e2c3b4cda56672dfb",
      "assetIds": []
    },
    {
      "x": 359,
      "y": 254,
      "size": 1,
      "price": "1011000000000000000000",
      "reserved": "",
      "salt": "0x692da7c610816741fda4e7457ecbfbd7cb7a84b002f29df50b42c17a547862a1",
      "assetIds": []
    },
    {
      "x": 359,
      "y": 255,
      "size": 1,
      "price": "1011000000000000000000",
      "reserved": "",
      "salt": "0x5fe01179786db8d93811c31dc4d938c4657a9c4d07710f53e2fa9d3f44146004",
      "assetIds": []
    },
    {
      "x": 359,
      "y": 256,
      "size": 1,
      "price": "1011000000000000000000",
      "reserved": "",
      "salt": "0xd1b611838f820c5cd6e2d5b4d1731fd148a5e501a216c276ebed2f7a500342ff",
      "assetIds": []
    },
    {
      "x": 359,
      "y": 257,
      "size": 1,
      "price": "1011000000000000000000",
      "reserved": "",
      "salt": "0xb3d905171ef7988f23c17ecfe99f2d87b1ec8af1afc8043fceb0ff0b1d9bcd10",
      "assetIds": []
    },
    {
      "x": 359,
      "y": 300,
      "size": 1,
      "price": "1011000000000000000000",
      "reserved": "",
      "salt": "0x1776010480d22ced87d573df535c53b904a7b32eb97aaa9df48fb3bdfcb15631",
      "assetIds": []
    },
    {
      "x": 359,
      "y": 301,
      "size": 1,
      "price": "1011000000000000000000",
      "reserved": "",
      "salt": "0x966b205a012c6b33e0720981171cf239ba4a9018dd080470b1a2081a15434d45",
      "assetIds": []
    },
    {
      "x": 359,
      "y": 302,
      "size": 1,
      "price": "1011000000000000000000",
      "reserved": "",
      "salt": "0xc05ae6d827212ae342c879cadd29dd2ecbade4b34f58345061d54969925c4568",
      "assetIds": []
    },
    {
      "x": 359,
      "y": 306,
      "size": 1,
      "price": "1011000000000000000000",
      "reserved": "",
      "salt": "0xe95121127e2f28b5a18997fc437ef4e44c95ce02ddbbe7ed5704b1a4e24d9daa",
      "assetIds": []
    },
    {
      "x": 359,
      "y": 307,
      "size": 1,
      "price": "1011000000000000000000",
      "reserved": "",
      "salt": "0xb389d145ad0c9fc8bd8de4ae3b754412047feceef9446c5d1597e7ea27097773",
      "assetIds": []
    },
    {
      "x": 359,
      "y": 308,
      "size": 1,
      "price": "1011000000000000000000",
      "reserved": "",
      "salt": "0x6e18bd0a1dd2ef2904c6c8d4bb5a2ff0e2ad87d5b4317b5902f836481ac7eafe",
      "assetIds": []
    },
    {
      "x": 360,
      "y": 270,
      "size": 1,
      "price": "1011000000000000000000",
      "reserved": "",
      "salt": "0xba14f6a3743a05f973094d879a4d0724501f50cc535a8d3cc1909010c5e33130",
      "assetIds": []
    },
    {
      "x": 360,
      "y": 271,
      "size": 1,
      "price": "1011000000000000000000",
      "reserved": "",
      "salt": "0xd8a233fb630db14e465909d992f699d7f881f80b4bef5596a054ba28f83884b2",
      "assetIds": []
    },
    {
      "x": 360,
      "y": 272,
      "size": 1,
      "price": "1011000000000000000000",
      "reserved": "",
      "salt": "0xc085baea07be5d3aeb3855a6abeaa78fc000b402fba242fd7217d6b6639713ac",
      "assetIds": []
    },
    {
      "x": 360,
      "y": 288,
      "size": 1,
      "price": "1011000000000000000000",
      "reserved": "",
      "salt": "0x4b3179df1fcbdfa01564cc6fd4e9bf6a53223fbaedfeb713c3e8e4fa4c959be1",
      "assetIds": []
    },
    {
      "x": 360,
      "y": 289,
      "size": 1,
      "price": "1011000000000000000000",
      "reserved": "",
      "salt": "0xa604af3bbf1ee4d0089f3b9edb180322236113fe1cc3f37aeaac62642063427f",
      "assetIds": []
    },
    {
      "x": 360,
      "y": 290,
      "size": 1,
      "price": "1011000000000000000000",
      "reserved": "",
      "salt": "0xdc79b8992d51dc296b00e0ce0e9de9db76cb1379b6a52662cd947dff0dfeb85a",
      "assetIds": []
    },
    {
      "x": 360,
      "y": 291,
      "size": 1,
      "price": "1011000000000000000000",
      "reserved": "",
      "salt": "0x6ccd0dfb7b308f4346fbd575f0a9e691aa93f6bad7c3738c0c5f2e0897c90ee1",
      "assetIds": []
    },
    {
      "x": 360,
      "y": 292,
      "size": 1,
      "price": "1011000000000000000000",
      "reserved": "",
      "salt": "0xdc90a26bb46801dab7c8f73692967de07eeb7830b9c980c902cc0e728f5e1d1d",
      "assetIds": []
    },
    {
      "x": 360,
      "y": 293,
      "size": 1,
      "price": "1011000000000000000000",
      "reserved": "",
      "salt": "0x5bd3bd031c8179528602d5ff9360f42bd8cd638eafccd04ecd613f077b2eb5e8",
      "assetIds": []
    },
    {
      "x": 360,
      "y": 297,
      "size": 1,
      "price": "1011000000000000000000",
      "reserved": "",
      "salt": "0xe17c8b3195af11d456bb13e2a4f7b90f92b9aa61a743be20a0aca6c189cbe1cd",
      "assetIds": []
    },
    {
      "x": 360,
      "y": 298,
      "size": 1,
      "price": "1011000000000000000000",
      "reserved": "",
      "salt": "0xafb58608abfc1497fa4237e4a645f31cdf595e7658c40b1d2b6a35ee08ad2002",
      "assetIds": []
    },
    {
      "x": 360,
      "y": 299,
      "size": 1,
      "price": "1011000000000000000000",
      "reserved": "",
      "salt": "0x2b7e1f1a3971096cd5c94098f69268fe1788daeb95371cd0358f93d5d56b9da6",
      "assetIds": []
    },
    {
      "x": 360,
      "y": 300,
      "size": 1,
      "price": "1011000000000000000000",
      "reserved": "",
      "salt": "0x1527e1e9ef1ca3428548ad164dc41caefc702b46140cb8230126ca574a794a15",
      "assetIds": []
    },
    {
      "x": 360,
      "y": 301,
      "size": 1,
      "price": "1011000000000000000000",
      "reserved": "",
      "salt": "0xbdac3f247ac0643efa8b1bee1e4013230ca05a4a5be6c015d151a8eceb606c00",
      "assetIds": []
    },
    {
      "x": 360,
      "y": 302,
      "size": 1,
      "price": "1011000000000000000000",
      "reserved": "",
      "salt": "0xce6baa41f35e0164bad3169ca812a2a7091cdc23ee71b006856d649ba7d0de3c",
      "assetIds": []
    },
    {
      "x": 360,
      "y": 303,
      "size": 1,
      "price": "1011000000000000000000",
      "reserved": "",
      "salt": "0x4aa57cb9183233216cc36cc36467a457cc41657985f907e7fbf50a11e34e1b74",
      "assetIds": []
    },
    {
      "x": 360,
      "y": 304,
      "size": 1,
      "price": "1011000000000000000000",
      "reserved": "",
      "salt": "0xfee45d8e801c9c1e4befcea9439d6d72015d048f9becce3fb70993b418174014",
      "assetIds": []
    },
    {
      "x": 360,
      "y": 305,
      "size": 1,
      "price": "1011000000000000000000",
      "reserved": "",
      "salt": "0x83858b02797e12f8f661ca97804ff740362f3edd0b02da743162b112b48c9b40",
      "assetIds": []
    },
    {
      "x": 360,
      "y": 306,
      "size": 1,
      "price": "1011000000000000000000",
      "reserved": "",
      "salt": "0x3e484f3eef4b10b7757b0b94720309a324774b8b62b4b8d24c3136d27b682860",
      "assetIds": []
    },
    {
      "x": 360,
      "y": 307,
      "size": 1,
      "price": "1011000000000000000000",
      "reserved": "",
      "salt": "0x259994155f9803006e6dad5917c3c67c91cbe6bdb896728b3cdbd01e2241c488",
      "assetIds": []
    },
    {
      "x": 360,
      "y": 308,
      "size": 1,
      "price": "1011000000000000000000",
      "reserved": "",
      "salt": "0x2ab34a760e04a4ee644803fb1c04335fbb7e06918c1513f1d939e18971af3a18",
      "assetIds": []
    },
    {
      "x": 361,
      "y": 270,
      "size": 1,
      "price": "1011000000000000000000",
      "reserved": "",
      "salt": "0x99a5f1618693195432500aaa3fd3ae6c40ed2112d0e9c9cfee2742c39fb32e43",
      "assetIds": []
    },
    {
      "x": 361,
      "y": 271,
      "size": 1,
      "price": "1011000000000000000000",
      "reserved": "",
      "salt": "0xb5eac7a476b1bcb90af9f78c2913177182d388692c68c1b922053b543c424571",
      "assetIds": []
    },
    {
      "x": 361,
      "y": 272,
      "size": 1,
      "price": "1011000000000000000000",
      "reserved": "",
      "salt": "0xa2d62f20763b72f846137b1edb9a86873a48855ef52342c4ec331d175a146494",
      "assetIds": []
    },
    {
      "x": 361,
      "y": 288,
      "size": 1,
      "price": "1011000000000000000000",
      "reserved": "",
      "salt": "0xe348c392e5d167c545c0cfb1a38ae9e65d7528d3904e8733f6e28e96bc9816e4",
      "assetIds": []
    },
    {
      "x": 361,
      "y": 289,
      "size": 1,
      "price": "1011000000000000000000",
      "reserved": "",
      "salt": "0x5b12cc9d1811db38506253e07e69577ebda3b43ab2930342689b35a0684df4cb",
      "assetIds": []
    },
    {
      "x": 361,
      "y": 290,
      "size": 1,
      "price": "1011000000000000000000",
      "reserved": "",
      "salt": "0xa83188ecb495917b9f4c5c44a75f81544210ee2dc02c8e2e7a790de088f8a87a",
      "assetIds": []
    },
    {
      "x": 361,
      "y": 291,
      "size": 1,
      "price": "1011000000000000000000",
      "reserved": "",
      "salt": "0x1ffe448d41793bdc8245eb86af470e3f214bf58cb601f91adacceb015f061f3f",
      "assetIds": []
    },
    {
      "x": 361,
      "y": 292,
      "size": 1,
      "price": "1011000000000000000000",
      "reserved": "",
      "salt": "0x97b650f8024f3ab3ae8bf56cdeccd6731bb47cd20031c9287614aed683a00323",
      "assetIds": []
    },
    {
      "x": 361,
      "y": 293,
      "size": 1,
      "price": "1011000000000000000000",
      "reserved": "",
      "salt": "0xa036cf46dbb239186ab134190be5e8b0090b8d323aa6e78741c5f962505b553d",
      "assetIds": []
    },
    {
      "x": 361,
      "y": 297,
      "size": 1,
      "price": "1011000000000000000000",
      "reserved": "",
      "salt": "0xcfed38ac07d6e4064086b08e668325ce62a041d9eecd4954fd2ceae1e3cd3c78",
      "assetIds": []
    },
    {
      "x": 361,
      "y": 298,
      "size": 1,
      "price": "1011000000000000000000",
      "reserved": "",
      "salt": "0xd8ec44e07fb3733e9342f9af7a59b7c6b930d0b00ebf0aa6f45633eac06f141a",
      "assetIds": []
    },
    {
      "x": 361,
      "y": 299,
      "size": 1,
      "price": "1011000000000000000000",
      "reserved": "",
      "salt": "0xcc201cc338406d8e1b6eb5963a0c4571c957769baf3a0f1bc3c1400f19281de6",
      "assetIds": []
    },
    {
      "x": 361,
      "y": 300,
      "size": 1,
      "price": "1011000000000000000000",
      "reserved": "",
      "salt": "0xa8d1415cb8fc221c2ecc69b888b4066cab684c2412d1609038df32e2736b88b0",
      "assetIds": []
    },
    {
      "x": 361,
      "y": 301,
      "size": 1,
      "price": "1011000000000000000000",
      "reserved": "",
      "salt": "0x72e16e767943566e8643b56d1fa51354af39e1ef064a4cfad8c8c8ab3ba203ca",
      "assetIds": []
    },
    {
      "x": 361,
      "y": 302,
      "size": 1,
      "price": "1011000000000000000000",
      "reserved": "",
      "salt": "0x53059d2bf1a4d6e024e1f8711b10c1ea1e4e2ef41c79e771c8ceb6e426d2f680",
      "assetIds": []
    },
    {
      "x": 361,
      "y": 303,
      "size": 1,
      "price": "1011000000000000000000",
      "reserved": "",
      "salt": "0x4fd5dc6b8024d3a78c85f420f3439ac3816d444589ddf966f7b0f9563a52b1eb",
      "assetIds": []
    },
    {
      "x": 361,
      "y": 304,
      "size": 1,
      "price": "1011000000000000000000",
      "reserved": "",
      "salt": "0xda62d7c4fa9d0a3e910919fd9d5d4f8c1ecf97389beb5f73903bfbed1cb00324",
      "assetIds": []
    },
    {
      "x": 361,
      "y": 305,
      "size": 1,
      "price": "1011000000000000000000",
      "reserved": "",
      "salt": "0x2959e91baaf371574a795fd6ff1d28d928f09e3399a8e6b5afeb0ea70b02d420",
      "assetIds": []
    },
    {
      "x": 361,
      "y": 306,
      "size": 1,
      "price": "1011000000000000000000",
      "reserved": "",
      "salt": "0x12676b8c597472e5b524d96a40bb4351f1f82b00ebc875f3c54a0a2b5e20fcfc",
      "assetIds": []
    },
    {
      "x": 361,
      "y": 307,
      "size": 1,
      "price": "1011000000000000000000",
      "reserved": "",
      "salt": "0xc01aadbce902a19d8151301140a2197bb9a4f1305b340a02b15f083f4f3674dc",
      "assetIds": []
    },
    {
      "x": 361,
      "y": 308,
      "size": 1,
      "price": "1011000000000000000000",
      "reserved": "",
      "salt": "0xe3a54dd0f615cc053fe9ea10346980c90047b2322ef59eae711662a462951197",
      "assetIds": []
    },
    {
      "x": 362,
      "y": 270,
      "size": 1,
      "price": "1011000000000000000000",
      "reserved": "",
      "salt": "0xe117a29df7e4c68dce574c625088e3787ef8ebdeb8d6a71c2b2e1a57fb87cc03",
      "assetIds": []
    },
    {
      "x": 362,
      "y": 271,
      "size": 1,
      "price": "1011000000000000000000",
      "reserved": "",
      "salt": "0x0849ec6423894b86bccb5a4c3b688d2c7ac65c50da9bd9d58652c4a48ef62bc9",
      "assetIds": []
    },
    {
      "x": 362,
      "y": 272,
      "size": 1,
      "price": "1011000000000000000000",
      "reserved": "",
      "salt": "0xca78007334a15fe356422cf4637717281bc6e084eca99a769967f65fe81afacb",
      "assetIds": []
    },
    {
      "x": 362,
      "y": 288,
      "size": 1,
      "price": "1011000000000000000000",
      "reserved": "",
      "salt": "0x6809d3d47427978dcc94ea7e929f34fbc75e357763d1b2679ac754c90f7b81a2",
      "assetIds": []
    },
    {
      "x": 362,
      "y": 289,
      "size": 1,
      "price": "1011000000000000000000",
      "reserved": "",
      "salt": "0xe989689d6b1bdc9f1ddf21cc54833a3adc3c24038539aa8af7c59b8afe5e0c16",
      "assetIds": []
    },
    {
      "x": 362,
      "y": 290,
      "size": 1,
      "price": "1011000000000000000000",
      "reserved": "",
      "salt": "0xbfd90a53c35d9f8e7836745c5977a7aa98b09e323004a10ed3142215a40269b6",
      "assetIds": []
    },
    {
      "x": 362,
      "y": 291,
      "size": 1,
      "price": "1011000000000000000000",
      "reserved": "",
      "salt": "0x2d6e6f7d4cd022594f568c28d390841ccb89c0ec5cb998025e8a610d1cb8d217",
      "assetIds": []
    },
    {
      "x": 362,
      "y": 292,
      "size": 1,
      "price": "1011000000000000000000",
      "reserved": "",
      "salt": "0x06f02b813be28c4457f9187a12969b0d3ddf94cb6ec155655d6bb3063e465674",
      "assetIds": []
    },
    {
      "x": 362,
      "y": 293,
      "size": 1,
      "price": "1011000000000000000000",
      "reserved": "",
      "salt": "0x87ccc7a328c4ed431a8444f1a462fa158c70eadf224b5fde4af1f1b2946680a5",
      "assetIds": []
    },
    {
      "x": 362,
      "y": 297,
      "size": 1,
      "price": "1011000000000000000000",
      "reserved": "",
      "salt": "0xae3b62622dea46e572b76b1d49149b338c05449f8f3fe0db0684769e67d757b7",
      "assetIds": []
    },
    {
      "x": 362,
      "y": 298,
      "size": 1,
      "price": "1011000000000000000000",
      "reserved": "",
      "salt": "0xc01ffa243735c2ee4ca0cdbf1388c09fefcc30a24e13b1480d56a3e38127210e",
      "assetIds": []
    },
    {
      "x": 362,
      "y": 299,
      "size": 1,
      "price": "1011000000000000000000",
      "reserved": "",
      "salt": "0x5ea271d5ef7ccf6b3ee445c3b458895db746fefd612368bcf0f78c10c9f18022",
      "assetIds": []
    },
    {
      "x": 362,
      "y": 300,
      "size": 1,
      "price": "1011000000000000000000",
      "reserved": "",
      "salt": "0xd5b4d2fdd7ce5db03b4c1b90686298c4e852606df25eecf417dc1f44ca217eb1",
      "assetIds": []
    },
    {
      "x": 362,
      "y": 301,
      "size": 1,
      "price": "1011000000000000000000",
      "reserved": "",
      "salt": "0x6e99e2a7f4fdf1b139b0e32fe13858a84655db117480612693273a87d1c5979a",
      "assetIds": []
    },
    {
      "x": 362,
      "y": 302,
      "size": 1,
      "price": "1011000000000000000000",
      "reserved": "",
      "salt": "0x882d8c93048245b62348b6ea1e6bc9e41560f84cb9685894343f7e583ada8aed",
      "assetIds": []
    },
    {
      "x": 362,
      "y": 303,
      "size": 1,
      "price": "1011000000000000000000",
      "reserved": "",
      "salt": "0x976ddacb7ce60cdb02b50ff8b21b6c8df83f3bb71b306eca819ee2eed62c14d0",
      "assetIds": []
    },
    {
      "x": 362,
      "y": 304,
      "size": 1,
      "price": "1011000000000000000000",
      "reserved": "",
      "salt": "0xe9f01357b78fdf470e81bd68586471c71fc469242f8d7fd442a7fd20bb8df3e9",
      "assetIds": []
    },
    {
      "x": 362,
      "y": 305,
      "size": 1,
      "price": "1011000000000000000000",
      "reserved": "",
      "salt": "0x7cedf3bbe76b0e3daa80f0424e9d30f0c96215ddf5606b82ac7d3c98301d9036",
      "assetIds": []
    },
    {
      "x": 362,
      "y": 306,
      "size": 1,
      "price": "1011000000000000000000",
      "reserved": "",
      "salt": "0xdaeb926f74fbbfd878dee82e574054f61f1c91be62cef85469d34573f5101320",
      "assetIds": []
    },
    {
      "x": 362,
      "y": 307,
      "size": 1,
      "price": "1011000000000000000000",
      "reserved": "",
      "salt": "0x6d41597e64541b31c3d0fe6a6a8db2bacc77f2d16f3269b540c7e50dc15b2631",
      "assetIds": []
    },
    {
      "x": 362,
      "y": 308,
      "size": 1,
      "price": "1011000000000000000000",
      "reserved": "",
      "salt": "0xcf4724ba1ed53d608fa2f82c443e1fce0bc9ad60a21de67744af085817e9eae1",
      "assetIds": []
    },
    {
      "x": 363,
      "y": 270,
      "size": 1,
      "price": "1011000000000000000000",
      "reserved": "",
      "salt": "0x9e68f5b288899c1072ba1695f09a8071522e0990f345f92b321842000f36eaad",
      "assetIds": []
    },
    {
      "x": 363,
      "y": 271,
      "size": 1,
      "price": "1011000000000000000000",
      "reserved": "",
      "salt": "0x069586aa1d2ed483f49052323a9e9ae528b80db17a4c3e05d7e4879f0ee1e1ce",
      "assetIds": []
    },
    {
      "x": 363,
      "y": 272,
      "size": 1,
      "price": "1011000000000000000000",
      "reserved": "",
      "salt": "0x15ec6019d164a700f9efa3e14563cc923ddb9fb2f18fc7740dee95d385bf6cac",
      "assetIds": []
    },
    {
      "x": 363,
      "y": 273,
      "size": 1,
      "price": "1011000000000000000000",
      "reserved": "",
      "salt": "0x205cfe0b1e61315af28fb350b3dca374125aafcc8c968092b707f78a2fdc72f9",
      "assetIds": []
    },
    {
      "x": 363,
      "y": 274,
      "size": 1,
      "price": "1011000000000000000000",
      "reserved": "",
      "salt": "0xaac943448e7dfbebab42f74196d70d0c7b03802621f03f3dbeeb1a1f19a134f5",
      "assetIds": []
    },
    {
      "x": 363,
      "y": 275,
      "size": 1,
      "price": "1011000000000000000000",
      "reserved": "",
      "salt": "0x386784044e01f2c71fa4fd16d0405e8cc82f56a930986b3b63833d054d22adde",
      "assetIds": []
    },
    {
      "x": 363,
      "y": 288,
      "size": 1,
      "price": "1011000000000000000000",
      "reserved": "",
      "salt": "0xdc50e602e41ddc31f416c691a90ec935d9896c55993b19bf3aa82f5e6d9750ea",
      "assetIds": []
    },
    {
      "x": 363,
      "y": 289,
      "size": 1,
      "price": "1011000000000000000000",
      "reserved": "0x7a9fe22691c811ea339d9b73150e6911a5343dca",
      "salt": "0x17ce573cc5bf24ecfddaa19ce9612bad98354537ddf846e07eae1b9497bea630",
      "assetIds": []
    },
    {
      "x": 363,
      "y": 290,
      "size": 1,
      "price": "1011000000000000000000",
      "reserved": "",
      "salt": "0xb5169ccf988f52f4238a10974e39124b20a80663fe372ce81211fc01a5432163",
      "assetIds": []
    },
    {
      "x": 363,
      "y": 291,
      "size": 1,
      "price": "1011000000000000000000",
      "reserved": "",
      "salt": "0x1052b635364060259d8e733e0085db3fc0c3e5320025d045aca251eff2f475a0",
      "assetIds": []
    },
    {
      "x": 363,
      "y": 292,
      "size": 1,
      "price": "1011000000000000000000",
      "reserved": "",
      "salt": "0x30d19c6ce251974393c5b2cd910fd9598f2e727c1a0480a6e63c7ac13cff2ea5",
      "assetIds": []
    },
    {
      "x": 363,
      "y": 293,
      "size": 1,
      "price": "1011000000000000000000",
      "reserved": "",
      "salt": "0x174c5fdc0de5c7849b8bbc8e82f369b38e08a1bdc464dba1bdce941ed277167e",
      "assetIds": []
    },
    {
      "x": 363,
      "y": 294,
      "size": 1,
      "price": "1011000000000000000000",
      "reserved": "",
      "salt": "0xcbbbf511915125be331a51322c0cf41c21a63804f8a7cf218df892a43fb4236a",
      "assetIds": []
    },
    {
      "x": 363,
      "y": 295,
      "size": 1,
      "price": "1011000000000000000000",
      "reserved": "",
      "salt": "0x20a3ccd93d421069c5490f2e0daccd87305423445c2f193c464b9b60b659adf8",
      "assetIds": []
    },
    {
      "x": 363,
      "y": 296,
      "size": 1,
      "price": "1011000000000000000000",
      "reserved": "",
      "salt": "0x3bc924a782c4671bd704fd78677447d13e9dd8128b57ad43f310ac8bda0f91df",
      "assetIds": []
    },
    {
      "x": 363,
      "y": 297,
      "size": 1,
      "price": "1011000000000000000000",
      "reserved": "",
      "salt": "0x3d1ef89c3fd331b742310b739459f60029e83e8ccf9b541d8fbc6ec69e235b1e",
      "assetIds": []
    },
    {
      "x": 363,
      "y": 298,
      "size": 1,
      "price": "1011000000000000000000",
      "reserved": "",
      "salt": "0x8403db72ca1b90f61335df8a7cf5ee3f6d982d2665ec76c7ba2a6b9bff385fd7",
      "assetIds": []
    },
    {
      "x": 363,
      "y": 299,
      "size": 1,
      "price": "1011000000000000000000",
      "reserved": "0x7a9fe22691c811ea339d9b73150e6911a5343dca",
      "salt": "0xd2b572a27ad0e22b7672ede6bd2dda6516388fe6ab7ee4d62c943ef5facffd3c",
      "assetIds": []
    },
    {
      "x": 363,
      "y": 300,
      "size": 1,
      "price": "1011000000000000000000",
      "reserved": "",
      "salt": "0xf8c6a5344837f56ed4c223279f747619c837ccada1c72eb732727d78b7050556",
      "assetIds": []
    },
    {
      "x": 363,
      "y": 301,
      "size": 1,
      "price": "1011000000000000000000",
      "reserved": "",
      "salt": "0xdd6c3402db4387acfb89114fee033c6af3759025b256690a8f44303bcab0f04a",
      "assetIds": []
    },
    {
      "x": 363,
      "y": 302,
      "size": 1,
      "price": "1011000000000000000000",
      "reserved": "",
      "salt": "0xb2d0db36f29c402e0f2623674c56202d7ec64167e5d84b28d3e0aa3ce1a0259a",
      "assetIds": []
    },
    {
      "x": 363,
      "y": 303,
      "size": 1,
      "price": "1011000000000000000000",
      "reserved": "",
      "salt": "0x70ed8bdaa118f7172898e365f5ad75ea69d1dd05be710632685ea319ba723565",
      "assetIds": []
    },
    {
      "x": 363,
      "y": 304,
      "size": 1,
      "price": "1011000000000000000000",
      "reserved": "0x7a9fe22691c811ea339d9b73150e6911a5343dca",
      "salt": "0xc6605d0c48e979553966aa99dac5c8d5eb8ba6325a455d6868a5677dfd2256fd",
      "assetIds": []
    },
    {
      "x": 363,
      "y": 305,
      "size": 1,
      "price": "1011000000000000000000",
      "reserved": "",
      "salt": "0x071593522b19af81b655fcadff9cb9fde5591bf12d45388d482f29369956a321",
      "assetIds": []
    },
    {
      "x": 363,
      "y": 306,
      "size": 1,
      "price": "1011000000000000000000",
      "reserved": "",
      "salt": "0x787cf9ef9b5794d149a4ab1e8afed831d4f7e60efcb92e8f21fa9b65a8b0c9d2",
      "assetIds": []
    },
    {
      "x": 363,
      "y": 307,
      "size": 1,
      "price": "1011000000000000000000",
      "reserved": "",
      "salt": "0x670df6c18ccae2debd41a771de0c25b40984c2600cef91fe764c579758112a2e",
      "assetIds": []
    },
    {
      "x": 363,
      "y": 308,
      "size": 1,
      "price": "1011000000000000000000",
      "reserved": "",
      "salt": "0x20ffd119e1b6803fe65650d3fa29a29eb9e8ccfaad0e9059ee2530a0ef93086c",
      "assetIds": []
    },
    {
      "x": 364,
      "y": 270,
      "size": 1,
      "price": "1011000000000000000000",
      "reserved": "",
      "salt": "0xf6991cdb0358487808eb4d1b174e6d3ef0f6fcd17ee2a4bb4996fbddc0226bbc",
      "assetIds": []
    },
    {
      "x": 364,
      "y": 271,
      "size": 1,
      "price": "1011000000000000000000",
      "reserved": "",
      "salt": "0xe1ecf1e72687925181fdd12e707f361221aefa3bfb02bdfaa8910ff12b7bc4ac",
      "assetIds": []
    },
    {
      "x": 364,
      "y": 272,
      "size": 1,
      "price": "1011000000000000000000",
      "reserved": "",
      "salt": "0xc75d065cc921c473bbd739a8b8e711d71fdacfd5e7fced9f608d4c7a81789b86",
      "assetIds": []
    },
    {
      "x": 364,
      "y": 273,
      "size": 1,
      "price": "1011000000000000000000",
      "reserved": "",
      "salt": "0xaf5ab6edb712fdb85885cf50c759ec21364e003870083271e14e5f8bc4600280",
      "assetIds": []
    },
    {
      "x": 364,
      "y": 274,
      "size": 1,
      "price": "1011000000000000000000",
      "reserved": "",
      "salt": "0x339207b7d29e16ac61300b6b25360b65db98b1d8e391b76fa0d26a451d7dd49b",
      "assetIds": []
    },
    {
      "x": 364,
      "y": 275,
      "size": 1,
      "price": "1011000000000000000000",
      "reserved": "",
      "salt": "0x378b2042824608aee53942860ecd7dbf473937bdef5911c82ed98f2d7cd480ef",
      "assetIds": []
    },
    {
      "x": 364,
      "y": 288,
      "size": 1,
      "price": "1011000000000000000000",
      "reserved": "",
      "salt": "0x3c656f5a487dd0040aff67f46fecc81c20229b927d366336661058d141f53273",
      "assetIds": []
    },
    {
      "x": 364,
      "y": 289,
      "size": 1,
      "price": "1011000000000000000000",
      "reserved": "",
      "salt": "0x4f4abb14f2ff6508ad1579a1df0d27fd87260ff1fa3885d49592a62a6d807fd8",
      "assetIds": []
    },
    {
      "x": 364,
      "y": 290,
      "size": 1,
      "price": "1011000000000000000000",
      "reserved": "",
      "salt": "0xb27786f9f71ffeb696f20ab6b961a3c4d80bf26487850e921954934a78a3027e",
      "assetIds": []
    },
    {
      "x": 364,
      "y": 291,
      "size": 1,
      "price": "1011000000000000000000",
      "reserved": "",
      "salt": "0x9560be1a5c4ee384b377987935cd4b3371f254256af072c0d744918098b4f56b",
      "assetIds": []
    },
    {
      "x": 364,
      "y": 292,
      "size": 1,
      "price": "1011000000000000000000",
      "reserved": "",
      "salt": "0x4b8f0a4e122238e6b345be71865b2a8989bf00de62aac6334d01dd83a86c906e",
      "assetIds": []
    },
    {
      "x": 364,
      "y": 293,
      "size": 1,
      "price": "1011000000000000000000",
      "reserved": "",
      "salt": "0x2b29b66a9a850a5dbd0e5c538ae5f00082c4bb36f61698402daf7ce162c8ee71",
      "assetIds": []
    },
    {
      "x": 364,
      "y": 294,
      "size": 1,
      "price": "1011000000000000000000",
      "reserved": "",
      "salt": "0xa96140957a61b2e48daf7eec18bcfcc8f58ee8ed30d2b09e02c7b617478cba83",
      "assetIds": []
    },
    {
      "x": 364,
      "y": 295,
      "size": 1,
      "price": "1011000000000000000000",
      "reserved": "",
      "salt": "0x246fa24f46bd46f65d405cdced22b67e18d837d34b228b6f05bbedd53829a47b",
      "assetIds": []
    },
    {
      "x": 364,
      "y": 296,
      "size": 1,
      "price": "1011000000000000000000",
      "reserved": "",
      "salt": "0xe7604dac9e50dc4d7296f54b2dc385bee25d9aa7883a204509c8b7ad8783a507",
      "assetIds": []
    },
    {
      "x": 364,
      "y": 297,
      "size": 1,
      "price": "1011000000000000000000",
      "reserved": "",
      "salt": "0x527b353a8f746befb6804bc4799d3c6e0ac2d991ce60f342d9247cd2cb475427",
      "assetIds": []
    },
    {
      "x": 364,
      "y": 298,
      "size": 1,
      "price": "1011000000000000000000",
      "reserved": "",
      "salt": "0xf9bc3a14fdcd5195d66c9f0ca49aa5d6c863e5b9d2fddba6961b99fa8c4ac064",
      "assetIds": []
    },
    {
      "x": 364,
      "y": 299,
      "size": 1,
      "price": "1011000000000000000000",
      "reserved": "",
      "salt": "0xf626ac33cd4cb1b3afbee665930b5dcff8e8280cfba1c6b4a7e8d0f05b226e74",
      "assetIds": []
    },
    {
      "x": 364,
      "y": 300,
      "size": 1,
      "price": "1011000000000000000000",
      "reserved": "",
      "salt": "0x4e7f15d36b7f4be9b5bd6feabbac1aa300d6748d7fc4150bfb058dc9911c995d",
      "assetIds": []
    },
    {
      "x": 364,
      "y": 301,
      "size": 1,
      "price": "1011000000000000000000",
      "reserved": "",
      "salt": "0x4cbf1bd373ceffc7e1dcdead2683cfacf358f77cf47aa3fb2524010ffd9fa509",
      "assetIds": []
    },
    {
      "x": 364,
      "y": 302,
      "size": 1,
      "price": "1011000000000000000000",
      "reserved": "",
      "salt": "0xdc2692e318cbb2633479904a9563063fe22ca592f5cb3f54ee3bf6799f33208d",
      "assetIds": []
    },
    {
      "x": 364,
      "y": 303,
      "size": 1,
      "price": "1011000000000000000000",
      "reserved": "",
      "salt": "0x9c30e4a2b3aa8ebed60c5a36f63858ef93d63c6bf29043e2f3436fcffee4b366",
      "assetIds": []
    },
    {
      "x": 364,
      "y": 304,
      "size": 1,
      "price": "1011000000000000000000",
      "reserved": "",
      "salt": "0x58f8b9571d7ade088339264475cbe799f16830da609d1b3444ec9eaae14ae417",
      "assetIds": []
    },
    {
      "x": 364,
      "y": 305,
      "size": 1,
      "price": "1011000000000000000000",
      "reserved": "",
      "salt": "0x03fed5385d8f17d34d4cf02671768f6f88912c4fd50324901e1f88cab915c65c",
      "assetIds": []
    },
    {
      "x": 364,
      "y": 306,
      "size": 1,
      "price": "1011000000000000000000",
      "reserved": "",
      "salt": "0x2477105a5ef53ae794a2336824e6c05988d8fc711a3f4c5ea16293d0dcc04609",
      "assetIds": []
    },
    {
      "x": 364,
      "y": 307,
      "size": 1,
      "price": "1011000000000000000000",
      "reserved": "0x7a9fe22691c811ea339d9b73150e6911a5343dca",
      "salt": "0x43fd0edb7638eee4bf94af55b920a04960523dcd8e328f4a92e7fdfcd08d6093",
      "assetIds": []
    },
    {
      "x": 364,
      "y": 308,
      "size": 1,
      "price": "1011000000000000000000",
      "reserved": "",
      "salt": "0x12955a0f930aa0f8ad07619bfc12d3aa14f00b1acb1852f2caba6c22b68cb01b",
      "assetIds": []
    },
    {
      "x": 365,
      "y": 270,
      "size": 1,
      "price": "1011000000000000000000",
      "reserved": "",
      "salt": "0x73e9165191b6a07bf057fa37bc89c6db30e51a6c90dd6c54bc88665b3e744c31",
      "assetIds": []
    },
    {
      "x": 365,
      "y": 271,
      "size": 1,
      "price": "1011000000000000000000",
      "reserved": "",
      "salt": "0xf2a0ecf89cd4c4199fbf37e7935f82f8930529b9d25a1a49ac2499f799f9f3ae",
      "assetIds": []
    },
    {
      "x": 365,
      "y": 272,
      "size": 1,
      "price": "1011000000000000000000",
      "reserved": "",
      "salt": "0x8af7256d5e2db502bc3c9d23f38137a4fe30124a5a82679fe16164af3374c9c8",
      "assetIds": []
    },
    {
      "x": 365,
      "y": 273,
      "size": 1,
      "price": "1011000000000000000000",
      "reserved": "",
      "salt": "0x74d882d7fcfeeb417b845e198acb91f885a073b3fee91dabb1e1a406a51227e7",
      "assetIds": []
    },
    {
      "x": 365,
      "y": 274,
      "size": 1,
      "price": "1011000000000000000000",
      "reserved": "",
      "salt": "0x9899b3bd8ef87225ae499e3ac0fcda26cd4224ba22f8ee5ca28742ec99efdd72",
      "assetIds": []
    },
    {
      "x": 365,
      "y": 275,
      "size": 1,
      "price": "1011000000000000000000",
      "reserved": "",
      "salt": "0x6c3b52fbeb5c20461e35d6b43285b7dea96a6e518b3f78da2992620aa4ca10db",
      "assetIds": []
    },
    {
      "x": 365,
      "y": 288,
      "size": 1,
      "price": "1011000000000000000000",
      "reserved": "",
      "salt": "0x0c9788a9317a633b21c16c0cb01eca13d2f5cc38f9fff119722404cc4154f536",
      "assetIds": []
    },
    {
      "x": 365,
      "y": 289,
      "size": 1,
      "price": "1011000000000000000000",
      "reserved": "",
      "salt": "0x2a98d4b1e37ce132c4fc58749e5ca577f72b68353183caa83fda3517cf371c61",
      "assetIds": []
    },
    {
      "x": 365,
      "y": 290,
      "size": 1,
      "price": "1011000000000000000000",
      "reserved": "",
      "salt": "0x0f641fa4aad5d00d5b32c09808f0447259e8dfbf379c28ead93f8c734d927085",
      "assetIds": []
    },
    {
      "x": 365,
      "y": 291,
      "size": 1,
      "price": "1011000000000000000000",
      "reserved": "",
      "salt": "0xd0c9f6dc67415242a3934aaac7192007cdeff2ff3ca669102d1058914822f922",
      "assetIds": []
    },
    {
      "x": 365,
      "y": 292,
      "size": 1,
      "price": "1011000000000000000000",
      "reserved": "",
      "salt": "0x61c1e0b3e0f1e6323efa43f447f3cf618add849f10495b66be03075ecb9d2396",
      "assetIds": []
    },
    {
      "x": 365,
      "y": 293,
      "size": 1,
      "price": "1011000000000000000000",
      "reserved": "",
      "salt": "0x161fcf6122834a118f55cf125f35a0408acc638d637645877016366e04c83e92",
      "assetIds": []
    },
    {
      "x": 365,
      "y": 294,
      "size": 1,
      "price": "1011000000000000000000",
      "reserved": "",
      "salt": "0xa7f441a4941135f3e05e0ccddc0b764d6893fbcb2b86b68fc188286be15e00ec",
      "assetIds": []
    },
    {
      "x": 365,
      "y": 295,
      "size": 1,
      "price": "1011000000000000000000",
      "reserved": "",
      "salt": "0x1bba132a91fcfd8ff3429b2c79674172d972a52d30d9583e67267dd68cce4499",
      "assetIds": []
    },
    {
      "x": 365,
      "y": 296,
      "size": 1,
      "price": "1011000000000000000000",
      "reserved": "",
      "salt": "0x3839486294a280e33464edba35acce1bb4cb1115c250de1f7bac9dfc2f719ab9",
      "assetIds": []
    },
    {
      "x": 365,
      "y": 297,
      "size": 1,
      "price": "1011000000000000000000",
      "reserved": "",
      "salt": "0x7a90e2cbdf0e7502c6deb511701802670a0e9cc0c2aba5bc84afe5ec2af431d8",
      "assetIds": []
    },
    {
      "x": 365,
      "y": 298,
      "size": 1,
      "price": "1011000000000000000000",
      "reserved": "",
      "salt": "0x7cdab24e055635b3f690a641f75b51a31dea4a025d6775542a6d8c55b5508a94",
      "assetIds": []
    },
    {
      "x": 365,
      "y": 299,
      "size": 1,
      "price": "1011000000000000000000",
      "reserved": "",
      "salt": "0x0bfeba0d557b9cac4fc77af1a44dbad858886ef0603694e5524ccde427cff831",
      "assetIds": []
    },
    {
      "x": 365,
      "y": 300,
      "size": 1,
      "price": "1011000000000000000000",
      "reserved": "",
      "salt": "0x5ae4828436d45117d238a608520e04480bf9189f49e692ade91ade578e2d491d",
      "assetIds": []
    },
    {
      "x": 365,
      "y": 301,
      "size": 1,
      "price": "1011000000000000000000",
      "reserved": "",
      "salt": "0xbfa183564115a57ffffc07358d1fe504f44c77868002254ecca67ecb49dd2784",
      "assetIds": []
    },
    {
      "x": 365,
      "y": 302,
      "size": 1,
      "price": "1011000000000000000000",
      "reserved": "",
      "salt": "0x6fe1cf6ac007af1e486ad480f46623feb24f63c89eb30f44fdda61f5aca4b7ce",
      "assetIds": []
    },
    {
      "x": 365,
      "y": 303,
      "size": 1,
      "price": "1011000000000000000000",
      "reserved": "",
      "salt": "0x32bed4ad017afaf62fb5f27c85b71c91ba1412eb1c071deb57b541e342550a6e",
      "assetIds": []
    },
    {
      "x": 365,
      "y": 304,
      "size": 1,
      "price": "1011000000000000000000",
      "reserved": "",
      "salt": "0x5a3b6df4710a6730f048c01216df6bae7b5b75e8e7766956ef1764bcf6f56ffb",
      "assetIds": []
    },
    {
      "x": 365,
      "y": 305,
      "size": 1,
      "price": "1011000000000000000000",
      "reserved": "",
      "salt": "0xe3f42d7a7af3cd6b0da900839e3f34194f2ad24cc6edf7b7376a411c51688285",
      "assetIds": []
    },
    {
      "x": 365,
      "y": 306,
      "size": 1,
      "price": "1011000000000000000000",
      "reserved": "",
      "salt": "0xd14031030f27e41e52426db9effa49ac9641216a5f4776333913c7805ceaf67e",
      "assetIds": []
    },
    {
      "x": 365,
      "y": 307,
      "size": 1,
      "price": "1011000000000000000000",
      "reserved": "",
      "salt": "0xf7d3ef3a51ac894b45e0d9f93e674901bd33ac9566e0f33ff6cfe9c039bca42f",
      "assetIds": []
    },
    {
      "x": 365,
      "y": 308,
      "size": 1,
      "price": "1011000000000000000000",
      "reserved": "",
      "salt": "0x0ca72315e58ea526881bbffa9acd3ac21452257c03f54d899ddcb26411941946",
      "assetIds": []
    },
    {
      "x": 366,
      "y": 231,
      "size": 1,
      "price": "1011000000000000000000",
      "reserved": "",
      "salt": "0xa8964c1639837f00042ecf69527cb9ca3316c35a432a1aae12347ec99b7847ae",
      "assetIds": []
    },
    {
      "x": 366,
      "y": 232,
      "size": 1,
      "price": "1011000000000000000000",
      "reserved": "",
      "salt": "0x53b74030ec5de42368e24e9d5b5105afa4de54a1bbda447514e33d6cc8970fc7",
      "assetIds": []
    },
    {
      "x": 366,
      "y": 233,
      "size": 1,
      "price": "1011000000000000000000",
      "reserved": "",
      "salt": "0x3b6f5692b7527fd4fa3c23996bb9f7682c945e6dfae22ae4483f4ce930192f0d",
      "assetIds": []
    },
    {
      "x": 366,
      "y": 234,
      "size": 1,
      "price": "1011000000000000000000",
      "reserved": "",
      "salt": "0xb9ce31e55eb188aa9e15951dbac265bbe172dbab1c0aea62d4f4dc9f9327850b",
      "assetIds": []
    },
    {
      "x": 366,
      "y": 235,
      "size": 1,
      "price": "1011000000000000000000",
      "reserved": "",
      "salt": "0x45052a88b7b2047f46d2b38eb316cf7983744cfa61f1f8ad4c36a1963a5d03fa",
      "assetIds": []
    },
    {
      "x": 366,
      "y": 236,
      "size": 1,
      "price": "1011000000000000000000",
      "reserved": "",
      "salt": "0x276f96d7255fda966e00dfd860e4d815321ce73b9c3f2586093bf22ab7f86074",
      "assetIds": []
    },
    {
      "x": 366,
      "y": 237,
      "size": 1,
      "price": "1011000000000000000000",
      "reserved": "",
      "salt": "0xb2369ec301b8e0368357cf283d18cc0cd9cd0afccbdba88e652ddf2d18e82b2c",
      "assetIds": []
    },
    {
      "x": 366,
      "y": 238,
      "size": 1,
      "price": "1011000000000000000000",
      "reserved": "",
      "salt": "0x69712b0ba3824f14aa569abb407a5c6f2f010a4c8636062f42c33f0b0d4fa395",
      "assetIds": []
    },
    {
      "x": 366,
      "y": 239,
      "size": 1,
      "price": "1011000000000000000000",
      "reserved": "",
      "salt": "0x701013aaadb76344ce2be80b8743aae9dbfda3e37bd17b0674c9e3c83c204fd8",
      "assetIds": []
    },
    {
      "x": 366,
      "y": 264,
      "size": 1,
      "price": "1011000000000000000000",
      "reserved": "",
      "salt": "0x740555695008c4eae6defc78f577ba9a34454dd1961d1393db830947263ffa40",
      "assetIds": []
    },
    {
      "x": 366,
      "y": 265,
      "size": 1,
      "price": "1011000000000000000000",
      "reserved": "",
      "salt": "0x7cb97180334a07aedbe12fddcdccd26894a91045bb53641262480b9530ed7928",
      "assetIds": []
    },
    {
      "x": 366,
      "y": 266,
      "size": 1,
      "price": "1011000000000000000000",
      "reserved": "",
      "salt": "0x7dbad39b79af3a9df4a6c88b461db97d53f986da8ff6fa4e8e86b8c2478d0957",
      "assetIds": []
    },
    {
      "x": 366,
      "y": 288,
      "size": 1,
      "price": "1011000000000000000000",
      "reserved": "",
      "salt": "0x7060467a5d40b87740ef5a82a3c161f3e4832f55cd83e7e3718df6d45dcb1a4e",
      "assetIds": []
    },
    {
      "x": 366,
      "y": 289,
      "size": 1,
      "price": "1011000000000000000000",
      "reserved": "",
      "salt": "0x593549db40eb700d13d45c6f8797a3cbb160ded411c12ac6e0bb43476fcc96a4",
      "assetIds": []
    },
    {
      "x": 366,
      "y": 290,
      "size": 1,
      "price": "1011000000000000000000",
      "reserved": "",
      "salt": "0x3ba05b246c7923e8a4c1e4d200eccaa22c0e1a1ba07bcc62fdfa9d97e4af46fb",
      "assetIds": []
    },
    {
      "x": 366,
      "y": 294,
      "size": 1,
      "price": "1011000000000000000000",
      "reserved": "",
      "salt": "0xad9976e12ed30a8a0f0107daf59bc3e281b08dd1f40b4bd8ce7a33c3e9e5f330",
      "assetIds": []
    },
    {
      "x": 366,
      "y": 295,
      "size": 1,
      "price": "1011000000000000000000",
      "reserved": "",
      "salt": "0x16e846da472fb227de2cd887f12cc234e26f2cc9762a0ed8937246c6aa0a9a59",
      "assetIds": []
    },
    {
      "x": 366,
      "y": 296,
      "size": 1,
      "price": "1011000000000000000000",
      "reserved": "",
      "salt": "0x261b8e0f8922463f168c5b3edfe4bf88e7ebc4347c7733907c139a117d7afada",
      "assetIds": []
    },
    {
      "x": 366,
      "y": 297,
      "size": 1,
      "price": "1011000000000000000000",
      "reserved": "",
      "salt": "0x6f5c46b424c89a544ffc45fe361b6f10ea15ac5b8ad8842f8eb445e6f8eb5489",
      "assetIds": []
    },
    {
      "x": 366,
      "y": 298,
      "size": 1,
      "price": "1011000000000000000000",
      "reserved": "",
      "salt": "0x1b1c546c7731426fd8ed618978e9ddc66cec55453b5b95af884a7642f3c02231",
      "assetIds": []
    },
    {
      "x": 366,
      "y": 299,
      "size": 1,
      "price": "1011000000000000000000",
      "reserved": "",
      "salt": "0x9ae0d98bde973895cf7d57edbcf01f09109e061d59f34206a89e7ec6d5bf7f53",
      "assetIds": []
    },
    {
      "x": 366,
      "y": 300,
      "size": 1,
      "price": "1011000000000000000000",
      "reserved": "",
      "salt": "0x24abf5928f472312eceef1456c3c629746f9b1186a09e1f294894d26f38ae021",
      "assetIds": []
    },
    {
      "x": 366,
      "y": 301,
      "size": 1,
      "price": "1011000000000000000000",
      "reserved": "",
      "salt": "0x2944f714de567aaeee7d3a1f375924f4ebbd39d371e59df0cdb52dc72a214dea",
      "assetIds": []
    },
    {
      "x": 366,
      "y": 302,
      "size": 1,
      "price": "1011000000000000000000",
      "reserved": "",
      "salt": "0x4e78da6a6c77c060dc38de2d0f8d3b75002ab1eaa616c1b317fecb57d7efc7a3",
      "assetIds": []
    },
    {
      "x": 366,
      "y": 303,
      "size": 1,
      "price": "1011000000000000000000",
      "reserved": "",
      "salt": "0x71312286d04427e7d39b7c3cd64ef1aa2a44291184c18a17b58b4a9b83b790e5",
      "assetIds": []
    },
    {
      "x": 366,
      "y": 304,
      "size": 1,
      "price": "1011000000000000000000",
      "reserved": "",
      "salt": "0x8a12ec8e0f54aaf9c34756b729ee9bac34dee02aecaf484df2dc1b68c2e8964b",
      "assetIds": []
    },
    {
      "x": 366,
      "y": 305,
      "size": 1,
      "price": "1011000000000000000000",
      "reserved": "",
      "salt": "0x914d725262dc3a31d3dce7998740d693c196e61523bb11787b45ce808c04fb44",
      "assetIds": []
    },
    {
      "x": 366,
      "y": 306,
      "size": 1,
      "price": "1011000000000000000000",
      "reserved": "",
      "salt": "0x92a7f5b9f8178feaf015c5255b1276de474573f4c43220611059920411c2cae2",
      "assetIds": []
    },
    {
      "x": 367,
      "y": 231,
      "size": 1,
      "price": "1011000000000000000000",
      "reserved": "",
      "salt": "0xc1800448b3dbac4944bfa21cc7676d794f7ca5c557ef86208d6b9206418bfab8",
      "assetIds": []
    },
    {
      "x": 367,
      "y": 232,
      "size": 1,
      "price": "1011000000000000000000",
      "reserved": "",
      "salt": "0xb876eddb135c2661108ebbac6687cc4bb1381004694966e28840d28a6b683321",
      "assetIds": []
    },
    {
      "x": 367,
      "y": 233,
      "size": 1,
      "price": "1011000000000000000000",
      "reserved": "",
      "salt": "0x75f0d08257f77d674c6b2ecf9be427d1937cb490dc2c630f1b347cddb0989165",
      "assetIds": []
    },
    {
      "x": 367,
      "y": 234,
      "size": 1,
      "price": "1011000000000000000000",
      "reserved": "",
      "salt": "0xa20a6f1b8e921e73f1c221103a93a302c014315d31d154c341bbc3496e77cb27",
      "assetIds": []
    },
    {
      "x": 367,
      "y": 235,
      "size": 1,
      "price": "1011000000000000000000",
      "reserved": "",
      "salt": "0xa7bfd1f1af7956e18952f6898528868b9f677356b4cb8f03262146ea57f80699",
      "assetIds": []
    },
    {
      "x": 367,
      "y": 236,
      "size": 1,
      "price": "1011000000000000000000",
      "reserved": "",
      "salt": "0x8dcc0909dafe82fa8e0c58488b720868002973c0488c6b78ac359c93691a0755",
      "assetIds": []
    },
    {
      "x": 367,
      "y": 237,
      "size": 1,
      "price": "1011000000000000000000",
      "reserved": "0x7a9fe22691c811ea339d9b73150e6911a5343dca",
      "salt": "0x8779f646dad5bbab8f46501c7cc72c280daac5e089d22481ee8fa8c9a1cb1ed9",
      "assetIds": []
    },
    {
      "x": 367,
      "y": 238,
      "size": 1,
      "price": "1011000000000000000000",
      "reserved": "",
      "salt": "0xcbdc05f2bda09d6534e0aa685e0f756241f1cefbdf4500ed84a3d30f5d7f43ca",
      "assetIds": []
    },
    {
      "x": 367,
      "y": 239,
      "size": 1,
      "price": "1011000000000000000000",
      "reserved": "",
      "salt": "0xd9e0e80ba99ecdbc02e13316a280e4def05a51cedeeab98e86fee3af6f457864",
      "assetIds": []
    },
    {
      "x": 367,
      "y": 264,
      "size": 1,
      "price": "1011000000000000000000",
      "reserved": "",
      "salt": "0x5064f470e6da3fcbec43e721f3c1abc4736cf0a705a7058bfadec51ad874dd98",
      "assetIds": []
    },
    {
      "x": 367,
      "y": 265,
      "size": 1,
      "price": "1011000000000000000000",
      "reserved": "",
      "salt": "0x38e730aa461f2e8a5b2d30a4ec365980dc97cf679ac0c2cc26678a5a35220276",
      "assetIds": []
    },
    {
      "x": 367,
      "y": 266,
      "size": 1,
      "price": "1011000000000000000000",
      "reserved": "",
      "salt": "0xb876ac1ca511840e8f505731a551bcac8e383b6ad4ad76a69c73941d57740a19",
      "assetIds": []
    },
    {
      "x": 367,
      "y": 288,
      "size": 1,
      "price": "1011000000000000000000",
      "reserved": "",
      "salt": "0x72237460453fee7944d5cdf1959c6899007cd6a4baaea316533d9d243005fa0c",
      "assetIds": []
    },
    {
      "x": 367,
      "y": 289,
      "size": 1,
      "price": "1011000000000000000000",
      "reserved": "0x7a9fe22691c811ea339d9b73150e6911a5343dca",
      "salt": "0xd7abd5443f20607c7054408bedba483146402e16501e3542864b358d79f5cbc1",
      "assetIds": []
    },
    {
      "x": 367,
      "y": 290,
      "size": 1,
      "price": "1011000000000000000000",
      "reserved": "",
      "salt": "0x05d1f89d742146ae8ca5eb2819b12c41aa5816e592322d52ecfeac056d7861be",
      "assetIds": []
    },
    {
      "x": 367,
      "y": 294,
      "size": 1,
      "price": "1011000000000000000000",
      "reserved": "",
      "salt": "0x6d6dbf153b313f2fbaea870f878dcf25ca6ebf3af640704901b5b9094c973bc8",
      "assetIds": []
    },
    {
      "x": 367,
      "y": 295,
      "size": 1,
      "price": "1011000000000000000000",
      "reserved": "",
      "salt": "0x9b09e6a5d97e7a64bfbef29f62ff0d3801d00dcf852e5f0c560ad0aafab75001",
      "assetIds": []
    },
    {
      "x": 367,
      "y": 296,
      "size": 1,
      "price": "1011000000000000000000",
      "reserved": "",
      "salt": "0x109a0869692f08775613224c763c7d59f08865823b0cd14248c88cb3bc14622a",
      "assetIds": []
    },
    {
      "x": 367,
      "y": 297,
      "size": 1,
      "price": "1011000000000000000000",
      "reserved": "",
      "salt": "0xc724ffd1299b2f03c1b8939ee5936de820041e3788a02aeb12343e53914f7678",
      "assetIds": []
    },
    {
      "x": 367,
      "y": 298,
      "size": 1,
      "price": "1011000000000000000000",
      "reserved": "",
      "salt": "0x266e3863b830275065e61ab8c248a531cc92e1d372975ef3b7470a500c6ab97d",
      "assetIds": []
    },
    {
      "x": 367,
      "y": 299,
      "size": 1,
      "price": "1011000000000000000000",
      "reserved": "",
      "salt": "0x3a483d6af9325d77129692e06dc80969e6e3a2b3efd9666a8ba28f7be8109856",
      "assetIds": []
    },
    {
      "x": 367,
      "y": 300,
      "size": 1,
      "price": "1011000000000000000000",
      "reserved": "",
      "salt": "0x6fb95f764c5a8535415d225ced28dae08d23cc6dfcc86a10dc36c5828547bf41",
      "assetIds": []
    },
    {
      "x": 367,
      "y": 301,
      "size": 1,
      "price": "1011000000000000000000",
      "reserved": "",
      "salt": "0x6fbfe70de0fa4f8ee2ad476f73840c87747a9f39743a6fcb8665862e4002a44c",
      "assetIds": []
    },
    {
      "x": 367,
      "y": 302,
      "size": 1,
      "price": "1011000000000000000000",
      "reserved": "",
      "salt": "0xe7bd4de5afc99e8c098383325f2afa594261d9deb32877550b3e1599089e472a",
      "assetIds": []
    },
    {
      "x": 367,
      "y": 303,
      "size": 1,
      "price": "1011000000000000000000",
      "reserved": "0x7a9fe22691c811ea339d9b73150e6911a5343dca",
      "salt": "0x9feedee00fb3cd64f0860c005de256dc6d2ee46d03b3a6c291e8c5fcec017d26",
      "assetIds": []
    },
    {
      "x": 367,
      "y": 304,
      "size": 1,
      "price": "1011000000000000000000",
      "reserved": "",
      "salt": "0x6cba9af4ca7754a32089dedf73559bf6e7bad0bc256b56ef1db18b3a44fe256d",
      "assetIds": []
    },
    {
      "x": 367,
      "y": 305,
      "size": 1,
      "price": "1011000000000000000000",
      "reserved": "",
      "salt": "0x20ccde5606faf3ccad31945718025be39893e6f4dde04c3adbd6552a24ba9148",
      "assetIds": []
    },
    {
      "x": 367,
      "y": 306,
      "size": 1,
      "price": "1011000000000000000000",
      "reserved": "",
      "salt": "0xbe8f61c3485a4b77912dee7507ff0ab872f15f0509f26e3a12a77f04d819a85e",
      "assetIds": []
    },
    {
      "x": 368,
      "y": 231,
      "size": 1,
      "price": "1011000000000000000000",
      "reserved": "",
      "salt": "0xc121de54fc45e3f4cf6ae3fc6405451d9544f0f94ede2990daca920cd087d935",
      "assetIds": []
    },
    {
      "x": 368,
      "y": 232,
      "size": 1,
      "price": "1011000000000000000000",
      "reserved": "",
      "salt": "0xbccb9a483f0c0046b03d2990aa93ce2f9fc756049a0ea4a344521b498e717096",
      "assetIds": []
    },
    {
      "x": 368,
      "y": 233,
      "size": 1,
      "price": "1011000000000000000000",
      "reserved": "",
      "salt": "0x648536027c3389d8ea7eb827f853c3b29f278f5b41ad1047514e3a0bf5c18a0d",
      "assetIds": []
    },
    {
      "x": 368,
      "y": 234,
      "size": 1,
      "price": "1011000000000000000000",
      "reserved": "",
      "salt": "0x7a904158a4aa3af9aef9829ba971b2217f7e08740574104e488249e9517ed402",
      "assetIds": []
    },
    {
      "x": 368,
      "y": 235,
      "size": 1,
      "price": "1011000000000000000000",
      "reserved": "",
      "salt": "0x667824b9c3d2ade355477288e2e7eecd64a99a9dc0c296dbf225d2d45ec5e2f3",
      "assetIds": []
    },
    {
      "x": 368,
      "y": 236,
      "size": 1,
      "price": "1011000000000000000000",
      "reserved": "",
      "salt": "0xc7c1a6be9637d4dcdcd913a1fd7ad325e250b50fbb67620ef4eb24f710cd2bfc",
      "assetIds": []
    },
    {
      "x": 368,
      "y": 237,
      "size": 1,
      "price": "1011000000000000000000",
      "reserved": "",
      "salt": "0x1da0a6c31d06b88064ee454e0cd55b8f65fa6093682728de03a0ee8b61296f6e",
      "assetIds": []
    },
    {
      "x": 368,
      "y": 238,
      "size": 1,
      "price": "1011000000000000000000",
      "reserved": "",
      "salt": "0x1e5a2f9b3c4ba5d69c48fe706db78d3ed77f78e3d265125155dbd94a9402e826",
      "assetIds": []
    },
    {
      "x": 368,
      "y": 239,
      "size": 1,
      "price": "1011000000000000000000",
      "reserved": "",
      "salt": "0xda2e6b58489aa50e54ba9ca4ac42c87292393bf171a0ea8e15089eef6055d286",
      "assetIds": []
    },
    {
      "x": 368,
      "y": 264,
      "size": 1,
      "price": "1011000000000000000000",
      "reserved": "",
      "salt": "0x946187763533a1462000f322729d260a9e55c18231001b01eb4252c4aab4d6f0",
      "assetIds": []
    },
    {
      "x": 368,
      "y": 265,
      "size": 1,
      "price": "1011000000000000000000",
      "reserved": "",
      "salt": "0x2c18fb2efa37059fe981db6dffa497ec919c3cc5c70402aba3e99458d6eb2b88",
      "assetIds": []
    },
    {
      "x": 368,
      "y": 266,
      "size": 1,
      "price": "1011000000000000000000",
      "reserved": "",
      "salt": "0xf8351c74549500a46bc862cb3b831ed3c900b113739c8c8f4482ab9db0f7c5c9",
      "assetIds": []
    },
    {
      "x": 368,
      "y": 288,
      "size": 1,
      "price": "1011000000000000000000",
      "reserved": "",
      "salt": "0x9905a3667f3a59f385ea5b8f6dc1a2e35062ad9e437537e4e4d89b6bf5edabf2",
      "assetIds": []
    },
    {
      "x": 368,
      "y": 289,
      "size": 1,
      "price": "1011000000000000000000",
      "reserved": "",
      "salt": "0x0af3f730f5f0b8e546c5293b1ec613f8ee7daed672f2014220e161111773dd95",
      "assetIds": []
    },
    {
      "x": 368,
      "y": 290,
      "size": 1,
      "price": "1011000000000000000000",
      "reserved": "",
      "salt": "0xddc28e56fb6d904d87c7194156d15db53c415b72450eaf57d138601ec0cf8a6f",
      "assetIds": []
    },
    {
      "x": 368,
      "y": 294,
      "size": 1,
      "price": "1011000000000000000000",
      "reserved": "",
      "salt": "0x91fed04775f9583f0bbecd14bd233a1ae0af1e8568ad45abc66d41e17c0a6390",
      "assetIds": []
    },
    {
      "x": 368,
      "y": 295,
      "size": 1,
      "price": "1011000000000000000000",
      "reserved": "",
      "salt": "0x0f101b10bbed6c040f915b9b296d12af631c4afb1f018ff9c508f3965a5a26b5",
      "assetIds": []
    },
    {
      "x": 368,
      "y": 296,
      "size": 1,
      "price": "1011000000000000000000",
      "reserved": "",
      "salt": "0x2d90319850763fde61ddf5b1d2f845684ded9b48ec5f8b4b41952a3d407cbe62",
      "assetIds": []
    },
    {
      "x": 368,
      "y": 297,
      "size": 1,
      "price": "1011000000000000000000",
      "reserved": "",
      "salt": "0x3ee170f953ffc84f11de171cbbd88d274257228e00b49b0f302f42b2f1211046",
      "assetIds": []
    },
    {
      "x": 368,
      "y": 298,
      "size": 1,
      "price": "1011000000000000000000",
      "reserved": "",
      "salt": "0x8352ce4614cefdac1ad57d657fbe5ea2a324b6601eb92a46cfd178b79fbf52c3",
      "assetIds": []
    },
    {
      "x": 368,
      "y": 299,
      "size": 1,
      "price": "1011000000000000000000",
      "reserved": "",
      "salt": "0x6dc5e54ea8bc251d7b7316568e1ea29518d8ef28cefb7f0b647b78411b0f0b08",
      "assetIds": []
    },
    {
      "x": 368,
      "y": 300,
      "size": 1,
      "price": "1011000000000000000000",
      "reserved": "",
      "salt": "0x2c79f342bbe493526714b6ee700df65483bf97684b645d1dbdc469937c266a73",
      "assetIds": []
    },
    {
      "x": 368,
      "y": 301,
      "size": 1,
      "price": "1011000000000000000000",
      "reserved": "",
      "salt": "0x0468a93bc5eaadc1a5a18f62499a8bcfa8aefc73adeb98e40f1a2157eacdab64",
      "assetIds": []
    },
    {
      "x": 368,
      "y": 302,
      "size": 1,
      "price": "1011000000000000000000",
      "reserved": "",
      "salt": "0x92b02f5cf580a7865ed52388aa8b128dac1af6e7583dd1c2eebe6e2bcb592829",
      "assetIds": []
    },
    {
      "x": 368,
      "y": 303,
      "size": 1,
      "price": "1011000000000000000000",
      "reserved": "",
      "salt": "0x97e0e7edbe8e2b4b400fa10745d724615784e47c3e068687caf04461b0eb17a7",
      "assetIds": []
    },
    {
      "x": 368,
      "y": 304,
      "size": 1,
      "price": "1011000000000000000000",
      "reserved": "",
      "salt": "0x6753253448b6eb19dadf5b10665e3c9963353aea4c0b36aba88312f1fc7f2e84",
      "assetIds": []
    },
    {
      "x": 368,
      "y": 305,
      "size": 1,
      "price": "1011000000000000000000",
      "reserved": "",
      "salt": "0x2fe727920ff206badc9feb049529c53a8e67412e06fb027257e19634b51a45c4",
      "assetIds": []
    },
    {
      "x": 369,
      "y": 231,
      "size": 1,
      "price": "1011000000000000000000",
      "reserved": "",
      "salt": "0x428c1110440dc696f0bbcef63369688feaf8a69911584f00e70130815774dad5",
      "assetIds": []
    },
    {
      "x": 369,
      "y": 232,
      "size": 1,
      "price": "1011000000000000000000",
      "reserved": "",
      "salt": "0x917ab7f96d25546b24374c72d1cae8b2d316315623b4dd5dc282467279e12234",
      "assetIds": []
    },
    {
      "x": 369,
      "y": 233,
      "size": 1,
      "price": "1011000000000000000000",
      "reserved": "",
      "salt": "0xfe4ab5cf1335a0f6bdec071db59f788f3c2abfe107f148d65bfd97a0e761cdd3",
      "assetIds": []
    },
    {
      "x": 369,
      "y": 234,
      "size": 1,
      "price": "1011000000000000000000",
      "reserved": "",
      "salt": "0xeee3fa921fb3a02f7beda617504b223aa53e1504758e078bbc3a00747ec02546",
      "assetIds": []
    },
    {
      "x": 369,
      "y": 235,
      "size": 1,
      "price": "1011000000000000000000",
      "reserved": "",
      "salt": "0x5300c91ceec4392a1e66e6534cbda418c2d73e0d81b08f7d8785599899a14a4d",
      "assetIds": []
    },
    {
      "x": 369,
      "y": 236,
      "size": 1,
      "price": "1011000000000000000000",
      "reserved": "",
      "salt": "0x3b800ae5743134931ff82ac086bc00b9587c85b5c41271a3d396f392e58061ed",
      "assetIds": []
    },
    {
      "x": 369,
      "y": 237,
      "size": 1,
      "price": "1011000000000000000000",
      "reserved": "",
      "salt": "0x404f40d8206e2f852f8951a35c5031168660b3da6ac2d69d59d42b22116ed768",
      "assetIds": []
    },
    {
      "x": 369,
      "y": 238,
      "size": 1,
      "price": "1011000000000000000000",
      "reserved": "",
      "salt": "0xe15cb02229b5a4a323c1f00cdb83b1e9240f6975ea877cdc6d0a7c4543849e85",
      "assetIds": []
    },
    {
      "x": 369,
      "y": 239,
      "size": 1,
      "price": "1011000000000000000000",
      "reserved": "",
      "salt": "0x1c40a1cf219fdc91879c0e00e0fce434ba2862bdf8892936e5cae507266a45e8",
      "assetIds": []
    },
    {
      "x": 369,
      "y": 264,
      "size": 1,
      "price": "1011000000000000000000",
      "reserved": "",
      "salt": "0x6da74ab974701febd9dbe2010b4bda32375f02a1d340fcbca5181a8da3b561e8",
      "assetIds": []
    },
    {
      "x": 369,
      "y": 265,
      "size": 1,
      "price": "1011000000000000000000",
      "reserved": "",
      "salt": "0xc02224f57b066e9ae61c1c8f0149126a0f1216edefebea97b0167fc949e041d7",
      "assetIds": []
    },
    {
      "x": 369,
      "y": 266,
      "size": 1,
      "price": "1011000000000000000000",
      "reserved": "",
      "salt": "0xc0177b9f94b9fa9b8625969d1c153b608be9aaf98c565a4107cf7de5a50a3e0f",
      "assetIds": []
    },
    {
      "x": 369,
      "y": 267,
      "size": 1,
      "price": "1011000000000000000000",
      "reserved": "",
      "salt": "0xa8bff59a6964f8979c42b71b4228d6cce93c6c9a44fa237b495609995eacff4d",
      "assetIds": []
    },
    {
      "x": 369,
      "y": 268,
      "size": 1,
      "price": "1011000000000000000000",
      "reserved": "",
      "salt": "0x54fdc8d0fff74d26b05ab3dd01545739ae03e8f650b6c4b86da7b7b31f93e25a",
      "assetIds": []
    },
    {
      "x": 369,
      "y": 269,
      "size": 1,
      "price": "1011000000000000000000",
      "reserved": "",
      "salt": "0x490b1e8868e39539c2b7e6c66af1a92a827db0ee9d150dc22ce609c52692a0fe",
      "assetIds": []
    },
    {
      "x": 369,
      "y": 288,
      "size": 1,
      "price": "1011000000000000000000",
      "reserved": "",
      "salt": "0x102cde14c463b19eea5ff5ed418e11bbff706dfb9c10857c834cb0201888ea19",
      "assetIds": []
    },
    {
      "x": 369,
      "y": 289,
      "size": 1,
      "price": "1011000000000000000000",
      "reserved": "",
      "salt": "0x61ab4f72c0d06935628884cf341ca4736da80287b2e6a3d2569e24cb78fabaa9",
      "assetIds": []
    },
    {
      "x": 369,
      "y": 290,
      "size": 1,
      "price": "1011000000000000000000",
      "reserved": "",
      "salt": "0x524caef9fa5954f26c57e8c88923a87f3c552e50122253b364e659d11c71196a",
      "assetIds": []
    },
    {
      "x": 369,
      "y": 291,
      "size": 1,
      "price": "1011000000000000000000",
      "reserved": "",
      "salt": "0x7a06ef3c0bcc55647a583200c1dea2528d55b7ffdb471bc6ff133bed6fe273c4",
      "assetIds": []
    },
    {
      "x": 369,
      "y": 292,
      "size": 1,
      "price": "1011000000000000000000",
      "reserved": "",
      "salt": "0x5e19e696360a04b4d10274926a94073193565e641331d2f0aeeeae4bd1f69a7e",
      "assetIds": []
    },
    {
      "x": 369,
      "y": 293,
      "size": 1,
      "price": "1011000000000000000000",
      "reserved": "",
      "salt": "0x12738b3a8029b45ebb3562e05b105f8d00e91af9b51c45eae6412cc923d2d118",
      "assetIds": []
    },
    {
      "x": 369,
      "y": 294,
      "size": 1,
      "price": "1011000000000000000000",
      "reserved": "",
      "salt": "0xe814850c269c893dd8e166a05ac2121f0b1a0320c6938d0a69d3e000e7c1205a",
      "assetIds": []
    },
    {
      "x": 369,
      "y": 295,
      "size": 1,
      "price": "1011000000000000000000",
      "reserved": "",
      "salt": "0xc90103dc349e9c16f73c5f704ed5ed0654e37f27cd89b31b88431e7cb7a9118c",
      "assetIds": []
    },
    {
      "x": 369,
      "y": 296,
      "size": 1,
      "price": "1011000000000000000000",
      "reserved": "",
      "salt": "0xebf46b77435c811c614287f8bb1c4970f76885cf25955b82883643a151fe3d81",
      "assetIds": []
    },
    {
      "x": 369,
      "y": 297,
      "size": 1,
      "price": "1011000000000000000000",
      "reserved": "",
      "salt": "0xf9a53a8842ab6b9e23aa68605db848dea90216791ed95c5a2f2cc85414fdcabf",
      "assetIds": []
    },
    {
      "x": 369,
      "y": 298,
      "size": 1,
      "price": "1011000000000000000000",
      "reserved": "",
      "salt": "0xc3b945e510546467a4a71c910abca4f4e5ed29cf7c48590f91dfe0ba4946e161",
      "assetIds": []
    },
    {
      "x": 369,
      "y": 299,
      "size": 1,
      "price": "1011000000000000000000",
      "reserved": "",
      "salt": "0xa420a3e262ca9dc1214362fc8a439119efecd638229350c2cbabce5c7ad6b5d2",
      "assetIds": []
    },
    {
      "x": 369,
      "y": 300,
      "size": 1,
      "price": "1011000000000000000000",
      "reserved": "",
      "salt": "0x6f6d24a432c754e6faf437cdec79581f433451ed70bffbcff7eb0b2d9f442e5d",
      "assetIds": []
    },
    {
      "x": 369,
      "y": 301,
      "size": 1,
      "price": "1011000000000000000000",
      "reserved": "",
      "salt": "0xa97437a8c7b0bdee06b7db446ed95b5578f14266ceda437eec0a6146d7ab13bb",
      "assetIds": []
    },
    {
      "x": 369,
      "y": 302,
      "size": 1,
      "price": "1011000000000000000000",
      "reserved": "",
      "salt": "0x011fa9c4b38cdbc5481410284f7e2aa848c0805b93517e2de0cf947af4f5be52",
      "assetIds": []
    },
    {
      "x": 369,
      "y": 303,
      "size": 1,
      "price": "1011000000000000000000",
      "reserved": "",
      "salt": "0xc8bcf048a8250b365ea9d84f4be9fe5b1dbf18bafc96aedc65ecbd0d6116ee7d",
      "assetIds": []
    },
    {
      "x": 369,
      "y": 304,
      "size": 1,
      "price": "1011000000000000000000",
      "reserved": "",
      "salt": "0x244bf0dbfa153d255691cc2abb945a79a59af55eb8c7a229b0f7462a298c1985",
      "assetIds": []
    },
    {
      "x": 369,
      "y": 305,
      "size": 1,
      "price": "1011000000000000000000",
      "reserved": "",
      "salt": "0x36bee56ae4063ba208da249355b88ae9bc7ee5ddfdf34b275b48f66fb459ab42",
      "assetIds": []
    },
    {
      "x": 370,
      "y": 231,
      "size": 1,
      "price": "1011000000000000000000",
      "reserved": "",
      "salt": "0x1b4e9f0a1f3e2ec560569adf4e795111924f4eae9e9d11766bf04e1b1633528e",
      "assetIds": []
    },
    {
      "x": 370,
      "y": 232,
      "size": 1,
      "price": "1011000000000000000000",
      "reserved": "0x7a9fe22691c811ea339d9b73150e6911a5343dca",
      "salt": "0x04b267499d6c0664a1ab9c852918a2fe414ffb0c383197df49d3c024e678c2be",
      "assetIds": []
    },
    {
      "x": 370,
      "y": 233,
      "size": 1,
      "price": "1011000000000000000000",
      "reserved": "",
      "salt": "0x2f8ca8860273cc457292ae891fffcc12889034c2c75e28a890adafbb7c7a8353",
      "assetIds": []
    },
    {
      "x": 370,
      "y": 234,
      "size": 1,
      "price": "1011000000000000000000",
      "reserved": "",
      "salt": "0x06cfa0ac01b2a8199aa44b632a657297b57be1e21db1161fcd56b151ee4e925c",
      "assetIds": []
    },
    {
      "x": 370,
      "y": 235,
      "size": 1,
      "price": "1011000000000000000000",
      "reserved": "",
      "salt": "0xc2c106acda9076935546b4adb8196574c143af05f5c519da4ed34be74ddffb04",
      "assetIds": []
    },
    {
      "x": 370,
      "y": 236,
      "size": 1,
      "price": "1011000000000000000000",
      "reserved": "",
      "salt": "0xd02c304c052c95f7abf646bd37354c690a1597e4fa2bfec38d76b56ce61af571",
      "assetIds": []
    },
    {
      "x": 370,
      "y": 237,
      "size": 1,
      "price": "1011000000000000000000",
      "reserved": "",
      "salt": "0x35dd9aad79801f036bdfd56536cbf92dd7d661e2d02c7297668f5a39af087df7",
      "assetIds": []
    },
    {
      "x": 370,
      "y": 238,
      "size": 1,
      "price": "1011000000000000000000",
      "reserved": "",
      "salt": "0x512c29ea10125828f67194ad99a877ddbe3ae4f42878438ec3f9b8c7f0e33a08",
      "assetIds": []
    },
    {
      "x": 370,
      "y": 239,
      "size": 1,
      "price": "1011000000000000000000",
      "reserved": "",
      "salt": "0xbf0467402ecd12e0b1f4e01c681c83c813f3bf3e10eee47151062b25703d6404",
      "assetIds": []
    },
    {
      "x": 370,
      "y": 264,
      "size": 1,
      "price": "1011000000000000000000",
      "reserved": "0x7a9fe22691c811ea339d9b73150e6911a5343dca",
      "salt": "0x58a18b4429a56df31ca46b10575e24a26fe48a6a9537ebe898ab24e0921ead82",
      "assetIds": []
    },
    {
      "x": 370,
      "y": 265,
      "size": 1,
      "price": "1011000000000000000000",
      "reserved": "",
      "salt": "0x5ffa2e0d1742236daee5a2501087dc49b8eeb4da27a79f4b6f8cc634c58d8028",
      "assetIds": []
    },
    {
      "x": 370,
      "y": 266,
      "size": 1,
      "price": "1011000000000000000000",
      "reserved": "",
      "salt": "0xe9ce2bc6a8069bc6bb12c37d59410a20aa67c59bb5abde1a594e58313bad0b87",
      "assetIds": []
    },
    {
      "x": 370,
      "y": 267,
      "size": 1,
      "price": "1011000000000000000000",
      "reserved": "",
      "salt": "0x72802812c9f4a4cf1da6a70dcbe4fabcc350806da6934c93d9664024292acca9",
      "assetIds": []
    },
    {
      "x": 370,
      "y": 268,
      "size": 1,
      "price": "1011000000000000000000",
      "reserved": "",
      "salt": "0x79f6134b821ab3f45ab6179101cc03ed83ae94880b901e7c70e0992076ea2e00",
      "assetIds": []
    },
    {
      "x": 370,
      "y": 269,
      "size": 1,
      "price": "1011000000000000000000",
      "reserved": "",
      "salt": "0xfef51de25f8f85369dc48942ef94968a7d634cd702702c3b51612bcb7757c1fd",
      "assetIds": []
    },
    {
      "x": 370,
      "y": 288,
      "size": 1,
      "price": "1011000000000000000000",
      "reserved": "",
      "salt": "0xe04b7f04757fab3b804a599f897f93377ec37afe6fda034b47b9da232442c77e",
      "assetIds": []
    },
    {
      "x": 370,
      "y": 289,
      "size": 1,
      "price": "1011000000000000000000",
      "reserved": "",
      "salt": "0x086dbb34948eea8d06c606342b52d496ed4c64401cd80d65942b0b639818801a",
      "assetIds": []
    },
    {
      "x": 370,
      "y": 290,
      "size": 1,
      "price": "1011000000000000000000",
      "reserved": "",
      "salt": "0xa2a8becbbe6c05296ed3d15b849b70205a284a34d0b976abedd2a6ac3037f54f",
      "assetIds": []
    },
    {
      "x": 370,
      "y": 291,
      "size": 1,
      "price": "1011000000000000000000",
      "reserved": "",
      "salt": "0xeae884852151fb5c4203fe790928acc2831c31bf9e150928ab7133b93a5661ef",
      "assetIds": []
    },
    {
      "x": 370,
      "y": 292,
      "size": 1,
      "price": "1011000000000000000000",
      "reserved": "",
      "salt": "0xdacd3328ec0a69e5784a211b7a9f8c561b58f3cfa95c04061c619e031224fde1",
      "assetIds": []
    },
    {
      "x": 370,
      "y": 293,
      "size": 1,
      "price": "1011000000000000000000",
      "reserved": "",
      "salt": "0xb71dc911e9b8531674b9ee24125f8f52e409393033c753edf1557804f0abc561",
      "assetIds": []
    },
    {
      "x": 370,
      "y": 294,
      "size": 1,
      "price": "1011000000000000000000",
      "reserved": "",
      "salt": "0xbaa786dcc0de56a8011865a5638dd66a9177ae88d31d54499f86dc27c4f80a76",
      "assetIds": []
    },
    {
      "x": 370,
      "y": 295,
      "size": 1,
      "price": "1011000000000000000000",
      "reserved": "",
      "salt": "0x2cf3a9f04b02085616b8791c04d35b1ce14f2fe82522656ad4a2ecea88891d48",
      "assetIds": []
    },
    {
      "x": 370,
      "y": 296,
      "size": 1,
      "price": "1011000000000000000000",
      "reserved": "",
      "salt": "0x7e7f70817d57ba180237ff31e0afbca0a7aaf8b8b8ac64e5633d0a1df1460fd3",
      "assetIds": []
    },
    {
      "x": 370,
      "y": 297,
      "size": 1,
      "price": "1011000000000000000000",
      "reserved": "",
      "salt": "0xf879a73aadb4ac2773032ff359df69c6071637fb6a89c44781fdea1f6ff45cc1",
      "assetIds": []
    },
    {
      "x": 370,
      "y": 298,
      "size": 1,
      "price": "1011000000000000000000",
      "reserved": "",
      "salt": "0x43ef0a549f31ed905fa8c78edd7443fa6806d35077412719e99376f1ba99d5c1",
      "assetIds": []
    },
    {
      "x": 370,
      "y": 299,
      "size": 1,
      "price": "1011000000000000000000",
      "reserved": "",
      "salt": "0x3391bb2f8ef8d534fa931f1b13c7a7c72824694435c46294e41698fe3bbe0da8",
      "assetIds": []
    },
    {
      "x": 370,
      "y": 300,
      "size": 1,
      "price": "1011000000000000000000",
      "reserved": "",
      "salt": "0xfe0a9a043e0769d04ad4a48fad23ea007027b67263b150dbee238df5618b734c",
      "assetIds": []
    },
    {
      "x": 370,
      "y": 301,
      "size": 1,
      "price": "1011000000000000000000",
      "reserved": "",
      "salt": "0x58fba5775feef2d503c68cdd1f54cdbbbdce0ca70cd108c2ea0902d0bc8f3a3d",
      "assetIds": []
    },
    {
      "x": 370,
      "y": 302,
      "size": 1,
      "price": "1011000000000000000000",
      "reserved": "",
      "salt": "0xbc8a6e5583c0313aa0ede402d76589c26e0bf082afc4cb49adfd26e06b825f57",
      "assetIds": []
    },
    {
      "x": 370,
      "y": 303,
      "size": 1,
      "price": "1011000000000000000000",
      "reserved": "",
      "salt": "0xc2b77937d1aaba464df7172f03e0d1160629fb135054a6283a3d1f8ca6e08c90",
      "assetIds": []
    },
    {
      "x": 370,
      "y": 304,
      "size": 1,
      "price": "1011000000000000000000",
      "reserved": "",
      "salt": "0x6817549e9d34a0fcb95961540a6996c525769632f0a6d0fbcc294d1b4601b92a",
      "assetIds": []
    },
    {
      "x": 370,
      "y": 305,
      "size": 1,
      "price": "1011000000000000000000",
      "reserved": "",
      "salt": "0x368bee179a9ff7f42e5eaa12d69a9dee82738a80f5c919c30d2d152fc1a8b902",
      "assetIds": []
    },
    {
      "x": 371,
      "y": 231,
      "size": 1,
      "price": "1011000000000000000000",
      "reserved": "",
      "salt": "0x0e19018ff34bff5d5f0de6e85eaad8200115916ca63d68e9d6322479e18a4b0a",
      "assetIds": []
    },
    {
      "x": 371,
      "y": 232,
      "size": 1,
      "price": "1011000000000000000000",
      "reserved": "",
      "salt": "0xc570576186a1521a442491e94f0f3b7c39178d3728e95e27494e5f3ced758add",
      "assetIds": []
    },
    {
      "x": 371,
      "y": 233,
      "size": 1,
      "price": "1011000000000000000000",
      "reserved": "",
      "salt": "0x7124c87961ffacecfbce06519a8c4445d4bd332d446c19f2c01a596f6a50b061",
      "assetIds": []
    },
    {
      "x": 371,
      "y": 234,
      "size": 1,
      "price": "1011000000000000000000",
      "reserved": "",
      "salt": "0xc7399146b1900b4633a925f918400fff1bc1ebd0a7c1c26bbaa9885658e4c6e2",
      "assetIds": []
    },
    {
      "x": 371,
      "y": 235,
      "size": 1,
      "price": "1011000000000000000000",
      "reserved": "",
      "salt": "0xb2d0dfe01ac08e59ce3f99351c69e7b1d5d2e1f4b7e1e843793e1e2cecdb602f",
      "assetIds": []
    },
    {
      "x": 371,
      "y": 236,
      "size": 1,
      "price": "1011000000000000000000",
      "reserved": "",
      "salt": "0x3929b379dbc12ca49f80f395c4f710199b6331d93f95eb71c1d11accbafb383e",
      "assetIds": []
    },
    {
      "x": 371,
      "y": 237,
      "size": 1,
      "price": "1011000000000000000000",
      "reserved": "",
      "salt": "0xd3338018a340918ba9e846b3b1f5243c4c503270d35be3fd216361e498eb7ff7",
      "assetIds": []
    },
    {
      "x": 371,
      "y": 238,
      "size": 1,
      "price": "1011000000000000000000",
      "reserved": "",
      "salt": "0x4f51268dc2f298e5f9a19e5e3c1cb8bc998df8328c63cccfed8f14ece4087977",
      "assetIds": []
    },
    {
      "x": 371,
      "y": 239,
      "size": 1,
      "price": "1011000000000000000000",
      "reserved": "",
      "salt": "0xfcc8e8c39741bcff54a7781cf3c9771a99556dd02549dcfeaea32a04613b385e",
      "assetIds": []
    },
    {
      "x": 371,
      "y": 264,
      "size": 1,
      "price": "1011000000000000000000",
      "reserved": "",
      "salt": "0x2d275de02c1bf170c92c92da94ae8e65109646efabedd49067ec7bc7e30f57d4",
      "assetIds": []
    },
    {
      "x": 371,
      "y": 265,
      "size": 1,
      "price": "1011000000000000000000",
      "reserved": "",
      "salt": "0x805a8785da7bec2aa2d59b13c28a01d8e1f6c4dd06c216d79770b15ced28cfe6",
      "assetIds": []
    },
    {
      "x": 371,
      "y": 266,
      "size": 1,
      "price": "1011000000000000000000",
      "reserved": "",
      "salt": "0x60d6bad73440339579ff638cd8f3b9da6dbccf16bd03e7023755c27f91424ea6",
      "assetIds": []
    },
    {
      "x": 371,
      "y": 267,
      "size": 1,
      "price": "1011000000000000000000",
      "reserved": "",
      "salt": "0xf331c780cee151ccc70e640a7e27c7da0bcac03c1c14bbd9592265edb279d694",
      "assetIds": []
    },
    {
      "x": 371,
      "y": 268,
      "size": 1,
      "price": "1011000000000000000000",
      "reserved": "",
      "salt": "0x09aba9a2ee5f1a5d331a189db28923ff18e265bef2c81b37f72d961569be6750",
      "assetIds": []
    },
    {
      "x": 371,
      "y": 269,
      "size": 1,
      "price": "1011000000000000000000",
      "reserved": "",
      "salt": "0x0f88c1b7768299e0eb5d2681354b8e4c2f73ffdb7f645b8b38200ed7f7c6ee17",
      "assetIds": []
    },
    {
      "x": 371,
      "y": 288,
      "size": 1,
      "price": "1011000000000000000000",
      "reserved": "",
      "salt": "0x382c0b9bbde50f1ad3a75bc43e096b2011343fd16be58a83e9b86d021a5d3009",
      "assetIds": []
    },
    {
      "x": 371,
      "y": 289,
      "size": 1,
      "price": "1011000000000000000000",
      "reserved": "",
      "salt": "0x716582c6fd8d1f7d3210cefc1374ff9d0d9342f17120e372331436b1b087785a",
      "assetIds": []
    },
    {
      "x": 371,
      "y": 290,
      "size": 1,
      "price": "1011000000000000000000",
      "reserved": "",
      "salt": "0x5178aa4d23a896756634d6daa948559c797e1b55236658df8a6916e747df1211",
      "assetIds": []
    },
    {
      "x": 371,
      "y": 291,
      "size": 1,
      "price": "1011000000000000000000",
      "reserved": "",
      "salt": "0x4ca6f304e07a851f574fe28668072371babfd9406327bcb1bf3200c351889507",
      "assetIds": []
    },
    {
      "x": 371,
      "y": 292,
      "size": 1,
      "price": "1011000000000000000000",
      "reserved": "",
      "salt": "0xa693853e961da8c3faf62267c1ca2b42c474e0f91940ce684759f2bfb01f37a8",
      "assetIds": []
    },
    {
      "x": 371,
      "y": 293,
      "size": 1,
      "price": "1011000000000000000000",
      "reserved": "",
      "salt": "0xf946904c88a18deaeb98f3d177d1621121612fd0347cd0571727152e0d102f20",
      "assetIds": []
    },
    {
      "x": 371,
      "y": 294,
      "size": 1,
      "price": "1011000000000000000000",
      "reserved": "0x7a9fe22691c811ea339d9b73150e6911a5343dca",
      "salt": "0x0e248cad30251fc7c9e64a9815e06ecc42786b77dd331abbaf1136ae57c09bfc",
      "assetIds": []
    },
    {
      "x": 371,
      "y": 295,
      "size": 1,
      "price": "1011000000000000000000",
      "reserved": "",
      "salt": "0xcef52f187ae977b04b2a738d6f4f364654c032f9c1ed19fffd396a22e75951d6",
      "assetIds": []
    },
    {
      "x": 371,
      "y": 296,
      "size": 1,
      "price": "1011000000000000000000",
      "reserved": "",
      "salt": "0x401552a1423f016fd0e15b1da4f7fced6059b5fca074bf0cc7e3ce2bdfe54bc2",
      "assetIds": []
    },
    {
      "x": 371,
      "y": 297,
      "size": 1,
      "price": "1011000000000000000000",
      "reserved": "",
      "salt": "0x34c6ba1ba108a9491e85b640aaf5ea12cbc48f15f14a7762843db97ff70b1f8b",
      "assetIds": []
    },
    {
      "x": 371,
      "y": 298,
      "size": 1,
      "price": "1011000000000000000000",
      "reserved": "",
      "salt": "0x6de81ad34d9e34c5633d62823f015fb048b505b581ea8ba6475cb229ce3b3d7e",
      "assetIds": []
    },
    {
      "x": 371,
      "y": 299,
      "size": 1,
      "price": "1011000000000000000000",
      "reserved": "",
      "salt": "0xcba1c4cf620f117f748035ef275146a8b9e329bc18e4283b33fb1bd4a59b50f9",
      "assetIds": []
    },
    {
      "x": 371,
      "y": 300,
      "size": 1,
      "price": "1011000000000000000000",
      "reserved": "",
      "salt": "0x3e15bdcf66fbcf2b8f29dccc37c37bfe19d0d8bac659994ff0c963b646a6a715",
      "assetIds": []
    },
    {
      "x": 371,
      "y": 301,
      "size": 1,
      "price": "1011000000000000000000",
      "reserved": "",
      "salt": "0x48e617cd7f428d9e01b84089cbeaa16a3c373c2d231b039786eef29ad06e0b7d",
      "assetIds": []
    },
    {
      "x": 371,
      "y": 302,
      "size": 1,
      "price": "1011000000000000000000",
      "reserved": "",
      "salt": "0x83c4e3e9aabe8111a54984cf8f8c04a6b2e219ee3de2ba7c91e34363446c6060",
      "assetIds": []
    },
    {
      "x": 371,
      "y": 303,
      "size": 1,
      "price": "1011000000000000000000",
      "reserved": "",
      "salt": "0x3526179730b6de8b6bf3e0fbd14737febc1d514df8ca466ba7cb38f3bd2d5a1e",
      "assetIds": []
    },
    {
      "x": 371,
      "y": 304,
      "size": 1,
      "price": "1011000000000000000000",
      "reserved": "",
      "salt": "0x7c911fe43ae6db5ebb8e3965dc2b4690d5c67b1522de13864e619a001c012387",
      "assetIds": []
    },
    {
      "x": 371,
      "y": 305,
      "size": 1,
      "price": "1011000000000000000000",
      "reserved": "",
      "salt": "0x4b55fa0d949d0bc168b5070ce43b92723f0ce25303aa6fd4b18d443bd70cc279",
      "assetIds": []
    },
    {
      "x": 372,
      "y": 231,
      "size": 1,
      "price": "1011000000000000000000",
      "reserved": "",
      "salt": "0xf8102e66afe7846c00ba67cebaedac89906f6b7fc7f0955b96f349e4649bbb26",
      "assetIds": []
    },
    {
      "x": 372,
      "y": 232,
      "size": 1,
      "price": "1011000000000000000000",
      "reserved": "",
      "salt": "0x7f2d3b39317b467b5e11d4b0736b06e877c2ef325ffbd7e66e3192b7ee52071f",
      "assetIds": []
    },
    {
      "x": 372,
      "y": 233,
      "size": 1,
      "price": "1011000000000000000000",
      "reserved": "",
      "salt": "0x4b78e5b51c3ccda0412d1c21c1a221032a2485b67f34e3ebcd04e3755008d4c5",
      "assetIds": []
    },
    {
      "x": 372,
      "y": 276,
      "size": 1,
      "price": "1011000000000000000000",
      "reserved": "",
      "salt": "0xad4fe6f3e7856845f398c3eaec6727e9f038bff43e761aa23a05c5ffd283f3d9",
      "assetIds": []
    },
    {
      "x": 372,
      "y": 277,
      "size": 1,
      "price": "1011000000000000000000",
      "reserved": "",
      "salt": "0x4ee5b168a7032b9ee8273f3219f550a78d6546f10510e94215d4229c7c171e3f",
      "assetIds": []
    },
    {
      "x": 372,
      "y": 278,
      "size": 1,
      "price": "1011000000000000000000",
      "reserved": "",
      "salt": "0xfa1442269aba06fb3bfa91727f30c464b6a4a4954a64ce73c8dfdd3f31f522e6",
      "assetIds": []
    },
    {
      "x": 372,
      "y": 279,
      "size": 1,
      "price": "1011000000000000000000",
      "reserved": "",
      "salt": "0x6826bb5543e39980d1284c4954bb860301a48b7d80d73fd8e04a595e4510d66b",
      "assetIds": []
    },
    {
      "x": 372,
      "y": 280,
      "size": 1,
      "price": "1011000000000000000000",
      "reserved": "",
      "salt": "0x0615201e57cd5df3e808fba057979d24d46eaee1b20a0c7dd889193da070a0ea",
      "assetIds": []
    },
    {
      "x": 372,
      "y": 281,
      "size": 1,
      "price": "1011000000000000000000",
      "reserved": "",
      "salt": "0x5cbf475812fb4f1b581a8c442f4c4566ae4a6269a824e7098c320b94a6b519a4",
      "assetIds": []
    },
    {
      "x": 372,
      "y": 288,
      "size": 1,
      "price": "1011000000000000000000",
      "reserved": "",
      "salt": "0x0e32998f8cfe8dcae96714e2e09d04bd0c82227b66d7384916f6e95df5face3b",
      "assetIds": []
    },
    {
      "x": 372,
      "y": 289,
      "size": 1,
      "price": "1011000000000000000000",
      "reserved": "",
      "salt": "0x74e9f2e6e5c4c890b3325e9800ee00d9483282e16c2ba2c4eb1d0c6cdf74bbf1",
      "assetIds": []
    },
    {
      "x": 372,
      "y": 290,
      "size": 1,
      "price": "1011000000000000000000",
      "reserved": "",
      "salt": "0x86fb37e1d59bb691d76b77f8ff4de7290c47de7eedf5ca758fef1442844e2fa5",
      "assetIds": []
    },
    {
      "x": 372,
      "y": 291,
      "size": 1,
      "price": "1011000000000000000000",
      "reserved": "",
      "salt": "0x8ba43dc4d9ec2073aed1f7a8ed2bf8864b52e90db9090098e7b22d9fc03c495c",
      "assetIds": []
    },
    {
      "x": 372,
      "y": 292,
      "size": 1,
      "price": "1011000000000000000000",
      "reserved": "",
      "salt": "0xd348eba23698a2472ab272c23721ca75a9f98e4defb016a436391de60057bec6",
      "assetIds": []
    },
    {
      "x": 372,
      "y": 293,
      "size": 1,
      "price": "1011000000000000000000",
      "reserved": "",
      "salt": "0x9b0b13e0d6b97d3558510a35da72d51caa79b97c3b487e69e4c98498f4f233de",
      "assetIds": []
    },
    {
      "x": 372,
      "y": 294,
      "size": 1,
      "price": "1011000000000000000000",
      "reserved": "",
      "salt": "0xc2218dee0e32fb8d16f2619883b18ca56b9a4ab339b5a772a39a60b22e56f27e",
      "assetIds": []
    },
    {
      "x": 372,
      "y": 295,
      "size": 1,
      "price": "1011000000000000000000",
      "reserved": "",
      "salt": "0xf7e56845449b1a242df0a501d4f688c6002ce58ae7e76e90f4c7c0a368159166",
      "assetIds": []
    },
    {
      "x": 372,
      "y": 296,
      "size": 1,
      "price": "1011000000000000000000",
      "reserved": "",
      "salt": "0x1cfd9d1c01b42e5cdd7b9ca1573d17cd46fbbd461f0684a7c9148ad40fec3403",
      "assetIds": []
    },
    {
      "x": 372,
      "y": 297,
      "size": 1,
      "price": "1011000000000000000000",
      "reserved": "",
      "salt": "0x16b7c29a450f1afc3229893a85629965dbd2c283f1732a8fc5722dc105887e71",
      "assetIds": []
    },
    {
      "x": 372,
      "y": 298,
      "size": 1,
      "price": "1011000000000000000000",
      "reserved": "",
      "salt": "0xdd5761ba6b226621cd9909b76c0f7a6def764ce0bb1e58b4b7b5c822a7c6bddc",
      "assetIds": []
    },
    {
      "x": 372,
      "y": 299,
      "size": 1,
      "price": "1011000000000000000000",
      "reserved": "",
      "salt": "0x1adb0ed52123344a1a19caab8ebab7ec54df5af5f297c604ca26213a71e2cc17",
      "assetIds": []
    },
    {
      "x": 372,
      "y": 300,
      "size": 1,
      "price": "1011000000000000000000",
      "reserved": "",
      "salt": "0x92564275d30c80b94acfb7c06ce41a203101b2a7ede34d9d44095b164687b088",
      "assetIds": []
    },
    {
      "x": 372,
      "y": 301,
      "size": 1,
      "price": "1011000000000000000000",
      "reserved": "",
      "salt": "0x8872f8077c7b89ac2622b5df644675a4610d1b209c79c362900af54a34729014",
      "assetIds": []
    },
    {
      "x": 372,
      "y": 302,
      "size": 1,
      "price": "1011000000000000000000",
      "reserved": "",
      "salt": "0x614634f2e9b3f490ffba6e59303d665f4b4143a91833a45b625580be2ea0e2da",
      "assetIds": []
    },
    {
      "x": 372,
      "y": 303,
      "size": 1,
      "price": "1011000000000000000000",
      "reserved": "",
      "salt": "0xa9710dd40aabfb83385adf192fb76e27ead67151d726c5d2d55f7b3f9cb58349",
      "assetIds": []
    },
    {
      "x": 372,
      "y": 304,
      "size": 1,
      "price": "1011000000000000000000",
      "reserved": "",
      "salt": "0x016ab9ff4e13b10b6e62d9a382d7d29fec0043197f1674cebd4f8912b714a718",
      "assetIds": []
    },
    {
      "x": 372,
      "y": 305,
      "size": 1,
      "price": "1011000000000000000000",
      "reserved": "",
      "salt": "0x9c50cd12b2c0fd7ccad42c986b61bfbed474bf1c03016ce9abf042651b24733a",
      "assetIds": []
    },
    {
      "x": 373,
      "y": 231,
      "size": 1,
      "price": "1011000000000000000000",
      "reserved": "",
      "salt": "0x6ab4537ef81d648e063a947c0a262589f391c99abc8729b8238d089b9f0c2aea",
      "assetIds": []
    },
    {
      "x": 373,
      "y": 232,
      "size": 1,
      "price": "1011000000000000000000",
      "reserved": "",
      "salt": "0xf560e04f3a148e013cffc70b33b8b74b1147e19bdb158a2e3fc3434c6a5df9cd",
      "assetIds": []
    },
    {
      "x": 373,
      "y": 233,
      "size": 1,
      "price": "1011000000000000000000",
      "reserved": "",
      "salt": "0x7b0a05da220cd32490df498899222c0ba30735100a714dab51d075949b1d2615",
      "assetIds": []
    },
    {
      "x": 373,
      "y": 276,
      "size": 1,
      "price": "1011000000000000000000",
      "reserved": "",
      "salt": "0x545076f3394d90df00c10ca077c28b9290d877ffa417e31681586f072d4754a1",
      "assetIds": []
    },
    {
      "x": 373,
      "y": 277,
      "size": 1,
      "price": "1011000000000000000000",
      "reserved": "0x7a9fe22691c811ea339d9b73150e6911a5343dca",
      "salt": "0xaeee64169158824316ff840532ce3f65aecf9b4ca2c557a82c0feec78ea19a90",
      "assetIds": []
    },
    {
      "x": 373,
      "y": 278,
      "size": 1,
      "price": "1011000000000000000000",
      "reserved": "",
      "salt": "0x33ecd24a3e85b58570bebb563493526ad491de46d86064b59a6b3cdbdb8888f9",
      "assetIds": []
    },
    {
      "x": 373,
      "y": 279,
      "size": 1,
      "price": "1011000000000000000000",
      "reserved": "",
      "salt": "0x68c07b7e16162a7419227cf5840fa6645bac3d1ed6f69753def99ced6b226772",
      "assetIds": []
    },
    {
      "x": 373,
      "y": 280,
      "size": 1,
      "price": "1011000000000000000000",
      "reserved": "",
      "salt": "0x642629fafd836b1f477a860dcbc37d302e931fd466a41b66f296e2eaa8c5ff41",
      "assetIds": []
    },
    {
      "x": 373,
      "y": 281,
      "size": 1,
      "price": "1011000000000000000000",
      "reserved": "",
      "salt": "0x71a64a8fb34b67e99a7956a0f75f8e57b6f63db982d5dc8ad89ccff871ed4ceb",
      "assetIds": []
    },
    {
      "x": 373,
      "y": 288,
      "size": 1,
      "price": "1011000000000000000000",
      "reserved": "",
      "salt": "0xa9d93cfc551dce6f90ef7b83ee7e0d8129de7d8cb2482a27ebab442d9d752534",
      "assetIds": []
    },
    {
      "x": 373,
      "y": 289,
      "size": 1,
      "price": "1011000000000000000000",
      "reserved": "",
      "salt": "0x33ffdbac61c045e4f4e5ec677afcf840682c6810999f6c6ec067d17027426789",
      "assetIds": []
    },
    {
      "x": 373,
      "y": 290,
      "size": 1,
      "price": "1011000000000000000000",
      "reserved": "",
      "salt": "0x43cd4ee3aba42899d808989c360b9960ecf577597d9ec1fe526b0b2b408d09a6",
      "assetIds": []
    },
    {
      "x": 373,
      "y": 291,
      "size": 1,
      "price": "1011000000000000000000",
      "reserved": "",
      "salt": "0x4a59c763020cf19f9ddb8a77992abf898b8150d61c255ff074da6bc5db02341b",
      "assetIds": []
    },
    {
      "x": 373,
      "y": 292,
      "size": 1,
      "price": "1011000000000000000000",
      "reserved": "",
      "salt": "0xf38cb5825c982ac072415541360f4f80a4dc5c16c152b5e17070da6258c366bb",
      "assetIds": []
    },
    {
      "x": 373,
      "y": 293,
      "size": 1,
      "price": "1011000000000000000000",
      "reserved": "",
      "salt": "0x96f0f5a1c58502f40c26275963a8a2827e5d44500a88f5e139e133284025c830",
      "assetIds": []
    },
    {
      "x": 373,
      "y": 294,
      "size": 1,
      "price": "1011000000000000000000",
      "reserved": "",
      "salt": "0x9d9a4907e0e65aa28d08510bd4052cfa0626a54366e320f3972001d2b70ffe44",
      "assetIds": []
    },
    {
      "x": 373,
      "y": 295,
      "size": 1,
      "price": "1011000000000000000000",
      "reserved": "",
      "salt": "0xa7037ea9cf61cfeee47548af1cb57fd7ee1a4e1388697f82de96214ed9f8740c",
      "assetIds": []
    },
    {
      "x": 373,
      "y": 296,
      "size": 1,
      "price": "1011000000000000000000",
      "reserved": "",
      "salt": "0x54786dbd27959db614d7d833d5cc1141d3ac709e189048f45270b6157c0c5b5f",
      "assetIds": []
    },
    {
      "x": 373,
      "y": 297,
      "size": 1,
      "price": "1011000000000000000000",
      "reserved": "",
      "salt": "0x1a7e3f18f57048ef5338d271a6bbf37deab7371056023b043f3df6539f7937af",
      "assetIds": []
    },
    {
      "x": 373,
      "y": 298,
      "size": 1,
      "price": "1011000000000000000000",
      "reserved": "",
      "salt": "0x380d9411f8d72e0e9262ef1249a5ff71e4d345906a50f124d110f8b7943a6b35",
      "assetIds": []
    },
    {
      "x": 373,
      "y": 299,
      "size": 1,
      "price": "1011000000000000000000",
      "reserved": "",
      "salt": "0xd5b52c56d5223a4ccc2bc1f8cc3dd9f29f8bc9a0e4ed0337c8613dda187ca531",
      "assetIds": []
    },
    {
      "x": 373,
      "y": 300,
      "size": 1,
      "price": "1011000000000000000000",
      "reserved": "",
      "salt": "0xc6390b80ac8db7c63c42ec532401322fa0fb35a4a389d31e5df7676f004de06d",
      "assetIds": []
    },
    {
      "x": 373,
      "y": 301,
      "size": 1,
      "price": "1011000000000000000000",
      "reserved": "",
      "salt": "0x47b0b306fbf07114f02c97d652f82a6badba2f7c977538b80974f6f6a3102396",
      "assetIds": []
    },
    {
      "x": 373,
      "y": 302,
      "size": 1,
      "price": "1011000000000000000000",
      "reserved": "",
      "salt": "0x89e9e1955ea09c1529ad0393aa86a0e3ba5b743a8027d1f17deaf40c2de09e78",
      "assetIds": []
    },
    {
      "x": 373,
      "y": 303,
      "size": 1,
      "price": "1011000000000000000000",
      "reserved": "",
      "salt": "0x698b26be8d73878f1cd6277e92114e6fd5f0de7751b11094738719c66044d425",
      "assetIds": []
    },
    {
      "x": 373,
      "y": 304,
      "size": 1,
      "price": "1011000000000000000000",
      "reserved": "",
      "salt": "0x084e435824672fc645c4cf76c3496f9706fc5ce709a5232ded5993d206f622d0",
      "assetIds": []
    },
    {
      "x": 373,
      "y": 305,
      "size": 1,
      "price": "1011000000000000000000",
      "reserved": "",
      "salt": "0x051dffe4b134e6d5ffbde693cba13db546e2a82667e7164905e9da6242d7e51c",
      "assetIds": []
    },
    {
      "x": 374,
      "y": 231,
      "size": 1,
      "price": "1011000000000000000000",
      "reserved": "",
      "salt": "0x3a8df0af2d1685683f35ad9e9e749547275dbd90ccb6102d6e7b426bcfa0570a",
      "assetIds": []
    },
    {
      "x": 374,
      "y": 232,
      "size": 1,
      "price": "1011000000000000000000",
      "reserved": "",
      "salt": "0xe2ee097cd07332f2834d6f1be4f95c6c48a0b07d221103c4b33bd3a8381b2e19",
      "assetIds": []
    },
    {
      "x": 374,
      "y": 233,
      "size": 1,
      "price": "1011000000000000000000",
      "reserved": "",
      "salt": "0x724772fea063efdf9f1a9cd7b74205d4557ddf9dd658b54b0348a07c849d2f65",
      "assetIds": []
    },
    {
      "x": 374,
      "y": 276,
      "size": 1,
      "price": "1011000000000000000000",
      "reserved": "",
      "salt": "0xefd8986480485c68167b8d01de018336123bb70c888f4ee4fe40446a3b8be55a",
      "assetIds": []
    },
    {
      "x": 374,
      "y": 277,
      "size": 1,
      "price": "1011000000000000000000",
      "reserved": "",
      "salt": "0x79b3c5598bb4f3020a1c52a89c5deb3e0bcddb835f51f550cac228dc85c1cfd6",
      "assetIds": []
    },
    {
      "x": 374,
      "y": 278,
      "size": 1,
      "price": "1011000000000000000000",
      "reserved": "",
      "salt": "0x0b583b50c954855b37d21ac26ab0a9568fa7a62d94cfb6e76de55b5bd04f4123",
      "assetIds": []
    },
    {
      "x": 374,
      "y": 279,
      "size": 1,
      "price": "1011000000000000000000",
      "reserved": "",
      "salt": "0xfb0b735c416e8c474ef2834820f0a3eef525e00a22784296667bf125cb2a3fd6",
      "assetIds": []
    },
    {
      "x": 374,
      "y": 280,
      "size": 1,
      "price": "1011000000000000000000",
      "reserved": "",
      "salt": "0x144815e4d6af3a736fdb0a9585faf50628f704f79963c08b5244b92788a44ec2",
      "assetIds": []
    },
    {
      "x": 374,
      "y": 281,
      "size": 1,
      "price": "1011000000000000000000",
      "reserved": "",
      "salt": "0xde80ea529759cd1f45fbb8fd3585192e8289d54e1b510a4ea295469e5cc2cef7",
      "assetIds": []
    },
    {
      "x": 374,
      "y": 288,
      "size": 1,
      "price": "1011000000000000000000",
      "reserved": "",
      "salt": "0xafc488f6751c399e0933d6e4a71905ee4fc599246da08dd2270407af546ce3c8",
      "assetIds": []
    },
    {
      "x": 374,
      "y": 289,
      "size": 1,
      "price": "1011000000000000000000",
      "reserved": "",
      "salt": "0xd891971a083fb6244ceacf01f6b8ac70b25a32ed4663e414f54946ff2eb9e7b0",
      "assetIds": []
    },
    {
      "x": 374,
      "y": 290,
      "size": 1,
      "price": "1011000000000000000000",
      "reserved": "",
      "salt": "0x383d6de2649a7980d276c7d50146eb2ced214b7b9d528e882bc81fd0ef46914b",
      "assetIds": []
    },
    {
      "x": 374,
      "y": 291,
      "size": 1,
      "price": "1011000000000000000000",
      "reserved": "",
      "salt": "0xd9fc209c68a5e3a149e09654d4d64fd7fde5389d8b5f88d498cd17239be1e6fe",
      "assetIds": []
    },
    {
      "x": 374,
      "y": 292,
      "size": 1,
      "price": "1011000000000000000000",
      "reserved": "",
      "salt": "0xd8e3a46dc448bdaebc229a863f0397c81b3f36583c30ce544299be580e9723fd",
      "assetIds": []
    },
    {
      "x": 374,
      "y": 293,
      "size": 1,
      "price": "1011000000000000000000",
      "reserved": "",
      "salt": "0x05330f67918a405e4b5853aead3f98596dc32da8ab0457f5f5c99da953fe87b2",
      "assetIds": []
    },
    {
      "x": 374,
      "y": 294,
      "size": 1,
      "price": "1011000000000000000000",
      "reserved": "",
      "salt": "0xb47645179c59de06606d83668a441ade7fba42b53c10dd21f3307eb8745f66b0",
      "assetIds": []
    },
    {
      "x": 374,
      "y": 295,
      "size": 1,
      "price": "1011000000000000000000",
      "reserved": "",
      "salt": "0x1d6d2c7dc9fd83268ac1b6214e3801d25280bc7231b881fc63a8291e0257a7f3",
      "assetIds": []
    },
    {
      "x": 374,
      "y": 296,
      "size": 1,
      "price": "1011000000000000000000",
      "reserved": "",
      "salt": "0x603df31873d16ff57ec6f55a49e353dc66ef8c608ea0165dfe6dc15f5ccf28c4",
      "assetIds": []
    },
    {
      "x": 374,
      "y": 297,
      "size": 1,
      "price": "1011000000000000000000",
      "reserved": "",
      "salt": "0x266455b6f89568d57a44ccc7a96b49cff29e9e76ffb0e753411036b6dbbf5c03",
      "assetIds": []
    },
    {
      "x": 374,
      "y": 298,
      "size": 1,
      "price": "1011000000000000000000",
      "reserved": "0x7a9fe22691c811ea339d9b73150e6911a5343dca",
      "salt": "0x4fd1cd38151ba768b95d5be9f56619dedd0dc42399cdc79d65b1aaeadb760962",
      "assetIds": []
    },
    {
      "x": 374,
      "y": 299,
      "size": 1,
      "price": "1011000000000000000000",
      "reserved": "",
      "salt": "0x3fae5f50d34c6db1857d3439f27e4b9e5a934b79a12bc3dd2dc9b6465fbbfafc",
      "assetIds": []
    },
    {
      "x": 374,
      "y": 300,
      "size": 1,
      "price": "1011000000000000000000",
      "reserved": "",
      "salt": "0xf7c0dcc25f362a6cb1d11b964386ccd257e425b4cc2eb85ebc63b02c286015c6",
      "assetIds": []
    },
    {
      "x": 374,
      "y": 301,
      "size": 1,
      "price": "1011000000000000000000",
      "reserved": "",
      "salt": "0x22085cfaac21659eee422f8be14fd30b2de72b1a716074d95ec345ac0bec4b38",
      "assetIds": []
    },
    {
      "x": 374,
      "y": 302,
      "size": 1,
      "price": "1011000000000000000000",
      "reserved": "",
      "salt": "0x51ab41e97d30d3d31e1d6a07f3f457b4327327906af61a533e4f83c83b3b43fe",
      "assetIds": []
    },
    {
      "x": 374,
      "y": 303,
      "size": 1,
      "price": "1011000000000000000000",
      "reserved": "",
      "salt": "0xad0cd62f7cbca0446c886fd4e352660e0319bbacfcb3ab1245fe7cf8564c9b98",
      "assetIds": []
    },
    {
      "x": 374,
      "y": 304,
      "size": 1,
      "price": "1011000000000000000000",
      "reserved": "0x7a9fe22691c811ea339d9b73150e6911a5343dca",
      "salt": "0xf2bbb741e8620d8d4ee020da1a60fbcbe6ccec86ccfe74443b228229c0546473",
      "assetIds": []
    },
    {
      "x": 374,
      "y": 305,
      "size": 1,
      "price": "1011000000000000000000",
      "reserved": "",
      "salt": "0x75cff77848fbc52732f7427d91ab18de9abfef05f8b631122c252b374becf1e6",
      "assetIds": []
    },
    {
      "x": 375,
      "y": 231,
      "size": 1,
      "price": "1011000000000000000000",
      "reserved": "",
      "salt": "0x990b0e727b55a4e7cfb42bee21c40d989f803d554d24b24c68cafafb263e5fdb",
      "assetIds": []
    },
    {
      "x": 375,
      "y": 232,
      "size": 1,
      "price": "1011000000000000000000",
      "reserved": "",
      "salt": "0x32ba6aa6098b5ab38d7700a5fb5ee327f923a59d986b8a73765d8575118c7a6c",
      "assetIds": []
    },
    {
      "x": 375,
      "y": 233,
      "size": 1,
      "price": "1011000000000000000000",
      "reserved": "",
      "salt": "0xec0c8645d766773eaa8e8765bb1079b22deb3e1f67ad85c5d874e1fc2fa4553f",
      "assetIds": []
    },
    {
      "x": 375,
      "y": 276,
      "size": 1,
      "price": "1011000000000000000000",
      "reserved": "",
      "salt": "0x79a09d2b7eee786fd1eeeec2c25b4ebdd5725eb99534decc85589d148d756bf5",
      "assetIds": []
    },
    {
      "x": 375,
      "y": 277,
      "size": 1,
      "price": "1011000000000000000000",
      "reserved": "",
      "salt": "0x7d8b6a355a9ac1d14178dda757ab047da4b3a7c9f68928c2c2d7a2a464a0f089",
      "assetIds": []
    },
    {
      "x": 375,
      "y": 278,
      "size": 1,
      "price": "1011000000000000000000",
      "reserved": "",
      "salt": "0x498b6ff774fdb93cbe5300dbd2b1aec8c693fbfe0e2702748467d076e4bbb597",
      "assetIds": []
    },
    {
      "x": 375,
      "y": 279,
      "size": 1,
      "price": "1011000000000000000000",
      "reserved": "",
      "salt": "0xdfc733b97cf2276e7bb2d895508cdc486baa55e13555b778eb590e1565204cab",
      "assetIds": []
    },
    {
      "x": 375,
      "y": 280,
      "size": 1,
      "price": "1011000000000000000000",
      "reserved": "",
      "salt": "0x0243cd25451811ed47a32f4dc44a097184546a2acd9041d33641e7674fa8a3eb",
      "assetIds": []
    },
    {
      "x": 375,
      "y": 281,
      "size": 1,
      "price": "1011000000000000000000",
      "reserved": "",
      "salt": "0x233fa3641f6b26ebb9274276f87221b607f5f75f474b4ae88fe223e421f392c1",
      "assetIds": []
    },
    {
      "x": 375,
      "y": 288,
      "size": 1,
      "price": "1011000000000000000000",
      "reserved": "",
      "salt": "0xe49479b8fc30f5d00358991d7c8a9f38209bbdbf3c3d84c67d78adc627206077",
      "assetIds": []
    },
    {
      "x": 375,
      "y": 289,
      "size": 1,
      "price": "1011000000000000000000",
      "reserved": "",
      "salt": "0xfdf75b7df44003f3d59dac7200badd950e43689b464f8e6ea22f65d71d23c6c6",
      "assetIds": []
    },
    {
      "x": 375,
      "y": 290,
      "size": 1,
      "price": "1011000000000000000000",
      "reserved": "",
      "salt": "0x5ba32a5fcafdc9e1b459f86d1e93c4dd2ff066249c8ff93fb915d1f1e9f9246a",
      "assetIds": []
    },
    {
      "x": 375,
      "y": 291,
      "size": 1,
      "price": "1011000000000000000000",
      "reserved": "",
      "salt": "0x2c9b554c12a80832b91b7627a0ba11643a2165ed858f8e820285a818e5e57542",
      "assetIds": []
    },
    {
      "x": 375,
      "y": 292,
      "size": 1,
      "price": "1011000000000000000000",
      "reserved": "",
      "salt": "0x1a6f18fa017a4aaa60af20938b3b172adc16532a237da01115ebebda0890e983",
      "assetIds": []
    },
    {
      "x": 375,
      "y": 293,
      "size": 1,
      "price": "1011000000000000000000",
      "reserved": "",
      "salt": "0x899d1eb49bed9ca77086ab7bcb983b8bebcb37210f128f562ade5038cf9bd360",
      "assetIds": []
    },
    {
      "x": 375,
      "y": 294,
      "size": 1,
      "price": "1011000000000000000000",
      "reserved": "",
      "salt": "0x1f262507b38da89d33c0f64cdd624dec54a60d3849bf4016e06ff2aa14ae3c1d",
      "assetIds": []
    },
    {
      "x": 375,
      "y": 295,
      "size": 1,
      "price": "1011000000000000000000",
      "reserved": "",
      "salt": "0xc55810a2a132f09e7f5ed8fda09ae71c09bfec1e1bf93cceb2eb54172759f3a9",
      "assetIds": []
    },
    {
      "x": 375,
      "y": 296,
      "size": 1,
      "price": "1011000000000000000000",
      "reserved": "",
      "salt": "0xfb7f441e09fa557e3fc723444d602badd064f6f39f9a395906c597b6c7f2264a",
      "assetIds": []
    },
    {
      "x": 375,
      "y": 297,
      "size": 1,
      "price": "1011000000000000000000",
      "reserved": "",
      "salt": "0x6bc402758787992e581a45bf194dd03c6d7a26f4e3506627a4c9f9ab6ed4d59a",
      "assetIds": []
    },
    {
      "x": 375,
      "y": 298,
      "size": 1,
      "price": "1011000000000000000000",
      "reserved": "",
      "salt": "0x05987f8b49711c4645bdc5ae11f14d1e72fa97ed21f997077b9a4a0e0ae941bc",
      "assetIds": []
    },
    {
      "x": 375,
      "y": 299,
      "size": 1,
      "price": "1011000000000000000000",
      "reserved": "",
      "salt": "0x13bb43f06f8803dd58c435fb06a90c5bf14c38ce7d263bf3987e006017acae11",
      "assetIds": []
    },
    {
      "x": 375,
      "y": 300,
      "size": 1,
      "price": "1011000000000000000000",
      "reserved": "",
      "salt": "0x1afea338ae9a77724fda12ac8cea8e82d9563ee108cc868f5f03827cc3da7d5b",
      "assetIds": []
    },
    {
      "x": 375,
      "y": 301,
      "size": 1,
      "price": "1011000000000000000000",
      "reserved": "",
      "salt": "0x297a9900f895c079b194cc5f9e781c881b8e2d20154cf1dd000029824f058654",
      "assetIds": []
    },
    {
      "x": 375,
      "y": 302,
      "size": 1,
      "price": "1011000000000000000000",
      "reserved": "",
      "salt": "0x788d4a70d933d8a285f2bb1a1c9b56080646149df545f0d3c6e3802430283a0c",
      "assetIds": []
    },
    {
      "x": 375,
      "y": 303,
      "size": 1,
      "price": "1011000000000000000000",
      "reserved": "",
      "salt": "0xf54d0ca2dccf619b963e7b722f3bd6222b5fc6e8ea6e1a68fd935f8c58e37faa",
      "assetIds": []
    },
    {
      "x": 375,
      "y": 304,
      "size": 1,
      "price": "1011000000000000000000",
      "reserved": "",
      "salt": "0x81943848d43bec63f598d0d1fc39665b587569454f023109707e1d9c0e762415",
      "assetIds": []
    },
    {
      "x": 375,
      "y": 305,
      "size": 1,
      "price": "1011000000000000000000",
      "reserved": "",
      "salt": "0x5fb57ba6ba3d421a38e68320a0e550dfc0b98045b76e5c8a0d6cdd02a802b2fb",
      "assetIds": []
    },
    {
      "x": 376,
      "y": 231,
      "size": 1,
      "price": "1011000000000000000000",
      "reserved": "",
      "salt": "0x64929d95db90d82a628ce6bcf279252f2f6e284223670e47b2b222d8b90bbb43",
      "assetIds": []
    },
    {
      "x": 376,
      "y": 232,
      "size": 1,
      "price": "1011000000000000000000",
      "reserved": "",
      "salt": "0xe50f469c47e904b1c1fb7e254488ff9509da70c384b44ec5a92348d6560b571b",
      "assetIds": []
    },
    {
      "x": 376,
      "y": 233,
      "size": 1,
      "price": "1011000000000000000000",
      "reserved": "",
      "salt": "0xbcdd3b4b069939dcc9a837af0206738080a107abc5bc10331b1f7f32a09e5db5",
      "assetIds": []
    },
    {
      "x": 376,
      "y": 276,
      "size": 1,
      "price": "1011000000000000000000",
      "reserved": "",
      "salt": "0x96c8ca8e1d812760bbb622ad9ba7255462b3810ccc28fb29674bd5e858b0156b",
      "assetIds": []
    },
    {
      "x": 376,
      "y": 277,
      "size": 1,
      "price": "1011000000000000000000",
      "reserved": "",
      "salt": "0x65f0e86a69ea683e0608f29d7cc0bfdf83cbfc1edc47f31156eb1d09cb2eddb9",
      "assetIds": []
    },
    {
      "x": 376,
      "y": 278,
      "size": 1,
      "price": "1011000000000000000000",
      "reserved": "",
      "salt": "0x9f1780ccdd7fd4957163f3236307858f63099d9ebe5e53c5b19668a3bc160695",
      "assetIds": []
    },
    {
      "x": 376,
      "y": 279,
      "size": 1,
      "price": "1011000000000000000000",
      "reserved": "",
      "salt": "0xf39c52880ac988a58e3e8619dd11a6f1c78b1efaa775315bb5bce71a5ce67db5",
      "assetIds": []
    },
    {
      "x": 376,
      "y": 280,
      "size": 1,
      "price": "1011000000000000000000",
      "reserved": "",
      "salt": "0x1b7cd228f751ed7530623c43fe6575a58db1d53512401db4be91ce24db6f919b",
      "assetIds": []
    },
    {
      "x": 376,
      "y": 281,
      "size": 1,
      "price": "1011000000000000000000",
      "reserved": "",
      "salt": "0x8a6d6e6a98764886ac470a766401df44d59a4b531f9255523cec97758cf6dd69",
      "assetIds": []
    },
    {
      "x": 376,
      "y": 288,
      "size": 1,
      "price": "1011000000000000000000",
      "reserved": "",
      "salt": "0xf6e885047350c19794ddfb70fa992fe052b69dff4d01c6d14ae0e7a6c48d5ed9",
      "assetIds": []
    },
    {
      "x": 376,
      "y": 289,
      "size": 1,
      "price": "1011000000000000000000",
      "reserved": "",
      "salt": "0x487bdc232db0259a68e61467e42fa0910c293832eda2198b555889d6ad3f1e0a",
      "assetIds": []
    },
    {
      "x": 376,
      "y": 290,
      "size": 1,
      "price": "1011000000000000000000",
      "reserved": "",
      "salt": "0x180e5a3d6940b5b79efdc4d62761aac8e0937825e24f0bee36114f13119e319d",
      "assetIds": []
    },
    {
      "x": 376,
      "y": 291,
      "size": 1,
      "price": "1011000000000000000000",
      "reserved": "",
      "salt": "0x48bfc4cf3e1c5d8878cd109c5d6574c6865f3eb61d0e25f043de3622f2e614f1",
      "assetIds": []
    },
    {
      "x": 376,
      "y": 292,
      "size": 1,
      "price": "1011000000000000000000",
      "reserved": "",
      "salt": "0xa248b632c9c4398acf15dfbc7c7c63857bc2960b34731c28ad0c1aea63cf0cb4",
      "assetIds": []
    },
    {
      "x": 376,
      "y": 293,
      "size": 1,
      "price": "1011000000000000000000",
      "reserved": "",
      "salt": "0x5da219e9e90d23fe05a64ad70c7dcbd95f11c47a17f0df68fe3b535fa353f212",
      "assetIds": []
    },
    {
      "x": 376,
      "y": 294,
      "size": 1,
      "price": "1011000000000000000000",
      "reserved": "",
      "salt": "0x7c420307f31656e827fe5266b114a714db41a935649e4b36c46379a695a23d0a",
      "assetIds": []
    },
    {
      "x": 376,
      "y": 295,
      "size": 1,
      "price": "1011000000000000000000",
      "reserved": "",
      "salt": "0x947f5d5b23d93d02ebf0d31f403e83c1dd6eb0acdba6e74b0a7ebd7c9ba8691a",
      "assetIds": []
    },
    {
      "x": 376,
      "y": 296,
      "size": 1,
      "price": "1011000000000000000000",
      "reserved": "",
      "salt": "0x3aec2c18713e3a6ea9ca1f69e15fb51d3227e877bee91045be63346f9800f9aa",
      "assetIds": []
    },
    {
      "x": 376,
      "y": 297,
      "size": 1,
      "price": "1011000000000000000000",
      "reserved": "",
      "salt": "0x9f3d8b5bff6a340b1648fbf332b2482d10dcbc5bddfc6c49ac622a6ba212a91e",
      "assetIds": []
    },
    {
      "x": 376,
      "y": 298,
      "size": 1,
      "price": "1011000000000000000000",
      "reserved": "",
      "salt": "0xd13d16b74b6a1c6c0f541e97b13010f5e8966f67541ab1a28ab5476901b7271f",
      "assetIds": []
    },
    {
      "x": 376,
      "y": 299,
      "size": 1,
      "price": "1011000000000000000000",
      "reserved": "",
      "salt": "0xb7cc37ad3a6b23ea17823cb45a1317fe398c6bcbf0f06be43e037b11e70303db",
      "assetIds": []
    },
    {
      "x": 376,
      "y": 300,
      "size": 1,
      "price": "1011000000000000000000",
      "reserved": "",
      "salt": "0xe6f5dd6a829660a38b960e1c3e37a20fd789c737b7554cfdb3cb8544f86dda23",
      "assetIds": []
    },
    {
      "x": 376,
      "y": 301,
      "size": 1,
      "price": "1011000000000000000000",
      "reserved": "",
      "salt": "0x3ffd33d131ecb4f16eead9a3135010003ca4573e23d4a12cb8ede46f15ef5ac4",
      "assetIds": []
    },
    {
      "x": 376,
      "y": 302,
      "size": 1,
      "price": "1011000000000000000000",
      "reserved": "",
      "salt": "0x8ee9efc8609ecc5d7d916a507bac286ac8513699c71803014dde4cf5f1c19f48",
      "assetIds": []
    },
    {
      "x": 376,
      "y": 303,
      "size": 1,
      "price": "1011000000000000000000",
      "reserved": "",
      "salt": "0x3462239fc235e2d28e850395db0393efa82c56d8e7ad0511e90bf3b5808e2f57",
      "assetIds": []
    },
    {
      "x": 376,
      "y": 304,
      "size": 1,
      "price": "1011000000000000000000",
      "reserved": "",
      "salt": "0x6b40d19196147c6b3428885c6f7f815503410c64cc9eab9ba7722eaad11dfef9",
      "assetIds": []
    },
    {
      "x": 376,
      "y": 305,
      "size": 1,
      "price": "1011000000000000000000",
      "reserved": "",
      "salt": "0x436201bc3727d3bf09daded273e15dbab7a645ea9f1b2a2c410e9f103efaeb60",
      "assetIds": []
    },
    {
      "x": 377,
      "y": 231,
      "size": 1,
      "price": "1011000000000000000000",
      "reserved": "",
      "salt": "0x722021f58d3130f4fcce70981d615149a981125e5b800eeed48cb05c57d7a11c",
      "assetIds": []
    },
    {
      "x": 377,
      "y": 232,
      "size": 1,
      "price": "1011000000000000000000",
      "reserved": "",
      "salt": "0xacdc6a2efd358932f96df1335bd1a5b65d9e279387d83974d57e48ea1196bc01",
      "assetIds": []
    },
    {
      "x": 377,
      "y": 233,
      "size": 1,
      "price": "1011000000000000000000",
      "reserved": "",
      "salt": "0xb04e5e6c8b06daa33ed1f6bcf48e4e4639ba0543c062c2d9aab1f5633a09b404",
      "assetIds": []
    },
    {
      "x": 377,
      "y": 276,
      "size": 1,
      "price": "1011000000000000000000",
      "reserved": "",
      "salt": "0x53e9bbf973f00758ab36d9a8ea12d28bb5de5d1b594a2af738323f9060510e43",
      "assetIds": []
    },
    {
      "x": 377,
      "y": 277,
      "size": 1,
      "price": "1011000000000000000000",
      "reserved": "",
      "salt": "0x47085befb8744ba3cb753279f6c0564ac61c88d296516f575f4f162010cbb88a",
      "assetIds": []
    },
    {
      "x": 377,
      "y": 278,
      "size": 1,
      "price": "1011000000000000000000",
      "reserved": "",
      "salt": "0xc8c66be9862f2147ef8adc863c696442bf3130c26fb5d26e25578d3bc5076fa0",
      "assetIds": []
    },
    {
      "x": 377,
      "y": 279,
      "size": 1,
      "price": "1011000000000000000000",
      "reserved": "",
      "salt": "0xbcf5b73459eba84c66e8dee1b7ca350ea21aa6b5cd9dd221b250858808cb5b04",
      "assetIds": []
    },
    {
      "x": 377,
      "y": 280,
      "size": 1,
      "price": "1011000000000000000000",
      "reserved": "",
      "salt": "0x9d26bbd8e420d39b6c0a25118d26823b37d22ea7f3766df7a1dea2e77e0ddccb",
      "assetIds": []
    },
    {
      "x": 377,
      "y": 281,
      "size": 1,
      "price": "1011000000000000000000",
      "reserved": "",
      "salt": "0x2829cbbc119175ddcdd0517bbd91f74f78bb24e7a32d36d0d3e01d15a62e27cc",
      "assetIds": []
    },
    {
      "x": 377,
      "y": 288,
      "size": 1,
      "price": "1011000000000000000000",
      "reserved": "",
      "salt": "0x8a7cbe79064ab83d332e34b5cd9bd36dbdbaa77f01ea7f28b18b6a41b7a9d59f",
      "assetIds": []
    },
    {
      "x": 377,
      "y": 289,
      "size": 1,
      "price": "1011000000000000000000",
      "reserved": "",
      "salt": "0xbd42481a47a6744ff103936aeefb585487b86e3e3a2f77e7aa5fc799f97dd63b",
      "assetIds": []
    },
    {
      "x": 377,
      "y": 290,
      "size": 1,
      "price": "1011000000000000000000",
      "reserved": "",
      "salt": "0x95a8f57d52ceaf29762101f7dc50dba20fb8f626723a2280495267a0c5dff6b4",
      "assetIds": []
    },
    {
      "x": 377,
      "y": 291,
      "size": 1,
      "price": "1011000000000000000000",
      "reserved": "",
      "salt": "0xf815fe461b5a27fe0af65b9107e72cbf9c09c7a1e9fdf8506bc5fabbd2906abd",
      "assetIds": []
    },
    {
      "x": 377,
      "y": 292,
      "size": 1,
      "price": "1011000000000000000000",
      "reserved": "",
      "salt": "0x7d3c93792be38c63f7d553c4bc12a3a457436929804d361c0621c0c71e869991",
      "assetIds": []
    },
    {
      "x": 377,
      "y": 293,
      "size": 1,
      "price": "1011000000000000000000",
      "reserved": "",
      "salt": "0x5381a9859985d9c13bb7d6771b00c9629f1adfa9d476e549c4fa045d90209f18",
      "assetIds": []
    },
    {
      "x": 377,
      "y": 294,
      "size": 1,
      "price": "1011000000000000000000",
      "reserved": "",
      "salt": "0x8fd7a37cfe691b58615cb3c94a6f85b569fe1e42e9d5c040fc419caa1674fc6d",
      "assetIds": []
    },
    {
      "x": 377,
      "y": 295,
      "size": 1,
      "price": "1011000000000000000000",
      "reserved": "",
      "salt": "0x730b683aa177bf32d295f1e0db4d2fd4ce3ffa6295471d1979e473be86c42432",
      "assetIds": []
    },
    {
      "x": 377,
      "y": 296,
      "size": 1,
      "price": "1011000000000000000000",
      "reserved": "",
      "salt": "0x2b8cb190b71f6cfaf62b5719ab309ac18e37b59ab5f441e94b17989999a7b53c",
      "assetIds": []
    },
    {
      "x": 377,
      "y": 297,
      "size": 1,
      "price": "1011000000000000000000",
      "reserved": "",
      "salt": "0x36d5e3eab1c90dfe9ba846da7fc45f9aeef172e763044fdec4b7e1c6799da594",
      "assetIds": []
    },
    {
      "x": 377,
      "y": 298,
      "size": 1,
      "price": "1011000000000000000000",
      "reserved": "",
      "salt": "0x79b26bac1813beca88494fbb10858d14be12c33b008628371a11b79d6aa81cc0",
      "assetIds": []
    },
    {
      "x": 377,
      "y": 299,
      "size": 1,
      "price": "1011000000000000000000",
      "reserved": "",
      "salt": "0x16e5cbc1b08e8f0bf519119267958a20fd39bf410f941737b16342221745cc2f",
      "assetIds": []
    },
    {
      "x": 377,
      "y": 300,
      "size": 1,
      "price": "1011000000000000000000",
      "reserved": "",
      "salt": "0x5cb3db71e160401c212f65424cf65840a46f543806e985de00e566a7ca630696",
      "assetIds": []
    },
    {
      "x": 377,
      "y": 301,
      "size": 1,
      "price": "1011000000000000000000",
      "reserved": "",
      "salt": "0x6a2ac7e426f96f56be4d59b77ad64c3e7d61ab800c83e9e490864b3bbc1f2f8e",
      "assetIds": []
    },
    {
      "x": 377,
      "y": 302,
      "size": 1,
      "price": "1011000000000000000000",
      "reserved": "",
      "salt": "0x8254abbfa8a44f9a379e7d39967e1c96068027c2814a876da3be3c7d326db0c8",
      "assetIds": []
    },
    {
      "x": 377,
      "y": 303,
      "size": 1,
      "price": "1011000000000000000000",
      "reserved": "",
      "salt": "0xb5bc2f32a7766bb685039a7651af7c31522ee5b9ec4a2eac54c3026c4ba432d8",
      "assetIds": []
    },
    {
      "x": 377,
      "y": 304,
      "size": 1,
      "price": "1011000000000000000000",
      "reserved": "",
      "salt": "0x479b16a37771bffc0650d9f7e66e45332f412ae1203cbcd2f0aff5284154d7b3",
      "assetIds": []
    },
    {
      "x": 377,
      "y": 305,
      "size": 1,
      "price": "1011000000000000000000",
      "reserved": "",
      "salt": "0xbd1d4c46732334cdc86f15fc9e13a48804b57b42b4df0e00df699a70fa911437",
      "assetIds": []
    },
    {
      "x": 378,
      "y": 228,
      "size": 1,
      "price": "1011000000000000000000",
      "reserved": "",
      "salt": "0x7495fd2119e19d4b422290a2a59c4f9c6b21ddc5be1204e42e572a7c13479e0a",
      "assetIds": []
    },
    {
      "x": 378,
      "y": 229,
      "size": 1,
      "price": "1011000000000000000000",
      "reserved": "",
      "salt": "0x147fb2615000dddb8d40e45286460e3c0d0eee804f7c1af9bd88ff83d8cd09a3",
      "assetIds": []
    },
    {
      "x": 378,
      "y": 230,
      "size": 1,
      "price": "1011000000000000000000",
      "reserved": "",
      "salt": "0xa1a4e3bbc5d4ad81b2dc6e5d2e1bfa14ead3a3b89f73385dfc5caa3a320f3d20",
      "assetIds": []
    },
    {
      "x": 378,
      "y": 234,
      "size": 1,
      "price": "1011000000000000000000",
      "reserved": "",
      "salt": "0x8145a952ea58cb3623ced8e73c321d0ac7f9e28290924854061e0a432dd90b6d",
      "assetIds": []
    },
    {
      "x": 378,
      "y": 235,
      "size": 1,
      "price": "1011000000000000000000",
      "reserved": "",
      "salt": "0x1de66845302002e84389032ee8eaee81c0c840b7d0bdb7e837114da8da4e3f25",
      "assetIds": []
    },
    {
      "x": 378,
      "y": 236,
      "size": 1,
      "price": "1011000000000000000000",
      "reserved": "",
      "salt": "0xe7fee7dd85a73e5a00e12b033df07604ae29ba18dfd04f2eee1caf421618f31e",
      "assetIds": []
    },
    {
      "x": 378,
      "y": 237,
      "size": 1,
      "price": "1011000000000000000000",
      "reserved": "",
      "salt": "0x2584e6ed4b825ce86ec0ac979866bbf97bc6e170a3d14608a9e7cc526a0d4cbd",
      "assetIds": []
    },
    {
      "x": 378,
      "y": 238,
      "size": 1,
      "price": "1011000000000000000000",
      "reserved": "",
      "salt": "0x26af4f372a8b1adc4b1a0320aa98fdc4ba53611eebb4e0712fb356468defd891",
      "assetIds": []
    },
    {
      "x": 378,
      "y": 239,
      "size": 1,
      "price": "1011000000000000000000",
      "reserved": "",
      "salt": "0xa6df91a2ef5021f307ac84fdebdbe0583adcd562e4ef33f056135e0d64d8b4b0",
      "assetIds": []
    },
    {
      "x": 378,
      "y": 282,
      "size": 1,
      "price": "1011000000000000000000",
      "reserved": "",
      "salt": "0xe9bafc96f26e305e5683ade1e2b385f052fca5353842a5d75f44a025e7eba85b",
      "assetIds": []
    },
    {
      "x": 378,
      "y": 283,
      "size": 1,
      "price": "1011000000000000000000",
      "reserved": "",
      "salt": "0xb4df42d815f120d55be1132cc120e1f39d170d9551fb23e96223b9fb859cb7f9",
      "assetIds": []
    },
    {
      "x": 378,
      "y": 284,
      "size": 1,
      "price": "1011000000000000000000",
      "reserved": "",
      "salt": "0xc2bfa6035b00c448776280214a04ad12c165e45a0626de7e280002ccddb998e9",
      "assetIds": []
    },
    {
      "x": 378,
      "y": 288,
      "size": 1,
      "price": "1011000000000000000000",
      "reserved": "",
      "salt": "0xdf11cb6aeb2af6f2f9f35147cb20aed6cd8d39556b0082e8d1839fd878e92e9a",
      "assetIds": []
    },
    {
      "x": 378,
      "y": 289,
      "size": 1,
      "price": "1011000000000000000000",
      "reserved": "",
      "salt": "0x760562be9060a64d1d21dc4852eaf879d46e7d80768cad98b4d9933790d43a7e",
      "assetIds": []
    },
    {
      "x": 378,
      "y": 290,
      "size": 1,
      "price": "1011000000000000000000",
      "reserved": "",
      "salt": "0xdbbda5dd13acef88f872da69dd091d069f1f92802012adca0f047f6ce7797dd4",
      "assetIds": []
    },
    {
      "x": 378,
      "y": 300,
      "size": 1,
      "price": "1011000000000000000000",
      "reserved": "",
      "salt": "0x245e957839fb9c57e9d00be0a33bbd3e40d9c28531f334e32d81a96a643b044e",
      "assetIds": []
    },
    {
      "x": 378,
      "y": 301,
      "size": 1,
      "price": "1011000000000000000000",
      "reserved": "",
      "salt": "0x5e5b33535e8265a770f019c98a39a3f11034bbc5b3f6b6caf14265c9bef14749",
      "assetIds": []
    },
    {
      "x": 378,
      "y": 302,
      "size": 1,
      "price": "1011000000000000000000",
      "reserved": "",
      "salt": "0x4288c8bc4dc641b2854dbad22286b6dc48128d9afc865b231c28dbc50d35046e",
      "assetIds": []
    },
    {
      "x": 378,
      "y": 303,
      "size": 1,
      "price": "1011000000000000000000",
      "reserved": "",
      "salt": "0xb4d6f7001c9549682944049b80794aef707449b9d7fde4e9daca289518db1e29",
      "assetIds": []
    },
    {
      "x": 378,
      "y": 304,
      "size": 1,
      "price": "1011000000000000000000",
      "reserved": "",
      "salt": "0xce8dd41f91af2fc19d3718f45c270f828b447f928f65329ad9f446a1d45b3dd7",
      "assetIds": []
    },
    {
      "x": 378,
      "y": 305,
      "size": 1,
      "price": "1011000000000000000000",
      "reserved": "",
      "salt": "0x6f3c599395632cbab7d7c40f3674669486162b40e581e86ae9519367c79ce41c",
      "assetIds": []
    },
    {
      "x": 379,
      "y": 228,
      "size": 1,
      "price": "1011000000000000000000",
      "reserved": "",
      "salt": "0x889d4943faccf22d16c44836285ee261ae6d9e15ad0a936ca3df5918bcf7e95a",
      "assetIds": []
    },
    {
      "x": 379,
      "y": 229,
      "size": 1,
      "price": "1011000000000000000000",
      "reserved": "",
      "salt": "0xae7c93ce6129144c4d76f6a7419e8c5d22e7528044fd7686a9f9241da0c62d0c",
      "assetIds": []
    },
    {
      "x": 379,
      "y": 230,
      "size": 1,
      "price": "1011000000000000000000",
      "reserved": "",
      "salt": "0xf1c5c1ee05f673361ccf983e58dfefd93b82cb0da8f8f8b30cc0f3b126ee7729",
      "assetIds": []
    },
    {
      "x": 379,
      "y": 234,
      "size": 1,
      "price": "1011000000000000000000",
      "reserved": "",
      "salt": "0xdd34ed5ab411c68883f9cce73efab113cae27286aa822ddbdfda5008f21b81a9",
      "assetIds": []
    },
    {
      "x": 379,
      "y": 235,
      "size": 1,
      "price": "1011000000000000000000",
      "reserved": "",
      "salt": "0x3c39140e1caa9cc08350b20cebc05beacca819da5daafba10b028a1ef05779e6",
      "assetIds": []
    },
    {
      "x": 379,
      "y": 236,
      "size": 1,
      "price": "1011000000000000000000",
      "reserved": "",
      "salt": "0x65ebdb481270e633b53be22fc922094a2022f90446f092e5548a17fd42bbb03b",
      "assetIds": []
    },
    {
      "x": 379,
      "y": 237,
      "size": 1,
      "price": "1011000000000000000000",
      "reserved": "",
      "salt": "0x0d169c57096f58c23970fd3e9ff15578d14c4be908baecd85fe1be4ad9f2ddef",
      "assetIds": []
    },
    {
      "x": 379,
      "y": 238,
      "size": 1,
      "price": "1011000000000000000000",
      "reserved": "",
      "salt": "0xe195dc766aa2af3c0d9130f15b1b7d689f99420f8d90099b0344d06c305c6890",
      "assetIds": []
    },
    {
      "x": 379,
      "y": 239,
      "size": 1,
      "price": "1011000000000000000000",
      "reserved": "",
      "salt": "0x1b7e62bd521903af6639442d11b5e4dbcc1e441d385e5df60fe4732e59c06fe6",
      "assetIds": []
    },
    {
      "x": 379,
      "y": 282,
      "size": 1,
      "price": "1011000000000000000000",
      "reserved": "",
      "salt": "0xecfa7db241e1aab8b7730998b7fb5309cc10860a8e29abfa5e8bc66ac99fb8fb",
      "assetIds": []
    },
    {
      "x": 379,
      "y": 283,
      "size": 1,
      "price": "1011000000000000000000",
      "reserved": "",
      "salt": "0xc907032b03b04dbe702f5f24360a4c5d60d7d7c578ca68b3ac3dea524105ea66",
      "assetIds": []
    },
    {
      "x": 379,
      "y": 284,
      "size": 1,
      "price": "1011000000000000000000",
      "reserved": "",
      "salt": "0x85d7b4e0976d1c6f721b1e7230e28f94dde9b41907d242ca53f76d8728bfc350",
      "assetIds": []
    },
    {
      "x": 379,
      "y": 288,
      "size": 1,
      "price": "1011000000000000000000",
      "reserved": "",
      "salt": "0xa209d2567f35189397c595994821b86ddb68fd22657f81c602d5d26602198ee7",
      "assetIds": []
    },
    {
      "x": 379,
      "y": 289,
      "size": 1,
      "price": "1011000000000000000000",
      "reserved": "",
      "salt": "0x61f33955faeb3b8ec5b60e0267f1cdc66f5afff05aa994e150f6d0937cfaf460",
      "assetIds": []
    },
    {
      "x": 379,
      "y": 290,
      "size": 1,
      "price": "1011000000000000000000",
      "reserved": "",
      "salt": "0x1d0c8b703767ba7ed70143cb9cd48e62e26a98dd3fbabe77baef04ee157c7052",
      "assetIds": []
    },
    {
      "x": 379,
      "y": 300,
      "size": 1,
      "price": "1011000000000000000000",
      "reserved": "",
      "salt": "0xe9129a8c52092eaf71dd13fdec72275b1727dfffea75f90b26b310c9cb467d44",
      "assetIds": []
    },
    {
      "x": 379,
      "y": 301,
      "size": 1,
      "price": "1011000000000000000000",
      "reserved": "",
      "salt": "0x8ccb278cdd329ae3e33a0e6f4576f93f368f7b7cfc1859fc448b151b5c4b0638",
      "assetIds": []
    },
    {
      "x": 379,
      "y": 302,
      "size": 1,
      "price": "1011000000000000000000",
      "reserved": "",
      "salt": "0xfa03497c7a336f560870ce54b96e0c1afb7cd73ea7e03bd2b12cfce413c34ae1",
      "assetIds": []
    },
    {
      "x": 379,
      "y": 303,
      "size": 1,
      "price": "1011000000000000000000",
      "reserved": "",
      "salt": "0x6475afc24e7eb31a4bab352618e212c610510353aa7673db84fd2539fe3c4c52",
      "assetIds": []
    },
    {
      "x": 379,
      "y": 304,
      "size": 1,
      "price": "1011000000000000000000",
      "reserved": "",
      "salt": "0x4779e398580e6d2acb0ce96cbfe9a84d69158d703a7a5db2ce689cb2bae3c332",
      "assetIds": []
    },
    {
      "x": 379,
      "y": 305,
      "size": 1,
      "price": "1011000000000000000000",
      "reserved": "",
      "salt": "0xdc0ed8db56d7fa38806b7c6f611da36c3c08609c1ae8f463a7930beb346708fc",
      "assetIds": []
    },
    {
      "x": 380,
      "y": 228,
      "size": 1,
      "price": "1011000000000000000000",
      "reserved": "",
      "salt": "0x7632cf1bf17f8dc90dadd1c3ac60c77960b2032aa1aecf464697c043ea5a53fd",
      "assetIds": []
    },
    {
      "x": 380,
      "y": 229,
      "size": 1,
      "price": "1011000000000000000000",
      "reserved": "",
      "salt": "0x9edfa7b8486e2dac5ef049b189db0fce092175c3d1999ef462ae0ea957a011fe",
      "assetIds": []
    },
    {
      "x": 380,
      "y": 230,
      "size": 1,
      "price": "1011000000000000000000",
      "reserved": "",
      "salt": "0xbb951889c32264c29bb7d98bf92992fdcc8319b7d42f0a4f4eb8dc441319b340",
      "assetIds": []
    },
    {
      "x": 380,
      "y": 234,
      "size": 1,
      "price": "1011000000000000000000",
      "reserved": "",
      "salt": "0x021435ebd7abe923e811444ec3a1fcd93e752938164b85a60ebbb01c964407aa",
      "assetIds": []
    },
    {
      "x": 380,
      "y": 235,
      "size": 1,
      "price": "1011000000000000000000",
      "reserved": "",
      "salt": "0x254740ab5a988fbd8e758a1645f4cc66a0765dad80c660d8c3bc955264867346",
      "assetIds": []
    },
    {
      "x": 380,
      "y": 236,
      "size": 1,
      "price": "1011000000000000000000",
      "reserved": "",
      "salt": "0x8bbef2dc2efba06e93ad3081528f0b38d1a8a36fb7457240dd0da3a2e57ad0c9",
      "assetIds": []
    },
    {
      "x": 380,
      "y": 237,
      "size": 1,
      "price": "1011000000000000000000",
      "reserved": "",
      "salt": "0xc855bc3b3dfd444f0cc9d84cba9f5b9800c01efa01ce0ecc240d031df830e28b",
      "assetIds": []
    },
    {
      "x": 380,
      "y": 238,
      "size": 1,
      "price": "1011000000000000000000",
      "reserved": "",
      "salt": "0xae8ed6458c99753b27f20852bec218cfb6905dad89ef679852fc99e0c6cb90d0",
      "assetIds": []
    },
    {
      "x": 380,
      "y": 239,
      "size": 1,
      "price": "1011000000000000000000",
      "reserved": "",
      "salt": "0x2efef160fd0c734edd8616a6faef97ecb043c6f2f6bdbb94186626ad42bb2466",
      "assetIds": []
    },
    {
      "x": 380,
      "y": 282,
      "size": 1,
      "price": "1011000000000000000000",
      "reserved": "",
      "salt": "0xb85227d78db658f3410426a6af8b31e340aa12a9cff741f20dd10d7a5e5d1080",
      "assetIds": []
    },
    {
      "x": 380,
      "y": 283,
      "size": 1,
      "price": "1011000000000000000000",
      "reserved": "",
      "salt": "0x73ffaabda4766389ebe5b370ca918ca1c9da9c364447bd8ec95378329594ecf2",
      "assetIds": []
    },
    {
      "x": 380,
      "y": 284,
      "size": 1,
      "price": "1011000000000000000000",
      "reserved": "",
      "salt": "0xd27cab14f26273e9a4f59fe27d681447551a204e194bc78cdd2a550792617253",
      "assetIds": []
    },
    {
      "x": 380,
      "y": 288,
      "size": 1,
      "price": "1011000000000000000000",
      "reserved": "",
      "salt": "0x94fd402ddd1c4d3c04abf59e41f48b4fa77eb5c2bbb47d470474044136244630",
      "assetIds": []
    },
    {
      "x": 380,
      "y": 289,
      "size": 1,
      "price": "1011000000000000000000",
      "reserved": "",
      "salt": "0xe86e8ef481f8f7737078e27f22fdf43e53d63cb25063b3427a1a902161fae875",
      "assetIds": []
    },
    {
      "x": 380,
      "y": 290,
      "size": 1,
      "price": "1011000000000000000000",
      "reserved": "",
      "salt": "0x12487e7415998ef2bd79c58f04431b34f48cec19b0a41177280b5d3f80c841eb",
      "assetIds": []
    },
    {
      "x": 380,
      "y": 300,
      "size": 1,
      "price": "1011000000000000000000",
      "reserved": "",
      "salt": "0xce181571c6e3d8ea58101d2564f9660463f3b827a1aefb6b691d04c562d640af",
      "assetIds": []
    },
    {
      "x": 380,
      "y": 301,
      "size": 1,
      "price": "1011000000000000000000",
      "reserved": "",
      "salt": "0xcee20ec2225b9d964ca1ea0b40c1c0e0a42caa3ef86cceb773efd99bcdcc23a4",
      "assetIds": []
    },
    {
      "x": 380,
      "y": 302,
      "size": 1,
      "price": "1011000000000000000000",
      "reserved": "0x7a9fe22691c811ea339d9b73150e6911a5343dca",
      "salt": "0x76cc82472a48bab28293711c25a3a8f8d1bf42c3f1f7a237aafc6cf9f2c6315a",
      "assetIds": []
    },
    {
      "x": 380,
      "y": 303,
      "size": 1,
      "price": "1011000000000000000000",
      "reserved": "",
      "salt": "0x6f0529d0770f2db0f41ef2cb4c773129ee7fb3918081683b67ffe76077768917",
      "assetIds": []
    },
    {
      "x": 380,
      "y": 304,
      "size": 1,
      "price": "1011000000000000000000",
      "reserved": "",
      "salt": "0x25d359ceaf73deec759ef69a9728215598d4ae358adb0dbea23214b775de17dc",
      "assetIds": []
    },
    {
      "x": 380,
      "y": 305,
      "size": 1,
      "price": "1011000000000000000000",
      "reserved": "",
      "salt": "0x0ce6a2d256ad0eec1d69027bd9db7299b8fa80d97b30b64ea5537214af3bf8aa",
      "assetIds": []
    },
    {
      "x": 381,
      "y": 228,
      "size": 1,
      "price": "1011000000000000000000",
      "reserved": "",
      "salt": "0x4e6f1d5f1189d985d7417d1d849a84ce6eb7761228b248524196824d65d69191",
      "assetIds": []
    },
    {
      "x": 381,
      "y": 229,
      "size": 1,
      "price": "1011000000000000000000",
      "reserved": "",
      "salt": "0x8dd55088400f10c8fbbc598ac0e143af74e383ee707502414e158bc976cf7be1",
      "assetIds": []
    },
    {
      "x": 381,
      "y": 230,
      "size": 1,
      "price": "1011000000000000000000",
      "reserved": "",
      "salt": "0x336fa9e0bfd342bedfe8d853b56510220d28ff69d7ded53bf0ec199454d9030b",
      "assetIds": []
    },
    {
      "x": 381,
      "y": 231,
      "size": 1,
      "price": "1011000000000000000000",
      "reserved": "",
      "salt": "0x335df86801f484d7cba1444701362f22217d9be494b72df104afcbd7d38b06f2",
      "assetIds": []
    },
    {
      "x": 381,
      "y": 232,
      "size": 1,
      "price": "1011000000000000000000",
      "reserved": "",
      "salt": "0xedc5f362c555dcc75cd5bfa124c31ca755012a76b6b13b01e50defb47d2f7cb4",
      "assetIds": []
    },
    {
      "x": 381,
      "y": 233,
      "size": 1,
      "price": "1011000000000000000000",
      "reserved": "",
      "salt": "0xb5d2b0f8c9ed09b34464e3219599955aae57fb8aa7cda6c67d6db7def8e26550",
      "assetIds": []
    },
    {
      "x": 381,
      "y": 234,
      "size": 1,
      "price": "1011000000000000000000",
      "reserved": "",
      "salt": "0x2996061d503d8a1d7674148b00ca8e59e4092e51987c3666f7cb2d9be5c7efbb",
      "assetIds": []
    },
    {
      "x": 381,
      "y": 235,
      "size": 1,
      "price": "1011000000000000000000",
      "reserved": "",
      "salt": "0xb27bd964b6eef9435789d64b8393bd37c933832b6e54cab53859950941b43be1",
      "assetIds": []
    },
    {
      "x": 381,
      "y": 236,
      "size": 1,
      "price": "1011000000000000000000",
      "reserved": "0x7a9fe22691c811ea339d9b73150e6911a5343dca",
      "salt": "0xc76e0201b09b38e43dd63470903865b4aa0d048c5e144379c97b76d4ac84830c",
      "assetIds": []
    },
    {
      "x": 381,
      "y": 237,
      "size": 1,
      "price": "1011000000000000000000",
      "reserved": "",
      "salt": "0x5aeb6b2d66a6f31a82f8f3cc3b779a675200e88e9400a422fe38624b423909a0",
      "assetIds": []
    },
    {
      "x": 381,
      "y": 238,
      "size": 1,
      "price": "1011000000000000000000",
      "reserved": "",
      "salt": "0x8b951a6332b6f043857fed0d5da6640d8649a9894c9ca6f09e158ce9d9a78304",
      "assetIds": []
    },
    {
      "x": 381,
      "y": 239,
      "size": 1,
      "price": "1011000000000000000000",
      "reserved": "",
      "salt": "0x94315115ad0e3a8fe0b19e9234d31c8744f368af01d0fb83b27a5204b969f278",
      "assetIds": []
    },
    {
      "x": 381,
      "y": 282,
      "size": 1,
      "price": "1011000000000000000000",
      "reserved": "",
      "salt": "0xb6042d8bd261b33bd7658b45a415f6c6e16e48dce49e2a5ccc73fba21bb67d36",
      "assetIds": []
    },
    {
      "x": 381,
      "y": 283,
      "size": 1,
      "price": "1011000000000000000000",
      "reserved": "",
      "salt": "0x82050d6d25e443e06b5144740148e68dddb47a9434d6fa97669175ce73272fca",
      "assetIds": []
    },
    {
      "x": 381,
      "y": 284,
      "size": 1,
      "price": "1011000000000000000000",
      "reserved": "",
      "salt": "0xe568809a62e0822fa97770a79b855102a8fd15dc31ea0b3397eeb3fc8766dc30",
      "assetIds": []
    },
    {
      "x": 381,
      "y": 288,
      "size": 1,
      "price": "1011000000000000000000",
      "reserved": "",
      "salt": "0xe639342d56959f6ec943d75a40c43e770699bf8253e658bdb9b8fe3077e2bfc1",
      "assetIds": []
    },
    {
      "x": 381,
      "y": 289,
      "size": 1,
      "price": "1011000000000000000000",
      "reserved": "",
      "salt": "0x4ebaaaf1237dae64541224f254fa622744e74190d86882615352ca935019bfcd",
      "assetIds": []
    },
    {
      "x": 381,
      "y": 290,
      "size": 1,
      "price": "1011000000000000000000",
      "reserved": "",
      "salt": "0x9d95eec06991750d64c350c9625ed9f6277968113af120cf7deaf9d6308a561d",
      "assetIds": []
    },
    {
      "x": 381,
      "y": 291,
      "size": 1,
      "price": "1011000000000000000000",
      "reserved": "",
      "salt": "0x28fb8136f427a7cb12473eaea85d87d4173eecea199e94711e4bf20815ec33b7",
      "assetIds": []
    },
    {
      "x": 381,
      "y": 292,
      "size": 1,
      "price": "1011000000000000000000",
      "reserved": "",
      "salt": "0x575d737f2d2393b360221dcfb1cd04844835c6e5d40d4b13abc19bd85830ee44",
      "assetIds": []
    },
    {
      "x": 381,
      "y": 293,
      "size": 1,
      "price": "1011000000000000000000",
      "reserved": "",
      "salt": "0x8439361e08dfd166c806845063db63a460fd4c5a1b40e73a419d12bc50882df3",
      "assetIds": []
    },
    {
      "x": 381,
      "y": 300,
      "size": 1,
      "price": "1011000000000000000000",
      "reserved": "",
      "salt": "0x82bce6a57f5741f4c2bed0562c87855a349bd7baa02cd7942d2e8ca0fa5ee96d",
      "assetIds": []
    },
    {
      "x": 381,
      "y": 301,
      "size": 1,
      "price": "1011000000000000000000",
      "reserved": "",
      "salt": "0xb53098c9b481e8802cb9f9046d59b78dc3ac211e282031a944c52ea9a58b3f7d",
      "assetIds": []
    },
    {
      "x": 381,
      "y": 302,
      "size": 1,
      "price": "1011000000000000000000",
      "reserved": "",
      "salt": "0xdb9ac898b8c4ca0769729e4e954ed282a61a12435ea29788b58ec1d9dfa93bf6",
      "assetIds": []
    },
    {
      "x": 381,
      "y": 303,
      "size": 1,
      "price": "1011000000000000000000",
      "reserved": "",
      "salt": "0x67a5b7c359353bfff922cc031c0657ef5ceb5309fa94eb3981b16c2cb939cc60",
      "assetIds": []
    },
    {
      "x": 381,
      "y": 304,
      "size": 1,
      "price": "1011000000000000000000",
      "reserved": "",
      "salt": "0x19ac0f44b577fe509e5cb77c20862c723c842ade3bd770093f76747ad90d1f20",
      "assetIds": []
    },
    {
      "x": 381,
      "y": 305,
      "size": 1,
      "price": "1011000000000000000000",
      "reserved": "",
      "salt": "0xd388be1096c3348fbf4edf479b43e917bee089194e600ff98918537bd84e5b67",
      "assetIds": []
    },
    {
      "x": 382,
      "y": 228,
      "size": 1,
      "price": "1011000000000000000000",
      "reserved": "",
      "salt": "0x425e4fe7b7ff5638ef197aa53ec157d4b8a2b73c08bd67f005b9c42de755c90a",
      "assetIds": []
    },
    {
      "x": 382,
      "y": 229,
      "size": 1,
      "price": "1011000000000000000000",
      "reserved": "",
      "salt": "0xbe0e566b6205487be01b056250116c45629a58cbb6fa2d1708e2d8f72a29d293",
      "assetIds": []
    },
    {
      "x": 382,
      "y": 230,
      "size": 1,
      "price": "1011000000000000000000",
      "reserved": "",
      "salt": "0xea046a4904741017a5679325465f32faa08b2bb7c4b793b511ee7a7b71126feb",
      "assetIds": []
    },
    {
      "x": 382,
      "y": 231,
      "size": 1,
      "price": "1011000000000000000000",
      "reserved": "",
      "salt": "0x2ae5030b8e34622fbf0bbf091c6d174e16ac121cf400620f9d51250d123b7d03",
      "assetIds": []
    },
    {
      "x": 382,
      "y": 232,
      "size": 1,
      "price": "1011000000000000000000",
      "reserved": "",
      "salt": "0x2c742a222a691c8ae3bfd05f7482443cf533ae6a04878a71c101d581fa2397c2",
      "assetIds": []
    },
    {
      "x": 382,
      "y": 233,
      "size": 1,
      "price": "1011000000000000000000",
      "reserved": "",
      "salt": "0x6444784862d080b9949297d7855b4c8ee73ed5a816a99d0d7943ca618cb71d70",
      "assetIds": []
    },
    {
      "x": 382,
      "y": 234,
      "size": 1,
      "price": "1011000000000000000000",
      "reserved": "",
      "salt": "0xd1eda0e33fe4ef44fb3a90e1d643a5b9dc6e23683c694fcb1df4e872fd16b2fa",
      "assetIds": []
    },
    {
      "x": 382,
      "y": 235,
      "size": 1,
      "price": "1011000000000000000000",
      "reserved": "",
      "salt": "0xb52817352c57f0644630a8857a68c2b2feaeadef88c9eda0e0d85ed420ff3700",
      "assetIds": []
    },
    {
      "x": 382,
      "y": 236,
      "size": 1,
      "price": "1011000000000000000000",
      "reserved": "",
      "salt": "0x8d442a086d56fd74ddb54bf6082d3a61f0f9d1f4242d2b718c5d4b9be9861591",
      "assetIds": []
    },
    {
      "x": 382,
      "y": 237,
      "size": 1,
      "price": "1011000000000000000000",
      "reserved": "",
      "salt": "0xae6fe4e46bddfd789f7b78e1ceb6d5c912d4d3fbd1e8c1397c8d6d8ed0408e09",
      "assetIds": []
    },
    {
      "x": 382,
      "y": 238,
      "size": 1,
      "price": "1011000000000000000000",
      "reserved": "",
      "salt": "0x5aa63c8c15d6870b5232df8b339c313c60a6ca100881f410a29e1a51bf670095",
      "assetIds": []
    },
    {
      "x": 382,
      "y": 239,
      "size": 1,
      "price": "1011000000000000000000",
      "reserved": "",
      "salt": "0xd26d84eea90260f39519d5af285595673530fd7d86e8ee39079a918a197a8429",
      "assetIds": []
    },
    {
      "x": 382,
      "y": 282,
      "size": 1,
      "price": "1011000000000000000000",
      "reserved": "",
      "salt": "0x08b5f23158351f410b757307209f1f3e4c4c34187f223084e820041ce8ba539a",
      "assetIds": []
    },
    {
      "x": 382,
      "y": 283,
      "size": 1,
      "price": "1011000000000000000000",
      "reserved": "0x7a9fe22691c811ea339d9b73150e6911a5343dca",
      "salt": "0xf0b003facfb91ed05f8538429d15689c367701ee07c9338dacc35ec240909957",
      "assetIds": []
    },
    {
      "x": 382,
      "y": 284,
      "size": 1,
      "price": "1011000000000000000000",
      "reserved": "",
      "salt": "0x9b7d13ab2f2f1d8910e81828b5c1d76f36a7661daa8872d9c6cf446018df40e1",
      "assetIds": []
    },
    {
      "x": 382,
      "y": 288,
      "size": 1,
      "price": "1011000000000000000000",
      "reserved": "",
      "salt": "0x4680935c2ee38803b0ee86e6123ebfc4741300f1821d45589399c1d02b13fb89",
      "assetIds": []
    },
    {
      "x": 382,
      "y": 289,
      "size": 1,
      "price": "1011000000000000000000",
      "reserved": "",
      "salt": "0x17b8bd99f934d54e34e8ce0f02f9f66f2663e7ac175bbae90f8acc2338b2809d",
      "assetIds": []
    },
    {
      "x": 382,
      "y": 290,
      "size": 1,
      "price": "1011000000000000000000",
      "reserved": "",
      "salt": "0x4ac2342c76b3fdc8f6146e8a7f0c106b442980fc37c7d7dd415ba6f4f94d6475",
      "assetIds": []
    },
    {
      "x": 382,
      "y": 291,
      "size": 1,
      "price": "1011000000000000000000",
      "reserved": "",
      "salt": "0x9c1b58f207b8f0a5008cd35f1d97a9dea75fd74c347d6885d76f95e263e38353",
      "assetIds": []
    },
    {
      "x": 382,
      "y": 292,
      "size": 1,
      "price": "1011000000000000000000",
      "reserved": "",
      "salt": "0x686e42b21f98fa3e6d4804197834ac65e23a17545c2eed70d20d0094194fdf36",
      "assetIds": []
    },
    {
      "x": 382,
      "y": 293,
      "size": 1,
      "price": "1011000000000000000000",
      "reserved": "",
      "salt": "0x95b0e1e2f1228a9ca884266636582b4faeff4dabe8d6921a4c01c0c536833e5b",
      "assetIds": []
    },
    {
      "x": 382,
      "y": 300,
      "size": 1,
      "price": "1011000000000000000000",
      "reserved": "",
      "salt": "0xeff39dccbbc8e3dc633b2d3bd5b18cd0e8a74ead427b97837b89c21dc56de2fe",
      "assetIds": []
    },
    {
      "x": 382,
      "y": 301,
      "size": 1,
      "price": "1011000000000000000000",
      "reserved": "",
      "salt": "0x6d2866d8e1f029363381a4e5dfc622a939aea2c15945978ed682b80f70e529fd",
      "assetIds": []
    },
    {
      "x": 382,
      "y": 302,
      "size": 1,
      "price": "1011000000000000000000",
      "reserved": "",
      "salt": "0x663fe34e36168f003d9e13b5dc7c5dc39a391515b87413a33b30b28318e6203e",
      "assetIds": []
    },
    {
      "x": 382,
      "y": 303,
      "size": 1,
      "price": "1011000000000000000000",
      "reserved": "",
      "salt": "0xe27d588ce7d36c542d48fbb3b740bcf88fdeb00357dd3dc3a99cf74e008df7c2",
      "assetIds": []
    },
    {
      "x": 382,
      "y": 304,
      "size": 1,
      "price": "1011000000000000000000",
      "reserved": "",
      "salt": "0x583070f332e0e8e148698d6e81c40dab3b50aef90dbfe244c1474acf6dc8b2c7",
      "assetIds": []
    },
    {
      "x": 382,
      "y": 305,
      "size": 1,
      "price": "1011000000000000000000",
      "reserved": "",
      "salt": "0xabd6d2b31e2bac06fb5d24e9cb5fd836c8f8316aefcee647d5fb6b31ce2067fb",
      "assetIds": []
    },
    {
      "x": 383,
      "y": 228,
      "size": 1,
      "price": "1011000000000000000000",
      "reserved": "",
      "salt": "0x3e2d66036634d2242019eb7a1b6b993b017daca5d447839485451d026d2fe986",
      "assetIds": []
    },
    {
      "x": 383,
      "y": 229,
      "size": 1,
      "price": "1011000000000000000000",
      "reserved": "",
      "salt": "0x479bec814e070345c6b3b38f11b0db86eaa6fe99d0bc87e91736ccf694129346",
      "assetIds": []
    },
    {
      "x": 383,
      "y": 230,
      "size": 1,
      "price": "1011000000000000000000",
      "reserved": "",
      "salt": "0x37d1f8323106b38e5a4f88764aecf9ea4de5efd982cdd2f7817c0acecbe24726",
      "assetIds": []
    },
    {
      "x": 383,
      "y": 231,
      "size": 1,
      "price": "1011000000000000000000",
      "reserved": "",
      "salt": "0xa91b6567d3b431a3d377212f47e1026b7069b4c9d5016ce54a93a25032e276fe",
      "assetIds": []
    },
    {
      "x": 383,
      "y": 232,
      "size": 1,
      "price": "1011000000000000000000",
      "reserved": "",
      "salt": "0x4d9f54321901836c6230c22c71a782d71743994b8489b4f910c3d93335af7943",
      "assetIds": []
    },
    {
      "x": 383,
      "y": 233,
      "size": 1,
      "price": "1011000000000000000000",
      "reserved": "",
      "salt": "0xb774124fed400c5308157a3840337527aba2045d362c3d9285aa1ed1d617143b",
      "assetIds": []
    },
    {
      "x": 383,
      "y": 234,
      "size": 1,
      "price": "1011000000000000000000",
      "reserved": "",
      "salt": "0xce0e5e5132e513a94c21f653f71d7761a7aafe74f5e75fb8c82a2f1e92285a10",
      "assetIds": []
    },
    {
      "x": 383,
      "y": 235,
      "size": 1,
      "price": "1011000000000000000000",
      "reserved": "",
      "salt": "0x2d6a6288d2bb0031e479bb79040a37bd166cb1223cccbd39f29265bf4d65acf4",
      "assetIds": []
    },
    {
      "x": 383,
      "y": 236,
      "size": 1,
      "price": "1011000000000000000000",
      "reserved": "",
      "salt": "0xee701068fbd52130bae17f31024a50ac2b0cf768deba69cc4a60624e711b7135",
      "assetIds": []
    },
    {
      "x": 383,
      "y": 237,
      "size": 1,
      "price": "1011000000000000000000",
      "reserved": "",
      "salt": "0x439370b4695e74182c4133f505b155868f959e2737b2d12842c121d850f2132a",
      "assetIds": []
    },
    {
      "x": 383,
      "y": 238,
      "size": 1,
      "price": "1011000000000000000000",
      "reserved": "",
      "salt": "0x582f521c331cc1163c33edb789f2b8ccd0d9c987b6348c4437abbe05d82a2d68",
      "assetIds": []
    },
    {
      "x": 383,
      "y": 239,
      "size": 1,
      "price": "1011000000000000000000",
      "reserved": "",
      "salt": "0xf75ad3b108e735578a2bd801409b6d03cac15e5b82c6c5705057f706acccedfc",
      "assetIds": []
    },
    {
      "x": 383,
      "y": 282,
      "size": 1,
      "price": "1011000000000000000000",
      "reserved": "",
      "salt": "0xe29507aeaab29052f6bfc7ae618b0bcd12ac00a67eb248dcf4b747168d332dcd",
      "assetIds": []
    },
    {
      "x": 383,
      "y": 283,
      "size": 1,
      "price": "1011000000000000000000",
      "reserved": "",
      "salt": "0x026dc8aeca09583a0a6b4884367226039257818a01ec5339efe1d51ad547c07c",
      "assetIds": []
    },
    {
      "x": 383,
      "y": 284,
      "size": 1,
      "price": "1011000000000000000000",
      "reserved": "",
      "salt": "0x7b1a94af55695e94c05c85faffd6e1e56e13a2c64b71b83a4579b50902b3d348",
      "assetIds": []
    },
    {
      "x": 383,
      "y": 288,
      "size": 1,
      "price": "1011000000000000000000",
      "reserved": "",
      "salt": "0x9d69575b923a0cde02ca81393e5efcdc621d5f438fae081cb98d1bcaea6f813b",
      "assetIds": []
    },
    {
      "x": 383,
      "y": 289,
      "size": 1,
      "price": "1011000000000000000000",
      "reserved": "",
      "salt": "0x15129a0d1da6d437f55a0272802f0b712f2cf85ae8f2716d611d167efadfcd1d",
      "assetIds": []
    },
    {
      "x": 383,
      "y": 290,
      "size": 1,
      "price": "1011000000000000000000",
      "reserved": "",
      "salt": "0xaab93a889eccfc9dd21f9f6ddeea2fc5e282399e8b1f4c5fb18737449de133d5",
      "assetIds": []
    },
    {
      "x": 383,
      "y": 291,
      "size": 1,
      "price": "1011000000000000000000",
      "reserved": "",
      "salt": "0x82acdc1493ba0d4a0a52e5686f7a0e51cb953406850f97edcce1992d67170b78",
      "assetIds": []
    },
    {
      "x": 383,
      "y": 292,
      "size": 1,
      "price": "1011000000000000000000",
      "reserved": "",
      "salt": "0xefd17c033d2aebfda37e26bc03e6a28a25d7d90efdb035f050b1ab2c3a954297",
      "assetIds": []
    },
    {
      "x": 383,
      "y": 293,
      "size": 1,
      "price": "1011000000000000000000",
      "reserved": "",
      "salt": "0x8187baca217a673c99e5c6cea4004650be406c0227a77e79a722a97d970e0110",
      "assetIds": []
    },
    {
      "x": 383,
      "y": 300,
      "size": 1,
      "price": "1011000000000000000000",
      "reserved": "",
      "salt": "0x7f9550c0060986f85c58846b21fd3169f61b55cd61408ce807ea2cc4f5fa05f7",
      "assetIds": []
    },
    {
      "x": 383,
      "y": 301,
      "size": 1,
      "price": "1011000000000000000000",
      "reserved": "",
      "salt": "0xc514cb8f4fa8e8532f82f669082ad2c4bbcc48f172fbaca8046e5a8c1598be86",
      "assetIds": []
    },
    {
      "x": 383,
      "y": 302,
      "size": 1,
      "price": "1011000000000000000000",
      "reserved": "",
      "salt": "0x15e679852a60e8bc6e786dc8a0a1f33cb9626435fe7423b2fb8b7d7ac260cf48",
      "assetIds": []
    },
    {
      "x": 383,
      "y": 303,
      "size": 1,
      "price": "1011000000000000000000",
      "reserved": "",
      "salt": "0xd22766d68a3528e3ae07e12770cea096a0f65db0fb151f7c4e42146d8294a639",
      "assetIds": []
    },
    {
      "x": 383,
      "y": 304,
      "size": 1,
      "price": "1011000000000000000000",
      "reserved": "",
      "salt": "0xe52686467b4c9489c2af86495cbb37049451b5d0b5da8cc6b97bd71d4b44b69b",
      "assetIds": []
    },
    {
      "x": 383,
      "y": 305,
      "size": 1,
      "price": "1011000000000000000000",
      "reserved": "",
      "salt": "0xa04531cc83a44c07ea30c540a065c26c0ec67ffb478b6995ab89046149b1ec82",
      "assetIds": []
    },
    {
      "x": 384,
      "y": 225,
      "size": 1,
      "price": "1011000000000000000000",
      "reserved": "",
      "salt": "0xbfec947b3e8e00590db939b8b54efdc8244d08b51d0297f0b417f15b941b1276",
      "assetIds": []
    },
    {
      "x": 384,
      "y": 226,
      "size": 1,
      "price": "1011000000000000000000",
      "reserved": "",
      "salt": "0xf00b16369141018ee780fec27c13d589017aac1772c7b1e1b99823e6d125a4f5",
      "assetIds": []
    },
    {
      "x": 384,
      "y": 227,
      "size": 1,
      "price": "1011000000000000000000",
      "reserved": "",
      "salt": "0xfd8fefa246710bb31acbb308680bfffdc31f5c866cfa318539048c34b3c8b335",
      "assetIds": []
    },
    {
      "x": 384,
      "y": 228,
      "size": 1,
      "price": "1011000000000000000000",
      "reserved": "",
      "salt": "0xa424b9b2409738e2feedc1a382f951ec54b74ea3c85a67c66d029db217f00310",
      "assetIds": []
    },
    {
      "x": 384,
      "y": 229,
      "size": 1,
      "price": "1011000000000000000000",
      "reserved": "",
      "salt": "0xe40b4feeed6375aa463537c6f60321377c1d48ce1b1a775d2cde48566af6635c",
      "assetIds": []
    },
    {
      "x": 384,
      "y": 230,
      "size": 1,
      "price": "1011000000000000000000",
      "reserved": "",
      "salt": "0xd3d1ea4a2c4ce039715ac9a869058608d17ad10a4d102f7a0c704e849b51bd80",
      "assetIds": []
    },
    {
      "x": 384,
      "y": 231,
      "size": 1,
      "price": "1011000000000000000000",
      "reserved": "",
      "salt": "0x347f7125e80f28ac7c3e70b4a6ed252404c6763664d62e9147766a595c3324c0",
      "assetIds": []
    },
    {
      "x": 384,
      "y": 232,
      "size": 1,
      "price": "1011000000000000000000",
      "reserved": "",
      "salt": "0x9b0bb70ff222a06eb23c552fa4e3bca268602f3334cc53af56c4b1921f0ac69a",
      "assetIds": []
    },
    {
      "x": 384,
      "y": 233,
      "size": 1,
      "price": "1011000000000000000000",
      "reserved": "",
      "salt": "0x4038b3f1128731640434c0dbec1566f4acae88e1687a7254f705017be3225107",
      "assetIds": []
    },
    {
      "x": 384,
      "y": 234,
      "size": 1,
      "price": "1011000000000000000000",
      "reserved": "",
      "salt": "0xcf8bc612457f31c59deff4b3a480e2a916be5902bd5ce11e34d6c73daca7a9d2",
      "assetIds": []
    },
    {
      "x": 384,
      "y": 235,
      "size": 1,
      "price": "1011000000000000000000",
      "reserved": "",
      "salt": "0x8141cd6142faff38bc610bc516f511ebc77d951f6d88612ad93f68962efa3af1",
      "assetIds": []
    },
    {
      "x": 384,
      "y": 236,
      "size": 1,
      "price": "1011000000000000000000",
      "reserved": "",
      "salt": "0xe724ebe5d2ad3d9aafd23ef409cb6f07e2b20e22744dfd429d92f0a7044255ff",
      "assetIds": []
    },
    {
      "x": 384,
      "y": 237,
      "size": 1,
      "price": "1011000000000000000000",
      "reserved": "",
      "salt": "0x7cde20f2a33f26f5c63d10d42ccb105a4cad21a7b7958bac416d6bb4ffe91b3d",
      "assetIds": []
    },
    {
      "x": 384,
      "y": 238,
      "size": 1,
      "price": "1011000000000000000000",
      "reserved": "",
      "salt": "0x0ff31c45b5bc892ca7e851341cd95de84729900518cd9555c933220d9d27ed74",
      "assetIds": []
    },
    {
      "x": 384,
      "y": 239,
      "size": 1,
      "price": "1011000000000000000000",
      "reserved": "",
      "salt": "0xd4dcb46200caf5499c28f6944df55732b0b8b703ce9442869b77db169dae6d33",
      "assetIds": []
    },
    {
      "x": 384,
      "y": 255,
      "size": 1,
      "price": "1011000000000000000000",
      "reserved": "",
      "salt": "0x3c90b060e614168a0788779a7649f8564d9219da6cad3e3621c8945590cb5555",
      "assetIds": []
    },
    {
      "x": 384,
      "y": 256,
      "size": 1,
      "price": "1011000000000000000000",
      "reserved": "",
      "salt": "0x28d2c98e2bf79b07d54c1267076b540aef9bf037621cdb243c28ffb4a9836c44",
      "assetIds": []
    },
    {
      "x": 384,
      "y": 257,
      "size": 1,
      "price": "1011000000000000000000",
      "reserved": "",
      "salt": "0x13d864fd3bc8c09df650948f795f89b4cdddcdb60a73042bbad1f1ba417fae02",
      "assetIds": []
    },
    {
      "x": 384,
      "y": 294,
      "size": 1,
      "price": "1011000000000000000000",
      "reserved": "",
      "salt": "0x4c52fee07a5f183eb650c2436beef27d9b47459cffc25aa95cacb9c7816c5677",
      "assetIds": []
    },
    {
      "x": 384,
      "y": 295,
      "size": 1,
      "price": "1011000000000000000000",
      "reserved": "",
      "salt": "0x88fabdb0d923c1da4dfd6cb7843468de8316af31c6d52a0ef19e938faf1d8e71",
      "assetIds": []
    },
    {
      "x": 384,
      "y": 296,
      "size": 1,
      "price": "1011000000000000000000",
      "reserved": "",
      "salt": "0x52ec6d46cc6a1b538843c09513ada52dd4b9dfcc0062b88e4780fb2beefd36f7",
      "assetIds": []
    },
    {
      "x": 384,
      "y": 297,
      "size": 1,
      "price": "1011000000000000000000",
      "reserved": "",
      "salt": "0xc31651f43226984011487157eb93f5e8fb3d543363051fa82ba51f4d34529892",
      "assetIds": []
    },
    {
      "x": 384,
      "y": 298,
      "size": 1,
      "price": "1011000000000000000000",
      "reserved": "",
      "salt": "0x6731a86e6d91e717cbfa70b2dfb499a2e525d954c117ba4d3a0b99c0bbdeee72",
      "assetIds": []
    },
    {
      "x": 384,
      "y": 299,
      "size": 1,
      "price": "1011000000000000000000",
      "reserved": "",
      "salt": "0x1b76ee4395130e913d8cc071a8f45f10379bce89cf0b3d06e09f8a0f795c544a",
      "assetIds": []
    },
    {
      "x": 385,
      "y": 225,
      "size": 1,
      "price": "1011000000000000000000",
      "reserved": "",
      "salt": "0xe4d41b69e2f06cda42c5ee7e91cf870fbcc999fff49333462de894921f952cca",
      "assetIds": []
    },
    {
      "x": 385,
      "y": 226,
      "size": 1,
      "price": "1011000000000000000000",
      "reserved": "",
      "salt": "0xa11ab80eb676428e73234ff2278d3835ebc8750831de5b0242bf3fb258a8bd38",
      "assetIds": []
    },
    {
      "x": 385,
      "y": 227,
      "size": 1,
      "price": "1011000000000000000000",
      "reserved": "",
      "salt": "0xb8a3cea6f6f6d3b6e51054b8ebf808106de935d6b04a790ee68910ad5556050d",
      "assetIds": []
    },
    {
      "x": 385,
      "y": 228,
      "size": 1,
      "price": "1011000000000000000000",
      "reserved": "",
      "salt": "0x2327a6e42e9f84d1c2a1cda0da29f4abd4857adfb4ff492c1f79adc19a410c60",
      "assetIds": []
    },
    {
      "x": 385,
      "y": 229,
      "size": 1,
      "price": "1011000000000000000000",
      "reserved": "0x7a9fe22691c811ea339d9b73150e6911a5343dca",
      "salt": "0x05cc2577b614e691c1d27e852ab6355b6e79225f0047f842eaf350dc7ca83c0a",
      "assetIds": []
    },
    {
      "x": 385,
      "y": 230,
      "size": 1,
      "price": "1011000000000000000000",
      "reserved": "",
      "salt": "0xed82e0027bbea6be65ef049c61dba8f4d89f9ce82e8f9dffd022e9ff51e2ffa6",
      "assetIds": []
    },
    {
      "x": 385,
      "y": 231,
      "size": 1,
      "price": "1011000000000000000000",
      "reserved": "",
      "salt": "0x772ea17ff818796e5075ed4aea85729540b74902c3c4fec0b8e4045b4c108094",
      "assetIds": []
    },
    {
      "x": 385,
      "y": 232,
      "size": 1,
      "price": "1011000000000000000000",
      "reserved": "",
      "salt": "0x522b27f54d156fa671e1560557dc843ff63950a932f108f7373a64c692240f12",
      "assetIds": []
    },
    {
      "x": 385,
      "y": 233,
      "size": 1,
      "price": "1011000000000000000000",
      "reserved": "",
      "salt": "0xbf5469bbfd7f031e356b716b49408185ccd4648914722d87b829074f92a070d4",
      "assetIds": []
    },
    {
      "x": 385,
      "y": 234,
      "size": 1,
      "price": "1011000000000000000000",
      "reserved": "",
      "salt": "0xf80552e45d1ceb25be58fe5db9043eb55d7d8790d673f993d34fac72e9b9ae71",
      "assetIds": []
    },
    {
      "x": 385,
      "y": 235,
      "size": 1,
      "price": "1011000000000000000000",
      "reserved": "",
      "salt": "0xcfd1a2220de17efaf7b7d7f1595434e8dc110b3f9dcf882f9d580f5f19ac56cf",
      "assetIds": []
    },
    {
      "x": 385,
      "y": 236,
      "size": 1,
      "price": "1011000000000000000000",
      "reserved": "",
      "salt": "0xae1f602252d80c39eb496b10de98145aa8aff014738067b3c0b283f6c94a4e76",
      "assetIds": []
    },
    {
      "x": 385,
      "y": 237,
      "size": 1,
      "price": "1011000000000000000000",
      "reserved": "0x7a9fe22691c811ea339d9b73150e6911a5343dca",
      "salt": "0xd02cddf1b55b002e1d92803fd774cecf2c10e9e1ffb317085becee521d119500",
      "assetIds": []
    },
    {
      "x": 385,
      "y": 238,
      "size": 1,
      "price": "1011000000000000000000",
      "reserved": "",
      "salt": "0x968bdd75c2fafbb689eff0538e2f9089eefd794c5511f7df3cc875ea275a2b63",
      "assetIds": []
    },
    {
      "x": 385,
      "y": 239,
      "size": 1,
      "price": "1011000000000000000000",
      "reserved": "",
      "salt": "0x445f0a1cb6df7edf57fce82e2d850438c9ee293b666ab56f1178abbe6cad3966",
      "assetIds": []
    },
    {
      "x": 385,
      "y": 255,
      "size": 1,
      "price": "1011000000000000000000",
      "reserved": "",
      "salt": "0xbf7109ec1bfae23fd5466cde2d0f318f04d03f3cb8e687776cda216899370edc",
      "assetIds": []
    },
    {
      "x": 385,
      "y": 256,
      "size": 1,
      "price": "1011000000000000000000",
      "reserved": "0x7a9fe22691c811ea339d9b73150e6911a5343dca",
      "salt": "0x35ed12aba43dcd7466e16f99632283163aca60b0e80dcb3c148e9316069d8de9",
      "assetIds": []
    },
    {
      "x": 385,
      "y": 257,
      "size": 1,
      "price": "1011000000000000000000",
      "reserved": "",
      "salt": "0xa8c5d272ad44f719f39b12238a3fb581940ee35e1b832d26e323ee2f6b97b410",
      "assetIds": []
    },
    {
      "x": 385,
      "y": 294,
      "size": 1,
      "price": "1011000000000000000000",
      "reserved": "",
      "salt": "0x4a6fcea9b6b5ae24383d6a641a5a6b99c25eb63713d9de73c1ece36b2d9dee33",
      "assetIds": []
    },
    {
      "x": 385,
      "y": 295,
      "size": 1,
      "price": "1011000000000000000000",
      "reserved": "",
      "salt": "0xb9f927e0f63d4335ebae8b9e7f26437f8c4e059bfc1221811408a17ed2d095f7",
      "assetIds": []
    },
    {
      "x": 385,
      "y": 296,
      "size": 1,
      "price": "1011000000000000000000",
      "reserved": "",
      "salt": "0x6aa3e247ae32213c9dbd7be450f59e8d138fb0571d5805a8c6a408cad96c3a68",
      "assetIds": []
    },
    {
      "x": 385,
      "y": 297,
      "size": 1,
      "price": "1011000000000000000000",
      "reserved": "",
      "salt": "0x2e43d2fea2756e42595ec310ac3536e70e6949efda170f68c5a46bc196258016",
      "assetIds": []
    },
    {
      "x": 385,
      "y": 298,
      "size": 1,
      "price": "1011000000000000000000",
      "reserved": "",
      "salt": "0xb57d8a3b6a32c1d7465e253f8310a9a1c5ccf93a1ee7a1f5958bb15aa3422e6c",
      "assetIds": []
    },
    {
      "x": 385,
      "y": 299,
      "size": 1,
      "price": "1011000000000000000000",
      "reserved": "",
      "salt": "0x9be2d9dac65dcee89c2bdd5b738a3a30defc124bde9d01109c851015eca133fe",
      "assetIds": []
    },
    {
      "x": 386,
      "y": 225,
      "size": 1,
      "price": "1011000000000000000000",
      "reserved": "",
      "salt": "0x789a8e38d659ca37853fe1b8507acc75dc3a2af77b3aac39b4d592336964cd5e",
      "assetIds": []
    },
    {
      "x": 386,
      "y": 226,
      "size": 1,
      "price": "1011000000000000000000",
      "reserved": "",
      "salt": "0xddd775ed3e213773a9653a234f317c2ad0308d238c5cf5b0a07924ba0a23d944",
      "assetIds": []
    },
    {
      "x": 386,
      "y": 227,
      "size": 1,
      "price": "1011000000000000000000",
      "reserved": "",
      "salt": "0xbfa3cba04af5549c88d2a3b35f40d9f0737f910eeeb66115f5ac6bedc9f05d2c",
      "assetIds": []
    },
    {
      "x": 386,
      "y": 228,
      "size": 1,
      "price": "1011000000000000000000",
      "reserved": "",
      "salt": "0x21bd093d85646ce6dc1078924d54c834f353e23cc72f4444730cfc4ae929a598",
      "assetIds": []
    },
    {
      "x": 386,
      "y": 229,
      "size": 1,
      "price": "1011000000000000000000",
      "reserved": "",
      "salt": "0x4e2786df06c182f7d5ed2a3c66b21a62faf3dab571f392ef4a7bad5a3b0ab6c1",
      "assetIds": []
    },
    {
      "x": 386,
      "y": 230,
      "size": 1,
      "price": "1011000000000000000000",
      "reserved": "",
      "salt": "0xb62ed91ff0ae5435c40b6ab6c1a54e6c4af45131d23229b776e3f2dff6f5c465",
      "assetIds": []
    },
    {
      "x": 386,
      "y": 231,
      "size": 1,
      "price": "1011000000000000000000",
      "reserved": "",
      "salt": "0x6db3bac77b4aa56079861709e2be8a61468dff1de38ed8cdeabb5353de9f2b2c",
      "assetIds": []
    },
    {
      "x": 386,
      "y": 232,
      "size": 1,
      "price": "1011000000000000000000",
      "reserved": "",
      "salt": "0xf9ff5fc6d1ca15d2ea493ea93ab09a70d2e6357eaaed8c02d1cb2eaf383bbc59",
      "assetIds": []
    },
    {
      "x": 386,
      "y": 233,
      "size": 1,
      "price": "1011000000000000000000",
      "reserved": "",
      "salt": "0x219818d2352b0571527952f0f1ecef1ae74772ed2a1a6343031790bca732083e",
      "assetIds": []
    },
    {
      "x": 386,
      "y": 234,
      "size": 1,
      "price": "1011000000000000000000",
      "reserved": "",
      "salt": "0x4eb00398a51174a56b048f248273eec2ed0398a9b4cc92ce7fa664ec6f65a344",
      "assetIds": []
    },
    {
      "x": 386,
      "y": 235,
      "size": 1,
      "price": "1011000000000000000000",
      "reserved": "",
      "salt": "0x0580f993aa6934bff61839b9314048893b61c57d44be71677031358673591d41",
      "assetIds": []
    },
    {
      "x": 386,
      "y": 236,
      "size": 1,
      "price": "1011000000000000000000",
      "reserved": "",
      "salt": "0x111dd0fe91d676c9977608b26c294ce8d6095544d9d811add7402083c6d032e3",
      "assetIds": []
    },
    {
      "x": 386,
      "y": 237,
      "size": 1,
      "price": "1011000000000000000000",
      "reserved": "",
      "salt": "0x409a6d4ab7fe956d617189d05e934be1445f7fb00c4c01f73c4f20b3216af06d",
      "assetIds": []
    },
    {
      "x": 386,
      "y": 238,
      "size": 1,
      "price": "1011000000000000000000",
      "reserved": "",
      "salt": "0xb397b6fa73b44b680852400f2436277406c77f90a57b60aa53af258686f9d014",
      "assetIds": []
    },
    {
      "x": 386,
      "y": 239,
      "size": 1,
      "price": "1011000000000000000000",
      "reserved": "",
      "salt": "0x8c6c5e5048c1449fbb57531729597914c22670690b868a8966f6699e42dd2d58",
      "assetIds": []
    },
    {
      "x": 386,
      "y": 255,
      "size": 1,
      "price": "1011000000000000000000",
      "reserved": "",
      "salt": "0x6edc4da43a1a6117177fd8dd08a7f8db1c81040c37346c1f30de9473e7ef79e3",
      "assetIds": []
    },
    {
      "x": 386,
      "y": 256,
      "size": 1,
      "price": "1011000000000000000000",
      "reserved": "",
      "salt": "0xa9d1f78b7a0163b519b74ced107d6e3e51d9a5d77bde899e88ba4cc7c55e7b14",
      "assetIds": []
    },
    {
      "x": 386,
      "y": 257,
      "size": 1,
      "price": "1011000000000000000000",
      "reserved": "",
      "salt": "0xe22684abad8e0c8f53a918f41efb6621dfc7545eb2d44ab895ae9188ec5f95be",
      "assetIds": []
    },
    {
      "x": 386,
      "y": 294,
      "size": 1,
      "price": "1011000000000000000000",
      "reserved": "",
      "salt": "0xdda1c621ed992aaf10757ac08f23c9caa1e7dc8421a30157b9a85dced347ce8b",
      "assetIds": []
    },
    {
      "x": 386,
      "y": 295,
      "size": 1,
      "price": "1011000000000000000000",
      "reserved": "",
      "salt": "0x348f3bc918a985d1e2c354c5af2b773b275d4120743daf55ce868e947161672a",
      "assetIds": []
    },
    {
      "x": 386,
      "y": 296,
      "size": 1,
      "price": "1011000000000000000000",
      "reserved": "",
      "salt": "0x473bf95ea8fdc9c5d4a59c79224adcb0f5655f8c394849fcc182d8238a37ceab",
      "assetIds": []
    },
    {
      "x": 386,
      "y": 297,
      "size": 1,
      "price": "1011000000000000000000",
      "reserved": "",
      "salt": "0x267c829f2b7a15ae6a93e7283a443d068f49017c75c27eac32da35c745f9d583",
      "assetIds": []
    },
    {
      "x": 386,
      "y": 298,
      "size": 1,
      "price": "1011000000000000000000",
      "reserved": "",
      "salt": "0x4c6085f124ee7f300fd4cf2837caa16e8f9358fab3d4c2ca7319380c17e4d7e9",
      "assetIds": []
    },
    {
      "x": 386,
      "y": 299,
      "size": 1,
      "price": "1011000000000000000000",
      "reserved": "",
      "salt": "0x71d1c78e233191e72cbbbd12fee98ae5ef1c117aaaa48298a35bf9071fef38fa",
      "assetIds": []
    },
    {
      "x": 387,
      "y": 225,
      "size": 1,
      "price": "1011000000000000000000",
      "reserved": "",
      "salt": "0xa39585a428d2bc4d74fa144a66af08d3deee7bcc1d9891bf816c525639badcf6",
      "assetIds": []
    },
    {
      "x": 387,
      "y": 226,
      "size": 1,
      "price": "1011000000000000000000",
      "reserved": "",
      "salt": "0x6fb1b30a3536b9e26b3d32002e8444ff2e34fc6f8ffa5b60d2f07622d16f55cf",
      "assetIds": []
    },
    {
      "x": 387,
      "y": 227,
      "size": 1,
      "price": "1011000000000000000000",
      "reserved": "",
      "salt": "0x75d998124372a672e842b8495177f7cb798d065f84886810748985003ef48be0",
      "assetIds": []
    },
    {
      "x": 387,
      "y": 228,
      "size": 1,
      "price": "1011000000000000000000",
      "reserved": "",
      "salt": "0xb20f5075c8da51f9954e529f77c660f34492b791c47d5e2d2a85c1045aa5c07f",
      "assetIds": []
    },
    {
      "x": 387,
      "y": 229,
      "size": 1,
      "price": "1011000000000000000000",
      "reserved": "",
      "salt": "0x5913a24f1578a93345ce30456e7cfbe3c426e5617e46ebdffd7a1087a6ab3e54",
      "assetIds": []
    },
    {
      "x": 387,
      "y": 230,
      "size": 1,
      "price": "1011000000000000000000",
      "reserved": "",
      "salt": "0x99b25b36811ccb1f65934de78354124f1828f96215c509e2c6f1b85d03ddf963",
      "assetIds": []
    },
    {
      "x": 387,
      "y": 231,
      "size": 1,
      "price": "1011000000000000000000",
      "reserved": "",
      "salt": "0x3a31603ece02b8fc89afc31642fe4cd604abb75c4c7580f3173ecc1c28b0ae95",
      "assetIds": []
    },
    {
      "x": 387,
      "y": 232,
      "size": 1,
      "price": "1011000000000000000000",
      "reserved": "",
      "salt": "0x93638c17d56701271faf41a1e1a4bf621c95a7ca1b72d118c0641a41f4ca9d64",
      "assetIds": []
    },
    {
      "x": 387,
      "y": 233,
      "size": 1,
      "price": "1011000000000000000000",
      "reserved": "",
      "salt": "0x3696c2eacb5843aed011096a8650fc0bfcce03f94883be68d1ce0383d39e4017",
      "assetIds": []
    },
    {
      "x": 387,
      "y": 234,
      "size": 1,
      "price": "1011000000000000000000",
      "reserved": "",
      "salt": "0x4860b7cbf41fa1562efc9f71e67a9d47ccc315a0492923c805333534238e0308",
      "assetIds": []
    },
    {
      "x": 387,
      "y": 235,
      "size": 1,
      "price": "1011000000000000000000",
      "reserved": "",
      "salt": "0xfdbf0128555b2942b9e8604932f8484aee3eb0d8627ad20a95863432fd840df0",
      "assetIds": []
    },
    {
      "x": 387,
      "y": 236,
      "size": 1,
      "price": "1011000000000000000000",
      "reserved": "",
      "salt": "0x0fdef6e6e41f2dc832b7d97db5efdfb37736f920cb6209baa8993cd657c85db4",
      "assetIds": []
    },
    {
      "x": 387,
      "y": 237,
      "size": 1,
      "price": "1011000000000000000000",
      "reserved": "",
      "salt": "0xa0059486c0bfd010871555a0d9e79a43eb1b00aecd6493e0149185ce0ce73e8e",
      "assetIds": []
    },
    {
      "x": 387,
      "y": 238,
      "size": 1,
      "price": "1011000000000000000000",
      "reserved": "",
      "salt": "0x6789b8c5116bc55183d929e3f946522dfdc0520361d6624f9aeac2647a14f62a",
      "assetIds": []
    },
    {
      "x": 387,
      "y": 239,
      "size": 1,
      "price": "1011000000000000000000",
      "reserved": "",
      "salt": "0xa29784c4766541cd06bcf99a062abe1b8a1e225e62baca7633efe926f80e9e83",
      "assetIds": []
    },
    {
      "x": 387,
      "y": 252,
      "size": 1,
      "price": "1011000000000000000000",
      "reserved": "",
      "salt": "0xd621aa9a80da691b729c061c00d6b421a10bd4c07ab6cbcf22cf8eb883217369",
      "assetIds": []
    },
    {
      "x": 387,
      "y": 253,
      "size": 1,
      "price": "1011000000000000000000",
      "reserved": "",
      "salt": "0x290969b9687485bf63ff6750fd03cb19c11a2097cb8d1ac537b416b7dfb4ff2c",
      "assetIds": []
    },
    {
      "x": 387,
      "y": 254,
      "size": 1,
      "price": "1011000000000000000000",
      "reserved": "",
      "salt": "0x2ea0e66ab5c6834cf20ed52433831b144cc5a45dc9c7ecaae37d97f4c55f22a5",
      "assetIds": []
    },
    {
      "x": 387,
      "y": 255,
      "size": 1,
      "price": "1011000000000000000000",
      "reserved": "",
      "salt": "0xecdf8f9c53bf07f6bc7cd2309328db60efab8c8f274e505b1af9270d91c6cc14",
      "assetIds": []
    },
    {
      "x": 387,
      "y": 256,
      "size": 1,
      "price": "1011000000000000000000",
      "reserved": "",
      "salt": "0x1372d8006973a7ca0ce5015935c13988b58885a9ed69ba8d75267864c3de1f3d",
      "assetIds": []
    },
    {
      "x": 387,
      "y": 257,
      "size": 1,
      "price": "1011000000000000000000",
      "reserved": "",
      "salt": "0x2ca0875fad98b39a2c7166d9455d572c713553963bc71f03f18107d6437d0dee",
      "assetIds": []
    },
    {
      "x": 387,
      "y": 294,
      "size": 1,
      "price": "1011000000000000000000",
      "reserved": "",
      "salt": "0xb7f7e29fac6cbedaa3df302df45f18d2d353c9de44419c9927160924fc70d7ad",
      "assetIds": []
    },
    {
      "x": 387,
      "y": 295,
      "size": 1,
      "price": "1011000000000000000000",
      "reserved": "",
      "salt": "0x9aa7e55d2198cb98a9f62d97b172bacadfc12876d371d29bde4ae3514744977e",
      "assetIds": []
    },
    {
      "x": 387,
      "y": 296,
      "size": 1,
      "price": "1011000000000000000000",
      "reserved": "",
      "salt": "0x62d6b5a3d86d8185b0a012167a481ea88a2a469b125c8fee95f503f54d2e8317",
      "assetIds": []
    },
    {
      "x": 387,
      "y": 297,
      "size": 1,
      "price": "1011000000000000000000",
      "reserved": "",
      "salt": "0xc8f5341cdac82a98d27d42708356b995d5b6e5d2df21dac8b77a5f71b4d06b12",
      "assetIds": []
    },
    {
      "x": 387,
      "y": 298,
      "size": 1,
      "price": "1011000000000000000000",
      "reserved": "",
      "salt": "0x922a551d9b996834632a85be64cb0d20f49bbdd85800abcfef994dcbc19c97b2",
      "assetIds": []
    },
    {
      "x": 387,
      "y": 299,
      "size": 1,
      "price": "1011000000000000000000",
      "reserved": "",
      "salt": "0x12f87567c1f3dc01da15255f5c422b14fd8acc994286ca2c0286ffaea84fb5f3",
      "assetIds": []
    },
    {
      "x": 387,
      "y": 306,
      "size": 1,
      "price": "1011000000000000000000",
      "reserved": "",
      "salt": "0x290f31731d8da19da4ef8e587253df54cf406a5a813fcb6abda5665376f0cb0b",
      "assetIds": []
    },
    {
      "x": 387,
      "y": 307,
      "size": 1,
      "price": "1011000000000000000000",
      "reserved": "",
      "salt": "0xb4668ef0b6afd88c01190991fa143adc9466aba63900a505b736bc3acef7c3a1",
      "assetIds": []
    },
    {
      "x": 387,
      "y": 308,
      "size": 1,
      "price": "1011000000000000000000",
      "reserved": "",
      "salt": "0x0c024d20fa4c361fb0095266cf60ceaae814d67bc7ae8f9ec43ee8b6ba5769be",
      "assetIds": []
    },
    {
      "x": 387,
      "y": 309,
      "size": 1,
      "price": "1011000000000000000000",
      "reserved": "",
      "salt": "0x40a114cef6f03751a7c4134377e808610f4d46783004e9f89e0f0a3a0f1d94ce",
      "assetIds": []
    },
    {
      "x": 387,
      "y": 310,
      "size": 1,
      "price": "1011000000000000000000",
      "reserved": "",
      "salt": "0x916e5d4289f7d1f8adeab2443f837bc8e650ea74f23ae1e491f65583b4de1257",
      "assetIds": []
    },
    {
      "x": 387,
      "y": 311,
      "size": 1,
      "price": "1011000000000000000000",
      "reserved": "",
      "salt": "0xca9384bd5193f783cf3b4b736219fcaefca75bd1519f61378a1bfcc137ebaa7b",
      "assetIds": []
    },
    {
      "x": 388,
      "y": 225,
      "size": 1,
      "price": "1011000000000000000000",
      "reserved": "",
      "salt": "0x9d40dbce778f31a90e2ede6c996ce45b5eede4f3313e6b0bc939115a437e24fe",
      "assetIds": []
    },
    {
      "x": 388,
      "y": 226,
      "size": 1,
      "price": "1011000000000000000000",
      "reserved": "",
      "salt": "0x5090635d379bb7a612092f11f7b68a3afd5c62749c7997261da207dbdc2547ff",
      "assetIds": []
    },
    {
      "x": 388,
      "y": 227,
      "size": 1,
      "price": "1011000000000000000000",
      "reserved": "",
      "salt": "0xb990b6fd6c079af401558d8b0721bdc907ee819a0c9c4a085d6f6e9645c9b660",
      "assetIds": []
    },
    {
      "x": 388,
      "y": 228,
      "size": 1,
      "price": "1011000000000000000000",
      "reserved": "",
      "salt": "0x0cade1bdf6cf6f19f4482fafb3ad9d3b0553f03df4d008d1bf039b416262feb1",
      "assetIds": []
    },
    {
      "x": 388,
      "y": 229,
      "size": 1,
      "price": "1011000000000000000000",
      "reserved": "",
      "salt": "0xfc8da751ab16de145b5363205c4b28038c13dbd1bc526f3013cdb8bac2c4349e",
      "assetIds": []
    },
    {
      "x": 388,
      "y": 230,
      "size": 1,
      "price": "1011000000000000000000",
      "reserved": "",
      "salt": "0xb158947b3df5d245224d029b6550cd3606cd5679ce991ccba245c2fa31ed9cac",
      "assetIds": []
    },
    {
      "x": 388,
      "y": 231,
      "size": 1,
      "price": "1011000000000000000000",
      "reserved": "",
      "salt": "0x1c2ffe4413181fc6727e0d36e9bf8e06e1575304c87429e176c3304187bcb7c3",
      "assetIds": []
    },
    {
      "x": 388,
      "y": 232,
      "size": 1,
      "price": "1011000000000000000000",
      "reserved": "",
      "salt": "0x82dde29a20e01c682b602f0597e0f8a001569c00c19877e40dceee55c3709ad3",
      "assetIds": []
    },
    {
      "x": 388,
      "y": 233,
      "size": 1,
      "price": "1011000000000000000000",
      "reserved": "",
      "salt": "0x1c7bc20b67d40abb46b7df76394e0edfc7c1f0c404ed2710b9cde4fe4f50daeb",
      "assetIds": []
    },
    {
      "x": 388,
      "y": 234,
      "size": 1,
      "price": "1011000000000000000000",
      "reserved": "",
      "salt": "0x175469e1eb828b83a74ae4ac75aa1041e02e0fbf8ccc90a202d8483fbf14d7bb",
      "assetIds": []
    },
    {
      "x": 388,
      "y": 235,
      "size": 1,
      "price": "1011000000000000000000",
      "reserved": "",
      "salt": "0x75b6ee78ba8487d0f45a5f9c5a3826d35c44e697349b94ea16aad4d08011f726",
      "assetIds": []
    },
    {
      "x": 388,
      "y": 236,
      "size": 1,
      "price": "1011000000000000000000",
      "reserved": "",
      "salt": "0xdcbd64530acab88647fcafe84913a7c4dcdda149641a6144dbc7a2f4e33ffb2d",
      "assetIds": []
    },
    {
      "x": 388,
      "y": 237,
      "size": 1,
      "price": "1011000000000000000000",
      "reserved": "",
      "salt": "0xaded2e0ab82d24fdaf0136aa2db7d0743c0dce59cd5d34aeba7e418f145a63d7",
      "assetIds": []
    },
    {
      "x": 388,
      "y": 238,
      "size": 1,
      "price": "1011000000000000000000",
      "reserved": "",
      "salt": "0x3a08715c478085c61a6b638962fed45f06f807f2d4e984c6396a909358b55672",
      "assetIds": []
    },
    {
      "x": 388,
      "y": 239,
      "size": 1,
      "price": "1011000000000000000000",
      "reserved": "",
      "salt": "0x72bd9cfaf668afb16f85f50c5a4aac11eeae213a2385b0f256fe3683177f7e42",
      "assetIds": []
    },
    {
      "x": 388,
      "y": 252,
      "size": 1,
      "price": "1011000000000000000000",
      "reserved": "",
      "salt": "0x9dde2a9190f9d2adca92a98edc1bab7c6182b5f4997b0a3372cf4c6b0fbd3b1e",
      "assetIds": []
    },
    {
      "x": 388,
      "y": 253,
      "size": 1,
      "price": "1011000000000000000000",
      "reserved": "",
      "salt": "0x5d3ac25d65e996b3fde44a93c107968f0ba03a5cbfb1bcf6b92cc1238c1a3986",
      "assetIds": []
    },
    {
      "x": 388,
      "y": 254,
      "size": 1,
      "price": "1011000000000000000000",
      "reserved": "",
      "salt": "0xad0627447e0e5fb63f428c3ec89bb5e4714b5afeb7098dff4421576b4ce63d72",
      "assetIds": []
    },
    {
      "x": 388,
      "y": 255,
      "size": 1,
      "price": "1011000000000000000000",
      "reserved": "",
      "salt": "0x1db84f2027c358d612d2e15537a0ef31d44b4a0a283bedf573331b2c162896bf",
      "assetIds": []
    },
    {
      "x": 388,
      "y": 256,
      "size": 1,
      "price": "1011000000000000000000",
      "reserved": "",
      "salt": "0x30caa6a185329952b1b3b29d31454e45de2ffdf539ecbb096524bc7976d91bd3",
      "assetIds": []
    },
    {
      "x": 388,
      "y": 257,
      "size": 1,
      "price": "1011000000000000000000",
      "reserved": "",
      "salt": "0x5f213205a47aede2f0de3bf10b7c80bd110896d60599e258dc013f953bec6656",
      "assetIds": []
    },
    {
      "x": 388,
      "y": 294,
      "size": 1,
      "price": "1011000000000000000000",
      "reserved": "",
      "salt": "0xc48cd48ec68fc4b95a586a93156d43b0dce48818cb7d454bd1caf326e35f7b97",
      "assetIds": []
    },
    {
      "x": 388,
      "y": 295,
      "size": 1,
      "price": "1011000000000000000000",
      "reserved": "",
      "salt": "0x36a01b64e1b103c6bdcd56378002e99979fc6cd516a6074c9042d79a3bf11ac3",
      "assetIds": []
    },
    {
      "x": 388,
      "y": 296,
      "size": 1,
      "price": "1011000000000000000000",
      "reserved": "",
      "salt": "0x00ba58079bba331a95a0db316ced492b62f67c23c42a812baecaf245b3041939",
      "assetIds": []
    },
    {
      "x": 388,
      "y": 297,
      "size": 1,
      "price": "1011000000000000000000",
      "reserved": "",
      "salt": "0x2e9f8e7ff622dcff84d5c2181794e0128a86706fd1c4d55716a5e7990ba79880",
      "assetIds": []
    },
    {
      "x": 388,
      "y": 298,
      "size": 1,
      "price": "1011000000000000000000",
      "reserved": "",
      "salt": "0xaa0a1c1d33dacf2cf528ba44948eaa4ff700c8f1757a35a231aa1aed0fbeb5a9",
      "assetIds": []
    },
    {
      "x": 388,
      "y": 299,
      "size": 1,
      "price": "1011000000000000000000",
      "reserved": "0x7a9fe22691c811ea339d9b73150e6911a5343dca",
      "salt": "0x64f22dba7c23bafd7608c5e089ce00e5aac6560b90d83446a05f0738024171ee",
      "assetIds": []
    },
    {
      "x": 388,
      "y": 306,
      "size": 1,
      "price": "1011000000000000000000",
      "reserved": "",
      "salt": "0x8adc5d3790e2f2db05eed3ef6208dda3481772b6914df84e5c9a7f3e0d4ffd52",
      "assetIds": []
    },
    {
      "x": 388,
      "y": 307,
      "size": 1,
      "price": "1011000000000000000000",
      "reserved": "",
      "salt": "0x001581429220ea0c232e12bb8aec3668612f8c92021851f412962b46d96e3e53",
      "assetIds": []
    },
    {
      "x": 388,
      "y": 308,
      "size": 1,
      "price": "1011000000000000000000",
      "reserved": "",
      "salt": "0x5b5a14dbc22e019ba22931820fac6a144f2290f600dc80faa386b7f80c897845",
      "assetIds": []
    },
    {
      "x": 388,
      "y": 309,
      "size": 1,
      "price": "1011000000000000000000",
      "reserved": "",
      "salt": "0x0f6907850a51440cdcbc584188b288a1c8103c56bb5ddb072904fce5c007b64c",
      "assetIds": []
    },
    {
      "x": 388,
      "y": 310,
      "size": 1,
      "price": "1011000000000000000000",
      "reserved": "",
      "salt": "0xc5cfbed9bd532147136dbd0e369ebb95f29614c4cadee95de6806a7e30a55f23",
      "assetIds": []
    },
    {
      "x": 388,
      "y": 311,
      "size": 1,
      "price": "1011000000000000000000",
      "reserved": "",
      "salt": "0x198523805ca6a0072db54eb38895e828e69d740eae32b0a5e1e86306e7e715bb",
      "assetIds": []
    },
    {
      "x": 389,
      "y": 225,
      "size": 1,
      "price": "1011000000000000000000",
      "reserved": "",
      "salt": "0x596944709e538d9e57bc85753db0af9891eafa085b9c5533dd85705cf4009b49",
      "assetIds": []
    },
    {
      "x": 389,
      "y": 226,
      "size": 1,
      "price": "1011000000000000000000",
      "reserved": "",
      "salt": "0x52eb7491043627b94754faad876b40ca1f697151b30dabcef15f772951cf28ee",
      "assetIds": []
    },
    {
      "x": 389,
      "y": 227,
      "size": 1,
      "price": "1011000000000000000000",
      "reserved": "",
      "salt": "0x9d360912c6dbae4be2cce0339bd6cbb2f4d9e519185762ea046677b9027ad38d",
      "assetIds": []
    },
    {
      "x": 389,
      "y": 228,
      "size": 1,
      "price": "1011000000000000000000",
      "reserved": "",
      "salt": "0xde9d0a245e4f55a683f3e6820680e7a52467141e2689347d6454f513a4bd893c",
      "assetIds": []
    },
    {
      "x": 389,
      "y": 229,
      "size": 1,
      "price": "1011000000000000000000",
      "reserved": "",
      "salt": "0x2321d096813ce4ea0cf74b34040f5d6d3f7a28a1c2f2dee6cb4bf6d2d3cad84a",
      "assetIds": []
    },
    {
      "x": 389,
      "y": 230,
      "size": 1,
      "price": "1011000000000000000000",
      "reserved": "",
      "salt": "0xc2b70e7bc815bb450527e5cf869ac5a581dc8bf36f13d3d52db0f7b5c50c3d96",
      "assetIds": []
    },
    {
      "x": 389,
      "y": 231,
      "size": 1,
      "price": "1011000000000000000000",
      "reserved": "",
      "salt": "0x6b044327f0fde84eaf0c9dbe00c16592610286fc650ed1cfaaef0be900c07f19",
      "assetIds": []
    },
    {
      "x": 389,
      "y": 232,
      "size": 1,
      "price": "1011000000000000000000",
      "reserved": "",
      "salt": "0x150a58afa6f10ae05c0453bb9df167351e8a0f57b4ee83117533347a5e35bfb2",
      "assetIds": []
    },
    {
      "x": 389,
      "y": 233,
      "size": 1,
      "price": "1011000000000000000000",
      "reserved": "",
      "salt": "0xe65ebebe17f6e5206e30ae57ae5ae0002424f18b3929ec1f5cfa8a200c0ed566",
      "assetIds": []
    },
    {
      "x": 389,
      "y": 234,
      "size": 1,
      "price": "1011000000000000000000",
      "reserved": "",
      "salt": "0x35fd82fc7b380028b0c455722d8a729bb6e166c39e35b21800be39890200cd5e",
      "assetIds": []
    },
    {
      "x": 389,
      "y": 235,
      "size": 1,
      "price": "1011000000000000000000",
      "reserved": "",
      "salt": "0x2e21419f681313320920ec3f30b4aaafe546c3a7d0b18aef6775dcd786ae0407",
      "assetIds": []
    },
    {
      "x": 389,
      "y": 236,
      "size": 1,
      "price": "1011000000000000000000",
      "reserved": "",
      "salt": "0xd0a1d5f88654af9f0bdf7ba38da2e927b7de89df68b052865202102d72f8a977",
      "assetIds": []
    },
    {
      "x": 389,
      "y": 237,
      "size": 1,
      "price": "1011000000000000000000",
      "reserved": "",
      "salt": "0x5e21081c67e9f39e9db01cf7349a59016d295a24901ee008c3bfe4f3793748c8",
      "assetIds": []
    },
    {
      "x": 389,
      "y": 238,
      "size": 1,
      "price": "1011000000000000000000",
      "reserved": "",
      "salt": "0x4db115d67bdc22de47b050e9d68129e8a0c21b0217218af332798061352300bd",
      "assetIds": []
    },
    {
      "x": 389,
      "y": 239,
      "size": 1,
      "price": "1011000000000000000000",
      "reserved": "",
      "salt": "0xd6775da18f1da7c6110b95f1fcbf46e10c76d157fad963731806c7eaadce7df7",
      "assetIds": []
    },
    {
      "x": 389,
      "y": 252,
      "size": 1,
      "price": "1011000000000000000000",
      "reserved": "",
      "salt": "0x70f801896165c5d84970a08175fd5998aa970ee54c0070c4dfbeacf6ad8899db",
      "assetIds": []
    },
    {
      "x": 389,
      "y": 253,
      "size": 1,
      "price": "1011000000000000000000",
      "reserved": "",
      "salt": "0x56cef82ed6c01283b935068b3a77e0c731b7d5c212033c23d21c898823d8832e",
      "assetIds": []
    },
    {
      "x": 389,
      "y": 254,
      "size": 1,
      "price": "1011000000000000000000",
      "reserved": "",
      "salt": "0x74c8f2c3fca501a80c755fb50a3d7acb9ff2ea2ee385c688e2a23a12668834a4",
      "assetIds": []
    },
    {
      "x": 389,
      "y": 255,
      "size": 1,
      "price": "1011000000000000000000",
      "reserved": "",
      "salt": "0xc8ee19f88ffbb699fb65a5f72aafaecef24d36b56b60c3d76e445a6a44173970",
      "assetIds": []
    },
    {
      "x": 389,
      "y": 256,
      "size": 1,
      "price": "1011000000000000000000",
      "reserved": "",
      "salt": "0xc90405573cec9dece9894fa1e13fd997869b85874396089725c92f4e8e50fe6e",
      "assetIds": []
    },
    {
      "x": 389,
      "y": 257,
      "size": 1,
      "price": "1011000000000000000000",
      "reserved": "",
      "salt": "0x1fc65731ed1cba9a738512e5023eaaa33ed961c3d9770819a94381f50431b23c",
      "assetIds": []
    },
    {
      "x": 389,
      "y": 294,
      "size": 1,
      "price": "1011000000000000000000",
      "reserved": "",
      "salt": "0x9264ef89bb85e51ddc95738ebf4c0cb8f0f4bcbd95480726a01521a75e9dc8d8",
      "assetIds": []
    },
    {
      "x": 389,
      "y": 295,
      "size": 1,
      "price": "1011000000000000000000",
      "reserved": "",
      "salt": "0xcdf2a21d77d2867d90595cc04a93b5f119d1a13d7165df316680be269fbb6ca9",
      "assetIds": []
    },
    {
      "x": 389,
      "y": 296,
      "size": 1,
      "price": "1011000000000000000000",
      "reserved": "",
      "salt": "0xfb6b12ca56b8bcf2a6a2054c3d18d315a4e01888fbb9e55989671709bdc3aa5f",
      "assetIds": []
    },
    {
      "x": 389,
      "y": 297,
      "size": 1,
      "price": "1011000000000000000000",
      "reserved": "",
      "salt": "0xedb6ae7aed7a4545893b832f997c8334f7b1ecf13c6e4783abc179ab2c69040f",
      "assetIds": []
    },
    {
      "x": 389,
      "y": 298,
      "size": 1,
      "price": "1011000000000000000000",
      "reserved": "",
      "salt": "0xf013a9fe9252b00aa88c8598611436ac487bde36b8d25ac0cc17bde906ba0a11",
      "assetIds": []
    },
    {
      "x": 389,
      "y": 299,
      "size": 1,
      "price": "1011000000000000000000",
      "reserved": "",
      "salt": "0x3cacd5e7dc1c16cfdba7749c1c1e60827005ff335adb6dc8aaa2d40ff9c56a7c",
      "assetIds": []
    },
    {
      "x": 389,
      "y": 306,
      "size": 1,
      "price": "1011000000000000000000",
      "reserved": "",
      "salt": "0xf6e5b35c2893b6a1e57dbc70bfeef818a11e53dd400712980aa06acc44dd1dac",
      "assetIds": []
    },
    {
      "x": 389,
      "y": 307,
      "size": 1,
      "price": "1011000000000000000000",
      "reserved": "",
      "salt": "0x19936f848302018736692b41f19bf50ff0615f62bcbf1696116e25a1ebdced04",
      "assetIds": []
    },
    {
      "x": 389,
      "y": 308,
      "size": 1,
      "price": "1011000000000000000000",
      "reserved": "",
      "salt": "0x414970e8e8e8e637eb0c5c810d3918776c6b18e1972487f1efef26990c3b497e",
      "assetIds": []
    },
    {
      "x": 389,
      "y": 309,
      "size": 1,
      "price": "1011000000000000000000",
      "reserved": "",
      "salt": "0x9af8d9e4ad38aa25a90bfa00a4a743e62fbe7ccb52bb25a34cbfcd075800c37d",
      "assetIds": []
    },
    {
      "x": 389,
      "y": 310,
      "size": 1,
      "price": "1011000000000000000000",
      "reserved": "",
      "salt": "0xc627243255614a137a3ad918e1eebbd59bd39397305068b68fa48bc7173dc1cd",
      "assetIds": []
    },
    {
      "x": 389,
      "y": 311,
      "size": 1,
      "price": "1011000000000000000000",
      "reserved": "",
      "salt": "0xdccecc835cfa8ae41062a9bee708459e87c6703189acd394c8335517c7b0220f",
      "assetIds": []
    },
    {
      "x": 390,
      "y": 222,
      "size": 1,
      "price": "1011000000000000000000",
      "reserved": "",
      "salt": "0xdea7f005815a95e44c6f421a8315da5d5f3d4091f2b99eeeee158c502ab4f1b1",
      "assetIds": []
    },
    {
      "x": 390,
      "y": 223,
      "size": 1,
      "price": "1011000000000000000000",
      "reserved": "",
      "salt": "0x4c37c5693ca25d733b7765ff43ab83b9eaf1114570904a387750d4e19864f083",
      "assetIds": []
    },
    {
      "x": 390,
      "y": 224,
      "size": 1,
      "price": "1011000000000000000000",
      "reserved": "",
      "salt": "0x703dfbb2a829721e6d3255d211b2200b0e09e86642980deaca6dcf1e992a989e",
      "assetIds": []
    },
    {
      "x": 390,
      "y": 225,
      "size": 1,
      "price": "1011000000000000000000",
      "reserved": "",
      "salt": "0x53069ac177444be04ace9ec9acc342b54d1a3ac5fd1d264c03b15fc7ae4fb3a0",
      "assetIds": []
    },
    {
      "x": 390,
      "y": 226,
      "size": 1,
      "price": "1011000000000000000000",
      "reserved": "",
      "salt": "0x4dc2573e177b35a38023d4a7558c86f28970cd10af3fe080fa3116e136c77271",
      "assetIds": []
    },
    {
      "x": 390,
      "y": 227,
      "size": 1,
      "price": "1011000000000000000000",
      "reserved": "",
      "salt": "0xe8f3cd92b3dd81acc6b16b50489ca3219f2b4866c0a69f769940777a86825806",
      "assetIds": []
    },
    {
      "x": 390,
      "y": 234,
      "size": 1,
      "price": "1011000000000000000000",
      "reserved": "",
      "salt": "0x08bca3abbe43701ec01f4d9e395a359be8800605e01903058fe850875b6a6e6d",
      "assetIds": []
    },
    {
      "x": 390,
      "y": 235,
      "size": 1,
      "price": "1011000000000000000000",
      "reserved": "",
      "salt": "0xb992a6d160cc93314711b9fb30ccf51818a24a40abd2efd3aa206743f9216b30",
      "assetIds": []
    },
    {
      "x": 390,
      "y": 236,
      "size": 1,
      "price": "1011000000000000000000",
      "reserved": "",
      "salt": "0x50505b3ef99317d1feaa9221e632a96812bdc6cf41177fe611e400df29f382ea",
      "assetIds": []
    },
    {
      "x": 390,
      "y": 237,
      "size": 1,
      "price": "1011000000000000000000",
      "reserved": "",
      "salt": "0xcb9e4a6629f2bf6a34b16ba1e2609fd12e2546fa696461cabd9c25fd040b07f3",
      "assetIds": []
    },
    {
      "x": 390,
      "y": 238,
      "size": 1,
      "price": "1011000000000000000000",
      "reserved": "",
      "salt": "0x7ca75d465541a7bd64a91880b7d0738af04c574a66f62071908aa81532919b77",
      "assetIds": []
    },
    {
      "x": 390,
      "y": 239,
      "size": 1,
      "price": "1011000000000000000000",
      "reserved": "",
      "salt": "0x5c96708d221312d7881cfccc7079ab42f90b09dd14f8482b556c33c97ad6443a",
      "assetIds": []
    },
    {
      "x": 390,
      "y": 252,
      "size": 1,
      "price": "1011000000000000000000",
      "reserved": "",
      "salt": "0x862ba0540e17c28cc8529cfc50aee2c500a29aa94d5513060a421785409f9c91",
      "assetIds": []
    },
    {
      "x": 390,
      "y": 253,
      "size": 1,
      "price": "1011000000000000000000",
      "reserved": "",
      "salt": "0x5dd860a7f77f44295f5c3c4754a33252e5afca4f9c80d0318c3ce177ace63965",
      "assetIds": []
    },
    {
      "x": 390,
      "y": 254,
      "size": 1,
      "price": "1011000000000000000000",
      "reserved": "",
      "salt": "0x3df0d7ee06330bb83e2246bc106bd78fa3a8b36acb3190de369af8bd52a2891f",
      "assetIds": []
    },
    {
      "x": 390,
      "y": 255,
      "size": 1,
      "price": "1011000000000000000000",
      "reserved": "",
      "salt": "0x063f4cb128e88eea361a8d9ac89828a507f29fb89373df8c63e8f5a1c7375964",
      "assetIds": []
    },
    {
      "x": 390,
      "y": 256,
      "size": 1,
      "price": "1011000000000000000000",
      "reserved": "",
      "salt": "0x6b11636c2f6c3bce4a51bf6a42a32333d364ab8a9265cda6ba7e1369bec10534",
      "assetIds": []
    },
    {
      "x": 390,
      "y": 257,
      "size": 1,
      "price": "1011000000000000000000",
      "reserved": "",
      "salt": "0xdfec67ffc6f8df19c66d3c087c7c95c4b08a09bb51a926f90046a3f92a457d41",
      "assetIds": []
    },
    {
      "x": 390,
      "y": 261,
      "size": 1,
      "price": "1011000000000000000000",
      "reserved": "",
      "salt": "0x7c77fd463df32101aa381dbccb1f235a897521650a906189a6d1fb9b334d3c65",
      "assetIds": []
    },
    {
      "x": 390,
      "y": 262,
      "size": 1,
      "price": "1011000000000000000000",
      "reserved": "",
      "salt": "0x2bb0c800efdb5b1978e00bd9612d2f39ff68689647e408b709013d1a41db3a66",
      "assetIds": []
    },
    {
      "x": 390,
      "y": 263,
      "size": 1,
      "price": "1011000000000000000000",
      "reserved": "",
      "salt": "0xc81de4d73571c730e79042917d4442cd5c6cd8a170ac6e77600c5f758aa5bed3",
      "assetIds": []
    },
    {
      "x": 390,
      "y": 291,
      "size": 1,
      "price": "1011000000000000000000",
      "reserved": "",
      "salt": "0x73bc48db881085481d1b8ff609bad63739d4b9e673a5cf2f6a678ea37631a91a",
      "assetIds": []
    },
    {
      "x": 390,
      "y": 292,
      "size": 1,
      "price": "1011000000000000000000",
      "reserved": "",
      "salt": "0xde607aa91beb08b03803ff748cb93241824febcc42e2e23e7d591e4c7ecd2779",
      "assetIds": []
    },
    {
      "x": 390,
      "y": 293,
      "size": 1,
      "price": "1011000000000000000000",
      "reserved": "",
      "salt": "0xebe9a5ba92c84a0015bc849d61385a35cad3074dd59464cc81f5cee96b1c6dd4",
      "assetIds": []
    },
    {
      "x": 390,
      "y": 294,
      "size": 1,
      "price": "1011000000000000000000",
      "reserved": "",
      "salt": "0x7d8ad2362295fc523f099c6aceba3f33f0ba1302c1e6969981134c18d15a9b24",
      "assetIds": []
    },
    {
      "x": 390,
      "y": 295,
      "size": 1,
      "price": "1011000000000000000000",
      "reserved": "",
      "salt": "0xced496f7a896dd610918c7f596805001a415309d83855ac94ed266a63132e84b",
      "assetIds": []
    },
    {
      "x": 390,
      "y": 296,
      "size": 1,
      "price": "1011000000000000000000",
      "reserved": "",
      "salt": "0xb4ac805dea5212561df31684f1d3bf9b23ec120f8a24962a821d31f35204ccc0",
      "assetIds": []
    },
    {
      "x": 390,
      "y": 297,
      "size": 1,
      "price": "1011000000000000000000",
      "reserved": "",
      "salt": "0xeb1b9a517eb7cf2803da921ccf4a305f4d37301a4112ac9054d24c9474bd7b7b",
      "assetIds": []
    },
    {
      "x": 390,
      "y": 298,
      "size": 1,
      "price": "1011000000000000000000",
      "reserved": "",
      "salt": "0x4ac85e357b8c38ed44b6ff54b0074cb3cb9105170450af43f2a9fbf513b1d415",
      "assetIds": []
    },
    {
      "x": 390,
      "y": 299,
      "size": 1,
      "price": "1011000000000000000000",
      "reserved": "",
      "salt": "0x7bc116ccf6137ccb752a2a0091435fe69cf41df0d9634f1dd76ee078b84b61c7",
      "assetIds": []
    },
    {
      "x": 390,
      "y": 300,
      "size": 1,
      "price": "1011000000000000000000",
      "reserved": "",
      "salt": "0x4d073391d587c1a96381ba9d38cfd21b65aaf77c644a276caea3026927bf94d5",
      "assetIds": []
    },
    {
      "x": 390,
      "y": 301,
      "size": 1,
      "price": "1011000000000000000000",
      "reserved": "",
      "salt": "0x2e4ef14e22648c12f9aae824694cfd624ce9dd9fbba91b85aacf71a19c0e1025",
      "assetIds": []
    },
    {
      "x": 390,
      "y": 302,
      "size": 1,
      "price": "1011000000000000000000",
      "reserved": "",
      "salt": "0xcf7e32074d72f9f75a3a910367b64d78bf26eb31fda0e504bca3af36090f65d5",
      "assetIds": []
    },
    {
      "x": 390,
      "y": 306,
      "size": 1,
      "price": "1011000000000000000000",
      "reserved": "",
      "salt": "0x9e352c8a6141f7d94b20d4b1af7928e2c4e6a969eff7f4d46ee4fa013b43e233",
      "assetIds": []
    },
    {
      "x": 390,
      "y": 307,
      "size": 1,
      "price": "1011000000000000000000",
      "reserved": "",
      "salt": "0x8bd026b0c4c9a4df120b0d9bca523373368fce8dd469bab1bd39f9a5617e8bba",
      "assetIds": []
    },
    {
      "x": 390,
      "y": 308,
      "size": 1,
      "price": "1011000000000000000000",
      "reserved": "",
      "salt": "0x7ea64553159e00c054e15fdd13f4645fb6baa86930592eb4e6b1979f25f047eb",
      "assetIds": []
    },
    {
      "x": 391,
      "y": 222,
      "size": 1,
      "price": "1011000000000000000000",
      "reserved": "",
      "salt": "0x2a539fb71aca6a90728936c5fe4d6b466de271a9e6b9ded518ca2d5e7729a476",
      "assetIds": []
    },
    {
      "x": 391,
      "y": 223,
      "size": 1,
      "price": "1011000000000000000000",
      "reserved": "",
      "salt": "0x531465779a03887448ac25885fff7bf517fa1bd8baabbeb92db5cdb65b7f7caf",
      "assetIds": []
    },
    {
      "x": 391,
      "y": 224,
      "size": 1,
      "price": "1011000000000000000000",
      "reserved": "",
      "salt": "0xa94f95f308862b9162fca8e0ad9b8632200ebf69de425f0d505f3655d375444c",
      "assetIds": []
    },
    {
      "x": 391,
      "y": 225,
      "size": 1,
      "price": "1011000000000000000000",
      "reserved": "",
      "salt": "0xa37960f0d89db4e6bacb9f956d6d498fb9f0b66406c05721a88bd61f4fe87bd4",
      "assetIds": []
    },
    {
      "x": 391,
      "y": 226,
      "size": 1,
      "price": "1011000000000000000000",
      "reserved": "",
      "salt": "0xde9e59113847b7d301317cd2969551fa91e7d7647649c815eec177eeeb88ee44",
      "assetIds": []
    },
    {
      "x": 391,
      "y": 227,
      "size": 1,
      "price": "1011000000000000000000",
      "reserved": "",
      "salt": "0xe43edc6671e864c9dbf7ce5e9899fa9fc2d0fc007790c73526feaa676bec471a",
      "assetIds": []
    },
    {
      "x": 391,
      "y": 234,
      "size": 1,
      "price": "1011000000000000000000",
      "reserved": "",
      "salt": "0x89ed69390ef98afae0bd17ac52dbe9fd02dcc88a4d014b4df4ad6b33f383cffe",
      "assetIds": []
    },
    {
      "x": 391,
      "y": 235,
      "size": 1,
      "price": "1011000000000000000000",
      "reserved": "",
      "salt": "0xd3df917de49c80dded7a85f010ce819cc1b47fd5578e01cd82d1ee1cf3c03472",
      "assetIds": []
    },
    {
      "x": 391,
      "y": 236,
      "size": 1,
      "price": "1011000000000000000000",
      "reserved": "",
      "salt": "0xa6f4cb6f2835f80fb2261171ea8edff8c5fb6e208c46ff4d792ea68e683bba72",
      "assetIds": []
    },
    {
      "x": 391,
      "y": 237,
      "size": 1,
      "price": "1011000000000000000000",
      "reserved": "",
      "salt": "0xf13ead9877131236be68d7983eeb3a6b19df7282e6c1a89e9199f0e93ae14352",
      "assetIds": []
    },
    {
      "x": 391,
      "y": 238,
      "size": 1,
      "price": "1011000000000000000000",
      "reserved": "0x7a9fe22691c811ea339d9b73150e6911a5343dca",
      "salt": "0xda8dced5a4259e98163618af72db7e79580ec37622d402bc571309068b9ec69b",
      "assetIds": []
    },
    {
      "x": 391,
      "y": 239,
      "size": 1,
      "price": "1011000000000000000000",
      "reserved": "",
      "salt": "0x84ad448a8d5f3bb615c60f7abe6ab8fd32061049b2dc6dfb748530f0a06d88d4",
      "assetIds": []
    },
    {
      "x": 391,
      "y": 252,
      "size": 1,
      "price": "1011000000000000000000",
      "reserved": "",
      "salt": "0xc5c067cc0fbccb15ac2c475494491bed51f8b154b56642c4e7dc5b563cc4458d",
      "assetIds": []
    },
    {
      "x": 391,
      "y": 253,
      "size": 1,
      "price": "1011000000000000000000",
      "reserved": "",
      "salt": "0x0231ffa012f4e3fdad274e2a7559d8400884b96a8ad17562ce866982aaab7047",
      "assetIds": []
    },
    {
      "x": 391,
      "y": 254,
      "size": 1,
      "price": "1011000000000000000000",
      "reserved": "",
      "salt": "0x75548f3545423ae4eabb38aebc37f5e93deba8080c1559db1a289d618649b627",
      "assetIds": []
    },
    {
      "x": 391,
      "y": 255,
      "size": 1,
      "price": "1011000000000000000000",
      "reserved": "0x7a9fe22691c811ea339d9b73150e6911a5343dca",
      "salt": "0x3bc8e08ca36635d4ffc43214149b5292e4293d413be28f2af1944fe719464ddd",
      "assetIds": []
    },
    {
      "x": 391,
      "y": 256,
      "size": 1,
      "price": "1011000000000000000000",
      "reserved": "",
      "salt": "0xcc3d5538081e565b9fd1106ed132af44287da9e76b3dd9cba3c4a75c2dc34986",
      "assetIds": []
    },
    {
      "x": 391,
      "y": 257,
      "size": 1,
      "price": "1011000000000000000000",
      "reserved": "",
      "salt": "0xa1e6d46171cedb5b5e1f1a47588381d0ffdff7fb28b670b59b6f8c213185270d",
      "assetIds": []
    },
    {
      "x": 391,
      "y": 261,
      "size": 1,
      "price": "1011000000000000000000",
      "reserved": "",
      "salt": "0x0098e11b22bffca620054c5c42573f2840a73db1e7a22182f5e98e5470de6c25",
      "assetIds": []
    },
    {
      "x": 391,
      "y": 262,
      "size": 1,
      "price": "1011000000000000000000",
      "reserved": "",
      "salt": "0xc4292388745948665d0045a9300d26d1d268320dbb8e9fdb3fb47adcc9824955",
      "assetIds": []
    },
    {
      "x": 391,
      "y": 263,
      "size": 1,
      "price": "1011000000000000000000",
      "reserved": "",
      "salt": "0x2fd2cc839636e43e28b07210c53d2e35a72a740fab7e3e7b56cec569542c13b3",
      "assetIds": []
    },
    {
      "x": 391,
      "y": 291,
      "size": 1,
      "price": "1011000000000000000000",
      "reserved": "",
      "salt": "0xab2a6ff39c9bb334cfa801db7cefc3c26ef34d8a9e2d38d5bfd978f871db8a1c",
      "assetIds": []
    },
    {
      "x": 391,
      "y": 292,
      "size": 1,
      "price": "1011000000000000000000",
      "reserved": "",
      "salt": "0xa97d65c5307d4a508dafaf060d2f12b7a30215d6b295f2b0103a0e3ee9a31ef7",
      "assetIds": []
    },
    {
      "x": 391,
      "y": 293,
      "size": 1,
      "price": "1011000000000000000000",
      "reserved": "",
      "salt": "0x71e69392f2e64452604fa23fc627428afd7e4e2c80b6030635826cf98ca1da71",
      "assetIds": []
    },
    {
      "x": 391,
      "y": 294,
      "size": 1,
      "price": "1011000000000000000000",
      "reserved": "",
      "salt": "0x35d60013efbc6cc168a38eece60d61d7618e2ec8852bec45487951b7143fd390",
      "assetIds": []
    },
    {
      "x": 391,
      "y": 295,
      "size": 1,
      "price": "1011000000000000000000",
      "reserved": "",
      "salt": "0x2455c13f38fdce489e4629003d26a3d2b77188683428fbcb9ae41c50c2a453f5",
      "assetIds": []
    },
    {
      "x": 391,
      "y": 296,
      "size": 1,
      "price": "1011000000000000000000",
      "reserved": "",
      "salt": "0x7c4c4cec64680f49de0016fac17007cbf8f9ca609ac819aef57dd4a4cc6b9701",
      "assetIds": []
    },
    {
      "x": 391,
      "y": 297,
      "size": 1,
      "price": "1011000000000000000000",
      "reserved": "",
      "salt": "0xed2a5cbc21fdead0998eb40dd568480c66c022eb63cd3fbb858f5e4b93976eb9",
      "assetIds": []
    },
    {
      "x": 391,
      "y": 298,
      "size": 1,
      "price": "1011000000000000000000",
      "reserved": "",
      "salt": "0x3eadc060f4095c4a50b940c4da1edb62465b3140110b389248420327d5497864",
      "assetIds": []
    },
    {
      "x": 391,
      "y": 299,
      "size": 1,
      "price": "1011000000000000000000",
      "reserved": "",
      "salt": "0xe3733901fa14a54ce7881921e713a67d20eda62446c1c72bd263e1c556ee3ffc",
      "assetIds": []
    },
    {
      "x": 391,
      "y": 300,
      "size": 1,
      "price": "1011000000000000000000",
      "reserved": "",
      "salt": "0x23cebb72705a1525e6f34542805ed8ce09a998b0a91302218f6517fe412dd7e7",
      "assetIds": []
    },
    {
      "x": 391,
      "y": 301,
      "size": 1,
      "price": "1011000000000000000000",
      "reserved": "",
      "salt": "0x972fa592d359a96fd9500d9d4c6e63bc803c11e63b9487b2e0c529a03ba2b553",
      "assetIds": []
    },
    {
      "x": 391,
      "y": 302,
      "size": 1,
      "price": "1011000000000000000000",
      "reserved": "",
      "salt": "0x999bbac1371e4f4d1f14a114b2a81916dbfa3bec460a48130fb5ede5df54a461",
      "assetIds": []
    },
    {
      "x": 391,
      "y": 306,
      "size": 1,
      "price": "1011000000000000000000",
      "reserved": "",
      "salt": "0xdf82f86a0b24aec1997293fa754fc370fe8ad395ad3a91cb7a68d0b988e43a9e",
      "assetIds": []
    },
    {
      "x": 391,
      "y": 307,
      "size": 1,
      "price": "1011000000000000000000",
      "reserved": "",
      "salt": "0x554abcc1a035eed4d366606ed1ef332c50f33797151f15866f0b14dcf942f4a9",
      "assetIds": []
    },
    {
      "x": 391,
      "y": 308,
      "size": 1,
      "price": "1011000000000000000000",
      "reserved": "",
      "salt": "0x5a359eca8a97a69f2ab4df66bd7620f73733937bffa250118cc6166ae878f948",
      "assetIds": []
    },
    {
      "x": 392,
      "y": 222,
      "size": 1,
      "price": "1011000000000000000000",
      "reserved": "",
      "salt": "0x4ccbadea3523a29592b48ba60231aad55e5e9da77f542d691f0f300c1f05ccd5",
      "assetIds": []
    },
    {
      "x": 392,
      "y": 223,
      "size": 1,
      "price": "1011000000000000000000",
      "reserved": "",
      "salt": "0x038d43cb8c430ed0c13322fd92d5edf7825ef11379ae16507beaacaa021ab8ec",
      "assetIds": []
    },
    {
      "x": 392,
      "y": 224,
      "size": 1,
      "price": "1011000000000000000000",
      "reserved": "",
      "salt": "0x2b202dd6e77a987063bd4d6cfb45589722eaff1abc568a4a9d20657e55007f79",
      "assetIds": []
    },
    {
      "x": 392,
      "y": 225,
      "size": 1,
      "price": "1011000000000000000000",
      "reserved": "",
      "salt": "0x02c295a8526fed3480ad9478f56b76b3f71db7274ff1e232b511b15589016f38",
      "assetIds": []
    },
    {
      "x": 392,
      "y": 226,
      "size": 1,
      "price": "1011000000000000000000",
      "reserved": "",
      "salt": "0x8c7476e9c657f7e03ce2e0fbd9242933119cd26e036c671f9b5c28d62729e5fd",
      "assetIds": []
    },
    {
      "x": 392,
      "y": 227,
      "size": 1,
      "price": "1011000000000000000000",
      "reserved": "",
      "salt": "0x5ad9bfcb6b730fb543de4a6b1a12aa3a08786de8ffef216274bb7f14b2ada6c1",
      "assetIds": []
    },
    {
      "x": 392,
      "y": 234,
      "size": 1,
      "price": "1011000000000000000000",
      "reserved": "",
      "salt": "0x24d271c66368708339cb60994ea2984d26fbfc57c9b8eab2857c188f15c98a75",
      "assetIds": []
    },
    {
      "x": 392,
      "y": 235,
      "size": 1,
      "price": "1011000000000000000000",
      "reserved": "",
      "salt": "0x9db9cd8552899445233df5fe068af06ae1c746a04a4ba37060b019dd1c11432e",
      "assetIds": []
    },
    {
      "x": 392,
      "y": 236,
      "size": 1,
      "price": "1011000000000000000000",
      "reserved": "",
      "salt": "0x6c358050e8dd7cc99f169a1f173914b1ce3c85b9d6b605fb5a0656814edbee2e",
      "assetIds": []
    },
    {
      "x": 392,
      "y": 237,
      "size": 1,
      "price": "1011000000000000000000",
      "reserved": "",
      "salt": "0x11f25b80df57015ba1fa626ac77f74b471b318386567abf61dc0d7e7989163b5",
      "assetIds": []
    },
    {
      "x": 392,
      "y": 238,
      "size": 1,
      "price": "1011000000000000000000",
      "reserved": "",
      "salt": "0xabae927e85ec07511e7cc728441d6d2d858d99b38909bd54c2e780cb9add5518",
      "assetIds": []
    },
    {
      "x": 392,
      "y": 239,
      "size": 1,
      "price": "1011000000000000000000",
      "reserved": "",
      "salt": "0xb1764785441d641992639b3f4b3008bad8248bc94c715aaeaab6c906569d633f",
      "assetIds": []
    },
    {
      "x": 392,
      "y": 252,
      "size": 1,
      "price": "1011000000000000000000",
      "reserved": "",
      "salt": "0x8bde911c5175bcfb11e8aaa467150910cfe9852efbe748104078a38261ec08e9",
      "assetIds": []
    },
    {
      "x": 392,
      "y": 253,
      "size": 1,
      "price": "1011000000000000000000",
      "reserved": "",
      "salt": "0x53ad789a7804bc819f1d098fd928278cd1427657b7e5040564fe860302a27bf0",
      "assetIds": []
    },
    {
      "x": 392,
      "y": 254,
      "size": 1,
      "price": "1011000000000000000000",
      "reserved": "",
      "salt": "0x7c97aeac4fa9cf2524c3c7334285b505ccd2f2430067c538336cf896b2f3e715",
      "assetIds": []
    },
    {
      "x": 392,
      "y": 255,
      "size": 1,
      "price": "1011000000000000000000",
      "reserved": "",
      "salt": "0x54220a020fd36d1b3ad6ef34e0411be574653e465eb57ca1c65af7bf6714691a",
      "assetIds": []
    },
    {
      "x": 392,
      "y": 256,
      "size": 1,
      "price": "1011000000000000000000",
      "reserved": "",
      "salt": "0x90a0cfa1dc21381b09381836be205f3123dd162f8cb28f05209fc27eda5ec7e7",
      "assetIds": []
    },
    {
      "x": 392,
      "y": 257,
      "size": 1,
      "price": "1011000000000000000000",
      "reserved": "",
      "salt": "0x09648f15138c3bd141e59fc5516c1d816bddd5efeaaa0df56c1012b1d9634727",
      "assetIds": []
    },
    {
      "x": 392,
      "y": 261,
      "size": 1,
      "price": "1011000000000000000000",
      "reserved": "",
      "salt": "0xaf57576612d47fcbe22af6efacbf86314aa8b348ef0bac112b5d8397f278e21f",
      "assetIds": []
    },
    {
      "x": 392,
      "y": 262,
      "size": 1,
      "price": "1011000000000000000000",
      "reserved": "",
      "salt": "0x6aa993e6b75bbd0a856f96301fa365088d3fb4d320e2d71cbeacf02da59b1259",
      "assetIds": []
    },
    {
      "x": 392,
      "y": 263,
      "size": 1,
      "price": "1011000000000000000000",
      "reserved": "",
      "salt": "0x24a1a9c27e5718dc1cb613e3b98a57de11564b2a12bbceafc37d5375e9ae5665",
      "assetIds": []
    },
    {
      "x": 392,
      "y": 291,
      "size": 1,
      "price": "1011000000000000000000",
      "reserved": "",
      "salt": "0xae2f198fbccc686f08853a0eda17d797a066fb25984c46f85b2ed7d8af0a60f3",
      "assetIds": []
    },
    {
      "x": 392,
      "y": 292,
      "size": 1,
      "price": "1011000000000000000000",
      "reserved": "",
      "salt": "0xf48c8f208e4cebaf2835e781f1c7520c6018b3c263256076bfa2ec5f06f6e4b1",
      "assetIds": []
    },
    {
      "x": 392,
      "y": 293,
      "size": 1,
      "price": "1011000000000000000000",
      "reserved": "",
      "salt": "0x4069e63c173723c914b70158552b7d06f92de4fdaaa3182874767263eceb7cfc",
      "assetIds": []
    },
    {
      "x": 392,
      "y": 294,
      "size": 1,
      "price": "1011000000000000000000",
      "reserved": "",
      "salt": "0xa51ef5e4a493ca6a4b872edcea076bde583b590a23b5dcff48b89084776b7792",
      "assetIds": []
    },
    {
      "x": 392,
      "y": 295,
      "size": 1,
      "price": "1011000000000000000000",
      "reserved": "",
      "salt": "0xe469eb813294b993a1ec29faa70aa17f12503d3a2d37bcf544242ca85f505232",
      "assetIds": []
    },
    {
      "x": 392,
      "y": 296,
      "size": 1,
      "price": "1011000000000000000000",
      "reserved": "",
      "salt": "0xf4a424ab84f559679665f93a44ab89cd1dd2a9e4f1f191b0917e976b7070369c",
      "assetIds": []
    },
    {
      "x": 392,
      "y": 297,
      "size": 1,
      "price": "1011000000000000000000",
      "reserved": "",
      "salt": "0x285da9923edda4f044cca68e5a46b770e591ff3f6c982300264febcfdf8f7130",
      "assetIds": []
    },
    {
      "x": 392,
      "y": 298,
      "size": 1,
      "price": "1011000000000000000000",
      "reserved": "",
      "salt": "0xc95d6a9ce15275a6e1233a59233d28ec8aa57ed1590c65312e06005054673c25",
      "assetIds": []
    },
    {
      "x": 392,
      "y": 299,
      "size": 1,
      "price": "1011000000000000000000",
      "reserved": "",
      "salt": "0x082970867da514a09ce5580948733ab3acdcafd447aa52daa40f247c7cdbb9a5",
      "assetIds": []
    },
    {
      "x": 392,
      "y": 300,
      "size": 1,
      "price": "1011000000000000000000",
      "reserved": "",
      "salt": "0xcd4e32974cbffdf24f3d80aeecb4a85e13e6ba81c4f7b76258e5be7bb7cd3e5d",
      "assetIds": []
    },
    {
      "x": 392,
      "y": 301,
      "size": 1,
      "price": "1011000000000000000000",
      "reserved": "",
      "salt": "0x2c2117936fb0b5c0864808b149f9b0d808e0b46cd77f8fbe02a38df012cd27c5",
      "assetIds": []
    },
    {
      "x": 392,
      "y": 302,
      "size": 1,
      "price": "1011000000000000000000",
      "reserved": "",
      "salt": "0xf03541bb76548726189f08260f2b815154094d20e12c966d22f93a99877a6ab4",
      "assetIds": []
    },
    {
      "x": 392,
      "y": 306,
      "size": 1,
      "price": "1011000000000000000000",
      "reserved": "",
      "salt": "0x866514bd325c9f162178d0e8f93f62d50cad9d0b78ed04886182b70e92a4d670",
      "assetIds": []
    },
    {
      "x": 392,
      "y": 307,
      "size": 1,
      "price": "1011000000000000000000",
      "reserved": "",
      "salt": "0xf0869137e889d0c5bcb6d8fc583890870e5072277639f0aae0f800bcd6e974ee",
      "assetIds": []
    },
    {
      "x": 392,
      "y": 308,
      "size": 1,
      "price": "1011000000000000000000",
      "reserved": "",
      "salt": "0xc9cfca167c5ed734b7433fdd40ea58cc0349fe8cc78826ed6da7c1c97cd80a59",
      "assetIds": []
    },
    {
      "x": 393,
      "y": 222,
      "size": 1,
      "price": "1011000000000000000000",
      "reserved": "",
      "salt": "0x868331fddf1d70b432c7119fa03b41794f29a3a643f0c658313c08e21fb3feca",
      "assetIds": []
    },
    {
      "x": 393,
      "y": 223,
      "size": 1,
      "price": "1011000000000000000000",
      "reserved": "",
      "salt": "0x97302558dc788df86f833395989e12391d1a751312dbfcc07799f4d38ae64961",
      "assetIds": []
    },
    {
      "x": 393,
      "y": 224,
      "size": 1,
      "price": "1011000000000000000000",
      "reserved": "",
      "salt": "0x22f18d56baa5cacca4103ee1ef8887711e81e525d795d35dfb4de6d78d0ce393",
      "assetIds": []
    },
    {
      "x": 393,
      "y": 225,
      "size": 1,
      "price": "1011000000000000000000",
      "reserved": "",
      "salt": "0x2d09cea19d2a0badbbb40991938d0895dcb9f3cb323ccad500e0cfa8bf21f7b1",
      "assetIds": []
    },
    {
      "x": 393,
      "y": 226,
      "size": 1,
      "price": "1011000000000000000000",
      "reserved": "",
      "salt": "0xaad39793ec5c346de6d83da014b66cfca7483e1bc4f230c4e6387edf45788c3f",
      "assetIds": []
    },
    {
      "x": 393,
      "y": 227,
      "size": 1,
      "price": "1011000000000000000000",
      "reserved": "",
      "salt": "0xc17fe9bf51f74c0fde0dd7909ec86b15608b5ee8d65b7d7297eccd909759009e",
      "assetIds": []
    },
    {
      "x": 393,
      "y": 234,
      "size": 1,
      "price": "1011000000000000000000",
      "reserved": "",
      "salt": "0xcdfa5a54133b50a96317515800a2b24b332244ff3eaf8877d510c512b61d39a9",
      "assetIds": []
    },
    {
      "x": 393,
      "y": 235,
      "size": 1,
      "price": "1011000000000000000000",
      "reserved": "",
      "salt": "0x2fdf88d3c210749dcdc9a1e38b2a65ce69557b1adc632a494e975ab8a4835ae1",
      "assetIds": []
    },
    {
      "x": 393,
      "y": 236,
      "size": 1,
      "price": "1011000000000000000000",
      "reserved": "",
      "salt": "0x841d84b65baa61a3d5308619602befb7fc680ec60c72b29ec636ec9e79285ce4",
      "assetIds": []
    },
    {
      "x": 393,
      "y": 237,
      "size": 1,
      "price": "1011000000000000000000",
      "reserved": "",
      "salt": "0x25445f8f7b68a492a8cdbe9d720d720c5a55160554ae721295a5e2026506cd23",
      "assetIds": []
    },
    {
      "x": 393,
      "y": 238,
      "size": 1,
      "price": "1011000000000000000000",
      "reserved": "",
      "salt": "0x6ada50fa94209dead845e58e03b0bed48ca77f5a2a3a892b0c2716a71ef99985",
      "assetIds": []
    },
    {
      "x": 393,
      "y": 239,
      "size": 1,
      "price": "1011000000000000000000",
      "reserved": "",
      "salt": "0xe50a99cac96b51c6925b72429b211689346d861cd3e41e8bc89f728e80b873f8",
      "assetIds": []
    },
    {
      "x": 393,
      "y": 252,
      "size": 1,
      "price": "1011000000000000000000",
      "reserved": "",
      "salt": "0x306bc01cd921270df1d98c6cd24df65e633614d0de30fd3cff41ce8a77d80314",
      "assetIds": []
    },
    {
      "x": 393,
      "y": 253,
      "size": 1,
      "price": "1011000000000000000000",
      "reserved": "",
      "salt": "0x3c05133287e6fe86d8e96b344c6a8e7754529207c2f6b367aae37609af6b9449",
      "assetIds": []
    },
    {
      "x": 393,
      "y": 254,
      "size": 1,
      "price": "1011000000000000000000",
      "reserved": "",
      "salt": "0x0ac233a0a75c5444f1040af9139a2af53076a937210dbea0639ee203fe2c166b",
      "assetIds": []
    },
    {
      "x": 393,
      "y": 255,
      "size": 1,
      "price": "1011000000000000000000",
      "reserved": "",
      "salt": "0x1db61bdab3d98edb2baf9846dbfc4acade7a3cd3b5decfb119d13e77c2bc3bcb",
      "assetIds": []
    },
    {
      "x": 393,
      "y": 256,
      "size": 1,
      "price": "1011000000000000000000",
      "reserved": "",
      "salt": "0x8328649bc8d7acd7ac5fe72a5bcdf63274294aab59d3c122c4d80c32562b0839",
      "assetIds": []
    },
    {
      "x": 393,
      "y": 257,
      "size": 1,
      "price": "1011000000000000000000",
      "reserved": "",
      "salt": "0x5f89ef5768b028d914f49fbc61effa2d30b68dce2b0a9b642d1732225caac78a",
      "assetIds": []
    },
    {
      "x": 393,
      "y": 258,
      "size": 1,
      "price": "1011000000000000000000",
      "reserved": "",
      "salt": "0xd633bfa0bde004b9917dc0d610e35940b1ec9087fc70ad2a861b02252cb7ce40",
      "assetIds": []
    },
    {
      "x": 393,
      "y": 259,
      "size": 1,
      "price": "1011000000000000000000",
      "reserved": "",
      "salt": "0x71ddbe1a676b8743f5ccee4822ac8b3fd0a00fc1e3cc237f87dbfae928c8b374",
      "assetIds": []
    },
    {
      "x": 393,
      "y": 260,
      "size": 1,
      "price": "1011000000000000000000",
      "reserved": "",
      "salt": "0x820a4284b1f1c9c4cfbdad9fa54ef6a2336905e7277016181f711ac828b022ed",
      "assetIds": []
    },
    {
      "x": 393,
      "y": 288,
      "size": 1,
      "price": "1011000000000000000000",
      "reserved": "",
      "salt": "0x09a9ef955d9b5f7ff12881909e4c4ac60deb90ce0595b27c4440698314cdf11f",
      "assetIds": []
    },
    {
      "x": 393,
      "y": 289,
      "size": 1,
      "price": "1011000000000000000000",
      "reserved": "",
      "salt": "0x876826ebc73552f86c695b1326bef61a3edb584ba58f964fd24c71d7238f5435",
      "assetIds": []
    },
    {
      "x": 393,
      "y": 290,
      "size": 1,
      "price": "1011000000000000000000",
      "reserved": "",
      "salt": "0x8c52f89ebaed2713dfd7ef92e698dfe2d134633b4f53907bc3132417704a7680",
      "assetIds": []
    },
    {
      "x": 393,
      "y": 291,
      "size": 1,
      "price": "1011000000000000000000",
      "reserved": "",
      "salt": "0x8c858582f6804176d20946af9306aad66fc1f3e45aa1b78e1a94d80440a5ec59",
      "assetIds": []
    },
    {
      "x": 393,
      "y": 292,
      "size": 1,
      "price": "1011000000000000000000",
      "reserved": "",
      "salt": "0xab12d867a6305eb97b82c8bab1af54c7a14d71095a873fdd3370ea0f940f2c14",
      "assetIds": []
    },
    {
      "x": 393,
      "y": 293,
      "size": 1,
      "price": "1011000000000000000000",
      "reserved": "",
      "salt": "0xae9274b0f2020b3decf75133df401d10e6dbc52863131e495024fc96307df30b",
      "assetIds": []
    },
    {
      "x": 393,
      "y": 294,
      "size": 1,
      "price": "1011000000000000000000",
      "reserved": "",
      "salt": "0x9b7e78bb4afaff4e2ec9be8f17d82f6caa9687f8f3ece929216b820ae463f52f",
      "assetIds": []
    },
    {
      "x": 393,
      "y": 295,
      "size": 1,
      "price": "1011000000000000000000",
      "reserved": "",
      "salt": "0x678c18d8f6a74e082360f33d9adc71143f6aee451748803bea0cc111c6c7ea91",
      "assetIds": []
    },
    {
      "x": 393,
      "y": 296,
      "size": 1,
      "price": "1011000000000000000000",
      "reserved": "",
      "salt": "0xb179a1361d9eb5a7028c8bcbb18532d96a4bbac6f12b2359419d3d2e1e84ae72",
      "assetIds": []
    },
    {
      "x": 393,
      "y": 300,
      "size": 1,
      "price": "1011000000000000000000",
      "reserved": "",
      "salt": "0x727afb7a44c3bef4b9c9adf962c77c09d125cc36a0e38262b1b4b191894f43ac",
      "assetIds": []
    },
    {
      "x": 393,
      "y": 301,
      "size": 1,
      "price": "1011000000000000000000",
      "reserved": "",
      "salt": "0xf51491365bff8ffe2c1c3f774440bfd35f55ee42d4d3c05ef05fc0baae4641d0",
      "assetIds": []
    },
    {
      "x": 393,
      "y": 302,
      "size": 1,
      "price": "1011000000000000000000",
      "reserved": "",
      "salt": "0xd084a63bc1004b52e13fb3f2f1be7a4eddec7f5bc9162f49d5e417259115be50",
      "assetIds": []
    },
    {
      "x": 393,
      "y": 303,
      "size": 1,
      "price": "1011000000000000000000",
      "reserved": "",
      "salt": "0x0d1dbf5c38c0edc788e63b76247cad10f042cf4b3ee4383b18e1c4723f6c4138",
      "assetIds": []
    },
    {
      "x": 393,
      "y": 304,
      "size": 1,
      "price": "1011000000000000000000",
      "reserved": "",
      "salt": "0xe5b09f4ac67b4d983afffcd63e11e24b7500e49d609680a1e506be23906c8868",
      "assetIds": []
    },
    {
      "x": 393,
      "y": 305,
      "size": 1,
      "price": "1011000000000000000000",
      "reserved": "",
      "salt": "0x96e456741e286b3de59e60386bf3167c91fa44ffd0d1fead3dfec88dde17a658",
      "assetIds": []
    },
    {
      "x": 393,
      "y": 306,
      "size": 1,
      "price": "1011000000000000000000",
      "reserved": "",
      "salt": "0x4a7cdff990e402e44e6cb6a256be211c6b36bb95cb43ff82a7fb0b514794f038",
      "assetIds": []
    },
    {
      "x": 393,
      "y": 307,
      "size": 1,
      "price": "1011000000000000000000",
      "reserved": "",
      "salt": "0xa310385049ccadabe65fa9ff4250f02d9bc817c9596b06215bbc8cb2bcfbd5e5",
      "assetIds": []
    },
    {
      "x": 393,
      "y": 308,
      "size": 1,
      "price": "1011000000000000000000",
      "reserved": "",
      "salt": "0xd952cf7d33ce1c4feab921db482d4c83f3f06f771a47a8e8d760bd3c954352a8",
      "assetIds": []
    },
    {
      "x": 393,
      "y": 309,
      "size": 1,
      "price": "1011000000000000000000",
      "reserved": "",
      "salt": "0x0006293388c8874cffd3e02a8d8efaf9c85734b6df73ccd5e9dddedfb26dece4",
      "assetIds": []
    },
    {
      "x": 393,
      "y": 310,
      "size": 1,
      "price": "1011000000000000000000",
      "reserved": "",
      "salt": "0x5b570f185ab9e1156c37e6204837c5652ddf61979cfbecccd128281be09b58d2",
      "assetIds": []
    },
    {
      "x": 393,
      "y": 311,
      "size": 1,
      "price": "1011000000000000000000",
      "reserved": "",
      "salt": "0xc3ab2dd29a4c3f5c2dc2c5759110797d4d79ee0e429345fa330838b4fe9527f2",
      "assetIds": []
    },
    {
      "x": 394,
      "y": 222,
      "size": 1,
      "price": "1011000000000000000000",
      "reserved": "",
      "salt": "0x6d0cc3c51a7c4bda570c098ea8048c937ce7277f3bf250a838b036b4dd01415f",
      "assetIds": []
    },
    {
      "x": 394,
      "y": 223,
      "size": 1,
      "price": "1011000000000000000000",
      "reserved": "",
      "salt": "0x7f0c35d45cbcf70a0996984a8b4c429f645c91a4ef1c68e6761a61b1947e442f",
      "assetIds": []
    },
    {
      "x": 394,
      "y": 224,
      "size": 1,
      "price": "1011000000000000000000",
      "reserved": "",
      "salt": "0x58bb0b40595a709e6d5d946f8eeacac80d01de2521a627e210fd0459ae31201f",
      "assetIds": []
    },
    {
      "x": 394,
      "y": 225,
      "size": 1,
      "price": "1011000000000000000000",
      "reserved": "",
      "salt": "0x7a39f87a6253da133adde755971fcb56f99218c9a269b0eb0b5d4e76564af252",
      "assetIds": []
    },
    {
      "x": 394,
      "y": 226,
      "size": 1,
      "price": "1011000000000000000000",
      "reserved": "",
      "salt": "0x7bc0bd7f87cfa5cc363807e3b922c57914feb9c8d01bc006c5db7148b2182b6c",
      "assetIds": []
    },
    {
      "x": 394,
      "y": 227,
      "size": 1,
      "price": "1011000000000000000000",
      "reserved": "",
      "salt": "0xf74731badacc31157c7ddf76e1ebbea6d196d47a8c4d874295ffd6d93af2e9ff",
      "assetIds": []
    },
    {
      "x": 394,
      "y": 234,
      "size": 1,
      "price": "1011000000000000000000",
      "reserved": "",
      "salt": "0x7c238c0652a120d95a65d3fbaa3179fab44b3b1f9f4af25f5fd3cd25d6159e1e",
      "assetIds": []
    },
    {
      "x": 394,
      "y": 235,
      "size": 1,
      "price": "1011000000000000000000",
      "reserved": "",
      "salt": "0x9c94d57319021763402770e5b096bf35ab075458cd3c28f4dce4e147fd0d5092",
      "assetIds": []
    },
    {
      "x": 394,
      "y": 236,
      "size": 1,
      "price": "1011000000000000000000",
      "reserved": "",
      "salt": "0xe2ba45247a5fa4a8f3ff4f78e62596e3aeb8e24b4d1f007653645158a7ba562c",
      "assetIds": []
    },
    {
      "x": 394,
      "y": 237,
      "size": 1,
      "price": "1011000000000000000000",
      "reserved": "",
      "salt": "0xb2ef98e8361082ff61e2560d70dcfa9856ae911c9706fdd3018d9d742a08d60a",
      "assetIds": []
    },
    {
      "x": 394,
      "y": 238,
      "size": 1,
      "price": "1011000000000000000000",
      "reserved": "",
      "salt": "0x108ac034e13654340f5313a24dede66fc07ae38489fa7071826e767d5124dd2a",
      "assetIds": []
    },
    {
      "x": 394,
      "y": 239,
      "size": 1,
      "price": "1011000000000000000000",
      "reserved": "",
      "salt": "0x400be5609029c7c01a7c4c26af0560f8dccbb0fff1e9cdec91bfbfb69a990da3",
      "assetIds": []
    },
    {
      "x": 394,
      "y": 252,
      "size": 1,
      "price": "1011000000000000000000",
      "reserved": "",
      "salt": "0xa2ab6e389df7d368d2e7cdcfb4e9c0843617a3c8aaeade7a11efde79ae0c96cb",
      "assetIds": []
    },
    {
      "x": 394,
      "y": 253,
      "size": 1,
      "price": "1011000000000000000000",
      "reserved": "",
      "salt": "0xe992f1c434606152353d47645cf13ab30991084859e1d81c0ae0abcd03fb6a96",
      "assetIds": []
    },
    {
      "x": 394,
      "y": 254,
      "size": 1,
      "price": "1011000000000000000000",
      "reserved": "",
      "salt": "0x4689f5b73ef62d026c4024e9c17f98c444dd41fc7f4253587b7dd33feac85e5e",
      "assetIds": []
    },
    {
      "x": 394,
      "y": 255,
      "size": 1,
      "price": "1011000000000000000000",
      "reserved": "",
      "salt": "0x1a4ee545a0f5316c3c2ba245a9d95241d587dfd73dcb75f1aeba290d4f9a6e3c",
      "assetIds": []
    },
    {
      "x": 394,
      "y": 256,
      "size": 1,
      "price": "1011000000000000000000",
      "reserved": "",
      "salt": "0x12f02467c5cfb422afc96ceeb9d9ce2e9d78d7af5b310d62236a94aec99beff2",
      "assetIds": []
    },
    {
      "x": 394,
      "y": 257,
      "size": 1,
      "price": "1011000000000000000000",
      "reserved": "",
      "salt": "0x65968bf5f6df1d843b58269c29ca9938a1e3a06944240654edf9367c070a2de6",
      "assetIds": []
    },
    {
      "x": 394,
      "y": 258,
      "size": 1,
      "price": "1011000000000000000000",
      "reserved": "",
      "salt": "0x7c175860cfac4ce7bb00c40e6bec0deb4a5268e4d77901ee88be7e47a8315e2f",
      "assetIds": []
    },
    {
      "x": 394,
      "y": 259,
      "size": 1,
      "price": "1011000000000000000000",
      "reserved": "",
      "salt": "0xbb814bf8acb5a7f08c2a894a95b3cc4768f7c8006c48d4a43265cb6a007ef06f",
      "assetIds": []
    },
    {
      "x": 394,
      "y": 260,
      "size": 1,
      "price": "1011000000000000000000",
      "reserved": "",
      "salt": "0x48367ba47f1db71e8d97a538a32f2edd89d903460d5bd1dcc1ea578cdd2732d5",
      "assetIds": []
    },
    {
      "x": 394,
      "y": 288,
      "size": 1,
      "price": "1011000000000000000000",
      "reserved": "",
      "salt": "0x199c01bd6efc9dc0effad97d00e12a6cdfd245490fd3d8fa682d573da3e409e9",
      "assetIds": []
    },
    {
      "x": 394,
      "y": 289,
      "size": 1,
      "price": "1011000000000000000000",
      "reserved": "0x7a9fe22691c811ea339d9b73150e6911a5343dca",
      "salt": "0x453146b231a41f6aaa99285a11f9988d11eb15efcf49f4e1a7703cc6ab8a8039",
      "assetIds": []
    },
    {
      "x": 394,
      "y": 290,
      "size": 1,
      "price": "1011000000000000000000",
      "reserved": "",
      "salt": "0x80f1c62d9fe369d83d95b93b65c3071a5b3afece21075f5b830e1255f9b700a6",
      "assetIds": []
    },
    {
      "x": 394,
      "y": 291,
      "size": 1,
      "price": "1011000000000000000000",
      "reserved": "",
      "salt": "0x5117c2d335fa0e0fb50f71be6562c5e11c97ccde07a1272276810df1a21af381",
      "assetIds": []
    },
    {
      "x": 394,
      "y": 292,
      "size": 1,
      "price": "1011000000000000000000",
      "reserved": "",
      "salt": "0x9ad2843dc10690ebfb63def077b28c5401f2e769c6ef6ab1625f1c9285232c42",
      "assetIds": []
    },
    {
      "x": 394,
      "y": 293,
      "size": 1,
      "price": "1011000000000000000000",
      "reserved": "",
      "salt": "0x50ad6f76faa8e18ec9ffa7c01212b23221943256938273122a4e74896002a7f1",
      "assetIds": []
    },
    {
      "x": 394,
      "y": 294,
      "size": 1,
      "price": "1011000000000000000000",
      "reserved": "",
      "salt": "0x038665cfe405536ba5ba734fed420a3eef7bb0cd3c85a75210812328d5d5ba72",
      "assetIds": []
    },
    {
      "x": 394,
      "y": 295,
      "size": 1,
      "price": "1011000000000000000000",
      "reserved": "",
      "salt": "0xe3026a9261e1400bbbb4f3dc11d2a231e47a3aa215f1e30f073f906464a3505d",
      "assetIds": []
    },
    {
      "x": 394,
      "y": 296,
      "size": 1,
      "price": "1011000000000000000000",
      "reserved": "",
      "salt": "0x4c8f7f27b54c113dce4160049bc23366e4a9586d482946539ee6cee38fc88e86",
      "assetIds": []
    },
    {
      "x": 394,
      "y": 300,
      "size": 1,
      "price": "1011000000000000000000",
      "reserved": "",
      "salt": "0xe536f52a7acad9000cc96afe467b9e68b5336f45f8e9087397e72561a706b2bf",
      "assetIds": []
    },
    {
      "x": 394,
      "y": 301,
      "size": 1,
      "price": "1011000000000000000000",
      "reserved": "",
      "salt": "0x8f3d1b084eb816947122e8b7b98e3dc0e7d0c82c9726373e3d7b12a563a9c150",
      "assetIds": []
    },
    {
      "x": 394,
      "y": 302,
      "size": 1,
      "price": "1011000000000000000000",
      "reserved": "",
      "salt": "0x91d5cc5df90cacffd39bfa6af9a7f9d2296206cf23fa0e73186c92dd51f2e0f3",
      "assetIds": []
    },
    {
      "x": 394,
      "y": 303,
      "size": 1,
      "price": "1011000000000000000000",
      "reserved": "",
      "salt": "0x2358ad1991d1a7d1febd2fdd296313396e313bb23c108a0ebc21b98d2f5bd075",
      "assetIds": []
    },
    {
      "x": 394,
      "y": 304,
      "size": 1,
      "price": "1011000000000000000000",
      "reserved": "",
      "salt": "0x9ab21e82b3c86da446bc585166fd75550e30e1cc3e860bb1a342ae825810f458",
      "assetIds": []
    },
    {
      "x": 394,
      "y": 305,
      "size": 1,
      "price": "1011000000000000000000",
      "reserved": "",
      "salt": "0xf020f01052c1bacf39fe70d52b5fd1aeee5eb015bf358d6d9f5e8e0faa0949c9",
      "assetIds": []
    },
    {
      "x": 394,
      "y": 306,
      "size": 1,
      "price": "1011000000000000000000",
      "reserved": "",
      "salt": "0x2b1aef286e296307a4086c2dcfb26de75b2cf2e467f86b4e894e372505140038",
      "assetIds": []
    },
    {
      "x": 394,
      "y": 307,
      "size": 1,
      "price": "1011000000000000000000",
      "reserved": "0x7a9fe22691c811ea339d9b73150e6911a5343dca",
      "salt": "0xcd7b83db92544c19bcf05b278c8b56e56106bac40885f3a5e812805bd267807b",
      "assetIds": []
    },
    {
      "x": 394,
      "y": 308,
      "size": 1,
      "price": "1011000000000000000000",
      "reserved": "",
      "salt": "0xef4f61d31d0875217c1edfc692ca2010c18ed6b8ef9d3d694341cfc686e0b3d3",
      "assetIds": []
    },
    {
      "x": 394,
      "y": 309,
      "size": 1,
      "price": "1011000000000000000000",
      "reserved": "",
      "salt": "0xb617351aafddc7194b87e79b0c22768dadf106e2d4b093d071eab6121fb5168f",
      "assetIds": []
    },
    {
      "x": 394,
      "y": 310,
      "size": 1,
      "price": "1011000000000000000000",
      "reserved": "",
      "salt": "0xec9385b35dc30d0336db2e9193c916483762980bdf18656e23c403430f30e633",
      "assetIds": []
    },
    {
      "x": 394,
      "y": 311,
      "size": 1,
      "price": "1011000000000000000000",
      "reserved": "",
      "salt": "0x925dfae6e4298d83d27d7ee4e1c2bbd64b609fe98c8496284971039bc8fd483a",
      "assetIds": []
    },
    {
      "x": 395,
      "y": 222,
      "size": 1,
      "price": "1011000000000000000000",
      "reserved": "",
      "salt": "0x2f834481407a1faccc91e771b9e5457245a1796548e79e70bfab79530ea9652a",
      "assetIds": []
    },
    {
      "x": 395,
      "y": 223,
      "size": 1,
      "price": "1011000000000000000000",
      "reserved": "0x7a9fe22691c811ea339d9b73150e6911a5343dca",
      "salt": "0x5d9f85b1b218c5c5653fa72b5b8c1e19f4cca3d94bb50c4b3793ac68377b5c9b",
      "assetIds": []
    },
    {
      "x": 395,
      "y": 224,
      "size": 1,
      "price": "1011000000000000000000",
      "reserved": "",
      "salt": "0x5b3927c75ace57619326bf7da9f27a5623bab4d1f9d17c87d232402f1102b4a5",
      "assetIds": []
    },
    {
      "x": 395,
      "y": 225,
      "size": 1,
      "price": "1011000000000000000000",
      "reserved": "",
      "salt": "0x2a0c8a6d38f36cd10cab1fca852f0bdb697f002d286e0a3dbc894f94c6ff24e4",
      "assetIds": []
    },
    {
      "x": 395,
      "y": 226,
      "size": 1,
      "price": "1011000000000000000000",
      "reserved": "",
      "salt": "0x55efa55a117af1ea03537071307b113c5e15199b9fa5d238a1b2975082f43f68",
      "assetIds": []
    },
    {
      "x": 395,
      "y": 227,
      "size": 1,
      "price": "1011000000000000000000",
      "reserved": "",
      "salt": "0xb2b001ff492c7788ab58797a4ab82b1908f3fc0bdb58e874c0c8a2cd2c989736",
      "assetIds": []
    },
    {
      "x": 395,
      "y": 234,
      "size": 1,
      "price": "1011000000000000000000",
      "reserved": "",
      "salt": "0xdb1be7e2b16c6a193b55e766f4b0c2c93062b3a3d39ef37c2680345035d5aa39",
      "assetIds": []
    },
    {
      "x": 395,
      "y": 235,
      "size": 1,
      "price": "1011000000000000000000",
      "reserved": "",
      "salt": "0xc7b2457c786b7c38668c1add6f9704251f73cad34dac99a013e47589f84c9d4e",
      "assetIds": []
    },
    {
      "x": 395,
      "y": 236,
      "size": 1,
      "price": "1011000000000000000000",
      "reserved": "",
      "salt": "0x4ef26fa0366e713a4f84642fb2ffd88e8207c99761944051fb6d19272b06012d",
      "assetIds": []
    },
    {
      "x": 395,
      "y": 237,
      "size": 1,
      "price": "1011000000000000000000",
      "reserved": "",
      "salt": "0xb29ce67664dd721ff0d3828e0f0e4ee4553be3690d3a8a41eda153e88e44ee49",
      "assetIds": []
    },
    {
      "x": 395,
      "y": 238,
      "size": 1,
      "price": "1011000000000000000000",
      "reserved": "",
      "salt": "0x15c81f8a9c6678d00e53b63909bb98945fef429ca1b04a91d349c2ac8ec4faed",
      "assetIds": []
    },
    {
      "x": 395,
      "y": 239,
      "size": 1,
      "price": "1011000000000000000000",
      "reserved": "",
      "salt": "0xbed839ffecd7717054fc4ff9526c6c812314a06b36a356630854e9f6d7cfa431",
      "assetIds": []
    },
    {
      "x": 395,
      "y": 252,
      "size": 1,
      "price": "1011000000000000000000",
      "reserved": "",
      "salt": "0xa636a569e2e9346d3180c55c3b83545710a44641895b204987d0a580bd5b0171",
      "assetIds": []
    },
    {
      "x": 395,
      "y": 253,
      "size": 1,
      "price": "1011000000000000000000",
      "reserved": "",
      "salt": "0xae404c2f8b5631bb133cd671251758487a51192138308aa77cd2715879bd768b",
      "assetIds": []
    },
    {
      "x": 395,
      "y": 254,
      "size": 1,
      "price": "1011000000000000000000",
      "reserved": "",
      "salt": "0x7b9821979a1d2cfac3adab7b53b1f389d26569183b8c05c2a6cc1c1ac2aedbd9",
      "assetIds": []
    },
    {
      "x": 395,
      "y": 255,
      "size": 1,
      "price": "1011000000000000000000",
      "reserved": "",
      "salt": "0xfeaabafcbe17dd739205756d8be0f7a79f912d813f19dc8ce57701b5c944f89e",
      "assetIds": []
    },
    {
      "x": 395,
      "y": 256,
      "size": 1,
      "price": "1011000000000000000000",
      "reserved": "",
      "salt": "0xdcf34da3ea03b1bf8426f63b0cba6e5166f08870269be3fb66bdb28053a5f652",
      "assetIds": []
    },
    {
      "x": 395,
      "y": 257,
      "size": 1,
      "price": "1011000000000000000000",
      "reserved": "",
      "salt": "0x2e4cfccfc9e00e6cea26db8675e4823aa3d5674fe3098d00046dac0c9923f7c1",
      "assetIds": []
    },
    {
      "x": 395,
      "y": 258,
      "size": 1,
      "price": "1011000000000000000000",
      "reserved": "",
      "salt": "0xeaff2edd68221ab8ca85aeb6ed97c0435733ae17673bea5ccd93d521d7a4b2b5",
      "assetIds": []
    },
    {
      "x": 395,
      "y": 259,
      "size": 1,
      "price": "1011000000000000000000",
      "reserved": "",
      "salt": "0xdd0a008d6460c78e483b5eef02e6ed48b1a3584fd822b2059bfabe4207972a70",
      "assetIds": []
    },
    {
      "x": 395,
      "y": 260,
      "size": 1,
      "price": "1011000000000000000000",
      "reserved": "",
      "salt": "0xcfcff5d60b1edfb10882ee796f7fe1025362b4e61d4add179374cb4aace7d583",
      "assetIds": []
    },
    {
      "x": 395,
      "y": 288,
      "size": 1,
      "price": "1011000000000000000000",
      "reserved": "",
      "salt": "0xbaf45628f389702c07d0ce60966dfe1aae0a42587a5c168734647d0cf86895d9",
      "assetIds": []
    },
    {
      "x": 395,
      "y": 289,
      "size": 1,
      "price": "1011000000000000000000",
      "reserved": "",
      "salt": "0xdf152d57deefc3f025f9063ad7999e2809faf08f16aa5ff34880555b3cdb5356",
      "assetIds": []
    },
    {
      "x": 395,
      "y": 290,
      "size": 1,
      "price": "1011000000000000000000",
      "reserved": "",
      "salt": "0x360981b35eaf7394e42f887b1489deadec56699dd8e2b073486d7b9c97a82426",
      "assetIds": []
    },
    {
      "x": 395,
      "y": 291,
      "size": 1,
      "price": "1011000000000000000000",
      "reserved": "",
      "salt": "0x287431b26e6b99eb9701f3052f6ad4637139ee512b7d8167bf91a7cb48d79999",
      "assetIds": []
    },
    {
      "x": 395,
      "y": 292,
      "size": 1,
      "price": "1011000000000000000000",
      "reserved": "",
      "salt": "0x2b0d886af7d7987048b67302192be18429eb188db2f238f33a2a380bf409af9c",
      "assetIds": []
    },
    {
      "x": 395,
      "y": 293,
      "size": 1,
      "price": "1011000000000000000000",
      "reserved": "",
      "salt": "0x6c33d8f5e8da5d00d21f3fda0e2f961b1c723d6f192901d1257c3f6700be6bb4",
      "assetIds": []
    },
    {
      "x": 395,
      "y": 294,
      "size": 1,
      "price": "1011000000000000000000",
      "reserved": "",
      "salt": "0x117085a2f111dd53d9a3368e3e63903f7af1acb2a5770154194c79d15fb5ce3b",
      "assetIds": []
    },
    {
      "x": 395,
      "y": 295,
      "size": 1,
      "price": "1011000000000000000000",
      "reserved": "",
      "salt": "0x4ffa21607218c5d02cea3e2ceaf9a0f00b1f031fc44b66b6c6b58cf6c2b7611e",
      "assetIds": []
    },
    {
      "x": 395,
      "y": 296,
      "size": 1,
      "price": "1011000000000000000000",
      "reserved": "",
      "salt": "0x830531ab5333372bb8147fb98af4be0ecc6171973d9a119e1387f5db93c60610",
      "assetIds": []
    },
    {
      "x": 395,
      "y": 300,
      "size": 1,
      "price": "1011000000000000000000",
      "reserved": "",
      "salt": "0x03461eec10bb2b3fe0db4ee6dccca8d425ebb74c16ec6c9f7118e6851f7e88c8",
      "assetIds": []
    },
    {
      "x": 395,
      "y": 301,
      "size": 1,
      "price": "1011000000000000000000",
      "reserved": "",
      "salt": "0x1918a6f1f13d88024537ee5ee1a3253968d232d5cb2c1bb7e4ce0aafd6f8273e",
      "assetIds": []
    },
    {
      "x": 395,
      "y": 302,
      "size": 1,
      "price": "1011000000000000000000",
      "reserved": "",
      "salt": "0x226d24809d01cc605f138b90119a54d8814a5811589f6e3cca639b7e760ca53c",
      "assetIds": []
    },
    {
      "x": 395,
      "y": 303,
      "size": 1,
      "price": "1011000000000000000000",
      "reserved": "",
      "salt": "0x3a255721f33372630c37f5a55145336406a7dcc43741cb3e3d15130e04c1360f",
      "assetIds": []
    },
    {
      "x": 395,
      "y": 304,
      "size": 1,
      "price": "1011000000000000000000",
      "reserved": "",
      "salt": "0x5b9b3e4f117d567d72a95bb356d18ca4da75792da3dd5ba6134db22cc6db0362",
      "assetIds": []
    },
    {
      "x": 395,
      "y": 305,
      "size": 1,
      "price": "1011000000000000000000",
      "reserved": "",
      "salt": "0x7c5941d0a61d67dcf3614e53d72bab0486461a2f94dfb5e7271a339b12ed90a1",
      "assetIds": []
    },
    {
      "x": 395,
      "y": 306,
      "size": 1,
      "price": "1011000000000000000000",
      "reserved": "",
      "salt": "0x6ee2db3dd98b0fd9b48c9223a17ccbe1dd758857d12197ad87bfd38c367c593b",
      "assetIds": []
    },
    {
      "x": 395,
      "y": 307,
      "size": 1,
      "price": "1011000000000000000000",
      "reserved": "",
      "salt": "0xe8886c77f202292b0bba498261a6fad2d3d276d356adcc32c1b6e94a4ae901ba",
      "assetIds": []
    },
    {
      "x": 395,
      "y": 308,
      "size": 1,
      "price": "1011000000000000000000",
      "reserved": "",
      "salt": "0x83ba1cf2a6edfc7950f66eea1c6250c6aa7d53a12fe819867bba0c2bb5b96100",
      "assetIds": []
    },
    {
      "x": 395,
      "y": 309,
      "size": 1,
      "price": "1011000000000000000000",
      "reserved": "",
      "salt": "0xfe4cf126b1a177fd26e7ae5b4b48bfb103e4e65876f673a386fd98c73eda7aff",
      "assetIds": []
    },
    {
      "x": 395,
      "y": 310,
      "size": 1,
      "price": "1011000000000000000000",
      "reserved": "",
      "salt": "0x09b6787452b41dfdcda6fd36cd7bc49845dda0d42d97a879c3f34703446cebaf",
      "assetIds": []
    },
    {
      "x": 395,
      "y": 311,
      "size": 1,
      "price": "1011000000000000000000",
      "reserved": "",
      "salt": "0xd9afcbda084264eab792e5e6dbce510f0e2f51baf73af4a44b838cb3d79123d6",
      "assetIds": []
    },
    {
      "x": 396,
      "y": 228,
      "size": 1,
      "price": "1011000000000000000000",
      "reserved": "",
      "salt": "0x87eec6e49ac98ce700612a9557d9acbdb47f490ecd309bed036135b8daefa287",
      "assetIds": []
    },
    {
      "x": 396,
      "y": 229,
      "size": 1,
      "price": "1011000000000000000000",
      "reserved": "",
      "salt": "0x12119fcea480526ffd99086a21e7f8d31dc17e5ad4fc7251bc88e71c083484fa",
      "assetIds": []
    },
    {
      "x": 396,
      "y": 230,
      "size": 1,
      "price": "1011000000000000000000",
      "reserved": "",
      "salt": "0x0c4fa55b8b883dbd46c56a4d0296a489b78036372fa43264b9288714fdc5b2db",
      "assetIds": []
    },
    {
      "x": 396,
      "y": 231,
      "size": 1,
      "price": "1011000000000000000000",
      "reserved": "",
      "salt": "0x097586ab4464fab3fa528b267e850174b92c021582d691f051dc7cc2157a15ed",
      "assetIds": []
    },
    {
      "x": 396,
      "y": 232,
      "size": 1,
      "price": "1011000000000000000000",
      "reserved": "",
      "salt": "0x9e69761f73a46a947869d2fd822c1c61717c0764ac4d31c59cea665331a9447b",
      "assetIds": []
    },
    {
      "x": 396,
      "y": 233,
      "size": 1,
      "price": "1011000000000000000000",
      "reserved": "",
      "salt": "0x008c6efba686de33e8b26b23bcd377ebc3bb677fc49dae05ee19270782f7730f",
      "assetIds": []
    },
    {
      "x": 396,
      "y": 234,
      "size": 1,
      "price": "1011000000000000000000",
      "reserved": "",
      "salt": "0xa8369d4fb5e8a8cdcabe720246f6d98ea47ccb352b7cc390ddf5a3bd008f89f4",
      "assetIds": []
    },
    {
      "x": 396,
      "y": 235,
      "size": 1,
      "price": "1011000000000000000000",
      "reserved": "",
      "salt": "0x5232fc945b58c0254a50ea23dabef7a8f205fdaa6087328dc7e5757b7bcae7c1",
      "assetIds": []
    },
    {
      "x": 396,
      "y": 236,
      "size": 1,
      "price": "1011000000000000000000",
      "reserved": "",
      "salt": "0x9f5a9a9fbe19b13c51981f8255ace1ffb9022525b307f80c56f374e728fd334e",
      "assetIds": []
    },
    {
      "x": 396,
      "y": 237,
      "size": 1,
      "price": "1011000000000000000000",
      "reserved": "",
      "salt": "0x38648bda3960a08d0cbaf74b79eb4ee2ecf6db4b4674c70bbe09f54dea9e6173",
      "assetIds": []
    },
    {
      "x": 396,
      "y": 238,
      "size": 1,
      "price": "1011000000000000000000",
      "reserved": "",
      "salt": "0xe1800e488626302a9b0a4d34f5b2661708013593c08b89f6e7b1a76806d8194c",
      "assetIds": []
    },
    {
      "x": 396,
      "y": 239,
      "size": 1,
      "price": "1011000000000000000000",
      "reserved": "",
      "salt": "0xb1fa79c733729509daf5b3a5507932858cb68fc9baf3b33cb2e5746d8293952e",
      "assetIds": []
    },
    {
      "x": 396,
      "y": 240,
      "size": 1,
      "price": "1011000000000000000000",
      "reserved": "",
      "salt": "0xf8caa64824b3bfe187e05b4513b9c0399f232ecea7a89921769b3c8173bca514",
      "assetIds": []
    },
    {
      "x": 396,
      "y": 241,
      "size": 1,
      "price": "1011000000000000000000",
      "reserved": "",
      "salt": "0xb5a77c5cb74a8c84c02f1a8685fd65ede59468b6d59f5887b463c4ad64eeea9e",
      "assetIds": []
    },
    {
      "x": 396,
      "y": 242,
      "size": 1,
      "price": "1011000000000000000000",
      "reserved": "",
      "salt": "0x2b59cc2124c5dd3cb44e54d346fd5ee3ef58c183a5f02b6389bad697b273be10",
      "assetIds": []
    },
    {
      "x": 396,
      "y": 243,
      "size": 1,
      "price": "1011000000000000000000",
      "reserved": "",
      "salt": "0x66e1536899d303ea2fc1f8dbb5c1de818d9e905ec52949a0df9d7ceb1596f238",
      "assetIds": []
    },
    {
      "x": 396,
      "y": 244,
      "size": 1,
      "price": "1011000000000000000000",
      "reserved": "",
      "salt": "0xfb0b755bbebb67042cf954445810b585a33f74e1562f13d1c1dff2e1441767b8",
      "assetIds": []
    },
    {
      "x": 396,
      "y": 245,
      "size": 1,
      "price": "1011000000000000000000",
      "reserved": "",
      "salt": "0x48dbe58ef7210292c496239a90ac0b56919056d6d15f681074e91c79d4bf7091",
      "assetIds": []
    },
    {
      "x": 396,
      "y": 246,
      "size": 1,
      "price": "1011000000000000000000",
      "reserved": "",
      "salt": "0x3f8cb2b7e2eac16088bcc09c3616e72ff4f453950ac104c3e9899940e77ddc24",
      "assetIds": []
    },
    {
      "x": 396,
      "y": 247,
      "size": 1,
      "price": "1011000000000000000000",
      "reserved": "",
      "salt": "0x61ffd1b891731f15bd4eec384fee96959273afe51e584c332fec380017035ebc",
      "assetIds": []
    },
    {
      "x": 396,
      "y": 248,
      "size": 1,
      "price": "1011000000000000000000",
      "reserved": "",
      "salt": "0x5dd85e0e32d8b7ba50fa18e8155acd2b890f850306b81ee3a06cb70cc11a51f9",
      "assetIds": []
    },
    {
      "x": 396,
      "y": 249,
      "size": 1,
      "price": "1011000000000000000000",
      "reserved": "",
      "salt": "0xd129eded008b06809a511278fc844d351106b8212cc1d9c15da07cad0e83ee2b",
      "assetIds": []
    },
    {
      "x": 396,
      "y": 250,
      "size": 1,
      "price": "1011000000000000000000",
      "reserved": "",
      "salt": "0xb39c677edc48e16e1e37655fe1b0ea59183bdccbe8d26f82f1a3680ef63160ec",
      "assetIds": []
    },
    {
      "x": 396,
      "y": 251,
      "size": 1,
      "price": "1011000000000000000000",
      "reserved": "",
      "salt": "0x6c3ff244e7e37664324c377272f6e1825592d4be3d47a1f8116a7d591ba2a63e",
      "assetIds": []
    },
    {
      "x": 396,
      "y": 294,
      "size": 1,
      "price": "1011000000000000000000",
      "reserved": "",
      "salt": "0xa35f09882819c1fe4791fb2f66f5546bb40bf14581c44282a6e8887d8d0ce75b",
      "assetIds": []
    },
    {
      "x": 396,
      "y": 295,
      "size": 1,
      "price": "1011000000000000000000",
      "reserved": "",
      "salt": "0xb1df2af25558a8492bdca54733a7d9c6de884b4990194d76bb8d01a10d2a151d",
      "assetIds": []
    },
    {
      "x": 396,
      "y": 296,
      "size": 1,
      "price": "1011000000000000000000",
      "reserved": "",
      "salt": "0xf50732ce8f0295d5463fec320ddc1051fcf3fbf188b22092337772c9e212ffea",
      "assetIds": []
    },
    {
      "x": 396,
      "y": 297,
      "size": 1,
      "price": "1011000000000000000000",
      "reserved": "",
      "salt": "0xbdbb5cbc1b18d4aea0d47f2aa34fe0e920259575c6b8f36f4001373d217c512a",
      "assetIds": []
    },
    {
      "x": 396,
      "y": 298,
      "size": 1,
      "price": "1011000000000000000000",
      "reserved": "",
      "salt": "0xf6885c5aa324219fad68d942f25131728fcea8d863bb764ea9d7e0eb052ae9e0",
      "assetIds": []
    },
    {
      "x": 396,
      "y": 299,
      "size": 1,
      "price": "1011000000000000000000",
      "reserved": "",
      "salt": "0xabecc1887576d5ad6e142d82d1d112eafee3a55515308df2552f595cb09565fa",
      "assetIds": []
    },
    {
      "x": 397,
      "y": 228,
      "size": 1,
      "price": "1011000000000000000000",
      "reserved": "",
      "salt": "0x249f9b649a742f8c03044825bcf39fc234feeb2a425f19ff68c4b55fb8411610",
      "assetIds": []
    },
    {
      "x": 397,
      "y": 229,
      "size": 1,
      "price": "1011000000000000000000",
      "reserved": "",
      "salt": "0x5a5fb3eaf2faa9c374820aea527763f765cae395547384d1b4a199bfd2e4f453",
      "assetIds": []
    },
    {
      "x": 397,
      "y": 230,
      "size": 1,
      "price": "1011000000000000000000",
      "reserved": "",
      "salt": "0x5ce5d5333f14798e371933cacd7ea676efddd8882a8665b1d6bf921447d185b5",
      "assetIds": []
    },
    {
      "x": 397,
      "y": 231,
      "size": 1,
      "price": "1011000000000000000000",
      "reserved": "",
      "salt": "0xad15051fdc6ad48aadbb54451cfd11193efc1a9f27311dd2477162861e7c81c1",
      "assetIds": []
    },
    {
      "x": 397,
      "y": 232,
      "size": 1,
      "price": "1011000000000000000000",
      "reserved": "",
      "salt": "0xead616cc90c8a6b90ad23870d4c5e355e30895597ce8137435df8227c4db87ef",
      "assetIds": []
    },
    {
      "x": 397,
      "y": 233,
      "size": 1,
      "price": "1011000000000000000000",
      "reserved": "",
      "salt": "0x9d3a5bb0a4ea9ce9d8e60abbbb99c3fa2bc907146572ce73d008309a6e064eba",
      "assetIds": []
    },
    {
      "x": 397,
      "y": 234,
      "size": 1,
      "price": "1011000000000000000000",
      "reserved": "",
      "salt": "0x3945f2568b9454e51013605acb68b004957f7638b9b013d331b52bc516e681f0",
      "assetIds": []
    },
    {
      "x": 397,
      "y": 235,
      "size": 1,
      "price": "1011000000000000000000",
      "reserved": "",
      "salt": "0xc0968d5b622b9434e42902a4aa2e1b5a55494600d162ee1d701b5556f2169e0f",
      "assetIds": []
    },
    {
      "x": 397,
      "y": 236,
      "size": 1,
      "price": "1011000000000000000000",
      "reserved": "",
      "salt": "0xf529e5e2a373b864f92ef850d83e1ab499f5f49a0c6995e226c97cfa09e14c84",
      "assetIds": []
    },
    {
      "x": 397,
      "y": 237,
      "size": 1,
      "price": "1011000000000000000000",
      "reserved": "",
      "salt": "0xc44688813edbe84ae2c9d62c7c74819d0a0c80f9ab1410f849b8959502467c25",
      "assetIds": []
    },
    {
      "x": 397,
      "y": 238,
      "size": 1,
      "price": "1011000000000000000000",
      "reserved": "",
      "salt": "0xfe0511eb6340eb00f9140c49de346913457bcaa06e1a58c3f4f48c3bc9eff489",
      "assetIds": []
    },
    {
      "x": 397,
      "y": 239,
      "size": 1,
      "price": "1011000000000000000000",
      "reserved": "",
      "salt": "0xe5d8ddc5ec85742a685847c278f9f4fccdb4a4462fd83c656fbe3f9d6418eb37",
      "assetIds": []
    },
    {
      "x": 397,
      "y": 240,
      "size": 1,
      "price": "1011000000000000000000",
      "reserved": "",
      "salt": "0x21e7548d6d95d683359c501c9be0dd341fb128c7f7ba34dc57b7b7cde199fc22",
      "assetIds": []
    },
    {
      "x": 397,
      "y": 241,
      "size": 1,
      "price": "1011000000000000000000",
      "reserved": "",
      "salt": "0x505a148ec296ad941aef9d8d1ba3e5a6aac1e8aba2e47ea5e55a558b2d28746d",
      "assetIds": []
    },
    {
      "x": 397,
      "y": 242,
      "size": 1,
      "price": "1011000000000000000000",
      "reserved": "",
      "salt": "0x3bf7ee6341427d8748d25785f12e02735536715db79f71d693679cca1f1b7483",
      "assetIds": []
    },
    {
      "x": 397,
      "y": 243,
      "size": 1,
      "price": "1011000000000000000000",
      "reserved": "",
      "salt": "0x53a76aa2c9fda1f0ad2d3c197cfeab8b51ccccf24c5032e9e27743d151e46fa0",
      "assetIds": []
    },
    {
      "x": 397,
      "y": 244,
      "size": 1,
      "price": "1011000000000000000000",
      "reserved": "",
      "salt": "0x6747e93f30851c6a3f3945e4bdbdd2d5dbcf7e1c626763dd5fa242aa1e56821c",
      "assetIds": []
    },
    {
      "x": 397,
      "y": 245,
      "size": 1,
      "price": "1011000000000000000000",
      "reserved": "",
      "salt": "0x5f2f50ae17abdd79c0d33a61696f7244bfd9d0d447866d386272a52675198b19",
      "assetIds": []
    },
    {
      "x": 397,
      "y": 246,
      "size": 1,
      "price": "1011000000000000000000",
      "reserved": "",
      "salt": "0x8e62e6741b2fded1f399b4d32f997956b149172bb66b86b173f501f4a6e03dd4",
      "assetIds": []
    },
    {
      "x": 397,
      "y": 247,
      "size": 1,
      "price": "1011000000000000000000",
      "reserved": "",
      "salt": "0x7ff71aac409b94d6c48e6ddd819f9bc38af013541642b9686dc5abe4f2ee480f",
      "assetIds": []
    },
    {
      "x": 397,
      "y": 248,
      "size": 1,
      "price": "1011000000000000000000",
      "reserved": "",
      "salt": "0x59b89c7b2535920f450b9773eb8edec2a9fa88bfc2f045bc02406929908ea068",
      "assetIds": []
    },
    {
      "x": 397,
      "y": 249,
      "size": 1,
      "price": "1011000000000000000000",
      "reserved": "",
      "salt": "0xa1319872e4d67941a7a677bf5385ae7722e5e32350fbdcc2f00d42ba6eb0248b",
      "assetIds": []
    },
    {
      "x": 397,
      "y": 250,
      "size": 1,
      "price": "1011000000000000000000",
      "reserved": "",
      "salt": "0x4679bb26c67ac11c3d44650265755cf1fc8f5ed2af24fb57f676c67f7d546279",
      "assetIds": []
    },
    {
      "x": 397,
      "y": 251,
      "size": 1,
      "price": "1011000000000000000000",
      "reserved": "",
      "salt": "0xb04cb6eef3606bd7eb6e7f03f718017882ca435d315c62ae1750be91b4fdb41e",
      "assetIds": []
    },
    {
      "x": 397,
      "y": 294,
      "size": 1,
      "price": "1011000000000000000000",
      "reserved": "",
      "salt": "0x3be0ba73db5be28e15822033bb4a58188a178b1480a619f0963bdb912a7200ab",
      "assetIds": []
    },
    {
      "x": 397,
      "y": 295,
      "size": 1,
      "price": "1011000000000000000000",
      "reserved": "",
      "salt": "0x531b1dd321af9de0951caad27f42438209d2bff0f485deff739afe3ff0b55215",
      "assetIds": []
    },
    {
      "x": 397,
      "y": 296,
      "size": 1,
      "price": "1011000000000000000000",
      "reserved": "",
      "salt": "0xc79459cbdf6a61592a8948cb9be92d1c06a4943a797b69779aef61f189ca8ef9",
      "assetIds": []
    },
    {
      "x": 397,
      "y": 297,
      "size": 1,
      "price": "1011000000000000000000",
      "reserved": "",
      "salt": "0x3f9faacb5773092df6a5d004c49a56b68749ef1a7ef7d7759ccc0d66b0358a84",
      "assetIds": []
    },
    {
      "x": 397,
      "y": 298,
      "size": 1,
      "price": "1011000000000000000000",
      "reserved": "",
      "salt": "0xf7221693f80939ced2dea47a4937bfd2f87bc5622f06752df0b3ad2910538992",
      "assetIds": []
    },
    {
      "x": 397,
      "y": 299,
      "size": 1,
      "price": "1011000000000000000000",
      "reserved": "",
      "salt": "0x71610bed6a71b089224d3de0e04b669587b317daf396b85842ac0f570af4b4e1",
      "assetIds": []
    },
    {
      "x": 398,
      "y": 228,
      "size": 1,
      "price": "1011000000000000000000",
      "reserved": "",
      "salt": "0x66810510c197fc98dcc6043bc9807969a1fdbfcf0d3426c663b6fda102f3bcbe",
      "assetIds": []
    },
    {
      "x": 398,
      "y": 229,
      "size": 1,
      "price": "1011000000000000000000",
      "reserved": "",
      "salt": "0xba36dcf0086fc94b5812062712f5c7e99ae5c44ae0f5d5e0a124777512ca6898",
      "assetIds": []
    },
    {
      "x": 398,
      "y": 230,
      "size": 1,
      "price": "1011000000000000000000",
      "reserved": "",
      "salt": "0xc4b88786a82f4566cf9018c9bb2c468c14b487e4570da83c6f549b0f5c50c314",
      "assetIds": []
    },
    {
      "x": 398,
      "y": 231,
      "size": 1,
      "price": "1011000000000000000000",
      "reserved": "",
      "salt": "0xfbbb06c09a07f92a3d9158c6e879dfc1b41e706e4325daeabffff8870d6fba0c",
      "assetIds": []
    },
    {
      "x": 398,
      "y": 232,
      "size": 1,
      "price": "1011000000000000000000",
      "reserved": "",
      "salt": "0x125681e4e851038655a9a598c7878e144881481d51e8862d5becb44b28db37d1",
      "assetIds": []
    },
    {
      "x": 398,
      "y": 233,
      "size": 1,
      "price": "1011000000000000000000",
      "reserved": "",
      "salt": "0x1d6f183ab1e9022f2380a050b8b39dc08cad0d8dd84035107b5db17f396383a0",
      "assetIds": []
    },
    {
      "x": 398,
      "y": 234,
      "size": 1,
      "price": "1011000000000000000000",
      "reserved": "",
      "salt": "0x00dc44a1da1b5aee269692c633024371bef2b0eeaf8e62a1ff790c9d7a48330c",
      "assetIds": []
    },
    {
      "x": 398,
      "y": 235,
      "size": 1,
      "price": "1011000000000000000000",
      "reserved": "",
      "salt": "0x7e28d84a9fb6e27c045f36da5f4d10c7a7e7489525705b77dc0dea12de0c0e0c",
      "assetIds": []
    },
    {
      "x": 398,
      "y": 236,
      "size": 1,
      "price": "1011000000000000000000",
      "reserved": "",
      "salt": "0x00848795aea305273f1d962113696f063c030d49bde7fb8414bd562461396df0",
      "assetIds": []
    },
    {
      "x": 398,
      "y": 237,
      "size": 1,
      "price": "1011000000000000000000",
      "reserved": "",
      "salt": "0x0de92ff9c4a84142ec63a9a670a61ced0e0fcd0a298bb9160c4e1fbef8fef07d",
      "assetIds": []
    },
    {
      "x": 398,
      "y": 238,
      "size": 1,
      "price": "1011000000000000000000",
      "reserved": "",
      "salt": "0x34bd2b647efe176b4398d091274dbc0e700e307051b91ce7be280d063de2cba4",
      "assetIds": []
    },
    {
      "x": 398,
      "y": 239,
      "size": 1,
      "price": "1011000000000000000000",
      "reserved": "",
      "salt": "0x61b58e677f86aeba6be114821db73e36fa6571ab9cc7806655a628bf368a4710",
      "assetIds": []
    },
    {
      "x": 398,
      "y": 240,
      "size": 1,
      "price": "1011000000000000000000",
      "reserved": "",
      "salt": "0x778adeb32698705faacfd7108a6a98c836950890c28600066db2f5b1b768983b",
      "assetIds": []
    },
    {
      "x": 398,
      "y": 241,
      "size": 1,
      "price": "1011000000000000000000",
      "reserved": "",
      "salt": "0x847a584099b18f78371017cab44a00d8318a37990a15a313ddc9e2c591d04ef3",
      "assetIds": []
    },
    {
      "x": 398,
      "y": 242,
      "size": 1,
      "price": "1011000000000000000000",
      "reserved": "",
      "salt": "0x65f09cd473dc99748e2a2d8293a2e6f2acdd1619707816bc58cdf00e896ee170",
      "assetIds": []
    },
    {
      "x": 398,
      "y": 243,
      "size": 1,
      "price": "1011000000000000000000",
      "reserved": "",
      "salt": "0xd8356883c1c8b3ba61eb25e3660c964219119cb98ab6b21d2ea2de8fd0b07799",
      "assetIds": []
    },
    {
      "x": 398,
      "y": 244,
      "size": 1,
      "price": "1011000000000000000000",
      "reserved": "",
      "salt": "0x5c8a7a532a2794042c1e8d8005295e3f185b41d783eb58f54542b0dd2887a964",
      "assetIds": []
    },
    {
      "x": 398,
      "y": 245,
      "size": 1,
      "price": "1011000000000000000000",
      "reserved": "",
      "salt": "0x08600c3bf34de4f4b461cec6038671ac3d0e7a24ec59947434d5f00e93267e4e",
      "assetIds": []
    },
    {
      "x": 398,
      "y": 246,
      "size": 1,
      "price": "1011000000000000000000",
      "reserved": "",
      "salt": "0x9fb5db186ec7a03743504c0cc46f1b2d540c55ea33fc8276551a36cc9887955c",
      "assetIds": []
    },
    {
      "x": 398,
      "y": 247,
      "size": 1,
      "price": "1011000000000000000000",
      "reserved": "",
      "salt": "0x769e9221cf0cd2709bcc59a09f6f82bd9cf17c61428e3cc351edc430c03b8458",
      "assetIds": []
    },
    {
      "x": 398,
      "y": 248,
      "size": 1,
      "price": "1011000000000000000000",
      "reserved": "",
      "salt": "0xaf991d247f591b728d560d3e55185c632b2d5e7b625b4e6da09585fde00df2ef",
      "assetIds": []
    },
    {
      "x": 398,
      "y": 249,
      "size": 1,
      "price": "1011000000000000000000",
      "reserved": "",
      "salt": "0x5729f1c8513e1ccd5539b0af9acc58d1e2eff3fab5431f9587c7af02c2b06dc9",
      "assetIds": []
    },
    {
      "x": 398,
      "y": 250,
      "size": 1,
      "price": "1011000000000000000000",
      "reserved": "",
      "salt": "0x85e4bc426c1724cccc522f5df284d5cf672d3a806e68689add2d40286cd7e089",
      "assetIds": []
    },
    {
      "x": 398,
      "y": 251,
      "size": 1,
      "price": "1011000000000000000000",
      "reserved": "",
      "salt": "0x3e4ccbc21a308e173ddd17b1f6ade2f373f631d786eb4b9935398fb1a60b1a3d",
      "assetIds": []
    },
    {
      "x": 398,
      "y": 294,
      "size": 1,
      "price": "1011000000000000000000",
      "reserved": "",
      "salt": "0x9b516d530fff6da6f699dc9864180b2c4fe34366b5ef696a47a59566b4e82c0d",
      "assetIds": []
    },
    {
      "x": 398,
      "y": 295,
      "size": 1,
      "price": "1011000000000000000000",
      "reserved": "",
      "salt": "0x01f4b1d0cd6860a48cc10a0df802d152409e7324360caef78dbecf77714c9100",
      "assetIds": []
    },
    {
      "x": 398,
      "y": 296,
      "size": 1,
      "price": "1011000000000000000000",
      "reserved": "",
      "salt": "0xb3e71bad470a7047f79275980b8594582eeb10a0996b368e7cad0995a6ba9aff",
      "assetIds": []
    },
    {
      "x": 398,
      "y": 297,
      "size": 1,
      "price": "1011000000000000000000",
      "reserved": "",
      "salt": "0xc0b48639ec719e8ee035cc17252986b35be8bddd2a9309ceb60ac8758d65f4cd",
      "assetIds": []
    },
    {
      "x": 398,
      "y": 298,
      "size": 1,
      "price": "1011000000000000000000",
      "reserved": "",
      "salt": "0xdc64cdcc6cd7562cebd75a527437e3adb39e79864293ae88ec33b8f6126b13dc",
      "assetIds": []
    },
    {
      "x": 398,
      "y": 299,
      "size": 1,
      "price": "1011000000000000000000",
      "reserved": "",
      "salt": "0x4bb50e858d96dd736c51a2007464a38c0c38121521996b019a749942eef2f9ac",
      "assetIds": []
    },
    {
      "x": 399,
      "y": 228,
      "size": 1,
      "price": "1011000000000000000000",
      "reserved": "",
      "salt": "0xa43bb20ea0fbb425ffab13e25dce68065c8b5281fd7be1eb29f78a99c004178f",
      "assetIds": []
    },
    {
      "x": 399,
      "y": 229,
      "size": 1,
      "price": "1011000000000000000000",
      "reserved": "",
      "salt": "0xb756c43eea65f13cdf4ddb8bed1afc7b192d18af98a725f89b76daecf62875f4",
      "assetIds": []
    },
    {
      "x": 399,
      "y": 230,
      "size": 1,
      "price": "1011000000000000000000",
      "reserved": "",
      "salt": "0x02b14d55dd4cc1aef2714cc60ef93164487d1ca04e375e7df375f0532f412f5b",
      "assetIds": []
    },
    {
      "x": 399,
      "y": 231,
      "size": 1,
      "price": "1011000000000000000000",
      "reserved": "",
      "salt": "0x8ae3c6a72fadc42b6b7407ae688cf5b9dc517946a6eba5301c7814ad00b4df88",
      "assetIds": []
    },
    {
      "x": 399,
      "y": 232,
      "size": 1,
      "price": "1011000000000000000000",
      "reserved": "",
      "salt": "0x1241685b5d71cc9bf65f1a8fd45e98994cda5b002819ba197318d9c8caf168fa",
      "assetIds": []
    },
    {
      "x": 399,
      "y": 233,
      "size": 1,
      "price": "1011000000000000000000",
      "reserved": "",
      "salt": "0xcf0a4bde82a67277c8cc2fd84c5fb64b23ce985c233b1ec87a3d18db6420c6c6",
      "assetIds": []
    },
    {
      "x": 399,
      "y": 234,
      "size": 1,
      "price": "1011000000000000000000",
      "reserved": "",
      "salt": "0x2668abe10ceab7b7d62683578317557508cc1d85a2c52ffed3f8314163548c6d",
      "assetIds": []
    },
    {
      "x": 399,
      "y": 235,
      "size": 1,
      "price": "1011000000000000000000",
      "reserved": "",
      "salt": "0x77c369a9575484a0e7940b486e5c1c8c944b2642d0d5554e16bbae7af88ccd0b",
      "assetIds": []
    },
    {
      "x": 399,
      "y": 236,
      "size": 1,
      "price": "1011000000000000000000",
      "reserved": "",
      "salt": "0x796993584407c169b7313d3322fd3fa2d2a68aa7adb4a80e0d27941b78be062c",
      "assetIds": []
    },
    {
      "x": 399,
      "y": 240,
      "size": 1,
      "price": "1011000000000000000000",
      "reserved": "",
      "salt": "0x0a85080dcbd29a289726717849a1077e807f1346c18984e7ef1b92b2ab61dd8c",
      "assetIds": []
    },
    {
      "x": 399,
      "y": 241,
      "size": 1,
      "price": "1011000000000000000000",
      "reserved": "0x7a9fe22691c811ea339d9b73150e6911a5343dca",
      "salt": "0x70612133b9833f1632fca34752fd978c8d181611eeb82bc9cdf6b159ee79f27a",
      "assetIds": []
    },
    {
      "x": 399,
      "y": 242,
      "size": 1,
      "price": "1011000000000000000000",
      "reserved": "",
      "salt": "0xffd7e6983ed307a86550d2536cc12fa50da3a5c501183e60e91878a9296421b3",
      "assetIds": []
    },
    {
      "x": 399,
      "y": 243,
      "size": 1,
      "price": "1011000000000000000000",
      "reserved": "",
      "salt": "0xbee5cf9a54e6c6f82ffc99f9b8f638dce37c84693ac74ee0b71653ecf24a8e6b",
      "assetIds": []
    },
    {
      "x": 399,
      "y": 244,
      "size": 1,
      "price": "1011000000000000000000",
      "reserved": "",
      "salt": "0x480102c19e94e25bccaf7228723b7073c7ba5039f6727add12ddc1f98e4122a2",
      "assetIds": []
    },
    {
      "x": 399,
      "y": 245,
      "size": 1,
      "price": "1011000000000000000000",
      "reserved": "",
      "salt": "0xc8cb5f169ee5ee914538f64e5f5aebe0212678f3c6ff045d2a5ade98507551e0",
      "assetIds": []
    },
    {
      "x": 399,
      "y": 246,
      "size": 1,
      "price": "1011000000000000000000",
      "reserved": "",
      "salt": "0x0529818cc5e05161a4c74068ca134234082028523d3e369352e4acf1c51c8e50",
      "assetIds": []
    },
    {
      "x": 399,
      "y": 247,
      "size": 1,
      "price": "1011000000000000000000",
      "reserved": "",
      "salt": "0x4d0ab79dbdcc83d9fb9eded0cd3ef436f1d0df7b536a4182d2b9163d03a973fa",
      "assetIds": []
    },
    {
      "x": 399,
      "y": 248,
      "size": 1,
      "price": "1011000000000000000000",
      "reserved": "",
      "salt": "0xfef9a03ede4a602dc3a6d1943073add085036f025f91dd1617edb3e7aeaa46f5",
      "assetIds": []
    },
    {
      "x": 399,
      "y": 249,
      "size": 1,
      "price": "1011000000000000000000",
      "reserved": "",
      "salt": "0xe4ef1150d3d753fcce8e57f7d0597ac17cc5db305b2aff61fef1b7cc7a510cb8",
      "assetIds": []
    },
    {
      "x": 399,
      "y": 250,
      "size": 1,
      "price": "1011000000000000000000",
      "reserved": "",
      "salt": "0x80292b8a78d5087d5833b94450105b218dad638609b616106ef765cf6165821c",
      "assetIds": []
    },
    {
      "x": 399,
      "y": 251,
      "size": 1,
      "price": "1011000000000000000000",
      "reserved": "",
      "salt": "0x2ed038f513e4e12c67d3f556f98e4a377cbd3949dcf89f7d473e5ad24121bb00",
      "assetIds": []
    },
    {
      "x": 399,
      "y": 294,
      "size": 1,
      "price": "1011000000000000000000",
      "reserved": "",
      "salt": "0x436ed83bde657e20c355a48e28dab491ffd6acf3abf453f4205a7da8b4d9208a",
      "assetIds": []
    },
    {
      "x": 399,
      "y": 295,
      "size": 1,
      "price": "1011000000000000000000",
      "reserved": "",
      "salt": "0x0545d3272f7e8bf88727943eb28c2d252fbd370a13958a62b8882eb78c307422",
      "assetIds": []
    },
    {
      "x": 399,
      "y": 296,
      "size": 1,
      "price": "1011000000000000000000",
      "reserved": "0x7a9fe22691c811ea339d9b73150e6911a5343dca",
      "salt": "0xbd29f85c3299ed342539e88ee2741aaea64cbb99e63f8031bfe9edfa3fcbe036",
      "assetIds": []
    },
    {
      "x": 399,
      "y": 297,
      "size": 1,
      "price": "1011000000000000000000",
      "reserved": "",
      "salt": "0xe9651b581049b2be05cfd52e18898c2993dbfedfeb17b81aedf736128ca71b03",
      "assetIds": []
    },
    {
      "x": 399,
      "y": 298,
      "size": 1,
      "price": "1011000000000000000000",
      "reserved": "",
      "salt": "0x6d1590f18611f28d76ea850445507539921630a143f24984e309055b6fee91b7",
      "assetIds": []
    },
    {
      "x": 399,
      "y": 299,
      "size": 1,
      "price": "1011000000000000000000",
      "reserved": "",
      "salt": "0xb7486993cf4112f539a40826b62fe837c1436ef143c743ddd92a5591e5c4bcca",
      "assetIds": []
    },
    {
      "x": 400,
      "y": 228,
      "size": 1,
      "price": "1011000000000000000000",
      "reserved": "",
      "salt": "0x9c7bcf67faae9c7306e0dbae1821a2c1279d75ab672c95c17a7a9920e7289fc3",
      "assetIds": []
    },
    {
      "x": 400,
      "y": 229,
      "size": 1,
      "price": "1011000000000000000000",
      "reserved": "",
      "salt": "0xc92bb5d111b9342c8a146a69107b62505b36e94ddc2fa8d24626eeec73663d49",
      "assetIds": []
    },
    {
      "x": 400,
      "y": 230,
      "size": 1,
      "price": "1011000000000000000000",
      "reserved": "",
      "salt": "0x683c281e0fb9c9ff28b5ffe416ae0fc6ef4d8405f92d347d53033f7dca73d981",
      "assetIds": []
    },
    {
      "x": 400,
      "y": 231,
      "size": 1,
      "price": "1011000000000000000000",
      "reserved": "",
      "salt": "0x946d3d958c4aa52951099c2f18d00ca73b8df77dbca0292a86489300be44919c",
      "assetIds": []
    },
    {
      "x": 400,
      "y": 232,
      "size": 1,
      "price": "1011000000000000000000",
      "reserved": "",
      "salt": "0xf42dd963da328b3f3aba45f6193b4733ffb508dd465d670f0743bf50e4d2aefd",
      "assetIds": []
    },
    {
      "x": 400,
      "y": 233,
      "size": 1,
      "price": "1011000000000000000000",
      "reserved": "",
      "salt": "0xdaeb52c8a9c6dfeefaeff93d2e706e50496957d2894d628cb761bb783c6e3dda",
      "assetIds": []
    },
    {
      "x": 400,
      "y": 234,
      "size": 1,
      "price": "1011000000000000000000",
      "reserved": "",
      "salt": "0xfc0c188e6ed3835b3c9b2a3137ee11d136750c7b975b992608bfecbec1fa7f3d",
      "assetIds": []
    },
    {
      "x": 400,
      "y": 235,
      "size": 1,
      "price": "1011000000000000000000",
      "reserved": "",
      "salt": "0xda08b4330619a5b8f883a97bf080b5e03a7ad44d68119782d56b8c02d37ab6a4",
      "assetIds": []
    },
    {
      "x": 400,
      "y": 236,
      "size": 1,
      "price": "1011000000000000000000",
      "reserved": "",
      "salt": "0x2a593660d911b3a50ae9354da356e817ea0b43910a3228bacda45d6748303a08",
      "assetIds": []
    },
    {
      "x": 400,
      "y": 240,
      "size": 1,
      "price": "1011000000000000000000",
      "reserved": "",
      "salt": "0x1dd6a441b70fc897b9b45c5282b69ededae203e488fd1ebd9dd572b585ccb83a",
      "assetIds": []
    },
    {
      "x": 400,
      "y": 241,
      "size": 1,
      "price": "1011000000000000000000",
      "reserved": "",
      "salt": "0x8e8d1551dffe4f75958ec5d747d29bdb0f0892dab0e74f4a02fc848e845e1504",
      "assetIds": []
    },
    {
      "x": 400,
      "y": 242,
      "size": 1,
      "price": "1011000000000000000000",
      "reserved": "",
      "salt": "0x6e90975056ec0dc4b7bc1236ece6c67ba2fcbe9eed86822b8357d03fc6702fdc",
      "assetIds": []
    },
    {
      "x": 400,
      "y": 243,
      "size": 1,
      "price": "1011000000000000000000",
      "reserved": "",
      "salt": "0xec2544c2a26b02ca3eb32f1d762b52d09562cc7fd998896e84a4ca5e1c10dc18",
      "assetIds": []
    },
    {
      "x": 400,
      "y": 244,
      "size": 1,
      "price": "1011000000000000000000",
      "reserved": "",
      "salt": "0x375450883088201849edb1a8ad4f6deb5559468922928987708548028c401100",
      "assetIds": []
    },
    {
      "x": 400,
      "y": 245,
      "size": 1,
      "price": "1011000000000000000000",
      "reserved": "",
      "salt": "0xfb392bd25c26b8774a1118e02714abb0758d9a380605debf2b25835d303bc6ff",
      "assetIds": []
    },
    {
      "x": 400,
      "y": 246,
      "size": 1,
      "price": "1011000000000000000000",
      "reserved": "",
      "salt": "0x11b46fd54135262b2fc71dd4427b0e7b24de8b52524eaf7f4568058b6a2e8c68",
      "assetIds": []
    },
    {
      "x": 400,
      "y": 247,
      "size": 1,
      "price": "1011000000000000000000",
      "reserved": "",
      "salt": "0xdb4abac74d3cd6639f64e5e2e290fc0b0c1d0903469f73d4d021506ec9ed71ef",
      "assetIds": []
    },
    {
      "x": 400,
      "y": 248,
      "size": 1,
      "price": "1011000000000000000000",
      "reserved": "",
      "salt": "0x934331201cf85e2a7b3e9aadf027f6fa7ea8a9fff843194ee160078ec2a167fb",
      "assetIds": []
    },
    {
      "x": 400,
      "y": 249,
      "size": 1,
      "price": "1011000000000000000000",
      "reserved": "",
      "salt": "0x79276ca2286992bca827f30526b54f6bc2445e0a79ca2640097b9d18493f6def",
      "assetIds": []
    },
    {
      "x": 400,
      "y": 250,
      "size": 1,
      "price": "1011000000000000000000",
      "reserved": "0x7a9fe22691c811ea339d9b73150e6911a5343dca",
      "salt": "0x8f6d12d00d8068fde5565f5d36da3491ce1f8c820c9913a4780ff177e11f3a7f",
      "assetIds": []
    },
    {
      "x": 400,
      "y": 251,
      "size": 1,
      "price": "1011000000000000000000",
      "reserved": "",
      "salt": "0xecaab5c37fcfd1ec5e34e1c41cf44003e3d2b4b6945049141b1c001128eb0a7a",
      "assetIds": []
    },
    {
      "x": 400,
      "y": 294,
      "size": 1,
      "price": "1011000000000000000000",
      "reserved": "",
      "salt": "0x1863d0d9bebe2ea4b5325d454a6b604339353354f57d41d1154cdb8da2ea8167",
      "assetIds": []
    },
    {
      "x": 400,
      "y": 295,
      "size": 1,
      "price": "1011000000000000000000",
      "reserved": "",
      "salt": "0x88d217aa2fda592bcb1e5f35b4ee7861a58ce75fc26be7be7267bb8b31d9fb08",
      "assetIds": []
    },
    {
      "x": 400,
      "y": 296,
      "size": 1,
      "price": "1011000000000000000000",
      "reserved": "",
      "salt": "0xebd8e1e668c24714a04566e8ced314752a42dfc6fb8452989f6729010fb4215f",
      "assetIds": []
    },
    {
      "x": 400,
      "y": 297,
      "size": 1,
      "price": "1011000000000000000000",
      "reserved": "",
      "salt": "0xc0d3e8da2ead94b671dca134a2600f0e3e87b29620c65a5ec821d9fb1c65e3cc",
      "assetIds": []
    },
    {
      "x": 400,
      "y": 298,
      "size": 1,
      "price": "1011000000000000000000",
      "reserved": "",
      "salt": "0x30a4a07ace5e7ddfe4e7ebf70b596fb298b014dfa1a4630a080e93bc0e9f5ed0",
      "assetIds": []
    },
    {
      "x": 400,
      "y": 299,
      "size": 1,
      "price": "1011000000000000000000",
      "reserved": "",
      "salt": "0x4d5fadd16ddb38c11d8693389ec697ec5de7e4c7238558b7225a7291e503bbbc",
      "assetIds": []
    },
    {
      "x": 401,
      "y": 228,
      "size": 1,
      "price": "1011000000000000000000",
      "reserved": "",
      "salt": "0x6e25a2a8af9307647b2866aff802ce5892b7d79f9b5dc457acc8e2945c0c1904",
      "assetIds": []
    },
    {
      "x": 401,
      "y": 229,
      "size": 1,
      "price": "1011000000000000000000",
      "reserved": "",
      "salt": "0xe75f90a23351687dd466ad65f90c4ba0b7ed032801fe895b80da59ebbaa1a5a8",
      "assetIds": []
    },
    {
      "x": 401,
      "y": 230,
      "size": 1,
      "price": "1011000000000000000000",
      "reserved": "",
      "salt": "0x1b2dd5217f5652cfc0a16c41014ac82570a30dab8c33c9160bcadd7083f5a0ff",
      "assetIds": []
    },
    {
      "x": 401,
      "y": 231,
      "size": 1,
      "price": "1011000000000000000000",
      "reserved": "0x7a9fe22691c811ea339d9b73150e6911a5343dca",
      "salt": "0x3553e163ec5b265a6479d0ac0fca962fd2598d392a52e5a5a085cb00d157ff0c",
      "assetIds": []
    },
    {
      "x": 401,
      "y": 232,
      "size": 1,
      "price": "1011000000000000000000",
      "reserved": "",
      "salt": "0x15c5e0192a60a326e135b9716d533ed54ee11ed2346e54373ab32dee92aa9b17",
      "assetIds": []
    },
    {
      "x": 401,
      "y": 233,
      "size": 1,
      "price": "1011000000000000000000",
      "reserved": "0x7a9fe22691c811ea339d9b73150e6911a5343dca",
      "salt": "0x7e3895f39479cfb910fd9ffb80aed78a8653b5122c439a7b919cdcf40e3a5082",
      "assetIds": []
    },
    {
      "x": 401,
      "y": 234,
      "size": 1,
      "price": "1011000000000000000000",
      "reserved": "",
      "salt": "0xb3eee11e797163f1494f3a71c002323e31a3a4c64ecf24075f5c0d0a5702086d",
      "assetIds": []
    },
    {
      "x": 401,
      "y": 235,
      "size": 1,
      "price": "1011000000000000000000",
      "reserved": "",
      "salt": "0x161c5a2fb715ceb268ed04c38056399b95282f459449703b5e478566c50c5773",
      "assetIds": []
    },
    {
      "x": 401,
      "y": 236,
      "size": 1,
      "price": "1011000000000000000000",
      "reserved": "",
      "salt": "0xafde98cfd613e1dbe18e79af62343bf674f5426f0007ed1b9f8dce1126c6096d",
      "assetIds": []
    },
    {
      "x": 401,
      "y": 240,
      "size": 1,
      "price": "1011000000000000000000",
      "reserved": "",
      "salt": "0x20462188e4d750dcee50f2a50cc70cca7509392bfb755a6a85a698aff2a71446",
      "assetIds": []
    },
    {
      "x": 401,
      "y": 241,
      "size": 1,
      "price": "1011000000000000000000",
      "reserved": "",
      "salt": "0xe9bcd1ab5991fa5466249d96e065fa4679078379c661800419c725b8a150c7eb",
      "assetIds": []
    },
    {
      "x": 401,
      "y": 242,
      "size": 1,
      "price": "1011000000000000000000",
      "reserved": "",
      "salt": "0x786099dbd89c0c784fba5bb2f29800363c8455c9f83f250282b165fc18019c52",
      "assetIds": []
    },
    {
      "x": 401,
      "y": 243,
      "size": 1,
      "price": "1011000000000000000000",
      "reserved": "",
      "salt": "0xbdb81b3a34cab47dbe152ab1873f2fb580cb26904b3391940d938f5fa16d93f7",
      "assetIds": []
    },
    {
      "x": 401,
      "y": 244,
      "size": 1,
      "price": "1011000000000000000000",
      "reserved": "",
      "salt": "0x7bc24441369d67c9955f17f41fdd7990c756023be9ea8dd7fa5c29643a3a009b",
      "assetIds": []
    },
    {
      "x": 401,
      "y": 245,
      "size": 1,
      "price": "1011000000000000000000",
      "reserved": "",
      "salt": "0x3434def38ffa6cd53033e18f196dcd605461b0ba362755020af3099e83ed2aa1",
      "assetIds": []
    },
    {
      "x": 401,
      "y": 246,
      "size": 1,
      "price": "1011000000000000000000",
      "reserved": "",
      "salt": "0x0725ca8ba00471736914c85304951f88fbe01e3a1d56a37e102fd48a2b100eec",
      "assetIds": []
    },
    {
      "x": 401,
      "y": 247,
      "size": 1,
      "price": "1011000000000000000000",
      "reserved": "",
      "salt": "0xecbe2857657b59854639027f582abaf53109afd301a050f3eb4f8d3ca9ac8abd",
      "assetIds": []
    },
    {
      "x": 401,
      "y": 248,
      "size": 1,
      "price": "1011000000000000000000",
      "reserved": "",
      "salt": "0x4d7cef78829e69d1836a80ce1ac71912576acd4b75a26bbfd29afdf4476660d9",
      "assetIds": []
    },
    {
      "x": 401,
      "y": 249,
      "size": 1,
      "price": "1011000000000000000000",
      "reserved": "",
      "salt": "0xc561da7b7e6fec994aa24afaa1e4ad7e7f05262838339da4698c974242f1d4a6",
      "assetIds": []
    },
    {
      "x": 401,
      "y": 250,
      "size": 1,
      "price": "1011000000000000000000",
      "reserved": "",
      "salt": "0x76e43238bcaff14b83d5339f733cd7b7f56a83df0ce40886cc9039431a992b05",
      "assetIds": []
    },
    {
      "x": 401,
      "y": 251,
      "size": 1,
      "price": "1011000000000000000000",
      "reserved": "",
      "salt": "0x46122e15d71a8a6ac9cea3335e85c171866c9b4a4cc266bb94126a57949a531c",
      "assetIds": []
    },
    {
      "x": 401,
      "y": 294,
      "size": 1,
      "price": "1011000000000000000000",
      "reserved": "",
      "salt": "0xac2736460c5bb0aa8d654515442d196a5f7ade2445210a51754405554c7b5a03",
      "assetIds": []
    },
    {
      "x": 401,
      "y": 295,
      "size": 1,
      "price": "1011000000000000000000",
      "reserved": "",
      "salt": "0x882ae6f22cc3e3295bd19f2c08b627e9def3dbb82b21e10c6cb67e7101bc5516",
      "assetIds": []
    },
    {
      "x": 401,
      "y": 296,
      "size": 1,
      "price": "1011000000000000000000",
      "reserved": "",
      "salt": "0x29ee8c535c2a67fa00c06ae896c3d0e1b0fbb9f7bd405cc9c042ca74eb42ee21",
      "assetIds": []
    },
    {
      "x": 401,
      "y": 297,
      "size": 1,
      "price": "1011000000000000000000",
      "reserved": "",
      "salt": "0x10961a6ea22a24448af061e4741e698ede09b85d9ae717735946afb4a93b1d8c",
      "assetIds": []
    },
    {
      "x": 401,
      "y": 298,
      "size": 1,
      "price": "1011000000000000000000",
      "reserved": "",
      "salt": "0x94d975490c41f3c30b19ec582d174710338d97342e48e417611949deb74ec05a",
      "assetIds": []
    },
    {
      "x": 401,
      "y": 299,
      "size": 1,
      "price": "1011000000000000000000",
      "reserved": "",
      "salt": "0x9008bf37108d2b32c48629c43f93ce52ed050935ae090f336272e1c546c1e93e",
      "assetIds": []
    },
    {
      "x": 402,
      "y": 240,
      "size": 1,
      "price": "1011000000000000000000",
      "reserved": "",
      "salt": "0xa05cca9bb957d2230a288ab6b71be08cb5b288917b218e30695e79e10c80ea17",
      "assetIds": []
    },
    {
      "x": 402,
      "y": 241,
      "size": 1,
      "price": "1011000000000000000000",
      "reserved": "",
      "salt": "0x44849fb85c8cad4601cf4f80bcdc01daf9987faa41532bc9523228c264743598",
      "assetIds": []
    },
    {
      "x": 402,
      "y": 242,
      "size": 1,
      "price": "1011000000000000000000",
      "reserved": "",
      "salt": "0xbde0350da8c24875286a9d392391a839f476cc87d9732810ac7cf4700b5b6436",
      "assetIds": []
    },
    {
      "x": 402,
      "y": 243,
      "size": 1,
      "price": "1011000000000000000000",
      "reserved": "",
      "salt": "0xf5ca1e27e426b59b3feab5c350a3d813e633a9b64146d9a3732871d010785492",
      "assetIds": []
    },
    {
      "x": 402,
      "y": 244,
      "size": 1,
      "price": "1011000000000000000000",
      "reserved": "",
      "salt": "0xd3d77d1e76bb01cc68252bf4176b680c4d4390bbac25af53b0ed67a8b2c9af52",
      "assetIds": []
    },
    {
      "x": 402,
      "y": 245,
      "size": 1,
      "price": "1011000000000000000000",
      "reserved": "",
      "salt": "0x21610b84add58fa760ae60f04117ce3124c00d412d6bf55616e969821acc1736",
      "assetIds": []
    },
    {
      "x": 402,
      "y": 246,
      "size": 1,
      "price": "1011000000000000000000",
      "reserved": "",
      "salt": "0x708f2a112dcf230a882a34dc87a280fd4e75b7981003b9c7a080653ce1a8764f",
      "assetIds": []
    },
    {
      "x": 402,
      "y": 247,
      "size": 1,
      "price": "1011000000000000000000",
      "reserved": "",
      "salt": "0xb93bc26b04b9ebae8257f5c8a6d220785ed49ff015dcea1f3df23e1e6da238cc",
      "assetIds": []
    },
    {
      "x": 402,
      "y": 248,
      "size": 1,
      "price": "1011000000000000000000",
      "reserved": "",
      "salt": "0x39b38c93b7da6ed87848f355b0913870b4d092528e3dea86d8b7f6c4be540216",
      "assetIds": []
    },
    {
      "x": 402,
      "y": 249,
      "size": 1,
      "price": "1011000000000000000000",
      "reserved": "",
      "salt": "0x742439e49f629eb92317b32d5f41ec23cdf43e46901b73c1bb61bfdc1d435716",
      "assetIds": []
    },
    {
      "x": 402,
      "y": 250,
      "size": 1,
      "price": "1011000000000000000000",
      "reserved": "",
      "salt": "0xc86e14ad59628f416edbfcf713b0b75a61eb8f2c2dbd8e67fb5bf81e8860877c",
      "assetIds": []
    },
    {
      "x": 402,
      "y": 251,
      "size": 1,
      "price": "1011000000000000000000",
      "reserved": "",
      "salt": "0xf1cb7c7e1e5859bf87b3cbf81c5bedbd54c43a9b0ccf794243a3f05761e92800",
      "assetIds": []
    },
    {
      "x": 402,
      "y": 288,
      "size": 1,
      "price": "1011000000000000000000",
      "reserved": "",
      "salt": "0x2696abb39ae1901b48d2b9f4029a9510956d9e73684b74cc2486e6ed4fbd7416",
      "assetIds": []
    },
    {
      "x": 402,
      "y": 289,
      "size": 1,
      "price": "1011000000000000000000",
      "reserved": "",
      "salt": "0x6417c84cf558a5b900bc1d99d4f85fe017306d78082942ec192dc5a22180b1cd",
      "assetIds": []
    },
    {
      "x": 402,
      "y": 290,
      "size": 1,
      "price": "1011000000000000000000",
      "reserved": "",
      "salt": "0x6beedf60e8531489c7f23db5cd5fdc4cd20c2550347c6d1a81043dfde8037ec6",
      "assetIds": []
    },
    {
      "x": 402,
      "y": 291,
      "size": 1,
      "price": "1011000000000000000000",
      "reserved": "",
      "salt": "0xd5f19207c8f518e25adf213c6cb414859230eef5b306d2014f595edcff514923",
      "assetIds": []
    },
    {
      "x": 402,
      "y": 292,
      "size": 1,
      "price": "1011000000000000000000",
      "reserved": "",
      "salt": "0x837c688e2af6580bf6ef782c75a1761d7c9eb19b5a56b0bcf23c145c41a0cd24",
      "assetIds": []
    },
    {
      "x": 402,
      "y": 293,
      "size": 1,
      "price": "1011000000000000000000",
      "reserved": "",
      "salt": "0xe33f962761a3bcaae07aabef073a42f226143e890f47f82795b127ed84d2ab0e",
      "assetIds": []
    },
    {
      "x": 402,
      "y": 306,
      "size": 1,
      "price": "1011000000000000000000",
      "reserved": "",
      "salt": "0x29dc045170a9698a32c21afac13a5029d4cd09078691fcde56376afa6282dc13",
      "assetIds": []
    },
    {
      "x": 402,
      "y": 307,
      "size": 1,
      "price": "1011000000000000000000",
      "reserved": "",
      "salt": "0xf8cd233a9de04ed95734a8f1dd4abc6c902b373cd45ba7d0de1ca6d2277e1857",
      "assetIds": []
    },
    {
      "x": 402,
      "y": 308,
      "size": 1,
      "price": "1011000000000000000000",
      "reserved": "",
      "salt": "0xbb36c23ffead1b9217a02827f0296f58329e28b36f0fafc3d2ddc0383f70337b",
      "assetIds": []
    },
    {
      "x": 402,
      "y": 309,
      "size": 1,
      "price": "1011000000000000000000",
      "reserved": "",
      "salt": "0x43eaffb0346e1ef27fb55ebbb2e470b9e72a2f972f3c2c399e53a9a72a4bee3b",
      "assetIds": []
    },
    {
      "x": 402,
      "y": 310,
      "size": 1,
      "price": "1011000000000000000000",
      "reserved": "",
      "salt": "0x6904ff09fbd65ba51a5effaaeadb5b6925f1a5174af9d53cb932f81014081d7e",
      "assetIds": []
    },
    {
      "x": 402,
      "y": 311,
      "size": 1,
      "price": "1011000000000000000000",
      "reserved": "",
      "salt": "0x4fc25721a8ebf0569ccf8ea3bccf453ce9200d77e0e9b80733c8492e4c7dec29",
      "assetIds": []
    },
    {
      "x": 403,
      "y": 240,
      "size": 1,
      "price": "1011000000000000000000",
      "reserved": "",
      "salt": "0x2f5ac79b011fdcc029992d87229ffc09fee701ec9af20378444222cb510bd035",
      "assetIds": []
    },
    {
      "x": 403,
      "y": 241,
      "size": 1,
      "price": "1011000000000000000000",
      "reserved": "",
      "salt": "0x3200a48b38b0905239d5bb22fdb2d1630dfb316ad46ba06db5a9ae87fa72cc6c",
      "assetIds": []
    },
    {
      "x": 403,
      "y": 242,
      "size": 1,
      "price": "1011000000000000000000",
      "reserved": "",
      "salt": "0xbd23b8459a3e69302e56895df7b2c068446e893c601fd65aa80afc8b0ea0b339",
      "assetIds": []
    },
    {
      "x": 403,
      "y": 243,
      "size": 1,
      "price": "1011000000000000000000",
      "reserved": "",
      "salt": "0xdc3910f63558602e115c60caa6330879e1d4a6fae38f4c798d0ca9e675cb7271",
      "assetIds": []
    },
    {
      "x": 403,
      "y": 244,
      "size": 1,
      "price": "1011000000000000000000",
      "reserved": "",
      "salt": "0xfd04c5695b2ca8cfa52b410a390d54cd4e1869512ae82778adaa90a372f29ad2",
      "assetIds": []
    },
    {
      "x": 403,
      "y": 245,
      "size": 1,
      "price": "1011000000000000000000",
      "reserved": "",
      "salt": "0x24466a5abddf702cbdb6a9c9556a3a2f17b02e24b3c9ee87778272a228181fda",
      "assetIds": []
    },
    {
      "x": 403,
      "y": 246,
      "size": 1,
      "price": "1011000000000000000000",
      "reserved": "",
      "salt": "0x0e0931acaf23ec3fa1641a101a23bd468b0f65244416dd43e228d60b6fcdd239",
      "assetIds": []
    },
    {
      "x": 403,
      "y": 247,
      "size": 1,
      "price": "1011000000000000000000",
      "reserved": "",
      "salt": "0x0efd4d6a7e5e697f378b08259c995cd7d6c76ffe2b384165614f4ecaa9311d5e",
      "assetIds": []
    },
    {
      "x": 403,
      "y": 248,
      "size": 1,
      "price": "1011000000000000000000",
      "reserved": "",
      "salt": "0x15ee866f19d4cd2ce23f1724d563defe37ecd58a5cffca7802fed7248cfc667f",
      "assetIds": []
    },
    {
      "x": 403,
      "y": 249,
      "size": 1,
      "price": "1011000000000000000000",
      "reserved": "",
      "salt": "0x724821c8198e53bae6f654b03f60287ba59caee016ae06a94686291a7eb6bce3",
      "assetIds": []
    },
    {
      "x": 403,
      "y": 250,
      "size": 1,
      "price": "1011000000000000000000",
      "reserved": "",
      "salt": "0xa876dc206f867e3721e04ffd035c80e127e3e778a80790bf22e55fdae77208ef",
      "assetIds": []
    },
    {
      "x": 403,
      "y": 251,
      "size": 1,
      "price": "1011000000000000000000",
      "reserved": "",
      "salt": "0x4a03597e98b9a769d60b404d8d8bda7ac9359ec446d5d46f1afc3b40b18402a2",
      "assetIds": []
    },
    {
      "x": 403,
      "y": 288,
      "size": 1,
      "price": "1011000000000000000000",
      "reserved": "",
      "salt": "0xa4612a6aa202526be7fb01b00ef438d4e0d15b3cd165b97c480bdcf2836883be",
      "assetIds": []
    },
    {
      "x": 403,
      "y": 289,
      "size": 1,
      "price": "1011000000000000000000",
      "reserved": "",
      "salt": "0xb2c6519ad4b88110781626b9f274be3ebbac51bcf3ededf5367a4c967abf0eee",
      "assetIds": []
    },
    {
      "x": 403,
      "y": 290,
      "size": 1,
      "price": "1011000000000000000000",
      "reserved": "",
      "salt": "0x2c58651dea38cefff7ce188d3a556d4f79196f24734457b96bbd8a4bb414bdf2",
      "assetIds": []
    },
    {
      "x": 403,
      "y": 291,
      "size": 1,
      "price": "1011000000000000000000",
      "reserved": "",
      "salt": "0x08585f5210505cb195f1eaa168414debe5be9bae9b377ecb64a10eba1256f1e1",
      "assetIds": []
    },
    {
      "x": 403,
      "y": 292,
      "size": 1,
      "price": "1011000000000000000000",
      "reserved": "",
      "salt": "0x3e5bace1d75fd3639b03ccd872de775a1b3c5bbabf68f6ff1d24c5976a522a2b",
      "assetIds": []
    },
    {
      "x": 403,
      "y": 293,
      "size": 1,
      "price": "1011000000000000000000",
      "reserved": "",
      "salt": "0xefda8e05dfdc733bd0386d3475d318796788062a1d5b3e3c5bad0922fec5632b",
      "assetIds": []
    },
    {
      "x": 403,
      "y": 306,
      "size": 1,
      "price": "1011000000000000000000",
      "reserved": "",
      "salt": "0x527056fc6f7a840c6aa389ef370674a4ff8b66762ddfd3013302f83f108106b4",
      "assetIds": []
    },
    {
      "x": 403,
      "y": 307,
      "size": 1,
      "price": "1011000000000000000000",
      "reserved": "",
      "salt": "0x4455b10a2f38d103cf9b1a2e384dd93536f8badf3ad1d249b3aa76d08bb411e8",
      "assetIds": []
    },
    {
      "x": 403,
      "y": 308,
      "size": 1,
      "price": "1011000000000000000000",
      "reserved": "",
      "salt": "0xd9495d11daecc3c8572548a467c5d2f58bbe50673b228d47d6d5240a36cbd9ea",
      "assetIds": []
    },
    {
      "x": 403,
      "y": 309,
      "size": 1,
      "price": "1011000000000000000000",
      "reserved": "0x7a9fe22691c811ea339d9b73150e6911a5343dca",
      "salt": "0x528fd687b26c0a41ac36c6eb5b327fba3c3f92ca333a54341abfeee80187ac16",
      "assetIds": []
    },
    {
      "x": 403,
      "y": 310,
      "size": 1,
      "price": "1011000000000000000000",
      "reserved": "",
      "salt": "0xa809795f73fceb63dcde0f795f7ddcf1d0e1929d9dee30c9df4e5ba73c788f42",
      "assetIds": []
    },
    {
      "x": 403,
      "y": 311,
      "size": 1,
      "price": "1011000000000000000000",
      "reserved": "",
      "salt": "0x2353424acf5bf69891868f6bb70f47282855c18ca5baca009e09efa3d48892aa",
      "assetIds": []
    },
    {
      "x": 404,
      "y": 240,
      "size": 1,
      "price": "1011000000000000000000",
      "reserved": "",
      "salt": "0xc19f63efb13bbdd6949438e34064fe91561cd054688868547e845179b7f7dfa2",
      "assetIds": []
    },
    {
      "x": 404,
      "y": 241,
      "size": 1,
      "price": "1011000000000000000000",
      "reserved": "",
      "salt": "0x875656a85d2c8042fedead5bfdd34562d6b3afe1a6acf566a9ad9abe63110d73",
      "assetIds": []
    },
    {
      "x": 404,
      "y": 242,
      "size": 1,
      "price": "1011000000000000000000",
      "reserved": "",
      "salt": "0x4d29bc7926ca9aa9e9cd20242bbf5480abeaa2431d2384d109b912fd30f274e9",
      "assetIds": []
    },
    {
      "x": 404,
      "y": 243,
      "size": 1,
      "price": "1011000000000000000000",
      "reserved": "",
      "salt": "0x5f89b987cb3b1115d768b43df1a1a7da1436664c7747bfb69472dd01583eea28",
      "assetIds": []
    },
    {
      "x": 404,
      "y": 244,
      "size": 1,
      "price": "1011000000000000000000",
      "reserved": "",
      "salt": "0xe872c0ea7b5855956097639cdb216f19b40775a7618fd20aa4fc87a42b299102",
      "assetIds": []
    },
    {
      "x": 404,
      "y": 245,
      "size": 1,
      "price": "1011000000000000000000",
      "reserved": "",
      "salt": "0xb98b7f9617b9527b3df61212e55267f98497004285e74b53c4ea743518bf00b2",
      "assetIds": []
    },
    {
      "x": 404,
      "y": 246,
      "size": 1,
      "price": "1011000000000000000000",
      "reserved": "",
      "salt": "0x0e7304e0f7153403786d1a675fd6096e43463c507f4fb8386966ab982309a20b",
      "assetIds": []
    },
    {
      "x": 404,
      "y": 247,
      "size": 1,
      "price": "1011000000000000000000",
      "reserved": "",
      "salt": "0x708dc4910f2f9cd2abf6b15c17ad7941f330eb6e86d20dc25d28e14d824295c6",
      "assetIds": []
    },
    {
      "x": 404,
      "y": 248,
      "size": 1,
      "price": "1011000000000000000000",
      "reserved": "",
      "salt": "0x80090f2cfb77bc4c45fa362aa08b90a77ab0eff839284b5ae419a8500dae6005",
      "assetIds": []
    },
    {
      "x": 404,
      "y": 249,
      "size": 1,
      "price": "1011000000000000000000",
      "reserved": "",
      "salt": "0x2b98cb46e99687687ff53682bf06592d67823cc0751bbbdcd08daf05c2d5ec82",
      "assetIds": []
    },
    {
      "x": 404,
      "y": 250,
      "size": 1,
      "price": "1011000000000000000000",
      "reserved": "",
      "salt": "0x191979386ed25f5fba73692b4c59263e408b609e7fdc9ec8eb8ea9e384c06afb",
      "assetIds": []
    },
    {
      "x": 404,
      "y": 251,
      "size": 1,
      "price": "1011000000000000000000",
      "reserved": "",
      "salt": "0xa3f5a9bf5543fa6355d385f3a7b3110efdb9cf506c3bce57fc866325f9b2917d",
      "assetIds": []
    },
    {
      "x": 404,
      "y": 288,
      "size": 1,
      "price": "1011000000000000000000",
      "reserved": "",
      "salt": "0xc5c0c67f89a5296180b8a0ff09d8bb3b866523778b51adbbc58c1b41a16111ff",
      "assetIds": []
    },
    {
      "x": 404,
      "y": 289,
      "size": 1,
      "price": "1011000000000000000000",
      "reserved": "",
      "salt": "0xe63aa11c28986f0f499353f07aa6070e537be7a48dc4b5dcbdf034f23bd1d2f8",
      "assetIds": []
    },
    {
      "x": 404,
      "y": 290,
      "size": 1,
      "price": "1011000000000000000000",
      "reserved": "",
      "salt": "0xe4190978afda30275a0fdef9c6d95e6eb1165ca0a1e373503d2cf149a09485bc",
      "assetIds": []
    },
    {
      "x": 404,
      "y": 291,
      "size": 1,
      "price": "1011000000000000000000",
      "reserved": "",
      "salt": "0xf9b2bc04e098260c012ef08e4ed938d482ba8442c3deac29ca586db10a30e018",
      "assetIds": []
    },
    {
      "x": 404,
      "y": 292,
      "size": 1,
      "price": "1011000000000000000000",
      "reserved": "",
      "salt": "0x9ce519a56fd425d6bf6581781f54406821967b8faf1d4bc9ce0ec9d9cf47d9fd",
      "assetIds": []
    },
    {
      "x": 404,
      "y": 293,
      "size": 1,
      "price": "1011000000000000000000",
      "reserved": "",
      "salt": "0x0d28d69e58d3736c3a0d20966a05ac87114f8f8c06f17ea498672a63fbdbe5b0",
      "assetIds": []
    },
    {
      "x": 404,
      "y": 306,
      "size": 1,
      "price": "1011000000000000000000",
      "reserved": "",
      "salt": "0x2ab43e1c6ac514710b98c5c431c3733b45ab6782d653e2eabdb2b52d8d86b240",
      "assetIds": []
    },
    {
      "x": 404,
      "y": 307,
      "size": 1,
      "price": "1011000000000000000000",
      "reserved": "",
      "salt": "0x901b08fe2c1e12d7260903ca37db3e6c9edcaf94c4fca62424190db9612a32ef",
      "assetIds": []
    },
    {
      "x": 404,
      "y": 308,
      "size": 1,
      "price": "1011000000000000000000",
      "reserved": "",
      "salt": "0x315582cea6cc9100f4ff6ec1d8d793de4ebaf0030b04d297a6e9cc432b096b29",
      "assetIds": []
    },
    {
      "x": 404,
      "y": 309,
      "size": 1,
      "price": "1011000000000000000000",
      "reserved": "",
      "salt": "0xbfa7aa93d0408aa2b6fe88bdfedda3b2cf663cffa9d116d0f00d5dac7578ca63",
      "assetIds": []
    },
    {
      "x": 404,
      "y": 310,
      "size": 1,
      "price": "1011000000000000000000",
      "reserved": "",
      "salt": "0x966011e262a377671095d274a0e968e9f09f1770a47bd04d5fc24d578bf16fde",
      "assetIds": []
    },
    {
      "x": 404,
      "y": 311,
      "size": 1,
      "price": "1011000000000000000000",
      "reserved": "",
      "salt": "0x8ad7cc863446dd10a110b7324cfd18e45aded6dccf1628fb78ad519a6b714715",
      "assetIds": []
    },
    {
      "x": 405,
      "y": 240,
      "size": 1,
      "price": "1011000000000000000000",
      "reserved": "",
      "salt": "0x65c630d26d0e3c78f6bec6ab10b5b2a63b74c17475de687640d084069718ac0c",
      "assetIds": []
    },
    {
      "x": 405,
      "y": 241,
      "size": 1,
      "price": "1011000000000000000000",
      "reserved": "",
      "salt": "0xb25e367f046c64c12472dbd6aeafca58b8ee256188371cd45e8e09cf83506ac9",
      "assetIds": []
    },
    {
      "x": 405,
      "y": 242,
      "size": 1,
      "price": "1011000000000000000000",
      "reserved": "",
      "salt": "0x0e845182779affb0a77e03daeb725fa064ab046e80f0b44e09b9861d20aebf97",
      "assetIds": []
    },
    {
      "x": 405,
      "y": 243,
      "size": 1,
      "price": "1011000000000000000000",
      "reserved": "",
      "salt": "0x2ba9029b121b19f1212a6ffdb07a1ca97808090beec88b30005c3767414066f9",
      "assetIds": []
    },
    {
      "x": 405,
      "y": 244,
      "size": 1,
      "price": "1011000000000000000000",
      "reserved": "",
      "salt": "0x1ace334ddfbdfdae076c07de49f44b7d2f5542e9376ba771941aad9c309a05a6",
      "assetIds": []
    },
    {
      "x": 405,
      "y": 245,
      "size": 1,
      "price": "1011000000000000000000",
      "reserved": "",
      "salt": "0x91e69af3e5009939ab2cc3d98019b4b86e3f0931734f4bce08bbf19c4c9c1496",
      "assetIds": []
    },
    {
      "x": 405,
      "y": 246,
      "size": 1,
      "price": "1011000000000000000000",
      "reserved": "",
      "salt": "0x7a6c611cc8fe912123348e43bf9551c0aca3677bf3af589093b98224b573061c",
      "assetIds": []
    },
    {
      "x": 405,
      "y": 247,
      "size": 1,
      "price": "1011000000000000000000",
      "reserved": "0x7a9fe22691c811ea339d9b73150e6911a5343dca",
      "salt": "0x179fde07e055d441889f1a691e754b8fa9e2e63818d2db5eb850da7007962580",
      "assetIds": []
    },
    {
      "x": 405,
      "y": 248,
      "size": 1,
      "price": "1011000000000000000000",
      "reserved": "",
      "salt": "0xde7b53b686ddb1fb4c9c805ce4391ca193d2f5350b1962cb540fc0fe392ac0a3",
      "assetIds": []
    },
    {
      "x": 405,
      "y": 249,
      "size": 1,
      "price": "1011000000000000000000",
      "reserved": "",
      "salt": "0x620653e23a9a5fb7118ba16270b77b283072acb49b1faebc6a69472ad9ab720a",
      "assetIds": []
    },
    {
      "x": 405,
      "y": 250,
      "size": 1,
      "price": "1011000000000000000000",
      "reserved": "",
      "salt": "0x8eb143f279e2a36e7c2dc9955122422230a56ae557124e77cd7cff846cf3b0d8",
      "assetIds": []
    },
    {
      "x": 405,
      "y": 251,
      "size": 1,
      "price": "1011000000000000000000",
      "reserved": "",
      "salt": "0x02c8a85292fddc82493f3de0052b83da5cec0f26e5efff3e0ea8bfaa197bf0d3",
      "assetIds": []
    },
    {
      "x": 405,
      "y": 291,
      "size": 1,
      "price": "1011000000000000000000",
      "reserved": "",
      "salt": "0x5fca75d7d026431ec192af60b7d3706606d23d5e3355e51e3aacabf3b650ac12",
      "assetIds": []
    },
    {
      "x": 405,
      "y": 292,
      "size": 1,
      "price": "1011000000000000000000",
      "reserved": "0x7a9fe22691c811ea339d9b73150e6911a5343dca",
      "salt": "0xbabaaa16089b84cb9c2ce39fd98541056542adf7e1d2a6103bf10db1345c673c",
      "assetIds": []
    },
    {
      "x": 405,
      "y": 293,
      "size": 1,
      "price": "1011000000000000000000",
      "reserved": "",
      "salt": "0x5eefcae978a7a28effe6f159369bf92007ddccd18710157958ce146f9f4e4061",
      "assetIds": []
    },
    {
      "x": 405,
      "y": 306,
      "size": 1,
      "price": "1011000000000000000000",
      "reserved": "",
      "salt": "0x71ba0c5e3eeaacb36449f890397622e03c8ba8e236fcecf3b5f248c3ef50b563",
      "assetIds": []
    },
    {
      "x": 405,
      "y": 307,
      "size": 1,
      "price": "1011000000000000000000",
      "reserved": "",
      "salt": "0x95ddc46d256681af2acfa14c1054f7d2c4869e1eb167c9a82a5856f2a617b545",
      "assetIds": []
    },
    {
      "x": 405,
      "y": 308,
      "size": 1,
      "price": "1011000000000000000000",
      "reserved": "",
      "salt": "0x44bc476b3222235a94d96ffb3cbc4cbf2f03ef9acd9e725a88198ef042f9956f",
      "assetIds": []
    },
    {
      "x": 405,
      "y": 309,
      "size": 1,
      "price": "1011000000000000000000",
      "reserved": "",
      "salt": "0x48be7d4a4a574702b471ac6a82fea50c9b8075bba515491093c56c2ae110b0a9",
      "assetIds": []
    },
    {
      "x": 405,
      "y": 310,
      "size": 1,
      "price": "1011000000000000000000",
      "reserved": "",
      "salt": "0x8058f60b6d241b7fa5fbc1c17d4bcff15392714fe741ad967b2398e464abfe5b",
      "assetIds": []
    },
    {
      "x": 405,
      "y": 311,
      "size": 1,
      "price": "1011000000000000000000",
      "reserved": "",
      "salt": "0x18bdcaf354ccdea04bf7be255a4011d73371c4eaa58aac06d37416634bab5574",
      "assetIds": []
    },
    {
      "x": 406,
      "y": 240,
      "size": 1,
      "price": "1011000000000000000000",
      "reserved": "",
      "salt": "0xd488b72faa1013937e08065a2f44e094f3203335560b4e6f7723e588c813913f",
      "assetIds": []
    },
    {
      "x": 406,
      "y": 241,
      "size": 1,
      "price": "1011000000000000000000",
      "reserved": "",
      "salt": "0xc9c04a62f23edba7eb6f54edc109834b5eea4f8405eebcb3815214ca8086faad",
      "assetIds": []
    },
    {
      "x": 406,
      "y": 242,
      "size": 1,
      "price": "1011000000000000000000",
      "reserved": "0x7a9fe22691c811ea339d9b73150e6911a5343dca",
      "salt": "0x989676cc73eceaa03cb0c8b1ca44cc5ef18030dbc45e60a8c8620cf8536734d4",
      "assetIds": []
    },
    {
      "x": 406,
      "y": 243,
      "size": 1,
      "price": "1011000000000000000000",
      "reserved": "",
      "salt": "0x1cb3ab4ee210f7d8f2819d7ff08c5be2e87d675e0c982b23ff7a4874de721ef0",
      "assetIds": []
    },
    {
      "x": 406,
      "y": 244,
      "size": 1,
      "price": "1011000000000000000000",
      "reserved": "",
      "salt": "0x75f078f3b8169569a7a02ffb4d485168ab72207e9af31f3d73a269d1ac7a9a84",
      "assetIds": []
    },
    {
      "x": 406,
      "y": 245,
      "size": 1,
      "price": "1011000000000000000000",
      "reserved": "",
      "salt": "0xb267bd3a1d254bbf2c1148962014c99eda8cb19783166c1f919111398dc6ee1a",
      "assetIds": []
    },
    {
      "x": 406,
      "y": 246,
      "size": 1,
      "price": "1011000000000000000000",
      "reserved": "",
      "salt": "0xc9a878a96edbeb12c5501d3f501d1d57b3baf53ce7578d1687dd04370d833820",
      "assetIds": []
    },
    {
      "x": 406,
      "y": 247,
      "size": 1,
      "price": "1011000000000000000000",
      "reserved": "",
      "salt": "0x0f4130b63f0ecb7930fd88fffec8f213890ff47e5c139c6970b5d96ea6f82cc3",
      "assetIds": []
    },
    {
      "x": 406,
      "y": 248,
      "size": 1,
      "price": "1011000000000000000000",
      "reserved": "",
      "salt": "0x70ece553f6231c98e59507a9331b48cd7d64a0e87d24becd92c987059f84c6e3",
      "assetIds": []
    },
    {
      "x": 406,
      "y": 249,
      "size": 1,
      "price": "1011000000000000000000",
      "reserved": "",
      "salt": "0xc9b50f2f9d6c30a01a37d2b5452b0a754a6d57bd19e3cd132df4960ea719aa79",
      "assetIds": []
    },
    {
      "x": 406,
      "y": 250,
      "size": 1,
      "price": "1011000000000000000000",
      "reserved": "",
      "salt": "0x887e6f99687ef4584eaf3950d5a59d705b5c0c2b120ffdd7538fb60ed80cf433",
      "assetIds": []
    },
    {
      "x": 406,
      "y": 251,
      "size": 1,
      "price": "1011000000000000000000",
      "reserved": "",
      "salt": "0xa6d430952a0e87b3ed5764276102825c3bd9d13e818167acf7b2a520cdf11257",
      "assetIds": []
    },
    {
      "x": 406,
      "y": 291,
      "size": 1,
      "price": "1011000000000000000000",
      "reserved": "",
      "salt": "0xd2ba0666311608711d09e1d59a8b6ae128f6d533007f64ea11fb3e71f1c66fe8",
      "assetIds": []
    },
    {
      "x": 406,
      "y": 292,
      "size": 1,
      "price": "1011000000000000000000",
      "reserved": "",
      "salt": "0x6627ceae0652d70f9938692d51d60853d1ad70f283210136c59a41c2763664df",
      "assetIds": []
    },
    {
      "x": 406,
      "y": 293,
      "size": 1,
      "price": "1011000000000000000000",
      "reserved": "",
      "salt": "0xca85b40c17573d79087bedcb8276107a87f2d7174dcbcefa8cbf7d76458245f5",
      "assetIds": []
    },
    {
      "x": 406,
      "y": 306,
      "size": 1,
      "price": "1011000000000000000000",
      "reserved": "",
      "salt": "0xd8809e0e7318a87ad89de2a00e3d12f6962ed31f3ab1b8136593f88fd6805848",
      "assetIds": []
    },
    {
      "x": 406,
      "y": 307,
      "size": 1,
      "price": "1011000000000000000000",
      "reserved": "",
      "salt": "0x46d08e7a0ed9f5738045b35648ac162e7ac5ae9229bae780b38dc944556aa389",
      "assetIds": []
    },
    {
      "x": 406,
      "y": 308,
      "size": 1,
      "price": "1011000000000000000000",
      "reserved": "",
      "salt": "0xae6566ac7f5ebe10bbd7a506cb0847fa6652ceb09d5338ccfdb864ea962008a5",
      "assetIds": []
    },
    {
      "x": 406,
      "y": 309,
      "size": 1,
      "price": "1011000000000000000000",
      "reserved": "",
      "salt": "0x8f6442dec81a51fd168dfe65954fc97a00eacec95687eae4072a25a26c924bff",
      "assetIds": []
    },
    {
      "x": 406,
      "y": 310,
      "size": 1,
      "price": "1011000000000000000000",
      "reserved": "",
      "salt": "0x135fd0c408bde0a7b9386c2764064a971865fe29e97364e99ff7338ba3857459",
      "assetIds": []
    },
    {
      "x": 406,
      "y": 311,
      "size": 1,
      "price": "1011000000000000000000",
      "reserved": "",
      "salt": "0xe184b4eb6eff1cad4b1e3110699fbe334d8ddececce0fd6cf34f7f7fda7c1cf9",
      "assetIds": []
    },
    {
      "x": 407,
      "y": 240,
      "size": 1,
      "price": "1011000000000000000000",
      "reserved": "",
      "salt": "0x9429df2853bb1a5cd2c6bbf2c99dfe45603c12d6ed3d469d2c6cba1cecede389",
      "assetIds": []
    },
    {
      "x": 407,
      "y": 241,
      "size": 1,
      "price": "1011000000000000000000",
      "reserved": "",
      "salt": "0x6b0627b8517c3f6070a7935bcd1660bd53a9a16953922367d29c4858d82a262e",
      "assetIds": []
    },
    {
      "x": 407,
      "y": 242,
      "size": 1,
      "price": "1011000000000000000000",
      "reserved": "",
      "salt": "0x765ca3972d88c295582dc889efed909e12d9180e4269fcfd1b68f8f9629052cb",
      "assetIds": []
    },
    {
      "x": 407,
      "y": 243,
      "size": 1,
      "price": "1011000000000000000000",
      "reserved": "",
      "salt": "0x47d02158acfdd4867a936063f6edf3b2f53d24402c0845e43c70dc3b63e5323d",
      "assetIds": []
    },
    {
      "x": 407,
      "y": 244,
      "size": 1,
      "price": "1011000000000000000000",
      "reserved": "",
      "salt": "0x9bfb42de02d74324c0607870541fccfdde6cfcc3b13751d189afc236cb3c0a78",
      "assetIds": []
    },
    {
      "x": 407,
      "y": 245,
      "size": 1,
      "price": "1011000000000000000000",
      "reserved": "",
      "salt": "0xcb2a96194e5a26e40928f825b4b031465a177ad3f05327cbc8bfa8e83bad52e7",
      "assetIds": []
    },
    {
      "x": 407,
      "y": 246,
      "size": 1,
      "price": "1011000000000000000000",
      "reserved": "",
      "salt": "0x144e824cef12c5362516b9ea0dca2d784e1b1060e4e2a26934139c955308da74",
      "assetIds": []
    },
    {
      "x": 407,
      "y": 247,
      "size": 1,
      "price": "1011000000000000000000",
      "reserved": "",
      "salt": "0xa8c06c94b6b8d132873758a9797171451d90ff32a4b03dc1e2ea1e9f5db44cbf",
      "assetIds": []
    },
    {
      "x": 407,
      "y": 248,
      "size": 1,
      "price": "1011000000000000000000",
      "reserved": "",
      "salt": "0x1f81c6b7b6efc0cf784526bcac79304190b297e763ba09dc95d87609ef4dcd2f",
      "assetIds": []
    },
    {
      "x": 407,
      "y": 249,
      "size": 1,
      "price": "1011000000000000000000",
      "reserved": "",
      "salt": "0x3f610b58c68dccc93198241d5a4f0e5198607184d6eead3629cd06c12ed1361c",
      "assetIds": []
    },
    {
      "x": 407,
      "y": 250,
      "size": 1,
      "price": "1011000000000000000000",
      "reserved": "",
      "salt": "0x8113ae0223e1c1a4cbc1a1dfeae6122bb9d90925510547d333bdbfb50776ee0b",
      "assetIds": []
    },
    {
      "x": 407,
      "y": 251,
      "size": 1,
      "price": "1011000000000000000000",
      "reserved": "",
      "salt": "0xed9daa765ced616fee968dc59b6ea6d97dccb51f88343a00ac20247062ede561",
      "assetIds": []
    },
    {
      "x": 407,
      "y": 291,
      "size": 1,
      "price": "1011000000000000000000",
      "reserved": "",
      "salt": "0xb1872a0c4b82cb57fd9e4f543a9ee0d0652e982543379bd30de6fec212cb43f3",
      "assetIds": []
    },
    {
      "x": 407,
      "y": 292,
      "size": 1,
      "price": "1011000000000000000000",
      "reserved": "",
      "salt": "0x4ac88aa32cb427df8b8ea7864f3ef11c02b230288210c1c8b9498ae91871d973",
      "assetIds": []
    },
    {
      "x": 407,
      "y": 293,
      "size": 1,
      "price": "1011000000000000000000",
      "reserved": "",
      "salt": "0x3a347e026b6f43a8e85c3a78a735acd24525d0ac3888b1c4e72031730c75ec36",
      "assetIds": []
    },
    {
      "x": 407,
      "y": 306,
      "size": 1,
      "price": "1011000000000000000000",
      "reserved": "",
      "salt": "0x6937517b865c452cb335ed899df5be15f9f6d70f9b6c94d04ac860ba7875dba7",
      "assetIds": []
    },
    {
      "x": 407,
      "y": 307,
      "size": 1,
      "price": "1011000000000000000000",
      "reserved": "",
      "salt": "0x092955586a75e9c346b892e6229b511ef132db257ab401d56a8a555e46a3c79a",
      "assetIds": []
    },
    {
      "x": 407,
      "y": 308,
      "size": 1,
      "price": "1011000000000000000000",
      "reserved": "",
      "salt": "0x829664916dd58b77061f86e7259653e26ffe98a7ad8b53b5e33715da382dfd69",
      "assetIds": []
    },
    {
      "x": 407,
      "y": 309,
      "size": 1,
      "price": "1011000000000000000000",
      "reserved": "",
      "salt": "0xb5502b328a9bc61d6f86116a7e19e6d396696de363ba8d0d6bcd4fb0eac72a86",
      "assetIds": []
    },
    {
      "x": 407,
      "y": 310,
      "size": 1,
      "price": "1011000000000000000000",
      "reserved": "",
      "salt": "0xbfdfa78bba7b087090496011ca252799a4028d2c8fcfb300b2f6f0597fed54ef",
      "assetIds": []
    },
    {
      "x": 407,
      "y": 311,
      "size": 1,
      "price": "1011000000000000000000",
      "reserved": "",
      "salt": "0x5d2c09b7dbe9e0ce86420b5e621ba4c9d13b751fead5c3afa9ff3f34ca795cb4",
      "assetIds": []
    },
    {
      "x": 333,
      "y": 258,
      "size": 3,
      "price": "8648000000000000000000",
      "reserved": "",
      "salt": "0x196a2dc53ae37a40fb253c972cae6d8049eff8cbffecb59f4e87993086695824",
      "assetIds": []
    },
    {
      "x": 333,
      "y": 270,
      "size": 3,
      "price": "8648000000000000000000",
      "reserved": "0x7a9fe22691c811ea339d9b73150e6911a5343dca",
      "salt": "0xde1f8f7d9da8e87fe2240097352320e82b520c94a89bfd46b4ac5f1e9b07800b",
      "assetIds": []
    },
    {
      "x": 333,
      "y": 273,
      "size": 3,
      "price": "8648000000000000000000",
      "reserved": "",
      "salt": "0x13974a88a98c65c69352f4da872ddb4d170237d7c285ddd49363d50fcd7823b1",
      "assetIds": []
    },
    {
      "x": 333,
      "y": 291,
      "size": 3,
      "price": "8648000000000000000000",
      "reserved": "",
      "salt": "0xcb15e38f9f62ca9ad35328d21674c15132fb09a8af1142a4b81c6d297460231b",
      "assetIds": []
    },
    {
      "x": 336,
      "y": 255,
      "size": 3,
      "price": "8648000000000000000000",
      "reserved": "",
      "salt": "0x3b4ea9aae6fcc594d5b09b28fab2cc5300f4e1b57108d5f9e865464ac21bab17",
      "assetIds": []
    },
    {
      "x": 339,
      "y": 252,
      "size": 3,
      "price": "8648000000000000000000",
      "reserved": "0x7a9fe22691c811ea339d9b73150e6911a5343dca",
      "salt": "0x6d63257ae0a2416dcc1812fd3515d3f5923dd0e5407ec493c3f1b59fed3d24e7",
      "assetIds": []
    },
    {
      "x": 345,
      "y": 294,
      "size": 3,
      "price": "8648000000000000000000",
      "reserved": "0x7a9fe22691c811ea339d9b73150e6911a5343dca",
      "salt": "0x48bdf70035b466c6c492b061f85abd759b0a3396625304f16e445b8468928f81",
      "assetIds": []
    },
    {
      "x": 345,
      "y": 300,
      "size": 3,
      "price": "8648000000000000000000",
      "reserved": "0x7a9fe22691c811ea339d9b73150e6911a5343dca",
      "salt": "0xa6703f7789ddc92ef81a210165c5002b7c2a10ee9c3c47d65dfd4fe9c241a350",
      "assetIds": []
    },
    {
      "x": 348,
      "y": 252,
      "size": 3,
      "price": "8648000000000000000000",
      "reserved": "",
      "salt": "0x0da5f282a7eb0ed7505f23ad78ce1ec3a9c0091e0c6611238868c779f4788a22",
      "assetIds": []
    },
    {
      "x": 357,
      "y": 303,
      "size": 3,
      "price": "8648000000000000000000",
      "reserved": "",
      "salt": "0xa4f91952ab6120b82a70de745fc94d57583c2d13174fa64a3e5213d30b84761c",
      "assetIds": []
    },
    {
      "x": 360,
      "y": 273,
      "size": 3,
      "price": "8648000000000000000000",
      "reserved": "0x7a9fe22691c811ea339d9b73150e6911a5343dca",
      "salt": "0x1d832bf456cbef74b118eeb89e3625651ce87fc9c5e539361b95f58c70e1b20c",
      "assetIds": []
    },
    {
      "x": 360,
      "y": 294,
      "size": 3,
      "price": "8648000000000000000000",
      "reserved": "",
      "salt": "0x1688169f90db73efd9bf447756a57a8e21a737bb8f0b6252236c12e3c51517b2",
      "assetIds": []
    },
    {
      "x": 366,
      "y": 267,
      "size": 3,
      "price": "8648000000000000000000",
      "reserved": "",
      "salt": "0x2be77fc41113cd254038f5633993fe7bbd48bded5be5697fbe4f77e7da8ce566",
      "assetIds": []
    },
    {
      "x": 366,
      "y": 291,
      "size": 3,
      "price": "8648000000000000000000",
      "reserved": "0x7a9fe22691c811ea339d9b73150e6911a5343dca",
      "salt": "0x965ed2c0429a87399ab239f9f4ae2f98269ce72dd6cf11e6b74d73f08eba0d40",
      "assetIds": []
    },
    {
      "x": 378,
      "y": 231,
      "size": 3,
      "price": "8648000000000000000000",
      "reserved": "0x7a9fe22691c811ea339d9b73150e6911a5343dca",
      "salt": "0x6b0979849f599d2f841e97c6cb39bbc56dd1257247f1da69eec5770587a8f3d9",
      "assetIds": []
    },
    {
      "x": 378,
      "y": 285,
      "size": 3,
      "price": "8648000000000000000000",
      "reserved": "",
      "salt": "0x70e53705b0550257ea3e90afbe7b3cc25081b566cde8ce89563b6332cb16005b",
      "assetIds": []
    },
    {
      "x": 378,
      "y": 291,
      "size": 3,
      "price": "8648000000000000000000",
      "reserved": "0x7a9fe22691c811ea339d9b73150e6911a5343dca",
      "salt": "0x70fbc8c9d07bf290b5157d2226b49853478c92d8695767b6fccab2080fe1c2c6",
      "assetIds": []
    },
    {
      "x": 381,
      "y": 285,
      "size": 3,
      "price": "8648000000000000000000",
      "reserved": "0x7a9fe22691c811ea339d9b73150e6911a5343dca",
      "salt": "0xab128d51ccde02407962a690c506b09b70a36c41af8d4a27928e8545b53a19c3",
      "assetIds": []
    },
    {
      "x": 384,
      "y": 252,
      "size": 3,
      "price": "8648000000000000000000",
      "reserved": "",
      "salt": "0x7debf6ce9518d1e6fb5a010cf7e296a3c0abccec5d42d8d852e657e8e874984c",
      "assetIds": []
    },
    {
      "x": 387,
      "y": 222,
      "size": 3,
      "price": "8648000000000000000000",
      "reserved": "0x7a9fe22691c811ea339d9b73150e6911a5343dca",
      "salt": "0x8b9dff0b7d5648635599e7140908687cdebda77e1737ce871da5ae6335193798",
      "assetIds": []
    },
    {
      "x": 390,
      "y": 258,
      "size": 3,
      "price": "8648000000000000000000",
      "reserved": "0x7a9fe22691c811ea339d9b73150e6911a5343dca",
      "salt": "0x6ab92b090159a9f970b678723ffcb8fb904ee41cffc51437c4a63f0acaa820f5",
      "assetIds": []
    },
    {
      "x": 390,
      "y": 288,
      "size": 3,
      "price": "8648000000000000000000",
      "reserved": "0x7a9fe22691c811ea339d9b73150e6911a5343dca",
      "salt": "0x46d51d35bd78754cee7feb0b03ada77a94389c47ca9988565cbe597553c1d131",
      "assetIds": []
    },
    {
      "x": 390,
      "y": 303,
      "size": 3,
      "price": "8648000000000000000000",
      "reserved": "0x7a9fe22691c811ea339d9b73150e6911a5343dca",
      "salt": "0xba4d96f88a1a5e16f01a576a9fcc36f836a355321a3f673bea90358fce4c6a26",
      "assetIds": []
    },
    {
      "x": 390,
      "y": 309,
      "size": 3,
      "price": "8648000000000000000000",
      "reserved": "",
      "salt": "0x7d47fbf20b839fef5788ab914f0445ea068d9c79a224f1eb715e01b90e10d1a9",
      "assetIds": []
    },
    {
      "x": 393,
      "y": 261,
      "size": 3,
      "price": "8648000000000000000000",
      "reserved": "0x7a9fe22691c811ea339d9b73150e6911a5343dca",
      "salt": "0x1de6d74a2c3052358d42cdbbe8cea7ce0df6342d8b9b9771424f5c47cc5c9f8d",
      "assetIds": []
    },
    {
      "x": 393,
      "y": 297,
      "size": 3,
      "price": "8648000000000000000000",
      "reserved": "",
      "salt": "0x9b3f355725c6de0762d2040380882d84c728834241cd7b129360b8bb0d8ae6ee",
      "assetIds": []
    },
    {
      "x": 399,
      "y": 237,
      "size": 3,
      "price": "8648000000000000000000",
      "reserved": "",
      "salt": "0x9221d23517fb11098bed75c71928cc358993d98fb03b459e1409c0da8a995f7a",
      "assetIds": []
    },
    {
      "x": 405,
      "y": 288,
      "size": 3,
      "price": "8648000000000000000000",
      "reserved": "0x7a9fe22691c811ea339d9b73150e6911a5343dca",
      "salt": "0xdcdf6e024385202ab76ad5d5b7d213a3426ff75d879677701080d739fc7dca5b",
      "assetIds": []
    },
    {
      "x": 168,
      "y": 198,
      "size": 6,
      "price": "32772000000000000000000",
      "reserved": "0x7a9fe22691c811ea339d9b73150e6911a5343dca",
      "salt": "0xea2de181f2234b912c344e58ce89dd579cd20237a1aeb434f35cd1c3275675c4",
      "assetIds": []
    },
    {
      "x": 174,
      "y": 198,
      "size": 6,
      "price": "32772000000000000000000",
      "reserved": "0x7a9fe22691c811ea339d9b73150e6911a5343dca",
      "salt": "0xfc9cb182dce83fb70713b5b41cd66b847512cc37fc50e266067034b69e7cb16d",
      "assetIds": []
    },
    {
      "x": 180,
      "y": 198,
      "size": 6,
      "price": "32772000000000000000000",
      "reserved": "0x7a9fe22691c811ea339d9b73150e6911a5343dca",
      "salt": "0x379c54bee929df35433cb7ae169f1250d03e12ba9aa67eae20d59e5a94d968fe",
      "assetIds": []
    },
    {
      "x": 186,
      "y": 198,
      "size": 6,
      "price": "32772000000000000000000",
      "reserved": "0x7a9fe22691c811ea339d9b73150e6911a5343dca",
      "salt": "0x46f0c9e44992146f24566fcf7be06d9d468b384830b0d393d051dca5ce30de3b",
      "assetIds": []
    },
    {
      "x": 330,
      "y": 252,
      "size": 6,
      "price": "32772000000000000000000",
      "reserved": "0x7a9fe22691c811ea339d9b73150e6911a5343dca",
      "salt": "0x3ba6f896412492cc2eed422b7ae9f4d1b0100e06ef76885edff4d15831a13e6c",
      "assetIds": []
    },
    {
      "x": 330,
      "y": 264,
      "size": 6,
      "price": "32772000000000000000000",
      "reserved": "0x7a9fe22691c811ea339d9b73150e6911a5343dca",
      "salt": "0x54a01f78e98fa648e1661d018355025456138f36ff52b12e89cee5754be83fee",
      "assetIds": []
    },
    {
      "x": 330,
      "y": 294,
      "size": 6,
      "price": "32772000000000000000000",
      "reserved": "0x7a9fe22691c811ea339d9b73150e6911a5343dca",
      "salt": "0x4aad9a6d24aec46804984a1fc051e4ffa35b7f32ceb43b0c844564843d29cbd3",
      "assetIds": []
    },
    {
      "x": 342,
      "y": 258,
      "size": 6,
      "price": "32772000000000000000000",
      "reserved": "0x7a9fe22691c811ea339d9b73150e6911a5343dca",
      "salt": "0x4a27b00dcabec18621ac7890c91d280ec330849f3369d5a3d94875bdc1b6e83a",
      "assetIds": []
    },
    {
      "x": 342,
      "y": 288,
      "size": 6,
      "price": "32772000000000000000000",
      "reserved": "0x7a9fe22691c811ea339d9b73150e6911a5343dca",
      "salt": "0x810c313db541dd526d856b894aefb28f958774f4ed5e319653a181528579b777",
      "assetIds": []
    },
    {
      "x": 348,
      "y": 306,
      "size": 6,
      "price": "32772000000000000000000",
      "reserved": "0x7a9fe22691c811ea339d9b73150e6911a5343dca",
      "salt": "0xa76ea3a787d52f9d89a6807de2e1c566320b13e6175f3753e1b88641c24e02d5",
      "assetIds": []
    },
    {
      "x": 354,
      "y": 258,
      "size": 6,
      "price": "32772000000000000000000",
      "reserved": "0x716eb921f3b346d2c5749b5380dc740d359055d7",
      "salt": "0xfacd0cee9840ab71b69640a1ecee3d5b73ed8ac3dd06fb01b697f30c82d27661",
      "assetIds": []
    },
    {
      "x": 360,
      "y": 234,
      "size": 6,
      "price": "32772000000000000000000",
      "reserved": "0x7a9fe22691c811ea339d9b73150e6911a5343dca",
      "salt": "0x4010fb328aa3528c1dd1a394add80d808f725ce2b2f71a52b01537792f8fd351",
      "assetIds": []
    },
    {
      "x": 360,
      "y": 264,
      "size": 6,
      "price": "32772000000000000000000",
      "reserved": "0x7a9fe22691c811ea339d9b73150e6911a5343dca",
      "salt": "0x0b5bcc821035aaeb5889479649d6412f9ec77f167779d9ea3656f07bb90282f6",
      "assetIds": []
    },
    {
      "x": 366,
      "y": 270,
      "size": 6,
      "price": "32772000000000000000000",
      "reserved": "0x7a9fe22691c811ea339d9b73150e6911a5343dca",
      "salt": "0xec4d49585074ddd3438e8e9e927b38cfec54a8fc7304a6ba1a9fcc255f91c131",
      "assetIds": []
    },
    {
      "x": 372,
      "y": 234,
      "size": 6,
      "price": "32772000000000000000000",
      "reserved": "0x7a9fe22691c811ea339d9b73150e6911a5343dca",
      "salt": "0xfe330c002a0e85f4ea5e75242dacb1d6d47e211c95a14da81db1107f0848d477",
      "assetIds": []
    },
    {
      "x": 372,
      "y": 282,
      "size": 6,
      "price": "32772000000000000000000",
      "reserved": "0x7a9fe22691c811ea339d9b73150e6911a5343dca",
      "salt": "0x6f04869d32fa5df2705ad51ec34ca2016507077298ec059e1c857a2402fd1c3f",
      "assetIds": []
    },
    {
      "x": 378,
      "y": 276,
      "size": 6,
      "price": "32772000000000000000000",
      "reserved": "0x7a9fe22691c811ea339d9b73150e6911a5343dca",
      "salt": "0x595302e40a3a8a2fef2ae793eecfeccbb35eefc96f8d9b63b68febeed44eada0",
      "assetIds": []
    },
    {
      "x": 378,
      "y": 294,
      "size": 6,
      "price": "32772000000000000000000",
      "reserved": "0x7a9fe22691c811ea339d9b73150e6911a5343dca",
      "salt": "0xfdf525033905abcc7d9d88a0b2143434624b230d692d1375cb5577e2e1643563",
      "assetIds": []
    },
    {
      "x": 384,
      "y": 258,
      "size": 6,
      "price": "32772000000000000000000",
      "reserved": "0x7a9fe22691c811ea339d9b73150e6911a5343dca",
      "salt": "0x55a551cfaff864d3761dc6c72ec147c935a5803997d748f52df774f2da5e86f8",
      "assetIds": []
    },
    {
      "x": 384,
      "y": 288,
      "size": 6,
      "price": "32772000000000000000000",
      "reserved": "0x7a9fe22691c811ea339d9b73150e6911a5343dca",
      "salt": "0xd827bcd5e9755bd67cde5b2d150897167e8ab5dd5ae53ddd0730607e4314538a",
      "assetIds": []
    },
    {
      "x": 384,
      "y": 300,
      "size": 6,
      "price": "32772000000000000000000",
      "reserved": "0x7a9fe22691c811ea339d9b73150e6911a5343dca",
      "salt": "0xd273671af82c9cb80a7f674da5c60a0800983e994999ed11d4cbf95bc17b5d38",
      "assetIds": []
    },
    {
      "x": 390,
      "y": 216,
      "size": 6,
      "price": "32772000000000000000000",
      "reserved": "0x7a9fe22691c811ea339d9b73150e6911a5343dca",
      "salt": "0x1c37739887b7646367de15a65537fb621b0e97973b2d6f4dfe9e7b274c710f02",
      "assetIds": []
    },
    {
      "x": 390,
      "y": 228,
      "size": 6,
      "price": "32772000000000000000000",
      "reserved": "0x7a9fe22691c811ea339d9b73150e6911a5343dca",
      "salt": "0x65c0ab7a8c76e6d4a1bf36420e5fdb60ec9530df5f59cbf2a9ea1e6410b6e8e6",
      "assetIds": []
    },
    {
      "x": 396,
      "y": 288,
      "size": 6,
      "price": "32772000000000000000000",
      "reserved": "0x7a9fe22691c811ea339d9b73150e6911a5343dca",
      "salt": "0xad67597b17e5c46645affb99a9e2db6b2e539e476cd17dceea37b0b89f84f609",
      "assetIds": []
    },
    {
      "x": 396,
      "y": 300,
      "size": 6,
      "price": "32772000000000000000000",
      "reserved": "0x7a9fe22691c811ea339d9b73150e6911a5343dca",
      "salt": "0x33c573c1d736233ff51d2c6f643d56e7a9b981b1f55618106fd56923db4e3a64",
      "assetIds": []
    },
    {
      "x": 396,
      "y": 306,
      "size": 6,
      "price": "32772000000000000000000",
      "reserved": "0x7a9fe22691c811ea339d9b73150e6911a5343dca",
      "salt": "0x66391c7dfaf0ddedbd7aee7b4d79a5f41b364c86ec6add3c07214625efd7977d",
      "assetIds": []
    },
    {
      "x": 402,
      "y": 228,
      "size": 6,
      "price": "32772000000000000000000",
      "reserved": "0x7a9fe22691c811ea339d9b73150e6911a5343dca",
      "salt": "0x496d17bf0d6eddb15ddcebc59aa0abb990cffcdc0354d885f2840d34134f8fea",
      "assetIds": []
    },
    {
      "x": 402,
      "y": 234,
      "size": 6,
      "price": "32772000000000000000000",
      "reserved": "0x7a9fe22691c811ea339d9b73150e6911a5343dca",
      "salt": "0xb9daa0161937250dca21f1c48166ff9b46953e846a22be09332c5d0257ea4dce",
      "assetIds": []
    },
    {
      "x": 402,
      "y": 294,
      "size": 6,
      "price": "32772000000000000000000",
      "reserved": "0x7a9fe22691c811ea339d9b73150e6911a5343dca",
      "salt": "0xfcc86b1792b1dfdf2cb5f428e4b733513f30689fbf5f6ad4fbb941f02d3bdb60",
      "assetIds": []
    },
    {
      "x": 402,
      "y": 300,
      "size": 6,
      "price": "32772000000000000000000",
      "reserved": "0x7a9fe22691c811ea339d9b73150e6911a5343dca",
      "salt": "0xdeae28f541616149d16b716fe8385ee8190bb2948e8b4cf5153f1c5c8ac23f1e",
      "assetIds": []
    },
    {
      "x": 324,
      "y": 276,
      "size": 12,
      "price": "123806000000000000000000",
      "reserved": "0x7a9fe22691c811ea339d9b73150e6911a5343dca",
      "salt": "0x63e11812ffeb20b59e976b6ad99748a70314d6ac8e214c9c1b5fc3d3942061af",
      "assetIds": []
    },
    {
      "x": 348,
      "y": 240,
      "size": 12,
      "price": "123806000000000000000000",
      "reserved": "0x7a9fe22691c811ea339d9b73150e6911a5343dca",
      "salt": "0x0adacf16c51b9cdb7f4942ee11235b32af751406710beeef047d1e84e49ab6db",
      "assetIds": []
    },
    {
      "x": 348,
      "y": 288,
      "size": 12,
      "price": "123806000000000000000000",
      "reserved": "0x7a9fe22691c811ea339d9b73150e6911a5343dca",
      "salt": "0x7b7f64539087e242a03ebdb0d3aff43cd7bab719dd2e79c5a05aad7c307a113b",
      "assetIds": []
    },
    {
      "x": 360,
      "y": 276,
      "size": 12,
      "price": "123806000000000000000000",
      "reserved": "0x7a9fe22691c811ea339d9b73150e6911a5343dca",
      "salt": "0xad7a272e83bb80f49654cf789152a0d3873d14aaec11607e871e9991ca1a424d",
      "assetIds": []
    },
    {
      "x": 372,
      "y": 264,
      "size": 12,
      "price": "123806000000000000000000",
      "reserved": "0x7a9fe22691c811ea339d9b73150e6911a5343dca",
      "salt": "0x0171f2fa1a60d3cf3cc8ab083c446f1c18028f4e06e231469c4123d6ac6f1add",
      "assetIds": []
    },
    {
      "x": 384,
      "y": 240,
      "size": 12,
      "price": "123806000000000000000000",
      "reserved": "0x7a9fe22691c811ea339d9b73150e6911a5343dca",
      "salt": "0x32fd53f789eff42fd642114e36fbb01b0354743949058c9b278b9a517128bf0c",
      "assetIds": []
    },
    {
      "x": 396,
      "y": 216,
      "size": 12,
      "price": "123806000000000000000000",
      "reserved": "0x7a9fe22691c811ea339d9b73150e6911a5343dca",
      "salt": "0x91d8efd3a2f0c1d5d0478b13928266fcca2905fd3d7c77d96b166c9edc80a157",
      "assetIds": []
    },
    {
      "x": 396,
      "y": 252,
      "size": 12,
      "price": "123806000000000000000000",
      "reserved": "0x7a9fe22691c811ea339d9b73150e6911a5343dca",
      "salt": "0x135e7f35da89496f2e4e388be81951c289ebefbb590a2d4300647a0dc0719716",
      "assetIds": []
    },
    {
      "x": 336,
      "y": 264,
      "size": 24,
      "price": "466102000000000000000000",
      "reserved": "0x7a9fe22691c811ea339d9b73150e6911a5343dca",
      "salt": "0x19e2a44aea51e5e74f2ab3b85b66c051a5362bc9bf563136f515886dd77446e2",
      "assetIds": []
    },
    {
      "x": 360,
      "y": 240,
      "size": 24,
      "price": "466102000000000000000000",
      "reserved": "0x7a9fe22691c811ea339d9b73150e6911a5343dca",
      "salt": "0x159b76682ea3b50cd53e23dcec04e9983d368f46a4dde4858f9d7dcd7f0fbc8d",
      "assetIds": []
    },
    {
      "x": 384,
      "y": 264,
      "size": 24,
      "price": "466102000000000000000000",
      "reserved": "0x7a9fe22691c811ea339d9b73150e6911a5343dca",
      "salt": "0xcdb75c85ae9a37699ed0c0f67b0702eed72d6ae35536d891466a7f25d41a4c40",
      "assetIds": []
    }
  ],
  "solcInputHash": "313f455adab9ae93096e43acc50d7d38",
  "bytecode": "0x610160604052620d2f006005556103e860075534801561001e57600080fd5b5060405161242e38038061242e833981810160405261018081101561004257600080fd5b50805160208201516040830151606080850151608086015160a08088015160c0808a015160e08b01516101008c01516101208d01516101408e0151610160909e0151600280546001600160a01b0319166001600160a01b03861617905560038390558d8b1b6001600160601b0319908116909852998c901b909616909352999a9899979895979496929590949391926100dc8a600161014a565b600680546001600160a01b03199081166001600160a01b039a8b1617909155610140979097526101209590955260008054909616979096169690961790935550606093841b6001600160601b031990811660e05292841b831660805290921b1661010052506101ae92505050565b6001600160a01b038216600081815260016020908152604091829020805460ff191685151590811790915582519384529083015280517fb21eb88b4e33b3f1281830a7178d74d8aa73220416215726b68ae23d539515cb9281900390910190a15050565b60805160601c60a05160601c60c05160601c60e05160601c6101005160601c61012051610140516121fb610233600039806109375280611d44525080610913528061139a525080611da45250806115d252806116f4525080610c50528061159c5280611dd852508061166152806116c5525080610dfa528061190852506121fb6000f3fe608060405234801561001057600080fd5b50600436106101515760003560e01c8063984d6252116100cd578063dc5074af11610081578063ecb255b511610066578063ecb255b514610857578063f23a6e6114610874578063f2e7b3811461090957610151565b8063dc5074af14610814578063e56f8a9e1461083a57610151565b8063bc197c81116100b2578063bc197c81146105d3578063c10a420814610735578063caed35001461080c57610151565b8063984d6252146104db578063b522ecff146105ad57610151565b80636e9960c3116101245780638a04af6a116101095780638a04af6a1461032a5780638a12b82f146103585780638f283970146104b557610151565b80636e9960c3146102fe57806377f1c3ac1461032257610151565b806325cb5bc014610156578063495906571461017057806358bc29441461017857806365194ce7146101a0575b600080fd5b61015e610911565b60408051918252519081900360200190f35b61015e610935565b61019e6004803603602081101561018e57600080fd5b50356001600160a01b0316610959565b005b610246600480360360208110156101b657600080fd5b8101906020810181356401000000008111156101d157600080fd5b8201836020820111156101e357600080fd5b8035906020019184600183028401116401000000008311171561020557600080fd5b91908080601f016020809104026020016040519081016040528093929190818152602001838380828437600092019190915250929550610a04945050505050565b6040518080602001866001600160a01b03166001600160a01b03168152602001856001600160a01b03166001600160a01b03168152602001848152602001838152602001828103825287818151815260200191508051906020019080838360005b838110156102bf5781810151838201526020016102a7565b50505050905090810190601f1680156102ec5780820380516001836020036101000a031916815260200191505b50965050505050505060405180910390f35b610306610b09565b604080516001600160a01b039092168252519081900360200190f35b61015e610b18565b61019e6004803603604081101561034057600080fd5b506001600160a01b0381351690602001351515610b1e565b61019e600480360361018081101561036f57600080fd5b6001600160a01b038235811692602081013582169260408201359092169160608201359160808101359160a08201359160c08101359160e0820135916101008101359181019061014081016101208201356401000000008111156103d257600080fd5b8201836020820111156103e457600080fd5b8035906020019184602083028401116401000000008311171561040657600080fd5b91939092909160208101903564010000000081111561042457600080fd5b82018360208201111561043657600080fd5b8035906020019184602083028401116401000000008311171561045857600080fd5b91939092909160208101903564010000000081111561047657600080fd5b82018360208201111561048857600080fd5b803590602001918460018302840111640100000000831117156104aa57600080fd5b509092509050610b75565b61019e600480360360208110156104cb57600080fd5b50356001600160a01b0316610cc3565b61019e600480360360608110156104f157600080fd5b6001600160a01b03823516919081019060408101602082013564010000000081111561051c57600080fd5b82018360208201111561052e57600080fd5b8035906020019184602083028401116401000000008311171561055057600080fd5b91939092909160208101903564010000000081111561056e57600080fd5b82018360208201111561058057600080fd5b803590602001918460208302840111640100000000831117156105a257600080fd5b509092509050610d99565b61019e600480360360208110156105c357600080fd5b50356001600160a01b0316610f24565b610700600480360360a08110156105e957600080fd5b6001600160a01b03823581169260208101359091169181019060608101604082013564010000000081111561061d57600080fd5b82018360208201111561062f57600080fd5b8035906020019184602083028401116401000000008311171561065157600080fd5b91939092909160208101903564010000000081111561066f57600080fd5b82018360208201111561068157600080fd5b803590602001918460208302840111640100000000831117156106a357600080fd5b9193909290916020810190356401000000008111156106c157600080fd5b8201836020820111156106d357600080fd5b803590602001918460018302840111640100000000831117156106f557600080fd5b50909250905061100d565b604080517fffffffff000000000000000000000000000000000000000000000000000000009092168252519081900360200190f35b6107f8600480360360a081101561074b57600080fd5b81019060208101813564010000000081111561076657600080fd5b82018360208201111561077857600080fd5b8035906020019184600183028401116401000000008311171561079a57600080fd5b91908080601f016020809104026020016040519081016040528093929190818152602001838380828437600092019190915250929550506001600160a01b03833581169450602084013516926040810135925060600135905061103a565b604080519115158252519081900360200190f35b610306611176565b6107f86004803603602081101561082a57600080fd5b50356001600160a01b0316611185565b61019e6004803603602081101561085057600080fd5b50356111a3565b61019e6004803603602081101561086d57600080fd5b5035611207565b610700600480360360a081101561088a57600080fd5b6001600160a01b03823581169260208101359091169160408201359160608101359181019060a0810160808201356401000000008111156108ca57600080fd5b8201836020820111156108dc57600080fd5b803590602001918460018302840111640100000000831117156108fe57600080fd5b50909250905061126b565b61015e611296565b7f000000000000000000000000000000000000000000000000000000000000000090565b7f000000000000000000000000000000000000000000000000000000000000000090565b6000546001600160a01b031633146109b8576040805162461bcd60e51b815260206004820152601060248201527f53656e646572206e6f742061646d696e00000000000000000000000000000000604482015290519081900360640190fd5b600554600280546001600160a01b03908116600090815260046020526040902042909301909255805473ffffffffffffffffffffffffffffffffffffffff191692909116919091179055565b606060008060008060606000806000808a80602001905160a0811015610a2957600080fd5b8101908080516040519392919084640100000000821115610a4957600080fd5b908301906020820185811115610a5e57600080fd5b8251640100000000811182820188101715610a7857600080fd5b82525081516020918201929091019080838360005b83811015610aa5578181015183820152602001610a8d565b50505050905090810190601f168015610ad25780820380516001836020036101000a031916815260200191505b5060409081526020820151908201516060830151608090930151959f50909d509b5099509197505050505050505091939590929450565b6000546001600160a01b031690565b60035490565b6000546001600160a01b03163314610b675760405162461bcd60e51b815260040180806020018281038252602e815260200180612198602e913960400191505060405180910390fd5b610b71828261129c565b5050565b610b7f898961131e565b610c048f8e8e8e8e8e8d8d8d80806020026020016040519081016040528093929190818152602001838360200280828437600081840152601f19601f820116905080830192505050505050508c8c8080602002602001604051908101604052809392919081815260200183836020028082843760009201919091525061139892505050565b610c458f8984848080601f01602080910402602001604051908101604052809392919081815260200183838082843760009201919091525061157592505050565b610c758f8f8e8e8e8d7f00000000000000000000000000000000000000000000000000000000000000008f6115c6565b610cb28e87878080602002602001604051908101604052809392919081815260200183836020028082843760009201919091525061189192505050565b505050505050505050505050505050565b6000546001600160a01b03163314610d22576040805162461bcd60e51b815260206004820152601b60248201527f6f6e6c792061646d696e2063616e206368616e67652061646d696e0000000000604482015290519081900360640190fd5b600054604080516001600160a01b039283168152918316602083015280517f7e644d79422f17c01e4894b5f4f588d331ebfa28653d42ae832dc59e38c9798f9281900390910190a16000805473ffffffffffffffffffffffffffffffffffffffff19166001600160a01b0392909216919091179055565b6000546001600160a01b03163314610df8576040805162461bcd60e51b815260206004820152600e60248201527f4e4f545f415554484f52495a4544000000000000000000000000000000000000604482015290519081900360640190fd5b7f00000000000000000000000000000000000000000000000000000000000000006001600160a01b0316632eb2c2d63087878787876040518763ffffffff1660e01b815260040180876001600160a01b03166001600160a01b03168152602001866001600160a01b03166001600160a01b031681526020018060200180602001806020018481038452888882818152602001925060200280828437600083820152601f01601f19169091018581038452868152602090810191508790870280828437600081840152601f19601f8201169050808301925050508481038252600081526020016020019950505050505050505050600060405180830381600087803b158015610f0557600080fd5b505af1158015610f19573d6000803e3d6000fd5b505050505050505050565b6001600160a01b038116610f7f576040805162461bcd60e51b815260206004820152600c60248201527f5a45524f5f414444524553530000000000000000000000000000000000000000604482015290519081900360640190fd5b6000546001600160a01b03163314610fde576040805162461bcd60e51b815260206004820152600e60248201527f4e4f545f415554484f52495a4544000000000000000000000000000000000000604482015290519081900360640190fd5b6006805473ffffffffffffffffffffffffffffffffffffffff19166001600160a01b0392909216919091179055565b7fbc197c810000000000000000000000000000000000000000000000000000000098975050505050505050565b600060035482118061105d5750836001600160a01b0316856001600160a01b0316145b8061106757508242115b156110745750600061116d565b60408051606087811b7fffffffffffffffffffffffffffffffffffffffff0000000000000000000000009081166020808501919091529188901b166034830152604882018690526068808301869052835180840390910181526088830184528051908201207f19457468657265756d205369676e6564204d6573736167653a0a33320000000060a884015260c48084018290528451808503909101815260e4909301909352815191012060009061112b9089611a55565b6001600160a01b03811660009081526004602052604090205490915042116111585760019250505061116d565b6002546001600160a01b039081169116149150505b95945050505050565b6002546001600160a01b031690565b6001600160a01b031660009081526001602052604090205460ff1690565b6000546001600160a01b03163314611202576040805162461bcd60e51b815260206004820152601060248201527f53656e646572206e6f742061646d696e00000000000000000000000000000000604482015290519081900360640190fd5b600355565b6000546001600160a01b03163314611266576040805162461bcd60e51b815260206004820152600e60248201527f4e4f545f415554484f52495a4544000000000000000000000000000000000000604482015290519081900360640190fd5b600755565b7ff23a6e61000000000000000000000000000000000000000000000000000000009695505050505050565b60075490565b6001600160a01b03821660008181526001602090815260409182902080547fffffffffffffffffffffffffffffffffffffffffffffffffffffffffffffff001685151590811790915582519384529083015280517fb21eb88b4e33b3f1281830a7178d74d8aa73220416215726b68ae23d539515cb9281900390910190a15050565b6113456103e861133960075485611b2290919063ffffffff16565b9063ffffffff611b9816565b8114610b71576040805162461bcd60e51b815260206004820152600d60248201527f494e56414c49445f505249434500000000000000000000000000000000000000604482015290519081900360640190fd5b7f0000000000000000000000000000000000000000000000000000000000000000421061140c576040805162461bcd60e51b815260206004820152600c60248201527f53414c455f49535f4f5645520000000000000000000000000000000000000000604482015290519081900360640190fd5b6001600160a01b03891633148061143257503360009081526001602052604090205460ff165b611483576040805162461bcd60e51b815260206004820152600e60248201527f4e4f545f415554484f52495a4544000000000000000000000000000000000000604482015290519081900360640190fd5b6001600160a01b03881615806114aa5750886001600160a01b0316886001600160a01b0316145b6114fb576040805162461bcd60e51b815260206004820152600d60248201527f52455345525645445f4c414e4400000000000000000000000000000000000000604482015290519081900360640190fd5b600061150c888888888d8989611bfd565b90506115188282611ca2565b611569576040805162461bcd60e51b815260206004820152600c60248201527f494e56414c49445f4c414e440000000000000000000000000000000000000000604482015290519081900360640190fd5b50505050505050505050565b60006115818484611d6b565b6006549091506115c0908590839085906001600160a01b03167f0000000000000000000000000000000000000000000000000000000000000000611eb8565b50505050565b83600114806115fc57507f00000000000000000000000000000000000000000000000000000000000000006001600160a01b0316155b156116c357604080517f6e1e3bbf0000000000000000000000000000000000000000000000000000000081526001600160a01b03898116600483015260248201879052604482018990526064820188905260a06084830152600060a4830181905292517f000000000000000000000000000000000000000000000000000000000000000090911692636e1e3bbf9260e4808201939182900301818387803b1580156116a657600080fd5b505af11580156116ba573d6000803e3d6000fd5b50505050611827565b7f00000000000000000000000000000000000000000000000000000000000000006001600160a01b0316636e1e3bbf7f00000000000000000000000000000000000000000000000000000000000000008689898c60405160200180826001600160a01b03166001600160a01b031681526020019150506040516020818303038152906040526040518663ffffffff1660e01b815260040180866001600160a01b03166001600160a01b0316815260200185815260200184815260200183815260200180602001828103825283818151815260200191508051906020019080838360005b838110156117be5781810151838201526020016117a6565b50505050905090810190601f1680156117eb5780820380516001836020036101000a031916815260200191505b509650505050505050600060405180830381600087803b15801561180e57600080fd5b505af1158015611822573d6000803e3d6000fd5b505050505b60408051858152602081018590526001600160a01b03848116828401526060820184905291516101988802890192808b1692908c16917fe4dfa6ac11314892f3029b34a25b1a887da3b1cab2bbf8506d87128ba6e3ac029181900360800190a45050505050505050565b6060815167ffffffffffffffff811180156118ab57600080fd5b506040519080825280602002602001820160405280156118d5578160200160208202803683370190505b50905060005b82518110156119055760018282815181106118f257fe5b60209081029190910101526001016118db565b507f00000000000000000000000000000000000000000000000000000000000000006001600160a01b0316632eb2c2d6308585856040518563ffffffff1660e01b815260040180856001600160a01b03166001600160a01b03168152602001846001600160a01b03166001600160a01b03168152602001806020018060200180602001848103845286818151815260200191508051906020019060200280838360005b838110156119c05781810151838201526020016119a8565b50505050905001848103835285818151815260200191508051906020019060200280838360005b838110156119ff5781810151838201526020016119e7565b50505050905001848103825260008152602001602001975050505050505050600060405180830381600087803b158015611a3857600080fd5b505af1158015611a4c573d6000803e3d6000fd5b50505050505050565b60008151604114611a6557600080fd5b60208201516040830151606084015160001a601b811015611a8457601b015b8060ff16601b1480611a9957508060ff16601c145b611aa257600080fd5b6040805160008152602080820180845289905260ff8416828401526060820186905260808201859052915160019260a0808401939192601f1981019281900390910190855afa158015611af9573d6000803e3d6000fd5b5050604051601f1901519450506001600160a01b038416611b1957600080fd5b50505092915050565b600082611b3157506000611b92565b5081810281838281611b3f57fe5b0414611b92576040805162461bcd60e51b815260206004820152600860248201527f6f766572666c6f77000000000000000000000000000000000000000000000000604482015290519081900360640190fd5b92915050565b600081611bec576040805162461bcd60e51b815260206004820152600960248201527f64697662797a65726f0000000000000000000000000000000000000000000000604482015290519081900360640190fd5b818381611bf557fe5b049392505050565b60008787878787878760405160200180888152602001878152602001868152602001858152602001846001600160a01b03166001600160a01b031660601b8152601401838152602001828051906020019060200280838360005b83811015611c6f578181015183820152602001611c57565b50505050905001975050505050505050604051602081830303815290604052805190602001209050979650505050505050565b600081815b8451811015611d41576000858281518110611cbe57fe5b6020026020010151905080831015611d065782816040516020018083815260200182815260200192505050604051602081830303815290604052805190602001209250611d38565b808360405160200180838152602001828152602001925050506040516020818303038152906040528051906020012092505b50600101611ca7565b507f0000000000000000000000000000000000000000000000000000000000000000149392505050565b600080611d84606461133985600563ffffffff611b2216565b604080516323b872dd60e01b81526001600160a01b0387811660048301527f0000000000000000000000000000000000000000000000000000000000000000811660248301526044820184905291519293507f0000000000000000000000000000000000000000000000000000000000000000909116916323b872dd916064808201926020929091908290030181600087803b158015611e2357600080fd5b505af1158015611e37573d6000803e3d6000fd5b505050506040513d6020811015611e4d57600080fd5b5051611ea0576040805162461bcd60e51b815260206004820152601360248201527f4645455f5452414e534645525f4641494c454400000000000000000000000000604482015290519081900360640190fd5b611eb0838263ffffffff61213a16565b949350505050565b82518190859015612062576060600080600080611ed48a610a04565b9398509196509450925090506000611eef868686868661103a565b15611f7d57611f09611f018d84611b22565b612710611b98565b9050886001600160a01b0316846001600160a01b0316866001600160a01b03167fac7a699eb95c3c6d390ec4626de17ef9a67b35891efdb197beba7c7fdd45fac48f858760405180848152602001838152602001828152602001935050505060405180910390a4611f7a878261213a565b96505b801561205b57604080516323b872dd60e01b81526001600160a01b038f811660048301528781166024830152604482018490529151918a16916323b872dd916064808201926020929091908290030181600087803b158015611fde57600080fd5b505af1158015611ff2573d6000803e3d6000fd5b505050506040513d602081101561200857600080fd5b505161205b576040805162461bcd60e51b815260206004820152601960248201527f636f6d6d6973696f6e207472616e73666572206661696c656400000000000000604482015290519081900360640190fd5b5050505050505b604080516323b872dd60e01b81526001600160a01b0389811660048301528681166024830152604482018490529151918416916323b872dd916064808201926020929091908290030181600087803b1580156120bd57600080fd5b505af11580156120d1573d6000803e3d6000fd5b505050506040513d60208110156120e757600080fd5b5051611a4c576040805162461bcd60e51b815260206004820152601760248201527f7061796d656e74207472616e73666572206661696c6564000000000000000000604482015290519081900360640190fd5b600082821115612191576040805162461bcd60e51b815260206004820152600860248201527f756e6465666c6f77000000000000000000000000000000000000000000000000604482015290519081900360640190fd5b5090039056fe6f6e6c792061646d696e2063616e207365747570206d6574615472616e73616374696f6e50726f636573736f7273a26469706673582212200ff38c5741c66b2a22a9a9ee2abe0f55626323082b6b4443921fd3b25484584a64736f6c63430006050033",
  "devdoc": {
    "methods": {
      "buyLandWithSand(address,address,address,uint256,uint256,uint256,uint256,uint256,bytes32,uint256[],bytes32[],bytes)": {
        "params": {
          "buyer": "address that perform the payment",
          "priceInSand": "price in SAND to purchase that Land",
          "proof": "merkleProof for that particular Land",
          "reserved": "the reserved address (if any)",
          "size": "size of the pack of Land to purchase",
          "to": "address that will own the purchased Land",
          "x": "x coordinate of the Land",
          "y": "y coordinate of the Land"
        }
      },
      "changeAdmin(address)": {
        "details": "change the administrator to be `newAdmin`.",
        "params": {
          "newAdmin": "address of the new administrator."
        }
      },
      "getAdmin()": {
        "details": "gives the current administrator of this contract.",
        "returns": {
          "_0": "the current administrator of this contract."
        }
      },
      "getSigningWallet()": {
        "details": "signing wallet authorized for referral",
        "returns": {
          "_0": "the address of the signing wallet"
        }
      },
      "isMetaTransactionProcessor(address)": {
        "details": "check whether address `who` is given meta-transaction execution rights.",
        "params": {
          "who": "The address to query."
        },
        "returns": {
          "_0": "whether the address has meta-transaction execution rights."
        }
      },
      "isReferralValid(bytes,address,address,uint256,uint256)": {
        "params": {
          "commissionRate": "The commissionRate of the referral",
          "expiryTime": "The expiry time of the referral",
          "referee": "The address of the referee",
          "referrer": "The address of the referrer",
          "signature": "The signature to check (signed referral)"
        },
        "returns": {
          "_0": "True if the referral is valid"
        }
      },
      "setMetaTransactionProcessor(address,bool)": {
        "details": "Enable or disable the ability of `metaTransactionProcessor` to perform meta-tx (metaTransactionProcessor rights).",
        "params": {
          "enabled": "set whether the metaTransactionProcessor is enabled or disabled.",
          "metaTransactionProcessor": "address that will be given/removed metaTransactionProcessor rights."
        }
      },
      "setReceivingWallet(address)": {
        "params": {
          "newWallet": "address of the new receiving wallet"
        }
      },
      "updateMaxCommissionRate(uint256)": {
        "details": "Update the maximum commission rate",
        "params": {
          "newMaxCommissionRate": "The new maximum commission rate"
        }
      },
      "updateSigningWallet(address)": {
        "details": "Update the signing wallet",
        "params": {
          "newSigningWallet": "The new address of the signing wallet"
        }
      },
      "withdrawAssets(address,uint256[],uint256[])": {
        "params": {
          "assetIds": "the assetIds to be transferred",
          "to": "intended recipient of the asset tokens",
          "values": "the quantities of the assetIds to be transferred"
        }
      }
    },
    "title": "Estate Sale contract with referral"
  },
  "userdoc": {
    "methods": {
      "buyLandWithSand(address,address,address,uint256,uint256,uint256,uint256,uint256,bytes32,uint256[],bytes32[],bytes)": {
        "notice": "buy Land with SAND using the merkle proof associated with it"
      },
      "getExpiryTime()": {
        "notice": "Gets the expiry time for the current sale"
      },
      "getMaxCommisionRate()": {
        "notice": "the max commision rate"
      },
      "getMerkleRoot()": {
        "notice": "Gets the Merkle root associated with the current sale"
      },
      "isReferralValid(bytes,address,address,uint256,uint256)": {
        "notice": "Check if a referral is valid"
      },
      "setReceivingWallet(address)": {
        "notice": "set the wallet receiving the proceeds"
      },
      "withdrawAssets(address,uint256[],uint256[])": {
        "notice": "enable Admin to withdraw remaining assets from EstateSaleWithFee contract"
      }
    },
    "notice": "This contract manages the sale of our lands as Estates"
  },
  "storageLayout": {
    "storage": [
      {
        "astId": 12779,
        "contract": "src/solc_0.6/EstateSale/EstateSaleWithFee.sol:EstateSaleWithFee",
        "label": "_admin",
        "offset": 0,
        "slot": "0",
        "type": "t_address"
      },
      {
        "astId": 12841,
        "contract": "src/solc_0.6/EstateSale/EstateSaleWithFee.sol:EstateSaleWithFee",
        "label": "_metaTransactionContracts",
        "offset": 0,
        "slot": "1",
        "type": "t_mapping(t_address,t_bool)"
      },
      {
        "astId": 10957,
        "contract": "src/solc_0.6/EstateSale/EstateSaleWithFee.sol:EstateSaleWithFee",
        "label": "_signingWallet",
        "offset": 0,
        "slot": "2",
        "type": "t_address"
      },
      {
        "astId": 10959,
        "contract": "src/solc_0.6/EstateSale/EstateSaleWithFee.sol:EstateSaleWithFee",
        "label": "_maxCommissionRate",
        "offset": 0,
        "slot": "3",
        "type": "t_uint256"
      },
      {
        "astId": 10963,
        "contract": "src/solc_0.6/EstateSale/EstateSaleWithFee.sol:EstateSaleWithFee",
        "label": "_previousSigningWallets",
        "offset": 0,
        "slot": "4",
        "type": "t_mapping(t_address,t_uint256)"
      },
      {
        "astId": 10972,
        "contract": "src/solc_0.6/EstateSale/EstateSaleWithFee.sol:EstateSaleWithFee",
        "label": "_previousSigningDelay",
        "offset": 0,
        "slot": "5",
        "type": "t_uint256"
      },
      {
        "astId": 7344,
        "contract": "src/solc_0.6/EstateSale/EstateSaleWithFee.sol:EstateSaleWithFee",
        "label": "_wallet",
        "offset": 0,
        "slot": "6",
        "type": "t_address_payable"
      },
      {
        "astId": 7354,
        "contract": "src/solc_0.6/EstateSale/EstateSaleWithFee.sol:EstateSaleWithFee",
        "label": "_multiplier",
        "offset": 0,
        "slot": "7",
        "type": "t_uint256"
      }
    ],
    "types": {
      "t_address": {
        "encoding": "inplace",
        "label": "address",
        "numberOfBytes": "20"
      },
      "t_address_payable": {
        "encoding": "inplace",
        "label": "address payable",
        "numberOfBytes": "20"
      },
      "t_bool": {
        "encoding": "inplace",
        "label": "bool",
        "numberOfBytes": "1"
      },
      "t_mapping(t_address,t_bool)": {
        "encoding": "mapping",
        "key": "t_address",
        "label": "mapping(address => bool)",
        "numberOfBytes": "32",
        "value": "t_bool"
      },
      "t_mapping(t_address,t_uint256)": {
        "encoding": "mapping",
        "key": "t_address",
        "label": "mapping(address => uint256)",
        "numberOfBytes": "32",
        "value": "t_uint256"
      },
      "t_uint256": {
        "encoding": "inplace",
        "label": "uint256",
        "numberOfBytes": "32"
      }
    }
  }
}