{
  "address": "0xb12F73075d2BAA773D0962EB38B85460467F6Ef5",
  "abi": [
    {
      "inputs": [
        {
          "internalType": "address",
          "name": "landAddress",
          "type": "address"
        },
        {
          "internalType": "address",
          "name": "sandContractAddress",
          "type": "address"
        },
        {
          "internalType": "address",
          "name": "initialMetaTx",
          "type": "address"
        },
        {
          "internalType": "address",
          "name": "admin",
          "type": "address"
        },
        {
          "internalType": "address payable",
          "name": "initialWalletAddress",
          "type": "address"
        },
        {
          "internalType": "bytes32",
          "name": "merkleRoot",
          "type": "bytes32"
        },
        {
          "internalType": "uint256",
          "name": "expiryTime",
          "type": "uint256"
        },
        {
          "internalType": "address",
          "name": "initialSigningWallet",
          "type": "address"
        },
        {
          "internalType": "uint256",
          "name": "initialMaxCommissionRate",
          "type": "uint256"
        },
        {
          "internalType": "address",
          "name": "estate",
          "type": "address"
        },
        {
          "internalType": "address",
          "name": "asset",
          "type": "address"
        },
        {
          "internalType": "address",
          "name": "feeDistributor",
          "type": "address"
        }
      ],
      "stateMutability": "nonpayable",
      "type": "constructor"
    },
    {
      "anonymous": false,
      "inputs": [
        {
          "indexed": false,
          "internalType": "address",
          "name": "oldAdmin",
          "type": "address"
        },
        {
          "indexed": false,
          "internalType": "address",
          "name": "newAdmin",
          "type": "address"
        }
      ],
      "name": "AdminChanged",
      "type": "event"
    },
    {
      "anonymous": false,
      "inputs": [
        {
          "indexed": true,
          "internalType": "address",
          "name": "buyer",
          "type": "address"
        },
        {
          "indexed": true,
          "internalType": "address",
          "name": "to",
          "type": "address"
        },
        {
          "indexed": true,
          "internalType": "uint256",
          "name": "topCornerId",
          "type": "uint256"
        },
        {
          "indexed": false,
          "internalType": "uint256",
          "name": "size",
          "type": "uint256"
        },
        {
          "indexed": false,
          "internalType": "uint256",
          "name": "price",
          "type": "uint256"
        },
        {
          "indexed": false,
          "internalType": "address",
          "name": "token",
          "type": "address"
        },
        {
          "indexed": false,
          "internalType": "uint256",
          "name": "amountPaid",
          "type": "uint256"
        }
      ],
      "name": "LandQuadPurchased",
      "type": "event"
    },
    {
      "anonymous": false,
      "inputs": [
        {
          "indexed": false,
          "internalType": "address",
          "name": "metaTransactionProcessor",
          "type": "address"
        },
        {
          "indexed": false,
          "internalType": "bool",
          "name": "enabled",
          "type": "bool"
        }
      ],
      "name": "MetaTransactionProcessor",
      "type": "event"
    },
    {
      "anonymous": false,
      "inputs": [
        {
          "indexed": true,
          "internalType": "address",
          "name": "referrer",
          "type": "address"
        },
        {
          "indexed": true,
          "internalType": "address",
          "name": "referee",
          "type": "address"
        },
        {
          "indexed": true,
          "internalType": "address",
          "name": "token",
          "type": "address"
        },
        {
          "indexed": false,
          "internalType": "uint256",
          "name": "amount",
          "type": "uint256"
        },
        {
          "indexed": false,
          "internalType": "uint256",
          "name": "commission",
          "type": "uint256"
        },
        {
          "indexed": false,
          "internalType": "uint256",
          "name": "commissionRate",
          "type": "uint256"
        }
      ],
      "name": "ReferralUsed",
      "type": "event"
    },
    {
      "inputs": [
        {
          "internalType": "address",
          "name": "buyer",
          "type": "address"
        },
        {
          "internalType": "address",
          "name": "to",
          "type": "address"
        },
        {
          "internalType": "address",
          "name": "reserved",
          "type": "address"
        },
        {
          "internalType": "uint256",
          "name": "x",
          "type": "uint256"
        },
        {
          "internalType": "uint256",
          "name": "y",
          "type": "uint256"
        },
        {
          "internalType": "uint256",
          "name": "size",
          "type": "uint256"
        },
        {
          "internalType": "uint256",
          "name": "priceInSand",
          "type": "uint256"
        },
        {
          "internalType": "uint256",
          "name": "adjustedPriceInSand",
          "type": "uint256"
        },
        {
          "internalType": "bytes32",
          "name": "salt",
          "type": "bytes32"
        },
        {
          "internalType": "uint256[]",
          "name": "assetIds",
          "type": "uint256[]"
        },
        {
          "internalType": "bytes32[]",
          "name": "proof",
          "type": "bytes32[]"
        },
        {
          "internalType": "bytes",
          "name": "referral",
          "type": "bytes"
        }
      ],
      "name": "buyLandWithSand",
      "outputs": [],
      "stateMutability": "nonpayable",
      "type": "function"
    },
    {
      "inputs": [
        {
          "internalType": "address",
          "name": "newAdmin",
          "type": "address"
        }
      ],
      "name": "changeAdmin",
      "outputs": [],
      "stateMutability": "nonpayable",
      "type": "function"
    },
    {
      "inputs": [
        {
          "internalType": "bytes",
          "name": "referral",
          "type": "bytes"
        }
      ],
      "name": "decodeReferral",
      "outputs": [
        {
          "internalType": "bytes",
          "name": "",
          "type": "bytes"
        },
        {
          "internalType": "address",
          "name": "",
          "type": "address"
        },
        {
          "internalType": "address",
          "name": "",
          "type": "address"
        },
        {
          "internalType": "uint256",
          "name": "",
          "type": "uint256"
        },
        {
          "internalType": "uint256",
          "name": "",
          "type": "uint256"
        }
      ],
      "stateMutability": "pure",
      "type": "function"
    },
    {
      "inputs": [],
      "name": "getAdmin",
      "outputs": [
        {
          "internalType": "address",
          "name": "",
          "type": "address"
        }
      ],
      "stateMutability": "view",
      "type": "function"
    },
    {
      "inputs": [],
      "name": "getExpiryTime",
      "outputs": [
        {
          "internalType": "uint256",
          "name": "",
          "type": "uint256"
        }
      ],
      "stateMutability": "view",
      "type": "function"
    },
    {
      "inputs": [],
      "name": "getMaxCommisionRate",
      "outputs": [
        {
          "internalType": "uint256",
          "name": "",
          "type": "uint256"
        }
      ],
      "stateMutability": "view",
      "type": "function"
    },
    {
      "inputs": [],
      "name": "getMerkleRoot",
      "outputs": [
        {
          "internalType": "bytes32",
          "name": "",
          "type": "bytes32"
        }
      ],
      "stateMutability": "view",
      "type": "function"
    },
    {
      "inputs": [],
      "name": "getSandMultiplier",
      "outputs": [
        {
          "internalType": "uint256",
          "name": "",
          "type": "uint256"
        }
      ],
      "stateMutability": "view",
      "type": "function"
    },
    {
      "inputs": [],
      "name": "getSigningWallet",
      "outputs": [
        {
          "internalType": "address",
          "name": "",
          "type": "address"
        }
      ],
      "stateMutability": "view",
      "type": "function"
    },
    {
      "inputs": [
        {
          "internalType": "address",
          "name": "who",
          "type": "address"
        }
      ],
      "name": "isMetaTransactionProcessor",
      "outputs": [
        {
          "internalType": "bool",
          "name": "",
          "type": "bool"
        }
      ],
      "stateMutability": "view",
      "type": "function"
    },
    {
      "inputs": [
        {
          "internalType": "bytes",
          "name": "signature",
          "type": "bytes"
        },
        {
          "internalType": "address",
          "name": "referrer",
          "type": "address"
        },
        {
          "internalType": "address",
          "name": "referee",
          "type": "address"
        },
        {
          "internalType": "uint256",
          "name": "expiryTime",
          "type": "uint256"
        },
        {
          "internalType": "uint256",
          "name": "commissionRate",
          "type": "uint256"
        }
      ],
      "name": "isReferralValid",
      "outputs": [
        {
          "internalType": "bool",
          "name": "",
          "type": "bool"
        }
      ],
      "stateMutability": "view",
      "type": "function"
    },
    {
      "inputs": [
        {
          "internalType": "address",
          "name": "",
          "type": "address"
        },
        {
          "internalType": "address",
          "name": "",
          "type": "address"
        },
        {
          "internalType": "uint256[]",
          "name": "",
          "type": "uint256[]"
        },
        {
          "internalType": "uint256[]",
          "name": "",
          "type": "uint256[]"
        },
        {
          "internalType": "bytes",
          "name": "",
          "type": "bytes"
        }
      ],
      "name": "onERC1155BatchReceived",
      "outputs": [
        {
          "internalType": "bytes4",
          "name": "",
          "type": "bytes4"
        }
      ],
      "stateMutability": "pure",
      "type": "function"
    },
    {
      "inputs": [
        {
          "internalType": "address",
          "name": "",
          "type": "address"
        },
        {
          "internalType": "address",
          "name": "",
          "type": "address"
        },
        {
          "internalType": "uint256",
          "name": "",
          "type": "uint256"
        },
        {
          "internalType": "uint256",
          "name": "",
          "type": "uint256"
        },
        {
          "internalType": "bytes",
          "name": "",
          "type": "bytes"
        }
      ],
      "name": "onERC1155Received",
      "outputs": [
        {
          "internalType": "bytes4",
          "name": "",
          "type": "bytes4"
        }
      ],
      "stateMutability": "pure",
      "type": "function"
    },
    {
      "inputs": [
        {
          "internalType": "uint256",
          "name": "newMultiplier",
          "type": "uint256"
        }
      ],
      "name": "rebalanceSand",
      "outputs": [],
      "stateMutability": "nonpayable",
      "type": "function"
    },
    {
      "inputs": [
        {
          "internalType": "address",
          "name": "metaTransactionProcessor",
          "type": "address"
        },
        {
          "internalType": "bool",
          "name": "enabled",
          "type": "bool"
        }
      ],
      "name": "setMetaTransactionProcessor",
      "outputs": [],
      "stateMutability": "nonpayable",
      "type": "function"
    },
    {
      "inputs": [
        {
          "internalType": "address payable",
          "name": "newWallet",
          "type": "address"
        }
      ],
      "name": "setReceivingWallet",
      "outputs": [],
      "stateMutability": "nonpayable",
      "type": "function"
    },
    {
      "inputs": [
        {
          "internalType": "uint256",
          "name": "newMaxCommissionRate",
          "type": "uint256"
        }
      ],
      "name": "updateMaxCommissionRate",
      "outputs": [],
      "stateMutability": "nonpayable",
      "type": "function"
    },
    {
      "inputs": [
        {
          "internalType": "address",
          "name": "newSigningWallet",
          "type": "address"
        }
      ],
      "name": "updateSigningWallet",
      "outputs": [],
      "stateMutability": "nonpayable",
      "type": "function"
    },
    {
      "inputs": [
        {
          "internalType": "address",
          "name": "to",
          "type": "address"
        },
        {
          "internalType": "uint256[]",
          "name": "assetIds",
          "type": "uint256[]"
        },
        {
          "internalType": "uint256[]",
          "name": "values",
          "type": "uint256[]"
        }
      ],
      "name": "withdrawAssets",
      "outputs": [],
      "stateMutability": "nonpayable",
      "type": "function"
    }
  ],
  "transactionHash": "0x1d488613bfc3d3cd7c84fdcc661482acf9d748bf354929a31fbb77a2bcd1ca8e",
  "args": [
    "0xaF40A483bF77AAb7b7D13dB18187E6D62C1EA41b",
    "0xCc933a862fc15379E441F2A16Cb943D385a4695f",
    "0xCc933a862fc15379E441F2A16Cb943D385a4695f",
    "0x8A0e83DE499d7543CF486974a6196a35B5F573E7",
    "0x60927eB036621b801491B6c5e9A60A8d2dEeD75A",
    "0x095157e453ef947c0008ee62ed44d3c2e6b024edfefe1c60729a8ac9729cdf12",
    1645621200,
    "0xB7060D3FeCAC3AE1F0A0AA416E3e8E472257950e",
    2000,
    "0x0000000000000000000000000000000000000000",
    "0x8055a2c0f7EB177BeaB357B70E6504402d2b5fF6",
    "0x5983532A5b9009E05428595b87F19e42068a232B"
  ],
  "linkedData": [
    {
      "x": 369,
      "y": 47,
      "size": 1,
      "price": "905000000000000000000",
      "reserved": "0xdeaddeaddeaddeaddeaddeaddeaddeaddeaddead",
      "salt": "0x77f90c54521a3d1931262b30bcd94557ae9f0bf32cc6c19464183576d999969f",
      "assetIds": []
    },
    {
      "x": 369,
      "y": 46,
      "size": 1,
      "price": "905000000000000000000",
      "reserved": "0xdeaddeaddeaddeaddeaddeaddeaddeaddeaddead",
      "salt": "0x06f58b1150acf7ffe88f837134dee475fb1938d7a8695a327fe21dfa7067925f",
      "assetIds": []
    },
    {
      "x": 369,
      "y": 45,
      "size": 1,
      "price": "905000000000000000000",
      "reserved": "0xdeaddeaddeaddeaddeaddeaddeaddeaddeaddead",
      "salt": "0x77e909fd07807b0bf852426f83dcb6ed48a1b3932bf8d8966ddb75c36d038038",
      "assetIds": []
    },
    {
      "x": 369,
      "y": 44,
      "size": 1,
      "price": "905000000000000000000",
      "reserved": "0xdeaddeaddeaddeaddeaddeaddeaddeaddeaddead",
      "salt": "0xc96a32008474f7d1adab3ea32dc1e9822aae5111d60ca02b6f968c38c8ec2b37",
      "assetIds": []
    },
    {
      "x": 369,
      "y": 43,
      "size": 1,
      "price": "905000000000000000000",
      "reserved": "0xdeaddeaddeaddeaddeaddeaddeaddeaddeaddead",
      "salt": "0xc4c929a26a7ed941120e617a06e2471bbf03e9e2e63c75d44ba4005701aa25ee",
      "assetIds": []
    },
    {
      "x": 369,
      "y": 42,
      "size": 1,
      "price": "905000000000000000000",
      "reserved": "0xdeaddeaddeaddeaddeaddeaddeaddeaddeaddead",
      "salt": "0x21adcdb4a27416e7c855c12069af5ed5a645a6c16d11338c86bec22bea1694b3",
      "assetIds": []
    },
    {
      "x": 370,
      "y": 42,
      "size": 1,
      "price": "905000000000000000000",
      "reserved": "0xdeaddeaddeaddeaddeaddeaddeaddeaddeaddead",
      "salt": "0x239d2402d6717202e2f663772892fd510640825ec179a7e560b70358f496663a",
      "assetIds": []
    },
    {
      "x": 371,
      "y": 42,
      "size": 1,
      "price": "905000000000000000000",
      "reserved": "0xdeaddeaddeaddeaddeaddeaddeaddeaddeaddead",
      "salt": "0xc49087325c630d3041a242e5dd2c465b9f13540e8c8523e83b7124c7ef85d083",
      "assetIds": []
    },
    {
      "x": 371,
      "y": 43,
      "size": 1,
      "price": "905000000000000000000",
      "reserved": "0xdeaddeaddeaddeaddeaddeaddeaddeaddeaddead",
      "salt": "0xadf4ffdf272056e9d8898ffb7ee50acb02e204b6cab5cfcf1fd63293e0828d54",
      "assetIds": []
    },
    {
      "x": 371,
      "y": 44,
      "size": 1,
      "price": "905000000000000000000",
      "reserved": "0xdeaddeaddeaddeaddeaddeaddeaddeaddeaddead",
      "salt": "0x3ae5bb225167b1f2594b53b0d5f88a3e4f0ab0633a1cf1ef3c1e1e935c988684",
      "assetIds": []
    },
    {
      "x": 371,
      "y": 45,
      "size": 1,
      "price": "905000000000000000000",
      "reserved": "0xdeaddeaddeaddeaddeaddeaddeaddeaddeaddead",
      "salt": "0x1532c6a68b4ea82333706206deacd11cf3ac24ec7685d552e74eedf712b7729f",
      "assetIds": []
    },
    {
      "x": 370,
      "y": 45,
      "size": 1,
      "price": "905000000000000000000",
      "reserved": "0xdeaddeaddeaddeaddeaddeaddeaddeaddeaddead",
      "salt": "0x6d5c6719d656522e64db0b0fd9432135becc45eaebe843b26feab80634a5db00",
      "assetIds": []
    },
    {
      "x": 370,
      "y": 44,
      "size": 1,
      "price": "905000000000000000000",
      "reserved": "0xdeaddeaddeaddeaddeaddeaddeaddeaddeaddead",
      "salt": "0xd57de73ac2bd9d711c4f6475ed62a95ff3639c7b958592582c89e7a03f119f72",
      "assetIds": []
    },
    {
      "x": 370,
      "y": 43,
      "size": 1,
      "price": "905000000000000000000",
      "reserved": "0xdeaddeaddeaddeaddeaddeaddeaddeaddeaddead",
      "salt": "0x6957b06dd420a3bf3b92f8cec695a1daac09db2a96e796a5d6006d1424ba13ff",
      "assetIds": []
    },
    {
      "x": 370,
      "y": 46,
      "size": 1,
      "price": "905000000000000000000",
      "reserved": "0xdeaddeaddeaddeaddeaddeaddeaddeaddeaddead",
      "salt": "0xfae2330e18582f427eb354f0f7e379f8d9e56754067116713464d2400e781dc2",
      "assetIds": []
    },
    {
      "x": 375,
      "y": 35,
      "size": 1,
      "price": "905000000000000000000",
      "reserved": "0xdeaddeaddeaddeaddeaddeaddeaddeaddeaddead",
      "salt": "0xbaf67559754bcacbcb2946f8c6f854b3717604e1d546e9cbe43955bcd3f9e6e3",
      "assetIds": []
    },
    {
      "x": 375,
      "y": 34,
      "size": 1,
      "price": "905000000000000000000",
      "reserved": "0xdeaddeaddeaddeaddeaddeaddeaddeaddeaddead",
      "salt": "0x110c072fb47cc47a35196abcff5f17c95089f5880ebcea35e06b79b2936661ba",
      "assetIds": []
    },
    {
      "x": 375,
      "y": 33,
      "size": 1,
      "price": "905000000000000000000",
      "reserved": "0xdeaddeaddeaddeaddeaddeaddeaddeaddeaddead",
      "salt": "0x2cd3686c0b08f8e64de7a0860092e84afc964e5c34c0e2b3ec36b51cf95ea2a6",
      "assetIds": []
    },
    {
      "x": 375,
      "y": 32,
      "size": 1,
      "price": "905000000000000000000",
      "reserved": "0xdeaddeaddeaddeaddeaddeaddeaddeaddeaddead",
      "salt": "0x6b2a371f7b5c7c3e48ca690d4c0502ba6b352b60d221da0eb77f78d374cb1c71",
      "assetIds": []
    },
    {
      "x": 375,
      "y": 31,
      "size": 1,
      "price": "905000000000000000000",
      "reserved": "0xdeaddeaddeaddeaddeaddeaddeaddeaddeaddead",
      "salt": "0xf0c8c86be24dfe5297d0bc79dbea9be25f2b2855ad74509d495ab556e40b9ab1",
      "assetIds": []
    },
    {
      "x": 375,
      "y": 30,
      "size": 1,
      "price": "905000000000000000000",
      "reserved": "0xdeaddeaddeaddeaddeaddeaddeaddeaddeaddead",
      "salt": "0x4c6f37bdf7b329544c2f797af881e6c061ea206144490e16140f67526df0dd9c",
      "assetIds": []
    },
    {
      "x": 375,
      "y": 29,
      "size": 1,
      "price": "905000000000000000000",
      "reserved": "0xdeaddeaddeaddeaddeaddeaddeaddeaddeaddead",
      "salt": "0xcd74a11d520325fe3e54684553c2ffd6b0279b669335be6903afdd1aba1c4c90",
      "assetIds": []
    },
    {
      "x": 375,
      "y": 28,
      "size": 1,
      "price": "905000000000000000000",
      "reserved": "0xdeaddeaddeaddeaddeaddeaddeaddeaddeaddead",
      "salt": "0x329463395f023aba550c10435cbbec4ca4ae378e60009380833197282f293c0b",
      "assetIds": []
    },
    {
      "x": 375,
      "y": 27,
      "size": 1,
      "price": "905000000000000000000",
      "reserved": "0xdeaddeaddeaddeaddeaddeaddeaddeaddeaddead",
      "salt": "0xb8824a973c15fec00f831b4f089c1b943ad20dbd085eef949cf27f8e2643b840",
      "assetIds": []
    },
    {
      "x": 375,
      "y": 26,
      "size": 1,
      "price": "905000000000000000000",
      "reserved": "0xdeaddeaddeaddeaddeaddeaddeaddeaddeaddead",
      "salt": "0x2aafc62de3d3cc0e0bfd158515cec6e1524468e9c0a9a6ba88f62bb6a7f3ed00",
      "assetIds": []
    },
    {
      "x": 375,
      "y": 25,
      "size": 1,
      "price": "905000000000000000000",
      "reserved": "0xdeaddeaddeaddeaddeaddeaddeaddeaddeaddead",
      "salt": "0xa4f33aad2685a6bcd67bff654072d9bd0be0cfc10b2a649a9ed0e52808930f9c",
      "assetIds": []
    },
    {
      "x": 376,
      "y": 26,
      "size": 1,
      "price": "905000000000000000000",
      "reserved": "0xdeaddeaddeaddeaddeaddeaddeaddeaddeaddead",
      "salt": "0x7fac127ef2a144b6f843ee151828ec71f0782b0987061a0ff69f454a1e4a2c61",
      "assetIds": []
    },
    {
      "x": 377,
      "y": 26,
      "size": 1,
      "price": "905000000000000000000",
      "reserved": "0xdeaddeaddeaddeaddeaddeaddeaddeaddeaddead",
      "salt": "0x4aaa97bec732a5c33a110ee151ff688de34ff4342fe254fd7561437260f916f4",
      "assetIds": []
    },
    {
      "x": 377,
      "y": 27,
      "size": 1,
      "price": "905000000000000000000",
      "reserved": "0xdeaddeaddeaddeaddeaddeaddeaddeaddeaddead",
      "salt": "0xf43aa0344e0b2d04b0cd53b4fff5db5fe02f13c596ff6a219819fcc51dd36b23",
      "assetIds": []
    },
    {
      "x": 377,
      "y": 28,
      "size": 1,
      "price": "905000000000000000000",
      "reserved": "0xdeaddeaddeaddeaddeaddeaddeaddeaddeaddead",
      "salt": "0xa223316a980cf679075fdb9e21de603277442a275ed56df7619035f8aae49792",
      "assetIds": []
    },
    {
      "x": 377,
      "y": 29,
      "size": 1,
      "price": "905000000000000000000",
      "reserved": "0xdeaddeaddeaddeaddeaddeaddeaddeaddeaddead",
      "salt": "0x9a710c09b11a2fcfec7b44197c7833708d7a10275e0c7317e6137e9be89ef7c6",
      "assetIds": []
    },
    {
      "x": 377,
      "y": 30,
      "size": 1,
      "price": "905000000000000000000",
      "reserved": "0xdeaddeaddeaddeaddeaddeaddeaddeaddeaddead",
      "salt": "0x4738956d7d32d1979ca0ebbcf8fefa2432b7e52f8ee827cf065b5b2d4e666b0e",
      "assetIds": []
    },
    {
      "x": 377,
      "y": 31,
      "size": 1,
      "price": "905000000000000000000",
      "reserved": "0xdeaddeaddeaddeaddeaddeaddeaddeaddeaddead",
      "salt": "0x1bd8bdef44b31bf04a7b31b9ffe5d4f1460556b7e2e063499186cd6abc311dc1",
      "assetIds": []
    },
    {
      "x": 377,
      "y": 32,
      "size": 1,
      "price": "905000000000000000000",
      "reserved": "0xdeaddeaddeaddeaddeaddeaddeaddeaddeaddead",
      "salt": "0x05f7acb5be5196b060ac42f3c0e4a2b8c540060c6209a0da79c55f162dba4acc",
      "assetIds": []
    },
    {
      "x": 377,
      "y": 33,
      "size": 1,
      "price": "905000000000000000000",
      "reserved": "0xdeaddeaddeaddeaddeaddeaddeaddeaddeaddead",
      "salt": "0xe1ce05edb6a043ecc7b9a07efc1712da748b3d4d8164a98166d9dca983bb78d4",
      "assetIds": []
    },
    {
      "x": 377,
      "y": 34,
      "size": 1,
      "price": "905000000000000000000",
      "reserved": "0xdeaddeaddeaddeaddeaddeaddeaddeaddeaddead",
      "salt": "0xb115a3740f5928d65ca1fea338fd1fa2829f2136f4ffd162208cc63b35e8b94b",
      "assetIds": []
    },
    {
      "x": 377,
      "y": 35,
      "size": 1,
      "price": "905000000000000000000",
      "reserved": "0xdeaddeaddeaddeaddeaddeaddeaddeaddeaddead",
      "salt": "0xf91d7a7a43897239497bdba72f05e72931cb999e817a234a7c46b91ff125976e",
      "assetIds": []
    },
    {
      "x": 376,
      "y": 35,
      "size": 1,
      "price": "905000000000000000000",
      "reserved": "0xdeaddeaddeaddeaddeaddeaddeaddeaddeaddead",
      "salt": "0x72fa5bfc30cc0467939a42443aee45793f4fe04c4b004788b0344dc99a5e74f6",
      "assetIds": []
    },
    {
      "x": 376,
      "y": 34,
      "size": 1,
      "price": "905000000000000000000",
      "reserved": "0xdeaddeaddeaddeaddeaddeaddeaddeaddeaddead",
      "salt": "0xd0e180681e8ab905a768d4d2b36cb848ce29a478a42e07a8903e6e33aa221216",
      "assetIds": []
    },
    {
      "x": 376,
      "y": 33,
      "size": 1,
      "price": "905000000000000000000",
      "reserved": "0xdeaddeaddeaddeaddeaddeaddeaddeaddeaddead",
      "salt": "0x894f925349c4c8963d5e4ee87ddc6f00930573d60f20b100782da95c653d1336",
      "assetIds": []
    },
    {
      "x": 376,
      "y": 32,
      "size": 1,
      "price": "905000000000000000000",
      "reserved": "0xdeaddeaddeaddeaddeaddeaddeaddeaddeaddead",
      "salt": "0x4a9dc619ec3a3819386f367b2358591462f889d69ead6cf1c0f0b540b4c2b6df",
      "assetIds": []
    },
    {
      "x": 376,
      "y": 31,
      "size": 1,
      "price": "905000000000000000000",
      "reserved": "0xdeaddeaddeaddeaddeaddeaddeaddeaddeaddead",
      "salt": "0x329adf59fdc82324c75a935c252ce073fab4a7b6b02b35e681fb92137423ed9a",
      "assetIds": []
    },
    {
      "x": 376,
      "y": 30,
      "size": 1,
      "price": "905000000000000000000",
      "reserved": "0xdeaddeaddeaddeaddeaddeaddeaddeaddeaddead",
      "salt": "0x7a04d4ea0d9f568ad68420a71e523d4cd43821411b98cc612aa98e46a26227b9",
      "assetIds": []
    },
    {
      "x": 376,
      "y": 29,
      "size": 1,
      "price": "905000000000000000000",
      "reserved": "0xdeaddeaddeaddeaddeaddeaddeaddeaddeaddead",
      "salt": "0x4803d5f249b6d6045506d5cb4af032142793eea682dd668ff82273fe78ff7f94",
      "assetIds": []
    },
    {
      "x": 376,
      "y": 28,
      "size": 1,
      "price": "905000000000000000000",
      "reserved": "0xdeaddeaddeaddeaddeaddeaddeaddeaddeaddead",
      "salt": "0xc28a8cba2a1d2cc53a085428bf9a9af7b68f13af254b686fb830b5b1ff967e61",
      "assetIds": []
    },
    {
      "x": 376,
      "y": 27,
      "size": 1,
      "price": "905000000000000000000",
      "reserved": "0xdeaddeaddeaddeaddeaddeaddeaddeaddeaddead",
      "salt": "0x31b31be5f100d55875144ec0014cd0b2bdb8fb471e9a19b3831c4ae6636801c5",
      "assetIds": []
    },
    {
      "x": 374,
      "y": 27,
      "size": 1,
      "price": "905000000000000000000",
      "reserved": "0xdeaddeaddeaddeaddeaddeaddeaddeaddeaddead",
      "salt": "0x4c49248539e2d2703bd1f56f115219b4f14190298637cbdbf7111c81c00c87d6",
      "assetIds": []
    },
    {
      "x": 373,
      "y": 27,
      "size": 1,
      "price": "905000000000000000000",
      "reserved": "0xdeaddeaddeaddeaddeaddeaddeaddeaddeaddead",
      "salt": "0xdddf3f7d7cb29a2c1ca57b1d16945a7b8840d74f91377a1fc7056111aa3bbcf8",
      "assetIds": []
    },
    {
      "x": 372,
      "y": 27,
      "size": 1,
      "price": "905000000000000000000",
      "reserved": "0xdeaddeaddeaddeaddeaddeaddeaddeaddeaddead",
      "salt": "0xab164a49803639726ed59574a9d016e558cd4ae8a00b6a0c118f24b114eec22f",
      "assetIds": []
    },
    {
      "x": 372,
      "y": 28,
      "size": 1,
      "price": "905000000000000000000",
      "reserved": "0xdeaddeaddeaddeaddeaddeaddeaddeaddeaddead",
      "salt": "0x423d99cbd86c9dd7ba9ab84038656b04d2755f0a72bd9eb1f7c69ad4271b02e5",
      "assetIds": []
    },
    {
      "x": 372,
      "y": 29,
      "size": 1,
      "price": "905000000000000000000",
      "reserved": "0xdeaddeaddeaddeaddeaddeaddeaddeaddeaddead",
      "salt": "0xb8c06e55832cc8165d8bef2300b014c3571683b1116a93edb9b4b55e3138c30a",
      "assetIds": []
    },
    {
      "x": 373,
      "y": 29,
      "size": 1,
      "price": "905000000000000000000",
      "reserved": "0xdeaddeaddeaddeaddeaddeaddeaddeaddeaddead",
      "salt": "0x20c14d0bf1221fc9def5ffb217fdac598239995afb1710f3bbc723f798b7b782",
      "assetIds": []
    },
    {
      "x": 374,
      "y": 29,
      "size": 1,
      "price": "905000000000000000000",
      "reserved": "0xdeaddeaddeaddeaddeaddeaddeaddeaddeaddead",
      "salt": "0x182cebc6be0f1685a1c4b739b21e67695c542a0e2f76080008dc1fc54461ff7d",
      "assetIds": []
    },
    {
      "x": 374,
      "y": 28,
      "size": 1,
      "price": "905000000000000000000",
      "reserved": "0xdeaddeaddeaddeaddeaddeaddeaddeaddeaddead",
      "salt": "0xa0d4b519d3aed17b7ea9d513a4d957ae1437d1b80326b02e1311613a613adb88",
      "assetIds": []
    },
    {
      "x": 373,
      "y": 28,
      "size": 1,
      "price": "905000000000000000000",
      "reserved": "0xdeaddeaddeaddeaddeaddeaddeaddeaddeaddead",
      "salt": "0x0a2f3a06b9701953de5ee3ee45c0cfe411a01a9428e28456a78869050c82e91a",
      "assetIds": []
    },
    {
      "x": 373,
      "y": 26,
      "size": 1,
      "price": "905000000000000000000",
      "reserved": "0xdeaddeaddeaddeaddeaddeaddeaddeaddeaddead",
      "salt": "0x48c26be3f1b1167afe457296b3fb1726c811ba679739a415643bc72d0ee1428d",
      "assetIds": []
    },
    {
      "x": 372,
      "y": 26,
      "size": 1,
      "price": "905000000000000000000",
      "reserved": "0xdeaddeaddeaddeaddeaddeaddeaddeaddeaddead",
      "salt": "0xd5bdf63903303110260bee245213d02258e02d173a0770e7c00e2818d7c7918e",
      "assetIds": []
    },
    {
      "x": 372,
      "y": 25,
      "size": 1,
      "price": "905000000000000000000",
      "reserved": "0xdeaddeaddeaddeaddeaddeaddeaddeaddeaddead",
      "salt": "0x751e681ec645d330673280260af0f53efddd0b115466019ded1fa74cb31c19f8",
      "assetIds": []
    },
    {
      "x": 372,
      "y": 24,
      "size": 1,
      "price": "905000000000000000000",
      "reserved": "0xdeaddeaddeaddeaddeaddeaddeaddeaddeaddead",
      "salt": "0xdabf4df1a9e19a5a1ac52ba32e5275cda8711a4ad2cc15a17b5fcf9c22d445a2",
      "assetIds": []
    },
    {
      "x": 372,
      "y": 23,
      "size": 1,
      "price": "905000000000000000000",
      "reserved": "0xdeaddeaddeaddeaddeaddeaddeaddeaddeaddead",
      "salt": "0xefeb2d51ca2b390706ed1ea5ae5796e91be887986e6a9fa5b919060dcf17aa1e",
      "assetIds": []
    },
    {
      "x": 372,
      "y": 22,
      "size": 1,
      "price": "905000000000000000000",
      "reserved": "0xdeaddeaddeaddeaddeaddeaddeaddeaddeaddead",
      "salt": "0x90a3db776067b2165e82860706d120e1517a49adbf586918fc655e5a58526f31",
      "assetIds": []
    },
    {
      "x": 372,
      "y": 21,
      "size": 1,
      "price": "905000000000000000000",
      "reserved": "0xdeaddeaddeaddeaddeaddeaddeaddeaddeaddead",
      "salt": "0xa5d8ee219658d549eba6bd87667613425c85c1ee6d68bfbc4a6e2c37b056a312",
      "assetIds": []
    },
    {
      "x": 373,
      "y": 21,
      "size": 1,
      "price": "905000000000000000000",
      "reserved": "0xdeaddeaddeaddeaddeaddeaddeaddeaddeaddead",
      "salt": "0x61e765dcfde7136036d5a580553c8ca005c2b6eb8d62dc6e84a124f35f807b79",
      "assetIds": []
    },
    {
      "x": 374,
      "y": 21,
      "size": 1,
      "price": "905000000000000000000",
      "reserved": "0xdeaddeaddeaddeaddeaddeaddeaddeaddeaddead",
      "salt": "0x91643c45b1acbb74316bcc63d00dbba786a799d3c5ec2aae292bdcd357f5059d",
      "assetIds": []
    },
    {
      "x": 374,
      "y": 22,
      "size": 1,
      "price": "905000000000000000000",
      "reserved": "0xdeaddeaddeaddeaddeaddeaddeaddeaddeaddead",
      "salt": "0xe78673d33ecd875a9af79567a5f4a86989b2b00272626eb6e2c9d85ae0bb6e8c",
      "assetIds": []
    },
    {
      "x": 373,
      "y": 22,
      "size": 1,
      "price": "905000000000000000000",
      "reserved": "0xdeaddeaddeaddeaddeaddeaddeaddeaddeaddead",
      "salt": "0xad258eeec3f7c3778d76807b78218f561f116953352e9726f9579a7051044df2",
      "assetIds": []
    },
    {
      "x": 373,
      "y": 23,
      "size": 1,
      "price": "905000000000000000000",
      "reserved": "0xdeaddeaddeaddeaddeaddeaddeaddeaddeaddead",
      "salt": "0x9a4aec0e94ac2ecebada0b414f8cd0360cab664f75b5227e9c7d4ab7b3d93dee",
      "assetIds": []
    },
    {
      "x": 373,
      "y": 24,
      "size": 1,
      "price": "905000000000000000000",
      "reserved": "0xdeaddeaddeaddeaddeaddeaddeaddeaddeaddead",
      "salt": "0x37ebdc3af3d5db15228f8c477a63fc72ce639a311094b89de2cfd5ec4c4f4125",
      "assetIds": []
    },
    {
      "x": 373,
      "y": 25,
      "size": 1,
      "price": "905000000000000000000",
      "reserved": "0xdeaddeaddeaddeaddeaddeaddeaddeaddeaddead",
      "salt": "0xdd6f33a58f915ed65e42638afbf190f31288af90f12c79401169326a9fdc3c5a",
      "assetIds": []
    },
    {
      "x": 374,
      "y": 26,
      "size": 1,
      "price": "905000000000000000000",
      "reserved": "0xdeaddeaddeaddeaddeaddeaddeaddeaddeaddead",
      "salt": "0x1978f3543b123d55d7be5cc2d0c27fb4a71b2407b6ae6b0e52b23aa80f994bae",
      "assetIds": []
    },
    {
      "x": 374,
      "y": 25,
      "size": 1,
      "price": "905000000000000000000",
      "reserved": "0xdeaddeaddeaddeaddeaddeaddeaddeaddeaddead",
      "salt": "0x1f7efecd01d84fc6815e546c37163f5f7618dd517db07fdc47a48bacf6edd279",
      "assetIds": []
    },
    {
      "x": 374,
      "y": 24,
      "size": 1,
      "price": "905000000000000000000",
      "reserved": "0xdeaddeaddeaddeaddeaddeaddeaddeaddeaddead",
      "salt": "0x214e88f99ba5fa8765b7954f1085bd2e0bd6cc514a2b012b53287ae193a4ab58",
      "assetIds": []
    },
    {
      "x": 374,
      "y": 23,
      "size": 1,
      "price": "905000000000000000000",
      "reserved": "0xdeaddeaddeaddeaddeaddeaddeaddeaddeaddead",
      "salt": "0xe94ebaac68c583de4aa1326c7f34b2678abecfd97bc0c70f2d35683823ba555b",
      "assetIds": []
    },
    {
      "x": 362,
      "y": 21,
      "size": 1,
      "price": "905000000000000000000",
      "reserved": "0xdeaddeaddeaddeaddeaddeaddeaddeaddeaddead",
      "salt": "0x6c8c735bcc24f545175a1208aef6f21a5ad0ba44b1a2dea134c8c1f39eb00993",
      "assetIds": []
    },
    {
      "x": 362,
      "y": 22,
      "size": 1,
      "price": "905000000000000000000",
      "reserved": "0xdeaddeaddeaddeaddeaddeaddeaddeaddeaddead",
      "salt": "0x95cfedbb72f8b70ba3c3f0d5ef2a3a4b4e7599e18cf1ed3d483a76f03464010d",
      "assetIds": []
    },
    {
      "x": 362,
      "y": 23,
      "size": 1,
      "price": "905000000000000000000",
      "reserved": "0xdeaddeaddeaddeaddeaddeaddeaddeaddeaddead",
      "salt": "0xe8a6c15b55bf60f7a78db1b90dce183631167c2e3b22ef31240851d08ae93ecd",
      "assetIds": []
    },
    {
      "x": 360,
      "y": 23,
      "size": 1,
      "price": "905000000000000000000",
      "reserved": "0xdeaddeaddeaddeaddeaddeaddeaddeaddeaddead",
      "salt": "0x047fd898d5256309b96d204781062c49b73e5d5f5b422f03b3995544755d7739",
      "assetIds": []
    },
    {
      "x": 361,
      "y": 23,
      "size": 1,
      "price": "905000000000000000000",
      "reserved": "0xdeaddeaddeaddeaddeaddeaddeaddeaddeaddead",
      "salt": "0xbdb3b762c0fa160277a89d61c3eb27c590e2f389d7f1df0953cb2b7f7933d0fc",
      "assetIds": []
    },
    {
      "x": 361,
      "y": 22,
      "size": 1,
      "price": "905000000000000000000",
      "reserved": "0xdeaddeaddeaddeaddeaddeaddeaddeaddeaddead",
      "salt": "0x29beaa756182f663ccc02d13c9e0fa4eb87d170edce929a0c97961b2e15e5021",
      "assetIds": []
    },
    {
      "x": 361,
      "y": 21,
      "size": 1,
      "price": "905000000000000000000",
      "reserved": "0xdeaddeaddeaddeaddeaddeaddeaddeaddeaddead",
      "salt": "0x8de54c5aeee766c604d1a36972f3454c9d4694ee015e746cefd65c1cb56e3058",
      "assetIds": []
    },
    {
      "x": 360,
      "y": 21,
      "size": 1,
      "price": "905000000000000000000",
      "reserved": "0xdeaddeaddeaddeaddeaddeaddeaddeaddeaddead",
      "salt": "0x90c786a83d6ad8884fc25ce4e40a323808255282def799baeb1b73160caa4154",
      "assetIds": []
    },
    {
      "x": 360,
      "y": 22,
      "size": 1,
      "price": "905000000000000000000",
      "reserved": "0xdeaddeaddeaddeaddeaddeaddeaddeaddeaddead",
      "salt": "0x9b53fca48a57315b96fd369d73966547bb1de3b31ecc1376eb725eb01d182ec9",
      "assetIds": []
    },
    {
      "x": 368,
      "y": 17,
      "size": 1,
      "price": "905000000000000000000",
      "reserved": "0xdeaddeaddeaddeaddeaddeaddeaddeaddeaddead",
      "salt": "0x4bf52c81ad8f5f0f713e46a1306880b71edd694f159ed79d2e4903f25e53be24",
      "assetIds": []
    },
    {
      "x": 367,
      "y": 17,
      "size": 1,
      "price": "905000000000000000000",
      "reserved": "0xdeaddeaddeaddeaddeaddeaddeaddeaddeaddead",
      "salt": "0x87ab8e320a80ddca89a98a4996d139e3ded10bfe8a1867f5eaeca284bd8522a0",
      "assetIds": []
    },
    {
      "x": 367,
      "y": 16,
      "size": 1,
      "price": "905000000000000000000",
      "reserved": "0xdeaddeaddeaddeaddeaddeaddeaddeaddeaddead",
      "salt": "0x0c1d0835c29e2d148d91c576b9a0cf86b7d05c0f5e789cb01c155cac0d0ed134",
      "assetIds": []
    },
    {
      "x": 367,
      "y": 15,
      "size": 1,
      "price": "905000000000000000000",
      "reserved": "0xdeaddeaddeaddeaddeaddeaddeaddeaddeaddead",
      "salt": "0xb900d40cbc6070272db7f64b9e2496ea4af81c03efadd1c5efa8b6f70bf65eef",
      "assetIds": []
    },
    {
      "x": 367,
      "y": 14,
      "size": 1,
      "price": "905000000000000000000",
      "reserved": "0xdeaddeaddeaddeaddeaddeaddeaddeaddeaddead",
      "salt": "0xfd72ab00f3401ae213da6f94a81156fd8ae41b809aea2adee69a4a07a92649f7",
      "assetIds": []
    },
    {
      "x": 367,
      "y": 13,
      "size": 1,
      "price": "905000000000000000000",
      "reserved": "0xdeaddeaddeaddeaddeaddeaddeaddeaddeaddead",
      "salt": "0x5328d8c5c2e41d3681abbada2b99ebdfb7d0413657d122b6b6130849af15e5fe",
      "assetIds": []
    },
    {
      "x": 367,
      "y": 12,
      "size": 1,
      "price": "905000000000000000000",
      "reserved": "0xdeaddeaddeaddeaddeaddeaddeaddeaddeaddead",
      "salt": "0x8e609ed86db5b18a8c252e99e493a1dc98da2daef90ad068df3963c8c50c3e49",
      "assetIds": []
    },
    {
      "x": 368,
      "y": 12,
      "size": 1,
      "price": "905000000000000000000",
      "reserved": "0xdeaddeaddeaddeaddeaddeaddeaddeaddeaddead",
      "salt": "0x8e9c77e50b8c701d6dfcf83127f04086f094d0b211afc8ece9f18773fc035798",
      "assetIds": []
    },
    {
      "x": 368,
      "y": 13,
      "size": 1,
      "price": "905000000000000000000",
      "reserved": "0xdeaddeaddeaddeaddeaddeaddeaddeaddeaddead",
      "salt": "0xce341da2a8c1edb85593ada1ab7066b4d1be4ac658692d302775d85bccf79b71",
      "assetIds": []
    },
    {
      "x": 368,
      "y": 14,
      "size": 1,
      "price": "905000000000000000000",
      "reserved": "0xdeaddeaddeaddeaddeaddeaddeaddeaddeaddead",
      "salt": "0x612f41ffc99353adb64e0d5f45745914d877fbd72267d297c10608ebdde8dc55",
      "assetIds": []
    },
    {
      "x": 368,
      "y": 15,
      "size": 1,
      "price": "905000000000000000000",
      "reserved": "0xdeaddeaddeaddeaddeaddeaddeaddeaddeaddead",
      "salt": "0x25d4afda00124f70e40abf646ec3943152fbe73db71accd5efd87cec7799821c",
      "assetIds": []
    },
    {
      "x": 368,
      "y": 16,
      "size": 1,
      "price": "905000000000000000000",
      "reserved": "0xdeaddeaddeaddeaddeaddeaddeaddeaddeaddead",
      "salt": "0x62f538a0fdf89e75ad8f8937917933b9013cf78b590c917761f6dfbefa059a7c",
      "assetIds": []
    },
    {
      "x": 366,
      "y": 17,
      "size": 1,
      "price": "905000000000000000000",
      "reserved": "0xdeaddeaddeaddeaddeaddeaddeaddeaddeaddead",
      "salt": "0xc1dffc93fbe278d0cc2bc3606675b100abfc13e76b4ed4b175e62db5f3b3c776",
      "assetIds": []
    },
    {
      "x": 366,
      "y": 16,
      "size": 1,
      "price": "905000000000000000000",
      "reserved": "0xdeaddeaddeaddeaddeaddeaddeaddeaddeaddead",
      "salt": "0x62fdf91fe5984bb40987de6c3cef9f839232b80dfe018f07708f6938dac21a62",
      "assetIds": []
    },
    {
      "x": 366,
      "y": 15,
      "size": 1,
      "price": "905000000000000000000",
      "reserved": "0xdeaddeaddeaddeaddeaddeaddeaddeaddeaddead",
      "salt": "0x049b1e1e26ef657560619e017352a3aa5113f4ee651816ab938961ff9010c83d",
      "assetIds": []
    },
    {
      "x": 366,
      "y": 14,
      "size": 1,
      "price": "905000000000000000000",
      "reserved": "0xdeaddeaddeaddeaddeaddeaddeaddeaddeaddead",
      "salt": "0xd14437a685a7835f5e1e11b0872ca0fe9878be103070bdfab459358ac863a41e",
      "assetIds": []
    },
    {
      "x": 366,
      "y": 13,
      "size": 1,
      "price": "905000000000000000000",
      "reserved": "0xdeaddeaddeaddeaddeaddeaddeaddeaddeaddead",
      "salt": "0xf6038d98cd96954088e5ccd3261770561961fae8263774e555d6927f36cb594e",
      "assetIds": []
    },
    {
      "x": 366,
      "y": 12,
      "size": 1,
      "price": "905000000000000000000",
      "reserved": "0xdeaddeaddeaddeaddeaddeaddeaddeaddeaddead",
      "salt": "0x7ea55f78211f41060486444df7a7876133890e480e66b50d88e479bb308be6e9",
      "assetIds": []
    },
    {
      "x": 351,
      "y": 24,
      "size": 1,
      "price": "905000000000000000000",
      "reserved": "0xdeaddeaddeaddeaddeaddeaddeaddeaddeaddead",
      "salt": "0x59ed58106de90aee6ed5e8088539c978e4c5a7919da5787840b96bc168338bda",
      "assetIds": []
    },
    {
      "x": 352,
      "y": 24,
      "size": 1,
      "price": "905000000000000000000",
      "reserved": "0xdeaddeaddeaddeaddeaddeaddeaddeaddeaddead",
      "salt": "0x2eccc3108c18b99b9c6a6c3cd9d0660d9af408134510c1d26c50bd00c91e837b",
      "assetIds": []
    },
    {
      "x": 353,
      "y": 24,
      "size": 1,
      "price": "905000000000000000000",
      "reserved": "0xdeaddeaddeaddeaddeaddeaddeaddeaddeaddead",
      "salt": "0x40adf0b0a394544b08b42323c1e0a7c4b671075d5bce8c73e2efe2c715405b98",
      "assetIds": []
    },
    {
      "x": 353,
      "y": 25,
      "size": 1,
      "price": "905000000000000000000",
      "reserved": "0xdeaddeaddeaddeaddeaddeaddeaddeaddeaddead",
      "salt": "0x7c014fb990a48aedf2d9a3913768930c823a34b9b713f5a4aec1792d6a4c0b7e",
      "assetIds": []
    },
    {
      "x": 353,
      "y": 26,
      "size": 1,
      "price": "905000000000000000000",
      "reserved": "0xdeaddeaddeaddeaddeaddeaddeaddeaddeaddead",
      "salt": "0x59d3d216a52a396fb0a07ed7a7b0fed53d96ca0d7f1f8385a19eb85dcc2ba17a",
      "assetIds": []
    },
    {
      "x": 352,
      "y": 26,
      "size": 1,
      "price": "905000000000000000000",
      "reserved": "0xdeaddeaddeaddeaddeaddeaddeaddeaddeaddead",
      "salt": "0x461550a6ebfca46012ec72d1c6314fd056b055c83073b967a98043e8e816011a",
      "assetIds": []
    },
    {
      "x": 352,
      "y": 25,
      "size": 1,
      "price": "905000000000000000000",
      "reserved": "0xdeaddeaddeaddeaddeaddeaddeaddeaddeaddead",
      "salt": "0x6344062c122b16915fc7983616ba3011a57cbe018145ef3b93b9ebae6c611337",
      "assetIds": []
    },
    {
      "x": 351,
      "y": 25,
      "size": 1,
      "price": "905000000000000000000",
      "reserved": "0xdeaddeaddeaddeaddeaddeaddeaddeaddeaddead",
      "salt": "0xcde94b7e14bc97c1d984457d25f1b9197a70c7601db4a4effb66bc7f581cbb46",
      "assetIds": []
    },
    {
      "x": 351,
      "y": 26,
      "size": 1,
      "price": "905000000000000000000",
      "reserved": "0xdeaddeaddeaddeaddeaddeaddeaddeaddeaddead",
      "salt": "0x2579fd842853aacc777257cea78b9b9f62fdfda7f1769e735784bbe075d5ad1b",
      "assetIds": []
    },
    {
      "x": 354,
      "y": 30,
      "size": 1,
      "price": "905000000000000000000",
      "reserved": "0xdeaddeaddeaddeaddeaddeaddeaddeaddeaddead",
      "salt": "0xf6e18f09b9d19ff91c64432e3bc19a84a47c2ada862ef0b56722086fa67c60ca",
      "assetIds": []
    },
    {
      "x": 355,
      "y": 30,
      "size": 1,
      "price": "905000000000000000000",
      "reserved": "0xdeaddeaddeaddeaddeaddeaddeaddeaddeaddead",
      "salt": "0x3350de0a0552e13bda5f24e9b155ced719a83a8a726c85b0c8acae0b703b4eef",
      "assetIds": []
    },
    {
      "x": 356,
      "y": 30,
      "size": 1,
      "price": "905000000000000000000",
      "reserved": "0xdeaddeaddeaddeaddeaddeaddeaddeaddeaddead",
      "salt": "0xf2cb316dd3a327d67f5c084dbe79cc14d4b97fcab8a5796869fbb3c907ae74b5",
      "assetIds": []
    },
    {
      "x": 356,
      "y": 31,
      "size": 1,
      "price": "905000000000000000000",
      "reserved": "0xdeaddeaddeaddeaddeaddeaddeaddeaddeaddead",
      "salt": "0xe7bccfffa326c1399260ed4a987578b13197facf3542a08bdbbe95da55026c06",
      "assetIds": []
    },
    {
      "x": 355,
      "y": 31,
      "size": 1,
      "price": "905000000000000000000",
      "reserved": "0xdeaddeaddeaddeaddeaddeaddeaddeaddeaddead",
      "salt": "0xb81f7f275e8282ac02b965b86903a9c441c2fde8dae85eb5b809dd7329283d3f",
      "assetIds": []
    },
    {
      "x": 354,
      "y": 31,
      "size": 1,
      "price": "905000000000000000000",
      "reserved": "0xdeaddeaddeaddeaddeaddeaddeaddeaddeaddead",
      "salt": "0xd4a037607856ea16378c659b63440401ef89c65378542e5fba6732efdee4e6aa",
      "assetIds": []
    },
    {
      "x": 354,
      "y": 32,
      "size": 1,
      "price": "905000000000000000000",
      "reserved": "0xdeaddeaddeaddeaddeaddeaddeaddeaddeaddead",
      "salt": "0x02efb16ab57ea37458b185bc2a876258e6973fa52351097cdc79d7a5db8e5bb3",
      "assetIds": []
    },
    {
      "x": 355,
      "y": 32,
      "size": 1,
      "price": "905000000000000000000",
      "reserved": "0xdeaddeaddeaddeaddeaddeaddeaddeaddeaddead",
      "salt": "0xa37bff406cdde52db2cbd6849b0ee66a261b1c2b9b61596fa2204c6dcee6f00a",
      "assetIds": []
    },
    {
      "x": 356,
      "y": 32,
      "size": 1,
      "price": "905000000000000000000",
      "reserved": "0xdeaddeaddeaddeaddeaddeaddeaddeaddeaddead",
      "salt": "0x3c86b770c1ddb6973778a2d739c199ce6d24cf3600ef0a0c4c2ae2cfb949e0ae",
      "assetIds": []
    },
    {
      "x": 357,
      "y": 33,
      "size": 1,
      "price": "905000000000000000000",
      "reserved": "0xdeaddeaddeaddeaddeaddeaddeaddeaddeaddead",
      "salt": "0xc3d4ec10a26f4d7d5a83a35ba837309209d52b9cf5a77e906c11de59a587e713",
      "assetIds": []
    },
    {
      "x": 358,
      "y": 33,
      "size": 1,
      "price": "905000000000000000000",
      "reserved": "0xdeaddeaddeaddeaddeaddeaddeaddeaddeaddead",
      "salt": "0x1dd0a563e8a428bf2483604011113ee7e802fbeb424c6f6219ed7072593a1706",
      "assetIds": []
    },
    {
      "x": 359,
      "y": 33,
      "size": 1,
      "price": "905000000000000000000",
      "reserved": "0xdeaddeaddeaddeaddeaddeaddeaddeaddeaddead",
      "salt": "0x6bbcddc0b46c87fcf88cf83595c97bc4196a4bceba9687a2343aec026ce1e447",
      "assetIds": []
    },
    {
      "x": 359,
      "y": 34,
      "size": 1,
      "price": "905000000000000000000",
      "reserved": "0xdeaddeaddeaddeaddeaddeaddeaddeaddeaddead",
      "salt": "0x91f8026596178aecd51dbed263eff0e5ecf5ce8e056bc738f295be5da43ea7a5",
      "assetIds": []
    },
    {
      "x": 358,
      "y": 34,
      "size": 1,
      "price": "905000000000000000000",
      "reserved": "0xdeaddeaddeaddeaddeaddeaddeaddeaddeaddead",
      "salt": "0xb4508baec750221642ec4557516dfe1a981a05a717e22e9f2e5cea0529df13c0",
      "assetIds": []
    },
    {
      "x": 357,
      "y": 34,
      "size": 1,
      "price": "905000000000000000000",
      "reserved": "0xdeaddeaddeaddeaddeaddeaddeaddeaddeaddead",
      "salt": "0x50fe1c6c83482156c23d9fce804edd6e570a2c72eb4450cd5b8ddf8185bd4393",
      "assetIds": []
    },
    {
      "x": 357,
      "y": 35,
      "size": 1,
      "price": "905000000000000000000",
      "reserved": "0xdeaddeaddeaddeaddeaddeaddeaddeaddeaddead",
      "salt": "0xfe0db73653cfd29098b1f345a326c02b64e872dc19727e6fbc86d3fa41232151",
      "assetIds": []
    },
    {
      "x": 358,
      "y": 35,
      "size": 1,
      "price": "905000000000000000000",
      "reserved": "0xdeaddeaddeaddeaddeaddeaddeaddeaddeaddead",
      "salt": "0x9b83229b1e579949ce22bc2d32ad5c7912335c582e83fb802931c6b108e85546",
      "assetIds": []
    },
    {
      "x": 359,
      "y": 35,
      "size": 1,
      "price": "905000000000000000000",
      "reserved": "0xdeaddeaddeaddeaddeaddeaddeaddeaddeaddead",
      "salt": "0x553c85d3a0ac6dc9d4fa145763cc6d3308856335e3d3532328956c627f510e4c",
      "assetIds": []
    },
    {
      "x": 351,
      "y": 36,
      "size": 1,
      "price": "905000000000000000000",
      "reserved": "0xdeaddeaddeaddeaddeaddeaddeaddeaddeaddead",
      "salt": "0x0ecf05ec4c600d7a81f4416d9f2f52d32d99ec1a878ff0fb93a23922d1d6b5c7",
      "assetIds": []
    },
    {
      "x": 352,
      "y": 36,
      "size": 1,
      "price": "905000000000000000000",
      "reserved": "0xdeaddeaddeaddeaddeaddeaddeaddeaddeaddead",
      "salt": "0x960c6ac7d24530d405bbaeb0e96720da51d1b3f83ed97903c138767e41aaed11",
      "assetIds": []
    },
    {
      "x": 353,
      "y": 36,
      "size": 1,
      "price": "905000000000000000000",
      "reserved": "0xdeaddeaddeaddeaddeaddeaddeaddeaddeaddead",
      "salt": "0x675c9c5a7f48940c9f0425e355650174b841d8bfb300ecd03bfc0165989b2fec",
      "assetIds": []
    },
    {
      "x": 353,
      "y": 37,
      "size": 1,
      "price": "905000000000000000000",
      "reserved": "0xdeaddeaddeaddeaddeaddeaddeaddeaddeaddead",
      "salt": "0x9c61d6936907b1aa651d79935a9a50653c60caf552fea5a0fa36827be7c2cf2f",
      "assetIds": []
    },
    {
      "x": 352,
      "y": 37,
      "size": 1,
      "price": "905000000000000000000",
      "reserved": "0xdeaddeaddeaddeaddeaddeaddeaddeaddeaddead",
      "salt": "0xa69ce0e0675027b9e04b9aa8c0f736f615af196e7df8bb469646bf93b3ac991c",
      "assetIds": []
    },
    {
      "x": 351,
      "y": 37,
      "size": 1,
      "price": "905000000000000000000",
      "reserved": "0xdeaddeaddeaddeaddeaddeaddeaddeaddeaddead",
      "salt": "0xc38e072bab6899200b87853bfe1888e0e7486043096e9bc7dc7f1388ca23ded0",
      "assetIds": []
    },
    {
      "x": 351,
      "y": 38,
      "size": 1,
      "price": "905000000000000000000",
      "reserved": "0xdeaddeaddeaddeaddeaddeaddeaddeaddeaddead",
      "salt": "0x5b671e850d0d81ca6e86f3e946b8c057a11abf106f0a55564f69e4b4b0a24b2a",
      "assetIds": []
    },
    {
      "x": 352,
      "y": 38,
      "size": 1,
      "price": "905000000000000000000",
      "reserved": "0xdeaddeaddeaddeaddeaddeaddeaddeaddeaddead",
      "salt": "0x21f7693c1612cc71c4e7cc887f28d0a5518ac5bb9dba4e4753fb6730dd947a0c",
      "assetIds": []
    },
    {
      "x": 353,
      "y": 38,
      "size": 1,
      "price": "905000000000000000000",
      "reserved": "0xdeaddeaddeaddeaddeaddeaddeaddeaddeaddead",
      "salt": "0x6ac440bac8314357e6368062e435bfe64cfef5ebf173131bb2322bbc19e0e034",
      "assetIds": []
    },
    {
      "x": 345,
      "y": 32,
      "size": 1,
      "price": "905000000000000000000",
      "reserved": "0xdeaddeaddeaddeaddeaddeaddeaddeaddeaddead",
      "salt": "0x3d9b2af1390fe4bdf013441dead16be07336fb203023b68d9ffc7eb92c9515cc",
      "assetIds": []
    },
    {
      "x": 346,
      "y": 32,
      "size": 1,
      "price": "905000000000000000000",
      "reserved": "0xdeaddeaddeaddeaddeaddeaddeaddeaddeaddead",
      "salt": "0x7f014a58bd49d31b7931dcb38974f4975cd519c9fb6cb7ebe4432e3999ef94f0",
      "assetIds": []
    },
    {
      "x": 347,
      "y": 32,
      "size": 1,
      "price": "905000000000000000000",
      "reserved": "0xdeaddeaddeaddeaddeaddeaddeaddeaddeaddead",
      "salt": "0xa8330966d175431f23943081dee358642770a59fa9fc179bfee3332bcdfe0e20",
      "assetIds": []
    },
    {
      "x": 347,
      "y": 31,
      "size": 1,
      "price": "905000000000000000000",
      "reserved": "0xdeaddeaddeaddeaddeaddeaddeaddeaddeaddead",
      "salt": "0xa7b7eeae474dff5b85d4e7f6a0e4b725e4bbd75ce76ce20fe0585c303cd4c3c1",
      "assetIds": []
    },
    {
      "x": 347,
      "y": 30,
      "size": 1,
      "price": "905000000000000000000",
      "reserved": "0xdeaddeaddeaddeaddeaddeaddeaddeaddeaddead",
      "salt": "0x069dfc5fdbe967f3d62b3f46e96de54aab33c457eb577cb1ba26b8fbc1927513",
      "assetIds": []
    },
    {
      "x": 346,
      "y": 30,
      "size": 1,
      "price": "905000000000000000000",
      "reserved": "0xdeaddeaddeaddeaddeaddeaddeaddeaddeaddead",
      "salt": "0x5540bba6cb2d0bf13025523cac7db69a255533bc9df55ed56fd87ad452e6aecf",
      "assetIds": []
    },
    {
      "x": 346,
      "y": 31,
      "size": 1,
      "price": "905000000000000000000",
      "reserved": "0xdeaddeaddeaddeaddeaddeaddeaddeaddeaddead",
      "salt": "0x9bc9e442b24b99b7e40021adccaa08616fbd68faeb933dac0d271041e3a6d47d",
      "assetIds": []
    },
    {
      "x": 345,
      "y": 31,
      "size": 1,
      "price": "905000000000000000000",
      "reserved": "0xdeaddeaddeaddeaddeaddeaddeaddeaddeaddead",
      "salt": "0x27aded336ee713fd39d437a8662122d7050937af172d57e458af4310aeba0ff4",
      "assetIds": []
    },
    {
      "x": 345,
      "y": 30,
      "size": 1,
      "price": "905000000000000000000",
      "reserved": "0xdeaddeaddeaddeaddeaddeaddeaddeaddeaddead",
      "salt": "0x1856e9170f9fc26e2d2f7bd4676f1a17caa8d2e82277503c8ee1332310966adb",
      "assetIds": []
    },
    {
      "x": 342,
      "y": 33,
      "size": 1,
      "price": "905000000000000000000",
      "reserved": "0xdeaddeaddeaddeaddeaddeaddeaddeaddeaddead",
      "salt": "0x2493689864e6d7c3f1a8b21af3a722ca02e3500d0d731001cd2d3afedea09587",
      "assetIds": []
    },
    {
      "x": 343,
      "y": 33,
      "size": 1,
      "price": "905000000000000000000",
      "reserved": "0xdeaddeaddeaddeaddeaddeaddeaddeaddeaddead",
      "salt": "0x0235f0b369f624045800e9d194e2ee50e0326d559e4be859e9c336c5bdf87127",
      "assetIds": []
    },
    {
      "x": 344,
      "y": 33,
      "size": 1,
      "price": "905000000000000000000",
      "reserved": "0xdeaddeaddeaddeaddeaddeaddeaddeaddeaddead",
      "salt": "0xf948d24bf52820d15a8b0528ea0700e4eeca9c38185e4961204f2ec6c7084497",
      "assetIds": []
    },
    {
      "x": 344,
      "y": 34,
      "size": 1,
      "price": "905000000000000000000",
      "reserved": "0xdeaddeaddeaddeaddeaddeaddeaddeaddeaddead",
      "salt": "0x1c1b74e5867646c03518da17dfb539829f23c16f597ab7f4977e8793a297e05e",
      "assetIds": []
    },
    {
      "x": 343,
      "y": 34,
      "size": 1,
      "price": "905000000000000000000",
      "reserved": "0xdeaddeaddeaddeaddeaddeaddeaddeaddeaddead",
      "salt": "0x449180b80f3e962d4f706b337fa1e4b3011dbe018de6a57f5363d2532229d3f5",
      "assetIds": []
    },
    {
      "x": 342,
      "y": 34,
      "size": 1,
      "price": "905000000000000000000",
      "reserved": "0xdeaddeaddeaddeaddeaddeaddeaddeaddeaddead",
      "salt": "0x2db1e5c330aab267b7eeda4225d0a010e9531e0f4537ca5d7c81cd9712334fc2",
      "assetIds": []
    },
    {
      "x": 342,
      "y": 35,
      "size": 1,
      "price": "905000000000000000000",
      "reserved": "0xdeaddeaddeaddeaddeaddeaddeaddeaddeaddead",
      "salt": "0x13102144019cf20fb05b48d2a5dc7201489b28809921adc723be186caa06f9e0",
      "assetIds": []
    },
    {
      "x": 343,
      "y": 35,
      "size": 1,
      "price": "905000000000000000000",
      "reserved": "0xdeaddeaddeaddeaddeaddeaddeaddeaddeaddead",
      "salt": "0x444e2d8595f1e83d73271afae55c36a8ac55e8c8b31c5cbd2df08ea0effb0a66",
      "assetIds": []
    },
    {
      "x": 344,
      "y": 35,
      "size": 1,
      "price": "905000000000000000000",
      "reserved": "0xdeaddeaddeaddeaddeaddeaddeaddeaddeaddead",
      "salt": "0x209fd51c9bb82a08b5e6d2d46704dc951f2b7f9a358413add8d7ddffe07cdd0d",
      "assetIds": []
    },
    {
      "x": 335,
      "y": 41,
      "size": 1,
      "price": "905000000000000000000",
      "reserved": "0xdeaddeaddeaddeaddeaddeaddeaddeaddeaddead",
      "salt": "0x09d8711ba14398de4c59a7d2dee0bec19e3c85485ed05c318f9ac8db07c93936",
      "assetIds": []
    },
    {
      "x": 335,
      "y": 40,
      "size": 1,
      "price": "905000000000000000000",
      "reserved": "0xdeaddeaddeaddeaddeaddeaddeaddeaddeaddead",
      "salt": "0xc21f3f84b2013276eee497920b35095ceaa184040247c040d19faa0d6c1a36bd",
      "assetIds": []
    },
    {
      "x": 335,
      "y": 39,
      "size": 1,
      "price": "905000000000000000000",
      "reserved": "0xdeaddeaddeaddeaddeaddeaddeaddeaddeaddead",
      "salt": "0x584df581a3d5c8f0e295a69fb48c8dd28fe57813d2f2ab92301abb3a58b42334",
      "assetIds": []
    },
    {
      "x": 334,
      "y": 39,
      "size": 1,
      "price": "905000000000000000000",
      "reserved": "0xdeaddeaddeaddeaddeaddeaddeaddeaddeaddead",
      "salt": "0x47cf3e85bb290fa77a144edef2265b37a93f7b9307f1a90841fae679a9f5f6fa",
      "assetIds": []
    },
    {
      "x": 333,
      "y": 39,
      "size": 1,
      "price": "905000000000000000000",
      "reserved": "0xdeaddeaddeaddeaddeaddeaddeaddeaddeaddead",
      "salt": "0x8fff491c6150520da58a09848b185c2bac68c90ed910cf123ee1e872b14bc3ff",
      "assetIds": []
    },
    {
      "x": 333,
      "y": 40,
      "size": 1,
      "price": "905000000000000000000",
      "reserved": "0xdeaddeaddeaddeaddeaddeaddeaddeaddeaddead",
      "salt": "0x8eb2048a952325a5b2d82e4201eb54c20cfbe4486ecab3d6270b5fa4eaed77da",
      "assetIds": []
    },
    {
      "x": 333,
      "y": 41,
      "size": 1,
      "price": "905000000000000000000",
      "reserved": "0xdeaddeaddeaddeaddeaddeaddeaddeaddeaddead",
      "salt": "0x2ee636d2b960dea8906c67b1a88c45f82756ab0ec433d0424c4f17c797e6efc0",
      "assetIds": []
    },
    {
      "x": 334,
      "y": 41,
      "size": 1,
      "price": "905000000000000000000",
      "reserved": "0xdeaddeaddeaddeaddeaddeaddeaddeaddeaddead",
      "salt": "0x7e6b16ef018606fa5258e50cfec8ecd44005915e8675e9262b13c04fc6115c8b",
      "assetIds": []
    },
    {
      "x": 334,
      "y": 40,
      "size": 1,
      "price": "905000000000000000000",
      "reserved": "0xdeaddeaddeaddeaddeaddeaddeaddeaddeaddead",
      "salt": "0x43a639d2a5a8312dc1930594e80044253a4abd281bf49e6f680bcedb75c52687",
      "assetIds": []
    },
    {
      "x": 330,
      "y": 38,
      "size": 1,
      "price": "905000000000000000000",
      "reserved": "0xdeaddeaddeaddeaddeaddeaddeaddeaddeaddead",
      "salt": "0x7add188bb7997f99ceccaf60dd10979902fb93a2054d14423bda6dd875144459",
      "assetIds": []
    },
    {
      "x": 331,
      "y": 38,
      "size": 1,
      "price": "905000000000000000000",
      "reserved": "0xdeaddeaddeaddeaddeaddeaddeaddeaddeaddead",
      "salt": "0xeabbd6417d01c69af06f71a4bc96a0e6eff86f8c08f5baaa555e2c00041b5e77",
      "assetIds": []
    },
    {
      "x": 332,
      "y": 38,
      "size": 1,
      "price": "905000000000000000000",
      "reserved": "0xdeaddeaddeaddeaddeaddeaddeaddeaddeaddead",
      "salt": "0xfe076c2cd6f9195e1cb8d18f21a745e7620d2275fc75d177420ae94b83d8fc23",
      "assetIds": []
    },
    {
      "x": 332,
      "y": 37,
      "size": 1,
      "price": "905000000000000000000",
      "reserved": "0xdeaddeaddeaddeaddeaddeaddeaddeaddeaddead",
      "salt": "0xe76f9f33b282d02168d708adce17743ee6f554200718b6733211c5eda85e0e14",
      "assetIds": []
    },
    {
      "x": 332,
      "y": 36,
      "size": 1,
      "price": "905000000000000000000",
      "reserved": "0xdeaddeaddeaddeaddeaddeaddeaddeaddeaddead",
      "salt": "0x6c394b32dba0a95986aaaaac10488611651e2a5bffe7f0a1d8261aca69137d8b",
      "assetIds": []
    },
    {
      "x": 331,
      "y": 36,
      "size": 1,
      "price": "905000000000000000000",
      "reserved": "0xdeaddeaddeaddeaddeaddeaddeaddeaddeaddead",
      "salt": "0x4cbaaf2a50a20b47487e13d635e4b0da614118f0049f8e4c310afc6b40bb7208",
      "assetIds": []
    },
    {
      "x": 330,
      "y": 36,
      "size": 1,
      "price": "905000000000000000000",
      "reserved": "0xdeaddeaddeaddeaddeaddeaddeaddeaddeaddead",
      "salt": "0x9052c91e1af226c9e105dd9724a11fc6213b93b32ba1a59ee769496beeb82727",
      "assetIds": []
    },
    {
      "x": 330,
      "y": 37,
      "size": 1,
      "price": "905000000000000000000",
      "reserved": "0xdeaddeaddeaddeaddeaddeaddeaddeaddeaddead",
      "salt": "0x9cb4cbec0f5582fd032a38e2a8aa714997036d5c29b76cf29a6b0d54c6ca0406",
      "assetIds": []
    },
    {
      "x": 331,
      "y": 37,
      "size": 1,
      "price": "905000000000000000000",
      "reserved": "0xdeaddeaddeaddeaddeaddeaddeaddeaddeaddead",
      "salt": "0x11b8ad0d4bf42d208cc9d3e5b525f90245a7690c909e904c2d28eecc0e09af58",
      "assetIds": []
    },
    {
      "x": 323,
      "y": 41,
      "size": 1,
      "price": "905000000000000000000",
      "reserved": "0xdeaddeaddeaddeaddeaddeaddeaddeaddeaddead",
      "salt": "0x7c8268e2a0b832c4d2b47ca1ab4f774b1dffda94318525f38a0209473cb87bff",
      "assetIds": []
    },
    {
      "x": 323,
      "y": 40,
      "size": 1,
      "price": "905000000000000000000",
      "reserved": "0xdeaddeaddeaddeaddeaddeaddeaddeaddeaddead",
      "salt": "0xb551363c858ee68677c19d3ee58b8788481c3294161459124ee18c8b226dbe42",
      "assetIds": []
    },
    {
      "x": 322,
      "y": 40,
      "size": 1,
      "price": "905000000000000000000",
      "reserved": "0xdeaddeaddeaddeaddeaddeaddeaddeaddeaddead",
      "salt": "0xfe5db9f24ccb1ac7086d2b66567207a0f20880d4f77b6626bb4b82c7415cdf9f",
      "assetIds": []
    },
    {
      "x": 322,
      "y": 39,
      "size": 1,
      "price": "905000000000000000000",
      "reserved": "0xdeaddeaddeaddeaddeaddeaddeaddeaddeaddead",
      "salt": "0xa89d032dbb47e9878f3132e1c30365664dc5458e5b1340539b68fede9b25a8e8",
      "assetIds": []
    },
    {
      "x": 322,
      "y": 38,
      "size": 1,
      "price": "905000000000000000000",
      "reserved": "0xdeaddeaddeaddeaddeaddeaddeaddeaddeaddead",
      "salt": "0xdcf916c8d4bf0f7c1bb612bbcada5f2e85e88f43acc4f43a6918bcb9a83f9cb4",
      "assetIds": []
    },
    {
      "x": 322,
      "y": 37,
      "size": 1,
      "price": "905000000000000000000",
      "reserved": "0xdeaddeaddeaddeaddeaddeaddeaddeaddeaddead",
      "salt": "0x4b17147b50c8056634c70c958f2802ef94efe9c6994687025097fe3a00ba54b8",
      "assetIds": []
    },
    {
      "x": 322,
      "y": 36,
      "size": 1,
      "price": "905000000000000000000",
      "reserved": "0xdeaddeaddeaddeaddeaddeaddeaddeaddeaddead",
      "salt": "0x540f262b9fc7ea3d7472a4fc21607213e34e36b1c8089eb101fc3fa348d99116",
      "assetIds": []
    },
    {
      "x": 323,
      "y": 36,
      "size": 1,
      "price": "905000000000000000000",
      "reserved": "0xdeaddeaddeaddeaddeaddeaddeaddeaddeaddead",
      "salt": "0x997a542262ff389399069f14389d263dbb03bafad7e8759a71dc7aa37deaff24",
      "assetIds": []
    },
    {
      "x": 323,
      "y": 37,
      "size": 1,
      "price": "905000000000000000000",
      "reserved": "0xdeaddeaddeaddeaddeaddeaddeaddeaddeaddead",
      "salt": "0x15db9f42997190433b961cc6859d802f7a52a4a1a0ffac9df83a370715926d46",
      "assetIds": []
    },
    {
      "x": 323,
      "y": 38,
      "size": 1,
      "price": "905000000000000000000",
      "reserved": "0xdeaddeaddeaddeaddeaddeaddeaddeaddeaddead",
      "salt": "0x04505ff61b13a2d11a72002b2c1cb51f7e77f56fdfdb0a37356504164d6c3653",
      "assetIds": []
    },
    {
      "x": 323,
      "y": 39,
      "size": 1,
      "price": "905000000000000000000",
      "reserved": "0xdeaddeaddeaddeaddeaddeaddeaddeaddeaddead",
      "salt": "0x72514199d1f2d9276fe1949cb102c5a5896b7fe2c2f718e3b9ef31bfaeeba2a7",
      "assetIds": []
    },
    {
      "x": 322,
      "y": 41,
      "size": 1,
      "price": "905000000000000000000",
      "reserved": "0xdeaddeaddeaddeaddeaddeaddeaddeaddeaddead",
      "salt": "0x7e486a6bd40b0846fb51160720a0605edd3ab8f2643d1dd382b26d8b8e6b3bea",
      "assetIds": []
    },
    {
      "x": 321,
      "y": 40,
      "size": 1,
      "price": "905000000000000000000",
      "reserved": "0xdeaddeaddeaddeaddeaddeaddeaddeaddeaddead",
      "salt": "0xe25ed347cf00f74dfa3da8a84db665c1dc8aff4a12ab5fb545f270becfe4856c",
      "assetIds": []
    },
    {
      "x": 321,
      "y": 39,
      "size": 1,
      "price": "905000000000000000000",
      "reserved": "0xdeaddeaddeaddeaddeaddeaddeaddeaddeaddead",
      "salt": "0x6edb968bd7736c3523ed0238b5a5149e18c184c56d078d4daabf8e0cc4becabc",
      "assetIds": []
    },
    {
      "x": 321,
      "y": 38,
      "size": 1,
      "price": "905000000000000000000",
      "reserved": "0xdeaddeaddeaddeaddeaddeaddeaddeaddeaddead",
      "salt": "0x86f93e4886f7b432037c27f1f8b4456228ec57b2b0f87b5409118f2febd4e695",
      "assetIds": []
    },
    {
      "x": 321,
      "y": 37,
      "size": 1,
      "price": "905000000000000000000",
      "reserved": "0xdeaddeaddeaddeaddeaddeaddeaddeaddeaddead",
      "salt": "0x9e2ef419210259303fef8de20fbed37bc0cfa978a6e5127c8b3f5b87da45aa36",
      "assetIds": []
    },
    {
      "x": 321,
      "y": 36,
      "size": 1,
      "price": "905000000000000000000",
      "reserved": "0xdeaddeaddeaddeaddeaddeaddeaddeaddeaddead",
      "salt": "0x6994f4180d6cdd1d562b8d7007ca4792737c72bfece69205a36e1843e5ecc16e",
      "assetIds": []
    },
    {
      "x": 321,
      "y": 41,
      "size": 1,
      "price": "905000000000000000000",
      "reserved": "0xdeaddeaddeaddeaddeaddeaddeaddeaddeaddead",
      "salt": "0x1099d8b5a96185eed96019c30530d2a9f57950f02c5ddafaff56b452d35813d3",
      "assetIds": []
    },
    {
      "x": 321,
      "y": 45,
      "size": 1,
      "price": "905000000000000000000",
      "reserved": "0xdeaddeaddeaddeaddeaddeaddeaddeaddeaddead",
      "salt": "0x86c87c1a0558cf52cbb2e7cab9f4dc1a43ab8517dfff4fb942fe28c12ba984a6",
      "assetIds": []
    },
    {
      "x": 322,
      "y": 45,
      "size": 1,
      "price": "905000000000000000000",
      "reserved": "0xdeaddeaddeaddeaddeaddeaddeaddeaddeaddead",
      "salt": "0x393db9b4a9b70712716029e7b77741e2c7366589398c4380a5ce4bcde05433e2",
      "assetIds": []
    },
    {
      "x": 323,
      "y": 45,
      "size": 1,
      "price": "905000000000000000000",
      "reserved": "0xdeaddeaddeaddeaddeaddeaddeaddeaddeaddead",
      "salt": "0x51c960e12cad95763d8fb487fa0d5a61e9d40c5bccf2ee8bed43059cb1d86f6d",
      "assetIds": []
    },
    {
      "x": 324,
      "y": 45,
      "size": 1,
      "price": "905000000000000000000",
      "reserved": "0xdeaddeaddeaddeaddeaddeaddeaddeaddeaddead",
      "salt": "0x99efd0070077fa3afbb3618c1b7f012480035eeb7750d9c0a0db48c484eaf2c2",
      "assetIds": []
    },
    {
      "x": 325,
      "y": 45,
      "size": 1,
      "price": "905000000000000000000",
      "reserved": "0xdeaddeaddeaddeaddeaddeaddeaddeaddeaddead",
      "salt": "0x762345813cdbc105bbdd4d4f0bc64bafa548bb9418bfe167ea34d25c318242cd",
      "assetIds": []
    },
    {
      "x": 326,
      "y": 45,
      "size": 1,
      "price": "905000000000000000000",
      "reserved": "0xdeaddeaddeaddeaddeaddeaddeaddeaddeaddead",
      "salt": "0xd73de1b8ef389f7bd4e82384d1dcc2885ee6b16fbdea30c6e0144500634e96a4",
      "assetIds": []
    },
    {
      "x": 326,
      "y": 46,
      "size": 1,
      "price": "905000000000000000000",
      "reserved": "0xdeaddeaddeaddeaddeaddeaddeaddeaddeaddead",
      "salt": "0x1a54bf77091f093f96f93122fa71963a77407eee01f3628de5d159eae4e5c7fb",
      "assetIds": []
    },
    {
      "x": 326,
      "y": 47,
      "size": 1,
      "price": "905000000000000000000",
      "reserved": "0xdeaddeaddeaddeaddeaddeaddeaddeaddeaddead",
      "salt": "0x4c1bc2980d7befb707090ff1dc9359217075ce0f0a1690191da7656f591634de",
      "assetIds": []
    },
    {
      "x": 325,
      "y": 47,
      "size": 1,
      "price": "905000000000000000000",
      "reserved": "0xdeaddeaddeaddeaddeaddeaddeaddeaddeaddead",
      "salt": "0x3d5e52dd3715d17a6025fdad458680bdbe8ee6f0588e2493d662bd76ab1c5c85",
      "assetIds": []
    },
    {
      "x": 324,
      "y": 47,
      "size": 1,
      "price": "905000000000000000000",
      "reserved": "0xdeaddeaddeaddeaddeaddeaddeaddeaddeaddead",
      "salt": "0xf91002fa249e42410adc026d63b28ea380b7ff0b6a4b85a0f269df871ee0232d",
      "assetIds": []
    },
    {
      "x": 323,
      "y": 47,
      "size": 1,
      "price": "905000000000000000000",
      "reserved": "0xdeaddeaddeaddeaddeaddeaddeaddeaddeaddead",
      "salt": "0x44cf0b454a0417152c3008134931587466d33dff85929a6cf0187f6297776d0e",
      "assetIds": []
    },
    {
      "x": 323,
      "y": 46,
      "size": 1,
      "price": "905000000000000000000",
      "reserved": "0xdeaddeaddeaddeaddeaddeaddeaddeaddeaddead",
      "salt": "0x7c66f212f25b0ccadc23f2c0fff135c1eb8ce9203f82fb0f80b2bd2195b92233",
      "assetIds": []
    },
    {
      "x": 322,
      "y": 46,
      "size": 1,
      "price": "905000000000000000000",
      "reserved": "0xdeaddeaddeaddeaddeaddeaddeaddeaddeaddead",
      "salt": "0xdd539084b231949fe164a8fbbbce0e051cc068480adf41d34ab6f7fb300365c1",
      "assetIds": []
    },
    {
      "x": 321,
      "y": 46,
      "size": 1,
      "price": "905000000000000000000",
      "reserved": "0xdeaddeaddeaddeaddeaddeaddeaddeaddeaddead",
      "salt": "0x890436395561a081aa3128c4f41edcd80cdb67a38529bbe55da568526310d2d9",
      "assetIds": []
    },
    {
      "x": 321,
      "y": 47,
      "size": 1,
      "price": "905000000000000000000",
      "reserved": "0xdeaddeaddeaddeaddeaddeaddeaddeaddeaddead",
      "salt": "0x74aac41153f4271165bf7f6da9a73c8cd8bedf3e30b505a1154f6b161e00e50a",
      "assetIds": []
    },
    {
      "x": 322,
      "y": 47,
      "size": 1,
      "price": "905000000000000000000",
      "reserved": "0xdeaddeaddeaddeaddeaddeaddeaddeaddeaddead",
      "salt": "0x51c671a3e4743fa678e5b8dc5e55668b6b1e1af91a4fbadaa2edc0baec7babe6",
      "assetIds": []
    },
    {
      "x": 324,
      "y": 46,
      "size": 1,
      "price": "905000000000000000000",
      "reserved": "0xdeaddeaddeaddeaddeaddeaddeaddeaddeaddead",
      "salt": "0xbb99380a039b8014c0934a77f7770c7469842408ec4f2e764e7a7c783aee6d42",
      "assetIds": []
    },
    {
      "x": 325,
      "y": 46,
      "size": 1,
      "price": "905000000000000000000",
      "reserved": "0xdeaddeaddeaddeaddeaddeaddeaddeaddeaddead",
      "salt": "0x0db0fd25720f4e28cad88ae3840c67eee16b87fcc9e4e91e014ced7c5aecd414",
      "assetIds": []
    },
    {
      "x": 321,
      "y": 29,
      "size": 1,
      "price": "905000000000000000000",
      "reserved": "0xdeaddeaddeaddeaddeaddeaddeaddeaddeaddead",
      "salt": "0x75678934a53a8cb62a3492206c04d5e79aee604afe3d9a76f5277c06886d5252",
      "assetIds": []
    },
    {
      "x": 322,
      "y": 29,
      "size": 1,
      "price": "905000000000000000000",
      "reserved": "0xdeaddeaddeaddeaddeaddeaddeaddeaddeaddead",
      "salt": "0x325ac7823efbd3d156b87ae74b96fdfdd412c808ec32f3b4a51002d607be3cb6",
      "assetIds": []
    },
    {
      "x": 323,
      "y": 29,
      "size": 1,
      "price": "905000000000000000000",
      "reserved": "0xdeaddeaddeaddeaddeaddeaddeaddeaddeaddead",
      "salt": "0x8f516a583feb4b9a791647a9f46dfcfbaa985d4e4c6d20ca2450681c447f5824",
      "assetIds": []
    },
    {
      "x": 323,
      "y": 28,
      "size": 1,
      "price": "905000000000000000000",
      "reserved": "0xdeaddeaddeaddeaddeaddeaddeaddeaddeaddead",
      "salt": "0xa6590c6796f12843992da0e89facb7233a365c6fa822c9d2e7cd7c04c9d44a02",
      "assetIds": []
    },
    {
      "x": 323,
      "y": 27,
      "size": 1,
      "price": "905000000000000000000",
      "reserved": "0xdeaddeaddeaddeaddeaddeaddeaddeaddeaddead",
      "salt": "0xca6e8833f8208e87ba33e4c905a990be384a98d757f3e283c4e680fe7fa40df6",
      "assetIds": []
    },
    {
      "x": 323,
      "y": 26,
      "size": 1,
      "price": "905000000000000000000",
      "reserved": "0xdeaddeaddeaddeaddeaddeaddeaddeaddeaddead",
      "salt": "0x2b229928da0c260db55c94969d1bd5578afc7157621046221700d311a6fe71fe",
      "assetIds": []
    },
    {
      "x": 323,
      "y": 25,
      "size": 1,
      "price": "905000000000000000000",
      "reserved": "0xdeaddeaddeaddeaddeaddeaddeaddeaddeaddead",
      "salt": "0x37983e34df82c3c7fd72b0b45057ed6bd1b66ca363d3cb48d7c4cb06d4c9b8cb",
      "assetIds": []
    },
    {
      "x": 323,
      "y": 24,
      "size": 1,
      "price": "905000000000000000000",
      "reserved": "0xdeaddeaddeaddeaddeaddeaddeaddeaddeaddead",
      "salt": "0x871dfcf9a721e3c9104c2e4de3b52126e23e7c8a2e5c5d2d27b7addf3bb8bea3",
      "assetIds": []
    },
    {
      "x": 322,
      "y": 24,
      "size": 1,
      "price": "905000000000000000000",
      "reserved": "0xdeaddeaddeaddeaddeaddeaddeaddeaddeaddead",
      "salt": "0x5c08cd2ba17e46b4316f204075dfe85dd284a79e2773c12c8631422008e518bb",
      "assetIds": []
    },
    {
      "x": 321,
      "y": 24,
      "size": 1,
      "price": "905000000000000000000",
      "reserved": "0xdeaddeaddeaddeaddeaddeaddeaddeaddeaddead",
      "salt": "0xead3cc303f48c844e19af2e968e3452fb7c5ed1a64c8218b3f482d83deca2e93",
      "assetIds": []
    },
    {
      "x": 321,
      "y": 25,
      "size": 1,
      "price": "905000000000000000000",
      "reserved": "0xdeaddeaddeaddeaddeaddeaddeaddeaddeaddead",
      "salt": "0xae512fb2464febc3163b0c751f6ec1aed9aa393692e20fea669f0e5c49a2e6f9",
      "assetIds": []
    },
    {
      "x": 321,
      "y": 26,
      "size": 1,
      "price": "905000000000000000000",
      "reserved": "0xdeaddeaddeaddeaddeaddeaddeaddeaddeaddead",
      "salt": "0x4c482446687b22207281052c84ffb1b5f96611b784c650bb899c9c2bcc62f529",
      "assetIds": []
    },
    {
      "x": 321,
      "y": 27,
      "size": 1,
      "price": "905000000000000000000",
      "reserved": "0xdeaddeaddeaddeaddeaddeaddeaddeaddeaddead",
      "salt": "0xbfc49915e81a87f0a8e233f355909630aed453f2d9e47c306a170767bc23487f",
      "assetIds": []
    },
    {
      "x": 321,
      "y": 28,
      "size": 1,
      "price": "905000000000000000000",
      "reserved": "0xdeaddeaddeaddeaddeaddeaddeaddeaddeaddead",
      "salt": "0xd8f19714a5dca02cd40bfd72216c7864ee7f13a4bf586b4c49b3de16cc6c65be",
      "assetIds": []
    },
    {
      "x": 322,
      "y": 28,
      "size": 1,
      "price": "905000000000000000000",
      "reserved": "0xdeaddeaddeaddeaddeaddeaddeaddeaddeaddead",
      "salt": "0xdee0353429c622539941d7b04af38d9bbb9552c767ff7902bafc3e3b732c7973",
      "assetIds": []
    },
    {
      "x": 322,
      "y": 27,
      "size": 1,
      "price": "905000000000000000000",
      "reserved": "0xdeaddeaddeaddeaddeaddeaddeaddeaddeaddead",
      "salt": "0xcabcb3b6115d8b57846338a8811a1cd9cc13ec1aa9ce9f0a4e8cbd58d2504696",
      "assetIds": []
    },
    {
      "x": 322,
      "y": 26,
      "size": 1,
      "price": "905000000000000000000",
      "reserved": "0xdeaddeaddeaddeaddeaddeaddeaddeaddeaddead",
      "salt": "0xcd04290207474102659f1e3d961d4541ffe549653041361de6de16e9fae5e0f5",
      "assetIds": []
    },
    {
      "x": 322,
      "y": 25,
      "size": 1,
      "price": "905000000000000000000",
      "reserved": "0xdeaddeaddeaddeaddeaddeaddeaddeaddeaddead",
      "salt": "0x60341d32edccb0a68202c0fe189e5b6a387cd8b6e7955aebe1a8097112e302c0",
      "assetIds": []
    },
    {
      "x": 324,
      "y": 20,
      "size": 1,
      "price": "905000000000000000000",
      "reserved": "0xdeaddeaddeaddeaddeaddeaddeaddeaddeaddead",
      "salt": "0x7c81901b4196fcb55d07f4078c0c25b7b9119e3275b1f21cdcb7b9855c12271d",
      "assetIds": []
    },
    {
      "x": 324,
      "y": 19,
      "size": 1,
      "price": "905000000000000000000",
      "reserved": "0xdeaddeaddeaddeaddeaddeaddeaddeaddeaddead",
      "salt": "0x29779a4d5a0396b1a7c45b9a3453ee084f6937cf1e6702f75ac784750836aaad",
      "assetIds": []
    },
    {
      "x": 325,
      "y": 19,
      "size": 1,
      "price": "905000000000000000000",
      "reserved": "0xdeaddeaddeaddeaddeaddeaddeaddeaddeaddead",
      "salt": "0x3f9b1fa66645446126d4ee6fe5e19693773dd4a8b0a7526d1adbc2815e2e3137",
      "assetIds": []
    },
    {
      "x": 326,
      "y": 19,
      "size": 1,
      "price": "905000000000000000000",
      "reserved": "0xdeaddeaddeaddeaddeaddeaddeaddeaddeaddead",
      "salt": "0xb6931574acf773ea15ac20ea5a8f4fb780fa1fc41ad1bea866f031c94c0faed7",
      "assetIds": []
    },
    {
      "x": 326,
      "y": 18,
      "size": 1,
      "price": "905000000000000000000",
      "reserved": "0xdeaddeaddeaddeaddeaddeaddeaddeaddeaddead",
      "salt": "0x56ee93b1b33926fec8849d65e58c27aeddf8db7ef99879ef01fd45278e3d1b26",
      "assetIds": []
    },
    {
      "x": 325,
      "y": 18,
      "size": 1,
      "price": "905000000000000000000",
      "reserved": "0xdeaddeaddeaddeaddeaddeaddeaddeaddeaddead",
      "salt": "0x278c736d292cd4508f1191fe940f9058b719278de3a219432b2b8ebb3429fb0d",
      "assetIds": []
    },
    {
      "x": 324,
      "y": 18,
      "size": 1,
      "price": "905000000000000000000",
      "reserved": "0xdeaddeaddeaddeaddeaddeaddeaddeaddeaddead",
      "salt": "0x17495bda4a62e70dc070262ae68fbd57ceaad51c9d2c128654a418a3ec6af72d",
      "assetIds": []
    },
    {
      "x": 325,
      "y": 20,
      "size": 1,
      "price": "905000000000000000000",
      "reserved": "0xdeaddeaddeaddeaddeaddeaddeaddeaddeaddead",
      "salt": "0xfc6fb67b5f8e45394a19f380e89d145b2a97e17308068e0e198b58df525c30a2",
      "assetIds": []
    },
    {
      "x": 326,
      "y": 20,
      "size": 1,
      "price": "905000000000000000000",
      "reserved": "0xdeaddeaddeaddeaddeaddeaddeaddeaddeaddead",
      "salt": "0x5a83f7d4721e5676b7bd22e133478cb540b96d3f36d76e22af766f9bb530479c",
      "assetIds": []
    },
    {
      "x": 320,
      "y": 17,
      "size": 1,
      "price": "905000000000000000000",
      "reserved": "0xdeaddeaddeaddeaddeaddeaddeaddeaddeaddead",
      "salt": "0x175f10e3313c3e1fbd060209326af7e6a6ff3e366de2792bce2663a9d13cfa55",
      "assetIds": []
    },
    {
      "x": 319,
      "y": 17,
      "size": 1,
      "price": "905000000000000000000",
      "reserved": "0xdeaddeaddeaddeaddeaddeaddeaddeaddeaddead",
      "salt": "0x0408324d90b7dec89a23b3dc315c72460e707f24b193d9337817f6afa5a1f650",
      "assetIds": []
    },
    {
      "x": 318,
      "y": 17,
      "size": 1,
      "price": "905000000000000000000",
      "reserved": "0xdeaddeaddeaddeaddeaddeaddeaddeaddeaddead",
      "salt": "0x59d808cb8cb1f49bc18fa7ff6d6cc80a3e207aabf7fcb6c06df9461d4da4c042",
      "assetIds": []
    },
    {
      "x": 318,
      "y": 16,
      "size": 1,
      "price": "905000000000000000000",
      "reserved": "0xdeaddeaddeaddeaddeaddeaddeaddeaddeaddead",
      "salt": "0xb784aaf8034cc3945c3b8e31e2ac3ae8ea979db5eb7d116a6cff06603031bf5d",
      "assetIds": []
    },
    {
      "x": 318,
      "y": 15,
      "size": 1,
      "price": "905000000000000000000",
      "reserved": "0xdeaddeaddeaddeaddeaddeaddeaddeaddeaddead",
      "salt": "0x9f35c9df37163895f2edf514a23f3803665f32ab2468ee3338547408b24270e0",
      "assetIds": []
    },
    {
      "x": 318,
      "y": 14,
      "size": 1,
      "price": "905000000000000000000",
      "reserved": "0xdeaddeaddeaddeaddeaddeaddeaddeaddeaddead",
      "salt": "0xe8eb2a204e427beedca0eccc66b30ff7ea01ac8d4959d24a00c7c43154efaa7f",
      "assetIds": []
    },
    {
      "x": 319,
      "y": 14,
      "size": 1,
      "price": "905000000000000000000",
      "reserved": "0xdeaddeaddeaddeaddeaddeaddeaddeaddeaddead",
      "salt": "0xf0ae6f7899cde64220ecaa8666bfe9aae195aac9ff9f3e5887b7f40fa811a582",
      "assetIds": []
    },
    {
      "x": 319,
      "y": 13,
      "size": 1,
      "price": "905000000000000000000",
      "reserved": "0xdeaddeaddeaddeaddeaddeaddeaddeaddeaddead",
      "salt": "0x14f639d49e1756da9ba9487bc101561058d19c00b81d01785eb68d0535a16c3e",
      "assetIds": []
    },
    {
      "x": 319,
      "y": 12,
      "size": 1,
      "price": "905000000000000000000",
      "reserved": "0xdeaddeaddeaddeaddeaddeaddeaddeaddeaddead",
      "salt": "0xcf2fc7020ac46d8292766e75bf63e453e967f0fcbdb4a973d7cc54ccb9c02e46",
      "assetIds": []
    },
    {
      "x": 319,
      "y": 11,
      "size": 1,
      "price": "905000000000000000000",
      "reserved": "0xdeaddeaddeaddeaddeaddeaddeaddeaddeaddead",
      "salt": "0xda462a39d0db8298e7e5b11f8dbc772119bc50eba456623e0b883ce1c99b0a3d",
      "assetIds": []
    },
    {
      "x": 319,
      "y": 10,
      "size": 1,
      "price": "905000000000000000000",
      "reserved": "0xdeaddeaddeaddeaddeaddeaddeaddeaddeaddead",
      "salt": "0x89696a4d0b72dc4f32423e4f52bef36c40a1b029c78f13ba7fe5c5d61ec30b9d",
      "assetIds": []
    },
    {
      "x": 319,
      "y": 9,
      "size": 1,
      "price": "905000000000000000000",
      "reserved": "0xdeaddeaddeaddeaddeaddeaddeaddeaddeaddead",
      "salt": "0x2483289612a47127fe7aa2e68e24713f2dfb450c2cbc5dd2a0ab08327972c70a",
      "assetIds": []
    },
    {
      "x": 318,
      "y": 13,
      "size": 1,
      "price": "905000000000000000000",
      "reserved": "0xdeaddeaddeaddeaddeaddeaddeaddeaddeaddead",
      "salt": "0x1b08039935351afa6cad9420e0cde82b95d0397fc04ff414db56798d9bd2e1b0",
      "assetIds": []
    },
    {
      "x": 318,
      "y": 12,
      "size": 1,
      "price": "905000000000000000000",
      "reserved": "0xdeaddeaddeaddeaddeaddeaddeaddeaddeaddead",
      "salt": "0x52c9fbae0b6c8ba4df89cbbfe019c9c64dcad00d06b03adf405e04eb62c972b3",
      "assetIds": []
    },
    {
      "x": 318,
      "y": 11,
      "size": 1,
      "price": "905000000000000000000",
      "reserved": "0xdeaddeaddeaddeaddeaddeaddeaddeaddeaddead",
      "salt": "0x88332876348412c6156b9b0cbaeed959abdddfadcdcb7e8fa7948e20fc4dc51e",
      "assetIds": []
    },
    {
      "x": 318,
      "y": 9,
      "size": 1,
      "price": "905000000000000000000",
      "reserved": "0xdeaddeaddeaddeaddeaddeaddeaddeaddeaddead",
      "salt": "0xbf243d03cdb0547caed5d4bcd56a931eb168ec8911f590d1b34aeefe71d566af",
      "assetIds": []
    },
    {
      "x": 318,
      "y": 10,
      "size": 1,
      "price": "905000000000000000000",
      "reserved": "0xdeaddeaddeaddeaddeaddeaddeaddeaddeaddead",
      "salt": "0x23f4263ffad9bf1cbc50af14127d71092f756aa158e1993ef3815ae34c453d9f",
      "assetIds": []
    },
    {
      "x": 320,
      "y": 9,
      "size": 1,
      "price": "905000000000000000000",
      "reserved": "0xdeaddeaddeaddeaddeaddeaddeaddeaddeaddead",
      "salt": "0x1c9e38156d37d3ab2c1eb12be6345b5c8899b191b25a52dbff3d575c0dd4ab02",
      "assetIds": []
    },
    {
      "x": 321,
      "y": 9,
      "size": 1,
      "price": "905000000000000000000",
      "reserved": "0xdeaddeaddeaddeaddeaddeaddeaddeaddeaddead",
      "salt": "0x4c430ab50b78bb223f38bf01e6197eacac1cc1bb4a6de002772b6f3525261753",
      "assetIds": []
    },
    {
      "x": 322,
      "y": 9,
      "size": 1,
      "price": "905000000000000000000",
      "reserved": "0xdeaddeaddeaddeaddeaddeaddeaddeaddeaddead",
      "salt": "0x1ee600c7d2cab0f16b249db8548c2cccad1aad7e5cfad01bf176eb27d2831fc4",
      "assetIds": []
    },
    {
      "x": 323,
      "y": 9,
      "size": 1,
      "price": "905000000000000000000",
      "reserved": "0xdeaddeaddeaddeaddeaddeaddeaddeaddeaddead",
      "salt": "0x9e3331c491901fa2f4aec188e3b35a2200c45fce2f0989c992afe3bf6c806d52",
      "assetIds": []
    },
    {
      "x": 323,
      "y": 10,
      "size": 1,
      "price": "905000000000000000000",
      "reserved": "0xdeaddeaddeaddeaddeaddeaddeaddeaddeaddead",
      "salt": "0x8a20496ce6f4945ae9a9f867e623a5ff6b6679250cbdeebf96b11517781451c8",
      "assetIds": []
    },
    {
      "x": 323,
      "y": 11,
      "size": 1,
      "price": "905000000000000000000",
      "reserved": "0xdeaddeaddeaddeaddeaddeaddeaddeaddeaddead",
      "salt": "0x50c189e03c3fe68c6b7cba913f4c1ebd39e56d122dd5b37f01df9224962c0381",
      "assetIds": []
    },
    {
      "x": 323,
      "y": 12,
      "size": 1,
      "price": "905000000000000000000",
      "reserved": "0xdeaddeaddeaddeaddeaddeaddeaddeaddeaddead",
      "salt": "0x90824b54b4859e6f3b8c8129aa7d11ad07f6b10b8f25ec29c8602b0f67fcc174",
      "assetIds": []
    },
    {
      "x": 323,
      "y": 13,
      "size": 1,
      "price": "905000000000000000000",
      "reserved": "0xdeaddeaddeaddeaddeaddeaddeaddeaddeaddead",
      "salt": "0x604b6c38b54f4f75bbcacb55b65ab61ec02857d40158a1a35132a6ab14d25a47",
      "assetIds": []
    },
    {
      "x": 323,
      "y": 14,
      "size": 1,
      "price": "905000000000000000000",
      "reserved": "0xdeaddeaddeaddeaddeaddeaddeaddeaddeaddead",
      "salt": "0x1c0bca46e11c529275071025015a681844cce75f21f878538fda281bfab4c58c",
      "assetIds": []
    },
    {
      "x": 322,
      "y": 14,
      "size": 1,
      "price": "905000000000000000000",
      "reserved": "0xdeaddeaddeaddeaddeaddeaddeaddeaddeaddead",
      "salt": "0xddde22f940cae73c7d253a57213fb0155cff9c5c1495d5ce35bc058398c18a3a",
      "assetIds": []
    },
    {
      "x": 321,
      "y": 14,
      "size": 1,
      "price": "905000000000000000000",
      "reserved": "0xdeaddeaddeaddeaddeaddeaddeaddeaddeaddead",
      "salt": "0xdb01d12850495e96258af9d6d01fefd159fb6b220ef99372cb26149671cbc46d",
      "assetIds": []
    },
    {
      "x": 320,
      "y": 14,
      "size": 1,
      "price": "905000000000000000000",
      "reserved": "0xdeaddeaddeaddeaddeaddeaddeaddeaddeaddead",
      "salt": "0xb7e0a6cbe538f5254acd06b5133064d11aeea2f97fb74cf1750411b229086c02",
      "assetIds": []
    },
    {
      "x": 320,
      "y": 15,
      "size": 1,
      "price": "905000000000000000000",
      "reserved": "0xdeaddeaddeaddeaddeaddeaddeaddeaddeaddead",
      "salt": "0xbd5f7aa9dee74498ba3ecb2edb60e6055e633b9d40fec2f227de2aefb062efc9",
      "assetIds": []
    },
    {
      "x": 320,
      "y": 16,
      "size": 1,
      "price": "905000000000000000000",
      "reserved": "0xdeaddeaddeaddeaddeaddeaddeaddeaddeaddead",
      "salt": "0xb7e8088701d8cb997952ab595aac26bb9adf67c9befb64bc2f6d5df1801d03cc",
      "assetIds": []
    },
    {
      "x": 319,
      "y": 16,
      "size": 1,
      "price": "905000000000000000000",
      "reserved": "0xdeaddeaddeaddeaddeaddeaddeaddeaddeaddead",
      "salt": "0x91419e6bfac1dd5d2f5d6426f0f5b6f6f504f5dc562b11e1b1e337ac3cb4ed80",
      "assetIds": []
    },
    {
      "x": 319,
      "y": 15,
      "size": 1,
      "price": "905000000000000000000",
      "reserved": "0xdeaddeaddeaddeaddeaddeaddeaddeaddeaddead",
      "salt": "0x585ac995809a2516ea16c07400778a39070b64253c2be3c8239cfd5ded43260f",
      "assetIds": []
    },
    {
      "x": 320,
      "y": 12,
      "size": 1,
      "price": "905000000000000000000",
      "reserved": "0xdeaddeaddeaddeaddeaddeaddeaddeaddeaddead",
      "salt": "0xe9fc1bb20d1161b75c3c7bd2606ef380f0bcd9b819aefbfec9303c51ad375877",
      "assetIds": []
    },
    {
      "x": 321,
      "y": 12,
      "size": 1,
      "price": "905000000000000000000",
      "reserved": "0xdeaddeaddeaddeaddeaddeaddeaddeaddeaddead",
      "salt": "0x94b4669a9c69304632c927496c21aaa31080a5e4aabb37f51c41918bc3464087",
      "assetIds": []
    },
    {
      "x": 322,
      "y": 12,
      "size": 1,
      "price": "905000000000000000000",
      "reserved": "0xdeaddeaddeaddeaddeaddeaddeaddeaddeaddead",
      "salt": "0x6a77e5f044edec2316065c235217814aa98972f762d3fd813259ec2ffbfd10eb",
      "assetIds": []
    },
    {
      "x": 322,
      "y": 13,
      "size": 1,
      "price": "905000000000000000000",
      "reserved": "0xdeaddeaddeaddeaddeaddeaddeaddeaddeaddead",
      "salt": "0x0f56c5a534ee489767b95abd24cb0d67e0654d336847b5b428d5eaa6ec772964",
      "assetIds": []
    },
    {
      "x": 321,
      "y": 13,
      "size": 1,
      "price": "905000000000000000000",
      "reserved": "0xdeaddeaddeaddeaddeaddeaddeaddeaddeaddead",
      "salt": "0x1af572a16f873e6342cf9b20614e943b2ed6681d87398b74638fde38b625af47",
      "assetIds": []
    },
    {
      "x": 320,
      "y": 13,
      "size": 1,
      "price": "905000000000000000000",
      "reserved": "0xdeaddeaddeaddeaddeaddeaddeaddeaddeaddead",
      "salt": "0xc868ceeaa686568af818bdb401c46ea0017b05d6eafed67882edd4ede77047fc",
      "assetIds": []
    },
    {
      "x": 320,
      "y": 11,
      "size": 1,
      "price": "905000000000000000000",
      "reserved": "0xdeaddeaddeaddeaddeaddeaddeaddeaddeaddead",
      "salt": "0x1b6da293af7bfcfe7a6c0a2ea43da71ae4a03a94865cef1f8436b0110e098dd6",
      "assetIds": []
    },
    {
      "x": 321,
      "y": 11,
      "size": 1,
      "price": "905000000000000000000",
      "reserved": "0xdeaddeaddeaddeaddeaddeaddeaddeaddeaddead",
      "salt": "0x98e54eafe2717110b968839578552846e407782c310d422d70882756bf7d4ee5",
      "assetIds": []
    },
    {
      "x": 322,
      "y": 11,
      "size": 1,
      "price": "905000000000000000000",
      "reserved": "0xdeaddeaddeaddeaddeaddeaddeaddeaddeaddead",
      "salt": "0x0164b9a2ba1d1ee0e12a66ed67938466c09516f9eeb507ed44e37a55183e2012",
      "assetIds": []
    },
    {
      "x": 322,
      "y": 10,
      "size": 1,
      "price": "905000000000000000000",
      "reserved": "0xdeaddeaddeaddeaddeaddeaddeaddeaddeaddead",
      "salt": "0xd17e58878c22d50dc605cc7d4f734e0a5abded502553a06cf2c434cd7d6ef34a",
      "assetIds": []
    },
    {
      "x": 321,
      "y": 10,
      "size": 1,
      "price": "905000000000000000000",
      "reserved": "0xdeaddeaddeaddeaddeaddeaddeaddeaddeaddead",
      "salt": "0x34084f0ec101218636702bb81898afb0ada979acf72e9b1f9a6405e3b4583080",
      "assetIds": []
    },
    {
      "x": 320,
      "y": 10,
      "size": 1,
      "price": "905000000000000000000",
      "reserved": "0xdeaddeaddeaddeaddeaddeaddeaddeaddeaddead",
      "salt": "0xd6811e6460e1540e9663f40fabb14bc303a22897d17bc3a4a753a23fa0c9db48",
      "assetIds": []
    },
    {
      "x": 324,
      "y": 8,
      "size": 1,
      "price": "905000000000000000000",
      "reserved": "0xdeaddeaddeaddeaddeaddeaddeaddeaddeaddead",
      "salt": "0x88bbb420b18588ee91355fe5fff28d30e50b49283876faa476f639780326d9c8",
      "assetIds": []
    },
    {
      "x": 325,
      "y": 8,
      "size": 1,
      "price": "905000000000000000000",
      "reserved": "0xdeaddeaddeaddeaddeaddeaddeaddeaddeaddead",
      "salt": "0x186e90f2fb432293f75cd69d62e6e3460064b3e26313b247a047e336da3783dc",
      "assetIds": []
    },
    {
      "x": 326,
      "y": 8,
      "size": 1,
      "price": "905000000000000000000",
      "reserved": "0xdeaddeaddeaddeaddeaddeaddeaddeaddeaddead",
      "salt": "0x6a2086c7d23c63fb9404a0fd375c532b2a79cc5e45d7e98177807282ee1d1795",
      "assetIds": []
    },
    {
      "x": 326,
      "y": 7,
      "size": 1,
      "price": "905000000000000000000",
      "reserved": "0xdeaddeaddeaddeaddeaddeaddeaddeaddeaddead",
      "salt": "0xca053f8b5cc1d56dbfa7e24aa8cb2c3bd30a6940cc87fceef7782292872a5891",
      "assetIds": []
    },
    {
      "x": 325,
      "y": 7,
      "size": 1,
      "price": "905000000000000000000",
      "reserved": "0xdeaddeaddeaddeaddeaddeaddeaddeaddeaddead",
      "salt": "0xb7831a750f37c2de766dd9fc346ac98a91424a3a05b2a6809b3c4ad805e5c3d6",
      "assetIds": []
    },
    {
      "x": 325,
      "y": 6,
      "size": 1,
      "price": "905000000000000000000",
      "reserved": "0xdeaddeaddeaddeaddeaddeaddeaddeaddeaddead",
      "salt": "0x9045e62be88b9d046eabfcd5908c1e5563c0a59ce2e0f0e4e5979ccd37aa03b5",
      "assetIds": []
    },
    {
      "x": 324,
      "y": 6,
      "size": 1,
      "price": "905000000000000000000",
      "reserved": "0xdeaddeaddeaddeaddeaddeaddeaddeaddeaddead",
      "salt": "0x91e0a1dcfb9c53c3546ce3ee583df9be85c9b19f014f02e4d34b99f12f61ed7d",
      "assetIds": []
    },
    {
      "x": 324,
      "y": 7,
      "size": 1,
      "price": "905000000000000000000",
      "reserved": "0xdeaddeaddeaddeaddeaddeaddeaddeaddeaddead",
      "salt": "0x96c0ff23e0ac3170b01bf9a395f8833a5e823e1f1b8e6d849f51c01b21a4d2d3",
      "assetIds": []
    },
    {
      "x": 326,
      "y": 6,
      "size": 1,
      "price": "905000000000000000000",
      "reserved": "0xdeaddeaddeaddeaddeaddeaddeaddeaddeaddead",
      "salt": "0x13d30eb4c3971dc770df0237676aa5b37596659578a60fc8e2f5ffb6993f5454",
      "assetIds": []
    },
    {
      "x": 320,
      "y": 5,
      "size": 1,
      "price": "905000000000000000000",
      "reserved": "0xdeaddeaddeaddeaddeaddeaddeaddeaddeaddead",
      "salt": "0x4b0f6d6961e4bfa6821c6eb9c61f8f58dade8dbc71d581eae6c3bc6ef1ece42d",
      "assetIds": []
    },
    {
      "x": 319,
      "y": 5,
      "size": 1,
      "price": "905000000000000000000",
      "reserved": "0xdeaddeaddeaddeaddeaddeaddeaddeaddeaddead",
      "salt": "0x939bc2c923db03e5212ec2fec52cbf64edd916f4b588b2cd4771ce99fa4a5fc6",
      "assetIds": []
    },
    {
      "x": 318,
      "y": 5,
      "size": 1,
      "price": "905000000000000000000",
      "reserved": "0xdeaddeaddeaddeaddeaddeaddeaddeaddeaddead",
      "salt": "0xfe458098e02287d17efa91e85dba9257bee039da7f327e7af1842580b479c73b",
      "assetIds": []
    },
    {
      "x": 318,
      "y": 4,
      "size": 1,
      "price": "905000000000000000000",
      "reserved": "0xdeaddeaddeaddeaddeaddeaddeaddeaddeaddead",
      "salt": "0x8ab5450404e379da576b5018693352e82e0f64f1d0760f0ad5089283902191cd",
      "assetIds": []
    },
    {
      "x": 318,
      "y": 3,
      "size": 1,
      "price": "905000000000000000000",
      "reserved": "0xdeaddeaddeaddeaddeaddeaddeaddeaddeaddead",
      "salt": "0xfac853325ba095ac8c3c0344899f441a6aa8250d058d239456db34f29358cb21",
      "assetIds": []
    },
    {
      "x": 319,
      "y": 3,
      "size": 1,
      "price": "905000000000000000000",
      "reserved": "0xdeaddeaddeaddeaddeaddeaddeaddeaddeaddead",
      "salt": "0x6e3d65884a205ffcec1651151a798b8d86ed54ec18f8622b8cc91a21a9d7c856",
      "assetIds": []
    },
    {
      "x": 319,
      "y": 2,
      "size": 1,
      "price": "905000000000000000000",
      "reserved": "0xdeaddeaddeaddeaddeaddeaddeaddeaddeaddead",
      "salt": "0x073ee0601cdce6406509c56b0005c3ce836efe6f9f309666818ec6b1cf52901b",
      "assetIds": []
    },
    {
      "x": 319,
      "y": 1,
      "size": 1,
      "price": "905000000000000000000",
      "reserved": "0xdeaddeaddeaddeaddeaddeaddeaddeaddeaddead",
      "salt": "0x4783a8d5f69bf5e629c146e314cb643e2fddfe63572fb1cd38527f80c221428a",
      "assetIds": []
    },
    {
      "x": 319,
      "y": 0,
      "size": 1,
      "price": "905000000000000000000",
      "reserved": "0xdeaddeaddeaddeaddeaddeaddeaddeaddeaddead",
      "salt": "0x44f531bb65f7812fa0624b33948754b4b16c70512158ffd78e5c91e606722362",
      "assetIds": []
    },
    {
      "x": 318,
      "y": 0,
      "size": 1,
      "price": "905000000000000000000",
      "reserved": "0xdeaddeaddeaddeaddeaddeaddeaddeaddeaddead",
      "salt": "0x755a168ac5a6f5e5111b5bb2542c175e6c54b7ad78a4f49f95e2a5701eba819f",
      "assetIds": []
    },
    {
      "x": 318,
      "y": 1,
      "size": 1,
      "price": "905000000000000000000",
      "reserved": "0xdeaddeaddeaddeaddeaddeaddeaddeaddeaddead",
      "salt": "0x287dbf934c261cd73869e1bacdf420d25377ae4bf9ee2cb951c42be35103988b",
      "assetIds": []
    },
    {
      "x": 318,
      "y": 2,
      "size": 1,
      "price": "905000000000000000000",
      "reserved": "0xdeaddeaddeaddeaddeaddeaddeaddeaddeaddead",
      "salt": "0x56e4803d1265e951a71f75f68713d46d9ed3705b6cf89a1984ed54cf54403b83",
      "assetIds": []
    },
    {
      "x": 319,
      "y": 4,
      "size": 1,
      "price": "905000000000000000000",
      "reserved": "0xdeaddeaddeaddeaddeaddeaddeaddeaddeaddead",
      "salt": "0x20230192f2646eba5ee1a06225079a290f380b8877f27b16d64fac5761ec2f93",
      "assetIds": []
    },
    {
      "x": 320,
      "y": 3,
      "size": 1,
      "price": "905000000000000000000",
      "reserved": "0xdeaddeaddeaddeaddeaddeaddeaddeaddeaddead",
      "salt": "0x12baa2cc2eee34a057bf5adf4b4047071ccd3ffe2f9ddf624032671c6be31105",
      "assetIds": []
    },
    {
      "x": 320,
      "y": 4,
      "size": 1,
      "price": "905000000000000000000",
      "reserved": "0xdeaddeaddeaddeaddeaddeaddeaddeaddeaddead",
      "salt": "0xe9abac084db917d5108b046b07cd27d95a53ba66d45c7afebeb7142e8da6442b",
      "assetIds": []
    },
    {
      "x": 320,
      "y": 2,
      "size": 1,
      "price": "905000000000000000000",
      "reserved": "0xdeaddeaddeaddeaddeaddeaddeaddeaddeaddead",
      "salt": "0x555dc5fa772ce8b87e639521e5ed20267d7dfb0a3afe95ccda30822499ba1835",
      "assetIds": []
    },
    {
      "x": 320,
      "y": 1,
      "size": 1,
      "price": "905000000000000000000",
      "reserved": "0xdeaddeaddeaddeaddeaddeaddeaddeaddeaddead",
      "salt": "0xc30a0b40fdde5a5b53402ce728ea580107aa957ba42030a6cf0083440a8dcdc0",
      "assetIds": []
    },
    {
      "x": 320,
      "y": 0,
      "size": 1,
      "price": "905000000000000000000",
      "reserved": "0xdeaddeaddeaddeaddeaddeaddeaddeaddeaddead",
      "salt": "0x57a2a370c58d363655f86f076c9eb77057b88e715c88e89108baecac6b69c968",
      "assetIds": []
    },
    {
      "x": 321,
      "y": 0,
      "size": 1,
      "price": "905000000000000000000",
      "reserved": "0xdeaddeaddeaddeaddeaddeaddeaddeaddeaddead",
      "salt": "0xb830db614f9d644ad8ed4bffb2e642a416a0da51c4c58eb17c50e4af2c336dd5",
      "assetIds": []
    },
    {
      "x": 326,
      "y": 0,
      "size": 1,
      "price": "905000000000000000000",
      "reserved": "0xdeaddeaddeaddeaddeaddeaddeaddeaddeaddead",
      "salt": "0x775e94dbaa4d7a260ae8f4f53d8f4bbab2b764ac70d8bcd20242bd9ceecd361f",
      "assetIds": []
    },
    {
      "x": 322,
      "y": 0,
      "size": 1,
      "price": "905000000000000000000",
      "reserved": "0xdeaddeaddeaddeaddeaddeaddeaddeaddeaddead",
      "salt": "0x98aa9d9a5b02b8c6547822586c2167ad822477589d0f42a809e7eff84a2e0544",
      "assetIds": []
    },
    {
      "x": 323,
      "y": 0,
      "size": 1,
      "price": "905000000000000000000",
      "reserved": "0xdeaddeaddeaddeaddeaddeaddeaddeaddeaddead",
      "salt": "0x03475da2f716e94eb5489ea707c8f29f13cdfc62f1ead2e002b00cbfa0d5c4d8",
      "assetIds": []
    },
    {
      "x": 328,
      "y": 1,
      "size": 1,
      "price": "905000000000000000000",
      "reserved": "0xdeaddeaddeaddeaddeaddeaddeaddeaddeaddead",
      "salt": "0x0adc42023e680c8e17355d60b729235dfd6e1991a7ae213a521ec757105a1d6a",
      "assetIds": []
    },
    {
      "x": 327,
      "y": 1,
      "size": 1,
      "price": "905000000000000000000",
      "reserved": "0xdeaddeaddeaddeaddeaddeaddeaddeaddeaddead",
      "salt": "0x8ab40a7c68c0090ab5ec26e5a75d22764040bd2ac2db2349a5ad6c184fc41bbd",
      "assetIds": []
    },
    {
      "x": 326,
      "y": 1,
      "size": 1,
      "price": "905000000000000000000",
      "reserved": "0xdeaddeaddeaddeaddeaddeaddeaddeaddeaddead",
      "salt": "0x355b49efcf342bcb0e1d7e29c37a33e909bea87b5528ec191b21029ee5ad6652",
      "assetIds": []
    },
    {
      "x": 325,
      "y": 1,
      "size": 1,
      "price": "905000000000000000000",
      "reserved": "0xdeaddeaddeaddeaddeaddeaddeaddeaddeaddead",
      "salt": "0x74f2f70717aa00bd814d8756f2b24bf97d2a42d3d3cd237fdf5b3f6b9bc383fb",
      "assetIds": []
    },
    {
      "x": 324,
      "y": 1,
      "size": 1,
      "price": "905000000000000000000",
      "reserved": "0xdeaddeaddeaddeaddeaddeaddeaddeaddeaddead",
      "salt": "0x7545f03642b850b4a7b199d2f06cfbcc0559a2fe300942c6445ea7cfec8557c6",
      "assetIds": []
    },
    {
      "x": 323,
      "y": 1,
      "size": 1,
      "price": "905000000000000000000",
      "reserved": "0xdeaddeaddeaddeaddeaddeaddeaddeaddeaddead",
      "salt": "0xabdff010e1948e78f719947ab9896ee6b2de6a09d6211725b3d31d2baa954a08",
      "assetIds": []
    },
    {
      "x": 323,
      "y": 2,
      "size": 1,
      "price": "905000000000000000000",
      "reserved": "0xdeaddeaddeaddeaddeaddeaddeaddeaddeaddead",
      "salt": "0xda540c24e4c2c9c4c4e4db8390b75d085682f18602d8bf41e9d5af5bc6664d8c",
      "assetIds": []
    },
    {
      "x": 322,
      "y": 2,
      "size": 1,
      "price": "905000000000000000000",
      "reserved": "0xdeaddeaddeaddeaddeaddeaddeaddeaddeaddead",
      "salt": "0xde039c9490c1b3c90f0d7e26b378a7c63004e30bce6fd27ebe822361a9ab910b",
      "assetIds": []
    },
    {
      "x": 321,
      "y": 2,
      "size": 1,
      "price": "905000000000000000000",
      "reserved": "0xdeaddeaddeaddeaddeaddeaddeaddeaddeaddead",
      "salt": "0x92b7779a290d9c77c56136360f136c6b5dbae55202141ad5c42c4fbd95c01da4",
      "assetIds": []
    },
    {
      "x": 322,
      "y": 1,
      "size": 1,
      "price": "905000000000000000000",
      "reserved": "0xdeaddeaddeaddeaddeaddeaddeaddeaddeaddead",
      "salt": "0x5b5925a12619ad08c8320f5cd5ccffa8b706fe988a1bde6c4268c9f7546a05be",
      "assetIds": []
    },
    {
      "x": 321,
      "y": 1,
      "size": 1,
      "price": "905000000000000000000",
      "reserved": "0xdeaddeaddeaddeaddeaddeaddeaddeaddeaddead",
      "salt": "0xd1ba01ae909af4534f7301d9f338f99b679ca2961ab1f52609c856792fb3e682",
      "assetIds": []
    },
    {
      "x": 324,
      "y": 0,
      "size": 1,
      "price": "905000000000000000000",
      "reserved": "0xdeaddeaddeaddeaddeaddeaddeaddeaddeaddead",
      "salt": "0x2471aa27a10172174c6e3c090cd910055a02c9d6cf87b8238fc647f308fcad68",
      "assetIds": []
    },
    {
      "x": 325,
      "y": 0,
      "size": 1,
      "price": "905000000000000000000",
      "reserved": "0xdeaddeaddeaddeaddeaddeaddeaddeaddeaddead",
      "salt": "0x075ac09815f2cb3b79ed029fef95a7d26d1a6da6f3c145b352ef0a1cb6ffb62b",
      "assetIds": []
    },
    {
      "x": 327,
      "y": 0,
      "size": 1,
      "price": "905000000000000000000",
      "reserved": "0xdeaddeaddeaddeaddeaddeaddeaddeaddeaddead",
      "salt": "0x910eb667cc63b7af3b2fe13b9eacd1105ff33d53786be1d205bbdffba667aa56",
      "assetIds": []
    },
    {
      "x": 328,
      "y": 0,
      "size": 1,
      "price": "905000000000000000000",
      "reserved": "0xdeaddeaddeaddeaddeaddeaddeaddeaddeaddead",
      "salt": "0x1f51cf4c76811b5ba9a8e1d160bfd095f7d1874eb8202c13f2027d9e7f6051f5",
      "assetIds": []
    },
    {
      "x": 329,
      "y": 0,
      "size": 1,
      "price": "905000000000000000000",
      "reserved": "0xdeaddeaddeaddeaddeaddeaddeaddeaddeaddead",
      "salt": "0x4044357c48c94c3115e989cc7dab27bbbe1e3c5e665c4588596553f6093984de",
      "assetIds": []
    },
    {
      "x": 329,
      "y": 2,
      "size": 1,
      "price": "905000000000000000000",
      "reserved": "0xdeaddeaddeaddeaddeaddeaddeaddeaddeaddead",
      "salt": "0x04fac9058eea638e1231dc75d57416d4342285a5838392c886cd12b906e5b046",
      "assetIds": []
    },
    {
      "x": 324,
      "y": 2,
      "size": 1,
      "price": "905000000000000000000",
      "reserved": "0xdeaddeaddeaddeaddeaddeaddeaddeaddeaddead",
      "salt": "0x78b1bfe66523d828a5fa995b31b4966c7cde1aedb142043af7203721f2c836f5",
      "assetIds": []
    },
    {
      "x": 325,
      "y": 2,
      "size": 1,
      "price": "905000000000000000000",
      "reserved": "0xdeaddeaddeaddeaddeaddeaddeaddeaddeaddead",
      "salt": "0x80d808d224be6c17bebfeee9cc0c809124eea2f107544932c434e16a824d0928",
      "assetIds": []
    },
    {
      "x": 326,
      "y": 2,
      "size": 1,
      "price": "905000000000000000000",
      "reserved": "0xdeaddeaddeaddeaddeaddeaddeaddeaddeaddead",
      "salt": "0x50acbc89c2cf86c885f127a29db3e5b168cf4261943b509102f0cbf86c02ac6a",
      "assetIds": []
    },
    {
      "x": 327,
      "y": 2,
      "size": 1,
      "price": "905000000000000000000",
      "reserved": "0xdeaddeaddeaddeaddeaddeaddeaddeaddeaddead",
      "salt": "0xc29394c1bbf05e5f8ea3e257a0331192b0c5b1ad8bfad227fddffe95407fec27",
      "assetIds": []
    },
    {
      "x": 328,
      "y": 2,
      "size": 1,
      "price": "905000000000000000000",
      "reserved": "0xdeaddeaddeaddeaddeaddeaddeaddeaddeaddead",
      "salt": "0x75898efe00a60e029561eea7884273f4bcfc4c7ab9f8b1c95943d30fd3859928",
      "assetIds": []
    },
    {
      "x": 329,
      "y": 1,
      "size": 1,
      "price": "905000000000000000000",
      "reserved": "0xdeaddeaddeaddeaddeaddeaddeaddeaddeaddead",
      "salt": "0x402785259d086677b4d5144952f2ad42dda1c02a44bcb7b20d714711a777d23d",
      "assetIds": []
    },
    {
      "x": 332,
      "y": 5,
      "size": 1,
      "price": "905000000000000000000",
      "reserved": "0xdeaddeaddeaddeaddeaddeaddeaddeaddeaddead",
      "salt": "0x6aaaaa310365f16ae14969adc3aa72b687c21b26df8350d418dfe97ea551e5ca",
      "assetIds": []
    },
    {
      "x": 332,
      "y": 4,
      "size": 1,
      "price": "905000000000000000000",
      "reserved": "0xdeaddeaddeaddeaddeaddeaddeaddeaddeaddead",
      "salt": "0x1fe12ed63ea9a543cdc412fb701c0de943f3af9e8dadc5227b6a76b4dc170e23",
      "assetIds": []
    },
    {
      "x": 332,
      "y": 3,
      "size": 1,
      "price": "905000000000000000000",
      "reserved": "0xdeaddeaddeaddeaddeaddeaddeaddeaddeaddead",
      "salt": "0x94fe4c217e3f7746b75225571f9d87006f56412bbe615775453761b899de12cb",
      "assetIds": []
    },
    {
      "x": 331,
      "y": 3,
      "size": 1,
      "price": "905000000000000000000",
      "reserved": "0xdeaddeaddeaddeaddeaddeaddeaddeaddeaddead",
      "salt": "0xe8f09f2cd4d9ce15f310f72f98a1c3e60d4676717d7031752f84f744c5f34108",
      "assetIds": []
    },
    {
      "x": 330,
      "y": 3,
      "size": 1,
      "price": "905000000000000000000",
      "reserved": "0xdeaddeaddeaddeaddeaddeaddeaddeaddeaddead",
      "salt": "0xc84c12ab56cc157ae4442e70481de7be21f10414d735ab1aaf1a4a876b012bb5",
      "assetIds": []
    },
    {
      "x": 330,
      "y": 4,
      "size": 1,
      "price": "905000000000000000000",
      "reserved": "0xdeaddeaddeaddeaddeaddeaddeaddeaddeaddead",
      "salt": "0x890005f0d941fe015b6ddaea04c9bbb0459227faf4464395693563c9bcab0576",
      "assetIds": []
    },
    {
      "x": 330,
      "y": 5,
      "size": 1,
      "price": "905000000000000000000",
      "reserved": "0xdeaddeaddeaddeaddeaddeaddeaddeaddeaddead",
      "salt": "0x9b24bbfe60c89f23d3dc6cb7e00f4313ffd8c46d81735d5f6d937c8ff6246ae9",
      "assetIds": []
    },
    {
      "x": 331,
      "y": 5,
      "size": 1,
      "price": "905000000000000000000",
      "reserved": "0xdeaddeaddeaddeaddeaddeaddeaddeaddeaddead",
      "salt": "0xc4013a1848b61306159cf1b7baa3c0126d55e86a2f708dfd982f4ed26c616164",
      "assetIds": []
    },
    {
      "x": 331,
      "y": 4,
      "size": 1,
      "price": "905000000000000000000",
      "reserved": "0xdeaddeaddeaddeaddeaddeaddeaddeaddeaddead",
      "salt": "0x03836d92ce356efa0ace59c691382ce537f0024dc4340b1dbeb528c2d2c861a0",
      "assetIds": []
    },
    {
      "x": 369,
      "y": 12,
      "size": 3,
      "price": "7772000000000000000000",
      "reserved": "0xdeaddeaddeaddeaddeaddeaddeaddeaddeaddead",
      "salt": "0x5f15324ff1306091d55a9a238451eb7a8bef4cea5372abce917197e51a58b3b6",
      "assetIds": []
    },
    {
      "x": 369,
      "y": 15,
      "size": 3,
      "price": "7772000000000000000000",
      "reserved": "0xdeaddeaddeaddeaddeaddeaddeaddeaddeaddead",
      "salt": "0xd92f269ea90c97639d47181d55c742843986a1ac51707091bf45b92c5963d3ea",
      "assetIds": []
    },
    {
      "x": 372,
      "y": 15,
      "size": 3,
      "price": "7772000000000000000000",
      "reserved": "0xdeaddeaddeaddeaddeaddeaddeaddeaddeaddead",
      "salt": "0x8db41d43fee3b4b82cfe16fe3b6856b4ef655749541e477cfafacc12064831a6",
      "assetIds": []
    },
    {
      "x": 372,
      "y": 18,
      "size": 3,
      "price": "7772000000000000000000",
      "reserved": "0xdeaddeaddeaddeaddeaddeaddeaddeaddeaddead",
      "salt": "0xaed3e8fd53837657928fa09e79fe33e872acf5dbda2d053dd672533cf560e23e",
      "assetIds": []
    },
    {
      "x": 372,
      "y": 30,
      "size": 3,
      "price": "7772000000000000000000",
      "reserved": "0xdeaddeaddeaddeaddeaddeaddeaddeaddeaddead",
      "salt": "0xe57d92abab66960a6c12663a5812558a3d77b4ead7e795d9faf61b1fd99ac1eb",
      "assetIds": []
    },
    {
      "x": 372,
      "y": 33,
      "size": 3,
      "price": "7772000000000000000000",
      "reserved": "0xdeaddeaddeaddeaddeaddeaddeaddeaddeaddead",
      "salt": "0xfe9c6d72ab2140fc1ebb2bf0a5309f4b885b01e96f5473b4f114ac818192a56b",
      "assetIds": []
    },
    {
      "x": 366,
      "y": 42,
      "size": 3,
      "price": "7772000000000000000000",
      "reserved": "0xdeaddeaddeaddeaddeaddeaddeaddeaddeaddead",
      "salt": "0xd66f183fae0f586aed64718b2ccc1a90a7802cee9e7de9505babd508397f476c",
      "assetIds": []
    },
    {
      "x": 363,
      "y": 42,
      "size": 3,
      "price": "7772000000000000000000",
      "reserved": "0xdeaddeaddeaddeaddeaddeaddeaddeaddeaddead",
      "salt": "0x51273111a42d57e523cbe9d56672dee8f5f0833e7b675a810e76a33e835c824a",
      "assetIds": []
    },
    {
      "x": 351,
      "y": 39,
      "size": 3,
      "price": "7772000000000000000000",
      "reserved": "0xdeaddeaddeaddeaddeaddeaddeaddeaddeaddead",
      "salt": "0x69909673bac699720dae3c023c6494485b511d1c7168a780789324e27df34459",
      "assetIds": []
    },
    {
      "x": 348,
      "y": 39,
      "size": 3,
      "price": "7772000000000000000000",
      "reserved": "0xdeaddeaddeaddeaddeaddeaddeaddeaddeaddead",
      "salt": "0x2514195a74cbbad47e5403601487fd5e22a2b921964b26659ccf4531705fa95b",
      "assetIds": []
    },
    {
      "x": 348,
      "y": 36,
      "size": 3,
      "price": "7772000000000000000000",
      "reserved": "0xdeaddeaddeaddeaddeaddeaddeaddeaddeaddead",
      "salt": "0x7b76657c0d3ba0eb5e1284ef925aa1120e3cabf46a1e1d316e0c8055e46e0c0c",
      "assetIds": []
    },
    {
      "x": 333,
      "y": 36,
      "size": 3,
      "price": "7772000000000000000000",
      "reserved": "0xdeaddeaddeaddeaddeaddeaddeaddeaddeaddead",
      "salt": "0xf129d6da0e1caa452326390a21bd3fc7e992ee3f73c3439c56e49b7859c016db",
      "assetIds": []
    },
    {
      "x": 330,
      "y": 39,
      "size": 3,
      "price": "7772000000000000000000",
      "reserved": "0xdeaddeaddeaddeaddeaddeaddeaddeaddeaddead",
      "salt": "0x5e421c266508486db1c392b14023ca1fa12575e706e8456d1526ef6cd8b50a1b",
      "assetIds": []
    },
    {
      "x": 327,
      "y": 42,
      "size": 3,
      "price": "7772000000000000000000",
      "reserved": "0xdeaddeaddeaddeaddeaddeaddeaddeaddeaddead",
      "salt": "0x9c80f7acaa13f8e18657f99f99c1a35b92c41bc72dfe21f785c9e155a11e637f",
      "assetIds": []
    },
    {
      "x": 324,
      "y": 42,
      "size": 3,
      "price": "7772000000000000000000",
      "reserved": "0xdeaddeaddeaddeaddeaddeaddeaddeaddeaddead",
      "salt": "0x923d79f38073fec317aec00783d84aa3b05451effc5dbca857a8e28fd87b50b6",
      "assetIds": []
    },
    {
      "x": 321,
      "y": 42,
      "size": 3,
      "price": "7772000000000000000000",
      "reserved": "0xdeaddeaddeaddeaddeaddeaddeaddeaddeaddead",
      "salt": "0x69b14e2b16d68dfbf1658afdac6655de271631d48e8a9e87da69c4c97fb06e24",
      "assetIds": []
    },
    {
      "x": 327,
      "y": 45,
      "size": 3,
      "price": "7772000000000000000000",
      "reserved": "0xdeaddeaddeaddeaddeaddeaddeaddeaddeaddead",
      "salt": "0x07de94780410e90065dde1fb469bad9eef35873f96c4be5540072f671cd3cbdd",
      "assetIds": []
    },
    {
      "x": 321,
      "y": 33,
      "size": 3,
      "price": "7772000000000000000000",
      "reserved": "0xdeaddeaddeaddeaddeaddeaddeaddeaddeaddead",
      "salt": "0x20767cf7b52a21cfeff71a3316177bae33c815e0dc81f324bcd4a178c970030c",
      "assetIds": []
    },
    {
      "x": 321,
      "y": 30,
      "size": 3,
      "price": "7772000000000000000000",
      "reserved": "0xdeaddeaddeaddeaddeaddeaddeaddeaddeaddead",
      "salt": "0x282ce0216561c661a2273a226337a47734fa8babeaa7759f7cbe0d659a168d9d",
      "assetIds": []
    },
    {
      "x": 321,
      "y": 21,
      "size": 3,
      "price": "7772000000000000000000",
      "reserved": "0xdeaddeaddeaddeaddeaddeaddeaddeaddeaddead",
      "salt": "0x1d86774aa0b88e19f91ae0a5743d7cca5bbefa026308e38cff69d9cbc5c75c32",
      "assetIds": []
    },
    {
      "x": 324,
      "y": 21,
      "size": 3,
      "price": "7772000000000000000000",
      "reserved": "0xdeaddeaddeaddeaddeaddeaddeaddeaddeaddead",
      "salt": "0x74ae2fe5c31df700c42ccd6b2eaa1355cb0bdbe0d9f5ffc98e1ab80cafadea2f",
      "assetIds": []
    },
    {
      "x": 327,
      "y": 21,
      "size": 3,
      "price": "7772000000000000000000",
      "reserved": "0xdeaddeaddeaddeaddeaddeaddeaddeaddeaddead",
      "salt": "0x480ca2250cd7522384a9a451b84dd3eaa367142f89940cc53935306e74e7325a",
      "assetIds": []
    },
    {
      "x": 327,
      "y": 18,
      "size": 3,
      "price": "7772000000000000000000",
      "reserved": "0xdeaddeaddeaddeaddeaddeaddeaddeaddeaddead",
      "salt": "0x4e287b2fe08d6be6c89f7b38bf1c5d55c68beae0082f1ff1a2bf04bc7c4d7981",
      "assetIds": []
    },
    {
      "x": 321,
      "y": 18,
      "size": 3,
      "price": "7772000000000000000000",
      "reserved": "0xdeaddeaddeaddeaddeaddeaddeaddeaddeaddead",
      "salt": "0x9c904d795df7d6d8a59b00e65791f4e98bb927bad63f8dd4b17757a9279695e5",
      "assetIds": []
    },
    {
      "x": 321,
      "y": 15,
      "size": 3,
      "price": "7772000000000000000000",
      "reserved": "0xdeaddeaddeaddeaddeaddeaddeaddeaddeaddead",
      "salt": "0xeece94c0c302cb10b60c333c2a478856c41327fa079bd2ae05aec5fd0080faa5",
      "assetIds": []
    },
    {
      "x": 324,
      "y": 9,
      "size": 3,
      "price": "7772000000000000000000",
      "reserved": "0xdeaddeaddeaddeaddeaddeaddeaddeaddeaddead",
      "salt": "0xe0c60082502ea1fffc6d174b1da19ab4c0f68349cc07e35db3f97b6ca7997806",
      "assetIds": []
    },
    {
      "x": 327,
      "y": 9,
      "size": 3,
      "price": "7772000000000000000000",
      "reserved": "0xdeaddeaddeaddeaddeaddeaddeaddeaddeaddead",
      "salt": "0x589f8955052dac5b3d36ceebdcbb3b9920dc99299469f9d1364d105daed571f7",
      "assetIds": []
    },
    {
      "x": 327,
      "y": 6,
      "size": 3,
      "price": "7772000000000000000000",
      "reserved": "0xdeaddeaddeaddeaddeaddeaddeaddeaddeaddead",
      "salt": "0x0cbeae0ddd066c9bd5ccf99737e52fb9b648005c4f5121adb15744c931b8fb0e",
      "assetIds": []
    },
    {
      "x": 327,
      "y": 3,
      "size": 3,
      "price": "7772000000000000000000",
      "reserved": "0xdeaddeaddeaddeaddeaddeaddeaddeaddeaddead",
      "salt": "0x848734bea7063a5cf0cc6e2aeb4e046aeb36c3104c97b1d466758b1311e0974e",
      "assetIds": []
    },
    {
      "x": 324,
      "y": 3,
      "size": 3,
      "price": "7772000000000000000000",
      "reserved": "0xdeaddeaddeaddeaddeaddeaddeaddeaddeaddead",
      "salt": "0xf3f990d6c8b4d6db2bf0a71b73c45309edbd367eec40e7c91479ede3a7c7a031",
      "assetIds": []
    },
    {
      "x": 321,
      "y": 3,
      "size": 3,
      "price": "7772000000000000000000",
      "reserved": "0xdeaddeaddeaddeaddeaddeaddeaddeaddeaddead",
      "salt": "0xa631f9571b969dbd3784a8049eceb057560d5e8a681952db4219f78f372eddfc",
      "assetIds": []
    },
    {
      "x": 321,
      "y": 6,
      "size": 3,
      "price": "7772000000000000000000",
      "reserved": "0xdeaddeaddeaddeaddeaddeaddeaddeaddeaddead",
      "salt": "0xeeb9b1b3e0e398cadff59928735b0df520d73664a7fd37f02ee951d7bbee3c10",
      "assetIds": []
    },
    {
      "x": 318,
      "y": 6,
      "size": 3,
      "price": "7772000000000000000000",
      "reserved": "0xdeaddeaddeaddeaddeaddeaddeaddeaddeaddead",
      "salt": "0x1559a836975638a91e5e67af3d5f6d70cfe33133c167e370b1d08de2ffab7ca2",
      "assetIds": []
    },
    {
      "x": 330,
      "y": 0,
      "size": 3,
      "price": "7772000000000000000000",
      "reserved": "0xdeaddeaddeaddeaddeaddeaddeaddeaddeaddead",
      "salt": "0x9236366a963c9c65946f82a7c6be33df34b68fb22b42fbe707c2882aacb67abb",
      "assetIds": []
    },
    {
      "x": 333,
      "y": 0,
      "size": 3,
      "price": "7772000000000000000000",
      "reserved": "0xdeaddeaddeaddeaddeaddeaddeaddeaddeaddead",
      "salt": "0xc535c5cbe9835e108e5e02f9ca133da9cb68a249cd9c06267b3d77c4fe0de109",
      "assetIds": []
    },
    {
      "x": 333,
      "y": 3,
      "size": 3,
      "price": "7772000000000000000000",
      "reserved": "0xdeaddeaddeaddeaddeaddeaddeaddeaddeaddead",
      "salt": "0xcd172f2bbbaec6b0f4608225727bc054ecfc18621ecbacf58ab1191d60086642",
      "assetIds": []
    },
    {
      "x": 348,
      "y": 24,
      "size": 3,
      "price": "7772000000000000000000",
      "reserved": "0xdeaddeaddeaddeaddeaddeaddeaddeaddeaddead",
      "salt": "0x0258798ab941c599261956a36330a833468486ad6100217fa6144d9c80ab0fda",
      "assetIds": []
    },
    {
      "x": 348,
      "y": 27,
      "size": 3,
      "price": "7772000000000000000000",
      "reserved": "0xdeaddeaddeaddeaddeaddeaddeaddeaddeaddead",
      "salt": "0x5ff29e7957673297cae467d2e978795a91451341003b653c2d5f5543f7c2f3e4",
      "assetIds": []
    },
    {
      "x": 351,
      "y": 27,
      "size": 3,
      "price": "7772000000000000000000",
      "reserved": "0xdeaddeaddeaddeaddeaddeaddeaddeaddeaddead",
      "salt": "0x21d9273f748b7270c9ddf0477c7d93200a7f86b894f25b6ef0b3453810dd90f3",
      "assetIds": []
    },
    {
      "x": 357,
      "y": 30,
      "size": 3,
      "price": "7772000000000000000000",
      "reserved": "0xdeaddeaddeaddeaddeaddeaddeaddeaddeaddead",
      "salt": "0x5e840d48349efe398b054895337f3667f142b4fa35c9746c034fe51e0decfa2f",
      "assetIds": []
    },
    {
      "x": 336,
      "y": 33,
      "size": 3,
      "price": "7772000000000000000000",
      "reserved": "0xdeaddeaddeaddeaddeaddeaddeaddeaddeaddead",
      "salt": "0x0a3c1aed28b769a70e07db55d6ec603907203ab9d71d78bd960e88cfbe7e4bee",
      "assetIds": []
    },
    {
      "x": 336,
      "y": 30,
      "size": 3,
      "price": "7772000000000000000000",
      "reserved": "0xdeaddeaddeaddeaddeaddeaddeaddeaddeaddead",
      "salt": "0xb03ae2ed2169cc276b87a61ad8bdcb213dc34614b5b1cfbad8523473158f5001",
      "assetIds": []
    },
    {
      "x": 339,
      "y": 33,
      "size": 3,
      "price": "7772000000000000000000",
      "reserved": "0xdeaddeaddeaddeaddeaddeaddeaddeaddeaddead",
      "salt": "0xe21ce78d9d600a8c4ae6fea26befbc5ce70ea5ff558f255b69d4f8345778e4a4",
      "assetIds": []
    },
    {
      "x": 339,
      "y": 30,
      "size": 3,
      "price": "7772000000000000000000",
      "reserved": "0xdeaddeaddeaddeaddeaddeaddeaddeaddeaddead",
      "salt": "0xb69d22be3dcccbf7a0b2bf4968d3a03a19bc73754988b7a89059b9a445eb6407",
      "assetIds": []
    },
    {
      "x": 342,
      "y": 30,
      "size": 3,
      "price": "7772000000000000000000",
      "reserved": "0xdeaddeaddeaddeaddeaddeaddeaddeaddeaddead",
      "salt": "0x922560ec479ca434a92aa62df93f94a701f1e6dfedceff87923246a5ebe8473f",
      "assetIds": []
    },
    {
      "x": 345,
      "y": 33,
      "size": 3,
      "price": "7772000000000000000000",
      "reserved": "0xdeaddeaddeaddeaddeaddeaddeaddeaddeaddead",
      "salt": "0xf4e8231f9b7cbbbb281e08ec90d80f4c0159f04321a8c7b9088377fbe5ffcd6f",
      "assetIds": []
    },
    {
      "x": 354,
      "y": 33,
      "size": 3,
      "price": "7772000000000000000000",
      "reserved": "0xdeaddeaddeaddeaddeaddeaddeaddeaddeaddead",
      "salt": "0x5162a6228bebc657a2f58fddb1f7556a871d05df17d8687e651edc227449a90b",
      "assetIds": []
    },
    {
      "x": 360,
      "y": 18,
      "size": 3,
      "price": "7772000000000000000000",
      "reserved": "0xdeaddeaddeaddeaddeaddeaddeaddeaddeaddead",
      "salt": "0x11d81dc2bfb262a22abb80e9c99a30983784148f4d13ea8eb984d3edffbc948e",
      "assetIds": []
    },
    {
      "x": 363,
      "y": 18,
      "size": 3,
      "price": "7772000000000000000000",
      "reserved": "0xdeaddeaddeaddeaddeaddeaddeaddeaddeaddead",
      "salt": "0xea7b183d064a9dc7d1043798c9424c2f3759d3428432de4e65b04f4be65543e5",
      "assetIds": []
    },
    {
      "x": 363,
      "y": 21,
      "size": 3,
      "price": "7772000000000000000000",
      "reserved": "0xdeaddeaddeaddeaddeaddeaddeaddeaddeaddead",
      "salt": "0x0314505b3a539d74080dce5f5fcf5bc77c40af92eb3b8aee9ef7d20a3bed0f7c",
      "assetIds": []
    },
    {
      "x": 360,
      "y": 12,
      "size": 6,
      "price": "29487000000000000000000",
      "reserved": "0xdeaddeaddeaddeaddeaddeaddeaddeaddeaddead",
      "salt": "0x12c4d7d920b3927a827b04f8508179419848548b1abdb5bac1bd327c14f4c67a",
      "assetIds": []
    },
    {
      "x": 366,
      "y": 18,
      "size": 6,
      "price": "29487000000000000000000",
      "reserved": "0xdeaddeaddeaddeaddeaddeaddeaddeaddeaddead",
      "salt": "0x8eb9456c7fa1ddda03cc4fc2df15761381d64722d1dd955fb1dbe4ac183fbcf1",
      "assetIds": []
    },
    {
      "x": 354,
      "y": 24,
      "size": 6,
      "price": "29487000000000000000000",
      "reserved": "0xdeaddeaddeaddeaddeaddeaddeaddeaddeaddead",
      "salt": "0x281cd5585062418ae405ad8291a24489069a188e8f461dceb3aa99df0f04b92a",
      "assetIds": []
    },
    {
      "x": 354,
      "y": 36,
      "size": 6,
      "price": "29487000000000000000000",
      "reserved": "0xdeaddeaddeaddeaddeaddeaddeaddeaddeaddead",
      "salt": "0x8a84f8dd050dd6fd8d0521199b0ad409606c90f2554f580f28ad21a582df990e",
      "assetIds": []
    },
    {
      "x": 360,
      "y": 36,
      "size": 6,
      "price": "29487000000000000000000",
      "reserved": "0xdeaddeaddeaddeaddeaddeaddeaddeaddeaddead",
      "salt": "0x82e5eba1d8a0f990895f29a0dda1e08d3d24c6fcce2cde92625938dab4333732",
      "assetIds": []
    },
    {
      "x": 366,
      "y": 36,
      "size": 6,
      "price": "29487000000000000000000",
      "reserved": "0xdeaddeaddeaddeaddeaddeaddeaddeaddeaddead",
      "salt": "0x7a366381c7311563dc7bddab2cf3fb57a464e34e480eb9568417231021629280",
      "assetIds": []
    },
    {
      "x": 348,
      "y": 30,
      "size": 6,
      "price": "29487000000000000000000",
      "reserved": "0xdeaddeaddeaddeaddeaddeaddeaddeaddeaddead",
      "salt": "0x577874d3b129fded5fd52958a166a2f361fcca210d7cd8371330496130e0156a",
      "assetIds": []
    },
    {
      "x": 342,
      "y": 24,
      "size": 6,
      "price": "29487000000000000000000",
      "reserved": "0xdeaddeaddeaddeaddeaddeaddeaddeaddeaddead",
      "salt": "0xcb5a35622e960c2c2b98981c06861f4a04daa9a76c5c542643c63d047d2ef9ca",
      "assetIds": []
    },
    {
      "x": 336,
      "y": 24,
      "size": 6,
      "price": "29487000000000000000000",
      "reserved": "0xdeaddeaddeaddeaddeaddeaddeaddeaddeaddead",
      "salt": "0xa9616701fc774566cd7dd4892d5f8fff30dc787b940664f492d7853f1faad5f6",
      "assetIds": []
    },
    {
      "x": 330,
      "y": 18,
      "size": 6,
      "price": "29487000000000000000000",
      "reserved": "0xdeaddeaddeaddeaddeaddeaddeaddeaddeaddead",
      "salt": "0xc38bebce9aeb612d7bb005318a1041506a6e09e4657e305a2cf4a7cbf25c5d36",
      "assetIds": []
    },
    {
      "x": 330,
      "y": 12,
      "size": 6,
      "price": "29487000000000000000000",
      "reserved": "0xdeaddeaddeaddeaddeaddeaddeaddeaddeaddead",
      "salt": "0x78c7a35afcfbfa28947027570ea11a45beb42c98797a7966e565472df98234c0",
      "assetIds": []
    },
    {
      "x": 330,
      "y": 6,
      "size": 6,
      "price": "29487000000000000000000",
      "reserved": "0xdeaddeaddeaddeaddeaddeaddeaddeaddeaddead",
      "salt": "0x389ea2021e89f9e075d26d27e4c06a5813f524b79a43ec64720edc6c39dd88dc",
      "assetIds": []
    },
    {
      "x": 324,
      "y": 12,
      "size": 6,
      "price": "29487000000000000000000",
      "reserved": "0xdeaddeaddeaddeaddeaddeaddeaddeaddeaddead",
      "salt": "0xddb5e2f98dac863b5786adf9a208067bcb6fcba1d92849c16786e56f0d1dbc96",
      "assetIds": []
    },
    {
      "x": 324,
      "y": 36,
      "size": 6,
      "price": "29487000000000000000000",
      "reserved": "0xdeaddeaddeaddeaddeaddeaddeaddeaddeaddead",
      "salt": "0x8539816c67dbfa7fbe30f93716d13e480339a9b2b28b6db371842f0d98242f5a",
      "assetIds": []
    },
    {
      "x": 330,
      "y": 42,
      "size": 6,
      "price": "29487000000000000000000",
      "reserved": "0xdeaddeaddeaddeaddeaddeaddeaddeaddeaddead",
      "salt": "0xab594789513cac665d101f01370c25f0c6ae1e4bebd11b81fc92e7a10ce74068",
      "assetIds": []
    },
    {
      "x": 336,
      "y": 0,
      "size": 24,
      "price": "419302000000000000000000",
      "reserved": "0xdeaddeaddeaddeaddeaddeaddeaddeaddeaddead",
      "salt": "0xeff80b92616b7159fa344500e2c3f7b2b856d7147f7971963fbcb5b381993b77",
      "assetIds": []
    },
    {
      "x": 318,
      "y": 30,
      "size": 3,
      "price": "7772000000000000000000",
      "reserved": "0xdeaddeaddeaddeaddeaddeaddeaddeaddeaddead",
      "salt": "0xdbae3d0515e02144e2466153529c1b587a4b8320a9576e7492b8cecf69a75290",
      "assetIds": []
    },
    {
      "x": 318,
      "y": 27,
      "size": 3,
      "price": "7772000000000000000000",
      "reserved": "0xdeaddeaddeaddeaddeaddeaddeaddeaddeaddead",
      "salt": "0x4a847aa93b3429fa4761e420967940f9c308ba65514480aa242b00d007d57516",
      "assetIds": []
    },
    {
      "x": 318,
      "y": 24,
      "size": 3,
      "price": "7772000000000000000000",
      "reserved": "0xdeaddeaddeaddeaddeaddeaddeaddeaddeaddead",
      "salt": "0x70445bdb7a859f848cba9b50e3f098a1040c06f4781f5ff55df2e444a1563813",
      "assetIds": []
    },
    {
      "x": 318,
      "y": 21,
      "size": 3,
      "price": "7772000000000000000000",
      "reserved": "0xdeaddeaddeaddeaddeaddeaddeaddeaddeaddead",
      "salt": "0xc8896ef6679490f5a82a769d6e833499ece691d82cc327b003b9fa11ebb23f57",
      "assetIds": []
    },
    {
      "x": 318,
      "y": 18,
      "size": 3,
      "price": "7772000000000000000000",
      "reserved": "0xdeaddeaddeaddeaddeaddeaddeaddeaddeaddead",
      "salt": "0x477fb7e123d9a8e7d27531637b9caf21281cad69220f03e8d3fd31555cec1e2d",
      "assetIds": []
    },
    {
      "x": 360,
      "y": 0,
      "size": 12,
      "price": "111381000000000000000000",
      "reserved": "0xdeaddeaddeaddeaddeaddeaddeaddeaddeaddead",
      "salt": "0x954e12af1cbb274eca37a61d8406f68aa685a09da546996506ba7c2b2298262d",
      "assetIds": []
    },
    {
      "x": 360,
      "y": 24,
      "size": 12,
      "price": "111381000000000000000000",
      "reserved": "0xdeaddeaddeaddeaddeaddeaddeaddeaddeaddead",
      "salt": "0x1405f8d999f3ad82fc33760fcb322cb04dd3df70f7df741755d91216c5776863",
      "assetIds": []
    },
    {
      "x": 324,
      "y": 24,
      "size": 12,
      "price": "111381000000000000000000",
      "reserved": "0xdeaddeaddeaddeaddeaddeaddeaddeaddeaddead",
      "salt": "0x0725b4b710703a3b216c38d9d505c2968765020b504c7710236504d09058d7b3",
      "assetIds": []
    },
    {
      "x": 336,
      "y": 36,
      "size": 12,
      "price": "111381000000000000000000",
      "reserved": "0xdeaddeaddeaddeaddeaddeaddeaddeaddeaddead",
      "salt": "0x571adcc991a2d9607c44fec53c54909b871c5e1c6579088be37446495c677230",
      "assetIds": []
    }
  ],
  "solcInputHash": "a4de1e9cf87be8a7daa33c15e9438e26",
  "bytecode": "0x610160604052620d2f006005556103e860075534801561001e57600080fd5b5060405161242e38038061242e833981810160405261018081101561004257600080fd5b50805160208201516040830151606080850151608086015160a08088015160c0808a015160e08b01516101008c01516101208d01516101408e0151610160909e0151600280546001600160a01b0319166001600160a01b03861617905560038390558d8b1b6001600160601b0319908116909852998c901b909616909352999a9899979895979496929590949391926100dc8a600161014a565b600680546001600160a01b03199081166001600160a01b039a8b1617909155610140979097526101209590955260008054909616979096169690961790935550606093841b6001600160601b031990811660e05292841b831660805290921b1661010052506101ae92505050565b6001600160a01b038216600081815260016020908152604091829020805460ff191685151590811790915582519384529083015280517fb21eb88b4e33b3f1281830a7178d74d8aa73220416215726b68ae23d539515cb9281900390910190a15050565b60805160601c60a05160601c60c05160601c60e05160601c6101005160601c61012051610140516121fb610233600039806109375280611d44525080610913528061139a525080611da45250806115d252806116f4525080610c50528061159c5280611dd852508061166152806116c5525080610dfa528061190852506121fb6000f3fe608060405234801561001057600080fd5b50600436106101515760003560e01c8063984d6252116100cd578063dc5074af11610081578063ecb255b511610066578063ecb255b514610857578063f23a6e6114610874578063f2e7b3811461090957610151565b8063dc5074af14610814578063e56f8a9e1461083a57610151565b8063bc197c81116100b2578063bc197c81146105d3578063c10a420814610735578063caed35001461080c57610151565b8063984d6252146104db578063b522ecff146105ad57610151565b80636e9960c3116101245780638a04af6a116101095780638a04af6a1461032a5780638a12b82f146103585780638f283970146104b557610151565b80636e9960c3146102fe57806377f1c3ac1461032257610151565b806325cb5bc014610156578063495906571461017057806358bc29441461017857806365194ce7146101a0575b600080fd5b61015e610911565b60408051918252519081900360200190f35b61015e610935565b61019e6004803603602081101561018e57600080fd5b50356001600160a01b0316610959565b005b610246600480360360208110156101b657600080fd5b8101906020810181356401000000008111156101d157600080fd5b8201836020820111156101e357600080fd5b8035906020019184600183028401116401000000008311171561020557600080fd5b91908080601f016020809104026020016040519081016040528093929190818152602001838380828437600092019190915250929550610a04945050505050565b6040518080602001866001600160a01b03166001600160a01b03168152602001856001600160a01b03166001600160a01b03168152602001848152602001838152602001828103825287818151815260200191508051906020019080838360005b838110156102bf5781810151838201526020016102a7565b50505050905090810190601f1680156102ec5780820380516001836020036101000a031916815260200191505b50965050505050505060405180910390f35b610306610b09565b604080516001600160a01b039092168252519081900360200190f35b61015e610b18565b61019e6004803603604081101561034057600080fd5b506001600160a01b0381351690602001351515610b1e565b61019e600480360361018081101561036f57600080fd5b6001600160a01b038235811692602081013582169260408201359092169160608201359160808101359160a08201359160c08101359160e0820135916101008101359181019061014081016101208201356401000000008111156103d257600080fd5b8201836020820111156103e457600080fd5b8035906020019184602083028401116401000000008311171561040657600080fd5b91939092909160208101903564010000000081111561042457600080fd5b82018360208201111561043657600080fd5b8035906020019184602083028401116401000000008311171561045857600080fd5b91939092909160208101903564010000000081111561047657600080fd5b82018360208201111561048857600080fd5b803590602001918460018302840111640100000000831117156104aa57600080fd5b509092509050610b75565b61019e600480360360208110156104cb57600080fd5b50356001600160a01b0316610cc3565b61019e600480360360608110156104f157600080fd5b6001600160a01b03823516919081019060408101602082013564010000000081111561051c57600080fd5b82018360208201111561052e57600080fd5b8035906020019184602083028401116401000000008311171561055057600080fd5b91939092909160208101903564010000000081111561056e57600080fd5b82018360208201111561058057600080fd5b803590602001918460208302840111640100000000831117156105a257600080fd5b509092509050610d99565b61019e600480360360208110156105c357600080fd5b50356001600160a01b0316610f24565b610700600480360360a08110156105e957600080fd5b6001600160a01b03823581169260208101359091169181019060608101604082013564010000000081111561061d57600080fd5b82018360208201111561062f57600080fd5b8035906020019184602083028401116401000000008311171561065157600080fd5b91939092909160208101903564010000000081111561066f57600080fd5b82018360208201111561068157600080fd5b803590602001918460208302840111640100000000831117156106a357600080fd5b9193909290916020810190356401000000008111156106c157600080fd5b8201836020820111156106d357600080fd5b803590602001918460018302840111640100000000831117156106f557600080fd5b50909250905061100d565b604080517fffffffff000000000000000000000000000000000000000000000000000000009092168252519081900360200190f35b6107f8600480360360a081101561074b57600080fd5b81019060208101813564010000000081111561076657600080fd5b82018360208201111561077857600080fd5b8035906020019184600183028401116401000000008311171561079a57600080fd5b91908080601f016020809104026020016040519081016040528093929190818152602001838380828437600092019190915250929550506001600160a01b03833581169450602084013516926040810135925060600135905061103a565b604080519115158252519081900360200190f35b610306611176565b6107f86004803603602081101561082a57600080fd5b50356001600160a01b0316611185565b61019e6004803603602081101561085057600080fd5b50356111a3565b61019e6004803603602081101561086d57600080fd5b5035611207565b610700600480360360a081101561088a57600080fd5b6001600160a01b03823581169260208101359091169160408201359160608101359181019060a0810160808201356401000000008111156108ca57600080fd5b8201836020820111156108dc57600080fd5b803590602001918460018302840111640100000000831117156108fe57600080fd5b50909250905061126b565b61015e611296565b7f000000000000000000000000000000000000000000000000000000000000000090565b7f000000000000000000000000000000000000000000000000000000000000000090565b6000546001600160a01b031633146109b8576040805162461bcd60e51b815260206004820152601060248201527f53656e646572206e6f742061646d696e00000000000000000000000000000000604482015290519081900360640190fd5b600554600280546001600160a01b03908116600090815260046020526040902042909301909255805473ffffffffffffffffffffffffffffffffffffffff191692909116919091179055565b606060008060008060606000806000808a80602001905160a0811015610a2957600080fd5b8101908080516040519392919084640100000000821115610a4957600080fd5b908301906020820185811115610a5e57600080fd5b8251640100000000811182820188101715610a7857600080fd5b82525081516020918201929091019080838360005b83811015610aa5578181015183820152602001610a8d565b50505050905090810190601f168015610ad25780820380516001836020036101000a031916815260200191505b5060409081526020820151908201516060830151608090930151959f50909d509b5099509197505050505050505091939590929450565b6000546001600160a01b031690565b60035490565b6000546001600160a01b03163314610b675760405162461bcd60e51b815260040180806020018281038252602e815260200180612198602e913960400191505060405180910390fd5b610b71828261129c565b5050565b610b7f898961131e565b610c048f8e8e8e8e8e8d8d8d80806020026020016040519081016040528093929190818152602001838360200280828437600081840152601f19601f820116905080830192505050505050508c8c8080602002602001604051908101604052809392919081815260200183836020028082843760009201919091525061139892505050565b610c458f8984848080601f01602080910402602001604051908101604052809392919081815260200183838082843760009201919091525061157592505050565b610c758f8f8e8e8e8d7f00000000000000000000000000000000000000000000000000000000000000008f6115c6565b610cb28e87878080602002602001604051908101604052809392919081815260200183836020028082843760009201919091525061189192505050565b505050505050505050505050505050565b6000546001600160a01b03163314610d22576040805162461bcd60e51b815260206004820152601b60248201527f6f6e6c792061646d696e2063616e206368616e67652061646d696e0000000000604482015290519081900360640190fd5b600054604080516001600160a01b039283168152918316602083015280517f7e644d79422f17c01e4894b5f4f588d331ebfa28653d42ae832dc59e38c9798f9281900390910190a16000805473ffffffffffffffffffffffffffffffffffffffff19166001600160a01b0392909216919091179055565b6000546001600160a01b03163314610df8576040805162461bcd60e51b815260206004820152600e60248201527f4e4f545f415554484f52495a4544000000000000000000000000000000000000604482015290519081900360640190fd5b7f00000000000000000000000000000000000000000000000000000000000000006001600160a01b0316632eb2c2d63087878787876040518763ffffffff1660e01b815260040180876001600160a01b03166001600160a01b03168152602001866001600160a01b03166001600160a01b031681526020018060200180602001806020018481038452888882818152602001925060200280828437600083820152601f01601f19169091018581038452868152602090810191508790870280828437600081840152601f19601f8201169050808301925050508481038252600081526020016020019950505050505050505050600060405180830381600087803b158015610f0557600080fd5b505af1158015610f19573d6000803e3d6000fd5b505050505050505050565b6001600160a01b038116610f7f576040805162461bcd60e51b815260206004820152600c60248201527f5a45524f5f414444524553530000000000000000000000000000000000000000604482015290519081900360640190fd5b6000546001600160a01b03163314610fde576040805162461bcd60e51b815260206004820152600e60248201527f4e4f545f415554484f52495a4544000000000000000000000000000000000000604482015290519081900360640190fd5b6006805473ffffffffffffffffffffffffffffffffffffffff19166001600160a01b0392909216919091179055565b7fbc197c810000000000000000000000000000000000000000000000000000000098975050505050505050565b600060035482118061105d5750836001600160a01b0316856001600160a01b0316145b8061106757508242115b156110745750600061116d565b60408051606087811b7fffffffffffffffffffffffffffffffffffffffff0000000000000000000000009081166020808501919091529188901b166034830152604882018690526068808301869052835180840390910181526088830184528051908201207f19457468657265756d205369676e6564204d6573736167653a0a33320000000060a884015260c48084018290528451808503909101815260e4909301909352815191012060009061112b9089611a55565b6001600160a01b03811660009081526004602052604090205490915042116111585760019250505061116d565b6002546001600160a01b039081169116149150505b95945050505050565b6002546001600160a01b031690565b6001600160a01b031660009081526001602052604090205460ff1690565b6000546001600160a01b03163314611202576040805162461bcd60e51b815260206004820152601060248201527f53656e646572206e6f742061646d696e00000000000000000000000000000000604482015290519081900360640190fd5b600355565b6000546001600160a01b03163314611266576040805162461bcd60e51b815260206004820152600e60248201527f4e4f545f415554484f52495a4544000000000000000000000000000000000000604482015290519081900360640190fd5b600755565b7ff23a6e61000000000000000000000000000000000000000000000000000000009695505050505050565b60075490565b6001600160a01b03821660008181526001602090815260409182902080547fffffffffffffffffffffffffffffffffffffffffffffffffffffffffffffff001685151590811790915582519384529083015280517fb21eb88b4e33b3f1281830a7178d74d8aa73220416215726b68ae23d539515cb9281900390910190a15050565b6113456103e861133960075485611b2290919063ffffffff16565b9063ffffffff611b9816565b8114610b71576040805162461bcd60e51b815260206004820152600d60248201527f494e56414c49445f505249434500000000000000000000000000000000000000604482015290519081900360640190fd5b7f0000000000000000000000000000000000000000000000000000000000000000421061140c576040805162461bcd60e51b815260206004820152600c60248201527f53414c455f49535f4f5645520000000000000000000000000000000000000000604482015290519081900360640190fd5b6001600160a01b03891633148061143257503360009081526001602052604090205460ff165b611483576040805162461bcd60e51b815260206004820152600e60248201527f4e4f545f415554484f52495a4544000000000000000000000000000000000000604482015290519081900360640190fd5b6001600160a01b03881615806114aa5750886001600160a01b0316886001600160a01b0316145b6114fb576040805162461bcd60e51b815260206004820152600d60248201527f52455345525645445f4c414e4400000000000000000000000000000000000000604482015290519081900360640190fd5b600061150c888888888d8989611bfd565b90506115188282611ca2565b611569576040805162461bcd60e51b815260206004820152600c60248201527f494e56414c49445f4c414e440000000000000000000000000000000000000000604482015290519081900360640190fd5b50505050505050505050565b60006115818484611d6b565b6006549091506115c0908590839085906001600160a01b03167f0000000000000000000000000000000000000000000000000000000000000000611eb8565b50505050565b83600114806115fc57507f00000000000000000000000000000000000000000000000000000000000000006001600160a01b0316155b156116c357604080517f6e1e3bbf0000000000000000000000000000000000000000000000000000000081526001600160a01b03898116600483015260248201879052604482018990526064820188905260a06084830152600060a4830181905292517f000000000000000000000000000000000000000000000000000000000000000090911692636e1e3bbf9260e4808201939182900301818387803b1580156116a657600080fd5b505af11580156116ba573d6000803e3d6000fd5b50505050611827565b7f00000000000000000000000000000000000000000000000000000000000000006001600160a01b0316636e1e3bbf7f00000000000000000000000000000000000000000000000000000000000000008689898c60405160200180826001600160a01b03166001600160a01b031681526020019150506040516020818303038152906040526040518663ffffffff1660e01b815260040180866001600160a01b03166001600160a01b0316815260200185815260200184815260200183815260200180602001828103825283818151815260200191508051906020019080838360005b838110156117be5781810151838201526020016117a6565b50505050905090810190601f1680156117eb5780820380516001836020036101000a031916815260200191505b509650505050505050600060405180830381600087803b15801561180e57600080fd5b505af1158015611822573d6000803e3d6000fd5b505050505b60408051858152602081018590526001600160a01b03848116828401526060820184905291516101988802890192808b1692908c16917fe4dfa6ac11314892f3029b34a25b1a887da3b1cab2bbf8506d87128ba6e3ac029181900360800190a45050505050505050565b6060815167ffffffffffffffff811180156118ab57600080fd5b506040519080825280602002602001820160405280156118d5578160200160208202803683370190505b50905060005b82518110156119055760018282815181106118f257fe5b60209081029190910101526001016118db565b507f00000000000000000000000000000000000000000000000000000000000000006001600160a01b0316632eb2c2d6308585856040518563ffffffff1660e01b815260040180856001600160a01b03166001600160a01b03168152602001846001600160a01b03166001600160a01b03168152602001806020018060200180602001848103845286818151815260200191508051906020019060200280838360005b838110156119c05781810151838201526020016119a8565b50505050905001848103835285818151815260200191508051906020019060200280838360005b838110156119ff5781810151838201526020016119e7565b50505050905001848103825260008152602001602001975050505050505050600060405180830381600087803b158015611a3857600080fd5b505af1158015611a4c573d6000803e3d6000fd5b50505050505050565b60008151604114611a6557600080fd5b60208201516040830151606084015160001a601b811015611a8457601b015b8060ff16601b1480611a9957508060ff16601c145b611aa257600080fd5b6040805160008152602080820180845289905260ff8416828401526060820186905260808201859052915160019260a0808401939192601f1981019281900390910190855afa158015611af9573d6000803e3d6000fd5b5050604051601f1901519450506001600160a01b038416611b1957600080fd5b50505092915050565b600082611b3157506000611b92565b5081810281838281611b3f57fe5b0414611b92576040805162461bcd60e51b815260206004820152600860248201527f6f766572666c6f77000000000000000000000000000000000000000000000000604482015290519081900360640190fd5b92915050565b600081611bec576040805162461bcd60e51b815260206004820152600960248201527f64697662797a65726f0000000000000000000000000000000000000000000000604482015290519081900360640190fd5b818381611bf557fe5b049392505050565b60008787878787878760405160200180888152602001878152602001868152602001858152602001846001600160a01b03166001600160a01b031660601b8152601401838152602001828051906020019060200280838360005b83811015611c6f578181015183820152602001611c57565b50505050905001975050505050505050604051602081830303815290604052805190602001209050979650505050505050565b600081815b8451811015611d41576000858281518110611cbe57fe5b6020026020010151905080831015611d065782816040516020018083815260200182815260200192505050604051602081830303815290604052805190602001209250611d38565b808360405160200180838152602001828152602001925050506040516020818303038152906040528051906020012092505b50600101611ca7565b507f0000000000000000000000000000000000000000000000000000000000000000149392505050565b600080611d84606461133985600563ffffffff611b2216565b604080516323b872dd60e01b81526001600160a01b0387811660048301527f0000000000000000000000000000000000000000000000000000000000000000811660248301526044820184905291519293507f0000000000000000000000000000000000000000000000000000000000000000909116916323b872dd916064808201926020929091908290030181600087803b158015611e2357600080fd5b505af1158015611e37573d6000803e3d6000fd5b505050506040513d6020811015611e4d57600080fd5b5051611ea0576040805162461bcd60e51b815260206004820152601360248201527f4645455f5452414e534645525f4641494c454400000000000000000000000000604482015290519081900360640190fd5b611eb0838263ffffffff61213a16565b949350505050565b82518190859015612062576060600080600080611ed48a610a04565b9398509196509450925090506000611eef868686868661103a565b15611f7d57611f09611f018d84611b22565b612710611b98565b9050886001600160a01b0316846001600160a01b0316866001600160a01b03167fac7a699eb95c3c6d390ec4626de17ef9a67b35891efdb197beba7c7fdd45fac48f858760405180848152602001838152602001828152602001935050505060405180910390a4611f7a878261213a565b96505b801561205b57604080516323b872dd60e01b81526001600160a01b038f811660048301528781166024830152604482018490529151918a16916323b872dd916064808201926020929091908290030181600087803b158015611fde57600080fd5b505af1158015611ff2573d6000803e3d6000fd5b505050506040513d602081101561200857600080fd5b505161205b576040805162461bcd60e51b815260206004820152601960248201527f636f6d6d6973696f6e207472616e73666572206661696c656400000000000000604482015290519081900360640190fd5b5050505050505b604080516323b872dd60e01b81526001600160a01b0389811660048301528681166024830152604482018490529151918416916323b872dd916064808201926020929091908290030181600087803b1580156120bd57600080fd5b505af11580156120d1573d6000803e3d6000fd5b505050506040513d60208110156120e757600080fd5b5051611a4c576040805162461bcd60e51b815260206004820152601760248201527f7061796d656e74207472616e73666572206661696c6564000000000000000000604482015290519081900360640190fd5b600082821115612191576040805162461bcd60e51b815260206004820152600860248201527f756e6465666c6f77000000000000000000000000000000000000000000000000604482015290519081900360640190fd5b5090039056fe6f6e6c792061646d696e2063616e207365747570206d6574615472616e73616374696f6e50726f636573736f7273a26469706673582212200ff38c5741c66b2a22a9a9ee2abe0f55626323082b6b4443921fd3b25484584a64736f6c63430006050033",
  "devdoc": {
    "methods": {
      "buyLandWithSand(address,address,address,uint256,uint256,uint256,uint256,uint256,bytes32,uint256[],bytes32[],bytes)": {
        "params": {
          "buyer": "address that perform the payment",
          "priceInSand": "price in SAND to purchase that Land",
          "proof": "merkleProof for that particular Land",
          "reserved": "the reserved address (if any)",
          "size": "size of the pack of Land to purchase",
          "to": "address that will own the purchased Land",
          "x": "x coordinate of the Land",
          "y": "y coordinate of the Land"
        }
      },
      "changeAdmin(address)": {
        "details": "change the administrator to be `newAdmin`.",
        "params": {
          "newAdmin": "address of the new administrator."
        }
      },
      "getAdmin()": {
        "details": "gives the current administrator of this contract.",
        "returns": {
          "_0": "the current administrator of this contract."
        }
      },
      "getSigningWallet()": {
        "details": "signing wallet authorized for referral",
        "returns": {
          "_0": "the address of the signing wallet"
        }
      },
      "isMetaTransactionProcessor(address)": {
        "details": "check whether address `who` is given meta-transaction execution rights.",
        "params": {
          "who": "The address to query."
        },
        "returns": {
          "_0": "whether the address has meta-transaction execution rights."
        }
      },
      "isReferralValid(bytes,address,address,uint256,uint256)": {
        "params": {
          "commissionRate": "The commissionRate of the referral",
          "expiryTime": "The expiry time of the referral",
          "referee": "The address of the referee",
          "referrer": "The address of the referrer",
          "signature": "The signature to check (signed referral)"
        },
        "returns": {
          "_0": "True if the referral is valid"
        }
      },
      "setMetaTransactionProcessor(address,bool)": {
        "details": "Enable or disable the ability of `metaTransactionProcessor` to perform meta-tx (metaTransactionProcessor rights).",
        "params": {
          "enabled": "set whether the metaTransactionProcessor is enabled or disabled.",
          "metaTransactionProcessor": "address that will be given/removed metaTransactionProcessor rights."
        }
      },
      "setReceivingWallet(address)": {
        "params": {
          "newWallet": "address of the new receiving wallet"
        }
      },
      "updateMaxCommissionRate(uint256)": {
        "details": "Update the maximum commission rate",
        "params": {
          "newMaxCommissionRate": "The new maximum commission rate"
        }
      },
      "updateSigningWallet(address)": {
        "details": "Update the signing wallet",
        "params": {
          "newSigningWallet": "The new address of the signing wallet"
        }
      },
      "withdrawAssets(address,uint256[],uint256[])": {
        "params": {
          "assetIds": "the assetIds to be transferred",
          "to": "intended recipient of the asset tokens",
          "values": "the quantities of the assetIds to be transferred"
        }
      }
    },
    "title": "Estate Sale contract with referral"
  },
  "userdoc": {
    "methods": {
      "buyLandWithSand(address,address,address,uint256,uint256,uint256,uint256,uint256,bytes32,uint256[],bytes32[],bytes)": {
        "notice": "buy Land with SAND using the merkle proof associated with it"
      },
      "getExpiryTime()": {
        "notice": "Gets the expiry time for the current sale"
      },
      "getMaxCommisionRate()": {
        "notice": "the max commision rate"
      },
      "getMerkleRoot()": {
        "notice": "Gets the Merkle root associated with the current sale"
      },
      "isReferralValid(bytes,address,address,uint256,uint256)": {
        "notice": "Check if a referral is valid"
      },
      "setReceivingWallet(address)": {
        "notice": "set the wallet receiving the proceeds"
      },
      "withdrawAssets(address,uint256[],uint256[])": {
        "notice": "enable Admin to withdraw remaining assets from EstateSaleWithFee contract"
      }
    },
    "notice": "This contract manages the sale of our lands as Estates"
  },
  "storageLayout": {
    "storage": [
      {
        "astId": 15353,
        "contract": "src/solc_0.6/EstateSale/EstateSaleWithFee.sol:EstateSaleWithFee",
        "label": "_admin",
        "offset": 0,
        "slot": "0",
        "type": "t_address"
      },
      {
        "astId": 15415,
        "contract": "src/solc_0.6/EstateSale/EstateSaleWithFee.sol:EstateSaleWithFee",
        "label": "_metaTransactionContracts",
        "offset": 0,
        "slot": "1",
        "type": "t_mapping(t_address,t_bool)"
      },
      {
        "astId": 13531,
        "contract": "src/solc_0.6/EstateSale/EstateSaleWithFee.sol:EstateSaleWithFee",
        "label": "_signingWallet",
        "offset": 0,
        "slot": "2",
        "type": "t_address"
      },
      {
        "astId": 13533,
        "contract": "src/solc_0.6/EstateSale/EstateSaleWithFee.sol:EstateSaleWithFee",
        "label": "_maxCommissionRate",
        "offset": 0,
        "slot": "3",
        "type": "t_uint256"
      },
      {
        "astId": 13537,
        "contract": "src/solc_0.6/EstateSale/EstateSaleWithFee.sol:EstateSaleWithFee",
        "label": "_previousSigningWallets",
        "offset": 0,
        "slot": "4",
        "type": "t_mapping(t_address,t_uint256)"
      },
      {
        "astId": 13546,
        "contract": "src/solc_0.6/EstateSale/EstateSaleWithFee.sol:EstateSaleWithFee",
        "label": "_previousSigningDelay",
        "offset": 0,
        "slot": "5",
        "type": "t_uint256"
      },
      {
        "astId": 9918,
        "contract": "src/solc_0.6/EstateSale/EstateSaleWithFee.sol:EstateSaleWithFee",
        "label": "_wallet",
        "offset": 0,
        "slot": "6",
        "type": "t_address_payable"
      },
      {
        "astId": 9928,
        "contract": "src/solc_0.6/EstateSale/EstateSaleWithFee.sol:EstateSaleWithFee",
        "label": "_multiplier",
        "offset": 0,
        "slot": "7",
        "type": "t_uint256"
      }
    ],
    "types": {
      "t_address": {
        "encoding": "inplace",
        "label": "address",
        "numberOfBytes": "20"
      },
      "t_address_payable": {
        "encoding": "inplace",
        "label": "address payable",
        "numberOfBytes": "20"
      },
      "t_bool": {
        "encoding": "inplace",
        "label": "bool",
        "numberOfBytes": "1"
      },
      "t_mapping(t_address,t_bool)": {
        "encoding": "mapping",
        "key": "t_address",
        "label": "mapping(address => bool)",
        "numberOfBytes": "32",
        "value": "t_bool"
      },
      "t_mapping(t_address,t_uint256)": {
        "encoding": "mapping",
        "key": "t_address",
        "label": "mapping(address => uint256)",
        "numberOfBytes": "32",
        "value": "t_uint256"
      },
      "t_uint256": {
        "encoding": "inplace",
        "label": "uint256",
        "numberOfBytes": "32"
      }
    }
  }
}