{
  "address": "0xfc0C686a2FeC22FF38ccDaCb9d4c04768919eAfa",
  "abi": [
    {
      "inputs": [
        {
          "internalType": "address",
          "name": "landAddress",
          "type": "address"
        },
        {
          "internalType": "address",
          "name": "sandContractAddress",
          "type": "address"
        },
        {
          "internalType": "address",
          "name": "initialMetaTx",
          "type": "address"
        },
        {
          "internalType": "address",
          "name": "admin",
          "type": "address"
        },
        {
          "internalType": "address payable",
          "name": "initialWalletAddress",
          "type": "address"
        },
        {
          "internalType": "bytes32",
          "name": "merkleRoot",
          "type": "bytes32"
        },
        {
          "internalType": "uint256",
          "name": "expiryTime",
          "type": "uint256"
        },
        {
          "internalType": "address",
          "name": "initialSigningWallet",
          "type": "address"
        },
        {
          "internalType": "uint256",
          "name": "initialMaxCommissionRate",
          "type": "uint256"
        },
        {
          "internalType": "address",
          "name": "estate",
          "type": "address"
        },
        {
          "internalType": "address",
          "name": "asset",
          "type": "address"
        },
        {
          "internalType": "address",
          "name": "feeDistributor",
          "type": "address"
        }
      ],
      "stateMutability": "nonpayable",
      "type": "constructor"
    },
    {
      "anonymous": false,
      "inputs": [
        {
          "indexed": false,
          "internalType": "address",
          "name": "oldAdmin",
          "type": "address"
        },
        {
          "indexed": false,
          "internalType": "address",
          "name": "newAdmin",
          "type": "address"
        }
      ],
      "name": "AdminChanged",
      "type": "event"
    },
    {
      "anonymous": false,
      "inputs": [
        {
          "indexed": true,
          "internalType": "address",
          "name": "buyer",
          "type": "address"
        },
        {
          "indexed": true,
          "internalType": "address",
          "name": "to",
          "type": "address"
        },
        {
          "indexed": true,
          "internalType": "uint256",
          "name": "topCornerId",
          "type": "uint256"
        },
        {
          "indexed": false,
          "internalType": "uint256",
          "name": "size",
          "type": "uint256"
        },
        {
          "indexed": false,
          "internalType": "uint256",
          "name": "price",
          "type": "uint256"
        },
        {
          "indexed": false,
          "internalType": "address",
          "name": "token",
          "type": "address"
        },
        {
          "indexed": false,
          "internalType": "uint256",
          "name": "amountPaid",
          "type": "uint256"
        }
      ],
      "name": "LandQuadPurchased",
      "type": "event"
    },
    {
      "anonymous": false,
      "inputs": [
        {
          "indexed": false,
          "internalType": "address",
          "name": "metaTransactionProcessor",
          "type": "address"
        },
        {
          "indexed": false,
          "internalType": "bool",
          "name": "enabled",
          "type": "bool"
        }
      ],
      "name": "MetaTransactionProcessor",
      "type": "event"
    },
    {
      "anonymous": false,
      "inputs": [
        {
          "indexed": true,
          "internalType": "address",
          "name": "referrer",
          "type": "address"
        },
        {
          "indexed": true,
          "internalType": "address",
          "name": "referee",
          "type": "address"
        },
        {
          "indexed": true,
          "internalType": "address",
          "name": "token",
          "type": "address"
        },
        {
          "indexed": false,
          "internalType": "uint256",
          "name": "amount",
          "type": "uint256"
        },
        {
          "indexed": false,
          "internalType": "uint256",
          "name": "commission",
          "type": "uint256"
        },
        {
          "indexed": false,
          "internalType": "uint256",
          "name": "commissionRate",
          "type": "uint256"
        }
      ],
      "name": "ReferralUsed",
      "type": "event"
    },
    {
      "inputs": [
        {
          "internalType": "address",
          "name": "buyer",
          "type": "address"
        },
        {
          "internalType": "address",
          "name": "to",
          "type": "address"
        },
        {
          "internalType": "address",
          "name": "reserved",
          "type": "address"
        },
        {
          "internalType": "uint256",
          "name": "x",
          "type": "uint256"
        },
        {
          "internalType": "uint256",
          "name": "y",
          "type": "uint256"
        },
        {
          "internalType": "uint256",
          "name": "size",
          "type": "uint256"
        },
        {
          "internalType": "uint256",
          "name": "priceInSand",
          "type": "uint256"
        },
        {
          "internalType": "uint256",
          "name": "adjustedPriceInSand",
          "type": "uint256"
        },
        {
          "internalType": "bytes32",
          "name": "salt",
          "type": "bytes32"
        },
        {
          "internalType": "uint256[]",
          "name": "assetIds",
          "type": "uint256[]"
        },
        {
          "internalType": "bytes32[]",
          "name": "proof",
          "type": "bytes32[]"
        },
        {
          "internalType": "bytes",
          "name": "referral",
          "type": "bytes"
        }
      ],
      "name": "buyLandWithSand",
      "outputs": [],
      "stateMutability": "nonpayable",
      "type": "function"
    },
    {
      "inputs": [
        {
          "internalType": "address",
          "name": "newAdmin",
          "type": "address"
        }
      ],
      "name": "changeAdmin",
      "outputs": [],
      "stateMutability": "nonpayable",
      "type": "function"
    },
    {
      "inputs": [
        {
          "internalType": "bytes",
          "name": "referral",
          "type": "bytes"
        }
      ],
      "name": "decodeReferral",
      "outputs": [
        {
          "internalType": "bytes",
          "name": "",
          "type": "bytes"
        },
        {
          "internalType": "address",
          "name": "",
          "type": "address"
        },
        {
          "internalType": "address",
          "name": "",
          "type": "address"
        },
        {
          "internalType": "uint256",
          "name": "",
          "type": "uint256"
        },
        {
          "internalType": "uint256",
          "name": "",
          "type": "uint256"
        }
      ],
      "stateMutability": "pure",
      "type": "function"
    },
    {
      "inputs": [],
      "name": "getAdmin",
      "outputs": [
        {
          "internalType": "address",
          "name": "",
          "type": "address"
        }
      ],
      "stateMutability": "view",
      "type": "function"
    },
    {
      "inputs": [],
      "name": "getExpiryTime",
      "outputs": [
        {
          "internalType": "uint256",
          "name": "",
          "type": "uint256"
        }
      ],
      "stateMutability": "view",
      "type": "function"
    },
    {
      "inputs": [],
      "name": "getMaxCommisionRate",
      "outputs": [
        {
          "internalType": "uint256",
          "name": "",
          "type": "uint256"
        }
      ],
      "stateMutability": "view",
      "type": "function"
    },
    {
      "inputs": [],
      "name": "getMerkleRoot",
      "outputs": [
        {
          "internalType": "bytes32",
          "name": "",
          "type": "bytes32"
        }
      ],
      "stateMutability": "view",
      "type": "function"
    },
    {
      "inputs": [],
      "name": "getSandMultiplier",
      "outputs": [
        {
          "internalType": "uint256",
          "name": "",
          "type": "uint256"
        }
      ],
      "stateMutability": "view",
      "type": "function"
    },
    {
      "inputs": [],
      "name": "getSigningWallet",
      "outputs": [
        {
          "internalType": "address",
          "name": "",
          "type": "address"
        }
      ],
      "stateMutability": "view",
      "type": "function"
    },
    {
      "inputs": [
        {
          "internalType": "address",
          "name": "who",
          "type": "address"
        }
      ],
      "name": "isMetaTransactionProcessor",
      "outputs": [
        {
          "internalType": "bool",
          "name": "",
          "type": "bool"
        }
      ],
      "stateMutability": "view",
      "type": "function"
    },
    {
      "inputs": [
        {
          "internalType": "bytes",
          "name": "signature",
          "type": "bytes"
        },
        {
          "internalType": "address",
          "name": "referrer",
          "type": "address"
        },
        {
          "internalType": "address",
          "name": "referee",
          "type": "address"
        },
        {
          "internalType": "uint256",
          "name": "expiryTime",
          "type": "uint256"
        },
        {
          "internalType": "uint256",
          "name": "commissionRate",
          "type": "uint256"
        }
      ],
      "name": "isReferralValid",
      "outputs": [
        {
          "internalType": "bool",
          "name": "",
          "type": "bool"
        }
      ],
      "stateMutability": "view",
      "type": "function"
    },
    {
      "inputs": [
        {
          "internalType": "address",
          "name": "",
          "type": "address"
        },
        {
          "internalType": "address",
          "name": "",
          "type": "address"
        },
        {
          "internalType": "uint256[]",
          "name": "",
          "type": "uint256[]"
        },
        {
          "internalType": "uint256[]",
          "name": "",
          "type": "uint256[]"
        },
        {
          "internalType": "bytes",
          "name": "",
          "type": "bytes"
        }
      ],
      "name": "onERC1155BatchReceived",
      "outputs": [
        {
          "internalType": "bytes4",
          "name": "",
          "type": "bytes4"
        }
      ],
      "stateMutability": "pure",
      "type": "function"
    },
    {
      "inputs": [
        {
          "internalType": "address",
          "name": "",
          "type": "address"
        },
        {
          "internalType": "address",
          "name": "",
          "type": "address"
        },
        {
          "internalType": "uint256",
          "name": "",
          "type": "uint256"
        },
        {
          "internalType": "uint256",
          "name": "",
          "type": "uint256"
        },
        {
          "internalType": "bytes",
          "name": "",
          "type": "bytes"
        }
      ],
      "name": "onERC1155Received",
      "outputs": [
        {
          "internalType": "bytes4",
          "name": "",
          "type": "bytes4"
        }
      ],
      "stateMutability": "pure",
      "type": "function"
    },
    {
      "inputs": [
        {
          "internalType": "uint256",
          "name": "newMultiplier",
          "type": "uint256"
        }
      ],
      "name": "rebalanceSand",
      "outputs": [],
      "stateMutability": "nonpayable",
      "type": "function"
    },
    {
      "inputs": [
        {
          "internalType": "address",
          "name": "metaTransactionProcessor",
          "type": "address"
        },
        {
          "internalType": "bool",
          "name": "enabled",
          "type": "bool"
        }
      ],
      "name": "setMetaTransactionProcessor",
      "outputs": [],
      "stateMutability": "nonpayable",
      "type": "function"
    },
    {
      "inputs": [
        {
          "internalType": "address payable",
          "name": "newWallet",
          "type": "address"
        }
      ],
      "name": "setReceivingWallet",
      "outputs": [],
      "stateMutability": "nonpayable",
      "type": "function"
    },
    {
      "inputs": [
        {
          "internalType": "uint256",
          "name": "newMaxCommissionRate",
          "type": "uint256"
        }
      ],
      "name": "updateMaxCommissionRate",
      "outputs": [],
      "stateMutability": "nonpayable",
      "type": "function"
    },
    {
      "inputs": [
        {
          "internalType": "address",
          "name": "newSigningWallet",
          "type": "address"
        }
      ],
      "name": "updateSigningWallet",
      "outputs": [],
      "stateMutability": "nonpayable",
      "type": "function"
    },
    {
      "inputs": [
        {
          "internalType": "address",
          "name": "to",
          "type": "address"
        },
        {
          "internalType": "uint256[]",
          "name": "assetIds",
          "type": "uint256[]"
        },
        {
          "internalType": "uint256[]",
          "name": "values",
          "type": "uint256[]"
        }
      ],
      "name": "withdrawAssets",
      "outputs": [],
      "stateMutability": "nonpayable",
      "type": "function"
    }
  ],
  "transactionHash": "0x5dee0f7342c1c38d95c607bd96963a443a1bf118b7efbb23587b5c98247effd8",
  "args": [
    "0xaF40A483bF77AAb7b7D13dB18187E6D62C1EA41b",
    "0xCc933a862fc15379E441F2A16Cb943D385a4695f",
    "0xCc933a862fc15379E441F2A16Cb943D385a4695f",
    "0x8A0e83DE499d7543CF486974a6196a35B5F573E7",
    "0x60927eB036621b801491B6c5e9A60A8d2dEeD75A",
    "0x59e02c17f4388b1b88accb3dde49b1ff367f372636f5820c4917f2f4ab74fbb2",
    1645621200,
    "0xB7060D3FeCAC3AE1F0A0AA416E3e8E472257950e",
    2000,
    "0x0000000000000000000000000000000000000000",
    "0x8055a2c0f7EB177BeaB357B70E6504402d2b5fF6",
    "0x5983532A5b9009E05428595b87F19e42068a232B"
  ],
  "linkedData": [
    {
      "x": 31,
      "y": 84,
      "size": 1,
      "price": "905000000000000000000",
      "reserved": "",
      "salt": "0xb9f430c96a86fc7de5eb869137689b24cf9a39f96c269e66cd761290eaaf19c0",
      "assetIds": []
    },
    {
      "x": 31,
      "y": 85,
      "size": 1,
      "price": "905000000000000000000",
      "reserved": "",
      "salt": "0x0f6f1a8b9cc1946a16a92f2a7a11572d5ff0eada6ada24700bff7291f2732089",
      "assetIds": []
    },
    {
      "x": 31,
      "y": 86,
      "size": 1,
      "price": "905000000000000000000",
      "reserved": "",
      "salt": "0xeb6e7a4369dae561bd0988b376a042ec568b0b28a81901f6ab3e9953d962ef81",
      "assetIds": []
    },
    {
      "x": 32,
      "y": 86,
      "size": 1,
      "price": "905000000000000000000",
      "reserved": "",
      "salt": "0x98c952bca03d5160ac95b643fdd4cd9ec80be297c01ddaf2e587467ce307922a",
      "assetIds": []
    },
    {
      "x": 33,
      "y": 86,
      "size": 1,
      "price": "905000000000000000000",
      "reserved": "",
      "salt": "0xa2030848bf28460468ee0a9ea37e89ea76b2b6cd8917cf15f392c61a1d5c8a3b",
      "assetIds": []
    },
    {
      "x": 34,
      "y": 86,
      "size": 1,
      "price": "905000000000000000000",
      "reserved": "",
      "salt": "0x25601684c4fa59040576d41548cd854259208cb14c4ba2356ca695b62a65324e",
      "assetIds": []
    },
    {
      "x": 35,
      "y": 86,
      "size": 1,
      "price": "905000000000000000000",
      "reserved": "",
      "salt": "0xb14e1657dc07631ac03f6c04c772cda5b564dbfa565db458955f357aece2d6f2",
      "assetIds": []
    },
    {
      "x": 30,
      "y": 84,
      "size": 1,
      "price": "905000000000000000000",
      "reserved": "",
      "salt": "0x277194be1a84d687078f1e6d91df071448fdaf7a13f30328221a1fe8bf0d9fd3",
      "assetIds": []
    },
    {
      "x": 30,
      "y": 85,
      "size": 1,
      "price": "905000000000000000000",
      "reserved": "",
      "salt": "0xfc146d2b9cf95d9fafb922ef2acd81e4cacbc4dd5f9f836cbe5c13b260059df9",
      "assetIds": []
    },
    {
      "x": 30,
      "y": 86,
      "size": 1,
      "price": "905000000000000000000",
      "reserved": "",
      "salt": "0x1ea63f328a05fd10451c5f0e51d28bec32399675849e9e35868c231d033921a3",
      "assetIds": []
    },
    {
      "x": 30,
      "y": 87,
      "size": 1,
      "price": "905000000000000000000",
      "reserved": "",
      "salt": "0xe82f3c8a9268425cdb9c7ceaaf76ae45d12a55165f2694bc2807c1722465f6a4",
      "assetIds": []
    },
    {
      "x": 30,
      "y": 88,
      "size": 1,
      "price": "905000000000000000000",
      "reserved": "",
      "salt": "0xb39278d54766df677c6f44f0b09bcabe6553f2683fe1aaa1db2d0ef4597e30d2",
      "assetIds": []
    },
    {
      "x": 30,
      "y": 89,
      "size": 1,
      "price": "905000000000000000000",
      "reserved": "",
      "salt": "0x85a613da79c26f07f32fad8a2b006425aac3754e9d6990def5f82363e66a01c2",
      "assetIds": []
    },
    {
      "x": 31,
      "y": 89,
      "size": 1,
      "price": "905000000000000000000",
      "reserved": "",
      "salt": "0x9290ba8ecd6e545b42420b4e64eda97e93976304ca7f4f18e8b06b211a6e3811",
      "assetIds": []
    },
    {
      "x": 31,
      "y": 90,
      "size": 1,
      "price": "905000000000000000000",
      "reserved": "",
      "salt": "0xa72cb08d9a4ce378e3e9455b2bc83765826bdccf7c814b9a4f7fc8900340a73e",
      "assetIds": []
    },
    {
      "x": 31,
      "y": 91,
      "size": 1,
      "price": "905000000000000000000",
      "reserved": "",
      "salt": "0x2240922ed2d3700ec82275685c2f1b219d429d90a0a121ac54c623433be60fa3",
      "assetIds": []
    },
    {
      "x": 31,
      "y": 92,
      "size": 1,
      "price": "905000000000000000000",
      "reserved": "",
      "salt": "0xa13fb676bcd16733cf0e3e8ac87f0c28cad32d95398dab1ee48852c553511525",
      "assetIds": []
    },
    {
      "x": 32,
      "y": 92,
      "size": 1,
      "price": "905000000000000000000",
      "reserved": "",
      "salt": "0x2642c1598d1a338f1ace535e8676a041c5c676afa49906a757bc0b5e7678f77d",
      "assetIds": []
    },
    {
      "x": 32,
      "y": 93,
      "size": 1,
      "price": "905000000000000000000",
      "reserved": "",
      "salt": "0x59b7bc55c60c19cf5a225ce417cfecbb76f82a159990eb25692445c92e5fd843",
      "assetIds": []
    },
    {
      "x": 31,
      "y": 93,
      "size": 1,
      "price": "905000000000000000000",
      "reserved": "",
      "salt": "0xfca7f6c5c342ea7646067fca62c3d01f420a2f75e67bb9b46ebe21ecbcdf50cb",
      "assetIds": []
    },
    {
      "x": 31,
      "y": 94,
      "size": 1,
      "price": "905000000000000000000",
      "reserved": "",
      "salt": "0xbd7ecad642581f14e17041f589ce35fb41340eb36bd8e280ede19a7110046740",
      "assetIds": []
    },
    {
      "x": 31,
      "y": 95,
      "size": 1,
      "price": "905000000000000000000",
      "reserved": "",
      "salt": "0x24470e24a52908a5a5acdbbdc07c49c1401b75f8efd40a42f3fe22df53f5741c",
      "assetIds": []
    },
    {
      "x": 30,
      "y": 95,
      "size": 1,
      "price": "905000000000000000000",
      "reserved": "",
      "salt": "0xff54c8cc0cd00a3150c08c1c94aceded2a6b651c45e89ab5eab11d3f1a4c1675",
      "assetIds": []
    },
    {
      "x": 32,
      "y": 95,
      "size": 1,
      "price": "905000000000000000000",
      "reserved": "",
      "salt": "0x46a478b223d0e45c6f00be23d6994206025e0264f64b96e2bef3305639287ff3",
      "assetIds": []
    },
    {
      "x": 33,
      "y": 95,
      "size": 1,
      "price": "905000000000000000000",
      "reserved": "",
      "salt": "0x3e828c0f7c2f1d3372e45316637de2a4d58d2fcb7d5d0d7729fbe3d60048912e",
      "assetIds": []
    },
    {
      "x": 34,
      "y": 95,
      "size": 1,
      "price": "905000000000000000000",
      "reserved": "",
      "salt": "0xf3b6f8c27f6414b1d116226b5f2d08333391777626b4b5d0d9b6048876f9f508",
      "assetIds": []
    },
    {
      "x": 35,
      "y": 95,
      "size": 1,
      "price": "905000000000000000000",
      "reserved": "",
      "salt": "0x58e6110d20e04710a5d5cd4c30166933a160062256df23b30416b3e25f373729",
      "assetIds": []
    },
    {
      "x": 35,
      "y": 94,
      "size": 1,
      "price": "905000000000000000000",
      "reserved": "",
      "salt": "0x6584bd79035fe683444595f8f3aa3dab8f92e5513917633e035a5f95bed12c38",
      "assetIds": []
    },
    {
      "x": 35,
      "y": 93,
      "size": 1,
      "price": "905000000000000000000",
      "reserved": "",
      "salt": "0x450f53041b73d251f70f659b09d230162ed108368023b40966659ea0d485fd34",
      "assetIds": []
    },
    {
      "x": 35,
      "y": 92,
      "size": 1,
      "price": "905000000000000000000",
      "reserved": "",
      "salt": "0xa8a5fe3cf7f32012c1abf60597d6df436149d6843dee06363dfc9d176d6612e9",
      "assetIds": []
    },
    {
      "x": 35,
      "y": 91,
      "size": 1,
      "price": "905000000000000000000",
      "reserved": "",
      "salt": "0x2bd7ea7afbc0430ebabb9fbb0b2a09fc773fb203ec50d178da1fc0ee603f0671",
      "assetIds": []
    },
    {
      "x": 35,
      "y": 90,
      "size": 1,
      "price": "905000000000000000000",
      "reserved": "",
      "salt": "0x44731494e5756f193beda0cc9bcbc0b183bf012efe8070795fd0369b6397f023",
      "assetIds": []
    },
    {
      "x": 32,
      "y": 89,
      "size": 1,
      "price": "905000000000000000000",
      "reserved": "",
      "salt": "0x49e87f63ed27e9d8993e1afc1fab756caf76e6aefbedcd2563d5748b7c0ad430",
      "assetIds": []
    },
    {
      "x": 32,
      "y": 88,
      "size": 1,
      "price": "905000000000000000000",
      "reserved": "",
      "salt": "0x17fd1c690c4a92e4b62554ee390b5a149de5f0c21ba7b6a5c492dae82655cfc1",
      "assetIds": []
    },
    {
      "x": 31,
      "y": 88,
      "size": 1,
      "price": "905000000000000000000",
      "reserved": "",
      "salt": "0x68a0965ab0d4526179e94dc41e8b0dd63c8aa0123bdad9a261bc62c1790b8e47",
      "assetIds": []
    },
    {
      "x": 31,
      "y": 87,
      "size": 1,
      "price": "905000000000000000000",
      "reserved": "",
      "salt": "0x53a5d82f1773a0044c846392f633b74df2af62ac81c6752d80f4016f2b5b7f25",
      "assetIds": []
    },
    {
      "x": 30,
      "y": 90,
      "size": 1,
      "price": "905000000000000000000",
      "reserved": "",
      "salt": "0x02d32b633e910661624a446ec172b1dafdb60614b3569237775caa434367665e",
      "assetIds": []
    },
    {
      "x": 30,
      "y": 91,
      "size": 1,
      "price": "905000000000000000000",
      "reserved": "",
      "salt": "0x957f99d2934a643b6ad52d0665ac549c84564af7973c2e8943d86fab69ea4253",
      "assetIds": []
    },
    {
      "x": 30,
      "y": 92,
      "size": 1,
      "price": "905000000000000000000",
      "reserved": "",
      "salt": "0x0dc24cefaab40733ecfe0bc8fbb26dddb3e78742c177547373006676bff91bdb",
      "assetIds": []
    },
    {
      "x": 30,
      "y": 93,
      "size": 1,
      "price": "905000000000000000000",
      "reserved": "",
      "salt": "0x5a064029a4546054569255e802476d0a2099e4dd7a0aac0bc0c1c9bcaf928b15",
      "assetIds": []
    },
    {
      "x": 32,
      "y": 94,
      "size": 1,
      "price": "905000000000000000000",
      "reserved": "",
      "salt": "0x74a5d07ecc4b39cd75537259d19e8994c36bd64725c91cce301fc2903a79eaf9",
      "assetIds": []
    },
    {
      "x": 33,
      "y": 92,
      "size": 1,
      "price": "905000000000000000000",
      "reserved": "",
      "salt": "0xdc20fee75628d63f5b120628817b661f7af010dfffa9004cc26bda392c3a37b7",
      "assetIds": []
    },
    {
      "x": 34,
      "y": 92,
      "size": 1,
      "price": "905000000000000000000",
      "reserved": "",
      "salt": "0xbc8b9439d303d0fb144eb49353f36a14d7086b439ddd196ff5b893e73e5b167f",
      "assetIds": []
    },
    {
      "x": 34,
      "y": 91,
      "size": 1,
      "price": "905000000000000000000",
      "reserved": "",
      "salt": "0x1aabc1ae8dfa04135d1375c0496099b5a2acbd7f522cdd312f8100609fc256f1",
      "assetIds": []
    },
    {
      "x": 34,
      "y": 90,
      "size": 1,
      "price": "905000000000000000000",
      "reserved": "",
      "salt": "0x2e149cbfc3fba6788f89a403d8d536891a371133d99278f4037bb25cf35861bb",
      "assetIds": []
    },
    {
      "x": 32,
      "y": 90,
      "size": 1,
      "price": "905000000000000000000",
      "reserved": "",
      "salt": "0xdd14c739ed6b7a348d7474d2c8ecb5a01053922f6001610174cd7a045f6cafe4",
      "assetIds": []
    },
    {
      "x": 32,
      "y": 91,
      "size": 1,
      "price": "905000000000000000000",
      "reserved": "",
      "salt": "0x734243e59590fd85f6bf2c49358cb0e5b5fede67cb1cfcdcd8b538c2fadd3ea3",
      "assetIds": []
    },
    {
      "x": 33,
      "y": 91,
      "size": 1,
      "price": "905000000000000000000",
      "reserved": "",
      "salt": "0xe196f22b5390b1720bef0d3d8d59392a6573f0f9aead5aecfbe69e5595489935",
      "assetIds": []
    },
    {
      "x": 33,
      "y": 90,
      "size": 1,
      "price": "905000000000000000000",
      "reserved": "",
      "salt": "0x1240e724a1a182cd836c70424f617abd76c3bef984e9ff680600a3d6bd42f552",
      "assetIds": []
    },
    {
      "x": 32,
      "y": 87,
      "size": 1,
      "price": "905000000000000000000",
      "reserved": "",
      "salt": "0x19fe0d5bf8b73c77b94efc161d230ae2cb7ff89e231e1c6d343888e88e8d774d",
      "assetIds": []
    },
    {
      "x": 30,
      "y": 94,
      "size": 1,
      "price": "905000000000000000000",
      "reserved": "",
      "salt": "0x42843972bf23a3786b8b9dcd71080877574d76482a796e825bb679c6186ce3bd",
      "assetIds": []
    },
    {
      "x": 33,
      "y": 94,
      "size": 1,
      "price": "905000000000000000000",
      "reserved": "",
      "salt": "0x11fe04393172f6309a390fec9107e23134eb570c0ada7f762a252e02176f5cba",
      "assetIds": []
    },
    {
      "x": 34,
      "y": 94,
      "size": 1,
      "price": "905000000000000000000",
      "reserved": "",
      "salt": "0xacb3be39e813b9524c51c177c819e76447f6cfe64534ee92ac8aae0b1647b636",
      "assetIds": []
    },
    {
      "x": 34,
      "y": 93,
      "size": 1,
      "price": "905000000000000000000",
      "reserved": "",
      "salt": "0xa3771fd92fe7a068f56f69d02da8aa416a34900e9842a404b4ad9e0f49a2abac",
      "assetIds": []
    },
    {
      "x": 33,
      "y": 93,
      "size": 1,
      "price": "905000000000000000000",
      "reserved": "",
      "salt": "0x0c4fde834dd04ee79a8b406e5b0218310c4ec8626e9cfc10cdaa21d0ff8bf81e",
      "assetIds": []
    },
    {
      "x": 15,
      "y": 95,
      "size": 1,
      "price": "905000000000000000000",
      "reserved": "",
      "salt": "0x282c5b6c9215bb6983014c5857caa845293957020728c6a1aca4f245e401584d",
      "assetIds": []
    },
    {
      "x": 15,
      "y": 94,
      "size": 1,
      "price": "905000000000000000000",
      "reserved": "",
      "salt": "0x2a0a500b4a5f4dba555495c034c84ba14e734a7221d6beeacd67dee435ec14b7",
      "assetIds": []
    },
    {
      "x": 15,
      "y": 93,
      "size": 1,
      "price": "905000000000000000000",
      "reserved": "",
      "salt": "0x21682518335f2a03301c04be977a067f76c03fe589ce823bae46c8dc302246d4",
      "assetIds": []
    },
    {
      "x": 15,
      "y": 92,
      "size": 1,
      "price": "905000000000000000000",
      "reserved": "",
      "salt": "0xf1a7a1cf0a88dd4414fd5e769d6d669454c9e1ac71387a077e2a11cde06da281",
      "assetIds": []
    },
    {
      "x": 15,
      "y": 91,
      "size": 1,
      "price": "905000000000000000000",
      "reserved": "",
      "salt": "0xa9803c174e74c54536ae353daf01fddcb351e7e62eb1137f79ac39c9c77d0d52",
      "assetIds": []
    },
    {
      "x": 16,
      "y": 91,
      "size": 1,
      "price": "905000000000000000000",
      "reserved": "",
      "salt": "0x00b23ae51f878939bbf0eeabd32d1c33979ad65387c6f421d1f15897a82e5edd",
      "assetIds": []
    },
    {
      "x": 16,
      "y": 90,
      "size": 1,
      "price": "905000000000000000000",
      "reserved": "",
      "salt": "0xdbfbceacb956d1defe699c7abf466cb2edbb5cd272acc1fbf6b1adbaeeec2e4c",
      "assetIds": []
    },
    {
      "x": 16,
      "y": 89,
      "size": 1,
      "price": "905000000000000000000",
      "reserved": "",
      "salt": "0xe15a20e8f94265a16de24caf514d6b72c7d9febf5d0789b67985038b0679f011",
      "assetIds": []
    },
    {
      "x": 16,
      "y": 88,
      "size": 1,
      "price": "905000000000000000000",
      "reserved": "",
      "salt": "0x527ba04bdf70e69c84534fbf7f6c4066d5852d0dee888e07ad8910665b2ac33a",
      "assetIds": []
    },
    {
      "x": 15,
      "y": 88,
      "size": 1,
      "price": "905000000000000000000",
      "reserved": "",
      "salt": "0x93a7a882baefe351fcddb50fdfa717b5f6d0cc582306d23cbd28642978796bce",
      "assetIds": []
    },
    {
      "x": 15,
      "y": 89,
      "size": 1,
      "price": "905000000000000000000",
      "reserved": "",
      "salt": "0x5b5e7033095e20df46e5e722dac81246af1a07dad356686fc0e1629b18eef80e",
      "assetIds": []
    },
    {
      "x": 15,
      "y": 90,
      "size": 1,
      "price": "905000000000000000000",
      "reserved": "",
      "salt": "0xa0ae6fab82d7dc70fb3e2debee9e44383e2523a9ba4af6f5072c899800e50d8d",
      "assetIds": []
    },
    {
      "x": 16,
      "y": 92,
      "size": 1,
      "price": "905000000000000000000",
      "reserved": "",
      "salt": "0xdcd22f52bb99f4d4bd1ff6d696d5cdf28238a85c73438f47c62c6af0041bc0d4",
      "assetIds": []
    },
    {
      "x": 16,
      "y": 93,
      "size": 1,
      "price": "905000000000000000000",
      "reserved": "",
      "salt": "0x6c0dd063e4b100ba4e5b339a7d726d01d24d9aeafae33237bf340249040a7377",
      "assetIds": []
    },
    {
      "x": 16,
      "y": 94,
      "size": 1,
      "price": "905000000000000000000",
      "reserved": "",
      "salt": "0x8ea2386bd1eef75aa9f99b390e9c1c9cf420ae85e86cdef8bd285e695fed66b3",
      "assetIds": []
    },
    {
      "x": 16,
      "y": 95,
      "size": 1,
      "price": "905000000000000000000",
      "reserved": "",
      "salt": "0x9399e99633e58cb8767adf8a9f45bc2fd3e03b78c162a95a7bce1d2fb39bbe54",
      "assetIds": []
    },
    {
      "x": 17,
      "y": 95,
      "size": 1,
      "price": "905000000000000000000",
      "reserved": "",
      "salt": "0x66c14d15e9948263ad082fb1a118502dd14746227936c00272c532016b20718d",
      "assetIds": []
    },
    {
      "x": 18,
      "y": 95,
      "size": 1,
      "price": "905000000000000000000",
      "reserved": "",
      "salt": "0x16c8dd32763002c016e1789f8b11282ea81ed36025e5c156a17d83fd4f2fb09f",
      "assetIds": []
    },
    {
      "x": 19,
      "y": 95,
      "size": 1,
      "price": "905000000000000000000",
      "reserved": "",
      "salt": "0x362ee532221b45ebc2a6de45002c223c3fa204362e35a1a14ef8fed8a9299c47",
      "assetIds": []
    },
    {
      "x": 20,
      "y": 95,
      "size": 1,
      "price": "905000000000000000000",
      "reserved": "",
      "salt": "0x23fb96420a1cde9a4a295aef575dd6b1bb75a58637ad2f0ee9577b66d170eadc",
      "assetIds": []
    },
    {
      "x": 21,
      "y": 95,
      "size": 1,
      "price": "905000000000000000000",
      "reserved": "",
      "salt": "0x6c931b265c517f152cc6da9fbb0172faa81429649ebb0fb0a1f59bcde03c397a",
      "assetIds": []
    },
    {
      "x": 22,
      "y": 95,
      "size": 1,
      "price": "905000000000000000000",
      "reserved": "",
      "salt": "0x234749629066bfc656755b5feed0027783e5e4e32a578caaf5f97ce63311645f",
      "assetIds": []
    },
    {
      "x": 23,
      "y": 95,
      "size": 1,
      "price": "905000000000000000000",
      "reserved": "",
      "salt": "0x5d932f7f2f4b923d4bdc26f59bd5e86e7de47a578e5704e81c9c46c21524ecf6",
      "assetIds": []
    },
    {
      "x": 23,
      "y": 94,
      "size": 1,
      "price": "905000000000000000000",
      "reserved": "",
      "salt": "0x7eb85cea8ed12b5a7af36b02ac906216c0f465f7d2d20483974e8f43d34a2fcf",
      "assetIds": []
    },
    {
      "x": 23,
      "y": 93,
      "size": 1,
      "price": "905000000000000000000",
      "reserved": "",
      "salt": "0x24dca45f956238acef6aa7742163ddb2eeb6910e439172baf681816778d7f7c4",
      "assetIds": []
    },
    {
      "x": 23,
      "y": 92,
      "size": 1,
      "price": "905000000000000000000",
      "reserved": "",
      "salt": "0x2ddb92852c6c46335516c03cc886dc1d6002a6260e0581e8555e8cdc687cdb84",
      "assetIds": []
    },
    {
      "x": 23,
      "y": 91,
      "size": 1,
      "price": "905000000000000000000",
      "reserved": "",
      "salt": "0x42766df4b88647d32b1ab62a0a01bdab4836798659c1971342dfe788d07b317c",
      "assetIds": []
    },
    {
      "x": 22,
      "y": 91,
      "size": 1,
      "price": "905000000000000000000",
      "reserved": "",
      "salt": "0x58d04c818565d0659c0a0e72ccf0f2d746b1105b38196690f5b527fc939f29e8",
      "assetIds": []
    },
    {
      "x": 22,
      "y": 90,
      "size": 1,
      "price": "905000000000000000000",
      "reserved": "",
      "salt": "0xa52347219b1125d64d07e7f103c7a972d5297aa9ba187ba67abd5ab4fb7afcde",
      "assetIds": []
    },
    {
      "x": 21,
      "y": 90,
      "size": 1,
      "price": "905000000000000000000",
      "reserved": "",
      "salt": "0xca837c003ff4d0f5c6be296dca678243a1c99c3fa89fa17b13d62c76bf6a9a04",
      "assetIds": []
    },
    {
      "x": 20,
      "y": 90,
      "size": 1,
      "price": "905000000000000000000",
      "reserved": "",
      "salt": "0xc4de216e5993c02656afa6024514bdd2c334188a57a63cf933c67d054ddda7e5",
      "assetIds": []
    },
    {
      "x": 19,
      "y": 90,
      "size": 1,
      "price": "905000000000000000000",
      "reserved": "",
      "salt": "0xf3484f1388e53a816faeaecb2a0cc2a257d2ccb058b801aba1622a447eca443f",
      "assetIds": []
    },
    {
      "x": 18,
      "y": 90,
      "size": 1,
      "price": "905000000000000000000",
      "reserved": "",
      "salt": "0x77f1fc56a51e71af01df8e47a804918b12e7a7db5af305ea48123ec36228332a",
      "assetIds": []
    },
    {
      "x": 17,
      "y": 90,
      "size": 1,
      "price": "905000000000000000000",
      "reserved": "",
      "salt": "0xa7142cdc61133c08c7623d3e3745c4c198bf1229d8dc5f52ffa0a1460d00b10d",
      "assetIds": []
    },
    {
      "x": 17,
      "y": 91,
      "size": 1,
      "price": "905000000000000000000",
      "reserved": "",
      "salt": "0x4dd7b7a10e524a4498cf29a03e2a8b20c26e7450cf9837618daf397436de0775",
      "assetIds": []
    },
    {
      "x": 17,
      "y": 92,
      "size": 1,
      "price": "905000000000000000000",
      "reserved": "",
      "salt": "0x6334348b02d789d018fbfe146103df6c85f89bb67cd4147f9070ce662aa5ac33",
      "assetIds": []
    },
    {
      "x": 17,
      "y": 93,
      "size": 1,
      "price": "905000000000000000000",
      "reserved": "",
      "salt": "0x5cd513ff982eaa685b97f895390f9ddac499a149f591212d1a3880cc7eb5f1e8",
      "assetIds": []
    },
    {
      "x": 18,
      "y": 93,
      "size": 1,
      "price": "905000000000000000000",
      "reserved": "",
      "salt": "0x11a1c6dbba3def552b50804752798ec540c1fbc7c083ac18333dbf35593b570f",
      "assetIds": []
    },
    {
      "x": 19,
      "y": 93,
      "size": 1,
      "price": "905000000000000000000",
      "reserved": "",
      "salt": "0x029a388844668c4fa9832232b6cdb188161ca8568263ec413f5e6f933aac5d88",
      "assetIds": []
    },
    {
      "x": 20,
      "y": 93,
      "size": 1,
      "price": "905000000000000000000",
      "reserved": "",
      "salt": "0x3212b92b9bd52a5f6a1602387541f18e7c03ba8761653e601c01c14b7a205e41",
      "assetIds": []
    },
    {
      "x": 21,
      "y": 93,
      "size": 1,
      "price": "905000000000000000000",
      "reserved": "",
      "salt": "0xb99d12134d99540b20a9c9be313cd47d3aacfe0ac8b4736addecf90af208a782",
      "assetIds": []
    },
    {
      "x": 22,
      "y": 93,
      "size": 1,
      "price": "905000000000000000000",
      "reserved": "",
      "salt": "0x2c926926bcdd97965f4a24fc9bfb8f16e7f96e82810bac5a37751d36b23c59e6",
      "assetIds": []
    },
    {
      "x": 23,
      "y": 90,
      "size": 1,
      "price": "905000000000000000000",
      "reserved": "",
      "salt": "0xd4d2210babcff5e516e0f74585f930a57401b25c40a5b615249758febd0a7bf0",
      "assetIds": []
    },
    {
      "x": 19,
      "y": 91,
      "size": 1,
      "price": "905000000000000000000",
      "reserved": "",
      "salt": "0x019d4e9dbe15c42703d055a461a8ec0133e5938bc85e9db4b4cafe2e8d9552ce",
      "assetIds": []
    },
    {
      "x": 19,
      "y": 92,
      "size": 1,
      "price": "905000000000000000000",
      "reserved": "",
      "salt": "0xf51952ed2845088af251a6af08ff2289152d260ca2fd8cd1e2ec579625ddb2fc",
      "assetIds": []
    },
    {
      "x": 20,
      "y": 92,
      "size": 1,
      "price": "905000000000000000000",
      "reserved": "",
      "salt": "0x3efed4ee932c07fc048e0a1fc05089a55282bc313b4de385bff19857dc3030c0",
      "assetIds": []
    },
    {
      "x": 21,
      "y": 92,
      "size": 1,
      "price": "905000000000000000000",
      "reserved": "",
      "salt": "0xeffcac875364830090831bf0537371b344077462f6c792a86b8e398479ae74f2",
      "assetIds": []
    },
    {
      "x": 22,
      "y": 92,
      "size": 1,
      "price": "905000000000000000000",
      "reserved": "",
      "salt": "0x8c7752cebccd915a5e95d45c0d3ac8cf3031818ae63e1b771137ecdf8f4493d6",
      "assetIds": []
    },
    {
      "x": 18,
      "y": 91,
      "size": 1,
      "price": "905000000000000000000",
      "reserved": "",
      "salt": "0x21d3988e90f0c04eac187fae30a12c5daed4549e2410d8caa2e23b4bdf3a32e3",
      "assetIds": []
    },
    {
      "x": 17,
      "y": 89,
      "size": 1,
      "price": "905000000000000000000",
      "reserved": "",
      "salt": "0x2e416bba3a5d1e9c0fae4b8ec30a4a84873708fe68277bd854310a1b9214eea0",
      "assetIds": []
    },
    {
      "x": 17,
      "y": 88,
      "size": 1,
      "price": "905000000000000000000",
      "reserved": "",
      "salt": "0x29bc8a22443ba0fd15e235d975ca87abb5152fdc07d9f822917e3edbff3189ba",
      "assetIds": []
    },
    {
      "x": 21,
      "y": 91,
      "size": 1,
      "price": "905000000000000000000",
      "reserved": "",
      "salt": "0xe33dd2373e567e4fd84ac993d4471f43222d9a5a9ddaac4648f830fd5467a861",
      "assetIds": []
    },
    {
      "x": 20,
      "y": 91,
      "size": 1,
      "price": "905000000000000000000",
      "reserved": "",
      "salt": "0x1bcfc1d183ca25bfc4da71ff0997aca3c0c43211b4cd0497959a3b06e73c0d76",
      "assetIds": []
    },
    {
      "x": 18,
      "y": 94,
      "size": 1,
      "price": "905000000000000000000",
      "reserved": "",
      "salt": "0x37e45aff8d260d50ca5616412f7b70d44a266f2564f9e12a96f0c1d4346af155",
      "assetIds": []
    },
    {
      "x": 17,
      "y": 94,
      "size": 1,
      "price": "905000000000000000000",
      "reserved": "",
      "salt": "0x0dbba8b393fdb46a492c089b92364bd58b30af585ee53c8b62bfdc5c27fe4aa5",
      "assetIds": []
    },
    {
      "x": 19,
      "y": 94,
      "size": 1,
      "price": "905000000000000000000",
      "reserved": "",
      "salt": "0x2830a809fbba3050e3edc7b90861e4ea3a900808102965edee2240abd07604bc",
      "assetIds": []
    },
    {
      "x": 20,
      "y": 94,
      "size": 1,
      "price": "905000000000000000000",
      "reserved": "",
      "salt": "0x072f9862623f7775d67a1fe62d5505b26b0ab9445a0f0889bfb1ec9fc9251287",
      "assetIds": []
    },
    {
      "x": 21,
      "y": 94,
      "size": 1,
      "price": "905000000000000000000",
      "reserved": "",
      "salt": "0x61f6aaa6909850f06c5427408925ddcda3d574306c5b98e4219c7c7340e8e7f8",
      "assetIds": []
    },
    {
      "x": 22,
      "y": 94,
      "size": 1,
      "price": "905000000000000000000",
      "reserved": "",
      "salt": "0x7d11ead27dcc1d893dfceb5c50eb8b4a1a1f6bbf0b07a07f2ca32159a80d491f",
      "assetIds": []
    },
    {
      "x": 18,
      "y": 92,
      "size": 1,
      "price": "905000000000000000000",
      "reserved": "",
      "salt": "0x1a43a92f9d97b93488e6db31bfb45c42287ab73315334cd5682349c79a608b1b",
      "assetIds": []
    },
    {
      "x": 13,
      "y": 126,
      "size": 1,
      "price": "905000000000000000000",
      "reserved": "",
      "salt": "0x234697dcf3f2791e029e9c41f5b1e40c4f3dd9f839a4a32229a67d7afe009175",
      "assetIds": []
    },
    {
      "x": 13,
      "y": 127,
      "size": 1,
      "price": "905000000000000000000",
      "reserved": "",
      "salt": "0x8d5289060a5ea9f6f9e7de8d0866e9d0c613f4222c2fb8796383e450feb94ec0",
      "assetIds": []
    },
    {
      "x": 12,
      "y": 127,
      "size": 1,
      "price": "905000000000000000000",
      "reserved": "",
      "salt": "0xd11482db001079081592823cf03e9a4526e1a42aae6311f226a4f2e8a37bbc4e",
      "assetIds": []
    },
    {
      "x": 14,
      "y": 127,
      "size": 1,
      "price": "905000000000000000000",
      "reserved": "",
      "salt": "0xb9d98b370e1a15dd2c3151d14b10f40a21fb0b83b47284bb9500333b6c552799",
      "assetIds": []
    },
    {
      "x": 14,
      "y": 126,
      "size": 1,
      "price": "905000000000000000000",
      "reserved": "",
      "salt": "0x617594dc571f4882f94c035c1ff22215f1c04fd100a21834fc3e1712e325330b",
      "assetIds": []
    },
    {
      "x": 13,
      "y": 128,
      "size": 1,
      "price": "905000000000000000000",
      "reserved": "",
      "salt": "0x7c712b05f76ae576300ecc1fa3a442b8a16f29a3c8ef083dd4ffd892fd4859ec",
      "assetIds": []
    },
    {
      "x": 14,
      "y": 128,
      "size": 1,
      "price": "905000000000000000000",
      "reserved": "",
      "salt": "0x7c1312a560256ceec8f91aba063bb182d5daad4c4b590679967491265e767807",
      "assetIds": []
    },
    {
      "x": 12,
      "y": 126,
      "size": 1,
      "price": "905000000000000000000",
      "reserved": "",
      "salt": "0x4c702dc8f95d9855a22cf5538653f5f354ddeb5d2e8069d645183c4d9f86d4d8",
      "assetIds": []
    },
    {
      "x": 12,
      "y": 128,
      "size": 1,
      "price": "905000000000000000000",
      "reserved": "",
      "salt": "0xa11fd04d007c1a83c684171a664d7569c86f973e5227eeedac8c075b33a494e3",
      "assetIds": []
    },
    {
      "x": 15,
      "y": 130,
      "size": 1,
      "price": "905000000000000000000",
      "reserved": "",
      "salt": "0xd121e9f3ecf60eccd04c87964e2a5a4464a2286dd76c1853fa196817fd2332af",
      "assetIds": []
    },
    {
      "x": 16,
      "y": 130,
      "size": 1,
      "price": "905000000000000000000",
      "reserved": "",
      "salt": "0x0242b71f6aea337ea5d1805f49f203b0b0351d88ecb4b4f8e35be370587ead54",
      "assetIds": []
    },
    {
      "x": 17,
      "y": 130,
      "size": 1,
      "price": "905000000000000000000",
      "reserved": "",
      "salt": "0x32c23990d6918ed58ece6bd3f4714f1949b36815a75af5bdc8070392fe1471d8",
      "assetIds": []
    },
    {
      "x": 17,
      "y": 129,
      "size": 1,
      "price": "905000000000000000000",
      "reserved": "",
      "salt": "0x16601ec9352a712f8bb7fa9ee69bc9ad18020ffdeeae154c4892f802016048f4",
      "assetIds": []
    },
    {
      "x": 16,
      "y": 129,
      "size": 1,
      "price": "905000000000000000000",
      "reserved": "",
      "salt": "0x26e45505dc5c3f9b2c93b56f243a158c47af5f6cf70b027b83b16d89b9154400",
      "assetIds": []
    },
    {
      "x": 16,
      "y": 131,
      "size": 1,
      "price": "905000000000000000000",
      "reserved": "",
      "salt": "0x259b52313f1cf5541d24810c2e7675a84bdb2b870c3a6da4e1164f4a757306e7",
      "assetIds": []
    },
    {
      "x": 15,
      "y": 129,
      "size": 1,
      "price": "905000000000000000000",
      "reserved": "",
      "salt": "0xefaa2cfeb441035d8e75bfd9768d52e349a9bbdedf14c817016b088d8b418e35",
      "assetIds": []
    },
    {
      "x": 15,
      "y": 131,
      "size": 1,
      "price": "905000000000000000000",
      "reserved": "",
      "salt": "0xf3045d27393a97b30aa0d18bf569cbe3120e36f614148e3206c9a19e8cdc0fb1",
      "assetIds": []
    },
    {
      "x": 17,
      "y": 131,
      "size": 1,
      "price": "905000000000000000000",
      "reserved": "",
      "salt": "0xa198485c1625773fc518db6dbc53f58d3d5c71172480a9bc6622cca77c8b8dcf",
      "assetIds": []
    },
    {
      "x": 25,
      "y": 131,
      "size": 1,
      "price": "905000000000000000000",
      "reserved": "",
      "salt": "0x7ef87a5ffd4c3002bde8f45013970b246b8e65fdf07f954b8d475a4114600444",
      "assetIds": []
    },
    {
      "x": 26,
      "y": 131,
      "size": 1,
      "price": "905000000000000000000",
      "reserved": "",
      "salt": "0x764019bb81edd74cbf0c83dded4328a5268abc3ce35867a0516bb9da887ca9c4",
      "assetIds": []
    },
    {
      "x": 27,
      "y": 131,
      "size": 1,
      "price": "905000000000000000000",
      "reserved": "",
      "salt": "0xf10e8e0b51cdfd3698ca8ae4262b3b400b1a56126aeab4a974f67478b9b561b0",
      "assetIds": []
    },
    {
      "x": 28,
      "y": 131,
      "size": 1,
      "price": "905000000000000000000",
      "reserved": "",
      "salt": "0x9805e08f000ac5053694107280c954cb4038a1b3dab0c23c309f12e681df47b9",
      "assetIds": []
    },
    {
      "x": 29,
      "y": 131,
      "size": 1,
      "price": "905000000000000000000",
      "reserved": "",
      "salt": "0x6198a8caf47994464acb54e49ccd6f6ae4ca548d3935ee0de0fb1851ff7d530d",
      "assetIds": []
    },
    {
      "x": 29,
      "y": 130,
      "size": 1,
      "price": "905000000000000000000",
      "reserved": "",
      "salt": "0xc2f4f41573907976c84637af385086ba8721d854cb4b628c3bb9c6a717c4ddc1",
      "assetIds": []
    },
    {
      "x": 29,
      "y": 129,
      "size": 1,
      "price": "905000000000000000000",
      "reserved": "",
      "salt": "0xf385aceed3127be58d8a5ef8ba3bd96a850bfac15caa692d7450aa1ee020f365",
      "assetIds": []
    },
    {
      "x": 29,
      "y": 128,
      "size": 1,
      "price": "905000000000000000000",
      "reserved": "",
      "salt": "0xfa781a553ad35784b3b361f74f4b72d4e8d8e8463fd48330d841dda99396c3e7",
      "assetIds": []
    },
    {
      "x": 29,
      "y": 127,
      "size": 1,
      "price": "905000000000000000000",
      "reserved": "",
      "salt": "0xfb8d8f1b9c719f41bc25cd28fa6e042df91f9f20a55d37e471f1d14004013f94",
      "assetIds": []
    },
    {
      "x": 29,
      "y": 126,
      "size": 1,
      "price": "905000000000000000000",
      "reserved": "",
      "salt": "0x35fdcf01d410cf62c215fbd147f7750c4305d06c6b68ada8e6d2781d1c8a079a",
      "assetIds": []
    },
    {
      "x": 29,
      "y": 125,
      "size": 1,
      "price": "905000000000000000000",
      "reserved": "",
      "salt": "0xacefa9dd4c2a20dfd6e8ab46eece8f246d81c2f92803885a782ad29313d1c025",
      "assetIds": []
    },
    {
      "x": 29,
      "y": 124,
      "size": 1,
      "price": "905000000000000000000",
      "reserved": "",
      "salt": "0x7f8267b70e2220c40f53ab29e434bbdd374670df288b63426768c87c0abc7f52",
      "assetIds": []
    },
    {
      "x": 29,
      "y": 123,
      "size": 1,
      "price": "905000000000000000000",
      "reserved": "",
      "salt": "0x8ec4fd2cf859422f295ca00dfebb72735f33e9accfa87f99612a5b9221e46831",
      "assetIds": []
    },
    {
      "x": 29,
      "y": 122,
      "size": 1,
      "price": "905000000000000000000",
      "reserved": "",
      "salt": "0x1c65af09168fb32908925c834916c96928c335eb7569ab157d578f345cffd0cb",
      "assetIds": []
    },
    {
      "x": 29,
      "y": 121,
      "size": 1,
      "price": "905000000000000000000",
      "reserved": "",
      "salt": "0x424b27a9203ccd7b67004f44dbeeac90feef7dbb28b3a9ab4b46d4147d84d36f",
      "assetIds": []
    },
    {
      "x": 29,
      "y": 120,
      "size": 1,
      "price": "905000000000000000000",
      "reserved": "",
      "salt": "0x947520723d8a809802f6f248627568ea8fdc2f429af1cdbeffdeef5a75c269ac",
      "assetIds": []
    },
    {
      "x": 29,
      "y": 119,
      "size": 1,
      "price": "905000000000000000000",
      "reserved": "",
      "salt": "0xb17debdd8652ff9b5ee0cf910d4102ee8ebd53ca2a1d97171fb07f8b13b87dc9",
      "assetIds": []
    },
    {
      "x": 29,
      "y": 118,
      "size": 1,
      "price": "905000000000000000000",
      "reserved": "",
      "salt": "0x3a8eb0fd339d6116efe3f03b992c917fe9f9adfeac069b2a0b064dc607f2562b",
      "assetIds": []
    },
    {
      "x": 29,
      "y": 117,
      "size": 1,
      "price": "905000000000000000000",
      "reserved": "",
      "salt": "0x8e154821e6c39fbcfc91a91b2663ef63ed27b2b57573779a69c23312264a9f12",
      "assetIds": []
    },
    {
      "x": 29,
      "y": 116,
      "size": 1,
      "price": "905000000000000000000",
      "reserved": "",
      "salt": "0x143acd2dd61b4c2ef0f97d8fc49cb963929d11284ff60b4677a4f99fd1f7489d",
      "assetIds": []
    },
    {
      "x": 29,
      "y": 115,
      "size": 1,
      "price": "905000000000000000000",
      "reserved": "",
      "salt": "0x3bf26066ed747aa80e8c6eef315c0f2945a9d1e294bd47165fc112c62b9e6653",
      "assetIds": []
    },
    {
      "x": 29,
      "y": 114,
      "size": 1,
      "price": "905000000000000000000",
      "reserved": "",
      "salt": "0x72e7be1dc345af1ff4147975da84083ae0783bf6f733fe780b18b049b56e19e5",
      "assetIds": []
    },
    {
      "x": 29,
      "y": 113,
      "size": 1,
      "price": "905000000000000000000",
      "reserved": "",
      "salt": "0x3d4274c44e0afd85cb5b67dbd2e23da104515cc88326cfd17ae4cff9cfd07db5",
      "assetIds": []
    },
    {
      "x": 30,
      "y": 113,
      "size": 1,
      "price": "905000000000000000000",
      "reserved": "",
      "salt": "0xc38bb3564ce3fd77172bbd99cc514c957bd19ffbebff1a8a097437a8d427446d",
      "assetIds": []
    },
    {
      "x": 31,
      "y": 113,
      "size": 1,
      "price": "905000000000000000000",
      "reserved": "",
      "salt": "0xe90e89688f99fee6b193e69db9f8d9abe5e2beae3037f3712101d605ca506e0e",
      "assetIds": []
    },
    {
      "x": 31,
      "y": 112,
      "size": 1,
      "price": "905000000000000000000",
      "reserved": "",
      "salt": "0x7c7451a0955921f12b0dd333a4f128cf52a8d0c74ab1b9d6be1464679a209e40",
      "assetIds": []
    },
    {
      "x": 31,
      "y": 111,
      "size": 1,
      "price": "905000000000000000000",
      "reserved": "",
      "salt": "0x3a3d336a78491e21a41d943de2f40e2139c672c543aede087f886e622e83e918",
      "assetIds": []
    },
    {
      "x": 31,
      "y": 110,
      "size": 1,
      "price": "905000000000000000000",
      "reserved": "",
      "salt": "0x39148d1ac71c2c7bc25b5ead79237b138f5a87189062c75433e9b5ba8fa5163f",
      "assetIds": []
    },
    {
      "x": 31,
      "y": 109,
      "size": 1,
      "price": "905000000000000000000",
      "reserved": "",
      "salt": "0x1ccfa1bee829260b6fe47bcafcbc2105e1bca57c3bcb5d0b33497775817dd3dd",
      "assetIds": []
    },
    {
      "x": 32,
      "y": 109,
      "size": 1,
      "price": "905000000000000000000",
      "reserved": "",
      "salt": "0xc0dff412122c0bb2ca3cace31d26f2c87a95a95c1efb8e9b4a9f373661b990ab",
      "assetIds": []
    },
    {
      "x": 32,
      "y": 108,
      "size": 1,
      "price": "905000000000000000000",
      "reserved": "",
      "salt": "0xcadfce43f4b5ccd69759a2108f03beb04ca043cc74e5ba98c5cb6ffd12025f8e",
      "assetIds": []
    },
    {
      "x": 31,
      "y": 108,
      "size": 1,
      "price": "905000000000000000000",
      "reserved": "",
      "salt": "0x782d0c58f0a4c1aab7210ab8800aac341d57f1041d713b54173e7a97725e9926",
      "assetIds": []
    },
    {
      "x": 30,
      "y": 108,
      "size": 1,
      "price": "905000000000000000000",
      "reserved": "",
      "salt": "0x181c68698d9ab07dc647f9f07ea11c0efff5d1d3bb3faf0c6e257f886c1fcb0d",
      "assetIds": []
    },
    {
      "x": 29,
      "y": 108,
      "size": 1,
      "price": "905000000000000000000",
      "reserved": "",
      "salt": "0xfecf34612afb71d1d0a7052dd528bdf6f7329138d5da74ad94fd6a1c8f2ddeac",
      "assetIds": []
    },
    {
      "x": 28,
      "y": 108,
      "size": 1,
      "price": "905000000000000000000",
      "reserved": "",
      "salt": "0x27325abfca08ed046f5b9ab1cd25b2f4e58131d032cf0a09eb4a6680f2173518",
      "assetIds": []
    },
    {
      "x": 27,
      "y": 108,
      "size": 1,
      "price": "905000000000000000000",
      "reserved": "",
      "salt": "0xa2e355d83ab584e613d2028cea0b868c2862048b53c6ecbd46f1138e37a63886",
      "assetIds": []
    },
    {
      "x": 26,
      "y": 108,
      "size": 1,
      "price": "905000000000000000000",
      "reserved": "",
      "salt": "0x5a09706d55e1a2edc9a921ede2f3772b1952d9eedde5615d649a333e1c6fa497",
      "assetIds": []
    },
    {
      "x": 25,
      "y": 108,
      "size": 1,
      "price": "905000000000000000000",
      "reserved": "",
      "salt": "0xcfa0c6ade5dcfece5528d87e2baec6b38b9cc6d05403127c2ba98ff0a6b2579f",
      "assetIds": []
    },
    {
      "x": 24,
      "y": 108,
      "size": 1,
      "price": "905000000000000000000",
      "reserved": "",
      "salt": "0x0cf34391b714425b797f5f7b47b348dad5b862dea4bb0ac6b747ec8d04fb7ca8",
      "assetIds": []
    },
    {
      "x": 24,
      "y": 109,
      "size": 1,
      "price": "905000000000000000000",
      "reserved": "",
      "salt": "0x98653b76a4f325cd834195344a7c2cca5823b7b00d4a8cc1371347330de7d3ce",
      "assetIds": []
    },
    {
      "x": 25,
      "y": 110,
      "size": 1,
      "price": "905000000000000000000",
      "reserved": "",
      "salt": "0x7248c82589cdafcf07d4628aed729848c18ed2b0e5eb8fe602dffacdaab01b93",
      "assetIds": []
    },
    {
      "x": 25,
      "y": 111,
      "size": 1,
      "price": "905000000000000000000",
      "reserved": "",
      "salt": "0xf6e84aa110bba8117d730594d0c69a59133b71a5d9e57cb2c8687bec9fb521f2",
      "assetIds": []
    },
    {
      "x": 25,
      "y": 112,
      "size": 1,
      "price": "905000000000000000000",
      "reserved": "",
      "salt": "0xec71826680869105a39a9e518fac2946caee58aebf51d5ff9a4026073297f400",
      "assetIds": []
    },
    {
      "x": 26,
      "y": 112,
      "size": 1,
      "price": "905000000000000000000",
      "reserved": "",
      "salt": "0x991e7c3d34e1df9959e96dc5e86ded82932a9c3ab28e85e18ce7866c1389c32c",
      "assetIds": []
    },
    {
      "x": 27,
      "y": 112,
      "size": 1,
      "price": "905000000000000000000",
      "reserved": "",
      "salt": "0x14fa5056f08170e6666c806eae5b79f0950200df467de148b7449c265e4846a8",
      "assetIds": []
    },
    {
      "x": 28,
      "y": 112,
      "size": 1,
      "price": "905000000000000000000",
      "reserved": "",
      "salt": "0x33d497507b82fb833578871b9c50c053daba411691e95ed70e14a1fae6e15c95",
      "assetIds": []
    },
    {
      "x": 29,
      "y": 112,
      "size": 1,
      "price": "905000000000000000000",
      "reserved": "",
      "salt": "0xc41f26919fab143b748c08a51fc4bc179580064011b154d43a680bd9c3ca9cac",
      "assetIds": []
    },
    {
      "x": 30,
      "y": 112,
      "size": 1,
      "price": "905000000000000000000",
      "reserved": "",
      "salt": "0xa922e6dc4bdfe385a253e1f1a4a6824f48325abbc5a698d8c28704f66c607b2c",
      "assetIds": []
    },
    {
      "x": 32,
      "y": 113,
      "size": 1,
      "price": "905000000000000000000",
      "reserved": "",
      "salt": "0x87ded706c7e53bfca1cea7c7356780dc0463dd49d39738f9a824034ba38e9b63",
      "assetIds": []
    },
    {
      "x": 32,
      "y": 112,
      "size": 1,
      "price": "905000000000000000000",
      "reserved": "",
      "salt": "0x51bacff6bf46a6c3dbe75356784769e87b49033dedd65ec9cad58074531c8fd8",
      "assetIds": []
    },
    {
      "x": 32,
      "y": 111,
      "size": 1,
      "price": "905000000000000000000",
      "reserved": "",
      "salt": "0x116827563afaddca934e33c0f72867d55d182ce3fa62b04a43d05b90d9d6e03b",
      "assetIds": []
    },
    {
      "x": 32,
      "y": 110,
      "size": 1,
      "price": "905000000000000000000",
      "reserved": "",
      "salt": "0x986aa36b9c79b9114da01c8bc124c9246b47ea280066ddc892a071eb9aba74dd",
      "assetIds": []
    },
    {
      "x": 30,
      "y": 109,
      "size": 1,
      "price": "905000000000000000000",
      "reserved": "",
      "salt": "0x9d33b8d138f427cd8f2d76864eff998b05f4883cf8a8b322c03a537d63c8cf0e",
      "assetIds": []
    },
    {
      "x": 29,
      "y": 109,
      "size": 1,
      "price": "905000000000000000000",
      "reserved": "",
      "salt": "0x6589620e76e1efe5b63e78e86c82143d6a8650007cc47195cdbe27b5f46b6733",
      "assetIds": []
    },
    {
      "x": 28,
      "y": 109,
      "size": 1,
      "price": "905000000000000000000",
      "reserved": "",
      "salt": "0x4bc62db0aba05f888186b8b5c97dcb28a44f8005d590a621b3956978a1e2bb6d",
      "assetIds": []
    },
    {
      "x": 27,
      "y": 109,
      "size": 1,
      "price": "905000000000000000000",
      "reserved": "",
      "salt": "0x9734e028a0b5fc2343e652f58b07cf746c31cde9b9b270b22e18f331013360b3",
      "assetIds": []
    },
    {
      "x": 26,
      "y": 109,
      "size": 1,
      "price": "905000000000000000000",
      "reserved": "",
      "salt": "0x09343184bfd442128d03e29510e4cd8567682facee2d34554748c2ad260fed1c",
      "assetIds": []
    },
    {
      "x": 25,
      "y": 109,
      "size": 1,
      "price": "905000000000000000000",
      "reserved": "",
      "salt": "0x05d48beaa6b438581d4c50bfef4acdfb06a58935d79f3d357947838d84df60a9",
      "assetIds": []
    },
    {
      "x": 24,
      "y": 110,
      "size": 1,
      "price": "905000000000000000000",
      "reserved": "",
      "salt": "0x6f59c1e1f7a088d90362370d2c38832f02dd867240a3511637f1f28211967ad0",
      "assetIds": []
    },
    {
      "x": 24,
      "y": 111,
      "size": 1,
      "price": "905000000000000000000",
      "reserved": "",
      "salt": "0xa8f2a9d3940a34f6b1cb866e64dd62fa3e51bf47f6036a8223f83827f4c5b896",
      "assetIds": []
    },
    {
      "x": 24,
      "y": 112,
      "size": 1,
      "price": "905000000000000000000",
      "reserved": "",
      "salt": "0x397424a25bbe5a01dccd90f0bcdfe1667fa61861858647637b832ebe85744fef",
      "assetIds": []
    },
    {
      "x": 24,
      "y": 113,
      "size": 1,
      "price": "905000000000000000000",
      "reserved": "",
      "salt": "0xcd2b9ed4ce6a13b51bd4f2c85890cfae6de5d3a81611d2094288bc4e5dc71504",
      "assetIds": []
    },
    {
      "x": 25,
      "y": 113,
      "size": 1,
      "price": "905000000000000000000",
      "reserved": "",
      "salt": "0xd31b38a9b299c7373a13a74066440b0cde222b257c8a8183f7c28af4f4368d2d",
      "assetIds": []
    },
    {
      "x": 26,
      "y": 113,
      "size": 1,
      "price": "905000000000000000000",
      "reserved": "",
      "salt": "0xf44a5711c49c30838f343bbc9b8520ae817df27a8f0fc82964a49fd998d9df41",
      "assetIds": []
    },
    {
      "x": 29,
      "y": 111,
      "size": 1,
      "price": "905000000000000000000",
      "reserved": "",
      "salt": "0x389b2020263b53cc5dc3c814a4f8d203bcc23d45b8ebfb1a50605b42c1ead38c",
      "assetIds": []
    },
    {
      "x": 30,
      "y": 111,
      "size": 1,
      "price": "905000000000000000000",
      "reserved": "",
      "salt": "0x045b138d5aa822beb4cf60635a35d5e89720a3d6efb44132429e58af3c3ddf14",
      "assetIds": []
    },
    {
      "x": 30,
      "y": 110,
      "size": 1,
      "price": "905000000000000000000",
      "reserved": "",
      "salt": "0x9fc07d98d535d2d772c100df4c0493c602c386a9f84cf04138caba9d2d718514",
      "assetIds": []
    },
    {
      "x": 29,
      "y": 110,
      "size": 1,
      "price": "905000000000000000000",
      "reserved": "",
      "salt": "0x5a481514cfe2c3c76df0d72dcbb9fb751055b749a22d546ef66610f70d569166",
      "assetIds": []
    },
    {
      "x": 28,
      "y": 110,
      "size": 1,
      "price": "905000000000000000000",
      "reserved": "",
      "salt": "0x2e5f114c2179022530843c7ba17cecf9e508283bfb855bb8538779290820bf6f",
      "assetIds": []
    },
    {
      "x": 27,
      "y": 110,
      "size": 1,
      "price": "905000000000000000000",
      "reserved": "",
      "salt": "0xeb289deb1cbf1ddfb1819f33219a4f591676a2cad0c0faac50513d7ca50d86eb",
      "assetIds": []
    },
    {
      "x": 26,
      "y": 110,
      "size": 1,
      "price": "905000000000000000000",
      "reserved": "",
      "salt": "0x25f9b23d951821fdcffb3b26b5a658e9dba57fc6601e336f450efa68e0a9c808",
      "assetIds": []
    },
    {
      "x": 27,
      "y": 111,
      "size": 1,
      "price": "905000000000000000000",
      "reserved": "",
      "salt": "0xe9eadc02446f034533a2b157b82884f9702f81d50f46cba015a83a875e080925",
      "assetIds": []
    },
    {
      "x": 26,
      "y": 111,
      "size": 1,
      "price": "905000000000000000000",
      "reserved": "",
      "salt": "0x2d79684a02c509c6dba99c73be504b7527881179e58138a1e88090ee10ed1379",
      "assetIds": []
    },
    {
      "x": 28,
      "y": 111,
      "size": 1,
      "price": "905000000000000000000",
      "reserved": "",
      "salt": "0xa3020d6c094fdd1209028eabd9407e451c33d794ce7a4334f6493d389012e1c6",
      "assetIds": []
    },
    {
      "x": 27,
      "y": 113,
      "size": 1,
      "price": "905000000000000000000",
      "reserved": "",
      "salt": "0x3936c9b26285b9709ac728e655ad474d487b58473160023e63335763772fe681",
      "assetIds": []
    },
    {
      "x": 27,
      "y": 114,
      "size": 1,
      "price": "905000000000000000000",
      "reserved": "",
      "salt": "0xe6f3cf9b237b621f947311782804040716e7408767b38a9b6b5801ee52d861d8",
      "assetIds": []
    },
    {
      "x": 27,
      "y": 115,
      "size": 1,
      "price": "905000000000000000000",
      "reserved": "",
      "salt": "0xa2a24d1425016b5a91e4c7aeffd37f5505d097a816608c98a2a781cb71e9ae96",
      "assetIds": []
    },
    {
      "x": 26,
      "y": 117,
      "size": 1,
      "price": "905000000000000000000",
      "reserved": "",
      "salt": "0x7e9f1b664f3b4a3b3d8b62785f9ed4e5813422ac2b69ee51b2bdf21a69253ba8",
      "assetIds": []
    },
    {
      "x": 26,
      "y": 118,
      "size": 1,
      "price": "905000000000000000000",
      "reserved": "",
      "salt": "0xfd3f597bb18df0f77ac435771a80d6bc16d8caf078a6b1b60f5070cc5701f5b7",
      "assetIds": []
    },
    {
      "x": 26,
      "y": 119,
      "size": 1,
      "price": "905000000000000000000",
      "reserved": "",
      "salt": "0xc70bf61cb373c27b3f3c8dc2c599a5fe157dd9dccbd2d1a5ec3d5e116151ad23",
      "assetIds": []
    },
    {
      "x": 26,
      "y": 120,
      "size": 1,
      "price": "905000000000000000000",
      "reserved": "",
      "salt": "0xb687cee029d2622206a7f87f0763c413f90ee77ea8715307730f4a95afcbd90c",
      "assetIds": []
    },
    {
      "x": 26,
      "y": 121,
      "size": 1,
      "price": "905000000000000000000",
      "reserved": "",
      "salt": "0x69e7ef0bdd52c2275ab468cf4bfc8f42a81f56e1d6568f2ea8f593e367591d47",
      "assetIds": []
    },
    {
      "x": 26,
      "y": 122,
      "size": 1,
      "price": "905000000000000000000",
      "reserved": "",
      "salt": "0x9ee229c8db09a9da9d90596812e1df31dfeabb715ad8dee54151a9a6a82ac2f1",
      "assetIds": []
    },
    {
      "x": 27,
      "y": 122,
      "size": 1,
      "price": "905000000000000000000",
      "reserved": "",
      "salt": "0x564f830fc647e9ad390c78e41028474f2167ce049ef5929de9d7b49f579cb1b7",
      "assetIds": []
    },
    {
      "x": 27,
      "y": 123,
      "size": 1,
      "price": "905000000000000000000",
      "reserved": "",
      "salt": "0xb53c489c80f5acd77b65735246bcdd709bdd8f323e9b2b6d0c29588d765f19a5",
      "assetIds": []
    },
    {
      "x": 27,
      "y": 124,
      "size": 1,
      "price": "905000000000000000000",
      "reserved": "",
      "salt": "0xf137c670077481d5a49cdfe719a1b647472b0cc8f82cb50c1e75c9215de7ce49",
      "assetIds": []
    },
    {
      "x": 26,
      "y": 125,
      "size": 1,
      "price": "905000000000000000000",
      "reserved": "",
      "salt": "0x2ec8f2a42ad3df5f661ecc5f5beb853ea83e2b4943958f955721482daee0a8ff",
      "assetIds": []
    },
    {
      "x": 25,
      "y": 125,
      "size": 1,
      "price": "905000000000000000000",
      "reserved": "",
      "salt": "0xe6cd0d0c2baea1d2867f60be42d5c9f5082f84d2fbbccdca4021f2f780e6cc43",
      "assetIds": []
    },
    {
      "x": 24,
      "y": 125,
      "size": 1,
      "price": "905000000000000000000",
      "reserved": "",
      "salt": "0x306f492766861c5f1c3b84dcb321759082146f2833b601d9f06180f1c319f227",
      "assetIds": []
    },
    {
      "x": 23,
      "y": 124,
      "size": 1,
      "price": "905000000000000000000",
      "reserved": "",
      "salt": "0xaa69b48006ea75da9d6b5d0ca4e47c0ad7ffcfbe17513b229fa747bd0e563427",
      "assetIds": []
    },
    {
      "x": 22,
      "y": 124,
      "size": 1,
      "price": "905000000000000000000",
      "reserved": "",
      "salt": "0xf3769425244530781efce79f0a1c4d8472677cc26360f313881d1a42581bf5c6",
      "assetIds": []
    },
    {
      "x": 21,
      "y": 124,
      "size": 1,
      "price": "905000000000000000000",
      "reserved": "",
      "salt": "0xed296634bfa146d8eba3bb487dcfc3068f4ee72a09028cfb310624c19300ff8a",
      "assetIds": []
    },
    {
      "x": 20,
      "y": 124,
      "size": 1,
      "price": "905000000000000000000",
      "reserved": "",
      "salt": "0x60b427c948b7eaeb930765012be5f63fcdda695f68160811aad5ea0139cc8ba0",
      "assetIds": []
    },
    {
      "x": 20,
      "y": 125,
      "size": 1,
      "price": "905000000000000000000",
      "reserved": "",
      "salt": "0x246f17b77a16d56e653c8b8f57d57a4c510813d9d45c75c1fb0f9def8e2c379f",
      "assetIds": []
    },
    {
      "x": 19,
      "y": 125,
      "size": 1,
      "price": "905000000000000000000",
      "reserved": "",
      "salt": "0xa0e3fb633956f8cb0d1c068efad7d50075e652db806ac003dac99f9709d9e858",
      "assetIds": []
    },
    {
      "x": 18,
      "y": 125,
      "size": 1,
      "price": "905000000000000000000",
      "reserved": "",
      "salt": "0x0fd45647ea7f3710e2fe323b404a5b14503d9314c1a8771d80a1946114883ebc",
      "assetIds": []
    },
    {
      "x": 19,
      "y": 124,
      "size": 1,
      "price": "905000000000000000000",
      "reserved": "",
      "salt": "0xde7c09bda71833058d722aa96b1c6f2ad0f4b0e855560e83340ee616eb33e139",
      "assetIds": []
    },
    {
      "x": 24,
      "y": 124,
      "size": 1,
      "price": "905000000000000000000",
      "reserved": "",
      "salt": "0x331a2b00fa144a90d72d8319f416f5c538636a6c32e015a3ec033b13a5e1832f",
      "assetIds": []
    },
    {
      "x": 25,
      "y": 124,
      "size": 1,
      "price": "905000000000000000000",
      "reserved": "",
      "salt": "0x77fb7b38974de12efa54f07112dfba0a7fa9837cad460d028172e5f2e7133eb3",
      "assetIds": []
    },
    {
      "x": 23,
      "y": 125,
      "size": 1,
      "price": "905000000000000000000",
      "reserved": "",
      "salt": "0xf8379432782aae1c5b04711f41be7f8dd00674da3e5881ed0eb03521bf0e8245",
      "assetIds": []
    },
    {
      "x": 22,
      "y": 125,
      "size": 1,
      "price": "905000000000000000000",
      "reserved": "",
      "salt": "0x9a3f7e9529f8ce8c3f7d74b4af42c764fe2773b84bd7de72aae1212eca2692c1",
      "assetIds": []
    },
    {
      "x": 21,
      "y": 125,
      "size": 1,
      "price": "905000000000000000000",
      "reserved": "",
      "salt": "0x01dc37062572ef0286dc2006454f388a35d892eb5a6c7766646c2bd4808587c5",
      "assetIds": []
    },
    {
      "x": 28,
      "y": 125,
      "size": 1,
      "price": "905000000000000000000",
      "reserved": "",
      "salt": "0x8e19e460076100094a8bd634ccb3fb5dfba2e2eaf223a346355bcef3182a2bf9",
      "assetIds": []
    },
    {
      "x": 28,
      "y": 126,
      "size": 1,
      "price": "905000000000000000000",
      "reserved": "",
      "salt": "0x2313c391c6d16e66e4c584af58c5927f928179cce4faeba5ce7ae5d406bf43ca",
      "assetIds": []
    },
    {
      "x": 27,
      "y": 126,
      "size": 1,
      "price": "905000000000000000000",
      "reserved": "",
      "salt": "0x3130a7175d47a31018a75a310c13e1a1dc94ce8c81a6e46f8b99da0633a9bb1e",
      "assetIds": []
    },
    {
      "x": 27,
      "y": 127,
      "size": 1,
      "price": "905000000000000000000",
      "reserved": "",
      "salt": "0x8e98c42a44d34a5423178c855265169a22108a4acf99b4e6523b5465e3b2ab1d",
      "assetIds": []
    },
    {
      "x": 27,
      "y": 128,
      "size": 1,
      "price": "905000000000000000000",
      "reserved": "",
      "salt": "0xb34e04dbc997338428c889bbedab0ddaa5f1b026aad1542b9cae3b626c5771c4",
      "assetIds": []
    },
    {
      "x": 27,
      "y": 129,
      "size": 1,
      "price": "905000000000000000000",
      "reserved": "",
      "salt": "0xffae525174e8522e46be1e2d1e923ce30605e2f9884d99538c600b22e05aa44b",
      "assetIds": []
    },
    {
      "x": 27,
      "y": 130,
      "size": 1,
      "price": "905000000000000000000",
      "reserved": "",
      "salt": "0xe8aac32b867fc57e286be6b9f7d915133210d8e048ee926f3ca0c36203a6837c",
      "assetIds": []
    },
    {
      "x": 26,
      "y": 130,
      "size": 1,
      "price": "905000000000000000000",
      "reserved": "",
      "salt": "0xe24b70464b4a5fe4bbd7fed15ab0e15ced4c588bd39a76c5ba8f9b08cf6b30cb",
      "assetIds": []
    },
    {
      "x": 25,
      "y": 130,
      "size": 1,
      "price": "905000000000000000000",
      "reserved": "",
      "salt": "0x94bc99ae4ba0e6ee5c95d09ddc3effa04b69f77271ec20a9e028a6a8f2c5f4ed",
      "assetIds": []
    },
    {
      "x": 24,
      "y": 131,
      "size": 1,
      "price": "905000000000000000000",
      "reserved": "",
      "salt": "0x1c5e22c8951738c164334b9ee56f0a03446afca3c70dce1beadcdc6c20d24cec",
      "assetIds": []
    },
    {
      "x": 24,
      "y": 130,
      "size": 1,
      "price": "905000000000000000000",
      "reserved": "",
      "salt": "0xabb2d664bb01f61c75fad01b9209019344b92ef927a12bbfc32efcf3a716b824",
      "assetIds": []
    },
    {
      "x": 24,
      "y": 129,
      "size": 1,
      "price": "905000000000000000000",
      "reserved": "",
      "salt": "0x38f0819131f4e28a3a8a5e9d65e0c3a4f95a10406362685c52a242d7502c68ea",
      "assetIds": []
    },
    {
      "x": 24,
      "y": 126,
      "size": 1,
      "price": "905000000000000000000",
      "reserved": "",
      "salt": "0x8ab67209a467dca918c937bfb9e17626e8a4036e12bce0164348842e7c6d9acc",
      "assetIds": []
    },
    {
      "x": 24,
      "y": 127,
      "size": 1,
      "price": "905000000000000000000",
      "reserved": "",
      "salt": "0x553adc0c5d3900c592d0aa867a2192dc7bbc2b6e88531e4cb190896325df874a",
      "assetIds": []
    },
    {
      "x": 24,
      "y": 128,
      "size": 1,
      "price": "905000000000000000000",
      "reserved": "",
      "salt": "0xaf5c67607f663cf67a5be1caa0bb9745d0479e780b45f8fd8d35e3f1b01d63b5",
      "assetIds": []
    },
    {
      "x": 25,
      "y": 126,
      "size": 1,
      "price": "905000000000000000000",
      "reserved": "",
      "salt": "0x0f5818e2c637a8b5513373c9ab8ae92bce2781c769ff33f64233b40fbc078766",
      "assetIds": []
    },
    {
      "x": 25,
      "y": 127,
      "size": 1,
      "price": "905000000000000000000",
      "reserved": "",
      "salt": "0x34a8cd7bf714fc9a8b36fe9c85acc58ed4b840a3ee5d2ef041c846aff970ca68",
      "assetIds": []
    },
    {
      "x": 25,
      "y": 128,
      "size": 1,
      "price": "905000000000000000000",
      "reserved": "",
      "salt": "0x8b7168bcea939dfe2e9a3d6f714315cc67249b806af0cf0f40d2756e183f62b9",
      "assetIds": []
    },
    {
      "x": 25,
      "y": 129,
      "size": 1,
      "price": "905000000000000000000",
      "reserved": "",
      "salt": "0xe57906a866eb103d60af7de75940b578a469fdc31b4ad6f6903b8354bb7443a4",
      "assetIds": []
    },
    {
      "x": 26,
      "y": 126,
      "size": 1,
      "price": "905000000000000000000",
      "reserved": "",
      "salt": "0x5c965b3009d94553031792360364e0adb21cb83dea62ded901e0663320c846af",
      "assetIds": []
    },
    {
      "x": 26,
      "y": 127,
      "size": 1,
      "price": "905000000000000000000",
      "reserved": "",
      "salt": "0x4b31139723a186bf430cd7909ff97cd06cd2f60ef7cbf5a4f1f7b4020450facf",
      "assetIds": []
    },
    {
      "x": 26,
      "y": 128,
      "size": 1,
      "price": "905000000000000000000",
      "reserved": "",
      "salt": "0x3d070d474493f3f5b9c5159049be4b35a5152a3351346c93e4c5de43fd689a27",
      "assetIds": []
    },
    {
      "x": 26,
      "y": 129,
      "size": 1,
      "price": "905000000000000000000",
      "reserved": "",
      "salt": "0x625c1132e7d733c0817ee5d715eb969ab61ec260bca6bf0b98bce50689bc2b80",
      "assetIds": []
    },
    {
      "x": 28,
      "y": 129,
      "size": 1,
      "price": "905000000000000000000",
      "reserved": "",
      "salt": "0x2b8f987c36df00fd310be6a6be689299648e43654e287e26538d221afe2a2079",
      "assetIds": []
    },
    {
      "x": 28,
      "y": 130,
      "size": 1,
      "price": "905000000000000000000",
      "reserved": "",
      "salt": "0xf4b0b93378f7a946357c7464f5aea3a04751905eacacafd9d82bb4c0a1807da2",
      "assetIds": []
    },
    {
      "x": 28,
      "y": 128,
      "size": 1,
      "price": "905000000000000000000",
      "reserved": "",
      "salt": "0xd67013581959e23b500e41afa1ab5b1becfe9828fb23abcc96aa6acec0a2f76a",
      "assetIds": []
    },
    {
      "x": 28,
      "y": 127,
      "size": 1,
      "price": "905000000000000000000",
      "reserved": "",
      "salt": "0x2ca71002f3f9218012207144c668915f23a1119c8d274724ba3785a2b62dba96",
      "assetIds": []
    },
    {
      "x": 28,
      "y": 124,
      "size": 1,
      "price": "905000000000000000000",
      "reserved": "",
      "salt": "0xcecafbc8afeb16c167b5f4286de69c31a87b724690b0babb0d78528423192ee8",
      "assetIds": []
    },
    {
      "x": 28,
      "y": 123,
      "size": 1,
      "price": "905000000000000000000",
      "reserved": "",
      "salt": "0x1cadf96ff7a0d9a56b82b0763fd173bb6d8d943b5f00b6c5f14e661161de90d0",
      "assetIds": []
    },
    {
      "x": 28,
      "y": 122,
      "size": 1,
      "price": "905000000000000000000",
      "reserved": "",
      "salt": "0x7d3c9ec170c57d99d56c110edc178352796611386f09f3048e6a98798662324a",
      "assetIds": []
    },
    {
      "x": 26,
      "y": 124,
      "size": 1,
      "price": "905000000000000000000",
      "reserved": "",
      "salt": "0x1c74978dd52b0cfc3dc9ac980abfab63bde48a6655047bcb246f79a38772c9e2",
      "assetIds": []
    },
    {
      "x": 27,
      "y": 125,
      "size": 1,
      "price": "905000000000000000000",
      "reserved": "",
      "salt": "0x0e66b0083005c4a0e07d9785824bf141d4c639c9934861d378f76fb86f2a6f91",
      "assetIds": []
    },
    {
      "x": 25,
      "y": 122,
      "size": 1,
      "price": "905000000000000000000",
      "reserved": "",
      "salt": "0xd72d517048e8f25ea701d31cb69511f808743f89e0a18cbe34cc32be38e2738f",
      "assetIds": []
    },
    {
      "x": 25,
      "y": 123,
      "size": 1,
      "price": "905000000000000000000",
      "reserved": "",
      "salt": "0x4a6760af8597f76c358c2e45b1ec0da0850dc9639847fcf61f4b47444fb21d03",
      "assetIds": []
    },
    {
      "x": 24,
      "y": 123,
      "size": 1,
      "price": "905000000000000000000",
      "reserved": "",
      "salt": "0x997c55864dfcddc9d35e5094560c75a929670c0827bc2b3c351e851c8db3bfe8",
      "assetIds": []
    },
    {
      "x": 23,
      "y": 123,
      "size": 1,
      "price": "905000000000000000000",
      "reserved": "",
      "salt": "0x82e2bd8097b1e9ba1a2f672b87377c37813063e245bacc8809f2bf3e7d59ce6c",
      "assetIds": []
    },
    {
      "x": 22,
      "y": 123,
      "size": 1,
      "price": "905000000000000000000",
      "reserved": "",
      "salt": "0xcdbda991cdab61bc769502eb507f08d0a60eb58f627e22196f0ee5f0ff8f2bd4",
      "assetIds": []
    },
    {
      "x": 21,
      "y": 123,
      "size": 1,
      "price": "905000000000000000000",
      "reserved": "",
      "salt": "0x648150fb0a86b1c57ef8a79d46c329347ccd5997342f11f20d11307a5a2dfe67",
      "assetIds": []
    },
    {
      "x": 20,
      "y": 123,
      "size": 1,
      "price": "905000000000000000000",
      "reserved": "",
      "salt": "0x848a50f21475276e6494f592c33bdaba5941e6247c57f05c9bcf8cdccd06ab4d",
      "assetIds": []
    },
    {
      "x": 19,
      "y": 123,
      "size": 1,
      "price": "905000000000000000000",
      "reserved": "",
      "salt": "0xd19e6177649981b0c4d42165edff3e8e3c5031ce00f416335bccf0c439b07ec2",
      "assetIds": []
    },
    {
      "x": 18,
      "y": 123,
      "size": 1,
      "price": "905000000000000000000",
      "reserved": "",
      "salt": "0x3d5b2831233157a2b7816b89c685c2de07823d270bdaa1fbf2faf94d35a6c72d",
      "assetIds": []
    },
    {
      "x": 18,
      "y": 124,
      "size": 1,
      "price": "905000000000000000000",
      "reserved": "",
      "salt": "0x58beadea9391adebb5e2c635d27f53abecc6cc35709f76c4ba500def8b29b944",
      "assetIds": []
    },
    {
      "x": 19,
      "y": 122,
      "size": 1,
      "price": "905000000000000000000",
      "reserved": "",
      "salt": "0x90e0a4ad35e0ba1006fa427fb76d49e77e2d175b6e16fd91e8e5e0aa540e5115",
      "assetIds": []
    },
    {
      "x": 19,
      "y": 121,
      "size": 1,
      "price": "905000000000000000000",
      "reserved": "",
      "salt": "0xf77a5f6b9b7192e83e0118d1b0e6d067f02c5ff8e0cca45f2ae7932053f7ebbc",
      "assetIds": []
    },
    {
      "x": 19,
      "y": 120,
      "size": 1,
      "price": "905000000000000000000",
      "reserved": "",
      "salt": "0xf65e1494b6b36bc269a6c58d85cf49ea6c5a35c3b56f867bd1102015ab9d5b6e",
      "assetIds": []
    },
    {
      "x": 20,
      "y": 120,
      "size": 1,
      "price": "905000000000000000000",
      "reserved": "",
      "salt": "0x17010f22df8b515cce5ce61ee250a30559b8fc6b2b22475b05bd2c7ab5d3a9de",
      "assetIds": []
    },
    {
      "x": 22,
      "y": 120,
      "size": 1,
      "price": "905000000000000000000",
      "reserved": "",
      "salt": "0xd676606446d4f9a7966ef15ff52ec040d84678a9920e71f27f9425d331a9b5d2",
      "assetIds": []
    },
    {
      "x": 23,
      "y": 120,
      "size": 1,
      "price": "905000000000000000000",
      "reserved": "",
      "salt": "0x867ab1dcadeb8820a86d8499c3aed1a5e44c713947b3c9606bff6f67f63aca83",
      "assetIds": []
    },
    {
      "x": 24,
      "y": 120,
      "size": 1,
      "price": "905000000000000000000",
      "reserved": "",
      "salt": "0xb287fa163ca7eb27d0631bb9cb2435d7e0c04cca958e433d2b1a3a77b36855ce",
      "assetIds": []
    },
    {
      "x": 25,
      "y": 120,
      "size": 1,
      "price": "905000000000000000000",
      "reserved": "",
      "salt": "0xe5eb13fc4480693b096a5bc1520aad5a7ec3ed83255ccf4a6c37757689de3d4b",
      "assetIds": []
    },
    {
      "x": 23,
      "y": 121,
      "size": 1,
      "price": "905000000000000000000",
      "reserved": "",
      "salt": "0x87280a41bfafa70346afc494e8b6ef15f5bd097d485990f8e66e57e3771bafd7",
      "assetIds": []
    },
    {
      "x": 22,
      "y": 121,
      "size": 1,
      "price": "905000000000000000000",
      "reserved": "",
      "salt": "0xa88a26a51555a34860088ec28dd34ceb38aa62fa244fbae439758dfe3a7e3586",
      "assetIds": []
    },
    {
      "x": 21,
      "y": 121,
      "size": 1,
      "price": "905000000000000000000",
      "reserved": "",
      "salt": "0xbb10f5f1843807634a466fce94ea2c10c75ceee570d5b0914fcdc9e614d3df25",
      "assetIds": []
    },
    {
      "x": 20,
      "y": 121,
      "size": 1,
      "price": "905000000000000000000",
      "reserved": "",
      "salt": "0x6e6cf33e13697210febba70c656cac7b66b5c999e3ecd290b34049b3ffa599e1",
      "assetIds": []
    },
    {
      "x": 18,
      "y": 121,
      "size": 1,
      "price": "905000000000000000000",
      "reserved": "",
      "salt": "0x2fce2205c6338cf0fe5383c8cea7ddd770ecae8448358a992660732469e22369",
      "assetIds": []
    },
    {
      "x": 20,
      "y": 122,
      "size": 1,
      "price": "905000000000000000000",
      "reserved": "",
      "salt": "0x2174264c6d49a5658c20514e7b3e3c588199123ea186a11673b29def5a045fa0",
      "assetIds": []
    },
    {
      "x": 21,
      "y": 122,
      "size": 1,
      "price": "905000000000000000000",
      "reserved": "",
      "salt": "0x2bd8b1f6c6aa5dec9354c7d2ed9c2ba37cc6e09c8730793931b452cfbf999e99",
      "assetIds": []
    },
    {
      "x": 22,
      "y": 122,
      "size": 1,
      "price": "905000000000000000000",
      "reserved": "",
      "salt": "0x8830118eee38b8e64740bf85d0c8512172eab391f10e1f588a2ef350ab935a64",
      "assetIds": []
    },
    {
      "x": 23,
      "y": 122,
      "size": 1,
      "price": "905000000000000000000",
      "reserved": "",
      "salt": "0x862e033ba5ee6411e4559401bbeeaaedb1ce68468afd1ce56bb59b478124ab4a",
      "assetIds": []
    },
    {
      "x": 24,
      "y": 122,
      "size": 1,
      "price": "905000000000000000000",
      "reserved": "",
      "salt": "0x2d9e2085c37b16aec5c07b4258decc65255a93f2e3a6cfb10c3c7c4b06d8596f",
      "assetIds": []
    },
    {
      "x": 18,
      "y": 122,
      "size": 1,
      "price": "905000000000000000000",
      "reserved": "",
      "salt": "0x2e45308b729f35ac0a164c3c49b9cfe7286b93f219a7262f638ffc6db0f4f8dc",
      "assetIds": []
    },
    {
      "x": 18,
      "y": 120,
      "size": 1,
      "price": "905000000000000000000",
      "reserved": "",
      "salt": "0x0248837b1afcacfda9c2f397a74597a8b3dca7f8d41ccc2bcc58b1059b20aba7",
      "assetIds": []
    },
    {
      "x": 24,
      "y": 119,
      "size": 1,
      "price": "905000000000000000000",
      "reserved": "",
      "salt": "0xfe3c68037232b592683e1f20ec2f964f0c6262bfbfaf3debe430a40dfbbd7eb4",
      "assetIds": []
    },
    {
      "x": 25,
      "y": 119,
      "size": 1,
      "price": "905000000000000000000",
      "reserved": "",
      "salt": "0xb1982c21d0ceff92e7a73ab42235257c8f3d31278ec7a21d09bd350e6bb4978c",
      "assetIds": []
    },
    {
      "x": 27,
      "y": 120,
      "size": 1,
      "price": "905000000000000000000",
      "reserved": "",
      "salt": "0x138d8e80e587a13fa7e7272409ef1a89f8203df81a7e836084c1431d434ce701",
      "assetIds": []
    },
    {
      "x": 27,
      "y": 119,
      "size": 1,
      "price": "905000000000000000000",
      "reserved": "",
      "salt": "0x2c4b6996a5564c00e7e7ca116f660daeb381205525384ab7bb1e510104fa495f",
      "assetIds": []
    },
    {
      "x": 25,
      "y": 118,
      "size": 1,
      "price": "905000000000000000000",
      "reserved": "",
      "salt": "0x24caaeddc9f8aeb8f7957334c03024b22e58fa853b81e3b18ea3cee9e0b2bafe",
      "assetIds": []
    },
    {
      "x": 24,
      "y": 118,
      "size": 1,
      "price": "905000000000000000000",
      "reserved": "",
      "salt": "0x50e81d0f76aebcc569cf95b02cef0af5e5efd54340ec69473cfa987f065df10e",
      "assetIds": []
    },
    {
      "x": 24,
      "y": 117,
      "size": 1,
      "price": "905000000000000000000",
      "reserved": "",
      "salt": "0x66601ced137fc61b404d179f1978360ef80e9f3c38e13b54b5dadfa678bacecc",
      "assetIds": []
    },
    {
      "x": 25,
      "y": 117,
      "size": 1,
      "price": "905000000000000000000",
      "reserved": "",
      "salt": "0x5b3e97ae68392fbf077a4e22e775e8b3405c1212651d1d714bebcb420b40b403",
      "assetIds": []
    },
    {
      "x": 25,
      "y": 121,
      "size": 1,
      "price": "905000000000000000000",
      "reserved": "",
      "salt": "0xf11630028982fecbab2efc5dd5d0b543d11b969a2590dc12eab76ff9d3173a0a",
      "assetIds": []
    },
    {
      "x": 26,
      "y": 123,
      "size": 1,
      "price": "905000000000000000000",
      "reserved": "",
      "salt": "0x446cf199745d0ae3eae688a3d7b56364940e295054cbf2710ebcd180df274445",
      "assetIds": []
    },
    {
      "x": 24,
      "y": 121,
      "size": 1,
      "price": "905000000000000000000",
      "reserved": "",
      "salt": "0x699a2cef151a17a3a74336be040673a90d26c091a9ac0cf9e0ab2b9928c1f490",
      "assetIds": []
    },
    {
      "x": 21,
      "y": 120,
      "size": 1,
      "price": "905000000000000000000",
      "reserved": "",
      "salt": "0x4d7278c1f1ddeced3233fbea28e533adc5e19af9d2378bcdaf81f917392444fd",
      "assetIds": []
    },
    {
      "x": 27,
      "y": 121,
      "size": 1,
      "price": "905000000000000000000",
      "reserved": "",
      "salt": "0x5cd6c88ed3fc8d9721cfdc98d8d397bd5353326c4e90bf05971917bc1cc298f3",
      "assetIds": []
    },
    {
      "x": 28,
      "y": 121,
      "size": 1,
      "price": "905000000000000000000",
      "reserved": "",
      "salt": "0x5d1234259bd2df206b24a24cad6be894d785820743933ff3189f9e2a4a013e30",
      "assetIds": []
    },
    {
      "x": 28,
      "y": 120,
      "size": 1,
      "price": "905000000000000000000",
      "reserved": "",
      "salt": "0x9b49841a7b02d76e50370d8e8749e81b8f26d4a787dcec83042f11a61ce39b0c",
      "assetIds": []
    },
    {
      "x": 28,
      "y": 119,
      "size": 1,
      "price": "905000000000000000000",
      "reserved": "",
      "salt": "0x32c8766ac2ed064aeb2b6050802adf5987b64d88062a9256434b27ed51341aa9",
      "assetIds": []
    },
    {
      "x": 28,
      "y": 118,
      "size": 1,
      "price": "905000000000000000000",
      "reserved": "",
      "salt": "0x8a565814d63338c5f3d8665fa5c69fcec67d17e6fd132629f29d68c20bc512c9",
      "assetIds": []
    },
    {
      "x": 28,
      "y": 117,
      "size": 1,
      "price": "905000000000000000000",
      "reserved": "",
      "salt": "0x0bcd8263c4804095c75a97147a9f965e3114c77ddc6d21f74d74237c52d0f596",
      "assetIds": []
    },
    {
      "x": 28,
      "y": 116,
      "size": 1,
      "price": "905000000000000000000",
      "reserved": "",
      "salt": "0xfc2c3cd9288a07c30549befa1971b4e7149e2071b13f2976eab68fb7003b6a93",
      "assetIds": []
    },
    {
      "x": 28,
      "y": 115,
      "size": 1,
      "price": "905000000000000000000",
      "reserved": "",
      "salt": "0x308c2e7e54aa49e5b076a7110541eca608542373a6dfedcb9f2a0334d7f4a20b",
      "assetIds": []
    },
    {
      "x": 28,
      "y": 114,
      "size": 1,
      "price": "905000000000000000000",
      "reserved": "",
      "salt": "0x2c473fa244a167602df99993f4f9c9f9f411e75004ca72cf1c10321aa06ebe6c",
      "assetIds": []
    },
    {
      "x": 28,
      "y": 113,
      "size": 1,
      "price": "905000000000000000000",
      "reserved": "",
      "salt": "0x5202dd07d76afb865c89a91d2a5601f6cc6f5106f94563f00c528589cb84cdeb",
      "assetIds": []
    },
    {
      "x": 27,
      "y": 116,
      "size": 1,
      "price": "905000000000000000000",
      "reserved": "",
      "salt": "0xb6558268636bf19f457b73a8072ce8057037e8aebc8dc66e28d9a1fe76c2bf98",
      "assetIds": []
    },
    {
      "x": 27,
      "y": 117,
      "size": 1,
      "price": "905000000000000000000",
      "reserved": "",
      "salt": "0xc9bf02da61dee3a091a4a2ef2e0b807c76ad51209bff6d56844937b4713efc79",
      "assetIds": []
    },
    {
      "x": 0,
      "y": 191,
      "size": 1,
      "price": "905000000000000000000",
      "reserved": "",
      "salt": "0xdd8188a3d3177dff37dc71cf36bd28b7eb0f19ad5126bf155a43418752884492",
      "assetIds": []
    },
    {
      "x": 1,
      "y": 191,
      "size": 1,
      "price": "905000000000000000000",
      "reserved": "",
      "salt": "0x9c4604f56c742c5456e53b0e41bde8b6ac706960c0688883312165354fa5147e",
      "assetIds": []
    },
    {
      "x": 2,
      "y": 191,
      "size": 1,
      "price": "905000000000000000000",
      "reserved": "",
      "salt": "0x166a43ac58e48c75ba852f1bb8fb144b7fc0aa1e630bb36aa16d11941da2e579",
      "assetIds": []
    },
    {
      "x": 3,
      "y": 191,
      "size": 1,
      "price": "905000000000000000000",
      "reserved": "",
      "salt": "0xfcde9227e5ec0947c662d92900a3a90e29d6f80aae9f61db4337eb695114b008",
      "assetIds": []
    },
    {
      "x": 4,
      "y": 191,
      "size": 1,
      "price": "905000000000000000000",
      "reserved": "",
      "salt": "0x5a667eb93792894f04e1d72df8a5cbb0aa3b19fa1c2949ebb47f67783012c5fc",
      "assetIds": []
    },
    {
      "x": 5,
      "y": 191,
      "size": 1,
      "price": "905000000000000000000",
      "reserved": "",
      "salt": "0x980566db1208c91e5371d1cecd59506213ceea576874f505c7868716f657c2fe",
      "assetIds": []
    },
    {
      "x": 6,
      "y": 191,
      "size": 1,
      "price": "905000000000000000000",
      "reserved": "",
      "salt": "0xd7f3fb11c4d47b6a6102b6f112119c4020011556ef65920fa3cdb6657232071d",
      "assetIds": []
    },
    {
      "x": 6,
      "y": 190,
      "size": 1,
      "price": "905000000000000000000",
      "reserved": "",
      "salt": "0xf4d0afaf58d25251a0f1f451d2074f11685d4df76bc3085d667479baffbe3f8e",
      "assetIds": []
    },
    {
      "x": 7,
      "y": 190,
      "size": 1,
      "price": "905000000000000000000",
      "reserved": "",
      "salt": "0x0d5eee33fd79fcc9d4647dee031350b89536cf8e82cc573a3e4314dddb7946a0",
      "assetIds": []
    },
    {
      "x": 8,
      "y": 190,
      "size": 1,
      "price": "905000000000000000000",
      "reserved": "",
      "salt": "0xbe579637b7d8db3c55b1991727a8d5a9809c2b4d4c2ad3cac573f10e9e1e69a3",
      "assetIds": []
    },
    {
      "x": 9,
      "y": 189,
      "size": 1,
      "price": "905000000000000000000",
      "reserved": "",
      "salt": "0x12d7acfe70ea11fe4193230bff0ab0c9fca50670f8c6c7179fecb52a7f4cdf84",
      "assetIds": []
    },
    {
      "x": 10,
      "y": 189,
      "size": 1,
      "price": "905000000000000000000",
      "reserved": "",
      "salt": "0x7c3b175632582a1dd51e144657a34cad56155a5c284c30fcb491f77a41ab59a9",
      "assetIds": []
    },
    {
      "x": 11,
      "y": 189,
      "size": 1,
      "price": "905000000000000000000",
      "reserved": "",
      "salt": "0x5f05d393bc4c55fc1f7f0f3895a6e73223444cbfbba741b705028929e27f02f3",
      "assetIds": []
    },
    {
      "x": 10,
      "y": 190,
      "size": 1,
      "price": "905000000000000000000",
      "reserved": "",
      "salt": "0x82321d254b9093bf7206b866cf8603869e55fea0d017ca3bc71b5564a589f0a0",
      "assetIds": []
    },
    {
      "x": 10,
      "y": 191,
      "size": 1,
      "price": "905000000000000000000",
      "reserved": "",
      "salt": "0x3dad757590195a9afcc616462087bddbed840ec8f29a5a50b7ca4e90ee842735",
      "assetIds": []
    },
    {
      "x": 11,
      "y": 191,
      "size": 1,
      "price": "905000000000000000000",
      "reserved": "",
      "salt": "0xe17328bd2383d1eefcdf2f5714284455883417415ec75a91e75a33d12fe808ff",
      "assetIds": []
    },
    {
      "x": 9,
      "y": 191,
      "size": 1,
      "price": "905000000000000000000",
      "reserved": "",
      "salt": "0x9e3c1a2ee4b7916c653d2f3d1efa1a0d6fcee862b3a19b3c378e0b8ecd8a197f",
      "assetIds": []
    },
    {
      "x": 8,
      "y": 191,
      "size": 1,
      "price": "905000000000000000000",
      "reserved": "",
      "salt": "0xcb0ac1ab006b0b571f4093146b949ca385830a1a7943147d2c95964ffe79aa62",
      "assetIds": []
    },
    {
      "x": 7,
      "y": 191,
      "size": 1,
      "price": "905000000000000000000",
      "reserved": "",
      "salt": "0xe9533518d7344648debf25f8d974490d864376eb3f224c298af26fac1f37abfd",
      "assetIds": []
    },
    {
      "x": 9,
      "y": 190,
      "size": 1,
      "price": "905000000000000000000",
      "reserved": "",
      "salt": "0xe5f12c5c78c52bb67b5aef97de0f5075a0dd49f1a3ca0ecacee402a9a3629035",
      "assetIds": []
    },
    {
      "x": 11,
      "y": 190,
      "size": 1,
      "price": "905000000000000000000",
      "reserved": "",
      "salt": "0x8213dc3a9882eb7ab8222b6ec2f4124a032c8a7b811ed4f38bbd29b4dc579fe5",
      "assetIds": []
    },
    {
      "x": 11,
      "y": 188,
      "size": 1,
      "price": "905000000000000000000",
      "reserved": "",
      "salt": "0xe6b90d275e82b168d3cc274c9fee13bcd2d5534eb63258fc768c04a8017d4388",
      "assetIds": []
    },
    {
      "x": 11,
      "y": 187,
      "size": 1,
      "price": "905000000000000000000",
      "reserved": "",
      "salt": "0x8200a3cf9d18eb0c5609d9bb09cca505415111cabe869847ce4f33d86ec89811",
      "assetIds": []
    },
    {
      "x": 11,
      "y": 186,
      "size": 1,
      "price": "905000000000000000000",
      "reserved": "",
      "salt": "0x393a708590e711e303804c6ba1a18d4e0ff20d1dc737d5f153fcd5307f792861",
      "assetIds": []
    },
    {
      "x": 11,
      "y": 185,
      "size": 1,
      "price": "905000000000000000000",
      "reserved": "",
      "salt": "0x45a81f9596c342e52458eafb288c92b5a743f59cb2edf6b373e03e6b800795b5",
      "assetIds": []
    },
    {
      "x": 11,
      "y": 184,
      "size": 1,
      "price": "905000000000000000000",
      "reserved": "",
      "salt": "0x00b6545fa1ba5481db7f476e928508ed5010c1408ac930d1eaea31d29f5b6ea2",
      "assetIds": []
    },
    {
      "x": 11,
      "y": 183,
      "size": 1,
      "price": "905000000000000000000",
      "reserved": "",
      "salt": "0xd1ca1b4d0b726dedc9e121b070fb2a5f834195154578c506d9567d0387d7ed8b",
      "assetIds": []
    },
    {
      "x": 11,
      "y": 182,
      "size": 1,
      "price": "905000000000000000000",
      "reserved": "",
      "salt": "0x421c4524203c53739c16655d758eef90ed479fe7072e6e54bf6529d7e863e496",
      "assetIds": []
    },
    {
      "x": 11,
      "y": 174,
      "size": 1,
      "price": "905000000000000000000",
      "reserved": "",
      "salt": "0xb0f81b4dfc3627c2f3f18f386135d9e266ff234a121eae061c27c13f117402c0",
      "assetIds": []
    },
    {
      "x": 11,
      "y": 175,
      "size": 1,
      "price": "905000000000000000000",
      "reserved": "",
      "salt": "0xdf7c9c301caf3651a0a12ef604454d7980fc56e9e7e49dcfc1eba6ad6206934c",
      "assetIds": []
    },
    {
      "x": 11,
      "y": 176,
      "size": 1,
      "price": "905000000000000000000",
      "reserved": "",
      "salt": "0x336219c6dc0f1e97298ea3ad3c42bc912baaa6acbbebdad7bccfb5bdd734fc9c",
      "assetIds": []
    },
    {
      "x": 11,
      "y": 177,
      "size": 1,
      "price": "905000000000000000000",
      "reserved": "",
      "salt": "0x5667a50816f0b6d4e1518aebc0d6dfca161da50c381aab631fd28c8ee65d4216",
      "assetIds": []
    },
    {
      "x": 11,
      "y": 178,
      "size": 1,
      "price": "905000000000000000000",
      "reserved": "",
      "salt": "0x78a5c34d95730ed4782c7091ed2b0abd3b3644d00809a18db357c11b18104917",
      "assetIds": []
    },
    {
      "x": 11,
      "y": 179,
      "size": 1,
      "price": "905000000000000000000",
      "reserved": "",
      "salt": "0xbdc624949d7b2fd7c668d7af71b958596ee540ebced2686b8ac66d9de9d5e532",
      "assetIds": []
    },
    {
      "x": 11,
      "y": 180,
      "size": 1,
      "price": "905000000000000000000",
      "reserved": "",
      "salt": "0x705602cfd7c48d5ef4ca421a135a6e39545f4e8e6a682ce0d1c557fb129af1de",
      "assetIds": []
    },
    {
      "x": 11,
      "y": 181,
      "size": 1,
      "price": "905000000000000000000",
      "reserved": "",
      "salt": "0x7c856c2d52164ab6ec823f3fff4ccf7b989947709564be4e153246b3687f1f46",
      "assetIds": []
    },
    {
      "x": 12,
      "y": 173,
      "size": 1,
      "price": "905000000000000000000",
      "reserved": "",
      "salt": "0xa3a9e19209a4ebf3c8361adc21f80957ed93bcbf14b559c6953ef100d14e97fa",
      "assetIds": []
    },
    {
      "x": 12,
      "y": 172,
      "size": 1,
      "price": "905000000000000000000",
      "reserved": "",
      "salt": "0x140ff69758290792f7c1328f3197d842d6cc97ae1db87a2bf70d705c396e08cb",
      "assetIds": []
    },
    {
      "x": 12,
      "y": 171,
      "size": 1,
      "price": "905000000000000000000",
      "reserved": "",
      "salt": "0x72336149ce231675b3eabbb379171b5b1bacc4db43165a9f463f7a3b0a8ce3a8",
      "assetIds": []
    },
    {
      "x": 12,
      "y": 170,
      "size": 1,
      "price": "905000000000000000000",
      "reserved": "",
      "salt": "0x80cfff558524b35b49bc877e5fa3e06ce3003527f4b553330c7d6142dd4bcc75",
      "assetIds": []
    },
    {
      "x": 12,
      "y": 169,
      "size": 1,
      "price": "905000000000000000000",
      "reserved": "",
      "salt": "0x587943f9bc486f86abb423f3779a4e6053dd6012d217df5ec91d0be8f0eb30e4",
      "assetIds": []
    },
    {
      "x": 12,
      "y": 168,
      "size": 1,
      "price": "905000000000000000000",
      "reserved": "",
      "salt": "0x61a21fe58f61c412242e2ac5e9b402d7caa7b34639c780889dae2a719d7114c0",
      "assetIds": []
    },
    {
      "x": 10,
      "y": 168,
      "size": 1,
      "price": "905000000000000000000",
      "reserved": "",
      "salt": "0xd8984e6ddaa27a93b7d7f073543c8ab0a34be6f198f88792cbf8121b042af856",
      "assetIds": []
    },
    {
      "x": 9,
      "y": 168,
      "size": 1,
      "price": "905000000000000000000",
      "reserved": "",
      "salt": "0x93243925fbb4083f39d6ebb19a93bca5fb937c2b72b7768327b763b90731e7fa",
      "assetIds": []
    },
    {
      "x": 8,
      "y": 168,
      "size": 1,
      "price": "905000000000000000000",
      "reserved": "",
      "salt": "0x524b3b670760a416d4be4c94dd97ad578475ccd1e87e600951edbf5fcb7f592e",
      "assetIds": []
    },
    {
      "x": 7,
      "y": 168,
      "size": 1,
      "price": "905000000000000000000",
      "reserved": "",
      "salt": "0x79ece98683899c3503204cc18344ebd9973032b9fc5d2a5a34282c8a00528466",
      "assetIds": []
    },
    {
      "x": 6,
      "y": 168,
      "size": 1,
      "price": "905000000000000000000",
      "reserved": "",
      "salt": "0xc90c7347255c319b8b3e642751ce03dff092697b01539f6e0a01168a3ea2b17e",
      "assetIds": []
    },
    {
      "x": 5,
      "y": 168,
      "size": 1,
      "price": "905000000000000000000",
      "reserved": "",
      "salt": "0xa5897430b5a513d820e552ec34267117cb03c587f705c64393704da4c664abdb",
      "assetIds": []
    },
    {
      "x": 5,
      "y": 169,
      "size": 1,
      "price": "905000000000000000000",
      "reserved": "",
      "salt": "0x7984fff40b916f2b07785fba8e64cfe84a1d149bfe75a3ef0f8364614b8d138d",
      "assetIds": []
    },
    {
      "x": 4,
      "y": 169,
      "size": 1,
      "price": "905000000000000000000",
      "reserved": "",
      "salt": "0xcf2192dce4f34416887896d4c9fedcb05e58ed57aa55cb07ab5513e973bd0221",
      "assetIds": []
    },
    {
      "x": 3,
      "y": 169,
      "size": 1,
      "price": "905000000000000000000",
      "reserved": "",
      "salt": "0xee5294c428da3a830e7ca5eb1a45c1642a9cb36143cd3ffa6e96b868839fd0cc",
      "assetIds": []
    },
    {
      "x": 2,
      "y": 169,
      "size": 1,
      "price": "905000000000000000000",
      "reserved": "",
      "salt": "0x583d66e9862e56b1dade3d5e5de0e2daa914c5b8ce8dfbc01f1191cebcf645cd",
      "assetIds": []
    },
    {
      "x": 1,
      "y": 169,
      "size": 1,
      "price": "905000000000000000000",
      "reserved": "",
      "salt": "0x63defac6c6e200f2c6b1888118ca1694a8240b2300eb8dff56f52a74a0834534",
      "assetIds": []
    },
    {
      "x": 0,
      "y": 169,
      "size": 1,
      "price": "905000000000000000000",
      "reserved": "",
      "salt": "0xba5bbaf14545aaef453c0b70ef4f5b6f1393bf9f7ff0aa00d315c30614ffc899",
      "assetIds": []
    },
    {
      "x": 0,
      "y": 168,
      "size": 1,
      "price": "905000000000000000000",
      "reserved": "",
      "salt": "0x87cc6f07a6d3e5bf324fa19f510334789212c05ba6939eafb3dd488804f119cb",
      "assetIds": []
    },
    {
      "x": 11,
      "y": 168,
      "size": 1,
      "price": "905000000000000000000",
      "reserved": "",
      "salt": "0x113d25ef949df3e9a73915f0ff6e29a0a3d9233e81affef4dbaa204cad5e5754",
      "assetIds": []
    },
    {
      "x": 6,
      "y": 169,
      "size": 1,
      "price": "905000000000000000000",
      "reserved": "",
      "salt": "0x96db99679d2cfb3038a4d186988d2e67d0960d069c1c02ddb2895b830d21f07e",
      "assetIds": []
    },
    {
      "x": 1,
      "y": 168,
      "size": 1,
      "price": "905000000000000000000",
      "reserved": "",
      "salt": "0x903a17dd5d252e3e824b425f14ca88a998a99d5b5f5ab78693f73da040b8f8a3",
      "assetIds": []
    },
    {
      "x": 2,
      "y": 168,
      "size": 1,
      "price": "905000000000000000000",
      "reserved": "",
      "salt": "0x04e7df9f28ecaddaa8106c6a3d92a6acce26ef5132ba88ac8c101eac31d7ed09",
      "assetIds": []
    },
    {
      "x": 4,
      "y": 168,
      "size": 1,
      "price": "905000000000000000000",
      "reserved": "",
      "salt": "0xcd7797d0bf8e529f8b0e278b5718b6a762f87b775b0aafe8612afc146acae7a9",
      "assetIds": []
    },
    {
      "x": 3,
      "y": 168,
      "size": 1,
      "price": "905000000000000000000",
      "reserved": "",
      "salt": "0xf98551435eac5d13193828eb561532ed6b3583da391f10c1f7ecd8022498c0b5",
      "assetIds": []
    },
    {
      "x": 2,
      "y": 170,
      "size": 1,
      "price": "905000000000000000000",
      "reserved": "",
      "salt": "0x1fea714ab4eb151a51b4ccd82e3673e813fbabab9df5fe00dfcf94098167ca36",
      "assetIds": []
    },
    {
      "x": 2,
      "y": 171,
      "size": 1,
      "price": "905000000000000000000",
      "reserved": "",
      "salt": "0xf4198528d688856cac7c059f6294d1ceff144b470cf86007b99d22737b2b35d5",
      "assetIds": []
    },
    {
      "x": 2,
      "y": 172,
      "size": 1,
      "price": "905000000000000000000",
      "reserved": "",
      "salt": "0xe4281efd84e4627ae7c4bfe93489c593ef9aaf786fa70abde179d4768b4c297c",
      "assetIds": []
    },
    {
      "x": 2,
      "y": 173,
      "size": 1,
      "price": "905000000000000000000",
      "reserved": "",
      "salt": "0x8e26943974346ff945434f8eb083b8c8d67d3beb1363d5d96ba139bc0475b678",
      "assetIds": []
    },
    {
      "x": 2,
      "y": 174,
      "size": 1,
      "price": "905000000000000000000",
      "reserved": "",
      "salt": "0x461344131046e836e71a7a2f94b97a23c97c8256d0b8019104a3406d92ed8922",
      "assetIds": []
    },
    {
      "x": 2,
      "y": 175,
      "size": 1,
      "price": "905000000000000000000",
      "reserved": "",
      "salt": "0xd642013f643eea78ac94fb5b8dec98c6a4fc131c3f26d49feb286954c65872c5",
      "assetIds": []
    },
    {
      "x": 2,
      "y": 176,
      "size": 1,
      "price": "905000000000000000000",
      "reserved": "",
      "salt": "0xa3fbb8c43177ccb84df0b7412ec5c618d4a0426d8644d6efc491d92579b4896f",
      "assetIds": []
    },
    {
      "x": 2,
      "y": 177,
      "size": 1,
      "price": "905000000000000000000",
      "reserved": "",
      "salt": "0xf629e3ca6229c768a28a3263f0ce2b9fc9b4e379caf3be82f74583e5250573fc",
      "assetIds": []
    },
    {
      "x": 2,
      "y": 178,
      "size": 1,
      "price": "905000000000000000000",
      "reserved": "",
      "salt": "0x4aac4c805a9e8b48358df1d48c5ca8d05f769df0c5fc4ccbb3573e69cb96ba72",
      "assetIds": []
    },
    {
      "x": 2,
      "y": 179,
      "size": 1,
      "price": "905000000000000000000",
      "reserved": "",
      "salt": "0xee01da03c11433f32a20bc720e894c7aab1a530e593497084eae07d5e56f110c",
      "assetIds": []
    },
    {
      "x": 3,
      "y": 180,
      "size": 1,
      "price": "905000000000000000000",
      "reserved": "",
      "salt": "0xe9be14a8c3f5654dcd01a0f64545f19810c3c2fcc6cc9cb1702308ad07b43bd6",
      "assetIds": []
    },
    {
      "x": 3,
      "y": 181,
      "size": 1,
      "price": "905000000000000000000",
      "reserved": "",
      "salt": "0xb9f0570600a6949ffb7ed3c686bd1e69f4581cc9ba18151b7d42f815a8c75823",
      "assetIds": []
    },
    {
      "x": 4,
      "y": 182,
      "size": 1,
      "price": "905000000000000000000",
      "reserved": "",
      "salt": "0xbac723526c69958bd7eec4fc932adf6b935c3e4caff29b09a2116face8f95159",
      "assetIds": []
    },
    {
      "x": 4,
      "y": 183,
      "size": 1,
      "price": "905000000000000000000",
      "reserved": "",
      "salt": "0x5c2f5657c8e574c00bd32e67ee8e5d029c28f3e53c5bb12a7ba22cfaf3ae6d22",
      "assetIds": []
    },
    {
      "x": 4,
      "y": 184,
      "size": 1,
      "price": "905000000000000000000",
      "reserved": "",
      "salt": "0xfd8f9f8ab8acd1b31cf9ff5fc6fea5851951544eeb7da70ef226763fe991310b",
      "assetIds": []
    },
    {
      "x": 4,
      "y": 185,
      "size": 1,
      "price": "905000000000000000000",
      "reserved": "",
      "salt": "0x0fb0fc6efa5a54861d9defa6b24d238ba2ccfcdf90a87f2e0f04c909b1dfb104",
      "assetIds": []
    },
    {
      "x": 4,
      "y": 186,
      "size": 1,
      "price": "905000000000000000000",
      "reserved": "",
      "salt": "0x659417c97e141dabd6cab7f29332dca2040ac35c21f13ea5c5297c8b2e77555c",
      "assetIds": []
    },
    {
      "x": 4,
      "y": 187,
      "size": 1,
      "price": "905000000000000000000",
      "reserved": "",
      "salt": "0xe00d812ac8299f3002864a9e7a5fd6d196417bd31ccd339f7a6049aa95e18071",
      "assetIds": []
    },
    {
      "x": 4,
      "y": 188,
      "size": 1,
      "price": "905000000000000000000",
      "reserved": "",
      "salt": "0x8f5d8a267cb45379a169713ace80a37bcc1ce877f16290f5ddb03427af21de9f",
      "assetIds": []
    },
    {
      "x": 4,
      "y": 189,
      "size": 1,
      "price": "905000000000000000000",
      "reserved": "",
      "salt": "0x98d6cfd56389da4d6c12d4ede6b3686d496744a6a36f1ba709b67cd8c5385008",
      "assetIds": []
    },
    {
      "x": 4,
      "y": 190,
      "size": 1,
      "price": "905000000000000000000",
      "reserved": "",
      "salt": "0xd522c3822144e82d2d0bcc3eea19027a904662b993249462fae4424d2d6057bc",
      "assetIds": []
    },
    {
      "x": 1,
      "y": 190,
      "size": 1,
      "price": "905000000000000000000",
      "reserved": "",
      "salt": "0xce464f818a2ffc2ad156e17f90acccad64938e968471ed44bf0d5dc0a954051a",
      "assetIds": []
    },
    {
      "x": 0,
      "y": 190,
      "size": 1,
      "price": "905000000000000000000",
      "reserved": "",
      "salt": "0x4f4e1418a6cc62fad10e629ff1451b759b54cff80643e881a49979920b9614b4",
      "assetIds": []
    },
    {
      "x": 0,
      "y": 189,
      "size": 1,
      "price": "905000000000000000000",
      "reserved": "",
      "salt": "0x64b4e7d1377552ebed09a728d9d23aa7071d4b5d389257cea36012afe5183bd2",
      "assetIds": []
    },
    {
      "x": 0,
      "y": 188,
      "size": 1,
      "price": "905000000000000000000",
      "reserved": "",
      "salt": "0x3bc2c98589c0f75395a7b52c41b9c77d88d7363a44690b6678a93736fe8d7853",
      "assetIds": []
    },
    {
      "x": 0,
      "y": 187,
      "size": 1,
      "price": "905000000000000000000",
      "reserved": "",
      "salt": "0xadd2b222468ff60aa8ee2f184572e1b7dcb285a13cd3eab0f26c441606147fb4",
      "assetIds": []
    },
    {
      "x": 0,
      "y": 186,
      "size": 1,
      "price": "905000000000000000000",
      "reserved": "",
      "salt": "0x11e922ce08b0e896e1ef0bd5010bb690a2b976134c178bc1f9aaad889de78bc1",
      "assetIds": []
    },
    {
      "x": 0,
      "y": 185,
      "size": 1,
      "price": "905000000000000000000",
      "reserved": "",
      "salt": "0xacefb7347736879c6ed8593ebc44597ddf036616ad89b355b799c6ac801b5295",
      "assetIds": []
    },
    {
      "x": 0,
      "y": 184,
      "size": 1,
      "price": "905000000000000000000",
      "reserved": "",
      "salt": "0x8355d50bb84ee3a099d5c38ad940db2f2e440426d49ae425b429d86c6a5b604f",
      "assetIds": []
    },
    {
      "x": 0,
      "y": 183,
      "size": 1,
      "price": "905000000000000000000",
      "reserved": "",
      "salt": "0xd27b3d0d50c378b83d0953b4febe46805b6f54f6b2d0600e80c08a54ec2f5aab",
      "assetIds": []
    },
    {
      "x": 0,
      "y": 182,
      "size": 1,
      "price": "905000000000000000000",
      "reserved": "",
      "salt": "0x0d6fd00faeb3a88923b484d80720260cb94fe5408b26f7535624b29efa4bab72",
      "assetIds": []
    },
    {
      "x": 0,
      "y": 181,
      "size": 1,
      "price": "905000000000000000000",
      "reserved": "",
      "salt": "0x35355e47ae9ddc0782136ccbaaf2584c6df781c750b4d0242958a70b35992810",
      "assetIds": []
    },
    {
      "x": 0,
      "y": 180,
      "size": 1,
      "price": "905000000000000000000",
      "reserved": "",
      "salt": "0xece7ceab8501e8466bfc299dc87a7278c3ff293e51ec13d91e9d26f16cca40cd",
      "assetIds": []
    },
    {
      "x": 0,
      "y": 179,
      "size": 1,
      "price": "905000000000000000000",
      "reserved": "",
      "salt": "0x75772ab20c39726c390f2933506612a7f33b9f4b286f202f401bdb005fa1c80c",
      "assetIds": []
    },
    {
      "x": 0,
      "y": 178,
      "size": 1,
      "price": "905000000000000000000",
      "reserved": "",
      "salt": "0x63a17d9b530f3481ceaa1541cb36920bbe3cd87b59034eb379c496f5dc1986d4",
      "assetIds": []
    },
    {
      "x": 0,
      "y": 177,
      "size": 1,
      "price": "905000000000000000000",
      "reserved": "",
      "salt": "0xd3b580c9bda72baa831e2107e2b327a38563130b98dfe5d621a56fd8813a6148",
      "assetIds": []
    },
    {
      "x": 0,
      "y": 176,
      "size": 1,
      "price": "905000000000000000000",
      "reserved": "",
      "salt": "0xece9bfe1f748075a2fa35b42f4d38a6159b3615218da799ad09bd575dfd40490",
      "assetIds": []
    },
    {
      "x": 0,
      "y": 175,
      "size": 1,
      "price": "905000000000000000000",
      "reserved": "",
      "salt": "0x3c946fb0f71abcc4c64f61368b070488e1ff4c1b95fb4dc89075accd7a485999",
      "assetIds": []
    },
    {
      "x": 0,
      "y": 174,
      "size": 1,
      "price": "905000000000000000000",
      "reserved": "",
      "salt": "0x813fdf46107a4488f6fc3a4758e553dcd507845bd40c8856c6ad105faaa68b49",
      "assetIds": []
    },
    {
      "x": 1,
      "y": 173,
      "size": 1,
      "price": "905000000000000000000",
      "reserved": "",
      "salt": "0x06894151f51720d6f979e5e1f4e96e58d4404b2bfdc7e53e537cd53da9e49a52",
      "assetIds": []
    },
    {
      "x": 1,
      "y": 172,
      "size": 1,
      "price": "905000000000000000000",
      "reserved": "",
      "salt": "0x96533f5560996bef14c865aac1bf4e73b66cc0ed4a87f485522f750796c57cd8",
      "assetIds": []
    },
    {
      "x": 1,
      "y": 171,
      "size": 1,
      "price": "905000000000000000000",
      "reserved": "",
      "salt": "0x64a865d7ece82113bb348e10950741c9d7d52e96d36d7f47678134e9ff5b09d2",
      "assetIds": []
    },
    {
      "x": 1,
      "y": 170,
      "size": 1,
      "price": "905000000000000000000",
      "reserved": "",
      "salt": "0x32d5afb688849d3a89b23f6a363ef04e0642220352368c559e78c1f05d58c180",
      "assetIds": []
    },
    {
      "x": 0,
      "y": 170,
      "size": 1,
      "price": "905000000000000000000",
      "reserved": "",
      "salt": "0x7c9010b1f2ea56cc8d889bcfdd02e70012de379a01822ca167609ecbb0f43539",
      "assetIds": []
    },
    {
      "x": 0,
      "y": 171,
      "size": 1,
      "price": "905000000000000000000",
      "reserved": "",
      "salt": "0xecdcdfc9400cfe9138fe41364c9f7307f0fe065911ec9947a9124c2b11fc7f1d",
      "assetIds": []
    },
    {
      "x": 0,
      "y": 173,
      "size": 1,
      "price": "905000000000000000000",
      "reserved": "",
      "salt": "0xb85deb410ff0187889d21f1d6f70cb532a9901866214b60c1e30efade9abc79e",
      "assetIds": []
    },
    {
      "x": 0,
      "y": 172,
      "size": 1,
      "price": "905000000000000000000",
      "reserved": "",
      "salt": "0x8672ea419eaf60ccca97cb2ab5746d48acd9056d263fcbbe2a8e7add174d3851",
      "assetIds": []
    },
    {
      "x": 1,
      "y": 175,
      "size": 1,
      "price": "905000000000000000000",
      "reserved": "",
      "salt": "0x4717b6d3dd57f35f1a98d6fa846b69d683b3a0de0b1e270f24b883ef36916cd1",
      "assetIds": []
    },
    {
      "x": 1,
      "y": 176,
      "size": 1,
      "price": "905000000000000000000",
      "reserved": "",
      "salt": "0xb9155dde283fba87bb6abaeb5e7770dc5839ba136666dff1248dd4a7cf96a6e4",
      "assetIds": []
    },
    {
      "x": 1,
      "y": 177,
      "size": 1,
      "price": "905000000000000000000",
      "reserved": "",
      "salt": "0x2eb7a1b2d59cf7cfb803a1523d6e5d72b3acbcfa087d26679df754cba8803fad",
      "assetIds": []
    },
    {
      "x": 2,
      "y": 180,
      "size": 1,
      "price": "905000000000000000000",
      "reserved": "",
      "salt": "0x2f4966b06f955824ccf1520ab6615f6a267af7733d8a13c2fc9b14aa22430397",
      "assetIds": []
    },
    {
      "x": 2,
      "y": 181,
      "size": 1,
      "price": "905000000000000000000",
      "reserved": "",
      "salt": "0x87e6eb94164aba94aa26a78eacdbc674ec5656bb64f4c18e4931f147748b75d7",
      "assetIds": []
    },
    {
      "x": 2,
      "y": 182,
      "size": 1,
      "price": "905000000000000000000",
      "reserved": "",
      "salt": "0xba48ee02b4d54ed9a5dd417fa2581fb60c03050432215897db8cf3b284c6b86a",
      "assetIds": []
    },
    {
      "x": 2,
      "y": 183,
      "size": 1,
      "price": "905000000000000000000",
      "reserved": "",
      "salt": "0x4ebcb9205aa492f95679b5ef02f1b2268cd4a93d14f5ba0d41e88f09b74a282a",
      "assetIds": []
    },
    {
      "x": 2,
      "y": 184,
      "size": 1,
      "price": "905000000000000000000",
      "reserved": "",
      "salt": "0xb56e3d7157891866fa22528ee429f4a531a762eab2a11f9f38a2428dd061118f",
      "assetIds": []
    },
    {
      "x": 2,
      "y": 185,
      "size": 1,
      "price": "905000000000000000000",
      "reserved": "",
      "salt": "0x4415f28f93f3e824fced4a0ed0e21a537233a596c3bce66b29e22741b5b081d0",
      "assetIds": []
    },
    {
      "x": 2,
      "y": 186,
      "size": 1,
      "price": "905000000000000000000",
      "reserved": "",
      "salt": "0xa46eb42c48634d8289c29bbe8675cb87b7d67d944bd61e47778211da9a607231",
      "assetIds": []
    },
    {
      "x": 2,
      "y": 187,
      "size": 1,
      "price": "905000000000000000000",
      "reserved": "",
      "salt": "0xa9ea7203d9a70958ea88e166459e2ba4f5b9d3f555ed1892df0f49d7e50474c2",
      "assetIds": []
    },
    {
      "x": 1,
      "y": 174,
      "size": 1,
      "price": "905000000000000000000",
      "reserved": "",
      "salt": "0x935cdadc9cdf50705034ff5ab5e57a84ac5b9207134fc9a0937d257d8b2b1f3c",
      "assetIds": []
    },
    {
      "x": 1,
      "y": 178,
      "size": 1,
      "price": "905000000000000000000",
      "reserved": "",
      "salt": "0xb305c4780143f510a295e26b83ea1db1f7effcea95a050c936e8e51e5f40045f",
      "assetIds": []
    },
    {
      "x": 1,
      "y": 179,
      "size": 1,
      "price": "905000000000000000000",
      "reserved": "",
      "salt": "0x10e468192439226984038e9fa07c1dd46bdb940b8f1d2f0728c7f9781118d46f",
      "assetIds": []
    },
    {
      "x": 1,
      "y": 180,
      "size": 1,
      "price": "905000000000000000000",
      "reserved": "",
      "salt": "0x34d8b698dc0b545b160d0adabb0ace9df5c3b23f3f4fddc9a19bf134c8064b79",
      "assetIds": []
    },
    {
      "x": 1,
      "y": 181,
      "size": 1,
      "price": "905000000000000000000",
      "reserved": "",
      "salt": "0x44260844a422ec197888177884b727e22e886f47e193f834773a546e1a97752a",
      "assetIds": []
    },
    {
      "x": 1,
      "y": 182,
      "size": 1,
      "price": "905000000000000000000",
      "reserved": "",
      "salt": "0x4c5ffc490476f8dc1424a8c589af69e3c06c416488264462d50a825cc1895605",
      "assetIds": []
    },
    {
      "x": 1,
      "y": 183,
      "size": 1,
      "price": "905000000000000000000",
      "reserved": "",
      "salt": "0x69f4df7bb0384f69fac06998b1dc62807eddefb52acc4e4ba51569605da43281",
      "assetIds": []
    },
    {
      "x": 1,
      "y": 184,
      "size": 1,
      "price": "905000000000000000000",
      "reserved": "",
      "salt": "0xb6da5f32516718046dec32eeb0502427ba30a8d770284ae5612af953874a5dd2",
      "assetIds": []
    },
    {
      "x": 1,
      "y": 185,
      "size": 1,
      "price": "905000000000000000000",
      "reserved": "",
      "salt": "0xbaa3e627a9fbb1f8f0b2d41331d7c2eda39fba4aab8354a12c266085b8b65e61",
      "assetIds": []
    },
    {
      "x": 1,
      "y": 186,
      "size": 1,
      "price": "905000000000000000000",
      "reserved": "",
      "salt": "0xd1e87fad1620a915bb21e8f597bfab7b44dc08d5af2016d2f2741901529a684f",
      "assetIds": []
    },
    {
      "x": 1,
      "y": 187,
      "size": 1,
      "price": "905000000000000000000",
      "reserved": "",
      "salt": "0xb1beb64aa6f5d8b77061001d4e18c535a8f4d9b5ad46858e02a9954a64ca6936",
      "assetIds": []
    },
    {
      "x": 2,
      "y": 188,
      "size": 1,
      "price": "905000000000000000000",
      "reserved": "",
      "salt": "0x9776ebf5f70d7f4256c063ddc9839134950f1551b79684e8dc375ea92fd84696",
      "assetIds": []
    },
    {
      "x": 2,
      "y": 189,
      "size": 1,
      "price": "905000000000000000000",
      "reserved": "",
      "salt": "0x893bbb1e429551c82c5fdb834e3e1b3fe7b7c694235d1d2dca9fd576a232a987",
      "assetIds": []
    },
    {
      "x": 1,
      "y": 189,
      "size": 1,
      "price": "905000000000000000000",
      "reserved": "",
      "salt": "0x575cdef137be88db9611dbf2630211257a81ac90f4a5ece47aa94cf8ab273f14",
      "assetIds": []
    },
    {
      "x": 1,
      "y": 188,
      "size": 1,
      "price": "905000000000000000000",
      "reserved": "",
      "salt": "0x19dc00eea5d9542a0fd3c9d60a84a59deeb3a4f590bf5bfd621c782642bb756e",
      "assetIds": []
    },
    {
      "x": 2,
      "y": 190,
      "size": 1,
      "price": "905000000000000000000",
      "reserved": "",
      "salt": "0x278ce6cbe9120cd1c3ca35cb182bc88b9bb4cb61cfc4fa6b38dd4c77f19f1dfa",
      "assetIds": []
    },
    {
      "x": 3,
      "y": 189,
      "size": 1,
      "price": "905000000000000000000",
      "reserved": "",
      "salt": "0xc6dd48e356652bb77616a08785fa5bffdf8344ba11020c876d6cf384c5e73195",
      "assetIds": []
    },
    {
      "x": 3,
      "y": 188,
      "size": 1,
      "price": "905000000000000000000",
      "reserved": "",
      "salt": "0x8aa62d2c0c35eb88b0856425044973eeebcfb6d660dee8481de90bd4be9f4602",
      "assetIds": []
    },
    {
      "x": 3,
      "y": 187,
      "size": 1,
      "price": "905000000000000000000",
      "reserved": "",
      "salt": "0xcf6d3ad5aaf4508bfdb7235fc52e60eab3a057faf13c79e475d10a3265e2018b",
      "assetIds": []
    },
    {
      "x": 3,
      "y": 186,
      "size": 1,
      "price": "905000000000000000000",
      "reserved": "",
      "salt": "0x7727535b4065d9a1354f62cc7333492becdeb3f2f46f6807f41691a4327f6602",
      "assetIds": []
    },
    {
      "x": 3,
      "y": 185,
      "size": 1,
      "price": "905000000000000000000",
      "reserved": "",
      "salt": "0x9d21498fb78c823e885cfaaa76a0e3ef1b50a19576610d388ca5b3890c9cf2bf",
      "assetIds": []
    },
    {
      "x": 3,
      "y": 184,
      "size": 1,
      "price": "905000000000000000000",
      "reserved": "",
      "salt": "0x67ddca2e922790ac154280aa5e9219be651d4bcf76c0f229cb58958af8697bf6",
      "assetIds": []
    },
    {
      "x": 3,
      "y": 183,
      "size": 1,
      "price": "905000000000000000000",
      "reserved": "",
      "salt": "0x6c475fceba9aa7fd4310a006a4b056547b1c5200d4dc14a57d8e4558000eaf8e",
      "assetIds": []
    },
    {
      "x": 3,
      "y": 182,
      "size": 1,
      "price": "905000000000000000000",
      "reserved": "",
      "salt": "0xf1d67d38758b4bf316d5196e02a0d399ee14482c082b00c1e444ebd8cbbc9c88",
      "assetIds": []
    },
    {
      "x": 3,
      "y": 190,
      "size": 1,
      "price": "905000000000000000000",
      "reserved": "",
      "salt": "0x36addb13bf7f4ca82e764e024f0b56d41c125cb965ea7ad14d500c044feb5ebf",
      "assetIds": []
    },
    {
      "x": 5,
      "y": 190,
      "size": 1,
      "price": "905000000000000000000",
      "reserved": "",
      "salt": "0x1ffb90b54d9d05b2e1d9ff9ca1c2e1a1eeee2b83b4c8b5cbbd4696cb25baef2a",
      "assetIds": []
    },
    {
      "x": 6,
      "y": 189,
      "size": 1,
      "price": "905000000000000000000",
      "reserved": "",
      "salt": "0xaace3d97b634fcb6cc699b7194fc02bd4397d19b752bf88327199c9c0e5122ce",
      "assetIds": []
    },
    {
      "x": 6,
      "y": 188,
      "size": 1,
      "price": "905000000000000000000",
      "reserved": "",
      "salt": "0x1e8ab86024466e9ab9530ca52bb601d05201377da51dca5b8e53b22b7b239bcf",
      "assetIds": []
    },
    {
      "x": 6,
      "y": 187,
      "size": 1,
      "price": "905000000000000000000",
      "reserved": "",
      "salt": "0xbb469bc81944e18b307838873a1e795809fd28652bcd12cfd9bf2e800550e64a",
      "assetIds": []
    },
    {
      "x": 6,
      "y": 186,
      "size": 1,
      "price": "905000000000000000000",
      "reserved": "",
      "salt": "0x781f936044d204b6a0916fe424a0ce47f44eb18e04012444e5110c440e02693a",
      "assetIds": []
    },
    {
      "x": 6,
      "y": 185,
      "size": 1,
      "price": "905000000000000000000",
      "reserved": "",
      "salt": "0x430d083adff6c03894b29e4048b688e894f8de6c620d741f312ab6f18e7c09da",
      "assetIds": []
    },
    {
      "x": 6,
      "y": 184,
      "size": 1,
      "price": "905000000000000000000",
      "reserved": "",
      "salt": "0x0a8acb60ee7e68d8410a6097c08fb77545d1077c3fd60f5c6eae068783e39716",
      "assetIds": []
    },
    {
      "x": 6,
      "y": 183,
      "size": 1,
      "price": "905000000000000000000",
      "reserved": "",
      "salt": "0x5e54ad5e503d7ba5519742383e520c2b859db11ef7aa62f06131f07070a5c154",
      "assetIds": []
    },
    {
      "x": 6,
      "y": 182,
      "size": 1,
      "price": "905000000000000000000",
      "reserved": "",
      "salt": "0x3d9127c146c9d62121cf66eb9d88732386c65fe500454926bdecd1b1027f2b73",
      "assetIds": []
    },
    {
      "x": 6,
      "y": 181,
      "size": 1,
      "price": "905000000000000000000",
      "reserved": "",
      "salt": "0x70fe3f7fd581c3c63e70883ad49334d5bbade76b18fc878bba10ac846c5e1eeb",
      "assetIds": []
    },
    {
      "x": 6,
      "y": 180,
      "size": 1,
      "price": "905000000000000000000",
      "reserved": "",
      "salt": "0x3828de472ba748fd956cd8768bd95a6fc3ccbe45ba138012723adc368c42cc63",
      "assetIds": []
    },
    {
      "x": 6,
      "y": 179,
      "size": 1,
      "price": "905000000000000000000",
      "reserved": "",
      "salt": "0xa8d882b4ee5f00dcafed4a8d7d8165f1f756b946ce3c050d465b2d02742458d7",
      "assetIds": []
    },
    {
      "x": 6,
      "y": 178,
      "size": 1,
      "price": "905000000000000000000",
      "reserved": "",
      "salt": "0xdaf03f0cbc787d7a12febfc73607f30c068d87b6aac789ffda88ffa0bd2fa634",
      "assetIds": []
    },
    {
      "x": 6,
      "y": 177,
      "size": 1,
      "price": "905000000000000000000",
      "reserved": "",
      "salt": "0x06e7edb4c167ab38e4297e90587a73729499c844892965df3cfba456e74f6930",
      "assetIds": []
    },
    {
      "x": 6,
      "y": 176,
      "size": 1,
      "price": "905000000000000000000",
      "reserved": "",
      "salt": "0x69df25e38e44bdce9265f5f58135d7317dc69b26a56f4725a197265262198bdb",
      "assetIds": []
    },
    {
      "x": 6,
      "y": 175,
      "size": 1,
      "price": "905000000000000000000",
      "reserved": "",
      "salt": "0x4e74c7f3bd0f1a493ea5cde545e37b833edf35aaeaa53ff168defc9d4532bbac",
      "assetIds": []
    },
    {
      "x": 6,
      "y": 174,
      "size": 1,
      "price": "905000000000000000000",
      "reserved": "",
      "salt": "0x9f7eca891cba178e6829ae3660fe17d0e910427f91c37966687cabeb6aa7522f",
      "assetIds": []
    },
    {
      "x": 6,
      "y": 173,
      "size": 1,
      "price": "905000000000000000000",
      "reserved": "",
      "salt": "0x99a05e5e2159fce37e2b4247cbefa17e5285960d50160e8302a27f1545eaa477",
      "assetIds": []
    },
    {
      "x": 6,
      "y": 172,
      "size": 1,
      "price": "905000000000000000000",
      "reserved": "",
      "salt": "0x9181728b6a98c9a3bf2675b65a30f455267798e59b4425c8dd17e422d1e50582",
      "assetIds": []
    },
    {
      "x": 6,
      "y": 171,
      "size": 1,
      "price": "905000000000000000000",
      "reserved": "",
      "salt": "0xd27aee6c8adf2fcced17f23a0022872a3ce9c48af7dbc9fb8fd902f5ecbe3a2e",
      "assetIds": []
    },
    {
      "x": 6,
      "y": 170,
      "size": 1,
      "price": "905000000000000000000",
      "reserved": "",
      "salt": "0x2930aa75af0930ee714b5bb41c145a7154ab824c98fd36d652934881476b7db0",
      "assetIds": []
    },
    {
      "x": 5,
      "y": 170,
      "size": 1,
      "price": "905000000000000000000",
      "reserved": "",
      "salt": "0xdcfc69e689cb397af45447e61d7ce8e7ec57c19502e2276fb3e2796e4b079ba6",
      "assetIds": []
    },
    {
      "x": 4,
      "y": 170,
      "size": 1,
      "price": "905000000000000000000",
      "reserved": "",
      "salt": "0x147b7c835513c385ec9c8a3b55786f6982cdc8c7f1401893ebe34002a719cf97",
      "assetIds": []
    },
    {
      "x": 4,
      "y": 171,
      "size": 1,
      "price": "905000000000000000000",
      "reserved": "",
      "salt": "0x29a7f874536079bf384ce117041bdb4a5ea3f48a6b2ce9ff8e3d9388b46f388c",
      "assetIds": []
    },
    {
      "x": 4,
      "y": 172,
      "size": 1,
      "price": "905000000000000000000",
      "reserved": "",
      "salt": "0xe2fd5221feedbed31208415edab5c8572fc15508791f8b1735ad80e241e82934",
      "assetIds": []
    },
    {
      "x": 4,
      "y": 173,
      "size": 1,
      "price": "905000000000000000000",
      "reserved": "",
      "salt": "0x1b7b184888d4e3e3b073bb9e938603e344031d1cff17f1e06d8990ff3e5370b9",
      "assetIds": []
    },
    {
      "x": 4,
      "y": 174,
      "size": 1,
      "price": "905000000000000000000",
      "reserved": "",
      "salt": "0x9280cf9d2882ebc933c6f927eb98443c7098b5a169632633dcb4199d9726626e",
      "assetIds": []
    },
    {
      "x": 4,
      "y": 175,
      "size": 1,
      "price": "905000000000000000000",
      "reserved": "",
      "salt": "0x373b2ecc5e06c24643eb229e271e9a8185f97f71e9d7d918823d2823fbbf23db",
      "assetIds": []
    },
    {
      "x": 4,
      "y": 176,
      "size": 1,
      "price": "905000000000000000000",
      "reserved": "",
      "salt": "0xe639023ef8d89cac5a8ae13b08153d343764861985fb83915ffb8b588473b780",
      "assetIds": []
    },
    {
      "x": 5,
      "y": 172,
      "size": 1,
      "price": "905000000000000000000",
      "reserved": "",
      "salt": "0xdb91946c6a362c72c9e9f113e23a81987b7943789cce7cd4ca1fcfe6866ddc66",
      "assetIds": []
    },
    {
      "x": 5,
      "y": 173,
      "size": 1,
      "price": "905000000000000000000",
      "reserved": "",
      "salt": "0x616b0194e7957c09339a0c02cea07f4d6d1bc586f2fc47ecfa8cd189418c3e24",
      "assetIds": []
    },
    {
      "x": 5,
      "y": 174,
      "size": 1,
      "price": "905000000000000000000",
      "reserved": "",
      "salt": "0xb759b392c02d65556592af8adcfc0a4e5b092024e7b15fab2705e29accc2c348",
      "assetIds": []
    },
    {
      "x": 5,
      "y": 175,
      "size": 1,
      "price": "905000000000000000000",
      "reserved": "",
      "salt": "0x0624f0fe2bb131d24561ec7f333dfc2871878234d3fd2d468887b97c9131ec6e",
      "assetIds": []
    },
    {
      "x": 5,
      "y": 176,
      "size": 1,
      "price": "905000000000000000000",
      "reserved": "",
      "salt": "0xf9a72931807e968d4c3c8d1fdb59dad01bd4136527bae0705486ab39df5f2949",
      "assetIds": []
    },
    {
      "x": 5,
      "y": 180,
      "size": 1,
      "price": "905000000000000000000",
      "reserved": "",
      "salt": "0xd1cb9b6ff8d9b5462e9707048c7b7bf1e5728400b7df6898800be15f6974af81",
      "assetIds": []
    },
    {
      "x": 5,
      "y": 181,
      "size": 1,
      "price": "905000000000000000000",
      "reserved": "",
      "salt": "0x4fa247f622fd079126bf4767e6049cb95f859a071670652078699ca4d249db02",
      "assetIds": []
    },
    {
      "x": 3,
      "y": 175,
      "size": 1,
      "price": "905000000000000000000",
      "reserved": "",
      "salt": "0xc28d43ae7aeb2b4203041dbbfe7f045f1ef9581327e686f855441aa4ea34d994",
      "assetIds": []
    },
    {
      "x": 3,
      "y": 174,
      "size": 1,
      "price": "905000000000000000000",
      "reserved": "",
      "salt": "0xeb9db6249f62c8602b3aca6754c3226fa0ed56b9c3307fc2630bf31e6ac59fde",
      "assetIds": []
    },
    {
      "x": 3,
      "y": 173,
      "size": 1,
      "price": "905000000000000000000",
      "reserved": "",
      "salt": "0xc62401b303a846747d2f6174b7d4770d6e84ff3d599b1bc33d616faf8519a5ab",
      "assetIds": []
    },
    {
      "x": 3,
      "y": 172,
      "size": 1,
      "price": "905000000000000000000",
      "reserved": "",
      "salt": "0xe90e92c96f81c985972750bf455b5e4e8d1bf6ec9d186a01f81d5eb31139502b",
      "assetIds": []
    },
    {
      "x": 3,
      "y": 171,
      "size": 1,
      "price": "905000000000000000000",
      "reserved": "",
      "salt": "0xa5be6f81beaaf08bca42bc66bdd429964295a1037f665e22ff675a0b1439081d",
      "assetIds": []
    },
    {
      "x": 3,
      "y": 170,
      "size": 1,
      "price": "905000000000000000000",
      "reserved": "",
      "salt": "0x4b25bf0ba6bfdb44d1dbc7f1d6beb63c6cebb912dfa5cd739cef72864339c179",
      "assetIds": []
    },
    {
      "x": 3,
      "y": 176,
      "size": 1,
      "price": "905000000000000000000",
      "reserved": "",
      "salt": "0x1b8c0192e40490d49a0e1aa5d88ec7314bf531da4bb68876ac0305e9530175a0",
      "assetIds": []
    },
    {
      "x": 5,
      "y": 182,
      "size": 1,
      "price": "905000000000000000000",
      "reserved": "",
      "salt": "0x943219c1274b3bc3f691375321ed9b2186a78371fb6bf915fa9ac9416105b5fd",
      "assetIds": []
    },
    {
      "x": 4,
      "y": 180,
      "size": 1,
      "price": "905000000000000000000",
      "reserved": "",
      "salt": "0xe150a2c0f555dfd81ba1be0c1b39a99957072879effd147d26a6439733435dae",
      "assetIds": []
    },
    {
      "x": 5,
      "y": 186,
      "size": 1,
      "price": "905000000000000000000",
      "reserved": "",
      "salt": "0x97c5ea3a08ee54964b86e816f2661a69163a031d1936cf9e63228e34075aa231",
      "assetIds": []
    },
    {
      "x": 5,
      "y": 187,
      "size": 1,
      "price": "905000000000000000000",
      "reserved": "",
      "salt": "0xed9fe0d973156c0e7f9fed03c925e02f770104d20d2de71107795a0ef52bfa43",
      "assetIds": []
    },
    {
      "x": 5,
      "y": 188,
      "size": 1,
      "price": "905000000000000000000",
      "reserved": "",
      "salt": "0x1f75757dc50ee61b11a6fae7819944ab44010599ec042690b93e498f07b03eca",
      "assetIds": []
    },
    {
      "x": 5,
      "y": 189,
      "size": 1,
      "price": "905000000000000000000",
      "reserved": "",
      "salt": "0x98b2d76cb58e75f5948a69d0729a8f5193b9109b757c80f2c87e0b702126309a",
      "assetIds": []
    },
    {
      "x": 5,
      "y": 185,
      "size": 1,
      "price": "905000000000000000000",
      "reserved": "",
      "salt": "0x152b6c3cfb46134533eeee5aa01d4aededc71582538b41a0f244a5d0f29e2153",
      "assetIds": []
    },
    {
      "x": 5,
      "y": 184,
      "size": 1,
      "price": "905000000000000000000",
      "reserved": "",
      "salt": "0x09af5c2aac94c8e1226676eee848f36ff99acfabec1c84b87e48a82b85eb95d3",
      "assetIds": []
    },
    {
      "x": 5,
      "y": 183,
      "size": 1,
      "price": "905000000000000000000",
      "reserved": "",
      "salt": "0xced0d0c882f0c5d2bdd0c23f185f1a1e61cb9920d49c6d64b753e4bfcdba699e",
      "assetIds": []
    },
    {
      "x": 4,
      "y": 181,
      "size": 1,
      "price": "905000000000000000000",
      "reserved": "",
      "salt": "0x0aa13a8635a1cab7c9ab8b7ea0726fdf7fc1398a25fd9fed36d87de543b2a9b9",
      "assetIds": []
    },
    {
      "x": 5,
      "y": 171,
      "size": 1,
      "price": "905000000000000000000",
      "reserved": "",
      "salt": "0xbff8ab140ba339aa0370129dd24469160b83c8648b370adab43c306ac63d6a59",
      "assetIds": []
    },
    {
      "x": 7,
      "y": 170,
      "size": 1,
      "price": "905000000000000000000",
      "reserved": "",
      "salt": "0x26465908f244db71e2cb998aa4558ca7293cf2dbc43bc358d3338f8001f8ead3",
      "assetIds": []
    },
    {
      "x": 8,
      "y": 170,
      "size": 1,
      "price": "905000000000000000000",
      "reserved": "",
      "salt": "0x470cdfe14937dee10579a3ce29fe2af22c97c4a6d8b84762b160bef8ad389a3d",
      "assetIds": []
    },
    {
      "x": 9,
      "y": 170,
      "size": 1,
      "price": "905000000000000000000",
      "reserved": "",
      "salt": "0xa5240b89730c195f3dbb5bae0268e5d4bd3e005b488cae1b373b5e0c0e53c488",
      "assetIds": []
    },
    {
      "x": 10,
      "y": 170,
      "size": 1,
      "price": "905000000000000000000",
      "reserved": "",
      "salt": "0x728be4b38531559e28b636b419ac94dff988761311a070140838062cf38f491b",
      "assetIds": []
    },
    {
      "x": 10,
      "y": 169,
      "size": 1,
      "price": "905000000000000000000",
      "reserved": "",
      "salt": "0xe5d9786ab4fce6070713fac44d56a2b3e76f60bc5f4cc94380390ff6c55f4721",
      "assetIds": []
    },
    {
      "x": 11,
      "y": 169,
      "size": 1,
      "price": "905000000000000000000",
      "reserved": "",
      "salt": "0x1bf99cdb8c3b25f98d158cb79a9c2bcc698bcb2bb6279b3e6b5bebd3586a404d",
      "assetIds": []
    },
    {
      "x": 9,
      "y": 169,
      "size": 1,
      "price": "905000000000000000000",
      "reserved": "",
      "salt": "0xab3359967ff8b253b49568efb33c03e660740a5f3af2ce0cddb5ea7095f1d456",
      "assetIds": []
    },
    {
      "x": 8,
      "y": 169,
      "size": 1,
      "price": "905000000000000000000",
      "reserved": "",
      "salt": "0x74ac3483236a9d5ec34765d2ef3b5e209f8aa4b215942df8f435b43ac3ebd1c4",
      "assetIds": []
    },
    {
      "x": 7,
      "y": 169,
      "size": 1,
      "price": "905000000000000000000",
      "reserved": "",
      "salt": "0xde16c95cc1cf6213098c68ac28a841345d03395d367c63873b866d0fa455ba2f",
      "assetIds": []
    },
    {
      "x": 9,
      "y": 171,
      "size": 1,
      "price": "905000000000000000000",
      "reserved": "",
      "salt": "0x3465ac4382d897531268cc2bcefd4eddd5b96d56ce94a2362dff968408643b25",
      "assetIds": []
    },
    {
      "x": 10,
      "y": 172,
      "size": 1,
      "price": "905000000000000000000",
      "reserved": "",
      "salt": "0xb01a1103023b8b7d6b352c762a7734bab82a7859cacc270f5f17d91661641c18",
      "assetIds": []
    },
    {
      "x": 11,
      "y": 172,
      "size": 1,
      "price": "905000000000000000000",
      "reserved": "",
      "salt": "0x5db78067c5f178c1a0e1d5ff3bd8ff5f2446be37f622175e7834d1535bc4fe15",
      "assetIds": []
    },
    {
      "x": 9,
      "y": 172,
      "size": 1,
      "price": "905000000000000000000",
      "reserved": "",
      "salt": "0x2f347885f2c8a371c9c65f422740846e28a555d0b654361093cb892b31877672",
      "assetIds": []
    },
    {
      "x": 8,
      "y": 172,
      "size": 1,
      "price": "905000000000000000000",
      "reserved": "",
      "salt": "0x18e4e25853f9044fd15f55708df872b2b070225ac6827840661c0e051adffd67",
      "assetIds": []
    },
    {
      "x": 13,
      "y": 172,
      "size": 1,
      "price": "905000000000000000000",
      "reserved": "",
      "salt": "0x43ab3b9c0f0c7a33e23a74f74f80b32dac51c00191c30bccd7f9ba273ad2519e",
      "assetIds": []
    },
    {
      "x": 14,
      "y": 172,
      "size": 1,
      "price": "905000000000000000000",
      "reserved": "",
      "salt": "0xb6ee956f3bb28ed369550febe4a8bab15a8be2f5934824f8df1b545d8deceb80",
      "assetIds": []
    },
    {
      "x": 13,
      "y": 171,
      "size": 1,
      "price": "905000000000000000000",
      "reserved": "",
      "salt": "0x107841588c97913f2cb5b745379039d03693304a8e81d855f0d19b306d9840fc",
      "assetIds": []
    },
    {
      "x": 11,
      "y": 170,
      "size": 1,
      "price": "905000000000000000000",
      "reserved": "",
      "salt": "0xf70d7597a3f469704ab376d2d23a657eb1e91c3f2c85bd05995da30cd8c1516d",
      "assetIds": []
    },
    {
      "x": 8,
      "y": 171,
      "size": 1,
      "price": "905000000000000000000",
      "reserved": "",
      "salt": "0x5fb9dbec7e3119ce93693d9a954cba1aedd8d04f1e07e9eb79d0a995be9db562",
      "assetIds": []
    },
    {
      "x": 7,
      "y": 171,
      "size": 1,
      "price": "905000000000000000000",
      "reserved": "",
      "salt": "0x45283aef3ae442c20eb4a8838865818458c23fea6c01a673099254a53272dc14",
      "assetIds": []
    },
    {
      "x": 10,
      "y": 171,
      "size": 1,
      "price": "905000000000000000000",
      "reserved": "",
      "salt": "0x1fb92675420c956eb8540ce0dd0e3f21569f2afef39afd9e94d2f04f1d1c3290",
      "assetIds": []
    },
    {
      "x": 11,
      "y": 171,
      "size": 1,
      "price": "905000000000000000000",
      "reserved": "",
      "salt": "0x13e5ad35a4c385d830453eefbc054e1520c9d8d12a91422e8dd54fb8be5c86f8",
      "assetIds": []
    },
    {
      "x": 7,
      "y": 172,
      "size": 1,
      "price": "905000000000000000000",
      "reserved": "",
      "salt": "0x5e1c7dd5ee4488e9bca2af46b7330836d0a53adf64dd02015a9c9f889dc14970",
      "assetIds": []
    },
    {
      "x": 7,
      "y": 173,
      "size": 1,
      "price": "905000000000000000000",
      "reserved": "",
      "salt": "0xa1856984a7f377bb466c1213ae70ee330a8c08899d46e5c617a5bf9a5d6082af",
      "assetIds": []
    },
    {
      "x": 7,
      "y": 175,
      "size": 1,
      "price": "905000000000000000000",
      "reserved": "",
      "salt": "0x8883b2283ce346c9195216b3edaca1f78f3528bc514963df88d872ca3b8e77db",
      "assetIds": []
    },
    {
      "x": 7,
      "y": 176,
      "size": 1,
      "price": "905000000000000000000",
      "reserved": "",
      "salt": "0x19968080014ed37256d9434176931d72ae7677eaad03fd4870ecd73421d308f1",
      "assetIds": []
    },
    {
      "x": 7,
      "y": 177,
      "size": 1,
      "price": "905000000000000000000",
      "reserved": "",
      "salt": "0x4bc8b018604d57285d8959a7fb8895f27933a7704ed207e5af792a5028c7ef2a",
      "assetIds": []
    },
    {
      "x": 8,
      "y": 177,
      "size": 1,
      "price": "905000000000000000000",
      "reserved": "",
      "salt": "0x8309d75bed50f75f90aada2fd072f36e12f934f13028cbe21528b2f675629bd9",
      "assetIds": []
    },
    {
      "x": 9,
      "y": 177,
      "size": 1,
      "price": "905000000000000000000",
      "reserved": "",
      "salt": "0xd98973eb7de3ad0402d518bfba00e12f01a4a2e0c9555fa9abf7b3d04c020811",
      "assetIds": []
    },
    {
      "x": 10,
      "y": 177,
      "size": 1,
      "price": "905000000000000000000",
      "reserved": "",
      "salt": "0xa1d63507dcade9ff563000d9d1ed5df96f6594bc043ff24b9f3bd106c12adcd4",
      "assetIds": []
    },
    {
      "x": 10,
      "y": 176,
      "size": 1,
      "price": "905000000000000000000",
      "reserved": "",
      "salt": "0x575f779fbc389394b37c55592f18c7e5d61e6a5bb25a496811e8774b177eb3f2",
      "assetIds": []
    },
    {
      "x": 10,
      "y": 175,
      "size": 1,
      "price": "905000000000000000000",
      "reserved": "",
      "salt": "0x57cdd3a9745da0748f6b6f0b4397f5117dc48bcddfe13278bee7e17250d24e48",
      "assetIds": []
    },
    {
      "x": 9,
      "y": 175,
      "size": 1,
      "price": "905000000000000000000",
      "reserved": "",
      "salt": "0xe9efbb3ce980256574c92e277357cdb4399ddb16d49669e6440a07dae51bd1aa",
      "assetIds": []
    },
    {
      "x": 9,
      "y": 174,
      "size": 1,
      "price": "905000000000000000000",
      "reserved": "",
      "salt": "0x447c8bc2edb30af3be6460c5bfbb25a54656b458028d95d7174cb258dcb8090a",
      "assetIds": []
    },
    {
      "x": 8,
      "y": 173,
      "size": 1,
      "price": "905000000000000000000",
      "reserved": "",
      "salt": "0x3c0e1b891efe739b287f11fed11669dc80849fe59324ba64a760ca86d48aae47",
      "assetIds": []
    },
    {
      "x": 10,
      "y": 173,
      "size": 1,
      "price": "905000000000000000000",
      "reserved": "",
      "salt": "0x956bb1d78ced3b88e2f4b230ca326d327f2dd5d351338b513e2748227b0a6777",
      "assetIds": []
    },
    {
      "x": 10,
      "y": 174,
      "size": 1,
      "price": "905000000000000000000",
      "reserved": "",
      "salt": "0xf3eb22f491c42cb62787bfcb7ef7b140226ce45cc26ba8bf6b1db1b70232d1c0",
      "assetIds": []
    },
    {
      "x": 10,
      "y": 178,
      "size": 1,
      "price": "905000000000000000000",
      "reserved": "",
      "salt": "0x0c79b9e0418b9c08deb775db99e97035838b2c2ac961423f542174cadcd59660",
      "assetIds": []
    },
    {
      "x": 10,
      "y": 179,
      "size": 1,
      "price": "905000000000000000000",
      "reserved": "",
      "salt": "0x85acfec7fb9375e7915abf102b388e74d1d62cee81c2d3d56a2b1c434170fd66",
      "assetIds": []
    },
    {
      "x": 9,
      "y": 173,
      "size": 1,
      "price": "905000000000000000000",
      "reserved": "",
      "salt": "0xa17b6b39be778302eb9988009f510738ff87b1157fd9b5901f756bc31f357dec",
      "assetIds": []
    },
    {
      "x": 11,
      "y": 173,
      "size": 1,
      "price": "905000000000000000000",
      "reserved": "",
      "salt": "0xd9ca64c6026522373d9b9f0d5e4e91e036567e84540bf2a9e8aa5de9e212137d",
      "assetIds": []
    },
    {
      "x": 10,
      "y": 181,
      "size": 1,
      "price": "905000000000000000000",
      "reserved": "",
      "salt": "0x6ebc4443aaac1460221adcf6a9d1040398282c1e77d5d5142e53e7a68bed30d8",
      "assetIds": []
    },
    {
      "x": 10,
      "y": 182,
      "size": 1,
      "price": "905000000000000000000",
      "reserved": "",
      "salt": "0xa459caf48cc76040c0259091cd41d82a7627f8d31e4261c113ffd00deedef462",
      "assetIds": []
    },
    {
      "x": 10,
      "y": 180,
      "size": 1,
      "price": "905000000000000000000",
      "reserved": "",
      "salt": "0x1b4aeb6effba34f6f77c334957c1712656d3e629bf1e1604602e1a18919dbcda",
      "assetIds": []
    },
    {
      "x": 9,
      "y": 183,
      "size": 1,
      "price": "905000000000000000000",
      "reserved": "",
      "salt": "0xf04416c2db245d36ac43bbce677fd15e688a13286c3e0099bb3a429bc5823af3",
      "assetIds": []
    },
    {
      "x": 9,
      "y": 184,
      "size": 1,
      "price": "905000000000000000000",
      "reserved": "",
      "salt": "0x3cd13ca109cbc0fcc377eca32a368cafb8f86568b96549d77bf00c8353fe226d",
      "assetIds": []
    },
    {
      "x": 9,
      "y": 182,
      "size": 1,
      "price": "905000000000000000000",
      "reserved": "",
      "salt": "0x545dd5f59b74a5e16f301f4cb289b1f2793216d6a517622f8c69a589bda06589",
      "assetIds": []
    },
    {
      "x": 9,
      "y": 181,
      "size": 1,
      "price": "905000000000000000000",
      "reserved": "",
      "salt": "0x2ba0cdc85785dd42711fffa227ef31bfb7726edc505156e104f77a080856f12b",
      "assetIds": []
    },
    {
      "x": 9,
      "y": 180,
      "size": 1,
      "price": "905000000000000000000",
      "reserved": "",
      "salt": "0xcb997b955338da633c7765faf9c13190050f076baab5e015374c496315934bd3",
      "assetIds": []
    },
    {
      "x": 9,
      "y": 179,
      "size": 1,
      "price": "905000000000000000000",
      "reserved": "",
      "salt": "0x9987e8ebe39330271c22323b2d96de60f4e1d7a393c132a6c12a843b14e898c9",
      "assetIds": []
    },
    {
      "x": 9,
      "y": 178,
      "size": 1,
      "price": "905000000000000000000",
      "reserved": "",
      "salt": "0x480d2fb6d3e519e101510cd57cc3f13580288a40a08992479a88dcc2a01a5835",
      "assetIds": []
    },
    {
      "x": 9,
      "y": 176,
      "size": 1,
      "price": "905000000000000000000",
      "reserved": "",
      "salt": "0x37ee32639d31de6b9e454462b18a047ef3720f04aa51e774b893c750a23fe67d",
      "assetIds": []
    },
    {
      "x": 8,
      "y": 174,
      "size": 1,
      "price": "905000000000000000000",
      "reserved": "",
      "salt": "0xbf262a5513042b8ab425c08a60e77e588db1f8e32b3834b6bc7f8a7ccd85aa48",
      "assetIds": []
    },
    {
      "x": 8,
      "y": 175,
      "size": 1,
      "price": "905000000000000000000",
      "reserved": "",
      "salt": "0xe955cd6e19cbf4585530c1439e79ec6d220b713ad377ffc210378adfe835e031",
      "assetIds": []
    },
    {
      "x": 8,
      "y": 176,
      "size": 1,
      "price": "905000000000000000000",
      "reserved": "",
      "salt": "0x1cbc7990985c850187bbfe71905f8ce33eab8088c7ccaf14151160b91e6157cf",
      "assetIds": []
    },
    {
      "x": 7,
      "y": 178,
      "size": 1,
      "price": "905000000000000000000",
      "reserved": "",
      "salt": "0x0516f9df5acd28fca1a871d632515a4fc04fff1b024ada3a4a2fac4bdec7645f",
      "assetIds": []
    },
    {
      "x": 7,
      "y": 179,
      "size": 1,
      "price": "905000000000000000000",
      "reserved": "",
      "salt": "0x572589f18d9037b42e472c0a859a90b0b127adc11ea583b37184b2b117c50732",
      "assetIds": []
    },
    {
      "x": 10,
      "y": 183,
      "size": 1,
      "price": "905000000000000000000",
      "reserved": "",
      "salt": "0xa97cd8f795fc1caf07a36d2c933b2e73209ab659fb46ed7da5a72d315c516868",
      "assetIds": []
    },
    {
      "x": 10,
      "y": 184,
      "size": 1,
      "price": "905000000000000000000",
      "reserved": "",
      "salt": "0x31a1bbb829a0957625dec2e24a1e55183c9273a0f142a1580a1be10ff54c0425",
      "assetIds": []
    },
    {
      "x": 10,
      "y": 185,
      "size": 1,
      "price": "905000000000000000000",
      "reserved": "",
      "salt": "0xa875e6a9d26987d5fdbfb9f7c865266a15b95df73ed2a47bae8f3a2c7623760f",
      "assetIds": []
    },
    {
      "x": 8,
      "y": 181,
      "size": 1,
      "price": "905000000000000000000",
      "reserved": "",
      "salt": "0x0ddbcafe448f882205b789a271eb005fa38754ec72204872735967085781cc88",
      "assetIds": []
    },
    {
      "x": 8,
      "y": 180,
      "size": 1,
      "price": "905000000000000000000",
      "reserved": "",
      "salt": "0xd4d0d9f0ca0cb98abde13fd373446ea4ba25c74cb84b25a0e9f86e96be6dd5c4",
      "assetIds": []
    },
    {
      "x": 8,
      "y": 178,
      "size": 1,
      "price": "905000000000000000000",
      "reserved": "",
      "salt": "0x58bf011fa5b4386e80856ee52475ece1b7795553b7bb6bee0be952d8b5b2d63a",
      "assetIds": []
    },
    {
      "x": 7,
      "y": 174,
      "size": 1,
      "price": "905000000000000000000",
      "reserved": "",
      "salt": "0x7ab8633e75288f93bc49f15d512dff18a747ee1f8947c927403fe431cd890147",
      "assetIds": []
    },
    {
      "x": 8,
      "y": 182,
      "size": 1,
      "price": "905000000000000000000",
      "reserved": "",
      "salt": "0x5b404ac327d20a5a15855318efc7f9b8b5d5279d1a4a3bd8ca4d558d2108a7a1",
      "assetIds": []
    },
    {
      "x": 8,
      "y": 179,
      "size": 1,
      "price": "905000000000000000000",
      "reserved": "",
      "salt": "0x3992fbd037a439c842e4ddda5b11e74cd380f21271e73470f41311cb535f10a2",
      "assetIds": []
    },
    {
      "x": 7,
      "y": 183,
      "size": 1,
      "price": "905000000000000000000",
      "reserved": "",
      "salt": "0x68ab769e62719e9333b67b40bd9b0bee5859bf44e2e7a682bbc38b806928f254",
      "assetIds": []
    },
    {
      "x": 7,
      "y": 184,
      "size": 1,
      "price": "905000000000000000000",
      "reserved": "",
      "salt": "0xe391ce766defe081c4bfede742c3db5779e123daaf9b8721973bf2b5c7f5c43f",
      "assetIds": []
    },
    {
      "x": 7,
      "y": 186,
      "size": 1,
      "price": "905000000000000000000",
      "reserved": "",
      "salt": "0x51457e822cffab2f38ad05b0746991ac22d7dde37453b13828dc57cac86aae1b",
      "assetIds": []
    },
    {
      "x": 7,
      "y": 187,
      "size": 1,
      "price": "905000000000000000000",
      "reserved": "",
      "salt": "0xe3aac62d7b2f831a1557e8a31e9c23f476cfe017c4ce5a8a6d53601098dc275d",
      "assetIds": []
    },
    {
      "x": 7,
      "y": 188,
      "size": 1,
      "price": "905000000000000000000",
      "reserved": "",
      "salt": "0x8112bb358cb2ee4d19d6e9092b62b784245076347d739ac1a2acc36401a48703",
      "assetIds": []
    },
    {
      "x": 7,
      "y": 189,
      "size": 1,
      "price": "905000000000000000000",
      "reserved": "",
      "salt": "0x5f332f02355dec09d18793fcea4190b6047b5d4a648d7bc4fc4834dd9be692dc",
      "assetIds": []
    },
    {
      "x": 7,
      "y": 185,
      "size": 1,
      "price": "905000000000000000000",
      "reserved": "",
      "salt": "0xecd39191cdfaaff76c0cd116c4e3ea3d75e29c42047474ac68023dc80c84fd89",
      "assetIds": []
    },
    {
      "x": 7,
      "y": 182,
      "size": 1,
      "price": "905000000000000000000",
      "reserved": "",
      "salt": "0x988e117512a0756ca71da3b445a66f7ac7d3f6bdfc5d041a334f9d80403c9e91",
      "assetIds": []
    },
    {
      "x": 8,
      "y": 186,
      "size": 1,
      "price": "905000000000000000000",
      "reserved": "",
      "salt": "0xeb295fafeb9546d38db48f7f50b69ac7fd75f782e2fb0563ecbb2f1fb3b0e0de",
      "assetIds": []
    },
    {
      "x": 8,
      "y": 187,
      "size": 1,
      "price": "905000000000000000000",
      "reserved": "",
      "salt": "0x35919bac915546ce639f632731d923e3972efc61866e247b57660c3e1091f1e5",
      "assetIds": []
    },
    {
      "x": 8,
      "y": 185,
      "size": 1,
      "price": "905000000000000000000",
      "reserved": "",
      "salt": "0x23a393da0e058b93a40fc2101c44c3e5d75c5d85ae02400105eafc9adcfe4899",
      "assetIds": []
    },
    {
      "x": 8,
      "y": 184,
      "size": 1,
      "price": "905000000000000000000",
      "reserved": "",
      "salt": "0xb7616c13e930db941e8edd249884b25a4331f3ea2dc7d318909a270e79d188a1",
      "assetIds": []
    },
    {
      "x": 8,
      "y": 183,
      "size": 1,
      "price": "905000000000000000000",
      "reserved": "",
      "salt": "0xbe2c3bc3939e0c6fcc3adc121fdc01865be85cf4c9c38f6fcf4fbab98537f3f2",
      "assetIds": []
    },
    {
      "x": 7,
      "y": 181,
      "size": 1,
      "price": "905000000000000000000",
      "reserved": "",
      "salt": "0xb71b37f9b33d96e65bc8a374a3be635623df716cfc7552945b4c6ffa4530e290",
      "assetIds": []
    },
    {
      "x": 9,
      "y": 185,
      "size": 1,
      "price": "905000000000000000000",
      "reserved": "",
      "salt": "0x60a8474fa0a63f1993b548a792c496c0a4e9a3b0ddb0a84a4f2ae48a86a3f224",
      "assetIds": []
    },
    {
      "x": 9,
      "y": 186,
      "size": 1,
      "price": "905000000000000000000",
      "reserved": "",
      "salt": "0x9bc0d346fbfcc08abe4621db6a75d7baddb05a7ac3e207ae6d5ca2bb0a7eda94",
      "assetIds": []
    },
    {
      "x": 10,
      "y": 186,
      "size": 1,
      "price": "905000000000000000000",
      "reserved": "",
      "salt": "0xb9fa79f7fa185721d20329c9aab4bf9edd47e7a94fd7e39a12730ae46095f950",
      "assetIds": []
    },
    {
      "x": 10,
      "y": 187,
      "size": 1,
      "price": "905000000000000000000",
      "reserved": "",
      "salt": "0xee4383e6d52abb348591815d32f298584b2a0f8424e8232cc0a0627618b2030d",
      "assetIds": []
    },
    {
      "x": 10,
      "y": 188,
      "size": 1,
      "price": "905000000000000000000",
      "reserved": "",
      "salt": "0x00f754b178c933565dd298df1da4792d98fbaea6a0417076edef27530656b2bf",
      "assetIds": []
    },
    {
      "x": 8,
      "y": 189,
      "size": 1,
      "price": "905000000000000000000",
      "reserved": "",
      "salt": "0x9c72df1e039166e00efe460ac3851dcd258047c76aa954e20e00ee7eba12dee9",
      "assetIds": []
    },
    {
      "x": 8,
      "y": 188,
      "size": 1,
      "price": "905000000000000000000",
      "reserved": "",
      "salt": "0x5fc01db87e1c149e4221dd89434bd6e5c382920b133646686ff18ec006bc08c8",
      "assetIds": []
    },
    {
      "x": 9,
      "y": 188,
      "size": 1,
      "price": "905000000000000000000",
      "reserved": "",
      "salt": "0x01f4685d79d9f56b50810173233de75295c94edf1badc1ca9331f55c18407b86",
      "assetIds": []
    },
    {
      "x": 9,
      "y": 187,
      "size": 1,
      "price": "905000000000000000000",
      "reserved": "",
      "salt": "0xd4c1069f08bef60553cd5b8518ea5f1ba0c1ea4e5d8d6370695a5f31c486b6a5",
      "assetIds": []
    },
    {
      "x": 7,
      "y": 180,
      "size": 1,
      "price": "905000000000000000000",
      "reserved": "",
      "salt": "0x1b889c3d3b2c09f1998f7524ffb9d405cd44149162ee2d86b3fe382295f29039",
      "assetIds": []
    },
    {
      "x": 24,
      "y": 200,
      "size": 1,
      "price": "905000000000000000000",
      "reserved": "",
      "salt": "0x4802c712e87f78ff98e04a6cd43c20f5cce278de849cc16e8776ae8833f6bff7",
      "assetIds": []
    },
    {
      "x": 25,
      "y": 200,
      "size": 1,
      "price": "905000000000000000000",
      "reserved": "",
      "salt": "0xc2bda6d52f99b4a773b1ac0b4dd1c63c5249d596fa1dde815aa32c9562648753",
      "assetIds": []
    },
    {
      "x": 26,
      "y": 200,
      "size": 1,
      "price": "905000000000000000000",
      "reserved": "",
      "salt": "0x5bf245b0afeb130bf5437b039d01ff464b40578b62436547eeb6b9143790a372",
      "assetIds": []
    },
    {
      "x": 26,
      "y": 199,
      "size": 1,
      "price": "905000000000000000000",
      "reserved": "",
      "salt": "0x563447494ca1dd82fe923fb796f4a5c8b3e2ba10213ad5314dbf90fa6abdbc34",
      "assetIds": []
    },
    {
      "x": 26,
      "y": 198,
      "size": 1,
      "price": "905000000000000000000",
      "reserved": "",
      "salt": "0x71cf012f1b8935efa998af181af81eb043d37b47896b5a3b5c34e934a32d6cad",
      "assetIds": []
    },
    {
      "x": 26,
      "y": 197,
      "size": 1,
      "price": "905000000000000000000",
      "reserved": "",
      "salt": "0xe78304421b606c32f9a54727c9f92928e8b17d9517e60def5ed10a61093e9a81",
      "assetIds": []
    },
    {
      "x": 26,
      "y": 196,
      "size": 1,
      "price": "905000000000000000000",
      "reserved": "",
      "salt": "0xbfd647acfdf3a47f7681145189478f012ef00194113badff7ba157716704c090",
      "assetIds": []
    },
    {
      "x": 26,
      "y": 195,
      "size": 1,
      "price": "905000000000000000000",
      "reserved": "",
      "salt": "0x219ec582adf64845a67d233baec30040b8ed53e5f9c07598de013c883e67442e",
      "assetIds": []
    },
    {
      "x": 26,
      "y": 194,
      "size": 1,
      "price": "905000000000000000000",
      "reserved": "",
      "salt": "0x74f67c83ff9f5bb8abe3dc47bd4c81cdf6622604abc83a62c98be2eed6a69114",
      "assetIds": []
    },
    {
      "x": 27,
      "y": 194,
      "size": 1,
      "price": "905000000000000000000",
      "reserved": "",
      "salt": "0x9ebd8789dfa1368caeeb0c8f2dd06be968a48a4c7f82f8c4deeacab4e46ed656",
      "assetIds": []
    },
    {
      "x": 28,
      "y": 194,
      "size": 1,
      "price": "905000000000000000000",
      "reserved": "",
      "salt": "0xee31d5be897f158cb4fa301ac0808cf1e5f1576aff30d01edbc87001686c55d9",
      "assetIds": []
    },
    {
      "x": 28,
      "y": 193,
      "size": 1,
      "price": "905000000000000000000",
      "reserved": "",
      "salt": "0x887c0a4d6b65b7825aa7b4104782541d8a7b6be8d8da5d1d3616eb7286d0c1d8",
      "assetIds": []
    },
    {
      "x": 28,
      "y": 192,
      "size": 1,
      "price": "905000000000000000000",
      "reserved": "",
      "salt": "0x3bcab74ae17f8f3a5226e110436c7fde3e54275d9bb8e748d8205e9ee66c73a8",
      "assetIds": []
    },
    {
      "x": 29,
      "y": 192,
      "size": 1,
      "price": "905000000000000000000",
      "reserved": "",
      "salt": "0x8a71ed4689fc3965913cc47c76a099315a0767b85a70575b134ee5b2cae91bb9",
      "assetIds": []
    },
    {
      "x": 29,
      "y": 193,
      "size": 1,
      "price": "905000000000000000000",
      "reserved": "",
      "salt": "0x8e0eaa10450a2552a8a8d479e37415e4477c2a652a45f4b0f26c0092465a4319",
      "assetIds": []
    },
    {
      "x": 29,
      "y": 194,
      "size": 1,
      "price": "905000000000000000000",
      "reserved": "",
      "salt": "0x4bcde81186644be9cfaa9d368e531f74463edbee4d7d8fcaa26ec33d783c538b",
      "assetIds": []
    },
    {
      "x": 29,
      "y": 191,
      "size": 1,
      "price": "905000000000000000000",
      "reserved": "",
      "salt": "0x46580260b2a5ddd8782e7435f9dc84f6454b74cd42efaef7f278ffd8ad7d7b79",
      "assetIds": []
    },
    {
      "x": 29,
      "y": 190,
      "size": 1,
      "price": "905000000000000000000",
      "reserved": "",
      "salt": "0xe3fe99db0eaef5a09b31810776c636172fb2e8eee9845d08cc196249af811172",
      "assetIds": []
    },
    {
      "x": 29,
      "y": 189,
      "size": 1,
      "price": "905000000000000000000",
      "reserved": "",
      "salt": "0xdaf995f9504cfddb3dc81766ea1ba1114ef3e81e87f3d50f5a8676a5d78efc2a",
      "assetIds": []
    },
    {
      "x": 29,
      "y": 188,
      "size": 1,
      "price": "905000000000000000000",
      "reserved": "",
      "salt": "0xc086a27bed48cafbb511ff118cf9e3871c21b88c46f6c8dcf9d1e00a021d3186",
      "assetIds": []
    },
    {
      "x": 29,
      "y": 187,
      "size": 1,
      "price": "905000000000000000000",
      "reserved": "",
      "salt": "0x8c75a9f577603c1cc5b403f796963e7a5dd3de449b3a0958dc32c6fc32347ca7",
      "assetIds": []
    },
    {
      "x": 29,
      "y": 186,
      "size": 1,
      "price": "905000000000000000000",
      "reserved": "",
      "salt": "0xc0830b81b4cb3686c934095e1cf21267c4dd06ea01d7602aea099b9a9d51aaea",
      "assetIds": []
    },
    {
      "x": 29,
      "y": 185,
      "size": 1,
      "price": "905000000000000000000",
      "reserved": "",
      "salt": "0xa6dcbf57c4d6fee6a0db926330033932c47de407356dbe8a250f840bd5ea28fd",
      "assetIds": []
    },
    {
      "x": 30,
      "y": 185,
      "size": 1,
      "price": "905000000000000000000",
      "reserved": "",
      "salt": "0x4926f3ca24bfff084cf09b6e3fe8f8304fd5b620e7cbb37237b0ddab2b83ddee",
      "assetIds": []
    },
    {
      "x": 30,
      "y": 184,
      "size": 1,
      "price": "905000000000000000000",
      "reserved": "",
      "salt": "0xb7b8415adb8c0678e03e7444b1693080c330dfce746852b2ef68384dd118a0bf",
      "assetIds": []
    },
    {
      "x": 30,
      "y": 183,
      "size": 1,
      "price": "905000000000000000000",
      "reserved": "",
      "salt": "0xe65d1b7a2a2c8bf7e5c523272871a0674782ace5897ceda376b2cec985fdb314",
      "assetIds": []
    },
    {
      "x": 30,
      "y": 182,
      "size": 1,
      "price": "905000000000000000000",
      "reserved": "",
      "salt": "0x583c4b46012ea602e81dae7122ca73d187a5abd2bd5e55b87479bbfe2f2ef975",
      "assetIds": []
    },
    {
      "x": 31,
      "y": 185,
      "size": 1,
      "price": "905000000000000000000",
      "reserved": "",
      "salt": "0xc15e34048e6d72af90a3cc27b1a5e133f045a394e92cdb1f52eed868918cef71",
      "assetIds": []
    },
    {
      "x": 32,
      "y": 185,
      "size": 1,
      "price": "905000000000000000000",
      "reserved": "",
      "salt": "0xf2f5f6fe5458bb1162cbf940fc61e20dbaa0516843b93ff6d536f0ba1ef27c8c",
      "assetIds": []
    },
    {
      "x": 33,
      "y": 185,
      "size": 1,
      "price": "905000000000000000000",
      "reserved": "",
      "salt": "0x3d7fd33f6ca394c2f3e5b135a36cb0b96381ba1772453a96dfd5f3e6fdd71fe6",
      "assetIds": []
    },
    {
      "x": 34,
      "y": 185,
      "size": 1,
      "price": "905000000000000000000",
      "reserved": "",
      "salt": "0xbc52926f0727b6c3ba3d9efe2be19247502a137f88c0c9bd663bea0eacd7174a",
      "assetIds": []
    },
    {
      "x": 35,
      "y": 185,
      "size": 1,
      "price": "905000000000000000000",
      "reserved": "",
      "salt": "0x8f2868173c657e9d00f26217f4daea6ec295390f0d996800bb531136a91a5863",
      "assetIds": []
    },
    {
      "x": 35,
      "y": 184,
      "size": 1,
      "price": "905000000000000000000",
      "reserved": "",
      "salt": "0x65e3e9694793f9f7cb2a192fb55fef3f92b5ffeb75eba119dfeb05ced1e0a44c",
      "assetIds": []
    },
    {
      "x": 35,
      "y": 183,
      "size": 1,
      "price": "905000000000000000000",
      "reserved": "",
      "salt": "0x827d250bf40e7441f6182d335fe0b52ff38a387775360d7181a92a36dbeb2e26",
      "assetIds": []
    },
    {
      "x": 35,
      "y": 182,
      "size": 1,
      "price": "905000000000000000000",
      "reserved": "",
      "salt": "0x9213881a63f9b65d7e071735686c7b7d57bee79880636efccd2de5da9c1fc6db",
      "assetIds": []
    },
    {
      "x": 35,
      "y": 181,
      "size": 1,
      "price": "905000000000000000000",
      "reserved": "",
      "salt": "0x60dcb0500be015e0b0fd20e1c51fb0ffe2614bf5b8cd619a77ec1985353c16e3",
      "assetIds": []
    },
    {
      "x": 35,
      "y": 180,
      "size": 1,
      "price": "905000000000000000000",
      "reserved": "",
      "salt": "0x45a1d75d5209a5ea37746203d5a4961a4f49ec4e4d2ccde981bd279609f1730e",
      "assetIds": []
    },
    {
      "x": 34,
      "y": 180,
      "size": 1,
      "price": "905000000000000000000",
      "reserved": "",
      "salt": "0xfda1fe4037458f9303408a0fc1ec30c974e32619b2e36abe1351ff8a21a3b41b",
      "assetIds": []
    },
    {
      "x": 33,
      "y": 180,
      "size": 1,
      "price": "905000000000000000000",
      "reserved": "",
      "salt": "0xe6a81876345932414eb65d93c8a88c06156737eb0f97cef340ca92a393c88618",
      "assetIds": []
    },
    {
      "x": 32,
      "y": 180,
      "size": 1,
      "price": "905000000000000000000",
      "reserved": "",
      "salt": "0x124d6b77f8ea2289b9e0fbe4c1c7ce4d6ea82e8a80f08a509fea635566ed5d24",
      "assetIds": []
    },
    {
      "x": 31,
      "y": 180,
      "size": 1,
      "price": "905000000000000000000",
      "reserved": "",
      "salt": "0x406134f28590ff89fa8f64994c504d676ad24b7689a4e28f7f7d673503c81099",
      "assetIds": []
    },
    {
      "x": 30,
      "y": 180,
      "size": 1,
      "price": "905000000000000000000",
      "reserved": "",
      "salt": "0xcea053572b341cff9d9e143d0a6e682eaa71365cd39755c1ac9d9844bdcd278d",
      "assetIds": []
    },
    {
      "x": 35,
      "y": 173,
      "size": 1,
      "price": "905000000000000000000",
      "reserved": "",
      "salt": "0x8807829d2a79291a26251226d22d8d8b5acfa4d15ec1d8d1031553243548356f",
      "assetIds": []
    },
    {
      "x": 35,
      "y": 172,
      "size": 1,
      "price": "905000000000000000000",
      "reserved": "",
      "salt": "0xa2ed072a5152262e671f6cac9afd6c056311d2b25803d0246a76126206661582",
      "assetIds": []
    },
    {
      "x": 35,
      "y": 171,
      "size": 1,
      "price": "905000000000000000000",
      "reserved": "",
      "salt": "0x1f1a5824be360b76033283a772069d1ad475d8a3f6a823a87dc5228fc5cbfa16",
      "assetIds": []
    },
    {
      "x": 35,
      "y": 170,
      "size": 1,
      "price": "905000000000000000000",
      "reserved": "",
      "salt": "0xb9c12ff04bacf987e5ade195c2c07de7b07cb66a8dc39104197a631fed2c91c3",
      "assetIds": []
    },
    {
      "x": 35,
      "y": 169,
      "size": 1,
      "price": "905000000000000000000",
      "reserved": "",
      "salt": "0x0d31222daf1c8b7d2d91454a402476bb1387846330bafcf9ac0d89f3df1bfdb1",
      "assetIds": []
    },
    {
      "x": 34,
      "y": 169,
      "size": 1,
      "price": "905000000000000000000",
      "reserved": "",
      "salt": "0x84e8293d62b57e2c79c81faf9d9273f9696f9da78506eb6508b360f03bd69817",
      "assetIds": []
    },
    {
      "x": 34,
      "y": 168,
      "size": 1,
      "price": "905000000000000000000",
      "reserved": "",
      "salt": "0xb3be27d78e61f018b03e3a03fd5ff82f89b616a1795d64a91d5feabf4057120c",
      "assetIds": []
    },
    {
      "x": 33,
      "y": 168,
      "size": 1,
      "price": "905000000000000000000",
      "reserved": "",
      "salt": "0x0ba13425b78fa5b245479ae4c3fd74429ed371bb02d63f793be41331e6590886",
      "assetIds": []
    },
    {
      "x": 32,
      "y": 168,
      "size": 1,
      "price": "905000000000000000000",
      "reserved": "",
      "salt": "0x22989d86c535620cf0ad4d6967a136533d6b2ca6fff4c8bbe71a819491936d94",
      "assetIds": []
    },
    {
      "x": 31,
      "y": 168,
      "size": 1,
      "price": "905000000000000000000",
      "reserved": "",
      "salt": "0xb8e02ed650bd6acf509fbf0805cf03374550042f11c6e4d22877b1f307299c0b",
      "assetIds": []
    },
    {
      "x": 30,
      "y": 168,
      "size": 1,
      "price": "905000000000000000000",
      "reserved": "",
      "salt": "0xe4fb15c70f299d259435aff3b144a25777178ab25464a4627af532c3f5d55c86",
      "assetIds": []
    },
    {
      "x": 35,
      "y": 168,
      "size": 1,
      "price": "905000000000000000000",
      "reserved": "",
      "salt": "0x6b6b07606777ab35c4db71adc7980555c4bab99a7e21f94391a40d6f992f2905",
      "assetIds": []
    },
    {
      "x": 34,
      "y": 172,
      "size": 1,
      "price": "905000000000000000000",
      "reserved": "",
      "salt": "0x5e1259cb7031410a9d320df9aa1bb72a14ec71d93d0545950bc29b942bf2da42",
      "assetIds": []
    },
    {
      "x": 33,
      "y": 172,
      "size": 1,
      "price": "905000000000000000000",
      "reserved": "",
      "salt": "0x9ae8960194d53a7444fbcfa04340f141ce32331b49f7eec2dfa0a289ce51b90d",
      "assetIds": []
    },
    {
      "x": 32,
      "y": 172,
      "size": 1,
      "price": "905000000000000000000",
      "reserved": "",
      "salt": "0xf55e3ee36fec670f72f4de37e7f4c0e2af12e0fcf1af902048b4eebf20f936b6",
      "assetIds": []
    },
    {
      "x": 31,
      "y": 172,
      "size": 1,
      "price": "905000000000000000000",
      "reserved": "",
      "salt": "0x861a429c740d63a46eb1b5163ef5a2926c5fd9876a69922f397dd849062146c7",
      "assetIds": []
    },
    {
      "x": 30,
      "y": 172,
      "size": 1,
      "price": "905000000000000000000",
      "reserved": "",
      "salt": "0x42aeda4f757911210bf83ff98ecb68daa33c64851d71873a3372bda99985b4f5",
      "assetIds": []
    },
    {
      "x": 31,
      "y": 171,
      "size": 1,
      "price": "905000000000000000000",
      "reserved": "",
      "salt": "0x9f0f3a242012b40da7bcefe5deec53a3b9b3a544d3f2088bff83c5e18c31dddf",
      "assetIds": []
    },
    {
      "x": 31,
      "y": 170,
      "size": 1,
      "price": "905000000000000000000",
      "reserved": "",
      "salt": "0x79da536ddc3ccd8577c1bbbbfc51087ef34a8541f58c1d44545a1bc77c83ffb0",
      "assetIds": []
    },
    {
      "x": 32,
      "y": 170,
      "size": 1,
      "price": "905000000000000000000",
      "reserved": "",
      "salt": "0xac9d6dbe3a79772dd12dc96035909d02446ca4d31e8ab0fb59c00ad5a3d036fe",
      "assetIds": []
    },
    {
      "x": 33,
      "y": 170,
      "size": 1,
      "price": "905000000000000000000",
      "reserved": "",
      "salt": "0xb4539b6c9959ed6612fdae70a49ec1c53f98ad190b850f1294cfbb2f44b0ac33",
      "assetIds": []
    },
    {
      "x": 33,
      "y": 171,
      "size": 1,
      "price": "905000000000000000000",
      "reserved": "",
      "salt": "0xcc2cbef9b467b7cb7fb0cb33e81fc7741aeb210aaba196d39b540380fd8c8416",
      "assetIds": []
    },
    {
      "x": 32,
      "y": 171,
      "size": 1,
      "price": "905000000000000000000",
      "reserved": "",
      "salt": "0x2bde778839001b63f80900971a80e716c1b2ea99f340937306630d43ea6ca8f2",
      "assetIds": []
    },
    {
      "x": 30,
      "y": 171,
      "size": 1,
      "price": "905000000000000000000",
      "reserved": "",
      "salt": "0x219c0a72031ee5b4327f0dd925313c3ce07aa3455678888e82cb22edb1a498de",
      "assetIds": []
    },
    {
      "x": 30,
      "y": 170,
      "size": 1,
      "price": "905000000000000000000",
      "reserved": "",
      "salt": "0x44bed7268b155c25334b7e0f1f996d83109da53545c961a1c95f46d9f0c2d467",
      "assetIds": []
    },
    {
      "x": 30,
      "y": 169,
      "size": 1,
      "price": "905000000000000000000",
      "reserved": "",
      "salt": "0x34b42b359cf4ba968a768a2dc55c6354c78c8b181113051b302de152d772e4c9",
      "assetIds": []
    },
    {
      "x": 33,
      "y": 169,
      "size": 1,
      "price": "905000000000000000000",
      "reserved": "",
      "salt": "0x79a05d5303c633e59fa8bddf85e061b0bb0d48a1b8a435e0f5c4910a0e49f2d3",
      "assetIds": []
    },
    {
      "x": 32,
      "y": 169,
      "size": 1,
      "price": "905000000000000000000",
      "reserved": "",
      "salt": "0x188e3b60f357de3b038de01caa46a33fbc4426066afa8206fc8b547891e80f7f",
      "assetIds": []
    },
    {
      "x": 31,
      "y": 169,
      "size": 1,
      "price": "905000000000000000000",
      "reserved": "",
      "salt": "0x6a30e95de5b6245d955b5ec93a8ef1e0dc94d9adbf9e92d3ae748878dea4deb3",
      "assetIds": []
    },
    {
      "x": 34,
      "y": 170,
      "size": 1,
      "price": "905000000000000000000",
      "reserved": "",
      "salt": "0xe26b9b7e436a120e3ce96665ce5eedb75944c853dc1681e04b55290f7ccba71e",
      "assetIds": []
    },
    {
      "x": 34,
      "y": 171,
      "size": 1,
      "price": "905000000000000000000",
      "reserved": "",
      "salt": "0x4662408172e963b39c9fa5bbbfcbb254570968ca21fb67e87a7332ce98387522",
      "assetIds": []
    },
    {
      "x": 33,
      "y": 173,
      "size": 1,
      "price": "905000000000000000000",
      "reserved": "",
      "salt": "0x6581653ab25ad92066f272eb568bd5ddae435e6eb67a8c6d36da8e1a29af2970",
      "assetIds": []
    },
    {
      "x": 32,
      "y": 173,
      "size": 1,
      "price": "905000000000000000000",
      "reserved": "",
      "salt": "0xc775aac5243c89ee52b2a4c0a8afc760f220453e329a30c4bf2b232db20a2681",
      "assetIds": []
    },
    {
      "x": 31,
      "y": 173,
      "size": 1,
      "price": "905000000000000000000",
      "reserved": "",
      "salt": "0xa46ccff06a1817ea8a9fc88fbf0fbafabba61a193b5c4568c03b0a768df9e449",
      "assetIds": []
    },
    {
      "x": 30,
      "y": 173,
      "size": 1,
      "price": "905000000000000000000",
      "reserved": "",
      "salt": "0x6202f7018fb76c4581cf3abdf7fbbbae4c805cb8a062ef852aa143e7dcea4000",
      "assetIds": []
    },
    {
      "x": 25,
      "y": 174,
      "size": 1,
      "price": "905000000000000000000",
      "reserved": "",
      "salt": "0x6eb00f5ff5a65ad094551a7d5b36d9a0a0dcc43c3b35da45e4e3a75661a6686d",
      "assetIds": []
    },
    {
      "x": 24,
      "y": 174,
      "size": 1,
      "price": "905000000000000000000",
      "reserved": "",
      "salt": "0xc72b7597f3f87f2fb28b1d4a0a60690b4b3ef2ada457da43655374646cf5fe4e",
      "assetIds": []
    },
    {
      "x": 23,
      "y": 174,
      "size": 1,
      "price": "905000000000000000000",
      "reserved": "",
      "salt": "0x649d08013ac6b7478691f8c0fcad75d1248f60d3728465b77dde6bfc2da10617",
      "assetIds": []
    },
    {
      "x": 22,
      "y": 174,
      "size": 1,
      "price": "905000000000000000000",
      "reserved": "",
      "salt": "0x25cebf386f4aa7d879f30bc3eccea246170c87ff46d8a82011835ae2d6313635",
      "assetIds": []
    },
    {
      "x": 21,
      "y": 174,
      "size": 1,
      "price": "905000000000000000000",
      "reserved": "",
      "salt": "0xf41c1278bf2ad5a528e91189a9824eba84558eacf334ca60d8c07e5a4d3ec389",
      "assetIds": []
    },
    {
      "x": 20,
      "y": 174,
      "size": 1,
      "price": "905000000000000000000",
      "reserved": "",
      "salt": "0xec0c300279552e9dbbdaff5397e8e32a7c66411aeef5cc53f5db86483a2997c8",
      "assetIds": []
    },
    {
      "x": 19,
      "y": 174,
      "size": 1,
      "price": "905000000000000000000",
      "reserved": "",
      "salt": "0xc75350a5df192b263d3c1e7364baf229d6da71b0840d810bb90ea880c3c6c040",
      "assetIds": []
    },
    {
      "x": 18,
      "y": 174,
      "size": 1,
      "price": "905000000000000000000",
      "reserved": "",
      "salt": "0x702efa3a0109e1015967e5287b6dadfc24c7a19b70e6e0452d3fa125da751cfd",
      "assetIds": []
    },
    {
      "x": 17,
      "y": 173,
      "size": 1,
      "price": "905000000000000000000",
      "reserved": "",
      "salt": "0x7125492699eca6dfd442e6da0465846fc63c2df4a3748868d026704620377684",
      "assetIds": []
    },
    {
      "x": 16,
      "y": 173,
      "size": 1,
      "price": "905000000000000000000",
      "reserved": "",
      "salt": "0xdf9180da1f8bd02e2bfab806bfe8dccb4821efef4b407add4d494bea34e3aec3",
      "assetIds": []
    },
    {
      "x": 15,
      "y": 173,
      "size": 1,
      "price": "905000000000000000000",
      "reserved": "",
      "salt": "0x7b7fd8fcb49c4bd9d4f6f95ddc8c1480c4a71fe5fb9bf90cb14a15bc39653906",
      "assetIds": []
    },
    {
      "x": 15,
      "y": 172,
      "size": 1,
      "price": "905000000000000000000",
      "reserved": "",
      "salt": "0x05ae1268a8607fd9804fb2c949c05af2dbe390858e463981a1d6bcddaa0fcbd2",
      "assetIds": []
    },
    {
      "x": 16,
      "y": 172,
      "size": 1,
      "price": "905000000000000000000",
      "reserved": "",
      "salt": "0xf9a79ba6482e2a601a74917ea492463bebe1fee161dfb4c78af4ec6e347a655b",
      "assetIds": []
    },
    {
      "x": 17,
      "y": 172,
      "size": 1,
      "price": "905000000000000000000",
      "reserved": "",
      "salt": "0x932abbfc85a97c15108450ae805cbc22895a5ea247a66782c954052c1a6a2cc3",
      "assetIds": []
    },
    {
      "x": 18,
      "y": 172,
      "size": 1,
      "price": "905000000000000000000",
      "reserved": "",
      "salt": "0x0c706f7606332003061372623935335e1f2c390a8b4c97139fa62fd1fcc896ac",
      "assetIds": []
    },
    {
      "x": 19,
      "y": 172,
      "size": 1,
      "price": "905000000000000000000",
      "reserved": "",
      "salt": "0xa9f4a7d84249bc7107baaa14a10572dc11ee259421af5ad8faaa725b32cc8c31",
      "assetIds": []
    },
    {
      "x": 20,
      "y": 172,
      "size": 1,
      "price": "905000000000000000000",
      "reserved": "",
      "salt": "0xfb13902a9241dfdd85eaa09bf244a508313c278d5d3f7bdf2542a62386f5a894",
      "assetIds": []
    },
    {
      "x": 21,
      "y": 172,
      "size": 1,
      "price": "905000000000000000000",
      "reserved": "",
      "salt": "0x89c65e73456d8371283302a3d9f00d3f6130aae73fdb6edbf3396e5755c85bce",
      "assetIds": []
    },
    {
      "x": 22,
      "y": 172,
      "size": 1,
      "price": "905000000000000000000",
      "reserved": "",
      "salt": "0xf989b03eadb6b34b3293350b4a63765ae2215301cadfe22e662d144666b258fe",
      "assetIds": []
    },
    {
      "x": 23,
      "y": 172,
      "size": 1,
      "price": "905000000000000000000",
      "reserved": "",
      "salt": "0xc27546cd9994aa02215f371a3e7e38cbc2caa552060c722c19ef90f70d4236da",
      "assetIds": []
    },
    {
      "x": 34,
      "y": 173,
      "size": 1,
      "price": "905000000000000000000",
      "reserved": "",
      "salt": "0x446d7861a34d0971a9274bf0bd5e54ccef1d04299db336028f94607e0bf1d540",
      "assetIds": []
    },
    {
      "x": 31,
      "y": 184,
      "size": 1,
      "price": "905000000000000000000",
      "reserved": "",
      "salt": "0x67d65cf34b9326580b601c728d7ab036ad2a87cbf9c7ff5c9faf7d4542f1a7da",
      "assetIds": []
    },
    {
      "x": 32,
      "y": 184,
      "size": 1,
      "price": "905000000000000000000",
      "reserved": "",
      "salt": "0xc3fd5b79ce29f1aa18cdd058f3c0f557c16a6bb3066445f2019375f1d5897795",
      "assetIds": []
    },
    {
      "x": 32,
      "y": 183,
      "size": 1,
      "price": "905000000000000000000",
      "reserved": "",
      "salt": "0x2919893a3f02f0ab537357b50fca8be99e30a601f1480485df7bd1637680d502",
      "assetIds": []
    },
    {
      "x": 33,
      "y": 183,
      "size": 1,
      "price": "905000000000000000000",
      "reserved": "",
      "salt": "0xf2b6c7c8aa040658efa3caedecdcfc26c7e34a6640df0502423273df4f14f4e7",
      "assetIds": []
    },
    {
      "x": 34,
      "y": 183,
      "size": 1,
      "price": "905000000000000000000",
      "reserved": "",
      "salt": "0xf7e299d7eaabb825227ec36c48edfc7801daeda647990a0799ca6a86712510f6",
      "assetIds": []
    },
    {
      "x": 33,
      "y": 184,
      "size": 1,
      "price": "905000000000000000000",
      "reserved": "",
      "salt": "0xc6a6c2b8160315fc4f822604a26056342954daa640653ef246fe4ea949fc7636",
      "assetIds": []
    },
    {
      "x": 34,
      "y": 184,
      "size": 1,
      "price": "905000000000000000000",
      "reserved": "",
      "salt": "0xd70cb8b061cb75de2d7581067ccec846a5a3329ac59de1d7acf6739713c8275f",
      "assetIds": []
    },
    {
      "x": 31,
      "y": 183,
      "size": 1,
      "price": "905000000000000000000",
      "reserved": "",
      "salt": "0x1dfaba823ccc748154782fa11b59b26e6a056390a676d8fd08bab68d69ef1e13",
      "assetIds": []
    },
    {
      "x": 31,
      "y": 182,
      "size": 1,
      "price": "905000000000000000000",
      "reserved": "",
      "salt": "0xde4e6fe70e8fbd83a728e56819c734921d19f1c0605dcdf8bbf7e90c461b2684",
      "assetIds": []
    },
    {
      "x": 32,
      "y": 182,
      "size": 1,
      "price": "905000000000000000000",
      "reserved": "",
      "salt": "0x8ab5c89d67bebf07aff49870e8029a0baed803f2358ddc5b0cd82e95ababc965",
      "assetIds": []
    },
    {
      "x": 33,
      "y": 182,
      "size": 1,
      "price": "905000000000000000000",
      "reserved": "",
      "salt": "0xbb1bdbea3b5613ed3a2ef95c772f01ce1c99c3d48249e796bdd398cd8fdd3151",
      "assetIds": []
    },
    {
      "x": 34,
      "y": 182,
      "size": 1,
      "price": "905000000000000000000",
      "reserved": "",
      "salt": "0xfa7843bc25759566a848411fe9caf40a9eb9f42db844e97a5c6aa1e8e77ca18d",
      "assetIds": []
    },
    {
      "x": 34,
      "y": 181,
      "size": 1,
      "price": "905000000000000000000",
      "reserved": "",
      "salt": "0x096a133260453af5df02cc1b5b89a0f1f1f38bc3b633778083ea4aef0a6cb63c",
      "assetIds": []
    },
    {
      "x": 29,
      "y": 180,
      "size": 1,
      "price": "905000000000000000000",
      "reserved": "",
      "salt": "0x832dd25dc3649a2e7586a2264a6ff130dc81d3dcaaad0245ebc04fc71b1ce2d0",
      "assetIds": []
    },
    {
      "x": 28,
      "y": 180,
      "size": 1,
      "price": "905000000000000000000",
      "reserved": "",
      "salt": "0x831ea180372a131407ba5a0e69d33d9f28d98793cf4b780a54988bf6c1c74605",
      "assetIds": []
    },
    {
      "x": 31,
      "y": 181,
      "size": 1,
      "price": "905000000000000000000",
      "reserved": "",
      "salt": "0x824930800b9abb2cad0eddb098a2e7d85c7ffeea2f060545793703d2d4b50b9a",
      "assetIds": []
    },
    {
      "x": 32,
      "y": 181,
      "size": 1,
      "price": "905000000000000000000",
      "reserved": "",
      "salt": "0x153d9e54a179a762b6162f91c36f001c232d4028e9dc9bb880507862bfeeb424",
      "assetIds": []
    },
    {
      "x": 33,
      "y": 181,
      "size": 1,
      "price": "905000000000000000000",
      "reserved": "",
      "salt": "0x3ae410b36e6f4ab86edaa7d5df71d4ac7f8fe5f7772dd5d7d2dd7b1871591f46",
      "assetIds": []
    },
    {
      "x": 30,
      "y": 181,
      "size": 1,
      "price": "905000000000000000000",
      "reserved": "",
      "salt": "0x86854245aa255e681a178221244d2df421ef40064600ff858b12d9e4d9a06c49",
      "assetIds": []
    },
    {
      "x": 29,
      "y": 181,
      "size": 1,
      "price": "905000000000000000000",
      "reserved": "",
      "salt": "0xde13459982c093672ecd03e213099157d88ee80ab534519b22f7f987797a8b4b",
      "assetIds": []
    },
    {
      "x": 28,
      "y": 181,
      "size": 1,
      "price": "905000000000000000000",
      "reserved": "",
      "salt": "0xf37e75b8c7ca73701572882a289adcdcbf670f38ed072e8667c19b638d2f987c",
      "assetIds": []
    },
    {
      "x": 27,
      "y": 181,
      "size": 1,
      "price": "905000000000000000000",
      "reserved": "",
      "salt": "0xc871f9c2d62d0eed816bd2c3cc2056461ba6c8c38a174b1e34943196513849f4",
      "assetIds": []
    },
    {
      "x": 27,
      "y": 182,
      "size": 1,
      "price": "905000000000000000000",
      "reserved": "",
      "salt": "0x0362b2a6a164f7fc68f95306036076416496221b7b4f0363273e6fc1cce40ce7",
      "assetIds": []
    },
    {
      "x": 27,
      "y": 183,
      "size": 1,
      "price": "905000000000000000000",
      "reserved": "",
      "salt": "0x5afac3ade3e26935d950231465efd7fb6622880cd9b58f09837dc47889fb31f3",
      "assetIds": []
    },
    {
      "x": 27,
      "y": 184,
      "size": 1,
      "price": "905000000000000000000",
      "reserved": "",
      "salt": "0xe2b5d492e738d21150c13a387772011dd449437f24736d3c8516fb23e770b603",
      "assetIds": []
    },
    {
      "x": 27,
      "y": 185,
      "size": 1,
      "price": "905000000000000000000",
      "reserved": "",
      "salt": "0x0f9bafdf06fbcb94e48d21ee800e9e8e88e0b4c6fac581751a8d08f2dc1d4c9e",
      "assetIds": []
    },
    {
      "x": 27,
      "y": 186,
      "size": 1,
      "price": "905000000000000000000",
      "reserved": "",
      "salt": "0x03d0527f7ff22c944fb490aeaf36150dd16d1a8a42035b673b2f4c4e70d33a0b",
      "assetIds": []
    },
    {
      "x": 27,
      "y": 187,
      "size": 1,
      "price": "905000000000000000000",
      "reserved": "",
      "salt": "0x4df3ec7307418340d666f8ca059fc9877e96ae1fc8ff1e9337e5d80424c041ca",
      "assetIds": []
    },
    {
      "x": 27,
      "y": 188,
      "size": 1,
      "price": "905000000000000000000",
      "reserved": "",
      "salt": "0xaff6ffb11a5f0d4ccbf2bad1b2944f1b038f3cc9271297f05c78cef744dea65d",
      "assetIds": []
    },
    {
      "x": 27,
      "y": 189,
      "size": 1,
      "price": "905000000000000000000",
      "reserved": "",
      "salt": "0x7fa7489c89e16b433b4d4eff26cc117fa836509438aad4a0d4909c4971994709",
      "assetIds": []
    },
    {
      "x": 27,
      "y": 190,
      "size": 1,
      "price": "905000000000000000000",
      "reserved": "",
      "salt": "0x50f1a3f39ceb4d1516195e401c3808778e688fd6330479c4ba5c30bd07384d99",
      "assetIds": []
    },
    {
      "x": 27,
      "y": 191,
      "size": 1,
      "price": "905000000000000000000",
      "reserved": "",
      "salt": "0xe4b9958ef505078475b0df58541483d425e639a73a52e6a7c345f3b08facfcb6",
      "assetIds": []
    },
    {
      "x": 26,
      "y": 191,
      "size": 1,
      "price": "905000000000000000000",
      "reserved": "",
      "salt": "0xf80875c788fe8ad7eda93ed2bd69fb75bccddd719e3f3f3012eaedc52359724a",
      "assetIds": []
    },
    {
      "x": 26,
      "y": 192,
      "size": 1,
      "price": "905000000000000000000",
      "reserved": "",
      "salt": "0x98e1c7100dbf652988c92617c6455856c63717c210b8fda5d6e9ba5e01cc760b",
      "assetIds": []
    },
    {
      "x": 26,
      "y": 193,
      "size": 1,
      "price": "905000000000000000000",
      "reserved": "",
      "salt": "0x17b5c98fae43a5e3f1eca34c4c690de264b07cf9443a5c075ea0a6105d83a72d",
      "assetIds": []
    },
    {
      "x": 25,
      "y": 193,
      "size": 1,
      "price": "905000000000000000000",
      "reserved": "",
      "salt": "0x1c05e0987f4287c3b35fb92183c8589f7139651b7ca9b17f890ccb8e20b2679d",
      "assetIds": []
    },
    {
      "x": 25,
      "y": 194,
      "size": 1,
      "price": "905000000000000000000",
      "reserved": "",
      "salt": "0x756fac1cdafcb3f1c61d84a8b53972a51ddab5701c69e273eef3760c748c68e0",
      "assetIds": []
    },
    {
      "x": 25,
      "y": 195,
      "size": 1,
      "price": "905000000000000000000",
      "reserved": "",
      "salt": "0x7a08920336ab517d76c1e3527088d37fe51e8d6653472b83f3e9fff7987fe7e4",
      "assetIds": []
    },
    {
      "x": 25,
      "y": 196,
      "size": 1,
      "price": "905000000000000000000",
      "reserved": "",
      "salt": "0x74d607c944c3ebde1d54cfe181b16951da8e7f3a5c0fe97d819db93eee3a2e6d",
      "assetIds": []
    },
    {
      "x": 25,
      "y": 197,
      "size": 1,
      "price": "905000000000000000000",
      "reserved": "",
      "salt": "0x5a5498d7ece801d05daee27d10d9e39b6f8478372a73489ef08bc83a1eeb129f",
      "assetIds": []
    },
    {
      "x": 24,
      "y": 197,
      "size": 1,
      "price": "905000000000000000000",
      "reserved": "",
      "salt": "0x3c18e714596977087c0ea95e65bc76ee5d5b89448e674e0991441a72861926e0",
      "assetIds": []
    },
    {
      "x": 24,
      "y": 198,
      "size": 1,
      "price": "905000000000000000000",
      "reserved": "",
      "salt": "0xfdd025f1f4466753b166ba690213a7cea0db48acc3983f06d7184d27ddc4bc0e",
      "assetIds": []
    },
    {
      "x": 24,
      "y": 199,
      "size": 1,
      "price": "905000000000000000000",
      "reserved": "",
      "salt": "0x9cdb017c0c6d3356c213d6b44addab91825f49bfc562cf310c835f29820cd6b3",
      "assetIds": []
    },
    {
      "x": 25,
      "y": 198,
      "size": 1,
      "price": "905000000000000000000",
      "reserved": "",
      "salt": "0xcb59c0fb0bfc397a330f04dc5e63d20a46184aa424aec70e197272e3f34c8fcd",
      "assetIds": []
    },
    {
      "x": 25,
      "y": 199,
      "size": 1,
      "price": "905000000000000000000",
      "reserved": "",
      "salt": "0x27cadf69d3b124ad19b157b61a4bcba2a125ed6ea9d76da9da9988fd2084dd11",
      "assetIds": []
    },
    {
      "x": 25,
      "y": 192,
      "size": 1,
      "price": "905000000000000000000",
      "reserved": "",
      "salt": "0xd0d6697300355364fdcec522dfed3df9284ef507c38bd39009d9144616723b03",
      "assetIds": []
    },
    {
      "x": 26,
      "y": 190,
      "size": 1,
      "price": "905000000000000000000",
      "reserved": "",
      "salt": "0xd88316a5b808eaf6074d2b07728a02a9227d28af007f35a245a7250e30a22ba7",
      "assetIds": []
    },
    {
      "x": 26,
      "y": 189,
      "size": 1,
      "price": "905000000000000000000",
      "reserved": "",
      "salt": "0x1a2859a5e83e9319f6334192260ecee97c73c225294d814baa81bffb6e2ea89b",
      "assetIds": []
    },
    {
      "x": 26,
      "y": 188,
      "size": 1,
      "price": "905000000000000000000",
      "reserved": "",
      "salt": "0xa60a247ff40959f8a0741b36f2b1ef58f3fac582d46f25f58c10890770d3ca4f",
      "assetIds": []
    },
    {
      "x": 28,
      "y": 182,
      "size": 1,
      "price": "905000000000000000000",
      "reserved": "",
      "salt": "0x35262e62eef948f18d0ca7147415be4a00c77351cb52fffe45227b400e8c8413",
      "assetIds": []
    },
    {
      "x": 28,
      "y": 183,
      "size": 1,
      "price": "905000000000000000000",
      "reserved": "",
      "salt": "0x66d6874cc667a01b798d0681faf94604e46487de52e4e82b80b9061121249fc3",
      "assetIds": []
    },
    {
      "x": 29,
      "y": 183,
      "size": 1,
      "price": "905000000000000000000",
      "reserved": "",
      "salt": "0xf1b791a64bfdbf1edeb30579f0d5b71902825f9c2c88ba2a1b995a45d103fa03",
      "assetIds": []
    },
    {
      "x": 29,
      "y": 182,
      "size": 1,
      "price": "905000000000000000000",
      "reserved": "",
      "salt": "0x297aa301d563f02d3bebb60f5522c93dc95d9a49a02d82ced16bacaa54876fb8",
      "assetIds": []
    },
    {
      "x": 29,
      "y": 184,
      "size": 1,
      "price": "905000000000000000000",
      "reserved": "",
      "salt": "0xf5a4d7382829955c5fb148f54427f0ad9a1471e59651714badf4fb4dc35c9995",
      "assetIds": []
    },
    {
      "x": 28,
      "y": 185,
      "size": 1,
      "price": "905000000000000000000",
      "reserved": "",
      "salt": "0x749ba421ac336dc34c86ffb14734784b82e52ee009f8753b7aa0808d54c50a36",
      "assetIds": []
    },
    {
      "x": 28,
      "y": 184,
      "size": 1,
      "price": "905000000000000000000",
      "reserved": "",
      "salt": "0xebb98d4f5d9129dbcacd58e6f906fb9858db4e452d677295040fe473ee44fda9",
      "assetIds": []
    },
    {
      "x": 28,
      "y": 186,
      "size": 1,
      "price": "905000000000000000000",
      "reserved": "",
      "salt": "0xac124f0d93cdb1f32c6f02d1fa727cd9dd168b45f9008bf7b14c60c52070ced9",
      "assetIds": []
    },
    {
      "x": 28,
      "y": 187,
      "size": 1,
      "price": "905000000000000000000",
      "reserved": "",
      "salt": "0x592c5903417c0c920b031c0eae90a5fbbde5bc24cf3df0b6c1059da074c9e9c3",
      "assetIds": []
    },
    {
      "x": 28,
      "y": 188,
      "size": 1,
      "price": "905000000000000000000",
      "reserved": "",
      "salt": "0xc2547666a79fb51ad8a393802c3b4c7670f9546775725b65c4555002853306e2",
      "assetIds": []
    },
    {
      "x": 28,
      "y": 189,
      "size": 1,
      "price": "905000000000000000000",
      "reserved": "",
      "salt": "0x642c978b584073aba8e64370cee8063ac4cb7095cad9b72f31e2852160246f4c",
      "assetIds": []
    },
    {
      "x": 28,
      "y": 190,
      "size": 1,
      "price": "905000000000000000000",
      "reserved": "",
      "salt": "0x9adf4fcb2f8de06455362ad185242b062e3173a51a8db806c95be6fba3013c1b",
      "assetIds": []
    },
    {
      "x": 28,
      "y": 191,
      "size": 1,
      "price": "905000000000000000000",
      "reserved": "",
      "salt": "0xdc630af65b772f04925130a6981d958547a124c7c5a636433cdd98af7fabd9d8",
      "assetIds": []
    },
    {
      "x": 27,
      "y": 192,
      "size": 1,
      "price": "905000000000000000000",
      "reserved": "",
      "salt": "0x3fa1d56254cabb8882cc9ab84db16f9c293288eeea10eea1df4b10042548771f",
      "assetIds": []
    },
    {
      "x": 27,
      "y": 193,
      "size": 1,
      "price": "905000000000000000000",
      "reserved": "",
      "salt": "0x5cf9c0217665bcefd0c4159c9b90bddcf30be919f845cb194dfd071379f5e945",
      "assetIds": []
    },
    {
      "x": 24,
      "y": 196,
      "size": 1,
      "price": "905000000000000000000",
      "reserved": "",
      "salt": "0x2681c5de30ca443abe45921c982dffc911c498c80e478ac85bc7ccf4c175b39b",
      "assetIds": []
    },
    {
      "x": 24,
      "y": 195,
      "size": 1,
      "price": "905000000000000000000",
      "reserved": "",
      "salt": "0xd62a323b2a95036fd855a029be80cd9c7a6fccef8213f600a46c5fbbd0562d58",
      "assetIds": []
    },
    {
      "x": 25,
      "y": 191,
      "size": 1,
      "price": "905000000000000000000",
      "reserved": "",
      "salt": "0x353682e5243e40aaec2e41ac4d0da4ed5d2fa56248e8bc192468e0b8fda91c3b",
      "assetIds": []
    },
    {
      "x": 25,
      "y": 190,
      "size": 1,
      "price": "905000000000000000000",
      "reserved": "",
      "salt": "0xefa8e47cf88495c79cbd8950309cb47c987e6dae28f50307ba1e4f37c6ca9f64",
      "assetIds": []
    },
    {
      "x": 25,
      "y": 189,
      "size": 1,
      "price": "905000000000000000000",
      "reserved": "",
      "salt": "0xf6d4acc6fd611fbf87f1dd207af6e3f9000ffa21bbf372ce688921ded0504b16",
      "assetIds": []
    },
    {
      "x": 25,
      "y": 188,
      "size": 1,
      "price": "905000000000000000000",
      "reserved": "",
      "salt": "0xa75ec0968f84b5f6182a509ef61afc51a5206daa51a851797eb8bb72c3e4dc79",
      "assetIds": []
    },
    {
      "x": 25,
      "y": 187,
      "size": 1,
      "price": "905000000000000000000",
      "reserved": "",
      "salt": "0x9be453d51672fd5c0a8e8eabd19aa0448b4a0c6eaf311f32f056c81aeec4da75",
      "assetIds": []
    },
    {
      "x": 25,
      "y": 186,
      "size": 1,
      "price": "905000000000000000000",
      "reserved": "",
      "salt": "0x52833dc3fc0cf3d08a87ab1b6db657f5749a1f523d97d389779612f80efb55e9",
      "assetIds": []
    },
    {
      "x": 25,
      "y": 185,
      "size": 1,
      "price": "905000000000000000000",
      "reserved": "",
      "salt": "0xffcac8df016e60a927eff04ae82f4cc54a229805073326e9d2b93ea8703e546c",
      "assetIds": []
    },
    {
      "x": 25,
      "y": 184,
      "size": 1,
      "price": "905000000000000000000",
      "reserved": "",
      "salt": "0x1420bff52bc755da1dbe9474bea11bbe5891dc516fd279cc19ae9e9d4e6ace82",
      "assetIds": []
    },
    {
      "x": 25,
      "y": 183,
      "size": 1,
      "price": "905000000000000000000",
      "reserved": "",
      "salt": "0x8222c76d0fad8dca373ec49e69e6ce7dc24f76882805ad6f31d58939a7af216a",
      "assetIds": []
    },
    {
      "x": 25,
      "y": 182,
      "size": 1,
      "price": "905000000000000000000",
      "reserved": "",
      "salt": "0xdcbc138a30f816b985c55d6697a5e69fc3852a9107805eeaa9782c10eba61d08",
      "assetIds": []
    },
    {
      "x": 25,
      "y": 181,
      "size": 1,
      "price": "905000000000000000000",
      "reserved": "",
      "salt": "0xabfe7ac4c8f3a0d107890cca5af4d5ca2639b21aacee283987f019625de749f3",
      "assetIds": []
    },
    {
      "x": 25,
      "y": 180,
      "size": 1,
      "price": "905000000000000000000",
      "reserved": "",
      "salt": "0x33d72c8a62425a25a7fa5cb38e746a5b288bc959d96c538ba90dcad6572d6e1e",
      "assetIds": []
    },
    {
      "x": 25,
      "y": 179,
      "size": 1,
      "price": "905000000000000000000",
      "reserved": "",
      "salt": "0xfb29ef5b44c62e88da3a5825025b672086649ab16e6e28a70ce3aee82ae3860d",
      "assetIds": []
    },
    {
      "x": 26,
      "y": 179,
      "size": 1,
      "price": "905000000000000000000",
      "reserved": "",
      "salt": "0x9f36679adb788a7f7de6b57cc634cb9386c9fe3603840423b3f6f09f51fea963",
      "assetIds": []
    },
    {
      "x": 27,
      "y": 179,
      "size": 1,
      "price": "905000000000000000000",
      "reserved": "",
      "salt": "0xf82edcb76df675e6570da353657faf06618d9f21f9173da5e88ac257916b38d4",
      "assetIds": []
    },
    {
      "x": 28,
      "y": 179,
      "size": 1,
      "price": "905000000000000000000",
      "reserved": "",
      "salt": "0xc606d716a6885c11a60c498178438d981905f32409e83117b06e164bd7ebd10f",
      "assetIds": []
    },
    {
      "x": 28,
      "y": 178,
      "size": 1,
      "price": "905000000000000000000",
      "reserved": "",
      "salt": "0xc5d031ff1d7357260d902b870dd215b49fde413c370b7d80ec5c898297bd7c77",
      "assetIds": []
    },
    {
      "x": 29,
      "y": 178,
      "size": 1,
      "price": "905000000000000000000",
      "reserved": "",
      "salt": "0x3984067e903964f02aa9d52e1be1c28951c29acfe393625f73762491cc7aeb47",
      "assetIds": []
    },
    {
      "x": 29,
      "y": 179,
      "size": 1,
      "price": "905000000000000000000",
      "reserved": "",
      "salt": "0x766b1383038b376818d01540b5d1304eb698bbb76d8daafe4dae9935f70c42db",
      "assetIds": []
    },
    {
      "x": 26,
      "y": 180,
      "size": 1,
      "price": "905000000000000000000",
      "reserved": "",
      "salt": "0xd3e6cd15a0319379750447994fee54dcffe09db0a257fb92c5219b66000f17e6",
      "assetIds": []
    },
    {
      "x": 26,
      "y": 181,
      "size": 1,
      "price": "905000000000000000000",
      "reserved": "",
      "salt": "0x15ac7f6896ca3468c3a84ca939d00d5009b3d5911678885fc747c8ba59c35064",
      "assetIds": []
    },
    {
      "x": 26,
      "y": 182,
      "size": 1,
      "price": "905000000000000000000",
      "reserved": "",
      "salt": "0x28ac2a27a81ff46bdbedb4ffd905796a593941c00472687f5b0224c01f202f70",
      "assetIds": []
    },
    {
      "x": 27,
      "y": 180,
      "size": 1,
      "price": "905000000000000000000",
      "reserved": "",
      "salt": "0x69552e1d9dc8e878e0af6e9090a53804395914907af8a2f9fb9e4ccf705e80e7",
      "assetIds": []
    },
    {
      "x": 26,
      "y": 183,
      "size": 1,
      "price": "905000000000000000000",
      "reserved": "",
      "salt": "0x7c8a69dbc2a7046ef9378d809192d41b756720d55d21f9c0745eadbe8fe5eb0f",
      "assetIds": []
    },
    {
      "x": 26,
      "y": 184,
      "size": 1,
      "price": "905000000000000000000",
      "reserved": "",
      "salt": "0xe8cbc4a4b6ae93c74658aa62409c9b930460ba83c16aa6506ad3553904107809",
      "assetIds": []
    },
    {
      "x": 26,
      "y": 185,
      "size": 1,
      "price": "905000000000000000000",
      "reserved": "",
      "salt": "0xb8166cb1e38d7515c305985010291222e39f646d1862b62104a6becb9f78d092",
      "assetIds": []
    },
    {
      "x": 26,
      "y": 186,
      "size": 1,
      "price": "905000000000000000000",
      "reserved": "",
      "salt": "0x4cf11cd7e2c6e98610e6dbe2b26981acb6d2aa401da4e45669e46f62ecdfce94",
      "assetIds": []
    },
    {
      "x": 26,
      "y": 187,
      "size": 1,
      "price": "905000000000000000000",
      "reserved": "",
      "salt": "0xc9a058f0baf251e038b6b8bbb9f6916c04c22de93d9465c4ab9be657036fb6dc",
      "assetIds": []
    },
    {
      "x": 24,
      "y": 194,
      "size": 1,
      "price": "905000000000000000000",
      "reserved": "",
      "salt": "0xff5b463f2bf9caa577ba0d11772607529491560a2bd41b1d1dc02cf5b2d72853",
      "assetIds": []
    },
    {
      "x": 24,
      "y": 193,
      "size": 1,
      "price": "905000000000000000000",
      "reserved": "",
      "salt": "0x7ab71ce593fe748ce19108549493795cc68a732aeea54ba4f98f56f030f04a0c",
      "assetIds": []
    },
    {
      "x": 24,
      "y": 192,
      "size": 1,
      "price": "905000000000000000000",
      "reserved": "",
      "salt": "0xf4abf0f911d69c55564ced517e72e4492d4af43d2660fa10c6cb68d112a1dcac",
      "assetIds": []
    },
    {
      "x": 24,
      "y": 191,
      "size": 1,
      "price": "905000000000000000000",
      "reserved": "",
      "salt": "0x51b8197badd4201e860bbe188e6b9c24ce0b4fab26740984d3c085b056d8ad58",
      "assetIds": []
    },
    {
      "x": 24,
      "y": 190,
      "size": 1,
      "price": "905000000000000000000",
      "reserved": "",
      "salt": "0x1a8d70f081d41e3984f0f16aee36dbc4854db6894d975d4fedccb3f8db924e0c",
      "assetIds": []
    },
    {
      "x": 24,
      "y": 189,
      "size": 1,
      "price": "905000000000000000000",
      "reserved": "",
      "salt": "0x97999c9466c2f7aeb7181fa79a61682cda968564142cb5c7a58d59e50c21a0e3",
      "assetIds": []
    },
    {
      "x": 24,
      "y": 188,
      "size": 1,
      "price": "905000000000000000000",
      "reserved": "",
      "salt": "0xb892541bd34489be7b412d0c44197e447398176d38d68f7fc534cd0bdcdbcf50",
      "assetIds": []
    },
    {
      "x": 24,
      "y": 187,
      "size": 1,
      "price": "905000000000000000000",
      "reserved": "",
      "salt": "0xfcdc81aac79b475999fa295c97fa77318b367758053bea5ae884360852423729",
      "assetIds": []
    },
    {
      "x": 24,
      "y": 186,
      "size": 1,
      "price": "905000000000000000000",
      "reserved": "",
      "salt": "0x0e6edf1c185edf739f543f5503d70309a9800b7ba89416340002e843b5dc846f",
      "assetIds": []
    },
    {
      "x": 24,
      "y": 185,
      "size": 1,
      "price": "905000000000000000000",
      "reserved": "",
      "salt": "0x638fc092236f1bdb79e1af358097941a7cdd8b86a91f358bb52c216bdcb08e81",
      "assetIds": []
    },
    {
      "x": 24,
      "y": 184,
      "size": 1,
      "price": "905000000000000000000",
      "reserved": "",
      "salt": "0x88012ac40251165a29d903c0af0d01aa062d6dd695d23e355ff9e909a1faf899",
      "assetIds": []
    },
    {
      "x": 24,
      "y": 183,
      "size": 1,
      "price": "905000000000000000000",
      "reserved": "",
      "salt": "0xad9da665fb258c937688b11e22a2e76127918ca0b5f54672cecd0e9fedf89105",
      "assetIds": []
    },
    {
      "x": 24,
      "y": 182,
      "size": 1,
      "price": "905000000000000000000",
      "reserved": "",
      "salt": "0x1c0cdb32429550ce19a9a8f08de035854cc9b1b7daeb33ec2442e115efdb1098",
      "assetIds": []
    },
    {
      "x": 24,
      "y": 181,
      "size": 1,
      "price": "905000000000000000000",
      "reserved": "",
      "salt": "0xd36a6976496a925a2f57912ae2d7aad9d9912eb22b45190b3805d90dfbecdce4",
      "assetIds": []
    },
    {
      "x": 24,
      "y": 180,
      "size": 1,
      "price": "905000000000000000000",
      "reserved": "",
      "salt": "0x5eaa906077213ecfb3764342897a03567dd4326acb5c35385e7eec292e57ae62",
      "assetIds": []
    },
    {
      "x": 24,
      "y": 179,
      "size": 1,
      "price": "905000000000000000000",
      "reserved": "",
      "salt": "0x3e5e231ad8b2996a6276a6f2a63cda89a2e6ba4ab628d9ed7a927779eb688b95",
      "assetIds": []
    },
    {
      "x": 24,
      "y": 178,
      "size": 1,
      "price": "905000000000000000000",
      "reserved": "",
      "salt": "0x7a23833ab94cb0ed83c802b9072ea6a96bbd5a98448975d379dc917a3d036a8a",
      "assetIds": []
    },
    {
      "x": 23,
      "y": 178,
      "size": 1,
      "price": "905000000000000000000",
      "reserved": "",
      "salt": "0x0944e79650dab28819695fef1149748eea736118ee98ad22f7d37351442744d5",
      "assetIds": []
    },
    {
      "x": 22,
      "y": 178,
      "size": 1,
      "price": "905000000000000000000",
      "reserved": "",
      "salt": "0x58ff2d1f0c56083611e76b378771c83df1609113924cedb31a761d1b698786fa",
      "assetIds": []
    },
    {
      "x": 22,
      "y": 179,
      "size": 1,
      "price": "905000000000000000000",
      "reserved": "",
      "salt": "0x61ade7666df774e43f4b6e374dae22c70b63e109da37da25812bcd413529dabd",
      "assetIds": []
    },
    {
      "x": 21,
      "y": 179,
      "size": 1,
      "price": "905000000000000000000",
      "reserved": "",
      "salt": "0x8f6188d13e2887c78c889227f6af9c16e731d5a4dd6c2a49208b1d2ca743f6d9",
      "assetIds": []
    },
    {
      "x": 20,
      "y": 179,
      "size": 1,
      "price": "905000000000000000000",
      "reserved": "",
      "salt": "0xd4ce0828730195d0f82c8a53b226f8d5fe8668d8d3916add46e5b297a6240bdd",
      "assetIds": []
    },
    {
      "x": 19,
      "y": 179,
      "size": 1,
      "price": "905000000000000000000",
      "reserved": "",
      "salt": "0xaed9592cc85568e60f89558e3dd7cfc55bf69c49154033a6a337173b8e909421",
      "assetIds": []
    },
    {
      "x": 18,
      "y": 179,
      "size": 1,
      "price": "905000000000000000000",
      "reserved": "",
      "salt": "0x70cc6ce0bcd5c5c9333470c170bec96abd50349ae394be267fc616318b2064bc",
      "assetIds": []
    },
    {
      "x": 18,
      "y": 178,
      "size": 1,
      "price": "905000000000000000000",
      "reserved": "",
      "salt": "0x256501378ebcd0d1986fbe09ec5eef2e9943876c02a322ecc5f05127a966a303",
      "assetIds": []
    },
    {
      "x": 19,
      "y": 178,
      "size": 1,
      "price": "905000000000000000000",
      "reserved": "",
      "salt": "0x6a2bab22250fc57a97e43ca75c73a1bd6bdb6f3bb47ef27473a0d7a2197e29e4",
      "assetIds": []
    },
    {
      "x": 20,
      "y": 178,
      "size": 1,
      "price": "905000000000000000000",
      "reserved": "",
      "salt": "0xf478c2b57f9d7817e0ef467de9c0c132f911d81be8b202cf4e70378ce8702d66",
      "assetIds": []
    },
    {
      "x": 21,
      "y": 178,
      "size": 1,
      "price": "905000000000000000000",
      "reserved": "",
      "salt": "0x01092b7326020a29d04b074c229e31f6c5b693441f4de5660d2ee299c7d8ecf7",
      "assetIds": []
    },
    {
      "x": 23,
      "y": 179,
      "size": 1,
      "price": "905000000000000000000",
      "reserved": "",
      "salt": "0xba24046b96193f1e229686cf977fc3801cc19b9aff97aab531566c08442344b0",
      "assetIds": []
    },
    {
      "x": 27,
      "y": 178,
      "size": 1,
      "price": "905000000000000000000",
      "reserved": "",
      "salt": "0xee74c2afad2b939a886c0c02c2f39fd00d9a3b6c576edb7cd8f148e7b58f48f5",
      "assetIds": []
    },
    {
      "x": 26,
      "y": 178,
      "size": 1,
      "price": "905000000000000000000",
      "reserved": "",
      "salt": "0x8491b8f840b88d3890d827f3714b9a7804cadc7c7e9e1e42c26915fecadf679b",
      "assetIds": []
    },
    {
      "x": 25,
      "y": 178,
      "size": 1,
      "price": "905000000000000000000",
      "reserved": "",
      "salt": "0x93e2976be7636cd7e19b4fb7824e52b5d92390aaec74ec82944849245b1f972d",
      "assetIds": []
    },
    {
      "x": 18,
      "y": 177,
      "size": 1,
      "price": "905000000000000000000",
      "reserved": "",
      "salt": "0x105749dd021f34e5fb72f7326b4e45c2e3475c7ba4f827bd37b01c4ef089d79b",
      "assetIds": []
    },
    {
      "x": 19,
      "y": 177,
      "size": 1,
      "price": "905000000000000000000",
      "reserved": "",
      "salt": "0x66576b93bc5d1a7e232f88083401f983c4d629abf469d17fc9d0f40ba5fa4012",
      "assetIds": []
    },
    {
      "x": 20,
      "y": 177,
      "size": 1,
      "price": "905000000000000000000",
      "reserved": "",
      "salt": "0x4adaf617aac056ce80894eddf8a7d14575d967bb48a2413cd45e6b00aefcc949",
      "assetIds": []
    },
    {
      "x": 21,
      "y": 177,
      "size": 1,
      "price": "905000000000000000000",
      "reserved": "",
      "salt": "0x4b31f6ae438433e200bf62c8d4b21e66cbbf77923eaefda26fd321cadf67c15a",
      "assetIds": []
    },
    {
      "x": 22,
      "y": 177,
      "size": 1,
      "price": "905000000000000000000",
      "reserved": "",
      "salt": "0xf8519acd84513234798d645abdd033ae9dd7e36959f9aa62bf0f6bfbee2e81c3",
      "assetIds": []
    },
    {
      "x": 23,
      "y": 177,
      "size": 1,
      "price": "905000000000000000000",
      "reserved": "",
      "salt": "0xcb5e924443ebec8214eab4968f3f2f06d6ddae00970a241941d0c7737cc2ba8b",
      "assetIds": []
    },
    {
      "x": 24,
      "y": 177,
      "size": 1,
      "price": "905000000000000000000",
      "reserved": "",
      "salt": "0x8fab2587f5685a521c2454254557441aca85c747e4da8fc42862c81078a9bad0",
      "assetIds": []
    },
    {
      "x": 24,
      "y": 176,
      "size": 1,
      "price": "905000000000000000000",
      "reserved": "",
      "salt": "0xd90b5070dc83d47638c45bda3188fecf17adc784c84039e27534ea74884e6022",
      "assetIds": []
    },
    {
      "x": 25,
      "y": 176,
      "size": 1,
      "price": "905000000000000000000",
      "reserved": "",
      "salt": "0x0050dd125b62a3f0608b51ad28c2efa9230aa1803d9cef55ca69edc63f578d2a",
      "assetIds": []
    },
    {
      "x": 26,
      "y": 176,
      "size": 1,
      "price": "905000000000000000000",
      "reserved": "",
      "salt": "0x1a3a5347f4d812c399683d55a1ee174e10722ab64041905f4db7d0ced499e70e",
      "assetIds": []
    },
    {
      "x": 27,
      "y": 176,
      "size": 1,
      "price": "905000000000000000000",
      "reserved": "",
      "salt": "0xff01358223f75aa664b1227617ed991ff68448006c133f628e045b56c3ae7ad1",
      "assetIds": []
    },
    {
      "x": 28,
      "y": 176,
      "size": 1,
      "price": "905000000000000000000",
      "reserved": "",
      "salt": "0x2470ee2880cb1fedc457100c4c5dba074b2e587838cbcfa841a929b8dd669359",
      "assetIds": []
    },
    {
      "x": 29,
      "y": 176,
      "size": 1,
      "price": "905000000000000000000",
      "reserved": "",
      "salt": "0x6ab379e73f313ac2de060dd436460f5b7585a9ad8e621e41c208193e675348b8",
      "assetIds": []
    },
    {
      "x": 29,
      "y": 177,
      "size": 1,
      "price": "905000000000000000000",
      "reserved": "",
      "salt": "0xe37450932a185f22166b33f5c653fa34b0cbd2f80b778ba0dff2cb186d35e040",
      "assetIds": []
    },
    {
      "x": 19,
      "y": 176,
      "size": 1,
      "price": "905000000000000000000",
      "reserved": "",
      "salt": "0xe72943439fb11238e38f7a78056a75a9ef19a3a793eac50f108495e32e46dd91",
      "assetIds": []
    },
    {
      "x": 18,
      "y": 176,
      "size": 1,
      "price": "905000000000000000000",
      "reserved": "",
      "salt": "0x2df30f6d43dcf031313c8ed93a50293d9f5972905466fd854a35c8048c531066",
      "assetIds": []
    },
    {
      "x": 18,
      "y": 175,
      "size": 1,
      "price": "905000000000000000000",
      "reserved": "",
      "salt": "0x46508db641ead59897eecffb328c601b9516b489f51cbcdbfe8be29e68b02118",
      "assetIds": []
    },
    {
      "x": 19,
      "y": 175,
      "size": 1,
      "price": "905000000000000000000",
      "reserved": "",
      "salt": "0xc1ddd1e891a28951ae5e1d300a968cecf68c8125f32343c83939164888edf6c2",
      "assetIds": []
    },
    {
      "x": 20,
      "y": 175,
      "size": 1,
      "price": "905000000000000000000",
      "reserved": "",
      "salt": "0x498c11609adea0fbe442ba0bb68e1746510f7bccfa25c829b39fefdc233d4de4",
      "assetIds": []
    },
    {
      "x": 21,
      "y": 175,
      "size": 1,
      "price": "905000000000000000000",
      "reserved": "",
      "salt": "0x8f639d198134e5e19c52e86745d3dcb54e5fa24e4bfaae795ebbfc7b4faeb3ae",
      "assetIds": []
    },
    {
      "x": 26,
      "y": 174,
      "size": 1,
      "price": "905000000000000000000",
      "reserved": "",
      "salt": "0xcda05d43ebaff1e1136f58a9f1b18ee13fc9efcb3708ff270b28e305e942a2ae",
      "assetIds": []
    },
    {
      "x": 26,
      "y": 175,
      "size": 1,
      "price": "905000000000000000000",
      "reserved": "",
      "salt": "0x76414ffd7dad9c9efab4707b11d396682573456c1f4ce41024a0d8322af1aec3",
      "assetIds": []
    },
    {
      "x": 27,
      "y": 175,
      "size": 1,
      "price": "905000000000000000000",
      "reserved": "",
      "salt": "0xa54a8aca873e7770c7b5adbd12b825d903dba79ca52fc9d21b102f344201383b",
      "assetIds": []
    },
    {
      "x": 28,
      "y": 175,
      "size": 1,
      "price": "905000000000000000000",
      "reserved": "",
      "salt": "0x2b6d2a7e3a6868aea84be72501c3aa47222af842a1c61f863ac6ad9c1def1944",
      "assetIds": []
    },
    {
      "x": 29,
      "y": 175,
      "size": 1,
      "price": "905000000000000000000",
      "reserved": "",
      "salt": "0x1a85869ce5a45d209ec887795d3db8296b75cbfc10c9f46746b77fabbf37e779",
      "assetIds": []
    },
    {
      "x": 28,
      "y": 174,
      "size": 1,
      "price": "905000000000000000000",
      "reserved": "",
      "salt": "0x1626c7b184772bc5edb84abf61505ada0d351d9be45483d3b35f80df9d13637e",
      "assetIds": []
    },
    {
      "x": 29,
      "y": 174,
      "size": 1,
      "price": "905000000000000000000",
      "reserved": "",
      "salt": "0x538fa3e159de31f1078a9c923d5b0d614a837eadf4592362482d1ccaea2e76ba",
      "assetIds": []
    },
    {
      "x": 27,
      "y": 174,
      "size": 1,
      "price": "905000000000000000000",
      "reserved": "",
      "salt": "0xad4a570a3f514b3e7d0adfdb251cd34b5edf6d55c29b1b1c589d9690fa696dbb",
      "assetIds": []
    },
    {
      "x": 18,
      "y": 173,
      "size": 1,
      "price": "905000000000000000000",
      "reserved": "",
      "salt": "0x7c230b7c883ee8124f77e314b31fa98ec992d0c45b5215e20b233de338f417ad",
      "assetIds": []
    },
    {
      "x": 14,
      "y": 173,
      "size": 1,
      "price": "905000000000000000000",
      "reserved": "",
      "salt": "0x761dc0c246aad429bf9b9e0b0a9771a846988314e1b084166ab67e2a6873dcfd",
      "assetIds": []
    },
    {
      "x": 13,
      "y": 173,
      "size": 1,
      "price": "905000000000000000000",
      "reserved": "",
      "salt": "0x2048bef3517f172af6b10699fe3197b40e56bbcce9af0b708c079db7d6181d64",
      "assetIds": []
    },
    {
      "x": 21,
      "y": 173,
      "size": 1,
      "price": "905000000000000000000",
      "reserved": "",
      "salt": "0xdc366bf5aa549eeb8afb1a3dfd8b9d12914c8824dda674cbb39a2c9a54cb4cb2",
      "assetIds": []
    },
    {
      "x": 22,
      "y": 175,
      "size": 1,
      "price": "905000000000000000000",
      "reserved": "",
      "salt": "0x30e7c9c25587b4f74b62812fd2bc5cb6104b77475e7aff52bd93af43172e8009",
      "assetIds": []
    },
    {
      "x": 23,
      "y": 175,
      "size": 1,
      "price": "905000000000000000000",
      "reserved": "",
      "salt": "0xef6c40547e39f7c22b66a03e4ada510abc78cc44324102cc20a1fe1ec998798c",
      "assetIds": []
    },
    {
      "x": 24,
      "y": 175,
      "size": 1,
      "price": "905000000000000000000",
      "reserved": "",
      "salt": "0x6fa819dafaf0981f04a9b3b174cca451f9986afc56dc7e59dc5477f856904b62",
      "assetIds": []
    },
    {
      "x": 25,
      "y": 175,
      "size": 1,
      "price": "905000000000000000000",
      "reserved": "",
      "salt": "0x0cefb4daf1e2a96e83db85d2551550d2e9826684141faa3f32b1fd12fbfde106",
      "assetIds": []
    },
    {
      "x": 22,
      "y": 176,
      "size": 1,
      "price": "905000000000000000000",
      "reserved": "",
      "salt": "0x214c3884b3e24e952f1ffe2d0d2ca62f5a802ef2a9345582f233c383429bc8c4",
      "assetIds": []
    },
    {
      "x": 21,
      "y": 176,
      "size": 1,
      "price": "905000000000000000000",
      "reserved": "",
      "salt": "0x0b1c00f301ae88418519596f68bc7cc3c5db8e11fc361fcc69abd657feeffb11",
      "assetIds": []
    },
    {
      "x": 20,
      "y": 176,
      "size": 1,
      "price": "905000000000000000000",
      "reserved": "",
      "salt": "0xc03e105af11e42525ac9af99527caa9cc0f41f96e4fcd5c6c90b894819b06031",
      "assetIds": []
    },
    {
      "x": 23,
      "y": 176,
      "size": 1,
      "price": "905000000000000000000",
      "reserved": "",
      "salt": "0x2f5aede8db3a9ddff83fd128f33220632c2a98f1d719b2b8abf99bfa684dd31a",
      "assetIds": []
    },
    {
      "x": 27,
      "y": 177,
      "size": 1,
      "price": "905000000000000000000",
      "reserved": "",
      "salt": "0x59f3c94c91016a66a0c549a394d93160f7a238ae24b3590c2c66c1bc1a66ae0e",
      "assetIds": []
    },
    {
      "x": 26,
      "y": 177,
      "size": 1,
      "price": "905000000000000000000",
      "reserved": "",
      "salt": "0x135145908a8667fb83ffcc44aa2dec3367dae9bae822a61b2f83963841871eee",
      "assetIds": []
    },
    {
      "x": 25,
      "y": 177,
      "size": 1,
      "price": "905000000000000000000",
      "reserved": "",
      "salt": "0xaf8e4038a6dd12726377182bcef1f75f5a1451655af844315af16a7580ff5498",
      "assetIds": []
    },
    {
      "x": 28,
      "y": 177,
      "size": 1,
      "price": "905000000000000000000",
      "reserved": "",
      "salt": "0xeb2147c529b3b90f4e0aeead55b49896e0b5986080e16542766d8474d24eec5d",
      "assetIds": []
    },
    {
      "x": 23,
      "y": 173,
      "size": 1,
      "price": "905000000000000000000",
      "reserved": "",
      "salt": "0xc9b591cdbc31235636c21328ce37de1c57681e81dd12a295893f5d240b3c4cce",
      "assetIds": []
    },
    {
      "x": 22,
      "y": 173,
      "size": 1,
      "price": "905000000000000000000",
      "reserved": "",
      "salt": "0xe44cf1f0e50802202022a2eb368e523ad84e909584038b6cfcf31846cb890470",
      "assetIds": []
    },
    {
      "x": 20,
      "y": 173,
      "size": 1,
      "price": "905000000000000000000",
      "reserved": "",
      "salt": "0x3349ed82557ae16b267153f668714068bde959948bbbfd9d7dc2548daa580417",
      "assetIds": []
    },
    {
      "x": 19,
      "y": 173,
      "size": 1,
      "price": "905000000000000000000",
      "reserved": "",
      "salt": "0xbe06c9bd483d779ee0ab7ae09ccae244fb7a079faa7c13b3b236c83f97a5a6c1",
      "assetIds": []
    },
    {
      "x": 14,
      "y": 171,
      "size": 1,
      "price": "905000000000000000000",
      "reserved": "",
      "salt": "0x79a93cb1bdcfcd788c122d309510d6956025a26ed12cf430fa51440146f7ba42",
      "assetIds": []
    },
    {
      "x": 14,
      "y": 170,
      "size": 1,
      "price": "905000000000000000000",
      "reserved": "",
      "salt": "0xf09491a8c17a1936a18995c49bc6d7960ea7195c4991d35fc6b9fb2d09a99f8f",
      "assetIds": []
    },
    {
      "x": 15,
      "y": 170,
      "size": 1,
      "price": "905000000000000000000",
      "reserved": "",
      "salt": "0x521b2d65e157ba207c515273ac59400c6a8adb0dce96ed9ea5bb48c317c21c3e",
      "assetIds": []
    },
    {
      "x": 16,
      "y": 170,
      "size": 1,
      "price": "905000000000000000000",
      "reserved": "",
      "salt": "0x08776807c466b102955c99ebab6a437a805fe26cc267cc419ec4b4e060188622",
      "assetIds": []
    },
    {
      "x": 17,
      "y": 169,
      "size": 1,
      "price": "905000000000000000000",
      "reserved": "",
      "salt": "0x17b8e73b626a484c020c1fe19a0ff4298a6e563b726b55940a72eaa4de06fb63",
      "assetIds": []
    },
    {
      "x": 18,
      "y": 169,
      "size": 1,
      "price": "905000000000000000000",
      "reserved": "",
      "salt": "0x2324f0dbcf199f403c61beff36ce4205003d11cb808354580ff67536a0be39aa",
      "assetIds": []
    },
    {
      "x": 19,
      "y": 169,
      "size": 1,
      "price": "905000000000000000000",
      "reserved": "",
      "salt": "0xd04729617dc1256a8d182267d144a24e0043e0ee2561eb6e66a3b8e59eb09676",
      "assetIds": []
    },
    {
      "x": 20,
      "y": 169,
      "size": 1,
      "price": "905000000000000000000",
      "reserved": "",
      "salt": "0x8ac7055936185baa704c2bf0d78736fa41d585d5b1d7e830556c9723b6b960c0",
      "assetIds": []
    },
    {
      "x": 21,
      "y": 169,
      "size": 1,
      "price": "905000000000000000000",
      "reserved": "",
      "salt": "0x91a58700900704b064c8e2194a69308cd1d2ede67305694908e809dddfba01fb",
      "assetIds": []
    },
    {
      "x": 22,
      "y": 169,
      "size": 1,
      "price": "905000000000000000000",
      "reserved": "",
      "salt": "0xd2d5ec73f20c1376040241e960b168179124d180ee060ca62b1d6719561a44c4",
      "assetIds": []
    },
    {
      "x": 22,
      "y": 170,
      "size": 1,
      "price": "905000000000000000000",
      "reserved": "",
      "salt": "0x3e79b59fe214c5738ef810132521ccca69e8db79f6eb8f5d3133981b0f6735a1",
      "assetIds": []
    },
    {
      "x": 23,
      "y": 171,
      "size": 1,
      "price": "905000000000000000000",
      "reserved": "",
      "salt": "0xc97c5e0640ad5b861bed2998a75cb05c3d2acad25ad17e335e0727d2eebcd6cc",
      "assetIds": []
    },
    {
      "x": 15,
      "y": 171,
      "size": 1,
      "price": "905000000000000000000",
      "reserved": "",
      "salt": "0xb4390a5b4807b9f6a68de74a4ed4d7dcf575f418df944896c9e03c13a2b1d323",
      "assetIds": []
    },
    {
      "x": 16,
      "y": 171,
      "size": 1,
      "price": "905000000000000000000",
      "reserved": "",
      "salt": "0x5e912733f99e112d7a2840c50ba2f1a2167f83c51ec88d627d5f646887199d8b",
      "assetIds": []
    },
    {
      "x": 13,
      "y": 170,
      "size": 1,
      "price": "905000000000000000000",
      "reserved": "",
      "salt": "0x20daa942930b20d789dabd7d6be05260626d5582a256a3f28938114a1f2eaf60",
      "assetIds": []
    },
    {
      "x": 13,
      "y": 169,
      "size": 1,
      "price": "905000000000000000000",
      "reserved": "",
      "salt": "0x7aed613694e8f2afa262749aee7f4a04d3ae3ad2f629c0479924754c20e19835",
      "assetIds": []
    },
    {
      "x": 14,
      "y": 169,
      "size": 1,
      "price": "905000000000000000000",
      "reserved": "",
      "salt": "0x04c938690cb4cd1aac6d68a3af05ac3228d53d798e53b9473fc938dcd6df3ae9",
      "assetIds": []
    },
    {
      "x": 14,
      "y": 168,
      "size": 1,
      "price": "905000000000000000000",
      "reserved": "",
      "salt": "0x7f23a56bed3174766926b2f561a3b76abf2d824a44f6fff26e27973d00709542",
      "assetIds": []
    },
    {
      "x": 15,
      "y": 168,
      "size": 1,
      "price": "905000000000000000000",
      "reserved": "",
      "salt": "0x88f186eb17159ebcb4aff672334b480d0718ceab7a6aac76bc9a20b316f5c336",
      "assetIds": []
    },
    {
      "x": 16,
      "y": 168,
      "size": 1,
      "price": "905000000000000000000",
      "reserved": "",
      "salt": "0x74714d2da6b7eb75bad5cfb5fd161b127c06cf080c01de815295f8a81b2febb4",
      "assetIds": []
    },
    {
      "x": 20,
      "y": 168,
      "size": 1,
      "price": "905000000000000000000",
      "reserved": "",
      "salt": "0xc7e771de5eef37aad3bd59c5bb17235a265fb913039b5dccdd6d3784f1e1689f",
      "assetIds": []
    },
    {
      "x": 19,
      "y": 168,
      "size": 1,
      "price": "905000000000000000000",
      "reserved": "",
      "salt": "0x4845045151e09eb2ebd598099dec77144099c9e0a582912aa7526057e792ff2f",
      "assetIds": []
    },
    {
      "x": 18,
      "y": 168,
      "size": 1,
      "price": "905000000000000000000",
      "reserved": "",
      "salt": "0x78db84c25d52e1b6d70017e977467e217b6817ee83ca1b5d68cc0f90f66d840d",
      "assetIds": []
    },
    {
      "x": 17,
      "y": 168,
      "size": 1,
      "price": "905000000000000000000",
      "reserved": "",
      "salt": "0xe4631cc4e5fdf1c3b97a1b7f6b8049710538d0d609c702df6fc54b5c09cddcb4",
      "assetIds": []
    },
    {
      "x": 15,
      "y": 169,
      "size": 1,
      "price": "905000000000000000000",
      "reserved": "",
      "salt": "0x7af033988425aa1d9ebfeaf30c67e661589cb11895727c5faced38d192ed76a2",
      "assetIds": []
    },
    {
      "x": 21,
      "y": 168,
      "size": 1,
      "price": "905000000000000000000",
      "reserved": "",
      "salt": "0xa055c8248611902331fbddfc910b981a4b95b6b532bbaef88737b15395fa84b2",
      "assetIds": []
    },
    {
      "x": 22,
      "y": 168,
      "size": 1,
      "price": "905000000000000000000",
      "reserved": "",
      "salt": "0xc5009c4a27b6bb8dd053f95ce7fa5f281cd4da1a0a8d3d6e9a6c0e7f35dc2241",
      "assetIds": []
    },
    {
      "x": 23,
      "y": 168,
      "size": 1,
      "price": "905000000000000000000",
      "reserved": "",
      "salt": "0x2d277deba27d8a33c4a38c3ff389079e5934e1ef07eb214d7ce67ece21e6a195",
      "assetIds": []
    },
    {
      "x": 23,
      "y": 169,
      "size": 1,
      "price": "905000000000000000000",
      "reserved": "",
      "salt": "0x89146aecf73c4a1bc6cd47fbc93c1569bc97b50e66cc0bbe32fe539b178568ca",
      "assetIds": []
    },
    {
      "x": 23,
      "y": 170,
      "size": 1,
      "price": "905000000000000000000",
      "reserved": "",
      "salt": "0x1441c2c7bb29ec6dfe3f411763d29773fec4ab0cea989d2c3a83581451a1ada9",
      "assetIds": []
    },
    {
      "x": 21,
      "y": 171,
      "size": 1,
      "price": "905000000000000000000",
      "reserved": "",
      "salt": "0x942a2f22adf53a55a62ddf647908343501d942a493511c83cdc3b9ae3bc411b7",
      "assetIds": []
    },
    {
      "x": 19,
      "y": 171,
      "size": 1,
      "price": "905000000000000000000",
      "reserved": "",
      "salt": "0x73ab25140e3f586e8a0ab2b30e7ea57a6017d0d9c90f5ced50e58b951fceeffc",
      "assetIds": []
    },
    {
      "x": 19,
      "y": 170,
      "size": 1,
      "price": "905000000000000000000",
      "reserved": "",
      "salt": "0x4b762fecb5f6036d2dae367ce2cee7b42418af80ef9475984eabe487c43fed5b",
      "assetIds": []
    },
    {
      "x": 18,
      "y": 170,
      "size": 1,
      "price": "905000000000000000000",
      "reserved": "",
      "salt": "0x6a27d3b618ba0c1cb667168b8f8d023cb60e467c8b774eed5e1ac1be2f03f472",
      "assetIds": []
    },
    {
      "x": 16,
      "y": 169,
      "size": 1,
      "price": "905000000000000000000",
      "reserved": "",
      "salt": "0xc3c6356f02b039d8704c8cb33b8d63f0370dbb54b1c9be0d9f34606c708e746e",
      "assetIds": []
    },
    {
      "x": 13,
      "y": 168,
      "size": 1,
      "price": "905000000000000000000",
      "reserved": "",
      "salt": "0x21d0256345a281e0a3166eb66afe1a1be4c48aca485a98f2ea9ef40ff40bf05e",
      "assetIds": []
    },
    {
      "x": 17,
      "y": 170,
      "size": 1,
      "price": "905000000000000000000",
      "reserved": "",
      "salt": "0x88b57b6a779ff49a28b00ad59f139da3b036b951fa82edce73db978dad0671c4",
      "assetIds": []
    },
    {
      "x": 17,
      "y": 171,
      "size": 1,
      "price": "905000000000000000000",
      "reserved": "",
      "salt": "0xbb30b363993df2d657c0bf3c53431d877fd31d13aaf7d1b14107acde152d86f2",
      "assetIds": []
    },
    {
      "x": 18,
      "y": 171,
      "size": 1,
      "price": "905000000000000000000",
      "reserved": "",
      "salt": "0x8e94c7b583c18e188158fab90c7ea79651c20410e523f2266124a9e3c08e02af",
      "assetIds": []
    },
    {
      "x": 20,
      "y": 171,
      "size": 1,
      "price": "905000000000000000000",
      "reserved": "",
      "salt": "0xd9f9c1f9723efa8e4ea27fa48d82f7926801a37e8e704feec4cf45cb2794b37c",
      "assetIds": []
    },
    {
      "x": 20,
      "y": 170,
      "size": 1,
      "price": "905000000000000000000",
      "reserved": "",
      "salt": "0x438f4a429b8f35588dee408c2b3fa25e29041349e601457624e70c6fbe75432c",
      "assetIds": []
    },
    {
      "x": 21,
      "y": 170,
      "size": 1,
      "price": "905000000000000000000",
      "reserved": "",
      "salt": "0x6a761265a9a0174d4acfa289f4bac2326b23a5ca1ca3289146b060cf16806ce0",
      "assetIds": []
    },
    {
      "x": 22,
      "y": 171,
      "size": 1,
      "price": "905000000000000000000",
      "reserved": "",
      "salt": "0xe28c18bc4c0acd9136a4e78fb439d6cdc25a227406a3e037276eb3da9711afb4",
      "assetIds": []
    },
    {
      "x": 24,
      "y": 155,
      "size": 1,
      "price": "905000000000000000000",
      "reserved": "",
      "salt": "0x3b755d4d6b8f2c3c9ffea88102af137a0ae8fdca2113dd8fc2761a4e37bfe8d9",
      "assetIds": []
    },
    {
      "x": 25,
      "y": 155,
      "size": 1,
      "price": "905000000000000000000",
      "reserved": "",
      "salt": "0xaabd7e9095b10ade8237ad49079f592ef78c711852e1baeb5729bffe9554c81d",
      "assetIds": []
    },
    {
      "x": 26,
      "y": 155,
      "size": 1,
      "price": "905000000000000000000",
      "reserved": "",
      "salt": "0x1c9d43ae7c44610ee3c406dd594db4578374dcc63614e7d5d7cfe70833da13d7",
      "assetIds": []
    },
    {
      "x": 27,
      "y": 155,
      "size": 1,
      "price": "905000000000000000000",
      "reserved": "",
      "salt": "0x91aed032435919df0178c3c6d7beb03552d83449445ef302930e89a05add723f",
      "assetIds": []
    },
    {
      "x": 28,
      "y": 155,
      "size": 1,
      "price": "905000000000000000000",
      "reserved": "",
      "salt": "0x450af5114b3b473da32cf5fd5b6bda5fc3b6865e3d634ced03e89d2ed46db88f",
      "assetIds": []
    },
    {
      "x": 29,
      "y": 155,
      "size": 1,
      "price": "905000000000000000000",
      "reserved": "",
      "salt": "0x230233268c723d94cbc210b16d00dff14a92a0af3fda88f626af925ad1155d8a",
      "assetIds": []
    },
    {
      "x": 29,
      "y": 154,
      "size": 1,
      "price": "905000000000000000000",
      "reserved": "",
      "salt": "0x13ae8cb6321200a78a00372df6344c555076df4c1aad00c9e642411fbf16d46b",
      "assetIds": []
    },
    {
      "x": 29,
      "y": 153,
      "size": 1,
      "price": "905000000000000000000",
      "reserved": "",
      "salt": "0x2e4fbdc1f837f2a61752dda9ec40b8d03f07efefda3f5dbe4ed0fd399dbbf985",
      "assetIds": []
    },
    {
      "x": 29,
      "y": 152,
      "size": 1,
      "price": "905000000000000000000",
      "reserved": "",
      "salt": "0xc8696a0f292fdbd6a069bc7baf04405a3ea43d9d51a6b9c4a6c710fff3ffe80b",
      "assetIds": []
    },
    {
      "x": 29,
      "y": 151,
      "size": 1,
      "price": "905000000000000000000",
      "reserved": "",
      "salt": "0x6f62379dbdd3138fcd72e4f128c882371f7b03e698d62c53c3dd149160e3f812",
      "assetIds": []
    },
    {
      "x": 28,
      "y": 151,
      "size": 1,
      "price": "905000000000000000000",
      "reserved": "",
      "salt": "0x08da053101eae8301903d8a70e79fa022b5dd4889aa12a2ce1fce0be29fb125d",
      "assetIds": []
    },
    {
      "x": 28,
      "y": 150,
      "size": 1,
      "price": "905000000000000000000",
      "reserved": "",
      "salt": "0x4bec0fc0b5977ba73df617c475ffa9ae449f2279011a51b17c45170db4ad3515",
      "assetIds": []
    },
    {
      "x": 28,
      "y": 149,
      "size": 1,
      "price": "905000000000000000000",
      "reserved": "",
      "salt": "0x2037c610073c0383afed148357d8d40270bcbc2ab3b64457789af11720678528",
      "assetIds": []
    },
    {
      "x": 29,
      "y": 149,
      "size": 1,
      "price": "905000000000000000000",
      "reserved": "",
      "salt": "0x3035166100c6cf8a63e84c0c295e45ec346fd746f346cab95e64e3836d7f8a31",
      "assetIds": []
    },
    {
      "x": 29,
      "y": 148,
      "size": 1,
      "price": "905000000000000000000",
      "reserved": "",
      "salt": "0xbef4bbef53ca5b0513054d0d9c43f13369a5b8b63330291d16826bb4b47be2c9",
      "assetIds": []
    },
    {
      "x": 29,
      "y": 147,
      "size": 1,
      "price": "905000000000000000000",
      "reserved": "",
      "salt": "0x9594d18c5ae8ecb7cf71c1e3117d1a087310247075287d07fb2bbf6259e77661",
      "assetIds": []
    },
    {
      "x": 29,
      "y": 146,
      "size": 1,
      "price": "905000000000000000000",
      "reserved": "",
      "salt": "0xf1fca952147813c3633549459f747bbf898196ae53c1c3fa3b4500058c304f19",
      "assetIds": []
    },
    {
      "x": 29,
      "y": 145,
      "size": 1,
      "price": "905000000000000000000",
      "reserved": "",
      "salt": "0x397e7a886e51ce650e8e24b56f2a05840a7c68d484bc626477cea2fe63b7a9f6",
      "assetIds": []
    },
    {
      "x": 28,
      "y": 145,
      "size": 1,
      "price": "905000000000000000000",
      "reserved": "",
      "salt": "0x08f2e365ecff983bd1254dda9ec697e18c59b8c6f0caf2aaac8276fc19af704c",
      "assetIds": []
    },
    {
      "x": 27,
      "y": 145,
      "size": 1,
      "price": "905000000000000000000",
      "reserved": "",
      "salt": "0xf96cc31547821d9f368d5555ca44a75670c2c73bb734bf89fb032a6bf41b4d77",
      "assetIds": []
    },
    {
      "x": 26,
      "y": 145,
      "size": 1,
      "price": "905000000000000000000",
      "reserved": "",
      "salt": "0x85cf499390c4017ffdadd8a1b5a7ee0e7cbc17976c063eed5869939cc17a81e4",
      "assetIds": []
    },
    {
      "x": 25,
      "y": 145,
      "size": 1,
      "price": "905000000000000000000",
      "reserved": "",
      "salt": "0x19b6513336e8a20f06cdcfbf6683380a586c7ca2f73fb13ce89d40aeeca86f79",
      "assetIds": []
    },
    {
      "x": 24,
      "y": 145,
      "size": 1,
      "price": "905000000000000000000",
      "reserved": "",
      "salt": "0xc18b22de7e444e5c34783e300aaed534a5e37085bfbefb8f8355e351f2a58124",
      "assetIds": []
    },
    {
      "x": 25,
      "y": 144,
      "size": 1,
      "price": "905000000000000000000",
      "reserved": "",
      "salt": "0xe6082516d8990f15b2d6f0b28875bb6a16195dcb9859d8ff23902d3083f98ef0",
      "assetIds": []
    },
    {
      "x": 26,
      "y": 144,
      "size": 1,
      "price": "905000000000000000000",
      "reserved": "",
      "salt": "0x22c7a34bc95893cf2044c14d92428aae1cd3ba18e54601bce97a9ea78ac5d019",
      "assetIds": []
    },
    {
      "x": 27,
      "y": 144,
      "size": 1,
      "price": "905000000000000000000",
      "reserved": "",
      "salt": "0x6a05aae015f509634bdecd695a1044d8751f5873e8ad638340d7dd49355db1e7",
      "assetIds": []
    },
    {
      "x": 28,
      "y": 144,
      "size": 1,
      "price": "905000000000000000000",
      "reserved": "",
      "salt": "0xb4cc0230f006992c8e813caa93b5b3b08999a20a68cbe7a050d0bcbed2d748d0",
      "assetIds": []
    },
    {
      "x": 29,
      "y": 144,
      "size": 1,
      "price": "905000000000000000000",
      "reserved": "",
      "salt": "0x3fd2a34ba9980a879b9409004bc8b573ac6287ac5e59c8e24ba06e933adbf27c",
      "assetIds": []
    },
    {
      "x": 29,
      "y": 150,
      "size": 1,
      "price": "905000000000000000000",
      "reserved": "",
      "salt": "0x804398fc9b7b7a2518e87b1a7bab6146f7ba1aec6a2d935d6e3817138e87bd59",
      "assetIds": []
    },
    {
      "x": 27,
      "y": 149,
      "size": 1,
      "price": "905000000000000000000",
      "reserved": "",
      "salt": "0x8a6e7fe8d623dd698892532f0107c4c223b85408ac8325a354c7421db3176243",
      "assetIds": []
    },
    {
      "x": 26,
      "y": 149,
      "size": 1,
      "price": "905000000000000000000",
      "reserved": "",
      "salt": "0x3f56cec2278be8bfd34b0a79b728f2b6426802a481815ff6fb26d3b63b01eba8",
      "assetIds": []
    },
    {
      "x": 25,
      "y": 149,
      "size": 1,
      "price": "905000000000000000000",
      "reserved": "",
      "salt": "0x74e6e52df2c643722d2c308afe738c93a32a89986b3f32d5247c6ce129130338",
      "assetIds": []
    },
    {
      "x": 24,
      "y": 149,
      "size": 1,
      "price": "905000000000000000000",
      "reserved": "",
      "salt": "0xa67d14148336682afe81d149762b68cffcb0f20a7e576af8f69d546ca2e4ed7c",
      "assetIds": []
    },
    {
      "x": 24,
      "y": 148,
      "size": 1,
      "price": "905000000000000000000",
      "reserved": "",
      "salt": "0x99edf11522a69f1e1d223f9c62f9df4472724880e30e3325636dbe0e20b4b484",
      "assetIds": []
    },
    {
      "x": 24,
      "y": 147,
      "size": 1,
      "price": "905000000000000000000",
      "reserved": "",
      "salt": "0xda4b0b2dd3fd7090b484c0ec36fbd522b1c0b05f15ada9cce6f0a3c2e4630e81",
      "assetIds": []
    },
    {
      "x": 24,
      "y": 146,
      "size": 1,
      "price": "905000000000000000000",
      "reserved": "",
      "salt": "0x1db2ed9fbd62a857a882cb63dca7ae2075aa6ceb1092abad176f0f546f3c208a",
      "assetIds": []
    },
    {
      "x": 24,
      "y": 144,
      "size": 1,
      "price": "905000000000000000000",
      "reserved": "",
      "salt": "0x1ebfb622651b248f0d6bec72da6035623c11cd573261f0e11a6cd49ab226a9a9",
      "assetIds": []
    },
    {
      "x": 25,
      "y": 146,
      "size": 1,
      "price": "905000000000000000000",
      "reserved": "",
      "salt": "0xe26fe3b48484c5e033792c1b99bf302b4fc90c54cc0f94b32753bd900264646a",
      "assetIds": []
    },
    {
      "x": 26,
      "y": 146,
      "size": 1,
      "price": "905000000000000000000",
      "reserved": "",
      "salt": "0x2287e648efefc441b03b95e4b9c20fc25a4b37932ffb43fab6e9e09dcc364fa0",
      "assetIds": []
    },
    {
      "x": 27,
      "y": 146,
      "size": 1,
      "price": "905000000000000000000",
      "reserved": "",
      "salt": "0x71dd110f269a128444a25d52f4ac791f0c017dc0500cd13741c701279c106487",
      "assetIds": []
    },
    {
      "x": 28,
      "y": 146,
      "size": 1,
      "price": "905000000000000000000",
      "reserved": "",
      "salt": "0xcb0dd7d9b8ac6992b7cb950e78f383213a7473a2f58d784ff4d0373e4eaecbe2",
      "assetIds": []
    },
    {
      "x": 28,
      "y": 147,
      "size": 1,
      "price": "905000000000000000000",
      "reserved": "",
      "salt": "0xf31ad4a596aecd1eacbfc3c72c0b29c977f89f4bd20cfd8c628c714fa5370d21",
      "assetIds": []
    },
    {
      "x": 27,
      "y": 147,
      "size": 1,
      "price": "905000000000000000000",
      "reserved": "",
      "salt": "0x7ad3dcbceceb9986be171d130c4c5f74ec7ee0bf5730fa84333f0dfb3f19fea0",
      "assetIds": []
    },
    {
      "x": 26,
      "y": 147,
      "size": 1,
      "price": "905000000000000000000",
      "reserved": "",
      "salt": "0xc01b48c4a06f4a88436fe4944a453e4280872fb055a656d288c64d808f9061bb",
      "assetIds": []
    },
    {
      "x": 25,
      "y": 147,
      "size": 1,
      "price": "905000000000000000000",
      "reserved": "",
      "salt": "0xdaa261b2b394cf87c1a81faecc3f06f325984282434f0bfc6ccbb761e041a56f",
      "assetIds": []
    },
    {
      "x": 25,
      "y": 148,
      "size": 1,
      "price": "905000000000000000000",
      "reserved": "",
      "salt": "0x3cc5f3f55424bd43da370e727b0cf046e3ddac6c74b728e47263dff0a61933aa",
      "assetIds": []
    },
    {
      "x": 26,
      "y": 148,
      "size": 1,
      "price": "905000000000000000000",
      "reserved": "",
      "salt": "0x386aa717bd1fe814e6d19612d86e312d95658cad2f1522587a5ffc0858caa37a",
      "assetIds": []
    },
    {
      "x": 27,
      "y": 148,
      "size": 1,
      "price": "905000000000000000000",
      "reserved": "",
      "salt": "0x44a7ccac2e8a61e758099e3c3876007efdc05405f279fb207f528be1291f433d",
      "assetIds": []
    },
    {
      "x": 28,
      "y": 148,
      "size": 1,
      "price": "905000000000000000000",
      "reserved": "",
      "salt": "0xc041cbedd58ddcd9b8caa643c044f6967439ffca3994df74790778ab9b76ec2f",
      "assetIds": []
    },
    {
      "x": 28,
      "y": 152,
      "size": 1,
      "price": "905000000000000000000",
      "reserved": "",
      "salt": "0x72e4ea81b8b8c6f8fe1034a2218c0c3a402da7467c6720ac5b00dd237abc30c0",
      "assetIds": []
    },
    {
      "x": 28,
      "y": 153,
      "size": 1,
      "price": "905000000000000000000",
      "reserved": "",
      "salt": "0x974afbe9706c290e66142f69ed3edf6ad000b1611241655c3cce9f1c93f0eaef",
      "assetIds": []
    },
    {
      "x": 28,
      "y": 154,
      "size": 1,
      "price": "905000000000000000000",
      "reserved": "",
      "salt": "0x88e517ca5990150a805dfd7d156a20c7663db375698fa80f59c57a6f80105afc",
      "assetIds": []
    },
    {
      "x": 27,
      "y": 154,
      "size": 1,
      "price": "905000000000000000000",
      "reserved": "",
      "salt": "0x1b127ddeffe3c2832be5683fb410eb089b37bbcec8fb84aca6690a9431cc2573",
      "assetIds": []
    },
    {
      "x": 26,
      "y": 154,
      "size": 1,
      "price": "905000000000000000000",
      "reserved": "",
      "salt": "0x1dea87444578448e693a3e175249e2900d5cab96cb50b12c858ce5d4bc933584",
      "assetIds": []
    },
    {
      "x": 25,
      "y": 154,
      "size": 1,
      "price": "905000000000000000000",
      "reserved": "",
      "salt": "0xb2bcb6d9404e3ccf9d4888f29790ba43c49f483075a6b9c8c783dc177c279068",
      "assetIds": []
    },
    {
      "x": 24,
      "y": 154,
      "size": 1,
      "price": "905000000000000000000",
      "reserved": "",
      "salt": "0xa1f30fe22dbee033225682625faadaeb1f9c3fcdbfc44aa45cf55d5b8970e45b",
      "assetIds": []
    },
    {
      "x": 24,
      "y": 153,
      "size": 1,
      "price": "905000000000000000000",
      "reserved": "",
      "salt": "0x62eae4f7318cdb8e9931a72d93800b941b929df13e92f03f2b9ad657882f978c",
      "assetIds": []
    },
    {
      "x": 25,
      "y": 153,
      "size": 1,
      "price": "905000000000000000000",
      "reserved": "",
      "salt": "0x66a6c8b0229138b7a79e05e827db365280a0c3dad09c2eff8c233420d29ec6fe",
      "assetIds": []
    },
    {
      "x": 26,
      "y": 153,
      "size": 1,
      "price": "905000000000000000000",
      "reserved": "",
      "salt": "0xa2909bb3138743603e3318a7d15a93b349610583848e9b554f6134227daa0b9b",
      "assetIds": []
    },
    {
      "x": 27,
      "y": 153,
      "size": 1,
      "price": "905000000000000000000",
      "reserved": "",
      "salt": "0x1596b58ff928122954e8787308346e4db87bba4036d3efb4277bd3d45a36bc05",
      "assetIds": []
    },
    {
      "x": 27,
      "y": 152,
      "size": 1,
      "price": "905000000000000000000",
      "reserved": "",
      "salt": "0x08b37f02a8b16047425ede3d7f769147a53eae9fe1573ad33c727677aac5a080",
      "assetIds": []
    },
    {
      "x": 27,
      "y": 151,
      "size": 1,
      "price": "905000000000000000000",
      "reserved": "",
      "salt": "0xc4ca1d2c3d3ec3334d898a99bf04bd94c99b60a0f042758327315bb56abfe116",
      "assetIds": []
    },
    {
      "x": 27,
      "y": 150,
      "size": 1,
      "price": "905000000000000000000",
      "reserved": "",
      "salt": "0xff4fdf6ddcbb82d41f2461157031122c88daff3192c69ecc23629f4cfb608f85",
      "assetIds": []
    },
    {
      "x": 27,
      "y": 118,
      "size": 1,
      "price": "905000000000000000000",
      "reserved": "",
      "salt": "0xb304b24e44b47c406414717a7729223569a3981f6c2a721caa85ed968cec7b25",
      "assetIds": []
    },
    {
      "x": 0,
      "y": 143,
      "size": 1,
      "price": "905000000000000000000",
      "reserved": "",
      "salt": "0x124721433afb2a99549c56b85c90c95e95b26285da3e539944a78138397b13e1",
      "assetIds": []
    },
    {
      "x": 0,
      "y": 142,
      "size": 1,
      "price": "905000000000000000000",
      "reserved": "",
      "salt": "0x36baf63673007bc49ff6afee283f440a9c47f4a756a040c0f3587c6ca9523f4d",
      "assetIds": []
    },
    {
      "x": 0,
      "y": 141,
      "size": 1,
      "price": "905000000000000000000",
      "reserved": "",
      "salt": "0x9ccecde0c362748077978074bdbb96c511c4c00787cce254d178a89768c2b1c1",
      "assetIds": []
    },
    {
      "x": 0,
      "y": 140,
      "size": 1,
      "price": "905000000000000000000",
      "reserved": "",
      "salt": "0x40809e9d351b35bc6c4ca56f0591fb02f81c7cfe45662be8ea2925f4cb8117be",
      "assetIds": []
    },
    {
      "x": 0,
      "y": 139,
      "size": 1,
      "price": "905000000000000000000",
      "reserved": "",
      "salt": "0x1ee76a951cb570a3db88de6df6a19c6b4eaee608a03cf4728d4b42634c379410",
      "assetIds": []
    },
    {
      "x": 0,
      "y": 138,
      "size": 1,
      "price": "905000000000000000000",
      "reserved": "",
      "salt": "0xfde08ed2c0b2dbeb68cc17fb8d2ffb633a303d56c85f8c9a360c4411061ae898",
      "assetIds": []
    },
    {
      "x": 3,
      "y": 138,
      "size": 1,
      "price": "905000000000000000000",
      "reserved": "",
      "salt": "0x139f2d8a2a742e6a51d0905a59cda8aec36ebe0e6adc68d02fdd895dc464894f",
      "assetIds": []
    },
    {
      "x": 4,
      "y": 138,
      "size": 1,
      "price": "905000000000000000000",
      "reserved": "",
      "salt": "0xc83cb5ad9e7995f66b0270d46b4947c39095f8b1f1fb753c3d4c6e22586b590f",
      "assetIds": []
    },
    {
      "x": 4,
      "y": 139,
      "size": 1,
      "price": "905000000000000000000",
      "reserved": "",
      "salt": "0x0abf88ca77529f8d848f9d1b3573ab6d4a8410243bc4fd6c45ed0ca0be3a3d59",
      "assetIds": []
    },
    {
      "x": 5,
      "y": 139,
      "size": 1,
      "price": "905000000000000000000",
      "reserved": "",
      "salt": "0xe12e58077cb220022e072623b622383c2cdb841bfe7235eb0b456bcb750b3bbd",
      "assetIds": []
    },
    {
      "x": 5,
      "y": 140,
      "size": 1,
      "price": "905000000000000000000",
      "reserved": "",
      "salt": "0x9ae38c60ead7f99f515f9ca17a4cee82424cf1c324ef0ce14a80c0fc9d94d08d",
      "assetIds": []
    },
    {
      "x": 5,
      "y": 141,
      "size": 1,
      "price": "905000000000000000000",
      "reserved": "",
      "salt": "0x1a8100b25ceb80f63876ddd1489ed1f5408216ffc300dbf3614c0a3b5aba72e6",
      "assetIds": []
    },
    {
      "x": 5,
      "y": 142,
      "size": 1,
      "price": "905000000000000000000",
      "reserved": "",
      "salt": "0x8021d8dbfaaa5b2cda74084ce65b7742eaabf9c6755d4956d2ef43f835822492",
      "assetIds": []
    },
    {
      "x": 5,
      "y": 143,
      "size": 1,
      "price": "905000000000000000000",
      "reserved": "",
      "salt": "0x2b5af59e8640991135535a8ed51927c06ee475bcf78844469dc4d9f372d54d39",
      "assetIds": []
    },
    {
      "x": 4,
      "y": 143,
      "size": 1,
      "price": "905000000000000000000",
      "reserved": "",
      "salt": "0x4f6a4b30e313ae80ed588d171c7775d855a721c4f893b1e85a97aa88ba944134",
      "assetIds": []
    },
    {
      "x": 3,
      "y": 143,
      "size": 1,
      "price": "905000000000000000000",
      "reserved": "",
      "salt": "0xdb32e2778ceceaf7b66f8c1cc74cb11820889c495b1b2754a4ea53de2936ff78",
      "assetIds": []
    },
    {
      "x": 2,
      "y": 143,
      "size": 1,
      "price": "905000000000000000000",
      "reserved": "",
      "salt": "0x02f7a313951367cb6118fa7d40971779fa5a2572c4e2b6be5a1b841f932c1b99",
      "assetIds": []
    },
    {
      "x": 1,
      "y": 143,
      "size": 1,
      "price": "905000000000000000000",
      "reserved": "",
      "salt": "0x8645fa0b8099f3e9bfdd572d3332d7fc1303e55af33a886cc2eebf6b5c0477cc",
      "assetIds": []
    },
    {
      "x": 1,
      "y": 139,
      "size": 1,
      "price": "905000000000000000000",
      "reserved": "",
      "salt": "0x0f2d5b84d400aa0cf407b67220e41cc58af658b9701fa66338a6cfada409b994",
      "assetIds": []
    },
    {
      "x": 2,
      "y": 138,
      "size": 1,
      "price": "905000000000000000000",
      "reserved": "",
      "salt": "0x7d426c964c478e1dfe55e34b0539fd5ed408e88ab6f9399aeecf9404da99fdf8",
      "assetIds": []
    },
    {
      "x": 5,
      "y": 138,
      "size": 1,
      "price": "905000000000000000000",
      "reserved": "",
      "salt": "0xae39927a841efb7b371c9f69207d7963fe0aa6b60251f8d1fa7d0022fb15b0eb",
      "assetIds": []
    },
    {
      "x": 1,
      "y": 138,
      "size": 1,
      "price": "905000000000000000000",
      "reserved": "",
      "salt": "0x8114370aca37de8c2b5b4298647adca72065dc15a0fc39e489eb18044a9a7455",
      "assetIds": []
    },
    {
      "x": 2,
      "y": 139,
      "size": 1,
      "price": "905000000000000000000",
      "reserved": "",
      "salt": "0x2f9b207a80cfaf3c442049b4c8ab81a35472912817022703d96688013bc0fb32",
      "assetIds": []
    },
    {
      "x": 2,
      "y": 140,
      "size": 1,
      "price": "905000000000000000000",
      "reserved": "",
      "salt": "0xe17890b7362596f8e4faf7bd32d9c000ee751fbcfe450d3bf17a47394ba2dd8d",
      "assetIds": []
    },
    {
      "x": 3,
      "y": 140,
      "size": 1,
      "price": "905000000000000000000",
      "reserved": "",
      "salt": "0xcd134cec5afa6162934a2c1bbba17e7a5edc90e958f6f2257a5640bddf68d1af",
      "assetIds": []
    },
    {
      "x": 3,
      "y": 141,
      "size": 1,
      "price": "905000000000000000000",
      "reserved": "",
      "salt": "0x467d788e2c0c83354a03c02709f30e96f11d416067adfd1dbd900dc44f955ca5",
      "assetIds": []
    },
    {
      "x": 3,
      "y": 142,
      "size": 1,
      "price": "905000000000000000000",
      "reserved": "",
      "salt": "0x5737571b5b75136d66f235bbfb8ba27b56fb3c4be4cbfb1f3a3687a6215b7470",
      "assetIds": []
    },
    {
      "x": 4,
      "y": 142,
      "size": 1,
      "price": "905000000000000000000",
      "reserved": "",
      "salt": "0xeae744d22e77a36281aa87e1a9b0836a987ae8f532e9bf1c0c29eddfc48c5e1b",
      "assetIds": []
    },
    {
      "x": 4,
      "y": 141,
      "size": 1,
      "price": "905000000000000000000",
      "reserved": "",
      "salt": "0xb297f0379ba8f69460094747cf1298765799784678ae366404fb40fbc40fe60f",
      "assetIds": []
    },
    {
      "x": 4,
      "y": 140,
      "size": 1,
      "price": "905000000000000000000",
      "reserved": "",
      "salt": "0x37ef615bff4a5e633d85ecb111bdea088d283c813142c60cb08d066c3db10fb5",
      "assetIds": []
    },
    {
      "x": 3,
      "y": 139,
      "size": 1,
      "price": "905000000000000000000",
      "reserved": "",
      "salt": "0x049151b2169efa15a6e44f800e252ce9a0e6d1f5e117af2b29294ad53517ad39",
      "assetIds": []
    },
    {
      "x": 2,
      "y": 142,
      "size": 1,
      "price": "905000000000000000000",
      "reserved": "",
      "salt": "0x605d4f3a3e9f07245671466bd1ed46aaf39ee72052aa63ce96768ab1e1d924af",
      "assetIds": []
    },
    {
      "x": 1,
      "y": 141,
      "size": 1,
      "price": "905000000000000000000",
      "reserved": "",
      "salt": "0x8d081d9416c9b89300ba25c10e319322a38fd89ade13fbd9b988081b5b826cb1",
      "assetIds": []
    },
    {
      "x": 1,
      "y": 140,
      "size": 1,
      "price": "905000000000000000000",
      "reserved": "",
      "salt": "0xeb286355edd939b90071ca839fb0b8684c627391cd8d6a19bce5f41afcfd2c06",
      "assetIds": []
    },
    {
      "x": 1,
      "y": 142,
      "size": 1,
      "price": "905000000000000000000",
      "reserved": "",
      "salt": "0x38379899e4d11f7d654e041a53ffafd2a5cc07b3056f1175166f3ec0488fe35a",
      "assetIds": []
    },
    {
      "x": 2,
      "y": 141,
      "size": 1,
      "price": "905000000000000000000",
      "reserved": "",
      "salt": "0xa7585e8e98837799d57305a2cff99b94ffce31ae155677f98758cb4ae3f6abeb",
      "assetIds": []
    },
    {
      "x": 0,
      "y": 192,
      "size": 24,
      "price": "419302000000000000000000",
      "reserved": "0x7a9fe22691c811ea339d9b73150e6911a5343dca",
      "salt": "0xd2c77e289dc56c6e55f9033a3138df589f52ea24ddbf8c3012516d274b19fcd2",
      "assetIds": []
    },
    {
      "x": 0,
      "y": 96,
      "size": 24,
      "price": "419302000000000000000000",
      "reserved": "0x7a9fe22691c811ea339d9b73150e6911a5343dca",
      "salt": "0x8c8e37054c0e1c9a1dfd980b9d7edf2742076ed8dc89c19f3009827e23fc1ae3",
      "assetIds": []
    },
    {
      "x": 0,
      "y": 144,
      "size": 24,
      "price": "419302000000000000000000",
      "reserved": "",
      "salt": "0xdfe248d2e33fb75a9dce81463b5083c515e253aad93bdede3a48650ddea30cbc",
      "assetIds": []
    },
    {
      "x": 12,
      "y": 180,
      "size": 12,
      "price": "111381000000000000000000",
      "reserved": "0x7a9fe22691c811ea339d9b73150e6911a5343dca",
      "salt": "0x60f3e68cd4d8dd631d1068b726cc711fd4d307d241daf9e96537a860bd7d6591",
      "assetIds": []
    },
    {
      "x": 24,
      "y": 156,
      "size": 12,
      "price": "111381000000000000000000",
      "reserved": "0x7a9fe22691c811ea339d9b73150e6911a5343dca",
      "salt": "0x5f445fada193949fca259a3943dca7059f64cd7a53a5ed3655a782ef99a938eb",
      "assetIds": []
    },
    {
      "x": 12,
      "y": 132,
      "size": 12,
      "price": "111381000000000000000000",
      "reserved": "0x7a9fe22691c811ea339d9b73150e6911a5343dca",
      "salt": "0x1588f3a97979814df11110ae451f024f4c5f8f965755d2c335b4ba822c32c71a",
      "assetIds": []
    },
    {
      "x": 24,
      "y": 96,
      "size": 12,
      "price": "111381000000000000000000",
      "reserved": "",
      "salt": "0x3727eb1fae420c72b1b37d6099a5e0fb665fbf92ffc641f0f36491910e6b66f2",
      "assetIds": []
    },
    {
      "x": 0,
      "y": 120,
      "size": 12,
      "price": "111381000000000000000000",
      "reserved": "",
      "salt": "0x57fee73129e157a030c94fcc8a13b4312df8b29613b0c740e40107090b5a9497",
      "assetIds": []
    },
    {
      "x": 12,
      "y": 174,
      "size": 6,
      "price": "29487000000000000000000",
      "reserved": "",
      "salt": "0x3e55038d67f3b54ddf902fa9d0da636fe8c33bba8a0df4e3cc29eb7150981cfe",
      "assetIds": []
    },
    {
      "x": 30,
      "y": 174,
      "size": 6,
      "price": "29487000000000000000000",
      "reserved": "",
      "salt": "0x63210e9f1062ad79703a44eda31ce70625068af13abd5ea6d11f1d38df298367",
      "assetIds": []
    },
    {
      "x": 6,
      "y": 138,
      "size": 6,
      "price": "29487000000000000000000",
      "reserved": "",
      "salt": "0xd870c5ccd78814a5452dd2992486432ef8bcfee5124d6b4632050ceea8c89439",
      "assetIds": []
    },
    {
      "x": 6,
      "y": 132,
      "size": 6,
      "price": "29487000000000000000000",
      "reserved": "",
      "salt": "0x90d1e1eb0e1b5b901c947640c5b18107baf71e443b2184a7eadab3467a01c637",
      "assetIds": []
    },
    {
      "x": 0,
      "y": 132,
      "size": 6,
      "price": "29487000000000000000000",
      "reserved": "",
      "salt": "0x851d169f3a4a94a3329c4187f461913e31cf21b513802223273923aaf86b8ab2",
      "assetIds": []
    },
    {
      "x": 12,
      "y": 120,
      "size": 6,
      "price": "29487000000000000000000",
      "reserved": "",
      "salt": "0x824b9e50d412decb8ca0c3891beaa3ff8d4fb31c03fe9e268dad1c82c20e38e0",
      "assetIds": []
    },
    {
      "x": 18,
      "y": 126,
      "size": 6,
      "price": "29487000000000000000000",
      "reserved": "",
      "salt": "0x99779113a75359498fc97b8849798a045de4d00232ab9d74f02ce2be2cc1b060",
      "assetIds": []
    },
    {
      "x": 24,
      "y": 90,
      "size": 6,
      "price": "29487000000000000000000",
      "reserved": "",
      "salt": "0x0f89fc92cd0f105b95e55cc27a1d5b1041f766adfc82ca1000dc6d2029e54aa4",
      "assetIds": []
    },
    {
      "x": 24,
      "y": 84,
      "size": 6,
      "price": "29487000000000000000000",
      "reserved": "",
      "salt": "0x5c46cb1a880b650517d267033d2dfb9c894c21eb9629281b0fc35934eec0910f",
      "assetIds": []
    },
    {
      "x": 18,
      "y": 84,
      "size": 6,
      "price": "29487000000000000000000",
      "reserved": "",
      "salt": "0x841340b00a4e1f1e077b539ae910c4164517172c6c22def170918f510472d020",
      "assetIds": []
    },
    {
      "x": 24,
      "y": 168,
      "size": 6,
      "price": "29487000000000000000000",
      "reserved": "0x7a9fe22691c811ea339d9b73150e6911a5343dca",
      "salt": "0x038f5b5de8be79d51bd49a19b6da035a8dd9965dbee464618447f4efe0f3cedd",
      "assetIds": []
    },
    {
      "x": 30,
      "y": 186,
      "size": 6,
      "price": "29487000000000000000000",
      "reserved": "0x7a9fe22691c811ea339d9b73150e6911a5343dca",
      "salt": "0x36842e3f6989287187a0f062ebc919adae54e9efa1a3c75f083225c0bbe72a7b",
      "assetIds": []
    },
    {
      "x": 30,
      "y": 150,
      "size": 6,
      "price": "29487000000000000000000",
      "reserved": "0x7a9fe22691c811ea339d9b73150e6911a5343dca",
      "salt": "0x5075e8ecd736e39305d71b523b72342da1ba9859f5fe4f85002a35ff9e51fc43",
      "assetIds": []
    },
    {
      "x": 3,
      "y": 177,
      "size": 3,
      "price": "7772000000000000000000",
      "reserved": "",
      "salt": "0x45f7b2d230450e92fd5caffc0859fd7d5713701d1b04bcb02bc5bc724b973a72",
      "assetIds": []
    },
    {
      "x": 24,
      "y": 150,
      "size": 3,
      "price": "7772000000000000000000",
      "reserved": "",
      "salt": "0x2c7d2c4b92b5e52072faf268c2fcb7cafbb598486da0484a2a4fedee868fd5e5",
      "assetIds": []
    },
    {
      "x": 12,
      "y": 129,
      "size": 3,
      "price": "7772000000000000000000",
      "reserved": "",
      "salt": "0x9170522ab15ea6e61881e8637b9bb35107e0e5f37690b17c84ef25600f1a651e",
      "assetIds": []
    },
    {
      "x": 15,
      "y": 126,
      "size": 3,
      "price": "7772000000000000000000",
      "reserved": "",
      "salt": "0x6359cb0deb30ac8af91c4064b5dcecd692740b4362b4d121b7002efa7465ea46",
      "assetIds": []
    },
    {
      "x": 24,
      "y": 114,
      "size": 3,
      "price": "7772000000000000000000",
      "reserved": "",
      "salt": "0x26fe4d4e53769278790c91a576b6b9e1c32035e0f0d28f561ff8cfe11b14250a",
      "assetIds": []
    },
    {
      "x": 33,
      "y": 87,
      "size": 3,
      "price": "7772000000000000000000",
      "reserved": "",
      "salt": "0x772737bd96f70baf0b1396397813125aaaa9a548b7f2287e54b8a1782d1e8401",
      "assetIds": []
    }
  ],
  "solcInputHash": "a4de1e9cf87be8a7daa33c15e9438e26",
  "bytecode": "0x610160604052620d2f006005556103e860075534801561001e57600080fd5b5060405161242e38038061242e833981810160405261018081101561004257600080fd5b50805160208201516040830151606080850151608086015160a08088015160c0808a015160e08b01516101008c01516101208d01516101408e0151610160909e0151600280546001600160a01b0319166001600160a01b03861617905560038390558d8b1b6001600160601b0319908116909852998c901b909616909352999a9899979895979496929590949391926100dc8a600161014a565b600680546001600160a01b03199081166001600160a01b039a8b1617909155610140979097526101209590955260008054909616979096169690961790935550606093841b6001600160601b031990811660e05292841b831660805290921b1661010052506101ae92505050565b6001600160a01b038216600081815260016020908152604091829020805460ff191685151590811790915582519384529083015280517fb21eb88b4e33b3f1281830a7178d74d8aa73220416215726b68ae23d539515cb9281900390910190a15050565b60805160601c60a05160601c60c05160601c60e05160601c6101005160601c61012051610140516121fb610233600039806109375280611d44525080610913528061139a525080611da45250806115d252806116f4525080610c50528061159c5280611dd852508061166152806116c5525080610dfa528061190852506121fb6000f3fe608060405234801561001057600080fd5b50600436106101515760003560e01c8063984d6252116100cd578063dc5074af11610081578063ecb255b511610066578063ecb255b514610857578063f23a6e6114610874578063f2e7b3811461090957610151565b8063dc5074af14610814578063e56f8a9e1461083a57610151565b8063bc197c81116100b2578063bc197c81146105d3578063c10a420814610735578063caed35001461080c57610151565b8063984d6252146104db578063b522ecff146105ad57610151565b80636e9960c3116101245780638a04af6a116101095780638a04af6a1461032a5780638a12b82f146103585780638f283970146104b557610151565b80636e9960c3146102fe57806377f1c3ac1461032257610151565b806325cb5bc014610156578063495906571461017057806358bc29441461017857806365194ce7146101a0575b600080fd5b61015e610911565b60408051918252519081900360200190f35b61015e610935565b61019e6004803603602081101561018e57600080fd5b50356001600160a01b0316610959565b005b610246600480360360208110156101b657600080fd5b8101906020810181356401000000008111156101d157600080fd5b8201836020820111156101e357600080fd5b8035906020019184600183028401116401000000008311171561020557600080fd5b91908080601f016020809104026020016040519081016040528093929190818152602001838380828437600092019190915250929550610a04945050505050565b6040518080602001866001600160a01b03166001600160a01b03168152602001856001600160a01b03166001600160a01b03168152602001848152602001838152602001828103825287818151815260200191508051906020019080838360005b838110156102bf5781810151838201526020016102a7565b50505050905090810190601f1680156102ec5780820380516001836020036101000a031916815260200191505b50965050505050505060405180910390f35b610306610b09565b604080516001600160a01b039092168252519081900360200190f35b61015e610b18565b61019e6004803603604081101561034057600080fd5b506001600160a01b0381351690602001351515610b1e565b61019e600480360361018081101561036f57600080fd5b6001600160a01b038235811692602081013582169260408201359092169160608201359160808101359160a08201359160c08101359160e0820135916101008101359181019061014081016101208201356401000000008111156103d257600080fd5b8201836020820111156103e457600080fd5b8035906020019184602083028401116401000000008311171561040657600080fd5b91939092909160208101903564010000000081111561042457600080fd5b82018360208201111561043657600080fd5b8035906020019184602083028401116401000000008311171561045857600080fd5b91939092909160208101903564010000000081111561047657600080fd5b82018360208201111561048857600080fd5b803590602001918460018302840111640100000000831117156104aa57600080fd5b509092509050610b75565b61019e600480360360208110156104cb57600080fd5b50356001600160a01b0316610cc3565b61019e600480360360608110156104f157600080fd5b6001600160a01b03823516919081019060408101602082013564010000000081111561051c57600080fd5b82018360208201111561052e57600080fd5b8035906020019184602083028401116401000000008311171561055057600080fd5b91939092909160208101903564010000000081111561056e57600080fd5b82018360208201111561058057600080fd5b803590602001918460208302840111640100000000831117156105a257600080fd5b509092509050610d99565b61019e600480360360208110156105c357600080fd5b50356001600160a01b0316610f24565b610700600480360360a08110156105e957600080fd5b6001600160a01b03823581169260208101359091169181019060608101604082013564010000000081111561061d57600080fd5b82018360208201111561062f57600080fd5b8035906020019184602083028401116401000000008311171561065157600080fd5b91939092909160208101903564010000000081111561066f57600080fd5b82018360208201111561068157600080fd5b803590602001918460208302840111640100000000831117156106a357600080fd5b9193909290916020810190356401000000008111156106c157600080fd5b8201836020820111156106d357600080fd5b803590602001918460018302840111640100000000831117156106f557600080fd5b50909250905061100d565b604080517fffffffff000000000000000000000000000000000000000000000000000000009092168252519081900360200190f35b6107f8600480360360a081101561074b57600080fd5b81019060208101813564010000000081111561076657600080fd5b82018360208201111561077857600080fd5b8035906020019184600183028401116401000000008311171561079a57600080fd5b91908080601f016020809104026020016040519081016040528093929190818152602001838380828437600092019190915250929550506001600160a01b03833581169450602084013516926040810135925060600135905061103a565b604080519115158252519081900360200190f35b610306611176565b6107f86004803603602081101561082a57600080fd5b50356001600160a01b0316611185565b61019e6004803603602081101561085057600080fd5b50356111a3565b61019e6004803603602081101561086d57600080fd5b5035611207565b610700600480360360a081101561088a57600080fd5b6001600160a01b03823581169260208101359091169160408201359160608101359181019060a0810160808201356401000000008111156108ca57600080fd5b8201836020820111156108dc57600080fd5b803590602001918460018302840111640100000000831117156108fe57600080fd5b50909250905061126b565b61015e611296565b7f000000000000000000000000000000000000000000000000000000000000000090565b7f000000000000000000000000000000000000000000000000000000000000000090565b6000546001600160a01b031633146109b8576040805162461bcd60e51b815260206004820152601060248201527f53656e646572206e6f742061646d696e00000000000000000000000000000000604482015290519081900360640190fd5b600554600280546001600160a01b03908116600090815260046020526040902042909301909255805473ffffffffffffffffffffffffffffffffffffffff191692909116919091179055565b606060008060008060606000806000808a80602001905160a0811015610a2957600080fd5b8101908080516040519392919084640100000000821115610a4957600080fd5b908301906020820185811115610a5e57600080fd5b8251640100000000811182820188101715610a7857600080fd5b82525081516020918201929091019080838360005b83811015610aa5578181015183820152602001610a8d565b50505050905090810190601f168015610ad25780820380516001836020036101000a031916815260200191505b5060409081526020820151908201516060830151608090930151959f50909d509b5099509197505050505050505091939590929450565b6000546001600160a01b031690565b60035490565b6000546001600160a01b03163314610b675760405162461bcd60e51b815260040180806020018281038252602e815260200180612198602e913960400191505060405180910390fd5b610b71828261129c565b5050565b610b7f898961131e565b610c048f8e8e8e8e8e8d8d8d80806020026020016040519081016040528093929190818152602001838360200280828437600081840152601f19601f820116905080830192505050505050508c8c8080602002602001604051908101604052809392919081815260200183836020028082843760009201919091525061139892505050565b610c458f8984848080601f01602080910402602001604051908101604052809392919081815260200183838082843760009201919091525061157592505050565b610c758f8f8e8e8e8d7f00000000000000000000000000000000000000000000000000000000000000008f6115c6565b610cb28e87878080602002602001604051908101604052809392919081815260200183836020028082843760009201919091525061189192505050565b505050505050505050505050505050565b6000546001600160a01b03163314610d22576040805162461bcd60e51b815260206004820152601b60248201527f6f6e6c792061646d696e2063616e206368616e67652061646d696e0000000000604482015290519081900360640190fd5b600054604080516001600160a01b039283168152918316602083015280517f7e644d79422f17c01e4894b5f4f588d331ebfa28653d42ae832dc59e38c9798f9281900390910190a16000805473ffffffffffffffffffffffffffffffffffffffff19166001600160a01b0392909216919091179055565b6000546001600160a01b03163314610df8576040805162461bcd60e51b815260206004820152600e60248201527f4e4f545f415554484f52495a4544000000000000000000000000000000000000604482015290519081900360640190fd5b7f00000000000000000000000000000000000000000000000000000000000000006001600160a01b0316632eb2c2d63087878787876040518763ffffffff1660e01b815260040180876001600160a01b03166001600160a01b03168152602001866001600160a01b03166001600160a01b031681526020018060200180602001806020018481038452888882818152602001925060200280828437600083820152601f01601f19169091018581038452868152602090810191508790870280828437600081840152601f19601f8201169050808301925050508481038252600081526020016020019950505050505050505050600060405180830381600087803b158015610f0557600080fd5b505af1158015610f19573d6000803e3d6000fd5b505050505050505050565b6001600160a01b038116610f7f576040805162461bcd60e51b815260206004820152600c60248201527f5a45524f5f414444524553530000000000000000000000000000000000000000604482015290519081900360640190fd5b6000546001600160a01b03163314610fde576040805162461bcd60e51b815260206004820152600e60248201527f4e4f545f415554484f52495a4544000000000000000000000000000000000000604482015290519081900360640190fd5b6006805473ffffffffffffffffffffffffffffffffffffffff19166001600160a01b0392909216919091179055565b7fbc197c810000000000000000000000000000000000000000000000000000000098975050505050505050565b600060035482118061105d5750836001600160a01b0316856001600160a01b0316145b8061106757508242115b156110745750600061116d565b60408051606087811b7fffffffffffffffffffffffffffffffffffffffff0000000000000000000000009081166020808501919091529188901b166034830152604882018690526068808301869052835180840390910181526088830184528051908201207f19457468657265756d205369676e6564204d6573736167653a0a33320000000060a884015260c48084018290528451808503909101815260e4909301909352815191012060009061112b9089611a55565b6001600160a01b03811660009081526004602052604090205490915042116111585760019250505061116d565b6002546001600160a01b039081169116149150505b95945050505050565b6002546001600160a01b031690565b6001600160a01b031660009081526001602052604090205460ff1690565b6000546001600160a01b03163314611202576040805162461bcd60e51b815260206004820152601060248201527f53656e646572206e6f742061646d696e00000000000000000000000000000000604482015290519081900360640190fd5b600355565b6000546001600160a01b03163314611266576040805162461bcd60e51b815260206004820152600e60248201527f4e4f545f415554484f52495a4544000000000000000000000000000000000000604482015290519081900360640190fd5b600755565b7ff23a6e61000000000000000000000000000000000000000000000000000000009695505050505050565b60075490565b6001600160a01b03821660008181526001602090815260409182902080547fffffffffffffffffffffffffffffffffffffffffffffffffffffffffffffff001685151590811790915582519384529083015280517fb21eb88b4e33b3f1281830a7178d74d8aa73220416215726b68ae23d539515cb9281900390910190a15050565b6113456103e861133960075485611b2290919063ffffffff16565b9063ffffffff611b9816565b8114610b71576040805162461bcd60e51b815260206004820152600d60248201527f494e56414c49445f505249434500000000000000000000000000000000000000604482015290519081900360640190fd5b7f0000000000000000000000000000000000000000000000000000000000000000421061140c576040805162461bcd60e51b815260206004820152600c60248201527f53414c455f49535f4f5645520000000000000000000000000000000000000000604482015290519081900360640190fd5b6001600160a01b03891633148061143257503360009081526001602052604090205460ff165b611483576040805162461bcd60e51b815260206004820152600e60248201527f4e4f545f415554484f52495a4544000000000000000000000000000000000000604482015290519081900360640190fd5b6001600160a01b03881615806114aa5750886001600160a01b0316886001600160a01b0316145b6114fb576040805162461bcd60e51b815260206004820152600d60248201527f52455345525645445f4c414e4400000000000000000000000000000000000000604482015290519081900360640190fd5b600061150c888888888d8989611bfd565b90506115188282611ca2565b611569576040805162461bcd60e51b815260206004820152600c60248201527f494e56414c49445f4c414e440000000000000000000000000000000000000000604482015290519081900360640190fd5b50505050505050505050565b60006115818484611d6b565b6006549091506115c0908590839085906001600160a01b03167f0000000000000000000000000000000000000000000000000000000000000000611eb8565b50505050565b83600114806115fc57507f00000000000000000000000000000000000000000000000000000000000000006001600160a01b0316155b156116c357604080517f6e1e3bbf0000000000000000000000000000000000000000000000000000000081526001600160a01b03898116600483015260248201879052604482018990526064820188905260a06084830152600060a4830181905292517f000000000000000000000000000000000000000000000000000000000000000090911692636e1e3bbf9260e4808201939182900301818387803b1580156116a657600080fd5b505af11580156116ba573d6000803e3d6000fd5b50505050611827565b7f00000000000000000000000000000000000000000000000000000000000000006001600160a01b0316636e1e3bbf7f00000000000000000000000000000000000000000000000000000000000000008689898c60405160200180826001600160a01b03166001600160a01b031681526020019150506040516020818303038152906040526040518663ffffffff1660e01b815260040180866001600160a01b03166001600160a01b0316815260200185815260200184815260200183815260200180602001828103825283818151815260200191508051906020019080838360005b838110156117be5781810151838201526020016117a6565b50505050905090810190601f1680156117eb5780820380516001836020036101000a031916815260200191505b509650505050505050600060405180830381600087803b15801561180e57600080fd5b505af1158015611822573d6000803e3d6000fd5b505050505b60408051858152602081018590526001600160a01b03848116828401526060820184905291516101988802890192808b1692908c16917fe4dfa6ac11314892f3029b34a25b1a887da3b1cab2bbf8506d87128ba6e3ac029181900360800190a45050505050505050565b6060815167ffffffffffffffff811180156118ab57600080fd5b506040519080825280602002602001820160405280156118d5578160200160208202803683370190505b50905060005b82518110156119055760018282815181106118f257fe5b60209081029190910101526001016118db565b507f00000000000000000000000000000000000000000000000000000000000000006001600160a01b0316632eb2c2d6308585856040518563ffffffff1660e01b815260040180856001600160a01b03166001600160a01b03168152602001846001600160a01b03166001600160a01b03168152602001806020018060200180602001848103845286818151815260200191508051906020019060200280838360005b838110156119c05781810151838201526020016119a8565b50505050905001848103835285818151815260200191508051906020019060200280838360005b838110156119ff5781810151838201526020016119e7565b50505050905001848103825260008152602001602001975050505050505050600060405180830381600087803b158015611a3857600080fd5b505af1158015611a4c573d6000803e3d6000fd5b50505050505050565b60008151604114611a6557600080fd5b60208201516040830151606084015160001a601b811015611a8457601b015b8060ff16601b1480611a9957508060ff16601c145b611aa257600080fd5b6040805160008152602080820180845289905260ff8416828401526060820186905260808201859052915160019260a0808401939192601f1981019281900390910190855afa158015611af9573d6000803e3d6000fd5b5050604051601f1901519450506001600160a01b038416611b1957600080fd5b50505092915050565b600082611b3157506000611b92565b5081810281838281611b3f57fe5b0414611b92576040805162461bcd60e51b815260206004820152600860248201527f6f766572666c6f77000000000000000000000000000000000000000000000000604482015290519081900360640190fd5b92915050565b600081611bec576040805162461bcd60e51b815260206004820152600960248201527f64697662797a65726f0000000000000000000000000000000000000000000000604482015290519081900360640190fd5b818381611bf557fe5b049392505050565b60008787878787878760405160200180888152602001878152602001868152602001858152602001846001600160a01b03166001600160a01b031660601b8152601401838152602001828051906020019060200280838360005b83811015611c6f578181015183820152602001611c57565b50505050905001975050505050505050604051602081830303815290604052805190602001209050979650505050505050565b600081815b8451811015611d41576000858281518110611cbe57fe5b6020026020010151905080831015611d065782816040516020018083815260200182815260200192505050604051602081830303815290604052805190602001209250611d38565b808360405160200180838152602001828152602001925050506040516020818303038152906040528051906020012092505b50600101611ca7565b507f0000000000000000000000000000000000000000000000000000000000000000149392505050565b600080611d84606461133985600563ffffffff611b2216565b604080516323b872dd60e01b81526001600160a01b0387811660048301527f0000000000000000000000000000000000000000000000000000000000000000811660248301526044820184905291519293507f0000000000000000000000000000000000000000000000000000000000000000909116916323b872dd916064808201926020929091908290030181600087803b158015611e2357600080fd5b505af1158015611e37573d6000803e3d6000fd5b505050506040513d6020811015611e4d57600080fd5b5051611ea0576040805162461bcd60e51b815260206004820152601360248201527f4645455f5452414e534645525f4641494c454400000000000000000000000000604482015290519081900360640190fd5b611eb0838263ffffffff61213a16565b949350505050565b82518190859015612062576060600080600080611ed48a610a04565b9398509196509450925090506000611eef868686868661103a565b15611f7d57611f09611f018d84611b22565b612710611b98565b9050886001600160a01b0316846001600160a01b0316866001600160a01b03167fac7a699eb95c3c6d390ec4626de17ef9a67b35891efdb197beba7c7fdd45fac48f858760405180848152602001838152602001828152602001935050505060405180910390a4611f7a878261213a565b96505b801561205b57604080516323b872dd60e01b81526001600160a01b038f811660048301528781166024830152604482018490529151918a16916323b872dd916064808201926020929091908290030181600087803b158015611fde57600080fd5b505af1158015611ff2573d6000803e3d6000fd5b505050506040513d602081101561200857600080fd5b505161205b576040805162461bcd60e51b815260206004820152601960248201527f636f6d6d6973696f6e207472616e73666572206661696c656400000000000000604482015290519081900360640190fd5b5050505050505b604080516323b872dd60e01b81526001600160a01b0389811660048301528681166024830152604482018490529151918416916323b872dd916064808201926020929091908290030181600087803b1580156120bd57600080fd5b505af11580156120d1573d6000803e3d6000fd5b505050506040513d60208110156120e757600080fd5b5051611a4c576040805162461bcd60e51b815260206004820152601760248201527f7061796d656e74207472616e73666572206661696c6564000000000000000000604482015290519081900360640190fd5b600082821115612191576040805162461bcd60e51b815260206004820152600860248201527f756e6465666c6f77000000000000000000000000000000000000000000000000604482015290519081900360640190fd5b5090039056fe6f6e6c792061646d696e2063616e207365747570206d6574615472616e73616374696f6e50726f636573736f7273a26469706673582212200ff38c5741c66b2a22a9a9ee2abe0f55626323082b6b4443921fd3b25484584a64736f6c63430006050033",
  "devdoc": {
    "methods": {
      "buyLandWithSand(address,address,address,uint256,uint256,uint256,uint256,uint256,bytes32,uint256[],bytes32[],bytes)": {
        "params": {
          "buyer": "address that perform the payment",
          "priceInSand": "price in SAND to purchase that Land",
          "proof": "merkleProof for that particular Land",
          "reserved": "the reserved address (if any)",
          "size": "size of the pack of Land to purchase",
          "to": "address that will own the purchased Land",
          "x": "x coordinate of the Land",
          "y": "y coordinate of the Land"
        }
      },
      "changeAdmin(address)": {
        "details": "change the administrator to be `newAdmin`.",
        "params": {
          "newAdmin": "address of the new administrator."
        }
      },
      "getAdmin()": {
        "details": "gives the current administrator of this contract.",
        "returns": {
          "_0": "the current administrator of this contract."
        }
      },
      "getSigningWallet()": {
        "details": "signing wallet authorized for referral",
        "returns": {
          "_0": "the address of the signing wallet"
        }
      },
      "isMetaTransactionProcessor(address)": {
        "details": "check whether address `who` is given meta-transaction execution rights.",
        "params": {
          "who": "The address to query."
        },
        "returns": {
          "_0": "whether the address has meta-transaction execution rights."
        }
      },
      "isReferralValid(bytes,address,address,uint256,uint256)": {
        "params": {
          "commissionRate": "The commissionRate of the referral",
          "expiryTime": "The expiry time of the referral",
          "referee": "The address of the referee",
          "referrer": "The address of the referrer",
          "signature": "The signature to check (signed referral)"
        },
        "returns": {
          "_0": "True if the referral is valid"
        }
      },
      "setMetaTransactionProcessor(address,bool)": {
        "details": "Enable or disable the ability of `metaTransactionProcessor` to perform meta-tx (metaTransactionProcessor rights).",
        "params": {
          "enabled": "set whether the metaTransactionProcessor is enabled or disabled.",
          "metaTransactionProcessor": "address that will be given/removed metaTransactionProcessor rights."
        }
      },
      "setReceivingWallet(address)": {
        "params": {
          "newWallet": "address of the new receiving wallet"
        }
      },
      "updateMaxCommissionRate(uint256)": {
        "details": "Update the maximum commission rate",
        "params": {
          "newMaxCommissionRate": "The new maximum commission rate"
        }
      },
      "updateSigningWallet(address)": {
        "details": "Update the signing wallet",
        "params": {
          "newSigningWallet": "The new address of the signing wallet"
        }
      },
      "withdrawAssets(address,uint256[],uint256[])": {
        "params": {
          "assetIds": "the assetIds to be transferred",
          "to": "intended recipient of the asset tokens",
          "values": "the quantities of the assetIds to be transferred"
        }
      }
    },
    "title": "Estate Sale contract with referral"
  },
  "userdoc": {
    "methods": {
      "buyLandWithSand(address,address,address,uint256,uint256,uint256,uint256,uint256,bytes32,uint256[],bytes32[],bytes)": {
        "notice": "buy Land with SAND using the merkle proof associated with it"
      },
      "getExpiryTime()": {
        "notice": "Gets the expiry time for the current sale"
      },
      "getMaxCommisionRate()": {
        "notice": "the max commision rate"
      },
      "getMerkleRoot()": {
        "notice": "Gets the Merkle root associated with the current sale"
      },
      "isReferralValid(bytes,address,address,uint256,uint256)": {
        "notice": "Check if a referral is valid"
      },
      "setReceivingWallet(address)": {
        "notice": "set the wallet receiving the proceeds"
      },
      "withdrawAssets(address,uint256[],uint256[])": {
        "notice": "enable Admin to withdraw remaining assets from EstateSaleWithFee contract"
      }
    },
    "notice": "This contract manages the sale of our lands as Estates"
  },
  "storageLayout": {
    "storage": [
      {
        "astId": 15353,
        "contract": "src/solc_0.6/EstateSale/EstateSaleWithFee.sol:EstateSaleWithFee",
        "label": "_admin",
        "offset": 0,
        "slot": "0",
        "type": "t_address"
      },
      {
        "astId": 15415,
        "contract": "src/solc_0.6/EstateSale/EstateSaleWithFee.sol:EstateSaleWithFee",
        "label": "_metaTransactionContracts",
        "offset": 0,
        "slot": "1",
        "type": "t_mapping(t_address,t_bool)"
      },
      {
        "astId": 13531,
        "contract": "src/solc_0.6/EstateSale/EstateSaleWithFee.sol:EstateSaleWithFee",
        "label": "_signingWallet",
        "offset": 0,
        "slot": "2",
        "type": "t_address"
      },
      {
        "astId": 13533,
        "contract": "src/solc_0.6/EstateSale/EstateSaleWithFee.sol:EstateSaleWithFee",
        "label": "_maxCommissionRate",
        "offset": 0,
        "slot": "3",
        "type": "t_uint256"
      },
      {
        "astId": 13537,
        "contract": "src/solc_0.6/EstateSale/EstateSaleWithFee.sol:EstateSaleWithFee",
        "label": "_previousSigningWallets",
        "offset": 0,
        "slot": "4",
        "type": "t_mapping(t_address,t_uint256)"
      },
      {
        "astId": 13546,
        "contract": "src/solc_0.6/EstateSale/EstateSaleWithFee.sol:EstateSaleWithFee",
        "label": "_previousSigningDelay",
        "offset": 0,
        "slot": "5",
        "type": "t_uint256"
      },
      {
        "astId": 9918,
        "contract": "src/solc_0.6/EstateSale/EstateSaleWithFee.sol:EstateSaleWithFee",
        "label": "_wallet",
        "offset": 0,
        "slot": "6",
        "type": "t_address_payable"
      },
      {
        "astId": 9928,
        "contract": "src/solc_0.6/EstateSale/EstateSaleWithFee.sol:EstateSaleWithFee",
        "label": "_multiplier",
        "offset": 0,
        "slot": "7",
        "type": "t_uint256"
      }
    ],
    "types": {
      "t_address": {
        "encoding": "inplace",
        "label": "address",
        "numberOfBytes": "20"
      },
      "t_address_payable": {
        "encoding": "inplace",
        "label": "address payable",
        "numberOfBytes": "20"
      },
      "t_bool": {
        "encoding": "inplace",
        "label": "bool",
        "numberOfBytes": "1"
      },
      "t_mapping(t_address,t_bool)": {
        "encoding": "mapping",
        "key": "t_address",
        "label": "mapping(address => bool)",
        "numberOfBytes": "32",
        "value": "t_bool"
      },
      "t_mapping(t_address,t_uint256)": {
        "encoding": "mapping",
        "key": "t_address",
        "label": "mapping(address => uint256)",
        "numberOfBytes": "32",
        "value": "t_uint256"
      },
      "t_uint256": {
        "encoding": "inplace",
        "label": "uint256",
        "numberOfBytes": "32"
      }
    }
  }
}