{
  "address": "0xec40Da0fc18AC7DAefB0C1dF383C49Be8893Ccd8",
  "abi": [
    {
      "inputs": [
        {
          "internalType": "address",
          "name": "landAddress",
          "type": "address"
        },
        {
          "internalType": "address",
          "name": "sandContractAddress",
          "type": "address"
        },
        {
          "internalType": "address",
          "name": "initialMetaTx",
          "type": "address"
        },
        {
          "internalType": "address",
          "name": "admin",
          "type": "address"
        },
        {
          "internalType": "address payable",
          "name": "initialWalletAddress",
          "type": "address"
        },
        {
          "internalType": "bytes32",
          "name": "merkleRoot",
          "type": "bytes32"
        },
        {
          "internalType": "uint256",
          "name": "expiryTime",
          "type": "uint256"
        },
        {
          "internalType": "address",
          "name": "initialSigningWallet",
          "type": "address"
        },
        {
          "internalType": "uint256",
          "name": "initialMaxCommissionRate",
          "type": "uint256"
        },
        {
          "internalType": "address",
          "name": "estate",
          "type": "address"
        },
        {
          "internalType": "address",
          "name": "asset",
          "type": "address"
        },
        {
          "internalType": "address",
          "name": "feeDistributor",
          "type": "address"
        },
        {
          "internalType": "address",
          "name": "authValidator",
          "type": "address"
        }
      ],
      "stateMutability": "nonpayable",
      "type": "constructor"
    },
    {
      "anonymous": false,
      "inputs": [
        {
          "indexed": false,
          "internalType": "address",
          "name": "oldAdmin",
          "type": "address"
        },
        {
          "indexed": false,
          "internalType": "address",
          "name": "newAdmin",
          "type": "address"
        }
      ],
      "name": "AdminChanged",
      "type": "event"
    },
    {
      "anonymous": false,
      "inputs": [
        {
          "indexed": true,
          "internalType": "address",
          "name": "buyer",
          "type": "address"
        },
        {
          "indexed": true,
          "internalType": "address",
          "name": "to",
          "type": "address"
        },
        {
          "indexed": true,
          "internalType": "uint256",
          "name": "topCornerId",
          "type": "uint256"
        },
        {
          "indexed": false,
          "internalType": "uint256",
          "name": "size",
          "type": "uint256"
        },
        {
          "indexed": false,
          "internalType": "uint256",
          "name": "price",
          "type": "uint256"
        },
        {
          "indexed": false,
          "internalType": "address",
          "name": "token",
          "type": "address"
        },
        {
          "indexed": false,
          "internalType": "uint256",
          "name": "amountPaid",
          "type": "uint256"
        }
      ],
      "name": "LandQuadPurchased",
      "type": "event"
    },
    {
      "anonymous": false,
      "inputs": [
        {
          "indexed": false,
          "internalType": "address",
          "name": "metaTransactionProcessor",
          "type": "address"
        },
        {
          "indexed": false,
          "internalType": "bool",
          "name": "enabled",
          "type": "bool"
        }
      ],
      "name": "MetaTransactionProcessor",
      "type": "event"
    },
    {
      "anonymous": false,
      "inputs": [
        {
          "indexed": true,
          "internalType": "address",
          "name": "referrer",
          "type": "address"
        },
        {
          "indexed": true,
          "internalType": "address",
          "name": "referee",
          "type": "address"
        },
        {
          "indexed": true,
          "internalType": "address",
          "name": "token",
          "type": "address"
        },
        {
          "indexed": false,
          "internalType": "uint256",
          "name": "amount",
          "type": "uint256"
        },
        {
          "indexed": false,
          "internalType": "uint256",
          "name": "commission",
          "type": "uint256"
        },
        {
          "indexed": false,
          "internalType": "uint256",
          "name": "commissionRate",
          "type": "uint256"
        }
      ],
      "name": "ReferralUsed",
      "type": "event"
    },
    {
      "inputs": [
        {
          "internalType": "address",
          "name": "buyer",
          "type": "address"
        },
        {
          "internalType": "address",
          "name": "to",
          "type": "address"
        },
        {
          "internalType": "address",
          "name": "reserved",
          "type": "address"
        },
        {
          "internalType": "uint256[]",
          "name": "info",
          "type": "uint256[]"
        },
        {
          "internalType": "bytes32",
          "name": "salt",
          "type": "bytes32"
        },
        {
          "internalType": "uint256[]",
          "name": "assetIds",
          "type": "uint256[]"
        },
        {
          "internalType": "bytes32[]",
          "name": "proof",
          "type": "bytes32[]"
        },
        {
          "internalType": "bytes",
          "name": "referral",
          "type": "bytes"
        },
        {
          "internalType": "bytes",
          "name": "signature",
          "type": "bytes"
        }
      ],
      "name": "buyLandWithSand",
      "outputs": [],
      "stateMutability": "nonpayable",
      "type": "function"
    },
    {
      "inputs": [
        {
          "internalType": "address",
          "name": "newAdmin",
          "type": "address"
        }
      ],
      "name": "changeAdmin",
      "outputs": [],
      "stateMutability": "nonpayable",
      "type": "function"
    },
    {
      "inputs": [
        {
          "internalType": "bytes",
          "name": "referral",
          "type": "bytes"
        }
      ],
      "name": "decodeReferral",
      "outputs": [
        {
          "internalType": "bytes",
          "name": "",
          "type": "bytes"
        },
        {
          "internalType": "address",
          "name": "",
          "type": "address"
        },
        {
          "internalType": "address",
          "name": "",
          "type": "address"
        },
        {
          "internalType": "uint256",
          "name": "",
          "type": "uint256"
        },
        {
          "internalType": "uint256",
          "name": "",
          "type": "uint256"
        }
      ],
      "stateMutability": "pure",
      "type": "function"
    },
    {
      "inputs": [],
      "name": "getAdmin",
      "outputs": [
        {
          "internalType": "address",
          "name": "",
          "type": "address"
        }
      ],
      "stateMutability": "view",
      "type": "function"
    },
    {
      "inputs": [],
      "name": "getExpiryTime",
      "outputs": [
        {
          "internalType": "uint256",
          "name": "",
          "type": "uint256"
        }
      ],
      "stateMutability": "view",
      "type": "function"
    },
    {
      "inputs": [],
      "name": "getMaxCommisionRate",
      "outputs": [
        {
          "internalType": "uint256",
          "name": "",
          "type": "uint256"
        }
      ],
      "stateMutability": "view",
      "type": "function"
    },
    {
      "inputs": [],
      "name": "getMerkleRoot",
      "outputs": [
        {
          "internalType": "bytes32",
          "name": "",
          "type": "bytes32"
        }
      ],
      "stateMutability": "view",
      "type": "function"
    },
    {
      "inputs": [],
      "name": "getSigningWallet",
      "outputs": [
        {
          "internalType": "address",
          "name": "",
          "type": "address"
        }
      ],
      "stateMutability": "view",
      "type": "function"
    },
    {
      "inputs": [
        {
          "internalType": "address",
          "name": "who",
          "type": "address"
        }
      ],
      "name": "isMetaTransactionProcessor",
      "outputs": [
        {
          "internalType": "bool",
          "name": "",
          "type": "bool"
        }
      ],
      "stateMutability": "view",
      "type": "function"
    },
    {
      "inputs": [
        {
          "internalType": "bytes",
          "name": "signature",
          "type": "bytes"
        },
        {
          "internalType": "address",
          "name": "referrer",
          "type": "address"
        },
        {
          "internalType": "address",
          "name": "referee",
          "type": "address"
        },
        {
          "internalType": "uint256",
          "name": "expiryTime",
          "type": "uint256"
        },
        {
          "internalType": "uint256",
          "name": "commissionRate",
          "type": "uint256"
        }
      ],
      "name": "isReferralValid",
      "outputs": [
        {
          "internalType": "bool",
          "name": "",
          "type": "bool"
        }
      ],
      "stateMutability": "view",
      "type": "function"
    },
    {
      "inputs": [
        {
          "internalType": "address",
          "name": "",
          "type": "address"
        },
        {
          "internalType": "address",
          "name": "",
          "type": "address"
        },
        {
          "internalType": "uint256[]",
          "name": "",
          "type": "uint256[]"
        },
        {
          "internalType": "uint256[]",
          "name": "",
          "type": "uint256[]"
        },
        {
          "internalType": "bytes",
          "name": "",
          "type": "bytes"
        }
      ],
      "name": "onERC1155BatchReceived",
      "outputs": [
        {
          "internalType": "bytes4",
          "name": "",
          "type": "bytes4"
        }
      ],
      "stateMutability": "pure",
      "type": "function"
    },
    {
      "inputs": [
        {
          "internalType": "address",
          "name": "",
          "type": "address"
        },
        {
          "internalType": "address",
          "name": "",
          "type": "address"
        },
        {
          "internalType": "uint256",
          "name": "",
          "type": "uint256"
        },
        {
          "internalType": "uint256",
          "name": "",
          "type": "uint256"
        },
        {
          "internalType": "bytes",
          "name": "",
          "type": "bytes"
        }
      ],
      "name": "onERC1155Received",
      "outputs": [
        {
          "internalType": "bytes4",
          "name": "",
          "type": "bytes4"
        }
      ],
      "stateMutability": "pure",
      "type": "function"
    },
    {
      "inputs": [
        {
          "internalType": "address",
          "name": "metaTransactionProcessor",
          "type": "address"
        },
        {
          "internalType": "bool",
          "name": "enabled",
          "type": "bool"
        }
      ],
      "name": "setMetaTransactionProcessor",
      "outputs": [],
      "stateMutability": "nonpayable",
      "type": "function"
    },
    {
      "inputs": [
        {
          "internalType": "address payable",
          "name": "newWallet",
          "type": "address"
        }
      ],
      "name": "setReceivingWallet",
      "outputs": [],
      "stateMutability": "nonpayable",
      "type": "function"
    },
    {
      "inputs": [
        {
          "internalType": "uint256",
          "name": "newMaxCommissionRate",
          "type": "uint256"
        }
      ],
      "name": "updateMaxCommissionRate",
      "outputs": [],
      "stateMutability": "nonpayable",
      "type": "function"
    },
    {
      "inputs": [
        {
          "internalType": "address",
          "name": "newSigningWallet",
          "type": "address"
        }
      ],
      "name": "updateSigningWallet",
      "outputs": [],
      "stateMutability": "nonpayable",
      "type": "function"
    },
    {
      "inputs": [
        {
          "internalType": "address",
          "name": "to",
          "type": "address"
        },
        {
          "internalType": "uint256[]",
          "name": "assetIds",
          "type": "uint256[]"
        },
        {
          "internalType": "uint256[]",
          "name": "values",
          "type": "uint256[]"
        }
      ],
      "name": "withdrawAssets",
      "outputs": [],
      "stateMutability": "nonpayable",
      "type": "function"
    }
  ],
  "transactionHash": "0x5c4f7c8ef7e186eced25b914deccc5b208e616224e5f161425f39e33b1b78ab2",
  "args": [
    "0xaF40A483bF77AAb7b7D13dB18187E6D62C1EA41b",
    "0xCc933a862fc15379E441F2A16Cb943D385a4695f",
    "0xCc933a862fc15379E441F2A16Cb943D385a4695f",
    "0xa4519D601F43D0b8f167842a367465681F652252",
    "0x60927eB036621b801491B6c5e9A60A8d2dEeD75A",
    "0xf1ed0b50a1274b9d5cdd6125f01308854597ab666bafc6b03c475e9706af6b42",
    1664542800,
    "0xB7060D3FeCAC3AE1F0A0AA416E3e8E472257950e",
    2000,
    "0x0000000000000000000000000000000000000000",
    "0x8055a2c0f7EB177BeaB357B70E6504402d2b5fF6",
    "0x5983532A5b9009E05428595b87F19e42068a232B",
    "0x94cA164E3d7B13700eC356a1540f7Ae7c239A2b3"
  ],
  "linkedData": [
    {
      "x": 288,
      "y": 282,
      "size": 1,
      "price": "1011000000000000000000",
      "reserved": "",
      "salt": "0x139a2da4bd42f71350de98af4daebef3543c0bef9e81cb690ae89127159517cf",
      "assetIds": []
    },
    {
      "x": 288,
      "y": 283,
      "size": 1,
      "price": "1011000000000000000000",
      "reserved": "0x7a9fe22691c811ea339d9b73150e6911a5343dca",
      "salt": "0x3715b9167d72be8b84b3d2b556c6dee5087923e42c0aaabb30fcefa32ef5a3e0",
      "assetIds": []
    },
    {
      "x": 288,
      "y": 284,
      "size": 1,
      "price": "1011000000000000000000",
      "reserved": "",
      "salt": "0x41e9f07bf8446382508b8cc29bdd9607b64b3fabc0db461779aee950054a64f8",
      "assetIds": []
    },
    {
      "x": 288,
      "y": 285,
      "size": 1,
      "price": "1011000000000000000000",
      "reserved": "",
      "salt": "0x5afef11d94b2891222924c444fea90da89f977fe6bd9d813146efb398e5f2d9b",
      "assetIds": []
    },
    {
      "x": 288,
      "y": 286,
      "size": 1,
      "price": "1011000000000000000000",
      "reserved": "",
      "salt": "0x2800d164e0d782cf38ce66f0e0c21fc19add6b5e384a9d300a02f3d11a667072",
      "assetIds": []
    },
    {
      "x": 288,
      "y": 287,
      "size": 1,
      "price": "1011000000000000000000",
      "reserved": "",
      "salt": "0x92cb600c5924b6f0c722a9012b9e687723b9cbf092f157b0fc3d708819b7dd3d",
      "assetIds": []
    },
    {
      "x": 288,
      "y": 288,
      "size": 1,
      "price": "1011000000000000000000",
      "reserved": "",
      "salt": "0xb34ee2ad0969776d13c502151837ebd71aacc79ebefc942afcdfaa3afcb0a85b",
      "assetIds": []
    },
    {
      "x": 288,
      "y": 289,
      "size": 1,
      "price": "1011000000000000000000",
      "reserved": "",
      "salt": "0x0534d90910eef1356760c4f92d42081a6162d9654ec9348c0fc785c5fd4d0eeb",
      "assetIds": []
    },
    {
      "x": 288,
      "y": 290,
      "size": 1,
      "price": "1011000000000000000000",
      "reserved": "",
      "salt": "0xc717338b471277b217ab6b87b8098e9c7c7ae81434860fdd573843de6938ac05",
      "assetIds": []
    },
    {
      "x": 288,
      "y": 291,
      "size": 1,
      "price": "1011000000000000000000",
      "reserved": "",
      "salt": "0x35339689cc7d16e84f2aa8da53ee1d144513fbae2b9676fd4ef1b16a6e4f9bb5",
      "assetIds": []
    },
    {
      "x": 288,
      "y": 292,
      "size": 1,
      "price": "1011000000000000000000",
      "reserved": "",
      "salt": "0x6e061212a828d66ef057e114ccc499187912676b981044b5b9975aa269b22528",
      "assetIds": []
    },
    {
      "x": 288,
      "y": 293,
      "size": 1,
      "price": "1011000000000000000000",
      "reserved": "",
      "salt": "0x74435837c468d4f898b9d50ca27d606056a389d744a9ff9a2b16f8d20724f7a4",
      "assetIds": []
    },
    {
      "x": 288,
      "y": 294,
      "size": 1,
      "price": "1011000000000000000000",
      "reserved": "",
      "salt": "0xd0db7a113cdee4a4b800df84ba6b30ba1dadef521bbd6e302921740b33f9c42d",
      "assetIds": []
    },
    {
      "x": 288,
      "y": 295,
      "size": 1,
      "price": "1011000000000000000000",
      "reserved": "",
      "salt": "0xe695f1e87212bacf5dffba6b4ff1ecba1647eadf0ac25918a44ee97307c0b9cc",
      "assetIds": []
    },
    {
      "x": 288,
      "y": 296,
      "size": 1,
      "price": "1011000000000000000000",
      "reserved": "",
      "salt": "0x3169298e93003fc8abcdca5bcb8158ac3e8c42dbb513ee8191b770f9675dbed9",
      "assetIds": []
    },
    {
      "x": 288,
      "y": 297,
      "size": 1,
      "price": "1011000000000000000000",
      "reserved": "",
      "salt": "0xb4a42ff2a5d6ce915f74cb1a45ff00c0f5ce0ff5df230ec86dfe26db25a9fbc3",
      "assetIds": []
    },
    {
      "x": 288,
      "y": 298,
      "size": 1,
      "price": "1011000000000000000000",
      "reserved": "",
      "salt": "0x740b3c74193cbfdd7bad385c3e1ef258335380eb66dc9bd5f7f967687bba1a6d",
      "assetIds": []
    },
    {
      "x": 288,
      "y": 299,
      "size": 1,
      "price": "1011000000000000000000",
      "reserved": "",
      "salt": "0xda210855d092213032f59526fda478c8070782dfe96841cd7113dd38be33e162",
      "assetIds": []
    },
    {
      "x": 289,
      "y": 282,
      "size": 1,
      "price": "1011000000000000000000",
      "reserved": "",
      "salt": "0x9a2e7b462ad6f9186077e92dac8db63de0ce920be9d8028974efa821c20a5c73",
      "assetIds": []
    },
    {
      "x": 289,
      "y": 283,
      "size": 1,
      "price": "1011000000000000000000",
      "reserved": "",
      "salt": "0x41ff52536fa28913ba0e40e1bb57664f1fdb75240a064f9ab7a261cdde93406b",
      "assetIds": []
    },
    {
      "x": 289,
      "y": 284,
      "size": 1,
      "price": "1011000000000000000000",
      "reserved": "",
      "salt": "0xc0360e509f2952624d00dc047495683558174fd36bb787583e67aa6ee32bd73a",
      "assetIds": []
    },
    {
      "x": 289,
      "y": 285,
      "size": 1,
      "price": "1011000000000000000000",
      "reserved": "0x7a9fe22691c811ea339d9b73150e6911a5343dca",
      "salt": "0x067e4c6615a7b7714643ac069a575dee7f5874c131ca750c4b3fc49ef67948d0",
      "assetIds": []
    },
    {
      "x": 289,
      "y": 286,
      "size": 1,
      "price": "1011000000000000000000",
      "reserved": "",
      "salt": "0xa36e13523a935e41ce6922522449b17d1f4eb22eefda951f7d0e28e2674afc00",
      "assetIds": []
    },
    {
      "x": 289,
      "y": 287,
      "size": 1,
      "price": "1011000000000000000000",
      "reserved": "",
      "salt": "0x27d75709c8ac16641a94adcc681500d92b3df31210aac0bd92a579d80fc6ae22",
      "assetIds": []
    },
    {
      "x": 289,
      "y": 288,
      "size": 1,
      "price": "1011000000000000000000",
      "reserved": "",
      "salt": "0x034fe3ea69281e2dafb0d30ead60735c869f03404378361e1d9a06838b917ce5",
      "assetIds": []
    },
    {
      "x": 289,
      "y": 289,
      "size": 1,
      "price": "1011000000000000000000",
      "reserved": "0x7a9fe22691c811ea339d9b73150e6911a5343dca",
      "salt": "0x5e23662d69528206d36e947ca5baaeec1366b2d838b564f183512bf90434878d",
      "assetIds": []
    },
    {
      "x": 289,
      "y": 290,
      "size": 1,
      "price": "1011000000000000000000",
      "reserved": "",
      "salt": "0xd5e79da9437d545987428a0eb81552d9b63e9fee31789c5b35a9aeeaa01eb893",
      "assetIds": []
    },
    {
      "x": 289,
      "y": 291,
      "size": 1,
      "price": "1011000000000000000000",
      "reserved": "",
      "salt": "0x14b0faaf9279617b34af0115fef5dff1cc8ea162779391ef3a1f89b252713394",
      "assetIds": []
    },
    {
      "x": 289,
      "y": 292,
      "size": 1,
      "price": "1011000000000000000000",
      "reserved": "0x7a9fe22691c811ea339d9b73150e6911a5343dca",
      "salt": "0xf23bfb73f181850720db3fbe03a4099ae72d5d90177d4b3e9a41ee0f8e8347f8",
      "assetIds": []
    },
    {
      "x": 289,
      "y": 293,
      "size": 1,
      "price": "1011000000000000000000",
      "reserved": "",
      "salt": "0x6576bfe0b20efc9d884bff3c0fc8cdc8f2987007ee18eae1674c6462e5f55ef3",
      "assetIds": []
    },
    {
      "x": 289,
      "y": 294,
      "size": 1,
      "price": "1011000000000000000000",
      "reserved": "",
      "salt": "0x23edabbcf009ef58ddf8a1cbaf22bcdcdbb12608febc0077e7856a4073ad810b",
      "assetIds": []
    },
    {
      "x": 289,
      "y": 295,
      "size": 1,
      "price": "1011000000000000000000",
      "reserved": "",
      "salt": "0x0d179692f819c3edf31212221cbd404d7581bd2dcbb3531116c930b7add4018e",
      "assetIds": []
    },
    {
      "x": 289,
      "y": 296,
      "size": 1,
      "price": "1011000000000000000000",
      "reserved": "0x7a9fe22691c811ea339d9b73150e6911a5343dca",
      "salt": "0x920aec30442253348658a95d367c26905a7f9b738553cdde62e899852b270b00",
      "assetIds": []
    },
    {
      "x": 289,
      "y": 297,
      "size": 1,
      "price": "1011000000000000000000",
      "reserved": "",
      "salt": "0xb3b3a5e61ae6d6d6000a7ead1ad1aabd71254fa793f11308be8bb445dc45df81",
      "assetIds": []
    },
    {
      "x": 289,
      "y": 298,
      "size": 1,
      "price": "1011000000000000000000",
      "reserved": "",
      "salt": "0x15954ad997043e1fc8c1412d1c4d129f7f79814f7e6487582ae6b40e5d11df63",
      "assetIds": []
    },
    {
      "x": 289,
      "y": 299,
      "size": 1,
      "price": "1011000000000000000000",
      "reserved": "",
      "salt": "0xfa38e9696ba82a60f9b68b4e81e0748c8ead0c44b8b620bd31948a4e5cb2e4e8",
      "assetIds": []
    },
    {
      "x": 290,
      "y": 282,
      "size": 1,
      "price": "1011000000000000000000",
      "reserved": "0x7a9fe22691c811ea339d9b73150e6911a5343dca",
      "salt": "0x356b1c2d6e642cae7cfda1b0d90364da4f7a389076f3b81fecd90fbb40d7679c",
      "assetIds": []
    },
    {
      "x": 290,
      "y": 283,
      "size": 1,
      "price": "1011000000000000000000",
      "reserved": "",
      "salt": "0xd25e723d343fd7d75645885e0a2e6ce9561a9353d712c1138a1c549c4e1bc1c0",
      "assetIds": []
    },
    {
      "x": 290,
      "y": 284,
      "size": 1,
      "price": "1011000000000000000000",
      "reserved": "0x7a9fe22691c811ea339d9b73150e6911a5343dca",
      "salt": "0x1dfab0a882a3903da141bcb5810b85fe71be289422b873fa9b2e7513df58195d",
      "assetIds": []
    },
    {
      "x": 290,
      "y": 285,
      "size": 1,
      "price": "1011000000000000000000",
      "reserved": "",
      "salt": "0x50c82fc1cfb40408d18261764da033af740ebb0bb99be4e19896dd13ac4ae4f1",
      "assetIds": []
    },
    {
      "x": 290,
      "y": 286,
      "size": 1,
      "price": "1011000000000000000000",
      "reserved": "",
      "salt": "0x53134bef271a8113cce7f4441efe3d9321f7ddb00a46b0c282b490ca0d2f04e8",
      "assetIds": []
    },
    {
      "x": 290,
      "y": 287,
      "size": 1,
      "price": "1011000000000000000000",
      "reserved": "",
      "salt": "0x4b1b240876ea808e3f5d26b0157f86b4b4e649c41357b107aa4d9692b663b445",
      "assetIds": []
    },
    {
      "x": 290,
      "y": 288,
      "size": 1,
      "price": "1011000000000000000000",
      "reserved": "",
      "salt": "0xc3b0caa5a536329ad236b1252b09a90ead17c37230231331259398dbc552e829",
      "assetIds": []
    },
    {
      "x": 290,
      "y": 289,
      "size": 1,
      "price": "1011000000000000000000",
      "reserved": "",
      "salt": "0xda77e578349036b986b765076483fea50ed95149c6be48227ad026d1eb373613",
      "assetIds": []
    },
    {
      "x": 290,
      "y": 290,
      "size": 1,
      "price": "1011000000000000000000",
      "reserved": "",
      "salt": "0xb80eb89d91c37d61edbb4040f20ca7501b3887b00c284db1750a1d5415e77451",
      "assetIds": []
    },
    {
      "x": 290,
      "y": 291,
      "size": 1,
      "price": "1011000000000000000000",
      "reserved": "0x7a9fe22691c811ea339d9b73150e6911a5343dca",
      "salt": "0x1435c402ddfdfdfee4aff67b10ec262a040c3900f552b2189e5d053a4af361ca",
      "assetIds": []
    },
    {
      "x": 290,
      "y": 292,
      "size": 1,
      "price": "1011000000000000000000",
      "reserved": "",
      "salt": "0x35a113176986a86e1dc655c535fa15dd6798cb9f181e86566ca920590e5061e1",
      "assetIds": []
    },
    {
      "x": 290,
      "y": 293,
      "size": 1,
      "price": "1011000000000000000000",
      "reserved": "",
      "salt": "0x8b47088984e5e6d86bb9fee96bb85e5c863d33e4dfd2a98079d143c95c6892f1",
      "assetIds": []
    },
    {
      "x": 290,
      "y": 294,
      "size": 1,
      "price": "1011000000000000000000",
      "reserved": "",
      "salt": "0x214bdbd7fd3506c15d231be0214bce5f47f8d040b25542d3f43a0cc20f480b92",
      "assetIds": []
    },
    {
      "x": 290,
      "y": 295,
      "size": 1,
      "price": "1011000000000000000000",
      "reserved": "",
      "salt": "0x2e9b6c06b9ccc3154d6c95d3966cd9b176cbcd446e9a2b6034dbc66bd4a2d99e",
      "assetIds": []
    },
    {
      "x": 290,
      "y": 296,
      "size": 1,
      "price": "1011000000000000000000",
      "reserved": "",
      "salt": "0x15e92c9aa95d2b058ec07254fea2bae8c2eeeefd3efaea8661447319352d3a4f",
      "assetIds": []
    },
    {
      "x": 290,
      "y": 297,
      "size": 1,
      "price": "1011000000000000000000",
      "reserved": "0x7a9fe22691c811ea339d9b73150e6911a5343dca",
      "salt": "0x74b35d97f76bb2c02c4982d7f05a1ce43c2d87f4a833d0a86013b163cabb14d6",
      "assetIds": []
    },
    {
      "x": 290,
      "y": 298,
      "size": 1,
      "price": "1011000000000000000000",
      "reserved": "",
      "salt": "0x80f9a29e4abbf2dab269f4132ec8c509cd62118cbf8e51a7b8d2825cf1b153e1",
      "assetIds": []
    },
    {
      "x": 290,
      "y": 299,
      "size": 1,
      "price": "1011000000000000000000",
      "reserved": "",
      "salt": "0xf18937f7cf585378982f68381b7af96b758f6294f2c3d67e4bc6c29376adc376",
      "assetIds": []
    },
    {
      "x": 291,
      "y": 282,
      "size": 1,
      "price": "1011000000000000000000",
      "reserved": "",
      "salt": "0x4e9a617c2ade1e1f49d1d1d6f0fed7ad7792cc4c3c32abd0f8d33b2a3936953f",
      "assetIds": []
    },
    {
      "x": 291,
      "y": 283,
      "size": 1,
      "price": "1011000000000000000000",
      "reserved": "",
      "salt": "0x9ebe02439b18ee2571f41085ab624cc77ee2c2184160d550b3b1c995267db61a",
      "assetIds": []
    },
    {
      "x": 291,
      "y": 284,
      "size": 1,
      "price": "1011000000000000000000",
      "reserved": "",
      "salt": "0xb705f20cc393be6c8185f8d4c47ae731374205b0ddfdbb5834b536814d583d52",
      "assetIds": []
    },
    {
      "x": 291,
      "y": 285,
      "size": 1,
      "price": "1011000000000000000000",
      "reserved": "",
      "salt": "0x60e46e7ac50ee64fa91c6b15b6abc9de7ed07a9b7193c71f21fcf809befff78e",
      "assetIds": []
    },
    {
      "x": 291,
      "y": 286,
      "size": 1,
      "price": "1011000000000000000000",
      "reserved": "",
      "salt": "0x6747dd6430832965de9a1a879b33c000ddfb879044806ad269d90501f98f3ff7",
      "assetIds": []
    },
    {
      "x": 291,
      "y": 287,
      "size": 1,
      "price": "1011000000000000000000",
      "reserved": "",
      "salt": "0x77b14515edcbea86589ed81c8134bd57bb349eff5aedf3d0eb5bf5d4f41bbd1f",
      "assetIds": []
    },
    {
      "x": 291,
      "y": 288,
      "size": 1,
      "price": "1011000000000000000000",
      "reserved": "",
      "salt": "0x1b5ec666751e4299e2b290e4079e17fb86f845165d4b391c3709833e3e19e761",
      "assetIds": []
    },
    {
      "x": 291,
      "y": 289,
      "size": 1,
      "price": "1011000000000000000000",
      "reserved": "",
      "salt": "0x50963908aa398cb47608ce47b18f410f0bde1bcc8c4dfc5f2f51541faafd4f83",
      "assetIds": []
    },
    {
      "x": 291,
      "y": 290,
      "size": 1,
      "price": "1011000000000000000000",
      "reserved": "",
      "salt": "0x5eca6d72492bf7ad296489625839fbf202ef1dc9902bf3abfc7d67426ac0902a",
      "assetIds": []
    },
    {
      "x": 291,
      "y": 291,
      "size": 1,
      "price": "1011000000000000000000",
      "reserved": "",
      "salt": "0x55dea9fb17efc7ed5f0c4cd3e51ee7a9fb1a8e9de54549f66f7105a64928a21c",
      "assetIds": []
    },
    {
      "x": 291,
      "y": 292,
      "size": 1,
      "price": "1011000000000000000000",
      "reserved": "",
      "salt": "0xc57b01568726feb4b778cab7f4412e25f21a31ef35a55b9d71990c03378cc8ce",
      "assetIds": []
    },
    {
      "x": 291,
      "y": 293,
      "size": 1,
      "price": "1011000000000000000000",
      "reserved": "",
      "salt": "0x694b0fe96810092f1abeeca9d7f727ac2e6b43a8877cd188000488b06939a367",
      "assetIds": []
    },
    {
      "x": 291,
      "y": 294,
      "size": 1,
      "price": "1011000000000000000000",
      "reserved": "",
      "salt": "0x8920d9bb5b423adfba442d4b146f74b8e47122f2012ff3a33be739acd7790a3d",
      "assetIds": []
    },
    {
      "x": 291,
      "y": 295,
      "size": 1,
      "price": "1011000000000000000000",
      "reserved": "",
      "salt": "0x511b138f062d9cd471418ce770ea99dfb4337a5201ded648fa7d6ea7e8777a7a",
      "assetIds": []
    },
    {
      "x": 291,
      "y": 296,
      "size": 1,
      "price": "1011000000000000000000",
      "reserved": "",
      "salt": "0x26b8f7575dc4e613c15fd9adcb9d7ab867b311c4b203ca27b2788ba5a3d5da72",
      "assetIds": []
    },
    {
      "x": 291,
      "y": 297,
      "size": 1,
      "price": "1011000000000000000000",
      "reserved": "",
      "salt": "0xbd311ffe48762bdb52b7048fce687b4cf172da51a2e8a49ad1abffe692d75efb",
      "assetIds": []
    },
    {
      "x": 291,
      "y": 298,
      "size": 1,
      "price": "1011000000000000000000",
      "reserved": "",
      "salt": "0xc4e1313e06a29c675ba9d7ec0c06747b2669bee154a0a3d9370b69e318279eab",
      "assetIds": []
    },
    {
      "x": 291,
      "y": 299,
      "size": 1,
      "price": "1011000000000000000000",
      "reserved": "",
      "salt": "0xf0c1f1a7ef1ebf0b6565fd0177cf1388dd4718df265eab244392781691ec1212",
      "assetIds": []
    },
    {
      "x": 292,
      "y": 282,
      "size": 1,
      "price": "1011000000000000000000",
      "reserved": "",
      "salt": "0xe29a1fa3c93b132fec07cf2923441798c72a90499dc9a6cbedb910cfb0553420",
      "assetIds": []
    },
    {
      "x": 292,
      "y": 283,
      "size": 1,
      "price": "1011000000000000000000",
      "reserved": "0x7a9fe22691c811ea339d9b73150e6911a5343dca",
      "salt": "0x58166536e433c9821ce3c2d7b6aa8828e5a70fccb23c76b5366cff51f70c730a",
      "assetIds": []
    },
    {
      "x": 292,
      "y": 284,
      "size": 1,
      "price": "1011000000000000000000",
      "reserved": "",
      "salt": "0x1ba9445db0ef09854c4c2089ca8a1549b69cff61c8c4180143cde5c2495a9663",
      "assetIds": []
    },
    {
      "x": 292,
      "y": 285,
      "size": 1,
      "price": "1011000000000000000000",
      "reserved": "0x7a9fe22691c811ea339d9b73150e6911a5343dca",
      "salt": "0xca3be8e1bcaf3473d1b5cc9da1bf5ac737b295cb7a59f1b98679d8174238acba",
      "assetIds": []
    },
    {
      "x": 292,
      "y": 286,
      "size": 1,
      "price": "1011000000000000000000",
      "reserved": "",
      "salt": "0xed91e12d7c07068d9e39ea4a81550fc803547c4e84a4b3cbe11a3f99d474d0d8",
      "assetIds": []
    },
    {
      "x": 292,
      "y": 287,
      "size": 1,
      "price": "1011000000000000000000",
      "reserved": "",
      "salt": "0x53d588a9adcc7b38c9de4e5ec6b10898c78e1183a458ff58f544c5dc4de7dafd",
      "assetIds": []
    },
    {
      "x": 292,
      "y": 288,
      "size": 1,
      "price": "1011000000000000000000",
      "reserved": "0x7a9fe22691c811ea339d9b73150e6911a5343dca",
      "salt": "0xae77b6197b40eb682920428b2775f884e947ab90c38c3b579862ebded5057c46",
      "assetIds": []
    },
    {
      "x": 292,
      "y": 289,
      "size": 1,
      "price": "1011000000000000000000",
      "reserved": "",
      "salt": "0xf362c15e2cd240b5441b89aa15d5e3e9a8a37c489d794842a17c75bc4b5619ab",
      "assetIds": []
    },
    {
      "x": 292,
      "y": 290,
      "size": 1,
      "price": "1011000000000000000000",
      "reserved": "",
      "salt": "0xfbf87800574f861c5c8c900c7b7003071aa8f1aa7097451751696aaaaf174fc2",
      "assetIds": []
    },
    {
      "x": 292,
      "y": 291,
      "size": 1,
      "price": "1011000000000000000000",
      "reserved": "",
      "salt": "0xb89d1e0ed103046583d2b933cc9af7dcc158ec42861e25d8d210e121f3f809c3",
      "assetIds": []
    },
    {
      "x": 292,
      "y": 292,
      "size": 1,
      "price": "1011000000000000000000",
      "reserved": "",
      "salt": "0x4bb8638df50c645ec11c6a41c144d9cc5e325c1a315b94a2c8a4ee82595ad80e",
      "assetIds": []
    },
    {
      "x": 292,
      "y": 293,
      "size": 1,
      "price": "1011000000000000000000",
      "reserved": "",
      "salt": "0xca8ea2a0029587101942be8771f1d6a121b85deaf398ea2ffe7d9b18c3443a2f",
      "assetIds": []
    },
    {
      "x": 292,
      "y": 294,
      "size": 1,
      "price": "1011000000000000000000",
      "reserved": "0x7a9fe22691c811ea339d9b73150e6911a5343dca",
      "salt": "0x467888149ffb11cec1eb35d2f47c04641755e5fc546f62151f64da4ce1407a14",
      "assetIds": []
    },
    {
      "x": 292,
      "y": 295,
      "size": 1,
      "price": "1011000000000000000000",
      "reserved": "",
      "salt": "0xd5d9b8db9c35178d8637601ef5c1027ff8d16dda429be931a1a6f5435cda785f",
      "assetIds": []
    },
    {
      "x": 292,
      "y": 296,
      "size": 1,
      "price": "1011000000000000000000",
      "reserved": "",
      "salt": "0x9933182ce869d9653832a91933c7e817d8e65854cdcd0d74977c590cae0d42e5",
      "assetIds": []
    },
    {
      "x": 292,
      "y": 297,
      "size": 1,
      "price": "1011000000000000000000",
      "reserved": "",
      "salt": "0x00d1602266453f86ce9f55b173814d9bae63c4b6375a292c27373ca6b5a532a7",
      "assetIds": []
    },
    {
      "x": 292,
      "y": 298,
      "size": 1,
      "price": "1011000000000000000000",
      "reserved": "",
      "salt": "0x34f3c4ca990e6ae3b8c940e47fafbbc43c074708706f575ddfebb995e46a1b20",
      "assetIds": []
    },
    {
      "x": 292,
      "y": 299,
      "size": 1,
      "price": "1011000000000000000000",
      "reserved": "0x7a9fe22691c811ea339d9b73150e6911a5343dca",
      "salt": "0x09a1ba3a44c1be8177c8c022d3bddba53446364ba76f3b9a47ee49e3e829cd92",
      "assetIds": []
    },
    {
      "x": 293,
      "y": 282,
      "size": 1,
      "price": "1011000000000000000000",
      "reserved": "",
      "salt": "0xea2fb78e90c4d64551dcdfd948597d25802852602eb0ea8706cd1972244c93b8",
      "assetIds": []
    },
    {
      "x": 293,
      "y": 283,
      "size": 1,
      "price": "1011000000000000000000",
      "reserved": "",
      "salt": "0x0b9e6737d82615f21f885043fe3748968aba70e470825716765a367f35833bd1",
      "assetIds": []
    },
    {
      "x": 293,
      "y": 284,
      "size": 1,
      "price": "1011000000000000000000",
      "reserved": "",
      "salt": "0xdf71d28b8fbf7e0767d606eca91098801dd3be75b9e3440d4422702067de8990",
      "assetIds": []
    },
    {
      "x": 293,
      "y": 285,
      "size": 1,
      "price": "1011000000000000000000",
      "reserved": "",
      "salt": "0x32f43768ebd360fb0f34faf2b767ecebf114bc1b45be0220ecdca2f1d95c8adc",
      "assetIds": []
    },
    {
      "x": 293,
      "y": 286,
      "size": 1,
      "price": "1011000000000000000000",
      "reserved": "",
      "salt": "0x12493d0f8024234d728f554c5315fa65bbcbd9044b518cd4ac95db075b5f55ca",
      "assetIds": []
    },
    {
      "x": 293,
      "y": 287,
      "size": 1,
      "price": "1011000000000000000000",
      "reserved": "",
      "salt": "0xcf796ae24e7b1589e2060987c0d20e4646db247b8093f3e278ad8f332940bedd",
      "assetIds": []
    },
    {
      "x": 293,
      "y": 288,
      "size": 1,
      "price": "1011000000000000000000",
      "reserved": "",
      "salt": "0xd69391d57044a267644a6985fa0551bb1eac61eb6c1d0f61c2584d2bce9fdbf9",
      "assetIds": []
    },
    {
      "x": 293,
      "y": 289,
      "size": 1,
      "price": "1011000000000000000000",
      "reserved": "",
      "salt": "0xd6d5d48dbb75eeb574c09c44c1c6b1ebf432dbe1545d6827c888521bd85a5cbc",
      "assetIds": []
    },
    {
      "x": 293,
      "y": 290,
      "size": 1,
      "price": "1011000000000000000000",
      "reserved": "",
      "salt": "0x60f368420db8b9bd259335918ce6e5d938c2f941b4123cc4ff929b56cd6e41eb",
      "assetIds": []
    },
    {
      "x": 293,
      "y": 291,
      "size": 1,
      "price": "1011000000000000000000",
      "reserved": "",
      "salt": "0x4fa7c23838206b2df7ca60c15b1518c8e717e2c4227aa2bb25a2e2f6b4b93b98",
      "assetIds": []
    },
    {
      "x": 293,
      "y": 292,
      "size": 1,
      "price": "1011000000000000000000",
      "reserved": "",
      "salt": "0x0cd5b8e48225fcbe538eaa12f5aa0ff792f08d8fe265af2df4d26f48dea678dc",
      "assetIds": []
    },
    {
      "x": 293,
      "y": 293,
      "size": 1,
      "price": "1011000000000000000000",
      "reserved": "",
      "salt": "0xe9a191701b49f835b67a852fb62ec16ffaeac207b637f259e3319f089cf7e32a",
      "assetIds": []
    },
    {
      "x": 293,
      "y": 294,
      "size": 1,
      "price": "1011000000000000000000",
      "reserved": "",
      "salt": "0x31802ec78431b576f1ef5328ffc879718202f2341bb43ad0fa7537b66337643d",
      "assetIds": []
    },
    {
      "x": 293,
      "y": 295,
      "size": 1,
      "price": "1011000000000000000000",
      "reserved": "",
      "salt": "0x157c7ce83028864069650f40eb248e50dc9246dd45501addbb50fee46e0867ee",
      "assetIds": []
    },
    {
      "x": 293,
      "y": 296,
      "size": 1,
      "price": "1011000000000000000000",
      "reserved": "",
      "salt": "0x426bc1467e0a5695970aa7d0f991229d03fccf7b0a07a5728f20ba8baf2b7124",
      "assetIds": []
    },
    {
      "x": 293,
      "y": 297,
      "size": 1,
      "price": "1011000000000000000000",
      "reserved": "0x7a9fe22691c811ea339d9b73150e6911a5343dca",
      "salt": "0x7b52f1e7516fcdd518dea120931107cc4c0f3ac0cfd768a68f870e808ecc27bc",
      "assetIds": []
    },
    {
      "x": 293,
      "y": 298,
      "size": 1,
      "price": "1011000000000000000000",
      "reserved": "",
      "salt": "0x77f10296d517885bdb3c88350225fb656278cc456a2d32f006c158a2ee82acb5",
      "assetIds": []
    },
    {
      "x": 293,
      "y": 299,
      "size": 1,
      "price": "1011000000000000000000",
      "reserved": "",
      "salt": "0x18416d6745cd390c142a8db5f16a6e014716aed7a5086d4284649a1c306d0f51",
      "assetIds": []
    },
    {
      "x": 294,
      "y": 282,
      "size": 1,
      "price": "1011000000000000000000",
      "reserved": "",
      "salt": "0xf8472f52ffebb1b106e7f0e890da4bb213c0596b518814f98719b5f167cf0251",
      "assetIds": []
    },
    {
      "x": 294,
      "y": 283,
      "size": 1,
      "price": "1011000000000000000000",
      "reserved": "",
      "salt": "0xe02c23e0c9ed1dbeb93685594434ddde59b87d9c0cb090abac5b1616e356c7e7",
      "assetIds": []
    },
    {
      "x": 294,
      "y": 284,
      "size": 1,
      "price": "1011000000000000000000",
      "reserved": "",
      "salt": "0x199413d021a0b13d0b86700b3e6e7591b28f3c97dc8333d70d0cb74aee262a0e",
      "assetIds": []
    },
    {
      "x": 294,
      "y": 285,
      "size": 1,
      "price": "1011000000000000000000",
      "reserved": "",
      "salt": "0x0fc9cf79af472a125877fdec0df8796171b6c84ee7d73646040dd7de487687fc",
      "assetIds": []
    },
    {
      "x": 294,
      "y": 286,
      "size": 1,
      "price": "1011000000000000000000",
      "reserved": "",
      "salt": "0x6e7b9cae48d6dd1b6673018d03be8ef1823512e989c7bf376dbe9e76862a4e53",
      "assetIds": []
    },
    {
      "x": 294,
      "y": 287,
      "size": 1,
      "price": "1011000000000000000000",
      "reserved": "",
      "salt": "0x6673a0f3731870725e838be3b707c3c639714240a8f800d0eabe2bea0e1c55c7",
      "assetIds": []
    },
    {
      "x": 294,
      "y": 288,
      "size": 1,
      "price": "1011000000000000000000",
      "reserved": "",
      "salt": "0x62d48cc8f1c93edf881628467f20b1b11b236c0210fa99ec55bbe8efdfdac2cc",
      "assetIds": []
    },
    {
      "x": 294,
      "y": 289,
      "size": 1,
      "price": "1011000000000000000000",
      "reserved": "",
      "salt": "0x7c4ec358dbf7b819e9549215e29f102b5172becae143d02e4811d96ee2f3cc3e",
      "assetIds": []
    },
    {
      "x": 294,
      "y": 290,
      "size": 1,
      "price": "1011000000000000000000",
      "reserved": "0x7a9fe22691c811ea339d9b73150e6911a5343dca",
      "salt": "0x759cf6863e44907aebe4319742bf3d29965de068f5eff649267774ad4bdbd22c",
      "assetIds": []
    },
    {
      "x": 294,
      "y": 291,
      "size": 1,
      "price": "1011000000000000000000",
      "reserved": "",
      "salt": "0xf470ed041f2ef8244e92e16ed81f42d94f3b3c4a39912f3c835619d4b24ce097",
      "assetIds": []
    },
    {
      "x": 294,
      "y": 292,
      "size": 1,
      "price": "1011000000000000000000",
      "reserved": "",
      "salt": "0xac2282e2eec158914bb2b55fcddf6a489da507bdef989afb79da7ca0b354ee94",
      "assetIds": []
    },
    {
      "x": 294,
      "y": 293,
      "size": 1,
      "price": "1011000000000000000000",
      "reserved": "",
      "salt": "0x3a6920e8d58610264e0014a8c076e72bd97a1ab9c6ae6565676a10b7ba515d71",
      "assetIds": []
    },
    {
      "x": 294,
      "y": 294,
      "size": 1,
      "price": "1011000000000000000000",
      "reserved": "",
      "salt": "0x30ca3a310902bf33199072f97b03e7d7e61a060ca8ae4cfee4ef31704c357178",
      "assetIds": []
    },
    {
      "x": 294,
      "y": 295,
      "size": 1,
      "price": "1011000000000000000000",
      "reserved": "",
      "salt": "0xe117c55f86e738b6437b04f408851ba5b0887808b951be235c093bae55e837bc",
      "assetIds": []
    },
    {
      "x": 294,
      "y": 296,
      "size": 1,
      "price": "1011000000000000000000",
      "reserved": "",
      "salt": "0xc0a607d3f70c78a9812100aa4ff76a06ebf33a6a484839ea15a912fe601f7769",
      "assetIds": []
    },
    {
      "x": 294,
      "y": 297,
      "size": 1,
      "price": "1011000000000000000000",
      "reserved": "",
      "salt": "0xad0fd7fbbab9047424b38711a0fff878c35482cad82b3be66c972492ed5e5b0e",
      "assetIds": []
    },
    {
      "x": 294,
      "y": 298,
      "size": 1,
      "price": "1011000000000000000000",
      "reserved": "",
      "salt": "0x78b4a45d70ef31c5ffbab65d7aa4052fd141d0aaf412bddd62b344a066eb88c2",
      "assetIds": []
    },
    {
      "x": 294,
      "y": 299,
      "size": 1,
      "price": "1011000000000000000000",
      "reserved": "",
      "salt": "0x98a453cb6d7681262a65e1d5f6a4bfa5144ea6c0b01d48801452a7b07849cd4b",
      "assetIds": []
    },
    {
      "x": 295,
      "y": 282,
      "size": 1,
      "price": "1011000000000000000000",
      "reserved": "",
      "salt": "0x4614fde865dd5d7b14693c6f031691788cc2e609d62e9eba47dd4b576890df38",
      "assetIds": []
    },
    {
      "x": 295,
      "y": 283,
      "size": 1,
      "price": "1011000000000000000000",
      "reserved": "0x7a9fe22691c811ea339d9b73150e6911a5343dca",
      "salt": "0x1cd31bc186bdf263f23c9dc0490c1d698406f251eda88d43087fd1985d6c5375",
      "assetIds": []
    },
    {
      "x": 295,
      "y": 284,
      "size": 1,
      "price": "1011000000000000000000",
      "reserved": "",
      "salt": "0xfcf44190b535db665b9e616d6346921d33581c3a9344e253558479540f26a7f6",
      "assetIds": []
    },
    {
      "x": 295,
      "y": 285,
      "size": 1,
      "price": "1011000000000000000000",
      "reserved": "",
      "salt": "0xee1672ad7ad0be778bb60f80f43347df6ea4a2b8042483fa6f616834c98ee90d",
      "assetIds": []
    },
    {
      "x": 295,
      "y": 286,
      "size": 1,
      "price": "1011000000000000000000",
      "reserved": "0x7a9fe22691c811ea339d9b73150e6911a5343dca",
      "salt": "0x0dcf5b5edd7d563a7a00e050b4b5257e5231636071f0658fbc0a96c9800af44d",
      "assetIds": []
    },
    {
      "x": 295,
      "y": 287,
      "size": 1,
      "price": "1011000000000000000000",
      "reserved": "",
      "salt": "0x5cddf9d683d4e7ad1cadc256d6ac27a7323202c71cecb2ccb76ce565c8c35142",
      "assetIds": []
    },
    {
      "x": 295,
      "y": 288,
      "size": 1,
      "price": "1011000000000000000000",
      "reserved": "",
      "salt": "0xeb1de5b65c8654db0156c9f898d6a13c41be44ccee7bdef539a54cd300db0b80",
      "assetIds": []
    },
    {
      "x": 295,
      "y": 289,
      "size": 1,
      "price": "1011000000000000000000",
      "reserved": "",
      "salt": "0x9048c3928633dcf89fb0a2791ae1b5ce5519da03c7fd38eb9ce2003e04fd833b",
      "assetIds": []
    },
    {
      "x": 295,
      "y": 290,
      "size": 1,
      "price": "1011000000000000000000",
      "reserved": "",
      "salt": "0xdb874178092dcc3e6a921386a3583a5db9b695da70c096c02f80524f999e1727",
      "assetIds": []
    },
    {
      "x": 295,
      "y": 291,
      "size": 1,
      "price": "1011000000000000000000",
      "reserved": "",
      "salt": "0x14f299379249412d59a0e3c7dec105ed999fad5a06d162d56cb77d4294652795",
      "assetIds": []
    },
    {
      "x": 295,
      "y": 292,
      "size": 1,
      "price": "1011000000000000000000",
      "reserved": "",
      "salt": "0x623e6172c1a479764d8cef9221a6268d0fddf79948d7c27dce36dde6e51c71e0",
      "assetIds": []
    },
    {
      "x": 295,
      "y": 293,
      "size": 1,
      "price": "1011000000000000000000",
      "reserved": "0x7a9fe22691c811ea339d9b73150e6911a5343dca",
      "salt": "0x9f9df3e0fee22fd3f7999f0cb2750f9c78741584f44feb3f370287045c42ca45",
      "assetIds": []
    },
    {
      "x": 295,
      "y": 294,
      "size": 1,
      "price": "1011000000000000000000",
      "reserved": "",
      "salt": "0x0690db5b3b6a950752906486a256e29bbca7225d10d98b02e4b3c56bd22369ad",
      "assetIds": []
    },
    {
      "x": 295,
      "y": 295,
      "size": 1,
      "price": "1011000000000000000000",
      "reserved": "",
      "salt": "0xa72df34033d236528a5dcdf37167797367c05c1c0ef6de1ef30ca0578764ef69",
      "assetIds": []
    },
    {
      "x": 295,
      "y": 296,
      "size": 1,
      "price": "1011000000000000000000",
      "reserved": "",
      "salt": "0xa9362930eb732cd4bce5605a9c97583bd46a87c91f5e7067ec65bfb36a4b772c",
      "assetIds": []
    },
    {
      "x": 295,
      "y": 297,
      "size": 1,
      "price": "1011000000000000000000",
      "reserved": "",
      "salt": "0x1bd9832b67d9721dc97a7319856971574036a4925e5551c4d387e3ddc00975e4",
      "assetIds": []
    },
    {
      "x": 295,
      "y": 298,
      "size": 1,
      "price": "1011000000000000000000",
      "reserved": "",
      "salt": "0xa7a4da6a32eda481777dba4f30e01e44e4c326c530735bf6f79d2c2b88b663fe",
      "assetIds": []
    },
    {
      "x": 295,
      "y": 299,
      "size": 1,
      "price": "1011000000000000000000",
      "reserved": "0x7a9fe22691c811ea339d9b73150e6911a5343dca",
      "salt": "0xa69af91f865d44dfc206e1b9d9e13e82d7e4c5ae6eb1612e3eacd6bc256fd437",
      "assetIds": []
    },
    {
      "x": 296,
      "y": 282,
      "size": 1,
      "price": "1011000000000000000000",
      "reserved": "",
      "salt": "0xd293e82cf07e76502494bca9a12a3694c63f97c449942fad19014b055ee1afa9",
      "assetIds": []
    },
    {
      "x": 296,
      "y": 283,
      "size": 1,
      "price": "1011000000000000000000",
      "reserved": "",
      "salt": "0xe4e52c0c92712c387f2cd7ef4d6b4ba988b2921934296683b801fd0df6189467",
      "assetIds": []
    },
    {
      "x": 296,
      "y": 284,
      "size": 1,
      "price": "1011000000000000000000",
      "reserved": "0x7a9fe22691c811ea339d9b73150e6911a5343dca",
      "salt": "0xcba2e5bd68eb4b5ad506f1f87f557058a774c93e9cb7bc5aafcfc8923250bee1",
      "assetIds": []
    },
    {
      "x": 296,
      "y": 285,
      "size": 1,
      "price": "1011000000000000000000",
      "reserved": "",
      "salt": "0x7017285dafc4ae6b5345f01e6b60fcaa49c353b9968d164a9ffeba1d35230a8b",
      "assetIds": []
    },
    {
      "x": 296,
      "y": 286,
      "size": 1,
      "price": "1011000000000000000000",
      "reserved": "",
      "salt": "0xd9b7f0e4cee266fdc05c245baa0b55752fd64bf414a8a4091b7241fdab4342d3",
      "assetIds": []
    },
    {
      "x": 296,
      "y": 287,
      "size": 1,
      "price": "1011000000000000000000",
      "reserved": "",
      "salt": "0xfb94f5ab92a8709beba70ab450f393cbefd59c955adf8db578503c33949d4eee",
      "assetIds": []
    },
    {
      "x": 296,
      "y": 288,
      "size": 1,
      "price": "1011000000000000000000",
      "reserved": "",
      "salt": "0x6c9fb43a74ee8ea149268e08a62148faf7d5d49e4d40f3b9fc42ec7d560ef40c",
      "assetIds": []
    },
    {
      "x": 296,
      "y": 289,
      "size": 1,
      "price": "1011000000000000000000",
      "reserved": "0x7a9fe22691c811ea339d9b73150e6911a5343dca",
      "salt": "0xd333de5c77f336bcbb98591ac9520f0615915ded2b125918ba378347b005fab5",
      "assetIds": []
    },
    {
      "x": 296,
      "y": 290,
      "size": 1,
      "price": "1011000000000000000000",
      "reserved": "",
      "salt": "0x5a922416d7afd3231fe0621b518ed33969b74d640e8225bb1ef45a7226d0c5b2",
      "assetIds": []
    },
    {
      "x": 296,
      "y": 291,
      "size": 1,
      "price": "1011000000000000000000",
      "reserved": "",
      "salt": "0x868d01d354fdc2139f618fc3e6f053bb0c83ed741ecd149c570bf29ae3a73989",
      "assetIds": []
    },
    {
      "x": 296,
      "y": 292,
      "size": 1,
      "price": "1011000000000000000000",
      "reserved": "",
      "salt": "0xe4267a1e05317bbe27fb8f52931698208861699c4c5a7003d79bd084834b31c8",
      "assetIds": []
    },
    {
      "x": 296,
      "y": 293,
      "size": 1,
      "price": "1011000000000000000000",
      "reserved": "",
      "salt": "0xe9267c37336e66673861c2d8982d61e58c7ee9fc0c45d91a5f64cee9399786cf",
      "assetIds": []
    },
    {
      "x": 296,
      "y": 294,
      "size": 1,
      "price": "1011000000000000000000",
      "reserved": "",
      "salt": "0x1c83448a85dc30be288332a4e84ec59a96695c994748962d37abdaff99fcbc99",
      "assetIds": []
    },
    {
      "x": 296,
      "y": 295,
      "size": 1,
      "price": "1011000000000000000000",
      "reserved": "",
      "salt": "0x89df7312c6162a9f231bbd49077c8143ad494bb6a19f0fdf241486e19304b602",
      "assetIds": []
    },
    {
      "x": 296,
      "y": 296,
      "size": 1,
      "price": "1011000000000000000000",
      "reserved": "",
      "salt": "0x71ed1d0c5cb7630580c05dfa4269bb7942522a2bd66c16e7b7b7c3164c94e314",
      "assetIds": []
    },
    {
      "x": 296,
      "y": 297,
      "size": 1,
      "price": "4683000000000000000000",
      "reserved": "",
      "salt": "0x0e12f9de65f927986ee787bf9902758decd7f9a764d80eb03b8815801bd3b29f",
      "assetIds": [
        "41506478881403507969696680653240014914910929820314476107906210059990541021188"
      ]
    },
    {
      "x": 296,
      "y": 298,
      "size": 1,
      "price": "4683000000000000000000",
      "reserved": "",
      "salt": "0x8a8f4c6c2786cc1ad21545b627c2fdbdf30b5d34fa5cd2181d857cba074ef5d7",
      "assetIds": [
        "41506478881403507969696680653240014914910929820314476107906210059990541021189"
      ]
    },
    {
      "x": 296,
      "y": 299,
      "size": 1,
      "price": "4683000000000000000000",
      "reserved": "",
      "salt": "0x0560411a7cfe119007982b4faa52e4a735f91b84ec2acdf969150a44b4feda8d",
      "assetIds": [
        "41506478881403507969696680653240014914910929820314476107906210059990541021189"
      ]
    },
    {
      "x": 297,
      "y": 280,
      "size": 1,
      "price": "1011000000000000000000",
      "reserved": "",
      "salt": "0x58c9733ee6303dcb57d2bcfa2d7fb2547df1031260a3b0b1136e9a4caf3f85d5",
      "assetIds": []
    },
    {
      "x": 297,
      "y": 281,
      "size": 1,
      "price": "1011000000000000000000",
      "reserved": "",
      "salt": "0x00b9754e22e3150d5a0c85f1f94dc6bbbbe90d5798bbb3827af8348ecc2399be",
      "assetIds": []
    },
    {
      "x": 297,
      "y": 282,
      "size": 1,
      "price": "1011000000000000000000",
      "reserved": "0x7a9fe22691c811ea339d9b73150e6911a5343dca",
      "salt": "0x668818b4261b11de4277cfa4d9e6256d8a1fde6623d4ae9d6f90b1b17282f563",
      "assetIds": []
    },
    {
      "x": 297,
      "y": 283,
      "size": 1,
      "price": "1011000000000000000000",
      "reserved": "",
      "salt": "0xacd2916c4fb1e233eb20c5605aeb024ec91871b9f9a06cfeaf82b895ba061daa",
      "assetIds": []
    },
    {
      "x": 297,
      "y": 284,
      "size": 1,
      "price": "1011000000000000000000",
      "reserved": "",
      "salt": "0x35ebecc61eddb17f6701c1d5faa7d391f67722f3708d23a03ba5f684bf963f83",
      "assetIds": []
    },
    {
      "x": 297,
      "y": 285,
      "size": 1,
      "price": "1011000000000000000000",
      "reserved": "",
      "salt": "0x5d74ef3d09df8e94ff26cb351594a9dfebd2fd4705ed144250c9ba034c533ca3",
      "assetIds": []
    },
    {
      "x": 297,
      "y": 286,
      "size": 1,
      "price": "1011000000000000000000",
      "reserved": "0x7a9fe22691c811ea339d9b73150e6911a5343dca",
      "salt": "0x4d8a7f503f772523c0abe5927659bb710dea728ec8d963c26a7749b7b6906c3e",
      "assetIds": []
    },
    {
      "x": 297,
      "y": 287,
      "size": 1,
      "price": "1011000000000000000000",
      "reserved": "",
      "salt": "0x140305519898d03e294befcd4d70ebcba20b2cdd94bc69041698d66814655bbc",
      "assetIds": []
    },
    {
      "x": 297,
      "y": 288,
      "size": 1,
      "price": "1011000000000000000000",
      "reserved": "",
      "salt": "0x0a9214b0243f96c6ffe297102b0bd63bafafc4c53c5443f89e4d6a810fafb7ce",
      "assetIds": []
    },
    {
      "x": 297,
      "y": 289,
      "size": 1,
      "price": "1011000000000000000000",
      "reserved": "",
      "salt": "0xc5f039c8319ebc8fcbab51c7692cb85c4b1aef92c2565733ff378761ec587f78",
      "assetIds": []
    },
    {
      "x": 297,
      "y": 290,
      "size": 1,
      "price": "1011000000000000000000",
      "reserved": "0x7a9fe22691c811ea339d9b73150e6911a5343dca",
      "salt": "0xbdd3cb3a593630f3048f07a59d6b778f1315b563e2e2296ee5009a293f71cb8b",
      "assetIds": []
    },
    {
      "x": 297,
      "y": 291,
      "size": 1,
      "price": "1011000000000000000000",
      "reserved": "",
      "salt": "0x1bfedb18f7dbf113e0710dd222d5e52e92bca1dab52ad6544b95eeb04da7b235",
      "assetIds": []
    },
    {
      "x": 297,
      "y": 292,
      "size": 1,
      "price": "1011000000000000000000",
      "reserved": "",
      "salt": "0x8bedf2e13e97f541928fe77eaea87fb6b6b292f6562d625eadc6a7b554b208ec",
      "assetIds": []
    },
    {
      "x": 297,
      "y": 293,
      "size": 1,
      "price": "1011000000000000000000",
      "reserved": "",
      "salt": "0x0e5622d29cb6132f15ca500df9a901015ec5bf1196100fd2d20ee165722e1f54",
      "assetIds": []
    },
    {
      "x": 297,
      "y": 294,
      "size": 1,
      "price": "1011000000000000000000",
      "reserved": "",
      "salt": "0x2b501f3f48908438496d6011e27226d59fc36c8d75fb75d6e6078e163e4259f3",
      "assetIds": []
    },
    {
      "x": 297,
      "y": 295,
      "size": 1,
      "price": "1011000000000000000000",
      "reserved": "",
      "salt": "0x664d0ad312e40a8584033fac8d6bca1211b6443a582bbc11b0d31050b817b9c2",
      "assetIds": []
    },
    {
      "x": 297,
      "y": 296,
      "size": 1,
      "price": "4683000000000000000000",
      "reserved": "",
      "salt": "0xcef64f3a33c58d69a165af4f7635f19d5ccf98ac7b065671b2e7409cf9233ef7",
      "assetIds": [
        "41506478881403507969696680653240014914910929820314476107906210059990541021188"
      ]
    },
    {
      "x": 298,
      "y": 280,
      "size": 1,
      "price": "1011000000000000000000",
      "reserved": "0x7a9fe22691c811ea339d9b73150e6911a5343dca",
      "salt": "0xc789f7aa1c207d1b0a51a5b89cbb950728fd60d8f9729ad7660d33cc1108509f",
      "assetIds": []
    },
    {
      "x": 298,
      "y": 281,
      "size": 1,
      "price": "1011000000000000000000",
      "reserved": "",
      "salt": "0xac7a31476c50ee99c3bdd51361983122790c9daa2c02ac5e9cb21e3b8327b31b",
      "assetIds": []
    },
    {
      "x": 298,
      "y": 282,
      "size": 1,
      "price": "1011000000000000000000",
      "reserved": "",
      "salt": "0xccf08074a0c6abdf03c7689519b5c2e9429d598b836ebd593354cd506cf8d761",
      "assetIds": []
    },
    {
      "x": 298,
      "y": 283,
      "size": 1,
      "price": "1011000000000000000000",
      "reserved": "",
      "salt": "0xf994742f677d69f325072efb51219097db081531358d0bb5f148982545d83418",
      "assetIds": []
    },
    {
      "x": 298,
      "y": 284,
      "size": 1,
      "price": "1011000000000000000000",
      "reserved": "",
      "salt": "0xc37b9d0fb3e627b3d355d87f71e2c5cdc230b2fbcaba2b0c34acf71176c6ec36",
      "assetIds": []
    },
    {
      "x": 298,
      "y": 285,
      "size": 1,
      "price": "1011000000000000000000",
      "reserved": "",
      "salt": "0xa1e5bda22337bef6dadf2fc112f5fd62e7d05e8742606697bf7e606c2cb3ed87",
      "assetIds": []
    },
    {
      "x": 298,
      "y": 286,
      "size": 1,
      "price": "1011000000000000000000",
      "reserved": "",
      "salt": "0xcab31aa950d355389993b3acfec13fe58b63d2de6d22d5aaeb7a4bd9c5c2c86b",
      "assetIds": []
    },
    {
      "x": 298,
      "y": 287,
      "size": 1,
      "price": "1011000000000000000000",
      "reserved": "",
      "salt": "0x2e22e817acac5ae795f7c04954aee5eada38236c84e81b2caa3fce2fb66eba36",
      "assetIds": []
    },
    {
      "x": 298,
      "y": 288,
      "size": 1,
      "price": "1011000000000000000000",
      "reserved": "",
      "salt": "0x5ed288a8ce4614d5b1acf72cc84b060eda0d562f74ed2a5794f864a61a1b2c6b",
      "assetIds": []
    },
    {
      "x": 298,
      "y": 289,
      "size": 1,
      "price": "1011000000000000000000",
      "reserved": "",
      "salt": "0xf4531b12d402cc3fc854d9b036316da1692dea4147da07ae273f947694459d78",
      "assetIds": []
    },
    {
      "x": 298,
      "y": 290,
      "size": 1,
      "price": "1011000000000000000000",
      "reserved": "",
      "salt": "0x8b9bff1fb63c194208024069350e189efca9312a48ae3ae8e48ff6d435bcfd99",
      "assetIds": []
    },
    {
      "x": 298,
      "y": 291,
      "size": 1,
      "price": "1011000000000000000000",
      "reserved": "",
      "salt": "0x692c56915d0c7112daedf482d1fb348f56b5432bc169d133c7bb5bbd85442f17",
      "assetIds": []
    },
    {
      "x": 298,
      "y": 292,
      "size": 1,
      "price": "1011000000000000000000",
      "reserved": "",
      "salt": "0xe166e337eca7f042059bda385d37bbc6781bf3cf2c044469563848d39d65d07c",
      "assetIds": []
    },
    {
      "x": 298,
      "y": 293,
      "size": 1,
      "price": "1011000000000000000000",
      "reserved": "0x7a9fe22691c811ea339d9b73150e6911a5343dca",
      "salt": "0xe0ae82e28c1794beca277bd6fab7b21a579c102c16ee3c87780e89b36f0aba30",
      "assetIds": []
    },
    {
      "x": 298,
      "y": 294,
      "size": 1,
      "price": "1011000000000000000000",
      "reserved": "",
      "salt": "0xfb9b07c643267608db6dd32395b53e158121b5c885b5e0cb4cf24df3a9d1768d",
      "assetIds": []
    },
    {
      "x": 298,
      "y": 295,
      "size": 1,
      "price": "1011000000000000000000",
      "reserved": "0x7a9fe22691c811ea339d9b73150e6911a5343dca",
      "salt": "0x9f1bee75dbe1400274c584d19e3f1482e9b9875c200b5281806a0e64d99921d1",
      "assetIds": []
    },
    {
      "x": 298,
      "y": 296,
      "size": 1,
      "price": "4683000000000000000000",
      "reserved": "",
      "salt": "0x1bcad81596915d534e5d60006315957aadaafa12a9e67b773f5bb10c80db47de",
      "assetIds": [
        "41506478881403507969696680653240014914910929820314476107906210059990541021189"
      ]
    },
    {
      "x": 299,
      "y": 279,
      "size": 1,
      "price": "1011000000000000000000",
      "reserved": "",
      "salt": "0x3c3bf611ca932e904d9546c1f6335f016eafa08b4563db56e4357de9998d997d",
      "assetIds": []
    },
    {
      "x": 299,
      "y": 280,
      "size": 1,
      "price": "1011000000000000000000",
      "reserved": "",
      "salt": "0xf9de9744f88f0114cff38207f073257a0142fed7ec81544cfc25a521f7046535",
      "assetIds": []
    },
    {
      "x": 299,
      "y": 281,
      "size": 1,
      "price": "1011000000000000000000",
      "reserved": "",
      "salt": "0x1bfa13344f39c9784889f171a819734c61d72c214b1771fd2cec3349147c1019",
      "assetIds": []
    },
    {
      "x": 299,
      "y": 282,
      "size": 1,
      "price": "1011000000000000000000",
      "reserved": "0x7a9fe22691c811ea339d9b73150e6911a5343dca",
      "salt": "0x60fcdbe4265cf0079eabb4cd17eecfbe1b3e14268c2c84ad82946f45e30f850a",
      "assetIds": []
    },
    {
      "x": 299,
      "y": 283,
      "size": 1,
      "price": "1011000000000000000000",
      "reserved": "0x7a9fe22691c811ea339d9b73150e6911a5343dca",
      "salt": "0xf9b77f1fa3eb07351acbe1c23f1cb7a4a80e90ba8eea12e949c7aaaf16dbc8df",
      "assetIds": []
    },
    {
      "x": 299,
      "y": 284,
      "size": 1,
      "price": "1011000000000000000000",
      "reserved": "",
      "salt": "0xa888df8c95a4dd5094b4d585eca09eea412e04e4b42faeb169925fe5d373577a",
      "assetIds": []
    },
    {
      "x": 299,
      "y": 285,
      "size": 1,
      "price": "1011000000000000000000",
      "reserved": "",
      "salt": "0xd3781c3f217f273153f306dceb775da952ce87e3ec3c13193dd917a25f227dfb",
      "assetIds": []
    },
    {
      "x": 299,
      "y": 286,
      "size": 1,
      "price": "1011000000000000000000",
      "reserved": "",
      "salt": "0x7d3910f5867093021929163fbed5f000ead15467e110c870d75823685b2d30fc",
      "assetIds": []
    },
    {
      "x": 299,
      "y": 287,
      "size": 1,
      "price": "4683000000000000000000",
      "reserved": "",
      "salt": "0x9f7ec7d222d1c641b5186a23619e1f0ef125b63f30ed0cf5474c4e72e864da24",
      "assetIds": [
        "41506478881403507969696680653240014914910929820314476107906210059990541021187"
      ]
    },
    {
      "x": 299,
      "y": 288,
      "size": 1,
      "price": "4683000000000000000000",
      "reserved": "",
      "salt": "0x08b7086637679d88e058f8194c2c0dd764b63a3d6b9212411f9b7b4478df3040",
      "assetIds": [
        "41506478881403507969696680653240014914910929820314476107906210059990541021188"
      ]
    },
    {
      "x": 299,
      "y": 289,
      "size": 1,
      "price": "4683000000000000000000",
      "reserved": "",
      "salt": "0x818ec9f057d5d802b4b560595fa9964d42ad44215cba678f00e2536c05ee166c",
      "assetIds": [
        "41506478881403507969696680653240014914910929820314476107906210059990541021186"
      ]
    },
    {
      "x": 299,
      "y": 290,
      "size": 1,
      "price": "4683000000000000000000",
      "reserved": "",
      "salt": "0x07a3390b388fef87a94df4df6d446c7bbfad5ec3a6d90002766a12999b0e4025",
      "assetIds": [
        "41506478881403507969696680653240014914910929820314476107906210059990541021188"
      ]
    },
    {
      "x": 299,
      "y": 291,
      "size": 1,
      "price": "4683000000000000000000",
      "reserved": "",
      "salt": "0xde1b0a42c2b1d01b03737af87e8edf95f3cfe6c943e81b1153e798bd05c5bda9",
      "assetIds": [
        "41506478881403507969696680653240014914910929820314476107906210059990541021188"
      ]
    },
    {
      "x": 299,
      "y": 292,
      "size": 1,
      "price": "4683000000000000000000",
      "reserved": "",
      "salt": "0x45acfb1914eb102b2cc8baa14b529cb0a281521a4a0b138b26c0033ccf889531",
      "assetIds": [
        "41506478881403507969696680653240014914910929820314476107906210059990541021188"
      ]
    },
    {
      "x": 299,
      "y": 293,
      "size": 1,
      "price": "4683000000000000000000",
      "reserved": "",
      "salt": "0xe759a76a797e9df4f7b8db18083cee5314b1244dc562cc7ec5fae5e8b8a463f2",
      "assetIds": [
        "41506478881403507969696680653240014914910929820314476107906210059990541021189"
      ]
    },
    {
      "x": 299,
      "y": 294,
      "size": 1,
      "price": "4683000000000000000000",
      "reserved": "",
      "salt": "0xa78c282fcf6f192ff50a1ef882c28ea6ba74d91fc7f3404fd4407cbbf0bac411",
      "assetIds": [
        "41506478881403507969696680653240014914910929820314476107906210059990541021187"
      ]
    },
    {
      "x": 299,
      "y": 295,
      "size": 1,
      "price": "4683000000000000000000",
      "reserved": "",
      "salt": "0xaa1c6b7a1836834231a00df709d55c6bf86d3828dd48f7ff0455ad5f357a52a5",
      "assetIds": [
        "41506478881403507969696680653240014914910929820314476107906210059990541021188"
      ]
    },
    {
      "x": 299,
      "y": 296,
      "size": 1,
      "price": "4683000000000000000000",
      "reserved": "",
      "salt": "0x069fd35a0084d0fd032c3f0661cbdee8a7b5126e247d54d113a1f35a523e4c44",
      "assetIds": [
        "41506478881403507969696680653240014914910929820314476107906210059990541021187"
      ]
    },
    {
      "x": 300,
      "y": 279,
      "size": 1,
      "price": "1011000000000000000000",
      "reserved": "",
      "salt": "0x5b69651b2bcb11ede2b8fb26c07698ece2c435d03b03136145e0e814c18103b2",
      "assetIds": []
    },
    {
      "x": 300,
      "y": 280,
      "size": 1,
      "price": "1011000000000000000000",
      "reserved": "",
      "salt": "0xd508fc1189110f532a76f17655bddb7a1746c22528366787122a984e0c5212d1",
      "assetIds": []
    },
    {
      "x": 300,
      "y": 281,
      "size": 1,
      "price": "1011000000000000000000",
      "reserved": "",
      "salt": "0xcceaad9ff983778e23589e0e0a5b357bb0ae2d4b21e5a364d8836b36f9d95f84",
      "assetIds": []
    },
    {
      "x": 300,
      "y": 282,
      "size": 1,
      "price": "1011000000000000000000",
      "reserved": "",
      "salt": "0x09fff29ade49fda4bdd284a010ab5c75207df9c6cf269c530b8afc0bd8426a8f",
      "assetIds": []
    },
    {
      "x": 300,
      "y": 283,
      "size": 1,
      "price": "1011000000000000000000",
      "reserved": "",
      "salt": "0xb9454382e4afbbd671f4dbefaafe8d1ae872a43c3f2f087f6c38e4a30b7f621b",
      "assetIds": []
    },
    {
      "x": 300,
      "y": 284,
      "size": 1,
      "price": "1011000000000000000000",
      "reserved": "",
      "salt": "0xc45c4d4fa4850df8bde079d759172f830dd1cecd323d317e5ef93abd391467df",
      "assetIds": []
    },
    {
      "x": 300,
      "y": 285,
      "size": 1,
      "price": "1011000000000000000000",
      "reserved": "",
      "salt": "0x1d265c1591e06ed29447cab69e0542d5873fdfe5f6ddb9eae085bfb97944b762",
      "assetIds": []
    },
    {
      "x": 300,
      "y": 286,
      "size": 1,
      "price": "1011000000000000000000",
      "reserved": "0x7a9fe22691c811ea339d9b73150e6911a5343dca",
      "salt": "0xf3f4e6b1a44c92e84f43b13074808d88ec4ea40306095b289cbd1b4ff98dd0e7",
      "assetIds": []
    },
    {
      "x": 300,
      "y": 287,
      "size": 1,
      "price": "4683000000000000000000",
      "reserved": "",
      "salt": "0x50e5ee73f49e63dfa788daddd75b6a01f0eebaca7c92638fdc77e89489b382a1",
      "assetIds": [
        "41506478881403507969696680653240014914910929820314476107906210059990541021189"
      ]
    },
    {
      "x": 300,
      "y": 300,
      "size": 1,
      "price": "4683000000000000000000",
      "reserved": "",
      "salt": "0x3764892de76dab2786e571044e606a47f861767aa2aa822c82c927725e44dc11",
      "assetIds": [
        "41506478881403507969696680653240014914910929820314476107906210059990541021186"
      ]
    },
    {
      "x": 300,
      "y": 301,
      "size": 1,
      "price": "1011000000000000000000",
      "reserved": "",
      "salt": "0xda127607ce9da6dc1fb3098c35f9e5c3832be06633808ec09eb0a0c2a5e970f7",
      "assetIds": []
    },
    {
      "x": 300,
      "y": 302,
      "size": 1,
      "price": "1011000000000000000000",
      "reserved": "",
      "salt": "0xfc84a2da61821f36e682945f3173df868e28c7baf59db34cde6fb40d87dfaf3b",
      "assetIds": []
    },
    {
      "x": 300,
      "y": 303,
      "size": 1,
      "price": "1011000000000000000000",
      "reserved": "",
      "salt": "0x4e0e4b003111612f4f01ae5c92381429f45d034dd5db8fc43095da332e587a05",
      "assetIds": []
    },
    {
      "x": 300,
      "y": 304,
      "size": 1,
      "price": "1011000000000000000000",
      "reserved": "",
      "salt": "0x6ee8a972f358a5cc319790a4aa1bd071989b9b7928dd1cdf9c20d98f8986b60e",
      "assetIds": []
    },
    {
      "x": 300,
      "y": 305,
      "size": 1,
      "price": "1011000000000000000000",
      "reserved": "",
      "salt": "0xf9933a1018be6d73cca98aac2c0da158ebfbd6bc9100a5ab15649eda3133103d",
      "assetIds": []
    },
    {
      "x": 300,
      "y": 306,
      "size": 1,
      "price": "1011000000000000000000",
      "reserved": "",
      "salt": "0x066fdcc704517653b3054d2540fa3924306f622d89db648e537cbb8fe8ccc3b9",
      "assetIds": []
    },
    {
      "x": 300,
      "y": 307,
      "size": 1,
      "price": "1011000000000000000000",
      "reserved": "",
      "salt": "0x2c469089100bb1c6d0f6ed00060ae50f0cd277577b77373013e69dadfa2f465c",
      "assetIds": []
    },
    {
      "x": 300,
      "y": 308,
      "size": 1,
      "price": "1011000000000000000000",
      "reserved": "",
      "salt": "0x2079568727f2da1ee0bca58e8bbbb2458798043ca52158dcab3b7da08282aa0a",
      "assetIds": []
    },
    {
      "x": 300,
      "y": 309,
      "size": 1,
      "price": "1011000000000000000000",
      "reserved": "",
      "salt": "0x9764a8bfea9ce777416fa841d35be23b571cf04c3d16ad7815f24fe9a9ff3af5",
      "assetIds": []
    },
    {
      "x": 300,
      "y": 310,
      "size": 1,
      "price": "1011000000000000000000",
      "reserved": "",
      "salt": "0xdfbef92c01e3adea7150525470ea0b6edc02b53d81d10b41bb417da5138b2d6e",
      "assetIds": []
    },
    {
      "x": 300,
      "y": 311,
      "size": 1,
      "price": "1011000000000000000000",
      "reserved": "",
      "salt": "0xdcc8f529d8f7dd47f78e0005325762f4683ef20f28aaadcad2867c199a6d26a1",
      "assetIds": []
    },
    {
      "x": 301,
      "y": 279,
      "size": 1,
      "price": "1011000000000000000000",
      "reserved": "",
      "salt": "0xd6c5038bb76a30a77f12dd2a89c0ca58285eb2a8399e90e4b625c1e4a09e4899",
      "assetIds": []
    },
    {
      "x": 301,
      "y": 280,
      "size": 1,
      "price": "1011000000000000000000",
      "reserved": "0x7a9fe22691c811ea339d9b73150e6911a5343dca",
      "salt": "0x6c40723bf4c6d41ffd666ff4ad3dffacdde23008fae98fbdac8d54efa7fb35f3",
      "assetIds": []
    },
    {
      "x": 301,
      "y": 281,
      "size": 1,
      "price": "1011000000000000000000",
      "reserved": "",
      "salt": "0xf6f0123e83998b241b85aa140806a0f20b6172233fdf7572eba5b94f8141f023",
      "assetIds": []
    },
    {
      "x": 301,
      "y": 282,
      "size": 1,
      "price": "1011000000000000000000",
      "reserved": "",
      "salt": "0xc24dbb84a4af67be53f48aea354779b135617214416b4a1634ad359d44e8d798",
      "assetIds": []
    },
    {
      "x": 301,
      "y": 283,
      "size": 1,
      "price": "1011000000000000000000",
      "reserved": "0x7a9fe22691c811ea339d9b73150e6911a5343dca",
      "salt": "0x5d6e9db0e966365eef845d430f17823c00146206c0bd90d1008301e9d635cbf4",
      "assetIds": []
    },
    {
      "x": 301,
      "y": 284,
      "size": 1,
      "price": "1011000000000000000000",
      "reserved": "",
      "salt": "0xf5509d9bcabf69ee93a98cc5c1c83d78bd76ae9c2812aee306d189ed022537e1",
      "assetIds": []
    },
    {
      "x": 301,
      "y": 285,
      "size": 1,
      "price": "1011000000000000000000",
      "reserved": "",
      "salt": "0xbdd2048c16f60585f22ad544fa477bb65594d882ed872e86b9f5b02d3bcfd7d1",
      "assetIds": []
    },
    {
      "x": 301,
      "y": 286,
      "size": 1,
      "price": "4683000000000000000000",
      "reserved": "",
      "salt": "0xf9c9a58c0d979df1f1202773812c8f13716f23353ef073b58402a8922318deaf",
      "assetIds": [
        "41506478881403507969696680653240014914910929820314476107906210059990541021187"
      ]
    },
    {
      "x": 301,
      "y": 287,
      "size": 1,
      "price": "4683000000000000000000",
      "reserved": "",
      "salt": "0xd0bd34d70c287a3f26a5fd905922c17f25edcecfdcf857690a4dac081077f711",
      "assetIds": [
        "41506478881403507969696680653240014914910929820314476107906210059990541021187"
      ]
    },
    {
      "x": 301,
      "y": 300,
      "size": 1,
      "price": "4683000000000000000000",
      "reserved": "",
      "salt": "0xc280479bfb1cf71dff420ccd2c1412094205e394bb6b11368ec8213b4851516c",
      "assetIds": [
        "41506478881403507969696680653240014914910929820314476107906210059990541021189"
      ]
    },
    {
      "x": 301,
      "y": 301,
      "size": 1,
      "price": "1011000000000000000000",
      "reserved": "0x7a9fe22691c811ea339d9b73150e6911a5343dca",
      "salt": "0x5d1e04660200c9cd63194572e1fd4ab49303b2d4590146c8e19bab139f07ce28",
      "assetIds": []
    },
    {
      "x": 301,
      "y": 302,
      "size": 1,
      "price": "1011000000000000000000",
      "reserved": "",
      "salt": "0xc601cec4f81a00d56a5fd803b783b532373a3ff08af27fce670f571526053144",
      "assetIds": []
    },
    {
      "x": 301,
      "y": 303,
      "size": 1,
      "price": "1011000000000000000000",
      "reserved": "",
      "salt": "0x5046fc06bc89baaebe5436d725e50ae9ffe06aa70553ce00ecc00dfb1428de7b",
      "assetIds": []
    },
    {
      "x": 301,
      "y": 304,
      "size": 1,
      "price": "1011000000000000000000",
      "reserved": "",
      "salt": "0xd8c8b7a37b88db3fe6ed0d79e7a1dc266ebfaf409e6261ed1678d331dbd3bc36",
      "assetIds": []
    },
    {
      "x": 301,
      "y": 305,
      "size": 1,
      "price": "1011000000000000000000",
      "reserved": "0x7a9fe22691c811ea339d9b73150e6911a5343dca",
      "salt": "0x96fd62edd402c840dfb4a52d104013391ff0e5ae03dfce7e5f2b221d67a7d0ad",
      "assetIds": []
    },
    {
      "x": 301,
      "y": 306,
      "size": 1,
      "price": "1011000000000000000000",
      "reserved": "",
      "salt": "0x9b45219bf7018831002026e9b30a4a791aef2931672deb0ae107b7df6a9c5d13",
      "assetIds": []
    },
    {
      "x": 301,
      "y": 307,
      "size": 1,
      "price": "1011000000000000000000",
      "reserved": "",
      "salt": "0xd0946ff982c025cef490013af749f399f4de88b74d427eacf9671aa0131f8443",
      "assetIds": []
    },
    {
      "x": 301,
      "y": 308,
      "size": 1,
      "price": "1011000000000000000000",
      "reserved": "",
      "salt": "0xd5db733df10dae6f7729099995595e2df4e796290eae807d102e79c8bdeb11ef",
      "assetIds": []
    },
    {
      "x": 301,
      "y": 309,
      "size": 1,
      "price": "1011000000000000000000",
      "reserved": "0x7a9fe22691c811ea339d9b73150e6911a5343dca",
      "salt": "0x53a269d8d0e957b14e5b2c7d149b9e376c2c9015406f09645773609ee502dfa2",
      "assetIds": []
    },
    {
      "x": 301,
      "y": 310,
      "size": 1,
      "price": "1011000000000000000000",
      "reserved": "",
      "salt": "0x7e8a919cb2b65dbc1518d0c6c7da8bd614ccd6faa7b687042036d20da57a5420",
      "assetIds": []
    },
    {
      "x": 301,
      "y": 311,
      "size": 1,
      "price": "1011000000000000000000",
      "reserved": "",
      "salt": "0x8e89823e399654b2f579785290f5dd01fb97a2f5d9aa40fefd9dd5ee9ee9144a",
      "assetIds": []
    },
    {
      "x": 302,
      "y": 279,
      "size": 1,
      "price": "1011000000000000000000",
      "reserved": "",
      "salt": "0xf2bafa0ec2994ce47e809f7edf54d782e7e949e207e6abfb5c204a2a64fc02d9",
      "assetIds": []
    },
    {
      "x": 302,
      "y": 280,
      "size": 1,
      "price": "1011000000000000000000",
      "reserved": "",
      "salt": "0x5ca7c62d894bdf08fa096a4d09ef6240d2d59b08610d4d301b8288c6edde2ae2",
      "assetIds": []
    },
    {
      "x": 302,
      "y": 281,
      "size": 1,
      "price": "1011000000000000000000",
      "reserved": "",
      "salt": "0xda3ce5a63e84721d6a5e41e9cf55e13b8e9f418cd03d6ed1d9b3e5ddee0de959",
      "assetIds": []
    },
    {
      "x": 302,
      "y": 282,
      "size": 1,
      "price": "1011000000000000000000",
      "reserved": "",
      "salt": "0x36745061e16a71e7b8fd62f6833439576078a6cbd3827b4b161d45b43bb79e56",
      "assetIds": []
    },
    {
      "x": 302,
      "y": 283,
      "size": 1,
      "price": "1011000000000000000000",
      "reserved": "",
      "salt": "0x0babc6a4718febf6ae65bf6b55089e92e89ca0b7c77dc0121dfe08b445525360",
      "assetIds": []
    },
    {
      "x": 302,
      "y": 284,
      "size": 1,
      "price": "1011000000000000000000",
      "reserved": "",
      "salt": "0x0b0a506464bac1180c59065616b10006b1c58e9e25699e614ec5bf15df43b115",
      "assetIds": []
    },
    {
      "x": 302,
      "y": 285,
      "size": 1,
      "price": "4683000000000000000000",
      "reserved": "",
      "salt": "0xa11ec4e60bc3bcf630410be5441dcbf8d6bd0d30d6f983e8d0b348e8bca2d7db",
      "assetIds": [
        "41506478881403507969696680653240014914910929820314476107906210059990541021187"
      ]
    },
    {
      "x": 302,
      "y": 286,
      "size": 1,
      "price": "4683000000000000000000",
      "reserved": "",
      "salt": "0xb11bde814c2e7e85010da47a4e603427f59fe28bc8aadcb27e315e3fc46e30c0",
      "assetIds": [
        "41506478881403507969696680653240014914910929820314476107906210059990541021186"
      ]
    },
    {
      "x": 302,
      "y": 287,
      "size": 1,
      "price": "4683000000000000000000",
      "reserved": "",
      "salt": "0x657ea37cab4c8fdd7ab0445cf35483755919e951614d761b417dbf9fe5882efe",
      "assetIds": [
        "41506478881403507969696680653240014914910929820314476107906210059990541021189"
      ]
    },
    {
      "x": 302,
      "y": 300,
      "size": 1,
      "price": "4683000000000000000000",
      "reserved": "",
      "salt": "0xe8aa70cdf3db5654d709fcabfa9caa73e30388c7550944f9c335ab949a366cad",
      "assetIds": [
        "41506478881403507969696680653240014914910929820314476107906210059990541021188"
      ]
    },
    {
      "x": 302,
      "y": 301,
      "size": 1,
      "price": "1011000000000000000000",
      "reserved": "",
      "salt": "0x168705a7dbf229a0c30e59c585a8ce48cd858b7fd9336d9103f7fa7f0e75a53c",
      "assetIds": []
    },
    {
      "x": 302,
      "y": 302,
      "size": 1,
      "price": "1011000000000000000000",
      "reserved": "0x7a9fe22691c811ea339d9b73150e6911a5343dca",
      "salt": "0xfd410a88ce9ff32c8bbcc0c9df0e9fcbdd078bb1898f2b0d18de063680470025",
      "assetIds": []
    },
    {
      "x": 302,
      "y": 303,
      "size": 1,
      "price": "1011000000000000000000",
      "reserved": "",
      "salt": "0x3d89a2ab2f4cae15968880c7f99dbd366c541d16c32373f5b3c143bf47b7aaf5",
      "assetIds": []
    },
    {
      "x": 302,
      "y": 304,
      "size": 1,
      "price": "1011000000000000000000",
      "reserved": "",
      "salt": "0xef6a6c26b196c85fef06c72f13ae7c06a12ff24a98b77163fd011e28e54d1665",
      "assetIds": []
    },
    {
      "x": 302,
      "y": 305,
      "size": 1,
      "price": "1011000000000000000000",
      "reserved": "",
      "salt": "0x74991ea64b88d167f62c366cc6a40ab86521fe87876998ef8e49e53931d704a6",
      "assetIds": []
    },
    {
      "x": 302,
      "y": 306,
      "size": 1,
      "price": "1011000000000000000000",
      "reserved": "",
      "salt": "0x08f007e90be943b0b3bd34849266a20fdc5b251f6b9aa2ced0bc9ad0753fa865",
      "assetIds": []
    },
    {
      "x": 302,
      "y": 307,
      "size": 1,
      "price": "1011000000000000000000",
      "reserved": "",
      "salt": "0x834ed785e068c882cd01897747a960e626c070917a8b154b68744a901aaaaa22",
      "assetIds": []
    },
    {
      "x": 302,
      "y": 308,
      "size": 1,
      "price": "1011000000000000000000",
      "reserved": "",
      "salt": "0xf988ad685f64e8e5e5582af9a5883555d8e64334499e741ec49e681fc7c50c09",
      "assetIds": []
    },
    {
      "x": 302,
      "y": 309,
      "size": 1,
      "price": "1011000000000000000000",
      "reserved": "",
      "salt": "0xcf1519145872eddd27b10376cd352b351e13c43366e0853ac8979d9934127ca7",
      "assetIds": []
    },
    {
      "x": 302,
      "y": 310,
      "size": 1,
      "price": "1011000000000000000000",
      "reserved": "",
      "salt": "0xb44ddf775c77b37496d68415d8e557b3f0d1bbac153003b63367bc4cd0f4b9cc",
      "assetIds": []
    },
    {
      "x": 302,
      "y": 311,
      "size": 1,
      "price": "1011000000000000000000",
      "reserved": "",
      "salt": "0x62a96e73e40b776a82f45c814a9fb5cdff00922af11e5123593731d76a45ff0c",
      "assetIds": []
    },
    {
      "x": 303,
      "y": 279,
      "size": 1,
      "price": "1011000000000000000000",
      "reserved": "",
      "salt": "0x066bb13332c5c7a97c570c99b5388082de3ce392aa06a1d28c5f8f983ea67663",
      "assetIds": []
    },
    {
      "x": 303,
      "y": 280,
      "size": 1,
      "price": "1011000000000000000000",
      "reserved": "0x7a9fe22691c811ea339d9b73150e6911a5343dca",
      "salt": "0x1b0f7aa2887ed48bbdb3bd72de12598c80ed647900c524c11bfc258a087067e1",
      "assetIds": []
    },
    {
      "x": 303,
      "y": 281,
      "size": 1,
      "price": "1011000000000000000000",
      "reserved": "",
      "salt": "0x7d308531d8d9c32ff5237832de00ba86530388f1b4068f5c130564425d9b191e",
      "assetIds": []
    },
    {
      "x": 303,
      "y": 282,
      "size": 1,
      "price": "1011000000000000000000",
      "reserved": "",
      "salt": "0xd1754f640504cc6e48d3928e51ed416224da8f3e509d3fbbb67b5da025262d45",
      "assetIds": []
    },
    {
      "x": 303,
      "y": 283,
      "size": 1,
      "price": "1011000000000000000000",
      "reserved": "",
      "salt": "0x136041bcf69184ed3b40cd60e4f3bb3e527ed1e8ff958cdea16b133388ddefb9",
      "assetIds": []
    },
    {
      "x": 303,
      "y": 284,
      "size": 1,
      "price": "4683000000000000000000",
      "reserved": "",
      "salt": "0xf913dfcc1e1881a9ec38949314f1694b6e55a1e55727456dc473152a3b875ab3",
      "assetIds": [
        "41506478881403507969696680653240014914910929820314476107906210059990541021188"
      ]
    },
    {
      "x": 303,
      "y": 300,
      "size": 1,
      "price": "4683000000000000000000",
      "reserved": "",
      "salt": "0x1ce917ccafa0f04c6108133b8bb00945ef3181ed314066605abfc74ff056ee44",
      "assetIds": [
        "41506478881403507969696680653240014914910929820314476107906210059990541021187"
      ]
    },
    {
      "x": 303,
      "y": 301,
      "size": 1,
      "price": "1011000000000000000000",
      "reserved": "0x7a9fe22691c811ea339d9b73150e6911a5343dca",
      "salt": "0x36e4f70c8bfa944a1ec5f3dbaea45310caae216be474bf416bfa7ea544af4d95",
      "assetIds": []
    },
    {
      "x": 303,
      "y": 302,
      "size": 1,
      "price": "1011000000000000000000",
      "reserved": "",
      "salt": "0xb0725dae9666e2ed3bddc2a71491ea8fae2551ab87e7e943d963f5a89cfd912a",
      "assetIds": []
    },
    {
      "x": 303,
      "y": 303,
      "size": 1,
      "price": "1011000000000000000000",
      "reserved": "",
      "salt": "0x9ea33d994c4b5d44e1586999d5d9990c5e9adae163686b6f529335fd039453a4",
      "assetIds": []
    },
    {
      "x": 303,
      "y": 304,
      "size": 1,
      "price": "1011000000000000000000",
      "reserved": "0x7a9fe22691c811ea339d9b73150e6911a5343dca",
      "salt": "0xe39b34ee205af869d118fa5743dc1b8d446543840043ced17799ea0f80f80727",
      "assetIds": []
    },
    {
      "x": 303,
      "y": 305,
      "size": 1,
      "price": "1011000000000000000000",
      "reserved": "",
      "salt": "0x4afc194edf37b777e4f43edf26e4a1f371846651227e4b6d04959a8661baaa0b",
      "assetIds": []
    },
    {
      "x": 303,
      "y": 306,
      "size": 1,
      "price": "1011000000000000000000",
      "reserved": "",
      "salt": "0x6806ee39c14641c29a306d22a7c41d05cbea8cf9ba4fdde11efeb19c7f094f4b",
      "assetIds": []
    },
    {
      "x": 303,
      "y": 307,
      "size": 1,
      "price": "1011000000000000000000",
      "reserved": "0x7a9fe22691c811ea339d9b73150e6911a5343dca",
      "salt": "0xb1ba87f3203563c9575e17e05dfae8dc21901bee5c7c8ed9665dd4f8d4749f2f",
      "assetIds": []
    },
    {
      "x": 303,
      "y": 308,
      "size": 1,
      "price": "1011000000000000000000",
      "reserved": "",
      "salt": "0x9566fba180054145a0df627a48718fcf901d1b72ebc026f4b6743d9079d93304",
      "assetIds": []
    },
    {
      "x": 303,
      "y": 309,
      "size": 1,
      "price": "1011000000000000000000",
      "reserved": "",
      "salt": "0xf4cac7f3ff387b3cee4c0a7d1310bd2a7f19cf65a37e348dae0261b2db95647b",
      "assetIds": []
    },
    {
      "x": 303,
      "y": 310,
      "size": 1,
      "price": "1011000000000000000000",
      "reserved": "",
      "salt": "0x6ea64973626f925fc3e1d7a7fdad474d31927cf46a405939221604cda59788c5",
      "assetIds": []
    },
    {
      "x": 303,
      "y": 311,
      "size": 1,
      "price": "1011000000000000000000",
      "reserved": "0x7a9fe22691c811ea339d9b73150e6911a5343dca",
      "salt": "0x467d58b7745c0fa0894b6295efc06fcf9ad54910204c01a62a59b593764392dd",
      "assetIds": []
    },
    {
      "x": 304,
      "y": 279,
      "size": 1,
      "price": "1011000000000000000000",
      "reserved": "0x7a9fe22691c811ea339d9b73150e6911a5343dca",
      "salt": "0x8caef95eb3dc7ec60e781c7c079ba840741c9c5c23010b21e16ee0f30c955f59",
      "assetIds": []
    },
    {
      "x": 304,
      "y": 280,
      "size": 1,
      "price": "1011000000000000000000",
      "reserved": "",
      "salt": "0x28fa9f0ca5b59fb492c41e77c6330fdc4c79328942e264f9db2405b35b780363",
      "assetIds": []
    },
    {
      "x": 304,
      "y": 281,
      "size": 1,
      "price": "1011000000000000000000",
      "reserved": "",
      "salt": "0x36045f90073cbe6dd373da6c5c4f1c6d59d2a121b78a2e29a7d059913e853aad",
      "assetIds": []
    },
    {
      "x": 304,
      "y": 282,
      "size": 1,
      "price": "1011000000000000000000",
      "reserved": "",
      "salt": "0x1ba47ae682c12dee8803a729c2b679ddc16410009ac64993bc1d1780f4daf160",
      "assetIds": []
    },
    {
      "x": 304,
      "y": 283,
      "size": 1,
      "price": "1011000000000000000000",
      "reserved": "0x7a9fe22691c811ea339d9b73150e6911a5343dca",
      "salt": "0x2ab4172707cd66471b24f071f5ebc0f3c92691612afc5d12c509443ecba5d646",
      "assetIds": []
    },
    {
      "x": 304,
      "y": 284,
      "size": 1,
      "price": "4683000000000000000000",
      "reserved": "",
      "salt": "0x08c2f2ba2f9f9215a896016db77c929966f576eb94787d967cf89ebca2f7df42",
      "assetIds": [
        "41506478881403507969696680653240014914910929820314476107906210059990541021187"
      ]
    },
    {
      "x": 304,
      "y": 300,
      "size": 1,
      "price": "4683000000000000000000",
      "reserved": "",
      "salt": "0x78b696118990f0fe9b109c87cbc82a6cd120e957940da0db17014577fc02fb00",
      "assetIds": [
        "41506478881403507969696680653240014914910929820314476107906210059990541021189"
      ]
    },
    {
      "x": 304,
      "y": 301,
      "size": 1,
      "price": "1011000000000000000000",
      "reserved": "0x7a9fe22691c811ea339d9b73150e6911a5343dca",
      "salt": "0x135668440a12e799e10408606bb760bd9764ef1ecfe2cd20a873faae14848b10",
      "assetIds": []
    },
    {
      "x": 304,
      "y": 302,
      "size": 1,
      "price": "1011000000000000000000",
      "reserved": "",
      "salt": "0x6d23fd4a8015470411ee2c0c69139e643a0237c14b6127e3a60a94e22b8c190d",
      "assetIds": []
    },
    {
      "x": 304,
      "y": 303,
      "size": 1,
      "price": "1011000000000000000000",
      "reserved": "",
      "salt": "0x6ef6a339133e8edbf9090eb5deedad0664b7bd9b012dff8e47184877efda1333",
      "assetIds": []
    },
    {
      "x": 304,
      "y": 304,
      "size": 1,
      "price": "1011000000000000000000",
      "reserved": "",
      "salt": "0x735ae7d3ebecab76d1d216e481414de851ec3220868eaa66a737d87eb2fca486",
      "assetIds": []
    },
    {
      "x": 304,
      "y": 305,
      "size": 1,
      "price": "1011000000000000000000",
      "reserved": "",
      "salt": "0xb875e26ab29cfd9379a68381e1ddcbd2b3d3d455a716a77c5aea1fe1fcda3e80",
      "assetIds": []
    },
    {
      "x": 304,
      "y": 306,
      "size": 1,
      "price": "1011000000000000000000",
      "reserved": "0x7a9fe22691c811ea339d9b73150e6911a5343dca",
      "salt": "0x40318005303801e34bc3c7c8c69e0703aa5fd8b65f10add3847c206c35d67c80",
      "assetIds": []
    },
    {
      "x": 304,
      "y": 307,
      "size": 1,
      "price": "1011000000000000000000",
      "reserved": "",
      "salt": "0x82d930d525fdc6542896c0e8b5c5948b8d041f566173c2413b032df007bdadee",
      "assetIds": []
    },
    {
      "x": 304,
      "y": 308,
      "size": 1,
      "price": "1011000000000000000000",
      "reserved": "",
      "salt": "0xc3f03b1eb4cb2c02e2fa772847780a0fda1a4b3f45ead2b9e6a22069d6d254c3",
      "assetIds": []
    },
    {
      "x": 304,
      "y": 309,
      "size": 1,
      "price": "1011000000000000000000",
      "reserved": "",
      "salt": "0xb2613f148ed5d701790e1db0d488b22dae0e7bbb2b69d1a1f855d1dac10f47a6",
      "assetIds": []
    },
    {
      "x": 304,
      "y": 310,
      "size": 1,
      "price": "1011000000000000000000",
      "reserved": "",
      "salt": "0xf12ddf1b8989268000a600a639c9e7dd25bc5b64d853bd5cc4fd49843a26225f",
      "assetIds": []
    },
    {
      "x": 304,
      "y": 311,
      "size": 1,
      "price": "1011000000000000000000",
      "reserved": "",
      "salt": "0xa6b190e6bafef8a6c418d8ae2823ede6b4860115834058618500629084daba6d",
      "assetIds": []
    },
    {
      "x": 305,
      "y": 279,
      "size": 1,
      "price": "1011000000000000000000",
      "reserved": "",
      "salt": "0x41d4cdb8097b2f52d6a34311b4fc28ca7221a6a2777d2e41381dcb33694e451b",
      "assetIds": []
    },
    {
      "x": 305,
      "y": 280,
      "size": 1,
      "price": "1011000000000000000000",
      "reserved": "",
      "salt": "0x7dc2c8e5e78475fd5f2af0be137075a4f35d688d3f2902a900a0f3a920582c8f",
      "assetIds": []
    },
    {
      "x": 305,
      "y": 281,
      "size": 1,
      "price": "4683000000000000000000",
      "reserved": "",
      "salt": "0x1d809813844e9ee8bda52b3630ddeddd893a0578f3a702df13c14cd37e3b3d14",
      "assetIds": [
        "41506478881403507969696680653240014914910929820314476107906210059990541021188"
      ]
    },
    {
      "x": 305,
      "y": 282,
      "size": 1,
      "price": "4683000000000000000000",
      "reserved": "",
      "salt": "0x79b9c2c0100709112191530aa7a2e9c990b7a00bd331b84c085b9183851c23bd",
      "assetIds": [
        "41506478881403507969696680653240014914910929820314476107906210059990541021189"
      ]
    },
    {
      "x": 305,
      "y": 283,
      "size": 1,
      "price": "4683000000000000000000",
      "reserved": "",
      "salt": "0x401428e957558ea78f3270db332175557069664bd9b48815af414753e6e1c686",
      "assetIds": [
        "41506478881403507969696680653240014914910929820314476107906210059990541021186"
      ]
    },
    {
      "x": 305,
      "y": 284,
      "size": 1,
      "price": "4683000000000000000000",
      "reserved": "",
      "salt": "0x579ce0ce6edf32bb944296d614a6b24e354e3ae319ab5c5f599ae5ede6d68994",
      "assetIds": [
        "41506478881403507969696680653240014914910929820314476107906210059990541021189"
      ]
    },
    {
      "x": 305,
      "y": 300,
      "size": 1,
      "price": "4683000000000000000000",
      "reserved": "",
      "salt": "0xc3cc4fb5477175c9521adc0045040faa2516e9014fe689a8676b296c0e33e16b",
      "assetIds": [
        "41506478881403507969696680653240014914910929820314476107906210059990541021188"
      ]
    },
    {
      "x": 305,
      "y": 301,
      "size": 1,
      "price": "1011000000000000000000",
      "reserved": "",
      "salt": "0xe96155b875f40fd71881d6fa52ee4ffe5b6f491b9514fdb27e9996ea0a65427f",
      "assetIds": []
    },
    {
      "x": 305,
      "y": 302,
      "size": 1,
      "price": "1011000000000000000000",
      "reserved": "0x7a9fe22691c811ea339d9b73150e6911a5343dca",
      "salt": "0xfa5bd32c0860e7311ba70e485a0310e17515c6ebcf428501798dea26b32be2a7",
      "assetIds": []
    },
    {
      "x": 305,
      "y": 303,
      "size": 1,
      "price": "1011000000000000000000",
      "reserved": "",
      "salt": "0x5e0ae1fe5d74103865d0a478e38708b11bdaf70c75a8f912727021ddf0d353bd",
      "assetIds": []
    },
    {
      "x": 305,
      "y": 304,
      "size": 1,
      "price": "1011000000000000000000",
      "reserved": "",
      "salt": "0x6c59485be6fb181b2a4e37c3f4c571ffbe6ae2562691ecb9a27427e19ac96bb9",
      "assetIds": []
    },
    {
      "x": 305,
      "y": 305,
      "size": 1,
      "price": "1011000000000000000000",
      "reserved": "",
      "salt": "0xc00199b33a9f729e8122351f4e6363dcc8be61b906cca3ee18b347d5f3d238e2",
      "assetIds": []
    },
    {
      "x": 305,
      "y": 306,
      "size": 1,
      "price": "1011000000000000000000",
      "reserved": "",
      "salt": "0x0c98dd2313b4fc7d55b051dea5708dc3b23cd073bf78c49901fde060e7336904",
      "assetIds": []
    },
    {
      "x": 305,
      "y": 307,
      "size": 1,
      "price": "1011000000000000000000",
      "reserved": "",
      "salt": "0x0d298274109745aacf9c8567e6937553f94f890c606e117e0918cd5b7cdb08d8",
      "assetIds": []
    },
    {
      "x": 305,
      "y": 308,
      "size": 1,
      "price": "1011000000000000000000",
      "reserved": "0x7a9fe22691c811ea339d9b73150e6911a5343dca",
      "salt": "0xef5cc17cb75ce8ad63301fd990406f9c7c6b7e49901e30ce22daa00605e5b4aa",
      "assetIds": []
    },
    {
      "x": 305,
      "y": 309,
      "size": 1,
      "price": "1011000000000000000000",
      "reserved": "",
      "salt": "0xc8a0e08069f3e1140cf7f8785da87aba4526f5480622077a1bbe2c9badfe22f5",
      "assetIds": []
    },
    {
      "x": 305,
      "y": 310,
      "size": 1,
      "price": "1011000000000000000000",
      "reserved": "",
      "salt": "0x87a9ef8c6cc03ba38a1249f1221616f36dcb62c867ab51384e51ea357c8b349e",
      "assetIds": []
    },
    {
      "x": 305,
      "y": 311,
      "size": 1,
      "price": "1011000000000000000000",
      "reserved": "",
      "salt": "0x47c8181aa04dd297e3001afde4bf14beadc5313edba3af557e46b8a778a7e29c",
      "assetIds": []
    },
    {
      "x": 306,
      "y": 279,
      "size": 1,
      "price": "1011000000000000000000",
      "reserved": "0x7a9fe22691c811ea339d9b73150e6911a5343dca",
      "salt": "0x9be1c5cfe21aa3745b52030707d551542643eaa00daf169c1f6d15ccd897c458",
      "assetIds": []
    },
    {
      "x": 306,
      "y": 280,
      "size": 1,
      "price": "1011000000000000000000",
      "reserved": "",
      "salt": "0x34f3f9ef3e7bd08f300e40d1c2c75df7f5dca1f95a7821a2b806e144ae735a68",
      "assetIds": []
    },
    {
      "x": 306,
      "y": 281,
      "size": 1,
      "price": "4683000000000000000000",
      "reserved": "",
      "salt": "0x00dd429b8fbe0b16e6491215d4ae4fc828a72281901710e24c3b5a610d6a60f3",
      "assetIds": [
        "41506478881403507969696680653240014914910929820314476107906210059990541021188"
      ]
    },
    {
      "x": 306,
      "y": 300,
      "size": 1,
      "price": "4683000000000000000000",
      "reserved": "",
      "salt": "0x3c1cf3af9129110fa3f92d41edebb3011f473967842ab9ad765e83b1bd4dac75",
      "assetIds": [
        "41506478881403507969696680653240014914910929820314476107906210059990541021186"
      ]
    },
    {
      "x": 306,
      "y": 301,
      "size": 1,
      "price": "1011000000000000000000",
      "reserved": "0x7a9fe22691c811ea339d9b73150e6911a5343dca",
      "salt": "0x7e3afa3abae9a48ccae2be1588e4402ad9e5d75da8521b0c3cce3e7e32079b36",
      "assetIds": []
    },
    {
      "x": 306,
      "y": 302,
      "size": 1,
      "price": "1011000000000000000000",
      "reserved": "",
      "salt": "0x0b25faa5460fea823db1bdf43946bd830caffbdc9c7387267fc514c02c66098b",
      "assetIds": []
    },
    {
      "x": 306,
      "y": 303,
      "size": 1,
      "price": "1011000000000000000000",
      "reserved": "",
      "salt": "0x5be3d46425b475ce29523e78d4de8457f00dced80e39c1c84805b6393ace2995",
      "assetIds": []
    },
    {
      "x": 306,
      "y": 304,
      "size": 1,
      "price": "1011000000000000000000",
      "reserved": "",
      "salt": "0xf563ac7ed909defffdb46f45d46ade19c1ef8e414b050b2234c71d027d8aba45",
      "assetIds": []
    },
    {
      "x": 306,
      "y": 305,
      "size": 1,
      "price": "1011000000000000000000",
      "reserved": "",
      "salt": "0x03e8c0e817c0559b151ab81174a4dc51d5fd34e4cea0f01fa8816b55764552fd",
      "assetIds": []
    },
    {
      "x": 306,
      "y": 306,
      "size": 1,
      "price": "1011000000000000000000",
      "reserved": "",
      "salt": "0xad985b8fb0ba726a7a50e08f4ef061227dbdb3c9f30e8f5197968070d26a16d2",
      "assetIds": []
    },
    {
      "x": 306,
      "y": 307,
      "size": 1,
      "price": "1011000000000000000000",
      "reserved": "",
      "salt": "0x10c7efe3c4f08856e84bad2348bcaecc51effbbc4236164a064d1fbbee1ebf87",
      "assetIds": []
    },
    {
      "x": 306,
      "y": 308,
      "size": 1,
      "price": "1011000000000000000000",
      "reserved": "",
      "salt": "0x764875d8d43fdc12d05398e6976728f3b282044b9eae11701e59d8504a6fa9f8",
      "assetIds": []
    },
    {
      "x": 306,
      "y": 309,
      "size": 1,
      "price": "1011000000000000000000",
      "reserved": "0x7a9fe22691c811ea339d9b73150e6911a5343dca",
      "salt": "0x0fd9730a0d654f32442f069135501078bfab774f5b587791e232202b4cb6aa2e",
      "assetIds": []
    },
    {
      "x": 306,
      "y": 310,
      "size": 1,
      "price": "1011000000000000000000",
      "reserved": "",
      "salt": "0x8833c059ac05c0ad1e40a900467fa55b13c2c555d436ffed70964ea903bc5058",
      "assetIds": []
    },
    {
      "x": 306,
      "y": 311,
      "size": 1,
      "price": "1011000000000000000000",
      "reserved": "",
      "salt": "0xf9bc9ba937ef5544bb6a3c9a87ad3a3b4a0fa263308cd2d243c837e7e8caace3",
      "assetIds": []
    },
    {
      "x": 307,
      "y": 279,
      "size": 1,
      "price": "1011000000000000000000",
      "reserved": "",
      "salt": "0x643b61c098dd3ad13e6b07792e8a8307310eaa39615ec55146e35ed97ce99e17",
      "assetIds": []
    },
    {
      "x": 307,
      "y": 280,
      "size": 1,
      "price": "1011000000000000000000",
      "reserved": "0x7a9fe22691c811ea339d9b73150e6911a5343dca",
      "salt": "0x1237ae58081179c07bea615a753697b1d171925fcc60697a1db2bba39726e394",
      "assetIds": []
    },
    {
      "x": 307,
      "y": 281,
      "size": 1,
      "price": "4683000000000000000000",
      "reserved": "",
      "salt": "0x136e9b7c1b9332597df6aa1d71ab0ac09b3bec763840927a8256a750154a545f",
      "assetIds": [
        "41506478881403507969696680653240014914910929820314476107906210059990541021186"
      ]
    },
    {
      "x": 307,
      "y": 300,
      "size": 1,
      "price": "4683000000000000000000",
      "reserved": "",
      "salt": "0x6e1a642e2b923dff0d858fd2acc49366bd68d2bebb827a25d1cecc0952a52a01",
      "assetIds": [
        "41506478881403507969696680653240014914910929820314476107906210059990541021186"
      ]
    },
    {
      "x": 307,
      "y": 301,
      "size": 1,
      "price": "1011000000000000000000",
      "reserved": "0x7a9fe22691c811ea339d9b73150e6911a5343dca",
      "salt": "0x40e6d9be608bab43d94ce3e0777556a734890a7c6022849b295f558ab2b8e385",
      "assetIds": []
    },
    {
      "x": 307,
      "y": 302,
      "size": 1,
      "price": "1011000000000000000000",
      "reserved": "",
      "salt": "0xda5c64566b2c60aba93453382d7a5e465c71d4d5284c475e2da08dfbfee63f31",
      "assetIds": []
    },
    {
      "x": 307,
      "y": 303,
      "size": 1,
      "price": "1011000000000000000000",
      "reserved": "",
      "salt": "0x019db9b04c866578077836d5318c80eba9cd35d759fc7f0870b4bf8aa1e26260",
      "assetIds": []
    },
    {
      "x": 307,
      "y": 304,
      "size": 1,
      "price": "1011000000000000000000",
      "reserved": "0x7a9fe22691c811ea339d9b73150e6911a5343dca",
      "salt": "0xa53571c9488f00b01c707578e361b79a0062baddb7417b649dc6410578ad3de3",
      "assetIds": []
    },
    {
      "x": 307,
      "y": 305,
      "size": 1,
      "price": "1011000000000000000000",
      "reserved": "",
      "salt": "0xab8243401cbe60fab8509378d104c5e2482234585be0a2ecf6da0b89be746742",
      "assetIds": []
    },
    {
      "x": 307,
      "y": 306,
      "size": 1,
      "price": "1011000000000000000000",
      "reserved": "",
      "salt": "0x8402e8c52eaa11c46b1ded52681acf91692e3421d62dd2c6f656b19875eded92",
      "assetIds": []
    },
    {
      "x": 307,
      "y": 307,
      "size": 1,
      "price": "1011000000000000000000",
      "reserved": "",
      "salt": "0xe8d10c0dd4eecdb721f6e693794f9b714b5bcc25b2993d10021b56c40a13047f",
      "assetIds": []
    },
    {
      "x": 307,
      "y": 308,
      "size": 1,
      "price": "1011000000000000000000",
      "reserved": "",
      "salt": "0x12fb79b222c74cd2340394842c41c34049a0851b62dd2c51cfdfeb0dc178f7e2",
      "assetIds": []
    },
    {
      "x": 307,
      "y": 309,
      "size": 1,
      "price": "1011000000000000000000",
      "reserved": "",
      "salt": "0x3fef89098f81c9f5b3cd7ad9edc8eef0de5fb32ddc020ba7a55976b32512e6a4",
      "assetIds": []
    },
    {
      "x": 307,
      "y": 310,
      "size": 1,
      "price": "1011000000000000000000",
      "reserved": "",
      "salt": "0xdb76656fd586f80aaf0e931f94477e6d255e4c281ad22d6761d9e3ae12ed1fe0",
      "assetIds": []
    },
    {
      "x": 307,
      "y": 311,
      "size": 1,
      "price": "1011000000000000000000",
      "reserved": "",
      "salt": "0x898f98e7e280f76502ffe84c9e35fb9daa9d7fc69503a3b03d728277f39fbf37",
      "assetIds": []
    },
    {
      "x": 308,
      "y": 279,
      "size": 1,
      "price": "1011000000000000000000",
      "reserved": "",
      "salt": "0x89e777aad75023619830df1abdec03eeba1fd846cd171db46fff110c5342bfc8",
      "assetIds": []
    },
    {
      "x": 308,
      "y": 280,
      "size": 1,
      "price": "1011000000000000000000",
      "reserved": "0x7a9fe22691c811ea339d9b73150e6911a5343dca",
      "salt": "0xc4ebb5ac8b85e4b6b2979109efd208a6a174092931b22e38db04ba94855c02aa",
      "assetIds": []
    },
    {
      "x": 308,
      "y": 281,
      "size": 1,
      "price": "4683000000000000000000",
      "reserved": "",
      "salt": "0x9e72b02f3842b254d7cb36b1550dcc7c91b6431e67a1b05bba6d93e2680cfdb5",
      "assetIds": [
        "41506478881403507969696680653240014914910929820314476107906210059990541021186"
      ]
    },
    {
      "x": 308,
      "y": 300,
      "size": 1,
      "price": "4683000000000000000000",
      "reserved": "",
      "salt": "0xe9039e1f972a30ac266e0d538afc13ef5c2b45ddeff2c0ba9fb0c8007d485338",
      "assetIds": [
        "41506478881403507969696680653240014914910929820314476107906210059990541021188"
      ]
    },
    {
      "x": 308,
      "y": 301,
      "size": 1,
      "price": "1011000000000000000000",
      "reserved": "0x7a9fe22691c811ea339d9b73150e6911a5343dca",
      "salt": "0x1727ca64eaddabd7522f01f5a38e2ffafb3bb12fde705c95861b2f6a450602c3",
      "assetIds": []
    },
    {
      "x": 308,
      "y": 302,
      "size": 1,
      "price": "1011000000000000000000",
      "reserved": "",
      "salt": "0x05da5ae49ff1e9e5984671790bce65400dd2a76eda0d03746e055496683b33f6",
      "assetIds": []
    },
    {
      "x": 308,
      "y": 303,
      "size": 1,
      "price": "1011000000000000000000",
      "reserved": "",
      "salt": "0x7dc03a55091ac93b279c2b38e5f501e0db7a86651e8d4f5ee9a72b88552b5b6b",
      "assetIds": []
    },
    {
      "x": 308,
      "y": 304,
      "size": 1,
      "price": "1011000000000000000000",
      "reserved": "",
      "salt": "0x62df9eb1741b9284f1fbfd1f7403c2b4f063633891af5cd9e3e7fe2539ebfa37",
      "assetIds": []
    },
    {
      "x": 308,
      "y": 305,
      "size": 1,
      "price": "1011000000000000000000",
      "reserved": "",
      "salt": "0x7c2d771a5abfb1e7067878cd02c3250d1a57af70abed053bcc8fcbdf526093ba",
      "assetIds": []
    },
    {
      "x": 308,
      "y": 306,
      "size": 1,
      "price": "1011000000000000000000",
      "reserved": "0x7a9fe22691c811ea339d9b73150e6911a5343dca",
      "salt": "0xa600d87c14dc8c24f6482ff9314fe6facb8a1759e70b9fc2a1067ff81405224c",
      "assetIds": []
    },
    {
      "x": 308,
      "y": 307,
      "size": 1,
      "price": "1011000000000000000000",
      "reserved": "",
      "salt": "0x1040f5f61f7653690b7c7b1f7af11de291b32a60d898a143ad4726b1ecab555f",
      "assetIds": []
    },
    {
      "x": 308,
      "y": 308,
      "size": 1,
      "price": "1011000000000000000000",
      "reserved": "",
      "salt": "0x0a80fde72626766c70b767304b5b366f81cc4ed791f6c5e7c49c54252ae66559",
      "assetIds": []
    },
    {
      "x": 308,
      "y": 309,
      "size": 1,
      "price": "1011000000000000000000",
      "reserved": "",
      "salt": "0x5ecdc4f2b2deb475f5af2f9a66c9ee2302a5431eef26119c2b5ec3a634e2c203",
      "assetIds": []
    },
    {
      "x": 308,
      "y": 310,
      "size": 1,
      "price": "1011000000000000000000",
      "reserved": "",
      "salt": "0x87f8b716b131d0975408b6b00dacdeab9e5b875b3445381b380cdd016990e161",
      "assetIds": []
    },
    {
      "x": 308,
      "y": 311,
      "size": 1,
      "price": "1011000000000000000000",
      "reserved": "",
      "salt": "0x9275406b4164cfc344014ceca53a23d1827cd9e0654fbb8c78a2edd0d14aff88",
      "assetIds": []
    },
    {
      "x": 309,
      "y": 276,
      "size": 1,
      "price": "1011000000000000000000",
      "reserved": "0x7a9fe22691c811ea339d9b73150e6911a5343dca",
      "salt": "0xb0f2e0677f5c489e8b498d77e27589d27d79e2e4ed2502345717df090881af3d",
      "assetIds": []
    },
    {
      "x": 309,
      "y": 277,
      "size": 1,
      "price": "1011000000000000000000",
      "reserved": "0x7a9fe22691c811ea339d9b73150e6911a5343dca",
      "salt": "0xb14a9c0cd958753bee0ec83dbf4f77a749bbef4162ffb72a8c88585c09e57e5b",
      "assetIds": []
    },
    {
      "x": 309,
      "y": 278,
      "size": 1,
      "price": "4683000000000000000000",
      "reserved": "",
      "salt": "0xb68837069fe1f19c56730faaed1fbc5598737df2bdfc56dbd96851037b72d87c",
      "assetIds": [
        "41506478881403507969696680653240014914910929820314476107906210059990541021186"
      ]
    },
    {
      "x": 309,
      "y": 279,
      "size": 1,
      "price": "4683000000000000000000",
      "reserved": "",
      "salt": "0x8ee6db1d76385568e4fdff411eabc075178f97dcbcc252914c9746df49f5da90",
      "assetIds": [
        "41506478881403507969696680653240014914910929820314476107906210059990541021189"
      ]
    },
    {
      "x": 309,
      "y": 280,
      "size": 1,
      "price": "4683000000000000000000",
      "reserved": "",
      "salt": "0xc6140c7787f3bd2950894303c0f0f13f877765ca98e1ea8e31b3d1dd3474ada9",
      "assetIds": [
        "41506478881403507969696680653240014914910929820314476107906210059990541021187"
      ]
    },
    {
      "x": 309,
      "y": 281,
      "size": 1,
      "price": "4683000000000000000000",
      "reserved": "",
      "salt": "0x51454dd1aa391caf48fa5f1e286bcd7369ab97ed95928ba2b1411b93330ce868",
      "assetIds": [
        "41506478881403507969696680653240014914910929820314476107906210059990541021188"
      ]
    },
    {
      "x": 309,
      "y": 300,
      "size": 1,
      "price": "4683000000000000000000",
      "reserved": "",
      "salt": "0x589b7330c2ba5707c0215ccc8ecefbea6798edf8f38affd25a0daa30f419b52c",
      "assetIds": [
        "41506478881403507969696680653240014914910929820314476107906210059990541021189"
      ]
    },
    {
      "x": 309,
      "y": 301,
      "size": 1,
      "price": "4683000000000000000000",
      "reserved": "",
      "salt": "0x7f260e8d72c5130db7bac4d4e5e13fa1597c3a64acb711da972d5494ff4ab3b5",
      "assetIds": [
        "41506478881403507969696680653240014914910929820314476107906210059990541021186"
      ]
    },
    {
      "x": 309,
      "y": 302,
      "size": 1,
      "price": "1011000000000000000000",
      "reserved": "0x7a9fe22691c811ea339d9b73150e6911a5343dca",
      "salt": "0x1eef39666fab5922e37f716dcf8f00321644ff23dd61edc269967ea11dfb1687",
      "assetIds": []
    },
    {
      "x": 309,
      "y": 303,
      "size": 1,
      "price": "1011000000000000000000",
      "reserved": "",
      "salt": "0x3f6909d90c8a95c6b97be8a9d7224fef97639815a9c6515147bb7790fbc4e154",
      "assetIds": []
    },
    {
      "x": 309,
      "y": 304,
      "size": 1,
      "price": "1011000000000000000000",
      "reserved": "",
      "salt": "0x12073387162010c4579d40433b55f6f85d9763a24914a1b98d55dabb63482594",
      "assetIds": []
    },
    {
      "x": 309,
      "y": 305,
      "size": 1,
      "price": "1011000000000000000000",
      "reserved": "",
      "salt": "0xfa209958652e83b91a877e247d0de5053bc94d7a3bf37f282979e946157e1f0f",
      "assetIds": []
    },
    {
      "x": 309,
      "y": 306,
      "size": 1,
      "price": "1011000000000000000000",
      "reserved": "",
      "salt": "0x7acbec7c4afd6d86dba361e0037c1cde41a1412fda0e06533fa1c34c582a39a3",
      "assetIds": []
    },
    {
      "x": 309,
      "y": 307,
      "size": 1,
      "price": "1011000000000000000000",
      "reserved": "",
      "salt": "0xccbda2272bf9d169020c2670286f8fd36f1ba8560ffc49d2b108da30efea910f",
      "assetIds": []
    },
    {
      "x": 309,
      "y": 308,
      "size": 1,
      "price": "1011000000000000000000",
      "reserved": "0x7a9fe22691c811ea339d9b73150e6911a5343dca",
      "salt": "0xfc3dad8d4418381e7ff9bc73141a54126e872111ae385d54638fa3b5d2fe46c9",
      "assetIds": []
    },
    {
      "x": 310,
      "y": 276,
      "size": 1,
      "price": "4683000000000000000000",
      "reserved": "",
      "salt": "0x0bbe806ce7cedbe556ea61c583420bba2153d886d6810dabfc9588513730e9a6",
      "assetIds": [
        "41506478881403507969696680653240014914910929820314476107906210059990541021186"
      ]
    },
    {
      "x": 310,
      "y": 277,
      "size": 1,
      "price": "4683000000000000000000",
      "reserved": "",
      "salt": "0x9c4052dceb4d51ebb48d93468d07baa0249ec95c048679fcb81d230069f6749e",
      "assetIds": [
        "41506478881403507969696680653240014914910929820314476107906210059990541021189"
      ]
    },
    {
      "x": 310,
      "y": 278,
      "size": 1,
      "price": "4683000000000000000000",
      "reserved": "",
      "salt": "0xcb4df840de2d89cede4fcd9beae1341e2c5377f94ef750f97d74b92c4340f5a4",
      "assetIds": [
        "41506478881403507969696680653240014914910929820314476107906210059990541021186"
      ]
    },
    {
      "x": 310,
      "y": 279,
      "size": 1,
      "price": "4683000000000000000000",
      "reserved": "",
      "salt": "0x7cbf0e3a334764518f21b0be8099db24e2e55e4e2bff08f1dfeca5f39167fb7b",
      "assetIds": [
        "41506478881403507969696680653240014914910929820314476107906210059990541021189"
      ]
    },
    {
      "x": 310,
      "y": 280,
      "size": 1,
      "price": "4683000000000000000000",
      "reserved": "",
      "salt": "0x0549b91e66d5cf702b887e22feb212020dad87d18924c2ad6efc7350dd695bea",
      "assetIds": [
        "41506478881403507969696680653240014914910929820314476107906210059990541021187"
      ]
    },
    {
      "x": 310,
      "y": 281,
      "size": 1,
      "price": "4683000000000000000000",
      "reserved": "",
      "salt": "0x360c5189cf5645c2429e97000f2bdf6dea110c1a51b01bcc6912dad700cc02fe",
      "assetIds": [
        "41506478881403507969696680653240014914910929820314476107906210059990541021187"
      ]
    },
    {
      "x": 310,
      "y": 300,
      "size": 1,
      "price": "4683000000000000000000",
      "reserved": "",
      "salt": "0x5298408e076ac0cee9414392bc3e55726db82f6471fda5adf301e8ef66808a26",
      "assetIds": [
        "41506478881403507969696680653240014914910929820314476107906210059990541021188"
      ]
    },
    {
      "x": 310,
      "y": 301,
      "size": 1,
      "price": "4683000000000000000000",
      "reserved": "",
      "salt": "0xc8fdf4a45227ac70e48772193789f42ca88b019b4d153e5e3157c0f679315c90",
      "assetIds": [
        "41506478881403507969696680653240014914910929820314476107906210059990541021187"
      ]
    },
    {
      "x": 310,
      "y": 302,
      "size": 1,
      "price": "4683000000000000000000",
      "reserved": "",
      "salt": "0x0bf700b227f80ce40cf07576355578a9f54c802bec3dbb18bfad39db6f648cd6",
      "assetIds": [
        "41506478881403507969696680653240014914910929820314476107906210059990541021186"
      ]
    },
    {
      "x": 310,
      "y": 303,
      "size": 1,
      "price": "4683000000000000000000",
      "reserved": "",
      "salt": "0xa572282c64438cec9804e95462b5a07f245db8020ac2ab04e156085f5f7d00fe",
      "assetIds": [
        "41506478881403507969696680653240014914910929820314476107906210059990541021188"
      ]
    },
    {
      "x": 310,
      "y": 304,
      "size": 1,
      "price": "4683000000000000000000",
      "reserved": "",
      "salt": "0x54e4b7489f20c0abe660eb5bb44169e22344aada59b4b5a13f495975f3400f6e",
      "assetIds": [
        "41506478881403507969696680653240014914910929820314476107906210059990541021188"
      ]
    },
    {
      "x": 310,
      "y": 305,
      "size": 1,
      "price": "4683000000000000000000",
      "reserved": "",
      "salt": "0x182a75ab42184f10242c1579195d6b363cd7515ba9d965d59403bc028d60e6f0",
      "assetIds": [
        "41506478881403507969696680653240014914910929820314476107906210059990541021188"
      ]
    },
    {
      "x": 310,
      "y": 306,
      "size": 1,
      "price": "4683000000000000000000",
      "reserved": "",
      "salt": "0x3e6357dab4498d2fa2a69bbcb67a11044579903623e6156d08e254a4c3e706c9",
      "assetIds": [
        "41506478881403507969696680653240014914910929820314476107906210059990541021187"
      ]
    },
    {
      "x": 310,
      "y": 307,
      "size": 1,
      "price": "4683000000000000000000",
      "reserved": "",
      "salt": "0x415921e6b912a668997ab49c31c5cde76152576a9a861c11fe7254a4f4f30788",
      "assetIds": [
        "41506478881403507969696680653240014914910929820314476107906210059990541021189"
      ]
    },
    {
      "x": 310,
      "y": 308,
      "size": 1,
      "price": "4683000000000000000000",
      "reserved": "",
      "salt": "0x0ad5447727ff4134aac946dea907ffabfd2ed2d41f54d758d03a185253d24250",
      "assetIds": [
        "41506478881403507969696680653240014914910929820314476107906210059990541021187"
      ]
    },
    {
      "x": 311,
      "y": 276,
      "size": 1,
      "price": "4683000000000000000000",
      "reserved": "",
      "salt": "0x625169cd16844bc204199baf3031fbfc1ee60deada9ab2f1e5cb7d84bb871e5d",
      "assetIds": [
        "41506478881403507969696680653240014914910929820314476107906210059990541021186"
      ]
    },
    {
      "x": 311,
      "y": 277,
      "size": 1,
      "price": "4683000000000000000000",
      "reserved": "",
      "salt": "0x0eaabe29d59d88a78fccdf44cd6e2115b442d5a6a3f0ba3431a31a22f8a013f1",
      "assetIds": [
        "41506478881403507969696680653240014914910929820314476107906210059990541021187"
      ]
    },
    {
      "x": 311,
      "y": 278,
      "size": 1,
      "price": "4683000000000000000000",
      "reserved": "",
      "salt": "0x5e7eea44784e9fcac838e21bd76f548aae20dc7f59e04c177ac6c8fd9ae58b19",
      "assetIds": [
        "41506478881403507969696680653240014914910929820314476107906210059990541021186"
      ]
    },
    {
      "x": 311,
      "y": 279,
      "size": 1,
      "price": "4683000000000000000000",
      "reserved": "",
      "salt": "0x10d880d177fb31c4c4aab1137e179f22064e3c8c7965bdf482ca2c440ae29492",
      "assetIds": [
        "41506478881403507969696680653240014914910929820314476107906210059990541021186"
      ]
    },
    {
      "x": 311,
      "y": 280,
      "size": 1,
      "price": "4683000000000000000000",
      "reserved": "",
      "salt": "0x402aa946a7eca8b4e02e1e2afd6097548d96235251b05bb2de4bd9a1ac2ae2a1",
      "assetIds": [
        "41506478881403507969696680653240014914910929820314476107906210059990541021189"
      ]
    },
    {
      "x": 311,
      "y": 281,
      "size": 1,
      "price": "4683000000000000000000",
      "reserved": "",
      "salt": "0xd7a07a028f7330309b08ca554726dc5f241ee800de80b321bea58e63d3492b66",
      "assetIds": [
        "41506478881403507969696680653240014914910929820314476107906210059990541021186"
      ]
    },
    {
      "x": 311,
      "y": 300,
      "size": 1,
      "price": "4683000000000000000000",
      "reserved": "",
      "salt": "0x15c997cb90eb9b7fd04a38545c61cfd2af59710f35c98cbdaf8eee8fcf51b2ed",
      "assetIds": [
        "41506478881403507969696680653240014914910929820314476107906210059990541021187"
      ]
    },
    {
      "x": 311,
      "y": 301,
      "size": 1,
      "price": "4683000000000000000000",
      "reserved": "",
      "salt": "0x32c35bc98146387fe1dbc45d4fff7962eb6161575c34296afde34c6c4fd9010b",
      "assetIds": [
        "41506478881403507969696680653240014914910929820314476107906210059990541021186"
      ]
    },
    {
      "x": 311,
      "y": 302,
      "size": 1,
      "price": "4683000000000000000000",
      "reserved": "",
      "salt": "0xa098777838ff02be1db997d9e374e49ec72f83330453b7206271392e8f8f9f58",
      "assetIds": [
        "41506478881403507969696680653240014914910929820314476107906210059990541021189"
      ]
    },
    {
      "x": 311,
      "y": 303,
      "size": 1,
      "price": "4683000000000000000000",
      "reserved": "",
      "salt": "0x568af4f04c3ef41e487e78533d038b4b98f49bd55a791de75de90b5e4b5631ec",
      "assetIds": [
        "41506478881403507969696680653240014914910929820314476107906210059990541021187"
      ]
    },
    {
      "x": 311,
      "y": 304,
      "size": 1,
      "price": "4683000000000000000000",
      "reserved": "",
      "salt": "0xe2dafc43c6ce7afad3423f577a16a37fce08a1c5bf4e624cc4e418375bafe795",
      "assetIds": [
        "41506478881403507969696680653240014914910929820314476107906210059990541021186"
      ]
    },
    {
      "x": 311,
      "y": 305,
      "size": 1,
      "price": "4683000000000000000000",
      "reserved": "",
      "salt": "0x546573a339b01bfab38e09ad11fa4e5c381e5aa0c525c6e960c227ef99de978e",
      "assetIds": [
        "41506478881403507969696680653240014914910929820314476107906210059990541021187"
      ]
    },
    {
      "x": 311,
      "y": 306,
      "size": 1,
      "price": "4683000000000000000000",
      "reserved": "",
      "salt": "0x00d2ce3016182e1824180df4394ec1710a9f2fa5f5a26027a4e407c5db9219bb",
      "assetIds": [
        "41506478881403507969696680653240014914910929820314476107906210059990541021187"
      ]
    },
    {
      "x": 311,
      "y": 307,
      "size": 1,
      "price": "4683000000000000000000",
      "reserved": "",
      "salt": "0xd945edffb42f5acc7bdaabcfe2aef8b95deaac160257b41984e5d614696b9a2b",
      "assetIds": [
        "41506478881403507969696680653240014914910929820314476107906210059990541021188"
      ]
    },
    {
      "x": 311,
      "y": 308,
      "size": 1,
      "price": "4683000000000000000000",
      "reserved": "",
      "salt": "0x40e803e88e3fb54f579328915c51e7ebcd212d46820f243dc25a20487541d041",
      "assetIds": [
        "41506478881403507969696680653240014914910929820314476107906210059990541021186"
      ]
    },
    {
      "x": 312,
      "y": 282,
      "size": 1,
      "price": "4683000000000000000000",
      "reserved": "",
      "salt": "0xe5985f716f5dce99250e8a455c027c05cceb9eef5a10ddd83dc56d95e54a55b4",
      "assetIds": [
        "41506478881403507969696680653240014914910929820314476107906210059990541021189"
      ]
    },
    {
      "x": 312,
      "y": 283,
      "size": 1,
      "price": "4683000000000000000000",
      "reserved": "",
      "salt": "0x8a415fb4c4f1531b5820516ee2cb202f27515ec00652ba5191e9bb48d59273ac",
      "assetIds": [
        "41506478881403507969696680653240014914910929820314476107906210059990541021186"
      ]
    },
    {
      "x": 312,
      "y": 284,
      "size": 1,
      "price": "4683000000000000000000",
      "reserved": "",
      "salt": "0xd8fb61c4a0f4c3d5c2b5c59f01085dede32c89722e655e514a9457abc6e66dda",
      "assetIds": [
        "41506478881403507969696680653240014914910929820314476107906210059990541021189"
      ]
    },
    {
      "x": 312,
      "y": 285,
      "size": 1,
      "price": "4683000000000000000000",
      "reserved": "",
      "salt": "0x51f4625d10fb40dd7f38e04d71d0f3a7fae2a0f499d4a799b6c6339a831768c5",
      "assetIds": [
        "41506478881403507969696680653240014914910929820314476107906210059990541021189"
      ]
    },
    {
      "x": 312,
      "y": 286,
      "size": 1,
      "price": "4683000000000000000000",
      "reserved": "",
      "salt": "0x592648ad75ea1df198e9d487565d905777185a331591471f4ee657d7d750a369",
      "assetIds": [
        "41506478881403507969696680653240014914910929820314476107906210059990541021187"
      ]
    },
    {
      "x": 312,
      "y": 287,
      "size": 1,
      "price": "4683000000000000000000",
      "reserved": "",
      "salt": "0xf6d5b2648281e961cafc9b8ed6fd6576a9e80e6bebb2bc18cd5939228cad0236",
      "assetIds": [
        "41506478881403507969696680653240014914910929820314476107906210059990541021186"
      ]
    },
    {
      "x": 312,
      "y": 288,
      "size": 1,
      "price": "4683000000000000000000",
      "reserved": "",
      "salt": "0xddfdfe75fe7be4ced316a004c88d069776fc4cc019cdaed523e0541755d22cd0",
      "assetIds": [
        "41506478881403507969696680653240014914910929820314476107906210059990541021189"
      ]
    },
    {
      "x": 312,
      "y": 289,
      "size": 1,
      "price": "4683000000000000000000",
      "reserved": "",
      "salt": "0x524040cc2a55959e81e5c46a21014b40bc1cda63f9a7794a718a27ee179ad75a",
      "assetIds": [
        "41506478881403507969696680653240014914910929820314476107906210059990541021187"
      ]
    },
    {
      "x": 312,
      "y": 290,
      "size": 1,
      "price": "4683000000000000000000",
      "reserved": "",
      "salt": "0x4925a819ccf373a403440d424a84e113c6c9569ca359c34db68453e3a6711007",
      "assetIds": [
        "41506478881403507969696680653240014914910929820314476107906210059990541021189"
      ]
    },
    {
      "x": 312,
      "y": 291,
      "size": 1,
      "price": "4683000000000000000000",
      "reserved": "",
      "salt": "0x7dafa076dd671082d2c8e54237d1e09ceccae40bfbdf7dda94aae9d0c2a9c6c0",
      "assetIds": [
        "41506478881403507969696680653240014914910929820314476107906210059990541021187"
      ]
    },
    {
      "x": 312,
      "y": 292,
      "size": 1,
      "price": "4683000000000000000000",
      "reserved": "",
      "salt": "0x9a377a2e997f49f1168f5a1ad0f8bbd8b269d81b18097312450089ff77867b1d",
      "assetIds": [
        "41506478881403507969696680653240014914910929820314476107906210059990541021187"
      ]
    },
    {
      "x": 312,
      "y": 293,
      "size": 1,
      "price": "4683000000000000000000",
      "reserved": "",
      "salt": "0x1fb14a6f41f643281d4a44c355a704ccd63c08a22a6b4c789288240714e568de",
      "assetIds": [
        "41506478881403507969696680653240014914910929820314476107906210059990541021188"
      ]
    },
    {
      "x": 313,
      "y": 282,
      "size": 1,
      "price": "4683000000000000000000",
      "reserved": "",
      "salt": "0xa5b884485a762a5892322af14569496c6e8973a742731a783e0c8f54770d2c0d",
      "assetIds": [
        "41506478881403507969696680653240014914910929820314476107906210059990541021186"
      ]
    },
    {
      "x": 313,
      "y": 283,
      "size": 1,
      "price": "4683000000000000000000",
      "reserved": "",
      "salt": "0x5b6cad5ed0426ac9adafd308dbbfc7de8423e33db940368ce2e39b466a5b6d08",
      "assetIds": [
        "41506478881403507969696680653240014914910929820314476107906210059990541021186"
      ]
    },
    {
      "x": 313,
      "y": 284,
      "size": 1,
      "price": "1011000000000000000000",
      "reserved": "0x7a9fe22691c811ea339d9b73150e6911a5343dca",
      "salt": "0xb2510e48aa08e24ded1b510152b068db9ec431739e95f283bc697f74bacf919a",
      "assetIds": []
    },
    {
      "x": 313,
      "y": 285,
      "size": 1,
      "price": "1011000000000000000000",
      "reserved": "",
      "salt": "0x41b829208ffb5179c75c1f237702f91cace8e29db0ff9c4863d4bb18c0e037e4",
      "assetIds": []
    },
    {
      "x": 313,
      "y": 286,
      "size": 1,
      "price": "1011000000000000000000",
      "reserved": "",
      "salt": "0x839113727f07c468d4bf37f10dfd938d2f904ba3af0bf1bd21438083b5422777",
      "assetIds": []
    },
    {
      "x": 313,
      "y": 287,
      "size": 1,
      "price": "1011000000000000000000",
      "reserved": "",
      "salt": "0x88b7d301d0a94d2f1e9ec2839faf89b9e409caad73993b89375092db8a4d3d91",
      "assetIds": []
    },
    {
      "x": 313,
      "y": 288,
      "size": 1,
      "price": "1011000000000000000000",
      "reserved": "0x7a9fe22691c811ea339d9b73150e6911a5343dca",
      "salt": "0xaa71de52ecf4287f4d404dd931c30ebd8eff9f17b58a75673414ab08ec25d65b",
      "assetIds": []
    },
    {
      "x": 313,
      "y": 289,
      "size": 1,
      "price": "1011000000000000000000",
      "reserved": "",
      "salt": "0x460bac00ceca9d72844afbde915e7b4642b6a016b8ee801508eed34d3f33dc96",
      "assetIds": []
    },
    {
      "x": 313,
      "y": 290,
      "size": 1,
      "price": "1011000000000000000000",
      "reserved": "",
      "salt": "0x07399ec281e75cc1195a4df909cfa180119179ae58e7a7a828fde7aa54d31d7f",
      "assetIds": []
    },
    {
      "x": 313,
      "y": 291,
      "size": 1,
      "price": "1011000000000000000000",
      "reserved": "",
      "salt": "0xe5f94bfe5af6c0701f32893ea384e65da9091818dce2fb8066f9f23a555dc9c6",
      "assetIds": []
    },
    {
      "x": 313,
      "y": 292,
      "size": 1,
      "price": "1011000000000000000000",
      "reserved": "",
      "salt": "0x22a2dc5856063b6061602d20f494252e6ffeb86b8d1db30a42bf774768b449b6",
      "assetIds": []
    },
    {
      "x": 313,
      "y": 293,
      "size": 1,
      "price": "1011000000000000000000",
      "reserved": "0x7a9fe22691c811ea339d9b73150e6911a5343dca",
      "salt": "0x7c7272c7b7fc10a2b6634337d4f8fea5584fb41e841c476ff13ac84d8223ec4f",
      "assetIds": []
    },
    {
      "x": 314,
      "y": 282,
      "size": 1,
      "price": "4683000000000000000000",
      "reserved": "",
      "salt": "0x59c1ccf0936d2eb5b89e9fa567fb0779df7e0b1d0e94e458bc80489cf9003adb",
      "assetIds": [
        "41506478881403507969696680653240014914910929820314476107906210059990541021187"
      ]
    },
    {
      "x": 314,
      "y": 283,
      "size": 1,
      "price": "1011000000000000000000",
      "reserved": "0x7a9fe22691c811ea339d9b73150e6911a5343dca",
      "salt": "0x8550ef7a65c3c9a804258243544e05ac249831f7e1416af8ded7c068d4c56a1a",
      "assetIds": []
    },
    {
      "x": 314,
      "y": 284,
      "size": 1,
      "price": "1011000000000000000000",
      "reserved": "",
      "salt": "0x069bf31b469b81dbdd22e42f7477d138445faba160af0ae42eab86a90fb22621",
      "assetIds": []
    },
    {
      "x": 314,
      "y": 285,
      "size": 1,
      "price": "1011000000000000000000",
      "reserved": "",
      "salt": "0x06e18209c27f7c6b3418a2976a2fd5bd78ecf909c869dad8bfde0d3a0cf72162",
      "assetIds": []
    },
    {
      "x": 314,
      "y": 286,
      "size": 1,
      "price": "1011000000000000000000",
      "reserved": "",
      "salt": "0x7cdd97bb423cd394c2102d97fca2f5f40a37685661a04f73d1e1d0efc5f1c14e",
      "assetIds": []
    },
    {
      "x": 314,
      "y": 287,
      "size": 1,
      "price": "1011000000000000000000",
      "reserved": "",
      "salt": "0x7c3e3ac8ecb63255df8d93ae12be412be915ebbb1fb01ea4f2ae47d2a73b458a",
      "assetIds": []
    },
    {
      "x": 314,
      "y": 288,
      "size": 1,
      "price": "1011000000000000000000",
      "reserved": "",
      "salt": "0xfe494f49a3c564824d0e926634aa36c6cd8f69c708e9e0660342dd6d4d4ae920",
      "assetIds": []
    },
    {
      "x": 314,
      "y": 289,
      "size": 1,
      "price": "1011000000000000000000",
      "reserved": "",
      "salt": "0x00bf06d040e176df0495bea670db4f8e384f7da3cb59d400390928ef05ebefb0",
      "assetIds": []
    },
    {
      "x": 314,
      "y": 290,
      "size": 1,
      "price": "1011000000000000000000",
      "reserved": "",
      "salt": "0xc37c140f4997b6a5c844493f0d8dbcdd2ec383aea1cd8f6064d808f5aa70e5ed",
      "assetIds": []
    },
    {
      "x": 314,
      "y": 291,
      "size": 1,
      "price": "1011000000000000000000",
      "reserved": "",
      "salt": "0x3faf2762384afdf2b7595bf1a01501f51db0a1a8997d7f55b8dd4d29812fd44b",
      "assetIds": []
    },
    {
      "x": 314,
      "y": 292,
      "size": 1,
      "price": "1011000000000000000000",
      "reserved": "",
      "salt": "0x6de1316272bca8fd1b6e4e46c975b1dac9a736d2ac24b0e9ff1b0e659eafaa46",
      "assetIds": []
    },
    {
      "x": 314,
      "y": 293,
      "size": 1,
      "price": "1011000000000000000000",
      "reserved": "",
      "salt": "0x7b73922bc740481e90d939842a89229fa45c6514aee52976de14f53f4d58b6e6",
      "assetIds": []
    },
    {
      "x": 315,
      "y": 282,
      "size": 1,
      "price": "4683000000000000000000",
      "reserved": "",
      "salt": "0x68a2b16a2b552313b99cd5589fb8bbb5e70ca2acdfac72d90823768e12062955",
      "assetIds": [
        "41506478881403507969696680653240014914910929820314476107906210059990541021187"
      ]
    },
    {
      "x": 315,
      "y": 283,
      "size": 1,
      "price": "1011000000000000000000",
      "reserved": "",
      "salt": "0x28b6dfa65752f23543e3723fdd3a0841ed685e026b88ea13370918609a39a16b",
      "assetIds": []
    },
    {
      "x": 315,
      "y": 284,
      "size": 1,
      "price": "1011000000000000000000",
      "reserved": "",
      "salt": "0xafd7575701c9466d466007173d2168d8d28b51f636722c8a9404439801317226",
      "assetIds": []
    },
    {
      "x": 315,
      "y": 285,
      "size": 1,
      "price": "1011000000000000000000",
      "reserved": "",
      "salt": "0x1cce0dd37cd721e97452d5ac071e9f462ddfbdfd8c96c1bd866f1dc84e898639",
      "assetIds": []
    },
    {
      "x": 315,
      "y": 286,
      "size": 1,
      "price": "1011000000000000000000",
      "reserved": "0x7a9fe22691c811ea339d9b73150e6911a5343dca",
      "salt": "0xbb497d6731bf401f916803c9d48caac613f57cc773b8225b2dc38e1b12ffc83b",
      "assetIds": []
    },
    {
      "x": 315,
      "y": 287,
      "size": 1,
      "price": "1011000000000000000000",
      "reserved": "",
      "salt": "0xf8d63d495ef8f61df88fb835ef6661dad748c276ba329895e5270d7a97c65dbe",
      "assetIds": []
    },
    {
      "x": 315,
      "y": 288,
      "size": 1,
      "price": "1011000000000000000000",
      "reserved": "",
      "salt": "0x1d9a7b355296a5d069cf0426e09120d6ec381b1dd2cfd25219ada82dbfb2aedc",
      "assetIds": []
    },
    {
      "x": 315,
      "y": 289,
      "size": 1,
      "price": "1011000000000000000000",
      "reserved": "0x7a9fe22691c811ea339d9b73150e6911a5343dca",
      "salt": "0x86c09e285754e79eb5db25cf2a1050c8a243b8574d629090844ba928921243b9",
      "assetIds": []
    },
    {
      "x": 315,
      "y": 290,
      "size": 1,
      "price": "1011000000000000000000",
      "reserved": "",
      "salt": "0x657da0f7d9c743c773cce462dda31333cf1a91039b05f81f85b8c3a99a9e97ae",
      "assetIds": []
    },
    {
      "x": 315,
      "y": 291,
      "size": 1,
      "price": "1011000000000000000000",
      "reserved": "",
      "salt": "0x000453a619750a55834bcca29d0a0aa461f8c690b4989309dadf1d59d1ef4e3c",
      "assetIds": []
    },
    {
      "x": 315,
      "y": 292,
      "size": 1,
      "price": "1011000000000000000000",
      "reserved": "",
      "salt": "0xddb8aac99af3a010aae984d2ff3c19457ee1a3bf698d4577503989318b0055e2",
      "assetIds": []
    },
    {
      "x": 315,
      "y": 293,
      "size": 1,
      "price": "1011000000000000000000",
      "reserved": "",
      "salt": "0x9022a6554cb6e71c8f6be6ad0fa0e6083f8bcf6dd907be99c567319a03b17f8e",
      "assetIds": []
    },
    {
      "x": 316,
      "y": 282,
      "size": 1,
      "price": "4683000000000000000000",
      "reserved": "",
      "salt": "0x9f7a1259d19109e62cc4d38db7ab416f010d165bcecd10d404e70aca07075438",
      "assetIds": [
        "41506478881403507969696680653240014914910929820314476107906210059990541021188"
      ]
    },
    {
      "x": 316,
      "y": 283,
      "size": 1,
      "price": "1011000000000000000000",
      "reserved": "0x7a9fe22691c811ea339d9b73150e6911a5343dca",
      "salt": "0x6b0481161eb75624d6115914b4fe691fd56ba310cfd17b0a14325c42a776d43c",
      "assetIds": []
    },
    {
      "x": 316,
      "y": 284,
      "size": 1,
      "price": "1011000000000000000000",
      "reserved": "",
      "salt": "0x909e4fe7a6892638cefeee9569ae359c0a28fd17a266623c7ef418c34addf155",
      "assetIds": []
    },
    {
      "x": 316,
      "y": 285,
      "size": 1,
      "price": "1011000000000000000000",
      "reserved": "",
      "salt": "0x99b9322720368a92b99a7498c83c057e5358b67a863cda663515b64f09ff1bc0",
      "assetIds": []
    },
    {
      "x": 316,
      "y": 286,
      "size": 1,
      "price": "1011000000000000000000",
      "reserved": "",
      "salt": "0xb870e54ae73aa4d226e5af8e4603e40db55b88389698f1bd0150a3c45adacaff",
      "assetIds": []
    },
    {
      "x": 316,
      "y": 287,
      "size": 1,
      "price": "1011000000000000000000",
      "reserved": "",
      "salt": "0x1e5d86c7be4b5b30c7326ea11095e67c852641818b93b19e6a523f8c816ff122",
      "assetIds": []
    },
    {
      "x": 316,
      "y": 288,
      "size": 1,
      "price": "1011000000000000000000",
      "reserved": "",
      "salt": "0x61cd7685251bd47e414de8f5b68efa5ef02bde41772ed8113c4bb1296df376b3",
      "assetIds": []
    },
    {
      "x": 316,
      "y": 289,
      "size": 1,
      "price": "1011000000000000000000",
      "reserved": "",
      "salt": "0x5a6a77a517b77126b769a0b569d7fe6d0c09029a3ba207fdb431a4341b3c5d1f",
      "assetIds": []
    },
    {
      "x": 316,
      "y": 290,
      "size": 1,
      "price": "1011000000000000000000",
      "reserved": "",
      "salt": "0x5e5d7e65c71654be385226ee92f95db91c55e9f52b45f0b53599401c84213f9e",
      "assetIds": []
    },
    {
      "x": 316,
      "y": 291,
      "size": 1,
      "price": "1011000000000000000000",
      "reserved": "",
      "salt": "0x5a5b4908d63874b7adf6c1abfe79e0828928d55bc0c33859c5b18f7ee27f81a1",
      "assetIds": []
    },
    {
      "x": 316,
      "y": 292,
      "size": 1,
      "price": "1011000000000000000000",
      "reserved": "",
      "salt": "0x8a636867689d7217d4334dc04e5673e16e23e741d6d453b27a02298cf8442f92",
      "assetIds": []
    },
    {
      "x": 316,
      "y": 293,
      "size": 1,
      "price": "1011000000000000000000",
      "reserved": "",
      "salt": "0x5c12b74620a6390e99d3830b4aa8f2213770ef30989d63d2b38adbdff36ae118",
      "assetIds": []
    },
    {
      "x": 317,
      "y": 282,
      "size": 1,
      "price": "4683000000000000000000",
      "reserved": "",
      "salt": "0x149e843635ba749a079a363ba3d449e7da68caa54da44758c54e9066dab4c8bb",
      "assetIds": [
        "41506478881403507969696680653240014914910929820314476107906210059990541021188"
      ]
    },
    {
      "x": 317,
      "y": 283,
      "size": 1,
      "price": "1011000000000000000000",
      "reserved": "",
      "salt": "0x68d25abf439c7adf34b132ca1d84053dc41e56ba2ca5c79ea46a2b353eb993c6",
      "assetIds": []
    },
    {
      "x": 317,
      "y": 284,
      "size": 1,
      "price": "1011000000000000000000",
      "reserved": "",
      "salt": "0xaf45de7cd89b4978ab0d268cc2837d1b643a33b64f6404ec2616493e7d4e61db",
      "assetIds": []
    },
    {
      "x": 317,
      "y": 285,
      "size": 1,
      "price": "1011000000000000000000",
      "reserved": "",
      "salt": "0xe020a585c7341784426e90eeb2366a20c58e063538ed23b258eeb595e247e806",
      "assetIds": []
    },
    {
      "x": 317,
      "y": 286,
      "size": 1,
      "price": "1011000000000000000000",
      "reserved": "",
      "salt": "0x0f910ef3db4440e5cffd0c5dda3d5f548a56feb55bdb2367872f570d0e67e92a",
      "assetIds": []
    },
    {
      "x": 317,
      "y": 287,
      "size": 1,
      "price": "1011000000000000000000",
      "reserved": "",
      "salt": "0x9af807499b0fc9459b1a7c823ac50eaac0edb63cb1a69adb0a899d2eb9cfb9fc",
      "assetIds": []
    },
    {
      "x": 317,
      "y": 288,
      "size": 1,
      "price": "1011000000000000000000",
      "reserved": "0x7a9fe22691c811ea339d9b73150e6911a5343dca",
      "salt": "0xe7589d726e8fdd05c79b033138480987471df4f23258e873db82a2b47e102098",
      "assetIds": []
    },
    {
      "x": 317,
      "y": 289,
      "size": 1,
      "price": "1011000000000000000000",
      "reserved": "",
      "salt": "0xf989fb2c01ccf57efa9a309d59a012afc39dbeaded3a6360c149e90caace1e7d",
      "assetIds": []
    },
    {
      "x": 317,
      "y": 290,
      "size": 1,
      "price": "1011000000000000000000",
      "reserved": "",
      "salt": "0xbdd2e111f830e150df03854322c84b1f28900f4d8c508de0598b6338ac3f1c3a",
      "assetIds": []
    },
    {
      "x": 317,
      "y": 291,
      "size": 1,
      "price": "1011000000000000000000",
      "reserved": "0x7a9fe22691c811ea339d9b73150e6911a5343dca",
      "salt": "0xcedd77bace2f029bd6323775a8a584ba55d06f1581032096a2a8d0fe4f90e559",
      "assetIds": []
    },
    {
      "x": 317,
      "y": 292,
      "size": 1,
      "price": "1011000000000000000000",
      "reserved": "",
      "salt": "0x2394d1aa1b7622a0ae407502c830831f9b7d0cb44626d83b5a20ce541bd6bd0a",
      "assetIds": []
    },
    {
      "x": 317,
      "y": 293,
      "size": 1,
      "price": "1011000000000000000000",
      "reserved": "",
      "salt": "0x74ba6b637a7fd8a5644899030bf41c2142ddf92e288afd582ccba26d9c11c22a",
      "assetIds": []
    },
    {
      "x": 318,
      "y": 282,
      "size": 1,
      "price": "1011000000000000000000",
      "reserved": "",
      "salt": "0xbf6e2d5711d0bce5af704ccc844c4184be0b0127e1e662dd673a9c38afa0f6a8",
      "assetIds": []
    },
    {
      "x": 318,
      "y": 283,
      "size": 1,
      "price": "1011000000000000000000",
      "reserved": "",
      "salt": "0x5d904a6bdaa44918920b073192711ed8c909e79fad8b05418068ba041496398a",
      "assetIds": []
    },
    {
      "x": 318,
      "y": 284,
      "size": 1,
      "price": "1011000000000000000000",
      "reserved": "",
      "salt": "0xe1870d522f8965157fec7c0ba92be94d27eb75e49aa6759c96af1b20fe99b552",
      "assetIds": []
    },
    {
      "x": 318,
      "y": 285,
      "size": 1,
      "price": "1011000000000000000000",
      "reserved": "",
      "salt": "0x62cf6a6e1c0941adb378e1523346e5ae308ebc75ed6cbb2b17aee1680d4bb394",
      "assetIds": []
    },
    {
      "x": 318,
      "y": 286,
      "size": 1,
      "price": "1011000000000000000000",
      "reserved": "0x7a9fe22691c811ea339d9b73150e6911a5343dca",
      "salt": "0x6aa5ca5b40dbc72076309dc63fef1b99f07182d48f1ea9161dc23b8085aa206b",
      "assetIds": []
    },
    {
      "x": 318,
      "y": 287,
      "size": 1,
      "price": "1011000000000000000000",
      "reserved": "",
      "salt": "0x5e6d4131c4e412e068a8ba9615b7b315e2c23d5fa8d4d8e5427643da3c5779b8",
      "assetIds": []
    },
    {
      "x": 318,
      "y": 288,
      "size": 1,
      "price": "1011000000000000000000",
      "reserved": "",
      "salt": "0x98bd66c0a12342b00c01a17c788666182809404b2afe7d117a61e0e90d1a8ddf",
      "assetIds": []
    },
    {
      "x": 318,
      "y": 289,
      "size": 1,
      "price": "1011000000000000000000",
      "reserved": "",
      "salt": "0xfe237073fa190adcd46236e5fbf050dedf21b4fd54bff04263db2849d740ecb3",
      "assetIds": []
    },
    {
      "x": 318,
      "y": 290,
      "size": 1,
      "price": "1011000000000000000000",
      "reserved": "",
      "salt": "0x6807285ff07d56a0d0d93af36a0e24a6ebabb617df765d991aa881de7f326d86",
      "assetIds": []
    },
    {
      "x": 318,
      "y": 291,
      "size": 1,
      "price": "1011000000000000000000",
      "reserved": "",
      "salt": "0x875e25cff8f56789c879a1d21e32c74e256f912d789879d3277762219f3893a7",
      "assetIds": []
    },
    {
      "x": 318,
      "y": 292,
      "size": 1,
      "price": "1011000000000000000000",
      "reserved": "",
      "salt": "0x40f381239e91d6dfe3f2377175b747f0d07efb0553c53c0867446d16e7d8c4f0",
      "assetIds": []
    },
    {
      "x": 318,
      "y": 293,
      "size": 1,
      "price": "1011000000000000000000",
      "reserved": "",
      "salt": "0x9c09697877b4b4a9a60ce10b5ea7b92444c1e95323f7e4f70be77b18b7350265",
      "assetIds": []
    },
    {
      "x": 319,
      "y": 282,
      "size": 1,
      "price": "1011000000000000000000",
      "reserved": "",
      "salt": "0xd0ca00e5b00611f29fd2e9b4bb832c079cb07b3253539b7aac105346d8abc1d9",
      "assetIds": []
    },
    {
      "x": 319,
      "y": 283,
      "size": 1,
      "price": "1011000000000000000000",
      "reserved": "",
      "salt": "0x078695d240f6d307310c91c81f282f081949c6f20fd67d624cd015d6a1f4bfc0",
      "assetIds": []
    },
    {
      "x": 319,
      "y": 284,
      "size": 1,
      "price": "1011000000000000000000",
      "reserved": "",
      "salt": "0x9647a053d3bb0fa449619c6da830175517ffdbd120e42c1cb262bc3dfd2a79d7",
      "assetIds": []
    },
    {
      "x": 319,
      "y": 285,
      "size": 1,
      "price": "1011000000000000000000",
      "reserved": "",
      "salt": "0x0e0919b89166080f2699923b5c33f86b7466749e877f2c92ebe97741232022aa",
      "assetIds": []
    },
    {
      "x": 319,
      "y": 286,
      "size": 1,
      "price": "1011000000000000000000",
      "reserved": "",
      "salt": "0x8684395dc00d01ffbd9d1e86bc3b96d421eca2263102969c01e4d0acc6638444",
      "assetIds": []
    },
    {
      "x": 319,
      "y": 287,
      "size": 1,
      "price": "1011000000000000000000",
      "reserved": "",
      "salt": "0xff395fb59e9ae0d76bcd63215433abce8020ee2fce7086173a479b6de402889e",
      "assetIds": []
    },
    {
      "x": 319,
      "y": 288,
      "size": 1,
      "price": "1011000000000000000000",
      "reserved": "",
      "salt": "0xc4662466fbdc58951a003d98bf00659cbd4d1e855fd4a33773355a0326d4e629",
      "assetIds": []
    },
    {
      "x": 319,
      "y": 289,
      "size": 1,
      "price": "1011000000000000000000",
      "reserved": "",
      "salt": "0x6041953ac65e8394df264a2ecfb76ff76e6065c99c7697fc1556300b6496e14a",
      "assetIds": []
    },
    {
      "x": 319,
      "y": 290,
      "size": 1,
      "price": "1011000000000000000000",
      "reserved": "",
      "salt": "0x3e764463ab10ab3a33aeb2e3f9bdeccda9af877d3bd2750349acaa29e90c0397",
      "assetIds": []
    },
    {
      "x": 319,
      "y": 291,
      "size": 1,
      "price": "1011000000000000000000",
      "reserved": "",
      "salt": "0xf79aba8ac7954f8d909186ed31b09a13b5c6268de33f5af770fa3fb4d6d70c34",
      "assetIds": []
    },
    {
      "x": 319,
      "y": 292,
      "size": 1,
      "price": "1011000000000000000000",
      "reserved": "",
      "salt": "0x1028a7fa2cc7779ae01dc0012e1d3b7ea5c16085011005df301175fecbafb23e",
      "assetIds": []
    },
    {
      "x": 319,
      "y": 293,
      "size": 1,
      "price": "1011000000000000000000",
      "reserved": "",
      "salt": "0xa305b1b6ea81f19a93dab4f58f54c33a6f59c3b6faca31b9f1fb14eeb5166570",
      "assetIds": []
    },
    {
      "x": 320,
      "y": 282,
      "size": 1,
      "price": "1011000000000000000000",
      "reserved": "",
      "salt": "0xc178123f293bb7de400a8ec2337d3c74d53a8a345599e4e4a12a0cd12378594b",
      "assetIds": []
    },
    {
      "x": 320,
      "y": 283,
      "size": 1,
      "price": "1011000000000000000000",
      "reserved": "0x7a9fe22691c811ea339d9b73150e6911a5343dca",
      "salt": "0xb69314ebbb6116216f9857725d29083cb21ffa7438d460dc3d6e25d6a3b6d928",
      "assetIds": []
    },
    {
      "x": 320,
      "y": 284,
      "size": 1,
      "price": "1011000000000000000000",
      "reserved": "",
      "salt": "0xe7a1caafa970a09f28f698799b4476aef14bc062507904d778fe419bf3bebaad",
      "assetIds": []
    },
    {
      "x": 320,
      "y": 285,
      "size": 1,
      "price": "1011000000000000000000",
      "reserved": "0x7a9fe22691c811ea339d9b73150e6911a5343dca",
      "salt": "0x476e7220318ea739b13ca35047d7169e5149e78477bd1d91e7d613fcc7724681",
      "assetIds": []
    },
    {
      "x": 320,
      "y": 286,
      "size": 1,
      "price": "1011000000000000000000",
      "reserved": "",
      "salt": "0x76412c95a7568f945eeae666e8f85ce510b80e81babbb1438c6825e98d465e6d",
      "assetIds": []
    },
    {
      "x": 320,
      "y": 287,
      "size": 1,
      "price": "1011000000000000000000",
      "reserved": "",
      "salt": "0xfca7b521a094fcf7a82cf660c9d0e760699243bb9498ccdbf9626a36ed0fd0ff",
      "assetIds": []
    },
    {
      "x": 320,
      "y": 288,
      "size": 1,
      "price": "1011000000000000000000",
      "reserved": "",
      "salt": "0xd747e4ce2c7dd254fc63f03af5ab328a77ef4b48e671cfd3c9eb0e20b8c81297",
      "assetIds": []
    },
    {
      "x": 320,
      "y": 289,
      "size": 1,
      "price": "1011000000000000000000",
      "reserved": "",
      "salt": "0x723988d5f751f6a70319abf19ec0a58a364bbce025f20920aa50a6d0c6ffa551",
      "assetIds": []
    },
    {
      "x": 320,
      "y": 290,
      "size": 1,
      "price": "1011000000000000000000",
      "reserved": "",
      "salt": "0x310c7fcb53b2e7811ef87a19edef51bdcf982e8400d24cff9e9462bedd6ac6fa",
      "assetIds": []
    },
    {
      "x": 320,
      "y": 291,
      "size": 1,
      "price": "1011000000000000000000",
      "reserved": "",
      "salt": "0x67e6214cb3b2d71d4e232d0a6e9b4569a4dbec3857dd631ddaca3b6018328215",
      "assetIds": []
    },
    {
      "x": 320,
      "y": 292,
      "size": 1,
      "price": "1011000000000000000000",
      "reserved": "",
      "salt": "0x554d48d42a445a1dce2d89414305e49a04e78390c322930b2902b0cd48d50a80",
      "assetIds": []
    },
    {
      "x": 320,
      "y": 293,
      "size": 1,
      "price": "1011000000000000000000",
      "reserved": "",
      "salt": "0xd326179c158bde1cefc450acdd5854a48592734c7b3dfada54ab738b4a8cfd9c",
      "assetIds": []
    },
    {
      "x": 321,
      "y": 282,
      "size": 1,
      "price": "1011000000000000000000",
      "reserved": "",
      "salt": "0x21e9df977a865d91a2dc9bcc59d4f1c85d85f91290c98512d4f55a7cb5c4eb88",
      "assetIds": []
    },
    {
      "x": 321,
      "y": 283,
      "size": 1,
      "price": "1011000000000000000000",
      "reserved": "",
      "salt": "0x54b5edd3cfe9205c043db8807deefab13398de54cb750e2139105061a9338ec3",
      "assetIds": []
    },
    {
      "x": 321,
      "y": 284,
      "size": 1,
      "price": "1011000000000000000000",
      "reserved": "",
      "salt": "0xc3bd7034de08ff88efff768685ce1ee45d6b85ca6ef45dff7cb5c3aebfd5fd96",
      "assetIds": []
    },
    {
      "x": 321,
      "y": 285,
      "size": 1,
      "price": "1011000000000000000000",
      "reserved": "",
      "salt": "0x29c6f0cdd0ff41532fa77c31813a63db74764a30e199390dfd5b5ccd03076cc9",
      "assetIds": []
    },
    {
      "x": 321,
      "y": 286,
      "size": 1,
      "price": "1011000000000000000000",
      "reserved": "",
      "salt": "0x206dfd471a74ac562d788b46fea9a22c46923ae7934155f3fc74d2c48b5048b7",
      "assetIds": []
    },
    {
      "x": 321,
      "y": 287,
      "size": 1,
      "price": "1011000000000000000000",
      "reserved": "",
      "salt": "0xe9b51ca9d69dfb098fa163a81300042f4fd7089cd99ff70ab9209fd4e27da5ec",
      "assetIds": []
    },
    {
      "x": 321,
      "y": 291,
      "size": 1,
      "price": "1011000000000000000000",
      "reserved": "",
      "salt": "0x9f41ad6227f00bc9bbe11de5b4f984d3a7dde22285cfba638c43f94465fb4a7a",
      "assetIds": []
    },
    {
      "x": 321,
      "y": 292,
      "size": 1,
      "price": "1011000000000000000000",
      "reserved": "0x7a9fe22691c811ea339d9b73150e6911a5343dca",
      "salt": "0x2320677c98129533b48228ebf30465801e1fe041c0c3b87078ba7390ee4a5413",
      "assetIds": []
    },
    {
      "x": 321,
      "y": 293,
      "size": 1,
      "price": "1011000000000000000000",
      "reserved": "",
      "salt": "0x8ea6fd8db901337d4be31153233a0cb52c8d8797631d535742b7bf73002c49f3",
      "assetIds": []
    },
    {
      "x": 322,
      "y": 282,
      "size": 1,
      "price": "1011000000000000000000",
      "reserved": "",
      "salt": "0xd32874cdd766f17246c3e7912930566fc998abc43e213bdc82c2fac24e97d9a6",
      "assetIds": []
    },
    {
      "x": 322,
      "y": 283,
      "size": 1,
      "price": "1011000000000000000000",
      "reserved": "",
      "salt": "0xd30b1136abec18d9410b351d8b4265936d37cff8045b5f68a2f74e96cbca0ad3",
      "assetIds": []
    },
    {
      "x": 322,
      "y": 284,
      "size": 1,
      "price": "1011000000000000000000",
      "reserved": "0x7a9fe22691c811ea339d9b73150e6911a5343dca",
      "salt": "0x7b5c59c0d984cdd34ac0a9adcdbaaa65db662c7f6e5af44a26c60ca86ed23144",
      "assetIds": []
    },
    {
      "x": 322,
      "y": 285,
      "size": 1,
      "price": "1011000000000000000000",
      "reserved": "",
      "salt": "0x134da821c151984c84bbb916e255b1a3413e3011785ad128d4e493289de6cc43",
      "assetIds": []
    },
    {
      "x": 322,
      "y": 286,
      "size": 1,
      "price": "1011000000000000000000",
      "reserved": "",
      "salt": "0xb8c3de0045fc6e107cc180f7ce4ca4015fb82cfaa2965815f8177aaff50b6dd4",
      "assetIds": []
    },
    {
      "x": 322,
      "y": 287,
      "size": 1,
      "price": "1011000000000000000000",
      "reserved": "",
      "salt": "0x0bdbfa02c5d20aa4e7c9729362f6aac308258c3234f19a3a3d5dbc4ee0b63d15",
      "assetIds": []
    },
    {
      "x": 322,
      "y": 291,
      "size": 1,
      "price": "1011000000000000000000",
      "reserved": "",
      "salt": "0xd8d37081cc6bd5b0ffb49fb461bf45ad3a0d38a33a6b7bf2d904d3e45e487f7a",
      "assetIds": []
    },
    {
      "x": 322,
      "y": 292,
      "size": 1,
      "price": "1011000000000000000000",
      "reserved": "",
      "salt": "0xc7a320c09fd4e980b43da1448e49258b3bed7b079d91611cb16698c9d345544a",
      "assetIds": []
    },
    {
      "x": 322,
      "y": 293,
      "size": 1,
      "price": "1011000000000000000000",
      "reserved": "",
      "salt": "0x25193cebfcfcfcb9a28a52c45d1c8cb45a244d480a1218b3b7940517180e45ca",
      "assetIds": []
    },
    {
      "x": 323,
      "y": 282,
      "size": 1,
      "price": "1011000000000000000000",
      "reserved": "",
      "salt": "0x0f8834080fb544a84d219b31f497495424d50cbbcdb8f36fc0adb8b1b55abb4c",
      "assetIds": []
    },
    {
      "x": 323,
      "y": 283,
      "size": 1,
      "price": "1011000000000000000000",
      "reserved": "",
      "salt": "0xa194ded190a374d696af99b5112b60508cf12343340bb9460cab7bc581276908",
      "assetIds": []
    },
    {
      "x": 323,
      "y": 284,
      "size": 1,
      "price": "1011000000000000000000",
      "reserved": "",
      "salt": "0x1dc359fa0bad0fd69ea4fe00f72230c37b507e2166a615ea7d88ce423cb133f5",
      "assetIds": []
    },
    {
      "x": 323,
      "y": 285,
      "size": 1,
      "price": "1011000000000000000000",
      "reserved": "",
      "salt": "0xba1641a4b3d8f3984464eca704eb1ef8448f1b07591e5243a3a6d4da3d738509",
      "assetIds": []
    },
    {
      "x": 323,
      "y": 286,
      "size": 1,
      "price": "1011000000000000000000",
      "reserved": "",
      "salt": "0x214f252c49194a0a98a2a75aa4429cc8d4eb5ebee2432990f9eeb05793c705ab",
      "assetIds": []
    },
    {
      "x": 323,
      "y": 287,
      "size": 1,
      "price": "1011000000000000000000",
      "reserved": "",
      "salt": "0xedbb0a16783529d3d7b32707e8218fa5ebb0843851bcdda2495259433a6d72e5",
      "assetIds": []
    },
    {
      "x": 323,
      "y": 291,
      "size": 1,
      "price": "1011000000000000000000",
      "reserved": "",
      "salt": "0x8eb6547a7b873fc0664795460f33e8d819c0a5ba5003b828c7c7e22f324b3d1b",
      "assetIds": []
    },
    {
      "x": 323,
      "y": 292,
      "size": 1,
      "price": "1011000000000000000000",
      "reserved": "",
      "salt": "0xf94176518a597c5548ecbd36bc1b597657cd67717e1773d38a8c4fe1a40a297b",
      "assetIds": []
    },
    {
      "x": 323,
      "y": 293,
      "size": 1,
      "price": "1011000000000000000000",
      "reserved": "",
      "salt": "0x4f1a40da8961b2bed9222e63a289692ebf27d4ffbd613e4183fffca1ef76e671",
      "assetIds": []
    },
    {
      "x": 324,
      "y": 298,
      "size": 1,
      "price": "1011000000000000000000",
      "reserved": "0x7a9fe22691c811ea339d9b73150e6911a5343dca",
      "salt": "0x222f28bbbf66779b44aa0232fa6395240354e3f35740d9ad4e5c2490442f6891",
      "assetIds": []
    },
    {
      "x": 324,
      "y": 299,
      "size": 1,
      "price": "1011000000000000000000",
      "reserved": "0x7a9fe22691c811ea339d9b73150e6911a5343dca",
      "salt": "0x0af0367d3af7c5fcf08c61812e8cd49b31614c7a8ffec3b5fbcf0cc820ed2ebf",
      "assetIds": []
    },
    {
      "x": 324,
      "y": 300,
      "size": 1,
      "price": "4683000000000000000000",
      "reserved": "",
      "salt": "0x1e6e0f851f2e6400b12175c3f9dcb870f89153c5a1308f5ea96e25ce7b442900",
      "assetIds": [
        "41506478881403507969696680653240014914910929820314476107906210059990541021188"
      ]
    },
    {
      "x": 324,
      "y": 301,
      "size": 1,
      "price": "4683000000000000000000",
      "reserved": "",
      "salt": "0xfb4d9bf2ef5d752f06eddbea842a59dd1020d050dd7e4df868cc0f4641eef97f",
      "assetIds": [
        "41506478881403507969696680653240014914910929820314476107906210059990541021187"
      ]
    },
    {
      "x": 324,
      "y": 302,
      "size": 1,
      "price": "4683000000000000000000",
      "reserved": "",
      "salt": "0x47665e10dc8016a21bbf489f280e53a0541227c1d6dd200dab7585054a04a73d",
      "assetIds": [
        "41506478881403507969696680653240014914910929820314476107906210059990541021188"
      ]
    },
    {
      "x": 324,
      "y": 303,
      "size": 1,
      "price": "4683000000000000000000",
      "reserved": "",
      "salt": "0xd1365983bc3034ed964ddc126f52ba87c9739313833c4e2d06a6f68d6186994b",
      "assetIds": [
        "41506478881403507969696680653240014914910929820314476107906210059990541021187"
      ]
    },
    {
      "x": 324,
      "y": 304,
      "size": 1,
      "price": "4683000000000000000000",
      "reserved": "",
      "salt": "0x6bd4722aaf000f8fa7ed9bea49015184058c0787fcaee4c5b8244090c5d407f7",
      "assetIds": [
        "41506478881403507969696680653240014914910929820314476107906210059990541021186"
      ]
    },
    {
      "x": 324,
      "y": 305,
      "size": 1,
      "price": "4683000000000000000000",
      "reserved": "",
      "salt": "0x18763e4d4a0e18a15e4139a668a56dcefd71562c919d8d1516baaad0adb9dd50",
      "assetIds": [
        "41506478881403507969696680653240014914910929820314476107906210059990541021186"
      ]
    },
    {
      "x": 324,
      "y": 306,
      "size": 1,
      "price": "4683000000000000000000",
      "reserved": "",
      "salt": "0x3d479def3a3b20b3c8e7ba0f3ee4098e77da3643718a0bc425a53bfaabfc55fe",
      "assetIds": [
        "41506478881403507969696680653240014914910929820314476107906210059990541021186"
      ]
    },
    {
      "x": 324,
      "y": 307,
      "size": 1,
      "price": "4683000000000000000000",
      "reserved": "",
      "salt": "0xccd4f292a9f65fd0f10e8cdc66c94f007e6907d0d2b364d178124d5b91654b38",
      "assetIds": [
        "41506478881403507969696680653240014914910929820314476107906210059990541021189"
      ]
    },
    {
      "x": 324,
      "y": 308,
      "size": 1,
      "price": "4683000000000000000000",
      "reserved": "",
      "salt": "0x6aedfe012ceb5f171e966573b3162a6191907e05c44210025e1afe396e852ef4",
      "assetIds": [
        "41506478881403507969696680653240014914910929820314476107906210059990541021189"
      ]
    },
    {
      "x": 324,
      "y": 309,
      "size": 1,
      "price": "4683000000000000000000",
      "reserved": "",
      "salt": "0x1400e02fb644b0c0c1090019d35a626d416aa3124b2aa09dc2562700d6d6d31d",
      "assetIds": [
        "41506478881403507969696680653240014914910929820314476107906210059990541021186"
      ]
    },
    {
      "x": 324,
      "y": 310,
      "size": 1,
      "price": "4683000000000000000000",
      "reserved": "",
      "salt": "0x26ee9b5389214f04f125f10db8cfedad67a20e5741cab84b8a72c767dffbf911",
      "assetIds": [
        "41506478881403507969696680653240014914910929820314476107906210059990541021187"
      ]
    },
    {
      "x": 324,
      "y": 311,
      "size": 1,
      "price": "4683000000000000000000",
      "reserved": "",
      "salt": "0x2fccea60930d8a75a617a240defd99331765372fcb0d716f98bd3cca6e751aa3",
      "assetIds": [
        "41506478881403507969696680653240014914910929820314476107906210059990541021189"
      ]
    },
    {
      "x": 325,
      "y": 298,
      "size": 1,
      "price": "1011000000000000000000",
      "reserved": "0x7a9fe22691c811ea339d9b73150e6911a5343dca",
      "salt": "0x63bda385b0d748e663fc7902398c61bf4b7d554a78cfdcde6b6644b3e52c4004",
      "assetIds": []
    },
    {
      "x": 325,
      "y": 299,
      "size": 1,
      "price": "1011000000000000000000",
      "reserved": "0x7a9fe22691c811ea339d9b73150e6911a5343dca",
      "salt": "0x6ec723905429da5ac2423560e0dc869bc06a22dd52526695a110e5720ac635b8",
      "assetIds": []
    },
    {
      "x": 325,
      "y": 300,
      "size": 1,
      "price": "1011000000000000000000",
      "reserved": "0x7a9fe22691c811ea339d9b73150e6911a5343dca",
      "salt": "0x69cee0b11ed0d526a8ba252d2e1bacfc16e62de0bf8ca5dedcf4731f6212a7bc",
      "assetIds": []
    },
    {
      "x": 325,
      "y": 301,
      "size": 1,
      "price": "4683000000000000000000",
      "reserved": "",
      "salt": "0x65658795d35f736e00e05052b57e66b8cc7859e72a82d341e675692243f57b46",
      "assetIds": [
        "41506478881403507969696680653240014914910929820314476107906210059990541021188"
      ]
    },
    {
      "x": 325,
      "y": 302,
      "size": 1,
      "price": "1011000000000000000000",
      "reserved": "0x7a9fe22691c811ea339d9b73150e6911a5343dca",
      "salt": "0x8d27a48b400cb9de80aeb3076599c80ec13974e83abe3b16309cdbc8911d9a9e",
      "assetIds": []
    },
    {
      "x": 325,
      "y": 303,
      "size": 1,
      "price": "1011000000000000000000",
      "reserved": "0x7a9fe22691c811ea339d9b73150e6911a5343dca",
      "salt": "0xb26ee73fe0060b5f3d123123dc4e11266b81d76b6bd81c0f0336e4e29ad236d0",
      "assetIds": []
    },
    {
      "x": 325,
      "y": 304,
      "size": 1,
      "price": "4683000000000000000000",
      "reserved": "",
      "salt": "0x15dd5947e9ea0797bbc39a54a0f78bd248f151d6233266ccda944de0fef27c93",
      "assetIds": [
        "41506478881403507969696680653240014914910929820314476107906210059990541021189"
      ]
    },
    {
      "x": 325,
      "y": 305,
      "size": 1,
      "price": "4683000000000000000000",
      "reserved": "",
      "salt": "0x8e18d46508957e96de09c8a142995c4c2527e3a4fb8a6f0f8210b7091aa68100",
      "assetIds": [
        "41506478881403507969696680653240014914910929820314476107906210059990541021188"
      ]
    },
    {
      "x": 325,
      "y": 306,
      "size": 1,
      "price": "1011000000000000000000",
      "reserved": "0x7a9fe22691c811ea339d9b73150e6911a5343dca",
      "salt": "0xf84dab83ddcac6804d58c2ea7cf023a5ff514606bba49104f025eda14ee370f7",
      "assetIds": []
    },
    {
      "x": 325,
      "y": 307,
      "size": 1,
      "price": "4683000000000000000000",
      "reserved": "",
      "salt": "0x6f58cb59540a2b1bf03b09f902e25215f8dccf4515e054341734e33485c63c55",
      "assetIds": [
        "41506478881403507969696680653240014914910929820314476107906210059990541021188"
      ]
    },
    {
      "x": 325,
      "y": 308,
      "size": 1,
      "price": "1011000000000000000000",
      "reserved": "0x7a9fe22691c811ea339d9b73150e6911a5343dca",
      "salt": "0x54f0594106d4941b55938fab90400c4d352fbfe67b4fb82451990ba5a5afc862",
      "assetIds": []
    },
    {
      "x": 325,
      "y": 309,
      "size": 1,
      "price": "1011000000000000000000",
      "reserved": "0x7a9fe22691c811ea339d9b73150e6911a5343dca",
      "salt": "0x6f14b2aa32bc7bafe6b3c726c8df319ef565ca9d38995161f108b5d74c269538",
      "assetIds": []
    },
    {
      "x": 325,
      "y": 310,
      "size": 1,
      "price": "4683000000000000000000",
      "reserved": "",
      "salt": "0x663a507cb7b9d04da175e362744d8d930320a6f0593e387146fdc859592151e3",
      "assetIds": [
        "41506478881403507969696680653240014914910929820314476107906210059990541021189"
      ]
    },
    {
      "x": 325,
      "y": 311,
      "size": 1,
      "price": "1011000000000000000000",
      "reserved": "0x7a9fe22691c811ea339d9b73150e6911a5343dca",
      "salt": "0xea4995319e6d07344746e15b37c59555c8e471ced81845778a4d14a63fc28fb7",
      "assetIds": []
    },
    {
      "x": 326,
      "y": 300,
      "size": 1,
      "price": "1011000000000000000000",
      "reserved": "",
      "salt": "0xc7c20e8f0a20dc69d7835368fbfc11160e8c2f172cc0eb0cb877c1a14f784ff8",
      "assetIds": []
    },
    {
      "x": 326,
      "y": 301,
      "size": 1,
      "price": "1011000000000000000000",
      "reserved": "",
      "salt": "0x2453dbef324b5c098999a4f3c3832b617aeb139add4b76e4fd6a51f7c2873008",
      "assetIds": []
    },
    {
      "x": 326,
      "y": 302,
      "size": 1,
      "price": "1011000000000000000000",
      "reserved": "",
      "salt": "0x0264722dd79a46fa5899c4ec768ce029744d03a5fe1faa93bf37d615117c1492",
      "assetIds": []
    },
    {
      "x": 326,
      "y": 303,
      "size": 1,
      "price": "1011000000000000000000",
      "reserved": "",
      "salt": "0x1b0350f8c5077efa662837d91433a9912fff26b0c24e26ace32d2484c2b50ed1",
      "assetIds": []
    },
    {
      "x": 326,
      "y": 304,
      "size": 1,
      "price": "1011000000000000000000",
      "reserved": "",
      "salt": "0xd9b9da21e42992c9bc34aa37ec1790d13aeec95ea64c8a592b4c2edfe94dec15",
      "assetIds": []
    },
    {
      "x": 326,
      "y": 305,
      "size": 1,
      "price": "1011000000000000000000",
      "reserved": "",
      "salt": "0x7b614d87ff39e24062559952d6ff018b34c0ea5c143f9721e30bb0601a8fe57e",
      "assetIds": []
    },
    {
      "x": 326,
      "y": 306,
      "size": 1,
      "price": "1011000000000000000000",
      "reserved": "",
      "salt": "0x4ed722da7abf364bf7924eab0d686af2558d6d7531b375067d5173c11dd25645",
      "assetIds": []
    },
    {
      "x": 326,
      "y": 307,
      "size": 1,
      "price": "1011000000000000000000",
      "reserved": "",
      "salt": "0xeff6644ebd5fb7c9671ff89f48171c6800809112931c46becfb503355427ec37",
      "assetIds": []
    },
    {
      "x": 326,
      "y": 308,
      "size": 1,
      "price": "1011000000000000000000",
      "reserved": "",
      "salt": "0xb9149cdd5e712264e4a54bb0b6e35a8aa0ca43463e73d7e2fce39d0d0c0e2d41",
      "assetIds": []
    },
    {
      "x": 326,
      "y": 309,
      "size": 1,
      "price": "1011000000000000000000",
      "reserved": "",
      "salt": "0x8e3b76b9aeba55c3a928f4ca2509191a5db796536e7b5286e1a12be42bbe46c8",
      "assetIds": []
    },
    {
      "x": 326,
      "y": 310,
      "size": 1,
      "price": "1011000000000000000000",
      "reserved": "",
      "salt": "0xcef3a3fa9ba10f0519482096258da3298c147c4f4fa110518fbe104f7924ffbb",
      "assetIds": []
    },
    {
      "x": 326,
      "y": 311,
      "size": 1,
      "price": "1011000000000000000000",
      "reserved": "",
      "salt": "0xc1456130ba4a6c9e192252126f16f52a77be927d17126450746a192eee915949",
      "assetIds": []
    },
    {
      "x": 327,
      "y": 300,
      "size": 1,
      "price": "1011000000000000000000",
      "reserved": "",
      "salt": "0x1e8f3c4397e9a43ec8600b0ca19ee90ab247c4583cdd33ffde8447c7262b6f30",
      "assetIds": []
    },
    {
      "x": 327,
      "y": 301,
      "size": 1,
      "price": "1011000000000000000000",
      "reserved": "",
      "salt": "0x9ddc40843e94217233e1e4be91ba7080cec7b85c4b9eee1d6dbbef4574cbf5dc",
      "assetIds": []
    },
    {
      "x": 327,
      "y": 302,
      "size": 1,
      "price": "1011000000000000000000",
      "reserved": "",
      "salt": "0xf9cfc5c775ee545482fde0ae1175fe4b7f0a0b419f8e23e1b465d90cc44c9add",
      "assetIds": []
    },
    {
      "x": 327,
      "y": 303,
      "size": 1,
      "price": "1011000000000000000000",
      "reserved": "",
      "salt": "0x24d450b370179c7142598734eee929900811b3761fd9b0bab1d400c4ad58fc90",
      "assetIds": []
    },
    {
      "x": 327,
      "y": 304,
      "size": 1,
      "price": "1011000000000000000000",
      "reserved": "0x7a9fe22691c811ea339d9b73150e6911a5343dca",
      "salt": "0x794694a95f65377799a6ea42952f16d57e4849e41464d72965c404f4b382bcc6",
      "assetIds": []
    },
    {
      "x": 327,
      "y": 305,
      "size": 1,
      "price": "1011000000000000000000",
      "reserved": "",
      "salt": "0x2adbc628c8e461ccfc70ad2a2c83962c904b5085cd189a957e39bc317d1498da",
      "assetIds": []
    },
    {
      "x": 327,
      "y": 306,
      "size": 1,
      "price": "1011000000000000000000",
      "reserved": "",
      "salt": "0xe309cc6c9993057f52fb2588619045fba0b45f2f781162730bc6a1a2cdb1a004",
      "assetIds": []
    },
    {
      "x": 327,
      "y": 307,
      "size": 1,
      "price": "1011000000000000000000",
      "reserved": "",
      "salt": "0x747b2edfb98de6e465f70440432dd2a12cf725ffc511b2cb44badc3042f365c7",
      "assetIds": []
    },
    {
      "x": 327,
      "y": 308,
      "size": 1,
      "price": "1011000000000000000000",
      "reserved": "",
      "salt": "0xba59ef1b1212d3c054b3c771232042ae295aabf722e4cc62539facf1c7da8969",
      "assetIds": []
    },
    {
      "x": 327,
      "y": 309,
      "size": 1,
      "price": "1011000000000000000000",
      "reserved": "0x7a9fe22691c811ea339d9b73150e6911a5343dca",
      "salt": "0x7b74b2bd7a2c698925139ba4c4660f414514c31db5f2856bf16d7e701493f626",
      "assetIds": []
    },
    {
      "x": 327,
      "y": 310,
      "size": 1,
      "price": "1011000000000000000000",
      "reserved": "",
      "salt": "0xc957d4ee01cbf2b11b9dc7e38e41495d066a0f20cb6a20421897fd72a4e1b4b9",
      "assetIds": []
    },
    {
      "x": 327,
      "y": 311,
      "size": 1,
      "price": "1011000000000000000000",
      "reserved": "",
      "salt": "0x4d37ad00acbc78b5ee5df390a8e882dba23d2410f7e650b684bd5aeea205b26e",
      "assetIds": []
    },
    {
      "x": 328,
      "y": 300,
      "size": 1,
      "price": "1011000000000000000000",
      "reserved": "",
      "salt": "0xd62dec3c577ba3689e662610a7811af74bc694f2702d466580cb8bf0f1e7d1e7",
      "assetIds": []
    },
    {
      "x": 328,
      "y": 301,
      "size": 1,
      "price": "1011000000000000000000",
      "reserved": "0x7a9fe22691c811ea339d9b73150e6911a5343dca",
      "salt": "0x85339b39d8fe8f8beef7afd0f63ed8268848cdcad453396aea55266aab49936a",
      "assetIds": []
    },
    {
      "x": 328,
      "y": 302,
      "size": 1,
      "price": "1011000000000000000000",
      "reserved": "",
      "salt": "0x5fff1ceb772588fb0d9e3b0e68e87bbd7ab23e4338be1537802f3284f7d8c891",
      "assetIds": []
    },
    {
      "x": 328,
      "y": 303,
      "size": 1,
      "price": "1011000000000000000000",
      "reserved": "",
      "salt": "0xde114bce2849cf8ac4293717969df5ce70f15477684cf4170e3b94a5ef2f1440",
      "assetIds": []
    },
    {
      "x": 328,
      "y": 304,
      "size": 1,
      "price": "1011000000000000000000",
      "reserved": "",
      "salt": "0xd2f34d2d88d0fdd280ecdf8eb434d2bd7650f1a81f6b976be130f523c7eb8903",
      "assetIds": []
    },
    {
      "x": 328,
      "y": 305,
      "size": 1,
      "price": "1011000000000000000000",
      "reserved": "",
      "salt": "0x3ec3978d675e9d4fb7f98e864dff4850ed47bc28c5fbbbb764ebedfba9dc5fdd",
      "assetIds": []
    },
    {
      "x": 328,
      "y": 306,
      "size": 1,
      "price": "1011000000000000000000",
      "reserved": "",
      "salt": "0xfc24e53441cdafe3a26a1b96db946d0bf3509eed84a8c777f763b5327f18ae7b",
      "assetIds": []
    },
    {
      "x": 328,
      "y": 307,
      "size": 1,
      "price": "1011000000000000000000",
      "reserved": "0x7a9fe22691c811ea339d9b73150e6911a5343dca",
      "salt": "0x21f38a384b5ebe76d870d4a57fe0d4140d67383993c687599d773784a5f7e7ef",
      "assetIds": []
    },
    {
      "x": 328,
      "y": 308,
      "size": 1,
      "price": "1011000000000000000000",
      "reserved": "",
      "salt": "0xa79befe35a339db235534efe423ba44cb5e70417bf185a454dcc16738562be69",
      "assetIds": []
    },
    {
      "x": 328,
      "y": 309,
      "size": 1,
      "price": "1011000000000000000000",
      "reserved": "",
      "salt": "0x9ee7a36a602ac9d567078b29b31e2f3881b23c74f7dbf00633943812e98adebf",
      "assetIds": []
    },
    {
      "x": 328,
      "y": 310,
      "size": 1,
      "price": "1011000000000000000000",
      "reserved": "",
      "salt": "0xd83d29c06eddd20456d19aa1337e4d7531a83a551f785b701b8c2e44ba34f564",
      "assetIds": []
    },
    {
      "x": 328,
      "y": 311,
      "size": 1,
      "price": "1011000000000000000000",
      "reserved": "",
      "salt": "0x88010f306f92ab246d3cde5d44eef77af6aac1e104453ef3994f17efc2d03362",
      "assetIds": []
    },
    {
      "x": 329,
      "y": 300,
      "size": 1,
      "price": "1011000000000000000000",
      "reserved": "",
      "salt": "0x197ed344be755256e565c56ad433fe4ed04322380a40cf8697eb2a71e2a7266d",
      "assetIds": []
    },
    {
      "x": 329,
      "y": 301,
      "size": 1,
      "price": "1011000000000000000000",
      "reserved": "",
      "salt": "0x9986c6200427c55a659b3cd435247686a91496eb42ac8100a37b6e20e85abc9a",
      "assetIds": []
    },
    {
      "x": 329,
      "y": 302,
      "size": 1,
      "price": "1011000000000000000000",
      "reserved": "",
      "salt": "0xc61000bb2322f568ddfb97891f50018dfddd50b7c9bc54348255cdb85eaf3958",
      "assetIds": []
    },
    {
      "x": 329,
      "y": 303,
      "size": 1,
      "price": "1011000000000000000000",
      "reserved": "0x7a9fe22691c811ea339d9b73150e6911a5343dca",
      "salt": "0x53808f6d720be66c787156d792d3dbd701d1bdf05246c644129cdbe6d786744e",
      "assetIds": []
    },
    {
      "x": 329,
      "y": 304,
      "size": 1,
      "price": "1011000000000000000000",
      "reserved": "",
      "salt": "0x7ab3116316620827002f7a18ec5323ebc852720651f474d385a8dbb07b2fee32",
      "assetIds": []
    },
    {
      "x": 329,
      "y": 305,
      "size": 1,
      "price": "1011000000000000000000",
      "reserved": "",
      "salt": "0x34e0d442cda3c807dfc41deed36ecccd21831dd559d112fcba25292dd8fbaa4d",
      "assetIds": []
    },
    {
      "x": 329,
      "y": 306,
      "size": 1,
      "price": "1011000000000000000000",
      "reserved": "",
      "salt": "0xce96a0a3bbdbe14835b2e3352a30f44d71f7f315784d82764980df88fa6a7c70",
      "assetIds": []
    },
    {
      "x": 329,
      "y": 307,
      "size": 1,
      "price": "1011000000000000000000",
      "reserved": "",
      "salt": "0x24624c2e98e72c37ec262ce00af90c881cc2be074304a08dcd27d23b98145340",
      "assetIds": []
    },
    {
      "x": 329,
      "y": 308,
      "size": 1,
      "price": "1011000000000000000000",
      "reserved": "",
      "salt": "0x4d4ef201ba2b2d63bd694b84ce1d1b13090088cfd41e9e4737af41a118eed465",
      "assetIds": []
    },
    {
      "x": 329,
      "y": 309,
      "size": 1,
      "price": "1011000000000000000000",
      "reserved": "",
      "salt": "0xe0559d00a4b34dc16d10e8bd390f1bb3af09c834cffbf7ef588d1d38a8d9d35e",
      "assetIds": []
    },
    {
      "x": 329,
      "y": 310,
      "size": 1,
      "price": "1011000000000000000000",
      "reserved": "",
      "salt": "0x451968834ab9ac22dfd1be0458020afa94a24bba18ba043a26eb203280f1e3b4",
      "assetIds": []
    },
    {
      "x": 329,
      "y": 311,
      "size": 1,
      "price": "1011000000000000000000",
      "reserved": "",
      "salt": "0xd9e3f271db91bdf5f3ae6f98d7dab5d3135d0a11928dd912880651ad40c8267f",
      "assetIds": []
    },
    {
      "x": 330,
      "y": 300,
      "size": 1,
      "price": "1011000000000000000000",
      "reserved": "",
      "salt": "0x1fab449d55d73350bd643f0a7f31a358fb3c75d47b5510b84f1dd398e84a5457",
      "assetIds": []
    },
    {
      "x": 330,
      "y": 301,
      "size": 1,
      "price": "1011000000000000000000",
      "reserved": "",
      "salt": "0xd456befd880c87eaaedac4b1bfc3b6ace631be1cc7f378eae6686f304a9baa01",
      "assetIds": []
    },
    {
      "x": 330,
      "y": 302,
      "size": 1,
      "price": "1011000000000000000000",
      "reserved": "",
      "salt": "0x9cea737e91e77af840d344063f3d8fbb9581ad030bbed69d38dc5cd64f1517ef",
      "assetIds": []
    },
    {
      "x": 330,
      "y": 303,
      "size": 1,
      "price": "1011000000000000000000",
      "reserved": "",
      "salt": "0xe7ffbc7888d62251671d2ecace9fe31ab02c98cb5d5dcc64fa9b0da1a3fcbede",
      "assetIds": []
    },
    {
      "x": 330,
      "y": 304,
      "size": 1,
      "price": "1011000000000000000000",
      "reserved": "",
      "salt": "0x815a6d596fc464b61092aad480b707d4408b2d708fc355ed7fbb2a7cd4a9c10d",
      "assetIds": []
    },
    {
      "x": 330,
      "y": 305,
      "size": 1,
      "price": "1011000000000000000000",
      "reserved": "",
      "salt": "0xcadc8349bd26a2651666bc44832c9c004753b8747b0809bdbda3502651e1986d",
      "assetIds": []
    },
    {
      "x": 331,
      "y": 300,
      "size": 1,
      "price": "1011000000000000000000",
      "reserved": "",
      "salt": "0xc16f481688e9dbbd6b70c8447fbd3ce29e1404f21c9669a9647fdfa345c668e3",
      "assetIds": []
    },
    {
      "x": 331,
      "y": 301,
      "size": 1,
      "price": "1011000000000000000000",
      "reserved": "",
      "salt": "0xc71bee0247dd6d967e47941922373bdbcc329fb7ae801adc06f9096a8f6a782a",
      "assetIds": []
    },
    {
      "x": 331,
      "y": 302,
      "size": 1,
      "price": "1011000000000000000000",
      "reserved": "",
      "salt": "0xe51b163023a368f55ed106a39c4e28e2e6336e588b8a6f675985d3faab09c6e0",
      "assetIds": []
    },
    {
      "x": 331,
      "y": 303,
      "size": 1,
      "price": "1011000000000000000000",
      "reserved": "",
      "salt": "0xdd2de81d01953b1212b4ca09a92e8b0b8c8bab488f51f054f1a1e4b90c73a96b",
      "assetIds": []
    },
    {
      "x": 331,
      "y": 304,
      "size": 1,
      "price": "1011000000000000000000",
      "reserved": "",
      "salt": "0xf0f4f9f8b1d99a1ee3fb8f1a2a33a1e0551a66625ffa658572dc34fe76258751",
      "assetIds": []
    },
    {
      "x": 331,
      "y": 305,
      "size": 1,
      "price": "1011000000000000000000",
      "reserved": "",
      "salt": "0x9483551ff9ab1470b812aa22874816fb4a2d6931fc3ff74153f4248bd413a9c2",
      "assetIds": []
    },
    {
      "x": 332,
      "y": 300,
      "size": 1,
      "price": "1011000000000000000000",
      "reserved": "",
      "salt": "0x44928885a98e789c62f988bb8e10e307ca67c3de04fdf8be1316b22a978dd3ff",
      "assetIds": []
    },
    {
      "x": 332,
      "y": 301,
      "size": 1,
      "price": "1011000000000000000000",
      "reserved": "0x7a9fe22691c811ea339d9b73150e6911a5343dca",
      "salt": "0x0155934c8eeef50f316560270791f57ad3f6809af1b53e7d83e282244acc2319",
      "assetIds": []
    },
    {
      "x": 332,
      "y": 302,
      "size": 1,
      "price": "1011000000000000000000",
      "reserved": "",
      "salt": "0x8f35249af91d8f1839b0fa6aa5f9afbd35ce4502ae3c32a19a4d4663ff595a8e",
      "assetIds": []
    },
    {
      "x": 332,
      "y": 303,
      "size": 1,
      "price": "1011000000000000000000",
      "reserved": "",
      "salt": "0x068740caecea94a5430f313f3ecd4ae2352f1e7291c25d2a2ff35f553473b2e2",
      "assetIds": []
    },
    {
      "x": 332,
      "y": 304,
      "size": 1,
      "price": "1011000000000000000000",
      "reserved": "",
      "salt": "0x8d0b1ad55d10461249f7d73b3e0d24c618deb81b915d8d57f831669008f9d84a",
      "assetIds": []
    },
    {
      "x": 332,
      "y": 305,
      "size": 1,
      "price": "1011000000000000000000",
      "reserved": "",
      "salt": "0x437eeb343964d3da3e7291929c71fdb7c72d60fba3f3a025b72597befc45163a",
      "assetIds": []
    },
    {
      "x": 333,
      "y": 300,
      "size": 1,
      "price": "1011000000000000000000",
      "reserved": "",
      "salt": "0x6cdd80569fbfda119e87d01ab9667a4bfc3893b3ff057751bffb1f182c3c2c60",
      "assetIds": []
    },
    {
      "x": 333,
      "y": 301,
      "size": 1,
      "price": "1011000000000000000000",
      "reserved": "",
      "salt": "0xa0a3137051e5a2e23e303c314091fe6836ecf2b006a335f3e6cd72dec79d47fd",
      "assetIds": []
    },
    {
      "x": 333,
      "y": 302,
      "size": 1,
      "price": "1011000000000000000000",
      "reserved": "",
      "salt": "0x8403020906cce85474e40fa355a6241e09d9e8856f4d848c37490eda9d77f248",
      "assetIds": []
    },
    {
      "x": 333,
      "y": 303,
      "size": 1,
      "price": "1011000000000000000000",
      "reserved": "",
      "salt": "0x89aa48d073de897988b7e24819ec566da68c9aa1cee43e70cd3e521b42b436d1",
      "assetIds": []
    },
    {
      "x": 333,
      "y": 304,
      "size": 1,
      "price": "1011000000000000000000",
      "reserved": "0x7a9fe22691c811ea339d9b73150e6911a5343dca",
      "salt": "0xcfee171f7aab937dafc3362f53d6cbd0d9dda26c612e15a0e43673ae711446d5",
      "assetIds": []
    },
    {
      "x": 333,
      "y": 305,
      "size": 1,
      "price": "1011000000000000000000",
      "reserved": "",
      "salt": "0x07ff7fcf0510c01b369a9608410786abdc1e8eea9adc4f5f9fe0278e2146c089",
      "assetIds": []
    },
    {
      "x": 334,
      "y": 300,
      "size": 1,
      "price": "1011000000000000000000",
      "reserved": "0x7a9fe22691c811ea339d9b73150e6911a5343dca",
      "salt": "0x75a7201ca74a7b17021575b64ceed2c64a6b08d5bb53a355609cab91d21919e7",
      "assetIds": []
    },
    {
      "x": 334,
      "y": 301,
      "size": 1,
      "price": "1011000000000000000000",
      "reserved": "",
      "salt": "0x19796b4d301fcf3dc34d97abf1ee367adfd5fcdcfafc212e56687e4738a40af3",
      "assetIds": []
    },
    {
      "x": 334,
      "y": 302,
      "size": 1,
      "price": "1011000000000000000000",
      "reserved": "",
      "salt": "0x3243f0b322eed87ea885e95dad2a61b29a05435d84949e0dac4e16cb3f6cb80f",
      "assetIds": []
    },
    {
      "x": 334,
      "y": 303,
      "size": 1,
      "price": "1011000000000000000000",
      "reserved": "",
      "salt": "0xeff0b5396128b15d649463514d04bd14e1e3c8a8ba277f01bc4e92bcf4e39e7e",
      "assetIds": []
    },
    {
      "x": 334,
      "y": 304,
      "size": 1,
      "price": "1011000000000000000000",
      "reserved": "",
      "salt": "0xd8d4c0772be1adc6923dcad6fae9990758b1f996b80b1828149f6382ab46fbf5",
      "assetIds": []
    },
    {
      "x": 334,
      "y": 305,
      "size": 1,
      "price": "1011000000000000000000",
      "reserved": "",
      "salt": "0xacdcce9ce2b36dad5879f06718554949536bbad523370faf6ef64354e7bb051c",
      "assetIds": []
    },
    {
      "x": 335,
      "y": 300,
      "size": 1,
      "price": "1011000000000000000000",
      "reserved": "",
      "salt": "0x223efe2a504ec7cde2f649e7873e01ae8ee47c5ae273f14a4c9147fc8a52dd85",
      "assetIds": []
    },
    {
      "x": 335,
      "y": 301,
      "size": 1,
      "price": "1011000000000000000000",
      "reserved": "",
      "salt": "0x2866158568de01f8725768e38c71b2d3c2471e5cdf6889df49e4d01203e0b360",
      "assetIds": []
    },
    {
      "x": 335,
      "y": 302,
      "size": 1,
      "price": "1011000000000000000000",
      "reserved": "",
      "salt": "0x8732c19e8c961be721f3255e849ae78e7cce8d3ad4e4b5ef218f57111c838108",
      "assetIds": []
    },
    {
      "x": 335,
      "y": 303,
      "size": 1,
      "price": "1011000000000000000000",
      "reserved": "",
      "salt": "0x3546b477a09df2cb167b4f07d8359eeaecf862d9f32b5148adb1d9981d98f356",
      "assetIds": []
    },
    {
      "x": 335,
      "y": 304,
      "size": 1,
      "price": "1011000000000000000000",
      "reserved": "",
      "salt": "0x40e655beab5befb74d11914de96fdd56ad33f9036c94dc2708a53b3bf4ba8e55",
      "assetIds": []
    },
    {
      "x": 335,
      "y": 305,
      "size": 1,
      "price": "1011000000000000000000",
      "reserved": "",
      "salt": "0xc428014bfddd9361a2a8cee7331cd53c287e52509fab55ca4c7c7d5be77cef88",
      "assetIds": []
    },
    {
      "x": 336,
      "y": 306,
      "size": 1,
      "price": "1011000000000000000000",
      "reserved": "",
      "salt": "0xdf7ae5e496d953a97fd9701368be2c3c04426e268f7ce6c762c7c0d4602a594a",
      "assetIds": []
    },
    {
      "x": 336,
      "y": 307,
      "size": 1,
      "price": "1011000000000000000000",
      "reserved": "",
      "salt": "0x1b827317cad957611a86a41de26e94c866ddeab251531341730e444ea033d79b",
      "assetIds": []
    },
    {
      "x": 336,
      "y": 308,
      "size": 1,
      "price": "1011000000000000000000",
      "reserved": "",
      "salt": "0xb75e55de03b240ca4eae0770bee0a4015df56049920f63cc6d30c196d0457bd1",
      "assetIds": []
    },
    {
      "x": 336,
      "y": 309,
      "size": 1,
      "price": "1011000000000000000000",
      "reserved": "",
      "salt": "0x8136b469b71e7c460a587418fec16e8cb9bed3b8599efdbf529c4875e582b8f5",
      "assetIds": []
    },
    {
      "x": 336,
      "y": 310,
      "size": 1,
      "price": "1011000000000000000000",
      "reserved": "",
      "salt": "0x488a1606b3bb53a02ca9df417c000bc7f3c4593c64a1884630f7db133bef8257",
      "assetIds": []
    },
    {
      "x": 336,
      "y": 311,
      "size": 1,
      "price": "1011000000000000000000",
      "reserved": "",
      "salt": "0x98b80b3df0247613e18e31dfd9e829d2d8d3b192c51296de3fc4e4783ad133f4",
      "assetIds": []
    },
    {
      "x": 337,
      "y": 306,
      "size": 1,
      "price": "1011000000000000000000",
      "reserved": "",
      "salt": "0x89ea26a87cbc1235b2aaaf17ff5bf2bc078146567f03f5d47cff4907eb3be9be",
      "assetIds": []
    },
    {
      "x": 337,
      "y": 307,
      "size": 1,
      "price": "1011000000000000000000",
      "reserved": "",
      "salt": "0xfc371c5a147e436f2ca8fc008b43b7b40dfae71f484bbda1c587ab2b90e4cec4",
      "assetIds": []
    },
    {
      "x": 337,
      "y": 308,
      "size": 1,
      "price": "1011000000000000000000",
      "reserved": "",
      "salt": "0xb88685991c77ff72e8b8321519f3862beac5fe7a9b66ce7fbfbf54d59956772d",
      "assetIds": []
    },
    {
      "x": 337,
      "y": 309,
      "size": 1,
      "price": "1011000000000000000000",
      "reserved": "",
      "salt": "0x341c6494b9b757016c1737923350bcf4fea8517cef46ec2627ff1c02bdd7ab5d",
      "assetIds": []
    },
    {
      "x": 337,
      "y": 310,
      "size": 1,
      "price": "1011000000000000000000",
      "reserved": "",
      "salt": "0xb7877c4472db02a564a891c3f6d4c51e4bd22ca4d010f2878817a6e7932195d2",
      "assetIds": []
    },
    {
      "x": 337,
      "y": 311,
      "size": 1,
      "price": "1011000000000000000000",
      "reserved": "",
      "salt": "0x63d07b8bb888d9d838aad4b34b464e8fb58d592a8ed544fd45856efa38b4b31f",
      "assetIds": []
    },
    {
      "x": 338,
      "y": 306,
      "size": 1,
      "price": "1011000000000000000000",
      "reserved": "",
      "salt": "0xa22a7d88924f52f3fe81bc1179756ac108117172dc1f1f3692bf711516a3a016",
      "assetIds": []
    },
    {
      "x": 338,
      "y": 307,
      "size": 1,
      "price": "1011000000000000000000",
      "reserved": "",
      "salt": "0x3935e2e7192fc010b7eb209bd7a3a2fac76e1437111cf12ef4609d2c75032680",
      "assetIds": []
    },
    {
      "x": 338,
      "y": 308,
      "size": 1,
      "price": "1011000000000000000000",
      "reserved": "0x7a9fe22691c811ea339d9b73150e6911a5343dca",
      "salt": "0x5e61c3efd5743664880f86a7596bbe0095080fda7662f7de3ca999a2029eafee",
      "assetIds": []
    },
    {
      "x": 338,
      "y": 309,
      "size": 1,
      "price": "1011000000000000000000",
      "reserved": "",
      "salt": "0xb8363c80bcb6b5fe20ac96a744992468af917c94155dd92a3fb9b96de88bf31e",
      "assetIds": []
    },
    {
      "x": 338,
      "y": 310,
      "size": 1,
      "price": "1011000000000000000000",
      "reserved": "",
      "salt": "0xf3db654a42808fb45801c425db0a7f6e2f93944bff300be59e1171e35461bee4",
      "assetIds": []
    },
    {
      "x": 338,
      "y": 311,
      "size": 1,
      "price": "1011000000000000000000",
      "reserved": "",
      "salt": "0xca44b4014f9aec5453abf96f6bea1cf621d0381cabe67c13afa2959995bf635c",
      "assetIds": []
    },
    {
      "x": 339,
      "y": 306,
      "size": 1,
      "price": "1011000000000000000000",
      "reserved": "",
      "salt": "0x57f8a17685916e1a15bd09136df533b791b6955cc9acabb34e0db5b346439e05",
      "assetIds": []
    },
    {
      "x": 339,
      "y": 307,
      "size": 1,
      "price": "1011000000000000000000",
      "reserved": "",
      "salt": "0x5f9da4ce30740c63073978c33a133e933abaacfe8729bf52371ba2a4afca0b53",
      "assetIds": []
    },
    {
      "x": 339,
      "y": 308,
      "size": 1,
      "price": "1011000000000000000000",
      "reserved": "",
      "salt": "0xc6241f4f9c798f2c5128a108a9764d60bc34d686f055285c17f813dc6a4c0ec2",
      "assetIds": []
    },
    {
      "x": 340,
      "y": 306,
      "size": 1,
      "price": "1011000000000000000000",
      "reserved": "",
      "salt": "0x4f5c491c0b55850b2d90ccebe61e57f32bc3a5fdfd0200e7a91ba38a18138b48",
      "assetIds": []
    },
    {
      "x": 340,
      "y": 307,
      "size": 1,
      "price": "1011000000000000000000",
      "reserved": "0x7a9fe22691c811ea339d9b73150e6911a5343dca",
      "salt": "0x7206041c92c9ef35351dd06e38a4d39868983d732a64d949155fd29b7cab0f21",
      "assetIds": []
    },
    {
      "x": 340,
      "y": 308,
      "size": 1,
      "price": "1011000000000000000000",
      "reserved": "",
      "salt": "0x49d1d98b857ea88eb1919568c0b4d70c7dc4b6077796d629406fdf41d5eb2a0c",
      "assetIds": []
    },
    {
      "x": 341,
      "y": 306,
      "size": 1,
      "price": "1011000000000000000000",
      "reserved": "",
      "salt": "0x920cbaf39f226f7fd4125310bfdf0b4fe6218ddf54ef9743b46c77934d5c18eb",
      "assetIds": []
    },
    {
      "x": 341,
      "y": 307,
      "size": 1,
      "price": "1011000000000000000000",
      "reserved": "",
      "salt": "0xbdfcb305aaf51eaa33e7b04f51e82d4bf53df7d21b309f58c28927a4fa61679c",
      "assetIds": []
    },
    {
      "x": 341,
      "y": 308,
      "size": 1,
      "price": "1011000000000000000000",
      "reserved": "",
      "salt": "0x03312fc4a36be57aaa5a12490c9c920f846fb195102c13ca97c5b917237cb0a1",
      "assetIds": []
    },
    {
      "x": 342,
      "y": 300,
      "size": 1,
      "price": "1011000000000000000000",
      "reserved": "",
      "salt": "0x6afe262e64ae04d9a0ca2a6b738fede860d1f0e735c9de2893b6c420cfeb4c13",
      "assetIds": []
    },
    {
      "x": 342,
      "y": 301,
      "size": 1,
      "price": "1011000000000000000000",
      "reserved": "",
      "salt": "0x8511ba1092293256424deb7924b0786dec1a8cb42102c78b3592694c624fcc9e",
      "assetIds": []
    },
    {
      "x": 342,
      "y": 302,
      "size": 1,
      "price": "1011000000000000000000",
      "reserved": "",
      "salt": "0xba405ea9b79f5dffd9d1256eae5d49dab92e7d538a774f3e4e353009b1e9b03d",
      "assetIds": []
    },
    {
      "x": 342,
      "y": 303,
      "size": 1,
      "price": "1011000000000000000000",
      "reserved": "",
      "salt": "0x1572186dd9f8139d01defb4b2543143575e9f1a7fd4996af80f1b2ecdf47d819",
      "assetIds": []
    },
    {
      "x": 342,
      "y": 304,
      "size": 1,
      "price": "1011000000000000000000",
      "reserved": "",
      "salt": "0x2cdf82e835ed53f531a0878268f7ef19d4535556a8d1a417f4efe34859732841",
      "assetIds": []
    },
    {
      "x": 342,
      "y": 305,
      "size": 1,
      "price": "1011000000000000000000",
      "reserved": "",
      "salt": "0x740e9369b74b6baec13f4869cc7608c2545cd97eef64004b71177ddec6b8b27e",
      "assetIds": []
    },
    {
      "x": 342,
      "y": 306,
      "size": 1,
      "price": "1011000000000000000000",
      "reserved": "",
      "salt": "0x057a6af7a7568d19e038bc0a72266ee46ff09ff686acfc2f2c5ec8b44b909363",
      "assetIds": []
    },
    {
      "x": 342,
      "y": 307,
      "size": 1,
      "price": "1011000000000000000000",
      "reserved": "",
      "salt": "0x9e67b095a8e6884cf5c48bb22ae2aefe793da65988409504268a67d88f021291",
      "assetIds": []
    },
    {
      "x": 342,
      "y": 308,
      "size": 1,
      "price": "1011000000000000000000",
      "reserved": "",
      "salt": "0x69af7e222c9a875ddbd2c1aef8584699efc1f929fda9b134f8af33c2e3c561e9",
      "assetIds": []
    },
    {
      "x": 343,
      "y": 300,
      "size": 1,
      "price": "1011000000000000000000",
      "reserved": "",
      "salt": "0x07bf4ce4fb55a11373d86a797b342e85c3fc55def2d09dc05cc201b3ab1e6805",
      "assetIds": []
    },
    {
      "x": 343,
      "y": 301,
      "size": 1,
      "price": "1011000000000000000000",
      "reserved": "",
      "salt": "0x8874f661090cb7cc81fae395dd58ef23824f8b6314dbdfe5a42351dfaa29a785",
      "assetIds": []
    },
    {
      "x": 343,
      "y": 302,
      "size": 1,
      "price": "1011000000000000000000",
      "reserved": "",
      "salt": "0x2c24d922c2586c4d130da3ec948cb8a8473511e307f57840ce11b362e99a5c78",
      "assetIds": []
    },
    {
      "x": 343,
      "y": 303,
      "size": 1,
      "price": "1011000000000000000000",
      "reserved": "0x7a9fe22691c811ea339d9b73150e6911a5343dca",
      "salt": "0x5c0e16e7e6197472524595fad8afe8cff90841cff3b5761f57ccdd1f1545030e",
      "assetIds": []
    },
    {
      "x": 343,
      "y": 304,
      "size": 1,
      "price": "1011000000000000000000",
      "reserved": "",
      "salt": "0x8efa4fab7acb86606891e3440753d073f0887c1e08bb39b322727685e7ffff63",
      "assetIds": []
    },
    {
      "x": 343,
      "y": 305,
      "size": 1,
      "price": "1011000000000000000000",
      "reserved": "",
      "salt": "0x167e5e052e52af4c2350acfccac7373bfc4e8a9db096e11aad4621860f67b059",
      "assetIds": []
    },
    {
      "x": 343,
      "y": 306,
      "size": 1,
      "price": "1011000000000000000000",
      "reserved": "",
      "salt": "0xd38147868efcce360d9b86dd506ba59c56fa6b0d22a473d6b332dbff821badf1",
      "assetIds": []
    },
    {
      "x": 343,
      "y": 307,
      "size": 1,
      "price": "1011000000000000000000",
      "reserved": "0x7a9fe22691c811ea339d9b73150e6911a5343dca",
      "salt": "0x2b2ed99fd8bc313de9a0549a4fb81af1bb2e0ba9d0712ffe6a52e651c2f22e66",
      "assetIds": []
    },
    {
      "x": 343,
      "y": 308,
      "size": 1,
      "price": "1011000000000000000000",
      "reserved": "",
      "salt": "0xb71a778c8f8536f4afd113108bf0db2d9d7d4fced2e089f1bf5cd941bd2c8a35",
      "assetIds": []
    },
    {
      "x": 344,
      "y": 300,
      "size": 1,
      "price": "1011000000000000000000",
      "reserved": "",
      "salt": "0x9f83b7fc0ab4edbd301fe7ecdb77349ae63e905e93f4b087c88df06bfb5e6790",
      "assetIds": []
    },
    {
      "x": 344,
      "y": 301,
      "size": 1,
      "price": "1011000000000000000000",
      "reserved": "0x7a9fe22691c811ea339d9b73150e6911a5343dca",
      "salt": "0x1bfeef234613764202ff9df40161cb619b3acd3dbb9505594174b1930dff06f9",
      "assetIds": []
    },
    {
      "x": 344,
      "y": 302,
      "size": 1,
      "price": "1011000000000000000000",
      "reserved": "",
      "salt": "0x90a55a87e131504ea77887a80938c24262e8e723428c0e3ad257178f0a924ff7",
      "assetIds": []
    },
    {
      "x": 344,
      "y": 303,
      "size": 1,
      "price": "1011000000000000000000",
      "reserved": "",
      "salt": "0x43910a86057d23607b3741043688b31b06810314a8d9c7279d6e39d1eacf1bae",
      "assetIds": []
    },
    {
      "x": 344,
      "y": 304,
      "size": 1,
      "price": "1011000000000000000000",
      "reserved": "",
      "salt": "0x7e928756302df4814a19f9b24d827e0b3790c1bab29797b06ae047ba095321ef",
      "assetIds": []
    },
    {
      "x": 344,
      "y": 305,
      "size": 1,
      "price": "1011000000000000000000",
      "reserved": "0x7a9fe22691c811ea339d9b73150e6911a5343dca",
      "salt": "0x674e41057e1ba411a563d9992ec8852552230c485dc5d1003b217c14c3a4b8fd",
      "assetIds": []
    },
    {
      "x": 344,
      "y": 306,
      "size": 1,
      "price": "1011000000000000000000",
      "reserved": "",
      "salt": "0x999ec249d77dda6474a8777b99865bc6f3bf921dc69bc21295b870af8951735c",
      "assetIds": []
    },
    {
      "x": 344,
      "y": 307,
      "size": 1,
      "price": "1011000000000000000000",
      "reserved": "",
      "salt": "0xa7eb6ac0a239de84a52442a1acb067b7223029466414199212dd56329dcb2de8",
      "assetIds": []
    },
    {
      "x": 344,
      "y": 308,
      "size": 1,
      "price": "1011000000000000000000",
      "reserved": "",
      "salt": "0xae747f4073b1c37eaac0262a5d7cb91474c399537ad1228c53737c77ba207785",
      "assetIds": []
    },
    {
      "x": 297,
      "y": 297,
      "size": 3,
      "price": "8648000000000000000000",
      "reserved": "0x7a9fe22691c811ea339d9b73150e6911a5343dca",
      "salt": "0xd5cd41b50e2c1be39b2f02d01c6780d69cb1569488822b6175875f818843359d",
      "assetIds": []
    },
    {
      "x": 303,
      "y": 276,
      "size": 3,
      "price": "8648000000000000000000",
      "reserved": "0x7a9fe22691c811ea339d9b73150e6911a5343dca",
      "salt": "0x21c45a0fa48b73b627ad08721c5d6bd39246d296e6d9551f3aa0b3eaf6cd1bad",
      "assetIds": []
    },
    {
      "x": 303,
      "y": 285,
      "size": 3,
      "price": "8648000000000000000000",
      "reserved": "0x7a9fe22691c811ea339d9b73150e6911a5343dca",
      "salt": "0x5cd567bd3197b091b442ff9b61cc3ca5b6456e06de51d555a5552f1f811e39cb",
      "assetIds": []
    },
    {
      "x": 306,
      "y": 276,
      "size": 3,
      "price": "8648000000000000000000",
      "reserved": "0x7a9fe22691c811ea339d9b73150e6911a5343dca",
      "salt": "0x2cccd44274741bc1711d06eac502d603ea214b38b5d488cd834854dfe75971d4",
      "assetIds": []
    },
    {
      "x": 309,
      "y": 309,
      "size": 3,
      "price": "8648000000000000000000",
      "reserved": "0x7a9fe22691c811ea339d9b73150e6911a5343dca",
      "salt": "0xaa4c269959dbb322023f5cabd723270aa3e9f7d8f10264b5e330adf3dbba04e2",
      "assetIds": []
    },
    {
      "x": 321,
      "y": 288,
      "size": 3,
      "price": "8648000000000000000000",
      "reserved": "0x7a9fe22691c811ea339d9b73150e6911a5343dca",
      "salt": "0xd4e140eeef38c7154149e64e069607c69d465bdcadbda9b42a35abf6836fd4fc",
      "assetIds": []
    },
    {
      "x": 282,
      "y": 282,
      "size": 6,
      "price": "32772000000000000000000",
      "reserved": "0x7a9fe22691c811ea339d9b73150e6911a5343dca",
      "salt": "0x210b2bbb6e462172aa17a1bd89c4b832d283f6c6a9d17085c587092fb589b036",
      "assetIds": []
    },
    {
      "x": 306,
      "y": 282,
      "size": 6,
      "price": "32772000000000000000000",
      "reserved": "0x7a9fe22691c811ea339d9b73150e6911a5343dca",
      "salt": "0x0eb3c7ad31a3cabdfe3fb3a69130eeeb856bd683047ce39b00f9cd08d13482f9",
      "assetIds": []
    },
    {
      "x": 312,
      "y": 276,
      "size": 6,
      "price": "32772000000000000000000",
      "reserved": "0x7a9fe22691c811ea339d9b73150e6911a5343dca",
      "salt": "0x67b15cc907842060a01f947a587966d04615018d357aeca635eddc35943aa90b",
      "assetIds": []
    },
    {
      "x": 312,
      "y": 294,
      "size": 6,
      "price": "32772000000000000000000",
      "reserved": "0x7a9fe22691c811ea339d9b73150e6911a5343dca",
      "salt": "0xdeb661a554a2403f88fedc42c780ad3795ad25cf8bb2ff85ed83e6a1f65cb87f",
      "assetIds": []
    },
    {
      "x": 318,
      "y": 276,
      "size": 6,
      "price": "32772000000000000000000",
      "reserved": "0x7a9fe22691c811ea339d9b73150e6911a5343dca",
      "salt": "0xa350a93ec7d2670947c430247c0dfe25dc368fb8c7a4019aea7d979b66d9330d",
      "assetIds": []
    },
    {
      "x": 318,
      "y": 294,
      "size": 6,
      "price": "32772000000000000000000",
      "reserved": "0x7a9fe22691c811ea339d9b73150e6911a5343dca",
      "salt": "0x528bee33edb8e224f4d5c752cad7b493a425ef7bf048bdd8d8103c11278d532d",
      "assetIds": []
    },
    {
      "x": 330,
      "y": 306,
      "size": 6,
      "price": "32772000000000000000000",
      "reserved": "0x7a9fe22691c811ea339d9b73150e6911a5343dca",
      "salt": "0x62bdcc6d2a65ac79cf0e04337a2f403ba672eaf82d5a1579019b7ffa1602dd78",
      "assetIds": []
    },
    {
      "x": 336,
      "y": 300,
      "size": 6,
      "price": "32772000000000000000000",
      "reserved": "0x7a9fe22691c811ea339d9b73150e6911a5343dca",
      "salt": "0x3b61a0ef8b36d1685f0e905295030c48484e33bd942d5aa8550b38c0806ea96f",
      "assetIds": []
    },
    {
      "x": 288,
      "y": 300,
      "size": 12,
      "price": "123806000000000000000000",
      "reserved": "0x7a9fe22691c811ea339d9b73150e6911a5343dca",
      "salt": "0xa6caf7fca46588ab43173b5b868d2db6f9fcd4f66b687fb648f3d3c859b8791a",
      "assetIds": []
    },
    {
      "x": 300,
      "y": 288,
      "size": 12,
      "price": "123806000000000000000000",
      "reserved": "0x7a9fe22691c811ea339d9b73150e6911a5343dca",
      "salt": "0x247f8f441b8eb1f9384467ba45ec23656e9f6f047f83fed30b76225163f97539",
      "assetIds": []
    },
    {
      "x": 312,
      "y": 300,
      "size": 12,
      "price": "123806000000000000000000",
      "reserved": "0x7a9fe22691c811ea339d9b73150e6911a5343dca",
      "salt": "0x4e1a03e02991dc1e6b260520449c004c7251c798f53639c58560aacb7e77905b",
      "assetIds": []
    }
  ],
  "solcInputHash": "e17a5bb930c92aaeeb80a52119ce77b7",
  "bytecode": "0x610160604052620d2f0060055534801561001857600080fd5b506040516200284d3803806200284d83398181016040526101a081101561003e57600080fd5b50805160208201516040830151606080850151608086015160a08088015160c0808a015160e08b01516101008c01516101208d01516101408e01516101608f0151610180909f0151600280546001600160a01b0319166001600160a01b03871617905560038490558e8c1b6001600160601b03199081169099529a8d901b9097169094529a9b999a98999698959793969195909490939091906100e28b600161015d565b600680546001600160a01b039a8b166001600160a01b031991821617909155610140989098526101209690965260008054998916998816999099179098556001600160601b0319606092831b811660e05290821b811660805296901b909516610100525060078054919093169116179055506101c192505050565b6001600160a01b038216600081815260016020908152604091829020805460ff191685151590811790915582519384529083015280517fb21eb88b4e33b3f1281830a7178d74d8aa73220416215726b68ae23d539515cb9281900390910190a15050565b60805160601c60a05160601c60c05160601c60e05160601c6101005160601c61012051610140516126066200024760003980610b3d528061206c525080610b1952806112ec5250806120da525080611841528061199e5250806117f75280611b9d528061210e525080611872528061196f525080610eb25280611c8952506126066000f3fe608060405234801561001057600080fd5b506004361061011b5760003560e01c80638f283970116100b2578063c10a420811610081578063dc5074af11610066578063dc5074af1461085f578063e56f8a9e14610885578063f23a6e61146108a25761011b565b8063c10a420814610780578063caed3500146108575761011b565b80638f28397014610500578063984d625214610526578063b522ecff146105f8578063bc197c811461061e5761011b565b806365194ce7116100ee57806365194ce7146103485780636e9960c3146104a657806377f1c3ac146104ca5780638a04af6a146104d25761011b565b80631187fd3c1461012057806325cb5bc014610300578063495906571461031a57806358bc294414610322575b600080fd5b6102fe600480360361012081101561013757600080fd5b6001600160a01b038235811692602081013582169260408201359092169181019060808101606082013564010000000081111561017357600080fd5b82018360208201111561018557600080fd5b803590602001918460208302840111640100000000831117156101a757600080fd5b919390928235926040810190602001356401000000008111156101c957600080fd5b8201836020820111156101db57600080fd5b803590602001918460208302840111640100000000831117156101fd57600080fd5b91939092909160208101903564010000000081111561021b57600080fd5b82018360208201111561022d57600080fd5b8035906020019184602083028401116401000000008311171561024f57600080fd5b91939092909160208101903564010000000081111561026d57600080fd5b82018360208201111561027f57600080fd5b803590602001918460018302840111640100000000831117156102a157600080fd5b9193909290916020810190356401000000008111156102bf57600080fd5b8201836020820111156102d157600080fd5b803590602001918460018302840111640100000000831117156102f357600080fd5b509092509050610937565b005b610308610b17565b60408051918252519081900360200190f35b610308610b3b565b6102fe6004803603602081101561033857600080fd5b50356001600160a01b0316610b5f565b6103ee6004803603602081101561035e57600080fd5b81019060208101813564010000000081111561037957600080fd5b82018360208201111561038b57600080fd5b803590602001918460018302840111640100000000831117156103ad57600080fd5b91908080601f016020809104026020016040519081016040528093929190818152602001838380828437600092019190915250929550610c0a945050505050565b6040518080602001866001600160a01b03166001600160a01b03168152602001856001600160a01b03166001600160a01b03168152602001848152602001838152602001828103825287818151815260200191508051906020019080838360005b8381101561046757818101518382015260200161044f565b50505050905090810190601f1680156104945780820380516001836020036101000a031916815260200191505b50965050505050505060405180910390f35b6104ae610d0f565b604080516001600160a01b039092168252519081900360200190f35b610308610d1e565b6102fe600480360360408110156104e857600080fd5b506001600160a01b0381351690602001351515610d24565b6102fe6004803603602081101561051657600080fd5b50356001600160a01b0316610d7b565b6102fe6004803603606081101561053c57600080fd5b6001600160a01b03823516919081019060408101602082013564010000000081111561056757600080fd5b82018360208201111561057957600080fd5b8035906020019184602083028401116401000000008311171561059b57600080fd5b9193909290916020810190356401000000008111156105b957600080fd5b8201836020820111156105cb57600080fd5b803590602001918460208302840111640100000000831117156105ed57600080fd5b509092509050610e51565b6102fe6004803603602081101561060e57600080fd5b50356001600160a01b0316610fdc565b61074b600480360360a081101561063457600080fd5b6001600160a01b03823581169260208101359091169181019060608101604082013564010000000081111561066857600080fd5b82018360208201111561067a57600080fd5b8035906020019184602083028401116401000000008311171561069c57600080fd5b9193909290916020810190356401000000008111156106ba57600080fd5b8201836020820111156106cc57600080fd5b803590602001918460208302840111640100000000831117156106ee57600080fd5b91939092909160208101903564010000000081111561070c57600080fd5b82018360208201111561071e57600080fd5b8035906020019184600183028401116401000000008311171561074057600080fd5b5090925090506110c5565b604080517fffffffff000000000000000000000000000000000000000000000000000000009092168252519081900360200190f35b610843600480360360a081101561079657600080fd5b8101906020810181356401000000008111156107b157600080fd5b8201836020820111156107c357600080fd5b803590602001918460018302840111640100000000831117156107e557600080fd5b91908080601f016020809104026020016040519081016040528093929190818152602001838380828437600092019190915250929550506001600160a01b0383358116945060208401351692604081013592506060013590506110f2565b604080519115158252519081900360200190f35b6104ae61122e565b6108436004803603602081101561087557600080fd5b50356001600160a01b031661123d565b6102fe6004803603602081101561089b57600080fd5b503561125b565b61074b600480360360a08110156108b857600080fd5b6001600160a01b03823581169260208101359091169160408201359160608101359181019060a0810160808201356401000000008111156108f857600080fd5b82018360208201111561090a57600080fd5b8035906020019184600183028401116401000000008311171561092c57600080fd5b5090925090506112bf565b6109418e8d6112ea565b610a388d8d8d8d80806020026020016040519081016040528093929190818152602001838360200280828437600081840152601f19601f820116905080830192505050505050508c8c8c80806020026020016040519081016040528093929190818152602001838360200280828437600081840152601f19601f820116905080830192505050505050508b8b8080602002602001604051908101604052809392919081815260200183836020028082843760009201919091525050604080516020601f8d018190048102820181019092528b815292508b91508a908190840183828082843760009201919091525061144d92505050565b610a8c8e8c8c6003818110610a4957fe5b9050602002013586868080601f0160208091040260200160405190810160405280939291908181526020018383808284376000920191909152506117d092505050565b610aca8e8e8d8d8080602002602001604051908101604052809392919081815260200183836020028082843760009201919091525061182192505050565b610b078d898980806020026020016040519081016040528093929190818152602001838360200280828437600092019190915250611c1292505050565b5050505050505050505050505050565b7f000000000000000000000000000000000000000000000000000000000000000090565b7f000000000000000000000000000000000000000000000000000000000000000090565b6000546001600160a01b03163314610bbe576040805162461bcd60e51b815260206004820152601060248201527f53656e646572206e6f742061646d696e00000000000000000000000000000000604482015290519081900360640190fd5b600554600280546001600160a01b03908116600090815260046020526040902042909301909255805473ffffffffffffffffffffffffffffffffffffffff191692909116919091179055565b606060008060008060606000806000808a80602001905160a0811015610c2f57600080fd5b8101908080516040519392919084640100000000821115610c4f57600080fd5b908301906020820185811115610c6457600080fd5b8251640100000000811182820188101715610c7e57600080fd5b82525081516020918201929091019080838360005b83811015610cab578181015183820152602001610c93565b50505050905090810190601f168015610cd85780820380516001836020036101000a031916815260200191505b5060409081526020820151908201516060830151608090930151959f50909d509b5099509197505050505050505091939590929450565b6000546001600160a01b031690565b60035490565b6000546001600160a01b03163314610d6d5760405162461bcd60e51b815260040180806020018281038252602e8152602001806125a3602e913960400191505060405180910390fd5b610d778282611dd6565b5050565b6000546001600160a01b03163314610dda576040805162461bcd60e51b815260206004820152601b60248201527f6f6e6c792061646d696e2063616e206368616e67652061646d696e0000000000604482015290519081900360640190fd5b600054604080516001600160a01b039283168152918316602083015280517f7e644d79422f17c01e4894b5f4f588d331ebfa28653d42ae832dc59e38c9798f9281900390910190a16000805473ffffffffffffffffffffffffffffffffffffffff19166001600160a01b0392909216919091179055565b6000546001600160a01b03163314610eb0576040805162461bcd60e51b815260206004820152600e60248201527f4e4f545f415554484f52495a4544000000000000000000000000000000000000604482015290519081900360640190fd5b7f00000000000000000000000000000000000000000000000000000000000000006001600160a01b0316632eb2c2d63087878787876040518763ffffffff1660e01b815260040180876001600160a01b03166001600160a01b03168152602001866001600160a01b03166001600160a01b031681526020018060200180602001806020018481038452888882818152602001925060200280828437600083820152601f01601f19169091018581038452868152602090810191508790870280828437600081840152601f19601f8201169050808301925050508481038252600081526020016020019950505050505050505050600060405180830381600087803b158015610fbd57600080fd5b505af1158015610fd1573d6000803e3d6000fd5b505050505050505050565b6001600160a01b038116611037576040805162461bcd60e51b815260206004820152600c60248201527f5a45524f5f414444524553530000000000000000000000000000000000000000604482015290519081900360640190fd5b6000546001600160a01b03163314611096576040805162461bcd60e51b815260206004820152600e60248201527f4e4f545f415554484f52495a4544000000000000000000000000000000000000604482015290519081900360640190fd5b6006805473ffffffffffffffffffffffffffffffffffffffff19166001600160a01b0392909216919091179055565b7fbc197c810000000000000000000000000000000000000000000000000000000098975050505050505050565b60006003548211806111155750836001600160a01b0316856001600160a01b0316145b8061111f57508242115b1561112c57506000611225565b60408051606087811b7fffffffffffffffffffffffffffffffffffffffff0000000000000000000000009081166020808501919091529188901b166034830152604882018690526068808301869052835180840390910181526088830184528051908201207f19457468657265756d205369676e6564204d6573736167653a0a33320000000060a884015260c48084018290528451808503909101815260e490930190935281519101206000906111e39089611e58565b6001600160a01b038116600090815260046020526040902054909150421161121057600192505050611225565b6002546001600160a01b039081169116149150505b95945050505050565b6002546001600160a01b031690565b6001600160a01b031660009081526001602052604090205460ff1690565b6000546001600160a01b031633146112ba576040805162461bcd60e51b815260206004820152601060248201527f53656e646572206e6f742061646d696e00000000000000000000000000000000604482015290519081900360640190fd5b600355565b7ff23a6e61000000000000000000000000000000000000000000000000000000009695505050505050565b7f0000000000000000000000000000000000000000000000000000000000000000421061135e576040805162461bcd60e51b815260206004820152600c60248201527f53414c455f49535f4f5645520000000000000000000000000000000000000000604482015290519081900360640190fd5b6001600160a01b03821633148061138457503360009081526001602052604090205460ff165b6113d5576040805162461bcd60e51b815260206004820152600e60248201527f4e4f545f415554484f52495a4544000000000000000000000000000000000000604482015290519081900360640190fd5b6001600160a01b03811615806113fc5750816001600160a01b0316816001600160a01b0316145b610d77576040805162461bcd60e51b815260206004820152600d60248201527f52455345525645445f4c414e4400000000000000000000000000000000000000604482015290519081900360640190fd5b600087878760008151811061145e57fe5b60200260200101518860018151811061147357fe5b60200260200101518960028151811061148857fe5b60200260200101518a60038151811061149d57fe5b60200260200101518a8a60405160200180828051906020019060200280838360005b838110156114d75781810151838201526020016114bf565b50505050905001915050604051602081830303815290604052805190602001208a60405160200180828051906020019060200280838360005b83811015611528578181015183820152602001611510565b5050505090500191505060405160208183030381529060405280519060200120604051602001808a6001600160a01b03166001600160a01b031660601b8152601401896001600160a01b03166001600160a01b031660601b81526014018881526020018781526020018681526020018581526020018481526020018381526020018281526020019950505050505050505050604051602081830303815290604052805190602001209050600760009054906101000a90046001600160a01b03166001600160a01b031663012847ed83836040518363ffffffff1660e01b81526004018080602001838152602001828103825284818151815260200191508051906020019080838360005b8381101561164a578181015183820152602001611632565b50505050905090810190601f1680156116775780820380516001836020036101000a031916815260200191505b50935050505060206040518083038186803b15801561169557600080fd5b505afa1580156116a9573d6000803e3d6000fd5b505050506040513d60208110156116bf57600080fd5b5051611712576040805162461bcd60e51b815260206004820152600c60248201527f494e56414c49445f415554480000000000000000000000000000000000000000604482015290519081900360640190fd5b60006117738760008151811061172457fe5b60200260200101518860018151811061173957fe5b60200260200101518960028151811061174e57fe5b60200260200101518a60038151811061176357fe5b60200260200101518c8b8b611f25565b905061177f8482611fca565b610fd1576040805162461bcd60e51b815260206004820152600c60248201527f494e56414c49445f4c414e440000000000000000000000000000000000000000604482015290519081900360640190fd5b60006117dc8484612095565b60065490915061181b908590839085906001600160a01b03167f00000000000000000000000000000000000000000000000000000000000000006121ee565b50505050565b8060028151811061182e57fe5b60200260200101516001148061186b57507f00000000000000000000000000000000000000000000000000000000000000006001600160a01b0316155b1561196d577f00000000000000000000000000000000000000000000000000000000000000006001600160a01b0316636e1e3bbf83836002815181106118ad57fe5b6020026020010151846000815181106118c257fe5b6020026020010151856001815181106118d757fe5b60200260200101516040518563ffffffff1660e01b815260040180856001600160a01b03166001600160a01b031681526020018481526020018381526020018281526020018060200182810382526000815260200160200195505050505050600060405180830381600087803b15801561195057600080fd5b505af1158015611964573d6000803e3d6000fd5b50505050611b0d565b7f00000000000000000000000000000000000000000000000000000000000000006001600160a01b0316636e1e3bbf7f0000000000000000000000000000000000000000000000000000000000000000836002815181106119ca57fe5b6020026020010151846000815181106119df57fe5b6020026020010151856001815181106119f457fe5b60200260200101518760405160200180826001600160a01b03166001600160a01b031681526020019150506040516020818303038152906040526040518663ffffffff1660e01b815260040180866001600160a01b03166001600160a01b0316815260200185815260200184815260200183815260200180602001828103825283818151815260200191508051906020019080838360005b83811015611aa4578181015183820152602001611a8c565b50505050905090810190601f168015611ad15780820380516001836020036101000a031916815260200191505b509650505050505050600060405180830381600087803b158015611af457600080fd5b505af1158015611b08573d6000803e3d6000fd5b505050505b61019881600181518110611b1d57fe5b60200260200101510281600081518110611b3357fe5b602002602001015101826001600160a01b0316846001600160a01b03167fe4dfa6ac11314892f3029b34a25b1a887da3b1cab2bbf8506d87128ba6e3ac0284600281518110611b7e57fe5b602002602001015185600381518110611b9357fe5b60200260200101517f000000000000000000000000000000000000000000000000000000000000000087600381518110611bc957fe5b602002602001015160405180858152602001848152602001836001600160a01b03166001600160a01b0316815260200182815260200194505050505060405180910390a4505050565b6060815167ffffffffffffffff81118015611c2c57600080fd5b50604051908082528060200260200182016040528015611c56578160200160208202803683370190505b50905060005b8251811015611c86576001828281518110611c7357fe5b6020908102919091010152600101611c5c565b507f00000000000000000000000000000000000000000000000000000000000000006001600160a01b0316632eb2c2d6308585856040518563ffffffff1660e01b815260040180856001600160a01b03166001600160a01b03168152602001846001600160a01b03166001600160a01b03168152602001806020018060200180602001848103845286818151815260200191508051906020019060200280838360005b83811015611d41578181015183820152602001611d29565b50505050905001848103835285818151815260200191508051906020019060200280838360005b83811015611d80578181015183820152602001611d68565b50505050905001848103825260008152602001602001975050505050505050600060405180830381600087803b158015611db957600080fd5b505af1158015611dcd573d6000803e3d6000fd5b50505050505050565b6001600160a01b03821660008181526001602090815260409182902080547fffffffffffffffffffffffffffffffffffffffffffffffffffffffffffffff001685151590811790915582519384529083015280517fb21eb88b4e33b3f1281830a7178d74d8aa73220416215726b68ae23d539515cb9281900390910190a15050565b60008151604114611e6857600080fd5b60208201516040830151606084015160001a601b811015611e8757601b015b8060ff16601b1480611e9c57508060ff16601c145b611ea557600080fd5b6040805160008152602080820180845289905260ff8416828401526060820186905260808201859052915160019260a0808401939192601f1981019281900390910190855afa158015611efc573d6000803e3d6000fd5b5050604051601f1901519450506001600160a01b038416611f1c57600080fd5b50505092915050565b60008787878787878760405160200180888152602001878152602001868152602001858152602001846001600160a01b03166001600160a01b031660601b8152601401838152602001828051906020019060200280838360005b83811015611f97578181015183820152602001611f7f565b50505050905001975050505050505050604051602081830303815290604052805190602001209050979650505050505050565b600081815b8451811015612069576000858281518110611fe657fe5b602002602001015190508083101561202e5782816040516020018083815260200182815260200192505050604051602081830303815290604052805190602001209250612060565b808360405160200180838152602001828152602001925050506040516020818303038152906040528051906020012092505b50600101611fcf565b507f00000000000000000000000000000000000000000000000000000000000000001490505b92915050565b6000806120ba60646120ae85600563ffffffff61247016565b9063ffffffff6124e016565b604080516323b872dd60e01b81526001600160a01b0387811660048301527f0000000000000000000000000000000000000000000000000000000000000000811660248301526044820184905291519293507f0000000000000000000000000000000000000000000000000000000000000000909116916323b872dd916064808201926020929091908290030181600087803b15801561215957600080fd5b505af115801561216d573d6000803e3d6000fd5b505050506040513d602081101561218357600080fd5b50516121d6576040805162461bcd60e51b815260206004820152601360248201527f4645455f5452414e534645525f4641494c454400000000000000000000000000604482015290519081900360640190fd5b6121e6838263ffffffff61254516565b949350505050565b8251819085901561239857606060008060008061220a8a610c0a565b939850919650945092509050600061222586868686866110f2565b156122b35761223f6122378d84612470565b6127106124e0565b9050886001600160a01b0316846001600160a01b0316866001600160a01b03167fac7a699eb95c3c6d390ec4626de17ef9a67b35891efdb197beba7c7fdd45fac48f858760405180848152602001838152602001828152602001935050505060405180910390a46122b08782612545565b96505b801561239157604080516323b872dd60e01b81526001600160a01b038f811660048301528781166024830152604482018490529151918a16916323b872dd916064808201926020929091908290030181600087803b15801561231457600080fd5b505af1158015612328573d6000803e3d6000fd5b505050506040513d602081101561233e57600080fd5b5051612391576040805162461bcd60e51b815260206004820152601960248201527f636f6d6d6973696f6e207472616e73666572206661696c656400000000000000604482015290519081900360640190fd5b5050505050505b604080516323b872dd60e01b81526001600160a01b0389811660048301528681166024830152604482018490529151918416916323b872dd916064808201926020929091908290030181600087803b1580156123f357600080fd5b505af1158015612407573d6000803e3d6000fd5b505050506040513d602081101561241d57600080fd5b5051611dcd576040805162461bcd60e51b815260206004820152601760248201527f7061796d656e74207472616e73666572206661696c6564000000000000000000604482015290519081900360640190fd5b60008261247f5750600061208f565b508181028183828161248d57fe5b041461208f576040805162461bcd60e51b815260206004820152600860248201527f6f766572666c6f77000000000000000000000000000000000000000000000000604482015290519081900360640190fd5b600081612534576040805162461bcd60e51b815260206004820152600960248201527f64697662797a65726f0000000000000000000000000000000000000000000000604482015290519081900360640190fd5b81838161253d57fe5b049392505050565b60008282111561259c576040805162461bcd60e51b815260206004820152600860248201527f756e6465666c6f77000000000000000000000000000000000000000000000000604482015290519081900360640190fd5b5090039056fe6f6e6c792061646d696e2063616e207365747570206d6574615472616e73616374696f6e50726f636573736f7273a2646970667358221220fc9205bafc138c1de206481f144dc3e7818922fbe1a20d2a71392e5e2e413c1a64736f6c63430006050033",
  "devdoc": {
    "methods": {
      "buyLandWithSand(address,address,address,uint256[],bytes32,uint256[],bytes32[],bytes,bytes)": {
        "params": {
          "buyer": "address that perform the payment",
          "info": "[X_INDEX=0] x coordinate of the Land [Y_INDEX=1] y coordinate of the Land [SIZE_INDEX=2] size of the pack of Land to purchase [PRICE_INDEX=3] price in SAND to purchase that Land",
          "proof": "merkleProof for that particular Land",
          "reserved": "the reserved address (if any)",
          "to": "address that will own the purchased Land"
        }
      },
      "changeAdmin(address)": {
        "details": "change the administrator to be `newAdmin`.",
        "params": {
          "newAdmin": "address of the new administrator."
        }
      },
      "getAdmin()": {
        "details": "gives the current administrator of this contract.",
        "returns": {
          "_0": "the current administrator of this contract."
        }
      },
      "getSigningWallet()": {
        "details": "signing wallet authorized for referral",
        "returns": {
          "_0": "the address of the signing wallet"
        }
      },
      "isMetaTransactionProcessor(address)": {
        "details": "check whether address `who` is given meta-transaction execution rights.",
        "params": {
          "who": "The address to query."
        },
        "returns": {
          "_0": "whether the address has meta-transaction execution rights."
        }
      },
      "isReferralValid(bytes,address,address,uint256,uint256)": {
        "params": {
          "commissionRate": "The commissionRate of the referral",
          "expiryTime": "The expiry time of the referral",
          "referee": "The address of the referee",
          "referrer": "The address of the referrer",
          "signature": "The signature to check (signed referral)"
        },
        "returns": {
          "_0": "True if the referral is valid"
        }
      },
      "setMetaTransactionProcessor(address,bool)": {
        "details": "Enable or disable the ability of `metaTransactionProcessor` to perform meta-tx (metaTransactionProcessor rights).",
        "params": {
          "enabled": "set whether the metaTransactionProcessor is enabled or disabled.",
          "metaTransactionProcessor": "address that will be given/removed metaTransactionProcessor rights."
        }
      },
      "setReceivingWallet(address)": {
        "params": {
          "newWallet": "address of the new receiving wallet"
        }
      },
      "updateMaxCommissionRate(uint256)": {
        "details": "Update the maximum commission rate",
        "params": {
          "newMaxCommissionRate": "The new maximum commission rate"
        }
      },
      "updateSigningWallet(address)": {
        "details": "Update the signing wallet",
        "params": {
          "newSigningWallet": "The new address of the signing wallet"
        }
      },
      "withdrawAssets(address,uint256[],uint256[])": {
        "params": {
          "assetIds": "the assetIds to be transferred",
          "to": "intended recipient of the asset tokens",
          "values": "the quantities of the assetIds to be transferred"
        }
      }
    },
    "title": "Estate Sale contract with referral"
  },
  "userdoc": {
    "methods": {
      "buyLandWithSand(address,address,address,uint256[],bytes32,uint256[],bytes32[],bytes,bytes)": {
        "notice": "buy Land with SAND using the merkle proof associated with it"
      },
      "getExpiryTime()": {
        "notice": "Gets the expiry time for the current sale"
      },
      "getMaxCommisionRate()": {
        "notice": "the max commision rate"
      },
      "getMerkleRoot()": {
        "notice": "Gets the Merkle root associated with the current sale"
      },
      "isReferralValid(bytes,address,address,uint256,uint256)": {
        "notice": "Check if a referral is valid"
      },
      "setReceivingWallet(address)": {
        "notice": "set the wallet receiving the proceeds"
      },
      "withdrawAssets(address,uint256[],uint256[])": {
        "notice": "enable Admin to withdraw remaining assets from EstateSaleWithFee contract"
      }
    },
    "notice": "This contract manages the sale of our lands as Estates"
  },
  "storageLayout": {
    "storage": [
      {
        "astId": 13650,
        "contract": "src/solc_0.6/EstateSale/EstateSaleWithAuth.sol:EstateSaleWithAuth",
        "label": "_admin",
        "offset": 0,
        "slot": "0",
        "type": "t_address"
      },
      {
        "astId": 13712,
        "contract": "src/solc_0.6/EstateSale/EstateSaleWithAuth.sol:EstateSaleWithAuth",
        "label": "_metaTransactionContracts",
        "offset": 0,
        "slot": "1",
        "type": "t_mapping(t_address,t_bool)"
      },
      {
        "astId": 11828,
        "contract": "src/solc_0.6/EstateSale/EstateSaleWithAuth.sol:EstateSaleWithAuth",
        "label": "_signingWallet",
        "offset": 0,
        "slot": "2",
        "type": "t_address"
      },
      {
        "astId": 11830,
        "contract": "src/solc_0.6/EstateSale/EstateSaleWithAuth.sol:EstateSaleWithAuth",
        "label": "_maxCommissionRate",
        "offset": 0,
        "slot": "3",
        "type": "t_uint256"
      },
      {
        "astId": 11834,
        "contract": "src/solc_0.6/EstateSale/EstateSaleWithAuth.sol:EstateSaleWithAuth",
        "label": "_previousSigningWallets",
        "offset": 0,
        "slot": "4",
        "type": "t_mapping(t_address,t_uint256)"
      },
      {
        "astId": 11843,
        "contract": "src/solc_0.6/EstateSale/EstateSaleWithAuth.sol:EstateSaleWithAuth",
        "label": "_previousSigningDelay",
        "offset": 0,
        "slot": "5",
        "type": "t_uint256"
      },
      {
        "astId": 7453,
        "contract": "src/solc_0.6/EstateSale/EstateSaleWithAuth.sol:EstateSaleWithAuth",
        "label": "_wallet",
        "offset": 0,
        "slot": "6",
        "type": "t_address_payable"
      },
      {
        "astId": 7455,
        "contract": "src/solc_0.6/EstateSale/EstateSaleWithAuth.sol:EstateSaleWithAuth",
        "label": "_authValidator",
        "offset": 0,
        "slot": "7",
        "type": "t_contract(AuthValidator)6784"
      }
    ],
    "types": {
      "t_address": {
        "encoding": "inplace",
        "label": "address",
        "numberOfBytes": "20"
      },
      "t_address_payable": {
        "encoding": "inplace",
        "label": "address payable",
        "numberOfBytes": "20"
      },
      "t_bool": {
        "encoding": "inplace",
        "label": "bool",
        "numberOfBytes": "1"
      },
      "t_contract(AuthValidator)6784": {
        "encoding": "inplace",
        "label": "contract AuthValidator",
        "numberOfBytes": "20"
      },
      "t_mapping(t_address,t_bool)": {
        "encoding": "mapping",
        "key": "t_address",
        "label": "mapping(address => bool)",
        "numberOfBytes": "32",
        "value": "t_bool"
      },
      "t_mapping(t_address,t_uint256)": {
        "encoding": "mapping",
        "key": "t_address",
        "label": "mapping(address => uint256)",
        "numberOfBytes": "32",
        "value": "t_uint256"
      },
      "t_uint256": {
        "encoding": "inplace",
        "label": "uint256",
        "numberOfBytes": "32"
      }
    }
  }
}