{
  "abi": [
    {
      "constant": true,
      "inputs": [],
      "name": "getExpiryTime",
      "outputs": [
        {
          "name": "",
          "type": "uint256"
        }
      ],
      "payable": false,
      "stateMutability": "view",
      "type": "function"
    },
    {
      "constant": true,
      "inputs": [],
      "name": "merkleRoot",
      "outputs": [
        {
          "name": "",
          "type": "bytes32"
        }
      ],
      "payable": false,
      "stateMutability": "view",
      "type": "function"
    },
    {
      "constant": false,
      "inputs": [
        {
          "name": "enabled",
          "type": "bool"
        }
      ],
      "name": "setDAIEnabled",
      "outputs": [],
      "payable": false,
      "stateMutability": "nonpayable",
      "type": "function"
    },
    {
      "constant": false,
      "inputs": [
        {
          "name": "buyer",
          "type": "address"
        },
        {
          "name": "to",
          "type": "address"
        },
        {
          "name": "reserved",
          "type": "address"
        },
        {
          "name": "x",
          "type": "uint256"
        },
        {
          "name": "y",
          "type": "uint256"
        },
        {
          "name": "size",
          "type": "uint256"
        },
        {
          "name": "priceInSand",
          "type": "uint256"
        },
        {
          "name": "salt",
          "type": "bytes32"
        },
        {
          "name": "proof",
          "type": "bytes32[]"
        },
        {
          "name": "referral",
          "type": "bytes"
        }
      ],
      "name": "buyLandWithDAI",
      "outputs": [],
      "payable": false,
      "stateMutability": "nonpayable",
      "type": "function"
    },
    {
      "constant": true,
      "inputs": [],
      "name": "isDAIEnabled",
      "outputs": [
        {
          "name": "",
          "type": "bool"
        }
      ],
      "payable": false,
      "stateMutability": "view",
      "type": "function"
    },
    {
      "constant": true,
      "inputs": [],
      "name": "isETHEnabled",
      "outputs": [
        {
          "name": "",
          "type": "bool"
        }
      ],
      "payable": false,
      "stateMutability": "view",
      "type": "function"
    },
    {
      "constant": false,
      "inputs": [
        {
          "name": "newSigningWallet",
          "type": "address"
        }
      ],
      "name": "updateSigningWallet",
      "outputs": [],
      "payable": false,
      "stateMutability": "nonpayable",
      "type": "function"
    },
    {
      "constant": true,
      "inputs": [
        {
          "name": "sandAmount",
          "type": "uint256"
        }
      ],
      "name": "getEtherAmountWithSAND",
      "outputs": [
        {
          "name": "",
          "type": "uint256"
        }
      ],
      "payable": false,
      "stateMutability": "view",
      "type": "function"
    },
    {
      "constant": true,
      "inputs": [
        {
          "name": "referral",
          "type": "bytes"
        }
      ],
      "name": "decodeReferral",
      "outputs": [
        {
          "name": "",
          "type": "bytes"
        },
        {
          "name": "",
          "type": "address"
        },
        {
          "name": "",
          "type": "address"
        },
        {
          "name": "",
          "type": "uint256"
        },
        {
          "name": "",
          "type": "uint256"
        }
      ],
      "payable": false,
      "stateMutability": "pure",
      "type": "function"
    },
    {
      "constant": true,
      "inputs": [],
      "name": "getAdmin",
      "outputs": [
        {
          "name": "",
          "type": "address"
        }
      ],
      "payable": false,
      "stateMutability": "view",
      "type": "function"
    },
    {
      "constant": false,
      "inputs": [
        {
          "name": "enabled",
          "type": "bool"
        }
      ],
      "name": "setSANDEnabled",
      "outputs": [],
      "payable": false,
      "stateMutability": "nonpayable",
      "type": "function"
    },
    {
      "constant": false,
      "inputs": [
        {
          "name": "metaTransactionProcessor",
          "type": "address"
        },
        {
          "name": "enabled",
          "type": "bool"
        }
      ],
      "name": "setMetaTransactionProcessor",
      "outputs": [],
      "payable": false,
      "stateMutability": "nonpayable",
      "type": "function"
    },
    {
      "constant": false,
      "inputs": [
        {
          "name": "newAdmin",
          "type": "address"
        }
      ],
      "name": "changeAdmin",
      "outputs": [],
      "payable": false,
      "stateMutability": "nonpayable",
      "type": "function"
    },
    {
      "constant": true,
      "inputs": [],
      "name": "isSANDEnabled",
      "outputs": [
        {
          "name": "",
          "type": "bool"
        }
      ],
      "payable": false,
      "stateMutability": "view",
      "type": "function"
    },
    {
      "constant": false,
      "inputs": [
        {
          "name": "newWallet",
          "type": "address"
        }
      ],
      "name": "setReceivingWallet",
      "outputs": [],
      "payable": false,
      "stateMutability": "nonpayable",
      "type": "function"
    },
    {
      "constant": true,
      "inputs": [
        {
          "name": "signature",
          "type": "bytes"
        },
        {
          "name": "referrer",
          "type": "address"
        },
        {
          "name": "referee",
          "type": "address"
        },
        {
          "name": "expiryTime",
          "type": "uint256"
        },
        {
          "name": "commissionRate",
          "type": "uint256"
        }
      ],
      "name": "isReferralValid",
      "outputs": [
        {
          "name": "",
          "type": "bool"
        }
      ],
      "payable": false,
      "stateMutability": "view",
      "type": "function"
    },
    {
      "constant": false,
      "inputs": [
        {
          "name": "buyer",
          "type": "address"
        },
        {
          "name": "to",
          "type": "address"
        },
        {
          "name": "reserved",
          "type": "address"
        },
        {
          "name": "x",
          "type": "uint256"
        },
        {
          "name": "y",
          "type": "uint256"
        },
        {
          "name": "size",
          "type": "uint256"
        },
        {
          "name": "priceInSand",
          "type": "uint256"
        },
        {
          "name": "salt",
          "type": "bytes32"
        },
        {
          "name": "proof",
          "type": "bytes32[]"
        },
        {
          "name": "referral",
          "type": "bytes"
        }
      ],
      "name": "buyLandWithETH",
      "outputs": [],
      "payable": true,
      "stateMutability": "payable",
      "type": "function"
    },
    {
      "constant": true,
      "inputs": [
        {
          "name": "who",
          "type": "address"
        }
      ],
      "name": "isMetaTransactionProcessor",
      "outputs": [
        {
          "name": "",
          "type": "bool"
        }
      ],
      "payable": false,
      "stateMutability": "view",
      "type": "function"
    },
    {
      "constant": false,
      "inputs": [
        {
          "name": "buyer",
          "type": "address"
        },
        {
          "name": "to",
          "type": "address"
        },
        {
          "name": "reserved",
          "type": "address"
        },
        {
          "name": "x",
          "type": "uint256"
        },
        {
          "name": "y",
          "type": "uint256"
        },
        {
          "name": "size",
          "type": "uint256"
        },
        {
          "name": "priceInSand",
          "type": "uint256"
        },
        {
          "name": "salt",
          "type": "bytes32"
        },
        {
          "name": "proof",
          "type": "bytes32[]"
        },
        {
          "name": "referral",
          "type": "bytes"
        }
      ],
      "name": "buyLandWithSand",
      "outputs": [],
      "payable": false,
      "stateMutability": "nonpayable",
      "type": "function"
    },
    {
      "constant": false,
      "inputs": [
        {
          "name": "newMaxCommissionRate",
          "type": "uint256"
        }
      ],
      "name": "updateMaxCommissionRate",
      "outputs": [],
      "payable": false,
      "stateMutability": "nonpayable",
      "type": "function"
    },
    {
      "constant": false,
      "inputs": [
        {
          "name": "enabled",
          "type": "bool"
        }
      ],
      "name": "setETHEnabled",
      "outputs": [],
      "payable": false,
      "stateMutability": "nonpayable",
      "type": "function"
    },
    {
      "inputs": [
        {
          "name": "landAddress",
          "type": "address"
        },
        {
          "name": "sandContractAddress",
          "type": "address"
        },
        {
          "name": "initialMetaTx",
          "type": "address"
        },
        {
          "name": "admin",
          "type": "address"
        },
        {
          "name": "initialWalletAddress",
          "type": "address"
        },
        {
          "name": "merkleRoot",
          "type": "bytes32"
        },
        {
          "name": "expiryTime",
          "type": "uint256"
        },
        {
          "name": "medianizerContractAddress",
          "type": "address"
        },
        {
          "name": "daiTokenContractAddress",
          "type": "address"
        },
        {
          "name": "initialSigningWallet",
          "type": "address"
        },
        {
          "name": "initialMaxCommissionRate",
          "type": "uint256"
        }
      ],
      "payable": false,
      "stateMutability": "nonpayable",
      "type": "constructor"
    },
    {
      "anonymous": false,
      "inputs": [
        {
          "indexed": true,
          "name": "buyer",
          "type": "address"
        },
        {
          "indexed": true,
          "name": "to",
          "type": "address"
        },
        {
          "indexed": true,
          "name": "topCornerId",
          "type": "uint256"
        },
        {
          "indexed": false,
          "name": "size",
          "type": "uint256"
        },
        {
          "indexed": false,
          "name": "price",
          "type": "uint256"
        },
        {
          "indexed": false,
          "name": "token",
          "type": "address"
        },
        {
          "indexed": false,
          "name": "amountPaid",
          "type": "uint256"
        }
      ],
      "name": "LandQuadPurchased",
      "type": "event"
    },
    {
      "anonymous": false,
      "inputs": [
        {
          "indexed": true,
          "name": "referrer",
          "type": "address"
        },
        {
          "indexed": true,
          "name": "referee",
          "type": "address"
        },
        {
          "indexed": true,
          "name": "token",
          "type": "address"
        },
        {
          "indexed": false,
          "name": "amount",
          "type": "uint256"
        },
        {
          "indexed": false,
          "name": "commission",
          "type": "uint256"
        },
        {
          "indexed": false,
          "name": "commissionRate",
          "type": "uint256"
        }
      ],
      "name": "ReferralUsed",
      "type": "event"
    },
    {
      "anonymous": false,
      "inputs": [
        {
          "indexed": false,
          "name": "metaTransactionProcessor",
          "type": "address"
        },
        {
          "indexed": false,
          "name": "enabled",
          "type": "bool"
        }
      ],
      "name": "MetaTransactionProcessor",
      "type": "event"
    },
    {
      "anonymous": false,
      "inputs": [
        {
          "indexed": false,
          "name": "oldAdmin",
          "type": "address"
        },
        {
          "indexed": false,
          "name": "newAdmin",
          "type": "address"
        }
      ],
      "name": "AdminChanged",
      "type": "event"
    }
  ],
  "address": "0x4d49441FD400743df4639d4Cc12997EF13A75570",
  "args": [
    "0xaF40A483bF77AAb7b7D13dB18187E6D62C1EA41b",
    "0xCc933a862fc15379E441F2A16Cb943D385a4695f",
    "0xCc933a862fc15379E441F2A16Cb943D385a4695f",
    "0x61c461EcC993aaDEB7e4b47E96d1B8cC37314B20",
    "0xcbc70EcCd52bF3910CDC1455E6D2Bd45725F573D",
    "0xc91a4ae67b4b6aaa1da25e81df27320ebe5e835ac58de06e643c3bb260e69ff5",
    1594321140,
    "0x41A9Da774cD4c9323d5E73ccF4c68d1A06B67599",
    "0x6D288aA0a7c7aF331e795cBca04eE3b4026F2aE8",
    "0xB7060D3FeCAC3AE1F0A0AA416E3e8E472257950e",
    2000
  ],
  "linkedData": [
    {
      "x": 355,
      "y": 108,
      "size": 1,
      "price": "2667000000000000000000",
      "reserved": "0x7a9fe22691c811ea339d9b73150e6911a5343dca"
    },
    {
      "x": 356,
      "y": 108,
      "size": 1,
      "price": "2667000000000000000000"
    },
    {
      "x": 356,
      "y": 109,
      "size": 1,
      "price": "2667000000000000000000",
      "reserved": "0x7a9fe22691c811ea339d9b73150e6911a5343dca"
    },
    {
      "x": 356,
      "y": 110,
      "size": 1,
      "price": "2667000000000000000000"
    },
    {
      "x": 355,
      "y": 110,
      "size": 1,
      "price": "2667000000000000000000"
    },
    {
      "x": 355,
      "y": 109,
      "size": 1,
      "price": "2667000000000000000000"
    },
    {
      "x": 345,
      "y": 110,
      "size": 1,
      "price": "2667000000000000000000"
    },
    {
      "x": 345,
      "y": 109,
      "size": 1,
      "price": "2667000000000000000000"
    },
    {
      "x": 345,
      "y": 108,
      "size": 1,
      "price": "2667000000000000000000"
    },
    {
      "x": 346,
      "y": 108,
      "size": 1,
      "price": "2667000000000000000000"
    },
    {
      "x": 347,
      "y": 108,
      "size": 1,
      "price": "2667000000000000000000"
    },
    {
      "x": 347,
      "y": 109,
      "size": 1,
      "price": "2667000000000000000000"
    },
    {
      "x": 347,
      "y": 110,
      "size": 1,
      "price": "2667000000000000000000",
      "reserved": "0x7a9fe22691c811ea339d9b73150e6911a5343dca"
    },
    {
      "x": 346,
      "y": 110,
      "size": 1,
      "price": "2667000000000000000000"
    },
    {
      "x": 346,
      "y": 109,
      "size": 1,
      "price": "2667000000000000000000",
      "reserved": "0x7a9fe22691c811ea339d9b73150e6911a5343dca"
    },
    {
      "x": 348,
      "y": 101,
      "size": 1,
      "price": "2667000000000000000000"
    },
    {
      "x": 348,
      "y": 100,
      "size": 1,
      "price": "2667000000000000000000",
      "reserved": "0x7a9fe22691c811ea339d9b73150e6911a5343dca"
    },
    {
      "x": 348,
      "y": 99,
      "size": 1,
      "price": "2667000000000000000000"
    },
    {
      "x": 349,
      "y": 99,
      "size": 1,
      "price": "2667000000000000000000",
      "reserved": "0x7a9fe22691c811ea339d9b73150e6911a5343dca"
    },
    {
      "x": 350,
      "y": 99,
      "size": 1,
      "price": "2667000000000000000000"
    },
    {
      "x": 350,
      "y": 100,
      "size": 1,
      "price": "2667000000000000000000",
      "reserved": "0x7a9fe22691c811ea339d9b73150e6911a5343dca"
    },
    {
      "x": 350,
      "y": 101,
      "size": 1,
      "price": "2667000000000000000000"
    },
    {
      "x": 349,
      "y": 101,
      "size": 1,
      "price": "2667000000000000000000"
    },
    {
      "x": 349,
      "y": 100,
      "size": 1,
      "price": "2667000000000000000000"
    },
    {
      "x": 357,
      "y": 104,
      "size": 1,
      "price": "2667000000000000000000"
    },
    {
      "x": 357,
      "y": 103,
      "size": 1,
      "price": "2667000000000000000000",
      "reserved": "0x7a9fe22691c811ea339d9b73150e6911a5343dca"
    },
    {
      "x": 357,
      "y": 102,
      "size": 1,
      "price": "2667000000000000000000"
    },
    {
      "x": 358,
      "y": 102,
      "size": 1,
      "price": "2667000000000000000000"
    },
    {
      "x": 359,
      "y": 102,
      "size": 1,
      "price": "2667000000000000000000"
    },
    {
      "x": 359,
      "y": 103,
      "size": 1,
      "price": "2667000000000000000000"
    },
    {
      "x": 359,
      "y": 104,
      "size": 1,
      "price": "2667000000000000000000",
      "reserved": "0x7a9fe22691c811ea339d9b73150e6911a5343dca"
    },
    {
      "x": 358,
      "y": 104,
      "size": 1,
      "price": "2667000000000000000000"
    },
    {
      "x": 358,
      "y": 103,
      "size": 1,
      "price": "2667000000000000000000"
    },
    {
      "x": 363,
      "y": 101,
      "size": 1,
      "price": "2667000000000000000000"
    },
    {
      "x": 363,
      "y": 100,
      "size": 1,
      "price": "2667000000000000000000",
      "reserved": "0x7a9fe22691c811ea339d9b73150e6911a5343dca"
    },
    {
      "x": 363,
      "y": 99,
      "size": 1,
      "price": "2667000000000000000000"
    },
    {
      "x": 364,
      "y": 99,
      "size": 1,
      "price": "2667000000000000000000",
      "reserved": "0x7a9fe22691c811ea339d9b73150e6911a5343dca"
    },
    {
      "x": 365,
      "y": 99,
      "size": 1,
      "price": "2667000000000000000000"
    },
    {
      "x": 365,
      "y": 100,
      "size": 1,
      "price": "2667000000000000000000"
    },
    {
      "x": 365,
      "y": 101,
      "size": 1,
      "price": "2667000000000000000000"
    },
    {
      "x": 364,
      "y": 101,
      "size": 1,
      "price": "2667000000000000000000",
      "reserved": "0x7a9fe22691c811ea339d9b73150e6911a5343dca"
    },
    {
      "x": 364,
      "y": 100,
      "size": 1,
      "price": "2667000000000000000000"
    },
    {
      "x": 363,
      "y": 92,
      "size": 1,
      "price": "2667000000000000000000"
    },
    {
      "x": 363,
      "y": 91,
      "size": 1,
      "price": "2667000000000000000000",
      "reserved": "0x7a9fe22691c811ea339d9b73150e6911a5343dca"
    },
    {
      "x": 363,
      "y": 90,
      "size": 1,
      "price": "2667000000000000000000"
    },
    {
      "x": 364,
      "y": 90,
      "size": 1,
      "price": "2667000000000000000000",
      "reserved": "0x7a9fe22691c811ea339d9b73150e6911a5343dca"
    },
    {
      "x": 365,
      "y": 90,
      "size": 1,
      "price": "2667000000000000000000"
    },
    {
      "x": 365,
      "y": 91,
      "size": 1,
      "price": "2667000000000000000000",
      "reserved": "0x7a9fe22691c811ea339d9b73150e6911a5343dca"
    },
    {
      "x": 365,
      "y": 92,
      "size": 1,
      "price": "2667000000000000000000"
    },
    {
      "x": 364,
      "y": 92,
      "size": 1,
      "price": "2667000000000000000000"
    },
    {
      "x": 364,
      "y": 91,
      "size": 1,
      "price": "2667000000000000000000"
    },
    {
      "x": 361,
      "y": 86,
      "size": 1,
      "price": "2667000000000000000000"
    },
    {
      "x": 360,
      "y": 86,
      "size": 1,
      "price": "2667000000000000000000"
    },
    {
      "x": 360,
      "y": 85,
      "size": 1,
      "price": "2667000000000000000000"
    },
    {
      "x": 360,
      "y": 84,
      "size": 1,
      "price": "2667000000000000000000",
      "reserved": "0x7a9fe22691c811ea339d9b73150e6911a5343dca"
    },
    {
      "x": 361,
      "y": 84,
      "size": 1,
      "price": "2667000000000000000000"
    },
    {
      "x": 362,
      "y": 85,
      "size": 1,
      "price": "2667000000000000000000",
      "reserved": "0x7a9fe22691c811ea339d9b73150e6911a5343dca"
    },
    {
      "x": 361,
      "y": 85,
      "size": 1,
      "price": "2667000000000000000000"
    },
    {
      "x": 362,
      "y": 86,
      "size": 1,
      "price": "2667000000000000000000"
    },
    {
      "x": 362,
      "y": 84,
      "size": 1,
      "price": "2667000000000000000000"
    },
    {
      "x": 366,
      "y": 83,
      "size": 1,
      "price": "2667000000000000000000"
    },
    {
      "x": 366,
      "y": 82,
      "size": 1,
      "price": "2667000000000000000000"
    },
    {
      "x": 366,
      "y": 81,
      "size": 1,
      "price": "2667000000000000000000"
    },
    {
      "x": 367,
      "y": 81,
      "size": 1,
      "price": "2667000000000000000000"
    },
    {
      "x": 368,
      "y": 82,
      "size": 1,
      "price": "2667000000000000000000"
    },
    {
      "x": 368,
      "y": 83,
      "size": 1,
      "price": "2667000000000000000000",
      "reserved": "0x7a9fe22691c811ea339d9b73150e6911a5343dca"
    },
    {
      "x": 367,
      "y": 83,
      "size": 1,
      "price": "2667000000000000000000"
    },
    {
      "x": 367,
      "y": 82,
      "size": 1,
      "price": "2667000000000000000000",
      "reserved": "0x7a9fe22691c811ea339d9b73150e6911a5343dca"
    },
    {
      "x": 368,
      "y": 81,
      "size": 1,
      "price": "2667000000000000000000",
      "reserved": "0x7a9fe22691c811ea339d9b73150e6911a5343dca"
    },
    {
      "x": 369,
      "y": 77,
      "size": 1,
      "price": "2667000000000000000000"
    },
    {
      "x": 369,
      "y": 76,
      "size": 1,
      "price": "2667000000000000000000",
      "reserved": "0x7a9fe22691c811ea339d9b73150e6911a5343dca"
    },
    {
      "x": 369,
      "y": 75,
      "size": 1,
      "price": "2667000000000000000000"
    },
    {
      "x": 370,
      "y": 75,
      "size": 1,
      "price": "2667000000000000000000",
      "reserved": "0x7a9fe22691c811ea339d9b73150e6911a5343dca"
    },
    {
      "x": 371,
      "y": 75,
      "size": 1,
      "price": "2667000000000000000000"
    },
    {
      "x": 371,
      "y": 76,
      "size": 1,
      "price": "2667000000000000000000"
    },
    {
      "x": 371,
      "y": 77,
      "size": 1,
      "price": "2667000000000000000000",
      "reserved": "0x7a9fe22691c811ea339d9b73150e6911a5343dca"
    },
    {
      "x": 370,
      "y": 77,
      "size": 1,
      "price": "2667000000000000000000"
    },
    {
      "x": 370,
      "y": 76,
      "size": 1,
      "price": "2667000000000000000000"
    },
    {
      "x": 364,
      "y": 74,
      "size": 1,
      "price": "2667000000000000000000"
    },
    {
      "x": 363,
      "y": 74,
      "size": 1,
      "price": "2667000000000000000000",
      "reserved": "0x7a9fe22691c811ea339d9b73150e6911a5343dca"
    },
    {
      "x": 363,
      "y": 73,
      "size": 1,
      "price": "2667000000000000000000"
    },
    {
      "x": 364,
      "y": 73,
      "size": 1,
      "price": "2667000000000000000000"
    },
    {
      "x": 365,
      "y": 73,
      "size": 1,
      "price": "2667000000000000000000",
      "reserved": "0x7a9fe22691c811ea339d9b73150e6911a5343dca"
    },
    {
      "x": 365,
      "y": 74,
      "size": 1,
      "price": "2667000000000000000000"
    },
    {
      "x": 365,
      "y": 72,
      "size": 1,
      "price": "2667000000000000000000"
    },
    {
      "x": 364,
      "y": 72,
      "size": 1,
      "price": "2667000000000000000000",
      "reserved": "0x7a9fe22691c811ea339d9b73150e6911a5343dca"
    },
    {
      "x": 363,
      "y": 72,
      "size": 1,
      "price": "2667000000000000000000"
    },
    {
      "x": 369,
      "y": 68,
      "size": 1,
      "price": "2667000000000000000000"
    },
    {
      "x": 369,
      "y": 67,
      "size": 1,
      "price": "2667000000000000000000"
    },
    {
      "x": 369,
      "y": 66,
      "size": 1,
      "price": "2667000000000000000000",
      "reserved": "0x7a9fe22691c811ea339d9b73150e6911a5343dca"
    },
    {
      "x": 370,
      "y": 66,
      "size": 1,
      "price": "2667000000000000000000"
    },
    {
      "x": 370,
      "y": 67,
      "size": 1,
      "price": "2667000000000000000000"
    },
    {
      "x": 370,
      "y": 68,
      "size": 1,
      "price": "2667000000000000000000",
      "reserved": "0x7a9fe22691c811ea339d9b73150e6911a5343dca"
    },
    {
      "x": 371,
      "y": 68,
      "size": 1,
      "price": "2667000000000000000000"
    },
    {
      "x": 371,
      "y": 67,
      "size": 1,
      "price": "2667000000000000000000",
      "reserved": "0x7a9fe22691c811ea339d9b73150e6911a5343dca"
    },
    {
      "x": 371,
      "y": 66,
      "size": 1,
      "price": "2667000000000000000000"
    },
    {
      "x": 375,
      "y": 65,
      "size": 1,
      "price": "2667000000000000000000",
      "reserved": "0x7a9fe22691c811ea339d9b73150e6911a5343dca"
    },
    {
      "x": 375,
      "y": 64,
      "size": 1,
      "price": "2667000000000000000000"
    },
    {
      "x": 376,
      "y": 64,
      "size": 1,
      "price": "2667000000000000000000",
      "reserved": "0x7a9fe22691c811ea339d9b73150e6911a5343dca"
    },
    {
      "x": 376,
      "y": 63,
      "size": 1,
      "price": "2667000000000000000000"
    },
    {
      "x": 375,
      "y": 63,
      "size": 1,
      "price": "2667000000000000000000",
      "reserved": "0x7a9fe22691c811ea339d9b73150e6911a5343dca"
    },
    {
      "x": 377,
      "y": 63,
      "size": 1,
      "price": "2667000000000000000000"
    },
    {
      "x": 377,
      "y": 64,
      "size": 1,
      "price": "2667000000000000000000"
    },
    {
      "x": 377,
      "y": 65,
      "size": 1,
      "price": "2667000000000000000000"
    },
    {
      "x": 376,
      "y": 65,
      "size": 1,
      "price": "2667000000000000000000"
    },
    {
      "x": 369,
      "y": 62,
      "size": 1,
      "price": "2667000000000000000000"
    },
    {
      "x": 369,
      "y": 61,
      "size": 1,
      "price": "2667000000000000000000"
    },
    {
      "x": 369,
      "y": 60,
      "size": 1,
      "price": "2667000000000000000000",
      "reserved": "0x7a9fe22691c811ea339d9b73150e6911a5343dca"
    },
    {
      "x": 370,
      "y": 60,
      "size": 1,
      "price": "2667000000000000000000"
    },
    {
      "x": 371,
      "y": 61,
      "size": 1,
      "price": "2667000000000000000000",
      "reserved": "0x7a9fe22691c811ea339d9b73150e6911a5343dca"
    },
    {
      "x": 371,
      "y": 62,
      "size": 1,
      "price": "2667000000000000000000"
    },
    {
      "x": 370,
      "y": 62,
      "size": 1,
      "price": "2667000000000000000000"
    },
    {
      "x": 370,
      "y": 61,
      "size": 1,
      "price": "2667000000000000000000"
    },
    {
      "x": 371,
      "y": 60,
      "size": 1,
      "price": "2667000000000000000000"
    },
    {
      "x": 363,
      "y": 56,
      "size": 1,
      "price": "2667000000000000000000"
    },
    {
      "x": 363,
      "y": 55,
      "size": 1,
      "price": "2667000000000000000000",
      "reserved": "0x7a9fe22691c811ea339d9b73150e6911a5343dca"
    },
    {
      "x": 363,
      "y": 54,
      "size": 1,
      "price": "2667000000000000000000"
    },
    {
      "x": 364,
      "y": 54,
      "size": 1,
      "price": "2667000000000000000000",
      "reserved": "0x7a9fe22691c811ea339d9b73150e6911a5343dca"
    },
    {
      "x": 365,
      "y": 54,
      "size": 1,
      "price": "2667000000000000000000"
    },
    {
      "x": 365,
      "y": 55,
      "size": 1,
      "price": "2667000000000000000000",
      "reserved": "0x7a9fe22691c811ea339d9b73150e6911a5343dca"
    },
    {
      "x": 364,
      "y": 55,
      "size": 1,
      "price": "2667000000000000000000"
    },
    {
      "x": 364,
      "y": 56,
      "size": 1,
      "price": "2667000000000000000000"
    },
    {
      "x": 365,
      "y": 56,
      "size": 1,
      "price": "2667000000000000000000"
    },
    {
      "x": 366,
      "y": 53,
      "size": 1,
      "price": "2667000000000000000000"
    },
    {
      "x": 366,
      "y": 52,
      "size": 1,
      "price": "2667000000000000000000"
    },
    {
      "x": 366,
      "y": 51,
      "size": 1,
      "price": "2667000000000000000000",
      "reserved": "0x7a9fe22691c811ea339d9b73150e6911a5343dca"
    },
    {
      "x": 367,
      "y": 51,
      "size": 1,
      "price": "2667000000000000000000"
    },
    {
      "x": 368,
      "y": 51,
      "size": 1,
      "price": "2667000000000000000000",
      "reserved": "0x7a9fe22691c811ea339d9b73150e6911a5343dca"
    },
    {
      "x": 368,
      "y": 52,
      "size": 1,
      "price": "2667000000000000000000"
    },
    {
      "x": 368,
      "y": 53,
      "size": 1,
      "price": "2667000000000000000000"
    },
    {
      "x": 367,
      "y": 53,
      "size": 1,
      "price": "2667000000000000000000",
      "reserved": "0x7a9fe22691c811ea339d9b73150e6911a5343dca"
    },
    {
      "x": 367,
      "y": 52,
      "size": 1,
      "price": "2667000000000000000000"
    },
    {
      "x": 360,
      "y": 62,
      "size": 1,
      "price": "2667000000000000000000"
    },
    {
      "x": 360,
      "y": 61,
      "size": 1,
      "price": "2667000000000000000000"
    },
    {
      "x": 360,
      "y": 60,
      "size": 1,
      "price": "2667000000000000000000",
      "reserved": "0x7a9fe22691c811ea339d9b73150e6911a5343dca"
    },
    {
      "x": 361,
      "y": 60,
      "size": 1,
      "price": "2667000000000000000000"
    },
    {
      "x": 362,
      "y": 60,
      "size": 1,
      "price": "2667000000000000000000"
    },
    {
      "x": 362,
      "y": 61,
      "size": 1,
      "price": "2667000000000000000000",
      "reserved": "0x7a9fe22691c811ea339d9b73150e6911a5343dca"
    },
    {
      "x": 362,
      "y": 62,
      "size": 1,
      "price": "2667000000000000000000"
    },
    {
      "x": 361,
      "y": 62,
      "size": 1,
      "price": "2667000000000000000000",
      "reserved": "0x7a9fe22691c811ea339d9b73150e6911a5343dca"
    },
    {
      "x": 361,
      "y": 61,
      "size": 1,
      "price": "2667000000000000000000"
    },
    {
      "x": 357,
      "y": 68,
      "size": 1,
      "price": "2667000000000000000000"
    },
    {
      "x": 357,
      "y": 67,
      "size": 1,
      "price": "2667000000000000000000",
      "reserved": "0x7a9fe22691c811ea339d9b73150e6911a5343dca"
    },
    {
      "x": 357,
      "y": 66,
      "size": 1,
      "price": "2667000000000000000000"
    },
    {
      "x": 358,
      "y": 66,
      "size": 1,
      "price": "2667000000000000000000",
      "reserved": "0x7a9fe22691c811ea339d9b73150e6911a5343dca"
    },
    {
      "x": 358,
      "y": 67,
      "size": 1,
      "price": "2667000000000000000000"
    },
    {
      "x": 359,
      "y": 67,
      "size": 1,
      "price": "2667000000000000000000"
    },
    {
      "x": 359,
      "y": 68,
      "size": 1,
      "price": "2667000000000000000000",
      "reserved": "0x7a9fe22691c811ea339d9b73150e6911a5343dca"
    },
    {
      "x": 358,
      "y": 68,
      "size": 1,
      "price": "2667000000000000000000"
    },
    {
      "x": 359,
      "y": 66,
      "size": 1,
      "price": "2667000000000000000000"
    },
    {
      "x": 351,
      "y": 68,
      "size": 1,
      "price": "2667000000000000000000",
      "reserved": "0x7a9fe22691c811ea339d9b73150e6911a5343dca"
    },
    {
      "x": 351,
      "y": 67,
      "size": 1,
      "price": "2667000000000000000000"
    },
    {
      "x": 351,
      "y": 66,
      "size": 1,
      "price": "2667000000000000000000"
    },
    {
      "x": 352,
      "y": 66,
      "size": 1,
      "price": "2667000000000000000000"
    },
    {
      "x": 353,
      "y": 66,
      "size": 1,
      "price": "2667000000000000000000"
    },
    {
      "x": 353,
      "y": 67,
      "size": 1,
      "price": "2667000000000000000000",
      "reserved": "0x7a9fe22691c811ea339d9b73150e6911a5343dca"
    },
    {
      "x": 353,
      "y": 68,
      "size": 1,
      "price": "2667000000000000000000"
    },
    {
      "x": 352,
      "y": 68,
      "size": 1,
      "price": "2667000000000000000000"
    },
    {
      "x": 352,
      "y": 67,
      "size": 1,
      "price": "2667000000000000000000"
    },
    {
      "x": 345,
      "y": 71,
      "size": 1,
      "price": "2667000000000000000000"
    },
    {
      "x": 345,
      "y": 70,
      "size": 1,
      "price": "2667000000000000000000"
    },
    {
      "x": 345,
      "y": 69,
      "size": 1,
      "price": "2667000000000000000000"
    },
    {
      "x": 346,
      "y": 69,
      "size": 1,
      "price": "2667000000000000000000",
      "reserved": "0x7a9fe22691c811ea339d9b73150e6911a5343dca"
    },
    {
      "x": 347,
      "y": 69,
      "size": 1,
      "price": "2667000000000000000000"
    },
    {
      "x": 347,
      "y": 70,
      "size": 1,
      "price": "2667000000000000000000"
    },
    {
      "x": 347,
      "y": 71,
      "size": 1,
      "price": "2667000000000000000000",
      "reserved": "0x7a9fe22691c811ea339d9b73150e6911a5343dca"
    },
    {
      "x": 346,
      "y": 71,
      "size": 1,
      "price": "2667000000000000000000"
    },
    {
      "x": 346,
      "y": 70,
      "size": 1,
      "price": "2667000000000000000000"
    },
    {
      "x": 345,
      "y": 65,
      "size": 1,
      "price": "2667000000000000000000"
    },
    {
      "x": 345,
      "y": 64,
      "size": 1,
      "price": "2667000000000000000000"
    },
    {
      "x": 345,
      "y": 63,
      "size": 1,
      "price": "2667000000000000000000",
      "reserved": "0x7a9fe22691c811ea339d9b73150e6911a5343dca"
    },
    {
      "x": 346,
      "y": 63,
      "size": 1,
      "price": "2667000000000000000000"
    },
    {
      "x": 347,
      "y": 63,
      "size": 1,
      "price": "2667000000000000000000"
    },
    {
      "x": 347,
      "y": 64,
      "size": 1,
      "price": "2667000000000000000000",
      "reserved": "0x7a9fe22691c811ea339d9b73150e6911a5343dca"
    },
    {
      "x": 347,
      "y": 65,
      "size": 1,
      "price": "2667000000000000000000"
    },
    {
      "x": 346,
      "y": 65,
      "size": 1,
      "price": "2667000000000000000000",
      "reserved": "0x7a9fe22691c811ea339d9b73150e6911a5343dca"
    },
    {
      "x": 346,
      "y": 64,
      "size": 1,
      "price": "2667000000000000000000"
    },
    {
      "x": 339,
      "y": 62,
      "size": 1,
      "price": "2667000000000000000000"
    },
    {
      "x": 339,
      "y": 61,
      "size": 1,
      "price": "2667000000000000000000"
    },
    {
      "x": 339,
      "y": 60,
      "size": 1,
      "price": "2667000000000000000000",
      "reserved": "0x7a9fe22691c811ea339d9b73150e6911a5343dca"
    },
    {
      "x": 340,
      "y": 60,
      "size": 1,
      "price": "2667000000000000000000"
    },
    {
      "x": 341,
      "y": 60,
      "size": 1,
      "price": "2667000000000000000000"
    },
    {
      "x": 341,
      "y": 61,
      "size": 1,
      "price": "2667000000000000000000"
    },
    {
      "x": 341,
      "y": 62,
      "size": 1,
      "price": "2667000000000000000000"
    },
    {
      "x": 340,
      "y": 62,
      "size": 1,
      "price": "2667000000000000000000",
      "reserved": "0x7a9fe22691c811ea339d9b73150e6911a5343dca"
    },
    {
      "x": 340,
      "y": 61,
      "size": 1,
      "price": "2667000000000000000000"
    },
    {
      "x": 337,
      "y": 56,
      "size": 1,
      "price": "2667000000000000000000"
    },
    {
      "x": 337,
      "y": 55,
      "size": 1,
      "price": "2667000000000000000000",
      "reserved": "0x7a9fe22691c811ea339d9b73150e6911a5343dca"
    },
    {
      "x": 336,
      "y": 55,
      "size": 1,
      "price": "2667000000000000000000"
    },
    {
      "x": 336,
      "y": 54,
      "size": 1,
      "price": "2667000000000000000000",
      "reserved": "0x7a9fe22691c811ea339d9b73150e6911a5343dca"
    },
    {
      "x": 337,
      "y": 54,
      "size": 1,
      "price": "2667000000000000000000"
    },
    {
      "x": 338,
      "y": 54,
      "size": 1,
      "price": "2667000000000000000000"
    },
    {
      "x": 338,
      "y": 55,
      "size": 1,
      "price": "2667000000000000000000"
    },
    {
      "x": 338,
      "y": 56,
      "size": 1,
      "price": "2667000000000000000000"
    },
    {
      "x": 336,
      "y": 56,
      "size": 1,
      "price": "2667000000000000000000",
      "reserved": "0x7a9fe22691c811ea339d9b73150e6911a5343dca"
    },
    {
      "x": 330,
      "y": 62,
      "size": 1,
      "price": "2667000000000000000000"
    },
    {
      "x": 330,
      "y": 61,
      "size": 1,
      "price": "2667000000000000000000",
      "reserved": "0x7a9fe22691c811ea339d9b73150e6911a5343dca"
    },
    {
      "x": 330,
      "y": 60,
      "size": 1,
      "price": "2667000000000000000000",
      "reserved": "0x7a9fe22691c811ea339d9b73150e6911a5343dca"
    },
    {
      "x": 331,
      "y": 60,
      "size": 1,
      "price": "2667000000000000000000"
    },
    {
      "x": 332,
      "y": 61,
      "size": 1,
      "price": "2667000000000000000000",
      "reserved": "0x7a9fe22691c811ea339d9b73150e6911a5343dca"
    },
    {
      "x": 332,
      "y": 62,
      "size": 1,
      "price": "2667000000000000000000"
    },
    {
      "x": 331,
      "y": 62,
      "size": 1,
      "price": "2667000000000000000000"
    },
    {
      "x": 331,
      "y": 61,
      "size": 1,
      "price": "2667000000000000000000"
    },
    {
      "x": 332,
      "y": 60,
      "size": 1,
      "price": "2667000000000000000000"
    },
    {
      "x": 333,
      "y": 68,
      "size": 1,
      "price": "2667000000000000000000",
      "reserved": "0x7a9fe22691c811ea339d9b73150e6911a5343dca"
    },
    {
      "x": 333,
      "y": 67,
      "size": 1,
      "price": "2667000000000000000000"
    },
    {
      "x": 334,
      "y": 67,
      "size": 1,
      "price": "2667000000000000000000"
    },
    {
      "x": 334,
      "y": 66,
      "size": 1,
      "price": "2667000000000000000000",
      "reserved": "0x7a9fe22691c811ea339d9b73150e6911a5343dca"
    },
    {
      "x": 335,
      "y": 66,
      "size": 1,
      "price": "2667000000000000000000"
    },
    {
      "x": 335,
      "y": 67,
      "size": 1,
      "price": "2667000000000000000000",
      "reserved": "0x7a9fe22691c811ea339d9b73150e6911a5343dca"
    },
    {
      "x": 335,
      "y": 68,
      "size": 1,
      "price": "2667000000000000000000"
    },
    {
      "x": 334,
      "y": 68,
      "size": 1,
      "price": "2667000000000000000000"
    },
    {
      "x": 333,
      "y": 66,
      "size": 1,
      "price": "2667000000000000000000"
    },
    {
      "x": 324,
      "y": 68,
      "size": 1,
      "price": "2667000000000000000000"
    },
    {
      "x": 324,
      "y": 67,
      "size": 1,
      "price": "2667000000000000000000"
    },
    {
      "x": 325,
      "y": 67,
      "size": 1,
      "price": "2667000000000000000000"
    },
    {
      "x": 325,
      "y": 66,
      "size": 1,
      "price": "2667000000000000000000"
    },
    {
      "x": 326,
      "y": 66,
      "size": 1,
      "price": "2667000000000000000000",
      "reserved": "0x7a9fe22691c811ea339d9b73150e6911a5343dca"
    },
    {
      "x": 326,
      "y": 67,
      "size": 1,
      "price": "2667000000000000000000"
    },
    {
      "x": 326,
      "y": 68,
      "size": 1,
      "price": "2667000000000000000000"
    },
    {
      "x": 325,
      "y": 68,
      "size": 1,
      "price": "2667000000000000000000",
      "reserved": "0x7a9fe22691c811ea339d9b73150e6911a5343dca"
    },
    {
      "x": 324,
      "y": 66,
      "size": 1,
      "price": "2667000000000000000000",
      "reserved": "0x7a9fe22691c811ea339d9b73150e6911a5343dca"
    },
    {
      "x": 321,
      "y": 71,
      "size": 1,
      "price": "2667000000000000000000",
      "reserved": "0x7a9fe22691c811ea339d9b73150e6911a5343dca"
    },
    {
      "x": 321,
      "y": 70,
      "size": 1,
      "price": "2667000000000000000000"
    },
    {
      "x": 321,
      "y": 69,
      "size": 1,
      "price": "2667000000000000000000"
    },
    {
      "x": 322,
      "y": 69,
      "size": 1,
      "price": "2667000000000000000000",
      "reserved": "0x7a9fe22691c811ea339d9b73150e6911a5343dca"
    },
    {
      "x": 323,
      "y": 69,
      "size": 1,
      "price": "2667000000000000000000"
    },
    {
      "x": 323,
      "y": 70,
      "size": 1,
      "price": "2667000000000000000000",
      "reserved": "0x7a9fe22691c811ea339d9b73150e6911a5343dca"
    },
    {
      "x": 323,
      "y": 71,
      "size": 1,
      "price": "2667000000000000000000"
    },
    {
      "x": 322,
      "y": 71,
      "size": 1,
      "price": "2667000000000000000000"
    },
    {
      "x": 322,
      "y": 70,
      "size": 1,
      "price": "2667000000000000000000"
    },
    {
      "x": 354,
      "y": 110,
      "size": 1,
      "price": "2667000000000000000000"
    },
    {
      "x": 354,
      "y": 109,
      "size": 1,
      "price": "2667000000000000000000",
      "reserved": "0x7a9fe22691c811ea339d9b73150e6911a5343dca"
    },
    {
      "x": 354,
      "y": 108,
      "size": 1,
      "price": "2667000000000000000000"
    },
    {
      "x": 355,
      "y": 62,
      "size": 1,
      "price": "2667000000000000000000"
    },
    {
      "x": 354,
      "y": 62,
      "size": 1,
      "price": "2667000000000000000000"
    },
    {
      "x": 354,
      "y": 61,
      "size": 1,
      "price": "2667000000000000000000",
      "reserved": "0x7a9fe22691c811ea339d9b73150e6911a5343dca"
    },
    {
      "x": 354,
      "y": 60,
      "size": 1,
      "price": "2667000000000000000000"
    },
    {
      "x": 355,
      "y": 60,
      "size": 1,
      "price": "2667000000000000000000",
      "reserved": "0x7a9fe22691c811ea339d9b73150e6911a5343dca"
    },
    {
      "x": 356,
      "y": 60,
      "size": 1,
      "price": "2667000000000000000000"
    },
    {
      "x": 356,
      "y": 61,
      "size": 1,
      "price": "2667000000000000000000"
    },
    {
      "x": 356,
      "y": 62,
      "size": 1,
      "price": "2667000000000000000000",
      "reserved": "0x7a9fe22691c811ea339d9b73150e6911a5343dca"
    },
    {
      "x": 355,
      "y": 61,
      "size": 1,
      "price": "2667000000000000000000"
    },
    {
      "x": 367,
      "y": 47,
      "size": 1,
      "price": "2667000000000000000000",
      "reserved": "0x7a9fe22691c811ea339d9b73150e6911a5343dca"
    },
    {
      "x": 368,
      "y": 47,
      "size": 1,
      "price": "2667000000000000000000"
    },
    {
      "x": 366,
      "y": 47,
      "size": 1,
      "price": "2667000000000000000000"
    },
    {
      "x": 362,
      "y": 47,
      "size": 1,
      "price": "2667000000000000000000"
    },
    {
      "x": 361,
      "y": 47,
      "size": 1,
      "price": "2667000000000000000000",
      "reserved": "0x7a9fe22691c811ea339d9b73150e6911a5343dca"
    },
    {
      "x": 360,
      "y": 47,
      "size": 1,
      "price": "2667000000000000000000"
    },
    {
      "x": 356,
      "y": 47,
      "size": 1,
      "price": "2667000000000000000000"
    },
    {
      "x": 355,
      "y": 47,
      "size": 1,
      "price": "2667000000000000000000"
    },
    {
      "x": 354,
      "y": 47,
      "size": 1,
      "price": "2667000000000000000000"
    },
    {
      "x": 350,
      "y": 47,
      "size": 1,
      "price": "2667000000000000000000"
    },
    {
      "x": 349,
      "y": 47,
      "size": 1,
      "price": "2667000000000000000000",
      "reserved": "0x7a9fe22691c811ea339d9b73150e6911a5343dca"
    },
    {
      "x": 348,
      "y": 47,
      "size": 1,
      "price": "2667000000000000000000"
    },
    {
      "x": 348,
      "y": 46,
      "size": 1,
      "price": "2667000000000000000000",
      "reserved": "0x7a9fe22691c811ea339d9b73150e6911a5343dca"
    },
    {
      "x": 349,
      "y": 46,
      "size": 1,
      "price": "2667000000000000000000"
    },
    {
      "x": 350,
      "y": 46,
      "size": 1,
      "price": "2667000000000000000000"
    },
    {
      "x": 354,
      "y": 46,
      "size": 1,
      "price": "2667000000000000000000"
    },
    {
      "x": 355,
      "y": 46,
      "size": 1,
      "price": "2667000000000000000000",
      "reserved": "0x7a9fe22691c811ea339d9b73150e6911a5343dca"
    },
    {
      "x": 356,
      "y": 46,
      "size": 1,
      "price": "2667000000000000000000"
    },
    {
      "x": 360,
      "y": 46,
      "size": 1,
      "price": "2667000000000000000000"
    },
    {
      "x": 361,
      "y": 46,
      "size": 1,
      "price": "2667000000000000000000"
    },
    {
      "x": 362,
      "y": 46,
      "size": 1,
      "price": "2667000000000000000000"
    },
    {
      "x": 366,
      "y": 46,
      "size": 1,
      "price": "2667000000000000000000",
      "reserved": "0x7a9fe22691c811ea339d9b73150e6911a5343dca"
    },
    {
      "x": 367,
      "y": 46,
      "size": 1,
      "price": "2667000000000000000000",
      "reserved": "0x7a9fe22691c811ea339d9b73150e6911a5343dca"
    },
    {
      "x": 368,
      "y": 46,
      "size": 1,
      "price": "2667000000000000000000"
    },
    {
      "x": 368,
      "y": 45,
      "size": 1,
      "price": "2667000000000000000000"
    },
    {
      "x": 367,
      "y": 45,
      "size": 1,
      "price": "2667000000000000000000"
    },
    {
      "x": 366,
      "y": 45,
      "size": 1,
      "price": "2667000000000000000000"
    },
    {
      "x": 362,
      "y": 45,
      "size": 1,
      "price": "2667000000000000000000"
    },
    {
      "x": 361,
      "y": 45,
      "size": 1,
      "price": "2667000000000000000000",
      "reserved": "0x7a9fe22691c811ea339d9b73150e6911a5343dca"
    },
    {
      "x": 360,
      "y": 45,
      "size": 1,
      "price": "2667000000000000000000"
    },
    {
      "x": 356,
      "y": 45,
      "size": 1,
      "price": "2667000000000000000000"
    },
    {
      "x": 355,
      "y": 45,
      "size": 1,
      "price": "2667000000000000000000"
    },
    {
      "x": 354,
      "y": 45,
      "size": 1,
      "price": "2667000000000000000000",
      "reserved": "0x7a9fe22691c811ea339d9b73150e6911a5343dca"
    },
    {
      "x": 350,
      "y": 45,
      "size": 1,
      "price": "2667000000000000000000",
      "reserved": "0x7a9fe22691c811ea339d9b73150e6911a5343dca"
    },
    {
      "x": 349,
      "y": 45,
      "size": 1,
      "price": "2667000000000000000000"
    },
    {
      "x": 348,
      "y": 45,
      "size": 1,
      "price": "2667000000000000000000"
    },
    {
      "x": 351,
      "y": 44,
      "size": 1,
      "price": "2667000000000000000000"
    },
    {
      "x": 352,
      "y": 44,
      "size": 1,
      "price": "2667000000000000000000"
    },
    {
      "x": 353,
      "y": 44,
      "size": 1,
      "price": "2667000000000000000000"
    },
    {
      "x": 357,
      "y": 44,
      "size": 1,
      "price": "2667000000000000000000"
    },
    {
      "x": 358,
      "y": 44,
      "size": 1,
      "price": "2667000000000000000000",
      "reserved": "0x7a9fe22691c811ea339d9b73150e6911a5343dca"
    },
    {
      "x": 359,
      "y": 44,
      "size": 1,
      "price": "2667000000000000000000",
      "reserved": "0x7a9fe22691c811ea339d9b73150e6911a5343dca"
    },
    {
      "x": 359,
      "y": 43,
      "size": 1,
      "price": "2667000000000000000000"
    },
    {
      "x": 358,
      "y": 43,
      "size": 1,
      "price": "2667000000000000000000"
    },
    {
      "x": 357,
      "y": 43,
      "size": 1,
      "price": "2667000000000000000000",
      "reserved": "0x7a9fe22691c811ea339d9b73150e6911a5343dca"
    },
    {
      "x": 353,
      "y": 43,
      "size": 1,
      "price": "2667000000000000000000",
      "reserved": "0x7a9fe22691c811ea339d9b73150e6911a5343dca"
    },
    {
      "x": 352,
      "y": 43,
      "size": 1,
      "price": "2667000000000000000000"
    },
    {
      "x": 351,
      "y": 43,
      "size": 1,
      "price": "2667000000000000000000",
      "reserved": "0x7a9fe22691c811ea339d9b73150e6911a5343dca"
    },
    {
      "x": 351,
      "y": 42,
      "size": 1,
      "price": "2667000000000000000000"
    },
    {
      "x": 352,
      "y": 42,
      "size": 1,
      "price": "2667000000000000000000"
    },
    {
      "x": 353,
      "y": 42,
      "size": 1,
      "price": "2667000000000000000000"
    },
    {
      "x": 357,
      "y": 42,
      "size": 1,
      "price": "2667000000000000000000"
    },
    {
      "x": 358,
      "y": 42,
      "size": 1,
      "price": "2667000000000000000000"
    },
    {
      "x": 359,
      "y": 42,
      "size": 1,
      "price": "2667000000000000000000"
    },
    {
      "x": 339,
      "y": 53,
      "size": 1,
      "price": "2667000000000000000000"
    },
    {
      "x": 340,
      "y": 53,
      "size": 1,
      "price": "2667000000000000000000"
    },
    {
      "x": 341,
      "y": 53,
      "size": 1,
      "price": "2667000000000000000000",
      "reserved": "0x7a9fe22691c811ea339d9b73150e6911a5343dca"
    },
    {
      "x": 345,
      "y": 53,
      "size": 1,
      "price": "2667000000000000000000"
    },
    {
      "x": 346,
      "y": 53,
      "size": 1,
      "price": "2667000000000000000000",
      "reserved": "0x7a9fe22691c811ea339d9b73150e6911a5343dca"
    },
    {
      "x": 346,
      "y": 52,
      "size": 1,
      "price": "2667000000000000000000"
    },
    {
      "x": 347,
      "y": 52,
      "size": 1,
      "price": "2667000000000000000000"
    },
    {
      "x": 347,
      "y": 51,
      "size": 1,
      "price": "2667000000000000000000"
    },
    {
      "x": 346,
      "y": 51,
      "size": 1,
      "price": "2667000000000000000000",
      "reserved": "0x7a9fe22691c811ea339d9b73150e6911a5343dca"
    },
    {
      "x": 345,
      "y": 52,
      "size": 1,
      "price": "2667000000000000000000",
      "reserved": "0x7a9fe22691c811ea339d9b73150e6911a5343dca"
    },
    {
      "x": 345,
      "y": 51,
      "size": 1,
      "price": "2667000000000000000000"
    },
    {
      "x": 347,
      "y": 53,
      "size": 1,
      "price": "2667000000000000000000"
    },
    {
      "x": 341,
      "y": 52,
      "size": 1,
      "price": "2667000000000000000000"
    },
    {
      "x": 340,
      "y": 52,
      "size": 1,
      "price": "2667000000000000000000",
      "reserved": "0x7a9fe22691c811ea339d9b73150e6911a5343dca"
    },
    {
      "x": 339,
      "y": 52,
      "size": 1,
      "price": "2667000000000000000000"
    },
    {
      "x": 339,
      "y": 51,
      "size": 1,
      "price": "2667000000000000000000"
    },
    {
      "x": 340,
      "y": 51,
      "size": 1,
      "price": "2667000000000000000000"
    },
    {
      "x": 341,
      "y": 51,
      "size": 1,
      "price": "2667000000000000000000"
    },
    {
      "x": 337,
      "y": 50,
      "size": 1,
      "price": "2667000000000000000000"
    },
    {
      "x": 336,
      "y": 50,
      "size": 1,
      "price": "2667000000000000000000"
    },
    {
      "x": 336,
      "y": 49,
      "size": 1,
      "price": "2667000000000000000000"
    },
    {
      "x": 336,
      "y": 48,
      "size": 1,
      "price": "2667000000000000000000"
    },
    {
      "x": 337,
      "y": 48,
      "size": 1,
      "price": "2667000000000000000000"
    },
    {
      "x": 338,
      "y": 48,
      "size": 1,
      "price": "2667000000000000000000",
      "reserved": "0x7a9fe22691c811ea339d9b73150e6911a5343dca"
    },
    {
      "x": 338,
      "y": 49,
      "size": 1,
      "price": "2667000000000000000000"
    },
    {
      "x": 338,
      "y": 50,
      "size": 1,
      "price": "2667000000000000000000"
    },
    {
      "x": 337,
      "y": 49,
      "size": 1,
      "price": "2667000000000000000000",
      "reserved": "0x7a9fe22691c811ea339d9b73150e6911a5343dca"
    },
    {
      "x": 342,
      "y": 50,
      "size": 1,
      "price": "2667000000000000000000"
    },
    {
      "x": 342,
      "y": 49,
      "size": 1,
      "price": "2667000000000000000000"
    },
    {
      "x": 342,
      "y": 48,
      "size": 1,
      "price": "2667000000000000000000",
      "reserved": "0x7a9fe22691c811ea339d9b73150e6911a5343dca"
    },
    {
      "x": 343,
      "y": 48,
      "size": 1,
      "price": "2667000000000000000000"
    },
    {
      "x": 344,
      "y": 48,
      "size": 1,
      "price": "2667000000000000000000"
    },
    {
      "x": 344,
      "y": 49,
      "size": 1,
      "price": "2667000000000000000000"
    },
    {
      "x": 344,
      "y": 50,
      "size": 1,
      "price": "2667000000000000000000",
      "reserved": "0x7a9fe22691c811ea339d9b73150e6911a5343dca"
    },
    {
      "x": 343,
      "y": 50,
      "size": 1,
      "price": "2667000000000000000000"
    },
    {
      "x": 343,
      "y": 49,
      "size": 1,
      "price": "2667000000000000000000",
      "reserved": "0x7a9fe22691c811ea339d9b73150e6911a5343dca"
    },
    {
      "x": 354,
      "y": 117,
      "size": 3,
      "price": "22800000000000000000000"
    },
    {
      "x": 354,
      "y": 114,
      "size": 3,
      "price": "22800000000000000000000"
    },
    {
      "x": 354,
      "y": 111,
      "size": 3,
      "price": "22800000000000000000000",
      "reserved": "0x7a9fe22691c811ea339d9b73150e6911a5343dca"
    },
    {
      "x": 348,
      "y": 114,
      "size": 6,
      "price": "86400000000000000000000"
    },
    {
      "x": 348,
      "y": 102,
      "size": 6,
      "price": "86400000000000000000000",
      "reserved": "0x7a9fe22691c811ea339d9b73150e6911a5343dca"
    },
    {
      "x": 366,
      "y": 84,
      "size": 6,
      "price": "86400000000000000000000"
    },
    {
      "x": 372,
      "y": 66,
      "size": 6,
      "price": "86400000000000000000000"
    },
    {
      "x": 360,
      "y": 66,
      "size": 6,
      "price": "86400000000000000000000"
    },
    {
      "x": 366,
      "y": 54,
      "size": 6,
      "price": "86400000000000000000000"
    },
    {
      "x": 360,
      "y": 48,
      "size": 6,
      "price": "86400000000000000000000"
    },
    {
      "x": 348,
      "y": 60,
      "size": 6,
      "price": "86400000000000000000000"
    },
    {
      "x": 336,
      "y": 66,
      "size": 6,
      "price": "86400000000000000000000"
    },
    {
      "x": 330,
      "y": 54,
      "size": 6,
      "price": "86400000000000000000000"
    },
    {
      "x": 348,
      "y": 111,
      "size": 3,
      "price": "22800000000000000000000"
    },
    {
      "x": 348,
      "y": 108,
      "size": 3,
      "price": "22800000000000000000000"
    },
    {
      "x": 345,
      "y": 105,
      "size": 3,
      "price": "22800000000000000000000"
    },
    {
      "x": 345,
      "y": 102,
      "size": 3,
      "price": "22800000000000000000000"
    },
    {
      "x": 345,
      "y": 99,
      "size": 3,
      "price": "22800000000000000000000"
    },
    {
      "x": 351,
      "y": 111,
      "size": 3,
      "price": "22800000000000000000000"
    },
    {
      "x": 351,
      "y": 108,
      "size": 3,
      "price": "22800000000000000000000"
    },
    {
      "x": 357,
      "y": 111,
      "size": 3,
      "price": "22800000000000000000000"
    },
    {
      "x": 357,
      "y": 108,
      "size": 3,
      "price": "22800000000000000000000"
    },
    {
      "x": 357,
      "y": 105,
      "size": 3,
      "price": "22800000000000000000000"
    },
    {
      "x": 357,
      "y": 99,
      "size": 3,
      "price": "22800000000000000000000"
    },
    {
      "x": 354,
      "y": 105,
      "size": 3,
      "price": "22800000000000000000000"
    },
    {
      "x": 354,
      "y": 102,
      "size": 3,
      "price": "22800000000000000000000"
    },
    {
      "x": 354,
      "y": 99,
      "size": 3,
      "price": "22800000000000000000000",
      "reserved": "0x7a9fe22691c811ea339d9b73150e6911a5343dca"
    },
    {
      "x": 360,
      "y": 105,
      "size": 3,
      "price": "22800000000000000000000"
    },
    {
      "x": 360,
      "y": 102,
      "size": 3,
      "price": "22800000000000000000000"
    },
    {
      "x": 360,
      "y": 99,
      "size": 3,
      "price": "22800000000000000000000"
    },
    {
      "x": 360,
      "y": 90,
      "size": 3,
      "price": "22800000000000000000000"
    },
    {
      "x": 360,
      "y": 96,
      "size": 3,
      "price": "22800000000000000000000"
    },
    {
      "x": 360,
      "y": 87,
      "size": 3,
      "price": "22800000000000000000000",
      "reserved": "0x7a9fe22691c811ea339d9b73150e6911a5343dca"
    },
    {
      "x": 363,
      "y": 102,
      "size": 3,
      "price": "22800000000000000000000"
    },
    {
      "x": 363,
      "y": 96,
      "size": 3,
      "price": "22800000000000000000000"
    },
    {
      "x": 363,
      "y": 93,
      "size": 3,
      "price": "22800000000000000000000",
      "reserved": "0x7a9fe22691c811ea339d9b73150e6911a5343dca"
    },
    {
      "x": 363,
      "y": 87,
      "size": 3,
      "price": "22800000000000000000000"
    },
    {
      "x": 363,
      "y": 84,
      "size": 3,
      "price": "22800000000000000000000"
    },
    {
      "x": 363,
      "y": 81,
      "size": 3,
      "price": "22800000000000000000000",
      "reserved": "0x7a9fe22691c811ea339d9b73150e6911a5343dca"
    },
    {
      "x": 363,
      "y": 78,
      "size": 3,
      "price": "22800000000000000000000"
    },
    {
      "x": 363,
      "y": 75,
      "size": 3,
      "price": "22800000000000000000000"
    },
    {
      "x": 363,
      "y": 63,
      "size": 3,
      "price": "22800000000000000000000"
    },
    {
      "x": 363,
      "y": 60,
      "size": 3,
      "price": "22800000000000000000000"
    },
    {
      "x": 363,
      "y": 57,
      "size": 3,
      "price": "22800000000000000000000",
      "reserved": "0x7a9fe22691c811ea339d9b73150e6911a5343dca"
    },
    {
      "x": 366,
      "y": 96,
      "size": 3,
      "price": "22800000000000000000000"
    },
    {
      "x": 366,
      "y": 93,
      "size": 3,
      "price": "22800000000000000000000"
    },
    {
      "x": 366,
      "y": 90,
      "size": 3,
      "price": "22800000000000000000000"
    },
    {
      "x": 366,
      "y": 78,
      "size": 3,
      "price": "22800000000000000000000"
    },
    {
      "x": 366,
      "y": 75,
      "size": 3,
      "price": "22800000000000000000000"
    },
    {
      "x": 366,
      "y": 72,
      "size": 3,
      "price": "22800000000000000000000"
    },
    {
      "x": 366,
      "y": 69,
      "size": 3,
      "price": "22800000000000000000000",
      "reserved": "0x7a9fe22691c811ea339d9b73150e6911a5343dca"
    },
    {
      "x": 366,
      "y": 66,
      "size": 3,
      "price": "22800000000000000000000"
    },
    {
      "x": 366,
      "y": 63,
      "size": 3,
      "price": "22800000000000000000000"
    },
    {
      "x": 366,
      "y": 60,
      "size": 3,
      "price": "22800000000000000000000"
    },
    {
      "x": 366,
      "y": 48,
      "size": 3,
      "price": "22800000000000000000000"
    },
    {
      "x": 369,
      "y": 51,
      "size": 3,
      "price": "22800000000000000000000"
    },
    {
      "x": 369,
      "y": 63,
      "size": 3,
      "price": "22800000000000000000000"
    },
    {
      "x": 369,
      "y": 69,
      "size": 3,
      "price": "22800000000000000000000"
    },
    {
      "x": 369,
      "y": 72,
      "size": 3,
      "price": "22800000000000000000000"
    },
    {
      "x": 369,
      "y": 78,
      "size": 3,
      "price": "22800000000000000000000"
    },
    {
      "x": 369,
      "y": 81,
      "size": 3,
      "price": "22800000000000000000000"
    },
    {
      "x": 372,
      "y": 78,
      "size": 3,
      "price": "22800000000000000000000"
    },
    {
      "x": 372,
      "y": 75,
      "size": 3,
      "price": "22800000000000000000000"
    },
    {
      "x": 372,
      "y": 72,
      "size": 3,
      "price": "22800000000000000000000",
      "reserved": "0x7a9fe22691c811ea339d9b73150e6911a5343dca"
    },
    {
      "x": 372,
      "y": 63,
      "size": 3,
      "price": "22800000000000000000000"
    },
    {
      "x": 372,
      "y": 60,
      "size": 3,
      "price": "22800000000000000000000"
    },
    {
      "x": 375,
      "y": 72,
      "size": 3,
      "price": "22800000000000000000000"
    },
    {
      "x": 378,
      "y": 69,
      "size": 3,
      "price": "22800000000000000000000"
    },
    {
      "x": 378,
      "y": 66,
      "size": 3,
      "price": "22800000000000000000000"
    },
    {
      "x": 360,
      "y": 78,
      "size": 3,
      "price": "22800000000000000000000"
    },
    {
      "x": 360,
      "y": 81,
      "size": 3,
      "price": "22800000000000000000000"
    },
    {
      "x": 360,
      "y": 72,
      "size": 3,
      "price": "22800000000000000000000"
    },
    {
      "x": 360,
      "y": 63,
      "size": 3,
      "price": "22800000000000000000000"
    },
    {
      "x": 360,
      "y": 57,
      "size": 3,
      "price": "22800000000000000000000"
    },
    {
      "x": 360,
      "y": 54,
      "size": 3,
      "price": "22800000000000000000000"
    },
    {
      "x": 342,
      "y": 69,
      "size": 3,
      "price": "22800000000000000000000"
    },
    {
      "x": 348,
      "y": 69,
      "size": 3,
      "price": "22800000000000000000000"
    },
    {
      "x": 351,
      "y": 69,
      "size": 3,
      "price": "22800000000000000000000"
    },
    {
      "x": 354,
      "y": 69,
      "size": 3,
      "price": "22800000000000000000000"
    },
    {
      "x": 357,
      "y": 69,
      "size": 3,
      "price": "22800000000000000000000"
    },
    {
      "x": 321,
      "y": 66,
      "size": 3,
      "price": "22800000000000000000000"
    },
    {
      "x": 327,
      "y": 66,
      "size": 3,
      "price": "22800000000000000000000"
    },
    {
      "x": 330,
      "y": 66,
      "size": 3,
      "price": "22800000000000000000000"
    },
    {
      "x": 342,
      "y": 66,
      "size": 3,
      "price": "22800000000000000000000"
    },
    {
      "x": 345,
      "y": 66,
      "size": 3,
      "price": "22800000000000000000000"
    },
    {
      "x": 348,
      "y": 66,
      "size": 3,
      "price": "22800000000000000000000",
      "reserved": "0x7a9fe22691c811ea339d9b73150e6911a5343dca"
    },
    {
      "x": 354,
      "y": 66,
      "size": 3,
      "price": "22800000000000000000000"
    },
    {
      "x": 357,
      "y": 63,
      "size": 3,
      "price": "22800000000000000000000"
    },
    {
      "x": 324,
      "y": 63,
      "size": 3,
      "price": "22800000000000000000000"
    },
    {
      "x": 327,
      "y": 63,
      "size": 3,
      "price": "22800000000000000000000"
    },
    {
      "x": 330,
      "y": 63,
      "size": 3,
      "price": "22800000000000000000000",
      "reserved": "0x7a9fe22691c811ea339d9b73150e6911a5343dca"
    },
    {
      "x": 333,
      "y": 63,
      "size": 3,
      "price": "22800000000000000000000"
    },
    {
      "x": 336,
      "y": 63,
      "size": 3,
      "price": "22800000000000000000000"
    },
    {
      "x": 339,
      "y": 63,
      "size": 3,
      "price": "22800000000000000000000"
    },
    {
      "x": 342,
      "y": 63,
      "size": 3,
      "price": "22800000000000000000000"
    },
    {
      "x": 327,
      "y": 60,
      "size": 3,
      "price": "22800000000000000000000"
    },
    {
      "x": 333,
      "y": 60,
      "size": 3,
      "price": "22800000000000000000000"
    },
    {
      "x": 336,
      "y": 60,
      "size": 3,
      "price": "22800000000000000000000"
    },
    {
      "x": 345,
      "y": 60,
      "size": 3,
      "price": "22800000000000000000000"
    },
    {
      "x": 336,
      "y": 57,
      "size": 3,
      "price": "22800000000000000000000"
    },
    {
      "x": 339,
      "y": 57,
      "size": 3,
      "price": "22800000000000000000000"
    },
    {
      "x": 339,
      "y": 54,
      "size": 3,
      "price": "22800000000000000000000"
    },
    {
      "x": 336,
      "y": 51,
      "size": 3,
      "price": "22800000000000000000000",
      "reserved": "0x7a9fe22691c811ea339d9b73150e6911a5343dca"
    },
    {
      "x": 333,
      "y": 51,
      "size": 3,
      "price": "22800000000000000000000"
    },
    {
      "x": 327,
      "y": 57,
      "size": 3,
      "price": "22800000000000000000000"
    },
    {
      "x": 318,
      "y": 69,
      "size": 3,
      "price": "22800000000000000000000"
    },
    {
      "x": 348,
      "y": 48,
      "size": 12,
      "price": "326400000000000000000000",
      "reserved": "0x7a9fe22691c811ea339d9b73150e6911a5343dca"
    },
    {
      "x": 342,
      "y": 54,
      "size": 6,
      "price": "86400000000000000000000"
    },
    {
      "x": 354,
      "y": 63,
      "size": 3,
      "price": "22800000000000000000000"
    },
    {
      "x": 357,
      "y": 60,
      "size": 3,
      "price": "22800000000000000000000"
    },
    {
      "x": 363,
      "y": 45,
      "size": 3,
      "price": "22800000000000000000000"
    },
    {
      "x": 360,
      "y": 42,
      "size": 3,
      "price": "22800000000000000000000"
    },
    {
      "x": 357,
      "y": 45,
      "size": 3,
      "price": "22800000000000000000000"
    },
    {
      "x": 354,
      "y": 42,
      "size": 3,
      "price": "22800000000000000000000"
    },
    {
      "x": 351,
      "y": 45,
      "size": 3,
      "price": "22800000000000000000000"
    },
    {
      "x": 348,
      "y": 42,
      "size": 3,
      "price": "22800000000000000000000"
    },
    {
      "x": 345,
      "y": 48,
      "size": 3,
      "price": "22800000000000000000000"
    },
    {
      "x": 342,
      "y": 51,
      "size": 3,
      "price": "22800000000000000000000"
    },
    {
      "x": 339,
      "y": 48,
      "size": 3,
      "price": "22800000000000000000000"
    },
    {
      "x": 342,
      "y": 60,
      "size": 3,
      "price": "22800000000000000000000",
      "reserved": "0x7a9fe22691c811ea339d9b73150e6911a5343dca"
    }
  ],
  "bytecode": "0x6080604052620d2f00600555600d805462ff00001961ffff199091166101001716905534801561002e57600080fd5b50604051612260380380612260833981810160405261016081101561005257600080fd5b508051602082015160408301516060840151608085015160a086015160c087015160e08801516101008901516101208a0151610140909a0151600280546001600160a01b03808e166001600160a01b031992831617909255600383905560068054838e1690831617905560078054928c1692909116919091179055989997989697959694959394929391929091906100f48960016001600160e01b0361015916565b5050600a80546001600160a01b03199081166001600160a01b0397881617909155600c94909455600b929092556008805484169185169190911790556009805483169184169190911790556000805490911692909116919091179055506101bd915050565b6001600160a01b038216600081815260016020908152604091829020805460ff191685151590811790915582519384529083015280517fb21eb88b4e33b3f1281830a7178d74d8aa73220416215726b68ae23d539515cb9281900390910190a15050565b612094806101cc6000396000f3fe60806040526004361061016a5760003560e01c80637c53ec4c116100cb578063c10a42081161007f578063e0a1f1c711610059578063e0a1f1c71461080c578063e56f8a9e1461091e578063e97eb0a2146109485761016a565b8063c10a420814610604578063c2bddf26146106d4578063dc5074af146107d95761016a565b80638f283970116100b05780638f28397014610589578063a7e30684146105bc578063b522ecff146105d15761016a565b80637c53ec4c146105225780638a04af6a1461054e5761016a565b80634a253778116101225780635d8e3021116101075780635d8e30211461035c57806365194ce7146103865780636e9960c3146104f15761016a565b80634a2537781461031457806358bc2944146103295761016a565b80633b7c4c15116101535780633b7c4c15146101ab5780633be3b0e2146101d9578063427b8d34146102eb5761016a565b806325cb5bc01461016f5780632eb4a7ab14610196575b600080fd5b34801561017b57600080fd5b50610184610974565b60408051918252519081900360200190f35b3480156101a257600080fd5b5061018461097a565b3480156101b757600080fd5b506101d7600480360360208110156101ce57600080fd5b50351515610980565b005b3480156101e557600080fd5b506101d760048036036101408110156101fd57600080fd5b6001600160a01b038235811692602081013582169260408201359092169160608201359160808101359160a08201359160c08101359160e08201359190810190610120810161010082013564010000000081111561025a57600080fd5b82018360208201111561026c57600080fd5b8035906020019184602083028401116401000000008311171561028e57600080fd5b9193909290916020810190356401000000008111156102ac57600080fd5b8201836020820111156102be57600080fd5b803590602001918460018302840111640100000000831117156102e057600080fd5b509092509050610a01565b3480156102f757600080fd5b50610300610b5c565b604080519115158252519081900360200190f35b34801561032057600080fd5b50610300610b6b565b34801561033557600080fd5b506101d76004803603602081101561034c57600080fd5b50356001600160a01b0316610b79565b34801561036857600080fd5b506101846004803603602081101561037f57600080fd5b5035610c24565b34801561039257600080fd5b50610439600480360360208110156103a957600080fd5b8101906020810181356401000000008111156103c457600080fd5b8201836020820111156103d657600080fd5b803590602001918460018302840111640100000000831117156103f857600080fd5b91908080601f016020809104026020016040519081016040528093929190818152602001838380828437600092019190915250929550610c53945050505050565b6040518080602001866001600160a01b03166001600160a01b03168152602001856001600160a01b03166001600160a01b03168152602001848152602001838152602001828103825287818151815260200191508051906020019080838360005b838110156104b257818101518382015260200161049a565b50505050905090810190601f1680156104df5780820380516001836020036101000a031916815260200191505b50965050505050505060405180910390f35b3480156104fd57600080fd5b50610506610cf1565b604080516001600160a01b039092168252519081900360200190f35b34801561052e57600080fd5b506101d76004803603602081101561054557600080fd5b50351515610d00565b34801561055a57600080fd5b506101d76004803603604081101561057157600080fd5b506001600160a01b0381351690602001351515610d5c565b34801561059557600080fd5b506101d7600480360360208110156105ac57600080fd5b50356001600160a01b0316610db3565b3480156105c857600080fd5b50610300610e89565b3480156105dd57600080fd5b506101d7600480360360208110156105f457600080fd5b50356001600160a01b0316610e92565b34801561061057600080fd5b50610300600480360360a081101561062757600080fd5b81019060208101813564010000000081111561064257600080fd5b82018360208201111561065457600080fd5b8035906020019184600183028401116401000000008311171561067657600080fd5b91908080601f016020809104026020016040519081016040528093929190818152602001838380828437600092019190915250929550506001600160a01b038335811694506020840135169260408101359250606001359050610f4f565b6101d760048036036101408110156106eb57600080fd5b6001600160a01b038235811692602081013582169260408201359092169160608201359160808101359160a08201359160c08101359160e08201359190810190610120810161010082013564010000000081111561074857600080fd5b82018360208201111561075a57600080fd5b8035906020019184602083028401116401000000008311171561077c57600080fd5b91939092909160208101903564010000000081111561079a57600080fd5b8201836020820111156107ac57600080fd5b803590602001918460018302840111640100000000831117156107ce57600080fd5b509092509050611078565b3480156107e557600080fd5b50610300600480360360208110156107fc57600080fd5b50356001600160a01b0316611211565b34801561081857600080fd5b506101d7600480360361014081101561083057600080fd5b6001600160a01b038235811692602081013582169260408201359092169160608201359160808101359160a08201359160c08101359160e08201359190810190610120810161010082013564010000000081111561088d57600080fd5b82018360208201111561089f57600080fd5b803590602001918460208302840111640100000000831117156108c157600080fd5b9193909290916020810190356401000000008111156108df57600080fd5b8201836020820111156108f157600080fd5b8035906020019184600183028401116401000000008311171561091357600080fd5b50909250905061122f565b34801561092a57600080fd5b506101d76004803603602081101561094157600080fd5b5035611350565b34801561095457600080fd5b506101d76004803603602081101561096b57600080fd5b503515156113b4565b600b5490565b600c5490565b6000546001600160a01b031633146109c95760405162461bcd60e51b815260040180806020018281038252602181526020018061203f6021913960400191505060405180910390fd5b600d805491151562010000027fffffffffffffffffffffffffffffffffffffffffffffffffffffffffff00ffff909216919091179055565b600d5462010000900460ff16610a5e576040805162461bcd60e51b815260206004820152601860248201527f646169207061796d656e7473206e6f7420656e61626c65640000000000000000604482015290519081900360640190fd5b610aa18c8b8b8b8b8b8b8b8b8080602002602001604051908101604052809392919081815260200183836020028082843760009201919091525061143492505050565b6000610ad2670de0b6b3a7640000610ac689663328b944c4000063ffffffff6115f116565b9063ffffffff61166716565b9050610b288d8285858080601f01602080910402602001604051908101604052809392919081815260200183838082843760009201919091525050600a546009546001600160a01b03918216935016905061167a565b610b4d8d8d8c8c8c8c600960009054906101000a90046001600160a01b031688611937565b50505050505050505050505050565b600d5462010000900460ff1690565b600d54610100900460ff1690565b6000546001600160a01b03163314610bd8576040805162461bcd60e51b815260206004820152601060248201527f53656e646572206e6f742061646d696e00000000000000000000000000000000604482015290519081900360640190fd5b600554600280546001600160a01b03908116600090815260046020526040902042909301909255805473ffffffffffffffffffffffffffffffffffffffff191692909116919091179055565b600080610c2f611b36565b9050610c4c81610ac685663328b944c4000063ffffffff6115f116565b9392505050565b606060008060008060606000806000808a80602001905160a0811015610c7857600080fd5b810190808051640100000000811115610c9057600080fd5b82016020810184811115610ca357600080fd5b8151640100000000811182820187101715610cbd57600080fd5b5050602082015160408301516060840151608090940151929f50909d509b5090995097505050505050505091939590929450565b6000546001600160a01b031690565b6000546001600160a01b03163314610d495760405162461bcd60e51b8152600401808060200182810382526022815260200180611fef6022913960400191505060405180910390fd5b600d805460ff1916911515919091179055565b6000546001600160a01b03163314610da55760405162461bcd60e51b815260040180806020018281038252602e815260200180612011602e913960400191505060405180910390fd5b610daf8282611bb9565b5050565b6000546001600160a01b03163314610e12576040805162461bcd60e51b815260206004820152601b60248201527f6f6e6c792061646d696e2063616e206368616e67652061646d696e0000000000604482015290519081900360640190fd5b600054604080516001600160a01b039283168152918316602083015280517f7e644d79422f17c01e4894b5f4f588d331ebfa28653d42ae832dc59e38c9798f9281900390910190a16000805473ffffffffffffffffffffffffffffffffffffffff19166001600160a01b0392909216919091179055565b600d5460ff1690565b6001600160a01b038116610ed75760405162461bcd60e51b8152600401808060200182810382526027815260200180611f9e6027913960400191505060405180910390fd5b6000546001600160a01b03163314610f205760405162461bcd60e51b815260040180806020018281038252602a815260200180611fc5602a913960400191505060405180910390fd5b600a805473ffffffffffffffffffffffffffffffffffffffff19166001600160a01b0392909216919091179055565b6000600354821180610f725750836001600160a01b0316856001600160a01b0316145b80610f7c57508242115b15610f895750600061106f565b60408051606087811b6bffffffffffffffffffffffff199081166020808501919091529188901b166034830152604882018690526068808301869052835180840390910181526088830184528051908201207f19457468657265756d205369676e6564204d6573736167653a0a33320000000060a884015260c48084018290528451808503909101815260e4909301909352815191012060009061102d9089611c1d565b6001600160a01b038116600090815260046020526040902054909150421161105a5760019250505061106f565b6002546001600160a01b039081169116149150505b95945050505050565b600d54610100900460ff166110d4576040805162461bcd60e51b815260206004820152601a60248201527f6574686572207061796d656e7473206e6f7420656e61626c6564000000000000604482015290519081900360640190fd5b6111178c8b8b8b8b8b8b8b8b8080602002602001604051908101604052809392919081815260200183836020028082843760009201919091525061143492505050565b600061112287610c24565b905080341015611179576040805162461bcd60e51b815260206004820152601560248201527f6e6f7420656e6f7567682065746865722073656e740000000000000000000000604482015290519081900360640190fd5b34819003156111b35760405133903483900380156108fc02916000818181858888f193505050501580156111b1573d6000803e3d6000fd5b505b6112008184848080601f01602080910402602001604051908101604052809392919081815260200183838082843760009201919091525050600a546001600160a01b03169150611cea9050565b610b4d8d8d8c8c8c8c600088611937565b6001600160a01b031660009081526001602052604090205460ff1690565b600d5460ff16611286576040805162461bcd60e51b815260206004820152601960248201527f73616e64207061796d656e7473206e6f7420656e61626c656400000000000000604482015290519081900360640190fd5b6112c98c8b8b8b8b8b8b8b8b8080602002602001604051908101604052809392919081815260200183836020028082843760009201919091525061143492505050565b61131d8c8784848080601f01602080910402602001604051908101604052809392919081815260200183838082843760009201919091525050600a546007546001600160a01b03918216935016905061167a565b6113428c8c8b8b8b8b600760009054906101000a90046001600160a01b03168d611937565b505050505050505050505050565b6000546001600160a01b031633146113af576040805162461bcd60e51b815260206004820152601060248201527f53656e646572206e6f742061646d696e00000000000000000000000000000000604482015290519081900360640190fd5b600355565b6000546001600160a01b031633146113fd5760405162461bcd60e51b8152600401808060200182810382526021815260200180611f7d6021913960400191505060405180910390fd5b600d8054911515610100027fffffffffffffffffffffffffffffffffffffffffffffffffffffffffffff00ff909216919091179055565b600b54421061148a576040805162461bcd60e51b815260206004820152600c60248201527f73616c65206973206f7665720000000000000000000000000000000000000000604482015290519081900360640190fd5b6001600160a01b0388163314806114b057503360009081526001602052604090205460ff165b611501576040805162461bcd60e51b815260206004820152600e60248201527f6e6f7420617574686f72697a6564000000000000000000000000000000000000604482015290519081900360640190fd5b6001600160a01b03871615806115285750876001600160a01b0316876001600160a01b0316145b611579576040805162461bcd60e51b815260206004820152601860248201527f63616e6e6f7420627579207265736572766564204c616e640000000000000000604482015290519081900360640190fd5b6000611589878787878c88611e16565b90506115958282611e74565b6115e6576040805162461bcd60e51b815260206004820152601560248201527f496e76616c6964206c616e642070726f76696465640000000000000000000000604482015290519081900360640190fd5b505050505050505050565b60008261160057506000611661565b508181028183828161160e57fe5b0414611661576040805162461bcd60e51b815260206004820152600860248201527f6f766572666c6f77000000000000000000000000000000000000000000000000604482015290519081900360640190fd5b92915050565b600081838161167257fe5b049392505050565b8251819085901561183d5760606000806000806116968a610c53565b93985091965094509250905060006116b18686868686610f4f565b1561173f576116cb6116c38d846115f1565b612710611667565b9050886001600160a01b0316846001600160a01b0316866001600160a01b03167fac7a699eb95c3c6d390ec4626de17ef9a67b35891efdb197beba7c7fdd45fac48f858760405180848152602001838152602001828152602001935050505060405180910390a461173c8782611f1f565b96505b801561183657604080517f23b872dd0000000000000000000000000000000000000000000000000000000081526001600160a01b038f811660048301528781166024830152604482018490529151918a16916323b872dd916064808201926020929091908290030181600087803b1580156117b957600080fd5b505af11580156117cd573d6000803e3d6000fd5b505050506040513d60208110156117e357600080fd5b5051611836576040805162461bcd60e51b815260206004820152601960248201527f636f6d6d6973696f6e207472616e73666572206661696c656400000000000000604482015290519081900360640190fd5b5050505050505b604080517f23b872dd0000000000000000000000000000000000000000000000000000000081526001600160a01b0389811660048301528681166024830152604482018490529151918416916323b872dd916064808201926020929091908290030181600087803b1580156118b157600080fd5b505af11580156118c5573d6000803e3d6000fd5b505050506040513d60208110156118db57600080fd5b505161192e576040805162461bcd60e51b815260206004820152601760248201527f7061796d656e74207472616e73666572206661696c6564000000000000000000604482015290519081900360640190fd5b50505050505050565b60408051600080825260208201909252606091509050600660009054906101000a90046001600160a01b03166001600160a01b0316636e1e3bbf89878a8a8d8760405160200180836001600160a01b03166001600160a01b0316815260200180602001828103825283818151815260200191508051906020019060200280838360005b838110156119d25781810151838201526020016119ba565b5050505090500193505050506040516020818303038152906040526040518663ffffffff1660e01b815260040180866001600160a01b03166001600160a01b0316815260200185815260200184815260200183815260200180602001828103825283818151815260200191508051906020019080838360005b83811015611a63578181015183820152602001611a4b565b50505050905090810190601f168015611a905780820380516001836020036101000a031916815260200191505b509650505050505050600060405180830381600087803b158015611ab357600080fd5b505af1158015611ac7573d6000803e3d6000fd5b505060408051888152602081018890526001600160a01b03878116828401526060820187905291516101988b028c019450828d169350918d16917fe4dfa6ac11314892f3029b34a25b1a887da3b1cab2bbf8506d87128ba6e3ac029181900360800190a4505050505050505050565b600080600860009054906101000a90046001600160a01b03166001600160a01b03166357de26a46040518163ffffffff1660e01b815260040160206040518083038186803b158015611b8757600080fd5b505afa158015611b9b573d6000803e3d6000fd5b505050506040513d6020811015611bb157600080fd5b505191505090565b6001600160a01b038216600081815260016020908152604091829020805460ff191685151590811790915582519384529083015280517fb21eb88b4e33b3f1281830a7178d74d8aa73220416215726b68ae23d539515cb9281900390910190a15050565b60008151604114611c2d57600080fd5b60208201516040830151606084015160001a601b811015611c4c57601b015b8060ff16601b1480611c6157508060ff16601c145b611c6a57600080fd5b6040805160008152602080820180845289905260ff8416828401526060820186905260808201859052915160019260a0808401939192601f1981019281900390910190855afa158015611cc1573d6000803e3d6000fd5b5050604051601f1901519450506001600160a01b038416611ce157600080fd5b50505092915050565b8151839015611dd9576060600080600080611d0488610c53565b9398509196509450925090506000611d1f8686868686610f4f565b15611d9457611d316116c38b846115f1565b604080518c81526020810183905280820185905290519192506000916001600160a01b0387811692908916917fac7a699eb95c3c6d390ec4626de17ef9a67b35891efdb197beba7c7fdd45fac49181900360600190a4611d918782611f1f565b96505b8015611dd2576040516001600160a01b0386169082156108fc029083906000818181858888f19350505050158015611dd0573d6000803e3d6000fd5b505b5050505050505b6040516001600160a01b0383169082156108fc029083906000818181858888f19350505050158015611e0f573d6000803e3d6000fd5b5050505050565b60408051602080820198909852808201969096526060808701959095526080860193909352921b6bffffffffffffffffffffffff191660a084015260b4808401929092528051808403909201825260d4909201909152805191012090565b600081815b8451811015611f13576000858281518110611e9057fe5b6020026020010151905080831015611ed85782816040516020018083815260200182815260200192505050604051602081830303815290604052805190602001209250611f0a565b808360405160200180838152602001828152602001925050506040516020818303038152906040528051906020012092505b50600101611e79565b50600c54149392505050565b600082821115611f76576040805162461bcd60e51b815260206004820152600860248201527f756e6465666c6f77000000000000000000000000000000000000000000000000604482015290519081900360640190fd5b5090039056fe6f6e6c792061646d696e2063616e20656e61626c652f64697361626c6520455448726563656976696e672077616c6c65742063616e6e6f74206265207a65726f20616464726573736f6e6c792061646d696e2063616e206368616e67652074686520726563656976696e672077616c6c65746f6e6c792061646d696e2063616e20656e61626c652f64697361626c652053414e446f6e6c792061646d696e2063616e207365747570206d6574615472616e73616374696f6e50726f636573736f72736f6e6c792061646d696e2063616e20656e61626c652f64697361626c6520444149a265627a7a723058209987ebdf08909dce1f2ea5d2b1691f50310c456133e0dbe2241f28115fb7633964736f6c63430005090032"
}