{
  "address": "0xa6847CdD4cee15126e432f5E80E09AF9f67d2428",
  "abi": [
    {
      "anonymous": false,
      "inputs": [
        {
          "indexed": true,
          "internalType": "address",
          "name": "owner",
          "type": "address"
        },
        {
          "indexed": true,
          "internalType": "address",
          "name": "approved",
          "type": "address"
        },
        {
          "indexed": true,
          "internalType": "uint256",
          "name": "tokenId",
          "type": "uint256"
        }
      ],
      "name": "Approval",
      "type": "event"
    },
    {
      "anonymous": false,
      "inputs": [
        {
          "indexed": true,
          "internalType": "address",
          "name": "owner",
          "type": "address"
        },
        {
          "indexed": true,
          "internalType": "address",
          "name": "operator",
          "type": "address"
        },
        {
          "indexed": false,
          "internalType": "bool",
          "name": "approved",
          "type": "bool"
        }
      ],
      "name": "ApprovalForAll",
      "type": "event"
    },
    {
      "anonymous": false,
      "inputs": [
        {
          "indexed": true,
          "internalType": "address",
          "name": "previousOwner",
          "type": "address"
        },
        {
          "indexed": true,
          "internalType": "address",
          "name": "newOwner",
          "type": "address"
        }
      ],
      "name": "OwnershipTransferred",
      "type": "event"
    },
    {
      "anonymous": false,
      "inputs": [
        {
          "indexed": false,
          "internalType": "uint256",
          "name": "_tokenId",
          "type": "uint256"
        },
        {
          "indexed": false,
          "internalType": "uint256",
          "name": "_personalizationMask",
          "type": "uint256"
        }
      ],
      "name": "Personalized",
      "type": "event"
    },
    {
      "anonymous": false,
      "inputs": [
        {
          "indexed": false,
          "internalType": "bool",
          "name": "_pause",
          "type": "bool"
        }
      ],
      "name": "TogglePaused",
      "type": "event"
    },
    {
      "anonymous": false,
      "inputs": [
        {
          "indexed": true,
          "internalType": "address",
          "name": "from",
          "type": "address"
        },
        {
          "indexed": true,
          "internalType": "address",
          "name": "to",
          "type": "address"
        },
        {
          "indexed": true,
          "internalType": "uint256",
          "name": "tokenId",
          "type": "uint256"
        }
      ],
      "name": "Transfer",
      "type": "event"
    },
    {
      "inputs": [],
      "name": "MAX_SUPPLY",
      "outputs": [
        {
          "internalType": "uint256",
          "name": "",
          "type": "uint256"
        }
      ],
      "stateMutability": "view",
      "type": "function"
    },
    {
      "inputs": [],
      "name": "allowedToExecuteMint",
      "outputs": [
        {
          "internalType": "address",
          "name": "",
          "type": "address"
        }
      ],
      "stateMutability": "view",
      "type": "function"
    },
    {
      "inputs": [
        {
          "internalType": "address",
          "name": "to",
          "type": "address"
        },
        {
          "internalType": "uint256",
          "name": "tokenId",
          "type": "uint256"
        }
      ],
      "name": "approve",
      "outputs": [],
      "stateMutability": "nonpayable",
      "type": "function"
    },
    {
      "inputs": [
        {
          "internalType": "address",
          "name": "owner",
          "type": "address"
        }
      ],
      "name": "balanceOf",
      "outputs": [
        {
          "internalType": "uint256",
          "name": "",
          "type": "uint256"
        }
      ],
      "stateMutability": "view",
      "type": "function"
    },
    {
      "inputs": [],
      "name": "baseTokenURI",
      "outputs": [
        {
          "internalType": "string",
          "name": "",
          "type": "string"
        }
      ],
      "stateMutability": "view",
      "type": "function"
    },
    {
      "inputs": [],
      "name": "chain",
      "outputs": [
        {
          "internalType": "uint256",
          "name": "",
          "type": "uint256"
        }
      ],
      "stateMutability": "view",
      "type": "function"
    },
    {
      "inputs": [
        {
          "internalType": "address",
          "name": "_wallet",
          "type": "address"
        },
        {
          "internalType": "uint256",
          "name": "_amount",
          "type": "uint256"
        }
      ],
      "name": "checkMintAllowed",
      "outputs": [
        {
          "internalType": "bool",
          "name": "",
          "type": "bool"
        }
      ],
      "stateMutability": "view",
      "type": "function"
    },
    {
      "inputs": [
        {
          "internalType": "address",
          "name": "_wallet",
          "type": "address"
        },
        {
          "internalType": "uint256",
          "name": "_signatureId",
          "type": "uint256"
        },
        {
          "internalType": "address",
          "name": "_contractAddress",
          "type": "address"
        },
        {
          "internalType": "uint256",
          "name": "_chainId",
          "type": "uint256"
        },
        {
          "internalType": "uint256",
          "name": "_tokenId",
          "type": "uint256"
        },
        {
          "internalType": "uint256",
          "name": "_personalizationMask",
          "type": "uint256"
        },
        {
          "internalType": "bytes",
          "name": "_signature",
          "type": "bytes"
        }
      ],
      "name": "checkPersonalizationSignature",
      "outputs": [
        {
          "internalType": "address",
          "name": "",
          "type": "address"
        }
      ],
      "stateMutability": "pure",
      "type": "function"
    },
    {
      "inputs": [
        {
          "internalType": "address",
          "name": "_wallet",
          "type": "address"
        },
        {
          "internalType": "uint256",
          "name": "_signatureId",
          "type": "uint256"
        },
        {
          "internalType": "address",
          "name": "_contractAddress",
          "type": "address"
        },
        {
          "internalType": "uint256",
          "name": "_chainId",
          "type": "uint256"
        },
        {
          "internalType": "bytes",
          "name": "_signature",
          "type": "bytes"
        }
      ],
      "name": "checkSignature",
      "outputs": [
        {
          "internalType": "address",
          "name": "",
          "type": "address"
        }
      ],
      "stateMutability": "pure",
      "type": "function"
    },
    {
      "inputs": [],
      "name": "contractAddress",
      "outputs": [
        {
          "internalType": "address",
          "name": "",
          "type": "address"
        }
      ],
      "stateMutability": "view",
      "type": "function"
    },
    {
      "inputs": [],
      "name": "erc1155Id",
      "outputs": [
        {
          "internalType": "uint256",
          "name": "",
          "type": "uint256"
        }
      ],
      "stateMutability": "view",
      "type": "function"
    },
    {
      "inputs": [
        {
          "internalType": "uint256",
          "name": "tokenId",
          "type": "uint256"
        }
      ],
      "name": "getApproved",
      "outputs": [
        {
          "internalType": "address",
          "name": "",
          "type": "address"
        }
      ],
      "stateMutability": "view",
      "type": "function"
    },
    {
      "inputs": [],
      "name": "indexWave",
      "outputs": [
        {
          "internalType": "uint256",
          "name": "",
          "type": "uint256"
        }
      ],
      "stateMutability": "view",
      "type": "function"
    },
    {
      "inputs": [
        {
          "internalType": "string",
          "name": "baseURI",
          "type": "string"
        },
        {
          "internalType": "string",
          "name": "_name",
          "type": "string"
        },
        {
          "internalType": "string",
          "name": "_symbol",
          "type": "string"
        },
        {
          "internalType": "address payable",
          "name": "_sandOwner",
          "type": "address"
        },
        {
          "internalType": "address",
          "name": "_signAddress",
          "type": "address"
        }
      ],
      "name": "initialize",
      "outputs": [],
      "stateMutability": "nonpayable",
      "type": "function"
    },
    {
      "inputs": [
        {
          "internalType": "address",
          "name": "owner",
          "type": "address"
        },
        {
          "internalType": "address",
          "name": "operator",
          "type": "address"
        }
      ],
      "name": "isApprovedForAll",
      "outputs": [
        {
          "internalType": "bool",
          "name": "",
          "type": "bool"
        }
      ],
      "stateMutability": "view",
      "type": "function"
    },
    {
      "inputs": [],
      "name": "maxSupply",
      "outputs": [
        {
          "internalType": "uint256",
          "name": "",
          "type": "uint256"
        }
      ],
      "stateMutability": "view",
      "type": "function"
    },
    {
      "inputs": [
        {
          "internalType": "address",
          "name": "_wallet",
          "type": "address"
        },
        {
          "internalType": "uint256",
          "name": "_amount",
          "type": "uint256"
        },
        {
          "internalType": "uint256",
          "name": "_signatureId",
          "type": "uint256"
        },
        {
          "internalType": "bytes",
          "name": "_signature",
          "type": "bytes"
        }
      ],
      "name": "mint",
      "outputs": [],
      "stateMutability": "nonpayable",
      "type": "function"
    },
    {
      "inputs": [],
      "name": "name",
      "outputs": [
        {
          "internalType": "string",
          "name": "",
          "type": "string"
        }
      ],
      "stateMutability": "view",
      "type": "function"
    },
    {
      "inputs": [],
      "name": "owner",
      "outputs": [
        {
          "internalType": "address",
          "name": "",
          "type": "address"
        }
      ],
      "stateMutability": "view",
      "type": "function"
    },
    {
      "inputs": [
        {
          "internalType": "uint256",
          "name": "tokenId",
          "type": "uint256"
        }
      ],
      "name": "ownerOf",
      "outputs": [
        {
          "internalType": "address",
          "name": "",
          "type": "address"
        }
      ],
      "stateMutability": "view",
      "type": "function"
    },
    {
      "inputs": [],
      "name": "paused",
      "outputs": [
        {
          "internalType": "uint256",
          "name": "",
          "type": "uint256"
        }
      ],
      "stateMutability": "view",
      "type": "function"
    },
    {
      "inputs": [
        {
          "internalType": "uint256",
          "name": "_tokenId",
          "type": "uint256"
        }
      ],
      "name": "personalizationOf",
      "outputs": [
        {
          "internalType": "uint256",
          "name": "",
          "type": "uint256"
        }
      ],
      "stateMutability": "view",
      "type": "function"
    },
    {
      "inputs": [
        {
          "internalType": "uint256",
          "name": "",
          "type": "uint256"
        }
      ],
      "name": "personalizationTraits",
      "outputs": [
        {
          "internalType": "uint256",
          "name": "",
          "type": "uint256"
        }
      ],
      "stateMutability": "view",
      "type": "function"
    },
    {
      "inputs": [
        {
          "internalType": "uint256",
          "name": "_signatureId",
          "type": "uint256"
        },
        {
          "internalType": "bytes",
          "name": "_signature",
          "type": "bytes"
        },
        {
          "internalType": "uint256",
          "name": "_tokenId",
          "type": "uint256"
        },
        {
          "internalType": "uint256",
          "name": "_personalizationMask",
          "type": "uint256"
        }
      ],
      "name": "personalize",
      "outputs": [],
      "stateMutability": "nonpayable",
      "type": "function"
    },
    {
      "inputs": [
        {
          "internalType": "uint256",
          "name": "_count",
          "type": "uint256"
        }
      ],
      "name": "price",
      "outputs": [
        {
          "internalType": "uint256",
          "name": "",
          "type": "uint256"
        }
      ],
      "stateMutability": "view",
      "type": "function"
    },
    {
      "inputs": [],
      "name": "renounceOwnership",
      "outputs": [],
      "stateMutability": "nonpayable",
      "type": "function"
    },
    {
      "inputs": [
        {
          "internalType": "address",
          "name": "from",
          "type": "address"
        },
        {
          "internalType": "address",
          "name": "to",
          "type": "address"
        },
        {
          "internalType": "uint256",
          "name": "tokenId",
          "type": "uint256"
        }
      ],
      "name": "safeTransferFrom",
      "outputs": [],
      "stateMutability": "nonpayable",
      "type": "function"
    },
    {
      "inputs": [
        {
          "internalType": "address",
          "name": "from",
          "type": "address"
        },
        {
          "internalType": "address",
          "name": "to",
          "type": "address"
        },
        {
          "internalType": "uint256",
          "name": "tokenId",
          "type": "uint256"
        },
        {
          "internalType": "bytes",
          "name": "_data",
          "type": "bytes"
        }
      ],
      "name": "safeTransferFrom",
      "outputs": [],
      "stateMutability": "nonpayable",
      "type": "function"
    },
    {
      "inputs": [],
      "name": "sandOwner",
      "outputs": [
        {
          "internalType": "address",
          "name": "",
          "type": "address"
        }
      ],
      "stateMutability": "view",
      "type": "function"
    },
    {
      "inputs": [
        {
          "internalType": "address",
          "name": "_address",
          "type": "address"
        }
      ],
      "name": "setAllowedExecuteMint",
      "outputs": [],
      "stateMutability": "nonpayable",
      "type": "function"
    },
    {
      "inputs": [
        {
          "internalType": "address",
          "name": "operator",
          "type": "address"
        },
        {
          "internalType": "bool",
          "name": "approved",
          "type": "bool"
        }
      ],
      "name": "setApprovalForAll",
      "outputs": [],
      "stateMutability": "nonpayable",
      "type": "function"
    },
    {
      "inputs": [
        {
          "internalType": "string",
          "name": "baseURI",
          "type": "string"
        }
      ],
      "name": "setBaseURI",
      "outputs": [],
      "stateMutability": "nonpayable",
      "type": "function"
    },
    {
      "inputs": [
        {
          "internalType": "address",
          "name": "_owner",
          "type": "address"
        }
      ],
      "name": "setSandOwnerAddress",
      "outputs": [],
      "stateMutability": "nonpayable",
      "type": "function"
    },
    {
      "inputs": [
        {
          "internalType": "address",
          "name": "_signAddress",
          "type": "address"
        }
      ],
      "name": "setSignAddress",
      "outputs": [],
      "stateMutability": "nonpayable",
      "type": "function"
    },
    {
      "inputs": [
        {
          "internalType": "uint256",
          "name": "_waveType",
          "type": "uint256"
        },
        {
          "internalType": "uint256",
          "name": "_waveMaxTokens",
          "type": "uint256"
        },
        {
          "internalType": "uint256",
          "name": "_waveMaxTokensToBuy",
          "type": "uint256"
        },
        {
          "internalType": "uint256",
          "name": "_waveSingleTokenPrice",
          "type": "uint256"
        },
        {
          "internalType": "address",
          "name": "_contractAddress",
          "type": "address"
        },
        {
          "internalType": "uint256",
          "name": "_erc1155Id",
          "type": "uint256"
        }
      ],
      "name": "setupWave",
      "outputs": [],
      "stateMutability": "nonpayable",
      "type": "function"
    },
    {
      "inputs": [],
      "name": "signAddress",
      "outputs": [
        {
          "internalType": "address",
          "name": "",
          "type": "address"
        }
      ],
      "stateMutability": "view",
      "type": "function"
    },
    {
      "inputs": [
        {
          "internalType": "bytes4",
          "name": "interfaceId",
          "type": "bytes4"
        }
      ],
      "name": "supportsInterface",
      "outputs": [
        {
          "internalType": "bool",
          "name": "",
          "type": "bool"
        }
      ],
      "stateMutability": "view",
      "type": "function"
    },
    {
      "inputs": [],
      "name": "symbol",
      "outputs": [
        {
          "internalType": "string",
          "name": "",
          "type": "string"
        }
      ],
      "stateMutability": "view",
      "type": "function"
    },
    {
      "inputs": [],
      "name": "toggleSale",
      "outputs": [],
      "stateMutability": "nonpayable",
      "type": "function"
    },
    {
      "inputs": [
        {
          "internalType": "uint256",
          "name": "index",
          "type": "uint256"
        }
      ],
      "name": "tokenByIndex",
      "outputs": [
        {
          "internalType": "uint256",
          "name": "",
          "type": "uint256"
        }
      ],
      "stateMutability": "view",
      "type": "function"
    },
    {
      "inputs": [
        {
          "internalType": "address",
          "name": "owner",
          "type": "address"
        },
        {
          "internalType": "uint256",
          "name": "index",
          "type": "uint256"
        }
      ],
      "name": "tokenOfOwnerByIndex",
      "outputs": [
        {
          "internalType": "uint256",
          "name": "",
          "type": "uint256"
        }
      ],
      "stateMutability": "view",
      "type": "function"
    },
    {
      "inputs": [
        {
          "internalType": "uint256",
          "name": "tokenId",
          "type": "uint256"
        }
      ],
      "name": "tokenURI",
      "outputs": [
        {
          "internalType": "string",
          "name": "",
          "type": "string"
        }
      ],
      "stateMutability": "view",
      "type": "function"
    },
    {
      "inputs": [],
      "name": "totalSupply",
      "outputs": [
        {
          "internalType": "uint256",
          "name": "",
          "type": "uint256"
        }
      ],
      "stateMutability": "view",
      "type": "function"
    },
    {
      "inputs": [
        {
          "internalType": "address",
          "name": "from",
          "type": "address"
        },
        {
          "internalType": "address",
          "name": "to",
          "type": "address"
        },
        {
          "internalType": "uint256",
          "name": "tokenId",
          "type": "uint256"
        }
      ],
      "name": "transferFrom",
      "outputs": [],
      "stateMutability": "nonpayable",
      "type": "function"
    },
    {
      "inputs": [
        {
          "internalType": "address",
          "name": "newOwner",
          "type": "address"
        }
      ],
      "name": "transferOwnership",
      "outputs": [],
      "stateMutability": "nonpayable",
      "type": "function"
    },
    {
      "inputs": [],
      "name": "waveMaxTokens",
      "outputs": [
        {
          "internalType": "uint256",
          "name": "",
          "type": "uint256"
        }
      ],
      "stateMutability": "view",
      "type": "function"
    },
    {
      "inputs": [],
      "name": "waveMaxTokensToBuy",
      "outputs": [
        {
          "internalType": "uint256",
          "name": "",
          "type": "uint256"
        }
      ],
      "stateMutability": "view",
      "type": "function"
    },
    {
      "inputs": [
        {
          "internalType": "address",
          "name": "",
          "type": "address"
        },
        {
          "internalType": "uint256",
          "name": "",
          "type": "uint256"
        }
      ],
      "name": "waveOwnerToClaimedCounts",
      "outputs": [
        {
          "internalType": "uint256",
          "name": "",
          "type": "uint256"
        }
      ],
      "stateMutability": "view",
      "type": "function"
    },
    {
      "inputs": [],
      "name": "waveSingleTokenPrice",
      "outputs": [
        {
          "internalType": "uint256",
          "name": "",
          "type": "uint256"
        }
      ],
      "stateMutability": "view",
      "type": "function"
    },
    {
      "inputs": [],
      "name": "waveTotalMinted",
      "outputs": [
        {
          "internalType": "uint256",
          "name": "",
          "type": "uint256"
        }
      ],
      "stateMutability": "view",
      "type": "function"
    },
    {
      "inputs": [],
      "name": "waveType",
      "outputs": [
        {
          "internalType": "uint256",
          "name": "",
          "type": "uint256"
        }
      ],
      "stateMutability": "view",
      "type": "function"
    }
  ],
  "transactionHash": "0x9c0fdb276f1517ad8c83192a774fe839e497b5c30835e35f4215702ce11bcd3a",
  "args": [],
  "numDeployments": 1,
  "solcInputHash": "f576c1c14bfd4e4b81fc2a49b6bc34e4",
  "bytecode": "0x6080604052600060fd5534801561001557600080fd5b50600160fb5561404d8061002a6000396000f3fe608060405234801561001057600080fd5b50600436106103415760003560e01c8063677ec90f116101bd578063b88d4fde116100f9578063d5abeb01116100a2578063e89bcd091161007c578063e89bcd0914610694578063e985e9c5146106a8578063f2fde38b146106e4578063f6b4dfb4146106f757610341565b8063d5abeb011461066f578063d6d0faee14610678578063df9740da1461068b57610341565b8063ca460138116100d3578063ca4601381461064b578063d547cfb71461065e578063d5878eaa1461066657610341565b8063b88d4fde1461061f578063c763e5a114610632578063c87b56dd1461063857610341565b806382bc78771161016657806397944ba21161014057806397944ba2146105c4578063a22cb465146105e5578063a8b75a6e146105f8578063ac3149e31461060b57610341565b806382bc7877146105985780638da5cb5b146105ab57806395d89b41146105bc57610341565b8063715018a611610197578063715018a614610575578063731133e91461057d5780637d8966e41461059057610341565b8063677ec90f1461051557806368d4a7781461053657806370a082311461056257610341565b806326a49e371161028c57806342842e0e1161023557806355f804b31161020f57806355f804b3146104d25780635c975abb146104e55780636352211e146104ef578063671b2a311461050257610341565b806342842e0e146104a2578063433ad106146104b55780634f6ccce7146104bf57610341565b806332cb6b0c1161026657806332cb6b0c1461048557806334b35ac01461048e5780633e84aa5e1461049857610341565b806326a49e371461044c578063283ca77c1461045f5780632f745c591461047257610341565b8063081812fc116102ee57806318160ddd116102c857806318160ddd1461041e57806323b872dd1461042657806324a6f0851461043957610341565b8063081812fc146103e3578063095ea7b3146103f6578063151370451461040b57610341565b8063057831261161031f57806305783126146103b05780630682bdbc146103ba57806306fdde03146103ce57610341565b806301dbf7e01461034657806301ffc9a714610362578063044def3814610385575b600080fd5b61034f60fd5481565b6040519081526020015b60405180910390f35b610375610370366004613be0565b61070b565b6040519015158152602001610359565b610398610393366004613af4565b610769565b6040516001600160a01b039091168152602001610359565b61034f6101025481565b61010c54610398906001600160a01b031681565b6103d661081c565b6040516103599190613e79565b6103986103f1366004613cf7565b6108ae565b610409610404366004613a55565b610959565b005b61040961041936600461392a565b610a8b565b60995461034f565b61040961043436600461397e565b610b15565b61040961044736600461392a565b610b9c565b61034f61045a366004613cf7565b610c26565b61037561046d366004613a55565b610c37565b61034f610480366004613a55565b610c5a565b61034f610d0581565b61034f6101065481565b61034f6101015481565b6104096104b036600461397e565b610d02565b61034f6101005481565b61034f6104cd366004613cf7565b610d1d565b6104096104e0366004613c18565b610dcf565b61034f6101075481565b6103986104fd366004613cf7565b610e41565b610409610510366004613d27565b610ecc565b61034f610523366004613cf7565b6101056020526000908152604090205481565b61034f610544366004613a55565b61010460209081526000928352604080842090915290825290205481565b61034f61057036600461392a565b611082565b61040961111c565b61040961058b366004613b7b565b611182565b610409611748565b6104096105a636600461392a565b6117f7565b60c9546001600160a01b0316610398565b6103d6611881565b61034f6105d2366004613cf7565b6000908152610105602052604090205490565b6104096105f3366004613a28565b611890565b610398610606366004613a80565b61189b565b61010a54610398906001600160a01b031681565b61040961062d3660046139be565b6118dd565b4661034f565b6103d6610646366004613cf7565b61196b565b610409610659366004613d7c565b611a53565b6103d6611c4c565b61034f60fe5481565b61034f60fc5481565b610409610686366004613c4b565b611cdb565b61034f60ff5481565b61010b54610398906001600160a01b031681565b6103756106b6366004613946565b6001600160a01b039182166000908152606a6020908152604080832093909416825291909152205460ff1690565b6104096106f236600461392a565b611dc1565b61010354610398906001600160a01b031681565b60007fffffffff0000000000000000000000000000000000000000000000000000000082167f780e9d63000000000000000000000000000000000000000000000000000000001480610761575061076182611ea3565b90505b919050565b604080516001600160a01b03808a16602083015291810188905290861660608201526080810185905260a0810184905260c081018390526000906108109060e0015b60408051601f198184030181529082905280516020918201207f19457468657265756d205369676e6564204d6573736167653a0a33320000000091830191909152603c820152605c016040516020818303038152906040528051906020012083611f86565b98975050505050505050565b60606065805461082b90613f1a565b80601f016020809104026020016040519081016040528092919081815260200182805461085790613f1a565b80156108a45780601f10610879576101008083540402835291602001916108a4565b820191906000526020600020905b81548152906001019060200180831161088757829003601f168201915b5050505050905090565b6000818152606760205260408120546001600160a01b031661093d5760405162461bcd60e51b815260206004820152602c60248201527f4552433732313a20617070726f76656420717565727920666f72206e6f6e657860448201527f697374656e7420746f6b656e000000000000000000000000000000000000000060648201526084015b60405180910390fd5b506000908152606960205260409020546001600160a01b031690565b600061096482610e41565b9050806001600160a01b0316836001600160a01b031614156109ee5760405162461bcd60e51b815260206004820152602160248201527f4552433732313a20617070726f76616c20746f2063757272656e74206f776e6560448201527f72000000000000000000000000000000000000000000000000000000000000006064820152608401610934565b336001600160a01b0382161480610a0a5750610a0a81336106b6565b610a7c5760405162461bcd60e51b815260206004820152603860248201527f4552433732313a20617070726f76652063616c6c6572206973206e6f74206f7760448201527f6e6572206e6f7220617070726f76656420666f7220616c6c00000000000000006064820152608401610934565b610a868383611faa565b505050565b60c9546001600160a01b03163314610ae55760405162461bcd60e51b815260206004820181905260248201527f4f776e61626c653a2063616c6c6572206973206e6f7420746865206f776e65726044820152606401610934565b61010c805473ffffffffffffffffffffffffffffffffffffffff19166001600160a01b0392909216919091179055565b610b1f3382612025565b610b915760405162461bcd60e51b815260206004820152603160248201527f4552433732313a207472616e736665722063616c6c6572206973206e6f74206f60448201527f776e6572206e6f7220617070726f7665640000000000000000000000000000006064820152608401610934565b610a8683838361212d565b60c9546001600160a01b03163314610bf65760405162461bcd60e51b815260206004820181905260248201527f4f776e61626c653a2063616c6c6572206973206e6f7420746865206f776e65726044820152606401610934565b61010b805473ffffffffffffffffffffffffffffffffffffffff19166001600160a01b0392909216919091179055565b600081610100546107619190613eb8565b6000610c4282612312565b8015610c535750610c538383612338565b9392505050565b6000610c6583611082565b8210610cd95760405162461bcd60e51b815260206004820152602b60248201527f455243373231456e756d657261626c653a206f776e657220696e646578206f7560448201527f74206f6620626f756e64730000000000000000000000000000000000000000006064820152608401610934565b506001600160a01b03919091166000908152609760209081526040808320938352929052205490565b610a86838383604051806020016040528060008152506118dd565b6000610d2860995490565b8210610d9c5760405162461bcd60e51b815260206004820152602c60248201527f455243373231456e756d657261626c653a20676c6f62616c20696e646578206f60448201527f7574206f6620626f756e647300000000000000000000000000000000000000006064820152608401610934565b60998281548110610dbd57634e487b7160e01b600052603260045260246000fd5b90600052602060002001549050919050565b60c9546001600160a01b03163314610e295760405162461bcd60e51b815260206004820181905260248201527f4f776e61626c653a2063616c6c6572206973206e6f7420746865206f776e65726044820152606401610934565b8051610e3d9061010d90602084019061380a565b5050565b6000818152606760205260408120546001600160a01b0316806107615760405162461bcd60e51b815260206004820152602960248201527f4552433732313a206f776e657220717565727920666f72206e6f6e657869737460448201527f656e7420746f6b656e00000000000000000000000000000000000000000000006064820152608401610934565b33610ed683610e41565b6001600160a01b031614610f525760405162461bcd60e51b815260206004820152603d60248201527f596f75206d75737420626520746865206f776e6572206f662074686520746f6b60448201527f656e20696e206f7264657220746f20706572736f6e616c697a652069740000006064820152608401610934565b6000848152610108602052604090205415610faf5760405162461bcd60e51b815260206004820152601860248201527f5369676e6174757265496420616c7265616479207573656400000000000000006044820152606401610934565b61010c546001600160a01b0316610fcb3386304687878a610769565b6001600160a01b0316146110215760405162461bcd60e51b815260206004820152601060248201527f5369676e6174757265206661696c6564000000000000000000000000000000006044820152606401610934565b6000848152610108602090815260408083206001905584835261010582529182902083905581518481529081018390527f37c5b85bb9cbe019726db5bf44dfd0053ed3e09554d9f97a9778b5b8dd65f620910160405180910390a150505050565b60006001600160a01b0382166111005760405162461bcd60e51b815260206004820152602a60248201527f4552433732313a2062616c616e636520717565727920666f7220746865207a6560448201527f726f2061646472657373000000000000000000000000000000000000000000006064820152608401610934565b506001600160a01b031660009081526068602052604090205490565b60c9546001600160a01b031633146111765760405162461bcd60e51b815260206004820181905260248201527f4f776e61626c653a2063616c6c6572206973206e6f7420746865206f776e65726044820152606401610934565b61118060006123b8565b565b600260fb5414156111d55760405162461bcd60e51b815260206004820152601f60248201527f5265656e7472616e637947756172643a207265656e7472616e742063616c6c006044820152606401610934565b600260fb556101065461122a5760405162461bcd60e51b815260206004820152601a60248201527f436f6e7472616374206973206e6f7420636f6e666967757265640000000000006044820152606401610934565b61010a546001600160a01b0316336001600160a01b03161461128e5760405162461bcd60e51b815260206004820152600b60248201527f4e6f7420616c6c6f7765640000000000000000000000000000000000000000006044820152606401610934565b61010754156112df5760405162461bcd60e51b815260206004820152601260248201527f436f6e74726163742069732070617573656400000000000000000000000000006044820152606401610934565b600082815261010860205260409020541561133c5760405162461bcd60e51b815260206004820152601860248201527f7369676e6174757265496420616c7265616479207573656400000000000000006044820152606401610934565b61010c546001600160a01b0316611356858430468661189b565b6001600160a01b0316146113ac5760405162461bcd60e51b815260206004820152601060248201527f5369676e6174757265206661696c6564000000000000000000000000000000006044820152606401610934565b600082815261010860205260409020600190556113c883612312565b6114145760405162461bcd60e51b815260206004820152600e60248201527f5761766520636f6d706c657465640000000000000000000000000000000000006044820152606401610934565b61141e8484612338565b61146a5760405162461bcd60e51b815260206004820152600b60248201527f4d617820616c6c6f7765640000000000000000000000000000000000000000006044820152606401610934565b60fd546001141561155f57610103546040517f70a082310000000000000000000000000000000000000000000000000000000081526001600160a01b03868116600483015260009216906370a082319060240160206040518083038186803b1580156114d557600080fd5b505afa1580156114e9573d6000803e3d6000fd5b505050506040513d601f19601f8201168201806040525081019061150d9190613d0f565b1161155a5760405162461bcd60e51b815260206004820152600660248201527f4e6f204e465400000000000000000000000000000000000000000000000000006044820152606401610934565b611668565b60fd54600214156116685761010354610102546040517efdd58e0000000000000000000000000000000000000000000000000000000081526000926001600160a01b03169162fdd58e916115cb9189916004016001600160a01b03929092168252602082015260400190565b60206040518083038186803b1580156115e357600080fd5b505afa1580156115f7573d6000803e3d6000fd5b505050506040513d601f19601f8201168201806040525081019061161b9190613d0f565b116116685760405162461bcd60e51b815260206004820152600660248201527f4e6f204e465400000000000000000000000000000000000000000000000000006044820152606401610934565b600061167384610c26565b90508015611694576116943361010b5487906001600160a01b031684612417565b6001600160a01b038516600090815261010460205260408120610106548692906116c090600190613ed7565b815260200190815260200160002060008282546116dd9190613e8c565b925050819055508361010160008282546116f79190613e8c565b90915550600090505b8481101561173b57600061171c8761171760995490565b61249f565b905061172887826125ce565b508061173381613f55565b915050611700565b5050600160fb5550505050565b60c9546001600160a01b031633146117a25760405162461bcd60e51b815260206004820181905260248201527f4f776e61626c653a2063616c6c6572206973206e6f7420746865206f776e65726044820152606401610934565b61010754156117b25760006117b5565b60015b60ff16610107819055604051600190911481527f723520dd5c4a47afb7ed5524b7b777a2300bdcf95cade0bf2afa9d582e66ee999060200160405180910390a1565b60c9546001600160a01b031633146118515760405162461bcd60e51b815260206004820181905260248201527f4f776e61626c653a2063616c6c6572206973206e6f7420746865206f776e65726044820152606401610934565b61010a805473ffffffffffffffffffffffffffffffffffffffff19166001600160a01b0392909216919091179055565b60606066805461082b90613f1a565b610e3d3383836125e8565b604080516001600160a01b0380881660208301529181018690529084166060820152608081018390526000906118d39060a0016107ab565b9695505050505050565b6118e73383612025565b6119595760405162461bcd60e51b815260206004820152603160248201527f4552433732313a207472616e736665722063616c6c6572206973206e6f74206f60448201527f776e6572206e6f7220617070726f7665640000000000000000000000000000006064820152608401610934565b611965848484846126b7565b50505050565b6000818152606760205260409020546060906001600160a01b03166119f85760405162461bcd60e51b815260206004820152602f60248201527f4552433732314d657461646174613a2055524920717565727920666f72206e6f60448201527f6e6578697374656e7420746f6b656e00000000000000000000000000000000006064820152608401610934565b6000611a02612740565b90506000815111611a225760405180602001604052806000815250610c53565b80611a2c84612750565b604051602001611a3d929190613e18565b6040516020818303038152906040529392505050565b60c9546001600160a01b03163314611aad5760405162461bcd60e51b815260206004820181905260248201527f4f776e61626c653a2063616c6c6572206973206e6f7420746865206f776e65726044820152606401610934565b600386108015611abd5750600085115b8015611ac95750600084115b611b155760405162461bcd60e51b815260206004820152601560248201527f496e76616c696420636f6e66696775726174696f6e00000000000000000000006044820152606401610934565b8515611b71576001600160a01b038216611b715760405162461bcd60e51b815260206004820152601860248201527f496e76616c696420636f6e7472616374206164647265737300000000000000006044820152606401610934565b84841115611bc15760405162461bcd60e51b815260206004820152601c60248201527f496e76616c696420737570706c7920636f6e66696775726174696f6e000000006044820152606401610934565b60fd86905560fe85905560ff8490556101008390556000610101558515611be85781611beb565b60005b610103805473ffffffffffffffffffffffffffffffffffffffff19166001600160a01b039290921691909117905560028614611c28576000611c2a565b805b610102556101068054906000611c3f83613f55565b9190505550505050505050565b61010d8054611c5a90613f1a565b80601f0160208091040260200160405190810160405280929190818152602001828054611c8690613f1a565b8015611cd35780601f10611ca857610100808354040283529160200191611cd3565b820191906000526020600020905b815481529060010190602001808311611cb657829003601f168201915b505050505081565b600054610100900460ff16611cf65760005460ff1615611cfa565b303b155b611d6c5760405162461bcd60e51b815260206004820152602e60248201527f496e697469616c697a61626c653a20636f6e747261637420697320616c72656160448201527f647920696e697469616c697a65640000000000000000000000000000000000006064820152608401610934565b600054610100900460ff16158015611d97576000805460ff1961ff0019909116610100171660011790555b611da78686868686610d0561289f565b8015611db9576000805461ff00191690555b505050505050565b60c9546001600160a01b03163314611e1b5760405162461bcd60e51b815260206004820181905260248201527f4f776e61626c653a2063616c6c6572206973206e6f7420746865206f776e65726044820152606401610934565b6001600160a01b038116611e975760405162461bcd60e51b815260206004820152602660248201527f4f776e61626c653a206e6577206f776e657220697320746865207a65726f206160448201527f64647265737300000000000000000000000000000000000000000000000000006064820152608401610934565b611ea0816123b8565b50565b60007fffffffff0000000000000000000000000000000000000000000000000000000082167f80ac58cd000000000000000000000000000000000000000000000000000000001480611f3657507fffffffff0000000000000000000000000000000000000000000000000000000082167f5b5e139f00000000000000000000000000000000000000000000000000000000145b8061076157507f01ffc9a7000000000000000000000000000000000000000000000000000000007fffffffff00000000000000000000000000000000000000000000000000000000831614610761565b6000806000611f9585856129c2565b91509150611fa281612a32565b509392505050565b6000818152606960205260409020805473ffffffffffffffffffffffffffffffffffffffff19166001600160a01b0384169081179091558190611fec82610e41565b6001600160a01b03167f8c5be1e5ebec7d5bd14f71427d1e84f3dd0314c0f7b2291e5b200ac8c7c3b92560405160405180910390a45050565b6000818152606760205260408120546001600160a01b03166120af5760405162461bcd60e51b815260206004820152602c60248201527f4552433732313a206f70657261746f7220717565727920666f72206e6f6e657860448201527f697374656e7420746f6b656e00000000000000000000000000000000000000006064820152608401610934565b60006120ba83610e41565b9050806001600160a01b0316846001600160a01b031614806120f55750836001600160a01b03166120ea846108ae565b6001600160a01b0316145b8061212557506001600160a01b038082166000908152606a602090815260408083209388168352929052205460ff165b949350505050565b826001600160a01b031661214082610e41565b6001600160a01b0316146121bc5760405162461bcd60e51b815260206004820152602960248201527f4552433732313a207472616e73666572206f6620746f6b656e2074686174206960448201527f73206e6f74206f776e00000000000000000000000000000000000000000000006064820152608401610934565b6001600160a01b0382166122375760405162461bcd60e51b8152602060048201526024808201527f4552433732313a207472616e7366657220746f20746865207a65726f2061646460448201527f72657373000000000000000000000000000000000000000000000000000000006064820152608401610934565b612242838383612c6b565b61224d600082611faa565b6001600160a01b0383166000908152606860205260408120805460019290612276908490613ed7565b90915550506001600160a01b03821660009081526068602052604081208054600192906122a4908490613e8c565b9091555050600081815260676020526040808220805473ffffffffffffffffffffffffffffffffffffffff19166001600160a01b0386811691821790925591518493918716917fddf252ad1be2c89b69c2b068fc378daa952ba7f163c4a11628f55a4df523b3ef91a4505050565b60008082118015610761575060fe5482610101546123309190613e8c565b111592915050565b600060ff54826101046000866001600160a01b03166001600160a01b0316815260200190815260200160002060006001610106546123769190613ed7565b81526020019081526020016000205461238f9190613e8c565b11158015610c53575060fc54826123a560995490565b6123af9190613e8c565b11159392505050565b60c980546001600160a01b0383811673ffffffffffffffffffffffffffffffffffffffff19831681179093556040519116919082907f8be0079c531659141344cd1fd0a4f28419497f9722a3daafe3b4186f6b6457e090600090a35050565b604080516001600160a01b0385811660248301528416604482015260648082018490528251808303909101815260849091019091526020810180517bffffffffffffffffffffffffffffffffffffffffffffffffffffffff167f23b872dd00000000000000000000000000000000000000000000000000000000179052611965908590612d28565b6000808260fc546124b09190613ed7565b6040517fffffffffffffffffffffffffffffffffffffffff000000000000000000000000606087901b1660208201524460348201524260548201526074810182905290915060009082906094016040516020818303038152906040528051906020012060001c6125209190613f70565b6000818152610109602052604090205490915081901561254c5750600081815261010960205260409020545b610109600061255c600186613ed7565b815260200190815260200160002054600014156125935761257e600184613ed7565b600083815261010960205260409020556125c5565b61010960006125a3600186613ed7565b8152602080820192909252604090810160009081205485825261010990935220555b95945050505050565b610e3d828260405180602001604052806000815250612e0d565b816001600160a01b0316836001600160a01b0316141561264a5760405162461bcd60e51b815260206004820152601960248201527f4552433732313a20617070726f766520746f2063616c6c6572000000000000006044820152606401610934565b6001600160a01b038381166000818152606a6020908152604080832094871680845294825291829020805460ff191686151590811790915591519182527f17307eab39ab6107e8899845ad3d59bd9653f200f220920489ca2b5937696c31910160405180910390a3505050565b6126c284848461212d565b6126ce84848484612e96565b6119655760405162461bcd60e51b815260206004820152603260248201527f4552433732313a207472616e7366657220746f206e6f6e20455243373231526560448201527f63656976657220696d706c656d656e74657200000000000000000000000000006064820152608401610934565b606061010d805461082b90613f1a565b606081612791575060408051808201909152600181527f30000000000000000000000000000000000000000000000000000000000000006020820152610764565b8160005b81156127bb57806127a581613f55565b91506127b49050600a83613ea4565b9150612795565b60008167ffffffffffffffff8111156127e457634e487b7160e01b600052604160045260246000fd5b6040519080825280601f01601f19166020018201604052801561280e576020820181803683370190505b5090505b841561212557612823600183613ed7565b9150612830600a86613f70565b61283b906030613e8c565b60f81b81838151811061285e57634e487b7160e01b600052603260045260246000fd5b60200101907effffffffffffffffffffffffffffffffffffffffffffffffffffffffffffff1916908160001a905350612898600a86613ea4565b9450612812565b600054610100900460ff1661290a5760405162461bcd60e51b815260206004820152602b60248201527f496e697469616c697a61626c653a20636f6e7472616374206973206e6f74206960448201526a6e697469616c697a696e6760a81b6064820152608401610934565b6129148585613043565b61291c6130c8565b61292586610dcf565b6001600160a01b03831661297b5760405162461bcd60e51b815260206004820152601a60248201527f53616e64206f776e6572206973207a65726f20616464726573730000000000006044820152606401610934565b61010b80546001600160a01b0394851673ffffffffffffffffffffffffffffffffffffffff199182161790915561010c80549390941692169190911790915560fc55505050565b6000808251604114156129f95760208301516040840151606085015160001a6129ed8782858561313c565b94509450505050612a2b565b825160401415612a235760208301516040840151612a18868383613229565b935093505050612a2b565b506000905060025b9250929050565b6000816004811115612a5457634e487b7160e01b600052602160045260246000fd5b1415612a5f57611ea0565b6001816004811115612a8157634e487b7160e01b600052602160045260246000fd5b1415612acf5760405162461bcd60e51b815260206004820152601860248201527f45434453413a20696e76616c6964207369676e617475726500000000000000006044820152606401610934565b6002816004811115612af157634e487b7160e01b600052602160045260246000fd5b1415612b3f5760405162461bcd60e51b815260206004820152601f60248201527f45434453413a20696e76616c6964207369676e6174757265206c656e677468006044820152606401610934565b6003816004811115612b6157634e487b7160e01b600052602160045260246000fd5b1415612bd55760405162461bcd60e51b815260206004820152602260248201527f45434453413a20696e76616c6964207369676e6174757265202773272076616c60448201527f75650000000000000000000000000000000000000000000000000000000000006064820152608401610934565b6004816004811115612bf757634e487b7160e01b600052602160045260246000fd5b1415611ea05760405162461bcd60e51b815260206004820152602260248201527f45434453413a20696e76616c6964207369676e6174757265202776272076616c60448201527f75650000000000000000000000000000000000000000000000000000000000006064820152608401610934565b6001600160a01b038316612cc657612cc181609980546000838152609a60205260408120829055600182018355919091527f72a152ddfb8e864297c917af52ea6c1c68aead0fee1a62673fcc7e0c94979d000155565b612ce9565b816001600160a01b0316836001600160a01b031614612ce957612ce98382613271565b6001600160a01b038216612d0557612d008161330e565b610a86565b826001600160a01b0316826001600160a01b031614610a8657610a8682826133e7565b6000612d7d826040518060400160405280602081526020017f5361666545524332303a206c6f772d6c6576656c2063616c6c206661696c6564815250856001600160a01b031661342b9092919063ffffffff16565b805190915015610a865780806020019051810190612d9b9190613bc4565b610a865760405162461bcd60e51b815260206004820152602a60248201527f5361666545524332303a204552433230206f7065726174696f6e20646964206e60448201527f6f742073756363656564000000000000000000000000000000000000000000006064820152608401610934565b612e17838361343a565b612e246000848484612e96565b610a865760405162461bcd60e51b815260206004820152603260248201527f4552433732313a207472616e7366657220746f206e6f6e20455243373231526560448201527f63656976657220696d706c656d656e74657200000000000000000000000000006064820152608401610934565b60006001600160a01b0384163b15613038576040517f150b7a020000000000000000000000000000000000000000000000000000000081526001600160a01b0385169063150b7a0290612ef3903390899088908890600401613e47565b602060405180830381600087803b158015612f0d57600080fd5b505af1925050508015612f3d575060408051601f3d908101601f19168201909252612f3a91810190613bfc565b60015b612fed573d808015612f6b576040519150601f19603f3d011682016040523d82523d6000602084013e612f70565b606091505b508051612fe55760405162461bcd60e51b815260206004820152603260248201527f4552433732313a207472616e7366657220746f206e6f6e20455243373231526560448201527f63656976657220696d706c656d656e74657200000000000000000000000000006064820152608401610934565b805181602001fd5b7fffffffff00000000000000000000000000000000000000000000000000000000167f150b7a0200000000000000000000000000000000000000000000000000000000149050612125565b506001949350505050565b600054610100900460ff166130ae5760405162461bcd60e51b815260206004820152602b60248201527f496e697469616c697a61626c653a20636f6e7472616374206973206e6f74206960448201526a6e697469616c697a696e6760a81b6064820152608401610934565b6130b6613595565b6130be613595565b610e3d8282613600565b600054610100900460ff166131335760405162461bcd60e51b815260206004820152602b60248201527f496e697469616c697a61626c653a20636f6e7472616374206973206e6f74206960448201526a6e697469616c697a696e6760a81b6064820152608401610934565b611180336123b8565b6000807f7fffffffffffffffffffffffffffffff5d576e7357a4501ddfe92f46681b20a08311156131735750600090506003613220565b8460ff16601b1415801561318b57508460ff16601c14155b1561319c5750600090506004613220565b6040805160008082526020820180845289905260ff881692820192909252606081018690526080810185905260019060a0016020604051602081039080840390855afa1580156131f0573d6000803e3d6000fd5b5050604051601f1901519150506001600160a01b03811661321957600060019250925050613220565b9150600090505b94509492505050565b6000807f7fffffffffffffffffffffffffffffffffffffffffffffffffffffffffffffff831660ff84901c601b016132638782888561313c565b935093505050935093915050565b6000600161327e84611082565b6132889190613ed7565b6000838152609860205260409020549091508082146132db576001600160a01b03841660009081526097602090815260408083208584528252808320548484528184208190558352609890915290208190555b5060009182526098602090815260408084208490556001600160a01b039094168352609781528383209183525290812055565b60995460009061332090600190613ed7565b6000838152609a60205260408120546099805493945090928490811061335657634e487b7160e01b600052603260045260246000fd5b90600052602060002001549050806099838154811061338557634e487b7160e01b600052603260045260246000fd5b6000918252602080832090910192909255828152609a909152604080822084905585825281205560998054806133cb57634e487b7160e01b600052603160045260246000fd5b6001900381819060005260206000200160009055905550505050565b60006133f283611082565b6001600160a01b039093166000908152609760209081526040808320868452825280832085905593825260989052919091209190915550565b60606121258484600085613692565b6001600160a01b0382166134905760405162461bcd60e51b815260206004820181905260248201527f4552433732313a206d696e7420746f20746865207a65726f20616464726573736044820152606401610934565b6000818152606760205260409020546001600160a01b0316156134f55760405162461bcd60e51b815260206004820152601c60248201527f4552433732313a20746f6b656e20616c7265616479206d696e746564000000006044820152606401610934565b61350160008383612c6b565b6001600160a01b038216600090815260686020526040812080546001929061352a908490613e8c565b9091555050600081815260676020526040808220805473ffffffffffffffffffffffffffffffffffffffff19166001600160a01b03861690811790915590518392907fddf252ad1be2c89b69c2b068fc378daa952ba7f163c4a11628f55a4df523b3ef908290a45050565b600054610100900460ff166111805760405162461bcd60e51b815260206004820152602b60248201527f496e697469616c697a61626c653a20636f6e7472616374206973206e6f74206960448201526a6e697469616c697a696e6760a81b6064820152608401610934565b600054610100900460ff1661366b5760405162461bcd60e51b815260206004820152602b60248201527f496e697469616c697a61626c653a20636f6e7472616374206973206e6f74206960448201526a6e697469616c697a696e6760a81b6064820152608401610934565b815161367e90606590602085019061380a565b508051610a8690606690602084019061380a565b60608247101561370a5760405162461bcd60e51b815260206004820152602660248201527f416464726573733a20696e73756666696369656e742062616c616e636520666f60448201527f722063616c6c00000000000000000000000000000000000000000000000000006064820152608401610934565b843b6137585760405162461bcd60e51b815260206004820152601d60248201527f416464726573733a2063616c6c20746f206e6f6e2d636f6e74726163740000006044820152606401610934565b600080866001600160a01b031685876040516137749190613dfc565b60006040518083038185875af1925050503d80600081146137b1576040519150601f19603f3d011682016040523d82523d6000602084013e6137b6565b606091505b50915091506137c68282866137d1565b979650505050505050565b606083156137e0575081610c53565b8251156137f05782518084602001fd5b8160405162461bcd60e51b81526004016109349190613e79565b82805461381690613f1a565b90600052602060002090601f016020900481019282613838576000855561387e565b82601f1061385157805160ff191683800117855561387e565b8280016001018555821561387e579182015b8281111561387e578251825591602001919060010190613863565b5061388a92915061388e565b5090565b5b8082111561388a576000815560010161388f565b600082601f8301126138b3578081fd5b813567ffffffffffffffff808211156138ce576138ce613fb0565b604051601f8301601f19908116603f011681019082821181831017156138f6576138f6613fb0565b8160405283815286602085880101111561390e578485fd5b8360208701602083013792830160200193909352509392505050565b60006020828403121561393b578081fd5b8135610c5381613fc6565b60008060408385031215613958578081fd5b823561396381613fc6565b9150602083013561397381613fc6565b809150509250929050565b600080600060608486031215613992578081fd5b833561399d81613fc6565b925060208401356139ad81613fc6565b929592945050506040919091013590565b600080600080608085870312156139d3578081fd5b84356139de81613fc6565b935060208501356139ee81613fc6565b925060408501359150606085013567ffffffffffffffff811115613a10578182fd5b613a1c878288016138a3565b91505092959194509250565b60008060408385031215613a3a578182fd5b8235613a4581613fc6565b9150602083013561397381613fdb565b60008060408385031215613a67578182fd5b8235613a7281613fc6565b946020939093013593505050565b600080600080600060a08688031215613a97578081fd5b8535613aa281613fc6565b9450602086013593506040860135613ab981613fc6565b925060608601359150608086013567ffffffffffffffff811115613adb578182fd5b613ae7888289016138a3565b9150509295509295909350565b600080600080600080600060e0888a031215613b0e578182fd5b8735613b1981613fc6565b9650602088013595506040880135613b3081613fc6565b9450606088013593506080880135925060a0880135915060c088013567ffffffffffffffff811115613b60578182fd5b613b6c8a828b016138a3565b91505092959891949750929550565b60008060008060808587031215613b90578081fd5b8435613b9b81613fc6565b93506020850135925060408501359150606085013567ffffffffffffffff811115613a10578182fd5b600060208284031215613bd5578081fd5b8151610c5381613fdb565b600060208284031215613bf1578081fd5b8135610c5381613fe9565b600060208284031215613c0d578081fd5b8151610c5381613fe9565b600060208284031215613c29578081fd5b813567ffffffffffffffff811115613c3f578182fd5b612125848285016138a3565b600080600080600060a08688031215613c62578283fd5b853567ffffffffffffffff80821115613c79578485fd5b613c8589838a016138a3565b96506020880135915080821115613c9a578485fd5b613ca689838a016138a3565b95506040880135915080821115613cbb578485fd5b50613cc8888289016138a3565b9350506060860135613cd981613fc6565b91506080860135613ce981613fc6565b809150509295509295909350565b600060208284031215613d08578081fd5b5035919050565b600060208284031215613d20578081fd5b5051919050565b60008060008060808587031215613d3c578182fd5b84359350602085013567ffffffffffffffff811115613d59578283fd5b613d65878288016138a3565b949794965050505060408301359260600135919050565b60008060008060008060c08789031215613d94578384fd5b863595506020870135945060408701359350606087013592506080870135613dbb81613fc6565b8092505060a087013590509295509295509295565b60008151808452613de8816020860160208601613eee565b601f01601f19169290920160200192915050565b60008251613e0e818460208701613eee565b9190910192915050565b60008351613e2a818460208801613eee565b835190830190613e3e818360208801613eee565b01949350505050565b60006001600160a01b038087168352808616602084015250836040830152608060608301526118d36080830184613dd0565b600060208252610c536020830184613dd0565b60008219821115613e9f57613e9f613f84565b500190565b600082613eb357613eb3613f9a565b500490565b6000816000190483118215151615613ed257613ed2613f84565b500290565b600082821015613ee957613ee9613f84565b500390565b60005b83811015613f09578181015183820152602001613ef1565b838111156119655750506000910152565b600281046001821680613f2e57607f821691505b60208210811415613f4f57634e487b7160e01b600052602260045260246000fd5b50919050565b6000600019821415613f6957613f69613f84565b5060010190565b600082613f7f57613f7f613f9a565b500690565b634e487b7160e01b600052601160045260246000fd5b634e487b7160e01b600052601260045260246000fd5b634e487b7160e01b600052604160045260246000fd5b6001600160a01b0381168114611ea057600080fd5b8015158114611ea057600080fd5b7fffffffff0000000000000000000000000000000000000000000000000000000081168114611ea057600080fdfea2646970667358221220211f294b34abcfe903c35b916716528b737c266e0ce474ca9440ad6840bea85564736f6c63430008020033",
  "devdoc": {
    "kind": "dev",
    "methods": {
      "approve(address,uint256)": {
        "details": "See {IERC721-approve}."
      },
      "balanceOf(address)": {
        "details": "See {IERC721-balanceOf}."
      },
      "getApproved(uint256)": {
        "details": "See {IERC721-getApproved}."
      },
      "isApprovedForAll(address,address)": {
        "details": "See {IERC721-isApprovedForAll}."
      },
      "name()": {
        "details": "See {IERC721Metadata-name}."
      },
      "owner()": {
        "details": "Returns the address of the current owner."
      },
      "ownerOf(uint256)": {
        "details": "See {IERC721-ownerOf}."
      },
      "renounceOwnership()": {
        "details": "Leaves the contract without owner. It will not be possible to call `onlyOwner` functions anymore. Can only be called by the current owner. NOTE: Renouncing ownership will leave the contract without an owner, thereby removing any functionality that is only available to the owner."
      },
      "safeTransferFrom(address,address,uint256)": {
        "details": "See {IERC721-safeTransferFrom}."
      },
      "safeTransferFrom(address,address,uint256,bytes)": {
        "details": "See {IERC721-safeTransferFrom}."
      },
      "setApprovalForAll(address,bool)": {
        "details": "See {IERC721-setApprovalForAll}."
      },
      "supportsInterface(bytes4)": {
        "details": "See {IERC165-supportsInterface}."
      },
      "symbol()": {
        "details": "See {IERC721Metadata-symbol}."
      },
      "tokenByIndex(uint256)": {
        "details": "See {IERC721Enumerable-tokenByIndex}."
      },
      "tokenOfOwnerByIndex(address,uint256)": {
        "details": "See {IERC721Enumerable-tokenOfOwnerByIndex}."
      },
      "tokenURI(uint256)": {
        "details": "See {IERC721Metadata-tokenURI}."
      },
      "totalSupply()": {
        "details": "See {IERC721Enumerable-totalSupply}."
      },
      "transferFrom(address,address,uint256)": {
        "details": "See {IERC721-transferFrom}."
      },
      "transferOwnership(address)": {
        "details": "Transfers ownership of the contract to a new account (`newOwner`). Can only be called by the current owner."
      }
    },
    "version": 1
  },
  "userdoc": {
    "kind": "user",
    "methods": {},
    "version": 1
  },
  "storageLayout": {
    "storage": [
      {
        "astId": 7568,
        "contract": "src/solc_0.8/raffle/SteveAoki.sol:SteveAoki",
        "label": "_initialized",
        "offset": 0,
        "slot": "0",
        "type": "t_bool"
      },
      {
        "astId": 7571,
        "contract": "src/solc_0.8/raffle/SteveAoki.sol:SteveAoki",
        "label": "_initializing",
        "offset": 1,
        "slot": "0",
        "type": "t_bool"
      },
      {
        "astId": 9533,
        "contract": "src/solc_0.8/raffle/SteveAoki.sol:SteveAoki",
        "label": "__gap",
        "offset": 0,
        "slot": "1",
        "type": "t_array(t_uint256)50_storage"
      },
      {
        "astId": 10321,
        "contract": "src/solc_0.8/raffle/SteveAoki.sol:SteveAoki",
        "label": "__gap",
        "offset": 0,
        "slot": "51",
        "type": "t_array(t_uint256)50_storage"
      },
      {
        "astId": 7855,
        "contract": "src/solc_0.8/raffle/SteveAoki.sol:SteveAoki",
        "label": "_name",
        "offset": 0,
        "slot": "101",
        "type": "t_string_storage"
      },
      {
        "astId": 7857,
        "contract": "src/solc_0.8/raffle/SteveAoki.sol:SteveAoki",
        "label": "_symbol",
        "offset": 0,
        "slot": "102",
        "type": "t_string_storage"
      },
      {
        "astId": 7861,
        "contract": "src/solc_0.8/raffle/SteveAoki.sol:SteveAoki",
        "label": "_owners",
        "offset": 0,
        "slot": "103",
        "type": "t_mapping(t_uint256,t_address)"
      },
      {
        "astId": 7865,
        "contract": "src/solc_0.8/raffle/SteveAoki.sol:SteveAoki",
        "label": "_balances",
        "offset": 0,
        "slot": "104",
        "type": "t_mapping(t_address,t_uint256)"
      },
      {
        "astId": 7869,
        "contract": "src/solc_0.8/raffle/SteveAoki.sol:SteveAoki",
        "label": "_tokenApprovals",
        "offset": 0,
        "slot": "105",
        "type": "t_mapping(t_uint256,t_address)"
      },
      {
        "astId": 7875,
        "contract": "src/solc_0.8/raffle/SteveAoki.sol:SteveAoki",
        "label": "_operatorApprovals",
        "offset": 0,
        "slot": "106",
        "type": "t_mapping(t_address,t_mapping(t_address,t_bool))"
      },
      {
        "astId": 8686,
        "contract": "src/solc_0.8/raffle/SteveAoki.sol:SteveAoki",
        "label": "__gap",
        "offset": 0,
        "slot": "107",
        "type": "t_array(t_uint256)44_storage"
      },
      {
        "astId": 8860,
        "contract": "src/solc_0.8/raffle/SteveAoki.sol:SteveAoki",
        "label": "_ownedTokens",
        "offset": 0,
        "slot": "151",
        "type": "t_mapping(t_address,t_mapping(t_uint256,t_uint256))"
      },
      {
        "astId": 8864,
        "contract": "src/solc_0.8/raffle/SteveAoki.sol:SteveAoki",
        "label": "_ownedTokensIndex",
        "offset": 0,
        "slot": "152",
        "type": "t_mapping(t_uint256,t_uint256)"
      },
      {
        "astId": 8867,
        "contract": "src/solc_0.8/raffle/SteveAoki.sol:SteveAoki",
        "label": "_allTokens",
        "offset": 0,
        "slot": "153",
        "type": "t_array(t_uint256)dyn_storage"
      },
      {
        "astId": 8871,
        "contract": "src/solc_0.8/raffle/SteveAoki.sol:SteveAoki",
        "label": "_allTokensIndex",
        "offset": 0,
        "slot": "154",
        "type": "t_mapping(t_uint256,t_uint256)"
      },
      {
        "astId": 9186,
        "contract": "src/solc_0.8/raffle/SteveAoki.sol:SteveAoki",
        "label": "__gap",
        "offset": 0,
        "slot": "155",
        "type": "t_array(t_uint256)46_storage"
      },
      {
        "astId": 7446,
        "contract": "src/solc_0.8/raffle/SteveAoki.sol:SteveAoki",
        "label": "_owner",
        "offset": 0,
        "slot": "201",
        "type": "t_address"
      },
      {
        "astId": 7560,
        "contract": "src/solc_0.8/raffle/SteveAoki.sol:SteveAoki",
        "label": "__gap",
        "offset": 0,
        "slot": "202",
        "type": "t_array(t_uint256)49_storage"
      },
      {
        "astId": 739,
        "contract": "src/solc_0.8/raffle/SteveAoki.sol:SteveAoki",
        "label": "_status",
        "offset": 0,
        "slot": "251",
        "type": "t_uint256"
      },
      {
        "astId": 42967,
        "contract": "src/solc_0.8/raffle/SteveAoki.sol:SteveAoki",
        "label": "maxSupply",
        "offset": 0,
        "slot": "252",
        "type": "t_uint256"
      },
      {
        "astId": 42980,
        "contract": "src/solc_0.8/raffle/SteveAoki.sol:SteveAoki",
        "label": "waveType",
        "offset": 0,
        "slot": "253",
        "type": "t_uint256"
      },
      {
        "astId": 42982,
        "contract": "src/solc_0.8/raffle/SteveAoki.sol:SteveAoki",
        "label": "waveMaxTokens",
        "offset": 0,
        "slot": "254",
        "type": "t_uint256"
      },
      {
        "astId": 42984,
        "contract": "src/solc_0.8/raffle/SteveAoki.sol:SteveAoki",
        "label": "waveMaxTokensToBuy",
        "offset": 0,
        "slot": "255",
        "type": "t_uint256"
      },
      {
        "astId": 42986,
        "contract": "src/solc_0.8/raffle/SteveAoki.sol:SteveAoki",
        "label": "waveSingleTokenPrice",
        "offset": 0,
        "slot": "256",
        "type": "t_uint256"
      },
      {
        "astId": 42988,
        "contract": "src/solc_0.8/raffle/SteveAoki.sol:SteveAoki",
        "label": "waveTotalMinted",
        "offset": 0,
        "slot": "257",
        "type": "t_uint256"
      },
      {
        "astId": 42990,
        "contract": "src/solc_0.8/raffle/SteveAoki.sol:SteveAoki",
        "label": "erc1155Id",
        "offset": 0,
        "slot": "258",
        "type": "t_uint256"
      },
      {
        "astId": 42992,
        "contract": "src/solc_0.8/raffle/SteveAoki.sol:SteveAoki",
        "label": "contractAddress",
        "offset": 0,
        "slot": "259",
        "type": "t_address"
      },
      {
        "astId": 42998,
        "contract": "src/solc_0.8/raffle/SteveAoki.sol:SteveAoki",
        "label": "waveOwnerToClaimedCounts",
        "offset": 0,
        "slot": "260",
        "type": "t_mapping(t_address,t_mapping(t_uint256,t_uint256))"
      },
      {
        "astId": 43002,
        "contract": "src/solc_0.8/raffle/SteveAoki.sol:SteveAoki",
        "label": "personalizationTraits",
        "offset": 0,
        "slot": "261",
        "type": "t_mapping(t_uint256,t_uint256)"
      },
      {
        "astId": 43004,
        "contract": "src/solc_0.8/raffle/SteveAoki.sol:SteveAoki",
        "label": "indexWave",
        "offset": 0,
        "slot": "262",
        "type": "t_uint256"
      },
      {
        "astId": 43006,
        "contract": "src/solc_0.8/raffle/SteveAoki.sol:SteveAoki",
        "label": "paused",
        "offset": 0,
        "slot": "263",
        "type": "t_uint256"
      },
      {
        "astId": 43010,
        "contract": "src/solc_0.8/raffle/SteveAoki.sol:SteveAoki",
        "label": "signatureIds",
        "offset": 0,
        "slot": "264",
        "type": "t_mapping(t_uint256,t_uint256)"
      },
      {
        "astId": 43014,
        "contract": "src/solc_0.8/raffle/SteveAoki.sol:SteveAoki",
        "label": "availableIds",
        "offset": 0,
        "slot": "265",
        "type": "t_mapping(t_uint256,t_uint256)"
      },
      {
        "astId": 43016,
        "contract": "src/solc_0.8/raffle/SteveAoki.sol:SteveAoki",
        "label": "allowedToExecuteMint",
        "offset": 0,
        "slot": "266",
        "type": "t_address"
      },
      {
        "astId": 43018,
        "contract": "src/solc_0.8/raffle/SteveAoki.sol:SteveAoki",
        "label": "sandOwner",
        "offset": 0,
        "slot": "267",
        "type": "t_address"
      },
      {
        "astId": 43020,
        "contract": "src/solc_0.8/raffle/SteveAoki.sol:SteveAoki",
        "label": "signAddress",
        "offset": 0,
        "slot": "268",
        "type": "t_address"
      },
      {
        "astId": 43022,
        "contract": "src/solc_0.8/raffle/SteveAoki.sol:SteveAoki",
        "label": "baseTokenURI",
        "offset": 0,
        "slot": "269",
        "type": "t_string_storage"
      }
    ],
    "types": {
      "t_address": {
        "encoding": "inplace",
        "label": "address",
        "numberOfBytes": "20"
      },
      "t_array(t_uint256)44_storage": {
        "base": "t_uint256",
        "encoding": "inplace",
        "label": "uint256[44]",
        "numberOfBytes": "1408"
      },
      "t_array(t_uint256)46_storage": {
        "base": "t_uint256",
        "encoding": "inplace",
        "label": "uint256[46]",
        "numberOfBytes": "1472"
      },
      "t_array(t_uint256)49_storage": {
        "base": "t_uint256",
        "encoding": "inplace",
        "label": "uint256[49]",
        "numberOfBytes": "1568"
      },
      "t_array(t_uint256)50_storage": {
        "base": "t_uint256",
        "encoding": "inplace",
        "label": "uint256[50]",
        "numberOfBytes": "1600"
      },
      "t_array(t_uint256)dyn_storage": {
        "base": "t_uint256",
        "encoding": "dynamic_array",
        "label": "uint256[]",
        "numberOfBytes": "32"
      },
      "t_bool": {
        "encoding": "inplace",
        "label": "bool",
        "numberOfBytes": "1"
      },
      "t_mapping(t_address,t_bool)": {
        "encoding": "mapping",
        "key": "t_address",
        "label": "mapping(address => bool)",
        "numberOfBytes": "32",
        "value": "t_bool"
      },
      "t_mapping(t_address,t_mapping(t_address,t_bool))": {
        "encoding": "mapping",
        "key": "t_address",
        "label": "mapping(address => mapping(address => bool))",
        "numberOfBytes": "32",
        "value": "t_mapping(t_address,t_bool)"
      },
      "t_mapping(t_address,t_mapping(t_uint256,t_uint256))": {
        "encoding": "mapping",
        "key": "t_address",
        "label": "mapping(address => mapping(uint256 => uint256))",
        "numberOfBytes": "32",
        "value": "t_mapping(t_uint256,t_uint256)"
      },
      "t_mapping(t_address,t_uint256)": {
        "encoding": "mapping",
        "key": "t_address",
        "label": "mapping(address => uint256)",
        "numberOfBytes": "32",
        "value": "t_uint256"
      },
      "t_mapping(t_uint256,t_address)": {
        "encoding": "mapping",
        "key": "t_uint256",
        "label": "mapping(uint256 => address)",
        "numberOfBytes": "32",
        "value": "t_address"
      },
      "t_mapping(t_uint256,t_uint256)": {
        "encoding": "mapping",
        "key": "t_uint256",
        "label": "mapping(uint256 => uint256)",
        "numberOfBytes": "32",
        "value": "t_uint256"
      },
      "t_string_storage": {
        "encoding": "bytes",
        "label": "string",
        "numberOfBytes": "32"
      },
      "t_uint256": {
        "encoding": "inplace",
        "label": "uint256",
        "numberOfBytes": "32"
      }
    }
  }
}