{
  "address": "0x72891a0c147c5757b657E268aA6286b202430687",
  "abi": [
    {
      "anonymous": false,
      "inputs": [
        {
          "indexed": true,
          "internalType": "address",
          "name": "previousOwner",
          "type": "address"
        },
        {
          "indexed": true,
          "internalType": "address",
          "name": "newOwner",
          "type": "address"
        }
      ],
      "name": "OwnershipTransferred",
      "type": "event"
    },
    {
      "anonymous": false,
      "inputs": [
        {
          "indexed": true,
          "internalType": "bytes32",
          "name": "role",
          "type": "bytes32"
        },
        {
          "indexed": true,
          "internalType": "bytes32",
          "name": "previousAdminRole",
          "type": "bytes32"
        },
        {
          "indexed": true,
          "internalType": "bytes32",
          "name": "newAdminRole",
          "type": "bytes32"
        }
      ],
      "name": "RoleAdminChanged",
      "type": "event"
    },
    {
      "anonymous": false,
      "inputs": [
        {
          "indexed": true,
          "internalType": "bytes32",
          "name": "role",
          "type": "bytes32"
        },
        {
          "indexed": true,
          "internalType": "address",
          "name": "account",
          "type": "address"
        },
        {
          "indexed": true,
          "internalType": "address",
          "name": "sender",
          "type": "address"
        }
      ],
      "name": "RoleGranted",
      "type": "event"
    },
    {
      "anonymous": false,
      "inputs": [
        {
          "indexed": true,
          "internalType": "bytes32",
          "name": "role",
          "type": "bytes32"
        },
        {
          "indexed": true,
          "internalType": "address",
          "name": "account",
          "type": "address"
        },
        {
          "indexed": true,
          "internalType": "address",
          "name": "sender",
          "type": "address"
        }
      ],
      "name": "RoleRevoked",
      "type": "event"
    },
    {
      "anonymous": false,
      "inputs": [
        {
          "indexed": true,
          "internalType": "address",
          "name": "newTrustedForwarderAddress",
          "type": "address"
        }
      ],
      "name": "TrustedForwarderChanged",
      "type": "event"
    },
    {
      "inputs": [],
      "name": "DEFAULT_ADMIN_ROLE",
      "outputs": [
        {
          "internalType": "bytes32",
          "name": "",
          "type": "bytes32"
        }
      ],
      "stateMutability": "view",
      "type": "function"
    },
    {
      "inputs": [],
      "name": "SUPER_OPERATOR_ROLE",
      "outputs": [
        {
          "internalType": "bytes32",
          "name": "",
          "type": "bytes32"
        }
      ],
      "stateMutability": "view",
      "type": "function"
    },
    {
      "inputs": [
        {
          "internalType": "contract IGem[]",
          "name": "gems",
          "type": "address[]"
        },
        {
          "internalType": "contract ICatalyst[]",
          "name": "catalysts",
          "type": "address[]"
        }
      ],
      "name": "addGemsAndCatalysts",
      "outputs": [],
      "stateMutability": "nonpayable",
      "type": "function"
    },
    {
      "inputs": [
        {
          "internalType": "address",
          "name": "from",
          "type": "address"
        },
        {
          "internalType": "uint16[]",
          "name": "catalystIds",
          "type": "uint16[]"
        },
        {
          "internalType": "uint256[]",
          "name": "amounts",
          "type": "uint256[]"
        }
      ],
      "name": "batchBurnCatalysts",
      "outputs": [],
      "stateMutability": "nonpayable",
      "type": "function"
    },
    {
      "inputs": [
        {
          "internalType": "address",
          "name": "from",
          "type": "address"
        },
        {
          "internalType": "uint16[]",
          "name": "gemIds",
          "type": "uint16[]"
        },
        {
          "internalType": "uint256[]",
          "name": "amounts",
          "type": "uint256[]"
        }
      ],
      "name": "batchBurnGems",
      "outputs": [],
      "stateMutability": "nonpayable",
      "type": "function"
    },
    {
      "inputs": [
        {
          "internalType": "address",
          "name": "from",
          "type": "address"
        },
        {
          "internalType": "uint16",
          "name": "catalystId",
          "type": "uint16"
        },
        {
          "internalType": "uint256",
          "name": "amount",
          "type": "uint256"
        }
      ],
      "name": "burnCatalyst",
      "outputs": [],
      "stateMutability": "nonpayable",
      "type": "function"
    },
    {
      "inputs": [
        {
          "internalType": "address",
          "name": "from",
          "type": "address"
        },
        {
          "internalType": "uint16[]",
          "name": "catalystIds",
          "type": "uint16[]"
        },
        {
          "internalType": "uint256[]",
          "name": "amounts",
          "type": "uint256[]"
        }
      ],
      "name": "burnDifferentCatalysts",
      "outputs": [],
      "stateMutability": "nonpayable",
      "type": "function"
    },
    {
      "inputs": [
        {
          "internalType": "address",
          "name": "from",
          "type": "address"
        },
        {
          "internalType": "uint16[]",
          "name": "gemIds",
          "type": "uint16[]"
        },
        {
          "internalType": "uint256[]",
          "name": "amounts",
          "type": "uint256[]"
        }
      ],
      "name": "burnDifferentGems",
      "outputs": [],
      "stateMutability": "nonpayable",
      "type": "function"
    },
    {
      "inputs": [
        {
          "internalType": "address",
          "name": "from",
          "type": "address"
        },
        {
          "internalType": "uint16",
          "name": "gemId",
          "type": "uint16"
        },
        {
          "internalType": "uint256",
          "name": "amount",
          "type": "uint256"
        }
      ],
      "name": "burnGem",
      "outputs": [],
      "stateMutability": "nonpayable",
      "type": "function"
    },
    {
      "inputs": [
        {
          "internalType": "uint16",
          "name": "catalystId",
          "type": "uint16"
        }
      ],
      "name": "doesCatalystExist",
      "outputs": [
        {
          "internalType": "bool",
          "name": "",
          "type": "bool"
        }
      ],
      "stateMutability": "view",
      "type": "function"
    },
    {
      "inputs": [
        {
          "internalType": "uint16",
          "name": "gemId",
          "type": "uint16"
        }
      ],
      "name": "doesGemExist",
      "outputs": [
        {
          "internalType": "bool",
          "name": "",
          "type": "bool"
        }
      ],
      "stateMutability": "view",
      "type": "function"
    },
    {
      "inputs": [
        {
          "internalType": "uint16",
          "name": "catalystId",
          "type": "uint16"
        },
        {
          "internalType": "uint256",
          "name": "assetId",
          "type": "uint256"
        },
        {
          "components": [
            {
              "internalType": "uint16[]",
              "name": "gemIds",
              "type": "uint16[]"
            },
            {
              "internalType": "bytes32",
              "name": "blockHash",
              "type": "bytes32"
            }
          ],
          "internalType": "struct IAssetAttributesRegistry.GemEvent[]",
          "name": "events",
          "type": "tuple[]"
        }
      ],
      "name": "getAttributes",
      "outputs": [
        {
          "internalType": "uint32[]",
          "name": "values",
          "type": "uint32[]"
        }
      ],
      "stateMutability": "view",
      "type": "function"
    },
    {
      "inputs": [
        {
          "internalType": "uint16",
          "name": "catalystId",
          "type": "uint16"
        }
      ],
      "name": "getCatalyst",
      "outputs": [
        {
          "internalType": "contract ICatalyst",
          "name": "",
          "type": "address"
        }
      ],
      "stateMutability": "view",
      "type": "function"
    },
    {
      "inputs": [
        {
          "internalType": "uint16",
          "name": "catalystId",
          "type": "uint16"
        }
      ],
      "name": "getCatalystDecimals",
      "outputs": [
        {
          "internalType": "uint8",
          "name": "",
          "type": "uint8"
        }
      ],
      "stateMutability": "view",
      "type": "function"
    },
    {
      "inputs": [
        {
          "internalType": "uint16",
          "name": "gemId",
          "type": "uint16"
        }
      ],
      "name": "getGem",
      "outputs": [
        {
          "internalType": "contract IGem",
          "name": "",
          "type": "address"
        }
      ],
      "stateMutability": "view",
      "type": "function"
    },
    {
      "inputs": [
        {
          "internalType": "uint16",
          "name": "gemId",
          "type": "uint16"
        }
      ],
      "name": "getGemDecimals",
      "outputs": [
        {
          "internalType": "uint8",
          "name": "",
          "type": "uint8"
        }
      ],
      "stateMutability": "view",
      "type": "function"
    },
    {
      "inputs": [
        {
          "internalType": "uint16",
          "name": "catalystId",
          "type": "uint16"
        }
      ],
      "name": "getMaxGems",
      "outputs": [
        {
          "internalType": "uint8",
          "name": "",
          "type": "uint8"
        }
      ],
      "stateMutability": "view",
      "type": "function"
    },
    {
      "inputs": [],
      "name": "getNumberOfCatalystContracts",
      "outputs": [
        {
          "internalType": "uint256",
          "name": "number",
          "type": "uint256"
        }
      ],
      "stateMutability": "view",
      "type": "function"
    },
    {
      "inputs": [],
      "name": "getNumberOfGemContracts",
      "outputs": [
        {
          "internalType": "uint256",
          "name": "number",
          "type": "uint256"
        }
      ],
      "stateMutability": "view",
      "type": "function"
    },
    {
      "inputs": [
        {
          "internalType": "bytes32",
          "name": "role",
          "type": "bytes32"
        }
      ],
      "name": "getRoleAdmin",
      "outputs": [
        {
          "internalType": "bytes32",
          "name": "",
          "type": "bytes32"
        }
      ],
      "stateMutability": "view",
      "type": "function"
    },
    {
      "inputs": [],
      "name": "getTrustedForwarder",
      "outputs": [
        {
          "internalType": "address",
          "name": "trustedForwarder",
          "type": "address"
        }
      ],
      "stateMutability": "view",
      "type": "function"
    },
    {
      "inputs": [
        {
          "internalType": "bytes32",
          "name": "role",
          "type": "bytes32"
        },
        {
          "internalType": "address",
          "name": "account",
          "type": "address"
        }
      ],
      "name": "grantRole",
      "outputs": [],
      "stateMutability": "nonpayable",
      "type": "function"
    },
    {
      "inputs": [
        {
          "internalType": "bytes32",
          "name": "role",
          "type": "bytes32"
        },
        {
          "internalType": "address",
          "name": "account",
          "type": "address"
        }
      ],
      "name": "hasRole",
      "outputs": [
        {
          "internalType": "bool",
          "name": "",
          "type": "bool"
        }
      ],
      "stateMutability": "view",
      "type": "function"
    },
    {
      "inputs": [
        {
          "internalType": "address",
          "name": "trustedForwarder",
          "type": "address"
        },
        {
          "internalType": "address",
          "name": "admin",
          "type": "address"
        }
      ],
      "name": "initV1",
      "outputs": [],
      "stateMutability": "nonpayable",
      "type": "function"
    },
    {
      "inputs": [
        {
          "internalType": "address",
          "name": "forwarder",
          "type": "address"
        }
      ],
      "name": "isTrustedForwarder",
      "outputs": [
        {
          "internalType": "bool",
          "name": "",
          "type": "bool"
        }
      ],
      "stateMutability": "view",
      "type": "function"
    },
    {
      "inputs": [],
      "name": "owner",
      "outputs": [
        {
          "internalType": "address",
          "name": "",
          "type": "address"
        }
      ],
      "stateMutability": "view",
      "type": "function"
    },
    {
      "inputs": [],
      "name": "renounceOwnership",
      "outputs": [],
      "stateMutability": "nonpayable",
      "type": "function"
    },
    {
      "inputs": [
        {
          "internalType": "bytes32",
          "name": "role",
          "type": "bytes32"
        },
        {
          "internalType": "address",
          "name": "account",
          "type": "address"
        }
      ],
      "name": "renounceRole",
      "outputs": [],
      "stateMutability": "nonpayable",
      "type": "function"
    },
    {
      "inputs": [],
      "name": "revokeGemsandCatalystsMaxAllowance",
      "outputs": [],
      "stateMutability": "nonpayable",
      "type": "function"
    },
    {
      "inputs": [
        {
          "internalType": "bytes32",
          "name": "role",
          "type": "bytes32"
        },
        {
          "internalType": "address",
          "name": "account",
          "type": "address"
        }
      ],
      "name": "revokeRole",
      "outputs": [],
      "stateMutability": "nonpayable",
      "type": "function"
    },
    {
      "inputs": [],
      "name": "setGemsAndCatalystsMaxAllowance",
      "outputs": [],
      "stateMutability": "nonpayable",
      "type": "function"
    },
    {
      "inputs": [
        {
          "internalType": "address",
          "name": "trustedForwarder",
          "type": "address"
        }
      ],
      "name": "setTrustedForwarder",
      "outputs": [],
      "stateMutability": "nonpayable",
      "type": "function"
    },
    {
      "inputs": [
        {
          "internalType": "bytes4",
          "name": "interfaceId",
          "type": "bytes4"
        }
      ],
      "name": "supportsInterface",
      "outputs": [
        {
          "internalType": "bool",
          "name": "",
          "type": "bool"
        }
      ],
      "stateMutability": "view",
      "type": "function"
    },
    {
      "inputs": [
        {
          "internalType": "address",
          "name": "newOwner",
          "type": "address"
        }
      ],
      "name": "transferOwnership",
      "outputs": [],
      "stateMutability": "nonpayable",
      "type": "function"
    }
  ],
  "transactionHash": "0xee02768e0dc5d53701a13cddef2fb878ed4ddab609e9dfe9754ece9ddc60d104",
  "args": [],
  "numDeployments": 1,
  "solcInputHash": "8bc6593f86e06c77b2d62641ad6af9b6",
  "bytecode": "0x608060405234801561001057600080fd5b5061270f806100206000396000f3fe608060405234801561001057600080fd5b50600436106102265760003560e01c806378bc8a191161012a578063c0569758116100bd578063da7422281161008c578063e8a0806611610071578063e8a08066146104de578063f2fde38b146104f1578063f96080a61461050457610226565b8063da742228146104b8578063e1946192146104cb57610226565b8063c05697581461046e578063ce1b815f14610481578063d0807d3114610492578063d547741f146104a557610226565b806391d14854116100f957806391d1485414610412578063a217fddf1461044b578063aeb845d114610453578063aff5d1fa1461045b57610226565b806378bc8a19146103bd5780637e8ee42f146103e25780638c4d91ed146104025780638da5cb5b1461040a57610226565b8063362e7e8c116101bd578063572b6c051161018c578063645c5f9e11610171578063645c5f9e14610382578063715018a61461038a578063786325dd1461039257610226565b8063572b6c051461034d578063590d0dce1461036f57610226565b8063362e7e8c1461030157806336568abe1461031457806352eea03014610327578063550d629c1461033a57610226565b8063248a9ca3116101f9578063248a9ca3146102a55780632a6a6451146102c85780632d0f97e7146102db5780632f2ff15d146102ee57610226565b806301ffc9a71461022b578063141376f9146102535780631818965314610266578063184dfff514610270575b600080fd5b61023e610239366004612297565b610517565b60405190151581526020015b60405180910390f35b61023e6102613660046122d7565b6105b2565b61026e6105cf565b005b6102977fe43cbdacb5a27491c5b15dcd2ddf377fcc3cf337bd999d6a7acb8c882b5554cb81565b60405190815260200161024a565b6102976102b336600461225b565b60009081526097602052604090206001015490565b61026e6102d63660046120cc565b6105dc565b61026e6102e936600461204c565b610761565b61026e6102fc366004612273565b6107eb565b61026e61030f36600461204c565b61081d565b61026e610322366004612273565b6108d1565b61026e61033536600461204c565b61096d565b61026e61034836600461210c565b610a62565b61023e61035b366004611ff8565b6000546001600160a01b0390811691161490565b61026e61037d3660046120cc565b610e27565b60ca54610297565b61026e610f25565b6103a56103a03660046122d7565b610f9e565b6040516001600160a01b03909116815260200161024a565b6103d06103cb3660046122d7565b611011565b60405160ff909116815260200161024a565b6103f56103f036600461230f565b6110ed565b60405161024a91906123ff565b60c954610297565b6103a56111f9565b61023e610420366004612273565b60009182526097602090815260408084206001600160a01b0393909316845291905290205460ff1690565b610297600081565b61026e611209565b6103d06104693660046122d7565b611213565b61023e61047c3660046122d7565b6112b0565b6000546001600160a01b03166103a5565b61026e6104a0366004612014565b6112bc565b61026e6104b3366004612273565b611453565b61026e6104c6366004611ff8565b61147b565b61026e6104d936600461204c565b61153f565b6103a56104ec3660046122d7565b611580565b61026e6104ff366004611ff8565b6115ad565b6103d06105123660046122d7565b6116a4565b60007fffffffff0000000000000000000000000000000000000000000000000000000082167f7965db0b0000000000000000000000000000000000000000000000000000000014806105aa57507f01ffc9a7000000000000000000000000000000000000000000000000000000007fffffffff000000000000000000000000000000000000000000000000000000008316145b90505b919050565b6000806105be83610f9e565b6001600160a01b0316141592915050565b6105da600019611708565b565b82806001600160a01b03166105ef61190b565b6001600160a01b0316148061062b575061062b7fe43cbdacb5a27491c5b15dcd2ddf377fcc3cf337bd999d6a7acb8c882b5554cb61042061190b565b61067c5760405162461bcd60e51b815260206004820152601260248201527f415554485f4143434553535f44454e494544000000000000000000000000000060448201526064015b60405180910390fd5b600061068784611580565b90506001600160a01b0381166106df5760405162461bcd60e51b815260206004820152601760248201527f434154414c5953545f444f45535f4e4f545f45584953540000000000000000006044820152606401610673565b6040517f1dd319cb0000000000000000000000000000000000000000000000000000000081526001600160a01b03868116600483015260248201859052821690631dd319cb90604401600060405180830381600087803b15801561074257600080fd5b505af1158015610756573d6000803e3d6000fd5b505050505050505050565b60005b838110156107e3576107d18686868481811061079057634e487b7160e01b600052603260045260246000fd5b90506020020160208101906107a591906122d7565b8585858181106107c557634e487b7160e01b600052603260045260246000fd5b90506020020135610e27565b806107db8161266d565b915050610764565b505050505050565b60008281526097602052604090206001015461080e8161080961190b565b61191a565b610818838361199a565b505050565b60005b838110156107e35784848281811061084857634e487b7160e01b600052603260045260246000fd5b905060200201602081019061085d91906122d7565b61ffff1615801590610896575082828281811061088a57634e487b7160e01b600052603260045260246000fd5b90506020020135600014155b156108bf576108bf8686868481811061079057634e487b7160e01b600052603260045260246000fd5b806108c98161266d565b915050610820565b6108d961190b565b6001600160a01b0316816001600160a01b03161461095f5760405162461bcd60e51b815260206004820152602f60248201527f416363657373436f6e74726f6c3a2063616e206f6e6c792072656e6f756e636560448201527f20726f6c657320666f722073656c6600000000000000000000000000000000006064820152608401610673565b6109698282611a3d565b5050565b60005b838110156107e35784848281811061099857634e487b7160e01b600052603260045260246000fd5b90506020020160208101906109ad91906122d7565b61ffff16158015906109e657508282828181106109da57634e487b7160e01b600052603260045260246000fd5b90506020020135600014155b15610a5057610a5086868684818110610a0f57634e487b7160e01b600052603260045260246000fd5b9050602002016020810190610a2491906122d7565b858585818110610a4457634e487b7160e01b600052603260045260246000fd5b905060200201356105dc565b80610a5a8161266d565b915050610970565b6000610a708161080961190b565b60ca5460c9546101009184918791610a87916125cc565b610a9191906125cc565b610a9b91906125cc565b10610b0e5760405162461bcd60e51b815260206004820152603a60248201527f47656d73436174616c7973747352656769737472793a20546f6f206d616e792060448201527f67656d20616e6420636174616c79737420636f6e7472616374730000000000006064820152608401610673565b60005b84811015610c9a576000868683818110610b3b57634e487b7160e01b600052603260045260246000fd5b9050602002016020810190610b509190611ff8565b90506000816001600160a01b031663caafdcff6040518163ffffffff1660e01b8152600401602060405180830381600087803b158015610b8f57600080fd5b505af1158015610ba3573d6000803e3d6000fd5b505050506040513d601f19601f82011682018060405250810190610bc791906122f3565b60c954909150610bd89060016125cc565b8161ffff1614610c2a5760405162461bcd60e51b815260206004820152601360248201527f47454d5f49445f4e4f545f494e5f4f52444552000000000000000000000000006044820152606401610673565b5060c980546001810182556000919091527f66be4f155c5ef2ebd3772b228f2f00681e4ed5826cdb3b1943cc11ad15ad1d2801805473ffffffffffffffffffffffffffffffffffffffff19166001600160a01b039290921691909117905580610c928161266d565b915050610b11565b5060005b828110156107e3576000848483818110610cc857634e487b7160e01b600052603260045260246000fd5b9050602002016020810190610cdd9190611ff8565b90506000816001600160a01b031663c7165bbb6040518163ffffffff1660e01b8152600401602060405180830381600087803b158015610d1c57600080fd5b505af1158015610d30573d6000803e3d6000fd5b505050506040513d601f19601f82011682018060405250810190610d5491906122f3565b60ca54909150610d659060016125cc565b8161ffff1614610db75760405162461bcd60e51b815260206004820152601860248201527f434154414c5953545f49445f4e4f545f494e5f4f5244455200000000000000006044820152606401610673565b5060ca80546001810182556000919091527f42d72674974f694b5f5159593243114d38a5c39c89d6b62fee061ff523240ee101805473ffffffffffffffffffffffffffffffffffffffff19166001600160a01b039290921691909117905580610e1f8161266d565b915050610c9e565b82806001600160a01b0316610e3a61190b565b6001600160a01b03161480610e765750610e767fe43cbdacb5a27491c5b15dcd2ddf377fcc3cf337bd999d6a7acb8c882b5554cb61042061190b565b610ec25760405162461bcd60e51b815260206004820152601260248201527f415554485f4143434553535f44454e49454400000000000000000000000000006044820152606401610673565b6000610ecd84610f9e565b90506001600160a01b0381166106df5760405162461bcd60e51b815260206004820152601260248201527f47454d5f444f45535f4e4f545f455849535400000000000000000000000000006044820152606401610673565b610f2d61190b565b6001600160a01b0316610f3e6111f9565b6001600160a01b031614610f945760405162461bcd60e51b815260206004820181905260248201527f4f776e61626c653a2063616c6c6572206973206e6f7420746865206f776e65726044820152606401610673565b6105da6000611ade565b6000808261ffff16118015610fb9575060c95461ffff831611155b156110095760c9610fcb600184612603565b61ffff1681548110610fed57634e487b7160e01b600052603260045260246000fd5b6000918252602090912001546001600160a01b031690506105ad565b5060006105ad565b60008061101d83611580565b90506001600160a01b0381166110755760405162461bcd60e51b815260206004820152601760248201527f434154414c5953545f444f45535f4e4f545f45584953540000000000000000006044820152606401610673565b806001600160a01b03166309cba36b6040518163ffffffff1660e01b815260040160206040518083038186803b1580156110ae57600080fd5b505afa1580156110c2573d6000803e3d6000fd5b505050506040513d601f19601f820116820180604052508101906110e6919061235d565b9392505050565b606060006110fa86611580565b90506001600160a01b0381166111525760405162461bcd60e51b815260206004820152601760248201527f434154414c5953545f444f45535f4e4f545f45584953540000000000000000006044820152606401610673565b6040517f74903c860000000000000000000000000000000000000000000000000000000081526001600160a01b038216906374903c869061119b9088908890889060040161247c565b60006040518083038186803b1580156111b357600080fd5b505afa1580156111c7573d6000803e3d6000fd5b505050506040513d6000823e601f3d908101601f191682016040526111ef9190810190612175565b9695505050505050565b6033546001600160a01b03165b90565b6105da6000611708565b60008061121f83611580565b90506001600160a01b0381166112775760405162461bcd60e51b815260206004820152601760248201527f434154414c5953545f444f45535f4e4f545f45584953540000000000000000006044820152606401610673565b806001600160a01b031663f0141d846040518163ffffffff1660e01b815260040160206040518083038186803b1580156110ae57600080fd5b6000806105be83611580565b600054600160a81b900460ff166112f15760005474010000000000000000000000000000000000000000900460ff16156112f5565b303b155b6113675760405162461bcd60e51b815260206004820152602e60248201527f496e697469616c697a61626c653a20636f6e747261637420697320616c72656160448201527f647920696e697469616c697a65640000000000000000000000000000000000006064820152608401610673565b600054600160a81b900460ff161580156113e557600080547fffffffffffffffffffffff00ffffffffffffffffffffffffffffffffffffffff7fffffffffffffffffffff00ffffffffffffffffffffffffffffffffffffffffff909116600160a81b1716740100000000000000000000000000000000000000001790555b6113f0600083611b3d565b6000805473ffffffffffffffffffffffffffffffffffffffff19166001600160a01b038516179055611420611b47565b801561081857600080547fffffffffffffffffffff00ffffffffffffffffffffffffffffffffffffffffff169055505050565b6000828152609760205260409020600101546114718161080961190b565b6108188383611a3d565b61148361190b565b6001600160a01b03166114946111f9565b6001600160a01b0316146114ea5760405162461bcd60e51b815260206004820181905260248201527f4f776e61626c653a2063616c6c6572206973206e6f7420746865206f776e65726044820152606401610673565b6000805473ffffffffffffffffffffffffffffffffffffffff19166001600160a01b038316908117825560405190917f871264f4293af7d2865ae7eae628b228f4991c57cb45b39c99f0b774ebe2901891a250565b60005b838110156107e35761156e86868684818110610a0f57634e487b7160e01b600052603260045260246000fd5b806115788161266d565b915050611542565b6000808261ffff1611801561159b575060ca5461ffff831611155b156110095760ca610fcb600184612603565b6115b561190b565b6001600160a01b03166115c66111f9565b6001600160a01b03161461161c5760405162461bcd60e51b815260206004820181905260248201527f4f776e61626c653a2063616c6c6572206973206e6f7420746865206f776e65726044820152606401610673565b6001600160a01b0381166116985760405162461bcd60e51b815260206004820152602660248201527f4f776e61626c653a206e6577206f776e657220697320746865207a65726f206160448201527f64647265737300000000000000000000000000000000000000000000000000006064820152608401610673565b6116a181611ade565b50565b6000806116b083610f9e565b90506001600160a01b0381166112775760405162461bcd60e51b815260206004820152601260248201527f47454d5f444f45535f4e4f545f455849535400000000000000000000000000006044820152606401610673565b60005b60c9548110156118095760c9818154811061173657634e487b7160e01b600052603260045260246000fd5b6000918252602090912001546001600160a01b0316632b99174661175861190b565b6040517fffffffff0000000000000000000000000000000000000000000000000000000060e084901b1681526001600160a01b03909116600482015230602482015260448101859052606401602060405180830381600087803b1580156117be57600080fd5b505af11580156117d2573d6000803e3d6000fd5b505050506040513d601f19601f820116820180604052508101906117f6919061223b565b50806118018161266d565b91505061170b565b5060005b60ca548110156109695760ca818154811061183857634e487b7160e01b600052603260045260246000fd5b6000918252602090912001546001600160a01b0316632b99174661185a61190b565b6040517fffffffff0000000000000000000000000000000000000000000000000000000060e084901b1681526001600160a01b03909116600482015230602482015260448101859052606401602060405180830381600087803b1580156118c057600080fd5b505af11580156118d4573d6000803e3d6000fd5b505050506040513d601f19601f820116820180604052508101906118f8919061223b565b50806119038161266d565b91505061180d565b6000611915611bd6565b905090565b60008281526097602090815260408083206001600160a01b038516845290915290205460ff1661096957611958816001600160a01b03166014611c1e565b611963836020611c1e565b60405160200161197492919061237e565b60408051601f198184030181529082905262461bcd60e51b825261067391600401612449565b60008281526097602090815260408083206001600160a01b038516845290915290205460ff166109695760008281526097602090815260408083206001600160a01b03851684529091529020805460ff191660011790556119f961190b565b6001600160a01b0316816001600160a01b0316837f2f8788117e7eff1d82e926ec794901d17c78024a50270940304540a733656f0d60405160405180910390a45050565b60008281526097602090815260408083206001600160a01b038516845290915290205460ff16156109695760008281526097602090815260408083206001600160a01b03851684529091529020805460ff19169055611a9a61190b565b6001600160a01b0316816001600160a01b0316837ff6391f5c32d9c69d2a47ea670b442974b53935d1edc7fd64eb21e047a839171b60405160405180910390a45050565b603380546001600160a01b0383811673ffffffffffffffffffffffffffffffffffffffff19831681179093556040519116919082907f8be0079c531659141344cd1fd0a4f28419497f9722a3daafe3b4186f6b6457e090600090a35050565b610969828261199a565b600054600160a81b900460ff16611bc65760405162461bcd60e51b815260206004820152602b60248201527f496e697469616c697a61626c653a20636f6e7472616374206973206e6f74206960448201527f6e697469616c697a696e670000000000000000000000000000000000000000006064820152608401610673565b611bce611e8d565b6105da611f0c565b600080546001600160a01b0316331415611c1757507fffffffffffffffffffffffffffffffffffffffffffffffffffffffffffffffec36013560601c611206565b5033611206565b60606000611c2d8360026125e4565b611c389060026125cc565b67ffffffffffffffff811115611c5e57634e487b7160e01b600052604160045260246000fd5b6040519080825280601f01601f191660200182016040528015611c88576020820181803683370190505b5090507f300000000000000000000000000000000000000000000000000000000000000081600081518110611ccd57634e487b7160e01b600052603260045260246000fd5b60200101907effffffffffffffffffffffffffffffffffffffffffffffffffffffffffffff1916908160001a9053507f780000000000000000000000000000000000000000000000000000000000000081600181518110611d3e57634e487b7160e01b600052603260045260246000fd5b60200101907effffffffffffffffffffffffffffffffffffffffffffffffffffffffffffff1916908160001a9053506000611d7a8460026125e4565b611d859060016125cc565b90505b6001811115611e3e577f303132333435363738396162636465660000000000000000000000000000000085600f1660108110611dd457634e487b7160e01b600052603260045260246000fd5b1a60f81b828281518110611df857634e487b7160e01b600052603260045260246000fd5b60200101907effffffffffffffffffffffffffffffffffffffffffffffffffffffffffffff1916908160001a90535060049490941c93611e3781612656565b9050611d88565b5083156110e65760405162461bcd60e51b815260206004820181905260248201527f537472696e67733a20686578206c656e67746820696e73756666696369656e746044820152606401610673565b600054600160a81b900460ff166105da5760405162461bcd60e51b815260206004820152602b60248201527f496e697469616c697a61626c653a20636f6e7472616374206973206e6f74206960448201527f6e697469616c697a696e670000000000000000000000000000000000000000006064820152608401610673565b600054600160a81b900460ff16611f8b5760405162461bcd60e51b815260206004820152602b60248201527f496e697469616c697a61626c653a20636f6e7472616374206973206e6f74206960448201527f6e697469616c697a696e670000000000000000000000000000000000000000006064820152608401610673565b6105da611f9661190b565b611ade565b60008083601f840112611fac578081fd5b50813567ffffffffffffffff811115611fc3578182fd5b6020830191508360208083028501011115611fdd57600080fd5b9250929050565b805163ffffffff811681146105ad57600080fd5b600060208284031215612009578081fd5b81356110e6816126b4565b60008060408385031215612026578081fd5b8235612031816126b4565b91506020830135612041816126b4565b809150509250929050565b600080600080600060608688031215612063578081fd5b853561206e816126b4565b9450602086013567ffffffffffffffff8082111561208a578283fd5b61209689838a01611f9b565b909650945060408801359150808211156120ae578283fd5b506120bb88828901611f9b565b969995985093965092949392505050565b6000806000606084860312156120e0578283fd5b83356120eb816126b4565b925060208401356120fb816126c9565b929592945050506040919091013590565b60008060008060408587031215612121578384fd5b843567ffffffffffffffff80821115612138578586fd5b61214488838901611f9b565b9096509450602087013591508082111561215c578384fd5b5061216987828801611f9b565b95989497509550505050565b60006020808385031215612187578182fd5b825167ffffffffffffffff8082111561219e578384fd5b818501915085601f8301126121b1578384fd5b8151818111156121c3576121c361269e565b838102604051601f19603f830116810181811085821117156121e7576121e761269e565b604052828152858101935084860182860187018a1015612205578788fd5b8795505b8386101561222e5761221a81611fe4565b855260019590950194938601938601612209565b5098975050505050505050565b60006020828403121561224c578081fd5b815180151581146110e6578182fd5b60006020828403121561226c578081fd5b5035919050565b60008060408385031215612285578081fd5b823591506020830135612041816126b4565b6000602082840312156122a8578081fd5b81357fffffffff00000000000000000000000000000000000000000000000000000000811681146110e6578182fd5b6000602082840312156122e8578081fd5b81356110e6816126c9565b600060208284031215612304578081fd5b81516110e6816126c9565b60008060008060608587031215612324578182fd5b843561232f816126c9565b935060208501359250604085013567ffffffffffffffff811115612351578283fd5b61216987828801611f9b565b60006020828403121561236e578081fd5b815160ff811681146110e6578182fd5b60007f416363657373436f6e74726f6c3a206163636f756e7420000000000000000000825283516123b6816017850160208801612626565b7f206973206d697373696e6720726f6c652000000000000000000000000000000060179184019182015283516123f3816028840160208801612626565b01602801949350505050565b6020808252825182820181905260009190848201906040850190845b8181101561243d57835163ffffffff168352928401929184019160010161241b565b50909695505050505050565b6000602082528251806020840152612468816040850160208701612626565b601f01601f19169190910160400192915050565b83815260406020808301829052828201849052600091906060908185018682028601830188865b898110156125bc577fffffffffffffffffffffffffffffffffffffffffffffffffffffffffffffffa089840301845281357fffffffffffffffffffffffffffffffffffffffffffffffffffffffffffffffc18c3603018112612503578889fd5b8b018388018135368390037fffffffffffffffffffffffffffffffffffffffffffffffffffffffffffffffe101811261253a578a8bfd5b8201803567ffffffffffffffff811115612552578b8cfd5b8881023603841315612562578b8cfd5b8a8752918290528701908a908987015b8183101561259d578335612585816126c9565b61ffff16815292890192600192909201918901612572565b93890135968901969096525050938501939250908401906001016124a3565b50909a9950505050505050505050565b600082198211156125df576125df612688565b500190565b60008160001904831182151516156125fe576125fe612688565b500290565b600061ffff8381169083168181101561261e5761261e612688565b039392505050565b60005b83811015612641578181015183820152602001612629565b83811115612650576000848401525b50505050565b60008161266557612665612688565b506000190190565b600060001982141561268157612681612688565b5060010190565b634e487b7160e01b600052601160045260246000fd5b634e487b7160e01b600052604160045260246000fd5b6001600160a01b03811681146116a157600080fd5b61ffff811681146116a157600080fdfea2646970667358221220b457912bed59f0e80fc3a72492d77be1e5b1fb40db0bb225d5e7986b37c36dc964736f6c63430008020033",
  "devdoc": {
    "kind": "dev",
    "methods": {
      "addGemsAndCatalysts(address[],address[])": {
        "params": {
          "catalysts": "array of catalysts to be added",
          "gems": "array of gems to be added"
        }
      },
      "batchBurnCatalysts(address,uint16[],uint256[])": {
        "params": {
          "amounts": "list of amounts of units to burn",
          "catalystIds": "list of catalysts to burn catalyst units from each",
          "from": "address of the beneficiary to burn on behalf of"
        }
      },
      "batchBurnGems(address,uint16[],uint256[])": {
        "params": {
          "amounts": "list of amounts of units to burn",
          "from": "address of the beneficiary to burn on behalf of",
          "gemIds": "list of gems to burn gem units from each"
        }
      },
      "burnCatalyst(address,uint16,uint256)": {
        "params": {
          "amount": "The number of catalyst tokens to burn.",
          "catalystId": "The id of the catalyst to burn.",
          "from": "The signing address for the tx."
        }
      },
      "burnDifferentCatalysts(address,uint16[],uint256[])": {
        "params": {
          "amounts": "amount to burn",
          "catalystIds": "list of catalysts to burn",
          "from": "address of the beneficiary to burn on behalf of"
        }
      },
      "burnDifferentGems(address,uint16[],uint256[])": {
        "params": {
          "amounts": "amount units to burn",
          "from": "address of the beneficiary to burn on behalf of",
          "gemIds": "list of gems to burn one gem from each"
        }
      },
      "burnGem(address,uint16,uint256)": {
        "params": {
          "amount": "The number of gem tokens to burn.",
          "from": "The signing address for the tx.",
          "gemId": "The id of the gem to burn."
        }
      },
      "doesCatalystExist(uint16)": {
        "params": {
          "catalystId": "The catalyst being queried."
        },
        "returns": {
          "_0": "Whether the catalyst exists."
        }
      },
      "doesGemExist(uint16)": {
        "params": {
          "gemId": "The gem being queried."
        },
        "returns": {
          "_0": "Whether the gem exists."
        }
      },
      "getAttributes(uint16,uint256,(uint16[],bytes32)[])": {
        "params": {
          "assetId": "The asset tokenId.",
          "catalystId": "The catalyst identifier.",
          "events": "An array of GemEvents. Be aware that only gemEvents from the last CatalystApplied event onwards should be used to populate a query. If gemEvents from multiple CatalystApplied events are included the output values will be incorrect."
        },
        "returns": {
          "values": "An array of values for each gem present in the asset."
        }
      },
      "getCatalyst(uint16)": {
        "details": "Get the catalyst contract corresponding to the id.",
        "params": {
          "catalystId": "The catalyst id to use to retrieve the contract."
        },
        "returns": {
          "_0": "The requested Catalyst contract."
        }
      },
      "getCatalystDecimals(uint16)": {
        "params": {
          "catalystId": "catalyst identifier"
        }
      },
      "getGem(uint16)": {
        "details": "Get the gem contract corresponding to the id.",
        "params": {
          "gemId": "The gem id to use to retrieve the contract."
        },
        "returns": {
          "_0": "The requested Gem contract."
        }
      },
      "getGemDecimals(uint16)": {
        "params": {
          "gemId": "gem identifier"
        }
      },
      "getMaxGems(uint16)": {
        "params": {
          "catalystId": "catalyst identifier"
        }
      },
      "getRoleAdmin(bytes32)": {
        "details": "Returns the admin role that controls `role`. See {grantRole} and {revokeRole}. To change a role's admin, use {_setRoleAdmin}."
      },
      "grantRole(bytes32,address)": {
        "details": "Grants `role` to `account`. If `account` had not been already granted `role`, emits a {RoleGranted} event. Requirements: - the caller must have ``role``'s admin role."
      },
      "hasRole(bytes32,address)": {
        "details": "Returns `true` if `account` has been granted `role`."
      },
      "owner()": {
        "details": "Returns the address of the current owner."
      },
      "renounceOwnership()": {
        "details": "Leaves the contract without owner. It will not be possible to call `onlyOwner` functions anymore. Can only be called by the current owner. NOTE: Renouncing ownership will leave the contract without an owner, thereby removing any functionality that is only available to the owner."
      },
      "renounceRole(bytes32,address)": {
        "details": "Revokes `role` from the calling account. Roles are often managed via {grantRole} and {revokeRole}: this function's purpose is to provide a mechanism for accounts to lose their privileges if they are compromised (such as when a trusted device is misplaced). If the calling account had been revoked `role`, emits a {RoleRevoked} event. Requirements: - the caller must be `account`."
      },
      "revokeRole(bytes32,address)": {
        "details": "Revokes `role` from `account`. If `account` had been granted `role`, emits a {RoleRevoked} event. Requirements: - the caller must have ``role``'s admin role."
      },
      "setTrustedForwarder(address)": {
        "details": "Change the address of the trusted forwarder for meta-TX",
        "params": {
          "trustedForwarder": "The new trustedForwarder"
        }
      },
      "supportsInterface(bytes4)": {
        "details": "See {IERC165-supportsInterface}."
      },
      "transferOwnership(address)": {
        "details": "Transfers ownership of the contract to a new account (`newOwner`). Can only be called by the current owner."
      }
    },
    "version": 1
  },
  "userdoc": {
    "kind": "user",
    "methods": {
      "addGemsAndCatalysts(address[],address[])": {
        "notice": "Adds both arrays of gems and catalysts to registry"
      },
      "batchBurnCatalysts(address,uint16[],uint256[])": {
        "notice": "Burns few catalyst units from each catalyst id on behalf of a beneficiary"
      },
      "batchBurnGems(address,uint16[],uint256[])": {
        "notice": "Burns few gem units from each gem id on behalf of a beneficiary"
      },
      "burnCatalyst(address,uint16,uint256)": {
        "notice": "Burn a catalyst."
      },
      "burnDifferentCatalysts(address,uint16[],uint256[])": {
        "notice": "Burns one catalyst unit from each catalyst id on behalf of a beneficiary"
      },
      "burnDifferentGems(address,uint16[],uint256[])": {
        "notice": "Burns one gem unit from each gem id on behalf of a beneficiary"
      },
      "burnGem(address,uint16,uint256)": {
        "notice": "Burn a gem."
      },
      "doesCatalystExist(uint16)": {
        "notice": "Query whether a giving catalyst exists."
      },
      "doesGemExist(uint16)": {
        "notice": "Query whether a given gem exists."
      },
      "getAttributes(uint16,uint256,(uint16[],bytes32)[])": {
        "notice": "Returns the values for each gem included in a given asset."
      },
      "getCatalystDecimals(uint16)": {
        "notice": "Returns the decimals for a given catalyst"
      },
      "getGemDecimals(uint16)": {
        "notice": "Returns the decimals for a given gem"
      },
      "getMaxGems(uint16)": {
        "notice": "Returns the maximum number of gems for a given catalyst"
      }
    },
    "notice": "Contract managing the Gems and Catalysts Each Gems and Catalyst must be registered here. Each new Gem get assigned a new id (starting at 1) Each new Catalyst get assigned a new id (starting at 1)",
    "version": 1
  },
  "storageLayout": {
    "storage": [
      {
        "astId": 29481,
        "contract": "src/solc_0.8/catalyst/GemsCatalystsRegistry.sol:GemsCatalystsRegistry",
        "label": "_trustedForwarder",
        "offset": 0,
        "slot": "0",
        "type": "t_address"
      },
      {
        "astId": 5077,
        "contract": "src/solc_0.8/catalyst/GemsCatalystsRegistry.sol:GemsCatalystsRegistry",
        "label": "_initialized",
        "offset": 20,
        "slot": "0",
        "type": "t_bool"
      },
      {
        "astId": 5080,
        "contract": "src/solc_0.8/catalyst/GemsCatalystsRegistry.sol:GemsCatalystsRegistry",
        "label": "_initializing",
        "offset": 21,
        "slot": "0",
        "type": "t_bool"
      },
      {
        "astId": 6681,
        "contract": "src/solc_0.8/catalyst/GemsCatalystsRegistry.sol:GemsCatalystsRegistry",
        "label": "__gap",
        "offset": 0,
        "slot": "1",
        "type": "t_array(t_uint256)50_storage"
      },
      {
        "astId": 4854,
        "contract": "src/solc_0.8/catalyst/GemsCatalystsRegistry.sol:GemsCatalystsRegistry",
        "label": "_owner",
        "offset": 0,
        "slot": "51",
        "type": "t_address"
      },
      {
        "astId": 4968,
        "contract": "src/solc_0.8/catalyst/GemsCatalystsRegistry.sol:GemsCatalystsRegistry",
        "label": "__gap",
        "offset": 0,
        "slot": "52",
        "type": "t_array(t_uint256)49_storage"
      },
      {
        "astId": 7543,
        "contract": "src/solc_0.8/catalyst/GemsCatalystsRegistry.sol:GemsCatalystsRegistry",
        "label": "__gap",
        "offset": 0,
        "slot": "101",
        "type": "t_array(t_uint256)50_storage"
      },
      {
        "astId": 4482,
        "contract": "src/solc_0.8/catalyst/GemsCatalystsRegistry.sol:GemsCatalystsRegistry",
        "label": "_roles",
        "offset": 0,
        "slot": "151",
        "type": "t_mapping(t_bytes32,t_struct(RoleData)4477_storage)"
      },
      {
        "astId": 4769,
        "contract": "src/solc_0.8/catalyst/GemsCatalystsRegistry.sol:GemsCatalystsRegistry",
        "label": "__gap",
        "offset": 0,
        "slot": "152",
        "type": "t_array(t_uint256)49_storage"
      },
      {
        "astId": 25080,
        "contract": "src/solc_0.8/catalyst/GemsCatalystsRegistry.sol:GemsCatalystsRegistry",
        "label": "_gems",
        "offset": 0,
        "slot": "201",
        "type": "t_array(t_contract(IGem)26001)dyn_storage"
      },
      {
        "astId": 25084,
        "contract": "src/solc_0.8/catalyst/GemsCatalystsRegistry.sol:GemsCatalystsRegistry",
        "label": "_catalysts",
        "offset": 0,
        "slot": "202",
        "type": "t_array(t_contract(ICatalyst)25954)dyn_storage"
      }
    ],
    "types": {
      "t_address": {
        "encoding": "inplace",
        "label": "address",
        "numberOfBytes": "20"
      },
      "t_array(t_contract(ICatalyst)25954)dyn_storage": {
        "base": "t_contract(ICatalyst)25954",
        "encoding": "dynamic_array",
        "label": "contract ICatalyst[]",
        "numberOfBytes": "32"
      },
      "t_array(t_contract(IGem)26001)dyn_storage": {
        "base": "t_contract(IGem)26001",
        "encoding": "dynamic_array",
        "label": "contract IGem[]",
        "numberOfBytes": "32"
      },
      "t_array(t_uint256)49_storage": {
        "base": "t_uint256",
        "encoding": "inplace",
        "label": "uint256[49]",
        "numberOfBytes": "1568"
      },
      "t_array(t_uint256)50_storage": {
        "base": "t_uint256",
        "encoding": "inplace",
        "label": "uint256[50]",
        "numberOfBytes": "1600"
      },
      "t_bool": {
        "encoding": "inplace",
        "label": "bool",
        "numberOfBytes": "1"
      },
      "t_bytes32": {
        "encoding": "inplace",
        "label": "bytes32",
        "numberOfBytes": "32"
      },
      "t_contract(ICatalyst)25954": {
        "encoding": "inplace",
        "label": "contract ICatalyst",
        "numberOfBytes": "20"
      },
      "t_contract(IGem)26001": {
        "encoding": "inplace",
        "label": "contract IGem",
        "numberOfBytes": "20"
      },
      "t_mapping(t_address,t_bool)": {
        "encoding": "mapping",
        "key": "t_address",
        "label": "mapping(address => bool)",
        "numberOfBytes": "32",
        "value": "t_bool"
      },
      "t_mapping(t_bytes32,t_struct(RoleData)4477_storage)": {
        "encoding": "mapping",
        "key": "t_bytes32",
        "label": "mapping(bytes32 => struct AccessControlUpgradeable.RoleData)",
        "numberOfBytes": "32",
        "value": "t_struct(RoleData)4477_storage"
      },
      "t_struct(RoleData)4477_storage": {
        "encoding": "inplace",
        "label": "struct AccessControlUpgradeable.RoleData",
        "members": [
          {
            "astId": 4474,
            "contract": "src/solc_0.8/catalyst/GemsCatalystsRegistry.sol:GemsCatalystsRegistry",
            "label": "members",
            "offset": 0,
            "slot": "0",
            "type": "t_mapping(t_address,t_bool)"
          },
          {
            "astId": 4476,
            "contract": "src/solc_0.8/catalyst/GemsCatalystsRegistry.sol:GemsCatalystsRegistry",
            "label": "adminRole",
            "offset": 0,
            "slot": "1",
            "type": "t_bytes32"
          }
        ],
        "numberOfBytes": "64"
      },
      "t_uint256": {
        "encoding": "inplace",
        "label": "uint256",
        "numberOfBytes": "32"
      }
    }
  }
}