{
  "address": "0xD28870B33Ba77973044a4639c217934da51556c7",
  "abi": [
    {
      "inputs": [
        {
          "internalType": "address",
          "name": "_fxChild",
          "type": "address"
        },
        {
          "internalType": "contract IPolygonAssetERC1155",
          "name": "_childToken",
          "type": "address"
        },
        {
          "internalType": "address",
          "name": "trustedForwarder",
          "type": "address"
        },
        {
          "internalType": "uint256",
          "name": "_maxTransferLimit",
          "type": "uint256"
        }
      ],
      "stateMutability": "nonpayable",
      "type": "constructor"
    },
    {
      "anonymous": false,
      "inputs": [
        {
          "indexed": false,
          "internalType": "address",
          "name": "user",
          "type": "address"
        },
        {
          "indexed": false,
          "internalType": "uint256",
          "name": "id",
          "type": "uint256"
        },
        {
          "indexed": false,
          "internalType": "uint256",
          "name": "value",
          "type": "uint256"
        },
        {
          "indexed": false,
          "internalType": "bytes",
          "name": "data",
          "type": "bytes"
        }
      ],
      "name": "Deposit",
      "type": "event"
    },
    {
      "anonymous": false,
      "inputs": [
        {
          "indexed": false,
          "internalType": "bytes",
          "name": "message",
          "type": "bytes"
        }
      ],
      "name": "MessageSent",
      "type": "event"
    },
    {
      "anonymous": false,
      "inputs": [
        {
          "indexed": true,
          "internalType": "address",
          "name": "previousOwner",
          "type": "address"
        },
        {
          "indexed": true,
          "internalType": "address",
          "name": "newOwner",
          "type": "address"
        }
      ],
      "name": "OwnershipTransferred",
      "type": "event"
    },
    {
      "anonymous": false,
      "inputs": [
        {
          "indexed": false,
          "internalType": "address",
          "name": "account",
          "type": "address"
        }
      ],
      "name": "Paused",
      "type": "event"
    },
    {
      "anonymous": false,
      "inputs": [
        {
          "indexed": false,
          "internalType": "uint256",
          "name": "limit",
          "type": "uint256"
        }
      ],
      "name": "SetTransferLimit",
      "type": "event"
    },
    {
      "anonymous": false,
      "inputs": [
        {
          "indexed": false,
          "internalType": "address",
          "name": "account",
          "type": "address"
        }
      ],
      "name": "Unpaused",
      "type": "event"
    },
    {
      "anonymous": false,
      "inputs": [
        {
          "indexed": false,
          "internalType": "address",
          "name": "user",
          "type": "address"
        },
        {
          "indexed": false,
          "internalType": "uint256",
          "name": "id",
          "type": "uint256"
        },
        {
          "indexed": false,
          "internalType": "uint256",
          "name": "value",
          "type": "uint256"
        },
        {
          "indexed": false,
          "internalType": "bytes",
          "name": "data",
          "type": "bytes"
        }
      ],
      "name": "Withdraw",
      "type": "event"
    },
    {
      "inputs": [
        {
          "internalType": "address",
          "name": "to",
          "type": "address"
        },
        {
          "internalType": "uint256[]",
          "name": "ids",
          "type": "uint256[]"
        },
        {
          "internalType": "uint256[]",
          "name": "values",
          "type": "uint256[]"
        }
      ],
      "name": "batchWithdrawToRoot",
      "outputs": [],
      "stateMutability": "nonpayable",
      "type": "function"
    },
    {
      "inputs": [],
      "name": "childToken",
      "outputs": [
        {
          "internalType": "contract IPolygonAssetERC1155",
          "name": "",
          "type": "address"
        }
      ],
      "stateMutability": "view",
      "type": "function"
    },
    {
      "inputs": [],
      "name": "fxChild",
      "outputs": [
        {
          "internalType": "address",
          "name": "",
          "type": "address"
        }
      ],
      "stateMutability": "view",
      "type": "function"
    },
    {
      "inputs": [],
      "name": "fxRootTunnel",
      "outputs": [
        {
          "internalType": "address",
          "name": "",
          "type": "address"
        }
      ],
      "stateMutability": "view",
      "type": "function"
    },
    {
      "inputs": [],
      "name": "getTrustedForwarder",
      "outputs": [
        {
          "internalType": "address",
          "name": "trustedForwarder",
          "type": "address"
        }
      ],
      "stateMutability": "view",
      "type": "function"
    },
    {
      "inputs": [
        {
          "internalType": "address",
          "name": "forwarder",
          "type": "address"
        }
      ],
      "name": "isTrustedForwarder",
      "outputs": [
        {
          "internalType": "bool",
          "name": "",
          "type": "bool"
        }
      ],
      "stateMutability": "view",
      "type": "function"
    },
    {
      "inputs": [],
      "name": "maxTransferLimit",
      "outputs": [
        {
          "internalType": "uint256",
          "name": "",
          "type": "uint256"
        }
      ],
      "stateMutability": "view",
      "type": "function"
    },
    {
      "inputs": [
        {
          "internalType": "address",
          "name": "",
          "type": "address"
        },
        {
          "internalType": "address",
          "name": "",
          "type": "address"
        },
        {
          "internalType": "uint256[]",
          "name": "",
          "type": "uint256[]"
        },
        {
          "internalType": "uint256[]",
          "name": "",
          "type": "uint256[]"
        },
        {
          "internalType": "bytes",
          "name": "",
          "type": "bytes"
        }
      ],
      "name": "onERC1155BatchReceived",
      "outputs": [
        {
          "internalType": "bytes4",
          "name": "",
          "type": "bytes4"
        }
      ],
      "stateMutability": "view",
      "type": "function"
    },
    {
      "inputs": [
        {
          "internalType": "address",
          "name": "",
          "type": "address"
        },
        {
          "internalType": "address",
          "name": "",
          "type": "address"
        },
        {
          "internalType": "uint256",
          "name": "",
          "type": "uint256"
        },
        {
          "internalType": "uint256",
          "name": "",
          "type": "uint256"
        },
        {
          "internalType": "bytes",
          "name": "",
          "type": "bytes"
        }
      ],
      "name": "onERC1155Received",
      "outputs": [
        {
          "internalType": "bytes4",
          "name": "",
          "type": "bytes4"
        }
      ],
      "stateMutability": "view",
      "type": "function"
    },
    {
      "inputs": [],
      "name": "owner",
      "outputs": [
        {
          "internalType": "address",
          "name": "",
          "type": "address"
        }
      ],
      "stateMutability": "view",
      "type": "function"
    },
    {
      "inputs": [],
      "name": "pause",
      "outputs": [],
      "stateMutability": "nonpayable",
      "type": "function"
    },
    {
      "inputs": [],
      "name": "paused",
      "outputs": [
        {
          "internalType": "bool",
          "name": "",
          "type": "bool"
        }
      ],
      "stateMutability": "view",
      "type": "function"
    },
    {
      "inputs": [
        {
          "internalType": "uint256",
          "name": "stateId",
          "type": "uint256"
        },
        {
          "internalType": "address",
          "name": "rootMessageSender",
          "type": "address"
        },
        {
          "internalType": "bytes",
          "name": "data",
          "type": "bytes"
        }
      ],
      "name": "processMessageFromRoot",
      "outputs": [],
      "stateMutability": "nonpayable",
      "type": "function"
    },
    {
      "inputs": [],
      "name": "renounceOwnership",
      "outputs": [],
      "stateMutability": "nonpayable",
      "type": "function"
    },
    {
      "inputs": [
        {
          "internalType": "address",
          "name": "_fxRootTunnel",
          "type": "address"
        }
      ],
      "name": "setFxRootTunnel",
      "outputs": [],
      "stateMutability": "nonpayable",
      "type": "function"
    },
    {
      "inputs": [
        {
          "internalType": "uint256",
          "name": "_maxTransferLimit",
          "type": "uint256"
        }
      ],
      "name": "setTransferLimit",
      "outputs": [],
      "stateMutability": "nonpayable",
      "type": "function"
    },
    {
      "inputs": [
        {
          "internalType": "address",
          "name": "trustedForwarder",
          "type": "address"
        }
      ],
      "name": "setTrustedForwarder",
      "outputs": [],
      "stateMutability": "nonpayable",
      "type": "function"
    },
    {
      "inputs": [
        {
          "internalType": "bytes4",
          "name": "interfaceId",
          "type": "bytes4"
        }
      ],
      "name": "supportsInterface",
      "outputs": [
        {
          "internalType": "bool",
          "name": "",
          "type": "bool"
        }
      ],
      "stateMutability": "pure",
      "type": "function"
    },
    {
      "inputs": [
        {
          "internalType": "address",
          "name": "newOwner",
          "type": "address"
        }
      ],
      "name": "transferOwnership",
      "outputs": [],
      "stateMutability": "nonpayable",
      "type": "function"
    },
    {
      "inputs": [],
      "name": "unpause",
      "outputs": [],
      "stateMutability": "nonpayable",
      "type": "function"
    }
  ],
  "transactionHash": "0xa3f92ff13d66e9a439f64d74d9f6902c6404784f9b3e091eb68df316319f8d43",
  "args": [
    "0xCf73231F28B7331BBe3124B907840A94851f9f11",
    "0x93dFD2ed5b3FFbDaF52bd6cA1E0751cc3E51F787",
    "0x9399BB24DBB5C4b782C70c2969F58716Ebbd6a3b",
    20
  ],
  "numDeployments": 1,
  "solcInputHash": "371a1c7bc065c121c5374a99315a8141",
  "bytecode": "0x608060405260146005556006805460ff191690553480156200002057600080fd5b5060405162002247380380620022478339810160408190526200004391620001ef565b600080546001600160a01b0319166001600160a01b038616179055620000726200006c62000151565b6200016e565b6003805460ff60a01b191690556001600160a01b038316620001005760405162461bcd60e51b815260206004820152603460248201527f506f6c79676f6e41737365744552433131353554756e6e656c3a205f6368696c60448201527f64546f6b656e2063616e2774206265207a65726f000000000000000000000000606482015260840160405180910390fd5b600480546001600160a01b0319166001600160a01b03851617905560058190556200014782600280546001600160a01b0319166001600160a01b0392909216919091179055565b5050505062000261565b600062000168620001c060201b62000f641760201c565b90505b90565b600380546001600160a01b038381166001600160a01b0319831681179093556040519116919082907f8be0079c531659141344cd1fd0a4f28419497f9722a3daafe3b4186f6b6457e090600090a35050565b6002546000906001600160a01b0316331415620001e7575060131936013560601c6200016b565b50336200016b565b6000806000806080858703121562000205578384fd5b8451620002128162000248565b6020860151909450620002258162000248565b6040860151909350620002388162000248565b6060959095015193969295505050565b6001600160a01b03811681146200025e57600080fd5b50565b611fd680620002716000396000f3fe608060405234801561001057600080fd5b506004361061016c5760003560e01c80638da5cb5b116100cd578063ce1b815f11610081578063da74222811610066578063da742228146102f7578063f23a6e611461030a578063f2fde38b1461031d5761016c565b8063ce1b815f146102d3578063cf0927f5146102e45761016c565b8063ac0007de116100b2578063ac0007de14610265578063bc197c8114610278578063bd85e93b146102bc5761016c565b80638da5cb5b146102415780639a7c4b71146102525761016c565b8063715018a6116101245780637f1e9cb0116101095780637f1e9cb0146102135780638456cb5914610226578063888370941461022e5761016c565b8063715018a6146101f85780637a17feff146102005761016c565b8063450d11f011610155578063450d11f0146101a3578063572b6c05146101ce5780635c975abb146101f05761016c565b806301ffc9a7146101715780633f4ba83a14610199575b600080fd5b61018461017f366004611c3a565b610330565b60405190151581526020015b60405180910390f35b6101a16103c9565b005b6000546101b6906001600160a01b031681565b6040516001600160a01b039091168152602001610190565b6101846101dc3660046118af565b6002546001600160a01b0390811691161490565b610184610451565b6101a1610473565b6101a161020e366004611c7a565b6104f6565b6001546101b6906001600160a01b031681565b6101a16105ab565b6101a161023c3660046118af565b61062c565b6003546001600160a01b03166101b6565b6101a1610260366004611c92565b6106da565b6004546101b6906001600160a01b031681565b61028b6102863660046119bd565b6107a1565b6040517fffffffff000000000000000000000000000000000000000000000000000000009091168152602001610190565b6102c560055481565b604051908152602001610190565b6002546001600160a01b03166101b6565b6101a16102f2366004611af2565b61084f565b6101a16103053660046118af565b610d0f565b61028b610318366004611a78565b610db7565b6101a161032b3660046118af565b610e63565b60007f4e2312e0000000000000000000000000000000000000000000000000000000007fffffffff00000000000000000000000000000000000000000000000000000000831614806103c357507f01ffc9a7000000000000000000000000000000000000000000000000000000007fffffffff000000000000000000000000000000000000000000000000000000008316145b92915050565b6103d1610fae565b6001600160a01b03166103ec6003546001600160a01b031690565b6001600160a01b0316146104475760405162461bcd60e51b815260206004820181905260248201527f4f776e61626c653a2063616c6c6572206973206e6f7420746865206f776e657260448201526064015b60405180910390fd5b61044f610fbd565b565b60035474010000000000000000000000000000000000000000900460ff165b90565b61047b610fae565b6001600160a01b03166104966003546001600160a01b031690565b6001600160a01b0316146104ec5760405162461bcd60e51b815260206004820181905260248201527f4f776e61626c653a2063616c6c6572206973206e6f7420746865206f776e6572604482015260640161043e565b61044f600061107f565b6104fe610fae565b6001600160a01b03166105196003546001600160a01b031690565b6001600160a01b03161461056f5760405162461bcd60e51b815260206004820181905260248201527f4f776e61626c653a2063616c6c6572206973206e6f7420746865206f776e6572604482015260640161043e565b60058190556040518181527f3fc6a03e501b3ca46f5b6c08064272abf4e2b0d2bbdeeaeba4e4a4f22c9e616d906020015b60405180910390a150565b6105b3610fae565b6001600160a01b03166105ce6003546001600160a01b031690565b6001600160a01b0316146106245760405162461bcd60e51b815260206004820181905260248201527f4f776e61626c653a2063616c6c6572206973206e6f7420746865206f776e6572604482015260640161043e565b61044f6110de565b6001546001600160a01b0316156106ab5760405162461bcd60e51b815260206004820152602a60248201527f4678426173654368696c6454756e6e656c3a20524f4f545f54554e4e454c5f4160448201527f4c52454144595f53455400000000000000000000000000000000000000000000606482015260840161043e565b6001805473ffffffffffffffffffffffffffffffffffffffff19166001600160a01b0392909216919091179055565b6000546001600160a01b0316331461075a5760405162461bcd60e51b815260206004820152602160248201527f4678426173654368696c6454756e6e656c3a20494e56414c49445f53454e444560448201527f5200000000000000000000000000000000000000000000000000000000000000606482015260840161043e565b61079b848484848080601f01602080910402602001604051908101604052809392919081815260200183838082843760009201919091525061119b92505050565b50505050565b60065460009060ff1615156001146108215760405162461bcd60e51b815260206004820152603560248201527f506f6c79676f6e41737365744552433131353554756e6e656c3a2063616e277460448201527f206469726563746c792073656e64204173736574730000000000000000000000606482015260840161043e565b507fbc197c810000000000000000000000000000000000000000000000000000000098975050505050505050565b610857610451565b156108a45760405162461bcd60e51b815260206004820152601060248201527f5061757361626c653a2070617573656400000000000000000000000000000000604482015260640161043e565b6001600160a01b0385166109205760405162461bcd60e51b815260206004820152602b60248201527f506f6c79676f6e41737365744552433131353554756e6e656c3a20746f20636160448201527f6e2774206265207a65726f000000000000000000000000000000000000000000606482015260840161043e565b8261096d5760405162461bcd60e51b815260206004820152601160248201527f4d495353494e475f544f4b454e5f494453000000000000000000000000000000604482015260640161043e565b60055483106109be5760405162461bcd60e51b815260206004820152601660248201527f455843454544535f5452414e534645525f4c494d495400000000000000000000604482015260640161043e565b60008367ffffffffffffffff8111156109e757634e487b7160e01b600052604160045260246000fd5b604051908082528060200260200182016040528015610a10578160200160208202803683370190505b506006805460ff19166001179055905060005b84811015610ca7576004546000906001600160a01b031663219cc8bc888885818110610a5f57634e487b7160e01b600052603260045260246000fd5b905060200201356040518263ffffffff1660e01b8152600401610a8491815260200190565b602060405180830381600087803b158015610a9e57600080fd5b505af1158015610ab2573d6000803e3d6000fd5b505050506040513d601f19601f82011682018060405250810190610ad69190611c22565b905080838381518110610af957634e487b7160e01b600052603260045260246000fd5b602002602001018181525050600081604051602001610b1a91815260200190565b60408051601f198184030181529190526004549091506001600160a01b031663f242432a610b46610fae565b308b8b88818110610b6757634e487b7160e01b600052603260045260246000fd5b905060200201358a8a89818110610b8e57634e487b7160e01b600052603260045260246000fd5b9050602002013587604051602001610ba891815260200190565b6040516020818303038152906040526040518663ffffffff1660e01b8152600401610bd7959493929190611d65565b600060405180830381600087803b158015610bf157600080fd5b505af1158015610c05573d6000803e3d6000fd5b505050507f5b60e6b7a1385a03cd29f6ac8c80abbd3fe29663ec7d8bbe63bb79a35c176da489898986818110610c4b57634e487b7160e01b600052603260045260246000fd5b90506020020135888887818110610c7257634e487b7160e01b600052603260045260246000fd5b9050602002013584604051610c8a9493929190611dff565b60405180910390a150508080610c9f90611f26565b915050610a23565b506006805460ff19169055604051610d079087908790879087908790610cd1908890602001611e37565b60408051601f1981840301815290829052610cf3969594939291602001611da8565b604051602081830303815290604052611229565b505050505050565b610d17610fae565b6001600160a01b0316610d326003546001600160a01b031690565b6001600160a01b031614610d885760405162461bcd60e51b815260206004820181905260248201527f4f776e61626c653a2063616c6c6572206973206e6f7420746865206f776e6572604482015260640161043e565b6002805473ffffffffffffffffffffffffffffffffffffffff19166001600160a01b0392909216919091179055565b60065460009060ff161515600114610e375760405162461bcd60e51b815260206004820152603560248201527f506f6c79676f6e41737365744552433131353554756e6e656c3a2063616e277460448201527f206469726563746c792073656e64204173736574730000000000000000000000606482015260840161043e565b507ff23a6e61000000000000000000000000000000000000000000000000000000009695505050505050565b610e6b610fae565b6001600160a01b0316610e866003546001600160a01b031690565b6001600160a01b031614610edc5760405162461bcd60e51b815260206004820181905260248201527f4f776e61626c653a2063616c6c6572206973206e6f7420746865206f776e6572604482015260640161043e565b6001600160a01b038116610f585760405162461bcd60e51b815260206004820152602660248201527f4f776e61626c653a206e6577206f776e657220697320746865207a65726f206160448201527f6464726573730000000000000000000000000000000000000000000000000000606482015260840161043e565b610f618161107f565b50565b6002546000906001600160a01b0316331415610fa757507fffffffffffffffffffffffffffffffffffffffffffffffffffffffffffffffec36013560601c610470565b5033610470565b6000610fb8610f64565b905090565b610fc5610451565b6110115760405162461bcd60e51b815260206004820152601460248201527f5061757361626c653a206e6f7420706175736564000000000000000000000000604482015260640161043e565b600380547fffffffffffffffffffffff00ffffffffffffffffffffffffffffffffffffffff1690557f5db9ee0a495bf2e6ff9c91a7834c1ba4fdd244a5e8aa4e537bd38aeae4b073aa611062610fae565b6040516001600160a01b03909116815260200160405180910390a1565b600380546001600160a01b0383811673ffffffffffffffffffffffffffffffffffffffff19831681179093556040519116919082907f8be0079c531659141344cd1fd0a4f28419497f9722a3daafe3b4186f6b6457e090600090a35050565b6110e6610451565b156111335760405162461bcd60e51b815260206004820152601060248201527f5061757361626c653a2070617573656400000000000000000000000000000000604482015260640161043e565b600380547fffffffffffffffffffffff00ffffffffffffffffffffffffffffffffffffffff16740100000000000000000000000000000000000000001790557f62e78cea01bee320cd4e420270b5ea74000d11b0c9f74754ebdbfc544b05a258611062610fae565b60015482906001600160a01b038083169116146112205760405162461bcd60e51b815260206004820152602b60248201527f4678426173654368696c6454756e6e656c3a20494e56414c49445f53454e444560448201527f525f46524f4d5f524f4f54000000000000000000000000000000000000000000606482015260840161043e565b61079b82611258565b7f8c5261668696ce22758910d05bab8f186d6eb247ceac2af2e82c7dc17669b036816040516105a09190611e7b565b6000806000808480602001905181019061127291906118d2565b93509350935093506000818060200190518101906112909190611b72565b905060005b84518110156115565760008282815181106112c057634e487b7160e01b600052603260045260246000fd5b60200260200101516040516020016112da91815260200190565b60408051601f1981840301815291905260045487519192506001600160a01b03169063f6c983fb9088908590811061132257634e487b7160e01b600052603260045260246000fd5b60200260200101516040518263ffffffff1660e01b815260040161134891815260200190565b60206040518083038186803b15801561136057600080fd5b505afa158015611374573d6000803e3d6000fd5b505050506040513d601f19601f820116820180604052508101906113989190611c02565b156113fc576113f7878784815181106113c157634e487b7160e01b600052603260045260246000fd5b60200260200101518785815181106113e957634e487b7160e01b600052603260045260246000fd5b60200260200101518461155f565b6114b8565b60045486516001600160a01b039091169063731133e990899089908690811061143557634e487b7160e01b600052603260045260246000fd5b602002602001015188868151811061145d57634e487b7160e01b600052603260045260246000fd5b6020026020010151856040518563ffffffff1660e01b81526004016114859493929190611dff565b600060405180830381600087803b15801561149f57600080fd5b505af11580156114b3573d6000803e3d6000fd5b505050505b7f07c6d86eb9c47d0224ebbb590d5fbb1d9d0d7aca54f94611e5ed37a2c6ee20a7878784815181106114fa57634e487b7160e01b600052603260045260246000fd5b602002602001015187858151811061152257634e487b7160e01b600052603260045260246000fd5b60200260200101518460405161153b9493929190611dff565b60405180910390a1508061154e81611f26565b915050611295565b50505050505050565b600480546040517efdd58e0000000000000000000000000000000000000000000000000000000081523092810192909252602482018590526000916001600160a01b039091169062fdd58e9060440160206040518083038186803b1580156115c657600080fd5b505afa1580156115da573d6000803e3d6000fd5b505050506040513d601f19601f820116820180604052508101906115fe9190611c22565b905082811061168e57600480546040517ff242432a0000000000000000000000000000000000000000000000000000000081526001600160a01b039091169163f242432a916116579130918a918a918a918a9101611d65565b600060405180830381600087803b15801561167157600080fd5b505af1158015611685573d6000803e3d6000fd5b505050506117b3565b801561171757600480546040517ff242432a0000000000000000000000000000000000000000000000000000000081526001600160a01b039091169163f242432a916116e49130918a918a9188918a9101611d65565b600060405180830381600087803b1580156116fe57600080fd5b505af1158015611712573d6000803e3d6000fd5b505050505b6004546001600160a01b0316634091461386866117348588611ee3565b6040517fffffffff0000000000000000000000000000000000000000000000000000000060e086901b1681526001600160a01b03909316600484015260248301919091526044820152606401600060405180830381600087803b15801561179a57600080fd5b505af11580156117ae573d6000803e3d6000fd5b505050505b5050505050565b60008083601f8401126117cb578182fd5b50813567ffffffffffffffff8111156117e2578182fd5b60208301915083602080830285010111156117fc57600080fd5b9250929050565b600082601f830112611813578081fd5b8151602061182861182383611ebf565b611e8e565b8281528181019085830183850287018401881015611844578586fd5b855b8581101561186257815184529284019290840190600101611846565b5090979650505050505050565b60008083601f840112611880578182fd5b50813567ffffffffffffffff811115611897578182fd5b6020830191508360208285010111156117fc57600080fd5b6000602082840312156118c0578081fd5b81356118cb81611f8b565b9392505050565b600080600080608085870312156118e7578283fd5b84516118f281611f8b565b602086015190945067ffffffffffffffff8082111561190f578485fd5b61191b88838901611803565b94506040870151915080821115611930578384fd5b61193c88838901611803565b93506060870151915080821115611951578283fd5b818701915087601f830112611964578283fd5b81518181111561197657611976611f75565b6119896020601f19601f84011601611e8e565b915080825288602082850101111561199f578384fd5b6119b0816020840160208601611efa565b5094979396509194505050565b60008060008060008060008060a0898b0312156119d8578384fd5b88356119e381611f8b565b975060208901356119f381611f8b565b9650604089013567ffffffffffffffff80821115611a0f578586fd5b611a1b8c838d016117ba565b909850965060608b0135915080821115611a33578586fd5b611a3f8c838d016117ba565b909650945060808b0135915080821115611a57578384fd5b50611a648b828c0161186f565b999c989b5096995094979396929594505050565b60008060008060008060a08789031215611a90578182fd5b8635611a9b81611f8b565b95506020870135611aab81611f8b565b94506040870135935060608701359250608087013567ffffffffffffffff811115611ad4578283fd5b611ae089828a0161186f565b979a9699509497509295939492505050565b600080600080600060608688031215611b09578081fd5b8535611b1481611f8b565b9450602086013567ffffffffffffffff80821115611b30578283fd5b611b3c89838a016117ba565b90965094506040880135915080821115611b54578283fd5b50611b61888289016117ba565b969995985093965092949392505050565b60006020808385031215611b84578182fd5b825167ffffffffffffffff811115611b9a578283fd5b8301601f81018513611baa578283fd5b8051611bb861182382611ebf565b8181528381019083850185840285018601891015611bd4578687fd5b8694505b83851015611bf6578051835260019490940193918501918501611bd8565b50979650505050505050565b600060208284031215611c13578081fd5b815180151581146118cb578182fd5b600060208284031215611c33578081fd5b5051919050565b600060208284031215611c4b578081fd5b81357fffffffff00000000000000000000000000000000000000000000000000000000811681146118cb578182fd5b600060208284031215611c8b578081fd5b5035919050565b60008060008060608587031215611ca7578182fd5b843593506020850135611cb981611f8b565b9250604085013567ffffffffffffffff811115611cd4578283fd5b611ce08782880161186f565b95989497509550505050565b60008284527f07ffffffffffffffffffffffffffffffffffffffffffffffffffffffffffffff831115611d1d578081fd5b6020830280836020870137939093016020019283525090919050565b60008151808452611d51816020860160208601611efa565b601f01601f19169290920160200192915050565b60006001600160a01b03808816835280871660208401525084604083015283606083015260a06080830152611d9d60a0830184611d39565b979650505050505050565b60006001600160a01b038816825260806020830152611dcb608083018789611cec565b8281036040840152611dde818688611cec565b90508281036060840152611df28185611d39565b9998505050505050505050565b60006001600160a01b038616825284602083015283604083015260806060830152611e2d6080830184611d39565b9695505050505050565b6020808252825182820181905260009190848201906040850190845b81811015611e6f57835183529284019291840191600101611e53565b50909695505050505050565b6000602082526118cb6020830184611d39565b604051601f8201601f1916810167ffffffffffffffff81118282101715611eb757611eb7611f75565b604052919050565b600067ffffffffffffffff821115611ed957611ed9611f75565b5060209081020190565b600082821015611ef557611ef5611f5f565b500390565b60005b83811015611f15578181015183820152602001611efd565b8381111561079b5750506000910152565b60007fffffffffffffffffffffffffffffffffffffffffffffffffffffffffffffffff821415611f5857611f58611f5f565b5060010190565b634e487b7160e01b600052601160045260246000fd5b634e487b7160e01b600052604160045260246000fd5b6001600160a01b0381168114610f6157600080fdfea2646970667358221220eb9c42b37315e2bf8a0a47ee812e98ee5107842787123d3498c97e38ba9dc34064736f6c63430008020033",
  "devdoc": {
    "kind": "dev",
    "methods": {
      "owner()": {
        "details": "Returns the address of the current owner."
      },
      "pause()": {
        "details": "Pauses all token transfers across bridge"
      },
      "paused()": {
        "details": "Returns true if the contract is paused, and false otherwise."
      },
      "renounceOwnership()": {
        "details": "Leaves the contract without owner. It will not be possible to call `onlyOwner` functions anymore. Can only be called by the current owner. NOTE: Renouncing ownership will leave the contract without an owner, thereby removing any functionality that is only available to the owner."
      },
      "setTrustedForwarder(address)": {
        "details": "Change the address of the trusted forwarder for meta-TX",
        "params": {
          "trustedForwarder": "The new trustedForwarder"
        }
      },
      "supportsInterface(bytes4)": {
        "details": "Returns true if this contract implements the interface defined by `interfaceId`. See the corresponding https://eips.ethereum.org/EIPS/eip-165#how-interfaces-are-identified[EIP section] to learn more about how these ids are created. This function call must use less than 30 000 gas."
      },
      "transferOwnership(address)": {
        "details": "Transfers ownership of the contract to a new account (`newOwner`). Can only be called by the current owner."
      },
      "unpause()": {
        "details": "Unpauses all token transfers across bridge"
      }
    },
    "title": "ASSETERC1155 bridge on L2",
    "version": 1
  },
  "userdoc": {
    "kind": "user",
    "methods": {},
    "version": 1
  },
  "storageLayout": {
    "storage": [
      {
        "astId": 12474,
        "contract": "src/solc_0.8/polygon/child/asset/PolygonAssetERC1155Tunnel.sol:PolygonAssetERC1155Tunnel",
        "label": "fxChild",
        "offset": 0,
        "slot": "0",
        "type": "t_address"
      },
      {
        "astId": 12476,
        "contract": "src/solc_0.8/polygon/child/asset/PolygonAssetERC1155Tunnel.sol:PolygonAssetERC1155Tunnel",
        "label": "fxRootTunnel",
        "offset": 0,
        "slot": "1",
        "type": "t_address"
      },
      {
        "astId": 29686,
        "contract": "src/solc_0.8/polygon/child/asset/PolygonAssetERC1155Tunnel.sol:PolygonAssetERC1155Tunnel",
        "label": "_trustedForwarder",
        "offset": 0,
        "slot": "2",
        "type": "t_address"
      },
      {
        "astId": 539,
        "contract": "src/solc_0.8/polygon/child/asset/PolygonAssetERC1155Tunnel.sol:PolygonAssetERC1155Tunnel",
        "label": "_owner",
        "offset": 0,
        "slot": "3",
        "type": "t_address"
      },
      {
        "astId": 654,
        "contract": "src/solc_0.8/polygon/child/asset/PolygonAssetERC1155Tunnel.sol:PolygonAssetERC1155Tunnel",
        "label": "_paused",
        "offset": 20,
        "slot": "3",
        "type": "t_bool"
      },
      {
        "astId": 41389,
        "contract": "src/solc_0.8/polygon/child/asset/PolygonAssetERC1155Tunnel.sol:PolygonAssetERC1155Tunnel",
        "label": "childToken",
        "offset": 0,
        "slot": "4",
        "type": "t_contract(IPolygonAssetERC1155)36515"
      },
      {
        "astId": 41392,
        "contract": "src/solc_0.8/polygon/child/asset/PolygonAssetERC1155Tunnel.sol:PolygonAssetERC1155Tunnel",
        "label": "maxTransferLimit",
        "offset": 0,
        "slot": "5",
        "type": "t_uint256"
      },
      {
        "astId": 41395,
        "contract": "src/solc_0.8/polygon/child/asset/PolygonAssetERC1155Tunnel.sol:PolygonAssetERC1155Tunnel",
        "label": "fetchingAssets",
        "offset": 0,
        "slot": "6",
        "type": "t_bool"
      }
    ],
    "types": {
      "t_address": {
        "encoding": "inplace",
        "label": "address",
        "numberOfBytes": "20"
      },
      "t_bool": {
        "encoding": "inplace",
        "label": "bool",
        "numberOfBytes": "1"
      },
      "t_contract(IPolygonAssetERC1155)36515": {
        "encoding": "inplace",
        "label": "contract IPolygonAssetERC1155",
        "numberOfBytes": "20"
      },
      "t_uint256": {
        "encoding": "inplace",
        "label": "uint256",
        "numberOfBytes": "32"
      }
    }
  }
}