{
  "address": "0xF5769D7a18a4Af344D1592014d193EF217242fa9",
  "abi": [
    {
      "anonymous": false,
      "inputs": [
        {
          "indexed": false,
          "internalType": "address",
          "name": "oldAdmin",
          "type": "address"
        },
        {
          "indexed": false,
          "internalType": "address",
          "name": "newAdmin",
          "type": "address"
        }
      ],
      "name": "AdminChanged",
      "type": "event"
    },
    {
      "anonymous": false,
      "inputs": [
        {
          "indexed": true,
          "internalType": "address",
          "name": "owner",
          "type": "address"
        },
        {
          "indexed": true,
          "internalType": "address",
          "name": "approved",
          "type": "address"
        },
        {
          "indexed": true,
          "internalType": "uint256",
          "name": "tokenId",
          "type": "uint256"
        }
      ],
      "name": "Approval",
      "type": "event"
    },
    {
      "anonymous": false,
      "inputs": [
        {
          "indexed": true,
          "internalType": "address",
          "name": "owner",
          "type": "address"
        },
        {
          "indexed": true,
          "internalType": "address",
          "name": "operator",
          "type": "address"
        },
        {
          "indexed": false,
          "internalType": "bool",
          "name": "approved",
          "type": "bool"
        }
      ],
      "name": "ApprovalForAll",
      "type": "event"
    },
    {
      "anonymous": false,
      "inputs": [
        {
          "indexed": false,
          "internalType": "address",
          "name": "superOperator",
          "type": "address"
        },
        {
          "indexed": false,
          "internalType": "bool",
          "name": "enabled",
          "type": "bool"
        }
      ],
      "name": "SuperOperator",
      "type": "event"
    },
    {
      "anonymous": false,
      "inputs": [
        {
          "indexed": true,
          "internalType": "address",
          "name": "from",
          "type": "address"
        },
        {
          "indexed": true,
          "internalType": "address",
          "name": "to",
          "type": "address"
        },
        {
          "indexed": true,
          "internalType": "uint256",
          "name": "tokenId",
          "type": "uint256"
        }
      ],
      "name": "Transfer",
      "type": "event"
    },
    {
      "inputs": [
        {
          "internalType": "address",
          "name": "operator",
          "type": "address"
        },
        {
          "internalType": "uint256",
          "name": "id",
          "type": "uint256"
        }
      ],
      "name": "approve",
      "outputs": [],
      "stateMutability": "nonpayable",
      "type": "function"
    },
    {
      "inputs": [
        {
          "internalType": "address",
          "name": "sender",
          "type": "address"
        },
        {
          "internalType": "address",
          "name": "operator",
          "type": "address"
        },
        {
          "internalType": "uint256",
          "name": "id",
          "type": "uint256"
        }
      ],
      "name": "approveFor",
      "outputs": [],
      "stateMutability": "nonpayable",
      "type": "function"
    },
    {
      "inputs": [
        {
          "internalType": "address",
          "name": "owner",
          "type": "address"
        }
      ],
      "name": "balanceOf",
      "outputs": [
        {
          "internalType": "uint256",
          "name": "",
          "type": "uint256"
        }
      ],
      "stateMutability": "view",
      "type": "function"
    },
    {
      "inputs": [
        {
          "internalType": "address",
          "name": "from",
          "type": "address"
        },
        {
          "internalType": "address",
          "name": "to",
          "type": "address"
        },
        {
          "internalType": "uint256[]",
          "name": "ids",
          "type": "uint256[]"
        },
        {
          "internalType": "bytes",
          "name": "data",
          "type": "bytes"
        }
      ],
      "name": "batchTransferFrom",
      "outputs": [],
      "stateMutability": "nonpayable",
      "type": "function"
    },
    {
      "inputs": [
        {
          "internalType": "address",
          "name": "from",
          "type": "address"
        },
        {
          "internalType": "address",
          "name": "to",
          "type": "address"
        },
        {
          "internalType": "uint256[]",
          "name": "sizes",
          "type": "uint256[]"
        },
        {
          "internalType": "uint256[]",
          "name": "xs",
          "type": "uint256[]"
        },
        {
          "internalType": "uint256[]",
          "name": "ys",
          "type": "uint256[]"
        },
        {
          "internalType": "bytes",
          "name": "data",
          "type": "bytes"
        }
      ],
      "name": "batchTransferQuad",
      "outputs": [],
      "stateMutability": "nonpayable",
      "type": "function"
    },
    {
      "inputs": [
        {
          "internalType": "uint256",
          "name": "id",
          "type": "uint256"
        }
      ],
      "name": "burn",
      "outputs": [],
      "stateMutability": "nonpayable",
      "type": "function"
    },
    {
      "inputs": [
        {
          "internalType": "address",
          "name": "from",
          "type": "address"
        },
        {
          "internalType": "uint256",
          "name": "id",
          "type": "uint256"
        }
      ],
      "name": "burnFrom",
      "outputs": [],
      "stateMutability": "nonpayable",
      "type": "function"
    },
    {
      "inputs": [
        {
          "internalType": "address",
          "name": "newAdmin",
          "type": "address"
        }
      ],
      "name": "changeAdmin",
      "outputs": [],
      "stateMutability": "nonpayable",
      "type": "function"
    },
    {
      "inputs": [
        {
          "internalType": "uint256",
          "name": "size",
          "type": "uint256"
        },
        {
          "internalType": "uint256",
          "name": "x",
          "type": "uint256"
        },
        {
          "internalType": "uint256",
          "name": "y",
          "type": "uint256"
        }
      ],
      "name": "exists",
      "outputs": [
        {
          "internalType": "bool",
          "name": "",
          "type": "bool"
        }
      ],
      "stateMutability": "view",
      "type": "function"
    },
    {
      "inputs": [],
      "name": "getAdmin",
      "outputs": [
        {
          "internalType": "address",
          "name": "",
          "type": "address"
        }
      ],
      "stateMutability": "view",
      "type": "function"
    },
    {
      "inputs": [
        {
          "internalType": "uint256",
          "name": "id",
          "type": "uint256"
        }
      ],
      "name": "getApproved",
      "outputs": [
        {
          "internalType": "address",
          "name": "",
          "type": "address"
        }
      ],
      "stateMutability": "view",
      "type": "function"
    },
    {
      "inputs": [],
      "name": "getTrustedForwarder",
      "outputs": [
        {
          "internalType": "address",
          "name": "trustedForwarder",
          "type": "address"
        }
      ],
      "stateMutability": "view",
      "type": "function"
    },
    {
      "inputs": [
        {
          "internalType": "uint256",
          "name": "id",
          "type": "uint256"
        }
      ],
      "name": "getX",
      "outputs": [
        {
          "internalType": "uint256",
          "name": "",
          "type": "uint256"
        }
      ],
      "stateMutability": "view",
      "type": "function"
    },
    {
      "inputs": [
        {
          "internalType": "uint256",
          "name": "id",
          "type": "uint256"
        }
      ],
      "name": "getY",
      "outputs": [
        {
          "internalType": "uint256",
          "name": "",
          "type": "uint256"
        }
      ],
      "stateMutability": "view",
      "type": "function"
    },
    {
      "inputs": [],
      "name": "height",
      "outputs": [
        {
          "internalType": "uint256",
          "name": "",
          "type": "uint256"
        }
      ],
      "stateMutability": "pure",
      "type": "function"
    },
    {
      "inputs": [
        {
          "internalType": "address",
          "name": "trustedForwarder",
          "type": "address"
        }
      ],
      "name": "initialize",
      "outputs": [],
      "stateMutability": "nonpayable",
      "type": "function"
    },
    {
      "inputs": [
        {
          "internalType": "address",
          "name": "owner",
          "type": "address"
        },
        {
          "internalType": "address",
          "name": "operator",
          "type": "address"
        }
      ],
      "name": "isApprovedForAll",
      "outputs": [
        {
          "internalType": "bool",
          "name": "isOperator",
          "type": "bool"
        }
      ],
      "stateMutability": "view",
      "type": "function"
    },
    {
      "inputs": [
        {
          "internalType": "address",
          "name": "who",
          "type": "address"
        }
      ],
      "name": "isSuperOperator",
      "outputs": [
        {
          "internalType": "bool",
          "name": "",
          "type": "bool"
        }
      ],
      "stateMutability": "view",
      "type": "function"
    },
    {
      "inputs": [
        {
          "internalType": "address",
          "name": "forwarder",
          "type": "address"
        }
      ],
      "name": "isTrustedForwarder",
      "outputs": [
        {
          "internalType": "bool",
          "name": "",
          "type": "bool"
        }
      ],
      "stateMutability": "view",
      "type": "function"
    },
    {
      "inputs": [
        {
          "internalType": "address",
          "name": "user",
          "type": "address"
        },
        {
          "internalType": "uint256",
          "name": "size",
          "type": "uint256"
        },
        {
          "internalType": "uint256",
          "name": "x",
          "type": "uint256"
        },
        {
          "internalType": "uint256",
          "name": "y",
          "type": "uint256"
        },
        {
          "internalType": "bytes",
          "name": "data",
          "type": "bytes"
        }
      ],
      "name": "mint",
      "outputs": [],
      "stateMutability": "nonpayable",
      "type": "function"
    },
    {
      "inputs": [],
      "name": "name",
      "outputs": [
        {
          "internalType": "string",
          "name": "",
          "type": "string"
        }
      ],
      "stateMutability": "pure",
      "type": "function"
    },
    {
      "inputs": [
        {
          "internalType": "uint256",
          "name": "id",
          "type": "uint256"
        }
      ],
      "name": "ownerOf",
      "outputs": [
        {
          "internalType": "address",
          "name": "owner",
          "type": "address"
        }
      ],
      "stateMutability": "view",
      "type": "function"
    },
    {
      "inputs": [],
      "name": "polygonLandTunnel",
      "outputs": [
        {
          "internalType": "address",
          "name": "",
          "type": "address"
        }
      ],
      "stateMutability": "view",
      "type": "function"
    },
    {
      "inputs": [
        {
          "internalType": "address",
          "name": "from",
          "type": "address"
        },
        {
          "internalType": "address",
          "name": "to",
          "type": "address"
        },
        {
          "internalType": "uint256[]",
          "name": "ids",
          "type": "uint256[]"
        },
        {
          "internalType": "bytes",
          "name": "data",
          "type": "bytes"
        }
      ],
      "name": "safeBatchTransferFrom",
      "outputs": [],
      "stateMutability": "nonpayable",
      "type": "function"
    },
    {
      "inputs": [
        {
          "internalType": "address",
          "name": "from",
          "type": "address"
        },
        {
          "internalType": "address",
          "name": "to",
          "type": "address"
        },
        {
          "internalType": "uint256",
          "name": "id",
          "type": "uint256"
        }
      ],
      "name": "safeTransferFrom",
      "outputs": [],
      "stateMutability": "nonpayable",
      "type": "function"
    },
    {
      "inputs": [
        {
          "internalType": "address",
          "name": "from",
          "type": "address"
        },
        {
          "internalType": "address",
          "name": "to",
          "type": "address"
        },
        {
          "internalType": "uint256",
          "name": "id",
          "type": "uint256"
        },
        {
          "internalType": "bytes",
          "name": "data",
          "type": "bytes"
        }
      ],
      "name": "safeTransferFrom",
      "outputs": [],
      "stateMutability": "nonpayable",
      "type": "function"
    },
    {
      "inputs": [
        {
          "internalType": "address",
          "name": "operator",
          "type": "address"
        },
        {
          "internalType": "bool",
          "name": "approved",
          "type": "bool"
        }
      ],
      "name": "setApprovalForAll",
      "outputs": [],
      "stateMutability": "nonpayable",
      "type": "function"
    },
    {
      "inputs": [
        {
          "internalType": "address",
          "name": "sender",
          "type": "address"
        },
        {
          "internalType": "address",
          "name": "operator",
          "type": "address"
        },
        {
          "internalType": "bool",
          "name": "approved",
          "type": "bool"
        }
      ],
      "name": "setApprovalForAllFor",
      "outputs": [],
      "stateMutability": "nonpayable",
      "type": "function"
    },
    {
      "inputs": [
        {
          "internalType": "address",
          "name": "_polygonLandTunnel",
          "type": "address"
        }
      ],
      "name": "setPolygonLandTunnel",
      "outputs": [],
      "stateMutability": "nonpayable",
      "type": "function"
    },
    {
      "inputs": [
        {
          "internalType": "address",
          "name": "superOperator",
          "type": "address"
        },
        {
          "internalType": "bool",
          "name": "enabled",
          "type": "bool"
        }
      ],
      "name": "setSuperOperator",
      "outputs": [],
      "stateMutability": "nonpayable",
      "type": "function"
    },
    {
      "inputs": [
        {
          "internalType": "address",
          "name": "trustedForwarder",
          "type": "address"
        }
      ],
      "name": "setTrustedForwarder",
      "outputs": [],
      "stateMutability": "nonpayable",
      "type": "function"
    },
    {
      "inputs": [
        {
          "internalType": "bytes4",
          "name": "id",
          "type": "bytes4"
        }
      ],
      "name": "supportsInterface",
      "outputs": [
        {
          "internalType": "bool",
          "name": "",
          "type": "bool"
        }
      ],
      "stateMutability": "pure",
      "type": "function"
    },
    {
      "inputs": [],
      "name": "symbol",
      "outputs": [
        {
          "internalType": "string",
          "name": "",
          "type": "string"
        }
      ],
      "stateMutability": "pure",
      "type": "function"
    },
    {
      "inputs": [
        {
          "internalType": "uint256",
          "name": "id",
          "type": "uint256"
        }
      ],
      "name": "tokenURI",
      "outputs": [
        {
          "internalType": "string",
          "name": "",
          "type": "string"
        }
      ],
      "stateMutability": "view",
      "type": "function"
    },
    {
      "inputs": [
        {
          "internalType": "address",
          "name": "from",
          "type": "address"
        },
        {
          "internalType": "address",
          "name": "to",
          "type": "address"
        },
        {
          "internalType": "uint256",
          "name": "id",
          "type": "uint256"
        }
      ],
      "name": "transferFrom",
      "outputs": [],
      "stateMutability": "nonpayable",
      "type": "function"
    },
    {
      "inputs": [
        {
          "internalType": "address",
          "name": "from",
          "type": "address"
        },
        {
          "internalType": "address",
          "name": "to",
          "type": "address"
        },
        {
          "internalType": "uint256",
          "name": "size",
          "type": "uint256"
        },
        {
          "internalType": "uint256",
          "name": "x",
          "type": "uint256"
        },
        {
          "internalType": "uint256",
          "name": "y",
          "type": "uint256"
        },
        {
          "internalType": "bytes",
          "name": "data",
          "type": "bytes"
        }
      ],
      "name": "transferQuad",
      "outputs": [],
      "stateMutability": "nonpayable",
      "type": "function"
    },
    {
      "inputs": [],
      "name": "width",
      "outputs": [
        {
          "internalType": "uint256",
          "name": "",
          "type": "uint256"
        }
      ],
      "stateMutability": "pure",
      "type": "function"
    }
  ],
  "transactionHash": "0xc138464d6c5468d4d3dc3ce757927b753a0bfebc233f30b389061fe34d8951a0",
  "args": [],
  "solcInputHash": "019c77448ca0bfafc72cdd17615fc2f2",
  "bytecode": "0x608060405234801561001057600080fd5b506155ab80620000216000396000f3fe608060405234801561001057600080fd5b50600436106102775760003560e01c806379cc679011610160578063ac9fe421116100d8578063ce1b815f1161008c578063e985e9c511610071578063e985e9c514610570578063eaa5e06714610583578063eeb5a5d11461059657610277565b8063ce1b815f1461054c578063da7422281461055d57610277565b8063b88d4fde116100bd578063b88d4fde14610513578063c4d66de814610526578063c87b56dd1461053957610277565b8063ac9fe421146104ed578063b49c99b81461050057610277565b80638f2839701161012f5780639ededf77116101145780639ededf77146102f9578063a0c0fc0e146104c7578063a22cb465146104da57610277565b80638f2839701461047b57806395d89b411461048e57610277565b806379cc67901461042f5780637f87ec6814610442578063845a4697146104555780638e5cb5f61461046857610277565b806338bb305a116101f3578063572b6c05116101c2578063654b748a116101a7578063654b748a146103d85780636e9960c31461040457806370a082311461041c57610277565b8063572b6c05146103a35780636352211e146103c557610277565b806338bb305a1461035757806342842e0e1461036a57806342966c681461037d57806355064d851461039057610277565b80630ef267431161024a57806323b872dd1161022f57806323b872dd1461031e57806328cfbd46146103315780632b9917461461034457610277565b80630ef26743146102f957806315ddc5351461030b57610277565b806301ffc9a71461027c57806306fdde03146102a4578063081812fc146102b9578063095ea7b3146102e4575b600080fd5b61028f61028a366004615263565b6105a9565b60405190151581526020015b60405180910390f35b6102ac610648565b60405161029b9190615411565b6102cc6102c736600461529b565b610680565b6040516001600160a01b03909116815260200161029b565b6102f76102f23660046151d1565b61071f565b005b6101985b60405190815260200161029b565b6102f7610319366004614fb7565b610862565b6102f761032c366004615087565b6108dc565b6102f761033f366004614fb7565b610991565b6102f7610352366004615087565b610a06565b6102f7610365366004615128565b610b96565b6102f7610378366004615087565b610dee565b6102f761038b36600461529b565b610e09565b61028f61039e3660046152b3565b610e26565b61028f6103b1366004614e88565b6002546001600160a01b0390811691161490565b6102cc6103d336600461529b565b6113f0565b61028f6103e6366004614e88565b6001600160a01b031660009081526001602052604090205460ff1690565b6102cc6000546201000090046001600160a01b031690565b6102fd61042a366004614e88565b611453565b6102f761043d3660046151d1565b6114c7565b6038546102cc906001600160a01b031681565b6102fd61046336600461529b565b611624565b6102fd61047636600461529b565b611693565b6102f7610489366004614e88565b611702565b60408051808201909152600481527f4c414e440000000000000000000000000000000000000000000000000000000060208201526102ac565b6102f76104d5366004614e88565b6117ef565b6102f76104e83660046151a8565b6118d4565b6102f76104fb3660046151a8565b6118ea565b6102f761050e3660046151fa565b6119d3565b6102f76105213660046150c2565b611a4a565b6102f7610534366004614e88565b611ad7565b6102ac61054736600461529b565b611c0f565b6002546001600160a01b03166102cc565b6102f761056b366004614e88565b611ca2565b61028f61057e366004614ea2565b611d31565b6102f7610591366004614ed4565b611d88565b6102f76105a4366004615045565b6122f0565b60007f01ffc9a7000000000000000000000000000000000000000000000000000000006001600160e01b03198316148061060c57507f80ac58cd000000000000000000000000000000000000000000000000000000006001600160e01b03198316145b8061064057507f5b5e139f000000000000000000000000000000000000000000000000000000006001600160e01b03198316145b90505b919050565b60408051808201909152600f81527f53616e64626f782773204c414e4473000000000000000000000000000000000060208201525b90565b600080600061068e846123e1565b90925090506001600160a01b0382166106ee5760405162461bcd60e51b815260206004820152601160248201527f4e4f4e4558495354454e545f544f4b454e00000000000000000000000000000060448201526064015b60405180910390fd5b8015610714575050506000818152600660205260409020546001600160a01b0316610643565b600092505050610643565b60008181526004602052604081205490610738836126d1565b905060006107446129ab565b90506001600160a01b03821661079c5760405162461bcd60e51b815260206004820152601160248201527f4e4f4e4558495354454e545f544f4b454e00000000000000000000000000000060448201526064016106e5565b806001600160a01b0316826001600160a01b031614806107d457506001600160a01b03811660009081526001602052604090205460ff165b8061080457506001600160a01b0380831660009081526005602090815260408083209385168352929052205460ff165b6108505760405162461bcd60e51b815260206004820152601560248201527f554e415554484f52495a45445f415050524f56414c000000000000000000000060448201526064016106e5565b61085b8386866129f5565b5050505050565b6108d4868686868080602002602001604051908101604052809392919081815260200183836020028082843760009201919091525050604080516020601f8a01819004810282018101909252888152925088915087908190840183828082843760009201829052509250612aab915050565b505050505050565b6108e7838383612e6f565b506108f3838383613087565b6001600160a01b0382163b151580156109185750610918826317a2fd9160e21b613145565b1561098c576109406109286129ab565b8484846040518060200160405280600081525061320c565b61098c5760405162461bcd60e51b815260206004820152601860248201527f4552433732315f5452414e534645525f52454a4543544544000000000000000060448201526064016106e5565b505050565b6108d4868686868080602002602001604051908101604052809392919081815260200183836020028082843760009201919091525050604080516020601f8a01819004810282018101909252888152925088915087908190840183828082843760009201919091525060019250612aab915050565b60008181526004602052604081205490610a1e6129ab565b90506001600160a01b038516610a765760405162461bcd60e51b815260206004820152601360248201527f5a45524f5f414444524553535f53454e4445520000000000000000000000000060448201526064016106e5565b846001600160a01b0316816001600160a01b03161480610aae57506001600160a01b03811660009081526001602052604090205460ff165b80610ade57506001600160a01b0380861660009081526005602090815260408083209385168352929052205460ff165b610b2a5760405162461bcd60e51b815260206004820152601560248201527f554e415554484f52495a45445f415050524f56414c000000000000000000000060448201526064016106e5565b846001600160a01b0316826001600160a01b031614610b8b5760405162461bcd60e51b815260206004820152601060248201527f4f574e45525f4e4f545f53454e4445520000000000000000000000000000000060448201526064016106e5565b61085b8285856129f5565b6001600160a01b038716610bec5760405162461bcd60e51b815260206004820152601460248201527f66726f6d206973207a65726f206164647265737300000000000000000000000060448201526064016106e5565b6001600160a01b038616610c425760405162461bcd60e51b815260206004820152601a60248201527f63616e27742073656e6420746f207a65726f206164647265737300000000000060448201526064016106e5565b866001600160a01b0316610c546129ab565b6001600160a01b031614610d1c5760016000610c6e6129ab565b6001600160a01b0316815260208101919091526040016000205460ff1680610cd057506001600160a01b038716600090815260056020526040812090610cb26129ab565b6001600160a01b0316815260208101919091526040016000205460ff165b610d1c5760405162461bcd60e51b815260206004820152601e60248201527f6e6f7420617574686f72697a656420746f207472616e7366657251756164000060448201526064016106e5565b610d2987878787876132cc565b610d338580615475565b6001600160a01b03881660009081526003602052604081208054909190610d5b908490615494565b90915550610d6b90508580615475565b6001600160a01b03871660009081526003602052604081208054909190610d93908490615424565b90915550610de59050610da46129ab565b888888888888888080601f01602080910402602001604051908101604052809392919081815260200183838082843760009201919091525061345292505050565b50505050505050565b61098c83838360405180602001604052806000815250611a4a565b610e23610e146129ab565b610e1d836126d1565b836135b6565b50565b6000610e328484615509565b158015610e465750610e448483615509565b155b610e925760405162461bcd60e51b815260206004820152601360248201527f496e76616c696420636f6f7264696e617465730000000000000000000000000060448201526064016106e5565b610e9e84610198615494565b8311158015610eb85750610eb484610198615494565b8211155b610f045760405162461bcd60e51b815260206004820152600d60248201527f4f7574206f6620626f756e64730000000000000000000000000000000000000060448201526064016106e5565b600080610f1361019885615475565b610f1d9086615424565b90508560011415610f3057809150610fdb565b8560031415610f4e57610f4781600160f81b615424565b9150610fdb565b8560061415610f6557610f4781600160f91b615424565b85600c1415610f7c57610f4781600360f81b615424565b8560181415610f9357610f4781600160fa1b615424565b60405162461bcd60e51b815260206004820152600c60248201527f496e76616c69642073697a65000000000000000000000000000000000000000060448201526064016106e5565b60046000610198610fed601888615461565b610ff8906018615475565b6110029190615475565b61100d601889615461565b611018906018615475565b61102690600160fa1b615424565b6110309190615424565b815260200190815260200160002054600014611051576001925050506113e9565b600061105d8787615424565b9050600061106b8887615424565b9050600c88116110f25760046000610198611087600c8a615461565b61109290600c615475565b61109c9190615475565b6110a7600c8b615461565b6110b290600c615475565b6110c090600360f81b615424565b6110ca9190615424565b8152602001908152602001600020546000146110ed5760019450505050506113e9565b61117b565b865b8281101561117957865b8281101561116657600061111461019883615475565b61112284600360f81b615424565b61112c9190615424565b600081815260046020526040902054909150156111535760019750505050505050506113e9565b5061115f600c82615424565b90506110fe565b50611172600c82615424565b90506110f4565b505b60068811611200576004600061019861119560068a615461565b6111a0906006615475565b6111aa9190615475565b6111b560068b615461565b6111c0906006615475565b6111ce90600160f91b615424565b6111d89190615424565b8152602001908152602001600020546000146111fb5760019450505050506113e9565b611289565b865b8281101561128757865b8281101561127457600061122261019883615475565b61123084600160f91b615424565b61123a9190615424565b600081815260046020526040902054909150156112615760019750505050505050506113e9565b5061126d600682615424565b905061120c565b50611280600682615424565b9050611202565b505b6003881161130e57600460006101986112a360038a615461565b6112ae906003615475565b6112b89190615475565b6112c360038b615461565b6112ce906003615475565b6112dc90600160f81b615424565b6112e69190615424565b8152602001908152602001600020546000146113095760019450505050506113e9565b611397565b865b8281101561139557865b8281101561138257600061133061019883615475565b61133e84600160f81b615424565b6113489190615424565b6000818152600460205260409020549091501561136f5760019750505050505050506113e9565b5061137b600382615424565b905061131a565b5061138e600382615424565b9050611310565b505b60005b6113a48980615475565b8110156113df57600084815260046020526040902054156113cd576001955050505050506113e9565b806113d7816154ee565b91505061139a565b5060009450505050505b9392505050565b60006113fb826126d1565b90506001600160a01b0381166106435760405162461bcd60e51b815260206004820152601160248201527f4e4f4e4558495354414e545f544f4b454e00000000000000000000000000000060448201526064016106e5565b60006001600160a01b0382166114ab5760405162461bcd60e51b815260206004820152601260248201527f5a45524f5f414444524553535f4f574e4552000000000000000000000000000060448201526064016106e5565b506001600160a01b031660009081526003602052604090205490565b6001600160a01b03821661151d5760405162461bcd60e51b815260206004820152601460248201527f4e4f545f46524f4d5f5a45524f4144445245535300000000000000000000000060448201526064016106e5565b600080611529836123e1565b9150915060006115376129ab565b9050846001600160a01b0316816001600160a01b0316148061157a575081801561157a57506000848152600660205260409020546001600160a01b038281169116145b8061159d57506001600160a01b03811660009081526001602052604090205460ff165b806115cd57506001600160a01b0380861660009081526005602090815260408083209385168352929052205460ff165b6116195760405162461bcd60e51b815260206004820152601160248201527f554e415554484f52495a45445f4255524e00000000000000000000000000000060448201526064016106e5565b61085b8584866135b6565b600080611630836126d1565b6001600160a01b031614156116875760405162461bcd60e51b815260206004820152601460248201527f746f6b656e20646f6573206e6f7420657869737400000000000000000000000060448201526064016106e5565b61064061019883615461565b60008061169f836126d1565b6001600160a01b031614156116f65760405162461bcd60e51b815260206004820152601460248201527f746f6b656e20646f6573206e6f7420657869737400000000000000000000000060448201526064016106e5565b61064061019883615509565b6000546201000090046001600160a01b031633146117625760405162461bcd60e51b815260206004820152601360248201527f41444d494e5f4143434553535f44454e4945440000000000000000000000000060448201526064016106e5565b600054604080516001600160a01b03620100009093048316815291831660208301527f7e644d79422f17c01e4894b5f4f588d331ebfa28653d42ae832dc59e38c9798f910160405180910390a1600080546001600160a01b0390921662010000027fffffffffffffffffffff0000000000000000000000000000000000000000ffff909216919091179055565b6000546201000090046001600160a01b0316331461184f5760405162461bcd60e51b815260206004820152600a60248201527f41444d494e5f4f4e4c590000000000000000000000000000000000000000000060448201526064016106e5565b6001600160a01b0381166118a55760405162461bcd60e51b815260206004820152601c60248201527f506f6c79676f6e4c616e643a20496e76616c696420616464726573730000000060448201526064016106e5565b6038805473ffffffffffffffffffffffffffffffffffffffff19166001600160a01b0392909216919091179055565b6118e66118df6129ab565b83836136be565b5050565b6000546201000090046001600160a01b031633146119705760405162461bcd60e51b815260206004820152602c60248201527f6f6e6c792061646d696e20697320616c6c6f77656420746f206164642073757060448201527f6572206f70657261746f7273000000000000000000000000000000000000000060648201526084016106e5565b6001600160a01b038216600081815260016020908152604091829020805460ff19168515159081179091558251938452908301527f44f92d27abdf4cfb6a7d712c3af68f3be086d4ca747ab802c36f67d6790060d8910160405180910390a15050565b6038546001600160a01b03166119e76129ab565b6001600160a01b031614611a3d5760405162461bcd60e51b815260206004820152600e60248201527f496e76616c69642073656e64657200000000000000000000000000000000000060448201526064016106e5565b61085b8585858585613794565b611a55848484612e6f565b50611a61848484613087565b6001600160a01b0383163b15611ad157611a85611a7c6129ab565b8585858561320c565b611ad15760405162461bcd60e51b815260206004820152601860248201527f4552433732315f5452414e534645525f52454a4543544544000000000000000060448201526064016106e5565b50505050565b600054610100900460ff16611af25760005460ff1615611af6565b303b155b611b685760405162461bcd60e51b815260206004820152602e60248201527f496e697469616c697a61626c653a20636f6e747261637420697320616c72656160448201527f647920696e697469616c697a656400000000000000000000000000000000000060648201526084016106e5565b600054610100900460ff16158015611b93576000805460ff1961ff0019909116610100171660011790555b611b9b6129ab565b600080546001600160a01b0392831662010000027fffffffffffffffffffff0000000000000000000000000000000000000000ffff9091161790556002805473ffffffffffffffffffffffffffffffffffffffff191691841691909117905580156118e6576000805461ff00191690555050565b60606000611c1c836126d1565b6001600160a01b03161415611c735760405162461bcd60e51b815260206004820152601160248201527f496420646f6573206e6f7420657869737400000000000000000000000000000060448201526064016106e5565b611c7c82613fe8565b604051602001611c8c919061530a565b6040516020818303038152906040529050919050565b6000546201000090046001600160a01b03163314611d025760405162461bcd60e51b815260206004820152600a60248201527f41444d494e5f4f4e4c590000000000000000000000000000000000000000000060448201526064016106e5565b6002805473ffffffffffffffffffffffffffffffffffffffff19166001600160a01b0392909216919091179055565b6001600160a01b03808316600090815260056020908152604080832093851683529290529081205460ff1680611d7f57506001600160a01b03821660009081526001602052604090205460ff165b90505b92915050565b6001600160a01b038a16611dde5760405162461bcd60e51b815260206004820152601460248201527f66726f6d206973207a65726f206164647265737300000000000000000000000060448201526064016106e5565b6001600160a01b038916611e345760405162461bcd60e51b815260206004820152601a60248201527f63616e27742073656e6420746f207a65726f206164647265737300000000000060448201526064016106e5565b8685148015611e4257508483145b611e8e5760405162461bcd60e51b815260206004820152600c60248201527f696e76616c69642064617461000000000000000000000000000000000000000060448201526064016106e5565b896001600160a01b0316611ea06129ab565b6001600160a01b031614611f8d5760016000611eba6129ab565b6001600160a01b0316815260208101919091526040016000205460ff1680611f1c57506001600160a01b038a16600090815260056020526040812090611efe6129ab565b6001600160a01b0316815260208101919091526040016000205460ff165b611f8d5760405162461bcd60e51b8152602060048201526024808201527f6e6f7420617574686f72697a656420746f207472616e736665724d756c74695160448201527f756164730000000000000000000000000000000000000000000000000000000060648201526084016106e5565b6000805b888110156120475760008a8a83818110611fbb57634e487b7160e01b600052603260045260246000fd5b90506020020135905061201d8d8d838c8c87818110611fea57634e487b7160e01b600052603260045260246000fd5b905060200201358b8b8881811061201157634e487b7160e01b600052603260045260246000fd5b905060200201356132cc565b6120278180615475565b6120319084615424565b925050808061203f906154ee565b915050611f91565b506001600160a01b038b1660009081526003602052604081208054839290612070908490615494565b90915550506001600160a01b038a166000908152600360205260408120805483929061209d908490615424565b90915550506001600160a01b038a163b151580156120c757506120c78a6317a2fd9160e21b613145565b156122e35760008167ffffffffffffffff8111156120f557634e487b7160e01b600052604160045260246000fd5b60405190808252806020026020018201604052801561211e578160200160208202803683370190505b5090506000805b8a8110156122245760008c8c8381811061214f57634e487b7160e01b600052603260045260246000fd5b90506020020135905060005b6121658280615475565b81101561220f576121c481838e8e8781811061219157634e487b7160e01b600052603260045260246000fd5b905060200201358d8d888181106121b857634e487b7160e01b600052603260045260246000fd5b90506020020135614162565b8585815181106121e457634e487b7160e01b600052603260045260246000fd5b6020908102919091010152836121f9816154ee565b9450508080612207906154ee565b91505061215b565b5050808061221c906154ee565b915050612125565b5061226f6122306129ab565b8e8e8589898080601f01602080910402602001604051908101604052809392919081815260200183838082843760009201919091525061420592505050565b6122e05760405162461bcd60e51b8152602060048201526024808201527f657263373231206261746368207472616e736665722072656a6563746564206260448201527f7920746f0000000000000000000000000000000000000000000000000000000060648201526084016106e5565b50505b5050505050505050505050565b6001600160a01b0383166123465760405162461bcd60e51b815260206004820152601660248201527f496e76616c69642073656e64657220616464726573730000000000000000000060448201526064016106e5565b60006123506129ab565b9050836001600160a01b0316816001600160a01b0316148061238a57506001600160a01b03811660009081526001602052604090205460ff165b6123d65760405162461bcd60e51b815260206004820152601c60248201527f554e415554484f52495a45445f415050524f56455f464f525f414c4c0000000060448201526064016106e5565b611ad18484846136be565b6000807fff000000000000000000000000000000000000000000000000000000000000008316156124545760405162461bcd60e51b815260206004820152601060248201527f496e76616c696420746f6b656e2069640000000000000000000000000000000060448201526064016106e5565b600061246261019885615509565b9050600061247261019886615461565b6000868152600460205260409020549091507401000000000000000000000000000000000000000080821614156124b35760009450600160ff1b8082161493505b80156124cc57809450600160ff1b8082161493506126c9565b60006004816101986124df600387615461565b6124ea906003615475565b6124f49190615475565b6124ff600388615461565b61250a906003615475565b61251890600160f81b615424565b6125229190615424565b815260208101919091526040016000205490506001600160a01b0381161561255057809550600094506126c7565b6000600481610198612563600688615461565b61256e906006615475565b6125789190615475565b612583600689615461565b61258e906006615475565b61259c90600160f91b615424565b6125a69190615424565b815260208101919091526040016000205490506001600160a01b038116156125d457809650600095506126c5565b60006004816101986125e7600c89615461565b6125f290600c615475565b6125fc9190615475565b612607600c8a615461565b61261290600c615475565b61262090600360f81b615424565b61262a9190615424565b815260208101919091526040016000205490506001600160a01b0381161561265857809750600096506126c3565b6004600061019861266a601889615461565b612675906018615475565b61267f9190615475565b61268a60188a615461565b612695906018615475565b6126a390600160fa1b615424565b6126ad9190615424565b8152602001908152602001600020549750600096505b505b505b505b505050915091565b60007fff000000000000000000000000000000000000000000000000000000000000008216156127435760405162461bcd60e51b815260206004820152601060248201527f496e76616c696420746f6b656e2069640000000000000000000000000000000060448201526064016106e5565b600061275161019884615509565b9050600061276161019885615461565b60008581526004602052604090205490915074010000000000000000000000000000000000000000808216141561279e5760009350505050610643565b80156127ae579250610643915050565b60006004816101986127c1600387615461565b6127cc906003615475565b6127d69190615475565b6127e1600388615461565b6127ec906003615475565b6127fa90600160f81b615424565b6128049190615424565b815260208101919091526040016000205490506001600160a01b0381161561283157935061064392505050565b6000600481610198612844600688615461565b61284f906006615475565b6128599190615475565b612864600689615461565b61286f906006615475565b61287d90600160f91b615424565b6128879190615424565b815260208101919091526040016000205490506001600160a01b038116156128b55794506106439350505050565b60006004816101986128c8600c89615461565b6128d390600c615475565b6128dd9190615475565b6128e8600c8a615461565b6128f390600c615475565b61290190600360f81b615424565b61290b9190615424565b815260208101919091526040016000205490506001600160a01b0381161561293a579550610643945050505050565b6004600061019861294c601889615461565b612957906018615475565b6129619190615475565b61296c60188a615461565b612977906018615475565b61298590600160fa1b615424565b61298f9190615424565b8152602001908152602001600020549650505050505050610643565b6002546000906001600160a01b03163314156129ee57507fffffffffffffffffffffffffffffffffffffffffffffffffffffffffffffffec36013560601c61067d565b503361067d565b6000612a00826126d1565b90506001600160a01b038316612a2257612a1d82858360006142c4565b612a64565b612a2f82858360016142c4565b6000828152600660205260409020805473ffffffffffffffffffffffffffffffffffffffff19166001600160a01b0385161790555b81836001600160a01b0316826001600160a01b03167f8c5be1e5ebec7d5bd14f71427d1e84f3dd0314c0f7b2291e5b200ac8c7c3b92560405160405180910390a450505050565b6000612ab56129ab565b90506000866001600160a01b0316826001600160a01b03161480612af157506001600160a01b03821660009081526001602052604090205460ff165b80612b2157506001600160a01b0380881660009081526005602090815260408083209386168352929052205460ff165b90506001600160a01b038716612b795760405162461bcd60e51b815260206004820152601460248201527f4e4f545f46524f4d5f5a45524f4144445245535300000000000000000000000060448201526064016106e5565b6001600160a01b038616612bcf5760405162461bcd60e51b815260206004820152601260248201527f4e4f545f544f5f5a45524f41444452455353000000000000000000000000000060448201526064016106e5565b845160005b81811015612d66576000878281518110612bfe57634e487b7160e01b600052603260045260246000fd5b60200260200101519050600080612c14836123e1565b915091508b6001600160a01b0316826001600160a01b031614612c795760405162461bcd60e51b815260206004820152601b60248201527f42415443485452414e5346455246524f4d5f4e4f545f4f574e4552000000000060448201526064016106e5565b8580612ca65750808015612ca657506000838152600660205260409020546001600160a01b038881169116145b612cf25760405162461bcd60e51b815260206004820152600e60248201527f4e4f545f415554484f52495a454400000000000000000000000000000000000060448201526064016106e5565b600083815260046020526040812054612d0f918591908e906142c4565b828b6001600160a01b03168d6001600160a01b03167fddf252ad1be2c89b69c2b068fc378daa952ba7f163c4a11628f55a4df523b3ef60405160405180910390a45050508080612d5e906154ee565b915050612bd4565b50866001600160a01b0316886001600160a01b031614612ddb576001600160a01b03881660009081526003602052604081208054839290612da8908490615494565b90915550506001600160a01b03871660009081526003602052604081208054839290612dd5908490615424565b90915550505b6001600160a01b0387163b15158015612e0757508380612e075750612e07876317a2fd9160e21b613145565b15612e6557612e198389898989614205565b612e655760405162461bcd60e51b815260206004820152601e60248201527f4552433732315f42415443485f5452414e534645525f52454a4543544544000060448201526064016106e5565b5050505050505050565b6000806000612e7d846123e1565b915091506000612e8b6129ab565b90506001600160a01b038316612ee35760405162461bcd60e51b815260206004820152601160248201527f4e4f4e4558495354454e545f544f4b454e00000000000000000000000000000060448201526064016106e5565b866001600160a01b0316836001600160a01b031614612f445760405162461bcd60e51b815260206004820152601760248201527f434845434b5452414e534645525f4e4f545f4f574e455200000000000000000060448201526064016106e5565b6001600160a01b038616612f9a5760405162461bcd60e51b815260206004820152601260248201527f4e4f545f544f5f5a45524f41444452455353000000000000000000000000000060448201526064016106e5565b826001600160a01b0316816001600160a01b03161480612fd257506001600160a01b03811660009081526001602052604090205460ff165b8061300257506001600160a01b0380881660009081526005602090815260408083209385168352929052205460ff165b8061302e575081801561302e57506000858152600660205260409020546001600160a01b038281169116145b61307a5760405162461bcd60e51b815260206004820152601560248201527f554e415554484f52495a45445f5452414e53464552000000000000000000000060448201526064016106e5565b5060019695505050505050565b6001600160a01b03831660009081526003602052604081208054916130ab836154d7565b90915550506001600160a01b03821660009081526003602052604081208054916130d4836154ee565b91905055506130ff81600460006130e88590565b8152602001908152602001600020548460006142c4565b80826001600160a01b0316846001600160a01b03167fddf252ad1be2c89b69c2b068fc378daa952ba7f163c4a11628f55a4df523b3ef60405160405180910390a4505050565b604080516001600160e01b031983166024808301919091528251808303909101815260449091018252602080820180517bffffffffffffffffffffffffffffffffffffffffffffffffffffffff167f01ffc9a7000000000000000000000000000000000000000000000000000000001781528251935160008082529485948594909392908183858c612710fa955080519450505050609e5a116131f857634e487b7160e01b600052600160045260246000fd5b8280156132025750815b9695505050505050565b600080846001600160a01b031663150b7a02888887876040518563ffffffff1660e01b815260040161324194939291906153df565b602060405180830381600087803b15801561325b57600080fd5b505af115801561326f573d6000803e3d6000fd5b505050506040513d601f19601f82011682018060405250810190613293919061527f565b6001600160e01b0319167f150b7a0200000000000000000000000000000000000000000000000000000000149150505b95945050505050565b82600114156133d35760006132e361019883615475565b6132ed9084615424565b905060006132fa826126d1565b90506001600160a01b0381166133525760405162461bcd60e51b815260206004820152601460248201527f746f6b656e20646f6573206e6f7420657869737400000000000000000000000060448201526064016106e5565b866001600160a01b0316816001600160a01b0316146133b35760405162461bcd60e51b815260206004820152601a60248201527f6e6f74206f776e657220696e205f7472616e736665725175616400000000000060448201526064016106e5565b5060009081526004602052604090206001600160a01b03851690556133e0565b6133e08585858585614357565b60005b6133ed8480615475565b8110156108d45761340081858585614162565b856001600160a01b0316876001600160a01b03167fddf252ad1be2c89b69c2b068fc378daa952ba7f163c4a11628f55a4df523b3ef60405160405180910390a48061344a816154ee565b9150506133e3565b6001600160a01b0385163b151580156134775750613477856317a2fd9160e21b613145565b15610de55760006134888580615475565b67ffffffffffffffff8111156134ae57634e487b7160e01b600052604160045260246000fd5b6040519080825280602002602001820160405280156134d7578160200160208202803683370190505b50905060005b6134e78680615475565b811015613537576134fa81878787614162565b82828151811061351a57634e487b7160e01b600052603260045260246000fd5b60209081029190910101528061352f816154ee565b9150506134dd565b506135458888888486614205565b612e655760405162461bcd60e51b8152602060048201526024808201527f657263373231206261746368207472616e736665722072656a6563746564206260448201527f7920746f0000000000000000000000000000000000000000000000000000000060648201526084016106e5565b816001600160a01b0316836001600160a01b0316146136175760405162461bcd60e51b815260206004820152600960248201527f4e4f545f4f574e4552000000000000000000000000000000000000000000000060448201526064016106e5565b807401000000000000000000000000000000000000000061363d6001600160ff1b615494565b6000838152600460209081526040808320805494909416949094179092556001600160a01b0387168152600390915290812080549161367b836154d7565b909155505060405182906000906001600160a01b038716907fddf252ad1be2c89b69c2b068fc378daa952ba7f163c4a11628f55a4df523b3ef908390a450505050565b6001600160a01b03821660009081526001602052604090205460ff16156137275760405162461bcd60e51b815260206004820152601760248201527f494e56414c49445f415050524f56414c5f4348414e474500000000000000000060448201526064016106e5565b6001600160a01b03838116600081815260056020908152604080832094871680845294825291829020805460ff191686151590811790915591519182527f17307eab39ab6107e8899845ad3d59bd9653f200f220920489ca2b5937696c31910160405180910390a3505050565b6001600160a01b0385166137ea5760405162461bcd60e51b815260206004820152601260248201527f746f206973207a65726f2061646472657373000000000000000000000000000060448201526064016106e5565b6137f48484615509565b15801561380857506138068483615509565b155b6138545760405162461bcd60e51b815260206004820152601360248201527f496e76616c696420636f6f7264696e617465730000000000000000000000000060448201526064016106e5565b61386084610198615494565b831115801561387a575061387684610198615494565b8211155b6138c65760405162461bcd60e51b815260206004820152600d60248201527f4f7574206f6620626f756e64730000000000000000000000000000000000000060448201526064016106e5565b6000806138d561019885615475565b6138df9086615424565b905085600114156138f257809150613955565b85600314156139105761390981600160f81b615424565b9150613955565b85600614156139275761390981600160f91b615424565b85600c141561393e5761390981600360f81b615424565b8560181415610f935761390981600160fa1b615424565b60046000610198613967601888615461565b613972906018615475565b61397c9190615475565b613987601889615461565b613992906018615475565b6139a090600160fa1b615424565b6139aa9190615424565b815260200190815260200160002054600014613a085760405162461bcd60e51b815260206004820152601760248201527f416c7265616479206d696e74656420617320323478323400000000000000000060448201526064016106e5565b6000613a148787615424565b90506000613a228887615424565b9050600c8811613ae45760046000610198613a3e600c8a615461565b613a4990600c615475565b613a539190615475565b613a5e600c8b615461565b613a6990600c615475565b613a7790600360f81b615424565b613a819190615424565b815260200190815260200160002054600014613adf5760405162461bcd60e51b815260206004820152601760248201527f416c7265616479206d696e74656420617320313278313200000000000000000060448201526064016106e5565b613ba5565b865b82811015613ba357865b82811015613b90576000613b0661019883615475565b613b1484600360f81b615424565b613b1e9190615424565b60008181526004602052604090205490915015613b7d5760405162461bcd60e51b815260206004820152601760248201527f416c7265616479206d696e74656420617320313278313200000000000000000060448201526064016106e5565b50613b89600c82615424565b9050613af0565b50613b9c600c82615424565b9050613ae6565b505b60068811613c655760046000610198613bbf60068a615461565b613bca906006615475565b613bd49190615475565b613bdf60068b615461565b613bea906006615475565b613bf890600160f91b615424565b613c029190615424565b815260200190815260200160002054600014613c605760405162461bcd60e51b815260206004820152601560248201527f416c7265616479206d696e74656420617320367836000000000000000000000060448201526064016106e5565b613d26565b865b82811015613d2457865b82811015613d11576000613c8761019883615475565b613c9584600160f91b615424565b613c9f9190615424565b60008181526004602052604090205490915015613cfe5760405162461bcd60e51b815260206004820152601560248201527f416c7265616479206d696e74656420617320367836000000000000000000000060448201526064016106e5565b50613d0a600682615424565b9050613c71565b50613d1d600682615424565b9050613c67565b505b60038811613de65760046000610198613d4060038a615461565b613d4b906003615475565b613d559190615475565b613d6060038b615461565b613d6b906003615475565b613d7990600160f81b615424565b613d839190615424565b815260200190815260200160002054600014613de15760405162461bcd60e51b815260206004820152601560248201527f416c7265616479206d696e74656420617320337833000000000000000000000060448201526064016106e5565b613ea7565b865b82811015613ea557865b82811015613e92576000613e0861019883615475565b613e1684600160f81b615424565b613e209190615424565b60008181526004602052604090205490915015613e7f5760405162461bcd60e51b815260206004820152601560248201527f416c7265616479206d696e74656420617320337833000000000000000000000060448201526064016106e5565b50613e8b600382615424565b9050613df2565b50613e9e600382615424565b9050613de8565b505b60005b613eb48980615475565b811015613f73576000613ec9828b8b8b614162565b60008681526004602052604090205490915015613f285760405162461bcd60e51b815260206004820152600e60248201527f416c7265616479206d696e74656400000000000000000000000000000000000060448201526064016106e5565b60405181906001600160a01b038d16906000907fddf252ad1be2c89b69c2b068fc378daa952ba7f163c4a11628f55a4df523b3ef908290a45080613f6b816154ee565b915050613eaa565b5060008481526004602052604090206001600160a01b038a169055613f988880615475565b6001600160a01b038a1660009081526003602052604081208054909190613fc0908490615424565b90915550613fdd9050613fd16129ab565b60008b8b8b8b8b613452565b505050505050505050565b606081614029575060408051808201909152600181527f30000000000000000000000000000000000000000000000000000000000000006020820152610643565b8160005b8115614053578061403d816154ee565b915061404c9050600a83615461565b915061402d565b60008167ffffffffffffffff81111561407c57634e487b7160e01b600052604160045260246000fd5b6040519080825280601f01601f1916602001820160405280156140a6576020820181803683370190505b509050815b8515614159576140bc600182615494565b905060006140cb600a88615461565b6140d690600a615475565b6140e09088615494565b6140eb90603061543c565b905060008160f81b90508084848151811061411657634e487b7160e01b600052603260045260246000fd5b60200101907effffffffffffffffffffffffffffffffffffffffffffffffffffffffffffff1916908160001a905350614150600a89615461565b975050506140ab565b50949350505050565b60008061416f8587615461565b905061417c600282615509565b6141bd5761019861418d8285615424565b6141979190615475565b6141a18688615509565b6141ab9086615424565b6141b59190615424565b9150506141fd565b6101986141ca8285615424565b6141d49190615475565b6141de8688615509565b6141e9906001615424565b6141f38787615424565b6141ab9190615494565b949350505050565b600080846001600160a01b0316634b808c46888887876040518563ffffffff1660e01b815260040161423a9493929190615376565b602060405180830381600087803b15801561425457600080fd5b505af1158015614268573d6000803e3d6000fd5b505050506040513d601f19601f8201168201806040525081019061428c919061527f565b6001600160e01b0319167f4b808c46000000000000000000000000000000000000000000000000000000001491505095945050505050565b8015614308576000848152600460205260409020600160ff1b6001600160a01b03841673ffffffffffffffffffffffffffffffffffffffff19861617179055611ad1565b6001600160a01b0382166143216001600160ff1b615494565b841673ffffffffffffffffffffffffffffffffffffffff1916176004600086815260208101919091526040016000205550505050565b6143618383615509565b15801561437557506143738382615509565b155b6143c15760405162461bcd60e51b815260206004820152601360248201527f496e76616c696420636f6f7264696e617465730000000000000000000000000060448201526064016106e5565b6143cd83610198615494565b82111580156143e757506143e383610198615494565b8111155b6144335760405162461bcd60e51b815260206004820152600d60248201527f4f7574206f6620626f756e64730000000000000000000000000000000000000060448201526064016106e5565b82600314156144505761444a858584846001614495565b5061085b565b82600614156144675761444a858584846001614766565b82600c141561447e5761444a858584846001614902565b8260181415610f935761444a858584846001614a9e565b6000806144a461019885615475565b6144ae9086615424565b905060006144c082600160f81b615424565b90506001865b6144d1886003615424565b81101561453b57865b6144e5886003615424565b8110156145285761450b8b6144fc61019884615475565b6145069085615424565b614cb9565b80156145145750825b925080614520816154ee565b9150506144da565b5080614533816154ee565b9150506144c6565b50841561475a5780614735576000828152600460205260409020546001600160a01b038a1614806145d757506001600160a01b0389166004600061019861458360068b615461565b61458e906006615475565b6145989190615475565b6145a360068c615461565b6145ae906006615475565b6145bc90600160f91b615424565b6145c69190615424565b815260200190815260200160002054145b8061464d57506001600160a01b038916600460006101986145f9600c8b615461565b61460490600c615475565b61460e9190615475565b614619600c8c615461565b61462490600c615475565b61463290600360f81b615424565b61463c9190615424565b815260200190815260200160002054145b806146c357506001600160a01b0389166004600061019861466f60188b615461565b61467a906018615475565b6146849190615475565b61468f60188c615461565b61469a906018615475565b6146a890600160fa1b615424565b6146b29190615424565b815260200190815260200160002054145b6147355760405162461bcd60e51b815260206004820152602b60248201527f6e6f74206f776e6572206f6620616c6c20737562207175616473206e6f72207060448201527f6172656e7420717561647300000000000000000000000000000000000000000060648201526084016106e5565b5060009081526004602052604090206001600160a01b038716905550600190506132c3565b98975050505050505050565b60008061477561019885615475565b61477f9086615424565b9050600061479182600160f91b615424565b90506001865b6147a2886006615424565b8110156148ba57865b6147b6886006615424565b8110156148a75760006147cd8c8c85856000614495565b905060006147dd61019884615475565b6147eb85600160f81b615424565b6147f59190615424565b600081815260046020526040902054909150801561487a578261486a578d6001600160a01b0316811461486a5760405162461bcd60e51b815260206004820152601560248201527f6e6f74206f776e6572206f66203378332071756164000000000000000000000060448201526064016106e5565b6000828152600460205260408120555b828061488557508015155b801561488e5750855b95505050506003816148a09190615424565b90506147ab565b506148b3600382615424565b9050614797565b50841561475a5780614735576000828152600460205260409020546001600160a01b038a16148061464d57506001600160a01b038916600460006101986145f9600c8b615461565b60008061491161019885615475565b61491b9086615424565b9050600061492d82600360f81b615424565b90506001865b61493e88600c615424565b811015614a5657865b61495288600c615424565b811015614a435760006149698c8c85856000614766565b9050600061497961019884615475565b61498785600160f91b615424565b6149919190615424565b6000818152600460205260409020549091508015614a165782614a06578d6001600160a01b03168114614a065760405162461bcd60e51b815260206004820152601560248201527f6e6f74206f776e6572206f66203678362071756164000000000000000000000060448201526064016106e5565b6000828152600460205260408120555b8280614a2157508015155b8015614a2a5750855b9550505050600681614a3c9190615424565b9050614947565b50614a4f600682615424565b9050614933565b50841561475a5780614735576000828152600460205260409020546001600160a01b038a1614806146c357506001600160a01b0389166004600061019861466f60188b615461565b600080614aad61019885615475565b614ab79086615424565b90506000614ac982600160fa1b615424565b90506001865b614ada886018615424565b811015614bf257865b614aee886018615424565b811015614bdf576000614b058c8c85856000614902565b90506000614b1561019884615475565b614b2385600360f81b615424565b614b2d9190615424565b6000818152600460205260409020549091508015614bb25782614ba2578d6001600160a01b03168114614ba25760405162461bcd60e51b815260206004820152601760248201527f6e6f74206f776e6572206f66203132783132207175616400000000000000000060448201526064016106e5565b6000828152600460205260408120555b8280614bbd57508015155b8015614bc65750855b9550505050600c81614bd89190615424565b9050614ae3565b50614beb600c82615424565b9050614acf565b508415614c8a5780614735576000828152600460205260409020546001600160a01b038a16146147355760405162461bcd60e51b815260206004820152602a60248201527f6e6f74206f776e6572206f6620616c6c20737562207175616473206e6f74207060448201527f6172656e7420717561640000000000000000000000000000000000000000000060648201526084016106e5565b8080614cac57506000828152600460205260409020546001600160a01b038a16145b9998505050505050505050565b6000818152600460205260408120548015614d4757836001600160a01b0316816001600160a01b031614614d2f5760405162461bcd60e51b815260206004820152600960248201527f6e6f74206f776e6572000000000000000000000000000000000000000000000060448201526064016106e5565b50506000818152600460205260408120556001611d82565b5060009392505050565b80356001600160a01b038116811461064357600080fd5b60008083601f840112614d79578081fd5b50813567ffffffffffffffff811115614d90578182fd5b6020830191508360208083028501011115614daa57600080fd5b9250929050565b8035801515811461064357600080fd5b60008083601f840112614dd2578182fd5b50813567ffffffffffffffff811115614de9578182fd5b602083019150836020828501011115614daa57600080fd5b600082601f830112614e11578081fd5b813567ffffffffffffffff80821115614e2c57614e2c615549565b604051601f8301601f19908116603f01168101908282118183101715614e5457614e54615549565b81604052838152866020858801011115614e6c578485fd5b8360208701602083013792830160200193909352509392505050565b600060208284031215614e99578081fd5b611d7f82614d51565b60008060408385031215614eb4578081fd5b614ebd83614d51565b9150614ecb60208401614d51565b90509250929050565b60008060008060008060008060008060c08b8d031215614ef2578586fd5b614efb8b614d51565b9950614f0960208c01614d51565b985060408b013567ffffffffffffffff80821115614f25578788fd5b614f318e838f01614d68565b909a50985060608d0135915080821115614f49578788fd5b614f558e838f01614d68565b909850965060808d0135915080821115614f6d578586fd5b614f798e838f01614d68565b909650945060a08d0135915080821115614f91578384fd5b50614f9e8d828e01614dc1565b915080935050809150509295989b9194979a5092959850565b60008060008060008060808789031215614fcf578182fd5b614fd887614d51565b9550614fe660208801614d51565b9450604087013567ffffffffffffffff80821115615002578384fd5b61500e8a838b01614d68565b90965094506060890135915080821115615026578384fd5b5061503389828a01614dc1565b979a9699509497509295939492505050565b600080600060608486031215615059578283fd5b61506284614d51565b925061507060208501614d51565b915061507e60408501614db1565b90509250925092565b60008060006060848603121561509b578283fd5b6150a484614d51565b92506150b260208501614d51565b9150604084013590509250925092565b600080600080608085870312156150d7578384fd5b6150e085614d51565b93506150ee60208601614d51565b925060408501359150606085013567ffffffffffffffff811115615110578182fd5b61511c87828801614e01565b91505092959194509250565b600080600080600080600060c0888a031215615142578283fd5b61514b88614d51565b965061515960208901614d51565b955060408801359450606088013593506080880135925060a088013567ffffffffffffffff811115615189578283fd5b6151958a828b01614dc1565b989b979a50959850939692959293505050565b600080604083850312156151ba578182fd5b6151c383614d51565b9150614ecb60208401614db1565b600080604083850312156151e3578182fd5b6151ec83614d51565b946020939093013593505050565b600080600080600060a08688031215615211578283fd5b61521a86614d51565b9450602086013593506040860135925060608601359150608086013567ffffffffffffffff81111561524a578182fd5b61525688828901614e01565b9150509295509295909350565b600060208284031215615274578081fd5b81356113e98161555f565b600060208284031215615290578081fd5b81516113e98161555f565b6000602082840312156152ac578081fd5b5035919050565b6000806000606084860312156152c7578081fd5b505081359360208301359350604090920135919050565b600081518084526152f68160208601602086016154ab565b601f01601f19169290920160200192915050565b60007f68747470733a2f2f6170692e73616e64626f782e67616d652f6c616e64732f008252825161534281601f8501602087016154ab565b7f2f6d657461646174612e6a736f6e000000000000000000000000000000000000601f939091019283015250602d01919050565b6000608082016001600160a01b03808816845260208188168186015260806040860152829150865180845260a0860192508188019350845b818110156153ca578451845293820193928201926001016153ae565b505050838103606085015261475a81866152de565b60006001600160a01b0380871683528086166020840152508360408301526080606083015261320260808301846152de565b600060208252611d7f60208301846152de565b600082198211156154375761543761551d565b500190565b600060ff821660ff84168060ff038211156154595761545961551d565b019392505050565b60008261547057615470615533565b500490565b600081600019048311821515161561548f5761548f61551d565b500290565b6000828210156154a6576154a661551d565b500390565b60005b838110156154c65781810151838201526020016154ae565b83811115611ad15750506000910152565b6000816154e6576154e661551d565b506000190190565b60006000198214156155025761550261551d565b5060010190565b60008261551857615518615533565b500690565b634e487b7160e01b600052601160045260246000fd5b634e487b7160e01b600052601260045260246000fd5b634e487b7160e01b600052604160045260246000fd5b6001600160e01b031981168114610e2357600080fdfea2646970667358221220dfc35a0072245f940a08feb5bc33c329f4d26796e7ef6ca8ea14b71fca03e86664736f6c63430008020033",
  "devdoc": {
    "kind": "dev",
    "methods": {
      "approve(address,uint256)": {
        "params": {
          "id": "The id of the token.",
          "operator": "The address receiving the approval."
        }
      },
      "approveFor(address,address,uint256)": {
        "params": {
          "id": "The id of the token.",
          "operator": "The address receiving the approval.",
          "sender": "The address giving the approval."
        }
      },
      "balanceOf(address)": {
        "params": {
          "owner": "The address to look for."
        },
        "returns": {
          "_0": "The number of tokens owned by the address."
        }
      },
      "batchTransferFrom(address,address,uint256[],bytes)": {
        "params": {
          "data": "Additional data.",
          "from": "The sender of the token.",
          "ids": "The ids of the tokens.",
          "to": "The recipient of the token."
        }
      },
      "burn(uint256)": {
        "params": {
          "id": "The token which will be burnt."
        }
      },
      "burnFrom(address,uint256)": {
        "params": {
          "from": "address whose token is to be burnt.",
          "id": "The token which will be burnt."
        }
      },
      "changeAdmin(address)": {
        "details": "Change the administrator to be `newAdmin`.",
        "params": {
          "newAdmin": "The address of the new administrator."
        }
      },
      "getAdmin()": {
        "details": "Get the current administrator of this contract.",
        "returns": {
          "_0": "The current administrator of this contract."
        }
      },
      "getApproved(uint256)": {
        "params": {
          "id": "The id of the token."
        },
        "returns": {
          "_0": "The address of the operator."
        }
      },
      "getX(uint256)": {
        "params": {
          "id": "tokenId"
        },
        "returns": {
          "_0": "the x coordinates"
        }
      },
      "getY(uint256)": {
        "params": {
          "id": "tokenId"
        },
        "returns": {
          "_0": "the y coordinates"
        }
      },
      "height()": {
        "returns": {
          "_0": "height"
        }
      },
      "isApprovedForAll(address,address)": {
        "params": {
          "operator": "The address of the operator.",
          "owner": "The address of the owner."
        },
        "returns": {
          "isOperator": "The status of the approval."
        }
      },
      "isSuperOperator(address)": {
        "params": {
          "who": "The address to query."
        },
        "returns": {
          "_0": "whether the address has superOperator rights."
        }
      },
      "name()": {
        "returns": {
          "_0": "The name of the token contract"
        }
      },
      "ownerOf(uint256)": {
        "params": {
          "id": "The id of the token."
        },
        "returns": {
          "owner": "The address of the token owner."
        }
      },
      "safeBatchTransferFrom(address,address,uint256[],bytes)": {
        "params": {
          "data": "Additional data.",
          "from": "The sender of the token.",
          "ids": "The ids of the tokens.",
          "to": "The recipient of the token."
        }
      },
      "safeTransferFrom(address,address,uint256)": {
        "params": {
          "from": "The send of the token.",
          "id": "The id of the token.",
          "to": "The recipient of the token."
        }
      },
      "safeTransferFrom(address,address,uint256,bytes)": {
        "params": {
          "data": "Additional data.",
          "from": "The sender of the token.",
          "id": "The id of the token.",
          "to": "The recipient of the token."
        }
      },
      "setApprovalForAll(address,bool)": {
        "params": {
          "approved": "The determination of the approval.",
          "operator": "The address receiving the approval."
        }
      },
      "setApprovalForAllFor(address,address,bool)": {
        "params": {
          "approved": "The determination of the approval.",
          "operator": "The address receiving the approval.",
          "sender": "The address giving the approval."
        }
      },
      "setSuperOperator(address,bool)": {
        "params": {
          "enabled": "set whether the superOperator is enabled or disabled.",
          "superOperator": "address that will be given/removed superOperator right."
        }
      },
      "setTrustedForwarder(address)": {
        "details": "Change the address of the trusted forwarder for meta-TX",
        "params": {
          "trustedForwarder": "The new trustedForwarder"
        }
      },
      "supportsInterface(bytes4)": {
        "params": {
          "id": "The id of the interface"
        },
        "returns": {
          "_0": "True if the interface is supported"
        }
      },
      "symbol()": {
        "returns": {
          "_0": "The symbol of the token contract"
        }
      },
      "tokenURI(uint256)": {
        "params": {
          "id": "The id of the token"
        },
        "returns": {
          "_0": "The URI of the token"
        }
      },
      "transferFrom(address,address,uint256)": {
        "params": {
          "from": "The sender of the token.",
          "id": "The id of the token.",
          "to": "The recipient of the token."
        }
      },
      "width()": {
        "returns": {
          "_0": "width"
        }
      }
    },
    "title": "LAND token on L2",
    "version": 1
  },
  "userdoc": {
    "kind": "user",
    "methods": {
      "approve(address,uint256)": {
        "notice": "Approve an operator to spend tokens on the senders behalf."
      },
      "approveFor(address,address,uint256)": {
        "notice": "Approve an operator to spend tokens on the sender behalf."
      },
      "balanceOf(address)": {
        "notice": "Get the number of tokens owned by an address."
      },
      "batchTransferFrom(address,address,uint256[],bytes)": {
        "notice": "Transfer many tokens between 2 addresses."
      },
      "burn(uint256)": {
        "notice": "Burns token `id`."
      },
      "burnFrom(address,uint256)": {
        "notice": "Burn token`id` from `from`."
      },
      "getApproved(uint256)": {
        "notice": "Get the approved operator for a specific token."
      },
      "getX(uint256)": {
        "notice": "x coordinate of Land token"
      },
      "getY(uint256)": {
        "notice": "y coordinate of Land token"
      },
      "height()": {
        "notice": "total height of the map"
      },
      "isApprovedForAll(address,address)": {
        "notice": "Check if the sender approved the operator."
      },
      "isSuperOperator(address)": {
        "notice": "check whether address `who` is given superOperator rights."
      },
      "name()": {
        "notice": "Return the name of the token contract"
      },
      "ownerOf(uint256)": {
        "notice": "Get the owner of a token."
      },
      "safeBatchTransferFrom(address,address,uint256[],bytes)": {
        "notice": "Transfer many tokens between 2 addresses, while ensuring the receiving contract has a receiver method."
      },
      "safeTransferFrom(address,address,uint256)": {
        "notice": "Transfer a token between 2 addresses letting the receiver know of the transfer."
      },
      "safeTransferFrom(address,address,uint256,bytes)": {
        "notice": "Transfer a token between 2 addresses letting the receiver knows of the transfer."
      },
      "setApprovalForAll(address,bool)": {
        "notice": "Set the approval for an operator to manage all the tokens of the sender."
      },
      "setApprovalForAllFor(address,address,bool)": {
        "notice": "Set the approval for an operator to manage all the tokens of the sender."
      },
      "setSuperOperator(address,bool)": {
        "notice": "Enable or disable the ability of `superOperator` to transfer tokens of all (superOperator rights)."
      },
      "supportsInterface(bytes4)": {
        "notice": "Check if the contract supports an interface 0x01ffc9a7 is ERC-165 0x80ac58cd is ERC-721 0x5b5e139f is ERC-721 metadata"
      },
      "symbol()": {
        "notice": "Return the symbol of the token contract"
      },
      "tokenURI(uint256)": {
        "notice": "Return the URI of a specific token"
      },
      "transferFrom(address,address,uint256)": {
        "notice": "Transfer a token between 2 addresses."
      },
      "width()": {
        "notice": "total width of the map"
      }
    },
    "version": 1
  },
  "storageLayout": {
    "storage": [
      {
        "astId": 4758,
        "contract": "src/solc_0.8/polygon/child/land/PolygonLandV1.sol:PolygonLandV1",
        "label": "_initialized",
        "offset": 0,
        "slot": "0",
        "type": "t_bool"
      },
      {
        "astId": 4761,
        "contract": "src/solc_0.8/polygon/child/land/PolygonLandV1.sol:PolygonLandV1",
        "label": "_initializing",
        "offset": 1,
        "slot": "0",
        "type": "t_bool"
      },
      {
        "astId": 25838,
        "contract": "src/solc_0.8/polygon/child/land/PolygonLandV1.sol:PolygonLandV1",
        "label": "_admin",
        "offset": 2,
        "slot": "0",
        "type": "t_address"
      },
      {
        "astId": 26070,
        "contract": "src/solc_0.8/polygon/child/land/PolygonLandV1.sol:PolygonLandV1",
        "label": "_superOperators",
        "offset": 0,
        "slot": "1",
        "type": "t_mapping(t_address,t_bool)"
      },
      {
        "astId": 23959,
        "contract": "src/solc_0.8/polygon/child/land/PolygonLandV1.sol:PolygonLandV1",
        "label": "_trustedForwarder",
        "offset": 0,
        "slot": "2",
        "type": "t_address"
      },
      {
        "astId": 24143,
        "contract": "src/solc_0.8/polygon/child/land/PolygonLandV1.sol:PolygonLandV1",
        "label": "_numNFTPerAddress",
        "offset": 0,
        "slot": "3",
        "type": "t_mapping(t_address,t_uint256)"
      },
      {
        "astId": 24147,
        "contract": "src/solc_0.8/polygon/child/land/PolygonLandV1.sol:PolygonLandV1",
        "label": "_owners",
        "offset": 0,
        "slot": "4",
        "type": "t_mapping(t_uint256,t_uint256)"
      },
      {
        "astId": 24153,
        "contract": "src/solc_0.8/polygon/child/land/PolygonLandV1.sol:PolygonLandV1",
        "label": "_operatorsForAll",
        "offset": 0,
        "slot": "5",
        "type": "t_mapping(t_address,t_mapping(t_address,t_bool))"
      },
      {
        "astId": 24157,
        "contract": "src/solc_0.8/polygon/child/land/PolygonLandV1.sol:PolygonLandV1",
        "label": "_operators",
        "offset": 0,
        "slot": "6",
        "type": "t_mapping(t_uint256,t_address)"
      },
      {
        "astId": 35733,
        "contract": "src/solc_0.8/polygon/child/land/PolygonLandV1.sol:PolygonLandV1",
        "label": "__gap",
        "offset": 0,
        "slot": "7",
        "type": "t_array(t_uint256)49_storage"
      },
      {
        "astId": 36293,
        "contract": "src/solc_0.8/polygon/child/land/PolygonLandV1.sol:PolygonLandV1",
        "label": "polygonLandTunnel",
        "offset": 0,
        "slot": "56",
        "type": "t_address"
      }
    ],
    "types": {
      "t_address": {
        "encoding": "inplace",
        "label": "address",
        "numberOfBytes": "20"
      },
      "t_array(t_uint256)49_storage": {
        "base": "t_uint256",
        "encoding": "inplace",
        "label": "uint256[49]",
        "numberOfBytes": "1568"
      },
      "t_bool": {
        "encoding": "inplace",
        "label": "bool",
        "numberOfBytes": "1"
      },
      "t_mapping(t_address,t_bool)": {
        "encoding": "mapping",
        "key": "t_address",
        "label": "mapping(address => bool)",
        "numberOfBytes": "32",
        "value": "t_bool"
      },
      "t_mapping(t_address,t_mapping(t_address,t_bool))": {
        "encoding": "mapping",
        "key": "t_address",
        "label": "mapping(address => mapping(address => bool))",
        "numberOfBytes": "32",
        "value": "t_mapping(t_address,t_bool)"
      },
      "t_mapping(t_address,t_uint256)": {
        "encoding": "mapping",
        "key": "t_address",
        "label": "mapping(address => uint256)",
        "numberOfBytes": "32",
        "value": "t_uint256"
      },
      "t_mapping(t_uint256,t_address)": {
        "encoding": "mapping",
        "key": "t_uint256",
        "label": "mapping(uint256 => address)",
        "numberOfBytes": "32",
        "value": "t_address"
      },
      "t_mapping(t_uint256,t_uint256)": {
        "encoding": "mapping",
        "key": "t_uint256",
        "label": "mapping(uint256 => uint256)",
        "numberOfBytes": "32",
        "value": "t_uint256"
      },
      "t_uint256": {
        "encoding": "inplace",
        "label": "uint256",
        "numberOfBytes": "32"
      }
    }
  }
}