{
  "address": "0x1EBaFFb7Ab1b2597BbC74408810a61c43b9ef908",
  "abi": [
    {
      "inputs": [
        {
          "internalType": "address",
          "name": "landAddress",
          "type": "address"
        },
        {
          "internalType": "address",
          "name": "sandContractAddress",
          "type": "address"
        },
        {
          "internalType": "address",
          "name": "initialMetaTx",
          "type": "address"
        },
        {
          "internalType": "address",
          "name": "admin",
          "type": "address"
        },
        {
          "internalType": "address payable",
          "name": "initialWalletAddress",
          "type": "address"
        },
        {
          "internalType": "bytes32",
          "name": "merkleRoot",
          "type": "bytes32"
        },
        {
          "internalType": "uint256",
          "name": "expiryTime",
          "type": "uint256"
        },
        {
          "internalType": "address",
          "name": "initialSigningWallet",
          "type": "address"
        },
        {
          "internalType": "uint256",
          "name": "initialMaxCommissionRate",
          "type": "uint256"
        },
        {
          "internalType": "address",
          "name": "estate",
          "type": "address"
        },
        {
          "internalType": "address",
          "name": "asset",
          "type": "address"
        },
        {
          "internalType": "address",
          "name": "feeDistributor",
          "type": "address"
        },
        {
          "internalType": "address",
          "name": "authValidator",
          "type": "address"
        }
      ],
      "stateMutability": "nonpayable",
      "type": "constructor"
    },
    {
      "anonymous": false,
      "inputs": [
        {
          "indexed": false,
          "internalType": "address",
          "name": "oldAdmin",
          "type": "address"
        },
        {
          "indexed": false,
          "internalType": "address",
          "name": "newAdmin",
          "type": "address"
        }
      ],
      "name": "AdminChanged",
      "type": "event"
    },
    {
      "anonymous": false,
      "inputs": [
        {
          "indexed": true,
          "internalType": "address",
          "name": "buyer",
          "type": "address"
        },
        {
          "indexed": true,
          "internalType": "address",
          "name": "to",
          "type": "address"
        },
        {
          "indexed": true,
          "internalType": "uint256",
          "name": "topCornerId",
          "type": "uint256"
        },
        {
          "indexed": false,
          "internalType": "uint256",
          "name": "size",
          "type": "uint256"
        },
        {
          "indexed": false,
          "internalType": "uint256",
          "name": "price",
          "type": "uint256"
        },
        {
          "indexed": false,
          "internalType": "address",
          "name": "token",
          "type": "address"
        },
        {
          "indexed": false,
          "internalType": "uint256",
          "name": "amountPaid",
          "type": "uint256"
        }
      ],
      "name": "LandQuadPurchased",
      "type": "event"
    },
    {
      "anonymous": false,
      "inputs": [
        {
          "indexed": false,
          "internalType": "address",
          "name": "metaTransactionProcessor",
          "type": "address"
        },
        {
          "indexed": false,
          "internalType": "bool",
          "name": "enabled",
          "type": "bool"
        }
      ],
      "name": "MetaTransactionProcessor",
      "type": "event"
    },
    {
      "anonymous": false,
      "inputs": [
        {
          "indexed": true,
          "internalType": "address",
          "name": "referrer",
          "type": "address"
        },
        {
          "indexed": true,
          "internalType": "address",
          "name": "referee",
          "type": "address"
        },
        {
          "indexed": true,
          "internalType": "address",
          "name": "token",
          "type": "address"
        },
        {
          "indexed": false,
          "internalType": "uint256",
          "name": "amount",
          "type": "uint256"
        },
        {
          "indexed": false,
          "internalType": "uint256",
          "name": "commission",
          "type": "uint256"
        },
        {
          "indexed": false,
          "internalType": "uint256",
          "name": "commissionRate",
          "type": "uint256"
        }
      ],
      "name": "ReferralUsed",
      "type": "event"
    },
    {
      "inputs": [
        {
          "internalType": "address",
          "name": "buyer",
          "type": "address"
        },
        {
          "internalType": "address",
          "name": "to",
          "type": "address"
        },
        {
          "internalType": "address",
          "name": "reserved",
          "type": "address"
        },
        {
          "internalType": "uint256[]",
          "name": "info",
          "type": "uint256[]"
        },
        {
          "internalType": "bytes32",
          "name": "salt",
          "type": "bytes32"
        },
        {
          "internalType": "uint256[]",
          "name": "assetIds",
          "type": "uint256[]"
        },
        {
          "internalType": "bytes32[]",
          "name": "proof",
          "type": "bytes32[]"
        },
        {
          "internalType": "bytes",
          "name": "referral",
          "type": "bytes"
        },
        {
          "internalType": "bytes",
          "name": "signature",
          "type": "bytes"
        }
      ],
      "name": "buyLandWithSand",
      "outputs": [],
      "stateMutability": "nonpayable",
      "type": "function"
    },
    {
      "inputs": [
        {
          "internalType": "address",
          "name": "newAdmin",
          "type": "address"
        }
      ],
      "name": "changeAdmin",
      "outputs": [],
      "stateMutability": "nonpayable",
      "type": "function"
    },
    {
      "inputs": [
        {
          "internalType": "bytes",
          "name": "referral",
          "type": "bytes"
        }
      ],
      "name": "decodeReferral",
      "outputs": [
        {
          "internalType": "bytes",
          "name": "",
          "type": "bytes"
        },
        {
          "internalType": "address",
          "name": "",
          "type": "address"
        },
        {
          "internalType": "address",
          "name": "",
          "type": "address"
        },
        {
          "internalType": "uint256",
          "name": "",
          "type": "uint256"
        },
        {
          "internalType": "uint256",
          "name": "",
          "type": "uint256"
        }
      ],
      "stateMutability": "pure",
      "type": "function"
    },
    {
      "inputs": [],
      "name": "getAdmin",
      "outputs": [
        {
          "internalType": "address",
          "name": "",
          "type": "address"
        }
      ],
      "stateMutability": "view",
      "type": "function"
    },
    {
      "inputs": [],
      "name": "getExpiryTime",
      "outputs": [
        {
          "internalType": "uint256",
          "name": "",
          "type": "uint256"
        }
      ],
      "stateMutability": "view",
      "type": "function"
    },
    {
      "inputs": [],
      "name": "getMaxCommisionRate",
      "outputs": [
        {
          "internalType": "uint256",
          "name": "",
          "type": "uint256"
        }
      ],
      "stateMutability": "view",
      "type": "function"
    },
    {
      "inputs": [],
      "name": "getMerkleRoot",
      "outputs": [
        {
          "internalType": "bytes32",
          "name": "",
          "type": "bytes32"
        }
      ],
      "stateMutability": "view",
      "type": "function"
    },
    {
      "inputs": [],
      "name": "getSigningWallet",
      "outputs": [
        {
          "internalType": "address",
          "name": "",
          "type": "address"
        }
      ],
      "stateMutability": "view",
      "type": "function"
    },
    {
      "inputs": [
        {
          "internalType": "address",
          "name": "who",
          "type": "address"
        }
      ],
      "name": "isMetaTransactionProcessor",
      "outputs": [
        {
          "internalType": "bool",
          "name": "",
          "type": "bool"
        }
      ],
      "stateMutability": "view",
      "type": "function"
    },
    {
      "inputs": [
        {
          "internalType": "bytes",
          "name": "signature",
          "type": "bytes"
        },
        {
          "internalType": "address",
          "name": "referrer",
          "type": "address"
        },
        {
          "internalType": "address",
          "name": "referee",
          "type": "address"
        },
        {
          "internalType": "uint256",
          "name": "expiryTime",
          "type": "uint256"
        },
        {
          "internalType": "uint256",
          "name": "commissionRate",
          "type": "uint256"
        }
      ],
      "name": "isReferralValid",
      "outputs": [
        {
          "internalType": "bool",
          "name": "",
          "type": "bool"
        }
      ],
      "stateMutability": "view",
      "type": "function"
    },
    {
      "inputs": [
        {
          "internalType": "address",
          "name": "",
          "type": "address"
        },
        {
          "internalType": "address",
          "name": "",
          "type": "address"
        },
        {
          "internalType": "uint256[]",
          "name": "",
          "type": "uint256[]"
        },
        {
          "internalType": "uint256[]",
          "name": "",
          "type": "uint256[]"
        },
        {
          "internalType": "bytes",
          "name": "",
          "type": "bytes"
        }
      ],
      "name": "onERC1155BatchReceived",
      "outputs": [
        {
          "internalType": "bytes4",
          "name": "",
          "type": "bytes4"
        }
      ],
      "stateMutability": "pure",
      "type": "function"
    },
    {
      "inputs": [
        {
          "internalType": "address",
          "name": "",
          "type": "address"
        },
        {
          "internalType": "address",
          "name": "",
          "type": "address"
        },
        {
          "internalType": "uint256",
          "name": "",
          "type": "uint256"
        },
        {
          "internalType": "uint256",
          "name": "",
          "type": "uint256"
        },
        {
          "internalType": "bytes",
          "name": "",
          "type": "bytes"
        }
      ],
      "name": "onERC1155Received",
      "outputs": [
        {
          "internalType": "bytes4",
          "name": "",
          "type": "bytes4"
        }
      ],
      "stateMutability": "pure",
      "type": "function"
    },
    {
      "inputs": [
        {
          "internalType": "address",
          "name": "metaTransactionProcessor",
          "type": "address"
        },
        {
          "internalType": "bool",
          "name": "enabled",
          "type": "bool"
        }
      ],
      "name": "setMetaTransactionProcessor",
      "outputs": [],
      "stateMutability": "nonpayable",
      "type": "function"
    },
    {
      "inputs": [
        {
          "internalType": "address payable",
          "name": "newWallet",
          "type": "address"
        }
      ],
      "name": "setReceivingWallet",
      "outputs": [],
      "stateMutability": "nonpayable",
      "type": "function"
    },
    {
      "inputs": [
        {
          "internalType": "uint256",
          "name": "newMaxCommissionRate",
          "type": "uint256"
        }
      ],
      "name": "updateMaxCommissionRate",
      "outputs": [],
      "stateMutability": "nonpayable",
      "type": "function"
    },
    {
      "inputs": [
        {
          "internalType": "address",
          "name": "newSigningWallet",
          "type": "address"
        }
      ],
      "name": "updateSigningWallet",
      "outputs": [],
      "stateMutability": "nonpayable",
      "type": "function"
    },
    {
      "inputs": [
        {
          "internalType": "address",
          "name": "to",
          "type": "address"
        },
        {
          "internalType": "uint256[]",
          "name": "assetIds",
          "type": "uint256[]"
        },
        {
          "internalType": "uint256[]",
          "name": "values",
          "type": "uint256[]"
        }
      ],
      "name": "withdrawAssets",
      "outputs": [],
      "stateMutability": "nonpayable",
      "type": "function"
    }
  ],
  "transactionHash": "0x8e777d03b4e62e56ae374c01e206c111b5012c802c10f1635d2e7d3648903b11",
  "args": [
    "0x5CC5B05a8A13E3fBDB0BB9FcCd98D38e50F90c38",
    "0x3845badAde8e6dFF049820680d1F14bD3903a5d0",
    "0x3845badAde8e6dFF049820680d1F14bD3903a5d0",
    "0xEAA0993E1d21c2103e4f172a20D29371FbAF6D06",
    "0x4489590a116618B506F0EfE885432F6A8ED998E9",
    "0x446c9280a555ae0b80ff31f31a0a678516bfe619ed68207e6164af73b5147cc2",
    1646917200,
    "0x3044719d139F866a44c988823513eCB93060bF1b",
    2000,
    "0x0000000000000000000000000000000000000000",
    "0xa342f5D851E866E18ff98F351f2c6637f4478dB5",
    "0x0EB04462D69B1D267d269377E34f60b9De1c8510",
    "0x459EA8c295069d4cd16c025b9fa5cA3E4C5AA468"
  ],
  "linkedData": [
    {
      "x": 192,
      "y": 81,
      "size": 1,
      "price": "1011000000000000000000",
      "reserved": "",
      "salt": "0x28ebdbfc215e2ba9929a765792d20fe28a89ff2874659e5dca9620f12dc81be8",
      "assetIds": []
    },
    {
      "x": 192,
      "y": 82,
      "size": 1,
      "price": "1011000000000000000000",
      "reserved": "",
      "salt": "0xd69210af30db05e166b0d02a5d0f0f09494083dad98f79dc496669e9708132a9",
      "assetIds": []
    },
    {
      "x": 192,
      "y": 83,
      "size": 1,
      "price": "1011000000000000000000",
      "reserved": "",
      "salt": "0x8f098661921f7b40b51a6cddd151ff8bf52eb440df7a67802ba4e5b502039eda",
      "assetIds": []
    },
    {
      "x": 192,
      "y": 84,
      "size": 1,
      "price": "1011000000000000000000",
      "reserved": "",
      "salt": "0xb1031b44dd09eac67a0c7640a7ff532db3b42e41c8e828a0a50280ace5198183",
      "assetIds": []
    },
    {
      "x": 192,
      "y": 85,
      "size": 1,
      "price": "1011000000000000000000",
      "reserved": "",
      "salt": "0x4ca83c0daf2472dde5decd9fceca055faa3daef2f3c8c49466bac3c83f248149",
      "assetIds": []
    },
    {
      "x": 192,
      "y": 86,
      "size": 1,
      "price": "1011000000000000000000",
      "reserved": "",
      "salt": "0x760bb584278b0c63e8418d1bc2f64420af9f90ce5e4d5a11dc856680ba0eff27",
      "assetIds": []
    },
    {
      "x": 193,
      "y": 81,
      "size": 1,
      "price": "1011000000000000000000",
      "reserved": "",
      "salt": "0x37f779842dc8771e1f125395268bcd056d1ae675e0ab109b6fc775abafcc382b",
      "assetIds": []
    },
    {
      "x": 193,
      "y": 82,
      "size": 1,
      "price": "1011000000000000000000",
      "reserved": "",
      "salt": "0xc19c2b94465d7a9ee321555e94bdb58cc96dc90af7005b223e779cd2b62c52b5",
      "assetIds": []
    },
    {
      "x": 193,
      "y": 83,
      "size": 1,
      "price": "1011000000000000000000",
      "reserved": "",
      "salt": "0x4bd8d5d75579382fcd51470a6871d03dee9492764984591d9ed754503d0fc738",
      "assetIds": []
    },
    {
      "x": 193,
      "y": 84,
      "size": 1,
      "price": "1011000000000000000000",
      "reserved": "",
      "salt": "0x4974925ee5a959c351657afa1cffff1e70bc7cda78c8603f995a8a8bd866412e",
      "assetIds": []
    },
    {
      "x": 193,
      "y": 85,
      "size": 1,
      "price": "1011000000000000000000",
      "reserved": "",
      "salt": "0x3b5edcd909db1772f37928e19a83d8a1289bd5b5f9e7096607c4622aadecbe4c",
      "assetIds": []
    },
    {
      "x": 193,
      "y": 86,
      "size": 1,
      "price": "1011000000000000000000",
      "reserved": "",
      "salt": "0xad952c6555ea1868658e28c6bc7c29f60d42ec493fcc2dc40c0ff5691d3532c3",
      "assetIds": []
    },
    {
      "x": 194,
      "y": 81,
      "size": 1,
      "price": "1011000000000000000000",
      "reserved": "",
      "salt": "0x4172c971f1a0d7b4777f86cadd185cf24bf4c5aee5adeb49653d83c0b0b4070b",
      "assetIds": []
    },
    {
      "x": 194,
      "y": 82,
      "size": 1,
      "price": "1011000000000000000000",
      "reserved": "",
      "salt": "0x9508308ddd90cca4fcd62cb7d64bf8eb5ade056b831f67d1f764fd7c7a0a974b",
      "assetIds": []
    },
    {
      "x": 194,
      "y": 83,
      "size": 1,
      "price": "1011000000000000000000",
      "reserved": "",
      "salt": "0x62131d3b79fbfad9304a69cb66d0150b8f95979105f7bfcf937efeec75616174",
      "assetIds": []
    },
    {
      "x": 194,
      "y": 84,
      "size": 1,
      "price": "1011000000000000000000",
      "reserved": "",
      "salt": "0x8ba0690cfd7bec8b26801ac07e64409bdf91cac41c6126508b6024ba0b302c87",
      "assetIds": []
    },
    {
      "x": 194,
      "y": 85,
      "size": 1,
      "price": "1011000000000000000000",
      "reserved": "",
      "salt": "0x89c0cef6dde3524508b68e3a16996ce0694c3e71d02ab04a261a89e2b1087541",
      "assetIds": []
    },
    {
      "x": 194,
      "y": 86,
      "size": 1,
      "price": "1011000000000000000000",
      "reserved": "",
      "salt": "0xb1246005449d0fc2ffb4c1698dc0ad398713e81346a619ebffb93f93b3f273e8",
      "assetIds": []
    },
    {
      "x": 195,
      "y": 78,
      "size": 1,
      "price": "1011000000000000000000",
      "reserved": "",
      "salt": "0xb35344d1db6655d3ea2f2c60baa94ba1d8fdfcf67f45de95459c284b1059915f",
      "assetIds": []
    },
    {
      "x": 195,
      "y": 79,
      "size": 1,
      "price": "1011000000000000000000",
      "reserved": "",
      "salt": "0x19445b2605794ba4fef0e56c34c4d1e6490c435a456790e9f34efd2731e0cf5a",
      "assetIds": []
    },
    {
      "x": 195,
      "y": 80,
      "size": 1,
      "price": "1011000000000000000000",
      "reserved": "",
      "salt": "0xc9b8eef6de2402683512eeb8a7b09a42bfded45ad46581f88d00397c77b5a476",
      "assetIds": []
    },
    {
      "x": 195,
      "y": 81,
      "size": 1,
      "price": "1011000000000000000000",
      "reserved": "",
      "salt": "0x9bf8adeed80adf246e26659ff3b33004a44c5b84e2a28105222fcd1143b66840",
      "assetIds": []
    },
    {
      "x": 195,
      "y": 82,
      "size": 1,
      "price": "1011000000000000000000",
      "reserved": "",
      "salt": "0x77fe9b0a20751b061417776f65349f8f65fae1db13a7217729710d4873db41b6",
      "assetIds": []
    },
    {
      "x": 195,
      "y": 83,
      "size": 1,
      "price": "1011000000000000000000",
      "reserved": "",
      "salt": "0xc7637b35f5c916727d5c89fcf4f6df5fad0f144f506a9dbdccbb4ff99f5db858",
      "assetIds": []
    },
    {
      "x": 195,
      "y": 87,
      "size": 1,
      "price": "1011000000000000000000",
      "reserved": "",
      "salt": "0xb2e3808edca9658c84cc8703f8a3a1e285bdc9d0f96f1dfeed3c9fd8ead8621f",
      "assetIds": []
    },
    {
      "x": 195,
      "y": 88,
      "size": 1,
      "price": "1011000000000000000000",
      "reserved": "",
      "salt": "0x6e404af6a9d3b62e1dd79d66a6cc09d63da59da957922596c19fde4431d3af57",
      "assetIds": []
    },
    {
      "x": 195,
      "y": 89,
      "size": 1,
      "price": "1011000000000000000000",
      "reserved": "",
      "salt": "0xe7c4482f9110f6e63409c529a64487ba5527b3a25ea45d39637c9e69aad826c2",
      "assetIds": []
    },
    {
      "x": 195,
      "y": 90,
      "size": 1,
      "price": "1011000000000000000000",
      "reserved": "",
      "salt": "0x69f0020b7d1142c5dc5e7f7a62f255f1a895aa096c9eaadded67b5251c2be8c1",
      "assetIds": []
    },
    {
      "x": 195,
      "y": 91,
      "size": 1,
      "price": "1011000000000000000000",
      "reserved": "",
      "salt": "0x8f303c558e8bc82d77eec13871a0cf6c3ee4a35619b296de2f6753c00dc5a99b",
      "assetIds": []
    },
    {
      "x": 195,
      "y": 92,
      "size": 1,
      "price": "1011000000000000000000",
      "reserved": "",
      "salt": "0x70a54996cc53d7c26e850558e0ec283d5976f301ed07d0029917747a24554279",
      "assetIds": []
    },
    {
      "x": 195,
      "y": 93,
      "size": 1,
      "price": "1011000000000000000000",
      "reserved": "",
      "salt": "0x03ade2a595242710abc5bd14d6826c31e04b1adf6b0491a9132374b6dc27fe9c",
      "assetIds": []
    },
    {
      "x": 195,
      "y": 94,
      "size": 1,
      "price": "1011000000000000000000",
      "reserved": "",
      "salt": "0x19cf4f8c6317bd0c4b723b334a57af0101830e0be67944dc56a903a4f9330f46",
      "assetIds": []
    },
    {
      "x": 195,
      "y": 95,
      "size": 1,
      "price": "1011000000000000000000",
      "reserved": "",
      "salt": "0x840f8bfefba6ca312336372d201646ef54b8607c4e332dc3c01265d47a917f70",
      "assetIds": []
    },
    {
      "x": 195,
      "y": 96,
      "size": 1,
      "price": "1011000000000000000000",
      "reserved": "",
      "salt": "0x89a7727e3d3d9be529f9255299e8a6b4b61a03c1142b41001ce19fb054542197",
      "assetIds": []
    },
    {
      "x": 195,
      "y": 97,
      "size": 1,
      "price": "1011000000000000000000",
      "reserved": "",
      "salt": "0x163209ad9b2c98136907591f2e60b49f52ede5da45c88a43e6ed8497ce2da17f",
      "assetIds": []
    },
    {
      "x": 195,
      "y": 98,
      "size": 1,
      "price": "1011000000000000000000",
      "reserved": "",
      "salt": "0xa8ebc88c4f62ba859f21198b3785b8e9eb531bf0262db17a46332f38d30bf67e",
      "assetIds": []
    },
    {
      "x": 195,
      "y": 99,
      "size": 1,
      "price": "1011000000000000000000",
      "reserved": "",
      "salt": "0xb9666d14c9c727a1315728b58c67492217b1a1ccc5f4d9e63f6b48520178ca16",
      "assetIds": []
    },
    {
      "x": 195,
      "y": 100,
      "size": 1,
      "price": "1011000000000000000000",
      "reserved": "",
      "salt": "0x55fbcca3044ef1279dfc3f046252957599b71e477f53a225d3ab95ea9b6ecb07",
      "assetIds": []
    },
    {
      "x": 195,
      "y": 101,
      "size": 1,
      "price": "1011000000000000000000",
      "reserved": "",
      "salt": "0x590cebf70857b9767cee2e325a25cec22394531eb743a94b954053df7cb64132",
      "assetIds": []
    },
    {
      "x": 196,
      "y": 78,
      "size": 1,
      "price": "1011000000000000000000",
      "reserved": "",
      "salt": "0x5e5746d5cc403b73af7274bfe93a1e02ad582ba0315a475b06f342776000b115",
      "assetIds": []
    },
    {
      "x": 196,
      "y": 79,
      "size": 1,
      "price": "4683000000000000000000",
      "reserved": "",
      "salt": "0x09d37ebb3c7373c96c52868acd86dc2c803c0c810efc7fb2cc8248c8340f283e",
      "assetIds": [
        "55464657044963196816950587289035428064568320970692304673817341489688461979652",
        "55464657044963196816950587289035428064568320970692304673817341489688461979653",
        "55464657044963196816950587289035428064568320970692304673817341489688461979651",
        "55464657044963196816950587289035428064568320970692304673817341489688461979650",
        "55464657044963196816950587289035428064568320970692304673817341489688461979649",
        "55464657044963196816950587289035428064568320970692304673817341489688461979648",
        "55464657044963196816950587289035428064568320970692304673817341489688453580800"
      ]
    },
    {
      "x": 196,
      "y": 80,
      "size": 1,
      "price": "4683000000000000000000",
      "reserved": "",
      "salt": "0x5a3b6861c9ca6d131b2310e6daef1bb08ddb63f3ce76f0498ed2152215671341",
      "assetIds": [
        "55464657044963196816950587289035428064568320970692304673817341489688461979652",
        "55464657044963196816950587289035428064568320970692304673817341489688461979653",
        "55464657044963196816950587289035428064568320970692304673817341489688461979651",
        "55464657044963196816950587289035428064568320970692304673817341489688461979650",
        "55464657044963196816950587289035428064568320970692304673817341489688461979649",
        "55464657044963196816950587289035428064568320970692304673817341489688461979648",
        "55464657044963196816950587289035428064568320970692304673817341489688453580800"
      ]
    },
    {
      "x": 196,
      "y": 81,
      "size": 1,
      "price": "4683000000000000000000",
      "reserved": "",
      "salt": "0x38182d31f4c55732db466f14947db877a400a3d0689b6deabd3afcac8749eb6d",
      "assetIds": [
        "55464657044963196816950587289035428064568320970692304673817341489688461979652",
        "55464657044963196816950587289035428064568320970692304673817341489688461979653",
        "55464657044963196816950587289035428064568320970692304673817341489688461979651",
        "55464657044963196816950587289035428064568320970692304673817341489688461979650",
        "55464657044963196816950587289035428064568320970692304673817341489688461979649",
        "55464657044963196816950587289035428064568320970692304673817341489688461979648",
        "55464657044963196816950587289035428064568320970692304673817341489688453580800"
      ]
    },
    {
      "x": 196,
      "y": 82,
      "size": 1,
      "price": "4683000000000000000000",
      "reserved": "",
      "salt": "0x0966fdd2e38c1acdf741ef29b007f4ef1fd6ba5dda5ee91630afd3349ae14238",
      "assetIds": [
        "55464657044963196816950587289035428064568320970692304673817341489688461979652",
        "55464657044963196816950587289035428064568320970692304673817341489688461979653",
        "55464657044963196816950587289035428064568320970692304673817341489688461979651",
        "55464657044963196816950587289035428064568320970692304673817341489688461979650",
        "55464657044963196816950587289035428064568320970692304673817341489688461979649",
        "55464657044963196816950587289035428064568320970692304673817341489688461979648",
        "55464657044963196816950587289035428064568320970692304673817341489688453580800"
      ]
    },
    {
      "x": 196,
      "y": 83,
      "size": 1,
      "price": "1011000000000000000000",
      "reserved": "",
      "salt": "0xdbf16739e228606d45ba1cd54685aa70972b614e7b5f212bee28bacefadd7c7e",
      "assetIds": []
    },
    {
      "x": 196,
      "y": 87,
      "size": 1,
      "price": "1011000000000000000000",
      "reserved": "",
      "salt": "0x4f1f314e5d2c379341e19cf72c796cdd34a209a0bb020808b3145d97d43535fb",
      "assetIds": []
    },
    {
      "x": 196,
      "y": 88,
      "size": 1,
      "price": "1011000000000000000000",
      "reserved": "",
      "salt": "0xeed4bd547c290886c8c54b7529bee540e7baacfe43508df25e56a31f70fdb79b",
      "assetIds": []
    },
    {
      "x": 196,
      "y": 89,
      "size": 1,
      "price": "1011000000000000000000",
      "reserved": "",
      "salt": "0x2073a7bdb513fe0a39b85b20e208c14a6538243e2a17ccc47174f570f7876959",
      "assetIds": []
    },
    {
      "x": 196,
      "y": 90,
      "size": 1,
      "price": "1011000000000000000000",
      "reserved": "",
      "salt": "0xfa7f94f463ae65006638252cd72688fda19deef86f600eaa2e701c07e9ac116e",
      "assetIds": []
    },
    {
      "x": 196,
      "y": 91,
      "size": 1,
      "price": "4683000000000000000000",
      "reserved": "",
      "salt": "0x4d13ef1a51dfd15d0e000f05377234cdd962b895c5e70ef33ab83f2a1fad202e",
      "assetIds": [
        "55464657044963196816950587289035428064568320970692304673817341489688461979652",
        "55464657044963196816950587289035428064568320970692304673817341489688461979653",
        "55464657044963196816950587289035428064568320970692304673817341489688461979651",
        "55464657044963196816950587289035428064568320970692304673817341489688461979650",
        "55464657044963196816950587289035428064568320970692304673817341489688461979649",
        "55464657044963196816950587289035428064568320970692304673817341489688461979648",
        "55464657044963196816950587289035428064568320970692304673817341489688453580800"
      ]
    },
    {
      "x": 196,
      "y": 92,
      "size": 1,
      "price": "4683000000000000000000",
      "reserved": "",
      "salt": "0x3a2a2bcf9f47a0130cdc5ea531e59e532fc87dfd018abdb0aac696aca8cedeb1",
      "assetIds": [
        "55464657044963196816950587289035428064568320970692304673817341489688461979652",
        "55464657044963196816950587289035428064568320970692304673817341489688461979653",
        "55464657044963196816950587289035428064568320970692304673817341489688461979651",
        "55464657044963196816950587289035428064568320970692304673817341489688461979650",
        "55464657044963196816950587289035428064568320970692304673817341489688461979649",
        "55464657044963196816950587289035428064568320970692304673817341489688461979648",
        "55464657044963196816950587289035428064568320970692304673817341489688453580800"
      ]
    },
    {
      "x": 196,
      "y": 93,
      "size": 1,
      "price": "4683000000000000000000",
      "reserved": "",
      "salt": "0x77f86ff2f194cff16f340fba1097ce714730cfc7eb67cf23829139d304bff4a8",
      "assetIds": [
        "55464657044963196816950587289035428064568320970692304673817341489688461979652",
        "55464657044963196816950587289035428064568320970692304673817341489688461979653",
        "55464657044963196816950587289035428064568320970692304673817341489688461979651",
        "55464657044963196816950587289035428064568320970692304673817341489688461979650",
        "55464657044963196816950587289035428064568320970692304673817341489688461979649",
        "55464657044963196816950587289035428064568320970692304673817341489688461979648",
        "55464657044963196816950587289035428064568320970692304673817341489688453580800"
      ]
    },
    {
      "x": 196,
      "y": 94,
      "size": 1,
      "price": "4683000000000000000000",
      "reserved": "",
      "salt": "0xf1022f591524cefddde7df17cd86dfb73e2c8f2b46801a9d0da7243b0b24efe9",
      "assetIds": [
        "55464657044963196816950587289035428064568320970692304673817341489688461979652",
        "55464657044963196816950587289035428064568320970692304673817341489688461979653",
        "55464657044963196816950587289035428064568320970692304673817341489688461979651",
        "55464657044963196816950587289035428064568320970692304673817341489688461979650",
        "55464657044963196816950587289035428064568320970692304673817341489688461979649",
        "55464657044963196816950587289035428064568320970692304673817341489688461979648",
        "55464657044963196816950587289035428064568320970692304673817341489688453580800"
      ]
    },
    {
      "x": 196,
      "y": 95,
      "size": 1,
      "price": "1011000000000000000000",
      "reserved": "",
      "salt": "0xcfac7112630a82727623a301e467152e5c9cb2e46379e95bdffb247f18d13f13",
      "assetIds": []
    },
    {
      "x": 196,
      "y": 96,
      "size": 1,
      "price": "1011000000000000000000",
      "reserved": "",
      "salt": "0x4847be3e90ee1873cbd66eedb5b35c0adceaeffaed6206a741dad41641b7b154",
      "assetIds": []
    },
    {
      "x": 196,
      "y": 97,
      "size": 1,
      "price": "1011000000000000000000",
      "reserved": "",
      "salt": "0x2d4abf20a293a20e4ef35841b090408a1d6d88cd31719018c061b048b9bf47ed",
      "assetIds": []
    },
    {
      "x": 196,
      "y": 98,
      "size": 1,
      "price": "1011000000000000000000",
      "reserved": "",
      "salt": "0x2545e682916fe3e6329d6dd21c445e95b71a46b284de6c704345ed570aa32e6b",
      "assetIds": []
    },
    {
      "x": 196,
      "y": 99,
      "size": 1,
      "price": "1011000000000000000000",
      "reserved": "",
      "salt": "0xaed1316e183320e09c0397d8ea257c717039d5a1f5a061dee071211e873dc11d",
      "assetIds": []
    },
    {
      "x": 196,
      "y": 100,
      "size": 1,
      "price": "1011000000000000000000",
      "reserved": "",
      "salt": "0x27ef35b1d2ff7e4dbfae2f2f3a9e22a84cb44043260df8d3d0da26dc1ad062b6",
      "assetIds": []
    },
    {
      "x": 196,
      "y": 101,
      "size": 1,
      "price": "1011000000000000000000",
      "reserved": "",
      "salt": "0x348f2c4fdc2f1c790ca3dfad822a0d75e35099c9bd3f4d9b97b149db5e3de02f",
      "assetIds": []
    },
    {
      "x": 197,
      "y": 78,
      "size": 1,
      "price": "4683000000000000000000",
      "reserved": "",
      "salt": "0xc481042aac295008cde19f229b80aff3d5ce4d573dbf3654c533510ef6572851",
      "assetIds": [
        "55464657044963196816950587289035428064568320970692304673817341489688461979652",
        "55464657044963196816950587289035428064568320970692304673817341489688461979653",
        "55464657044963196816950587289035428064568320970692304673817341489688461979651",
        "55464657044963196816950587289035428064568320970692304673817341489688461979650",
        "55464657044963196816950587289035428064568320970692304673817341489688461979649",
        "55464657044963196816950587289035428064568320970692304673817341489688461979648",
        "55464657044963196816950587289035428064568320970692304673817341489688453580800"
      ]
    },
    {
      "x": 197,
      "y": 79,
      "size": 1,
      "price": "4683000000000000000000",
      "reserved": "",
      "salt": "0xd83691505e2596e2fa3950ba5a1cd5b75538bd8ba2be39ad46fa7c53bf272da9",
      "assetIds": [
        "55464657044963196816950587289035428064568320970692304673817341489688461979652",
        "55464657044963196816950587289035428064568320970692304673817341489688461979653",
        "55464657044963196816950587289035428064568320970692304673817341489688461979651",
        "55464657044963196816950587289035428064568320970692304673817341489688461979650",
        "55464657044963196816950587289035428064568320970692304673817341489688461979649",
        "55464657044963196816950587289035428064568320970692304673817341489688461979648",
        "55464657044963196816950587289035428064568320970692304673817341489688453580800"
      ]
    },
    {
      "x": 197,
      "y": 80,
      "size": 1,
      "price": "4683000000000000000000",
      "reserved": "",
      "salt": "0xd84dc6464da366e33b9e1117c1090e9ed528fec924e8acc07f46980ca23bf472",
      "assetIds": [
        "55464657044963196816950587289035428064568320970692304673817341489688461979652",
        "55464657044963196816950587289035428064568320970692304673817341489688461979653",
        "55464657044963196816950587289035428064568320970692304673817341489688461979651",
        "55464657044963196816950587289035428064568320970692304673817341489688461979650",
        "55464657044963196816950587289035428064568320970692304673817341489688461979649",
        "55464657044963196816950587289035428064568320970692304673817341489688461979648",
        "55464657044963196816950587289035428064568320970692304673817341489688453580800"
      ]
    },
    {
      "x": 197,
      "y": 81,
      "size": 1,
      "price": "4683000000000000000000",
      "reserved": "",
      "salt": "0x8f44ca377bc17c56468090270bd27454b63c4782bf203f11ff8193b0fa2725c1",
      "assetIds": [
        "55464657044963196816950587289035428064568320970692304673817341489688461979652",
        "55464657044963196816950587289035428064568320970692304673817341489688461979653",
        "55464657044963196816950587289035428064568320970692304673817341489688461979651",
        "55464657044963196816950587289035428064568320970692304673817341489688461979650",
        "55464657044963196816950587289035428064568320970692304673817341489688461979649",
        "55464657044963196816950587289035428064568320970692304673817341489688461979648",
        "55464657044963196816950587289035428064568320970692304673817341489688453580800"
      ]
    },
    {
      "x": 197,
      "y": 82,
      "size": 1,
      "price": "4683000000000000000000",
      "reserved": "",
      "salt": "0x7fe78c7696521e371827519e8350d2773b680cddd4e5b3c556f919f85a2a3a4f",
      "assetIds": [
        "55464657044963196816950587289035428064568320970692304673817341489688461979652",
        "55464657044963196816950587289035428064568320970692304673817341489688461979653",
        "55464657044963196816950587289035428064568320970692304673817341489688461979651",
        "55464657044963196816950587289035428064568320970692304673817341489688461979650",
        "55464657044963196816950587289035428064568320970692304673817341489688461979649",
        "55464657044963196816950587289035428064568320970692304673817341489688461979648",
        "55464657044963196816950587289035428064568320970692304673817341489688453580800"
      ]
    },
    {
      "x": 197,
      "y": 83,
      "size": 1,
      "price": "4683000000000000000000",
      "reserved": "",
      "salt": "0xacda95dc8c15edc0aa23c941670bec972bdb2dcc3b38fbde22ec3278914fbbb9",
      "assetIds": [
        "55464657044963196816950587289035428064568320970692304673817341489688461979652",
        "55464657044963196816950587289035428064568320970692304673817341489688461979653",
        "55464657044963196816950587289035428064568320970692304673817341489688461979651",
        "55464657044963196816950587289035428064568320970692304673817341489688461979650",
        "55464657044963196816950587289035428064568320970692304673817341489688461979649",
        "55464657044963196816950587289035428064568320970692304673817341489688461979648",
        "55464657044963196816950587289035428064568320970692304673817341489688453580800"
      ]
    },
    {
      "x": 197,
      "y": 87,
      "size": 1,
      "price": "1011000000000000000000",
      "reserved": "",
      "salt": "0x1ddb70450eac12d591981dd8b595595186e247e8c3fe69bf4bfa137d2b344b9c",
      "assetIds": []
    },
    {
      "x": 197,
      "y": 88,
      "size": 1,
      "price": "1011000000000000000000",
      "reserved": "",
      "salt": "0xb453ccceffc508ee8554984a2f073a9995100defc658994f073d00d8aaa9c325",
      "assetIds": []
    },
    {
      "x": 197,
      "y": 89,
      "size": 1,
      "price": "1011000000000000000000",
      "reserved": "",
      "salt": "0x6ce95631911ecf4bb0adb696cd124864d510c389c4810682c123d5253ba955f4",
      "assetIds": []
    },
    {
      "x": 197,
      "y": 90,
      "size": 1,
      "price": "4683000000000000000000",
      "reserved": "",
      "salt": "0x89939290231f565b443735fe489e4cfc72c0f841c6db6741ed63bee8d54a10ed",
      "assetIds": [
        "55464657044963196816950587289035428064568320970692304673817341489688461979652",
        "55464657044963196816950587289035428064568320970692304673817341489688461979653",
        "55464657044963196816950587289035428064568320970692304673817341489688461979651",
        "55464657044963196816950587289035428064568320970692304673817341489688461979650",
        "55464657044963196816950587289035428064568320970692304673817341489688461979649",
        "55464657044963196816950587289035428064568320970692304673817341489688461979648",
        "55464657044963196816950587289035428064568320970692304673817341489688453580800"
      ]
    },
    {
      "x": 197,
      "y": 91,
      "size": 1,
      "price": "4683000000000000000000",
      "reserved": "",
      "salt": "0xf23451cf3013982e050eaa94176e5ecc144a048715ab2450c66e94ada53a617e",
      "assetIds": [
        "55464657044963196816950587289035428064568320970692304673817341489688461979652",
        "55464657044963196816950587289035428064568320970692304673817341489688461979653",
        "55464657044963196816950587289035428064568320970692304673817341489688461979651",
        "55464657044963196816950587289035428064568320970692304673817341489688461979650",
        "55464657044963196816950587289035428064568320970692304673817341489688461979649",
        "55464657044963196816950587289035428064568320970692304673817341489688461979648",
        "55464657044963196816950587289035428064568320970692304673817341489688453580800"
      ]
    },
    {
      "x": 197,
      "y": 92,
      "size": 1,
      "price": "4683000000000000000000",
      "reserved": "",
      "salt": "0x3324ab6ad995d75702ce44c57afdf4cee11d2645b5efa8118da89341a8a96f0b",
      "assetIds": [
        "55464657044963196816950587289035428064568320970692304673817341489688461979652",
        "55464657044963196816950587289035428064568320970692304673817341489688461979653",
        "55464657044963196816950587289035428064568320970692304673817341489688461979651",
        "55464657044963196816950587289035428064568320970692304673817341489688461979650",
        "55464657044963196816950587289035428064568320970692304673817341489688461979649",
        "55464657044963196816950587289035428064568320970692304673817341489688461979648",
        "55464657044963196816950587289035428064568320970692304673817341489688453580800"
      ]
    },
    {
      "x": 197,
      "y": 93,
      "size": 1,
      "price": "4683000000000000000000",
      "reserved": "",
      "salt": "0xed76b493462cafb1d2859340f3127ae36ccc7347b698b46c7f7cff5f93a765d2",
      "assetIds": [
        "55464657044963196816950587289035428064568320970692304673817341489688461979652",
        "55464657044963196816950587289035428064568320970692304673817341489688461979653",
        "55464657044963196816950587289035428064568320970692304673817341489688461979651",
        "55464657044963196816950587289035428064568320970692304673817341489688461979650",
        "55464657044963196816950587289035428064568320970692304673817341489688461979649",
        "55464657044963196816950587289035428064568320970692304673817341489688461979648",
        "55464657044963196816950587289035428064568320970692304673817341489688453580800"
      ]
    },
    {
      "x": 197,
      "y": 94,
      "size": 1,
      "price": "4683000000000000000000",
      "reserved": "",
      "salt": "0xf6aa056bf1b215272aeb20693c0b1f4f3aee5a2a2d0dff2c52ae5fb5cf90d763",
      "assetIds": [
        "55464657044963196816950587289035428064568320970692304673817341489688461979652",
        "55464657044963196816950587289035428064568320970692304673817341489688461979653",
        "55464657044963196816950587289035428064568320970692304673817341489688461979651",
        "55464657044963196816950587289035428064568320970692304673817341489688461979650",
        "55464657044963196816950587289035428064568320970692304673817341489688461979649",
        "55464657044963196816950587289035428064568320970692304673817341489688461979648",
        "55464657044963196816950587289035428064568320970692304673817341489688453580800"
      ]
    },
    {
      "x": 197,
      "y": 95,
      "size": 1,
      "price": "4683000000000000000000",
      "reserved": "",
      "salt": "0x4b0f1c7e0fe9cc1e2972b94a557479789e39f9be70209ddafe866dd6d0c65b36",
      "assetIds": [
        "55464657044963196816950587289035428064568320970692304673817341489688461979652",
        "55464657044963196816950587289035428064568320970692304673817341489688461979653",
        "55464657044963196816950587289035428064568320970692304673817341489688461979651",
        "55464657044963196816950587289035428064568320970692304673817341489688461979650",
        "55464657044963196816950587289035428064568320970692304673817341489688461979649",
        "55464657044963196816950587289035428064568320970692304673817341489688461979648",
        "55464657044963196816950587289035428064568320970692304673817341489688453580800"
      ]
    },
    {
      "x": 197,
      "y": 96,
      "size": 1,
      "price": "1011000000000000000000",
      "reserved": "",
      "salt": "0x27c24f6a1087f412267780b087e31f67cdd177efee21d5a7430380d7c007ebf0",
      "assetIds": []
    },
    {
      "x": 197,
      "y": 97,
      "size": 1,
      "price": "1011000000000000000000",
      "reserved": "",
      "salt": "0x1d30a1ceac3760a224fc4db8aa5462c558842fae8dae5cab4414c6c2d5f1ccf9",
      "assetIds": []
    },
    {
      "x": 197,
      "y": 98,
      "size": 1,
      "price": "1011000000000000000000",
      "reserved": "",
      "salt": "0xb6e72160d41974f9103a9f60551b1c6760f6224db543dffc181398a9b50aa12b",
      "assetIds": []
    },
    {
      "x": 197,
      "y": 99,
      "size": 1,
      "price": "1011000000000000000000",
      "reserved": "",
      "salt": "0x77451e8702d8b37527217cfb40faeef492053ee2697b9bf0a9df47e45d052e6d",
      "assetIds": []
    },
    {
      "x": 197,
      "y": 100,
      "size": 1,
      "price": "1011000000000000000000",
      "reserved": "",
      "salt": "0x12b407ce53a05957ad78791a60e54c97ce615f36801e352483849b202c059a36",
      "assetIds": []
    },
    {
      "x": 197,
      "y": 101,
      "size": 1,
      "price": "1011000000000000000000",
      "reserved": "",
      "salt": "0x0c9c7da9dfac573c4724ef954505e9821bb5e2eef66f4675eafd0c75223b5b65",
      "assetIds": []
    },
    {
      "x": 198,
      "y": 77,
      "size": 1,
      "price": "4683000000000000000000",
      "reserved": "",
      "salt": "0x7c3dca4b9c4baa5d2c0608a6e816700827683f93888299c5b3e3c812cb2ac2c5",
      "assetIds": [
        "55464657044963196816950587289035428064568320970692304673817341489688461979652",
        "55464657044963196816950587289035428064568320970692304673817341489688461979653",
        "55464657044963196816950587289035428064568320970692304673817341489688461979651",
        "55464657044963196816950587289035428064568320970692304673817341489688461979650",
        "55464657044963196816950587289035428064568320970692304673817341489688461979649",
        "55464657044963196816950587289035428064568320970692304673817341489688461979648",
        "55464657044963196816950587289035428064568320970692304673817341489688453580800"
      ]
    },
    {
      "x": 198,
      "y": 84,
      "size": 1,
      "price": "4683000000000000000000",
      "reserved": "",
      "salt": "0x0f498fc4fbd658ad9769fb5e585c8a7c1fb39505ba7eda201c5c695eaef22307",
      "assetIds": [
        "55464657044963196816950587289035428064568320970692304673817341489688461979652",
        "55464657044963196816950587289035428064568320970692304673817341489688461979653",
        "55464657044963196816950587289035428064568320970692304673817341489688461979651",
        "55464657044963196816950587289035428064568320970692304673817341489688461979650",
        "55464657044963196816950587289035428064568320970692304673817341489688461979649",
        "55464657044963196816950587289035428064568320970692304673817341489688461979648",
        "55464657044963196816950587289035428064568320970692304673817341489688453580800"
      ]
    },
    {
      "x": 198,
      "y": 85,
      "size": 1,
      "price": "1011000000000000000000",
      "reserved": "",
      "salt": "0x92fb01687539c37f7d6d382128aeafc8b5d6e9f0a7947e2a9d78bc202b7fcd25",
      "assetIds": []
    },
    {
      "x": 198,
      "y": 86,
      "size": 1,
      "price": "1011000000000000000000",
      "reserved": "",
      "salt": "0x80033a14f13f5ce6cc6378294253b9f4879de44dd8e61e9ccf6b9b39a6fd3a77",
      "assetIds": []
    },
    {
      "x": 198,
      "y": 87,
      "size": 1,
      "price": "1011000000000000000000",
      "reserved": "",
      "salt": "0x56777c744586c6fc730696b7500fe7cd1d01485a238b34edbc8d6dcc08fe01b2",
      "assetIds": []
    },
    {
      "x": 198,
      "y": 88,
      "size": 1,
      "price": "1011000000000000000000",
      "reserved": "",
      "salt": "0xc15fdff3c3ebafee9a2b41bf8e962c1e72118459ce9f04cfbae2adcaa96000c6",
      "assetIds": []
    },
    {
      "x": 198,
      "y": 89,
      "size": 1,
      "price": "4683000000000000000000",
      "reserved": "",
      "salt": "0x5787e24296033880d9fba9732118631a64108b0fcdb6b2e79fcd4aeec2b814c2",
      "assetIds": [
        "55464657044963196816950587289035428064568320970692304673817341489688461979652",
        "55464657044963196816950587289035428064568320970692304673817341489688461979653",
        "55464657044963196816950587289035428064568320970692304673817341489688461979651",
        "55464657044963196816950587289035428064568320970692304673817341489688461979650",
        "55464657044963196816950587289035428064568320970692304673817341489688461979649",
        "55464657044963196816950587289035428064568320970692304673817341489688461979648",
        "55464657044963196816950587289035428064568320970692304673817341489688453580800"
      ]
    },
    {
      "x": 198,
      "y": 96,
      "size": 1,
      "price": "4683000000000000000000",
      "reserved": "",
      "salt": "0xb60d947f76fdb091fc810a9646d4de8ebf72401726fe0cd3c9c59796ddc54d62",
      "assetIds": [
        "55464657044963196816950587289035428064568320970692304673817341489688461979652",
        "55464657044963196816950587289035428064568320970692304673817341489688461979653",
        "55464657044963196816950587289035428064568320970692304673817341489688461979651",
        "55464657044963196816950587289035428064568320970692304673817341489688461979650",
        "55464657044963196816950587289035428064568320970692304673817341489688461979649",
        "55464657044963196816950587289035428064568320970692304673817341489688461979648",
        "55464657044963196816950587289035428064568320970692304673817341489688453580800"
      ]
    },
    {
      "x": 198,
      "y": 97,
      "size": 1,
      "price": "1011000000000000000000",
      "reserved": "",
      "salt": "0xf5cde675e2622640acdfcff69e4723432253437cc88906ce35998e63931c3a28",
      "assetIds": []
    },
    {
      "x": 198,
      "y": 98,
      "size": 1,
      "price": "1011000000000000000000",
      "reserved": "",
      "salt": "0x80f124ff871daab1ea2f2b3944526a6489777e1e4022b82f51692051f0f8dece",
      "assetIds": []
    },
    {
      "x": 198,
      "y": 99,
      "size": 1,
      "price": "1011000000000000000000",
      "reserved": "",
      "salt": "0x4abbbf1b916d0bf8490ea5d1cedd57558fdc396310775b89f73c7adeeca1e164",
      "assetIds": []
    },
    {
      "x": 198,
      "y": 100,
      "size": 1,
      "price": "1011000000000000000000",
      "reserved": "",
      "salt": "0x518311c4283aad612a631891c0fe236a1ced33cd2e2d4bee83d9957db8639d50",
      "assetIds": []
    },
    {
      "x": 198,
      "y": 101,
      "size": 1,
      "price": "1011000000000000000000",
      "reserved": "",
      "salt": "0x23bbf9a72c6f97c41717ec55a20f9724ef2a0a11a6de14ae51b35e578f5bca6e",
      "assetIds": []
    },
    {
      "x": 199,
      "y": 77,
      "size": 1,
      "price": "4683000000000000000000",
      "reserved": "",
      "salt": "0x7de298c822be155ea3be01cb58ae78bdb52f937e75a5e58009e0924d572b3a8d",
      "assetIds": [
        "55464657044963196816950587289035428064568320970692304673817341489688461979652",
        "55464657044963196816950587289035428064568320970692304673817341489688461979653",
        "55464657044963196816950587289035428064568320970692304673817341489688461979651",
        "55464657044963196816950587289035428064568320970692304673817341489688461979650",
        "55464657044963196816950587289035428064568320970692304673817341489688461979649",
        "55464657044963196816950587289035428064568320970692304673817341489688461979648",
        "55464657044963196816950587289035428064568320970692304673817341489688453580800"
      ]
    },
    {
      "x": 199,
      "y": 84,
      "size": 1,
      "price": "4683000000000000000000",
      "reserved": "",
      "salt": "0xf19f720a4f739e1855bd744e6e590c02959d0d92be8b8cd15a07e22748dcea64",
      "assetIds": [
        "55464657044963196816950587289035428064568320970692304673817341489688461979652",
        "55464657044963196816950587289035428064568320970692304673817341489688461979653",
        "55464657044963196816950587289035428064568320970692304673817341489688461979651",
        "55464657044963196816950587289035428064568320970692304673817341489688461979650",
        "55464657044963196816950587289035428064568320970692304673817341489688461979649",
        "55464657044963196816950587289035428064568320970692304673817341489688461979648",
        "55464657044963196816950587289035428064568320970692304673817341489688453580800"
      ]
    },
    {
      "x": 199,
      "y": 85,
      "size": 1,
      "price": "4683000000000000000000",
      "reserved": "",
      "salt": "0xa2609e06986fedcf7b4a1039aa727db9b576c19f03bd9275557301f414689fc7",
      "assetIds": [
        "55464657044963196816950587289035428064568320970692304673817341489688461979652",
        "55464657044963196816950587289035428064568320970692304673817341489688461979653",
        "55464657044963196816950587289035428064568320970692304673817341489688461979651",
        "55464657044963196816950587289035428064568320970692304673817341489688461979650",
        "55464657044963196816950587289035428064568320970692304673817341489688461979649",
        "55464657044963196816950587289035428064568320970692304673817341489688461979648",
        "55464657044963196816950587289035428064568320970692304673817341489688453580800"
      ]
    },
    {
      "x": 199,
      "y": 86,
      "size": 1,
      "price": "1011000000000000000000",
      "reserved": "",
      "salt": "0x08f8ff50eaf05ad0af609d09282b9d95b86a5ada7e5e7f3485719434742e8d99",
      "assetIds": []
    },
    {
      "x": 199,
      "y": 87,
      "size": 1,
      "price": "1011000000000000000000",
      "reserved": "",
      "salt": "0xdef0f9c0876d8a41964c57815498b831c6d23c52218e0296d35f6fd68a46dda4",
      "assetIds": []
    },
    {
      "x": 199,
      "y": 88,
      "size": 1,
      "price": "4683000000000000000000",
      "reserved": "",
      "salt": "0x38ded07cf71441ed073bc9deebcb6cc39779622c2e29219c8c4d0713c4c78e7c",
      "assetIds": [
        "55464657044963196816950587289035428064568320970692304673817341489688461979652",
        "55464657044963196816950587289035428064568320970692304673817341489688461979653",
        "55464657044963196816950587289035428064568320970692304673817341489688461979651",
        "55464657044963196816950587289035428064568320970692304673817341489688461979650",
        "55464657044963196816950587289035428064568320970692304673817341489688461979649",
        "55464657044963196816950587289035428064568320970692304673817341489688461979648",
        "55464657044963196816950587289035428064568320970692304673817341489688453580800"
      ]
    },
    {
      "x": 199,
      "y": 89,
      "size": 1,
      "price": "4683000000000000000000",
      "reserved": "",
      "salt": "0x9775ea03922e1a08c681c93010275123adfb29ddc9e83b02fd499520f2faf5d7",
      "assetIds": [
        "55464657044963196816950587289035428064568320970692304673817341489688461979652",
        "55464657044963196816950587289035428064568320970692304673817341489688461979653",
        "55464657044963196816950587289035428064568320970692304673817341489688461979651",
        "55464657044963196816950587289035428064568320970692304673817341489688461979650",
        "55464657044963196816950587289035428064568320970692304673817341489688461979649",
        "55464657044963196816950587289035428064568320970692304673817341489688461979648",
        "55464657044963196816950587289035428064568320970692304673817341489688453580800"
      ]
    },
    {
      "x": 199,
      "y": 96,
      "size": 1,
      "price": "4683000000000000000000",
      "reserved": "",
      "salt": "0x4871d53fbc457720b46bb803f338e81110b61a8d1dfb7c03931d065342bf973c",
      "assetIds": [
        "55464657044963196816950587289035428064568320970692304673817341489688461979652",
        "55464657044963196816950587289035428064568320970692304673817341489688461979653",
        "55464657044963196816950587289035428064568320970692304673817341489688461979651",
        "55464657044963196816950587289035428064568320970692304673817341489688461979650",
        "55464657044963196816950587289035428064568320970692304673817341489688461979649",
        "55464657044963196816950587289035428064568320970692304673817341489688461979648",
        "55464657044963196816950587289035428064568320970692304673817341489688453580800"
      ]
    },
    {
      "x": 199,
      "y": 97,
      "size": 1,
      "price": "4683000000000000000000",
      "reserved": "",
      "salt": "0xe7e4e7c337cf0ee8cd0cbdb7238387050b5f849cedaacdf7c7348640a97835c8",
      "assetIds": [
        "55464657044963196816950587289035428064568320970692304673817341489688461979652",
        "55464657044963196816950587289035428064568320970692304673817341489688461979653",
        "55464657044963196816950587289035428064568320970692304673817341489688461979651",
        "55464657044963196816950587289035428064568320970692304673817341489688461979650",
        "55464657044963196816950587289035428064568320970692304673817341489688461979649",
        "55464657044963196816950587289035428064568320970692304673817341489688461979648",
        "55464657044963196816950587289035428064568320970692304673817341489688453580800"
      ]
    },
    {
      "x": 199,
      "y": 98,
      "size": 1,
      "price": "1011000000000000000000",
      "reserved": "",
      "salt": "0x7748dfa804101b98681310d95c28568d12097715a6a60cd9b75959a29118b24b",
      "assetIds": []
    },
    {
      "x": 199,
      "y": 99,
      "size": 1,
      "price": "1011000000000000000000",
      "reserved": "",
      "salt": "0x260325a5261feb2b869bf16b20abfd0246d0ba8216aca1f586807e402fd2ec9c",
      "assetIds": []
    },
    {
      "x": 199,
      "y": 100,
      "size": 1,
      "price": "1011000000000000000000",
      "reserved": "",
      "salt": "0x2525d5968c5a7d79be270df160221bdf2e81e63f157911c9a1604364d95851cd",
      "assetIds": []
    },
    {
      "x": 199,
      "y": 101,
      "size": 1,
      "price": "1011000000000000000000",
      "reserved": "",
      "salt": "0xd9ab4a3a069bcf1d7bd943098118ca02c25b2c92329210e80c4dff43ae370567",
      "assetIds": []
    },
    {
      "x": 200,
      "y": 77,
      "size": 1,
      "price": "4683000000000000000000",
      "reserved": "",
      "salt": "0x2f169e80fb5a14ee089fb92febb0798581d879f0315058f73bb992de9bb70403",
      "assetIds": [
        "55464657044963196816950587289035428064568320970692304673817341489688461979652",
        "55464657044963196816950587289035428064568320970692304673817341489688461979653",
        "55464657044963196816950587289035428064568320970692304673817341489688461979651",
        "55464657044963196816950587289035428064568320970692304673817341489688461979650",
        "55464657044963196816950587289035428064568320970692304673817341489688461979649",
        "55464657044963196816950587289035428064568320970692304673817341489688461979648",
        "55464657044963196816950587289035428064568320970692304673817341489688453580800"
      ]
    },
    {
      "x": 200,
      "y": 84,
      "size": 1,
      "price": "4683000000000000000000",
      "reserved": "",
      "salt": "0x7cc953ccc8e2ce75b001d24b12b414efd83f2d0eb5c7f9f7b887978212a842a4",
      "assetIds": [
        "55464657044963196816950587289035428064568320970692304673817341489688461979652",
        "55464657044963196816950587289035428064568320970692304673817341489688461979653",
        "55464657044963196816950587289035428064568320970692304673817341489688461979651",
        "55464657044963196816950587289035428064568320970692304673817341489688461979650",
        "55464657044963196816950587289035428064568320970692304673817341489688461979649",
        "55464657044963196816950587289035428064568320970692304673817341489688461979648",
        "55464657044963196816950587289035428064568320970692304673817341489688453580800"
      ]
    },
    {
      "x": 200,
      "y": 85,
      "size": 1,
      "price": "4683000000000000000000",
      "reserved": "",
      "salt": "0x9aac01af219a04a5f322229e3ef4afdad572b4a017e09fd3f6cd71ece22806ec",
      "assetIds": [
        "55464657044963196816950587289035428064568320970692304673817341489688461979652",
        "55464657044963196816950587289035428064568320970692304673817341489688461979653",
        "55464657044963196816950587289035428064568320970692304673817341489688461979651",
        "55464657044963196816950587289035428064568320970692304673817341489688461979650",
        "55464657044963196816950587289035428064568320970692304673817341489688461979649",
        "55464657044963196816950587289035428064568320970692304673817341489688461979648",
        "55464657044963196816950587289035428064568320970692304673817341489688453580800"
      ]
    },
    {
      "x": 200,
      "y": 86,
      "size": 1,
      "price": "1011000000000000000000",
      "reserved": "",
      "salt": "0x2bb70fcac7c02c931b92d223d44083e3835be680355c30f49bb9ad107b12eafa",
      "assetIds": []
    },
    {
      "x": 200,
      "y": 87,
      "size": 1,
      "price": "1011000000000000000000",
      "reserved": "",
      "salt": "0x086475b84fa1f155e776e4ec194b659d9e3f2b580c476ee186fd4b094cf96465",
      "assetIds": []
    },
    {
      "x": 200,
      "y": 88,
      "size": 1,
      "price": "4683000000000000000000",
      "reserved": "",
      "salt": "0xf49e4e990ba39793ece0f199d9401b6918261e5c0b04ce0ee5837a920c7d1c0b",
      "assetIds": [
        "55464657044963196816950587289035428064568320970692304673817341489688461979652",
        "55464657044963196816950587289035428064568320970692304673817341489688461979653",
        "55464657044963196816950587289035428064568320970692304673817341489688461979651",
        "55464657044963196816950587289035428064568320970692304673817341489688461979650",
        "55464657044963196816950587289035428064568320970692304673817341489688461979649",
        "55464657044963196816950587289035428064568320970692304673817341489688461979648",
        "55464657044963196816950587289035428064568320970692304673817341489688453580800"
      ]
    },
    {
      "x": 200,
      "y": 89,
      "size": 1,
      "price": "4683000000000000000000",
      "reserved": "",
      "salt": "0xd1a2f9fb3e58fd1be4dae2cdb495b0893b77215b529452cd7e975d4adb072995",
      "assetIds": [
        "55464657044963196816950587289035428064568320970692304673817341489688461979652",
        "55464657044963196816950587289035428064568320970692304673817341489688461979653",
        "55464657044963196816950587289035428064568320970692304673817341489688461979651",
        "55464657044963196816950587289035428064568320970692304673817341489688461979650",
        "55464657044963196816950587289035428064568320970692304673817341489688461979649",
        "55464657044963196816950587289035428064568320970692304673817341489688461979648",
        "55464657044963196816950587289035428064568320970692304673817341489688453580800"
      ]
    },
    {
      "x": 200,
      "y": 96,
      "size": 1,
      "price": "4683000000000000000000",
      "reserved": "",
      "salt": "0x74dc743494ac74198a1bef60e5f46b5c24bc67854340f1290dee6345c7ce66ed",
      "assetIds": [
        "55464657044963196816950587289035428064568320970692304673817341489688461979652",
        "55464657044963196816950587289035428064568320970692304673817341489688461979653",
        "55464657044963196816950587289035428064568320970692304673817341489688461979651",
        "55464657044963196816950587289035428064568320970692304673817341489688461979650",
        "55464657044963196816950587289035428064568320970692304673817341489688461979649",
        "55464657044963196816950587289035428064568320970692304673817341489688461979648",
        "55464657044963196816950587289035428064568320970692304673817341489688453580800"
      ]
    },
    {
      "x": 200,
      "y": 97,
      "size": 1,
      "price": "4683000000000000000000",
      "reserved": "",
      "salt": "0x8944aa282d48865a4bae516333d4d60474837fa84205360ce3d8ce98e89c9580",
      "assetIds": [
        "55464657044963196816950587289035428064568320970692304673817341489688461979652",
        "55464657044963196816950587289035428064568320970692304673817341489688461979653",
        "55464657044963196816950587289035428064568320970692304673817341489688461979651",
        "55464657044963196816950587289035428064568320970692304673817341489688461979650",
        "55464657044963196816950587289035428064568320970692304673817341489688461979649",
        "55464657044963196816950587289035428064568320970692304673817341489688461979648",
        "55464657044963196816950587289035428064568320970692304673817341489688453580800"
      ]
    },
    {
      "x": 200,
      "y": 98,
      "size": 1,
      "price": "1011000000000000000000",
      "reserved": "",
      "salt": "0xc8530dc39d73168d988819bb3e9da6103a69d03c431f0f1c31136862ec51b226",
      "assetIds": []
    },
    {
      "x": 200,
      "y": 99,
      "size": 1,
      "price": "1011000000000000000000",
      "reserved": "",
      "salt": "0xecde3dc23ca1cd2d49ecf86ac52be8bc7120660ba1eede1cfa01e45b09bfc21e",
      "assetIds": []
    },
    {
      "x": 200,
      "y": 100,
      "size": 1,
      "price": "1011000000000000000000",
      "reserved": "",
      "salt": "0x6ba2725cd10e897cabacd769d07131278823e528007f9483ad247b60b1a4c4ae",
      "assetIds": []
    },
    {
      "x": 200,
      "y": 101,
      "size": 1,
      "price": "1011000000000000000000",
      "reserved": "",
      "salt": "0xff78f90c4742d808eeb4148716216d7be0c5fbd14d976b0e7fa5a68ac1ee4654",
      "assetIds": []
    },
    {
      "x": 201,
      "y": 77,
      "size": 1,
      "price": "4683000000000000000000",
      "reserved": "",
      "salt": "0x1e6fc5d83c6c5f95a61d6c366807a0e1426a564c9a836b6c2fb8c01066afe908",
      "assetIds": [
        "55464657044963196816950587289035428064568320970692304673817341489688461979652",
        "55464657044963196816950587289035428064568320970692304673817341489688461979653",
        "55464657044963196816950587289035428064568320970692304673817341489688461979651",
        "55464657044963196816950587289035428064568320970692304673817341489688461979650",
        "55464657044963196816950587289035428064568320970692304673817341489688461979649",
        "55464657044963196816950587289035428064568320970692304673817341489688461979648",
        "55464657044963196816950587289035428064568320970692304673817341489688453580800"
      ]
    },
    {
      "x": 201,
      "y": 84,
      "size": 1,
      "price": "4683000000000000000000",
      "reserved": "",
      "salt": "0xe7a894da2f1f51193df91de4b63e2f06f658a5f547be73834fe475d3e309f452",
      "assetIds": [
        "55464657044963196816950587289035428064568320970692304673817341489688461979652",
        "55464657044963196816950587289035428064568320970692304673817341489688461979653",
        "55464657044963196816950587289035428064568320970692304673817341489688461979651",
        "55464657044963196816950587289035428064568320970692304673817341489688461979650",
        "55464657044963196816950587289035428064568320970692304673817341489688461979649",
        "55464657044963196816950587289035428064568320970692304673817341489688461979648",
        "55464657044963196816950587289035428064568320970692304673817341489688453580800"
      ]
    },
    {
      "x": 201,
      "y": 85,
      "size": 1,
      "price": "4683000000000000000000",
      "reserved": "",
      "salt": "0x414fe2ebec3409557b1960b4cc61f5dfabdd2d05e9ff6cc0daa9d767ea1bf02a",
      "assetIds": [
        "55464657044963196816950587289035428064568320970692304673817341489688461979652",
        "55464657044963196816950587289035428064568320970692304673817341489688461979653",
        "55464657044963196816950587289035428064568320970692304673817341489688461979651",
        "55464657044963196816950587289035428064568320970692304673817341489688461979650",
        "55464657044963196816950587289035428064568320970692304673817341489688461979649",
        "55464657044963196816950587289035428064568320970692304673817341489688461979648",
        "55464657044963196816950587289035428064568320970692304673817341489688453580800"
      ]
    },
    {
      "x": 201,
      "y": 86,
      "size": 1,
      "price": "1011000000000000000000",
      "reserved": "",
      "salt": "0x329c08e9d937cb5bfc7c48290247ac7f267d93e434c3c65fb8a8390dd665db89",
      "assetIds": []
    },
    {
      "x": 201,
      "y": 87,
      "size": 1,
      "price": "1011000000000000000000",
      "reserved": "",
      "salt": "0x40e6ddc31dbce540bb3edfbc69beebe4fb3704f4fcd92dc46fff7d0eae50e553",
      "assetIds": []
    },
    {
      "x": 201,
      "y": 88,
      "size": 1,
      "price": "4683000000000000000000",
      "reserved": "",
      "salt": "0xf856f07f0b2e4a4626af8c7ab1d12ab3d9dc672bce8cdd6a4b45b1223d4f5a92",
      "assetIds": [
        "55464657044963196816950587289035428064568320970692304673817341489688461979652",
        "55464657044963196816950587289035428064568320970692304673817341489688461979653",
        "55464657044963196816950587289035428064568320970692304673817341489688461979651",
        "55464657044963196816950587289035428064568320970692304673817341489688461979650",
        "55464657044963196816950587289035428064568320970692304673817341489688461979649",
        "55464657044963196816950587289035428064568320970692304673817341489688461979648",
        "55464657044963196816950587289035428064568320970692304673817341489688453580800"
      ]
    },
    {
      "x": 201,
      "y": 89,
      "size": 1,
      "price": "4683000000000000000000",
      "reserved": "",
      "salt": "0x7cb43586a4af0ae4a3125ce75963784fe6b468be482a0571fe9b78d7bfe14971",
      "assetIds": [
        "55464657044963196816950587289035428064568320970692304673817341489688461979652",
        "55464657044963196816950587289035428064568320970692304673817341489688461979653",
        "55464657044963196816950587289035428064568320970692304673817341489688461979651",
        "55464657044963196816950587289035428064568320970692304673817341489688461979650",
        "55464657044963196816950587289035428064568320970692304673817341489688461979649",
        "55464657044963196816950587289035428064568320970692304673817341489688461979648",
        "55464657044963196816950587289035428064568320970692304673817341489688453580800"
      ]
    },
    {
      "x": 201,
      "y": 96,
      "size": 1,
      "price": "4683000000000000000000",
      "reserved": "",
      "salt": "0x7ae25c4cdc91eee2dc2901ad3628dde26b1ef07656757a6649920e6098e1b032",
      "assetIds": [
        "55464657044963196816950587289035428064568320970692304673817341489688461979652",
        "55464657044963196816950587289035428064568320970692304673817341489688461979653",
        "55464657044963196816950587289035428064568320970692304673817341489688461979651",
        "55464657044963196816950587289035428064568320970692304673817341489688461979650",
        "55464657044963196816950587289035428064568320970692304673817341489688461979649",
        "55464657044963196816950587289035428064568320970692304673817341489688461979648",
        "55464657044963196816950587289035428064568320970692304673817341489688453580800"
      ]
    },
    {
      "x": 201,
      "y": 97,
      "size": 1,
      "price": "4683000000000000000000",
      "reserved": "",
      "salt": "0x03c2182fd204897abff06a1e33dd5f94bfa8edfc55af515b393a19e3d349ce02",
      "assetIds": [
        "55464657044963196816950587289035428064568320970692304673817341489688461979652",
        "55464657044963196816950587289035428064568320970692304673817341489688461979653",
        "55464657044963196816950587289035428064568320970692304673817341489688461979651",
        "55464657044963196816950587289035428064568320970692304673817341489688461979650",
        "55464657044963196816950587289035428064568320970692304673817341489688461979649",
        "55464657044963196816950587289035428064568320970692304673817341489688461979648",
        "55464657044963196816950587289035428064568320970692304673817341489688453580800"
      ]
    },
    {
      "x": 201,
      "y": 98,
      "size": 1,
      "price": "1011000000000000000000",
      "reserved": "",
      "salt": "0x4a548a808f104a392fa811d487f74b77dd59a9596207c98c14da0e6e3fc36bba",
      "assetIds": []
    },
    {
      "x": 201,
      "y": 99,
      "size": 1,
      "price": "1011000000000000000000",
      "reserved": "",
      "salt": "0x66134b86cbc7a8b4946cc343044ddd82da8ef0a8efb59af7847e87fbd3f427a2",
      "assetIds": []
    },
    {
      "x": 201,
      "y": 100,
      "size": 1,
      "price": "1011000000000000000000",
      "reserved": "",
      "salt": "0xdb2c48fe6b29b01a0506d150d37341742ae1d54ab7d97eb66554b61ccff82e60",
      "assetIds": []
    },
    {
      "x": 201,
      "y": 101,
      "size": 1,
      "price": "1011000000000000000000",
      "reserved": "",
      "salt": "0x9db0783b1ed996b5bd8e9f208588c2cf34cde87f28a7e98a812eea8b7a82c8d7",
      "assetIds": []
    },
    {
      "x": 202,
      "y": 77,
      "size": 1,
      "price": "4683000000000000000000",
      "reserved": "",
      "salt": "0x5c12d8282dbc1d9d69418d3efa82766ce801f4227c6e6233f978c171ff0fedfb",
      "assetIds": [
        "55464657044963196816950587289035428064568320970692304673817341489688461979652",
        "55464657044963196816950587289035428064568320970692304673817341489688461979653",
        "55464657044963196816950587289035428064568320970692304673817341489688461979651",
        "55464657044963196816950587289035428064568320970692304673817341489688461979650",
        "55464657044963196816950587289035428064568320970692304673817341489688461979649",
        "55464657044963196816950587289035428064568320970692304673817341489688461979648",
        "55464657044963196816950587289035428064568320970692304673817341489688453580800"
      ]
    },
    {
      "x": 202,
      "y": 84,
      "size": 1,
      "price": "4683000000000000000000",
      "reserved": "",
      "salt": "0xe04d53a5d1a9e1a4038fceca922c5a32fdce99c968140c68163f8ba0d4d93fcb",
      "assetIds": [
        "55464657044963196816950587289035428064568320970692304673817341489688461979652",
        "55464657044963196816950587289035428064568320970692304673817341489688461979653",
        "55464657044963196816950587289035428064568320970692304673817341489688461979651",
        "55464657044963196816950587289035428064568320970692304673817341489688461979650",
        "55464657044963196816950587289035428064568320970692304673817341489688461979649",
        "55464657044963196816950587289035428064568320970692304673817341489688461979648",
        "55464657044963196816950587289035428064568320970692304673817341489688453580800"
      ]
    },
    {
      "x": 202,
      "y": 85,
      "size": 1,
      "price": "1011000000000000000000",
      "reserved": "",
      "salt": "0x32f10e3f03c2a5172e9de22bcbebddcdd61e555cf19d06a41c25cecbb8fb7a21",
      "assetIds": []
    },
    {
      "x": 202,
      "y": 86,
      "size": 1,
      "price": "1011000000000000000000",
      "reserved": "",
      "salt": "0x46964489c4e393355230064c628c89a632a3838ecbee0fa44d7128d250e38733",
      "assetIds": []
    },
    {
      "x": 202,
      "y": 87,
      "size": 1,
      "price": "1011000000000000000000",
      "reserved": "",
      "salt": "0x7b311e5c236e3b56213be2a623e4ed5dba56351c48d3c39e90d93899ae52c859",
      "assetIds": []
    },
    {
      "x": 202,
      "y": 88,
      "size": 1,
      "price": "4683000000000000000000",
      "reserved": "",
      "salt": "0x5ca963eea02f0f7a9cb5fabed0289a6ff549d09863e499f7a502d77256e9d0db",
      "assetIds": [
        "55464657044963196816950587289035428064568320970692304673817341489688461979652",
        "55464657044963196816950587289035428064568320970692304673817341489688461979653",
        "55464657044963196816950587289035428064568320970692304673817341489688461979651",
        "55464657044963196816950587289035428064568320970692304673817341489688461979650",
        "55464657044963196816950587289035428064568320970692304673817341489688461979649",
        "55464657044963196816950587289035428064568320970692304673817341489688461979648",
        "55464657044963196816950587289035428064568320970692304673817341489688453580800"
      ]
    },
    {
      "x": 202,
      "y": 89,
      "size": 1,
      "price": "4683000000000000000000",
      "reserved": "",
      "salt": "0xc073b48649d37d171c1d9e45788ba234d78b78c7d8ce55f04ff4fa0f9d368886",
      "assetIds": [
        "55464657044963196816950587289035428064568320970692304673817341489688461979652",
        "55464657044963196816950587289035428064568320970692304673817341489688461979653",
        "55464657044963196816950587289035428064568320970692304673817341489688461979651",
        "55464657044963196816950587289035428064568320970692304673817341489688461979650",
        "55464657044963196816950587289035428064568320970692304673817341489688461979649",
        "55464657044963196816950587289035428064568320970692304673817341489688461979648",
        "55464657044963196816950587289035428064568320970692304673817341489688453580800"
      ]
    },
    {
      "x": 202,
      "y": 96,
      "size": 1,
      "price": "4683000000000000000000",
      "reserved": "",
      "salt": "0x21aa766cca9b5edb211744762bb68a8b6cd0b7e3dabddc58e3b60190289b9dd9",
      "assetIds": [
        "55464657044963196816950587289035428064568320970692304673817341489688461979652",
        "55464657044963196816950587289035428064568320970692304673817341489688461979653",
        "55464657044963196816950587289035428064568320970692304673817341489688461979651",
        "55464657044963196816950587289035428064568320970692304673817341489688461979650",
        "55464657044963196816950587289035428064568320970692304673817341489688461979649",
        "55464657044963196816950587289035428064568320970692304673817341489688461979648",
        "55464657044963196816950587289035428064568320970692304673817341489688453580800"
      ]
    },
    {
      "x": 202,
      "y": 97,
      "size": 1,
      "price": "4683000000000000000000",
      "reserved": "",
      "salt": "0x972d46aa3bb23db01f2266b8e7f3179313f3b663db37c94cebe9976e78cc7725",
      "assetIds": [
        "55464657044963196816950587289035428064568320970692304673817341489688461979652",
        "55464657044963196816950587289035428064568320970692304673817341489688461979653",
        "55464657044963196816950587289035428064568320970692304673817341489688461979651",
        "55464657044963196816950587289035428064568320970692304673817341489688461979650",
        "55464657044963196816950587289035428064568320970692304673817341489688461979649",
        "55464657044963196816950587289035428064568320970692304673817341489688461979648",
        "55464657044963196816950587289035428064568320970692304673817341489688453580800"
      ]
    },
    {
      "x": 202,
      "y": 98,
      "size": 1,
      "price": "1011000000000000000000",
      "reserved": "",
      "salt": "0x2d4a9f4a27e019673d481373fe4ed2cfe4617159edc88be962336f35eaa4d0fb",
      "assetIds": []
    },
    {
      "x": 202,
      "y": 99,
      "size": 1,
      "price": "1011000000000000000000",
      "reserved": "",
      "salt": "0xab8ae48720561450e8d67774074158c5f4d3cfd2d82496ee564ccc8fbbf86dd4",
      "assetIds": []
    },
    {
      "x": 202,
      "y": 100,
      "size": 1,
      "price": "1011000000000000000000",
      "reserved": "",
      "salt": "0xe24af9327950f0682f97c10da69e89838404a078658346b3d36ccd2c1d65c2d8",
      "assetIds": []
    },
    {
      "x": 202,
      "y": 101,
      "size": 1,
      "price": "1011000000000000000000",
      "reserved": "",
      "salt": "0x1167e8233e61a9e287c98adccab59acbb0172cf4f1f7ecb8c2873789129f2bee",
      "assetIds": []
    },
    {
      "x": 203,
      "y": 77,
      "size": 1,
      "price": "4683000000000000000000",
      "reserved": "",
      "salt": "0x71f8c86d87c20f8eca2bae83bed83998991d9cba485e1e958a9e07e907ee0315",
      "assetIds": [
        "55464657044963196816950587289035428064568320970692304673817341489688461979652",
        "55464657044963196816950587289035428064568320970692304673817341489688461979653",
        "55464657044963196816950587289035428064568320970692304673817341489688461979651",
        "55464657044963196816950587289035428064568320970692304673817341489688461979650",
        "55464657044963196816950587289035428064568320970692304673817341489688461979649",
        "55464657044963196816950587289035428064568320970692304673817341489688461979648",
        "55464657044963196816950587289035428064568320970692304673817341489688453580800"
      ]
    },
    {
      "x": 203,
      "y": 84,
      "size": 1,
      "price": "4683000000000000000000",
      "reserved": "",
      "salt": "0xf2dfd49e77ecdaa748f0d14f19b412b2c1f4ed969b8f54d8247ff0a6a3032384",
      "assetIds": [
        "55464657044963196816950587289035428064568320970692304673817341489688461979652",
        "55464657044963196816950587289035428064568320970692304673817341489688461979653",
        "55464657044963196816950587289035428064568320970692304673817341489688461979651",
        "55464657044963196816950587289035428064568320970692304673817341489688461979650",
        "55464657044963196816950587289035428064568320970692304673817341489688461979649",
        "55464657044963196816950587289035428064568320970692304673817341489688461979648",
        "55464657044963196816950587289035428064568320970692304673817341489688453580800"
      ]
    },
    {
      "x": 203,
      "y": 85,
      "size": 1,
      "price": "1011000000000000000000",
      "reserved": "",
      "salt": "0xdb08ca0eac65c18791408610449e41806ad5ac05793113a0f6ddf6c717980171",
      "assetIds": []
    },
    {
      "x": 203,
      "y": 86,
      "size": 1,
      "price": "1011000000000000000000",
      "reserved": "",
      "salt": "0x4533a651bf37e6faa12b0e509c432b3c6f38713e271176d22707ccfb22f68d18",
      "assetIds": []
    },
    {
      "x": 203,
      "y": 87,
      "size": 1,
      "price": "1011000000000000000000",
      "reserved": "",
      "salt": "0x6501cec1ce9cf8dcac740d32dfb7b8ee49fe1631d907c1321699f632cf5f977d",
      "assetIds": []
    },
    {
      "x": 203,
      "y": 88,
      "size": 1,
      "price": "1011000000000000000000",
      "reserved": "",
      "salt": "0xbb6b51dda339be7cba8de101734466084318571b20263de596071a4ee1a09cdc",
      "assetIds": []
    },
    {
      "x": 203,
      "y": 89,
      "size": 1,
      "price": "4683000000000000000000",
      "reserved": "",
      "salt": "0x34ad5162d121a63b5ff732e5a5b6e45d8f05a269bb1bc37a91eb57e0189ebb81",
      "assetIds": [
        "55464657044963196816950587289035428064568320970692304673817341489688461979652",
        "55464657044963196816950587289035428064568320970692304673817341489688461979653",
        "55464657044963196816950587289035428064568320970692304673817341489688461979651",
        "55464657044963196816950587289035428064568320970692304673817341489688461979650",
        "55464657044963196816950587289035428064568320970692304673817341489688461979649",
        "55464657044963196816950587289035428064568320970692304673817341489688461979648",
        "55464657044963196816950587289035428064568320970692304673817341489688453580800"
      ]
    },
    {
      "x": 203,
      "y": 96,
      "size": 1,
      "price": "4683000000000000000000",
      "reserved": "",
      "salt": "0x64d9b7a07e186d516274a29ed19e8ec4e9046fee690e0f2fe741482d2905c8d2",
      "assetIds": [
        "55464657044963196816950587289035428064568320970692304673817341489688461979652",
        "55464657044963196816950587289035428064568320970692304673817341489688461979653",
        "55464657044963196816950587289035428064568320970692304673817341489688461979651",
        "55464657044963196816950587289035428064568320970692304673817341489688461979650",
        "55464657044963196816950587289035428064568320970692304673817341489688461979649",
        "55464657044963196816950587289035428064568320970692304673817341489688461979648",
        "55464657044963196816950587289035428064568320970692304673817341489688453580800"
      ]
    },
    {
      "x": 203,
      "y": 97,
      "size": 1,
      "price": "1011000000000000000000",
      "reserved": "",
      "salt": "0x4982afa9fc30b96f0d4846e9bc10d0af8630c420c66f7a8cc6e21a4973e8dbfe",
      "assetIds": []
    },
    {
      "x": 203,
      "y": 98,
      "size": 1,
      "price": "1011000000000000000000",
      "reserved": "",
      "salt": "0xf655908838bd3c4d3e01f5ea9d2b737939b5f92ed161dbf79735773b508e4d30",
      "assetIds": []
    },
    {
      "x": 203,
      "y": 99,
      "size": 1,
      "price": "1011000000000000000000",
      "reserved": "",
      "salt": "0xbf726b1e5dff64dd5a7e255eee13e1e83ef550a59039e6b841dda63163003336",
      "assetIds": []
    },
    {
      "x": 203,
      "y": 100,
      "size": 1,
      "price": "1011000000000000000000",
      "reserved": "",
      "salt": "0x95b4941959f2abbb1fec2ae7a2dcbb368dcc565cdd753259013a3b11ba353747",
      "assetIds": []
    },
    {
      "x": 203,
      "y": 101,
      "size": 1,
      "price": "1011000000000000000000",
      "reserved": "",
      "salt": "0xf6b07f9c7fd6884372ea2031124df463ed5dc2e9f3df48b298fabc21027db5e7",
      "assetIds": []
    },
    {
      "x": 204,
      "y": 76,
      "size": 1,
      "price": "1011000000000000000000",
      "reserved": "",
      "salt": "0x9b293a8f0347ca97279e9fe2a1bdb8886696557062a6bc2a607b98dd095210d0",
      "assetIds": []
    },
    {
      "x": 204,
      "y": 77,
      "size": 1,
      "price": "1011000000000000000000",
      "reserved": "",
      "salt": "0x56b317aa30a16bf7da506cae1526527fef576dd269e1228d443039dda79d4554",
      "assetIds": []
    },
    {
      "x": 204,
      "y": 78,
      "size": 1,
      "price": "4683000000000000000000",
      "reserved": "",
      "salt": "0xead0da77949ca649e4dcee1052dff8e0da9a4a6d66ec9fcd94012d1b134df11a",
      "assetIds": [
        "55464657044963196816950587289035428064568320970692304673817341489688461979652",
        "55464657044963196816950587289035428064568320970692304673817341489688461979653",
        "55464657044963196816950587289035428064568320970692304673817341489688461979651",
        "55464657044963196816950587289035428064568320970692304673817341489688461979650",
        "55464657044963196816950587289035428064568320970692304673817341489688461979649",
        "55464657044963196816950587289035428064568320970692304673817341489688461979648",
        "55464657044963196816950587289035428064568320970692304673817341489688453580800"
      ]
    },
    {
      "x": 204,
      "y": 79,
      "size": 1,
      "price": "4683000000000000000000",
      "reserved": "",
      "salt": "0xcac39f40652926a49b578f2aee52207f37c93e9ac4a33c0d579aafb1c6e54d94",
      "assetIds": [
        "55464657044963196816950587289035428064568320970692304673817341489688461979652",
        "55464657044963196816950587289035428064568320970692304673817341489688461979653",
        "55464657044963196816950587289035428064568320970692304673817341489688461979651",
        "55464657044963196816950587289035428064568320970692304673817341489688461979650",
        "55464657044963196816950587289035428064568320970692304673817341489688461979649",
        "55464657044963196816950587289035428064568320970692304673817341489688461979648",
        "55464657044963196816950587289035428064568320970692304673817341489688453580800"
      ]
    },
    {
      "x": 204,
      "y": 80,
      "size": 1,
      "price": "4683000000000000000000",
      "reserved": "",
      "salt": "0xb52b55db11ee37eb6bd3f2b441a3f8117423949fc3ddf672baaa7dae3a3d66dd",
      "assetIds": [
        "55464657044963196816950587289035428064568320970692304673817341489688461979652",
        "55464657044963196816950587289035428064568320970692304673817341489688461979653",
        "55464657044963196816950587289035428064568320970692304673817341489688461979651",
        "55464657044963196816950587289035428064568320970692304673817341489688461979650",
        "55464657044963196816950587289035428064568320970692304673817341489688461979649",
        "55464657044963196816950587289035428064568320970692304673817341489688461979648",
        "55464657044963196816950587289035428064568320970692304673817341489688453580800"
      ]
    },
    {
      "x": 204,
      "y": 81,
      "size": 1,
      "price": "4683000000000000000000",
      "reserved": "",
      "salt": "0x9dca99fad3fed3537be4113f578bc864dcc38870068e1ca735ee8dc40eac850c",
      "assetIds": [
        "55464657044963196816950587289035428064568320970692304673817341489688461979652",
        "55464657044963196816950587289035428064568320970692304673817341489688461979653",
        "55464657044963196816950587289035428064568320970692304673817341489688461979651",
        "55464657044963196816950587289035428064568320970692304673817341489688461979650",
        "55464657044963196816950587289035428064568320970692304673817341489688461979649",
        "55464657044963196816950587289035428064568320970692304673817341489688461979648",
        "55464657044963196816950587289035428064568320970692304673817341489688453580800"
      ]
    },
    {
      "x": 204,
      "y": 82,
      "size": 1,
      "price": "4683000000000000000000",
      "reserved": "",
      "salt": "0x39fc654b5fcc09129addf03c4a366b0be4eb760e2cab21dbf55058c5dee91308",
      "assetIds": [
        "55464657044963196816950587289035428064568320970692304673817341489688461979652",
        "55464657044963196816950587289035428064568320970692304673817341489688461979653",
        "55464657044963196816950587289035428064568320970692304673817341489688461979651",
        "55464657044963196816950587289035428064568320970692304673817341489688461979650",
        "55464657044963196816950587289035428064568320970692304673817341489688461979649",
        "55464657044963196816950587289035428064568320970692304673817341489688461979648",
        "55464657044963196816950587289035428064568320970692304673817341489688453580800"
      ]
    },
    {
      "x": 204,
      "y": 83,
      "size": 1,
      "price": "4683000000000000000000",
      "reserved": "",
      "salt": "0x1d96d5f02257a5b37359943a5917b28045865f6d99a3697034841e8325f744d0",
      "assetIds": [
        "55464657044963196816950587289035428064568320970692304673817341489688461979652",
        "55464657044963196816950587289035428064568320970692304673817341489688461979653",
        "55464657044963196816950587289035428064568320970692304673817341489688461979651",
        "55464657044963196816950587289035428064568320970692304673817341489688461979650",
        "55464657044963196816950587289035428064568320970692304673817341489688461979649",
        "55464657044963196816950587289035428064568320970692304673817341489688461979648",
        "55464657044963196816950587289035428064568320970692304673817341489688453580800"
      ]
    },
    {
      "x": 204,
      "y": 84,
      "size": 1,
      "price": "1011000000000000000000",
      "reserved": "",
      "salt": "0xde9b38f0b0245afc19c2738571c1162602dcbd64f2ac6b8f6d09b0d159dc6924",
      "assetIds": []
    },
    {
      "x": 204,
      "y": 85,
      "size": 1,
      "price": "1011000000000000000000",
      "reserved": "",
      "salt": "0x7a1816bf791b0a91b015cfb2248ed2f49f3f59e95fcfb1ae71d0f2d5619689d8",
      "assetIds": []
    },
    {
      "x": 204,
      "y": 86,
      "size": 1,
      "price": "1011000000000000000000",
      "reserved": "",
      "salt": "0xa72773caea5c2c91ce726ccf54629675b07887de3da880a68bc57970c4e4574b",
      "assetIds": []
    },
    {
      "x": 204,
      "y": 87,
      "size": 1,
      "price": "1011000000000000000000",
      "reserved": "",
      "salt": "0x36ce3a3ec184f9559c27d8c9975461b0c5e6176139c6da3c7dd844b631e139bd",
      "assetIds": []
    },
    {
      "x": 204,
      "y": 88,
      "size": 1,
      "price": "1011000000000000000000",
      "reserved": "",
      "salt": "0x8bcc5df80897e54ae52ec7e0446e8afe0478a2fe4e413da7f9d353743fbc0080",
      "assetIds": []
    },
    {
      "x": 204,
      "y": 89,
      "size": 1,
      "price": "1011000000000000000000",
      "reserved": "",
      "salt": "0xebf8c6e623f264e413ee8e11d6eaadfbfeaff1f1b1edbc5fd830485e2682b522",
      "assetIds": []
    },
    {
      "x": 204,
      "y": 90,
      "size": 1,
      "price": "4683000000000000000000",
      "reserved": "",
      "salt": "0xe83ef39287d2a154852f0a7bd0eddfc0bb6d2112f91b97742b57adf90c33e248",
      "assetIds": [
        "55464657044963196816950587289035428064568320970692304673817341489688461979652",
        "55464657044963196816950587289035428064568320970692304673817341489688461979653",
        "55464657044963196816950587289035428064568320970692304673817341489688461979651",
        "55464657044963196816950587289035428064568320970692304673817341489688461979650",
        "55464657044963196816950587289035428064568320970692304673817341489688461979649",
        "55464657044963196816950587289035428064568320970692304673817341489688461979648",
        "55464657044963196816950587289035428064568320970692304673817341489688453580800"
      ]
    },
    {
      "x": 204,
      "y": 91,
      "size": 1,
      "price": "4683000000000000000000",
      "reserved": "",
      "salt": "0x663cc7c598809855f984e6c2c4d5728946be772efaf81040c6b462c398a9c632",
      "assetIds": [
        "55464657044963196816950587289035428064568320970692304673817341489688461979652",
        "55464657044963196816950587289035428064568320970692304673817341489688461979653",
        "55464657044963196816950587289035428064568320970692304673817341489688461979651",
        "55464657044963196816950587289035428064568320970692304673817341489688461979650",
        "55464657044963196816950587289035428064568320970692304673817341489688461979649",
        "55464657044963196816950587289035428064568320970692304673817341489688461979648",
        "55464657044963196816950587289035428064568320970692304673817341489688453580800"
      ]
    },
    {
      "x": 204,
      "y": 92,
      "size": 1,
      "price": "4683000000000000000000",
      "reserved": "",
      "salt": "0x1588fcebf0c1a8d1f33398e0ccb4f9d38b1cdb8538d3c963c965bb5cfc5a671a",
      "assetIds": [
        "55464657044963196816950587289035428064568320970692304673817341489688461979652",
        "55464657044963196816950587289035428064568320970692304673817341489688461979653",
        "55464657044963196816950587289035428064568320970692304673817341489688461979651",
        "55464657044963196816950587289035428064568320970692304673817341489688461979650",
        "55464657044963196816950587289035428064568320970692304673817341489688461979649",
        "55464657044963196816950587289035428064568320970692304673817341489688461979648",
        "55464657044963196816950587289035428064568320970692304673817341489688453580800"
      ]
    },
    {
      "x": 204,
      "y": 93,
      "size": 1,
      "price": "4683000000000000000000",
      "reserved": "",
      "salt": "0x069441c66b072381ded6eea4d3362d557aaa9435e8efbef8e782dcb66d6248ea",
      "assetIds": [
        "55464657044963196816950587289035428064568320970692304673817341489688461979652",
        "55464657044963196816950587289035428064568320970692304673817341489688461979653",
        "55464657044963196816950587289035428064568320970692304673817341489688461979651",
        "55464657044963196816950587289035428064568320970692304673817341489688461979650",
        "55464657044963196816950587289035428064568320970692304673817341489688461979649",
        "55464657044963196816950587289035428064568320970692304673817341489688461979648",
        "55464657044963196816950587289035428064568320970692304673817341489688453580800"
      ]
    },
    {
      "x": 204,
      "y": 94,
      "size": 1,
      "price": "4683000000000000000000",
      "reserved": "",
      "salt": "0x0354ca19538ea4d87a8c401e46e1209c563c2a809ffb80574ce28918247846a1",
      "assetIds": [
        "55464657044963196816950587289035428064568320970692304673817341489688461979652",
        "55464657044963196816950587289035428064568320970692304673817341489688461979653",
        "55464657044963196816950587289035428064568320970692304673817341489688461979651",
        "55464657044963196816950587289035428064568320970692304673817341489688461979650",
        "55464657044963196816950587289035428064568320970692304673817341489688461979649",
        "55464657044963196816950587289035428064568320970692304673817341489688461979648",
        "55464657044963196816950587289035428064568320970692304673817341489688453580800"
      ]
    },
    {
      "x": 204,
      "y": 95,
      "size": 1,
      "price": "4683000000000000000000",
      "reserved": "",
      "salt": "0x45018d3e7600965ed272be7f5f1bb5afa94c80ff3a462de8c8098f74e9639842",
      "assetIds": [
        "55464657044963196816950587289035428064568320970692304673817341489688461979652",
        "55464657044963196816950587289035428064568320970692304673817341489688461979653",
        "55464657044963196816950587289035428064568320970692304673817341489688461979651",
        "55464657044963196816950587289035428064568320970692304673817341489688461979650",
        "55464657044963196816950587289035428064568320970692304673817341489688461979649",
        "55464657044963196816950587289035428064568320970692304673817341489688461979648",
        "55464657044963196816950587289035428064568320970692304673817341489688453580800"
      ]
    },
    {
      "x": 205,
      "y": 76,
      "size": 1,
      "price": "1011000000000000000000",
      "reserved": "",
      "salt": "0x3d960378819c330df57c994b8d8bd639efa7cb7a8cfe2788be038a0bf237bc80",
      "assetIds": []
    },
    {
      "x": 205,
      "y": 77,
      "size": 1,
      "price": "1011000000000000000000",
      "reserved": "",
      "salt": "0x0374518dba43a628bd65b1c8f56ec20402ce13d390f69354481840cafe0f3b31",
      "assetIds": []
    },
    {
      "x": 205,
      "y": 78,
      "size": 1,
      "price": "1011000000000000000000",
      "reserved": "",
      "salt": "0x6bc85bf4379cae5857796363b0922846e35ba6bfa9dcb22ca16cc72fea8f619b",
      "assetIds": []
    },
    {
      "x": 205,
      "y": 79,
      "size": 1,
      "price": "4683000000000000000000",
      "reserved": "",
      "salt": "0x8ba6448fd0ab139c09ca5933e508be838353836d376ba9dfc8e1adfadae3c492",
      "assetIds": [
        "55464657044963196816950587289035428064568320970692304673817341489688461979652",
        "55464657044963196816950587289035428064568320970692304673817341489688461979653",
        "55464657044963196816950587289035428064568320970692304673817341489688461979651",
        "55464657044963196816950587289035428064568320970692304673817341489688461979650",
        "55464657044963196816950587289035428064568320970692304673817341489688461979649",
        "55464657044963196816950587289035428064568320970692304673817341489688461979648",
        "55464657044963196816950587289035428064568320970692304673817341489688453580800"
      ]
    },
    {
      "x": 205,
      "y": 80,
      "size": 1,
      "price": "4683000000000000000000",
      "reserved": "",
      "salt": "0x2c983b04448d223c9197359f1797c77e2b7c1062a7ef38e58e9b7ce25bd8606c",
      "assetIds": [
        "55464657044963196816950587289035428064568320970692304673817341489688461979652",
        "55464657044963196816950587289035428064568320970692304673817341489688461979653",
        "55464657044963196816950587289035428064568320970692304673817341489688461979651",
        "55464657044963196816950587289035428064568320970692304673817341489688461979650",
        "55464657044963196816950587289035428064568320970692304673817341489688461979649",
        "55464657044963196816950587289035428064568320970692304673817341489688461979648",
        "55464657044963196816950587289035428064568320970692304673817341489688453580800"
      ]
    },
    {
      "x": 205,
      "y": 81,
      "size": 1,
      "price": "4683000000000000000000",
      "reserved": "",
      "salt": "0x8dd1e58846c018c639a99dabe5e5abbf4aee7d9ab123db6aeda59cf688a75079",
      "assetIds": [
        "55464657044963196816950587289035428064568320970692304673817341489688461979652",
        "55464657044963196816950587289035428064568320970692304673817341489688461979653",
        "55464657044963196816950587289035428064568320970692304673817341489688461979651",
        "55464657044963196816950587289035428064568320970692304673817341489688461979650",
        "55464657044963196816950587289035428064568320970692304673817341489688461979649",
        "55464657044963196816950587289035428064568320970692304673817341489688461979648",
        "55464657044963196816950587289035428064568320970692304673817341489688453580800"
      ]
    },
    {
      "x": 205,
      "y": 82,
      "size": 1,
      "price": "4683000000000000000000",
      "reserved": "",
      "salt": "0x8f766df014fede0b4b4fd43118ea40055773d392f002cf67c0b9ad57876c7732",
      "assetIds": [
        "55464657044963196816950587289035428064568320970692304673817341489688461979652",
        "55464657044963196816950587289035428064568320970692304673817341489688461979653",
        "55464657044963196816950587289035428064568320970692304673817341489688461979651",
        "55464657044963196816950587289035428064568320970692304673817341489688461979650",
        "55464657044963196816950587289035428064568320970692304673817341489688461979649",
        "55464657044963196816950587289035428064568320970692304673817341489688461979648",
        "55464657044963196816950587289035428064568320970692304673817341489688453580800"
      ]
    },
    {
      "x": 205,
      "y": 83,
      "size": 1,
      "price": "1011000000000000000000",
      "reserved": "",
      "salt": "0x9df4b9fdd7cbadf879f75cdc79af7b5dbae2fd4637a29148dadd1b52bd67df7d",
      "assetIds": []
    },
    {
      "x": 205,
      "y": 84,
      "size": 1,
      "price": "1011000000000000000000",
      "reserved": "",
      "salt": "0xbe0b5617218c7582e7105a495bbccb86e7eb8ce566a808a6bec7c8974bbbfd69",
      "assetIds": []
    },
    {
      "x": 205,
      "y": 85,
      "size": 1,
      "price": "1011000000000000000000",
      "reserved": "",
      "salt": "0x1b4c04915f3ce62a816b6a65672b803b97507642dbfc8036cc57f94846160060",
      "assetIds": []
    },
    {
      "x": 205,
      "y": 86,
      "size": 1,
      "price": "1011000000000000000000",
      "reserved": "",
      "salt": "0x125a41bf5a55a9fea1f2344292037013de2f1c07917da6b5adadd927b8d94cbb",
      "assetIds": []
    },
    {
      "x": 205,
      "y": 87,
      "size": 1,
      "price": "1011000000000000000000",
      "reserved": "",
      "salt": "0x568f539e058577a5d5b05a7ade56611cf25ee322c51fb7af994c81f6eb09cbcf",
      "assetIds": []
    },
    {
      "x": 205,
      "y": 88,
      "size": 1,
      "price": "1011000000000000000000",
      "reserved": "",
      "salt": "0x3cbb097d55b74f6a3f2cf6d6b2cb3dd20d1cdda326ecc7643ceb383f0496888f",
      "assetIds": []
    },
    {
      "x": 205,
      "y": 89,
      "size": 1,
      "price": "1011000000000000000000",
      "reserved": "",
      "salt": "0x295eafce3bd90140c56b10b1a11617b9504af16a1f1662cb6f6fab155ff5d8b5",
      "assetIds": []
    },
    {
      "x": 205,
      "y": 90,
      "size": 1,
      "price": "4683000000000000000000",
      "reserved": "",
      "salt": "0x1cc8b333feb77f33fc6a2f9c3271b820e715c8364d7ae1ef0ffbfb7ebca1abce",
      "assetIds": [
        "55464657044963196816950587289035428064568320970692304673817341489688461979652",
        "55464657044963196816950587289035428064568320970692304673817341489688461979653",
        "55464657044963196816950587289035428064568320970692304673817341489688461979651",
        "55464657044963196816950587289035428064568320970692304673817341489688461979650",
        "55464657044963196816950587289035428064568320970692304673817341489688461979649",
        "55464657044963196816950587289035428064568320970692304673817341489688461979648",
        "55464657044963196816950587289035428064568320970692304673817341489688453580800"
      ]
    },
    {
      "x": 205,
      "y": 91,
      "size": 1,
      "price": "4683000000000000000000",
      "reserved": "",
      "salt": "0xd37ff746de7a079950008e189abb6fa31a5531c1c0f986977255ce4ff0bd0392",
      "assetIds": [
        "55464657044963196816950587289035428064568320970692304673817341489688461979652",
        "55464657044963196816950587289035428064568320970692304673817341489688461979653",
        "55464657044963196816950587289035428064568320970692304673817341489688461979651",
        "55464657044963196816950587289035428064568320970692304673817341489688461979650",
        "55464657044963196816950587289035428064568320970692304673817341489688461979649",
        "55464657044963196816950587289035428064568320970692304673817341489688461979648",
        "55464657044963196816950587289035428064568320970692304673817341489688453580800"
      ]
    },
    {
      "x": 205,
      "y": 92,
      "size": 1,
      "price": "4683000000000000000000",
      "reserved": "",
      "salt": "0x6b19523ae9486ff3b0c4986830bc49844b02ff3a58d60059a8ad211dff6973b5",
      "assetIds": [
        "55464657044963196816950587289035428064568320970692304673817341489688461979652",
        "55464657044963196816950587289035428064568320970692304673817341489688461979653",
        "55464657044963196816950587289035428064568320970692304673817341489688461979651",
        "55464657044963196816950587289035428064568320970692304673817341489688461979650",
        "55464657044963196816950587289035428064568320970692304673817341489688461979649",
        "55464657044963196816950587289035428064568320970692304673817341489688461979648",
        "55464657044963196816950587289035428064568320970692304673817341489688453580800"
      ]
    },
    {
      "x": 205,
      "y": 93,
      "size": 1,
      "price": "4683000000000000000000",
      "reserved": "",
      "salt": "0x14339524e02996ac3f1937540d4c5261d98f65908eda7aba6bb58f3d38a185ba",
      "assetIds": [
        "55464657044963196816950587289035428064568320970692304673817341489688461979652",
        "55464657044963196816950587289035428064568320970692304673817341489688461979653",
        "55464657044963196816950587289035428064568320970692304673817341489688461979651",
        "55464657044963196816950587289035428064568320970692304673817341489688461979650",
        "55464657044963196816950587289035428064568320970692304673817341489688461979649",
        "55464657044963196816950587289035428064568320970692304673817341489688461979648",
        "55464657044963196816950587289035428064568320970692304673817341489688453580800"
      ]
    },
    {
      "x": 205,
      "y": 94,
      "size": 1,
      "price": "4683000000000000000000",
      "reserved": "",
      "salt": "0xf26c31d5348c4c1b0e94ea860726e8cd4fccbf8f6293c7941e8a5cee64b4ff5d",
      "assetIds": [
        "55464657044963196816950587289035428064568320970692304673817341489688461979652",
        "55464657044963196816950587289035428064568320970692304673817341489688461979653",
        "55464657044963196816950587289035428064568320970692304673817341489688461979651",
        "55464657044963196816950587289035428064568320970692304673817341489688461979650",
        "55464657044963196816950587289035428064568320970692304673817341489688461979649",
        "55464657044963196816950587289035428064568320970692304673817341489688461979648",
        "55464657044963196816950587289035428064568320970692304673817341489688453580800"
      ]
    },
    {
      "x": 205,
      "y": 95,
      "size": 1,
      "price": "1011000000000000000000",
      "reserved": "",
      "salt": "0xaeb5b63d64d612bbaf2f2b9e20cbfd7fe3594ead9a904489c7a0f0b7645539c4",
      "assetIds": []
    },
    {
      "x": 206,
      "y": 76,
      "size": 1,
      "price": "1011000000000000000000",
      "reserved": "",
      "salt": "0x3c5fd94a0c11f12cf84b88fe32c7519ee06976625a5a4ec7034c45f6cb237ebc",
      "assetIds": []
    },
    {
      "x": 206,
      "y": 77,
      "size": 1,
      "price": "1011000000000000000000",
      "reserved": "",
      "salt": "0x84b89e5beedec0dae48a77d73bf08b6d1692e41d29cbf61f01130a4d987e6c2b",
      "assetIds": []
    },
    {
      "x": 206,
      "y": 78,
      "size": 1,
      "price": "1011000000000000000000",
      "reserved": "",
      "salt": "0x6cec5e945cfe180f3b3c2b3085633be43408f4aeb7e46d31d82c0b20fe4d06f9",
      "assetIds": []
    },
    {
      "x": 206,
      "y": 79,
      "size": 1,
      "price": "1011000000000000000000",
      "reserved": "",
      "salt": "0x2844952c68a8f2b18749d57cc0256cc8b31db736e6f0458c9b185b1905d5298d",
      "assetIds": []
    },
    {
      "x": 206,
      "y": 80,
      "size": 1,
      "price": "1011000000000000000000",
      "reserved": "",
      "salt": "0x493e0801e0d1f4092dc868b88057107b3d4243c67f1c43a8fab1252ad39a6873",
      "assetIds": []
    },
    {
      "x": 206,
      "y": 81,
      "size": 1,
      "price": "1011000000000000000000",
      "reserved": "",
      "salt": "0x54271e8c682a78230ab873baa0ae6ec9af1842958efc72ccc86dac6c565c7dda",
      "assetIds": []
    },
    {
      "x": 206,
      "y": 82,
      "size": 1,
      "price": "1011000000000000000000",
      "reserved": "",
      "salt": "0xeb2fb28f218b0185da490408677d4f87174b714ef4b58a0b2447860dd8f09453",
      "assetIds": []
    },
    {
      "x": 206,
      "y": 83,
      "size": 1,
      "price": "1011000000000000000000",
      "reserved": "",
      "salt": "0x39433ce3a9ffaa93d3d0ce6393339a3102df6de264fb589c26314b551ac3cbe6",
      "assetIds": []
    },
    {
      "x": 206,
      "y": 84,
      "size": 1,
      "price": "1011000000000000000000",
      "reserved": "",
      "salt": "0x7b0f63bf35bb60a5e7ca0fd1d1a1edd1ad40ec001570f1a558d864459b069364",
      "assetIds": []
    },
    {
      "x": 206,
      "y": 85,
      "size": 1,
      "price": "1011000000000000000000",
      "reserved": "",
      "salt": "0x7064cdb6f7aa776a75de2f6a4476c4beb000948edb92815b26b461137aaaae3e",
      "assetIds": []
    },
    {
      "x": 206,
      "y": 86,
      "size": 1,
      "price": "1011000000000000000000",
      "reserved": "",
      "salt": "0xc9c806a0883bca8df75f9e160b425274ca2eaf25a5b0dbc110e7eeab9cebb5f2",
      "assetIds": []
    },
    {
      "x": 206,
      "y": 87,
      "size": 1,
      "price": "1011000000000000000000",
      "reserved": "",
      "salt": "0x5c0da31ae068bc2239b23c0da77d0661c8d033b8e9f8c37652f20e8fa634f8f1",
      "assetIds": []
    },
    {
      "x": 206,
      "y": 88,
      "size": 1,
      "price": "1011000000000000000000",
      "reserved": "",
      "salt": "0xf87b4d6f3bd8aca2ca1241dfe2a8960bb2993cf9a3f195c271d0b62a6dce67f9",
      "assetIds": []
    },
    {
      "x": 206,
      "y": 89,
      "size": 1,
      "price": "1011000000000000000000",
      "reserved": "",
      "salt": "0xb063bb0d943a027ebfffdab7b8a5f4e6995dbe28551acbf761a782e68cd94267",
      "assetIds": []
    },
    {
      "x": 206,
      "y": 90,
      "size": 1,
      "price": "1011000000000000000000",
      "reserved": "",
      "salt": "0x4f89cafb1857a403535ff9d36b003df512d22a5da011146b840e0012f36fd6b5",
      "assetIds": []
    },
    {
      "x": 206,
      "y": 91,
      "size": 1,
      "price": "1011000000000000000000",
      "reserved": "",
      "salt": "0x5e65babf4913d8259cab9d7aaf17a65657fd2e2cd8820fe7ede1997f67eb7e18",
      "assetIds": []
    },
    {
      "x": 206,
      "y": 92,
      "size": 1,
      "price": "1011000000000000000000",
      "reserved": "",
      "salt": "0x670cfbbc5351c0c1dd15e44dd69a32e5af9840898b3bb271f8540dc602c5be7c",
      "assetIds": []
    },
    {
      "x": 206,
      "y": 93,
      "size": 1,
      "price": "1011000000000000000000",
      "reserved": "",
      "salt": "0xffd09a8cee33ee5b9e7be4f66fa6fa767b9a38cb7a2d1594f0bf0e722c14b992",
      "assetIds": []
    },
    {
      "x": 206,
      "y": 94,
      "size": 1,
      "price": "1011000000000000000000",
      "reserved": "",
      "salt": "0xad52fad676428af71e969c211e1a5babddb1c113b7cebb320fed0a9aa6d02b13",
      "assetIds": []
    },
    {
      "x": 206,
      "y": 95,
      "size": 1,
      "price": "1011000000000000000000",
      "reserved": "",
      "salt": "0xf002c81240b3cf516530be27d69111bd119692547277b16a3358281327957752",
      "assetIds": []
    },
    {
      "x": 207,
      "y": 76,
      "size": 1,
      "price": "1011000000000000000000",
      "reserved": "",
      "salt": "0x5e406c4712bd23b4d03534bb9931b338ab3a0b4aed0a6a16557ad4265973e668",
      "assetIds": []
    },
    {
      "x": 207,
      "y": 77,
      "size": 1,
      "price": "1011000000000000000000",
      "reserved": "",
      "salt": "0x0d8ad38f60cf69f4d2b7d588f29738d30339f5421d31dcddc93c08db41b49d49",
      "assetIds": []
    },
    {
      "x": 207,
      "y": 78,
      "size": 1,
      "price": "1011000000000000000000",
      "reserved": "",
      "salt": "0x0a5cd1583df539c743565d13e9f264d695b390c1f341ff4f8101be6fe61bb737",
      "assetIds": []
    },
    {
      "x": 207,
      "y": 79,
      "size": 1,
      "price": "1011000000000000000000",
      "reserved": "",
      "salt": "0x6208db44398c8cbe1244a773a42646d171aaaaea89e41a6f3ea6c0fd41a1faee",
      "assetIds": []
    },
    {
      "x": 207,
      "y": 80,
      "size": 1,
      "price": "1011000000000000000000",
      "reserved": "",
      "salt": "0x8a17354930017d48e76578de604613d137f407bd819b0d31bc124ee7d02b0221",
      "assetIds": []
    },
    {
      "x": 207,
      "y": 81,
      "size": 1,
      "price": "1011000000000000000000",
      "reserved": "",
      "salt": "0x91fb63845caf976dc90506f1bc955928c17801d6246bf2dbe33a8da33f650c03",
      "assetIds": []
    },
    {
      "x": 207,
      "y": 82,
      "size": 1,
      "price": "1011000000000000000000",
      "reserved": "",
      "salt": "0xe5a6101e752540d5c033014d25ba9c5e2ba9efab9e9b5ce612e5deee2d303f09",
      "assetIds": []
    },
    {
      "x": 207,
      "y": 83,
      "size": 1,
      "price": "1011000000000000000000",
      "reserved": "",
      "salt": "0xec829b479c3415b9c29c15be73f8568d060f9efe9839662b1feaf64cb5727888",
      "assetIds": []
    },
    {
      "x": 207,
      "y": 84,
      "size": 1,
      "price": "1011000000000000000000",
      "reserved": "",
      "salt": "0x2e29558fdc3a83ab269cc472fcdf959dc40a17ac2d83de31d600b4dadf3fdc3a",
      "assetIds": []
    },
    {
      "x": 207,
      "y": 85,
      "size": 1,
      "price": "1011000000000000000000",
      "reserved": "",
      "salt": "0x9956579e6cb3eb118283ed70673b2cbfda59bf71119c57abb650d78eb869f1da",
      "assetIds": []
    },
    {
      "x": 207,
      "y": 86,
      "size": 1,
      "price": "1011000000000000000000",
      "reserved": "",
      "salt": "0x6fa28d9bea5883affad26f48b364e62da82fafe04fa8243ac5d53bc885a91f7f",
      "assetIds": []
    },
    {
      "x": 207,
      "y": 87,
      "size": 1,
      "price": "1011000000000000000000",
      "reserved": "",
      "salt": "0xa0170d2364e5d6944e559abee7a99a6e19ae183461ca7e01b0dc905b5c70e191",
      "assetIds": []
    },
    {
      "x": 207,
      "y": 88,
      "size": 1,
      "price": "1011000000000000000000",
      "reserved": "",
      "salt": "0x10163a5da643a6225f227a137110a138df3deb25fbaff7cd1bce7af400f8af85",
      "assetIds": []
    },
    {
      "x": 207,
      "y": 89,
      "size": 1,
      "price": "1011000000000000000000",
      "reserved": "",
      "salt": "0xf411057b97d95240f735dfac3c47ebd2e32f4f5fb7e211052fa4106861d1c696",
      "assetIds": []
    },
    {
      "x": 208,
      "y": 76,
      "size": 1,
      "price": "1011000000000000000000",
      "reserved": "",
      "salt": "0xdf5145d30f595887dc5bd948f937c61fdf9ad5d4915c92ea5834310101a879b8",
      "assetIds": []
    },
    {
      "x": 208,
      "y": 77,
      "size": 1,
      "price": "1011000000000000000000",
      "reserved": "",
      "salt": "0xfb202805eead032da152c045d9e2c99b9cb4f1576dfea06d9b15fea2643fe9b4",
      "assetIds": []
    },
    {
      "x": 208,
      "y": 78,
      "size": 1,
      "price": "1011000000000000000000",
      "reserved": "",
      "salt": "0xe1b80ab37612296bc1160c558282a46bf41f1bbf45bae3165aa6bdd6715d5af7",
      "assetIds": []
    },
    {
      "x": 208,
      "y": 79,
      "size": 1,
      "price": "4683000000000000000000",
      "reserved": "",
      "salt": "0xf911eadb163058777819b99ad09d2bf330dab0662bed2dcdd676b4b0154d3a78",
      "assetIds": [
        "55464657044963196816950587289035428064568320970692304673817341489688461979652",
        "55464657044963196816950587289035428064568320970692304673817341489688461979653",
        "55464657044963196816950587289035428064568320970692304673817341489688461979651",
        "55464657044963196816950587289035428064568320970692304673817341489688461979650",
        "55464657044963196816950587289035428064568320970692304673817341489688461979649",
        "55464657044963196816950587289035428064568320970692304673817341489688461979648",
        "55464657044963196816950587289035428064568320970692304673817341489688453580800"
      ]
    },
    {
      "x": 208,
      "y": 80,
      "size": 1,
      "price": "4683000000000000000000",
      "reserved": "",
      "salt": "0x538ad27a364737a2ca3bd5a9380e616a6d8cb8895842fbcaeb4b73533b8ec923",
      "assetIds": [
        "55464657044963196816950587289035428064568320970692304673817341489688461979652",
        "55464657044963196816950587289035428064568320970692304673817341489688461979653",
        "55464657044963196816950587289035428064568320970692304673817341489688461979651",
        "55464657044963196816950587289035428064568320970692304673817341489688461979650",
        "55464657044963196816950587289035428064568320970692304673817341489688461979649",
        "55464657044963196816950587289035428064568320970692304673817341489688461979648",
        "55464657044963196816950587289035428064568320970692304673817341489688453580800"
      ]
    },
    {
      "x": 208,
      "y": 81,
      "size": 1,
      "price": "4683000000000000000000",
      "reserved": "",
      "salt": "0x0cd28989a99128e108d02ae645d3d697b49361d06f1b16aa9ec8b05d4808535e",
      "assetIds": [
        "55464657044963196816950587289035428064568320970692304673817341489688461979652",
        "55464657044963196816950587289035428064568320970692304673817341489688461979653",
        "55464657044963196816950587289035428064568320970692304673817341489688461979651",
        "55464657044963196816950587289035428064568320970692304673817341489688461979650",
        "55464657044963196816950587289035428064568320970692304673817341489688461979649",
        "55464657044963196816950587289035428064568320970692304673817341489688461979648",
        "55464657044963196816950587289035428064568320970692304673817341489688453580800"
      ]
    },
    {
      "x": 208,
      "y": 82,
      "size": 1,
      "price": "1011000000000000000000",
      "reserved": "",
      "salt": "0xf31d603e75a4ab28af5fc9b86162b783740fd80f0b187a5446f5cdb2ee58f8f5",
      "assetIds": []
    },
    {
      "x": 208,
      "y": 83,
      "size": 1,
      "price": "1011000000000000000000",
      "reserved": "",
      "salt": "0x4b32ed7782e81c253a592a2a00178c90bccef6783d324c6cea200f922e307773",
      "assetIds": []
    },
    {
      "x": 208,
      "y": 84,
      "size": 1,
      "price": "1011000000000000000000",
      "reserved": "",
      "salt": "0x0c6b2d97b0dcc13460eb826780442e3f1d407a9fa09a9025e4c53588f8b00293",
      "assetIds": []
    },
    {
      "x": 208,
      "y": 85,
      "size": 1,
      "price": "1011000000000000000000",
      "reserved": "",
      "salt": "0x27b9be8d77050876a34a89a1a95c0ecc2f884cd77d87adfe127a63fb937dc7ac",
      "assetIds": []
    },
    {
      "x": 208,
      "y": 86,
      "size": 1,
      "price": "1011000000000000000000",
      "reserved": "",
      "salt": "0xc450ad36993c2792cf7bbf63015baebb79ea9aba2e23207142116a5bfa96000f",
      "assetIds": []
    },
    {
      "x": 208,
      "y": 87,
      "size": 1,
      "price": "1011000000000000000000",
      "reserved": "",
      "salt": "0xe7ed78b63662725d6df5b8446a21558ea2a61be56e17a7ed4759e51287d3cecf",
      "assetIds": []
    },
    {
      "x": 208,
      "y": 88,
      "size": 1,
      "price": "1011000000000000000000",
      "reserved": "",
      "salt": "0x93cbb97c1afdad4bf08d2534217e3c3432f29047f72e0d0619677eda627ab7ad",
      "assetIds": []
    },
    {
      "x": 208,
      "y": 89,
      "size": 1,
      "price": "1011000000000000000000",
      "reserved": "",
      "salt": "0xc4412bed40f9c7d912c8fafdb04839c44aee250f3bdc373a8646839215519376",
      "assetIds": []
    },
    {
      "x": 209,
      "y": 76,
      "size": 1,
      "price": "1011000000000000000000",
      "reserved": "",
      "salt": "0xabe68d1029a1dabc58bca675b093f49d2f8c518d6881bef68417e3350b74062d",
      "assetIds": []
    },
    {
      "x": 209,
      "y": 77,
      "size": 1,
      "price": "1011000000000000000000",
      "reserved": "",
      "salt": "0x068646b789e88c9feaaa90b889656701c29763ebb8ad95dac6310bba1d618c0b",
      "assetIds": []
    },
    {
      "x": 209,
      "y": 78,
      "size": 1,
      "price": "4683000000000000000000",
      "reserved": "",
      "salt": "0x7042269d97f368468b8af383678085bf546c876dd77867d23572d532edeb3b76",
      "assetIds": [
        "55464657044963196816950587289035428064568320970692304673817341489688461979652",
        "55464657044963196816950587289035428064568320970692304673817341489688461979653",
        "55464657044963196816950587289035428064568320970692304673817341489688461979651",
        "55464657044963196816950587289035428064568320970692304673817341489688461979650",
        "55464657044963196816950587289035428064568320970692304673817341489688461979649",
        "55464657044963196816950587289035428064568320970692304673817341489688461979648",
        "55464657044963196816950587289035428064568320970692304673817341489688453580800"
      ]
    },
    {
      "x": 209,
      "y": 79,
      "size": 1,
      "price": "4683000000000000000000",
      "reserved": "",
      "salt": "0x4a32eca62314f054f80a5227b887148f6d8b15ffb43c8028901a48fef2504aaf",
      "assetIds": [
        "55464657044963196816950587289035428064568320970692304673817341489688461979652",
        "55464657044963196816950587289035428064568320970692304673817341489688461979653",
        "55464657044963196816950587289035428064568320970692304673817341489688461979651",
        "55464657044963196816950587289035428064568320970692304673817341489688461979650",
        "55464657044963196816950587289035428064568320970692304673817341489688461979649",
        "55464657044963196816950587289035428064568320970692304673817341489688461979648",
        "55464657044963196816950587289035428064568320970692304673817341489688453580800"
      ]
    },
    {
      "x": 209,
      "y": 80,
      "size": 1,
      "price": "4683000000000000000000",
      "reserved": "",
      "salt": "0x17a509fc2bd3a5c1788987825627788a5d21e9d75755df7dfae880848c3169f5",
      "assetIds": [
        "55464657044963196816950587289035428064568320970692304673817341489688461979652",
        "55464657044963196816950587289035428064568320970692304673817341489688461979653",
        "55464657044963196816950587289035428064568320970692304673817341489688461979651",
        "55464657044963196816950587289035428064568320970692304673817341489688461979650",
        "55464657044963196816950587289035428064568320970692304673817341489688461979649",
        "55464657044963196816950587289035428064568320970692304673817341489688461979648",
        "55464657044963196816950587289035428064568320970692304673817341489688453580800"
      ]
    },
    {
      "x": 209,
      "y": 81,
      "size": 1,
      "price": "4683000000000000000000",
      "reserved": "",
      "salt": "0x62b0abb83fd440cbd5c78ebb7174c7c3965b169be9ad76d7b3b4054385862a1e",
      "assetIds": [
        "55464657044963196816950587289035428064568320970692304673817341489688461979652",
        "55464657044963196816950587289035428064568320970692304673817341489688461979653",
        "55464657044963196816950587289035428064568320970692304673817341489688461979651",
        "55464657044963196816950587289035428064568320970692304673817341489688461979650",
        "55464657044963196816950587289035428064568320970692304673817341489688461979649",
        "55464657044963196816950587289035428064568320970692304673817341489688461979648",
        "55464657044963196816950587289035428064568320970692304673817341489688453580800"
      ]
    },
    {
      "x": 209,
      "y": 82,
      "size": 1,
      "price": "4683000000000000000000",
      "reserved": "",
      "salt": "0x808454d7797a946484ddb92fb270f5eb6cd4d60c45a9d6f26c01d730149b1f11",
      "assetIds": [
        "55464657044963196816950587289035428064568320970692304673817341489688461979652",
        "55464657044963196816950587289035428064568320970692304673817341489688461979653",
        "55464657044963196816950587289035428064568320970692304673817341489688461979651",
        "55464657044963196816950587289035428064568320970692304673817341489688461979650",
        "55464657044963196816950587289035428064568320970692304673817341489688461979649",
        "55464657044963196816950587289035428064568320970692304673817341489688461979648",
        "55464657044963196816950587289035428064568320970692304673817341489688453580800"
      ]
    },
    {
      "x": 209,
      "y": 83,
      "size": 1,
      "price": "4683000000000000000000",
      "reserved": "",
      "salt": "0x9ff558b5eec6fb79c7b5f7f93db24e744a992d62a002a908704422469cb47775",
      "assetIds": [
        "55464657044963196816950587289035428064568320970692304673817341489688461979652",
        "55464657044963196816950587289035428064568320970692304673817341489688461979653",
        "55464657044963196816950587289035428064568320970692304673817341489688461979651",
        "55464657044963196816950587289035428064568320970692304673817341489688461979650",
        "55464657044963196816950587289035428064568320970692304673817341489688461979649",
        "55464657044963196816950587289035428064568320970692304673817341489688461979648",
        "55464657044963196816950587289035428064568320970692304673817341489688453580800"
      ]
    },
    {
      "x": 209,
      "y": 84,
      "size": 1,
      "price": "1011000000000000000000",
      "reserved": "",
      "salt": "0x8ef6fdc98d34eacf1b696aaed9a2dbafb7ba74c4289fc8d9b0713092e6dd209d",
      "assetIds": []
    },
    {
      "x": 209,
      "y": 85,
      "size": 1,
      "price": "1011000000000000000000",
      "reserved": "",
      "salt": "0x3b7b159e033467746be89f3cef84a79c17a4c47e7a2f6e1f2f1cf6458f898a06",
      "assetIds": []
    },
    {
      "x": 209,
      "y": 86,
      "size": 1,
      "price": "1011000000000000000000",
      "reserved": "",
      "salt": "0xa78d0baa9d03fd32f9214dc895cfaa21a830551eab8319b2f5c47d9b5c1e1388",
      "assetIds": []
    },
    {
      "x": 209,
      "y": 87,
      "size": 1,
      "price": "1011000000000000000000",
      "reserved": "",
      "salt": "0x4b3c6510dae2a1a11d84e5b11ab4aed95146f3097009f22482dc72626af54fea",
      "assetIds": []
    },
    {
      "x": 209,
      "y": 88,
      "size": 1,
      "price": "1011000000000000000000",
      "reserved": "",
      "salt": "0x54eeb97cb6f6e26106c80019100f7de4d43fdc46ae7dea93e6b3ddc0ddf69ec1",
      "assetIds": []
    },
    {
      "x": 209,
      "y": 89,
      "size": 1,
      "price": "1011000000000000000000",
      "reserved": "",
      "salt": "0xe9d9f9864757f74549199f621c77f7c9510bf3cb0d15b58525c1255d1087f0da",
      "assetIds": []
    },
    {
      "x": 210,
      "y": 76,
      "size": 1,
      "price": "1011000000000000000000",
      "reserved": "",
      "salt": "0x2a2b80e5956f14126897bec6cb8f93dbda4303a689cf3d929b263b9f62983633",
      "assetIds": []
    },
    {
      "x": 210,
      "y": 77,
      "size": 1,
      "price": "4683000000000000000000",
      "reserved": "",
      "salt": "0x195ae1c15ebe06b05106651e76f6021a5d1a44d01357fe0e45aaf436aa3445ec",
      "assetIds": [
        "55464657044963196816950587289035428064568320970692304673817341489688461979652",
        "55464657044963196816950587289035428064568320970692304673817341489688461979653",
        "55464657044963196816950587289035428064568320970692304673817341489688461979651",
        "55464657044963196816950587289035428064568320970692304673817341489688461979650",
        "55464657044963196816950587289035428064568320970692304673817341489688461979649",
        "55464657044963196816950587289035428064568320970692304673817341489688461979648",
        "55464657044963196816950587289035428064568320970692304673817341489688453580800"
      ]
    },
    {
      "x": 210,
      "y": 84,
      "size": 1,
      "price": "4683000000000000000000",
      "reserved": "",
      "salt": "0xbb5c64576af2d8b576cbf16963e95ee589182d102213bf096c02beda8d930336",
      "assetIds": [
        "55464657044963196816950587289035428064568320970692304673817341489688461979652",
        "55464657044963196816950587289035428064568320970692304673817341489688461979653",
        "55464657044963196816950587289035428064568320970692304673817341489688461979651",
        "55464657044963196816950587289035428064568320970692304673817341489688461979650",
        "55464657044963196816950587289035428064568320970692304673817341489688461979649",
        "55464657044963196816950587289035428064568320970692304673817341489688461979648",
        "55464657044963196816950587289035428064568320970692304673817341489688453580800"
      ]
    },
    {
      "x": 210,
      "y": 85,
      "size": 1,
      "price": "1011000000000000000000",
      "reserved": "",
      "salt": "0x3db79b029bc86028451f3ef3cc1f1ef3a4edb22948b68eb7711af6b48af9acd8",
      "assetIds": []
    },
    {
      "x": 210,
      "y": 86,
      "size": 1,
      "price": "1011000000000000000000",
      "reserved": "",
      "salt": "0xfa2d2c06db036297d4493f678e24eb8f7549f09f9204d404fff836f1c2981cc1",
      "assetIds": []
    },
    {
      "x": 211,
      "y": 76,
      "size": 1,
      "price": "1011000000000000000000",
      "reserved": "",
      "salt": "0x3616cc88abd203675c81623cad08fcbf8f9d714c00d7d131e12a056188a5f9d7",
      "assetIds": []
    },
    {
      "x": 211,
      "y": 77,
      "size": 1,
      "price": "4683000000000000000000",
      "reserved": "",
      "salt": "0x2565b9aa82a0089e5dd8494c7507e8dd1f7c7e0c6de64ac5fa9f40dd50c3bed3",
      "assetIds": [
        "55464657044963196816950587289035428064568320970692304673817341489688461979652",
        "55464657044963196816950587289035428064568320970692304673817341489688461979653",
        "55464657044963196816950587289035428064568320970692304673817341489688461979651",
        "55464657044963196816950587289035428064568320970692304673817341489688461979650",
        "55464657044963196816950587289035428064568320970692304673817341489688461979649",
        "55464657044963196816950587289035428064568320970692304673817341489688461979648",
        "55464657044963196816950587289035428064568320970692304673817341489688453580800"
      ]
    },
    {
      "x": 211,
      "y": 84,
      "size": 1,
      "price": "4683000000000000000000",
      "reserved": "",
      "salt": "0xc0bda786af3b2357336bae39e79cc13ffdcd08f9d19f9b9177598920c60d3773",
      "assetIds": [
        "55464657044963196816950587289035428064568320970692304673817341489688461979652",
        "55464657044963196816950587289035428064568320970692304673817341489688461979653",
        "55464657044963196816950587289035428064568320970692304673817341489688461979651",
        "55464657044963196816950587289035428064568320970692304673817341489688461979650",
        "55464657044963196816950587289035428064568320970692304673817341489688461979649",
        "55464657044963196816950587289035428064568320970692304673817341489688461979648",
        "55464657044963196816950587289035428064568320970692304673817341489688453580800"
      ]
    },
    {
      "x": 211,
      "y": 85,
      "size": 1,
      "price": "4683000000000000000000",
      "reserved": "",
      "salt": "0x980e67a03224fc338fc881b25f94fcefa9a7258f5356072631b7634a40010d09",
      "assetIds": [
        "55464657044963196816950587289035428064568320970692304673817341489688461979652",
        "55464657044963196816950587289035428064568320970692304673817341489688461979653",
        "55464657044963196816950587289035428064568320970692304673817341489688461979651",
        "55464657044963196816950587289035428064568320970692304673817341489688461979650",
        "55464657044963196816950587289035428064568320970692304673817341489688461979649",
        "55464657044963196816950587289035428064568320970692304673817341489688461979648",
        "55464657044963196816950587289035428064568320970692304673817341489688453580800"
      ]
    },
    {
      "x": 211,
      "y": 86,
      "size": 1,
      "price": "1011000000000000000000",
      "reserved": "",
      "salt": "0xb944311cf71f484c91fe0dfdeac6cba9e8f41c61cf88d0872e0e94aa74acb63d",
      "assetIds": []
    },
    {
      "x": 212,
      "y": 76,
      "size": 1,
      "price": "1011000000000000000000",
      "reserved": "",
      "salt": "0x830d2cdd53225558af14946f78843016e51bf452c561882d120b95df974db1bd",
      "assetIds": []
    },
    {
      "x": 212,
      "y": 77,
      "size": 1,
      "price": "4683000000000000000000",
      "reserved": "",
      "salt": "0xa85a6ae8a33fd9abd84775d9f7a75dcc6ede5e587d118ef860e28c30a26486eb",
      "assetIds": [
        "55464657044963196816950587289035428064568320970692304673817341489688461979652",
        "55464657044963196816950587289035428064568320970692304673817341489688461979653",
        "55464657044963196816950587289035428064568320970692304673817341489688461979651",
        "55464657044963196816950587289035428064568320970692304673817341489688461979650",
        "55464657044963196816950587289035428064568320970692304673817341489688461979649",
        "55464657044963196816950587289035428064568320970692304673817341489688461979648",
        "55464657044963196816950587289035428064568320970692304673817341489688453580800"
      ]
    },
    {
      "x": 212,
      "y": 84,
      "size": 1,
      "price": "4683000000000000000000",
      "reserved": "",
      "salt": "0x4bc5bc91109f390f1ee16454846901a00cc85cd638eb3264cf21a48dba681602",
      "assetIds": [
        "55464657044963196816950587289035428064568320970692304673817341489688461979652",
        "55464657044963196816950587289035428064568320970692304673817341489688461979653",
        "55464657044963196816950587289035428064568320970692304673817341489688461979651",
        "55464657044963196816950587289035428064568320970692304673817341489688461979650",
        "55464657044963196816950587289035428064568320970692304673817341489688461979649",
        "55464657044963196816950587289035428064568320970692304673817341489688461979648",
        "55464657044963196816950587289035428064568320970692304673817341489688453580800"
      ]
    },
    {
      "x": 212,
      "y": 85,
      "size": 1,
      "price": "4683000000000000000000",
      "reserved": "",
      "salt": "0xe33b5e768680fdd740cf24337fdc806601c347447e434601bad8390cf3e9c550",
      "assetIds": [
        "55464657044963196816950587289035428064568320970692304673817341489688461979652",
        "55464657044963196816950587289035428064568320970692304673817341489688461979653",
        "55464657044963196816950587289035428064568320970692304673817341489688461979651",
        "55464657044963196816950587289035428064568320970692304673817341489688461979650",
        "55464657044963196816950587289035428064568320970692304673817341489688461979649",
        "55464657044963196816950587289035428064568320970692304673817341489688461979648",
        "55464657044963196816950587289035428064568320970692304673817341489688453580800"
      ]
    },
    {
      "x": 212,
      "y": 86,
      "size": 1,
      "price": "1011000000000000000000",
      "reserved": "",
      "salt": "0x1e8e204dfdce779311446165cdebd14eac1ff878595c8b7c3b52da7776777686",
      "assetIds": []
    },
    {
      "x": 213,
      "y": 76,
      "size": 1,
      "price": "1011000000000000000000",
      "reserved": "",
      "salt": "0x8cd9ea7fef02fd22b9890011087cca556c0d9c9809f4f59980b7c1992eb7a41c",
      "assetIds": []
    },
    {
      "x": 213,
      "y": 77,
      "size": 1,
      "price": "4683000000000000000000",
      "reserved": "",
      "salt": "0xc2f24ab2799389e0d2eece1ca34e70d3a196cd64d5876640df70921c73997f8e",
      "assetIds": [
        "55464657044963196816950587289035428064568320970692304673817341489688461979652",
        "55464657044963196816950587289035428064568320970692304673817341489688461979653",
        "55464657044963196816950587289035428064568320970692304673817341489688461979651",
        "55464657044963196816950587289035428064568320970692304673817341489688461979650",
        "55464657044963196816950587289035428064568320970692304673817341489688461979649",
        "55464657044963196816950587289035428064568320970692304673817341489688461979648",
        "55464657044963196816950587289035428064568320970692304673817341489688453580800"
      ]
    },
    {
      "x": 213,
      "y": 84,
      "size": 1,
      "price": "4683000000000000000000",
      "reserved": "",
      "salt": "0x7c40a8a2b21153d35127f38cf451cece969fce637cb83af014e22a8a715c6a57",
      "assetIds": [
        "55464657044963196816950587289035428064568320970692304673817341489688461979652",
        "55464657044963196816950587289035428064568320970692304673817341489688461979653",
        "55464657044963196816950587289035428064568320970692304673817341489688461979651",
        "55464657044963196816950587289035428064568320970692304673817341489688461979650",
        "55464657044963196816950587289035428064568320970692304673817341489688461979649",
        "55464657044963196816950587289035428064568320970692304673817341489688461979648",
        "55464657044963196816950587289035428064568320970692304673817341489688453580800"
      ]
    },
    {
      "x": 213,
      "y": 85,
      "size": 1,
      "price": "4683000000000000000000",
      "reserved": "",
      "salt": "0xc1b232d15b67b47688ecf8bbe78ab9b0de5dff74c191c58beef4b60112ea9c44",
      "assetIds": [
        "55464657044963196816950587289035428064568320970692304673817341489688461979652",
        "55464657044963196816950587289035428064568320970692304673817341489688461979653",
        "55464657044963196816950587289035428064568320970692304673817341489688461979651",
        "55464657044963196816950587289035428064568320970692304673817341489688461979650",
        "55464657044963196816950587289035428064568320970692304673817341489688461979649",
        "55464657044963196816950587289035428064568320970692304673817341489688461979648",
        "55464657044963196816950587289035428064568320970692304673817341489688453580800"
      ]
    },
    {
      "x": 213,
      "y": 86,
      "size": 1,
      "price": "1011000000000000000000",
      "reserved": "",
      "salt": "0xb20e60d689cf7917f5f1c00c5901ae30b1e9d2f99f4e280a58ec3b2bb435c852",
      "assetIds": []
    },
    {
      "x": 214,
      "y": 75,
      "size": 1,
      "price": "1011000000000000000000",
      "reserved": "",
      "salt": "0x46376d89d7d8b10355712f3de496a3c86d368dc8b3b308b4faca666f261e1f79",
      "assetIds": []
    },
    {
      "x": 214,
      "y": 76,
      "size": 1,
      "price": "1011000000000000000000",
      "reserved": "",
      "salt": "0x468cbbd22b1e26a649e98625f35cf4e7ec314d4e480798ed2972bdf3ac1a928a",
      "assetIds": []
    },
    {
      "x": 214,
      "y": 77,
      "size": 1,
      "price": "4683000000000000000000",
      "reserved": "",
      "salt": "0x66b036ac25a58aaa22f22374ea171213b0ad7b2d5958cd26dee6b9f1b70f5982",
      "assetIds": [
        "55464657044963196816950587289035428064568320970692304673817341489688461979652",
        "55464657044963196816950587289035428064568320970692304673817341489688461979653",
        "55464657044963196816950587289035428064568320970692304673817341489688461979651",
        "55464657044963196816950587289035428064568320970692304673817341489688461979650",
        "55464657044963196816950587289035428064568320970692304673817341489688461979649",
        "55464657044963196816950587289035428064568320970692304673817341489688461979648",
        "55464657044963196816950587289035428064568320970692304673817341489688453580800"
      ]
    },
    {
      "x": 214,
      "y": 84,
      "size": 1,
      "price": "4683000000000000000000",
      "reserved": "",
      "salt": "0x4ba099eec558d8d34b133c6d246f438c97b59738e8eff608f48bd6f0acff6cb2",
      "assetIds": [
        "55464657044963196816950587289035428064568320970692304673817341489688461979652",
        "55464657044963196816950587289035428064568320970692304673817341489688461979653",
        "55464657044963196816950587289035428064568320970692304673817341489688461979651",
        "55464657044963196816950587289035428064568320970692304673817341489688461979650",
        "55464657044963196816950587289035428064568320970692304673817341489688461979649",
        "55464657044963196816950587289035428064568320970692304673817341489688461979648",
        "55464657044963196816950587289035428064568320970692304673817341489688453580800"
      ]
    },
    {
      "x": 214,
      "y": 85,
      "size": 1,
      "price": "4683000000000000000000",
      "reserved": "",
      "salt": "0x5af7f48de28b7c4452d0861d77a9e258b2552685325290538d02c53343c6fa53",
      "assetIds": [
        "55464657044963196816950587289035428064568320970692304673817341489688461979652",
        "55464657044963196816950587289035428064568320970692304673817341489688461979653",
        "55464657044963196816950587289035428064568320970692304673817341489688461979651",
        "55464657044963196816950587289035428064568320970692304673817341489688461979650",
        "55464657044963196816950587289035428064568320970692304673817341489688461979649",
        "55464657044963196816950587289035428064568320970692304673817341489688461979648",
        "55464657044963196816950587289035428064568320970692304673817341489688453580800"
      ]
    },
    {
      "x": 214,
      "y": 86,
      "size": 1,
      "price": "1011000000000000000000",
      "reserved": "",
      "salt": "0x2c9fb42f0da4f0e158e89f9fc61ec0e8aef7233d5cd9c701483d10a0e018dc0b",
      "assetIds": []
    },
    {
      "x": 215,
      "y": 75,
      "size": 1,
      "price": "1011000000000000000000",
      "reserved": "",
      "salt": "0x75203e3e151eb5a53efeb16ec3bd389b2968d446dbe00b1e3af8c3cc738b2156",
      "assetIds": []
    },
    {
      "x": 215,
      "y": 76,
      "size": 1,
      "price": "1011000000000000000000",
      "reserved": "",
      "salt": "0xa6907539412c86e1a6a5179b83673bffbbad726072d0a4ad3307fc69b8f53eed",
      "assetIds": []
    },
    {
      "x": 215,
      "y": 77,
      "size": 1,
      "price": "4683000000000000000000",
      "reserved": "",
      "salt": "0x8eba2f5c043b7c368d08a2e98fb3d5076f3c5f098e35bc90276bcce9de8f76a4",
      "assetIds": [
        "55464657044963196816950587289035428064568320970692304673817341489688461979652",
        "55464657044963196816950587289035428064568320970692304673817341489688461979653",
        "55464657044963196816950587289035428064568320970692304673817341489688461979651",
        "55464657044963196816950587289035428064568320970692304673817341489688461979650",
        "55464657044963196816950587289035428064568320970692304673817341489688461979649",
        "55464657044963196816950587289035428064568320970692304673817341489688461979648",
        "55464657044963196816950587289035428064568320970692304673817341489688453580800"
      ]
    },
    {
      "x": 215,
      "y": 84,
      "size": 1,
      "price": "4683000000000000000000",
      "reserved": "",
      "salt": "0x43cde76aaa5b8345b71080e7b802a2d4b69fb2b4d7b5c906f1192e7708fd67bc",
      "assetIds": [
        "55464657044963196816950587289035428064568320970692304673817341489688461979652",
        "55464657044963196816950587289035428064568320970692304673817341489688461979653",
        "55464657044963196816950587289035428064568320970692304673817341489688461979651",
        "55464657044963196816950587289035428064568320970692304673817341489688461979650",
        "55464657044963196816950587289035428064568320970692304673817341489688461979649",
        "55464657044963196816950587289035428064568320970692304673817341489688461979648",
        "55464657044963196816950587289035428064568320970692304673817341489688453580800"
      ]
    },
    {
      "x": 215,
      "y": 85,
      "size": 1,
      "price": "1011000000000000000000",
      "reserved": "",
      "salt": "0xe15b1288e38267cb32b2f99f157da614598e4828183f812e319584f6976f06db",
      "assetIds": []
    },
    {
      "x": 215,
      "y": 86,
      "size": 1,
      "price": "1011000000000000000000",
      "reserved": "",
      "salt": "0xb5476254ef4624ff778e544b2f93575823449375e773eb90f36a28934bc8deea",
      "assetIds": []
    },
    {
      "x": 216,
      "y": 78,
      "size": 1,
      "price": "4683000000000000000000",
      "reserved": "",
      "salt": "0xf632b29ef5fa9007ae9fe7ab233f132e1bda67e73df9fd3699f4f16b29489741",
      "assetIds": [
        "55464657044963196816950587289035428064568320970692304673817341489688461979652",
        "55464657044963196816950587289035428064568320970692304673817341489688461979653",
        "55464657044963196816950587289035428064568320970692304673817341489688461979651",
        "55464657044963196816950587289035428064568320970692304673817341489688461979650",
        "55464657044963196816950587289035428064568320970692304673817341489688461979649",
        "55464657044963196816950587289035428064568320970692304673817341489688461979648",
        "55464657044963196816950587289035428064568320970692304673817341489688453580800"
      ]
    },
    {
      "x": 216,
      "y": 79,
      "size": 1,
      "price": "4683000000000000000000",
      "reserved": "",
      "salt": "0xfa0d274cc006141ff22b0ed7f64feab1572f63fcbe939e030d07072ccfbd778c",
      "assetIds": [
        "55464657044963196816950587289035428064568320970692304673817341489688461979652",
        "55464657044963196816950587289035428064568320970692304673817341489688461979653",
        "55464657044963196816950587289035428064568320970692304673817341489688461979651",
        "55464657044963196816950587289035428064568320970692304673817341489688461979650",
        "55464657044963196816950587289035428064568320970692304673817341489688461979649",
        "55464657044963196816950587289035428064568320970692304673817341489688461979648",
        "55464657044963196816950587289035428064568320970692304673817341489688453580800"
      ]
    },
    {
      "x": 216,
      "y": 80,
      "size": 1,
      "price": "4683000000000000000000",
      "reserved": "",
      "salt": "0x733c9d2a1610977357e2884c805e332666e927f02f7bb6af443bb10cc70f6fbd",
      "assetIds": [
        "55464657044963196816950587289035428064568320970692304673817341489688461979652",
        "55464657044963196816950587289035428064568320970692304673817341489688461979653",
        "55464657044963196816950587289035428064568320970692304673817341489688461979651",
        "55464657044963196816950587289035428064568320970692304673817341489688461979650",
        "55464657044963196816950587289035428064568320970692304673817341489688461979649",
        "55464657044963196816950587289035428064568320970692304673817341489688461979648",
        "55464657044963196816950587289035428064568320970692304673817341489688453580800"
      ]
    },
    {
      "x": 216,
      "y": 81,
      "size": 1,
      "price": "4683000000000000000000",
      "reserved": "",
      "salt": "0xfaec0ed0c0d9f5bf5e7899c47ab6bcf6aafd8ea842212558e2a5ecc8546576df",
      "assetIds": [
        "55464657044963196816950587289035428064568320970692304673817341489688461979652",
        "55464657044963196816950587289035428064568320970692304673817341489688461979653",
        "55464657044963196816950587289035428064568320970692304673817341489688461979651",
        "55464657044963196816950587289035428064568320970692304673817341489688461979650",
        "55464657044963196816950587289035428064568320970692304673817341489688461979649",
        "55464657044963196816950587289035428064568320970692304673817341489688461979648",
        "55464657044963196816950587289035428064568320970692304673817341489688453580800"
      ]
    },
    {
      "x": 216,
      "y": 82,
      "size": 1,
      "price": "4683000000000000000000",
      "reserved": "",
      "salt": "0x32648283a3ce140fdb3f6af631ef9708a89a725d12c0f889de70c89426d1b03d",
      "assetIds": [
        "55464657044963196816950587289035428064568320970692304673817341489688461979652",
        "55464657044963196816950587289035428064568320970692304673817341489688461979653",
        "55464657044963196816950587289035428064568320970692304673817341489688461979651",
        "55464657044963196816950587289035428064568320970692304673817341489688461979650",
        "55464657044963196816950587289035428064568320970692304673817341489688461979649",
        "55464657044963196816950587289035428064568320970692304673817341489688461979648",
        "55464657044963196816950587289035428064568320970692304673817341489688453580800"
      ]
    },
    {
      "x": 216,
      "y": 83,
      "size": 1,
      "price": "4683000000000000000000",
      "reserved": "",
      "salt": "0xc9d86d5ad6b2e9b45ef7593f2bbb0a8b62d06730399db4a45d59bf992570d66e",
      "assetIds": [
        "55464657044963196816950587289035428064568320970692304673817341489688461979652",
        "55464657044963196816950587289035428064568320970692304673817341489688461979653",
        "55464657044963196816950587289035428064568320970692304673817341489688461979651",
        "55464657044963196816950587289035428064568320970692304673817341489688461979650",
        "55464657044963196816950587289035428064568320970692304673817341489688461979649",
        "55464657044963196816950587289035428064568320970692304673817341489688461979648",
        "55464657044963196816950587289035428064568320970692304673817341489688453580800"
      ]
    },
    {
      "x": 217,
      "y": 78,
      "size": 1,
      "price": "1011000000000000000000",
      "reserved": "",
      "salt": "0xe9a41ab5cf30f06d3f80303c54807ece4655157739aa292609a63be2df6dc22d",
      "assetIds": []
    },
    {
      "x": 217,
      "y": 79,
      "size": 1,
      "price": "1011000000000000000000",
      "reserved": "",
      "salt": "0x9d7ea95a1cf96aa46cc9b9bfeb15005e4aa1310b8942d77d46b6741bfad0d84e",
      "assetIds": []
    },
    {
      "x": 217,
      "y": 80,
      "size": 1,
      "price": "4683000000000000000000",
      "reserved": "",
      "salt": "0xd98b50ee71e1493a5d3906e59847213295152afe82e8565e275bf9c7a6705fa3",
      "assetIds": [
        "55464657044963196816950587289035428064568320970692304673817341489688461979652",
        "55464657044963196816950587289035428064568320970692304673817341489688461979653",
        "55464657044963196816950587289035428064568320970692304673817341489688461979651",
        "55464657044963196816950587289035428064568320970692304673817341489688461979650",
        "55464657044963196816950587289035428064568320970692304673817341489688461979649",
        "55464657044963196816950587289035428064568320970692304673817341489688461979648",
        "55464657044963196816950587289035428064568320970692304673817341489688453580800"
      ]
    },
    {
      "x": 217,
      "y": 81,
      "size": 1,
      "price": "4683000000000000000000",
      "reserved": "",
      "salt": "0xbc62ce167c54c3c13b85573d3abab6a24e23e23d259a385cfb09f17ed71fc44f",
      "assetIds": [
        "55464657044963196816950587289035428064568320970692304673817341489688461979652",
        "55464657044963196816950587289035428064568320970692304673817341489688461979653",
        "55464657044963196816950587289035428064568320970692304673817341489688461979651",
        "55464657044963196816950587289035428064568320970692304673817341489688461979650",
        "55464657044963196816950587289035428064568320970692304673817341489688461979649",
        "55464657044963196816950587289035428064568320970692304673817341489688461979648",
        "55464657044963196816950587289035428064568320970692304673817341489688453580800"
      ]
    },
    {
      "x": 217,
      "y": 82,
      "size": 1,
      "price": "4683000000000000000000",
      "reserved": "",
      "salt": "0xd9ec9d8be7fd08b0c426ed07e4d4fc2e29e4dac17ad24ceb8e295f182f8fadfe",
      "assetIds": [
        "55464657044963196816950587289035428064568320970692304673817341489688461979652",
        "55464657044963196816950587289035428064568320970692304673817341489688461979653",
        "55464657044963196816950587289035428064568320970692304673817341489688461979651",
        "55464657044963196816950587289035428064568320970692304673817341489688461979650",
        "55464657044963196816950587289035428064568320970692304673817341489688461979649",
        "55464657044963196816950587289035428064568320970692304673817341489688461979648",
        "55464657044963196816950587289035428064568320970692304673817341489688453580800"
      ]
    },
    {
      "x": 217,
      "y": 83,
      "size": 1,
      "price": "1011000000000000000000",
      "reserved": "",
      "salt": "0x42ec4fc522951c8d30d2de45dc51f4e2285d8096cb7f511c1555b4ea85957121",
      "assetIds": []
    },
    {
      "x": 218,
      "y": 78,
      "size": 1,
      "price": "1011000000000000000000",
      "reserved": "",
      "salt": "0x94c4e01a0813b22959453aca0b6961a6c84544e0919e0146ded118e182776459",
      "assetIds": []
    },
    {
      "x": 218,
      "y": 79,
      "size": 1,
      "price": "1011000000000000000000",
      "reserved": "",
      "salt": "0xf6033ac532b262a346e9e06012db78faafc944df5b1226c2a333e602235ace73",
      "assetIds": []
    },
    {
      "x": 218,
      "y": 80,
      "size": 1,
      "price": "1011000000000000000000",
      "reserved": "",
      "salt": "0xbef228d0eac6b93cad6eb8fc9329f94c113d0adec70e874bdaf3f8ecaa2e8751",
      "assetIds": []
    },
    {
      "x": 218,
      "y": 81,
      "size": 1,
      "price": "1011000000000000000000",
      "reserved": "",
      "salt": "0xec4c90541bed5674ee6c3d6129f0853030f6675ef2e3b32d2c22661ea712cff4",
      "assetIds": []
    },
    {
      "x": 218,
      "y": 82,
      "size": 1,
      "price": "1011000000000000000000",
      "reserved": "",
      "salt": "0xcf42e9284a776fe798c531fe9d059a572b79c27154e209be817204403d3cd885",
      "assetIds": []
    },
    {
      "x": 218,
      "y": 83,
      "size": 1,
      "price": "1011000000000000000000",
      "reserved": "",
      "salt": "0x1caa41c16ea4c83aa1652555d7a5dfbbd6874512ffa1a3a374d29d1a110dabdf",
      "assetIds": []
    },
    {
      "x": 219,
      "y": 75,
      "size": 1,
      "price": "1011000000000000000000",
      "reserved": "",
      "salt": "0xf69ad0907f572bd41556c40dffa7cef5c07d3c06e0b54f8fdf71bdacbfe297de",
      "assetIds": []
    },
    {
      "x": 219,
      "y": 76,
      "size": 1,
      "price": "1011000000000000000000",
      "reserved": "",
      "salt": "0xd689ca00d9241f38c25ec039e2f249de35d591773e9501c69079b32cb86d8cbb",
      "assetIds": []
    },
    {
      "x": 219,
      "y": 77,
      "size": 1,
      "price": "1011000000000000000000",
      "reserved": "",
      "salt": "0xc0ada45f57b7df8c23e694cf63257a8e994e24ce79d8c0fb8d34fd53de3443e6",
      "assetIds": []
    },
    {
      "x": 220,
      "y": 75,
      "size": 1,
      "price": "1011000000000000000000",
      "reserved": "",
      "salt": "0x252487cd9fd6217c56362d3c9ab258c381d1890670e2600c60310ece805ec4a0",
      "assetIds": []
    },
    {
      "x": 220,
      "y": 76,
      "size": 1,
      "price": "1011000000000000000000",
      "reserved": "",
      "salt": "0x09d2ba99d95be50be5d2f2970ead01ca4024307b601d398338c1fb24d59e927a",
      "assetIds": []
    },
    {
      "x": 220,
      "y": 77,
      "size": 1,
      "price": "1011000000000000000000",
      "reserved": "",
      "salt": "0x7e79f7795aed32b6f60dfe53428d2e05e537e24be0efbf80f1fc21d45499f3c2",
      "assetIds": []
    },
    {
      "x": 221,
      "y": 75,
      "size": 1,
      "price": "1011000000000000000000",
      "reserved": "",
      "salt": "0x946c7d3304be43a3c4fc0a0b5628f83a732144917278b60ab2f436392f762631",
      "assetIds": []
    },
    {
      "x": 221,
      "y": 76,
      "size": 1,
      "price": "1011000000000000000000",
      "reserved": "",
      "salt": "0x4f218bca1b9c181c4af7d627896dfa47eaaac1bef72528293a179476ff22d37c",
      "assetIds": []
    },
    {
      "x": 221,
      "y": 77,
      "size": 1,
      "price": "1011000000000000000000",
      "reserved": "",
      "salt": "0x282397474e293f73012108596752e78b53adc58435ae566793ba408ed79ca48b",
      "assetIds": []
    },
    {
      "x": 192,
      "y": 78,
      "size": 3,
      "price": "8648000000000000000000",
      "reserved": "0x7a9fe22691c811ea339d9b73150e6911a5343dca",
      "salt": "0x45bbffd9dbd969f448328b81657b72d036052f7ad0e2f337723c041dcf2a3636",
      "assetIds": []
    },
    {
      "x": 195,
      "y": 84,
      "size": 3,
      "price": "8648000000000000000000",
      "reserved": "0x7a9fe22691c811ea339d9b73150e6911a5343dca",
      "salt": "0xf77880402ff7c86097e7cc3bf20c4b1d45c441aa8bd9f845381a3d0d84b0ebc1",
      "assetIds": []
    },
    {
      "x": 210,
      "y": 99,
      "size": 3,
      "price": "8648000000000000000000",
      "reserved": "0x7a9fe22691c811ea339d9b73150e6911a5343dca",
      "salt": "0xa66233ebc8fc996bad54faf4a2617796af1e6565128b16bac76784ffd28ba596",
      "assetIds": []
    },
    {
      "x": 216,
      "y": 75,
      "size": 3,
      "price": "8648000000000000000000",
      "reserved": "0x7a9fe22691c811ea339d9b73150e6911a5343dca",
      "salt": "0xf36a39d84178df0b603b1ecaa46115762b8ea02b0cca06b2cc0cad2fd129b582",
      "assetIds": []
    },
    {
      "x": 198,
      "y": 78,
      "size": 6,
      "price": "32772000000000000000000",
      "reserved": "0x7a9fe22691c811ea339d9b73150e6911a5343dca",
      "salt": "0x910ecb5d00d0b33e210817c5cef0f0e05bd08b56001b0cf3519b84ff9723539e",
      "assetIds": []
    },
    {
      "x": 198,
      "y": 90,
      "size": 6,
      "price": "32772000000000000000000",
      "reserved": "0x7a9fe22691c811ea339d9b73150e6911a5343dca",
      "salt": "0x1d7e94dc7f312f5263c15e8f220d6ae2c358140913893aa677f277f81944dc1d",
      "assetIds": []
    },
    {
      "x": 204,
      "y": 96,
      "size": 6,
      "price": "32772000000000000000000",
      "reserved": "0x7a9fe22691c811ea339d9b73150e6911a5343dca",
      "salt": "0xeff4faa6b8020ff678a6180859b1f5d0945379acdaf8610972be287f4dd2b19f",
      "assetIds": []
    },
    {
      "x": 210,
      "y": 78,
      "size": 6,
      "price": "32772000000000000000000",
      "reserved": "0x7a9fe22691c811ea339d9b73150e6911a5343dca",
      "salt": "0xb4c185c9c9427edc14178a05acda44ff8ffb4f9ea50b8b4e8d8c999338011e2d",
      "assetIds": []
    }
  ],
  "solcInputHash": "e17a5bb930c92aaeeb80a52119ce77b7",
  "bytecode": "0x610160604052620d2f0060055534801561001857600080fd5b506040516200284d3803806200284d83398181016040526101a081101561003e57600080fd5b50805160208201516040830151606080850151608086015160a08088015160c0808a015160e08b01516101008c01516101208d01516101408e01516101608f0151610180909f0151600280546001600160a01b0319166001600160a01b03871617905560038490558e8c1b6001600160601b03199081169099529a8d901b9097169094529a9b999a98999698959793969195909490939091906100e28b600161015d565b600680546001600160a01b039a8b166001600160a01b031991821617909155610140989098526101209690965260008054998916998816999099179098556001600160601b0319606092831b811660e05290821b811660805296901b909516610100525060078054919093169116179055506101c192505050565b6001600160a01b038216600081815260016020908152604091829020805460ff191685151590811790915582519384529083015280517fb21eb88b4e33b3f1281830a7178d74d8aa73220416215726b68ae23d539515cb9281900390910190a15050565b60805160601c60a05160601c60c05160601c60e05160601c6101005160601c61012051610140516126066200024760003980610b3d528061206c525080610b1952806112ec5250806120da525080611841528061199e5250806117f75280611b9d528061210e525080611872528061196f525080610eb25280611c8952506126066000f3fe608060405234801561001057600080fd5b506004361061011b5760003560e01c80638f283970116100b2578063c10a420811610081578063dc5074af11610066578063dc5074af1461085f578063e56f8a9e14610885578063f23a6e61146108a25761011b565b8063c10a420814610780578063caed3500146108575761011b565b80638f28397014610500578063984d625214610526578063b522ecff146105f8578063bc197c811461061e5761011b565b806365194ce7116100ee57806365194ce7146103485780636e9960c3146104a657806377f1c3ac146104ca5780638a04af6a146104d25761011b565b80631187fd3c1461012057806325cb5bc014610300578063495906571461031a57806358bc294414610322575b600080fd5b6102fe600480360361012081101561013757600080fd5b6001600160a01b038235811692602081013582169260408201359092169181019060808101606082013564010000000081111561017357600080fd5b82018360208201111561018557600080fd5b803590602001918460208302840111640100000000831117156101a757600080fd5b919390928235926040810190602001356401000000008111156101c957600080fd5b8201836020820111156101db57600080fd5b803590602001918460208302840111640100000000831117156101fd57600080fd5b91939092909160208101903564010000000081111561021b57600080fd5b82018360208201111561022d57600080fd5b8035906020019184602083028401116401000000008311171561024f57600080fd5b91939092909160208101903564010000000081111561026d57600080fd5b82018360208201111561027f57600080fd5b803590602001918460018302840111640100000000831117156102a157600080fd5b9193909290916020810190356401000000008111156102bf57600080fd5b8201836020820111156102d157600080fd5b803590602001918460018302840111640100000000831117156102f357600080fd5b509092509050610937565b005b610308610b17565b60408051918252519081900360200190f35b610308610b3b565b6102fe6004803603602081101561033857600080fd5b50356001600160a01b0316610b5f565b6103ee6004803603602081101561035e57600080fd5b81019060208101813564010000000081111561037957600080fd5b82018360208201111561038b57600080fd5b803590602001918460018302840111640100000000831117156103ad57600080fd5b91908080601f016020809104026020016040519081016040528093929190818152602001838380828437600092019190915250929550610c0a945050505050565b6040518080602001866001600160a01b03166001600160a01b03168152602001856001600160a01b03166001600160a01b03168152602001848152602001838152602001828103825287818151815260200191508051906020019080838360005b8381101561046757818101518382015260200161044f565b50505050905090810190601f1680156104945780820380516001836020036101000a031916815260200191505b50965050505050505060405180910390f35b6104ae610d0f565b604080516001600160a01b039092168252519081900360200190f35b610308610d1e565b6102fe600480360360408110156104e857600080fd5b506001600160a01b0381351690602001351515610d24565b6102fe6004803603602081101561051657600080fd5b50356001600160a01b0316610d7b565b6102fe6004803603606081101561053c57600080fd5b6001600160a01b03823516919081019060408101602082013564010000000081111561056757600080fd5b82018360208201111561057957600080fd5b8035906020019184602083028401116401000000008311171561059b57600080fd5b9193909290916020810190356401000000008111156105b957600080fd5b8201836020820111156105cb57600080fd5b803590602001918460208302840111640100000000831117156105ed57600080fd5b509092509050610e51565b6102fe6004803603602081101561060e57600080fd5b50356001600160a01b0316610fdc565b61074b600480360360a081101561063457600080fd5b6001600160a01b03823581169260208101359091169181019060608101604082013564010000000081111561066857600080fd5b82018360208201111561067a57600080fd5b8035906020019184602083028401116401000000008311171561069c57600080fd5b9193909290916020810190356401000000008111156106ba57600080fd5b8201836020820111156106cc57600080fd5b803590602001918460208302840111640100000000831117156106ee57600080fd5b91939092909160208101903564010000000081111561070c57600080fd5b82018360208201111561071e57600080fd5b8035906020019184600183028401116401000000008311171561074057600080fd5b5090925090506110c5565b604080517fffffffff000000000000000000000000000000000000000000000000000000009092168252519081900360200190f35b610843600480360360a081101561079657600080fd5b8101906020810181356401000000008111156107b157600080fd5b8201836020820111156107c357600080fd5b803590602001918460018302840111640100000000831117156107e557600080fd5b91908080601f016020809104026020016040519081016040528093929190818152602001838380828437600092019190915250929550506001600160a01b0383358116945060208401351692604081013592506060013590506110f2565b604080519115158252519081900360200190f35b6104ae61122e565b6108436004803603602081101561087557600080fd5b50356001600160a01b031661123d565b6102fe6004803603602081101561089b57600080fd5b503561125b565b61074b600480360360a08110156108b857600080fd5b6001600160a01b03823581169260208101359091169160408201359160608101359181019060a0810160808201356401000000008111156108f857600080fd5b82018360208201111561090a57600080fd5b8035906020019184600183028401116401000000008311171561092c57600080fd5b5090925090506112bf565b6109418e8d6112ea565b610a388d8d8d8d80806020026020016040519081016040528093929190818152602001838360200280828437600081840152601f19601f820116905080830192505050505050508c8c8c80806020026020016040519081016040528093929190818152602001838360200280828437600081840152601f19601f820116905080830192505050505050508b8b8080602002602001604051908101604052809392919081815260200183836020028082843760009201919091525050604080516020601f8d018190048102820181019092528b815292508b91508a908190840183828082843760009201919091525061144d92505050565b610a8c8e8c8c6003818110610a4957fe5b9050602002013586868080601f0160208091040260200160405190810160405280939291908181526020018383808284376000920191909152506117d092505050565b610aca8e8e8d8d8080602002602001604051908101604052809392919081815260200183836020028082843760009201919091525061182192505050565b610b078d898980806020026020016040519081016040528093929190818152602001838360200280828437600092019190915250611c1292505050565b5050505050505050505050505050565b7f000000000000000000000000000000000000000000000000000000000000000090565b7f000000000000000000000000000000000000000000000000000000000000000090565b6000546001600160a01b03163314610bbe576040805162461bcd60e51b815260206004820152601060248201527f53656e646572206e6f742061646d696e00000000000000000000000000000000604482015290519081900360640190fd5b600554600280546001600160a01b03908116600090815260046020526040902042909301909255805473ffffffffffffffffffffffffffffffffffffffff191692909116919091179055565b606060008060008060606000806000808a80602001905160a0811015610c2f57600080fd5b8101908080516040519392919084640100000000821115610c4f57600080fd5b908301906020820185811115610c6457600080fd5b8251640100000000811182820188101715610c7e57600080fd5b82525081516020918201929091019080838360005b83811015610cab578181015183820152602001610c93565b50505050905090810190601f168015610cd85780820380516001836020036101000a031916815260200191505b5060409081526020820151908201516060830151608090930151959f50909d509b5099509197505050505050505091939590929450565b6000546001600160a01b031690565b60035490565b6000546001600160a01b03163314610d6d5760405162461bcd60e51b815260040180806020018281038252602e8152602001806125a3602e913960400191505060405180910390fd5b610d778282611dd6565b5050565b6000546001600160a01b03163314610dda576040805162461bcd60e51b815260206004820152601b60248201527f6f6e6c792061646d696e2063616e206368616e67652061646d696e0000000000604482015290519081900360640190fd5b600054604080516001600160a01b039283168152918316602083015280517f7e644d79422f17c01e4894b5f4f588d331ebfa28653d42ae832dc59e38c9798f9281900390910190a16000805473ffffffffffffffffffffffffffffffffffffffff19166001600160a01b0392909216919091179055565b6000546001600160a01b03163314610eb0576040805162461bcd60e51b815260206004820152600e60248201527f4e4f545f415554484f52495a4544000000000000000000000000000000000000604482015290519081900360640190fd5b7f00000000000000000000000000000000000000000000000000000000000000006001600160a01b0316632eb2c2d63087878787876040518763ffffffff1660e01b815260040180876001600160a01b03166001600160a01b03168152602001866001600160a01b03166001600160a01b031681526020018060200180602001806020018481038452888882818152602001925060200280828437600083820152601f01601f19169091018581038452868152602090810191508790870280828437600081840152601f19601f8201169050808301925050508481038252600081526020016020019950505050505050505050600060405180830381600087803b158015610fbd57600080fd5b505af1158015610fd1573d6000803e3d6000fd5b505050505050505050565b6001600160a01b038116611037576040805162461bcd60e51b815260206004820152600c60248201527f5a45524f5f414444524553530000000000000000000000000000000000000000604482015290519081900360640190fd5b6000546001600160a01b03163314611096576040805162461bcd60e51b815260206004820152600e60248201527f4e4f545f415554484f52495a4544000000000000000000000000000000000000604482015290519081900360640190fd5b6006805473ffffffffffffffffffffffffffffffffffffffff19166001600160a01b0392909216919091179055565b7fbc197c810000000000000000000000000000000000000000000000000000000098975050505050505050565b60006003548211806111155750836001600160a01b0316856001600160a01b0316145b8061111f57508242115b1561112c57506000611225565b60408051606087811b7fffffffffffffffffffffffffffffffffffffffff0000000000000000000000009081166020808501919091529188901b166034830152604882018690526068808301869052835180840390910181526088830184528051908201207f19457468657265756d205369676e6564204d6573736167653a0a33320000000060a884015260c48084018290528451808503909101815260e490930190935281519101206000906111e39089611e58565b6001600160a01b038116600090815260046020526040902054909150421161121057600192505050611225565b6002546001600160a01b039081169116149150505b95945050505050565b6002546001600160a01b031690565b6001600160a01b031660009081526001602052604090205460ff1690565b6000546001600160a01b031633146112ba576040805162461bcd60e51b815260206004820152601060248201527f53656e646572206e6f742061646d696e00000000000000000000000000000000604482015290519081900360640190fd5b600355565b7ff23a6e61000000000000000000000000000000000000000000000000000000009695505050505050565b7f0000000000000000000000000000000000000000000000000000000000000000421061135e576040805162461bcd60e51b815260206004820152600c60248201527f53414c455f49535f4f5645520000000000000000000000000000000000000000604482015290519081900360640190fd5b6001600160a01b03821633148061138457503360009081526001602052604090205460ff165b6113d5576040805162461bcd60e51b815260206004820152600e60248201527f4e4f545f415554484f52495a4544000000000000000000000000000000000000604482015290519081900360640190fd5b6001600160a01b03811615806113fc5750816001600160a01b0316816001600160a01b0316145b610d77576040805162461bcd60e51b815260206004820152600d60248201527f52455345525645445f4c414e4400000000000000000000000000000000000000604482015290519081900360640190fd5b600087878760008151811061145e57fe5b60200260200101518860018151811061147357fe5b60200260200101518960028151811061148857fe5b60200260200101518a60038151811061149d57fe5b60200260200101518a8a60405160200180828051906020019060200280838360005b838110156114d75781810151838201526020016114bf565b50505050905001915050604051602081830303815290604052805190602001208a60405160200180828051906020019060200280838360005b83811015611528578181015183820152602001611510565b5050505090500191505060405160208183030381529060405280519060200120604051602001808a6001600160a01b03166001600160a01b031660601b8152601401896001600160a01b03166001600160a01b031660601b81526014018881526020018781526020018681526020018581526020018481526020018381526020018281526020019950505050505050505050604051602081830303815290604052805190602001209050600760009054906101000a90046001600160a01b03166001600160a01b031663012847ed83836040518363ffffffff1660e01b81526004018080602001838152602001828103825284818151815260200191508051906020019080838360005b8381101561164a578181015183820152602001611632565b50505050905090810190601f1680156116775780820380516001836020036101000a031916815260200191505b50935050505060206040518083038186803b15801561169557600080fd5b505afa1580156116a9573d6000803e3d6000fd5b505050506040513d60208110156116bf57600080fd5b5051611712576040805162461bcd60e51b815260206004820152600c60248201527f494e56414c49445f415554480000000000000000000000000000000000000000604482015290519081900360640190fd5b60006117738760008151811061172457fe5b60200260200101518860018151811061173957fe5b60200260200101518960028151811061174e57fe5b60200260200101518a60038151811061176357fe5b60200260200101518c8b8b611f25565b905061177f8482611fca565b610fd1576040805162461bcd60e51b815260206004820152600c60248201527f494e56414c49445f4c414e440000000000000000000000000000000000000000604482015290519081900360640190fd5b60006117dc8484612095565b60065490915061181b908590839085906001600160a01b03167f00000000000000000000000000000000000000000000000000000000000000006121ee565b50505050565b8060028151811061182e57fe5b60200260200101516001148061186b57507f00000000000000000000000000000000000000000000000000000000000000006001600160a01b0316155b1561196d577f00000000000000000000000000000000000000000000000000000000000000006001600160a01b0316636e1e3bbf83836002815181106118ad57fe5b6020026020010151846000815181106118c257fe5b6020026020010151856001815181106118d757fe5b60200260200101516040518563ffffffff1660e01b815260040180856001600160a01b03166001600160a01b031681526020018481526020018381526020018281526020018060200182810382526000815260200160200195505050505050600060405180830381600087803b15801561195057600080fd5b505af1158015611964573d6000803e3d6000fd5b50505050611b0d565b7f00000000000000000000000000000000000000000000000000000000000000006001600160a01b0316636e1e3bbf7f0000000000000000000000000000000000000000000000000000000000000000836002815181106119ca57fe5b6020026020010151846000815181106119df57fe5b6020026020010151856001815181106119f457fe5b60200260200101518760405160200180826001600160a01b03166001600160a01b031681526020019150506040516020818303038152906040526040518663ffffffff1660e01b815260040180866001600160a01b03166001600160a01b0316815260200185815260200184815260200183815260200180602001828103825283818151815260200191508051906020019080838360005b83811015611aa4578181015183820152602001611a8c565b50505050905090810190601f168015611ad15780820380516001836020036101000a031916815260200191505b509650505050505050600060405180830381600087803b158015611af457600080fd5b505af1158015611b08573d6000803e3d6000fd5b505050505b61019881600181518110611b1d57fe5b60200260200101510281600081518110611b3357fe5b602002602001015101826001600160a01b0316846001600160a01b03167fe4dfa6ac11314892f3029b34a25b1a887da3b1cab2bbf8506d87128ba6e3ac0284600281518110611b7e57fe5b602002602001015185600381518110611b9357fe5b60200260200101517f000000000000000000000000000000000000000000000000000000000000000087600381518110611bc957fe5b602002602001015160405180858152602001848152602001836001600160a01b03166001600160a01b0316815260200182815260200194505050505060405180910390a4505050565b6060815167ffffffffffffffff81118015611c2c57600080fd5b50604051908082528060200260200182016040528015611c56578160200160208202803683370190505b50905060005b8251811015611c86576001828281518110611c7357fe5b6020908102919091010152600101611c5c565b507f00000000000000000000000000000000000000000000000000000000000000006001600160a01b0316632eb2c2d6308585856040518563ffffffff1660e01b815260040180856001600160a01b03166001600160a01b03168152602001846001600160a01b03166001600160a01b03168152602001806020018060200180602001848103845286818151815260200191508051906020019060200280838360005b83811015611d41578181015183820152602001611d29565b50505050905001848103835285818151815260200191508051906020019060200280838360005b83811015611d80578181015183820152602001611d68565b50505050905001848103825260008152602001602001975050505050505050600060405180830381600087803b158015611db957600080fd5b505af1158015611dcd573d6000803e3d6000fd5b50505050505050565b6001600160a01b03821660008181526001602090815260409182902080547fffffffffffffffffffffffffffffffffffffffffffffffffffffffffffffff001685151590811790915582519384529083015280517fb21eb88b4e33b3f1281830a7178d74d8aa73220416215726b68ae23d539515cb9281900390910190a15050565b60008151604114611e6857600080fd5b60208201516040830151606084015160001a601b811015611e8757601b015b8060ff16601b1480611e9c57508060ff16601c145b611ea557600080fd5b6040805160008152602080820180845289905260ff8416828401526060820186905260808201859052915160019260a0808401939192601f1981019281900390910190855afa158015611efc573d6000803e3d6000fd5b5050604051601f1901519450506001600160a01b038416611f1c57600080fd5b50505092915050565b60008787878787878760405160200180888152602001878152602001868152602001858152602001846001600160a01b03166001600160a01b031660601b8152601401838152602001828051906020019060200280838360005b83811015611f97578181015183820152602001611f7f565b50505050905001975050505050505050604051602081830303815290604052805190602001209050979650505050505050565b600081815b8451811015612069576000858281518110611fe657fe5b602002602001015190508083101561202e5782816040516020018083815260200182815260200192505050604051602081830303815290604052805190602001209250612060565b808360405160200180838152602001828152602001925050506040516020818303038152906040528051906020012092505b50600101611fcf565b507f00000000000000000000000000000000000000000000000000000000000000001490505b92915050565b6000806120ba60646120ae85600563ffffffff61247016565b9063ffffffff6124e016565b604080516323b872dd60e01b81526001600160a01b0387811660048301527f0000000000000000000000000000000000000000000000000000000000000000811660248301526044820184905291519293507f0000000000000000000000000000000000000000000000000000000000000000909116916323b872dd916064808201926020929091908290030181600087803b15801561215957600080fd5b505af115801561216d573d6000803e3d6000fd5b505050506040513d602081101561218357600080fd5b50516121d6576040805162461bcd60e51b815260206004820152601360248201527f4645455f5452414e534645525f4641494c454400000000000000000000000000604482015290519081900360640190fd5b6121e6838263ffffffff61254516565b949350505050565b8251819085901561239857606060008060008061220a8a610c0a565b939850919650945092509050600061222586868686866110f2565b156122b35761223f6122378d84612470565b6127106124e0565b9050886001600160a01b0316846001600160a01b0316866001600160a01b03167fac7a699eb95c3c6d390ec4626de17ef9a67b35891efdb197beba7c7fdd45fac48f858760405180848152602001838152602001828152602001935050505060405180910390a46122b08782612545565b96505b801561239157604080516323b872dd60e01b81526001600160a01b038f811660048301528781166024830152604482018490529151918a16916323b872dd916064808201926020929091908290030181600087803b15801561231457600080fd5b505af1158015612328573d6000803e3d6000fd5b505050506040513d602081101561233e57600080fd5b5051612391576040805162461bcd60e51b815260206004820152601960248201527f636f6d6d6973696f6e207472616e73666572206661696c656400000000000000604482015290519081900360640190fd5b5050505050505b604080516323b872dd60e01b81526001600160a01b0389811660048301528681166024830152604482018490529151918416916323b872dd916064808201926020929091908290030181600087803b1580156123f357600080fd5b505af1158015612407573d6000803e3d6000fd5b505050506040513d602081101561241d57600080fd5b5051611dcd576040805162461bcd60e51b815260206004820152601760248201527f7061796d656e74207472616e73666572206661696c6564000000000000000000604482015290519081900360640190fd5b60008261247f5750600061208f565b508181028183828161248d57fe5b041461208f576040805162461bcd60e51b815260206004820152600860248201527f6f766572666c6f77000000000000000000000000000000000000000000000000604482015290519081900360640190fd5b600081612534576040805162461bcd60e51b815260206004820152600960248201527f64697662797a65726f0000000000000000000000000000000000000000000000604482015290519081900360640190fd5b81838161253d57fe5b049392505050565b60008282111561259c576040805162461bcd60e51b815260206004820152600860248201527f756e6465666c6f77000000000000000000000000000000000000000000000000604482015290519081900360640190fd5b5090039056fe6f6e6c792061646d696e2063616e207365747570206d6574615472616e73616374696f6e50726f636573736f7273a2646970667358221220fc9205bafc138c1de206481f144dc3e7818922fbe1a20d2a71392e5e2e413c1a64736f6c63430006050033",
  "devdoc": {
    "methods": {
      "buyLandWithSand(address,address,address,uint256[],bytes32,uint256[],bytes32[],bytes,bytes)": {
        "params": {
          "buyer": "address that perform the payment",
          "info": "[X_INDEX=0] x coordinate of the Land [Y_INDEX=1] y coordinate of the Land [SIZE_INDEX=2] size of the pack of Land to purchase [PRICE_INDEX=3] price in SAND to purchase that Land",
          "proof": "merkleProof for that particular Land",
          "reserved": "the reserved address (if any)",
          "to": "address that will own the purchased Land"
        }
      },
      "changeAdmin(address)": {
        "details": "change the administrator to be `newAdmin`.",
        "params": {
          "newAdmin": "address of the new administrator."
        }
      },
      "getAdmin()": {
        "details": "gives the current administrator of this contract.",
        "returns": {
          "_0": "the current administrator of this contract."
        }
      },
      "getSigningWallet()": {
        "details": "signing wallet authorized for referral",
        "returns": {
          "_0": "the address of the signing wallet"
        }
      },
      "isMetaTransactionProcessor(address)": {
        "details": "check whether address `who` is given meta-transaction execution rights.",
        "params": {
          "who": "The address to query."
        },
        "returns": {
          "_0": "whether the address has meta-transaction execution rights."
        }
      },
      "isReferralValid(bytes,address,address,uint256,uint256)": {
        "params": {
          "commissionRate": "The commissionRate of the referral",
          "expiryTime": "The expiry time of the referral",
          "referee": "The address of the referee",
          "referrer": "The address of the referrer",
          "signature": "The signature to check (signed referral)"
        },
        "returns": {
          "_0": "True if the referral is valid"
        }
      },
      "setMetaTransactionProcessor(address,bool)": {
        "details": "Enable or disable the ability of `metaTransactionProcessor` to perform meta-tx (metaTransactionProcessor rights).",
        "params": {
          "enabled": "set whether the metaTransactionProcessor is enabled or disabled.",
          "metaTransactionProcessor": "address that will be given/removed metaTransactionProcessor rights."
        }
      },
      "setReceivingWallet(address)": {
        "params": {
          "newWallet": "address of the new receiving wallet"
        }
      },
      "updateMaxCommissionRate(uint256)": {
        "details": "Update the maximum commission rate",
        "params": {
          "newMaxCommissionRate": "The new maximum commission rate"
        }
      },
      "updateSigningWallet(address)": {
        "details": "Update the signing wallet",
        "params": {
          "newSigningWallet": "The new address of the signing wallet"
        }
      },
      "withdrawAssets(address,uint256[],uint256[])": {
        "params": {
          "assetIds": "the assetIds to be transferred",
          "to": "intended recipient of the asset tokens",
          "values": "the quantities of the assetIds to be transferred"
        }
      }
    },
    "title": "Estate Sale contract with referral"
  },
  "userdoc": {
    "methods": {
      "buyLandWithSand(address,address,address,uint256[],bytes32,uint256[],bytes32[],bytes,bytes)": {
        "notice": "buy Land with SAND using the merkle proof associated with it"
      },
      "getExpiryTime()": {
        "notice": "Gets the expiry time for the current sale"
      },
      "getMaxCommisionRate()": {
        "notice": "the max commision rate"
      },
      "getMerkleRoot()": {
        "notice": "Gets the Merkle root associated with the current sale"
      },
      "isReferralValid(bytes,address,address,uint256,uint256)": {
        "notice": "Check if a referral is valid"
      },
      "setReceivingWallet(address)": {
        "notice": "set the wallet receiving the proceeds"
      },
      "withdrawAssets(address,uint256[],uint256[])": {
        "notice": "enable Admin to withdraw remaining assets from EstateSaleWithFee contract"
      }
    },
    "notice": "This contract manages the sale of our lands as Estates"
  },
  "storageLayout": {
    "storage": [
      {
        "astId": 13650,
        "contract": "src/solc_0.6/EstateSale/EstateSaleWithAuth.sol:EstateSaleWithAuth",
        "label": "_admin",
        "offset": 0,
        "slot": "0",
        "type": "t_address"
      },
      {
        "astId": 13712,
        "contract": "src/solc_0.6/EstateSale/EstateSaleWithAuth.sol:EstateSaleWithAuth",
        "label": "_metaTransactionContracts",
        "offset": 0,
        "slot": "1",
        "type": "t_mapping(t_address,t_bool)"
      },
      {
        "astId": 11828,
        "contract": "src/solc_0.6/EstateSale/EstateSaleWithAuth.sol:EstateSaleWithAuth",
        "label": "_signingWallet",
        "offset": 0,
        "slot": "2",
        "type": "t_address"
      },
      {
        "astId": 11830,
        "contract": "src/solc_0.6/EstateSale/EstateSaleWithAuth.sol:EstateSaleWithAuth",
        "label": "_maxCommissionRate",
        "offset": 0,
        "slot": "3",
        "type": "t_uint256"
      },
      {
        "astId": 11834,
        "contract": "src/solc_0.6/EstateSale/EstateSaleWithAuth.sol:EstateSaleWithAuth",
        "label": "_previousSigningWallets",
        "offset": 0,
        "slot": "4",
        "type": "t_mapping(t_address,t_uint256)"
      },
      {
        "astId": 11843,
        "contract": "src/solc_0.6/EstateSale/EstateSaleWithAuth.sol:EstateSaleWithAuth",
        "label": "_previousSigningDelay",
        "offset": 0,
        "slot": "5",
        "type": "t_uint256"
      },
      {
        "astId": 7453,
        "contract": "src/solc_0.6/EstateSale/EstateSaleWithAuth.sol:EstateSaleWithAuth",
        "label": "_wallet",
        "offset": 0,
        "slot": "6",
        "type": "t_address_payable"
      },
      {
        "astId": 7455,
        "contract": "src/solc_0.6/EstateSale/EstateSaleWithAuth.sol:EstateSaleWithAuth",
        "label": "_authValidator",
        "offset": 0,
        "slot": "7",
        "type": "t_contract(AuthValidator)6784"
      }
    ],
    "types": {
      "t_address": {
        "encoding": "inplace",
        "label": "address",
        "numberOfBytes": "20"
      },
      "t_address_payable": {
        "encoding": "inplace",
        "label": "address payable",
        "numberOfBytes": "20"
      },
      "t_bool": {
        "encoding": "inplace",
        "label": "bool",
        "numberOfBytes": "1"
      },
      "t_contract(AuthValidator)6784": {
        "encoding": "inplace",
        "label": "contract AuthValidator",
        "numberOfBytes": "20"
      },
      "t_mapping(t_address,t_bool)": {
        "encoding": "mapping",
        "key": "t_address",
        "label": "mapping(address => bool)",
        "numberOfBytes": "32",
        "value": "t_bool"
      },
      "t_mapping(t_address,t_uint256)": {
        "encoding": "mapping",
        "key": "t_address",
        "label": "mapping(address => uint256)",
        "numberOfBytes": "32",
        "value": "t_uint256"
      },
      "t_uint256": {
        "encoding": "inplace",
        "label": "uint256",
        "numberOfBytes": "32"
      }
    }
  }
}