{
  "address": "0x942DaEbbec2ab2307223E58E2C4360d4EBf88FA4",
  "abi": [
    {
      "inputs": [
        {
          "internalType": "address",
          "name": "landAddress",
          "type": "address"
        },
        {
          "internalType": "address",
          "name": "sandContractAddress",
          "type": "address"
        },
        {
          "internalType": "address",
          "name": "initialMetaTx",
          "type": "address"
        },
        {
          "internalType": "address",
          "name": "admin",
          "type": "address"
        },
        {
          "internalType": "address payable",
          "name": "initialWalletAddress",
          "type": "address"
        },
        {
          "internalType": "bytes32",
          "name": "merkleRoot",
          "type": "bytes32"
        },
        {
          "internalType": "uint256",
          "name": "expiryTime",
          "type": "uint256"
        },
        {
          "internalType": "address",
          "name": "initialSigningWallet",
          "type": "address"
        },
        {
          "internalType": "uint256",
          "name": "initialMaxCommissionRate",
          "type": "uint256"
        },
        {
          "internalType": "address",
          "name": "estate",
          "type": "address"
        },
        {
          "internalType": "address",
          "name": "asset",
          "type": "address"
        },
        {
          "internalType": "address",
          "name": "feeDistributor",
          "type": "address"
        },
        {
          "internalType": "address",
          "name": "authValidator",
          "type": "address"
        }
      ],
      "stateMutability": "nonpayable",
      "type": "constructor"
    },
    {
      "anonymous": false,
      "inputs": [
        {
          "indexed": false,
          "internalType": "address",
          "name": "oldAdmin",
          "type": "address"
        },
        {
          "indexed": false,
          "internalType": "address",
          "name": "newAdmin",
          "type": "address"
        }
      ],
      "name": "AdminChanged",
      "type": "event"
    },
    {
      "anonymous": false,
      "inputs": [
        {
          "indexed": true,
          "internalType": "address",
          "name": "buyer",
          "type": "address"
        },
        {
          "indexed": true,
          "internalType": "address",
          "name": "to",
          "type": "address"
        },
        {
          "indexed": true,
          "internalType": "uint256",
          "name": "topCornerId",
          "type": "uint256"
        },
        {
          "indexed": false,
          "internalType": "uint256",
          "name": "size",
          "type": "uint256"
        },
        {
          "indexed": false,
          "internalType": "uint256",
          "name": "price",
          "type": "uint256"
        },
        {
          "indexed": false,
          "internalType": "address",
          "name": "token",
          "type": "address"
        },
        {
          "indexed": false,
          "internalType": "uint256",
          "name": "amountPaid",
          "type": "uint256"
        }
      ],
      "name": "LandQuadPurchased",
      "type": "event"
    },
    {
      "anonymous": false,
      "inputs": [
        {
          "indexed": false,
          "internalType": "address",
          "name": "metaTransactionProcessor",
          "type": "address"
        },
        {
          "indexed": false,
          "internalType": "bool",
          "name": "enabled",
          "type": "bool"
        }
      ],
      "name": "MetaTransactionProcessor",
      "type": "event"
    },
    {
      "anonymous": false,
      "inputs": [
        {
          "indexed": true,
          "internalType": "address",
          "name": "referrer",
          "type": "address"
        },
        {
          "indexed": true,
          "internalType": "address",
          "name": "referee",
          "type": "address"
        },
        {
          "indexed": true,
          "internalType": "address",
          "name": "token",
          "type": "address"
        },
        {
          "indexed": false,
          "internalType": "uint256",
          "name": "amount",
          "type": "uint256"
        },
        {
          "indexed": false,
          "internalType": "uint256",
          "name": "commission",
          "type": "uint256"
        },
        {
          "indexed": false,
          "internalType": "uint256",
          "name": "commissionRate",
          "type": "uint256"
        }
      ],
      "name": "ReferralUsed",
      "type": "event"
    },
    {
      "inputs": [
        {
          "internalType": "address",
          "name": "buyer",
          "type": "address"
        },
        {
          "internalType": "address",
          "name": "to",
          "type": "address"
        },
        {
          "internalType": "address",
          "name": "reserved",
          "type": "address"
        },
        {
          "internalType": "uint256[]",
          "name": "info",
          "type": "uint256[]"
        },
        {
          "internalType": "bytes32",
          "name": "salt",
          "type": "bytes32"
        },
        {
          "internalType": "uint256[]",
          "name": "assetIds",
          "type": "uint256[]"
        },
        {
          "internalType": "bytes32[]",
          "name": "proof",
          "type": "bytes32[]"
        },
        {
          "internalType": "bytes",
          "name": "referral",
          "type": "bytes"
        },
        {
          "internalType": "bytes",
          "name": "signature",
          "type": "bytes"
        }
      ],
      "name": "buyLandWithSand",
      "outputs": [],
      "stateMutability": "nonpayable",
      "type": "function"
    },
    {
      "inputs": [
        {
          "internalType": "address",
          "name": "newAdmin",
          "type": "address"
        }
      ],
      "name": "changeAdmin",
      "outputs": [],
      "stateMutability": "nonpayable",
      "type": "function"
    },
    {
      "inputs": [
        {
          "internalType": "bytes",
          "name": "referral",
          "type": "bytes"
        }
      ],
      "name": "decodeReferral",
      "outputs": [
        {
          "internalType": "bytes",
          "name": "",
          "type": "bytes"
        },
        {
          "internalType": "address",
          "name": "",
          "type": "address"
        },
        {
          "internalType": "address",
          "name": "",
          "type": "address"
        },
        {
          "internalType": "uint256",
          "name": "",
          "type": "uint256"
        },
        {
          "internalType": "uint256",
          "name": "",
          "type": "uint256"
        }
      ],
      "stateMutability": "pure",
      "type": "function"
    },
    {
      "inputs": [],
      "name": "getAdmin",
      "outputs": [
        {
          "internalType": "address",
          "name": "",
          "type": "address"
        }
      ],
      "stateMutability": "view",
      "type": "function"
    },
    {
      "inputs": [],
      "name": "getExpiryTime",
      "outputs": [
        {
          "internalType": "uint256",
          "name": "",
          "type": "uint256"
        }
      ],
      "stateMutability": "view",
      "type": "function"
    },
    {
      "inputs": [],
      "name": "getMaxCommisionRate",
      "outputs": [
        {
          "internalType": "uint256",
          "name": "",
          "type": "uint256"
        }
      ],
      "stateMutability": "view",
      "type": "function"
    },
    {
      "inputs": [],
      "name": "getMerkleRoot",
      "outputs": [
        {
          "internalType": "bytes32",
          "name": "",
          "type": "bytes32"
        }
      ],
      "stateMutability": "view",
      "type": "function"
    },
    {
      "inputs": [],
      "name": "getSigningWallet",
      "outputs": [
        {
          "internalType": "address",
          "name": "",
          "type": "address"
        }
      ],
      "stateMutability": "view",
      "type": "function"
    },
    {
      "inputs": [
        {
          "internalType": "address",
          "name": "who",
          "type": "address"
        }
      ],
      "name": "isMetaTransactionProcessor",
      "outputs": [
        {
          "internalType": "bool",
          "name": "",
          "type": "bool"
        }
      ],
      "stateMutability": "view",
      "type": "function"
    },
    {
      "inputs": [
        {
          "internalType": "bytes",
          "name": "signature",
          "type": "bytes"
        },
        {
          "internalType": "address",
          "name": "referrer",
          "type": "address"
        },
        {
          "internalType": "address",
          "name": "referee",
          "type": "address"
        },
        {
          "internalType": "uint256",
          "name": "expiryTime",
          "type": "uint256"
        },
        {
          "internalType": "uint256",
          "name": "commissionRate",
          "type": "uint256"
        }
      ],
      "name": "isReferralValid",
      "outputs": [
        {
          "internalType": "bool",
          "name": "",
          "type": "bool"
        }
      ],
      "stateMutability": "view",
      "type": "function"
    },
    {
      "inputs": [
        {
          "internalType": "address",
          "name": "",
          "type": "address"
        },
        {
          "internalType": "address",
          "name": "",
          "type": "address"
        },
        {
          "internalType": "uint256[]",
          "name": "",
          "type": "uint256[]"
        },
        {
          "internalType": "uint256[]",
          "name": "",
          "type": "uint256[]"
        },
        {
          "internalType": "bytes",
          "name": "",
          "type": "bytes"
        }
      ],
      "name": "onERC1155BatchReceived",
      "outputs": [
        {
          "internalType": "bytes4",
          "name": "",
          "type": "bytes4"
        }
      ],
      "stateMutability": "pure",
      "type": "function"
    },
    {
      "inputs": [
        {
          "internalType": "address",
          "name": "",
          "type": "address"
        },
        {
          "internalType": "address",
          "name": "",
          "type": "address"
        },
        {
          "internalType": "uint256",
          "name": "",
          "type": "uint256"
        },
        {
          "internalType": "uint256",
          "name": "",
          "type": "uint256"
        },
        {
          "internalType": "bytes",
          "name": "",
          "type": "bytes"
        }
      ],
      "name": "onERC1155Received",
      "outputs": [
        {
          "internalType": "bytes4",
          "name": "",
          "type": "bytes4"
        }
      ],
      "stateMutability": "pure",
      "type": "function"
    },
    {
      "inputs": [
        {
          "internalType": "address",
          "name": "metaTransactionProcessor",
          "type": "address"
        },
        {
          "internalType": "bool",
          "name": "enabled",
          "type": "bool"
        }
      ],
      "name": "setMetaTransactionProcessor",
      "outputs": [],
      "stateMutability": "nonpayable",
      "type": "function"
    },
    {
      "inputs": [
        {
          "internalType": "address payable",
          "name": "newWallet",
          "type": "address"
        }
      ],
      "name": "setReceivingWallet",
      "outputs": [],
      "stateMutability": "nonpayable",
      "type": "function"
    },
    {
      "inputs": [
        {
          "internalType": "uint256",
          "name": "newMaxCommissionRate",
          "type": "uint256"
        }
      ],
      "name": "updateMaxCommissionRate",
      "outputs": [],
      "stateMutability": "nonpayable",
      "type": "function"
    },
    {
      "inputs": [
        {
          "internalType": "address",
          "name": "newSigningWallet",
          "type": "address"
        }
      ],
      "name": "updateSigningWallet",
      "outputs": [],
      "stateMutability": "nonpayable",
      "type": "function"
    },
    {
      "inputs": [
        {
          "internalType": "address",
          "name": "to",
          "type": "address"
        },
        {
          "internalType": "uint256[]",
          "name": "assetIds",
          "type": "uint256[]"
        },
        {
          "internalType": "uint256[]",
          "name": "values",
          "type": "uint256[]"
        }
      ],
      "name": "withdrawAssets",
      "outputs": [],
      "stateMutability": "nonpayable",
      "type": "function"
    }
  ],
  "transactionHash": "0x426b676fb7073f61356e08b8f12f9eeded8a00a69f63fe06a3142fdd7a9bd9e5",
  "args": [
    "0x5CC5B05a8A13E3fBDB0BB9FcCd98D38e50F90c38",
    "0x3845badAde8e6dFF049820680d1F14bD3903a5d0",
    "0x3845badAde8e6dFF049820680d1F14bD3903a5d0",
    "0xEAA0993E1d21c2103e4f172a20D29371FbAF6D06",
    "0x4489590a116618B506F0EfE885432F6A8ED998E9",
    "0x89afc709fd9a9746046c6a6cfa16cb953fd456f9ad095b9bc987c511cb96ac80",
    1645102800,
    "0x3044719d139F866a44c988823513eCB93060bF1b",
    2000,
    "0x0000000000000000000000000000000000000000",
    "0xa342f5D851E866E18ff98F351f2c6637f4478dB5",
    "0x0EB04462D69B1D267d269377E34f60b9De1c8510",
    "0x459EA8c295069d4cd16c025b9fa5cA3E4C5AA468"
  ],
  "linkedData": [
    {
      "x": 75,
      "y": 0,
      "size": 1,
      "price": "1011000000000000000000",
      "reserved": "",
      "salt": "0x150b03db96839c401907325446ce1598ac7eb03602a970ea5b74476b7ab8e416",
      "assetIds": []
    },
    {
      "x": 75,
      "y": 1,
      "size": 1,
      "price": "1011000000000000000000",
      "reserved": "",
      "salt": "0xadf08b08f4f104d69051486002cf455f93889b02e94e6ddfdeaf910d97993ec3",
      "assetIds": []
    },
    {
      "x": 76,
      "y": 0,
      "size": 1,
      "price": "1011000000000000000000",
      "reserved": "",
      "salt": "0x6327fe5a5d550e7849745b3835a1092cd17eda2c298af2871aca49605f2bb8c8",
      "assetIds": []
    },
    {
      "x": 76,
      "y": 1,
      "size": 1,
      "price": "1011000000000000000000",
      "reserved": "",
      "salt": "0xc2199d8ed845192b8d10a3e21d71eb161aa5865320319df1fc1224b74c896184",
      "assetIds": []
    },
    {
      "x": 77,
      "y": 0,
      "size": 1,
      "price": "1011000000000000000000",
      "reserved": "",
      "salt": "0x9f2b964e44c4933e3349d79b52bb6960bd35a033cc143476e7ed72749fc3b469",
      "assetIds": []
    },
    {
      "x": 77,
      "y": 1,
      "size": 1,
      "price": "1011000000000000000000",
      "reserved": "",
      "salt": "0x543d1d6c98f5f3141f26a934c6440f82480eb045c948210f2f819eb1ec337d0b",
      "assetIds": []
    },
    {
      "x": 78,
      "y": 6,
      "size": 1,
      "price": "1011000000000000000000",
      "reserved": "",
      "salt": "0xfd914af6f89ac2485570bafc5196503b29818f31fa9b8d04ca0d1798e3404069",
      "assetIds": []
    },
    {
      "x": 78,
      "y": 7,
      "size": 1,
      "price": "1011000000000000000000",
      "reserved": "",
      "salt": "0x5783e434ecea8c7e37124f474d16827c14ec3c8da0f35c2d288ec8dbc16823ba",
      "assetIds": []
    },
    {
      "x": 78,
      "y": 8,
      "size": 1,
      "price": "1011000000000000000000",
      "reserved": "",
      "salt": "0x9b96a5871c2bc306ef4deed11a1b3261f8ef7d9720888ed929f188ad9ae8393e",
      "assetIds": []
    },
    {
      "x": 78,
      "y": 9,
      "size": 1,
      "price": "1011000000000000000000",
      "reserved": "",
      "salt": "0xf3bb3cacc23874896d668e989dc666eb78d1523582355020e3fe1bb00d3dbdf1",
      "assetIds": []
    },
    {
      "x": 78,
      "y": 10,
      "size": 1,
      "price": "1011000000000000000000",
      "reserved": "",
      "salt": "0xda2a86c4d4e98b544e3be5399fd5b8e55da977e7767e73d58b5673e33c02e844",
      "assetIds": []
    },
    {
      "x": 78,
      "y": 11,
      "size": 1,
      "price": "4683000000000000000000",
      "reserved": "",
      "salt": "0xfc8e5a430bcf41cbec14f6ddc7cd83c5944dd9f3b82f553c4941404b951f5a0d",
      "assetIds": [
        "55464657044963196816950587289035428064568320970692304673817341489688428423170",
        "55464657044963196816950587289035428064568320970692304673817341489688428423168",
        "55464657044963196816950587289035428064568320970692304673817341489688445192192"
      ]
    },
    {
      "x": 79,
      "y": 6,
      "size": 1,
      "price": "1011000000000000000000",
      "reserved": "",
      "salt": "0xda37f9223783ea7acd45a25f4be3ec2d5068948c2ad2eaaf12be90ad5b481d1a",
      "assetIds": []
    },
    {
      "x": 79,
      "y": 7,
      "size": 1,
      "price": "1011000000000000000000",
      "reserved": "",
      "salt": "0x5bd483afd8c1506d4a43272fd517f0130a01b02046535ccd945ce9c3fc007414",
      "assetIds": []
    },
    {
      "x": 79,
      "y": 8,
      "size": 1,
      "price": "1011000000000000000000",
      "reserved": "",
      "salt": "0x71ccef48f958cf0749b6449f1a8b26336b38c739250de083bc21d0469d2e84fb",
      "assetIds": []
    },
    {
      "x": 79,
      "y": 9,
      "size": 1,
      "price": "1011000000000000000000",
      "reserved": "",
      "salt": "0x436bf56ab3c18fd888fcfc2238d8a667f57a8a533beac7d66f7d708edc6d9d08",
      "assetIds": []
    },
    {
      "x": 79,
      "y": 10,
      "size": 1,
      "price": "1011000000000000000000",
      "reserved": "",
      "salt": "0x2d2a0ac2bbde19f96b11245fb2fad94274a299e14fef1bed1bbc30dbaa13f83e",
      "assetIds": []
    },
    {
      "x": 79,
      "y": 11,
      "size": 1,
      "price": "4683000000000000000000",
      "reserved": "",
      "salt": "0x69c1d2190a85b00065c07927656f5e237f2b3d34cef87bb627a1af05cbe35daf",
      "assetIds": [
        "55464657044963196816950587289035428064568320970692304673817341489688428423170",
        "55464657044963196816950587289035428064568320970692304673817341489688428423168",
        "55464657044963196816950587289035428064568320970692304673817341489688445192192"
      ]
    },
    {
      "x": 79,
      "y": 18,
      "size": 1,
      "price": "4683000000000000000000",
      "reserved": "",
      "salt": "0xd8c5291ddafc470d0a8b294c01a9d27e187fa0ec1b97f84a080a0a336743a00a",
      "assetIds": [
        "55464657044963196816950587289035428064568320970692304673817341489688428423170",
        "55464657044963196816950587289035428064568320970692304673817341489688428423168",
        "55464657044963196816950587289035428064568320970692304673817341489688445192192"
      ]
    },
    {
      "x": 79,
      "y": 19,
      "size": 1,
      "price": "1011000000000000000000",
      "reserved": "",
      "salt": "0xf7409dfc15da2aee8c09c5ded40b7a243421b2c565e8bbb6e66d67438ba497a9",
      "assetIds": []
    },
    {
      "x": 79,
      "y": 20,
      "size": 1,
      "price": "1011000000000000000000",
      "reserved": "",
      "salt": "0x6cb6f0b3feaae1165de90bf36c9aeca89ce0df86bdc59ccfb27d374b878b8994",
      "assetIds": []
    },
    {
      "x": 80,
      "y": 6,
      "size": 1,
      "price": "1011000000000000000000",
      "reserved": "",
      "salt": "0xa66f7c6ac2a1d199f58345d355c37181d75f277fab1f040c050e06be796edd13",
      "assetIds": []
    },
    {
      "x": 80,
      "y": 7,
      "size": 1,
      "price": "1011000000000000000000",
      "reserved": "",
      "salt": "0x6a2677ed8b244968e469065a0343dcfc053e0410837bab671fd55e7b288151ff",
      "assetIds": []
    },
    {
      "x": 80,
      "y": 8,
      "size": 1,
      "price": "1011000000000000000000",
      "reserved": "",
      "salt": "0xa55c4f94693a8c227f84699ea36295fde4458941852a67607008295cc8033335",
      "assetIds": []
    },
    {
      "x": 80,
      "y": 9,
      "size": 1,
      "price": "1011000000000000000000",
      "reserved": "",
      "salt": "0x4e4e2dcd9c71d565d8ffdbe7169a5bdc2c0e12541ffe5974e8ce6ecf09680e36",
      "assetIds": []
    },
    {
      "x": 80,
      "y": 10,
      "size": 1,
      "price": "1011000000000000000000",
      "reserved": "",
      "salt": "0xfaf12076dbe53c7116e31a52ff4f7dfbb54211ebe2c5d9b57aab33916fb6bc70",
      "assetIds": []
    },
    {
      "x": 80,
      "y": 11,
      "size": 1,
      "price": "4683000000000000000000",
      "reserved": "",
      "salt": "0x4b91c8b6d6193883d8c67862733e3b777d87976fe115bee0a8a64ce1b470dbbc",
      "assetIds": [
        "55464657044963196816950587289035428064568320970692304673817341489688428423171",
        "55464657044963196816950587289035428064568320970692304673817341489688428423168",
        "55464657044963196816950587289035428064568320970692304673817341489688428423169"
      ]
    },
    {
      "x": 80,
      "y": 18,
      "size": 1,
      "price": "4683000000000000000000",
      "reserved": "",
      "salt": "0x2370bad8a109a9e23df3bfcd6e556aa41cf770e8ba72ab3fc638781fce237112",
      "assetIds": [
        "55464657044963196816950587289035428064568320970692304673817341489688428423170",
        "55464657044963196816950587289035428064568320970692304673817341489688428423168",
        "55464657044963196816950587289035428064568320970692304673817341489688445192192"
      ]
    },
    {
      "x": 80,
      "y": 19,
      "size": 1,
      "price": "1011000000000000000000",
      "reserved": "",
      "salt": "0xa546ad4739b41ef7ce9eb89d55e713d15018595b5ccc4552762e376c2e4ed42f",
      "assetIds": []
    },
    {
      "x": 80,
      "y": 20,
      "size": 1,
      "price": "1011000000000000000000",
      "reserved": "",
      "salt": "0x033fdfb14e4a1c2aa533531c4381007ea7b8f198abca6fab865eda615afefc80",
      "assetIds": []
    },
    {
      "x": 81,
      "y": 6,
      "size": 1,
      "price": "1011000000000000000000",
      "reserved": "",
      "salt": "0x1b2e5ee9638dd086587c68c5f95f38ef7bec8f9d03c6d63195c0cde17d3c34a1",
      "assetIds": []
    },
    {
      "x": 81,
      "y": 7,
      "size": 1,
      "price": "1011000000000000000000",
      "reserved": "",
      "salt": "0x7ef16161dd035a32857225578f776934f722e85f31a8a6dfe73dee86c8dba166",
      "assetIds": []
    },
    {
      "x": 81,
      "y": 8,
      "size": 1,
      "price": "1011000000000000000000",
      "reserved": "",
      "salt": "0x6f8067bae7015b5dc64b359c79e27effea27d7abbf8f04e22079449f356b0cf3",
      "assetIds": []
    },
    {
      "x": 81,
      "y": 9,
      "size": 1,
      "price": "1011000000000000000000",
      "reserved": "",
      "salt": "0x4f1ddf7a2408c1eff007a2ac144df52ab88f316f5227905fcb24898ddd412e42",
      "assetIds": []
    },
    {
      "x": 81,
      "y": 10,
      "size": 1,
      "price": "1011000000000000000000",
      "reserved": "",
      "salt": "0x3bf3c0553b7e6d767c4196831eabe82a1f09e2e3d380d380dca35cb2a8cac5ef",
      "assetIds": []
    },
    {
      "x": 81,
      "y": 11,
      "size": 1,
      "price": "4683000000000000000000",
      "reserved": "",
      "salt": "0x11268d33349aa21ed1c68bb8c0cdadc7e665cab06a920187d192055edba6d12c",
      "assetIds": [
        "55464657044963196816950587289035428064568320970692304673817341489688428423171",
        "55464657044963196816950587289035428064568320970692304673817341489688428423168",
        "55464657044963196816950587289035428064568320970692304673817341489688428423169"
      ]
    },
    {
      "x": 81,
      "y": 18,
      "size": 1,
      "price": "4683000000000000000000",
      "reserved": "",
      "salt": "0x85522108bf8a45551e435d428383f1ba90d89b2da44176d71ace9192c24212ac",
      "assetIds": [
        "55464657044963196816950587289035428064568320970692304673817341489688428423171",
        "55464657044963196816950587289035428064568320970692304673817341489688428423168",
        "55464657044963196816950587289035428064568320970692304673817341489688428423169"
      ]
    },
    {
      "x": 81,
      "y": 19,
      "size": 1,
      "price": "1011000000000000000000",
      "reserved": "",
      "salt": "0xb711fcf9296825abba50c2358e5f39873409ae5b5af7b738c64150fa04c9d82d",
      "assetIds": []
    },
    {
      "x": 81,
      "y": 20,
      "size": 1,
      "price": "1011000000000000000000",
      "reserved": "",
      "salt": "0xa6fc1544806d0119f7f6d9d5b3a0b18705fa4d4fdebfa3b6ed93c8d903e6692f",
      "assetIds": []
    },
    {
      "x": 81,
      "y": 21,
      "size": 1,
      "price": "1011000000000000000000",
      "reserved": "",
      "salt": "0x4206f4ebdc8d45ed89026edc4b67f2c2df98e6f9c8245e505a6d735133ff5bfd",
      "assetIds": []
    },
    {
      "x": 82,
      "y": 6,
      "size": 1,
      "price": "1011000000000000000000",
      "reserved": "",
      "salt": "0x858e141ee908ef27bf62cb0d0e80edbe8265eb79c2e1691232ea34dd4415893e",
      "assetIds": []
    },
    {
      "x": 82,
      "y": 7,
      "size": 1,
      "price": "1011000000000000000000",
      "reserved": "",
      "salt": "0xf239207e41650e0338d3737b44e4af604677edba65f4bb73cc7e761bea900242",
      "assetIds": []
    },
    {
      "x": 82,
      "y": 8,
      "size": 1,
      "price": "1011000000000000000000",
      "reserved": "",
      "salt": "0xd88ca88d8a797d12c8463d701e149de3ea49d4df7cd4d6e0506283b82eb3149f",
      "assetIds": []
    },
    {
      "x": 82,
      "y": 9,
      "size": 1,
      "price": "1011000000000000000000",
      "reserved": "",
      "salt": "0x88d6dddf281bb9d22638454c715b8583fa1b739aa78e702148c0fc1e3f794d8d",
      "assetIds": []
    },
    {
      "x": 82,
      "y": 10,
      "size": 1,
      "price": "1011000000000000000000",
      "reserved": "",
      "salt": "0x63724533b9567158b57c1d6a4d64d3532fe978b10c1c50bc3b6acd1c824e1d1d",
      "assetIds": []
    },
    {
      "x": 82,
      "y": 11,
      "size": 1,
      "price": "4683000000000000000000",
      "reserved": "",
      "salt": "0x89f139c8100549a6fa4aad395940555ada3c1f25bbf0f01feb9cd19bad6dbb40",
      "assetIds": [
        "55464657044963196816950587289035428064568320970692304673817341489688428423171",
        "55464657044963196816950587289035428064568320970692304673817341489688428423168",
        "55464657044963196816950587289035428064568320970692304673817341489688428423169"
      ]
    },
    {
      "x": 82,
      "y": 18,
      "size": 1,
      "price": "4683000000000000000000",
      "reserved": "",
      "salt": "0x331cee6f0d4f1caf6d0e0d9c42056a73af2805d3abd878b5f46b2b2a9d31f927",
      "assetIds": [
        "55464657044963196816950587289035428064568320970692304673817341489688428423171",
        "55464657044963196816950587289035428064568320970692304673817341489688428423168",
        "55464657044963196816950587289035428064568320970692304673817341489688428423169"
      ]
    },
    {
      "x": 82,
      "y": 19,
      "size": 1,
      "price": "1011000000000000000000",
      "reserved": "",
      "salt": "0xbe779a81e8783958638c63a8a10768d976f01afb9206d998f33e7e682daac54d",
      "assetIds": []
    },
    {
      "x": 82,
      "y": 20,
      "size": 1,
      "price": "1011000000000000000000",
      "reserved": "",
      "salt": "0x625e237bd6190ab86313596d324388ba5e86afa5fde4ef82c2d1822971bc2fc0",
      "assetIds": []
    },
    {
      "x": 82,
      "y": 21,
      "size": 1,
      "price": "1011000000000000000000",
      "reserved": "",
      "salt": "0xeb44d0c5f03f2aefed5d8c63b06f2dc57952cea9797ba0ae44ee62ae03c7b7fb",
      "assetIds": []
    },
    {
      "x": 83,
      "y": 6,
      "size": 1,
      "price": "1011000000000000000000",
      "reserved": "",
      "salt": "0xd18eb8670750ebe0901d3ab410db7ea76cad191eb108341b5ba248e7ce88d950",
      "assetIds": []
    },
    {
      "x": 83,
      "y": 7,
      "size": 1,
      "price": "1011000000000000000000",
      "reserved": "",
      "salt": "0x4c3c1e75cbaf91d4454096644cd6883a4263aa581e2e75699aacfce97ef6f010",
      "assetIds": []
    },
    {
      "x": 83,
      "y": 8,
      "size": 1,
      "price": "1011000000000000000000",
      "reserved": "",
      "salt": "0xb3f410ce6de1d497955b9e59f63a2909440a7aadeb4cdcae3b569e00b58226e8",
      "assetIds": []
    },
    {
      "x": 83,
      "y": 9,
      "size": 1,
      "price": "1011000000000000000000",
      "reserved": "",
      "salt": "0xae79b5e42944297914d616718a209f04bbe36c58837724d2cf1f99ad4f336741",
      "assetIds": []
    },
    {
      "x": 83,
      "y": 10,
      "size": 1,
      "price": "1011000000000000000000",
      "reserved": "",
      "salt": "0xbb82e9f51cd0a9cece684a1a30c51757a649da38a14be131c8d8cdf14cdd8e50",
      "assetIds": []
    },
    {
      "x": 83,
      "y": 11,
      "size": 1,
      "price": "4683000000000000000000",
      "reserved": "",
      "salt": "0x95b7e0b3004e3fb63f589f37362fb4f494720a73fb9fcdaa9d5b76cad6197b07",
      "assetIds": [
        "55464657044963196816950587289035428064568320970692304673817341489688428423170",
        "55464657044963196816950587289035428064568320970692304673817341489688428423168",
        "55464657044963196816950587289035428064568320970692304673817341489688445192192"
      ]
    },
    {
      "x": 83,
      "y": 18,
      "size": 1,
      "price": "4683000000000000000000",
      "reserved": "",
      "salt": "0x9744fe503e05bea7abf233f5cb4839df801da4fd21d5f179eb660ac1b132e1ed",
      "assetIds": [
        "55464657044963196816950587289035428064568320970692304673817341489688428423170",
        "55464657044963196816950587289035428064568320970692304673817341489688428423168",
        "55464657044963196816950587289035428064568320970692304673817341489688445192192"
      ]
    },
    {
      "x": 83,
      "y": 19,
      "size": 1,
      "price": "1011000000000000000000",
      "reserved": "",
      "salt": "0xfe5d0be997f7c6444278ed2b9362946d191fa4626e1a702119586f5676d4585d",
      "assetIds": []
    },
    {
      "x": 83,
      "y": 20,
      "size": 1,
      "price": "1011000000000000000000",
      "reserved": "",
      "salt": "0xe091c076308c214f18a6d723211e7928d589e75818953aa4e5366d3c527a1518",
      "assetIds": []
    },
    {
      "x": 83,
      "y": 21,
      "size": 1,
      "price": "1011000000000000000000",
      "reserved": "",
      "salt": "0x957fa6d8a1a001f8675643ef5b0bdd12fd1dcb84f0869ce4995ce3725c0e1a18",
      "assetIds": []
    },
    {
      "x": 84,
      "y": 0,
      "size": 1,
      "price": "1011000000000000000000",
      "reserved": "",
      "salt": "0x369d7c1f7d42442bd118b0d08af9fa0373d8a1536a7a11625f590f850bc4ef5c",
      "assetIds": []
    },
    {
      "x": 84,
      "y": 1,
      "size": 1,
      "price": "1011000000000000000000",
      "reserved": "",
      "salt": "0x8d94fb452b20c3831f1bf4cf1247f34fa8521cb78afe5d10a2c25fbb36a49182",
      "assetIds": []
    },
    {
      "x": 84,
      "y": 2,
      "size": 1,
      "price": "1011000000000000000000",
      "reserved": "",
      "salt": "0x363c23ad34873653dd187033c2aef2caac641a09a2d06353da20359aa814feee",
      "assetIds": []
    },
    {
      "x": 84,
      "y": 3,
      "size": 1,
      "price": "1011000000000000000000",
      "reserved": "",
      "salt": "0xff5c57ef10eecf36fc7459f3cec2c0f12ae54aebea1430617c0622a0b96896dd",
      "assetIds": []
    },
    {
      "x": 84,
      "y": 4,
      "size": 1,
      "price": "1011000000000000000000",
      "reserved": "",
      "salt": "0xb14aad040b956a8a8c7ac943291b7fb8b8b24311bec28076ed23f93b61a0d83a",
      "assetIds": []
    },
    {
      "x": 84,
      "y": 5,
      "size": 1,
      "price": "1011000000000000000000",
      "reserved": "",
      "salt": "0x889b27711c44efeece4068fc90d7f336ceb1ab444d3458b3d76ffce0d570ebe2",
      "assetIds": []
    },
    {
      "x": 84,
      "y": 9,
      "size": 1,
      "price": "1011000000000000000000",
      "reserved": "",
      "salt": "0xa0b75ebd54973db9370192971755636a7afb7529f7d226882e758b6312b07fe1",
      "assetIds": []
    },
    {
      "x": 84,
      "y": 10,
      "size": 1,
      "price": "1011000000000000000000",
      "reserved": "",
      "salt": "0xe9a6a51bcd251e8c9515532e4378bcb3512d3f724c878a82b333cff8ad9ed621",
      "assetIds": []
    },
    {
      "x": 84,
      "y": 11,
      "size": 1,
      "price": "1011000000000000000000",
      "reserved": "",
      "salt": "0x34663f5e7d4fd3d0e18fa27c14a96dd950c8ae09e20de04af2038049f4c34912",
      "assetIds": []
    },
    {
      "x": 84,
      "y": 12,
      "size": 1,
      "price": "4683000000000000000000",
      "reserved": "",
      "salt": "0x0767bc90af228c04d74d393fa0013cb0f2a3d8f178b1763f3e3b275356fe75a5",
      "assetIds": [
        "55464657044963196816950587289035428064568320970692304673817341489688428423171",
        "55464657044963196816950587289035428064568320970692304673817341489688428423168",
        "55464657044963196816950587289035428064568320970692304673817341489688428423169"
      ]
    },
    {
      "x": 84,
      "y": 13,
      "size": 1,
      "price": "4683000000000000000000",
      "reserved": "",
      "salt": "0x333b1dfa34c367bee6bd12d6f6b0a3bdaa9abcbe72730e72afaa4256ae83b6ca",
      "assetIds": [
        "55464657044963196816950587289035428064568320970692304673817341489688428423170",
        "55464657044963196816950587289035428064568320970692304673817341489688428423168",
        "55464657044963196816950587289035428064568320970692304673817341489688445192192"
      ]
    },
    {
      "x": 84,
      "y": 14,
      "size": 1,
      "price": "4683000000000000000000",
      "reserved": "",
      "salt": "0xd0c6e1526525a4874b3a546ba5d170e34ef652ed739cc69f43c42d2081011c78",
      "assetIds": [
        "55464657044963196816950587289035428064568320970692304673817341489688428423171",
        "55464657044963196816950587289035428064568320970692304673817341489688428423168",
        "55464657044963196816950587289035428064568320970692304673817341489688428423169"
      ]
    },
    {
      "x": 84,
      "y": 18,
      "size": 1,
      "price": "1011000000000000000000",
      "reserved": "",
      "salt": "0xc1f87aba155291019c18d51fdb19c4cf07b51c0dae704888cc5f72099f95e0b8",
      "assetIds": []
    },
    {
      "x": 84,
      "y": 19,
      "size": 1,
      "price": "1011000000000000000000",
      "reserved": "",
      "salt": "0xaf6867c1647d649eba49d099687289183bcd570e1d43ed93d65b3dc1ad01bf07",
      "assetIds": []
    },
    {
      "x": 84,
      "y": 20,
      "size": 1,
      "price": "1011000000000000000000",
      "reserved": "",
      "salt": "0xef2d748c99b22e628bfdb6feac3865a49c5827b0c6f3dd6e8a8d60c87866b030",
      "assetIds": []
    },
    {
      "x": 84,
      "y": 21,
      "size": 1,
      "price": "1011000000000000000000",
      "reserved": "",
      "salt": "0xf6a9175f1c7ec0d7cf8d8811db9dea020e471ff7ef75a56885c3e2298010b5b4",
      "assetIds": []
    },
    {
      "x": 85,
      "y": 0,
      "size": 1,
      "price": "1011000000000000000000",
      "reserved": "",
      "salt": "0x888689a793eeafbc86ae344202418c73de2e2b52fecb0af57c683771d8160752",
      "assetIds": []
    },
    {
      "x": 85,
      "y": 1,
      "size": 1,
      "price": "1011000000000000000000",
      "reserved": "",
      "salt": "0x1dc52e4ddc3c3e97a8b06b9d58bae55fe8d980fd9cf2166a956813ba47709d6b",
      "assetIds": []
    },
    {
      "x": 85,
      "y": 2,
      "size": 1,
      "price": "1011000000000000000000",
      "reserved": "",
      "salt": "0xad6bc56ec12bf24a9fc5779f90e1fe10910bcde34ecf12d3c847faec345d68e7",
      "assetIds": []
    },
    {
      "x": 85,
      "y": 3,
      "size": 1,
      "price": "1011000000000000000000",
      "reserved": "",
      "salt": "0xccd371525dfe99b51bc32ad77ce42d3f772c4e56804e41ed5c7aa1f0c1ee73b2",
      "assetIds": []
    },
    {
      "x": 85,
      "y": 4,
      "size": 1,
      "price": "1011000000000000000000",
      "reserved": "",
      "salt": "0x638d104a4e7b714ab7f9eefb5f752e97689d4dc02eca7f25616ef8abcfb4ae36",
      "assetIds": []
    },
    {
      "x": 85,
      "y": 5,
      "size": 1,
      "price": "1011000000000000000000",
      "reserved": "",
      "salt": "0x938aef1bd7eea105ae0498bb8f8f046cabce68a480607f822188105f2e8ccc94",
      "assetIds": []
    },
    {
      "x": 85,
      "y": 9,
      "size": 1,
      "price": "1011000000000000000000",
      "reserved": "",
      "salt": "0x18e5f202d6ce844fa7a7f1a2fb164c9e6ed0b4318b851391927c2839029e150a",
      "assetIds": []
    },
    {
      "x": 85,
      "y": 10,
      "size": 1,
      "price": "1011000000000000000000",
      "reserved": "",
      "salt": "0x37d9a77f859cb18a8e26b07049f03f28731e0bfc41b2a55b3033390b87ea4d61",
      "assetIds": []
    },
    {
      "x": 85,
      "y": 11,
      "size": 1,
      "price": "1011000000000000000000",
      "reserved": "",
      "salt": "0x0f4241ddf115752dd2f6db54775e9598d85cb7998d34d3b74db857f70dcf06a7",
      "assetIds": []
    },
    {
      "x": 85,
      "y": 12,
      "size": 1,
      "price": "1011000000000000000000",
      "reserved": "",
      "salt": "0xdd7bac3d94be79ec19414c68a9b7a4f6905abeb2b8e7bb2c6046d023bb6b4574",
      "assetIds": []
    },
    {
      "x": 85,
      "y": 13,
      "size": 1,
      "price": "1011000000000000000000",
      "reserved": "",
      "salt": "0xcc934d7c78599b831706b8727f79d1fb2f51e8780914de0ddd5737a679e0d71c",
      "assetIds": []
    },
    {
      "x": 85,
      "y": 14,
      "size": 1,
      "price": "1011000000000000000000",
      "reserved": "",
      "salt": "0xeba2f02555f047dc9cc37e1984fd0273416ed10ee7beb25192f1bc422fd73a28",
      "assetIds": []
    },
    {
      "x": 85,
      "y": 18,
      "size": 1,
      "price": "1011000000000000000000",
      "reserved": "",
      "salt": "0x37989e2a39abcd1f4ee8465031da0ccfdd932831f085ae1542ff717be06ca7d2",
      "assetIds": []
    },
    {
      "x": 85,
      "y": 19,
      "size": 1,
      "price": "1011000000000000000000",
      "reserved": "",
      "salt": "0x1fe3edb2e8780125ac356afcfb0a5c4105397484e65250991c3307498e4257ee",
      "assetIds": []
    },
    {
      "x": 85,
      "y": 20,
      "size": 1,
      "price": "1011000000000000000000",
      "reserved": "",
      "salt": "0x065ede3d304dffb0b98746923f8e90f1a96ec820f13f7c39cdca040d90ac5d5c",
      "assetIds": []
    },
    {
      "x": 85,
      "y": 21,
      "size": 1,
      "price": "1011000000000000000000",
      "reserved": "",
      "salt": "0x01f40ad032d37611fe7391ebb7b0ea2b9ed6c6d855f6f1fd56f054103485a923",
      "assetIds": []
    },
    {
      "x": 86,
      "y": 0,
      "size": 1,
      "price": "1011000000000000000000",
      "reserved": "",
      "salt": "0xf139dfc44c5ecb804d9f4c3191291424997870d704c5c453f3fa9bbb3f66a4d3",
      "assetIds": []
    },
    {
      "x": 86,
      "y": 1,
      "size": 1,
      "price": "1011000000000000000000",
      "reserved": "",
      "salt": "0xae1340fb73d6a07c5f3cb12b03795cde2bc77251ca91e4a9bc3c8495d878ee11",
      "assetIds": []
    },
    {
      "x": 86,
      "y": 2,
      "size": 1,
      "price": "1011000000000000000000",
      "reserved": "",
      "salt": "0xf4f00636c42e633462076045b6d97f297d70c6e55ab2c3d8ebded4c996212ab6",
      "assetIds": []
    },
    {
      "x": 86,
      "y": 3,
      "size": 1,
      "price": "1011000000000000000000",
      "reserved": "",
      "salt": "0xefd7a0228f49e0e7960cd268afff0fb25a16e20ac957fd8953a9e73e4fec4baf",
      "assetIds": []
    },
    {
      "x": 86,
      "y": 4,
      "size": 1,
      "price": "1011000000000000000000",
      "reserved": "",
      "salt": "0xce46c9908b77da4ddf676e51cfdfb7cee5454cd7fb17c83ba4fd16f2c7f1afeb",
      "assetIds": []
    },
    {
      "x": 86,
      "y": 5,
      "size": 1,
      "price": "1011000000000000000000",
      "reserved": "",
      "salt": "0xfb320666a0f010316a87d5d31dc890bb03cbd52a6147956bd8b7de98cbca3681",
      "assetIds": []
    },
    {
      "x": 86,
      "y": 9,
      "size": 1,
      "price": "1011000000000000000000",
      "reserved": "",
      "salt": "0xc9b47f24f7c592ed64faa26284f77a49eee5a579db85c964da52c26aef3d26a5",
      "assetIds": []
    },
    {
      "x": 86,
      "y": 10,
      "size": 1,
      "price": "1011000000000000000000",
      "reserved": "",
      "salt": "0x0aef196b65502305e4e440591c283113341cff658cfa44280661602be7331277",
      "assetIds": []
    },
    {
      "x": 86,
      "y": 11,
      "size": 1,
      "price": "1011000000000000000000",
      "reserved": "",
      "salt": "0xb237340d2897b2f38a962d918c5f3c5a9668cb8f9e18f12392e588dcdf95e37a",
      "assetIds": []
    },
    {
      "x": 86,
      "y": 12,
      "size": 1,
      "price": "1011000000000000000000",
      "reserved": "",
      "salt": "0x5d19de672215c6f3be9c9ef30d32b180b7604bea821cdb3999910234c09c1c38",
      "assetIds": []
    },
    {
      "x": 86,
      "y": 13,
      "size": 1,
      "price": "1011000000000000000000",
      "reserved": "",
      "salt": "0x5273751f79bc9460cfe296970a664623c4c0134c982487a640a0e139a2135376",
      "assetIds": []
    },
    {
      "x": 86,
      "y": 14,
      "size": 1,
      "price": "1011000000000000000000",
      "reserved": "",
      "salt": "0xa2ab366de42420c8cd6f83c6a392101751db6748f471ce2dd4d064842d6965ba",
      "assetIds": []
    },
    {
      "x": 86,
      "y": 18,
      "size": 1,
      "price": "4683000000000000000000",
      "reserved": "",
      "salt": "0x5eae67e4cf0d18a8118d74c72806d720235cf9511184c916b83faea502a2c86e",
      "assetIds": [
        "55464657044963196816950587289035428064568320970692304673817341489688428423171",
        "55464657044963196816950587289035428064568320970692304673817341489688428423168",
        "55464657044963196816950587289035428064568320970692304673817341489688428423169"
      ]
    },
    {
      "x": 86,
      "y": 19,
      "size": 1,
      "price": "4683000000000000000000",
      "reserved": "",
      "salt": "0x6cd19cba1f14f9322e41f6ec8f291385fe9c0085b4c292cecb47bc92c779614e",
      "assetIds": [
        "55464657044963196816950587289035428064568320970692304673817341489688428423170",
        "55464657044963196816950587289035428064568320970692304673817341489688428423168",
        "55464657044963196816950587289035428064568320970692304673817341489688445192192"
      ]
    },
    {
      "x": 86,
      "y": 20,
      "size": 1,
      "price": "4683000000000000000000",
      "reserved": "",
      "salt": "0x1ec97ad47d831309581556232425c86099aec0b7f7575654e2a2f00c1b16a771",
      "assetIds": [
        "55464657044963196816950587289035428064568320970692304673817341489688428423171",
        "55464657044963196816950587289035428064568320970692304673817341489688428423168",
        "55464657044963196816950587289035428064568320970692304673817341489688428423169"
      ]
    },
    {
      "x": 86,
      "y": 21,
      "size": 1,
      "price": "1011000000000000000000",
      "reserved": "",
      "salt": "0x755dfee92e496f2fbae8401c3aa46c54f4dba8dbd06b0914177fbcd7d192aafe",
      "assetIds": []
    },
    {
      "x": 87,
      "y": 3,
      "size": 1,
      "price": "1011000000000000000000",
      "reserved": "",
      "salt": "0x81a193128874178e282aaedad1cfd6ef8ecc6dd8de89abeb7d9c6f25f7e98f88",
      "assetIds": []
    },
    {
      "x": 87,
      "y": 4,
      "size": 1,
      "price": "1011000000000000000000",
      "reserved": "",
      "salt": "0xb16c524d7b96b7f5412e00d16fc9fafab71865e8c9711493b3291a2a1d53aa90",
      "assetIds": []
    },
    {
      "x": 87,
      "y": 5,
      "size": 1,
      "price": "1011000000000000000000",
      "reserved": "",
      "salt": "0xd6aa7221cc6efe208f75060dff1bfe9c55276356c9d23b0ab4558f7db3144a0e",
      "assetIds": []
    },
    {
      "x": 87,
      "y": 6,
      "size": 1,
      "price": "1011000000000000000000",
      "reserved": "",
      "salt": "0xa3906069438c1b1404035e9d403d34871de8170fe64658e4220e1b38ca60cf57",
      "assetIds": []
    },
    {
      "x": 87,
      "y": 7,
      "size": 1,
      "price": "1011000000000000000000",
      "reserved": "",
      "salt": "0xeebf2c9ce79b9be8b19d4a8009c137cc50c8b7660ed7176d213edf831b6a71ee",
      "assetIds": []
    },
    {
      "x": 87,
      "y": 8,
      "size": 1,
      "price": "1011000000000000000000",
      "reserved": "",
      "salt": "0xffd526bb296e261db9fec268d91d553dca1bc032b348fd863da0cb2017efcc37",
      "assetIds": []
    },
    {
      "x": 87,
      "y": 12,
      "size": 1,
      "price": "1011000000000000000000",
      "reserved": "",
      "salt": "0x8cb0ce21cfc3719d3bdf9c7115b9d864eddc4fa38fdf7f68734b32f6d16e25a8",
      "assetIds": []
    },
    {
      "x": 87,
      "y": 13,
      "size": 1,
      "price": "1011000000000000000000",
      "reserved": "",
      "salt": "0x6106ce40d818c51dd06b92034cd69d45ea1c261c0c2cefc3836bdb7e36a96bf0",
      "assetIds": []
    },
    {
      "x": 87,
      "y": 14,
      "size": 1,
      "price": "1011000000000000000000",
      "reserved": "",
      "salt": "0x1467d958901ed60663bad86022116f070a6343fc2023aaffb4d189417da2c1fd",
      "assetIds": []
    },
    {
      "x": 87,
      "y": 15,
      "size": 1,
      "price": "1011000000000000000000",
      "reserved": "",
      "salt": "0xd1539d2774ed54f4c12ebb2ec1e7632e7f91c7b70b1379af9d2ed05f89cfae4e",
      "assetIds": []
    },
    {
      "x": 87,
      "y": 16,
      "size": 1,
      "price": "1011000000000000000000",
      "reserved": "",
      "salt": "0x9673d8680e07b159997ce2303a8e7a15f3202f9848b57c7716b3e77b7e7911e1",
      "assetIds": []
    },
    {
      "x": 87,
      "y": 17,
      "size": 1,
      "price": "4683000000000000000000",
      "reserved": "",
      "salt": "0x3ba3e01606b0c0b8b6a7fccba30027991146c9171099cb9c52d06f15965c9d2d",
      "assetIds": [
        "55464657044963196816950587289035428064568320970692304673817341489688428423170",
        "55464657044963196816950587289035428064568320970692304673817341489688428423168",
        "55464657044963196816950587289035428064568320970692304673817341489688445192192"
      ]
    },
    {
      "x": 87,
      "y": 21,
      "size": 1,
      "price": "4683000000000000000000",
      "reserved": "",
      "salt": "0x264b3fea4d1d9cf8355da40a1665962ce8ca33dc2e4ca81f7bee862b7760ef91",
      "assetIds": [
        "55464657044963196816950587289035428064568320970692304673817341489688428423171",
        "55464657044963196816950587289035428064568320970692304673817341489688428423168",
        "55464657044963196816950587289035428064568320970692304673817341489688428423169"
      ]
    },
    {
      "x": 88,
      "y": 3,
      "size": 1,
      "price": "1011000000000000000000",
      "reserved": "",
      "salt": "0x19c38a9069a33fb7c957ea3fcf7aa59565b91817af5fa257f1a5359b5d9ffe8e",
      "assetIds": []
    },
    {
      "x": 88,
      "y": 4,
      "size": 1,
      "price": "1011000000000000000000",
      "reserved": "",
      "salt": "0x9ba5a9cbed5b1dd002f9d1a7deb43e3b84aa69cfb5c820a6500e21a0c93b5eaf",
      "assetIds": []
    },
    {
      "x": 88,
      "y": 5,
      "size": 1,
      "price": "1011000000000000000000",
      "reserved": "",
      "salt": "0xf24f5581591f8b7ae9b501d21d1b490df6cdaf36924e5104345d017aa2e20616",
      "assetIds": []
    },
    {
      "x": 88,
      "y": 6,
      "size": 1,
      "price": "1011000000000000000000",
      "reserved": "",
      "salt": "0x383e749fbeab526a957063764d62ffd82b57b1f61075d63a8d3aeba8f640c643",
      "assetIds": []
    },
    {
      "x": 88,
      "y": 7,
      "size": 1,
      "price": "1011000000000000000000",
      "reserved": "",
      "salt": "0xa56f218e54b0b23e4682bdb91671dedcff2a489929f0ea151048e80504d52909",
      "assetIds": []
    },
    {
      "x": 88,
      "y": 8,
      "size": 1,
      "price": "1011000000000000000000",
      "reserved": "",
      "salt": "0xb43f8fd531c94a33a503413f91a3917b5a95b6e380e1b56e43b23f5e3aa9d59d",
      "assetIds": []
    },
    {
      "x": 88,
      "y": 12,
      "size": 1,
      "price": "1011000000000000000000",
      "reserved": "",
      "salt": "0xbfba0687a9db2cc892073197e515f43c8433297e493ce29dbc3a335b582cbfe2",
      "assetIds": []
    },
    {
      "x": 88,
      "y": 13,
      "size": 1,
      "price": "1011000000000000000000",
      "reserved": "",
      "salt": "0x12253f0bd77f7a1392667f601cc6e67de0a09c5c49a199a7ec98a66cbfc24d55",
      "assetIds": []
    },
    {
      "x": 88,
      "y": 14,
      "size": 1,
      "price": "1011000000000000000000",
      "reserved": "",
      "salt": "0xd98b449f2b632f279d62ce5eb234430b25edc67fa34ce086ad6d16e4ef73a0b6",
      "assetIds": []
    },
    {
      "x": 88,
      "y": 15,
      "size": 1,
      "price": "1011000000000000000000",
      "reserved": "",
      "salt": "0x7a9877c08e4b331dc75fc4da8d2710efba594c2d7722eddfc75453690f26a0e9",
      "assetIds": []
    },
    {
      "x": 88,
      "y": 16,
      "size": 1,
      "price": "1011000000000000000000",
      "reserved": "",
      "salt": "0xa3913812801fb2d43dcc0441353ac9c1f03017998c8e81baac734cb9f84a20a0",
      "assetIds": []
    },
    {
      "x": 88,
      "y": 17,
      "size": 1,
      "price": "4683000000000000000000",
      "reserved": "",
      "salt": "0x5ecd4b7b4479f633dcda52cd6d6ad16228c89a7de52684e85faffe38b4b1431a",
      "assetIds": [
        "55464657044963196816950587289035428064568320970692304673817341489688428423170",
        "55464657044963196816950587289035428064568320970692304673817341489688428423168",
        "55464657044963196816950587289035428064568320970692304673817341489688445192192"
      ]
    },
    {
      "x": 88,
      "y": 21,
      "size": 1,
      "price": "4683000000000000000000",
      "reserved": "",
      "salt": "0x646617271769840fc884c6e49134c2db5fe1b9bfad5c1c1809bd4f6ceaaee122",
      "assetIds": [
        "55464657044963196816950587289035428064568320970692304673817341489688428423171",
        "55464657044963196816950587289035428064568320970692304673817341489688428423168",
        "55464657044963196816950587289035428064568320970692304673817341489688428423169"
      ]
    },
    {
      "x": 89,
      "y": 3,
      "size": 1,
      "price": "4683000000000000000000",
      "reserved": "",
      "salt": "0x58ee15dfb7d2dfcfadbc1db102284123d040a17efb26d8a4545190deb278a342",
      "assetIds": [
        "55464657044963196816950587289035428064568320970692304673817341489688428423170",
        "55464657044963196816950587289035428064568320970692304673817341489688428423168",
        "55464657044963196816950587289035428064568320970692304673817341489688445192192"
      ]
    },
    {
      "x": 89,
      "y": 4,
      "size": 1,
      "price": "4683000000000000000000",
      "reserved": "",
      "salt": "0xa1797297f18b59f917af7658df8c18ca6b41e772cbfc60dd4c1ee629bc3211bf",
      "assetIds": [
        "55464657044963196816950587289035428064568320970692304673817341489688428423171",
        "55464657044963196816950587289035428064568320970692304673817341489688428423168",
        "55464657044963196816950587289035428064568320970692304673817341489688428423169"
      ]
    },
    {
      "x": 89,
      "y": 5,
      "size": 1,
      "price": "4683000000000000000000",
      "reserved": "",
      "salt": "0xec1511ca5768be28e0c872010408882fa99d72cdb7a2a551ceed307686eff5e4",
      "assetIds": [
        "55464657044963196816950587289035428064568320970692304673817341489688428423171",
        "55464657044963196816950587289035428064568320970692304673817341489688428423168",
        "55464657044963196816950587289035428064568320970692304673817341489688428423169"
      ]
    },
    {
      "x": 89,
      "y": 6,
      "size": 1,
      "price": "1011000000000000000000",
      "reserved": "",
      "salt": "0x8763abf5eef0ddd266121a15ec723fd137818ea5ff0bc54c0c74b57b02f1e17f",
      "assetIds": []
    },
    {
      "x": 89,
      "y": 7,
      "size": 1,
      "price": "1011000000000000000000",
      "reserved": "",
      "salt": "0x38a3505fdc9f0c3fee5d35f391790aa1dc35356d7a9ec91f648d3feed9e86103",
      "assetIds": []
    },
    {
      "x": 89,
      "y": 8,
      "size": 1,
      "price": "1011000000000000000000",
      "reserved": "",
      "salt": "0x8a307bd893890744296805345652c87c872be7bfda66114272c8ba683dbf92b0",
      "assetIds": []
    },
    {
      "x": 89,
      "y": 12,
      "size": 1,
      "price": "4683000000000000000000",
      "reserved": "",
      "salt": "0x4172be8b11b4097c234bdfbab2bec1b4dd36bb8422e324d52fddaf1556a388ec",
      "assetIds": [
        "55464657044963196816950587289035428064568320970692304673817341489688428423171",
        "55464657044963196816950587289035428064568320970692304673817341489688428423168",
        "55464657044963196816950587289035428064568320970692304673817341489688428423169"
      ]
    },
    {
      "x": 89,
      "y": 13,
      "size": 1,
      "price": "4683000000000000000000",
      "reserved": "",
      "salt": "0x7e90fff60551e7df30b49bf2c72161812feca963ff1d3739bc6ecb1b58c10f1a",
      "assetIds": [
        "55464657044963196816950587289035428064568320970692304673817341489688428423171",
        "55464657044963196816950587289035428064568320970692304673817341489688428423168",
        "55464657044963196816950587289035428064568320970692304673817341489688428423169"
      ]
    },
    {
      "x": 89,
      "y": 14,
      "size": 1,
      "price": "4683000000000000000000",
      "reserved": "",
      "salt": "0x7141fd1bd5d18a07974b81063e9d15d52c14ed978fe866e78dee578b527c533b",
      "assetIds": [
        "55464657044963196816950587289035428064568320970692304673817341489688428423171",
        "55464657044963196816950587289035428064568320970692304673817341489688428423168",
        "55464657044963196816950587289035428064568320970692304673817341489688428423169"
      ]
    },
    {
      "x": 89,
      "y": 15,
      "size": 1,
      "price": "4683000000000000000000",
      "reserved": "",
      "salt": "0x756e64c70b54637a8d07a3146d1e26937ae75a1d8e3579da5ac14b80c0d4e214",
      "assetIds": [
        "55464657044963196816950587289035428064568320970692304673817341489688428423170",
        "55464657044963196816950587289035428064568320970692304673817341489688428423168",
        "55464657044963196816950587289035428064568320970692304673817341489688445192192"
      ]
    },
    {
      "x": 89,
      "y": 16,
      "size": 1,
      "price": "4683000000000000000000",
      "reserved": "",
      "salt": "0xba8d9b4386ba9c029365efc1c2814a62a68c1cc89d79d17b1852f320e7ac6768",
      "assetIds": [
        "55464657044963196816950587289035428064568320970692304673817341489688428423171",
        "55464657044963196816950587289035428064568320970692304673817341489688428423168",
        "55464657044963196816950587289035428064568320970692304673817341489688428423169"
      ]
    },
    {
      "x": 89,
      "y": 17,
      "size": 1,
      "price": "4683000000000000000000",
      "reserved": "",
      "salt": "0x4c214f71b22a535387e1908230793cebb6f5f798e2caeac9b6a5c008ae4b0071",
      "assetIds": [
        "55464657044963196816950587289035428064568320970692304673817341489688428423171",
        "55464657044963196816950587289035428064568320970692304673817341489688428423168",
        "55464657044963196816950587289035428064568320970692304673817341489688428423169"
      ]
    },
    {
      "x": 89,
      "y": 21,
      "size": 1,
      "price": "4683000000000000000000",
      "reserved": "",
      "salt": "0x797dd01e5166d92601f09f2b3c28e3eb3ca68299c7e5ca13caeb0994f3e010bd",
      "assetIds": [
        "55464657044963196816950587289035428064568320970692304673817341489688428423170",
        "55464657044963196816950587289035428064568320970692304673817341489688428423168",
        "55464657044963196816950587289035428064568320970692304673817341489688445192192"
      ]
    },
    {
      "x": 90,
      "y": 6,
      "size": 1,
      "price": "4683000000000000000000",
      "reserved": "",
      "salt": "0x68c3d425e9889ae06bbd62df847c05ea12f30c80058d688444dd7b8ccede0461",
      "assetIds": [
        "55464657044963196816950587289035428064568320970692304673817341489688428423170",
        "55464657044963196816950587289035428064568320970692304673817341489688428423168",
        "55464657044963196816950587289035428064568320970692304673817341489688445192192"
      ]
    },
    {
      "x": 90,
      "y": 7,
      "size": 1,
      "price": "1011000000000000000000",
      "reserved": "",
      "salt": "0xec620f4f4bdd4f7e6e2f5760eafca817b2f92c9d8ce64aabdaecd4eee3b3c70a",
      "assetIds": []
    },
    {
      "x": 90,
      "y": 8,
      "size": 1,
      "price": "1011000000000000000000",
      "reserved": "",
      "salt": "0xb9a3e7521f912fe74cbb3f5578b97562801e4194dfa65d9eb365b2460258966b",
      "assetIds": []
    },
    {
      "x": 90,
      "y": 9,
      "size": 1,
      "price": "1011000000000000000000",
      "reserved": "",
      "salt": "0xd1b5922744f5d09ce8fe2c72f65579886f70854277ce91308145563702e07b43",
      "assetIds": []
    },
    {
      "x": 90,
      "y": 10,
      "size": 1,
      "price": "1011000000000000000000",
      "reserved": "",
      "salt": "0xc7805b4e04fff032b5f5f5cc4ca35f83b33e8e5db91bd1808e56c22ea0c07597",
      "assetIds": []
    },
    {
      "x": 90,
      "y": 11,
      "size": 1,
      "price": "4683000000000000000000",
      "reserved": "",
      "salt": "0xf8dcc5d5bf9c63ee2addc3c7189eabfed50e0f4f88a780552e80cb8913d7e772",
      "assetIds": [
        "55464657044963196816950587289035428064568320970692304673817341489688428423170",
        "55464657044963196816950587289035428064568320970692304673817341489688428423168",
        "55464657044963196816950587289035428064568320970692304673817341489688445192192"
      ]
    },
    {
      "x": 90,
      "y": 18,
      "size": 1,
      "price": "4683000000000000000000",
      "reserved": "",
      "salt": "0x095dfea0c5b4861d9dfd6333fc839725b9201bf28bc4e897a267c0baabde1ac2",
      "assetIds": [
        "55464657044963196816950587289035428064568320970692304673817341489688428423170",
        "55464657044963196816950587289035428064568320970692304673817341489688428423168",
        "55464657044963196816950587289035428064568320970692304673817341489688445192192"
      ]
    },
    {
      "x": 90,
      "y": 19,
      "size": 1,
      "price": "4683000000000000000000",
      "reserved": "",
      "salt": "0x14dc276c96c818678570741ea44b12f35e392466a2a838b73340aad0a96d46e6",
      "assetIds": [
        "55464657044963196816950587289035428064568320970692304673817341489688428423170",
        "55464657044963196816950587289035428064568320970692304673817341489688428423168",
        "55464657044963196816950587289035428064568320970692304673817341489688445192192"
      ]
    },
    {
      "x": 90,
      "y": 20,
      "size": 1,
      "price": "4683000000000000000000",
      "reserved": "",
      "salt": "0x205d4d10544a685ca67780e5ff473ade1145d9f7cbb7f860a796d6eee611919b",
      "assetIds": [
        "55464657044963196816950587289035428064568320970692304673817341489688428423171",
        "55464657044963196816950587289035428064568320970692304673817341489688428423168",
        "55464657044963196816950587289035428064568320970692304673817341489688428423169"
      ]
    },
    {
      "x": 90,
      "y": 21,
      "size": 1,
      "price": "1011000000000000000000",
      "reserved": "",
      "salt": "0x597ff06a5292197e0c8642589b67968972d70f5ab99b6f7fdbfb41ee538c1cac",
      "assetIds": []
    },
    {
      "x": 91,
      "y": 6,
      "size": 1,
      "price": "4683000000000000000000",
      "reserved": "",
      "salt": "0xd1522d89158f5c9eab0f83efd480b810843aecfad6f644a3a1ff8d1c65fc9577",
      "assetIds": [
        "55464657044963196816950587289035428064568320970692304673817341489688428423170",
        "55464657044963196816950587289035428064568320970692304673817341489688428423168",
        "55464657044963196816950587289035428064568320970692304673817341489688445192192"
      ]
    },
    {
      "x": 91,
      "y": 7,
      "size": 1,
      "price": "1011000000000000000000",
      "reserved": "",
      "salt": "0x9869ce1b492d286847ca91c632160de76d186c875b81def59516f4b852b1369e",
      "assetIds": []
    },
    {
      "x": 91,
      "y": 8,
      "size": 1,
      "price": "1011000000000000000000",
      "reserved": "",
      "salt": "0xb7b024519645403aa6fd5e3cbebc50a92b675e0e0e3f6260d69658f3ab500c6c",
      "assetIds": []
    },
    {
      "x": 91,
      "y": 9,
      "size": 1,
      "price": "1011000000000000000000",
      "reserved": "",
      "salt": "0xd2a53c9283127ff0e26ff549516b4a698a21f4cf10b38c52588132586c690aef",
      "assetIds": []
    },
    {
      "x": 91,
      "y": 10,
      "size": 1,
      "price": "1011000000000000000000",
      "reserved": "",
      "salt": "0xa1961788070333617a07bbe28827d264bda03d1f00a82424fe4a17061832a274",
      "assetIds": []
    },
    {
      "x": 91,
      "y": 11,
      "size": 1,
      "price": "4683000000000000000000",
      "reserved": "",
      "salt": "0x510e19f9bbf427726c9624d05d7db9bbc8fd30082c8607626c9aa06073d5ddcd",
      "assetIds": [
        "55464657044963196816950587289035428064568320970692304673817341489688428423171",
        "55464657044963196816950587289035428064568320970692304673817341489688428423168",
        "55464657044963196816950587289035428064568320970692304673817341489688428423169"
      ]
    },
    {
      "x": 91,
      "y": 18,
      "size": 1,
      "price": "1011000000000000000000",
      "reserved": "",
      "salt": "0x1bcd3e8ea232d8c3fa55e2b66766bc56c8372893218fb532d3feeb2b6ace47fb",
      "assetIds": []
    },
    {
      "x": 91,
      "y": 19,
      "size": 1,
      "price": "1011000000000000000000",
      "reserved": "",
      "salt": "0x70228d50e101eba44901a851d4a03f2a6b4bb8bca43fb2de3e3e787d24e7b7bc",
      "assetIds": []
    },
    {
      "x": 91,
      "y": 20,
      "size": 1,
      "price": "1011000000000000000000",
      "reserved": "",
      "salt": "0xbec4cf2cc54195a9c3824e05ab20fe50f6dd0a9f40d78718c1fb2989c67e7cc5",
      "assetIds": []
    },
    {
      "x": 91,
      "y": 21,
      "size": 1,
      "price": "1011000000000000000000",
      "reserved": "",
      "salt": "0x3349bb4e8b98908841e1065cf13c104ef27e93c87cf91cd580dfdb13700c8b8a",
      "assetIds": []
    },
    {
      "x": 92,
      "y": 6,
      "size": 1,
      "price": "4683000000000000000000",
      "reserved": "",
      "salt": "0x864c33ddf5d2e4dc741580e340fa88f71c0bb17dfce35e5769722148ef235418",
      "assetIds": [
        "55464657044963196816950587289035428064568320970692304673817341489688428423170",
        "55464657044963196816950587289035428064568320970692304673817341489688428423168",
        "55464657044963196816950587289035428064568320970692304673817341489688445192192"
      ]
    },
    {
      "x": 92,
      "y": 7,
      "size": 1,
      "price": "1011000000000000000000",
      "reserved": "",
      "salt": "0xe015063876b6f59776670c52c7be71642bccef23da33b9bbd34b2d66cd4c2f56",
      "assetIds": []
    },
    {
      "x": 92,
      "y": 8,
      "size": 1,
      "price": "1011000000000000000000",
      "reserved": "",
      "salt": "0xc419725b635df9043f724822df675203cdf31957d31a8ae243394def0a840646",
      "assetIds": []
    },
    {
      "x": 92,
      "y": 9,
      "size": 1,
      "price": "1011000000000000000000",
      "reserved": "",
      "salt": "0xbbbb82d2e2f4673ef22fc1c66a217cb22b7e0915d242dda8c1e2de3c2e74944a",
      "assetIds": []
    },
    {
      "x": 92,
      "y": 10,
      "size": 1,
      "price": "1011000000000000000000",
      "reserved": "",
      "salt": "0x1aab3350497fcd7226834faeef056f2a06a261a24fce5629481c57612a3ae14f",
      "assetIds": []
    },
    {
      "x": 92,
      "y": 11,
      "size": 1,
      "price": "4683000000000000000000",
      "reserved": "",
      "salt": "0x6fb857879e50181fb3ac7c2f9f80106aa4833e659e72c697f0c22250bc5242ed",
      "assetIds": [
        "55464657044963196816950587289035428064568320970692304673817341489688428423171",
        "55464657044963196816950587289035428064568320970692304673817341489688428423168",
        "55464657044963196816950587289035428064568320970692304673817341489688428423169"
      ]
    },
    {
      "x": 92,
      "y": 18,
      "size": 1,
      "price": "1011000000000000000000",
      "reserved": "",
      "salt": "0xcd28ebce08465d0f6fef8ab5968a5c0fafdfea75fdb81712efe5d76fc20f4049",
      "assetIds": []
    },
    {
      "x": 92,
      "y": 19,
      "size": 1,
      "price": "1011000000000000000000",
      "reserved": "",
      "salt": "0x62ab4add966d2d5fa170617db49fb8138f4aca66beacbbddcc418e02ca4287dd",
      "assetIds": []
    },
    {
      "x": 92,
      "y": 20,
      "size": 1,
      "price": "1011000000000000000000",
      "reserved": "",
      "salt": "0x423a35f98806c4532b66f8dbbfef1d4cdcfbd4c01df51bda010b1490feea23ab",
      "assetIds": []
    },
    {
      "x": 92,
      "y": 21,
      "size": 1,
      "price": "1011000000000000000000",
      "reserved": "",
      "salt": "0x783a1f9e5bc4f66c42256aab4fde52ed55d51e72337daccb4987adc2728040c0",
      "assetIds": []
    },
    {
      "x": 93,
      "y": 6,
      "size": 1,
      "price": "4683000000000000000000",
      "reserved": "",
      "salt": "0x7c872b14c7da23795e92736e36dfbc873202c18568cdd49c60c4a9362378d069",
      "assetIds": [
        "55464657044963196816950587289035428064568320970692304673817341489688428423171",
        "55464657044963196816950587289035428064568320970692304673817341489688428423168",
        "55464657044963196816950587289035428064568320970692304673817341489688428423169"
      ]
    },
    {
      "x": 93,
      "y": 7,
      "size": 1,
      "price": "1011000000000000000000",
      "reserved": "",
      "salt": "0x1c932ecf0209d000c9508f979c61c284b3b0aa9dbc8e3ba9d1bfe0ba944c45db",
      "assetIds": []
    },
    {
      "x": 93,
      "y": 8,
      "size": 1,
      "price": "1011000000000000000000",
      "reserved": "",
      "salt": "0x23eeb92a16489c2536522a25bc959637f265132ff2732e214228e4e4fdd0b5d8",
      "assetIds": []
    },
    {
      "x": 93,
      "y": 9,
      "size": 1,
      "price": "1011000000000000000000",
      "reserved": "",
      "salt": "0x75ed2ac0f8a36b4f665705eaeb1ba2be10c3e490c6022e848e44ce3240a924fa",
      "assetIds": []
    },
    {
      "x": 93,
      "y": 10,
      "size": 1,
      "price": "1011000000000000000000",
      "reserved": "",
      "salt": "0x950b1765364a7977ab6ea927651a1d646e8fe1f49c5048c51b20ef283eaa783f",
      "assetIds": []
    },
    {
      "x": 93,
      "y": 11,
      "size": 1,
      "price": "4683000000000000000000",
      "reserved": "",
      "salt": "0xf2240baaedfa151d42b301fcd4ced88aea5cd5155ee1f9a0fe624ac8f0e5cfcb",
      "assetIds": [
        "55464657044963196816950587289035428064568320970692304673817341489688428423171",
        "55464657044963196816950587289035428064568320970692304673817341489688428423168",
        "55464657044963196816950587289035428064568320970692304673817341489688428423169"
      ]
    },
    {
      "x": 93,
      "y": 18,
      "size": 1,
      "price": "1011000000000000000000",
      "reserved": "",
      "salt": "0x9d6414ce888c49763110fbfbe8679e386a6dd7021ca667d398edca875861de6a",
      "assetIds": []
    },
    {
      "x": 93,
      "y": 19,
      "size": 1,
      "price": "1011000000000000000000",
      "reserved": "",
      "salt": "0x4b92953de87496e7382207b5af303c04e4d328a22a974d609a234703ba3bb7b3",
      "assetIds": []
    },
    {
      "x": 93,
      "y": 20,
      "size": 1,
      "price": "1011000000000000000000",
      "reserved": "",
      "salt": "0x0407603b9d11c6bc64131139f9cbda76fd0e742c3d5bf177a47155cafb3ca13a",
      "assetIds": []
    },
    {
      "x": 93,
      "y": 21,
      "size": 1,
      "price": "1011000000000000000000",
      "reserved": "",
      "salt": "0x7ffe0049330d4aba3c736b1cdc1750cd7e433a92705faa74433fda40aaf36a3e",
      "assetIds": []
    },
    {
      "x": 94,
      "y": 6,
      "size": 1,
      "price": "4683000000000000000000",
      "reserved": "",
      "salt": "0x4165b2ab47865a816ed53f47e0e14bc3a15e4d45209c52cca43af1c5e640a7c2",
      "assetIds": [
        "55464657044963196816950587289035428064568320970692304673817341489688428423171",
        "55464657044963196816950587289035428064568320970692304673817341489688428423168",
        "55464657044963196816950587289035428064568320970692304673817341489688428423169"
      ]
    },
    {
      "x": 94,
      "y": 7,
      "size": 1,
      "price": "1011000000000000000000",
      "reserved": "",
      "salt": "0xc61744bcc9e9782b502300782969bd1360611c12ee7be98879ea6f5e86f1bced",
      "assetIds": []
    },
    {
      "x": 94,
      "y": 8,
      "size": 1,
      "price": "1011000000000000000000",
      "reserved": "",
      "salt": "0xf772b646bcc12084174640f8e310331402210f08d1de8123e0bfe0f3d613d158",
      "assetIds": []
    },
    {
      "x": 94,
      "y": 9,
      "size": 1,
      "price": "1011000000000000000000",
      "reserved": "",
      "salt": "0x8cebd84fa2ed16202b6774f2817210c07b6d8fe794e9d121410418413dcf1299",
      "assetIds": []
    },
    {
      "x": 94,
      "y": 10,
      "size": 1,
      "price": "1011000000000000000000",
      "reserved": "",
      "salt": "0xa26b2c6dc161392a692183b06057dd8a53ad6c6a9747197296b8c221b0166771",
      "assetIds": []
    },
    {
      "x": 94,
      "y": 11,
      "size": 1,
      "price": "4683000000000000000000",
      "reserved": "",
      "salt": "0x6fefffceb83e961b4d45363dfb89195d62d12632d807e975353d79cc3bd31672",
      "assetIds": [
        "55464657044963196816950587289035428064568320970692304673817341489688428423171",
        "55464657044963196816950587289035428064568320970692304673817341489688428423168",
        "55464657044963196816950587289035428064568320970692304673817341489688428423169"
      ]
    },
    {
      "x": 94,
      "y": 18,
      "size": 1,
      "price": "1011000000000000000000",
      "reserved": "",
      "salt": "0x09b6ff4a15db5d95e5b3443ea323498f81133b597104f1d2c1c858f51dab4b6c",
      "assetIds": []
    },
    {
      "x": 94,
      "y": 19,
      "size": 1,
      "price": "1011000000000000000000",
      "reserved": "",
      "salt": "0xd500a403044e262fefd5584e67400e4f7bb6faafc7f6d76176098f6541f9fbed",
      "assetIds": []
    },
    {
      "x": 94,
      "y": 20,
      "size": 1,
      "price": "1011000000000000000000",
      "reserved": "",
      "salt": "0x30c7014d6893c2b371250a90dc2731a5060beea6d8e45aedb1e0b8f6a57b21fb",
      "assetIds": []
    },
    {
      "x": 94,
      "y": 21,
      "size": 1,
      "price": "1011000000000000000000",
      "reserved": "",
      "salt": "0xf79918ce904b87cd14c0f7c39f8318a6c52d6fee618d89e3144b6820fd4a1738",
      "assetIds": []
    },
    {
      "x": 95,
      "y": 6,
      "size": 1,
      "price": "4683000000000000000000",
      "reserved": "",
      "salt": "0x3eaf41a681f8696f70d3e2465dea2c5f37675d5d1f838bf7a42c6dd48bdb6039",
      "assetIds": [
        "55464657044963196816950587289035428064568320970692304673817341489688428423171",
        "55464657044963196816950587289035428064568320970692304673817341489688428423168",
        "55464657044963196816950587289035428064568320970692304673817341489688428423169"
      ]
    },
    {
      "x": 95,
      "y": 7,
      "size": 1,
      "price": "1011000000000000000000",
      "reserved": "",
      "salt": "0xbc6cbe241f0156c727763523eccac0cff7e31cca8bfaf7dd84c009861b9c15a0",
      "assetIds": []
    },
    {
      "x": 95,
      "y": 8,
      "size": 1,
      "price": "1011000000000000000000",
      "reserved": "",
      "salt": "0x2afda61e0d15cead692ca6ad8f3798b54691e244aa12f6e2cb2678ef09424c6b",
      "assetIds": []
    },
    {
      "x": 95,
      "y": 9,
      "size": 1,
      "price": "1011000000000000000000",
      "reserved": "",
      "salt": "0x34479b74ee4b093eb6b0bfd7ca8f718ffadab16e019e9fc310c635bc76b3d028",
      "assetIds": []
    },
    {
      "x": 95,
      "y": 10,
      "size": 1,
      "price": "1011000000000000000000",
      "reserved": "",
      "salt": "0x28716cb1e3873a75764f28a781379b69137d663ea0c4f395a45035c1084ba607",
      "assetIds": []
    },
    {
      "x": 95,
      "y": 11,
      "size": 1,
      "price": "4683000000000000000000",
      "reserved": "",
      "salt": "0xc77fe03a72265301c6039fb632b4f19048282b7f55e0a84a106b38a2dc62cdf0",
      "assetIds": [
        "55464657044963196816950587289035428064568320970692304673817341489688428423171",
        "55464657044963196816950587289035428064568320970692304673817341489688428423168",
        "55464657044963196816950587289035428064568320970692304673817341489688428423169"
      ]
    },
    {
      "x": 95,
      "y": 18,
      "size": 1,
      "price": "4683000000000000000000",
      "reserved": "",
      "salt": "0x1f5dddb96a449a769d0ddaae824468ddff5055f90ffb3cbdcff5265e8ad6e733",
      "assetIds": [
        "55464657044963196816950587289035428064568320970692304673817341489688428423171",
        "55464657044963196816950587289035428064568320970692304673817341489688428423168",
        "55464657044963196816950587289035428064568320970692304673817341489688428423169"
      ]
    },
    {
      "x": 95,
      "y": 19,
      "size": 1,
      "price": "4683000000000000000000",
      "reserved": "",
      "salt": "0xd0a97a630c78908ad6498aca6641922f61280580f086ae2afa231aed176c4d1e",
      "assetIds": [
        "55464657044963196816950587289035428064568320970692304673817341489688428423170",
        "55464657044963196816950587289035428064568320970692304673817341489688428423168",
        "55464657044963196816950587289035428064568320970692304673817341489688445192192"
      ]
    },
    {
      "x": 95,
      "y": 20,
      "size": 1,
      "price": "4683000000000000000000",
      "reserved": "",
      "salt": "0x8c0ee357a792bd50d3dcb26fe5b080eff91a8af991e26186ce7ad32bd7827485",
      "assetIds": [
        "55464657044963196816950587289035428064568320970692304673817341489688428423170",
        "55464657044963196816950587289035428064568320970692304673817341489688428423168",
        "55464657044963196816950587289035428064568320970692304673817341489688445192192"
      ]
    },
    {
      "x": 95,
      "y": 21,
      "size": 1,
      "price": "1011000000000000000000",
      "reserved": "",
      "salt": "0xff890267e89b5bd2bda5610a5dc2ffaa32c598b1afe83f0952272da34a2f6169",
      "assetIds": []
    },
    {
      "x": 96,
      "y": 0,
      "size": 1,
      "price": "4683000000000000000000",
      "reserved": "",
      "salt": "0x129e0ea48a45c68aa50d8723d551492959dbf7b12bb1ebb639d9ae3cb27ede9e",
      "assetIds": [
        "55464657044963196816950587289035428064568320970692304673817341489688428423170",
        "55464657044963196816950587289035428064568320970692304673817341489688428423168",
        "55464657044963196816950587289035428064568320970692304673817341489688445192192"
      ]
    },
    {
      "x": 96,
      "y": 1,
      "size": 1,
      "price": "4683000000000000000000",
      "reserved": "",
      "salt": "0x960b92965d302a5f5e871c299d0e22d2479ab63742a443e59c79f2890cff9de1",
      "assetIds": [
        "55464657044963196816950587289035428064568320970692304673817341489688428423171",
        "55464657044963196816950587289035428064568320970692304673817341489688428423168",
        "55464657044963196816950587289035428064568320970692304673817341489688428423169"
      ]
    },
    {
      "x": 96,
      "y": 2,
      "size": 1,
      "price": "4683000000000000000000",
      "reserved": "",
      "salt": "0x5c977e2940194ec0dc611102c54ba5e99bf22fa1a649444919a09548c2874dce",
      "assetIds": [
        "55464657044963196816950587289035428064568320970692304673817341489688428423171",
        "55464657044963196816950587289035428064568320970692304673817341489688428423168",
        "55464657044963196816950587289035428064568320970692304673817341489688428423169"
      ]
    },
    {
      "x": 96,
      "y": 3,
      "size": 1,
      "price": "4683000000000000000000",
      "reserved": "",
      "salt": "0xcc626f75b1c560011754d37986951d66f8e4608975f39bead16efcab521426c1",
      "assetIds": [
        "55464657044963196816950587289035428064568320970692304673817341489688428423171",
        "55464657044963196816950587289035428064568320970692304673817341489688428423168",
        "55464657044963196816950587289035428064568320970692304673817341489688428423169"
      ]
    },
    {
      "x": 96,
      "y": 4,
      "size": 1,
      "price": "4683000000000000000000",
      "reserved": "",
      "salt": "0x4df88f9187c4155287becb827cc879164f50a1990c403a5f69753b81f39b3b8d",
      "assetIds": [
        "55464657044963196816950587289035428064568320970692304673817341489688428423171",
        "55464657044963196816950587289035428064568320970692304673817341489688428423168",
        "55464657044963196816950587289035428064568320970692304673817341489688428423169"
      ]
    },
    {
      "x": 96,
      "y": 5,
      "size": 1,
      "price": "4683000000000000000000",
      "reserved": "",
      "salt": "0x64b6df30b928f05f7e2042e19a7a6860e1f059e4f355c43c7b04bb35bedf0954",
      "assetIds": [
        "55464657044963196816950587289035428064568320970692304673817341489688428423170",
        "55464657044963196816950587289035428064568320970692304673817341489688428423168",
        "55464657044963196816950587289035428064568320970692304673817341489688445192192"
      ]
    },
    {
      "x": 96,
      "y": 12,
      "size": 1,
      "price": "4683000000000000000000",
      "reserved": "",
      "salt": "0xe14d89d2d859f0cfa546d64c5dde198cd89984cf9e9cb3cc5d4129579c4fe73c",
      "assetIds": [
        "55464657044963196816950587289035428064568320970692304673817341489688428423171",
        "55464657044963196816950587289035428064568320970692304673817341489688428423168",
        "55464657044963196816950587289035428064568320970692304673817341489688428423169"
      ]
    },
    {
      "x": 96,
      "y": 13,
      "size": 1,
      "price": "4683000000000000000000",
      "reserved": "",
      "salt": "0xd8f09eb248e6a53553e8f2d403f01de2f0f973ed8d9855e7eff018e4a3f174ac",
      "assetIds": [
        "55464657044963196816950587289035428064568320970692304673817341489688428423170",
        "55464657044963196816950587289035428064568320970692304673817341489688428423168",
        "55464657044963196816950587289035428064568320970692304673817341489688445192192"
      ]
    },
    {
      "x": 96,
      "y": 14,
      "size": 1,
      "price": "4683000000000000000000",
      "reserved": "",
      "salt": "0x0cf72d8eaa17fb0824a9eb67294d71ce94135c5783bf0951ec51a3f620e4b50a",
      "assetIds": [
        "55464657044963196816950587289035428064568320970692304673817341489688428423170",
        "55464657044963196816950587289035428064568320970692304673817341489688428423168",
        "55464657044963196816950587289035428064568320970692304673817341489688445192192"
      ]
    },
    {
      "x": 96,
      "y": 21,
      "size": 1,
      "price": "4683000000000000000000",
      "reserved": "",
      "salt": "0x37b7ef26ef2aa2d244b4f87f2b7afdd96761349553487782e75037648303533c",
      "assetIds": [
        "55464657044963196816950587289035428064568320970692304673817341489688428423171",
        "55464657044963196816950587289035428064568320970692304673817341489688428423168",
        "55464657044963196816950587289035428064568320970692304673817341489688428423169"
      ]
    },
    {
      "x": 97,
      "y": 0,
      "size": 1,
      "price": "1011000000000000000000",
      "reserved": "",
      "salt": "0xeb3967b7617702c3f28718f82b79ab54fb5473e8d4e3df19d17ae4cff03db237",
      "assetIds": []
    },
    {
      "x": 97,
      "y": 1,
      "size": 1,
      "price": "1011000000000000000000",
      "reserved": "",
      "salt": "0xebb1edf38a46ebbc5b18ee24b34f42cb8ffc47aa8a6fbf872159329267b8e838",
      "assetIds": []
    },
    {
      "x": 97,
      "y": 2,
      "size": 1,
      "price": "1011000000000000000000",
      "reserved": "",
      "salt": "0x1dd761465e276ecb1b9be2202264f87ae8d0cacbdf49b14992913c6e4c31a4d6",
      "assetIds": []
    },
    {
      "x": 97,
      "y": 3,
      "size": 1,
      "price": "1011000000000000000000",
      "reserved": "",
      "salt": "0x738949ab4897f9be608070b6453c9322a8cb38443b315180d52afaace36e737f",
      "assetIds": []
    },
    {
      "x": 97,
      "y": 4,
      "size": 1,
      "price": "1011000000000000000000",
      "reserved": "",
      "salt": "0xcd5da1820d7517930d02bdcf9b168bb01a20e4b34142d4cd27a5a9f3bd6e6a06",
      "assetIds": []
    },
    {
      "x": 97,
      "y": 5,
      "size": 1,
      "price": "1011000000000000000000",
      "reserved": "",
      "salt": "0x65801b115b25f1bedc5d9cc4df81b108512c720bf55bf3576b17a148530a5bfc",
      "assetIds": []
    },
    {
      "x": 97,
      "y": 12,
      "size": 1,
      "price": "1011000000000000000000",
      "reserved": "",
      "salt": "0x23c72f695364951c2d52b2c7dc91273d88baae0d1447a9f049cfc404cd1e84ef",
      "assetIds": []
    },
    {
      "x": 97,
      "y": 13,
      "size": 1,
      "price": "1011000000000000000000",
      "reserved": "",
      "salt": "0xf8ee1ad738df05ded47b16bacd53c0ecb9fe43099a1b1cbf39c91a57ce6eeb1d",
      "assetIds": []
    },
    {
      "x": 97,
      "y": 14,
      "size": 1,
      "price": "1011000000000000000000",
      "reserved": "",
      "salt": "0x2c2ad151b0e62a3191f7001e65e12f43c59e30b131972de720155499c545ac3c",
      "assetIds": []
    },
    {
      "x": 97,
      "y": 21,
      "size": 1,
      "price": "4683000000000000000000",
      "reserved": "",
      "salt": "0xf42deee5a96bf162c516620759c05f3352c30e288afd108cab209031e66b1512",
      "assetIds": [
        "55464657044963196816950587289035428064568320970692304673817341489688428423170",
        "55464657044963196816950587289035428064568320970692304673817341489688428423168",
        "55464657044963196816950587289035428064568320970692304673817341489688445192192"
      ]
    },
    {
      "x": 98,
      "y": 0,
      "size": 1,
      "price": "1011000000000000000000",
      "reserved": "",
      "salt": "0x40d14f05a899c1feca25becef2b28121e546f6a43c9a79bddbbe0f6032564e79",
      "assetIds": []
    },
    {
      "x": 98,
      "y": 1,
      "size": 1,
      "price": "1011000000000000000000",
      "reserved": "",
      "salt": "0x0ee97840fa9123d19770c884857a81e50f87b033d9b4d76ef552aa421d1ce730",
      "assetIds": []
    },
    {
      "x": 98,
      "y": 2,
      "size": 1,
      "price": "1011000000000000000000",
      "reserved": "",
      "salt": "0xc2a8c69e1c9774c94b91dc9389a08bf8bfb813d5d7c55f148a2a2ebb834030df",
      "assetIds": []
    },
    {
      "x": 98,
      "y": 3,
      "size": 1,
      "price": "1011000000000000000000",
      "reserved": "",
      "salt": "0x61ff21ce876b7294d833ec2f0a9e31dd7126405794855eb60b1995685f8c42bf",
      "assetIds": []
    },
    {
      "x": 98,
      "y": 4,
      "size": 1,
      "price": "1011000000000000000000",
      "reserved": "",
      "salt": "0x4a43467d274b56beb9ba7a3888171f7ab99ab08450d2c144b3a44b938cc73952",
      "assetIds": []
    },
    {
      "x": 98,
      "y": 5,
      "size": 1,
      "price": "1011000000000000000000",
      "reserved": "",
      "salt": "0x020f222847c303d3ba85274a56fdef7f3e77733b772e0eb5cd3cedad8e67e205",
      "assetIds": []
    },
    {
      "x": 98,
      "y": 12,
      "size": 1,
      "price": "1011000000000000000000",
      "reserved": "",
      "salt": "0x6001e5e8eaa2e50272796d283a5e5213b2f2782b55e434241a7ba35257334ab9",
      "assetIds": []
    },
    {
      "x": 98,
      "y": 13,
      "size": 1,
      "price": "1011000000000000000000",
      "reserved": "",
      "salt": "0x485858547594cc61485868d925bd8ff104b47fa8ab3d87711ad55302ad5dd7cd",
      "assetIds": []
    },
    {
      "x": 98,
      "y": 14,
      "size": 1,
      "price": "1011000000000000000000",
      "reserved": "",
      "salt": "0x2f69a8b340c951c24ceb0214502d82f4f34d6defdeeddcac8856f3e1c17d73c5",
      "assetIds": []
    },
    {
      "x": 98,
      "y": 21,
      "size": 1,
      "price": "4683000000000000000000",
      "reserved": "",
      "salt": "0x954f8952c8c6a4d3bfc027f68aad3fd905683c80d44dc03c8314e587764e22e2",
      "assetIds": [
        "55464657044963196816950587289035428064568320970692304673817341489688428423171",
        "55464657044963196816950587289035428064568320970692304673817341489688428423168",
        "55464657044963196816950587289035428064568320970692304673817341489688428423169"
      ]
    },
    {
      "x": 99,
      "y": 0,
      "size": 1,
      "price": "1011000000000000000000",
      "reserved": "",
      "salt": "0xe4ec64004aa120d7f93d3a85d0069f1cb1bdc48dbf4b47b2716dedad68658c64",
      "assetIds": []
    },
    {
      "x": 99,
      "y": 1,
      "size": 1,
      "price": "1011000000000000000000",
      "reserved": "",
      "salt": "0xe7981ef86c4d9a7153b7dcb476c63f6099ea7b0f17a7f96e2dd1d415dfc7d183",
      "assetIds": []
    },
    {
      "x": 99,
      "y": 2,
      "size": 1,
      "price": "1011000000000000000000",
      "reserved": "",
      "salt": "0xa77f489e9563fc6f7ea36ef4b5786893a7cc798319221ae744566e8af8ccf53b",
      "assetIds": []
    },
    {
      "x": 99,
      "y": 12,
      "size": 1,
      "price": "1011000000000000000000",
      "reserved": "",
      "salt": "0x6873f76677125034d6b23c25556c493743f04493b630a63ca7ad8fc273dc79ba",
      "assetIds": []
    },
    {
      "x": 99,
      "y": 13,
      "size": 1,
      "price": "1011000000000000000000",
      "reserved": "",
      "salt": "0x74d24c2d576b96a37d92f59b7d106234a244c45847ff0a21d2a0b1489c18ea40",
      "assetIds": []
    },
    {
      "x": 99,
      "y": 14,
      "size": 1,
      "price": "1011000000000000000000",
      "reserved": "",
      "salt": "0x6cb404e24fb5f1dcf3cee658f21484eb277686e147f7ebd1962ead528f426db6",
      "assetIds": []
    },
    {
      "x": 99,
      "y": 15,
      "size": 1,
      "price": "1011000000000000000000",
      "reserved": "",
      "salt": "0x008363d8e5a59e4b7d8d5fa68c87695a6b880f63050ee51004609e0b9d793802",
      "assetIds": []
    },
    {
      "x": 99,
      "y": 16,
      "size": 1,
      "price": "1011000000000000000000",
      "reserved": "",
      "salt": "0x8b0e8ac85556de754f446fd8d1e40bfbb2e2fb9d960d80c54568cbf8aee87976",
      "assetIds": []
    },
    {
      "x": 99,
      "y": 17,
      "size": 1,
      "price": "1011000000000000000000",
      "reserved": "",
      "salt": "0xd15a2b0527261b087a330644966ffbe8de34b1226c9af0a381e985c156c85457",
      "assetIds": []
    },
    {
      "x": 99,
      "y": 21,
      "size": 1,
      "price": "1011000000000000000000",
      "reserved": "",
      "salt": "0x1057eb4bfbf226add13eafe5e98f8c634173ac8a6ebb88946e800d9bd0a354b9",
      "assetIds": []
    },
    {
      "x": 100,
      "y": 0,
      "size": 1,
      "price": "1011000000000000000000",
      "reserved": "",
      "salt": "0xacb3b89dbf7f153438b7ae5b5f8670f3f633f6c7fb95263d59c06d077a82c7ca",
      "assetIds": []
    },
    {
      "x": 100,
      "y": 1,
      "size": 1,
      "price": "1011000000000000000000",
      "reserved": "",
      "salt": "0x0ab928edcec241dc4ba3bede122dd0315ef92f1d765da857f84404e2c12428a4",
      "assetIds": []
    },
    {
      "x": 100,
      "y": 2,
      "size": 1,
      "price": "1011000000000000000000",
      "reserved": "",
      "salt": "0xc51ac235d34aff5cb5fb3682c5417fc14691cc8f29973b9510597c7d5f8ef66f",
      "assetIds": []
    },
    {
      "x": 100,
      "y": 12,
      "size": 1,
      "price": "1011000000000000000000",
      "reserved": "",
      "salt": "0x6beb5301edaf292bb74b35231176600253c3aaec53d7103833d816c77b05e663",
      "assetIds": []
    },
    {
      "x": 100,
      "y": 13,
      "size": 1,
      "price": "1011000000000000000000",
      "reserved": "",
      "salt": "0x03a885ada3affe029a480255015af5b7dc66d92de695f5d3c064c91e010c6af2",
      "assetIds": []
    },
    {
      "x": 100,
      "y": 14,
      "size": 1,
      "price": "1011000000000000000000",
      "reserved": "",
      "salt": "0xde0a628364d894d324bdaaa1f63508e91f452618e91a5678262705b4cdd49b86",
      "assetIds": []
    },
    {
      "x": 100,
      "y": 15,
      "size": 1,
      "price": "1011000000000000000000",
      "reserved": "",
      "salt": "0x450ae30d2b24bbd8c552fd693bf11f67f76ffef505b893fe902457d2123fbbfe",
      "assetIds": []
    },
    {
      "x": 100,
      "y": 16,
      "size": 1,
      "price": "1011000000000000000000",
      "reserved": "",
      "salt": "0x7629cbfd28af5e5a6c438550109e94f26e4fe7f0c19af261b8b5bf47a5f16942",
      "assetIds": []
    },
    {
      "x": 100,
      "y": 17,
      "size": 1,
      "price": "1011000000000000000000",
      "reserved": "",
      "salt": "0x64d2894b32b89b73cf64a32879cc01a5fd7256f182044ba14842928efff925c1",
      "assetIds": []
    },
    {
      "x": 100,
      "y": 21,
      "size": 1,
      "price": "1011000000000000000000",
      "reserved": "",
      "salt": "0x968fae3a7dbc40c9adc5a1d027e2f5adacf301bc50eeb2a823841be81a5b945b",
      "assetIds": []
    },
    {
      "x": 101,
      "y": 0,
      "size": 1,
      "price": "1011000000000000000000",
      "reserved": "",
      "salt": "0x818ad84834929989f1822f258d6d3efef8ad5222aaeee24fdd29380543f8f1e8",
      "assetIds": []
    },
    {
      "x": 101,
      "y": 1,
      "size": 1,
      "price": "1011000000000000000000",
      "reserved": "",
      "salt": "0x0794a51bc78db1ad55e7f1e0e8882d7164dfb91097663515cae767f3bd0ccb19",
      "assetIds": []
    },
    {
      "x": 101,
      "y": 2,
      "size": 1,
      "price": "1011000000000000000000",
      "reserved": "",
      "salt": "0x57a54b7ca75326aa73821c3b22c3d75028b7e6bb7a556a2907309f16f503922f",
      "assetIds": []
    },
    {
      "x": 101,
      "y": 12,
      "size": 1,
      "price": "4683000000000000000000",
      "reserved": "",
      "salt": "0x61a120eb4af8a4081acf7c2382b4496c27992cc9c3e1691158be8bae78dce1ec",
      "assetIds": [
        "55464657044963196816950587289035428064568320970692304673817341489688428423171",
        "55464657044963196816950587289035428064568320970692304673817341489688428423168",
        "55464657044963196816950587289035428064568320970692304673817341489688428423169"
      ]
    },
    {
      "x": 101,
      "y": 13,
      "size": 1,
      "price": "4683000000000000000000",
      "reserved": "",
      "salt": "0xad63fa9bb43b66ca315fc7b9b331fc362ba0d4181a90adf22edcff759a4a3ced",
      "assetIds": [
        "55464657044963196816950587289035428064568320970692304673817341489688428423171",
        "55464657044963196816950587289035428064568320970692304673817341489688428423168",
        "55464657044963196816950587289035428064568320970692304673817341489688428423169"
      ]
    },
    {
      "x": 101,
      "y": 14,
      "size": 1,
      "price": "4683000000000000000000",
      "reserved": "",
      "salt": "0x912dae99397745c3a9262ef024f7557bd1c6651a7dd97472c7f2d5dec7e8236f",
      "assetIds": [
        "55464657044963196816950587289035428064568320970692304673817341489688428423171",
        "55464657044963196816950587289035428064568320970692304673817341489688428423168",
        "55464657044963196816950587289035428064568320970692304673817341489688428423169"
      ]
    },
    {
      "x": 101,
      "y": 15,
      "size": 1,
      "price": "4683000000000000000000",
      "reserved": "",
      "salt": "0x566804e0651d52413e637cc1b91fec32b6325d3ca669ff2d84ed3190bad1cba2",
      "assetIds": [
        "55464657044963196816950587289035428064568320970692304673817341489688428423170",
        "55464657044963196816950587289035428064568320970692304673817341489688428423168",
        "55464657044963196816950587289035428064568320970692304673817341489688445192192"
      ]
    },
    {
      "x": 101,
      "y": 16,
      "size": 1,
      "price": "4683000000000000000000",
      "reserved": "",
      "salt": "0x751d2c6be0392b856d17a7c7dc68a3aaab24a8e7ee929f28d8eb44418cd26a98",
      "assetIds": [
        "55464657044963196816950587289035428064568320970692304673817341489688428423170",
        "55464657044963196816950587289035428064568320970692304673817341489688428423168",
        "55464657044963196816950587289035428064568320970692304673817341489688445192192"
      ]
    },
    {
      "x": 101,
      "y": 17,
      "size": 1,
      "price": "4683000000000000000000",
      "reserved": "",
      "salt": "0xb734b639f856be9425282641cb7b3bf0aba75e900ee10579c2ee23e9f1b1454c",
      "assetIds": [
        "55464657044963196816950587289035428064568320970692304673817341489688428423171",
        "55464657044963196816950587289035428064568320970692304673817341489688428423168",
        "55464657044963196816950587289035428064568320970692304673817341489688428423169"
      ]
    },
    {
      "x": 101,
      "y": 21,
      "size": 1,
      "price": "1011000000000000000000",
      "reserved": "",
      "salt": "0xfcc76c802d8d24ca922382c4158ce25c6e8d20e45e31792875fdfbe5cd7554cc",
      "assetIds": []
    },
    {
      "x": 102,
      "y": 0,
      "size": 1,
      "price": "1011000000000000000000",
      "reserved": "",
      "salt": "0x2aa6fe41927908771bdc7083e934e3e5a1143d9c59dc220acb0e83a41278bedf",
      "assetIds": []
    },
    {
      "x": 102,
      "y": 1,
      "size": 1,
      "price": "1011000000000000000000",
      "reserved": "",
      "salt": "0x3b4c9cf9202cedf98b42f218250fadbaba4dadfa47975935d6d8c7de026e01d1",
      "assetIds": []
    },
    {
      "x": 102,
      "y": 2,
      "size": 1,
      "price": "1011000000000000000000",
      "reserved": "",
      "salt": "0x2c614b0285ca41650f68ef40e408a8ed576c5122dbabf2de8d4ee78f48e761a0",
      "assetIds": []
    },
    {
      "x": 102,
      "y": 3,
      "size": 1,
      "price": "1011000000000000000000",
      "reserved": "",
      "salt": "0x289ded32e8409c6184807b7596b358d548a8123eec1236d99d14f1e55656408c",
      "assetIds": []
    },
    {
      "x": 102,
      "y": 4,
      "size": 1,
      "price": "1011000000000000000000",
      "reserved": "",
      "salt": "0x1a15c55224b372f6af843657f195d28a216c7d98246f650c64f74b6d56bdb964",
      "assetIds": []
    },
    {
      "x": 102,
      "y": 5,
      "size": 1,
      "price": "4683000000000000000000",
      "reserved": "",
      "salt": "0xd178a637310083a6754422b7a9085a27b1366bf2a23bbeb4cafa4cf0b76371a8",
      "assetIds": [
        "55464657044963196816950587289035428064568320970692304673817341489688428423170",
        "55464657044963196816950587289035428064568320970692304673817341489688428423168",
        "55464657044963196816950587289035428064568320970692304673817341489688445192192"
      ]
    },
    {
      "x": 102,
      "y": 9,
      "size": 1,
      "price": "4683000000000000000000",
      "reserved": "",
      "salt": "0x027ba83d9a13748481e32be47200a838d47086b51b4f7d5c1dd35615a309b759",
      "assetIds": [
        "55464657044963196816950587289035428064568320970692304673817341489688428423170",
        "55464657044963196816950587289035428064568320970692304673817341489688428423168",
        "55464657044963196816950587289035428064568320970692304673817341489688445192192"
      ]
    },
    {
      "x": 102,
      "y": 10,
      "size": 1,
      "price": "1011000000000000000000",
      "reserved": "",
      "salt": "0xffaa9f436a38924af3aa72cc68f4f745a42f3ed81e6ec6d2085e99e321acf8f1",
      "assetIds": []
    },
    {
      "x": 102,
      "y": 11,
      "size": 1,
      "price": "4683000000000000000000",
      "reserved": "",
      "salt": "0xb3e8cb3d68dbc85a0ac7fb85aa143011f0290828ef3e58b3ec96ee13bb7a8f0c",
      "assetIds": [
        "55464657044963196816950587289035428064568320970692304673817341489688428423171",
        "55464657044963196816950587289035428064568320970692304673817341489688428423168",
        "55464657044963196816950587289035428064568320970692304673817341489688428423169"
      ]
    },
    {
      "x": 102,
      "y": 18,
      "size": 1,
      "price": "4683000000000000000000",
      "reserved": "",
      "salt": "0xe767a796e8ab1dd760a852bbb4bb49c0d167fe8807bc7594b135806c228468fd",
      "assetIds": [
        "55464657044963196816950587289035428064568320970692304673817341489688428423171",
        "55464657044963196816950587289035428064568320970692304673817341489688428423168",
        "55464657044963196816950587289035428064568320970692304673817341489688428423169"
      ]
    },
    {
      "x": 102,
      "y": 19,
      "size": 1,
      "price": "1011000000000000000000",
      "reserved": "",
      "salt": "0x7c2178313542c382f176fa9c9213075da11749b3fc459d1a010f305f67ecf4ea",
      "assetIds": []
    },
    {
      "x": 102,
      "y": 20,
      "size": 1,
      "price": "1011000000000000000000",
      "reserved": "",
      "salt": "0x3fa1abffc044ecb601f317142f4de319da375755424a961d0625b2291efa3271",
      "assetIds": []
    },
    {
      "x": 102,
      "y": 21,
      "size": 1,
      "price": "1011000000000000000000",
      "reserved": "",
      "salt": "0xcdd2922dc59188350d177be01573d495babc501637a275419c4cb0a664b73e68",
      "assetIds": []
    },
    {
      "x": 103,
      "y": 0,
      "size": 1,
      "price": "1011000000000000000000",
      "reserved": "",
      "salt": "0x39175423e3e5e9e6a037e37448b3f2790f64e1f3fcfca7e03bb8ef2b4fb804b0",
      "assetIds": []
    },
    {
      "x": 103,
      "y": 1,
      "size": 1,
      "price": "1011000000000000000000",
      "reserved": "",
      "salt": "0xd227130ef27202086423fb1588e33465c9886a9d30e745f9be498c434c8b76cf",
      "assetIds": []
    },
    {
      "x": 103,
      "y": 2,
      "size": 1,
      "price": "1011000000000000000000",
      "reserved": "",
      "salt": "0xf624d2a7ed08f9917f08b213cbf1940d485bfb2db0eaf02d129f7175794c025b",
      "assetIds": []
    },
    {
      "x": 103,
      "y": 3,
      "size": 1,
      "price": "1011000000000000000000",
      "reserved": "",
      "salt": "0xf9da207dfa82c9e4cd051d675a7fd8aebc303a5cb787c868cc6829680511c861",
      "assetIds": []
    },
    {
      "x": 103,
      "y": 4,
      "size": 1,
      "price": "1011000000000000000000",
      "reserved": "",
      "salt": "0x788aaa8550fe16ea22b9d41cfc61effdb00b36361bd360ef50625f8344ca1d37",
      "assetIds": []
    },
    {
      "x": 103,
      "y": 5,
      "size": 1,
      "price": "4683000000000000000000",
      "reserved": "",
      "salt": "0x3603b8735ff3f3ce3c82f9f5963e4178b3ddcaa8123c98a6b6ed8141f6720a97",
      "assetIds": [
        "55464657044963196816950587289035428064568320970692304673817341489688428423170",
        "55464657044963196816950587289035428064568320970692304673817341489688428423168",
        "55464657044963196816950587289035428064568320970692304673817341489688445192192"
      ]
    },
    {
      "x": 103,
      "y": 9,
      "size": 1,
      "price": "4683000000000000000000",
      "reserved": "",
      "salt": "0x55b90bf4ac17935891ab892c836fedebf70f4cd3061939e71ab26e46ee5e604d",
      "assetIds": [
        "55464657044963196816950587289035428064568320970692304673817341489688428423170",
        "55464657044963196816950587289035428064568320970692304673817341489688428423168",
        "55464657044963196816950587289035428064568320970692304673817341489688445192192"
      ]
    },
    {
      "x": 103,
      "y": 10,
      "size": 1,
      "price": "1011000000000000000000",
      "reserved": "",
      "salt": "0xbfd737aeef05cf687b9e62d71c19acf3d23d34f56437a1eecbf640622f8af11b",
      "assetIds": []
    },
    {
      "x": 103,
      "y": 11,
      "size": 1,
      "price": "4683000000000000000000",
      "reserved": "",
      "salt": "0xa7a62e20834995d1d9e2d341ff43a81202422034eea1472d92a90f1805f2d396",
      "assetIds": [
        "55464657044963196816950587289035428064568320970692304673817341489688428423170",
        "55464657044963196816950587289035428064568320970692304673817341489688428423168",
        "55464657044963196816950587289035428064568320970692304673817341489688445192192"
      ]
    },
    {
      "x": 103,
      "y": 18,
      "size": 1,
      "price": "4683000000000000000000",
      "reserved": "",
      "salt": "0x9f97f8d46933aac1d1a0ef8c163423217415d1db8c85378f8119ffaf681dbf9a",
      "assetIds": [
        "55464657044963196816950587289035428064568320970692304673817341489688428423170",
        "55464657044963196816950587289035428064568320970692304673817341489688428423168",
        "55464657044963196816950587289035428064568320970692304673817341489688445192192"
      ]
    },
    {
      "x": 103,
      "y": 19,
      "size": 1,
      "price": "1011000000000000000000",
      "reserved": "",
      "salt": "0x78e209158a3e2e445c68d0b82e785c24587a7fa3cb2a4e78490e56dab4bcac08",
      "assetIds": []
    },
    {
      "x": 103,
      "y": 20,
      "size": 1,
      "price": "1011000000000000000000",
      "reserved": "",
      "salt": "0xf1a22f1194034b784ac957eb9290cd04deeb10a2d15fdcf9c847fdc015fe10d9",
      "assetIds": []
    },
    {
      "x": 103,
      "y": 21,
      "size": 1,
      "price": "1011000000000000000000",
      "reserved": "",
      "salt": "0x52f4346e9efdbedbd422771f2a5ebcb5f56cd5ea057e28b3ea0abe25f0e4560b",
      "assetIds": []
    },
    {
      "x": 104,
      "y": 0,
      "size": 1,
      "price": "1011000000000000000000",
      "reserved": "",
      "salt": "0x731185c438aa4c09c27bcea4c5488210872e832ba32cfcd7e8a549cd18d8f697",
      "assetIds": []
    },
    {
      "x": 104,
      "y": 1,
      "size": 1,
      "price": "1011000000000000000000",
      "reserved": "",
      "salt": "0x7349139adae6b3e28b8a3b1f45db1de84cb29d31749479972f23be3e0e71ef0e",
      "assetIds": []
    },
    {
      "x": 104,
      "y": 2,
      "size": 1,
      "price": "1011000000000000000000",
      "reserved": "",
      "salt": "0x6aa3a0a9c05bef963a66f3cb9ea4aa5f41b427610eac7344fd6c7b3369f5c12a",
      "assetIds": []
    },
    {
      "x": 104,
      "y": 3,
      "size": 1,
      "price": "1011000000000000000000",
      "reserved": "",
      "salt": "0x8250dd1e514864fbb309324f92b4a79cb9778f7268f1f6f7aa9ae1ed1425c815",
      "assetIds": []
    },
    {
      "x": 104,
      "y": 4,
      "size": 1,
      "price": "1011000000000000000000",
      "reserved": "",
      "salt": "0x138e29553e29697d4025a23a4210d26085542a05863efa4629b046d78420242f",
      "assetIds": []
    },
    {
      "x": 104,
      "y": 5,
      "size": 1,
      "price": "4683000000000000000000",
      "reserved": "",
      "salt": "0x3d8fc7a25566110dfebff25497d14b82431be79e001b7e05803884d8731df09c",
      "assetIds": [
        "55464657044963196816950587289035428064568320970692304673817341489688428423171",
        "55464657044963196816950587289035428064568320970692304673817341489688428423168",
        "55464657044963196816950587289035428064568320970692304673817341489688428423169"
      ]
    },
    {
      "x": 104,
      "y": 9,
      "size": 1,
      "price": "4683000000000000000000",
      "reserved": "",
      "salt": "0xc37d2c26c956a7407623fff988be14b0b4fe32898b629529203568832dd54892",
      "assetIds": [
        "55464657044963196816950587289035428064568320970692304673817341489688428423170",
        "55464657044963196816950587289035428064568320970692304673817341489688428423168",
        "55464657044963196816950587289035428064568320970692304673817341489688445192192"
      ]
    },
    {
      "x": 104,
      "y": 10,
      "size": 1,
      "price": "1011000000000000000000",
      "reserved": "",
      "salt": "0x4638b84b0151e8ea1980cc74f7b104f86ab58c52c87ac4d65f1635748610b16d",
      "assetIds": []
    },
    {
      "x": 104,
      "y": 11,
      "size": 1,
      "price": "4683000000000000000000",
      "reserved": "",
      "salt": "0xff7779401ec5a7a86fd5a7c9cb55fdac08b849e804ca113da67e17d8d8b4bf23",
      "assetIds": [
        "55464657044963196816950587289035428064568320970692304673817341489688428423171",
        "55464657044963196816950587289035428064568320970692304673817341489688428423168",
        "55464657044963196816950587289035428064568320970692304673817341489688428423169"
      ]
    },
    {
      "x": 104,
      "y": 18,
      "size": 1,
      "price": "4683000000000000000000",
      "reserved": "",
      "salt": "0xc2546b8ab754f19ff3e22440871d191a3c8b58616ac6286e00ca7ba8c7f83e6b",
      "assetIds": [
        "55464657044963196816950587289035428064568320970692304673817341489688428423171",
        "55464657044963196816950587289035428064568320970692304673817341489688428423168",
        "55464657044963196816950587289035428064568320970692304673817341489688428423169"
      ]
    },
    {
      "x": 104,
      "y": 19,
      "size": 1,
      "price": "1011000000000000000000",
      "reserved": "",
      "salt": "0x1a5e40b38039a527c03a044a7d7a1bc0f0209d432a1cf2ce5be1da4d7c18f8d7",
      "assetIds": []
    },
    {
      "x": 104,
      "y": 20,
      "size": 1,
      "price": "1011000000000000000000",
      "reserved": "",
      "salt": "0x39bf54fd9a923c0394358f993a1adfe2ac074c9cfb04e775304490f160230504",
      "assetIds": []
    },
    {
      "x": 104,
      "y": 21,
      "size": 1,
      "price": "1011000000000000000000",
      "reserved": "",
      "salt": "0x1062ce252600db635bc25551a00bbe5dc9ed18e92e13e88c3910f7fec8b96737",
      "assetIds": []
    },
    {
      "x": 105,
      "y": 0,
      "size": 1,
      "price": "1011000000000000000000",
      "reserved": "",
      "salt": "0x6e4801969abe25ff091740db56d8effdf48647d7aa32aa457fa3afea2a240c9b",
      "assetIds": []
    },
    {
      "x": 105,
      "y": 1,
      "size": 1,
      "price": "1011000000000000000000",
      "reserved": "",
      "salt": "0x90a2e14b5b6c810c4c9d9f86ec465a9668514537e459ea76705f8e2882880a14",
      "assetIds": []
    },
    {
      "x": 105,
      "y": 2,
      "size": 1,
      "price": "1011000000000000000000",
      "reserved": "",
      "salt": "0xcc3ddb6b5b514d785e1a246657fe2c9d4d970ae62047eb1799c6182ded81c8a3",
      "assetIds": []
    },
    {
      "x": 105,
      "y": 3,
      "size": 1,
      "price": "1011000000000000000000",
      "reserved": "",
      "salt": "0x874168a9a3b19abd715dfc2cb8ff7c2b026df2b286f02934afd2eeb7abdd8898",
      "assetIds": []
    },
    {
      "x": 105,
      "y": 4,
      "size": 1,
      "price": "1011000000000000000000",
      "reserved": "",
      "salt": "0x06a02533c847e9581cefeb43917e3dfa80ee7cc9d21971161171b08e194348bb",
      "assetIds": []
    },
    {
      "x": 105,
      "y": 5,
      "size": 1,
      "price": "1011000000000000000000",
      "reserved": "",
      "salt": "0x0b5421c5910ff2108ab0744525f2d1956d6ed08fa53bb2c148743cd7bc33c9ec",
      "assetIds": []
    },
    {
      "x": 105,
      "y": 6,
      "size": 1,
      "price": "4683000000000000000000",
      "reserved": "",
      "salt": "0x1ab6fb936fa3a5a5bd1e102b1ec0468711beca4c94f32fe987c1a90f511b4e0f",
      "assetIds": [
        "55464657044963196816950587289035428064568320970692304673817341489688428423171",
        "55464657044963196816950587289035428064568320970692304673817341489688428423168",
        "55464657044963196816950587289035428064568320970692304673817341489688428423169"
      ]
    },
    {
      "x": 105,
      "y": 7,
      "size": 1,
      "price": "4683000000000000000000",
      "reserved": "",
      "salt": "0x9cf9b4d96e2186e04ad546d463064ff446a16fda8f7fecf95623c8a36a1b3fb8",
      "assetIds": [
        "55464657044963196816950587289035428064568320970692304673817341489688428423170",
        "55464657044963196816950587289035428064568320970692304673817341489688428423168",
        "55464657044963196816950587289035428064568320970692304673817341489688445192192"
      ]
    },
    {
      "x": 105,
      "y": 8,
      "size": 1,
      "price": "4683000000000000000000",
      "reserved": "",
      "salt": "0xfb49483c0b39afcc9e063beda4193301b4ff1029a06a3439723169c528067f1a",
      "assetIds": [
        "55464657044963196816950587289035428064568320970692304673817341489688428423170",
        "55464657044963196816950587289035428064568320970692304673817341489688428423168",
        "55464657044963196816950587289035428064568320970692304673817341489688445192192"
      ]
    },
    {
      "x": 105,
      "y": 18,
      "size": 1,
      "price": "4683000000000000000000",
      "reserved": "",
      "salt": "0x42650cc13cb6217a45d2d299b316c021761a1c0c366f1aa1b26cbc3627fd1827",
      "assetIds": [
        "55464657044963196816950587289035428064568320970692304673817341489688428423171",
        "55464657044963196816950587289035428064568320970692304673817341489688428423168",
        "55464657044963196816950587289035428064568320970692304673817341489688428423169"
      ]
    },
    {
      "x": 105,
      "y": 19,
      "size": 1,
      "price": "1011000000000000000000",
      "reserved": "",
      "salt": "0x279316cd6bba9e5ea180d2d4c3b5ab1864569f360a97365e7738da85593c9510",
      "assetIds": []
    },
    {
      "x": 105,
      "y": 20,
      "size": 1,
      "price": "1011000000000000000000",
      "reserved": "",
      "salt": "0xefa4d154eb03d4758f32daa632b5307045fc5d836d46333fdedb47a892a2a1c9",
      "assetIds": []
    },
    {
      "x": 105,
      "y": 21,
      "size": 1,
      "price": "1011000000000000000000",
      "reserved": "",
      "salt": "0xd8634c62716fcdc740c6db969432dae3f3bf368e1a8b45477e5fd95241ca49db",
      "assetIds": []
    },
    {
      "x": 106,
      "y": 0,
      "size": 1,
      "price": "1011000000000000000000",
      "reserved": "",
      "salt": "0xfb02acb94f293a6d52a676f7ae0d2ddaee7f569a20804a88a60d7dfa860c0815",
      "assetIds": []
    },
    {
      "x": 106,
      "y": 1,
      "size": 1,
      "price": "1011000000000000000000",
      "reserved": "",
      "salt": "0xcada871c971763f93236aa5520e7d59b5fc32e6c4e2a1a18aa626b296f531074",
      "assetIds": []
    },
    {
      "x": 106,
      "y": 2,
      "size": 1,
      "price": "1011000000000000000000",
      "reserved": "",
      "salt": "0x58cf4ea30876785a0fdff5267f52ddcbb99115ac3baa993eaea080d98ea3d2f6",
      "assetIds": []
    },
    {
      "x": 106,
      "y": 3,
      "size": 1,
      "price": "1011000000000000000000",
      "reserved": "",
      "salt": "0x1530e695807382f4cb535b9cf6852b8db14ceee359b3b67fccfc7b94de942ed4",
      "assetIds": []
    },
    {
      "x": 106,
      "y": 4,
      "size": 1,
      "price": "1011000000000000000000",
      "reserved": "",
      "salt": "0x5c674df618d693720d8ff2c142a67a66a9e847117f942bf832250fd6f05c27ca",
      "assetIds": []
    },
    {
      "x": 106,
      "y": 5,
      "size": 1,
      "price": "1011000000000000000000",
      "reserved": "",
      "salt": "0xc7b88aa77244f5c570fa50b1553e569e7ae27e800e3cfb28fa59c5be17474761",
      "assetIds": []
    },
    {
      "x": 106,
      "y": 6,
      "size": 1,
      "price": "1011000000000000000000",
      "reserved": "",
      "salt": "0xa7c5c193d156910fc13825d6705ec09e57322914a404953c60e4b3b31f5bdd88",
      "assetIds": []
    },
    {
      "x": 106,
      "y": 7,
      "size": 1,
      "price": "1011000000000000000000",
      "reserved": "",
      "salt": "0xb83bbbf024a8bb6ff5c95961f43aec9b0b39e02cedb0f961cecfae05e9c327fa",
      "assetIds": []
    },
    {
      "x": 106,
      "y": 8,
      "size": 1,
      "price": "4683000000000000000000",
      "reserved": "",
      "salt": "0xdb1d0d420ebcd341c15eba2de28a1d96b216c7e8d69afee94a1f320c994700bf",
      "assetIds": [
        "55464657044963196816950587289035428064568320970692304673817341489688428423170",
        "55464657044963196816950587289035428064568320970692304673817341489688428423168",
        "55464657044963196816950587289035428064568320970692304673817341489688445192192"
      ]
    },
    {
      "x": 106,
      "y": 18,
      "size": 1,
      "price": "4683000000000000000000",
      "reserved": "",
      "salt": "0x0b2baadb59162aa0b2450859df6b460acdaa50787a9fe2c778fb9156cef6581f",
      "assetIds": [
        "55464657044963196816950587289035428064568320970692304673817341489688428423170",
        "55464657044963196816950587289035428064568320970692304673817341489688428423168",
        "55464657044963196816950587289035428064568320970692304673817341489688445192192"
      ]
    },
    {
      "x": 106,
      "y": 19,
      "size": 1,
      "price": "1011000000000000000000",
      "reserved": "",
      "salt": "0x6eb59ed3ae605d8ad706f0a694fd350f93c02e8f217aed13ae76e886dd672fd0",
      "assetIds": []
    },
    {
      "x": 106,
      "y": 20,
      "size": 1,
      "price": "1011000000000000000000",
      "reserved": "",
      "salt": "0xe91b1e7b1d6f4792d52946173b5fccba3dfff462c3d637ab43b13d3855f381cd",
      "assetIds": []
    },
    {
      "x": 106,
      "y": 21,
      "size": 1,
      "price": "1011000000000000000000",
      "reserved": "",
      "salt": "0x6fd2d09ab8ec3a97b7f9c4b60ff2c5cbdc92b216def8598c046040fe8406cbb1",
      "assetIds": []
    },
    {
      "x": 107,
      "y": 0,
      "size": 1,
      "price": "4683000000000000000000",
      "reserved": "",
      "salt": "0xc415b74e5fa4b3da4cb977a1370a8cb92b6f5b8875ab2e7b2f91ae7396bccc75",
      "assetIds": [
        "55464657044963196816950587289035428064568320970692304673817341489688428423171",
        "55464657044963196816950587289035428064568320970692304673817341489688428423168",
        "55464657044963196816950587289035428064568320970692304673817341489688428423169"
      ]
    },
    {
      "x": 107,
      "y": 1,
      "size": 1,
      "price": "4683000000000000000000",
      "reserved": "",
      "salt": "0x4b6607351e80f09f8439fe95d9b8d490bb901b46d6d59cc494ed826fe326fc91",
      "assetIds": [
        "55464657044963196816950587289035428064568320970692304673817341489688428423170",
        "55464657044963196816950587289035428064568320970692304673817341489688428423168",
        "55464657044963196816950587289035428064568320970692304673817341489688445192192"
      ]
    },
    {
      "x": 107,
      "y": 2,
      "size": 1,
      "price": "4683000000000000000000",
      "reserved": "",
      "salt": "0x8818cc50fc6a77461c9a673ed3d9242a85177b3ab1a04d988ff4e08fc41dce70",
      "assetIds": [
        "55464657044963196816950587289035428064568320970692304673817341489688428423170",
        "55464657044963196816950587289035428064568320970692304673817341489688428423168",
        "55464657044963196816950587289035428064568320970692304673817341489688445192192"
      ]
    },
    {
      "x": 107,
      "y": 3,
      "size": 1,
      "price": "4683000000000000000000",
      "reserved": "",
      "salt": "0xc8e78a5f66170b22bbe9c84529f8390014bc3f36fbcd26715e9261ebff5fc721",
      "assetIds": [
        "55464657044963196816950587289035428064568320970692304673817341489688428423170",
        "55464657044963196816950587289035428064568320970692304673817341489688428423168",
        "55464657044963196816950587289035428064568320970692304673817341489688445192192"
      ]
    },
    {
      "x": 107,
      "y": 4,
      "size": 1,
      "price": "4683000000000000000000",
      "reserved": "",
      "salt": "0x3177a3981d499d4892e040f7bc6b9210d3598a82b7d64b719d4914451cad2913",
      "assetIds": [
        "55464657044963196816950587289035428064568320970692304673817341489688428423170",
        "55464657044963196816950587289035428064568320970692304673817341489688428423168",
        "55464657044963196816950587289035428064568320970692304673817341489688445192192"
      ]
    },
    {
      "x": 107,
      "y": 5,
      "size": 1,
      "price": "4683000000000000000000",
      "reserved": "",
      "salt": "0xe285b1b9c3fc99ea33158bbde36849e119d79b33dd1ae001c8fbff5f8e8c1178",
      "assetIds": [
        "55464657044963196816950587289035428064568320970692304673817341489688428423170",
        "55464657044963196816950587289035428064568320970692304673817341489688428423168",
        "55464657044963196816950587289035428064568320970692304673817341489688445192192"
      ]
    },
    {
      "x": 107,
      "y": 6,
      "size": 1,
      "price": "1011000000000000000000",
      "reserved": "",
      "salt": "0x9f52224881ee7af1e8087abd5f19a03752f7e916c5665f905fdd6d28b0f1e0c9",
      "assetIds": []
    },
    {
      "x": 107,
      "y": 7,
      "size": 1,
      "price": "1011000000000000000000",
      "reserved": "",
      "salt": "0x7b7ea02e26c552684e6c20b648ca7e546a57c50e9437e343cdcc4fb848053f6c",
      "assetIds": []
    },
    {
      "x": 107,
      "y": 8,
      "size": 1,
      "price": "4683000000000000000000",
      "reserved": "",
      "salt": "0x92c484a27ae0710429ff00cb241354b15dc99256aedc6dc8d9f96cb07e07f5c9",
      "assetIds": [
        "55464657044963196816950587289035428064568320970692304673817341489688428423171",
        "55464657044963196816950587289035428064568320970692304673817341489688428423168",
        "55464657044963196816950587289035428064568320970692304673817341489688428423169"
      ]
    },
    {
      "x": 107,
      "y": 18,
      "size": 1,
      "price": "4683000000000000000000",
      "reserved": "",
      "salt": "0x4fbc54a2bf0a2d87aa38ff6bc16d24a9acc7bfca6583d31578b899016afc5721",
      "assetIds": [
        "55464657044963196816950587289035428064568320970692304673817341489688428423170",
        "55464657044963196816950587289035428064568320970692304673817341489688428423168",
        "55464657044963196816950587289035428064568320970692304673817341489688445192192"
      ]
    },
    {
      "x": 107,
      "y": 19,
      "size": 1,
      "price": "1011000000000000000000",
      "reserved": "",
      "salt": "0xf2ae81b77e7f9f68d3d5ff14400c698e30bfd51a264dc327198454b2a4b8e3e0",
      "assetIds": []
    },
    {
      "x": 107,
      "y": 20,
      "size": 1,
      "price": "1011000000000000000000",
      "reserved": "",
      "salt": "0xf8b14be4464b01800c06642452c0cdd8d49937f443042d487294246531c1169d",
      "assetIds": []
    },
    {
      "x": 107,
      "y": 21,
      "size": 1,
      "price": "1011000000000000000000",
      "reserved": "",
      "salt": "0xa6864acc2a5d3b8ba4c3e18d26432bcb254000d0a795a8bd44a0001f549837d1",
      "assetIds": []
    },
    {
      "x": 108,
      "y": 6,
      "size": 1,
      "price": "4683000000000000000000",
      "reserved": "",
      "salt": "0xdce9dbd2f6bfefa400ee8986e2a5d25c1c46fe475440b8afdc2e469f0c5330eb",
      "assetIds": [
        "55464657044963196816950587289035428064568320970692304673817341489688428423170",
        "55464657044963196816950587289035428064568320970692304673817341489688428423168",
        "55464657044963196816950587289035428064568320970692304673817341489688445192192"
      ]
    },
    {
      "x": 108,
      "y": 7,
      "size": 1,
      "price": "1011000000000000000000",
      "reserved": "",
      "salt": "0x371306b5bda0922ae63c7da61b16a234a1cb2f040c887b081052c7b7838066c3",
      "assetIds": []
    },
    {
      "x": 108,
      "y": 8,
      "size": 1,
      "price": "4683000000000000000000",
      "reserved": "",
      "salt": "0x53cd3ec2cd61db86ca96ea7e9c9d1b998e74e364a231c4f090410c89d34485fc",
      "assetIds": [
        "55464657044963196816950587289035428064568320970692304673817341489688428423171",
        "55464657044963196816950587289035428064568320970692304673817341489688428423168",
        "55464657044963196816950587289035428064568320970692304673817341489688428423169"
      ]
    },
    {
      "x": 108,
      "y": 12,
      "size": 1,
      "price": "4683000000000000000000",
      "reserved": "",
      "salt": "0x43879200ac968eb0ae10e397308b584ad3aee44d5971698ae1fd28bb39462070",
      "assetIds": [
        "55464657044963196816950587289035428064568320970692304673817341489688428423171",
        "55464657044963196816950587289035428064568320970692304673817341489688428423168",
        "55464657044963196816950587289035428064568320970692304673817341489688428423169"
      ]
    },
    {
      "x": 108,
      "y": 13,
      "size": 1,
      "price": "4683000000000000000000",
      "reserved": "",
      "salt": "0xae9d1403475abc770a9e7b728688ae11645d96258f41e0809932b91e3cce34e8",
      "assetIds": [
        "55464657044963196816950587289035428064568320970692304673817341489688428423171",
        "55464657044963196816950587289035428064568320970692304673817341489688428423168",
        "55464657044963196816950587289035428064568320970692304673817341489688428423169"
      ]
    },
    {
      "x": 108,
      "y": 14,
      "size": 1,
      "price": "4683000000000000000000",
      "reserved": "",
      "salt": "0x90f1e7e65ad4ba1d51a3c47af39821217285e75c98acb106cc934deec10d4048",
      "assetIds": [
        "55464657044963196816950587289035428064568320970692304673817341489688428423170",
        "55464657044963196816950587289035428064568320970692304673817341489688428423168",
        "55464657044963196816950587289035428064568320970692304673817341489688445192192"
      ]
    },
    {
      "x": 108,
      "y": 15,
      "size": 1,
      "price": "4683000000000000000000",
      "reserved": "",
      "salt": "0x37955e91af4684b7c5d6c516464c3e302233cc3cf35613b1422ff28a80cc8f07",
      "assetIds": [
        "55464657044963196816950587289035428064568320970692304673817341489688428423171",
        "55464657044963196816950587289035428064568320970692304673817341489688428423168",
        "55464657044963196816950587289035428064568320970692304673817341489688428423169"
      ]
    },
    {
      "x": 108,
      "y": 16,
      "size": 1,
      "price": "4683000000000000000000",
      "reserved": "",
      "salt": "0x63c0197d570b16f4f685e2a584f2bef45e77c7cd5495a7b5c8a80ff485a6fa68",
      "assetIds": [
        "55464657044963196816950587289035428064568320970692304673817341489688428423171",
        "55464657044963196816950587289035428064568320970692304673817341489688428423168",
        "55464657044963196816950587289035428064568320970692304673817341489688428423169"
      ]
    },
    {
      "x": 108,
      "y": 17,
      "size": 1,
      "price": "4683000000000000000000",
      "reserved": "",
      "salt": "0x29a76296baed35f9c88e553acb585c67cbcb6e2b0fd736f20c2061d6a0710297",
      "assetIds": [
        "55464657044963196816950587289035428064568320970692304673817341489688428423170",
        "55464657044963196816950587289035428064568320970692304673817341489688428423168",
        "55464657044963196816950587289035428064568320970692304673817341489688445192192"
      ]
    },
    {
      "x": 108,
      "y": 21,
      "size": 1,
      "price": "1011000000000000000000",
      "reserved": "",
      "salt": "0x92355fedaa53b7ea9527c3d4a8c880c17b63bf3d2b1953a899daa45cd6b04fcb",
      "assetIds": []
    },
    {
      "x": 109,
      "y": 6,
      "size": 1,
      "price": "4683000000000000000000",
      "reserved": "",
      "salt": "0x8e536f78f6b88e99fa1bc121a104e92bdcebd6758971f8e6db3dd7eaf333ead0",
      "assetIds": [
        "55464657044963196816950587289035428064568320970692304673817341489688428423171",
        "55464657044963196816950587289035428064568320970692304673817341489688428423168",
        "55464657044963196816950587289035428064568320970692304673817341489688428423169"
      ]
    },
    {
      "x": 109,
      "y": 7,
      "size": 1,
      "price": "1011000000000000000000",
      "reserved": "",
      "salt": "0x46d45c769d2b09ba3cdb8c14b812552778eff35247c574e681ae3193ff852357",
      "assetIds": []
    },
    {
      "x": 109,
      "y": 8,
      "size": 1,
      "price": "4683000000000000000000",
      "reserved": "",
      "salt": "0x4d96e98aeb0198ef76d0c8acc6fc156ed4c10da2837ee7a84c390cbc66ef6f54",
      "assetIds": [
        "55464657044963196816950587289035428064568320970692304673817341489688428423170",
        "55464657044963196816950587289035428064568320970692304673817341489688428423168",
        "55464657044963196816950587289035428064568320970692304673817341489688445192192"
      ]
    },
    {
      "x": 109,
      "y": 12,
      "size": 1,
      "price": "1011000000000000000000",
      "reserved": "",
      "salt": "0x88ff988fce57568f072a985cf53b0bb9a5fddad8ca385beacf48572672a4e7e9",
      "assetIds": []
    },
    {
      "x": 109,
      "y": 13,
      "size": 1,
      "price": "1011000000000000000000",
      "reserved": "",
      "salt": "0x665efa70f45575d372a23400f0948c103236b502f860e0bb1e59a2442a04c0b6",
      "assetIds": []
    },
    {
      "x": 109,
      "y": 14,
      "size": 1,
      "price": "1011000000000000000000",
      "reserved": "",
      "salt": "0x0771c5391939941aa5f8c106906715f576da6ab4b5a01cccfcb1a251dd7d55e7",
      "assetIds": []
    },
    {
      "x": 109,
      "y": 15,
      "size": 1,
      "price": "1011000000000000000000",
      "reserved": "",
      "salt": "0xd1f98bfff3cfbe8c507005474ff8c8567b29282c89092d12ac6187e008843fd9",
      "assetIds": []
    },
    {
      "x": 109,
      "y": 16,
      "size": 1,
      "price": "1011000000000000000000",
      "reserved": "",
      "salt": "0xc75e6802e432adfd4f77c0610bf73b84adb789dc0d8d18d486922613e23ab86e",
      "assetIds": []
    },
    {
      "x": 109,
      "y": 17,
      "size": 1,
      "price": "1011000000000000000000",
      "reserved": "",
      "salt": "0xef8b3562f24625520adcdeea92be949ced4d7a8c21f2bfbaeca2cce7be653866",
      "assetIds": []
    },
    {
      "x": 109,
      "y": 21,
      "size": 1,
      "price": "1011000000000000000000",
      "reserved": "",
      "salt": "0x1d3aeb769bd96c9896691bda92f8b39bc7318a9093fe34f2150333eb990d7e98",
      "assetIds": []
    },
    {
      "x": 110,
      "y": 6,
      "size": 1,
      "price": "4683000000000000000000",
      "reserved": "",
      "salt": "0x09bca719a0f6941b1bf6371c687d30ec0878b35eb6bbf5461d7395efecc37505",
      "assetIds": [
        "55464657044963196816950587289035428064568320970692304673817341489688428423170",
        "55464657044963196816950587289035428064568320970692304673817341489688428423168",
        "55464657044963196816950587289035428064568320970692304673817341489688445192192"
      ]
    },
    {
      "x": 110,
      "y": 7,
      "size": 1,
      "price": "1011000000000000000000",
      "reserved": "",
      "salt": "0x9a9f47d8e785a9944ae768c1599032a6c287238b6ce0ea71624e9d52eb62e480",
      "assetIds": []
    },
    {
      "x": 110,
      "y": 8,
      "size": 1,
      "price": "4683000000000000000000",
      "reserved": "",
      "salt": "0x454b4140984716e6c974787c46d4377344f58fa152803fa0a1d8ff9df237f0a0",
      "assetIds": [
        "55464657044963196816950587289035428064568320970692304673817341489688428423171",
        "55464657044963196816950587289035428064568320970692304673817341489688428423168",
        "55464657044963196816950587289035428064568320970692304673817341489688428423169"
      ]
    },
    {
      "x": 110,
      "y": 12,
      "size": 1,
      "price": "1011000000000000000000",
      "reserved": "",
      "salt": "0x1de1ecff146210b637faa85dec8d9e0d7d89a48ccfb09c35a460d8a8f120bff7",
      "assetIds": []
    },
    {
      "x": 110,
      "y": 13,
      "size": 1,
      "price": "1011000000000000000000",
      "reserved": "",
      "salt": "0xdba95391f791db2fc38e3fc9422452c1d1eb862114142ec8dce17f5970d63d2f",
      "assetIds": []
    },
    {
      "x": 110,
      "y": 14,
      "size": 1,
      "price": "1011000000000000000000",
      "reserved": "",
      "salt": "0xcf76c682059ac1267eeeee240873ecc074e6bb50887568c9043fe77a6bb4cb92",
      "assetIds": []
    },
    {
      "x": 110,
      "y": 15,
      "size": 1,
      "price": "1011000000000000000000",
      "reserved": "",
      "salt": "0x04cd49effc212b35b5a0309ebb1760d6c7bc0acd8545d1c51c64b3f0ec6edc6f",
      "assetIds": []
    },
    {
      "x": 110,
      "y": 16,
      "size": 1,
      "price": "1011000000000000000000",
      "reserved": "",
      "salt": "0x2d426b202ef5d5697221526bc9267b547a9e73fb20b56a197262b9d272134242",
      "assetIds": []
    },
    {
      "x": 110,
      "y": 17,
      "size": 1,
      "price": "1011000000000000000000",
      "reserved": "",
      "salt": "0x94faf41a1bbf9cd040aa7d2f6d7a59f9b5b7dff864fd19205f8af3188061c68e",
      "assetIds": []
    },
    {
      "x": 110,
      "y": 21,
      "size": 1,
      "price": "1011000000000000000000",
      "reserved": "",
      "salt": "0xb654cf02824484ec41b9db54dfbde78ce8cabe1b4ef089f1b4e7d9fa812a3d80",
      "assetIds": []
    },
    {
      "x": 111,
      "y": 6,
      "size": 1,
      "price": "4683000000000000000000",
      "reserved": "",
      "salt": "0xd4aacd5cb90b1fe417c14bb36a88835858e6bfb262e3721092bd9161838bf1ec",
      "assetIds": [
        "55464657044963196816950587289035428064568320970692304673817341489688428423170",
        "55464657044963196816950587289035428064568320970692304673817341489688428423168",
        "55464657044963196816950587289035428064568320970692304673817341489688445192192"
      ]
    },
    {
      "x": 111,
      "y": 7,
      "size": 1,
      "price": "1011000000000000000000",
      "reserved": "",
      "salt": "0xfa4e47f74e50bbb78f348faa09b4d7218fa1656fd6ba16513aa5c6009aa26613",
      "assetIds": []
    },
    {
      "x": 111,
      "y": 8,
      "size": 1,
      "price": "1011000000000000000000",
      "reserved": "",
      "salt": "0x0fa33dc44825c0f8cf6d830396f4233c7cdaabef8fa3c17f6e7a7921490f3918",
      "assetIds": []
    },
    {
      "x": 111,
      "y": 9,
      "size": 1,
      "price": "4683000000000000000000",
      "reserved": "",
      "salt": "0x17eb97cff918d2110fcdb6139efbf53bf0ab20d773c8df2afec4dd33a20e1c86",
      "assetIds": [
        "55464657044963196816950587289035428064568320970692304673817341489688428423171",
        "55464657044963196816950587289035428064568320970692304673817341489688428423168",
        "55464657044963196816950587289035428064568320970692304673817341489688428423169"
      ]
    },
    {
      "x": 111,
      "y": 10,
      "size": 1,
      "price": "4683000000000000000000",
      "reserved": "",
      "salt": "0x303bc9a18d8fc954e368976a77db1e2d23ec8e4503f32394e601072b3892384f",
      "assetIds": [
        "55464657044963196816950587289035428064568320970692304673817341489688428423171",
        "55464657044963196816950587289035428064568320970692304673817341489688428423168",
        "55464657044963196816950587289035428064568320970692304673817341489688428423169"
      ]
    },
    {
      "x": 111,
      "y": 11,
      "size": 1,
      "price": "4683000000000000000000",
      "reserved": "",
      "salt": "0x51256b0ced15e3226295020e07f8680db22b9d28bbdea6e3c6d93952605e883c",
      "assetIds": [
        "55464657044963196816950587289035428064568320970692304673817341489688428423171",
        "55464657044963196816950587289035428064568320970692304673817341489688428423168",
        "55464657044963196816950587289035428064568320970692304673817341489688428423169"
      ]
    },
    {
      "x": 111,
      "y": 15,
      "size": 1,
      "price": "1011000000000000000000",
      "reserved": "",
      "salt": "0x746faae015a18e554279e7e8e8a4c7ede55c299bdad5a159db45ee0fff26dc3e",
      "assetIds": []
    },
    {
      "x": 111,
      "y": 16,
      "size": 1,
      "price": "1011000000000000000000",
      "reserved": "",
      "salt": "0xbacffefb55ddba5783d4b1505c6f8b7dd89357e10d978002101683a88a92719c",
      "assetIds": []
    },
    {
      "x": 111,
      "y": 17,
      "size": 1,
      "price": "1011000000000000000000",
      "reserved": "",
      "salt": "0xaea91dcb018aa5e3926457d64b62c2aa77e5727560f7a3e974d96e2e10e44f80",
      "assetIds": []
    },
    {
      "x": 111,
      "y": 21,
      "size": 1,
      "price": "4683000000000000000000",
      "reserved": "",
      "salt": "0x8a726fe226651ee587f88b60f33ff1e15d20b356f75485d53dc31eb82e89279f",
      "assetIds": [
        "55464657044963196816950587289035428064568320970692304673817341489688428423170",
        "55464657044963196816950587289035428064568320970692304673817341489688428423168",
        "55464657044963196816950587289035428064568320970692304673817341489688445192192"
      ]
    },
    {
      "x": 112,
      "y": 6,
      "size": 1,
      "price": "4683000000000000000000",
      "reserved": "",
      "salt": "0x7331262f90da44ecace54a0f36514b35c9cba653f1dc537153963389fce13cf7",
      "assetIds": [
        "55464657044963196816950587289035428064568320970692304673817341489688428423171",
        "55464657044963196816950587289035428064568320970692304673817341489688428423168",
        "55464657044963196816950587289035428064568320970692304673817341489688428423169"
      ]
    },
    {
      "x": 112,
      "y": 7,
      "size": 1,
      "price": "1011000000000000000000",
      "reserved": "",
      "salt": "0x55a8f4a6e9a5eeac71e2e5b6d8d33d3df99a8140e91908a787fba910a4138f77",
      "assetIds": []
    },
    {
      "x": 112,
      "y": 8,
      "size": 1,
      "price": "1011000000000000000000",
      "reserved": "",
      "salt": "0x10e70d2b07e0ffd99bdc85b092cb76928a19c1dc9e3d10999582be60ce339685",
      "assetIds": []
    },
    {
      "x": 112,
      "y": 9,
      "size": 1,
      "price": "1011000000000000000000",
      "reserved": "",
      "salt": "0x993d2f31d7ecc7019094bbec2cdd8aa2c582709ff6ace50baf21eafe34f54862",
      "assetIds": []
    },
    {
      "x": 112,
      "y": 10,
      "size": 1,
      "price": "1011000000000000000000",
      "reserved": "",
      "salt": "0xe839f07c29a2f8d7dfe3b755f7ea7dfa12a084150f10d5340d35529be6500cc8",
      "assetIds": []
    },
    {
      "x": 112,
      "y": 11,
      "size": 1,
      "price": "1011000000000000000000",
      "reserved": "",
      "salt": "0x23cb8767a838b5939a05324eeb3cf691f255435576186b94957b45a3df49118c",
      "assetIds": []
    },
    {
      "x": 112,
      "y": 15,
      "size": 1,
      "price": "1011000000000000000000",
      "reserved": "",
      "salt": "0x0709c4d81251511dbb46577e93dd5dd183cebda5674b0533539fe5d8adc2674e",
      "assetIds": []
    },
    {
      "x": 112,
      "y": 16,
      "size": 1,
      "price": "1011000000000000000000",
      "reserved": "",
      "salt": "0xae2b797294f0e4a78c623d0d55da25c2231a3199f3d67416ce7c583f4256a115",
      "assetIds": []
    },
    {
      "x": 112,
      "y": 17,
      "size": 1,
      "price": "1011000000000000000000",
      "reserved": "",
      "salt": "0xb293bffaee69fcc9cb90719a476803271fdac220cc5507ae49103297a1d2490d",
      "assetIds": []
    },
    {
      "x": 112,
      "y": 21,
      "size": 1,
      "price": "4683000000000000000000",
      "reserved": "",
      "salt": "0xe2b40666ba7de0b749f0cb54cfa333c3a2f644a95c531b4e3abdf59b792f9b29",
      "assetIds": [
        "55464657044963196816950587289035428064568320970692304673817341489688428423171",
        "55464657044963196816950587289035428064568320970692304673817341489688428423168",
        "55464657044963196816950587289035428064568320970692304673817341489688428423169"
      ]
    },
    {
      "x": 113,
      "y": 6,
      "size": 1,
      "price": "4683000000000000000000",
      "reserved": "",
      "salt": "0x7e4e2358e6be60cb28f188128aaa00f04879a2c737c7a2c2e4a7ba862ee45f4e",
      "assetIds": [
        "55464657044963196816950587289035428064568320970692304673817341489688428423170",
        "55464657044963196816950587289035428064568320970692304673817341489688428423168",
        "55464657044963196816950587289035428064568320970692304673817341489688445192192"
      ]
    },
    {
      "x": 113,
      "y": 7,
      "size": 1,
      "price": "4683000000000000000000",
      "reserved": "",
      "salt": "0xd4450ab444f19e4dd16497fc61dbbf0eb242d01179749a17522f7fe45ebbf153",
      "assetIds": [
        "55464657044963196816950587289035428064568320970692304673817341489688428423170",
        "55464657044963196816950587289035428064568320970692304673817341489688428423168",
        "55464657044963196816950587289035428064568320970692304673817341489688445192192"
      ]
    },
    {
      "x": 113,
      "y": 8,
      "size": 1,
      "price": "4683000000000000000000",
      "reserved": "",
      "salt": "0xd7c935a3e52ae4647da2a8d2d20a39df3ac1384500be956f8fb79d1c5f17d193",
      "assetIds": [
        "55464657044963196816950587289035428064568320970692304673817341489688428423170",
        "55464657044963196816950587289035428064568320970692304673817341489688428423168",
        "55464657044963196816950587289035428064568320970692304673817341489688445192192"
      ]
    },
    {
      "x": 113,
      "y": 9,
      "size": 1,
      "price": "4683000000000000000000",
      "reserved": "",
      "salt": "0x1adb5a3eff4ec2222e1b5cfa86d43000f1d266fc297abed2f3e306bdea37489c",
      "assetIds": [
        "55464657044963196816950587289035428064568320970692304673817341489688428423170",
        "55464657044963196816950587289035428064568320970692304673817341489688428423168",
        "55464657044963196816950587289035428064568320970692304673817341489688445192192"
      ]
    },
    {
      "x": 113,
      "y": 10,
      "size": 1,
      "price": "4683000000000000000000",
      "reserved": "",
      "salt": "0x46271ff2694b2198ffbfc51617821d2d1770d355620d36f664f8aa6c4a3c12c8",
      "assetIds": [
        "55464657044963196816950587289035428064568320970692304673817341489688428423170",
        "55464657044963196816950587289035428064568320970692304673817341489688428423168",
        "55464657044963196816950587289035428064568320970692304673817341489688445192192"
      ]
    },
    {
      "x": 113,
      "y": 11,
      "size": 1,
      "price": "4683000000000000000000",
      "reserved": "",
      "salt": "0x2654ac86bed62073993275cbfff79ad5d1c1114a2cb645ecca618348293e4305",
      "assetIds": [
        "55464657044963196816950587289035428064568320970692304673817341489688428423171",
        "55464657044963196816950587289035428064568320970692304673817341489688428423168",
        "55464657044963196816950587289035428064568320970692304673817341489688428423169"
      ]
    },
    {
      "x": 113,
      "y": 15,
      "size": 1,
      "price": "1011000000000000000000",
      "reserved": "",
      "salt": "0x1e5801137228095d0b5267a768a8a55e54d63732d7e66ea2d6216e69eb50355f",
      "assetIds": []
    },
    {
      "x": 113,
      "y": 16,
      "size": 1,
      "price": "1011000000000000000000",
      "reserved": "",
      "salt": "0x3bae5e6002a0fd5992526ed417273835cb1c7a71b8c7eb92274e45b9643d1dfa",
      "assetIds": []
    },
    {
      "x": 113,
      "y": 17,
      "size": 1,
      "price": "1011000000000000000000",
      "reserved": "",
      "salt": "0x921f25501937763a9223ccfbf62134d34ff6056ed5b4b63d8c5cb98e6c627402",
      "assetIds": []
    },
    {
      "x": 113,
      "y": 21,
      "size": 1,
      "price": "4683000000000000000000",
      "reserved": "",
      "salt": "0x3aca45f2def808c6803646f399e17c0d716def1ab20fdd47c48cfd360951eaf4",
      "assetIds": [
        "55464657044963196816950587289035428064568320970692304673817341489688428423171",
        "55464657044963196816950587289035428064568320970692304673817341489688428423168",
        "55464657044963196816950587289035428064568320970692304673817341489688428423169"
      ]
    },
    {
      "x": 114,
      "y": 0,
      "size": 1,
      "price": "4683000000000000000000",
      "reserved": "",
      "salt": "0x978b38f5ec73190ce856998bd595a2309d3719c9c1847f2300906cc2f45cd3fe",
      "assetIds": [
        "55464657044963196816950587289035428064568320970692304673817341489688428423170",
        "55464657044963196816950587289035428064568320970692304673817341489688428423168",
        "55464657044963196816950587289035428064568320970692304673817341489688445192192"
      ]
    },
    {
      "x": 114,
      "y": 1,
      "size": 1,
      "price": "4683000000000000000000",
      "reserved": "",
      "salt": "0xeb35bcccd9be4ffdb27e9cc5e0ed9d3f7d8c4c37050a018778d0f61590e7b21c",
      "assetIds": [
        "55464657044963196816950587289035428064568320970692304673817341489688428423170",
        "55464657044963196816950587289035428064568320970692304673817341489688428423168",
        "55464657044963196816950587289035428064568320970692304673817341489688445192192"
      ]
    },
    {
      "x": 114,
      "y": 2,
      "size": 1,
      "price": "4683000000000000000000",
      "reserved": "",
      "salt": "0xc3cb3cc2d148ba0857087a83b6f9a3df343317cb3d62baa7bc6a82b7d16fe911",
      "assetIds": [
        "55464657044963196816950587289035428064568320970692304673817341489688428423170",
        "55464657044963196816950587289035428064568320970692304673817341489688428423168",
        "55464657044963196816950587289035428064568320970692304673817341489688445192192"
      ]
    },
    {
      "x": 114,
      "y": 18,
      "size": 1,
      "price": "4683000000000000000000",
      "reserved": "",
      "salt": "0xcd842df50f380598bcd4efee1094273247fb0a818265f77e3449e44d72832b19",
      "assetIds": [
        "55464657044963196816950587289035428064568320970692304673817341489688428423170",
        "55464657044963196816950587289035428064568320970692304673817341489688428423168",
        "55464657044963196816950587289035428064568320970692304673817341489688445192192"
      ]
    },
    {
      "x": 114,
      "y": 19,
      "size": 1,
      "price": "4683000000000000000000",
      "reserved": "",
      "salt": "0x72f81055e0380497da828472cd7bf7c71f34742fcc05a645daca397874f94102",
      "assetIds": [
        "55464657044963196816950587289035428064568320970692304673817341489688428423171",
        "55464657044963196816950587289035428064568320970692304673817341489688428423168",
        "55464657044963196816950587289035428064568320970692304673817341489688428423169"
      ]
    },
    {
      "x": 114,
      "y": 20,
      "size": 1,
      "price": "4683000000000000000000",
      "reserved": "",
      "salt": "0x8dd14d503e903f1636f9b9248a4deb0d9914418d405ae7c1eac66c0a636cee09",
      "assetIds": [
        "55464657044963196816950587289035428064568320970692304673817341489688428423171",
        "55464657044963196816950587289035428064568320970692304673817341489688428423168",
        "55464657044963196816950587289035428064568320970692304673817341489688428423169"
      ]
    },
    {
      "x": 114,
      "y": 21,
      "size": 1,
      "price": "1011000000000000000000",
      "reserved": "",
      "salt": "0xac24f92a38c0efa1777616abd91e3922ca3a16d29f6dea49ba0c0ca1051d1236",
      "assetIds": []
    },
    {
      "x": 115,
      "y": 0,
      "size": 1,
      "price": "1011000000000000000000",
      "reserved": "",
      "salt": "0x76fcb35d1e44a031884b28d8571dedf436b37ef93c02a297f5561676b8f26cea",
      "assetIds": []
    },
    {
      "x": 115,
      "y": 1,
      "size": 1,
      "price": "1011000000000000000000",
      "reserved": "",
      "salt": "0x8456395f526a3a14b90dfd0c8786bf2bb5e8c4c22bdd2d7a34ef8f35099cf959",
      "assetIds": []
    },
    {
      "x": 115,
      "y": 2,
      "size": 1,
      "price": "1011000000000000000000",
      "reserved": "",
      "salt": "0x5c30933667612894b91f56b270a02dc15582699e75986bbb26de99e314ba68f4",
      "assetIds": []
    },
    {
      "x": 115,
      "y": 18,
      "size": 1,
      "price": "1011000000000000000000",
      "reserved": "",
      "salt": "0xfcaff7b5492b0b71377374c1d9ac03b41f2e4514bf296c3a152a76f81501ca17",
      "assetIds": []
    },
    {
      "x": 115,
      "y": 19,
      "size": 1,
      "price": "1011000000000000000000",
      "reserved": "",
      "salt": "0x7dc9a89183689d3011919438bc40c6ab68a5ad2e6f12c06f78fdd2c0bb5395fc",
      "assetIds": []
    },
    {
      "x": 115,
      "y": 20,
      "size": 1,
      "price": "1011000000000000000000",
      "reserved": "",
      "salt": "0xa5b5142f7cdc380bf6926fe9f70c05e0bc9612f913f447debcdac3765304fd21",
      "assetIds": []
    },
    {
      "x": 115,
      "y": 21,
      "size": 1,
      "price": "1011000000000000000000",
      "reserved": "",
      "salt": "0xf6bb0c394656727c5ac656a35bfc2119b0baed0f5164a568597a526497f22a2c",
      "assetIds": []
    },
    {
      "x": 116,
      "y": 0,
      "size": 1,
      "price": "1011000000000000000000",
      "reserved": "",
      "salt": "0x6276792a635b1181886ec9cf3a32405d46cb6551002cbf641831ea00ea5e112c",
      "assetIds": []
    },
    {
      "x": 116,
      "y": 1,
      "size": 1,
      "price": "1011000000000000000000",
      "reserved": "",
      "salt": "0x23e49bc8ca84b19bb17229d6f96ed901e9e5b06e988f1c612abd38676dc4ff34",
      "assetIds": []
    },
    {
      "x": 116,
      "y": 2,
      "size": 1,
      "price": "1011000000000000000000",
      "reserved": "",
      "salt": "0xd18179b0e9442642874de50613fc85b0f0b71431abc66442d6bdafe3552fd5e8",
      "assetIds": []
    },
    {
      "x": 116,
      "y": 18,
      "size": 1,
      "price": "4683000000000000000000",
      "reserved": "",
      "salt": "0x9a8e4af810a91b972dc985adc306ef4c0fc2716f121c24f5900abc65ee61286b",
      "assetIds": [
        "55464657044963196816950587289035428064568320970692304673817341489688428423170",
        "55464657044963196816950587289035428064568320970692304673817341489688428423168",
        "55464657044963196816950587289035428064568320970692304673817341489688445192192"
      ]
    },
    {
      "x": 116,
      "y": 19,
      "size": 1,
      "price": "4683000000000000000000",
      "reserved": "",
      "salt": "0x3c11faf13d4838a8e19a480de9a57ece353e58c51e9b4617a6f73d7c2db2759d",
      "assetIds": [
        "55464657044963196816950587289035428064568320970692304673817341489688428423170",
        "55464657044963196816950587289035428064568320970692304673817341489688428423168",
        "55464657044963196816950587289035428064568320970692304673817341489688445192192"
      ]
    },
    {
      "x": 116,
      "y": 20,
      "size": 1,
      "price": "4683000000000000000000",
      "reserved": "",
      "salt": "0x70825cf45c67ceeccf925f3dc0032d8c0a28a6838e55b8ad8ba4edea66de8156",
      "assetIds": [
        "55464657044963196816950587289035428064568320970692304673817341489688428423171",
        "55464657044963196816950587289035428064568320970692304673817341489688428423168",
        "55464657044963196816950587289035428064568320970692304673817341489688428423169"
      ]
    },
    {
      "x": 116,
      "y": 21,
      "size": 1,
      "price": "1011000000000000000000",
      "reserved": "",
      "salt": "0xc0da05b7e785edb098e743ebacfa4ff0204457b89ca8bd9a8634d89a86166c49",
      "assetIds": []
    },
    {
      "x": 117,
      "y": 0,
      "size": 1,
      "price": "1011000000000000000000",
      "reserved": "",
      "salt": "0x9db3f4d3e80b08888e59353e3f4a4220ab3ab2e01f3da8858a33db16bbc7000c",
      "assetIds": []
    },
    {
      "x": 117,
      "y": 1,
      "size": 1,
      "price": "1011000000000000000000",
      "reserved": "",
      "salt": "0x2ce65f4b2cb7b5b2b4ee6fc1ea6131c73d9efada65ce54dcebafa8e3482db6bf",
      "assetIds": []
    },
    {
      "x": 117,
      "y": 2,
      "size": 1,
      "price": "1011000000000000000000",
      "reserved": "",
      "salt": "0x2dc8b1f81be6eec19dacb0dec30be1e39a69b2fd18264739bb3c38409ef2c781",
      "assetIds": []
    },
    {
      "x": 117,
      "y": 3,
      "size": 1,
      "price": "1011000000000000000000",
      "reserved": "",
      "salt": "0xe262b2840d8e97653ccec69f07c9c3fff2cc80a032f99ce8946db3ab02cbef23",
      "assetIds": []
    },
    {
      "x": 117,
      "y": 4,
      "size": 1,
      "price": "1011000000000000000000",
      "reserved": "",
      "salt": "0x3cd22766a312e18099a32b1ba486f1969c5feb7e75296979a0b754487e0d7029",
      "assetIds": []
    },
    {
      "x": 117,
      "y": 5,
      "size": 1,
      "price": "1011000000000000000000",
      "reserved": "",
      "salt": "0xe089772d7abb9b717ff176f1662f37b4714db549207bbbd82c88d051518a54dd",
      "assetIds": []
    },
    {
      "x": 117,
      "y": 21,
      "size": 1,
      "price": "1011000000000000000000",
      "reserved": "",
      "salt": "0x0060762a528d95d449709f33908ebd614d6c0ac1186d74632f579aefde18c6af",
      "assetIds": []
    },
    {
      "x": 118,
      "y": 0,
      "size": 1,
      "price": "1011000000000000000000",
      "reserved": "",
      "salt": "0x2dc651ba7ab2a04940875909522043bc793b1c874fb4dfe15a044b62f8edc983",
      "assetIds": []
    },
    {
      "x": 118,
      "y": 1,
      "size": 1,
      "price": "1011000000000000000000",
      "reserved": "",
      "salt": "0x307697448e6441b54bc9dd283808de9cacdcb799493bae135b6fd75aa8b95a30",
      "assetIds": []
    },
    {
      "x": 118,
      "y": 2,
      "size": 1,
      "price": "1011000000000000000000",
      "reserved": "",
      "salt": "0x1b3be9c38a59a4a14a2bf97ae68127133466d93d019af883d9f8e73b04b576a6",
      "assetIds": []
    },
    {
      "x": 118,
      "y": 3,
      "size": 1,
      "price": "1011000000000000000000",
      "reserved": "",
      "salt": "0x2e3818c7f5352f3a2d8098f0240eaaa3eeecbddc3c3e9a3fe42b99a7f2fb8c3c",
      "assetIds": []
    },
    {
      "x": 118,
      "y": 4,
      "size": 1,
      "price": "1011000000000000000000",
      "reserved": "",
      "salt": "0x477a39b046de56cf4c8813f3cdc06dea7732d4290d658bb8d70cd95313f1f443",
      "assetIds": []
    },
    {
      "x": 118,
      "y": 5,
      "size": 1,
      "price": "1011000000000000000000",
      "reserved": "",
      "salt": "0x71119cede0c6a7897f4e0ff2d780a5101a664ef4d80f1a2b0bce57fd473f7924",
      "assetIds": []
    },
    {
      "x": 118,
      "y": 21,
      "size": 1,
      "price": "1011000000000000000000",
      "reserved": "",
      "salt": "0x11f6aa2f59d67551d13207225856098c78a83824eae1b4dcabef334c977bdfa7",
      "assetIds": []
    },
    {
      "x": 119,
      "y": 0,
      "size": 1,
      "price": "4683000000000000000000",
      "reserved": "",
      "salt": "0x20b24ab45d8897865b0865ceb5a02f181b53d48db8ce3946a81a840e5acbd1da",
      "assetIds": [
        "55464657044963196816950587289035428064568320970692304673817341489688428423170",
        "55464657044963196816950587289035428064568320970692304673817341489688428423168",
        "55464657044963196816950587289035428064568320970692304673817341489688445192192"
      ]
    },
    {
      "x": 119,
      "y": 1,
      "size": 1,
      "price": "4683000000000000000000",
      "reserved": "",
      "salt": "0x2e384de7cf1b40095499f74f5b1e7db106865a50a2b3459868fdd4c07a51b106",
      "assetIds": [
        "55464657044963196816950587289035428064568320970692304673817341489688428423171",
        "55464657044963196816950587289035428064568320970692304673817341489688428423168",
        "55464657044963196816950587289035428064568320970692304673817341489688428423169"
      ]
    },
    {
      "x": 119,
      "y": 2,
      "size": 1,
      "price": "4683000000000000000000",
      "reserved": "",
      "salt": "0x7961a7ebb1bb2e8b02d04acc22522397d0f7146e3c512e38574012fb7f5687ff",
      "assetIds": [
        "55464657044963196816950587289035428064568320970692304673817341489688428423171",
        "55464657044963196816950587289035428064568320970692304673817341489688428423168",
        "55464657044963196816950587289035428064568320970692304673817341489688428423169"
      ]
    },
    {
      "x": 119,
      "y": 3,
      "size": 1,
      "price": "4683000000000000000000",
      "reserved": "",
      "salt": "0x2dd144309a9fa20ed23af98d0425301ef4ea3f798890d4824c0b1aa91670cedd",
      "assetIds": [
        "55464657044963196816950587289035428064568320970692304673817341489688428423171",
        "55464657044963196816950587289035428064568320970692304673817341489688428423168",
        "55464657044963196816950587289035428064568320970692304673817341489688428423169"
      ]
    },
    {
      "x": 119,
      "y": 4,
      "size": 1,
      "price": "4683000000000000000000",
      "reserved": "",
      "salt": "0xb917d5f8ea19599c24eec43c0ab646c627935c74a20b26f19696f4eea500b3db",
      "assetIds": [
        "55464657044963196816950587289035428064568320970692304673817341489688428423170",
        "55464657044963196816950587289035428064568320970692304673817341489688428423168",
        "55464657044963196816950587289035428064568320970692304673817341489688445192192"
      ]
    },
    {
      "x": 119,
      "y": 5,
      "size": 1,
      "price": "4683000000000000000000",
      "reserved": "",
      "salt": "0xf83e54a57c9a6cc4b7289e0f7f5435a4970cf07e28420fe38808226f4eee501a",
      "assetIds": [
        "55464657044963196816950587289035428064568320970692304673817341489688428423171",
        "55464657044963196816950587289035428064568320970692304673817341489688428423168",
        "55464657044963196816950587289035428064568320970692304673817341489688428423169"
      ]
    },
    {
      "x": 119,
      "y": 21,
      "size": 1,
      "price": "1011000000000000000000",
      "reserved": "",
      "salt": "0x9bee5f4f00d75a396753e3d5fe96233415308a3cc24dfcfa4f163fbb79b1d2ab",
      "assetIds": []
    },
    {
      "x": 120,
      "y": 9,
      "size": 1,
      "price": "4683000000000000000000",
      "reserved": "",
      "salt": "0xdb709d0fd54a8ca331a991a9201e5146f4241cba60b25b8bd330d0a40e626410",
      "assetIds": [
        "55464657044963196816950587289035428064568320970692304673817341489688428423170",
        "55464657044963196816950587289035428064568320970692304673817341489688428423168",
        "55464657044963196816950587289035428064568320970692304673817341489688445192192"
      ]
    },
    {
      "x": 120,
      "y": 10,
      "size": 1,
      "price": "4683000000000000000000",
      "reserved": "",
      "salt": "0xf778df449dd15b63f96b35f0ac91719fe5dbadbb57444fdadf9bd0ece8cc2c6c",
      "assetIds": [
        "55464657044963196816950587289035428064568320970692304673817341489688428423170",
        "55464657044963196816950587289035428064568320970692304673817341489688428423168",
        "55464657044963196816950587289035428064568320970692304673817341489688445192192"
      ]
    },
    {
      "x": 120,
      "y": 11,
      "size": 1,
      "price": "4683000000000000000000",
      "reserved": "",
      "salt": "0x09df69d258df19b7dc23228c19cb96a56e799c0415b632bd895106aaad4e9884",
      "assetIds": [
        "55464657044963196816950587289035428064568320970692304673817341489688428423171",
        "55464657044963196816950587289035428064568320970692304673817341489688428423168",
        "55464657044963196816950587289035428064568320970692304673817341489688428423169"
      ]
    },
    {
      "x": 120,
      "y": 18,
      "size": 1,
      "price": "4683000000000000000000",
      "reserved": "",
      "salt": "0x5bc5f6bb86d5466e1def54bf1c20f59cac3f55f5966487467d6a4a462d0819a7",
      "assetIds": [
        "55464657044963196816950587289035428064568320970692304673817341489688428423171",
        "55464657044963196816950587289035428064568320970692304673817341489688428423168",
        "55464657044963196816950587289035428064568320970692304673817341489688428423169"
      ]
    },
    {
      "x": 120,
      "y": 19,
      "size": 1,
      "price": "1011000000000000000000",
      "reserved": "",
      "salt": "0xe250018ef67451ac5658b9b4d4dfb65f3a051fe0651068e71331459ad0bb3307",
      "assetIds": []
    },
    {
      "x": 120,
      "y": 20,
      "size": 1,
      "price": "1011000000000000000000",
      "reserved": "",
      "salt": "0x225ea73fee81f2810dc9eaa2c07e071ad80ff7e10aa976b063718fb4a610da8f",
      "assetIds": []
    },
    {
      "x": 120,
      "y": 21,
      "size": 1,
      "price": "1011000000000000000000",
      "reserved": "",
      "salt": "0x3b8de1e7684e2aad96d03491e2e17d8fce513e4e965c7bc0fec3ebe333400eec",
      "assetIds": []
    },
    {
      "x": 121,
      "y": 9,
      "size": 1,
      "price": "1011000000000000000000",
      "reserved": "",
      "salt": "0x85df56f7bbedcbc48457f257be361bfed45692eae430fe3e3b440b1d668dc9ae",
      "assetIds": []
    },
    {
      "x": 121,
      "y": 10,
      "size": 1,
      "price": "1011000000000000000000",
      "reserved": "",
      "salt": "0xe9bd94a0ed5c1e30211ccd0c021538d1d4ec8f096bc35e0a81d20fe5c9b73f09",
      "assetIds": []
    },
    {
      "x": 121,
      "y": 11,
      "size": 1,
      "price": "4683000000000000000000",
      "reserved": "",
      "salt": "0x745c478d71444e3868b8c3d430e4d33009f7074c1fe605df23a930dc6bd212fc",
      "assetIds": [
        "55464657044963196816950587289035428064568320970692304673817341489688428423171",
        "55464657044963196816950587289035428064568320970692304673817341489688428423168",
        "55464657044963196816950587289035428064568320970692304673817341489688428423169"
      ]
    },
    {
      "x": 121,
      "y": 18,
      "size": 1,
      "price": "4683000000000000000000",
      "reserved": "",
      "salt": "0x28f2a280b47109fb912882bbde73a6b0318ed6177b1bb42eca50f2e9757a275e",
      "assetIds": [
        "55464657044963196816950587289035428064568320970692304673817341489688428423171",
        "55464657044963196816950587289035428064568320970692304673817341489688428423168",
        "55464657044963196816950587289035428064568320970692304673817341489688428423169"
      ]
    },
    {
      "x": 121,
      "y": 19,
      "size": 1,
      "price": "1011000000000000000000",
      "reserved": "",
      "salt": "0x711b379a33b15cdfd4edcce4819cba86dfb0e3ceef3af06f497a0839ecda09b1",
      "assetIds": []
    },
    {
      "x": 121,
      "y": 20,
      "size": 1,
      "price": "1011000000000000000000",
      "reserved": "",
      "salt": "0x7b5d090b448d8fc8d6ff35e405acf62c0a9f062515622243d533c24b29a17ef1",
      "assetIds": []
    },
    {
      "x": 121,
      "y": 21,
      "size": 1,
      "price": "1011000000000000000000",
      "reserved": "",
      "salt": "0x063fd9be9d574b0b06add14f1b046f39d90efc2a44727af894ce2cd0badbd7af",
      "assetIds": []
    },
    {
      "x": 122,
      "y": 9,
      "size": 1,
      "price": "1011000000000000000000",
      "reserved": "",
      "salt": "0xd7b2abc5807dd8c260dc9167d63ed00b70ae94b286fffddfce0a30e1fac8a53f",
      "assetIds": []
    },
    {
      "x": 122,
      "y": 10,
      "size": 1,
      "price": "1011000000000000000000",
      "reserved": "",
      "salt": "0xc8abf020d99eb98e46423f4d1c672e20d07e932790bf043cd806a7df9cf7aa4a",
      "assetIds": []
    },
    {
      "x": 122,
      "y": 11,
      "size": 1,
      "price": "4683000000000000000000",
      "reserved": "",
      "salt": "0x5dbb0039cf04fe8854136dd5963199ed6e3bdef0251df0e8f9b4987fe7505439",
      "assetIds": [
        "55464657044963196816950587289035428064568320970692304673817341489688428423170",
        "55464657044963196816950587289035428064568320970692304673817341489688428423168",
        "55464657044963196816950587289035428064568320970692304673817341489688445192192"
      ]
    },
    {
      "x": 122,
      "y": 18,
      "size": 1,
      "price": "4683000000000000000000",
      "reserved": "",
      "salt": "0x26c7036cabe973e03181aba45440e8b9c995fc906f720e82fb62bd0abf41a3f4",
      "assetIds": [
        "55464657044963196816950587289035428064568320970692304673817341489688428423171",
        "55464657044963196816950587289035428064568320970692304673817341489688428423168",
        "55464657044963196816950587289035428064568320970692304673817341489688428423169"
      ]
    },
    {
      "x": 122,
      "y": 19,
      "size": 1,
      "price": "1011000000000000000000",
      "reserved": "",
      "salt": "0xf24d415d366aab16fcabf8d235902ec177bbff39494fcbe160e7bc7b23e469d3",
      "assetIds": []
    },
    {
      "x": 122,
      "y": 20,
      "size": 1,
      "price": "1011000000000000000000",
      "reserved": "",
      "salt": "0xae24be26c516e477c9ea68088740698f8038f4cbcbe7d2fa88edba8af657bebf",
      "assetIds": []
    },
    {
      "x": 122,
      "y": 21,
      "size": 1,
      "price": "1011000000000000000000",
      "reserved": "",
      "salt": "0x3a9b3f21632a81497a742993ee7e509d40d0083f11793407a1b8820b131dab3c",
      "assetIds": []
    },
    {
      "x": 123,
      "y": 6,
      "size": 1,
      "price": "4683000000000000000000",
      "reserved": "",
      "salt": "0x2da8b1e44862d843b6bfe9f60d783de17ecf285d2e775cf9aa7845765a2a77c3",
      "assetIds": [
        "55464657044963196816950587289035428064568320970692304673817341489688428423171",
        "55464657044963196816950587289035428064568320970692304673817341489688428423168",
        "55464657044963196816950587289035428064568320970692304673817341489688428423169"
      ]
    },
    {
      "x": 123,
      "y": 7,
      "size": 1,
      "price": "1011000000000000000000",
      "reserved": "",
      "salt": "0xc6fec65fb49f654ec6f8a3a374c918b364527a39e48ffc7dfbb1f6aca0a9114f",
      "assetIds": []
    },
    {
      "x": 123,
      "y": 8,
      "size": 1,
      "price": "1011000000000000000000",
      "reserved": "",
      "salt": "0x6e12b3889527aea3bd24d20173510ab0980fffcf2cb5854408b42cc0c7464bf5",
      "assetIds": []
    },
    {
      "x": 123,
      "y": 9,
      "size": 1,
      "price": "1011000000000000000000",
      "reserved": "",
      "salt": "0x3cab91a4da2a96d0ebee4ab53d5349c50b8ae93d0c1aca724c2ba9cf93d1e305",
      "assetIds": []
    },
    {
      "x": 123,
      "y": 10,
      "size": 1,
      "price": "1011000000000000000000",
      "reserved": "",
      "salt": "0xddc7045608fdfc4fdcaa33e2300abd431a444d97fa960e9c23dcf371983b55e9",
      "assetIds": []
    },
    {
      "x": 123,
      "y": 11,
      "size": 1,
      "price": "4683000000000000000000",
      "reserved": "",
      "salt": "0x0677b824b54fe1245c824edf2ace79ddd9930c1fddda3678fd00bc4ff4145401",
      "assetIds": [
        "55464657044963196816950587289035428064568320970692304673817341489688428423171",
        "55464657044963196816950587289035428064568320970692304673817341489688428423168",
        "55464657044963196816950587289035428064568320970692304673817341489688428423169"
      ]
    },
    {
      "x": 123,
      "y": 18,
      "size": 1,
      "price": "4683000000000000000000",
      "reserved": "",
      "salt": "0xed283f35dc8135f8acf549fadeea9267b5811e6c611110ef54d8c3c00ffd1545",
      "assetIds": [
        "55464657044963196816950587289035428064568320970692304673817341489688428423171",
        "55464657044963196816950587289035428064568320970692304673817341489688428423168",
        "55464657044963196816950587289035428064568320970692304673817341489688428423169"
      ]
    },
    {
      "x": 123,
      "y": 19,
      "size": 1,
      "price": "1011000000000000000000",
      "reserved": "",
      "salt": "0x3061842dccf3e8b59eeedbd839073ee966af480dda65b69816afb106cf7fc960",
      "assetIds": []
    },
    {
      "x": 123,
      "y": 20,
      "size": 1,
      "price": "1011000000000000000000",
      "reserved": "",
      "salt": "0x8995c82029cef2bf4091d2def77dc32affd3c980c6eeada686d239b366469834",
      "assetIds": []
    },
    {
      "x": 123,
      "y": 21,
      "size": 1,
      "price": "1011000000000000000000",
      "reserved": "",
      "salt": "0xbe39c62846da978dce55381331f54ab4b9a5122a4de14d4bd6f231338fda5329",
      "assetIds": []
    },
    {
      "x": 124,
      "y": 6,
      "size": 1,
      "price": "4683000000000000000000",
      "reserved": "",
      "salt": "0x39ee28fcc00e04c512bb0f87b1091ca7de1800960e0bf86af175d73b7330ad71",
      "assetIds": [
        "55464657044963196816950587289035428064568320970692304673817341489688428423170",
        "55464657044963196816950587289035428064568320970692304673817341489688428423168",
        "55464657044963196816950587289035428064568320970692304673817341489688445192192"
      ]
    },
    {
      "x": 124,
      "y": 7,
      "size": 1,
      "price": "1011000000000000000000",
      "reserved": "",
      "salt": "0x1ecdbd5fc9b907a5923f91081e4a3ce174e8d28d48fea69ba2ac2f585b706c84",
      "assetIds": []
    },
    {
      "x": 124,
      "y": 8,
      "size": 1,
      "price": "1011000000000000000000",
      "reserved": "",
      "salt": "0xe2709aafbbeebda699da1ed1aef3915edf542d37a2ac8ba9c0ae7220853293dc",
      "assetIds": []
    },
    {
      "x": 124,
      "y": 9,
      "size": 1,
      "price": "1011000000000000000000",
      "reserved": "",
      "salt": "0xfcf738871addd6359a6daad8da04c8ffb89f6c908a261e745554ada915e303c8",
      "assetIds": []
    },
    {
      "x": 124,
      "y": 10,
      "size": 1,
      "price": "1011000000000000000000",
      "reserved": "",
      "salt": "0x4cb5eb14a18f010155f561e3b406971886b26a720f5285008594f0c8a9d82a93",
      "assetIds": []
    },
    {
      "x": 124,
      "y": 11,
      "size": 1,
      "price": "4683000000000000000000",
      "reserved": "",
      "salt": "0xbfe9507a04c5211f7db73b12422702f2a656e8920c6b4b5dc30bc058e07b7141",
      "assetIds": [
        "55464657044963196816950587289035428064568320970692304673817341489688428423170",
        "55464657044963196816950587289035428064568320970692304673817341489688428423168",
        "55464657044963196816950587289035428064568320970692304673817341489688445192192"
      ]
    },
    {
      "x": 124,
      "y": 18,
      "size": 1,
      "price": "4683000000000000000000",
      "reserved": "",
      "salt": "0x9e544287949b72e8d6e915c0c0bd2eebd4fdd33be53dcd93400ede9ef7d48847",
      "assetIds": [
        "55464657044963196816950587289035428064568320970692304673817341489688428423171",
        "55464657044963196816950587289035428064568320970692304673817341489688428423168",
        "55464657044963196816950587289035428064568320970692304673817341489688428423169"
      ]
    },
    {
      "x": 124,
      "y": 19,
      "size": 1,
      "price": "1011000000000000000000",
      "reserved": "",
      "salt": "0x2ad9649da67a8230c57f7a373d14a6566363d04d7713823da9d57be05b0c625f",
      "assetIds": []
    },
    {
      "x": 124,
      "y": 20,
      "size": 1,
      "price": "1011000000000000000000",
      "reserved": "",
      "salt": "0xadc2b4050a4700a8c836ad816d59b58df77e1ee9236eb3300ae0820ff367967d",
      "assetIds": []
    },
    {
      "x": 124,
      "y": 21,
      "size": 1,
      "price": "1011000000000000000000",
      "reserved": "",
      "salt": "0xec88eef3d2e8d1ba539ac9b5b6e18b64d16ff2dba3571bb1f5825912bc6ada71",
      "assetIds": []
    },
    {
      "x": 125,
      "y": 6,
      "size": 1,
      "price": "4683000000000000000000",
      "reserved": "",
      "salt": "0xdb03d03c0d689831ed2f97195ee51dffe0c02d787b469dc85ff8bbf6b043fdc1",
      "assetIds": [
        "55464657044963196816950587289035428064568320970692304673817341489688428423170",
        "55464657044963196816950587289035428064568320970692304673817341489688428423168",
        "55464657044963196816950587289035428064568320970692304673817341489688445192192"
      ]
    },
    {
      "x": 125,
      "y": 7,
      "size": 1,
      "price": "4683000000000000000000",
      "reserved": "",
      "salt": "0x8fe8398b8cbdb7c5489cd7f85709d77712d528ee8823fcb239fc1c14502dea93",
      "assetIds": [
        "55464657044963196816950587289035428064568320970692304673817341489688428423170",
        "55464657044963196816950587289035428064568320970692304673817341489688428423168",
        "55464657044963196816950587289035428064568320970692304673817341489688445192192"
      ]
    },
    {
      "x": 125,
      "y": 8,
      "size": 1,
      "price": "4683000000000000000000",
      "reserved": "",
      "salt": "0x8a32293f40042f7a8290bf83d49bf6cf2902ff9172ec3fa63b25310ca9f074a7",
      "assetIds": [
        "55464657044963196816950587289035428064568320970692304673817341489688428423171",
        "55464657044963196816950587289035428064568320970692304673817341489688428423168",
        "55464657044963196816950587289035428064568320970692304673817341489688428423169"
      ]
    },
    {
      "x": 125,
      "y": 9,
      "size": 1,
      "price": "1011000000000000000000",
      "reserved": "",
      "salt": "0x62e5ae682c81c3f520dfd641d6a53ab9a54007d585adb164d37d5a1da182b441",
      "assetIds": []
    },
    {
      "x": 125,
      "y": 10,
      "size": 1,
      "price": "1011000000000000000000",
      "reserved": "",
      "salt": "0x579067c690b3e3abcd0ac5d5d7371e40e5db1b18fd02535671daecec71047d79",
      "assetIds": []
    },
    {
      "x": 125,
      "y": 11,
      "size": 1,
      "price": "4683000000000000000000",
      "reserved": "",
      "salt": "0xedaf173e60e0b0bbb5d085cb0cedbd71ef0cfdb9636aefa6e3a15ea7858db5ac",
      "assetIds": [
        "55464657044963196816950587289035428064568320970692304673817341489688428423170",
        "55464657044963196816950587289035428064568320970692304673817341489688428423168",
        "55464657044963196816950587289035428064568320970692304673817341489688445192192"
      ]
    },
    {
      "x": 125,
      "y": 18,
      "size": 1,
      "price": "4683000000000000000000",
      "reserved": "",
      "salt": "0x88c9247af47b2876c2a0743234e7cfab134d2f586a8fb7457a1c1f6147ff34a6",
      "assetIds": [
        "55464657044963196816950587289035428064568320970692304673817341489688428423171",
        "55464657044963196816950587289035428064568320970692304673817341489688428423168",
        "55464657044963196816950587289035428064568320970692304673817341489688428423169"
      ]
    },
    {
      "x": 125,
      "y": 19,
      "size": 1,
      "price": "1011000000000000000000",
      "reserved": "",
      "salt": "0x5aa400a56b9b3803baefe46b0654b1a344f02f0b99d8d8850b107c3b47d4431f",
      "assetIds": []
    },
    {
      "x": 125,
      "y": 20,
      "size": 1,
      "price": "1011000000000000000000",
      "reserved": "",
      "salt": "0x024531e8b8ca3991618f498263a019a65c419bc390e29a5cc8acffefd80969a2",
      "assetIds": []
    },
    {
      "x": 125,
      "y": 21,
      "size": 1,
      "price": "1011000000000000000000",
      "reserved": "",
      "salt": "0x7f6e19f49a3ab0139bccbb0bdcba648d2f15ca00c6afc1be3f1b09830b43bce6",
      "assetIds": []
    },
    {
      "x": 126,
      "y": 0,
      "size": 1,
      "price": "4683000000000000000000",
      "reserved": "",
      "salt": "0x7671a251c68ca24267e2fd2bd1b13ad8e8edee836d9985bee243b32bdf487dfc",
      "assetIds": [
        "55464657044963196816950587289035428064568320970692304673817341489688428423170",
        "55464657044963196816950587289035428064568320970692304673817341489688428423168",
        "55464657044963196816950587289035428064568320970692304673817341489688445192192"
      ]
    },
    {
      "x": 126,
      "y": 1,
      "size": 1,
      "price": "4683000000000000000000",
      "reserved": "",
      "salt": "0x99cd41e8717ded27cb36a3c25d24ae9f7ab825a2591cf5498813f87e96eb0f56",
      "assetIds": [
        "55464657044963196816950587289035428064568320970692304673817341489688428423170",
        "55464657044963196816950587289035428064568320970692304673817341489688428423168",
        "55464657044963196816950587289035428064568320970692304673817341489688445192192"
      ]
    },
    {
      "x": 126,
      "y": 2,
      "size": 1,
      "price": "4683000000000000000000",
      "reserved": "",
      "salt": "0x83e19480427d4a88d2ced94daeebbd19e35725d287a587ef7c84b4255e2d040b",
      "assetIds": [
        "55464657044963196816950587289035428064568320970692304673817341489688428423171",
        "55464657044963196816950587289035428064568320970692304673817341489688428423168",
        "55464657044963196816950587289035428064568320970692304673817341489688428423169"
      ]
    },
    {
      "x": 126,
      "y": 9,
      "size": 1,
      "price": "4683000000000000000000",
      "reserved": "",
      "salt": "0x269db2dc2703205b253621443070c78d28b7f73a991b7e163b6c6eb55c302c36",
      "assetIds": [
        "55464657044963196816950587289035428064568320970692304673817341489688428423170",
        "55464657044963196816950587289035428064568320970692304673817341489688428423168",
        "55464657044963196816950587289035428064568320970692304673817341489688445192192"
      ]
    },
    {
      "x": 126,
      "y": 10,
      "size": 1,
      "price": "1011000000000000000000",
      "reserved": "",
      "salt": "0xcafd27f68b92bbb0241ee153891fb8399ca8d6929560202c76ba1eb7e2fa028e",
      "assetIds": []
    },
    {
      "x": 126,
      "y": 11,
      "size": 1,
      "price": "1011000000000000000000",
      "reserved": "",
      "salt": "0x297ff0f1d5c282206fef8fd39b702e75d13963b19ed1cddd7cfce9940d20ec81",
      "assetIds": []
    },
    {
      "x": 126,
      "y": 12,
      "size": 1,
      "price": "1011000000000000000000",
      "reserved": "",
      "salt": "0xcfb0a2408abd26727ee6d65edc645d2724229e01a905b814890c02aeaa784dc2",
      "assetIds": []
    },
    {
      "x": 126,
      "y": 13,
      "size": 1,
      "price": "4683000000000000000000",
      "reserved": "",
      "salt": "0xeb332b6f63b54fb0571939ca5aca72939f2b1e0530f6c9fa90cd8cabcb9f5da3",
      "assetIds": [
        "55464657044963196816950587289035428064568320970692304673817341489688428423170",
        "55464657044963196816950587289035428064568320970692304673817341489688428423168",
        "55464657044963196816950587289035428064568320970692304673817341489688445192192"
      ]
    },
    {
      "x": 126,
      "y": 14,
      "size": 1,
      "price": "4683000000000000000000",
      "reserved": "",
      "salt": "0xa8302824360c02f98a96331685244f7797671cd2f3c94e4209206098afceee9b",
      "assetIds": [
        "55464657044963196816950587289035428064568320970692304673817341489688428423170",
        "55464657044963196816950587289035428064568320970692304673817341489688428423168",
        "55464657044963196816950587289035428064568320970692304673817341489688445192192"
      ]
    },
    {
      "x": 126,
      "y": 18,
      "size": 1,
      "price": "1011000000000000000000",
      "reserved": "",
      "salt": "0xd222d287bb83e57920cd787ed28fb847b25db9a81ae202f9a15c5182f7d3b558",
      "assetIds": []
    },
    {
      "x": 126,
      "y": 19,
      "size": 1,
      "price": "1011000000000000000000",
      "reserved": "",
      "salt": "0x136acd993ec89db6b961fc78f641e6bd78520963cfbc3e07fe089190f1fb75a7",
      "assetIds": []
    },
    {
      "x": 126,
      "y": 20,
      "size": 1,
      "price": "1011000000000000000000",
      "reserved": "",
      "salt": "0x6e45441a37ea7743b38a47d227d4184909cd8c46dd659a83caba8737827c6696",
      "assetIds": []
    },
    {
      "x": 126,
      "y": 21,
      "size": 1,
      "price": "1011000000000000000000",
      "reserved": "",
      "salt": "0x9f2dd28ef1f5435a5793091dca271a648a088d8448557693cd634a08e99301c1",
      "assetIds": []
    },
    {
      "x": 127,
      "y": 0,
      "size": 1,
      "price": "1011000000000000000000",
      "reserved": "",
      "salt": "0xd30cffb77225d5f6255196aaf1e4f01af8f2a8815bdc943d8195309db8868ea1",
      "assetIds": []
    },
    {
      "x": 127,
      "y": 1,
      "size": 1,
      "price": "1011000000000000000000",
      "reserved": "",
      "salt": "0x553e4888f0df23849bbc28a8bddcbda6e1b31c25f836052568b2775254dbae7b",
      "assetIds": []
    },
    {
      "x": 127,
      "y": 2,
      "size": 1,
      "price": "1011000000000000000000",
      "reserved": "",
      "salt": "0x12aebbc789bf8f4808b80ffeb3d6072663e838e25134adf0cceaa3cb61feb3ca",
      "assetIds": []
    },
    {
      "x": 127,
      "y": 9,
      "size": 1,
      "price": "4683000000000000000000",
      "reserved": "",
      "salt": "0xb9696bff939b772ed5b59380a20e0b2a5414b4ee747ea17eb81d2698ff9c217e",
      "assetIds": [
        "55464657044963196816950587289035428064568320970692304673817341489688428423170",
        "55464657044963196816950587289035428064568320970692304673817341489688428423168",
        "55464657044963196816950587289035428064568320970692304673817341489688445192192"
      ]
    },
    {
      "x": 127,
      "y": 10,
      "size": 1,
      "price": "1011000000000000000000",
      "reserved": "",
      "salt": "0x154f9a8223efa36d3d7260b3d2f23db1c8ab2de42a0086dcd603a81f4a15234d",
      "assetIds": []
    },
    {
      "x": 127,
      "y": 11,
      "size": 1,
      "price": "1011000000000000000000",
      "reserved": "",
      "salt": "0x112dde7f009265f597baf4d9e0258d2094958c04fea714d16ca69f9271bffa55",
      "assetIds": []
    },
    {
      "x": 127,
      "y": 12,
      "size": 1,
      "price": "1011000000000000000000",
      "reserved": "",
      "salt": "0x5a8ffa203a0ca97332255b82d7e520002065e541ad5eb33fe3be399dc2e0bd3b",
      "assetIds": []
    },
    {
      "x": 127,
      "y": 13,
      "size": 1,
      "price": "1011000000000000000000",
      "reserved": "",
      "salt": "0xd50cd39dd24b5774ffce3bc035856e7c19eb27c9385c57010401069015438cde",
      "assetIds": []
    },
    {
      "x": 127,
      "y": 14,
      "size": 1,
      "price": "1011000000000000000000",
      "reserved": "",
      "salt": "0x24273cc23fbfc629c4d5dec4f48705ed8ddf2e8fc1ddbcd8f3eb9bafbfb1e80d",
      "assetIds": []
    },
    {
      "x": 127,
      "y": 18,
      "size": 1,
      "price": "1011000000000000000000",
      "reserved": "",
      "salt": "0x7e06c3845399aa4dffb73ca57deb2b61c9c383b615b142fc0c1c00593638a310",
      "assetIds": []
    },
    {
      "x": 127,
      "y": 19,
      "size": 1,
      "price": "1011000000000000000000",
      "reserved": "",
      "salt": "0x2f959aac7da114c5e536b33c57648eac813938f69c8557dbfe4153598c0d93cc",
      "assetIds": []
    },
    {
      "x": 127,
      "y": 20,
      "size": 1,
      "price": "1011000000000000000000",
      "reserved": "",
      "salt": "0x2ef02f2a5e3fc99f2846976fdeb9595a1e453768e93edc83f12116bde75e69e1",
      "assetIds": []
    },
    {
      "x": 127,
      "y": 21,
      "size": 1,
      "price": "1011000000000000000000",
      "reserved": "",
      "salt": "0x1a0fc293822fbf62251958680007b7c2ae845a5b23c47fc9db463360c33bf28d",
      "assetIds": []
    },
    {
      "x": 128,
      "y": 0,
      "size": 1,
      "price": "1011000000000000000000",
      "reserved": "",
      "salt": "0xd0bf28e96b6de75ccae627f902f8fcecfb7c2afe3581b668fa0a43db854094ed",
      "assetIds": []
    },
    {
      "x": 128,
      "y": 1,
      "size": 1,
      "price": "1011000000000000000000",
      "reserved": "",
      "salt": "0x9b0c5059a9a2b1d7d9d6302168fd3aba8388c7462ec58785ebaac3c4f6537fa3",
      "assetIds": []
    },
    {
      "x": 128,
      "y": 2,
      "size": 1,
      "price": "1011000000000000000000",
      "reserved": "",
      "salt": "0x798491c2ca5fc1dc87ea09fe03099dad63ffd6537879383c25c20e2f19c6cabd",
      "assetIds": []
    },
    {
      "x": 128,
      "y": 9,
      "size": 1,
      "price": "4683000000000000000000",
      "reserved": "",
      "salt": "0xf37a0d2b8cdbc0e412ec199afe40b3878b6b3a583012dce8642105a6a7653042",
      "assetIds": [
        "55464657044963196816950587289035428064568320970692304673817341489688428423170",
        "55464657044963196816950587289035428064568320970692304673817341489688428423168",
        "55464657044963196816950587289035428064568320970692304673817341489688445192192"
      ]
    },
    {
      "x": 128,
      "y": 10,
      "size": 1,
      "price": "1011000000000000000000",
      "reserved": "",
      "salt": "0xadf381fab82b9cfcb0bc56afbe97d153d6dd20a7bfc80d29459e7f3fea17a640",
      "assetIds": []
    },
    {
      "x": 128,
      "y": 11,
      "size": 1,
      "price": "1011000000000000000000",
      "reserved": "",
      "salt": "0x72a3d6720eafef68b88654a8d83098ac85e13ae5b06ebf770fe178436db6b30d",
      "assetIds": []
    },
    {
      "x": 128,
      "y": 12,
      "size": 1,
      "price": "1011000000000000000000",
      "reserved": "",
      "salt": "0x5a5e7d07a703913f933e86d227ea846c1feaafc1b1cf6144bb6400ff5b61745e",
      "assetIds": []
    },
    {
      "x": 128,
      "y": 13,
      "size": 1,
      "price": "1011000000000000000000",
      "reserved": "",
      "salt": "0x242bda1822c0e1a8e77e3e1ddd146343cef46985cb9a7019713b623126fba790",
      "assetIds": []
    },
    {
      "x": 128,
      "y": 14,
      "size": 1,
      "price": "1011000000000000000000",
      "reserved": "",
      "salt": "0xf738aeb20adfeced032331fdb5ecddf4d34371a778d64fab74909366a38e3186",
      "assetIds": []
    },
    {
      "x": 128,
      "y": 18,
      "size": 1,
      "price": "1011000000000000000000",
      "reserved": "",
      "salt": "0x4b880e46d838f5d08aac7b16fdcb6d7e54f4a79e1dab3702067d32ef67678c73",
      "assetIds": []
    },
    {
      "x": 128,
      "y": 19,
      "size": 1,
      "price": "1011000000000000000000",
      "reserved": "",
      "salt": "0xfc1f2e2872ee25f64685b9d0c36dd1c44089353aae9ab6ffe02b87def101233d",
      "assetIds": []
    },
    {
      "x": 128,
      "y": 20,
      "size": 1,
      "price": "1011000000000000000000",
      "reserved": "",
      "salt": "0x8323eae6c288674d10983fc48b5f2dbd75fb42a717926001aa45cb88fdba33e1",
      "assetIds": []
    },
    {
      "x": 128,
      "y": 21,
      "size": 1,
      "price": "1011000000000000000000",
      "reserved": "",
      "salt": "0xf89cd54dcf613d5e49bca9a17951b8ac8e984b755ec2c3f6dbf30799e2eaf1d6",
      "assetIds": []
    },
    {
      "x": 129,
      "y": 0,
      "size": 1,
      "price": "1011000000000000000000",
      "reserved": "",
      "salt": "0x97f152db5d59c261dcc7788a8a7d1c1dc952470564ea4ef3f7d855fdca70b395",
      "assetIds": []
    },
    {
      "x": 129,
      "y": 1,
      "size": 1,
      "price": "1011000000000000000000",
      "reserved": "",
      "salt": "0x2a77cbf6b2d014ceb32e68d19ab8965a043f4f514a2a1ce5b69ef0e77113cd41",
      "assetIds": []
    },
    {
      "x": 129,
      "y": 2,
      "size": 1,
      "price": "1011000000000000000000",
      "reserved": "",
      "salt": "0x8dd19783eb456d7d011128cba060e8af452f17498bb889e11abcd38f64538c8d",
      "assetIds": []
    },
    {
      "x": 129,
      "y": 3,
      "size": 1,
      "price": "1011000000000000000000",
      "reserved": "",
      "salt": "0xde3b99b528b3569ba9674edc8b83d0154bd4c757bbf306f69d59bc5afe75f72c",
      "assetIds": []
    },
    {
      "x": 129,
      "y": 4,
      "size": 1,
      "price": "1011000000000000000000",
      "reserved": "",
      "salt": "0x220b5b014bc7d9feba79425b4c9dbfd0f8096bcf366e61799165907d97671487",
      "assetIds": []
    },
    {
      "x": 129,
      "y": 5,
      "size": 1,
      "price": "1011000000000000000000",
      "reserved": "",
      "salt": "0xc581f4f2d30f7d99db1e461a84f115fa35dba9e881ae43a76586580080da86dd",
      "assetIds": []
    },
    {
      "x": 129,
      "y": 6,
      "size": 1,
      "price": "4683000000000000000000",
      "reserved": "",
      "salt": "0x9ad73b20fd004689423c38a664c0b61a49621949a060d562f879986da397ceec",
      "assetIds": [
        "55464657044963196816950587289035428064568320970692304673817341489688428423170",
        "55464657044963196816950587289035428064568320970692304673817341489688428423168",
        "55464657044963196816950587289035428064568320970692304673817341489688445192192"
      ]
    },
    {
      "x": 129,
      "y": 7,
      "size": 1,
      "price": "4683000000000000000000",
      "reserved": "",
      "salt": "0x523357578ce646791da741f9f54daa1a1c27a1584a18d637d4e2e559b8238551",
      "assetIds": [
        "55464657044963196816950587289035428064568320970692304673817341489688428423171",
        "55464657044963196816950587289035428064568320970692304673817341489688428423168",
        "55464657044963196816950587289035428064568320970692304673817341489688428423169"
      ]
    },
    {
      "x": 129,
      "y": 8,
      "size": 1,
      "price": "4683000000000000000000",
      "reserved": "",
      "salt": "0xb4fe68988a06878fb2178183703d895095f092578ec85a13dd179c15bd4031c6",
      "assetIds": [
        "55464657044963196816950587289035428064568320970692304673817341489688428423170",
        "55464657044963196816950587289035428064568320970692304673817341489688428423168",
        "55464657044963196816950587289035428064568320970692304673817341489688445192192"
      ]
    },
    {
      "x": 129,
      "y": 9,
      "size": 1,
      "price": "1011000000000000000000",
      "reserved": "",
      "salt": "0x6facdf39d3df39fd8d85ee5fa1c680bc969088fe70f195543d4423d2ebd8e674",
      "assetIds": []
    },
    {
      "x": 129,
      "y": 10,
      "size": 1,
      "price": "1011000000000000000000",
      "reserved": "",
      "salt": "0x5e3b4d8f64f4bd4324f2548c50cbd39eb6521fd4be4b53b7f2e31bc584ee8d4a",
      "assetIds": []
    },
    {
      "x": 129,
      "y": 11,
      "size": 1,
      "price": "1011000000000000000000",
      "reserved": "",
      "salt": "0x4410c1d938fc56a4197d89a58a28ef32b96fa1ecd9e749c7040267b8ceb881fb",
      "assetIds": []
    },
    {
      "x": 129,
      "y": 12,
      "size": 1,
      "price": "1011000000000000000000",
      "reserved": "",
      "salt": "0x763dabadea69fcc36e187e708c6a464e1d777c95087e5dccec94bdf36502de7e",
      "assetIds": []
    },
    {
      "x": 129,
      "y": 13,
      "size": 1,
      "price": "1011000000000000000000",
      "reserved": "",
      "salt": "0x82b24677cb68587ea73d70d8d498ce8384d8d14be0655a27454396a62027edc0",
      "assetIds": []
    },
    {
      "x": 129,
      "y": 14,
      "size": 1,
      "price": "1011000000000000000000",
      "reserved": "",
      "salt": "0x2894e56d4c09fe6c8013a7212fd09518e6df98283d437fb48ec51a0963b35bf2",
      "assetIds": []
    },
    {
      "x": 129,
      "y": 15,
      "size": 1,
      "price": "1011000000000000000000",
      "reserved": "",
      "salt": "0xcd4390b5a7786e477403716e3a97234cfff1c5d2af3b0c55d28709cd5cf520f4",
      "assetIds": []
    },
    {
      "x": 129,
      "y": 16,
      "size": 1,
      "price": "1011000000000000000000",
      "reserved": "",
      "salt": "0x103baade1aa628ec03813fe31977bf4a149595a3dcfd42ead6473acfc56b6a0d",
      "assetIds": []
    },
    {
      "x": 129,
      "y": 17,
      "size": 1,
      "price": "1011000000000000000000",
      "reserved": "",
      "salt": "0x7c2c27aabb27d6f493343d7e6d51a4abedc917003c04010feec74bbf13410312",
      "assetIds": []
    },
    {
      "x": 129,
      "y": 18,
      "size": 1,
      "price": "1011000000000000000000",
      "reserved": "",
      "salt": "0x62d9d73b9c1bc08128c7e5a5b74d08e7fe2312e59d9e090b369965ce1f6a91f8",
      "assetIds": []
    },
    {
      "x": 129,
      "y": 19,
      "size": 1,
      "price": "1011000000000000000000",
      "reserved": "",
      "salt": "0xfcd70d55312979c5aa3dd39c2c59a6b200568d0433fdb204d18250ba538d990d",
      "assetIds": []
    },
    {
      "x": 129,
      "y": 20,
      "size": 1,
      "price": "1011000000000000000000",
      "reserved": "",
      "salt": "0x4b23f1fec6f21ea7a08085a97e7a24494a1a16816a6bfe27d8d4a10d22a00e69",
      "assetIds": []
    },
    {
      "x": 129,
      "y": 21,
      "size": 1,
      "price": "1011000000000000000000",
      "reserved": "",
      "salt": "0x4bd39e0f3fe035aba3cfd5a21d10b68c15fffca3921873f44cf43dbfbc65a032",
      "assetIds": []
    },
    {
      "x": 84,
      "y": 6,
      "size": 3,
      "price": "8648000000000000000000",
      "reserved": "0x7a9fe22691c811ea339d9b73150e6911a5343dca",
      "salt": "0x21a532d2adb5077c9928019798b8aa36152f9238276f7917c052c923bd4ce9b1",
      "assetIds": []
    },
    {
      "x": 84,
      "y": 15,
      "size": 3,
      "price": "8648000000000000000000",
      "reserved": "0x7a9fe22691c811ea339d9b73150e6911a5343dca",
      "salt": "0x287d6fff0beba121c3607f71ca27cef0dd20652603cc44048e7a93491306c8bb",
      "assetIds": []
    },
    {
      "x": 87,
      "y": 0,
      "size": 3,
      "price": "8648000000000000000000",
      "reserved": "0x7a9fe22691c811ea339d9b73150e6911a5343dca",
      "salt": "0x26dbd75e58ea57b08ca200bdb0e08c99901804a680108f1fea4a44980031ec22",
      "assetIds": []
    },
    {
      "x": 87,
      "y": 9,
      "size": 3,
      "price": "8648000000000000000000",
      "reserved": "0x7a9fe22691c811ea339d9b73150e6911a5343dca",
      "salt": "0x37659293555405c1f83760fb1df75a88d2c12828a4cb9f6043ec8404969b9ca2",
      "assetIds": []
    },
    {
      "x": 87,
      "y": 18,
      "size": 3,
      "price": "8648000000000000000000",
      "reserved": "0x7a9fe22691c811ea339d9b73150e6911a5343dca",
      "salt": "0x85dec00ba6fedcee7adcdf5084304e9bfd3af6863211a60f9c822d5b5a963110",
      "assetIds": []
    },
    {
      "x": 96,
      "y": 15,
      "size": 3,
      "price": "8648000000000000000000",
      "reserved": "0x7a9fe22691c811ea339d9b73150e6911a5343dca",
      "salt": "0x09322886870fe6603f4a172f9701dc63ccce4b40ada022810164cba6a4fabc1f",
      "assetIds": []
    },
    {
      "x": 96,
      "y": 18,
      "size": 3,
      "price": "8648000000000000000000",
      "reserved": "0x7a9fe22691c811ea339d9b73150e6911a5343dca",
      "salt": "0x08fb6c01a5459c1f5c9a4c04c6286bbe643bdb4851e5ea3db413d56ca8a4d8d9",
      "assetIds": []
    },
    {
      "x": 99,
      "y": 3,
      "size": 3,
      "price": "8648000000000000000000",
      "reserved": "0x7a9fe22691c811ea339d9b73150e6911a5343dca",
      "salt": "0x917a854fea359f3a0512e8e4b3bec8598a52362a06bfda4b60eae147da77b7dd",
      "assetIds": []
    },
    {
      "x": 99,
      "y": 18,
      "size": 3,
      "price": "8648000000000000000000",
      "reserved": "0x7a9fe22691c811ea339d9b73150e6911a5343dca",
      "salt": "0xbde770fa3dcf1a53578ae0933dcd43fbbab2b21038997a3fb3db44252ac172d1",
      "assetIds": []
    },
    {
      "x": 102,
      "y": 6,
      "size": 3,
      "price": "8648000000000000000000",
      "reserved": "0x7a9fe22691c811ea339d9b73150e6911a5343dca",
      "salt": "0xef7109a264a555e3627b7481196aa5abe2d492c61047ae1f34691d607023001c",
      "assetIds": []
    },
    {
      "x": 105,
      "y": 9,
      "size": 3,
      "price": "8648000000000000000000",
      "reserved": "0x7a9fe22691c811ea339d9b73150e6911a5343dca",
      "salt": "0x04f57d75be03c968720c66321210d9038678433c68013d52814bfae496837c29",
      "assetIds": []
    },
    {
      "x": 108,
      "y": 9,
      "size": 3,
      "price": "8648000000000000000000",
      "reserved": "0x7a9fe22691c811ea339d9b73150e6911a5343dca",
      "salt": "0x32e9ea412ea51c05088bd8995d1f1a36cb22e9e3aaeec258a549487e73f827dc",
      "assetIds": []
    },
    {
      "x": 108,
      "y": 18,
      "size": 3,
      "price": "8648000000000000000000",
      "reserved": "0x7a9fe22691c811ea339d9b73150e6911a5343dca",
      "salt": "0x10b4d0956f8cc9c5839a09076736cda74fca0eae18fea9d0021924affa0bb3ee",
      "assetIds": []
    },
    {
      "x": 111,
      "y": 12,
      "size": 3,
      "price": "8648000000000000000000",
      "reserved": "0x7a9fe22691c811ea339d9b73150e6911a5343dca",
      "salt": "0xf2f4f109380c8062073280ef4619196f7bf7f796d6837ff4dd4061bbaf64c3fe",
      "assetIds": []
    },
    {
      "x": 111,
      "y": 18,
      "size": 3,
      "price": "8648000000000000000000",
      "reserved": "0x7a9fe22691c811ea339d9b73150e6911a5343dca",
      "salt": "0xa68e599429fd89d424ae056a3abba1fa1c7d748010bda449f5ff52af5a5fc819",
      "assetIds": []
    },
    {
      "x": 114,
      "y": 3,
      "size": 3,
      "price": "8648000000000000000000",
      "reserved": "0x7a9fe22691c811ea339d9b73150e6911a5343dca",
      "salt": "0xa1dbc9e25f5c1fc50fcce78ee18fec1264149e342e4ee6b343f70885a95b581d",
      "assetIds": []
    },
    {
      "x": 117,
      "y": 18,
      "size": 3,
      "price": "8648000000000000000000",
      "reserved": "0x7a9fe22691c811ea339d9b73150e6911a5343dca",
      "salt": "0x1ab338e8568e0d2f803abddebf6a0edcafc62fb2f062d4016a539d42c74ad6a3",
      "assetIds": []
    },
    {
      "x": 120,
      "y": 6,
      "size": 3,
      "price": "8648000000000000000000",
      "reserved": "0x7a9fe22691c811ea339d9b73150e6911a5343dca",
      "salt": "0xb9ceb3bd3db0ab9695102e80fb5a591350cfc39d2bba28d0e89a5c90f8fdc2e4",
      "assetIds": []
    },
    {
      "x": 126,
      "y": 3,
      "size": 3,
      "price": "8648000000000000000000",
      "reserved": "0x7a9fe22691c811ea339d9b73150e6911a5343dca",
      "salt": "0x8947a096ed743a828c6417c34050a461b0b5e70677528259fb795f8eddd21a58",
      "assetIds": []
    },
    {
      "x": 126,
      "y": 6,
      "size": 3,
      "price": "8648000000000000000000",
      "reserved": "0x7a9fe22691c811ea339d9b73150e6911a5343dca",
      "salt": "0x1708fbb302bcab9bcab23d1615bafff70bca5178c7620d176cc6d754b3833445",
      "assetIds": []
    },
    {
      "x": 126,
      "y": 15,
      "size": 3,
      "price": "8648000000000000000000",
      "reserved": "0x7a9fe22691c811ea339d9b73150e6911a5343dca",
      "salt": "0xc9aa0af50e5330433a9ba4dc39861dc1a330898e0e03458dfb0b8a93cebc15a9",
      "assetIds": []
    },
    {
      "x": 78,
      "y": 0,
      "size": 6,
      "price": "32772000000000000000000",
      "reserved": "0x7a9fe22691c811ea339d9b73150e6911a5343dca",
      "salt": "0x8c99249f83666d8daf3a0c9fe8e8b76481321f892c4380c3380a9b1c80ae99cf",
      "assetIds": []
    },
    {
      "x": 78,
      "y": 12,
      "size": 6,
      "price": "32772000000000000000000",
      "reserved": "0x7a9fe22691c811ea339d9b73150e6911a5343dca",
      "salt": "0x984b3a0c4983085d10a00d522e9f2f428bcd6b5d1e7b8c83a4d4f03e0dff8c47",
      "assetIds": []
    },
    {
      "x": 90,
      "y": 0,
      "size": 6,
      "price": "32772000000000000000000",
      "reserved": "0x7a9fe22691c811ea339d9b73150e6911a5343dca",
      "salt": "0x16b1ffd68bef834bca45d70c6b6ec2a6e0a327c0933c764e5aa41544696f6e20",
      "assetIds": []
    },
    {
      "x": 90,
      "y": 12,
      "size": 6,
      "price": "32772000000000000000000",
      "reserved": "0x7a9fe22691c811ea339d9b73150e6911a5343dca",
      "salt": "0x4515e1a93b4bbb80b7bb5755f955ae57404a8de3e1458b613dd9d14cab3b3e5c",
      "assetIds": []
    },
    {
      "x": 96,
      "y": 6,
      "size": 6,
      "price": "32772000000000000000000",
      "reserved": "0x7a9fe22691c811ea339d9b73150e6911a5343dca",
      "salt": "0xd5135f6c400f96e717efdf622c4175fb902fa7eaceb2417522f00e0774d1a23c",
      "assetIds": []
    },
    {
      "x": 102,
      "y": 12,
      "size": 6,
      "price": "32772000000000000000000",
      "reserved": "0x7a9fe22691c811ea339d9b73150e6911a5343dca",
      "salt": "0x7f83b4f72850dd38da8a79151f7a7568829279b5f066d3f0a0c26860b14f13f9",
      "assetIds": []
    },
    {
      "x": 108,
      "y": 0,
      "size": 6,
      "price": "32772000000000000000000",
      "reserved": "0x7a9fe22691c811ea339d9b73150e6911a5343dca",
      "salt": "0x8805201f9ff87d7da4f344d60ad1a7a3f832be228fb479c4876b7517c1cb1302",
      "assetIds": []
    },
    {
      "x": 114,
      "y": 6,
      "size": 6,
      "price": "32772000000000000000000",
      "reserved": "0x7a9fe22691c811ea339d9b73150e6911a5343dca",
      "salt": "0x3c00d32c3aea52566bb75ee94267ebad88f0d9ba252d863df3dfa8461a344ba9",
      "assetIds": []
    },
    {
      "x": 114,
      "y": 12,
      "size": 6,
      "price": "32772000000000000000000",
      "reserved": "0x7a9fe22691c811ea339d9b73150e6911a5343dca",
      "salt": "0x61ad087129b58f4235b733cc123f160edac181fa35dabd12383dbbe5b546f5c3",
      "assetIds": []
    },
    {
      "x": 120,
      "y": 0,
      "size": 6,
      "price": "32772000000000000000000",
      "reserved": "0x7a9fe22691c811ea339d9b73150e6911a5343dca",
      "salt": "0xdbcfcf9add5414ed52150611158b39b39645beca42bfcf96bca3fc791fc5c028",
      "assetIds": []
    },
    {
      "x": 120,
      "y": 12,
      "size": 6,
      "price": "32772000000000000000000",
      "reserved": "0x7a9fe22691c811ea339d9b73150e6911a5343dca",
      "salt": "0xcddace58cfac3de164db17f7166490e20693b1d48ba909076783c5589c6875ce",
      "assetIds": []
    }
  ],
  "solcInputHash": "e17a5bb930c92aaeeb80a52119ce77b7",
  "bytecode": "0x610160604052620d2f0060055534801561001857600080fd5b506040516200284d3803806200284d83398181016040526101a081101561003e57600080fd5b50805160208201516040830151606080850151608086015160a08088015160c0808a015160e08b01516101008c01516101208d01516101408e01516101608f0151610180909f0151600280546001600160a01b0319166001600160a01b03871617905560038490558e8c1b6001600160601b03199081169099529a8d901b9097169094529a9b999a98999698959793969195909490939091906100e28b600161015d565b600680546001600160a01b039a8b166001600160a01b031991821617909155610140989098526101209690965260008054998916998816999099179098556001600160601b0319606092831b811660e05290821b811660805296901b909516610100525060078054919093169116179055506101c192505050565b6001600160a01b038216600081815260016020908152604091829020805460ff191685151590811790915582519384529083015280517fb21eb88b4e33b3f1281830a7178d74d8aa73220416215726b68ae23d539515cb9281900390910190a15050565b60805160601c60a05160601c60c05160601c60e05160601c6101005160601c61012051610140516126066200024760003980610b3d528061206c525080610b1952806112ec5250806120da525080611841528061199e5250806117f75280611b9d528061210e525080611872528061196f525080610eb25280611c8952506126066000f3fe608060405234801561001057600080fd5b506004361061011b5760003560e01c80638f283970116100b2578063c10a420811610081578063dc5074af11610066578063dc5074af1461085f578063e56f8a9e14610885578063f23a6e61146108a25761011b565b8063c10a420814610780578063caed3500146108575761011b565b80638f28397014610500578063984d625214610526578063b522ecff146105f8578063bc197c811461061e5761011b565b806365194ce7116100ee57806365194ce7146103485780636e9960c3146104a657806377f1c3ac146104ca5780638a04af6a146104d25761011b565b80631187fd3c1461012057806325cb5bc014610300578063495906571461031a57806358bc294414610322575b600080fd5b6102fe600480360361012081101561013757600080fd5b6001600160a01b038235811692602081013582169260408201359092169181019060808101606082013564010000000081111561017357600080fd5b82018360208201111561018557600080fd5b803590602001918460208302840111640100000000831117156101a757600080fd5b919390928235926040810190602001356401000000008111156101c957600080fd5b8201836020820111156101db57600080fd5b803590602001918460208302840111640100000000831117156101fd57600080fd5b91939092909160208101903564010000000081111561021b57600080fd5b82018360208201111561022d57600080fd5b8035906020019184602083028401116401000000008311171561024f57600080fd5b91939092909160208101903564010000000081111561026d57600080fd5b82018360208201111561027f57600080fd5b803590602001918460018302840111640100000000831117156102a157600080fd5b9193909290916020810190356401000000008111156102bf57600080fd5b8201836020820111156102d157600080fd5b803590602001918460018302840111640100000000831117156102f357600080fd5b509092509050610937565b005b610308610b17565b60408051918252519081900360200190f35b610308610b3b565b6102fe6004803603602081101561033857600080fd5b50356001600160a01b0316610b5f565b6103ee6004803603602081101561035e57600080fd5b81019060208101813564010000000081111561037957600080fd5b82018360208201111561038b57600080fd5b803590602001918460018302840111640100000000831117156103ad57600080fd5b91908080601f016020809104026020016040519081016040528093929190818152602001838380828437600092019190915250929550610c0a945050505050565b6040518080602001866001600160a01b03166001600160a01b03168152602001856001600160a01b03166001600160a01b03168152602001848152602001838152602001828103825287818151815260200191508051906020019080838360005b8381101561046757818101518382015260200161044f565b50505050905090810190601f1680156104945780820380516001836020036101000a031916815260200191505b50965050505050505060405180910390f35b6104ae610d0f565b604080516001600160a01b039092168252519081900360200190f35b610308610d1e565b6102fe600480360360408110156104e857600080fd5b506001600160a01b0381351690602001351515610d24565b6102fe6004803603602081101561051657600080fd5b50356001600160a01b0316610d7b565b6102fe6004803603606081101561053c57600080fd5b6001600160a01b03823516919081019060408101602082013564010000000081111561056757600080fd5b82018360208201111561057957600080fd5b8035906020019184602083028401116401000000008311171561059b57600080fd5b9193909290916020810190356401000000008111156105b957600080fd5b8201836020820111156105cb57600080fd5b803590602001918460208302840111640100000000831117156105ed57600080fd5b509092509050610e51565b6102fe6004803603602081101561060e57600080fd5b50356001600160a01b0316610fdc565b61074b600480360360a081101561063457600080fd5b6001600160a01b03823581169260208101359091169181019060608101604082013564010000000081111561066857600080fd5b82018360208201111561067a57600080fd5b8035906020019184602083028401116401000000008311171561069c57600080fd5b9193909290916020810190356401000000008111156106ba57600080fd5b8201836020820111156106cc57600080fd5b803590602001918460208302840111640100000000831117156106ee57600080fd5b91939092909160208101903564010000000081111561070c57600080fd5b82018360208201111561071e57600080fd5b8035906020019184600183028401116401000000008311171561074057600080fd5b5090925090506110c5565b604080517fffffffff000000000000000000000000000000000000000000000000000000009092168252519081900360200190f35b610843600480360360a081101561079657600080fd5b8101906020810181356401000000008111156107b157600080fd5b8201836020820111156107c357600080fd5b803590602001918460018302840111640100000000831117156107e557600080fd5b91908080601f016020809104026020016040519081016040528093929190818152602001838380828437600092019190915250929550506001600160a01b0383358116945060208401351692604081013592506060013590506110f2565b604080519115158252519081900360200190f35b6104ae61122e565b6108436004803603602081101561087557600080fd5b50356001600160a01b031661123d565b6102fe6004803603602081101561089b57600080fd5b503561125b565b61074b600480360360a08110156108b857600080fd5b6001600160a01b03823581169260208101359091169160408201359160608101359181019060a0810160808201356401000000008111156108f857600080fd5b82018360208201111561090a57600080fd5b8035906020019184600183028401116401000000008311171561092c57600080fd5b5090925090506112bf565b6109418e8d6112ea565b610a388d8d8d8d80806020026020016040519081016040528093929190818152602001838360200280828437600081840152601f19601f820116905080830192505050505050508c8c8c80806020026020016040519081016040528093929190818152602001838360200280828437600081840152601f19601f820116905080830192505050505050508b8b8080602002602001604051908101604052809392919081815260200183836020028082843760009201919091525050604080516020601f8d018190048102820181019092528b815292508b91508a908190840183828082843760009201919091525061144d92505050565b610a8c8e8c8c6003818110610a4957fe5b9050602002013586868080601f0160208091040260200160405190810160405280939291908181526020018383808284376000920191909152506117d092505050565b610aca8e8e8d8d8080602002602001604051908101604052809392919081815260200183836020028082843760009201919091525061182192505050565b610b078d898980806020026020016040519081016040528093929190818152602001838360200280828437600092019190915250611c1292505050565b5050505050505050505050505050565b7f000000000000000000000000000000000000000000000000000000000000000090565b7f000000000000000000000000000000000000000000000000000000000000000090565b6000546001600160a01b03163314610bbe576040805162461bcd60e51b815260206004820152601060248201527f53656e646572206e6f742061646d696e00000000000000000000000000000000604482015290519081900360640190fd5b600554600280546001600160a01b03908116600090815260046020526040902042909301909255805473ffffffffffffffffffffffffffffffffffffffff191692909116919091179055565b606060008060008060606000806000808a80602001905160a0811015610c2f57600080fd5b8101908080516040519392919084640100000000821115610c4f57600080fd5b908301906020820185811115610c6457600080fd5b8251640100000000811182820188101715610c7e57600080fd5b82525081516020918201929091019080838360005b83811015610cab578181015183820152602001610c93565b50505050905090810190601f168015610cd85780820380516001836020036101000a031916815260200191505b5060409081526020820151908201516060830151608090930151959f50909d509b5099509197505050505050505091939590929450565b6000546001600160a01b031690565b60035490565b6000546001600160a01b03163314610d6d5760405162461bcd60e51b815260040180806020018281038252602e8152602001806125a3602e913960400191505060405180910390fd5b610d778282611dd6565b5050565b6000546001600160a01b03163314610dda576040805162461bcd60e51b815260206004820152601b60248201527f6f6e6c792061646d696e2063616e206368616e67652061646d696e0000000000604482015290519081900360640190fd5b600054604080516001600160a01b039283168152918316602083015280517f7e644d79422f17c01e4894b5f4f588d331ebfa28653d42ae832dc59e38c9798f9281900390910190a16000805473ffffffffffffffffffffffffffffffffffffffff19166001600160a01b0392909216919091179055565b6000546001600160a01b03163314610eb0576040805162461bcd60e51b815260206004820152600e60248201527f4e4f545f415554484f52495a4544000000000000000000000000000000000000604482015290519081900360640190fd5b7f00000000000000000000000000000000000000000000000000000000000000006001600160a01b0316632eb2c2d63087878787876040518763ffffffff1660e01b815260040180876001600160a01b03166001600160a01b03168152602001866001600160a01b03166001600160a01b031681526020018060200180602001806020018481038452888882818152602001925060200280828437600083820152601f01601f19169091018581038452868152602090810191508790870280828437600081840152601f19601f8201169050808301925050508481038252600081526020016020019950505050505050505050600060405180830381600087803b158015610fbd57600080fd5b505af1158015610fd1573d6000803e3d6000fd5b505050505050505050565b6001600160a01b038116611037576040805162461bcd60e51b815260206004820152600c60248201527f5a45524f5f414444524553530000000000000000000000000000000000000000604482015290519081900360640190fd5b6000546001600160a01b03163314611096576040805162461bcd60e51b815260206004820152600e60248201527f4e4f545f415554484f52495a4544000000000000000000000000000000000000604482015290519081900360640190fd5b6006805473ffffffffffffffffffffffffffffffffffffffff19166001600160a01b0392909216919091179055565b7fbc197c810000000000000000000000000000000000000000000000000000000098975050505050505050565b60006003548211806111155750836001600160a01b0316856001600160a01b0316145b8061111f57508242115b1561112c57506000611225565b60408051606087811b7fffffffffffffffffffffffffffffffffffffffff0000000000000000000000009081166020808501919091529188901b166034830152604882018690526068808301869052835180840390910181526088830184528051908201207f19457468657265756d205369676e6564204d6573736167653a0a33320000000060a884015260c48084018290528451808503909101815260e490930190935281519101206000906111e39089611e58565b6001600160a01b038116600090815260046020526040902054909150421161121057600192505050611225565b6002546001600160a01b039081169116149150505b95945050505050565b6002546001600160a01b031690565b6001600160a01b031660009081526001602052604090205460ff1690565b6000546001600160a01b031633146112ba576040805162461bcd60e51b815260206004820152601060248201527f53656e646572206e6f742061646d696e00000000000000000000000000000000604482015290519081900360640190fd5b600355565b7ff23a6e61000000000000000000000000000000000000000000000000000000009695505050505050565b7f0000000000000000000000000000000000000000000000000000000000000000421061135e576040805162461bcd60e51b815260206004820152600c60248201527f53414c455f49535f4f5645520000000000000000000000000000000000000000604482015290519081900360640190fd5b6001600160a01b03821633148061138457503360009081526001602052604090205460ff165b6113d5576040805162461bcd60e51b815260206004820152600e60248201527f4e4f545f415554484f52495a4544000000000000000000000000000000000000604482015290519081900360640190fd5b6001600160a01b03811615806113fc5750816001600160a01b0316816001600160a01b0316145b610d77576040805162461bcd60e51b815260206004820152600d60248201527f52455345525645445f4c414e4400000000000000000000000000000000000000604482015290519081900360640190fd5b600087878760008151811061145e57fe5b60200260200101518860018151811061147357fe5b60200260200101518960028151811061148857fe5b60200260200101518a60038151811061149d57fe5b60200260200101518a8a60405160200180828051906020019060200280838360005b838110156114d75781810151838201526020016114bf565b50505050905001915050604051602081830303815290604052805190602001208a60405160200180828051906020019060200280838360005b83811015611528578181015183820152602001611510565b5050505090500191505060405160208183030381529060405280519060200120604051602001808a6001600160a01b03166001600160a01b031660601b8152601401896001600160a01b03166001600160a01b031660601b81526014018881526020018781526020018681526020018581526020018481526020018381526020018281526020019950505050505050505050604051602081830303815290604052805190602001209050600760009054906101000a90046001600160a01b03166001600160a01b031663012847ed83836040518363ffffffff1660e01b81526004018080602001838152602001828103825284818151815260200191508051906020019080838360005b8381101561164a578181015183820152602001611632565b50505050905090810190601f1680156116775780820380516001836020036101000a031916815260200191505b50935050505060206040518083038186803b15801561169557600080fd5b505afa1580156116a9573d6000803e3d6000fd5b505050506040513d60208110156116bf57600080fd5b5051611712576040805162461bcd60e51b815260206004820152600c60248201527f494e56414c49445f415554480000000000000000000000000000000000000000604482015290519081900360640190fd5b60006117738760008151811061172457fe5b60200260200101518860018151811061173957fe5b60200260200101518960028151811061174e57fe5b60200260200101518a60038151811061176357fe5b60200260200101518c8b8b611f25565b905061177f8482611fca565b610fd1576040805162461bcd60e51b815260206004820152600c60248201527f494e56414c49445f4c414e440000000000000000000000000000000000000000604482015290519081900360640190fd5b60006117dc8484612095565b60065490915061181b908590839085906001600160a01b03167f00000000000000000000000000000000000000000000000000000000000000006121ee565b50505050565b8060028151811061182e57fe5b60200260200101516001148061186b57507f00000000000000000000000000000000000000000000000000000000000000006001600160a01b0316155b1561196d577f00000000000000000000000000000000000000000000000000000000000000006001600160a01b0316636e1e3bbf83836002815181106118ad57fe5b6020026020010151846000815181106118c257fe5b6020026020010151856001815181106118d757fe5b60200260200101516040518563ffffffff1660e01b815260040180856001600160a01b03166001600160a01b031681526020018481526020018381526020018281526020018060200182810382526000815260200160200195505050505050600060405180830381600087803b15801561195057600080fd5b505af1158015611964573d6000803e3d6000fd5b50505050611b0d565b7f00000000000000000000000000000000000000000000000000000000000000006001600160a01b0316636e1e3bbf7f0000000000000000000000000000000000000000000000000000000000000000836002815181106119ca57fe5b6020026020010151846000815181106119df57fe5b6020026020010151856001815181106119f457fe5b60200260200101518760405160200180826001600160a01b03166001600160a01b031681526020019150506040516020818303038152906040526040518663ffffffff1660e01b815260040180866001600160a01b03166001600160a01b0316815260200185815260200184815260200183815260200180602001828103825283818151815260200191508051906020019080838360005b83811015611aa4578181015183820152602001611a8c565b50505050905090810190601f168015611ad15780820380516001836020036101000a031916815260200191505b509650505050505050600060405180830381600087803b158015611af457600080fd5b505af1158015611b08573d6000803e3d6000fd5b505050505b61019881600181518110611b1d57fe5b60200260200101510281600081518110611b3357fe5b602002602001015101826001600160a01b0316846001600160a01b03167fe4dfa6ac11314892f3029b34a25b1a887da3b1cab2bbf8506d87128ba6e3ac0284600281518110611b7e57fe5b602002602001015185600381518110611b9357fe5b60200260200101517f000000000000000000000000000000000000000000000000000000000000000087600381518110611bc957fe5b602002602001015160405180858152602001848152602001836001600160a01b03166001600160a01b0316815260200182815260200194505050505060405180910390a4505050565b6060815167ffffffffffffffff81118015611c2c57600080fd5b50604051908082528060200260200182016040528015611c56578160200160208202803683370190505b50905060005b8251811015611c86576001828281518110611c7357fe5b6020908102919091010152600101611c5c565b507f00000000000000000000000000000000000000000000000000000000000000006001600160a01b0316632eb2c2d6308585856040518563ffffffff1660e01b815260040180856001600160a01b03166001600160a01b03168152602001846001600160a01b03166001600160a01b03168152602001806020018060200180602001848103845286818151815260200191508051906020019060200280838360005b83811015611d41578181015183820152602001611d29565b50505050905001848103835285818151815260200191508051906020019060200280838360005b83811015611d80578181015183820152602001611d68565b50505050905001848103825260008152602001602001975050505050505050600060405180830381600087803b158015611db957600080fd5b505af1158015611dcd573d6000803e3d6000fd5b50505050505050565b6001600160a01b03821660008181526001602090815260409182902080547fffffffffffffffffffffffffffffffffffffffffffffffffffffffffffffff001685151590811790915582519384529083015280517fb21eb88b4e33b3f1281830a7178d74d8aa73220416215726b68ae23d539515cb9281900390910190a15050565b60008151604114611e6857600080fd5b60208201516040830151606084015160001a601b811015611e8757601b015b8060ff16601b1480611e9c57508060ff16601c145b611ea557600080fd5b6040805160008152602080820180845289905260ff8416828401526060820186905260808201859052915160019260a0808401939192601f1981019281900390910190855afa158015611efc573d6000803e3d6000fd5b5050604051601f1901519450506001600160a01b038416611f1c57600080fd5b50505092915050565b60008787878787878760405160200180888152602001878152602001868152602001858152602001846001600160a01b03166001600160a01b031660601b8152601401838152602001828051906020019060200280838360005b83811015611f97578181015183820152602001611f7f565b50505050905001975050505050505050604051602081830303815290604052805190602001209050979650505050505050565b600081815b8451811015612069576000858281518110611fe657fe5b602002602001015190508083101561202e5782816040516020018083815260200182815260200192505050604051602081830303815290604052805190602001209250612060565b808360405160200180838152602001828152602001925050506040516020818303038152906040528051906020012092505b50600101611fcf565b507f00000000000000000000000000000000000000000000000000000000000000001490505b92915050565b6000806120ba60646120ae85600563ffffffff61247016565b9063ffffffff6124e016565b604080516323b872dd60e01b81526001600160a01b0387811660048301527f0000000000000000000000000000000000000000000000000000000000000000811660248301526044820184905291519293507f0000000000000000000000000000000000000000000000000000000000000000909116916323b872dd916064808201926020929091908290030181600087803b15801561215957600080fd5b505af115801561216d573d6000803e3d6000fd5b505050506040513d602081101561218357600080fd5b50516121d6576040805162461bcd60e51b815260206004820152601360248201527f4645455f5452414e534645525f4641494c454400000000000000000000000000604482015290519081900360640190fd5b6121e6838263ffffffff61254516565b949350505050565b8251819085901561239857606060008060008061220a8a610c0a565b939850919650945092509050600061222586868686866110f2565b156122b35761223f6122378d84612470565b6127106124e0565b9050886001600160a01b0316846001600160a01b0316866001600160a01b03167fac7a699eb95c3c6d390ec4626de17ef9a67b35891efdb197beba7c7fdd45fac48f858760405180848152602001838152602001828152602001935050505060405180910390a46122b08782612545565b96505b801561239157604080516323b872dd60e01b81526001600160a01b038f811660048301528781166024830152604482018490529151918a16916323b872dd916064808201926020929091908290030181600087803b15801561231457600080fd5b505af1158015612328573d6000803e3d6000fd5b505050506040513d602081101561233e57600080fd5b5051612391576040805162461bcd60e51b815260206004820152601960248201527f636f6d6d6973696f6e207472616e73666572206661696c656400000000000000604482015290519081900360640190fd5b5050505050505b604080516323b872dd60e01b81526001600160a01b0389811660048301528681166024830152604482018490529151918416916323b872dd916064808201926020929091908290030181600087803b1580156123f357600080fd5b505af1158015612407573d6000803e3d6000fd5b505050506040513d602081101561241d57600080fd5b5051611dcd576040805162461bcd60e51b815260206004820152601760248201527f7061796d656e74207472616e73666572206661696c6564000000000000000000604482015290519081900360640190fd5b60008261247f5750600061208f565b508181028183828161248d57fe5b041461208f576040805162461bcd60e51b815260206004820152600860248201527f6f766572666c6f77000000000000000000000000000000000000000000000000604482015290519081900360640190fd5b600081612534576040805162461bcd60e51b815260206004820152600960248201527f64697662797a65726f0000000000000000000000000000000000000000000000604482015290519081900360640190fd5b81838161253d57fe5b049392505050565b60008282111561259c576040805162461bcd60e51b815260206004820152600860248201527f756e6465666c6f77000000000000000000000000000000000000000000000000604482015290519081900360640190fd5b5090039056fe6f6e6c792061646d696e2063616e207365747570206d6574615472616e73616374696f6e50726f636573736f7273a2646970667358221220fc9205bafc138c1de206481f144dc3e7818922fbe1a20d2a71392e5e2e413c1a64736f6c63430006050033",
  "devdoc": {
    "methods": {
      "buyLandWithSand(address,address,address,uint256[],bytes32,uint256[],bytes32[],bytes,bytes)": {
        "params": {
          "buyer": "address that perform the payment",
          "info": "[X_INDEX=0] x coordinate of the Land [Y_INDEX=1] y coordinate of the Land [SIZE_INDEX=2] size of the pack of Land to purchase [PRICE_INDEX=3] price in SAND to purchase that Land",
          "proof": "merkleProof for that particular Land",
          "reserved": "the reserved address (if any)",
          "to": "address that will own the purchased Land"
        }
      },
      "changeAdmin(address)": {
        "details": "change the administrator to be `newAdmin`.",
        "params": {
          "newAdmin": "address of the new administrator."
        }
      },
      "getAdmin()": {
        "details": "gives the current administrator of this contract.",
        "returns": {
          "_0": "the current administrator of this contract."
        }
      },
      "getSigningWallet()": {
        "details": "signing wallet authorized for referral",
        "returns": {
          "_0": "the address of the signing wallet"
        }
      },
      "isMetaTransactionProcessor(address)": {
        "details": "check whether address `who` is given meta-transaction execution rights.",
        "params": {
          "who": "The address to query."
        },
        "returns": {
          "_0": "whether the address has meta-transaction execution rights."
        }
      },
      "isReferralValid(bytes,address,address,uint256,uint256)": {
        "params": {
          "commissionRate": "The commissionRate of the referral",
          "expiryTime": "The expiry time of the referral",
          "referee": "The address of the referee",
          "referrer": "The address of the referrer",
          "signature": "The signature to check (signed referral)"
        },
        "returns": {
          "_0": "True if the referral is valid"
        }
      },
      "setMetaTransactionProcessor(address,bool)": {
        "details": "Enable or disable the ability of `metaTransactionProcessor` to perform meta-tx (metaTransactionProcessor rights).",
        "params": {
          "enabled": "set whether the metaTransactionProcessor is enabled or disabled.",
          "metaTransactionProcessor": "address that will be given/removed metaTransactionProcessor rights."
        }
      },
      "setReceivingWallet(address)": {
        "params": {
          "newWallet": "address of the new receiving wallet"
        }
      },
      "updateMaxCommissionRate(uint256)": {
        "details": "Update the maximum commission rate",
        "params": {
          "newMaxCommissionRate": "The new maximum commission rate"
        }
      },
      "updateSigningWallet(address)": {
        "details": "Update the signing wallet",
        "params": {
          "newSigningWallet": "The new address of the signing wallet"
        }
      },
      "withdrawAssets(address,uint256[],uint256[])": {
        "params": {
          "assetIds": "the assetIds to be transferred",
          "to": "intended recipient of the asset tokens",
          "values": "the quantities of the assetIds to be transferred"
        }
      }
    },
    "title": "Estate Sale contract with referral"
  },
  "userdoc": {
    "methods": {
      "buyLandWithSand(address,address,address,uint256[],bytes32,uint256[],bytes32[],bytes,bytes)": {
        "notice": "buy Land with SAND using the merkle proof associated with it"
      },
      "getExpiryTime()": {
        "notice": "Gets the expiry time for the current sale"
      },
      "getMaxCommisionRate()": {
        "notice": "the max commision rate"
      },
      "getMerkleRoot()": {
        "notice": "Gets the Merkle root associated with the current sale"
      },
      "isReferralValid(bytes,address,address,uint256,uint256)": {
        "notice": "Check if a referral is valid"
      },
      "setReceivingWallet(address)": {
        "notice": "set the wallet receiving the proceeds"
      },
      "withdrawAssets(address,uint256[],uint256[])": {
        "notice": "enable Admin to withdraw remaining assets from EstateSaleWithFee contract"
      }
    },
    "notice": "This contract manages the sale of our lands as Estates"
  },
  "storageLayout": {
    "storage": [
      {
        "astId": 13650,
        "contract": "src/solc_0.6/EstateSale/EstateSaleWithAuth.sol:EstateSaleWithAuth",
        "label": "_admin",
        "offset": 0,
        "slot": "0",
        "type": "t_address"
      },
      {
        "astId": 13712,
        "contract": "src/solc_0.6/EstateSale/EstateSaleWithAuth.sol:EstateSaleWithAuth",
        "label": "_metaTransactionContracts",
        "offset": 0,
        "slot": "1",
        "type": "t_mapping(t_address,t_bool)"
      },
      {
        "astId": 11828,
        "contract": "src/solc_0.6/EstateSale/EstateSaleWithAuth.sol:EstateSaleWithAuth",
        "label": "_signingWallet",
        "offset": 0,
        "slot": "2",
        "type": "t_address"
      },
      {
        "astId": 11830,
        "contract": "src/solc_0.6/EstateSale/EstateSaleWithAuth.sol:EstateSaleWithAuth",
        "label": "_maxCommissionRate",
        "offset": 0,
        "slot": "3",
        "type": "t_uint256"
      },
      {
        "astId": 11834,
        "contract": "src/solc_0.6/EstateSale/EstateSaleWithAuth.sol:EstateSaleWithAuth",
        "label": "_previousSigningWallets",
        "offset": 0,
        "slot": "4",
        "type": "t_mapping(t_address,t_uint256)"
      },
      {
        "astId": 11843,
        "contract": "src/solc_0.6/EstateSale/EstateSaleWithAuth.sol:EstateSaleWithAuth",
        "label": "_previousSigningDelay",
        "offset": 0,
        "slot": "5",
        "type": "t_uint256"
      },
      {
        "astId": 7453,
        "contract": "src/solc_0.6/EstateSale/EstateSaleWithAuth.sol:EstateSaleWithAuth",
        "label": "_wallet",
        "offset": 0,
        "slot": "6",
        "type": "t_address_payable"
      },
      {
        "astId": 7455,
        "contract": "src/solc_0.6/EstateSale/EstateSaleWithAuth.sol:EstateSaleWithAuth",
        "label": "_authValidator",
        "offset": 0,
        "slot": "7",
        "type": "t_contract(AuthValidator)6784"
      }
    ],
    "types": {
      "t_address": {
        "encoding": "inplace",
        "label": "address",
        "numberOfBytes": "20"
      },
      "t_address_payable": {
        "encoding": "inplace",
        "label": "address payable",
        "numberOfBytes": "20"
      },
      "t_bool": {
        "encoding": "inplace",
        "label": "bool",
        "numberOfBytes": "1"
      },
      "t_contract(AuthValidator)6784": {
        "encoding": "inplace",
        "label": "contract AuthValidator",
        "numberOfBytes": "20"
      },
      "t_mapping(t_address,t_bool)": {
        "encoding": "mapping",
        "key": "t_address",
        "label": "mapping(address => bool)",
        "numberOfBytes": "32",
        "value": "t_bool"
      },
      "t_mapping(t_address,t_uint256)": {
        "encoding": "mapping",
        "key": "t_address",
        "label": "mapping(address => uint256)",
        "numberOfBytes": "32",
        "value": "t_uint256"
      },
      "t_uint256": {
        "encoding": "inplace",
        "label": "uint256",
        "numberOfBytes": "32"
      }
    }
  }
}