{
  "abi": [
    {
      "inputs": [
        {
          "internalType": "contract IERC20",
          "name": "stakeToken",
          "type": "address"
        },
        {
          "internalType": "contract IERC20",
          "name": "rewardToken",
          "type": "address"
        },
        {
          "internalType": "contract ERC721",
          "name": "multiplierNFToken",
          "type": "address"
        },
        {
          "internalType": "uint256",
          "name": "rewardDuration",
          "type": "uint256"
        }
      ],
      "stateMutability": "nonpayable",
      "type": "constructor"
    },
    {
      "anonymous": false,
      "inputs": [
        {
          "indexed": true,
          "internalType": "address",
          "name": "previousOwner",
          "type": "address"
        },
        {
          "indexed": true,
          "internalType": "address",
          "name": "newOwner",
          "type": "address"
        }
      ],
      "name": "OwnershipTransferred",
      "type": "event"
    },
    {
      "anonymous": false,
      "inputs": [
        {
          "indexed": false,
          "internalType": "uint256",
          "name": "reward",
          "type": "uint256"
        }
      ],
      "name": "RewardAdded",
      "type": "event"
    },
    {
      "anonymous": false,
      "inputs": [
        {
          "indexed": true,
          "internalType": "address",
          "name": "user",
          "type": "address"
        },
        {
          "indexed": false,
          "internalType": "uint256",
          "name": "reward",
          "type": "uint256"
        }
      ],
      "name": "RewardPaid",
      "type": "event"
    },
    {
      "anonymous": false,
      "inputs": [
        {
          "indexed": true,
          "internalType": "address",
          "name": "user",
          "type": "address"
        },
        {
          "indexed": false,
          "internalType": "uint256",
          "name": "amount",
          "type": "uint256"
        }
      ],
      "name": "Staked",
      "type": "event"
    },
    {
      "anonymous": false,
      "inputs": [
        {
          "indexed": true,
          "internalType": "address",
          "name": "user",
          "type": "address"
        },
        {
          "indexed": false,
          "internalType": "uint256",
          "name": "amount",
          "type": "uint256"
        }
      ],
      "name": "Withdrawn",
      "type": "event"
    },
    {
      "inputs": [
        {
          "internalType": "address",
          "name": "account",
          "type": "address"
        }
      ],
      "name": "balanceOf",
      "outputs": [
        {
          "internalType": "uint256",
          "name": "",
          "type": "uint256"
        }
      ],
      "stateMutability": "view",
      "type": "function"
    },
    {
      "inputs": [
        {
          "internalType": "uint256",
          "name": "amountStaked",
          "type": "uint256"
        },
        {
          "internalType": "uint256",
          "name": "numLands",
          "type": "uint256"
        }
      ],
      "name": "computeContribution",
      "outputs": [
        {
          "internalType": "uint256",
          "name": "",
          "type": "uint256"
        }
      ],
      "stateMutability": "pure",
      "type": "function"
    },
    {
      "inputs": [
        {
          "internalType": "address",
          "name": "account",
          "type": "address"
        }
      ],
      "name": "contributionOf",
      "outputs": [
        {
          "internalType": "uint256",
          "name": "",
          "type": "uint256"
        }
      ],
      "stateMutability": "view",
      "type": "function"
    },
    {
      "inputs": [],
      "name": "duration",
      "outputs": [
        {
          "internalType": "uint256",
          "name": "",
          "type": "uint256"
        }
      ],
      "stateMutability": "view",
      "type": "function"
    },
    {
      "inputs": [
        {
          "internalType": "address",
          "name": "account",
          "type": "address"
        }
      ],
      "name": "earned",
      "outputs": [
        {
          "internalType": "uint256",
          "name": "",
          "type": "uint256"
        }
      ],
      "stateMutability": "view",
      "type": "function"
    },
    {
      "inputs": [],
      "name": "exit",
      "outputs": [],
      "stateMutability": "nonpayable",
      "type": "function"
    },
    {
      "inputs": [],
      "name": "getReward",
      "outputs": [],
      "stateMutability": "nonpayable",
      "type": "function"
    },
    {
      "inputs": [],
      "name": "lastTimeRewardApplicable",
      "outputs": [
        {
          "internalType": "uint256",
          "name": "",
          "type": "uint256"
        }
      ],
      "stateMutability": "view",
      "type": "function"
    },
    {
      "inputs": [],
      "name": "lastUpdateTime",
      "outputs": [
        {
          "internalType": "uint256",
          "name": "",
          "type": "uint256"
        }
      ],
      "stateMutability": "view",
      "type": "function"
    },
    {
      "inputs": [
        {
          "internalType": "uint256",
          "name": "reward",
          "type": "uint256"
        }
      ],
      "name": "notifyRewardAmount",
      "outputs": [],
      "stateMutability": "nonpayable",
      "type": "function"
    },
    {
      "inputs": [],
      "name": "owner",
      "outputs": [
        {
          "internalType": "address",
          "name": "",
          "type": "address"
        }
      ],
      "stateMutability": "view",
      "type": "function"
    },
    {
      "inputs": [],
      "name": "periodFinish",
      "outputs": [
        {
          "internalType": "uint256",
          "name": "",
          "type": "uint256"
        }
      ],
      "stateMutability": "view",
      "type": "function"
    },
    {
      "inputs": [],
      "name": "renounceOwnership",
      "outputs": [],
      "stateMutability": "nonpayable",
      "type": "function"
    },
    {
      "inputs": [],
      "name": "rewardDistribution",
      "outputs": [
        {
          "internalType": "address",
          "name": "",
          "type": "address"
        }
      ],
      "stateMutability": "view",
      "type": "function"
    },
    {
      "inputs": [],
      "name": "rewardPerToken",
      "outputs": [
        {
          "internalType": "uint256",
          "name": "",
          "type": "uint256"
        }
      ],
      "stateMutability": "view",
      "type": "function"
    },
    {
      "inputs": [],
      "name": "rewardPerTokenStored",
      "outputs": [
        {
          "internalType": "uint256",
          "name": "",
          "type": "uint256"
        }
      ],
      "stateMutability": "view",
      "type": "function"
    },
    {
      "inputs": [],
      "name": "rewardRate",
      "outputs": [
        {
          "internalType": "uint256",
          "name": "",
          "type": "uint256"
        }
      ],
      "stateMutability": "view",
      "type": "function"
    },
    {
      "inputs": [
        {
          "internalType": "address",
          "name": "",
          "type": "address"
        }
      ],
      "name": "rewards",
      "outputs": [
        {
          "internalType": "uint256",
          "name": "",
          "type": "uint256"
        }
      ],
      "stateMutability": "view",
      "type": "function"
    },
    {
      "inputs": [
        {
          "internalType": "address",
          "name": "_rewardDistribution",
          "type": "address"
        }
      ],
      "name": "setRewardDistribution",
      "outputs": [],
      "stateMutability": "nonpayable",
      "type": "function"
    },
    {
      "inputs": [
        {
          "internalType": "uint256",
          "name": "amount",
          "type": "uint256"
        }
      ],
      "name": "stake",
      "outputs": [],
      "stateMutability": "nonpayable",
      "type": "function"
    },
    {
      "inputs": [],
      "name": "totalContributions",
      "outputs": [
        {
          "internalType": "uint256",
          "name": "",
          "type": "uint256"
        }
      ],
      "stateMutability": "view",
      "type": "function"
    },
    {
      "inputs": [],
      "name": "totalSupply",
      "outputs": [
        {
          "internalType": "uint256",
          "name": "",
          "type": "uint256"
        }
      ],
      "stateMutability": "view",
      "type": "function"
    },
    {
      "inputs": [
        {
          "internalType": "address",
          "name": "newOwner",
          "type": "address"
        }
      ],
      "name": "transferOwnership",
      "outputs": [],
      "stateMutability": "nonpayable",
      "type": "function"
    },
    {
      "inputs": [
        {
          "internalType": "address",
          "name": "",
          "type": "address"
        }
      ],
      "name": "userRewardPerTokenPaid",
      "outputs": [
        {
          "internalType": "uint256",
          "name": "",
          "type": "uint256"
        }
      ],
      "stateMutability": "view",
      "type": "function"
    },
    {
      "inputs": [
        {
          "internalType": "uint256",
          "name": "amount",
          "type": "uint256"
        }
      ],
      "name": "withdraw",
      "outputs": [],
      "stateMutability": "nonpayable",
      "type": "function"
    }
  ],
  "address": "0xeAe6fD7d8c1740f3F1B03e9a5C35793cD260B9A6",
  "args": [
    "0x3dd49f67E9d5Bc4C5E6634b3F70BfD9dc1b6BD74",
    "0x3845badAde8e6dFF049820680d1F14bD3903a5d0",
    "0x50f5474724e0Ee42D9a4e711ccFB275809Fd6d4a",
    2592000
  ],
  "solcInputHash": "0xc7f3cbd16c45eb9d581c31ca6db3b5c1395921dea12ff008b96a56496a984d87",
  "bytecode": "0x6101006040526000600455600060055534801561001b57600080fd5b5060405161181b38038061181b8339818101604052608081101561003e57600080fd5b508051602082015160408301516060938401519383901b6001600160601b031916608052919290919060006100716100e3565b600280546001600160a01b0319166001600160a01b038316908117909155604051919250906000907f8be0079c531659141344cd1fd0a4f28419497f9722a3daafe3b4186f6b6457e0908290a3506001600160601b0319606093841b811660c0529190921b1660e05260a052506100e7565b3390565b60805160601c60a05160c05160601c60e05160601c6116e261013960003980610c80525080610a2a525080610500528061087e52806108e652806109275250806111ca52806112ed52506116e26000f3fe608060405234801561001057600080fd5b50600436106101a25760003560e01c8063715018a6116100ee578063c8f33c9111610097578063df136d6511610071578063df136d651461038d578063e9fad8ee14610395578063ebe2b12b1461039d578063f2fde38b146103a5576101a2565b8063c8f33c9114610357578063cd3daf9d1461035f578063d7805ece14610367576101a2565b80638b876347116100c85780638b8763471461030c5780638da5cb5b14610332578063a694fc3a1461033a576101a2565b8063715018a6146102f45780637b0a47ee146102fc57806380faa57d14610304576101a2565b80631b510c14116101505780633c6b16ab1161012a5780633c6b16ab146102a95780633d18b912146102c657806370a08231146102ce576101a2565b80631b510c14146102615780632e1a7d4d1461028457806337c08923146102a1576101a2565b80630fb5a6b4116101815780630fb5a6b41461022d578063101114cf1461023557806318160ddd14610259576101a2565b80628cc262146101a75780630700037d146101df5780630d68b76114610205575b600080fd5b6101cd600480360360208110156101bd57600080fd5b50356001600160a01b03166103cb565b60408051918252519081900360200190f35b6101cd600480360360208110156101f557600080fd5b50356001600160a01b0316610453565b61022b6004803603602081101561021b57600080fd5b50356001600160a01b0316610465565b005b6101cd6104fe565b61023d610522565b604080516001600160a01b039092168252519081900360200190f35b6101cd610531565b6101cd6004803603604081101561027757600080fd5b5080359060200135610538565b61022b6004803603602081101561029a57600080fd5b50356105fd565b6101cd61079c565b61022b600480360360208110156102bf57600080fd5b50356107a2565b61022b61098b565b6101cd600480360360208110156102e457600080fd5b50356001600160a01b0316610a9a565b61022b610ab5565b6101cd610b76565b6101cd610b7c565b6101cd6004803603602081101561032257600080fd5b50356001600160a01b0316610b8f565b61023d610ba1565b61022b6004803603602081101561035057600080fd5b5035610bb0565b6101cd610db2565b6101cd610db8565b6101cd6004803603602081101561037d57600080fd5b50356001600160a01b0316610e0e565b6101cd610e29565b61022b610e2f565b6101cd610e4a565b61022b600480360360208110156103bb57600080fd5b50356001600160a01b0316610e50565b6001600160a01b038116600090815260096020908152604080832054600890925282205461044d91906104419069d3c21bcecceda1000000906104359061042090610414610db8565b9063ffffffff610f6816565b61042988610e0e565b9063ffffffff610fc516565b9063ffffffff61102016565b9063ffffffff61108516565b92915050565b60096020526000908152604090205481565b61046d6110c8565b6002546001600160a01b039081169116146104cf576040805162461bcd60e51b815260206004820181905260248201527f4f776e61626c653a2063616c6c6572206973206e6f7420746865206f776e6572604482015290519081900360640190fd5b6003805473ffffffffffffffffffffffffffffffffffffffff19166001600160a01b0392909216919091179055565b7f000000000000000000000000000000000000000000000000000000000000000081565b6003546001600160a01b031681565b6000545b90565b60008161054657508161044d565b600061058f61058061057161056c60016104416102b96104298a8463ffffffff610f6816565b6110cc565b6123289063ffffffff61108516565b6127109063ffffffff610fc516565b9050631dcd65008111156105cd576105ca6105b9600a61043584631dcd650063ffffffff610f6816565b631dcd65009063ffffffff61108516565b90505b6105f56105e8633b9aca00610435878563ffffffff610fc516565b859063ffffffff61108516565b949350505050565b33610606610db8565b6007556004544210158061061b5750600a5415155b1561062c57610628610b7c565b6006555b6001600160a01b0381161561067057610644816103cb565b6001600160a01b0382166000908152600960209081526040808320939093556007546008909152919020555b600082116106c5576040805162461bcd60e51b815260206004820152601160248201527f43616e6e6f742077697468647261772030000000000000000000000000000000604482015290519081900360640190fd5b60006106d033610a9a565b905060006106f08261043586670de0b6b3a764000063ffffffff610fc516565b905060006106fd33610e0e565b9050600061071d670de0b6b3a7640000610435848663ffffffff610fc516565b905061072f828263ffffffff610f6816565b336000908152600b6020526040902055600a54610752908263ffffffff610f6816565b600a5561075e8661117c565b60408051878152905133917f7084f5476618d8e60b11ef0d7d3f06914655adb8793e28ff7f018d4c76d505d5919081900360200190a2505050505050565b600a5490565b6003546001600160a01b03166107b66110c8565b6001600160a01b0316146107fb5760405162461bcd60e51b81526004018080602001828103825260218152602001806116626021913960400191505060405180910390fd5b6000610805610db8565b6007556004544210158061081a5750600a5415155b1561082b57610827610b7c565b6006555b6001600160a01b0381161561086f57610843816103cb565b6001600160a01b0382166000908152600960209081526040808320939093556007546008909152919020555b60045442106108b0576108a8827f000000000000000000000000000000000000000000000000000000000000000063ffffffff61102016565b60055561091b565b6004546000906108c6904263ffffffff610f6816565b905060006108df60055483610fc590919063ffffffff16565b90506109157f0000000000000000000000000000000000000000000000000000000000000000610435868463ffffffff61108516565b60055550505b426006819055610951907f000000000000000000000000000000000000000000000000000000000000000063ffffffff61108516565b6004556040805183815290517fde88a922e0d3b88b24e9623efeb464919c6bf9f66857a65e2bfcf2ce87a9433d9181900360200190a15050565b33610994610db8565b600755600454421015806109a95750600a5415155b156109ba576109b6610b7c565b6006555b6001600160a01b038116156109fe576109d2816103cb565b6001600160a01b0382166000908152600960209081526040808320939093556007546008909152919020555b336000908152600960205260409020548015610a965733600081815260096020526040812055610a5f907f00000000000000000000000000000000000000000000000000000000000000006001600160a01b0316908363ffffffff61120216565b60408051828152905133917fe2403640ba68fed3a2f88b7557551d1993f84b99bb10ff833f0cf8db0c5e0486919081900360200190a25b5050565b6001600160a01b031660009081526001602052604090205490565b610abd6110c8565b6002546001600160a01b03908116911614610b1f576040805162461bcd60e51b815260206004820181905260248201527f4f776e61626c653a2063616c6c6572206973206e6f7420746865206f776e6572604482015290519081900360640190fd5b6002546040516000916001600160a01b0316907f8be0079c531659141344cd1fd0a4f28419497f9722a3daafe3b4186f6b6457e0908390a36002805473ffffffffffffffffffffffffffffffffffffffff19169055565b60055481565b6000610b8a42600454611287565b905090565b60086020526000908152604090205481565b6002546001600160a01b031690565b33610bb9610db8565b60075560045442101580610bce5750600a5415155b15610bdf57610bdb610b7c565b6006555b6001600160a01b03811615610c2357610bf7816103cb565b6001600160a01b0382166000908152600960209081526040808320939093556007546008909152919020555b60008211610c78576040805162461bcd60e51b815260206004820152600e60248201527f43616e6e6f74207374616b652030000000000000000000000000000000000000604482015290519081900360640190fd5b6000610d25837f00000000000000000000000000000000000000000000000000000000000000006001600160a01b03166370a08231336040518263ffffffff1660e01b815260040180826001600160a01b03166001600160a01b0316815260200191505060206040518083038186803b158015610cf457600080fd5b505afa158015610d08573d6000803e3d6000fd5b505050506040513d6020811015610d1e57600080fd5b5051610538565b600a54909150610d3b908263ffffffff61108516565b600a55336000908152600b6020526040902054610d5e908263ffffffff61108516565b336000908152600b6020526040902055610d778361129f565b60408051848152905133917f9e71bc8eea02a63969f509818f2dafb9254532904319f9dbda79b67bd34a5f3d919081900360200190a2505050565b60065481565b6000610dc261079c565b610dcf5750600754610535565b610b8a610dff610ddd61079c565b61043569d3c21bcecceda1000000610429600554610429600654610414610b7c565b6007549063ffffffff61108516565b6001600160a01b03166000908152600b602052604090205490565b60075481565b610e40610e3b33610a9a565b6105fd565b610e4861098b565b565b60045481565b610e586110c8565b6002546001600160a01b03908116911614610eba576040805162461bcd60e51b815260206004820181905260248201527f4f776e61626c653a2063616c6c6572206973206e6f7420746865206f776e6572604482015290519081900360640190fd5b6001600160a01b038116610eff5760405162461bcd60e51b815260040180806020018281038252602681526020018061163c6026913960400191505060405180910390fd5b6002546040516001600160a01b038084169216907f8be0079c531659141344cd1fd0a4f28419497f9722a3daafe3b4186f6b6457e090600090a36002805473ffffffffffffffffffffffffffffffffffffffff19166001600160a01b0392909216919091179055565b600082821115610fbf576040805162461bcd60e51b815260206004820152600860248201527f756e6465666c6f77000000000000000000000000000000000000000000000000604482015290519081900360640190fd5b50900390565b600082610fd45750600061044d565b5081810281838281610fe257fe5b041461044d576040805162461bcd60e51b81526020600482015260086024820152676f766572666c6f7760c01b604482015290519081900360640190fd5b600081611074576040805162461bcd60e51b815260206004820152600960248201527f64697662797a65726f0000000000000000000000000000000000000000000000604482015290519081900360640190fd5b81838161107d57fe5b049392505050565b8181018281101561044d576040805162461bcd60e51b81526020600482015260086024820152676f766572666c6f7760c01b604482015290519081900360640190fd5b3390565b60006110e282633b9aca0063ffffffff610fc516565b9150600060036110f984600263ffffffff61108516565b8161110057fe5b0490508291505b81811015611176579050806002810a818111611155576040805162461bcd60e51b81526020600482015260086024820152676f766572666c6f7760c01b604482015290519081900360640190fd5b60038260020282868161116457fe5b04018161116d57fe5b04915050611107565b50919050565b60005461118f908263ffffffff610f6816565b6000908155338152600160205260409020546111b1908263ffffffff610f6816565b336000818152600160205260409020919091556111ff907f00000000000000000000000000000000000000000000000000000000000000006001600160a01b0316908363ffffffff61120216565b50565b604080516001600160a01b038416602482015260448082018490528251808303909101815260649091019091526020810180517bffffffffffffffffffffffffffffffffffffffffffffffffffffffff167fa9059cbb00000000000000000000000000000000000000000000000000000000179052611282908490611323565b505050565b60008183106112965781611298565b825b9392505050565b6000546112b2908263ffffffff61108516565b6000908155338152600160205260409020546112d4908263ffffffff61108516565b336000818152600160205260409020919091556111ff907f00000000000000000000000000000000000000000000000000000000000000006001600160a01b031690308463ffffffff6113d416565b6060611378826040518060400160405280602081526020017f5361666545524332303a206c6f772d6c6576656c2063616c6c206661696c6564815250856001600160a01b03166114629092919063ffffffff16565b8051909150156112825780806020019051602081101561139757600080fd5b50516112825760405162461bcd60e51b815260040180806020018281038252602a815260200180611683602a913960400191505060405180910390fd5b604080516001600160a01b0380861660248301528416604482015260648082018490528251808303909101815260849091019091526020810180517bffffffffffffffffffffffffffffffffffffffffffffffffffffffff167f23b872dd0000000000000000000000000000000000000000000000000000000017905261145c908590611323565b50505050565b60606105f58484600085606061147785611635565b6114c8576040805162461bcd60e51b815260206004820152601d60248201527f416464726573733a2063616c6c20746f206e6f6e2d636f6e7472616374000000604482015290519081900360640190fd5b60006060866001600160a01b031685876040518082805190602001908083835b6020831061152557805182527fffffffffffffffffffffffffffffffffffffffffffffffffffffffffffffffe090920191602091820191016114e8565b6001836020036101000a03801982511681845116808217855250505050505090500191505060006040518083038185875af1925050503d8060008114611587576040519150601f19603f3d011682016040523d82523d6000602084013e61158c565b606091505b509150915081156115a05791506105f59050565b8051156115b05780518082602001fd5b8360405162461bcd60e51b81526004018080602001828103825283818151815260200191508051906020019080838360005b838110156115fa5781810151838201526020016115e2565b50505050905090810190601f1680156116275780820380516001836020036101000a031916815260200191505b509250505060405180910390fd5b3b15159056fe4f776e61626c653a206e6577206f776e657220697320746865207a65726f206164647265737343616c6c6572206973206e6f742072657761726420646973747269627574696f6e5361666545524332303a204552433230206f7065726174696f6e20646964206e6f742073756363656564a26469706673582212202aaa7b2ce5ffeca6a71b47f2ae4ee5b9e29c6f56eae1afab6c6f78fa7fa6680264736f6c63430006050033",
  "devdoc": {
    "methods": {
      "notifyRewardAmount(uint256)": {
        "params": {
          "reward": "number of token to be distributed over the duration"
        }
      },
      "owner()": {
        "details": "Returns the address of the current owner."
      },
      "renounceOwnership()": {
        "details": "Leaves the contract without owner. It will not be possible to call `onlyOwner` functions anymore. Can only be called by the current owner.     * NOTE: Renouncing ownership will leave the contract without an owner, thereby removing any functionality that is only available to the owner."
      },
      "transferOwnership(address)": {
        "details": "Transfers ownership of the contract to a new account (`newOwner`). Can only be called by the current owner."
      }
    }
  },
  "userdoc": {
    "methods": {},
    "notice": "Reward Pool based on unipool contract : https://github.com/Synthetixio/Unipool/blob/master/contracts/Unipool.sol"
  },
  "storageLayout": {
    "storage": [
      {
        "astId": 11470,
        "contract": "src/LiquidityMining/LandWeightedSANDRewardPool.sol:LandWeightedSANDRewardPool",
        "label": "_totalSupply",
        "offset": 0,
        "slot": "0",
        "type": "t_uint256"
      },
      {
        "astId": 11474,
        "contract": "src/LiquidityMining/LandWeightedSANDRewardPool.sol:LandWeightedSANDRewardPool",
        "label": "_balances",
        "offset": 0,
        "slot": "1",
        "type": "t_mapping(t_address,t_uint256)"
      },
      {
        "astId": 30,
        "contract": "src/LiquidityMining/LandWeightedSANDRewardPool.sol:LandWeightedSANDRewardPool",
        "label": "_owner",
        "offset": 0,
        "slot": "2",
        "type": "t_address"
      },
      {
        "astId": 11419,
        "contract": "src/LiquidityMining/LandWeightedSANDRewardPool.sol:LandWeightedSANDRewardPool",
        "label": "rewardDistribution",
        "offset": 0,
        "slot": "3",
        "type": "t_address"
      },
      {
        "astId": 11612,
        "contract": "src/LiquidityMining/LandWeightedSANDRewardPool.sol:LandWeightedSANDRewardPool",
        "label": "periodFinish",
        "offset": 0,
        "slot": "4",
        "type": "t_uint256"
      },
      {
        "astId": 11615,
        "contract": "src/LiquidityMining/LandWeightedSANDRewardPool.sol:LandWeightedSANDRewardPool",
        "label": "rewardRate",
        "offset": 0,
        "slot": "5",
        "type": "t_uint256"
      },
      {
        "astId": 11617,
        "contract": "src/LiquidityMining/LandWeightedSANDRewardPool.sol:LandWeightedSANDRewardPool",
        "label": "lastUpdateTime",
        "offset": 0,
        "slot": "6",
        "type": "t_uint256"
      },
      {
        "astId": 11619,
        "contract": "src/LiquidityMining/LandWeightedSANDRewardPool.sol:LandWeightedSANDRewardPool",
        "label": "rewardPerTokenStored",
        "offset": 0,
        "slot": "7",
        "type": "t_uint256"
      },
      {
        "astId": 11623,
        "contract": "src/LiquidityMining/LandWeightedSANDRewardPool.sol:LandWeightedSANDRewardPool",
        "label": "userRewardPerTokenPaid",
        "offset": 0,
        "slot": "8",
        "type": "t_mapping(t_address,t_uint256)"
      },
      {
        "astId": 11627,
        "contract": "src/LiquidityMining/LandWeightedSANDRewardPool.sol:LandWeightedSANDRewardPool",
        "label": "rewards",
        "offset": 0,
        "slot": "9",
        "type": "t_mapping(t_address,t_uint256)"
      },
      {
        "astId": 11648,
        "contract": "src/LiquidityMining/LandWeightedSANDRewardPool.sol:LandWeightedSANDRewardPool",
        "label": "_totalContributions",
        "offset": 0,
        "slot": "10",
        "type": "t_uint256"
      },
      {
        "astId": 11652,
        "contract": "src/LiquidityMining/LandWeightedSANDRewardPool.sol:LandWeightedSANDRewardPool",
        "label": "_contributions",
        "offset": 0,
        "slot": "11",
        "type": "t_mapping(t_address,t_uint256)"
      }
    ],
    "types": {
      "t_address": {
        "encoding": "inplace",
        "label": "address",
        "numberOfBytes": "20"
      },
      "t_mapping(t_address,t_uint256)": {
        "encoding": "mapping",
        "key": "t_address",
        "label": "mapping(address => uint256)",
        "numberOfBytes": "32",
        "value": "t_uint256"
      },
      "t_uint256": {
        "encoding": "inplace",
        "label": "uint256",
        "numberOfBytes": "32"
      }
    }
  },
  "gasEstimates": {
    "creation": {
      "codeDepositCost": "1171600",
      "executionCost": "infinite",
      "totalCost": "infinite"
    },
    "external": {
      "balanceOf(address)": "1231",
      "computeContribution(uint256,uint256)": "infinite",
      "contributionOf(address)": "1231",
      "duration()": "infinite",
      "earned(address)": "infinite",
      "exit()": "infinite",
      "getReward()": "infinite",
      "lastTimeRewardApplicable()": "1174",
      "lastUpdateTime()": "1043",
      "notifyRewardAmount(uint256)": "infinite",
      "owner()": "1104",
      "periodFinish()": "1086",
      "renounceOwnership()": "24235",
      "rewardDistribution()": "1105",
      "rewardPerToken()": "infinite",
      "rewardPerTokenStored()": "1042",
      "rewardRate()": "1066",
      "rewards(address)": "1193",
      "setRewardDistribution(address)": "22031",
      "stake(uint256)": "infinite",
      "totalContributions()": "1088",
      "totalSupply()": "1089",
      "transferOwnership(address)": "infinite",
      "userRewardPerTokenPaid(address)": "1169",
      "withdraw(uint256)": "infinite"
    }
  }
}