{
  "address": "0x8be6E20c047CDAB60D74EeB929ea8E3b24E10649",
  "abi": [
    {
      "inputs": [
        {
          "internalType": "address",
          "name": "landAddress",
          "type": "address"
        },
        {
          "internalType": "address",
          "name": "sandContractAddress",
          "type": "address"
        },
        {
          "internalType": "address",
          "name": "initialMetaTx",
          "type": "address"
        },
        {
          "internalType": "address",
          "name": "admin",
          "type": "address"
        },
        {
          "internalType": "address payable",
          "name": "initialWalletAddress",
          "type": "address"
        },
        {
          "internalType": "bytes32",
          "name": "merkleRoot",
          "type": "bytes32"
        },
        {
          "internalType": "uint256",
          "name": "expiryTime",
          "type": "uint256"
        },
        {
          "internalType": "address",
          "name": "initialSigningWallet",
          "type": "address"
        },
        {
          "internalType": "uint256",
          "name": "initialMaxCommissionRate",
          "type": "uint256"
        },
        {
          "internalType": "address",
          "name": "estate",
          "type": "address"
        },
        {
          "internalType": "address",
          "name": "asset",
          "type": "address"
        },
        {
          "internalType": "address",
          "name": "feeDistributor",
          "type": "address"
        }
      ],
      "stateMutability": "nonpayable",
      "type": "constructor"
    },
    {
      "anonymous": false,
      "inputs": [
        {
          "indexed": false,
          "internalType": "address",
          "name": "oldAdmin",
          "type": "address"
        },
        {
          "indexed": false,
          "internalType": "address",
          "name": "newAdmin",
          "type": "address"
        }
      ],
      "name": "AdminChanged",
      "type": "event"
    },
    {
      "anonymous": false,
      "inputs": [
        {
          "indexed": true,
          "internalType": "address",
          "name": "buyer",
          "type": "address"
        },
        {
          "indexed": true,
          "internalType": "address",
          "name": "to",
          "type": "address"
        },
        {
          "indexed": true,
          "internalType": "uint256",
          "name": "topCornerId",
          "type": "uint256"
        },
        {
          "indexed": false,
          "internalType": "uint256",
          "name": "size",
          "type": "uint256"
        },
        {
          "indexed": false,
          "internalType": "uint256",
          "name": "price",
          "type": "uint256"
        },
        {
          "indexed": false,
          "internalType": "address",
          "name": "token",
          "type": "address"
        },
        {
          "indexed": false,
          "internalType": "uint256",
          "name": "amountPaid",
          "type": "uint256"
        }
      ],
      "name": "LandQuadPurchased",
      "type": "event"
    },
    {
      "anonymous": false,
      "inputs": [
        {
          "indexed": false,
          "internalType": "address",
          "name": "metaTransactionProcessor",
          "type": "address"
        },
        {
          "indexed": false,
          "internalType": "bool",
          "name": "enabled",
          "type": "bool"
        }
      ],
      "name": "MetaTransactionProcessor",
      "type": "event"
    },
    {
      "anonymous": false,
      "inputs": [
        {
          "indexed": true,
          "internalType": "address",
          "name": "referrer",
          "type": "address"
        },
        {
          "indexed": true,
          "internalType": "address",
          "name": "referee",
          "type": "address"
        },
        {
          "indexed": true,
          "internalType": "address",
          "name": "token",
          "type": "address"
        },
        {
          "indexed": false,
          "internalType": "uint256",
          "name": "amount",
          "type": "uint256"
        },
        {
          "indexed": false,
          "internalType": "uint256",
          "name": "commission",
          "type": "uint256"
        },
        {
          "indexed": false,
          "internalType": "uint256",
          "name": "commissionRate",
          "type": "uint256"
        }
      ],
      "name": "ReferralUsed",
      "type": "event"
    },
    {
      "inputs": [
        {
          "internalType": "address",
          "name": "buyer",
          "type": "address"
        },
        {
          "internalType": "address",
          "name": "to",
          "type": "address"
        },
        {
          "internalType": "address",
          "name": "reserved",
          "type": "address"
        },
        {
          "internalType": "uint256",
          "name": "x",
          "type": "uint256"
        },
        {
          "internalType": "uint256",
          "name": "y",
          "type": "uint256"
        },
        {
          "internalType": "uint256",
          "name": "size",
          "type": "uint256"
        },
        {
          "internalType": "uint256",
          "name": "priceInSand",
          "type": "uint256"
        },
        {
          "internalType": "uint256",
          "name": "adjustedPriceInSand",
          "type": "uint256"
        },
        {
          "internalType": "bytes32",
          "name": "salt",
          "type": "bytes32"
        },
        {
          "internalType": "uint256[]",
          "name": "assetIds",
          "type": "uint256[]"
        },
        {
          "internalType": "bytes32[]",
          "name": "proof",
          "type": "bytes32[]"
        },
        {
          "internalType": "bytes",
          "name": "referral",
          "type": "bytes"
        }
      ],
      "name": "buyLandWithSand",
      "outputs": [],
      "stateMutability": "nonpayable",
      "type": "function"
    },
    {
      "inputs": [
        {
          "internalType": "address",
          "name": "newAdmin",
          "type": "address"
        }
      ],
      "name": "changeAdmin",
      "outputs": [],
      "stateMutability": "nonpayable",
      "type": "function"
    },
    {
      "inputs": [
        {
          "internalType": "bytes",
          "name": "referral",
          "type": "bytes"
        }
      ],
      "name": "decodeReferral",
      "outputs": [
        {
          "internalType": "bytes",
          "name": "",
          "type": "bytes"
        },
        {
          "internalType": "address",
          "name": "",
          "type": "address"
        },
        {
          "internalType": "address",
          "name": "",
          "type": "address"
        },
        {
          "internalType": "uint256",
          "name": "",
          "type": "uint256"
        },
        {
          "internalType": "uint256",
          "name": "",
          "type": "uint256"
        }
      ],
      "stateMutability": "pure",
      "type": "function"
    },
    {
      "inputs": [],
      "name": "getAdmin",
      "outputs": [
        {
          "internalType": "address",
          "name": "",
          "type": "address"
        }
      ],
      "stateMutability": "view",
      "type": "function"
    },
    {
      "inputs": [],
      "name": "getExpiryTime",
      "outputs": [
        {
          "internalType": "uint256",
          "name": "",
          "type": "uint256"
        }
      ],
      "stateMutability": "view",
      "type": "function"
    },
    {
      "inputs": [],
      "name": "getMaxCommisionRate",
      "outputs": [
        {
          "internalType": "uint256",
          "name": "",
          "type": "uint256"
        }
      ],
      "stateMutability": "view",
      "type": "function"
    },
    {
      "inputs": [],
      "name": "getMerkleRoot",
      "outputs": [
        {
          "internalType": "bytes32",
          "name": "",
          "type": "bytes32"
        }
      ],
      "stateMutability": "view",
      "type": "function"
    },
    {
      "inputs": [],
      "name": "getSandMultiplier",
      "outputs": [
        {
          "internalType": "uint256",
          "name": "",
          "type": "uint256"
        }
      ],
      "stateMutability": "view",
      "type": "function"
    },
    {
      "inputs": [],
      "name": "getSigningWallet",
      "outputs": [
        {
          "internalType": "address",
          "name": "",
          "type": "address"
        }
      ],
      "stateMutability": "view",
      "type": "function"
    },
    {
      "inputs": [
        {
          "internalType": "address",
          "name": "who",
          "type": "address"
        }
      ],
      "name": "isMetaTransactionProcessor",
      "outputs": [
        {
          "internalType": "bool",
          "name": "",
          "type": "bool"
        }
      ],
      "stateMutability": "view",
      "type": "function"
    },
    {
      "inputs": [
        {
          "internalType": "bytes",
          "name": "signature",
          "type": "bytes"
        },
        {
          "internalType": "address",
          "name": "referrer",
          "type": "address"
        },
        {
          "internalType": "address",
          "name": "referee",
          "type": "address"
        },
        {
          "internalType": "uint256",
          "name": "expiryTime",
          "type": "uint256"
        },
        {
          "internalType": "uint256",
          "name": "commissionRate",
          "type": "uint256"
        }
      ],
      "name": "isReferralValid",
      "outputs": [
        {
          "internalType": "bool",
          "name": "",
          "type": "bool"
        }
      ],
      "stateMutability": "view",
      "type": "function"
    },
    {
      "inputs": [
        {
          "internalType": "address",
          "name": "",
          "type": "address"
        },
        {
          "internalType": "address",
          "name": "",
          "type": "address"
        },
        {
          "internalType": "uint256[]",
          "name": "",
          "type": "uint256[]"
        },
        {
          "internalType": "uint256[]",
          "name": "",
          "type": "uint256[]"
        },
        {
          "internalType": "bytes",
          "name": "",
          "type": "bytes"
        }
      ],
      "name": "onERC1155BatchReceived",
      "outputs": [
        {
          "internalType": "bytes4",
          "name": "",
          "type": "bytes4"
        }
      ],
      "stateMutability": "pure",
      "type": "function"
    },
    {
      "inputs": [
        {
          "internalType": "address",
          "name": "",
          "type": "address"
        },
        {
          "internalType": "address",
          "name": "",
          "type": "address"
        },
        {
          "internalType": "uint256",
          "name": "",
          "type": "uint256"
        },
        {
          "internalType": "uint256",
          "name": "",
          "type": "uint256"
        },
        {
          "internalType": "bytes",
          "name": "",
          "type": "bytes"
        }
      ],
      "name": "onERC1155Received",
      "outputs": [
        {
          "internalType": "bytes4",
          "name": "",
          "type": "bytes4"
        }
      ],
      "stateMutability": "pure",
      "type": "function"
    },
    {
      "inputs": [
        {
          "internalType": "uint256",
          "name": "newMultiplier",
          "type": "uint256"
        }
      ],
      "name": "rebalanceSand",
      "outputs": [],
      "stateMutability": "nonpayable",
      "type": "function"
    },
    {
      "inputs": [
        {
          "internalType": "address",
          "name": "metaTransactionProcessor",
          "type": "address"
        },
        {
          "internalType": "bool",
          "name": "enabled",
          "type": "bool"
        }
      ],
      "name": "setMetaTransactionProcessor",
      "outputs": [],
      "stateMutability": "nonpayable",
      "type": "function"
    },
    {
      "inputs": [
        {
          "internalType": "address payable",
          "name": "newWallet",
          "type": "address"
        }
      ],
      "name": "setReceivingWallet",
      "outputs": [],
      "stateMutability": "nonpayable",
      "type": "function"
    },
    {
      "inputs": [
        {
          "internalType": "uint256",
          "name": "newMaxCommissionRate",
          "type": "uint256"
        }
      ],
      "name": "updateMaxCommissionRate",
      "outputs": [],
      "stateMutability": "nonpayable",
      "type": "function"
    },
    {
      "inputs": [
        {
          "internalType": "address",
          "name": "newSigningWallet",
          "type": "address"
        }
      ],
      "name": "updateSigningWallet",
      "outputs": [],
      "stateMutability": "nonpayable",
      "type": "function"
    },
    {
      "inputs": [
        {
          "internalType": "address",
          "name": "to",
          "type": "address"
        },
        {
          "internalType": "uint256[]",
          "name": "assetIds",
          "type": "uint256[]"
        },
        {
          "internalType": "uint256[]",
          "name": "values",
          "type": "uint256[]"
        }
      ],
      "name": "withdrawAssets",
      "outputs": [],
      "stateMutability": "nonpayable",
      "type": "function"
    }
  ],
  "transactionHash": "0x54af8374c82f3c3255740948a8f310965d214a914a92b51a5228e282bc7a6c8d",
  "args": [
    "0x50f5474724e0Ee42D9a4e711ccFB275809Fd6d4a",
    "0x3845badAde8e6dFF049820680d1F14bD3903a5d0",
    "0x3845badAde8e6dFF049820680d1F14bD3903a5d0",
    "0xEAA0993E1d21c2103e4f172a20D29371FbAF6D06",
    "0x4489590a116618B506F0EfE885432F6A8ED998E9",
    "0xfca3849586ca521db826cb7464524004f258c163a9de43374014d584b13c4b9f",
    1628773200,
    "0x3044719d139F866a44c988823513eCB93060bF1b",
    2000,
    "0x0000000000000000000000000000000000000000",
    "0xa342f5D851E866E18ff98F351f2c6637f4478dB5",
    "0x0EB04462D69B1D267d269377E34f60b9De1c8510"
  ],
  "linkedData": [
    {
      "x": 48,
      "y": 372,
      "size": 1,
      "price": "1011000000000000000000",
      "reserved": "",
      "salt": "0xcc256e636b2608eb036f0db25aa4ae9efa34ce2ea3ff33e97637724367ac35d7",
      "assetIds": []
    },
    {
      "x": 48,
      "y": 373,
      "size": 1,
      "price": "1011000000000000000000",
      "reserved": "",
      "salt": "0x0365a102b89f67e1971c02e199cb77d65e5ce791afc52cb15cff6ef155ede963",
      "assetIds": []
    },
    {
      "x": 48,
      "y": 374,
      "size": 1,
      "price": "1011000000000000000000",
      "reserved": "",
      "salt": "0x6aaaa14cd30b0ea4b525cf6aa4865a7bc7afa9dab1f649d8317da1fa5d87887f",
      "assetIds": []
    },
    {
      "x": 48,
      "y": 375,
      "size": 1,
      "price": "1011000000000000000000",
      "reserved": "",
      "salt": "0x4e4ce2b24c9bcd6366b43ce429526d48cad1d8e8881156f4cf47931f313f2161",
      "assetIds": []
    },
    {
      "x": 48,
      "y": 376,
      "size": 1,
      "price": "1011000000000000000000",
      "reserved": "",
      "salt": "0xcdb4f4a4bd9b1da4b16f12bb4fde3671204d530d5f9ab2137e001967211c00f6",
      "assetIds": []
    },
    {
      "x": 48,
      "y": 377,
      "size": 1,
      "price": "1011000000000000000000",
      "reserved": "",
      "salt": "0x2a0a238c705c7217d0c3bf878a9c30031bc4fa30b5898b0090f18617b0bd636b",
      "assetIds": []
    },
    {
      "x": 48,
      "y": 378,
      "size": 1,
      "price": "1011000000000000000000",
      "reserved": "",
      "salt": "0xef8f17c2ec37df89b098c221259027468d789d7866c7c62354ae47af28a66a9b",
      "assetIds": []
    },
    {
      "x": 48,
      "y": 379,
      "size": 1,
      "price": "1011000000000000000000",
      "reserved": "",
      "salt": "0xd2066d06858eee40b271e390d05708a319436e5ee67e3fe4e7359e69283931fa",
      "assetIds": []
    },
    {
      "x": 48,
      "y": 380,
      "size": 1,
      "price": "1011000000000000000000",
      "reserved": "",
      "salt": "0x2c30e6b11fb8f0c2bb3426163f62071c3f313bb18c373659a01d1a799ba2023c",
      "assetIds": []
    },
    {
      "x": 49,
      "y": 372,
      "size": 1,
      "price": "1011000000000000000000",
      "reserved": "",
      "salt": "0x7ef3c5a791ac094873e09b84a5d8ee15ecfe62459d25207864d9a72ab16d6a55",
      "assetIds": []
    },
    {
      "x": 49,
      "y": 373,
      "size": 1,
      "price": "1011000000000000000000",
      "reserved": "",
      "salt": "0xc89609ebccddae760ca6992c8d13adb55c54e7747254677992a34ec3e2f6ecd6",
      "assetIds": []
    },
    {
      "x": 49,
      "y": 374,
      "size": 1,
      "price": "1011000000000000000000",
      "reserved": "",
      "salt": "0xf50f17204d322ba3a05769fa64fb3c8e2af6222d60f2ba95f3492433512724ef",
      "assetIds": []
    },
    {
      "x": 49,
      "y": 375,
      "size": 1,
      "price": "1011000000000000000000",
      "reserved": "",
      "salt": "0xaba605d54644bced72079e71c0218dab8a7f0ca872d5e91ed148bb57e9062133",
      "assetIds": []
    },
    {
      "x": 49,
      "y": 376,
      "size": 1,
      "price": "1011000000000000000000",
      "reserved": "",
      "salt": "0x4704879f5fbe68ee38c5f5a616344b3680e64008d40718867fe4dec87596c197",
      "assetIds": []
    },
    {
      "x": 49,
      "y": 377,
      "size": 1,
      "price": "1011000000000000000000",
      "reserved": "",
      "salt": "0x364b9b17679a2855053c08d1e5bfc79a6e21b62f433bb3ae34498cd763b0a24c",
      "assetIds": []
    },
    {
      "x": 49,
      "y": 378,
      "size": 1,
      "price": "1011000000000000000000",
      "reserved": "",
      "salt": "0x8f2def8e6e1d3e357e1709e34ef749c23a136eeac60a4bee523b9188b3029455",
      "assetIds": []
    },
    {
      "x": 49,
      "y": 379,
      "size": 1,
      "price": "1011000000000000000000",
      "reserved": "",
      "salt": "0x208e99a0a66ff4435144c48666cc64effd82585dfe8497aaf0244878d09967b9",
      "assetIds": []
    },
    {
      "x": 49,
      "y": 380,
      "size": 1,
      "price": "1011000000000000000000",
      "reserved": "",
      "salt": "0x94694aee2f5f2c4edee284c9bd937000a2de85e59c73665ffd9019260e403983",
      "assetIds": []
    },
    {
      "x": 50,
      "y": 372,
      "size": 1,
      "price": "1011000000000000000000",
      "reserved": "",
      "salt": "0xb36d2047a9e8bf74b7139cb57182ce0eeefd81da0604413c1b3a9034c5052cb3",
      "assetIds": []
    },
    {
      "x": 50,
      "y": 373,
      "size": 1,
      "price": "1011000000000000000000",
      "reserved": "",
      "salt": "0x0eb0cbeb5212a1191dab35b09f4df10dfab1d2bcbb795895245b1edaf00d3388",
      "assetIds": []
    },
    {
      "x": 50,
      "y": 374,
      "size": 1,
      "price": "1011000000000000000000",
      "reserved": "",
      "salt": "0x7e97a459f623ead8075a239a5643f7171da916127c65f47a9790919cc88188dd",
      "assetIds": []
    },
    {
      "x": 50,
      "y": 375,
      "size": 1,
      "price": "1011000000000000000000",
      "reserved": "",
      "salt": "0x55ba14c2e9880e09e551bebeaa969a78d7a5140043431d524fb8ecbb939dfbad",
      "assetIds": []
    },
    {
      "x": 50,
      "y": 376,
      "size": 1,
      "price": "1011000000000000000000",
      "reserved": "",
      "salt": "0x716816286122e467f8333c454df8e11a15343b194993c7b39c89a79229a4a42e",
      "assetIds": []
    },
    {
      "x": 50,
      "y": 377,
      "size": 1,
      "price": "1011000000000000000000",
      "reserved": "",
      "salt": "0x8f5034e8472d0617944905dba0443249fce92f0efbb69ed10b624494ebd56dd1",
      "assetIds": []
    },
    {
      "x": 50,
      "y": 378,
      "size": 1,
      "price": "1011000000000000000000",
      "reserved": "",
      "salt": "0x78db3d0e6f0390804ce9d0743eabb89e482ae65ac210ec6b55f417a4da7d14c4",
      "assetIds": []
    },
    {
      "x": 50,
      "y": 379,
      "size": 1,
      "price": "1011000000000000000000",
      "reserved": "",
      "salt": "0x4441467af3144cf89ea22c29d514d62de2841cea82917e0d4a54a94c2f86d7b4",
      "assetIds": []
    },
    {
      "x": 50,
      "y": 380,
      "size": 1,
      "price": "1011000000000000000000",
      "reserved": "",
      "salt": "0x90432d63e7a1a95f513e81615837580794319f56cc67c43290a56c87c5cdc265",
      "assetIds": []
    },
    {
      "x": 51,
      "y": 372,
      "size": 1,
      "price": "1011000000000000000000",
      "reserved": "",
      "salt": "0x05b6dcfacc2117c11abce08246746eeabb72e565834d3f15b0e7c04f9e2e6fb5",
      "assetIds": []
    },
    {
      "x": 51,
      "y": 373,
      "size": 1,
      "price": "1011000000000000000000",
      "reserved": "",
      "salt": "0x52e7cfa5b198bc20142d87e481674a7df704f09d7be3a62b735dec03ca1a9e5d",
      "assetIds": []
    },
    {
      "x": 51,
      "y": 374,
      "size": 1,
      "price": "1011000000000000000000",
      "reserved": "",
      "salt": "0x7ab7946ac8e5e09068d96b3a9cf80f2c5656362d6d037696d6f00ea697ee89ee",
      "assetIds": []
    },
    {
      "x": 51,
      "y": 378,
      "size": 1,
      "price": "1011000000000000000000",
      "reserved": "",
      "salt": "0xb235cc05feb0c0e242b78455d61f842fd52ab0260bec50aaf4fa50167a87f51e",
      "assetIds": []
    },
    {
      "x": 51,
      "y": 379,
      "size": 1,
      "price": "1011000000000000000000",
      "reserved": "",
      "salt": "0x47a19749c38b1cff668f9593b92ae22cbf8281052679693eba8d9c38684f4117",
      "assetIds": []
    },
    {
      "x": 51,
      "y": 380,
      "size": 1,
      "price": "1011000000000000000000",
      "reserved": "",
      "salt": "0x67ddefe3d90e1aab2fe7c7eccce4372507f4c5a6982d92242385a596e21aff6d",
      "assetIds": []
    },
    {
      "x": 51,
      "y": 381,
      "size": 1,
      "price": "1011000000000000000000",
      "reserved": "",
      "salt": "0xf1fc2be70b63df57ba45a371a834afa83a6773d5f7d95f95a23bd695fa2eed6d",
      "assetIds": []
    },
    {
      "x": 51,
      "y": 382,
      "size": 1,
      "price": "1011000000000000000000",
      "reserved": "",
      "salt": "0x3fb0990d41914e8f108f79bf5fb8f905285f76df30472e0455ccda5970ba21ff",
      "assetIds": []
    },
    {
      "x": 51,
      "y": 383,
      "size": 1,
      "price": "1011000000000000000000",
      "reserved": "",
      "salt": "0xd9b4449ce7c7b22a41b494928b86a330826d5a1b9a874d897d302034aea764bc",
      "assetIds": []
    },
    {
      "x": 52,
      "y": 372,
      "size": 1,
      "price": "1011000000000000000000",
      "reserved": "",
      "salt": "0xcda21e80cebeebfaa144541afb444af29bbfa27161db59f79085380d030ec1c6",
      "assetIds": []
    },
    {
      "x": 52,
      "y": 373,
      "size": 1,
      "price": "1011000000000000000000",
      "reserved": "",
      "salt": "0xb56bb744cdb71afbc5ffd9b6630e9f1020017daf1425a6d00813fc2815e273bc",
      "assetIds": []
    },
    {
      "x": 52,
      "y": 374,
      "size": 1,
      "price": "1011000000000000000000",
      "reserved": "",
      "salt": "0x54d3d9e4f3449bb439edd3df2999b0152ea356a865df83dfcea9eacd3e25e787",
      "assetIds": []
    },
    {
      "x": 52,
      "y": 378,
      "size": 1,
      "price": "1011000000000000000000",
      "reserved": "",
      "salt": "0x2c9688a09978f5d81843bb3004ab423cd06261bb772d44b9c7f9d4098aa94b96",
      "assetIds": []
    },
    {
      "x": 52,
      "y": 379,
      "size": 1,
      "price": "1011000000000000000000",
      "reserved": "",
      "salt": "0x1c5f8dfe26c13feb186c94d3f8453181d8b43933621e9bd6282e17c4ffdd2e15",
      "assetIds": []
    },
    {
      "x": 52,
      "y": 380,
      "size": 1,
      "price": "1011000000000000000000",
      "reserved": "",
      "salt": "0x6ea1721a76a54f66495650072683dfd7eef0f98bf7783310c0be4de7e71d80db",
      "assetIds": []
    },
    {
      "x": 52,
      "y": 381,
      "size": 1,
      "price": "1011000000000000000000",
      "reserved": "",
      "salt": "0xc2a447b6305874825a5d506e2ae49d4cd3dec7a46f72c39ce500819cfef96ad2",
      "assetIds": []
    },
    {
      "x": 52,
      "y": 382,
      "size": 1,
      "price": "1011000000000000000000",
      "reserved": "",
      "salt": "0x5f5c646df4b083837d3f9a848326c79d8feeada50fd50ec585ba9f6d050acd0d",
      "assetIds": []
    },
    {
      "x": 52,
      "y": 383,
      "size": 1,
      "price": "1011000000000000000000",
      "reserved": "",
      "salt": "0x8a61406a6648c8bcabf87054d0f9847d2fef8803008d9c73362f5d5b719300d9",
      "assetIds": []
    },
    {
      "x": 53,
      "y": 372,
      "size": 1,
      "price": "1011000000000000000000",
      "reserved": "",
      "salt": "0x1c53dd49b68810997bb59db87a685143e68e3c0f31dd2eb3823163be70ddfb80",
      "assetIds": []
    },
    {
      "x": 53,
      "y": 373,
      "size": 1,
      "price": "1011000000000000000000",
      "reserved": "",
      "salt": "0x2ffd5115d5f0ff2dc90278f3e644e95421fcfd68ed7e028d7d5705f437637199",
      "assetIds": []
    },
    {
      "x": 53,
      "y": 374,
      "size": 1,
      "price": "1011000000000000000000",
      "reserved": "",
      "salt": "0xf634a398cdee8df998c5086930e66661654bfab7c4be6a42f0d5f7f55a950f52",
      "assetIds": []
    },
    {
      "x": 53,
      "y": 378,
      "size": 1,
      "price": "1011000000000000000000",
      "reserved": "",
      "salt": "0x71db788a16753544ebad2193d0cc2dd081dd70bb6e3471856a50f60559e1409c",
      "assetIds": []
    },
    {
      "x": 53,
      "y": 379,
      "size": 1,
      "price": "1011000000000000000000",
      "reserved": "",
      "salt": "0x3d8848423ee65034027260976aeea15c47644ec01fd2a97cff6efb86d211143f",
      "assetIds": []
    },
    {
      "x": 53,
      "y": 380,
      "size": 1,
      "price": "1011000000000000000000",
      "reserved": "",
      "salt": "0x5eda0e7b64e2d97d365f87d95d50cb3d6f841f83f79fe4721e5a7831e82f070c",
      "assetIds": []
    },
    {
      "x": 53,
      "y": 381,
      "size": 1,
      "price": "1011000000000000000000",
      "reserved": "",
      "salt": "0x8b0ecbbbce09f07b026c2b2bf3ca0c5fdfeec48794fb549ed034ec01532b4387",
      "assetIds": []
    },
    {
      "x": 53,
      "y": 382,
      "size": 1,
      "price": "1011000000000000000000",
      "reserved": "",
      "salt": "0x6402707fb5b3c1555fce93be915652ece18d4471d31b671ae5a9ab4cb0dfddac",
      "assetIds": []
    },
    {
      "x": 53,
      "y": 383,
      "size": 1,
      "price": "1011000000000000000000",
      "reserved": "",
      "salt": "0x53a514c5ab328181bf5f971b39bcf724d90a4950edeb04882d51dcad45fe4d62",
      "assetIds": []
    },
    {
      "x": 54,
      "y": 372,
      "size": 1,
      "price": "1011000000000000000000",
      "reserved": "",
      "salt": "0x881588cf169f3c968dd7dbcd8671944a9442d2f011555a7560ae80871c61e996",
      "assetIds": []
    },
    {
      "x": 54,
      "y": 373,
      "size": 1,
      "price": "1011000000000000000000",
      "reserved": "",
      "salt": "0x07a2ad8b71fb536b5bfca2351e711830ce9bc342601ae3d1458912c7cae2f13e",
      "assetIds": []
    },
    {
      "x": 54,
      "y": 374,
      "size": 1,
      "price": "1011000000000000000000",
      "reserved": "",
      "salt": "0xd94248b49e6eec7354edd3753644be1d546dafd4daee2938fe603da3d1ab2f19",
      "assetIds": []
    },
    {
      "x": 54,
      "y": 375,
      "size": 1,
      "price": "1011000000000000000000",
      "reserved": "",
      "salt": "0x85288be219e4d1bc715e91ad4b52a422f21b4fc4f3bfb5200cfc222d7de4cfb4",
      "assetIds": []
    },
    {
      "x": 54,
      "y": 376,
      "size": 1,
      "price": "1011000000000000000000",
      "reserved": "",
      "salt": "0xeb98bf84ea3862756164aa8b1aca1b0e1fbc0224f660eb21f332f91211bfae56",
      "assetIds": []
    },
    {
      "x": 54,
      "y": 377,
      "size": 1,
      "price": "1011000000000000000000",
      "reserved": "",
      "salt": "0x1e0bc8fad0e2fb9576138d39f3969e565ef6aae85a6748198c3489d723ae31e5",
      "assetIds": []
    },
    {
      "x": 54,
      "y": 378,
      "size": 1,
      "price": "1011000000000000000000",
      "reserved": "",
      "salt": "0xd205451e9c5bfe2afed4cf1cb92a9095793fd478058563dca2ae8ee9b6e5d3a2",
      "assetIds": []
    },
    {
      "x": 54,
      "y": 379,
      "size": 1,
      "price": "1011000000000000000000",
      "reserved": "",
      "salt": "0xa1bddbaacb451437884604f9e724a48f2568ace70b79d17b913d648329e3b498",
      "assetIds": []
    },
    {
      "x": 54,
      "y": 380,
      "size": 1,
      "price": "1011000000000000000000",
      "reserved": "",
      "salt": "0x85d5e710589bf68398ffcceadcb1ec8adf4b682d84acc355fbeed2e05eb9035e",
      "assetIds": []
    },
    {
      "x": 54,
      "y": 381,
      "size": 1,
      "price": "1011000000000000000000",
      "reserved": "",
      "salt": "0xc10c31db2229f8c0e0bb55730abcfd1ef1a9c22f5e56e08e8a6df0d44d54827c",
      "assetIds": []
    },
    {
      "x": 54,
      "y": 382,
      "size": 1,
      "price": "1011000000000000000000",
      "reserved": "",
      "salt": "0x8a62e0aad9f6d81ff0369c9f2ed91595bea24ebd4ffdd8e32a1176191c884b15",
      "assetIds": []
    },
    {
      "x": 54,
      "y": 383,
      "size": 1,
      "price": "1011000000000000000000",
      "reserved": "",
      "salt": "0xc54a44a0b2ffaa17b3ff32c6abb8d070323eb85b19d36200d1a3c31436eecd6e",
      "assetIds": []
    },
    {
      "x": 55,
      "y": 372,
      "size": 1,
      "price": "1011000000000000000000",
      "reserved": "",
      "salt": "0x93334fc69f3ed9dde6dea14d779a8524921604876e3360a02a6dad89c87ad600",
      "assetIds": []
    },
    {
      "x": 55,
      "y": 373,
      "size": 1,
      "price": "1011000000000000000000",
      "reserved": "",
      "salt": "0x008346fb23c840deda3e09c420dc576ab65151078c8110ccc8a0f3c5163660ae",
      "assetIds": []
    },
    {
      "x": 55,
      "y": 374,
      "size": 1,
      "price": "1011000000000000000000",
      "reserved": "",
      "salt": "0x81a9016b42cc34e014ed58acd46f5489a6e0c7d4b1ce7f3c07547b38d57af815",
      "assetIds": []
    },
    {
      "x": 55,
      "y": 375,
      "size": 1,
      "price": "1011000000000000000000",
      "reserved": "",
      "salt": "0x932667fcefdcbdda673e44f0f1863f2ab5e7220d07866686b1e3cfe43d82ea4d",
      "assetIds": []
    },
    {
      "x": 55,
      "y": 376,
      "size": 1,
      "price": "1011000000000000000000",
      "reserved": "",
      "salt": "0x86dfcf0ab68bd833617869849a722526700f06a65ae1ada5e6eaf4811916703d",
      "assetIds": []
    },
    {
      "x": 55,
      "y": 377,
      "size": 1,
      "price": "1011000000000000000000",
      "reserved": "",
      "salt": "0x54323f22a50bb95d4482247f09f94372f3cda4276b5396923de556b47515c223",
      "assetIds": []
    },
    {
      "x": 55,
      "y": 378,
      "size": 1,
      "price": "1011000000000000000000",
      "reserved": "",
      "salt": "0x6fe1219f0bad170edb24a33f9416d551d79d2f858556257c0b26f0800ee6586d",
      "assetIds": []
    },
    {
      "x": 55,
      "y": 379,
      "size": 1,
      "price": "1011000000000000000000",
      "reserved": "",
      "salt": "0xefaf48459b21a9834b03a1a7ecb38ae6dc7bf58029b98273767026ef80d158b8",
      "assetIds": []
    },
    {
      "x": 55,
      "y": 380,
      "size": 1,
      "price": "1011000000000000000000",
      "reserved": "",
      "salt": "0xabccae0dd9e26a9327b68f302e2696085998a760d8f741c66f5ab236b92ab2bf",
      "assetIds": []
    },
    {
      "x": 55,
      "y": 381,
      "size": 1,
      "price": "1011000000000000000000",
      "reserved": "",
      "salt": "0x9ff943ade11d085604b4aa0a2c33f8d61597deebf190d47442193be1cc844c21",
      "assetIds": []
    },
    {
      "x": 55,
      "y": 382,
      "size": 1,
      "price": "1011000000000000000000",
      "reserved": "",
      "salt": "0x1649ee8a683724f9d899f565e020207e215ed20890e97b2190573f6633dece31",
      "assetIds": []
    },
    {
      "x": 55,
      "y": 383,
      "size": 1,
      "price": "1011000000000000000000",
      "reserved": "",
      "salt": "0xaa3190edd25bdf8e3171c8d3553f29b49b9da9ebda431ffe06bcb438082e478f",
      "assetIds": []
    },
    {
      "x": 56,
      "y": 372,
      "size": 1,
      "price": "1011000000000000000000",
      "reserved": "",
      "salt": "0xcb026e8e4649e3f98c34d7605841374931b00b1fa2e9aa28c1bf90528b81e8ab",
      "assetIds": []
    },
    {
      "x": 56,
      "y": 373,
      "size": 1,
      "price": "1011000000000000000000",
      "reserved": "",
      "salt": "0x64156d903deafe25659ebce5bd08d683eec8934dea55b3477bae748a5a11d4bf",
      "assetIds": []
    },
    {
      "x": 56,
      "y": 374,
      "size": 1,
      "price": "1011000000000000000000",
      "reserved": "",
      "salt": "0x3117f9319cf5605a8132d2f426819c958351877e7f8c0a878ec89ddc1f7b13b3",
      "assetIds": []
    },
    {
      "x": 56,
      "y": 375,
      "size": 1,
      "price": "1011000000000000000000",
      "reserved": "",
      "salt": "0x8dae8289e0ce2d36559b550353942ba8c9732bd9f158b857ba47dad281e0da6f",
      "assetIds": []
    },
    {
      "x": 56,
      "y": 376,
      "size": 1,
      "price": "1011000000000000000000",
      "reserved": "0x7a9fe22691c811ea339d9b73150e6911a5343dca",
      "salt": "0xfaa52a3f3b2dcc86527f85254f114efb26254a29631baa63565dc0dcb56d9dc4",
      "assetIds": []
    },
    {
      "x": 56,
      "y": 377,
      "size": 1,
      "price": "1011000000000000000000",
      "reserved": "",
      "salt": "0x5ccc1fd689fbce8b87b77183c270016d8d94dc4cf8be13780f343f8cf516b390",
      "assetIds": []
    },
    {
      "x": 56,
      "y": 378,
      "size": 1,
      "price": "1011000000000000000000",
      "reserved": "",
      "salt": "0x29a4f7765eabdcdc73feeb01e5d406a08e2f5ea01c162d9a06cf8abd12c91975",
      "assetIds": []
    },
    {
      "x": 56,
      "y": 379,
      "size": 1,
      "price": "1011000000000000000000",
      "reserved": "",
      "salt": "0x615ce9a3e2d63b551d674e4d770c63055aa93ff19243a9f2fe949735dd442085",
      "assetIds": []
    },
    {
      "x": 56,
      "y": 380,
      "size": 1,
      "price": "1011000000000000000000",
      "reserved": "",
      "salt": "0xde9fb4362c55e841c68b9dd153798224e5e0e242cde9afd4e47852a4d4a8cbd7",
      "assetIds": []
    },
    {
      "x": 56,
      "y": 381,
      "size": 1,
      "price": "1011000000000000000000",
      "reserved": "",
      "salt": "0xf534154e53647c64de6d5934bed0cc62c5bd9a2bf95bc80c177bed4d8d421d38",
      "assetIds": []
    },
    {
      "x": 56,
      "y": 382,
      "size": 1,
      "price": "1011000000000000000000",
      "reserved": "",
      "salt": "0xec09254f7a6b558c98f99954fde065b81af929667e6d7bc550687c2d91bf6cdb",
      "assetIds": []
    },
    {
      "x": 56,
      "y": 383,
      "size": 1,
      "price": "1011000000000000000000",
      "reserved": "",
      "salt": "0xdf76bf51a27102108b8790f4a5484705e4f021f7cdd3a16777c4c76dc3f326e1",
      "assetIds": []
    },
    {
      "x": 57,
      "y": 372,
      "size": 1,
      "price": "1011000000000000000000",
      "reserved": "",
      "salt": "0xb82c0561752ddf3e1dffcb58cb54d5eae79277b1221af961daed1f20af06ae7f",
      "assetIds": []
    },
    {
      "x": 57,
      "y": 373,
      "size": 1,
      "price": "1011000000000000000000",
      "reserved": "",
      "salt": "0xd981fe7548f06bdfeadf622d64748fed2acff5739adf13ceaeed233f373ccd4d",
      "assetIds": []
    },
    {
      "x": 57,
      "y": 374,
      "size": 1,
      "price": "1011000000000000000000",
      "reserved": "",
      "salt": "0x49fe7ed55e411771fc5c8bec44dca3ac84737f21214fbde8ecb3c167c684201d",
      "assetIds": []
    },
    {
      "x": 57,
      "y": 375,
      "size": 1,
      "price": "1011000000000000000000",
      "reserved": "",
      "salt": "0x1734c43eba2318980b22e54b1d07269ecf315203cac1ea83e2f2bb8d92af4028",
      "assetIds": []
    },
    {
      "x": 57,
      "y": 376,
      "size": 1,
      "price": "1011000000000000000000",
      "reserved": "",
      "salt": "0x26cf88d3f475ba466760601e20fb86d9760680b90daac2ede77fdae3fd4fa88e",
      "assetIds": []
    },
    {
      "x": 57,
      "y": 377,
      "size": 1,
      "price": "1011000000000000000000",
      "reserved": "",
      "salt": "0x4ad4fb7586f014e3d2a00547eac47e5fe96fc88e4c22e3741a2c07c65f700b97",
      "assetIds": []
    },
    {
      "x": 57,
      "y": 381,
      "size": 1,
      "price": "1011000000000000000000",
      "reserved": "",
      "salt": "0x5dce6cda71cead9c52df6c4fd8b24451c1c81cb855ca82a105bdb9ea3d167c9b",
      "assetIds": []
    },
    {
      "x": 57,
      "y": 382,
      "size": 1,
      "price": "1011000000000000000000",
      "reserved": "",
      "salt": "0xc44789fd030364055d293c229c11932780723e71e8162520ce27dd65bb12cc5d",
      "assetIds": []
    },
    {
      "x": 57,
      "y": 383,
      "size": 1,
      "price": "1011000000000000000000",
      "reserved": "",
      "salt": "0x0576cc43c467bdf90b66c8c74d328ee4843c7c530e971131f8cef83ae7906890",
      "assetIds": []
    },
    {
      "x": 58,
      "y": 372,
      "size": 1,
      "price": "1011000000000000000000",
      "reserved": "",
      "salt": "0xa96cc12870e9ace654cde619566ae06fe19e929f1660803957f1fc2695df083d",
      "assetIds": []
    },
    {
      "x": 58,
      "y": 373,
      "size": 1,
      "price": "1011000000000000000000",
      "reserved": "",
      "salt": "0x1cd1a120d97afb83b6685db8b8aa078b13f795e257495a83f026768a8fb51899",
      "assetIds": []
    },
    {
      "x": 58,
      "y": 374,
      "size": 1,
      "price": "1011000000000000000000",
      "reserved": "",
      "salt": "0xe1dbe27a3408aeac42370f1307898ab321c77f58f7311ce2c9d091b0658adfbc",
      "assetIds": []
    },
    {
      "x": 58,
      "y": 375,
      "size": 1,
      "price": "1011000000000000000000",
      "reserved": "",
      "salt": "0x4462f2e03cba09030b73ff730a0a82c67ad8e111098f95fdbf9f7417b6cc1619",
      "assetIds": []
    },
    {
      "x": 58,
      "y": 376,
      "size": 1,
      "price": "1011000000000000000000",
      "reserved": "",
      "salt": "0x2454a2ee03ced92b6c6e46c66a170a02ab20adc678e0408e132dd8691eacba41",
      "assetIds": []
    },
    {
      "x": 58,
      "y": 377,
      "size": 1,
      "price": "4683000000000000000000",
      "reserved": "",
      "salt": "0xf4edd9fa6feb1689c2cf47b0794c3e56e9e65532184ea5fcadfbc6a727aae420",
      "assetIds": [
        "55464657044963196816950587289035428064568320970692304673817341489687891546112",
        "55464657044963196816950587289035428064568320970692304673817341489687891546113",
        "55464657044963196816950587289035428064568320970692304673817341489687899934720",
        "55464657044963196816950587289035428064568320970692304673817341489687899934721",
        "55464657044963196816950587289035428064568320970692304673817341489687908321280"
      ]
    },
    {
      "x": 58,
      "y": 381,
      "size": 1,
      "price": "1011000000000000000000",
      "reserved": "",
      "salt": "0x22a640733387d8c927ce79c3336ea050ce374f7ec6ad6ce5fd6318127b223aa4",
      "assetIds": []
    },
    {
      "x": 58,
      "y": 382,
      "size": 1,
      "price": "1011000000000000000000",
      "reserved": "",
      "salt": "0x19771cd5b8e293344a45abfddde8a30880bb772ef7af1c0ecef8d5cd84837b3d",
      "assetIds": []
    },
    {
      "x": 58,
      "y": 383,
      "size": 1,
      "price": "1011000000000000000000",
      "reserved": "",
      "salt": "0xb8677982877c8d37498baa9570147033886c43ac8479be906b305ac2c53a4418",
      "assetIds": []
    },
    {
      "x": 59,
      "y": 372,
      "size": 1,
      "price": "1011000000000000000000",
      "reserved": "",
      "salt": "0x18d51317852a15c494af6dd1117857656d884175c5ff6fa999b9b5dae296cef9",
      "assetIds": []
    },
    {
      "x": 59,
      "y": 373,
      "size": 1,
      "price": "1011000000000000000000",
      "reserved": "",
      "salt": "0x0ebe2c45f01e65213bae181096f6eb1ddb57a69b18525ababb0fa2aef841d8c0",
      "assetIds": []
    },
    {
      "x": 59,
      "y": 374,
      "size": 1,
      "price": "1011000000000000000000",
      "reserved": "",
      "salt": "0x658113d7badd454809a7f320a4a19204a0f2fa1290bfb4239c1d3c6116e69838",
      "assetIds": []
    },
    {
      "x": 59,
      "y": 375,
      "size": 1,
      "price": "1011000000000000000000",
      "reserved": "0x7a9fe22691c811ea339d9b73150e6911a5343dca",
      "salt": "0x3d161bcf874796bea058ef7d77f07fcebcc9b00a4abdc0929fbb8a9f3ebfa395",
      "assetIds": []
    },
    {
      "x": 59,
      "y": 376,
      "size": 1,
      "price": "4683000000000000000000",
      "reserved": "",
      "salt": "0xacb5422a1a51a49aa73d1bcd6b7ee784a238ee4853f359fa9d5d9ac1a9a7d6a3",
      "assetIds": [
        "55464657044963196816950587289035428064568320970692304673817341489687891546112",
        "55464657044963196816950587289035428064568320970692304673817341489687891546113",
        "55464657044963196816950587289035428064568320970692304673817341489687899934720",
        "55464657044963196816950587289035428064568320970692304673817341489687899934721",
        "55464657044963196816950587289035428064568320970692304673817341489687908321280"
      ]
    },
    {
      "x": 59,
      "y": 377,
      "size": 1,
      "price": "4683000000000000000000",
      "reserved": "",
      "salt": "0x719d06a978c580604aa1e09fcea9cce55644f47dab2d2a530ea02414c6e6420d",
      "assetIds": [
        "55464657044963196816950587289035428064568320970692304673817341489687891546112",
        "55464657044963196816950587289035428064568320970692304673817341489687891546113",
        "55464657044963196816950587289035428064568320970692304673817341489687899934720",
        "55464657044963196816950587289035428064568320970692304673817341489687899934721",
        "55464657044963196816950587289035428064568320970692304673817341489687908321280"
      ]
    },
    {
      "x": 59,
      "y": 381,
      "size": 1,
      "price": "4683000000000000000000",
      "reserved": "",
      "salt": "0x2eb9f883dc057b2afe3c73ef3c41bd58559ad34c3ba334d1feab29afa4bf3338",
      "assetIds": [
        "55464657044963196816950587289035428064568320970692304673817341489687891546112",
        "55464657044963196816950587289035428064568320970692304673817341489687891546113",
        "55464657044963196816950587289035428064568320970692304673817341489687899934720",
        "55464657044963196816950587289035428064568320970692304673817341489687899934721",
        "55464657044963196816950587289035428064568320970692304673817341489687908321280"
      ]
    },
    {
      "x": 59,
      "y": 382,
      "size": 1,
      "price": "4683000000000000000000",
      "reserved": "",
      "salt": "0x27dcac92ac7e58350f3cf19318e25bca79e46d3cf48c4bf61531fd61e162dcd2",
      "assetIds": [
        "55464657044963196816950587289035428064568320970692304673817341489687891546112",
        "55464657044963196816950587289035428064568320970692304673817341489687891546113",
        "55464657044963196816950587289035428064568320970692304673817341489687899934720",
        "55464657044963196816950587289035428064568320970692304673817341489687899934721",
        "55464657044963196816950587289035428064568320970692304673817341489687908321280"
      ]
    },
    {
      "x": 59,
      "y": 383,
      "size": 1,
      "price": "4683000000000000000000",
      "reserved": "",
      "salt": "0x097f889b8859e5d43146b125617c8c553dd7e9967cbaef641a217252a619d1f4",
      "assetIds": [
        "55464657044963196816950587289035428064568320970692304673817341489687891546112",
        "55464657044963196816950587289035428064568320970692304673817341489687891546113",
        "55464657044963196816950587289035428064568320970692304673817341489687899934720",
        "55464657044963196816950587289035428064568320970692304673817341489687899934721",
        "55464657044963196816950587289035428064568320970692304673817341489687908321280"
      ]
    },
    {
      "x": 60,
      "y": 355,
      "size": 1,
      "price": "1011000000000000000000",
      "reserved": "",
      "salt": "0xa5a8397e2c6715bf10a3ca4e9d08b8993c085920453d1167df1da3108ca5fe6c",
      "assetIds": []
    },
    {
      "x": 60,
      "y": 356,
      "size": 1,
      "price": "1011000000000000000000",
      "reserved": "",
      "salt": "0xb48a728c400947fb25e1e71c32d7586206a210aa84853735ff1918302b42caa4",
      "assetIds": []
    },
    {
      "x": 60,
      "y": 357,
      "size": 1,
      "price": "1011000000000000000000",
      "reserved": "",
      "salt": "0x7c510a66e03b0cee468f410d46ccfcab33bfdc0cd33d4b103e5bdd5653f32f5d",
      "assetIds": []
    },
    {
      "x": 60,
      "y": 358,
      "size": 1,
      "price": "1011000000000000000000",
      "reserved": "",
      "salt": "0xe846b6581c20b2168edd0d7dedd59489684aa8fb87697c353baac85bc307e5ae",
      "assetIds": []
    },
    {
      "x": 60,
      "y": 359,
      "size": 1,
      "price": "1011000000000000000000",
      "reserved": "",
      "salt": "0x114e2b7f5af8fa3955bd431d242709efff4ac8a64215c22722d55e9e98ef7522",
      "assetIds": []
    },
    {
      "x": 60,
      "y": 360,
      "size": 1,
      "price": "1011000000000000000000",
      "reserved": "",
      "salt": "0xa7f62c279f0a507c2d9cd4f8c3e2d6b7bcca33aaf062197e84e89363dbe90864",
      "assetIds": []
    },
    {
      "x": 60,
      "y": 361,
      "size": 1,
      "price": "1011000000000000000000",
      "reserved": "",
      "salt": "0x95cf6890429c5a582eaa2a5764efae69784ccb6eb5df19d59390db57aae62bda",
      "assetIds": []
    },
    {
      "x": 60,
      "y": 362,
      "size": 1,
      "price": "1011000000000000000000",
      "reserved": "",
      "salt": "0x2012defdeaf12e3622cc87cfe045505c71d7322f7225dc333ae372cc48f51f70",
      "assetIds": []
    },
    {
      "x": 60,
      "y": 366,
      "size": 1,
      "price": "1011000000000000000000",
      "reserved": "",
      "salt": "0x9731ffebce82fffc840cf69db35b94da49c18e507ab2f20a85788856a311bbba",
      "assetIds": []
    },
    {
      "x": 60,
      "y": 367,
      "size": 1,
      "price": "1011000000000000000000",
      "reserved": "",
      "salt": "0x8bb94b331dc8c388a66ceedfa64078052824f253c1eb30373e5eaceef0d843ea",
      "assetIds": []
    },
    {
      "x": 60,
      "y": 368,
      "size": 1,
      "price": "1011000000000000000000",
      "reserved": "",
      "salt": "0x3e76acaf1cf129d5683f800d436dce34f5183892925343a84eed6f4edf5cddee",
      "assetIds": []
    },
    {
      "x": 60,
      "y": 369,
      "size": 1,
      "price": "1011000000000000000000",
      "reserved": "",
      "salt": "0xfae3e68696700763cbf950932d3f67aa8c95b40ab91076b13f394fb7d58c2e40",
      "assetIds": []
    },
    {
      "x": 60,
      "y": 372,
      "size": 1,
      "price": "1011000000000000000000",
      "reserved": "",
      "salt": "0x6eb40672a4c6ecdfb41c87eeab75f1f656301ff1cce1e06fbc3782f9d4f7a7f4",
      "assetIds": []
    },
    {
      "x": 60,
      "y": 373,
      "size": 1,
      "price": "1011000000000000000000",
      "reserved": "",
      "salt": "0x59c38595cfcc3ad901f1765bf63a6bb6508a6c82b61264e2b0aeb2c50a3d681d",
      "assetIds": []
    },
    {
      "x": 60,
      "y": 374,
      "size": 1,
      "price": "1011000000000000000000",
      "reserved": "",
      "salt": "0x7ab5714396b70a98dd2b73be913184c8dd18fe763caa8133deb337553e382d43",
      "assetIds": []
    },
    {
      "x": 60,
      "y": 375,
      "size": 1,
      "price": "1011000000000000000000",
      "reserved": "",
      "salt": "0x27799a588289d702139fd3273d4dc38c70f1f6cce3157dd6dae8c2d834dc5cbc",
      "assetIds": []
    },
    {
      "x": 60,
      "y": 376,
      "size": 1,
      "price": "4683000000000000000000",
      "reserved": "",
      "salt": "0x873689f94e08cf9cdb8b56f2686e601e819f86db6a6a4a0ddcccf1580d1fe7a9",
      "assetIds": [
        "55464657044963196816950587289035428064568320970692304673817341489687891546112",
        "55464657044963196816950587289035428064568320970692304673817341489687891546113",
        "55464657044963196816950587289035428064568320970692304673817341489687899934720",
        "55464657044963196816950587289035428064568320970692304673817341489687899934721",
        "55464657044963196816950587289035428064568320970692304673817341489687908321280"
      ]
    },
    {
      "x": 60,
      "y": 377,
      "size": 1,
      "price": "4683000000000000000000",
      "reserved": "",
      "salt": "0xf391fcb7c24f721434b54bd7f6b2cdd51718bd5f398765b1c1230174195c08f7",
      "assetIds": [
        "55464657044963196816950587289035428064568320970692304673817341489687891546112",
        "55464657044963196816950587289035428064568320970692304673817341489687891546113",
        "55464657044963196816950587289035428064568320970692304673817341489687899934720",
        "55464657044963196816950587289035428064568320970692304673817341489687899934721",
        "55464657044963196816950587289035428064568320970692304673817341489687908321280"
      ]
    },
    {
      "x": 60,
      "y": 384,
      "size": 1,
      "price": "4683000000000000000000",
      "reserved": "",
      "salt": "0x34b333746ec0750fa2e109dca451298315d6a8e7e227dcc778df79725e9344e6",
      "assetIds": [
        "55464657044963196816950587289035428064568320970692304673817341489687891546112",
        "55464657044963196816950587289035428064568320970692304673817341489687891546113",
        "55464657044963196816950587289035428064568320970692304673817341489687899934720",
        "55464657044963196816950587289035428064568320970692304673817341489687899934721",
        "55464657044963196816950587289035428064568320970692304673817341489687908321280"
      ]
    },
    {
      "x": 60,
      "y": 385,
      "size": 1,
      "price": "4683000000000000000000",
      "reserved": "",
      "salt": "0x7dcc9e3702ca2e22c7a08b94e70463d6a68948393890e887d607e7db71847336",
      "assetIds": [
        "55464657044963196816950587289035428064568320970692304673817341489687891546112",
        "55464657044963196816950587289035428064568320970692304673817341489687891546113",
        "55464657044963196816950587289035428064568320970692304673817341489687899934720",
        "55464657044963196816950587289035428064568320970692304673817341489687899934721",
        "55464657044963196816950587289035428064568320970692304673817341489687908321280"
      ]
    },
    {
      "x": 60,
      "y": 386,
      "size": 1,
      "price": "1011000000000000000000",
      "reserved": "",
      "salt": "0x5bcec385f03b4d43ced767dc0ee4a89cc63efa2923123984dd4dded3d9827489",
      "assetIds": []
    },
    {
      "x": 60,
      "y": 387,
      "size": 1,
      "price": "1011000000000000000000",
      "reserved": "",
      "salt": "0x01d4cd634489a547ba95cee9b40bcd1cec1731b89b9b593c4010533dcdd6c6c0",
      "assetIds": []
    },
    {
      "x": 60,
      "y": 388,
      "size": 1,
      "price": "1011000000000000000000",
      "reserved": "",
      "salt": "0x116944ee532e6915c840ca525deef1e6d1452523a4c0b3e62e9a5fd49b2d3156",
      "assetIds": []
    },
    {
      "x": 60,
      "y": 389,
      "size": 1,
      "price": "1011000000000000000000",
      "reserved": "",
      "salt": "0x9e1da5dc362a7bab07f2456c3bf40336b8f23b1ca8400a56dbb98be32e14d96d",
      "assetIds": []
    },
    {
      "x": 60,
      "y": 396,
      "size": 1,
      "price": "1011000000000000000000",
      "reserved": "",
      "salt": "0x60213efde8b336283d22bc5ff8605c47a41796acebd1bab30745f51435167306",
      "assetIds": []
    },
    {
      "x": 60,
      "y": 397,
      "size": 1,
      "price": "1011000000000000000000",
      "reserved": "",
      "salt": "0xa132665ee31ae32dc488fb7daf690f1c132d3c70223f70ec3e461b9bebbb7473",
      "assetIds": []
    },
    {
      "x": 60,
      "y": 398,
      "size": 1,
      "price": "1011000000000000000000",
      "reserved": "",
      "salt": "0x409595a23ea0342b5e82385c2210013dfab92bcdae33236b7ed792890e5dfb13",
      "assetIds": []
    },
    {
      "x": 60,
      "y": 399,
      "size": 1,
      "price": "1011000000000000000000",
      "reserved": "",
      "salt": "0xc00becac7d399cc8aec671ae3d139453e2d5284eabed8182abb8ca4ea9547b14",
      "assetIds": []
    },
    {
      "x": 60,
      "y": 400,
      "size": 1,
      "price": "1011000000000000000000",
      "reserved": "",
      "salt": "0xccaf58e556d84f9ba08aec828d7e7906284a46d4af15373fd6bad046271bbe18",
      "assetIds": []
    },
    {
      "x": 60,
      "y": 401,
      "size": 1,
      "price": "1011000000000000000000",
      "reserved": "",
      "salt": "0x828dbccd3c5deb68180daa70312bcec99d53a3efc6c8426ddcf085f2b075c4a6",
      "assetIds": []
    },
    {
      "x": 60,
      "y": 402,
      "size": 1,
      "price": "1011000000000000000000",
      "reserved": "",
      "salt": "0xe626b648fad9e644cca87a5c2bc40442c2a8d42e7f675a98d3c29c0a7d4c21f8",
      "assetIds": []
    },
    {
      "x": 60,
      "y": 403,
      "size": 1,
      "price": "1011000000000000000000",
      "reserved": "",
      "salt": "0x0dfe2f95ff103303ec2c54a8e9c2d987660bea3baa2958a3ad4c8d3347c02856",
      "assetIds": []
    },
    {
      "x": 60,
      "y": 404,
      "size": 1,
      "price": "1011000000000000000000",
      "reserved": "",
      "salt": "0x60637bf53de62b8fd77b505f4e3aa4c1c90ac2475bb5eb4546d09dda7f8a33ac",
      "assetIds": []
    },
    {
      "x": 60,
      "y": 405,
      "size": 1,
      "price": "1011000000000000000000",
      "reserved": "",
      "salt": "0xe779dc3368a3e4e1928de4958e62f55489e3643e07df3a85610471805da2be7e",
      "assetIds": []
    },
    {
      "x": 60,
      "y": 406,
      "size": 1,
      "price": "1011000000000000000000",
      "reserved": "",
      "salt": "0xd63285b6b13c9dc4fdd9d4b157b418424a2193d1bc3d7e26d575459c9ee2a5a3",
      "assetIds": []
    },
    {
      "x": 60,
      "y": 407,
      "size": 1,
      "price": "1011000000000000000000",
      "reserved": "",
      "salt": "0x4ec204cc65f116f388776c5aee30db674d633c1ef5e79d042a844dd17f307132",
      "assetIds": []
    },
    {
      "x": 61,
      "y": 355,
      "size": 1,
      "price": "1011000000000000000000",
      "reserved": "",
      "salt": "0xb0e8278315cfa37d76a9ab12bd92b198b3959c02f6fe54ce9b4151e31f093728",
      "assetIds": []
    },
    {
      "x": 61,
      "y": 356,
      "size": 1,
      "price": "1011000000000000000000",
      "reserved": "",
      "salt": "0xc1c4e6fccc483d9bf08d23930132d1d98627c0b64935bc82b17430c51595173f",
      "assetIds": []
    },
    {
      "x": 61,
      "y": 357,
      "size": 1,
      "price": "1011000000000000000000",
      "reserved": "",
      "salt": "0x12f8980c02827a80950d3ca31131b5c7f32ad5aeff70468dda7ddb9db8b14f57",
      "assetIds": []
    },
    {
      "x": 61,
      "y": 358,
      "size": 1,
      "price": "1011000000000000000000",
      "reserved": "",
      "salt": "0x601bcc54e7921565fe39b1a17e874a8d1163d186b7a56d2250342bad9b09918f",
      "assetIds": []
    },
    {
      "x": 61,
      "y": 359,
      "size": 1,
      "price": "1011000000000000000000",
      "reserved": "",
      "salt": "0x1a51a8ab46e88e0e27b21a9948353d4ef686524593b61a71bf1f196a1d391294",
      "assetIds": []
    },
    {
      "x": 61,
      "y": 360,
      "size": 1,
      "price": "1011000000000000000000",
      "reserved": "",
      "salt": "0xf4f5305fd8bfd8f0819072df30964c571cf6ded5d92a434e8abfe3dce40517ac",
      "assetIds": []
    },
    {
      "x": 61,
      "y": 361,
      "size": 1,
      "price": "1011000000000000000000",
      "reserved": "",
      "salt": "0x8ffaabd9be25c3810cdc65388280363d81671c5e353a854733ec3446ea051c79",
      "assetIds": []
    },
    {
      "x": 61,
      "y": 362,
      "size": 1,
      "price": "1011000000000000000000",
      "reserved": "",
      "salt": "0x9ac0ab023dcbea5fadf223705b5e41515418618df92c97ed2cf02c350fde6d74",
      "assetIds": []
    },
    {
      "x": 61,
      "y": 366,
      "size": 1,
      "price": "4683000000000000000000",
      "reserved": "",
      "salt": "0xa7ee77dffa656e2ee325e81ad88892a260e98411b722a13d7297dc9794dbce8d",
      "assetIds": [
        "55464657044963196816950587289035428064568320970692304673817341489687891546112",
        "55464657044963196816950587289035428064568320970692304673817341489687891546113",
        "55464657044963196816950587289035428064568320970692304673817341489687899934720",
        "55464657044963196816950587289035428064568320970692304673817341489687899934721",
        "55464657044963196816950587289035428064568320970692304673817341489687908321280"
      ]
    },
    {
      "x": 61,
      "y": 367,
      "size": 1,
      "price": "4683000000000000000000",
      "reserved": "",
      "salt": "0x0b6861dd6d728e77ea422fbb9d3eaf7ab7de485bc74950ac32a6e995663fe8ed",
      "assetIds": [
        "55464657044963196816950587289035428064568320970692304673817341489687891546112",
        "55464657044963196816950587289035428064568320970692304673817341489687891546113",
        "55464657044963196816950587289035428064568320970692304673817341489687899934720",
        "55464657044963196816950587289035428064568320970692304673817341489687899934721",
        "55464657044963196816950587289035428064568320970692304673817341489687908321280"
      ]
    },
    {
      "x": 61,
      "y": 368,
      "size": 1,
      "price": "4683000000000000000000",
      "reserved": "",
      "salt": "0x98a999131fdb9de062d3bd4fd2572e956566c0b375e38c95260dc2424e504739",
      "assetIds": [
        "55464657044963196816950587289035428064568320970692304673817341489687891546112",
        "55464657044963196816950587289035428064568320970692304673817341489687891546113",
        "55464657044963196816950587289035428064568320970692304673817341489687899934720",
        "55464657044963196816950587289035428064568320970692304673817341489687899934721",
        "55464657044963196816950587289035428064568320970692304673817341489687908321280"
      ]
    },
    {
      "x": 61,
      "y": 369,
      "size": 1,
      "price": "1011000000000000000000",
      "reserved": "",
      "salt": "0xdf847385fb3989dbbb08a62aabeeeb2097e9c99901757c53f51cc028beaece70",
      "assetIds": []
    },
    {
      "x": 61,
      "y": 372,
      "size": 1,
      "price": "1011000000000000000000",
      "reserved": "",
      "salt": "0x30ef8c682b11e68f1b0174281aef97ec0a965c018a6b3e93cf886a4a204015ca",
      "assetIds": []
    },
    {
      "x": 61,
      "y": 373,
      "size": 1,
      "price": "1011000000000000000000",
      "reserved": "",
      "salt": "0x656268d8860f84c346a17ff267cd500a8ac887cadc994fe8fca7d0ad7bbae4aa",
      "assetIds": []
    },
    {
      "x": 61,
      "y": 374,
      "size": 1,
      "price": "1011000000000000000000",
      "reserved": "",
      "salt": "0xc4f51b6816069c69818847524204c310e630a6c1f867784803cae2e3ae89e5f2",
      "assetIds": []
    },
    {
      "x": 61,
      "y": 375,
      "size": 1,
      "price": "1011000000000000000000",
      "reserved": "",
      "salt": "0x7baaa822525fc7dd67ae3a05f88d0df4e3f3708b190b848226cb24b70aa96346",
      "assetIds": []
    },
    {
      "x": 61,
      "y": 376,
      "size": 1,
      "price": "4683000000000000000000",
      "reserved": "",
      "salt": "0x9d97f7bf6a96a6a236901c541c69a22fdb408f2d7a78b41c174156adc718e306",
      "assetIds": [
        "55464657044963196816950587289035428064568320970692304673817341489687891546112",
        "55464657044963196816950587289035428064568320970692304673817341489687891546113",
        "55464657044963196816950587289035428064568320970692304673817341489687899934720",
        "55464657044963196816950587289035428064568320970692304673817341489687899934721",
        "55464657044963196816950587289035428064568320970692304673817341489687908321280"
      ]
    },
    {
      "x": 61,
      "y": 377,
      "size": 1,
      "price": "4683000000000000000000",
      "reserved": "",
      "salt": "0xc464cd482e300f7f30563b058f28d2f4c66b9e44c747f65b648124e6806c9150",
      "assetIds": [
        "55464657044963196816950587289035428064568320970692304673817341489687891546112",
        "55464657044963196816950587289035428064568320970692304673817341489687891546113",
        "55464657044963196816950587289035428064568320970692304673817341489687899934720",
        "55464657044963196816950587289035428064568320970692304673817341489687899934721",
        "55464657044963196816950587289035428064568320970692304673817341489687908321280"
      ]
    },
    {
      "x": 61,
      "y": 384,
      "size": 1,
      "price": "4683000000000000000000",
      "reserved": "",
      "salt": "0x17ee5a165d3fb09fb915e74cd5dc8977b7c5bce2f37621060dd85607c69a0bf3",
      "assetIds": [
        "55464657044963196816950587289035428064568320970692304673817341489687891546112",
        "55464657044963196816950587289035428064568320970692304673817341489687891546113",
        "55464657044963196816950587289035428064568320970692304673817341489687899934720",
        "55464657044963196816950587289035428064568320970692304673817341489687899934721",
        "55464657044963196816950587289035428064568320970692304673817341489687908321280"
      ]
    },
    {
      "x": 61,
      "y": 385,
      "size": 1,
      "price": "4683000000000000000000",
      "reserved": "",
      "salt": "0x023b9bc4b6eda86c8bb9ac4feb093b362ebfe29e1588213a7bcd7e4e7dd5a50f",
      "assetIds": [
        "55464657044963196816950587289035428064568320970692304673817341489687891546112",
        "55464657044963196816950587289035428064568320970692304673817341489687891546113",
        "55464657044963196816950587289035428064568320970692304673817341489687899934720",
        "55464657044963196816950587289035428064568320970692304673817341489687899934721",
        "55464657044963196816950587289035428064568320970692304673817341489687908321280"
      ]
    },
    {
      "x": 61,
      "y": 386,
      "size": 1,
      "price": "1011000000000000000000",
      "reserved": "",
      "salt": "0xc6dd23cbf61936a65b742f142ec2314a678170dcd094f20658c6e3239a7a8b35",
      "assetIds": []
    },
    {
      "x": 61,
      "y": 387,
      "size": 1,
      "price": "1011000000000000000000",
      "reserved": "",
      "salt": "0x4ddd6f969993be402a5ec2fc32e8a861f76cfdc4ef185a524ceeb8ee44de38c4",
      "assetIds": []
    },
    {
      "x": 61,
      "y": 388,
      "size": 1,
      "price": "1011000000000000000000",
      "reserved": "",
      "salt": "0x7492ffcecac034528ec8973422ae81032e3f570e15b92df4a8c56a1c1f7c4b07",
      "assetIds": []
    },
    {
      "x": 61,
      "y": 389,
      "size": 1,
      "price": "1011000000000000000000",
      "reserved": "",
      "salt": "0x72204415936911b95780bcf74b65cb261e24941c7d928c59907fff296144647a",
      "assetIds": []
    },
    {
      "x": 61,
      "y": 396,
      "size": 1,
      "price": "1011000000000000000000",
      "reserved": "",
      "salt": "0x80fe1d1cfe84fa58a5d885afa8a57cc6966a71695164a8751ce3f64f3b648c49",
      "assetIds": []
    },
    {
      "x": 61,
      "y": 397,
      "size": 1,
      "price": "1011000000000000000000",
      "reserved": "",
      "salt": "0xdb12a1a6c376f9f86fd59d3153ccb3b7b6f4cc71e6fe633e210142ca20741aed",
      "assetIds": []
    },
    {
      "x": 61,
      "y": 398,
      "size": 1,
      "price": "1011000000000000000000",
      "reserved": "",
      "salt": "0xd4f50b40c0566b0e47a2c1311bbfa8cd404e958054ccd05b07dc7e5c9242d9db",
      "assetIds": []
    },
    {
      "x": 61,
      "y": 399,
      "size": 1,
      "price": "1011000000000000000000",
      "reserved": "",
      "salt": "0x6d1575b6b90caf7b5c37e1c53581a4e72f2102bfc524b416037ff5eb859889b6",
      "assetIds": []
    },
    {
      "x": 61,
      "y": 400,
      "size": 1,
      "price": "1011000000000000000000",
      "reserved": "",
      "salt": "0x57c7b33d5f42fc142031b92765f3e7744577f490ed8ca6c482dcb959d638411f",
      "assetIds": []
    },
    {
      "x": 61,
      "y": 401,
      "size": 1,
      "price": "1011000000000000000000",
      "reserved": "",
      "salt": "0x5eb7b874f9c4513b108075545cf13b132d150784216e7e8d068bdd72c7d34b9d",
      "assetIds": []
    },
    {
      "x": 61,
      "y": 402,
      "size": 1,
      "price": "1011000000000000000000",
      "reserved": "",
      "salt": "0xb4311fdf6b0c7f8fc596c48ac09deb86bb9b247dfcdc15bb101972c753c3d1ae",
      "assetIds": []
    },
    {
      "x": 61,
      "y": 403,
      "size": 1,
      "price": "1011000000000000000000",
      "reserved": "",
      "salt": "0x18f6429630c878a99396f73d3438285c4bfb397d70054a4cb3ddb3b7658e810d",
      "assetIds": []
    },
    {
      "x": 61,
      "y": 404,
      "size": 1,
      "price": "1011000000000000000000",
      "reserved": "",
      "salt": "0x1828b0e617d8d87d1043cbbdd8cfed0e22b18b1c0d35d0bbc0b2cfb30132cdb8",
      "assetIds": []
    },
    {
      "x": 61,
      "y": 405,
      "size": 1,
      "price": "1011000000000000000000",
      "reserved": "",
      "salt": "0xecd0c3fdb33999e3232234351e29679013d10cadc772b3bdf71a3bf4e8af7e89",
      "assetIds": []
    },
    {
      "x": 61,
      "y": 406,
      "size": 1,
      "price": "1011000000000000000000",
      "reserved": "",
      "salt": "0x1ff00d0ef894082f46e789c41ca7e067de9cbdc770d6ffab0269e31100bdaa26",
      "assetIds": []
    },
    {
      "x": 61,
      "y": 407,
      "size": 1,
      "price": "1011000000000000000000",
      "reserved": "",
      "salt": "0x4937b7bcba22466cb4e2c83d552e579c7bfffe8d704019835f753c0d5a56ce2d",
      "assetIds": []
    },
    {
      "x": 62,
      "y": 355,
      "size": 1,
      "price": "1011000000000000000000",
      "reserved": "",
      "salt": "0xac0bdfe58b16d8629b829640a644a30cafaeff21231bb5de349fd2f5a8f1fd5c",
      "assetIds": []
    },
    {
      "x": 62,
      "y": 356,
      "size": 1,
      "price": "1011000000000000000000",
      "reserved": "0x7a9fe22691c811ea339d9b73150e6911a5343dca",
      "salt": "0x5a8f091b1836938b5346cf085f69c982255c250c51730d6c4fcda1f8a05a20dc",
      "assetIds": []
    },
    {
      "x": 62,
      "y": 357,
      "size": 1,
      "price": "1011000000000000000000",
      "reserved": "",
      "salt": "0x5628b7492d857643b8bddff4fbbebb3a82a589781a7fe7118fa2fcfc0a61d708",
      "assetIds": []
    },
    {
      "x": 62,
      "y": 358,
      "size": 1,
      "price": "1011000000000000000000",
      "reserved": "",
      "salt": "0x8efaa2116e20a465a93ce3c3a1d363851442fa6c2af47bcab8eb5ab3f60af1b8",
      "assetIds": []
    },
    {
      "x": 62,
      "y": 359,
      "size": 1,
      "price": "1011000000000000000000",
      "reserved": "",
      "salt": "0x883ca9a751fc16493163c82178be49453f32beeae863446e9e55e1e85e0df73a",
      "assetIds": []
    },
    {
      "x": 62,
      "y": 360,
      "size": 1,
      "price": "1011000000000000000000",
      "reserved": "",
      "salt": "0x11849c9a1ff948c76f7ffb96a717828666133bb4cf40b56eccf8d9890e0a4cbb",
      "assetIds": []
    },
    {
      "x": 62,
      "y": 361,
      "size": 1,
      "price": "1011000000000000000000",
      "reserved": "",
      "salt": "0x196de30d35b919481e444914625dc327fa442181b69ec2df8da74bc5566da5f1",
      "assetIds": []
    },
    {
      "x": 62,
      "y": 362,
      "size": 1,
      "price": "1011000000000000000000",
      "reserved": "",
      "salt": "0x1909dce1c75f752754503519d755b1bc8b695cf16a99772f3f5bcae5bd7d6b0f",
      "assetIds": []
    },
    {
      "x": 62,
      "y": 366,
      "size": 1,
      "price": "4683000000000000000000",
      "reserved": "",
      "salt": "0x6f74f97d4d00195fd92762510810c27b0d919c70225d7f4ae3877843cc4bee1b",
      "assetIds": [
        "55464657044963196816950587289035428064568320970692304673817341489687891546112",
        "55464657044963196816950587289035428064568320970692304673817341489687891546113",
        "55464657044963196816950587289035428064568320970692304673817341489687899934720",
        "55464657044963196816950587289035428064568320970692304673817341489687899934721",
        "55464657044963196816950587289035428064568320970692304673817341489687908321280"
      ]
    },
    {
      "x": 62,
      "y": 367,
      "size": 1,
      "price": "4683000000000000000000",
      "reserved": "",
      "salt": "0x5168482e1323d3874c01194aacbc2b759dae123d96f19d9cd55a12f156f70b6e",
      "assetIds": [
        "55464657044963196816950587289035428064568320970692304673817341489687891546112",
        "55464657044963196816950587289035428064568320970692304673817341489687891546113",
        "55464657044963196816950587289035428064568320970692304673817341489687899934720",
        "55464657044963196816950587289035428064568320970692304673817341489687899934721",
        "55464657044963196816950587289035428064568320970692304673817341489687908321280"
      ]
    },
    {
      "x": 62,
      "y": 368,
      "size": 1,
      "price": "4683000000000000000000",
      "reserved": "",
      "salt": "0x991b9435249b2627f7aacd2ca6fce3f6cefd8a336d6a432f367b2c1a966df8ac",
      "assetIds": [
        "55464657044963196816950587289035428064568320970692304673817341489687891546112",
        "55464657044963196816950587289035428064568320970692304673817341489687891546113",
        "55464657044963196816950587289035428064568320970692304673817341489687899934720",
        "55464657044963196816950587289035428064568320970692304673817341489687899934721",
        "55464657044963196816950587289035428064568320970692304673817341489687908321280"
      ]
    },
    {
      "x": 62,
      "y": 369,
      "size": 1,
      "price": "4683000000000000000000",
      "reserved": "",
      "salt": "0x3d3ceb38c9770b818a74c772ea1a94304672db63503d23a68e3b6ea32563cbf8",
      "assetIds": [
        "55464657044963196816950587289035428064568320970692304673817341489687891546112",
        "55464657044963196816950587289035428064568320970692304673817341489687891546113",
        "55464657044963196816950587289035428064568320970692304673817341489687899934720",
        "55464657044963196816950587289035428064568320970692304673817341489687899934721",
        "55464657044963196816950587289035428064568320970692304673817341489687908321280"
      ]
    },
    {
      "x": 62,
      "y": 370,
      "size": 1,
      "price": "1011000000000000000000",
      "reserved": "",
      "salt": "0x425d82b4387bdffa275111a2242684775cd662a0665cc3e9dba3936e4f4de167",
      "assetIds": []
    },
    {
      "x": 62,
      "y": 371,
      "size": 1,
      "price": "1011000000000000000000",
      "reserved": "",
      "salt": "0xa454e5bc1949e3b3748a0ae6e294328811d0031d5374917dc3620cbc924c8099",
      "assetIds": []
    },
    {
      "x": 62,
      "y": 372,
      "size": 1,
      "price": "1011000000000000000000",
      "reserved": "",
      "salt": "0xb9e18dbe843e6ab47667e1cec01a47b6f475383d69cd7ed737296a8a410bed95",
      "assetIds": []
    },
    {
      "x": 62,
      "y": 373,
      "size": 1,
      "price": "1011000000000000000000",
      "reserved": "",
      "salt": "0x6a60cfa01a6d251fe0b3f93f9665e1b8cd7d34fd61936d2801039f2f15baacb1",
      "assetIds": []
    },
    {
      "x": 62,
      "y": 374,
      "size": 1,
      "price": "1011000000000000000000",
      "reserved": "",
      "salt": "0xc0a5186f2f5dfc135ad7a249fe3161fb647dc352c6abadcc553c1a730953eb43",
      "assetIds": []
    },
    {
      "x": 62,
      "y": 375,
      "size": 1,
      "price": "1011000000000000000000",
      "reserved": "0x7a9fe22691c811ea339d9b73150e6911a5343dca",
      "salt": "0xbadfc1c5fc9fb8a09b031debe793255d2a65a13c4165c96158f0781fa1ad1c4a",
      "assetIds": []
    },
    {
      "x": 62,
      "y": 376,
      "size": 1,
      "price": "4683000000000000000000",
      "reserved": "",
      "salt": "0xa4a9420fec5944baa76dc6d5b8d28d2ce01156a3ea8ce5da03de6a449c810e79",
      "assetIds": [
        "55464657044963196816950587289035428064568320970692304673817341489687891546112",
        "55464657044963196816950587289035428064568320970692304673817341489687891546113",
        "55464657044963196816950587289035428064568320970692304673817341489687899934720",
        "55464657044963196816950587289035428064568320970692304673817341489687899934721",
        "55464657044963196816950587289035428064568320970692304673817341489687908321280"
      ]
    },
    {
      "x": 62,
      "y": 377,
      "size": 1,
      "price": "4683000000000000000000",
      "reserved": "",
      "salt": "0xb9e7849fea90753fda816bd3d2008215f742792790efb0e8017df44e52909849",
      "assetIds": [
        "55464657044963196816950587289035428064568320970692304673817341489687891546112",
        "55464657044963196816950587289035428064568320970692304673817341489687891546113",
        "55464657044963196816950587289035428064568320970692304673817341489687899934720",
        "55464657044963196816950587289035428064568320970692304673817341489687899934721",
        "55464657044963196816950587289035428064568320970692304673817341489687908321280"
      ]
    },
    {
      "x": 62,
      "y": 384,
      "size": 1,
      "price": "4683000000000000000000",
      "reserved": "",
      "salt": "0x744f8d20b380f0a21b83f44acec5f1286c691130ced84cef2bf46d295a885628",
      "assetIds": [
        "55464657044963196816950587289035428064568320970692304673817341489687891546112",
        "55464657044963196816950587289035428064568320970692304673817341489687891546113",
        "55464657044963196816950587289035428064568320970692304673817341489687899934720",
        "55464657044963196816950587289035428064568320970692304673817341489687899934721",
        "55464657044963196816950587289035428064568320970692304673817341489687908321280"
      ]
    },
    {
      "x": 62,
      "y": 385,
      "size": 1,
      "price": "1011000000000000000000",
      "reserved": "0x7a9fe22691c811ea339d9b73150e6911a5343dca",
      "salt": "0xa99a9c36ae5dd4b9b6c55c25037b6055ff565171612645634959ce18d6133d79",
      "assetIds": []
    },
    {
      "x": 62,
      "y": 386,
      "size": 1,
      "price": "1011000000000000000000",
      "reserved": "",
      "salt": "0x1d8426e563d272c9570841ac38dfea15143a760b6595dcf963d3d1b45d384bcd",
      "assetIds": []
    },
    {
      "x": 62,
      "y": 387,
      "size": 1,
      "price": "1011000000000000000000",
      "reserved": "",
      "salt": "0x09497b1e7fffaeca8692c01f86005b9e02cbcbb8bf6a3dfdf1be0b1876cee0d3",
      "assetIds": []
    },
    {
      "x": 62,
      "y": 388,
      "size": 1,
      "price": "1011000000000000000000",
      "reserved": "",
      "salt": "0xab341e7f9cca94c2b8d572447f1cabb158bdc22e93a8b04a031682685756cf15",
      "assetIds": []
    },
    {
      "x": 62,
      "y": 389,
      "size": 1,
      "price": "1011000000000000000000",
      "reserved": "",
      "salt": "0x752d8d9072baa9b2c43661ecd3c4435ca60f71a736c122b238b7cea35ec56c3e",
      "assetIds": []
    },
    {
      "x": 62,
      "y": 396,
      "size": 1,
      "price": "1011000000000000000000",
      "reserved": "",
      "salt": "0xfdce5cad1acbdd0048aa5efb95d978bd810c5ded99e805e41ce2a07cab5d77d8",
      "assetIds": []
    },
    {
      "x": 62,
      "y": 397,
      "size": 1,
      "price": "1011000000000000000000",
      "reserved": "",
      "salt": "0x7ccce0626361c52804c7d31dacb32def8e1a481d75239b2fd882c4b244b82f13",
      "assetIds": []
    },
    {
      "x": 62,
      "y": 398,
      "size": 1,
      "price": "1011000000000000000000",
      "reserved": "",
      "salt": "0xb9b81edb78d31ce10a499a9e9b8ed46aab90b3693a350c80d140619eef00681e",
      "assetIds": []
    },
    {
      "x": 62,
      "y": 399,
      "size": 1,
      "price": "1011000000000000000000",
      "reserved": "",
      "salt": "0x8fbff5fdf5d0ac37c7dfe8f5d6aa8298942062d254ab17c322758e2b12bd96dc",
      "assetIds": []
    },
    {
      "x": 62,
      "y": 400,
      "size": 1,
      "price": "1011000000000000000000",
      "reserved": "",
      "salt": "0x112ec2677880c1c29058bf80c96784064da7f7cefd3791f52a0a2b7e7365560b",
      "assetIds": []
    },
    {
      "x": 62,
      "y": 401,
      "size": 1,
      "price": "1011000000000000000000",
      "reserved": "",
      "salt": "0xc6ffdd9de25601d50ca8b286ce40ebbb21137fcf07d088bea8fd4919fda6c4da",
      "assetIds": []
    },
    {
      "x": 62,
      "y": 402,
      "size": 1,
      "price": "1011000000000000000000",
      "reserved": "",
      "salt": "0x9fca76790ffba9cf21b4a655915939599ae06ee56fe1f32276b4be83e1a23516",
      "assetIds": []
    },
    {
      "x": 62,
      "y": 403,
      "size": 1,
      "price": "1011000000000000000000",
      "reserved": "",
      "salt": "0x61a1747d2c2772a83937ce0871d98d5a5caf7902a338316d90a8a77139324cbc",
      "assetIds": []
    },
    {
      "x": 62,
      "y": 404,
      "size": 1,
      "price": "1011000000000000000000",
      "reserved": "",
      "salt": "0x73b151f2b72d1afb70c95146b9cca0bb23e7ebf071b4eb04e8aac6ed649636cb",
      "assetIds": []
    },
    {
      "x": 62,
      "y": 405,
      "size": 1,
      "price": "1011000000000000000000",
      "reserved": "",
      "salt": "0x69082eede180bf27b28044b25b0d5e22068e9f6a1ee8bc63027348a2d8b5b522",
      "assetIds": []
    },
    {
      "x": 62,
      "y": 406,
      "size": 1,
      "price": "1011000000000000000000",
      "reserved": "",
      "salt": "0x0fdc147965f800cf32a93cc1ded22f6707a0e6959296705a0421816fe6550583",
      "assetIds": []
    },
    {
      "x": 62,
      "y": 407,
      "size": 1,
      "price": "1011000000000000000000",
      "reserved": "",
      "salt": "0xbd15926753ac172e312ba14ab001a7c5b27cdc4a60adaf351645d44cb908f072",
      "assetIds": []
    },
    {
      "x": 63,
      "y": 355,
      "size": 1,
      "price": "1011000000000000000000",
      "reserved": "",
      "salt": "0xbbb311d8a6c7b1e1e1f09a4ab5c9a1eecaba3590597690071aa084743681af1e",
      "assetIds": []
    },
    {
      "x": 63,
      "y": 356,
      "size": 1,
      "price": "1011000000000000000000",
      "reserved": "",
      "salt": "0x0073651b444192e5b4b485e41ac07d10b35888c2ee17d6474e2aebcf1bcab376",
      "assetIds": []
    },
    {
      "x": 63,
      "y": 357,
      "size": 1,
      "price": "1011000000000000000000",
      "reserved": "",
      "salt": "0xb6ad3b41abbaa94462ed351558965391ee299b11c1cff655a261c1e6e8f77e6c",
      "assetIds": []
    },
    {
      "x": 63,
      "y": 358,
      "size": 1,
      "price": "1011000000000000000000",
      "reserved": "",
      "salt": "0x08f67abfda3fd05afa63d5631150f790cc3c768749cd05f7bd18baf2b789aedb",
      "assetIds": []
    },
    {
      "x": 63,
      "y": 359,
      "size": 1,
      "price": "1011000000000000000000",
      "reserved": "",
      "salt": "0x09d3a2840c53058262646a0964e740b86072af88bf596dc1b57a1a4814613f84",
      "assetIds": []
    },
    {
      "x": 63,
      "y": 363,
      "size": 1,
      "price": "1011000000000000000000",
      "reserved": "",
      "salt": "0x648eb72c8f552cfeba34287ab393fcd8043bf0ae94c9c624164feafd89420b14",
      "assetIds": []
    },
    {
      "x": 63,
      "y": 364,
      "size": 1,
      "price": "1011000000000000000000",
      "reserved": "",
      "salt": "0xd14d048c3a66ca59e31ac8802e5b51bf382bb20388926be81ace9b86e2eee36b",
      "assetIds": []
    },
    {
      "x": 63,
      "y": 365,
      "size": 1,
      "price": "4683000000000000000000",
      "reserved": "",
      "salt": "0x7a312feac34e6c3474e1030ddee3dd3ccc1fc554b571bed1519041ef9cf31806",
      "assetIds": [
        "55464657044963196816950587289035428064568320970692304673817341489687891546112",
        "55464657044963196816950587289035428064568320970692304673817341489687891546113",
        "55464657044963196816950587289035428064568320970692304673817341489687899934720",
        "55464657044963196816950587289035428064568320970692304673817341489687899934721",
        "55464657044963196816950587289035428064568320970692304673817341489687908321280"
      ]
    },
    {
      "x": 63,
      "y": 369,
      "size": 1,
      "price": "4683000000000000000000",
      "reserved": "",
      "salt": "0xb53edb8749d1513ce7b01628715b1fe2ac71c04e1bd71a3d5c429bac953984c2",
      "assetIds": [
        "55464657044963196816950587289035428064568320970692304673817341489687891546112",
        "55464657044963196816950587289035428064568320970692304673817341489687891546113",
        "55464657044963196816950587289035428064568320970692304673817341489687899934720",
        "55464657044963196816950587289035428064568320970692304673817341489687899934721",
        "55464657044963196816950587289035428064568320970692304673817341489687908321280"
      ]
    },
    {
      "x": 63,
      "y": 370,
      "size": 1,
      "price": "4683000000000000000000",
      "reserved": "",
      "salt": "0x5c8e8159b38689622e03ffa80139d1f48896eaa282bf613ab51ec195a1ccd0dc",
      "assetIds": [
        "55464657044963196816950587289035428064568320970692304673817341489687891546112",
        "55464657044963196816950587289035428064568320970692304673817341489687891546113",
        "55464657044963196816950587289035428064568320970692304673817341489687899934720",
        "55464657044963196816950587289035428064568320970692304673817341489687899934721",
        "55464657044963196816950587289035428064568320970692304673817341489687908321280"
      ]
    },
    {
      "x": 63,
      "y": 371,
      "size": 1,
      "price": "1011000000000000000000",
      "reserved": "",
      "salt": "0x39f4875a1f3b82f70b0cbceb6526b7d872b4a0e9e0f4ca4f4fb75fe5ca4929da",
      "assetIds": []
    },
    {
      "x": 63,
      "y": 372,
      "size": 1,
      "price": "1011000000000000000000",
      "reserved": "",
      "salt": "0x0917ab1c96c83d6dc30a9f525a66a15b56d1cab432ecbf563b86a223af3e0a48",
      "assetIds": []
    },
    {
      "x": 63,
      "y": 373,
      "size": 1,
      "price": "1011000000000000000000",
      "reserved": "",
      "salt": "0x4fa99f9fd9437a70ee3b52f61db2b9ba50a1c9c7aba29be675f12ec775e3cbf0",
      "assetIds": []
    },
    {
      "x": 63,
      "y": 374,
      "size": 1,
      "price": "1011000000000000000000",
      "reserved": "",
      "salt": "0x9c4fc8304ada564a2a578fc7856d5a3604ea546599a58e995884c6d7b7a2bfd5",
      "assetIds": []
    },
    {
      "x": 63,
      "y": 375,
      "size": 1,
      "price": "1011000000000000000000",
      "reserved": "",
      "salt": "0x25330104d399f409cfb86069431676d326b62896e516627eabd709a796000fe5",
      "assetIds": []
    },
    {
      "x": 63,
      "y": 376,
      "size": 1,
      "price": "1011000000000000000000",
      "reserved": "0x7a9fe22691c811ea339d9b73150e6911a5343dca",
      "salt": "0xf6c834b3de64b0041de5f40086680f60a60d79e30237f9aac63e16062050ba81",
      "assetIds": []
    },
    {
      "x": 63,
      "y": 377,
      "size": 1,
      "price": "4683000000000000000000",
      "reserved": "",
      "salt": "0x55e93194149cc76227bc709a110a1c879188eb71b66c29865d7b317c7845efa4",
      "assetIds": [
        "55464657044963196816950587289035428064568320970692304673817341489687891546112",
        "55464657044963196816950587289035428064568320970692304673817341489687891546113",
        "55464657044963196816950587289035428064568320970692304673817341489687899934720",
        "55464657044963196816950587289035428064568320970692304673817341489687899934721",
        "55464657044963196816950587289035428064568320970692304673817341489687908321280"
      ]
    },
    {
      "x": 63,
      "y": 384,
      "size": 1,
      "price": "4683000000000000000000",
      "reserved": "",
      "salt": "0x21e01faa75ec86403e2cb6b1619fc505832b5ae512499c5ab59611ae3f5c47d1",
      "assetIds": [
        "55464657044963196816950587289035428064568320970692304673817341489687891546112",
        "55464657044963196816950587289035428064568320970692304673817341489687891546113",
        "55464657044963196816950587289035428064568320970692304673817341489687899934720",
        "55464657044963196816950587289035428064568320970692304673817341489687899934721",
        "55464657044963196816950587289035428064568320970692304673817341489687908321280"
      ]
    },
    {
      "x": 63,
      "y": 385,
      "size": 1,
      "price": "4683000000000000000000",
      "reserved": "",
      "salt": "0x2274c683ce80576fea55c87c9146d131a064072202464653f6bcb89faa7dc59b",
      "assetIds": [
        "55464657044963196816950587289035428064568320970692304673817341489687891546112",
        "55464657044963196816950587289035428064568320970692304673817341489687891546113",
        "55464657044963196816950587289035428064568320970692304673817341489687899934720",
        "55464657044963196816950587289035428064568320970692304673817341489687899934721",
        "55464657044963196816950587289035428064568320970692304673817341489687908321280"
      ]
    },
    {
      "x": 63,
      "y": 386,
      "size": 1,
      "price": "1011000000000000000000",
      "reserved": "",
      "salt": "0xc8504d94d6af3bdfee62e19fb5b46c2a7204561b1d25fda2c491067ee1ee8562",
      "assetIds": []
    },
    {
      "x": 63,
      "y": 387,
      "size": 1,
      "price": "1011000000000000000000",
      "reserved": "",
      "salt": "0x516facc184d77e9ee573f6772f05e6d3ab357f055d64dbe96183386d39f4829c",
      "assetIds": []
    },
    {
      "x": 63,
      "y": 388,
      "size": 1,
      "price": "1011000000000000000000",
      "reserved": "",
      "salt": "0xfcb7c363b508f341c775061479291031f04be7e19794fc84df4eeb3b2642207a",
      "assetIds": []
    },
    {
      "x": 63,
      "y": 389,
      "size": 1,
      "price": "1011000000000000000000",
      "reserved": "",
      "salt": "0x130703c9e018acac02305f011dd055577d2a5a2987b3d8894ef99b7bffb20f16",
      "assetIds": []
    },
    {
      "x": 63,
      "y": 396,
      "size": 1,
      "price": "1011000000000000000000",
      "reserved": "",
      "salt": "0x84117a91aebc26d93f48ff0a86c8a32ff969c0f81151b253ba794fd82fef7754",
      "assetIds": []
    },
    {
      "x": 63,
      "y": 397,
      "size": 1,
      "price": "1011000000000000000000",
      "reserved": "",
      "salt": "0x1a83cbcbe9cfb78b018342728fa7cce620dc4cfa1c7a22f7a853f212cd2a0f7d",
      "assetIds": []
    },
    {
      "x": 63,
      "y": 398,
      "size": 1,
      "price": "1011000000000000000000",
      "reserved": "",
      "salt": "0x25d22cd8b931e0f54de46bd1ffc0ad8ba7e3385dbebb92c0b9d2d1e180113477",
      "assetIds": []
    },
    {
      "x": 63,
      "y": 399,
      "size": 1,
      "price": "1011000000000000000000",
      "reserved": "",
      "salt": "0xc6902d4ce0a21fa6c5f7ee7b5478a30ae84e85481bfc2e3e552e228583ee900e",
      "assetIds": []
    },
    {
      "x": 63,
      "y": 400,
      "size": 1,
      "price": "1011000000000000000000",
      "reserved": "",
      "salt": "0x568a884f29c72b2c95e76063ded84bfb98c9b1334b9fe9872f54ed56311571e7",
      "assetIds": []
    },
    {
      "x": 63,
      "y": 401,
      "size": 1,
      "price": "1011000000000000000000",
      "reserved": "",
      "salt": "0x871af4ef0afbdd81e3b606c9c4f861d9e12717afe4c14374602e2c42d2776e3f",
      "assetIds": []
    },
    {
      "x": 63,
      "y": 402,
      "size": 1,
      "price": "1011000000000000000000",
      "reserved": "",
      "salt": "0xe921312371812bd24e7d5c6d70a3cfe7dfab4000a38c689e1bc7108084224e42",
      "assetIds": []
    },
    {
      "x": 63,
      "y": 403,
      "size": 1,
      "price": "1011000000000000000000",
      "reserved": "",
      "salt": "0x6dc3a4b09051c09d9fcaa3024210606692029fd61ec287b583687610935d9dd5",
      "assetIds": []
    },
    {
      "x": 63,
      "y": 404,
      "size": 1,
      "price": "1011000000000000000000",
      "reserved": "",
      "salt": "0x71c2995620f34ba2f33e1755393503cda55dc19ab41521b9edb7d42c386e99bb",
      "assetIds": []
    },
    {
      "x": 63,
      "y": 405,
      "size": 1,
      "price": "1011000000000000000000",
      "reserved": "",
      "salt": "0x445fa05997a1bc9f91f104903d685d07f9557fc273505ae765f0c1e941ab5fd3",
      "assetIds": []
    },
    {
      "x": 63,
      "y": 406,
      "size": 1,
      "price": "1011000000000000000000",
      "reserved": "",
      "salt": "0x58616749c4a8beb69ef8ba14db374d17b7e9dc022d2118cd96ecafbffa1fbb12",
      "assetIds": []
    },
    {
      "x": 63,
      "y": 407,
      "size": 1,
      "price": "1011000000000000000000",
      "reserved": "",
      "salt": "0x021c95ec9f3c08ff817e8a85ee9d87179a2ef56da5dbb2b9f5e769f6b8cc2171",
      "assetIds": []
    },
    {
      "x": 64,
      "y": 356,
      "size": 1,
      "price": "1011000000000000000000",
      "reserved": "",
      "salt": "0x2e9aaece8c17a74327b982125460f10214ff6907aa79b19c364477e258c4dc18",
      "assetIds": []
    },
    {
      "x": 64,
      "y": 357,
      "size": 1,
      "price": "1011000000000000000000",
      "reserved": "",
      "salt": "0x70bfa5e830351256037733293d23f7b609ec3ca0d2e382d0cea96e3e2800ac88",
      "assetIds": []
    },
    {
      "x": 64,
      "y": 358,
      "size": 1,
      "price": "1011000000000000000000",
      "reserved": "",
      "salt": "0xd055be50dce89f149cfbf441773f9f5dbc65e59121dad9990eb62632c683bd5c",
      "assetIds": []
    },
    {
      "x": 64,
      "y": 359,
      "size": 1,
      "price": "1011000000000000000000",
      "reserved": "",
      "salt": "0x745970f5bc0adc7c455f241e2f51f5fcbbc77842af9c953e8bdcbd3e3b721aca",
      "assetIds": []
    },
    {
      "x": 64,
      "y": 363,
      "size": 1,
      "price": "1011000000000000000000",
      "reserved": "",
      "salt": "0xe2951a599ecd7ad26eed36ef56a1de2b6aba9665c23790c4a0fc7b1dcca23fa8",
      "assetIds": []
    },
    {
      "x": 64,
      "y": 364,
      "size": 1,
      "price": "4683000000000000000000",
      "reserved": "",
      "salt": "0x9fdb735acfb20bbc8c1335e08dd475723da603a3b87378884e3eb8dedb09a5fc",
      "assetIds": [
        "55464657044963196816950587289035428064568320970692304673817341489687891546112",
        "55464657044963196816950587289035428064568320970692304673817341489687891546113",
        "55464657044963196816950587289035428064568320970692304673817341489687899934720",
        "55464657044963196816950587289035428064568320970692304673817341489687899934721",
        "55464657044963196816950587289035428064568320970692304673817341489687908321280"
      ]
    },
    {
      "x": 64,
      "y": 365,
      "size": 1,
      "price": "4683000000000000000000",
      "reserved": "",
      "salt": "0x5de440657969ea4ec5525e99eba352365ea95ee43beb10bb4697ac23381a2287",
      "assetIds": [
        "55464657044963196816950587289035428064568320970692304673817341489687891546112",
        "55464657044963196816950587289035428064568320970692304673817341489687891546113",
        "55464657044963196816950587289035428064568320970692304673817341489687899934720",
        "55464657044963196816950587289035428064568320970692304673817341489687899934721",
        "55464657044963196816950587289035428064568320970692304673817341489687908321280"
      ]
    },
    {
      "x": 64,
      "y": 369,
      "size": 1,
      "price": "4683000000000000000000",
      "reserved": "",
      "salt": "0xd2f4c729baccf54378d0043e45074186d5ab6ba76bb2946e019e033329e9b9ec",
      "assetIds": [
        "55464657044963196816950587289035428064568320970692304673817341489687891546112",
        "55464657044963196816950587289035428064568320970692304673817341489687891546113",
        "55464657044963196816950587289035428064568320970692304673817341489687899934720",
        "55464657044963196816950587289035428064568320970692304673817341489687899934721",
        "55464657044963196816950587289035428064568320970692304673817341489687908321280"
      ]
    },
    {
      "x": 64,
      "y": 370,
      "size": 1,
      "price": "1011000000000000000000",
      "reserved": "0x7a9fe22691c811ea339d9b73150e6911a5343dca",
      "salt": "0xf01746dac250f2d0c930b5073481017c5b5ef91738d856793c864c89e4925015",
      "assetIds": []
    },
    {
      "x": 64,
      "y": 371,
      "size": 1,
      "price": "1011000000000000000000",
      "reserved": "",
      "salt": "0x9bc15dfda31151b405445097df05f9684767443a646c55acc2037a43a3b5a5e1",
      "assetIds": []
    },
    {
      "x": 64,
      "y": 372,
      "size": 1,
      "price": "1011000000000000000000",
      "reserved": "",
      "salt": "0x866461a6259a1e08173c5f53c1b426062d0173afaf210819a438e1cab654e2d6",
      "assetIds": []
    },
    {
      "x": 64,
      "y": 373,
      "size": 1,
      "price": "1011000000000000000000",
      "reserved": "",
      "salt": "0xf5de11c0da77a143e2eda1541098d82ffe4c09af941f2156e7b7d86255dd0446",
      "assetIds": []
    },
    {
      "x": 64,
      "y": 374,
      "size": 1,
      "price": "1011000000000000000000",
      "reserved": "",
      "salt": "0xcc0506ca4af6b9da21349f0ab6a453345d5eb70320b88862ee42ae860b6494e2",
      "assetIds": []
    },
    {
      "x": 64,
      "y": 375,
      "size": 1,
      "price": "1011000000000000000000",
      "reserved": "",
      "salt": "0x553996dfab835aae7a786b9c06e9606b1b58df57892ced1e3364bd0c0412b9e9",
      "assetIds": []
    },
    {
      "x": 64,
      "y": 376,
      "size": 1,
      "price": "1011000000000000000000",
      "reserved": "0x7a9fe22691c811ea339d9b73150e6911a5343dca",
      "salt": "0xfa07693829e8d38102b0dd289c0c54c73a883101faac13beae677524e1d4bd93",
      "assetIds": []
    },
    {
      "x": 64,
      "y": 377,
      "size": 1,
      "price": "4683000000000000000000",
      "reserved": "",
      "salt": "0xf42c701364781c6b89abfcd7ca3dfe2d98b3b6be0b3f21680efb8228b528b3d8",
      "assetIds": [
        "55464657044963196816950587289035428064568320970692304673817341489687891546112",
        "55464657044963196816950587289035428064568320970692304673817341489687891546113",
        "55464657044963196816950587289035428064568320970692304673817341489687899934720",
        "55464657044963196816950587289035428064568320970692304673817341489687899934721",
        "55464657044963196816950587289035428064568320970692304673817341489687908321280"
      ]
    },
    {
      "x": 64,
      "y": 384,
      "size": 1,
      "price": "4683000000000000000000",
      "reserved": "",
      "salt": "0xa2f89899b57f980388ad55821fff98d6f71fd38a106b728cc8205582c80619db",
      "assetIds": [
        "55464657044963196816950587289035428064568320970692304673817341489687891546112",
        "55464657044963196816950587289035428064568320970692304673817341489687891546113",
        "55464657044963196816950587289035428064568320970692304673817341489687899934720",
        "55464657044963196816950587289035428064568320970692304673817341489687899934721",
        "55464657044963196816950587289035428064568320970692304673817341489687908321280"
      ]
    },
    {
      "x": 64,
      "y": 385,
      "size": 1,
      "price": "4683000000000000000000",
      "reserved": "",
      "salt": "0x0b0f1c3786ed0a75efc398ee72ca5f9cbba881883943c75ded3a0e0fd3431bb4",
      "assetIds": [
        "55464657044963196816950587289035428064568320970692304673817341489687891546112",
        "55464657044963196816950587289035428064568320970692304673817341489687891546113",
        "55464657044963196816950587289035428064568320970692304673817341489687899934720",
        "55464657044963196816950587289035428064568320970692304673817341489687899934721",
        "55464657044963196816950587289035428064568320970692304673817341489687908321280"
      ]
    },
    {
      "x": 64,
      "y": 386,
      "size": 1,
      "price": "1011000000000000000000",
      "reserved": "",
      "salt": "0x43fc3b9a847673cd8d6166df843e460738fc8fe5226b375ab7851e14e4438432",
      "assetIds": []
    },
    {
      "x": 64,
      "y": 387,
      "size": 1,
      "price": "1011000000000000000000",
      "reserved": "",
      "salt": "0x9462d2e5eb67c5ff829ae729213bd82b509fce96b8011358c8bb4868087db1db",
      "assetIds": []
    },
    {
      "x": 64,
      "y": 388,
      "size": 1,
      "price": "1011000000000000000000",
      "reserved": "",
      "salt": "0x5eaa8ae63ce69ea4b679a6f565bad178b8781bdede8d5c5053e0aeccd1885947",
      "assetIds": []
    },
    {
      "x": 64,
      "y": 389,
      "size": 1,
      "price": "1011000000000000000000",
      "reserved": "",
      "salt": "0xb100dcfd800bfecc0fa8dc76901aa9e8b582eb5aa5b68271c148f915dc461773",
      "assetIds": []
    },
    {
      "x": 64,
      "y": 396,
      "size": 1,
      "price": "4683000000000000000000",
      "reserved": "",
      "salt": "0x4983481bb05a9eb2f1b9ed7c909e557416c004852f280f85f0dd54b19c1b47d5",
      "assetIds": [
        "55464657044963196816950587289035428064568320970692304673817341489687891546112",
        "55464657044963196816950587289035428064568320970692304673817341489687891546113",
        "55464657044963196816950587289035428064568320970692304673817341489687899934720",
        "55464657044963196816950587289035428064568320970692304673817341489687899934721",
        "55464657044963196816950587289035428064568320970692304673817341489687908321280"
      ]
    },
    {
      "x": 64,
      "y": 397,
      "size": 1,
      "price": "4683000000000000000000",
      "reserved": "",
      "salt": "0xc39b9eadb7cfded035da16d006f2bd7326f293d428f448c6af514855b8d946a6",
      "assetIds": [
        "55464657044963196816950587289035428064568320970692304673817341489687891546112",
        "55464657044963196816950587289035428064568320970692304673817341489687891546113",
        "55464657044963196816950587289035428064568320970692304673817341489687899934720",
        "55464657044963196816950587289035428064568320970692304673817341489687899934721",
        "55464657044963196816950587289035428064568320970692304673817341489687908321280"
      ]
    },
    {
      "x": 64,
      "y": 398,
      "size": 1,
      "price": "4683000000000000000000",
      "reserved": "",
      "salt": "0x9bf034516988aec06c3b1613866c1852d3f440035523a8eb37846f312b6802aa",
      "assetIds": [
        "55464657044963196816950587289035428064568320970692304673817341489687891546112",
        "55464657044963196816950587289035428064568320970692304673817341489687891546113",
        "55464657044963196816950587289035428064568320970692304673817341489687899934720",
        "55464657044963196816950587289035428064568320970692304673817341489687899934721",
        "55464657044963196816950587289035428064568320970692304673817341489687908321280"
      ]
    },
    {
      "x": 64,
      "y": 399,
      "size": 1,
      "price": "4683000000000000000000",
      "reserved": "",
      "salt": "0x42ef6ebbebb39795e9ee6aa9fe39e4f3b5633b82d94f8d533a7b91f7441822f9",
      "assetIds": [
        "55464657044963196816950587289035428064568320970692304673817341489687891546112",
        "55464657044963196816950587289035428064568320970692304673817341489687891546113",
        "55464657044963196816950587289035428064568320970692304673817341489687899934720",
        "55464657044963196816950587289035428064568320970692304673817341489687899934721",
        "55464657044963196816950587289035428064568320970692304673817341489687908321280"
      ]
    },
    {
      "x": 64,
      "y": 400,
      "size": 1,
      "price": "4683000000000000000000",
      "reserved": "",
      "salt": "0x20c90c4546a89f2377a3a20d6ad65976f5cf58c9f6609d64aba40e7a68611c03",
      "assetIds": [
        "55464657044963196816950587289035428064568320970692304673817341489687891546112",
        "55464657044963196816950587289035428064568320970692304673817341489687891546113",
        "55464657044963196816950587289035428064568320970692304673817341489687899934720",
        "55464657044963196816950587289035428064568320970692304673817341489687899934721",
        "55464657044963196816950587289035428064568320970692304673817341489687908321280"
      ]
    },
    {
      "x": 64,
      "y": 401,
      "size": 1,
      "price": "4683000000000000000000",
      "reserved": "",
      "salt": "0x116981d0b4f6d298499e0090baf846e4f1b09064e8bf1a57099d3f96a282fa94",
      "assetIds": [
        "55464657044963196816950587289035428064568320970692304673817341489687891546112",
        "55464657044963196816950587289035428064568320970692304673817341489687891546113",
        "55464657044963196816950587289035428064568320970692304673817341489687899934720",
        "55464657044963196816950587289035428064568320970692304673817341489687899934721",
        "55464657044963196816950587289035428064568320970692304673817341489687908321280"
      ]
    },
    {
      "x": 64,
      "y": 402,
      "size": 1,
      "price": "1011000000000000000000",
      "reserved": "",
      "salt": "0x70a292a6de89b40df4af818a4eeca55b8fcd51e12a685ee5f05789469ae4fc4c",
      "assetIds": []
    },
    {
      "x": 64,
      "y": 403,
      "size": 1,
      "price": "1011000000000000000000",
      "reserved": "",
      "salt": "0x6c353ad2198457f55a208e4e064cac80a98f0402ac0e83ce41062066a7d9dd3c",
      "assetIds": []
    },
    {
      "x": 64,
      "y": 404,
      "size": 1,
      "price": "1011000000000000000000",
      "reserved": "",
      "salt": "0x454b51d55f180a679757c65b489d4c19e0183ea9c78738ed1dedc0147647c0b4",
      "assetIds": []
    },
    {
      "x": 64,
      "y": 405,
      "size": 1,
      "price": "1011000000000000000000",
      "reserved": "",
      "salt": "0x6e800ec08ea411ddfcfb3cc9c7774175bcf0e141b2d6ee812872e8f888dd8beb",
      "assetIds": []
    },
    {
      "x": 64,
      "y": 406,
      "size": 1,
      "price": "1011000000000000000000",
      "reserved": "",
      "salt": "0xa6179d2663c0f0cfeb56f594d18a9730e9144e0dcc859af6111368ea8e080406",
      "assetIds": []
    },
    {
      "x": 64,
      "y": 407,
      "size": 1,
      "price": "1011000000000000000000",
      "reserved": "",
      "salt": "0x28101a0b48a8d96297f9e40836f0b901ab8d9b9b606a813ddf503e1cbbf5ea22",
      "assetIds": []
    },
    {
      "x": 65,
      "y": 356,
      "size": 1,
      "price": "1011000000000000000000",
      "reserved": "",
      "salt": "0x762448aaf5ed564cdff3e217d6dafc230935b8e43fc8a4f49bb97f99081b459b",
      "assetIds": []
    },
    {
      "x": 65,
      "y": 357,
      "size": 1,
      "price": "1011000000000000000000",
      "reserved": "",
      "salt": "0x52f37442ec3fff0e8aad76b41ec81c323b602a7e73810171844765bc1c1594ce",
      "assetIds": []
    },
    {
      "x": 65,
      "y": 358,
      "size": 1,
      "price": "1011000000000000000000",
      "reserved": "",
      "salt": "0x25a0cc9d5f117d394521c44f3e563fbbf6fb3b6361013bb77f5f654b3dc6fee7",
      "assetIds": []
    },
    {
      "x": 65,
      "y": 359,
      "size": 1,
      "price": "1011000000000000000000",
      "reserved": "",
      "salt": "0x00df06c76ffcc40bd11903586c4068403c73e6e23393b1e6eaffe6b0ee68063b",
      "assetIds": []
    },
    {
      "x": 65,
      "y": 363,
      "size": 1,
      "price": "1011000000000000000000",
      "reserved": "",
      "salt": "0xd479ce14620dd49f1a93869fa92fcfada2b8d1bcfecfcbbfe4ab3cd4ee064ab1",
      "assetIds": []
    },
    {
      "x": 65,
      "y": 364,
      "size": 1,
      "price": "4683000000000000000000",
      "reserved": "",
      "salt": "0x80422427adec1fbd3e733471335ceb301d52810fc9951acf809d0494d2e9916b",
      "assetIds": [
        "55464657044963196816950587289035428064568320970692304673817341489687891546112",
        "55464657044963196816950587289035428064568320970692304673817341489687891546113",
        "55464657044963196816950587289035428064568320970692304673817341489687899934720",
        "55464657044963196816950587289035428064568320970692304673817341489687899934721",
        "55464657044963196816950587289035428064568320970692304673817341489687908321280"
      ]
    },
    {
      "x": 65,
      "y": 365,
      "size": 1,
      "price": "4683000000000000000000",
      "reserved": "",
      "salt": "0x0f6322f48262f9e21d542f1f900faada07e2485e25a4a931074f7feeca017e52",
      "assetIds": [
        "55464657044963196816950587289035428064568320970692304673817341489687891546112",
        "55464657044963196816950587289035428064568320970692304673817341489687891546113",
        "55464657044963196816950587289035428064568320970692304673817341489687899934720",
        "55464657044963196816950587289035428064568320970692304673817341489687899934721",
        "55464657044963196816950587289035428064568320970692304673817341489687908321280"
      ]
    },
    {
      "x": 65,
      "y": 369,
      "size": 1,
      "price": "4683000000000000000000",
      "reserved": "",
      "salt": "0x343ab7cc98f5bfe28c751ec7e753f0c481a5fa32f40bd1cced525c3450506e17",
      "assetIds": [
        "55464657044963196816950587289035428064568320970692304673817341489687891546112",
        "55464657044963196816950587289035428064568320970692304673817341489687891546113",
        "55464657044963196816950587289035428064568320970692304673817341489687899934720",
        "55464657044963196816950587289035428064568320970692304673817341489687899934721",
        "55464657044963196816950587289035428064568320970692304673817341489687908321280"
      ]
    },
    {
      "x": 65,
      "y": 370,
      "size": 1,
      "price": "4683000000000000000000",
      "reserved": "",
      "salt": "0x400b269f9e819575211a7dbb8e8cee42f4b50bea8b9d4332e83cbe252df6981c",
      "assetIds": [
        "55464657044963196816950587289035428064568320970692304673817341489687891546112",
        "55464657044963196816950587289035428064568320970692304673817341489687891546113",
        "55464657044963196816950587289035428064568320970692304673817341489687899934720",
        "55464657044963196816950587289035428064568320970692304673817341489687899934721",
        "55464657044963196816950587289035428064568320970692304673817341489687908321280"
      ]
    },
    {
      "x": 65,
      "y": 371,
      "size": 1,
      "price": "1011000000000000000000",
      "reserved": "",
      "salt": "0x7fc5e2bec0730676d636dd309a7d667206f36319241848cf7cbd9c2f6ef5b54c",
      "assetIds": []
    },
    {
      "x": 65,
      "y": 372,
      "size": 1,
      "price": "1011000000000000000000",
      "reserved": "",
      "salt": "0x4427aaae91a6d25c0ae1255cbbd1cf8b3caf3238b0a6af632bec660304b1a3b1",
      "assetIds": []
    },
    {
      "x": 65,
      "y": 373,
      "size": 1,
      "price": "1011000000000000000000",
      "reserved": "",
      "salt": "0x38778872cd6ddde2dcc9c8a31a1ec55fcd820021602b5a9d1ccba553211b4388",
      "assetIds": []
    },
    {
      "x": 65,
      "y": 374,
      "size": 1,
      "price": "1011000000000000000000",
      "reserved": "",
      "salt": "0xa113fa5e2155aafe2dd15565d6bfce6e8a5c5c26e7eec21a4348921c90419837",
      "assetIds": []
    },
    {
      "x": 65,
      "y": 375,
      "size": 1,
      "price": "1011000000000000000000",
      "reserved": "",
      "salt": "0xe99b7bca46fd748a3b27255f945d938899af4b9f5310fe17c27ae0c347bab53d",
      "assetIds": []
    },
    {
      "x": 65,
      "y": 376,
      "size": 1,
      "price": "4683000000000000000000",
      "reserved": "",
      "salt": "0xde537e7f6d4fc34697cbd3410443f5290ebea94a9d0359c88312a868fb6c7b69",
      "assetIds": [
        "55464657044963196816950587289035428064568320970692304673817341489687891546112",
        "55464657044963196816950587289035428064568320970692304673817341489687891546113",
        "55464657044963196816950587289035428064568320970692304673817341489687899934720",
        "55464657044963196816950587289035428064568320970692304673817341489687899934721",
        "55464657044963196816950587289035428064568320970692304673817341489687908321280"
      ]
    },
    {
      "x": 65,
      "y": 377,
      "size": 1,
      "price": "4683000000000000000000",
      "reserved": "",
      "salt": "0x65532c3ab10c79e3f7c2a4dbe99efb057346ee547cad9b480938ac5e61d21d46",
      "assetIds": [
        "55464657044963196816950587289035428064568320970692304673817341489687891546112",
        "55464657044963196816950587289035428064568320970692304673817341489687891546113",
        "55464657044963196816950587289035428064568320970692304673817341489687899934720",
        "55464657044963196816950587289035428064568320970692304673817341489687899934721",
        "55464657044963196816950587289035428064568320970692304673817341489687908321280"
      ]
    },
    {
      "x": 65,
      "y": 384,
      "size": 1,
      "price": "4683000000000000000000",
      "reserved": "",
      "salt": "0x558d8517db39410166ea7b83ebca392ecabfb0d1b15712d22d406a5db3d8262c",
      "assetIds": [
        "55464657044963196816950587289035428064568320970692304673817341489687891546112",
        "55464657044963196816950587289035428064568320970692304673817341489687891546113",
        "55464657044963196816950587289035428064568320970692304673817341489687899934720",
        "55464657044963196816950587289035428064568320970692304673817341489687899934721",
        "55464657044963196816950587289035428064568320970692304673817341489687908321280"
      ]
    },
    {
      "x": 65,
      "y": 385,
      "size": 1,
      "price": "4683000000000000000000",
      "reserved": "",
      "salt": "0x7a832f1853eeeceb5fdbb7d83a27e425f22bf6e22b6df0f780dc9c0fbf11313d",
      "assetIds": [
        "55464657044963196816950587289035428064568320970692304673817341489687891546112",
        "55464657044963196816950587289035428064568320970692304673817341489687891546113",
        "55464657044963196816950587289035428064568320970692304673817341489687899934720",
        "55464657044963196816950587289035428064568320970692304673817341489687899934721",
        "55464657044963196816950587289035428064568320970692304673817341489687908321280"
      ]
    },
    {
      "x": 65,
      "y": 386,
      "size": 1,
      "price": "1011000000000000000000",
      "reserved": "",
      "salt": "0x08b147a1b9871f635ac897e22dff59ca4959d3d7b851c4ac651cc615e616517e",
      "assetIds": []
    },
    {
      "x": 65,
      "y": 387,
      "size": 1,
      "price": "1011000000000000000000",
      "reserved": "",
      "salt": "0x347254b60d220a30e87065c95b40e0b18cb56b0a99c0a7a71c33dc442d5035a4",
      "assetIds": []
    },
    {
      "x": 65,
      "y": 388,
      "size": 1,
      "price": "1011000000000000000000",
      "reserved": "",
      "salt": "0x18766572a1ec90bf543340339979c6a3e206243957b80a670caeb34abd784b86",
      "assetIds": []
    },
    {
      "x": 65,
      "y": 389,
      "size": 1,
      "price": "1011000000000000000000",
      "reserved": "",
      "salt": "0xa7edbdd15fe349200bdb9b895d6d4c447f65d359fb519eed7f0bf4fc30d208f7",
      "assetIds": []
    },
    {
      "x": 65,
      "y": 396,
      "size": 1,
      "price": "4683000000000000000000",
      "reserved": "",
      "salt": "0x9531d0e9943f899275f0423baced1e1a39b0415f3249c1f7c61b3ca53198597b",
      "assetIds": [
        "55464657044963196816950587289035428064568320970692304673817341489687891546112",
        "55464657044963196816950587289035428064568320970692304673817341489687891546113",
        "55464657044963196816950587289035428064568320970692304673817341489687899934720",
        "55464657044963196816950587289035428064568320970692304673817341489687899934721",
        "55464657044963196816950587289035428064568320970692304673817341489687908321280"
      ]
    },
    {
      "x": 65,
      "y": 397,
      "size": 1,
      "price": "4683000000000000000000",
      "reserved": "",
      "salt": "0xfae512d77851264d00aeec0c4a393a07eff56e8de8a9170464d837b71135fa4c",
      "assetIds": [
        "55464657044963196816950587289035428064568320970692304673817341489687891546112",
        "55464657044963196816950587289035428064568320970692304673817341489687891546113",
        "55464657044963196816950587289035428064568320970692304673817341489687899934720",
        "55464657044963196816950587289035428064568320970692304673817341489687899934721",
        "55464657044963196816950587289035428064568320970692304673817341489687908321280"
      ]
    },
    {
      "x": 65,
      "y": 398,
      "size": 1,
      "price": "4683000000000000000000",
      "reserved": "",
      "salt": "0x60501a8949e2811dabf2b7476e049732e1a7bab63e0a51a1a6d89a0596eb6e54",
      "assetIds": [
        "55464657044963196816950587289035428064568320970692304673817341489687891546112",
        "55464657044963196816950587289035428064568320970692304673817341489687891546113",
        "55464657044963196816950587289035428064568320970692304673817341489687899934720",
        "55464657044963196816950587289035428064568320970692304673817341489687899934721",
        "55464657044963196816950587289035428064568320970692304673817341489687908321280"
      ]
    },
    {
      "x": 65,
      "y": 399,
      "size": 1,
      "price": "4683000000000000000000",
      "reserved": "",
      "salt": "0x4a5a56446e0ee170c78b8fd6b1f2ff080e0c8ff4397cd92dcdb3bdfa1b90c806",
      "assetIds": [
        "55464657044963196816950587289035428064568320970692304673817341489687891546112",
        "55464657044963196816950587289035428064568320970692304673817341489687891546113",
        "55464657044963196816950587289035428064568320970692304673817341489687899934720",
        "55464657044963196816950587289035428064568320970692304673817341489687899934721",
        "55464657044963196816950587289035428064568320970692304673817341489687908321280"
      ]
    },
    {
      "x": 65,
      "y": 400,
      "size": 1,
      "price": "4683000000000000000000",
      "reserved": "",
      "salt": "0xa99d1b95911abd887ee2d4bb2a71c9ee0ec6c1b58a8871e4f55ac22806b6deba",
      "assetIds": [
        "55464657044963196816950587289035428064568320970692304673817341489687891546112",
        "55464657044963196816950587289035428064568320970692304673817341489687891546113",
        "55464657044963196816950587289035428064568320970692304673817341489687899934720",
        "55464657044963196816950587289035428064568320970692304673817341489687899934721",
        "55464657044963196816950587289035428064568320970692304673817341489687908321280"
      ]
    },
    {
      "x": 65,
      "y": 401,
      "size": 1,
      "price": "4683000000000000000000",
      "reserved": "",
      "salt": "0xa189d74cdd85f7b5a063cae435990f5490eacfb0170302bbd07328721e35f191",
      "assetIds": [
        "55464657044963196816950587289035428064568320970692304673817341489687891546112",
        "55464657044963196816950587289035428064568320970692304673817341489687891546113",
        "55464657044963196816950587289035428064568320970692304673817341489687899934720",
        "55464657044963196816950587289035428064568320970692304673817341489687899934721",
        "55464657044963196816950587289035428064568320970692304673817341489687908321280"
      ]
    },
    {
      "x": 65,
      "y": 402,
      "size": 1,
      "price": "1011000000000000000000",
      "reserved": "0x7a9fe22691c811ea339d9b73150e6911a5343dca",
      "salt": "0x17e79a92490008299c5d79920f61b07d6b3f0dccfba823cf1cdb68210428a386",
      "assetIds": []
    },
    {
      "x": 65,
      "y": 403,
      "size": 1,
      "price": "1011000000000000000000",
      "reserved": "",
      "salt": "0x54a1ce0d9542dc1fc8a1d00b00ba9b9de6673a86392bdb8c55512db922b55b4a",
      "assetIds": []
    },
    {
      "x": 65,
      "y": 404,
      "size": 1,
      "price": "1011000000000000000000",
      "reserved": "",
      "salt": "0x3464d79db01e93968ff661a6be4f1d71170cfb873705e2a6b85c5300549dddb1",
      "assetIds": []
    },
    {
      "x": 65,
      "y": 405,
      "size": 1,
      "price": "1011000000000000000000",
      "reserved": "",
      "salt": "0xd8d173a76911fdb417d30c4c0539e3142a149cea3f9251438073a679fcb451d6",
      "assetIds": []
    },
    {
      "x": 65,
      "y": 406,
      "size": 1,
      "price": "1011000000000000000000",
      "reserved": "",
      "salt": "0x70abbf3e7bd338164b04980a7a13665fb4a5a12f901838ea5aac465ac5a47578",
      "assetIds": []
    },
    {
      "x": 65,
      "y": 407,
      "size": 1,
      "price": "1011000000000000000000",
      "reserved": "",
      "salt": "0x63cbe8cf1343c18963ab7b406d65357a67dd702b5ec635523a9cf3c9380b3d3d",
      "assetIds": []
    },
    {
      "x": 66,
      "y": 356,
      "size": 1,
      "price": "1011000000000000000000",
      "reserved": "",
      "salt": "0x84a44e488af64215cc2e396c5a082256e338b1b50ae7300a87c94c9b2b95af22",
      "assetIds": []
    },
    {
      "x": 66,
      "y": 357,
      "size": 1,
      "price": "1011000000000000000000",
      "reserved": "",
      "salt": "0x83b47e6085bf710ff19511dd77ecdd0077db4316a13f21a58aa096615d50dd61",
      "assetIds": []
    },
    {
      "x": 66,
      "y": 358,
      "size": 1,
      "price": "1011000000000000000000",
      "reserved": "",
      "salt": "0xce7da7df79e6b7ebfb100a38edd0c567df6c929cbbe7bb6c6efcbfc039a31c4b",
      "assetIds": []
    },
    {
      "x": 66,
      "y": 359,
      "size": 1,
      "price": "1011000000000000000000",
      "reserved": "",
      "salt": "0x7ff2a274b772facf060a18d5f4265b811a220863afe067951530c3a8cb969aed",
      "assetIds": []
    },
    {
      "x": 66,
      "y": 360,
      "size": 1,
      "price": "1011000000000000000000",
      "reserved": "",
      "salt": "0x0b57376fbe95201f141a31c811753eabaa8903a8c0f256c5b7de86c431054207",
      "assetIds": []
    },
    {
      "x": 66,
      "y": 361,
      "size": 1,
      "price": "1011000000000000000000",
      "reserved": "",
      "salt": "0xf645a90fd01a305826de13c603cf9e60d0f367825d12963fe069954b562e28fe",
      "assetIds": []
    },
    {
      "x": 66,
      "y": 362,
      "size": 1,
      "price": "1011000000000000000000",
      "reserved": "",
      "salt": "0x48532cb25fa3e41087ef19bc9b1e788c5a1c1ab6e6b5e53a5d0509f3dfa6ade0",
      "assetIds": []
    },
    {
      "x": 66,
      "y": 363,
      "size": 1,
      "price": "1011000000000000000000",
      "reserved": "",
      "salt": "0x93e7500d8d45877b19c22849ec02e520b0564816b071a5af192e56eccd1a9086",
      "assetIds": []
    },
    {
      "x": 66,
      "y": 364,
      "size": 1,
      "price": "1011000000000000000000",
      "reserved": "",
      "salt": "0x07b3db12471ec0ce6e76e09c1d2c4170ad6f0587196ab8d255c7b2acaf28eeac",
      "assetIds": []
    },
    {
      "x": 66,
      "y": 365,
      "size": 1,
      "price": "4683000000000000000000",
      "reserved": "",
      "salt": "0xf67c6ecd079933cf435071b4870ae4900e92795898a5a7f228434108c193c299",
      "assetIds": [
        "55464657044963196816950587289035428064568320970692304673817341489687891546112",
        "55464657044963196816950587289035428064568320970692304673817341489687891546113",
        "55464657044963196816950587289035428064568320970692304673817341489687899934720",
        "55464657044963196816950587289035428064568320970692304673817341489687899934721",
        "55464657044963196816950587289035428064568320970692304673817341489687908321280"
      ]
    },
    {
      "x": 66,
      "y": 366,
      "size": 1,
      "price": "4683000000000000000000",
      "reserved": "",
      "salt": "0x1dd5bd9e0f6e448a920e4cf740222c2833c0dbd9cbe8c8306900e6fbd68a1233",
      "assetIds": [
        "55464657044963196816950587289035428064568320970692304673817341489687891546112",
        "55464657044963196816950587289035428064568320970692304673817341489687891546113",
        "55464657044963196816950587289035428064568320970692304673817341489687899934720",
        "55464657044963196816950587289035428064568320970692304673817341489687899934721",
        "55464657044963196816950587289035428064568320970692304673817341489687908321280"
      ]
    },
    {
      "x": 66,
      "y": 367,
      "size": 1,
      "price": "4683000000000000000000",
      "reserved": "",
      "salt": "0xc3af09be42ba5eed82fd5010d75e2dd5fb76a8ccea6b5fa07d103bf47226ee87",
      "assetIds": [
        "55464657044963196816950587289035428064568320970692304673817341489687891546112",
        "55464657044963196816950587289035428064568320970692304673817341489687891546113",
        "55464657044963196816950587289035428064568320970692304673817341489687899934720",
        "55464657044963196816950587289035428064568320970692304673817341489687899934721",
        "55464657044963196816950587289035428064568320970692304673817341489687908321280"
      ]
    },
    {
      "x": 66,
      "y": 368,
      "size": 1,
      "price": "4683000000000000000000",
      "reserved": "",
      "salt": "0xed272de11f80c844df50f590526cd07e2b98260012469b1501880f7657c481cd",
      "assetIds": [
        "55464657044963196816950587289035428064568320970692304673817341489687891546112",
        "55464657044963196816950587289035428064568320970692304673817341489687891546113",
        "55464657044963196816950587289035428064568320970692304673817341489687899934720",
        "55464657044963196816950587289035428064568320970692304673817341489687899934721",
        "55464657044963196816950587289035428064568320970692304673817341489687908321280"
      ]
    },
    {
      "x": 66,
      "y": 369,
      "size": 1,
      "price": "4683000000000000000000",
      "reserved": "",
      "salt": "0xc20cb368b3baf968afdf2748730736481ac74d7d45c40c88047c46e2ef981b80",
      "assetIds": [
        "55464657044963196816950587289035428064568320970692304673817341489687891546112",
        "55464657044963196816950587289035428064568320970692304673817341489687891546113",
        "55464657044963196816950587289035428064568320970692304673817341489687899934720",
        "55464657044963196816950587289035428064568320970692304673817341489687899934721",
        "55464657044963196816950587289035428064568320970692304673817341489687908321280"
      ]
    },
    {
      "x": 66,
      "y": 370,
      "size": 1,
      "price": "4683000000000000000000",
      "reserved": "",
      "salt": "0x7f8664987e201799c7f36ef86e86fb842a3eeb778da7a59858f4b8c341edca34",
      "assetIds": [
        "55464657044963196816950587289035428064568320970692304673817341489687891546112",
        "55464657044963196816950587289035428064568320970692304673817341489687891546113",
        "55464657044963196816950587289035428064568320970692304673817341489687899934720",
        "55464657044963196816950587289035428064568320970692304673817341489687899934721",
        "55464657044963196816950587289035428064568320970692304673817341489687908321280"
      ]
    },
    {
      "x": 66,
      "y": 371,
      "size": 1,
      "price": "1011000000000000000000",
      "reserved": "",
      "salt": "0xcf73346b20452c48ea6946dfc9dc931d66526481f9f1e6ae987ab972dd0bd87b",
      "assetIds": []
    },
    {
      "x": 66,
      "y": 372,
      "size": 1,
      "price": "1011000000000000000000",
      "reserved": "",
      "salt": "0x308ca44cf02811130cb35ddf8d0c22ea8ade889ecc1c3a1da0007dd6ebf6be34",
      "assetIds": []
    },
    {
      "x": 66,
      "y": 373,
      "size": 1,
      "price": "1011000000000000000000",
      "reserved": "",
      "salt": "0x93c195393718d0ba59c0ed509161fdf7882dbc5b076ba48a47fe9992070e0229",
      "assetIds": []
    },
    {
      "x": 66,
      "y": 374,
      "size": 1,
      "price": "1011000000000000000000",
      "reserved": "",
      "salt": "0x64224e55dd1e086d046092ca9f43dfa5143c287b82e165054f5093efdde942ba",
      "assetIds": []
    },
    {
      "x": 66,
      "y": 375,
      "size": 1,
      "price": "1011000000000000000000",
      "reserved": "",
      "salt": "0x4ee6e0527cc79c49b2a0dba939cc0c0f9a38df030cacb256ddc7ae1d2b870fee",
      "assetIds": []
    },
    {
      "x": 66,
      "y": 376,
      "size": 1,
      "price": "4683000000000000000000",
      "reserved": "",
      "salt": "0x317af7b4ab9e560094199e294d677c4cafdf7e37e0a17708ae1c164ff3a7c4fb",
      "assetIds": [
        "55464657044963196816950587289035428064568320970692304673817341489687891546112",
        "55464657044963196816950587289035428064568320970692304673817341489687891546113",
        "55464657044963196816950587289035428064568320970692304673817341489687899934720",
        "55464657044963196816950587289035428064568320970692304673817341489687899934721",
        "55464657044963196816950587289035428064568320970692304673817341489687908321280"
      ]
    },
    {
      "x": 66,
      "y": 377,
      "size": 1,
      "price": "4683000000000000000000",
      "reserved": "",
      "salt": "0xfc425f1068f2500e38daee66548e1c910291bf794f08d87051a4abedf3890af3",
      "assetIds": [
        "55464657044963196816950587289035428064568320970692304673817341489687891546112",
        "55464657044963196816950587289035428064568320970692304673817341489687891546113",
        "55464657044963196816950587289035428064568320970692304673817341489687899934720",
        "55464657044963196816950587289035428064568320970692304673817341489687899934721",
        "55464657044963196816950587289035428064568320970692304673817341489687908321280"
      ]
    },
    {
      "x": 66,
      "y": 378,
      "size": 1,
      "price": "4683000000000000000000",
      "reserved": "",
      "salt": "0xc08eb264a521ece076b1cc7f59121b8b43b869d176a32dd8d606c3ad12ce6325",
      "assetIds": [
        "55464657044963196816950587289035428064568320970692304673817341489687891546112",
        "55464657044963196816950587289035428064568320970692304673817341489687891546113",
        "55464657044963196816950587289035428064568320970692304673817341489687899934720",
        "55464657044963196816950587289035428064568320970692304673817341489687899934721",
        "55464657044963196816950587289035428064568320970692304673817341489687908321280"
      ]
    },
    {
      "x": 66,
      "y": 379,
      "size": 1,
      "price": "4683000000000000000000",
      "reserved": "",
      "salt": "0x4d02d6856244f2f6839bdd3e90ad467a4c76d7db0a13bba569477e29781e7b31",
      "assetIds": [
        "55464657044963196816950587289035428064568320970692304673817341489687891546112",
        "55464657044963196816950587289035428064568320970692304673817341489687891546113",
        "55464657044963196816950587289035428064568320970692304673817341489687899934720",
        "55464657044963196816950587289035428064568320970692304673817341489687899934721",
        "55464657044963196816950587289035428064568320970692304673817341489687908321280"
      ]
    },
    {
      "x": 66,
      "y": 380,
      "size": 1,
      "price": "1011000000000000000000",
      "reserved": "0x7a9fe22691c811ea339d9b73150e6911a5343dca",
      "salt": "0x21b3d39e4190881a16cdee1c025f9a1843c33b97e6cf31a67247a668049ca1e4",
      "assetIds": []
    },
    {
      "x": 66,
      "y": 381,
      "size": 1,
      "price": "4683000000000000000000",
      "reserved": "",
      "salt": "0x4022d6a05aeceebc2aefbdf9d6c74bcefbcdea5c0902325c7bdfd247277a434e",
      "assetIds": [
        "55464657044963196816950587289035428064568320970692304673817341489687891546112",
        "55464657044963196816950587289035428064568320970692304673817341489687891546113",
        "55464657044963196816950587289035428064568320970692304673817341489687899934720",
        "55464657044963196816950587289035428064568320970692304673817341489687899934721",
        "55464657044963196816950587289035428064568320970692304673817341489687908321280"
      ]
    },
    {
      "x": 66,
      "y": 382,
      "size": 1,
      "price": "4683000000000000000000",
      "reserved": "",
      "salt": "0x531a044c5a026b2ed1f7abd59e33c78de97718fc890ab3ccd13d058ca4cb1c7c",
      "assetIds": [
        "55464657044963196816950587289035428064568320970692304673817341489687891546112",
        "55464657044963196816950587289035428064568320970692304673817341489687891546113",
        "55464657044963196816950587289035428064568320970692304673817341489687899934720",
        "55464657044963196816950587289035428064568320970692304673817341489687899934721",
        "55464657044963196816950587289035428064568320970692304673817341489687908321280"
      ]
    },
    {
      "x": 66,
      "y": 383,
      "size": 1,
      "price": "4683000000000000000000",
      "reserved": "",
      "salt": "0x7c603ef9767d8393a28907aa2788ad3a9254ff14fd1861a7da0239d3113f67ea",
      "assetIds": [
        "55464657044963196816950587289035428064568320970692304673817341489687891546112",
        "55464657044963196816950587289035428064568320970692304673817341489687891546113",
        "55464657044963196816950587289035428064568320970692304673817341489687899934720",
        "55464657044963196816950587289035428064568320970692304673817341489687899934721",
        "55464657044963196816950587289035428064568320970692304673817341489687908321280"
      ]
    },
    {
      "x": 66,
      "y": 384,
      "size": 1,
      "price": "4683000000000000000000",
      "reserved": "",
      "salt": "0x34169680922ad8b823ff131adbc429494560acd9dc45f9fade78872c07ed224a",
      "assetIds": [
        "55464657044963196816950587289035428064568320970692304673817341489687891546112",
        "55464657044963196816950587289035428064568320970692304673817341489687891546113",
        "55464657044963196816950587289035428064568320970692304673817341489687899934720",
        "55464657044963196816950587289035428064568320970692304673817341489687899934721",
        "55464657044963196816950587289035428064568320970692304673817341489687908321280"
      ]
    },
    {
      "x": 66,
      "y": 385,
      "size": 1,
      "price": "1011000000000000000000",
      "reserved": "0x7a9fe22691c811ea339d9b73150e6911a5343dca",
      "salt": "0xa1425e8724cfeebeb36637ec63fc419e0c8d4b132b00b60ef4ba2cc84396555a",
      "assetIds": []
    },
    {
      "x": 66,
      "y": 386,
      "size": 1,
      "price": "1011000000000000000000",
      "reserved": "",
      "salt": "0x493c6918ad6116be1dd144fcd765c32f8c093ebbb0aac9d8e72097959fa40520",
      "assetIds": []
    },
    {
      "x": 66,
      "y": 387,
      "size": 1,
      "price": "1011000000000000000000",
      "reserved": "",
      "salt": "0x8bd8b905430129a4bd43c281946b5ab85e91497b4a22f4539b7315ef98097b96",
      "assetIds": []
    },
    {
      "x": 66,
      "y": 388,
      "size": 1,
      "price": "1011000000000000000000",
      "reserved": "",
      "salt": "0x41a590ce631987d3e0deb54b4b7ac105d31841417385be9f082fb563a98765f0",
      "assetIds": []
    },
    {
      "x": 66,
      "y": 389,
      "size": 1,
      "price": "1011000000000000000000",
      "reserved": "",
      "salt": "0x1f035b7ecff82eeda8633226a5706665e1ff23efba67bde628c938327f5e30dd",
      "assetIds": []
    },
    {
      "x": 66,
      "y": 390,
      "size": 1,
      "price": "1011000000000000000000",
      "reserved": "",
      "salt": "0x2a8967a878eaf7506624fbd80cbf43e874581efb9d541c5c51087c6460ccfe0e",
      "assetIds": []
    },
    {
      "x": 66,
      "y": 391,
      "size": 1,
      "price": "1011000000000000000000",
      "reserved": "",
      "salt": "0x20c83a35e1935b037d8b6c2c17d4e1d7afb45e828a988abe75804a733a0d26e5",
      "assetIds": []
    },
    {
      "x": 66,
      "y": 392,
      "size": 1,
      "price": "1011000000000000000000",
      "reserved": "",
      "salt": "0xbf2a6a2a38f69137695a649054d554f83ca96d6ecfa50d84a7a6671ff49a545c",
      "assetIds": []
    },
    {
      "x": 66,
      "y": 393,
      "size": 1,
      "price": "1011000000000000000000",
      "reserved": "",
      "salt": "0xad4dad7b23083b8a31e591eb75cf1b6256b5f3f4bf1714fe3922a4d3cea6932c",
      "assetIds": []
    },
    {
      "x": 66,
      "y": 394,
      "size": 1,
      "price": "4683000000000000000000",
      "reserved": "",
      "salt": "0x51dbe2aafa34dd11799abd090d93fe949fa663db12f74faced27d20059190f81",
      "assetIds": [
        "55464657044963196816950587289035428064568320970692304673817341489687891546112",
        "55464657044963196816950587289035428064568320970692304673817341489687891546113",
        "55464657044963196816950587289035428064568320970692304673817341489687899934720",
        "55464657044963196816950587289035428064568320970692304673817341489687899934721",
        "55464657044963196816950587289035428064568320970692304673817341489687908321280"
      ]
    },
    {
      "x": 66,
      "y": 395,
      "size": 1,
      "price": "4683000000000000000000",
      "reserved": "",
      "salt": "0xc8f5048f22412d8d1f754d15e9d73b92e46a365620fb0bf96179721e82eec393",
      "assetIds": [
        "55464657044963196816950587289035428064568320970692304673817341489687891546112",
        "55464657044963196816950587289035428064568320970692304673817341489687891546113",
        "55464657044963196816950587289035428064568320970692304673817341489687899934720",
        "55464657044963196816950587289035428064568320970692304673817341489687899934721",
        "55464657044963196816950587289035428064568320970692304673817341489687908321280"
      ]
    },
    {
      "x": 66,
      "y": 402,
      "size": 1,
      "price": "4683000000000000000000",
      "reserved": "",
      "salt": "0x6a4343a84fde5508ccf43ce5b71dc96f4546c2ef4799aff293fdbb391be969a9",
      "assetIds": [
        "55464657044963196816950587289035428064568320970692304673817341489687891546112",
        "55464657044963196816950587289035428064568320970692304673817341489687891546113",
        "55464657044963196816950587289035428064568320970692304673817341489687899934720",
        "55464657044963196816950587289035428064568320970692304673817341489687899934721",
        "55464657044963196816950587289035428064568320970692304673817341489687908321280"
      ]
    },
    {
      "x": 66,
      "y": 403,
      "size": 1,
      "price": "1011000000000000000000",
      "reserved": "",
      "salt": "0x2eb7b3c573e95caf1598fe118c33c72b7bb79fdcfe01c50f0faf7231222e53ca",
      "assetIds": []
    },
    {
      "x": 66,
      "y": 404,
      "size": 1,
      "price": "1011000000000000000000",
      "reserved": "",
      "salt": "0x8ef90735c0e2e0fc4b1ae92e493e920ee2265e980550955c12747779b2d8f3ec",
      "assetIds": []
    },
    {
      "x": 67,
      "y": 356,
      "size": 1,
      "price": "1011000000000000000000",
      "reserved": "",
      "salt": "0xb2c1e0d976c42074be5ea61dfc607c51bf445473e4e0688b4c9c4d26b11a9caa",
      "assetIds": []
    },
    {
      "x": 67,
      "y": 357,
      "size": 1,
      "price": "1011000000000000000000",
      "reserved": "",
      "salt": "0x8b7bfb1e2b7fc7e0491d7cfa8643be188b2b10f5503bc4189032cf537d5d011f",
      "assetIds": []
    },
    {
      "x": 67,
      "y": 358,
      "size": 1,
      "price": "1011000000000000000000",
      "reserved": "",
      "salt": "0xe000c2d047815ca7ea124961f2d6007374f5f65a6890fe25f156ce57a855fe67",
      "assetIds": []
    },
    {
      "x": 67,
      "y": 359,
      "size": 1,
      "price": "1011000000000000000000",
      "reserved": "",
      "salt": "0x8d84967447ba8b1857453eb31b8fb15cc955fbba8a43d6e9aacfccf1a4c64705",
      "assetIds": []
    },
    {
      "x": 67,
      "y": 360,
      "size": 1,
      "price": "1011000000000000000000",
      "reserved": "",
      "salt": "0xb53ed8887bb5c0f20da0e2506ef94798c8a468535ce06d486dd3f89569a8b676",
      "assetIds": []
    },
    {
      "x": 67,
      "y": 361,
      "size": 1,
      "price": "1011000000000000000000",
      "reserved": "",
      "salt": "0x642117e5b9ae39946f2000eb04bf7fcf17a0cca21f9840ed042350ebc336e045",
      "assetIds": []
    },
    {
      "x": 67,
      "y": 362,
      "size": 1,
      "price": "1011000000000000000000",
      "reserved": "",
      "salt": "0xf10df8642a87c7f0b4136c160a5dc93953732e3fd397e5f431e4b2e6bba28f5b",
      "assetIds": []
    },
    {
      "x": 67,
      "y": 363,
      "size": 1,
      "price": "1011000000000000000000",
      "reserved": "",
      "salt": "0x70e31a044ca9ee01848d667256fe8f43ef349546a50eb21b6632d38962567c92",
      "assetIds": []
    },
    {
      "x": 67,
      "y": 364,
      "size": 1,
      "price": "1011000000000000000000",
      "reserved": "",
      "salt": "0x597bebde9d6205dae5085f001ad7de2b9355039476f1a34ca4e8c5c01c4864cb",
      "assetIds": []
    },
    {
      "x": 67,
      "y": 365,
      "size": 1,
      "price": "1011000000000000000000",
      "reserved": "0x7a9fe22691c811ea339d9b73150e6911a5343dca",
      "salt": "0x3ce6380b6a36dc3dc1b8ef08827fe59db27cebd2dbbd95007ec9b8b578150985",
      "assetIds": []
    },
    {
      "x": 67,
      "y": 366,
      "size": 1,
      "price": "4683000000000000000000",
      "reserved": "",
      "salt": "0x82f3cbd1eddc09ad2465af1499d374f951f9f3c5ff8ab996100d9ba9fbcb0c08",
      "assetIds": [
        "55464657044963196816950587289035428064568320970692304673817341489687891546112",
        "55464657044963196816950587289035428064568320970692304673817341489687891546113",
        "55464657044963196816950587289035428064568320970692304673817341489687899934720",
        "55464657044963196816950587289035428064568320970692304673817341489687899934721",
        "55464657044963196816950587289035428064568320970692304673817341489687908321280"
      ]
    },
    {
      "x": 67,
      "y": 367,
      "size": 1,
      "price": "4683000000000000000000",
      "reserved": "",
      "salt": "0x1032a1e01af576b00eff05ae16d75f4a7b78fbd08f3e39139cf9509a74a4fefe",
      "assetIds": [
        "55464657044963196816950587289035428064568320970692304673817341489687891546112",
        "55464657044963196816950587289035428064568320970692304673817341489687891546113",
        "55464657044963196816950587289035428064568320970692304673817341489687899934720",
        "55464657044963196816950587289035428064568320970692304673817341489687899934721",
        "55464657044963196816950587289035428064568320970692304673817341489687908321280"
      ]
    },
    {
      "x": 67,
      "y": 368,
      "size": 1,
      "price": "4683000000000000000000",
      "reserved": "",
      "salt": "0x82173284392898e73605eb2df74ddcf7559c31c0ac49ce96a703ec2af3447373",
      "assetIds": [
        "55464657044963196816950587289035428064568320970692304673817341489687891546112",
        "55464657044963196816950587289035428064568320970692304673817341489687891546113",
        "55464657044963196816950587289035428064568320970692304673817341489687899934720",
        "55464657044963196816950587289035428064568320970692304673817341489687899934721",
        "55464657044963196816950587289035428064568320970692304673817341489687908321280"
      ]
    },
    {
      "x": 67,
      "y": 369,
      "size": 1,
      "price": "4683000000000000000000",
      "reserved": "",
      "salt": "0x658789f14ed0eb6c1726858e026b58b72fb6a07ca4a40f3090ccb31f560292bd",
      "assetIds": [
        "55464657044963196816950587289035428064568320970692304673817341489687891546112",
        "55464657044963196816950587289035428064568320970692304673817341489687891546113",
        "55464657044963196816950587289035428064568320970692304673817341489687899934720",
        "55464657044963196816950587289035428064568320970692304673817341489687899934721",
        "55464657044963196816950587289035428064568320970692304673817341489687908321280"
      ]
    },
    {
      "x": 67,
      "y": 370,
      "size": 1,
      "price": "1011000000000000000000",
      "reserved": "0x7a9fe22691c811ea339d9b73150e6911a5343dca",
      "salt": "0x111662bc372cbe80b035127ad4e164df637663ab24c562fc28093f2ec0cb7cbf",
      "assetIds": []
    },
    {
      "x": 67,
      "y": 371,
      "size": 1,
      "price": "1011000000000000000000",
      "reserved": "",
      "salt": "0x8c3c69ab90e78caaa5d6f97e47089f8b1a3adc1fbee64ec872f2b82b70cad408",
      "assetIds": []
    },
    {
      "x": 67,
      "y": 372,
      "size": 1,
      "price": "1011000000000000000000",
      "reserved": "",
      "salt": "0x3aaf614f8302a4c750f56f1e927ae5c94e1217b03ce00104a14f9b90055b16bc",
      "assetIds": []
    },
    {
      "x": 67,
      "y": 373,
      "size": 1,
      "price": "1011000000000000000000",
      "reserved": "",
      "salt": "0x23eeb03f3bf35cce10d25907047e0bf148de8b93d1d43d5a7b452c6dd32bac57",
      "assetIds": []
    },
    {
      "x": 67,
      "y": 374,
      "size": 1,
      "price": "1011000000000000000000",
      "reserved": "",
      "salt": "0x343dde07b7715142e9560f16daff1db240a9aaa7c859a068cf482b11160e3f1d",
      "assetIds": []
    },
    {
      "x": 67,
      "y": 375,
      "size": 1,
      "price": "1011000000000000000000",
      "reserved": "",
      "salt": "0x3f1da00e18607c324592c03ecd0258794973edfab5954e3734f62d49c14432ee",
      "assetIds": []
    },
    {
      "x": 67,
      "y": 376,
      "size": 1,
      "price": "1011000000000000000000",
      "reserved": "",
      "salt": "0xf19313d2673e6509a8bb6980e8659c290557b03f1586f87f92643073bd9ba768",
      "assetIds": []
    },
    {
      "x": 67,
      "y": 377,
      "size": 1,
      "price": "4683000000000000000000",
      "reserved": "",
      "salt": "0x060aa96a0d515fabbab8fb2c834875e39583716019938bdfec916e5a42b1aab8",
      "assetIds": [
        "55464657044963196816950587289035428064568320970692304673817341489687891546112",
        "55464657044963196816950587289035428064568320970692304673817341489687891546113",
        "55464657044963196816950587289035428064568320970692304673817341489687899934720",
        "55464657044963196816950587289035428064568320970692304673817341489687899934721",
        "55464657044963196816950587289035428064568320970692304673817341489687908321280"
      ]
    },
    {
      "x": 67,
      "y": 378,
      "size": 1,
      "price": "1011000000000000000000",
      "reserved": "",
      "salt": "0xbee5c960e4fea2f7484e2fe996752aaf9a21038687a4b7c05f06ae6d26322bed",
      "assetIds": []
    },
    {
      "x": 67,
      "y": 379,
      "size": 1,
      "price": "1011000000000000000000",
      "reserved": "0x7a9fe22691c811ea339d9b73150e6911a5343dca",
      "salt": "0x79aa0ea541ce0e6e71b475dd20fb12ecd5fb2ded279dad83529b51ad9af669da",
      "assetIds": []
    },
    {
      "x": 67,
      "y": 380,
      "size": 1,
      "price": "4683000000000000000000",
      "reserved": "",
      "salt": "0x65846edf3242a42b8acebf4d7090b2698eb172a22525d8bd332b3579e9825d4e",
      "assetIds": [
        "55464657044963196816950587289035428064568320970692304673817341489687891546112",
        "55464657044963196816950587289035428064568320970692304673817341489687891546113",
        "55464657044963196816950587289035428064568320970692304673817341489687899934720",
        "55464657044963196816950587289035428064568320970692304673817341489687899934721",
        "55464657044963196816950587289035428064568320970692304673817341489687908321280"
      ]
    },
    {
      "x": 67,
      "y": 381,
      "size": 1,
      "price": "4683000000000000000000",
      "reserved": "",
      "salt": "0x98e3c7e32d95cb240310390c05d84d143288ee59256e375e1a9b6b812a13ea33",
      "assetIds": [
        "55464657044963196816950587289035428064568320970692304673817341489687891546112",
        "55464657044963196816950587289035428064568320970692304673817341489687891546113",
        "55464657044963196816950587289035428064568320970692304673817341489687899934720",
        "55464657044963196816950587289035428064568320970692304673817341489687899934721",
        "55464657044963196816950587289035428064568320970692304673817341489687908321280"
      ]
    },
    {
      "x": 67,
      "y": 382,
      "size": 1,
      "price": "1011000000000000000000",
      "reserved": "0x7a9fe22691c811ea339d9b73150e6911a5343dca",
      "salt": "0x70e7ee2fe08ad9d7a76d9df3ce8e9539ea5f256f17c749f9a48dd52f2b559e6a",
      "assetIds": []
    },
    {
      "x": 67,
      "y": 383,
      "size": 1,
      "price": "4683000000000000000000",
      "reserved": "",
      "salt": "0x2c7bbfd0f3f6379d988f13bb2f822774e9a1c0a1612c862faabc7b0f7e472225",
      "assetIds": [
        "55464657044963196816950587289035428064568320970692304673817341489687891546112",
        "55464657044963196816950587289035428064568320970692304673817341489687891546113",
        "55464657044963196816950587289035428064568320970692304673817341489687899934720",
        "55464657044963196816950587289035428064568320970692304673817341489687899934721",
        "55464657044963196816950587289035428064568320970692304673817341489687908321280"
      ]
    },
    {
      "x": 67,
      "y": 384,
      "size": 1,
      "price": "4683000000000000000000",
      "reserved": "",
      "salt": "0x2343e57402395bebd57953e05683f1ce849608f8c4a237257507f8093d86149e",
      "assetIds": [
        "55464657044963196816950587289035428064568320970692304673817341489687891546112",
        "55464657044963196816950587289035428064568320970692304673817341489687891546113",
        "55464657044963196816950587289035428064568320970692304673817341489687899934720",
        "55464657044963196816950587289035428064568320970692304673817341489687899934721",
        "55464657044963196816950587289035428064568320970692304673817341489687908321280"
      ]
    },
    {
      "x": 67,
      "y": 385,
      "size": 1,
      "price": "4683000000000000000000",
      "reserved": "",
      "salt": "0xd222763d26054a757bfb75f3a548994bf3ef49dbfd57c237907791eceb087d6d",
      "assetIds": [
        "55464657044963196816950587289035428064568320970692304673817341489687891546112",
        "55464657044963196816950587289035428064568320970692304673817341489687891546113",
        "55464657044963196816950587289035428064568320970692304673817341489687899934720",
        "55464657044963196816950587289035428064568320970692304673817341489687899934721",
        "55464657044963196816950587289035428064568320970692304673817341489687908321280"
      ]
    },
    {
      "x": 67,
      "y": 386,
      "size": 1,
      "price": "1011000000000000000000",
      "reserved": "",
      "salt": "0x7ee6a598ccbe36ce3b61365d950915d2341295ae1af4bfdd764a0c11422fd8b9",
      "assetIds": []
    },
    {
      "x": 67,
      "y": 387,
      "size": 1,
      "price": "1011000000000000000000",
      "reserved": "",
      "salt": "0x03f41f5ca3b1071d25bceb78db281aca043dfef247b55ba8e2e9ea80a9bfa588",
      "assetIds": []
    },
    {
      "x": 67,
      "y": 388,
      "size": 1,
      "price": "1011000000000000000000",
      "reserved": "",
      "salt": "0xa285868ab3472c3b3c198e922cb75a95fd2e4a19fdc181609fcf5771e7d174e7",
      "assetIds": []
    },
    {
      "x": 67,
      "y": 389,
      "size": 1,
      "price": "1011000000000000000000",
      "reserved": "",
      "salt": "0x9aeab076feae5d8fb25ab6cf5fe36c175b2a899d2654ac3759ce1dd68b62e942",
      "assetIds": []
    },
    {
      "x": 67,
      "y": 390,
      "size": 1,
      "price": "1011000000000000000000",
      "reserved": "",
      "salt": "0xd7b1a39464b849e1102e983954650d409a4802c2bdea89f367a1ee7142ba4635",
      "assetIds": []
    },
    {
      "x": 67,
      "y": 391,
      "size": 1,
      "price": "1011000000000000000000",
      "reserved": "",
      "salt": "0x68658682dfdd5b7ff93d1680bf133216f884471209374a9ac0b066dab6cc6298",
      "assetIds": []
    },
    {
      "x": 67,
      "y": 392,
      "size": 1,
      "price": "1011000000000000000000",
      "reserved": "",
      "salt": "0x6f48aeb0400ac8ad1b2ab59297aaa3c5a211e4696ae746365fecec88421790f1",
      "assetIds": []
    },
    {
      "x": 67,
      "y": 393,
      "size": 1,
      "price": "1011000000000000000000",
      "reserved": "",
      "salt": "0xacc63b504dce5480cb11d936ef357684c55b5b97c3a58228645656515a5f644d",
      "assetIds": []
    },
    {
      "x": 67,
      "y": 394,
      "size": 1,
      "price": "4683000000000000000000",
      "reserved": "",
      "salt": "0xdef0122ce574cef8e5f5fd0d83fb02740f9119daf41e16826a04aacbe5548546",
      "assetIds": [
        "55464657044963196816950587289035428064568320970692304673817341489687891546112",
        "55464657044963196816950587289035428064568320970692304673817341489687891546113",
        "55464657044963196816950587289035428064568320970692304673817341489687899934720",
        "55464657044963196816950587289035428064568320970692304673817341489687899934721",
        "55464657044963196816950587289035428064568320970692304673817341489687908321280"
      ]
    },
    {
      "x": 67,
      "y": 395,
      "size": 1,
      "price": "4683000000000000000000",
      "reserved": "",
      "salt": "0x83ffd7ce127454d0363570289ade10a9edfd7dbdd663e2ff5b7fadca45df87fb",
      "assetIds": [
        "55464657044963196816950587289035428064568320970692304673817341489687891546112",
        "55464657044963196816950587289035428064568320970692304673817341489687891546113",
        "55464657044963196816950587289035428064568320970692304673817341489687899934720",
        "55464657044963196816950587289035428064568320970692304673817341489687899934721",
        "55464657044963196816950587289035428064568320970692304673817341489687908321280"
      ]
    },
    {
      "x": 67,
      "y": 402,
      "size": 1,
      "price": "4683000000000000000000",
      "reserved": "",
      "salt": "0xfd7af6ce92cec9ea52442ba8ebd647b526a724562b88fc86b87dd6eaedd6ff2c",
      "assetIds": [
        "55464657044963196816950587289035428064568320970692304673817341489687891546112",
        "55464657044963196816950587289035428064568320970692304673817341489687891546113",
        "55464657044963196816950587289035428064568320970692304673817341489687899934720",
        "55464657044963196816950587289035428064568320970692304673817341489687899934721",
        "55464657044963196816950587289035428064568320970692304673817341489687908321280"
      ]
    },
    {
      "x": 67,
      "y": 403,
      "size": 1,
      "price": "4683000000000000000000",
      "reserved": "",
      "salt": "0x313dbfaa9e12c9594dbbca8cd5ba4610a86dc450e710e955246c613cc5807d75",
      "assetIds": [
        "55464657044963196816950587289035428064568320970692304673817341489687891546112",
        "55464657044963196816950587289035428064568320970692304673817341489687891546113",
        "55464657044963196816950587289035428064568320970692304673817341489687899934720",
        "55464657044963196816950587289035428064568320970692304673817341489687899934721",
        "55464657044963196816950587289035428064568320970692304673817341489687908321280"
      ]
    },
    {
      "x": 67,
      "y": 404,
      "size": 1,
      "price": "1011000000000000000000",
      "reserved": "",
      "salt": "0xf7a56af3ad7c671e1f891dda0cb425090e934281356cce17496bb41248849972",
      "assetIds": []
    },
    {
      "x": 68,
      "y": 356,
      "size": 1,
      "price": "1011000000000000000000",
      "reserved": "",
      "salt": "0x52312b93ebf99b11ded5ca2e188c4186a8620e836a8b991a91a787017ebb0b9b",
      "assetIds": []
    },
    {
      "x": 68,
      "y": 357,
      "size": 1,
      "price": "1011000000000000000000",
      "reserved": "",
      "salt": "0x3af8e065730347184b303f30e3fe9debcea009add545523be3f63215addfd2f8",
      "assetIds": []
    },
    {
      "x": 68,
      "y": 358,
      "size": 1,
      "price": "1011000000000000000000",
      "reserved": "",
      "salt": "0x1d4b3dd7b6253e5741f902c86dda3c7eec03129b76ecea9fc9f89e8b012da358",
      "assetIds": []
    },
    {
      "x": 68,
      "y": 359,
      "size": 1,
      "price": "1011000000000000000000",
      "reserved": "",
      "salt": "0x7bcce9ad9dd322f169ae93dc34c8f8c7294b516029ae4d1241c5b0375dfcbfd4",
      "assetIds": []
    },
    {
      "x": 68,
      "y": 360,
      "size": 1,
      "price": "1011000000000000000000",
      "reserved": "",
      "salt": "0xd585bb52e17e2fbd5337608119e1b3fc4a50f6ba43e3063b54fa28b9c6365252",
      "assetIds": []
    },
    {
      "x": 68,
      "y": 361,
      "size": 1,
      "price": "1011000000000000000000",
      "reserved": "",
      "salt": "0x5139f0085751202fed1400c64028942917737e6666b3be3fa89ff60ce50e3cfa",
      "assetIds": []
    },
    {
      "x": 68,
      "y": 362,
      "size": 1,
      "price": "1011000000000000000000",
      "reserved": "",
      "salt": "0x9ede8577564d8e87d8f4fb6a37a2fe3de63766c5a06189150bded5e057d19da3",
      "assetIds": []
    },
    {
      "x": 68,
      "y": 363,
      "size": 1,
      "price": "1011000000000000000000",
      "reserved": "",
      "salt": "0xdef65384ba77a17bbef56db27ba46471ed5d42a4c9d3a1f034e630b4aef38d30",
      "assetIds": []
    },
    {
      "x": 68,
      "y": 364,
      "size": 1,
      "price": "1011000000000000000000",
      "reserved": "",
      "salt": "0xa036d6b3c396ce940de9e4ba71a5168478ea37ea3d6c475f026cf9d75f3aba03",
      "assetIds": []
    },
    {
      "x": 68,
      "y": 365,
      "size": 1,
      "price": "1011000000000000000000",
      "reserved": "",
      "salt": "0xedc51ad75f0e6ef732dfb861b902c30c579619af45c4f350e8c8ec7b6117371b",
      "assetIds": []
    },
    {
      "x": 68,
      "y": 366,
      "size": 1,
      "price": "4683000000000000000000",
      "reserved": "",
      "salt": "0x8e93949b90cf933901ccc0b0fc8f4275ddb98e72e67cfa83081a456d72e33638",
      "assetIds": [
        "55464657044963196816950587289035428064568320970692304673817341489687891546112",
        "55464657044963196816950587289035428064568320970692304673817341489687891546113",
        "55464657044963196816950587289035428064568320970692304673817341489687899934720",
        "55464657044963196816950587289035428064568320970692304673817341489687899934721",
        "55464657044963196816950587289035428064568320970692304673817341489687908321280"
      ]
    },
    {
      "x": 68,
      "y": 367,
      "size": 1,
      "price": "1011000000000000000000",
      "reserved": "",
      "salt": "0x851e7e302ea222b14f30974622be0a3e2e109f17f3943e47870bc9c43fe8e705",
      "assetIds": []
    },
    {
      "x": 68,
      "y": 368,
      "size": 1,
      "price": "1011000000000000000000",
      "reserved": "",
      "salt": "0x7dc00dd86790c40f92c2b654ce22d47dc0e12330d3e055d405c4e9da0b1d2788",
      "assetIds": []
    },
    {
      "x": 68,
      "y": 369,
      "size": 1,
      "price": "1011000000000000000000",
      "reserved": "",
      "salt": "0x5aef56f59311b2b505c7b3a432f66e631439da62ab48779d4ffa27e1c631a7a2",
      "assetIds": []
    },
    {
      "x": 68,
      "y": 370,
      "size": 1,
      "price": "1011000000000000000000",
      "reserved": "",
      "salt": "0x32e02767541b29d6ffcdf3e1a17881d335269f7112f77e3e8cf167780d730e65",
      "assetIds": []
    },
    {
      "x": 68,
      "y": 371,
      "size": 1,
      "price": "1011000000000000000000",
      "reserved": "",
      "salt": "0x731939203bffa668d1acd8da66533e8bff5fcdf7fee4aa6ba44173a87ff92bed",
      "assetIds": []
    },
    {
      "x": 68,
      "y": 372,
      "size": 1,
      "price": "1011000000000000000000",
      "reserved": "",
      "salt": "0x26e1b451210ff73e3eb4899cc1d83dbde7c6fa8ab7acc7081c03fc3a6578aae9",
      "assetIds": []
    },
    {
      "x": 68,
      "y": 373,
      "size": 1,
      "price": "1011000000000000000000",
      "reserved": "",
      "salt": "0x23519a79da7acf09e757dc8ddf1ba996a3c344676a7fedcafc80d67060bec4cc",
      "assetIds": []
    },
    {
      "x": 68,
      "y": 374,
      "size": 1,
      "price": "1011000000000000000000",
      "reserved": "",
      "salt": "0x5a67b60dccad0aa78d11c0dfbfa6df86392644a65b3af97fff9304583c677943",
      "assetIds": []
    },
    {
      "x": 68,
      "y": 375,
      "size": 1,
      "price": "1011000000000000000000",
      "reserved": "",
      "salt": "0x5cdf38483b5b6202819c86ef8ec7e0fdbc773315f6760c7af20f58131a12a5ac",
      "assetIds": []
    },
    {
      "x": 68,
      "y": 376,
      "size": 1,
      "price": "1011000000000000000000",
      "reserved": "",
      "salt": "0xf0f00d5e9ecdbf9417c4e279ec54db4c2391fdaf18d8134f03f6a158e4a89b26",
      "assetIds": []
    },
    {
      "x": 68,
      "y": 377,
      "size": 1,
      "price": "1011000000000000000000",
      "reserved": "",
      "salt": "0x19ee29a22c170f144ffc4593ce1bcbf6508707c51fbdf8e03327c9def6503602",
      "assetIds": []
    },
    {
      "x": 68,
      "y": 378,
      "size": 1,
      "price": "1011000000000000000000",
      "reserved": "",
      "salt": "0x1207ff78d221f473fb5211cf2b66a5fb8dd199528f42afcac558d329a6409e51",
      "assetIds": []
    },
    {
      "x": 68,
      "y": 379,
      "size": 1,
      "price": "1011000000000000000000",
      "reserved": "",
      "salt": "0x687fa647c0b155499b01000a356d471075619214ef88783ff0fe5eb902e43e1e",
      "assetIds": []
    },
    {
      "x": 68,
      "y": 380,
      "size": 1,
      "price": "1011000000000000000000",
      "reserved": "",
      "salt": "0x3f9c18be8f0c64463c512f843c79b8194381219aeeda641e8ec0154fed824c8b",
      "assetIds": []
    },
    {
      "x": 68,
      "y": 381,
      "size": 1,
      "price": "1011000000000000000000",
      "reserved": "",
      "salt": "0x7301fd3d868bfc421ce5afd089c105460ceb3287dda6a37b28233c74ca102aec",
      "assetIds": []
    },
    {
      "x": 68,
      "y": 382,
      "size": 1,
      "price": "1011000000000000000000",
      "reserved": "",
      "salt": "0x91916c04b1474963aaac30109503df287be42461e39c875164fabd36e31beb9e",
      "assetIds": []
    },
    {
      "x": 68,
      "y": 383,
      "size": 1,
      "price": "1011000000000000000000",
      "reserved": "",
      "salt": "0xa416ba3476c0f97568e55f2ba429276ed8e45facd763a71503e4d164f658a69e",
      "assetIds": []
    },
    {
      "x": 68,
      "y": 384,
      "size": 1,
      "price": "1011000000000000000000",
      "reserved": "",
      "salt": "0x19cfd46ca8403c897c35b4c22fac7d91a56a0769953c35242ac90127931f0afd",
      "assetIds": []
    },
    {
      "x": 68,
      "y": 385,
      "size": 1,
      "price": "1011000000000000000000",
      "reserved": "",
      "salt": "0x075ef2fc6a1b7724562df5b627de40f7174e6c2f8bacdebf502325bd7df68a03",
      "assetIds": []
    },
    {
      "x": 68,
      "y": 386,
      "size": 1,
      "price": "1011000000000000000000",
      "reserved": "",
      "salt": "0x5f2d42d0427aea74c4e6f7b3ae6adbf36bdabbcd67ea740a5b3c6390b8cff257",
      "assetIds": []
    },
    {
      "x": 68,
      "y": 387,
      "size": 1,
      "price": "1011000000000000000000",
      "reserved": "",
      "salt": "0x085c6144fd413f0a1d584bea54ee39ad509c13d761569770ca60a1b437eab56d",
      "assetIds": []
    },
    {
      "x": 68,
      "y": 388,
      "size": 1,
      "price": "1011000000000000000000",
      "reserved": "",
      "salt": "0x721503ec40706f870b90126e2acc2ff2972c45738a0ae6ea1f6bdf3c363fa8be",
      "assetIds": []
    },
    {
      "x": 68,
      "y": 389,
      "size": 1,
      "price": "1011000000000000000000",
      "reserved": "",
      "salt": "0xfe1f973cacb317ac562ed9f9ff8a45089da74b04097242085c7ef906edb439d9",
      "assetIds": []
    },
    {
      "x": 68,
      "y": 390,
      "size": 1,
      "price": "1011000000000000000000",
      "reserved": "",
      "salt": "0x5bec7a0a90e037d210e4a772a53541fe1f93597c9723b7d0a987aba0c096f595",
      "assetIds": []
    },
    {
      "x": 68,
      "y": 391,
      "size": 1,
      "price": "1011000000000000000000",
      "reserved": "",
      "salt": "0x79ba6f4ccbd819b2fb9e13311629bf8a3b82bbfb5cfe871d68ec3774d9707ca6",
      "assetIds": []
    },
    {
      "x": 68,
      "y": 392,
      "size": 1,
      "price": "1011000000000000000000",
      "reserved": "",
      "salt": "0xba77e37ea8eaeb0f78ddb1cb9315769f38a53d8de0c1916380c7192f460256f2",
      "assetIds": []
    },
    {
      "x": 68,
      "y": 393,
      "size": 1,
      "price": "1011000000000000000000",
      "reserved": "",
      "salt": "0x3f65ac2842570540a517ee8ca92a85d822ecd8bed85e25a95261958c7bb14b1c",
      "assetIds": []
    },
    {
      "x": 68,
      "y": 394,
      "size": 1,
      "price": "4683000000000000000000",
      "reserved": "",
      "salt": "0xef14b2595174438cffbc59dc4af68826cf9c40237210c83beaa9232daacbf2dc",
      "assetIds": [
        "55464657044963196816950587289035428064568320970692304673817341489687891546112",
        "55464657044963196816950587289035428064568320970692304673817341489687891546113",
        "55464657044963196816950587289035428064568320970692304673817341489687899934720",
        "55464657044963196816950587289035428064568320970692304673817341489687899934721",
        "55464657044963196816950587289035428064568320970692304673817341489687908321280"
      ]
    },
    {
      "x": 68,
      "y": 395,
      "size": 1,
      "price": "4683000000000000000000",
      "reserved": "",
      "salt": "0xc357efbacabb93bb0861d5c9ef3fcde5f91452d21a4df0951dca01c3651e6dae",
      "assetIds": [
        "55464657044963196816950587289035428064568320970692304673817341489687891546112",
        "55464657044963196816950587289035428064568320970692304673817341489687891546113",
        "55464657044963196816950587289035428064568320970692304673817341489687899934720",
        "55464657044963196816950587289035428064568320970692304673817341489687899934721",
        "55464657044963196816950587289035428064568320970692304673817341489687908321280"
      ]
    },
    {
      "x": 68,
      "y": 402,
      "size": 1,
      "price": "4683000000000000000000",
      "reserved": "",
      "salt": "0xd0d108bb717e66a72c0e8c37e94a9165dad87c5fda6bf51387d11f78cc43a7e4",
      "assetIds": [
        "55464657044963196816950587289035428064568320970692304673817341489687891546112",
        "55464657044963196816950587289035428064568320970692304673817341489687891546113",
        "55464657044963196816950587289035428064568320970692304673817341489687899934720",
        "55464657044963196816950587289035428064568320970692304673817341489687899934721",
        "55464657044963196816950587289035428064568320970692304673817341489687908321280"
      ]
    },
    {
      "x": 68,
      "y": 403,
      "size": 1,
      "price": "1011000000000000000000",
      "reserved": "0x7a9fe22691c811ea339d9b73150e6911a5343dca",
      "salt": "0x0061dc4b64845748018a658e7bb01a4cec04f2bec0182c27eb9ce70dcb43183e",
      "assetIds": []
    },
    {
      "x": 68,
      "y": 404,
      "size": 1,
      "price": "1011000000000000000000",
      "reserved": "",
      "salt": "0x0255124578b3be771e1fe65c87624dd45aa78dc7b96a4dadf2060414a8f7a2b2",
      "assetIds": []
    },
    {
      "x": 69,
      "y": 356,
      "size": 1,
      "price": "1011000000000000000000",
      "reserved": "",
      "salt": "0xa62292d90e4b989e3b76ac8c8d08671b416988a5dcbff32da88e03867e1e8d42",
      "assetIds": []
    },
    {
      "x": 69,
      "y": 357,
      "size": 1,
      "price": "1011000000000000000000",
      "reserved": "",
      "salt": "0xf83613fe272d574e6fb474ef347878c4b2ca7a595b201306ffe287a1fa984496",
      "assetIds": []
    },
    {
      "x": 69,
      "y": 358,
      "size": 1,
      "price": "1011000000000000000000",
      "reserved": "",
      "salt": "0xc0a8a3881a62cf04d19cdd26faa7777926d78632797ba2ddec842e96e5500214",
      "assetIds": []
    },
    {
      "x": 69,
      "y": 359,
      "size": 1,
      "price": "1011000000000000000000",
      "reserved": "",
      "salt": "0x40a1828402aaa86cd4cfeabf7793b84768becd13a7409b6c6e46a449c11e679a",
      "assetIds": []
    },
    {
      "x": 69,
      "y": 360,
      "size": 1,
      "price": "1011000000000000000000",
      "reserved": "",
      "salt": "0x8adb2fb4eb4f22cc644c94b7e24622ca2871eecfdb8d2d3aa76102d5a77cebe2",
      "assetIds": []
    },
    {
      "x": 69,
      "y": 361,
      "size": 1,
      "price": "1011000000000000000000",
      "reserved": "0x7a9fe22691c811ea339d9b73150e6911a5343dca",
      "salt": "0xf10766223542408e4c7c832d65178af1012497dcd055da8d08bb3acdf2525ff9",
      "assetIds": []
    },
    {
      "x": 69,
      "y": 362,
      "size": 1,
      "price": "1011000000000000000000",
      "reserved": "",
      "salt": "0x69d00c75b97afd13548ec10c6513a950460058d576e2de16cdf12f917372618f",
      "assetIds": []
    },
    {
      "x": 69,
      "y": 363,
      "size": 1,
      "price": "1011000000000000000000",
      "reserved": "",
      "salt": "0x580bc1bee3212b2ca1d74204fc6e447758d18d783e6a6fba2ae77e1c4b32e18f",
      "assetIds": []
    },
    {
      "x": 69,
      "y": 364,
      "size": 1,
      "price": "1011000000000000000000",
      "reserved": "",
      "salt": "0x563fe5eb77d29c9a4db23cc94ac30f280e300d7d25dec32357120e5a5fc7c91e",
      "assetIds": []
    },
    {
      "x": 69,
      "y": 365,
      "size": 1,
      "price": "1011000000000000000000",
      "reserved": "",
      "salt": "0x1fcda51154d809b735e0e7cf66a9565b143a5da14f7dd697691b9e6c54238ad8",
      "assetIds": []
    },
    {
      "x": 69,
      "y": 366,
      "size": 1,
      "price": "1011000000000000000000",
      "reserved": "",
      "salt": "0x6d20578103adeb803c329acadcc3ef09b6baf5cc1c0798e279ee866e396581d5",
      "assetIds": []
    },
    {
      "x": 69,
      "y": 367,
      "size": 1,
      "price": "1011000000000000000000",
      "reserved": "",
      "salt": "0xdc86437bc7ceda2e57fa95ca5fb1459379564e9e814ec5b8230b428807a7ecdd",
      "assetIds": []
    },
    {
      "x": 69,
      "y": 368,
      "size": 1,
      "price": "1011000000000000000000",
      "reserved": "",
      "salt": "0x247dd8f32026aa75c13aed169ac222231a159c2f1bb1196b8c8f6ec54d91ebfe",
      "assetIds": []
    },
    {
      "x": 69,
      "y": 369,
      "size": 1,
      "price": "1011000000000000000000",
      "reserved": "",
      "salt": "0xd70cd18374b04806153886fb527fb4b6a934bddf31b328561f42f46f98bd8237",
      "assetIds": []
    },
    {
      "x": 69,
      "y": 370,
      "size": 1,
      "price": "1011000000000000000000",
      "reserved": "",
      "salt": "0x754010b1a2e4b2aeac014b4f563dd19274fad798c0468950efd4032343e7b64f",
      "assetIds": []
    },
    {
      "x": 69,
      "y": 371,
      "size": 1,
      "price": "1011000000000000000000",
      "reserved": "",
      "salt": "0x3f65bb61fd61b2ad28d1e2ca0e1f6e5466e15fa5a8d4fa783d8927384140fdf4",
      "assetIds": []
    },
    {
      "x": 69,
      "y": 372,
      "size": 1,
      "price": "1011000000000000000000",
      "reserved": "",
      "salt": "0xad0bc52896d42098008fb0996a2150660c7ede1c2a49068abc30c092d3d551e5",
      "assetIds": []
    },
    {
      "x": 69,
      "y": 373,
      "size": 1,
      "price": "4683000000000000000000",
      "reserved": "",
      "salt": "0xbd4379ded954df9596d97f27d9f45c766fd2488715a26304dfbaad4d36829c2c",
      "assetIds": [
        "55464657044963196816950587289035428064568320970692304673817341489687891546112",
        "55464657044963196816950587289035428064568320970692304673817341489687891546113",
        "55464657044963196816950587289035428064568320970692304673817341489687899934720",
        "55464657044963196816950587289035428064568320970692304673817341489687899934721",
        "55464657044963196816950587289035428064568320970692304673817341489687908321280"
      ]
    },
    {
      "x": 69,
      "y": 374,
      "size": 1,
      "price": "4683000000000000000000",
      "reserved": "",
      "salt": "0x058d514764f5b39b2c2a885e8b495d705043c978d1608cd523fe0c65232eedf1",
      "assetIds": [
        "55464657044963196816950587289035428064568320970692304673817341489687891546112",
        "55464657044963196816950587289035428064568320970692304673817341489687891546113",
        "55464657044963196816950587289035428064568320970692304673817341489687899934720",
        "55464657044963196816950587289035428064568320970692304673817341489687899934721",
        "55464657044963196816950587289035428064568320970692304673817341489687908321280"
      ]
    },
    {
      "x": 69,
      "y": 375,
      "size": 1,
      "price": "1011000000000000000000",
      "reserved": "",
      "salt": "0x68529e599533d79e47eb05d18d91f3b3b5a0bdbf4848da063c150e4315d00f18",
      "assetIds": []
    },
    {
      "x": 69,
      "y": 376,
      "size": 1,
      "price": "1011000000000000000000",
      "reserved": "",
      "salt": "0xf3be58bb70b2acccc1dff738b570f444fc7ed89b5c5eff1eaa837421e89fd449",
      "assetIds": []
    },
    {
      "x": 69,
      "y": 377,
      "size": 1,
      "price": "1011000000000000000000",
      "reserved": "",
      "salt": "0x79c5ca2f49906dc3179dfd37d6500fe4956308e12f9a68a6cc244ce3deebec6d",
      "assetIds": []
    },
    {
      "x": 69,
      "y": 378,
      "size": 1,
      "price": "1011000000000000000000",
      "reserved": "",
      "salt": "0x49f551250d4cdd3ccdac5514a34b267d53e50f8bef1e6e27e8f50de7ca414a88",
      "assetIds": []
    },
    {
      "x": 69,
      "y": 379,
      "size": 1,
      "price": "1011000000000000000000",
      "reserved": "",
      "salt": "0x32fb91d2a0b429aa4d0c1c806b9a5348786953b6a02552eeca828284bd27ea19",
      "assetIds": []
    },
    {
      "x": 69,
      "y": 380,
      "size": 1,
      "price": "1011000000000000000000",
      "reserved": "",
      "salt": "0x57fc16b880368ef4e2185a9f6750130a7bfec0679d9dfa2bd0b9ce21cea169f2",
      "assetIds": []
    },
    {
      "x": 69,
      "y": 381,
      "size": 1,
      "price": "1011000000000000000000",
      "reserved": "",
      "salt": "0x5b71fe0acc0e83617bdc4cd8a583f1d1dcea8324d86c4c81ebb47d7a7219a771",
      "assetIds": []
    },
    {
      "x": 69,
      "y": 382,
      "size": 1,
      "price": "1011000000000000000000",
      "reserved": "",
      "salt": "0xdca91e27ac0191667b6b4927e08d3f48cfd94ba783f2cafdbd63631d0d68b56d",
      "assetIds": []
    },
    {
      "x": 69,
      "y": 383,
      "size": 1,
      "price": "1011000000000000000000",
      "reserved": "",
      "salt": "0xb010812f59ad2d645f838b62fd067c3b9c41913e9216ba4e7068015e21a72f8c",
      "assetIds": []
    },
    {
      "x": 69,
      "y": 384,
      "size": 1,
      "price": "1011000000000000000000",
      "reserved": "",
      "salt": "0x812fb14d65dc641f6f8972a3a11601e1664ec27d7e1e2983063e42429bf0ce34",
      "assetIds": []
    },
    {
      "x": 69,
      "y": 385,
      "size": 1,
      "price": "1011000000000000000000",
      "reserved": "",
      "salt": "0x5ea2a304b1df839b6b25b8f2a4eb0479d59cf3bd64a5742fe8948942c6e3a63d",
      "assetIds": []
    },
    {
      "x": 69,
      "y": 386,
      "size": 1,
      "price": "1011000000000000000000",
      "reserved": "",
      "salt": "0x7444d3a597aba0f458c7d4eaf4a595eb02bc862f21605f5846c9a6cd6666b65e",
      "assetIds": []
    },
    {
      "x": 69,
      "y": 387,
      "size": 1,
      "price": "1011000000000000000000",
      "reserved": "",
      "salt": "0xf9fec9ab696c64d8080c55ce07d86f5139ed2a6667befa4b65c332910471d150",
      "assetIds": []
    },
    {
      "x": 69,
      "y": 388,
      "size": 1,
      "price": "1011000000000000000000",
      "reserved": "",
      "salt": "0x7af2e41e60f6e92cf49e19bdda83cf30a4144b1b9a623d14b38c7e62b19b9660",
      "assetIds": []
    },
    {
      "x": 69,
      "y": 389,
      "size": 1,
      "price": "1011000000000000000000",
      "reserved": "",
      "salt": "0x3f6049d4b1932e1d61f9dadec9899c01dab8c1ee61c0eb99559aad8ea547c14c",
      "assetIds": []
    },
    {
      "x": 69,
      "y": 390,
      "size": 1,
      "price": "1011000000000000000000",
      "reserved": "",
      "salt": "0x657bfbebdf832a89216e8f271d19e158e2e4135fc627dd07ec23f307ef76ace1",
      "assetIds": []
    },
    {
      "x": 69,
      "y": 391,
      "size": 1,
      "price": "1011000000000000000000",
      "reserved": "",
      "salt": "0x4151dda9a27b001d1015667773a7fb8f2b92bb7e3bae62952890babcd531e4d7",
      "assetIds": []
    },
    {
      "x": 69,
      "y": 392,
      "size": 1,
      "price": "1011000000000000000000",
      "reserved": "",
      "salt": "0x30dc2e1adbc1c343366162ce282e2ad0b046b2f027285189ad97e4d24e5f4aa5",
      "assetIds": []
    },
    {
      "x": 69,
      "y": 393,
      "size": 1,
      "price": "1011000000000000000000",
      "reserved": "",
      "salt": "0x49f8cbb0c9dd49aca063d5abf24ade59c26eda98c8902f32b49374a932f7e2a5",
      "assetIds": []
    },
    {
      "x": 69,
      "y": 394,
      "size": 1,
      "price": "4683000000000000000000",
      "reserved": "",
      "salt": "0xe9cdfd8c2b0d9c12eac105af0addbf43f59bf212da45bf3141026b750b18e0c9",
      "assetIds": [
        "55464657044963196816950587289035428064568320970692304673817341489687891546112",
        "55464657044963196816950587289035428064568320970692304673817341489687891546113",
        "55464657044963196816950587289035428064568320970692304673817341489687899934720",
        "55464657044963196816950587289035428064568320970692304673817341489687899934721",
        "55464657044963196816950587289035428064568320970692304673817341489687908321280"
      ]
    },
    {
      "x": 69,
      "y": 395,
      "size": 1,
      "price": "4683000000000000000000",
      "reserved": "",
      "salt": "0x34183aab2ee5582da1371d3d9c8d5fb51f21c0f817015d1b2e976c28f9c243a5",
      "assetIds": [
        "55464657044963196816950587289035428064568320970692304673817341489687891546112",
        "55464657044963196816950587289035428064568320970692304673817341489687891546113",
        "55464657044963196816950587289035428064568320970692304673817341489687899934720",
        "55464657044963196816950587289035428064568320970692304673817341489687899934721",
        "55464657044963196816950587289035428064568320970692304673817341489687908321280"
      ]
    },
    {
      "x": 69,
      "y": 402,
      "size": 1,
      "price": "4683000000000000000000",
      "reserved": "",
      "salt": "0xd1f579da5f65f0f8d22ce502e5c05e7cec65aa7d6d317f5d9da2895d2ba3c948",
      "assetIds": [
        "55464657044963196816950587289035428064568320970692304673817341489687891546112",
        "55464657044963196816950587289035428064568320970692304673817341489687891546113",
        "55464657044963196816950587289035428064568320970692304673817341489687899934720",
        "55464657044963196816950587289035428064568320970692304673817341489687899934721",
        "55464657044963196816950587289035428064568320970692304673817341489687908321280"
      ]
    },
    {
      "x": 69,
      "y": 403,
      "size": 1,
      "price": "4683000000000000000000",
      "reserved": "",
      "salt": "0x9bab4212406b5294e624524d0750a623ac20f80fda29ca335b9869c5c38967f2",
      "assetIds": [
        "55464657044963196816950587289035428064568320970692304673817341489687891546112",
        "55464657044963196816950587289035428064568320970692304673817341489687891546113",
        "55464657044963196816950587289035428064568320970692304673817341489687899934720",
        "55464657044963196816950587289035428064568320970692304673817341489687899934721",
        "55464657044963196816950587289035428064568320970692304673817341489687908321280"
      ]
    },
    {
      "x": 69,
      "y": 404,
      "size": 1,
      "price": "1011000000000000000000",
      "reserved": "",
      "salt": "0x1ea2d8fa4a6aa634981b3c6ebd378909024d38d1e016dd82b9997ba4dd67fdeb",
      "assetIds": []
    },
    {
      "x": 69,
      "y": 405,
      "size": 1,
      "price": "1011000000000000000000",
      "reserved": "",
      "salt": "0x331bbc68421078658371494581ab01df54d0b7bda24fe4572a7b7c2d9962084e",
      "assetIds": []
    },
    {
      "x": 69,
      "y": 406,
      "size": 1,
      "price": "1011000000000000000000",
      "reserved": "",
      "salt": "0x629de4e0e56510b7aa7a34e01b2e1c0bd90c726fcbbc62b2dbb856c55cadc018",
      "assetIds": []
    },
    {
      "x": 69,
      "y": 407,
      "size": 1,
      "price": "1011000000000000000000",
      "reserved": "",
      "salt": "0x3ddb493f6af49e815c5aa7ab2b1fe57b4f00d62e1540423b4c133b384259b6b8",
      "assetIds": []
    },
    {
      "x": 70,
      "y": 356,
      "size": 1,
      "price": "1011000000000000000000",
      "reserved": "",
      "salt": "0x958f0df0fa256f70deea7ecaefc8be1c4bec16d422ca3e6ee7b9ebe147b43232",
      "assetIds": []
    },
    {
      "x": 70,
      "y": 357,
      "size": 1,
      "price": "1011000000000000000000",
      "reserved": "",
      "salt": "0x65eade335a12df5bc665375bc1ad99de48e96abaa07f68083eca88009f945b0d",
      "assetIds": []
    },
    {
      "x": 70,
      "y": 358,
      "size": 1,
      "price": "1011000000000000000000",
      "reserved": "",
      "salt": "0x4098acab80a854d81fd70f4846a35ffc0a2f60ba1bbac90dd3bc945d55094b22",
      "assetIds": []
    },
    {
      "x": 70,
      "y": 359,
      "size": 1,
      "price": "1011000000000000000000",
      "reserved": "",
      "salt": "0xc61e1e08981733ab4f3308009c65411b9b2dbe2eab1bb1f052383217070c7563",
      "assetIds": []
    },
    {
      "x": 70,
      "y": 360,
      "size": 1,
      "price": "4683000000000000000000",
      "reserved": "",
      "salt": "0x889c336f4e5e4905060598490aa96dac667e98694596ccf7d022c71d06ec343e",
      "assetIds": [
        "55464657044963196816950587289035428064568320970692304673817341489687891546112",
        "55464657044963196816950587289035428064568320970692304673817341489687891546113",
        "55464657044963196816950587289035428064568320970692304673817341489687899934720",
        "55464657044963196816950587289035428064568320970692304673817341489687899934721",
        "55464657044963196816950587289035428064568320970692304673817341489687908321280"
      ]
    },
    {
      "x": 70,
      "y": 361,
      "size": 1,
      "price": "4683000000000000000000",
      "reserved": "",
      "salt": "0xb1e8584182c728765be4bbd56eb0e311b77f879a42e0b38d86486e73ab671058",
      "assetIds": [
        "55464657044963196816950587289035428064568320970692304673817341489687891546112",
        "55464657044963196816950587289035428064568320970692304673817341489687891546113",
        "55464657044963196816950587289035428064568320970692304673817341489687899934720",
        "55464657044963196816950587289035428064568320970692304673817341489687899934721",
        "55464657044963196816950587289035428064568320970692304673817341489687908321280"
      ]
    },
    {
      "x": 70,
      "y": 362,
      "size": 1,
      "price": "4683000000000000000000",
      "reserved": "",
      "salt": "0x0d6ecaceb6d3a8ddb2c97203f054e3eed3df5de50e00c79407605b0492cddb6c",
      "assetIds": [
        "55464657044963196816950587289035428064568320970692304673817341489687891546112",
        "55464657044963196816950587289035428064568320970692304673817341489687891546113",
        "55464657044963196816950587289035428064568320970692304673817341489687899934720",
        "55464657044963196816950587289035428064568320970692304673817341489687899934721",
        "55464657044963196816950587289035428064568320970692304673817341489687908321280"
      ]
    },
    {
      "x": 70,
      "y": 363,
      "size": 1,
      "price": "4683000000000000000000",
      "reserved": "",
      "salt": "0x9c90d31f88d23f57ea728e53273250fd8ae7f3fcfb0debc8afecd011fe3b3ee8",
      "assetIds": [
        "55464657044963196816950587289035428064568320970692304673817341489687891546112",
        "55464657044963196816950587289035428064568320970692304673817341489687891546113",
        "55464657044963196816950587289035428064568320970692304673817341489687899934720",
        "55464657044963196816950587289035428064568320970692304673817341489687899934721",
        "55464657044963196816950587289035428064568320970692304673817341489687908321280"
      ]
    },
    {
      "x": 70,
      "y": 364,
      "size": 1,
      "price": "1011000000000000000000",
      "reserved": "0x7a9fe22691c811ea339d9b73150e6911a5343dca",
      "salt": "0x9b89a1f4901fdd41a284a87c4211a9e8afc8e83bd79a09f7c435a18e01f8d606",
      "assetIds": []
    },
    {
      "x": 70,
      "y": 365,
      "size": 1,
      "price": "4683000000000000000000",
      "reserved": "",
      "salt": "0xcaae49077431b9c8bd628388a0176f55a86f3b7d51354101a2755ab625af2c21",
      "assetIds": [
        "55464657044963196816950587289035428064568320970692304673817341489687891546112",
        "55464657044963196816950587289035428064568320970692304673817341489687891546113",
        "55464657044963196816950587289035428064568320970692304673817341489687899934720",
        "55464657044963196816950587289035428064568320970692304673817341489687899934721",
        "55464657044963196816950587289035428064568320970692304673817341489687908321280"
      ]
    },
    {
      "x": 70,
      "y": 366,
      "size": 1,
      "price": "4683000000000000000000",
      "reserved": "",
      "salt": "0x48777951539939ba530813d36ca4bbf24420058a747a8de627571e94c3ddf28f",
      "assetIds": [
        "55464657044963196816950587289035428064568320970692304673817341489687891546112",
        "55464657044963196816950587289035428064568320970692304673817341489687891546113",
        "55464657044963196816950587289035428064568320970692304673817341489687899934720",
        "55464657044963196816950587289035428064568320970692304673817341489687899934721",
        "55464657044963196816950587289035428064568320970692304673817341489687908321280"
      ]
    },
    {
      "x": 70,
      "y": 367,
      "size": 1,
      "price": "4683000000000000000000",
      "reserved": "",
      "salt": "0xc33d49c79084d681f6b846d768d5addf4973f844edfef86901fd2e9f66ff206d",
      "assetIds": [
        "55464657044963196816950587289035428064568320970692304673817341489687891546112",
        "55464657044963196816950587289035428064568320970692304673817341489687891546113",
        "55464657044963196816950587289035428064568320970692304673817341489687899934720",
        "55464657044963196816950587289035428064568320970692304673817341489687899934721",
        "55464657044963196816950587289035428064568320970692304673817341489687908321280"
      ]
    },
    {
      "x": 70,
      "y": 368,
      "size": 1,
      "price": "4683000000000000000000",
      "reserved": "",
      "salt": "0x0f93e172e3b2ed4f5bd412aa2ff32cfeac0a33192a465206c0cc4e2226e884aa",
      "assetIds": [
        "55464657044963196816950587289035428064568320970692304673817341489687891546112",
        "55464657044963196816950587289035428064568320970692304673817341489687891546113",
        "55464657044963196816950587289035428064568320970692304673817341489687899934720",
        "55464657044963196816950587289035428064568320970692304673817341489687899934721",
        "55464657044963196816950587289035428064568320970692304673817341489687908321280"
      ]
    },
    {
      "x": 70,
      "y": 369,
      "size": 1,
      "price": "4683000000000000000000",
      "reserved": "",
      "salt": "0x952fe50e2c2d2bc487863bad0b8732441287b1a3deaf134dcfb4e9058ad45c4c",
      "assetIds": [
        "55464657044963196816950587289035428064568320970692304673817341489687891546112",
        "55464657044963196816950587289035428064568320970692304673817341489687891546113",
        "55464657044963196816950587289035428064568320970692304673817341489687899934720",
        "55464657044963196816950587289035428064568320970692304673817341489687899934721",
        "55464657044963196816950587289035428064568320970692304673817341489687908321280"
      ]
    },
    {
      "x": 70,
      "y": 370,
      "size": 1,
      "price": "1011000000000000000000",
      "reserved": "0x7a9fe22691c811ea339d9b73150e6911a5343dca",
      "salt": "0xd001cc8c0ab922da30c37ea1a286f6a4cfcd672fa4e8d889a1bdcc35b662693e",
      "assetIds": []
    },
    {
      "x": 70,
      "y": 371,
      "size": 1,
      "price": "4683000000000000000000",
      "reserved": "",
      "salt": "0x63190cf5669282b25cb205653614a3106f52fef6415f7e34c685d287cfe832d5",
      "assetIds": [
        "55464657044963196816950587289035428064568320970692304673817341489687891546112",
        "55464657044963196816950587289035428064568320970692304673817341489687891546113",
        "55464657044963196816950587289035428064568320970692304673817341489687899934720",
        "55464657044963196816950587289035428064568320970692304673817341489687899934721",
        "55464657044963196816950587289035428064568320970692304673817341489687908321280"
      ]
    },
    {
      "x": 70,
      "y": 372,
      "size": 1,
      "price": "4683000000000000000000",
      "reserved": "",
      "salt": "0xfacbae2fbd02b7a3ed64f8740d156fb546f39c81c59bf56a103a9b1207a93f6a",
      "assetIds": [
        "55464657044963196816950587289035428064568320970692304673817341489687891546112",
        "55464657044963196816950587289035428064568320970692304673817341489687891546113",
        "55464657044963196816950587289035428064568320970692304673817341489687899934720",
        "55464657044963196816950587289035428064568320970692304673817341489687899934721",
        "55464657044963196816950587289035428064568320970692304673817341489687908321280"
      ]
    },
    {
      "x": 70,
      "y": 373,
      "size": 1,
      "price": "4683000000000000000000",
      "reserved": "",
      "salt": "0x1aad98cfcc86e63f8d2b7b48f40928e0f14d9c1f09521a4338612d29d22444b6",
      "assetIds": [
        "55464657044963196816950587289035428064568320970692304673817341489687891546112",
        "55464657044963196816950587289035428064568320970692304673817341489687891546113",
        "55464657044963196816950587289035428064568320970692304673817341489687899934720",
        "55464657044963196816950587289035428064568320970692304673817341489687899934721",
        "55464657044963196816950587289035428064568320970692304673817341489687908321280"
      ]
    },
    {
      "x": 70,
      "y": 374,
      "size": 1,
      "price": "4683000000000000000000",
      "reserved": "",
      "salt": "0x16f3a6e3d4bb9af61b235f0920b68f77fcc82010a1e7cdb8be9855cb8faa6afc",
      "assetIds": [
        "55464657044963196816950587289035428064568320970692304673817341489687891546112",
        "55464657044963196816950587289035428064568320970692304673817341489687891546113",
        "55464657044963196816950587289035428064568320970692304673817341489687899934720",
        "55464657044963196816950587289035428064568320970692304673817341489687899934721",
        "55464657044963196816950587289035428064568320970692304673817341489687908321280"
      ]
    },
    {
      "x": 70,
      "y": 375,
      "size": 1,
      "price": "4683000000000000000000",
      "reserved": "",
      "salt": "0xa78c88a9c24632e46e40df1adf0f23d92951168b99af2a71c0a76f0a496d9b1e",
      "assetIds": [
        "55464657044963196816950587289035428064568320970692304673817341489687891546112",
        "55464657044963196816950587289035428064568320970692304673817341489687891546113",
        "55464657044963196816950587289035428064568320970692304673817341489687899934720",
        "55464657044963196816950587289035428064568320970692304673817341489687899934721",
        "55464657044963196816950587289035428064568320970692304673817341489687908321280"
      ]
    },
    {
      "x": 70,
      "y": 376,
      "size": 1,
      "price": "4683000000000000000000",
      "reserved": "",
      "salt": "0xbc43751009f7caabdc1be9cdfc9adea6b30cddd74f1e4ed54d5d86e845cf2cee",
      "assetIds": [
        "55464657044963196816950587289035428064568320970692304673817341489687891546112",
        "55464657044963196816950587289035428064568320970692304673817341489687891546113",
        "55464657044963196816950587289035428064568320970692304673817341489687899934720",
        "55464657044963196816950587289035428064568320970692304673817341489687899934721",
        "55464657044963196816950587289035428064568320970692304673817341489687908321280"
      ]
    },
    {
      "x": 70,
      "y": 377,
      "size": 1,
      "price": "4683000000000000000000",
      "reserved": "",
      "salt": "0xe3e96cb0bbeb470183bd126e509e8b69fe664dec984fc0a216d24e5ba2c1755f",
      "assetIds": [
        "55464657044963196816950587289035428064568320970692304673817341489687891546112",
        "55464657044963196816950587289035428064568320970692304673817341489687891546113",
        "55464657044963196816950587289035428064568320970692304673817341489687899934720",
        "55464657044963196816950587289035428064568320970692304673817341489687899934721",
        "55464657044963196816950587289035428064568320970692304673817341489687908321280"
      ]
    },
    {
      "x": 70,
      "y": 378,
      "size": 1,
      "price": "4683000000000000000000",
      "reserved": "",
      "salt": "0x07e5822e3dbe337d7d203a91ab7d232490e9c1c2eae72c893a18c647fabc44da",
      "assetIds": [
        "55464657044963196816950587289035428064568320970692304673817341489687891546112",
        "55464657044963196816950587289035428064568320970692304673817341489687891546113",
        "55464657044963196816950587289035428064568320970692304673817341489687899934720",
        "55464657044963196816950587289035428064568320970692304673817341489687899934721",
        "55464657044963196816950587289035428064568320970692304673817341489687908321280"
      ]
    },
    {
      "x": 70,
      "y": 379,
      "size": 1,
      "price": "4683000000000000000000",
      "reserved": "",
      "salt": "0xde2fe1da866c72f8d9a2b80b557b75ccfbdb7065f8e9bc9ba539710552dd320b",
      "assetIds": [
        "55464657044963196816950587289035428064568320970692304673817341489687891546112",
        "55464657044963196816950587289035428064568320970692304673817341489687891546113",
        "55464657044963196816950587289035428064568320970692304673817341489687899934720",
        "55464657044963196816950587289035428064568320970692304673817341489687899934721",
        "55464657044963196816950587289035428064568320970692304673817341489687908321280"
      ]
    },
    {
      "x": 70,
      "y": 380,
      "size": 1,
      "price": "1011000000000000000000",
      "reserved": "0x7a9fe22691c811ea339d9b73150e6911a5343dca",
      "salt": "0xdd61c43e8f68252521212835bd4312cbcf8083b7a0aa0ac4ed194bd8e47ec2a3",
      "assetIds": []
    },
    {
      "x": 70,
      "y": 381,
      "size": 1,
      "price": "1011000000000000000000",
      "reserved": "",
      "salt": "0x098f7fc10da03764da698cc4de9e655e675192f2038ae6567eff71cd2b1cd33c",
      "assetIds": []
    },
    {
      "x": 70,
      "y": 382,
      "size": 1,
      "price": "1011000000000000000000",
      "reserved": "",
      "salt": "0xa5a794ccc06975f3bd6ae5783368265a20c7fcacd7c39112ea201b44baef4bd3",
      "assetIds": []
    },
    {
      "x": 70,
      "y": 383,
      "size": 1,
      "price": "1011000000000000000000",
      "reserved": "",
      "salt": "0xa1028b2ad1a06732b6bd42ff62ded22af888a5d62dcc007a24fcd3ff4bd1bd47",
      "assetIds": []
    },
    {
      "x": 70,
      "y": 384,
      "size": 1,
      "price": "1011000000000000000000",
      "reserved": "",
      "salt": "0xf344b509fa383ea89696ea0a045c653d750c476070426096aeb446b21111824d",
      "assetIds": []
    },
    {
      "x": 70,
      "y": 385,
      "size": 1,
      "price": "1011000000000000000000",
      "reserved": "",
      "salt": "0xe78d893420f80734f9a7ed6a8ec0d1db221753fd85c4c582b66a93bb72731cee",
      "assetIds": []
    },
    {
      "x": 70,
      "y": 386,
      "size": 1,
      "price": "1011000000000000000000",
      "reserved": "",
      "salt": "0xe933921d28ba92732653e0419f5a3b5af8f871c690b8d1983b2b9929087c7a84",
      "assetIds": []
    },
    {
      "x": 70,
      "y": 387,
      "size": 1,
      "price": "1011000000000000000000",
      "reserved": "",
      "salt": "0x8587a4e6d1b3f0e0415ba0be5944733390cdcc8b4c4a8dbd8b3110f77208f382",
      "assetIds": []
    },
    {
      "x": 70,
      "y": 388,
      "size": 1,
      "price": "1011000000000000000000",
      "reserved": "",
      "salt": "0x039f30d6c55912019983fad2dc56a219c85ecb74c128515ff6eadc23767006ce",
      "assetIds": []
    },
    {
      "x": 70,
      "y": 389,
      "size": 1,
      "price": "1011000000000000000000",
      "reserved": "",
      "salt": "0x7d219628bdb721044b929a07605a73f77f57b81cb2f6c2eccb67faa497c254e3",
      "assetIds": []
    },
    {
      "x": 70,
      "y": 390,
      "size": 1,
      "price": "1011000000000000000000",
      "reserved": "",
      "salt": "0x74ad951726c35bdc9d73f0efc5468e3f1ff579b333a300490644833165387e4c",
      "assetIds": []
    },
    {
      "x": 70,
      "y": 391,
      "size": 1,
      "price": "1011000000000000000000",
      "reserved": "",
      "salt": "0xc61abfd137a439bbeda158d1273500e2bfb198185b8a60ebed1809592bed7f1a",
      "assetIds": []
    },
    {
      "x": 70,
      "y": 392,
      "size": 1,
      "price": "1011000000000000000000",
      "reserved": "",
      "salt": "0x827514a544683ece066082ae70aed3c740876fecfa13869de77a606fc89ae703",
      "assetIds": []
    },
    {
      "x": 70,
      "y": 393,
      "size": 1,
      "price": "1011000000000000000000",
      "reserved": "",
      "salt": "0x9f8201093384fc9b08fcf76f2bc648700387227dc95a7f2c384842e93fb64744",
      "assetIds": []
    },
    {
      "x": 70,
      "y": 394,
      "size": 1,
      "price": "1011000000000000000000",
      "reserved": "0x7a9fe22691c811ea339d9b73150e6911a5343dca",
      "salt": "0x47e5c55d44f50c905dfa838ccdb6297fd9b52c78985f889ea2c08461bd850519",
      "assetIds": []
    },
    {
      "x": 70,
      "y": 395,
      "size": 1,
      "price": "4683000000000000000000",
      "reserved": "",
      "salt": "0xfbf1fbb8b35e3f01880e9f09c1c300db9ee4790b77af68831158a0b6c078638b",
      "assetIds": [
        "55464657044963196816950587289035428064568320970692304673817341489687891546112",
        "55464657044963196816950587289035428064568320970692304673817341489687891546113",
        "55464657044963196816950587289035428064568320970692304673817341489687899934720",
        "55464657044963196816950587289035428064568320970692304673817341489687899934721",
        "55464657044963196816950587289035428064568320970692304673817341489687908321280"
      ]
    },
    {
      "x": 70,
      "y": 402,
      "size": 1,
      "price": "4683000000000000000000",
      "reserved": "",
      "salt": "0x537f5f14a9b9e8f64ac781d9ef3f6b5d7b2ab7102e464fbe49e55876542da44e",
      "assetIds": [
        "55464657044963196816950587289035428064568320970692304673817341489687891546112",
        "55464657044963196816950587289035428064568320970692304673817341489687891546113",
        "55464657044963196816950587289035428064568320970692304673817341489687899934720",
        "55464657044963196816950587289035428064568320970692304673817341489687899934721",
        "55464657044963196816950587289035428064568320970692304673817341489687908321280"
      ]
    },
    {
      "x": 70,
      "y": 403,
      "size": 1,
      "price": "4683000000000000000000",
      "reserved": "",
      "salt": "0x5f3491133bc0ac2efe56d9150d45d49ec380baeb1bbe214837869ddd42747ce9",
      "assetIds": [
        "55464657044963196816950587289035428064568320970692304673817341489687891546112",
        "55464657044963196816950587289035428064568320970692304673817341489687891546113",
        "55464657044963196816950587289035428064568320970692304673817341489687899934720",
        "55464657044963196816950587289035428064568320970692304673817341489687899934721",
        "55464657044963196816950587289035428064568320970692304673817341489687908321280"
      ]
    },
    {
      "x": 70,
      "y": 404,
      "size": 1,
      "price": "1011000000000000000000",
      "reserved": "",
      "salt": "0x859f9a19ed0e76f25d1d94570889000b628cc234094c4d287b79af42b09cae6d",
      "assetIds": []
    },
    {
      "x": 70,
      "y": 405,
      "size": 1,
      "price": "1011000000000000000000",
      "reserved": "",
      "salt": "0x4ca568a8f324fa8925ad4164773b2e5f506380a1cb9b6e9d48b7c77e8aa510a5",
      "assetIds": []
    },
    {
      "x": 70,
      "y": 406,
      "size": 1,
      "price": "1011000000000000000000",
      "reserved": "",
      "salt": "0x40a13350a66acf69c9ae6b418ea2552d641ac79f09aa5300563267ad9b5f19c1",
      "assetIds": []
    },
    {
      "x": 70,
      "y": 407,
      "size": 1,
      "price": "1011000000000000000000",
      "reserved": "",
      "salt": "0xd4ad97ba6e8abebb0248b14fb13f2b98b8596f15fb4d3216424300486da9ff43",
      "assetIds": []
    },
    {
      "x": 71,
      "y": 356,
      "size": 1,
      "price": "1011000000000000000000",
      "reserved": "",
      "salt": "0x80b501e87625eed41262eaf605b5e7f7ab8c3c418afd2145644ec26a54c0138e",
      "assetIds": []
    },
    {
      "x": 71,
      "y": 357,
      "size": 1,
      "price": "1011000000000000000000",
      "reserved": "",
      "salt": "0x95dfc2ea671e0796a2c10fab452dcac175b835dde5721e731706d8b97558013b",
      "assetIds": []
    },
    {
      "x": 71,
      "y": 358,
      "size": 1,
      "price": "1011000000000000000000",
      "reserved": "",
      "salt": "0x6979f59b348582924c1766c459bb392d8337c0abbea8661bd2410b9fa905b527",
      "assetIds": []
    },
    {
      "x": 71,
      "y": 359,
      "size": 1,
      "price": "1011000000000000000000",
      "reserved": "",
      "salt": "0x15934ea3ba4c2970a260ae06178edec747ccd5c2d92830bf1ed592f5bc7141da",
      "assetIds": []
    },
    {
      "x": 71,
      "y": 360,
      "size": 1,
      "price": "4683000000000000000000",
      "reserved": "",
      "salt": "0xc2c083d558c461773b0038a74df012c62b97760d5c70020393002bfe210c24a7",
      "assetIds": [
        "55464657044963196816950587289035428064568320970692304673817341489687891546112",
        "55464657044963196816950587289035428064568320970692304673817341489687891546113",
        "55464657044963196816950587289035428064568320970692304673817341489687899934720",
        "55464657044963196816950587289035428064568320970692304673817341489687899934721",
        "55464657044963196816950587289035428064568320970692304673817341489687908321280"
      ]
    },
    {
      "x": 71,
      "y": 361,
      "size": 1,
      "price": "4683000000000000000000",
      "reserved": "",
      "salt": "0xae51a047f82e7855589c3bf64c2aaddb13d91a0fe33725bcafa4e75ab292f69e",
      "assetIds": [
        "55464657044963196816950587289035428064568320970692304673817341489687891546112",
        "55464657044963196816950587289035428064568320970692304673817341489687891546113",
        "55464657044963196816950587289035428064568320970692304673817341489687899934720",
        "55464657044963196816950587289035428064568320970692304673817341489687899934721",
        "55464657044963196816950587289035428064568320970692304673817341489687908321280"
      ]
    },
    {
      "x": 71,
      "y": 362,
      "size": 1,
      "price": "4683000000000000000000",
      "reserved": "",
      "salt": "0xbc0064ef80b52e9ab91deebe1cae0b1fc7548bfe6cf605e610dbdc83d86fcdbd",
      "assetIds": [
        "55464657044963196816950587289035428064568320970692304673817341489687891546112",
        "55464657044963196816950587289035428064568320970692304673817341489687891546113",
        "55464657044963196816950587289035428064568320970692304673817341489687899934720",
        "55464657044963196816950587289035428064568320970692304673817341489687899934721",
        "55464657044963196816950587289035428064568320970692304673817341489687908321280"
      ]
    },
    {
      "x": 71,
      "y": 363,
      "size": 1,
      "price": "4683000000000000000000",
      "reserved": "",
      "salt": "0x82e22f3e024a6ec37a9a9e04d45b8f978ccc035c6acc59dd11c1306ca2c36072",
      "assetIds": [
        "55464657044963196816950587289035428064568320970692304673817341489687891546112",
        "55464657044963196816950587289035428064568320970692304673817341489687891546113",
        "55464657044963196816950587289035428064568320970692304673817341489687899934720",
        "55464657044963196816950587289035428064568320970692304673817341489687899934721",
        "55464657044963196816950587289035428064568320970692304673817341489687908321280"
      ]
    },
    {
      "x": 71,
      "y": 364,
      "size": 1,
      "price": "4683000000000000000000",
      "reserved": "",
      "salt": "0xd8db76339c986ccc365e01f8f4faf43b566c5660b7597d9e3abdebf0e6663da9",
      "assetIds": [
        "55464657044963196816950587289035428064568320970692304673817341489687891546112",
        "55464657044963196816950587289035428064568320970692304673817341489687891546113",
        "55464657044963196816950587289035428064568320970692304673817341489687899934720",
        "55464657044963196816950587289035428064568320970692304673817341489687899934721",
        "55464657044963196816950587289035428064568320970692304673817341489687908321280"
      ]
    },
    {
      "x": 71,
      "y": 365,
      "size": 1,
      "price": "4683000000000000000000",
      "reserved": "",
      "salt": "0x44f9c70081638b88fcbe7c47b2403c8c009fa4efd026df8967717d52627e5991",
      "assetIds": [
        "55464657044963196816950587289035428064568320970692304673817341489687891546112",
        "55464657044963196816950587289035428064568320970692304673817341489687891546113",
        "55464657044963196816950587289035428064568320970692304673817341489687899934720",
        "55464657044963196816950587289035428064568320970692304673817341489687899934721",
        "55464657044963196816950587289035428064568320970692304673817341489687908321280"
      ]
    },
    {
      "x": 71,
      "y": 366,
      "size": 1,
      "price": "4683000000000000000000",
      "reserved": "",
      "salt": "0xfbc3fa1a8af6800da86fbe68fcd68944805be8e0b5087738b0e1867d71e41ec8",
      "assetIds": [
        "55464657044963196816950587289035428064568320970692304673817341489687891546112",
        "55464657044963196816950587289035428064568320970692304673817341489687891546113",
        "55464657044963196816950587289035428064568320970692304673817341489687899934720",
        "55464657044963196816950587289035428064568320970692304673817341489687899934721",
        "55464657044963196816950587289035428064568320970692304673817341489687908321280"
      ]
    },
    {
      "x": 71,
      "y": 367,
      "size": 1,
      "price": "4683000000000000000000",
      "reserved": "",
      "salt": "0xff21ca5c0a74ef46141dfe3ab909eee17eb0e80e3dfd2610f8bf80403b3a1d01",
      "assetIds": [
        "55464657044963196816950587289035428064568320970692304673817341489687891546112",
        "55464657044963196816950587289035428064568320970692304673817341489687891546113",
        "55464657044963196816950587289035428064568320970692304673817341489687899934720",
        "55464657044963196816950587289035428064568320970692304673817341489687899934721",
        "55464657044963196816950587289035428064568320970692304673817341489687908321280"
      ]
    },
    {
      "x": 71,
      "y": 368,
      "size": 1,
      "price": "4683000000000000000000",
      "reserved": "",
      "salt": "0x95c1b6c21c9bff825b4a85b736415f1b2178014fc4c35832ed62cc899420d946",
      "assetIds": [
        "55464657044963196816950587289035428064568320970692304673817341489687891546112",
        "55464657044963196816950587289035428064568320970692304673817341489687891546113",
        "55464657044963196816950587289035428064568320970692304673817341489687899934720",
        "55464657044963196816950587289035428064568320970692304673817341489687899934721",
        "55464657044963196816950587289035428064568320970692304673817341489687908321280"
      ]
    },
    {
      "x": 71,
      "y": 369,
      "size": 1,
      "price": "4683000000000000000000",
      "reserved": "",
      "salt": "0x83fbb96a1a06e34ac0f906dce1e877ec21a99936b6647d3b6ba22c8c58deebae",
      "assetIds": [
        "55464657044963196816950587289035428064568320970692304673817341489687891546112",
        "55464657044963196816950587289035428064568320970692304673817341489687891546113",
        "55464657044963196816950587289035428064568320970692304673817341489687899934720",
        "55464657044963196816950587289035428064568320970692304673817341489687899934721",
        "55464657044963196816950587289035428064568320970692304673817341489687908321280"
      ]
    },
    {
      "x": 71,
      "y": 370,
      "size": 1,
      "price": "4683000000000000000000",
      "reserved": "",
      "salt": "0x1d8167317ba5f7308fce17db28609e2fdf75a1bd7053cd117a4c3e1afa136437",
      "assetIds": [
        "55464657044963196816950587289035428064568320970692304673817341489687891546112",
        "55464657044963196816950587289035428064568320970692304673817341489687891546113",
        "55464657044963196816950587289035428064568320970692304673817341489687899934720",
        "55464657044963196816950587289035428064568320970692304673817341489687899934721",
        "55464657044963196816950587289035428064568320970692304673817341489687908321280"
      ]
    },
    {
      "x": 71,
      "y": 371,
      "size": 1,
      "price": "4683000000000000000000",
      "reserved": "",
      "salt": "0x85b4c4c179d4210937ad8345e2050d48f623ae02b2f55b9b7739deda0470ea9b",
      "assetIds": [
        "55464657044963196816950587289035428064568320970692304673817341489687891546112",
        "55464657044963196816950587289035428064568320970692304673817341489687891546113",
        "55464657044963196816950587289035428064568320970692304673817341489687899934720",
        "55464657044963196816950587289035428064568320970692304673817341489687899934721",
        "55464657044963196816950587289035428064568320970692304673817341489687908321280"
      ]
    },
    {
      "x": 71,
      "y": 372,
      "size": 1,
      "price": "4683000000000000000000",
      "reserved": "",
      "salt": "0xebe1229b9cbe38260b48a177fa60b4148c6976ce099d96a69ae41c4df5adb331",
      "assetIds": [
        "55464657044963196816950587289035428064568320970692304673817341489687891546112",
        "55464657044963196816950587289035428064568320970692304673817341489687891546113",
        "55464657044963196816950587289035428064568320970692304673817341489687899934720",
        "55464657044963196816950587289035428064568320970692304673817341489687899934721",
        "55464657044963196816950587289035428064568320970692304673817341489687908321280"
      ]
    },
    {
      "x": 71,
      "y": 373,
      "size": 1,
      "price": "4683000000000000000000",
      "reserved": "",
      "salt": "0x96245c0a802c04e84dc2c7254394dad1da56aed702962d6bc0ca4361dbca41af",
      "assetIds": [
        "55464657044963196816950587289035428064568320970692304673817341489687891546112",
        "55464657044963196816950587289035428064568320970692304673817341489687891546113",
        "55464657044963196816950587289035428064568320970692304673817341489687899934720",
        "55464657044963196816950587289035428064568320970692304673817341489687899934721",
        "55464657044963196816950587289035428064568320970692304673817341489687908321280"
      ]
    },
    {
      "x": 71,
      "y": 374,
      "size": 1,
      "price": "4683000000000000000000",
      "reserved": "",
      "salt": "0xa3a208c9a5587184a125b6d65362fec68e8be775a5b152c18a2ce92a35f542c2",
      "assetIds": [
        "55464657044963196816950587289035428064568320970692304673817341489687891546112",
        "55464657044963196816950587289035428064568320970692304673817341489687891546113",
        "55464657044963196816950587289035428064568320970692304673817341489687899934720",
        "55464657044963196816950587289035428064568320970692304673817341489687899934721",
        "55464657044963196816950587289035428064568320970692304673817341489687908321280"
      ]
    },
    {
      "x": 71,
      "y": 375,
      "size": 1,
      "price": "4683000000000000000000",
      "reserved": "",
      "salt": "0x269c1c234c38bacc2b4a21d0ba7fa16dd3acaf108891a2fefda8fa90d03b8075",
      "assetIds": [
        "55464657044963196816950587289035428064568320970692304673817341489687891546112",
        "55464657044963196816950587289035428064568320970692304673817341489687891546113",
        "55464657044963196816950587289035428064568320970692304673817341489687899934720",
        "55464657044963196816950587289035428064568320970692304673817341489687899934721",
        "55464657044963196816950587289035428064568320970692304673817341489687908321280"
      ]
    },
    {
      "x": 71,
      "y": 376,
      "size": 1,
      "price": "4683000000000000000000",
      "reserved": "",
      "salt": "0x7da0ba4af67efa4ad3d0ee602c60dd3f1108a506e61987f72241214053746b30",
      "assetIds": [
        "55464657044963196816950587289035428064568320970692304673817341489687891546112",
        "55464657044963196816950587289035428064568320970692304673817341489687891546113",
        "55464657044963196816950587289035428064568320970692304673817341489687899934720",
        "55464657044963196816950587289035428064568320970692304673817341489687899934721",
        "55464657044963196816950587289035428064568320970692304673817341489687908321280"
      ]
    },
    {
      "x": 71,
      "y": 377,
      "size": 1,
      "price": "4683000000000000000000",
      "reserved": "",
      "salt": "0x68d6f3d2d10d266d8e6addc682a80cfecf7202ba095e540a0ad643332fe56af7",
      "assetIds": [
        "55464657044963196816950587289035428064568320970692304673817341489687891546112",
        "55464657044963196816950587289035428064568320970692304673817341489687891546113",
        "55464657044963196816950587289035428064568320970692304673817341489687899934720",
        "55464657044963196816950587289035428064568320970692304673817341489687899934721",
        "55464657044963196816950587289035428064568320970692304673817341489687908321280"
      ]
    },
    {
      "x": 71,
      "y": 378,
      "size": 1,
      "price": "4683000000000000000000",
      "reserved": "",
      "salt": "0xaa7b0f7eaae56de2afa61c23204fd38fddf6e1e101b32163aea3064bfbcb776f",
      "assetIds": [
        "55464657044963196816950587289035428064568320970692304673817341489687891546112",
        "55464657044963196816950587289035428064568320970692304673817341489687891546113",
        "55464657044963196816950587289035428064568320970692304673817341489687899934720",
        "55464657044963196816950587289035428064568320970692304673817341489687899934721",
        "55464657044963196816950587289035428064568320970692304673817341489687908321280"
      ]
    },
    {
      "x": 71,
      "y": 379,
      "size": 1,
      "price": "4683000000000000000000",
      "reserved": "",
      "salt": "0xb7b1414b35ed74298f490ac868cc6cc2681ee1046fe6d3647199af358915b238",
      "assetIds": [
        "55464657044963196816950587289035428064568320970692304673817341489687891546112",
        "55464657044963196816950587289035428064568320970692304673817341489687891546113",
        "55464657044963196816950587289035428064568320970692304673817341489687899934720",
        "55464657044963196816950587289035428064568320970692304673817341489687899934721",
        "55464657044963196816950587289035428064568320970692304673817341489687908321280"
      ]
    },
    {
      "x": 71,
      "y": 380,
      "size": 1,
      "price": "4683000000000000000000",
      "reserved": "",
      "salt": "0x1b27d4eba86498345ab4e7c5408b734a6c0ce2620e534cc1c9be9c0f9b7e7048",
      "assetIds": [
        "55464657044963196816950587289035428064568320970692304673817341489687891546112",
        "55464657044963196816950587289035428064568320970692304673817341489687891546113",
        "55464657044963196816950587289035428064568320970692304673817341489687899934720",
        "55464657044963196816950587289035428064568320970692304673817341489687899934721",
        "55464657044963196816950587289035428064568320970692304673817341489687908321280"
      ]
    },
    {
      "x": 71,
      "y": 381,
      "size": 1,
      "price": "4683000000000000000000",
      "reserved": "",
      "salt": "0x651956474b074575a1911b84aa0b8bc2dc39f8b21f452273d90519b908485e0c",
      "assetIds": [
        "55464657044963196816950587289035428064568320970692304673817341489687891546112",
        "55464657044963196816950587289035428064568320970692304673817341489687891546113",
        "55464657044963196816950587289035428064568320970692304673817341489687899934720",
        "55464657044963196816950587289035428064568320970692304673817341489687899934721",
        "55464657044963196816950587289035428064568320970692304673817341489687908321280"
      ]
    },
    {
      "x": 71,
      "y": 382,
      "size": 1,
      "price": "4683000000000000000000",
      "reserved": "",
      "salt": "0x014d0dcfdc1c2d21774b3a351714487f909533e463942fb556678b53d1c03949",
      "assetIds": [
        "55464657044963196816950587289035428064568320970692304673817341489687891546112",
        "55464657044963196816950587289035428064568320970692304673817341489687891546113",
        "55464657044963196816950587289035428064568320970692304673817341489687899934720",
        "55464657044963196816950587289035428064568320970692304673817341489687899934721",
        "55464657044963196816950587289035428064568320970692304673817341489687908321280"
      ]
    },
    {
      "x": 71,
      "y": 383,
      "size": 1,
      "price": "4683000000000000000000",
      "reserved": "",
      "salt": "0x4802e06b848488a253dd07052b30a2be0ce1e83a58345df2414ca14925439e02",
      "assetIds": [
        "55464657044963196816950587289035428064568320970692304673817341489687891546112",
        "55464657044963196816950587289035428064568320970692304673817341489687891546113",
        "55464657044963196816950587289035428064568320970692304673817341489687899934720",
        "55464657044963196816950587289035428064568320970692304673817341489687899934721",
        "55464657044963196816950587289035428064568320970692304673817341489687908321280"
      ]
    },
    {
      "x": 71,
      "y": 384,
      "size": 1,
      "price": "4683000000000000000000",
      "reserved": "",
      "salt": "0xf80e50aee74eb06ac50b0ad95ba6e12082eae16affbd67a317c5b566e3e1673e",
      "assetIds": [
        "55464657044963196816950587289035428064568320970692304673817341489687891546112",
        "55464657044963196816950587289035428064568320970692304673817341489687891546113",
        "55464657044963196816950587289035428064568320970692304673817341489687899934720",
        "55464657044963196816950587289035428064568320970692304673817341489687899934721",
        "55464657044963196816950587289035428064568320970692304673817341489687908321280"
      ]
    },
    {
      "x": 71,
      "y": 385,
      "size": 1,
      "price": "1011000000000000000000",
      "reserved": "",
      "salt": "0xdd05f7409753386d2e5b38e1e241678f32ab46da6cf7605629bbad1bca5001fe",
      "assetIds": []
    },
    {
      "x": 71,
      "y": 386,
      "size": 1,
      "price": "1011000000000000000000",
      "reserved": "",
      "salt": "0x27525c569d39588c1c7019686ed77b9dcf28064ba711bfe195a75a65bd559d17",
      "assetIds": []
    },
    {
      "x": 71,
      "y": 387,
      "size": 1,
      "price": "1011000000000000000000",
      "reserved": "",
      "salt": "0x1220f1455eac4aa2be6140ca737407b57076651361abf5b540134f54964ff609",
      "assetIds": []
    },
    {
      "x": 71,
      "y": 388,
      "size": 1,
      "price": "1011000000000000000000",
      "reserved": "",
      "salt": "0xf962ef279407c6f36ec0eef7de5785e6e24fb1c64e5fe08c0e17df1c89b7ea92",
      "assetIds": []
    },
    {
      "x": 71,
      "y": 389,
      "size": 1,
      "price": "1011000000000000000000",
      "reserved": "",
      "salt": "0x2af64868ec2c393ba057911c01f7eccda23b9cdae3c3041bf00fec8bffca78b2",
      "assetIds": []
    },
    {
      "x": 71,
      "y": 390,
      "size": 1,
      "price": "1011000000000000000000",
      "reserved": "",
      "salt": "0xbf61e2f9a409ffebc65002d127873cc9035e1d61b2da78d6e402fd409661eb60",
      "assetIds": []
    },
    {
      "x": 71,
      "y": 391,
      "size": 1,
      "price": "1011000000000000000000",
      "reserved": "",
      "salt": "0x444e5ffb1cbe7619a1eafee9722dc5d34f0085d5ecf55e6cfd972245948911df",
      "assetIds": []
    },
    {
      "x": 71,
      "y": 392,
      "size": 1,
      "price": "1011000000000000000000",
      "reserved": "",
      "salt": "0xa6ae182d457f896c731657b3a2028565fd8eba95b866a0f4cd923d5db81791c9",
      "assetIds": []
    },
    {
      "x": 71,
      "y": 393,
      "size": 1,
      "price": "1011000000000000000000",
      "reserved": "",
      "salt": "0x9066e54b3edcea5260bda63a1e33e9e0166ee8272c9a8c411dff71a9b5109a1f",
      "assetIds": []
    },
    {
      "x": 71,
      "y": 394,
      "size": 1,
      "price": "4683000000000000000000",
      "reserved": "",
      "salt": "0x26e1e5e7af54610a84f252ad3f9f79de87808fdd3963f02df032fb31ed5935d7",
      "assetIds": [
        "55464657044963196816950587289035428064568320970692304673817341489687891546112",
        "55464657044963196816950587289035428064568320970692304673817341489687891546113",
        "55464657044963196816950587289035428064568320970692304673817341489687899934720",
        "55464657044963196816950587289035428064568320970692304673817341489687899934721",
        "55464657044963196816950587289035428064568320970692304673817341489687908321280"
      ]
    },
    {
      "x": 71,
      "y": 395,
      "size": 1,
      "price": "4683000000000000000000",
      "reserved": "",
      "salt": "0x20d449fb77a8898d4abaa118cbe173860c974061947232abbb1fefc41f3668d8",
      "assetIds": [
        "55464657044963196816950587289035428064568320970692304673817341489687891546112",
        "55464657044963196816950587289035428064568320970692304673817341489687891546113",
        "55464657044963196816950587289035428064568320970692304673817341489687899934720",
        "55464657044963196816950587289035428064568320970692304673817341489687899934721",
        "55464657044963196816950587289035428064568320970692304673817341489687908321280"
      ]
    },
    {
      "x": 71,
      "y": 402,
      "size": 1,
      "price": "4683000000000000000000",
      "reserved": "",
      "salt": "0xff110f7350e800c33f8382726e0bf4b83db47028c32de8476cca918cc348c5c7",
      "assetIds": [
        "55464657044963196816950587289035428064568320970692304673817341489687891546112",
        "55464657044963196816950587289035428064568320970692304673817341489687891546113",
        "55464657044963196816950587289035428064568320970692304673817341489687899934720",
        "55464657044963196816950587289035428064568320970692304673817341489687899934721",
        "55464657044963196816950587289035428064568320970692304673817341489687908321280"
      ]
    },
    {
      "x": 71,
      "y": 403,
      "size": 1,
      "price": "4683000000000000000000",
      "reserved": "",
      "salt": "0xfcba05b288d584692498b75d632ae828b95cde8bec7a3b56b6a08e174474ed05",
      "assetIds": [
        "55464657044963196816950587289035428064568320970692304673817341489687891546112",
        "55464657044963196816950587289035428064568320970692304673817341489687891546113",
        "55464657044963196816950587289035428064568320970692304673817341489687899934720",
        "55464657044963196816950587289035428064568320970692304673817341489687899934721",
        "55464657044963196816950587289035428064568320970692304673817341489687908321280"
      ]
    },
    {
      "x": 71,
      "y": 404,
      "size": 1,
      "price": "1011000000000000000000",
      "reserved": "",
      "salt": "0xd0b1b9a2986fb9c840bbc9053db03bc2084c5bcb178b0cad456c026bdfb908dc",
      "assetIds": []
    },
    {
      "x": 71,
      "y": 405,
      "size": 1,
      "price": "1011000000000000000000",
      "reserved": "",
      "salt": "0xac2781fe5428723552a9faec79a9570faba25f53e67a9f5268d871784fd40f44",
      "assetIds": []
    },
    {
      "x": 71,
      "y": 406,
      "size": 1,
      "price": "1011000000000000000000",
      "reserved": "",
      "salt": "0xeb4ee90bb871e15971be56c03c5f7a21773b76f1f92673ed7561e8301c3baa90",
      "assetIds": []
    },
    {
      "x": 71,
      "y": 407,
      "size": 1,
      "price": "1011000000000000000000",
      "reserved": "",
      "salt": "0xe65176d2bcdab5533fa99f05569562e9571304e026c40daf6cb97cc746c3e144",
      "assetIds": []
    },
    {
      "x": 72,
      "y": 384,
      "size": 1,
      "price": "4683000000000000000000",
      "reserved": "",
      "salt": "0x3a12fcee9011d65083d4377bf45d65bc5fd4aa3dd90f68bd35af11a75eeb06bc",
      "assetIds": [
        "55464657044963196816950587289035428064568320970692304673817341489687891546112",
        "55464657044963196816950587289035428064568320970692304673817341489687891546113",
        "55464657044963196816950587289035428064568320970692304673817341489687899934720",
        "55464657044963196816950587289035428064568320970692304673817341489687899934721",
        "55464657044963196816950587289035428064568320970692304673817341489687908321280"
      ]
    },
    {
      "x": 72,
      "y": 385,
      "size": 1,
      "price": "1011000000000000000000",
      "reserved": "0x7a9fe22691c811ea339d9b73150e6911a5343dca",
      "salt": "0x79ac34384f95f1715c64dfc2d46a6ce131a8b58cf921bfa4a7f23ddda8dae729",
      "assetIds": []
    },
    {
      "x": 72,
      "y": 386,
      "size": 1,
      "price": "1011000000000000000000",
      "reserved": "",
      "salt": "0xc3f109ad33c87414ff1ea9245595c81b01734e29a08c0b4f3a17041192fcbe1e",
      "assetIds": []
    },
    {
      "x": 72,
      "y": 387,
      "size": 1,
      "price": "1011000000000000000000",
      "reserved": "",
      "salt": "0xd65646cf2e6da1e795219ee13f863ec322a6d9f02b85840cd718891790842283",
      "assetIds": []
    },
    {
      "x": 72,
      "y": 388,
      "size": 1,
      "price": "1011000000000000000000",
      "reserved": "",
      "salt": "0xad2c920bfebd18fb87c10dcaf0db529b82906c03c20629e5dd01e4421f82fa6c",
      "assetIds": []
    },
    {
      "x": 72,
      "y": 389,
      "size": 1,
      "price": "1011000000000000000000",
      "reserved": "",
      "salt": "0x016e8bf7938fee2dd2064c145db71d9f41f04afc6f8276d91fcdc1d529b7af17",
      "assetIds": []
    },
    {
      "x": 72,
      "y": 390,
      "size": 1,
      "price": "1011000000000000000000",
      "reserved": "",
      "salt": "0x64ec3d79f187d9a56052557a461b9638a84f48ee2c6387d6699ec7489f62ac00",
      "assetIds": []
    },
    {
      "x": 72,
      "y": 391,
      "size": 1,
      "price": "1011000000000000000000",
      "reserved": "",
      "salt": "0x037a33d2747ec938c591ce79c92a89a9fa6400cfb6b7cfe7d816ba6d43788b59",
      "assetIds": []
    },
    {
      "x": 72,
      "y": 392,
      "size": 1,
      "price": "1011000000000000000000",
      "reserved": "",
      "salt": "0x372813185061d01432feb71098a471ad0051b65b03fc578efa71a4a302ce71e0",
      "assetIds": []
    },
    {
      "x": 72,
      "y": 393,
      "size": 1,
      "price": "1011000000000000000000",
      "reserved": "",
      "salt": "0x7ee1002c0d3879d6c3c631e939e2a535312aee886d551d153db1c55d7b63b348",
      "assetIds": []
    },
    {
      "x": 72,
      "y": 394,
      "size": 1,
      "price": "4683000000000000000000",
      "reserved": "",
      "salt": "0x37f2d31a2bf21422415e3b717e0b536be3f7ae7fa308617e82839d03fc4c2adf",
      "assetIds": [
        "55464657044963196816950587289035428064568320970692304673817341489687891546112",
        "55464657044963196816950587289035428064568320970692304673817341489687891546113",
        "55464657044963196816950587289035428064568320970692304673817341489687899934720",
        "55464657044963196816950587289035428064568320970692304673817341489687899934721",
        "55464657044963196816950587289035428064568320970692304673817341489687908321280"
      ]
    },
    {
      "x": 72,
      "y": 395,
      "size": 1,
      "price": "1011000000000000000000",
      "reserved": "0x7a9fe22691c811ea339d9b73150e6911a5343dca",
      "salt": "0x1f40c8e2ad2968641e7519a7f4bb142fb3173ed3763886c8cc7ca0dd0fd46682",
      "assetIds": []
    },
    {
      "x": 72,
      "y": 402,
      "size": 1,
      "price": "1011000000000000000000",
      "reserved": "0x7a9fe22691c811ea339d9b73150e6911a5343dca",
      "salt": "0x768ba60f699a13a7e67fec2301552bfe1f8864d96bf043a59111ffeea5268202",
      "assetIds": []
    },
    {
      "x": 72,
      "y": 403,
      "size": 1,
      "price": "4683000000000000000000",
      "reserved": "",
      "salt": "0xb314f2d4447662ee0bcfa65211a8cb36a5d0c90eb7ea24f076e0135435050c23",
      "assetIds": [
        "55464657044963196816950587289035428064568320970692304673817341489687891546112",
        "55464657044963196816950587289035428064568320970692304673817341489687891546113",
        "55464657044963196816950587289035428064568320970692304673817341489687899934720",
        "55464657044963196816950587289035428064568320970692304673817341489687899934721",
        "55464657044963196816950587289035428064568320970692304673817341489687908321280"
      ]
    },
    {
      "x": 72,
      "y": 404,
      "size": 1,
      "price": "1011000000000000000000",
      "reserved": "",
      "salt": "0x416f06f9d80783f129c2cb4eb5f9d9cf01b3f6846763f5455b9e1c74a3ea70f1",
      "assetIds": []
    },
    {
      "x": 72,
      "y": 405,
      "size": 1,
      "price": "1011000000000000000000",
      "reserved": "",
      "salt": "0x3ed8ec93be1a428064372f31e2d93ab9952b33d91ac7bbd3d25624d4211883f3",
      "assetIds": []
    },
    {
      "x": 72,
      "y": 406,
      "size": 1,
      "price": "1011000000000000000000",
      "reserved": "",
      "salt": "0x6957fbb7d5fba3a919cbbcb6e67ae5393d5677cf1833e18716e5a48fa9d37193",
      "assetIds": []
    },
    {
      "x": 72,
      "y": 407,
      "size": 1,
      "price": "1011000000000000000000",
      "reserved": "",
      "salt": "0xb6ccbeb21f7483f6ee706d5f80032fcd7a869736a6236a83b3c4c7363597143b",
      "assetIds": []
    },
    {
      "x": 73,
      "y": 384,
      "size": 1,
      "price": "4683000000000000000000",
      "reserved": "",
      "salt": "0x57d8b7f396c348213192fd79bfb9acaeee502581c455e952c20d6f798c83e5f2",
      "assetIds": [
        "55464657044963196816950587289035428064568320970692304673817341489687891546112",
        "55464657044963196816950587289035428064568320970692304673817341489687891546113",
        "55464657044963196816950587289035428064568320970692304673817341489687899934720",
        "55464657044963196816950587289035428064568320970692304673817341489687899934721",
        "55464657044963196816950587289035428064568320970692304673817341489687908321280"
      ]
    },
    {
      "x": 73,
      "y": 385,
      "size": 1,
      "price": "4683000000000000000000",
      "reserved": "",
      "salt": "0x16c7eca24e7e6b81ab310c3ea55b900dc32bdf9febc6ddecfb474d2f4a1ecfc3",
      "assetIds": [
        "55464657044963196816950587289035428064568320970692304673817341489687891546112",
        "55464657044963196816950587289035428064568320970692304673817341489687891546113",
        "55464657044963196816950587289035428064568320970692304673817341489687899934720",
        "55464657044963196816950587289035428064568320970692304673817341489687899934721",
        "55464657044963196816950587289035428064568320970692304673817341489687908321280"
      ]
    },
    {
      "x": 73,
      "y": 386,
      "size": 1,
      "price": "4683000000000000000000",
      "reserved": "",
      "salt": "0x5dba2bb8ef54067ecdbcd3dd34845b7a6827cefe8a52eab4eef2f01ee1bf4205",
      "assetIds": [
        "55464657044963196816950587289035428064568320970692304673817341489687891546112",
        "55464657044963196816950587289035428064568320970692304673817341489687891546113",
        "55464657044963196816950587289035428064568320970692304673817341489687899934720",
        "55464657044963196816950587289035428064568320970692304673817341489687899934721",
        "55464657044963196816950587289035428064568320970692304673817341489687908321280"
      ]
    },
    {
      "x": 73,
      "y": 387,
      "size": 1,
      "price": "1011000000000000000000",
      "reserved": "",
      "salt": "0x642fbf3751a61d1b9984c1ea0842b56037fdb777d244609dba4d68bdf44bc1aa",
      "assetIds": []
    },
    {
      "x": 73,
      "y": 388,
      "size": 1,
      "price": "1011000000000000000000",
      "reserved": "",
      "salt": "0xda67dcce7b39f07c527a32648503c5c7cd0192ca3801ad558f890f54c2fc408f",
      "assetIds": []
    },
    {
      "x": 73,
      "y": 389,
      "size": 1,
      "price": "1011000000000000000000",
      "reserved": "",
      "salt": "0xdf302fb80464f36a08ca0d61e8092b0e334e0c51f587338a059adecf5bfe67d9",
      "assetIds": []
    },
    {
      "x": 73,
      "y": 390,
      "size": 1,
      "price": "1011000000000000000000",
      "reserved": "",
      "salt": "0x73d3563699c2165f87d56fbbe4dbffef9c199258b41e8e2298a61ddd486b9764",
      "assetIds": []
    },
    {
      "x": 73,
      "y": 391,
      "size": 1,
      "price": "1011000000000000000000",
      "reserved": "",
      "salt": "0x9a66187b9bc20a7854159b655733e567e9ff34c61be47f3cefc4f85b48c7003c",
      "assetIds": []
    },
    {
      "x": 73,
      "y": 392,
      "size": 1,
      "price": "1011000000000000000000",
      "reserved": "",
      "salt": "0xc559d6596069cbe83af0e09bddb0ee7ba444354dac24c1cc629219dc26f4b0eb",
      "assetIds": []
    },
    {
      "x": 73,
      "y": 393,
      "size": 1,
      "price": "1011000000000000000000",
      "reserved": "",
      "salt": "0x3915a7d52869db25a2510acc4c48214eb3eec22e414f993d4c5db68381bb88b1",
      "assetIds": []
    },
    {
      "x": 73,
      "y": 394,
      "size": 1,
      "price": "1011000000000000000000",
      "reserved": "",
      "salt": "0xe94feb4728e56cbb63c2faafec1fccad22a390e4a421296f73e4523c70938ecc",
      "assetIds": []
    },
    {
      "x": 73,
      "y": 395,
      "size": 1,
      "price": "1011000000000000000000",
      "reserved": "0x7a9fe22691c811ea339d9b73150e6911a5343dca",
      "salt": "0x9de069f68fad52de901a8ead9a963b78f0c56e7e4a0cc70de6fbbd9d6f50d642",
      "assetIds": []
    },
    {
      "x": 73,
      "y": 402,
      "size": 1,
      "price": "1011000000000000000000",
      "reserved": "",
      "salt": "0xf87fa0b81f6c61d300784a91a6d7931349391b3dd19dd4a5d825c319df1bbd55",
      "assetIds": []
    },
    {
      "x": 73,
      "y": 403,
      "size": 1,
      "price": "4683000000000000000000",
      "reserved": "",
      "salt": "0x13fef121e0fa69769f029c608cf248f706766f5616e2f08240e4eeff12dbcf53",
      "assetIds": [
        "55464657044963196816950587289035428064568320970692304673817341489687891546112",
        "55464657044963196816950587289035428064568320970692304673817341489687891546113",
        "55464657044963196816950587289035428064568320970692304673817341489687899934720",
        "55464657044963196816950587289035428064568320970692304673817341489687899934721",
        "55464657044963196816950587289035428064568320970692304673817341489687908321280"
      ]
    },
    {
      "x": 73,
      "y": 404,
      "size": 1,
      "price": "1011000000000000000000",
      "reserved": "",
      "salt": "0x63529391368db0e96c6145063bcac1f57d19e0afbbf16d0fc2322aeb0610fb53",
      "assetIds": []
    },
    {
      "x": 73,
      "y": 405,
      "size": 1,
      "price": "1011000000000000000000",
      "reserved": "",
      "salt": "0x780be2c974a36649a14fc0a0a98c3c8cb1496b6baf39db5342cb0f64d5e69cce",
      "assetIds": []
    },
    {
      "x": 73,
      "y": 406,
      "size": 1,
      "price": "1011000000000000000000",
      "reserved": "",
      "salt": "0x9d8cb99c858152f3285b450403627f59b75f43e7dd1075cf4b12fc65b2fd704b",
      "assetIds": []
    },
    {
      "x": 73,
      "y": 407,
      "size": 1,
      "price": "1011000000000000000000",
      "reserved": "",
      "salt": "0xb43a388b64c6d931c697b0c71af7a49b8f28158474478144dbba2e2ae1fc61ef",
      "assetIds": []
    },
    {
      "x": 74,
      "y": 384,
      "size": 1,
      "price": "4683000000000000000000",
      "reserved": "",
      "salt": "0x2da0020270d7b683346050ef0c042dcdfde337a31eee6b8c36db30f6a35cea87",
      "assetIds": [
        "55464657044963196816950587289035428064568320970692304673817341489687891546112",
        "55464657044963196816950587289035428064568320970692304673817341489687891546113",
        "55464657044963196816950587289035428064568320970692304673817341489687899934720",
        "55464657044963196816950587289035428064568320970692304673817341489687899934721",
        "55464657044963196816950587289035428064568320970692304673817341489687908321280"
      ]
    },
    {
      "x": 74,
      "y": 385,
      "size": 1,
      "price": "4683000000000000000000",
      "reserved": "",
      "salt": "0x8e29ca6afe593156181d419d1db1851923f14b69cd523b6cc8bede5ab5256d5e",
      "assetIds": [
        "55464657044963196816950587289035428064568320970692304673817341489687891546112",
        "55464657044963196816950587289035428064568320970692304673817341489687891546113",
        "55464657044963196816950587289035428064568320970692304673817341489687899934720",
        "55464657044963196816950587289035428064568320970692304673817341489687899934721",
        "55464657044963196816950587289035428064568320970692304673817341489687908321280"
      ]
    },
    {
      "x": 74,
      "y": 386,
      "size": 1,
      "price": "4683000000000000000000",
      "reserved": "",
      "salt": "0x09a64c0bdce57c61b1ec02cbf8ecd55d99a7bb848b38b465cc3e1793122729d9",
      "assetIds": [
        "55464657044963196816950587289035428064568320970692304673817341489687891546112",
        "55464657044963196816950587289035428064568320970692304673817341489687891546113",
        "55464657044963196816950587289035428064568320970692304673817341489687899934720",
        "55464657044963196816950587289035428064568320970692304673817341489687899934721",
        "55464657044963196816950587289035428064568320970692304673817341489687908321280"
      ]
    },
    {
      "x": 74,
      "y": 387,
      "size": 1,
      "price": "1011000000000000000000",
      "reserved": "",
      "salt": "0x55ba9f2df82c2341661d89eb50789007635b16bf7b7d0708e4d5c38e0e498c41",
      "assetIds": []
    },
    {
      "x": 74,
      "y": 388,
      "size": 1,
      "price": "1011000000000000000000",
      "reserved": "",
      "salt": "0xabfcb20cf025ae6ea439e92dc3375dc6afbc9ff95d122505cb5c0d1bbbd8fcd6",
      "assetIds": []
    },
    {
      "x": 74,
      "y": 389,
      "size": 1,
      "price": "1011000000000000000000",
      "reserved": "",
      "salt": "0x0240f96bc9ed16c35172864ae859cee2988fae75c0f10118f54a504b4f8e05ec",
      "assetIds": []
    },
    {
      "x": 74,
      "y": 390,
      "size": 1,
      "price": "1011000000000000000000",
      "reserved": "",
      "salt": "0xfa5b0d681dbf8bd053b1ba869eeb036ee16f0986481c692653095f8dbc06d092",
      "assetIds": []
    },
    {
      "x": 74,
      "y": 391,
      "size": 1,
      "price": "1011000000000000000000",
      "reserved": "",
      "salt": "0x5b2250d241a21b450c8a80ce3067978a9658be0207e2f23f31e523aa98318622",
      "assetIds": []
    },
    {
      "x": 74,
      "y": 392,
      "size": 1,
      "price": "1011000000000000000000",
      "reserved": "",
      "salt": "0xfa4f22fd8543d31dcfa77d7d0eae9858dc6b7514f7ce9594ab965bdd799833dc",
      "assetIds": []
    },
    {
      "x": 74,
      "y": 393,
      "size": 1,
      "price": "1011000000000000000000",
      "reserved": "",
      "salt": "0xd5230fddf03a5fc1e0bc3e7184cb6e30cced0a5851587605b8de014dc6e058d0",
      "assetIds": []
    },
    {
      "x": 74,
      "y": 394,
      "size": 1,
      "price": "1011000000000000000000",
      "reserved": "",
      "salt": "0x8eb618709b74fa5ae0a4d6925f1a96dfd47041048c0ba54cdedf3984d5f0cf1c",
      "assetIds": []
    },
    {
      "x": 74,
      "y": 395,
      "size": 1,
      "price": "1011000000000000000000",
      "reserved": "",
      "salt": "0x8d97a33e79f3dc745d50148bfafbfe1f6e4c40fa095ed14823bf64ecb795d10e",
      "assetIds": []
    },
    {
      "x": 74,
      "y": 402,
      "size": 1,
      "price": "1011000000000000000000",
      "reserved": "",
      "salt": "0xbf83884c1c612895550f592356ea11b075e7972319c574fc2e7a005e36452289",
      "assetIds": []
    },
    {
      "x": 74,
      "y": 403,
      "size": 1,
      "price": "1011000000000000000000",
      "reserved": "",
      "salt": "0xa381f521fff1c50355486c5f4d85b9a148044cdd2a4b9020e60e5aeb8990c360",
      "assetIds": []
    },
    {
      "x": 74,
      "y": 404,
      "size": 1,
      "price": "1011000000000000000000",
      "reserved": "",
      "salt": "0x1f67eecb1b4c6a90fa862db82d99588bc4c89c0487a5129fdde0b6b2d2ad90f6",
      "assetIds": []
    },
    {
      "x": 74,
      "y": 405,
      "size": 1,
      "price": "1011000000000000000000",
      "reserved": "",
      "salt": "0xf4cab93a0598ff6cf9ab7c0a0a074fe6a6a3c814cb5a64ca80327fd7026b3a29",
      "assetIds": []
    },
    {
      "x": 74,
      "y": 406,
      "size": 1,
      "price": "1011000000000000000000",
      "reserved": "",
      "salt": "0xc3f886db9d1362447b7e056163111752fe869e5e0fda1eb4b5acfb1a0ad8394e",
      "assetIds": []
    },
    {
      "x": 74,
      "y": 407,
      "size": 1,
      "price": "1011000000000000000000",
      "reserved": "",
      "salt": "0x72ed4f8c8eea310c1a743f3807e29c148d471ed95aef1fbc75592d54219b1171",
      "assetIds": []
    },
    {
      "x": 75,
      "y": 384,
      "size": 1,
      "price": "4683000000000000000000",
      "reserved": "",
      "salt": "0x57083ab1f45514dcaa302a45d0ae9bf9ce95449165babc888d2e48d056418bd8",
      "assetIds": [
        "55464657044963196816950587289035428064568320970692304673817341489687891546112",
        "55464657044963196816950587289035428064568320970692304673817341489687891546113",
        "55464657044963196816950587289035428064568320970692304673817341489687899934720",
        "55464657044963196816950587289035428064568320970692304673817341489687899934721",
        "55464657044963196816950587289035428064568320970692304673817341489687908321280"
      ]
    },
    {
      "x": 75,
      "y": 385,
      "size": 1,
      "price": "4683000000000000000000",
      "reserved": "",
      "salt": "0xecccc51ea2824f60eb19569dcd6e62ab2c3727a17fd790c27f4d36a5e2e426e0",
      "assetIds": [
        "55464657044963196816950587289035428064568320970692304673817341489687891546112",
        "55464657044963196816950587289035428064568320970692304673817341489687891546113",
        "55464657044963196816950587289035428064568320970692304673817341489687899934720",
        "55464657044963196816950587289035428064568320970692304673817341489687899934721",
        "55464657044963196816950587289035428064568320970692304673817341489687908321280"
      ]
    },
    {
      "x": 75,
      "y": 386,
      "size": 1,
      "price": "1011000000000000000000",
      "reserved": "",
      "salt": "0xf7a60f625206c74e9fd303ce08f466989e8e36fd5025a9e66de03bdc9c316ecf",
      "assetIds": []
    },
    {
      "x": 75,
      "y": 387,
      "size": 1,
      "price": "1011000000000000000000",
      "reserved": "",
      "salt": "0xe66b26ee1e01718d9428cd1bc5aef18486ce5f861b98767c536cef5a196cf9e3",
      "assetIds": []
    },
    {
      "x": 75,
      "y": 388,
      "size": 1,
      "price": "1011000000000000000000",
      "reserved": "",
      "salt": "0x06393b2b71589e701e9bc550de298f0dabeff8d397c05e133c7a73d25e300a6f",
      "assetIds": []
    },
    {
      "x": 75,
      "y": 389,
      "size": 1,
      "price": "1011000000000000000000",
      "reserved": "",
      "salt": "0xa0cd60797299162418f7a230d9ac5c3c83ebb70b7b602891a2f1d6cf47cf4478",
      "assetIds": []
    },
    {
      "x": 75,
      "y": 390,
      "size": 1,
      "price": "1011000000000000000000",
      "reserved": "",
      "salt": "0xd5ea9774ed506a93035bf65f303ea34c339c299120bb243ee1ff389bed69afc4",
      "assetIds": []
    },
    {
      "x": 75,
      "y": 391,
      "size": 1,
      "price": "1011000000000000000000",
      "reserved": "",
      "salt": "0xad92d2873305525c5354ea8ccfae55817e51f599890ce1c3ed71024583847d6c",
      "assetIds": []
    },
    {
      "x": 75,
      "y": 392,
      "size": 1,
      "price": "1011000000000000000000",
      "reserved": "",
      "salt": "0x2ebc6797fcc2fe77e2dc92138699b85e4ddfca20ca148e688d45f4581486fde1",
      "assetIds": []
    },
    {
      "x": 75,
      "y": 402,
      "size": 1,
      "price": "1011000000000000000000",
      "reserved": "",
      "salt": "0x8c63f6e9b8c7e48be4f8d745450cd0cd6359530c6248d3750b6c1752b2c6c82f",
      "assetIds": []
    },
    {
      "x": 75,
      "y": 403,
      "size": 1,
      "price": "1011000000000000000000",
      "reserved": "",
      "salt": "0xadfd53aca4a07c076ccca0931b88f48bf093c26a2893b88a28c5f19dcfb8fbf6",
      "assetIds": []
    },
    {
      "x": 75,
      "y": 404,
      "size": 1,
      "price": "1011000000000000000000",
      "reserved": "",
      "salt": "0xdd7aa3ed664cd36dcedde628cded465ace72f5ad33aedcf190ebafe9a92bd916",
      "assetIds": []
    },
    {
      "x": 75,
      "y": 405,
      "size": 1,
      "price": "1011000000000000000000",
      "reserved": "",
      "salt": "0x60a4c5dc1bfd9ec00168ddd3345952e4180a29fd4708a84b102243642d78030c",
      "assetIds": []
    },
    {
      "x": 75,
      "y": 406,
      "size": 1,
      "price": "1011000000000000000000",
      "reserved": "",
      "salt": "0x7f62b8cbaec188148bda509a208e4e622dd46c04e1e94be8f428c432ae56a5b0",
      "assetIds": []
    },
    {
      "x": 75,
      "y": 407,
      "size": 1,
      "price": "1011000000000000000000",
      "reserved": "",
      "salt": "0x9567eb6a98610fab7dac8914048782ec9366cbc36a24061587db35500f7035ce",
      "assetIds": []
    },
    {
      "x": 76,
      "y": 384,
      "size": 1,
      "price": "4683000000000000000000",
      "reserved": "",
      "salt": "0x3e3d25c39279dac4eb069f483ffa4bc2228864fc28d97e0a39ca0ed17aeed92f",
      "assetIds": [
        "55464657044963196816950587289035428064568320970692304673817341489687891546112",
        "55464657044963196816950587289035428064568320970692304673817341489687891546113",
        "55464657044963196816950587289035428064568320970692304673817341489687899934720",
        "55464657044963196816950587289035428064568320970692304673817341489687899934721",
        "55464657044963196816950587289035428064568320970692304673817341489687908321280"
      ]
    },
    {
      "x": 76,
      "y": 385,
      "size": 1,
      "price": "1011000000000000000000",
      "reserved": "0x7a9fe22691c811ea339d9b73150e6911a5343dca",
      "salt": "0xe52d8381c2124d934029b6b638704224973c826a39dfa542edb14fac2a9185fe",
      "assetIds": []
    },
    {
      "x": 76,
      "y": 386,
      "size": 1,
      "price": "1011000000000000000000",
      "reserved": "",
      "salt": "0x75c066b2ecdd6e89b4f20a9ff808e398faa7e90101c63b4d6c2f09bf376606fa",
      "assetIds": []
    },
    {
      "x": 76,
      "y": 387,
      "size": 1,
      "price": "1011000000000000000000",
      "reserved": "",
      "salt": "0x9f3d969bd7022549e0005bf0bb905c8da7c49515afdffd1f959a6602a358ef39",
      "assetIds": []
    },
    {
      "x": 76,
      "y": 388,
      "size": 1,
      "price": "1011000000000000000000",
      "reserved": "",
      "salt": "0x30e74e8823ddc7946b82237c33d0a9c87531ffee7a60e136bf5b3f749f7ee3b7",
      "assetIds": []
    },
    {
      "x": 76,
      "y": 389,
      "size": 1,
      "price": "1011000000000000000000",
      "reserved": "",
      "salt": "0xf25dfa80b94afde9a08c8780787316421e123d2be708c702be2bff76a43a5353",
      "assetIds": []
    },
    {
      "x": 76,
      "y": 390,
      "size": 1,
      "price": "1011000000000000000000",
      "reserved": "",
      "salt": "0x41b70b5509ab68099c2269b48d226c9ca27106e9dafc5792c857c5094f4513a7",
      "assetIds": []
    },
    {
      "x": 76,
      "y": 391,
      "size": 1,
      "price": "1011000000000000000000",
      "reserved": "",
      "salt": "0x01ad7f3081faefbf72d0cfba2a0b4b470d9b52c7d8b87a73ccf7c89d912682f0",
      "assetIds": []
    },
    {
      "x": 76,
      "y": 392,
      "size": 1,
      "price": "1011000000000000000000",
      "reserved": "",
      "salt": "0x03e3bee94626407f0b151c9a2b6595f0db433d13609c232812a99f5ebe8bdb0f",
      "assetIds": []
    },
    {
      "x": 76,
      "y": 402,
      "size": 1,
      "price": "1011000000000000000000",
      "reserved": "",
      "salt": "0x837032bc32be3f1eec74831e9346a86f70e6941a0728eb65e59c1ae1b9479b91",
      "assetIds": []
    },
    {
      "x": 76,
      "y": 403,
      "size": 1,
      "price": "1011000000000000000000",
      "reserved": "",
      "salt": "0xfdd331cba119178b39b00d4e92f8f53cab76f43dcc206dbd7515fe56ef4d4b89",
      "assetIds": []
    },
    {
      "x": 76,
      "y": 404,
      "size": 1,
      "price": "1011000000000000000000",
      "reserved": "",
      "salt": "0x8b1c8e8d75293764707be335e8ae654065ebb4bb4fcc471a75e2cd813176436d",
      "assetIds": []
    },
    {
      "x": 76,
      "y": 405,
      "size": 1,
      "price": "1011000000000000000000",
      "reserved": "",
      "salt": "0x604b993b5c2728fd3abfac6fb3325b18b4106540d201e47307a8ebcab2020954",
      "assetIds": []
    },
    {
      "x": 76,
      "y": 406,
      "size": 1,
      "price": "1011000000000000000000",
      "reserved": "",
      "salt": "0x4d429b086b772ac687aa6f2e168819efbd8bc8ae95859b1b05a9b198acfc2cce",
      "assetIds": []
    },
    {
      "x": 76,
      "y": 407,
      "size": 1,
      "price": "1011000000000000000000",
      "reserved": "",
      "salt": "0xaa146f56dbb4150cb64be84549c079e76466a8d5f4f6bdb7b863197801182783",
      "assetIds": []
    },
    {
      "x": 77,
      "y": 384,
      "size": 1,
      "price": "4683000000000000000000",
      "reserved": "",
      "salt": "0x6f75d7c91e3c47002e554cf1bf3d6ec5dbbdacea16d9184e00b2f0c26b2f8b61",
      "assetIds": [
        "55464657044963196816950587289035428064568320970692304673817341489687891546112",
        "55464657044963196816950587289035428064568320970692304673817341489687891546113",
        "55464657044963196816950587289035428064568320970692304673817341489687899934720",
        "55464657044963196816950587289035428064568320970692304673817341489687899934721",
        "55464657044963196816950587289035428064568320970692304673817341489687908321280"
      ]
    },
    {
      "x": 77,
      "y": 385,
      "size": 1,
      "price": "4683000000000000000000",
      "reserved": "",
      "salt": "0x6fe6b011eb90897cab82d0cdf837311de83763d6b47460c7748249f98b6c0a96",
      "assetIds": [
        "55464657044963196816950587289035428064568320970692304673817341489687891546112",
        "55464657044963196816950587289035428064568320970692304673817341489687891546113",
        "55464657044963196816950587289035428064568320970692304673817341489687899934720",
        "55464657044963196816950587289035428064568320970692304673817341489687899934721",
        "55464657044963196816950587289035428064568320970692304673817341489687908321280"
      ]
    },
    {
      "x": 77,
      "y": 386,
      "size": 1,
      "price": "1011000000000000000000",
      "reserved": "",
      "salt": "0xea68e64d1a91efc6ea0849b145655d17b6a189d4526f58fd5223404ec3085908",
      "assetIds": []
    },
    {
      "x": 77,
      "y": 387,
      "size": 1,
      "price": "1011000000000000000000",
      "reserved": "",
      "salt": "0xd87dd4804f07ff97c7dad623fe206ee05520fed6a5a71dc7541fe71abc8d2d14",
      "assetIds": []
    },
    {
      "x": 77,
      "y": 388,
      "size": 1,
      "price": "1011000000000000000000",
      "reserved": "",
      "salt": "0x564dc565e33c3b275bd6f8a540beaf8d89b9eedeaf9c57e331dbfd178844c57b",
      "assetIds": []
    },
    {
      "x": 77,
      "y": 389,
      "size": 1,
      "price": "1011000000000000000000",
      "reserved": "",
      "salt": "0xa6c8575c2a34db5622d8fc62c0bd87582ce578fb1663c8375337339485aa42b3",
      "assetIds": []
    },
    {
      "x": 77,
      "y": 390,
      "size": 1,
      "price": "1011000000000000000000",
      "reserved": "",
      "salt": "0x44ca1e5b29be7ed33462bef73c77958ef4a3fe3a6189c28464fc1451f4f2cf6a",
      "assetIds": []
    },
    {
      "x": 77,
      "y": 391,
      "size": 1,
      "price": "1011000000000000000000",
      "reserved": "",
      "salt": "0x4a8e2291793a98326b20c5d2f7fea00af7b6647144a1df2abc5a1ac2f1581b92",
      "assetIds": []
    },
    {
      "x": 77,
      "y": 392,
      "size": 1,
      "price": "1011000000000000000000",
      "reserved": "",
      "salt": "0x15fc2f4912c9f4a720a90487a024a7293cdb2f56c62f6fc5434ac10d277e62df",
      "assetIds": []
    },
    {
      "x": 77,
      "y": 402,
      "size": 1,
      "price": "1011000000000000000000",
      "reserved": "",
      "salt": "0x2b887132c428e7abaef652c0d2867db324436d5d7de1dc42ce544f646181c8c4",
      "assetIds": []
    },
    {
      "x": 77,
      "y": 403,
      "size": 1,
      "price": "1011000000000000000000",
      "reserved": "",
      "salt": "0x44e95374575457837364699eba543f67d366e62bdbd50ea1d006fbe870039295",
      "assetIds": []
    },
    {
      "x": 77,
      "y": 404,
      "size": 1,
      "price": "1011000000000000000000",
      "reserved": "",
      "salt": "0x11500fa8d8ceda0a46feaad57e2cc8284e5f788cfd4ac06bb03ba19f4279e171",
      "assetIds": []
    },
    {
      "x": 77,
      "y": 405,
      "size": 1,
      "price": "1011000000000000000000",
      "reserved": "",
      "salt": "0xa8a59442badf2b44b2febc84b9b54f66793a2f4d6ffe338828c59ef264a45652",
      "assetIds": []
    },
    {
      "x": 77,
      "y": 406,
      "size": 1,
      "price": "1011000000000000000000",
      "reserved": "",
      "salt": "0x0cf92cb2e186781b6bb3ce11f792a30ec843353f7f673586c7ccfe40e539261c",
      "assetIds": []
    },
    {
      "x": 77,
      "y": 407,
      "size": 1,
      "price": "1011000000000000000000",
      "reserved": "",
      "salt": "0x20a566be4edc30e89d9226b65af421c94f6e9c923809cb1e94cb805bf9ca1c42",
      "assetIds": []
    },
    {
      "x": 78,
      "y": 384,
      "size": 1,
      "price": "4683000000000000000000",
      "reserved": "",
      "salt": "0x34f97149f4924c2cbaf2b3c63aef20d00b794da3f39a2cca392cfd67f41acc2b",
      "assetIds": [
        "55464657044963196816950587289035428064568320970692304673817341489687891546112",
        "55464657044963196816950587289035428064568320970692304673817341489687891546113",
        "55464657044963196816950587289035428064568320970692304673817341489687899934720",
        "55464657044963196816950587289035428064568320970692304673817341489687899934721",
        "55464657044963196816950587289035428064568320970692304673817341489687908321280"
      ]
    },
    {
      "x": 78,
      "y": 385,
      "size": 1,
      "price": "4683000000000000000000",
      "reserved": "",
      "salt": "0x6a3bf1fc1e46fe3fe173bee413f3ac26c8ea335fba4cc117adefdb12f9460e95",
      "assetIds": [
        "55464657044963196816950587289035428064568320970692304673817341489687891546112",
        "55464657044963196816950587289035428064568320970692304673817341489687891546113",
        "55464657044963196816950587289035428064568320970692304673817341489687899934720",
        "55464657044963196816950587289035428064568320970692304673817341489687899934721",
        "55464657044963196816950587289035428064568320970692304673817341489687908321280"
      ]
    },
    {
      "x": 78,
      "y": 386,
      "size": 1,
      "price": "1011000000000000000000",
      "reserved": "",
      "salt": "0x0264d0cecefb35b8c84422ad743cb4dcac6be6b96fb0640bdf4759c1ac72544c",
      "assetIds": []
    },
    {
      "x": 78,
      "y": 387,
      "size": 1,
      "price": "1011000000000000000000",
      "reserved": "",
      "salt": "0xbdac6741eb1bc9ccd42e69e95c4aeab612b5d8a2bb950388fa10326a9924d765",
      "assetIds": []
    },
    {
      "x": 78,
      "y": 388,
      "size": 1,
      "price": "1011000000000000000000",
      "reserved": "",
      "salt": "0x5c7359198d377cb0a16cabcca6d2c7517551114193b5c2ad125b85e45239b2e3",
      "assetIds": []
    },
    {
      "x": 78,
      "y": 389,
      "size": 1,
      "price": "1011000000000000000000",
      "reserved": "",
      "salt": "0x1ebbdfd21945d4a2eb0a6867ebea3c4fe29d151c2d47eacafdce329af3c5a414",
      "assetIds": []
    },
    {
      "x": 78,
      "y": 390,
      "size": 1,
      "price": "1011000000000000000000",
      "reserved": "0x7a9fe22691c811ea339d9b73150e6911a5343dca",
      "salt": "0xedaf65dc3004d735c1d23a5903b10578e1801b746f4dd955968ff21f108aac59",
      "assetIds": []
    },
    {
      "x": 78,
      "y": 391,
      "size": 1,
      "price": "1011000000000000000000",
      "reserved": "",
      "salt": "0x77117d8bb34f94d804bf0db48432cd98c692b9a0a3b4720dcf3ba19452fe663c",
      "assetIds": []
    },
    {
      "x": 78,
      "y": 392,
      "size": 1,
      "price": "1011000000000000000000",
      "reserved": "",
      "salt": "0x0da2efdecbac11eb24e1e7ce0e37545b8c9715240df593366d2a050402cb1544",
      "assetIds": []
    },
    {
      "x": 78,
      "y": 393,
      "size": 1,
      "price": "1011000000000000000000",
      "reserved": "",
      "salt": "0x7dd2a469ad04efcf25fa9444dfa141b36bbf3b2b188e782426654a55f9529b7e",
      "assetIds": []
    },
    {
      "x": 78,
      "y": 394,
      "size": 1,
      "price": "1011000000000000000000",
      "reserved": "",
      "salt": "0xa6892ca3bda2a42d2933885b2493b87c826dd4976d2f43e46c016e790df853aa",
      "assetIds": []
    },
    {
      "x": 78,
      "y": 395,
      "size": 1,
      "price": "1011000000000000000000",
      "reserved": "",
      "salt": "0x9525ec173b8b6dbba748008df3062592ee9aafa7cb0b91699eae63ce0345b0c4",
      "assetIds": []
    },
    {
      "x": 78,
      "y": 396,
      "size": 1,
      "price": "4683000000000000000000",
      "reserved": "",
      "salt": "0x687302962191a7aeac89ad14c61ab5bf73df316c3916016ba705122aa44af688",
      "assetIds": [
        "55464657044963196816950587289035428064568320970692304673817341489687891546112",
        "55464657044963196816950587289035428064568320970692304673817341489687891546113",
        "55464657044963196816950587289035428064568320970692304673817341489687899934720",
        "55464657044963196816950587289035428064568320970692304673817341489687899934721",
        "55464657044963196816950587289035428064568320970692304673817341489687908321280"
      ]
    },
    {
      "x": 78,
      "y": 397,
      "size": 1,
      "price": "1011000000000000000000",
      "reserved": "0x7a9fe22691c811ea339d9b73150e6911a5343dca",
      "salt": "0xfc2e0b021382c138abc23051bbbace1d45d1e60739a0954fdbcbc3fc110a2289",
      "assetIds": []
    },
    {
      "x": 78,
      "y": 398,
      "size": 1,
      "price": "4683000000000000000000",
      "reserved": "",
      "salt": "0xe7c6beae8c1887496642f42ae9efdd050a30a14ef22945ed70cc17996a4e11e3",
      "assetIds": [
        "55464657044963196816950587289035428064568320970692304673817341489687891546112",
        "55464657044963196816950587289035428064568320970692304673817341489687891546113",
        "55464657044963196816950587289035428064568320970692304673817341489687899934720",
        "55464657044963196816950587289035428064568320970692304673817341489687899934721",
        "55464657044963196816950587289035428064568320970692304673817341489687908321280"
      ]
    },
    {
      "x": 78,
      "y": 399,
      "size": 1,
      "price": "4683000000000000000000",
      "reserved": "",
      "salt": "0x40a4beb6e3b23c62ffc05ca58bc6ff36f3e795f889c44bfcd30a965ce994f7dd",
      "assetIds": [
        "55464657044963196816950587289035428064568320970692304673817341489687891546112",
        "55464657044963196816950587289035428064568320970692304673817341489687891546113",
        "55464657044963196816950587289035428064568320970692304673817341489687899934720",
        "55464657044963196816950587289035428064568320970692304673817341489687899934721",
        "55464657044963196816950587289035428064568320970692304673817341489687908321280"
      ]
    },
    {
      "x": 78,
      "y": 400,
      "size": 1,
      "price": "1011000000000000000000",
      "reserved": "",
      "salt": "0x695fd1832ab777ec901d83e48611b7b0efb0b4067600281a1abfd646ad268a16",
      "assetIds": []
    },
    {
      "x": 78,
      "y": 401,
      "size": 1,
      "price": "1011000000000000000000",
      "reserved": "",
      "salt": "0x7b283c6fb745631fe727d010e590a4c5dda1fa5cd64f8ec6557a2e7fe8d5f80b",
      "assetIds": []
    },
    {
      "x": 78,
      "y": 402,
      "size": 1,
      "price": "1011000000000000000000",
      "reserved": "",
      "salt": "0xe908e19114569468e820d78c47562f65837aa6d9fc52ea2e0fbef234b1af79c9",
      "assetIds": []
    },
    {
      "x": 78,
      "y": 403,
      "size": 1,
      "price": "1011000000000000000000",
      "reserved": "",
      "salt": "0x5700f222f99c17dbecbef90e193853b15506ac630f45f7378371c9dbbd23b612",
      "assetIds": []
    },
    {
      "x": 78,
      "y": 404,
      "size": 1,
      "price": "1011000000000000000000",
      "reserved": "",
      "salt": "0xf69b856f9e303f1610aa1b49d8a9e8fc37de0bb05cc6e8dcb4ff6dc7405ab5bf",
      "assetIds": []
    },
    {
      "x": 78,
      "y": 405,
      "size": 1,
      "price": "1011000000000000000000",
      "reserved": "",
      "salt": "0x386c91dfd05363f42efb17fe2324c6e271a2f7cdf7bb50cb15411a27b69ab929",
      "assetIds": []
    },
    {
      "x": 78,
      "y": 406,
      "size": 1,
      "price": "1011000000000000000000",
      "reserved": "",
      "salt": "0x9a71e8da5852a963b3c273dfbfb16c4f1f86e75a04bf63ce3654529a36aa1812",
      "assetIds": []
    },
    {
      "x": 78,
      "y": 407,
      "size": 1,
      "price": "1011000000000000000000",
      "reserved": "",
      "salt": "0xd08ad4ec83aebcc36720345a2de26b6eb7c51d0b9733f99f300dcf6a5590be50",
      "assetIds": []
    },
    {
      "x": 79,
      "y": 384,
      "size": 1,
      "price": "4683000000000000000000",
      "reserved": "",
      "salt": "0x6fd0c4c1951d812fb04bbae7866b97a6be473adffb72c4f41c3fc17fd19b0cda",
      "assetIds": [
        "55464657044963196816950587289035428064568320970692304673817341489687891546112",
        "55464657044963196816950587289035428064568320970692304673817341489687891546113",
        "55464657044963196816950587289035428064568320970692304673817341489687899934720",
        "55464657044963196816950587289035428064568320970692304673817341489687899934721",
        "55464657044963196816950587289035428064568320970692304673817341489687908321280"
      ]
    },
    {
      "x": 79,
      "y": 385,
      "size": 1,
      "price": "4683000000000000000000",
      "reserved": "",
      "salt": "0xf24e96f9da4dcbae33df2603e413efcf31f9e27ea8136d343f21c99bf4e635e7",
      "assetIds": [
        "55464657044963196816950587289035428064568320970692304673817341489687891546112",
        "55464657044963196816950587289035428064568320970692304673817341489687891546113",
        "55464657044963196816950587289035428064568320970692304673817341489687899934720",
        "55464657044963196816950587289035428064568320970692304673817341489687899934721",
        "55464657044963196816950587289035428064568320970692304673817341489687908321280"
      ]
    },
    {
      "x": 79,
      "y": 386,
      "size": 1,
      "price": "1011000000000000000000",
      "reserved": "",
      "salt": "0x90bb74bf4f832a50e2be813047da96a73c76aa88bac770343aa7d11a794e1c70",
      "assetIds": []
    },
    {
      "x": 79,
      "y": 387,
      "size": 1,
      "price": "1011000000000000000000",
      "reserved": "",
      "salt": "0x366544d19f153f1f3fa2685c38c04f62d00b620717ed96e208396b399dcccde5",
      "assetIds": []
    },
    {
      "x": 79,
      "y": 388,
      "size": 1,
      "price": "1011000000000000000000",
      "reserved": "",
      "salt": "0xdd24e43877563a6eec0e6f994279bd6fb3e7af4bf1ee0d42684a35285da8d5d5",
      "assetIds": []
    },
    {
      "x": 79,
      "y": 389,
      "size": 1,
      "price": "1011000000000000000000",
      "reserved": "",
      "salt": "0xe99f17ef45e5ae0693810eff1265d82f1b06c00a1cd1b9b578fa03a288c44ffc",
      "assetIds": []
    },
    {
      "x": 79,
      "y": 390,
      "size": 1,
      "price": "1011000000000000000000",
      "reserved": "",
      "salt": "0x2a2ef890f4734a7c3cd1ed74dcf2d497a646dc49a4749d8be017ce97ff4b6b3a",
      "assetIds": []
    },
    {
      "x": 79,
      "y": 391,
      "size": 1,
      "price": "1011000000000000000000",
      "reserved": "",
      "salt": "0x17e704d0881dfbc7d57cb1f9d4ef46bfc01d426c04019c4fb3a17d306ee88d87",
      "assetIds": []
    },
    {
      "x": 79,
      "y": 392,
      "size": 1,
      "price": "1011000000000000000000",
      "reserved": "",
      "salt": "0xf49ef53b443d1062f0512fcf200ed28f424a2b222ecbbc0c2e121192850544ae",
      "assetIds": []
    },
    {
      "x": 79,
      "y": 393,
      "size": 1,
      "price": "1011000000000000000000",
      "reserved": "",
      "salt": "0xfbcc0afb9c53e688ba8af88d0256c514ceebc0e59c447482e5a2e52e0e69f265",
      "assetIds": []
    },
    {
      "x": 79,
      "y": 394,
      "size": 1,
      "price": "1011000000000000000000",
      "reserved": "",
      "salt": "0x99fb7e93c4ef43046ddae0ea69834eab40a6fce588abd157a23ff4e7e86fdd47",
      "assetIds": []
    },
    {
      "x": 79,
      "y": 395,
      "size": 1,
      "price": "1011000000000000000000",
      "reserved": "0x7a9fe22691c811ea339d9b73150e6911a5343dca",
      "salt": "0x640bec3b13186fdd8ce71d8e1333c12eacf56c7233e4155179acb44b42e236c7",
      "assetIds": []
    },
    {
      "x": 79,
      "y": 396,
      "size": 1,
      "price": "4683000000000000000000",
      "reserved": "",
      "salt": "0x95b114a7e9d3fe0a65b93de420e553be001c877f87796e9d18be8477a7e3e7be",
      "assetIds": [
        "55464657044963196816950587289035428064568320970692304673817341489687891546112",
        "55464657044963196816950587289035428064568320970692304673817341489687891546113",
        "55464657044963196816950587289035428064568320970692304673817341489687899934720",
        "55464657044963196816950587289035428064568320970692304673817341489687899934721",
        "55464657044963196816950587289035428064568320970692304673817341489687908321280"
      ]
    },
    {
      "x": 79,
      "y": 397,
      "size": 1,
      "price": "4683000000000000000000",
      "reserved": "",
      "salt": "0x116a57ea1963cbcf6fe4cc430269b6283ac6e1e779b4de6ee3c8e392bb2361ea",
      "assetIds": [
        "55464657044963196816950587289035428064568320970692304673817341489687891546112",
        "55464657044963196816950587289035428064568320970692304673817341489687891546113",
        "55464657044963196816950587289035428064568320970692304673817341489687899934720",
        "55464657044963196816950587289035428064568320970692304673817341489687899934721",
        "55464657044963196816950587289035428064568320970692304673817341489687908321280"
      ]
    },
    {
      "x": 79,
      "y": 398,
      "size": 1,
      "price": "4683000000000000000000",
      "reserved": "",
      "salt": "0x8d3c43690cf71c8aaddfb83c16d74a88b6cd06f9d6462f316db9d6c57a369bb9",
      "assetIds": [
        "55464657044963196816950587289035428064568320970692304673817341489687891546112",
        "55464657044963196816950587289035428064568320970692304673817341489687891546113",
        "55464657044963196816950587289035428064568320970692304673817341489687899934720",
        "55464657044963196816950587289035428064568320970692304673817341489687899934721",
        "55464657044963196816950587289035428064568320970692304673817341489687908321280"
      ]
    },
    {
      "x": 79,
      "y": 399,
      "size": 1,
      "price": "4683000000000000000000",
      "reserved": "",
      "salt": "0x3877efae95c230b2376aad0cb8ef2f659590fa952b63d02c7ee241895ea245ab",
      "assetIds": [
        "55464657044963196816950587289035428064568320970692304673817341489687891546112",
        "55464657044963196816950587289035428064568320970692304673817341489687891546113",
        "55464657044963196816950587289035428064568320970692304673817341489687899934720",
        "55464657044963196816950587289035428064568320970692304673817341489687899934721",
        "55464657044963196816950587289035428064568320970692304673817341489687908321280"
      ]
    },
    {
      "x": 79,
      "y": 400,
      "size": 1,
      "price": "1011000000000000000000",
      "reserved": "0x7a9fe22691c811ea339d9b73150e6911a5343dca",
      "salt": "0x1b4bf53f10e28894f37427d0c4a0aa654e652e119814d3e7aaa8f50a1c24c5fa",
      "assetIds": []
    },
    {
      "x": 79,
      "y": 401,
      "size": 1,
      "price": "1011000000000000000000",
      "reserved": "",
      "salt": "0xeb0e8d19ae343cee31268fa9b98cb39065c698aec3f373d24cbdc1bbc73656d8",
      "assetIds": []
    },
    {
      "x": 79,
      "y": 402,
      "size": 1,
      "price": "1011000000000000000000",
      "reserved": "",
      "salt": "0x9d157aec1d5f7e27347aee78b292304c58da2b71c0ddd2c1ba0b201dce45abf6",
      "assetIds": []
    },
    {
      "x": 79,
      "y": 403,
      "size": 1,
      "price": "1011000000000000000000",
      "reserved": "",
      "salt": "0x17804148538e8875d2014eeb440092030b616819448e393318e6cb4ee225b096",
      "assetIds": []
    },
    {
      "x": 79,
      "y": 404,
      "size": 1,
      "price": "1011000000000000000000",
      "reserved": "",
      "salt": "0x457b5c8eb0d0fb4f51d5de98b4ef7c2daa6af354314f4ea1e41d372f6decf5d3",
      "assetIds": []
    },
    {
      "x": 79,
      "y": 405,
      "size": 1,
      "price": "1011000000000000000000",
      "reserved": "",
      "salt": "0xc68b1ced6c289861cbce64b6735fd0abea480056bda3d2b22cdcf74f6aee0c47",
      "assetIds": []
    },
    {
      "x": 79,
      "y": 406,
      "size": 1,
      "price": "1011000000000000000000",
      "reserved": "",
      "salt": "0x6662b75c60dd7e0947daed12e1d143ee3d25be95af2ca6b50e67c24a58644c29",
      "assetIds": []
    },
    {
      "x": 79,
      "y": 407,
      "size": 1,
      "price": "1011000000000000000000",
      "reserved": "",
      "salt": "0x3ddd68e65cf2b6fb635ec9270f890bd6bfb4825a0661feacdcd2b41f5bce8c75",
      "assetIds": []
    },
    {
      "x": 80,
      "y": 384,
      "size": 1,
      "price": "4683000000000000000000",
      "reserved": "",
      "salt": "0xcc228921f479d4a515850216b59f2521167edbba43cd06ae45cdb1e2a17e1e84",
      "assetIds": [
        "55464657044963196816950587289035428064568320970692304673817341489687891546112",
        "55464657044963196816950587289035428064568320970692304673817341489687891546113",
        "55464657044963196816950587289035428064568320970692304673817341489687899934720",
        "55464657044963196816950587289035428064568320970692304673817341489687899934721",
        "55464657044963196816950587289035428064568320970692304673817341489687908321280"
      ]
    },
    {
      "x": 80,
      "y": 385,
      "size": 1,
      "price": "4683000000000000000000",
      "reserved": "",
      "salt": "0x43bbfceb9b7ee1d917cedc7efcbb609d67d07ab475476b227617af87fb6d049d",
      "assetIds": [
        "55464657044963196816950587289035428064568320970692304673817341489687891546112",
        "55464657044963196816950587289035428064568320970692304673817341489687891546113",
        "55464657044963196816950587289035428064568320970692304673817341489687899934720",
        "55464657044963196816950587289035428064568320970692304673817341489687899934721",
        "55464657044963196816950587289035428064568320970692304673817341489687908321280"
      ]
    },
    {
      "x": 80,
      "y": 386,
      "size": 1,
      "price": "1011000000000000000000",
      "reserved": "",
      "salt": "0xcc3e90e4f8a0e8f425e60a1699a80db1a368df0d10a7d9b2a24f8f363c6a4925",
      "assetIds": []
    },
    {
      "x": 80,
      "y": 387,
      "size": 1,
      "price": "1011000000000000000000",
      "reserved": "",
      "salt": "0xaf117353172d9ba5888f8b9745d1b49cffdb5b0eae8452749bf40035a2b5dd28",
      "assetIds": []
    },
    {
      "x": 80,
      "y": 388,
      "size": 1,
      "price": "1011000000000000000000",
      "reserved": "",
      "salt": "0xa0d8395f7a96c5ec4802ad9d14ec23bad077ee300405fac8a66699a7c92c7fe1",
      "assetIds": []
    },
    {
      "x": 80,
      "y": 389,
      "size": 1,
      "price": "1011000000000000000000",
      "reserved": "",
      "salt": "0xc7556167271aa6318f4ad04362ccb111f981936308e3148266381089995a5ba9",
      "assetIds": []
    },
    {
      "x": 80,
      "y": 390,
      "size": 1,
      "price": "1011000000000000000000",
      "reserved": "",
      "salt": "0x1a7d2e24e82066500b651467c31ebca584ddbde725f6be0fe18e9f5b7863a3d6",
      "assetIds": []
    },
    {
      "x": 80,
      "y": 391,
      "size": 1,
      "price": "1011000000000000000000",
      "reserved": "",
      "salt": "0xd36cd8c051dc4e4d1c2173ba2a20d9ab1b27dc2cc92edc44dd69fa419c1c6c99",
      "assetIds": []
    },
    {
      "x": 80,
      "y": 392,
      "size": 1,
      "price": "1011000000000000000000",
      "reserved": "",
      "salt": "0xa9224997f463bd9e10c8aed0d1875df21bafaf71edd7828dccd7f71e435c9bfa",
      "assetIds": []
    },
    {
      "x": 80,
      "y": 393,
      "size": 1,
      "price": "1011000000000000000000",
      "reserved": "",
      "salt": "0xdf672fcfd3a32e010e9182490c89b952b4fb018f4544d8a4a31195b366ae52b4",
      "assetIds": []
    },
    {
      "x": 80,
      "y": 394,
      "size": 1,
      "price": "1011000000000000000000",
      "reserved": "",
      "salt": "0xa4157ca45dc5f20f2f0ad924c81e24526ccf28bb17b63eb0ce005973007169c4",
      "assetIds": []
    },
    {
      "x": 80,
      "y": 395,
      "size": 1,
      "price": "4683000000000000000000",
      "reserved": "",
      "salt": "0x62775c043e2ef578f087335cf52f74f16347afead860eb7527d9a5f4178233a6",
      "assetIds": [
        "55464657044963196816950587289035428064568320970692304673817341489687891546112",
        "55464657044963196816950587289035428064568320970692304673817341489687891546113",
        "55464657044963196816950587289035428064568320970692304673817341489687899934720",
        "55464657044963196816950587289035428064568320970692304673817341489687899934721",
        "55464657044963196816950587289035428064568320970692304673817341489687908321280"
      ]
    },
    {
      "x": 80,
      "y": 396,
      "size": 1,
      "price": "4683000000000000000000",
      "reserved": "",
      "salt": "0x8474641246f75cc1fcef36c0120766b67e531d2eaeb8d5b561145054d3aec77e",
      "assetIds": [
        "55464657044963196816950587289035428064568320970692304673817341489687891546112",
        "55464657044963196816950587289035428064568320970692304673817341489687891546113",
        "55464657044963196816950587289035428064568320970692304673817341489687899934720",
        "55464657044963196816950587289035428064568320970692304673817341489687899934721",
        "55464657044963196816950587289035428064568320970692304673817341489687908321280"
      ]
    },
    {
      "x": 80,
      "y": 397,
      "size": 1,
      "price": "4683000000000000000000",
      "reserved": "",
      "salt": "0x71cb80a888a103f1aefda05a13f2daa08e022539d74232aebc63b36d20f0257e",
      "assetIds": [
        "55464657044963196816950587289035428064568320970692304673817341489687891546112",
        "55464657044963196816950587289035428064568320970692304673817341489687891546113",
        "55464657044963196816950587289035428064568320970692304673817341489687899934720",
        "55464657044963196816950587289035428064568320970692304673817341489687899934721",
        "55464657044963196816950587289035428064568320970692304673817341489687908321280"
      ]
    },
    {
      "x": 80,
      "y": 398,
      "size": 1,
      "price": "4683000000000000000000",
      "reserved": "",
      "salt": "0x62688f2f2f057429e35804af9bb35dc55810d38eb69d0fd7c0e98d22e0f866be",
      "assetIds": [
        "55464657044963196816950587289035428064568320970692304673817341489687891546112",
        "55464657044963196816950587289035428064568320970692304673817341489687891546113",
        "55464657044963196816950587289035428064568320970692304673817341489687899934720",
        "55464657044963196816950587289035428064568320970692304673817341489687899934721",
        "55464657044963196816950587289035428064568320970692304673817341489687908321280"
      ]
    },
    {
      "x": 80,
      "y": 399,
      "size": 1,
      "price": "4683000000000000000000",
      "reserved": "",
      "salt": "0xd3d11de435683cf3582208cf804048b30377a2d67853829d02c165dccf2b52fd",
      "assetIds": [
        "55464657044963196816950587289035428064568320970692304673817341489687891546112",
        "55464657044963196816950587289035428064568320970692304673817341489687891546113",
        "55464657044963196816950587289035428064568320970692304673817341489687899934720",
        "55464657044963196816950587289035428064568320970692304673817341489687899934721",
        "55464657044963196816950587289035428064568320970692304673817341489687908321280"
      ]
    },
    {
      "x": 80,
      "y": 400,
      "size": 1,
      "price": "4683000000000000000000",
      "reserved": "",
      "salt": "0xd95a42a5e4c4ccdd403865dc72fdae3622aed8a3c25cd9e52482535ef5280e1a",
      "assetIds": [
        "55464657044963196816950587289035428064568320970692304673817341489687891546112",
        "55464657044963196816950587289035428064568320970692304673817341489687891546113",
        "55464657044963196816950587289035428064568320970692304673817341489687899934720",
        "55464657044963196816950587289035428064568320970692304673817341489687899934721",
        "55464657044963196816950587289035428064568320970692304673817341489687908321280"
      ]
    },
    {
      "x": 80,
      "y": 401,
      "size": 1,
      "price": "1011000000000000000000",
      "reserved": "",
      "salt": "0x0e5db5315f07008c1c98a42c7952480a93d415f1e8aed0f56c233d53afd65445",
      "assetIds": []
    },
    {
      "x": 80,
      "y": 402,
      "size": 1,
      "price": "1011000000000000000000",
      "reserved": "",
      "salt": "0x177422b798ccd36ea6c55deca40f55e84d7ce0dfe38055f19d8cfe885b95a78d",
      "assetIds": []
    },
    {
      "x": 80,
      "y": 403,
      "size": 1,
      "price": "1011000000000000000000",
      "reserved": "",
      "salt": "0xa611f68df3c839edf4d3b9b14344b525f1a0fafd42768ac03502f4bf0f5c1c6e",
      "assetIds": []
    },
    {
      "x": 80,
      "y": 404,
      "size": 1,
      "price": "1011000000000000000000",
      "reserved": "",
      "salt": "0x32bbf24e3e61486161b0b480cecd337f5117671b86de961420428ad2fba6c702",
      "assetIds": []
    },
    {
      "x": 80,
      "y": 405,
      "size": 1,
      "price": "1011000000000000000000",
      "reserved": "0x7a9fe22691c811ea339d9b73150e6911a5343dca",
      "salt": "0x6adbb3dfb48c370b0f48c4e20d0ff31c6feb0ee2643a2184af9d55c695b696a1",
      "assetIds": []
    },
    {
      "x": 80,
      "y": 406,
      "size": 1,
      "price": "1011000000000000000000",
      "reserved": "",
      "salt": "0x85b4f0e9eb5f39a3b16eca54e84a5ffb2ea8dbde3c5fcda23b6ce7115ab831f7",
      "assetIds": []
    },
    {
      "x": 80,
      "y": 407,
      "size": 1,
      "price": "1011000000000000000000",
      "reserved": "",
      "salt": "0xc74d34aa106da6f78f0353ed912b796287dfb14078ae5cd6ee669fc40ade5d81",
      "assetIds": []
    },
    {
      "x": 81,
      "y": 384,
      "size": 1,
      "price": "4683000000000000000000",
      "reserved": "",
      "salt": "0x2bcbbcbb1309f6ea51a01ad47891d57ea6b8e9a9366785f924e211121d5aafc9",
      "assetIds": [
        "55464657044963196816950587289035428064568320970692304673817341489687891546112",
        "55464657044963196816950587289035428064568320970692304673817341489687891546113",
        "55464657044963196816950587289035428064568320970692304673817341489687899934720",
        "55464657044963196816950587289035428064568320970692304673817341489687899934721",
        "55464657044963196816950587289035428064568320970692304673817341489687908321280"
      ]
    },
    {
      "x": 81,
      "y": 385,
      "size": 1,
      "price": "4683000000000000000000",
      "reserved": "",
      "salt": "0x9c6552a197c024c41b05e11f40935b193421d6bbeb71bb85205888830882ddcc",
      "assetIds": [
        "55464657044963196816950587289035428064568320970692304673817341489687891546112",
        "55464657044963196816950587289035428064568320970692304673817341489687891546113",
        "55464657044963196816950587289035428064568320970692304673817341489687899934720",
        "55464657044963196816950587289035428064568320970692304673817341489687899934721",
        "55464657044963196816950587289035428064568320970692304673817341489687908321280"
      ]
    },
    {
      "x": 81,
      "y": 386,
      "size": 1,
      "price": "1011000000000000000000",
      "reserved": "",
      "salt": "0xf59416abcf51be511b37f7edce2f44d4c772c5ec34bef93779a7531c040ecff1",
      "assetIds": []
    },
    {
      "x": 81,
      "y": 387,
      "size": 1,
      "price": "1011000000000000000000",
      "reserved": "",
      "salt": "0x1fbf4b58594ce6350ffee79b9916e1b3fb91826845f0e571fb6598c65dcfb473",
      "assetIds": []
    },
    {
      "x": 81,
      "y": 388,
      "size": 1,
      "price": "1011000000000000000000",
      "reserved": "",
      "salt": "0xef2e86b297dcafdfcfd0249c61156212e790d3b3739f51517a6ee53e9958e1e3",
      "assetIds": []
    },
    {
      "x": 81,
      "y": 389,
      "size": 1,
      "price": "1011000000000000000000",
      "reserved": "",
      "salt": "0xe84b0d7a409c99d9bd155766d60837a28961c5517bfe1e71017c073c46ab35ec",
      "assetIds": []
    },
    {
      "x": 81,
      "y": 390,
      "size": 1,
      "price": "1011000000000000000000",
      "reserved": "",
      "salt": "0x9ef605740ef32e4f8c85b83aa17c4eb2478c21df35d3d6cedf7f3a7ba894d966",
      "assetIds": []
    },
    {
      "x": 81,
      "y": 391,
      "size": 1,
      "price": "1011000000000000000000",
      "reserved": "",
      "salt": "0x1556f02f6cd479f826465128f20aba09ffe65e0e3eb3486e99cd93fcc77a64d1",
      "assetIds": []
    },
    {
      "x": 81,
      "y": 392,
      "size": 1,
      "price": "1011000000000000000000",
      "reserved": "",
      "salt": "0x82853aaa1330f0c6b7283912abd5f574e2268e298bf7623fa0165058f83a853f",
      "assetIds": []
    },
    {
      "x": 81,
      "y": 393,
      "size": 1,
      "price": "1011000000000000000000",
      "reserved": "",
      "salt": "0x892e9ce5629cee4a1b90326747d8683324d4f176a1a12eaeae7333317dae6932",
      "assetIds": []
    },
    {
      "x": 81,
      "y": 394,
      "size": 1,
      "price": "4683000000000000000000",
      "reserved": "",
      "salt": "0xfc9eff89d1e3bd5efb70e0ada163f77e96c62bab86ccc139430e03c33a794acc",
      "assetIds": [
        "55464657044963196816950587289035428064568320970692304673817341489687891546112",
        "55464657044963196816950587289035428064568320970692304673817341489687891546113",
        "55464657044963196816950587289035428064568320970692304673817341489687899934720",
        "55464657044963196816950587289035428064568320970692304673817341489687899934721",
        "55464657044963196816950587289035428064568320970692304673817341489687908321280"
      ]
    },
    {
      "x": 81,
      "y": 395,
      "size": 1,
      "price": "4683000000000000000000",
      "reserved": "",
      "salt": "0x013361b1728ac559c16a8f07fbfa66a8e5015186ea19f0ce618a686cd58803ca",
      "assetIds": [
        "55464657044963196816950587289035428064568320970692304673817341489687891546112",
        "55464657044963196816950587289035428064568320970692304673817341489687891546113",
        "55464657044963196816950587289035428064568320970692304673817341489687899934720",
        "55464657044963196816950587289035428064568320970692304673817341489687899934721",
        "55464657044963196816950587289035428064568320970692304673817341489687908321280"
      ]
    },
    {
      "x": 81,
      "y": 399,
      "size": 1,
      "price": "4683000000000000000000",
      "reserved": "",
      "salt": "0x0ac6b0cdebe10396d91fe4e62879d739bba72df6804e0b04b8f475520fb445af",
      "assetIds": [
        "55464657044963196816950587289035428064568320970692304673817341489687891546112",
        "55464657044963196816950587289035428064568320970692304673817341489687891546113",
        "55464657044963196816950587289035428064568320970692304673817341489687899934720",
        "55464657044963196816950587289035428064568320970692304673817341489687899934721",
        "55464657044963196816950587289035428064568320970692304673817341489687908321280"
      ]
    },
    {
      "x": 81,
      "y": 400,
      "size": 1,
      "price": "4683000000000000000000",
      "reserved": "",
      "salt": "0x933ab5d709921093ed76c5282c100f66d872ba69950fb1f4ee800063dee99f34",
      "assetIds": [
        "55464657044963196816950587289035428064568320970692304673817341489687891546112",
        "55464657044963196816950587289035428064568320970692304673817341489687891546113",
        "55464657044963196816950587289035428064568320970692304673817341489687899934720",
        "55464657044963196816950587289035428064568320970692304673817341489687899934721",
        "55464657044963196816950587289035428064568320970692304673817341489687908321280"
      ]
    },
    {
      "x": 81,
      "y": 401,
      "size": 1,
      "price": "4683000000000000000000",
      "reserved": "",
      "salt": "0xaa280975a28af87168c5ada27d90700ec93eb9c3bb17b3c16a87f80ed04f2bcc",
      "assetIds": [
        "55464657044963196816950587289035428064568320970692304673817341489687891546112",
        "55464657044963196816950587289035428064568320970692304673817341489687891546113",
        "55464657044963196816950587289035428064568320970692304673817341489687899934720",
        "55464657044963196816950587289035428064568320970692304673817341489687899934721",
        "55464657044963196816950587289035428064568320970692304673817341489687908321280"
      ]
    },
    {
      "x": 81,
      "y": 402,
      "size": 1,
      "price": "1011000000000000000000",
      "reserved": "",
      "salt": "0xcfe9c96e11cd866a661861b39646af4b579c53ab5d432448794b31b293e804ff",
      "assetIds": []
    },
    {
      "x": 81,
      "y": 403,
      "size": 1,
      "price": "1011000000000000000000",
      "reserved": "",
      "salt": "0x45595e8b1d7ef5f196e4ac2081f0721d1e8c57171bcc4f0c5ce80bbc9356142d",
      "assetIds": []
    },
    {
      "x": 81,
      "y": 404,
      "size": 1,
      "price": "1011000000000000000000",
      "reserved": "",
      "salt": "0xc40d038cc0763a3ab33b59497431fafb2dcd4d169508a7886b51dcabd90ca060",
      "assetIds": []
    },
    {
      "x": 81,
      "y": 405,
      "size": 1,
      "price": "1011000000000000000000",
      "reserved": "",
      "salt": "0x3768e71516b54e275d1f94d03228359b18f4a3090f313898d89f48f442dbc21e",
      "assetIds": []
    },
    {
      "x": 81,
      "y": 406,
      "size": 1,
      "price": "1011000000000000000000",
      "reserved": "",
      "salt": "0x6a99fa9b38fbec8d035464bf3a5ab5f95165396711229f3b72267c4a9113b890",
      "assetIds": []
    },
    {
      "x": 81,
      "y": 407,
      "size": 1,
      "price": "1011000000000000000000",
      "reserved": "",
      "salt": "0x9e8f0138610b252d97c7ed3c00e6d2872dd57de97098e0388386ed16f307d0bb",
      "assetIds": []
    },
    {
      "x": 82,
      "y": 384,
      "size": 1,
      "price": "4683000000000000000000",
      "reserved": "",
      "salt": "0x731fd54cfdff6851af91f12d0cc5a58dfadef33fb7b4f46a7e3a0d56d760d1f6",
      "assetIds": [
        "55464657044963196816950587289035428064568320970692304673817341489687891546112",
        "55464657044963196816950587289035428064568320970692304673817341489687891546113",
        "55464657044963196816950587289035428064568320970692304673817341489687899934720",
        "55464657044963196816950587289035428064568320970692304673817341489687899934721",
        "55464657044963196816950587289035428064568320970692304673817341489687908321280"
      ]
    },
    {
      "x": 82,
      "y": 385,
      "size": 1,
      "price": "4683000000000000000000",
      "reserved": "",
      "salt": "0x6537e1b695f9a878a4b149efb98b688f6c1e5df99d08bde8c7772f3765658fe8",
      "assetIds": [
        "55464657044963196816950587289035428064568320970692304673817341489687891546112",
        "55464657044963196816950587289035428064568320970692304673817341489687891546113",
        "55464657044963196816950587289035428064568320970692304673817341489687899934720",
        "55464657044963196816950587289035428064568320970692304673817341489687899934721",
        "55464657044963196816950587289035428064568320970692304673817341489687908321280"
      ]
    },
    {
      "x": 82,
      "y": 386,
      "size": 1,
      "price": "1011000000000000000000",
      "reserved": "",
      "salt": "0x47ae5d8d55fb0c3ad1387aa3f7a5bed72b47b77340dde96c8d5f43db357132b4",
      "assetIds": []
    },
    {
      "x": 82,
      "y": 387,
      "size": 1,
      "price": "1011000000000000000000",
      "reserved": "",
      "salt": "0x38e910ce25a881d7abc383592892fd2f9727eb4a61e4979b6e0ea9c462c7040d",
      "assetIds": []
    },
    {
      "x": 82,
      "y": 388,
      "size": 1,
      "price": "1011000000000000000000",
      "reserved": "",
      "salt": "0x1c8a3adb91a032db07111e992f5e2bf7bb4066e30b6752eed3b446d923c652b3",
      "assetIds": []
    },
    {
      "x": 82,
      "y": 389,
      "size": 1,
      "price": "1011000000000000000000",
      "reserved": "",
      "salt": "0xed48f6f46784edca56064bf399ab433ed690749c68fa4b42da05837a0f85ef7a",
      "assetIds": []
    },
    {
      "x": 82,
      "y": 390,
      "size": 1,
      "price": "1011000000000000000000",
      "reserved": "",
      "salt": "0xcdd24af63dfc6c628f1144db9c268e43ade74d9b3f7474ddb3549bd8695721fd",
      "assetIds": []
    },
    {
      "x": 82,
      "y": 391,
      "size": 1,
      "price": "1011000000000000000000",
      "reserved": "",
      "salt": "0x7f3a007c781f5f53c3051a780c9756d83f7ad8305af26deede7fb190e1eaf8c8",
      "assetIds": []
    },
    {
      "x": 82,
      "y": 392,
      "size": 1,
      "price": "1011000000000000000000",
      "reserved": "",
      "salt": "0x89ed9de7ad1121126dd45c9737e509b984bfecca22ae66405fb681fd7938783d",
      "assetIds": []
    },
    {
      "x": 82,
      "y": 393,
      "size": 1,
      "price": "1011000000000000000000",
      "reserved": "",
      "salt": "0x2c33fd64d8ae99e1d5618a82d03f8b6111b717fa73c1586c09627c15ebd911d2",
      "assetIds": []
    },
    {
      "x": 82,
      "y": 394,
      "size": 1,
      "price": "1011000000000000000000",
      "reserved": "0x7a9fe22691c811ea339d9b73150e6911a5343dca",
      "salt": "0x56d9d64747656049f08e158c8d4c97cae2b8f1d42984a9da9dd30d0474af7f99",
      "assetIds": []
    },
    {
      "x": 82,
      "y": 395,
      "size": 1,
      "price": "4683000000000000000000",
      "reserved": "",
      "salt": "0xa23b7c453a0e8b179ec952b834a680cdeaaeef2effe1bd5ad5760b98da2cd5d9",
      "assetIds": [
        "55464657044963196816950587289035428064568320970692304673817341489687891546112",
        "55464657044963196816950587289035428064568320970692304673817341489687891546113",
        "55464657044963196816950587289035428064568320970692304673817341489687899934720",
        "55464657044963196816950587289035428064568320970692304673817341489687899934721",
        "55464657044963196816950587289035428064568320970692304673817341489687908321280"
      ]
    },
    {
      "x": 82,
      "y": 399,
      "size": 1,
      "price": "4683000000000000000000",
      "reserved": "",
      "salt": "0x5f90d5244414680f76c2048bf6fae0454df3ec03e1c553093cc5c2ce2e3d858c",
      "assetIds": [
        "55464657044963196816950587289035428064568320970692304673817341489687891546112",
        "55464657044963196816950587289035428064568320970692304673817341489687891546113",
        "55464657044963196816950587289035428064568320970692304673817341489687899934720",
        "55464657044963196816950587289035428064568320970692304673817341489687899934721",
        "55464657044963196816950587289035428064568320970692304673817341489687908321280"
      ]
    },
    {
      "x": 82,
      "y": 400,
      "size": 1,
      "price": "1011000000000000000000",
      "reserved": "0x7a9fe22691c811ea339d9b73150e6911a5343dca",
      "salt": "0xf1f0972694eb906ddff2abdb21d78b7f4ef744b54568dd561afd693ccb7b417d",
      "assetIds": []
    },
    {
      "x": 82,
      "y": 401,
      "size": 1,
      "price": "4683000000000000000000",
      "reserved": "",
      "salt": "0x3f87ce8e54ed9147cdd2d1a17244b511287dcab22be5f88c39d54f7cefc86ce2",
      "assetIds": [
        "55464657044963196816950587289035428064568320970692304673817341489687891546112",
        "55464657044963196816950587289035428064568320970692304673817341489687891546113",
        "55464657044963196816950587289035428064568320970692304673817341489687899934720",
        "55464657044963196816950587289035428064568320970692304673817341489687899934721",
        "55464657044963196816950587289035428064568320970692304673817341489687908321280"
      ]
    },
    {
      "x": 82,
      "y": 402,
      "size": 1,
      "price": "1011000000000000000000",
      "reserved": "",
      "salt": "0x1f1fc9e5131a64381461f44ab4097927211d031fda1d3cddec596628242c5237",
      "assetIds": []
    },
    {
      "x": 82,
      "y": 403,
      "size": 1,
      "price": "1011000000000000000000",
      "reserved": "",
      "salt": "0x451792e29af1dbda0c1f8764e8fa405c8a30d032493bbcb4251525869fbb8738",
      "assetIds": []
    },
    {
      "x": 82,
      "y": 404,
      "size": 1,
      "price": "1011000000000000000000",
      "reserved": "",
      "salt": "0x41d931306615b4c3c09bec86fc4a53d6e74de9a406e66e2707643e4b3b206209",
      "assetIds": []
    },
    {
      "x": 82,
      "y": 405,
      "size": 1,
      "price": "1011000000000000000000",
      "reserved": "",
      "salt": "0x7206b6053ed29efc068a1890e4987489b978f4ce34b39a3edc97442efee7c1fc",
      "assetIds": []
    },
    {
      "x": 82,
      "y": 406,
      "size": 1,
      "price": "1011000000000000000000",
      "reserved": "",
      "salt": "0x8f75f73178720acba56b69e1a5e6653955e2ccce3e76c193d6cd25fd810709ab",
      "assetIds": []
    },
    {
      "x": 82,
      "y": 407,
      "size": 1,
      "price": "1011000000000000000000",
      "reserved": "",
      "salt": "0x2765e00afc57b4baaa2884efec6e5c479fef1e12a7dd04286cd2476feb36cf43",
      "assetIds": []
    },
    {
      "x": 83,
      "y": 384,
      "size": 1,
      "price": "4683000000000000000000",
      "reserved": "",
      "salt": "0x910ceadf9d7cebe9962af3c671827890b484ea3b5d551ec78299fc44bc526191",
      "assetIds": [
        "55464657044963196816950587289035428064568320970692304673817341489687891546112",
        "55464657044963196816950587289035428064568320970692304673817341489687891546113",
        "55464657044963196816950587289035428064568320970692304673817341489687899934720",
        "55464657044963196816950587289035428064568320970692304673817341489687899934721",
        "55464657044963196816950587289035428064568320970692304673817341489687908321280"
      ]
    },
    {
      "x": 83,
      "y": 385,
      "size": 1,
      "price": "4683000000000000000000",
      "reserved": "",
      "salt": "0x85e0038136543870c0469dd5985c77039fd380a0d345efd57ab39fa1916e84a0",
      "assetIds": [
        "55464657044963196816950587289035428064568320970692304673817341489687891546112",
        "55464657044963196816950587289035428064568320970692304673817341489687891546113",
        "55464657044963196816950587289035428064568320970692304673817341489687899934720",
        "55464657044963196816950587289035428064568320970692304673817341489687899934721",
        "55464657044963196816950587289035428064568320970692304673817341489687908321280"
      ]
    },
    {
      "x": 83,
      "y": 386,
      "size": 1,
      "price": "1011000000000000000000",
      "reserved": "",
      "salt": "0x20169f34132560817dba3af8098c070cc49c84b38b835a2502ea3d6279471981",
      "assetIds": []
    },
    {
      "x": 83,
      "y": 387,
      "size": 1,
      "price": "1011000000000000000000",
      "reserved": "",
      "salt": "0x9a6bc6afb2080b0a5f1eb0f197a2e32e894e5498a9d8a51cc798b5bc7d4f2d4e",
      "assetIds": []
    },
    {
      "x": 83,
      "y": 388,
      "size": 1,
      "price": "1011000000000000000000",
      "reserved": "",
      "salt": "0xb47e642546bb915448cffc1d93a892e1ec360186deb8e8dfae66a4fabaf8c66a",
      "assetIds": []
    },
    {
      "x": 83,
      "y": 389,
      "size": 1,
      "price": "1011000000000000000000",
      "reserved": "",
      "salt": "0x2b59a047ff905744e9ead297725821f91e7cf3f92db20d81488845c6b677e3ef",
      "assetIds": []
    },
    {
      "x": 83,
      "y": 390,
      "size": 1,
      "price": "1011000000000000000000",
      "reserved": "",
      "salt": "0xca83dcadd31c59a8ce8047b345687eced18da1aea8cff902be20cf6b4d91735d",
      "assetIds": []
    },
    {
      "x": 83,
      "y": 391,
      "size": 1,
      "price": "1011000000000000000000",
      "reserved": "",
      "salt": "0x0d16f12c2be0296998f3f8336e666777c0498e6dc2dacb59322aed5ccd9fdfde",
      "assetIds": []
    },
    {
      "x": 83,
      "y": 392,
      "size": 1,
      "price": "1011000000000000000000",
      "reserved": "0x7a9fe22691c811ea339d9b73150e6911a5343dca",
      "salt": "0xa4824cc889234a7780578a4441213aaaca5dc26eef406fd6b302b02a7d45953b",
      "assetIds": []
    },
    {
      "x": 83,
      "y": 393,
      "size": 1,
      "price": "1011000000000000000000",
      "reserved": "",
      "salt": "0x50078893f9dc81ac49b2cb408fedaa425feb859f8387dfaff7d6c6911c006228",
      "assetIds": []
    },
    {
      "x": 83,
      "y": 394,
      "size": 1,
      "price": "4683000000000000000000",
      "reserved": "",
      "salt": "0x5acc5eca6af585b8ad83cc38eeeb087a9f7b6d042d8a6a2f2ae0526da4f64a62",
      "assetIds": [
        "55464657044963196816950587289035428064568320970692304673817341489687891546112",
        "55464657044963196816950587289035428064568320970692304673817341489687891546113",
        "55464657044963196816950587289035428064568320970692304673817341489687899934720",
        "55464657044963196816950587289035428064568320970692304673817341489687899934721",
        "55464657044963196816950587289035428064568320970692304673817341489687908321280"
      ]
    },
    {
      "x": 83,
      "y": 395,
      "size": 1,
      "price": "4683000000000000000000",
      "reserved": "",
      "salt": "0x5378e187b73d90e1fdc3b0deb25afea0469deccd6ee3a24fab15c53f7ed989d4",
      "assetIds": [
        "55464657044963196816950587289035428064568320970692304673817341489687891546112",
        "55464657044963196816950587289035428064568320970692304673817341489687891546113",
        "55464657044963196816950587289035428064568320970692304673817341489687899934720",
        "55464657044963196816950587289035428064568320970692304673817341489687899934721",
        "55464657044963196816950587289035428064568320970692304673817341489687908321280"
      ]
    },
    {
      "x": 83,
      "y": 399,
      "size": 1,
      "price": "4683000000000000000000",
      "reserved": "",
      "salt": "0xc7e1c7d8de7b9eb95f72ccc8d1c25244d4e263f3096ca6a9f6f249b80e6b5546",
      "assetIds": [
        "55464657044963196816950587289035428064568320970692304673817341489687891546112",
        "55464657044963196816950587289035428064568320970692304673817341489687891546113",
        "55464657044963196816950587289035428064568320970692304673817341489687899934720",
        "55464657044963196816950587289035428064568320970692304673817341489687899934721",
        "55464657044963196816950587289035428064568320970692304673817341489687908321280"
      ]
    },
    {
      "x": 83,
      "y": 400,
      "size": 1,
      "price": "4683000000000000000000",
      "reserved": "",
      "salt": "0xe08e7da7a7f022f8208edc4b58cf14ef5aceecde529c3815dc3d10708faea67b",
      "assetIds": [
        "55464657044963196816950587289035428064568320970692304673817341489687891546112",
        "55464657044963196816950587289035428064568320970692304673817341489687891546113",
        "55464657044963196816950587289035428064568320970692304673817341489687899934720",
        "55464657044963196816950587289035428064568320970692304673817341489687899934721",
        "55464657044963196816950587289035428064568320970692304673817341489687908321280"
      ]
    },
    {
      "x": 83,
      "y": 401,
      "size": 1,
      "price": "4683000000000000000000",
      "reserved": "",
      "salt": "0x5ee633d1e4b44413a41708204a588aebd2d93b6ab2756685192dff5833cf8fd4",
      "assetIds": [
        "55464657044963196816950587289035428064568320970692304673817341489687891546112",
        "55464657044963196816950587289035428064568320970692304673817341489687891546113",
        "55464657044963196816950587289035428064568320970692304673817341489687899934720",
        "55464657044963196816950587289035428064568320970692304673817341489687899934721",
        "55464657044963196816950587289035428064568320970692304673817341489687908321280"
      ]
    },
    {
      "x": 83,
      "y": 402,
      "size": 1,
      "price": "1011000000000000000000",
      "reserved": "",
      "salt": "0x83aacf85f68ee8152ba63278ebf730b17ae8e8729313629ce18601c095d23949",
      "assetIds": []
    },
    {
      "x": 83,
      "y": 403,
      "size": 1,
      "price": "1011000000000000000000",
      "reserved": "0x7a9fe22691c811ea339d9b73150e6911a5343dca",
      "salt": "0xaa68130128b0f72ec8fe456e2261218c754283be1daeb238d9e7bb6ef3b3101f",
      "assetIds": []
    },
    {
      "x": 83,
      "y": 404,
      "size": 1,
      "price": "1011000000000000000000",
      "reserved": "",
      "salt": "0x896eacd56f2f7b822e22a8f24fe01591b49b67e95979607f6deac00e19b729ed",
      "assetIds": []
    },
    {
      "x": 83,
      "y": 405,
      "size": 1,
      "price": "1011000000000000000000",
      "reserved": "",
      "salt": "0xe33170953cd92d1d031e71969e8111797f6394a711a9ccb20c8a86b1eb60d247",
      "assetIds": []
    },
    {
      "x": 83,
      "y": 406,
      "size": 1,
      "price": "1011000000000000000000",
      "reserved": "",
      "salt": "0x73b2bb9e5dea3d175f5b67f4f73c2cf687f2183be49f7851d56881f62ccb36bb",
      "assetIds": []
    },
    {
      "x": 83,
      "y": 407,
      "size": 1,
      "price": "1011000000000000000000",
      "reserved": "",
      "salt": "0xc9327b7dd206172b2ddc7990224eab46063e09e52ade71d4f6fad9cd3a2bf778",
      "assetIds": []
    },
    {
      "x": 84,
      "y": 354,
      "size": 1,
      "price": "1011000000000000000000",
      "reserved": "",
      "salt": "0x79a5f68d3042d8bc01cf1a9a7f1dd1f8e32daffaa9b67d214daf15f34db4f34c",
      "assetIds": []
    },
    {
      "x": 84,
      "y": 355,
      "size": 1,
      "price": "1011000000000000000000",
      "reserved": "",
      "salt": "0x2b4dcecc000ba521e23ca3a1a01cf41e9e0affacab86aca0cd36daa41eb572d0",
      "assetIds": []
    },
    {
      "x": 84,
      "y": 356,
      "size": 1,
      "price": "1011000000000000000000",
      "reserved": "",
      "salt": "0xc890ab88ee1b0e89f4680c47faf7ab7314e902bc8bcc9cb782271b0db6bd6948",
      "assetIds": []
    },
    {
      "x": 84,
      "y": 357,
      "size": 1,
      "price": "1011000000000000000000",
      "reserved": "",
      "salt": "0xf007e361021d504e47250d0242ec122db5bc8fcf4564b6dfe963e72130a4114f",
      "assetIds": []
    },
    {
      "x": 84,
      "y": 358,
      "size": 1,
      "price": "1011000000000000000000",
      "reserved": "",
      "salt": "0xa6e2604627d21862932d7891a5a2f68d421c92448f679539e1ec387c54b7dbd4",
      "assetIds": []
    },
    {
      "x": 84,
      "y": 359,
      "size": 1,
      "price": "4683000000000000000000",
      "reserved": "",
      "salt": "0x3bf0b8ddb85ee65da4a35d7f067e7fad82532fa500002806176f1520adfac6a8",
      "assetIds": [
        "55464657044963196816950587289035428064568320970692304673817341489687891546112",
        "55464657044963196816950587289035428064568320970692304673817341489687891546113",
        "55464657044963196816950587289035428064568320970692304673817341489687899934720",
        "55464657044963196816950587289035428064568320970692304673817341489687899934721",
        "55464657044963196816950587289035428064568320970692304673817341489687908321280"
      ]
    },
    {
      "x": 84,
      "y": 384,
      "size": 1,
      "price": "4683000000000000000000",
      "reserved": "",
      "salt": "0x399a96b32559468e929072fde2909ebf62ec4cca34f1c68e9c5be02a587adb45",
      "assetIds": [
        "55464657044963196816950587289035428064568320970692304673817341489687891546112",
        "55464657044963196816950587289035428064568320970692304673817341489687891546113",
        "55464657044963196816950587289035428064568320970692304673817341489687899934720",
        "55464657044963196816950587289035428064568320970692304673817341489687899934721",
        "55464657044963196816950587289035428064568320970692304673817341489687908321280"
      ]
    },
    {
      "x": 84,
      "y": 385,
      "size": 1,
      "price": "4683000000000000000000",
      "reserved": "",
      "salt": "0xb022f50f820571c51a700845395e22f7d6e4b847d482bfc64a60d04f8f43e017",
      "assetIds": [
        "55464657044963196816950587289035428064568320970692304673817341489687891546112",
        "55464657044963196816950587289035428064568320970692304673817341489687891546113",
        "55464657044963196816950587289035428064568320970692304673817341489687899934720",
        "55464657044963196816950587289035428064568320970692304673817341489687899934721",
        "55464657044963196816950587289035428064568320970692304673817341489687908321280"
      ]
    },
    {
      "x": 84,
      "y": 386,
      "size": 1,
      "price": "1011000000000000000000",
      "reserved": "",
      "salt": "0x935108ae9b571d80052be7ad3a49b42b20cc1fe2987b4471ac6a2754485e979b",
      "assetIds": []
    },
    {
      "x": 84,
      "y": 387,
      "size": 1,
      "price": "1011000000000000000000",
      "reserved": "",
      "salt": "0x39cc332c5b9734038c2321264d7d71557701fdcbd4e5a6bbd59cc7b09a7fde50",
      "assetIds": []
    },
    {
      "x": 84,
      "y": 388,
      "size": 1,
      "price": "1011000000000000000000",
      "reserved": "",
      "salt": "0x45552e6e27f3af9308625043de363c627b91e6eb005787ae8928f515bd81051a",
      "assetIds": []
    },
    {
      "x": 84,
      "y": 389,
      "size": 1,
      "price": "1011000000000000000000",
      "reserved": "",
      "salt": "0xd6812198183810c79377f46763d1bad27d1d63e581d63afc04ba41c68efbcbd0",
      "assetIds": []
    },
    {
      "x": 84,
      "y": 390,
      "size": 1,
      "price": "1011000000000000000000",
      "reserved": "",
      "salt": "0x11b4b777db0054d39c27cedd16e37013113a4585b3728f5195b8da9c7c2ddf8d",
      "assetIds": []
    },
    {
      "x": 84,
      "y": 391,
      "size": 1,
      "price": "1011000000000000000000",
      "reserved": "",
      "salt": "0xe3d563346668e09a82dac32becc2ac66538ca1b5e17ba8e6b329880af6b92bc6",
      "assetIds": []
    },
    {
      "x": 84,
      "y": 392,
      "size": 1,
      "price": "1011000000000000000000",
      "reserved": "",
      "salt": "0x9b3c59dd66cacc791920c87e19f74c80703e0c4dfdf36546783ceb5c2581b609",
      "assetIds": []
    },
    {
      "x": 84,
      "y": 393,
      "size": 1,
      "price": "1011000000000000000000",
      "reserved": "",
      "salt": "0xb3b9b92649be8c19b84166870d2ae02ee01e99e1447ef10c24ea0a340fbbb127",
      "assetIds": []
    },
    {
      "x": 84,
      "y": 394,
      "size": 1,
      "price": "1011000000000000000000",
      "reserved": "",
      "salt": "0xc5b7429fb4644588842e08417bd012f74d5f62efc55f0c4607696405bff2b993",
      "assetIds": []
    },
    {
      "x": 84,
      "y": 395,
      "size": 1,
      "price": "4683000000000000000000",
      "reserved": "",
      "salt": "0xadab4bd1c74cfb315fd48ff9d40381ac9cd980cdf035a5f22269e4ec95f19554",
      "assetIds": [
        "55464657044963196816950587289035428064568320970692304673817341489687891546112",
        "55464657044963196816950587289035428064568320970692304673817341489687891546113",
        "55464657044963196816950587289035428064568320970692304673817341489687899934720",
        "55464657044963196816950587289035428064568320970692304673817341489687899934721",
        "55464657044963196816950587289035428064568320970692304673817341489687908321280"
      ]
    },
    {
      "x": 84,
      "y": 396,
      "size": 1,
      "price": "4683000000000000000000",
      "reserved": "",
      "salt": "0x7b6684f487f7c00977a4a856de86d6f35c60f2365d0cdc14228cee405b82a69b",
      "assetIds": [
        "55464657044963196816950587289035428064568320970692304673817341489687891546112",
        "55464657044963196816950587289035428064568320970692304673817341489687891546113",
        "55464657044963196816950587289035428064568320970692304673817341489687899934720",
        "55464657044963196816950587289035428064568320970692304673817341489687899934721",
        "55464657044963196816950587289035428064568320970692304673817341489687908321280"
      ]
    },
    {
      "x": 84,
      "y": 397,
      "size": 1,
      "price": "4683000000000000000000",
      "reserved": "",
      "salt": "0x6e040fc36c75d452e049cc6be8fd29b1fce0844cd9832adbedc8a594090b2d54",
      "assetIds": [
        "55464657044963196816950587289035428064568320970692304673817341489687891546112",
        "55464657044963196816950587289035428064568320970692304673817341489687891546113",
        "55464657044963196816950587289035428064568320970692304673817341489687899934720",
        "55464657044963196816950587289035428064568320970692304673817341489687899934721",
        "55464657044963196816950587289035428064568320970692304673817341489687908321280"
      ]
    },
    {
      "x": 84,
      "y": 398,
      "size": 1,
      "price": "4683000000000000000000",
      "reserved": "",
      "salt": "0x36135de8c615b5a0f25d3d978a7187dada7cdcb888f5514f362125b581f3ff6d",
      "assetIds": [
        "55464657044963196816950587289035428064568320970692304673817341489687891546112",
        "55464657044963196816950587289035428064568320970692304673817341489687891546113",
        "55464657044963196816950587289035428064568320970692304673817341489687899934720",
        "55464657044963196816950587289035428064568320970692304673817341489687899934721",
        "55464657044963196816950587289035428064568320970692304673817341489687908321280"
      ]
    },
    {
      "x": 84,
      "y": 399,
      "size": 1,
      "price": "4683000000000000000000",
      "reserved": "",
      "salt": "0x0cee5b9f4c0ae2c616eb5ffc51250db10717dea326139bba06354792e775083f",
      "assetIds": [
        "55464657044963196816950587289035428064568320970692304673817341489687891546112",
        "55464657044963196816950587289035428064568320970692304673817341489687891546113",
        "55464657044963196816950587289035428064568320970692304673817341489687899934720",
        "55464657044963196816950587289035428064568320970692304673817341489687899934721",
        "55464657044963196816950587289035428064568320970692304673817341489687908321280"
      ]
    },
    {
      "x": 84,
      "y": 400,
      "size": 1,
      "price": "1011000000000000000000",
      "reserved": "0x7a9fe22691c811ea339d9b73150e6911a5343dca",
      "salt": "0x6cd46c4b259b87539ab654f0598465f8958d152c20e0658314bfb1e632070f91",
      "assetIds": []
    },
    {
      "x": 84,
      "y": 401,
      "size": 1,
      "price": "1011000000000000000000",
      "reserved": "",
      "salt": "0x4d5d6a95e5ebd586d4bae22ecb5f10e11b3ddcdd51cbf2c33561c04d99710367",
      "assetIds": []
    },
    {
      "x": 84,
      "y": 402,
      "size": 1,
      "price": "1011000000000000000000",
      "reserved": "",
      "salt": "0x5c034fa92cf0dad76fa1b6d9ef131b3eedd63937fd40c7e831b43908a8c78800",
      "assetIds": []
    },
    {
      "x": 84,
      "y": 403,
      "size": 1,
      "price": "1011000000000000000000",
      "reserved": "",
      "salt": "0x006eb30a2903d3ab66553a0be0ca955ca8709d98b4ca03dda4ef03784a5f60ad",
      "assetIds": []
    },
    {
      "x": 84,
      "y": 404,
      "size": 1,
      "price": "1011000000000000000000",
      "reserved": "",
      "salt": "0xf1cec6c38f361a0b3e45b0a7e99b9374e25932211e92b96dbc0682d43d2adcad",
      "assetIds": []
    },
    {
      "x": 84,
      "y": 405,
      "size": 1,
      "price": "1011000000000000000000",
      "reserved": "",
      "salt": "0x4bbae5f3d7195b1771b7add112a5e61d1efb9b237ff20d3b641bd44b8cec0f82",
      "assetIds": []
    },
    {
      "x": 84,
      "y": 406,
      "size": 1,
      "price": "1011000000000000000000",
      "reserved": "",
      "salt": "0xe305acaabe604790dd2d973a28698cb9e3ce58694eef64a4a4edc36154a01159",
      "assetIds": []
    },
    {
      "x": 84,
      "y": 407,
      "size": 1,
      "price": "1011000000000000000000",
      "reserved": "",
      "salt": "0x0d4b88d9212fcc5d697f8006434989ab5f65a7d57864dd69fd5bf692605d3765",
      "assetIds": []
    },
    {
      "x": 85,
      "y": 354,
      "size": 1,
      "price": "1011000000000000000000",
      "reserved": "",
      "salt": "0x92d7b19f60d7500c861b1bd0af6057e5e11640a7c2377c808107ac519b5d0e81",
      "assetIds": []
    },
    {
      "x": 85,
      "y": 355,
      "size": 1,
      "price": "1011000000000000000000",
      "reserved": "",
      "salt": "0xd44279a027805912240903d05b3ec1f6f4ff516699ea370d404523e0ee405aa6",
      "assetIds": []
    },
    {
      "x": 85,
      "y": 356,
      "size": 1,
      "price": "1011000000000000000000",
      "reserved": "",
      "salt": "0xacac7d96347f4575a521ac87fada2ce5ef69c2525780b18a986c5373ba41da86",
      "assetIds": []
    },
    {
      "x": 85,
      "y": 357,
      "size": 1,
      "price": "1011000000000000000000",
      "reserved": "",
      "salt": "0xb82e7ec58d1af72eb1fc051188c7aca9f11490261b0cd8cd88b58759403b0288",
      "assetIds": []
    },
    {
      "x": 85,
      "y": 358,
      "size": 1,
      "price": "1011000000000000000000",
      "reserved": "",
      "salt": "0x3b341f143e416defa6f5ceec99e60d1249fed86e1880126a1b85ca1e1168db9d",
      "assetIds": []
    },
    {
      "x": 85,
      "y": 359,
      "size": 1,
      "price": "4683000000000000000000",
      "reserved": "",
      "salt": "0xea8476d57ff871e6268ac6e0e7cf248aa64a98bb62b73aacaa56498dbe510591",
      "assetIds": [
        "55464657044963196816950587289035428064568320970692304673817341489687891546112",
        "55464657044963196816950587289035428064568320970692304673817341489687891546113",
        "55464657044963196816950587289035428064568320970692304673817341489687899934720",
        "55464657044963196816950587289035428064568320970692304673817341489687899934721",
        "55464657044963196816950587289035428064568320970692304673817341489687908321280"
      ]
    },
    {
      "x": 85,
      "y": 384,
      "size": 1,
      "price": "4683000000000000000000",
      "reserved": "",
      "salt": "0x6da2be50a938f687dd8211d4221279dd65cce4eab035d3b36f96292bb7278692",
      "assetIds": [
        "55464657044963196816950587289035428064568320970692304673817341489687891546112",
        "55464657044963196816950587289035428064568320970692304673817341489687891546113",
        "55464657044963196816950587289035428064568320970692304673817341489687899934720",
        "55464657044963196816950587289035428064568320970692304673817341489687899934721",
        "55464657044963196816950587289035428064568320970692304673817341489687908321280"
      ]
    },
    {
      "x": 85,
      "y": 385,
      "size": 1,
      "price": "4683000000000000000000",
      "reserved": "",
      "salt": "0x0b2a2d885a1f121d08c4062bf989e47cfcba5e2fb0a24ad56e4da4d336b3d105",
      "assetIds": [
        "55464657044963196816950587289035428064568320970692304673817341489687891546112",
        "55464657044963196816950587289035428064568320970692304673817341489687891546113",
        "55464657044963196816950587289035428064568320970692304673817341489687899934720",
        "55464657044963196816950587289035428064568320970692304673817341489687899934721",
        "55464657044963196816950587289035428064568320970692304673817341489687908321280"
      ]
    },
    {
      "x": 85,
      "y": 386,
      "size": 1,
      "price": "1011000000000000000000",
      "reserved": "",
      "salt": "0x24ee95d72d1a12cf5ec48c428e1d61f714ce05705d2c14d654f8b76caf7a566f",
      "assetIds": []
    },
    {
      "x": 85,
      "y": 387,
      "size": 1,
      "price": "1011000000000000000000",
      "reserved": "",
      "salt": "0x325efc217d3bc529cb43c5759491656272a96b71c8906f965ffe4a950fbad318",
      "assetIds": []
    },
    {
      "x": 85,
      "y": 388,
      "size": 1,
      "price": "1011000000000000000000",
      "reserved": "",
      "salt": "0xf4d098f241471d654ac5d3edd8778da541596b74a7d3e883a31913981dff3bac",
      "assetIds": []
    },
    {
      "x": 85,
      "y": 389,
      "size": 1,
      "price": "1011000000000000000000",
      "reserved": "",
      "salt": "0x1cf99abdadbea5ab95429fc1370227d80e8613f459bf3c4ace2b4b764711b410",
      "assetIds": []
    },
    {
      "x": 85,
      "y": 390,
      "size": 1,
      "price": "1011000000000000000000",
      "reserved": "",
      "salt": "0xc2e5205287c24b8f5744daa2b0ebb36af02b1717dfc4000b3d51e97bfa62ee86",
      "assetIds": []
    },
    {
      "x": 85,
      "y": 391,
      "size": 1,
      "price": "1011000000000000000000",
      "reserved": "",
      "salt": "0x9713a76b32d035171b3c6af258ee99d179e3436a978ccee7c5e47606b2550d34",
      "assetIds": []
    },
    {
      "x": 85,
      "y": 392,
      "size": 1,
      "price": "1011000000000000000000",
      "reserved": "",
      "salt": "0x519af6624dc5a167b682f28a2eb26c4310e6c42ceba3eb62019f4968a207a8c3",
      "assetIds": []
    },
    {
      "x": 85,
      "y": 393,
      "size": 1,
      "price": "1011000000000000000000",
      "reserved": "",
      "salt": "0xb741699d07759a04b2caec9056a3a3d43a5d7f6d63ebc49ed21e89e625dd6cf9",
      "assetIds": []
    },
    {
      "x": 85,
      "y": 394,
      "size": 1,
      "price": "1011000000000000000000",
      "reserved": "",
      "salt": "0xf0c17f33273b06639adee5f667ed894810bac78de3e23ef8c3794ff7446da6e3",
      "assetIds": []
    },
    {
      "x": 85,
      "y": 395,
      "size": 1,
      "price": "4683000000000000000000",
      "reserved": "",
      "salt": "0x52ff0be140e0695f15dd6a06958eaea97c34f666a0d7bd14d961385f4e0411d1",
      "assetIds": [
        "55464657044963196816950587289035428064568320970692304673817341489687891546112",
        "55464657044963196816950587289035428064568320970692304673817341489687891546113",
        "55464657044963196816950587289035428064568320970692304673817341489687899934720",
        "55464657044963196816950587289035428064568320970692304673817341489687899934721",
        "55464657044963196816950587289035428064568320970692304673817341489687908321280"
      ]
    },
    {
      "x": 85,
      "y": 396,
      "size": 1,
      "price": "4683000000000000000000",
      "reserved": "",
      "salt": "0xa0e5659d49af065e1b448227dce9d33072e042df0d3e7d0c6aea50ce7d6aa2af",
      "assetIds": [
        "55464657044963196816950587289035428064568320970692304673817341489687891546112",
        "55464657044963196816950587289035428064568320970692304673817341489687891546113",
        "55464657044963196816950587289035428064568320970692304673817341489687899934720",
        "55464657044963196816950587289035428064568320970692304673817341489687899934721",
        "55464657044963196816950587289035428064568320970692304673817341489687908321280"
      ]
    },
    {
      "x": 85,
      "y": 397,
      "size": 1,
      "price": "4683000000000000000000",
      "reserved": "",
      "salt": "0xa98e6645da75accef77859c710dbe7091b44a38e04b0005c58c9b4b031d73349",
      "assetIds": [
        "55464657044963196816950587289035428064568320970692304673817341489687891546112",
        "55464657044963196816950587289035428064568320970692304673817341489687891546113",
        "55464657044963196816950587289035428064568320970692304673817341489687899934720",
        "55464657044963196816950587289035428064568320970692304673817341489687899934721",
        "55464657044963196816950587289035428064568320970692304673817341489687908321280"
      ]
    },
    {
      "x": 85,
      "y": 398,
      "size": 1,
      "price": "1011000000000000000000",
      "reserved": "0x7a9fe22691c811ea339d9b73150e6911a5343dca",
      "salt": "0x2e0f137100bef4e6186c3bf65ec7f75cd4c16c7684c2ffb5a160382421e84562",
      "assetIds": []
    },
    {
      "x": 85,
      "y": 399,
      "size": 1,
      "price": "4683000000000000000000",
      "reserved": "",
      "salt": "0x0f25aaab60639ec6afc5416e209989c03b05eecd479f57934618cc16250f822e",
      "assetIds": [
        "55464657044963196816950587289035428064568320970692304673817341489687891546112",
        "55464657044963196816950587289035428064568320970692304673817341489687891546113",
        "55464657044963196816950587289035428064568320970692304673817341489687899934720",
        "55464657044963196816950587289035428064568320970692304673817341489687899934721",
        "55464657044963196816950587289035428064568320970692304673817341489687908321280"
      ]
    },
    {
      "x": 85,
      "y": 400,
      "size": 1,
      "price": "1011000000000000000000",
      "reserved": "",
      "salt": "0x959cbbde6582689490af72b33c67e216e88e1708bf1cd779c50e7b9992952e31",
      "assetIds": []
    },
    {
      "x": 85,
      "y": 401,
      "size": 1,
      "price": "1011000000000000000000",
      "reserved": "",
      "salt": "0xddad7f7f9661f3b96c3201fc3946324262df5fb4ec0c309ae273b26f5511ae3c",
      "assetIds": []
    },
    {
      "x": 85,
      "y": 402,
      "size": 1,
      "price": "1011000000000000000000",
      "reserved": "",
      "salt": "0xd99f0feb450ccfdd12cf8051aa6caf5a5ca6c55f94e7966b53e098f5e3e21f3b",
      "assetIds": []
    },
    {
      "x": 85,
      "y": 403,
      "size": 1,
      "price": "1011000000000000000000",
      "reserved": "",
      "salt": "0xe6b7771bf434e4881d79c215c571d57027a410b85e52f949aa80ed6b5d088451",
      "assetIds": []
    },
    {
      "x": 85,
      "y": 404,
      "size": 1,
      "price": "1011000000000000000000",
      "reserved": "",
      "salt": "0xe13933bf6b6fe223ac2c0a0fe06620dde4304ae94f32de270b06b35f6ace95f0",
      "assetIds": []
    },
    {
      "x": 85,
      "y": 405,
      "size": 1,
      "price": "1011000000000000000000",
      "reserved": "",
      "salt": "0x87c092f50ad587d1a5353097e75a31cd6d42e375da018917b23c754471b5cdf4",
      "assetIds": []
    },
    {
      "x": 85,
      "y": 406,
      "size": 1,
      "price": "1011000000000000000000",
      "reserved": "",
      "salt": "0x4f35db6a4c72bdf4320bab154e4ea23a8c87f793af461e16c4be62fffd520b6d",
      "assetIds": []
    },
    {
      "x": 85,
      "y": 407,
      "size": 1,
      "price": "1011000000000000000000",
      "reserved": "",
      "salt": "0x17bb20174ac3d2fc71138dd7b574e4019647fc5e779312ac14ce64198e79b733",
      "assetIds": []
    },
    {
      "x": 86,
      "y": 354,
      "size": 1,
      "price": "1011000000000000000000",
      "reserved": "",
      "salt": "0xcd84e1023a5fb0ee174834213938681c8ba58b4bb2ff8f73a8173cca41279ae5",
      "assetIds": []
    },
    {
      "x": 86,
      "y": 355,
      "size": 1,
      "price": "1011000000000000000000",
      "reserved": "",
      "salt": "0x80ce650f82af16e385ca64529f027a6a51c1e201b2cc3154bfe2713c35b42250",
      "assetIds": []
    },
    {
      "x": 86,
      "y": 356,
      "size": 1,
      "price": "1011000000000000000000",
      "reserved": "",
      "salt": "0x0a322e41400728920ca2e30437255121d899147bde81234d6533564725c9e13f",
      "assetIds": []
    },
    {
      "x": 86,
      "y": 357,
      "size": 1,
      "price": "1011000000000000000000",
      "reserved": "",
      "salt": "0x7a571be842331a677edeb7f163abca2a80da062cd8df87ce6c1e8d4cfd4683a1",
      "assetIds": []
    },
    {
      "x": 86,
      "y": 358,
      "size": 1,
      "price": "1011000000000000000000",
      "reserved": "",
      "salt": "0xb638e80c889008604dcb0c68686d81d350f6fed34a05012f913472412a9acc3a",
      "assetIds": []
    },
    {
      "x": 86,
      "y": 359,
      "size": 1,
      "price": "4683000000000000000000",
      "reserved": "",
      "salt": "0x5c7e707b54be0b05e4b056ac45a7832fabf67b2941304fded4b1b0136c0cae02",
      "assetIds": [
        "55464657044963196816950587289035428064568320970692304673817341489687891546112",
        "55464657044963196816950587289035428064568320970692304673817341489687891546113",
        "55464657044963196816950587289035428064568320970692304673817341489687899934720",
        "55464657044963196816950587289035428064568320970692304673817341489687899934721",
        "55464657044963196816950587289035428064568320970692304673817341489687908321280"
      ]
    },
    {
      "x": 86,
      "y": 384,
      "size": 1,
      "price": "4683000000000000000000",
      "reserved": "",
      "salt": "0xe5d31a604413878ee0bf5c2d8015487dee44713be803affdcdd08cbf9f8d5e82",
      "assetIds": [
        "55464657044963196816950587289035428064568320970692304673817341489687891546112",
        "55464657044963196816950587289035428064568320970692304673817341489687891546113",
        "55464657044963196816950587289035428064568320970692304673817341489687899934720",
        "55464657044963196816950587289035428064568320970692304673817341489687899934721",
        "55464657044963196816950587289035428064568320970692304673817341489687908321280"
      ]
    },
    {
      "x": 86,
      "y": 385,
      "size": 1,
      "price": "1011000000000000000000",
      "reserved": "0x7a9fe22691c811ea339d9b73150e6911a5343dca",
      "salt": "0xd905b7f3ca4b07113c9d146a2b1e3e6df509012312d1c3c19d0b35001146d1b7",
      "assetIds": []
    },
    {
      "x": 86,
      "y": 386,
      "size": 1,
      "price": "1011000000000000000000",
      "reserved": "",
      "salt": "0xb36935561bcba63c5a6e3c85f7fbe824a8f552ce775971dd1380f3973c50b6f0",
      "assetIds": []
    },
    {
      "x": 86,
      "y": 387,
      "size": 1,
      "price": "1011000000000000000000",
      "reserved": "",
      "salt": "0xc3fc746053d450b97389858779886c518459a88a121d10fa59ac6790dbacfe11",
      "assetIds": []
    },
    {
      "x": 86,
      "y": 388,
      "size": 1,
      "price": "1011000000000000000000",
      "reserved": "",
      "salt": "0x84eaf1b70ac7d0126c1b743b29ecb514b76279a40d37e84da060490cb98d5439",
      "assetIds": []
    },
    {
      "x": 86,
      "y": 389,
      "size": 1,
      "price": "1011000000000000000000",
      "reserved": "",
      "salt": "0x34c7cd48f10da616ca39312be51d7fdc75b52a2c0aa897b1106484d1c91e1990",
      "assetIds": []
    },
    {
      "x": 86,
      "y": 390,
      "size": 1,
      "price": "1011000000000000000000",
      "reserved": "",
      "salt": "0x541e78d995f150611646503dd2b86e4de1806d33471b92565298cf5f39b661c0",
      "assetIds": []
    },
    {
      "x": 86,
      "y": 391,
      "size": 1,
      "price": "1011000000000000000000",
      "reserved": "",
      "salt": "0xd9cf8c1d932c0ddbc0a40c4816b62e3701f0a82d8d3e0af2971ca221d7a463bc",
      "assetIds": []
    },
    {
      "x": 86,
      "y": 392,
      "size": 1,
      "price": "1011000000000000000000",
      "reserved": "",
      "salt": "0x31785415a9b4c5b3b4c77a854b3ee891d7bd3e9494bfd6b23264c5771d1870f9",
      "assetIds": []
    },
    {
      "x": 86,
      "y": 393,
      "size": 1,
      "price": "1011000000000000000000",
      "reserved": "",
      "salt": "0x23468234b62bfbe9566e191501aa5bffa1a745d7eb1ae18ddd157aa472ca7c0d",
      "assetIds": []
    },
    {
      "x": 86,
      "y": 394,
      "size": 1,
      "price": "1011000000000000000000",
      "reserved": "",
      "salt": "0x0d1dbc17caa11207582545802af60f2e23bf2b3ff20f6d2f8c63fa4acac9ed4d",
      "assetIds": []
    },
    {
      "x": 86,
      "y": 395,
      "size": 1,
      "price": "4683000000000000000000",
      "reserved": "",
      "salt": "0x1630ba32434da28d06cc0e62d3e3b7138efe2fb5edd76e677dae771df39b9de8",
      "assetIds": [
        "55464657044963196816950587289035428064568320970692304673817341489687891546112",
        "55464657044963196816950587289035428064568320970692304673817341489687891546113",
        "55464657044963196816950587289035428064568320970692304673817341489687899934720",
        "55464657044963196816950587289035428064568320970692304673817341489687899934721",
        "55464657044963196816950587289035428064568320970692304673817341489687908321280"
      ]
    },
    {
      "x": 86,
      "y": 396,
      "size": 1,
      "price": "4683000000000000000000",
      "reserved": "",
      "salt": "0xf35a2c4ad17255cd0a4ca8f52d622244abc326be67b4a9afa6c67aff0b27fc76",
      "assetIds": [
        "55464657044963196816950587289035428064568320970692304673817341489687891546112",
        "55464657044963196816950587289035428064568320970692304673817341489687891546113",
        "55464657044963196816950587289035428064568320970692304673817341489687899934720",
        "55464657044963196816950587289035428064568320970692304673817341489687899934721",
        "55464657044963196816950587289035428064568320970692304673817341489687908321280"
      ]
    },
    {
      "x": 86,
      "y": 397,
      "size": 1,
      "price": "4683000000000000000000",
      "reserved": "",
      "salt": "0x000a93e25d1bccf2c8ee5c3299e939527c483884ba4f5f924b0afdafd9fa0837",
      "assetIds": [
        "55464657044963196816950587289035428064568320970692304673817341489687891546112",
        "55464657044963196816950587289035428064568320970692304673817341489687891546113",
        "55464657044963196816950587289035428064568320970692304673817341489687899934720",
        "55464657044963196816950587289035428064568320970692304673817341489687899934721",
        "55464657044963196816950587289035428064568320970692304673817341489687908321280"
      ]
    },
    {
      "x": 86,
      "y": 398,
      "size": 1,
      "price": "1011000000000000000000",
      "reserved": "",
      "salt": "0xa51309f2b9a77e5dfea1e3f22495d709cd3966e818f4a477446696c25145f323",
      "assetIds": []
    },
    {
      "x": 86,
      "y": 399,
      "size": 1,
      "price": "1011000000000000000000",
      "reserved": "",
      "salt": "0x7f047c50ff917bdb3783988bc27c31b044726b4c2f7008b987d000a1290264ad",
      "assetIds": []
    },
    {
      "x": 86,
      "y": 400,
      "size": 1,
      "price": "1011000000000000000000",
      "reserved": "",
      "salt": "0x0f8b82ba3c99967a54a2eb5295a65f5832996ed2e7ad50c9b4dddfbc5880882a",
      "assetIds": []
    },
    {
      "x": 86,
      "y": 401,
      "size": 1,
      "price": "1011000000000000000000",
      "reserved": "",
      "salt": "0x17b631da729cd26b8e83beb6a57101973befbd9b58cd2a568eda9724aa4ced91",
      "assetIds": []
    },
    {
      "x": 86,
      "y": 402,
      "size": 1,
      "price": "1011000000000000000000",
      "reserved": "",
      "salt": "0x5c6d78dbae2c3ff522345d1fddc18c4707ca8c9d88440ba60cdecc9ce43cdf8a",
      "assetIds": []
    },
    {
      "x": 86,
      "y": 403,
      "size": 1,
      "price": "1011000000000000000000",
      "reserved": "",
      "salt": "0xdeb0e2d189dbffcb97d4395f1881372c66448f3f6fb83e2fd155ca324c416260",
      "assetIds": []
    },
    {
      "x": 86,
      "y": 404,
      "size": 1,
      "price": "1011000000000000000000",
      "reserved": "",
      "salt": "0x5d57b597ade9e1f5fed0fe9af4912cfa0699aa291a1a0c7631865c72b59f382f",
      "assetIds": []
    },
    {
      "x": 86,
      "y": 405,
      "size": 1,
      "price": "1011000000000000000000",
      "reserved": "",
      "salt": "0x196b211863b5981a72ef512c4a498bd461753d478e938fb14d252baadf5f475b",
      "assetIds": []
    },
    {
      "x": 86,
      "y": 406,
      "size": 1,
      "price": "1011000000000000000000",
      "reserved": "",
      "salt": "0x3bc2221993e35ea6dd2e0c0b5a8c208f7f78d81c4d785c9bf15c45a9a6451c09",
      "assetIds": []
    },
    {
      "x": 86,
      "y": 407,
      "size": 1,
      "price": "1011000000000000000000",
      "reserved": "",
      "salt": "0xaf1f9c5dd610d2a06b1cbdb060aa2df6e9192435a0d22527e45f71f4e4ddbb83",
      "assetIds": []
    },
    {
      "x": 87,
      "y": 354,
      "size": 1,
      "price": "1011000000000000000000",
      "reserved": "",
      "salt": "0xfe0b19c903085e0fee80c64a40c735c62cfc156ce4f91dda374954330f25b847",
      "assetIds": []
    },
    {
      "x": 87,
      "y": 355,
      "size": 1,
      "price": "1011000000000000000000",
      "reserved": "0x7a9fe22691c811ea339d9b73150e6911a5343dca",
      "salt": "0xed1d17dec2f8844d9f4be0c2c5ebb671bc27cebd781c4555c5f11a535357ffa1",
      "assetIds": []
    },
    {
      "x": 87,
      "y": 356,
      "size": 1,
      "price": "1011000000000000000000",
      "reserved": "",
      "salt": "0x0575d97ba18ac2949308e4f201a293caf86891d87c45d5e29668df91d9b29f19",
      "assetIds": []
    },
    {
      "x": 87,
      "y": 357,
      "size": 1,
      "price": "1011000000000000000000",
      "reserved": "",
      "salt": "0x8a72bd79ad92d2585e96da5ec95c32fa362d72821b92aa68bd387e21af33ccec",
      "assetIds": []
    },
    {
      "x": 87,
      "y": 358,
      "size": 1,
      "price": "1011000000000000000000",
      "reserved": "",
      "salt": "0x08ea0a0a68cd5303af7356556a5e6b1051b8eb5338dd6b5e4a7dedd821861b1b",
      "assetIds": []
    },
    {
      "x": 87,
      "y": 359,
      "size": 1,
      "price": "4683000000000000000000",
      "reserved": "",
      "salt": "0x253f08d6e1e7b14354db3ffafe790f06f938fdaca9eda6249f261ba0bf648dad",
      "assetIds": [
        "55464657044963196816950587289035428064568320970692304673817341489687891546112",
        "55464657044963196816950587289035428064568320970692304673817341489687891546113",
        "55464657044963196816950587289035428064568320970692304673817341489687899934720",
        "55464657044963196816950587289035428064568320970692304673817341489687899934721",
        "55464657044963196816950587289035428064568320970692304673817341489687908321280"
      ]
    },
    {
      "x": 87,
      "y": 384,
      "size": 1,
      "price": "4683000000000000000000",
      "reserved": "",
      "salt": "0x4b6161e3ca509dfbf4dcd11d9aa801caaa43d6faad961a3f3e5654f7cbd89a33",
      "assetIds": [
        "55464657044963196816950587289035428064568320970692304673817341489687891546112",
        "55464657044963196816950587289035428064568320970692304673817341489687891546113",
        "55464657044963196816950587289035428064568320970692304673817341489687899934720",
        "55464657044963196816950587289035428064568320970692304673817341489687899934721",
        "55464657044963196816950587289035428064568320970692304673817341489687908321280"
      ]
    },
    {
      "x": 87,
      "y": 385,
      "size": 1,
      "price": "1011000000000000000000",
      "reserved": "0x7a9fe22691c811ea339d9b73150e6911a5343dca",
      "salt": "0xb60dc437d7ee5e2dc417a3cad7b38756fe9bf10726d55f9ea3569e9006b3d1e7",
      "assetIds": []
    },
    {
      "x": 87,
      "y": 386,
      "size": 1,
      "price": "1011000000000000000000",
      "reserved": "",
      "salt": "0xdbf54e5ba57d3007292cb4d034d006e8b4969eed8d353efb205c52500e2364bd",
      "assetIds": []
    },
    {
      "x": 87,
      "y": 387,
      "size": 1,
      "price": "1011000000000000000000",
      "reserved": "",
      "salt": "0xef9c448e40e7591964775e1a49d7493462ed10ea2c53c4a9ef40f6562565bcef",
      "assetIds": []
    },
    {
      "x": 87,
      "y": 388,
      "size": 1,
      "price": "1011000000000000000000",
      "reserved": "",
      "salt": "0x3f2ce6fe6137e3e695af848e54a50378a084394d5a6eebfe5f63e1c725fd8cd9",
      "assetIds": []
    },
    {
      "x": 87,
      "y": 389,
      "size": 1,
      "price": "1011000000000000000000",
      "reserved": "",
      "salt": "0x01b390e2a6268bb61c5ee94677a5e51290ea0e6e520c060fe73e866e9a6baa15",
      "assetIds": []
    },
    {
      "x": 87,
      "y": 390,
      "size": 1,
      "price": "1011000000000000000000",
      "reserved": "",
      "salt": "0x0250838d00e640b993a9332349c28912e65838ce838820fc111c65f445989304",
      "assetIds": []
    },
    {
      "x": 87,
      "y": 391,
      "size": 1,
      "price": "1011000000000000000000",
      "reserved": "",
      "salt": "0xf924412ff57cad1ce9a49f7850b6c323c0e43968af7e9fafa37df08ffcf27f07",
      "assetIds": []
    },
    {
      "x": 87,
      "y": 392,
      "size": 1,
      "price": "1011000000000000000000",
      "reserved": "",
      "salt": "0x593d1f552422c72c05791befe840ee861f0f3b95d4ab91fd6bfb20b6f4946560",
      "assetIds": []
    },
    {
      "x": 87,
      "y": 396,
      "size": 1,
      "price": "1011000000000000000000",
      "reserved": "",
      "salt": "0x7c5e4d42fcaeaddb6c176ac7a636817e8b628b06ee02e79f101d660c5ad3ada3",
      "assetIds": []
    },
    {
      "x": 87,
      "y": 397,
      "size": 1,
      "price": "1011000000000000000000",
      "reserved": "",
      "salt": "0x3a11fe3995b1093da13a7d06fa1902fda4802a6c65537b51500a8e7e5401f5f9",
      "assetIds": []
    },
    {
      "x": 87,
      "y": 398,
      "size": 1,
      "price": "1011000000000000000000",
      "reserved": "",
      "salt": "0x0fae5a0b0925053d6e4993daa453e0e389d1204f0734a489085f1b2e209e5319",
      "assetIds": []
    },
    {
      "x": 87,
      "y": 399,
      "size": 1,
      "price": "1011000000000000000000",
      "reserved": "",
      "salt": "0xf0b60267879ac6a337d068066a64b0b4868ee2493861e2df1d47515b27334112",
      "assetIds": []
    },
    {
      "x": 87,
      "y": 400,
      "size": 1,
      "price": "1011000000000000000000",
      "reserved": "",
      "salt": "0x5eaa245f7ab6679ae002accd05b76cd965520c13781dd8256e9e77027fabc606",
      "assetIds": []
    },
    {
      "x": 87,
      "y": 401,
      "size": 1,
      "price": "1011000000000000000000",
      "reserved": "",
      "salt": "0xf155cb6be4498507610463a8a5d3ec7ed7e9a596860d62eae69afc3401a77723",
      "assetIds": []
    },
    {
      "x": 87,
      "y": 402,
      "size": 1,
      "price": "1011000000000000000000",
      "reserved": "0x7a9fe22691c811ea339d9b73150e6911a5343dca",
      "salt": "0xf28197dd60d3d7660d17251b41c81a0982bf3de28e675507840dbf2765fd6c74",
      "assetIds": []
    },
    {
      "x": 87,
      "y": 403,
      "size": 1,
      "price": "1011000000000000000000",
      "reserved": "",
      "salt": "0x290d77aee2114a6e5171b418f756f3227ad5fa58fa3ce026033ad2b89eb09409",
      "assetIds": []
    },
    {
      "x": 87,
      "y": 404,
      "size": 1,
      "price": "4683000000000000000000",
      "reserved": "",
      "salt": "0x2b29cb7ba54beaf4d45a13773c34a4e0c047bca19f10ef4d337b8df876e6e4b9",
      "assetIds": [
        "55464657044963196816950587289035428064568320970692304673817341489687891546112",
        "55464657044963196816950587289035428064568320970692304673817341489687891546113",
        "55464657044963196816950587289035428064568320970692304673817341489687899934720",
        "55464657044963196816950587289035428064568320970692304673817341489687899934721",
        "55464657044963196816950587289035428064568320970692304673817341489687908321280"
      ]
    },
    {
      "x": 87,
      "y": 405,
      "size": 1,
      "price": "1011000000000000000000",
      "reserved": "0x7a9fe22691c811ea339d9b73150e6911a5343dca",
      "salt": "0xc3e5de95077902fc8c6b546b73883f29e118b6675343c4ddbd76a5a71bdbf048",
      "assetIds": []
    },
    {
      "x": 87,
      "y": 406,
      "size": 1,
      "price": "1011000000000000000000",
      "reserved": "",
      "salt": "0xc920d8761a87c2bb2245712932520bbd2aa610efdf6dec5005a6bd0ce25d23c4",
      "assetIds": []
    },
    {
      "x": 87,
      "y": 407,
      "size": 1,
      "price": "1011000000000000000000",
      "reserved": "",
      "salt": "0x98d39bfab6f572331533319f123f378a817a5e7c6efec36ba9324600fbf13977",
      "assetIds": []
    },
    {
      "x": 88,
      "y": 354,
      "size": 1,
      "price": "1011000000000000000000",
      "reserved": "",
      "salt": "0xea410e17fd37111e0d5f10f3d6c61be05d6266baf904cf64965090b6aee9f3de",
      "assetIds": []
    },
    {
      "x": 88,
      "y": 355,
      "size": 1,
      "price": "1011000000000000000000",
      "reserved": "",
      "salt": "0x55a9e10a2b5e4d85f9dd1240e408397846e84dd21e99a6cbdfffbae432f3d9a4",
      "assetIds": []
    },
    {
      "x": 88,
      "y": 356,
      "size": 1,
      "price": "1011000000000000000000",
      "reserved": "",
      "salt": "0xdb35a7d7a102dd835119f593e01657378ee46e2ed94de74e9f3a4ed1e6216381",
      "assetIds": []
    },
    {
      "x": 88,
      "y": 357,
      "size": 1,
      "price": "1011000000000000000000",
      "reserved": "",
      "salt": "0x2d2d83747bc05be0f1eeadb3a6e6dbfb9d1c42dee10108276af2eae1caa9ee10",
      "assetIds": []
    },
    {
      "x": 88,
      "y": 358,
      "size": 1,
      "price": "4683000000000000000000",
      "reserved": "",
      "salt": "0xb9db0de78ea6512deb20fc5e6cf21d6ca54e67bcd9eed5b6640c9273f76fe2ea",
      "assetIds": [
        "55464657044963196816950587289035428064568320970692304673817341489687891546112",
        "55464657044963196816950587289035428064568320970692304673817341489687891546113",
        "55464657044963196816950587289035428064568320970692304673817341489687899934720",
        "55464657044963196816950587289035428064568320970692304673817341489687899934721",
        "55464657044963196816950587289035428064568320970692304673817341489687908321280"
      ]
    },
    {
      "x": 88,
      "y": 359,
      "size": 1,
      "price": "4683000000000000000000",
      "reserved": "",
      "salt": "0x77d1cc52c37e92b6dd3164a9b80355c69ed466d7c4c85582477360a852dd10ca",
      "assetIds": [
        "55464657044963196816950587289035428064568320970692304673817341489687891546112",
        "55464657044963196816950587289035428064568320970692304673817341489687891546113",
        "55464657044963196816950587289035428064568320970692304673817341489687899934720",
        "55464657044963196816950587289035428064568320970692304673817341489687899934721",
        "55464657044963196816950587289035428064568320970692304673817341489687908321280"
      ]
    },
    {
      "x": 88,
      "y": 384,
      "size": 1,
      "price": "4683000000000000000000",
      "reserved": "",
      "salt": "0x315e654d44f44fdd9f2862ea0aba36aec1ff41d65c4a53685731c3fbfceef275",
      "assetIds": [
        "55464657044963196816950587289035428064568320970692304673817341489687891546112",
        "55464657044963196816950587289035428064568320970692304673817341489687891546113",
        "55464657044963196816950587289035428064568320970692304673817341489687899934720",
        "55464657044963196816950587289035428064568320970692304673817341489687899934721",
        "55464657044963196816950587289035428064568320970692304673817341489687908321280"
      ]
    },
    {
      "x": 88,
      "y": 385,
      "size": 1,
      "price": "4683000000000000000000",
      "reserved": "",
      "salt": "0x33794101ba05e0dea792f8e49847afc471e5ed7078781650673ee38798d949c9",
      "assetIds": [
        "55464657044963196816950587289035428064568320970692304673817341489687891546112",
        "55464657044963196816950587289035428064568320970692304673817341489687891546113",
        "55464657044963196816950587289035428064568320970692304673817341489687899934720",
        "55464657044963196816950587289035428064568320970692304673817341489687899934721",
        "55464657044963196816950587289035428064568320970692304673817341489687908321280"
      ]
    },
    {
      "x": 88,
      "y": 386,
      "size": 1,
      "price": "4683000000000000000000",
      "reserved": "",
      "salt": "0xcebad1de7ed6a2156f961529cd3c93e1e0fc688ed5a89a6ba6adef638e1e40a2",
      "assetIds": [
        "55464657044963196816950587289035428064568320970692304673817341489687891546112",
        "55464657044963196816950587289035428064568320970692304673817341489687891546113",
        "55464657044963196816950587289035428064568320970692304673817341489687899934720",
        "55464657044963196816950587289035428064568320970692304673817341489687899934721",
        "55464657044963196816950587289035428064568320970692304673817341489687908321280"
      ]
    },
    {
      "x": 88,
      "y": 387,
      "size": 1,
      "price": "1011000000000000000000",
      "reserved": "",
      "salt": "0x2aa12cad23f276475dfcbbe06eef8c66f868433ec84d4a5bc7ede6e7aeb6a36f",
      "assetIds": []
    },
    {
      "x": 88,
      "y": 388,
      "size": 1,
      "price": "1011000000000000000000",
      "reserved": "",
      "salt": "0x3fae941b8aaa5790060a7f74d30b5d42495cd89586ae43ecbcf4685a1f1e79f8",
      "assetIds": []
    },
    {
      "x": 88,
      "y": 389,
      "size": 1,
      "price": "1011000000000000000000",
      "reserved": "",
      "salt": "0x1cfc973af3b39ce859d96b04740f21952d2381a7ca1dafeb638badd56670e783",
      "assetIds": []
    },
    {
      "x": 88,
      "y": 390,
      "size": 1,
      "price": "1011000000000000000000",
      "reserved": "",
      "salt": "0x2068f202a358b1773ecade80ed0bbc923f8cb509e45fd5d47caadb63f1b94cd6",
      "assetIds": []
    },
    {
      "x": 88,
      "y": 391,
      "size": 1,
      "price": "1011000000000000000000",
      "reserved": "",
      "salt": "0x408d2efe7b597bf4f9a88392e49987abb6f6a9cbfc22606b4bc2090b19ad48c5",
      "assetIds": []
    },
    {
      "x": 88,
      "y": 392,
      "size": 1,
      "price": "1011000000000000000000",
      "reserved": "",
      "salt": "0xd63794419421eda2561857a13f917f3c81571670e67386609e8be9b4c52a28a1",
      "assetIds": []
    },
    {
      "x": 88,
      "y": 396,
      "size": 1,
      "price": "1011000000000000000000",
      "reserved": "",
      "salt": "0x156ad22db79600d743b7e72e30408fadff68bea0edfcf8f09aefad1cbbaa3167",
      "assetIds": []
    },
    {
      "x": 88,
      "y": 397,
      "size": 1,
      "price": "1011000000000000000000",
      "reserved": "",
      "salt": "0x7c14a0e662136c62052a0a1c01c2eeb0a3ec6276e3a6e8242f9c80245b3e4d5b",
      "assetIds": []
    },
    {
      "x": 88,
      "y": 398,
      "size": 1,
      "price": "1011000000000000000000",
      "reserved": "",
      "salt": "0xd8be623e9f85cb1be4480e1da355d4faf70b7bb529c07b9d1c3feee41452fa41",
      "assetIds": []
    },
    {
      "x": 88,
      "y": 399,
      "size": 1,
      "price": "1011000000000000000000",
      "reserved": "",
      "salt": "0x96468653b1d8184727c30e3d1c1ae5cb76f67f8d9681637c01cc08f003671e1a",
      "assetIds": []
    },
    {
      "x": 88,
      "y": 400,
      "size": 1,
      "price": "1011000000000000000000",
      "reserved": "",
      "salt": "0x66ec0b77efe1ba1fdbdb7b94b6b3477254473d5ce40293fad6999d76e3d23725",
      "assetIds": []
    },
    {
      "x": 88,
      "y": 401,
      "size": 1,
      "price": "1011000000000000000000",
      "reserved": "",
      "salt": "0xb4593f9ae99a5ac3ee57a1acf3334b5fb31f9c4fa16c50191e87379e6573d5e8",
      "assetIds": []
    },
    {
      "x": 88,
      "y": 402,
      "size": 1,
      "price": "4683000000000000000000",
      "reserved": "",
      "salt": "0x3b0ba2e5cbc0f366628be54c904164fcce2511c43b53c72c4c8b1236e888ac5a",
      "assetIds": [
        "55464657044963196816950587289035428064568320970692304673817341489687891546112",
        "55464657044963196816950587289035428064568320970692304673817341489687891546113",
        "55464657044963196816950587289035428064568320970692304673817341489687899934720",
        "55464657044963196816950587289035428064568320970692304673817341489687899934721",
        "55464657044963196816950587289035428064568320970692304673817341489687908321280"
      ]
    },
    {
      "x": 88,
      "y": 403,
      "size": 1,
      "price": "4683000000000000000000",
      "reserved": "",
      "salt": "0xe1d1c665c9645c5ac6731490c6138a1645ba160041290109f5e5eae104fcde38",
      "assetIds": [
        "55464657044963196816950587289035428064568320970692304673817341489687891546112",
        "55464657044963196816950587289035428064568320970692304673817341489687891546113",
        "55464657044963196816950587289035428064568320970692304673817341489687899934720",
        "55464657044963196816950587289035428064568320970692304673817341489687899934721",
        "55464657044963196816950587289035428064568320970692304673817341489687908321280"
      ]
    },
    {
      "x": 88,
      "y": 404,
      "size": 1,
      "price": "4683000000000000000000",
      "reserved": "",
      "salt": "0xcd175b4e6c533c6d649dd9889c718b3ca3458e7a64ebc98243f70017d8341762",
      "assetIds": [
        "55464657044963196816950587289035428064568320970692304673817341489687891546112",
        "55464657044963196816950587289035428064568320970692304673817341489687891546113",
        "55464657044963196816950587289035428064568320970692304673817341489687899934720",
        "55464657044963196816950587289035428064568320970692304673817341489687899934721",
        "55464657044963196816950587289035428064568320970692304673817341489687908321280"
      ]
    },
    {
      "x": 88,
      "y": 405,
      "size": 1,
      "price": "4683000000000000000000",
      "reserved": "",
      "salt": "0x31113872e7b1e93cc2fdf6863bab452f4852b983ff3be9cd9ef28ce2ee16a6ae",
      "assetIds": [
        "55464657044963196816950587289035428064568320970692304673817341489687891546112",
        "55464657044963196816950587289035428064568320970692304673817341489687891546113",
        "55464657044963196816950587289035428064568320970692304673817341489687899934720",
        "55464657044963196816950587289035428064568320970692304673817341489687899934721",
        "55464657044963196816950587289035428064568320970692304673817341489687908321280"
      ]
    },
    {
      "x": 88,
      "y": 406,
      "size": 1,
      "price": "1011000000000000000000",
      "reserved": "",
      "salt": "0xee5b1d9f8ef247ada74204953c8e9ae00783ef9d9ca735933e342fc1655548fc",
      "assetIds": []
    },
    {
      "x": 88,
      "y": 407,
      "size": 1,
      "price": "1011000000000000000000",
      "reserved": "",
      "salt": "0x95638987cf6d575c77807217b633f8a44e98f750a6e61daf7cec8718fb0b1c9f",
      "assetIds": []
    },
    {
      "x": 89,
      "y": 354,
      "size": 1,
      "price": "1011000000000000000000",
      "reserved": "",
      "salt": "0xebb26a5853d3162d0ca2036e7215efb8a58e8e4296ea38db55fa2cc80f93fb16",
      "assetIds": []
    },
    {
      "x": 89,
      "y": 355,
      "size": 1,
      "price": "1011000000000000000000",
      "reserved": "",
      "salt": "0x5ef22cc2cf10e92e183316170fb8ab6b0f680c12bd8df9f056095105b56ed821",
      "assetIds": []
    },
    {
      "x": 89,
      "y": 356,
      "size": 1,
      "price": "1011000000000000000000",
      "reserved": "",
      "salt": "0xb979ecb751778bbad26ec6f799f62aef32971db618e5ce17bbf2ef3ca00fff6d",
      "assetIds": []
    },
    {
      "x": 89,
      "y": 357,
      "size": 1,
      "price": "1011000000000000000000",
      "reserved": "0x7a9fe22691c811ea339d9b73150e6911a5343dca",
      "salt": "0x6053fd4088f764d8120a7c847b7f54d7addf0a3c472fb3181c28ffa7da009bf0",
      "assetIds": []
    },
    {
      "x": 89,
      "y": 358,
      "size": 1,
      "price": "4683000000000000000000",
      "reserved": "",
      "salt": "0xadf07af00d1b89240d0507b0011610aec5a4ad58e8b854094b5de2654f862873",
      "assetIds": [
        "55464657044963196816950587289035428064568320970692304673817341489687891546112",
        "55464657044963196816950587289035428064568320970692304673817341489687891546113",
        "55464657044963196816950587289035428064568320970692304673817341489687899934720",
        "55464657044963196816950587289035428064568320970692304673817341489687899934721",
        "55464657044963196816950587289035428064568320970692304673817341489687908321280"
      ]
    },
    {
      "x": 89,
      "y": 359,
      "size": 1,
      "price": "4683000000000000000000",
      "reserved": "",
      "salt": "0xa8d955fac3b6f02c4718948391cdea9aeee0528e1ffcd2fbf74ec0c4fb957bd5",
      "assetIds": [
        "55464657044963196816950587289035428064568320970692304673817341489687891546112",
        "55464657044963196816950587289035428064568320970692304673817341489687891546113",
        "55464657044963196816950587289035428064568320970692304673817341489687899934720",
        "55464657044963196816950587289035428064568320970692304673817341489687899934721",
        "55464657044963196816950587289035428064568320970692304673817341489687908321280"
      ]
    },
    {
      "x": 89,
      "y": 384,
      "size": 1,
      "price": "4683000000000000000000",
      "reserved": "",
      "salt": "0xfe865d0c94623f1cba00e2ed906cc53e353f0f589caf51f030c67ff05b1f7dbb",
      "assetIds": [
        "55464657044963196816950587289035428064568320970692304673817341489687891546112",
        "55464657044963196816950587289035428064568320970692304673817341489687891546113",
        "55464657044963196816950587289035428064568320970692304673817341489687899934720",
        "55464657044963196816950587289035428064568320970692304673817341489687899934721",
        "55464657044963196816950587289035428064568320970692304673817341489687908321280"
      ]
    },
    {
      "x": 89,
      "y": 385,
      "size": 1,
      "price": "4683000000000000000000",
      "reserved": "",
      "salt": "0x7d5e76090c4f9416d74b67ce40432c9a16f233637105c75ddf3fe3550472c63a",
      "assetIds": [
        "55464657044963196816950587289035428064568320970692304673817341489687891546112",
        "55464657044963196816950587289035428064568320970692304673817341489687891546113",
        "55464657044963196816950587289035428064568320970692304673817341489687899934720",
        "55464657044963196816950587289035428064568320970692304673817341489687899934721",
        "55464657044963196816950587289035428064568320970692304673817341489687908321280"
      ]
    },
    {
      "x": 89,
      "y": 386,
      "size": 1,
      "price": "4683000000000000000000",
      "reserved": "",
      "salt": "0x738122f1049ddfdd69536abe511bcfd371e046e632df1cad7bac2be67bd76c63",
      "assetIds": [
        "55464657044963196816950587289035428064568320970692304673817341489687891546112",
        "55464657044963196816950587289035428064568320970692304673817341489687891546113",
        "55464657044963196816950587289035428064568320970692304673817341489687899934720",
        "55464657044963196816950587289035428064568320970692304673817341489687899934721",
        "55464657044963196816950587289035428064568320970692304673817341489687908321280"
      ]
    },
    {
      "x": 89,
      "y": 387,
      "size": 1,
      "price": "1011000000000000000000",
      "reserved": "",
      "salt": "0xe73e9f8141aeaaf613d9cd1b8442a54f9563b655c5e136dcd1cd5b949bd9ed14",
      "assetIds": []
    },
    {
      "x": 89,
      "y": 388,
      "size": 1,
      "price": "1011000000000000000000",
      "reserved": "",
      "salt": "0x5c900cf50f5591b1c5be59ff9c7ddc64a565f5d23ce00d84c91ccb9702821f09",
      "assetIds": []
    },
    {
      "x": 89,
      "y": 389,
      "size": 1,
      "price": "1011000000000000000000",
      "reserved": "",
      "salt": "0x5b3d17e7f59f7136195468330a46224b21fa11d3445b574184b045c82e19084f",
      "assetIds": []
    },
    {
      "x": 89,
      "y": 390,
      "size": 1,
      "price": "1011000000000000000000",
      "reserved": "",
      "salt": "0xf1e1f11156477f0b80ea070be83126feee51e7c2d3d130fd5ea3ce0f35b914d2",
      "assetIds": []
    },
    {
      "x": 89,
      "y": 391,
      "size": 1,
      "price": "1011000000000000000000",
      "reserved": "",
      "salt": "0x05bf8e9423a78523196b3d7a594d6c8c25858502ee3dcaa3fb69989ed7a0bb8f",
      "assetIds": []
    },
    {
      "x": 89,
      "y": 392,
      "size": 1,
      "price": "1011000000000000000000",
      "reserved": "",
      "salt": "0xf7a1b322c3393756d95429ff9726d94ed402665d62198498d4595ca0b97a1a2a",
      "assetIds": []
    },
    {
      "x": 89,
      "y": 396,
      "size": 1,
      "price": "1011000000000000000000",
      "reserved": "",
      "salt": "0x07813cf4f308e5b3b3430ff29dc4731d71d80fd65d81917f742e04f0f4184dc0",
      "assetIds": []
    },
    {
      "x": 89,
      "y": 397,
      "size": 1,
      "price": "1011000000000000000000",
      "reserved": "",
      "salt": "0xc345fe4f1afbfb26fb5111a48cf34baa26042ebc31f1aed534040ad18fc1df4d",
      "assetIds": []
    },
    {
      "x": 89,
      "y": 398,
      "size": 1,
      "price": "1011000000000000000000",
      "reserved": "",
      "salt": "0x4880ffe4e33b16d109fbb5a5a1cf7052796b8bebbe594af5654a9319ccde5320",
      "assetIds": []
    },
    {
      "x": 89,
      "y": 399,
      "size": 1,
      "price": "1011000000000000000000",
      "reserved": "",
      "salt": "0x707543146c9e0f2b16ef4c2c6acd54b052d6de75c0831b9ca334142f2686f7e5",
      "assetIds": []
    },
    {
      "x": 89,
      "y": 400,
      "size": 1,
      "price": "1011000000000000000000",
      "reserved": "0x7a9fe22691c811ea339d9b73150e6911a5343dca",
      "salt": "0xd622f6f43766f3bfb09ac09e623beca8c69dfbcd10885c3b4d969981bda1974f",
      "assetIds": []
    },
    {
      "x": 89,
      "y": 401,
      "size": 1,
      "price": "4683000000000000000000",
      "reserved": "",
      "salt": "0x1457d09004bd685096ccf7f5202642d46c426baaf24e2536c500511f14e77d03",
      "assetIds": [
        "55464657044963196816950587289035428064568320970692304673817341489687891546112",
        "55464657044963196816950587289035428064568320970692304673817341489687891546113",
        "55464657044963196816950587289035428064568320970692304673817341489687899934720",
        "55464657044963196816950587289035428064568320970692304673817341489687899934721",
        "55464657044963196816950587289035428064568320970692304673817341489687908321280"
      ]
    },
    {
      "x": 89,
      "y": 402,
      "size": 1,
      "price": "4683000000000000000000",
      "reserved": "",
      "salt": "0x572d2fb21092dbbbfbdb510853f07c3246972ecbf699f7e758f3a8bef1bddfec",
      "assetIds": [
        "55464657044963196816950587289035428064568320970692304673817341489687891546112",
        "55464657044963196816950587289035428064568320970692304673817341489687891546113",
        "55464657044963196816950587289035428064568320970692304673817341489687899934720",
        "55464657044963196816950587289035428064568320970692304673817341489687899934721",
        "55464657044963196816950587289035428064568320970692304673817341489687908321280"
      ]
    },
    {
      "x": 89,
      "y": 403,
      "size": 1,
      "price": "4683000000000000000000",
      "reserved": "",
      "salt": "0x49b5bbd1a316719917d20cc82697f296180f8a2293d3e6f0cb2662ca9b7507c9",
      "assetIds": [
        "55464657044963196816950587289035428064568320970692304673817341489687891546112",
        "55464657044963196816950587289035428064568320970692304673817341489687891546113",
        "55464657044963196816950587289035428064568320970692304673817341489687899934720",
        "55464657044963196816950587289035428064568320970692304673817341489687899934721",
        "55464657044963196816950587289035428064568320970692304673817341489687908321280"
      ]
    },
    {
      "x": 89,
      "y": 404,
      "size": 1,
      "price": "4683000000000000000000",
      "reserved": "",
      "salt": "0x602c8b9ad318f44c2bb07b85afc664434776ae30607ceac35b5a07b416bf677b",
      "assetIds": [
        "55464657044963196816950587289035428064568320970692304673817341489687891546112",
        "55464657044963196816950587289035428064568320970692304673817341489687891546113",
        "55464657044963196816950587289035428064568320970692304673817341489687899934720",
        "55464657044963196816950587289035428064568320970692304673817341489687899934721",
        "55464657044963196816950587289035428064568320970692304673817341489687908321280"
      ]
    },
    {
      "x": 89,
      "y": 405,
      "size": 1,
      "price": "4683000000000000000000",
      "reserved": "",
      "salt": "0xf17a95abd993640fcd88db87a46d084bfbab08a1868a8839b19a5d895721d62a",
      "assetIds": [
        "55464657044963196816950587289035428064568320970692304673817341489687891546112",
        "55464657044963196816950587289035428064568320970692304673817341489687891546113",
        "55464657044963196816950587289035428064568320970692304673817341489687899934720",
        "55464657044963196816950587289035428064568320970692304673817341489687899934721",
        "55464657044963196816950587289035428064568320970692304673817341489687908321280"
      ]
    },
    {
      "x": 89,
      "y": 406,
      "size": 1,
      "price": "1011000000000000000000",
      "reserved": "",
      "salt": "0x587469f8f30213b2977f2378ab690590ebe6aae6ba2063ae39ded920f2d741c7",
      "assetIds": []
    },
    {
      "x": 89,
      "y": 407,
      "size": 1,
      "price": "1011000000000000000000",
      "reserved": "",
      "salt": "0x2645a6f404735a33577f93a31b7d1d3d440063a8b9b77a4207a4583a53cc203e",
      "assetIds": []
    },
    {
      "x": 90,
      "y": 396,
      "size": 1,
      "price": "1011000000000000000000",
      "reserved": "",
      "salt": "0xe917f170fce3f624688657b86c96e47c670b9b7c9caa04aab5588e5d6e5a8b9c",
      "assetIds": []
    },
    {
      "x": 90,
      "y": 397,
      "size": 1,
      "price": "1011000000000000000000",
      "reserved": "",
      "salt": "0x7ee12fdeaa29cde3d3550ee4946b0ab1dbecc6135e6ebcfba77661ca26cd3098",
      "assetIds": []
    },
    {
      "x": 90,
      "y": 398,
      "size": 1,
      "price": "1011000000000000000000",
      "reserved": "",
      "salt": "0xa9ee1a42d43115e19bb4e630b23b8babb52496e7b04b01800a9798bd3bec4cf7",
      "assetIds": []
    },
    {
      "x": 90,
      "y": 399,
      "size": 1,
      "price": "4683000000000000000000",
      "reserved": "",
      "salt": "0x9a21d83f299c0ab394417008431eaacda9125032a2b46d900eb86547b4f78821",
      "assetIds": [
        "55464657044963196816950587289035428064568320970692304673817341489687891546112",
        "55464657044963196816950587289035428064568320970692304673817341489687891546113",
        "55464657044963196816950587289035428064568320970692304673817341489687899934720",
        "55464657044963196816950587289035428064568320970692304673817341489687899934721",
        "55464657044963196816950587289035428064568320970692304673817341489687908321280"
      ]
    },
    {
      "x": 90,
      "y": 400,
      "size": 1,
      "price": "4683000000000000000000",
      "reserved": "",
      "salt": "0x0bfc1ad0880315546eaed905217ec0b8c4da0f6fbf872234feca7968af38e764",
      "assetIds": [
        "55464657044963196816950587289035428064568320970692304673817341489687891546112",
        "55464657044963196816950587289035428064568320970692304673817341489687891546113",
        "55464657044963196816950587289035428064568320970692304673817341489687899934720",
        "55464657044963196816950587289035428064568320970692304673817341489687899934721",
        "55464657044963196816950587289035428064568320970692304673817341489687908321280"
      ]
    },
    {
      "x": 90,
      "y": 401,
      "size": 1,
      "price": "4683000000000000000000",
      "reserved": "",
      "salt": "0x1a494e64b334ffd0cd620d87235a831c0220cb30b8bd88609f2147365e607e8c",
      "assetIds": [
        "55464657044963196816950587289035428064568320970692304673817341489687891546112",
        "55464657044963196816950587289035428064568320970692304673817341489687891546113",
        "55464657044963196816950587289035428064568320970692304673817341489687899934720",
        "55464657044963196816950587289035428064568320970692304673817341489687899934721",
        "55464657044963196816950587289035428064568320970692304673817341489687908321280"
      ]
    },
    {
      "x": 90,
      "y": 405,
      "size": 1,
      "price": "4683000000000000000000",
      "reserved": "",
      "salt": "0x52dab7e2722d14c59cf9cf9d1e3bf5db57840ae1efda83e838230b87ad82f84b",
      "assetIds": [
        "55464657044963196816950587289035428064568320970692304673817341489687891546112",
        "55464657044963196816950587289035428064568320970692304673817341489687891546113",
        "55464657044963196816950587289035428064568320970692304673817341489687899934720",
        "55464657044963196816950587289035428064568320970692304673817341489687899934721",
        "55464657044963196816950587289035428064568320970692304673817341489687908321280"
      ]
    },
    {
      "x": 90,
      "y": 406,
      "size": 1,
      "price": "4683000000000000000000",
      "reserved": "",
      "salt": "0x138bec72e4a43919cc8ad947676d3b8f8b0dc3b8663c23338441f0aebd9837b3",
      "assetIds": [
        "55464657044963196816950587289035428064568320970692304673817341489687891546112",
        "55464657044963196816950587289035428064568320970692304673817341489687891546113",
        "55464657044963196816950587289035428064568320970692304673817341489687899934720",
        "55464657044963196816950587289035428064568320970692304673817341489687899934721",
        "55464657044963196816950587289035428064568320970692304673817341489687908321280"
      ]
    },
    {
      "x": 90,
      "y": 407,
      "size": 1,
      "price": "1011000000000000000000",
      "reserved": "",
      "salt": "0xcd2cad96b4aaa6db99eb50cf76a34feab86f698862d3086256aadab0a44710c8",
      "assetIds": []
    },
    {
      "x": 91,
      "y": 396,
      "size": 1,
      "price": "1011000000000000000000",
      "reserved": "",
      "salt": "0xbf883801bfb81fa12c83f628471401fc3fd008f2b2bf01889e155873329c5dfc",
      "assetIds": []
    },
    {
      "x": 91,
      "y": 397,
      "size": 1,
      "price": "1011000000000000000000",
      "reserved": "",
      "salt": "0x27872abcfb76178a0ebe52d12c30716cba833a6413336f82ac079fa7999e18fd",
      "assetIds": []
    },
    {
      "x": 91,
      "y": 398,
      "size": 1,
      "price": "1011000000000000000000",
      "reserved": "",
      "salt": "0x946267ea55e6e91f34ed45603865cbc467b94ad71eee626fc1666c830ff674d4",
      "assetIds": []
    },
    {
      "x": 91,
      "y": 399,
      "size": 1,
      "price": "4683000000000000000000",
      "reserved": "",
      "salt": "0x60553a9f2c18216809ec3129da054d3c15585e55c2bb73882e09f7de313efb16",
      "assetIds": [
        "55464657044963196816950587289035428064568320970692304673817341489687891546112",
        "55464657044963196816950587289035428064568320970692304673817341489687891546113",
        "55464657044963196816950587289035428064568320970692304673817341489687899934720",
        "55464657044963196816950587289035428064568320970692304673817341489687899934721",
        "55464657044963196816950587289035428064568320970692304673817341489687908321280"
      ]
    },
    {
      "x": 91,
      "y": 400,
      "size": 1,
      "price": "4683000000000000000000",
      "reserved": "",
      "salt": "0x9f8a39a856b085861523df3abb23fa83bda1cf0994e5e0a68d9703bb81be8909",
      "assetIds": [
        "55464657044963196816950587289035428064568320970692304673817341489687891546112",
        "55464657044963196816950587289035428064568320970692304673817341489687891546113",
        "55464657044963196816950587289035428064568320970692304673817341489687899934720",
        "55464657044963196816950587289035428064568320970692304673817341489687899934721",
        "55464657044963196816950587289035428064568320970692304673817341489687908321280"
      ]
    },
    {
      "x": 91,
      "y": 401,
      "size": 1,
      "price": "4683000000000000000000",
      "reserved": "",
      "salt": "0x0373e2315fcc92f85cfbf7e6992ac70c32840e635155f556abb7edb932bc76d8",
      "assetIds": [
        "55464657044963196816950587289035428064568320970692304673817341489687891546112",
        "55464657044963196816950587289035428064568320970692304673817341489687891546113",
        "55464657044963196816950587289035428064568320970692304673817341489687899934720",
        "55464657044963196816950587289035428064568320970692304673817341489687899934721",
        "55464657044963196816950587289035428064568320970692304673817341489687908321280"
      ]
    },
    {
      "x": 91,
      "y": 405,
      "size": 1,
      "price": "4683000000000000000000",
      "reserved": "",
      "salt": "0x5a78bda6822d1ccd520ac3bda9c4c3f224a944224ade197b383325b9ed51a8a5",
      "assetIds": [
        "55464657044963196816950587289035428064568320970692304673817341489687891546112",
        "55464657044963196816950587289035428064568320970692304673817341489687891546113",
        "55464657044963196816950587289035428064568320970692304673817341489687899934720",
        "55464657044963196816950587289035428064568320970692304673817341489687899934721",
        "55464657044963196816950587289035428064568320970692304673817341489687908321280"
      ]
    },
    {
      "x": 91,
      "y": 406,
      "size": 1,
      "price": "4683000000000000000000",
      "reserved": "",
      "salt": "0x3fa1be61dd1e76058cde97079f1ac37375a287a90ecc00d517153b9e9e30168e",
      "assetIds": [
        "55464657044963196816950587289035428064568320970692304673817341489687891546112",
        "55464657044963196816950587289035428064568320970692304673817341489687891546113",
        "55464657044963196816950587289035428064568320970692304673817341489687899934720",
        "55464657044963196816950587289035428064568320970692304673817341489687899934721",
        "55464657044963196816950587289035428064568320970692304673817341489687908321280"
      ]
    },
    {
      "x": 91,
      "y": 407,
      "size": 1,
      "price": "1011000000000000000000",
      "reserved": "",
      "salt": "0x6852c3ead555571d1186bfea39c9ae9601c9b093baa5d55355c158454ce5d50c",
      "assetIds": []
    },
    {
      "x": 92,
      "y": 396,
      "size": 1,
      "price": "1011000000000000000000",
      "reserved": "",
      "salt": "0xac42329c6b5814232f72ab86e9acbdcb669ca29f4732e995747168ed003dfd6d",
      "assetIds": []
    },
    {
      "x": 92,
      "y": 397,
      "size": 1,
      "price": "1011000000000000000000",
      "reserved": "",
      "salt": "0x45bfcace5ea0c616f6c4a8104c139faf651b47f28c1415f421ca35dca05dea1b",
      "assetIds": []
    },
    {
      "x": 92,
      "y": 398,
      "size": 1,
      "price": "1011000000000000000000",
      "reserved": "",
      "salt": "0x030b40e758d8d0ed73cc7cebf938de6f8a030153b30afff01dd99482a0610da1",
      "assetIds": []
    },
    {
      "x": 92,
      "y": 399,
      "size": 1,
      "price": "1011000000000000000000",
      "reserved": "",
      "salt": "0x1d8a7a0acb9950843a34b70e91943c81bc2677c36a31c3f821186f2bc80a73ed",
      "assetIds": []
    },
    {
      "x": 92,
      "y": 400,
      "size": 1,
      "price": "4683000000000000000000",
      "reserved": "",
      "salt": "0x270482eb0ed21141162ed92651b735ae53e0d723aa4a32ab47b71101a8c167c8",
      "assetIds": [
        "55464657044963196816950587289035428064568320970692304673817341489687891546112",
        "55464657044963196816950587289035428064568320970692304673817341489687891546113",
        "55464657044963196816950587289035428064568320970692304673817341489687899934720",
        "55464657044963196816950587289035428064568320970692304673817341489687899934721",
        "55464657044963196816950587289035428064568320970692304673817341489687908321280"
      ]
    },
    {
      "x": 92,
      "y": 401,
      "size": 1,
      "price": "4683000000000000000000",
      "reserved": "",
      "salt": "0x4f834fc95e6bd0ac0892a5667620ab7dc534757fd3355b07977a807e13f64f8d",
      "assetIds": [
        "55464657044963196816950587289035428064568320970692304673817341489687891546112",
        "55464657044963196816950587289035428064568320970692304673817341489687891546113",
        "55464657044963196816950587289035428064568320970692304673817341489687899934720",
        "55464657044963196816950587289035428064568320970692304673817341489687899934721",
        "55464657044963196816950587289035428064568320970692304673817341489687908321280"
      ]
    },
    {
      "x": 92,
      "y": 405,
      "size": 1,
      "price": "4683000000000000000000",
      "reserved": "",
      "salt": "0x14348ef6ff749c7674f3b51700810f716865254cd18f2e509214623dd1e1ecbe",
      "assetIds": [
        "55464657044963196816950587289035428064568320970692304673817341489687891546112",
        "55464657044963196816950587289035428064568320970692304673817341489687891546113",
        "55464657044963196816950587289035428064568320970692304673817341489687899934720",
        "55464657044963196816950587289035428064568320970692304673817341489687899934721",
        "55464657044963196816950587289035428064568320970692304673817341489687908321280"
      ]
    },
    {
      "x": 92,
      "y": 406,
      "size": 1,
      "price": "4683000000000000000000",
      "reserved": "",
      "salt": "0x548cb6803dd7f5f14b0cf4c29317f67cd6e8db7d5e6df0e353d51ecda61c39c9",
      "assetIds": [
        "55464657044963196816950587289035428064568320970692304673817341489687891546112",
        "55464657044963196816950587289035428064568320970692304673817341489687891546113",
        "55464657044963196816950587289035428064568320970692304673817341489687899934720",
        "55464657044963196816950587289035428064568320970692304673817341489687899934721",
        "55464657044963196816950587289035428064568320970692304673817341489687908321280"
      ]
    },
    {
      "x": 92,
      "y": 407,
      "size": 1,
      "price": "1011000000000000000000",
      "reserved": "",
      "salt": "0xdce1835cbef251de1a8c123cda29d16fbc0d5361e6b75a8b3afd6777ecc658d8",
      "assetIds": []
    },
    {
      "x": 93,
      "y": 396,
      "size": 1,
      "price": "1011000000000000000000",
      "reserved": "",
      "salt": "0x61ff95741798d83b158c554f05ad76d51a4aac885badc692ff76dc68ece8656c",
      "assetIds": []
    },
    {
      "x": 93,
      "y": 397,
      "size": 1,
      "price": "1011000000000000000000",
      "reserved": "",
      "salt": "0xd06bec5e6b845f21cdbbd76c3df21558a0b1bd32fad9b47659b709f398b0f7c3",
      "assetIds": []
    },
    {
      "x": 93,
      "y": 398,
      "size": 1,
      "price": "1011000000000000000000",
      "reserved": "",
      "salt": "0x506bf02da3b7146f0ab273fccfe2b1c68139c077c2e63f7b0c2c59c009604996",
      "assetIds": []
    },
    {
      "x": 93,
      "y": 399,
      "size": 1,
      "price": "1011000000000000000000",
      "reserved": "",
      "salt": "0x8dab5da7456cadd5125080f9611089b09ae90ba79b40518484e1744b32b601ba",
      "assetIds": []
    },
    {
      "x": 93,
      "y": 400,
      "size": 1,
      "price": "1011000000000000000000",
      "reserved": "0x7a9fe22691c811ea339d9b73150e6911a5343dca",
      "salt": "0xff06002498184f5f1e187f998330449d9dbb47c62f694e0195e8c7300e0064ad",
      "assetIds": []
    },
    {
      "x": 93,
      "y": 401,
      "size": 1,
      "price": "4683000000000000000000",
      "reserved": "",
      "salt": "0x83d4c1fd5a25fcea84ce160a64b6cfde1f47d5881e496d30014b0a80b9beea46",
      "assetIds": [
        "55464657044963196816950587289035428064568320970692304673817341489687891546112",
        "55464657044963196816950587289035428064568320970692304673817341489687891546113",
        "55464657044963196816950587289035428064568320970692304673817341489687899934720",
        "55464657044963196816950587289035428064568320970692304673817341489687899934721",
        "55464657044963196816950587289035428064568320970692304673817341489687908321280"
      ]
    },
    {
      "x": 93,
      "y": 402,
      "size": 1,
      "price": "4683000000000000000000",
      "reserved": "",
      "salt": "0xed999eb2cb9eae4426c0066a01ceb1c48020ff2d2def4ca8ab1e3b82741e23bd",
      "assetIds": [
        "55464657044963196816950587289035428064568320970692304673817341489687891546112",
        "55464657044963196816950587289035428064568320970692304673817341489687891546113",
        "55464657044963196816950587289035428064568320970692304673817341489687899934720",
        "55464657044963196816950587289035428064568320970692304673817341489687899934721",
        "55464657044963196816950587289035428064568320970692304673817341489687908321280"
      ]
    },
    {
      "x": 93,
      "y": 403,
      "size": 1,
      "price": "4683000000000000000000",
      "reserved": "",
      "salt": "0xc1f66cce363c145213b2467ce457d8465ab965a9642681fcf298e6f6494e25b8",
      "assetIds": [
        "55464657044963196816950587289035428064568320970692304673817341489687891546112",
        "55464657044963196816950587289035428064568320970692304673817341489687891546113",
        "55464657044963196816950587289035428064568320970692304673817341489687899934720",
        "55464657044963196816950587289035428064568320970692304673817341489687899934721",
        "55464657044963196816950587289035428064568320970692304673817341489687908321280"
      ]
    },
    {
      "x": 93,
      "y": 404,
      "size": 1,
      "price": "4683000000000000000000",
      "reserved": "",
      "salt": "0x7077597fc6336ea220b76439131ec5e36a4cea90d4a4dcb407729165b3b0fb8c",
      "assetIds": [
        "55464657044963196816950587289035428064568320970692304673817341489687891546112",
        "55464657044963196816950587289035428064568320970692304673817341489687891546113",
        "55464657044963196816950587289035428064568320970692304673817341489687899934720",
        "55464657044963196816950587289035428064568320970692304673817341489687899934721",
        "55464657044963196816950587289035428064568320970692304673817341489687908321280"
      ]
    },
    {
      "x": 93,
      "y": 405,
      "size": 1,
      "price": "4683000000000000000000",
      "reserved": "",
      "salt": "0x92987a876ae1b6692ecd8f9c29a4f31eb37532233f13ae999d8be95ed8963c86",
      "assetIds": [
        "55464657044963196816950587289035428064568320970692304673817341489687891546112",
        "55464657044963196816950587289035428064568320970692304673817341489687891546113",
        "55464657044963196816950587289035428064568320970692304673817341489687899934720",
        "55464657044963196816950587289035428064568320970692304673817341489687899934721",
        "55464657044963196816950587289035428064568320970692304673817341489687908321280"
      ]
    },
    {
      "x": 93,
      "y": 406,
      "size": 1,
      "price": "1011000000000000000000",
      "reserved": "0x7a9fe22691c811ea339d9b73150e6911a5343dca",
      "salt": "0x6ce1de311a6e68df44220b4a9e810707001d788e45864ac4bdb22c86296ea2e5",
      "assetIds": []
    },
    {
      "x": 93,
      "y": 407,
      "size": 1,
      "price": "1011000000000000000000",
      "reserved": "",
      "salt": "0x3f96b84bdf5adfc8f91d2cea0ab07e91b8d41ca72092775d4bf49585fe7e825f",
      "assetIds": []
    },
    {
      "x": 94,
      "y": 396,
      "size": 1,
      "price": "1011000000000000000000",
      "reserved": "",
      "salt": "0x3d6359b3d495dc8f6275079fb5debaf1f2c576f16e57be4a47e3075e36daf0a7",
      "assetIds": []
    },
    {
      "x": 94,
      "y": 397,
      "size": 1,
      "price": "1011000000000000000000",
      "reserved": "",
      "salt": "0x5a679924d014412f88ffc4d16c3c9a711e0682871fb56759ad5957209416fb3d",
      "assetIds": []
    },
    {
      "x": 94,
      "y": 398,
      "size": 1,
      "price": "1011000000000000000000",
      "reserved": "",
      "salt": "0xce0a9786a74341af515ad5a392c9bafc0b7f9e733769fb39426266d7480d3862",
      "assetIds": []
    },
    {
      "x": 94,
      "y": 399,
      "size": 1,
      "price": "1011000000000000000000",
      "reserved": "",
      "salt": "0x93d0b746451d9356598ffeaca424b6a1dc570bf9863c357d41191b86b69d2784",
      "assetIds": []
    },
    {
      "x": 94,
      "y": 400,
      "size": 1,
      "price": "1011000000000000000000",
      "reserved": "",
      "salt": "0xaeac2a48dd11c7d9fdf78ea965cfc3d3d9002c5fe2f5eb2c85c9a2fb9a76b2c0",
      "assetIds": []
    },
    {
      "x": 94,
      "y": 401,
      "size": 1,
      "price": "4683000000000000000000",
      "reserved": "",
      "salt": "0xdb950413145b19cb3cca9af60d98a4c308bf0425ee2624177fe8c717cdc572d3",
      "assetIds": [
        "55464657044963196816950587289035428064568320970692304673817341489687891546112",
        "55464657044963196816950587289035428064568320970692304673817341489687891546113",
        "55464657044963196816950587289035428064568320970692304673817341489687899934720",
        "55464657044963196816950587289035428064568320970692304673817341489687899934721",
        "55464657044963196816950587289035428064568320970692304673817341489687908321280"
      ]
    },
    {
      "x": 94,
      "y": 402,
      "size": 1,
      "price": "4683000000000000000000",
      "reserved": "",
      "salt": "0xdd6ed845f6cfbef39fe9da6a25c2bb90eba203c5f5df882b4efe898ee025fa57",
      "assetIds": [
        "55464657044963196816950587289035428064568320970692304673817341489687891546112",
        "55464657044963196816950587289035428064568320970692304673817341489687891546113",
        "55464657044963196816950587289035428064568320970692304673817341489687899934720",
        "55464657044963196816950587289035428064568320970692304673817341489687899934721",
        "55464657044963196816950587289035428064568320970692304673817341489687908321280"
      ]
    },
    {
      "x": 94,
      "y": 403,
      "size": 1,
      "price": "4683000000000000000000",
      "reserved": "",
      "salt": "0x13b67f9551c4250ebabf66c4a59384ea5179f06df5291d340d3dfcfee110b0ac",
      "assetIds": [
        "55464657044963196816950587289035428064568320970692304673817341489687891546112",
        "55464657044963196816950587289035428064568320970692304673817341489687891546113",
        "55464657044963196816950587289035428064568320970692304673817341489687899934720",
        "55464657044963196816950587289035428064568320970692304673817341489687899934721",
        "55464657044963196816950587289035428064568320970692304673817341489687908321280"
      ]
    },
    {
      "x": 94,
      "y": 404,
      "size": 1,
      "price": "4683000000000000000000",
      "reserved": "",
      "salt": "0x5e3054394979ddf7461e82d882828d4c5a7e032a17d2ca9d88cbf61212246dbc",
      "assetIds": [
        "55464657044963196816950587289035428064568320970692304673817341489687891546112",
        "55464657044963196816950587289035428064568320970692304673817341489687891546113",
        "55464657044963196816950587289035428064568320970692304673817341489687899934720",
        "55464657044963196816950587289035428064568320970692304673817341489687899934721",
        "55464657044963196816950587289035428064568320970692304673817341489687908321280"
      ]
    },
    {
      "x": 94,
      "y": 405,
      "size": 1,
      "price": "1011000000000000000000",
      "reserved": "",
      "salt": "0x43820dfe390959b888756560b9764932a8242ea5ac0772a4cc7208ab45015508",
      "assetIds": []
    },
    {
      "x": 94,
      "y": 406,
      "size": 1,
      "price": "1011000000000000000000",
      "reserved": "",
      "salt": "0xc7edef9515e95fc1800bdb6d2ca87e622dc283853ec7d8b87a0579e82aaeb781",
      "assetIds": []
    },
    {
      "x": 94,
      "y": 407,
      "size": 1,
      "price": "1011000000000000000000",
      "reserved": "",
      "salt": "0xbbef33ab407987ace71e25f8098801d97c230ab7b67b44c72da263b46d919442",
      "assetIds": []
    },
    {
      "x": 95,
      "y": 396,
      "size": 1,
      "price": "1011000000000000000000",
      "reserved": "",
      "salt": "0xdcac86cbad95dd2279e3622d88591b480cfbe3d802ba2732d86b03bed360d430",
      "assetIds": []
    },
    {
      "x": 95,
      "y": 397,
      "size": 1,
      "price": "1011000000000000000000",
      "reserved": "",
      "salt": "0xd4c04aca0f1419722d642fea32fa2834f3ba94d7a76e51d17a241e939bb45e05",
      "assetIds": []
    },
    {
      "x": 95,
      "y": 398,
      "size": 1,
      "price": "1011000000000000000000",
      "reserved": "",
      "salt": "0xc15c1ea8691c10a51d11a7ecda014535b3563a116813741d5309f86c669bccd8",
      "assetIds": []
    },
    {
      "x": 95,
      "y": 399,
      "size": 1,
      "price": "1011000000000000000000",
      "reserved": "",
      "salt": "0x642faa71f6d68740b12685f86468a18f3ad4234f7319d6b31fd02376cb4a33c3",
      "assetIds": []
    },
    {
      "x": 95,
      "y": 400,
      "size": 1,
      "price": "1011000000000000000000",
      "reserved": "",
      "salt": "0x1f7ea9a0059480de03d52f93b40be59b1e07826f946827b71e31b3c15b93e7af",
      "assetIds": []
    },
    {
      "x": 95,
      "y": 401,
      "size": 1,
      "price": "1011000000000000000000",
      "reserved": "",
      "salt": "0x4ef607e0236323c7fc782ba931794a1457f816c47d239386cb7a49d16267fa8c",
      "assetIds": []
    },
    {
      "x": 95,
      "y": 402,
      "size": 1,
      "price": "4683000000000000000000",
      "reserved": "",
      "salt": "0x69313da99abe13f055c111687485b1661ebc2c31db5eb255319f45eaa518af0e",
      "assetIds": [
        "55464657044963196816950587289035428064568320970692304673817341489687891546112",
        "55464657044963196816950587289035428064568320970692304673817341489687891546113",
        "55464657044963196816950587289035428064568320970692304673817341489687899934720",
        "55464657044963196816950587289035428064568320970692304673817341489687899934721",
        "55464657044963196816950587289035428064568320970692304673817341489687908321280"
      ]
    },
    {
      "x": 95,
      "y": 403,
      "size": 1,
      "price": "4683000000000000000000",
      "reserved": "",
      "salt": "0xa218e08a1f0b23888a3f940fc239a9f77ce1bee61bf3027ac55022523d126eda",
      "assetIds": [
        "55464657044963196816950587289035428064568320970692304673817341489687891546112",
        "55464657044963196816950587289035428064568320970692304673817341489687891546113",
        "55464657044963196816950587289035428064568320970692304673817341489687899934720",
        "55464657044963196816950587289035428064568320970692304673817341489687899934721",
        "55464657044963196816950587289035428064568320970692304673817341489687908321280"
      ]
    },
    {
      "x": 95,
      "y": 404,
      "size": 1,
      "price": "1011000000000000000000",
      "reserved": "",
      "salt": "0xc34e16d56d376bb23e98d1255522173cd9f0fe5c399d6d3e1b6f1fbef08c744a",
      "assetIds": []
    },
    {
      "x": 95,
      "y": 405,
      "size": 1,
      "price": "1011000000000000000000",
      "reserved": "",
      "salt": "0x1605ea7bb72a1a3d89efa7c6f9465baffa85aa81c2fe7d0667d542dea2ee261a",
      "assetIds": []
    },
    {
      "x": 95,
      "y": 406,
      "size": 1,
      "price": "1011000000000000000000",
      "reserved": "",
      "salt": "0xecb5df8c41ce6c8c8c5adc0a942b2394c28159db5a2d10445c7b3a4435d42853",
      "assetIds": []
    },
    {
      "x": 95,
      "y": 407,
      "size": 1,
      "price": "1011000000000000000000",
      "reserved": "",
      "salt": "0x80f9b11bf05bedb28907796cc4b27a4e49c12cec13ee8fad37b92034f48114f4",
      "assetIds": []
    },
    {
      "x": 48,
      "y": 381,
      "size": 3,
      "price": "8648000000000000000000",
      "reserved": "0x7a9fe22691c811ea339d9b73150e6911a5343dca",
      "salt": "0x636c48d32e939e84c4ac6224f0a792251f308bebada5a652505cc28923a98693",
      "assetIds": []
    },
    {
      "x": 51,
      "y": 375,
      "size": 3,
      "price": "8648000000000000000000",
      "reserved": "0x7a9fe22691c811ea339d9b73150e6911a5343dca",
      "salt": "0x543ff166fa1d9d9921600da25fb6915c1c5b60bdadd6262410d0d4fbad631337",
      "assetIds": []
    },
    {
      "x": 57,
      "y": 378,
      "size": 3,
      "price": "8648000000000000000000",
      "reserved": "",
      "salt": "0x63b9d6b454028925ee307b13f59b72a0ed75e38ad843b788f5515b6a79eb183c",
      "assetIds": []
    },
    {
      "x": 60,
      "y": 363,
      "size": 3,
      "price": "8648000000000000000000",
      "reserved": "",
      "salt": "0x7cec5c8b962b85de890a0cf8870beb5ada7830913db819a0c2842105f29ad2af",
      "assetIds": []
    },
    {
      "x": 63,
      "y": 360,
      "size": 3,
      "price": "8648000000000000000000",
      "reserved": "0x7a9fe22691c811ea339d9b73150e6911a5343dca",
      "salt": "0x5d9bb7b97942361499e6c8b92b1fe8cf462386e8bcbe6a428faa22842387bcbe",
      "assetIds": []
    },
    {
      "x": 63,
      "y": 366,
      "size": 3,
      "price": "8648000000000000000000",
      "reserved": "0x7a9fe22691c811ea339d9b73150e6911a5343dca",
      "salt": "0xe0112eb8b96a655face91db2be5193406f501f361b22a150a70edbea67876bbd",
      "assetIds": []
    },
    {
      "x": 66,
      "y": 405,
      "size": 3,
      "price": "8648000000000000000000",
      "reserved": "",
      "salt": "0x601d8e57b5813361877377e0476b68322501d2e269ab0484ed32831fa249c8e7",
      "assetIds": []
    },
    {
      "x": 75,
      "y": 393,
      "size": 3,
      "price": "8648000000000000000000",
      "reserved": "",
      "salt": "0x5eb9fc5c72f69aa04df8b687220d63fba1a6e576cc0b266c35cf49a28212d015",
      "assetIds": []
    },
    {
      "x": 81,
      "y": 396,
      "size": 3,
      "price": "8648000000000000000000",
      "reserved": "0x7a9fe22691c811ea339d9b73150e6911a5343dca",
      "salt": "0x42e1237f2d7766fedb378db1771214436dd21ee2eef1d20d0a81605ad8e76bff",
      "assetIds": []
    },
    {
      "x": 87,
      "y": 393,
      "size": 3,
      "price": "8648000000000000000000",
      "reserved": "",
      "salt": "0x084cfa92cc31ddaa4b4d0933b861eace04db863f5799f5a9e269614f78f3078d",
      "assetIds": []
    },
    {
      "x": 90,
      "y": 402,
      "size": 3,
      "price": "8648000000000000000000",
      "reserved": "0x7a9fe22691c811ea339d9b73150e6911a5343dca",
      "salt": "0x02231d88e2971abb4a9e91887ccb0d12fa034b6fb11487c56d5c7e305f2c269c",
      "assetIds": []
    },
    {
      "x": 60,
      "y": 378,
      "size": 6,
      "price": "32772000000000000000000",
      "reserved": "0x7a9fe22691c811ea339d9b73150e6911a5343dca",
      "salt": "0x7901c5d4c506aaa404421def5d2322909f8c98fe6dea0a038e7a1b6823c6c7a9",
      "assetIds": []
    },
    {
      "x": 60,
      "y": 390,
      "size": 6,
      "price": "32772000000000000000000",
      "reserved": "",
      "salt": "0xb8ab3ddb6dda4808a5ceae7d84d7f76d1b50fba119be746cfe46d09070feca61",
      "assetIds": []
    },
    {
      "x": 66,
      "y": 396,
      "size": 6,
      "price": "32772000000000000000000",
      "reserved": "0x7a9fe22691c811ea339d9b73150e6911a5343dca",
      "salt": "0xec9d8c562289e11ee06d4f66566c68cd18c05530f000f9f563fd3ca08cdfe34f",
      "assetIds": []
    },
    {
      "x": 72,
      "y": 396,
      "size": 6,
      "price": "32772000000000000000000",
      "reserved": "",
      "salt": "0x9c570ccf94db7a5c00b4d670e8c12b976190fd89f47b5fa7f3fcba5fef63102d",
      "assetIds": []
    },
    {
      "x": 90,
      "y": 384,
      "size": 6,
      "price": "32772000000000000000000",
      "reserved": "",
      "salt": "0x9082d7f0d9c9ef5b41d696c60a89c0d1875a4c0993c58afaa0dbddb8c5d9844d",
      "assetIds": []
    },
    {
      "x": 90,
      "y": 390,
      "size": 6,
      "price": "32772000000000000000000",
      "reserved": "0x7a9fe22691c811ea339d9b73150e6911a5343dca",
      "salt": "0xd7bf0e0903a3e9075324c37662013388c0e0c11e3d553787e605ae77a0f8da65",
      "assetIds": []
    },
    {
      "x": 48,
      "y": 384,
      "size": 12,
      "price": "123806000000000000000000",
      "reserved": "0x7a9fe22691c811ea339d9b73150e6911a5343dca",
      "salt": "0x33095a939e1ebaad722a317c0d0a36fdc8a561b716ad28c21547ac36c4fd82fc",
      "assetIds": []
    },
    {
      "x": 48,
      "y": 396,
      "size": 12,
      "price": "123806000000000000000000",
      "reserved": "",
      "salt": "0xfe15d1f762662fb5d966b84fa0b28a02299c3368b01e30682c43cf98d4afebfa",
      "assetIds": []
    },
    {
      "x": 72,
      "y": 360,
      "size": 24,
      "price": "466102000000000000000000",
      "reserved": "0x7a9fe22691c811ea339d9b73150e6911a5343dca",
      "salt": "0x54b8176048440edaa5f351ced7762fa8af21aeddd86c72e2848b2e32c1f3d2f4",
      "assetIds": []
    }
  ],
  "solcInputHash": "313f455adab9ae93096e43acc50d7d38",
  "bytecode": "0x610160604052620d2f006005556103e860075534801561001e57600080fd5b5060405161242e38038061242e833981810160405261018081101561004257600080fd5b50805160208201516040830151606080850151608086015160a08088015160c0808a015160e08b01516101008c01516101208d01516101408e0151610160909e0151600280546001600160a01b0319166001600160a01b03861617905560038390558d8b1b6001600160601b0319908116909852998c901b909616909352999a9899979895979496929590949391926100dc8a600161014a565b600680546001600160a01b03199081166001600160a01b039a8b1617909155610140979097526101209590955260008054909616979096169690961790935550606093841b6001600160601b031990811660e05292841b831660805290921b1661010052506101ae92505050565b6001600160a01b038216600081815260016020908152604091829020805460ff191685151590811790915582519384529083015280517fb21eb88b4e33b3f1281830a7178d74d8aa73220416215726b68ae23d539515cb9281900390910190a15050565b60805160601c60a05160601c60c05160601c60e05160601c6101005160601c61012051610140516121fb610233600039806109375280611d44525080610913528061139a525080611da45250806115d252806116f4525080610c50528061159c5280611dd852508061166152806116c5525080610dfa528061190852506121fb6000f3fe608060405234801561001057600080fd5b50600436106101515760003560e01c8063984d6252116100cd578063dc5074af11610081578063ecb255b511610066578063ecb255b514610857578063f23a6e6114610874578063f2e7b3811461090957610151565b8063dc5074af14610814578063e56f8a9e1461083a57610151565b8063bc197c81116100b2578063bc197c81146105d3578063c10a420814610735578063caed35001461080c57610151565b8063984d6252146104db578063b522ecff146105ad57610151565b80636e9960c3116101245780638a04af6a116101095780638a04af6a1461032a5780638a12b82f146103585780638f283970146104b557610151565b80636e9960c3146102fe57806377f1c3ac1461032257610151565b806325cb5bc014610156578063495906571461017057806358bc29441461017857806365194ce7146101a0575b600080fd5b61015e610911565b60408051918252519081900360200190f35b61015e610935565b61019e6004803603602081101561018e57600080fd5b50356001600160a01b0316610959565b005b610246600480360360208110156101b657600080fd5b8101906020810181356401000000008111156101d157600080fd5b8201836020820111156101e357600080fd5b8035906020019184600183028401116401000000008311171561020557600080fd5b91908080601f016020809104026020016040519081016040528093929190818152602001838380828437600092019190915250929550610a04945050505050565b6040518080602001866001600160a01b03166001600160a01b03168152602001856001600160a01b03166001600160a01b03168152602001848152602001838152602001828103825287818151815260200191508051906020019080838360005b838110156102bf5781810151838201526020016102a7565b50505050905090810190601f1680156102ec5780820380516001836020036101000a031916815260200191505b50965050505050505060405180910390f35b610306610b09565b604080516001600160a01b039092168252519081900360200190f35b61015e610b18565b61019e6004803603604081101561034057600080fd5b506001600160a01b0381351690602001351515610b1e565b61019e600480360361018081101561036f57600080fd5b6001600160a01b038235811692602081013582169260408201359092169160608201359160808101359160a08201359160c08101359160e0820135916101008101359181019061014081016101208201356401000000008111156103d257600080fd5b8201836020820111156103e457600080fd5b8035906020019184602083028401116401000000008311171561040657600080fd5b91939092909160208101903564010000000081111561042457600080fd5b82018360208201111561043657600080fd5b8035906020019184602083028401116401000000008311171561045857600080fd5b91939092909160208101903564010000000081111561047657600080fd5b82018360208201111561048857600080fd5b803590602001918460018302840111640100000000831117156104aa57600080fd5b509092509050610b75565b61019e600480360360208110156104cb57600080fd5b50356001600160a01b0316610cc3565b61019e600480360360608110156104f157600080fd5b6001600160a01b03823516919081019060408101602082013564010000000081111561051c57600080fd5b82018360208201111561052e57600080fd5b8035906020019184602083028401116401000000008311171561055057600080fd5b91939092909160208101903564010000000081111561056e57600080fd5b82018360208201111561058057600080fd5b803590602001918460208302840111640100000000831117156105a257600080fd5b509092509050610d99565b61019e600480360360208110156105c357600080fd5b50356001600160a01b0316610f24565b610700600480360360a08110156105e957600080fd5b6001600160a01b03823581169260208101359091169181019060608101604082013564010000000081111561061d57600080fd5b82018360208201111561062f57600080fd5b8035906020019184602083028401116401000000008311171561065157600080fd5b91939092909160208101903564010000000081111561066f57600080fd5b82018360208201111561068157600080fd5b803590602001918460208302840111640100000000831117156106a357600080fd5b9193909290916020810190356401000000008111156106c157600080fd5b8201836020820111156106d357600080fd5b803590602001918460018302840111640100000000831117156106f557600080fd5b50909250905061100d565b604080517fffffffff000000000000000000000000000000000000000000000000000000009092168252519081900360200190f35b6107f8600480360360a081101561074b57600080fd5b81019060208101813564010000000081111561076657600080fd5b82018360208201111561077857600080fd5b8035906020019184600183028401116401000000008311171561079a57600080fd5b91908080601f016020809104026020016040519081016040528093929190818152602001838380828437600092019190915250929550506001600160a01b03833581169450602084013516926040810135925060600135905061103a565b604080519115158252519081900360200190f35b610306611176565b6107f86004803603602081101561082a57600080fd5b50356001600160a01b0316611185565b61019e6004803603602081101561085057600080fd5b50356111a3565b61019e6004803603602081101561086d57600080fd5b5035611207565b610700600480360360a081101561088a57600080fd5b6001600160a01b03823581169260208101359091169160408201359160608101359181019060a0810160808201356401000000008111156108ca57600080fd5b8201836020820111156108dc57600080fd5b803590602001918460018302840111640100000000831117156108fe57600080fd5b50909250905061126b565b61015e611296565b7f000000000000000000000000000000000000000000000000000000000000000090565b7f000000000000000000000000000000000000000000000000000000000000000090565b6000546001600160a01b031633146109b8576040805162461bcd60e51b815260206004820152601060248201527f53656e646572206e6f742061646d696e00000000000000000000000000000000604482015290519081900360640190fd5b600554600280546001600160a01b03908116600090815260046020526040902042909301909255805473ffffffffffffffffffffffffffffffffffffffff191692909116919091179055565b606060008060008060606000806000808a80602001905160a0811015610a2957600080fd5b8101908080516040519392919084640100000000821115610a4957600080fd5b908301906020820185811115610a5e57600080fd5b8251640100000000811182820188101715610a7857600080fd5b82525081516020918201929091019080838360005b83811015610aa5578181015183820152602001610a8d565b50505050905090810190601f168015610ad25780820380516001836020036101000a031916815260200191505b5060409081526020820151908201516060830151608090930151959f50909d509b5099509197505050505050505091939590929450565b6000546001600160a01b031690565b60035490565b6000546001600160a01b03163314610b675760405162461bcd60e51b815260040180806020018281038252602e815260200180612198602e913960400191505060405180910390fd5b610b71828261129c565b5050565b610b7f898961131e565b610c048f8e8e8e8e8e8d8d8d80806020026020016040519081016040528093929190818152602001838360200280828437600081840152601f19601f820116905080830192505050505050508c8c8080602002602001604051908101604052809392919081815260200183836020028082843760009201919091525061139892505050565b610c458f8984848080601f01602080910402602001604051908101604052809392919081815260200183838082843760009201919091525061157592505050565b610c758f8f8e8e8e8d7f00000000000000000000000000000000000000000000000000000000000000008f6115c6565b610cb28e87878080602002602001604051908101604052809392919081815260200183836020028082843760009201919091525061189192505050565b505050505050505050505050505050565b6000546001600160a01b03163314610d22576040805162461bcd60e51b815260206004820152601b60248201527f6f6e6c792061646d696e2063616e206368616e67652061646d696e0000000000604482015290519081900360640190fd5b600054604080516001600160a01b039283168152918316602083015280517f7e644d79422f17c01e4894b5f4f588d331ebfa28653d42ae832dc59e38c9798f9281900390910190a16000805473ffffffffffffffffffffffffffffffffffffffff19166001600160a01b0392909216919091179055565b6000546001600160a01b03163314610df8576040805162461bcd60e51b815260206004820152600e60248201527f4e4f545f415554484f52495a4544000000000000000000000000000000000000604482015290519081900360640190fd5b7f00000000000000000000000000000000000000000000000000000000000000006001600160a01b0316632eb2c2d63087878787876040518763ffffffff1660e01b815260040180876001600160a01b03166001600160a01b03168152602001866001600160a01b03166001600160a01b031681526020018060200180602001806020018481038452888882818152602001925060200280828437600083820152601f01601f19169091018581038452868152602090810191508790870280828437600081840152601f19601f8201169050808301925050508481038252600081526020016020019950505050505050505050600060405180830381600087803b158015610f0557600080fd5b505af1158015610f19573d6000803e3d6000fd5b505050505050505050565b6001600160a01b038116610f7f576040805162461bcd60e51b815260206004820152600c60248201527f5a45524f5f414444524553530000000000000000000000000000000000000000604482015290519081900360640190fd5b6000546001600160a01b03163314610fde576040805162461bcd60e51b815260206004820152600e60248201527f4e4f545f415554484f52495a4544000000000000000000000000000000000000604482015290519081900360640190fd5b6006805473ffffffffffffffffffffffffffffffffffffffff19166001600160a01b0392909216919091179055565b7fbc197c810000000000000000000000000000000000000000000000000000000098975050505050505050565b600060035482118061105d5750836001600160a01b0316856001600160a01b0316145b8061106757508242115b156110745750600061116d565b60408051606087811b7fffffffffffffffffffffffffffffffffffffffff0000000000000000000000009081166020808501919091529188901b166034830152604882018690526068808301869052835180840390910181526088830184528051908201207f19457468657265756d205369676e6564204d6573736167653a0a33320000000060a884015260c48084018290528451808503909101815260e4909301909352815191012060009061112b9089611a55565b6001600160a01b03811660009081526004602052604090205490915042116111585760019250505061116d565b6002546001600160a01b039081169116149150505b95945050505050565b6002546001600160a01b031690565b6001600160a01b031660009081526001602052604090205460ff1690565b6000546001600160a01b03163314611202576040805162461bcd60e51b815260206004820152601060248201527f53656e646572206e6f742061646d696e00000000000000000000000000000000604482015290519081900360640190fd5b600355565b6000546001600160a01b03163314611266576040805162461bcd60e51b815260206004820152600e60248201527f4e4f545f415554484f52495a4544000000000000000000000000000000000000604482015290519081900360640190fd5b600755565b7ff23a6e61000000000000000000000000000000000000000000000000000000009695505050505050565b60075490565b6001600160a01b03821660008181526001602090815260409182902080547fffffffffffffffffffffffffffffffffffffffffffffffffffffffffffffff001685151590811790915582519384529083015280517fb21eb88b4e33b3f1281830a7178d74d8aa73220416215726b68ae23d539515cb9281900390910190a15050565b6113456103e861133960075485611b2290919063ffffffff16565b9063ffffffff611b9816565b8114610b71576040805162461bcd60e51b815260206004820152600d60248201527f494e56414c49445f505249434500000000000000000000000000000000000000604482015290519081900360640190fd5b7f0000000000000000000000000000000000000000000000000000000000000000421061140c576040805162461bcd60e51b815260206004820152600c60248201527f53414c455f49535f4f5645520000000000000000000000000000000000000000604482015290519081900360640190fd5b6001600160a01b03891633148061143257503360009081526001602052604090205460ff165b611483576040805162461bcd60e51b815260206004820152600e60248201527f4e4f545f415554484f52495a4544000000000000000000000000000000000000604482015290519081900360640190fd5b6001600160a01b03881615806114aa5750886001600160a01b0316886001600160a01b0316145b6114fb576040805162461bcd60e51b815260206004820152600d60248201527f52455345525645445f4c414e4400000000000000000000000000000000000000604482015290519081900360640190fd5b600061150c888888888d8989611bfd565b90506115188282611ca2565b611569576040805162461bcd60e51b815260206004820152600c60248201527f494e56414c49445f4c414e440000000000000000000000000000000000000000604482015290519081900360640190fd5b50505050505050505050565b60006115818484611d6b565b6006549091506115c0908590839085906001600160a01b03167f0000000000000000000000000000000000000000000000000000000000000000611eb8565b50505050565b83600114806115fc57507f00000000000000000000000000000000000000000000000000000000000000006001600160a01b0316155b156116c357604080517f6e1e3bbf0000000000000000000000000000000000000000000000000000000081526001600160a01b03898116600483015260248201879052604482018990526064820188905260a06084830152600060a4830181905292517f000000000000000000000000000000000000000000000000000000000000000090911692636e1e3bbf9260e4808201939182900301818387803b1580156116a657600080fd5b505af11580156116ba573d6000803e3d6000fd5b50505050611827565b7f00000000000000000000000000000000000000000000000000000000000000006001600160a01b0316636e1e3bbf7f00000000000000000000000000000000000000000000000000000000000000008689898c60405160200180826001600160a01b03166001600160a01b031681526020019150506040516020818303038152906040526040518663ffffffff1660e01b815260040180866001600160a01b03166001600160a01b0316815260200185815260200184815260200183815260200180602001828103825283818151815260200191508051906020019080838360005b838110156117be5781810151838201526020016117a6565b50505050905090810190601f1680156117eb5780820380516001836020036101000a031916815260200191505b509650505050505050600060405180830381600087803b15801561180e57600080fd5b505af1158015611822573d6000803e3d6000fd5b505050505b60408051858152602081018590526001600160a01b03848116828401526060820184905291516101988802890192808b1692908c16917fe4dfa6ac11314892f3029b34a25b1a887da3b1cab2bbf8506d87128ba6e3ac029181900360800190a45050505050505050565b6060815167ffffffffffffffff811180156118ab57600080fd5b506040519080825280602002602001820160405280156118d5578160200160208202803683370190505b50905060005b82518110156119055760018282815181106118f257fe5b60209081029190910101526001016118db565b507f00000000000000000000000000000000000000000000000000000000000000006001600160a01b0316632eb2c2d6308585856040518563ffffffff1660e01b815260040180856001600160a01b03166001600160a01b03168152602001846001600160a01b03166001600160a01b03168152602001806020018060200180602001848103845286818151815260200191508051906020019060200280838360005b838110156119c05781810151838201526020016119a8565b50505050905001848103835285818151815260200191508051906020019060200280838360005b838110156119ff5781810151838201526020016119e7565b50505050905001848103825260008152602001602001975050505050505050600060405180830381600087803b158015611a3857600080fd5b505af1158015611a4c573d6000803e3d6000fd5b50505050505050565b60008151604114611a6557600080fd5b60208201516040830151606084015160001a601b811015611a8457601b015b8060ff16601b1480611a9957508060ff16601c145b611aa257600080fd5b6040805160008152602080820180845289905260ff8416828401526060820186905260808201859052915160019260a0808401939192601f1981019281900390910190855afa158015611af9573d6000803e3d6000fd5b5050604051601f1901519450506001600160a01b038416611b1957600080fd5b50505092915050565b600082611b3157506000611b92565b5081810281838281611b3f57fe5b0414611b92576040805162461bcd60e51b815260206004820152600860248201527f6f766572666c6f77000000000000000000000000000000000000000000000000604482015290519081900360640190fd5b92915050565b600081611bec576040805162461bcd60e51b815260206004820152600960248201527f64697662797a65726f0000000000000000000000000000000000000000000000604482015290519081900360640190fd5b818381611bf557fe5b049392505050565b60008787878787878760405160200180888152602001878152602001868152602001858152602001846001600160a01b03166001600160a01b031660601b8152601401838152602001828051906020019060200280838360005b83811015611c6f578181015183820152602001611c57565b50505050905001975050505050505050604051602081830303815290604052805190602001209050979650505050505050565b600081815b8451811015611d41576000858281518110611cbe57fe5b6020026020010151905080831015611d065782816040516020018083815260200182815260200192505050604051602081830303815290604052805190602001209250611d38565b808360405160200180838152602001828152602001925050506040516020818303038152906040528051906020012092505b50600101611ca7565b507f0000000000000000000000000000000000000000000000000000000000000000149392505050565b600080611d84606461133985600563ffffffff611b2216565b604080516323b872dd60e01b81526001600160a01b0387811660048301527f0000000000000000000000000000000000000000000000000000000000000000811660248301526044820184905291519293507f0000000000000000000000000000000000000000000000000000000000000000909116916323b872dd916064808201926020929091908290030181600087803b158015611e2357600080fd5b505af1158015611e37573d6000803e3d6000fd5b505050506040513d6020811015611e4d57600080fd5b5051611ea0576040805162461bcd60e51b815260206004820152601360248201527f4645455f5452414e534645525f4641494c454400000000000000000000000000604482015290519081900360640190fd5b611eb0838263ffffffff61213a16565b949350505050565b82518190859015612062576060600080600080611ed48a610a04565b9398509196509450925090506000611eef868686868661103a565b15611f7d57611f09611f018d84611b22565b612710611b98565b9050886001600160a01b0316846001600160a01b0316866001600160a01b03167fac7a699eb95c3c6d390ec4626de17ef9a67b35891efdb197beba7c7fdd45fac48f858760405180848152602001838152602001828152602001935050505060405180910390a4611f7a878261213a565b96505b801561205b57604080516323b872dd60e01b81526001600160a01b038f811660048301528781166024830152604482018490529151918a16916323b872dd916064808201926020929091908290030181600087803b158015611fde57600080fd5b505af1158015611ff2573d6000803e3d6000fd5b505050506040513d602081101561200857600080fd5b505161205b576040805162461bcd60e51b815260206004820152601960248201527f636f6d6d6973696f6e207472616e73666572206661696c656400000000000000604482015290519081900360640190fd5b5050505050505b604080516323b872dd60e01b81526001600160a01b0389811660048301528681166024830152604482018490529151918416916323b872dd916064808201926020929091908290030181600087803b1580156120bd57600080fd5b505af11580156120d1573d6000803e3d6000fd5b505050506040513d60208110156120e757600080fd5b5051611a4c576040805162461bcd60e51b815260206004820152601760248201527f7061796d656e74207472616e73666572206661696c6564000000000000000000604482015290519081900360640190fd5b600082821115612191576040805162461bcd60e51b815260206004820152600860248201527f756e6465666c6f77000000000000000000000000000000000000000000000000604482015290519081900360640190fd5b5090039056fe6f6e6c792061646d696e2063616e207365747570206d6574615472616e73616374696f6e50726f636573736f7273a26469706673582212200ff38c5741c66b2a22a9a9ee2abe0f55626323082b6b4443921fd3b25484584a64736f6c63430006050033",
  "devdoc": {
    "methods": {
      "buyLandWithSand(address,address,address,uint256,uint256,uint256,uint256,uint256,bytes32,uint256[],bytes32[],bytes)": {
        "params": {
          "buyer": "address that perform the payment",
          "priceInSand": "price in SAND to purchase that Land",
          "proof": "merkleProof for that particular Land",
          "reserved": "the reserved address (if any)",
          "size": "size of the pack of Land to purchase",
          "to": "address that will own the purchased Land",
          "x": "x coordinate of the Land",
          "y": "y coordinate of the Land"
        }
      },
      "changeAdmin(address)": {
        "details": "change the administrator to be `newAdmin`.",
        "params": {
          "newAdmin": "address of the new administrator."
        }
      },
      "getAdmin()": {
        "details": "gives the current administrator of this contract.",
        "returns": {
          "_0": "the current administrator of this contract."
        }
      },
      "getSigningWallet()": {
        "details": "signing wallet authorized for referral",
        "returns": {
          "_0": "the address of the signing wallet"
        }
      },
      "isMetaTransactionProcessor(address)": {
        "details": "check whether address `who` is given meta-transaction execution rights.",
        "params": {
          "who": "The address to query."
        },
        "returns": {
          "_0": "whether the address has meta-transaction execution rights."
        }
      },
      "isReferralValid(bytes,address,address,uint256,uint256)": {
        "params": {
          "commissionRate": "The commissionRate of the referral",
          "expiryTime": "The expiry time of the referral",
          "referee": "The address of the referee",
          "referrer": "The address of the referrer",
          "signature": "The signature to check (signed referral)"
        },
        "returns": {
          "_0": "True if the referral is valid"
        }
      },
      "setMetaTransactionProcessor(address,bool)": {
        "details": "Enable or disable the ability of `metaTransactionProcessor` to perform meta-tx (metaTransactionProcessor rights).",
        "params": {
          "enabled": "set whether the metaTransactionProcessor is enabled or disabled.",
          "metaTransactionProcessor": "address that will be given/removed metaTransactionProcessor rights."
        }
      },
      "setReceivingWallet(address)": {
        "params": {
          "newWallet": "address of the new receiving wallet"
        }
      },
      "updateMaxCommissionRate(uint256)": {
        "details": "Update the maximum commission rate",
        "params": {
          "newMaxCommissionRate": "The new maximum commission rate"
        }
      },
      "updateSigningWallet(address)": {
        "details": "Update the signing wallet",
        "params": {
          "newSigningWallet": "The new address of the signing wallet"
        }
      },
      "withdrawAssets(address,uint256[],uint256[])": {
        "params": {
          "assetIds": "the assetIds to be transferred",
          "to": "intended recipient of the asset tokens",
          "values": "the quantities of the assetIds to be transferred"
        }
      }
    },
    "title": "Estate Sale contract with referral"
  },
  "userdoc": {
    "methods": {
      "buyLandWithSand(address,address,address,uint256,uint256,uint256,uint256,uint256,bytes32,uint256[],bytes32[],bytes)": {
        "notice": "buy Land with SAND using the merkle proof associated with it"
      },
      "getExpiryTime()": {
        "notice": "Gets the expiry time for the current sale"
      },
      "getMaxCommisionRate()": {
        "notice": "the max commision rate"
      },
      "getMerkleRoot()": {
        "notice": "Gets the Merkle root associated with the current sale"
      },
      "isReferralValid(bytes,address,address,uint256,uint256)": {
        "notice": "Check if a referral is valid"
      },
      "setReceivingWallet(address)": {
        "notice": "set the wallet receiving the proceeds"
      },
      "withdrawAssets(address,uint256[],uint256[])": {
        "notice": "enable Admin to withdraw remaining assets from EstateSaleWithFee contract"
      }
    },
    "notice": "This contract manages the sale of our lands as Estates"
  },
  "storageLayout": {
    "storage": [
      {
        "astId": 12779,
        "contract": "src/solc_0.6/EstateSale/EstateSaleWithFee.sol:EstateSaleWithFee",
        "label": "_admin",
        "offset": 0,
        "slot": "0",
        "type": "t_address"
      },
      {
        "astId": 12841,
        "contract": "src/solc_0.6/EstateSale/EstateSaleWithFee.sol:EstateSaleWithFee",
        "label": "_metaTransactionContracts",
        "offset": 0,
        "slot": "1",
        "type": "t_mapping(t_address,t_bool)"
      },
      {
        "astId": 10957,
        "contract": "src/solc_0.6/EstateSale/EstateSaleWithFee.sol:EstateSaleWithFee",
        "label": "_signingWallet",
        "offset": 0,
        "slot": "2",
        "type": "t_address"
      },
      {
        "astId": 10959,
        "contract": "src/solc_0.6/EstateSale/EstateSaleWithFee.sol:EstateSaleWithFee",
        "label": "_maxCommissionRate",
        "offset": 0,
        "slot": "3",
        "type": "t_uint256"
      },
      {
        "astId": 10963,
        "contract": "src/solc_0.6/EstateSale/EstateSaleWithFee.sol:EstateSaleWithFee",
        "label": "_previousSigningWallets",
        "offset": 0,
        "slot": "4",
        "type": "t_mapping(t_address,t_uint256)"
      },
      {
        "astId": 10972,
        "contract": "src/solc_0.6/EstateSale/EstateSaleWithFee.sol:EstateSaleWithFee",
        "label": "_previousSigningDelay",
        "offset": 0,
        "slot": "5",
        "type": "t_uint256"
      },
      {
        "astId": 7344,
        "contract": "src/solc_0.6/EstateSale/EstateSaleWithFee.sol:EstateSaleWithFee",
        "label": "_wallet",
        "offset": 0,
        "slot": "6",
        "type": "t_address_payable"
      },
      {
        "astId": 7354,
        "contract": "src/solc_0.6/EstateSale/EstateSaleWithFee.sol:EstateSaleWithFee",
        "label": "_multiplier",
        "offset": 0,
        "slot": "7",
        "type": "t_uint256"
      }
    ],
    "types": {
      "t_address": {
        "encoding": "inplace",
        "label": "address",
        "numberOfBytes": "20"
      },
      "t_address_payable": {
        "encoding": "inplace",
        "label": "address payable",
        "numberOfBytes": "20"
      },
      "t_bool": {
        "encoding": "inplace",
        "label": "bool",
        "numberOfBytes": "1"
      },
      "t_mapping(t_address,t_bool)": {
        "encoding": "mapping",
        "key": "t_address",
        "label": "mapping(address => bool)",
        "numberOfBytes": "32",
        "value": "t_bool"
      },
      "t_mapping(t_address,t_uint256)": {
        "encoding": "mapping",
        "key": "t_address",
        "label": "mapping(address => uint256)",
        "numberOfBytes": "32",
        "value": "t_uint256"
      },
      "t_uint256": {
        "encoding": "inplace",
        "label": "uint256",
        "numberOfBytes": "32"
      }
    }
  }
}