{
  "address": "0xC035B6d4aB32ad784b5299b468C101B19B2a6e39",
  "abi": [
    {
      "inputs": [
        {
          "internalType": "address",
          "name": "landAddress",
          "type": "address"
        },
        {
          "internalType": "address",
          "name": "sandContractAddress",
          "type": "address"
        },
        {
          "internalType": "address",
          "name": "initialMetaTx",
          "type": "address"
        },
        {
          "internalType": "address",
          "name": "admin",
          "type": "address"
        },
        {
          "internalType": "address payable",
          "name": "initialWalletAddress",
          "type": "address"
        },
        {
          "internalType": "bytes32",
          "name": "merkleRoot",
          "type": "bytes32"
        },
        {
          "internalType": "uint256",
          "name": "expiryTime",
          "type": "uint256"
        },
        {
          "internalType": "address",
          "name": "initialSigningWallet",
          "type": "address"
        },
        {
          "internalType": "uint256",
          "name": "initialMaxCommissionRate",
          "type": "uint256"
        },
        {
          "internalType": "address",
          "name": "estate",
          "type": "address"
        },
        {
          "internalType": "address",
          "name": "asset",
          "type": "address"
        },
        {
          "internalType": "address",
          "name": "feeDistributor",
          "type": "address"
        },
        {
          "internalType": "address",
          "name": "authValidator",
          "type": "address"
        }
      ],
      "stateMutability": "nonpayable",
      "type": "constructor"
    },
    {
      "anonymous": false,
      "inputs": [
        {
          "indexed": false,
          "internalType": "address",
          "name": "oldAdmin",
          "type": "address"
        },
        {
          "indexed": false,
          "internalType": "address",
          "name": "newAdmin",
          "type": "address"
        }
      ],
      "name": "AdminChanged",
      "type": "event"
    },
    {
      "anonymous": false,
      "inputs": [
        {
          "indexed": true,
          "internalType": "address",
          "name": "buyer",
          "type": "address"
        },
        {
          "indexed": true,
          "internalType": "address",
          "name": "to",
          "type": "address"
        },
        {
          "indexed": true,
          "internalType": "uint256",
          "name": "topCornerId",
          "type": "uint256"
        },
        {
          "indexed": false,
          "internalType": "uint256",
          "name": "size",
          "type": "uint256"
        },
        {
          "indexed": false,
          "internalType": "uint256",
          "name": "price",
          "type": "uint256"
        },
        {
          "indexed": false,
          "internalType": "address",
          "name": "token",
          "type": "address"
        },
        {
          "indexed": false,
          "internalType": "uint256",
          "name": "amountPaid",
          "type": "uint256"
        }
      ],
      "name": "LandQuadPurchased",
      "type": "event"
    },
    {
      "anonymous": false,
      "inputs": [
        {
          "indexed": false,
          "internalType": "address",
          "name": "metaTransactionProcessor",
          "type": "address"
        },
        {
          "indexed": false,
          "internalType": "bool",
          "name": "enabled",
          "type": "bool"
        }
      ],
      "name": "MetaTransactionProcessor",
      "type": "event"
    },
    {
      "anonymous": false,
      "inputs": [
        {
          "indexed": true,
          "internalType": "address",
          "name": "referrer",
          "type": "address"
        },
        {
          "indexed": true,
          "internalType": "address",
          "name": "referee",
          "type": "address"
        },
        {
          "indexed": true,
          "internalType": "address",
          "name": "token",
          "type": "address"
        },
        {
          "indexed": false,
          "internalType": "uint256",
          "name": "amount",
          "type": "uint256"
        },
        {
          "indexed": false,
          "internalType": "uint256",
          "name": "commission",
          "type": "uint256"
        },
        {
          "indexed": false,
          "internalType": "uint256",
          "name": "commissionRate",
          "type": "uint256"
        }
      ],
      "name": "ReferralUsed",
      "type": "event"
    },
    {
      "inputs": [
        {
          "internalType": "address",
          "name": "buyer",
          "type": "address"
        },
        {
          "internalType": "address",
          "name": "to",
          "type": "address"
        },
        {
          "internalType": "address",
          "name": "reserved",
          "type": "address"
        },
        {
          "internalType": "uint256[]",
          "name": "info",
          "type": "uint256[]"
        },
        {
          "internalType": "bytes32",
          "name": "salt",
          "type": "bytes32"
        },
        {
          "internalType": "uint256[]",
          "name": "assetIds",
          "type": "uint256[]"
        },
        {
          "internalType": "bytes32[]",
          "name": "proof",
          "type": "bytes32[]"
        },
        {
          "internalType": "bytes",
          "name": "referral",
          "type": "bytes"
        },
        {
          "internalType": "bytes",
          "name": "signature",
          "type": "bytes"
        }
      ],
      "name": "buyLandWithSand",
      "outputs": [],
      "stateMutability": "nonpayable",
      "type": "function"
    },
    {
      "inputs": [
        {
          "internalType": "address",
          "name": "newAdmin",
          "type": "address"
        }
      ],
      "name": "changeAdmin",
      "outputs": [],
      "stateMutability": "nonpayable",
      "type": "function"
    },
    {
      "inputs": [
        {
          "internalType": "bytes",
          "name": "referral",
          "type": "bytes"
        }
      ],
      "name": "decodeReferral",
      "outputs": [
        {
          "internalType": "bytes",
          "name": "",
          "type": "bytes"
        },
        {
          "internalType": "address",
          "name": "",
          "type": "address"
        },
        {
          "internalType": "address",
          "name": "",
          "type": "address"
        },
        {
          "internalType": "uint256",
          "name": "",
          "type": "uint256"
        },
        {
          "internalType": "uint256",
          "name": "",
          "type": "uint256"
        }
      ],
      "stateMutability": "pure",
      "type": "function"
    },
    {
      "inputs": [],
      "name": "getAdmin",
      "outputs": [
        {
          "internalType": "address",
          "name": "",
          "type": "address"
        }
      ],
      "stateMutability": "view",
      "type": "function"
    },
    {
      "inputs": [],
      "name": "getExpiryTime",
      "outputs": [
        {
          "internalType": "uint256",
          "name": "",
          "type": "uint256"
        }
      ],
      "stateMutability": "view",
      "type": "function"
    },
    {
      "inputs": [],
      "name": "getMaxCommisionRate",
      "outputs": [
        {
          "internalType": "uint256",
          "name": "",
          "type": "uint256"
        }
      ],
      "stateMutability": "view",
      "type": "function"
    },
    {
      "inputs": [],
      "name": "getMerkleRoot",
      "outputs": [
        {
          "internalType": "bytes32",
          "name": "",
          "type": "bytes32"
        }
      ],
      "stateMutability": "view",
      "type": "function"
    },
    {
      "inputs": [],
      "name": "getSigningWallet",
      "outputs": [
        {
          "internalType": "address",
          "name": "",
          "type": "address"
        }
      ],
      "stateMutability": "view",
      "type": "function"
    },
    {
      "inputs": [
        {
          "internalType": "address",
          "name": "who",
          "type": "address"
        }
      ],
      "name": "isMetaTransactionProcessor",
      "outputs": [
        {
          "internalType": "bool",
          "name": "",
          "type": "bool"
        }
      ],
      "stateMutability": "view",
      "type": "function"
    },
    {
      "inputs": [
        {
          "internalType": "bytes",
          "name": "signature",
          "type": "bytes"
        },
        {
          "internalType": "address",
          "name": "referrer",
          "type": "address"
        },
        {
          "internalType": "address",
          "name": "referee",
          "type": "address"
        },
        {
          "internalType": "uint256",
          "name": "expiryTime",
          "type": "uint256"
        },
        {
          "internalType": "uint256",
          "name": "commissionRate",
          "type": "uint256"
        }
      ],
      "name": "isReferralValid",
      "outputs": [
        {
          "internalType": "bool",
          "name": "",
          "type": "bool"
        }
      ],
      "stateMutability": "view",
      "type": "function"
    },
    {
      "inputs": [
        {
          "internalType": "address",
          "name": "",
          "type": "address"
        },
        {
          "internalType": "address",
          "name": "",
          "type": "address"
        },
        {
          "internalType": "uint256[]",
          "name": "",
          "type": "uint256[]"
        },
        {
          "internalType": "uint256[]",
          "name": "",
          "type": "uint256[]"
        },
        {
          "internalType": "bytes",
          "name": "",
          "type": "bytes"
        }
      ],
      "name": "onERC1155BatchReceived",
      "outputs": [
        {
          "internalType": "bytes4",
          "name": "",
          "type": "bytes4"
        }
      ],
      "stateMutability": "pure",
      "type": "function"
    },
    {
      "inputs": [
        {
          "internalType": "address",
          "name": "",
          "type": "address"
        },
        {
          "internalType": "address",
          "name": "",
          "type": "address"
        },
        {
          "internalType": "uint256",
          "name": "",
          "type": "uint256"
        },
        {
          "internalType": "uint256",
          "name": "",
          "type": "uint256"
        },
        {
          "internalType": "bytes",
          "name": "",
          "type": "bytes"
        }
      ],
      "name": "onERC1155Received",
      "outputs": [
        {
          "internalType": "bytes4",
          "name": "",
          "type": "bytes4"
        }
      ],
      "stateMutability": "pure",
      "type": "function"
    },
    {
      "inputs": [
        {
          "internalType": "address",
          "name": "metaTransactionProcessor",
          "type": "address"
        },
        {
          "internalType": "bool",
          "name": "enabled",
          "type": "bool"
        }
      ],
      "name": "setMetaTransactionProcessor",
      "outputs": [],
      "stateMutability": "nonpayable",
      "type": "function"
    },
    {
      "inputs": [
        {
          "internalType": "address payable",
          "name": "newWallet",
          "type": "address"
        }
      ],
      "name": "setReceivingWallet",
      "outputs": [],
      "stateMutability": "nonpayable",
      "type": "function"
    },
    {
      "inputs": [
        {
          "internalType": "uint256",
          "name": "newMaxCommissionRate",
          "type": "uint256"
        }
      ],
      "name": "updateMaxCommissionRate",
      "outputs": [],
      "stateMutability": "nonpayable",
      "type": "function"
    },
    {
      "inputs": [
        {
          "internalType": "address",
          "name": "newSigningWallet",
          "type": "address"
        }
      ],
      "name": "updateSigningWallet",
      "outputs": [],
      "stateMutability": "nonpayable",
      "type": "function"
    },
    {
      "inputs": [
        {
          "internalType": "address",
          "name": "to",
          "type": "address"
        },
        {
          "internalType": "uint256[]",
          "name": "assetIds",
          "type": "uint256[]"
        },
        {
          "internalType": "uint256[]",
          "name": "values",
          "type": "uint256[]"
        }
      ],
      "name": "withdrawAssets",
      "outputs": [],
      "stateMutability": "nonpayable",
      "type": "function"
    }
  ],
  "transactionHash": "0x5cb008be0a0cc85759a9a72a07a8d4782f1b76552dc17fc5361f3c4e2e1410fc",
  "args": [
    "0x50f5474724e0Ee42D9a4e711ccFB275809Fd6d4a",
    "0x3845badAde8e6dFF049820680d1F14bD3903a5d0",
    "0x3845badAde8e6dFF049820680d1F14bD3903a5d0",
    "0xEAA0993E1d21c2103e4f172a20D29371FbAF6D06",
    "0x4489590a116618B506F0EfE885432F6A8ED998E9",
    "0xf5b548b6bdd3a2a6dbc00600a6a0c8666a7eb402927c973026a94bf8a01894d3",
    1636635600,
    "0x3044719d139F866a44c988823513eCB93060bF1b",
    2000,
    "0x0000000000000000000000000000000000000000",
    "0xa342f5D851E866E18ff98F351f2c6637f4478dB5",
    "0x0EB04462D69B1D267d269377E34f60b9De1c8510",
    "0x459EA8c295069d4cd16c025b9fa5cA3E4C5AA468"
  ],
  "linkedData": [
    {
      "x": 232,
      "y": 14,
      "size": 1,
      "price": "1011000000000000000000",
      "reserved": "",
      "salt": "0xbf73e88892379d750f3dc8d40113f69eed6b0e740f5c32c48317beda0919e8cb",
      "assetIds": []
    },
    {
      "x": 232,
      "y": 15,
      "size": 1,
      "price": "1011000000000000000000",
      "reserved": "",
      "salt": "0x995eb185b28db986e29d5596cc1c44a72dac1059805d17fbd63fa1194d9e0790",
      "assetIds": []
    },
    {
      "x": 232,
      "y": 16,
      "size": 1,
      "price": "1011000000000000000000",
      "reserved": "",
      "salt": "0xf9b45025c9c6c6712c7fb5e033c6ae98b0e46e39230576dd9bbf0d85ba7db7a3",
      "assetIds": []
    },
    {
      "x": 232,
      "y": 17,
      "size": 1,
      "price": "1011000000000000000000",
      "reserved": "",
      "salt": "0x27da09669bc2b87b5a64d36ef97823c73a2a3b24cc8ce24d2297913a5c3c7ed4",
      "assetIds": []
    },
    {
      "x": 232,
      "y": 18,
      "size": 1,
      "price": "1011000000000000000000",
      "reserved": "",
      "salt": "0x4b2aad1a24a9daea6c7287355ce34cb54afa4fb0a76624e66a60789797d6ae85",
      "assetIds": []
    },
    {
      "x": 232,
      "y": 19,
      "size": 1,
      "price": "1011000000000000000000",
      "reserved": "0x7a9fe22691c811ea339d9b73150e6911a5343dca",
      "salt": "0x0338cff1b41ca67cc96b68f8d2e26e2982691cd7ab55915c9c83d24386ea674c",
      "assetIds": []
    },
    {
      "x": 232,
      "y": 20,
      "size": 1,
      "price": "1011000000000000000000",
      "reserved": "",
      "salt": "0xdde62a3da09f0aad2803c209b25270c16e9e9a6386bff4211aea4e3239e15923",
      "assetIds": []
    },
    {
      "x": 233,
      "y": 9,
      "size": 1,
      "price": "1011000000000000000000",
      "reserved": "",
      "salt": "0x7cfeb9f16b07727648c53944ca3bc1c25541c586604d40e32466ba5f0fb5419d",
      "assetIds": []
    },
    {
      "x": 233,
      "y": 10,
      "size": 1,
      "price": "1011000000000000000000",
      "reserved": "",
      "salt": "0xfba1e01a9ff583c8fd4ef0ed16ae0fef232fe989f071073613757080ea9144f4",
      "assetIds": []
    },
    {
      "x": 233,
      "y": 11,
      "size": 1,
      "price": "1011000000000000000000",
      "reserved": "",
      "salt": "0x2e0edcbd5cbf7fcb3b802347cea93f4855d0c2331570191aa2ab2dc1a2390b8e",
      "assetIds": []
    },
    {
      "x": 233,
      "y": 12,
      "size": 1,
      "price": "1011000000000000000000",
      "reserved": "",
      "salt": "0x76a81afd5d7dd829db70818cf296c9b4da8f5a9344487cc23c3061e3a62e970c",
      "assetIds": []
    },
    {
      "x": 233,
      "y": 13,
      "size": 1,
      "price": "1011000000000000000000",
      "reserved": "",
      "salt": "0xdb896d6560e331ba5f41dbf7fab8c50a7fc1a0b48d2e4ecb408bdac727b3f7b6",
      "assetIds": []
    },
    {
      "x": 233,
      "y": 14,
      "size": 1,
      "price": "1011000000000000000000",
      "reserved": "",
      "salt": "0x044f624cbf019ed3a4558f628fd33833aa137581224ad6a8eeb5d3e365344568",
      "assetIds": []
    },
    {
      "x": 233,
      "y": 15,
      "size": 1,
      "price": "1011000000000000000000",
      "reserved": "",
      "salt": "0x270aea82f8c4da623fc5049987b474ce07c788adb6b20d4f964dec22012906be",
      "assetIds": []
    },
    {
      "x": 233,
      "y": 16,
      "size": 1,
      "price": "1011000000000000000000",
      "reserved": "",
      "salt": "0x43fe8941f4112f92187da5ac2677a58552e6ff390b3bfd776f09b18df1643511",
      "assetIds": []
    },
    {
      "x": 233,
      "y": 17,
      "size": 1,
      "price": "1011000000000000000000",
      "reserved": "",
      "salt": "0x17991535d36f312f589fea983602b70e837a288cfc0a82c2b66e30483a3489c5",
      "assetIds": []
    },
    {
      "x": 233,
      "y": 18,
      "size": 1,
      "price": "1011000000000000000000",
      "reserved": "",
      "salt": "0x2a3a495e3f9b9ca95aa2a6bb3ac1989befac077a3ad40cc6e96230423a4647d2",
      "assetIds": []
    },
    {
      "x": 233,
      "y": 19,
      "size": 1,
      "price": "1011000000000000000000",
      "reserved": "",
      "salt": "0x6ffecc4008d6337956ce50f13bfb9416ec914f9e644c25f49d4c479e347acb9a",
      "assetIds": []
    },
    {
      "x": 233,
      "y": 20,
      "size": 1,
      "price": "1011000000000000000000",
      "reserved": "",
      "salt": "0xe8a82a0cdedde90a66ae3064f6c91fea3afbf800f4ab5245087e5472c9d57537",
      "assetIds": []
    },
    {
      "x": 234,
      "y": 6,
      "size": 1,
      "price": "1011000000000000000000",
      "reserved": "",
      "salt": "0x191a3a5a816e9521f844e41e02bac031b89c55273f52515c97db9ddfefb9d43a",
      "assetIds": []
    },
    {
      "x": 234,
      "y": 7,
      "size": 1,
      "price": "1011000000000000000000",
      "reserved": "0x7a9fe22691c811ea339d9b73150e6911a5343dca",
      "salt": "0xbd566a384737aeca7dae8218bb279b1a0f80fd52f89d334066d9e10a6898a0b2",
      "assetIds": []
    },
    {
      "x": 234,
      "y": 8,
      "size": 1,
      "price": "1011000000000000000000",
      "reserved": "",
      "salt": "0x9409b3b4448f40217a5f89395ea6b92a459183059a7a119e5a2dd45998f60944",
      "assetIds": []
    },
    {
      "x": 234,
      "y": 9,
      "size": 1,
      "price": "1011000000000000000000",
      "reserved": "",
      "salt": "0xfa8f9a85b99fa1dfe35d1f90772d5a8264a4840d1f8b691f68347e2d28c540af",
      "assetIds": []
    },
    {
      "x": 234,
      "y": 10,
      "size": 1,
      "price": "1011000000000000000000",
      "reserved": "0x7a9fe22691c811ea339d9b73150e6911a5343dca",
      "salt": "0x8ce2949ff95ae403b7be432ece21dd088b11bb73941806b3abd5220b7d60d811",
      "assetIds": []
    },
    {
      "x": 234,
      "y": 11,
      "size": 1,
      "price": "1011000000000000000000",
      "reserved": "",
      "salt": "0x0057aea338905ca82f47876834d31e5c1398e63360ff667d94926fab27c211f7",
      "assetIds": []
    },
    {
      "x": 234,
      "y": 12,
      "size": 1,
      "price": "1011000000000000000000",
      "reserved": "",
      "salt": "0xad06035bd0e699941c8f348d6d825ffbba98f24726986cf782dd6fdcb9f465c3",
      "assetIds": []
    },
    {
      "x": 234,
      "y": 13,
      "size": 1,
      "price": "1011000000000000000000",
      "reserved": "0x7a9fe22691c811ea339d9b73150e6911a5343dca",
      "salt": "0x9e4d5d4e4592c5b3fcabb412995f271683a8c91d76f0d358f570fcade03de7a3",
      "assetIds": []
    },
    {
      "x": 234,
      "y": 14,
      "size": 1,
      "price": "1011000000000000000000",
      "reserved": "",
      "salt": "0x6b637d90d96b6ac1f440496efd53d3928bfc3bda597b78d411873e2866696d69",
      "assetIds": []
    },
    {
      "x": 234,
      "y": 15,
      "size": 1,
      "price": "1011000000000000000000",
      "reserved": "",
      "salt": "0xe3570be47eff894db4d19b6260120564d41a99c2b0a3a9adeee96f7885ab9062",
      "assetIds": []
    },
    {
      "x": 234,
      "y": 16,
      "size": 1,
      "price": "1011000000000000000000",
      "reserved": "",
      "salt": "0x217cc5d9eedb61e296b9fed19f1ce5cd2d2eac288879074313b443c9243bed38",
      "assetIds": []
    },
    {
      "x": 234,
      "y": 17,
      "size": 1,
      "price": "1011000000000000000000",
      "reserved": "",
      "salt": "0x6ee6be5c0606595a8e3ab98b278e25eb8c9d46f4e14af95bde31de822886eaa9",
      "assetIds": []
    },
    {
      "x": 235,
      "y": 6,
      "size": 1,
      "price": "1011000000000000000000",
      "reserved": "",
      "salt": "0x915a179adb85131601cee728694c391d22c21815bc827c69e919fbb6cc92fca9",
      "assetIds": []
    },
    {
      "x": 235,
      "y": 7,
      "size": 1,
      "price": "1011000000000000000000",
      "reserved": "",
      "salt": "0x30888dd86b1e76843bd0946af2de04cfb54ab2ffffc6464475d5d06e8a5f7942",
      "assetIds": []
    },
    {
      "x": 235,
      "y": 8,
      "size": 1,
      "price": "1011000000000000000000",
      "reserved": "",
      "salt": "0x58d222c14775a725f478bca5f91abcb3e9d43e127981ac13c9e1c25fd2e5290b",
      "assetIds": []
    },
    {
      "x": 235,
      "y": 9,
      "size": 1,
      "price": "1011000000000000000000",
      "reserved": "",
      "salt": "0xdcc188ec9f4f2ed41e196fdb390f4451690a177cb56f6e02bf043757cb2e029f",
      "assetIds": []
    },
    {
      "x": 235,
      "y": 10,
      "size": 1,
      "price": "1011000000000000000000",
      "reserved": "",
      "salt": "0x8feb2ef6238961d3a09e4201a8f742935b3a74140f030c7a143200baad4904b0",
      "assetIds": []
    },
    {
      "x": 235,
      "y": 11,
      "size": 1,
      "price": "1011000000000000000000",
      "reserved": "",
      "salt": "0xcedbcf70f7de48570ccf31fdedde89fb4ce121c4b0b222c7fd323ce278f4d5d3",
      "assetIds": []
    },
    {
      "x": 235,
      "y": 12,
      "size": 1,
      "price": "1011000000000000000000",
      "reserved": "",
      "salt": "0x66bab10346dc416ac609b95a51684dfc2784b45924b752ced164227249b2f8e8",
      "assetIds": []
    },
    {
      "x": 235,
      "y": 13,
      "size": 1,
      "price": "1011000000000000000000",
      "reserved": "",
      "salt": "0x32d6ccc7f9c54d63b96bdce830d4d0b5942aa6918c174dc590b17988a6c48746",
      "assetIds": []
    },
    {
      "x": 235,
      "y": 14,
      "size": 1,
      "price": "1011000000000000000000",
      "reserved": "",
      "salt": "0xdaedfd617561b140ed8685935eb6118ec3e0a3fbc9f33b4bbc2c7995cc079e1b",
      "assetIds": []
    },
    {
      "x": 235,
      "y": 15,
      "size": 1,
      "price": "1011000000000000000000",
      "reserved": "",
      "salt": "0xc333fa9f2242c54d30978e46b9e4821548a78e91a75502e801af31f5917889e6",
      "assetIds": []
    },
    {
      "x": 235,
      "y": 16,
      "size": 1,
      "price": "1011000000000000000000",
      "reserved": "0x7a9fe22691c811ea339d9b73150e6911a5343dca",
      "salt": "0xf9f2caccee613a4bff020123819c9258ebf592061b01acc1a1ada4b0c9944471",
      "assetIds": []
    },
    {
      "x": 235,
      "y": 17,
      "size": 1,
      "price": "1011000000000000000000",
      "reserved": "",
      "salt": "0x5bb2e314aa31a9f7c2776756fd5538f806ec53beedb07046b3d231bae60940d4",
      "assetIds": []
    },
    {
      "x": 236,
      "y": 6,
      "size": 1,
      "price": "1011000000000000000000",
      "reserved": "0x7a9fe22691c811ea339d9b73150e6911a5343dca",
      "salt": "0x9172b72b9cd486ee99e04ecbed7348aeee6e17e24e8b55ab998135d26f8afc47",
      "assetIds": []
    },
    {
      "x": 236,
      "y": 7,
      "size": 1,
      "price": "1011000000000000000000",
      "reserved": "",
      "salt": "0xf71f83015c3a0ebe0a439b538b71dbea03d0dc71c33057db968ebc6d0f665ce3",
      "assetIds": []
    },
    {
      "x": 236,
      "y": 8,
      "size": 1,
      "price": "1011000000000000000000",
      "reserved": "",
      "salt": "0xbbb9f6cf3cd474c478071dfff763d1a2e99e6969388a154ba8276c66a60291ff",
      "assetIds": []
    },
    {
      "x": 236,
      "y": 9,
      "size": 1,
      "price": "1011000000000000000000",
      "reserved": "0x7a9fe22691c811ea339d9b73150e6911a5343dca",
      "salt": "0x6b266a1f605f382cfbd6eb9d3aea01d940235e021781581f96a3e9572e62842f",
      "assetIds": []
    },
    {
      "x": 236,
      "y": 10,
      "size": 1,
      "price": "1011000000000000000000",
      "reserved": "",
      "salt": "0x193e93522f04041db6e4b070735f6faa0e2f426a7a8cf14150eec6bf0d0dffb4",
      "assetIds": []
    },
    {
      "x": 236,
      "y": 11,
      "size": 1,
      "price": "1011000000000000000000",
      "reserved": "",
      "salt": "0x7ce4415c629ffe45430c938dae067ae01f4050abc30e6bc890f8c071141b43bd",
      "assetIds": []
    },
    {
      "x": 236,
      "y": 12,
      "size": 1,
      "price": "1011000000000000000000",
      "reserved": "0x7a9fe22691c811ea339d9b73150e6911a5343dca",
      "salt": "0x5140965e00835f4578183454a11da6e0da2c56da44a48a3d07e4c51fc64c0ebb",
      "assetIds": []
    },
    {
      "x": 236,
      "y": 13,
      "size": 1,
      "price": "1011000000000000000000",
      "reserved": "",
      "salt": "0x11a835a781362134b452b31fca823699343724350fa50e07a140eb9255a07599",
      "assetIds": []
    },
    {
      "x": 236,
      "y": 14,
      "size": 1,
      "price": "1011000000000000000000",
      "reserved": "",
      "salt": "0x59443f52e6c241082cb3234dc042720f8f924dad013a3f417eaca198c32f87cc",
      "assetIds": []
    },
    {
      "x": 236,
      "y": 15,
      "size": 1,
      "price": "1011000000000000000000",
      "reserved": "",
      "salt": "0xe7b0a4df23c19f1dd80ca288e15008d7ee362982166dc23daf3ee1bf49ca289c",
      "assetIds": []
    },
    {
      "x": 236,
      "y": 16,
      "size": 1,
      "price": "1011000000000000000000",
      "reserved": "",
      "salt": "0x62d677fae206fe4fae751b65092c7d6f753a9dd1d5d028c94b43e20b0d31c0b8",
      "assetIds": []
    },
    {
      "x": 236,
      "y": 17,
      "size": 1,
      "price": "1011000000000000000000",
      "reserved": "",
      "salt": "0xed9578dc30f3f24c87bba1029a23453433cb5727ed41050b4d565f5a021191e2",
      "assetIds": []
    },
    {
      "x": 237,
      "y": 6,
      "size": 1,
      "price": "1011000000000000000000",
      "reserved": "",
      "salt": "0x4413bf4013e890f30190818cc66062ed755ab48f4957d5fb417568eb1ba1a21f",
      "assetIds": []
    },
    {
      "x": 237,
      "y": 7,
      "size": 1,
      "price": "1011000000000000000000",
      "reserved": "",
      "salt": "0x87d2157510e803eef243272ed885fd2f8edb2d3ce58a8384b5c54327eab35c6c",
      "assetIds": []
    },
    {
      "x": 237,
      "y": 8,
      "size": 1,
      "price": "1011000000000000000000",
      "reserved": "",
      "salt": "0xfa9036a907fb7130189a381f8b111eec1371bf94f837ddd1e44e24219b02edd2",
      "assetIds": []
    },
    {
      "x": 237,
      "y": 9,
      "size": 1,
      "price": "1011000000000000000000",
      "reserved": "",
      "salt": "0x62825f7c52dbcbd0694dc37267aa6245040ecc633b4da153002cd2eb6bec45cd",
      "assetIds": []
    },
    {
      "x": 237,
      "y": 10,
      "size": 1,
      "price": "1011000000000000000000",
      "reserved": "",
      "salt": "0x5b0cb22ea0cf2cc3a073bc43df4c34878cde2a8c51a5bce7cf697f7378e73462",
      "assetIds": []
    },
    {
      "x": 237,
      "y": 11,
      "size": 1,
      "price": "1011000000000000000000",
      "reserved": "",
      "salt": "0x9c70bf47bc9a67390db66d43d7daedc2e494b92b9c895136f5de0adbe2adb6e3",
      "assetIds": []
    },
    {
      "x": 237,
      "y": 12,
      "size": 1,
      "price": "1011000000000000000000",
      "reserved": "",
      "salt": "0x21aee20de3b4d0180db1433345ec14225cb5807264eab6fc7a73062f19641ce0",
      "assetIds": []
    },
    {
      "x": 237,
      "y": 13,
      "size": 1,
      "price": "1011000000000000000000",
      "reserved": "",
      "salt": "0xda61fbb12c9c161b52db3492719a5ac22d9de91509f2054fce452b4bfc98c29b",
      "assetIds": []
    },
    {
      "x": 237,
      "y": 14,
      "size": 1,
      "price": "1011000000000000000000",
      "reserved": "",
      "salt": "0xcba57c1bd3b509f199838ccc7f03806e1ecf23ac2816c0643d0b734c86dded52",
      "assetIds": []
    },
    {
      "x": 238,
      "y": 6,
      "size": 1,
      "price": "1011000000000000000000",
      "reserved": "",
      "salt": "0x7057265f414a7c7db364fc2276089f9c608b1fcbb319a57d13916364d7f702f5",
      "assetIds": []
    },
    {
      "x": 238,
      "y": 7,
      "size": 1,
      "price": "1011000000000000000000",
      "reserved": "0x7a9fe22691c811ea339d9b73150e6911a5343dca",
      "salt": "0xd218aadc1cc2b386f803733f42f6210b7051345eb6558eee83e77c058c25fb25",
      "assetIds": []
    },
    {
      "x": 238,
      "y": 8,
      "size": 1,
      "price": "1011000000000000000000",
      "reserved": "",
      "salt": "0x7ba8375a12181e7f498f181871bf9fd78f84ade1a7ec037955b68283aaddc1a1",
      "assetIds": []
    },
    {
      "x": 238,
      "y": 9,
      "size": 1,
      "price": "1011000000000000000000",
      "reserved": "",
      "salt": "0xad2ecb0a4929cdebf0c272d305728902be547983f0259738e1ec60c2c9ac93e9",
      "assetIds": []
    },
    {
      "x": 238,
      "y": 10,
      "size": 1,
      "price": "1011000000000000000000",
      "reserved": "0x7a9fe22691c811ea339d9b73150e6911a5343dca",
      "salt": "0x456f8160aba5d1f9fdc654da43ccfe7b6941a551bd0c3215c4cea73dab943811",
      "assetIds": []
    },
    {
      "x": 238,
      "y": 11,
      "size": 1,
      "price": "1011000000000000000000",
      "reserved": "",
      "salt": "0x199b7cbbe69cd927cf6ecae372bf2a53c19c284d788c299f77763dd755b2eb93",
      "assetIds": []
    },
    {
      "x": 238,
      "y": 12,
      "size": 1,
      "price": "1011000000000000000000",
      "reserved": "",
      "salt": "0xfa48b2b8abc97c307c05f7e3265dc7cd76b104ff150c50d9da613b0c68575ee0",
      "assetIds": []
    },
    {
      "x": 238,
      "y": 13,
      "size": 1,
      "price": "1011000000000000000000",
      "reserved": "0x7a9fe22691c811ea339d9b73150e6911a5343dca",
      "salt": "0xa33848e353ded49fa23ee2861816df91e4f5cf2fa0041cf17c1eb8ad2d541205",
      "assetIds": []
    },
    {
      "x": 238,
      "y": 14,
      "size": 1,
      "price": "1011000000000000000000",
      "reserved": "",
      "salt": "0xd1c00de0386055254ad1723bd8ce690299fb6aac0c16c16ebafb6a7e0b4876b0",
      "assetIds": []
    },
    {
      "x": 239,
      "y": 6,
      "size": 1,
      "price": "1011000000000000000000",
      "reserved": "",
      "salt": "0x9db0a84927d931d4739aa47815a4c758498a7af14307b78d4b0fe920a1141143",
      "assetIds": []
    },
    {
      "x": 239,
      "y": 7,
      "size": 1,
      "price": "1011000000000000000000",
      "reserved": "",
      "salt": "0x3b9be5c3229881421e2202d0ce6b2bb2e8c90e05439ba6b773e30cc43c567888",
      "assetIds": []
    },
    {
      "x": 239,
      "y": 8,
      "size": 1,
      "price": "1011000000000000000000",
      "reserved": "",
      "salt": "0x228a6486a53a5eafaab2ceefb1283dc1128e4de3ef65711ed04bda18fc39d8b5",
      "assetIds": []
    },
    {
      "x": 239,
      "y": 9,
      "size": 1,
      "price": "1011000000000000000000",
      "reserved": "",
      "salt": "0x3abb2967778169b3368ca5850972b354848c3d86982e6bc46e12ec5fa128f997",
      "assetIds": []
    },
    {
      "x": 239,
      "y": 10,
      "size": 1,
      "price": "1011000000000000000000",
      "reserved": "",
      "salt": "0x99b7d776cf10be771de85b72899ee091a389a9d5392c35b4b7180ee3dd30b8b6",
      "assetIds": []
    },
    {
      "x": 239,
      "y": 11,
      "size": 1,
      "price": "1011000000000000000000",
      "reserved": "0x7a9fe22691c811ea339d9b73150e6911a5343dca",
      "salt": "0x3354bccdc373c58068a28736a145e2e28b9b949ebe07e4af786dfb0f6ea878e1",
      "assetIds": []
    },
    {
      "x": 239,
      "y": 12,
      "size": 1,
      "price": "1011000000000000000000",
      "reserved": "",
      "salt": "0x74c2b45b81470f718687a8d3782fb4ac12941364041c8a991b84e13a3d87b570",
      "assetIds": []
    },
    {
      "x": 239,
      "y": 13,
      "size": 1,
      "price": "1011000000000000000000",
      "reserved": "",
      "salt": "0x8655268a9a0b4e0e805789594d49ea806ec4b8b6b490ab373492babae5d8532a",
      "assetIds": []
    },
    {
      "x": 239,
      "y": 14,
      "size": 1,
      "price": "1011000000000000000000",
      "reserved": "",
      "salt": "0xb09c78dff9ec1fc2e61477210ed5eb0cec4fbed0faabb30a65680cb60921aa91",
      "assetIds": []
    },
    {
      "x": 240,
      "y": 6,
      "size": 1,
      "price": "4683000000000000000000",
      "reserved": "",
      "salt": "0x3ec0d7de64bbf2bc3f3200ae3ee258c242614d2972d85417d0d672e4151d1ea0",
      "assetIds": [
        "55464657044963196816950587289035428064568320970692304673817341489688118042624",
        "55464657044963196816950587289035428064568320970692304673817341489688118042625",
        "55464657044963196816950587289035428064568320970692304673817341489688118042626",
        "55464657044963196816950587289035428064568320970692304673817341489688118042627"
      ]
    },
    {
      "x": 240,
      "y": 7,
      "size": 1,
      "price": "1011000000000000000000",
      "reserved": "",
      "salt": "0xdd6487bd8dbdbc2af5f1214c1a4fbec35084b988f09522fc0e5612a19d764f15",
      "assetIds": []
    },
    {
      "x": 240,
      "y": 8,
      "size": 1,
      "price": "1011000000000000000000",
      "reserved": "",
      "salt": "0xa8ab0f3e3637369cee9338d6345f81a08c090dee8336da305787ddf4ff9a130d",
      "assetIds": []
    },
    {
      "x": 240,
      "y": 9,
      "size": 1,
      "price": "1011000000000000000000",
      "reserved": "0x7a9fe22691c811ea339d9b73150e6911a5343dca",
      "salt": "0xc0aa59ae27cc807466aec1bbfd0f82f9f3dd929742ca0b2c40cdf6da8ab1b23a",
      "assetIds": []
    },
    {
      "x": 240,
      "y": 10,
      "size": 1,
      "price": "1011000000000000000000",
      "reserved": "",
      "salt": "0x5bee61fd6999741726d2657bb60cf28acd5d0cfaba339e1f2d87a64ac963e54f",
      "assetIds": []
    },
    {
      "x": 240,
      "y": 11,
      "size": 1,
      "price": "1011000000000000000000",
      "reserved": "",
      "salt": "0x58a9503e5640ec55133ad2f3147631dbd3bfd72d055d46d8ffe1da96df576cec",
      "assetIds": []
    },
    {
      "x": 241,
      "y": 6,
      "size": 1,
      "price": "4683000000000000000000",
      "reserved": "",
      "salt": "0xe84617b8ac3675912a14f856de457e866d4697a8ccc245af7fc8fdaaa6d1c756",
      "assetIds": [
        "55464657044963196816950587289035428064568320970692304673817341489688118042624",
        "55464657044963196816950587289035428064568320970692304673817341489688118042625",
        "55464657044963196816950587289035428064568320970692304673817341489688118042626",
        "55464657044963196816950587289035428064568320970692304673817341489688118042627"
      ]
    },
    {
      "x": 241,
      "y": 7,
      "size": 1,
      "price": "1011000000000000000000",
      "reserved": "0x7a9fe22691c811ea339d9b73150e6911a5343dca",
      "salt": "0xcf1e84d68615be10ce4db95a3f92e2091015374dfb03432ecf061a7df3eaf022",
      "assetIds": []
    },
    {
      "x": 241,
      "y": 8,
      "size": 1,
      "price": "1011000000000000000000",
      "reserved": "",
      "salt": "0xadcbabafc76a6339d7586850d74dc7192aee0c33db382922bfd1e0bc5bc298fb",
      "assetIds": []
    },
    {
      "x": 241,
      "y": 9,
      "size": 1,
      "price": "1011000000000000000000",
      "reserved": "",
      "salt": "0xdc67fc7758fe076cbd9fe306a8a895357041f78d86837c647c41200462fbf2ac",
      "assetIds": []
    },
    {
      "x": 241,
      "y": 10,
      "size": 1,
      "price": "1011000000000000000000",
      "reserved": "",
      "salt": "0xd5c21079c39526cbebe72bb1a747f090b815b82c3b08e57cbfa49109b367f589",
      "assetIds": []
    },
    {
      "x": 241,
      "y": 11,
      "size": 1,
      "price": "1011000000000000000000",
      "reserved": "",
      "salt": "0x037ccce4abcdd9ac7e0dc0a6f9a97508799c038a20d8b612b85f3d3da0fb6798",
      "assetIds": []
    },
    {
      "x": 242,
      "y": 6,
      "size": 1,
      "price": "4683000000000000000000",
      "reserved": "",
      "salt": "0x5f3768821797946657bf6680f44d0d2c1928d760ec38e3772057fde0c4a1e663",
      "assetIds": [
        "55464657044963196816950587289035428064568320970692304673817341489688118042624",
        "55464657044963196816950587289035428064568320970692304673817341489688118042625",
        "55464657044963196816950587289035428064568320970692304673817341489688118042626",
        "55464657044963196816950587289035428064568320970692304673817341489688118042627"
      ]
    },
    {
      "x": 242,
      "y": 7,
      "size": 1,
      "price": "4683000000000000000000",
      "reserved": "",
      "salt": "0x1e4910a1bc61c1b980769971a68d867e0aa914002cdeb4e1eaa55b12317de16b",
      "assetIds": [
        "55464657044963196816950587289035428064568320970692304673817341489688118042624",
        "55464657044963196816950587289035428064568320970692304673817341489688118042625",
        "55464657044963196816950587289035428064568320970692304673817341489688118042626",
        "55464657044963196816950587289035428064568320970692304673817341489688118042627"
      ]
    },
    {
      "x": 242,
      "y": 8,
      "size": 1,
      "price": "4683000000000000000000",
      "reserved": "",
      "salt": "0x3fdb5296f54de1a8f3025b077aabfe38608e301e9d7ce1131ca0a1b53e047005",
      "assetIds": [
        "55464657044963196816950587289035428064568320970692304673817341489688118042624",
        "55464657044963196816950587289035428064568320970692304673817341489688118042625",
        "55464657044963196816950587289035428064568320970692304673817341489688118042626",
        "55464657044963196816950587289035428064568320970692304673817341489688118042627"
      ]
    },
    {
      "x": 242,
      "y": 9,
      "size": 1,
      "price": "4683000000000000000000",
      "reserved": "",
      "salt": "0xc648b47703438500e51e86d0aa18b8062070321fc97c160b4140bec272a3f60a",
      "assetIds": [
        "55464657044963196816950587289035428064568320970692304673817341489688118042624",
        "55464657044963196816950587289035428064568320970692304673817341489688118042625",
        "55464657044963196816950587289035428064568320970692304673817341489688118042626",
        "55464657044963196816950587289035428064568320970692304673817341489688118042627"
      ]
    },
    {
      "x": 242,
      "y": 10,
      "size": 1,
      "price": "4683000000000000000000",
      "reserved": "",
      "salt": "0x414b1caafc95a5eceb81d15b9f89f3315bf44fbe5db2e4c57d8a46889b5fe5da",
      "assetIds": [
        "55464657044963196816950587289035428064568320970692304673817341489688118042624",
        "55464657044963196816950587289035428064568320970692304673817341489688118042625",
        "55464657044963196816950587289035428064568320970692304673817341489688118042626",
        "55464657044963196816950587289035428064568320970692304673817341489688118042627"
      ]
    },
    {
      "x": 242,
      "y": 11,
      "size": 1,
      "price": "4683000000000000000000",
      "reserved": "",
      "salt": "0xd405fa170c87d4996664fac6baf360cfbf92258f6038adc278707b18b47e15e8",
      "assetIds": [
        "55464657044963196816950587289035428064568320970692304673817341489688118042624",
        "55464657044963196816950587289035428064568320970692304673817341489688118042625",
        "55464657044963196816950587289035428064568320970692304673817341489688118042626",
        "55464657044963196816950587289035428064568320970692304673817341489688118042627"
      ]
    },
    {
      "x": 243,
      "y": 6,
      "size": 1,
      "price": "4683000000000000000000",
      "reserved": "",
      "salt": "0x19c5fbc2321b57b137f729233044a8874f1c588288cfdb0685fd7e24ff16c2cd",
      "assetIds": [
        "55464657044963196816950587289035428064568320970692304673817341489688118042624",
        "55464657044963196816950587289035428064568320970692304673817341489688118042625",
        "55464657044963196816950587289035428064568320970692304673817341489688118042626",
        "55464657044963196816950587289035428064568320970692304673817341489688118042627"
      ]
    },
    {
      "x": 243,
      "y": 7,
      "size": 1,
      "price": "4683000000000000000000",
      "reserved": "",
      "salt": "0xa9a5c8d9b46bae278c0bc07d6192ff90a3705917ded224b044f72d04e8e5d0ff",
      "assetIds": [
        "55464657044963196816950587289035428064568320970692304673817341489688118042624",
        "55464657044963196816950587289035428064568320970692304673817341489688118042625",
        "55464657044963196816950587289035428064568320970692304673817341489688118042626",
        "55464657044963196816950587289035428064568320970692304673817341489688118042627"
      ]
    },
    {
      "x": 243,
      "y": 8,
      "size": 1,
      "price": "4683000000000000000000",
      "reserved": "",
      "salt": "0xb22aa0cbc7a0d98ccf19629bad198c4a2f31c5ecd3fa0f4bfd7bfe34464c03fe",
      "assetIds": [
        "55464657044963196816950587289035428064568320970692304673817341489688118042624",
        "55464657044963196816950587289035428064568320970692304673817341489688118042625",
        "55464657044963196816950587289035428064568320970692304673817341489688118042626",
        "55464657044963196816950587289035428064568320970692304673817341489688118042627"
      ]
    },
    {
      "x": 244,
      "y": 6,
      "size": 1,
      "price": "4683000000000000000000",
      "reserved": "",
      "salt": "0xd3e243e409d4a9cb9b11ad6c95fab330b302ae2654990592208dcbe95456cef5",
      "assetIds": [
        "55464657044963196816950587289035428064568320970692304673817341489688118042624",
        "55464657044963196816950587289035428064568320970692304673817341489688118042625",
        "55464657044963196816950587289035428064568320970692304673817341489688118042626",
        "55464657044963196816950587289035428064568320970692304673817341489688118042627"
      ]
    },
    {
      "x": 244,
      "y": 7,
      "size": 1,
      "price": "4683000000000000000000",
      "reserved": "",
      "salt": "0xfbd47bd8fed8a914fa9b087aff081896b0b5e353a83e4fa54458dc5f0e462da0",
      "assetIds": [
        "55464657044963196816950587289035428064568320970692304673817341489688118042624",
        "55464657044963196816950587289035428064568320970692304673817341489688118042625",
        "55464657044963196816950587289035428064568320970692304673817341489688118042626",
        "55464657044963196816950587289035428064568320970692304673817341489688118042627"
      ]
    },
    {
      "x": 244,
      "y": 8,
      "size": 1,
      "price": "4683000000000000000000",
      "reserved": "",
      "salt": "0xe03a625ae02fa88a2b953fdb17dea57d9b50e646ee7783e232a670daca212b62",
      "assetIds": [
        "55464657044963196816950587289035428064568320970692304673817341489688118042624",
        "55464657044963196816950587289035428064568320970692304673817341489688118042625",
        "55464657044963196816950587289035428064568320970692304673817341489688118042626",
        "55464657044963196816950587289035428064568320970692304673817341489688118042627"
      ]
    },
    {
      "x": 245,
      "y": 6,
      "size": 1,
      "price": "4683000000000000000000",
      "reserved": "",
      "salt": "0xdaaa78de929577d7bcbc1485502dd0da29853e2afcde5eba8da4c9b2fce3c380",
      "assetIds": [
        "55464657044963196816950587289035428064568320970692304673817341489688118042624",
        "55464657044963196816950587289035428064568320970692304673817341489688118042625",
        "55464657044963196816950587289035428064568320970692304673817341489688118042626",
        "55464657044963196816950587289035428064568320970692304673817341489688118042627"
      ]
    },
    {
      "x": 245,
      "y": 7,
      "size": 1,
      "price": "4683000000000000000000",
      "reserved": "",
      "salt": "0x30068297cc5d4ed5ea597c276ca70ea4c2251afb068c5df38b95f8ed8b2323af",
      "assetIds": [
        "55464657044963196816950587289035428064568320970692304673817341489688118042624",
        "55464657044963196816950587289035428064568320970692304673817341489688118042625",
        "55464657044963196816950587289035428064568320970692304673817341489688118042626",
        "55464657044963196816950587289035428064568320970692304673817341489688118042627"
      ]
    },
    {
      "x": 245,
      "y": 8,
      "size": 1,
      "price": "4683000000000000000000",
      "reserved": "",
      "salt": "0x9dbb42812649909d0e6ef972141f151bf559891d09bc010101379c220f5b4287",
      "assetIds": [
        "55464657044963196816950587289035428064568320970692304673817341489688118042624",
        "55464657044963196816950587289035428064568320970692304673817341489688118042625",
        "55464657044963196816950587289035428064568320970692304673817341489688118042626",
        "55464657044963196816950587289035428064568320970692304673817341489688118042627"
      ]
    },
    {
      "x": 246,
      "y": 3,
      "size": 1,
      "price": "1011000000000000000000",
      "reserved": "",
      "salt": "0xc0255d860770e2221f3a7438bde33cd1bf426ccc288cdaf5d0405ec73ca7db29",
      "assetIds": []
    },
    {
      "x": 246,
      "y": 4,
      "size": 1,
      "price": "4683000000000000000000",
      "reserved": "",
      "salt": "0x998f439b68f642a2cdd6d661f6b975c411dde3d119541f70293cfb6721fa2b91",
      "assetIds": [
        "55464657044963196816950587289035428064568320970692304673817341489688118042624",
        "55464657044963196816950587289035428064568320970692304673817341489688118042625",
        "55464657044963196816950587289035428064568320970692304673817341489688118042626",
        "55464657044963196816950587289035428064568320970692304673817341489688118042627"
      ]
    },
    {
      "x": 246,
      "y": 5,
      "size": 1,
      "price": "4683000000000000000000",
      "reserved": "",
      "salt": "0x55c120d460017cefe4fdb96a9f2a4a0c99dcd38fdec31ce0e11e7c5f6d055685",
      "assetIds": [
        "55464657044963196816950587289035428064568320970692304673817341489688118042624",
        "55464657044963196816950587289035428064568320970692304673817341489688118042625",
        "55464657044963196816950587289035428064568320970692304673817341489688118042626",
        "55464657044963196816950587289035428064568320970692304673817341489688118042627"
      ]
    },
    {
      "x": 246,
      "y": 6,
      "size": 1,
      "price": "4683000000000000000000",
      "reserved": "",
      "salt": "0x7865a35ce0a123fcaaad44eb3db0720e938eeab752ab727c133a169cb43ff5dc",
      "assetIds": [
        "55464657044963196816950587289035428064568320970692304673817341489688118042624",
        "55464657044963196816950587289035428064568320970692304673817341489688118042625",
        "55464657044963196816950587289035428064568320970692304673817341489688118042626",
        "55464657044963196816950587289035428064568320970692304673817341489688118042627"
      ]
    },
    {
      "x": 246,
      "y": 7,
      "size": 1,
      "price": "4683000000000000000000",
      "reserved": "",
      "salt": "0x812d14151ac67b2ff1f27783808e3e479a7b6816ceffe613b8bf9f20767988fa",
      "assetIds": [
        "55464657044963196816950587289035428064568320970692304673817341489688118042624",
        "55464657044963196816950587289035428064568320970692304673817341489688118042625",
        "55464657044963196816950587289035428064568320970692304673817341489688118042626",
        "55464657044963196816950587289035428064568320970692304673817341489688118042627"
      ]
    },
    {
      "x": 246,
      "y": 8,
      "size": 1,
      "price": "4683000000000000000000",
      "reserved": "",
      "salt": "0x4c450fa7b7dcd661063891a03b81d4274366e2aaa6ae4093c5f5708c3acdea54",
      "assetIds": [
        "55464657044963196816950587289035428064568320970692304673817341489688118042624",
        "55464657044963196816950587289035428064568320970692304673817341489688118042625",
        "55464657044963196816950587289035428064568320970692304673817341489688118042626",
        "55464657044963196816950587289035428064568320970692304673817341489688118042627"
      ]
    },
    {
      "x": 246,
      "y": 9,
      "size": 1,
      "price": "4683000000000000000000",
      "reserved": "",
      "salt": "0x918fde57c50270e8e48f5b9cebfc0df6c832fe84ddb686d654f88426bc412bd8",
      "assetIds": [
        "55464657044963196816950587289035428064568320970692304673817341489688118042624",
        "55464657044963196816950587289035428064568320970692304673817341489688118042625",
        "55464657044963196816950587289035428064568320970692304673817341489688118042626",
        "55464657044963196816950587289035428064568320970692304673817341489688118042627"
      ]
    },
    {
      "x": 246,
      "y": 10,
      "size": 1,
      "price": "4683000000000000000000",
      "reserved": "",
      "salt": "0xd3cd1b328702945189fa6cdfb875318c9685c1e355dd7cd3ea4cd90579f38bac",
      "assetIds": [
        "55464657044963196816950587289035428064568320970692304673817341489688118042624",
        "55464657044963196816950587289035428064568320970692304673817341489688118042625",
        "55464657044963196816950587289035428064568320970692304673817341489688118042626",
        "55464657044963196816950587289035428064568320970692304673817341489688118042627"
      ]
    },
    {
      "x": 246,
      "y": 11,
      "size": 1,
      "price": "4683000000000000000000",
      "reserved": "",
      "salt": "0x2342594c4c968e3574c45a96cae1656237d07f4d9c0d074df5709b6116919af4",
      "assetIds": [
        "55464657044963196816950587289035428064568320970692304673817341489688118042624",
        "55464657044963196816950587289035428064568320970692304673817341489688118042625",
        "55464657044963196816950587289035428064568320970692304673817341489688118042626",
        "55464657044963196816950587289035428064568320970692304673817341489688118042627"
      ]
    },
    {
      "x": 247,
      "y": 3,
      "size": 1,
      "price": "1011000000000000000000",
      "reserved": "",
      "salt": "0xf3c890486149185c057e87aee95483070855357e2fbfd9b7f42b42037af7e8e5",
      "assetIds": []
    },
    {
      "x": 247,
      "y": 4,
      "size": 1,
      "price": "4683000000000000000000",
      "reserved": "",
      "salt": "0xb62dcaf86d7f91892ef6cf67447083373d650269877607e3fb0b8d66f4df79a5",
      "assetIds": [
        "55464657044963196816950587289035428064568320970692304673817341489688118042624",
        "55464657044963196816950587289035428064568320970692304673817341489688118042625",
        "55464657044963196816950587289035428064568320970692304673817341489688118042626",
        "55464657044963196816950587289035428064568320970692304673817341489688118042627"
      ]
    },
    {
      "x": 247,
      "y": 5,
      "size": 1,
      "price": "4683000000000000000000",
      "reserved": "",
      "salt": "0x5523441efd741d2661bb089497ce1abbd670169ec4a318d212d547c47e9fea0b",
      "assetIds": [
        "55464657044963196816950587289035428064568320970692304673817341489688118042624",
        "55464657044963196816950587289035428064568320970692304673817341489688118042625",
        "55464657044963196816950587289035428064568320970692304673817341489688118042626",
        "55464657044963196816950587289035428064568320970692304673817341489688118042627"
      ]
    },
    {
      "x": 247,
      "y": 6,
      "size": 1,
      "price": "4683000000000000000000",
      "reserved": "",
      "salt": "0x9c1da259972928f686d21524514896d4241e28b29fc730d51d75b89636987058",
      "assetIds": [
        "55464657044963196816950587289035428064568320970692304673817341489688118042624",
        "55464657044963196816950587289035428064568320970692304673817341489688118042625",
        "55464657044963196816950587289035428064568320970692304673817341489688118042626",
        "55464657044963196816950587289035428064568320970692304673817341489688118042627"
      ]
    },
    {
      "x": 247,
      "y": 7,
      "size": 1,
      "price": "4683000000000000000000",
      "reserved": "",
      "salt": "0xa16eb210dd3003dc2b8f40173743de66ebcb167a5adb41acbaf8ec34545aa88e",
      "assetIds": [
        "55464657044963196816950587289035428064568320970692304673817341489688118042624",
        "55464657044963196816950587289035428064568320970692304673817341489688118042625",
        "55464657044963196816950587289035428064568320970692304673817341489688118042626",
        "55464657044963196816950587289035428064568320970692304673817341489688118042627"
      ]
    },
    {
      "x": 247,
      "y": 8,
      "size": 1,
      "price": "4683000000000000000000",
      "reserved": "",
      "salt": "0x600b3de23526a7db98a1c1b201f714fe058f8b16118bf7f6b8da8855df52f926",
      "assetIds": [
        "55464657044963196816950587289035428064568320970692304673817341489688118042624",
        "55464657044963196816950587289035428064568320970692304673817341489688118042625",
        "55464657044963196816950587289035428064568320970692304673817341489688118042626",
        "55464657044963196816950587289035428064568320970692304673817341489688118042627"
      ]
    },
    {
      "x": 247,
      "y": 9,
      "size": 1,
      "price": "4683000000000000000000",
      "reserved": "",
      "salt": "0xac36d696361f338c0b577babe6a81bdf29906a24699ddc15586feee9cf724ec3",
      "assetIds": [
        "55464657044963196816950587289035428064568320970692304673817341489688118042624",
        "55464657044963196816950587289035428064568320970692304673817341489688118042625",
        "55464657044963196816950587289035428064568320970692304673817341489688118042626",
        "55464657044963196816950587289035428064568320970692304673817341489688118042627"
      ]
    },
    {
      "x": 247,
      "y": 10,
      "size": 1,
      "price": "4683000000000000000000",
      "reserved": "",
      "salt": "0x408cad15b2a43fc290e49c632c1f290b7fd13b84c578e805f9cccfb14eadc3b0",
      "assetIds": [
        "55464657044963196816950587289035428064568320970692304673817341489688118042624",
        "55464657044963196816950587289035428064568320970692304673817341489688118042625",
        "55464657044963196816950587289035428064568320970692304673817341489688118042626",
        "55464657044963196816950587289035428064568320970692304673817341489688118042627"
      ]
    },
    {
      "x": 247,
      "y": 11,
      "size": 1,
      "price": "1011000000000000000000",
      "reserved": "0x7a9fe22691c811ea339d9b73150e6911a5343dca",
      "salt": "0x3d2e70746846298caba597d639f8a36bcea7735da3624b00c03b9f0ef5780543",
      "assetIds": []
    },
    {
      "x": 248,
      "y": 3,
      "size": 1,
      "price": "1011000000000000000000",
      "reserved": "",
      "salt": "0x876e7b226fe7d734cdcd406510eba383be2b9244f6769c8dc0e6beedff239ddc",
      "assetIds": []
    },
    {
      "x": 248,
      "y": 4,
      "size": 1,
      "price": "4683000000000000000000",
      "reserved": "",
      "salt": "0x4719e7b563d47852447e2e8bd79fcdabf4012a113a54ecdf247209ca4cf9b04e",
      "assetIds": [
        "55464657044963196816950587289035428064568320970692304673817341489688118042624",
        "55464657044963196816950587289035428064568320970692304673817341489688118042625",
        "55464657044963196816950587289035428064568320970692304673817341489688118042626",
        "55464657044963196816950587289035428064568320970692304673817341489688118042627"
      ]
    },
    {
      "x": 248,
      "y": 5,
      "size": 1,
      "price": "4683000000000000000000",
      "reserved": "",
      "salt": "0x350ce713726fae5c445b5168bffebf7403fc01216544088d1dc330478c1bae36",
      "assetIds": [
        "55464657044963196816950587289035428064568320970692304673817341489688118042624",
        "55464657044963196816950587289035428064568320970692304673817341489688118042625",
        "55464657044963196816950587289035428064568320970692304673817341489688118042626",
        "55464657044963196816950587289035428064568320970692304673817341489688118042627"
      ]
    },
    {
      "x": 248,
      "y": 6,
      "size": 1,
      "price": "4683000000000000000000",
      "reserved": "",
      "salt": "0xdf5c87480b6b48f6e6cdfb1beb7bdb62323dbc6edf1ffee4146c0d8934bad41b",
      "assetIds": [
        "55464657044963196816950587289035428064568320970692304673817341489688118042624",
        "55464657044963196816950587289035428064568320970692304673817341489688118042625",
        "55464657044963196816950587289035428064568320970692304673817341489688118042626",
        "55464657044963196816950587289035428064568320970692304673817341489688118042627"
      ]
    },
    {
      "x": 248,
      "y": 7,
      "size": 1,
      "price": "4683000000000000000000",
      "reserved": "",
      "salt": "0xaddf3641c75d708114a98f5f27caa0f197e81247689019b16a0ecdab03c4f56a",
      "assetIds": [
        "55464657044963196816950587289035428064568320970692304673817341489688118042624",
        "55464657044963196816950587289035428064568320970692304673817341489688118042625",
        "55464657044963196816950587289035428064568320970692304673817341489688118042626",
        "55464657044963196816950587289035428064568320970692304673817341489688118042627"
      ]
    },
    {
      "x": 248,
      "y": 8,
      "size": 1,
      "price": "4683000000000000000000",
      "reserved": "",
      "salt": "0xb277c10cc5e2328a7a28168690daf422f2262d52405747828f664f17de4248aa",
      "assetIds": [
        "55464657044963196816950587289035428064568320970692304673817341489688118042624",
        "55464657044963196816950587289035428064568320970692304673817341489688118042625",
        "55464657044963196816950587289035428064568320970692304673817341489688118042626",
        "55464657044963196816950587289035428064568320970692304673817341489688118042627"
      ]
    },
    {
      "x": 248,
      "y": 9,
      "size": 1,
      "price": "4683000000000000000000",
      "reserved": "",
      "salt": "0x59718c2a8f1d24089cf68b2fc21428002c1a3a270a62d9b29355dcb1392ae1d7",
      "assetIds": [
        "55464657044963196816950587289035428064568320970692304673817341489688118042624",
        "55464657044963196816950587289035428064568320970692304673817341489688118042625",
        "55464657044963196816950587289035428064568320970692304673817341489688118042626",
        "55464657044963196816950587289035428064568320970692304673817341489688118042627"
      ]
    },
    {
      "x": 248,
      "y": 10,
      "size": 1,
      "price": "4683000000000000000000",
      "reserved": "",
      "salt": "0xe682f761408ca19c5194d63d94277534d34805eeb2388919bfcb37b3e5350bd4",
      "assetIds": [
        "55464657044963196816950587289035428064568320970692304673817341489688118042624",
        "55464657044963196816950587289035428064568320970692304673817341489688118042625",
        "55464657044963196816950587289035428064568320970692304673817341489688118042626",
        "55464657044963196816950587289035428064568320970692304673817341489688118042627"
      ]
    },
    {
      "x": 248,
      "y": 11,
      "size": 1,
      "price": "4683000000000000000000",
      "reserved": "",
      "salt": "0x88f52c11b1ab5d7b087bcc94387f1a368e5cffba75fb72c212c9723fa6c16f6d",
      "assetIds": [
        "55464657044963196816950587289035428064568320970692304673817341489688118042624",
        "55464657044963196816950587289035428064568320970692304673817341489688118042625",
        "55464657044963196816950587289035428064568320970692304673817341489688118042626",
        "55464657044963196816950587289035428064568320970692304673817341489688118042627"
      ]
    },
    {
      "x": 249,
      "y": 6,
      "size": 1,
      "price": "4683000000000000000000",
      "reserved": "",
      "salt": "0x57454f30c6ae63ec7df61c8a459e1db660608149e4b64a8ee28ea2c6c76d0d0f",
      "assetIds": [
        "55464657044963196816950587289035428064568320970692304673817341489688118042624",
        "55464657044963196816950587289035428064568320970692304673817341489688118042625",
        "55464657044963196816950587289035428064568320970692304673817341489688118042626",
        "55464657044963196816950587289035428064568320970692304673817341489688118042627"
      ]
    },
    {
      "x": 249,
      "y": 7,
      "size": 1,
      "price": "4683000000000000000000",
      "reserved": "",
      "salt": "0xb0cb7157eb03489813e032ae07fee68061b8bdc48427417ddc3fd491efa0c082",
      "assetIds": [
        "55464657044963196816950587289035428064568320970692304673817341489688118042624",
        "55464657044963196816950587289035428064568320970692304673817341489688118042625",
        "55464657044963196816950587289035428064568320970692304673817341489688118042626",
        "55464657044963196816950587289035428064568320970692304673817341489688118042627"
      ]
    },
    {
      "x": 249,
      "y": 8,
      "size": 1,
      "price": "4683000000000000000000",
      "reserved": "",
      "salt": "0xef88e8f9acd495b717ffa98996142ddedae4ad9b74bc3ed3351110007cf692f6",
      "assetIds": [
        "55464657044963196816950587289035428064568320970692304673817341489688118042624",
        "55464657044963196816950587289035428064568320970692304673817341489688118042625",
        "55464657044963196816950587289035428064568320970692304673817341489688118042626",
        "55464657044963196816950587289035428064568320970692304673817341489688118042627"
      ]
    },
    {
      "x": 249,
      "y": 9,
      "size": 1,
      "price": "4683000000000000000000",
      "reserved": "",
      "salt": "0x015f9adb571859acca42b5f74d2276cbdbc4d91c0c579700f03d9c69ba7052bc",
      "assetIds": [
        "55464657044963196816950587289035428064568320970692304673817341489688118042624",
        "55464657044963196816950587289035428064568320970692304673817341489688118042625",
        "55464657044963196816950587289035428064568320970692304673817341489688118042626",
        "55464657044963196816950587289035428064568320970692304673817341489688118042627"
      ]
    },
    {
      "x": 249,
      "y": 10,
      "size": 1,
      "price": "4683000000000000000000",
      "reserved": "",
      "salt": "0x2073a450bad97ba64db29ebd8e6b0857fe26ec0b3ce8459cf94b686b2c13b389",
      "assetIds": [
        "55464657044963196816950587289035428064568320970692304673817341489688118042624",
        "55464657044963196816950587289035428064568320970692304673817341489688118042625",
        "55464657044963196816950587289035428064568320970692304673817341489688118042626",
        "55464657044963196816950587289035428064568320970692304673817341489688118042627"
      ]
    },
    {
      "x": 249,
      "y": 11,
      "size": 1,
      "price": "4683000000000000000000",
      "reserved": "",
      "salt": "0xb27a2832073b3e93eb794d7caf5880411a0eaaeeff7d05d9a5a83504ce23bf1c",
      "assetIds": [
        "55464657044963196816950587289035428064568320970692304673817341489688118042624",
        "55464657044963196816950587289035428064568320970692304673817341489688118042625",
        "55464657044963196816950587289035428064568320970692304673817341489688118042626",
        "55464657044963196816950587289035428064568320970692304673817341489688118042627"
      ]
    },
    {
      "x": 250,
      "y": 6,
      "size": 1,
      "price": "4683000000000000000000",
      "reserved": "",
      "salt": "0xdfc0cbfab4d6b9c8e7b6edf120e11f89407ea423e7fc860b664f9292ad5a5781",
      "assetIds": [
        "55464657044963196816950587289035428064568320970692304673817341489688118042624",
        "55464657044963196816950587289035428064568320970692304673817341489688118042625",
        "55464657044963196816950587289035428064568320970692304673817341489688118042626",
        "55464657044963196816950587289035428064568320970692304673817341489688118042627"
      ]
    },
    {
      "x": 250,
      "y": 7,
      "size": 1,
      "price": "4683000000000000000000",
      "reserved": "",
      "salt": "0x960d454b1ed8eb96df25c7c47f92af4645565b7dfed8e32a2e7ee567c4be8b32",
      "assetIds": [
        "55464657044963196816950587289035428064568320970692304673817341489688118042624",
        "55464657044963196816950587289035428064568320970692304673817341489688118042625",
        "55464657044963196816950587289035428064568320970692304673817341489688118042626",
        "55464657044963196816950587289035428064568320970692304673817341489688118042627"
      ]
    },
    {
      "x": 250,
      "y": 8,
      "size": 1,
      "price": "4683000000000000000000",
      "reserved": "",
      "salt": "0x57544b935872e902cfada689cd85eb46c44be9d2f22d2388d3e19b3c01f3b1c2",
      "assetIds": [
        "55464657044963196816950587289035428064568320970692304673817341489688118042624",
        "55464657044963196816950587289035428064568320970692304673817341489688118042625",
        "55464657044963196816950587289035428064568320970692304673817341489688118042626",
        "55464657044963196816950587289035428064568320970692304673817341489688118042627"
      ]
    },
    {
      "x": 250,
      "y": 9,
      "size": 1,
      "price": "4683000000000000000000",
      "reserved": "",
      "salt": "0x676c21766962d0bafe51383bf21f3d9795ca04b5ac163c9ebcdfd59ceb68d048",
      "assetIds": [
        "55464657044963196816950587289035428064568320970692304673817341489688118042624",
        "55464657044963196816950587289035428064568320970692304673817341489688118042625",
        "55464657044963196816950587289035428064568320970692304673817341489688118042626",
        "55464657044963196816950587289035428064568320970692304673817341489688118042627"
      ]
    },
    {
      "x": 250,
      "y": 10,
      "size": 1,
      "price": "4683000000000000000000",
      "reserved": "",
      "salt": "0xcd1baed089b43c7d8df1a90102a34a5006aaae5429d97b5ae013ba6c4e119d97",
      "assetIds": [
        "55464657044963196816950587289035428064568320970692304673817341489688118042624",
        "55464657044963196816950587289035428064568320970692304673817341489688118042625",
        "55464657044963196816950587289035428064568320970692304673817341489688118042626",
        "55464657044963196816950587289035428064568320970692304673817341489688118042627"
      ]
    },
    {
      "x": 250,
      "y": 11,
      "size": 1,
      "price": "4683000000000000000000",
      "reserved": "",
      "salt": "0xbed5cb7548fd88dbaa923f7895e48dac76f1b59b79a39f328ad7987e3ddba493",
      "assetIds": [
        "55464657044963196816950587289035428064568320970692304673817341489688118042624",
        "55464657044963196816950587289035428064568320970692304673817341489688118042625",
        "55464657044963196816950587289035428064568320970692304673817341489688118042626",
        "55464657044963196816950587289035428064568320970692304673817341489688118042627"
      ]
    },
    {
      "x": 251,
      "y": 6,
      "size": 1,
      "price": "4683000000000000000000",
      "reserved": "",
      "salt": "0x98fd060ad7b44c46ebd8617174cf52066b0d97d08e6ecd3eb24e3857eb7403d1",
      "assetIds": [
        "55464657044963196816950587289035428064568320970692304673817341489688118042624",
        "55464657044963196816950587289035428064568320970692304673817341489688118042625",
        "55464657044963196816950587289035428064568320970692304673817341489688118042626",
        "55464657044963196816950587289035428064568320970692304673817341489688118042627"
      ]
    },
    {
      "x": 251,
      "y": 7,
      "size": 1,
      "price": "4683000000000000000000",
      "reserved": "",
      "salt": "0xe5af67df628c30b6a093a8a778e90a47bbd3651891cbd3f1fea651f10c731051",
      "assetIds": [
        "55464657044963196816950587289035428064568320970692304673817341489688118042624",
        "55464657044963196816950587289035428064568320970692304673817341489688118042625",
        "55464657044963196816950587289035428064568320970692304673817341489688118042626",
        "55464657044963196816950587289035428064568320970692304673817341489688118042627"
      ]
    },
    {
      "x": 251,
      "y": 8,
      "size": 1,
      "price": "4683000000000000000000",
      "reserved": "",
      "salt": "0xf4906d1ebbb37ec60cac3521a9cc1360164653449685fa31bea4120c1386e9bd",
      "assetIds": [
        "55464657044963196816950587289035428064568320970692304673817341489688118042624",
        "55464657044963196816950587289035428064568320970692304673817341489688118042625",
        "55464657044963196816950587289035428064568320970692304673817341489688118042626",
        "55464657044963196816950587289035428064568320970692304673817341489688118042627"
      ]
    },
    {
      "x": 251,
      "y": 9,
      "size": 1,
      "price": "4683000000000000000000",
      "reserved": "",
      "salt": "0x5d8db8e16e66f7b58f980842d83bccfd803b344857a08a7c77885b9186c25349",
      "assetIds": [
        "55464657044963196816950587289035428064568320970692304673817341489688118042624",
        "55464657044963196816950587289035428064568320970692304673817341489688118042625",
        "55464657044963196816950587289035428064568320970692304673817341489688118042626",
        "55464657044963196816950587289035428064568320970692304673817341489688118042627"
      ]
    },
    {
      "x": 251,
      "y": 10,
      "size": 1,
      "price": "4683000000000000000000",
      "reserved": "",
      "salt": "0x1d90d350011af76e32edd056743567a8ca6bc706531b41cd34a2e893693d4a82",
      "assetIds": [
        "55464657044963196816950587289035428064568320970692304673817341489688118042624",
        "55464657044963196816950587289035428064568320970692304673817341489688118042625",
        "55464657044963196816950587289035428064568320970692304673817341489688118042626",
        "55464657044963196816950587289035428064568320970692304673817341489688118042627"
      ]
    },
    {
      "x": 251,
      "y": 11,
      "size": 1,
      "price": "4683000000000000000000",
      "reserved": "",
      "salt": "0xea8819b8cee8706a0690c94beefa81568fad0e095cfc12d9346b85a55f8ea273",
      "assetIds": [
        "55464657044963196816950587289035428064568320970692304673817341489688118042624",
        "55464657044963196816950587289035428064568320970692304673817341489688118042625",
        "55464657044963196816950587289035428064568320970692304673817341489688118042626",
        "55464657044963196816950587289035428064568320970692304673817341489688118042627"
      ]
    },
    {
      "x": 252,
      "y": 0,
      "size": 1,
      "price": "1011000000000000000000",
      "reserved": "",
      "salt": "0x2c939985e1a2231b9480867e9105aa27c749129d343664a9c2acfe0b5f32802d",
      "assetIds": []
    },
    {
      "x": 252,
      "y": 1,
      "size": 1,
      "price": "1011000000000000000000",
      "reserved": "",
      "salt": "0xd17b2cf706edabbdc207154e82aa34be4ed7af5e920a52cf95c9a31aee8398a1",
      "assetIds": []
    },
    {
      "x": 252,
      "y": 2,
      "size": 1,
      "price": "1011000000000000000000",
      "reserved": "",
      "salt": "0x13f10f9a7a77ad25dcb54b8c00c354d0ab32dda684c5cc2d236e484a3342a251",
      "assetIds": []
    },
    {
      "x": 252,
      "y": 3,
      "size": 1,
      "price": "4683000000000000000000",
      "reserved": "",
      "salt": "0x27d5d4ea34c048bf7b11789b31334a1a990c56cccfafba2950f0e096330722f0",
      "assetIds": [
        "55464657044963196816950587289035428064568320970692304673817341489688118042624",
        "55464657044963196816950587289035428064568320970692304673817341489688118042625",
        "55464657044963196816950587289035428064568320970692304673817341489688118042626",
        "55464657044963196816950587289035428064568320970692304673817341489688118042627"
      ]
    },
    {
      "x": 252,
      "y": 4,
      "size": 1,
      "price": "4683000000000000000000",
      "reserved": "",
      "salt": "0x2fffff5bb445598329b7501d0fd9fbde57867c85b73a821e6ded33e7227555c7",
      "assetIds": [
        "55464657044963196816950587289035428064568320970692304673817341489688118042624",
        "55464657044963196816950587289035428064568320970692304673817341489688118042625",
        "55464657044963196816950587289035428064568320970692304673817341489688118042626",
        "55464657044963196816950587289035428064568320970692304673817341489688118042627"
      ]
    },
    {
      "x": 252,
      "y": 5,
      "size": 1,
      "price": "4683000000000000000000",
      "reserved": "",
      "salt": "0xa4d59fcac71f8d1e07e4c32da6e1ec2c972b3ef24c4eca9d14560cd79aa26519",
      "assetIds": [
        "55464657044963196816950587289035428064568320970692304673817341489688118042624",
        "55464657044963196816950587289035428064568320970692304673817341489688118042625",
        "55464657044963196816950587289035428064568320970692304673817341489688118042626",
        "55464657044963196816950587289035428064568320970692304673817341489688118042627"
      ]
    },
    {
      "x": 253,
      "y": 0,
      "size": 1,
      "price": "1011000000000000000000",
      "reserved": "",
      "salt": "0x4f17da0d5bcb9814379481e5a65f4545eb4174c360a7d133d6d62519bf78341c",
      "assetIds": []
    },
    {
      "x": 253,
      "y": 1,
      "size": 1,
      "price": "1011000000000000000000",
      "reserved": "0x7a9fe22691c811ea339d9b73150e6911a5343dca",
      "salt": "0x51c87b53b030700dba4fe3e50b6abdfb2989a0c40edf07038a9853d32de8dbad",
      "assetIds": []
    },
    {
      "x": 253,
      "y": 2,
      "size": 1,
      "price": "1011000000000000000000",
      "reserved": "",
      "salt": "0xb85624c63ce98a567c08e8cc9dc337704214451595f04694e4dc910e6f7a92c3",
      "assetIds": []
    },
    {
      "x": 253,
      "y": 3,
      "size": 1,
      "price": "4683000000000000000000",
      "reserved": "",
      "salt": "0x26484578782b1be0786404f30bb93c7471cbb48087888aee373f1a7c1c2dc369",
      "assetIds": [
        "55464657044963196816950587289035428064568320970692304673817341489688118042624",
        "55464657044963196816950587289035428064568320970692304673817341489688118042625",
        "55464657044963196816950587289035428064568320970692304673817341489688118042626",
        "55464657044963196816950587289035428064568320970692304673817341489688118042627"
      ]
    },
    {
      "x": 253,
      "y": 4,
      "size": 1,
      "price": "4683000000000000000000",
      "reserved": "",
      "salt": "0xd8375579755e4e6614f066f4ab8252101fa847e2f49407bc8675aa4bda42cd4b",
      "assetIds": [
        "55464657044963196816950587289035428064568320970692304673817341489688118042624",
        "55464657044963196816950587289035428064568320970692304673817341489688118042625",
        "55464657044963196816950587289035428064568320970692304673817341489688118042626",
        "55464657044963196816950587289035428064568320970692304673817341489688118042627"
      ]
    },
    {
      "x": 253,
      "y": 5,
      "size": 1,
      "price": "4683000000000000000000",
      "reserved": "",
      "salt": "0x91c6f38cd6dccf00b6b98b35ee16260f2b16a412a16d5f0dc9908b637d1d2cdf",
      "assetIds": [
        "55464657044963196816950587289035428064568320970692304673817341489688118042624",
        "55464657044963196816950587289035428064568320970692304673817341489688118042625",
        "55464657044963196816950587289035428064568320970692304673817341489688118042626",
        "55464657044963196816950587289035428064568320970692304673817341489688118042627"
      ]
    },
    {
      "x": 254,
      "y": 0,
      "size": 1,
      "price": "1011000000000000000000",
      "reserved": "",
      "salt": "0x5da0bea7d1bc0dbca87c77dc60aee579758d01af937abdc90460713527473db2",
      "assetIds": []
    },
    {
      "x": 254,
      "y": 1,
      "size": 1,
      "price": "1011000000000000000000",
      "reserved": "",
      "salt": "0xbdb1a44dda0a7cf1d3f899f1a23fc30a4622229d25c567c0495d2e6feee4b12e",
      "assetIds": []
    },
    {
      "x": 254,
      "y": 2,
      "size": 1,
      "price": "1011000000000000000000",
      "reserved": "",
      "salt": "0x8099fe65d1a9508177d619e434ebc173bfa2eef314916d785627c4c596c0a907",
      "assetIds": []
    },
    {
      "x": 254,
      "y": 3,
      "size": 1,
      "price": "4683000000000000000000",
      "reserved": "",
      "salt": "0xae5b081f60a51e42f043fccfe40c2b9134c248d63f789bb68f678d1692b9bde8",
      "assetIds": [
        "55464657044963196816950587289035428064568320970692304673817341489688118042624",
        "55464657044963196816950587289035428064568320970692304673817341489688118042625",
        "55464657044963196816950587289035428064568320970692304673817341489688118042626",
        "55464657044963196816950587289035428064568320970692304673817341489688118042627"
      ]
    },
    {
      "x": 254,
      "y": 4,
      "size": 1,
      "price": "4683000000000000000000",
      "reserved": "",
      "salt": "0x700af23834bb4269de251a1d9762bfc1e1c5b9f1c01d71c23c591252e769881c",
      "assetIds": [
        "55464657044963196816950587289035428064568320970692304673817341489688118042624",
        "55464657044963196816950587289035428064568320970692304673817341489688118042625",
        "55464657044963196816950587289035428064568320970692304673817341489688118042626",
        "55464657044963196816950587289035428064568320970692304673817341489688118042627"
      ]
    },
    {
      "x": 254,
      "y": 5,
      "size": 1,
      "price": "4683000000000000000000",
      "reserved": "",
      "salt": "0x971829bbe849378d5a61df7d7a20013ad9713035a50fd98b98336d2a311da4ed",
      "assetIds": [
        "55464657044963196816950587289035428064568320970692304673817341489688118042624",
        "55464657044963196816950587289035428064568320970692304673817341489688118042625",
        "55464657044963196816950587289035428064568320970692304673817341489688118042626",
        "55464657044963196816950587289035428064568320970692304673817341489688118042627"
      ]
    },
    {
      "x": 255,
      "y": 0,
      "size": 1,
      "price": "1011000000000000000000",
      "reserved": "0x7a9fe22691c811ea339d9b73150e6911a5343dca",
      "salt": "0xda7d11d6401266bf65d7176c2facc627033cd968d6f6b32d1e5bb6b65db399ba",
      "assetIds": []
    },
    {
      "x": 255,
      "y": 1,
      "size": 1,
      "price": "1011000000000000000000",
      "reserved": "",
      "salt": "0xdee763943158bc44990b1ba708c6a48ea9d9bdbd95407d3de432704945232990",
      "assetIds": []
    },
    {
      "x": 255,
      "y": 2,
      "size": 1,
      "price": "1011000000000000000000",
      "reserved": "0x7a9fe22691c811ea339d9b73150e6911a5343dca",
      "salt": "0xa76076ae1cec8f5f6959bbe5410fd873a13fc87045a5548a8bcbd8b5a3f1140b",
      "assetIds": []
    },
    {
      "x": 255,
      "y": 3,
      "size": 1,
      "price": "4683000000000000000000",
      "reserved": "",
      "salt": "0x0d0f05eae42703e08a54c1895b53015e22fc05d55ceb38236142a53c0b5b6a2b",
      "assetIds": [
        "55464657044963196816950587289035428064568320970692304673817341489688118042624",
        "55464657044963196816950587289035428064568320970692304673817341489688118042625",
        "55464657044963196816950587289035428064568320970692304673817341489688118042626",
        "55464657044963196816950587289035428064568320970692304673817341489688118042627"
      ]
    },
    {
      "x": 255,
      "y": 4,
      "size": 1,
      "price": "4683000000000000000000",
      "reserved": "",
      "salt": "0x53f5f7e46a4b4bed13c48bd3655ea4e0cb575ca220c3d36300834e69a2352886",
      "assetIds": [
        "55464657044963196816950587289035428064568320970692304673817341489688118042624",
        "55464657044963196816950587289035428064568320970692304673817341489688118042625",
        "55464657044963196816950587289035428064568320970692304673817341489688118042626",
        "55464657044963196816950587289035428064568320970692304673817341489688118042627"
      ]
    },
    {
      "x": 255,
      "y": 5,
      "size": 1,
      "price": "4683000000000000000000",
      "reserved": "",
      "salt": "0x82e6eb387c2934d90a1f65e2c80e3cb337a2dca323d4d2bffc34d42be87610fb",
      "assetIds": [
        "55464657044963196816950587289035428064568320970692304673817341489688118042624",
        "55464657044963196816950587289035428064568320970692304673817341489688118042625",
        "55464657044963196816950587289035428064568320970692304673817341489688118042626",
        "55464657044963196816950587289035428064568320970692304673817341489688118042627"
      ]
    },
    {
      "x": 255,
      "y": 9,
      "size": 1,
      "price": "4683000000000000000000",
      "reserved": "",
      "salt": "0x014a0659a67aae61016fb76542e4768599d902e0b1495aaa4227b38fb6c1a5d6",
      "assetIds": [
        "55464657044963196816950587289035428064568320970692304673817341489688118042624",
        "55464657044963196816950587289035428064568320970692304673817341489688118042625",
        "55464657044963196816950587289035428064568320970692304673817341489688118042626",
        "55464657044963196816950587289035428064568320970692304673817341489688118042627"
      ]
    },
    {
      "x": 255,
      "y": 10,
      "size": 1,
      "price": "4683000000000000000000",
      "reserved": "",
      "salt": "0xd4a4c74f10bdc08e92e900157426f8718a38e5ae20bd2f31a470af297cc991ba",
      "assetIds": [
        "55464657044963196816950587289035428064568320970692304673817341489688118042624",
        "55464657044963196816950587289035428064568320970692304673817341489688118042625",
        "55464657044963196816950587289035428064568320970692304673817341489688118042626",
        "55464657044963196816950587289035428064568320970692304673817341489688118042627"
      ]
    },
    {
      "x": 255,
      "y": 11,
      "size": 1,
      "price": "4683000000000000000000",
      "reserved": "",
      "salt": "0xcc4c073d1b674c1d704f74babde583b01d2104112ac14c60b7070459cd048bc8",
      "assetIds": [
        "55464657044963196816950587289035428064568320970692304673817341489688118042624",
        "55464657044963196816950587289035428064568320970692304673817341489688118042625",
        "55464657044963196816950587289035428064568320970692304673817341489688118042626",
        "55464657044963196816950587289035428064568320970692304673817341489688118042627"
      ]
    },
    {
      "x": 256,
      "y": 0,
      "size": 1,
      "price": "1011000000000000000000",
      "reserved": "",
      "salt": "0xf5cb10842609ca3f6976e17087d3dd0d6f1fe87cd6571cf2750c7ba0e38a1a4a",
      "assetIds": []
    },
    {
      "x": 256,
      "y": 1,
      "size": 1,
      "price": "4683000000000000000000",
      "reserved": "",
      "salt": "0xa4c47d19739747c73cfba71085409aae7ce40fcee647eba9249f968c285deab9",
      "assetIds": [
        "55464657044963196816950587289035428064568320970692304673817341489688118042624",
        "55464657044963196816950587289035428064568320970692304673817341489688118042625",
        "55464657044963196816950587289035428064568320970692304673817341489688118042626",
        "55464657044963196816950587289035428064568320970692304673817341489688118042627"
      ]
    },
    {
      "x": 256,
      "y": 2,
      "size": 1,
      "price": "4683000000000000000000",
      "reserved": "",
      "salt": "0xdc2e115db751a264b4b1128f7c42668a09a1437de3e0d1412270e734f1710d72",
      "assetIds": [
        "55464657044963196816950587289035428064568320970692304673817341489688118042624",
        "55464657044963196816950587289035428064568320970692304673817341489688118042625",
        "55464657044963196816950587289035428064568320970692304673817341489688118042626",
        "55464657044963196816950587289035428064568320970692304673817341489688118042627"
      ]
    },
    {
      "x": 256,
      "y": 3,
      "size": 1,
      "price": "4683000000000000000000",
      "reserved": "",
      "salt": "0x2c60f542415b99033a9ef76d125755da8a6b157bb1fa55f9b0fdfe6179e82d33",
      "assetIds": [
        "55464657044963196816950587289035428064568320970692304673817341489688118042624",
        "55464657044963196816950587289035428064568320970692304673817341489688118042625",
        "55464657044963196816950587289035428064568320970692304673817341489688118042626",
        "55464657044963196816950587289035428064568320970692304673817341489688118042627"
      ]
    },
    {
      "x": 256,
      "y": 4,
      "size": 1,
      "price": "4683000000000000000000",
      "reserved": "",
      "salt": "0xdaea1a1dbd02d1f3a9cb2a50461457fa814c76add99f6e59b44db6238f3b085a",
      "assetIds": [
        "55464657044963196816950587289035428064568320970692304673817341489688118042624",
        "55464657044963196816950587289035428064568320970692304673817341489688118042625",
        "55464657044963196816950587289035428064568320970692304673817341489688118042626",
        "55464657044963196816950587289035428064568320970692304673817341489688118042627"
      ]
    },
    {
      "x": 256,
      "y": 5,
      "size": 1,
      "price": "4683000000000000000000",
      "reserved": "",
      "salt": "0xb2b777b4cec687ee8f267d37cea0a6ba50f359bffec3b0e5a2c9c520f0bc25f4",
      "assetIds": [
        "55464657044963196816950587289035428064568320970692304673817341489688118042624",
        "55464657044963196816950587289035428064568320970692304673817341489688118042625",
        "55464657044963196816950587289035428064568320970692304673817341489688118042626",
        "55464657044963196816950587289035428064568320970692304673817341489688118042627"
      ]
    },
    {
      "x": 256,
      "y": 9,
      "size": 1,
      "price": "4683000000000000000000",
      "reserved": "",
      "salt": "0x0091dd71ca9d57d2fb49525b1d0075ee4851a47cb0fe8ca7424ea7ed46f8069b",
      "assetIds": [
        "55464657044963196816950587289035428064568320970692304673817341489688118042624",
        "55464657044963196816950587289035428064568320970692304673817341489688118042625",
        "55464657044963196816950587289035428064568320970692304673817341489688118042626",
        "55464657044963196816950587289035428064568320970692304673817341489688118042627"
      ]
    },
    {
      "x": 256,
      "y": 10,
      "size": 1,
      "price": "4683000000000000000000",
      "reserved": "",
      "salt": "0x891f5e131a9cf6d0ccff35128150aa418ff600dd0621b19c7254f737e70bcdc3",
      "assetIds": [
        "55464657044963196816950587289035428064568320970692304673817341489688118042624",
        "55464657044963196816950587289035428064568320970692304673817341489688118042625",
        "55464657044963196816950587289035428064568320970692304673817341489688118042626",
        "55464657044963196816950587289035428064568320970692304673817341489688118042627"
      ]
    },
    {
      "x": 256,
      "y": 11,
      "size": 1,
      "price": "4683000000000000000000",
      "reserved": "",
      "salt": "0xe5d23b35878dc49457bab41030c8cfeea2de649b2ade6752592476332ddc1e91",
      "assetIds": [
        "55464657044963196816950587289035428064568320970692304673817341489688118042624",
        "55464657044963196816950587289035428064568320970692304673817341489688118042625",
        "55464657044963196816950587289035428064568320970692304673817341489688118042626",
        "55464657044963196816950587289035428064568320970692304673817341489688118042627"
      ]
    },
    {
      "x": 257,
      "y": 0,
      "size": 1,
      "price": "4683000000000000000000",
      "reserved": "",
      "salt": "0xb6d46744708d56564472c35a39d5212259f4da5c6479166165d0952c938c3a1f",
      "assetIds": [
        "55464657044963196816950587289035428064568320970692304673817341489688118042624",
        "55464657044963196816950587289035428064568320970692304673817341489688118042625",
        "55464657044963196816950587289035428064568320970692304673817341489688118042626",
        "55464657044963196816950587289035428064568320970692304673817341489688118042627"
      ]
    },
    {
      "x": 257,
      "y": 1,
      "size": 1,
      "price": "4683000000000000000000",
      "reserved": "",
      "salt": "0xcd531e298585626d9acea9c95114f45fa1da9a8fc39a466bec3d3333f8831329",
      "assetIds": [
        "55464657044963196816950587289035428064568320970692304673817341489688118042624",
        "55464657044963196816950587289035428064568320970692304673817341489688118042625",
        "55464657044963196816950587289035428064568320970692304673817341489688118042626",
        "55464657044963196816950587289035428064568320970692304673817341489688118042627"
      ]
    },
    {
      "x": 257,
      "y": 2,
      "size": 1,
      "price": "4683000000000000000000",
      "reserved": "",
      "salt": "0xcb7a7a227ed4b0c83ac44ad17a923be1cb11a53f72515fa636dec91acb51fe02",
      "assetIds": [
        "55464657044963196816950587289035428064568320970692304673817341489688118042624",
        "55464657044963196816950587289035428064568320970692304673817341489688118042625",
        "55464657044963196816950587289035428064568320970692304673817341489688118042626",
        "55464657044963196816950587289035428064568320970692304673817341489688118042627"
      ]
    },
    {
      "x": 257,
      "y": 3,
      "size": 1,
      "price": "4683000000000000000000",
      "reserved": "",
      "salt": "0x2129b66c1325b94a54fe0de90ccf7d36d9b9f4108e7f4e8489d6cfe91e9d28ec",
      "assetIds": [
        "55464657044963196816950587289035428064568320970692304673817341489688118042624",
        "55464657044963196816950587289035428064568320970692304673817341489688118042625",
        "55464657044963196816950587289035428064568320970692304673817341489688118042626",
        "55464657044963196816950587289035428064568320970692304673817341489688118042627"
      ]
    },
    {
      "x": 257,
      "y": 4,
      "size": 1,
      "price": "4683000000000000000000",
      "reserved": "",
      "salt": "0x7670e6d746a99648740fe2732890f15de73873392f2d7abee233c6247b84eb87",
      "assetIds": [
        "55464657044963196816950587289035428064568320970692304673817341489688118042624",
        "55464657044963196816950587289035428064568320970692304673817341489688118042625",
        "55464657044963196816950587289035428064568320970692304673817341489688118042626",
        "55464657044963196816950587289035428064568320970692304673817341489688118042627"
      ]
    },
    {
      "x": 257,
      "y": 5,
      "size": 1,
      "price": "4683000000000000000000",
      "reserved": "",
      "salt": "0xda2b08329e6fa8a91550e440d504cfbecc147e49054143e5a08ab0d75e2161d3",
      "assetIds": [
        "55464657044963196816950587289035428064568320970692304673817341489688118042624",
        "55464657044963196816950587289035428064568320970692304673817341489688118042625",
        "55464657044963196816950587289035428064568320970692304673817341489688118042626",
        "55464657044963196816950587289035428064568320970692304673817341489688118042627"
      ]
    },
    {
      "x": 257,
      "y": 9,
      "size": 1,
      "price": "4683000000000000000000",
      "reserved": "",
      "salt": "0x85d16c50c293b4aa72e8286ca26e864edf74b8eb2772da8e27678468e35e9a62",
      "assetIds": [
        "55464657044963196816950587289035428064568320970692304673817341489688118042624",
        "55464657044963196816950587289035428064568320970692304673817341489688118042625",
        "55464657044963196816950587289035428064568320970692304673817341489688118042626",
        "55464657044963196816950587289035428064568320970692304673817341489688118042627"
      ]
    },
    {
      "x": 257,
      "y": 10,
      "size": 1,
      "price": "4683000000000000000000",
      "reserved": "",
      "salt": "0xb077409ddd86d0384cb5a98df381ec37793555a834c10d9faf9a528f57a1b96d",
      "assetIds": [
        "55464657044963196816950587289035428064568320970692304673817341489688118042624",
        "55464657044963196816950587289035428064568320970692304673817341489688118042625",
        "55464657044963196816950587289035428064568320970692304673817341489688118042626",
        "55464657044963196816950587289035428064568320970692304673817341489688118042627"
      ]
    },
    {
      "x": 257,
      "y": 11,
      "size": 1,
      "price": "1011000000000000000000",
      "reserved": "",
      "salt": "0x3f4da21938cd5f203d6a206e1ac5f8ac50dc579f56b35fde854b4861853083ef",
      "assetIds": []
    },
    {
      "x": 258,
      "y": 6,
      "size": 1,
      "price": "4683000000000000000000",
      "reserved": "",
      "salt": "0x57dcd99608504604067e588e24deaaab23ad5e5d101b859ecdb414e2313b284b",
      "assetIds": [
        "55464657044963196816950587289035428064568320970692304673817341489688118042624",
        "55464657044963196816950587289035428064568320970692304673817341489688118042625",
        "55464657044963196816950587289035428064568320970692304673817341489688118042626",
        "55464657044963196816950587289035428064568320970692304673817341489688118042627"
      ]
    },
    {
      "x": 258,
      "y": 7,
      "size": 1,
      "price": "1011000000000000000000",
      "reserved": "",
      "salt": "0x120b73151a87ccbaf76d0ea2d7f2fa4e92cf899bd2b2da917a1ed7e7ce0c814d",
      "assetIds": []
    },
    {
      "x": 258,
      "y": 8,
      "size": 1,
      "price": "1011000000000000000000",
      "reserved": "0x7a9fe22691c811ea339d9b73150e6911a5343dca",
      "salt": "0x9f654764a1e0d294665b06ee1b78ee8c13082b0b0ee90532b8c5d456e6402d12",
      "assetIds": []
    },
    {
      "x": 259,
      "y": 6,
      "size": 1,
      "price": "4683000000000000000000",
      "reserved": "",
      "salt": "0x34255abff308821eeac0f4a78d3a70208bf92737e0abd566e711bb598fdd5f14",
      "assetIds": [
        "55464657044963196816950587289035428064568320970692304673817341489688118042624",
        "55464657044963196816950587289035428064568320970692304673817341489688118042625",
        "55464657044963196816950587289035428064568320970692304673817341489688118042626",
        "55464657044963196816950587289035428064568320970692304673817341489688118042627"
      ]
    },
    {
      "x": 259,
      "y": 7,
      "size": 1,
      "price": "1011000000000000000000",
      "reserved": "",
      "salt": "0x7ffb738b8918ee47298d9df27f91aa434b9e216705ed9a88f6cdab2a14abfbee",
      "assetIds": []
    },
    {
      "x": 259,
      "y": 8,
      "size": 1,
      "price": "1011000000000000000000",
      "reserved": "",
      "salt": "0xc64767830dbcc8e317cb74a4ba3864a1a0b00a1520968f7a428c5576f1d2a9b0",
      "assetIds": []
    },
    {
      "x": 260,
      "y": 6,
      "size": 1,
      "price": "4683000000000000000000",
      "reserved": "",
      "salt": "0x359d472429f156cd7a60cb36e1a91c346a47b1269009c5d84773d2a0042789e4",
      "assetIds": [
        "55464657044963196816950587289035428064568320970692304673817341489688118042624",
        "55464657044963196816950587289035428064568320970692304673817341489688118042625",
        "55464657044963196816950587289035428064568320970692304673817341489688118042626",
        "55464657044963196816950587289035428064568320970692304673817341489688118042627"
      ]
    },
    {
      "x": 260,
      "y": 7,
      "size": 1,
      "price": "1011000000000000000000",
      "reserved": "",
      "salt": "0xe68e26b43daed06fddc177fda6b8c565f441702266cb45589b8c11688edc5bd7",
      "assetIds": []
    },
    {
      "x": 260,
      "y": 8,
      "size": 1,
      "price": "1011000000000000000000",
      "reserved": "",
      "salt": "0x105bf4dc62191342c96e817eee69f366657e2c853e9876415f85abaa8b23a5f8",
      "assetIds": []
    },
    {
      "x": 261,
      "y": 6,
      "size": 1,
      "price": "4683000000000000000000",
      "reserved": "",
      "salt": "0x2cb7f0277fb899c22c4257786c9c306ed9fa2079f20a9a32409f7084041ee20d",
      "assetIds": [
        "55464657044963196816950587289035428064568320970692304673817341489688118042624",
        "55464657044963196816950587289035428064568320970692304673817341489688118042625",
        "55464657044963196816950587289035428064568320970692304673817341489688118042626",
        "55464657044963196816950587289035428064568320970692304673817341489688118042627"
      ]
    },
    {
      "x": 261,
      "y": 7,
      "size": 1,
      "price": "1011000000000000000000",
      "reserved": "",
      "salt": "0x6c2d863cf2cd3247b7428418473808b3bf7f84702a9136aaf67f487530fb9c16",
      "assetIds": []
    },
    {
      "x": 261,
      "y": 8,
      "size": 1,
      "price": "1011000000000000000000",
      "reserved": "",
      "salt": "0x4f6c001ed5600184dfff13faf73480d0f46ae5e1beb4a3a6d877fe71c9cc8e48",
      "assetIds": []
    },
    {
      "x": 262,
      "y": 6,
      "size": 1,
      "price": "4683000000000000000000",
      "reserved": "",
      "salt": "0x16da8a9a36c16eae3355fc44c469d202ed7de17a50a9bfc5407005fcc41bb540",
      "assetIds": [
        "55464657044963196816950587289035428064568320970692304673817341489688118042624",
        "55464657044963196816950587289035428064568320970692304673817341489688118042625",
        "55464657044963196816950587289035428064568320970692304673817341489688118042626",
        "55464657044963196816950587289035428064568320970692304673817341489688118042627"
      ]
    },
    {
      "x": 262,
      "y": 7,
      "size": 1,
      "price": "1011000000000000000000",
      "reserved": "0x7a9fe22691c811ea339d9b73150e6911a5343dca",
      "salt": "0xb62ad3146b83ef50fad2fd3d79e4b9bf28e1f30f3a9676e2e9fc8c06f67aba99",
      "assetIds": []
    },
    {
      "x": 262,
      "y": 8,
      "size": 1,
      "price": "1011000000000000000000",
      "reserved": "",
      "salt": "0xdccdf36bf42bb918de27972509c42bfcae52c80b8158cccab02cec7fec32c82b",
      "assetIds": []
    },
    {
      "x": 263,
      "y": 6,
      "size": 1,
      "price": "4683000000000000000000",
      "reserved": "",
      "salt": "0x563c7f06417e7f9b0253c2c90b66567ed5e71140c6a75309ea715832d9102f83",
      "assetIds": [
        "55464657044963196816950587289035428064568320970692304673817341489688118042624",
        "55464657044963196816950587289035428064568320970692304673817341489688118042625",
        "55464657044963196816950587289035428064568320970692304673817341489688118042626",
        "55464657044963196816950587289035428064568320970692304673817341489688118042627"
      ]
    },
    {
      "x": 263,
      "y": 7,
      "size": 1,
      "price": "1011000000000000000000",
      "reserved": "",
      "salt": "0x649777aeae1e1ead3a04444f192abbe4cc74a36ac89bcb3072db8fea8471921c",
      "assetIds": []
    },
    {
      "x": 263,
      "y": 8,
      "size": 1,
      "price": "1011000000000000000000",
      "reserved": "",
      "salt": "0x3ab671b7c2ab6642b6ba367b63c707c993e7b500ca6a14ced0e708249e378e12",
      "assetIds": []
    },
    {
      "x": 264,
      "y": 0,
      "size": 1,
      "price": "4683000000000000000000",
      "reserved": "",
      "salt": "0x0edf95a8377014ac958a18ae6a969ae3356e8b6f030276f9c651a3e5ab2ac07a",
      "assetIds": [
        "55464657044963196816950587289035428064568320970692304673817341489688118042624",
        "55464657044963196816950587289035428064568320970692304673817341489688118042625",
        "55464657044963196816950587289035428064568320970692304673817341489688118042626",
        "55464657044963196816950587289035428064568320970692304673817341489688118042627"
      ]
    },
    {
      "x": 264,
      "y": 1,
      "size": 1,
      "price": "1011000000000000000000",
      "reserved": "0x7a9fe22691c811ea339d9b73150e6911a5343dca",
      "salt": "0x63bf19fe4133d5939273eeb03708022b54d559418d5c8b29f5deb9fe517b8d67",
      "assetIds": []
    },
    {
      "x": 264,
      "y": 2,
      "size": 1,
      "price": "4683000000000000000000",
      "reserved": "",
      "salt": "0xece6acc54570ea63caa89e649868259133d7f5824c1f563324f27b82b26e73e9",
      "assetIds": [
        "55464657044963196816950587289035428064568320970692304673817341489688118042624",
        "55464657044963196816950587289035428064568320970692304673817341489688118042625",
        "55464657044963196816950587289035428064568320970692304673817341489688118042626",
        "55464657044963196816950587289035428064568320970692304673817341489688118042627"
      ]
    },
    {
      "x": 264,
      "y": 3,
      "size": 1,
      "price": "4683000000000000000000",
      "reserved": "",
      "salt": "0x6621cbdc63a296c2dd418fa9d59a50c54e8c142f679d3d4500471b8ffe6712b4",
      "assetIds": [
        "55464657044963196816950587289035428064568320970692304673817341489688118042624",
        "55464657044963196816950587289035428064568320970692304673817341489688118042625",
        "55464657044963196816950587289035428064568320970692304673817341489688118042626",
        "55464657044963196816950587289035428064568320970692304673817341489688118042627"
      ]
    },
    {
      "x": 264,
      "y": 4,
      "size": 1,
      "price": "4683000000000000000000",
      "reserved": "",
      "salt": "0xcd6b8ba41575433865bb36ce6d1ab224c15bc3ec9dd9a4e915d3a95d130dfb29",
      "assetIds": [
        "55464657044963196816950587289035428064568320970692304673817341489688118042624",
        "55464657044963196816950587289035428064568320970692304673817341489688118042625",
        "55464657044963196816950587289035428064568320970692304673817341489688118042626",
        "55464657044963196816950587289035428064568320970692304673817341489688118042627"
      ]
    },
    {
      "x": 264,
      "y": 5,
      "size": 1,
      "price": "4683000000000000000000",
      "reserved": "",
      "salt": "0x014cb54ca482daaf19508d9607086d6427617b1cd1f5d4f84b341334a867036f",
      "assetIds": [
        "55464657044963196816950587289035428064568320970692304673817341489688118042624",
        "55464657044963196816950587289035428064568320970692304673817341489688118042625",
        "55464657044963196816950587289035428064568320970692304673817341489688118042626",
        "55464657044963196816950587289035428064568320970692304673817341489688118042627"
      ]
    },
    {
      "x": 264,
      "y": 6,
      "size": 1,
      "price": "1011000000000000000000",
      "reserved": "0x7a9fe22691c811ea339d9b73150e6911a5343dca",
      "salt": "0x26b8f854ee32f170dfec67e731afa097ebdfcd7d0cc0b27517b7a6a8ca764a42",
      "assetIds": []
    },
    {
      "x": 264,
      "y": 7,
      "size": 1,
      "price": "1011000000000000000000",
      "reserved": "",
      "salt": "0x46fe9314a6df85c8a7920bbfd0daae18f26947480a7f2982531b6ee26d941458",
      "assetIds": []
    },
    {
      "x": 264,
      "y": 8,
      "size": 1,
      "price": "1011000000000000000000",
      "reserved": "",
      "salt": "0x0efa793a59b5fe76965e0cfca235e17cd6f4a10e2ef696450c3460c36942a023",
      "assetIds": []
    },
    {
      "x": 264,
      "y": 9,
      "size": 1,
      "price": "1011000000000000000000",
      "reserved": "",
      "salt": "0x399ed7ac63cf3c4517dd0fa528d6698e00e6d24162ed626934927e337619ee26",
      "assetIds": []
    },
    {
      "x": 264,
      "y": 10,
      "size": 1,
      "price": "1011000000000000000000",
      "reserved": "",
      "salt": "0xb1b3c09ea2c956e27ec6b2418f942ffd7d32a0d50a3ccaa41ef142e5df17d636",
      "assetIds": []
    },
    {
      "x": 264,
      "y": 11,
      "size": 1,
      "price": "1011000000000000000000",
      "reserved": "0x7a9fe22691c811ea339d9b73150e6911a5343dca",
      "salt": "0x51f8f506c197093e8b5432748f8b82295e214a0f23429d94f04092f868877db0",
      "assetIds": []
    },
    {
      "x": 265,
      "y": 0,
      "size": 1,
      "price": "1011000000000000000000",
      "reserved": "",
      "salt": "0x72ef70932d4fb0e7b4c9de1eaa1c852dbc83fac8f25375474c11bbaa7177c0fc",
      "assetIds": []
    },
    {
      "x": 265,
      "y": 1,
      "size": 1,
      "price": "1011000000000000000000",
      "reserved": "",
      "salt": "0x41eb19660863a376003dcdf6dd5cb58554d0fddca3198f070cc5fa3b4f881c04",
      "assetIds": []
    },
    {
      "x": 265,
      "y": 2,
      "size": 1,
      "price": "1011000000000000000000",
      "reserved": "",
      "salt": "0x46b94ff523c2075584c177793525766abbaf0e6e9f5fa42938928703363f3996",
      "assetIds": []
    },
    {
      "x": 265,
      "y": 3,
      "size": 1,
      "price": "1011000000000000000000",
      "reserved": "",
      "salt": "0xdd66228da7bbaa409ac14c985e289713800bd2951545c0c5fd8f13b5fcd9f58b",
      "assetIds": []
    },
    {
      "x": 265,
      "y": 4,
      "size": 1,
      "price": "1011000000000000000000",
      "reserved": "",
      "salt": "0x2a61d895e925fab5d384e8946b6773260624e7fe821da3b5507cfe32cd5fb508",
      "assetIds": []
    },
    {
      "x": 265,
      "y": 5,
      "size": 1,
      "price": "1011000000000000000000",
      "reserved": "",
      "salt": "0x239097a4b715378587fc1edcd1007b1f21e1b06814ca40b4d3b46b7040a3a915",
      "assetIds": []
    },
    {
      "x": 265,
      "y": 6,
      "size": 1,
      "price": "1011000000000000000000",
      "reserved": "",
      "salt": "0x6732ee1d2bb208e0bee5fbdcd2f8e74583dbcfb1b243b03061d80bd7150be566",
      "assetIds": []
    },
    {
      "x": 265,
      "y": 7,
      "size": 1,
      "price": "1011000000000000000000",
      "reserved": "",
      "salt": "0x9fd8d1ac373e3d1f4561025ae90761fb41be5c08fd878c5049ded49780bb2fb3",
      "assetIds": []
    },
    {
      "x": 265,
      "y": 8,
      "size": 1,
      "price": "1011000000000000000000",
      "reserved": "0x7a9fe22691c811ea339d9b73150e6911a5343dca",
      "salt": "0x68324ef99af5739553ad449deaaec171b9f25932ba69b05bef02e3f62b128a01",
      "assetIds": []
    },
    {
      "x": 265,
      "y": 9,
      "size": 1,
      "price": "1011000000000000000000",
      "reserved": "",
      "salt": "0xf6799f4be7cef79d7728880250ea238cf1c433276ef298568cfeb9f2f9932ea8",
      "assetIds": []
    },
    {
      "x": 265,
      "y": 10,
      "size": 1,
      "price": "1011000000000000000000",
      "reserved": "",
      "salt": "0x173f1d54567034f96410aac3f9e6680c4862012503d058f2bada78955ab77a41",
      "assetIds": []
    },
    {
      "x": 265,
      "y": 11,
      "size": 1,
      "price": "1011000000000000000000",
      "reserved": "",
      "salt": "0x37eedcca9024a442e493752f7f7720bac72dad9f93e7cc081e48bfccbe3feca8",
      "assetIds": []
    },
    {
      "x": 266,
      "y": 0,
      "size": 1,
      "price": "1011000000000000000000",
      "reserved": "",
      "salt": "0x9bac40bacd9875df1c9d6c4ba22292370cbcc89bc91cef58b1bea096abddb792",
      "assetIds": []
    },
    {
      "x": 266,
      "y": 1,
      "size": 1,
      "price": "1011000000000000000000",
      "reserved": "",
      "salt": "0x9ae14cedde0c4793aa08494f2cea55d815b67019456e064ad6c10120e1bc528b",
      "assetIds": []
    },
    {
      "x": 266,
      "y": 2,
      "size": 1,
      "price": "1011000000000000000000",
      "reserved": "",
      "salt": "0x098fc99ab2902ddaf93a49f30de083804174d3b3215b0c9fb963bd1d6f37935e",
      "assetIds": []
    },
    {
      "x": 266,
      "y": 3,
      "size": 1,
      "price": "1011000000000000000000",
      "reserved": "",
      "salt": "0x6fa85f04dd4507868e50983e9e6e38b06ec48c21a93c707239cc62e71d651a05",
      "assetIds": []
    },
    {
      "x": 266,
      "y": 4,
      "size": 1,
      "price": "1011000000000000000000",
      "reserved": "0x7a9fe22691c811ea339d9b73150e6911a5343dca",
      "salt": "0x714d3a5a009fb49b73cf621131e41e67fbf965b39f5f970fc75c7ad6a874d9f6",
      "assetIds": []
    },
    {
      "x": 266,
      "y": 5,
      "size": 1,
      "price": "1011000000000000000000",
      "reserved": "",
      "salt": "0x22c3fc271c84c4d2ccf9b7d3843c33696a60ffb927150e90eb561bfaa5b888e9",
      "assetIds": []
    },
    {
      "x": 266,
      "y": 6,
      "size": 1,
      "price": "1011000000000000000000",
      "reserved": "",
      "salt": "0x674fead665be983633b814dc6bf908c1ccec920bdf849cad76f20055cf96599a",
      "assetIds": []
    },
    {
      "x": 266,
      "y": 7,
      "size": 1,
      "price": "1011000000000000000000",
      "reserved": "",
      "salt": "0x5a5886a8bcf4676491829f6681e18e59ee0132bbef0b7760a76d87378c60f563",
      "assetIds": []
    },
    {
      "x": 266,
      "y": 8,
      "size": 1,
      "price": "1011000000000000000000",
      "reserved": "",
      "salt": "0x70451c43539a0bc2a7584ca3813b74581a431224951bfb29ac576e8738ef0b0a",
      "assetIds": []
    },
    {
      "x": 266,
      "y": 9,
      "size": 1,
      "price": "1011000000000000000000",
      "reserved": "",
      "salt": "0x2d08b02143923d84542ba41848db8377624fdb0ac92bfc9eb9f9f8a773c506c1",
      "assetIds": []
    },
    {
      "x": 266,
      "y": 10,
      "size": 1,
      "price": "1011000000000000000000",
      "reserved": "",
      "salt": "0x2553b6897f8d296ef04f7345b061f2985c323d668ea808155b66af859cc41363",
      "assetIds": []
    },
    {
      "x": 266,
      "y": 11,
      "size": 1,
      "price": "1011000000000000000000",
      "reserved": "",
      "salt": "0x817b6687e4248d114f3638be40cbbd16415ed8e686dcf5f353678a2b3eb31510",
      "assetIds": []
    },
    {
      "x": 267,
      "y": 3,
      "size": 1,
      "price": "1011000000000000000000",
      "reserved": "",
      "salt": "0xbba365163c02ba115dd0f68aeecd04b217572be9f7b136d77c1fe74e6ccf19d2",
      "assetIds": []
    },
    {
      "x": 267,
      "y": 4,
      "size": 1,
      "price": "1011000000000000000000",
      "reserved": "",
      "salt": "0xcbb1a5ac02e574a45c3139e33d06c79c02100d52fd7d0f27ec7d1d74cbf4e32f",
      "assetIds": []
    },
    {
      "x": 267,
      "y": 5,
      "size": 1,
      "price": "1011000000000000000000",
      "reserved": "",
      "salt": "0x5c9bc6bff4c735d324b046d97907f60c3707659f0109f282ff47e16b1378cb6b",
      "assetIds": []
    },
    {
      "x": 267,
      "y": 6,
      "size": 1,
      "price": "1011000000000000000000",
      "reserved": "",
      "salt": "0xf7010a4b9f222d5c33d9fab5ddf998243e6e3ac91048a1af061c8afd823157e6",
      "assetIds": []
    },
    {
      "x": 267,
      "y": 7,
      "size": 1,
      "price": "1011000000000000000000",
      "reserved": "",
      "salt": "0xc1b0560746c62cf8d07d582d95edf5a7dea5fd88347900e3298b94d3ee43d659",
      "assetIds": []
    },
    {
      "x": 267,
      "y": 8,
      "size": 1,
      "price": "1011000000000000000000",
      "reserved": "",
      "salt": "0x932b18e2f894bb1a4a2cc8e98ad246d72fca1957fc42b6aec830fb52f92d0933",
      "assetIds": []
    },
    {
      "x": 267,
      "y": 9,
      "size": 1,
      "price": "1011000000000000000000",
      "reserved": "0x7a9fe22691c811ea339d9b73150e6911a5343dca",
      "salt": "0xec42279cd93506f2cf70a83c51335fed9535fccee8dcaec425f51b0b4abfa741",
      "assetIds": []
    },
    {
      "x": 267,
      "y": 10,
      "size": 1,
      "price": "1011000000000000000000",
      "reserved": "",
      "salt": "0x3b9fc65bdcd15482045cb6960b14c37b612614dc770e9c380862e057e5755c81",
      "assetIds": []
    },
    {
      "x": 267,
      "y": 11,
      "size": 1,
      "price": "1011000000000000000000",
      "reserved": "",
      "salt": "0x494b6a1aea5adbd5e24df0d6e45ab392fddc8fe91da6f8c2388416f3257036a7",
      "assetIds": []
    },
    {
      "x": 268,
      "y": 3,
      "size": 1,
      "price": "1011000000000000000000",
      "reserved": "",
      "salt": "0x65ed5aeb8ee7e837ac829da318c0d77cf4648c7e4ddb3d8aa224293c753c9609",
      "assetIds": []
    },
    {
      "x": 268,
      "y": 4,
      "size": 1,
      "price": "1011000000000000000000",
      "reserved": "",
      "salt": "0x66b2e145f57505de445e22656f82d7030eced995e62c486075d308bf1a857d9b",
      "assetIds": []
    },
    {
      "x": 268,
      "y": 5,
      "size": 1,
      "price": "1011000000000000000000",
      "reserved": "0x7a9fe22691c811ea339d9b73150e6911a5343dca",
      "salt": "0xd08a5f158da07457c63eeb35697f67385c8eeee7e5174ecaa4980be1f6f0a23b",
      "assetIds": []
    },
    {
      "x": 268,
      "y": 6,
      "size": 1,
      "price": "1011000000000000000000",
      "reserved": "",
      "salt": "0xf4598c8d49c6c5cfb28eb4ddda44ae7583d9b2402a528befd5ed71f6f1abaaae",
      "assetIds": []
    },
    {
      "x": 268,
      "y": 7,
      "size": 1,
      "price": "1011000000000000000000",
      "reserved": "0x7a9fe22691c811ea339d9b73150e6911a5343dca",
      "salt": "0x8a1f03b2d09e4253e4dada94373e2ea7767a65b3d92cbc69444dca208a4115e7",
      "assetIds": []
    },
    {
      "x": 268,
      "y": 8,
      "size": 1,
      "price": "1011000000000000000000",
      "reserved": "",
      "salt": "0x53a543a5b6f4e8f1e37300d949c209b8aa1f81bb910c0aa623e8868965de3180",
      "assetIds": []
    },
    {
      "x": 268,
      "y": 9,
      "size": 1,
      "price": "1011000000000000000000",
      "reserved": "",
      "salt": "0xe3595e577c63ea3811c96358128e0c225c6a6f08f7ceee45742548ff18ac2e6a",
      "assetIds": []
    },
    {
      "x": 268,
      "y": 10,
      "size": 1,
      "price": "1011000000000000000000",
      "reserved": "",
      "salt": "0x145c021df07fd189229ec5ae2c60d0370647c17d206ec9764491c951f3dadca7",
      "assetIds": []
    },
    {
      "x": 268,
      "y": 11,
      "size": 1,
      "price": "1011000000000000000000",
      "reserved": "0x7a9fe22691c811ea339d9b73150e6911a5343dca",
      "salt": "0xa420a1b22dbbf10b1829b530c8a4c77f9e14b0b47b84c50ebabf7e5ac42e7286",
      "assetIds": []
    },
    {
      "x": 269,
      "y": 3,
      "size": 1,
      "price": "1011000000000000000000",
      "reserved": "",
      "salt": "0x63ae2a9dbb6db0494a2acb4a9ba01714cdd4167f000e78f8b87aad3a6c8a0bb4",
      "assetIds": []
    },
    {
      "x": 269,
      "y": 4,
      "size": 1,
      "price": "1011000000000000000000",
      "reserved": "0x7a9fe22691c811ea339d9b73150e6911a5343dca",
      "salt": "0x2b77c10b2e967bf6d01989d4397f4d5d283471726a4106576731fb080d1ab5b6",
      "assetIds": []
    },
    {
      "x": 269,
      "y": 5,
      "size": 1,
      "price": "1011000000000000000000",
      "reserved": "",
      "salt": "0xd328f4fc84ae122d7e0f2ffb91c92c2f110cd5170056fe340647336691d63302",
      "assetIds": []
    },
    {
      "x": 269,
      "y": 6,
      "size": 1,
      "price": "1011000000000000000000",
      "reserved": "",
      "salt": "0x7d7c7076696d7b884d02258229ce24b0c66ec6d174b4d1c77bd8ddb19e6f83aa",
      "assetIds": []
    },
    {
      "x": 269,
      "y": 7,
      "size": 1,
      "price": "1011000000000000000000",
      "reserved": "",
      "salt": "0xc113abcb3c43a3ba9ec283083268de850b325ffb1419325e43dbb7e9d3b5741a",
      "assetIds": []
    },
    {
      "x": 269,
      "y": 8,
      "size": 1,
      "price": "1011000000000000000000",
      "reserved": "",
      "salt": "0x50b15d65e07823ffc3b1d0eade240475cd5afc6b367ceed24bc39fbbbfc57d62",
      "assetIds": []
    },
    {
      "x": 269,
      "y": 9,
      "size": 1,
      "price": "1011000000000000000000",
      "reserved": "",
      "salt": "0xf6dd34c594d0db73779f59ced5fb5702808d73f1c1355cef84b17826db1043d7",
      "assetIds": []
    },
    {
      "x": 269,
      "y": 10,
      "size": 1,
      "price": "1011000000000000000000",
      "reserved": "",
      "salt": "0x49e3e309fafcd622c31e5244d6edda9e0898b4fc44c45750314a440d036ffb0c",
      "assetIds": []
    },
    {
      "x": 269,
      "y": 11,
      "size": 1,
      "price": "1011000000000000000000",
      "reserved": "",
      "salt": "0xdc313c7a72222a32d1b2c180d7ed5a2aa9b19c115dc5e394c00cbe52e89bd24e",
      "assetIds": []
    },
    {
      "x": 240,
      "y": 12,
      "size": 3,
      "price": "8648000000000000000000",
      "reserved": "0x7a9fe22691c811ea339d9b73150e6911a5343dca",
      "salt": "0x1ca865937d0f552986af7a277821e5a227a6fd046992455f6463c263e59080bb",
      "assetIds": []
    },
    {
      "x": 243,
      "y": 9,
      "size": 3,
      "price": "8648000000000000000000",
      "reserved": "0x7a9fe22691c811ea339d9b73150e6911a5343dca",
      "salt": "0xe5ce094e2404c2dae3b2638f935f31a1d5059e608d0e07048f7307a91e7c8d65",
      "assetIds": []
    },
    {
      "x": 243,
      "y": 12,
      "size": 3,
      "price": "8648000000000000000000",
      "reserved": "0x7a9fe22691c811ea339d9b73150e6911a5343dca",
      "salt": "0x5e020469e76a488e1fd141abd28b458cd95fc7df4da3e9c1ca2fa60a7b53e286",
      "assetIds": []
    },
    {
      "x": 246,
      "y": 0,
      "size": 3,
      "price": "8648000000000000000000",
      "reserved": "0x7a9fe22691c811ea339d9b73150e6911a5343dca",
      "salt": "0x2df2732bc9605385e0373d4046717d432a9f69e74ee4ff24d14fed598b0f6766",
      "assetIds": []
    },
    {
      "x": 249,
      "y": 0,
      "size": 3,
      "price": "8648000000000000000000",
      "reserved": "0x7a9fe22691c811ea339d9b73150e6911a5343dca",
      "salt": "0x677572a07f6a98b1fcfca2bd27fe2dc7918674f7c82e2f7f89a04fd8da487c2f",
      "assetIds": []
    },
    {
      "x": 249,
      "y": 3,
      "size": 3,
      "price": "8648000000000000000000",
      "reserved": "0x7a9fe22691c811ea339d9b73150e6911a5343dca",
      "salt": "0xf7ba3f6bdb2fd055a362522819d2d44122d69881205a32c7a95e53a5f0f7f095",
      "assetIds": []
    },
    {
      "x": 252,
      "y": 6,
      "size": 3,
      "price": "8648000000000000000000",
      "reserved": "0x7a9fe22691c811ea339d9b73150e6911a5343dca",
      "salt": "0xf6a1c2cea044725a5d99af09e514708e512f4c211828fefb92c2368f160bc348",
      "assetIds": []
    },
    {
      "x": 252,
      "y": 9,
      "size": 3,
      "price": "8648000000000000000000",
      "reserved": "0x7a9fe22691c811ea339d9b73150e6911a5343dca",
      "salt": "0x1a6b86ef2af2d2fa218d3b0cc153f550efae27e8c6e148d46678443499a9b35a",
      "assetIds": []
    },
    {
      "x": 252,
      "y": 12,
      "size": 3,
      "price": "8648000000000000000000",
      "reserved": "0x7a9fe22691c811ea339d9b73150e6911a5343dca",
      "salt": "0x7fd4bee42cd72d9caa939e7c769ecf7f1bcaded0bd9d59f84d4320942d462498",
      "assetIds": []
    },
    {
      "x": 255,
      "y": 6,
      "size": 3,
      "price": "8648000000000000000000",
      "reserved": "0x7a9fe22691c811ea339d9b73150e6911a5343dca",
      "salt": "0xbc6277fdfa028e12397ff36ffdfa54bb8e5fc241012d398a65e0a50ca12bda5f",
      "assetIds": []
    },
    {
      "x": 267,
      "y": 0,
      "size": 3,
      "price": "8648000000000000000000",
      "reserved": "0x7a9fe22691c811ea339d9b73150e6911a5343dca",
      "salt": "0x1ac32914ed3fbcc93bff69e37c0cd68a5d3933ef4d9b1534b150e0e57174cdc7",
      "assetIds": []
    },
    {
      "x": 234,
      "y": 0,
      "size": 6,
      "price": "32772000000000000000000",
      "reserved": "0x7a9fe22691c811ea339d9b73150e6911a5343dca",
      "salt": "0x56622a9514e4dc630881486b8b0b9be9bd431e9c6678c9f4d92354564ffab852",
      "assetIds": []
    },
    {
      "x": 240,
      "y": 0,
      "size": 6,
      "price": "32772000000000000000000",
      "reserved": "0x7a9fe22691c811ea339d9b73150e6911a5343dca",
      "salt": "0x465690be179d7d617190c3314c6b3ea47cd3731bd46cb88755918af20d54b55c",
      "assetIds": []
    },
    {
      "x": 258,
      "y": 0,
      "size": 6,
      "price": "32772000000000000000000",
      "reserved": "0x7a9fe22691c811ea339d9b73150e6911a5343dca",
      "salt": "0x32fd7ba77cf09954a4b886d971ea977018ae0cbe2afc12e5d000acb8c07085b4",
      "assetIds": []
    },
    {
      "x": 270,
      "y": 0,
      "size": 6,
      "price": "32772000000000000000000",
      "reserved": "0x7a9fe22691c811ea339d9b73150e6911a5343dca",
      "salt": "0x441f3ba8821f59f7c8c1ab8e647848f108456215b04f95338368149c5e3c4466",
      "assetIds": []
    },
    {
      "x": 270,
      "y": 6,
      "size": 6,
      "price": "32772000000000000000000",
      "reserved": "0x7a9fe22691c811ea339d9b73150e6911a5343dca",
      "salt": "0xfd945aaae0f34f6ec004dadc2901d85cb61bbad3643654904fb789d29cc9d0b0",
      "assetIds": []
    }
  ],
  "solcInputHash": "e17a5bb930c92aaeeb80a52119ce77b7",
  "bytecode": "0x610160604052620d2f0060055534801561001857600080fd5b506040516200284d3803806200284d83398181016040526101a081101561003e57600080fd5b50805160208201516040830151606080850151608086015160a08088015160c0808a015160e08b01516101008c01516101208d01516101408e01516101608f0151610180909f0151600280546001600160a01b0319166001600160a01b03871617905560038490558e8c1b6001600160601b03199081169099529a8d901b9097169094529a9b999a98999698959793969195909490939091906100e28b600161015d565b600680546001600160a01b039a8b166001600160a01b031991821617909155610140989098526101209690965260008054998916998816999099179098556001600160601b0319606092831b811660e05290821b811660805296901b909516610100525060078054919093169116179055506101c192505050565b6001600160a01b038216600081815260016020908152604091829020805460ff191685151590811790915582519384529083015280517fb21eb88b4e33b3f1281830a7178d74d8aa73220416215726b68ae23d539515cb9281900390910190a15050565b60805160601c60a05160601c60c05160601c60e05160601c6101005160601c61012051610140516126066200024760003980610b3d528061206c525080610b1952806112ec5250806120da525080611841528061199e5250806117f75280611b9d528061210e525080611872528061196f525080610eb25280611c8952506126066000f3fe608060405234801561001057600080fd5b506004361061011b5760003560e01c80638f283970116100b2578063c10a420811610081578063dc5074af11610066578063dc5074af1461085f578063e56f8a9e14610885578063f23a6e61146108a25761011b565b8063c10a420814610780578063caed3500146108575761011b565b80638f28397014610500578063984d625214610526578063b522ecff146105f8578063bc197c811461061e5761011b565b806365194ce7116100ee57806365194ce7146103485780636e9960c3146104a657806377f1c3ac146104ca5780638a04af6a146104d25761011b565b80631187fd3c1461012057806325cb5bc014610300578063495906571461031a57806358bc294414610322575b600080fd5b6102fe600480360361012081101561013757600080fd5b6001600160a01b038235811692602081013582169260408201359092169181019060808101606082013564010000000081111561017357600080fd5b82018360208201111561018557600080fd5b803590602001918460208302840111640100000000831117156101a757600080fd5b919390928235926040810190602001356401000000008111156101c957600080fd5b8201836020820111156101db57600080fd5b803590602001918460208302840111640100000000831117156101fd57600080fd5b91939092909160208101903564010000000081111561021b57600080fd5b82018360208201111561022d57600080fd5b8035906020019184602083028401116401000000008311171561024f57600080fd5b91939092909160208101903564010000000081111561026d57600080fd5b82018360208201111561027f57600080fd5b803590602001918460018302840111640100000000831117156102a157600080fd5b9193909290916020810190356401000000008111156102bf57600080fd5b8201836020820111156102d157600080fd5b803590602001918460018302840111640100000000831117156102f357600080fd5b509092509050610937565b005b610308610b17565b60408051918252519081900360200190f35b610308610b3b565b6102fe6004803603602081101561033857600080fd5b50356001600160a01b0316610b5f565b6103ee6004803603602081101561035e57600080fd5b81019060208101813564010000000081111561037957600080fd5b82018360208201111561038b57600080fd5b803590602001918460018302840111640100000000831117156103ad57600080fd5b91908080601f016020809104026020016040519081016040528093929190818152602001838380828437600092019190915250929550610c0a945050505050565b6040518080602001866001600160a01b03166001600160a01b03168152602001856001600160a01b03166001600160a01b03168152602001848152602001838152602001828103825287818151815260200191508051906020019080838360005b8381101561046757818101518382015260200161044f565b50505050905090810190601f1680156104945780820380516001836020036101000a031916815260200191505b50965050505050505060405180910390f35b6104ae610d0f565b604080516001600160a01b039092168252519081900360200190f35b610308610d1e565b6102fe600480360360408110156104e857600080fd5b506001600160a01b0381351690602001351515610d24565b6102fe6004803603602081101561051657600080fd5b50356001600160a01b0316610d7b565b6102fe6004803603606081101561053c57600080fd5b6001600160a01b03823516919081019060408101602082013564010000000081111561056757600080fd5b82018360208201111561057957600080fd5b8035906020019184602083028401116401000000008311171561059b57600080fd5b9193909290916020810190356401000000008111156105b957600080fd5b8201836020820111156105cb57600080fd5b803590602001918460208302840111640100000000831117156105ed57600080fd5b509092509050610e51565b6102fe6004803603602081101561060e57600080fd5b50356001600160a01b0316610fdc565b61074b600480360360a081101561063457600080fd5b6001600160a01b03823581169260208101359091169181019060608101604082013564010000000081111561066857600080fd5b82018360208201111561067a57600080fd5b8035906020019184602083028401116401000000008311171561069c57600080fd5b9193909290916020810190356401000000008111156106ba57600080fd5b8201836020820111156106cc57600080fd5b803590602001918460208302840111640100000000831117156106ee57600080fd5b91939092909160208101903564010000000081111561070c57600080fd5b82018360208201111561071e57600080fd5b8035906020019184600183028401116401000000008311171561074057600080fd5b5090925090506110c5565b604080517fffffffff000000000000000000000000000000000000000000000000000000009092168252519081900360200190f35b610843600480360360a081101561079657600080fd5b8101906020810181356401000000008111156107b157600080fd5b8201836020820111156107c357600080fd5b803590602001918460018302840111640100000000831117156107e557600080fd5b91908080601f016020809104026020016040519081016040528093929190818152602001838380828437600092019190915250929550506001600160a01b0383358116945060208401351692604081013592506060013590506110f2565b604080519115158252519081900360200190f35b6104ae61122e565b6108436004803603602081101561087557600080fd5b50356001600160a01b031661123d565b6102fe6004803603602081101561089b57600080fd5b503561125b565b61074b600480360360a08110156108b857600080fd5b6001600160a01b03823581169260208101359091169160408201359160608101359181019060a0810160808201356401000000008111156108f857600080fd5b82018360208201111561090a57600080fd5b8035906020019184600183028401116401000000008311171561092c57600080fd5b5090925090506112bf565b6109418e8d6112ea565b610a388d8d8d8d80806020026020016040519081016040528093929190818152602001838360200280828437600081840152601f19601f820116905080830192505050505050508c8c8c80806020026020016040519081016040528093929190818152602001838360200280828437600081840152601f19601f820116905080830192505050505050508b8b8080602002602001604051908101604052809392919081815260200183836020028082843760009201919091525050604080516020601f8d018190048102820181019092528b815292508b91508a908190840183828082843760009201919091525061144d92505050565b610a8c8e8c8c6003818110610a4957fe5b9050602002013586868080601f0160208091040260200160405190810160405280939291908181526020018383808284376000920191909152506117d092505050565b610aca8e8e8d8d8080602002602001604051908101604052809392919081815260200183836020028082843760009201919091525061182192505050565b610b078d898980806020026020016040519081016040528093929190818152602001838360200280828437600092019190915250611c1292505050565b5050505050505050505050505050565b7f000000000000000000000000000000000000000000000000000000000000000090565b7f000000000000000000000000000000000000000000000000000000000000000090565b6000546001600160a01b03163314610bbe576040805162461bcd60e51b815260206004820152601060248201527f53656e646572206e6f742061646d696e00000000000000000000000000000000604482015290519081900360640190fd5b600554600280546001600160a01b03908116600090815260046020526040902042909301909255805473ffffffffffffffffffffffffffffffffffffffff191692909116919091179055565b606060008060008060606000806000808a80602001905160a0811015610c2f57600080fd5b8101908080516040519392919084640100000000821115610c4f57600080fd5b908301906020820185811115610c6457600080fd5b8251640100000000811182820188101715610c7e57600080fd5b82525081516020918201929091019080838360005b83811015610cab578181015183820152602001610c93565b50505050905090810190601f168015610cd85780820380516001836020036101000a031916815260200191505b5060409081526020820151908201516060830151608090930151959f50909d509b5099509197505050505050505091939590929450565b6000546001600160a01b031690565b60035490565b6000546001600160a01b03163314610d6d5760405162461bcd60e51b815260040180806020018281038252602e8152602001806125a3602e913960400191505060405180910390fd5b610d778282611dd6565b5050565b6000546001600160a01b03163314610dda576040805162461bcd60e51b815260206004820152601b60248201527f6f6e6c792061646d696e2063616e206368616e67652061646d696e0000000000604482015290519081900360640190fd5b600054604080516001600160a01b039283168152918316602083015280517f7e644d79422f17c01e4894b5f4f588d331ebfa28653d42ae832dc59e38c9798f9281900390910190a16000805473ffffffffffffffffffffffffffffffffffffffff19166001600160a01b0392909216919091179055565b6000546001600160a01b03163314610eb0576040805162461bcd60e51b815260206004820152600e60248201527f4e4f545f415554484f52495a4544000000000000000000000000000000000000604482015290519081900360640190fd5b7f00000000000000000000000000000000000000000000000000000000000000006001600160a01b0316632eb2c2d63087878787876040518763ffffffff1660e01b815260040180876001600160a01b03166001600160a01b03168152602001866001600160a01b03166001600160a01b031681526020018060200180602001806020018481038452888882818152602001925060200280828437600083820152601f01601f19169091018581038452868152602090810191508790870280828437600081840152601f19601f8201169050808301925050508481038252600081526020016020019950505050505050505050600060405180830381600087803b158015610fbd57600080fd5b505af1158015610fd1573d6000803e3d6000fd5b505050505050505050565b6001600160a01b038116611037576040805162461bcd60e51b815260206004820152600c60248201527f5a45524f5f414444524553530000000000000000000000000000000000000000604482015290519081900360640190fd5b6000546001600160a01b03163314611096576040805162461bcd60e51b815260206004820152600e60248201527f4e4f545f415554484f52495a4544000000000000000000000000000000000000604482015290519081900360640190fd5b6006805473ffffffffffffffffffffffffffffffffffffffff19166001600160a01b0392909216919091179055565b7fbc197c810000000000000000000000000000000000000000000000000000000098975050505050505050565b60006003548211806111155750836001600160a01b0316856001600160a01b0316145b8061111f57508242115b1561112c57506000611225565b60408051606087811b7fffffffffffffffffffffffffffffffffffffffff0000000000000000000000009081166020808501919091529188901b166034830152604882018690526068808301869052835180840390910181526088830184528051908201207f19457468657265756d205369676e6564204d6573736167653a0a33320000000060a884015260c48084018290528451808503909101815260e490930190935281519101206000906111e39089611e58565b6001600160a01b038116600090815260046020526040902054909150421161121057600192505050611225565b6002546001600160a01b039081169116149150505b95945050505050565b6002546001600160a01b031690565b6001600160a01b031660009081526001602052604090205460ff1690565b6000546001600160a01b031633146112ba576040805162461bcd60e51b815260206004820152601060248201527f53656e646572206e6f742061646d696e00000000000000000000000000000000604482015290519081900360640190fd5b600355565b7ff23a6e61000000000000000000000000000000000000000000000000000000009695505050505050565b7f0000000000000000000000000000000000000000000000000000000000000000421061135e576040805162461bcd60e51b815260206004820152600c60248201527f53414c455f49535f4f5645520000000000000000000000000000000000000000604482015290519081900360640190fd5b6001600160a01b03821633148061138457503360009081526001602052604090205460ff165b6113d5576040805162461bcd60e51b815260206004820152600e60248201527f4e4f545f415554484f52495a4544000000000000000000000000000000000000604482015290519081900360640190fd5b6001600160a01b03811615806113fc5750816001600160a01b0316816001600160a01b0316145b610d77576040805162461bcd60e51b815260206004820152600d60248201527f52455345525645445f4c414e4400000000000000000000000000000000000000604482015290519081900360640190fd5b600087878760008151811061145e57fe5b60200260200101518860018151811061147357fe5b60200260200101518960028151811061148857fe5b60200260200101518a60038151811061149d57fe5b60200260200101518a8a60405160200180828051906020019060200280838360005b838110156114d75781810151838201526020016114bf565b50505050905001915050604051602081830303815290604052805190602001208a60405160200180828051906020019060200280838360005b83811015611528578181015183820152602001611510565b5050505090500191505060405160208183030381529060405280519060200120604051602001808a6001600160a01b03166001600160a01b031660601b8152601401896001600160a01b03166001600160a01b031660601b81526014018881526020018781526020018681526020018581526020018481526020018381526020018281526020019950505050505050505050604051602081830303815290604052805190602001209050600760009054906101000a90046001600160a01b03166001600160a01b031663012847ed83836040518363ffffffff1660e01b81526004018080602001838152602001828103825284818151815260200191508051906020019080838360005b8381101561164a578181015183820152602001611632565b50505050905090810190601f1680156116775780820380516001836020036101000a031916815260200191505b50935050505060206040518083038186803b15801561169557600080fd5b505afa1580156116a9573d6000803e3d6000fd5b505050506040513d60208110156116bf57600080fd5b5051611712576040805162461bcd60e51b815260206004820152600c60248201527f494e56414c49445f415554480000000000000000000000000000000000000000604482015290519081900360640190fd5b60006117738760008151811061172457fe5b60200260200101518860018151811061173957fe5b60200260200101518960028151811061174e57fe5b60200260200101518a60038151811061176357fe5b60200260200101518c8b8b611f25565b905061177f8482611fca565b610fd1576040805162461bcd60e51b815260206004820152600c60248201527f494e56414c49445f4c414e440000000000000000000000000000000000000000604482015290519081900360640190fd5b60006117dc8484612095565b60065490915061181b908590839085906001600160a01b03167f00000000000000000000000000000000000000000000000000000000000000006121ee565b50505050565b8060028151811061182e57fe5b60200260200101516001148061186b57507f00000000000000000000000000000000000000000000000000000000000000006001600160a01b0316155b1561196d577f00000000000000000000000000000000000000000000000000000000000000006001600160a01b0316636e1e3bbf83836002815181106118ad57fe5b6020026020010151846000815181106118c257fe5b6020026020010151856001815181106118d757fe5b60200260200101516040518563ffffffff1660e01b815260040180856001600160a01b03166001600160a01b031681526020018481526020018381526020018281526020018060200182810382526000815260200160200195505050505050600060405180830381600087803b15801561195057600080fd5b505af1158015611964573d6000803e3d6000fd5b50505050611b0d565b7f00000000000000000000000000000000000000000000000000000000000000006001600160a01b0316636e1e3bbf7f0000000000000000000000000000000000000000000000000000000000000000836002815181106119ca57fe5b6020026020010151846000815181106119df57fe5b6020026020010151856001815181106119f457fe5b60200260200101518760405160200180826001600160a01b03166001600160a01b031681526020019150506040516020818303038152906040526040518663ffffffff1660e01b815260040180866001600160a01b03166001600160a01b0316815260200185815260200184815260200183815260200180602001828103825283818151815260200191508051906020019080838360005b83811015611aa4578181015183820152602001611a8c565b50505050905090810190601f168015611ad15780820380516001836020036101000a031916815260200191505b509650505050505050600060405180830381600087803b158015611af457600080fd5b505af1158015611b08573d6000803e3d6000fd5b505050505b61019881600181518110611b1d57fe5b60200260200101510281600081518110611b3357fe5b602002602001015101826001600160a01b0316846001600160a01b03167fe4dfa6ac11314892f3029b34a25b1a887da3b1cab2bbf8506d87128ba6e3ac0284600281518110611b7e57fe5b602002602001015185600381518110611b9357fe5b60200260200101517f000000000000000000000000000000000000000000000000000000000000000087600381518110611bc957fe5b602002602001015160405180858152602001848152602001836001600160a01b03166001600160a01b0316815260200182815260200194505050505060405180910390a4505050565b6060815167ffffffffffffffff81118015611c2c57600080fd5b50604051908082528060200260200182016040528015611c56578160200160208202803683370190505b50905060005b8251811015611c86576001828281518110611c7357fe5b6020908102919091010152600101611c5c565b507f00000000000000000000000000000000000000000000000000000000000000006001600160a01b0316632eb2c2d6308585856040518563ffffffff1660e01b815260040180856001600160a01b03166001600160a01b03168152602001846001600160a01b03166001600160a01b03168152602001806020018060200180602001848103845286818151815260200191508051906020019060200280838360005b83811015611d41578181015183820152602001611d29565b50505050905001848103835285818151815260200191508051906020019060200280838360005b83811015611d80578181015183820152602001611d68565b50505050905001848103825260008152602001602001975050505050505050600060405180830381600087803b158015611db957600080fd5b505af1158015611dcd573d6000803e3d6000fd5b50505050505050565b6001600160a01b03821660008181526001602090815260409182902080547fffffffffffffffffffffffffffffffffffffffffffffffffffffffffffffff001685151590811790915582519384529083015280517fb21eb88b4e33b3f1281830a7178d74d8aa73220416215726b68ae23d539515cb9281900390910190a15050565b60008151604114611e6857600080fd5b60208201516040830151606084015160001a601b811015611e8757601b015b8060ff16601b1480611e9c57508060ff16601c145b611ea557600080fd5b6040805160008152602080820180845289905260ff8416828401526060820186905260808201859052915160019260a0808401939192601f1981019281900390910190855afa158015611efc573d6000803e3d6000fd5b5050604051601f1901519450506001600160a01b038416611f1c57600080fd5b50505092915050565b60008787878787878760405160200180888152602001878152602001868152602001858152602001846001600160a01b03166001600160a01b031660601b8152601401838152602001828051906020019060200280838360005b83811015611f97578181015183820152602001611f7f565b50505050905001975050505050505050604051602081830303815290604052805190602001209050979650505050505050565b600081815b8451811015612069576000858281518110611fe657fe5b602002602001015190508083101561202e5782816040516020018083815260200182815260200192505050604051602081830303815290604052805190602001209250612060565b808360405160200180838152602001828152602001925050506040516020818303038152906040528051906020012092505b50600101611fcf565b507f00000000000000000000000000000000000000000000000000000000000000001490505b92915050565b6000806120ba60646120ae85600563ffffffff61247016565b9063ffffffff6124e016565b604080516323b872dd60e01b81526001600160a01b0387811660048301527f0000000000000000000000000000000000000000000000000000000000000000811660248301526044820184905291519293507f0000000000000000000000000000000000000000000000000000000000000000909116916323b872dd916064808201926020929091908290030181600087803b15801561215957600080fd5b505af115801561216d573d6000803e3d6000fd5b505050506040513d602081101561218357600080fd5b50516121d6576040805162461bcd60e51b815260206004820152601360248201527f4645455f5452414e534645525f4641494c454400000000000000000000000000604482015290519081900360640190fd5b6121e6838263ffffffff61254516565b949350505050565b8251819085901561239857606060008060008061220a8a610c0a565b939850919650945092509050600061222586868686866110f2565b156122b35761223f6122378d84612470565b6127106124e0565b9050886001600160a01b0316846001600160a01b0316866001600160a01b03167fac7a699eb95c3c6d390ec4626de17ef9a67b35891efdb197beba7c7fdd45fac48f858760405180848152602001838152602001828152602001935050505060405180910390a46122b08782612545565b96505b801561239157604080516323b872dd60e01b81526001600160a01b038f811660048301528781166024830152604482018490529151918a16916323b872dd916064808201926020929091908290030181600087803b15801561231457600080fd5b505af1158015612328573d6000803e3d6000fd5b505050506040513d602081101561233e57600080fd5b5051612391576040805162461bcd60e51b815260206004820152601960248201527f636f6d6d6973696f6e207472616e73666572206661696c656400000000000000604482015290519081900360640190fd5b5050505050505b604080516323b872dd60e01b81526001600160a01b0389811660048301528681166024830152604482018490529151918416916323b872dd916064808201926020929091908290030181600087803b1580156123f357600080fd5b505af1158015612407573d6000803e3d6000fd5b505050506040513d602081101561241d57600080fd5b5051611dcd576040805162461bcd60e51b815260206004820152601760248201527f7061796d656e74207472616e73666572206661696c6564000000000000000000604482015290519081900360640190fd5b60008261247f5750600061208f565b508181028183828161248d57fe5b041461208f576040805162461bcd60e51b815260206004820152600860248201527f6f766572666c6f77000000000000000000000000000000000000000000000000604482015290519081900360640190fd5b600081612534576040805162461bcd60e51b815260206004820152600960248201527f64697662797a65726f0000000000000000000000000000000000000000000000604482015290519081900360640190fd5b81838161253d57fe5b049392505050565b60008282111561259c576040805162461bcd60e51b815260206004820152600860248201527f756e6465666c6f77000000000000000000000000000000000000000000000000604482015290519081900360640190fd5b5090039056fe6f6e6c792061646d696e2063616e207365747570206d6574615472616e73616374696f6e50726f636573736f7273a2646970667358221220fc9205bafc138c1de206481f144dc3e7818922fbe1a20d2a71392e5e2e413c1a64736f6c63430006050033",
  "devdoc": {
    "methods": {
      "buyLandWithSand(address,address,address,uint256[],bytes32,uint256[],bytes32[],bytes,bytes)": {
        "params": {
          "buyer": "address that perform the payment",
          "info": "[X_INDEX=0] x coordinate of the Land [Y_INDEX=1] y coordinate of the Land [SIZE_INDEX=2] size of the pack of Land to purchase [PRICE_INDEX=3] price in SAND to purchase that Land",
          "proof": "merkleProof for that particular Land",
          "reserved": "the reserved address (if any)",
          "to": "address that will own the purchased Land"
        }
      },
      "changeAdmin(address)": {
        "details": "change the administrator to be `newAdmin`.",
        "params": {
          "newAdmin": "address of the new administrator."
        }
      },
      "getAdmin()": {
        "details": "gives the current administrator of this contract.",
        "returns": {
          "_0": "the current administrator of this contract."
        }
      },
      "getSigningWallet()": {
        "details": "signing wallet authorized for referral",
        "returns": {
          "_0": "the address of the signing wallet"
        }
      },
      "isMetaTransactionProcessor(address)": {
        "details": "check whether address `who` is given meta-transaction execution rights.",
        "params": {
          "who": "The address to query."
        },
        "returns": {
          "_0": "whether the address has meta-transaction execution rights."
        }
      },
      "isReferralValid(bytes,address,address,uint256,uint256)": {
        "params": {
          "commissionRate": "The commissionRate of the referral",
          "expiryTime": "The expiry time of the referral",
          "referee": "The address of the referee",
          "referrer": "The address of the referrer",
          "signature": "The signature to check (signed referral)"
        },
        "returns": {
          "_0": "True if the referral is valid"
        }
      },
      "setMetaTransactionProcessor(address,bool)": {
        "details": "Enable or disable the ability of `metaTransactionProcessor` to perform meta-tx (metaTransactionProcessor rights).",
        "params": {
          "enabled": "set whether the metaTransactionProcessor is enabled or disabled.",
          "metaTransactionProcessor": "address that will be given/removed metaTransactionProcessor rights."
        }
      },
      "setReceivingWallet(address)": {
        "params": {
          "newWallet": "address of the new receiving wallet"
        }
      },
      "updateMaxCommissionRate(uint256)": {
        "details": "Update the maximum commission rate",
        "params": {
          "newMaxCommissionRate": "The new maximum commission rate"
        }
      },
      "updateSigningWallet(address)": {
        "details": "Update the signing wallet",
        "params": {
          "newSigningWallet": "The new address of the signing wallet"
        }
      },
      "withdrawAssets(address,uint256[],uint256[])": {
        "params": {
          "assetIds": "the assetIds to be transferred",
          "to": "intended recipient of the asset tokens",
          "values": "the quantities of the assetIds to be transferred"
        }
      }
    },
    "title": "Estate Sale contract with referral"
  },
  "userdoc": {
    "methods": {
      "buyLandWithSand(address,address,address,uint256[],bytes32,uint256[],bytes32[],bytes,bytes)": {
        "notice": "buy Land with SAND using the merkle proof associated with it"
      },
      "getExpiryTime()": {
        "notice": "Gets the expiry time for the current sale"
      },
      "getMaxCommisionRate()": {
        "notice": "the max commision rate"
      },
      "getMerkleRoot()": {
        "notice": "Gets the Merkle root associated with the current sale"
      },
      "isReferralValid(bytes,address,address,uint256,uint256)": {
        "notice": "Check if a referral is valid"
      },
      "setReceivingWallet(address)": {
        "notice": "set the wallet receiving the proceeds"
      },
      "withdrawAssets(address,uint256[],uint256[])": {
        "notice": "enable Admin to withdraw remaining assets from EstateSaleWithFee contract"
      }
    },
    "notice": "This contract manages the sale of our lands as Estates"
  },
  "storageLayout": {
    "storage": [
      {
        "astId": 13650,
        "contract": "src/solc_0.6/EstateSale/EstateSaleWithAuth.sol:EstateSaleWithAuth",
        "label": "_admin",
        "offset": 0,
        "slot": "0",
        "type": "t_address"
      },
      {
        "astId": 13712,
        "contract": "src/solc_0.6/EstateSale/EstateSaleWithAuth.sol:EstateSaleWithAuth",
        "label": "_metaTransactionContracts",
        "offset": 0,
        "slot": "1",
        "type": "t_mapping(t_address,t_bool)"
      },
      {
        "astId": 11828,
        "contract": "src/solc_0.6/EstateSale/EstateSaleWithAuth.sol:EstateSaleWithAuth",
        "label": "_signingWallet",
        "offset": 0,
        "slot": "2",
        "type": "t_address"
      },
      {
        "astId": 11830,
        "contract": "src/solc_0.6/EstateSale/EstateSaleWithAuth.sol:EstateSaleWithAuth",
        "label": "_maxCommissionRate",
        "offset": 0,
        "slot": "3",
        "type": "t_uint256"
      },
      {
        "astId": 11834,
        "contract": "src/solc_0.6/EstateSale/EstateSaleWithAuth.sol:EstateSaleWithAuth",
        "label": "_previousSigningWallets",
        "offset": 0,
        "slot": "4",
        "type": "t_mapping(t_address,t_uint256)"
      },
      {
        "astId": 11843,
        "contract": "src/solc_0.6/EstateSale/EstateSaleWithAuth.sol:EstateSaleWithAuth",
        "label": "_previousSigningDelay",
        "offset": 0,
        "slot": "5",
        "type": "t_uint256"
      },
      {
        "astId": 7453,
        "contract": "src/solc_0.6/EstateSale/EstateSaleWithAuth.sol:EstateSaleWithAuth",
        "label": "_wallet",
        "offset": 0,
        "slot": "6",
        "type": "t_address_payable"
      },
      {
        "astId": 7455,
        "contract": "src/solc_0.6/EstateSale/EstateSaleWithAuth.sol:EstateSaleWithAuth",
        "label": "_authValidator",
        "offset": 0,
        "slot": "7",
        "type": "t_contract(AuthValidator)6784"
      }
    ],
    "types": {
      "t_address": {
        "encoding": "inplace",
        "label": "address",
        "numberOfBytes": "20"
      },
      "t_address_payable": {
        "encoding": "inplace",
        "label": "address payable",
        "numberOfBytes": "20"
      },
      "t_bool": {
        "encoding": "inplace",
        "label": "bool",
        "numberOfBytes": "1"
      },
      "t_contract(AuthValidator)6784": {
        "encoding": "inplace",
        "label": "contract AuthValidator",
        "numberOfBytes": "20"
      },
      "t_mapping(t_address,t_bool)": {
        "encoding": "mapping",
        "key": "t_address",
        "label": "mapping(address => bool)",
        "numberOfBytes": "32",
        "value": "t_bool"
      },
      "t_mapping(t_address,t_uint256)": {
        "encoding": "mapping",
        "key": "t_address",
        "label": "mapping(address => uint256)",
        "numberOfBytes": "32",
        "value": "t_uint256"
      },
      "t_uint256": {
        "encoding": "inplace",
        "label": "uint256",
        "numberOfBytes": "32"
      }
    }
  }
}