{
  "address": "0x587741a8E98FffD1feff62D70C2244D712A8B43E",
  "abi": [
    {
      "inputs": [
        {
          "internalType": "address",
          "name": "landAddress",
          "type": "address"
        },
        {
          "internalType": "address",
          "name": "sandContractAddress",
          "type": "address"
        },
        {
          "internalType": "address",
          "name": "initialMetaTx",
          "type": "address"
        },
        {
          "internalType": "address",
          "name": "admin",
          "type": "address"
        },
        {
          "internalType": "address payable",
          "name": "initialWalletAddress",
          "type": "address"
        },
        {
          "internalType": "bytes32",
          "name": "merkleRoot",
          "type": "bytes32"
        },
        {
          "internalType": "uint256",
          "name": "expiryTime",
          "type": "uint256"
        },
        {
          "internalType": "address",
          "name": "initialSigningWallet",
          "type": "address"
        },
        {
          "internalType": "uint256",
          "name": "initialMaxCommissionRate",
          "type": "uint256"
        },
        {
          "internalType": "address",
          "name": "estate",
          "type": "address"
        },
        {
          "internalType": "address",
          "name": "asset",
          "type": "address"
        },
        {
          "internalType": "address",
          "name": "feeDistributor",
          "type": "address"
        }
      ],
      "stateMutability": "nonpayable",
      "type": "constructor"
    },
    {
      "anonymous": false,
      "inputs": [
        {
          "indexed": false,
          "internalType": "address",
          "name": "oldAdmin",
          "type": "address"
        },
        {
          "indexed": false,
          "internalType": "address",
          "name": "newAdmin",
          "type": "address"
        }
      ],
      "name": "AdminChanged",
      "type": "event"
    },
    {
      "anonymous": false,
      "inputs": [
        {
          "indexed": true,
          "internalType": "address",
          "name": "buyer",
          "type": "address"
        },
        {
          "indexed": true,
          "internalType": "address",
          "name": "to",
          "type": "address"
        },
        {
          "indexed": true,
          "internalType": "uint256",
          "name": "topCornerId",
          "type": "uint256"
        },
        {
          "indexed": false,
          "internalType": "uint256",
          "name": "size",
          "type": "uint256"
        },
        {
          "indexed": false,
          "internalType": "uint256",
          "name": "price",
          "type": "uint256"
        },
        {
          "indexed": false,
          "internalType": "address",
          "name": "token",
          "type": "address"
        },
        {
          "indexed": false,
          "internalType": "uint256",
          "name": "amountPaid",
          "type": "uint256"
        }
      ],
      "name": "LandQuadPurchased",
      "type": "event"
    },
    {
      "anonymous": false,
      "inputs": [
        {
          "indexed": false,
          "internalType": "address",
          "name": "metaTransactionProcessor",
          "type": "address"
        },
        {
          "indexed": false,
          "internalType": "bool",
          "name": "enabled",
          "type": "bool"
        }
      ],
      "name": "MetaTransactionProcessor",
      "type": "event"
    },
    {
      "anonymous": false,
      "inputs": [
        {
          "indexed": true,
          "internalType": "address",
          "name": "referrer",
          "type": "address"
        },
        {
          "indexed": true,
          "internalType": "address",
          "name": "referee",
          "type": "address"
        },
        {
          "indexed": true,
          "internalType": "address",
          "name": "token",
          "type": "address"
        },
        {
          "indexed": false,
          "internalType": "uint256",
          "name": "amount",
          "type": "uint256"
        },
        {
          "indexed": false,
          "internalType": "uint256",
          "name": "commission",
          "type": "uint256"
        },
        {
          "indexed": false,
          "internalType": "uint256",
          "name": "commissionRate",
          "type": "uint256"
        }
      ],
      "name": "ReferralUsed",
      "type": "event"
    },
    {
      "inputs": [
        {
          "internalType": "address",
          "name": "buyer",
          "type": "address"
        },
        {
          "internalType": "address",
          "name": "to",
          "type": "address"
        },
        {
          "internalType": "address",
          "name": "reserved",
          "type": "address"
        },
        {
          "internalType": "uint256",
          "name": "x",
          "type": "uint256"
        },
        {
          "internalType": "uint256",
          "name": "y",
          "type": "uint256"
        },
        {
          "internalType": "uint256",
          "name": "size",
          "type": "uint256"
        },
        {
          "internalType": "uint256",
          "name": "priceInSand",
          "type": "uint256"
        },
        {
          "internalType": "uint256",
          "name": "adjustedPriceInSand",
          "type": "uint256"
        },
        {
          "internalType": "bytes32",
          "name": "salt",
          "type": "bytes32"
        },
        {
          "internalType": "uint256[]",
          "name": "assetIds",
          "type": "uint256[]"
        },
        {
          "internalType": "bytes32[]",
          "name": "proof",
          "type": "bytes32[]"
        },
        {
          "internalType": "bytes",
          "name": "referral",
          "type": "bytes"
        }
      ],
      "name": "buyLandWithSand",
      "outputs": [],
      "stateMutability": "nonpayable",
      "type": "function"
    },
    {
      "inputs": [
        {
          "internalType": "address",
          "name": "newAdmin",
          "type": "address"
        }
      ],
      "name": "changeAdmin",
      "outputs": [],
      "stateMutability": "nonpayable",
      "type": "function"
    },
    {
      "inputs": [
        {
          "internalType": "bytes",
          "name": "referral",
          "type": "bytes"
        }
      ],
      "name": "decodeReferral",
      "outputs": [
        {
          "internalType": "bytes",
          "name": "",
          "type": "bytes"
        },
        {
          "internalType": "address",
          "name": "",
          "type": "address"
        },
        {
          "internalType": "address",
          "name": "",
          "type": "address"
        },
        {
          "internalType": "uint256",
          "name": "",
          "type": "uint256"
        },
        {
          "internalType": "uint256",
          "name": "",
          "type": "uint256"
        }
      ],
      "stateMutability": "pure",
      "type": "function"
    },
    {
      "inputs": [],
      "name": "getAdmin",
      "outputs": [
        {
          "internalType": "address",
          "name": "",
          "type": "address"
        }
      ],
      "stateMutability": "view",
      "type": "function"
    },
    {
      "inputs": [],
      "name": "getExpiryTime",
      "outputs": [
        {
          "internalType": "uint256",
          "name": "",
          "type": "uint256"
        }
      ],
      "stateMutability": "view",
      "type": "function"
    },
    {
      "inputs": [],
      "name": "getMaxCommisionRate",
      "outputs": [
        {
          "internalType": "uint256",
          "name": "",
          "type": "uint256"
        }
      ],
      "stateMutability": "view",
      "type": "function"
    },
    {
      "inputs": [],
      "name": "getMerkleRoot",
      "outputs": [
        {
          "internalType": "bytes32",
          "name": "",
          "type": "bytes32"
        }
      ],
      "stateMutability": "view",
      "type": "function"
    },
    {
      "inputs": [],
      "name": "getSandMultiplier",
      "outputs": [
        {
          "internalType": "uint256",
          "name": "",
          "type": "uint256"
        }
      ],
      "stateMutability": "view",
      "type": "function"
    },
    {
      "inputs": [],
      "name": "getSigningWallet",
      "outputs": [
        {
          "internalType": "address",
          "name": "",
          "type": "address"
        }
      ],
      "stateMutability": "view",
      "type": "function"
    },
    {
      "inputs": [
        {
          "internalType": "address",
          "name": "who",
          "type": "address"
        }
      ],
      "name": "isMetaTransactionProcessor",
      "outputs": [
        {
          "internalType": "bool",
          "name": "",
          "type": "bool"
        }
      ],
      "stateMutability": "view",
      "type": "function"
    },
    {
      "inputs": [
        {
          "internalType": "bytes",
          "name": "signature",
          "type": "bytes"
        },
        {
          "internalType": "address",
          "name": "referrer",
          "type": "address"
        },
        {
          "internalType": "address",
          "name": "referee",
          "type": "address"
        },
        {
          "internalType": "uint256",
          "name": "expiryTime",
          "type": "uint256"
        },
        {
          "internalType": "uint256",
          "name": "commissionRate",
          "type": "uint256"
        }
      ],
      "name": "isReferralValid",
      "outputs": [
        {
          "internalType": "bool",
          "name": "",
          "type": "bool"
        }
      ],
      "stateMutability": "view",
      "type": "function"
    },
    {
      "inputs": [
        {
          "internalType": "address",
          "name": "",
          "type": "address"
        },
        {
          "internalType": "address",
          "name": "",
          "type": "address"
        },
        {
          "internalType": "uint256[]",
          "name": "",
          "type": "uint256[]"
        },
        {
          "internalType": "uint256[]",
          "name": "",
          "type": "uint256[]"
        },
        {
          "internalType": "bytes",
          "name": "",
          "type": "bytes"
        }
      ],
      "name": "onERC1155BatchReceived",
      "outputs": [
        {
          "internalType": "bytes4",
          "name": "",
          "type": "bytes4"
        }
      ],
      "stateMutability": "pure",
      "type": "function"
    },
    {
      "inputs": [
        {
          "internalType": "address",
          "name": "",
          "type": "address"
        },
        {
          "internalType": "address",
          "name": "",
          "type": "address"
        },
        {
          "internalType": "uint256",
          "name": "",
          "type": "uint256"
        },
        {
          "internalType": "uint256",
          "name": "",
          "type": "uint256"
        },
        {
          "internalType": "bytes",
          "name": "",
          "type": "bytes"
        }
      ],
      "name": "onERC1155Received",
      "outputs": [
        {
          "internalType": "bytes4",
          "name": "",
          "type": "bytes4"
        }
      ],
      "stateMutability": "pure",
      "type": "function"
    },
    {
      "inputs": [
        {
          "internalType": "uint256",
          "name": "newMultiplier",
          "type": "uint256"
        }
      ],
      "name": "rebalanceSand",
      "outputs": [],
      "stateMutability": "nonpayable",
      "type": "function"
    },
    {
      "inputs": [
        {
          "internalType": "address",
          "name": "metaTransactionProcessor",
          "type": "address"
        },
        {
          "internalType": "bool",
          "name": "enabled",
          "type": "bool"
        }
      ],
      "name": "setMetaTransactionProcessor",
      "outputs": [],
      "stateMutability": "nonpayable",
      "type": "function"
    },
    {
      "inputs": [
        {
          "internalType": "address payable",
          "name": "newWallet",
          "type": "address"
        }
      ],
      "name": "setReceivingWallet",
      "outputs": [],
      "stateMutability": "nonpayable",
      "type": "function"
    },
    {
      "inputs": [
        {
          "internalType": "uint256",
          "name": "newMaxCommissionRate",
          "type": "uint256"
        }
      ],
      "name": "updateMaxCommissionRate",
      "outputs": [],
      "stateMutability": "nonpayable",
      "type": "function"
    },
    {
      "inputs": [
        {
          "internalType": "address",
          "name": "newSigningWallet",
          "type": "address"
        }
      ],
      "name": "updateSigningWallet",
      "outputs": [],
      "stateMutability": "nonpayable",
      "type": "function"
    },
    {
      "inputs": [
        {
          "internalType": "address",
          "name": "to",
          "type": "address"
        },
        {
          "internalType": "uint256[]",
          "name": "assetIds",
          "type": "uint256[]"
        },
        {
          "internalType": "uint256[]",
          "name": "values",
          "type": "uint256[]"
        }
      ],
      "name": "withdrawAssets",
      "outputs": [],
      "stateMutability": "nonpayable",
      "type": "function"
    }
  ],
  "transactionHash": "0x178346d14d05c055265372e64a0cadef2afe984bfb5bef64d172d085b93c1e9f",
  "args": [
    "0x50f5474724e0Ee42D9a4e711ccFB275809Fd6d4a",
    "0x3845badAde8e6dFF049820680d1F14bD3903a5d0",
    "0x3845badAde8e6dFF049820680d1F14bD3903a5d0",
    "0xEAA0993E1d21c2103e4f172a20D29371FbAF6D06",
    "0x4489590a116618B506F0EfE885432F6A8ED998E9",
    "0xb9573844f8d613ec60745128b5db3f00f3339924595b06da7e15cd6d298f5030",
    1627563600,
    "0x3044719d139F866a44c988823513eCB93060bF1b",
    2000,
    "0x0000000000000000000000000000000000000000",
    "0xa342f5D851E866E18ff98F351f2c6637f4478dB5",
    "0x0EB04462D69B1D267d269377E34f60b9De1c8510"
  ],
  "linkedData": [
    {
      "x": 212,
      "y": 402,
      "size": 1,
      "price": "1011000000000000000000",
      "reserved": "0x7a9fe22691c811ea339d9b73150e6911a5343dca",
      "salt": "0xb159c2bdaf57ff529be00bca2ea0922ecd5a7de0417d36f5110d55e2cfd911b1",
      "assetIds": []
    },
    {
      "x": 212,
      "y": 403,
      "size": 1,
      "price": "1011000000000000000000",
      "reserved": "",
      "salt": "0xce9fedb403189f3bc948f0a7340b06dcb90a959c62a7080a9ab46f923c9b5dd4",
      "assetIds": []
    },
    {
      "x": 212,
      "y": 404,
      "size": 1,
      "price": "1011000000000000000000",
      "reserved": "",
      "salt": "0x777737683c5c988ad5ae40dd77881464ddf640b8946707036c6983878949705f",
      "assetIds": []
    },
    {
      "x": 212,
      "y": 405,
      "size": 1,
      "price": "1011000000000000000000",
      "reserved": "",
      "salt": "0x19f074fcdce643e322c97696bbd1ddc38b83a73d217de6f91d0985a1a4aaa848",
      "assetIds": []
    },
    {
      "x": 212,
      "y": 406,
      "size": 1,
      "price": "1011000000000000000000",
      "reserved": "",
      "salt": "0x674d221d18c9aeba0c1acbc37e3038175640a0326cf65e14791875adfdd959ef",
      "assetIds": []
    },
    {
      "x": 212,
      "y": 407,
      "size": 1,
      "price": "1011000000000000000000",
      "reserved": "",
      "salt": "0x10e08a6e1df74323b36cd10d496f4b9e09cd1ff6278b3f6bafba3dca119de64d",
      "assetIds": []
    },
    {
      "x": 213,
      "y": 401,
      "size": 1,
      "price": "1011000000000000000000",
      "reserved": "",
      "salt": "0x077fd76a0cd9191a8076d498a5f3f28d6ce6ebd8e95fc65223e77c50bdbdb9f1",
      "assetIds": []
    },
    {
      "x": 213,
      "y": 402,
      "size": 1,
      "price": "1011000000000000000000",
      "reserved": "",
      "salt": "0x3139b179a08fda298834b5b3e12805168cf27376bc649f88c98fca70cc40bae7",
      "assetIds": []
    },
    {
      "x": 213,
      "y": 403,
      "size": 1,
      "price": "1011000000000000000000",
      "reserved": "",
      "salt": "0xc2695118f7a53c48dfa1c946ca42bb75317ccf62b391889a93b73e47bee67288",
      "assetIds": []
    },
    {
      "x": 213,
      "y": 404,
      "size": 1,
      "price": "1011000000000000000000",
      "reserved": "",
      "salt": "0xdf9367435693cff589b1529d4f97089ebe6d91b82bd410f6293f1b64909427aa",
      "assetIds": []
    },
    {
      "x": 213,
      "y": 405,
      "size": 1,
      "price": "1011000000000000000000",
      "reserved": "",
      "salt": "0xd2ecb7f8f8e46a5435b85b971375e2c727d9be42e273727e966238c457975498",
      "assetIds": []
    },
    {
      "x": 213,
      "y": 406,
      "size": 1,
      "price": "1011000000000000000000",
      "reserved": "",
      "salt": "0xa2393d39ae01afba5428f4da445ba1bc6f4fc80ed5f1cf5ee22ec516d6ffd075",
      "assetIds": []
    },
    {
      "x": 213,
      "y": 407,
      "size": 1,
      "price": "1011000000000000000000",
      "reserved": "0x7a9fe22691c811ea339d9b73150e6911a5343dca",
      "salt": "0x2be7658e07fdcc942684ada4f46a8cbb131a113bf7a0fc3016af7887b3a569f1",
      "assetIds": []
    },
    {
      "x": 214,
      "y": 400,
      "size": 1,
      "price": "1011000000000000000000",
      "reserved": "",
      "salt": "0x931b109602a19da770fc1aa9859faedf22393f4e19ed956bec319f3fb9d91732",
      "assetIds": []
    },
    {
      "x": 214,
      "y": 401,
      "size": 1,
      "price": "1011000000000000000000",
      "reserved": "",
      "salt": "0x18166b866b3f5f0ed708dc9f98706fd48acabd2d8c422a6f353def878e99a525",
      "assetIds": []
    },
    {
      "x": 214,
      "y": 402,
      "size": 1,
      "price": "1011000000000000000000",
      "reserved": "",
      "salt": "0x9dc8446ef22d0b3dcc09cb9c59dea08ed35c73209a871800ac603f3b20b1634c",
      "assetIds": []
    },
    {
      "x": 214,
      "y": 403,
      "size": 1,
      "price": "1011000000000000000000",
      "reserved": "",
      "salt": "0xd43748817a3853f1b6fcfc35a3fe1fe8d10a41ef2a634a13f450c148b2789a9e",
      "assetIds": []
    },
    {
      "x": 214,
      "y": 404,
      "size": 1,
      "price": "1011000000000000000000",
      "reserved": "",
      "salt": "0x8afe3bc9869b8864783248bcb288e7d2826c2fb9956e90601048d219495100b3",
      "assetIds": []
    },
    {
      "x": 214,
      "y": 405,
      "size": 1,
      "price": "1011000000000000000000",
      "reserved": "",
      "salt": "0x0d33817a424ee1f0ad2c81a681bc5a2946628fd37bd1d19b9494a680cadbac21",
      "assetIds": []
    },
    {
      "x": 214,
      "y": 406,
      "size": 1,
      "price": "1011000000000000000000",
      "reserved": "",
      "salt": "0x9420fe89e525c6aa9312939b223590cedd80b8749f36b2228ab8b87cfab9e2c3",
      "assetIds": []
    },
    {
      "x": 214,
      "y": 407,
      "size": 1,
      "price": "1011000000000000000000",
      "reserved": "",
      "salt": "0xb95c18cdc69e2ff24c734040fa01623c612568fa95d7ca2319c82914bf0e30b2",
      "assetIds": []
    },
    {
      "x": 215,
      "y": 400,
      "size": 1,
      "price": "1011000000000000000000",
      "reserved": "",
      "salt": "0x308968bbe11bf62113ecfed707455dbb51806e240b982d5f046001221e62f0c2",
      "assetIds": []
    },
    {
      "x": 215,
      "y": 401,
      "size": 1,
      "price": "1011000000000000000000",
      "reserved": "",
      "salt": "0xe4ee7e3c8bde99390c60e7987c13d1586f9061c537ea0f6663a699ff21651b51",
      "assetIds": []
    },
    {
      "x": 215,
      "y": 402,
      "size": 1,
      "price": "1011000000000000000000",
      "reserved": "",
      "salt": "0xfa81cdc4b1c82227c25bb233bfb8c430a141b13d2456236af9179709d065a7b1",
      "assetIds": []
    },
    {
      "x": 215,
      "y": 403,
      "size": 1,
      "price": "1011000000000000000000",
      "reserved": "",
      "salt": "0x7f3f67dccde9ffbb83da2ec1b9ddf42b4174aa314a6f1d90211a890a6bb104a8",
      "assetIds": []
    },
    {
      "x": 215,
      "y": 404,
      "size": 1,
      "price": "1011000000000000000000",
      "reserved": "",
      "salt": "0xdfa751e43c7ab38e2f56776f170537e53e580edb3a6bd13f61998e39bd748247",
      "assetIds": []
    },
    {
      "x": 215,
      "y": 405,
      "size": 1,
      "price": "1011000000000000000000",
      "reserved": "0x7a9fe22691c811ea339d9b73150e6911a5343dca",
      "salt": "0x69e3353ad31f3632f028d24294229623b6f5981a0d0500698ea2ccfc2dbc4fd7",
      "assetIds": []
    },
    {
      "x": 215,
      "y": 406,
      "size": 1,
      "price": "1011000000000000000000",
      "reserved": "",
      "salt": "0xe3b406ebc6e29e08bf41cb2c9398cdcce0b2cfeb576d3409a9d661ea6c88feac",
      "assetIds": []
    },
    {
      "x": 215,
      "y": 407,
      "size": 1,
      "price": "1011000000000000000000",
      "reserved": "",
      "salt": "0xd07900333a2043090da69d226b271705ec0a980ba18726b989dc93d2835a249c",
      "assetIds": []
    },
    {
      "x": 216,
      "y": 400,
      "size": 1,
      "price": "1011000000000000000000",
      "reserved": "",
      "salt": "0xe17fc7df3d907b19c454d1f30389bce0aefa4c7a66e2aa1276a70cb1dced215f",
      "assetIds": []
    },
    {
      "x": 216,
      "y": 401,
      "size": 1,
      "price": "1011000000000000000000",
      "reserved": "",
      "salt": "0xb4b11c1a1bf76a78a3438b1f4e29739965644be20b0ce24cc0d3ae60983f074f",
      "assetIds": []
    },
    {
      "x": 216,
      "y": 402,
      "size": 1,
      "price": "1011000000000000000000",
      "reserved": "",
      "salt": "0xc410f16ca755b1aa565cf58ca4d49a5e5cb69fecf60cf1699a64ea35b96ea7c9",
      "assetIds": []
    },
    {
      "x": 216,
      "y": 403,
      "size": 1,
      "price": "1011000000000000000000",
      "reserved": "",
      "salt": "0x9cb5d662d31e03ce06fdb97b339bcdf79fbdf88f826f34b666ec231ccdc436bb",
      "assetIds": []
    },
    {
      "x": 216,
      "y": 404,
      "size": 1,
      "price": "1011000000000000000000",
      "reserved": "",
      "salt": "0xd78c0909894e5dc094c7b4f61e939370817bdfcf9fe82ce6672ace10e20ed3a3",
      "assetIds": []
    },
    {
      "x": 216,
      "y": 405,
      "size": 1,
      "price": "1011000000000000000000",
      "reserved": "",
      "salt": "0xd2218a4da06f455252d339f00a37e307ddfece70e458ca403fab33f8792b5f49",
      "assetIds": []
    },
    {
      "x": 216,
      "y": 406,
      "size": 1,
      "price": "1011000000000000000000",
      "reserved": "",
      "salt": "0x60a87c855e0596977daa2331f93e523b9edddc70734f26d5d3a863dee753ac7d",
      "assetIds": []
    },
    {
      "x": 216,
      "y": 407,
      "size": 1,
      "price": "1011000000000000000000",
      "reserved": "",
      "salt": "0x1ec63a23427c1e9b9403a0228f4855e31167dd1f8c1e63f167cbc81b1c915503",
      "assetIds": []
    },
    {
      "x": 217,
      "y": 400,
      "size": 1,
      "price": "1011000000000000000000",
      "reserved": "",
      "salt": "0x9c6d22761037531b28e236141bd7f9de8119b3b47ae2ad7a62a27c8afeeff3f7",
      "assetIds": []
    },
    {
      "x": 217,
      "y": 401,
      "size": 1,
      "price": "1011000000000000000000",
      "reserved": "",
      "salt": "0x9e4d47a9b4ebdcc76b3dfab8edc207e5fc83867647be71f28a7047ae5e6d00bd",
      "assetIds": []
    },
    {
      "x": 217,
      "y": 402,
      "size": 1,
      "price": "1011000000000000000000",
      "reserved": "",
      "salt": "0x73925384bdb571f61d9b07362832db504508dc36fb4b35bacb98f745daef99a7",
      "assetIds": []
    },
    {
      "x": 217,
      "y": 403,
      "size": 1,
      "price": "1011000000000000000000",
      "reserved": "",
      "salt": "0x22c8682d7178ccd5cb6047ea32f75a1e828aad1754e8f11bf19bac882816f0b4",
      "assetIds": []
    },
    {
      "x": 217,
      "y": 404,
      "size": 1,
      "price": "1011000000000000000000",
      "reserved": "",
      "salt": "0x8556d773483c9f9e59e3bce95d949f47f0687a7e61e988965ee718136fa28dad",
      "assetIds": []
    },
    {
      "x": 217,
      "y": 405,
      "size": 1,
      "price": "1011000000000000000000",
      "reserved": "",
      "salt": "0xa96b5aa83ef760be3ddfe6442e31d0c3d012a54ab4ce1657e95ddf07ae709d7a",
      "assetIds": []
    },
    {
      "x": 217,
      "y": 406,
      "size": 1,
      "price": "1011000000000000000000",
      "reserved": "",
      "salt": "0x10f45866d3b83835c8b2923c5cbd9cde503925b1aaeab063da3da33c06b74141",
      "assetIds": []
    },
    {
      "x": 217,
      "y": 407,
      "size": 1,
      "price": "1011000000000000000000",
      "reserved": "",
      "salt": "0xfcd4571f66ed11af4020424870ec1e9dfd0ca89b32aef471bef7339788edb949",
      "assetIds": []
    },
    {
      "x": 218,
      "y": 400,
      "size": 1,
      "price": "1011000000000000000000",
      "reserved": "",
      "salt": "0xf70a3d1ab98f726020a4349ac71e911fa3611fca5656e9ad328430742b2403de",
      "assetIds": []
    },
    {
      "x": 218,
      "y": 401,
      "size": 1,
      "price": "1011000000000000000000",
      "reserved": "",
      "salt": "0x3724b6dae053fc8a4d3853963efa2f9d7eac68b77f8b6fe256ec51ff1d7ce47c",
      "assetIds": []
    },
    {
      "x": 218,
      "y": 402,
      "size": 1,
      "price": "1011000000000000000000",
      "reserved": "",
      "salt": "0xdacc7b329fa6d9c5bc5fa45dae3a14519cc6daf4efa34898eeaee7a6925bc53b",
      "assetIds": []
    },
    {
      "x": 218,
      "y": 403,
      "size": 1,
      "price": "1011000000000000000000",
      "reserved": "",
      "salt": "0x853780b265a92df8ae0581fa383d00faa409bf02fbe8fdc62be43973740fa7c8",
      "assetIds": []
    },
    {
      "x": 218,
      "y": 404,
      "size": 1,
      "price": "1011000000000000000000",
      "reserved": "",
      "salt": "0x864cc34da42ee647b819ae20bc04272cd073b1399b6b5e626be8a7c325f81d5e",
      "assetIds": []
    },
    {
      "x": 218,
      "y": 405,
      "size": 1,
      "price": "1011000000000000000000",
      "reserved": "",
      "salt": "0xb69196d916741b1ac023db61fe666c2609a8958f93d888b35ea3a87f50fc1b80",
      "assetIds": []
    },
    {
      "x": 218,
      "y": 406,
      "size": 1,
      "price": "1011000000000000000000",
      "reserved": "",
      "salt": "0x9411461295b5b90d9922b1dad465985bf33b12a0fbd98938e657095c761ea572",
      "assetIds": []
    },
    {
      "x": 218,
      "y": 407,
      "size": 1,
      "price": "1011000000000000000000",
      "reserved": "0x7a9fe22691c811ea339d9b73150e6911a5343dca",
      "salt": "0xe63e696a34783ac9a13f17706acf0011fc8898173c1d88d01417321c32655e0a",
      "assetIds": []
    },
    {
      "x": 219,
      "y": 400,
      "size": 1,
      "price": "1011000000000000000000",
      "reserved": "0x7a9fe22691c811ea339d9b73150e6911a5343dca",
      "salt": "0x714cc84a5594ec5f5e644aa7414417df79a84d9026b85d67a203770c67518475",
      "assetIds": []
    },
    {
      "x": 219,
      "y": 401,
      "size": 1,
      "price": "1011000000000000000000",
      "reserved": "",
      "salt": "0x903cdb52c048f1f6e40ce3b3c5eeabe5f42e93cb46271f929106adf2281e60de",
      "assetIds": []
    },
    {
      "x": 219,
      "y": 402,
      "size": 1,
      "price": "1011000000000000000000",
      "reserved": "",
      "salt": "0xd06c658587f8c28208f88445abba49b5ab2ad1afb21c168da9056645e718424e",
      "assetIds": []
    },
    {
      "x": 219,
      "y": 403,
      "size": 1,
      "price": "1011000000000000000000",
      "reserved": "",
      "salt": "0xa89c0362f584221f8eef3d36e34bbdd66859e08e6d42c0e3584de2275e2156f6",
      "assetIds": []
    },
    {
      "x": 219,
      "y": 404,
      "size": 1,
      "price": "1011000000000000000000",
      "reserved": "",
      "salt": "0x55ffe623110edf6339bede0a875f29ff48155e434230b342bc15e890300cc7c8",
      "assetIds": []
    },
    {
      "x": 219,
      "y": 405,
      "size": 1,
      "price": "1011000000000000000000",
      "reserved": "",
      "salt": "0x7cdacb6ea14fdf7b0ef1a832f4fd9e15d553ede0647e20d6250872a78927cbf3",
      "assetIds": []
    },
    {
      "x": 219,
      "y": 406,
      "size": 1,
      "price": "1011000000000000000000",
      "reserved": "",
      "salt": "0x988f7d95eca0619e1eecbdebd2b129324fa36ce459b0c8f20ad85f1623ceca4a",
      "assetIds": []
    },
    {
      "x": 219,
      "y": 407,
      "size": 1,
      "price": "1011000000000000000000",
      "reserved": "",
      "salt": "0x43473f2dbb09bfe4cfb78de45dba4a07df151e671a3204e89bcd8c161d8ce4b7",
      "assetIds": []
    },
    {
      "x": 220,
      "y": 393,
      "size": 1,
      "price": "1011000000000000000000",
      "reserved": "0x7a9fe22691c811ea339d9b73150e6911a5343dca",
      "salt": "0x5be42434aa445236fc25558c377bc026a699c6357e07c1b200afd4eac5403c1b",
      "assetIds": []
    },
    {
      "x": 220,
      "y": 394,
      "size": 1,
      "price": "1011000000000000000000",
      "reserved": "",
      "salt": "0xc57cde6a0daf66f7245e9405dcace9f53d7f7b7aa9ed647760e79865d95a6ba9",
      "assetIds": []
    },
    {
      "x": 220,
      "y": 395,
      "size": 1,
      "price": "1011000000000000000000",
      "reserved": "",
      "salt": "0x8b96aee881320c024806cae9bb1fc5d9bbfc6a6a074363640e80075a15fe4b8a",
      "assetIds": []
    },
    {
      "x": 220,
      "y": 396,
      "size": 1,
      "price": "1011000000000000000000",
      "reserved": "",
      "salt": "0x1c0625a7dab68f9ebde35a2711dd85987a6e1662b038059725eddc9e838e0c92",
      "assetIds": []
    },
    {
      "x": 220,
      "y": 397,
      "size": 1,
      "price": "1011000000000000000000",
      "reserved": "",
      "salt": "0xbfcfb945a78ea880e47e0ca898d3081a94ca31ec34ea2ce09f90517679fc93b2",
      "assetIds": []
    },
    {
      "x": 220,
      "y": 398,
      "size": 1,
      "price": "1011000000000000000000",
      "reserved": "",
      "salt": "0xc3fa8654890a9d248c3bc1ea2d6fceef25d03b78d42d778d597cc38cdd774120",
      "assetIds": []
    },
    {
      "x": 220,
      "y": 399,
      "size": 1,
      "price": "1011000000000000000000",
      "reserved": "",
      "salt": "0xd4427451faa4189c4aa039886838b02a28588cf1bc43161f862febc4b7cc7547",
      "assetIds": []
    },
    {
      "x": 220,
      "y": 400,
      "size": 1,
      "price": "1011000000000000000000",
      "reserved": "",
      "salt": "0x98510bb9c4adfb54bb4501a9355f9094b582fa7691cf8da72897b8ee72294065",
      "assetIds": []
    },
    {
      "x": 220,
      "y": 401,
      "size": 1,
      "price": "1011000000000000000000",
      "reserved": "",
      "salt": "0x5333ac5c7e81040d171683c254d8e71a6a9d324c9b392a3ee239d57d66feae69",
      "assetIds": []
    },
    {
      "x": 220,
      "y": 402,
      "size": 1,
      "price": "1011000000000000000000",
      "reserved": "",
      "salt": "0xcfc218a7be6be4163539a984b5ac4d5938d920f2ced557c334372fda6c0ed7e1",
      "assetIds": []
    },
    {
      "x": 220,
      "y": 403,
      "size": 1,
      "price": "1011000000000000000000",
      "reserved": "0x7a9fe22691c811ea339d9b73150e6911a5343dca",
      "salt": "0xc4060b97a26748543c785f4bbffa94deedec0f6bdad531cc35c53db9e332b2d3",
      "assetIds": []
    },
    {
      "x": 220,
      "y": 404,
      "size": 1,
      "price": "1011000000000000000000",
      "reserved": "",
      "salt": "0x2fee5ceeff1081899b1f96e8d5e189ddcc6979d479a13e25e0b32bc54f95a497",
      "assetIds": []
    },
    {
      "x": 220,
      "y": 405,
      "size": 1,
      "price": "1011000000000000000000",
      "reserved": "",
      "salt": "0x1c6f8afacc180f2803edd2a100e19015cbcab51c2784d991660fbcaf24d6a80f",
      "assetIds": []
    },
    {
      "x": 220,
      "y": 406,
      "size": 1,
      "price": "1011000000000000000000",
      "reserved": "",
      "salt": "0x29bec79d6af32cc592794c1758e9eec84bf19122152a078353e7cb6b05a6c862",
      "assetIds": []
    },
    {
      "x": 220,
      "y": 407,
      "size": 1,
      "price": "1011000000000000000000",
      "reserved": "",
      "salt": "0x3862cea3bcd7852eb7254d422537ddc8fa71b338e2993979027c2e39261f522f",
      "assetIds": []
    },
    {
      "x": 221,
      "y": 392,
      "size": 1,
      "price": "1011000000000000000000",
      "reserved": "0x7a9fe22691c811ea339d9b73150e6911a5343dca",
      "salt": "0x9dc3f12a96d4c529d50ad3d70c2c12c74bbfaca6fb064dd483d146403600e207",
      "assetIds": []
    },
    {
      "x": 221,
      "y": 393,
      "size": 1,
      "price": "1011000000000000000000",
      "reserved": "",
      "salt": "0xa37fbb303c09bf10f2c1780bee32806515b7ab38728729f4929ae65f10928910",
      "assetIds": []
    },
    {
      "x": 221,
      "y": 394,
      "size": 1,
      "price": "1011000000000000000000",
      "reserved": "",
      "salt": "0x67832bda366735f86c800567010488304e64d008c5699f7de253e6a1e585136d",
      "assetIds": []
    },
    {
      "x": 221,
      "y": 395,
      "size": 1,
      "price": "1011000000000000000000",
      "reserved": "",
      "salt": "0x082aa3c8d4975169d713fbff2606f3cd8d2c52c69260cc3fa51e7328a38ba7be",
      "assetIds": []
    },
    {
      "x": 221,
      "y": 396,
      "size": 1,
      "price": "1011000000000000000000",
      "reserved": "",
      "salt": "0x3f5a2f061fba0824c2da1ee590003ae7b7b229476bebc73de13e676a08490982",
      "assetIds": []
    },
    {
      "x": 221,
      "y": 397,
      "size": 1,
      "price": "1011000000000000000000",
      "reserved": "",
      "salt": "0x96be30d0e4a861d7c300c159cf7da2269cce57a35b1a409a49822607f3212342",
      "assetIds": []
    },
    {
      "x": 221,
      "y": 398,
      "size": 1,
      "price": "1011000000000000000000",
      "reserved": "",
      "salt": "0x019fa5a6074e78933a47fa33c40d62652685d8a477afdf4cd2768e130cb214e6",
      "assetIds": []
    },
    {
      "x": 221,
      "y": 399,
      "size": 1,
      "price": "1011000000000000000000",
      "reserved": "0x7a9fe22691c811ea339d9b73150e6911a5343dca",
      "salt": "0xec811b8f3c96f6d1664e646b1529ccaa691cf365a6cc3c2a741d639718161ac0",
      "assetIds": []
    },
    {
      "x": 221,
      "y": 400,
      "size": 1,
      "price": "1011000000000000000000",
      "reserved": "",
      "salt": "0x09afb814d5a65ddb798d48ecf67c6419e87f2efa239fb37fc89680612309ff48",
      "assetIds": []
    },
    {
      "x": 221,
      "y": 401,
      "size": 1,
      "price": "1011000000000000000000",
      "reserved": "",
      "salt": "0xd19cc5b2363e78c497bb6631e339310f9319551abf9295d4e48f8e2722f0d733",
      "assetIds": []
    },
    {
      "x": 221,
      "y": 402,
      "size": 1,
      "price": "1011000000000000000000",
      "reserved": "",
      "salt": "0x3197f39e020e0ef53cb6e417d1c67b7978a0986a1f1a6751ce03739304a9e61e",
      "assetIds": []
    },
    {
      "x": 221,
      "y": 403,
      "size": 1,
      "price": "1011000000000000000000",
      "reserved": "0x7a9fe22691c811ea339d9b73150e6911a5343dca",
      "salt": "0x8359b7befb7e950928049699f9ee83dedc37ca2d121e7268c158164ce1a1195c",
      "assetIds": []
    },
    {
      "x": 221,
      "y": 404,
      "size": 1,
      "price": "1011000000000000000000",
      "reserved": "",
      "salt": "0x5e68a74d53b80e83821c1b8a11bdb586b5b21ac042e49687dc1ae3920232d9e6",
      "assetIds": []
    },
    {
      "x": 221,
      "y": 405,
      "size": 1,
      "price": "1011000000000000000000",
      "reserved": "",
      "salt": "0x87d4e9941573177409243a426b93f3e3d64c09d30c0a6d6dcc06e66042bf42c2",
      "assetIds": []
    },
    {
      "x": 221,
      "y": 406,
      "size": 1,
      "price": "1011000000000000000000",
      "reserved": "0x7a9fe22691c811ea339d9b73150e6911a5343dca",
      "salt": "0x52f025808b42e839ffbcc4771195cf45f57cba2ed2e45eaac17606611f00d08e",
      "assetIds": []
    },
    {
      "x": 221,
      "y": 407,
      "size": 1,
      "price": "1011000000000000000000",
      "reserved": "",
      "salt": "0xadbd8e664605f9ad8abbece22324604a46a0db381900e7d6fbf0df358dd8a8a3",
      "assetIds": []
    },
    {
      "x": 222,
      "y": 392,
      "size": 1,
      "price": "1011000000000000000000",
      "reserved": "",
      "salt": "0x76d2d53b0dd9ad53d88ed96d6902513278b64073cf6dffd84090e11872345558",
      "assetIds": []
    },
    {
      "x": 222,
      "y": 393,
      "size": 1,
      "price": "1011000000000000000000",
      "reserved": "0x7a9fe22691c811ea339d9b73150e6911a5343dca",
      "salt": "0x204a62a444a51c2d1e7a5b5331b86bde6a2eade80fcfe9e2086ca8753173090e",
      "assetIds": []
    },
    {
      "x": 222,
      "y": 394,
      "size": 1,
      "price": "4683000000000000000000",
      "reserved": "",
      "salt": "0x23b58ec2a2d4d5db3d34a8b8f049abdcd8475e94a8a688b94a908e1beb57074c",
      "assetIds": [
        "55464657044963196816950587289035428064568320970692304673817341489687790884865",
        "55464657044963196816950587289035428064568320970692304673817341489687782494208",
        "55464657044963196816950587289035428064568320970692304673817341489687790884866",
        "55464657044963196816950587289035428064568320970692304673817341489687782494209",
        "55464657044963196816950587289035428064568320970692304673817341489687790884864"
      ]
    },
    {
      "x": 222,
      "y": 395,
      "size": 1,
      "price": "4683000000000000000000",
      "reserved": "",
      "salt": "0x9dde6f9a8f14ad5f638b3c7f8aa9fd5b9944c3941eb1df1815c8cf9128efc343",
      "assetIds": [
        "55464657044963196816950587289035428064568320970692304673817341489687790884865",
        "55464657044963196816950587289035428064568320970692304673817341489687782494208",
        "55464657044963196816950587289035428064568320970692304673817341489687790884866",
        "55464657044963196816950587289035428064568320970692304673817341489687782494209",
        "55464657044963196816950587289035428064568320970692304673817341489687790884864"
      ]
    },
    {
      "x": 222,
      "y": 402,
      "size": 1,
      "price": "1011000000000000000000",
      "reserved": "",
      "salt": "0x70bb7463cf676e97558126751877836d2125b24c8926850a047e3e69893594e2",
      "assetIds": []
    },
    {
      "x": 222,
      "y": 403,
      "size": 1,
      "price": "1011000000000000000000",
      "reserved": "",
      "salt": "0x349ebd1ab6553986979bbe87956c808a68d37d7582130a26358914d9af1c460f",
      "assetIds": []
    },
    {
      "x": 222,
      "y": 404,
      "size": 1,
      "price": "1011000000000000000000",
      "reserved": "",
      "salt": "0xfa0b67aebf316e1a35279baafcb90371854702ea53403030ff161558cd905d6d",
      "assetIds": []
    },
    {
      "x": 222,
      "y": 405,
      "size": 1,
      "price": "1011000000000000000000",
      "reserved": "",
      "salt": "0x9d37fa6389d709bf292f1acd95924e765889c4d443a1bff73818784201f4c56c",
      "assetIds": []
    },
    {
      "x": 222,
      "y": 406,
      "size": 1,
      "price": "1011000000000000000000",
      "reserved": "",
      "salt": "0x839d6de5172fd026f276ba60ce946e7532788bc798ada8c9c8a8b22cbc1ecea2",
      "assetIds": []
    },
    {
      "x": 222,
      "y": 407,
      "size": 1,
      "price": "1011000000000000000000",
      "reserved": "0x7a9fe22691c811ea339d9b73150e6911a5343dca",
      "salt": "0x74a02b65fb8d1098a7d2faeecce893ee63942215ddb1bf6e0bf497ded545fc9d",
      "assetIds": []
    },
    {
      "x": 223,
      "y": 392,
      "size": 1,
      "price": "1011000000000000000000",
      "reserved": "",
      "salt": "0xc0bb7bc78080b9fcba709d292074daca1288c03a6332926bf46d9d89d02d8e70",
      "assetIds": []
    },
    {
      "x": 223,
      "y": 393,
      "size": 1,
      "price": "4683000000000000000000",
      "reserved": "",
      "salt": "0x0015fbf169fc803a5911407fa0adb40285789fff6e4c666bcbb01f1c9f5979f7",
      "assetIds": [
        "55464657044963196816950587289035428064568320970692304673817341489687790884865",
        "55464657044963196816950587289035428064568320970692304673817341489687782494208",
        "55464657044963196816950587289035428064568320970692304673817341489687790884866",
        "55464657044963196816950587289035428064568320970692304673817341489687782494209",
        "55464657044963196816950587289035428064568320970692304673817341489687790884864"
      ]
    },
    {
      "x": 223,
      "y": 394,
      "size": 1,
      "price": "4683000000000000000000",
      "reserved": "",
      "salt": "0x41a50a8feba996e1345a3acef855b37cf8fff447ccd4eac8f69893e8bbcad877",
      "assetIds": [
        "55464657044963196816950587289035428064568320970692304673817341489687790884865",
        "55464657044963196816950587289035428064568320970692304673817341489687782494208",
        "55464657044963196816950587289035428064568320970692304673817341489687790884866",
        "55464657044963196816950587289035428064568320970692304673817341489687782494209",
        "55464657044963196816950587289035428064568320970692304673817341489687790884864"
      ]
    },
    {
      "x": 223,
      "y": 395,
      "size": 1,
      "price": "4683000000000000000000",
      "reserved": "",
      "salt": "0x3437e3ac9c0b4d568149eca1c850d748bd8b659c66df031b2646a54bb4d64675",
      "assetIds": [
        "55464657044963196816950587289035428064568320970692304673817341489687790884865",
        "55464657044963196816950587289035428064568320970692304673817341489687782494208",
        "55464657044963196816950587289035428064568320970692304673817341489687790884866",
        "55464657044963196816950587289035428064568320970692304673817341489687782494209",
        "55464657044963196816950587289035428064568320970692304673817341489687790884864"
      ]
    },
    {
      "x": 223,
      "y": 402,
      "size": 1,
      "price": "1011000000000000000000",
      "reserved": "",
      "salt": "0xb2d00054f02c43701e70f2fddaf98103ca8d522b6aceceacf47eb407f86f2412",
      "assetIds": []
    },
    {
      "x": 223,
      "y": 403,
      "size": 1,
      "price": "1011000000000000000000",
      "reserved": "",
      "salt": "0x78fbd7713d555da7c2c331694529717cd94b27699b1432e7026c916ea8bd36d6",
      "assetIds": []
    },
    {
      "x": 223,
      "y": 404,
      "size": 1,
      "price": "1011000000000000000000",
      "reserved": "0x7a9fe22691c811ea339d9b73150e6911a5343dca",
      "salt": "0x97327117e1fd3177e4ebbccfa1a62462f7c63eb22b066f19a634167a8cb7f560",
      "assetIds": []
    },
    {
      "x": 223,
      "y": 405,
      "size": 1,
      "price": "1011000000000000000000",
      "reserved": "",
      "salt": "0xfa6e333ece71daee800f133c03420478b4f69036adbf81b6bab2fe96eba7743c",
      "assetIds": []
    },
    {
      "x": 223,
      "y": 406,
      "size": 1,
      "price": "1011000000000000000000",
      "reserved": "",
      "salt": "0x45b18ba9d65eb1bd7421bc76b6ba659d3b45b6cb109aa4898e4cbb438a417ace",
      "assetIds": []
    },
    {
      "x": 223,
      "y": 407,
      "size": 1,
      "price": "1011000000000000000000",
      "reserved": "",
      "salt": "0xdb4db010a980add6cdc5267c0a1ae5affa198904527e9d488dfd7e33634895fa",
      "assetIds": []
    },
    {
      "x": 224,
      "y": 392,
      "size": 1,
      "price": "1011000000000000000000",
      "reserved": "",
      "salt": "0xdcb467beae6c46284939e4f31f464285be7e75951e069b3d95f84063418d0215",
      "assetIds": []
    },
    {
      "x": 224,
      "y": 393,
      "size": 1,
      "price": "1011000000000000000000",
      "reserved": "0x7a9fe22691c811ea339d9b73150e6911a5343dca",
      "salt": "0x629d15b8d069aec076a7254f16fe5ef95926bdbec46943f624d1abfc4c5f6071",
      "assetIds": []
    },
    {
      "x": 224,
      "y": 394,
      "size": 1,
      "price": "4683000000000000000000",
      "reserved": "",
      "salt": "0x8193d0cbc1a00b1b555718548a725ccffd299c6996df37830dd48af0b86b5ad0",
      "assetIds": [
        "55464657044963196816950587289035428064568320970692304673817341489687790884865",
        "55464657044963196816950587289035428064568320970692304673817341489687782494208",
        "55464657044963196816950587289035428064568320970692304673817341489687790884866",
        "55464657044963196816950587289035428064568320970692304673817341489687782494209",
        "55464657044963196816950587289035428064568320970692304673817341489687790884864"
      ]
    },
    {
      "x": 224,
      "y": 395,
      "size": 1,
      "price": "4683000000000000000000",
      "reserved": "",
      "salt": "0xfaae7e7d185b350f9368157a3d6b2c2f3dce56252895e453b4f7bf7dd3a36243",
      "assetIds": [
        "55464657044963196816950587289035428064568320970692304673817341489687790884865",
        "55464657044963196816950587289035428064568320970692304673817341489687782494208",
        "55464657044963196816950587289035428064568320970692304673817341489687790884866",
        "55464657044963196816950587289035428064568320970692304673817341489687782494209",
        "55464657044963196816950587289035428064568320970692304673817341489687790884864"
      ]
    },
    {
      "x": 224,
      "y": 402,
      "size": 1,
      "price": "1011000000000000000000",
      "reserved": "",
      "salt": "0xa35d5e6a4ce763cc4acd56f783ae7bd90c7fa87cc2b7cf70b910c64ba40a020d",
      "assetIds": []
    },
    {
      "x": 224,
      "y": 403,
      "size": 1,
      "price": "1011000000000000000000",
      "reserved": "",
      "salt": "0xb8927330deda876e8a59a6741a0e07e4b84be810cfe45ff67730bd8767ee1d61",
      "assetIds": []
    },
    {
      "x": 224,
      "y": 404,
      "size": 1,
      "price": "1011000000000000000000",
      "reserved": "",
      "salt": "0x148eeeaad4f8bdf9de635d8ee0e64465ef4ede0746166d50df5ff8c17fccf94d",
      "assetIds": []
    },
    {
      "x": 224,
      "y": 405,
      "size": 1,
      "price": "1011000000000000000000",
      "reserved": "",
      "salt": "0x4a15d1fe935ced92a39086afd627dedc7084aaba4e60ac3ebbab05c42bf63dea",
      "assetIds": []
    },
    {
      "x": 224,
      "y": 406,
      "size": 1,
      "price": "1011000000000000000000",
      "reserved": "",
      "salt": "0xe65108ea5936da938d95858d33b801dc35339555d56609ba046cc9fa5018b7fe",
      "assetIds": []
    },
    {
      "x": 224,
      "y": 407,
      "size": 1,
      "price": "1011000000000000000000",
      "reserved": "",
      "salt": "0x08323c9a619f7df39a96ff30459ad79bc538431d7636971f08f36044a4b63042",
      "assetIds": []
    },
    {
      "x": 225,
      "y": 392,
      "size": 1,
      "price": "1011000000000000000000",
      "reserved": "",
      "salt": "0x457e1d64168c9a0dc93559ff3ef14368a7361004a78e607b24cafc4fc7c4923f",
      "assetIds": []
    },
    {
      "x": 225,
      "y": 393,
      "size": 1,
      "price": "1011000000000000000000",
      "reserved": "",
      "salt": "0x536de05c4e64d118b9dbf75c94680a79d07d5023fd5cf90392fb582edaa6b656",
      "assetIds": []
    },
    {
      "x": 225,
      "y": 394,
      "size": 1,
      "price": "1011000000000000000000",
      "reserved": "",
      "salt": "0xbba4936fd97d17a4f2f66b021970149723686546bc83ceea2e31064becf04f30",
      "assetIds": []
    },
    {
      "x": 225,
      "y": 395,
      "size": 1,
      "price": "4683000000000000000000",
      "reserved": "",
      "salt": "0xcf2edd7a1fce8f490e17b18fc13ea281a7b425f1ddab8f8e85b8d26769d2ceb8",
      "assetIds": [
        "55464657044963196816950587289035428064568320970692304673817341489687790884865",
        "55464657044963196816950587289035428064568320970692304673817341489687782494208",
        "55464657044963196816950587289035428064568320970692304673817341489687790884866",
        "55464657044963196816950587289035428064568320970692304673817341489687782494209",
        "55464657044963196816950587289035428064568320970692304673817341489687790884864"
      ]
    },
    {
      "x": 225,
      "y": 402,
      "size": 1,
      "price": "1011000000000000000000",
      "reserved": "",
      "salt": "0x80c0bd26ac774ee8ae97f21526162a6092edd895a2e32bb315e36431dd8008db",
      "assetIds": []
    },
    {
      "x": 225,
      "y": 403,
      "size": 1,
      "price": "1011000000000000000000",
      "reserved": "0x7a9fe22691c811ea339d9b73150e6911a5343dca",
      "salt": "0x5f4fd44cfe77354cecec216848746443997b7906feaf44e84ffd779069476ed4",
      "assetIds": []
    },
    {
      "x": 225,
      "y": 404,
      "size": 1,
      "price": "1011000000000000000000",
      "reserved": "0x7a9fe22691c811ea339d9b73150e6911a5343dca",
      "salt": "0xa2485707fe28bbda34f9cabda406dce1e1cb6cbe67b11a17e0cfe638d27f0ff8",
      "assetIds": []
    },
    {
      "x": 225,
      "y": 405,
      "size": 1,
      "price": "1011000000000000000000",
      "reserved": "",
      "salt": "0x355145beb9788ec515311bd87d9d3a07485479d15eccb07cb531c4d20d4348c7",
      "assetIds": []
    },
    {
      "x": 225,
      "y": 406,
      "size": 1,
      "price": "1011000000000000000000",
      "reserved": "0x7a9fe22691c811ea339d9b73150e6911a5343dca",
      "salt": "0x2e8511d4690371044904e39292548768c0938d3b79b9224d7d66c5d958cebf38",
      "assetIds": []
    },
    {
      "x": 225,
      "y": 407,
      "size": 1,
      "price": "1011000000000000000000",
      "reserved": "0x7a9fe22691c811ea339d9b73150e6911a5343dca",
      "salt": "0xe6fbaa1ed62829e08a57dfb78e56b81435e8012c2202d97cf341699d22fe0c5e",
      "assetIds": []
    },
    {
      "x": 226,
      "y": 392,
      "size": 1,
      "price": "1011000000000000000000",
      "reserved": "0x7a9fe22691c811ea339d9b73150e6911a5343dca",
      "salt": "0xb30763af67c43b864218c5205ad53ac00e927f4b1e9f2346519d9ea147d83dad",
      "assetIds": []
    },
    {
      "x": 226,
      "y": 393,
      "size": 1,
      "price": "1011000000000000000000",
      "reserved": "",
      "salt": "0xe891aa196f882b70963ca2d884d9346c157bd2b704025847ac7f5adbfcaeb34a",
      "assetIds": []
    },
    {
      "x": 226,
      "y": 394,
      "size": 1,
      "price": "4683000000000000000000",
      "reserved": "",
      "salt": "0xa302cdb3873426f1d32eaba48a9e636519699394e27103e2a03387a854aa4546",
      "assetIds": [
        "55464657044963196816950587289035428064568320970692304673817341489687790884865",
        "55464657044963196816950587289035428064568320970692304673817341489687782494208",
        "55464657044963196816950587289035428064568320970692304673817341489687790884866",
        "55464657044963196816950587289035428064568320970692304673817341489687782494209",
        "55464657044963196816950587289035428064568320970692304673817341489687790884864"
      ]
    },
    {
      "x": 226,
      "y": 395,
      "size": 1,
      "price": "4683000000000000000000",
      "reserved": "",
      "salt": "0xa185cd13e2a402b300af5718352e1f1466a5ec82ef1548544f6b6be05da2b98a",
      "assetIds": [
        "55464657044963196816950587289035428064568320970692304673817341489687790884865",
        "55464657044963196816950587289035428064568320970692304673817341489687782494208",
        "55464657044963196816950587289035428064568320970692304673817341489687790884866",
        "55464657044963196816950587289035428064568320970692304673817341489687782494209",
        "55464657044963196816950587289035428064568320970692304673817341489687790884864"
      ]
    },
    {
      "x": 226,
      "y": 402,
      "size": 1,
      "price": "1011000000000000000000",
      "reserved": "",
      "salt": "0xa2a1f903648e7ede5a8ecbb5c4af8e3d1b724bcbd9b5d856e1df8f868b35dc55",
      "assetIds": []
    },
    {
      "x": 226,
      "y": 403,
      "size": 1,
      "price": "1011000000000000000000",
      "reserved": "",
      "salt": "0x844104ab547414eef19ed7fbb85fc35981510d2a6e9a5ee5fefae606c91d7342",
      "assetIds": []
    },
    {
      "x": 226,
      "y": 404,
      "size": 1,
      "price": "1011000000000000000000",
      "reserved": "",
      "salt": "0xcdb4f81211897dfb0e2b5b46bde31d93b647eb3e2aae7610a262884dac163eb8",
      "assetIds": []
    },
    {
      "x": 226,
      "y": 405,
      "size": 1,
      "price": "1011000000000000000000",
      "reserved": "",
      "salt": "0x24c143c5d184572e83c7e0f249d64700bcf252aa11cd2f32df4ea22f48bb3a96",
      "assetIds": []
    },
    {
      "x": 226,
      "y": 406,
      "size": 1,
      "price": "1011000000000000000000",
      "reserved": "",
      "salt": "0xbe9a6849b7764274a6b6e76485b5e0621b6aa39faeb40ed66524e75bb3a42a2d",
      "assetIds": []
    },
    {
      "x": 226,
      "y": 407,
      "size": 1,
      "price": "1011000000000000000000",
      "reserved": "",
      "salt": "0x66ae44fe174bae48bd9cb398b3565f4fac8b8a2fdaa0f19955072c1acd43ae11",
      "assetIds": []
    },
    {
      "x": 227,
      "y": 392,
      "size": 1,
      "price": "1011000000000000000000",
      "reserved": "",
      "salt": "0x4ebb09c862ae3252ffc3a146496c672243511580e7b5eb99e69427b6539010ed",
      "assetIds": []
    },
    {
      "x": 227,
      "y": 393,
      "size": 1,
      "price": "4683000000000000000000",
      "reserved": "",
      "salt": "0x54921c72f3623dcf88e1570312b68d203b86c26b497893747daa0ab05ca8a80e",
      "assetIds": [
        "55464657044963196816950587289035428064568320970692304673817341489687790884865",
        "55464657044963196816950587289035428064568320970692304673817341489687782494208",
        "55464657044963196816950587289035428064568320970692304673817341489687790884866",
        "55464657044963196816950587289035428064568320970692304673817341489687782494209",
        "55464657044963196816950587289035428064568320970692304673817341489687790884864"
      ]
    },
    {
      "x": 227,
      "y": 394,
      "size": 1,
      "price": "4683000000000000000000",
      "reserved": "",
      "salt": "0x13a6e1e75be87c07215b22454deb1853530ff88e4c4b6c6c45d139e3d59f389b",
      "assetIds": [
        "55464657044963196816950587289035428064568320970692304673817341489687790884865",
        "55464657044963196816950587289035428064568320970692304673817341489687782494208",
        "55464657044963196816950587289035428064568320970692304673817341489687790884866",
        "55464657044963196816950587289035428064568320970692304673817341489687782494209",
        "55464657044963196816950587289035428064568320970692304673817341489687790884864"
      ]
    },
    {
      "x": 227,
      "y": 395,
      "size": 1,
      "price": "4683000000000000000000",
      "reserved": "",
      "salt": "0x865dadad8a730eea4f82544d877763d95fa054384973406fb0043399bdb416c6",
      "assetIds": [
        "55464657044963196816950587289035428064568320970692304673817341489687790884865",
        "55464657044963196816950587289035428064568320970692304673817341489687782494208",
        "55464657044963196816950587289035428064568320970692304673817341489687790884866",
        "55464657044963196816950587289035428064568320970692304673817341489687782494209",
        "55464657044963196816950587289035428064568320970692304673817341489687790884864"
      ]
    },
    {
      "x": 227,
      "y": 402,
      "size": 1,
      "price": "1011000000000000000000",
      "reserved": "",
      "salt": "0x35a9adf5ca7a5ea870ddbc7fd7b41a367307028e3b89ed86adde5a3b01eb271a",
      "assetIds": []
    },
    {
      "x": 227,
      "y": 403,
      "size": 1,
      "price": "1011000000000000000000",
      "reserved": "",
      "salt": "0x2f9d410623d39a7e20f2529e395c73b7c11a86b6e3fbfc35c50769d96a3028bc",
      "assetIds": []
    },
    {
      "x": 227,
      "y": 404,
      "size": 1,
      "price": "1011000000000000000000",
      "reserved": "",
      "salt": "0x0ad54ced16298b866fa71d37d27dd07ae16f0e3093b3780544071fcf59db875a",
      "assetIds": []
    },
    {
      "x": 227,
      "y": 405,
      "size": 1,
      "price": "1011000000000000000000",
      "reserved": "",
      "salt": "0x883e7ef318028eef4c05b600764799b6c2e596e820c5d83f79fc551c94fe43bb",
      "assetIds": []
    },
    {
      "x": 227,
      "y": 406,
      "size": 1,
      "price": "1011000000000000000000",
      "reserved": "",
      "salt": "0x076a115030306da9166e17e1a077ea367138c8ec6667358366ae14436c1e3599",
      "assetIds": []
    },
    {
      "x": 227,
      "y": 407,
      "size": 1,
      "price": "1011000000000000000000",
      "reserved": "",
      "salt": "0xfd0c287197165a8fc7835f6e8a3b53f8fa84850f6994887e464f89385ec01d77",
      "assetIds": []
    },
    {
      "x": 228,
      "y": 391,
      "size": 1,
      "price": "1011000000000000000000",
      "reserved": "",
      "salt": "0xe882130734881c46aade5fb47b93956be27585061715f8b1937425b6432a7b92",
      "assetIds": []
    },
    {
      "x": 228,
      "y": 392,
      "size": 1,
      "price": "1011000000000000000000",
      "reserved": "",
      "salt": "0xc2c7e48655b2c3495f071a850690aed2fd63c8cccb04fb55ddb7d862c8ccb4ea",
      "assetIds": []
    },
    {
      "x": 228,
      "y": 393,
      "size": 1,
      "price": "4683000000000000000000",
      "reserved": "",
      "salt": "0xfd3d556471b85f44b3733540c661d0406657eeff235e95569ddbe28bfdd483bd",
      "assetIds": [
        "55464657044963196816950587289035428064568320970692304673817341489687790884865",
        "55464657044963196816950587289035428064568320970692304673817341489687782494208",
        "55464657044963196816950587289035428064568320970692304673817341489687790884866",
        "55464657044963196816950587289035428064568320970692304673817341489687782494209",
        "55464657044963196816950587289035428064568320970692304673817341489687790884864"
      ]
    },
    {
      "x": 228,
      "y": 394,
      "size": 1,
      "price": "4683000000000000000000",
      "reserved": "",
      "salt": "0x4b10fac3b2784889b342df47f3fad7abe879267901b4b3aa85237ca3cafbb9c5",
      "assetIds": [
        "55464657044963196816950587289035428064568320970692304673817341489687790884865",
        "55464657044963196816950587289035428064568320970692304673817341489687782494208",
        "55464657044963196816950587289035428064568320970692304673817341489687790884866",
        "55464657044963196816950587289035428064568320970692304673817341489687782494209",
        "55464657044963196816950587289035428064568320970692304673817341489687790884864"
      ]
    },
    {
      "x": 228,
      "y": 395,
      "size": 1,
      "price": "4683000000000000000000",
      "reserved": "",
      "salt": "0xef75c12c1d704f3c555962f788d8cfe27d6231e1cf239d07f7de864c22621ead",
      "assetIds": [
        "55464657044963196816950587289035428064568320970692304673817341489687790884865",
        "55464657044963196816950587289035428064568320970692304673817341489687782494208",
        "55464657044963196816950587289035428064568320970692304673817341489687790884866",
        "55464657044963196816950587289035428064568320970692304673817341489687782494209",
        "55464657044963196816950587289035428064568320970692304673817341489687790884864"
      ]
    },
    {
      "x": 228,
      "y": 402,
      "size": 1,
      "price": "4683000000000000000000",
      "reserved": "",
      "salt": "0x7f8c44bd29b06c2d95e004a08e9004caedaea90a719f05316fc8080bcb28636e",
      "assetIds": [
        "55464657044963196816950587289035428064568320970692304673817341489687790884865",
        "55464657044963196816950587289035428064568320970692304673817341489687782494208",
        "55464657044963196816950587289035428064568320970692304673817341489687790884866",
        "55464657044963196816950587289035428064568320970692304673817341489687782494209",
        "55464657044963196816950587289035428064568320970692304673817341489687790884864"
      ]
    },
    {
      "x": 228,
      "y": 403,
      "size": 1,
      "price": "4683000000000000000000",
      "reserved": "",
      "salt": "0x7c9aafa98149df465d8c301a4ec85bb784ddd4322b196eb9188a9be6aa5c0691",
      "assetIds": [
        "55464657044963196816950587289035428064568320970692304673817341489687790884865",
        "55464657044963196816950587289035428064568320970692304673817341489687782494208",
        "55464657044963196816950587289035428064568320970692304673817341489687790884866",
        "55464657044963196816950587289035428064568320970692304673817341489687782494209",
        "55464657044963196816950587289035428064568320970692304673817341489687790884864"
      ]
    },
    {
      "x": 228,
      "y": 404,
      "size": 1,
      "price": "1011000000000000000000",
      "reserved": "",
      "salt": "0xc1d18488a7c4dade7bf3ad00758f9de3feeb8cfbd7c8095f3f2aa29fafb3907e",
      "assetIds": []
    },
    {
      "x": 228,
      "y": 405,
      "size": 1,
      "price": "1011000000000000000000",
      "reserved": "0x7a9fe22691c811ea339d9b73150e6911a5343dca",
      "salt": "0x68c0d9e9a88a0f799882a22c545788f204d85c41c5e999993d2240d6c98b8da7",
      "assetIds": []
    },
    {
      "x": 228,
      "y": 406,
      "size": 1,
      "price": "1011000000000000000000",
      "reserved": "",
      "salt": "0x6a150d439dcd90dba083a3801cc6e2ab49c92d109feda5043cb28a1bfe12b196",
      "assetIds": []
    },
    {
      "x": 228,
      "y": 407,
      "size": 1,
      "price": "1011000000000000000000",
      "reserved": "",
      "salt": "0x15ae7e30db539edfca2026744c3edf4b6821473fb686339544eafbb29d467688",
      "assetIds": []
    },
    {
      "x": 229,
      "y": 391,
      "size": 1,
      "price": "1011000000000000000000",
      "reserved": "0x7a9fe22691c811ea339d9b73150e6911a5343dca",
      "salt": "0x11eeffc5f0d5f66e0dce40c391db5bef621e43768e122f1b41f90da6f4d58604",
      "assetIds": []
    },
    {
      "x": 229,
      "y": 392,
      "size": 1,
      "price": "1011000000000000000000",
      "reserved": "",
      "salt": "0x907dc61416a51bfd58f6e916df679293076c94908fbfa4d6d04028779e94e496",
      "assetIds": []
    },
    {
      "x": 229,
      "y": 393,
      "size": 1,
      "price": "4683000000000000000000",
      "reserved": "",
      "salt": "0x2c5aceda98abc8e3eb749769d9f82b2fce43c160d571ec2985b7b3a7a9121d3b",
      "assetIds": [
        "55464657044963196816950587289035428064568320970692304673817341489687790884865",
        "55464657044963196816950587289035428064568320970692304673817341489687782494208",
        "55464657044963196816950587289035428064568320970692304673817341489687790884866",
        "55464657044963196816950587289035428064568320970692304673817341489687782494209",
        "55464657044963196816950587289035428064568320970692304673817341489687790884864"
      ]
    },
    {
      "x": 229,
      "y": 394,
      "size": 1,
      "price": "4683000000000000000000",
      "reserved": "",
      "salt": "0x4e477a0708650be094aa48fc44cb42f46f14aa5c941a00de80e6e555e4a2d44b",
      "assetIds": [
        "55464657044963196816950587289035428064568320970692304673817341489687790884865",
        "55464657044963196816950587289035428064568320970692304673817341489687782494208",
        "55464657044963196816950587289035428064568320970692304673817341489687790884866",
        "55464657044963196816950587289035428064568320970692304673817341489687782494209",
        "55464657044963196816950587289035428064568320970692304673817341489687790884864"
      ]
    },
    {
      "x": 229,
      "y": 395,
      "size": 1,
      "price": "4683000000000000000000",
      "reserved": "",
      "salt": "0xe99118266c278a79c3da80af7c2ba745bf37618db5da64c316e6477e89a80d50",
      "assetIds": [
        "55464657044963196816950587289035428064568320970692304673817341489687790884865",
        "55464657044963196816950587289035428064568320970692304673817341489687782494208",
        "55464657044963196816950587289035428064568320970692304673817341489687790884866",
        "55464657044963196816950587289035428064568320970692304673817341489687782494209",
        "55464657044963196816950587289035428064568320970692304673817341489687790884864"
      ]
    },
    {
      "x": 229,
      "y": 402,
      "size": 1,
      "price": "4683000000000000000000",
      "reserved": "",
      "salt": "0x8b03f2e5c34ce7c498a041bfe9974c2e629af7be35dd95726ab05dedf2b14d6e",
      "assetIds": [
        "55464657044963196816950587289035428064568320970692304673817341489687790884865",
        "55464657044963196816950587289035428064568320970692304673817341489687782494208",
        "55464657044963196816950587289035428064568320970692304673817341489687790884866",
        "55464657044963196816950587289035428064568320970692304673817341489687782494209",
        "55464657044963196816950587289035428064568320970692304673817341489687790884864"
      ]
    },
    {
      "x": 229,
      "y": 403,
      "size": 1,
      "price": "4683000000000000000000",
      "reserved": "",
      "salt": "0xc53f3cfbba33a539491e3970e19e806491380ccd54365ca9a1ce990b22172ff9",
      "assetIds": [
        "55464657044963196816950587289035428064568320970692304673817341489687790884865",
        "55464657044963196816950587289035428064568320970692304673817341489687782494208",
        "55464657044963196816950587289035428064568320970692304673817341489687790884866",
        "55464657044963196816950587289035428064568320970692304673817341489687782494209",
        "55464657044963196816950587289035428064568320970692304673817341489687790884864"
      ]
    },
    {
      "x": 229,
      "y": 404,
      "size": 1,
      "price": "1011000000000000000000",
      "reserved": "",
      "salt": "0x65c5e020f91f526891bc5fa2daf7f524d016b531d0b50e093bc7db8527925926",
      "assetIds": []
    },
    {
      "x": 229,
      "y": 405,
      "size": 1,
      "price": "1011000000000000000000",
      "reserved": "",
      "salt": "0x3e1d98b034f0583e9986229496faf66c6e3541cd2057734608273e9d923edca6",
      "assetIds": []
    },
    {
      "x": 229,
      "y": 406,
      "size": 1,
      "price": "1011000000000000000000",
      "reserved": "",
      "salt": "0xbadc4dc111aca6aa2fab413a130ab5e80b165da326a048d6ef2bb55c1852c940",
      "assetIds": []
    },
    {
      "x": 229,
      "y": 407,
      "size": 1,
      "price": "1011000000000000000000",
      "reserved": "",
      "salt": "0xaae6328aa54e1b2a47cb2dbe00204d7fcd2fe7144c2c71e2289f221ace19063b",
      "assetIds": []
    },
    {
      "x": 230,
      "y": 391,
      "size": 1,
      "price": "1011000000000000000000",
      "reserved": "",
      "salt": "0xa628270f0b2c8dfe2ee3645c33e0beadfed3c248748517f7706b20078bd328fa",
      "assetIds": []
    },
    {
      "x": 230,
      "y": 392,
      "size": 1,
      "price": "1011000000000000000000",
      "reserved": "",
      "salt": "0xcdf2e17a4347ea7695ac0b90fed105d63a715d96fccf266a2a1395f96e792cb2",
      "assetIds": []
    },
    {
      "x": 230,
      "y": 393,
      "size": 1,
      "price": "4683000000000000000000",
      "reserved": "",
      "salt": "0x6ef02a62a15555fe2c7c80906b05e06f317e96622a6aa21830e34d00d6f5f548",
      "assetIds": [
        "55464657044963196816950587289035428064568320970692304673817341489687790884865",
        "55464657044963196816950587289035428064568320970692304673817341489687782494208",
        "55464657044963196816950587289035428064568320970692304673817341489687790884866",
        "55464657044963196816950587289035428064568320970692304673817341489687782494209",
        "55464657044963196816950587289035428064568320970692304673817341489687790884864"
      ]
    },
    {
      "x": 230,
      "y": 394,
      "size": 1,
      "price": "4683000000000000000000",
      "reserved": "",
      "salt": "0x1e52d1dad12cb979ea87f4b5637f43678e528b8555cc7e7099320ce764ab56ba",
      "assetIds": [
        "55464657044963196816950587289035428064568320970692304673817341489687790884865",
        "55464657044963196816950587289035428064568320970692304673817341489687782494208",
        "55464657044963196816950587289035428064568320970692304673817341489687790884866",
        "55464657044963196816950587289035428064568320970692304673817341489687782494209",
        "55464657044963196816950587289035428064568320970692304673817341489687790884864"
      ]
    },
    {
      "x": 230,
      "y": 395,
      "size": 1,
      "price": "4683000000000000000000",
      "reserved": "",
      "salt": "0x3fd623140dc153b0660c220d15e771bd9ce6ca8587d1a214063eb79ae0f75471",
      "assetIds": [
        "55464657044963196816950587289035428064568320970692304673817341489687790884865",
        "55464657044963196816950587289035428064568320970692304673817341489687782494208",
        "55464657044963196816950587289035428064568320970692304673817341489687790884866",
        "55464657044963196816950587289035428064568320970692304673817341489687782494209",
        "55464657044963196816950587289035428064568320970692304673817341489687790884864"
      ]
    },
    {
      "x": 230,
      "y": 402,
      "size": 1,
      "price": "4683000000000000000000",
      "reserved": "",
      "salt": "0x578c6f233a66ae65099e365aae9694e9bcb55b56e62b66aca60e125161bca047",
      "assetIds": [
        "55464657044963196816950587289035428064568320970692304673817341489687790884865",
        "55464657044963196816950587289035428064568320970692304673817341489687782494208",
        "55464657044963196816950587289035428064568320970692304673817341489687790884866",
        "55464657044963196816950587289035428064568320970692304673817341489687782494209",
        "55464657044963196816950587289035428064568320970692304673817341489687790884864"
      ]
    },
    {
      "x": 230,
      "y": 403,
      "size": 1,
      "price": "4683000000000000000000",
      "reserved": "",
      "salt": "0x9966d31f9031443936d47422e119558b7ee040c91f6a9c73aa3df73e51c09902",
      "assetIds": [
        "55464657044963196816950587289035428064568320970692304673817341489687790884865",
        "55464657044963196816950587289035428064568320970692304673817341489687782494208",
        "55464657044963196816950587289035428064568320970692304673817341489687790884866",
        "55464657044963196816950587289035428064568320970692304673817341489687782494209",
        "55464657044963196816950587289035428064568320970692304673817341489687790884864"
      ]
    },
    {
      "x": 230,
      "y": 404,
      "size": 1,
      "price": "1011000000000000000000",
      "reserved": "",
      "salt": "0xf733a63774e6b3c056b2405089a0c2b154dae527f16fdbaa29e63836e262c171",
      "assetIds": []
    },
    {
      "x": 230,
      "y": 405,
      "size": 1,
      "price": "1011000000000000000000",
      "reserved": "",
      "salt": "0x6f4a959f347f7a612546dd76a41551247b1a45f6c57cd70fb35bbd152c623574",
      "assetIds": []
    },
    {
      "x": 230,
      "y": 406,
      "size": 1,
      "price": "1011000000000000000000",
      "reserved": "",
      "salt": "0x33bcae39aa754ea2c266fba4ea4d39ce6caaf4183075b6cda4e503a630f93fce",
      "assetIds": []
    },
    {
      "x": 230,
      "y": 407,
      "size": 1,
      "price": "1011000000000000000000",
      "reserved": "",
      "salt": "0xc31d7c76597fcf79f04f4a204d64888063c5ac44bba4495ad02d36e2bb3eb45c",
      "assetIds": []
    },
    {
      "x": 231,
      "y": 391,
      "size": 1,
      "price": "1011000000000000000000",
      "reserved": "",
      "salt": "0x768f52f874f2da47ac3ce4db0f64199afee721a709f8cd9c170e3146a3114441",
      "assetIds": []
    },
    {
      "x": 231,
      "y": 392,
      "size": 1,
      "price": "1011000000000000000000",
      "reserved": "",
      "salt": "0x71432aa51bd94cddf435ad3b5b9a8d5aa39b82a2c0c306f5460a325a8efd63a9",
      "assetIds": []
    },
    {
      "x": 231,
      "y": 393,
      "size": 1,
      "price": "1011000000000000000000",
      "reserved": "",
      "salt": "0x89da668fd3cdbf4794b96a18c3ac5448a7527b088f495e4c4f94d2c585d8c22d",
      "assetIds": []
    },
    {
      "x": 231,
      "y": 394,
      "size": 1,
      "price": "4683000000000000000000",
      "reserved": "",
      "salt": "0x4da1910852edc9984f750c45d9504e8153b27992e4154b2d7cc009f8e756ccda",
      "assetIds": [
        "55464657044963196816950587289035428064568320970692304673817341489687790884865",
        "55464657044963196816950587289035428064568320970692304673817341489687782494208",
        "55464657044963196816950587289035428064568320970692304673817341489687790884866",
        "55464657044963196816950587289035428064568320970692304673817341489687782494209",
        "55464657044963196816950587289035428064568320970692304673817341489687790884864"
      ]
    },
    {
      "x": 231,
      "y": 395,
      "size": 1,
      "price": "4683000000000000000000",
      "reserved": "",
      "salt": "0x015fe77e39b8c1c079c87f46de4d2df6ab50a8e2674da561e340746034b2e49b",
      "assetIds": [
        "55464657044963196816950587289035428064568320970692304673817341489687790884865",
        "55464657044963196816950587289035428064568320970692304673817341489687782494208",
        "55464657044963196816950587289035428064568320970692304673817341489687790884866",
        "55464657044963196816950587289035428064568320970692304673817341489687782494209",
        "55464657044963196816950587289035428064568320970692304673817341489687790884864"
      ]
    },
    {
      "x": 231,
      "y": 402,
      "size": 1,
      "price": "4683000000000000000000",
      "reserved": "",
      "salt": "0x71dabd1a53a99a3d4d3b0a2f0521bdd153bd8e79928606fb59fe39dbc392918a",
      "assetIds": [
        "55464657044963196816950587289035428064568320970692304673817341489687790884865",
        "55464657044963196816950587289035428064568320970692304673817341489687782494208",
        "55464657044963196816950587289035428064568320970692304673817341489687790884866",
        "55464657044963196816950587289035428064568320970692304673817341489687782494209",
        "55464657044963196816950587289035428064568320970692304673817341489687790884864"
      ]
    },
    {
      "x": 231,
      "y": 403,
      "size": 1,
      "price": "1011000000000000000000",
      "reserved": "0x7a9fe22691c811ea339d9b73150e6911a5343dca",
      "salt": "0x92cca9f31b28f13323e13cf8c87800030d48acbd83ed5333ba3b1a20e6ef41e6",
      "assetIds": []
    },
    {
      "x": 231,
      "y": 404,
      "size": 1,
      "price": "1011000000000000000000",
      "reserved": "0x7a9fe22691c811ea339d9b73150e6911a5343dca",
      "salt": "0xfcc2ba353c0c6b0e489ead7c47af6a32c90a21c32a83d5b080f61a7c08ad98f9",
      "assetIds": []
    },
    {
      "x": 231,
      "y": 405,
      "size": 1,
      "price": "1011000000000000000000",
      "reserved": "",
      "salt": "0x96592c092a15c26b2f12e304dd9f27060fde7b796cb47de2291715cd25811ed8",
      "assetIds": []
    },
    {
      "x": 231,
      "y": 406,
      "size": 1,
      "price": "1011000000000000000000",
      "reserved": "",
      "salt": "0x31df8b9e9462dec1fac249f3e3532363877a54d3157b9df9c51c757dc9d6dcf7",
      "assetIds": []
    },
    {
      "x": 231,
      "y": 407,
      "size": 1,
      "price": "1011000000000000000000",
      "reserved": "",
      "salt": "0xc0bd2a346ec5b4092b13d5ef5e065b52682f2642c5251189c93e82ad6b8a4598",
      "assetIds": []
    },
    {
      "x": 232,
      "y": 391,
      "size": 1,
      "price": "1011000000000000000000",
      "reserved": "",
      "salt": "0xea8701ecc91adea29d1d84b32e3ab94e4edcf1bfc5176d660cb5c2b1094481eb",
      "assetIds": []
    },
    {
      "x": 232,
      "y": 392,
      "size": 1,
      "price": "1011000000000000000000",
      "reserved": "",
      "salt": "0xbdb50470dc47277c6ba3d7fc9f8ee571536666f5b439652294c60e02d97dc515",
      "assetIds": []
    },
    {
      "x": 232,
      "y": 393,
      "size": 1,
      "price": "1011000000000000000000",
      "reserved": "",
      "salt": "0x7893fa961a14c2be8f39f879f7c96570a6f624ed602d420f7b6d3db7d7ce26ee",
      "assetIds": []
    },
    {
      "x": 232,
      "y": 394,
      "size": 1,
      "price": "4683000000000000000000",
      "reserved": "",
      "salt": "0x89294101b34a1d87ced0b2f4002a5c9e53ced5f64d55de02d57cfe8e63b73363",
      "assetIds": [
        "55464657044963196816950587289035428064568320970692304673817341489687790884865",
        "55464657044963196816950587289035428064568320970692304673817341489687782494208",
        "55464657044963196816950587289035428064568320970692304673817341489687790884866",
        "55464657044963196816950587289035428064568320970692304673817341489687782494209",
        "55464657044963196816950587289035428064568320970692304673817341489687790884864"
      ]
    },
    {
      "x": 232,
      "y": 395,
      "size": 1,
      "price": "4683000000000000000000",
      "reserved": "",
      "salt": "0x82a65740f186005bb85b98c9180679bf28825c056cfd0b1a2f88f3308df21ea2",
      "assetIds": [
        "55464657044963196816950587289035428064568320970692304673817341489687790884865",
        "55464657044963196816950587289035428064568320970692304673817341489687782494208",
        "55464657044963196816950587289035428064568320970692304673817341489687790884866",
        "55464657044963196816950587289035428064568320970692304673817341489687782494209",
        "55464657044963196816950587289035428064568320970692304673817341489687790884864"
      ]
    },
    {
      "x": 232,
      "y": 402,
      "size": 1,
      "price": "4683000000000000000000",
      "reserved": "",
      "salt": "0x2333ae46df39b6571e3306da7091bd0b16b812f56e8c708485086d0de9bfce9d",
      "assetIds": [
        "55464657044963196816950587289035428064568320970692304673817341489687790884865",
        "55464657044963196816950587289035428064568320970692304673817341489687782494208",
        "55464657044963196816950587289035428064568320970692304673817341489687790884866",
        "55464657044963196816950587289035428064568320970692304673817341489687782494209",
        "55464657044963196816950587289035428064568320970692304673817341489687790884864"
      ]
    },
    {
      "x": 232,
      "y": 403,
      "size": 1,
      "price": "1011000000000000000000",
      "reserved": "",
      "salt": "0xffc1cc5e31cf10b28c1fb6c59dd505ae8832b3100596bc47fe672ac8971399b9",
      "assetIds": []
    },
    {
      "x": 232,
      "y": 404,
      "size": 1,
      "price": "1011000000000000000000",
      "reserved": "",
      "salt": "0xc17330b66716ddc13119eb6bcaa6c733db13a536e710caf565330a8ed51d3b74",
      "assetIds": []
    },
    {
      "x": 232,
      "y": 405,
      "size": 1,
      "price": "1011000000000000000000",
      "reserved": "",
      "salt": "0x8cdbb258d3679f230bb32d3fae795dbb6b3023f40a465ce899543892f83e245c",
      "assetIds": []
    },
    {
      "x": 232,
      "y": 406,
      "size": 1,
      "price": "1011000000000000000000",
      "reserved": "",
      "salt": "0x0ecf6e4cee87820c3ff9be6667b10264fb26fb9431e5faad7397c504daac8ad5",
      "assetIds": []
    },
    {
      "x": 232,
      "y": 407,
      "size": 1,
      "price": "1011000000000000000000",
      "reserved": "0x7a9fe22691c811ea339d9b73150e6911a5343dca",
      "salt": "0x3efc92535151733ce37c3e12c81339d8bb767b5543a5d2f39299c821fbc48fed",
      "assetIds": []
    },
    {
      "x": 233,
      "y": 391,
      "size": 1,
      "price": "1011000000000000000000",
      "reserved": "",
      "salt": "0x819d1b2c1fb5b478cd6137ee5bcbafa33da3a71c1b01aa35e2cd25834e513b56",
      "assetIds": []
    },
    {
      "x": 233,
      "y": 392,
      "size": 1,
      "price": "1011000000000000000000",
      "reserved": "",
      "salt": "0x27736654588f5df4f138f5f03d3140d363b3095b4ebe92f415f0214bb06352e0",
      "assetIds": []
    },
    {
      "x": 233,
      "y": 393,
      "size": 1,
      "price": "1011000000000000000000",
      "reserved": "",
      "salt": "0x4f7609516172014442b172a0d5e163c1f76675341bade119969ab5cf27087063",
      "assetIds": []
    },
    {
      "x": 233,
      "y": 394,
      "size": 1,
      "price": "4683000000000000000000",
      "reserved": "",
      "salt": "0x64758abd8c0679e51318b3cf7d7942cb23d75f012a66de08ff6770e7011ae591",
      "assetIds": [
        "55464657044963196816950587289035428064568320970692304673817341489687790884865",
        "55464657044963196816950587289035428064568320970692304673817341489687782494208",
        "55464657044963196816950587289035428064568320970692304673817341489687790884866",
        "55464657044963196816950587289035428064568320970692304673817341489687782494209",
        "55464657044963196816950587289035428064568320970692304673817341489687790884864"
      ]
    },
    {
      "x": 233,
      "y": 395,
      "size": 1,
      "price": "4683000000000000000000",
      "reserved": "",
      "salt": "0xa90501a7bc5a08a5ea8cd9ae988e646639fc6f274700f5348f58231643a728af",
      "assetIds": [
        "55464657044963196816950587289035428064568320970692304673817341489687790884865",
        "55464657044963196816950587289035428064568320970692304673817341489687782494208",
        "55464657044963196816950587289035428064568320970692304673817341489687790884866",
        "55464657044963196816950587289035428064568320970692304673817341489687782494209",
        "55464657044963196816950587289035428064568320970692304673817341489687790884864"
      ]
    },
    {
      "x": 233,
      "y": 402,
      "size": 1,
      "price": "4683000000000000000000",
      "reserved": "",
      "salt": "0xa8d29386d4837e0052332ef9e3e519b7083733b3521201b2f81d3ff3bc17c57c",
      "assetIds": [
        "55464657044963196816950587289035428064568320970692304673817341489687790884865",
        "55464657044963196816950587289035428064568320970692304673817341489687782494208",
        "55464657044963196816950587289035428064568320970692304673817341489687790884866",
        "55464657044963196816950587289035428064568320970692304673817341489687782494209",
        "55464657044963196816950587289035428064568320970692304673817341489687790884864"
      ]
    },
    {
      "x": 233,
      "y": 403,
      "size": 1,
      "price": "1011000000000000000000",
      "reserved": "",
      "salt": "0xc4fb2fc2d499550842c9c01d1735a6679068431f86b648b04111bbddb0095d8d",
      "assetIds": []
    },
    {
      "x": 233,
      "y": 404,
      "size": 1,
      "price": "1011000000000000000000",
      "reserved": "",
      "salt": "0x2f7517e7df8cc381a1d4771c47cb7713b67bfb8267c436e191a5a8e251850de1",
      "assetIds": []
    },
    {
      "x": 233,
      "y": 405,
      "size": 1,
      "price": "1011000000000000000000",
      "reserved": "",
      "salt": "0x6f5151781c3f72aad7f88414999a1a12ee8760607d850326f4c2013cc5b21b7e",
      "assetIds": []
    },
    {
      "x": 233,
      "y": 406,
      "size": 1,
      "price": "1011000000000000000000",
      "reserved": "",
      "salt": "0xb359a463c9a5412cc90ac8c55a5eceb0f42f72bcd7ce524a7448142e44c844be",
      "assetIds": []
    },
    {
      "x": 233,
      "y": 407,
      "size": 1,
      "price": "1011000000000000000000",
      "reserved": "",
      "salt": "0x0a2d9ab8e43d0c4c19764c8c428ec3b5749a578e3fd28fe69c7523ff61cc0882",
      "assetIds": []
    },
    {
      "x": 234,
      "y": 396,
      "size": 1,
      "price": "4683000000000000000000",
      "reserved": "",
      "salt": "0x4ac979647f6305b953292b5ca14136e967bc4ed6ab62a3164e367a104fe930e3",
      "assetIds": [
        "55464657044963196816950587289035428064568320970692304673817341489687790884865",
        "55464657044963196816950587289035428064568320970692304673817341489687782494208",
        "55464657044963196816950587289035428064568320970692304673817341489687790884866",
        "55464657044963196816950587289035428064568320970692304673817341489687782494209",
        "55464657044963196816950587289035428064568320970692304673817341489687790884864"
      ]
    },
    {
      "x": 234,
      "y": 397,
      "size": 1,
      "price": "4683000000000000000000",
      "reserved": "",
      "salt": "0x2f4e47f627ad7391a3dead223e096a1b9e5a658a0726aed73e9ef7183c325207",
      "assetIds": [
        "55464657044963196816950587289035428064568320970692304673817341489687790884865",
        "55464657044963196816950587289035428064568320970692304673817341489687782494208",
        "55464657044963196816950587289035428064568320970692304673817341489687790884866",
        "55464657044963196816950587289035428064568320970692304673817341489687782494209",
        "55464657044963196816950587289035428064568320970692304673817341489687790884864"
      ]
    },
    {
      "x": 234,
      "y": 398,
      "size": 1,
      "price": "4683000000000000000000",
      "reserved": "",
      "salt": "0x4835dd4294afad0cf8a1d5440ae6ee38cb5bcf40881fdeebfdeb5ee622dac14b",
      "assetIds": [
        "55464657044963196816950587289035428064568320970692304673817341489687790884865",
        "55464657044963196816950587289035428064568320970692304673817341489687782494208",
        "55464657044963196816950587289035428064568320970692304673817341489687790884866",
        "55464657044963196816950587289035428064568320970692304673817341489687782494209",
        "55464657044963196816950587289035428064568320970692304673817341489687790884864"
      ]
    },
    {
      "x": 234,
      "y": 402,
      "size": 1,
      "price": "1011000000000000000000",
      "reserved": "",
      "salt": "0x77d1336b9fcc2154e436aefccb8264a809758ba845bccae4c06ff5ea0e81e81a",
      "assetIds": []
    },
    {
      "x": 234,
      "y": 403,
      "size": 1,
      "price": "1011000000000000000000",
      "reserved": "",
      "salt": "0xf49656563b308eae8714d34ff9dc88dbbdc420e99c41551e55aaff8d37cd4f7b",
      "assetIds": []
    },
    {
      "x": 234,
      "y": 404,
      "size": 1,
      "price": "1011000000000000000000",
      "reserved": "",
      "salt": "0x7d4d199afa02440109d3a516bec3bbbd62174db7d33c4c47a4377e1fcbbedfca",
      "assetIds": []
    },
    {
      "x": 234,
      "y": 405,
      "size": 1,
      "price": "1011000000000000000000",
      "reserved": "",
      "salt": "0xc22a1e6c807cc4295534558f97c894f3568b16f472dcddbdccbdc2a0e43d23eb",
      "assetIds": []
    },
    {
      "x": 234,
      "y": 406,
      "size": 1,
      "price": "1011000000000000000000",
      "reserved": "",
      "salt": "0xdb283c3195d507d046c4e43ee6cdff5c37e8c8a6e8f80082f60abdcd53946e20",
      "assetIds": []
    },
    {
      "x": 234,
      "y": 407,
      "size": 1,
      "price": "1011000000000000000000",
      "reserved": "",
      "salt": "0xf5d06b29ddb92c0d70c12996bd8dc9d93890fa908f4ea4f7967c1126d58e7d29",
      "assetIds": []
    },
    {
      "x": 235,
      "y": 388,
      "size": 1,
      "price": "1011000000000000000000",
      "reserved": "0x7a9fe22691c811ea339d9b73150e6911a5343dca",
      "salt": "0x37b63b4e2f92b7ff17872e8f34eaa89c3964b8e19a1bdae6b69f17e33214d14e",
      "assetIds": []
    },
    {
      "x": 235,
      "y": 389,
      "size": 1,
      "price": "1011000000000000000000",
      "reserved": "",
      "salt": "0x18c74089a8200a74c754b9e15e49c09cb1d2392d5d9d6c84b6a20e3ee4dbfc7a",
      "assetIds": []
    },
    {
      "x": 235,
      "y": 396,
      "size": 1,
      "price": "4683000000000000000000",
      "reserved": "",
      "salt": "0x0694e17d5970df9b6dbe35949e9fcf8e91fdd5ba33eb8d8aadbafa5a1e7dcd7e",
      "assetIds": [
        "55464657044963196816950587289035428064568320970692304673817341489687790884865",
        "55464657044963196816950587289035428064568320970692304673817341489687782494208",
        "55464657044963196816950587289035428064568320970692304673817341489687790884866",
        "55464657044963196816950587289035428064568320970692304673817341489687782494209",
        "55464657044963196816950587289035428064568320970692304673817341489687790884864"
      ]
    },
    {
      "x": 235,
      "y": 397,
      "size": 1,
      "price": "4683000000000000000000",
      "reserved": "",
      "salt": "0xacf38bfc39c24fe0de3b422d671260c44526471e640226bc4e7b5b032087fc41",
      "assetIds": [
        "55464657044963196816950587289035428064568320970692304673817341489687790884865",
        "55464657044963196816950587289035428064568320970692304673817341489687782494208",
        "55464657044963196816950587289035428064568320970692304673817341489687790884866",
        "55464657044963196816950587289035428064568320970692304673817341489687782494209",
        "55464657044963196816950587289035428064568320970692304673817341489687790884864"
      ]
    },
    {
      "x": 235,
      "y": 398,
      "size": 1,
      "price": "4683000000000000000000",
      "reserved": "",
      "salt": "0x5063608a926c189fab171bd49b16c85c938b93f0eab06f187ca7163f96774c40",
      "assetIds": [
        "55464657044963196816950587289035428064568320970692304673817341489687790884865",
        "55464657044963196816950587289035428064568320970692304673817341489687782494208",
        "55464657044963196816950587289035428064568320970692304673817341489687790884866",
        "55464657044963196816950587289035428064568320970692304673817341489687782494209",
        "55464657044963196816950587289035428064568320970692304673817341489687790884864"
      ]
    },
    {
      "x": 235,
      "y": 402,
      "size": 1,
      "price": "1011000000000000000000",
      "reserved": "",
      "salt": "0x347d23f558e6f0bab049bdf060ab14740be75dd596a44fd7f617ce7259121248",
      "assetIds": []
    },
    {
      "x": 235,
      "y": 403,
      "size": 1,
      "price": "1011000000000000000000",
      "reserved": "",
      "salt": "0x653c940eea0d44488dc1079d609945a65f5a6a2775690f283d940f78d65e4edf",
      "assetIds": []
    },
    {
      "x": 235,
      "y": 404,
      "size": 1,
      "price": "1011000000000000000000",
      "reserved": "",
      "salt": "0x6685a9432a043d20853b857f785beb9748b82f7abe521fb4c33e39549ea2ab2b",
      "assetIds": []
    },
    {
      "x": 235,
      "y": 405,
      "size": 1,
      "price": "1011000000000000000000",
      "reserved": "",
      "salt": "0xb52e165bdde840b8e4011bf51e1f7b6e3edc7bdfcf95aef984ed137a2ee5ec2d",
      "assetIds": []
    },
    {
      "x": 235,
      "y": 406,
      "size": 1,
      "price": "1011000000000000000000",
      "reserved": "",
      "salt": "0x6dc5faed5773065959044a4485a4cda079a604ee59f723d8848c85ff17e36471",
      "assetIds": []
    },
    {
      "x": 235,
      "y": 407,
      "size": 1,
      "price": "1011000000000000000000",
      "reserved": "0x7a9fe22691c811ea339d9b73150e6911a5343dca",
      "salt": "0xbf6267d414439d98b229eb65ac84282b9ac75083f8f30783dc8db915e457bd40",
      "assetIds": []
    },
    {
      "x": 236,
      "y": 388,
      "size": 1,
      "price": "1011000000000000000000",
      "reserved": "0x7a9fe22691c811ea339d9b73150e6911a5343dca",
      "salt": "0x118a869c8835f46e04497f6218162ad939fb6bf8177639fd22e00ca33e384d7d",
      "assetIds": []
    },
    {
      "x": 236,
      "y": 389,
      "size": 1,
      "price": "1011000000000000000000",
      "reserved": "",
      "salt": "0xd4c0e0cac9728f03297ad002d3dd13b9041c8e9f7dda057a546e5841a814c6e3",
      "assetIds": []
    },
    {
      "x": 236,
      "y": 396,
      "size": 1,
      "price": "4683000000000000000000",
      "reserved": "",
      "salt": "0x911551e3c1f00893c173c3ea8834d430d1777949c992944651a52f6f0d8e548c",
      "assetIds": [
        "55464657044963196816950587289035428064568320970692304673817341489687790884865",
        "55464657044963196816950587289035428064568320970692304673817341489687782494208",
        "55464657044963196816950587289035428064568320970692304673817341489687790884866",
        "55464657044963196816950587289035428064568320970692304673817341489687782494209",
        "55464657044963196816950587289035428064568320970692304673817341489687790884864"
      ]
    },
    {
      "x": 236,
      "y": 397,
      "size": 1,
      "price": "4683000000000000000000",
      "reserved": "",
      "salt": "0x6415237db4924fa26bd6cba8cfcac5ba973d5491cd617f21591c18797f8fb48f",
      "assetIds": [
        "55464657044963196816950587289035428064568320970692304673817341489687790884865",
        "55464657044963196816950587289035428064568320970692304673817341489687782494208",
        "55464657044963196816950587289035428064568320970692304673817341489687790884866",
        "55464657044963196816950587289035428064568320970692304673817341489687782494209",
        "55464657044963196816950587289035428064568320970692304673817341489687790884864"
      ]
    },
    {
      "x": 236,
      "y": 398,
      "size": 1,
      "price": "4683000000000000000000",
      "reserved": "",
      "salt": "0x42858872405b1993940b55ddff1b37fcdc83f6c4c94db3b47f0529ff34a6fb5a",
      "assetIds": [
        "55464657044963196816950587289035428064568320970692304673817341489687790884865",
        "55464657044963196816950587289035428064568320970692304673817341489687782494208",
        "55464657044963196816950587289035428064568320970692304673817341489687790884866",
        "55464657044963196816950587289035428064568320970692304673817341489687782494209",
        "55464657044963196816950587289035428064568320970692304673817341489687790884864"
      ]
    },
    {
      "x": 236,
      "y": 402,
      "size": 1,
      "price": "1011000000000000000000",
      "reserved": "",
      "salt": "0x0af4487857521e9eaa61c30425e56f3ac7d19dceeef33736b158c55bc976334f",
      "assetIds": []
    },
    {
      "x": 236,
      "y": 403,
      "size": 1,
      "price": "1011000000000000000000",
      "reserved": "",
      "salt": "0xab6abb2858b6e567a115b895b20ffe7fd148b4382c3d47ac35d6e13647372907",
      "assetIds": []
    },
    {
      "x": 236,
      "y": 404,
      "size": 1,
      "price": "1011000000000000000000",
      "reserved": "",
      "salt": "0x5d61530f7bb75b3cec442008e342c8b0b6f7de055a0dfee90682eb80c9ba1afd",
      "assetIds": []
    },
    {
      "x": 236,
      "y": 405,
      "size": 1,
      "price": "1011000000000000000000",
      "reserved": "",
      "salt": "0x254e558c9ad88b94183c7577652f0236864a022357fde39a5939120c6b7beb0a",
      "assetIds": []
    },
    {
      "x": 236,
      "y": 406,
      "size": 1,
      "price": "1011000000000000000000",
      "reserved": "",
      "salt": "0x152b455dc8d7624c8e32e99661548b1c790f876dab68ea23e0964599f551e2d7",
      "assetIds": []
    },
    {
      "x": 236,
      "y": 407,
      "size": 1,
      "price": "1011000000000000000000",
      "reserved": "",
      "salt": "0xed4150e14b1692f366ebf73802aeefbd831b1e270b1bcc1c120b2cff5558b8fb",
      "assetIds": []
    },
    {
      "x": 237,
      "y": 387,
      "size": 1,
      "price": "4683000000000000000000",
      "reserved": "",
      "salt": "0x4fbbb494d7ed8347654edb552e14ffc68e419fb1c6c1ee19a62f5d477bbbc40f",
      "assetIds": [
        "55464657044963196816950587289035428064568320970692304673817341489687790884865",
        "55464657044963196816950587289035428064568320970692304673817341489687782494208",
        "55464657044963196816950587289035428064568320970692304673817341489687790884866",
        "55464657044963196816950587289035428064568320970692304673817341489687782494209",
        "55464657044963196816950587289035428064568320970692304673817341489687790884864"
      ]
    },
    {
      "x": 237,
      "y": 388,
      "size": 1,
      "price": "4683000000000000000000",
      "reserved": "",
      "salt": "0xf7046df207668481932c0d46d5c52f31c21d632d89bcfe07ba84b7310092d626",
      "assetIds": [
        "55464657044963196816950587289035428064568320970692304673817341489687790884865",
        "55464657044963196816950587289035428064568320970692304673817341489687782494208",
        "55464657044963196816950587289035428064568320970692304673817341489687790884866",
        "55464657044963196816950587289035428064568320970692304673817341489687782494209",
        "55464657044963196816950587289035428064568320970692304673817341489687790884864"
      ]
    },
    {
      "x": 237,
      "y": 389,
      "size": 1,
      "price": "4683000000000000000000",
      "reserved": "",
      "salt": "0x93ec03b72f62ead4a9d46c48e1386d3cdd4bc04f73a38c9d3f71a80f2a5aa216",
      "assetIds": [
        "55464657044963196816950587289035428064568320970692304673817341489687790884865",
        "55464657044963196816950587289035428064568320970692304673817341489687782494208",
        "55464657044963196816950587289035428064568320970692304673817341489687790884866",
        "55464657044963196816950587289035428064568320970692304673817341489687782494209",
        "55464657044963196816950587289035428064568320970692304673817341489687790884864"
      ]
    },
    {
      "x": 237,
      "y": 399,
      "size": 1,
      "price": "1011000000000000000000",
      "reserved": "0x7a9fe22691c811ea339d9b73150e6911a5343dca",
      "salt": "0x5797f1caa7d282cb14a79b27a147c287b168b3e13cf2e2f1cb59d258acd4829c",
      "assetIds": []
    },
    {
      "x": 237,
      "y": 400,
      "size": 1,
      "price": "1011000000000000000000",
      "reserved": "0x7a9fe22691c811ea339d9b73150e6911a5343dca",
      "salt": "0xf0b726adf059da50c1f54e92d8acab735c28ea00ce2b902bc7dc9acaa1d01232",
      "assetIds": []
    },
    {
      "x": 237,
      "y": 401,
      "size": 1,
      "price": "1011000000000000000000",
      "reserved": "",
      "salt": "0xc08ea8e25aaceed31f0f90adb2b93150e74dc050f8af738f43c18736eb270490",
      "assetIds": []
    },
    {
      "x": 237,
      "y": 402,
      "size": 1,
      "price": "1011000000000000000000",
      "reserved": "",
      "salt": "0xae8da6f6fbe5907d3153a286e37843ebb88accfa19fcbf4a945a492c8d2f87e3",
      "assetIds": []
    },
    {
      "x": 237,
      "y": 403,
      "size": 1,
      "price": "1011000000000000000000",
      "reserved": "0x7a9fe22691c811ea339d9b73150e6911a5343dca",
      "salt": "0xf9f92c31cc8576774f337567d0c49bd947457dc23f3ca73459cfb25e7923c923",
      "assetIds": []
    },
    {
      "x": 237,
      "y": 404,
      "size": 1,
      "price": "1011000000000000000000",
      "reserved": "",
      "salt": "0xf6b2321457993d104546702f8836f9d50fbb249a3d3897756779076c1c398f57",
      "assetIds": []
    },
    {
      "x": 237,
      "y": 405,
      "size": 1,
      "price": "1011000000000000000000",
      "reserved": "",
      "salt": "0xa53f1bfe77ca5aa1f69cea0ca821a6f1cc6d82bd57a4f41ae1fee4ebeee67a4c",
      "assetIds": []
    },
    {
      "x": 237,
      "y": 406,
      "size": 1,
      "price": "1011000000000000000000",
      "reserved": "",
      "salt": "0xd5b03ca3b83480a4638d573e41293326603975e7df5ee50ad364980b05c143ec",
      "assetIds": []
    },
    {
      "x": 237,
      "y": 407,
      "size": 1,
      "price": "1011000000000000000000",
      "reserved": "",
      "salt": "0x40f010b487bc1f3770d62659d508711d751cdbb53054528ea5708e0c65b0237d",
      "assetIds": []
    },
    {
      "x": 238,
      "y": 387,
      "size": 1,
      "price": "4683000000000000000000",
      "reserved": "",
      "salt": "0x8057b6ce926c83de53e1a4887fc76ef534e0a7ea51cd5239f3b633c850a61364",
      "assetIds": [
        "55464657044963196816950587289035428064568320970692304673817341489687790884865",
        "55464657044963196816950587289035428064568320970692304673817341489687782494208",
        "55464657044963196816950587289035428064568320970692304673817341489687790884866",
        "55464657044963196816950587289035428064568320970692304673817341489687782494209",
        "55464657044963196816950587289035428064568320970692304673817341489687790884864"
      ]
    },
    {
      "x": 238,
      "y": 388,
      "size": 1,
      "price": "4683000000000000000000",
      "reserved": "",
      "salt": "0x6cfe52f8eaef75d879f64f80570165d651267467c6a9e9026eaa096316562fab",
      "assetIds": [
        "55464657044963196816950587289035428064568320970692304673817341489687790884865",
        "55464657044963196816950587289035428064568320970692304673817341489687782494208",
        "55464657044963196816950587289035428064568320970692304673817341489687790884866",
        "55464657044963196816950587289035428064568320970692304673817341489687782494209",
        "55464657044963196816950587289035428064568320970692304673817341489687790884864"
      ]
    },
    {
      "x": 238,
      "y": 389,
      "size": 1,
      "price": "4683000000000000000000",
      "reserved": "",
      "salt": "0x6e5c97955fdbae1e67d7bb8e26cab91cb449add2b4fdd0ee695f9bd5dedd2608",
      "assetIds": [
        "55464657044963196816950587289035428064568320970692304673817341489687790884865",
        "55464657044963196816950587289035428064568320970692304673817341489687782494208",
        "55464657044963196816950587289035428064568320970692304673817341489687790884866",
        "55464657044963196816950587289035428064568320970692304673817341489687782494209",
        "55464657044963196816950587289035428064568320970692304673817341489687790884864"
      ]
    },
    {
      "x": 238,
      "y": 399,
      "size": 1,
      "price": "1011000000000000000000",
      "reserved": "",
      "salt": "0x443c92055a117a200ca41a68a702e0cafeb74d95a93723abd9ce632924b3ad33",
      "assetIds": []
    },
    {
      "x": 238,
      "y": 400,
      "size": 1,
      "price": "1011000000000000000000",
      "reserved": "",
      "salt": "0x050c5eb47c6a0352c5cc2c12328f50d1b50dc65c118c2896a86b569e9482eb61",
      "assetIds": []
    },
    {
      "x": 238,
      "y": 401,
      "size": 1,
      "price": "1011000000000000000000",
      "reserved": "",
      "salt": "0x22339df46554babf9171129a9ffb156f84dd30e7fe9940f3df29c548b75a29f0",
      "assetIds": []
    },
    {
      "x": 238,
      "y": 402,
      "size": 1,
      "price": "1011000000000000000000",
      "reserved": "",
      "salt": "0xdffa5aa39d74910cae95e23b00f2f82c7cf75bc16d4c29d35fa58b51a464109c",
      "assetIds": []
    },
    {
      "x": 238,
      "y": 403,
      "size": 1,
      "price": "1011000000000000000000",
      "reserved": "",
      "salt": "0xea4ae376e1d0eb794bad75546ce1a1d7a1bb3d6278b3a7873cbc3c68250ef587",
      "assetIds": []
    },
    {
      "x": 238,
      "y": 404,
      "size": 1,
      "price": "1011000000000000000000",
      "reserved": "",
      "salt": "0x657ef34d7cfa3cc5dfe420932178b98defbaa8738834cb03be997829db754d75",
      "assetIds": []
    },
    {
      "x": 238,
      "y": 405,
      "size": 1,
      "price": "1011000000000000000000",
      "reserved": "",
      "salt": "0x8a818f21d6516f139d07bc04f9610ed964dff3d1bc008e844a9cc32ce88528aa",
      "assetIds": []
    },
    {
      "x": 238,
      "y": 406,
      "size": 1,
      "price": "1011000000000000000000",
      "reserved": "0x7a9fe22691c811ea339d9b73150e6911a5343dca",
      "salt": "0xb56dd76674fbaded31d8d9039091869cd5892a02f6b647d52ab17f9b66bfdf81",
      "assetIds": []
    },
    {
      "x": 238,
      "y": 407,
      "size": 1,
      "price": "1011000000000000000000",
      "reserved": "",
      "salt": "0xcd0250c01a5a8d34474d15aa42333b140ac60cb4fe2e71640bee3add9710eec8",
      "assetIds": []
    },
    {
      "x": 239,
      "y": 387,
      "size": 1,
      "price": "4683000000000000000000",
      "reserved": "",
      "salt": "0xa2f7434dce184b819cbeb00aededd02bd0289b7cee544e9f0a6df8ff7f6db8d6",
      "assetIds": [
        "55464657044963196816950587289035428064568320970692304673817341489687790884865",
        "55464657044963196816950587289035428064568320970692304673817341489687782494208",
        "55464657044963196816950587289035428064568320970692304673817341489687790884866",
        "55464657044963196816950587289035428064568320970692304673817341489687782494209",
        "55464657044963196816950587289035428064568320970692304673817341489687790884864"
      ]
    },
    {
      "x": 239,
      "y": 388,
      "size": 1,
      "price": "4683000000000000000000",
      "reserved": "",
      "salt": "0x6342e25ca9e0174b44ec86740d43bea9a8a08a65e23926479c28bd1bde3e721b",
      "assetIds": [
        "55464657044963196816950587289035428064568320970692304673817341489687790884865",
        "55464657044963196816950587289035428064568320970692304673817341489687782494208",
        "55464657044963196816950587289035428064568320970692304673817341489687790884866",
        "55464657044963196816950587289035428064568320970692304673817341489687782494209",
        "55464657044963196816950587289035428064568320970692304673817341489687790884864"
      ]
    },
    {
      "x": 239,
      "y": 389,
      "size": 1,
      "price": "4683000000000000000000",
      "reserved": "",
      "salt": "0x3b7890a0f53bb785bddaadbab33bd30980a88c755866d748393233caeadd09bd",
      "assetIds": [
        "55464657044963196816950587289035428064568320970692304673817341489687790884865",
        "55464657044963196816950587289035428064568320970692304673817341489687782494208",
        "55464657044963196816950587289035428064568320970692304673817341489687790884866",
        "55464657044963196816950587289035428064568320970692304673817341489687782494209",
        "55464657044963196816950587289035428064568320970692304673817341489687790884864"
      ]
    },
    {
      "x": 239,
      "y": 399,
      "size": 1,
      "price": "1011000000000000000000",
      "reserved": "",
      "salt": "0x0432430461e2df6cd3f85140b16d437a082fddd194230a9875c0a1a253f03a15",
      "assetIds": []
    },
    {
      "x": 239,
      "y": 400,
      "size": 1,
      "price": "1011000000000000000000",
      "reserved": "",
      "salt": "0x3d02f391629f2faa81bd066d73dbd91f45f414a56051ed5a775e732516366185",
      "assetIds": []
    },
    {
      "x": 239,
      "y": 401,
      "size": 1,
      "price": "1011000000000000000000",
      "reserved": "",
      "salt": "0x55214c906fa9f613c1cd809689666488f244adeea808b0747d1860116292005e",
      "assetIds": []
    },
    {
      "x": 239,
      "y": 402,
      "size": 1,
      "price": "1011000000000000000000",
      "reserved": "",
      "salt": "0x28e9b24e5e9f90b95f07607e4eb4043adf55ddb412939b1117bacf792aba384a",
      "assetIds": []
    },
    {
      "x": 239,
      "y": 403,
      "size": 1,
      "price": "1011000000000000000000",
      "reserved": "",
      "salt": "0x84c41f32de0610e00e4167aefecf28e876acf3d5652c61e85b58f532bab435fc",
      "assetIds": []
    },
    {
      "x": 239,
      "y": 404,
      "size": 1,
      "price": "1011000000000000000000",
      "reserved": "",
      "salt": "0xc8c010061529801f270cc02d3c12bc89af02d724c5e10e4ec7fa030e70541b26",
      "assetIds": []
    },
    {
      "x": 239,
      "y": 405,
      "size": 1,
      "price": "1011000000000000000000",
      "reserved": "",
      "salt": "0xfcbe9d482aaf252867ed5ff2d8351b2682aebd023921ee20fd17a700b7211073",
      "assetIds": []
    },
    {
      "x": 239,
      "y": 406,
      "size": 1,
      "price": "1011000000000000000000",
      "reserved": "",
      "salt": "0x597bc1c023aee3274af85f1c8b745ba2343a9fd2111d839f6bedc2db1aaee527",
      "assetIds": []
    },
    {
      "x": 239,
      "y": 407,
      "size": 1,
      "price": "1011000000000000000000",
      "reserved": "",
      "salt": "0xa39c044e1beac3f60e69a4c0b0156a38e3e239a093cdee1a681a7c84240f3dce",
      "assetIds": []
    },
    {
      "x": 240,
      "y": 396,
      "size": 1,
      "price": "4683000000000000000000",
      "reserved": "",
      "salt": "0x23078c01b727a43b710e08017192f3bc98966bc78880317c4ad8c982992dbe2a",
      "assetIds": [
        "55464657044963196816950587289035428064568320970692304673817341489687790884865",
        "55464657044963196816950587289035428064568320970692304673817341489687782494208",
        "55464657044963196816950587289035428064568320970692304673817341489687790884866",
        "55464657044963196816950587289035428064568320970692304673817341489687782494209",
        "55464657044963196816950587289035428064568320970692304673817341489687790884864"
      ]
    },
    {
      "x": 240,
      "y": 397,
      "size": 1,
      "price": "4683000000000000000000",
      "reserved": "",
      "salt": "0x881d3bf009df33f4278d48157b936cd64899fe079574d9f47bec0629a0123a62",
      "assetIds": [
        "55464657044963196816950587289035428064568320970692304673817341489687790884865",
        "55464657044963196816950587289035428064568320970692304673817341489687782494208",
        "55464657044963196816950587289035428064568320970692304673817341489687790884866",
        "55464657044963196816950587289035428064568320970692304673817341489687782494209",
        "55464657044963196816950587289035428064568320970692304673817341489687790884864"
      ]
    },
    {
      "x": 240,
      "y": 398,
      "size": 1,
      "price": "4683000000000000000000",
      "reserved": "",
      "salt": "0x9ee1d73ce5281c746a07d1946cf0ef46cb4b1fb5a897dd8838b99995a2e19c28",
      "assetIds": [
        "55464657044963196816950587289035428064568320970692304673817341489687790884865",
        "55464657044963196816950587289035428064568320970692304673817341489687782494208",
        "55464657044963196816950587289035428064568320970692304673817341489687790884866",
        "55464657044963196816950587289035428064568320970692304673817341489687782494209",
        "55464657044963196816950587289035428064568320970692304673817341489687790884864"
      ]
    },
    {
      "x": 240,
      "y": 399,
      "size": 1,
      "price": "1011000000000000000000",
      "reserved": "",
      "salt": "0x9f38bb99db02105b2260de2da2365bd52ca1e257e8478498955693338cee6053",
      "assetIds": []
    },
    {
      "x": 240,
      "y": 400,
      "size": 1,
      "price": "1011000000000000000000",
      "reserved": "0x7a9fe22691c811ea339d9b73150e6911a5343dca",
      "salt": "0x292487459d8db4d680b2cea4ad03d3e7b7f08566e865a8e746de3e713b48f82b",
      "assetIds": []
    },
    {
      "x": 240,
      "y": 401,
      "size": 1,
      "price": "1011000000000000000000",
      "reserved": "",
      "salt": "0xaa1bea43bd7eabbcfc690428581b4a090a7aaf72eac62f994a584653e82f8b73",
      "assetIds": []
    },
    {
      "x": 240,
      "y": 402,
      "size": 1,
      "price": "1011000000000000000000",
      "reserved": "",
      "salt": "0x036631ed4ae208b762ca5c1fb57e2e7f99c2ba9dc94b427641686628cf7fad5b",
      "assetIds": []
    },
    {
      "x": 240,
      "y": 403,
      "size": 1,
      "price": "1011000000000000000000",
      "reserved": "",
      "salt": "0x304bc5c7bd3cefe5f1ef15e87772184b430e49fbff9b473513844650960d92f3",
      "assetIds": []
    },
    {
      "x": 240,
      "y": 404,
      "size": 1,
      "price": "1011000000000000000000",
      "reserved": "",
      "salt": "0x774576b6c9599f4be64039d899ceb48a48b9838e7b2fe0c0fc3537d48f0ed092",
      "assetIds": []
    },
    {
      "x": 240,
      "y": 405,
      "size": 1,
      "price": "1011000000000000000000",
      "reserved": "",
      "salt": "0xacebce6c0aaa137ccf2e1ad8288bf35f429a471048b409b4c10a8d608d10f933",
      "assetIds": []
    },
    {
      "x": 240,
      "y": 406,
      "size": 1,
      "price": "1011000000000000000000",
      "reserved": "",
      "salt": "0x8f2705c68117c58514a4300d6e11a3ce5561a82c77c549c4d6d3728c70827bf9",
      "assetIds": []
    },
    {
      "x": 240,
      "y": 407,
      "size": 1,
      "price": "1011000000000000000000",
      "reserved": "0x7a9fe22691c811ea339d9b73150e6911a5343dca",
      "salt": "0xd468211e3c098b353b59a7f51209ea88dc089eaa054df16af2321435d6e83ef9",
      "assetIds": []
    },
    {
      "x": 241,
      "y": 396,
      "size": 1,
      "price": "4683000000000000000000",
      "reserved": "",
      "salt": "0x3b6aa5e28487f46c5588b0153edd1c9bf0f3e8c1c444b8d6b6c98809d51e632b",
      "assetIds": [
        "55464657044963196816950587289035428064568320970692304673817341489687790884865",
        "55464657044963196816950587289035428064568320970692304673817341489687782494208",
        "55464657044963196816950587289035428064568320970692304673817341489687790884866",
        "55464657044963196816950587289035428064568320970692304673817341489687782494209",
        "55464657044963196816950587289035428064568320970692304673817341489687790884864"
      ]
    },
    {
      "x": 241,
      "y": 397,
      "size": 1,
      "price": "4683000000000000000000",
      "reserved": "",
      "salt": "0xf341c32ce4cf998b73e75e3653d69983a9fd7da1f89a98f87ab2bda4e6530aed",
      "assetIds": [
        "55464657044963196816950587289035428064568320970692304673817341489687790884865",
        "55464657044963196816950587289035428064568320970692304673817341489687782494208",
        "55464657044963196816950587289035428064568320970692304673817341489687790884866",
        "55464657044963196816950587289035428064568320970692304673817341489687782494209",
        "55464657044963196816950587289035428064568320970692304673817341489687790884864"
      ]
    },
    {
      "x": 241,
      "y": 398,
      "size": 1,
      "price": "4683000000000000000000",
      "reserved": "",
      "salt": "0x9db638a68d1f056f29decc1b3a0fbbfe7ff99d96f8c39ef124f2706d2e429d02",
      "assetIds": [
        "55464657044963196816950587289035428064568320970692304673817341489687790884865",
        "55464657044963196816950587289035428064568320970692304673817341489687782494208",
        "55464657044963196816950587289035428064568320970692304673817341489687790884866",
        "55464657044963196816950587289035428064568320970692304673817341489687782494209",
        "55464657044963196816950587289035428064568320970692304673817341489687790884864"
      ]
    },
    {
      "x": 241,
      "y": 399,
      "size": 1,
      "price": "1011000000000000000000",
      "reserved": "",
      "salt": "0xd2708d873b1bc42683a30fdd9ffa3402b1e24710bf59897d1c525bd5b6ba5e5b",
      "assetIds": []
    },
    {
      "x": 241,
      "y": 400,
      "size": 1,
      "price": "1011000000000000000000",
      "reserved": "0x7a9fe22691c811ea339d9b73150e6911a5343dca",
      "salt": "0x3464cdffbfb2b51786bdfa3325f017586303be3630f437689727482d906199c3",
      "assetIds": []
    },
    {
      "x": 241,
      "y": 401,
      "size": 1,
      "price": "1011000000000000000000",
      "reserved": "",
      "salt": "0xf3b0eb0c2625be9fa841422567ad644af9fcc6c817c7409ade42247b459bc900",
      "assetIds": []
    },
    {
      "x": 241,
      "y": 402,
      "size": 1,
      "price": "1011000000000000000000",
      "reserved": "",
      "salt": "0x99489afd04785738159bc9b592914726e51df0970865a6ae6416b0cbc0f8ed66",
      "assetIds": []
    },
    {
      "x": 241,
      "y": 403,
      "size": 1,
      "price": "1011000000000000000000",
      "reserved": "",
      "salt": "0x8e417db74298d6ddda3f5fd40e1ee1fa90488f34caa5a7a5efb8df685efd66b3",
      "assetIds": []
    },
    {
      "x": 241,
      "y": 404,
      "size": 1,
      "price": "1011000000000000000000",
      "reserved": "",
      "salt": "0x54d495eaaa03d0cbaa30191bbf77cb44e54843a4d9be73d5b12658735a4558fe",
      "assetIds": []
    },
    {
      "x": 241,
      "y": 405,
      "size": 1,
      "price": "1011000000000000000000",
      "reserved": "",
      "salt": "0xb21d4c33ddce0f5caf13b81963e07cb3d358881f565101cbd924b04e69d86125",
      "assetIds": []
    },
    {
      "x": 241,
      "y": 406,
      "size": 1,
      "price": "1011000000000000000000",
      "reserved": "",
      "salt": "0x566ed5c9ef93b552e37cca1e7292b99ca4f4a35e1589a58068ca8108e4fc832b",
      "assetIds": []
    },
    {
      "x": 241,
      "y": 407,
      "size": 1,
      "price": "1011000000000000000000",
      "reserved": "",
      "salt": "0x5811d3f5c8e24c8f40041fda26fb26381d18d596dbaed7adbbd1db2ebd73427f",
      "assetIds": []
    },
    {
      "x": 242,
      "y": 396,
      "size": 1,
      "price": "4683000000000000000000",
      "reserved": "",
      "salt": "0xf80177545e45ee693f414460d1b8414e91e317dcb90ea8fc47c37889c6835bd8",
      "assetIds": [
        "55464657044963196816950587289035428064568320970692304673817341489687790884865",
        "55464657044963196816950587289035428064568320970692304673817341489687782494208",
        "55464657044963196816950587289035428064568320970692304673817341489687790884866",
        "55464657044963196816950587289035428064568320970692304673817341489687782494209",
        "55464657044963196816950587289035428064568320970692304673817341489687790884864"
      ]
    },
    {
      "x": 242,
      "y": 397,
      "size": 1,
      "price": "4683000000000000000000",
      "reserved": "",
      "salt": "0xc72b0377574c34446ae6d4c5cf2286fcdcd7723d0f9d32e4f064d68e020955c0",
      "assetIds": [
        "55464657044963196816950587289035428064568320970692304673817341489687790884865",
        "55464657044963196816950587289035428064568320970692304673817341489687782494208",
        "55464657044963196816950587289035428064568320970692304673817341489687790884866",
        "55464657044963196816950587289035428064568320970692304673817341489687782494209",
        "55464657044963196816950587289035428064568320970692304673817341489687790884864"
      ]
    },
    {
      "x": 242,
      "y": 398,
      "size": 1,
      "price": "4683000000000000000000",
      "reserved": "",
      "salt": "0xe02927a021baef2f1d550e9a683a849c6988645f79839c530d2408828508416f",
      "assetIds": [
        "55464657044963196816950587289035428064568320970692304673817341489687790884865",
        "55464657044963196816950587289035428064568320970692304673817341489687782494208",
        "55464657044963196816950587289035428064568320970692304673817341489687790884866",
        "55464657044963196816950587289035428064568320970692304673817341489687782494209",
        "55464657044963196816950587289035428064568320970692304673817341489687790884864"
      ]
    },
    {
      "x": 242,
      "y": 399,
      "size": 1,
      "price": "1011000000000000000000",
      "reserved": "",
      "salt": "0x3328fef417f4e0b398a0fe9c451e80616c881dddb5aae42fdece4f08ca170943",
      "assetIds": []
    },
    {
      "x": 242,
      "y": 400,
      "size": 1,
      "price": "1011000000000000000000",
      "reserved": "",
      "salt": "0x7937faa7d93e7daecefae7f7df13d834e95e71e345fb8eabc66ab8a787f28ed0",
      "assetIds": []
    },
    {
      "x": 242,
      "y": 401,
      "size": 1,
      "price": "1011000000000000000000",
      "reserved": "",
      "salt": "0x235e53adbe25aa8749a577eeeac97f3f61ebf05e1f9f92def7e95d0330b8f521",
      "assetIds": []
    },
    {
      "x": 242,
      "y": 402,
      "size": 1,
      "price": "1011000000000000000000",
      "reserved": "",
      "salt": "0xac75501b4fdd31b99258a18706a29b0a262c5ddbb2749bef0157cc9d0421704e",
      "assetIds": []
    },
    {
      "x": 242,
      "y": 403,
      "size": 1,
      "price": "1011000000000000000000",
      "reserved": "0x7a9fe22691c811ea339d9b73150e6911a5343dca",
      "salt": "0x1e14fe9fc2fcafcd00f5b93b8b3be5ff2dba3651c929ecb4c1f7f9e705afd976",
      "assetIds": []
    },
    {
      "x": 242,
      "y": 404,
      "size": 1,
      "price": "1011000000000000000000",
      "reserved": "0x7a9fe22691c811ea339d9b73150e6911a5343dca",
      "salt": "0xe6f3370162b5a1db06b876b2a364dd8ce9c3da9ab5e8b389258c6d5764ee557a",
      "assetIds": []
    },
    {
      "x": 242,
      "y": 405,
      "size": 1,
      "price": "1011000000000000000000",
      "reserved": "",
      "salt": "0x845f0b68e028d769e45b3a90bb0ded4b2af162e2d1fbfc7d75e1a144bdb55a4d",
      "assetIds": []
    },
    {
      "x": 242,
      "y": 406,
      "size": 1,
      "price": "1011000000000000000000",
      "reserved": "",
      "salt": "0xcb30f39bae583952cd576566fbd3541262c02f3da6844c76192abe1c8bfc66dd",
      "assetIds": []
    },
    {
      "x": 242,
      "y": 407,
      "size": 1,
      "price": "1011000000000000000000",
      "reserved": "",
      "salt": "0x196b5d2e2821302561b1e6ece9dbf3f4ef5a0ef9c5b1df43570e1d5c8c1aa3ae",
      "assetIds": []
    },
    {
      "x": 243,
      "y": 360,
      "size": 1,
      "price": "4683000000000000000000",
      "reserved": "",
      "salt": "0x489b18044fc777f4a8b1f64ba4ea9e09477e0c3ce786d331abeca28ac2f3ee63",
      "assetIds": [
        "55464657044963196816950587289035428064568320970692304673817341489687790884865",
        "55464657044963196816950587289035428064568320970692304673817341489687782494208",
        "55464657044963196816950587289035428064568320970692304673817341489687790884866",
        "55464657044963196816950587289035428064568320970692304673817341489687782494209",
        "55464657044963196816950587289035428064568320970692304673817341489687790884864"
      ]
    },
    {
      "x": 243,
      "y": 361,
      "size": 1,
      "price": "1011000000000000000000",
      "reserved": "",
      "salt": "0x4b72365052ab3cd54e56becfdf438dd08cd89d8d59a7e767781da61648283744",
      "assetIds": []
    },
    {
      "x": 243,
      "y": 362,
      "size": 1,
      "price": "1011000000000000000000",
      "reserved": "0x7a9fe22691c811ea339d9b73150e6911a5343dca",
      "salt": "0x0944b4d3c12747c03d3bf08adabe0959725cece6ffea0c54f3e82ef2fb42a2db",
      "assetIds": []
    },
    {
      "x": 243,
      "y": 363,
      "size": 1,
      "price": "1011000000000000000000",
      "reserved": "",
      "salt": "0x2a4ba687f13f189b906b0d58703a7a072da7e18346aa1fed541521b8e54e2eb8",
      "assetIds": []
    },
    {
      "x": 243,
      "y": 364,
      "size": 1,
      "price": "1011000000000000000000",
      "reserved": "",
      "salt": "0x1a2fc6bacc1b392b634b2b247443079883bb17c62fa7754eb15594cda198db7b",
      "assetIds": []
    },
    {
      "x": 243,
      "y": 365,
      "size": 1,
      "price": "1011000000000000000000",
      "reserved": "0x7a9fe22691c811ea339d9b73150e6911a5343dca",
      "salt": "0xf4513598d0649a7c46234217457e466a2fbd2d1807fbc85414b3e8d5a2773c7b",
      "assetIds": []
    },
    {
      "x": 243,
      "y": 366,
      "size": 1,
      "price": "1011000000000000000000",
      "reserved": "",
      "salt": "0xf2e15166f88101b57111359f8c619e9a558b22f54ffd0ac4fb67356d11c02ad5",
      "assetIds": []
    },
    {
      "x": 243,
      "y": 367,
      "size": 1,
      "price": "1011000000000000000000",
      "reserved": "",
      "salt": "0x7263f8a8477952a65f90f9211ad6a6eed4f3f78aaa4b0f0cf0700dfc0a7bdde4",
      "assetIds": []
    },
    {
      "x": 243,
      "y": 368,
      "size": 1,
      "price": "1011000000000000000000",
      "reserved": "",
      "salt": "0x25a49fd121b354a1a579cc89967bcaa35b42205b323c0efddac1fdceb2bc7a34",
      "assetIds": []
    },
    {
      "x": 243,
      "y": 369,
      "size": 1,
      "price": "1011000000000000000000",
      "reserved": "",
      "salt": "0x6f8147888b6b9342e372ae053b92a9dc9c390d5ac7dfb9733e73168a1bb26b17",
      "assetIds": []
    },
    {
      "x": 243,
      "y": 370,
      "size": 1,
      "price": "1011000000000000000000",
      "reserved": "0x7a9fe22691c811ea339d9b73150e6911a5343dca",
      "salt": "0x1b4c61ef73b8f06f4554c1a990e9eac2400e8e3fc8888cd913ac627322d13b08",
      "assetIds": []
    },
    {
      "x": 243,
      "y": 371,
      "size": 1,
      "price": "1011000000000000000000",
      "reserved": "",
      "salt": "0xbe8606477567083817b67d9d7ac6beb271c8405dfa628d1b385b7349b8db8bf4",
      "assetIds": []
    },
    {
      "x": 243,
      "y": 372,
      "size": 1,
      "price": "1011000000000000000000",
      "reserved": "",
      "salt": "0xffabda15331b75f8743eff5d050fd84b6d1e7d4b92cbe21e2379f9a2a8e83692",
      "assetIds": []
    },
    {
      "x": 243,
      "y": 373,
      "size": 1,
      "price": "1011000000000000000000",
      "reserved": "",
      "salt": "0x53cace11646e636427fc4b461546f770d7abf539af45e073dc3b221ecec7edd5",
      "assetIds": []
    },
    {
      "x": 243,
      "y": 374,
      "size": 1,
      "price": "1011000000000000000000",
      "reserved": "",
      "salt": "0x28abf70d73cdcc42b80b9ed6075802e292b7f783f41cd527173ee616045fedef",
      "assetIds": []
    },
    {
      "x": 243,
      "y": 375,
      "size": 1,
      "price": "1011000000000000000000",
      "reserved": "",
      "salt": "0x8892733dc46d73cfcd87bbc3bba1138c1a21fecd6f097a36f87cf3b04c06ece4",
      "assetIds": []
    },
    {
      "x": 243,
      "y": 376,
      "size": 1,
      "price": "1011000000000000000000",
      "reserved": "",
      "salt": "0x3775e3757803c1ca60339483db389c628f5da383ff674d9b7457e10413946a01",
      "assetIds": []
    },
    {
      "x": 243,
      "y": 377,
      "size": 1,
      "price": "1011000000000000000000",
      "reserved": "",
      "salt": "0x243b9e004c2c12f6be01aa85b28856806df4705b391a91a86e10e8105fe9deb5",
      "assetIds": []
    },
    {
      "x": 243,
      "y": 378,
      "size": 1,
      "price": "1011000000000000000000",
      "reserved": "",
      "salt": "0x8bace9cca6c51dce228c033ce9decf12c13170d8c1e25b7ce12c4a389ec3a8ce",
      "assetIds": []
    },
    {
      "x": 243,
      "y": 379,
      "size": 1,
      "price": "1011000000000000000000",
      "reserved": "0x7a9fe22691c811ea339d9b73150e6911a5343dca",
      "salt": "0x4170437b8cf7307a79ce1b6e3190d5517ba12559c42f0841e0902517786db5b6",
      "assetIds": []
    },
    {
      "x": 243,
      "y": 380,
      "size": 1,
      "price": "1011000000000000000000",
      "reserved": "",
      "salt": "0xb9ffa8c9cf67f8a1a47c93ad58563597e07ccccb1b24951dd026491da6a2d409",
      "assetIds": []
    },
    {
      "x": 243,
      "y": 381,
      "size": 1,
      "price": "1011000000000000000000",
      "reserved": "",
      "salt": "0xcf37bf9af52961c7e545a2813717a25a2be1bb9cb2f2c85b0d298c1669e79bd9",
      "assetIds": []
    },
    {
      "x": 243,
      "y": 382,
      "size": 1,
      "price": "4683000000000000000000",
      "reserved": "",
      "salt": "0xf7d4d8f450f1408b6b8b4cec34221c290ba75b219a6ad79a22dd157d9f6bef73",
      "assetIds": [
        "55464657044963196816950587289035428064568320970692304673817341489687790884865",
        "55464657044963196816950587289035428064568320970692304673817341489687782494208",
        "55464657044963196816950587289035428064568320970692304673817341489687790884866",
        "55464657044963196816950587289035428064568320970692304673817341489687782494209",
        "55464657044963196816950587289035428064568320970692304673817341489687790884864"
      ]
    },
    {
      "x": 243,
      "y": 383,
      "size": 1,
      "price": "4683000000000000000000",
      "reserved": "",
      "salt": "0x93d0a29fcd623dd5f7b8044814229cebb32589b537ec403e478277533c10e5f0",
      "assetIds": [
        "55464657044963196816950587289035428064568320970692304673817341489687790884865",
        "55464657044963196816950587289035428064568320970692304673817341489687782494208",
        "55464657044963196816950587289035428064568320970692304673817341489687790884866",
        "55464657044963196816950587289035428064568320970692304673817341489687782494209",
        "55464657044963196816950587289035428064568320970692304673817341489687790884864"
      ]
    },
    {
      "x": 243,
      "y": 399,
      "size": 1,
      "price": "1011000000000000000000",
      "reserved": "0x7a9fe22691c811ea339d9b73150e6911a5343dca",
      "salt": "0xdbad3aa75ad601b0ded774c2e40d7167614a7d8d8bf344abe1a9cef8c99cef6e",
      "assetIds": []
    },
    {
      "x": 243,
      "y": 400,
      "size": 1,
      "price": "1011000000000000000000",
      "reserved": "",
      "salt": "0xd8e13d472dca287afa354a02bbe69a22782477543c16f65fa31bb5f0fcd41dcc",
      "assetIds": []
    },
    {
      "x": 243,
      "y": 401,
      "size": 1,
      "price": "1011000000000000000000",
      "reserved": "",
      "salt": "0x030307a817ed9afb27a9ce8a8c8791ebcd9e819b05625f7c75083058696b6c08",
      "assetIds": []
    },
    {
      "x": 243,
      "y": 402,
      "size": 1,
      "price": "1011000000000000000000",
      "reserved": "",
      "salt": "0x96ec353a37f9565fe2c031aee59fb4ecb93a7e2725bf4242b5279a159a570f00",
      "assetIds": []
    },
    {
      "x": 243,
      "y": 403,
      "size": 1,
      "price": "1011000000000000000000",
      "reserved": "",
      "salt": "0x37d351b830d9156b788d6f1c1479e33e29e588b5a920906dc1dc148351483626",
      "assetIds": []
    },
    {
      "x": 243,
      "y": 404,
      "size": 1,
      "price": "1011000000000000000000",
      "reserved": "",
      "salt": "0xfcfa9bf222536da576f953400646753150dd340ae1eb2b7bf8fe21b290939588",
      "assetIds": []
    },
    {
      "x": 243,
      "y": 405,
      "size": 1,
      "price": "1011000000000000000000",
      "reserved": "",
      "salt": "0x237e49cefb384bf3bbb3d8adb5010151c3b47bf8b7b2af53344c3165d0dd3e16",
      "assetIds": []
    },
    {
      "x": 243,
      "y": 406,
      "size": 1,
      "price": "1011000000000000000000",
      "reserved": "",
      "salt": "0x7c54bf109fe50f2af0611f858a371c7b56b0ddee63bf614f70e5801ff0819a9b",
      "assetIds": []
    },
    {
      "x": 243,
      "y": 407,
      "size": 1,
      "price": "1011000000000000000000",
      "reserved": "",
      "salt": "0x4d842089f94e372cc7ef1bd94fe8fd253f96502b18ffbcc229fbc925dfce2d88",
      "assetIds": []
    },
    {
      "x": 244,
      "y": 360,
      "size": 1,
      "price": "4683000000000000000000",
      "reserved": "",
      "salt": "0xf3e9e60b4caaaf5dc405af64a0e336d6509ec22966e88cc0628da5cb343572cd",
      "assetIds": [
        "55464657044963196816950587289035428064568320970692304673817341489687790884865",
        "55464657044963196816950587289035428064568320970692304673817341489687782494208",
        "55464657044963196816950587289035428064568320970692304673817341489687790884866",
        "55464657044963196816950587289035428064568320970692304673817341489687782494209",
        "55464657044963196816950587289035428064568320970692304673817341489687790884864"
      ]
    },
    {
      "x": 244,
      "y": 361,
      "size": 1,
      "price": "1011000000000000000000",
      "reserved": "",
      "salt": "0xbf1ab853adafef040682837a61e081db0c13967e6d82065ab5c4d2a84982741d",
      "assetIds": []
    },
    {
      "x": 244,
      "y": 362,
      "size": 1,
      "price": "1011000000000000000000",
      "reserved": "",
      "salt": "0x4dbbe116aef63d9994e02f7ad08257c3e9ce6110813fc7f92829c1ff4d5add05",
      "assetIds": []
    },
    {
      "x": 244,
      "y": 363,
      "size": 1,
      "price": "1011000000000000000000",
      "reserved": "",
      "salt": "0x8ce5176b1a9f19d6219f6324cd9dfcb284e937bc73b27d179914d105230a91b1",
      "assetIds": []
    },
    {
      "x": 244,
      "y": 364,
      "size": 1,
      "price": "1011000000000000000000",
      "reserved": "",
      "salt": "0xaf24332e6f14a2e1ca8213121e1f30710b04ada7b346669270f2c5b2e6b0d796",
      "assetIds": []
    },
    {
      "x": 244,
      "y": 365,
      "size": 1,
      "price": "1011000000000000000000",
      "reserved": "",
      "salt": "0xd02736dac70c5810b1b2f0fe570be2e4166abc2f4515d1d2bc7ebbd203919166",
      "assetIds": []
    },
    {
      "x": 244,
      "y": 366,
      "size": 1,
      "price": "1011000000000000000000",
      "reserved": "",
      "salt": "0x02c18703de99b535c69c136e6bb1c00eaad1bb4fce00c4fc0893b38a19b7d682",
      "assetIds": []
    },
    {
      "x": 244,
      "y": 367,
      "size": 1,
      "price": "1011000000000000000000",
      "reserved": "0x7a9fe22691c811ea339d9b73150e6911a5343dca",
      "salt": "0xf9812478beb9bb661eb84c2227355d3500ed8e845522e9530c107f47c5644de5",
      "assetIds": []
    },
    {
      "x": 244,
      "y": 368,
      "size": 1,
      "price": "1011000000000000000000",
      "reserved": "",
      "salt": "0x71aaff2c139a3ee0e00f845576ac7b02b0bc350d685ed2fd73cb021ddeff9a6a",
      "assetIds": []
    },
    {
      "x": 244,
      "y": 369,
      "size": 1,
      "price": "1011000000000000000000",
      "reserved": "",
      "salt": "0xb6a906efb909032ec16bf64994e3b7a192c655f25843f38976ae39d007b1bdcd",
      "assetIds": []
    },
    {
      "x": 244,
      "y": 370,
      "size": 1,
      "price": "1011000000000000000000",
      "reserved": "0x7a9fe22691c811ea339d9b73150e6911a5343dca",
      "salt": "0xc7817332bd3f040e986ce2ad745b9b79008ec3f79197a7f6c50f35f231dbba7d",
      "assetIds": []
    },
    {
      "x": 244,
      "y": 371,
      "size": 1,
      "price": "1011000000000000000000",
      "reserved": "",
      "salt": "0x1178d5993760ac965d4ab9a6ce332c0c9bb49c06da92ce405559c768527bbb90",
      "assetIds": []
    },
    {
      "x": 244,
      "y": 372,
      "size": 1,
      "price": "1011000000000000000000",
      "reserved": "",
      "salt": "0x7c878afcd43fec52d3683630bf0dec8b7c0cc01cf9cfc01e028a4605b3a38878",
      "assetIds": []
    },
    {
      "x": 244,
      "y": 373,
      "size": 1,
      "price": "1011000000000000000000",
      "reserved": "0x7a9fe22691c811ea339d9b73150e6911a5343dca",
      "salt": "0x0a899b5c516ec7740977b648cf884b82d551a59c38f4605f3f100dde9356f986",
      "assetIds": []
    },
    {
      "x": 244,
      "y": 374,
      "size": 1,
      "price": "1011000000000000000000",
      "reserved": "",
      "salt": "0x2ed9138372e1ed8eadf7984279d72ecbfb26b6c8bb61e82aafd53ceb5c9df6d4",
      "assetIds": []
    },
    {
      "x": 244,
      "y": 375,
      "size": 1,
      "price": "1011000000000000000000",
      "reserved": "0x7a9fe22691c811ea339d9b73150e6911a5343dca",
      "salt": "0x6d5368f953eb0902f62ff6b9c2d9b424000c2d15f7cfc43191bf5fdca76bd4f9",
      "assetIds": []
    },
    {
      "x": 244,
      "y": 376,
      "size": 1,
      "price": "1011000000000000000000",
      "reserved": "0x7a9fe22691c811ea339d9b73150e6911a5343dca",
      "salt": "0x2cac07af639cf3a4d8c1974f335901a61ee46b48903e4d3551009bc13a25448a",
      "assetIds": []
    },
    {
      "x": 244,
      "y": 377,
      "size": 1,
      "price": "1011000000000000000000",
      "reserved": "",
      "salt": "0x4f1e4ae68874d9e3e8e5ce0143d4018eaf5f6877028c7de9ab396819440076ff",
      "assetIds": []
    },
    {
      "x": 244,
      "y": 378,
      "size": 1,
      "price": "1011000000000000000000",
      "reserved": "",
      "salt": "0x3bfab3f139def54ba05b964a399a58a4c32323141b8d4c6d286ee49560d13ada",
      "assetIds": []
    },
    {
      "x": 244,
      "y": 379,
      "size": 1,
      "price": "1011000000000000000000",
      "reserved": "",
      "salt": "0x1956e291fe67699536049f828417bbc82e61660178807770f435deb67de8b049",
      "assetIds": []
    },
    {
      "x": 244,
      "y": 380,
      "size": 1,
      "price": "1011000000000000000000",
      "reserved": "",
      "salt": "0x43153130f716adbebb7012bd8754547102371992af817594bc3c460577951992",
      "assetIds": []
    },
    {
      "x": 244,
      "y": 381,
      "size": 1,
      "price": "4683000000000000000000",
      "reserved": "",
      "salt": "0xbe72cdb77074ee850319215d6cffb88439e5ce3f7f6bc05b33c5fb1106cb538e",
      "assetIds": [
        "55464657044963196816950587289035428064568320970692304673817341489687790884865",
        "55464657044963196816950587289035428064568320970692304673817341489687782494208",
        "55464657044963196816950587289035428064568320970692304673817341489687790884866",
        "55464657044963196816950587289035428064568320970692304673817341489687782494209",
        "55464657044963196816950587289035428064568320970692304673817341489687790884864"
      ]
    },
    {
      "x": 244,
      "y": 382,
      "size": 1,
      "price": "4683000000000000000000",
      "reserved": "",
      "salt": "0x2d2fcda19bf5e6e24c8c693f621e821a56a45cb3ab538ad68b125d0edaba0a90",
      "assetIds": [
        "55464657044963196816950587289035428064568320970692304673817341489687790884865",
        "55464657044963196816950587289035428064568320970692304673817341489687782494208",
        "55464657044963196816950587289035428064568320970692304673817341489687790884866",
        "55464657044963196816950587289035428064568320970692304673817341489687782494209",
        "55464657044963196816950587289035428064568320970692304673817341489687790884864"
      ]
    },
    {
      "x": 244,
      "y": 383,
      "size": 1,
      "price": "4683000000000000000000",
      "reserved": "",
      "salt": "0xb4533a5aeab67d2605bc679320b97d768890210b527c2666c3a5bd9e16e98dc5",
      "assetIds": [
        "55464657044963196816950587289035428064568320970692304673817341489687790884865",
        "55464657044963196816950587289035428064568320970692304673817341489687782494208",
        "55464657044963196816950587289035428064568320970692304673817341489687790884866",
        "55464657044963196816950587289035428064568320970692304673817341489687782494209",
        "55464657044963196816950587289035428064568320970692304673817341489687790884864"
      ]
    },
    {
      "x": 244,
      "y": 399,
      "size": 1,
      "price": "1011000000000000000000",
      "reserved": "",
      "salt": "0xbcbbf6241904b449282fe6cdd46b815ebe97b7e29810f63b01632bf708270086",
      "assetIds": []
    },
    {
      "x": 244,
      "y": 400,
      "size": 1,
      "price": "1011000000000000000000",
      "reserved": "",
      "salt": "0x12f10f91d19cb972fb8831429ad28510a784f6cdb5b16a168edcb84579c659b1",
      "assetIds": []
    },
    {
      "x": 244,
      "y": 401,
      "size": 1,
      "price": "1011000000000000000000",
      "reserved": "",
      "salt": "0x0ec83f6940f88031eb1b63d1755bc6ae45ecc1a8dbbe7707675f9123b904e065",
      "assetIds": []
    },
    {
      "x": 244,
      "y": 402,
      "size": 1,
      "price": "1011000000000000000000",
      "reserved": "",
      "salt": "0x30d0031597fe8724dd8d34e4b8b40e563b844ccce969c5f41c7c050435b13286",
      "assetIds": []
    },
    {
      "x": 244,
      "y": 403,
      "size": 1,
      "price": "1011000000000000000000",
      "reserved": "",
      "salt": "0xab91c7c47d3af1e04d6d8a39d13c46f03d5a9ef6a64598f00963612f0e466ea1",
      "assetIds": []
    },
    {
      "x": 244,
      "y": 404,
      "size": 1,
      "price": "1011000000000000000000",
      "reserved": "",
      "salt": "0xbd25b9007483921d423b8efbc842ae610ea8d36a51417e25666b5548426f4479",
      "assetIds": []
    },
    {
      "x": 244,
      "y": 405,
      "size": 1,
      "price": "1011000000000000000000",
      "reserved": "0x7a9fe22691c811ea339d9b73150e6911a5343dca",
      "salt": "0x2723e25a9c5ee646dbb61eeae0d2d43144c4687dbd9b3d345c6f45a0329ce2a9",
      "assetIds": []
    },
    {
      "x": 244,
      "y": 406,
      "size": 1,
      "price": "1011000000000000000000",
      "reserved": "",
      "salt": "0x3f76734606f8ab7711f7e36592dbc92b62560d700c2e0e1d3c5e98a990343f72",
      "assetIds": []
    },
    {
      "x": 244,
      "y": 407,
      "size": 1,
      "price": "1011000000000000000000",
      "reserved": "",
      "salt": "0x1f1d77be34bcf100a41075e27d5315b904dc4e0a980439d761aa1f4a186f18d4",
      "assetIds": []
    },
    {
      "x": 245,
      "y": 360,
      "size": 1,
      "price": "4683000000000000000000",
      "reserved": "",
      "salt": "0xeb2025be6e91bd892d3867083449316e19c61dd9b43268904f3ba2a4a80f99c8",
      "assetIds": [
        "55464657044963196816950587289035428064568320970692304673817341489687790884865",
        "55464657044963196816950587289035428064568320970692304673817341489687782494208",
        "55464657044963196816950587289035428064568320970692304673817341489687790884866",
        "55464657044963196816950587289035428064568320970692304673817341489687782494209",
        "55464657044963196816950587289035428064568320970692304673817341489687790884864"
      ]
    },
    {
      "x": 245,
      "y": 361,
      "size": 1,
      "price": "1011000000000000000000",
      "reserved": "0x7a9fe22691c811ea339d9b73150e6911a5343dca",
      "salt": "0x26178f4bc7a0716adea2fd3122600fd58dd5a2b252af41c3b69f234bffb8d57e",
      "assetIds": []
    },
    {
      "x": 245,
      "y": 362,
      "size": 1,
      "price": "1011000000000000000000",
      "reserved": "",
      "salt": "0x2a915bf92a381b949cc5521784867235e78e5e1761505a9cf5b21b04a814e77d",
      "assetIds": []
    },
    {
      "x": 245,
      "y": 363,
      "size": 1,
      "price": "1011000000000000000000",
      "reserved": "",
      "salt": "0x71306ec11c1475064f8777a34b7b72b4ccedd6dbf383593b7354f98827c1687b",
      "assetIds": []
    },
    {
      "x": 245,
      "y": 364,
      "size": 1,
      "price": "1011000000000000000000",
      "reserved": "",
      "salt": "0x4b3df6d56acdf09f47f9f07f62e045e69f9af5c0d74c2c586c921873ad712bbd",
      "assetIds": []
    },
    {
      "x": 245,
      "y": 365,
      "size": 1,
      "price": "1011000000000000000000",
      "reserved": "",
      "salt": "0x469f5b253425e6990d1baa39ac6fd5b292be11138484546190812507e8498b3a",
      "assetIds": []
    },
    {
      "x": 245,
      "y": 366,
      "size": 1,
      "price": "1011000000000000000000",
      "reserved": "",
      "salt": "0x17e4abb011e722b5c83ed35d91fed953dbe0f2263de951136ca54ea5e92104b1",
      "assetIds": []
    },
    {
      "x": 245,
      "y": 367,
      "size": 1,
      "price": "1011000000000000000000",
      "reserved": "",
      "salt": "0xa888b86869110a517bbb5666387c3774e271ad12121e19d055bbff3f971d8241",
      "assetIds": []
    },
    {
      "x": 245,
      "y": 368,
      "size": 1,
      "price": "1011000000000000000000",
      "reserved": "",
      "salt": "0xa43f5871e78a8cc2afdc8e0c46a623ce5315a1c1f43207c7c797147e3dfdea58",
      "assetIds": []
    },
    {
      "x": 245,
      "y": 369,
      "size": 1,
      "price": "1011000000000000000000",
      "reserved": "",
      "salt": "0xe3113f0d2f9aadf71d29b1cf82d9976bbedee425528fb269ec2e31ac62b9abc7",
      "assetIds": []
    },
    {
      "x": 245,
      "y": 370,
      "size": 1,
      "price": "1011000000000000000000",
      "reserved": "",
      "salt": "0x7c2f493dab2350866e4d2c2ce8444acbb797cb2067b653697882a5bb35ceac1c",
      "assetIds": []
    },
    {
      "x": 245,
      "y": 371,
      "size": 1,
      "price": "1011000000000000000000",
      "reserved": "",
      "salt": "0xbe8b941e0d369993750dfb2b6ba9cdaef23e837fcab8fb554669e8dd777ef7bc",
      "assetIds": []
    },
    {
      "x": 245,
      "y": 372,
      "size": 1,
      "price": "1011000000000000000000",
      "reserved": "",
      "salt": "0xfabfc1e47d15ee36e322c8037bd42c0621862c2353cc8092fb6a2e057f758de2",
      "assetIds": []
    },
    {
      "x": 245,
      "y": 373,
      "size": 1,
      "price": "1011000000000000000000",
      "reserved": "0x7a9fe22691c811ea339d9b73150e6911a5343dca",
      "salt": "0x99a980c77de9a3f85a483ae2254d52b39c9369891c191fd7b269caca09072d12",
      "assetIds": []
    },
    {
      "x": 245,
      "y": 374,
      "size": 1,
      "price": "1011000000000000000000",
      "reserved": "",
      "salt": "0xa4dbb82fd7b8cf2592e90f7c04f9ae87b8d810de057ada6750b7185b16ade49b",
      "assetIds": []
    },
    {
      "x": 245,
      "y": 375,
      "size": 1,
      "price": "1011000000000000000000",
      "reserved": "",
      "salt": "0x9fad58a1cb70c99453ace2c85bd7ac8e4ec1cc67eb274b26aada6d24cd329e40",
      "assetIds": []
    },
    {
      "x": 245,
      "y": 376,
      "size": 1,
      "price": "1011000000000000000000",
      "reserved": "",
      "salt": "0x6199973af5e5a86ab66837d91705359fbae0f616e1eeb7bfd6ec62e66706a976",
      "assetIds": []
    },
    {
      "x": 245,
      "y": 377,
      "size": 1,
      "price": "1011000000000000000000",
      "reserved": "",
      "salt": "0xd1602134fefd0bf9dda412a69c9a5d50dfadabb075b37546f9090f3bef970a95",
      "assetIds": []
    },
    {
      "x": 245,
      "y": 378,
      "size": 1,
      "price": "1011000000000000000000",
      "reserved": "",
      "salt": "0x9143a69aee79da88cf0aa6475fe50ae7d94094dbbf9c4797a77f844dbab2dc87",
      "assetIds": []
    },
    {
      "x": 245,
      "y": 379,
      "size": 1,
      "price": "1011000000000000000000",
      "reserved": "",
      "salt": "0x9b8a6f2d8e8495fe5eac73d866b139d46c4c78264267b46e716ffac54602e9a4",
      "assetIds": []
    },
    {
      "x": 245,
      "y": 380,
      "size": 1,
      "price": "1011000000000000000000",
      "reserved": "",
      "salt": "0xefd382ca84cef7631db6aab3f4e69e9baf2a2c49f6102b1f355ca56ee36279ae",
      "assetIds": []
    },
    {
      "x": 245,
      "y": 381,
      "size": 1,
      "price": "4683000000000000000000",
      "reserved": "",
      "salt": "0x0568862c8af99732d7f2efe9f84d6dd1588e83e33df352a269a20cbb23e1afd2",
      "assetIds": [
        "55464657044963196816950587289035428064568320970692304673817341489687790884865",
        "55464657044963196816950587289035428064568320970692304673817341489687782494208",
        "55464657044963196816950587289035428064568320970692304673817341489687790884866",
        "55464657044963196816950587289035428064568320970692304673817341489687782494209",
        "55464657044963196816950587289035428064568320970692304673817341489687790884864"
      ]
    },
    {
      "x": 245,
      "y": 382,
      "size": 1,
      "price": "4683000000000000000000",
      "reserved": "",
      "salt": "0xf9a90effb52dade5a221036bf0072a8e3635e61b98617381c63a8881603af60d",
      "assetIds": [
        "55464657044963196816950587289035428064568320970692304673817341489687790884865",
        "55464657044963196816950587289035428064568320970692304673817341489687782494208",
        "55464657044963196816950587289035428064568320970692304673817341489687790884866",
        "55464657044963196816950587289035428064568320970692304673817341489687782494209",
        "55464657044963196816950587289035428064568320970692304673817341489687790884864"
      ]
    },
    {
      "x": 245,
      "y": 383,
      "size": 1,
      "price": "4683000000000000000000",
      "reserved": "",
      "salt": "0xe886545658ea71a4b630ba02aaac4ff768affda33b608a0da1a94a16345a341f",
      "assetIds": [
        "55464657044963196816950587289035428064568320970692304673817341489687790884865",
        "55464657044963196816950587289035428064568320970692304673817341489687782494208",
        "55464657044963196816950587289035428064568320970692304673817341489687790884866",
        "55464657044963196816950587289035428064568320970692304673817341489687782494209",
        "55464657044963196816950587289035428064568320970692304673817341489687790884864"
      ]
    },
    {
      "x": 245,
      "y": 399,
      "size": 1,
      "price": "1011000000000000000000",
      "reserved": "0x7a9fe22691c811ea339d9b73150e6911a5343dca",
      "salt": "0xe1814a1e054357631beb8cd628c3c87635a27bf72db2265abaf1b4fbd21eb0d7",
      "assetIds": []
    },
    {
      "x": 245,
      "y": 400,
      "size": 1,
      "price": "1011000000000000000000",
      "reserved": "",
      "salt": "0x6577168f822b1bc12dec73e5cf4fc1ccfbd9c036818a452ef3879d80bc6dac14",
      "assetIds": []
    },
    {
      "x": 245,
      "y": 401,
      "size": 1,
      "price": "1011000000000000000000",
      "reserved": "0x7a9fe22691c811ea339d9b73150e6911a5343dca",
      "salt": "0x1dfdc548db6b711c6d518ca79665f811ffc08a4241981e29610c7e92878e1349",
      "assetIds": []
    },
    {
      "x": 245,
      "y": 402,
      "size": 1,
      "price": "1011000000000000000000",
      "reserved": "",
      "salt": "0x3aa216a9374c1f0be5bb7910de80c2e79b8a1161d571c22d83e7b7166628b8f7",
      "assetIds": []
    },
    {
      "x": 245,
      "y": 403,
      "size": 1,
      "price": "1011000000000000000000",
      "reserved": "0x7a9fe22691c811ea339d9b73150e6911a5343dca",
      "salt": "0x60c4f49432ee57969591e5e4ee4629c95fd804da624df5128950918f51cff8a7",
      "assetIds": []
    },
    {
      "x": 245,
      "y": 404,
      "size": 1,
      "price": "1011000000000000000000",
      "reserved": "",
      "salt": "0x1bf066e75798d973c6ad6d2724ae64dd46109f3c7b3d0365a2b77137ae3b2f26",
      "assetIds": []
    },
    {
      "x": 245,
      "y": 405,
      "size": 1,
      "price": "1011000000000000000000",
      "reserved": "",
      "salt": "0x88d7d22f990bd6d8534208b60369612163e226e9b07418b821b36b18b1f7826b",
      "assetIds": []
    },
    {
      "x": 245,
      "y": 406,
      "size": 1,
      "price": "1011000000000000000000",
      "reserved": "",
      "salt": "0x9f4bb28ad8be1a7fc01db0fe1ae1b48547422a636791738a7af8977c2115041a",
      "assetIds": []
    },
    {
      "x": 245,
      "y": 407,
      "size": 1,
      "price": "1011000000000000000000",
      "reserved": "",
      "salt": "0xd0f7eb774de5bda52f0d7391f647d40fe95971c6ebf5a8c7d98c3f12e5326395",
      "assetIds": []
    },
    {
      "x": 246,
      "y": 360,
      "size": 1,
      "price": "4683000000000000000000",
      "reserved": "",
      "salt": "0xfa8b27c89f7a67ffe0cb76445b6b9f3d57490ec6740ffd79c828e76f6eeb4852",
      "assetIds": [
        "55464657044963196816950587289035428064568320970692304673817341489687790884865",
        "55464657044963196816950587289035428064568320970692304673817341489687782494208",
        "55464657044963196816950587289035428064568320970692304673817341489687790884866",
        "55464657044963196816950587289035428064568320970692304673817341489687782494209",
        "55464657044963196816950587289035428064568320970692304673817341489687790884864"
      ]
    },
    {
      "x": 246,
      "y": 361,
      "size": 1,
      "price": "1011000000000000000000",
      "reserved": "",
      "salt": "0x560e05e704f660906f98ab8661790af22438154c232f907cb5d47e8ff15815e8",
      "assetIds": []
    },
    {
      "x": 246,
      "y": 362,
      "size": 1,
      "price": "1011000000000000000000",
      "reserved": "",
      "salt": "0xbae3e7f01f7af1a9195038a9ed30b78ac57fa74caf3e0722b3d45dfaa60fde58",
      "assetIds": []
    },
    {
      "x": 246,
      "y": 363,
      "size": 1,
      "price": "1011000000000000000000",
      "reserved": "",
      "salt": "0x20a01a4873b0ab8d39f4e9151bd391dbaa0c5076af334ecf335ded4d14700e92",
      "assetIds": []
    },
    {
      "x": 246,
      "y": 364,
      "size": 1,
      "price": "1011000000000000000000",
      "reserved": "",
      "salt": "0xd668e7903dcc066e6be2a50e23f5ab4b2e7bb3b00eec86662de404a24c70fa2d",
      "assetIds": []
    },
    {
      "x": 246,
      "y": 365,
      "size": 1,
      "price": "1011000000000000000000",
      "reserved": "",
      "salt": "0x17957ebfa4616b4cc2adb7e10833d1cc19269fca55ea104ea40e3d8cabc27f7f",
      "assetIds": []
    },
    {
      "x": 246,
      "y": 372,
      "size": 1,
      "price": "1011000000000000000000",
      "reserved": "",
      "salt": "0x3c3bbd797df243d8e49a1de752df0be19f8aca748cc22525a0ca3060d378d8d7",
      "assetIds": []
    },
    {
      "x": 246,
      "y": 373,
      "size": 1,
      "price": "1011000000000000000000",
      "reserved": "",
      "salt": "0x2b382181e07bc8b0df12bb754747ab493c53d98dd1f05bc102d9be2a43190e19",
      "assetIds": []
    },
    {
      "x": 246,
      "y": 374,
      "size": 1,
      "price": "1011000000000000000000",
      "reserved": "",
      "salt": "0xd4f940fe5c6b13eaf870ddae08caad5bd49932235f02dd7036b09a80616d4f35",
      "assetIds": []
    },
    {
      "x": 246,
      "y": 375,
      "size": 1,
      "price": "1011000000000000000000",
      "reserved": "",
      "salt": "0x787a344e86487aa0cac1c22570e818102fa8c3ea08f8484b27a9beb203f8bc54",
      "assetIds": []
    },
    {
      "x": 246,
      "y": 376,
      "size": 1,
      "price": "1011000000000000000000",
      "reserved": "",
      "salt": "0xdeb13c48026bcc645ef2e7fa74c021ce7dd74aa190349f405663d1d41a9f62f7",
      "assetIds": []
    },
    {
      "x": 246,
      "y": 377,
      "size": 1,
      "price": "1011000000000000000000",
      "reserved": "",
      "salt": "0x06d863573f073dc89aabfd6ef55fa49da6c012eea4ecbf8ea61dd4e7cef4d294",
      "assetIds": []
    },
    {
      "x": 246,
      "y": 378,
      "size": 1,
      "price": "1011000000000000000000",
      "reserved": "",
      "salt": "0xae645401bf8ae16a2776210eda0bf28b75a8e71ab722a28077d281d726678196",
      "assetIds": []
    },
    {
      "x": 246,
      "y": 379,
      "size": 1,
      "price": "1011000000000000000000",
      "reserved": "",
      "salt": "0xac12048ef9f488f2c1bbc3bb7299e3ae8ad1e39ec9636e92e0be26136239c801",
      "assetIds": []
    },
    {
      "x": 246,
      "y": 380,
      "size": 1,
      "price": "1011000000000000000000",
      "reserved": "",
      "salt": "0x9e6657791540103cc7c6209f4eb93a64609e01824beeee16f142511fe8fb5eee",
      "assetIds": []
    },
    {
      "x": 246,
      "y": 381,
      "size": 1,
      "price": "4683000000000000000000",
      "reserved": "",
      "salt": "0x7656dc42cd22e8ea5bbdb6ac2c4ed0a03c7e201b59a96c7c2a3d1c19fd27e904",
      "assetIds": [
        "55464657044963196816950587289035428064568320970692304673817341489687790884865",
        "55464657044963196816950587289035428064568320970692304673817341489687782494208",
        "55464657044963196816950587289035428064568320970692304673817341489687790884866",
        "55464657044963196816950587289035428064568320970692304673817341489687782494209",
        "55464657044963196816950587289035428064568320970692304673817341489687790884864"
      ]
    },
    {
      "x": 246,
      "y": 382,
      "size": 1,
      "price": "4683000000000000000000",
      "reserved": "",
      "salt": "0xc67b2619b406a242d5a20d90dd529dd785a22fe8e6d729b30f9e13b4d035ce57",
      "assetIds": [
        "55464657044963196816950587289035428064568320970692304673817341489687790884865",
        "55464657044963196816950587289035428064568320970692304673817341489687782494208",
        "55464657044963196816950587289035428064568320970692304673817341489687790884866",
        "55464657044963196816950587289035428064568320970692304673817341489687782494209",
        "55464657044963196816950587289035428064568320970692304673817341489687790884864"
      ]
    },
    {
      "x": 246,
      "y": 383,
      "size": 1,
      "price": "4683000000000000000000",
      "reserved": "",
      "salt": "0xf97247f37e1488f6d962ffab79168efc597d569c9932239903e96e132092757f",
      "assetIds": [
        "55464657044963196816950587289035428064568320970692304673817341489687790884865",
        "55464657044963196816950587289035428064568320970692304673817341489687782494208",
        "55464657044963196816950587289035428064568320970692304673817341489687790884866",
        "55464657044963196816950587289035428064568320970692304673817341489687782494209",
        "55464657044963196816950587289035428064568320970692304673817341489687790884864"
      ]
    },
    {
      "x": 246,
      "y": 396,
      "size": 1,
      "price": "4683000000000000000000",
      "reserved": "",
      "salt": "0x284e83b70592ef72584d8a49a3c1684700ce349091e0de51d5142ba71a679e7a",
      "assetIds": [
        "55464657044963196816950587289035428064568320970692304673817341489687790884865",
        "55464657044963196816950587289035428064568320970692304673817341489687782494208",
        "55464657044963196816950587289035428064568320970692304673817341489687790884866",
        "55464657044963196816950587289035428064568320970692304673817341489687782494209",
        "55464657044963196816950587289035428064568320970692304673817341489687790884864"
      ]
    },
    {
      "x": 246,
      "y": 397,
      "size": 1,
      "price": "4683000000000000000000",
      "reserved": "",
      "salt": "0x27948aa72c5787e2f6f3159645fda47c53eee900e3c8d825cc163620c608ea16",
      "assetIds": [
        "55464657044963196816950587289035428064568320970692304673817341489687790884865",
        "55464657044963196816950587289035428064568320970692304673817341489687782494208",
        "55464657044963196816950587289035428064568320970692304673817341489687790884866",
        "55464657044963196816950587289035428064568320970692304673817341489687782494209",
        "55464657044963196816950587289035428064568320970692304673817341489687790884864"
      ]
    },
    {
      "x": 246,
      "y": 398,
      "size": 1,
      "price": "4683000000000000000000",
      "reserved": "",
      "salt": "0x4b77affcaecd612275c2896478611f432db64f8b2606407d5ed4ac53e18461fc",
      "assetIds": [
        "55464657044963196816950587289035428064568320970692304673817341489687790884865",
        "55464657044963196816950587289035428064568320970692304673817341489687782494208",
        "55464657044963196816950587289035428064568320970692304673817341489687790884866",
        "55464657044963196816950587289035428064568320970692304673817341489687782494209",
        "55464657044963196816950587289035428064568320970692304673817341489687790884864"
      ]
    },
    {
      "x": 246,
      "y": 399,
      "size": 1,
      "price": "1011000000000000000000",
      "reserved": "",
      "salt": "0x4f9233400c35cbc45ba4ec374c53133e48e947a00e328d5548a820f89dc6ac6a",
      "assetIds": []
    },
    {
      "x": 246,
      "y": 400,
      "size": 1,
      "price": "1011000000000000000000",
      "reserved": "",
      "salt": "0x2c59e02d8f34a6eb05a65703eeda1610a23bf7dd54547090c1b114c579d96f3f",
      "assetIds": []
    },
    {
      "x": 246,
      "y": 401,
      "size": 1,
      "price": "1011000000000000000000",
      "reserved": "",
      "salt": "0xdedf5f7b1c76d8a466dd2d130572767e5304512fa33abf53e3e472bd4c45efaa",
      "assetIds": []
    },
    {
      "x": 246,
      "y": 402,
      "size": 1,
      "price": "1011000000000000000000",
      "reserved": "",
      "salt": "0x148522af3df2fa8faf762d7903bc48b6aab1e58f9402d082d3052e156af2e1a4",
      "assetIds": []
    },
    {
      "x": 246,
      "y": 403,
      "size": 1,
      "price": "1011000000000000000000",
      "reserved": "",
      "salt": "0xe109b166aff0e81dfd215018db8428b4204f3e9a1fda04168fdc64c6bf735470",
      "assetIds": []
    },
    {
      "x": 246,
      "y": 404,
      "size": 1,
      "price": "1011000000000000000000",
      "reserved": "",
      "salt": "0x6e9f379d60d37cb8397e5215a3513109286199e90078349968b125ba0ccb1092",
      "assetIds": []
    },
    {
      "x": 246,
      "y": 405,
      "size": 1,
      "price": "1011000000000000000000",
      "reserved": "",
      "salt": "0x3eb46c04a3be6311d8a97e50a3be5eca2d93138130259e72d9fed8065b03e0df",
      "assetIds": []
    },
    {
      "x": 246,
      "y": 406,
      "size": 1,
      "price": "1011000000000000000000",
      "reserved": "",
      "salt": "0x539339ae07a019d0179bfb8475f11de5629ff731e980bbf9ae357db460f4dd4f",
      "assetIds": []
    },
    {
      "x": 246,
      "y": 407,
      "size": 1,
      "price": "1011000000000000000000",
      "reserved": "",
      "salt": "0x85b91397ed4aab60e14ce7adeac6077f8a4cc78e511653a0fa144c3b5db5b928",
      "assetIds": []
    },
    {
      "x": 247,
      "y": 360,
      "size": 1,
      "price": "4683000000000000000000",
      "reserved": "",
      "salt": "0x23c91c34e0f0b492779862d67b6b8150ea0773bb9e25a89bdde56b2e7269a505",
      "assetIds": [
        "55464657044963196816950587289035428064568320970692304673817341489687790884865",
        "55464657044963196816950587289035428064568320970692304673817341489687782494208",
        "55464657044963196816950587289035428064568320970692304673817341489687790884866",
        "55464657044963196816950587289035428064568320970692304673817341489687782494209",
        "55464657044963196816950587289035428064568320970692304673817341489687790884864"
      ]
    },
    {
      "x": 247,
      "y": 361,
      "size": 1,
      "price": "1011000000000000000000",
      "reserved": "",
      "salt": "0xabb1b63cf8f4a6ccf305cceeb7b9370bb6a5f6b96275f395854ceb245aea3608",
      "assetIds": []
    },
    {
      "x": 247,
      "y": 362,
      "size": 1,
      "price": "1011000000000000000000",
      "reserved": "0x7a9fe22691c811ea339d9b73150e6911a5343dca",
      "salt": "0xf898aceb0c5de9fa46abab038c82ee0e822708d92889e6fafefc1229676fa98c",
      "assetIds": []
    },
    {
      "x": 247,
      "y": 363,
      "size": 1,
      "price": "1011000000000000000000",
      "reserved": "",
      "salt": "0x7d24252731573aefb842e5add68340b247278f27f2ba762c9db528e9e82ac534",
      "assetIds": []
    },
    {
      "x": 247,
      "y": 364,
      "size": 1,
      "price": "1011000000000000000000",
      "reserved": "0x7a9fe22691c811ea339d9b73150e6911a5343dca",
      "salt": "0xf73d9fb051fa42ae0656883c8a65355c00a3435679a376b5d595b82063f42f37",
      "assetIds": []
    },
    {
      "x": 247,
      "y": 365,
      "size": 1,
      "price": "1011000000000000000000",
      "reserved": "",
      "salt": "0xf897c0f0bc9b9e6a9b1f0bfd4f87ae3e102dddf097b01dfa49e0070e279f2406",
      "assetIds": []
    },
    {
      "x": 247,
      "y": 372,
      "size": 1,
      "price": "1011000000000000000000",
      "reserved": "",
      "salt": "0x0707400bf84f0c1396b79f22b33fb0e16dc3758708ded1a258a28d6fe904fec7",
      "assetIds": []
    },
    {
      "x": 247,
      "y": 373,
      "size": 1,
      "price": "1011000000000000000000",
      "reserved": "",
      "salt": "0x89a43b8b4f7f45ed835d4fb6c1d48c2c47051c7d1b37a71fedfd1d85be70873b",
      "assetIds": []
    },
    {
      "x": 247,
      "y": 374,
      "size": 1,
      "price": "1011000000000000000000",
      "reserved": "",
      "salt": "0x2286830a182e62004e7742dab1a1d5cacfdf88e78e7d12f3abbabd80214fc66e",
      "assetIds": []
    },
    {
      "x": 247,
      "y": 375,
      "size": 1,
      "price": "1011000000000000000000",
      "reserved": "0x7a9fe22691c811ea339d9b73150e6911a5343dca",
      "salt": "0x18db545b874595efb4b512a1b063af24b832f991f1977b34e87c64430bdcfae1",
      "assetIds": []
    },
    {
      "x": 247,
      "y": 376,
      "size": 1,
      "price": "1011000000000000000000",
      "reserved": "",
      "salt": "0x3fe79ea8c20ee14bc7f10afb74752cf59474b89d801ada58f7764cb8c546354a",
      "assetIds": []
    },
    {
      "x": 247,
      "y": 377,
      "size": 1,
      "price": "1011000000000000000000",
      "reserved": "",
      "salt": "0x88bd9839639c5a899ee90b7314c38a1eecd3dcd1e798e1372ae059dc7433d8f2",
      "assetIds": []
    },
    {
      "x": 247,
      "y": 378,
      "size": 1,
      "price": "1011000000000000000000",
      "reserved": "0x7a9fe22691c811ea339d9b73150e6911a5343dca",
      "salt": "0xdac1d86c1243361bcfcd8a8c2b2de56e3cd24c4cb792e67d0faff30018514118",
      "assetIds": []
    },
    {
      "x": 247,
      "y": 379,
      "size": 1,
      "price": "1011000000000000000000",
      "reserved": "",
      "salt": "0x8ce6a9636135b78c6cb4947c9cf30acb6a74de354bcdc57e2684cb6ccab62091",
      "assetIds": []
    },
    {
      "x": 247,
      "y": 380,
      "size": 1,
      "price": "1011000000000000000000",
      "reserved": "",
      "salt": "0xcd308f16005081a2b973a327f0f72317316971a553f002de90edaff2b6d1d860",
      "assetIds": []
    },
    {
      "x": 247,
      "y": 381,
      "size": 1,
      "price": "4683000000000000000000",
      "reserved": "",
      "salt": "0x9d19bd12a7c4f77f83d6ceecd37e532f3bb5b3242b517df3adc6c2b101742c58",
      "assetIds": [
        "55464657044963196816950587289035428064568320970692304673817341489687790884865",
        "55464657044963196816950587289035428064568320970692304673817341489687782494208",
        "55464657044963196816950587289035428064568320970692304673817341489687790884866",
        "55464657044963196816950587289035428064568320970692304673817341489687782494209",
        "55464657044963196816950587289035428064568320970692304673817341489687790884864"
      ]
    },
    {
      "x": 247,
      "y": 382,
      "size": 1,
      "price": "4683000000000000000000",
      "reserved": "",
      "salt": "0xfe517a70a7ef100384f7897757f21127d08879271a8cd69d317b945b20885e7c",
      "assetIds": [
        "55464657044963196816950587289035428064568320970692304673817341489687790884865",
        "55464657044963196816950587289035428064568320970692304673817341489687782494208",
        "55464657044963196816950587289035428064568320970692304673817341489687790884866",
        "55464657044963196816950587289035428064568320970692304673817341489687782494209",
        "55464657044963196816950587289035428064568320970692304673817341489687790884864"
      ]
    },
    {
      "x": 247,
      "y": 383,
      "size": 1,
      "price": "4683000000000000000000",
      "reserved": "",
      "salt": "0x4efbef2875fd2c7fd2315588471a6f6a6c56b3804e8978027843d4e6ea73b7c9",
      "assetIds": [
        "55464657044963196816950587289035428064568320970692304673817341489687790884865",
        "55464657044963196816950587289035428064568320970692304673817341489687782494208",
        "55464657044963196816950587289035428064568320970692304673817341489687790884866",
        "55464657044963196816950587289035428064568320970692304673817341489687782494209",
        "55464657044963196816950587289035428064568320970692304673817341489687790884864"
      ]
    },
    {
      "x": 247,
      "y": 396,
      "size": 1,
      "price": "4683000000000000000000",
      "reserved": "",
      "salt": "0xfa579ea764dfb422724b590a54c878c9f07e3a680c12175ed285851c901e5287",
      "assetIds": [
        "55464657044963196816950587289035428064568320970692304673817341489687790884865",
        "55464657044963196816950587289035428064568320970692304673817341489687782494208",
        "55464657044963196816950587289035428064568320970692304673817341489687790884866",
        "55464657044963196816950587289035428064568320970692304673817341489687782494209",
        "55464657044963196816950587289035428064568320970692304673817341489687790884864"
      ]
    },
    {
      "x": 247,
      "y": 397,
      "size": 1,
      "price": "4683000000000000000000",
      "reserved": "",
      "salt": "0x79e4be73593df5c803ab80e04e77fb013865b2835dd24991d934faee2039e691",
      "assetIds": [
        "55464657044963196816950587289035428064568320970692304673817341489687790884865",
        "55464657044963196816950587289035428064568320970692304673817341489687782494208",
        "55464657044963196816950587289035428064568320970692304673817341489687790884866",
        "55464657044963196816950587289035428064568320970692304673817341489687782494209",
        "55464657044963196816950587289035428064568320970692304673817341489687790884864"
      ]
    },
    {
      "x": 247,
      "y": 398,
      "size": 1,
      "price": "4683000000000000000000",
      "reserved": "",
      "salt": "0xf704c67101a59fcc3f17e90833e3a00745a2f0e2a231295787eb12473d805552",
      "assetIds": [
        "55464657044963196816950587289035428064568320970692304673817341489687790884865",
        "55464657044963196816950587289035428064568320970692304673817341489687782494208",
        "55464657044963196816950587289035428064568320970692304673817341489687790884866",
        "55464657044963196816950587289035428064568320970692304673817341489687782494209",
        "55464657044963196816950587289035428064568320970692304673817341489687790884864"
      ]
    },
    {
      "x": 247,
      "y": 399,
      "size": 1,
      "price": "4683000000000000000000",
      "reserved": "",
      "salt": "0x706f403c2bad649b76345d02094e0be90fd9209445c70a53214c2f102a31de9e",
      "assetIds": [
        "55464657044963196816950587289035428064568320970692304673817341489687790884865",
        "55464657044963196816950587289035428064568320970692304673817341489687782494208",
        "55464657044963196816950587289035428064568320970692304673817341489687790884866",
        "55464657044963196816950587289035428064568320970692304673817341489687782494209",
        "55464657044963196816950587289035428064568320970692304673817341489687790884864"
      ]
    },
    {
      "x": 247,
      "y": 400,
      "size": 1,
      "price": "1011000000000000000000",
      "reserved": "0x7a9fe22691c811ea339d9b73150e6911a5343dca",
      "salt": "0x77715005cae8c85908e4b5f995ab05ff4d96cdbe6e19cd9721999478d4387286",
      "assetIds": []
    },
    {
      "x": 247,
      "y": 401,
      "size": 1,
      "price": "1011000000000000000000",
      "reserved": "",
      "salt": "0x884a6fddde49157c3d1961f39fc8a15269f1e92f26161c6d203c0aa37453c2f5",
      "assetIds": []
    },
    {
      "x": 247,
      "y": 402,
      "size": 1,
      "price": "1011000000000000000000",
      "reserved": "",
      "salt": "0x1ff95b7aa87f1962fa2876c8ce27710c228bfb5c1da7e42b82c5014e72c9cbcf",
      "assetIds": []
    },
    {
      "x": 247,
      "y": 403,
      "size": 1,
      "price": "1011000000000000000000",
      "reserved": "",
      "salt": "0x453f9e88ba9dc6b56e8ae485f28eeb512b2173dd004f3342900948095c0f4bfb",
      "assetIds": []
    },
    {
      "x": 247,
      "y": 404,
      "size": 1,
      "price": "1011000000000000000000",
      "reserved": "",
      "salt": "0x57f14a2636dd4fd9cce7b155a937f44f2bde37639745fadca09557e242bd9d7e",
      "assetIds": []
    },
    {
      "x": 247,
      "y": 405,
      "size": 1,
      "price": "1011000000000000000000",
      "reserved": "",
      "salt": "0x830441baf01ea9d39d9ccec3a0018da22256ec87906fbcffbb952255a4b4682c",
      "assetIds": []
    },
    {
      "x": 247,
      "y": 406,
      "size": 1,
      "price": "1011000000000000000000",
      "reserved": "",
      "salt": "0x10f3bc440c4478db345b026a2dd0c603c1f4fc3f84b20961c13f64afc65a2192",
      "assetIds": []
    },
    {
      "x": 247,
      "y": 407,
      "size": 1,
      "price": "1011000000000000000000",
      "reserved": "",
      "salt": "0x225f50dbb9e394861f6121d25312cfbab25c6583f37937f16ec023154c3195fc",
      "assetIds": []
    },
    {
      "x": 248,
      "y": 360,
      "size": 1,
      "price": "4683000000000000000000",
      "reserved": "",
      "salt": "0xf7738555051e647af01d6e91ca30d85d093638e569f9008ed85cdadbb7c486ad",
      "assetIds": [
        "55464657044963196816950587289035428064568320970692304673817341489687790884865",
        "55464657044963196816950587289035428064568320970692304673817341489687782494208",
        "55464657044963196816950587289035428064568320970692304673817341489687790884866",
        "55464657044963196816950587289035428064568320970692304673817341489687782494209",
        "55464657044963196816950587289035428064568320970692304673817341489687790884864"
      ]
    },
    {
      "x": 248,
      "y": 361,
      "size": 1,
      "price": "1011000000000000000000",
      "reserved": "",
      "salt": "0x8c8ee6e7c954a422c610d72cb9634c57e13fefdcbd5f150b043635c0a0162912",
      "assetIds": []
    },
    {
      "x": 248,
      "y": 362,
      "size": 1,
      "price": "1011000000000000000000",
      "reserved": "",
      "salt": "0x9cdeb6d52b9fe55741f5602af6d29ab51c9ca187d0f879bc9c246f982e48f0e4",
      "assetIds": []
    },
    {
      "x": 248,
      "y": 363,
      "size": 1,
      "price": "1011000000000000000000",
      "reserved": "",
      "salt": "0x3df52ae0c51f784b46f73026894b31ee78f8bb7d3e64aa88f0f22c831a5128c9",
      "assetIds": []
    },
    {
      "x": 248,
      "y": 364,
      "size": 1,
      "price": "1011000000000000000000",
      "reserved": "",
      "salt": "0x1bea4783d2993d7f8d436bd2b0805a6922936b0d24fa9a19bbfc39c4f648a7d9",
      "assetIds": []
    },
    {
      "x": 248,
      "y": 365,
      "size": 1,
      "price": "1011000000000000000000",
      "reserved": "",
      "salt": "0x556c1f9c356e9e1e4254c8d7bfefe5ee8baba44f9d8aa4d1887dfb8f10cbaa60",
      "assetIds": []
    },
    {
      "x": 248,
      "y": 372,
      "size": 1,
      "price": "1011000000000000000000",
      "reserved": "0x7a9fe22691c811ea339d9b73150e6911a5343dca",
      "salt": "0xa588ad109add9d2f8643d5b85bbfcd67432206113c34205a14228706bc7d4f39",
      "assetIds": []
    },
    {
      "x": 248,
      "y": 373,
      "size": 1,
      "price": "1011000000000000000000",
      "reserved": "",
      "salt": "0x4a97dd5a154cdd163334d1fffd86fccaa18df1099db8893f0f633fdb013cb49d",
      "assetIds": []
    },
    {
      "x": 248,
      "y": 374,
      "size": 1,
      "price": "1011000000000000000000",
      "reserved": "",
      "salt": "0x2bba2a6a931131f40f3e5d37d997155bd8f502250fc841a6311bc9f693f6709a",
      "assetIds": []
    },
    {
      "x": 248,
      "y": 375,
      "size": 1,
      "price": "1011000000000000000000",
      "reserved": "",
      "salt": "0x77b9669703d8d00e33000a79fc56170fffdef6dde534f90743521eee7c4a0ba9",
      "assetIds": []
    },
    {
      "x": 248,
      "y": 376,
      "size": 1,
      "price": "1011000000000000000000",
      "reserved": "",
      "salt": "0x599181241d560f334456b8b51930d4a901f98d001c31b7af1ec3ac27c92eb461",
      "assetIds": []
    },
    {
      "x": 248,
      "y": 377,
      "size": 1,
      "price": "1011000000000000000000",
      "reserved": "",
      "salt": "0x4856607e32ae7c5e15e6464cee8fed4e1ce2ef91fda751dd3ddb68977018bd5c",
      "assetIds": []
    },
    {
      "x": 248,
      "y": 378,
      "size": 1,
      "price": "1011000000000000000000",
      "reserved": "",
      "salt": "0xbf6aed3750b965f5866e701396850328a21bcb937f58787385b9a76408b0efce",
      "assetIds": []
    },
    {
      "x": 248,
      "y": 379,
      "size": 1,
      "price": "1011000000000000000000",
      "reserved": "",
      "salt": "0xd45f119e5521c2163f87912a3a4e116863e1e607fb0ef74269244b1d78a6c5ab",
      "assetIds": []
    },
    {
      "x": 248,
      "y": 380,
      "size": 1,
      "price": "1011000000000000000000",
      "reserved": "",
      "salt": "0x88fe881eca1b9b0459ce8e441749a942711076f6323cfd54be558375faad02c8",
      "assetIds": []
    },
    {
      "x": 248,
      "y": 381,
      "size": 1,
      "price": "4683000000000000000000",
      "reserved": "",
      "salt": "0xee6199d5379f0bbd09d9630293d6955107500956ef97bd30ad86e0ed0a94fec1",
      "assetIds": [
        "55464657044963196816950587289035428064568320970692304673817341489687790884865",
        "55464657044963196816950587289035428064568320970692304673817341489687782494208",
        "55464657044963196816950587289035428064568320970692304673817341489687790884866",
        "55464657044963196816950587289035428064568320970692304673817341489687782494209",
        "55464657044963196816950587289035428064568320970692304673817341489687790884864"
      ]
    },
    {
      "x": 248,
      "y": 382,
      "size": 1,
      "price": "4683000000000000000000",
      "reserved": "",
      "salt": "0x5dcb982e886ac9c3becf84413c3d2674750a4d512a69c9b4092773a7a3b24abd",
      "assetIds": [
        "55464657044963196816950587289035428064568320970692304673817341489687790884865",
        "55464657044963196816950587289035428064568320970692304673817341489687782494208",
        "55464657044963196816950587289035428064568320970692304673817341489687790884866",
        "55464657044963196816950587289035428064568320970692304673817341489687782494209",
        "55464657044963196816950587289035428064568320970692304673817341489687790884864"
      ]
    },
    {
      "x": 248,
      "y": 383,
      "size": 1,
      "price": "4683000000000000000000",
      "reserved": "",
      "salt": "0xb09724e1a97d32e3d4542ebe94824537af024b999dace6a67ed3eebd796bb252",
      "assetIds": [
        "55464657044963196816950587289035428064568320970692304673817341489687790884865",
        "55464657044963196816950587289035428064568320970692304673817341489687782494208",
        "55464657044963196816950587289035428064568320970692304673817341489687790884866",
        "55464657044963196816950587289035428064568320970692304673817341489687782494209",
        "55464657044963196816950587289035428064568320970692304673817341489687790884864"
      ]
    },
    {
      "x": 248,
      "y": 396,
      "size": 1,
      "price": "4683000000000000000000",
      "reserved": "",
      "salt": "0x02e66a472041c58448cebcc365132f1b2ae72bfff84e0306dd1d2db3041b67d2",
      "assetIds": [
        "55464657044963196816950587289035428064568320970692304673817341489687790884865",
        "55464657044963196816950587289035428064568320970692304673817341489687782494208",
        "55464657044963196816950587289035428064568320970692304673817341489687790884866",
        "55464657044963196816950587289035428064568320970692304673817341489687782494209",
        "55464657044963196816950587289035428064568320970692304673817341489687790884864"
      ]
    },
    {
      "x": 248,
      "y": 397,
      "size": 1,
      "price": "4683000000000000000000",
      "reserved": "",
      "salt": "0x6b9953c2dc93086e6578c59d894abfeb7fe2d5bce306e55d805f41e443eb9999",
      "assetIds": [
        "55464657044963196816950587289035428064568320970692304673817341489687790884865",
        "55464657044963196816950587289035428064568320970692304673817341489687782494208",
        "55464657044963196816950587289035428064568320970692304673817341489687790884866",
        "55464657044963196816950587289035428064568320970692304673817341489687782494209",
        "55464657044963196816950587289035428064568320970692304673817341489687790884864"
      ]
    },
    {
      "x": 248,
      "y": 398,
      "size": 1,
      "price": "4683000000000000000000",
      "reserved": "",
      "salt": "0xa342b9d659c0e0af0fd818d5f923d0793c3041c83265d718c96b01b79e3c8008",
      "assetIds": [
        "55464657044963196816950587289035428064568320970692304673817341489687790884865",
        "55464657044963196816950587289035428064568320970692304673817341489687782494208",
        "55464657044963196816950587289035428064568320970692304673817341489687790884866",
        "55464657044963196816950587289035428064568320970692304673817341489687782494209",
        "55464657044963196816950587289035428064568320970692304673817341489687790884864"
      ]
    },
    {
      "x": 248,
      "y": 399,
      "size": 1,
      "price": "4683000000000000000000",
      "reserved": "",
      "salt": "0xfd62f8f3b0efa1c1ea35e062d731fe8c60c97ff2d7ebd5fd057a3d3f377dc7f4",
      "assetIds": [
        "55464657044963196816950587289035428064568320970692304673817341489687790884865",
        "55464657044963196816950587289035428064568320970692304673817341489687782494208",
        "55464657044963196816950587289035428064568320970692304673817341489687790884866",
        "55464657044963196816950587289035428064568320970692304673817341489687782494209",
        "55464657044963196816950587289035428064568320970692304673817341489687790884864"
      ]
    },
    {
      "x": 248,
      "y": 400,
      "size": 1,
      "price": "1011000000000000000000",
      "reserved": "0x7a9fe22691c811ea339d9b73150e6911a5343dca",
      "salt": "0x0a31cf1ff301fd40ab79ad6ed4a08a502c6cdc11e401a030f7e5e32437bde38c",
      "assetIds": []
    },
    {
      "x": 248,
      "y": 401,
      "size": 1,
      "price": "1011000000000000000000",
      "reserved": "",
      "salt": "0x974c2817a53925c853fa89981ecab3b59070bfbb0a4cb9c64585f20465bc54c5",
      "assetIds": []
    },
    {
      "x": 248,
      "y": 402,
      "size": 1,
      "price": "1011000000000000000000",
      "reserved": "",
      "salt": "0xa2bbbb0dd70a1c31f8ecf92d519df3b9e31e6d062efdc44942e0de2bbeae45cc",
      "assetIds": []
    },
    {
      "x": 248,
      "y": 403,
      "size": 1,
      "price": "1011000000000000000000",
      "reserved": "",
      "salt": "0xa10759322cd758cc4d7c3d5365a763ac03acd9ef1516164b49ece5742f582857",
      "assetIds": []
    },
    {
      "x": 248,
      "y": 404,
      "size": 1,
      "price": "1011000000000000000000",
      "reserved": "",
      "salt": "0x1ed490ac4584b090cefae5d5f5ec9e93824c94b3dfdc6bea80f61c21d7729187",
      "assetIds": []
    },
    {
      "x": 248,
      "y": 405,
      "size": 1,
      "price": "1011000000000000000000",
      "reserved": "",
      "salt": "0x90f85b0803c988cc51e20d7bdc9cce6895687b31b5c20fc1f4d3aadb1e48e8fa",
      "assetIds": []
    },
    {
      "x": 248,
      "y": 406,
      "size": 1,
      "price": "1011000000000000000000",
      "reserved": "",
      "salt": "0x577268242c14a960144432cffbe2469c00e63f3782b8408b0569175510eab198",
      "assetIds": []
    },
    {
      "x": 248,
      "y": 407,
      "size": 1,
      "price": "1011000000000000000000",
      "reserved": "",
      "salt": "0xb25362ea8531b6f3d0072ed7570d87845f126c1705450108f759d6a67daad92f",
      "assetIds": []
    },
    {
      "x": 249,
      "y": 360,
      "size": 1,
      "price": "1011000000000000000000",
      "reserved": "0x7a9fe22691c811ea339d9b73150e6911a5343dca",
      "salt": "0xe9f86cb5f8cfc3a0b358820a6849873318626d715ace03ff6b77c05d7776cd45",
      "assetIds": []
    },
    {
      "x": 249,
      "y": 361,
      "size": 1,
      "price": "1011000000000000000000",
      "reserved": "",
      "salt": "0xe6aab379dab652bd686009c6fba881864baf335b3140318d533e31e9d11ffb56",
      "assetIds": []
    },
    {
      "x": 249,
      "y": 362,
      "size": 1,
      "price": "1011000000000000000000",
      "reserved": "",
      "salt": "0x6fb984f191c6cbfa57bb7e79a4538f00612992ea65fb01a4a2eab1c79e2be1f3",
      "assetIds": []
    },
    {
      "x": 249,
      "y": 363,
      "size": 1,
      "price": "1011000000000000000000",
      "reserved": "",
      "salt": "0x7442545fc3a21879357f54033625c28ec8604f41468d45bb366e72c3a4cbde91",
      "assetIds": []
    },
    {
      "x": 249,
      "y": 364,
      "size": 1,
      "price": "1011000000000000000000",
      "reserved": "",
      "salt": "0x98ddc9c7447da47f049c0792955715ef8de6073906574461e66d2a951401569c",
      "assetIds": []
    },
    {
      "x": 249,
      "y": 365,
      "size": 1,
      "price": "1011000000000000000000",
      "reserved": "",
      "salt": "0x996bdb022096c12799a0be09bc7d31def8c174e5fb8b54448c0de960b013f118",
      "assetIds": []
    },
    {
      "x": 249,
      "y": 372,
      "size": 1,
      "price": "4683000000000000000000",
      "reserved": "",
      "salt": "0x8f6221113cf1207002e683e5d0192cfa805fa55e2054d29b7c4dc3c4a72a98ad",
      "assetIds": [
        "55464657044963196816950587289035428064568320970692304673817341489687790884865",
        "55464657044963196816950587289035428064568320970692304673817341489687782494208",
        "55464657044963196816950587289035428064568320970692304673817341489687790884866",
        "55464657044963196816950587289035428064568320970692304673817341489687782494209",
        "55464657044963196816950587289035428064568320970692304673817341489687790884864"
      ]
    },
    {
      "x": 249,
      "y": 373,
      "size": 1,
      "price": "1011000000000000000000",
      "reserved": "",
      "salt": "0xa4b9ddc7516ac83a08116b817731675043f2dee4e5979a9eab18db3cfa1ed5ae",
      "assetIds": []
    },
    {
      "x": 249,
      "y": 374,
      "size": 1,
      "price": "1011000000000000000000",
      "reserved": "0x7a9fe22691c811ea339d9b73150e6911a5343dca",
      "salt": "0x681e9a75805e224b1d2f0456214a05e11df7f31652c90406238e53ab340c1b3b",
      "assetIds": []
    },
    {
      "x": 249,
      "y": 375,
      "size": 1,
      "price": "4683000000000000000000",
      "reserved": "",
      "salt": "0xa4c2bd728f30a68734c97f72073bfbc20032c5fb393027e6be4030686e84497c",
      "assetIds": [
        "55464657044963196816950587289035428064568320970692304673817341489687790884865",
        "55464657044963196816950587289035428064568320970692304673817341489687782494208",
        "55464657044963196816950587289035428064568320970692304673817341489687790884866",
        "55464657044963196816950587289035428064568320970692304673817341489687782494209",
        "55464657044963196816950587289035428064568320970692304673817341489687790884864"
      ]
    },
    {
      "x": 249,
      "y": 376,
      "size": 1,
      "price": "4683000000000000000000",
      "reserved": "",
      "salt": "0x3f8f43fdc478423945f70d8c5665117f8c0ce6acd1b0c18afcdcedfac046bf98",
      "assetIds": [
        "55464657044963196816950587289035428064568320970692304673817341489687790884865",
        "55464657044963196816950587289035428064568320970692304673817341489687782494208",
        "55464657044963196816950587289035428064568320970692304673817341489687790884866",
        "55464657044963196816950587289035428064568320970692304673817341489687782494209",
        "55464657044963196816950587289035428064568320970692304673817341489687790884864"
      ]
    },
    {
      "x": 249,
      "y": 377,
      "size": 1,
      "price": "4683000000000000000000",
      "reserved": "",
      "salt": "0xb8b1eb39539a55ab8ba8641645e00e919b76c5fa8e0022e0316a21f0ad97cd3f",
      "assetIds": [
        "55464657044963196816950587289035428064568320970692304673817341489687790884865",
        "55464657044963196816950587289035428064568320970692304673817341489687782494208",
        "55464657044963196816950587289035428064568320970692304673817341489687790884866",
        "55464657044963196816950587289035428064568320970692304673817341489687782494209",
        "55464657044963196816950587289035428064568320970692304673817341489687790884864"
      ]
    },
    {
      "x": 249,
      "y": 378,
      "size": 1,
      "price": "1011000000000000000000",
      "reserved": "",
      "salt": "0xddb3fac53dab2d12e74db4c76738811f92b0a32d9863277992b9bc66a4f374ab",
      "assetIds": []
    },
    {
      "x": 249,
      "y": 379,
      "size": 1,
      "price": "1011000000000000000000",
      "reserved": "",
      "salt": "0x9d2af4a4f661bb3ab296fa8dc7125d0c9731f3705af9b2337042613ed8c6377c",
      "assetIds": []
    },
    {
      "x": 249,
      "y": 380,
      "size": 1,
      "price": "1011000000000000000000",
      "reserved": "",
      "salt": "0xaeb51b3da2adc7b7ed053173e4d47dcd764053b52d3a49d422ef3ca1e5d9e49c",
      "assetIds": []
    },
    {
      "x": 249,
      "y": 381,
      "size": 1,
      "price": "1011000000000000000000",
      "reserved": "",
      "salt": "0xba27219f557c6a81ce3594ec966cb4dacac44e06013c7a30acd77eb5eb157b0d",
      "assetIds": []
    },
    {
      "x": 249,
      "y": 382,
      "size": 1,
      "price": "4683000000000000000000",
      "reserved": "",
      "salt": "0xc9564320160fa23218e47c9081b1d0fd4d683b4120e7edc070d561445c6a73bc",
      "assetIds": [
        "55464657044963196816950587289035428064568320970692304673817341489687790884865",
        "55464657044963196816950587289035428064568320970692304673817341489687782494208",
        "55464657044963196816950587289035428064568320970692304673817341489687790884866",
        "55464657044963196816950587289035428064568320970692304673817341489687782494209",
        "55464657044963196816950587289035428064568320970692304673817341489687790884864"
      ]
    },
    {
      "x": 249,
      "y": 383,
      "size": 1,
      "price": "4683000000000000000000",
      "reserved": "",
      "salt": "0x88c79556e0b1513186fcea9aa8d6232854b98ac806e7f4ca76dbd40b16db54d6",
      "assetIds": [
        "55464657044963196816950587289035428064568320970692304673817341489687790884865",
        "55464657044963196816950587289035428064568320970692304673817341489687782494208",
        "55464657044963196816950587289035428064568320970692304673817341489687790884866",
        "55464657044963196816950587289035428064568320970692304673817341489687782494209",
        "55464657044963196816950587289035428064568320970692304673817341489687790884864"
      ]
    },
    {
      "x": 249,
      "y": 396,
      "size": 1,
      "price": "4683000000000000000000",
      "reserved": "",
      "salt": "0xf41d9b175fceef2ad48ce27a6c1b5f64b6c0a58aab9ada28117dcf692ba095cc",
      "assetIds": [
        "55464657044963196816950587289035428064568320970692304673817341489687790884865",
        "55464657044963196816950587289035428064568320970692304673817341489687782494208",
        "55464657044963196816950587289035428064568320970692304673817341489687790884866",
        "55464657044963196816950587289035428064568320970692304673817341489687782494209",
        "55464657044963196816950587289035428064568320970692304673817341489687790884864"
      ]
    },
    {
      "x": 249,
      "y": 397,
      "size": 1,
      "price": "4683000000000000000000",
      "reserved": "",
      "salt": "0x14e79ff3f832adc8faba7593dfa5517239af276937ee85d41ce6c1083044ec18",
      "assetIds": [
        "55464657044963196816950587289035428064568320970692304673817341489687790884865",
        "55464657044963196816950587289035428064568320970692304673817341489687782494208",
        "55464657044963196816950587289035428064568320970692304673817341489687790884866",
        "55464657044963196816950587289035428064568320970692304673817341489687782494209",
        "55464657044963196816950587289035428064568320970692304673817341489687790884864"
      ]
    },
    {
      "x": 249,
      "y": 398,
      "size": 1,
      "price": "4683000000000000000000",
      "reserved": "",
      "salt": "0x6987ff96fc6ad8a1329afe3af4d5c2faecc388b52672eee1db3379e3b4244666",
      "assetIds": [
        "55464657044963196816950587289035428064568320970692304673817341489687790884865",
        "55464657044963196816950587289035428064568320970692304673817341489687782494208",
        "55464657044963196816950587289035428064568320970692304673817341489687790884866",
        "55464657044963196816950587289035428064568320970692304673817341489687782494209",
        "55464657044963196816950587289035428064568320970692304673817341489687790884864"
      ]
    },
    {
      "x": 249,
      "y": 399,
      "size": 1,
      "price": "1011000000000000000000",
      "reserved": "",
      "salt": "0x135f5bb761ed172221e32f7bec2e0a42b038e4ef658f0d2422147e8a3023b3f5",
      "assetIds": []
    },
    {
      "x": 249,
      "y": 400,
      "size": 1,
      "price": "1011000000000000000000",
      "reserved": "",
      "salt": "0x0a6d2c6169829d7797f3963b305add0bab8d2982868e7ea2cfcd94b82f9bc4d2",
      "assetIds": []
    },
    {
      "x": 249,
      "y": 401,
      "size": 1,
      "price": "1011000000000000000000",
      "reserved": "",
      "salt": "0xf45d153180ae50314cc685341fadf24a4fd7b5c5ce4ef4bb777b870ec201624e",
      "assetIds": []
    },
    {
      "x": 249,
      "y": 402,
      "size": 1,
      "price": "1011000000000000000000",
      "reserved": "",
      "salt": "0xdecd9ea86819ae4104233b4098f06b3c7b667f9ed2eb884f01ba64893bb803da",
      "assetIds": []
    },
    {
      "x": 249,
      "y": 403,
      "size": 1,
      "price": "1011000000000000000000",
      "reserved": "",
      "salt": "0x1da8bd83a1d9e51dd49c47432394ab9dcbc4e13c697f026bd2a3b9e626f11173",
      "assetIds": []
    },
    {
      "x": 249,
      "y": 404,
      "size": 1,
      "price": "1011000000000000000000",
      "reserved": "",
      "salt": "0xeb505709131c049d5254fb7590f447d35ad68abe12f4314b5dfe8b40f528f0dc",
      "assetIds": []
    },
    {
      "x": 249,
      "y": 405,
      "size": 1,
      "price": "1011000000000000000000",
      "reserved": "",
      "salt": "0x366d43659ca9c61b7d17149ee3bb350158ad5455591e984067acbd886bd56570",
      "assetIds": []
    },
    {
      "x": 249,
      "y": 406,
      "size": 1,
      "price": "1011000000000000000000",
      "reserved": "",
      "salt": "0x1475312fe2f9442bf6a9c0ec0ed515b3532b885156576f1cdb79b8ce11724c41",
      "assetIds": []
    },
    {
      "x": 249,
      "y": 407,
      "size": 1,
      "price": "1011000000000000000000",
      "reserved": "",
      "salt": "0x843e619ef8528d647f7f79da2171cb096c2a850b3690892037d28fe0327546b5",
      "assetIds": []
    },
    {
      "x": 250,
      "y": 360,
      "size": 1,
      "price": "4683000000000000000000",
      "reserved": "",
      "salt": "0x458ca65cd7599666134ec0510973f31a26c8ddeafc41fbc789732ee30d3b2259",
      "assetIds": [
        "55464657044963196816950587289035428064568320970692304673817341489687790884865",
        "55464657044963196816950587289035428064568320970692304673817341489687782494208",
        "55464657044963196816950587289035428064568320970692304673817341489687790884866",
        "55464657044963196816950587289035428064568320970692304673817341489687782494209",
        "55464657044963196816950587289035428064568320970692304673817341489687790884864"
      ]
    },
    {
      "x": 250,
      "y": 361,
      "size": 1,
      "price": "1011000000000000000000",
      "reserved": "",
      "salt": "0x36533110719055994dcb716a37fe89b7285bf6e36acb00a0911f8a921659721e",
      "assetIds": []
    },
    {
      "x": 250,
      "y": 362,
      "size": 1,
      "price": "1011000000000000000000",
      "reserved": "",
      "salt": "0x74ac2857a04c1628073efe78dbb3c1b4f0a08a91ea2e7d9337046a1fc547babd",
      "assetIds": []
    },
    {
      "x": 250,
      "y": 363,
      "size": 1,
      "price": "1011000000000000000000",
      "reserved": "0x7a9fe22691c811ea339d9b73150e6911a5343dca",
      "salt": "0x257b2f806a61e7422f366631bb9fe01709fafdf35fd431c80cd9967ad229f2d5",
      "assetIds": []
    },
    {
      "x": 250,
      "y": 364,
      "size": 1,
      "price": "1011000000000000000000",
      "reserved": "",
      "salt": "0xe34b555b9e809f3d4328ec483449bb12b19bba0316faa4629fb68d1638781ab0",
      "assetIds": []
    },
    {
      "x": 250,
      "y": 365,
      "size": 1,
      "price": "1011000000000000000000",
      "reserved": "",
      "salt": "0x00945a58cda0f99e77049acc1baafe24af18ff66c1d76edb437f3bd00cbf9938",
      "assetIds": []
    },
    {
      "x": 250,
      "y": 372,
      "size": 1,
      "price": "4683000000000000000000",
      "reserved": "",
      "salt": "0x366568ddcf0fd81f6e81d8a0410dd52a3639d1c504e8016228b2264054f23401",
      "assetIds": [
        "55464657044963196816950587289035428064568320970692304673817341489687790884865",
        "55464657044963196816950587289035428064568320970692304673817341489687782494208",
        "55464657044963196816950587289035428064568320970692304673817341489687790884866",
        "55464657044963196816950587289035428064568320970692304673817341489687782494209",
        "55464657044963196816950587289035428064568320970692304673817341489687790884864"
      ]
    },
    {
      "x": 250,
      "y": 373,
      "size": 1,
      "price": "4683000000000000000000",
      "reserved": "",
      "salt": "0x3ed3b4152b5f4bfad14e84bc1d1dc9300ec864f594e9abc99eb30bd446059ff1",
      "assetIds": [
        "55464657044963196816950587289035428064568320970692304673817341489687790884865",
        "55464657044963196816950587289035428064568320970692304673817341489687782494208",
        "55464657044963196816950587289035428064568320970692304673817341489687790884866",
        "55464657044963196816950587289035428064568320970692304673817341489687782494209",
        "55464657044963196816950587289035428064568320970692304673817341489687790884864"
      ]
    },
    {
      "x": 250,
      "y": 374,
      "size": 1,
      "price": "4683000000000000000000",
      "reserved": "",
      "salt": "0xf23aaf9718aa6562787e9dcc2df2a375d17898b2a4aec639ac08a079ef10f1c0",
      "assetIds": [
        "55464657044963196816950587289035428064568320970692304673817341489687790884865",
        "55464657044963196816950587289035428064568320970692304673817341489687782494208",
        "55464657044963196816950587289035428064568320970692304673817341489687790884866",
        "55464657044963196816950587289035428064568320970692304673817341489687782494209",
        "55464657044963196816950587289035428064568320970692304673817341489687790884864"
      ]
    },
    {
      "x": 250,
      "y": 375,
      "size": 1,
      "price": "4683000000000000000000",
      "reserved": "",
      "salt": "0xdc15e5d500b9701ccf6dc98fb81aee7768a7d5ccf1862ffa08242d59b00304f3",
      "assetIds": [
        "55464657044963196816950587289035428064568320970692304673817341489687790884865",
        "55464657044963196816950587289035428064568320970692304673817341489687782494208",
        "55464657044963196816950587289035428064568320970692304673817341489687790884866",
        "55464657044963196816950587289035428064568320970692304673817341489687782494209",
        "55464657044963196816950587289035428064568320970692304673817341489687790884864"
      ]
    },
    {
      "x": 250,
      "y": 376,
      "size": 1,
      "price": "4683000000000000000000",
      "reserved": "",
      "salt": "0x2349894e6647eb8437ab14022dbba2655651f5ea5870254d71f934624261ef71",
      "assetIds": [
        "55464657044963196816950587289035428064568320970692304673817341489687790884865",
        "55464657044963196816950587289035428064568320970692304673817341489687782494208",
        "55464657044963196816950587289035428064568320970692304673817341489687790884866",
        "55464657044963196816950587289035428064568320970692304673817341489687782494209",
        "55464657044963196816950587289035428064568320970692304673817341489687790884864"
      ]
    },
    {
      "x": 250,
      "y": 377,
      "size": 1,
      "price": "4683000000000000000000",
      "reserved": "",
      "salt": "0x9fc141cc1ca43c6bbec36d186aa752feedfd6c53d3fb79d6ee0a8b87c7eb4e2c",
      "assetIds": [
        "55464657044963196816950587289035428064568320970692304673817341489687790884865",
        "55464657044963196816950587289035428064568320970692304673817341489687782494208",
        "55464657044963196816950587289035428064568320970692304673817341489687790884866",
        "55464657044963196816950587289035428064568320970692304673817341489687782494209",
        "55464657044963196816950587289035428064568320970692304673817341489687790884864"
      ]
    },
    {
      "x": 250,
      "y": 378,
      "size": 1,
      "price": "1011000000000000000000",
      "reserved": "",
      "salt": "0xf77afd309796a20441bc8d58aa97ff1e33f56c253f43c2873da9d556056ce06a",
      "assetIds": []
    },
    {
      "x": 250,
      "y": 379,
      "size": 1,
      "price": "1011000000000000000000",
      "reserved": "",
      "salt": "0x88f331b94b8f0a811ee350af48e5b5d606adb3b73fccd48fec21c9844e11395e",
      "assetIds": []
    },
    {
      "x": 250,
      "y": 380,
      "size": 1,
      "price": "1011000000000000000000",
      "reserved": "",
      "salt": "0xe7ba6cae6970b3cb67c241a1a04f50bfb40be819b830e69e10cbb3db19b75bde",
      "assetIds": []
    },
    {
      "x": 250,
      "y": 381,
      "size": 1,
      "price": "1011000000000000000000",
      "reserved": "",
      "salt": "0x84fc1e0f91793847e1381ce09a6664a2a4087877544aadc4ec59c15aff20cad4",
      "assetIds": []
    },
    {
      "x": 250,
      "y": 382,
      "size": 1,
      "price": "4683000000000000000000",
      "reserved": "",
      "salt": "0x06ddd6c00669efd3748754c101c70dad6659114d863d04d4c9a09581494279da",
      "assetIds": [
        "55464657044963196816950587289035428064568320970692304673817341489687790884865",
        "55464657044963196816950587289035428064568320970692304673817341489687782494208",
        "55464657044963196816950587289035428064568320970692304673817341489687790884866",
        "55464657044963196816950587289035428064568320970692304673817341489687782494209",
        "55464657044963196816950587289035428064568320970692304673817341489687790884864"
      ]
    },
    {
      "x": 250,
      "y": 383,
      "size": 1,
      "price": "4683000000000000000000",
      "reserved": "",
      "salt": "0x18bbf13e0bfc406c201269ae89c5e15454ec0ae794bd3dbe1759e024de437813",
      "assetIds": [
        "55464657044963196816950587289035428064568320970692304673817341489687790884865",
        "55464657044963196816950587289035428064568320970692304673817341489687782494208",
        "55464657044963196816950587289035428064568320970692304673817341489687790884866",
        "55464657044963196816950587289035428064568320970692304673817341489687782494209",
        "55464657044963196816950587289035428064568320970692304673817341489687790884864"
      ]
    },
    {
      "x": 250,
      "y": 396,
      "size": 1,
      "price": "4683000000000000000000",
      "reserved": "",
      "salt": "0xef5bcdce3e420d66d9e4eea9144375485e1f093d48d145e008ec84264fd072c9",
      "assetIds": [
        "55464657044963196816950587289035428064568320970692304673817341489687790884865",
        "55464657044963196816950587289035428064568320970692304673817341489687782494208",
        "55464657044963196816950587289035428064568320970692304673817341489687790884866",
        "55464657044963196816950587289035428064568320970692304673817341489687782494209",
        "55464657044963196816950587289035428064568320970692304673817341489687790884864"
      ]
    },
    {
      "x": 250,
      "y": 397,
      "size": 1,
      "price": "4683000000000000000000",
      "reserved": "",
      "salt": "0xf4e766d6c20ed960a1ed8ef94f593e848d642f814945e3c2b04e82e0a452f2b7",
      "assetIds": [
        "55464657044963196816950587289035428064568320970692304673817341489687790884865",
        "55464657044963196816950587289035428064568320970692304673817341489687782494208",
        "55464657044963196816950587289035428064568320970692304673817341489687790884866",
        "55464657044963196816950587289035428064568320970692304673817341489687782494209",
        "55464657044963196816950587289035428064568320970692304673817341489687790884864"
      ]
    },
    {
      "x": 250,
      "y": 398,
      "size": 1,
      "price": "1011000000000000000000",
      "reserved": "0x7a9fe22691c811ea339d9b73150e6911a5343dca",
      "salt": "0x25bae993dae2c34dd27ccbb95860ba867648524c78876686dacad1b51539ecf6",
      "assetIds": []
    },
    {
      "x": 250,
      "y": 399,
      "size": 1,
      "price": "1011000000000000000000",
      "reserved": "",
      "salt": "0x63ad326579c3a2898b0bd6ac6c03e55a6e66526aab96f829872b5b562f5b1ca4",
      "assetIds": []
    },
    {
      "x": 250,
      "y": 400,
      "size": 1,
      "price": "1011000000000000000000",
      "reserved": "",
      "salt": "0x3e04eb9490a14eb7917f95a005a5b4c60188285094db42ee13621a544d70a320",
      "assetIds": []
    },
    {
      "x": 250,
      "y": 401,
      "size": 1,
      "price": "1011000000000000000000",
      "reserved": "",
      "salt": "0x36d3dc2a92801f39479cc1f80a2d24bef8bda1d536f037af85bf3636a24c747d",
      "assetIds": []
    },
    {
      "x": 250,
      "y": 402,
      "size": 1,
      "price": "1011000000000000000000",
      "reserved": "",
      "salt": "0x8967c4cd14948f2473ba7d7a217ab900bb3b5c3d42a1e6aae649c4c09a19b48d",
      "assetIds": []
    },
    {
      "x": 250,
      "y": 403,
      "size": 1,
      "price": "1011000000000000000000",
      "reserved": "0x7a9fe22691c811ea339d9b73150e6911a5343dca",
      "salt": "0x390b27718a921dab3e6788d02c86bf15aabe717efd78ab7d8692c4fb9b099f02",
      "assetIds": []
    },
    {
      "x": 250,
      "y": 404,
      "size": 1,
      "price": "1011000000000000000000",
      "reserved": "",
      "salt": "0x4494bd58fa1ede64dbc0b5ba7e6ea6def9eee067e294668a0a9e0d94c4ac0546",
      "assetIds": []
    },
    {
      "x": 250,
      "y": 405,
      "size": 1,
      "price": "1011000000000000000000",
      "reserved": "",
      "salt": "0x9ce6ddc5a5c3dbe317313fb00999824676b6d094ec6c4096b367991b55eb278b",
      "assetIds": []
    },
    {
      "x": 250,
      "y": 406,
      "size": 1,
      "price": "1011000000000000000000",
      "reserved": "",
      "salt": "0x10ebb39d9937ac74749b3ac9865caa19342178d44c7f5abcb9a6c35b6ccaac3d",
      "assetIds": []
    },
    {
      "x": 250,
      "y": 407,
      "size": 1,
      "price": "1011000000000000000000",
      "reserved": "",
      "salt": "0xa377039a7579cd2689068b07fffb0e05688682b15407616b39b89a614db84765",
      "assetIds": []
    },
    {
      "x": 251,
      "y": 360,
      "size": 1,
      "price": "4683000000000000000000",
      "reserved": "",
      "salt": "0x71fb39c2c45e9045ef98a0fddbd8dcec0e0aafdacd1aefc833dc7fdf5b2609b8",
      "assetIds": [
        "55464657044963196816950587289035428064568320970692304673817341489687790884865",
        "55464657044963196816950587289035428064568320970692304673817341489687782494208",
        "55464657044963196816950587289035428064568320970692304673817341489687790884866",
        "55464657044963196816950587289035428064568320970692304673817341489687782494209",
        "55464657044963196816950587289035428064568320970692304673817341489687790884864"
      ]
    },
    {
      "x": 251,
      "y": 361,
      "size": 1,
      "price": "1011000000000000000000",
      "reserved": "",
      "salt": "0xc6ccc5cdcad2794746593e37ecabe90f327d46d55d37197d6077bcec20eda126",
      "assetIds": []
    },
    {
      "x": 251,
      "y": 362,
      "size": 1,
      "price": "1011000000000000000000",
      "reserved": "",
      "salt": "0xe18643b82a1a029a15b9421063dfe32c5a87d1fa3f9a5930c20d0a15c8c6e0e1",
      "assetIds": []
    },
    {
      "x": 251,
      "y": 363,
      "size": 1,
      "price": "1011000000000000000000",
      "reserved": "",
      "salt": "0xee92d7b3e8f1baa18f28cd339199ce2146ed91bbe2acc2bbb3fd4935362e0fe8",
      "assetIds": []
    },
    {
      "x": 251,
      "y": 364,
      "size": 1,
      "price": "1011000000000000000000",
      "reserved": "",
      "salt": "0x57825d9c6d90ab9273eebdab0900eddc3a1e252d46defdf9d26493667f7540bc",
      "assetIds": []
    },
    {
      "x": 251,
      "y": 365,
      "size": 1,
      "price": "1011000000000000000000",
      "reserved": "",
      "salt": "0x297ae457fa1941f5315ac0924165de7694d1b450b125288dd972ae71ccb6fce9",
      "assetIds": []
    },
    {
      "x": 251,
      "y": 372,
      "size": 1,
      "price": "4683000000000000000000",
      "reserved": "",
      "salt": "0x8e75a9fe468290802ca5d72699cda164a882444a0e9dae35193f5f8fef40b516",
      "assetIds": [
        "55464657044963196816950587289035428064568320970692304673817341489687790884865",
        "55464657044963196816950587289035428064568320970692304673817341489687782494208",
        "55464657044963196816950587289035428064568320970692304673817341489687790884866",
        "55464657044963196816950587289035428064568320970692304673817341489687782494209",
        "55464657044963196816950587289035428064568320970692304673817341489687790884864"
      ]
    },
    {
      "x": 251,
      "y": 373,
      "size": 1,
      "price": "4683000000000000000000",
      "reserved": "",
      "salt": "0xb128c4f26e7400b64b6ff3d7aba8bf3b8ba4775277a6dcd6f40d793ad7adf479",
      "assetIds": [
        "55464657044963196816950587289035428064568320970692304673817341489687790884865",
        "55464657044963196816950587289035428064568320970692304673817341489687782494208",
        "55464657044963196816950587289035428064568320970692304673817341489687790884866",
        "55464657044963196816950587289035428064568320970692304673817341489687782494209",
        "55464657044963196816950587289035428064568320970692304673817341489687790884864"
      ]
    },
    {
      "x": 251,
      "y": 374,
      "size": 1,
      "price": "4683000000000000000000",
      "reserved": "",
      "salt": "0xee10b613c1b7d73d3cd97057bdc44c5402ba10e97dd451abb7ced31d16340326",
      "assetIds": [
        "55464657044963196816950587289035428064568320970692304673817341489687790884865",
        "55464657044963196816950587289035428064568320970692304673817341489687782494208",
        "55464657044963196816950587289035428064568320970692304673817341489687790884866",
        "55464657044963196816950587289035428064568320970692304673817341489687782494209",
        "55464657044963196816950587289035428064568320970692304673817341489687790884864"
      ]
    },
    {
      "x": 251,
      "y": 375,
      "size": 1,
      "price": "4683000000000000000000",
      "reserved": "",
      "salt": "0x86e497869aaa29a8d1e3bbdffc1a42e4fc0f81e20088acf40a8a62b1e20a24a7",
      "assetIds": [
        "55464657044963196816950587289035428064568320970692304673817341489687790884865",
        "55464657044963196816950587289035428064568320970692304673817341489687782494208",
        "55464657044963196816950587289035428064568320970692304673817341489687790884866",
        "55464657044963196816950587289035428064568320970692304673817341489687782494209",
        "55464657044963196816950587289035428064568320970692304673817341489687790884864"
      ]
    },
    {
      "x": 251,
      "y": 376,
      "size": 1,
      "price": "4683000000000000000000",
      "reserved": "",
      "salt": "0x3fee3dab3f7ec3d8c73673a73d3e0cc615e9fccbf7409826d557cf6b5932a72a",
      "assetIds": [
        "55464657044963196816950587289035428064568320970692304673817341489687790884865",
        "55464657044963196816950587289035428064568320970692304673817341489687782494208",
        "55464657044963196816950587289035428064568320970692304673817341489687790884866",
        "55464657044963196816950587289035428064568320970692304673817341489687782494209",
        "55464657044963196816950587289035428064568320970692304673817341489687790884864"
      ]
    },
    {
      "x": 251,
      "y": 377,
      "size": 1,
      "price": "4683000000000000000000",
      "reserved": "",
      "salt": "0x7de7725a3ea24146bc472e8f5ce56f2a8ebd3f2de2ba6e87a959dfbe8bc95f81",
      "assetIds": [
        "55464657044963196816950587289035428064568320970692304673817341489687790884865",
        "55464657044963196816950587289035428064568320970692304673817341489687782494208",
        "55464657044963196816950587289035428064568320970692304673817341489687790884866",
        "55464657044963196816950587289035428064568320970692304673817341489687782494209",
        "55464657044963196816950587289035428064568320970692304673817341489687790884864"
      ]
    },
    {
      "x": 251,
      "y": 378,
      "size": 1,
      "price": "4683000000000000000000",
      "reserved": "",
      "salt": "0x1795414c522c8873078cf3d85a033a3992b748f0531cfd3a360e7ec5e5d747f5",
      "assetIds": [
        "55464657044963196816950587289035428064568320970692304673817341489687790884865",
        "55464657044963196816950587289035428064568320970692304673817341489687782494208",
        "55464657044963196816950587289035428064568320970692304673817341489687790884866",
        "55464657044963196816950587289035428064568320970692304673817341489687782494209",
        "55464657044963196816950587289035428064568320970692304673817341489687790884864"
      ]
    },
    {
      "x": 251,
      "y": 379,
      "size": 1,
      "price": "4683000000000000000000",
      "reserved": "",
      "salt": "0xa241368770e9f5d221fc8b5bc76bbe806d10bcbd0bd02abafdf777bb66d2e7f5",
      "assetIds": [
        "55464657044963196816950587289035428064568320970692304673817341489687790884865",
        "55464657044963196816950587289035428064568320970692304673817341489687782494208",
        "55464657044963196816950587289035428064568320970692304673817341489687790884866",
        "55464657044963196816950587289035428064568320970692304673817341489687782494209",
        "55464657044963196816950587289035428064568320970692304673817341489687790884864"
      ]
    },
    {
      "x": 251,
      "y": 380,
      "size": 1,
      "price": "1011000000000000000000",
      "reserved": "0x7a9fe22691c811ea339d9b73150e6911a5343dca",
      "salt": "0x615b8e0acd7fa86cb1eb349317d0f9cf0195d4855d08be1dd8a8bbfe6b9b8a00",
      "assetIds": []
    },
    {
      "x": 251,
      "y": 381,
      "size": 1,
      "price": "1011000000000000000000",
      "reserved": "",
      "salt": "0xd8277bd3ca70c2d207eec19c41a603a327531114dda25113d7c7d009770c3f60",
      "assetIds": []
    },
    {
      "x": 251,
      "y": 382,
      "size": 1,
      "price": "4683000000000000000000",
      "reserved": "",
      "salt": "0x660b4986e2a0fe20283fa9fcd30badf2a8c72b7253f1035e926433a52a25ba9e",
      "assetIds": [
        "55464657044963196816950587289035428064568320970692304673817341489687790884865",
        "55464657044963196816950587289035428064568320970692304673817341489687782494208",
        "55464657044963196816950587289035428064568320970692304673817341489687790884866",
        "55464657044963196816950587289035428064568320970692304673817341489687782494209",
        "55464657044963196816950587289035428064568320970692304673817341489687790884864"
      ]
    },
    {
      "x": 251,
      "y": 383,
      "size": 1,
      "price": "4683000000000000000000",
      "reserved": "",
      "salt": "0x68bbacd545589ad044bc994e72ba6f501e8dc05b8ad05dd28c69a85a933931dc",
      "assetIds": [
        "55464657044963196816950587289035428064568320970692304673817341489687790884865",
        "55464657044963196816950587289035428064568320970692304673817341489687782494208",
        "55464657044963196816950587289035428064568320970692304673817341489687790884866",
        "55464657044963196816950587289035428064568320970692304673817341489687782494209",
        "55464657044963196816950587289035428064568320970692304673817341489687790884864"
      ]
    },
    {
      "x": 251,
      "y": 396,
      "size": 1,
      "price": "4683000000000000000000",
      "reserved": "",
      "salt": "0xdac2476c95aaecb2fc43a5927a051b9e3b03ab83fdd924533130cf3dc2e0503c",
      "assetIds": [
        "55464657044963196816950587289035428064568320970692304673817341489687790884865",
        "55464657044963196816950587289035428064568320970692304673817341489687782494208",
        "55464657044963196816950587289035428064568320970692304673817341489687790884866",
        "55464657044963196816950587289035428064568320970692304673817341489687782494209",
        "55464657044963196816950587289035428064568320970692304673817341489687790884864"
      ]
    },
    {
      "x": 251,
      "y": 397,
      "size": 1,
      "price": "4683000000000000000000",
      "reserved": "",
      "salt": "0xf0bb8f9c719404706ce3d351d485196bc96ac162720f3e41a5d3b6b6f1729d7a",
      "assetIds": [
        "55464657044963196816950587289035428064568320970692304673817341489687790884865",
        "55464657044963196816950587289035428064568320970692304673817341489687782494208",
        "55464657044963196816950587289035428064568320970692304673817341489687790884866",
        "55464657044963196816950587289035428064568320970692304673817341489687782494209",
        "55464657044963196816950587289035428064568320970692304673817341489687790884864"
      ]
    },
    {
      "x": 251,
      "y": 398,
      "size": 1,
      "price": "1011000000000000000000",
      "reserved": "",
      "salt": "0xcc130d42d86c0fc2a59977158d325026c7b21316cba44edb6dabfc35601c0fe3",
      "assetIds": []
    },
    {
      "x": 251,
      "y": 399,
      "size": 1,
      "price": "1011000000000000000000",
      "reserved": "",
      "salt": "0x1e7d1e031278d4c92521926824a6e0699da92a8f2dc554a3161614d8056431cd",
      "assetIds": []
    },
    {
      "x": 251,
      "y": 400,
      "size": 1,
      "price": "1011000000000000000000",
      "reserved": "",
      "salt": "0x6fbae630a972af2349e439b933637687552d4b2d9a65ceb9a3e0befacad9eb27",
      "assetIds": []
    },
    {
      "x": 251,
      "y": 401,
      "size": 1,
      "price": "1011000000000000000000",
      "reserved": "",
      "salt": "0xf237fb607d1d05bab68e6aede6c5af7f7bb829395679f2dde29961410ca65954",
      "assetIds": []
    },
    {
      "x": 251,
      "y": 402,
      "size": 1,
      "price": "1011000000000000000000",
      "reserved": "",
      "salt": "0x61514958ef357318cc9ff582a9b35ac35c7543c2c54f54a41e26de63f1b19e81",
      "assetIds": []
    },
    {
      "x": 251,
      "y": 403,
      "size": 1,
      "price": "1011000000000000000000",
      "reserved": "0x7a9fe22691c811ea339d9b73150e6911a5343dca",
      "salt": "0xc1fe60a382efeae0fe0e453669e22bf250d26a8b4f8acb3e7e12f3b9e02da2c1",
      "assetIds": []
    },
    {
      "x": 251,
      "y": 404,
      "size": 1,
      "price": "1011000000000000000000",
      "reserved": "",
      "salt": "0x6626097707c0ba2bdf3d08c963b248d8ea59b1ef17debbf237a2674457e9ce3f",
      "assetIds": []
    },
    {
      "x": 251,
      "y": 405,
      "size": 1,
      "price": "1011000000000000000000",
      "reserved": "",
      "salt": "0x81bbed8afc0c3923ed964fa95258ab06bb9385c04a57711749b866e2e3a34484",
      "assetIds": []
    },
    {
      "x": 251,
      "y": 406,
      "size": 1,
      "price": "1011000000000000000000",
      "reserved": "",
      "salt": "0xafa2bdb57d0f01ca7268c066d97c635eb18af90b326bd03da28d13e164e96232",
      "assetIds": []
    },
    {
      "x": 251,
      "y": 407,
      "size": 1,
      "price": "1011000000000000000000",
      "reserved": "",
      "salt": "0xeda9dae23c618e126c0b502a14b4791d61bb4792e8d82079c7c1c11b9de6a74d",
      "assetIds": []
    },
    {
      "x": 252,
      "y": 381,
      "size": 1,
      "price": "1011000000000000000000",
      "reserved": "",
      "salt": "0x699d8948a42cbe624db3c7159ba01027dc0014a3c60774a3ddfc143f1dd9e5b0",
      "assetIds": []
    },
    {
      "x": 252,
      "y": 382,
      "size": 1,
      "price": "1011000000000000000000",
      "reserved": "",
      "salt": "0x4017bdc8f8e0e7060a133387a990724b7928a74af3bbd926e6f27913b5b1709f",
      "assetIds": []
    },
    {
      "x": 252,
      "y": 383,
      "size": 1,
      "price": "4683000000000000000000",
      "reserved": "",
      "salt": "0x9548135bfd43a709777b619f388826fecb0d64fab2419dbd1d72718c7c3060d4",
      "assetIds": [
        "55464657044963196816950587289035428064568320970692304673817341489687790884865",
        "55464657044963196816950587289035428064568320970692304673817341489687782494208",
        "55464657044963196816950587289035428064568320970692304673817341489687790884866",
        "55464657044963196816950587289035428064568320970692304673817341489687782494209",
        "55464657044963196816950587289035428064568320970692304673817341489687790884864"
      ]
    },
    {
      "x": 253,
      "y": 381,
      "size": 1,
      "price": "1011000000000000000000",
      "reserved": "0x7a9fe22691c811ea339d9b73150e6911a5343dca",
      "salt": "0x5a4f3743fe1bd47a6bfc264ffa316e65f385e54ab403b48d9a1dbf4bfe367ebe",
      "assetIds": []
    },
    {
      "x": 253,
      "y": 382,
      "size": 1,
      "price": "1011000000000000000000",
      "reserved": "",
      "salt": "0x4a254474c749b92bee70c794bd23e7dfc8b5cdc678d7589d692575e52bf031aa",
      "assetIds": []
    },
    {
      "x": 253,
      "y": 383,
      "size": 1,
      "price": "4683000000000000000000",
      "reserved": "",
      "salt": "0x435f47ef9c7acb62f769f645cb99d556770d45c93cc0aa92b85efef58dd745e9",
      "assetIds": [
        "55464657044963196816950587289035428064568320970692304673817341489687790884865",
        "55464657044963196816950587289035428064568320970692304673817341489687782494208",
        "55464657044963196816950587289035428064568320970692304673817341489687790884866",
        "55464657044963196816950587289035428064568320970692304673817341489687782494209",
        "55464657044963196816950587289035428064568320970692304673817341489687790884864"
      ]
    },
    {
      "x": 254,
      "y": 381,
      "size": 1,
      "price": "1011000000000000000000",
      "reserved": "",
      "salt": "0xc5031a983451d6b562891c474a560976e857dde68110465e4275bbac3f065e76",
      "assetIds": []
    },
    {
      "x": 254,
      "y": 382,
      "size": 1,
      "price": "1011000000000000000000",
      "reserved": "",
      "salt": "0x6cbb16f98d7171a3ae83d254ca80b96e8a727f77ddd849ac40a691170d242688",
      "assetIds": []
    },
    {
      "x": 254,
      "y": 383,
      "size": 1,
      "price": "4683000000000000000000",
      "reserved": "",
      "salt": "0xf51040d40057302c9b9a68e4a9c1b33f31fa70a76bb3e41584feef454bee9dd6",
      "assetIds": [
        "55464657044963196816950587289035428064568320970692304673817341489687790884865",
        "55464657044963196816950587289035428064568320970692304673817341489687782494208",
        "55464657044963196816950587289035428064568320970692304673817341489687790884866",
        "55464657044963196816950587289035428064568320970692304673817341489687782494209",
        "55464657044963196816950587289035428064568320970692304673817341489687790884864"
      ]
    },
    {
      "x": 255,
      "y": 378,
      "size": 1,
      "price": "4683000000000000000000",
      "reserved": "",
      "salt": "0xc4b3b72517c6f8ddbe6c500f97c91f1727bd578087c5130db0eada1af532afb9",
      "assetIds": [
        "55464657044963196816950587289035428064568320970692304673817341489687790884865",
        "55464657044963196816950587289035428064568320970692304673817341489687782494208",
        "55464657044963196816950587289035428064568320970692304673817341489687790884866",
        "55464657044963196816950587289035428064568320970692304673817341489687782494209",
        "55464657044963196816950587289035428064568320970692304673817341489687790884864"
      ]
    },
    {
      "x": 255,
      "y": 379,
      "size": 1,
      "price": "4683000000000000000000",
      "reserved": "",
      "salt": "0x848c5fa58c625a343de2ab5c0e94a0ab984858a89055f9434dd1e0d46eac6c6d",
      "assetIds": [
        "55464657044963196816950587289035428064568320970692304673817341489687790884865",
        "55464657044963196816950587289035428064568320970692304673817341489687782494208",
        "55464657044963196816950587289035428064568320970692304673817341489687790884866",
        "55464657044963196816950587289035428064568320970692304673817341489687782494209",
        "55464657044963196816950587289035428064568320970692304673817341489687790884864"
      ]
    },
    {
      "x": 255,
      "y": 380,
      "size": 1,
      "price": "4683000000000000000000",
      "reserved": "",
      "salt": "0x43212aa7116d70c1121aa6fd4025cb80aaf91e5fc73262a8a0ecacc164264d25",
      "assetIds": [
        "55464657044963196816950587289035428064568320970692304673817341489687790884865",
        "55464657044963196816950587289035428064568320970692304673817341489687782494208",
        "55464657044963196816950587289035428064568320970692304673817341489687790884866",
        "55464657044963196816950587289035428064568320970692304673817341489687782494209",
        "55464657044963196816950587289035428064568320970692304673817341489687790884864"
      ]
    },
    {
      "x": 255,
      "y": 381,
      "size": 1,
      "price": "1011000000000000000000",
      "reserved": "",
      "salt": "0x6dd637c5c7ccade06ec3b1873f40b7be6894cc664fd38af601ed9bfa071bc929",
      "assetIds": []
    },
    {
      "x": 255,
      "y": 382,
      "size": 1,
      "price": "1011000000000000000000",
      "reserved": "",
      "salt": "0xdc3e3279e6df5c209219d5d78184335723f9c625f6eed61bc4d9414ef62ca1b5",
      "assetIds": []
    },
    {
      "x": 255,
      "y": 383,
      "size": 1,
      "price": "1011000000000000000000",
      "reserved": "",
      "salt": "0xb4c10eabc7678a9d6031e3bcc87019007f887b71ee20a5daed4aa0478b68892f",
      "assetIds": []
    },
    {
      "x": 256,
      "y": 378,
      "size": 1,
      "price": "4683000000000000000000",
      "reserved": "",
      "salt": "0xdc5477d37387f337cab7184d86c3128c8b0d863c25e6ef61834e37c02b712c28",
      "assetIds": [
        "55464657044963196816950587289035428064568320970692304673817341489687790884865",
        "55464657044963196816950587289035428064568320970692304673817341489687782494208",
        "55464657044963196816950587289035428064568320970692304673817341489687790884866",
        "55464657044963196816950587289035428064568320970692304673817341489687782494209",
        "55464657044963196816950587289035428064568320970692304673817341489687790884864"
      ]
    },
    {
      "x": 256,
      "y": 379,
      "size": 1,
      "price": "4683000000000000000000",
      "reserved": "",
      "salt": "0x684b48b82c500acd6bdcc1474538ecda329135989669d45efbc75afe4293d240",
      "assetIds": [
        "55464657044963196816950587289035428064568320970692304673817341489687790884865",
        "55464657044963196816950587289035428064568320970692304673817341489687782494208",
        "55464657044963196816950587289035428064568320970692304673817341489687790884866",
        "55464657044963196816950587289035428064568320970692304673817341489687782494209",
        "55464657044963196816950587289035428064568320970692304673817341489687790884864"
      ]
    },
    {
      "x": 256,
      "y": 380,
      "size": 1,
      "price": "4683000000000000000000",
      "reserved": "",
      "salt": "0x2335bc2cfc2a73d1c4554564c9e1d67dc6a89e97e104834706ea429aea81003e",
      "assetIds": [
        "55464657044963196816950587289035428064568320970692304673817341489687790884865",
        "55464657044963196816950587289035428064568320970692304673817341489687782494208",
        "55464657044963196816950587289035428064568320970692304673817341489687790884866",
        "55464657044963196816950587289035428064568320970692304673817341489687782494209",
        "55464657044963196816950587289035428064568320970692304673817341489687790884864"
      ]
    },
    {
      "x": 256,
      "y": 381,
      "size": 1,
      "price": "1011000000000000000000",
      "reserved": "",
      "salt": "0x8642e8ca48f22adf700a1e165b8e13545dfeebbd7cbe1a764768c57384cb920d",
      "assetIds": []
    },
    {
      "x": 256,
      "y": 382,
      "size": 1,
      "price": "1011000000000000000000",
      "reserved": "0x7a9fe22691c811ea339d9b73150e6911a5343dca",
      "salt": "0xc7abf9c511cb47c66447d92fa2331fd82f02ea811c153726625d92758aacb1bb",
      "assetIds": []
    },
    {
      "x": 256,
      "y": 383,
      "size": 1,
      "price": "1011000000000000000000",
      "reserved": "",
      "salt": "0x4882f074e851e246422c5fe3822cec0a203e2896478f18e0fdaae3efd8a9b506",
      "assetIds": []
    },
    {
      "x": 257,
      "y": 378,
      "size": 1,
      "price": "4683000000000000000000",
      "reserved": "",
      "salt": "0x4baeef605dec752d9447c3b182b6e9f5226f1a8c30e6b4d7e25a40ab68461cea",
      "assetIds": [
        "55464657044963196816950587289035428064568320970692304673817341489687790884865",
        "55464657044963196816950587289035428064568320970692304673817341489687782494208",
        "55464657044963196816950587289035428064568320970692304673817341489687790884866",
        "55464657044963196816950587289035428064568320970692304673817341489687782494209",
        "55464657044963196816950587289035428064568320970692304673817341489687790884864"
      ]
    },
    {
      "x": 257,
      "y": 379,
      "size": 1,
      "price": "4683000000000000000000",
      "reserved": "",
      "salt": "0xf6cec8bb28f04f8b79e38346dabd05f57f5213f7b73e148cf7dec5b27e374eaf",
      "assetIds": [
        "55464657044963196816950587289035428064568320970692304673817341489687790884865",
        "55464657044963196816950587289035428064568320970692304673817341489687782494208",
        "55464657044963196816950587289035428064568320970692304673817341489687790884866",
        "55464657044963196816950587289035428064568320970692304673817341489687782494209",
        "55464657044963196816950587289035428064568320970692304673817341489687790884864"
      ]
    },
    {
      "x": 257,
      "y": 380,
      "size": 1,
      "price": "4683000000000000000000",
      "reserved": "",
      "salt": "0x12386688c3f9628f7aa304215b345381856f34ffd19b19e838a35136826d49cc",
      "assetIds": [
        "55464657044963196816950587289035428064568320970692304673817341489687790884865",
        "55464657044963196816950587289035428064568320970692304673817341489687782494208",
        "55464657044963196816950587289035428064568320970692304673817341489687790884866",
        "55464657044963196816950587289035428064568320970692304673817341489687782494209",
        "55464657044963196816950587289035428064568320970692304673817341489687790884864"
      ]
    },
    {
      "x": 257,
      "y": 381,
      "size": 1,
      "price": "1011000000000000000000",
      "reserved": "",
      "salt": "0xa81615da989d2287f058f53e085f8e28dca811cb08b949f88407fdaa7973764b",
      "assetIds": []
    },
    {
      "x": 257,
      "y": 382,
      "size": 1,
      "price": "1011000000000000000000",
      "reserved": "",
      "salt": "0x083f9e3efc199eb59b91b0e79f6dbb359bd661bc87a9b88ad80118bc22550de5",
      "assetIds": []
    },
    {
      "x": 257,
      "y": 383,
      "size": 1,
      "price": "1011000000000000000000",
      "reserved": "",
      "salt": "0x5423483718c09a15bac52070647b4a1f727ec392029110b8adbccd9a6f924584",
      "assetIds": []
    },
    {
      "x": 258,
      "y": 372,
      "size": 1,
      "price": "4683000000000000000000",
      "reserved": "",
      "salt": "0xe527970caf6644cee97a3c54983298c201a2bb0e20e024c36c03824876648636",
      "assetIds": [
        "55464657044963196816950587289035428064568320970692304673817341489687790884865",
        "55464657044963196816950587289035428064568320970692304673817341489687782494208",
        "55464657044963196816950587289035428064568320970692304673817341489687790884866",
        "55464657044963196816950587289035428064568320970692304673817341489687782494209",
        "55464657044963196816950587289035428064568320970692304673817341489687790884864"
      ]
    },
    {
      "x": 258,
      "y": 373,
      "size": 1,
      "price": "4683000000000000000000",
      "reserved": "",
      "salt": "0x38ae7fb7623c0626082ddc6d754d78e16d6d634a818f93ce17366dfdcb12deb3",
      "assetIds": [
        "55464657044963196816950587289035428064568320970692304673817341489687790884865",
        "55464657044963196816950587289035428064568320970692304673817341489687782494208",
        "55464657044963196816950587289035428064568320970692304673817341489687790884866",
        "55464657044963196816950587289035428064568320970692304673817341489687782494209",
        "55464657044963196816950587289035428064568320970692304673817341489687790884864"
      ]
    },
    {
      "x": 258,
      "y": 374,
      "size": 1,
      "price": "4683000000000000000000",
      "reserved": "",
      "salt": "0x515a9bbd473ce093aa3614f61a16b9a2f0ef534002b503ec125fb0e2c2d6949b",
      "assetIds": [
        "55464657044963196816950587289035428064568320970692304673817341489687790884865",
        "55464657044963196816950587289035428064568320970692304673817341489687782494208",
        "55464657044963196816950587289035428064568320970692304673817341489687790884866",
        "55464657044963196816950587289035428064568320970692304673817341489687782494209",
        "55464657044963196816950587289035428064568320970692304673817341489687790884864"
      ]
    },
    {
      "x": 258,
      "y": 375,
      "size": 1,
      "price": "4683000000000000000000",
      "reserved": "",
      "salt": "0x9694ff3d17a7bb2b55b7d2dcfdd3025d0fc498b198c389e8d9267d9f714b077f",
      "assetIds": [
        "55464657044963196816950587289035428064568320970692304673817341489687790884865",
        "55464657044963196816950587289035428064568320970692304673817341489687782494208",
        "55464657044963196816950587289035428064568320970692304673817341489687790884866",
        "55464657044963196816950587289035428064568320970692304673817341489687782494209",
        "55464657044963196816950587289035428064568320970692304673817341489687790884864"
      ]
    },
    {
      "x": 258,
      "y": 376,
      "size": 1,
      "price": "4683000000000000000000",
      "reserved": "",
      "salt": "0xc679812efd66a1c86c50ec45c4ad9bbfdf6f47a4ec1cb731da5cea0ff4f19447",
      "assetIds": [
        "55464657044963196816950587289035428064568320970692304673817341489687790884865",
        "55464657044963196816950587289035428064568320970692304673817341489687782494208",
        "55464657044963196816950587289035428064568320970692304673817341489687790884866",
        "55464657044963196816950587289035428064568320970692304673817341489687782494209",
        "55464657044963196816950587289035428064568320970692304673817341489687790884864"
      ]
    },
    {
      "x": 258,
      "y": 377,
      "size": 1,
      "price": "4683000000000000000000",
      "reserved": "",
      "salt": "0x611dd03813bc45d6cc3793b6679874c4ea2c108848df3e31cbe15dcf7d9d889e",
      "assetIds": [
        "55464657044963196816950587289035428064568320970692304673817341489687790884865",
        "55464657044963196816950587289035428064568320970692304673817341489687782494208",
        "55464657044963196816950587289035428064568320970692304673817341489687790884866",
        "55464657044963196816950587289035428064568320970692304673817341489687782494209",
        "55464657044963196816950587289035428064568320970692304673817341489687790884864"
      ]
    },
    {
      "x": 258,
      "y": 378,
      "size": 1,
      "price": "4683000000000000000000",
      "reserved": "",
      "salt": "0x131eee1012d02a5c86e84cccc3f66784624f3b2a8121c20d14c1e41b2f61b808",
      "assetIds": [
        "55464657044963196816950587289035428064568320970692304673817341489687790884865",
        "55464657044963196816950587289035428064568320970692304673817341489687782494208",
        "55464657044963196816950587289035428064568320970692304673817341489687790884866",
        "55464657044963196816950587289035428064568320970692304673817341489687782494209",
        "55464657044963196816950587289035428064568320970692304673817341489687790884864"
      ]
    },
    {
      "x": 258,
      "y": 379,
      "size": 1,
      "price": "1011000000000000000000",
      "reserved": "0x7a9fe22691c811ea339d9b73150e6911a5343dca",
      "salt": "0x7f59c3fbbf3dc0154b2490aa1deb53ed078666f7dab3615d7bed5ceada2da485",
      "assetIds": []
    },
    {
      "x": 258,
      "y": 380,
      "size": 1,
      "price": "1011000000000000000000",
      "reserved": "",
      "salt": "0x2063b5c9f03f5d4db6d6b15a7fcf71d56401c530bc84c3e35a6957dfc44ce30c",
      "assetIds": []
    },
    {
      "x": 258,
      "y": 381,
      "size": 1,
      "price": "1011000000000000000000",
      "reserved": "",
      "salt": "0x795dfaa0ff61ffa98ac1f8bdf42326e70a29b4f7d36b86e249c989b05e1fe77d",
      "assetIds": []
    },
    {
      "x": 258,
      "y": 382,
      "size": 1,
      "price": "1011000000000000000000",
      "reserved": "",
      "salt": "0x112d1608a454b3bfefdca4ea75d8d40cf0ada8012416e1a6c991750b9728f558",
      "assetIds": []
    },
    {
      "x": 258,
      "y": 383,
      "size": 1,
      "price": "1011000000000000000000",
      "reserved": "",
      "salt": "0x04c3a0eaaebf1702fcdea623584a3dad9fc444af21c9f036562698c3dfb0cffc",
      "assetIds": []
    },
    {
      "x": 259,
      "y": 372,
      "size": 1,
      "price": "4683000000000000000000",
      "reserved": "",
      "salt": "0x32aedb52c25fa10e0df299fe4a7bde5e7ea37d0e85ebb46c5e0c8e2b1cdf147c",
      "assetIds": [
        "55464657044963196816950587289035428064568320970692304673817341489687790884865",
        "55464657044963196816950587289035428064568320970692304673817341489687782494208",
        "55464657044963196816950587289035428064568320970692304673817341489687790884866",
        "55464657044963196816950587289035428064568320970692304673817341489687782494209",
        "55464657044963196816950587289035428064568320970692304673817341489687790884864"
      ]
    },
    {
      "x": 259,
      "y": 373,
      "size": 1,
      "price": "4683000000000000000000",
      "reserved": "",
      "salt": "0x32b8015a44d4e0abf8be7fddb2a4e785fedaf3a9b89fdb799fd9e4d3a41f5e1d",
      "assetIds": [
        "55464657044963196816950587289035428064568320970692304673817341489687790884865",
        "55464657044963196816950587289035428064568320970692304673817341489687782494208",
        "55464657044963196816950587289035428064568320970692304673817341489687790884866",
        "55464657044963196816950587289035428064568320970692304673817341489687782494209",
        "55464657044963196816950587289035428064568320970692304673817341489687790884864"
      ]
    },
    {
      "x": 259,
      "y": 374,
      "size": 1,
      "price": "4683000000000000000000",
      "reserved": "",
      "salt": "0x7f455df49e1a93b73f264121a8c02ac2cd17e58f13bfb187adda34232cf5631f",
      "assetIds": [
        "55464657044963196816950587289035428064568320970692304673817341489687790884865",
        "55464657044963196816950587289035428064568320970692304673817341489687782494208",
        "55464657044963196816950587289035428064568320970692304673817341489687790884866",
        "55464657044963196816950587289035428064568320970692304673817341489687782494209",
        "55464657044963196816950587289035428064568320970692304673817341489687790884864"
      ]
    },
    {
      "x": 259,
      "y": 375,
      "size": 1,
      "price": "1011000000000000000000",
      "reserved": "",
      "salt": "0x572caea4f47eecb4d71791e3a5cf36012e3883ef68df968605bd7369a689de4d",
      "assetIds": []
    },
    {
      "x": 259,
      "y": 376,
      "size": 1,
      "price": "1011000000000000000000",
      "reserved": "",
      "salt": "0x10750fc4df145b1de4ddf20e4162bd07c74b135a32b84fd2a3c57d0b5b9ef846",
      "assetIds": []
    },
    {
      "x": 259,
      "y": 377,
      "size": 1,
      "price": "1011000000000000000000",
      "reserved": "0x7a9fe22691c811ea339d9b73150e6911a5343dca",
      "salt": "0xdb7780813bbd89d79f5825b30654c056f5c038de6449a1c70180d1614181188d",
      "assetIds": []
    },
    {
      "x": 259,
      "y": 378,
      "size": 1,
      "price": "1011000000000000000000",
      "reserved": "",
      "salt": "0xcc9f76439e78198fa45940b91f00d2ea5768544e96f7e73afb1998393937a953",
      "assetIds": []
    },
    {
      "x": 259,
      "y": 379,
      "size": 1,
      "price": "1011000000000000000000",
      "reserved": "",
      "salt": "0x1a2ef3b9755ba8ea33a2b74cd0f3e59f4e5f219e84b4f7e11dd8f50d4931122a",
      "assetIds": []
    },
    {
      "x": 259,
      "y": 380,
      "size": 1,
      "price": "1011000000000000000000",
      "reserved": "",
      "salt": "0xd8676644375abe896809a6c2f76b31f6626fc580c907946e279926bd120fb27d",
      "assetIds": []
    },
    {
      "x": 259,
      "y": 381,
      "size": 1,
      "price": "1011000000000000000000",
      "reserved": "0x7a9fe22691c811ea339d9b73150e6911a5343dca",
      "salt": "0x466e4abf2910b0ed703f9abb2b6132783453d5361312aa71f87322afb92114af",
      "assetIds": []
    },
    {
      "x": 259,
      "y": 382,
      "size": 1,
      "price": "1011000000000000000000",
      "reserved": "",
      "salt": "0x05f07b2c96275f48c1ecb52e618a67b4c2ec5cb3067f12e5d7cb381bd419685e",
      "assetIds": []
    },
    {
      "x": 259,
      "y": 383,
      "size": 1,
      "price": "1011000000000000000000",
      "reserved": "0x7a9fe22691c811ea339d9b73150e6911a5343dca",
      "salt": "0x771d57de87c544eb0791c157e763efb247c51eaada0486a10447fa744183e03a",
      "assetIds": []
    },
    {
      "x": 260,
      "y": 372,
      "size": 1,
      "price": "4683000000000000000000",
      "reserved": "",
      "salt": "0x7e73235092c3e14a9cd627016b2d6c22d2208f2044b1902b0debad6e26735545",
      "assetIds": [
        "55464657044963196816950587289035428064568320970692304673817341489687790884865",
        "55464657044963196816950587289035428064568320970692304673817341489687782494208",
        "55464657044963196816950587289035428064568320970692304673817341489687790884866",
        "55464657044963196816950587289035428064568320970692304673817341489687782494209",
        "55464657044963196816950587289035428064568320970692304673817341489687790884864"
      ]
    },
    {
      "x": 260,
      "y": 373,
      "size": 1,
      "price": "4683000000000000000000",
      "reserved": "",
      "salt": "0xbbed273ce70d3913c6f24c0f2099ff5e03ce7fd55af1ef874e58e11373aabb5d",
      "assetIds": [
        "55464657044963196816950587289035428064568320970692304673817341489687790884865",
        "55464657044963196816950587289035428064568320970692304673817341489687782494208",
        "55464657044963196816950587289035428064568320970692304673817341489687790884866",
        "55464657044963196816950587289035428064568320970692304673817341489687782494209",
        "55464657044963196816950587289035428064568320970692304673817341489687790884864"
      ]
    },
    {
      "x": 260,
      "y": 374,
      "size": 1,
      "price": "1011000000000000000000",
      "reserved": "0x7a9fe22691c811ea339d9b73150e6911a5343dca",
      "salt": "0x96a0a3c8b84e09614ec15400ad58711e814ced62747b2fe97805c46624368353",
      "assetIds": []
    },
    {
      "x": 260,
      "y": 375,
      "size": 1,
      "price": "1011000000000000000000",
      "reserved": "",
      "salt": "0x6d354e6714a55a94b4db60dd987d4066feecc66485a7236a2314dc0a3b733c80",
      "assetIds": []
    },
    {
      "x": 260,
      "y": 376,
      "size": 1,
      "price": "1011000000000000000000",
      "reserved": "",
      "salt": "0x6cb8e8a3320e6f0b34376fe34ed5fff2ba5eed273bf3475d4abceb7d95317d38",
      "assetIds": []
    },
    {
      "x": 260,
      "y": 377,
      "size": 1,
      "price": "1011000000000000000000",
      "reserved": "",
      "salt": "0xaf1fc0e8dc445bbe943783b691bd6c2da632478d574f21c4a270b0563a1ba150",
      "assetIds": []
    },
    {
      "x": 260,
      "y": 378,
      "size": 1,
      "price": "1011000000000000000000",
      "reserved": "",
      "salt": "0xc7a5bba15cf739ba8609049580352bd0786cf16827372fd9392e9e24c7aa77ac",
      "assetIds": []
    },
    {
      "x": 260,
      "y": 379,
      "size": 1,
      "price": "1011000000000000000000",
      "reserved": "",
      "salt": "0x246e37b4ab6143cc9c8a5aee6c8c27e837f21f3ead502186a62a8ecec6034385",
      "assetIds": []
    },
    {
      "x": 260,
      "y": 380,
      "size": 1,
      "price": "1011000000000000000000",
      "reserved": "",
      "salt": "0x466981fe77720f07d4853f30bec71da442bb7265ddf18b494d90b59ddb2ffaf1",
      "assetIds": []
    },
    {
      "x": 260,
      "y": 381,
      "size": 1,
      "price": "1011000000000000000000",
      "reserved": "0x7a9fe22691c811ea339d9b73150e6911a5343dca",
      "salt": "0xd0e57f961cb35e06003361923352e12e4534321b21726a0a05405a50ee2cd8b6",
      "assetIds": []
    },
    {
      "x": 260,
      "y": 382,
      "size": 1,
      "price": "1011000000000000000000",
      "reserved": "",
      "salt": "0xd53f339a40283837f8602570d3c41d1dc605a0e86bc0d2f27de59843db0d56b1",
      "assetIds": []
    },
    {
      "x": 260,
      "y": 383,
      "size": 1,
      "price": "1011000000000000000000",
      "reserved": "",
      "salt": "0x8e9b48bf35e2b208ee1e56900dd256239e55c58e28ff72b629e453b4b129fba0",
      "assetIds": []
    },
    {
      "x": 261,
      "y": 372,
      "size": 1,
      "price": "4683000000000000000000",
      "reserved": "",
      "salt": "0x7c961178c7a177de9a57c4f6d5ecfd090ff098db1d3799b6d57de6154df227c0",
      "assetIds": [
        "55464657044963196816950587289035428064568320970692304673817341489687790884865",
        "55464657044963196816950587289035428064568320970692304673817341489687782494208",
        "55464657044963196816950587289035428064568320970692304673817341489687790884866",
        "55464657044963196816950587289035428064568320970692304673817341489687782494209",
        "55464657044963196816950587289035428064568320970692304673817341489687790884864"
      ]
    },
    {
      "x": 261,
      "y": 373,
      "size": 1,
      "price": "4683000000000000000000",
      "reserved": "",
      "salt": "0xe24edf929b68a8c832221a7dcb1b6252c28342b51340096c1737670ac7bcc6a3",
      "assetIds": [
        "55464657044963196816950587289035428064568320970692304673817341489687790884865",
        "55464657044963196816950587289035428064568320970692304673817341489687782494208",
        "55464657044963196816950587289035428064568320970692304673817341489687790884866",
        "55464657044963196816950587289035428064568320970692304673817341489687782494209",
        "55464657044963196816950587289035428064568320970692304673817341489687790884864"
      ]
    },
    {
      "x": 261,
      "y": 374,
      "size": 1,
      "price": "4683000000000000000000",
      "reserved": "",
      "salt": "0xcaff77af60d37d31e02e820b085de2f48584592316f1f21ba38c0c4eb7fb8e2f",
      "assetIds": [
        "55464657044963196816950587289035428064568320970692304673817341489687790884865",
        "55464657044963196816950587289035428064568320970692304673817341489687782494208",
        "55464657044963196816950587289035428064568320970692304673817341489687790884866",
        "55464657044963196816950587289035428064568320970692304673817341489687782494209",
        "55464657044963196816950587289035428064568320970692304673817341489687790884864"
      ]
    },
    {
      "x": 261,
      "y": 375,
      "size": 1,
      "price": "1011000000000000000000",
      "reserved": "",
      "salt": "0x9e55b724e20441c8bbe71212c74f38ede73898d6c4174db64ae9336dc3124b09",
      "assetIds": []
    },
    {
      "x": 261,
      "y": 376,
      "size": 1,
      "price": "1011000000000000000000",
      "reserved": "",
      "salt": "0x4bad1c8137cd0793694ad819bcb6cacdbf6e0a5f335a497b43efedb44d2666c4",
      "assetIds": []
    },
    {
      "x": 261,
      "y": 377,
      "size": 1,
      "price": "1011000000000000000000",
      "reserved": "",
      "salt": "0x94a766c5bc861daa9ff185cefba6b6df71a427da5eb59a28f2d587022aea2865",
      "assetIds": []
    },
    {
      "x": 261,
      "y": 378,
      "size": 1,
      "price": "1011000000000000000000",
      "reserved": "0x7a9fe22691c811ea339d9b73150e6911a5343dca",
      "salt": "0x97e38b29c8e9ca3bd300d8266feb67b76309f043f3dac2f8891475544b33a66c",
      "assetIds": []
    },
    {
      "x": 261,
      "y": 379,
      "size": 1,
      "price": "1011000000000000000000",
      "reserved": "0x7a9fe22691c811ea339d9b73150e6911a5343dca",
      "salt": "0xc1aba7775ddd3819e4e048ed33e0ff43cbcc34b8940e11e31ec730f4d34eb600",
      "assetIds": []
    },
    {
      "x": 261,
      "y": 380,
      "size": 1,
      "price": "1011000000000000000000",
      "reserved": "",
      "salt": "0x1fc48195938589df15e7cc8712dc2031cf4bac0100b30cc91857acb39018023e",
      "assetIds": []
    },
    {
      "x": 261,
      "y": 381,
      "size": 1,
      "price": "1011000000000000000000",
      "reserved": "",
      "salt": "0xa2c9513c5fcb319bcd24319c5396f9ae8642e133f6c5d2e0c6c3f8917750a10e",
      "assetIds": []
    },
    {
      "x": 261,
      "y": 382,
      "size": 1,
      "price": "1011000000000000000000",
      "reserved": "",
      "salt": "0x34e1701f50a127b40f289da3b7a4b873b3592f171f1e69d2743bc9bdfcb9e7de",
      "assetIds": []
    },
    {
      "x": 261,
      "y": 383,
      "size": 1,
      "price": "1011000000000000000000",
      "reserved": "",
      "salt": "0xd1b456a677c34a9384fe010eadc09dc78043bc43b0849edb3d7575757e65a595",
      "assetIds": []
    },
    {
      "x": 262,
      "y": 372,
      "size": 1,
      "price": "4683000000000000000000",
      "reserved": "",
      "salt": "0x5a91fc1c5eabdb3cda8365b19ec3f60fcc3eeb797e50a01b49a8db9d7820d4d9",
      "assetIds": [
        "55464657044963196816950587289035428064568320970692304673817341489687790884865",
        "55464657044963196816950587289035428064568320970692304673817341489687782494208",
        "55464657044963196816950587289035428064568320970692304673817341489687790884866",
        "55464657044963196816950587289035428064568320970692304673817341489687782494209",
        "55464657044963196816950587289035428064568320970692304673817341489687790884864"
      ]
    },
    {
      "x": 262,
      "y": 373,
      "size": 1,
      "price": "1011000000000000000000",
      "reserved": "",
      "salt": "0x169cc5591d80facd5973a1e76d8b2a26281eb2978a8f69da9e8736e5cb1f824c",
      "assetIds": []
    },
    {
      "x": 262,
      "y": 374,
      "size": 1,
      "price": "1011000000000000000000",
      "reserved": "",
      "salt": "0xb077c90749aac4841987d947e228b73ece48128a8db933bf9f21deb492f7596c",
      "assetIds": []
    },
    {
      "x": 262,
      "y": 375,
      "size": 1,
      "price": "1011000000000000000000",
      "reserved": "0x7a9fe22691c811ea339d9b73150e6911a5343dca",
      "salt": "0xfc749ec8d65fec759b8b79ed1b25a6334460c58edde0af55420a11cf74a19952",
      "assetIds": []
    },
    {
      "x": 262,
      "y": 376,
      "size": 1,
      "price": "1011000000000000000000",
      "reserved": "",
      "salt": "0x4739189959869d872ca2574ff5e0b8aa793ba81e6cbabc98d2a9d531623a497d",
      "assetIds": []
    },
    {
      "x": 262,
      "y": 377,
      "size": 1,
      "price": "1011000000000000000000",
      "reserved": "",
      "salt": "0x34d383e0506ac2dc83ec0f6570638222d2f0f8918d2e0d51e62a887f8740f72c",
      "assetIds": []
    },
    {
      "x": 262,
      "y": 378,
      "size": 1,
      "price": "1011000000000000000000",
      "reserved": "",
      "salt": "0xc90c414fffec3531d80dca44a0d1e18ace789de05943e50ed37c06d08fc2f756",
      "assetIds": []
    },
    {
      "x": 262,
      "y": 379,
      "size": 1,
      "price": "1011000000000000000000",
      "reserved": "",
      "salt": "0xd59e9fdae6ea2aaf6cf022b41fc01a4e5eabe5ae943afea591e5828f0f65d882",
      "assetIds": []
    },
    {
      "x": 262,
      "y": 380,
      "size": 1,
      "price": "4683000000000000000000",
      "reserved": "",
      "salt": "0x8044687bc77ce96c6057034bf174e6f725a150f66160da3e9a7f403c33154843",
      "assetIds": [
        "55464657044963196816950587289035428064568320970692304673817341489687790884865",
        "55464657044963196816950587289035428064568320970692304673817341489687782494208",
        "55464657044963196816950587289035428064568320970692304673817341489687790884866",
        "55464657044963196816950587289035428064568320970692304673817341489687782494209",
        "55464657044963196816950587289035428064568320970692304673817341489687790884864"
      ]
    },
    {
      "x": 262,
      "y": 381,
      "size": 1,
      "price": "4683000000000000000000",
      "reserved": "",
      "salt": "0x8820edd3c949cf784432612101ae7905d4591facc46edfd2873cfd19aa4bf47a",
      "assetIds": [
        "55464657044963196816950587289035428064568320970692304673817341489687790884865",
        "55464657044963196816950587289035428064568320970692304673817341489687782494208",
        "55464657044963196816950587289035428064568320970692304673817341489687790884866",
        "55464657044963196816950587289035428064568320970692304673817341489687782494209",
        "55464657044963196816950587289035428064568320970692304673817341489687790884864"
      ]
    },
    {
      "x": 262,
      "y": 382,
      "size": 1,
      "price": "4683000000000000000000",
      "reserved": "",
      "salt": "0x054af2bf45838a0bd7956442f95dd7a5c09d12541972671de10f1e1dfeb3fd51",
      "assetIds": [
        "55464657044963196816950587289035428064568320970692304673817341489687790884865",
        "55464657044963196816950587289035428064568320970692304673817341489687782494208",
        "55464657044963196816950587289035428064568320970692304673817341489687790884866",
        "55464657044963196816950587289035428064568320970692304673817341489687782494209",
        "55464657044963196816950587289035428064568320970692304673817341489687790884864"
      ]
    },
    {
      "x": 262,
      "y": 383,
      "size": 1,
      "price": "4683000000000000000000",
      "reserved": "",
      "salt": "0x8a3bc02ebebee8cb680191a9a33ed59c33028c5f29fb9119da2955f2506869bd",
      "assetIds": [
        "55464657044963196816950587289035428064568320970692304673817341489687790884865",
        "55464657044963196816950587289035428064568320970692304673817341489687782494208",
        "55464657044963196816950587289035428064568320970692304673817341489687790884866",
        "55464657044963196816950587289035428064568320970692304673817341489687782494209",
        "55464657044963196816950587289035428064568320970692304673817341489687790884864"
      ]
    },
    {
      "x": 263,
      "y": 372,
      "size": 1,
      "price": "4683000000000000000000",
      "reserved": "",
      "salt": "0xfd9ecc2c037cee2d6dc849d3e5d703a3c1f8141f9c742ea498944c3389af9aa8",
      "assetIds": [
        "55464657044963196816950587289035428064568320970692304673817341489687790884865",
        "55464657044963196816950587289035428064568320970692304673817341489687782494208",
        "55464657044963196816950587289035428064568320970692304673817341489687790884866",
        "55464657044963196816950587289035428064568320970692304673817341489687782494209",
        "55464657044963196816950587289035428064568320970692304673817341489687790884864"
      ]
    },
    {
      "x": 263,
      "y": 373,
      "size": 1,
      "price": "4683000000000000000000",
      "reserved": "",
      "salt": "0x02644807c15b1e0ec4b5a251702daf45e0e853e9907efdb8f6289dfd21d73fe3",
      "assetIds": [
        "55464657044963196816950587289035428064568320970692304673817341489687790884865",
        "55464657044963196816950587289035428064568320970692304673817341489687782494208",
        "55464657044963196816950587289035428064568320970692304673817341489687790884866",
        "55464657044963196816950587289035428064568320970692304673817341489687782494209",
        "55464657044963196816950587289035428064568320970692304673817341489687790884864"
      ]
    },
    {
      "x": 263,
      "y": 374,
      "size": 1,
      "price": "4683000000000000000000",
      "reserved": "",
      "salt": "0x9c9a6d2b54f7e6be9bfb568d97ae2ea74a50df8ab84f5c6643f4e979ce53ea3f",
      "assetIds": [
        "55464657044963196816950587289035428064568320970692304673817341489687790884865",
        "55464657044963196816950587289035428064568320970692304673817341489687782494208",
        "55464657044963196816950587289035428064568320970692304673817341489687790884866",
        "55464657044963196816950587289035428064568320970692304673817341489687782494209",
        "55464657044963196816950587289035428064568320970692304673817341489687790884864"
      ]
    },
    {
      "x": 263,
      "y": 375,
      "size": 1,
      "price": "4683000000000000000000",
      "reserved": "",
      "salt": "0xf3aff950cef7756377cf57cec78a630a0620fa9fd3b5d005884daaecbf0aa708",
      "assetIds": [
        "55464657044963196816950587289035428064568320970692304673817341489687790884865",
        "55464657044963196816950587289035428064568320970692304673817341489687782494208",
        "55464657044963196816950587289035428064568320970692304673817341489687790884866",
        "55464657044963196816950587289035428064568320970692304673817341489687782494209",
        "55464657044963196816950587289035428064568320970692304673817341489687790884864"
      ]
    },
    {
      "x": 263,
      "y": 376,
      "size": 1,
      "price": "4683000000000000000000",
      "reserved": "",
      "salt": "0x4b954cf76657d0a04eec292bacf43bb9ec61793aed8a88574b820c842d49cc7b",
      "assetIds": [
        "55464657044963196816950587289035428064568320970692304673817341489687790884865",
        "55464657044963196816950587289035428064568320970692304673817341489687782494208",
        "55464657044963196816950587289035428064568320970692304673817341489687790884866",
        "55464657044963196816950587289035428064568320970692304673817341489687782494209",
        "55464657044963196816950587289035428064568320970692304673817341489687790884864"
      ]
    },
    {
      "x": 263,
      "y": 377,
      "size": 1,
      "price": "4683000000000000000000",
      "reserved": "",
      "salt": "0x0112ab9d347fd48e14b5e0bcb198956c473576e99438ac1e852b024ba83ce13e",
      "assetIds": [
        "55464657044963196816950587289035428064568320970692304673817341489687790884865",
        "55464657044963196816950587289035428064568320970692304673817341489687782494208",
        "55464657044963196816950587289035428064568320970692304673817341489687790884866",
        "55464657044963196816950587289035428064568320970692304673817341489687782494209",
        "55464657044963196816950587289035428064568320970692304673817341489687790884864"
      ]
    },
    {
      "x": 263,
      "y": 378,
      "size": 1,
      "price": "4683000000000000000000",
      "reserved": "",
      "salt": "0x83ebd48cea2e7b9ebcf53dfcee7df1dfb306a63f8556c94b6a91bc1985442cce",
      "assetIds": [
        "55464657044963196816950587289035428064568320970692304673817341489687790884865",
        "55464657044963196816950587289035428064568320970692304673817341489687782494208",
        "55464657044963196816950587289035428064568320970692304673817341489687790884866",
        "55464657044963196816950587289035428064568320970692304673817341489687782494209",
        "55464657044963196816950587289035428064568320970692304673817341489687790884864"
      ]
    },
    {
      "x": 263,
      "y": 379,
      "size": 1,
      "price": "4683000000000000000000",
      "reserved": "",
      "salt": "0x937958e2d430cfb8730e23df7be74c5937b595b51b5ae8f04b1a9eda5952b847",
      "assetIds": [
        "55464657044963196816950587289035428064568320970692304673817341489687790884865",
        "55464657044963196816950587289035428064568320970692304673817341489687782494208",
        "55464657044963196816950587289035428064568320970692304673817341489687790884866",
        "55464657044963196816950587289035428064568320970692304673817341489687782494209",
        "55464657044963196816950587289035428064568320970692304673817341489687790884864"
      ]
    },
    {
      "x": 263,
      "y": 380,
      "size": 1,
      "price": "4683000000000000000000",
      "reserved": "",
      "salt": "0x30d882b72dad0ac3009074a1e79c6b4ea76cd0933f76ea9ef1da393d098dd474",
      "assetIds": [
        "55464657044963196816950587289035428064568320970692304673817341489687790884865",
        "55464657044963196816950587289035428064568320970692304673817341489687782494208",
        "55464657044963196816950587289035428064568320970692304673817341489687790884866",
        "55464657044963196816950587289035428064568320970692304673817341489687782494209",
        "55464657044963196816950587289035428064568320970692304673817341489687790884864"
      ]
    },
    {
      "x": 263,
      "y": 381,
      "size": 1,
      "price": "4683000000000000000000",
      "reserved": "",
      "salt": "0x18683a3ef9c51f86a16e1fa97bf64410204f005fef5df8bb52c984cdcb818ec8",
      "assetIds": [
        "55464657044963196816950587289035428064568320970692304673817341489687790884865",
        "55464657044963196816950587289035428064568320970692304673817341489687782494208",
        "55464657044963196816950587289035428064568320970692304673817341489687790884866",
        "55464657044963196816950587289035428064568320970692304673817341489687782494209",
        "55464657044963196816950587289035428064568320970692304673817341489687790884864"
      ]
    },
    {
      "x": 263,
      "y": 382,
      "size": 1,
      "price": "4683000000000000000000",
      "reserved": "",
      "salt": "0xc9bf78ec74121c886a97452e5de26e553722d5e1a4c6d0a2040879292e8a3f5a",
      "assetIds": [
        "55464657044963196816950587289035428064568320970692304673817341489687790884865",
        "55464657044963196816950587289035428064568320970692304673817341489687782494208",
        "55464657044963196816950587289035428064568320970692304673817341489687790884866",
        "55464657044963196816950587289035428064568320970692304673817341489687782494209",
        "55464657044963196816950587289035428064568320970692304673817341489687790884864"
      ]
    },
    {
      "x": 263,
      "y": 383,
      "size": 1,
      "price": "4683000000000000000000",
      "reserved": "",
      "salt": "0xbbecedca7301afdac3e9fe0a8009d40e3aee43d804fe856d2a5846a37573aef9",
      "assetIds": [
        "55464657044963196816950587289035428064568320970692304673817341489687790884865",
        "55464657044963196816950587289035428064568320970692304673817341489687782494208",
        "55464657044963196816950587289035428064568320970692304673817341489687790884866",
        "55464657044963196816950587289035428064568320970692304673817341489687782494209",
        "55464657044963196816950587289035428064568320970692304673817341489687790884864"
      ]
    },
    {
      "x": 264,
      "y": 336,
      "size": 1,
      "price": "1011000000000000000000",
      "reserved": "0x7a9fe22691c811ea339d9b73150e6911a5343dca",
      "salt": "0xe55f424180391e93f15eb387fee9d18ad5291a3c4da56bcc103ac0735a47d16c",
      "assetIds": []
    },
    {
      "x": 264,
      "y": 337,
      "size": 1,
      "price": "4683000000000000000000",
      "reserved": "",
      "salt": "0x210c9ede879fb14f5dcc28271eef197a4ff714a71991176fc591d669a3de6021",
      "assetIds": [
        "55464657044963196816950587289035428064568320970692304673817341489687790884865",
        "55464657044963196816950587289035428064568320970692304673817341489687782494208",
        "55464657044963196816950587289035428064568320970692304673817341489687790884866",
        "55464657044963196816950587289035428064568320970692304673817341489687782494209",
        "55464657044963196816950587289035428064568320970692304673817341489687790884864"
      ]
    },
    {
      "x": 264,
      "y": 338,
      "size": 1,
      "price": "4683000000000000000000",
      "reserved": "",
      "salt": "0x8fc2d88de049f8c4b8e6ad94db55e6cadd8c11eea4a7ffeb4ee87719de8723a0",
      "assetIds": [
        "55464657044963196816950587289035428064568320970692304673817341489687790884865",
        "55464657044963196816950587289035428064568320970692304673817341489687782494208",
        "55464657044963196816950587289035428064568320970692304673817341489687790884866",
        "55464657044963196816950587289035428064568320970692304673817341489687782494209",
        "55464657044963196816950587289035428064568320970692304673817341489687790884864"
      ]
    },
    {
      "x": 264,
      "y": 339,
      "size": 1,
      "price": "4683000000000000000000",
      "reserved": "",
      "salt": "0x1974b716109a89b6957d9e9d8880c293a43531235edd97cdf3de128109bcf50c",
      "assetIds": [
        "55464657044963196816950587289035428064568320970692304673817341489687790884865",
        "55464657044963196816950587289035428064568320970692304673817341489687782494208",
        "55464657044963196816950587289035428064568320970692304673817341489687790884866",
        "55464657044963196816950587289035428064568320970692304673817341489687782494209",
        "55464657044963196816950587289035428064568320970692304673817341489687790884864"
      ]
    },
    {
      "x": 264,
      "y": 340,
      "size": 1,
      "price": "4683000000000000000000",
      "reserved": "",
      "salt": "0x7b3d868e55b5dc3ff53b6523e2a49ccf8f110685237306088f05a591745d9a54",
      "assetIds": [
        "55464657044963196816950587289035428064568320970692304673817341489687790884865",
        "55464657044963196816950587289035428064568320970692304673817341489687782494208",
        "55464657044963196816950587289035428064568320970692304673817341489687790884866",
        "55464657044963196816950587289035428064568320970692304673817341489687782494209",
        "55464657044963196816950587289035428064568320970692304673817341489687790884864"
      ]
    },
    {
      "x": 264,
      "y": 341,
      "size": 1,
      "price": "4683000000000000000000",
      "reserved": "",
      "salt": "0x069f306ed353db46a7a976452f98eab0ef9bc8e792a8fefa1c8911675b041003",
      "assetIds": [
        "55464657044963196816950587289035428064568320970692304673817341489687790884865",
        "55464657044963196816950587289035428064568320970692304673817341489687782494208",
        "55464657044963196816950587289035428064568320970692304673817341489687790884866",
        "55464657044963196816950587289035428064568320970692304673817341489687782494209",
        "55464657044963196816950587289035428064568320970692304673817341489687790884864"
      ]
    },
    {
      "x": 264,
      "y": 342,
      "size": 1,
      "price": "4683000000000000000000",
      "reserved": "",
      "salt": "0x36b59fed2ee936a9277b158ee6296e5110f6c51bfc2d79d18fbc3424a53136d9",
      "assetIds": [
        "55464657044963196816950587289035428064568320970692304673817341489687790884865",
        "55464657044963196816950587289035428064568320970692304673817341489687782494208",
        "55464657044963196816950587289035428064568320970692304673817341489687790884866",
        "55464657044963196816950587289035428064568320970692304673817341489687782494209",
        "55464657044963196816950587289035428064568320970692304673817341489687790884864"
      ]
    },
    {
      "x": 264,
      "y": 343,
      "size": 1,
      "price": "4683000000000000000000",
      "reserved": "",
      "salt": "0xfb8be81e2cc7d237a1cc132dd8428c095dee747eb3fe57d1a05c043a4097036f",
      "assetIds": [
        "55464657044963196816950587289035428064568320970692304673817341489687790884865",
        "55464657044963196816950587289035428064568320970692304673817341489687782494208",
        "55464657044963196816950587289035428064568320970692304673817341489687790884866",
        "55464657044963196816950587289035428064568320970692304673817341489687782494209",
        "55464657044963196816950587289035428064568320970692304673817341489687790884864"
      ]
    },
    {
      "x": 264,
      "y": 344,
      "size": 1,
      "price": "4683000000000000000000",
      "reserved": "",
      "salt": "0x05088bb0fa010d648a1c4dd68f075ee2355aa8908ca7be5868f2a0df6ee3d9d6",
      "assetIds": [
        "55464657044963196816950587289035428064568320970692304673817341489687790884865",
        "55464657044963196816950587289035428064568320970692304673817341489687782494208",
        "55464657044963196816950587289035428064568320970692304673817341489687790884866",
        "55464657044963196816950587289035428064568320970692304673817341489687782494209",
        "55464657044963196816950587289035428064568320970692304673817341489687790884864"
      ]
    },
    {
      "x": 264,
      "y": 345,
      "size": 1,
      "price": "4683000000000000000000",
      "reserved": "",
      "salt": "0x28b58fec239dc0204a65f61f36682fa0cc04222cb63a630b96c173ac26366085",
      "assetIds": [
        "55464657044963196816950587289035428064568320970692304673817341489687790884865",
        "55464657044963196816950587289035428064568320970692304673817341489687782494208",
        "55464657044963196816950587289035428064568320970692304673817341489687790884866",
        "55464657044963196816950587289035428064568320970692304673817341489687782494209",
        "55464657044963196816950587289035428064568320970692304673817341489687790884864"
      ]
    },
    {
      "x": 264,
      "y": 346,
      "size": 1,
      "price": "4683000000000000000000",
      "reserved": "",
      "salt": "0xd8cf796a0158d4b15db7cf09942fc7203a103dfe00afc463b931c21aaf74239a",
      "assetIds": [
        "55464657044963196816950587289035428064568320970692304673817341489687790884865",
        "55464657044963196816950587289035428064568320970692304673817341489687782494208",
        "55464657044963196816950587289035428064568320970692304673817341489687790884866",
        "55464657044963196816950587289035428064568320970692304673817341489687782494209",
        "55464657044963196816950587289035428064568320970692304673817341489687790884864"
      ]
    },
    {
      "x": 264,
      "y": 347,
      "size": 1,
      "price": "4683000000000000000000",
      "reserved": "",
      "salt": "0x75651ef00bef9444d5c8ad1275c31856ada3be2d573bd86bf12f32c527e6af72",
      "assetIds": [
        "55464657044963196816950587289035428064568320970692304673817341489687790884865",
        "55464657044963196816950587289035428064568320970692304673817341489687782494208",
        "55464657044963196816950587289035428064568320970692304673817341489687790884866",
        "55464657044963196816950587289035428064568320970692304673817341489687782494209",
        "55464657044963196816950587289035428064568320970692304673817341489687790884864"
      ]
    },
    {
      "x": 264,
      "y": 348,
      "size": 1,
      "price": "4683000000000000000000",
      "reserved": "",
      "salt": "0xd598a8cea8624b7543f4198dee532ad4004b7489884f43f3a2318db1f8404fce",
      "assetIds": [
        "55464657044963196816950587289035428064568320970692304673817341489687790884865",
        "55464657044963196816950587289035428064568320970692304673817341489687782494208",
        "55464657044963196816950587289035428064568320970692304673817341489687790884866",
        "55464657044963196816950587289035428064568320970692304673817341489687782494209",
        "55464657044963196816950587289035428064568320970692304673817341489687790884864"
      ]
    },
    {
      "x": 264,
      "y": 349,
      "size": 1,
      "price": "4683000000000000000000",
      "reserved": "",
      "salt": "0xe9b32714a78866ec9d3fd6311a59f94edfdd7892bcd87cf49b308989d42d5d01",
      "assetIds": [
        "55464657044963196816950587289035428064568320970692304673817341489687790884865",
        "55464657044963196816950587289035428064568320970692304673817341489687782494208",
        "55464657044963196816950587289035428064568320970692304673817341489687790884866",
        "55464657044963196816950587289035428064568320970692304673817341489687782494209",
        "55464657044963196816950587289035428064568320970692304673817341489687790884864"
      ]
    },
    {
      "x": 264,
      "y": 350,
      "size": 1,
      "price": "4683000000000000000000",
      "reserved": "",
      "salt": "0x11602a137ef41eeb90be28c0379cd698aff11a2b6ecefa7454b3e08c249b9c3f",
      "assetIds": [
        "55464657044963196816950587289035428064568320970692304673817341489687790884865",
        "55464657044963196816950587289035428064568320970692304673817341489687782494208",
        "55464657044963196816950587289035428064568320970692304673817341489687790884866",
        "55464657044963196816950587289035428064568320970692304673817341489687782494209",
        "55464657044963196816950587289035428064568320970692304673817341489687790884864"
      ]
    },
    {
      "x": 264,
      "y": 351,
      "size": 1,
      "price": "1011000000000000000000",
      "reserved": "0x7a9fe22691c811ea339d9b73150e6911a5343dca",
      "salt": "0x84e749a86b549fc777519eb42f631cf9358f07acf07238edb06fc4f63eca8e7c",
      "assetIds": []
    },
    {
      "x": 264,
      "y": 352,
      "size": 1,
      "price": "4683000000000000000000",
      "reserved": "",
      "salt": "0x06127872519a9a2dc244838722973af7262a58b9223b5586795be745e34c67a8",
      "assetIds": [
        "55464657044963196816950587289035428064568320970692304673817341489687790884865",
        "55464657044963196816950587289035428064568320970692304673817341489687782494208",
        "55464657044963196816950587289035428064568320970692304673817341489687790884866",
        "55464657044963196816950587289035428064568320970692304673817341489687782494209",
        "55464657044963196816950587289035428064568320970692304673817341489687790884864"
      ]
    },
    {
      "x": 264,
      "y": 353,
      "size": 1,
      "price": "4683000000000000000000",
      "reserved": "",
      "salt": "0x7b0a53c0f2dcd144320f22fa2bd70ead58890bef7274e45b978584db7159fe26",
      "assetIds": [
        "55464657044963196816950587289035428064568320970692304673817341489687790884865",
        "55464657044963196816950587289035428064568320970692304673817341489687782494208",
        "55464657044963196816950587289035428064568320970692304673817341489687790884866",
        "55464657044963196816950587289035428064568320970692304673817341489687782494209",
        "55464657044963196816950587289035428064568320970692304673817341489687790884864"
      ]
    },
    {
      "x": 264,
      "y": 357,
      "size": 1,
      "price": "4683000000000000000000",
      "reserved": "",
      "salt": "0x642558ba1d3b18fefddbd5547dc65158c5ae271f0c9832ed2255fcf51590615d",
      "assetIds": [
        "55464657044963196816950587289035428064568320970692304673817341489687790884865",
        "55464657044963196816950587289035428064568320970692304673817341489687782494208",
        "55464657044963196816950587289035428064568320970692304673817341489687790884866",
        "55464657044963196816950587289035428064568320970692304673817341489687782494209",
        "55464657044963196816950587289035428064568320970692304673817341489687790884864"
      ]
    },
    {
      "x": 264,
      "y": 358,
      "size": 1,
      "price": "1011000000000000000000",
      "reserved": "0x7a9fe22691c811ea339d9b73150e6911a5343dca",
      "salt": "0x7f01d76d5a198ecb004a7e66a824c9e7f6f6f8f1e7048db9c022177cb8e90472",
      "assetIds": []
    },
    {
      "x": 264,
      "y": 359,
      "size": 1,
      "price": "4683000000000000000000",
      "reserved": "",
      "salt": "0x995cb0977ec27d114e67811e2383d6b61ebc2144b6f0a9ec967d567a22fd9b18",
      "assetIds": [
        "55464657044963196816950587289035428064568320970692304673817341489687790884865",
        "55464657044963196816950587289035428064568320970692304673817341489687782494208",
        "55464657044963196816950587289035428064568320970692304673817341489687790884866",
        "55464657044963196816950587289035428064568320970692304673817341489687782494209",
        "55464657044963196816950587289035428064568320970692304673817341489687790884864"
      ]
    },
    {
      "x": 264,
      "y": 384,
      "size": 1,
      "price": "4683000000000000000000",
      "reserved": "",
      "salt": "0x0651a64f5e447f5de056a7ec64668ced5a688d0e010bc9e290ce8fb60cb46474",
      "assetIds": [
        "55464657044963196816950587289035428064568320970692304673817341489687790884865",
        "55464657044963196816950587289035428064568320970692304673817341489687782494208",
        "55464657044963196816950587289035428064568320970692304673817341489687790884866",
        "55464657044963196816950587289035428064568320970692304673817341489687782494209",
        "55464657044963196816950587289035428064568320970692304673817341489687790884864"
      ]
    },
    {
      "x": 264,
      "y": 385,
      "size": 1,
      "price": "1011000000000000000000",
      "reserved": "",
      "salt": "0x5f00ab397a244fb7bb4210c297b71b1e8c3e26d50fffe7461240afb8583bdfc6",
      "assetIds": []
    },
    {
      "x": 264,
      "y": 386,
      "size": 1,
      "price": "1011000000000000000000",
      "reserved": "",
      "salt": "0xaae68777bfebff4f6ddcd7dcf7866831d8eee25cb7e3a838ed64589904327a65",
      "assetIds": []
    },
    {
      "x": 264,
      "y": 387,
      "size": 1,
      "price": "1011000000000000000000",
      "reserved": "",
      "salt": "0xb8bc44e9119b01baedd42875080f63830c905179787722b35c1b6a346cbb9b9a",
      "assetIds": []
    },
    {
      "x": 264,
      "y": 388,
      "size": 1,
      "price": "1011000000000000000000",
      "reserved": "",
      "salt": "0x2c32abe8737bfbcfe024841f2105c630cd1b515c024a06af7bafc8e1473473c6",
      "assetIds": []
    },
    {
      "x": 264,
      "y": 389,
      "size": 1,
      "price": "1011000000000000000000",
      "reserved": "0x7a9fe22691c811ea339d9b73150e6911a5343dca",
      "salt": "0x526ee8dc70fa4dac86ba45ec62c1434dcfeffc180aeaaa5e5d8268b74ed1a8c0",
      "assetIds": []
    },
    {
      "x": 264,
      "y": 390,
      "size": 1,
      "price": "1011000000000000000000",
      "reserved": "0x7a9fe22691c811ea339d9b73150e6911a5343dca",
      "salt": "0x3e2abc22953c81c37ec80e09ac005ce16a80e18b4cf835e67abe6c5ad43072cc",
      "assetIds": []
    },
    {
      "x": 264,
      "y": 391,
      "size": 1,
      "price": "1011000000000000000000",
      "reserved": "",
      "salt": "0x0d4af14f8ef2c85579271a059f507b6156ffdca4b8a6761e35e9a7844cb25815",
      "assetIds": []
    },
    {
      "x": 264,
      "y": 392,
      "size": 1,
      "price": "1011000000000000000000",
      "reserved": "0x7a9fe22691c811ea339d9b73150e6911a5343dca",
      "salt": "0x693ff61104dc4390b36bbefa6e62cadcb14007ab478fee12cea723275278ffba",
      "assetIds": []
    },
    {
      "x": 264,
      "y": 393,
      "size": 1,
      "price": "1011000000000000000000",
      "reserved": "",
      "salt": "0x624191c0e7d5d7b660c68bea57573fb00dd685bc997f781db6e79e560cccd869",
      "assetIds": []
    },
    {
      "x": 264,
      "y": 394,
      "size": 1,
      "price": "1011000000000000000000",
      "reserved": "",
      "salt": "0xbb26dbf4610587e695d74bba6ab8cb7e2488253dc0ef4a77d0e10d2704102ac4",
      "assetIds": []
    },
    {
      "x": 264,
      "y": 395,
      "size": 1,
      "price": "1011000000000000000000",
      "reserved": "",
      "salt": "0xb4c7d12ca22afdbde331d0ce5aa35eb1dfc54faf80e7783a3d1c8b90ff1235cc",
      "assetIds": []
    },
    {
      "x": 265,
      "y": 336,
      "size": 1,
      "price": "1011000000000000000000",
      "reserved": "0x7a9fe22691c811ea339d9b73150e6911a5343dca",
      "salt": "0x3a50336af8f010d1060471ddcc012a30ef9cf66daef1d0585d734b5ad59794c1",
      "assetIds": []
    },
    {
      "x": 265,
      "y": 337,
      "size": 1,
      "price": "1011000000000000000000",
      "reserved": "",
      "salt": "0xf63227fe3b53e15f845e0b032404942ca8b6a4c5b5a3fefa3252f71bc0cd9c40",
      "assetIds": []
    },
    {
      "x": 265,
      "y": 338,
      "size": 1,
      "price": "1011000000000000000000",
      "reserved": "",
      "salt": "0xcaaa52eba82168549ec91af1cfa2019b3b02f5092ab7eef08e6d7dd0ed497bb5",
      "assetIds": []
    },
    {
      "x": 265,
      "y": 339,
      "size": 1,
      "price": "1011000000000000000000",
      "reserved": "",
      "salt": "0x3ebd63bb65a4ca1bd89287bc02ab78f5fc5e811797b175078db259b10cca0148",
      "assetIds": []
    },
    {
      "x": 265,
      "y": 340,
      "size": 1,
      "price": "1011000000000000000000",
      "reserved": "",
      "salt": "0x868b31121fa2089cf35103cc53b5921c902c189d430721676a5287e7264e9987",
      "assetIds": []
    },
    {
      "x": 265,
      "y": 341,
      "size": 1,
      "price": "1011000000000000000000",
      "reserved": "",
      "salt": "0x3a3007e231f9cf80692ed3b2c9c520a23955b64eb688652c2a911fe2bab667a6",
      "assetIds": []
    },
    {
      "x": 265,
      "y": 342,
      "size": 1,
      "price": "4683000000000000000000",
      "reserved": "",
      "salt": "0x1f9e9214847aa3439a3ed5c90429fc0c8d926211dbb34d630c76ba534a6b88de",
      "assetIds": [
        "55464657044963196816950587289035428064568320970692304673817341489687790884865",
        "55464657044963196816950587289035428064568320970692304673817341489687782494208",
        "55464657044963196816950587289035428064568320970692304673817341489687790884866",
        "55464657044963196816950587289035428064568320970692304673817341489687782494209",
        "55464657044963196816950587289035428064568320970692304673817341489687790884864"
      ]
    },
    {
      "x": 265,
      "y": 343,
      "size": 1,
      "price": "4683000000000000000000",
      "reserved": "",
      "salt": "0x3a57441ef89129b72e53cf36564700c93af5d833050eb7d9cc9b95670afb3627",
      "assetIds": [
        "55464657044963196816950587289035428064568320970692304673817341489687790884865",
        "55464657044963196816950587289035428064568320970692304673817341489687782494208",
        "55464657044963196816950587289035428064568320970692304673817341489687790884866",
        "55464657044963196816950587289035428064568320970692304673817341489687782494209",
        "55464657044963196816950587289035428064568320970692304673817341489687790884864"
      ]
    },
    {
      "x": 265,
      "y": 344,
      "size": 1,
      "price": "4683000000000000000000",
      "reserved": "",
      "salt": "0x96443807f42452d7a0f24f035178de69a5c199587daa12595e5352ce9c831fdb",
      "assetIds": [
        "55464657044963196816950587289035428064568320970692304673817341489687790884865",
        "55464657044963196816950587289035428064568320970692304673817341489687782494208",
        "55464657044963196816950587289035428064568320970692304673817341489687790884866",
        "55464657044963196816950587289035428064568320970692304673817341489687782494209",
        "55464657044963196816950587289035428064568320970692304673817341489687790884864"
      ]
    },
    {
      "x": 265,
      "y": 345,
      "size": 1,
      "price": "4683000000000000000000",
      "reserved": "",
      "salt": "0xb08c7f9803ae06236bb74c7d71f99124d724e07584959c02da9e2108b80d2754",
      "assetIds": [
        "55464657044963196816950587289035428064568320970692304673817341489687790884865",
        "55464657044963196816950587289035428064568320970692304673817341489687782494208",
        "55464657044963196816950587289035428064568320970692304673817341489687790884866",
        "55464657044963196816950587289035428064568320970692304673817341489687782494209",
        "55464657044963196816950587289035428064568320970692304673817341489687790884864"
      ]
    },
    {
      "x": 265,
      "y": 346,
      "size": 1,
      "price": "4683000000000000000000",
      "reserved": "",
      "salt": "0x9f68b59c756e3b3fabe46f6a44001d98b9ea7bf05a8a15809759f0520d374b34",
      "assetIds": [
        "55464657044963196816950587289035428064568320970692304673817341489687790884865",
        "55464657044963196816950587289035428064568320970692304673817341489687782494208",
        "55464657044963196816950587289035428064568320970692304673817341489687790884866",
        "55464657044963196816950587289035428064568320970692304673817341489687782494209",
        "55464657044963196816950587289035428064568320970692304673817341489687790884864"
      ]
    },
    {
      "x": 265,
      "y": 347,
      "size": 1,
      "price": "4683000000000000000000",
      "reserved": "",
      "salt": "0x060b01ab07924684d9b4a903ccdc8ef9022695eca2142ccffce7364c29ad02ca",
      "assetIds": [
        "55464657044963196816950587289035428064568320970692304673817341489687790884865",
        "55464657044963196816950587289035428064568320970692304673817341489687782494208",
        "55464657044963196816950587289035428064568320970692304673817341489687790884866",
        "55464657044963196816950587289035428064568320970692304673817341489687782494209",
        "55464657044963196816950587289035428064568320970692304673817341489687790884864"
      ]
    },
    {
      "x": 265,
      "y": 348,
      "size": 1,
      "price": "4683000000000000000000",
      "reserved": "",
      "salt": "0xbd8fe1695e5f09782297e3138df593a7d5086fb815984539b43fa1b21238c1a2",
      "assetIds": [
        "55464657044963196816950587289035428064568320970692304673817341489687790884865",
        "55464657044963196816950587289035428064568320970692304673817341489687782494208",
        "55464657044963196816950587289035428064568320970692304673817341489687790884866",
        "55464657044963196816950587289035428064568320970692304673817341489687782494209",
        "55464657044963196816950587289035428064568320970692304673817341489687790884864"
      ]
    },
    {
      "x": 265,
      "y": 349,
      "size": 1,
      "price": "4683000000000000000000",
      "reserved": "",
      "salt": "0x594a26146128b12b77b2e3c2257b79b2f0327f164676204bf44e5bc36d56cda6",
      "assetIds": [
        "55464657044963196816950587289035428064568320970692304673817341489687790884865",
        "55464657044963196816950587289035428064568320970692304673817341489687782494208",
        "55464657044963196816950587289035428064568320970692304673817341489687790884866",
        "55464657044963196816950587289035428064568320970692304673817341489687782494209",
        "55464657044963196816950587289035428064568320970692304673817341489687790884864"
      ]
    },
    {
      "x": 265,
      "y": 350,
      "size": 1,
      "price": "4683000000000000000000",
      "reserved": "",
      "salt": "0x80eb4fc801b3b0ebb61aeb92b944491220b4de2b66c64367a8387a73037762a1",
      "assetIds": [
        "55464657044963196816950587289035428064568320970692304673817341489687790884865",
        "55464657044963196816950587289035428064568320970692304673817341489687782494208",
        "55464657044963196816950587289035428064568320970692304673817341489687790884866",
        "55464657044963196816950587289035428064568320970692304673817341489687782494209",
        "55464657044963196816950587289035428064568320970692304673817341489687790884864"
      ]
    },
    {
      "x": 265,
      "y": 351,
      "size": 1,
      "price": "4683000000000000000000",
      "reserved": "",
      "salt": "0x376667a08ca3c51fefda5607d9775ead975b6057c4fed9ad51760cfb35433117",
      "assetIds": [
        "55464657044963196816950587289035428064568320970692304673817341489687790884865",
        "55464657044963196816950587289035428064568320970692304673817341489687782494208",
        "55464657044963196816950587289035428064568320970692304673817341489687790884866",
        "55464657044963196816950587289035428064568320970692304673817341489687782494209",
        "55464657044963196816950587289035428064568320970692304673817341489687790884864"
      ]
    },
    {
      "x": 265,
      "y": 352,
      "size": 1,
      "price": "1011000000000000000000",
      "reserved": "",
      "salt": "0x6594d43525819dca3319c50057f6005f30f7dced5d901643e4b48bc68ae86bec",
      "assetIds": []
    },
    {
      "x": 265,
      "y": 353,
      "size": 1,
      "price": "1011000000000000000000",
      "reserved": "",
      "salt": "0x6ab1d72603c8a8112ea7dcf130467032b2be7c7abec287a4b5e71d3cd56f34c2",
      "assetIds": []
    },
    {
      "x": 265,
      "y": 357,
      "size": 1,
      "price": "1011000000000000000000",
      "reserved": "",
      "salt": "0xbcaf11a65dc425b19540b45ff50297c8605990cf9b464e63571945ff59d70f41",
      "assetIds": []
    },
    {
      "x": 265,
      "y": 358,
      "size": 1,
      "price": "1011000000000000000000",
      "reserved": "",
      "salt": "0x415d9312a5cce993bd7a66682989c1dc78df42d43b3bd481d8bf5fb528797fb4",
      "assetIds": []
    },
    {
      "x": 265,
      "y": 359,
      "size": 1,
      "price": "4683000000000000000000",
      "reserved": "",
      "salt": "0xc35a7438f2681be1e0558c6d9c49e0d7cd3855e54b9f64af9fdd23503e221916",
      "assetIds": [
        "55464657044963196816950587289035428064568320970692304673817341489687790884865",
        "55464657044963196816950587289035428064568320970692304673817341489687782494208",
        "55464657044963196816950587289035428064568320970692304673817341489687790884866",
        "55464657044963196816950587289035428064568320970692304673817341489687782494209",
        "55464657044963196816950587289035428064568320970692304673817341489687790884864"
      ]
    },
    {
      "x": 265,
      "y": 384,
      "size": 1,
      "price": "4683000000000000000000",
      "reserved": "",
      "salt": "0x747c83a1f93a51d2220cc4cb90768b140949b47b3ed8ce67dba699a5a7cffe1c",
      "assetIds": [
        "55464657044963196816950587289035428064568320970692304673817341489687790884865",
        "55464657044963196816950587289035428064568320970692304673817341489687782494208",
        "55464657044963196816950587289035428064568320970692304673817341489687790884866",
        "55464657044963196816950587289035428064568320970692304673817341489687782494209",
        "55464657044963196816950587289035428064568320970692304673817341489687790884864"
      ]
    },
    {
      "x": 265,
      "y": 385,
      "size": 1,
      "price": "1011000000000000000000",
      "reserved": "",
      "salt": "0x8bf1a2fc2c507d90e81c3c9d67b3d991a9c6fa188bd7956d29f35d8eecb980ae",
      "assetIds": []
    },
    {
      "x": 265,
      "y": 386,
      "size": 1,
      "price": "1011000000000000000000",
      "reserved": "",
      "salt": "0x36b84faacb6ee96e41a405ac7a66d036043ac02a9ded7a91dbfdf624134fd974",
      "assetIds": []
    },
    {
      "x": 265,
      "y": 387,
      "size": 1,
      "price": "1011000000000000000000",
      "reserved": "0x7a9fe22691c811ea339d9b73150e6911a5343dca",
      "salt": "0x3d49123e83d693dc5b93390b5016ba56138ac655c76aeaf2a391d611b2907491",
      "assetIds": []
    },
    {
      "x": 265,
      "y": 388,
      "size": 1,
      "price": "1011000000000000000000",
      "reserved": "",
      "salt": "0xa7dd64f1ed2c9d352008107438633e4bbecb4be3d70a1905dc930b5e0d289804",
      "assetIds": []
    },
    {
      "x": 265,
      "y": 389,
      "size": 1,
      "price": "1011000000000000000000",
      "reserved": "",
      "salt": "0x9cae3c86e96e1bf601125d0282434fec894299c0f0f6599542e3f8170dce20cd",
      "assetIds": []
    },
    {
      "x": 265,
      "y": 390,
      "size": 1,
      "price": "1011000000000000000000",
      "reserved": "",
      "salt": "0x4094bab381661d0f76edb0460821f614b5ad5024abbf0c76bff9589c3a34e552",
      "assetIds": []
    },
    {
      "x": 265,
      "y": 391,
      "size": 1,
      "price": "1011000000000000000000",
      "reserved": "",
      "salt": "0x04f4e58d69c7ef7a4942d98465cbcc7a87148c870ac4a841ecc84768c75a184e",
      "assetIds": []
    },
    {
      "x": 265,
      "y": 392,
      "size": 1,
      "price": "1011000000000000000000",
      "reserved": "0x7a9fe22691c811ea339d9b73150e6911a5343dca",
      "salt": "0xfe4b7f893463a800de91a6d6958e55c2bdbf8641d4424c173bfcfd6535ecff97",
      "assetIds": []
    },
    {
      "x": 265,
      "y": 393,
      "size": 1,
      "price": "1011000000000000000000",
      "reserved": "",
      "salt": "0x2daf02047e49369fe50ff40cc11120d3d0511f54fd8e3853ab7b4c9f8d3b4f3e",
      "assetIds": []
    },
    {
      "x": 265,
      "y": 394,
      "size": 1,
      "price": "1011000000000000000000",
      "reserved": "0x7a9fe22691c811ea339d9b73150e6911a5343dca",
      "salt": "0x7a94d9d1e678781fe0194f5c0bb61f74f5483f81dcec47d54401bbf8d8b46a8b",
      "assetIds": []
    },
    {
      "x": 265,
      "y": 395,
      "size": 1,
      "price": "1011000000000000000000",
      "reserved": "",
      "salt": "0x348965a46c590d4f93f684559914e1f557a4767356d2bba0f27913263a5193e7",
      "assetIds": []
    },
    {
      "x": 266,
      "y": 336,
      "size": 1,
      "price": "1011000000000000000000",
      "reserved": "",
      "salt": "0xc58227969212051f8702f54786e8bbb529e8febae3fb0b4ae91b6f020522978c",
      "assetIds": []
    },
    {
      "x": 266,
      "y": 337,
      "size": 1,
      "price": "1011000000000000000000",
      "reserved": "",
      "salt": "0x1596ae9152b7a8a62d4b0d06798510710d275a40f4d59f247ed4157b825d0c1b",
      "assetIds": []
    },
    {
      "x": 266,
      "y": 338,
      "size": 1,
      "price": "1011000000000000000000",
      "reserved": "",
      "salt": "0xfb6651317b435f26f0af034b500f652112983209de8a7ec7258d1ed9049c3af3",
      "assetIds": []
    },
    {
      "x": 266,
      "y": 339,
      "size": 1,
      "price": "1011000000000000000000",
      "reserved": "",
      "salt": "0x50364a382fda35b3f1a9664205c75c2bd0941279ca038fba1df8de7ee74c8566",
      "assetIds": []
    },
    {
      "x": 266,
      "y": 340,
      "size": 1,
      "price": "1011000000000000000000",
      "reserved": "",
      "salt": "0x657fc8edc1dafeb0fcbcea0b667792a4b0ed86fdc29cbb5c1acdca4d0678e02e",
      "assetIds": []
    },
    {
      "x": 266,
      "y": 341,
      "size": 1,
      "price": "1011000000000000000000",
      "reserved": "",
      "salt": "0xd993aae1ecd4791fc272a3bcbdd39118636656a1227798f89815ca25c32f5f4b",
      "assetIds": []
    },
    {
      "x": 266,
      "y": 342,
      "size": 1,
      "price": "1011000000000000000000",
      "reserved": "",
      "salt": "0x6f9cf198a57bdec2473cd8f7c162519c7561711a6155a5a46193e92e2baf644e",
      "assetIds": []
    },
    {
      "x": 266,
      "y": 343,
      "size": 1,
      "price": "1011000000000000000000",
      "reserved": "",
      "salt": "0xbbf99ecf0d1ad261bb34891f5244b5aca42094cc305df2b7e1abea24640f3875",
      "assetIds": []
    },
    {
      "x": 266,
      "y": 344,
      "size": 1,
      "price": "1011000000000000000000",
      "reserved": "0x7a9fe22691c811ea339d9b73150e6911a5343dca",
      "salt": "0xeb8a99344743d965265c792c7a78b975c0c647e5552a8bdf944e9f5859e88e91",
      "assetIds": []
    },
    {
      "x": 266,
      "y": 345,
      "size": 1,
      "price": "1011000000000000000000",
      "reserved": "",
      "salt": "0x372dda0eb4d795ecf3ef584afaf82a6ef92206807ab8d921b6e608a9cbfd0df4",
      "assetIds": []
    },
    {
      "x": 266,
      "y": 346,
      "size": 1,
      "price": "1011000000000000000000",
      "reserved": "",
      "salt": "0x5cd5526ed8941231f3e13f47fcaecdf5b24e7c663cedb60c99b5f59c24178bfc",
      "assetIds": []
    },
    {
      "x": 266,
      "y": 347,
      "size": 1,
      "price": "1011000000000000000000",
      "reserved": "",
      "salt": "0x68b57d29e3f84e97791410e0dfc879a0aff5c628546484912ff4989c5c8dd27d",
      "assetIds": []
    },
    {
      "x": 266,
      "y": 348,
      "size": 1,
      "price": "1011000000000000000000",
      "reserved": "0x7a9fe22691c811ea339d9b73150e6911a5343dca",
      "salt": "0x1df1e08bdd263737bd26a8c7b84e2bf84cc61afdbeb62c7dcdbdbdf57d8c72c9",
      "assetIds": []
    },
    {
      "x": 266,
      "y": 349,
      "size": 1,
      "price": "1011000000000000000000",
      "reserved": "",
      "salt": "0xb7dcc159b4d95050250f322b52a780619bfbaea82c093efb9c451a6c68dd0195",
      "assetIds": []
    },
    {
      "x": 266,
      "y": 350,
      "size": 1,
      "price": "1011000000000000000000",
      "reserved": "",
      "salt": "0xad76943cf084bec0122a7bbc9f5a43be7b150bb7baebd72a1e6b35d262bc2fe6",
      "assetIds": []
    },
    {
      "x": 266,
      "y": 351,
      "size": 1,
      "price": "1011000000000000000000",
      "reserved": "",
      "salt": "0x88e7dceda6aa139035ffecba7eda4fbc37006887e09d846f467ea7b66658dc5d",
      "assetIds": []
    },
    {
      "x": 266,
      "y": 352,
      "size": 1,
      "price": "1011000000000000000000",
      "reserved": "",
      "salt": "0x7dd88f2872ebe64148e2d364f4d38094bfe3b68b1d73fa5d88d66fd34e0b4630",
      "assetIds": []
    },
    {
      "x": 266,
      "y": 353,
      "size": 1,
      "price": "1011000000000000000000",
      "reserved": "",
      "salt": "0x2a265ac641a0203647f9a2feaebf16795658f36f4b6836626d95e4617d9e6c00",
      "assetIds": []
    },
    {
      "x": 266,
      "y": 357,
      "size": 1,
      "price": "1011000000000000000000",
      "reserved": "",
      "salt": "0x0fc09987e741f644c398dbd3efd7b556555b6c24a0380719a2e50f5876f55866",
      "assetIds": []
    },
    {
      "x": 266,
      "y": 358,
      "size": 1,
      "price": "1011000000000000000000",
      "reserved": "0x7a9fe22691c811ea339d9b73150e6911a5343dca",
      "salt": "0x45e499026256ab36d3abc1d9b1ed77944609c9d9515832136de71528fa2c0d6a",
      "assetIds": []
    },
    {
      "x": 266,
      "y": 359,
      "size": 1,
      "price": "4683000000000000000000",
      "reserved": "",
      "salt": "0x8163dd7c6001dd4aacacc2e4bcc5382fd76291fe80b4c5cbb4837a0f7b461371",
      "assetIds": [
        "55464657044963196816950587289035428064568320970692304673817341489687790884865",
        "55464657044963196816950587289035428064568320970692304673817341489687782494208",
        "55464657044963196816950587289035428064568320970692304673817341489687790884866",
        "55464657044963196816950587289035428064568320970692304673817341489687782494209",
        "55464657044963196816950587289035428064568320970692304673817341489687790884864"
      ]
    },
    {
      "x": 266,
      "y": 384,
      "size": 1,
      "price": "4683000000000000000000",
      "reserved": "",
      "salt": "0xabc0d5a71b13aa1475c21020a04e806f54ecf33377ca93e9bca0c1158216bb44",
      "assetIds": [
        "55464657044963196816950587289035428064568320970692304673817341489687790884865",
        "55464657044963196816950587289035428064568320970692304673817341489687782494208",
        "55464657044963196816950587289035428064568320970692304673817341489687790884866",
        "55464657044963196816950587289035428064568320970692304673817341489687782494209",
        "55464657044963196816950587289035428064568320970692304673817341489687790884864"
      ]
    },
    {
      "x": 266,
      "y": 385,
      "size": 1,
      "price": "1011000000000000000000",
      "reserved": "",
      "salt": "0x59187ceeec33eadac57bff5a4f33cd6ff0f60aa6c53c6bd0159c8eb78c862715",
      "assetIds": []
    },
    {
      "x": 266,
      "y": 386,
      "size": 1,
      "price": "1011000000000000000000",
      "reserved": "",
      "salt": "0x2ccec2290463abca1872ea7ba105d14ea1b5d2b9e7fe7e402ea5189bcea3e9b7",
      "assetIds": []
    },
    {
      "x": 266,
      "y": 387,
      "size": 1,
      "price": "1011000000000000000000",
      "reserved": "",
      "salt": "0xc1e69fdce41390cb56feb748093a28dd685ee55f41e7b33b3bf45bee819f80f8",
      "assetIds": []
    },
    {
      "x": 266,
      "y": 388,
      "size": 1,
      "price": "1011000000000000000000",
      "reserved": "",
      "salt": "0x4b04426fe769b3273c98e51dc3e8b7cc3470321e476b3afeb752b2761ae42413",
      "assetIds": []
    },
    {
      "x": 266,
      "y": 389,
      "size": 1,
      "price": "1011000000000000000000",
      "reserved": "",
      "salt": "0x808915ad32874ffa42b06305c4efd88b62dc57f1ecfeb889fe870b7e8f888f9c",
      "assetIds": []
    },
    {
      "x": 266,
      "y": 390,
      "size": 1,
      "price": "1011000000000000000000",
      "reserved": "",
      "salt": "0x403af3c2860b18a52b03d1ca62b5c7f3633bd03afa3e120c1bd2698e5c6eabbb",
      "assetIds": []
    },
    {
      "x": 266,
      "y": 391,
      "size": 1,
      "price": "1011000000000000000000",
      "reserved": "",
      "salt": "0xba5c68d1847ee704d15dfe8bcbdc527246d2a3785c7ec2a313071f05593b7970",
      "assetIds": []
    },
    {
      "x": 266,
      "y": 392,
      "size": 1,
      "price": "1011000000000000000000",
      "reserved": "",
      "salt": "0x89854b6cc6a41e6a0a74b71977b8348b978e4041fcc1758032128027e480704f",
      "assetIds": []
    },
    {
      "x": 266,
      "y": 393,
      "size": 1,
      "price": "1011000000000000000000",
      "reserved": "",
      "salt": "0x14a3738738175c30572784d1ce110d2fa9cc7269fd234f3bbb27964e0bfe52b8",
      "assetIds": []
    },
    {
      "x": 266,
      "y": 394,
      "size": 1,
      "price": "1011000000000000000000",
      "reserved": "",
      "salt": "0x196767e57d49ba8ace3bf3515715edae725e429e3f75dcacdf4d55cf9fd8cffe",
      "assetIds": []
    },
    {
      "x": 266,
      "y": 395,
      "size": 1,
      "price": "1011000000000000000000",
      "reserved": "",
      "salt": "0x584f8935ec32fb847b1a28d67a764b5c0e55e74d49e7fdd67e73428ba6086876",
      "assetIds": []
    },
    {
      "x": 267,
      "y": 336,
      "size": 1,
      "price": "1011000000000000000000",
      "reserved": "",
      "salt": "0x3b4ed06055cf2e014d1a56356182d6207e2d8c718d5261bca75f2c5f715953c6",
      "assetIds": []
    },
    {
      "x": 267,
      "y": 337,
      "size": 1,
      "price": "1011000000000000000000",
      "reserved": "0x7a9fe22691c811ea339d9b73150e6911a5343dca",
      "salt": "0xfbf1916eeb7bf77d260d47d6fab1e8db0a60d31fb1813dab3ffd95bb7f8217db",
      "assetIds": []
    },
    {
      "x": 267,
      "y": 338,
      "size": 1,
      "price": "1011000000000000000000",
      "reserved": "",
      "salt": "0x68ce0a5d364f62bf314ce9c21e034106b294d409555144328ba6be0feb677eaa",
      "assetIds": []
    },
    {
      "x": 267,
      "y": 339,
      "size": 1,
      "price": "1011000000000000000000",
      "reserved": "",
      "salt": "0xbbc42aa34129f744e91f2bc7806f399919e637995700243abe882b3152f862a6",
      "assetIds": []
    },
    {
      "x": 267,
      "y": 340,
      "size": 1,
      "price": "1011000000000000000000",
      "reserved": "",
      "salt": "0x21a1884a4f6c14b03d2f14f8d79e3096f42da96dca5c7fe4c5a23e456d379d93",
      "assetIds": []
    },
    {
      "x": 267,
      "y": 341,
      "size": 1,
      "price": "1011000000000000000000",
      "reserved": "",
      "salt": "0x37ed751f8f90d463736a4b02acc820b618c1e379df05d77e9a8343d11269a6e6",
      "assetIds": []
    },
    {
      "x": 267,
      "y": 342,
      "size": 1,
      "price": "1011000000000000000000",
      "reserved": "",
      "salt": "0x65941d6463a5473e595dae1b6233fb7fe19b0b5a7012f70d3b04c5872d08e4c8",
      "assetIds": []
    },
    {
      "x": 267,
      "y": 343,
      "size": 1,
      "price": "1011000000000000000000",
      "reserved": "",
      "salt": "0x983cdc5f427fa563950f1695a88d9cde81c0a4152f1ef4dd49ff583e9c67a159",
      "assetIds": []
    },
    {
      "x": 267,
      "y": 344,
      "size": 1,
      "price": "1011000000000000000000",
      "reserved": "0x7a9fe22691c811ea339d9b73150e6911a5343dca",
      "salt": "0xa546c47115c897e33325072ecbcb4bd06d75c19028dc8da26a14314163c6aa93",
      "assetIds": []
    },
    {
      "x": 267,
      "y": 345,
      "size": 1,
      "price": "1011000000000000000000",
      "reserved": "",
      "salt": "0x5b82bc3dcbbe07174d7b6f3f3656dc3ec3913714d2dc35b8491b070956ef76d7",
      "assetIds": []
    },
    {
      "x": 267,
      "y": 346,
      "size": 1,
      "price": "1011000000000000000000",
      "reserved": "",
      "salt": "0xd7ede893659d2e8c4d42b53d9bbbbd7893bbf64b9d33e8ce49a8cd0525916c8f",
      "assetIds": []
    },
    {
      "x": 267,
      "y": 347,
      "size": 1,
      "price": "1011000000000000000000",
      "reserved": "",
      "salt": "0x4b57cf2bfdf1ceb1732b5909fdbf30276524c96f3e54404f7f6234607f87994e",
      "assetIds": []
    },
    {
      "x": 267,
      "y": 348,
      "size": 1,
      "price": "1011000000000000000000",
      "reserved": "0x7a9fe22691c811ea339d9b73150e6911a5343dca",
      "salt": "0xd0f89df845a11ff8f6a802f45ac4199ca078dcd3925e6befd08d177a8f571920",
      "assetIds": []
    },
    {
      "x": 267,
      "y": 349,
      "size": 1,
      "price": "1011000000000000000000",
      "reserved": "",
      "salt": "0xa8fea5eb77d38d5599d396eeb248f47e7a1f3e6bc90841c6976d0defc39a6697",
      "assetIds": []
    },
    {
      "x": 267,
      "y": 350,
      "size": 1,
      "price": "1011000000000000000000",
      "reserved": "",
      "salt": "0x006666d77a75051b3d9e85c69d33276ffc346f937bf3dc12a2bc6723850a37ef",
      "assetIds": []
    },
    {
      "x": 267,
      "y": 351,
      "size": 1,
      "price": "1011000000000000000000",
      "reserved": "0x7a9fe22691c811ea339d9b73150e6911a5343dca",
      "salt": "0xb36f0eef0d8a5b9fa68cb6da0705cd6e20a9e6fd4e84bdf139a030afb07d6a9c",
      "assetIds": []
    },
    {
      "x": 267,
      "y": 352,
      "size": 1,
      "price": "1011000000000000000000",
      "reserved": "",
      "salt": "0xe24b77134aaa2469ef9dccf50d3e9ff5ac97f6fdab35dee1eae2e3213c1789b8",
      "assetIds": []
    },
    {
      "x": 267,
      "y": 353,
      "size": 1,
      "price": "1011000000000000000000",
      "reserved": "",
      "salt": "0xcd91b17698ada32c138601d06dfaa360b7bc245dedd8a471573a07f985637283",
      "assetIds": []
    },
    {
      "x": 267,
      "y": 354,
      "size": 1,
      "price": "1011000000000000000000",
      "reserved": "",
      "salt": "0xc991147568cd8290025218f465a7ec236c50f069096fc19f4eaf32fef13a08d2",
      "assetIds": []
    },
    {
      "x": 267,
      "y": 355,
      "size": 1,
      "price": "1011000000000000000000",
      "reserved": "0x7a9fe22691c811ea339d9b73150e6911a5343dca",
      "salt": "0x44bf76819d1cf8bea0cfa6cd2983182140b64766394c7bfe682b8c5624a981ea",
      "assetIds": []
    },
    {
      "x": 267,
      "y": 356,
      "size": 1,
      "price": "1011000000000000000000",
      "reserved": "",
      "salt": "0xc9d22d14cb23f2b67de24392c6c4887162ba9e6ba58d94cf797868b4378ba410",
      "assetIds": []
    },
    {
      "x": 267,
      "y": 357,
      "size": 1,
      "price": "1011000000000000000000",
      "reserved": "",
      "salt": "0xe097e9840274f84a5331e10e37421bbc4cc0e91a768dd53b3c61fd3e2c04619c",
      "assetIds": []
    },
    {
      "x": 267,
      "y": 358,
      "size": 1,
      "price": "4683000000000000000000",
      "reserved": "",
      "salt": "0xde16a2d6ef54ec6f06712b66dc5f15e60291d73e117a7e7c0e01cd16f4dd6126",
      "assetIds": [
        "55464657044963196816950587289035428064568320970692304673817341489687790884865",
        "55464657044963196816950587289035428064568320970692304673817341489687782494208",
        "55464657044963196816950587289035428064568320970692304673817341489687790884866",
        "55464657044963196816950587289035428064568320970692304673817341489687782494209",
        "55464657044963196816950587289035428064568320970692304673817341489687790884864"
      ]
    },
    {
      "x": 267,
      "y": 359,
      "size": 1,
      "price": "4683000000000000000000",
      "reserved": "",
      "salt": "0xdc259faf87b76ef94d6a08e01fdc3d49fb948bfa778ce2f09ff8c972f052ffb1",
      "assetIds": [
        "55464657044963196816950587289035428064568320970692304673817341489687790884865",
        "55464657044963196816950587289035428064568320970692304673817341489687782494208",
        "55464657044963196816950587289035428064568320970692304673817341489687790884866",
        "55464657044963196816950587289035428064568320970692304673817341489687782494209",
        "55464657044963196816950587289035428064568320970692304673817341489687790884864"
      ]
    },
    {
      "x": 268,
      "y": 336,
      "size": 1,
      "price": "1011000000000000000000",
      "reserved": "0x7a9fe22691c811ea339d9b73150e6911a5343dca",
      "salt": "0xf7f4d0eaf34921203fb79207fff4c8b4d8de378d56caf5b19f407d3e0bafcc2a",
      "assetIds": []
    },
    {
      "x": 268,
      "y": 337,
      "size": 1,
      "price": "1011000000000000000000",
      "reserved": "0x7a9fe22691c811ea339d9b73150e6911a5343dca",
      "salt": "0xd3868933bc7bb80dab20b252631a1d882f3b4984542d3c087145546cf98fd79a",
      "assetIds": []
    },
    {
      "x": 268,
      "y": 338,
      "size": 1,
      "price": "1011000000000000000000",
      "reserved": "",
      "salt": "0xfbfbf85797aecfb6e4600ab50fddeb09142d712b471c0c897bb836428152c02f",
      "assetIds": []
    },
    {
      "x": 268,
      "y": 339,
      "size": 1,
      "price": "1011000000000000000000",
      "reserved": "",
      "salt": "0x285cc1be7a7eeed6946e3e84b0f5ebc280e154981d7530cddb483ccf5a55b120",
      "assetIds": []
    },
    {
      "x": 268,
      "y": 340,
      "size": 1,
      "price": "1011000000000000000000",
      "reserved": "",
      "salt": "0xa2a9fca8add60664f4d3517e586e96fac8749d56fd59be2db868751bfcec0b2f",
      "assetIds": []
    },
    {
      "x": 268,
      "y": 341,
      "size": 1,
      "price": "1011000000000000000000",
      "reserved": "",
      "salt": "0x294c0b444044407bfccfc96318346e998629c34ef95e69a3c2b332d588e3ef9b",
      "assetIds": []
    },
    {
      "x": 268,
      "y": 342,
      "size": 1,
      "price": "1011000000000000000000",
      "reserved": "",
      "salt": "0x08e40ad108f9a9daf8f7934549cc542fca55fe67ea6e87ec069fa6d519304f90",
      "assetIds": []
    },
    {
      "x": 268,
      "y": 343,
      "size": 1,
      "price": "1011000000000000000000",
      "reserved": "",
      "salt": "0x26eaef390d307cd9edb5188ea0a21894088580043d2fdfe13b4bad82819d14b8",
      "assetIds": []
    },
    {
      "x": 268,
      "y": 344,
      "size": 1,
      "price": "1011000000000000000000",
      "reserved": "",
      "salt": "0xdea4eed126238f66e84261f03c7b55f8a324ddbaeb4685f462cc41c6f34681b7",
      "assetIds": []
    },
    {
      "x": 268,
      "y": 345,
      "size": 1,
      "price": "1011000000000000000000",
      "reserved": "",
      "salt": "0xc0debb5e0aea64e0d659d8463bd55a91d8ec46839669cb268ab0f071d20a942d",
      "assetIds": []
    },
    {
      "x": 268,
      "y": 346,
      "size": 1,
      "price": "1011000000000000000000",
      "reserved": "0x7a9fe22691c811ea339d9b73150e6911a5343dca",
      "salt": "0x78d0af7c08f332c29acb826d42b73e22c79a033757ad59c127963c5cafc6bc35",
      "assetIds": []
    },
    {
      "x": 268,
      "y": 347,
      "size": 1,
      "price": "1011000000000000000000",
      "reserved": "",
      "salt": "0x8dd559d31bb13ccabb543ee4e5f5b2e5153a372a4badfa4e9bdd892f4a13218d",
      "assetIds": []
    },
    {
      "x": 268,
      "y": 348,
      "size": 1,
      "price": "1011000000000000000000",
      "reserved": "",
      "salt": "0x7ea9acdea39d17f6face5e0cff735b1ab039b7e0e18d4515b0f9a119534e0bae",
      "assetIds": []
    },
    {
      "x": 268,
      "y": 349,
      "size": 1,
      "price": "1011000000000000000000",
      "reserved": "",
      "salt": "0x5e57c93783fc76324738e2acfcb461922ba70db1089a2a30d94f5a1eae60704b",
      "assetIds": []
    },
    {
      "x": 268,
      "y": 350,
      "size": 1,
      "price": "1011000000000000000000",
      "reserved": "",
      "salt": "0xfd7445d4f39145a847e179c5195dd5878187d74632a3c2e3de3a5837d223ef0f",
      "assetIds": []
    },
    {
      "x": 268,
      "y": 351,
      "size": 1,
      "price": "1011000000000000000000",
      "reserved": "",
      "salt": "0x9d990b7206c3c9cb61bf6bd52429e6165147950397f8a1215adc4f35b67786d5",
      "assetIds": []
    },
    {
      "x": 268,
      "y": 352,
      "size": 1,
      "price": "1011000000000000000000",
      "reserved": "",
      "salt": "0xcc72a306c38cee55a9783d8b578df7d74b3070d0b06c889e85b9da30acd93cae",
      "assetIds": []
    },
    {
      "x": 268,
      "y": 353,
      "size": 1,
      "price": "1011000000000000000000",
      "reserved": "0x7a9fe22691c811ea339d9b73150e6911a5343dca",
      "salt": "0xda6b0197df9e0d13f0d33807cdcbcde0f89e0976739d3feea8952ce2fe42c963",
      "assetIds": []
    },
    {
      "x": 268,
      "y": 354,
      "size": 1,
      "price": "1011000000000000000000",
      "reserved": "",
      "salt": "0x981374f07fa36f1c6aeaf75600c224fc994cdc33cede3b808f0205622dc1cf4b",
      "assetIds": []
    },
    {
      "x": 268,
      "y": 355,
      "size": 1,
      "price": "1011000000000000000000",
      "reserved": "0x7a9fe22691c811ea339d9b73150e6911a5343dca",
      "salt": "0x689dc5b9913faa96e0ed33299c5ac2456615e8adc79d22c060abf5872545824c",
      "assetIds": []
    },
    {
      "x": 268,
      "y": 356,
      "size": 1,
      "price": "1011000000000000000000",
      "reserved": "",
      "salt": "0x9b467de3edf62f19e719745e1bf0529eddcbd1692b98c3fab640fb67f094b1b3",
      "assetIds": []
    },
    {
      "x": 268,
      "y": 357,
      "size": 1,
      "price": "1011000000000000000000",
      "reserved": "",
      "salt": "0xc4aca684a2b8a8f690a1f5faf3ae3c0e1508a9070ff9c0d5a8ffe6ca94bee339",
      "assetIds": []
    },
    {
      "x": 268,
      "y": 358,
      "size": 1,
      "price": "4683000000000000000000",
      "reserved": "",
      "salt": "0x717acab587c69e4aee5df1b440b526b1fcbec6c2529db3f888828373578134f2",
      "assetIds": [
        "55464657044963196816950587289035428064568320970692304673817341489687790884865",
        "55464657044963196816950587289035428064568320970692304673817341489687782494208",
        "55464657044963196816950587289035428064568320970692304673817341489687790884866",
        "55464657044963196816950587289035428064568320970692304673817341489687782494209",
        "55464657044963196816950587289035428064568320970692304673817341489687790884864"
      ]
    },
    {
      "x": 268,
      "y": 359,
      "size": 1,
      "price": "4683000000000000000000",
      "reserved": "",
      "salt": "0x4a636a7045b0ce5e000a3b7a2ed370a1131df495b38d5f3da5a97d564ff6f3f1",
      "assetIds": [
        "55464657044963196816950587289035428064568320970692304673817341489687790884865",
        "55464657044963196816950587289035428064568320970692304673817341489687782494208",
        "55464657044963196816950587289035428064568320970692304673817341489687790884866",
        "55464657044963196816950587289035428064568320970692304673817341489687782494209",
        "55464657044963196816950587289035428064568320970692304673817341489687790884864"
      ]
    },
    {
      "x": 269,
      "y": 336,
      "size": 1,
      "price": "1011000000000000000000",
      "reserved": "",
      "salt": "0xe25b7c86b2819917b50799480a4fc62fc4f618d7bc208a58cb259aeb44e58d37",
      "assetIds": []
    },
    {
      "x": 269,
      "y": 337,
      "size": 1,
      "price": "1011000000000000000000",
      "reserved": "",
      "salt": "0x0b7ce57715694238adbb37dfbc3a731f91bd6c196fcc443f5c0298085187d646",
      "assetIds": []
    },
    {
      "x": 269,
      "y": 338,
      "size": 1,
      "price": "1011000000000000000000",
      "reserved": "",
      "salt": "0x1155150f22b62163336b19cfd9d0656dc76382990f1db877505c9bf6e915a85b",
      "assetIds": []
    },
    {
      "x": 269,
      "y": 339,
      "size": 1,
      "price": "1011000000000000000000",
      "reserved": "",
      "salt": "0x2bbd6e97597b17fa036719c50577a84b712dca0e1073f1ef05e8a93162ab2955",
      "assetIds": []
    },
    {
      "x": 269,
      "y": 340,
      "size": 1,
      "price": "1011000000000000000000",
      "reserved": "",
      "salt": "0xa2dffc02a161eda60d8f5782894081265832f7ba961bc21b8149ecf4830ab594",
      "assetIds": []
    },
    {
      "x": 269,
      "y": 341,
      "size": 1,
      "price": "1011000000000000000000",
      "reserved": "",
      "salt": "0x75c9181134523026045654af4508b921ed2237bb7efff552babd80cfd460ac3e",
      "assetIds": []
    },
    {
      "x": 269,
      "y": 342,
      "size": 1,
      "price": "1011000000000000000000",
      "reserved": "",
      "salt": "0x50684a15e328f256e370f0209e0847c2d1e38c5f007a04b411dca3a084c49780",
      "assetIds": []
    },
    {
      "x": 269,
      "y": 343,
      "size": 1,
      "price": "1011000000000000000000",
      "reserved": "",
      "salt": "0xfc84b3fead90a7f4dd00d0b175a1ea0b9a44f1f5ea1da9f8d1f762612dc07f02",
      "assetIds": []
    },
    {
      "x": 269,
      "y": 344,
      "size": 1,
      "price": "1011000000000000000000",
      "reserved": "",
      "salt": "0x26292c4d885acf6c071683047b0fc95640bc2b8435def06b9cce40d05c906da8",
      "assetIds": []
    },
    {
      "x": 269,
      "y": 345,
      "size": 1,
      "price": "1011000000000000000000",
      "reserved": "",
      "salt": "0x0b18bb475c19ed4f17dafdd3507bb026890335d334bc7da7370f3a3b37149754",
      "assetIds": []
    },
    {
      "x": 269,
      "y": 346,
      "size": 1,
      "price": "1011000000000000000000",
      "reserved": "",
      "salt": "0x1a96e07e21bb3c44ba56d8c10f739ef5e4c9ed079f2a3ae130ccaba80c71ffb8",
      "assetIds": []
    },
    {
      "x": 269,
      "y": 347,
      "size": 1,
      "price": "1011000000000000000000",
      "reserved": "",
      "salt": "0xcb9a8b777772341ce70c4f48e3961cdb807ad0a6b21725efa690c27214cce9d9",
      "assetIds": []
    },
    {
      "x": 269,
      "y": 348,
      "size": 1,
      "price": "1011000000000000000000",
      "reserved": "",
      "salt": "0x021ddcf7fedf4e4d0c304f0a26c60c3e34f6f6c8bc3187672cf95e46120c07b4",
      "assetIds": []
    },
    {
      "x": 269,
      "y": 349,
      "size": 1,
      "price": "1011000000000000000000",
      "reserved": "0x7a9fe22691c811ea339d9b73150e6911a5343dca",
      "salt": "0x7bffa906283c0bbda2cd335838b6515b2f96b29a882a002f781cf66cd532d2b7",
      "assetIds": []
    },
    {
      "x": 269,
      "y": 350,
      "size": 1,
      "price": "1011000000000000000000",
      "reserved": "",
      "salt": "0xb8f24dfcc5fc75d63b39188ab0b8349503199a79be13c7fcba7ef47c6a380828",
      "assetIds": []
    },
    {
      "x": 269,
      "y": 351,
      "size": 1,
      "price": "1011000000000000000000",
      "reserved": "",
      "salt": "0x4a15567e6719e46919dd2acd590d8ba0bd5186309a5d1f5e4ce344c3533538f1",
      "assetIds": []
    },
    {
      "x": 269,
      "y": 352,
      "size": 1,
      "price": "1011000000000000000000",
      "reserved": "",
      "salt": "0x3af42ee0e8cf7a0a486861241c46af58792579b6e1546f1556287469bece39df",
      "assetIds": []
    },
    {
      "x": 269,
      "y": 353,
      "size": 1,
      "price": "1011000000000000000000",
      "reserved": "0x7a9fe22691c811ea339d9b73150e6911a5343dca",
      "salt": "0x4c2d25f94a50b4ae827c73ac92b84271d38b11ca57312f28876f13a48b9f8fd3",
      "assetIds": []
    },
    {
      "x": 269,
      "y": 354,
      "size": 1,
      "price": "1011000000000000000000",
      "reserved": "",
      "salt": "0x00aa3c92763beef36d72c56c444d83950e0be530edfaad1c321fc808f77ed1cb",
      "assetIds": []
    },
    {
      "x": 269,
      "y": 355,
      "size": 1,
      "price": "1011000000000000000000",
      "reserved": "",
      "salt": "0x3fd3b39a2dde150e42b1c838cf74bcd9fc90aa00add138b509ede995badd4ab6",
      "assetIds": []
    },
    {
      "x": 269,
      "y": 356,
      "size": 1,
      "price": "1011000000000000000000",
      "reserved": "",
      "salt": "0xef7cb0004c41e5364cc19a7e81805122a220c242dfe16030ebf96a2335d28625",
      "assetIds": []
    },
    {
      "x": 269,
      "y": 357,
      "size": 1,
      "price": "1011000000000000000000",
      "reserved": "",
      "salt": "0x97bdaa029ad77e2d3046cadd607a72951b2138b04efe4f9ad81f2e472515c205",
      "assetIds": []
    },
    {
      "x": 269,
      "y": 358,
      "size": 1,
      "price": "4683000000000000000000",
      "reserved": "",
      "salt": "0x3307c65d036f5095921d6e14eb3af9a50ca7c74d66493fc0471f6d9ddbb4019a",
      "assetIds": [
        "55464657044963196816950587289035428064568320970692304673817341489687790884865",
        "55464657044963196816950587289035428064568320970692304673817341489687782494208",
        "55464657044963196816950587289035428064568320970692304673817341489687790884866",
        "55464657044963196816950587289035428064568320970692304673817341489687782494209",
        "55464657044963196816950587289035428064568320970692304673817341489687790884864"
      ]
    },
    {
      "x": 269,
      "y": 359,
      "size": 1,
      "price": "4683000000000000000000",
      "reserved": "",
      "salt": "0x716e66b78246d1d2cb836f5b16484573c63f02e1fa867e98b6909870dcbed3eb",
      "assetIds": [
        "55464657044963196816950587289035428064568320970692304673817341489687790884865",
        "55464657044963196816950587289035428064568320970692304673817341489687782494208",
        "55464657044963196816950587289035428064568320970692304673817341489687790884866",
        "55464657044963196816950587289035428064568320970692304673817341489687782494209",
        "55464657044963196816950587289035428064568320970692304673817341489687790884864"
      ]
    },
    {
      "x": 270,
      "y": 336,
      "size": 1,
      "price": "1011000000000000000000",
      "reserved": "",
      "salt": "0x37aa84a00856287b8f099702fe4f1d4f1a2f1d2510d5ca120c274b8221a3df5e",
      "assetIds": []
    },
    {
      "x": 270,
      "y": 337,
      "size": 1,
      "price": "1011000000000000000000",
      "reserved": "",
      "salt": "0x7d7db3b9aefe5c243a448065897107e56ca2316fec30989f6d2981504ddf4f09",
      "assetIds": []
    },
    {
      "x": 270,
      "y": 338,
      "size": 1,
      "price": "1011000000000000000000",
      "reserved": "0x7a9fe22691c811ea339d9b73150e6911a5343dca",
      "salt": "0x55401e44ffe85ad313bc34ebe192cfa2298207c8240d4b9e9eb75a44323d5728",
      "assetIds": []
    },
    {
      "x": 270,
      "y": 339,
      "size": 1,
      "price": "1011000000000000000000",
      "reserved": "",
      "salt": "0x48a10a3089fc08e1d29484e04e91ada4884a2b88b501cf537e69b3866a0ea572",
      "assetIds": []
    },
    {
      "x": 270,
      "y": 340,
      "size": 1,
      "price": "1011000000000000000000",
      "reserved": "",
      "salt": "0x499be74ba051acfb0fba63fba3c65b29fe3f60eee6924c92ac07aca4f73718c5",
      "assetIds": []
    },
    {
      "x": 270,
      "y": 341,
      "size": 1,
      "price": "1011000000000000000000",
      "reserved": "",
      "salt": "0x33aeda7a9e188a7d38bd92fc04d5eee01e7a94b28714df78557d555c933e0a2a",
      "assetIds": []
    },
    {
      "x": 270,
      "y": 342,
      "size": 1,
      "price": "1011000000000000000000",
      "reserved": "",
      "salt": "0xfff3b27edb05a6ff9d70a147db5920f3139ee95586c3f1a030b0b3a4f6337041",
      "assetIds": []
    },
    {
      "x": 270,
      "y": 343,
      "size": 1,
      "price": "1011000000000000000000",
      "reserved": "",
      "salt": "0x29174cbd6361dfcc11c8ca7e4269fdb6a4c7b0a43929c1d5b629f98452557490",
      "assetIds": []
    },
    {
      "x": 270,
      "y": 344,
      "size": 1,
      "price": "1011000000000000000000",
      "reserved": "",
      "salt": "0x3d5559cb1259ca0df0efe965e92fd54910dfc2c93ff18c5cc588680919fd11d4",
      "assetIds": []
    },
    {
      "x": 270,
      "y": 345,
      "size": 1,
      "price": "1011000000000000000000",
      "reserved": "",
      "salt": "0x31ea8e94a88fc3b0af4f3f6091dd1fe6f4333eed461b408fb8051888b19b6a30",
      "assetIds": []
    },
    {
      "x": 270,
      "y": 346,
      "size": 1,
      "price": "1011000000000000000000",
      "reserved": "",
      "salt": "0x22781370b43ebf42fc14c4056189a969395b188dd22c26e1e849077dabc13826",
      "assetIds": []
    },
    {
      "x": 270,
      "y": 347,
      "size": 1,
      "price": "1011000000000000000000",
      "reserved": "0x7a9fe22691c811ea339d9b73150e6911a5343dca",
      "salt": "0x3eece2230f1812d6db1f1b6e56cad771430cbd2f89025d036f3a3afddab65475",
      "assetIds": []
    },
    {
      "x": 270,
      "y": 348,
      "size": 1,
      "price": "1011000000000000000000",
      "reserved": "",
      "salt": "0xd43265ecb4a5271fb0a155c0d6f3f99cd8d166d99084407d2e9b0a7d272fac34",
      "assetIds": []
    },
    {
      "x": 270,
      "y": 349,
      "size": 1,
      "price": "1011000000000000000000",
      "reserved": "",
      "salt": "0x1dd8e817e9dee031bb88aac1c0cf072fe8a9e010ea6f98f70c6e6ed028c1425c",
      "assetIds": []
    },
    {
      "x": 270,
      "y": 350,
      "size": 1,
      "price": "1011000000000000000000",
      "reserved": "",
      "salt": "0xfa86ddc0edf46591aefc52712c4994b738a4ae19faeac3a9cc36ebca91102c46",
      "assetIds": []
    },
    {
      "x": 270,
      "y": 351,
      "size": 1,
      "price": "1011000000000000000000",
      "reserved": "",
      "salt": "0xcdad45e60302086a937da7cd89e9d852d60884a262b8bc5617041932b7bc73ea",
      "assetIds": []
    },
    {
      "x": 270,
      "y": 352,
      "size": 1,
      "price": "1011000000000000000000",
      "reserved": "",
      "salt": "0xbf306094fd422502fd6c289994db290f719a2887b2e7ff21d70bdc9fdd5f554d",
      "assetIds": []
    },
    {
      "x": 270,
      "y": 353,
      "size": 1,
      "price": "1011000000000000000000",
      "reserved": "",
      "salt": "0x062fe154dcd11d1525e1a1695470ad9bffd85b9ce225cd043012aaacac86ec4c",
      "assetIds": []
    },
    {
      "x": 270,
      "y": 354,
      "size": 1,
      "price": "1011000000000000000000",
      "reserved": "",
      "salt": "0x7f4a46816ac157318b6f7dfda1dfe344ad60eee39ffca4dd7bb50534d8deba84",
      "assetIds": []
    },
    {
      "x": 270,
      "y": 355,
      "size": 1,
      "price": "1011000000000000000000",
      "reserved": "",
      "salt": "0x5607d3f7409492a99607271ec3f7346ed427156c85c273e6040339257c1965d6",
      "assetIds": []
    },
    {
      "x": 270,
      "y": 356,
      "size": 1,
      "price": "1011000000000000000000",
      "reserved": "0x7a9fe22691c811ea339d9b73150e6911a5343dca",
      "salt": "0xf4cc190688833c2acae2fd824701f246acb664b26c08494a0f70feea991af991",
      "assetIds": []
    },
    {
      "x": 270,
      "y": 357,
      "size": 1,
      "price": "1011000000000000000000",
      "reserved": "",
      "salt": "0x65f01d3c0671dfb7f5693d436235ecef5afe7bc346af834450026363e598c8c2",
      "assetIds": []
    },
    {
      "x": 270,
      "y": 358,
      "size": 1,
      "price": "4683000000000000000000",
      "reserved": "",
      "salt": "0x4e9d141979d8a3d3c23de1bc60c5c6d88d38852bb87950946257d82ab1a2c820",
      "assetIds": [
        "55464657044963196816950587289035428064568320970692304673817341489687790884865",
        "55464657044963196816950587289035428064568320970692304673817341489687782494208",
        "55464657044963196816950587289035428064568320970692304673817341489687790884866",
        "55464657044963196816950587289035428064568320970692304673817341489687782494209",
        "55464657044963196816950587289035428064568320970692304673817341489687790884864"
      ]
    },
    {
      "x": 270,
      "y": 359,
      "size": 1,
      "price": "4683000000000000000000",
      "reserved": "",
      "salt": "0xc56e422e1e9c72b0d3a6fd8489662addd773e733ca69c38cc0aa9cb31e1fda86",
      "assetIds": [
        "55464657044963196816950587289035428064568320970692304673817341489687790884865",
        "55464657044963196816950587289035428064568320970692304673817341489687782494208",
        "55464657044963196816950587289035428064568320970692304673817341489687790884866",
        "55464657044963196816950587289035428064568320970692304673817341489687782494209",
        "55464657044963196816950587289035428064568320970692304673817341489687790884864"
      ]
    },
    {
      "x": 270,
      "y": 384,
      "size": 1,
      "price": "4683000000000000000000",
      "reserved": "",
      "salt": "0xb98239aa1c11d88cbe9d658dbccef9bf3db97326a6e6e0af5792f1d73bcb9875",
      "assetIds": [
        "55464657044963196816950587289035428064568320970692304673817341489687790884865",
        "55464657044963196816950587289035428064568320970692304673817341489687782494208",
        "55464657044963196816950587289035428064568320970692304673817341489687790884866",
        "55464657044963196816950587289035428064568320970692304673817341489687782494209",
        "55464657044963196816950587289035428064568320970692304673817341489687790884864"
      ]
    },
    {
      "x": 270,
      "y": 385,
      "size": 1,
      "price": "4683000000000000000000",
      "reserved": "",
      "salt": "0xba8843ea4a42d372fc4f848f73531946d85f7fbd85ea4dd74089af4552066977",
      "assetIds": [
        "55464657044963196816950587289035428064568320970692304673817341489687790884865",
        "55464657044963196816950587289035428064568320970692304673817341489687782494208",
        "55464657044963196816950587289035428064568320970692304673817341489687790884866",
        "55464657044963196816950587289035428064568320970692304673817341489687782494209",
        "55464657044963196816950587289035428064568320970692304673817341489687790884864"
      ]
    },
    {
      "x": 270,
      "y": 386,
      "size": 1,
      "price": "1011000000000000000000",
      "reserved": "0x7a9fe22691c811ea339d9b73150e6911a5343dca",
      "salt": "0xf5c3ab58a54f288626bb95f79d94102592080c74283bf15a1d9efef2cefdf7f2",
      "assetIds": []
    },
    {
      "x": 271,
      "y": 336,
      "size": 1,
      "price": "1011000000000000000000",
      "reserved": "",
      "salt": "0x6130998db98fb230a74306e0a641000b67493d9c7d66b52a46153d15ff7a7b9e",
      "assetIds": []
    },
    {
      "x": 271,
      "y": 337,
      "size": 1,
      "price": "1011000000000000000000",
      "reserved": "",
      "salt": "0x6e27708481802d93e08543e215b6790c7353b6d2c6a59a3e219a8a48d120adc0",
      "assetIds": []
    },
    {
      "x": 271,
      "y": 338,
      "size": 1,
      "price": "1011000000000000000000",
      "reserved": "",
      "salt": "0xfbcbed25dd1a7a88c7cfbed4465627baae45f6e08dbe7964d69cd5f2613359a3",
      "assetIds": []
    },
    {
      "x": 271,
      "y": 339,
      "size": 1,
      "price": "1011000000000000000000",
      "reserved": "",
      "salt": "0xcf3745372c9d60ef648bd9c5f520e403bf57b898702455f6c07280be4563d835",
      "assetIds": []
    },
    {
      "x": 271,
      "y": 340,
      "size": 1,
      "price": "1011000000000000000000",
      "reserved": "",
      "salt": "0x13d99c6c4e36ee8126de91dce7518fc7b4b3145d9c131d2a681f02adde458c77",
      "assetIds": []
    },
    {
      "x": 271,
      "y": 341,
      "size": 1,
      "price": "1011000000000000000000",
      "reserved": "",
      "salt": "0xc7991e617779086efe3319c14a91b28ac020c54266e45839b653871916bdfd60",
      "assetIds": []
    },
    {
      "x": 271,
      "y": 342,
      "size": 1,
      "price": "1011000000000000000000",
      "reserved": "",
      "salt": "0x2d136b2b0bbd34f83e2f1f4d5c18335719ffa3fe94e3ac47166777c470709cfe",
      "assetIds": []
    },
    {
      "x": 271,
      "y": 343,
      "size": 1,
      "price": "1011000000000000000000",
      "reserved": "0x7a9fe22691c811ea339d9b73150e6911a5343dca",
      "salt": "0xc20205c60e1fb1f1d85f4de82f534e0518ea77f92706b5ad88b65771d80fab30",
      "assetIds": []
    },
    {
      "x": 271,
      "y": 344,
      "size": 1,
      "price": "1011000000000000000000",
      "reserved": "",
      "salt": "0x09338c050a4cbb679a580efcfa08519398cf177c585f7c9f231a00637414579d",
      "assetIds": []
    },
    {
      "x": 271,
      "y": 345,
      "size": 1,
      "price": "1011000000000000000000",
      "reserved": "",
      "salt": "0x62a2542db1476123cec84b206c4d08cc561d6689403020ef90cae531b9236ded",
      "assetIds": []
    },
    {
      "x": 271,
      "y": 346,
      "size": 1,
      "price": "1011000000000000000000",
      "reserved": "",
      "salt": "0xad1c5f0a91e39acbe1b0c0a938ff0de098a4632519471313c6fd91a9ede8f29a",
      "assetIds": []
    },
    {
      "x": 271,
      "y": 347,
      "size": 1,
      "price": "1011000000000000000000",
      "reserved": "0x7a9fe22691c811ea339d9b73150e6911a5343dca",
      "salt": "0x38a3aab29e1eca008ab3b6c6c9a8529df988e80e406528317f37b1b300503d7b",
      "assetIds": []
    },
    {
      "x": 271,
      "y": 348,
      "size": 1,
      "price": "1011000000000000000000",
      "reserved": "",
      "salt": "0xae54c4914a639da9639bc730d850544435df79dfb1d6f471e7e14534a1e33496",
      "assetIds": []
    },
    {
      "x": 271,
      "y": 349,
      "size": 1,
      "price": "1011000000000000000000",
      "reserved": "",
      "salt": "0x5b39a60cc0b476e11d87d31056d86b1291b1c153a755e58f6b366039b8a314d1",
      "assetIds": []
    },
    {
      "x": 271,
      "y": 350,
      "size": 1,
      "price": "1011000000000000000000",
      "reserved": "",
      "salt": "0xf2a3a0e87108d85a770c7c4a63a8a961d7819c12fea223eba06420b67fa1131f",
      "assetIds": []
    },
    {
      "x": 271,
      "y": 351,
      "size": 1,
      "price": "1011000000000000000000",
      "reserved": "",
      "salt": "0x89c68a6183e5f715b00b978b73e81cf348794a9e403526e8054947b4695e2cc0",
      "assetIds": []
    },
    {
      "x": 271,
      "y": 352,
      "size": 1,
      "price": "1011000000000000000000",
      "reserved": "",
      "salt": "0x919019c046cb8fb40af3c16b3e2575179a58b0be6762e7afde8da0f22ece16ae",
      "assetIds": []
    },
    {
      "x": 271,
      "y": 353,
      "size": 1,
      "price": "1011000000000000000000",
      "reserved": "",
      "salt": "0x69a0eddb2face1c24ac287dd18b1657a5d5ca2f3bf1d6ab260ac4933789e7f63",
      "assetIds": []
    },
    {
      "x": 271,
      "y": 354,
      "size": 1,
      "price": "1011000000000000000000",
      "reserved": "",
      "salt": "0x76612e1878e6dabb1d05c56b7b188449bf6d1cbff23b49a8724276b5aa026dd5",
      "assetIds": []
    },
    {
      "x": 271,
      "y": 355,
      "size": 1,
      "price": "1011000000000000000000",
      "reserved": "",
      "salt": "0xe073523db77c214d55d14a62c67aff2e19c24c76ccd49f1b1efe14d136e414bf",
      "assetIds": []
    },
    {
      "x": 271,
      "y": 356,
      "size": 1,
      "price": "1011000000000000000000",
      "reserved": "0x7a9fe22691c811ea339d9b73150e6911a5343dca",
      "salt": "0xa7e1597d7173481dbdc2fb8cbe1e8593586460588c40d886623118bac4da7057",
      "assetIds": []
    },
    {
      "x": 271,
      "y": 357,
      "size": 1,
      "price": "1011000000000000000000",
      "reserved": "",
      "salt": "0x0ab43341538ae4e18d906be077bb2c7d858f0d32c045817abcc2cc6e209caad9",
      "assetIds": []
    },
    {
      "x": 271,
      "y": 358,
      "size": 1,
      "price": "4683000000000000000000",
      "reserved": "",
      "salt": "0x56e7739d1e6eeb965601f889d105bf4f39920bde8d3d891eaec8322b1192cf74",
      "assetIds": [
        "55464657044963196816950587289035428064568320970692304673817341489687790884865",
        "55464657044963196816950587289035428064568320970692304673817341489687782494208",
        "55464657044963196816950587289035428064568320970692304673817341489687790884866",
        "55464657044963196816950587289035428064568320970692304673817341489687782494209",
        "55464657044963196816950587289035428064568320970692304673817341489687790884864"
      ]
    },
    {
      "x": 271,
      "y": 359,
      "size": 1,
      "price": "4683000000000000000000",
      "reserved": "",
      "salt": "0x28f5f7d34f95455a2e46f77458332d730d3da6b7f29de3e4308e026a92748b02",
      "assetIds": [
        "55464657044963196816950587289035428064568320970692304673817341489687790884865",
        "55464657044963196816950587289035428064568320970692304673817341489687782494208",
        "55464657044963196816950587289035428064568320970692304673817341489687790884866",
        "55464657044963196816950587289035428064568320970692304673817341489687782494209",
        "55464657044963196816950587289035428064568320970692304673817341489687790884864"
      ]
    },
    {
      "x": 271,
      "y": 384,
      "size": 1,
      "price": "4683000000000000000000",
      "reserved": "",
      "salt": "0x93df2e34447df4143c6e767b1a09c7154fab6250abacc475758a5d65d7be86b2",
      "assetIds": [
        "55464657044963196816950587289035428064568320970692304673817341489687790884865",
        "55464657044963196816950587289035428064568320970692304673817341489687782494208",
        "55464657044963196816950587289035428064568320970692304673817341489687790884866",
        "55464657044963196816950587289035428064568320970692304673817341489687782494209",
        "55464657044963196816950587289035428064568320970692304673817341489687790884864"
      ]
    },
    {
      "x": 271,
      "y": 385,
      "size": 1,
      "price": "1011000000000000000000",
      "reserved": "0x7a9fe22691c811ea339d9b73150e6911a5343dca",
      "salt": "0x71c347ae9770a6fdaaf129f3cf3d56b6c23f05af217605487017aeeafa2be226",
      "assetIds": []
    },
    {
      "x": 271,
      "y": 386,
      "size": 1,
      "price": "1011000000000000000000",
      "reserved": "",
      "salt": "0x6f0cb726ef2af70a57f2a064d45562cbfb40f8957317963ae3f837406e48a6a6",
      "assetIds": []
    },
    {
      "x": 272,
      "y": 336,
      "size": 1,
      "price": "1011000000000000000000",
      "reserved": "0x7a9fe22691c811ea339d9b73150e6911a5343dca",
      "salt": "0x69571a55a71c979f9a8bfbf0d18066a5fc413f3d563888e63684f713702b678b",
      "assetIds": []
    },
    {
      "x": 272,
      "y": 337,
      "size": 1,
      "price": "1011000000000000000000",
      "reserved": "",
      "salt": "0x9d05b387e90c612bd1ca1f66ce13f5742d6be66ef2f57c9428d267d62d0f8f5d",
      "assetIds": []
    },
    {
      "x": 272,
      "y": 338,
      "size": 1,
      "price": "1011000000000000000000",
      "reserved": "",
      "salt": "0xb342336e999ac43c3b55619120ed139d1f219f572cc1715cbb63ed84b609b2ce",
      "assetIds": []
    },
    {
      "x": 272,
      "y": 339,
      "size": 1,
      "price": "1011000000000000000000",
      "reserved": "",
      "salt": "0x6d9cf4ade12e744714845dd1e8a873f4692999d21b1704a81cc36dbc22afbd61",
      "assetIds": []
    },
    {
      "x": 272,
      "y": 340,
      "size": 1,
      "price": "1011000000000000000000",
      "reserved": "",
      "salt": "0x23fb7837263ada46ecae76b22a07af1e84598a3583cdeb9569f55a7e50eecd87",
      "assetIds": []
    },
    {
      "x": 272,
      "y": 341,
      "size": 1,
      "price": "1011000000000000000000",
      "reserved": "",
      "salt": "0x31c11cac1f1ee1561da98b2a2cd610c29b181cb5f86c5ea5118a5091fb828681",
      "assetIds": []
    },
    {
      "x": 272,
      "y": 342,
      "size": 1,
      "price": "1011000000000000000000",
      "reserved": "",
      "salt": "0xe94c2add525f97d2a3f91c6541835ca3184c07bce40f4ae1ef6485dda53b3448",
      "assetIds": []
    },
    {
      "x": 272,
      "y": 343,
      "size": 1,
      "price": "1011000000000000000000",
      "reserved": "",
      "salt": "0x95f84fbdf302a1886afa5105ebca3b9e18d2d3143129d32f7265526778c668b4",
      "assetIds": []
    },
    {
      "x": 272,
      "y": 344,
      "size": 1,
      "price": "1011000000000000000000",
      "reserved": "",
      "salt": "0xd468fb01a9429df38f2639b07d7f901a02f365704dd8f8e79a4ce69e784debc1",
      "assetIds": []
    },
    {
      "x": 272,
      "y": 345,
      "size": 1,
      "price": "1011000000000000000000",
      "reserved": "",
      "salt": "0x2ef064ddfa0aeaefa68a42f6853093535bce2a5563f7cd243f8782d7fdcbf771",
      "assetIds": []
    },
    {
      "x": 272,
      "y": 346,
      "size": 1,
      "price": "1011000000000000000000",
      "reserved": "",
      "salt": "0x8129a8ee6c2e25e1ae033c56bbe57881d89752bf230d178069367910a538a40a",
      "assetIds": []
    },
    {
      "x": 272,
      "y": 347,
      "size": 1,
      "price": "1011000000000000000000",
      "reserved": "",
      "salt": "0xdfa8ed68968e8242ba497de944e754bc81f87ea63649d7fad73efd3f5f55a7a0",
      "assetIds": []
    },
    {
      "x": 272,
      "y": 348,
      "size": 1,
      "price": "1011000000000000000000",
      "reserved": "",
      "salt": "0xfdfb16565f48142daaf651839a05fb320464df663161e7b22a3c0d7ba36ec33b",
      "assetIds": []
    },
    {
      "x": 272,
      "y": 349,
      "size": 1,
      "price": "1011000000000000000000",
      "reserved": "",
      "salt": "0x334409766688cdcee1369c56b0826134032d2270600066ebcbda01155245ed42",
      "assetIds": []
    },
    {
      "x": 272,
      "y": 350,
      "size": 1,
      "price": "1011000000000000000000",
      "reserved": "",
      "salt": "0xfe307ccf9958cff7d42ad93f47e99198858d4ab097710f414a0e22bababff410",
      "assetIds": []
    },
    {
      "x": 272,
      "y": 351,
      "size": 1,
      "price": "1011000000000000000000",
      "reserved": "0x7a9fe22691c811ea339d9b73150e6911a5343dca",
      "salt": "0x7bbd7f9436ef31bb9ee066674359788ec738e98d9a4835bbd44fc2a17831d9b8",
      "assetIds": []
    },
    {
      "x": 272,
      "y": 352,
      "size": 1,
      "price": "1011000000000000000000",
      "reserved": "",
      "salt": "0x3c0549232bace890d39f7bd1b7fc56202269b38e80e6c08c025bbef6051b7ef8",
      "assetIds": []
    },
    {
      "x": 272,
      "y": 353,
      "size": 1,
      "price": "1011000000000000000000",
      "reserved": "0x7a9fe22691c811ea339d9b73150e6911a5343dca",
      "salt": "0x1cbf76ed4dbc5c50fb64f227e44118539bd6328bcc957b4c4ba631bf0f617286",
      "assetIds": []
    },
    {
      "x": 272,
      "y": 354,
      "size": 1,
      "price": "1011000000000000000000",
      "reserved": "",
      "salt": "0x38743b80df7f7099d64e8b672787e34192a81b6d3334eb2fef28815f07e7184e",
      "assetIds": []
    },
    {
      "x": 272,
      "y": 355,
      "size": 1,
      "price": "1011000000000000000000",
      "reserved": "",
      "salt": "0x3a7cbad6d27df9f7cbc0641d62dc3e9afe24c497f956eae7978e4c8189b2c6af",
      "assetIds": []
    },
    {
      "x": 272,
      "y": 356,
      "size": 1,
      "price": "1011000000000000000000",
      "reserved": "",
      "salt": "0x5034c8dfe976b1acbe8a07f9adba0a568bb429bab580878aeb95d892c66cc6e2",
      "assetIds": []
    },
    {
      "x": 272,
      "y": 357,
      "size": 1,
      "price": "1011000000000000000000",
      "reserved": "",
      "salt": "0x411e2dc262482372ada853e3fc5dbf1f27a55f579276473d51207d1c2101312b",
      "assetIds": []
    },
    {
      "x": 272,
      "y": 358,
      "size": 1,
      "price": "4683000000000000000000",
      "reserved": "",
      "salt": "0x5132f2c9d121c5b8759d328c813f0a15293999253397ea14eeda4a95e030de4a",
      "assetIds": [
        "55464657044963196816950587289035428064568320970692304673817341489687790884865",
        "55464657044963196816950587289035428064568320970692304673817341489687782494208",
        "55464657044963196816950587289035428064568320970692304673817341489687790884866",
        "55464657044963196816950587289035428064568320970692304673817341489687782494209",
        "55464657044963196816950587289035428064568320970692304673817341489687790884864"
      ]
    },
    {
      "x": 272,
      "y": 359,
      "size": 1,
      "price": "4683000000000000000000",
      "reserved": "",
      "salt": "0xdd31f49239ac28dd611fc575650d727ba39b2879a0228508191241f796cdc857",
      "assetIds": [
        "55464657044963196816950587289035428064568320970692304673817341489687790884865",
        "55464657044963196816950587289035428064568320970692304673817341489687782494208",
        "55464657044963196816950587289035428064568320970692304673817341489687790884866",
        "55464657044963196816950587289035428064568320970692304673817341489687782494209",
        "55464657044963196816950587289035428064568320970692304673817341489687790884864"
      ]
    },
    {
      "x": 272,
      "y": 384,
      "size": 1,
      "price": "4683000000000000000000",
      "reserved": "",
      "salt": "0x3712bf7c15c9ed3efecc98cae1e5a9c0eb8b6ac7399e6dc1eff36c7702c14598",
      "assetIds": [
        "55464657044963196816950587289035428064568320970692304673817341489687790884865",
        "55464657044963196816950587289035428064568320970692304673817341489687782494208",
        "55464657044963196816950587289035428064568320970692304673817341489687790884866",
        "55464657044963196816950587289035428064568320970692304673817341489687782494209",
        "55464657044963196816950587289035428064568320970692304673817341489687790884864"
      ]
    },
    {
      "x": 272,
      "y": 385,
      "size": 1,
      "price": "4683000000000000000000",
      "reserved": "",
      "salt": "0x7a3f718c6dbb101fc02bfe91763ae759fe8ee39ea598acbfb758a0007b0767f4",
      "assetIds": [
        "55464657044963196816950587289035428064568320970692304673817341489687790884865",
        "55464657044963196816950587289035428064568320970692304673817341489687782494208",
        "55464657044963196816950587289035428064568320970692304673817341489687790884866",
        "55464657044963196816950587289035428064568320970692304673817341489687782494209",
        "55464657044963196816950587289035428064568320970692304673817341489687790884864"
      ]
    },
    {
      "x": 272,
      "y": 386,
      "size": 1,
      "price": "1011000000000000000000",
      "reserved": "",
      "salt": "0x19b15e13bc43e81de32f970ea96ea9d1965798a0d6f6266c66f27bba7de99937",
      "assetIds": []
    },
    {
      "x": 273,
      "y": 336,
      "size": 1,
      "price": "1011000000000000000000",
      "reserved": "",
      "salt": "0xfe510da294ef2dbe7ac8d5bdc07c3ae8cc815ab3e3c85ad378e13976dc30f12b",
      "assetIds": []
    },
    {
      "x": 273,
      "y": 337,
      "size": 1,
      "price": "1011000000000000000000",
      "reserved": "",
      "salt": "0x9fab2c19b423196910419f79c5d99721226e66550b502642116ebdd1fb2acde6",
      "assetIds": []
    },
    {
      "x": 273,
      "y": 338,
      "size": 1,
      "price": "1011000000000000000000",
      "reserved": "",
      "salt": "0xfa86194ae65efea163cefa56ca0554c02b8d1c794732d9bfd8a14df15511880d",
      "assetIds": []
    },
    {
      "x": 273,
      "y": 339,
      "size": 1,
      "price": "1011000000000000000000",
      "reserved": "",
      "salt": "0x49cb6c8e72db743875f38496e3ee1e8dd37ea7524e3d21787efdab6a8fbd001a",
      "assetIds": []
    },
    {
      "x": 273,
      "y": 340,
      "size": 1,
      "price": "1011000000000000000000",
      "reserved": "",
      "salt": "0xe1755053ea7f5b5696c5b8ae9f2162795ffea896d69c535cee6d3d17eb83bcd3",
      "assetIds": []
    },
    {
      "x": 273,
      "y": 341,
      "size": 1,
      "price": "1011000000000000000000",
      "reserved": "",
      "salt": "0x4b88e70880c8217e582211b08bd1c4cc70de0a893b990a0c1de63e64ea6ca613",
      "assetIds": []
    },
    {
      "x": 273,
      "y": 342,
      "size": 1,
      "price": "1011000000000000000000",
      "reserved": "",
      "salt": "0xf4d5c46948e4ed37cbe6541b0bde2fdde3a4513eaf70c1fbe55e7760cea56e5e",
      "assetIds": []
    },
    {
      "x": 273,
      "y": 343,
      "size": 1,
      "price": "1011000000000000000000",
      "reserved": "",
      "salt": "0x5c5565c1bb0d671d746995b2ff153166c3eb1b0ae77914512266c2679222fe74",
      "assetIds": []
    },
    {
      "x": 273,
      "y": 344,
      "size": 1,
      "price": "1011000000000000000000",
      "reserved": "",
      "salt": "0x68026e702f2dc7655d4ea695fb49d6ac02ac3a35659ca7b9dd33542adc2ac77a",
      "assetIds": []
    },
    {
      "x": 273,
      "y": 345,
      "size": 1,
      "price": "1011000000000000000000",
      "reserved": "",
      "salt": "0x63ad92a7d859012c54a555a05aea7ab2e7cb5cf60e939a086ad2acb6c226a540",
      "assetIds": []
    },
    {
      "x": 273,
      "y": 346,
      "size": 1,
      "price": "1011000000000000000000",
      "reserved": "0x7a9fe22691c811ea339d9b73150e6911a5343dca",
      "salt": "0xc249f61db0293c77a7c22fe5a8b09d4651ac75fd386177f0e9b2e2048db22572",
      "assetIds": []
    },
    {
      "x": 273,
      "y": 347,
      "size": 1,
      "price": "1011000000000000000000",
      "reserved": "",
      "salt": "0x17372fe2de2c75a16caae461f870ffcad35efece4f6d04965935a365a6e54c84",
      "assetIds": []
    },
    {
      "x": 273,
      "y": 348,
      "size": 1,
      "price": "1011000000000000000000",
      "reserved": "0x7a9fe22691c811ea339d9b73150e6911a5343dca",
      "salt": "0x918323e5ff2a3cd3c449fa285f06e95925dc975e892616abe462a4a524991f47",
      "assetIds": []
    },
    {
      "x": 273,
      "y": 349,
      "size": 1,
      "price": "1011000000000000000000",
      "reserved": "",
      "salt": "0xe3906d5294e356c504c2716ec876fe75ab4dd30c5239e45aab4a7444926bc100",
      "assetIds": []
    },
    {
      "x": 273,
      "y": 350,
      "size": 1,
      "price": "1011000000000000000000",
      "reserved": "",
      "salt": "0xbb753a82a7a85a504081c8128e21c268fde61d17447edd007ea417a62c4a4fae",
      "assetIds": []
    },
    {
      "x": 273,
      "y": 351,
      "size": 1,
      "price": "1011000000000000000000",
      "reserved": "0x7a9fe22691c811ea339d9b73150e6911a5343dca",
      "salt": "0x243f29a3e76e02e377aea97a071e206fd7adfedb5c6424be9bf503fb7e3b10c7",
      "assetIds": []
    },
    {
      "x": 273,
      "y": 352,
      "size": 1,
      "price": "1011000000000000000000",
      "reserved": "",
      "salt": "0x6f15ebef610bb8cbf3a31055dd533d5fed06ff5e9629c2de9b9235483a9287b9",
      "assetIds": []
    },
    {
      "x": 273,
      "y": 353,
      "size": 1,
      "price": "1011000000000000000000",
      "reserved": "",
      "salt": "0xe1efc5eff07aff7d7c197c8d39e948706622af338758101b0570619e5121b78c",
      "assetIds": []
    },
    {
      "x": 273,
      "y": 354,
      "size": 1,
      "price": "1011000000000000000000",
      "reserved": "",
      "salt": "0x9c90ca0a8c6ed6af9e9933d427f4eba142e7dc327573fe2565325625c0fa9174",
      "assetIds": []
    },
    {
      "x": 273,
      "y": 355,
      "size": 1,
      "price": "1011000000000000000000",
      "reserved": "",
      "salt": "0xbeae488888d99b5b27d193d46137a0204adb8956a1704e4d588817c9e6130758",
      "assetIds": []
    },
    {
      "x": 273,
      "y": 356,
      "size": 1,
      "price": "1011000000000000000000",
      "reserved": "",
      "salt": "0x38a3f3742ce4c619d4ee442cfee8e45bedd95114c1a40358fcedffc523ff94c4",
      "assetIds": []
    },
    {
      "x": 273,
      "y": 357,
      "size": 1,
      "price": "1011000000000000000000",
      "reserved": "",
      "salt": "0x1856e2648c2b21c4520a7a87921b3e1b548a1086d5116fe2befb0cca79f62564",
      "assetIds": []
    },
    {
      "x": 273,
      "y": 358,
      "size": 1,
      "price": "4683000000000000000000",
      "reserved": "",
      "salt": "0x5ffe4f118b4194c2c25a7dbe78439621f14130c0976c3beed0e72b5a3967f471",
      "assetIds": [
        "55464657044963196816950587289035428064568320970692304673817341489687790884865",
        "55464657044963196816950587289035428064568320970692304673817341489687782494208",
        "55464657044963196816950587289035428064568320970692304673817341489687790884866",
        "55464657044963196816950587289035428064568320970692304673817341489687782494209",
        "55464657044963196816950587289035428064568320970692304673817341489687790884864"
      ]
    },
    {
      "x": 273,
      "y": 359,
      "size": 1,
      "price": "4683000000000000000000",
      "reserved": "",
      "salt": "0x4c7a237f6b2ad4ed56724056c211316ab220320030738f5cf4c58435ca599327",
      "assetIds": [
        "55464657044963196816950587289035428064568320970692304673817341489687790884865",
        "55464657044963196816950587289035428064568320970692304673817341489687782494208",
        "55464657044963196816950587289035428064568320970692304673817341489687790884866",
        "55464657044963196816950587289035428064568320970692304673817341489687782494209",
        "55464657044963196816950587289035428064568320970692304673817341489687790884864"
      ]
    },
    {
      "x": 273,
      "y": 384,
      "size": 1,
      "price": "4683000000000000000000",
      "reserved": "",
      "salt": "0x3554292fb847efd32b9dd1463a33646e222abc6d8f98a571ff70edfea3248644",
      "assetIds": [
        "55464657044963196816950587289035428064568320970692304673817341489687790884865",
        "55464657044963196816950587289035428064568320970692304673817341489687782494208",
        "55464657044963196816950587289035428064568320970692304673817341489687790884866",
        "55464657044963196816950587289035428064568320970692304673817341489687782494209",
        "55464657044963196816950587289035428064568320970692304673817341489687790884864"
      ]
    },
    {
      "x": 273,
      "y": 385,
      "size": 1,
      "price": "4683000000000000000000",
      "reserved": "",
      "salt": "0xa2b1004746b46b0307903ebf82cae279bcabd41f3bda0ecc871ac61894f03244",
      "assetIds": [
        "55464657044963196816950587289035428064568320970692304673817341489687790884865",
        "55464657044963196816950587289035428064568320970692304673817341489687782494208",
        "55464657044963196816950587289035428064568320970692304673817341489687790884866",
        "55464657044963196816950587289035428064568320970692304673817341489687782494209",
        "55464657044963196816950587289035428064568320970692304673817341489687790884864"
      ]
    },
    {
      "x": 273,
      "y": 386,
      "size": 1,
      "price": "1011000000000000000000",
      "reserved": "",
      "salt": "0x37b0f036c3232000f850290c88823cc57add6c99d7a67f6b21c95a89c718a22f",
      "assetIds": []
    },
    {
      "x": 274,
      "y": 336,
      "size": 1,
      "price": "1011000000000000000000",
      "reserved": "",
      "salt": "0x7b8a28c15a989da5583515ed0aacd6dcf9d70c96adcc13e3ce58367c1c117562",
      "assetIds": []
    },
    {
      "x": 274,
      "y": 337,
      "size": 1,
      "price": "1011000000000000000000",
      "reserved": "",
      "salt": "0x3bf7594152fc986a8245a6bde606c759c07c0e2156af315add6df25c86d060be",
      "assetIds": []
    },
    {
      "x": 274,
      "y": 338,
      "size": 1,
      "price": "1011000000000000000000",
      "reserved": "",
      "salt": "0x30e840149bfaabb8d9c3e90c708805b47af3e29affdaeb29dfa8c5169f9ceb4b",
      "assetIds": []
    },
    {
      "x": 274,
      "y": 339,
      "size": 1,
      "price": "1011000000000000000000",
      "reserved": "",
      "salt": "0x0b29e26cc192600b9cb5123dd1bace746bba8dce09502f8c4c1b8603812f6969",
      "assetIds": []
    },
    {
      "x": 274,
      "y": 340,
      "size": 1,
      "price": "1011000000000000000000",
      "reserved": "",
      "salt": "0xac87b88abc3de880e0b654511bb27d27fec3bd82b9fac5355633a342624787b8",
      "assetIds": []
    },
    {
      "x": 274,
      "y": 341,
      "size": 1,
      "price": "1011000000000000000000",
      "reserved": "",
      "salt": "0x2de892dc73436aefbc4a2aec069def271fae442d161bece16e23ccdf52378e22",
      "assetIds": []
    },
    {
      "x": 274,
      "y": 342,
      "size": 1,
      "price": "1011000000000000000000",
      "reserved": "",
      "salt": "0xc0e7fd2c616f320a117fd638272974d7e988fbbd71ca5834426aeed3fd1f8879",
      "assetIds": []
    },
    {
      "x": 274,
      "y": 343,
      "size": 1,
      "price": "1011000000000000000000",
      "reserved": "",
      "salt": "0xaf1c5c10330d7be6bd6c253fb4b300c20e28e89f500a9a49333a943483d68225",
      "assetIds": []
    },
    {
      "x": 274,
      "y": 344,
      "size": 1,
      "price": "1011000000000000000000",
      "reserved": "0x7a9fe22691c811ea339d9b73150e6911a5343dca",
      "salt": "0x92709aafd07b3a93a3a193625f610e6a4215be94f877467fd08f84c403859825",
      "assetIds": []
    },
    {
      "x": 274,
      "y": 345,
      "size": 1,
      "price": "1011000000000000000000",
      "reserved": "",
      "salt": "0x05e996f518dd57de68301b84f7993b66b472b7162ac4cd90a790ad50d504755a",
      "assetIds": []
    },
    {
      "x": 274,
      "y": 346,
      "size": 1,
      "price": "1011000000000000000000",
      "reserved": "",
      "salt": "0x3f95104188c56b520258a1b08e4b497b3460eca61e1e051cccaf874141f7537b",
      "assetIds": []
    },
    {
      "x": 274,
      "y": 347,
      "size": 1,
      "price": "1011000000000000000000",
      "reserved": "",
      "salt": "0x27428a29688f6d8954d98a9480f82ae4ea09b88337e73e09d70938d08cb91136",
      "assetIds": []
    },
    {
      "x": 274,
      "y": 348,
      "size": 1,
      "price": "1011000000000000000000",
      "reserved": "",
      "salt": "0xc7f4ead9886dc1ff5da4486a80470fa7a1039046e3bb62e3a56967986e3901c1",
      "assetIds": []
    },
    {
      "x": 274,
      "y": 349,
      "size": 1,
      "price": "1011000000000000000000",
      "reserved": "",
      "salt": "0x38704a3cbaca3124acf2dfc8dd547e8a9cd299d802368454169874e91b51fec3",
      "assetIds": []
    },
    {
      "x": 274,
      "y": 350,
      "size": 1,
      "price": "1011000000000000000000",
      "reserved": "",
      "salt": "0x5d7f8dc28e2b59e55b66b729284cd5c9783c2c1092d05d2a5653dbce03d3a226",
      "assetIds": []
    },
    {
      "x": 274,
      "y": 351,
      "size": 1,
      "price": "1011000000000000000000",
      "reserved": "",
      "salt": "0x6f79e526cf3ddaef71e0ba6ce7edc70e0e2d6029a886a7ce19e10a8dae46d5cd",
      "assetIds": []
    },
    {
      "x": 274,
      "y": 352,
      "size": 1,
      "price": "1011000000000000000000",
      "reserved": "",
      "salt": "0x602b200ee236b410ec3d9b6284a8c1b6f2a9600de664f1bbd35f29c447cc0368",
      "assetIds": []
    },
    {
      "x": 274,
      "y": 353,
      "size": 1,
      "price": "1011000000000000000000",
      "reserved": "",
      "salt": "0x87685cdf6ba63abfcdb3633becfa29c08108fa2a1afc93c49e9c6875dbb0cc20",
      "assetIds": []
    },
    {
      "x": 274,
      "y": 354,
      "size": 1,
      "price": "1011000000000000000000",
      "reserved": "",
      "salt": "0xa7ba25ad6efd7f4ed0be8e02fc627b142ad9a944eb2917898ad4bf20344ae32f",
      "assetIds": []
    },
    {
      "x": 274,
      "y": 355,
      "size": 1,
      "price": "1011000000000000000000",
      "reserved": "",
      "salt": "0x95c4d08b79c48ad91cbd34fdb7756e992d893c67c7ae22fde4d949f98cf5f794",
      "assetIds": []
    },
    {
      "x": 274,
      "y": 356,
      "size": 1,
      "price": "1011000000000000000000",
      "reserved": "",
      "salt": "0xfa37c2c40dd3c4c74409d16312b6380c6228747a044780375eb355b83a062a03",
      "assetIds": []
    },
    {
      "x": 274,
      "y": 357,
      "size": 1,
      "price": "1011000000000000000000",
      "reserved": "",
      "salt": "0x678f7b2f1ac55c628b0ef4b2576cc123d991a435dd31d024dc2ca02250c43cf2",
      "assetIds": []
    },
    {
      "x": 274,
      "y": 358,
      "size": 1,
      "price": "4683000000000000000000",
      "reserved": "",
      "salt": "0x4a7261f9bf0179bfbdefac4b8a6574f12e49e3ab01dc1dcbb2eccb375cd8791c",
      "assetIds": [
        "55464657044963196816950587289035428064568320970692304673817341489687790884865",
        "55464657044963196816950587289035428064568320970692304673817341489687782494208",
        "55464657044963196816950587289035428064568320970692304673817341489687790884866",
        "55464657044963196816950587289035428064568320970692304673817341489687782494209",
        "55464657044963196816950587289035428064568320970692304673817341489687790884864"
      ]
    },
    {
      "x": 274,
      "y": 359,
      "size": 1,
      "price": "4683000000000000000000",
      "reserved": "",
      "salt": "0xb93ec9a8c63a7a5fbb3ad9e1e147272357b1c9facb29ae5fb3b806040c905b8e",
      "assetIds": [
        "55464657044963196816950587289035428064568320970692304673817341489687790884865",
        "55464657044963196816950587289035428064568320970692304673817341489687782494208",
        "55464657044963196816950587289035428064568320970692304673817341489687790884866",
        "55464657044963196816950587289035428064568320970692304673817341489687782494209",
        "55464657044963196816950587289035428064568320970692304673817341489687790884864"
      ]
    },
    {
      "x": 274,
      "y": 384,
      "size": 1,
      "price": "4683000000000000000000",
      "reserved": "",
      "salt": "0x7adce74c4f23b0caf494fd355f3562fd1134943fdbb1a07e451f8d5a16ed40e7",
      "assetIds": [
        "55464657044963196816950587289035428064568320970692304673817341489687790884865",
        "55464657044963196816950587289035428064568320970692304673817341489687782494208",
        "55464657044963196816950587289035428064568320970692304673817341489687790884866",
        "55464657044963196816950587289035428064568320970692304673817341489687782494209",
        "55464657044963196816950587289035428064568320970692304673817341489687790884864"
      ]
    },
    {
      "x": 274,
      "y": 385,
      "size": 1,
      "price": "4683000000000000000000",
      "reserved": "",
      "salt": "0xbb5090cedfe020fa1b26d7bbc98bb1082f7265d51948062702f367ccbd185261",
      "assetIds": [
        "55464657044963196816950587289035428064568320970692304673817341489687790884865",
        "55464657044963196816950587289035428064568320970692304673817341489687782494208",
        "55464657044963196816950587289035428064568320970692304673817341489687790884866",
        "55464657044963196816950587289035428064568320970692304673817341489687782494209",
        "55464657044963196816950587289035428064568320970692304673817341489687790884864"
      ]
    },
    {
      "x": 274,
      "y": 386,
      "size": 1,
      "price": "1011000000000000000000",
      "reserved": "",
      "salt": "0x02e9023090ac8e0ae0c77cbea09440f70e51757822cc93598364ad3ad36db6f3",
      "assetIds": []
    },
    {
      "x": 275,
      "y": 336,
      "size": 1,
      "price": "1011000000000000000000",
      "reserved": "",
      "salt": "0x58105b840ce55b1ad97336d20f518324430f9d9ebbd60bb33bae9da437cea23f",
      "assetIds": []
    },
    {
      "x": 275,
      "y": 337,
      "size": 1,
      "price": "1011000000000000000000",
      "reserved": "",
      "salt": "0xca5911955a2174936f4948cbf4e2da7628065b4b97bded9971aa89aaaa96d2c7",
      "assetIds": []
    },
    {
      "x": 275,
      "y": 338,
      "size": 1,
      "price": "1011000000000000000000",
      "reserved": "0x7a9fe22691c811ea339d9b73150e6911a5343dca",
      "salt": "0x47fd2bd45421c05e19d10278467fddf3fc28eb5e4b36c512fc64bd70e62ce599",
      "assetIds": []
    },
    {
      "x": 275,
      "y": 339,
      "size": 1,
      "price": "1011000000000000000000",
      "reserved": "",
      "salt": "0x08260848b921833b63d7b654ed22ffa805e2d34ad86cd5a71e86fe9c6bac78c4",
      "assetIds": []
    },
    {
      "x": 275,
      "y": 340,
      "size": 1,
      "price": "1011000000000000000000",
      "reserved": "0x7a9fe22691c811ea339d9b73150e6911a5343dca",
      "salt": "0xdd2289402fe33fceb0c7c2615882fb4e0099d9f182c5afc2a2acd301debe800f",
      "assetIds": []
    },
    {
      "x": 275,
      "y": 341,
      "size": 1,
      "price": "1011000000000000000000",
      "reserved": "",
      "salt": "0x5c5f40fc15c55dc4aa709ec6c527879f6a6e1d0a60c200118c495e78bdd652ee",
      "assetIds": []
    },
    {
      "x": 275,
      "y": 342,
      "size": 1,
      "price": "1011000000000000000000",
      "reserved": "",
      "salt": "0x44778ed62626a1fc3d8cf6aaa18db61fa9dfc4796c9b31b1781bf51593bb5f03",
      "assetIds": []
    },
    {
      "x": 275,
      "y": 343,
      "size": 1,
      "price": "1011000000000000000000",
      "reserved": "",
      "salt": "0x6afef36d67a2da58007d81c140125fbe0f5e1d5896d6ed95aa4bafd8c1eb2380",
      "assetIds": []
    },
    {
      "x": 275,
      "y": 344,
      "size": 1,
      "price": "1011000000000000000000",
      "reserved": "0x7a9fe22691c811ea339d9b73150e6911a5343dca",
      "salt": "0x85ddb5df399c46ace7ad150e22a496c2a7f93a439b54f82e4479640c83612c5a",
      "assetIds": []
    },
    {
      "x": 275,
      "y": 345,
      "size": 1,
      "price": "1011000000000000000000",
      "reserved": "",
      "salt": "0xa22bc866f0fe413d557931898e52e791d6cac64f779f127f873132135d639a74",
      "assetIds": []
    },
    {
      "x": 275,
      "y": 346,
      "size": 1,
      "price": "1011000000000000000000",
      "reserved": "",
      "salt": "0x09f9991c1add9deda038659ae9c8c95057193e9e2a5aa6a11ddb339c12dd5ddc",
      "assetIds": []
    },
    {
      "x": 275,
      "y": 347,
      "size": 1,
      "price": "1011000000000000000000",
      "reserved": "",
      "salt": "0x4c5077df7ec440567f6108b7d98aad46825a21b06686d896a666a5f37c4def20",
      "assetIds": []
    },
    {
      "x": 275,
      "y": 348,
      "size": 1,
      "price": "1011000000000000000000",
      "reserved": "",
      "salt": "0xd9c4830c093aa08433e333d27f5b58fe764a133af87880d54a52f1857e3694e3",
      "assetIds": []
    },
    {
      "x": 275,
      "y": 349,
      "size": 1,
      "price": "1011000000000000000000",
      "reserved": "",
      "salt": "0x4323ab8722abb51f93acda1a7539944269bac12dbe67561301f4730c1e1d4ffe",
      "assetIds": []
    },
    {
      "x": 275,
      "y": 350,
      "size": 1,
      "price": "1011000000000000000000",
      "reserved": "",
      "salt": "0x364d223d59dac4b6bf7001e57ecfd1c1789ee5ba227ff0aebe9e32c8463a4e7e",
      "assetIds": []
    },
    {
      "x": 275,
      "y": 351,
      "size": 1,
      "price": "1011000000000000000000",
      "reserved": "",
      "salt": "0xd8aa3d3c1cdff9993c4f3092f17eddbba99dbe99167e7829407528db07fb2a76",
      "assetIds": []
    },
    {
      "x": 275,
      "y": 352,
      "size": 1,
      "price": "1011000000000000000000",
      "reserved": "0x7a9fe22691c811ea339d9b73150e6911a5343dca",
      "salt": "0xf47d9238fc770e84d5ad7ff48cf96a41d46523f2c3877db020346f0c7b1884de",
      "assetIds": []
    },
    {
      "x": 275,
      "y": 353,
      "size": 1,
      "price": "1011000000000000000000",
      "reserved": "",
      "salt": "0x42344ea1ea37fda35c7b09c12217e4b98149d0795899a13f7ecf726a54ee86cf",
      "assetIds": []
    },
    {
      "x": 275,
      "y": 354,
      "size": 1,
      "price": "1011000000000000000000",
      "reserved": "",
      "salt": "0xf8e9b4ed9a3f51f71276b34ad023bb19a0350044b93ce2f7af11e4775aba40af",
      "assetIds": []
    },
    {
      "x": 275,
      "y": 355,
      "size": 1,
      "price": "1011000000000000000000",
      "reserved": "",
      "salt": "0x0156127641189e6d5101589718a0672239ffc31bca212aced51e9592c3fbf2e8",
      "assetIds": []
    },
    {
      "x": 275,
      "y": 356,
      "size": 1,
      "price": "1011000000000000000000",
      "reserved": "",
      "salt": "0xbefdbd707852b0e4515ed2d5e36b1271863876777a459d1eeb6b08d3c4039dae",
      "assetIds": []
    },
    {
      "x": 275,
      "y": 357,
      "size": 1,
      "price": "1011000000000000000000",
      "reserved": "",
      "salt": "0x688311614b2185c79b2ef771c6d0caf94ae4a89ddd49ce104449e002b5a3dd3a",
      "assetIds": []
    },
    {
      "x": 275,
      "y": 358,
      "size": 1,
      "price": "4683000000000000000000",
      "reserved": "",
      "salt": "0x780e6746ab53731762ddaf229bb8b14f632f087019da23c138fad6a2af396848",
      "assetIds": [
        "55464657044963196816950587289035428064568320970692304673817341489687790884865",
        "55464657044963196816950587289035428064568320970692304673817341489687782494208",
        "55464657044963196816950587289035428064568320970692304673817341489687790884866",
        "55464657044963196816950587289035428064568320970692304673817341489687782494209",
        "55464657044963196816950587289035428064568320970692304673817341489687790884864"
      ]
    },
    {
      "x": 275,
      "y": 359,
      "size": 1,
      "price": "4683000000000000000000",
      "reserved": "",
      "salt": "0x5cba5a66adf596b7a4ab797badb64b062b748c7e09b2256dfa5cbdf41e19de5c",
      "assetIds": [
        "55464657044963196816950587289035428064568320970692304673817341489687790884865",
        "55464657044963196816950587289035428064568320970692304673817341489687782494208",
        "55464657044963196816950587289035428064568320970692304673817341489687790884866",
        "55464657044963196816950587289035428064568320970692304673817341489687782494209",
        "55464657044963196816950587289035428064568320970692304673817341489687790884864"
      ]
    },
    {
      "x": 275,
      "y": 384,
      "size": 1,
      "price": "4683000000000000000000",
      "reserved": "",
      "salt": "0x36db5f2282f1b8f1120fa593d4e30662508741bec274994d6d27d2ac851e4fca",
      "assetIds": [
        "55464657044963196816950587289035428064568320970692304673817341489687790884865",
        "55464657044963196816950587289035428064568320970692304673817341489687782494208",
        "55464657044963196816950587289035428064568320970692304673817341489687790884866",
        "55464657044963196816950587289035428064568320970692304673817341489687782494209",
        "55464657044963196816950587289035428064568320970692304673817341489687790884864"
      ]
    },
    {
      "x": 275,
      "y": 385,
      "size": 1,
      "price": "4683000000000000000000",
      "reserved": "",
      "salt": "0xc17e803ef2d715b6c582b877dcbd578512c0f59880f191e27e5b4418d5d3eb38",
      "assetIds": [
        "55464657044963196816950587289035428064568320970692304673817341489687790884865",
        "55464657044963196816950587289035428064568320970692304673817341489687782494208",
        "55464657044963196816950587289035428064568320970692304673817341489687790884866",
        "55464657044963196816950587289035428064568320970692304673817341489687782494209",
        "55464657044963196816950587289035428064568320970692304673817341489687790884864"
      ]
    },
    {
      "x": 275,
      "y": 386,
      "size": 1,
      "price": "1011000000000000000000",
      "reserved": "",
      "salt": "0x0f66f09ddd5e2911d452f9e78b2bc2ca1f1530e28f0e7e7a92e40192ec6032c2",
      "assetIds": []
    },
    {
      "x": 276,
      "y": 336,
      "size": 1,
      "price": "1011000000000000000000",
      "reserved": "",
      "salt": "0x06063157aaf32e6c842357e43045957b846f27c327f75eedf6038afcb1aabcaa",
      "assetIds": []
    },
    {
      "x": 276,
      "y": 337,
      "size": 1,
      "price": "1011000000000000000000",
      "reserved": "",
      "salt": "0x0eb9a4430e2f41e6303d457c589c46f16cb6b3d41c1bd1fbc92dbf1f98137ed5",
      "assetIds": []
    },
    {
      "x": 276,
      "y": 338,
      "size": 1,
      "price": "1011000000000000000000",
      "reserved": "0x7a9fe22691c811ea339d9b73150e6911a5343dca",
      "salt": "0x75ed65fd008dcacf2e336be742541ea376f291fc76ffbdab3da19dd23899e14f",
      "assetIds": []
    },
    {
      "x": 276,
      "y": 339,
      "size": 1,
      "price": "1011000000000000000000",
      "reserved": "0x7a9fe22691c811ea339d9b73150e6911a5343dca",
      "salt": "0xa56971bff4518b756feb4d42dc36c389b0f39672254feec84da222f9b1858bce",
      "assetIds": []
    },
    {
      "x": 276,
      "y": 340,
      "size": 1,
      "price": "1011000000000000000000",
      "reserved": "0x7a9fe22691c811ea339d9b73150e6911a5343dca",
      "salt": "0x8badae971cd6a620bd7a01275e3a934b0ff8930669dd1e8eb795df9494fc8467",
      "assetIds": []
    },
    {
      "x": 276,
      "y": 341,
      "size": 1,
      "price": "1011000000000000000000",
      "reserved": "",
      "salt": "0x2827872cf5ca5f807e03d3dfafa0055a502427903fa3f976d814ffb9b5662051",
      "assetIds": []
    },
    {
      "x": 276,
      "y": 342,
      "size": 1,
      "price": "1011000000000000000000",
      "reserved": "0x7a9fe22691c811ea339d9b73150e6911a5343dca",
      "salt": "0x5f35766824256564d86bbea5507449ad746e54dcff36648b10dcaa1cc3a93b34",
      "assetIds": []
    },
    {
      "x": 276,
      "y": 343,
      "size": 1,
      "price": "1011000000000000000000",
      "reserved": "",
      "salt": "0x53cdb8744da9256b352314316a76f2b14602b1d03f5c409e1d0bfa86f7818255",
      "assetIds": []
    },
    {
      "x": 276,
      "y": 344,
      "size": 1,
      "price": "1011000000000000000000",
      "reserved": "",
      "salt": "0x971ae31beda2aa16b5d6eec59f91360d89da1a25c89b177b96d4c094a8f10e9a",
      "assetIds": []
    },
    {
      "x": 276,
      "y": 345,
      "size": 1,
      "price": "1011000000000000000000",
      "reserved": "",
      "salt": "0x72d2f6c7562a615f87c24916af12e553cdc7e8cb6e74ae13b83ab5a866abe9f8",
      "assetIds": []
    },
    {
      "x": 276,
      "y": 346,
      "size": 1,
      "price": "1011000000000000000000",
      "reserved": "",
      "salt": "0xf5ae663acb9e18ac11894a880163d3d32039db565373f63099eba04ec31c65e1",
      "assetIds": []
    },
    {
      "x": 276,
      "y": 347,
      "size": 1,
      "price": "1011000000000000000000",
      "reserved": "0x7a9fe22691c811ea339d9b73150e6911a5343dca",
      "salt": "0xa8dd2cf8d15fe881dc3342da5ac676a7822e90eedd8d436634a8a8a8d1856064",
      "assetIds": []
    },
    {
      "x": 276,
      "y": 348,
      "size": 1,
      "price": "1011000000000000000000",
      "reserved": "",
      "salt": "0xbdb3af9e12e6dc8a994fc8248fcf3067cb9b26b9bb99e2c99341fcaddfce172c",
      "assetIds": []
    },
    {
      "x": 276,
      "y": 349,
      "size": 1,
      "price": "1011000000000000000000",
      "reserved": "",
      "salt": "0x253b96e2a73b359bac82f9bc028eed017a6f3498d9f626310dc9494dabf8f2b5",
      "assetIds": []
    },
    {
      "x": 276,
      "y": 350,
      "size": 1,
      "price": "1011000000000000000000",
      "reserved": "",
      "salt": "0x2de1eceac09b76267603fc697534d5b84a40743f665fe9b1c57381b592e1d7b7",
      "assetIds": []
    },
    {
      "x": 276,
      "y": 351,
      "size": 1,
      "price": "1011000000000000000000",
      "reserved": "",
      "salt": "0x8900c9b43d4142fde52272832290050430c0f6694dcd99a82226b61bd3d28d84",
      "assetIds": []
    },
    {
      "x": 276,
      "y": 352,
      "size": 1,
      "price": "1011000000000000000000",
      "reserved": "0x7a9fe22691c811ea339d9b73150e6911a5343dca",
      "salt": "0x715c14929481eac4dd79696ecabd1f071d85bcf1ec81ab7ce28a81da290ab94f",
      "assetIds": []
    },
    {
      "x": 276,
      "y": 353,
      "size": 1,
      "price": "1011000000000000000000",
      "reserved": "",
      "salt": "0x9acbb8ea1be3fa8e2614ad7481d6b74a72c16b7372a3259e8f30d690910950ed",
      "assetIds": []
    },
    {
      "x": 276,
      "y": 354,
      "size": 1,
      "price": "1011000000000000000000",
      "reserved": "",
      "salt": "0xb66086ca6075ace655b34553bdddf48d2d55c2bcd4816550854a65589f89348d",
      "assetIds": []
    },
    {
      "x": 276,
      "y": 355,
      "size": 1,
      "price": "1011000000000000000000",
      "reserved": "0x7a9fe22691c811ea339d9b73150e6911a5343dca",
      "salt": "0xdae19fceab00f8981f97b956f26764c3aa7e3e7e2dd240c736773ad542d50db6",
      "assetIds": []
    },
    {
      "x": 276,
      "y": 356,
      "size": 1,
      "price": "1011000000000000000000",
      "reserved": "",
      "salt": "0x06a1aa57904a8be675e6b5e3070f1d7de40c39354431b616a90150a89745da79",
      "assetIds": []
    },
    {
      "x": 276,
      "y": 357,
      "size": 1,
      "price": "1011000000000000000000",
      "reserved": "",
      "salt": "0x41c9634d653069fa10ccf47ef0aadb372a5d423b761bc8261f7cf76e1c3e65ca",
      "assetIds": []
    },
    {
      "x": 276,
      "y": 358,
      "size": 1,
      "price": "1011000000000000000000",
      "reserved": "0x7a9fe22691c811ea339d9b73150e6911a5343dca",
      "salt": "0x5c21eca610a587412a1122289e7c307386762bbc7d94dd5a35cc50a5c55050a6",
      "assetIds": []
    },
    {
      "x": 276,
      "y": 359,
      "size": 1,
      "price": "4683000000000000000000",
      "reserved": "",
      "salt": "0x6418c98bdc63895198deb50d2ddb1a8354718e355b70867d8bac96ea46a863e4",
      "assetIds": [
        "55464657044963196816950587289035428064568320970692304673817341489687790884865",
        "55464657044963196816950587289035428064568320970692304673817341489687782494208",
        "55464657044963196816950587289035428064568320970692304673817341489687790884866",
        "55464657044963196816950587289035428064568320970692304673817341489687782494209",
        "55464657044963196816950587289035428064568320970692304673817341489687790884864"
      ]
    },
    {
      "x": 276,
      "y": 384,
      "size": 1,
      "price": "4683000000000000000000",
      "reserved": "",
      "salt": "0x20db865df89fbdf04b28034db6f709738e64b7456796c7b80a5e8eb82c7936c0",
      "assetIds": [
        "55464657044963196816950587289035428064568320970692304673817341489687790884865",
        "55464657044963196816950587289035428064568320970692304673817341489687782494208",
        "55464657044963196816950587289035428064568320970692304673817341489687790884866",
        "55464657044963196816950587289035428064568320970692304673817341489687782494209",
        "55464657044963196816950587289035428064568320970692304673817341489687790884864"
      ]
    },
    {
      "x": 276,
      "y": 385,
      "size": 1,
      "price": "1011000000000000000000",
      "reserved": "0x7a9fe22691c811ea339d9b73150e6911a5343dca",
      "salt": "0xf46484cf112fdf787aea42b16e7d4f975818f644ffa7f7415f42e620a137262b",
      "assetIds": []
    },
    {
      "x": 276,
      "y": 386,
      "size": 1,
      "price": "1011000000000000000000",
      "reserved": "",
      "salt": "0x53f5d1e1294b0a659cb7823589d00abbb8aa5d86df84897dec7ec7479f4f205b",
      "assetIds": []
    },
    {
      "x": 277,
      "y": 336,
      "size": 1,
      "price": "1011000000000000000000",
      "reserved": "",
      "salt": "0x3c8f1643e2895a85fb68f48b0d816263748f287626bd10fe4801b236fb05b32e",
      "assetIds": []
    },
    {
      "x": 277,
      "y": 337,
      "size": 1,
      "price": "1011000000000000000000",
      "reserved": "",
      "salt": "0xfffaaa48e9dc60d6382acf5a9be4dcc3a7d4a957b0549d2c8256cbd01129e92e",
      "assetIds": []
    },
    {
      "x": 277,
      "y": 338,
      "size": 1,
      "price": "1011000000000000000000",
      "reserved": "",
      "salt": "0xc1c0250af4137294ebb3bacc98627c082d5490cd2ca3506c6b648475bce58166",
      "assetIds": []
    },
    {
      "x": 277,
      "y": 339,
      "size": 1,
      "price": "1011000000000000000000",
      "reserved": "",
      "salt": "0xcb9df3490a1808dc7e9f7e435a9c49524ac8702c98e13be6c82e3f7e86418649",
      "assetIds": []
    },
    {
      "x": 277,
      "y": 340,
      "size": 1,
      "price": "1011000000000000000000",
      "reserved": "",
      "salt": "0x58491e7eebdf45e1ab4ec36f0d51e01ba7b3d9494c09ae8c9ae5ece2164e2404",
      "assetIds": []
    },
    {
      "x": 277,
      "y": 341,
      "size": 1,
      "price": "1011000000000000000000",
      "reserved": "",
      "salt": "0x1be0df51046a0ab4b546b526acbff168b304f6a4c1c3e44bcb31fb24f509db29",
      "assetIds": []
    },
    {
      "x": 277,
      "y": 342,
      "size": 1,
      "price": "1011000000000000000000",
      "reserved": "",
      "salt": "0x039debb904952921334d254d47a4ceacbaedac141307ee42f2287ae33a6343d3",
      "assetIds": []
    },
    {
      "x": 277,
      "y": 343,
      "size": 1,
      "price": "1011000000000000000000",
      "reserved": "",
      "salt": "0xb37dfa82a701b7690ec8670c2a12ec71d4b6b870175f79fd2a4ad920c33c46b0",
      "assetIds": []
    },
    {
      "x": 277,
      "y": 344,
      "size": 1,
      "price": "1011000000000000000000",
      "reserved": "0x7a9fe22691c811ea339d9b73150e6911a5343dca",
      "salt": "0xdd6ce557a4318b5f7995a4e15c9a67fb3292cdae4bead85ae46179b6071bc383",
      "assetIds": []
    },
    {
      "x": 277,
      "y": 345,
      "size": 1,
      "price": "1011000000000000000000",
      "reserved": "",
      "salt": "0x720001ab69a2d93b6251f155b5ab59b5fc4657bbf0fc4e02ca9505f5bd37b7b2",
      "assetIds": []
    },
    {
      "x": 277,
      "y": 346,
      "size": 1,
      "price": "1011000000000000000000",
      "reserved": "0x7a9fe22691c811ea339d9b73150e6911a5343dca",
      "salt": "0xb98186c676dfaa4ee4e07ca31ffffec0300955671e3985b5a255e0b363ad3876",
      "assetIds": []
    },
    {
      "x": 277,
      "y": 347,
      "size": 1,
      "price": "1011000000000000000000",
      "reserved": "",
      "salt": "0xb524b4b952a92a76607664143752bb50445df680f85e3ac6a554e4a1d7792a2a",
      "assetIds": []
    },
    {
      "x": 277,
      "y": 348,
      "size": 1,
      "price": "1011000000000000000000",
      "reserved": "",
      "salt": "0x652602bf68f9c8fcfa8f461f73d905e871c581b1dbbd6ed0bfc45217b9eea8c0",
      "assetIds": []
    },
    {
      "x": 277,
      "y": 349,
      "size": 1,
      "price": "1011000000000000000000",
      "reserved": "0x7a9fe22691c811ea339d9b73150e6911a5343dca",
      "salt": "0xc616c15870b88c3632e798cb7bad529a1d5c77d49403d6a13a63abe38c98f1ad",
      "assetIds": []
    },
    {
      "x": 277,
      "y": 350,
      "size": 1,
      "price": "1011000000000000000000",
      "reserved": "",
      "salt": "0xfdf82943a72f05bb8da74e46c1e9ad01e0a404fdecb4fd2108f2ee40b312f5b1",
      "assetIds": []
    },
    {
      "x": 277,
      "y": 351,
      "size": 1,
      "price": "1011000000000000000000",
      "reserved": "",
      "salt": "0xc70fef8d575a8c3cba2754c8b8373b4aefc9bb0188e8c1f8454b8f495c4aa983",
      "assetIds": []
    },
    {
      "x": 277,
      "y": 352,
      "size": 1,
      "price": "1011000000000000000000",
      "reserved": "",
      "salt": "0xb48c0a08b5b4bae4ea6c5f25c6cba819890cba31bab4f920b3fadcb4babb3355",
      "assetIds": []
    },
    {
      "x": 277,
      "y": 353,
      "size": 1,
      "price": "1011000000000000000000",
      "reserved": "",
      "salt": "0x1f3f0e5c2526f99e9d79cc2fc20e6d2db673b611f37211e23c8e243091d00943",
      "assetIds": []
    },
    {
      "x": 277,
      "y": 354,
      "size": 1,
      "price": "1011000000000000000000",
      "reserved": "",
      "salt": "0xc8a5b4d72744413bfd16e68c00d1377272066efa902c8da403bbc72a426a964a",
      "assetIds": []
    },
    {
      "x": 277,
      "y": 355,
      "size": 1,
      "price": "1011000000000000000000",
      "reserved": "",
      "salt": "0x213fd3fd9ef0c1f0ace0dd31bac729b91d45007602b5db736e785be549dd7be5",
      "assetIds": []
    },
    {
      "x": 277,
      "y": 356,
      "size": 1,
      "price": "1011000000000000000000",
      "reserved": "",
      "salt": "0xc3073b081603af0b21744b8d9d244be4f530a36a0f557f7c05ae2e79ef559c3d",
      "assetIds": []
    },
    {
      "x": 277,
      "y": 357,
      "size": 1,
      "price": "1011000000000000000000",
      "reserved": "",
      "salt": "0x92f615684cda6642af14edbbaf0c3f8032bb7b56311060ec0ac19af1c387e864",
      "assetIds": []
    },
    {
      "x": 277,
      "y": 358,
      "size": 1,
      "price": "1011000000000000000000",
      "reserved": "",
      "salt": "0x11bb75e084da4a4e49b014c97bcd02fc14ca108a956ed41d6cd37193ecc64891",
      "assetIds": []
    },
    {
      "x": 277,
      "y": 359,
      "size": 1,
      "price": "4683000000000000000000",
      "reserved": "",
      "salt": "0x62ec7cb98e91df2e1f5c1d1d13d02a20c7b703720c10af5ba156fb1dd7a788de",
      "assetIds": [
        "55464657044963196816950587289035428064568320970692304673817341489687790884865",
        "55464657044963196816950587289035428064568320970692304673817341489687782494208",
        "55464657044963196816950587289035428064568320970692304673817341489687790884866",
        "55464657044963196816950587289035428064568320970692304673817341489687782494209",
        "55464657044963196816950587289035428064568320970692304673817341489687790884864"
      ]
    },
    {
      "x": 277,
      "y": 384,
      "size": 1,
      "price": "4683000000000000000000",
      "reserved": "",
      "salt": "0x645e282dfd91d412ff25b8afa1c9f9e66a1ea72b27197d71215966c59c22bb9d",
      "assetIds": [
        "55464657044963196816950587289035428064568320970692304673817341489687790884865",
        "55464657044963196816950587289035428064568320970692304673817341489687782494208",
        "55464657044963196816950587289035428064568320970692304673817341489687790884866",
        "55464657044963196816950587289035428064568320970692304673817341489687782494209",
        "55464657044963196816950587289035428064568320970692304673817341489687790884864"
      ]
    },
    {
      "x": 277,
      "y": 385,
      "size": 1,
      "price": "1011000000000000000000",
      "reserved": "",
      "salt": "0xbab785f585abb9833cbdbe617455c2a3c5a50ae94f74aa62a13027068fb63952",
      "assetIds": []
    },
    {
      "x": 277,
      "y": 386,
      "size": 1,
      "price": "1011000000000000000000",
      "reserved": "",
      "salt": "0x60f46ad8a5ac916645ec47c9f40eb3f6bf1904b288ebc526eb8c0d48d9b810fd",
      "assetIds": []
    },
    {
      "x": 278,
      "y": 336,
      "size": 1,
      "price": "1011000000000000000000",
      "reserved": "",
      "salt": "0xe2ed7d01bf74942a7bcd6f958146e16e437d75afef5a76e8a1fdf2c7a6bd4391",
      "assetIds": []
    },
    {
      "x": 278,
      "y": 337,
      "size": 1,
      "price": "1011000000000000000000",
      "reserved": "",
      "salt": "0x6642c3309725cc6b4cb7260ffab0e0de2cee4d85266fe956be1f6328710941f7",
      "assetIds": []
    },
    {
      "x": 278,
      "y": 338,
      "size": 1,
      "price": "1011000000000000000000",
      "reserved": "",
      "salt": "0x11d5e5c58be0a6f246974fa69f4ee5494f1edd6bb3d7f02f00d26b998105f77e",
      "assetIds": []
    },
    {
      "x": 278,
      "y": 339,
      "size": 1,
      "price": "1011000000000000000000",
      "reserved": "",
      "salt": "0x439c28f8e8cfe4af74acaf4c70e79fb59058e9cd7ef8757899d33eeb8f094f7e",
      "assetIds": []
    },
    {
      "x": 278,
      "y": 340,
      "size": 1,
      "price": "1011000000000000000000",
      "reserved": "",
      "salt": "0x0220757696786bebae907e5aacedb4abc403db63fde886bef9983527b2cbb97e",
      "assetIds": []
    },
    {
      "x": 278,
      "y": 341,
      "size": 1,
      "price": "1011000000000000000000",
      "reserved": "",
      "salt": "0x4a96d6a45428edd8f2a578ba4892619eaf1446ae3840dbc154ef1bcaf4afcd4f",
      "assetIds": []
    },
    {
      "x": 278,
      "y": 342,
      "size": 1,
      "price": "1011000000000000000000",
      "reserved": "",
      "salt": "0x3c8623a579c00997b7ebd4dd99cb2e1aac753426fec2bd70236e14fc0f0e6f25",
      "assetIds": []
    },
    {
      "x": 278,
      "y": 343,
      "size": 1,
      "price": "1011000000000000000000",
      "reserved": "",
      "salt": "0x7789bbb0902181f260eb76b573c0ae6588f3940d709823038a47e08acc1b65aa",
      "assetIds": []
    },
    {
      "x": 278,
      "y": 344,
      "size": 1,
      "price": "1011000000000000000000",
      "reserved": "",
      "salt": "0xa33aa709e9f1fc6ffa848f94ecea5adefe28105fe09f61c06806c3e812f68050",
      "assetIds": []
    },
    {
      "x": 278,
      "y": 345,
      "size": 1,
      "price": "1011000000000000000000",
      "reserved": "",
      "salt": "0xd4e1b78a3c99aac2e5cb4c887a4125a9dc2adfb84004ded4eefa80d7df6fc0c7",
      "assetIds": []
    },
    {
      "x": 278,
      "y": 346,
      "size": 1,
      "price": "1011000000000000000000",
      "reserved": "0x7a9fe22691c811ea339d9b73150e6911a5343dca",
      "salt": "0xc4a792e4991f7ebf65123de130cafa3f82841b8b08caac554d38a02ecb2bccba",
      "assetIds": []
    },
    {
      "x": 278,
      "y": 347,
      "size": 1,
      "price": "1011000000000000000000",
      "reserved": "",
      "salt": "0x5e8899fa0b1dcd8fedd10cb6b9ac942737d8ef2e4febb2854339063f56379075",
      "assetIds": []
    },
    {
      "x": 278,
      "y": 348,
      "size": 1,
      "price": "1011000000000000000000",
      "reserved": "",
      "salt": "0x4cefd4ed6f9557fabc691d14b6ab98668586ddade003665a4534dfe9ad21c746",
      "assetIds": []
    },
    {
      "x": 278,
      "y": 349,
      "size": 1,
      "price": "1011000000000000000000",
      "reserved": "",
      "salt": "0x0745aac1a3cad7f6da9b4d3fd2466708d83f880f658e28e093c2804a9819e16f",
      "assetIds": []
    },
    {
      "x": 278,
      "y": 350,
      "size": 1,
      "price": "1011000000000000000000",
      "reserved": "",
      "salt": "0x87c1403969d0a1d4438617d77b3b418b87599a0a0cfb284d42100f2ccb06306e",
      "assetIds": []
    },
    {
      "x": 278,
      "y": 351,
      "size": 1,
      "price": "1011000000000000000000",
      "reserved": "",
      "salt": "0x7bdceded93c768bbef0bdf15665f553eb2ac57b4623f241917b2df14980dfa02",
      "assetIds": []
    },
    {
      "x": 278,
      "y": 352,
      "size": 1,
      "price": "1011000000000000000000",
      "reserved": "",
      "salt": "0x6568decf66789c3a9ef8d672c5f7fbb099da0c4e5e6a38018ceb48b6ccfb68b5",
      "assetIds": []
    },
    {
      "x": 278,
      "y": 353,
      "size": 1,
      "price": "1011000000000000000000",
      "reserved": "0x7a9fe22691c811ea339d9b73150e6911a5343dca",
      "salt": "0xfd1ea21beddb25501c44b5d8b7c370ca8e4619c54111c5188c7f934393aa775e",
      "assetIds": []
    },
    {
      "x": 278,
      "y": 354,
      "size": 1,
      "price": "1011000000000000000000",
      "reserved": "",
      "salt": "0xbe33f34961fe4d6ba79e4f05879a50496e5e4274a1bf3d96fdf8c6dee51c883f",
      "assetIds": []
    },
    {
      "x": 278,
      "y": 355,
      "size": 1,
      "price": "1011000000000000000000",
      "reserved": "",
      "salt": "0xd78a468ff3555c0d6a9aefda156f8680169a8d1b9f74875c0aaf8e64b8f9b544",
      "assetIds": []
    },
    {
      "x": 278,
      "y": 356,
      "size": 1,
      "price": "1011000000000000000000",
      "reserved": "",
      "salt": "0x27da28a38d057f0e56bbcbeff52ea4f749295358f9957a870a460f3ecefd9b41",
      "assetIds": []
    },
    {
      "x": 278,
      "y": 357,
      "size": 1,
      "price": "1011000000000000000000",
      "reserved": "0x7a9fe22691c811ea339d9b73150e6911a5343dca",
      "salt": "0x5574d1fd888c97c03d7809ec1b4a02fe87d105388bac6725f1ea8ece7bb63114",
      "assetIds": []
    },
    {
      "x": 278,
      "y": 358,
      "size": 1,
      "price": "1011000000000000000000",
      "reserved": "",
      "salt": "0x0f6bab5daa07d57dc3a6cc98f5cd36d484745a841caf7dc2e95751649a17ecf7",
      "assetIds": []
    },
    {
      "x": 278,
      "y": 359,
      "size": 1,
      "price": "4683000000000000000000",
      "reserved": "",
      "salt": "0xfb3f25da1c37f6d99bfaf06805c23ac2e91c52b011d46d7605e8430436fb197a",
      "assetIds": [
        "55464657044963196816950587289035428064568320970692304673817341489687790884865",
        "55464657044963196816950587289035428064568320970692304673817341489687782494208",
        "55464657044963196816950587289035428064568320970692304673817341489687790884866",
        "55464657044963196816950587289035428064568320970692304673817341489687782494209",
        "55464657044963196816950587289035428064568320970692304673817341489687790884864"
      ]
    },
    {
      "x": 278,
      "y": 384,
      "size": 1,
      "price": "4683000000000000000000",
      "reserved": "",
      "salt": "0x519399c8afe661204a54d5559f720999ea6659291d297bac8be634ebdbd8dd60",
      "assetIds": [
        "55464657044963196816950587289035428064568320970692304673817341489687790884865",
        "55464657044963196816950587289035428064568320970692304673817341489687782494208",
        "55464657044963196816950587289035428064568320970692304673817341489687790884866",
        "55464657044963196816950587289035428064568320970692304673817341489687782494209",
        "55464657044963196816950587289035428064568320970692304673817341489687790884864"
      ]
    },
    {
      "x": 278,
      "y": 385,
      "size": 1,
      "price": "1011000000000000000000",
      "reserved": "0x7a9fe22691c811ea339d9b73150e6911a5343dca",
      "salt": "0x175dc2f4e8ab9f96ee391404dd84da2de6801392cf9b340ca0c0ef148333f78f",
      "assetIds": []
    },
    {
      "x": 278,
      "y": 386,
      "size": 1,
      "price": "1011000000000000000000",
      "reserved": "0x7a9fe22691c811ea339d9b73150e6911a5343dca",
      "salt": "0xb19c67ae6a326a4d8300949a32c23ef61edae9dfa6bea95281d26bcc5c9ed491",
      "assetIds": []
    },
    {
      "x": 279,
      "y": 336,
      "size": 1,
      "price": "1011000000000000000000",
      "reserved": "",
      "salt": "0x8c0571ae0e277bdd65344af8b10a3306edc1176a536640dc03193e6aeefefa4c",
      "assetIds": []
    },
    {
      "x": 279,
      "y": 337,
      "size": 1,
      "price": "1011000000000000000000",
      "reserved": "",
      "salt": "0x3e1b002bd6997eb80532c83de562c16c0e88168dba6538cbd278f2e25b0e967b",
      "assetIds": []
    },
    {
      "x": 279,
      "y": 338,
      "size": 1,
      "price": "1011000000000000000000",
      "reserved": "",
      "salt": "0xb34ca1052c907ec37739110006b57d8a65af3e86469b0243a3fa972b3782af35",
      "assetIds": []
    },
    {
      "x": 279,
      "y": 339,
      "size": 1,
      "price": "1011000000000000000000",
      "reserved": "",
      "salt": "0xb700346114253e23b6c63e44f24b64e735aebb3967425fc070e7997a20de806a",
      "assetIds": []
    },
    {
      "x": 279,
      "y": 340,
      "size": 1,
      "price": "1011000000000000000000",
      "reserved": "",
      "salt": "0xaa0fe2e35cf6b1848742d4ffef920d3491a9288edaf688aeff72f6eefa828f98",
      "assetIds": []
    },
    {
      "x": 279,
      "y": 341,
      "size": 1,
      "price": "1011000000000000000000",
      "reserved": "",
      "salt": "0xb44428c5fa793b1db0fe82914e3770730ee665f4b4058f43e356ffa29b08b87c",
      "assetIds": []
    },
    {
      "x": 279,
      "y": 342,
      "size": 1,
      "price": "1011000000000000000000",
      "reserved": "",
      "salt": "0xea6d7011a60b28cd41ae46aa73017ba3ba7a9ee0078f3018fa729e93c66c5bbe",
      "assetIds": []
    },
    {
      "x": 279,
      "y": 343,
      "size": 1,
      "price": "1011000000000000000000",
      "reserved": "",
      "salt": "0x3fa7c8fb590313f4b557e5c3b9da2128d27b910716a7e3d33dd11a1c2682e59c",
      "assetIds": []
    },
    {
      "x": 279,
      "y": 344,
      "size": 1,
      "price": "1011000000000000000000",
      "reserved": "",
      "salt": "0xc816b8cda65543106887f6941572cd4cd2194452c5c590fe891bb89dd6631ee2",
      "assetIds": []
    },
    {
      "x": 279,
      "y": 345,
      "size": 1,
      "price": "1011000000000000000000",
      "reserved": "",
      "salt": "0x15dd96d8fd149124bc5d41174fa663db586b8c71e8eb5bdbbc7a0ac26af30333",
      "assetIds": []
    },
    {
      "x": 279,
      "y": 346,
      "size": 1,
      "price": "1011000000000000000000",
      "reserved": "",
      "salt": "0xc61781a7096f43b200adbab48530843fcf4c347dd4dbb320379a1f3b5f656340",
      "assetIds": []
    },
    {
      "x": 279,
      "y": 347,
      "size": 1,
      "price": "1011000000000000000000",
      "reserved": "0x7a9fe22691c811ea339d9b73150e6911a5343dca",
      "salt": "0x731ba22410d9e506301ab71716191447607aa4e11aab7b56c3b8ff4ba0ef5990",
      "assetIds": []
    },
    {
      "x": 279,
      "y": 348,
      "size": 1,
      "price": "1011000000000000000000",
      "reserved": "",
      "salt": "0xa5f4bb9984659377f158d8065c1d728db75807b19b356088255a27ec215e6351",
      "assetIds": []
    },
    {
      "x": 279,
      "y": 349,
      "size": 1,
      "price": "1011000000000000000000",
      "reserved": "",
      "salt": "0xcdc03960a583ea9e781c25a0a5f1fb84491b3d69c3d5100b945d134d0f37c580",
      "assetIds": []
    },
    {
      "x": 279,
      "y": 350,
      "size": 1,
      "price": "1011000000000000000000",
      "reserved": "",
      "salt": "0xef611f68fd41f9d2f44bf862e541b0864b76ae445f7665883366b729bc0cc013",
      "assetIds": []
    },
    {
      "x": 279,
      "y": 351,
      "size": 1,
      "price": "1011000000000000000000",
      "reserved": "",
      "salt": "0x5e56dac39b690b64c11b97b0137b6d2d086b26c51606c4e779b7b70f049e8339",
      "assetIds": []
    },
    {
      "x": 279,
      "y": 352,
      "size": 1,
      "price": "1011000000000000000000",
      "reserved": "",
      "salt": "0xac18c988fcc0e75d642111141855fb2a4229b5aea4869ea34fd94a1d877018b2",
      "assetIds": []
    },
    {
      "x": 279,
      "y": 353,
      "size": 1,
      "price": "1011000000000000000000",
      "reserved": "",
      "salt": "0xae65ccfe2985da23a68189d9bc117680c4293003a17eef84a5a58a44108c9c11",
      "assetIds": []
    },
    {
      "x": 279,
      "y": 354,
      "size": 1,
      "price": "1011000000000000000000",
      "reserved": "",
      "salt": "0xf76cd87c37aedc22ba207e8f36287e1cab77038c6d0616840ab22eaaff3c7ca7",
      "assetIds": []
    },
    {
      "x": 279,
      "y": 355,
      "size": 1,
      "price": "1011000000000000000000",
      "reserved": "0x7a9fe22691c811ea339d9b73150e6911a5343dca",
      "salt": "0x29c2451da65bfa1204469245fa13fd48f628eca26a7412c2d98d35c93c59fe74",
      "assetIds": []
    },
    {
      "x": 279,
      "y": 356,
      "size": 1,
      "price": "1011000000000000000000",
      "reserved": "",
      "salt": "0x951f2bfddcc9f40aec79746cfc39f6566995c4d28022bbc63d7ceebaf348e8b1",
      "assetIds": []
    },
    {
      "x": 279,
      "y": 357,
      "size": 1,
      "price": "1011000000000000000000",
      "reserved": "0x7a9fe22691c811ea339d9b73150e6911a5343dca",
      "salt": "0x8afc777b0d3ec9883eb966ec87051cfc255dac9f3d7f867fe624502316e6b349",
      "assetIds": []
    },
    {
      "x": 279,
      "y": 358,
      "size": 1,
      "price": "1011000000000000000000",
      "reserved": "",
      "salt": "0x6c74f41266c29ad3c5b7c6d8d14cf31bb8221fb54e1e30042e5a68caa44c110e",
      "assetIds": []
    },
    {
      "x": 279,
      "y": 359,
      "size": 1,
      "price": "4683000000000000000000",
      "reserved": "",
      "salt": "0x25730e93b4ac5beb266c03462c36ca6b75672dbc9d95f17a6bb6ad6d2f912f12",
      "assetIds": [
        "55464657044963196816950587289035428064568320970692304673817341489687790884865",
        "55464657044963196816950587289035428064568320970692304673817341489687782494208",
        "55464657044963196816950587289035428064568320970692304673817341489687790884866",
        "55464657044963196816950587289035428064568320970692304673817341489687782494209",
        "55464657044963196816950587289035428064568320970692304673817341489687790884864"
      ]
    },
    {
      "x": 279,
      "y": 384,
      "size": 1,
      "price": "4683000000000000000000",
      "reserved": "",
      "salt": "0x7fe26a9666e9d6ca14264ab6770a53ef1159ddd0f9c7f9de056fc26a7fd3ed64",
      "assetIds": [
        "55464657044963196816950587289035428064568320970692304673817341489687790884865",
        "55464657044963196816950587289035428064568320970692304673817341489687782494208",
        "55464657044963196816950587289035428064568320970692304673817341489687790884866",
        "55464657044963196816950587289035428064568320970692304673817341489687782494209",
        "55464657044963196816950587289035428064568320970692304673817341489687790884864"
      ]
    },
    {
      "x": 279,
      "y": 385,
      "size": 1,
      "price": "4683000000000000000000",
      "reserved": "",
      "salt": "0xf3f5919434c0212ad219b7eb4573e9db276dcc3bcba8c3e0e9afcee83bbf7c75",
      "assetIds": [
        "55464657044963196816950587289035428064568320970692304673817341489687790884865",
        "55464657044963196816950587289035428064568320970692304673817341489687782494208",
        "55464657044963196816950587289035428064568320970692304673817341489687790884866",
        "55464657044963196816950587289035428064568320970692304673817341489687782494209",
        "55464657044963196816950587289035428064568320970692304673817341489687790884864"
      ]
    },
    {
      "x": 279,
      "y": 386,
      "size": 1,
      "price": "1011000000000000000000",
      "reserved": "",
      "salt": "0x281a7f97f0d115f10fe872ae073fc994ba82a66b00c5574d9debeba4d97bc2f0",
      "assetIds": []
    },
    {
      "x": 280,
      "y": 336,
      "size": 1,
      "price": "1011000000000000000000",
      "reserved": "0x7a9fe22691c811ea339d9b73150e6911a5343dca",
      "salt": "0xbe0f0d61986af414b373c2fb0130dcdcb0720e93611f68ca2c96dc72e3eb586c",
      "assetIds": []
    },
    {
      "x": 280,
      "y": 337,
      "size": 1,
      "price": "1011000000000000000000",
      "reserved": "",
      "salt": "0xee881d7f66ac81fe7433a103987703e3f932a6038af3f7e2f81d3fa2657d09bd",
      "assetIds": []
    },
    {
      "x": 280,
      "y": 338,
      "size": 1,
      "price": "1011000000000000000000",
      "reserved": "",
      "salt": "0xde825aab614ef2a275dae7472ddf2b25928ef33b2276da836c75861dbe4a7b5a",
      "assetIds": []
    },
    {
      "x": 280,
      "y": 339,
      "size": 1,
      "price": "1011000000000000000000",
      "reserved": "0x7a9fe22691c811ea339d9b73150e6911a5343dca",
      "salt": "0xb19522a0c0c110ec6509d4ad25b86326fd87e64e332ad6f1387b4c4609d0a052",
      "assetIds": []
    },
    {
      "x": 280,
      "y": 340,
      "size": 1,
      "price": "1011000000000000000000",
      "reserved": "",
      "salt": "0x383198726dc290198683d3e58dc4fd4ded37483c5dc9638c2df684f2760cf9e0",
      "assetIds": []
    },
    {
      "x": 280,
      "y": 341,
      "size": 1,
      "price": "1011000000000000000000",
      "reserved": "",
      "salt": "0x785700f2614eba87558332fec5c45fef07452032de807fd7f43b5764f07f1fe4",
      "assetIds": []
    },
    {
      "x": 280,
      "y": 342,
      "size": 1,
      "price": "1011000000000000000000",
      "reserved": "",
      "salt": "0x55a0361f3d12a1b70a484f34cbb0e2922df90fcb116c86f081a8a5cd63bbde3b",
      "assetIds": []
    },
    {
      "x": 280,
      "y": 343,
      "size": 1,
      "price": "1011000000000000000000",
      "reserved": "",
      "salt": "0xadea6eef921ef77f838c8adee3d1ddd067aa94a014001baca92e13f5b23c1a34",
      "assetIds": []
    },
    {
      "x": 280,
      "y": 344,
      "size": 1,
      "price": "1011000000000000000000",
      "reserved": "",
      "salt": "0xbe2ae57a60f4f0515ded207b21126868d8b8655c96c6ef00b0ecb4267ec94553",
      "assetIds": []
    },
    {
      "x": 280,
      "y": 345,
      "size": 1,
      "price": "1011000000000000000000",
      "reserved": "",
      "salt": "0x9b2ad38d5dc73725902ba9294585b33ef37f4689c583f82323ccd1674e25be49",
      "assetIds": []
    },
    {
      "x": 280,
      "y": 346,
      "size": 1,
      "price": "1011000000000000000000",
      "reserved": "",
      "salt": "0x6f811a0c013d43a66857287b231a8cbc36a798075c6580cd901c41c7fab22d90",
      "assetIds": []
    },
    {
      "x": 280,
      "y": 347,
      "size": 1,
      "price": "1011000000000000000000",
      "reserved": "",
      "salt": "0xa03c6a5257e82ee143f65b4e4ded604190c5e4e3051519d4519c17e250e8f33d",
      "assetIds": []
    },
    {
      "x": 280,
      "y": 348,
      "size": 1,
      "price": "1011000000000000000000",
      "reserved": "",
      "salt": "0x7bfad4e398074ee0c13b9003fd307e750b8a728afcc77491c0caa4689bf48533",
      "assetIds": []
    },
    {
      "x": 280,
      "y": 349,
      "size": 1,
      "price": "1011000000000000000000",
      "reserved": "",
      "salt": "0xd2fb5e9b85f54c6944fa668164e666dca43148621abaea100c6c74b59dcefc7d",
      "assetIds": []
    },
    {
      "x": 280,
      "y": 350,
      "size": 1,
      "price": "1011000000000000000000",
      "reserved": "",
      "salt": "0xe413c1c21275233d0d9e60b55dda34a42498eb6fbe7a24a978f221e66656fe4a",
      "assetIds": []
    },
    {
      "x": 280,
      "y": 351,
      "size": 1,
      "price": "1011000000000000000000",
      "reserved": "",
      "salt": "0x2c5eebdaa5bcf8b76f0f6dce6ce96059987f74348400528e0ca8f748f90b5d12",
      "assetIds": []
    },
    {
      "x": 280,
      "y": 352,
      "size": 1,
      "price": "1011000000000000000000",
      "reserved": "",
      "salt": "0x09a910a931fd9bb6ffcd5abfed9c4417aba61e717a5ec7622e3c19f6eed485ce",
      "assetIds": []
    },
    {
      "x": 280,
      "y": 353,
      "size": 1,
      "price": "1011000000000000000000",
      "reserved": "",
      "salt": "0x8752777a847ca7859fb7fab91b404eee4695a932ddeb9856da4fb8112620ca60",
      "assetIds": []
    },
    {
      "x": 280,
      "y": 354,
      "size": 1,
      "price": "1011000000000000000000",
      "reserved": "",
      "salt": "0x21fd48d5b98f4b12bd1a60cd6cbcd0895aa23c6205b2795b38f3fe60b3b7a7d8",
      "assetIds": []
    },
    {
      "x": 280,
      "y": 355,
      "size": 1,
      "price": "1011000000000000000000",
      "reserved": "",
      "salt": "0xb043c0dc023b4c9afea6a5ba30f2774e77f0706613611dc54c9c26de53c83f9c",
      "assetIds": []
    },
    {
      "x": 280,
      "y": 356,
      "size": 1,
      "price": "1011000000000000000000",
      "reserved": "",
      "salt": "0xcc04a4a1503d009c5d59a8dd7406552c26225a54bf4ce4e97fff7c5f3e5db269",
      "assetIds": []
    },
    {
      "x": 280,
      "y": 357,
      "size": 1,
      "price": "1011000000000000000000",
      "reserved": "",
      "salt": "0x3e60d68eab668cb84d4a92321255e25ab5ddf6193d58bed4e8ac9090989b6f44",
      "assetIds": []
    },
    {
      "x": 280,
      "y": 358,
      "size": 1,
      "price": "1011000000000000000000",
      "reserved": "",
      "salt": "0x2a4298a867e53219e91e2588cea0241f6eb02f2c8133b217f53f4cba1454d7d2",
      "assetIds": []
    },
    {
      "x": 280,
      "y": 359,
      "size": 1,
      "price": "4683000000000000000000",
      "reserved": "",
      "salt": "0xe3a75b010c87c476f655debfc6e2d3bbc4d148cfe520abd412c30a7400785926",
      "assetIds": [
        "55464657044963196816950587289035428064568320970692304673817341489687790884865",
        "55464657044963196816950587289035428064568320970692304673817341489687782494208",
        "55464657044963196816950587289035428064568320970692304673817341489687790884866",
        "55464657044963196816950587289035428064568320970692304673817341489687782494209",
        "55464657044963196816950587289035428064568320970692304673817341489687790884864"
      ]
    },
    {
      "x": 280,
      "y": 384,
      "size": 1,
      "price": "4683000000000000000000",
      "reserved": "",
      "salt": "0x4c2bdc77beb1c7aaf6070c49abce8af028241785ea2c693f770e97b2ff8ab5e0",
      "assetIds": [
        "55464657044963196816950587289035428064568320970692304673817341489687790884865",
        "55464657044963196816950587289035428064568320970692304673817341489687782494208",
        "55464657044963196816950587289035428064568320970692304673817341489687790884866",
        "55464657044963196816950587289035428064568320970692304673817341489687782494209",
        "55464657044963196816950587289035428064568320970692304673817341489687790884864"
      ]
    },
    {
      "x": 280,
      "y": 385,
      "size": 1,
      "price": "4683000000000000000000",
      "reserved": "",
      "salt": "0xcc9a6163829034719fdc0a03e9191b26b0eac34a7df14b97dcbb250d1211c5b2",
      "assetIds": [
        "55464657044963196816950587289035428064568320970692304673817341489687790884865",
        "55464657044963196816950587289035428064568320970692304673817341489687782494208",
        "55464657044963196816950587289035428064568320970692304673817341489687790884866",
        "55464657044963196816950587289035428064568320970692304673817341489687782494209",
        "55464657044963196816950587289035428064568320970692304673817341489687790884864"
      ]
    },
    {
      "x": 280,
      "y": 386,
      "size": 1,
      "price": "1011000000000000000000",
      "reserved": "",
      "salt": "0xc715e86b08fc294bbe165a9dc23a5b87c808a23aabd64ca388d0f91672273063",
      "assetIds": []
    },
    {
      "x": 281,
      "y": 336,
      "size": 1,
      "price": "1011000000000000000000",
      "reserved": "",
      "salt": "0xcbdf63b57305c273dde3dea0e7c9984ff6677a2917f4263106bc439e90e01c98",
      "assetIds": []
    },
    {
      "x": 281,
      "y": 337,
      "size": 1,
      "price": "1011000000000000000000",
      "reserved": "0x7a9fe22691c811ea339d9b73150e6911a5343dca",
      "salt": "0x8ce513d6dc9b7781548a727afebc8179443e03a58342338797ea6db302b15bb8",
      "assetIds": []
    },
    {
      "x": 281,
      "y": 338,
      "size": 1,
      "price": "1011000000000000000000",
      "reserved": "",
      "salt": "0xf2026ecaac2767ac737dfb2392cbe67ead5a05acefc66ba8f4d9361beb81f37d",
      "assetIds": []
    },
    {
      "x": 281,
      "y": 339,
      "size": 1,
      "price": "1011000000000000000000",
      "reserved": "0x7a9fe22691c811ea339d9b73150e6911a5343dca",
      "salt": "0x849e3580a2e43e8f6dea9433bfda3625c3f34502b21f1cd0107ceedcbddb3c0c",
      "assetIds": []
    },
    {
      "x": 281,
      "y": 340,
      "size": 1,
      "price": "1011000000000000000000",
      "reserved": "",
      "salt": "0x714006d9f740f296732f326218f1b19e5bb19387db35df790738c4074117e261",
      "assetIds": []
    },
    {
      "x": 281,
      "y": 341,
      "size": 1,
      "price": "1011000000000000000000",
      "reserved": "",
      "salt": "0x040914979b87af1724ceb1140dc84b60df570c5fcaa4444b85ba007466b4a68d",
      "assetIds": []
    },
    {
      "x": 281,
      "y": 342,
      "size": 1,
      "price": "1011000000000000000000",
      "reserved": "0x7a9fe22691c811ea339d9b73150e6911a5343dca",
      "salt": "0x1d63b2c331b66af6a9a724148b77e6d81e4538065c9451e5e32d2dca710e2833",
      "assetIds": []
    },
    {
      "x": 281,
      "y": 343,
      "size": 1,
      "price": "1011000000000000000000",
      "reserved": "0x7a9fe22691c811ea339d9b73150e6911a5343dca",
      "salt": "0xcead0f933e8840316dd9db26c17100a065f155b1a18e53151b69fadfbac65eee",
      "assetIds": []
    },
    {
      "x": 281,
      "y": 344,
      "size": 1,
      "price": "1011000000000000000000",
      "reserved": "",
      "salt": "0x7a30e9d105d4a3cd27dc278825edd8e6c2b3b717555292226ebf9133e4d90c78",
      "assetIds": []
    },
    {
      "x": 281,
      "y": 345,
      "size": 1,
      "price": "1011000000000000000000",
      "reserved": "",
      "salt": "0xd22941416bd909f6412e9a11d9fbd29399182535c8cde7775d5e234d191e4491",
      "assetIds": []
    },
    {
      "x": 281,
      "y": 346,
      "size": 1,
      "price": "1011000000000000000000",
      "reserved": "",
      "salt": "0xcc301cdd97d7067851b58513678fad83dc103ff04e8ceac53e4ba6975199d30f",
      "assetIds": []
    },
    {
      "x": 281,
      "y": 347,
      "size": 1,
      "price": "1011000000000000000000",
      "reserved": "",
      "salt": "0xf9599f0fba550f6934fa1a7391deb8a66f90ac1a6298d9211f87da0f722f2ebd",
      "assetIds": []
    },
    {
      "x": 281,
      "y": 348,
      "size": 1,
      "price": "1011000000000000000000",
      "reserved": "",
      "salt": "0x6daee444cebd95c6e275c306e3a4fa1c5741ab74de6725de90362d0f0f9ebbe9",
      "assetIds": []
    },
    {
      "x": 281,
      "y": 349,
      "size": 1,
      "price": "1011000000000000000000",
      "reserved": "",
      "salt": "0x59fa2064b7e85a9130547e67beacf5a10362921d8fd297472eaf477e8440fc12",
      "assetIds": []
    },
    {
      "x": 281,
      "y": 350,
      "size": 1,
      "price": "1011000000000000000000",
      "reserved": "0x7a9fe22691c811ea339d9b73150e6911a5343dca",
      "salt": "0xf5f886fb8e43f0f1edb6c5522a49bbaa428f901c22a2638b3c01f88afb969954",
      "assetIds": []
    },
    {
      "x": 281,
      "y": 351,
      "size": 1,
      "price": "1011000000000000000000",
      "reserved": "",
      "salt": "0x3ff90f377eb3f24891248398465bc5a3722827e1c37c38bcda162564bc2d0bf9",
      "assetIds": []
    },
    {
      "x": 281,
      "y": 352,
      "size": 1,
      "price": "1011000000000000000000",
      "reserved": "",
      "salt": "0x3636598bd46e50d39d05faabbe5eecc03b6588a2bf7848da22df5cc5aec44f9c",
      "assetIds": []
    },
    {
      "x": 281,
      "y": 353,
      "size": 1,
      "price": "1011000000000000000000",
      "reserved": "",
      "salt": "0xdbb731c679f8b73e14177545b50e7029d7f992e91c8deb5f4c3533eda194b36b",
      "assetIds": []
    },
    {
      "x": 281,
      "y": 354,
      "size": 1,
      "price": "1011000000000000000000",
      "reserved": "0x7a9fe22691c811ea339d9b73150e6911a5343dca",
      "salt": "0x45c44d20091323aebc93215b3ea53148c0d3c06f2761fad7e6f4734620cf7424",
      "assetIds": []
    },
    {
      "x": 281,
      "y": 355,
      "size": 1,
      "price": "1011000000000000000000",
      "reserved": "",
      "salt": "0xc0d84d633fccb86bb6935b247259ccaa133583b4b4e7cd14939512d7e8654b69",
      "assetIds": []
    },
    {
      "x": 281,
      "y": 356,
      "size": 1,
      "price": "1011000000000000000000",
      "reserved": "",
      "salt": "0xf13356655b308ce1e31659f62be9f087da688e8a9a1fce819586745f19453184",
      "assetIds": []
    },
    {
      "x": 281,
      "y": 357,
      "size": 1,
      "price": "1011000000000000000000",
      "reserved": "0x7a9fe22691c811ea339d9b73150e6911a5343dca",
      "salt": "0xe660fb4c33fcbe7969b8993a3e595468a9cec00ba7e87146cd5cce0f826b6ab5",
      "assetIds": []
    },
    {
      "x": 281,
      "y": 358,
      "size": 1,
      "price": "1011000000000000000000",
      "reserved": "",
      "salt": "0xdfd78a5df26a6e99a7f13779a69ce02dfcbc88e0170b7caeb0c3cabbd657986f",
      "assetIds": []
    },
    {
      "x": 281,
      "y": 359,
      "size": 1,
      "price": "4683000000000000000000",
      "reserved": "",
      "salt": "0x3b310eb3756a2a26ab760361dd0b99f1eeec97126bdcf53c54c70430e12495b1",
      "assetIds": [
        "55464657044963196816950587289035428064568320970692304673817341489687790884865",
        "55464657044963196816950587289035428064568320970692304673817341489687782494208",
        "55464657044963196816950587289035428064568320970692304673817341489687790884866",
        "55464657044963196816950587289035428064568320970692304673817341489687782494209",
        "55464657044963196816950587289035428064568320970692304673817341489687790884864"
      ]
    },
    {
      "x": 281,
      "y": 384,
      "size": 1,
      "price": "4683000000000000000000",
      "reserved": "",
      "salt": "0x9b14fc9c0b7551505372fa4262a39c7ec11b5c10fb25b469ddec2eedd3457587",
      "assetIds": [
        "55464657044963196816950587289035428064568320970692304673817341489687790884865",
        "55464657044963196816950587289035428064568320970692304673817341489687782494208",
        "55464657044963196816950587289035428064568320970692304673817341489687790884866",
        "55464657044963196816950587289035428064568320970692304673817341489687782494209",
        "55464657044963196816950587289035428064568320970692304673817341489687790884864"
      ]
    },
    {
      "x": 281,
      "y": 385,
      "size": 1,
      "price": "4683000000000000000000",
      "reserved": "",
      "salt": "0x3bcaaf9fa9a53b4a1751c39bcc08b413542808921af2b9f37267b8f4ba66508e",
      "assetIds": [
        "55464657044963196816950587289035428064568320970692304673817341489687790884865",
        "55464657044963196816950587289035428064568320970692304673817341489687782494208",
        "55464657044963196816950587289035428064568320970692304673817341489687790884866",
        "55464657044963196816950587289035428064568320970692304673817341489687782494209",
        "55464657044963196816950587289035428064568320970692304673817341489687790884864"
      ]
    },
    {
      "x": 281,
      "y": 386,
      "size": 1,
      "price": "1011000000000000000000",
      "reserved": "",
      "salt": "0xe1a81b2275957c5c1b3f8fe74e7dbb5f4092dc6e7da9bcc44f82a1d40a121f51",
      "assetIds": []
    },
    {
      "x": 282,
      "y": 336,
      "size": 1,
      "price": "1011000000000000000000",
      "reserved": "0x7a9fe22691c811ea339d9b73150e6911a5343dca",
      "salt": "0x59aa21f24c150e83631eabb0c88f4b58e3a6cb41687307c8999268a426595e13",
      "assetIds": []
    },
    {
      "x": 282,
      "y": 337,
      "size": 1,
      "price": "1011000000000000000000",
      "reserved": "0x7a9fe22691c811ea339d9b73150e6911a5343dca",
      "salt": "0x5a43319ce50e6cfbd4dee42188dd32fbfcffc93cac4e55be49136e06cb9609f2",
      "assetIds": []
    },
    {
      "x": 282,
      "y": 338,
      "size": 1,
      "price": "1011000000000000000000",
      "reserved": "",
      "salt": "0x035ea420b167d61971a136a333ddab7e3b0e0f4a574ff1ae5c23546fbefd7a0a",
      "assetIds": []
    },
    {
      "x": 282,
      "y": 339,
      "size": 1,
      "price": "1011000000000000000000",
      "reserved": "",
      "salt": "0xc28de39b2f12b0a873abfbcff0b4b9227b2ffeca58087ab7a5ce35211135ff7e",
      "assetIds": []
    },
    {
      "x": 282,
      "y": 340,
      "size": 1,
      "price": "1011000000000000000000",
      "reserved": "",
      "salt": "0xe8cc8905ffc8854760a604483322e9db039fe1c8f219ec62cdb9753f57767ba3",
      "assetIds": []
    },
    {
      "x": 282,
      "y": 341,
      "size": 1,
      "price": "1011000000000000000000",
      "reserved": "0x7a9fe22691c811ea339d9b73150e6911a5343dca",
      "salt": "0xe760fccaa63757f61dfe66ce7a30c212e730fb24d115684c60c071db32c32d1b",
      "assetIds": []
    },
    {
      "x": 282,
      "y": 342,
      "size": 1,
      "price": "1011000000000000000000",
      "reserved": "",
      "salt": "0xdd6645e7fbbbb4afd95fec7b49d1a972bfeaec9fb3f46923b93f30573743e73e",
      "assetIds": []
    },
    {
      "x": 282,
      "y": 343,
      "size": 1,
      "price": "1011000000000000000000",
      "reserved": "",
      "salt": "0x819607acf735a41ed8f264015240f10f0c964cbcc677ab736bcbfccac11a15fb",
      "assetIds": []
    },
    {
      "x": 282,
      "y": 344,
      "size": 1,
      "price": "1011000000000000000000",
      "reserved": "",
      "salt": "0x2cd9a5275f49778cf41f321ecf0e567b40e6539f507688c25e820cc27d62a7e0",
      "assetIds": []
    },
    {
      "x": 282,
      "y": 345,
      "size": 1,
      "price": "1011000000000000000000",
      "reserved": "0x7a9fe22691c811ea339d9b73150e6911a5343dca",
      "salt": "0x2349abe83e598cd65dd9ace562645d045d84c67f964822d1c71b18668280d94b",
      "assetIds": []
    },
    {
      "x": 282,
      "y": 346,
      "size": 1,
      "price": "1011000000000000000000",
      "reserved": "",
      "salt": "0x9070a5d75c9fdf5f73493df84312cfbc97402ee18cb62e5c2fb46acc3960d1f3",
      "assetIds": []
    },
    {
      "x": 282,
      "y": 347,
      "size": 1,
      "price": "1011000000000000000000",
      "reserved": "",
      "salt": "0xe27aa4399df92029fbbb53f04744182feec8b1e9770136ae0a1765100d3ae191",
      "assetIds": []
    },
    {
      "x": 282,
      "y": 354,
      "size": 1,
      "price": "1011000000000000000000",
      "reserved": "",
      "salt": "0x107906b6cabc3ab8327d83fe42a256de39933f7db828f71572ca1b0682660a4d",
      "assetIds": []
    },
    {
      "x": 282,
      "y": 355,
      "size": 1,
      "price": "1011000000000000000000",
      "reserved": "",
      "salt": "0x02295a18f466ae939d45bf12c6686b560168fa92fa84d54c371da246b541431c",
      "assetIds": []
    },
    {
      "x": 282,
      "y": 356,
      "size": 1,
      "price": "1011000000000000000000",
      "reserved": "",
      "salt": "0x3ce5fa952906001442e7e45a15556ea5acc6adde84c519bad38cbe5af14e0921",
      "assetIds": []
    },
    {
      "x": 282,
      "y": 357,
      "size": 1,
      "price": "1011000000000000000000",
      "reserved": "",
      "salt": "0x4410854247584b40334b63e2a5e4a735701e3d2bb0034b505d33649e838042c3",
      "assetIds": []
    },
    {
      "x": 282,
      "y": 358,
      "size": 1,
      "price": "1011000000000000000000",
      "reserved": "",
      "salt": "0x58a31efd24a2e379cc227cb55a8c793151467c751526b3c531b47a629c731815",
      "assetIds": []
    },
    {
      "x": 282,
      "y": 359,
      "size": 1,
      "price": "4683000000000000000000",
      "reserved": "",
      "salt": "0x2ed44771f6e4e86bd20b80c3b9b35f691d4ae944c46c811bf748838210c1b707",
      "assetIds": [
        "55464657044963196816950587289035428064568320970692304673817341489687790884865",
        "55464657044963196816950587289035428064568320970692304673817341489687782494208",
        "55464657044963196816950587289035428064568320970692304673817341489687790884866",
        "55464657044963196816950587289035428064568320970692304673817341489687782494209",
        "55464657044963196816950587289035428064568320970692304673817341489687790884864"
      ]
    },
    {
      "x": 282,
      "y": 384,
      "size": 1,
      "price": "4683000000000000000000",
      "reserved": "",
      "salt": "0x9e7d00cc182f9fd2b8e9c56d3856f47dd6ff6e4d17a476e259310c7eb85e370d",
      "assetIds": [
        "55464657044963196816950587289035428064568320970692304673817341489687790884865",
        "55464657044963196816950587289035428064568320970692304673817341489687782494208",
        "55464657044963196816950587289035428064568320970692304673817341489687790884866",
        "55464657044963196816950587289035428064568320970692304673817341489687782494209",
        "55464657044963196816950587289035428064568320970692304673817341489687790884864"
      ]
    },
    {
      "x": 282,
      "y": 385,
      "size": 1,
      "price": "1011000000000000000000",
      "reserved": "",
      "salt": "0xaf9e771e46a54d0dbda9a2ea4cdcb00bfbe729c2ce475d3877a12af1443413a0",
      "assetIds": []
    },
    {
      "x": 282,
      "y": 386,
      "size": 1,
      "price": "1011000000000000000000",
      "reserved": "0x7a9fe22691c811ea339d9b73150e6911a5343dca",
      "salt": "0x3e06ef0f12836e54d2a2b753fad99926f82d345f0a3091d3314ef260ebdd8286",
      "assetIds": []
    },
    {
      "x": 283,
      "y": 336,
      "size": 1,
      "price": "1011000000000000000000",
      "reserved": "",
      "salt": "0xee6c91975f61ec43989de7e3a338b6ffaf5fcc38a2d5a10e14394d9862dc2dd2",
      "assetIds": []
    },
    {
      "x": 283,
      "y": 337,
      "size": 1,
      "price": "1011000000000000000000",
      "reserved": "",
      "salt": "0xb3295b09cbf8a40a0046467a1de9e5b0af3103728a2601a135512c76e3141f31",
      "assetIds": []
    },
    {
      "x": 283,
      "y": 338,
      "size": 1,
      "price": "1011000000000000000000",
      "reserved": "0x7a9fe22691c811ea339d9b73150e6911a5343dca",
      "salt": "0xa07b011c5fd2f393b4ec732c2f075db06a2a243b969d1afe8c86eef900ea33cf",
      "assetIds": []
    },
    {
      "x": 283,
      "y": 339,
      "size": 1,
      "price": "1011000000000000000000",
      "reserved": "0x7a9fe22691c811ea339d9b73150e6911a5343dca",
      "salt": "0x021eaef7156667b5a4e148bb1f8efd0095ad895b97a90a4e45a3ae6a03794d79",
      "assetIds": []
    },
    {
      "x": 283,
      "y": 340,
      "size": 1,
      "price": "1011000000000000000000",
      "reserved": "",
      "salt": "0x93cb12f0ae9db8133af97568160a467cf6f245bf7bdf0788c1e05cf4b2084104",
      "assetIds": []
    },
    {
      "x": 283,
      "y": 341,
      "size": 1,
      "price": "1011000000000000000000",
      "reserved": "0x7a9fe22691c811ea339d9b73150e6911a5343dca",
      "salt": "0xa7ca881cff94f718d19faa38bdfd7f42d60e8b1700e8e083566401baae43a99e",
      "assetIds": []
    },
    {
      "x": 283,
      "y": 342,
      "size": 1,
      "price": "1011000000000000000000",
      "reserved": "",
      "salt": "0x15c715cb4e17f1fa110ce89fdb7c01c56a3fd9c2f6233d8c33a59c71dcb66c74",
      "assetIds": []
    },
    {
      "x": 283,
      "y": 343,
      "size": 1,
      "price": "1011000000000000000000",
      "reserved": "",
      "salt": "0x8d7067dbcf8a08e4db2fe9037d948a570fbf999f9ac0e637865d32479ab97034",
      "assetIds": []
    },
    {
      "x": 283,
      "y": 344,
      "size": 1,
      "price": "1011000000000000000000",
      "reserved": "",
      "salt": "0x47cd717ce33787d5744cbb87b1a07bb96a20e8270d7fe7e745b5c4b4008e3fd6",
      "assetIds": []
    },
    {
      "x": 283,
      "y": 345,
      "size": 1,
      "price": "1011000000000000000000",
      "reserved": "",
      "salt": "0xc1b6b142dc55c12ed170e71578d04e4eb3972c9a0b1bbf6d7d718573b4b9d924",
      "assetIds": []
    },
    {
      "x": 283,
      "y": 346,
      "size": 1,
      "price": "1011000000000000000000",
      "reserved": "",
      "salt": "0x02acc2ff423963d21bc3f3594590b0fd8e31773438669415223f899b5a35a732",
      "assetIds": []
    },
    {
      "x": 283,
      "y": 347,
      "size": 1,
      "price": "1011000000000000000000",
      "reserved": "",
      "salt": "0x96e2a006735f33fc13154fe888b988cf9ce9616f7892c57185fa0a30ce77b202",
      "assetIds": []
    },
    {
      "x": 283,
      "y": 354,
      "size": 1,
      "price": "1011000000000000000000",
      "reserved": "0x7a9fe22691c811ea339d9b73150e6911a5343dca",
      "salt": "0x673fab5352b2fcc8bf0a24c05a0caef16f42a96f5b914c1c8c77e31cc4b22512",
      "assetIds": []
    },
    {
      "x": 283,
      "y": 355,
      "size": 1,
      "price": "1011000000000000000000",
      "reserved": "0x7a9fe22691c811ea339d9b73150e6911a5343dca",
      "salt": "0x9b4f3ab436bca6a71da6173d6a5c734946b866ef6b2a95c4e3d27c9aeccf0e18",
      "assetIds": []
    },
    {
      "x": 283,
      "y": 356,
      "size": 1,
      "price": "1011000000000000000000",
      "reserved": "",
      "salt": "0xfe70fe89858f790965e710f49cc8de770b020053954adff2ab2d6307f49d1022",
      "assetIds": []
    },
    {
      "x": 283,
      "y": 357,
      "size": 1,
      "price": "1011000000000000000000",
      "reserved": "",
      "salt": "0x8f85d5c8f5d27f790b8057589370e97438997f5a897fc19126240cf5091aa166",
      "assetIds": []
    },
    {
      "x": 283,
      "y": 358,
      "size": 1,
      "price": "1011000000000000000000",
      "reserved": "",
      "salt": "0xae5913c4c3eb55a4ffab165752842cb9000164ad603537f54db3bdc509b59666",
      "assetIds": []
    },
    {
      "x": 283,
      "y": 359,
      "size": 1,
      "price": "4683000000000000000000",
      "reserved": "",
      "salt": "0x590f2ba6863f3bd87cd8f4c92ebefec6ddb59620a80f19bf9766216f70eb8ee8",
      "assetIds": [
        "55464657044963196816950587289035428064568320970692304673817341489687790884865",
        "55464657044963196816950587289035428064568320970692304673817341489687782494208",
        "55464657044963196816950587289035428064568320970692304673817341489687790884866",
        "55464657044963196816950587289035428064568320970692304673817341489687782494209",
        "55464657044963196816950587289035428064568320970692304673817341489687790884864"
      ]
    },
    {
      "x": 283,
      "y": 384,
      "size": 1,
      "price": "4683000000000000000000",
      "reserved": "",
      "salt": "0x47161f95cce58c052f929c654387f64bf44f58d63e6e6a8347379df00fbf5174",
      "assetIds": [
        "55464657044963196816950587289035428064568320970692304673817341489687790884865",
        "55464657044963196816950587289035428064568320970692304673817341489687782494208",
        "55464657044963196816950587289035428064568320970692304673817341489687790884866",
        "55464657044963196816950587289035428064568320970692304673817341489687782494209",
        "55464657044963196816950587289035428064568320970692304673817341489687790884864"
      ]
    },
    {
      "x": 283,
      "y": 385,
      "size": 1,
      "price": "1011000000000000000000",
      "reserved": "",
      "salt": "0xba11d38b533d3a212e9b0c09f8eb10a5f4d55fd43e8690f8e136c816d3925a30",
      "assetIds": []
    },
    {
      "x": 283,
      "y": 386,
      "size": 1,
      "price": "1011000000000000000000",
      "reserved": "0x7a9fe22691c811ea339d9b73150e6911a5343dca",
      "salt": "0x207919d04685f7aeb082020f124e266c903372b67ea250ceab15027353012ab8",
      "assetIds": []
    },
    {
      "x": 284,
      "y": 336,
      "size": 1,
      "price": "1011000000000000000000",
      "reserved": "",
      "salt": "0x6c523b1b9d0fcc696fb5c2d32ec902730e26401af1c9d6fdcd6eac38db812597",
      "assetIds": []
    },
    {
      "x": 284,
      "y": 337,
      "size": 1,
      "price": "1011000000000000000000",
      "reserved": "",
      "salt": "0x9087c2734982db74851bdf6eaeac12d1ebc1280cc906aec0b1e517d8f62bb3e6",
      "assetIds": []
    },
    {
      "x": 284,
      "y": 338,
      "size": 1,
      "price": "1011000000000000000000",
      "reserved": "",
      "salt": "0x2fb3ce924c275d5131be5fe752f87df103f018760ec543f3a620f44e5575340c",
      "assetIds": []
    },
    {
      "x": 284,
      "y": 339,
      "size": 1,
      "price": "1011000000000000000000",
      "reserved": "",
      "salt": "0xb56edddb880df7fea5bb304705dc1d7121ac494d523915df70678cc11208855b",
      "assetIds": []
    },
    {
      "x": 284,
      "y": 340,
      "size": 1,
      "price": "1011000000000000000000",
      "reserved": "",
      "salt": "0xd1557f3e4227c4e8430c4fa029cbf79ef3a105e3c351659f60e337a0c08060c3",
      "assetIds": []
    },
    {
      "x": 284,
      "y": 341,
      "size": 1,
      "price": "1011000000000000000000",
      "reserved": "",
      "salt": "0xc02ab462cde46e6bb9995be395825d828bdd55c2b7eab52a93a0fa1523d41ea3",
      "assetIds": []
    },
    {
      "x": 284,
      "y": 342,
      "size": 1,
      "price": "1011000000000000000000",
      "reserved": "",
      "salt": "0xa9147d32d0ffd0632c8e26ef8664a9924803ac4729a79462ea146bc907865888",
      "assetIds": []
    },
    {
      "x": 284,
      "y": 343,
      "size": 1,
      "price": "1011000000000000000000",
      "reserved": "",
      "salt": "0x18f4f4a5bb086e102a465e3a7bde6cf5288ee96fa4aa17adf72be3b845bbac12",
      "assetIds": []
    },
    {
      "x": 284,
      "y": 344,
      "size": 1,
      "price": "1011000000000000000000",
      "reserved": "",
      "salt": "0xd5f22fd34c2e1f7e80c68a2b43a158b4165c58053b6e36d767a1b423672b6d37",
      "assetIds": []
    },
    {
      "x": 284,
      "y": 345,
      "size": 1,
      "price": "1011000000000000000000",
      "reserved": "",
      "salt": "0x27f46f9cefd2ab6a93f20568c0ae52cd0711807d1ada7aa0a3f43f2942955d6b",
      "assetIds": []
    },
    {
      "x": 284,
      "y": 346,
      "size": 1,
      "price": "1011000000000000000000",
      "reserved": "",
      "salt": "0x62d4d1fc27c5f4ed94ef4ba4966599cef1b18e347b7efc2a3c4ac36686136e2d",
      "assetIds": []
    },
    {
      "x": 284,
      "y": 347,
      "size": 1,
      "price": "1011000000000000000000",
      "reserved": "",
      "salt": "0x2af6f23261e4181aa096b433cef4d3d5c832d7a0ac083ac590c4467dd610e784",
      "assetIds": []
    },
    {
      "x": 284,
      "y": 354,
      "size": 1,
      "price": "1011000000000000000000",
      "reserved": "",
      "salt": "0x484c057a718cd1482f7457923ceca0b149d90490576d8b1f163189a4f865247a",
      "assetIds": []
    },
    {
      "x": 284,
      "y": 355,
      "size": 1,
      "price": "1011000000000000000000",
      "reserved": "",
      "salt": "0x6871de38a676f53d95d17e31b6208f6bdf646e7513b831866237eddde2cbfc16",
      "assetIds": []
    },
    {
      "x": 284,
      "y": 356,
      "size": 1,
      "price": "1011000000000000000000",
      "reserved": "",
      "salt": "0xb16699df0ca01a8ca3614d11943eff8a66718f78b4bf9ceb490e1c5097da0bb2",
      "assetIds": []
    },
    {
      "x": 284,
      "y": 357,
      "size": 1,
      "price": "1011000000000000000000",
      "reserved": "",
      "salt": "0xa3c58717bb2dc006a557e91cd59b1b8d10df872e267103fa9bb39aafbd42f231",
      "assetIds": []
    },
    {
      "x": 284,
      "y": 358,
      "size": 1,
      "price": "1011000000000000000000",
      "reserved": "",
      "salt": "0x8285622a9e8f9840f60f6d485df1f45791260f3e22e38a63019fbd43f303058e",
      "assetIds": []
    },
    {
      "x": 284,
      "y": 359,
      "size": 1,
      "price": "4683000000000000000000",
      "reserved": "",
      "salt": "0x681ddaeb51035c6a36b9a2ae57d814330455c65491f36e7aecc2b37d4a9c6b38",
      "assetIds": [
        "55464657044963196816950587289035428064568320970692304673817341489687790884865",
        "55464657044963196816950587289035428064568320970692304673817341489687782494208",
        "55464657044963196816950587289035428064568320970692304673817341489687790884866",
        "55464657044963196816950587289035428064568320970692304673817341489687782494209",
        "55464657044963196816950587289035428064568320970692304673817341489687790884864"
      ]
    },
    {
      "x": 284,
      "y": 384,
      "size": 1,
      "price": "4683000000000000000000",
      "reserved": "",
      "salt": "0xa656c38cbc86530b596609dbb930bbbfe94ea488f48abac012630273e4855de2",
      "assetIds": [
        "55464657044963196816950587289035428064568320970692304673817341489687790884865",
        "55464657044963196816950587289035428064568320970692304673817341489687782494208",
        "55464657044963196816950587289035428064568320970692304673817341489687790884866",
        "55464657044963196816950587289035428064568320970692304673817341489687782494209",
        "55464657044963196816950587289035428064568320970692304673817341489687790884864"
      ]
    },
    {
      "x": 284,
      "y": 385,
      "size": 1,
      "price": "1011000000000000000000",
      "reserved": "",
      "salt": "0x92a6f207254f36e482e53b97c40327f7371e747450379ec2521ba51fff889efe",
      "assetIds": []
    },
    {
      "x": 284,
      "y": 386,
      "size": 1,
      "price": "1011000000000000000000",
      "reserved": "0x7a9fe22691c811ea339d9b73150e6911a5343dca",
      "salt": "0x2b8aa4c0760b22957ddef7e0636e5356670e2badce379a42189d0ffb3e415c84",
      "assetIds": []
    },
    {
      "x": 285,
      "y": 336,
      "size": 1,
      "price": "1011000000000000000000",
      "reserved": "",
      "salt": "0xceb59adc489173fee8b83bdcd0dbf4dbdc12361579c88c0297fb4eb6fb2caf95",
      "assetIds": []
    },
    {
      "x": 285,
      "y": 337,
      "size": 1,
      "price": "1011000000000000000000",
      "reserved": "",
      "salt": "0x19409faa8a345663392f9494a46b406869263a19c07e35e8620575ff7e12301e",
      "assetIds": []
    },
    {
      "x": 285,
      "y": 338,
      "size": 1,
      "price": "1011000000000000000000",
      "reserved": "",
      "salt": "0x5e81c7ed7668ea6a95a761ac89c70beab96c26d7e4204e914e856c2855d135e0",
      "assetIds": []
    },
    {
      "x": 285,
      "y": 339,
      "size": 1,
      "price": "1011000000000000000000",
      "reserved": "",
      "salt": "0xa998f5190e5e7e662579ce4cd3c147ec4708413fba2f065902d1ae677ec2a6e4",
      "assetIds": []
    },
    {
      "x": 285,
      "y": 340,
      "size": 1,
      "price": "1011000000000000000000",
      "reserved": "",
      "salt": "0x190ce9b54b76ca39555ad96a0c40269316bbfc8b2a808f5b7a57421284d6348a",
      "assetIds": []
    },
    {
      "x": 285,
      "y": 341,
      "size": 1,
      "price": "1011000000000000000000",
      "reserved": "",
      "salt": "0x10eb281cd247b29da446096de94ee5028814c5130971d856a17c04cca7a92c35",
      "assetIds": []
    },
    {
      "x": 285,
      "y": 342,
      "size": 1,
      "price": "1011000000000000000000",
      "reserved": "",
      "salt": "0x42982c0d27ce067d3d2ac5eaf78b9d9b5f2d163f68de8408cfa39bfebeff2039",
      "assetIds": []
    },
    {
      "x": 285,
      "y": 343,
      "size": 1,
      "price": "1011000000000000000000",
      "reserved": "",
      "salt": "0x88d4a75f84b6acc717aba385a379295dad890a4e43e59283f5c3aab7ef04bc1f",
      "assetIds": []
    },
    {
      "x": 285,
      "y": 344,
      "size": 1,
      "price": "1011000000000000000000",
      "reserved": "",
      "salt": "0xf322ada4ea9c3f5270ce0a691f8f6ea82f420f4093f999706a4c8cd80ad4d482",
      "assetIds": []
    },
    {
      "x": 285,
      "y": 354,
      "size": 1,
      "price": "1011000000000000000000",
      "reserved": "0x7a9fe22691c811ea339d9b73150e6911a5343dca",
      "salt": "0x1e9bc9021edb0748f9c6a08f6fa7a0d5ef821c666905130f917a4b075779499f",
      "assetIds": []
    },
    {
      "x": 285,
      "y": 355,
      "size": 1,
      "price": "1011000000000000000000",
      "reserved": "",
      "salt": "0x0ec4f920d84401dc9a6822cfa560f934b1372b75db5e9df5ee7243f87903b6d4",
      "assetIds": []
    },
    {
      "x": 285,
      "y": 356,
      "size": 1,
      "price": "1011000000000000000000",
      "reserved": "",
      "salt": "0xd808cc4edd2a769703e2cba9c57952937f6065df7a0d00f1b1b1cc4683ffaab5",
      "assetIds": []
    },
    {
      "x": 285,
      "y": 357,
      "size": 1,
      "price": "1011000000000000000000",
      "reserved": "",
      "salt": "0x0204c234a18f523475b38ba48d5fa46d738b13027fc2da0bf36fd9f677c6339d",
      "assetIds": []
    },
    {
      "x": 285,
      "y": 358,
      "size": 1,
      "price": "1011000000000000000000",
      "reserved": "",
      "salt": "0x68c7b61c25c408c3a8af9372967e703f4fce5b415cdb51c9c3ad437fad1e1b9e",
      "assetIds": []
    },
    {
      "x": 285,
      "y": 359,
      "size": 1,
      "price": "4683000000000000000000",
      "reserved": "",
      "salt": "0x9cedc57849c1bbe3546a2e8bd6d2359ef4476cd3d37ee270072bf959e7388aca",
      "assetIds": [
        "55464657044963196816950587289035428064568320970692304673817341489687790884865",
        "55464657044963196816950587289035428064568320970692304673817341489687782494208",
        "55464657044963196816950587289035428064568320970692304673817341489687790884866",
        "55464657044963196816950587289035428064568320970692304673817341489687782494209",
        "55464657044963196816950587289035428064568320970692304673817341489687790884864"
      ]
    },
    {
      "x": 285,
      "y": 384,
      "size": 1,
      "price": "4683000000000000000000",
      "reserved": "",
      "salt": "0x702241d1aa1d55e6de5021e9dd31517c406d1cbc825e962051624cf06f353e4e",
      "assetIds": [
        "55464657044963196816950587289035428064568320970692304673817341489687790884865",
        "55464657044963196816950587289035428064568320970692304673817341489687782494208",
        "55464657044963196816950587289035428064568320970692304673817341489687790884866",
        "55464657044963196816950587289035428064568320970692304673817341489687782494209",
        "55464657044963196816950587289035428064568320970692304673817341489687790884864"
      ]
    },
    {
      "x": 285,
      "y": 385,
      "size": 1,
      "price": "1011000000000000000000",
      "reserved": "",
      "salt": "0x25a683edd644f0a335a6574902e54d27253fcafeadb0ec8b8aba104da5c62e19",
      "assetIds": []
    },
    {
      "x": 286,
      "y": 336,
      "size": 1,
      "price": "1011000000000000000000",
      "reserved": "0x7a9fe22691c811ea339d9b73150e6911a5343dca",
      "salt": "0xee3bc3a10f5b8a7afce3f903412c91103412fd953b3923c250575fe0519b1fa0",
      "assetIds": []
    },
    {
      "x": 286,
      "y": 337,
      "size": 1,
      "price": "1011000000000000000000",
      "reserved": "",
      "salt": "0x61c9a25e8a3e39be9ee484c24839b34f84dbe40c760133ea3974610249472d1d",
      "assetIds": []
    },
    {
      "x": 286,
      "y": 338,
      "size": 1,
      "price": "1011000000000000000000",
      "reserved": "",
      "salt": "0x19afe10360fa8b4d17192346027ccd49aac5ae6ee28cd0ef21187efa96072c9d",
      "assetIds": []
    },
    {
      "x": 286,
      "y": 339,
      "size": 1,
      "price": "1011000000000000000000",
      "reserved": "",
      "salt": "0x5e95e9fe1ad764d0369149e0347ef150a87bec1938f9da23939aa0b1810006da",
      "assetIds": []
    },
    {
      "x": 286,
      "y": 340,
      "size": 1,
      "price": "1011000000000000000000",
      "reserved": "",
      "salt": "0x9f2bf27c09d0845cd3f66a5bb6106ac886806d9d6d65c74259e56866a92c1862",
      "assetIds": []
    },
    {
      "x": 286,
      "y": 341,
      "size": 1,
      "price": "1011000000000000000000",
      "reserved": "",
      "salt": "0xefa170dd125d8c3bd413fe30a0ec31542b40cb543190ad90fe5b92a23e714924",
      "assetIds": []
    },
    {
      "x": 286,
      "y": 342,
      "size": 1,
      "price": "1011000000000000000000",
      "reserved": "",
      "salt": "0xbed17e20ea271a3f85c6ec828ebc12a0238eeae51d5d7a178e60b7d0608e641d",
      "assetIds": []
    },
    {
      "x": 286,
      "y": 343,
      "size": 1,
      "price": "1011000000000000000000",
      "reserved": "",
      "salt": "0xa79d6e53d7d24079f18c56cebf1b5f13fb7f40c94520965dbcb727f726b1fbd8",
      "assetIds": []
    },
    {
      "x": 286,
      "y": 344,
      "size": 1,
      "price": "1011000000000000000000",
      "reserved": "",
      "salt": "0xd1b47b7e0b955e54852a204646dcd63023db41fa05c4bd2674e087e643a08179",
      "assetIds": []
    },
    {
      "x": 286,
      "y": 354,
      "size": 1,
      "price": "1011000000000000000000",
      "reserved": "0x7a9fe22691c811ea339d9b73150e6911a5343dca",
      "salt": "0x4cba4fb89592a692f4ad76fd28dddc0e61108420dc75499ef93a41a750e3083c",
      "assetIds": []
    },
    {
      "x": 286,
      "y": 355,
      "size": 1,
      "price": "1011000000000000000000",
      "reserved": "",
      "salt": "0x8dfbb4fe73229b499f06a8abebb60de10b766df260916431a3c544068c6041d1",
      "assetIds": []
    },
    {
      "x": 286,
      "y": 356,
      "size": 1,
      "price": "1011000000000000000000",
      "reserved": "",
      "salt": "0x80f1cad39fcca30229268138ff6b26629b626efdd3975c44751d86e7c7c72e9f",
      "assetIds": []
    },
    {
      "x": 286,
      "y": 357,
      "size": 1,
      "price": "1011000000000000000000",
      "reserved": "0x7a9fe22691c811ea339d9b73150e6911a5343dca",
      "salt": "0x927fd777b4713ebea1a15aa4746c45dc009b5b34811e4a6b1562a663661093ff",
      "assetIds": []
    },
    {
      "x": 286,
      "y": 358,
      "size": 1,
      "price": "4683000000000000000000",
      "reserved": "",
      "salt": "0x30d1224c38c8159ad3b9091607d3b44fc8c132594c603d0f23ab15724bab0d5b",
      "assetIds": [
        "55464657044963196816950587289035428064568320970692304673817341489687790884865",
        "55464657044963196816950587289035428064568320970692304673817341489687782494208",
        "55464657044963196816950587289035428064568320970692304673817341489687790884866",
        "55464657044963196816950587289035428064568320970692304673817341489687782494209",
        "55464657044963196816950587289035428064568320970692304673817341489687790884864"
      ]
    },
    {
      "x": 286,
      "y": 359,
      "size": 1,
      "price": "4683000000000000000000",
      "reserved": "",
      "salt": "0x036570ce4d19205bafa0e5936000160241978dcc6b1163a126403e499404ba15",
      "assetIds": [
        "55464657044963196816950587289035428064568320970692304673817341489687790884865",
        "55464657044963196816950587289035428064568320970692304673817341489687782494208",
        "55464657044963196816950587289035428064568320970692304673817341489687790884866",
        "55464657044963196816950587289035428064568320970692304673817341489687782494209",
        "55464657044963196816950587289035428064568320970692304673817341489687790884864"
      ]
    },
    {
      "x": 286,
      "y": 384,
      "size": 1,
      "price": "4683000000000000000000",
      "reserved": "",
      "salt": "0x6abb6eea8071220e76773a18cd28500e7852212dbaa3de18dc007f0d130c3b92",
      "assetIds": [
        "55464657044963196816950587289035428064568320970692304673817341489687790884865",
        "55464657044963196816950587289035428064568320970692304673817341489687782494208",
        "55464657044963196816950587289035428064568320970692304673817341489687790884866",
        "55464657044963196816950587289035428064568320970692304673817341489687782494209",
        "55464657044963196816950587289035428064568320970692304673817341489687790884864"
      ]
    },
    {
      "x": 286,
      "y": 385,
      "size": 1,
      "price": "1011000000000000000000",
      "reserved": "",
      "salt": "0xbf026d83413a481dfa4e69339091ad7cbb58aba87d870f0983d8842783923700",
      "assetIds": []
    },
    {
      "x": 287,
      "y": 336,
      "size": 1,
      "price": "1011000000000000000000",
      "reserved": "0x7a9fe22691c811ea339d9b73150e6911a5343dca",
      "salt": "0xe490d5c54f1fd9396f44d79bdbee6935dddd1d968724038505bde596afd7b0f6",
      "assetIds": []
    },
    {
      "x": 287,
      "y": 337,
      "size": 1,
      "price": "1011000000000000000000",
      "reserved": "0x7a9fe22691c811ea339d9b73150e6911a5343dca",
      "salt": "0x7c9f7bc2c46da49ca04f3ab002938872eb742d79d724937b0a2ffd45fd905205",
      "assetIds": []
    },
    {
      "x": 287,
      "y": 338,
      "size": 1,
      "price": "1011000000000000000000",
      "reserved": "",
      "salt": "0x67a7bfcfe0d53456fdd3da39308975a8a2090295a2796f1ef58685da74a06966",
      "assetIds": []
    },
    {
      "x": 287,
      "y": 339,
      "size": 1,
      "price": "1011000000000000000000",
      "reserved": "",
      "salt": "0x4dc08c2b2d7fd44a0ae87b9a374920632685b95fd87d4dc97eb31022c7eddc49",
      "assetIds": []
    },
    {
      "x": 287,
      "y": 340,
      "size": 1,
      "price": "1011000000000000000000",
      "reserved": "",
      "salt": "0xefced0fbf17609ba0f7e57ec83128529c20cdd44e831e802d5d490b7e26eb7b5",
      "assetIds": []
    },
    {
      "x": 287,
      "y": 341,
      "size": 1,
      "price": "1011000000000000000000",
      "reserved": "0x7a9fe22691c811ea339d9b73150e6911a5343dca",
      "salt": "0xf18d767a78eaee19169e5233efc9b1c6c09aaa9ae2fb9d88b896c51a78197eb8",
      "assetIds": []
    },
    {
      "x": 287,
      "y": 342,
      "size": 1,
      "price": "1011000000000000000000",
      "reserved": "",
      "salt": "0xac7464ce0b833d4d87d88dc490c6f083dda752c7bf21895b648d478dc5cef290",
      "assetIds": []
    },
    {
      "x": 287,
      "y": 343,
      "size": 1,
      "price": "1011000000000000000000",
      "reserved": "",
      "salt": "0x2083f224d65aa2f82bc9b97d9dcd6b5929c5840d4c3d53145ccf0522615f299b",
      "assetIds": []
    },
    {
      "x": 287,
      "y": 344,
      "size": 1,
      "price": "1011000000000000000000",
      "reserved": "",
      "salt": "0x5eccf72f57f210f86d73c2f68d0fe93921135d14b186e21f393118c4f4a2d985",
      "assetIds": []
    },
    {
      "x": 287,
      "y": 354,
      "size": 1,
      "price": "1011000000000000000000",
      "reserved": "",
      "salt": "0x28ccc8bb8c9caf841bb795a160c8320036497ce442cf9adb49d8e01b67f73248",
      "assetIds": []
    },
    {
      "x": 287,
      "y": 355,
      "size": 1,
      "price": "1011000000000000000000",
      "reserved": "0x7a9fe22691c811ea339d9b73150e6911a5343dca",
      "salt": "0xfe72dba17617a445caaed6df023034704bff51387b1aabc8ab83f1b05af824a3",
      "assetIds": []
    },
    {
      "x": 287,
      "y": 356,
      "size": 1,
      "price": "1011000000000000000000",
      "reserved": "",
      "salt": "0xf56a26b4b4075545b5f964e4d8c55dd35577b830c901a94a25b3ce5ac22cab9e",
      "assetIds": []
    },
    {
      "x": 287,
      "y": 357,
      "size": 1,
      "price": "1011000000000000000000",
      "reserved": "",
      "salt": "0x5463dd451ce850ad71e6b09e358fb7df77b62e1a81361fd8eda0e3914de418f0",
      "assetIds": []
    },
    {
      "x": 287,
      "y": 358,
      "size": 1,
      "price": "4683000000000000000000",
      "reserved": "",
      "salt": "0xeedad2a97c70458e2985d8310f149fbc0d5426b9263c34c1b316623e3d774703",
      "assetIds": [
        "55464657044963196816950587289035428064568320970692304673817341489687790884865",
        "55464657044963196816950587289035428064568320970692304673817341489687782494208",
        "55464657044963196816950587289035428064568320970692304673817341489687790884866",
        "55464657044963196816950587289035428064568320970692304673817341489687782494209",
        "55464657044963196816950587289035428064568320970692304673817341489687790884864"
      ]
    },
    {
      "x": 287,
      "y": 359,
      "size": 1,
      "price": "4683000000000000000000",
      "reserved": "",
      "salt": "0x0fe4f0b24861774b8fd1fc0cb85f5384eb5e0a0c398a5f50beab601bca29d5ff",
      "assetIds": [
        "55464657044963196816950587289035428064568320970692304673817341489687790884865",
        "55464657044963196816950587289035428064568320970692304673817341489687782494208",
        "55464657044963196816950587289035428064568320970692304673817341489687790884866",
        "55464657044963196816950587289035428064568320970692304673817341489687782494209",
        "55464657044963196816950587289035428064568320970692304673817341489687790884864"
      ]
    },
    {
      "x": 287,
      "y": 384,
      "size": 1,
      "price": "4683000000000000000000",
      "reserved": "",
      "salt": "0xe1e6ae91c731b3bd0864874084d2652c074fe304b55e73c1c9e0eea247117729",
      "assetIds": [
        "55464657044963196816950587289035428064568320970692304673817341489687790884865",
        "55464657044963196816950587289035428064568320970692304673817341489687782494208",
        "55464657044963196816950587289035428064568320970692304673817341489687790884866",
        "55464657044963196816950587289035428064568320970692304673817341489687782494209",
        "55464657044963196816950587289035428064568320970692304673817341489687790884864"
      ]
    },
    {
      "x": 287,
      "y": 385,
      "size": 1,
      "price": "1011000000000000000000",
      "reserved": "",
      "salt": "0x9c86f854ff489b92e56f69e7c62b470b055dfb2dea37389aefa4c416b1e8df02",
      "assetIds": []
    },
    {
      "x": 288,
      "y": 360,
      "size": 1,
      "price": "4683000000000000000000",
      "reserved": "",
      "salt": "0xefaf9671b4518219585b6958a98b8850bf6328948cb7ba6405109003b5ad1e76",
      "assetIds": [
        "55464657044963196816950587289035428064568320970692304673817341489687790884865",
        "55464657044963196816950587289035428064568320970692304673817341489687782494208",
        "55464657044963196816950587289035428064568320970692304673817341489687790884866",
        "55464657044963196816950587289035428064568320970692304673817341489687782494209",
        "55464657044963196816950587289035428064568320970692304673817341489687790884864"
      ]
    },
    {
      "x": 288,
      "y": 361,
      "size": 1,
      "price": "4683000000000000000000",
      "reserved": "",
      "salt": "0xc16e1d6195ecfc0f1029c6bd27c229c334d25fea3d3e5f3d64790df93701cf91",
      "assetIds": [
        "55464657044963196816950587289035428064568320970692304673817341489687790884865",
        "55464657044963196816950587289035428064568320970692304673817341489687782494208",
        "55464657044963196816950587289035428064568320970692304673817341489687790884866",
        "55464657044963196816950587289035428064568320970692304673817341489687782494209",
        "55464657044963196816950587289035428064568320970692304673817341489687790884864"
      ]
    },
    {
      "x": 288,
      "y": 362,
      "size": 1,
      "price": "4683000000000000000000",
      "reserved": "",
      "salt": "0x82e8a0951aa2c1918cdfff9e5c4a1bb7be787d1f92ab7b8cb76dd4ea8de1a946",
      "assetIds": [
        "55464657044963196816950587289035428064568320970692304673817341489687790884865",
        "55464657044963196816950587289035428064568320970692304673817341489687782494208",
        "55464657044963196816950587289035428064568320970692304673817341489687790884866",
        "55464657044963196816950587289035428064568320970692304673817341489687782494209",
        "55464657044963196816950587289035428064568320970692304673817341489687790884864"
      ]
    },
    {
      "x": 288,
      "y": 363,
      "size": 1,
      "price": "4683000000000000000000",
      "reserved": "",
      "salt": "0x81d217275f1ccd56297e603e1111d765b1cef0f1c626132c27d213be4aa3f7aa",
      "assetIds": [
        "55464657044963196816950587289035428064568320970692304673817341489687790884865",
        "55464657044963196816950587289035428064568320970692304673817341489687782494208",
        "55464657044963196816950587289035428064568320970692304673817341489687790884866",
        "55464657044963196816950587289035428064568320970692304673817341489687782494209",
        "55464657044963196816950587289035428064568320970692304673817341489687790884864"
      ]
    },
    {
      "x": 288,
      "y": 364,
      "size": 1,
      "price": "4683000000000000000000",
      "reserved": "",
      "salt": "0xe29197953eebd4d8d66517bc01e4a4b5cf8c9e52f2fa37b47ad4529939d8cc72",
      "assetIds": [
        "55464657044963196816950587289035428064568320970692304673817341489687790884865",
        "55464657044963196816950587289035428064568320970692304673817341489687782494208",
        "55464657044963196816950587289035428064568320970692304673817341489687790884866",
        "55464657044963196816950587289035428064568320970692304673817341489687782494209",
        "55464657044963196816950587289035428064568320970692304673817341489687790884864"
      ]
    },
    {
      "x": 288,
      "y": 365,
      "size": 1,
      "price": "4683000000000000000000",
      "reserved": "",
      "salt": "0x9595eab691744e0fb5068cbfb3ab33b53fdc85180233b636937836a56595bc5b",
      "assetIds": [
        "55464657044963196816950587289035428064568320970692304673817341489687790884865",
        "55464657044963196816950587289035428064568320970692304673817341489687782494208",
        "55464657044963196816950587289035428064568320970692304673817341489687790884866",
        "55464657044963196816950587289035428064568320970692304673817341489687782494209",
        "55464657044963196816950587289035428064568320970692304673817341489687790884864"
      ]
    },
    {
      "x": 288,
      "y": 366,
      "size": 1,
      "price": "4683000000000000000000",
      "reserved": "",
      "salt": "0x85570c4dd7dd259759446bf11bca4dca4b8d6e09457ac6e6cbbd32d9aa27041e",
      "assetIds": [
        "55464657044963196816950587289035428064568320970692304673817341489687790884865",
        "55464657044963196816950587289035428064568320970692304673817341489687782494208",
        "55464657044963196816950587289035428064568320970692304673817341489687790884866",
        "55464657044963196816950587289035428064568320970692304673817341489687782494209",
        "55464657044963196816950587289035428064568320970692304673817341489687790884864"
      ]
    },
    {
      "x": 288,
      "y": 367,
      "size": 1,
      "price": "4683000000000000000000",
      "reserved": "",
      "salt": "0xda02f4b1095b25c89b55f11f78ab9e8f653c6cc8a6f0e14f3a9ec92c1abd7893",
      "assetIds": [
        "55464657044963196816950587289035428064568320970692304673817341489687790884865",
        "55464657044963196816950587289035428064568320970692304673817341489687782494208",
        "55464657044963196816950587289035428064568320970692304673817341489687790884866",
        "55464657044963196816950587289035428064568320970692304673817341489687782494209",
        "55464657044963196816950587289035428064568320970692304673817341489687790884864"
      ]
    },
    {
      "x": 288,
      "y": 368,
      "size": 1,
      "price": "4683000000000000000000",
      "reserved": "",
      "salt": "0x2622b70b7c6d359b497f5d20f9277aa8cd6a337e149397ff07d7857fddbdd96f",
      "assetIds": [
        "55464657044963196816950587289035428064568320970692304673817341489687790884865",
        "55464657044963196816950587289035428064568320970692304673817341489687782494208",
        "55464657044963196816950587289035428064568320970692304673817341489687790884866",
        "55464657044963196816950587289035428064568320970692304673817341489687782494209",
        "55464657044963196816950587289035428064568320970692304673817341489687790884864"
      ]
    },
    {
      "x": 288,
      "y": 369,
      "size": 1,
      "price": "4683000000000000000000",
      "reserved": "",
      "salt": "0x0edcf0a226cd6e59fb60aaa00d5136b1ca6da87f8e2fb63dda72f62076b7c3a0",
      "assetIds": [
        "55464657044963196816950587289035428064568320970692304673817341489687790884865",
        "55464657044963196816950587289035428064568320970692304673817341489687782494208",
        "55464657044963196816950587289035428064568320970692304673817341489687790884866",
        "55464657044963196816950587289035428064568320970692304673817341489687782494209",
        "55464657044963196816950587289035428064568320970692304673817341489687790884864"
      ]
    },
    {
      "x": 288,
      "y": 370,
      "size": 1,
      "price": "4683000000000000000000",
      "reserved": "",
      "salt": "0x2650f1162c49229c75886756d8e2f0cec0c068652b37e0abd1c183e6c3a13518",
      "assetIds": [
        "55464657044963196816950587289035428064568320970692304673817341489687790884865",
        "55464657044963196816950587289035428064568320970692304673817341489687782494208",
        "55464657044963196816950587289035428064568320970692304673817341489687790884866",
        "55464657044963196816950587289035428064568320970692304673817341489687782494209",
        "55464657044963196816950587289035428064568320970692304673817341489687790884864"
      ]
    },
    {
      "x": 288,
      "y": 371,
      "size": 1,
      "price": "4683000000000000000000",
      "reserved": "",
      "salt": "0xf7b3cae06cfb7d3c3870b0d60aaf3e81b9a13d2b723c886e84324e5f3be73bb2",
      "assetIds": [
        "55464657044963196816950587289035428064568320970692304673817341489687790884865",
        "55464657044963196816950587289035428064568320970692304673817341489687782494208",
        "55464657044963196816950587289035428064568320970692304673817341489687790884866",
        "55464657044963196816950587289035428064568320970692304673817341489687782494209",
        "55464657044963196816950587289035428064568320970692304673817341489687790884864"
      ]
    },
    {
      "x": 288,
      "y": 372,
      "size": 1,
      "price": "4683000000000000000000",
      "reserved": "",
      "salt": "0x75631350c80a140833c63ddc060f9cdda9f20608da55d7739d599424f00b4c1d",
      "assetIds": [
        "55464657044963196816950587289035428064568320970692304673817341489687790884865",
        "55464657044963196816950587289035428064568320970692304673817341489687782494208",
        "55464657044963196816950587289035428064568320970692304673817341489687790884866",
        "55464657044963196816950587289035428064568320970692304673817341489687782494209",
        "55464657044963196816950587289035428064568320970692304673817341489687790884864"
      ]
    },
    {
      "x": 288,
      "y": 373,
      "size": 1,
      "price": "4683000000000000000000",
      "reserved": "",
      "salt": "0x78f0245525bd2e25f951b4697922ba046dd7b8e4bdc95157c3863c03c8703c4b",
      "assetIds": [
        "55464657044963196816950587289035428064568320970692304673817341489687790884865",
        "55464657044963196816950587289035428064568320970692304673817341489687782494208",
        "55464657044963196816950587289035428064568320970692304673817341489687790884866",
        "55464657044963196816950587289035428064568320970692304673817341489687782494209",
        "55464657044963196816950587289035428064568320970692304673817341489687790884864"
      ]
    },
    {
      "x": 288,
      "y": 374,
      "size": 1,
      "price": "4683000000000000000000",
      "reserved": "",
      "salt": "0x2de2e7837ff92fd9bc0af87e654302ea86b031842f3d3b33c782ac0f95eb3ad4",
      "assetIds": [
        "55464657044963196816950587289035428064568320970692304673817341489687790884865",
        "55464657044963196816950587289035428064568320970692304673817341489687782494208",
        "55464657044963196816950587289035428064568320970692304673817341489687790884866",
        "55464657044963196816950587289035428064568320970692304673817341489687782494209",
        "55464657044963196816950587289035428064568320970692304673817341489687790884864"
      ]
    },
    {
      "x": 288,
      "y": 375,
      "size": 1,
      "price": "4683000000000000000000",
      "reserved": "",
      "salt": "0xd0b368a52eb2365a4df7594484b6c504743f26b4344aa2cef922bd466d734cd2",
      "assetIds": [
        "55464657044963196816950587289035428064568320970692304673817341489687790884865",
        "55464657044963196816950587289035428064568320970692304673817341489687782494208",
        "55464657044963196816950587289035428064568320970692304673817341489687790884866",
        "55464657044963196816950587289035428064568320970692304673817341489687782494209",
        "55464657044963196816950587289035428064568320970692304673817341489687790884864"
      ]
    },
    {
      "x": 288,
      "y": 376,
      "size": 1,
      "price": "4683000000000000000000",
      "reserved": "",
      "salt": "0x8998d542375595dd9fe90de7cd772c939201c14a63ab40144fd0f7ea3d9d8763",
      "assetIds": [
        "55464657044963196816950587289035428064568320970692304673817341489687790884865",
        "55464657044963196816950587289035428064568320970692304673817341489687782494208",
        "55464657044963196816950587289035428064568320970692304673817341489687790884866",
        "55464657044963196816950587289035428064568320970692304673817341489687782494209",
        "55464657044963196816950587289035428064568320970692304673817341489687790884864"
      ]
    },
    {
      "x": 288,
      "y": 377,
      "size": 1,
      "price": "4683000000000000000000",
      "reserved": "",
      "salt": "0xbc956e00c92880db12d48da22f0262234fbf7a73d4f8e0eb4c5a80ee0ece837d",
      "assetIds": [
        "55464657044963196816950587289035428064568320970692304673817341489687790884865",
        "55464657044963196816950587289035428064568320970692304673817341489687782494208",
        "55464657044963196816950587289035428064568320970692304673817341489687790884866",
        "55464657044963196816950587289035428064568320970692304673817341489687782494209",
        "55464657044963196816950587289035428064568320970692304673817341489687790884864"
      ]
    },
    {
      "x": 288,
      "y": 378,
      "size": 1,
      "price": "4683000000000000000000",
      "reserved": "",
      "salt": "0xafc697c6fd56f3e697943896d9f0f4c06d0f535ba088983c1d63bc3f1775431f",
      "assetIds": [
        "55464657044963196816950587289035428064568320970692304673817341489687790884865",
        "55464657044963196816950587289035428064568320970692304673817341489687782494208",
        "55464657044963196816950587289035428064568320970692304673817341489687790884866",
        "55464657044963196816950587289035428064568320970692304673817341489687782494209",
        "55464657044963196816950587289035428064568320970692304673817341489687790884864"
      ]
    },
    {
      "x": 288,
      "y": 379,
      "size": 1,
      "price": "4683000000000000000000",
      "reserved": "",
      "salt": "0xa51fb293a9995e517603326637b4321cbaa232dc54ee514661f2336489f9df99",
      "assetIds": [
        "55464657044963196816950587289035428064568320970692304673817341489687790884865",
        "55464657044963196816950587289035428064568320970692304673817341489687782494208",
        "55464657044963196816950587289035428064568320970692304673817341489687790884866",
        "55464657044963196816950587289035428064568320970692304673817341489687782494209",
        "55464657044963196816950587289035428064568320970692304673817341489687790884864"
      ]
    },
    {
      "x": 288,
      "y": 380,
      "size": 1,
      "price": "4683000000000000000000",
      "reserved": "",
      "salt": "0xa0801a39af71caaae689a96bb208975b41ce4fd1963f12eabf29cf9723e92d1f",
      "assetIds": [
        "55464657044963196816950587289035428064568320970692304673817341489687790884865",
        "55464657044963196816950587289035428064568320970692304673817341489687782494208",
        "55464657044963196816950587289035428064568320970692304673817341489687790884866",
        "55464657044963196816950587289035428064568320970692304673817341489687782494209",
        "55464657044963196816950587289035428064568320970692304673817341489687790884864"
      ]
    },
    {
      "x": 288,
      "y": 381,
      "size": 1,
      "price": "4683000000000000000000",
      "reserved": "",
      "salt": "0xa6bdeedb45485632cd9f557ea4e9d69641d8a4f7cc33d13434016cc9fafa88e4",
      "assetIds": [
        "55464657044963196816950587289035428064568320970692304673817341489687790884865",
        "55464657044963196816950587289035428064568320970692304673817341489687782494208",
        "55464657044963196816950587289035428064568320970692304673817341489687790884866",
        "55464657044963196816950587289035428064568320970692304673817341489687782494209",
        "55464657044963196816950587289035428064568320970692304673817341489687790884864"
      ]
    },
    {
      "x": 288,
      "y": 382,
      "size": 1,
      "price": "4683000000000000000000",
      "reserved": "",
      "salt": "0xdfb800a726e1d3a4890f76dce92941355c7c7b76656bc30b193c579fdee3a6b9",
      "assetIds": [
        "55464657044963196816950587289035428064568320970692304673817341489687790884865",
        "55464657044963196816950587289035428064568320970692304673817341489687782494208",
        "55464657044963196816950587289035428064568320970692304673817341489687790884866",
        "55464657044963196816950587289035428064568320970692304673817341489687782494209",
        "55464657044963196816950587289035428064568320970692304673817341489687790884864"
      ]
    },
    {
      "x": 288,
      "y": 383,
      "size": 1,
      "price": "4683000000000000000000",
      "reserved": "",
      "salt": "0xe76773db77da2befd33c7aca0767c2fed833696ab31bcbb821f0a1843a9a7c4e",
      "assetIds": [
        "55464657044963196816950587289035428064568320970692304673817341489687790884865",
        "55464657044963196816950587289035428064568320970692304673817341489687782494208",
        "55464657044963196816950587289035428064568320970692304673817341489687790884866",
        "55464657044963196816950587289035428064568320970692304673817341489687782494209",
        "55464657044963196816950587289035428064568320970692304673817341489687790884864"
      ]
    },
    {
      "x": 289,
      "y": 360,
      "size": 1,
      "price": "1011000000000000000000",
      "reserved": "0x7a9fe22691c811ea339d9b73150e6911a5343dca",
      "salt": "0xaae0fd35f981d85268efaa347b6c78f5f4bc815506a1b88acba56623f219a092",
      "assetIds": []
    },
    {
      "x": 289,
      "y": 361,
      "size": 1,
      "price": "1011000000000000000000",
      "reserved": "0x7a9fe22691c811ea339d9b73150e6911a5343dca",
      "salt": "0x3edf9da03c5319a9daed29df948ab03c3945fbf5bcf33d9af58b9cf1b07ea14e",
      "assetIds": []
    },
    {
      "x": 289,
      "y": 362,
      "size": 1,
      "price": "1011000000000000000000",
      "reserved": "",
      "salt": "0xd74f74a199ab0951df3c5605bc332113ae0240247ead46e44b88465348308500",
      "assetIds": []
    },
    {
      "x": 289,
      "y": 363,
      "size": 1,
      "price": "4683000000000000000000",
      "reserved": "",
      "salt": "0x2b81ef4409e7e26e8fd52beaaa3bc6d3214efaacf040b25e5c3db93b7cb82bcd",
      "assetIds": [
        "55464657044963196816950587289035428064568320970692304673817341489687790884865",
        "55464657044963196816950587289035428064568320970692304673817341489687782494208",
        "55464657044963196816950587289035428064568320970692304673817341489687790884866",
        "55464657044963196816950587289035428064568320970692304673817341489687782494209",
        "55464657044963196816950587289035428064568320970692304673817341489687790884864"
      ]
    },
    {
      "x": 289,
      "y": 364,
      "size": 1,
      "price": "4683000000000000000000",
      "reserved": "",
      "salt": "0x715a9ad8919052d8e1cdd37f2ee7cbfea401d83ef232cf2248e6d1c8c39611a5",
      "assetIds": [
        "55464657044963196816950587289035428064568320970692304673817341489687790884865",
        "55464657044963196816950587289035428064568320970692304673817341489687782494208",
        "55464657044963196816950587289035428064568320970692304673817341489687790884866",
        "55464657044963196816950587289035428064568320970692304673817341489687782494209",
        "55464657044963196816950587289035428064568320970692304673817341489687790884864"
      ]
    },
    {
      "x": 289,
      "y": 365,
      "size": 1,
      "price": "4683000000000000000000",
      "reserved": "",
      "salt": "0x4bfa536c6b884baaaca3fa1146c172967d4c9e34e06a6e9c8a7d199297b2f80b",
      "assetIds": [
        "55464657044963196816950587289035428064568320970692304673817341489687790884865",
        "55464657044963196816950587289035428064568320970692304673817341489687782494208",
        "55464657044963196816950587289035428064568320970692304673817341489687790884866",
        "55464657044963196816950587289035428064568320970692304673817341489687782494209",
        "55464657044963196816950587289035428064568320970692304673817341489687790884864"
      ]
    },
    {
      "x": 289,
      "y": 366,
      "size": 1,
      "price": "4683000000000000000000",
      "reserved": "",
      "salt": "0x06c3b0f38f3fece134fd0853e33f5643304018f8775d41877ed8d766e328c58a",
      "assetIds": [
        "55464657044963196816950587289035428064568320970692304673817341489687790884865",
        "55464657044963196816950587289035428064568320970692304673817341489687782494208",
        "55464657044963196816950587289035428064568320970692304673817341489687790884866",
        "55464657044963196816950587289035428064568320970692304673817341489687782494209",
        "55464657044963196816950587289035428064568320970692304673817341489687790884864"
      ]
    },
    {
      "x": 289,
      "y": 367,
      "size": 1,
      "price": "4683000000000000000000",
      "reserved": "",
      "salt": "0x12ee9b2b7b3b608c13fa7c8b85594737f842d75ff44ec8278fc6d9ca30bb3d01",
      "assetIds": [
        "55464657044963196816950587289035428064568320970692304673817341489687790884865",
        "55464657044963196816950587289035428064568320970692304673817341489687782494208",
        "55464657044963196816950587289035428064568320970692304673817341489687790884866",
        "55464657044963196816950587289035428064568320970692304673817341489687782494209",
        "55464657044963196816950587289035428064568320970692304673817341489687790884864"
      ]
    },
    {
      "x": 289,
      "y": 368,
      "size": 1,
      "price": "4683000000000000000000",
      "reserved": "",
      "salt": "0x5d7ce68d0a62d97729ef09088d4cdebb2569cd4e5d2ab2b6dcb92355251695e4",
      "assetIds": [
        "55464657044963196816950587289035428064568320970692304673817341489687790884865",
        "55464657044963196816950587289035428064568320970692304673817341489687782494208",
        "55464657044963196816950587289035428064568320970692304673817341489687790884866",
        "55464657044963196816950587289035428064568320970692304673817341489687782494209",
        "55464657044963196816950587289035428064568320970692304673817341489687790884864"
      ]
    },
    {
      "x": 289,
      "y": 369,
      "size": 1,
      "price": "1011000000000000000000",
      "reserved": "",
      "salt": "0x21d74ee2908b7b086be83e5608e689726d261fcca3ffc9a6fac9708c9e0b9e33",
      "assetIds": []
    },
    {
      "x": 289,
      "y": 370,
      "size": 1,
      "price": "1011000000000000000000",
      "reserved": "",
      "salt": "0xff7df257331e728915e581d4060fded9b367f22e68b53f26c6331b26b7ccfbd1",
      "assetIds": []
    },
    {
      "x": 289,
      "y": 371,
      "size": 1,
      "price": "1011000000000000000000",
      "reserved": "0x7a9fe22691c811ea339d9b73150e6911a5343dca",
      "salt": "0x5292b08603cc6efc7220f36cee5e08b175d23b153ffd11c630320ee0e90e05cd",
      "assetIds": []
    },
    {
      "x": 289,
      "y": 372,
      "size": 1,
      "price": "4683000000000000000000",
      "reserved": "",
      "salt": "0xf653d606643b64f9e18532fb316ee560cc84470c748d174a2fcfe8a99a9c2ab8",
      "assetIds": [
        "55464657044963196816950587289035428064568320970692304673817341489687790884865",
        "55464657044963196816950587289035428064568320970692304673817341489687782494208",
        "55464657044963196816950587289035428064568320970692304673817341489687790884866",
        "55464657044963196816950587289035428064568320970692304673817341489687782494209",
        "55464657044963196816950587289035428064568320970692304673817341489687790884864"
      ]
    },
    {
      "x": 289,
      "y": 373,
      "size": 1,
      "price": "4683000000000000000000",
      "reserved": "",
      "salt": "0xe6a747ea9bd32f38104934c3e22f1b37769617b623a9e62a4592c2556a945bd3",
      "assetIds": [
        "55464657044963196816950587289035428064568320970692304673817341489687790884865",
        "55464657044963196816950587289035428064568320970692304673817341489687782494208",
        "55464657044963196816950587289035428064568320970692304673817341489687790884866",
        "55464657044963196816950587289035428064568320970692304673817341489687782494209",
        "55464657044963196816950587289035428064568320970692304673817341489687790884864"
      ]
    },
    {
      "x": 289,
      "y": 374,
      "size": 1,
      "price": "4683000000000000000000",
      "reserved": "",
      "salt": "0x9a1b88993bf5d1122c8c2e3543beb3dc8e1ff9b03c20f9ad0a18d25fdca73fde",
      "assetIds": [
        "55464657044963196816950587289035428064568320970692304673817341489687790884865",
        "55464657044963196816950587289035428064568320970692304673817341489687782494208",
        "55464657044963196816950587289035428064568320970692304673817341489687790884866",
        "55464657044963196816950587289035428064568320970692304673817341489687782494209",
        "55464657044963196816950587289035428064568320970692304673817341489687790884864"
      ]
    },
    {
      "x": 289,
      "y": 375,
      "size": 1,
      "price": "4683000000000000000000",
      "reserved": "",
      "salt": "0xf3b78ab734ed542500ab32f58d5a1cffc4e168063ce235e8e7f0841a9659ccc3",
      "assetIds": [
        "55464657044963196816950587289035428064568320970692304673817341489687790884865",
        "55464657044963196816950587289035428064568320970692304673817341489687782494208",
        "55464657044963196816950587289035428064568320970692304673817341489687790884866",
        "55464657044963196816950587289035428064568320970692304673817341489687782494209",
        "55464657044963196816950587289035428064568320970692304673817341489687790884864"
      ]
    },
    {
      "x": 289,
      "y": 376,
      "size": 1,
      "price": "1011000000000000000000",
      "reserved": "0x7a9fe22691c811ea339d9b73150e6911a5343dca",
      "salt": "0xaa6e47ef1932b18623db910dd8553f3ba3f5ca6694343fe11ac1f016090d62b6",
      "assetIds": []
    },
    {
      "x": 289,
      "y": 377,
      "size": 1,
      "price": "1011000000000000000000",
      "reserved": "",
      "salt": "0x94a17ed3b4c47a4cd7e8d3d32c893b1e46354fe2642cb2812c61612af308b76b",
      "assetIds": []
    },
    {
      "x": 289,
      "y": 378,
      "size": 1,
      "price": "1011000000000000000000",
      "reserved": "",
      "salt": "0x4dd4372d4c481e4744819cb7d112cdb7386a0e8ac15c16e12c911e01e24efff1",
      "assetIds": []
    },
    {
      "x": 289,
      "y": 379,
      "size": 1,
      "price": "1011000000000000000000",
      "reserved": "",
      "salt": "0xedb0ff996ebb85ce4a694cd92e6fcc6ff5e073f73104f6a60998a4edb623ecde",
      "assetIds": []
    },
    {
      "x": 289,
      "y": 380,
      "size": 1,
      "price": "1011000000000000000000",
      "reserved": "0x7a9fe22691c811ea339d9b73150e6911a5343dca",
      "salt": "0x7fcd22f37435305f4bf8a4e4fd13b531121c863d16f09a238e6dc14113be1c79",
      "assetIds": []
    },
    {
      "x": 289,
      "y": 381,
      "size": 1,
      "price": "1011000000000000000000",
      "reserved": "0x7a9fe22691c811ea339d9b73150e6911a5343dca",
      "salt": "0xc97bc478bd6a7ec6954221932425e7799c63f70b14e458f89918691311e6c55e",
      "assetIds": []
    },
    {
      "x": 289,
      "y": 382,
      "size": 1,
      "price": "1011000000000000000000",
      "reserved": "",
      "salt": "0x88509254b3cad2b9a4cb6b9905874f6fe2d3290d45470213db7a286f47782d9d",
      "assetIds": []
    },
    {
      "x": 289,
      "y": 383,
      "size": 1,
      "price": "1011000000000000000000",
      "reserved": "",
      "salt": "0xdeab455e1d2ba233bdbf0a21c6cccf86c1b5f18a40054f51e0dc1769c9f32e6c",
      "assetIds": []
    },
    {
      "x": 290,
      "y": 360,
      "size": 1,
      "price": "1011000000000000000000",
      "reserved": "",
      "salt": "0xb4d2b32cc3e75306e2a87654de231a6364a9a8ba480f33cfb37881e33842afb3",
      "assetIds": []
    },
    {
      "x": 290,
      "y": 361,
      "size": 1,
      "price": "1011000000000000000000",
      "reserved": "",
      "salt": "0x91e85d14964e215cc56a243ead5377b0073c787a1020638ee04fb287eff65f02",
      "assetIds": []
    },
    {
      "x": 290,
      "y": 362,
      "size": 1,
      "price": "1011000000000000000000",
      "reserved": "",
      "salt": "0x3a2ce791d1e29a30096204870ce720e0c40f12a9964700cdf19b557f66b8f3a7",
      "assetIds": []
    },
    {
      "x": 290,
      "y": 363,
      "size": 1,
      "price": "1011000000000000000000",
      "reserved": "0x7a9fe22691c811ea339d9b73150e6911a5343dca",
      "salt": "0x66d5af12ac58700edf6441943cd702d49b6892f9e626bba248af16356b4ea385",
      "assetIds": []
    },
    {
      "x": 290,
      "y": 364,
      "size": 1,
      "price": "1011000000000000000000",
      "reserved": "",
      "salt": "0xeb261850a444354d07130788a6868297155755ecb5c7f1542ba2a86d4e990597",
      "assetIds": []
    },
    {
      "x": 290,
      "y": 365,
      "size": 1,
      "price": "1011000000000000000000",
      "reserved": "",
      "salt": "0xa7b2f9f6fbb7a96ff527d877f352add9282cb633c39015f1c8871690a31b25fe",
      "assetIds": []
    },
    {
      "x": 290,
      "y": 366,
      "size": 1,
      "price": "1011000000000000000000",
      "reserved": "",
      "salt": "0x2a42849b46d6c24360da6e00d8e98b90f31d8051602eebc3adb1a65b288bb7b2",
      "assetIds": []
    },
    {
      "x": 290,
      "y": 367,
      "size": 1,
      "price": "1011000000000000000000",
      "reserved": "",
      "salt": "0x797605639ecd868e60b67a0449a9c7529023fbd10f821b66cff5160fc87e7e03",
      "assetIds": []
    },
    {
      "x": 290,
      "y": 368,
      "size": 1,
      "price": "1011000000000000000000",
      "reserved": "0x7a9fe22691c811ea339d9b73150e6911a5343dca",
      "salt": "0x8d29a304c4cfd2d5916a381dd4909c48c2b4f0692659296d798405f01e2e0c9f",
      "assetIds": []
    },
    {
      "x": 290,
      "y": 369,
      "size": 1,
      "price": "1011000000000000000000",
      "reserved": "",
      "salt": "0x311b8aa58987a7701ded10d881e4fed697aee0945ae3d8aac855862bf56fa8f6",
      "assetIds": []
    },
    {
      "x": 290,
      "y": 370,
      "size": 1,
      "price": "1011000000000000000000",
      "reserved": "",
      "salt": "0xfe989bd1055a4fa499bdaefa2e009cc23613aa8ab44c344c0d0f40daed572163",
      "assetIds": []
    },
    {
      "x": 290,
      "y": 371,
      "size": 1,
      "price": "1011000000000000000000",
      "reserved": "",
      "salt": "0x7054177aec32cdedea43152cc9c7695bf352746876d23426f6dd7c3a3a853363",
      "assetIds": []
    },
    {
      "x": 290,
      "y": 372,
      "size": 1,
      "price": "1011000000000000000000",
      "reserved": "",
      "salt": "0x6e8ee0c5e6776869c2f54786e2ac8436c6dcc350f1620a8bfe7836347426475d",
      "assetIds": []
    },
    {
      "x": 290,
      "y": 373,
      "size": 1,
      "price": "1011000000000000000000",
      "reserved": "",
      "salt": "0xb41a3678bc846b207a7ff5881f914b46b34a1eab554e65c5a4f53abe99a26118",
      "assetIds": []
    },
    {
      "x": 290,
      "y": 374,
      "size": 1,
      "price": "1011000000000000000000",
      "reserved": "",
      "salt": "0xda3ec744031d43f71b497902a2ec5c846c5987c6c48d1f53281a880670847e15",
      "assetIds": []
    },
    {
      "x": 290,
      "y": 375,
      "size": 1,
      "price": "1011000000000000000000",
      "reserved": "",
      "salt": "0x3929cb45056c487964f6b84c51de11a0965946a7b8ec4202d79ad96527c68483",
      "assetIds": []
    },
    {
      "x": 290,
      "y": 376,
      "size": 1,
      "price": "1011000000000000000000",
      "reserved": "",
      "salt": "0x0934b8db75ff19e99ba055e07fa4830e13aa8da51c7388f78a0831e359f1ceaa",
      "assetIds": []
    },
    {
      "x": 290,
      "y": 377,
      "size": 1,
      "price": "1011000000000000000000",
      "reserved": "",
      "salt": "0x8b17eed900de8bc64b63179e5fda91689e40d7c6427412b9a334b54dd901b607",
      "assetIds": []
    },
    {
      "x": 290,
      "y": 378,
      "size": 1,
      "price": "1011000000000000000000",
      "reserved": "",
      "salt": "0x0a54b78cd751876cd17f7b5cea40511dfc71a9776f2ebab0dde2822c7e6e828c",
      "assetIds": []
    },
    {
      "x": 290,
      "y": 379,
      "size": 1,
      "price": "1011000000000000000000",
      "reserved": "",
      "salt": "0xcd8d2eae0cbf4103b49ab4e63da93162f60778a2587f97a326a826b206fb2940",
      "assetIds": []
    },
    {
      "x": 290,
      "y": 380,
      "size": 1,
      "price": "1011000000000000000000",
      "reserved": "",
      "salt": "0xfb749891c5615587a22b9ae5e4824902f6bd99f9e974b0e9a621fb93788e05d8",
      "assetIds": []
    },
    {
      "x": 290,
      "y": 381,
      "size": 1,
      "price": "1011000000000000000000",
      "reserved": "",
      "salt": "0x601625011dcdd67a14d74bafdcfb33a7e9f097c60a7230694b5268eece9e4b8f",
      "assetIds": []
    },
    {
      "x": 290,
      "y": 382,
      "size": 1,
      "price": "1011000000000000000000",
      "reserved": "",
      "salt": "0x4a06cb6c014c4f818ff1af8004143999b28d54a9069c629f4ad7ba054f533ef7",
      "assetIds": []
    },
    {
      "x": 290,
      "y": 383,
      "size": 1,
      "price": "1011000000000000000000",
      "reserved": "0x7a9fe22691c811ea339d9b73150e6911a5343dca",
      "salt": "0xcc136a8c2a0fb00d42127c58f7432e1dd6e8ab66d75aa484d8ce604ce639b25b",
      "assetIds": []
    },
    {
      "x": 234,
      "y": 399,
      "size": 3,
      "price": "8648000000000000000000",
      "reserved": "0x7a9fe22691c811ea339d9b73150e6911a5343dca",
      "salt": "0xd2199cc66acb82fcf5d49a063b51f23ac52344ccd3634352fd9c23a153ffae17",
      "assetIds": []
    },
    {
      "x": 237,
      "y": 396,
      "size": 3,
      "price": "8648000000000000000000",
      "reserved": "0x7a9fe22691c811ea339d9b73150e6911a5343dca",
      "salt": "0xe7fb1d6879d01816359d92c0c4462374ed22d758965f0bfd769da0a779208698",
      "assetIds": []
    },
    {
      "x": 243,
      "y": 396,
      "size": 3,
      "price": "8648000000000000000000",
      "reserved": "0x7a9fe22691c811ea339d9b73150e6911a5343dca",
      "salt": "0x657a5af620efb47297b84a318bd03c8fafc93143db95a7e4801b40f54ebcee11",
      "assetIds": []
    },
    {
      "x": 252,
      "y": 378,
      "size": 3,
      "price": "8648000000000000000000",
      "reserved": "0x7a9fe22691c811ea339d9b73150e6911a5343dca",
      "salt": "0xbc66c4ac4e3f89a020c754b9054823c8179e0fa0478fbd86a44cfff4d54f7806",
      "assetIds": []
    },
    {
      "x": 264,
      "y": 354,
      "size": 3,
      "price": "8648000000000000000000",
      "reserved": "0x7a9fe22691c811ea339d9b73150e6911a5343dca",
      "salt": "0xadd857c1c23296a8db16883a314b08dfb1986628ea52bcab7c9224567c4d4a42",
      "assetIds": []
    },
    {
      "x": 267,
      "y": 384,
      "size": 3,
      "price": "8648000000000000000000",
      "reserved": "0x7a9fe22691c811ea339d9b73150e6911a5343dca",
      "salt": "0x62571e38df49a3ddca5ccb6b76085bbe81c069173ccc10c8a9d0275a7e1c708e",
      "assetIds": []
    },
    {
      "x": 285,
      "y": 345,
      "size": 3,
      "price": "8648000000000000000000",
      "reserved": "0x7a9fe22691c811ea339d9b73150e6911a5343dca",
      "salt": "0xd5ea8e515d0538e5d1a66a2ba257af14acaf24425c93592554103d6fb4895b19",
      "assetIds": []
    },
    {
      "x": 222,
      "y": 396,
      "size": 6,
      "price": "32772000000000000000000",
      "reserved": "0x7a9fe22691c811ea339d9b73150e6911a5343dca",
      "salt": "0xf3a0ab5d5b0c62d54afa8f09821c66638645f4a4e2db3e77b1b34351e5e69b7a",
      "assetIds": []
    },
    {
      "x": 228,
      "y": 396,
      "size": 6,
      "price": "32772000000000000000000",
      "reserved": "0x7a9fe22691c811ea339d9b73150e6911a5343dca",
      "salt": "0x6ad907844e4ed890c2fdfcafe4a63d128c5f61cceaaf3bdc19b53222ec915e40",
      "assetIds": []
    },
    {
      "x": 234,
      "y": 390,
      "size": 6,
      "price": "32772000000000000000000",
      "reserved": "0x7a9fe22691c811ea339d9b73150e6911a5343dca",
      "salt": "0x1b5e00702cae9012cc4160bf2724551268cc6be84e26506dfbaee4e6dcd4f698",
      "assetIds": []
    },
    {
      "x": 246,
      "y": 366,
      "size": 6,
      "price": "32772000000000000000000",
      "reserved": "0x7a9fe22691c811ea339d9b73150e6911a5343dca",
      "salt": "0x232caa030a88f224d84f33313bd327d7c67b23a9e962cefaf7c319a416412cd9",
      "assetIds": []
    },
    {
      "x": 252,
      "y": 372,
      "size": 6,
      "price": "32772000000000000000000",
      "reserved": "0x7a9fe22691c811ea339d9b73150e6911a5343dca",
      "salt": "0xfa606364aaf7ff6f872db91aba609ca4d398d73e21abaab28a7ec63d539dc59d",
      "assetIds": []
    },
    {
      "x": 282,
      "y": 348,
      "size": 6,
      "price": "32772000000000000000000",
      "reserved": "0x7a9fe22691c811ea339d9b73150e6911a5343dca",
      "salt": "0x95a36bf89cf0a9a360bb465bc53b705339981c15ca801061be6585b0d748c161",
      "assetIds": []
    },
    {
      "x": 240,
      "y": 384,
      "size": 12,
      "price": "123806000000000000000000",
      "reserved": "0x7a9fe22691c811ea339d9b73150e6911a5343dca",
      "salt": "0x386032340c6e203cccd5428d84f73f5c1fa7dcc9c00b8e1c11f3361e1316d82a",
      "assetIds": []
    },
    {
      "x": 252,
      "y": 360,
      "size": 12,
      "price": "123806000000000000000000",
      "reserved": "0x7a9fe22691c811ea339d9b73150e6911a5343dca",
      "salt": "0x339c4ad1cc63f134f0d4319b1269d5b99eb5cafab934463fd0e7f6347e7d3f02",
      "assetIds": []
    },
    {
      "x": 252,
      "y": 384,
      "size": 12,
      "price": "123806000000000000000000",
      "reserved": "0x7a9fe22691c811ea339d9b73150e6911a5343dca",
      "salt": "0xa18dc6c292b459c45cdd0b4a04929e1ced0497da750c5fdb18e2b3297c84c8ba",
      "assetIds": []
    },
    {
      "x": 264,
      "y": 360,
      "size": 24,
      "price": "466102000000000000000000",
      "reserved": "0x7a9fe22691c811ea339d9b73150e6911a5343dca",
      "salt": "0x95953360f15adb942e16c10a7e95253f7b37f94fb4ed9faa96df897c41c94617",
      "assetIds": []
    }
  ],
  "solcInputHash": "313f455adab9ae93096e43acc50d7d38",
  "bytecode": "0x610160604052620d2f006005556103e860075534801561001e57600080fd5b5060405161242e38038061242e833981810160405261018081101561004257600080fd5b50805160208201516040830151606080850151608086015160a08088015160c0808a015160e08b01516101008c01516101208d01516101408e0151610160909e0151600280546001600160a01b0319166001600160a01b03861617905560038390558d8b1b6001600160601b0319908116909852998c901b909616909352999a9899979895979496929590949391926100dc8a600161014a565b600680546001600160a01b03199081166001600160a01b039a8b1617909155610140979097526101209590955260008054909616979096169690961790935550606093841b6001600160601b031990811660e05292841b831660805290921b1661010052506101ae92505050565b6001600160a01b038216600081815260016020908152604091829020805460ff191685151590811790915582519384529083015280517fb21eb88b4e33b3f1281830a7178d74d8aa73220416215726b68ae23d539515cb9281900390910190a15050565b60805160601c60a05160601c60c05160601c60e05160601c6101005160601c61012051610140516121fb610233600039806109375280611d44525080610913528061139a525080611da45250806115d252806116f4525080610c50528061159c5280611dd852508061166152806116c5525080610dfa528061190852506121fb6000f3fe608060405234801561001057600080fd5b50600436106101515760003560e01c8063984d6252116100cd578063dc5074af11610081578063ecb255b511610066578063ecb255b514610857578063f23a6e6114610874578063f2e7b3811461090957610151565b8063dc5074af14610814578063e56f8a9e1461083a57610151565b8063bc197c81116100b2578063bc197c81146105d3578063c10a420814610735578063caed35001461080c57610151565b8063984d6252146104db578063b522ecff146105ad57610151565b80636e9960c3116101245780638a04af6a116101095780638a04af6a1461032a5780638a12b82f146103585780638f283970146104b557610151565b80636e9960c3146102fe57806377f1c3ac1461032257610151565b806325cb5bc014610156578063495906571461017057806358bc29441461017857806365194ce7146101a0575b600080fd5b61015e610911565b60408051918252519081900360200190f35b61015e610935565b61019e6004803603602081101561018e57600080fd5b50356001600160a01b0316610959565b005b610246600480360360208110156101b657600080fd5b8101906020810181356401000000008111156101d157600080fd5b8201836020820111156101e357600080fd5b8035906020019184600183028401116401000000008311171561020557600080fd5b91908080601f016020809104026020016040519081016040528093929190818152602001838380828437600092019190915250929550610a04945050505050565b6040518080602001866001600160a01b03166001600160a01b03168152602001856001600160a01b03166001600160a01b03168152602001848152602001838152602001828103825287818151815260200191508051906020019080838360005b838110156102bf5781810151838201526020016102a7565b50505050905090810190601f1680156102ec5780820380516001836020036101000a031916815260200191505b50965050505050505060405180910390f35b610306610b09565b604080516001600160a01b039092168252519081900360200190f35b61015e610b18565b61019e6004803603604081101561034057600080fd5b506001600160a01b0381351690602001351515610b1e565b61019e600480360361018081101561036f57600080fd5b6001600160a01b038235811692602081013582169260408201359092169160608201359160808101359160a08201359160c08101359160e0820135916101008101359181019061014081016101208201356401000000008111156103d257600080fd5b8201836020820111156103e457600080fd5b8035906020019184602083028401116401000000008311171561040657600080fd5b91939092909160208101903564010000000081111561042457600080fd5b82018360208201111561043657600080fd5b8035906020019184602083028401116401000000008311171561045857600080fd5b91939092909160208101903564010000000081111561047657600080fd5b82018360208201111561048857600080fd5b803590602001918460018302840111640100000000831117156104aa57600080fd5b509092509050610b75565b61019e600480360360208110156104cb57600080fd5b50356001600160a01b0316610cc3565b61019e600480360360608110156104f157600080fd5b6001600160a01b03823516919081019060408101602082013564010000000081111561051c57600080fd5b82018360208201111561052e57600080fd5b8035906020019184602083028401116401000000008311171561055057600080fd5b91939092909160208101903564010000000081111561056e57600080fd5b82018360208201111561058057600080fd5b803590602001918460208302840111640100000000831117156105a257600080fd5b509092509050610d99565b61019e600480360360208110156105c357600080fd5b50356001600160a01b0316610f24565b610700600480360360a08110156105e957600080fd5b6001600160a01b03823581169260208101359091169181019060608101604082013564010000000081111561061d57600080fd5b82018360208201111561062f57600080fd5b8035906020019184602083028401116401000000008311171561065157600080fd5b91939092909160208101903564010000000081111561066f57600080fd5b82018360208201111561068157600080fd5b803590602001918460208302840111640100000000831117156106a357600080fd5b9193909290916020810190356401000000008111156106c157600080fd5b8201836020820111156106d357600080fd5b803590602001918460018302840111640100000000831117156106f557600080fd5b50909250905061100d565b604080517fffffffff000000000000000000000000000000000000000000000000000000009092168252519081900360200190f35b6107f8600480360360a081101561074b57600080fd5b81019060208101813564010000000081111561076657600080fd5b82018360208201111561077857600080fd5b8035906020019184600183028401116401000000008311171561079a57600080fd5b91908080601f016020809104026020016040519081016040528093929190818152602001838380828437600092019190915250929550506001600160a01b03833581169450602084013516926040810135925060600135905061103a565b604080519115158252519081900360200190f35b610306611176565b6107f86004803603602081101561082a57600080fd5b50356001600160a01b0316611185565b61019e6004803603602081101561085057600080fd5b50356111a3565b61019e6004803603602081101561086d57600080fd5b5035611207565b610700600480360360a081101561088a57600080fd5b6001600160a01b03823581169260208101359091169160408201359160608101359181019060a0810160808201356401000000008111156108ca57600080fd5b8201836020820111156108dc57600080fd5b803590602001918460018302840111640100000000831117156108fe57600080fd5b50909250905061126b565b61015e611296565b7f000000000000000000000000000000000000000000000000000000000000000090565b7f000000000000000000000000000000000000000000000000000000000000000090565b6000546001600160a01b031633146109b8576040805162461bcd60e51b815260206004820152601060248201527f53656e646572206e6f742061646d696e00000000000000000000000000000000604482015290519081900360640190fd5b600554600280546001600160a01b03908116600090815260046020526040902042909301909255805473ffffffffffffffffffffffffffffffffffffffff191692909116919091179055565b606060008060008060606000806000808a80602001905160a0811015610a2957600080fd5b8101908080516040519392919084640100000000821115610a4957600080fd5b908301906020820185811115610a5e57600080fd5b8251640100000000811182820188101715610a7857600080fd5b82525081516020918201929091019080838360005b83811015610aa5578181015183820152602001610a8d565b50505050905090810190601f168015610ad25780820380516001836020036101000a031916815260200191505b5060409081526020820151908201516060830151608090930151959f50909d509b5099509197505050505050505091939590929450565b6000546001600160a01b031690565b60035490565b6000546001600160a01b03163314610b675760405162461bcd60e51b815260040180806020018281038252602e815260200180612198602e913960400191505060405180910390fd5b610b71828261129c565b5050565b610b7f898961131e565b610c048f8e8e8e8e8e8d8d8d80806020026020016040519081016040528093929190818152602001838360200280828437600081840152601f19601f820116905080830192505050505050508c8c8080602002602001604051908101604052809392919081815260200183836020028082843760009201919091525061139892505050565b610c458f8984848080601f01602080910402602001604051908101604052809392919081815260200183838082843760009201919091525061157592505050565b610c758f8f8e8e8e8d7f00000000000000000000000000000000000000000000000000000000000000008f6115c6565b610cb28e87878080602002602001604051908101604052809392919081815260200183836020028082843760009201919091525061189192505050565b505050505050505050505050505050565b6000546001600160a01b03163314610d22576040805162461bcd60e51b815260206004820152601b60248201527f6f6e6c792061646d696e2063616e206368616e67652061646d696e0000000000604482015290519081900360640190fd5b600054604080516001600160a01b039283168152918316602083015280517f7e644d79422f17c01e4894b5f4f588d331ebfa28653d42ae832dc59e38c9798f9281900390910190a16000805473ffffffffffffffffffffffffffffffffffffffff19166001600160a01b0392909216919091179055565b6000546001600160a01b03163314610df8576040805162461bcd60e51b815260206004820152600e60248201527f4e4f545f415554484f52495a4544000000000000000000000000000000000000604482015290519081900360640190fd5b7f00000000000000000000000000000000000000000000000000000000000000006001600160a01b0316632eb2c2d63087878787876040518763ffffffff1660e01b815260040180876001600160a01b03166001600160a01b03168152602001866001600160a01b03166001600160a01b031681526020018060200180602001806020018481038452888882818152602001925060200280828437600083820152601f01601f19169091018581038452868152602090810191508790870280828437600081840152601f19601f8201169050808301925050508481038252600081526020016020019950505050505050505050600060405180830381600087803b158015610f0557600080fd5b505af1158015610f19573d6000803e3d6000fd5b505050505050505050565b6001600160a01b038116610f7f576040805162461bcd60e51b815260206004820152600c60248201527f5a45524f5f414444524553530000000000000000000000000000000000000000604482015290519081900360640190fd5b6000546001600160a01b03163314610fde576040805162461bcd60e51b815260206004820152600e60248201527f4e4f545f415554484f52495a4544000000000000000000000000000000000000604482015290519081900360640190fd5b6006805473ffffffffffffffffffffffffffffffffffffffff19166001600160a01b0392909216919091179055565b7fbc197c810000000000000000000000000000000000000000000000000000000098975050505050505050565b600060035482118061105d5750836001600160a01b0316856001600160a01b0316145b8061106757508242115b156110745750600061116d565b60408051606087811b7fffffffffffffffffffffffffffffffffffffffff0000000000000000000000009081166020808501919091529188901b166034830152604882018690526068808301869052835180840390910181526088830184528051908201207f19457468657265756d205369676e6564204d6573736167653a0a33320000000060a884015260c48084018290528451808503909101815260e4909301909352815191012060009061112b9089611a55565b6001600160a01b03811660009081526004602052604090205490915042116111585760019250505061116d565b6002546001600160a01b039081169116149150505b95945050505050565b6002546001600160a01b031690565b6001600160a01b031660009081526001602052604090205460ff1690565b6000546001600160a01b03163314611202576040805162461bcd60e51b815260206004820152601060248201527f53656e646572206e6f742061646d696e00000000000000000000000000000000604482015290519081900360640190fd5b600355565b6000546001600160a01b03163314611266576040805162461bcd60e51b815260206004820152600e60248201527f4e4f545f415554484f52495a4544000000000000000000000000000000000000604482015290519081900360640190fd5b600755565b7ff23a6e61000000000000000000000000000000000000000000000000000000009695505050505050565b60075490565b6001600160a01b03821660008181526001602090815260409182902080547fffffffffffffffffffffffffffffffffffffffffffffffffffffffffffffff001685151590811790915582519384529083015280517fb21eb88b4e33b3f1281830a7178d74d8aa73220416215726b68ae23d539515cb9281900390910190a15050565b6113456103e861133960075485611b2290919063ffffffff16565b9063ffffffff611b9816565b8114610b71576040805162461bcd60e51b815260206004820152600d60248201527f494e56414c49445f505249434500000000000000000000000000000000000000604482015290519081900360640190fd5b7f0000000000000000000000000000000000000000000000000000000000000000421061140c576040805162461bcd60e51b815260206004820152600c60248201527f53414c455f49535f4f5645520000000000000000000000000000000000000000604482015290519081900360640190fd5b6001600160a01b03891633148061143257503360009081526001602052604090205460ff165b611483576040805162461bcd60e51b815260206004820152600e60248201527f4e4f545f415554484f52495a4544000000000000000000000000000000000000604482015290519081900360640190fd5b6001600160a01b03881615806114aa5750886001600160a01b0316886001600160a01b0316145b6114fb576040805162461bcd60e51b815260206004820152600d60248201527f52455345525645445f4c414e4400000000000000000000000000000000000000604482015290519081900360640190fd5b600061150c888888888d8989611bfd565b90506115188282611ca2565b611569576040805162461bcd60e51b815260206004820152600c60248201527f494e56414c49445f4c414e440000000000000000000000000000000000000000604482015290519081900360640190fd5b50505050505050505050565b60006115818484611d6b565b6006549091506115c0908590839085906001600160a01b03167f0000000000000000000000000000000000000000000000000000000000000000611eb8565b50505050565b83600114806115fc57507f00000000000000000000000000000000000000000000000000000000000000006001600160a01b0316155b156116c357604080517f6e1e3bbf0000000000000000000000000000000000000000000000000000000081526001600160a01b03898116600483015260248201879052604482018990526064820188905260a06084830152600060a4830181905292517f000000000000000000000000000000000000000000000000000000000000000090911692636e1e3bbf9260e4808201939182900301818387803b1580156116a657600080fd5b505af11580156116ba573d6000803e3d6000fd5b50505050611827565b7f00000000000000000000000000000000000000000000000000000000000000006001600160a01b0316636e1e3bbf7f00000000000000000000000000000000000000000000000000000000000000008689898c60405160200180826001600160a01b03166001600160a01b031681526020019150506040516020818303038152906040526040518663ffffffff1660e01b815260040180866001600160a01b03166001600160a01b0316815260200185815260200184815260200183815260200180602001828103825283818151815260200191508051906020019080838360005b838110156117be5781810151838201526020016117a6565b50505050905090810190601f1680156117eb5780820380516001836020036101000a031916815260200191505b509650505050505050600060405180830381600087803b15801561180e57600080fd5b505af1158015611822573d6000803e3d6000fd5b505050505b60408051858152602081018590526001600160a01b03848116828401526060820184905291516101988802890192808b1692908c16917fe4dfa6ac11314892f3029b34a25b1a887da3b1cab2bbf8506d87128ba6e3ac029181900360800190a45050505050505050565b6060815167ffffffffffffffff811180156118ab57600080fd5b506040519080825280602002602001820160405280156118d5578160200160208202803683370190505b50905060005b82518110156119055760018282815181106118f257fe5b60209081029190910101526001016118db565b507f00000000000000000000000000000000000000000000000000000000000000006001600160a01b0316632eb2c2d6308585856040518563ffffffff1660e01b815260040180856001600160a01b03166001600160a01b03168152602001846001600160a01b03166001600160a01b03168152602001806020018060200180602001848103845286818151815260200191508051906020019060200280838360005b838110156119c05781810151838201526020016119a8565b50505050905001848103835285818151815260200191508051906020019060200280838360005b838110156119ff5781810151838201526020016119e7565b50505050905001848103825260008152602001602001975050505050505050600060405180830381600087803b158015611a3857600080fd5b505af1158015611a4c573d6000803e3d6000fd5b50505050505050565b60008151604114611a6557600080fd5b60208201516040830151606084015160001a601b811015611a8457601b015b8060ff16601b1480611a9957508060ff16601c145b611aa257600080fd5b6040805160008152602080820180845289905260ff8416828401526060820186905260808201859052915160019260a0808401939192601f1981019281900390910190855afa158015611af9573d6000803e3d6000fd5b5050604051601f1901519450506001600160a01b038416611b1957600080fd5b50505092915050565b600082611b3157506000611b92565b5081810281838281611b3f57fe5b0414611b92576040805162461bcd60e51b815260206004820152600860248201527f6f766572666c6f77000000000000000000000000000000000000000000000000604482015290519081900360640190fd5b92915050565b600081611bec576040805162461bcd60e51b815260206004820152600960248201527f64697662797a65726f0000000000000000000000000000000000000000000000604482015290519081900360640190fd5b818381611bf557fe5b049392505050565b60008787878787878760405160200180888152602001878152602001868152602001858152602001846001600160a01b03166001600160a01b031660601b8152601401838152602001828051906020019060200280838360005b83811015611c6f578181015183820152602001611c57565b50505050905001975050505050505050604051602081830303815290604052805190602001209050979650505050505050565b600081815b8451811015611d41576000858281518110611cbe57fe5b6020026020010151905080831015611d065782816040516020018083815260200182815260200192505050604051602081830303815290604052805190602001209250611d38565b808360405160200180838152602001828152602001925050506040516020818303038152906040528051906020012092505b50600101611ca7565b507f0000000000000000000000000000000000000000000000000000000000000000149392505050565b600080611d84606461133985600563ffffffff611b2216565b604080516323b872dd60e01b81526001600160a01b0387811660048301527f0000000000000000000000000000000000000000000000000000000000000000811660248301526044820184905291519293507f0000000000000000000000000000000000000000000000000000000000000000909116916323b872dd916064808201926020929091908290030181600087803b158015611e2357600080fd5b505af1158015611e37573d6000803e3d6000fd5b505050506040513d6020811015611e4d57600080fd5b5051611ea0576040805162461bcd60e51b815260206004820152601360248201527f4645455f5452414e534645525f4641494c454400000000000000000000000000604482015290519081900360640190fd5b611eb0838263ffffffff61213a16565b949350505050565b82518190859015612062576060600080600080611ed48a610a04565b9398509196509450925090506000611eef868686868661103a565b15611f7d57611f09611f018d84611b22565b612710611b98565b9050886001600160a01b0316846001600160a01b0316866001600160a01b03167fac7a699eb95c3c6d390ec4626de17ef9a67b35891efdb197beba7c7fdd45fac48f858760405180848152602001838152602001828152602001935050505060405180910390a4611f7a878261213a565b96505b801561205b57604080516323b872dd60e01b81526001600160a01b038f811660048301528781166024830152604482018490529151918a16916323b872dd916064808201926020929091908290030181600087803b158015611fde57600080fd5b505af1158015611ff2573d6000803e3d6000fd5b505050506040513d602081101561200857600080fd5b505161205b576040805162461bcd60e51b815260206004820152601960248201527f636f6d6d6973696f6e207472616e73666572206661696c656400000000000000604482015290519081900360640190fd5b5050505050505b604080516323b872dd60e01b81526001600160a01b0389811660048301528681166024830152604482018490529151918416916323b872dd916064808201926020929091908290030181600087803b1580156120bd57600080fd5b505af11580156120d1573d6000803e3d6000fd5b505050506040513d60208110156120e757600080fd5b5051611a4c576040805162461bcd60e51b815260206004820152601760248201527f7061796d656e74207472616e73666572206661696c6564000000000000000000604482015290519081900360640190fd5b600082821115612191576040805162461bcd60e51b815260206004820152600860248201527f756e6465666c6f77000000000000000000000000000000000000000000000000604482015290519081900360640190fd5b5090039056fe6f6e6c792061646d696e2063616e207365747570206d6574615472616e73616374696f6e50726f636573736f7273a26469706673582212200ff38c5741c66b2a22a9a9ee2abe0f55626323082b6b4443921fd3b25484584a64736f6c63430006050033",
  "devdoc": {
    "methods": {
      "buyLandWithSand(address,address,address,uint256,uint256,uint256,uint256,uint256,bytes32,uint256[],bytes32[],bytes)": {
        "params": {
          "buyer": "address that perform the payment",
          "priceInSand": "price in SAND to purchase that Land",
          "proof": "merkleProof for that particular Land",
          "reserved": "the reserved address (if any)",
          "size": "size of the pack of Land to purchase",
          "to": "address that will own the purchased Land",
          "x": "x coordinate of the Land",
          "y": "y coordinate of the Land"
        }
      },
      "changeAdmin(address)": {
        "details": "change the administrator to be `newAdmin`.",
        "params": {
          "newAdmin": "address of the new administrator."
        }
      },
      "getAdmin()": {
        "details": "gives the current administrator of this contract.",
        "returns": {
          "_0": "the current administrator of this contract."
        }
      },
      "getSigningWallet()": {
        "details": "signing wallet authorized for referral",
        "returns": {
          "_0": "the address of the signing wallet"
        }
      },
      "isMetaTransactionProcessor(address)": {
        "details": "check whether address `who` is given meta-transaction execution rights.",
        "params": {
          "who": "The address to query."
        },
        "returns": {
          "_0": "whether the address has meta-transaction execution rights."
        }
      },
      "isReferralValid(bytes,address,address,uint256,uint256)": {
        "params": {
          "commissionRate": "The commissionRate of the referral",
          "expiryTime": "The expiry time of the referral",
          "referee": "The address of the referee",
          "referrer": "The address of the referrer",
          "signature": "The signature to check (signed referral)"
        },
        "returns": {
          "_0": "True if the referral is valid"
        }
      },
      "setMetaTransactionProcessor(address,bool)": {
        "details": "Enable or disable the ability of `metaTransactionProcessor` to perform meta-tx (metaTransactionProcessor rights).",
        "params": {
          "enabled": "set whether the metaTransactionProcessor is enabled or disabled.",
          "metaTransactionProcessor": "address that will be given/removed metaTransactionProcessor rights."
        }
      },
      "setReceivingWallet(address)": {
        "params": {
          "newWallet": "address of the new receiving wallet"
        }
      },
      "updateMaxCommissionRate(uint256)": {
        "details": "Update the maximum commission rate",
        "params": {
          "newMaxCommissionRate": "The new maximum commission rate"
        }
      },
      "updateSigningWallet(address)": {
        "details": "Update the signing wallet",
        "params": {
          "newSigningWallet": "The new address of the signing wallet"
        }
      },
      "withdrawAssets(address,uint256[],uint256[])": {
        "params": {
          "assetIds": "the assetIds to be transferred",
          "to": "intended recipient of the asset tokens",
          "values": "the quantities of the assetIds to be transferred"
        }
      }
    },
    "title": "Estate Sale contract with referral"
  },
  "userdoc": {
    "methods": {
      "buyLandWithSand(address,address,address,uint256,uint256,uint256,uint256,uint256,bytes32,uint256[],bytes32[],bytes)": {
        "notice": "buy Land with SAND using the merkle proof associated with it"
      },
      "getExpiryTime()": {
        "notice": "Gets the expiry time for the current sale"
      },
      "getMaxCommisionRate()": {
        "notice": "the max commision rate"
      },
      "getMerkleRoot()": {
        "notice": "Gets the Merkle root associated with the current sale"
      },
      "isReferralValid(bytes,address,address,uint256,uint256)": {
        "notice": "Check if a referral is valid"
      },
      "setReceivingWallet(address)": {
        "notice": "set the wallet receiving the proceeds"
      },
      "withdrawAssets(address,uint256[],uint256[])": {
        "notice": "enable Admin to withdraw remaining assets from EstateSaleWithFee contract"
      }
    },
    "notice": "This contract manages the sale of our lands as Estates"
  },
  "storageLayout": {
    "storage": [
      {
        "astId": 12779,
        "contract": "src/solc_0.6/EstateSale/EstateSaleWithFee.sol:EstateSaleWithFee",
        "label": "_admin",
        "offset": 0,
        "slot": "0",
        "type": "t_address"
      },
      {
        "astId": 12841,
        "contract": "src/solc_0.6/EstateSale/EstateSaleWithFee.sol:EstateSaleWithFee",
        "label": "_metaTransactionContracts",
        "offset": 0,
        "slot": "1",
        "type": "t_mapping(t_address,t_bool)"
      },
      {
        "astId": 10957,
        "contract": "src/solc_0.6/EstateSale/EstateSaleWithFee.sol:EstateSaleWithFee",
        "label": "_signingWallet",
        "offset": 0,
        "slot": "2",
        "type": "t_address"
      },
      {
        "astId": 10959,
        "contract": "src/solc_0.6/EstateSale/EstateSaleWithFee.sol:EstateSaleWithFee",
        "label": "_maxCommissionRate",
        "offset": 0,
        "slot": "3",
        "type": "t_uint256"
      },
      {
        "astId": 10963,
        "contract": "src/solc_0.6/EstateSale/EstateSaleWithFee.sol:EstateSaleWithFee",
        "label": "_previousSigningWallets",
        "offset": 0,
        "slot": "4",
        "type": "t_mapping(t_address,t_uint256)"
      },
      {
        "astId": 10972,
        "contract": "src/solc_0.6/EstateSale/EstateSaleWithFee.sol:EstateSaleWithFee",
        "label": "_previousSigningDelay",
        "offset": 0,
        "slot": "5",
        "type": "t_uint256"
      },
      {
        "astId": 7344,
        "contract": "src/solc_0.6/EstateSale/EstateSaleWithFee.sol:EstateSaleWithFee",
        "label": "_wallet",
        "offset": 0,
        "slot": "6",
        "type": "t_address_payable"
      },
      {
        "astId": 7354,
        "contract": "src/solc_0.6/EstateSale/EstateSaleWithFee.sol:EstateSaleWithFee",
        "label": "_multiplier",
        "offset": 0,
        "slot": "7",
        "type": "t_uint256"
      }
    ],
    "types": {
      "t_address": {
        "encoding": "inplace",
        "label": "address",
        "numberOfBytes": "20"
      },
      "t_address_payable": {
        "encoding": "inplace",
        "label": "address payable",
        "numberOfBytes": "20"
      },
      "t_bool": {
        "encoding": "inplace",
        "label": "bool",
        "numberOfBytes": "1"
      },
      "t_mapping(t_address,t_bool)": {
        "encoding": "mapping",
        "key": "t_address",
        "label": "mapping(address => bool)",
        "numberOfBytes": "32",
        "value": "t_bool"
      },
      "t_mapping(t_address,t_uint256)": {
        "encoding": "mapping",
        "key": "t_address",
        "label": "mapping(address => uint256)",
        "numberOfBytes": "32",
        "value": "t_uint256"
      },
      "t_uint256": {
        "encoding": "inplace",
        "label": "uint256",
        "numberOfBytes": "32"
      }
    }
  }
}