{
  "address": "0xd66E157AA2f4e34C66C4f915c72b8C3dC9E15d39",
  "abi": [
    {
      "inputs": [
        {
          "internalType": "address",
          "name": "landAddress",
          "type": "address"
        },
        {
          "internalType": "address",
          "name": "sandContractAddress",
          "type": "address"
        },
        {
          "internalType": "address",
          "name": "initialMetaTx",
          "type": "address"
        },
        {
          "internalType": "address",
          "name": "admin",
          "type": "address"
        },
        {
          "internalType": "address payable",
          "name": "initialWalletAddress",
          "type": "address"
        },
        {
          "internalType": "bytes32",
          "name": "merkleRoot",
          "type": "bytes32"
        },
        {
          "internalType": "uint256",
          "name": "expiryTime",
          "type": "uint256"
        },
        {
          "internalType": "address",
          "name": "initialSigningWallet",
          "type": "address"
        },
        {
          "internalType": "uint256",
          "name": "initialMaxCommissionRate",
          "type": "uint256"
        },
        {
          "internalType": "address",
          "name": "estate",
          "type": "address"
        },
        {
          "internalType": "address",
          "name": "asset",
          "type": "address"
        },
        {
          "internalType": "address",
          "name": "feeDistributor",
          "type": "address"
        }
      ],
      "stateMutability": "nonpayable",
      "type": "constructor"
    },
    {
      "anonymous": false,
      "inputs": [
        {
          "indexed": false,
          "internalType": "address",
          "name": "oldAdmin",
          "type": "address"
        },
        {
          "indexed": false,
          "internalType": "address",
          "name": "newAdmin",
          "type": "address"
        }
      ],
      "name": "AdminChanged",
      "type": "event"
    },
    {
      "anonymous": false,
      "inputs": [
        {
          "indexed": true,
          "internalType": "address",
          "name": "buyer",
          "type": "address"
        },
        {
          "indexed": true,
          "internalType": "address",
          "name": "to",
          "type": "address"
        },
        {
          "indexed": true,
          "internalType": "uint256",
          "name": "topCornerId",
          "type": "uint256"
        },
        {
          "indexed": false,
          "internalType": "uint256",
          "name": "size",
          "type": "uint256"
        },
        {
          "indexed": false,
          "internalType": "uint256",
          "name": "price",
          "type": "uint256"
        },
        {
          "indexed": false,
          "internalType": "address",
          "name": "token",
          "type": "address"
        },
        {
          "indexed": false,
          "internalType": "uint256",
          "name": "amountPaid",
          "type": "uint256"
        }
      ],
      "name": "LandQuadPurchased",
      "type": "event"
    },
    {
      "anonymous": false,
      "inputs": [
        {
          "indexed": false,
          "internalType": "address",
          "name": "metaTransactionProcessor",
          "type": "address"
        },
        {
          "indexed": false,
          "internalType": "bool",
          "name": "enabled",
          "type": "bool"
        }
      ],
      "name": "MetaTransactionProcessor",
      "type": "event"
    },
    {
      "anonymous": false,
      "inputs": [
        {
          "indexed": true,
          "internalType": "address",
          "name": "referrer",
          "type": "address"
        },
        {
          "indexed": true,
          "internalType": "address",
          "name": "referee",
          "type": "address"
        },
        {
          "indexed": true,
          "internalType": "address",
          "name": "token",
          "type": "address"
        },
        {
          "indexed": false,
          "internalType": "uint256",
          "name": "amount",
          "type": "uint256"
        },
        {
          "indexed": false,
          "internalType": "uint256",
          "name": "commission",
          "type": "uint256"
        },
        {
          "indexed": false,
          "internalType": "uint256",
          "name": "commissionRate",
          "type": "uint256"
        }
      ],
      "name": "ReferralUsed",
      "type": "event"
    },
    {
      "inputs": [
        {
          "internalType": "address",
          "name": "buyer",
          "type": "address"
        },
        {
          "internalType": "address",
          "name": "to",
          "type": "address"
        },
        {
          "internalType": "address",
          "name": "reserved",
          "type": "address"
        },
        {
          "internalType": "uint256",
          "name": "x",
          "type": "uint256"
        },
        {
          "internalType": "uint256",
          "name": "y",
          "type": "uint256"
        },
        {
          "internalType": "uint256",
          "name": "size",
          "type": "uint256"
        },
        {
          "internalType": "uint256",
          "name": "priceInSand",
          "type": "uint256"
        },
        {
          "internalType": "uint256",
          "name": "adjustedPriceInSand",
          "type": "uint256"
        },
        {
          "internalType": "bytes32",
          "name": "salt",
          "type": "bytes32"
        },
        {
          "internalType": "uint256[]",
          "name": "assetIds",
          "type": "uint256[]"
        },
        {
          "internalType": "bytes32[]",
          "name": "proof",
          "type": "bytes32[]"
        },
        {
          "internalType": "bytes",
          "name": "referral",
          "type": "bytes"
        }
      ],
      "name": "buyLandWithSand",
      "outputs": [],
      "stateMutability": "nonpayable",
      "type": "function"
    },
    {
      "inputs": [
        {
          "internalType": "address",
          "name": "newAdmin",
          "type": "address"
        }
      ],
      "name": "changeAdmin",
      "outputs": [],
      "stateMutability": "nonpayable",
      "type": "function"
    },
    {
      "inputs": [
        {
          "internalType": "bytes",
          "name": "referral",
          "type": "bytes"
        }
      ],
      "name": "decodeReferral",
      "outputs": [
        {
          "internalType": "bytes",
          "name": "",
          "type": "bytes"
        },
        {
          "internalType": "address",
          "name": "",
          "type": "address"
        },
        {
          "internalType": "address",
          "name": "",
          "type": "address"
        },
        {
          "internalType": "uint256",
          "name": "",
          "type": "uint256"
        },
        {
          "internalType": "uint256",
          "name": "",
          "type": "uint256"
        }
      ],
      "stateMutability": "pure",
      "type": "function"
    },
    {
      "inputs": [],
      "name": "getAdmin",
      "outputs": [
        {
          "internalType": "address",
          "name": "",
          "type": "address"
        }
      ],
      "stateMutability": "view",
      "type": "function"
    },
    {
      "inputs": [],
      "name": "getExpiryTime",
      "outputs": [
        {
          "internalType": "uint256",
          "name": "",
          "type": "uint256"
        }
      ],
      "stateMutability": "view",
      "type": "function"
    },
    {
      "inputs": [],
      "name": "getMaxCommisionRate",
      "outputs": [
        {
          "internalType": "uint256",
          "name": "",
          "type": "uint256"
        }
      ],
      "stateMutability": "view",
      "type": "function"
    },
    {
      "inputs": [],
      "name": "getMerkleRoot",
      "outputs": [
        {
          "internalType": "bytes32",
          "name": "",
          "type": "bytes32"
        }
      ],
      "stateMutability": "view",
      "type": "function"
    },
    {
      "inputs": [],
      "name": "getSandMultiplier",
      "outputs": [
        {
          "internalType": "uint256",
          "name": "",
          "type": "uint256"
        }
      ],
      "stateMutability": "view",
      "type": "function"
    },
    {
      "inputs": [],
      "name": "getSigningWallet",
      "outputs": [
        {
          "internalType": "address",
          "name": "",
          "type": "address"
        }
      ],
      "stateMutability": "view",
      "type": "function"
    },
    {
      "inputs": [
        {
          "internalType": "address",
          "name": "who",
          "type": "address"
        }
      ],
      "name": "isMetaTransactionProcessor",
      "outputs": [
        {
          "internalType": "bool",
          "name": "",
          "type": "bool"
        }
      ],
      "stateMutability": "view",
      "type": "function"
    },
    {
      "inputs": [
        {
          "internalType": "bytes",
          "name": "signature",
          "type": "bytes"
        },
        {
          "internalType": "address",
          "name": "referrer",
          "type": "address"
        },
        {
          "internalType": "address",
          "name": "referee",
          "type": "address"
        },
        {
          "internalType": "uint256",
          "name": "expiryTime",
          "type": "uint256"
        },
        {
          "internalType": "uint256",
          "name": "commissionRate",
          "type": "uint256"
        }
      ],
      "name": "isReferralValid",
      "outputs": [
        {
          "internalType": "bool",
          "name": "",
          "type": "bool"
        }
      ],
      "stateMutability": "view",
      "type": "function"
    },
    {
      "inputs": [
        {
          "internalType": "address",
          "name": "",
          "type": "address"
        },
        {
          "internalType": "address",
          "name": "",
          "type": "address"
        },
        {
          "internalType": "uint256[]",
          "name": "",
          "type": "uint256[]"
        },
        {
          "internalType": "uint256[]",
          "name": "",
          "type": "uint256[]"
        },
        {
          "internalType": "bytes",
          "name": "",
          "type": "bytes"
        }
      ],
      "name": "onERC1155BatchReceived",
      "outputs": [
        {
          "internalType": "bytes4",
          "name": "",
          "type": "bytes4"
        }
      ],
      "stateMutability": "pure",
      "type": "function"
    },
    {
      "inputs": [
        {
          "internalType": "address",
          "name": "",
          "type": "address"
        },
        {
          "internalType": "address",
          "name": "",
          "type": "address"
        },
        {
          "internalType": "uint256",
          "name": "",
          "type": "uint256"
        },
        {
          "internalType": "uint256",
          "name": "",
          "type": "uint256"
        },
        {
          "internalType": "bytes",
          "name": "",
          "type": "bytes"
        }
      ],
      "name": "onERC1155Received",
      "outputs": [
        {
          "internalType": "bytes4",
          "name": "",
          "type": "bytes4"
        }
      ],
      "stateMutability": "pure",
      "type": "function"
    },
    {
      "inputs": [
        {
          "internalType": "uint256",
          "name": "newMultiplier",
          "type": "uint256"
        }
      ],
      "name": "rebalanceSand",
      "outputs": [],
      "stateMutability": "nonpayable",
      "type": "function"
    },
    {
      "inputs": [
        {
          "internalType": "address",
          "name": "metaTransactionProcessor",
          "type": "address"
        },
        {
          "internalType": "bool",
          "name": "enabled",
          "type": "bool"
        }
      ],
      "name": "setMetaTransactionProcessor",
      "outputs": [],
      "stateMutability": "nonpayable",
      "type": "function"
    },
    {
      "inputs": [
        {
          "internalType": "address payable",
          "name": "newWallet",
          "type": "address"
        }
      ],
      "name": "setReceivingWallet",
      "outputs": [],
      "stateMutability": "nonpayable",
      "type": "function"
    },
    {
      "inputs": [
        {
          "internalType": "uint256",
          "name": "newMaxCommissionRate",
          "type": "uint256"
        }
      ],
      "name": "updateMaxCommissionRate",
      "outputs": [],
      "stateMutability": "nonpayable",
      "type": "function"
    },
    {
      "inputs": [
        {
          "internalType": "address",
          "name": "newSigningWallet",
          "type": "address"
        }
      ],
      "name": "updateSigningWallet",
      "outputs": [],
      "stateMutability": "nonpayable",
      "type": "function"
    },
    {
      "inputs": [
        {
          "internalType": "address",
          "name": "to",
          "type": "address"
        },
        {
          "internalType": "uint256[]",
          "name": "assetIds",
          "type": "uint256[]"
        },
        {
          "internalType": "uint256[]",
          "name": "values",
          "type": "uint256[]"
        }
      ],
      "name": "withdrawAssets",
      "outputs": [],
      "stateMutability": "nonpayable",
      "type": "function"
    }
  ],
  "transactionHash": "0x235e50396b67d9062927ec201ac2c1e8ac1d9d049c3427f3fcbba09fe59d43c6",
  "args": [
    "0x50f5474724e0Ee42D9a4e711ccFB275809Fd6d4a",
    "0x3845badAde8e6dFF049820680d1F14bD3903a5d0",
    "0x3845badAde8e6dFF049820680d1F14bD3903a5d0",
    "0x18dd4e0eb8699eA4FeE238dE41ECfb95e32272f8",
    "0x4489590a116618B506F0EfE885432F6A8ED998E9",
    "0x2912253dcefe0b7ed8fdce417bdfd33820c7549a9628bf0a8f5e4bf6ac454961",
    1619701200,
    "0x3044719d139F866a44c988823513eCB93060bF1b",
    2000,
    "0x0000000000000000000000000000000000000000",
    "0xa342f5D851E866E18ff98F351f2c6637f4478dB5",
    "0x0EB04462D69B1D267d269377E34f60b9De1c8510"
  ],
  "linkedData": [
    {
      "x": 324,
      "y": 288,
      "size": 1,
      "price": "1011000000000000000000",
      "reserved": "",
      "salt": "0x6caed9d744a31ec144f98f5f7ad6e346f71e851ef87a0d58341bfc374202be0b",
      "assetIds": []
    },
    {
      "x": 324,
      "y": 289,
      "size": 1,
      "price": "1011000000000000000000",
      "reserved": "",
      "salt": "0xed1d92bb51e56448984fdf5e51be68eac7d1d28a348f33097198fda59550ac9e",
      "assetIds": []
    },
    {
      "x": 324,
      "y": 290,
      "size": 1,
      "price": "1011000000000000000000",
      "reserved": "0x7a9fe22691c811ea339d9b73150e6911a5343dca",
      "salt": "0x81252c76dc4af34e2f32ac684c0d18144caa72694081f1535bfd2eeb3c0918e9",
      "assetIds": []
    },
    {
      "x": 324,
      "y": 291,
      "size": 1,
      "price": "1011000000000000000000",
      "reserved": "",
      "salt": "0x7ff7916524ebd81b105de913a1297d06c52c60a35d7a2cfa724313397ec2b6cf",
      "assetIds": []
    },
    {
      "x": 324,
      "y": 292,
      "size": 1,
      "price": "1011000000000000000000",
      "reserved": "",
      "salt": "0x701eeb993a384cab8defd159c6e3ea142560eb23a2c83b5f7b31094973228345",
      "assetIds": []
    },
    {
      "x": 324,
      "y": 293,
      "size": 1,
      "price": "1011000000000000000000",
      "reserved": "",
      "salt": "0x188aa58442539bcb17d2b9c3e2c9da57a3014bca330e21f616238a6537eeb083",
      "assetIds": []
    },
    {
      "x": 324,
      "y": 294,
      "size": 1,
      "price": "1011000000000000000000",
      "reserved": "",
      "salt": "0xf345a2da066550c38137e731162502c5439d7dd6fc2377f3e93b94c0d3012922",
      "assetIds": []
    },
    {
      "x": 324,
      "y": 295,
      "size": 1,
      "price": "1011000000000000000000",
      "reserved": "",
      "salt": "0x8559a10fe4b687189e6965f08d61ff902d858b35a6abd7cd27122051bcdaf24f",
      "assetIds": []
    },
    {
      "x": 324,
      "y": 296,
      "size": 1,
      "price": "1011000000000000000000",
      "reserved": "",
      "salt": "0xf4845168b40d410012940b81425110180bad392ea3ba0e31ec05ea18113ad611",
      "assetIds": []
    },
    {
      "x": 324,
      "y": 297,
      "size": 1,
      "price": "1011000000000000000000",
      "reserved": "",
      "salt": "0xa12148811465ce2bb6bf52b00d090c06cbc9676500ef8ba56e64a861a8d6ab98",
      "assetIds": []
    },
    {
      "x": 325,
      "y": 288,
      "size": 1,
      "price": "1011000000000000000000",
      "reserved": "",
      "salt": "0x709e362f1fc2f5ad9d2fcfc89fa70572656164171aa57b9385bc0c145dbe58f8",
      "assetIds": []
    },
    {
      "x": 325,
      "y": 289,
      "size": 1,
      "price": "1011000000000000000000",
      "reserved": "",
      "salt": "0xf403c5d3813cdc04c42646eb432a746ec7a2b4110e04e6bb174eb2c4af6ac180",
      "assetIds": []
    },
    {
      "x": 325,
      "y": 290,
      "size": 1,
      "price": "1011000000000000000000",
      "reserved": "",
      "salt": "0x38aef6e4075a8e5679957bd20b14a8e473b9b4c469c363b2f467bb4e75027bf5",
      "assetIds": []
    },
    {
      "x": 325,
      "y": 291,
      "size": 1,
      "price": "1011000000000000000000",
      "reserved": "",
      "salt": "0x31dd4eb0477ff448901e7c7113c6fb3e236e24dba76cfbf321aeebde939b184c",
      "assetIds": []
    },
    {
      "x": 325,
      "y": 292,
      "size": 1,
      "price": "1011000000000000000000",
      "reserved": "",
      "salt": "0x47602296ecb0cc7c8a67e52a7dfd670db6f2fa50390b286317eaf8eb1724cb20",
      "assetIds": []
    },
    {
      "x": 325,
      "y": 293,
      "size": 1,
      "price": "1011000000000000000000",
      "reserved": "",
      "salt": "0x5cadffdf962f8fdf22ff72a0f7c93d3d4c8f4275b401eb9fad7f46ceac8a099c",
      "assetIds": []
    },
    {
      "x": 325,
      "y": 294,
      "size": 1,
      "price": "1011000000000000000000",
      "reserved": "",
      "salt": "0xc27615d6c2e72c7efd1f55acf4b22cf5bee1191a7262437913dc792964f91315",
      "assetIds": []
    },
    {
      "x": 325,
      "y": 295,
      "size": 1,
      "price": "1011000000000000000000",
      "reserved": "",
      "salt": "0x1e575cd4f203bb28aeefe09ba43410b361e554ff5747488cc55caf28a06ffc38",
      "assetIds": []
    },
    {
      "x": 325,
      "y": 296,
      "size": 1,
      "price": "1011000000000000000000",
      "reserved": "",
      "salt": "0xcb8e61fbac7c313f860bb43a22de062827b9fcf832f122fecaaeb4906e312fb4",
      "assetIds": []
    },
    {
      "x": 325,
      "y": 297,
      "size": 1,
      "price": "1011000000000000000000",
      "reserved": "",
      "salt": "0x6ae52e13d5394d7cc0caae141cbc965013c3b540303952233c2696cc6f0682da",
      "assetIds": []
    },
    {
      "x": 326,
      "y": 288,
      "size": 1,
      "price": "1011000000000000000000",
      "reserved": "",
      "salt": "0x8e2f115fe32ddfc2a33a2ac8c34da6d0fc58c3bad78ec554fca47c944f4caaaa",
      "assetIds": []
    },
    {
      "x": 326,
      "y": 289,
      "size": 1,
      "price": "1011000000000000000000",
      "reserved": "",
      "salt": "0xc019abe583cb582c88522dbdd3faaaceab16d51588f375567c6af57d30724e3a",
      "assetIds": []
    },
    {
      "x": 326,
      "y": 290,
      "size": 1,
      "price": "1011000000000000000000",
      "reserved": "",
      "salt": "0x91f837dbf275c7acd2d72840a051c7aab317e1f33866b2ae27a275663c178731",
      "assetIds": []
    },
    {
      "x": 326,
      "y": 291,
      "size": 1,
      "price": "1011000000000000000000",
      "reserved": "",
      "salt": "0x0e80b3095190070ec03f5789fbe97167e261d6a99d14848239fc42bf5d9c22a3",
      "assetIds": []
    },
    {
      "x": 326,
      "y": 292,
      "size": 1,
      "price": "1011000000000000000000",
      "reserved": "",
      "salt": "0x7ba4cc90d4620d2f02946119f7cad11c34d9b891bd039e8408c64affe0acb540",
      "assetIds": []
    },
    {
      "x": 326,
      "y": 293,
      "size": 1,
      "price": "1011000000000000000000",
      "reserved": "",
      "salt": "0x7206cf84da7971ac3781f71bb28776cdfee658a20b7f283c066fc95ff6ad0173",
      "assetIds": []
    },
    {
      "x": 326,
      "y": 294,
      "size": 1,
      "price": "1011000000000000000000",
      "reserved": "",
      "salt": "0x50431b968f1221512aa689c22cce3572c63b9a3b34dad539406bf6321897e4c8",
      "assetIds": []
    },
    {
      "x": 326,
      "y": 295,
      "size": 1,
      "price": "1011000000000000000000",
      "reserved": "",
      "salt": "0x2eb75b73badf60a494be84a9596a1232a48b816da0a51716e3b9388dd508861e",
      "assetIds": []
    },
    {
      "x": 326,
      "y": 296,
      "size": 1,
      "price": "1011000000000000000000",
      "reserved": "",
      "salt": "0xe4dc62ebfb8f8d5d7a63754f0828e83525070baf5e7c9c112dd0cdbeaa91acdd",
      "assetIds": []
    },
    {
      "x": 326,
      "y": 297,
      "size": 1,
      "price": "1011000000000000000000",
      "reserved": "",
      "salt": "0xd6012a5f11dbff9df8b92b3768b93c15018bf7e468b37b8b9789a8e2b21edfa4",
      "assetIds": []
    },
    {
      "x": 326,
      "y": 298,
      "size": 1,
      "price": "1011000000000000000000",
      "reserved": "",
      "salt": "0xd6f9a52cb3f263b7184195f76939fd854cd90f1e6d1bb94dc8cb4c4fe3fc05eb",
      "assetIds": []
    },
    {
      "x": 326,
      "y": 299,
      "size": 1,
      "price": "1011000000000000000000",
      "reserved": "",
      "salt": "0x32e930a18e6650fa1376448623b5aaeae30c04ffedc1ccfd3e664b25c0475d43",
      "assetIds": []
    },
    {
      "x": 327,
      "y": 288,
      "size": 1,
      "price": "1011000000000000000000",
      "reserved": "0x7a9fe22691c811ea339d9b73150e6911a5343dca",
      "salt": "0xf9ea132626c6f4d79790939cf5836546ccfcf25bb41ae4f5bfc599b4f1b35123",
      "assetIds": []
    },
    {
      "x": 327,
      "y": 289,
      "size": 1,
      "price": "1011000000000000000000",
      "reserved": "",
      "salt": "0xae1169d1fca051bf9c85c0542d5b9829672418d4e958176cc90429a05ae7f9c8",
      "assetIds": []
    },
    {
      "x": 327,
      "y": 290,
      "size": 1,
      "price": "1011000000000000000000",
      "reserved": "",
      "salt": "0xb91aaa9e5c81b118bc5452c801c0121d1925ac1813b1c8ac3f4340166649a230",
      "assetIds": []
    },
    {
      "x": 327,
      "y": 291,
      "size": 1,
      "price": "1011000000000000000000",
      "reserved": "",
      "salt": "0xbdb3517d180f6146e3d81c0b2ce42429b749c196f6173299e2dea4f432bff6b0",
      "assetIds": []
    },
    {
      "x": 327,
      "y": 292,
      "size": 1,
      "price": "1011000000000000000000",
      "reserved": "",
      "salt": "0x15ed1f91434d7bf2cd09df9fd8736614556379512781b26fd68a23eeab54a809",
      "assetIds": []
    },
    {
      "x": 327,
      "y": 293,
      "size": 1,
      "price": "1011000000000000000000",
      "reserved": "",
      "salt": "0xee8d77f8ec2a1ce263958a5048498360fcd53d0ada186a2312338718188ea57b",
      "assetIds": []
    },
    {
      "x": 327,
      "y": 294,
      "size": 1,
      "price": "1011000000000000000000",
      "reserved": "",
      "salt": "0xa16f05442d805940c60df3ea157a9741fdd8831a039a5c8227ff047eab87b7ea",
      "assetIds": []
    },
    {
      "x": 327,
      "y": 295,
      "size": 1,
      "price": "1011000000000000000000",
      "reserved": "",
      "salt": "0x3a7bf518072dbc5bd0b9ed753a44a2368a4cd252944e5b5c95627663f464d6e8",
      "assetIds": []
    },
    {
      "x": 327,
      "y": 296,
      "size": 1,
      "price": "1011000000000000000000",
      "reserved": "0x7a9fe22691c811ea339d9b73150e6911a5343dca",
      "salt": "0x7a177b4469c31e566156217883a3fcb80a918a01142d9636d34b85d3374b501f",
      "assetIds": []
    },
    {
      "x": 327,
      "y": 297,
      "size": 1,
      "price": "1011000000000000000000",
      "reserved": "",
      "salt": "0xd8fc654ba93996dc82a6225cf9488efde0ab47be39c451ebce355c48da6d26ad",
      "assetIds": []
    },
    {
      "x": 327,
      "y": 298,
      "size": 1,
      "price": "1011000000000000000000",
      "reserved": "",
      "salt": "0x9ff95e168ed22b091d74e9bb96c2761d248824355ad994b927d934688127689b",
      "assetIds": []
    },
    {
      "x": 327,
      "y": 299,
      "size": 1,
      "price": "1011000000000000000000",
      "reserved": "",
      "salt": "0x2343c1a48e23b6da9a9f62dc19570227779c8c30ee5d979e7e94f3260c4dc574",
      "assetIds": []
    },
    {
      "x": 328,
      "y": 288,
      "size": 1,
      "price": "1011000000000000000000",
      "reserved": "",
      "salt": "0x6d944092efbfe580ae5e97905c91dddf5bd3d2e48bbb19eef23bcf5e85aae098",
      "assetIds": []
    },
    {
      "x": 328,
      "y": 289,
      "size": 1,
      "price": "1011000000000000000000",
      "reserved": "",
      "salt": "0xd581720d36425ce35739b2bf22aac5e84274a8d45da4e4256c249371ed7bbe09",
      "assetIds": []
    },
    {
      "x": 328,
      "y": 290,
      "size": 1,
      "price": "1011000000000000000000",
      "reserved": "",
      "salt": "0xbadfac81b904f0d65e80d45ead40625a3c93213fba74fbe8239070b698cc909f",
      "assetIds": []
    },
    {
      "x": 328,
      "y": 291,
      "size": 1,
      "price": "1011000000000000000000",
      "reserved": "",
      "salt": "0x5a287fa75dbb5b7a9d7355dfea7a85158b5125f63fa01adbe6d34e414718189e",
      "assetIds": []
    },
    {
      "x": 328,
      "y": 292,
      "size": 1,
      "price": "1011000000000000000000",
      "reserved": "",
      "salt": "0x0121a521ab9a2d6572cd6e39e16dd17c3f1e914ffc68b977746fbd117be8f286",
      "assetIds": []
    },
    {
      "x": 328,
      "y": 293,
      "size": 1,
      "price": "1011000000000000000000",
      "reserved": "",
      "salt": "0x4c7b9764ceef958bd8c1833bc3ff72cc3400fcd4b5836783118a911feff1e953",
      "assetIds": []
    },
    {
      "x": 328,
      "y": 294,
      "size": 1,
      "price": "1011000000000000000000",
      "reserved": "",
      "salt": "0x83b5b2c081ea8d392b7a584269980a727ec7987be9b63ce6455ea549d5bb5137",
      "assetIds": []
    },
    {
      "x": 328,
      "y": 295,
      "size": 1,
      "price": "1011000000000000000000",
      "reserved": "",
      "salt": "0x7d91bd295ee533a79a4307a2538e6df716937a59c678c1dc28726b3903b08f5f",
      "assetIds": []
    },
    {
      "x": 328,
      "y": 296,
      "size": 1,
      "price": "1011000000000000000000",
      "reserved": "",
      "salt": "0x5ce3bc412281c7adbe76413ed8b545548ed724d666c87ea1e7a1349b5a4f5c1a",
      "assetIds": []
    },
    {
      "x": 328,
      "y": 297,
      "size": 1,
      "price": "1011000000000000000000",
      "reserved": "",
      "salt": "0xffbe0ae9035e5c06e8bf49f3b2ec261d4bea2bb5509c7a2f3335f948cc747509",
      "assetIds": []
    },
    {
      "x": 328,
      "y": 298,
      "size": 1,
      "price": "1011000000000000000000",
      "reserved": "",
      "salt": "0xaad8a4ab878bff149b40d4e0e4771a453e0da7190d6371b9dee8484d5b598a18",
      "assetIds": []
    },
    {
      "x": 328,
      "y": 299,
      "size": 1,
      "price": "1011000000000000000000",
      "reserved": "",
      "salt": "0xe92b9f3bc6ea847ffc90cafddd6efbca7a7453cc36353342d7a284a8c134817d",
      "assetIds": []
    },
    {
      "x": 329,
      "y": 288,
      "size": 1,
      "price": "1011000000000000000000",
      "reserved": "",
      "salt": "0x3003d307a28cf80e32743a9203cd6c162a19c3aaa3ca6f7580c93a6bd3503275",
      "assetIds": []
    },
    {
      "x": 329,
      "y": 289,
      "size": 1,
      "price": "1011000000000000000000",
      "reserved": "",
      "salt": "0xbc9719eb1b15cfe67039e1f80fef516ca242ab5c1ef1e3fc3005f26e4bdc8b98",
      "assetIds": []
    },
    {
      "x": 329,
      "y": 290,
      "size": 1,
      "price": "1011000000000000000000",
      "reserved": "",
      "salt": "0x50937ef57b195918e60e7887c3621567debd326398a3c23655187998747cf79a",
      "assetIds": []
    },
    {
      "x": 329,
      "y": 291,
      "size": 1,
      "price": "1011000000000000000000",
      "reserved": "",
      "salt": "0x9fc95968b3f30800301842f3819b53e9bf0122d01517b31a7f4e43b82e6bc391",
      "assetIds": []
    },
    {
      "x": 329,
      "y": 292,
      "size": 1,
      "price": "1011000000000000000000",
      "reserved": "",
      "salt": "0x99fd66eb18137b259dec9577a3f8f611a5e2987b237e0910ad4289854a8b3198",
      "assetIds": []
    },
    {
      "x": 329,
      "y": 293,
      "size": 1,
      "price": "1011000000000000000000",
      "reserved": "",
      "salt": "0x1bdd24774871d4404f2a3d4b1b82d7ceab158eac7487d26a94dda7df8e04f641",
      "assetIds": []
    },
    {
      "x": 329,
      "y": 294,
      "size": 1,
      "price": "1011000000000000000000",
      "reserved": "",
      "salt": "0x2e11e74be87c96629f14996601fdc599d675b7f91ca8a4b1ff6cc4571827fe3c",
      "assetIds": []
    },
    {
      "x": 329,
      "y": 295,
      "size": 1,
      "price": "1011000000000000000000",
      "reserved": "",
      "salt": "0x044d34d3e73c9abefaf8f614c680035dac9a37ff362b7154a9b69a11394f6ce3",
      "assetIds": []
    },
    {
      "x": 329,
      "y": 296,
      "size": 1,
      "price": "1011000000000000000000",
      "reserved": "",
      "salt": "0xf282c1766abbba3d4793e8d6501f9f3ac5f92644544349a3afcabf1eaff16554",
      "assetIds": []
    },
    {
      "x": 329,
      "y": 297,
      "size": 1,
      "price": "1011000000000000000000",
      "reserved": "",
      "salt": "0x8dc86aa82a7d7f75cba2933292c42e840ca32ebca085430d36238a6ad374e3d2",
      "assetIds": []
    },
    {
      "x": 329,
      "y": 298,
      "size": 1,
      "price": "1011000000000000000000",
      "reserved": "",
      "salt": "0x4044f54ed6bcfc82a8b9e8c54b6a5d5255c6d04008f2fca05c85b5a57fa3b905",
      "assetIds": []
    },
    {
      "x": 329,
      "y": 299,
      "size": 1,
      "price": "1011000000000000000000",
      "reserved": "",
      "salt": "0xa966a2bc4acd4e3e9ec2d0d193cecffadc360744148ccae51a00b57c8ef91d62",
      "assetIds": []
    },
    {
      "x": 330,
      "y": 288,
      "size": 1,
      "price": "1011000000000000000000",
      "reserved": "",
      "salt": "0x67ae02adbe0314d5f22abfd97f8c6488a5a08d8575fcf0a8124fbbbd6f9affd9",
      "assetIds": []
    },
    {
      "x": 330,
      "y": 289,
      "size": 1,
      "price": "1011000000000000000000",
      "reserved": "",
      "salt": "0x72673511f9539b4d0929aa997fba4221959a2d98884383d65a7bf7280fbc0a81",
      "assetIds": []
    },
    {
      "x": 330,
      "y": 290,
      "size": 1,
      "price": "1011000000000000000000",
      "reserved": "",
      "salt": "0x2787eaa6e7717ddb27c0b322fd91461c294d94c966bccbea826a34009c4755f8",
      "assetIds": []
    },
    {
      "x": 330,
      "y": 291,
      "size": 1,
      "price": "1011000000000000000000",
      "reserved": "",
      "salt": "0xd5f44e8ce3e68cbd34bd5c92b26bb7d4304e430a6d5f7f8d56ef663413ad690e",
      "assetIds": []
    },
    {
      "x": 330,
      "y": 292,
      "size": 1,
      "price": "1011000000000000000000",
      "reserved": "",
      "salt": "0xdb4a98499ba222ce61a52c3c53640c4019c9ad0ff934f6c546fa19adb1689f07",
      "assetIds": []
    },
    {
      "x": 330,
      "y": 293,
      "size": 1,
      "price": "1011000000000000000000",
      "reserved": "",
      "salt": "0xc830f2c4be39228ee70fd91e4b4a73b84867f5053144c253ac7efa2082c5a41a",
      "assetIds": []
    },
    {
      "x": 331,
      "y": 288,
      "size": 1,
      "price": "1011000000000000000000",
      "reserved": "",
      "salt": "0x2d8159999d6cfa9c6a23ef18502804d6f660aec21cd2a489fa2f2acb0c360845",
      "assetIds": []
    },
    {
      "x": 331,
      "y": 289,
      "size": 1,
      "price": "1011000000000000000000",
      "reserved": "",
      "salt": "0x5edfad702a3d7615446533cee5a053a37f7155aa13606df816c17ef20e7fec62",
      "assetIds": []
    },
    {
      "x": 331,
      "y": 290,
      "size": 1,
      "price": "1011000000000000000000",
      "reserved": "",
      "salt": "0x656bbae2278cc1ecc611bdbd6e380d5d7f1b9bd0489091e2e34c3e6de81bbde9",
      "assetIds": []
    },
    {
      "x": 331,
      "y": 291,
      "size": 1,
      "price": "1011000000000000000000",
      "reserved": "",
      "salt": "0x14dadb4016e83949b5ef18b84969afa5c0505306610212f128093fd2fd5c515b",
      "assetIds": []
    },
    {
      "x": 331,
      "y": 292,
      "size": 1,
      "price": "1011000000000000000000",
      "reserved": "",
      "salt": "0x22868b1de97f0984dd64d38146a6483b9faee769c6db060b861006186e79682e",
      "assetIds": []
    },
    {
      "x": 331,
      "y": 293,
      "size": 1,
      "price": "1011000000000000000000",
      "reserved": "",
      "salt": "0x98b91b4a23437e84c5fdc31d371a289f5f0a79d3717ce2f58dc43b52e5385fb8",
      "assetIds": []
    },
    {
      "x": 332,
      "y": 288,
      "size": 1,
      "price": "1011000000000000000000",
      "reserved": "",
      "salt": "0xf5da018c3d238353412103ac946611a16ed8447c9824c682036c352758bb5261",
      "assetIds": []
    },
    {
      "x": 332,
      "y": 289,
      "size": 1,
      "price": "1011000000000000000000",
      "reserved": "",
      "salt": "0x037fc1fd7e625d9808489e4e6569dd117456e00f5f2cb65760e9382e9c7ae9b4",
      "assetIds": []
    },
    {
      "x": 332,
      "y": 290,
      "size": 1,
      "price": "1011000000000000000000",
      "reserved": "",
      "salt": "0x9ab83d9884942e031e04e83cfe667a75aed58478d3a87014e875a2aac5a2d0d3",
      "assetIds": []
    },
    {
      "x": 332,
      "y": 291,
      "size": 1,
      "price": "1011000000000000000000",
      "reserved": "",
      "salt": "0xcdc42441689025de3027e29541a3acbd72c43e01910819b3473a8f7953b4b551",
      "assetIds": []
    },
    {
      "x": 332,
      "y": 292,
      "size": 1,
      "price": "1011000000000000000000",
      "reserved": "",
      "salt": "0x2f0ffea89ec36e817fe0821d82b1abc714755d89710ea747fc9b5041d2712237",
      "assetIds": []
    },
    {
      "x": 332,
      "y": 293,
      "size": 1,
      "price": "1011000000000000000000",
      "reserved": "",
      "salt": "0xbc29210bc2277fb80731ae8acfde9b96a211879640d4b960aff5937f37a66cb6",
      "assetIds": []
    },
    {
      "x": 333,
      "y": 261,
      "size": 1,
      "price": "1011000000000000000000",
      "reserved": "",
      "salt": "0x98cddcec593c5c91ea3432c9df3f965f990ca158e23a7b3e4a910b95617824ed",
      "assetIds": []
    },
    {
      "x": 333,
      "y": 262,
      "size": 1,
      "price": "1011000000000000000000",
      "reserved": "",
      "salt": "0xa3f8f4ae1702f85dbd330381c822b4154ff935657beefe44ab39243c00502e1f",
      "assetIds": []
    },
    {
      "x": 333,
      "y": 263,
      "size": 1,
      "price": "1011000000000000000000",
      "reserved": "",
      "salt": "0x7efe8f8a242fc5aded108c86a9587a1f3632ab22b2c171b7d4cba71645cf40a9",
      "assetIds": []
    },
    {
      "x": 333,
      "y": 288,
      "size": 1,
      "price": "1011000000000000000000",
      "reserved": "",
      "salt": "0x65e39fc3f036c2382f9b2544357905c7fab752bd5f25a9c67f00157e722e742a",
      "assetIds": []
    },
    {
      "x": 333,
      "y": 289,
      "size": 1,
      "price": "1011000000000000000000",
      "reserved": "",
      "salt": "0xa3b0eccf872c54d84814f18946665274c7b29dd8a730bbb0d98a6f2addc5b654",
      "assetIds": []
    },
    {
      "x": 333,
      "y": 290,
      "size": 1,
      "price": "1011000000000000000000",
      "reserved": "",
      "salt": "0x6d125080e82abc65676059b2e60ef388f7fb7dd2f422a470e96d514b8ec6d344",
      "assetIds": []
    },
    {
      "x": 334,
      "y": 261,
      "size": 1,
      "price": "1011000000000000000000",
      "reserved": "",
      "salt": "0xb96f6afb2ae0c49116ebcd6fd368e61d27d9eee542e860a3bac2e7ce4945e7a6",
      "assetIds": []
    },
    {
      "x": 334,
      "y": 262,
      "size": 1,
      "price": "1011000000000000000000",
      "reserved": "",
      "salt": "0xaef89b0d5866bf2c1600b2e86fefff464e95bc89d4bce0f8611c555143e790bc",
      "assetIds": []
    },
    {
      "x": 334,
      "y": 263,
      "size": 1,
      "price": "1011000000000000000000",
      "reserved": "",
      "salt": "0x7d7f33b594f05aa788443aa5ec4f6615e74b07b34f0c08ba07482d82aa0ecee8",
      "assetIds": []
    },
    {
      "x": 334,
      "y": 288,
      "size": 1,
      "price": "1011000000000000000000",
      "reserved": "",
      "salt": "0x076754460e24b9bd92305071925300bbf2ac79ad183b980cede88a3fcba8adc5",
      "assetIds": []
    },
    {
      "x": 334,
      "y": 289,
      "size": 1,
      "price": "1011000000000000000000",
      "reserved": "",
      "salt": "0xc07fcd1d87a6e86786a53df68729a6cd2bc16a8b956856365e7cc52729c02b02",
      "assetIds": []
    },
    {
      "x": 334,
      "y": 290,
      "size": 1,
      "price": "1011000000000000000000",
      "reserved": "",
      "salt": "0xcbf2d2a454c37882f90ab7a64f7328fb76bdf49b2f922ef202d982999e19a630",
      "assetIds": []
    },
    {
      "x": 335,
      "y": 261,
      "size": 1,
      "price": "1011000000000000000000",
      "reserved": "",
      "salt": "0x35a0587167fcf2b64840ca234a21d80a33d58e45181b581b623f6918bd8b73b4",
      "assetIds": []
    },
    {
      "x": 335,
      "y": 262,
      "size": 1,
      "price": "1011000000000000000000",
      "reserved": "",
      "salt": "0xeefb350dc25322f06abba6e842ed87949ed179e0ac0d126ca4a73bef5bddb2ed",
      "assetIds": []
    },
    {
      "x": 335,
      "y": 263,
      "size": 1,
      "price": "1011000000000000000000",
      "reserved": "",
      "salt": "0x78d067106d051ea947db06290cef6df423e4697b15010cff41e511000e3d25f5",
      "assetIds": []
    },
    {
      "x": 335,
      "y": 288,
      "size": 1,
      "price": "1011000000000000000000",
      "reserved": "0x7a9fe22691c811ea339d9b73150e6911a5343dca",
      "salt": "0x9890847feb7bcb31bc20464175f504666b21f8c77554727594e7824f48bc3b3b",
      "assetIds": []
    },
    {
      "x": 335,
      "y": 289,
      "size": 1,
      "price": "1011000000000000000000",
      "reserved": "",
      "salt": "0x13a3b08a31f4c8df42e2955f312fb9b29a01a4e4b6d5a89932d9b7128006da95",
      "assetIds": []
    },
    {
      "x": 335,
      "y": 290,
      "size": 1,
      "price": "1011000000000000000000",
      "reserved": "",
      "salt": "0x1403609cdd9c98f8c9578b3c0aeeae6813f3f7687beadae9edc0fc753159aaae",
      "assetIds": []
    },
    {
      "x": 336,
      "y": 252,
      "size": 1,
      "price": "1011000000000000000000",
      "reserved": "",
      "salt": "0xa716c3f7387c6366f866301e18380da0a28507c972df54db8bec38fd6ab9a165",
      "assetIds": []
    },
    {
      "x": 336,
      "y": 253,
      "size": 1,
      "price": "1011000000000000000000",
      "reserved": "",
      "salt": "0x978c6efda63d2fe88d4f7400f2a2c95c1647f79fd25534bba45c9dbdcae39d74",
      "assetIds": []
    },
    {
      "x": 336,
      "y": 254,
      "size": 1,
      "price": "1011000000000000000000",
      "reserved": "",
      "salt": "0xde4cd25ac159efaff935301d684a20df3755e6836ca05d30a44ee10cc2eddcdf",
      "assetIds": []
    },
    {
      "x": 336,
      "y": 258,
      "size": 1,
      "price": "1011000000000000000000",
      "reserved": "",
      "salt": "0xe08861a6b76632ed0be05d8ba07f4c17ce95b37d68628773b51672df49cb1069",
      "assetIds": []
    },
    {
      "x": 336,
      "y": 259,
      "size": 1,
      "price": "1011000000000000000000",
      "reserved": "",
      "salt": "0x00a9a68af9fbdf766543113987466316cc6606a36d674382d0c250c06e2072de",
      "assetIds": []
    },
    {
      "x": 336,
      "y": 260,
      "size": 1,
      "price": "1011000000000000000000",
      "reserved": "",
      "salt": "0x60955f3d4aa805ce83a148ebdf097133c5a8656047bfddd4b6cb9a967f82f85b",
      "assetIds": []
    },
    {
      "x": 336,
      "y": 261,
      "size": 1,
      "price": "1011000000000000000000",
      "reserved": "",
      "salt": "0x6723bf31e6df3f7ef68e4e99e5d6a5a3fc7d2d87b1850bed6e9d610058b4f430",
      "assetIds": []
    },
    {
      "x": 336,
      "y": 262,
      "size": 1,
      "price": "1011000000000000000000",
      "reserved": "",
      "salt": "0xb3e4d25eb134aa5bb8646885e472473699f0f859cea63e55db821543ec3c77d8",
      "assetIds": []
    },
    {
      "x": 336,
      "y": 263,
      "size": 1,
      "price": "1011000000000000000000",
      "reserved": "",
      "salt": "0x07e21a240eecc5cb93ec2332cee5eba2ad087e9b78b620e9bc859b664d62a0a1",
      "assetIds": []
    },
    {
      "x": 336,
      "y": 288,
      "size": 1,
      "price": "1011000000000000000000",
      "reserved": "",
      "salt": "0x370d9ae66b6db0ca175efbea126b0332720315fea7f0f2336319571e1f00a9aa",
      "assetIds": []
    },
    {
      "x": 336,
      "y": 289,
      "size": 1,
      "price": "1011000000000000000000",
      "reserved": "",
      "salt": "0xd7845b69cd0004c2b7d7941585e1117baabd7b07e4635f935b3f0428fa626588",
      "assetIds": []
    },
    {
      "x": 336,
      "y": 290,
      "size": 1,
      "price": "1011000000000000000000",
      "reserved": "",
      "salt": "0xd0cdbf63f137a3bf68f722f4abe5487c83c3858dca6cfc1f2a2903f54d4a7f30",
      "assetIds": []
    },
    {
      "x": 336,
      "y": 291,
      "size": 1,
      "price": "1011000000000000000000",
      "reserved": "",
      "salt": "0x4230e6924cfaf56678510488389ebe338f45d6c9cd5fd072be0806fa30545c27",
      "assetIds": []
    },
    {
      "x": 336,
      "y": 292,
      "size": 1,
      "price": "1011000000000000000000",
      "reserved": "",
      "salt": "0x10b9f09cecfe6dd111ea7483579b0361cf82833274fb97055ff18ef0fd4bece0",
      "assetIds": []
    },
    {
      "x": 336,
      "y": 293,
      "size": 1,
      "price": "1011000000000000000000",
      "reserved": "",
      "salt": "0xdc1802e3775f93c7cd29ececb81be5adb34eb21bf4f2e85627f2e4d85acc92cf",
      "assetIds": []
    },
    {
      "x": 336,
      "y": 294,
      "size": 1,
      "price": "1011000000000000000000",
      "reserved": "",
      "salt": "0xd4b854c51f55a9f0422315e2be37c8ac30dd546755d46eb487a9906994fbe1c6",
      "assetIds": []
    },
    {
      "x": 336,
      "y": 295,
      "size": 1,
      "price": "1011000000000000000000",
      "reserved": "",
      "salt": "0x431c05c05419303998d9ab2e096b5ae0871f91b8ddc1f182a5f02731b19b6929",
      "assetIds": []
    },
    {
      "x": 336,
      "y": 296,
      "size": 1,
      "price": "1011000000000000000000",
      "reserved": "",
      "salt": "0x275d4471955121f63c270f9d3781f18d37b6ea10f02fbf149b669e16a6d01731",
      "assetIds": []
    },
    {
      "x": 336,
      "y": 297,
      "size": 1,
      "price": "1011000000000000000000",
      "reserved": "",
      "salt": "0xc408ac5a1fd8e9a687da7bcc490549140a8fe29ec480958bf4a572d645130ef6",
      "assetIds": []
    },
    {
      "x": 336,
      "y": 298,
      "size": 1,
      "price": "1011000000000000000000",
      "reserved": "",
      "salt": "0xfec9e37aaa7cc27207b2be470deb122af168fc8225466621ba33ee76a7c95ee2",
      "assetIds": []
    },
    {
      "x": 336,
      "y": 299,
      "size": 1,
      "price": "1011000000000000000000",
      "reserved": "",
      "salt": "0x94dae38f83b817c79c749f65a1fafa9b4e505071fee2d0d6a3e3d551861fb129",
      "assetIds": []
    },
    {
      "x": 337,
      "y": 252,
      "size": 1,
      "price": "1011000000000000000000",
      "reserved": "",
      "salt": "0x2c892fac41e49118790d56d6bc801b4d4d86e6007ce3a3a88c5f986ad62c6a97",
      "assetIds": []
    },
    {
      "x": 337,
      "y": 253,
      "size": 1,
      "price": "1011000000000000000000",
      "reserved": "0x7a9fe22691c811ea339d9b73150e6911a5343dca",
      "salt": "0xbd71ad1700a84eaf2794d4beeeeaca276cb3677cf1a108d8d168d94f4fec7954",
      "assetIds": []
    },
    {
      "x": 337,
      "y": 254,
      "size": 1,
      "price": "1011000000000000000000",
      "reserved": "",
      "salt": "0xce5c655264c2c43e666922814444ca3297a90fdc494ba6cdf0fe77a11e9ad21f",
      "assetIds": []
    },
    {
      "x": 337,
      "y": 258,
      "size": 1,
      "price": "1011000000000000000000",
      "reserved": "",
      "salt": "0x5d63d1eac84bf4e072d2b27dde56d647c6717c47a3d0cdd04edebcc3ef1438d8",
      "assetIds": []
    },
    {
      "x": 337,
      "y": 259,
      "size": 1,
      "price": "1011000000000000000000",
      "reserved": "",
      "salt": "0x1e997c049f654137ef98a3865376ecb62b91a0fccb0ac3d904d4008ab90cc180",
      "assetIds": []
    },
    {
      "x": 337,
      "y": 260,
      "size": 1,
      "price": "1011000000000000000000",
      "reserved": "",
      "salt": "0xfbe96e308bd0a7e739913add9757cffa32778fda0bb351e536592a6942e489df",
      "assetIds": []
    },
    {
      "x": 337,
      "y": 261,
      "size": 1,
      "price": "1011000000000000000000",
      "reserved": "",
      "salt": "0xa55be2a967aa775e46b3eb389b569366109142e6d59d855ea1ff21b7fb95f5f4",
      "assetIds": []
    },
    {
      "x": 337,
      "y": 262,
      "size": 1,
      "price": "1011000000000000000000",
      "reserved": "",
      "salt": "0x155d8c672bdab13a0e223c310359437dcf72a05b1eedb6c0eb930f712bffe063",
      "assetIds": []
    },
    {
      "x": 337,
      "y": 263,
      "size": 1,
      "price": "1011000000000000000000",
      "reserved": "",
      "salt": "0x2b998f4808552a1b895fd82d0d715dec726218784faa8863567dd7e853ba0a4b",
      "assetIds": []
    },
    {
      "x": 337,
      "y": 288,
      "size": 1,
      "price": "1011000000000000000000",
      "reserved": "",
      "salt": "0x7e56b0f8d7cd1daf0443e5629fe351754a9b094d932e5265a2b9ee16ec9b12d6",
      "assetIds": []
    },
    {
      "x": 337,
      "y": 289,
      "size": 1,
      "price": "1011000000000000000000",
      "reserved": "",
      "salt": "0xfb0bded7f60c95157fed727ea624fad8be55b7df0ed2d5574094eab14bb1da37",
      "assetIds": []
    },
    {
      "x": 337,
      "y": 290,
      "size": 1,
      "price": "1011000000000000000000",
      "reserved": "",
      "salt": "0x2796575c06932bf1a51e51e7246ef87b26f83b1315309c463cd63aba14e2f549",
      "assetIds": []
    },
    {
      "x": 337,
      "y": 291,
      "size": 1,
      "price": "1011000000000000000000",
      "reserved": "",
      "salt": "0x3503f740fb3f46c13295d35aac1681db53ca6ecd4f22fba0b7eec5241a23758d",
      "assetIds": []
    },
    {
      "x": 337,
      "y": 292,
      "size": 1,
      "price": "1011000000000000000000",
      "reserved": "",
      "salt": "0x46899b272025d3efc0e679b1c3320ae0e4052543a174f1a1422faceaa8629aaa",
      "assetIds": []
    },
    {
      "x": 337,
      "y": 293,
      "size": 1,
      "price": "1011000000000000000000",
      "reserved": "",
      "salt": "0xe4b3711fea26cb2bfc01a1c70dca3a06fff952b073edb057d8f8f8552e625421",
      "assetIds": []
    },
    {
      "x": 337,
      "y": 294,
      "size": 1,
      "price": "1011000000000000000000",
      "reserved": "",
      "salt": "0xb82d579e6075f28a565f236bccb7b09d26dbf8e7d5270f2a0bb4e9e67894ee04",
      "assetIds": []
    },
    {
      "x": 337,
      "y": 295,
      "size": 1,
      "price": "1011000000000000000000",
      "reserved": "",
      "salt": "0xa0d0aa1e411f43d03d353e488147ed9fa8c27336e497b1d49c084ab8ec7bff4e",
      "assetIds": []
    },
    {
      "x": 337,
      "y": 296,
      "size": 1,
      "price": "1011000000000000000000",
      "reserved": "",
      "salt": "0xc225489ef82cfed643e599cd3a329405887c69e6186635c8f756607957009648",
      "assetIds": []
    },
    {
      "x": 337,
      "y": 297,
      "size": 1,
      "price": "1011000000000000000000",
      "reserved": "",
      "salt": "0xde81ef47790b431356675b37b2682b3a28b62ce2534a3c789418e99bf0806fd1",
      "assetIds": []
    },
    {
      "x": 337,
      "y": 298,
      "size": 1,
      "price": "1011000000000000000000",
      "reserved": "",
      "salt": "0x993478a0e3257bee0186e491e4861cbf3cae62241c633bfa7e429a14f42a7dc5",
      "assetIds": []
    },
    {
      "x": 337,
      "y": 299,
      "size": 1,
      "price": "1011000000000000000000",
      "reserved": "",
      "salt": "0xb72d91a95d19e8ae88db07d4c8fb9086c9201a52bec3e707460ec6bb1b614c26",
      "assetIds": []
    },
    {
      "x": 338,
      "y": 252,
      "size": 1,
      "price": "1011000000000000000000",
      "reserved": "",
      "salt": "0xf14c5edcd31554c2ab5ad0bf5dcc634a1411269e7696897dd6eb8f416e12f56f",
      "assetIds": []
    },
    {
      "x": 338,
      "y": 253,
      "size": 1,
      "price": "1011000000000000000000",
      "reserved": "",
      "salt": "0x0151474f7d2d484d5d6b290a7ff9f63cca38bc9bf67293b16cc5683d3016369f",
      "assetIds": []
    },
    {
      "x": 338,
      "y": 254,
      "size": 1,
      "price": "1011000000000000000000",
      "reserved": "",
      "salt": "0xe969ac9f4c1ec78347f3eeabf32ed3136d055ba255a722301f46c1996c2b78a6",
      "assetIds": []
    },
    {
      "x": 338,
      "y": 258,
      "size": 1,
      "price": "1011000000000000000000",
      "reserved": "",
      "salt": "0x753aea48abdf59719ed5f9b75596dec44aee889ffdaf0bbb1d42bb761884577c",
      "assetIds": []
    },
    {
      "x": 338,
      "y": 259,
      "size": 1,
      "price": "1011000000000000000000",
      "reserved": "",
      "salt": "0x0510fd2be684d842d5f72bc422277172ad10315639c391f6f75746d18ded4061",
      "assetIds": []
    },
    {
      "x": 338,
      "y": 260,
      "size": 1,
      "price": "1011000000000000000000",
      "reserved": "",
      "salt": "0xc132b9dbe77d47b7e831ba6ef1788f8271b6b94ce40b01a44d7289f6f52e33f0",
      "assetIds": []
    },
    {
      "x": 338,
      "y": 261,
      "size": 1,
      "price": "1011000000000000000000",
      "reserved": "",
      "salt": "0xfb0f6611ab235dc927d6144f68103f130749ecab4b00c2acf39db109b6c42000",
      "assetIds": []
    },
    {
      "x": 338,
      "y": 262,
      "size": 1,
      "price": "1011000000000000000000",
      "reserved": "",
      "salt": "0x8d954eab3911fc62bf15e8d6ed024f44fd2ebf3286dd08ac4d2b11d1d0eaa65c",
      "assetIds": []
    },
    {
      "x": 338,
      "y": 263,
      "size": 1,
      "price": "1011000000000000000000",
      "reserved": "",
      "salt": "0xbbb6e8b4c3deddf412d0145323efcb67abc609dd2728134422871a666a37cd5d",
      "assetIds": []
    },
    {
      "x": 338,
      "y": 288,
      "size": 1,
      "price": "1011000000000000000000",
      "reserved": "",
      "salt": "0x2f376a2bed1e7d78b9270b0401e4675ccf8d1df1ac3affa7bdb570ce7e90065c",
      "assetIds": []
    },
    {
      "x": 338,
      "y": 289,
      "size": 1,
      "price": "1011000000000000000000",
      "reserved": "0x7a9fe22691c811ea339d9b73150e6911a5343dca",
      "salt": "0xa54043b28dd57eb278f4d2798e1c19a340242bc7110037ecc8430aef9c3ab3e4",
      "assetIds": []
    },
    {
      "x": 338,
      "y": 290,
      "size": 1,
      "price": "1011000000000000000000",
      "reserved": "",
      "salt": "0x97dce949164b7bf0241d6ce3ce09906a13924b4c697dd060dfb452e12e601cb9",
      "assetIds": []
    },
    {
      "x": 338,
      "y": 291,
      "size": 1,
      "price": "1011000000000000000000",
      "reserved": "",
      "salt": "0x41e73a9c7fd3db61d12db806f4a82cd272d17d7afd909c8bc6dd769a6e8c48a0",
      "assetIds": []
    },
    {
      "x": 338,
      "y": 292,
      "size": 1,
      "price": "1011000000000000000000",
      "reserved": "",
      "salt": "0xeab8464634a2c335ec91c4556293655275ae6ae3022b3c125354f3738d604a97",
      "assetIds": []
    },
    {
      "x": 338,
      "y": 293,
      "size": 1,
      "price": "1011000000000000000000",
      "reserved": "",
      "salt": "0x3e7d6e983f22037a251750ad78d9fd29dbb17f8da4d762d95d5c2658e4e42917",
      "assetIds": []
    },
    {
      "x": 338,
      "y": 294,
      "size": 1,
      "price": "1011000000000000000000",
      "reserved": "",
      "salt": "0x5975fa7e19ac91e7911559993045514a298eb29c435009d63c361585f0802dfc",
      "assetIds": []
    },
    {
      "x": 338,
      "y": 295,
      "size": 1,
      "price": "1011000000000000000000",
      "reserved": "",
      "salt": "0xb7a09f917b58b4b0b5e449802c398cab1e0dafb1d766c96a308c5c69e1b92c6e",
      "assetIds": []
    },
    {
      "x": 338,
      "y": 296,
      "size": 1,
      "price": "1011000000000000000000",
      "reserved": "",
      "salt": "0xc1deb7c086d43df7cfcac5b56b593632974b0a948bc683ed436a1564e17fe680",
      "assetIds": []
    },
    {
      "x": 338,
      "y": 297,
      "size": 1,
      "price": "1011000000000000000000",
      "reserved": "",
      "salt": "0x6d381a04f1dd64507ee5884021726da8ac5297a0f8407eaa5781fa17e176d9ac",
      "assetIds": []
    },
    {
      "x": 338,
      "y": 298,
      "size": 1,
      "price": "1011000000000000000000",
      "reserved": "",
      "salt": "0x904e80ca77c4f9942e59f744fedd2688fa68e1facbcae27f3fa4e864a12c8d22",
      "assetIds": []
    },
    {
      "x": 338,
      "y": 299,
      "size": 1,
      "price": "1011000000000000000000",
      "reserved": "",
      "salt": "0x699690e15bfc77c57ab3a64f7c33c4296b5804d4ba14b7e5ab753f3563d24987",
      "assetIds": []
    },
    {
      "x": 339,
      "y": 246,
      "size": 1,
      "price": "1011000000000000000000",
      "reserved": "",
      "salt": "0xd40de76df45d86ed1a77a4670de95aefe995eb460d79159b70e32b0b60adfdd7",
      "assetIds": []
    },
    {
      "x": 339,
      "y": 247,
      "size": 1,
      "price": "1011000000000000000000",
      "reserved": "",
      "salt": "0x53a0efac48fb1d7d4a6beb4f312ea4eee8d7d7a982a76a166ffbc014032e1e4f",
      "assetIds": []
    },
    {
      "x": 339,
      "y": 248,
      "size": 1,
      "price": "1011000000000000000000",
      "reserved": "",
      "salt": "0x5aaf71c28849344a6f730629bbdd86d0878c09f0183c4a2f1a9159c1eca16c9a",
      "assetIds": []
    },
    {
      "x": 339,
      "y": 249,
      "size": 1,
      "price": "1011000000000000000000",
      "reserved": "",
      "salt": "0x3f6f8ea9b7ce49500db3e5699f35e081cae7e0a7cba72093bcd4d60f5815e3f9",
      "assetIds": []
    },
    {
      "x": 339,
      "y": 250,
      "size": 1,
      "price": "1011000000000000000000",
      "reserved": "",
      "salt": "0xae64c0a71cea5e5fc47cac13d534e62293283879b9028e28d56fc0850f81d10a",
      "assetIds": []
    },
    {
      "x": 339,
      "y": 251,
      "size": 1,
      "price": "1011000000000000000000",
      "reserved": "",
      "salt": "0xd7efe214e4b9bf06571441cca8a2980cbf8f25c12338e83b610d67c5d037dc8a",
      "assetIds": []
    },
    {
      "x": 339,
      "y": 255,
      "size": 1,
      "price": "1011000000000000000000",
      "reserved": "",
      "salt": "0xccd1042ca19030f8cd0930d3cd0f35bca0e6d83c12ee425ab8086580d550df4e",
      "assetIds": []
    },
    {
      "x": 339,
      "y": 256,
      "size": 1,
      "price": "1011000000000000000000",
      "reserved": "",
      "salt": "0x6b12983828f0f5baddd9643d30c23b5268654f0cde378188abb72e249d706d97",
      "assetIds": []
    },
    {
      "x": 339,
      "y": 257,
      "size": 1,
      "price": "1011000000000000000000",
      "reserved": "",
      "salt": "0x0a463a74eae0d5b438c6d8141050415fc8238973f775989245cd6a94bcb0ace4",
      "assetIds": []
    },
    {
      "x": 339,
      "y": 258,
      "size": 1,
      "price": "1011000000000000000000",
      "reserved": "",
      "salt": "0x1e7f1cd89cd9e3b8e87be29efe3a50eb919c8a7df174b3c43a7b23cb73e9ec73",
      "assetIds": []
    },
    {
      "x": 339,
      "y": 259,
      "size": 1,
      "price": "1011000000000000000000",
      "reserved": "",
      "salt": "0xad92ab003a80caa10efebef5076c7c0308182f0bbad25635d7afce7fd457c6fe",
      "assetIds": []
    },
    {
      "x": 339,
      "y": 260,
      "size": 1,
      "price": "1011000000000000000000",
      "reserved": "",
      "salt": "0x105c6ab0b085e4d430fb0de5fa95a203663eea05609c87d488759b6f1cd6bdb6",
      "assetIds": []
    },
    {
      "x": 339,
      "y": 261,
      "size": 1,
      "price": "1011000000000000000000",
      "reserved": "",
      "salt": "0xcc9df013faae97ead2c8de3e72a0b0d570432c5e1561fb8a6347b4f09fa9fa40",
      "assetIds": []
    },
    {
      "x": 339,
      "y": 262,
      "size": 1,
      "price": "1011000000000000000000",
      "reserved": "0x7a9fe22691c811ea339d9b73150e6911a5343dca",
      "salt": "0xd4a682fd1cf15b9d7e0ba8185a3e56dea5e50654b87dd6113abb2004c7b62b13",
      "assetIds": []
    },
    {
      "x": 339,
      "y": 263,
      "size": 1,
      "price": "1011000000000000000000",
      "reserved": "",
      "salt": "0x28ca4350ed11d9dea8854757e0344baf04f551d548fd1588f43fbdcd9982d23b",
      "assetIds": []
    },
    {
      "x": 339,
      "y": 288,
      "size": 1,
      "price": "1011000000000000000000",
      "reserved": "",
      "salt": "0xf40ee8a406fb28253ed8200eb8bee727e9387784b7af5159883f5ad811bc1a0a",
      "assetIds": []
    },
    {
      "x": 339,
      "y": 289,
      "size": 1,
      "price": "1011000000000000000000",
      "reserved": "",
      "salt": "0x75e470a31d2fe26072574632241afa5ddf31a019c9349c924accc61698b28557",
      "assetIds": []
    },
    {
      "x": 339,
      "y": 290,
      "size": 1,
      "price": "1011000000000000000000",
      "reserved": "",
      "salt": "0xc3ab011cf3f02e2b453ecb6597765b31f96627be56aea466540938ff5a851f8a",
      "assetIds": []
    },
    {
      "x": 339,
      "y": 291,
      "size": 1,
      "price": "1011000000000000000000",
      "reserved": "",
      "salt": "0x2be1a98b0df32501c753ad176d2401a12271b25809b3e9bccf88f49ed41566f5",
      "assetIds": []
    },
    {
      "x": 339,
      "y": 292,
      "size": 1,
      "price": "1011000000000000000000",
      "reserved": "",
      "salt": "0x08c896e1eee812d6d3eb9ca72f8f39bc9fe0999030633db050c750bb86116b63",
      "assetIds": []
    },
    {
      "x": 339,
      "y": 293,
      "size": 1,
      "price": "1011000000000000000000",
      "reserved": "",
      "salt": "0x9b308edc6bd8e3506b1438d5e4dca21364deff0d8d0d2e13bf907a613c1bb86c",
      "assetIds": []
    },
    {
      "x": 339,
      "y": 294,
      "size": 1,
      "price": "1011000000000000000000",
      "reserved": "",
      "salt": "0xce5f2df2697531c7cc3aac6a7a0a045fe23afa5bc8611109061c9c33cd2e393b",
      "assetIds": []
    },
    {
      "x": 339,
      "y": 295,
      "size": 1,
      "price": "1011000000000000000000",
      "reserved": "",
      "salt": "0xdf9ebf878cc03c37e0ac2adb20f60459c0177ca860cff19592115c9ca44cb32d",
      "assetIds": []
    },
    {
      "x": 339,
      "y": 296,
      "size": 1,
      "price": "1011000000000000000000",
      "reserved": "",
      "salt": "0x225ed9175d2909e3727418d8cece22da85ae038b987475bb4775db635c8785cf",
      "assetIds": []
    },
    {
      "x": 339,
      "y": 297,
      "size": 1,
      "price": "1011000000000000000000",
      "reserved": "",
      "salt": "0x123c2660415ae5020ff31c113eafa5e199045f6f9523b4ccbf011d2fad013c61",
      "assetIds": []
    },
    {
      "x": 339,
      "y": 298,
      "size": 1,
      "price": "1011000000000000000000",
      "reserved": "",
      "salt": "0x98350d1fb36530035e6fafc40a8b04647a20ef98f40e457f0fab1e5b062db381",
      "assetIds": []
    },
    {
      "x": 339,
      "y": 299,
      "size": 1,
      "price": "1011000000000000000000",
      "reserved": "",
      "salt": "0x9efe5c4d43fbb2e6075d99ac2788a8e96b71e02e2f7e765e56a4b8e2ad9e047b",
      "assetIds": []
    },
    {
      "x": 340,
      "y": 246,
      "size": 1,
      "price": "1011000000000000000000",
      "reserved": "",
      "salt": "0x998bedb31836470d17c0f2b65bcb857c7284dda782f35277d6f5c0b3be13c453",
      "assetIds": []
    },
    {
      "x": 340,
      "y": 247,
      "size": 1,
      "price": "1011000000000000000000",
      "reserved": "",
      "salt": "0x6cbf2c89c985fd86ceab4f8791b5075998f480425701ff95146efdd8a0794399",
      "assetIds": []
    },
    {
      "x": 340,
      "y": 248,
      "size": 1,
      "price": "1011000000000000000000",
      "reserved": "",
      "salt": "0x6ea08488c971ecf2ff5ea70370ba293a7eec1b0bebc5b5f00ea99eafda670546",
      "assetIds": []
    },
    {
      "x": 340,
      "y": 249,
      "size": 1,
      "price": "1011000000000000000000",
      "reserved": "",
      "salt": "0xe24cf562c06f4a9e02b490ddd65332e22925519afbaf134b7dd06bab673e8187",
      "assetIds": []
    },
    {
      "x": 340,
      "y": 250,
      "size": 1,
      "price": "1011000000000000000000",
      "reserved": "",
      "salt": "0x959fd157e9e5d949a10781790f4079ab26671c4c25398a6b5cabfaff18082fa1",
      "assetIds": []
    },
    {
      "x": 340,
      "y": 251,
      "size": 1,
      "price": "1011000000000000000000",
      "reserved": "",
      "salt": "0xabba6647b544c9c3591f42ea40a4bb5d52a378390ed252c5adf2bd415b8ddcb9",
      "assetIds": []
    },
    {
      "x": 340,
      "y": 255,
      "size": 1,
      "price": "1011000000000000000000",
      "reserved": "",
      "salt": "0xf014ce23ab9331a11b7b53d346ec54d7d4c7faf92c92a9276db2c23eb15f9f0d",
      "assetIds": []
    },
    {
      "x": 340,
      "y": 256,
      "size": 1,
      "price": "1011000000000000000000",
      "reserved": "",
      "salt": "0x7ace6ec52a72cdc9891e684e6673d321adb93e6fb42ee3d626715c026b46f177",
      "assetIds": []
    },
    {
      "x": 340,
      "y": 257,
      "size": 1,
      "price": "1011000000000000000000",
      "reserved": "",
      "salt": "0x8c1a709988fe1518207362415d2bf58c238e205ddf1e84584096b4e989290cb5",
      "assetIds": []
    },
    {
      "x": 340,
      "y": 258,
      "size": 1,
      "price": "1011000000000000000000",
      "reserved": "",
      "salt": "0x72379b78fda430298a3cd0ab8b5a6823a3ebf02d74e8b5fcfedb7e45f63f9435",
      "assetIds": []
    },
    {
      "x": 340,
      "y": 259,
      "size": 1,
      "price": "1011000000000000000000",
      "reserved": "",
      "salt": "0x895e3b59fd761f5a42cd2f630311bc72f695a5d373ff0131f1fde057bbb73917",
      "assetIds": []
    },
    {
      "x": 340,
      "y": 260,
      "size": 1,
      "price": "1011000000000000000000",
      "reserved": "",
      "salt": "0xf6a02285e47af658402c84506ee7c90f1dd727fc4f9375da3faf75e63b7ac73c",
      "assetIds": []
    },
    {
      "x": 340,
      "y": 261,
      "size": 1,
      "price": "1011000000000000000000",
      "reserved": "",
      "salt": "0xcef69898b58cabf54f693c674a07d2f8bd6bd187176ecc83991b45ae8b284426",
      "assetIds": []
    },
    {
      "x": 340,
      "y": 262,
      "size": 1,
      "price": "1011000000000000000000",
      "reserved": "",
      "salt": "0x8393f43488bd05796c99f52338e6ce8155cb2759ea6dbeed792df23dcf9b6549",
      "assetIds": []
    },
    {
      "x": 340,
      "y": 263,
      "size": 1,
      "price": "1011000000000000000000",
      "reserved": "",
      "salt": "0xa22f78fa1ddf6c8f1ed74b5c8f135bf62dabcd30b154a321ab7397cd8a493d9b",
      "assetIds": []
    },
    {
      "x": 340,
      "y": 288,
      "size": 1,
      "price": "1011000000000000000000",
      "reserved": "",
      "salt": "0xd8a504e9f8665573aa99a05e8e0404eb58b6dfb53b6022537858ea5675f9e688",
      "assetIds": []
    },
    {
      "x": 340,
      "y": 289,
      "size": 1,
      "price": "1011000000000000000000",
      "reserved": "",
      "salt": "0xca40d7398dc123eb5471e6d2b47673a733ab6836faffd81c90564b5ee92352ac",
      "assetIds": []
    },
    {
      "x": 340,
      "y": 290,
      "size": 1,
      "price": "1011000000000000000000",
      "reserved": "",
      "salt": "0xe58f2669fafafaaa3f7adc4c4bbebfbaab50908deb898931d5e33bf2bdf910a9",
      "assetIds": []
    },
    {
      "x": 340,
      "y": 291,
      "size": 1,
      "price": "1011000000000000000000",
      "reserved": "",
      "salt": "0xf736d95b2114b8f0d934895b7e227bc4e2a38a4a2fa353f3d33e1a00497a6abb",
      "assetIds": []
    },
    {
      "x": 340,
      "y": 292,
      "size": 1,
      "price": "1011000000000000000000",
      "reserved": "",
      "salt": "0xc2e10fbdcbe7d42e88b9f45e100baa886b2167db357cff0566e402f9102e509e",
      "assetIds": []
    },
    {
      "x": 340,
      "y": 293,
      "size": 1,
      "price": "1011000000000000000000",
      "reserved": "",
      "salt": "0x5aae911de0b767b533622d7170d4e42773f6e938cd871ba03b1ec975cce2bf85",
      "assetIds": []
    },
    {
      "x": 340,
      "y": 294,
      "size": 1,
      "price": "1011000000000000000000",
      "reserved": "",
      "salt": "0x2c84c3741b16ee16f6f5c5963f23c164f5cf44014c9d28c872b4c9490c16f9f5",
      "assetIds": []
    },
    {
      "x": 340,
      "y": 295,
      "size": 1,
      "price": "1011000000000000000000",
      "reserved": "",
      "salt": "0x29cc4857377cd14142927b91658d103c5d5b45c7280cf94d6931d1148d86fef1",
      "assetIds": []
    },
    {
      "x": 340,
      "y": 296,
      "size": 1,
      "price": "1011000000000000000000",
      "reserved": "",
      "salt": "0x7a347965c1a098d4845ce4572873bd04a281ff126aad96ff8759d7293e1a2622",
      "assetIds": []
    },
    {
      "x": 340,
      "y": 297,
      "size": 1,
      "price": "1011000000000000000000",
      "reserved": "",
      "salt": "0x0e9879ac08792230ec9dec7cbfe6bec9b64cc97c0157b4acb4bd2ad29ed00206",
      "assetIds": []
    },
    {
      "x": 340,
      "y": 298,
      "size": 1,
      "price": "1011000000000000000000",
      "reserved": "",
      "salt": "0xe65d9129ed61428146224d6cb322a9668ff7ef179677d145877b364eddf97eb4",
      "assetIds": []
    },
    {
      "x": 340,
      "y": 299,
      "size": 1,
      "price": "1011000000000000000000",
      "reserved": "",
      "salt": "0xd5b8c9ec058eb31937d47ba2c7ddf22af4d53033c484531180a6ebf1d718cf6f",
      "assetIds": []
    },
    {
      "x": 341,
      "y": 246,
      "size": 1,
      "price": "1011000000000000000000",
      "reserved": "",
      "salt": "0x4d2db7cca7c653442ab4e4bf59d3f9d79d8c27a4ca6749e7fef659a309d9df17",
      "assetIds": []
    },
    {
      "x": 341,
      "y": 247,
      "size": 1,
      "price": "1011000000000000000000",
      "reserved": "",
      "salt": "0xe5917afa6372fbd2c23fc2d51b3131c2f24dfcdb8dcede80737ac47ce92e4fa1",
      "assetIds": []
    },
    {
      "x": 341,
      "y": 248,
      "size": 1,
      "price": "1011000000000000000000",
      "reserved": "",
      "salt": "0x21127d65d61d4b2c92318945a4db0bd0c1b8ac0a63c5a65f625a7d8462164e20",
      "assetIds": []
    },
    {
      "x": 341,
      "y": 249,
      "size": 1,
      "price": "1011000000000000000000",
      "reserved": "",
      "salt": "0xf17805dc12ab56b86bbdf94e49f5f6682b68087f31c84070131aee793729f92e",
      "assetIds": []
    },
    {
      "x": 341,
      "y": 250,
      "size": 1,
      "price": "1011000000000000000000",
      "reserved": "",
      "salt": "0xaf29f1ba786f1f57cbd34258e8d088729ddcc3f09a397ab2a767f6ff4be98aaa",
      "assetIds": []
    },
    {
      "x": 341,
      "y": 251,
      "size": 1,
      "price": "1011000000000000000000",
      "reserved": "",
      "salt": "0x4ea6bc646e220029a2f02ea6ce758b64e8d0ef8e5d5a895d01bf2080dbd13ae6",
      "assetIds": []
    },
    {
      "x": 341,
      "y": 255,
      "size": 1,
      "price": "1011000000000000000000",
      "reserved": "",
      "salt": "0x8b0d79af3d7cda03b4166d984424421a4e77743d101c31add0ec652c6a3d9151",
      "assetIds": []
    },
    {
      "x": 341,
      "y": 256,
      "size": 1,
      "price": "1011000000000000000000",
      "reserved": "",
      "salt": "0xd6d2a4afe8be516a2e60ac50e094fcbbc6bbff94592d768f89e0c74a49c3b42f",
      "assetIds": []
    },
    {
      "x": 341,
      "y": 257,
      "size": 1,
      "price": "1011000000000000000000",
      "reserved": "",
      "salt": "0x11610d7337385e052b4b2b44b15062531f4e95e7b9685f85069a85a04ae09909",
      "assetIds": []
    },
    {
      "x": 341,
      "y": 258,
      "size": 1,
      "price": "1011000000000000000000",
      "reserved": "",
      "salt": "0x032075da1a8550558ab423b9f45959a0368fff6acb63fd0471a9c18a6f8f81d5",
      "assetIds": []
    },
    {
      "x": 341,
      "y": 259,
      "size": 1,
      "price": "1011000000000000000000",
      "reserved": "",
      "salt": "0xdefe6a2bd71aa80a3250cd852183474f287b0b573d2a180776cf4540b6842fc6",
      "assetIds": []
    },
    {
      "x": 341,
      "y": 260,
      "size": 1,
      "price": "1011000000000000000000",
      "reserved": "",
      "salt": "0xe57189131dca48c2fbd8f6f60e45fd587a723b1513558d4ca1397e16c38813d5",
      "assetIds": []
    },
    {
      "x": 341,
      "y": 261,
      "size": 1,
      "price": "1011000000000000000000",
      "reserved": "",
      "salt": "0x7853bfd6bcec16da526a53e844d74c23b4bb63a5b779583e55a67073b397f180",
      "assetIds": []
    },
    {
      "x": 341,
      "y": 262,
      "size": 1,
      "price": "1011000000000000000000",
      "reserved": "",
      "salt": "0x4e761f237154d1d212bb926e2bb359bb8d71ad1807683546f636e452823e0e1e",
      "assetIds": []
    },
    {
      "x": 341,
      "y": 263,
      "size": 1,
      "price": "1011000000000000000000",
      "reserved": "",
      "salt": "0xe293e4be41b76d3f76739f99cb6c2fc19313e410db17d61011ef5ad6bb5df4e3",
      "assetIds": []
    },
    {
      "x": 341,
      "y": 288,
      "size": 1,
      "price": "1011000000000000000000",
      "reserved": "",
      "salt": "0x463065f763c1558b35c6ba69e21f8a8a5dad0a23e018a0c38750b98015136c49",
      "assetIds": []
    },
    {
      "x": 341,
      "y": 289,
      "size": 1,
      "price": "1011000000000000000000",
      "reserved": "",
      "salt": "0xecb052e3b5e9ce6afae6b4a88bdc708e5b4f6a95d514eec083655145b9c7d346",
      "assetIds": []
    },
    {
      "x": 341,
      "y": 290,
      "size": 1,
      "price": "1011000000000000000000",
      "reserved": "",
      "salt": "0xb1e8f207905e476a9ab5b1a60fa783f9be2ef9b7a1e2e262891180e4b72ff30f",
      "assetIds": []
    },
    {
      "x": 341,
      "y": 291,
      "size": 1,
      "price": "1011000000000000000000",
      "reserved": "",
      "salt": "0x20582c255375ed0f705582977a823a099c49407724fe5f5fd710686c793794fc",
      "assetIds": []
    },
    {
      "x": 341,
      "y": 292,
      "size": 1,
      "price": "1011000000000000000000",
      "reserved": "",
      "salt": "0x2938bfc5de45965a7c4ac8cf925e4b6d25209296fac4009f2fc3678dd5aaa48f",
      "assetIds": []
    },
    {
      "x": 341,
      "y": 293,
      "size": 1,
      "price": "1011000000000000000000",
      "reserved": "",
      "salt": "0x432cbbe304e1a834923cecc7d57ee30a1e1f5fc0ce5bf6239209df4eda3d4e42",
      "assetIds": []
    },
    {
      "x": 341,
      "y": 294,
      "size": 1,
      "price": "1011000000000000000000",
      "reserved": "",
      "salt": "0xc4355d8fbbe4b90295ab630360036654a88c4ea18002d4d9ce41f87c176e78c1",
      "assetIds": []
    },
    {
      "x": 341,
      "y": 295,
      "size": 1,
      "price": "1011000000000000000000",
      "reserved": "",
      "salt": "0xec4667cd48e5ba5b9b76212941211dc5724b8c1d6ee9e5f63a9bc124f4f98056",
      "assetIds": []
    },
    {
      "x": 341,
      "y": 296,
      "size": 1,
      "price": "1011000000000000000000",
      "reserved": "",
      "salt": "0x4e9315496f5e9e311af5046ad5658e4603a83fc86929f8be335480f385644ef4",
      "assetIds": []
    },
    {
      "x": 341,
      "y": 297,
      "size": 1,
      "price": "1011000000000000000000",
      "reserved": "",
      "salt": "0x8eb4b1042c278424f93c5d9bdbf39cc85cc5b141229ec721a2cdb35554013306",
      "assetIds": []
    },
    {
      "x": 341,
      "y": 298,
      "size": 1,
      "price": "1011000000000000000000",
      "reserved": "",
      "salt": "0x7f2aa4467a63b06843f31599db8ac2b73882fa5731565f80c1505d1e87d9b2a6",
      "assetIds": []
    },
    {
      "x": 341,
      "y": 299,
      "size": 1,
      "price": "1011000000000000000000",
      "reserved": "",
      "salt": "0x033715465744b9b35e5af346832c19657172a4fd9f62f148733a073b359c2124",
      "assetIds": []
    },
    {
      "x": 342,
      "y": 240,
      "size": 1,
      "price": "1011000000000000000000",
      "reserved": "",
      "salt": "0xbf105c7fc743e3c78ee2ebcee15bcb9de66048d363deb0cd51018979c2762ce2",
      "assetIds": []
    },
    {
      "x": 342,
      "y": 241,
      "size": 1,
      "price": "1011000000000000000000",
      "reserved": "",
      "salt": "0x50b654f8ebcd3d360ccaffc1e320f385f487223c1fb4e4550c2a02b4a4d60bb6",
      "assetIds": []
    },
    {
      "x": 342,
      "y": 242,
      "size": 1,
      "price": "1011000000000000000000",
      "reserved": "",
      "salt": "0xaae9c9d0f18cc2868acaee3cc7136ee1f36b1a4cc3f57a7b54b0a194fc1c9607",
      "assetIds": []
    },
    {
      "x": 342,
      "y": 243,
      "size": 1,
      "price": "1011000000000000000000",
      "reserved": "",
      "salt": "0xa3003fc7561883d8d92c6699099c69d2cb2c3266f12aefc382fdd5ba76f2fbec",
      "assetIds": []
    },
    {
      "x": 342,
      "y": 244,
      "size": 1,
      "price": "1011000000000000000000",
      "reserved": "",
      "salt": "0x4c522f20503bbf6bfb0d5d1fb4da38a8e9c1918d830e3d82b09ba65ad9df0596",
      "assetIds": []
    },
    {
      "x": 342,
      "y": 245,
      "size": 1,
      "price": "1011000000000000000000",
      "reserved": "",
      "salt": "0x9e8966cc64d946c2daaca3cb6387f0b1e0c079000c736ebac7b9119573ed954e",
      "assetIds": []
    },
    {
      "x": 342,
      "y": 246,
      "size": 1,
      "price": "1011000000000000000000",
      "reserved": "",
      "salt": "0xab700536f3ee3c0f382e2a09d3f6bc678a40a55fd5e9ccc37ee922d6904e5a47",
      "assetIds": []
    },
    {
      "x": 342,
      "y": 247,
      "size": 1,
      "price": "1011000000000000000000",
      "reserved": "",
      "salt": "0x184a00c170c9cb6b1f717245909c636d54acbe18b55612144220a660f8abe8b3",
      "assetIds": []
    },
    {
      "x": 342,
      "y": 248,
      "size": 1,
      "price": "1011000000000000000000",
      "reserved": "",
      "salt": "0x859b392d637ba696587274b30166adbe6962fcd307f0674e7c0f4e182ac0da1a",
      "assetIds": []
    },
    {
      "x": 342,
      "y": 249,
      "size": 1,
      "price": "1011000000000000000000",
      "reserved": "",
      "salt": "0x8ba86c0d00398e64a733f69783770e05e835fffcd23ed41c91192731a6225407",
      "assetIds": []
    },
    {
      "x": 342,
      "y": 250,
      "size": 1,
      "price": "1011000000000000000000",
      "reserved": "",
      "salt": "0x89b43df7d378db90e631906b4d63ff5cbb60386affec74725f1c9638b2d14be5",
      "assetIds": []
    },
    {
      "x": 342,
      "y": 251,
      "size": 1,
      "price": "1011000000000000000000",
      "reserved": "",
      "salt": "0x16427cfe8089dd0c333e83a019bbe0c1934fd8210c125a6eb81c2a9ab73d7788",
      "assetIds": []
    },
    {
      "x": 342,
      "y": 252,
      "size": 1,
      "price": "1011000000000000000000",
      "reserved": "",
      "salt": "0x988c08a590207b729d35b6c1c4cc93f4b3f29358d9f77f8ff14663dcf98d8ee8",
      "assetIds": []
    },
    {
      "x": 342,
      "y": 253,
      "size": 1,
      "price": "1011000000000000000000",
      "reserved": "",
      "salt": "0xe1454a64417ded0aeb53e417a98c5c15304d7128435fc1b5a40e8acf0acc82ad",
      "assetIds": []
    },
    {
      "x": 342,
      "y": 254,
      "size": 1,
      "price": "1011000000000000000000",
      "reserved": "",
      "salt": "0x983a05eadc1d101677cbe23a6445be50c488081d6aef4b1ef1452ed019d9f5cf",
      "assetIds": []
    },
    {
      "x": 342,
      "y": 255,
      "size": 1,
      "price": "1011000000000000000000",
      "reserved": "",
      "salt": "0x9eebbdb7bf767bd78e7a639710a163329bc914645da6fb9ec25ae71d74cdb7df",
      "assetIds": []
    },
    {
      "x": 342,
      "y": 256,
      "size": 1,
      "price": "1011000000000000000000",
      "reserved": "",
      "salt": "0x73f5d2d6b74735ed2da272cb8f0f307dca16ff7ea9b66eb919a4bc7c517df945",
      "assetIds": []
    },
    {
      "x": 342,
      "y": 257,
      "size": 1,
      "price": "1011000000000000000000",
      "reserved": "",
      "salt": "0x0936d2adf7312c74e29eb3e7fb2f8593fbbdf7577a3a40870da655c0f1d57d4d",
      "assetIds": []
    },
    {
      "x": 342,
      "y": 294,
      "size": 1,
      "price": "1011000000000000000000",
      "reserved": "",
      "salt": "0xba1c43ea430c3cf1b93610f385816968dec5ba5327b1f26d6277d9d9999451be",
      "assetIds": []
    },
    {
      "x": 342,
      "y": 295,
      "size": 1,
      "price": "1011000000000000000000",
      "reserved": "",
      "salt": "0x08faf25e79a2cc81e61b381e0f4a2009b275dc0df07741082788d0c694969df2",
      "assetIds": []
    },
    {
      "x": 342,
      "y": 296,
      "size": 1,
      "price": "1011000000000000000000",
      "reserved": "",
      "salt": "0xd920ab1f4359e269753134a556c18c8899fff19e2876373c5155dcbd5b641a9a",
      "assetIds": []
    },
    {
      "x": 342,
      "y": 297,
      "size": 1,
      "price": "1011000000000000000000",
      "reserved": "",
      "salt": "0x8f0836596a306c75c1c07e95cc14ad36d7997ca66ea1a74c98cbd0b584ad3b26",
      "assetIds": []
    },
    {
      "x": 342,
      "y": 298,
      "size": 1,
      "price": "1011000000000000000000",
      "reserved": "",
      "salt": "0x39dea293f3cd7174c6143fb45327de2c4ebc7b2fc1675b42797bb59dbeddf390",
      "assetIds": []
    },
    {
      "x": 342,
      "y": 299,
      "size": 1,
      "price": "1011000000000000000000",
      "reserved": "",
      "salt": "0xa9df75c9bb83e992edf5761e80fe0461e2b08712236a0d4b28616bfb5455c5d1",
      "assetIds": []
    },
    {
      "x": 343,
      "y": 240,
      "size": 1,
      "price": "1011000000000000000000",
      "reserved": "",
      "salt": "0x478a1112d9e01bfe840b0e0aeaec7f31e41560033d07a3655dff80ab86ee72f1",
      "assetIds": []
    },
    {
      "x": 343,
      "y": 241,
      "size": 1,
      "price": "1011000000000000000000",
      "reserved": "",
      "salt": "0x072db84651ce5719187dbe9ecf37db7696b89f435810bfdf6333be1ae9a8fd57",
      "assetIds": []
    },
    {
      "x": 343,
      "y": 242,
      "size": 1,
      "price": "1011000000000000000000",
      "reserved": "",
      "salt": "0xfa2d7391a7a600718ffeec6dc308e6b3c6eac89a802506b6eeaa254587f5ef39",
      "assetIds": []
    },
    {
      "x": 343,
      "y": 243,
      "size": 1,
      "price": "1011000000000000000000",
      "reserved": "",
      "salt": "0x601a74b49c383af23e501f9b693b1fd2e1d8108c291ac5cd90333ce6efd0fd33",
      "assetIds": []
    },
    {
      "x": 343,
      "y": 244,
      "size": 1,
      "price": "1011000000000000000000",
      "reserved": "",
      "salt": "0xade4a653d5e432d4707ce12decc4f81c83340be2e00bf63b163db08e7a901855",
      "assetIds": []
    },
    {
      "x": 343,
      "y": 245,
      "size": 1,
      "price": "1011000000000000000000",
      "reserved": "",
      "salt": "0x3ea7b4b40e05889641b9566ff3b27ca722864676f5a195d4ddb55bc61a3f5267",
      "assetIds": []
    },
    {
      "x": 343,
      "y": 246,
      "size": 1,
      "price": "1011000000000000000000",
      "reserved": "",
      "salt": "0xc2e72093f02e280ab27005da71e1a48b8939ce69df5601555936e3fa89feff4d",
      "assetIds": []
    },
    {
      "x": 343,
      "y": 247,
      "size": 1,
      "price": "1011000000000000000000",
      "reserved": "",
      "salt": "0x6ef11d83859e46beafe9194cba2b32e6c987a6cc357530a21e4f30bf1daeb59d",
      "assetIds": []
    },
    {
      "x": 343,
      "y": 248,
      "size": 1,
      "price": "1011000000000000000000",
      "reserved": "",
      "salt": "0x8c67f90c4a4ebe1a623e57dade26ad700cd2afbd4cf726cd70a5aff0489b7bf9",
      "assetIds": []
    },
    {
      "x": 343,
      "y": 249,
      "size": 1,
      "price": "1011000000000000000000",
      "reserved": "",
      "salt": "0x1db6053cec33886724c682d2a99a0d05ee5dd5abb1e8d47125c420b27f5e7abc",
      "assetIds": []
    },
    {
      "x": 343,
      "y": 250,
      "size": 1,
      "price": "1011000000000000000000",
      "reserved": "",
      "salt": "0xfd4341cdad036d1e984e6085000c7c0be4122730a115781512a251a82b5947df",
      "assetIds": []
    },
    {
      "x": 343,
      "y": 251,
      "size": 1,
      "price": "1011000000000000000000",
      "reserved": "",
      "salt": "0x173c61a5024725ad282ef5f1e342c9afaee46a2a0e938d6a2b6aa8cbf366de06",
      "assetIds": []
    },
    {
      "x": 343,
      "y": 252,
      "size": 1,
      "price": "1011000000000000000000",
      "reserved": "",
      "salt": "0xdb94087da45b2cbd9c491820d8eaaa9e6f35b88c1a0e0503ea052aef216a0a51",
      "assetIds": []
    },
    {
      "x": 343,
      "y": 253,
      "size": 1,
      "price": "1011000000000000000000",
      "reserved": "",
      "salt": "0x339bed23201c77328382e1baec0a6de21f7061698a3f1bb1950b88d06bea9084",
      "assetIds": []
    },
    {
      "x": 343,
      "y": 254,
      "size": 1,
      "price": "1011000000000000000000",
      "reserved": "",
      "salt": "0x8412911d4114115595dff499370fb5cc3eb2aef3a9fc38eaad13dabbc2386c0b",
      "assetIds": []
    },
    {
      "x": 343,
      "y": 255,
      "size": 1,
      "price": "1011000000000000000000",
      "reserved": "",
      "salt": "0x7ecef8d5644365167c38e945fed6a749f4e3538064cbe8bab9ada5fedfc2af4e",
      "assetIds": []
    },
    {
      "x": 343,
      "y": 256,
      "size": 1,
      "price": "1011000000000000000000",
      "reserved": "0x7a9fe22691c811ea339d9b73150e6911a5343dca",
      "salt": "0x9b9f2c0d0f970d92020ee2cd10d30e61257a21d3325e4b91d7cfba9bbc340028",
      "assetIds": []
    },
    {
      "x": 343,
      "y": 257,
      "size": 1,
      "price": "1011000000000000000000",
      "reserved": "",
      "salt": "0xc2f3d43870ea5374d261d112c35543d941bb9ca3e153cce426eeb182c029bfac",
      "assetIds": []
    },
    {
      "x": 343,
      "y": 294,
      "size": 1,
      "price": "1011000000000000000000",
      "reserved": "",
      "salt": "0x09894b241273797a8f377471efb97c869a265fb0295b02943c1795ee629cde48",
      "assetIds": []
    },
    {
      "x": 343,
      "y": 295,
      "size": 1,
      "price": "1011000000000000000000",
      "reserved": "0x7a9fe22691c811ea339d9b73150e6911a5343dca",
      "salt": "0x706040039909b400df8d25196440c5d713ce02a4cc06f0aa8511ff21d8880fd7",
      "assetIds": []
    },
    {
      "x": 343,
      "y": 296,
      "size": 1,
      "price": "1011000000000000000000",
      "reserved": "",
      "salt": "0x743bae0211f32ee6aa602b7243a731894e923e1926f4188fb06e227fea146db5",
      "assetIds": []
    },
    {
      "x": 343,
      "y": 297,
      "size": 1,
      "price": "1011000000000000000000",
      "reserved": "",
      "salt": "0x052a8bbb55f69731389d24a7fca0cc10495988c8d58fabd6cf05b5301615c3f7",
      "assetIds": []
    },
    {
      "x": 343,
      "y": 298,
      "size": 1,
      "price": "1011000000000000000000",
      "reserved": "",
      "salt": "0xbb108d0c728b7699962ccc01c8ead46d33718949628c9963c1dbd75dedcfd569",
      "assetIds": []
    },
    {
      "x": 343,
      "y": 299,
      "size": 1,
      "price": "1011000000000000000000",
      "reserved": "",
      "salt": "0xe7c3283cd7abd341ac739cbd8aebb843ebb64ec02583022aabb6e7560e063091",
      "assetIds": []
    },
    {
      "x": 344,
      "y": 240,
      "size": 1,
      "price": "1011000000000000000000",
      "reserved": "",
      "salt": "0xa02bcd5fb618d47129db2d24aece535f04c86781c0c2d36e75c4187949205657",
      "assetIds": []
    },
    {
      "x": 344,
      "y": 241,
      "size": 1,
      "price": "1011000000000000000000",
      "reserved": "",
      "salt": "0x21c8953fa77fe0ea84a167897cf171acc1710fe1683a142f8d2fb83575ed44b4",
      "assetIds": []
    },
    {
      "x": 344,
      "y": 242,
      "size": 1,
      "price": "1011000000000000000000",
      "reserved": "",
      "salt": "0x9e30a3f9a4721b54de7ce681e099f0bee1eef7bfd45bf421a0f5c451bb635ab0",
      "assetIds": []
    },
    {
      "x": 344,
      "y": 243,
      "size": 1,
      "price": "1011000000000000000000",
      "reserved": "",
      "salt": "0x100e276ebd5e2095d8e911e886cfcb003511f6cfeb3d8a60ca3dad152b769350",
      "assetIds": []
    },
    {
      "x": 344,
      "y": 244,
      "size": 1,
      "price": "1011000000000000000000",
      "reserved": "",
      "salt": "0xce81e0885f00febf7a61dd53b34323495ba9107274f1b4c6970dae004659ad51",
      "assetIds": []
    },
    {
      "x": 344,
      "y": 245,
      "size": 1,
      "price": "1011000000000000000000",
      "reserved": "",
      "salt": "0x0bcb3f82cf3ff1d5941ad097b5b89c83b627f869b4979d9bb4e19c033a25c475",
      "assetIds": []
    },
    {
      "x": 344,
      "y": 246,
      "size": 1,
      "price": "1011000000000000000000",
      "reserved": "",
      "salt": "0x14e99485454f1aa98bdf34d612e0b83a4ac5a20c92dfc9b6fb1fe9c34f470c7a",
      "assetIds": []
    },
    {
      "x": 344,
      "y": 247,
      "size": 1,
      "price": "1011000000000000000000",
      "reserved": "",
      "salt": "0x1ed6cc7c90be8f429afdc422aeade3841c89237ffd82d2ab819514774a293742",
      "assetIds": []
    },
    {
      "x": 344,
      "y": 248,
      "size": 1,
      "price": "1011000000000000000000",
      "reserved": "",
      "salt": "0x27f6689d3b2c2e0c8cf8b6fdd8c843a87205735a2256307670863b479e50e44b",
      "assetIds": []
    },
    {
      "x": 344,
      "y": 249,
      "size": 1,
      "price": "1011000000000000000000",
      "reserved": "",
      "salt": "0xe262484f6a2fbc470d194d9537cfdd5efe78db9d3c797b114f155c956752480d",
      "assetIds": []
    },
    {
      "x": 344,
      "y": 250,
      "size": 1,
      "price": "1011000000000000000000",
      "reserved": "",
      "salt": "0x2e52fb2c03f6da0809e4d3556ea1843f75e6fdedd9776fe9334f2146fd5b9548",
      "assetIds": []
    },
    {
      "x": 344,
      "y": 251,
      "size": 1,
      "price": "1011000000000000000000",
      "reserved": "",
      "salt": "0x1cc1a1d8c4256d9ecb8f5ebdcaddac57ba7fc2cf3a9cea8fb0e298a4bf81a27a",
      "assetIds": []
    },
    {
      "x": 344,
      "y": 252,
      "size": 1,
      "price": "1011000000000000000000",
      "reserved": "",
      "salt": "0x582115b6f9654cfcf629be097594d14bdcd69ded4afcdc13b719c92946d0af0d",
      "assetIds": []
    },
    {
      "x": 344,
      "y": 253,
      "size": 1,
      "price": "1011000000000000000000",
      "reserved": "",
      "salt": "0xf25775f1662ac4bbae8adc2156861afb90e0be2e9d268441156972ae57d28514",
      "assetIds": []
    },
    {
      "x": 344,
      "y": 254,
      "size": 1,
      "price": "1011000000000000000000",
      "reserved": "",
      "salt": "0x79e7f0897cd3463761d416a2d0536741f43d503cf79c8946a6932cbe2ec74267",
      "assetIds": []
    },
    {
      "x": 344,
      "y": 255,
      "size": 1,
      "price": "1011000000000000000000",
      "reserved": "",
      "salt": "0xb48992a1abca7b8cf1dd5a0270577c0027f6fb98ca1fe47f7cd9eec995acd8ee",
      "assetIds": []
    },
    {
      "x": 344,
      "y": 256,
      "size": 1,
      "price": "1011000000000000000000",
      "reserved": "",
      "salt": "0x12bd476bd69f4b6e242cb0ebc0a77dd778da87d447f0ce6e9e7a30ecff3217bf",
      "assetIds": []
    },
    {
      "x": 344,
      "y": 257,
      "size": 1,
      "price": "1011000000000000000000",
      "reserved": "",
      "salt": "0xaec82c595e6f9212f20d6be69b4fba02f787b9579afe49f089aa4fa3229d0624",
      "assetIds": []
    },
    {
      "x": 344,
      "y": 294,
      "size": 1,
      "price": "1011000000000000000000",
      "reserved": "",
      "salt": "0xcef2d29e10f510f2ec14415b9a37f8e80c90c8e55e45f296ec35c331c708b67d",
      "assetIds": []
    },
    {
      "x": 344,
      "y": 295,
      "size": 1,
      "price": "1011000000000000000000",
      "reserved": "",
      "salt": "0x4fa4809f89ae8d4c0d32ef897b9c11cb6b8196c43702cf2867abd3e8d949a6c1",
      "assetIds": []
    },
    {
      "x": 344,
      "y": 296,
      "size": 1,
      "price": "1011000000000000000000",
      "reserved": "",
      "salt": "0x908e26ff91c8d30e1c4b1a1038123c10c7f106a97518699b16c3862514a937cd",
      "assetIds": []
    },
    {
      "x": 344,
      "y": 297,
      "size": 1,
      "price": "1011000000000000000000",
      "reserved": "",
      "salt": "0xec0afc5270b880e293d043dace4f186243fedd6bcba4fee4595f469c3caf916d",
      "assetIds": []
    },
    {
      "x": 344,
      "y": 298,
      "size": 1,
      "price": "1011000000000000000000",
      "reserved": "",
      "salt": "0xbdc47082f94de5a5b57719028457b5c3601e76ecd4dffc5bf063b6cafc6ae136",
      "assetIds": []
    },
    {
      "x": 344,
      "y": 299,
      "size": 1,
      "price": "1011000000000000000000",
      "reserved": "",
      "salt": "0xa6dbd8cfb554a86d03062e7253280bd16abf87cb1f65a7394fcbed6b8ce8db5d",
      "assetIds": []
    },
    {
      "x": 345,
      "y": 240,
      "size": 1,
      "price": "1011000000000000000000",
      "reserved": "",
      "salt": "0x8dac005aa29b3b74971ecfcd00b8989f6120c3126e5d23ec660393598d28bf86",
      "assetIds": []
    },
    {
      "x": 345,
      "y": 241,
      "size": 1,
      "price": "1011000000000000000000",
      "reserved": "",
      "salt": "0x711d78a5611330b2c95e473759bdbfce1f8ff3f6f5e3bd62ad94cc00a5d907f1",
      "assetIds": []
    },
    {
      "x": 345,
      "y": 242,
      "size": 1,
      "price": "1011000000000000000000",
      "reserved": "",
      "salt": "0x1c0858c3e618ac46b7de8dc23853de2cddcac8d79e363444ba2e630da05dd499",
      "assetIds": []
    },
    {
      "x": 345,
      "y": 243,
      "size": 1,
      "price": "1011000000000000000000",
      "reserved": "",
      "salt": "0x7e2f7b1fbb66b1aaefa67bf48842417e234599ba001c8b36971df7f3fd65637a",
      "assetIds": []
    },
    {
      "x": 345,
      "y": 244,
      "size": 1,
      "price": "1011000000000000000000",
      "reserved": "0x7a9fe22691c811ea339d9b73150e6911a5343dca",
      "salt": "0x8741056b3fefb83fcc1479a27f1b0470314c48de0addcace7558283c4ad48fb8",
      "assetIds": []
    },
    {
      "x": 345,
      "y": 245,
      "size": 1,
      "price": "1011000000000000000000",
      "reserved": "",
      "salt": "0x66cb5c840a44e9e19354eb0f138c14554424eee008038bf99799c2c66413402d",
      "assetIds": []
    },
    {
      "x": 345,
      "y": 246,
      "size": 1,
      "price": "1011000000000000000000",
      "reserved": "",
      "salt": "0xf046f4113a5a70ec405c4587129957629bf14b57a053dad4c33c653a39173b75",
      "assetIds": []
    },
    {
      "x": 345,
      "y": 247,
      "size": 1,
      "price": "1011000000000000000000",
      "reserved": "",
      "salt": "0x5a12c1074080316474dd22ae3d364e122bcdff5d103c503b1261f8cfdd02594d",
      "assetIds": []
    },
    {
      "x": 345,
      "y": 248,
      "size": 1,
      "price": "1011000000000000000000",
      "reserved": "",
      "salt": "0x3762d80247308b972b2965f9faac2df422096da9bd8240e519e570d94bae223f",
      "assetIds": []
    },
    {
      "x": 345,
      "y": 249,
      "size": 1,
      "price": "1011000000000000000000",
      "reserved": "",
      "salt": "0x88f959c9790f3fcffb75833eb9381cf192d3bfc92b9ec17125a685a5b4c2dab7",
      "assetIds": []
    },
    {
      "x": 345,
      "y": 250,
      "size": 1,
      "price": "1011000000000000000000",
      "reserved": "",
      "salt": "0x4f24654cf1e12be3e278a894bd1d5b5f8466e4bd25a01e103782546c2fe32b4e",
      "assetIds": []
    },
    {
      "x": 345,
      "y": 251,
      "size": 1,
      "price": "1011000000000000000000",
      "reserved": "0x7a9fe22691c811ea339d9b73150e6911a5343dca",
      "salt": "0x2fa6a07f6ff8d37768108a44f459c448fe9a492218986d2c3e12996c70981291",
      "assetIds": []
    },
    {
      "x": 345,
      "y": 252,
      "size": 1,
      "price": "1011000000000000000000",
      "reserved": "",
      "salt": "0x233ca7b4432ef493ee491e1d072ab2fba753a90d9c11351d23d130ef372f632b",
      "assetIds": []
    },
    {
      "x": 345,
      "y": 253,
      "size": 1,
      "price": "1011000000000000000000",
      "reserved": "",
      "salt": "0x58c9d16b127fe9a875c65233bd6a13752d31ff793214a939020a48aa058bbc2f",
      "assetIds": []
    },
    {
      "x": 345,
      "y": 254,
      "size": 1,
      "price": "1011000000000000000000",
      "reserved": "",
      "salt": "0xc9ca863fb2b48a2ac6632992a3ddfc1e517f0032df472674da5df78835e63027",
      "assetIds": []
    },
    {
      "x": 345,
      "y": 255,
      "size": 1,
      "price": "1011000000000000000000",
      "reserved": "",
      "salt": "0x080eaa7c18d737d4585582fa2dd88395b5861e9b44838d01d9d8b56b9375c560",
      "assetIds": []
    },
    {
      "x": 345,
      "y": 256,
      "size": 1,
      "price": "1011000000000000000000",
      "reserved": "",
      "salt": "0x6a0c60991a46148fcc2cf54d3f7e6e24ecaf3ad191c89da63aa86add41c37cef",
      "assetIds": []
    },
    {
      "x": 345,
      "y": 257,
      "size": 1,
      "price": "1011000000000000000000",
      "reserved": "",
      "salt": "0xa1d4ed458b14d96b5026d7769769e56726b1ad8a0579c2e0c5db416790e40c9c",
      "assetIds": []
    },
    {
      "x": 345,
      "y": 297,
      "size": 1,
      "price": "1011000000000000000000",
      "reserved": "",
      "salt": "0x00e06473c506eed65d57df73aa25a9367c6c27a168509e5a1d35a73f74248eee",
      "assetIds": []
    },
    {
      "x": 345,
      "y": 298,
      "size": 1,
      "price": "1011000000000000000000",
      "reserved": "",
      "salt": "0x02d11b90315b3d91a553d920d1f30ae1019779e8555806f1a05a07425420e388",
      "assetIds": []
    },
    {
      "x": 345,
      "y": 299,
      "size": 1,
      "price": "1011000000000000000000",
      "reserved": "",
      "salt": "0xcd83b82fada4b8fc7b4c23df43bfaa7c2ff2e8cb83967e95bb8df632e338f340",
      "assetIds": []
    },
    {
      "x": 345,
      "y": 303,
      "size": 1,
      "price": "1011000000000000000000",
      "reserved": "",
      "salt": "0x36dadba47ac0c1db3138ea32e7ab1f8f2679794f64458b8c837b551482349cf9",
      "assetIds": []
    },
    {
      "x": 345,
      "y": 304,
      "size": 1,
      "price": "1011000000000000000000",
      "reserved": "",
      "salt": "0xb95dba63e669347eb7c6d5302fab540f8c18d0f4a18720eeb077283958875dff",
      "assetIds": []
    },
    {
      "x": 345,
      "y": 305,
      "size": 1,
      "price": "1011000000000000000000",
      "reserved": "",
      "salt": "0xd9866f208f2352038f101142551778f206f373985037e9ad5c0e51ef6d33d842",
      "assetIds": []
    },
    {
      "x": 346,
      "y": 240,
      "size": 1,
      "price": "1011000000000000000000",
      "reserved": "",
      "salt": "0x22208443f40e2937c0ee76361046c1c59c059f5111133edef7281ea7d184050e",
      "assetIds": []
    },
    {
      "x": 346,
      "y": 241,
      "size": 1,
      "price": "1011000000000000000000",
      "reserved": "",
      "salt": "0x48ae75d0c139d083ddc508e3a812b6dd7136676050bf9b73afb4e32829e5442a",
      "assetIds": []
    },
    {
      "x": 346,
      "y": 242,
      "size": 1,
      "price": "1011000000000000000000",
      "reserved": "",
      "salt": "0x40c79332cfcb9208b6e2aa968ef4804aa7f0d8ea058d4ec2809a35f845414d81",
      "assetIds": []
    },
    {
      "x": 346,
      "y": 243,
      "size": 1,
      "price": "1011000000000000000000",
      "reserved": "",
      "salt": "0x23505486a5638c63d6ba7f8e7a92afb64ccb17f214ff114cae93078d925917aa",
      "assetIds": []
    },
    {
      "x": 346,
      "y": 244,
      "size": 1,
      "price": "1011000000000000000000",
      "reserved": "",
      "salt": "0x83f556524ad8b0e3f2645c2132ab5773ab75d2b8a26f6dc7de5bf194ce174f32",
      "assetIds": []
    },
    {
      "x": 346,
      "y": 245,
      "size": 1,
      "price": "1011000000000000000000",
      "reserved": "",
      "salt": "0x9800fdf71c2f21e19cfee27c32df89d527b941e2c5c754c60d0b045b31b783cd",
      "assetIds": []
    },
    {
      "x": 346,
      "y": 246,
      "size": 1,
      "price": "1011000000000000000000",
      "reserved": "",
      "salt": "0x6ea3620b09c9c52ecfb65c418e458c2e8fff65ccb3988f84ff785afb935df6b6",
      "assetIds": []
    },
    {
      "x": 346,
      "y": 247,
      "size": 1,
      "price": "1011000000000000000000",
      "reserved": "",
      "salt": "0x9a5f294fbed8e46db84f2e5bc911a0ed72a6440b270715fdedd774f377dc121c",
      "assetIds": []
    },
    {
      "x": 346,
      "y": 248,
      "size": 1,
      "price": "1011000000000000000000",
      "reserved": "",
      "salt": "0x6d6717ebd3da12c7d7eca3bf67e2af98d310a53ee71da2e284f2820abb5336c6",
      "assetIds": []
    },
    {
      "x": 346,
      "y": 249,
      "size": 1,
      "price": "1011000000000000000000",
      "reserved": "",
      "salt": "0x323cc40e4f545690f3d1d1e40b6bd44292e9edfb3a1b1789e013f2fcbd7e110d",
      "assetIds": []
    },
    {
      "x": 346,
      "y": 250,
      "size": 1,
      "price": "1011000000000000000000",
      "reserved": "",
      "salt": "0x0932e7cac341d92f5b1a99c1d27c9f54d2f33880b351635dfcf0fe7854c76658",
      "assetIds": []
    },
    {
      "x": 346,
      "y": 251,
      "size": 1,
      "price": "1011000000000000000000",
      "reserved": "",
      "salt": "0x7d3a0c3cb900f204e273465d1ce47d3cece9f3a69aa1215200f3985fd076a77f",
      "assetIds": []
    },
    {
      "x": 346,
      "y": 252,
      "size": 1,
      "price": "1011000000000000000000",
      "reserved": "",
      "salt": "0xabb4cf5ef8391c735efe9011f5785c933f9cf04eb29330acc66a0e752c3a070b",
      "assetIds": []
    },
    {
      "x": 346,
      "y": 253,
      "size": 1,
      "price": "1011000000000000000000",
      "reserved": "",
      "salt": "0x1731173b6fa1c4c31fd2ee3fd2d58b9c613e42915be3f35faca129e6e92a02bd",
      "assetIds": []
    },
    {
      "x": 346,
      "y": 254,
      "size": 1,
      "price": "1011000000000000000000",
      "reserved": "",
      "salt": "0xad89b97542d5ba2c1c902076f6fcef734d7cf02291c5df93ee06a80b54e26264",
      "assetIds": []
    },
    {
      "x": 346,
      "y": 255,
      "size": 1,
      "price": "1011000000000000000000",
      "reserved": "",
      "salt": "0xb8675f2fe348f2e261a1f96b6d94b52fcae621392f78652210612eb39ea43145",
      "assetIds": []
    },
    {
      "x": 346,
      "y": 256,
      "size": 1,
      "price": "1011000000000000000000",
      "reserved": "",
      "salt": "0x8253a9a52cd6e90fe0d7ba08d0a0df48282c1cfa24bde29b1a80c3f9a8f51190",
      "assetIds": []
    },
    {
      "x": 346,
      "y": 257,
      "size": 1,
      "price": "1011000000000000000000",
      "reserved": "",
      "salt": "0xd1a40ed8444f297be9b5609c29075724d9cbdc602c3a8c7f3d6a1a7b261e83d8",
      "assetIds": []
    },
    {
      "x": 346,
      "y": 297,
      "size": 1,
      "price": "1011000000000000000000",
      "reserved": "",
      "salt": "0x0cdee3954529e47548e42dddd4f688d1a3c76875f5197a58290e354013b8a929",
      "assetIds": []
    },
    {
      "x": 346,
      "y": 298,
      "size": 1,
      "price": "1011000000000000000000",
      "reserved": "",
      "salt": "0x8216ba90e2c4724a3637e72e19d7f7437d3ba6034f9694014b15331bec559c72",
      "assetIds": []
    },
    {
      "x": 346,
      "y": 299,
      "size": 1,
      "price": "1011000000000000000000",
      "reserved": "",
      "salt": "0xa698f08f40ffed1e74f777dcb1ac01cd742f1311a2d2b17390e5497aa58d2054",
      "assetIds": []
    },
    {
      "x": 346,
      "y": 303,
      "size": 1,
      "price": "1011000000000000000000",
      "reserved": "",
      "salt": "0xec59ceabae401f861a8cd65b2027dd5c8627c48fdeb2277b5024c1598340cab0",
      "assetIds": []
    },
    {
      "x": 346,
      "y": 304,
      "size": 1,
      "price": "1011000000000000000000",
      "reserved": "",
      "salt": "0x0581ab87630cfcf078d95d3e7c899639cda072191699d586f878857e2faf4d61",
      "assetIds": []
    },
    {
      "x": 346,
      "y": 305,
      "size": 1,
      "price": "1011000000000000000000",
      "reserved": "",
      "salt": "0x1cd01ddef9a75e94e6c4e4de6c0e811f076190b4573b9045021edfb3a5f26529",
      "assetIds": []
    },
    {
      "x": 347,
      "y": 240,
      "size": 1,
      "price": "1011000000000000000000",
      "reserved": "",
      "salt": "0x01fe94a30377bf42ab286f823d81e565d813a26a558f8325bb79705bd230cc74",
      "assetIds": []
    },
    {
      "x": 347,
      "y": 241,
      "size": 1,
      "price": "1011000000000000000000",
      "reserved": "",
      "salt": "0xe301366f827ab7fa6464513c31e260279aa50407a23ddb09722d00458b81c2b9",
      "assetIds": []
    },
    {
      "x": 347,
      "y": 242,
      "size": 1,
      "price": "1011000000000000000000",
      "reserved": "",
      "salt": "0x593fb586e089cec379420c01e8d9c2759d4502db246408a4719b26a6338b56f4",
      "assetIds": []
    },
    {
      "x": 347,
      "y": 243,
      "size": 1,
      "price": "1011000000000000000000",
      "reserved": "",
      "salt": "0xa018ddeb299a6b96d54e580bf4621f9435625678ef570d7e065b974a1fabd6f5",
      "assetIds": []
    },
    {
      "x": 347,
      "y": 244,
      "size": 1,
      "price": "1011000000000000000000",
      "reserved": "",
      "salt": "0x8ac03810b8980a78da902f84fbcfd4a7c02b7715731520b7b6d1de97bec9a1ab",
      "assetIds": []
    },
    {
      "x": 347,
      "y": 245,
      "size": 1,
      "price": "1011000000000000000000",
      "reserved": "",
      "salt": "0xdb4aedecfb35fad646d2d954382ef7f11edf50684d87e189934589d295957f04",
      "assetIds": []
    },
    {
      "x": 347,
      "y": 246,
      "size": 1,
      "price": "1011000000000000000000",
      "reserved": "",
      "salt": "0x12e5a9aad77aa0f54f04cdf71eb9b70568c4096d6ea9cd04746b19839facfbff",
      "assetIds": []
    },
    {
      "x": 347,
      "y": 247,
      "size": 1,
      "price": "1011000000000000000000",
      "reserved": "",
      "salt": "0x1c0a88da17532b57e064ef953515e5b8c274620ff86c13ef76a13bc6c75310b2",
      "assetIds": []
    },
    {
      "x": 347,
      "y": 248,
      "size": 1,
      "price": "1011000000000000000000",
      "reserved": "",
      "salt": "0x219cf2fd8df774c88b2f50718f7bf317acc8b3ac6e69065083c4bd86be6555d7",
      "assetIds": []
    },
    {
      "x": 347,
      "y": 249,
      "size": 1,
      "price": "1011000000000000000000",
      "reserved": "",
      "salt": "0x2ce328efc010b834ad6fcc58105614c9f33ac92e282d43969a0dfd6b0639cf18",
      "assetIds": []
    },
    {
      "x": 347,
      "y": 250,
      "size": 1,
      "price": "1011000000000000000000",
      "reserved": "",
      "salt": "0x153d3177d08702a731b8f62c6cc5228cb2ba5b77217823d8bb69a3ea19eb552d",
      "assetIds": []
    },
    {
      "x": 347,
      "y": 251,
      "size": 1,
      "price": "1011000000000000000000",
      "reserved": "",
      "salt": "0xbc2b5c2a482f4daeea3e0c3a82b310fc2e9a9008037297bf2631d0af428ddbad",
      "assetIds": []
    },
    {
      "x": 347,
      "y": 252,
      "size": 1,
      "price": "1011000000000000000000",
      "reserved": "",
      "salt": "0x4fde9772dd0b8763dad9b6021c4fafdb63d50894eeed2616a346c21c67ad4d98",
      "assetIds": []
    },
    {
      "x": 347,
      "y": 253,
      "size": 1,
      "price": "1011000000000000000000",
      "reserved": "",
      "salt": "0xdf663727d052c295fcfe8f79053fb22c61061d62b8219fa57a0c6e5750390452",
      "assetIds": []
    },
    {
      "x": 347,
      "y": 254,
      "size": 1,
      "price": "1011000000000000000000",
      "reserved": "",
      "salt": "0xd5d4a3922554f429b14c3ed5184746de7f48887e75d18556de781d1059800e5d",
      "assetIds": []
    },
    {
      "x": 347,
      "y": 255,
      "size": 1,
      "price": "1011000000000000000000",
      "reserved": "",
      "salt": "0x5ebe2f9260e7dcabfa74549ca078c399927920ba2d4aa659f510a1e10be681fc",
      "assetIds": []
    },
    {
      "x": 347,
      "y": 256,
      "size": 1,
      "price": "1011000000000000000000",
      "reserved": "",
      "salt": "0x1b4c3e688d1d8e7e9a9ce8df333a1ce4424fb6fe4d3b4620be3871613a66b646",
      "assetIds": []
    },
    {
      "x": 347,
      "y": 257,
      "size": 1,
      "price": "1011000000000000000000",
      "reserved": "",
      "salt": "0xdff84d239004bd97d38fac6f5bc918cfad56925b43e9e27bc7d3b2c3d23d61fc",
      "assetIds": []
    },
    {
      "x": 347,
      "y": 297,
      "size": 1,
      "price": "1011000000000000000000",
      "reserved": "",
      "salt": "0xcdd868847c6ca746d8b89172a5f984665860701078cb8a6340b306dd24afd6bd",
      "assetIds": []
    },
    {
      "x": 347,
      "y": 298,
      "size": 1,
      "price": "1011000000000000000000",
      "reserved": "",
      "salt": "0xdad2c6a39acbd05955b046c318e5c9501fb9fffd69fa6c2d979e1fd9f7ac25c8",
      "assetIds": []
    },
    {
      "x": 347,
      "y": 299,
      "size": 1,
      "price": "1011000000000000000000",
      "reserved": "",
      "salt": "0x53040cbe0dc094b74e9b533324addda354362e064a819211fc427758f8176ed6",
      "assetIds": []
    },
    {
      "x": 347,
      "y": 303,
      "size": 1,
      "price": "1011000000000000000000",
      "reserved": "",
      "salt": "0xa15fa38e2c3e0ddfc43ce50f0f217e5a0c2f977d1f3ae537c36336c8e65961bd",
      "assetIds": []
    },
    {
      "x": 347,
      "y": 304,
      "size": 1,
      "price": "1011000000000000000000",
      "reserved": "",
      "salt": "0x53a5cf6646c1a9a3478012219c5ef2bc726fe0ed91452b716be5b4b4e210179e",
      "assetIds": []
    },
    {
      "x": 347,
      "y": 305,
      "size": 1,
      "price": "1011000000000000000000",
      "reserved": "",
      "salt": "0x798bd747751208bcb2fa3494d9529f705cf3cd6ccd95d003d22a32dc6d95fec7",
      "assetIds": []
    },
    {
      "x": 348,
      "y": 255,
      "size": 1,
      "price": "1011000000000000000000",
      "reserved": "",
      "salt": "0xb30f5b35a33eb6f0cafd2c98d3fe72bd4a1ddd65a3be7c0eea8dd75edbe07087",
      "assetIds": []
    },
    {
      "x": 348,
      "y": 256,
      "size": 1,
      "price": "1011000000000000000000",
      "reserved": "",
      "salt": "0x5af40d895038eaa4849ab8416afcc8e072d33c514defdb11ab36a075e6fd8331",
      "assetIds": []
    },
    {
      "x": 348,
      "y": 257,
      "size": 1,
      "price": "1011000000000000000000",
      "reserved": "",
      "salt": "0x101c01e533ed7c3201fc720c5d2b659eeed630838649967483ed95b64d5d1c65",
      "assetIds": []
    },
    {
      "x": 348,
      "y": 258,
      "size": 1,
      "price": "1011000000000000000000",
      "reserved": "",
      "salt": "0xe272df7bc02b56cd0814ea79c0eda34ddf8c5d34ba77349f30049c125b6c5ee7",
      "assetIds": []
    },
    {
      "x": 348,
      "y": 259,
      "size": 1,
      "price": "1011000000000000000000",
      "reserved": "",
      "salt": "0x38a1d144ca83d092ad264d2db5958ae72e0a767c17ff1a394098cf46dfd61b63",
      "assetIds": []
    },
    {
      "x": 348,
      "y": 260,
      "size": 1,
      "price": "1011000000000000000000",
      "reserved": "",
      "salt": "0xc81876dacbc6d3099bdf058619f0cade2218b3afb29e9f1991beb706790ade15",
      "assetIds": []
    },
    {
      "x": 348,
      "y": 261,
      "size": 1,
      "price": "1011000000000000000000",
      "reserved": "",
      "salt": "0x67b46a1a48b49e1c7ec40a2bbb5e419b2178e876f99714d87b7ddaf35567c302",
      "assetIds": []
    },
    {
      "x": 348,
      "y": 262,
      "size": 1,
      "price": "1011000000000000000000",
      "reserved": "",
      "salt": "0x144d82c464099ecd55eb22ed18e5d5e7e21949d963cb1bcf33d10ce8706ce707",
      "assetIds": []
    },
    {
      "x": 348,
      "y": 263,
      "size": 1,
      "price": "1011000000000000000000",
      "reserved": "",
      "salt": "0x02cd3809ea5ce91ba626a01b0a74481c2fd1b241e3823b34d0592dccdfec1a15",
      "assetIds": []
    },
    {
      "x": 348,
      "y": 300,
      "size": 1,
      "price": "1011000000000000000000",
      "reserved": "",
      "salt": "0x405080b878b754fc5d42a4259f4bc0d402a200079e2fe74426080bcb39701a1b",
      "assetIds": []
    },
    {
      "x": 348,
      "y": 301,
      "size": 1,
      "price": "1011000000000000000000",
      "reserved": "",
      "salt": "0x1308117448ab59bb056907dc546d7cced9922d3218cc0b6ffcbee543b41dc959",
      "assetIds": []
    },
    {
      "x": 348,
      "y": 302,
      "size": 1,
      "price": "1011000000000000000000",
      "reserved": "",
      "salt": "0xac6a10abefd20b0c678e3e31eb1aaa88053154578c15a5166512a1828ccc0663",
      "assetIds": []
    },
    {
      "x": 348,
      "y": 303,
      "size": 1,
      "price": "1011000000000000000000",
      "reserved": "",
      "salt": "0xff0b49f9b7131bb55f786153b919922898bedc85947305679dad13d6d3d2e709",
      "assetIds": []
    },
    {
      "x": 348,
      "y": 304,
      "size": 1,
      "price": "1011000000000000000000",
      "reserved": "",
      "salt": "0xb4d3926428846bdbeaf60b35cb447cfa339f2a792945925e8539561d29487fd8",
      "assetIds": []
    },
    {
      "x": 348,
      "y": 305,
      "size": 1,
      "price": "1011000000000000000000",
      "reserved": "",
      "salt": "0xd53a49c6cf4b78fb01e2bc224981f86fb8f33507a473720eca5e5a6ea339375e",
      "assetIds": []
    },
    {
      "x": 349,
      "y": 255,
      "size": 1,
      "price": "1011000000000000000000",
      "reserved": "",
      "salt": "0xde5d4bf8b1defbd2807b804e78582337d79f054054f0bd1658039558d2d74c8a",
      "assetIds": []
    },
    {
      "x": 349,
      "y": 256,
      "size": 1,
      "price": "1011000000000000000000",
      "reserved": "",
      "salt": "0x1a2591484ee8163699dad45f69ab48172ee7c2f12bf2aeddad62885c9dff730d",
      "assetIds": []
    },
    {
      "x": 349,
      "y": 257,
      "size": 1,
      "price": "1011000000000000000000",
      "reserved": "",
      "salt": "0xc048a110b2851a7e47ecab21815bc925515a503672b2fbaf804bc9b6134ecd0f",
      "assetIds": []
    },
    {
      "x": 349,
      "y": 258,
      "size": 1,
      "price": "1011000000000000000000",
      "reserved": "",
      "salt": "0x8992db8d652a3eccd242e0b1c3acaa256e3df3a952e2135efd9ff111551967eb",
      "assetIds": []
    },
    {
      "x": 349,
      "y": 259,
      "size": 1,
      "price": "1011000000000000000000",
      "reserved": "",
      "salt": "0x88c2fce1b3adc3f1caca1afce31a307067f695a6548b39297791e02a8a29d914",
      "assetIds": []
    },
    {
      "x": 349,
      "y": 260,
      "size": 1,
      "price": "1011000000000000000000",
      "reserved": "",
      "salt": "0x364c52e435b332b84c35c5b1ed2ad9f6a9677aeed1e205454d18f88dc07fd57b",
      "assetIds": []
    },
    {
      "x": 349,
      "y": 261,
      "size": 1,
      "price": "1011000000000000000000",
      "reserved": "",
      "salt": "0x6a7c0a5a8ef8a559a0852d887dbe6d978c5a0f0982df62616f71134ebfce9e07",
      "assetIds": []
    },
    {
      "x": 349,
      "y": 262,
      "size": 1,
      "price": "1011000000000000000000",
      "reserved": "",
      "salt": "0xbf1eb22471b7a32911b0637d73b4ef62b266d1f1bae9b6b5529b9e5fbc63ccfe",
      "assetIds": []
    },
    {
      "x": 349,
      "y": 263,
      "size": 1,
      "price": "1011000000000000000000",
      "reserved": "",
      "salt": "0x9a23c4568a9d0193e41036620720e01cb59d407d95c7e14013359d70af5a4651",
      "assetIds": []
    },
    {
      "x": 349,
      "y": 300,
      "size": 1,
      "price": "1011000000000000000000",
      "reserved": "",
      "salt": "0x164bfae3c754ea09a8d4ecb50d943e3bbd3af0ebf9003876c9e33f8a0af1e1ef",
      "assetIds": []
    },
    {
      "x": 349,
      "y": 301,
      "size": 1,
      "price": "1011000000000000000000",
      "reserved": "",
      "salt": "0x0b1996ebd112b5ea8f24b884560b788e7d6c1d81324fc7c72aab7ce777b4c423",
      "assetIds": []
    },
    {
      "x": 349,
      "y": 302,
      "size": 1,
      "price": "1011000000000000000000",
      "reserved": "",
      "salt": "0x5ada0bca62b39148c64c854e505ae109467185cf80c7bae85059f302c034b3aa",
      "assetIds": []
    },
    {
      "x": 349,
      "y": 303,
      "size": 1,
      "price": "1011000000000000000000",
      "reserved": "0x7a9fe22691c811ea339d9b73150e6911a5343dca",
      "salt": "0xa3ccf8c175393ae309776fb256de7e43d589a53ddd70a68d442f2e6ec5696826",
      "assetIds": []
    },
    {
      "x": 349,
      "y": 304,
      "size": 1,
      "price": "1011000000000000000000",
      "reserved": "",
      "salt": "0x8a6b7a7724e32a4cdd83145f5273b320848118dc3026b4b7d4c5c27bee50f5a9",
      "assetIds": []
    },
    {
      "x": 349,
      "y": 305,
      "size": 1,
      "price": "1011000000000000000000",
      "reserved": "",
      "salt": "0x6af435b6814d6863aaad9e4e559757525d9708d41258e2f9d8bacb3b0eb7ad6d",
      "assetIds": []
    },
    {
      "x": 350,
      "y": 255,
      "size": 1,
      "price": "1011000000000000000000",
      "reserved": "",
      "salt": "0x0ba28739493a442fa08ec1a63d321aae6a0d04d5d389fc1ac0c5fa5d45baf003",
      "assetIds": []
    },
    {
      "x": 350,
      "y": 256,
      "size": 1,
      "price": "1011000000000000000000",
      "reserved": "",
      "salt": "0xe698355a321cc7184db2ba0fd032094d9bf1a0d6698d2694e06451c195f8a1ea",
      "assetIds": []
    },
    {
      "x": 350,
      "y": 257,
      "size": 1,
      "price": "1011000000000000000000",
      "reserved": "",
      "salt": "0x607092e30a495874ff73092498034ea0d6fa14dd777deb8291839e61e961f0ce",
      "assetIds": []
    },
    {
      "x": 350,
      "y": 258,
      "size": 1,
      "price": "1011000000000000000000",
      "reserved": "",
      "salt": "0x3959b3ec5c9bd356057d657f7d142365c39d712b7e7efa184570c3949d88b6e1",
      "assetIds": []
    },
    {
      "x": 350,
      "y": 259,
      "size": 1,
      "price": "1011000000000000000000",
      "reserved": "",
      "salt": "0xc633aca0994d8327429ce6e81e8679c6170a05f18dd5b99e923bd2e7d94593de",
      "assetIds": []
    },
    {
      "x": 350,
      "y": 260,
      "size": 1,
      "price": "1011000000000000000000",
      "reserved": "",
      "salt": "0xd60d34e6ed750c1697d757015b6e4d68f5c011199f172f6f7b2d518ba5da15a1",
      "assetIds": []
    },
    {
      "x": 350,
      "y": 261,
      "size": 1,
      "price": "1011000000000000000000",
      "reserved": "",
      "salt": "0x75a3359c8dfe3dd2150fe6ba263406f74a234c951d86fbcad8e109837cb77a62",
      "assetIds": []
    },
    {
      "x": 350,
      "y": 262,
      "size": 1,
      "price": "1011000000000000000000",
      "reserved": "",
      "salt": "0xcd62f8f3018ada044509156e77539cf064037bb5eded6b62ddd3db29967f6110",
      "assetIds": []
    },
    {
      "x": 350,
      "y": 263,
      "size": 1,
      "price": "1011000000000000000000",
      "reserved": "",
      "salt": "0xbe724040b1936638b4a93c8666dcd74a092632221526369bdc51d354b2d5e7e2",
      "assetIds": []
    },
    {
      "x": 350,
      "y": 300,
      "size": 1,
      "price": "1011000000000000000000",
      "reserved": "",
      "salt": "0xd530fc832dad37acf8930d6ec9a1b901846d3b138343d711b5b08d061a25e542",
      "assetIds": []
    },
    {
      "x": 350,
      "y": 301,
      "size": 1,
      "price": "1011000000000000000000",
      "reserved": "",
      "salt": "0xb7138bb5a70f65be0fb1ced3b35db9db9d73ac03fc16975aebffcb9ccf7a30e6",
      "assetIds": []
    },
    {
      "x": 350,
      "y": 302,
      "size": 1,
      "price": "1011000000000000000000",
      "reserved": "",
      "salt": "0xf00c5e635ade86deddf1518b380561015de6858afd311e6d331254559ba66b97",
      "assetIds": []
    },
    {
      "x": 350,
      "y": 303,
      "size": 1,
      "price": "1011000000000000000000",
      "reserved": "",
      "salt": "0x957581d4446ae7c40ee1dd59a768084659142c9dfe093e23411f957bcb8b777d",
      "assetIds": []
    },
    {
      "x": 350,
      "y": 304,
      "size": 1,
      "price": "1011000000000000000000",
      "reserved": "",
      "salt": "0x086f80a7d2cd0cef7458ac8a3f022e0e4ee0f98f81e0040753e749df0d896e1e",
      "assetIds": []
    },
    {
      "x": 350,
      "y": 305,
      "size": 1,
      "price": "1011000000000000000000",
      "reserved": "",
      "salt": "0x6d9c80a3ed49a95b0c8ec7c8739745b4ac078451a51ebf702257a5bd67bf1428",
      "assetIds": []
    },
    {
      "x": 351,
      "y": 252,
      "size": 1,
      "price": "1011000000000000000000",
      "reserved": "",
      "salt": "0xe2adc42896f66c4fee62c784ac2e284334cd10a8f4dc6cbd03bf5a1d952fa12e",
      "assetIds": []
    },
    {
      "x": 351,
      "y": 253,
      "size": 1,
      "price": "1011000000000000000000",
      "reserved": "",
      "salt": "0x6a84a2d93aa6ad70d42960f479ac24dfa4c903122a784e7c11a14d109e5c09de",
      "assetIds": []
    },
    {
      "x": 351,
      "y": 254,
      "size": 1,
      "price": "1011000000000000000000",
      "reserved": "",
      "salt": "0x55f6e0c55bb99f7abd05f35454b529d6dc2d6df85745c63d03eec9387346b009",
      "assetIds": []
    },
    {
      "x": 351,
      "y": 255,
      "size": 1,
      "price": "1011000000000000000000",
      "reserved": "",
      "salt": "0x9080b2b672f0f7197e66bbd4ed6d7222d4b07e6bf3466803cc821d512ee3f584",
      "assetIds": []
    },
    {
      "x": 351,
      "y": 256,
      "size": 1,
      "price": "1011000000000000000000",
      "reserved": "",
      "salt": "0x54024aa41ee9a7263ff12f78769425edbce0e32a93a0e84af0e4f6fdcef6d005",
      "assetIds": []
    },
    {
      "x": 351,
      "y": 257,
      "size": 1,
      "price": "1011000000000000000000",
      "reserved": "",
      "salt": "0x6ce8938b9cf29f75b80a1d0f5dcca06cf39a7290cb3b57001197576d64613248",
      "assetIds": []
    },
    {
      "x": 351,
      "y": 258,
      "size": 1,
      "price": "1011000000000000000000",
      "reserved": "",
      "salt": "0xb4bf7beea5ef85d053ddc9d5859026fee875d823143729539278dc3e8f45999a",
      "assetIds": []
    },
    {
      "x": 351,
      "y": 259,
      "size": 1,
      "price": "1011000000000000000000",
      "reserved": "",
      "salt": "0x5fc32a9a728429766c9a77d8c81ffd5796a7e6d2194be1357d1f6852c570e360",
      "assetIds": []
    },
    {
      "x": 351,
      "y": 260,
      "size": 1,
      "price": "1011000000000000000000",
      "reserved": "",
      "salt": "0x2f476e8328d0a13ff994adc6e03126f05992ad57ce1030ecd4a9b82f41647a3f",
      "assetIds": []
    },
    {
      "x": 351,
      "y": 261,
      "size": 1,
      "price": "1011000000000000000000",
      "reserved": "",
      "salt": "0xfd440a3d59477adb86d6eb9646f0258787ef66ecf026619c0535e9476bc6035e",
      "assetIds": []
    },
    {
      "x": 351,
      "y": 262,
      "size": 1,
      "price": "1011000000000000000000",
      "reserved": "",
      "salt": "0x0630384f78098b0918ff459329688e8d9b2ece3c5966aec482ae0225313ac562",
      "assetIds": []
    },
    {
      "x": 351,
      "y": 263,
      "size": 1,
      "price": "1011000000000000000000",
      "reserved": "",
      "salt": "0xf6b94c9f722253bd0f85048f4ddbe5d7de095dea545e19a722761bf1f9d60d29",
      "assetIds": []
    },
    {
      "x": 351,
      "y": 300,
      "size": 1,
      "price": "1011000000000000000000",
      "reserved": "",
      "salt": "0x773a384837c942e1820f9345f4e23f1c2fb2c9995edc1b4d3dce1187c33bb74e",
      "assetIds": []
    },
    {
      "x": 351,
      "y": 301,
      "size": 1,
      "price": "1011000000000000000000",
      "reserved": "",
      "salt": "0xa9a5077d06c7dcb52a98c523bba8c92aa1ab870f78d064da2bb0cf0cccd7d01b",
      "assetIds": []
    },
    {
      "x": 351,
      "y": 302,
      "size": 1,
      "price": "1011000000000000000000",
      "reserved": "",
      "salt": "0xed2a82b94d14a36645412034eb65d0e206eac2b39a8e878253bef92cf7214124",
      "assetIds": []
    },
    {
      "x": 351,
      "y": 303,
      "size": 1,
      "price": "1011000000000000000000",
      "reserved": "",
      "salt": "0xbd22cca315b37284ee200e35e2be8ccf0fdcc9393feaa43c19e4d06f36b761ca",
      "assetIds": []
    },
    {
      "x": 351,
      "y": 304,
      "size": 1,
      "price": "1011000000000000000000",
      "reserved": "",
      "salt": "0x870912b18d76a212abec5a83cfbbbd280c0f71eee2f11ee43719c0123838a778",
      "assetIds": []
    },
    {
      "x": 351,
      "y": 305,
      "size": 1,
      "price": "1011000000000000000000",
      "reserved": "",
      "salt": "0xcdd547d83f18c675ac53efb1445ff27a533b743265027393f617a854e137ce7a",
      "assetIds": []
    },
    {
      "x": 352,
      "y": 252,
      "size": 1,
      "price": "1011000000000000000000",
      "reserved": "",
      "salt": "0x4b4076cbdacde1039dec35332bab349c611a41b231604306841a7e57b398f319",
      "assetIds": []
    },
    {
      "x": 352,
      "y": 253,
      "size": 1,
      "price": "1011000000000000000000",
      "reserved": "",
      "salt": "0x8a5b4d01670d987cdd13a83d5819371aa5fb259f8278012b655c385667e2afc5",
      "assetIds": []
    },
    {
      "x": 352,
      "y": 254,
      "size": 1,
      "price": "1011000000000000000000",
      "reserved": "",
      "salt": "0x74503c0a56d0818b0096cd75df2a118a536a1569e4ff14412b5e3745a9bef0b6",
      "assetIds": []
    },
    {
      "x": 352,
      "y": 255,
      "size": 1,
      "price": "1011000000000000000000",
      "reserved": "",
      "salt": "0x633d057c924add61c9fefa0bed13d8f59e87f7637839fb4ebd79019236ecc7fa",
      "assetIds": []
    },
    {
      "x": 352,
      "y": 256,
      "size": 1,
      "price": "1011000000000000000000",
      "reserved": "",
      "salt": "0xc6e215d5be80ec84cdde09f8098f60e75bea5045018f7bfccd082f20d0d10164",
      "assetIds": []
    },
    {
      "x": 352,
      "y": 257,
      "size": 1,
      "price": "1011000000000000000000",
      "reserved": "",
      "salt": "0x668809c66d5992eac7f84be7fd0eb55094f163767bd7cf80086df13e91b58ed0",
      "assetIds": []
    },
    {
      "x": 352,
      "y": 258,
      "size": 1,
      "price": "1011000000000000000000",
      "reserved": "",
      "salt": "0x2aa9be17e75823fe807ce58c954ea97aa4ed2078feba1eb41de4131f8b4deb5e",
      "assetIds": []
    },
    {
      "x": 352,
      "y": 259,
      "size": 1,
      "price": "1011000000000000000000",
      "reserved": "",
      "salt": "0xa79a3c681e9dbdb0a1a6bb85f5175a0ba28d01555b34aa732e71f6b71ff3c9b2",
      "assetIds": []
    },
    {
      "x": 352,
      "y": 260,
      "size": 1,
      "price": "1011000000000000000000",
      "reserved": "",
      "salt": "0xccaff6e962401f2ada1546696a9c22f10e40e2c15aa804b969e8b7b9521203ba",
      "assetIds": []
    },
    {
      "x": 352,
      "y": 261,
      "size": 1,
      "price": "1011000000000000000000",
      "reserved": "",
      "salt": "0xc9fecf0a236e23a5c604479d9532ed4cc35fbd9da605039384dec32aa95ec1d3",
      "assetIds": []
    },
    {
      "x": 352,
      "y": 262,
      "size": 1,
      "price": "1011000000000000000000",
      "reserved": "0x7a9fe22691c811ea339d9b73150e6911a5343dca",
      "salt": "0x84341707dd96d57a571222d6dccbd1dc49889f58463737b33436800dc2333c1b",
      "assetIds": []
    },
    {
      "x": 352,
      "y": 263,
      "size": 1,
      "price": "1011000000000000000000",
      "reserved": "",
      "salt": "0xf1a463d2b56c99f1e347746da741cf36ff29d175f934cfc9e2026895d655f495",
      "assetIds": []
    },
    {
      "x": 352,
      "y": 300,
      "size": 1,
      "price": "1011000000000000000000",
      "reserved": "",
      "salt": "0xd30099fe5e74fcdf3e46a2c47c072594dd17bb3261faae81b1ade25d944d4706",
      "assetIds": []
    },
    {
      "x": 352,
      "y": 301,
      "size": 1,
      "price": "1011000000000000000000",
      "reserved": "",
      "salt": "0x0f9ca6ef7c5df12aa4a4f3ea1ebc130c205ecbd75066774e1520cfb8d640bc47",
      "assetIds": []
    },
    {
      "x": 352,
      "y": 302,
      "size": 1,
      "price": "1011000000000000000000",
      "reserved": "",
      "salt": "0x67346531f9ea68b2a3c79c133c102246d2d6bb459ee2c7c5e665edee35bed4d1",
      "assetIds": []
    },
    {
      "x": 352,
      "y": 303,
      "size": 1,
      "price": "1011000000000000000000",
      "reserved": "",
      "salt": "0x67d87a03825d098575c64bf681453b0f6ce52f64f64b4514762e8c8531dbd022",
      "assetIds": []
    },
    {
      "x": 352,
      "y": 304,
      "size": 1,
      "price": "1011000000000000000000",
      "reserved": "",
      "salt": "0x1decbd6d0c1b4132e440384655a200542e73e9d43a7a8c38c605e7d6ccc4eaaf",
      "assetIds": []
    },
    {
      "x": 352,
      "y": 305,
      "size": 1,
      "price": "1011000000000000000000",
      "reserved": "",
      "salt": "0xe725235ec0378fc116a2211116ed9552c936cb376728793e4171f08bf375b8d5",
      "assetIds": []
    },
    {
      "x": 353,
      "y": 252,
      "size": 1,
      "price": "1011000000000000000000",
      "reserved": "0x7a9fe22691c811ea339d9b73150e6911a5343dca",
      "salt": "0x45e646bed2f63747a042f3df699264b934f3a4902f375c602edb4265a625335f",
      "assetIds": []
    },
    {
      "x": 353,
      "y": 253,
      "size": 1,
      "price": "1011000000000000000000",
      "reserved": "",
      "salt": "0xa673ddbc503c8861cb1a1148bfd0f420bfa4cadb20cff2cb609f4f7ccd28f707",
      "assetIds": []
    },
    {
      "x": 353,
      "y": 254,
      "size": 1,
      "price": "1011000000000000000000",
      "reserved": "",
      "salt": "0xe0394a9803a63ecfde4fc9876463d12c10337290bf0248d88aec235930ef3d7a",
      "assetIds": []
    },
    {
      "x": 353,
      "y": 255,
      "size": 1,
      "price": "1011000000000000000000",
      "reserved": "",
      "salt": "0x55e9d704c5e61d3a49b831da756bd5a04279dd9fa153539d70997736ed0c3c75",
      "assetIds": []
    },
    {
      "x": 353,
      "y": 256,
      "size": 1,
      "price": "1011000000000000000000",
      "reserved": "",
      "salt": "0xa8f21a80b6dae6cd7df7cc530054405c174db0819dc1894a395152cb8a195aee",
      "assetIds": []
    },
    {
      "x": 353,
      "y": 257,
      "size": 1,
      "price": "1011000000000000000000",
      "reserved": "",
      "salt": "0x477574cabaa3fe94a51e37e6d93e0db3397ca7b6cc90ad85198bbb0c9f1c780d",
      "assetIds": []
    },
    {
      "x": 353,
      "y": 258,
      "size": 1,
      "price": "1011000000000000000000",
      "reserved": "",
      "salt": "0x56fceeb3a9d1a5bc47048ff86e5f6db4251501eed1e9a293cc257d48e320105c",
      "assetIds": []
    },
    {
      "x": 353,
      "y": 259,
      "size": 1,
      "price": "1011000000000000000000",
      "reserved": "",
      "salt": "0x1c99d47a5f4712100a43a5be18bd7419bf1543d6593e577c4cc5644a1b139c79",
      "assetIds": []
    },
    {
      "x": 353,
      "y": 260,
      "size": 1,
      "price": "1011000000000000000000",
      "reserved": "",
      "salt": "0x3eb9e5154446e7966fca5c9c4997197bc318d0442f2b7432ce8149886c828d39",
      "assetIds": []
    },
    {
      "x": 353,
      "y": 261,
      "size": 1,
      "price": "1011000000000000000000",
      "reserved": "",
      "salt": "0x2812e63dc00b59dd08d0597bba6ee53b026429e0eb8089ba2c677406e7df7861",
      "assetIds": []
    },
    {
      "x": 353,
      "y": 262,
      "size": 1,
      "price": "1011000000000000000000",
      "reserved": "",
      "salt": "0xc1929db24c907b93cffbae6a82abc99a5e4d30d21675e51d110083e47748b921",
      "assetIds": []
    },
    {
      "x": 353,
      "y": 263,
      "size": 1,
      "price": "1011000000000000000000",
      "reserved": "",
      "salt": "0xaafcbad2d3af0b62bcb418085ca453990b0a00d17f1d7acf2b5b66931e1c395e",
      "assetIds": []
    },
    {
      "x": 353,
      "y": 300,
      "size": 1,
      "price": "1011000000000000000000",
      "reserved": "",
      "salt": "0x8785bf2aaca9647785a7afa2dee90a863aed63196fe5184d09783b92244a3e3f",
      "assetIds": []
    },
    {
      "x": 353,
      "y": 301,
      "size": 1,
      "price": "1011000000000000000000",
      "reserved": "",
      "salt": "0xe450a87a2e38b6156f6f203a764e595d0b2549ef78982e4d7c979ae6cdfefb71",
      "assetIds": []
    },
    {
      "x": 353,
      "y": 302,
      "size": 1,
      "price": "1011000000000000000000",
      "reserved": "",
      "salt": "0x0f8d34f84f477fbcbb29a575dc8b609296a3eb7c097973410891f192dfd88d86",
      "assetIds": []
    },
    {
      "x": 353,
      "y": 303,
      "size": 1,
      "price": "1011000000000000000000",
      "reserved": "",
      "salt": "0x9455a3395ce53b0179ea2bcf5041a884132dc21d25df38868ebd5847e899ad2b",
      "assetIds": []
    },
    {
      "x": 353,
      "y": 304,
      "size": 1,
      "price": "1011000000000000000000",
      "reserved": "",
      "salt": "0xcbfd6da462538e5c0a73901b80d2395b734d69178593d10b39b2ae42bc9a8c93",
      "assetIds": []
    },
    {
      "x": 353,
      "y": 305,
      "size": 1,
      "price": "1011000000000000000000",
      "reserved": "",
      "salt": "0x1b97b11656fc1719a698be60d45e6150da654a3423c14d0a28ab2dffedcd4d3c",
      "assetIds": []
    },
    {
      "x": 354,
      "y": 252,
      "size": 1,
      "price": "1011000000000000000000",
      "reserved": "",
      "salt": "0xac24d75eaeee2e94c38613ef26c1186dc010802d2e713232330d8ee261f31294",
      "assetIds": []
    },
    {
      "x": 354,
      "y": 253,
      "size": 1,
      "price": "1011000000000000000000",
      "reserved": "",
      "salt": "0xa69ec00c63c80be3bb3f1dea7bd5c49216a2ecbddde1f90216773c5bdd982700",
      "assetIds": []
    },
    {
      "x": 354,
      "y": 254,
      "size": 1,
      "price": "1011000000000000000000",
      "reserved": "",
      "salt": "0x58531ef0b856b5bf11cd63097c795ad22daee0290a84a0d3818cbabacbdbc9b9",
      "assetIds": []
    },
    {
      "x": 354,
      "y": 255,
      "size": 1,
      "price": "1011000000000000000000",
      "reserved": "",
      "salt": "0x3529192946da57d6b39f36751d33eb8e594ed39dafa63a59f84a1a8cf76124c4",
      "assetIds": []
    },
    {
      "x": 354,
      "y": 256,
      "size": 1,
      "price": "1011000000000000000000",
      "reserved": "",
      "salt": "0x915024157f183b34d9fd9fca4b4e475f58edb5bb49cd528e1132de4599c95a3e",
      "assetIds": []
    },
    {
      "x": 354,
      "y": 257,
      "size": 1,
      "price": "1011000000000000000000",
      "reserved": "",
      "salt": "0x6e1907c28a0919c4853cdce4ca3d0255ea6fd895d8d3626606d1896dc495aa48",
      "assetIds": []
    },
    {
      "x": 354,
      "y": 300,
      "size": 1,
      "price": "1011000000000000000000",
      "reserved": "",
      "salt": "0x3788b2bdaeeb4323e24112a26b648a4bbdc510c24c6461b3a35e32b51beb4391",
      "assetIds": []
    },
    {
      "x": 354,
      "y": 301,
      "size": 1,
      "price": "1011000000000000000000",
      "reserved": "",
      "salt": "0xeadf812bf8834f8d8b0bda9dda6d4438173c3946c4f8723f0b02c13987897dc4",
      "assetIds": []
    },
    {
      "x": 354,
      "y": 302,
      "size": 1,
      "price": "1011000000000000000000",
      "reserved": "",
      "salt": "0xab4a7cf3c815dbc502b508b533b8b512fe85d2773cb423cd560348806c2ea944",
      "assetIds": []
    },
    {
      "x": 354,
      "y": 303,
      "size": 1,
      "price": "1011000000000000000000",
      "reserved": "",
      "salt": "0x375eeeb4c4a7bd6d3110897882fde7ab6e2251cd7bc1a16a8635522707a0d3d6",
      "assetIds": []
    },
    {
      "x": 354,
      "y": 304,
      "size": 1,
      "price": "1011000000000000000000",
      "reserved": "",
      "salt": "0xea5a22444a076a92154e8cf9b6e99458e7161ad2550c85118877e7bb09076ee9",
      "assetIds": []
    },
    {
      "x": 354,
      "y": 305,
      "size": 1,
      "price": "1011000000000000000000",
      "reserved": "",
      "salt": "0x72a5d118f2c81230c3b623c42eef371f58e8613606c18a5d519b3ce81ce799f9",
      "assetIds": []
    },
    {
      "x": 354,
      "y": 306,
      "size": 1,
      "price": "1011000000000000000000",
      "reserved": "",
      "salt": "0xc8c2ecd15777b89c805f99baf3f23fdf6b8c1b75bc9b980f788bfbf5a4a7ab0b",
      "assetIds": []
    },
    {
      "x": 354,
      "y": 307,
      "size": 1,
      "price": "1011000000000000000000",
      "reserved": "",
      "salt": "0xa92bbd0f21d854ff0d2ef58a9bf10729130f3a0e9074211f8b598e53087989a1",
      "assetIds": []
    },
    {
      "x": 354,
      "y": 308,
      "size": 1,
      "price": "1011000000000000000000",
      "reserved": "",
      "salt": "0x601da14fe6138cbd81b54ccaf48b2193b8c37d0d05f38ecee01cf2c96dcfbf78",
      "assetIds": []
    },
    {
      "x": 354,
      "y": 309,
      "size": 1,
      "price": "1011000000000000000000",
      "reserved": "",
      "salt": "0x6e6cbe28bfbb20bf1fd59fe4aea8af3d592f5b7d23758a4145faf9f7ce638ab7",
      "assetIds": []
    },
    {
      "x": 354,
      "y": 310,
      "size": 1,
      "price": "1011000000000000000000",
      "reserved": "",
      "salt": "0x0fb6151ab9bef111e9dd19b07915c69b0e7726cebeda33206bc1b6dc845aa4aa",
      "assetIds": []
    },
    {
      "x": 354,
      "y": 311,
      "size": 1,
      "price": "1011000000000000000000",
      "reserved": "",
      "salt": "0x6e08856aecb644abddd37940d8ef3545b4111770871cf7f4d22f98e9c6ff5aa6",
      "assetIds": []
    },
    {
      "x": 355,
      "y": 252,
      "size": 1,
      "price": "1011000000000000000000",
      "reserved": "",
      "salt": "0x88b02827d059f52b226fb0779dcf597640e1c147c288713732efa284d5580854",
      "assetIds": []
    },
    {
      "x": 355,
      "y": 253,
      "size": 1,
      "price": "1011000000000000000000",
      "reserved": "",
      "salt": "0x660778972f15326a51509dc6387d842e34a1b88e60cc202e3f72a96f8f652bf1",
      "assetIds": []
    },
    {
      "x": 355,
      "y": 254,
      "size": 1,
      "price": "1011000000000000000000",
      "reserved": "",
      "salt": "0xb64f990af2784eacdd15aa3ed08282f4f4132425fdc73937b07bbe51051907b0",
      "assetIds": []
    },
    {
      "x": 355,
      "y": 255,
      "size": 1,
      "price": "1011000000000000000000",
      "reserved": "",
      "salt": "0x5cb6c3d197f03c3896f9e9d10794ccf384825a5a4947ef185da823c573aa0f24",
      "assetIds": []
    },
    {
      "x": 355,
      "y": 256,
      "size": 1,
      "price": "1011000000000000000000",
      "reserved": "",
      "salt": "0xe05832053937ba0dac228b3c80ad7e4dd56a7e7096946931a15dba91eb036b8e",
      "assetIds": []
    },
    {
      "x": 355,
      "y": 257,
      "size": 1,
      "price": "1011000000000000000000",
      "reserved": "",
      "salt": "0x1d7ac0fed14751090eef7bb3de3c0efc2bb29da6e99d137f7e8c16dbae17295e",
      "assetIds": []
    },
    {
      "x": 355,
      "y": 300,
      "size": 1,
      "price": "1011000000000000000000",
      "reserved": "",
      "salt": "0x0b5db80c723929b2f2bc3fd78af1a48a8ea853b4fc9cbd7216d4b6a183b44a8c",
      "assetIds": []
    },
    {
      "x": 355,
      "y": 301,
      "size": 1,
      "price": "1011000000000000000000",
      "reserved": "",
      "salt": "0xcae32b8b4cca7bacc5957e4032efe86fb17cb4487b372c32edcfd6080a008478",
      "assetIds": []
    },
    {
      "x": 355,
      "y": 302,
      "size": 1,
      "price": "1011000000000000000000",
      "reserved": "",
      "salt": "0xd51b933b812a88636f4797edd32fc566c9406d8cd6e248f8a6bd9617a9904914",
      "assetIds": []
    },
    {
      "x": 355,
      "y": 303,
      "size": 1,
      "price": "1011000000000000000000",
      "reserved": "",
      "salt": "0xb598c85c209ea2d5ba08435d95b2d77c7cebe523a9298241c3ec5888f6233031",
      "assetIds": []
    },
    {
      "x": 355,
      "y": 304,
      "size": 1,
      "price": "1011000000000000000000",
      "reserved": "",
      "salt": "0x0f6ecbd786c3fa40b4b412c3a7b7eb649993040ccdf8498a6830bc84979f361d",
      "assetIds": []
    },
    {
      "x": 355,
      "y": 305,
      "size": 1,
      "price": "1011000000000000000000",
      "reserved": "0x7a9fe22691c811ea339d9b73150e6911a5343dca",
      "salt": "0x4c8cc0f7bd0c99b263e7fcb842360cf8515a70671c7660d0c1c574ba00b6cced",
      "assetIds": []
    },
    {
      "x": 355,
      "y": 306,
      "size": 1,
      "price": "1011000000000000000000",
      "reserved": "",
      "salt": "0xb9a550b62eda5809ffbc7165171eb6e42525c294f3cc0dfa6f18b53bb797d11b",
      "assetIds": []
    },
    {
      "x": 355,
      "y": 307,
      "size": 1,
      "price": "1011000000000000000000",
      "reserved": "",
      "salt": "0xa21226f59651a8f68ba6c7f6fbe5389ad01e4c7d40492621ae731cc6d272e429",
      "assetIds": []
    },
    {
      "x": 355,
      "y": 308,
      "size": 1,
      "price": "1011000000000000000000",
      "reserved": "",
      "salt": "0xa63ffe6ec21036854e2e0fb23a29fa5adb95525f390adadc9a8b498f4d77a8a6",
      "assetIds": []
    },
    {
      "x": 355,
      "y": 309,
      "size": 1,
      "price": "1011000000000000000000",
      "reserved": "",
      "salt": "0xcb6e505d0ca7ed2266c964e9cba269c8f9dfc45ce6e6a170dd836db2abe7b235",
      "assetIds": []
    },
    {
      "x": 355,
      "y": 310,
      "size": 1,
      "price": "1011000000000000000000",
      "reserved": "",
      "salt": "0x3cdca388bc66b1213e68eda38b86e0c68541bb03c4149bb1456e1cd4979aa74b",
      "assetIds": []
    },
    {
      "x": 355,
      "y": 311,
      "size": 1,
      "price": "1011000000000000000000",
      "reserved": "",
      "salt": "0x3af2901b5bbec934984d36a716a26767333155ea787baf716c4fd04329c1c7ea",
      "assetIds": []
    },
    {
      "x": 356,
      "y": 252,
      "size": 1,
      "price": "1011000000000000000000",
      "reserved": "",
      "salt": "0xc75a9adebf4c40faf532e27ccec96f0fb35c1cf38215daf0bb4a63c2a8531474",
      "assetIds": []
    },
    {
      "x": 356,
      "y": 253,
      "size": 1,
      "price": "1011000000000000000000",
      "reserved": "",
      "salt": "0xef211c0d48a623076f1c94106e37fa4cb1bfee0f3269726a2944920988b16150",
      "assetIds": []
    },
    {
      "x": 356,
      "y": 254,
      "size": 1,
      "price": "1011000000000000000000",
      "reserved": "",
      "salt": "0xf7a0f671e15505563a4edfb28d3eba0921ae2336ae6041c594269ce9f460b5c3",
      "assetIds": []
    },
    {
      "x": 356,
      "y": 255,
      "size": 1,
      "price": "1011000000000000000000",
      "reserved": "",
      "salt": "0xb586973e9d15e795007cfd8a7b70f9bdb111df0fe0d05f06dd6d3d6d002da4d6",
      "assetIds": []
    },
    {
      "x": 356,
      "y": 256,
      "size": 1,
      "price": "1011000000000000000000",
      "reserved": "",
      "salt": "0x37c48f50830a62bc9b85866a8536861f870a7c119d71006605d5e2db1e6ec924",
      "assetIds": []
    },
    {
      "x": 356,
      "y": 257,
      "size": 1,
      "price": "1011000000000000000000",
      "reserved": "",
      "salt": "0x128d9b379dd2a715c4d1b1cda8fe381a17a8462c10172506c66e147b70e3c59c",
      "assetIds": []
    },
    {
      "x": 356,
      "y": 300,
      "size": 1,
      "price": "1011000000000000000000",
      "reserved": "",
      "salt": "0xd3a4626df6e7fe432040736d0c79b4813680916dfcb4e381f7d62b0b3ec504f1",
      "assetIds": []
    },
    {
      "x": 356,
      "y": 301,
      "size": 1,
      "price": "1011000000000000000000",
      "reserved": "",
      "salt": "0x3abe069b21fd1043998148742f1f9867e85e5a721285bb1a5601eee26ac878a0",
      "assetIds": []
    },
    {
      "x": 356,
      "y": 302,
      "size": 1,
      "price": "1011000000000000000000",
      "reserved": "",
      "salt": "0x63d8dfc153c1f81fd99ba6ce5e70860e7048ada8b3c8e6015f56815861507650",
      "assetIds": []
    },
    {
      "x": 356,
      "y": 303,
      "size": 1,
      "price": "1011000000000000000000",
      "reserved": "",
      "salt": "0xaddb03009c740faeabc103bee199555649f97983d7a00533a5c29f6f5426948f",
      "assetIds": []
    },
    {
      "x": 356,
      "y": 304,
      "size": 1,
      "price": "1011000000000000000000",
      "reserved": "",
      "salt": "0x61144fb3a285f4da6691b84959608397f437448dceff7bdff3b8d280b839ceb8",
      "assetIds": []
    },
    {
      "x": 356,
      "y": 305,
      "size": 1,
      "price": "1011000000000000000000",
      "reserved": "",
      "salt": "0x2349f270066ca66efe80181c9ddbe650b86100762ffe6c2c442fb8f7dad89c47",
      "assetIds": []
    },
    {
      "x": 356,
      "y": 306,
      "size": 1,
      "price": "1011000000000000000000",
      "reserved": "",
      "salt": "0x7426243646ccbe3962b8d0f2d787dbe6106ad4ab088dd7f449e829517cc50a26",
      "assetIds": []
    },
    {
      "x": 356,
      "y": 307,
      "size": 1,
      "price": "1011000000000000000000",
      "reserved": "",
      "salt": "0x18f828c8410ca5cf216fb87503012974bb17b094cbb5d8914cb7f5b67aa585dd",
      "assetIds": []
    },
    {
      "x": 356,
      "y": 308,
      "size": 1,
      "price": "1011000000000000000000",
      "reserved": "",
      "salt": "0x772a6b624fd9231f379ebdc4645ff1c32aa96cd765e5d78ec7be812d817317eb",
      "assetIds": []
    },
    {
      "x": 356,
      "y": 309,
      "size": 1,
      "price": "1011000000000000000000",
      "reserved": "",
      "salt": "0xd40289dfcddb25238331f94188dc69f10fffe65bda9fe3ae21cb41bec30552b1",
      "assetIds": []
    },
    {
      "x": 356,
      "y": 310,
      "size": 1,
      "price": "1011000000000000000000",
      "reserved": "",
      "salt": "0x8c46394c0045d2215e814992ebfe60551ccde26e7cd6fa001ad98f3c1c5ceeb3",
      "assetIds": []
    },
    {
      "x": 356,
      "y": 311,
      "size": 1,
      "price": "1011000000000000000000",
      "reserved": "",
      "salt": "0xf58c2e7f366c2c4a28b6eaab295b709d478c6c81f731daf9dccdc91c79c0f4bb",
      "assetIds": []
    },
    {
      "x": 357,
      "y": 252,
      "size": 1,
      "price": "1011000000000000000000",
      "reserved": "",
      "salt": "0xfdf304cca6399dcecc1f82d74b7d65f0763d228b464d5758e682d17fae153cc7",
      "assetIds": []
    },
    {
      "x": 357,
      "y": 253,
      "size": 1,
      "price": "1011000000000000000000",
      "reserved": "",
      "salt": "0xfea1d8251e4b0da00bbfde30430eab03f026d0d36e23d1b96d63bbc4d701cb34",
      "assetIds": []
    },
    {
      "x": 357,
      "y": 254,
      "size": 1,
      "price": "1011000000000000000000",
      "reserved": "",
      "salt": "0xd027717522a7ceb88f1a0ed4943cdbf4d20e1a9900e23cb9ca37e7143e126da3",
      "assetIds": []
    },
    {
      "x": 357,
      "y": 255,
      "size": 1,
      "price": "1011000000000000000000",
      "reserved": "",
      "salt": "0xe2c5924bbcce1236852689fc831a1154eb83ad729be18aba46eb0a16c41747e2",
      "assetIds": []
    },
    {
      "x": 357,
      "y": 256,
      "size": 1,
      "price": "1011000000000000000000",
      "reserved": "",
      "salt": "0xee868e1d0e82e92263500ed75971d166f95f514ac47efeb968a1ff075de1308f",
      "assetIds": []
    },
    {
      "x": 357,
      "y": 257,
      "size": 1,
      "price": "1011000000000000000000",
      "reserved": "",
      "salt": "0xd1b0690717969bd2e5d8d4429271a5c7819eac11fd1180f8048f7bfa01ed1295",
      "assetIds": []
    },
    {
      "x": 357,
      "y": 300,
      "size": 1,
      "price": "1011000000000000000000",
      "reserved": "",
      "salt": "0x777fae02087ca02b8a37c315d7f83640c271e5d39a13a36e8b244053d2077887",
      "assetIds": []
    },
    {
      "x": 357,
      "y": 301,
      "size": 1,
      "price": "1011000000000000000000",
      "reserved": "",
      "salt": "0xd5070e5b50edb8020eeb8ecf1939f2c813a5780cdbce79bd3156947159576c4f",
      "assetIds": []
    },
    {
      "x": 357,
      "y": 302,
      "size": 1,
      "price": "1011000000000000000000",
      "reserved": "",
      "salt": "0x4c7f33b067b0ca0a80edf693dd737ded2cf4d0aad7125ecb47113077022f1714",
      "assetIds": []
    },
    {
      "x": 357,
      "y": 306,
      "size": 1,
      "price": "1011000000000000000000",
      "reserved": "",
      "salt": "0x9fe665e4be13ebe782332b343f1b5c2cc97827dfeed1e981ef37a5952d4a9984",
      "assetIds": []
    },
    {
      "x": 357,
      "y": 307,
      "size": 1,
      "price": "1011000000000000000000",
      "reserved": "",
      "salt": "0x32292b5025fac4ae0fdceb27f88a3a4c25a777a5d2bd001573a41d7b2a7c9589",
      "assetIds": []
    },
    {
      "x": 357,
      "y": 308,
      "size": 1,
      "price": "1011000000000000000000",
      "reserved": "",
      "salt": "0xaec647fe3ad19772535b19a75a66f9284b6787939e7f8a93676dc0a20197e42d",
      "assetIds": []
    },
    {
      "x": 358,
      "y": 252,
      "size": 1,
      "price": "1011000000000000000000",
      "reserved": "",
      "salt": "0x37db245c52d4307dcb0dae789a788900430bfce3556c5d17d69006f67fb303a9",
      "assetIds": []
    },
    {
      "x": 358,
      "y": 253,
      "size": 1,
      "price": "1011000000000000000000",
      "reserved": "",
      "salt": "0x96c8e85d2a2ce6eea4693e0425b5a0c16f7fadb02abaf736e6dc75139ef3aab0",
      "assetIds": []
    },
    {
      "x": 358,
      "y": 254,
      "size": 1,
      "price": "1011000000000000000000",
      "reserved": "0x7a9fe22691c811ea339d9b73150e6911a5343dca",
      "salt": "0x1ff4fb7cbe1a3fd48df8f84d5c0868cd70f6930676620ad69dafa35021ba6617",
      "assetIds": []
    },
    {
      "x": 358,
      "y": 255,
      "size": 1,
      "price": "1011000000000000000000",
      "reserved": "",
      "salt": "0x9178a6017944df985fe5d25c2d6b0f2fc03f7c8b32a49cbaa3096f30fa135d8f",
      "assetIds": []
    },
    {
      "x": 358,
      "y": 256,
      "size": 1,
      "price": "1011000000000000000000",
      "reserved": "",
      "salt": "0x70e98655db3bcab6077da106b4b29dd44077edfce71239f9b2ef76a8136e6bec",
      "assetIds": []
    },
    {
      "x": 358,
      "y": 257,
      "size": 1,
      "price": "1011000000000000000000",
      "reserved": "",
      "salt": "0x219284f84db32940bb17ba7d06ee2a632f9d052af2666060d384407b01e03cf6",
      "assetIds": []
    },
    {
      "x": 358,
      "y": 300,
      "size": 1,
      "price": "1011000000000000000000",
      "reserved": "",
      "salt": "0xcbd21263e929abc166211655188e897ab049d2c364d89ce7cf30ba1959278684",
      "assetIds": []
    },
    {
      "x": 358,
      "y": 301,
      "size": 1,
      "price": "1011000000000000000000",
      "reserved": "",
      "salt": "0xcfef8ac161a6d42a56d5e3e5042cb34719f09c1bfad01a29f3324b707265a42b",
      "assetIds": []
    },
    {
      "x": 358,
      "y": 302,
      "size": 1,
      "price": "1011000000000000000000",
      "reserved": "",
      "salt": "0x09dd9537d84c7eb2df85bd3389fe107218327527b8ede7d89d1de9d13d70fba6",
      "assetIds": []
    },
    {
      "x": 358,
      "y": 306,
      "size": 1,
      "price": "1011000000000000000000",
      "reserved": "",
      "salt": "0x7f6dd51bcc2522aa1aa3237e4629df23734274348d3a6146e258ecabc581a4e0",
      "assetIds": []
    },
    {
      "x": 358,
      "y": 307,
      "size": 1,
      "price": "1011000000000000000000",
      "reserved": "",
      "salt": "0x472db4a3caf323f4963a89f2f76d500219655b79e79f124c2107c35357478939",
      "assetIds": []
    },
    {
      "x": 358,
      "y": 308,
      "size": 1,
      "price": "1011000000000000000000",
      "reserved": "",
      "salt": "0x615a20e79eb3edfd4c835ff079822016bf80f32da6d3e8a63f20e331df544994",
      "assetIds": []
    },
    {
      "x": 359,
      "y": 252,
      "size": 1,
      "price": "1011000000000000000000",
      "reserved": "",
      "salt": "0xeb624b63e0baf46511c3d13c9e5a79cfab786b9d2f4ff7a2aba0b73e922a7828",
      "assetIds": []
    },
    {
      "x": 359,
      "y": 253,
      "size": 1,
      "price": "1011000000000000000000",
      "reserved": "",
      "salt": "0xb04caf32dd93e83ec5aae18b02f0cc492e28108ad989148f7157003ce66ffa16",
      "assetIds": []
    },
    {
      "x": 359,
      "y": 254,
      "size": 1,
      "price": "1011000000000000000000",
      "reserved": "",
      "salt": "0x2260cf01d26049c58ab2f72da1c5422670b7f74135bb4b2055111997778bfd7d",
      "assetIds": []
    },
    {
      "x": 359,
      "y": 255,
      "size": 1,
      "price": "1011000000000000000000",
      "reserved": "",
      "salt": "0x766ee3ec199e163dc48a48524518d73ae14b3aad95548289b1971ff6b1d8951a",
      "assetIds": []
    },
    {
      "x": 359,
      "y": 256,
      "size": 1,
      "price": "1011000000000000000000",
      "reserved": "",
      "salt": "0x8f46c2323729a2f7c962fd659c356c3495584cef362c49143867334e005bcc3d",
      "assetIds": []
    },
    {
      "x": 359,
      "y": 257,
      "size": 1,
      "price": "1011000000000000000000",
      "reserved": "",
      "salt": "0xdc0191a9c186b203fee20b53606b9001f95d5b16ee99dc6dfc2624736afca4db",
      "assetIds": []
    },
    {
      "x": 359,
      "y": 300,
      "size": 1,
      "price": "1011000000000000000000",
      "reserved": "",
      "salt": "0x7d3c9e991e90abba6e0602c30e4457eb251e661c21c64565b58200abfb0e6f91",
      "assetIds": []
    },
    {
      "x": 359,
      "y": 301,
      "size": 1,
      "price": "1011000000000000000000",
      "reserved": "",
      "salt": "0xfb8a58e4b5f050e5a1532f96a81db7ae81ce36de4678c3398375443ed2f23abd",
      "assetIds": []
    },
    {
      "x": 359,
      "y": 302,
      "size": 1,
      "price": "1011000000000000000000",
      "reserved": "",
      "salt": "0xcd2ebc014a1d93b579e1aa2dc759426fe369c7ec8a0fd3f54bcba0a8d212d119",
      "assetIds": []
    },
    {
      "x": 359,
      "y": 306,
      "size": 1,
      "price": "1011000000000000000000",
      "reserved": "",
      "salt": "0xbb32422489f2fcadf8cd683cbd4cf71d4f4dca1b89386c045d076388eeb256dd",
      "assetIds": []
    },
    {
      "x": 359,
      "y": 307,
      "size": 1,
      "price": "1011000000000000000000",
      "reserved": "",
      "salt": "0x3959f6de574589ae7c9d1e5c710ad27c9e7d477165cb0d12033f349bb1244c6a",
      "assetIds": []
    },
    {
      "x": 359,
      "y": 308,
      "size": 1,
      "price": "1011000000000000000000",
      "reserved": "",
      "salt": "0xcef37a4812282d8dfdc28f3cc017090d9dd904dab10fdeda9d9a995d77a0769e",
      "assetIds": []
    },
    {
      "x": 360,
      "y": 270,
      "size": 1,
      "price": "1011000000000000000000",
      "reserved": "",
      "salt": "0x529d8ec731f37525226d3145cdaf686d8c7e8800eff4b8228fb2bb4613a2ea26",
      "assetIds": []
    },
    {
      "x": 360,
      "y": 271,
      "size": 1,
      "price": "1011000000000000000000",
      "reserved": "",
      "salt": "0x6cb8154b64a21a3ce56dc5761e1219d876693de04c7642ddb1ce90f4c5d453c5",
      "assetIds": []
    },
    {
      "x": 360,
      "y": 272,
      "size": 1,
      "price": "1011000000000000000000",
      "reserved": "",
      "salt": "0x89717d6862b798f95437d4be223e33985c3fe23bd5c620699a90a575bc9990bb",
      "assetIds": []
    },
    {
      "x": 360,
      "y": 288,
      "size": 1,
      "price": "1011000000000000000000",
      "reserved": "",
      "salt": "0xf380a9674b768fae9b6a625da04384c92dc782b1df5bf31db398ebefd19f8a16",
      "assetIds": []
    },
    {
      "x": 360,
      "y": 289,
      "size": 1,
      "price": "1011000000000000000000",
      "reserved": "",
      "salt": "0x77d4fcb1413690a58fbffa5a795ccf6a1f7b6d483bd1dd0cf5c95b316a12a0c8",
      "assetIds": []
    },
    {
      "x": 360,
      "y": 290,
      "size": 1,
      "price": "1011000000000000000000",
      "reserved": "",
      "salt": "0xbc7d39c62d1fa462af6f51d0943260540a96c3c85ecd9e503f38aea8c6519ba6",
      "assetIds": []
    },
    {
      "x": 360,
      "y": 291,
      "size": 1,
      "price": "1011000000000000000000",
      "reserved": "",
      "salt": "0x1777fbc01d09685dfe75e586696331b05bce294fd5ca14765497d008fe301bd9",
      "assetIds": []
    },
    {
      "x": 360,
      "y": 292,
      "size": 1,
      "price": "1011000000000000000000",
      "reserved": "",
      "salt": "0x1aa1cf274b86f2f44ad03235190d3148b1d4de2177dd6820bf3707250579ea4d",
      "assetIds": []
    },
    {
      "x": 360,
      "y": 293,
      "size": 1,
      "price": "1011000000000000000000",
      "reserved": "",
      "salt": "0xbc7018382c46723bdca4cb15e1ab157fc88dda0659c88f6f740ac45252d4ee3b",
      "assetIds": []
    },
    {
      "x": 360,
      "y": 297,
      "size": 1,
      "price": "1011000000000000000000",
      "reserved": "",
      "salt": "0x11bcf7372e96f5bad472c8856025ee79dd2e7e481ad4d6349396bb9108844732",
      "assetIds": []
    },
    {
      "x": 360,
      "y": 298,
      "size": 1,
      "price": "1011000000000000000000",
      "reserved": "",
      "salt": "0xb7a723c8e0c3b0669c05807037a9c4bc98c3b4bdcf372acf3d3cefadec633872",
      "assetIds": []
    },
    {
      "x": 360,
      "y": 299,
      "size": 1,
      "price": "1011000000000000000000",
      "reserved": "",
      "salt": "0xc8cea475396e5b982227f187c8dc1b35df71cf574d88817603fdb3566d23ef09",
      "assetIds": []
    },
    {
      "x": 360,
      "y": 300,
      "size": 1,
      "price": "1011000000000000000000",
      "reserved": "",
      "salt": "0xa46d187f9ac1befa73e4ba55044664f030844d199f5432d249873027f0a93162",
      "assetIds": []
    },
    {
      "x": 360,
      "y": 301,
      "size": 1,
      "price": "1011000000000000000000",
      "reserved": "",
      "salt": "0xc41af6d9e796fb94bfed34fab7e123a8a5c0136971a224058be2bd567588e003",
      "assetIds": []
    },
    {
      "x": 360,
      "y": 302,
      "size": 1,
      "price": "1011000000000000000000",
      "reserved": "",
      "salt": "0x01477a38abecf041dad375500051a7d56d881e7b565b46ddafa45050d31ddb13",
      "assetIds": []
    },
    {
      "x": 360,
      "y": 303,
      "size": 1,
      "price": "1011000000000000000000",
      "reserved": "",
      "salt": "0x3856fde1eae3710339dd30504285d2ba07b8a2a7b1f48c260b5960ddf44cd36d",
      "assetIds": []
    },
    {
      "x": 360,
      "y": 304,
      "size": 1,
      "price": "1011000000000000000000",
      "reserved": "",
      "salt": "0x6da0ffe6d3ca7ec1de5e79323228f27a56bcdfbf0f20010f5e265eef3f55661e",
      "assetIds": []
    },
    {
      "x": 360,
      "y": 305,
      "size": 1,
      "price": "1011000000000000000000",
      "reserved": "",
      "salt": "0xce6fd34e1786fc7c83371436e71f3aba6829e94080e58bd522807d560d98fdd5",
      "assetIds": []
    },
    {
      "x": 360,
      "y": 306,
      "size": 1,
      "price": "1011000000000000000000",
      "reserved": "",
      "salt": "0x0886cdcddd1b902e787000720ca5821032bfcb890d46526b42c5e94b1349a35c",
      "assetIds": []
    },
    {
      "x": 360,
      "y": 307,
      "size": 1,
      "price": "1011000000000000000000",
      "reserved": "",
      "salt": "0x1a30575c18506e493fec98b7a9cb1621eb0dbc513365a04bfad00f768d8d6f7e",
      "assetIds": []
    },
    {
      "x": 360,
      "y": 308,
      "size": 1,
      "price": "1011000000000000000000",
      "reserved": "",
      "salt": "0xbd5c18c459a3d00905c241f8642a69cb7cb4923072aac6a4adeaa208af2d6319",
      "assetIds": []
    },
    {
      "x": 361,
      "y": 270,
      "size": 1,
      "price": "1011000000000000000000",
      "reserved": "",
      "salt": "0xfe360b4fbd073066df71525f7d82db0d0f89c19b4c0be69b9945881545aaa9c6",
      "assetIds": []
    },
    {
      "x": 361,
      "y": 271,
      "size": 1,
      "price": "1011000000000000000000",
      "reserved": "",
      "salt": "0x9cef9054f8ab03984069b84c310827df328acf75427d90c3e958436206193329",
      "assetIds": []
    },
    {
      "x": 361,
      "y": 272,
      "size": 1,
      "price": "1011000000000000000000",
      "reserved": "",
      "salt": "0x55c0c4bed4872e5710369431331e60488cf01240feaaa47c0202505c870e7208",
      "assetIds": []
    },
    {
      "x": 361,
      "y": 288,
      "size": 1,
      "price": "1011000000000000000000",
      "reserved": "",
      "salt": "0x45d9f286c7cb2d5ddf9c209f7ad395cd382651d70eb2eda1885a9d7893ca9491",
      "assetIds": []
    },
    {
      "x": 361,
      "y": 289,
      "size": 1,
      "price": "1011000000000000000000",
      "reserved": "",
      "salt": "0xfe6e2193290d7c738997085af45d6636d84702c616379c5931bd1f623bb645a3",
      "assetIds": []
    },
    {
      "x": 361,
      "y": 290,
      "size": 1,
      "price": "1011000000000000000000",
      "reserved": "",
      "salt": "0x63fb9f181492ed8e8a9fb81f69d84fa7d08a6e1acf7db816cf51ba04a0bb80a1",
      "assetIds": []
    },
    {
      "x": 361,
      "y": 291,
      "size": 1,
      "price": "1011000000000000000000",
      "reserved": "",
      "salt": "0xacbea142c244159796c9e7561d2afd01fad7bda8140bc28e0889c076f1586ce5",
      "assetIds": []
    },
    {
      "x": 361,
      "y": 292,
      "size": 1,
      "price": "1011000000000000000000",
      "reserved": "",
      "salt": "0x96c944c58836ead0aa078e7cb6528ad213409c893ccff19213b8466868c7dba2",
      "assetIds": []
    },
    {
      "x": 361,
      "y": 293,
      "size": 1,
      "price": "1011000000000000000000",
      "reserved": "",
      "salt": "0x469505c9f3bf9bb1d99158b386c15741cd4a91abb3be4efdb00e8db52b58ca86",
      "assetIds": []
    },
    {
      "x": 361,
      "y": 297,
      "size": 1,
      "price": "1011000000000000000000",
      "reserved": "",
      "salt": "0x673d2d1f2d32210b0f0ec79a817bbd04043763820ffb0ff6bc701c0595e9fb36",
      "assetIds": []
    },
    {
      "x": 361,
      "y": 298,
      "size": 1,
      "price": "1011000000000000000000",
      "reserved": "",
      "salt": "0x6c2053884fb0f2c9e5c60840b1e389c2ea9bfeb5b520af950af6ccc73263c042",
      "assetIds": []
    },
    {
      "x": 361,
      "y": 299,
      "size": 1,
      "price": "1011000000000000000000",
      "reserved": "",
      "salt": "0xd565cbfa9c4e373d3e2b9ea5eea8b655fe91ca6c15f8c40a43883f80ad58870a",
      "assetIds": []
    },
    {
      "x": 361,
      "y": 300,
      "size": 1,
      "price": "1011000000000000000000",
      "reserved": "",
      "salt": "0xf3b93914f7613645e0c7ee9bdc4f96c1a8fc16504e6c8dc83d54594aa8c6d785",
      "assetIds": []
    },
    {
      "x": 361,
      "y": 301,
      "size": 1,
      "price": "1011000000000000000000",
      "reserved": "",
      "salt": "0xd63a92317c64d1c3ecbe4587654f713aeb73096a91d5621325d0d34e38944445",
      "assetIds": []
    },
    {
      "x": 361,
      "y": 302,
      "size": 1,
      "price": "1011000000000000000000",
      "reserved": "",
      "salt": "0x8cfccd2f405a4755c9e84c9eaffdf0b782f5221600d5fe725d1bd1f676db0f74",
      "assetIds": []
    },
    {
      "x": 361,
      "y": 303,
      "size": 1,
      "price": "1011000000000000000000",
      "reserved": "",
      "salt": "0x065260ec7a0108ffb440eec94b6dcb5ba8988379235ad792a6d72b68c146c33c",
      "assetIds": []
    },
    {
      "x": 361,
      "y": 304,
      "size": 1,
      "price": "1011000000000000000000",
      "reserved": "",
      "salt": "0x1c299b1d85ad71725f38f44644c9e2a5570941fc27bf10089569d446ec29e89d",
      "assetIds": []
    },
    {
      "x": 361,
      "y": 305,
      "size": 1,
      "price": "1011000000000000000000",
      "reserved": "",
      "salt": "0xce971ee5312e96876d4f1c69853c942937bbdaf4b8c47000803d4e1ddbdcc0e5",
      "assetIds": []
    },
    {
      "x": 361,
      "y": 306,
      "size": 1,
      "price": "1011000000000000000000",
      "reserved": "",
      "salt": "0x0cdc7fa7b63c6e6fd928d85d007b4455623ae7909048d755d40836e154aba017",
      "assetIds": []
    },
    {
      "x": 361,
      "y": 307,
      "size": 1,
      "price": "1011000000000000000000",
      "reserved": "",
      "salt": "0xb27dc12a66f2e93c3d87567dd5f260c14366d97905d7cda8260e0ab29e13335e",
      "assetIds": []
    },
    {
      "x": 361,
      "y": 308,
      "size": 1,
      "price": "1011000000000000000000",
      "reserved": "",
      "salt": "0x11735a99013f271bb279acfe81d547192ac2350d6b8627c7dc462c27ab963644",
      "assetIds": []
    },
    {
      "x": 362,
      "y": 270,
      "size": 1,
      "price": "1011000000000000000000",
      "reserved": "",
      "salt": "0xf2503deeac6461f7858ead4eb477a5c6ab3e696bb62df12983c4a14ee592fddd",
      "assetIds": []
    },
    {
      "x": 362,
      "y": 271,
      "size": 1,
      "price": "1011000000000000000000",
      "reserved": "",
      "salt": "0xe38164965b35b56719d1bfa62ff2d9920935e5219c695a10eed18377149a2b4e",
      "assetIds": []
    },
    {
      "x": 362,
      "y": 272,
      "size": 1,
      "price": "1011000000000000000000",
      "reserved": "",
      "salt": "0x2142b885ba93b882a2325a778f8d99d0f80427b0b1f7c183400c8135402f94c2",
      "assetIds": []
    },
    {
      "x": 362,
      "y": 288,
      "size": 1,
      "price": "1011000000000000000000",
      "reserved": "",
      "salt": "0x91e6e8e273244a45b12b2bcd1f1707966fb27691e83cc3d22ca28bae655fdeb5",
      "assetIds": []
    },
    {
      "x": 362,
      "y": 289,
      "size": 1,
      "price": "1011000000000000000000",
      "reserved": "",
      "salt": "0x7ddb1274a15950541e9f5b008d32b1d95d698c6e1951015eb5228ed5058fca87",
      "assetIds": []
    },
    {
      "x": 362,
      "y": 290,
      "size": 1,
      "price": "1011000000000000000000",
      "reserved": "",
      "salt": "0x2d8f116fcc37ff9c4ce0d325c106a0c994f95cc87ada3cbf598f968f5675cbc3",
      "assetIds": []
    },
    {
      "x": 362,
      "y": 291,
      "size": 1,
      "price": "1011000000000000000000",
      "reserved": "",
      "salt": "0xe7b1ca6abaf1ecf45e7569be0c2dd5b4d0a02b2a1dc43010f1f30e6918cf0f99",
      "assetIds": []
    },
    {
      "x": 362,
      "y": 292,
      "size": 1,
      "price": "1011000000000000000000",
      "reserved": "",
      "salt": "0xb5c830de6acfb235547e90dee546c3fc24cf1368094ea476ab3acac740c7da11",
      "assetIds": []
    },
    {
      "x": 362,
      "y": 293,
      "size": 1,
      "price": "1011000000000000000000",
      "reserved": "",
      "salt": "0x039d71879d5975121b85275d397a8d06c2b57b74859e2e6f201c64bb51fedab6",
      "assetIds": []
    },
    {
      "x": 362,
      "y": 297,
      "size": 1,
      "price": "1011000000000000000000",
      "reserved": "",
      "salt": "0x0c2caf208d1f80009aff13d76ecc504719ecf9f6ba89d23edde92cb26f2f2f98",
      "assetIds": []
    },
    {
      "x": 362,
      "y": 298,
      "size": 1,
      "price": "1011000000000000000000",
      "reserved": "",
      "salt": "0x2134748979d5725cc90fdccaa85a9bdcf80913761e13ecc598b919935cf3fa26",
      "assetIds": []
    },
    {
      "x": 362,
      "y": 299,
      "size": 1,
      "price": "1011000000000000000000",
      "reserved": "",
      "salt": "0xc49dbd900ad0b7d2adf118d8b06c3e990b98e0c3efb3f3e2d7f9ec42d0dd4ed5",
      "assetIds": []
    },
    {
      "x": 362,
      "y": 300,
      "size": 1,
      "price": "1011000000000000000000",
      "reserved": "",
      "salt": "0x99e38b649094b8ff76a4893cd57fd67be8aff167ea6a9574ddd22ad0d281865f",
      "assetIds": []
    },
    {
      "x": 362,
      "y": 301,
      "size": 1,
      "price": "1011000000000000000000",
      "reserved": "",
      "salt": "0x573bcac004ca7af4fef440af6c3f371ec2c68bfcfdf2d49e3d0f8ba6167ed28c",
      "assetIds": []
    },
    {
      "x": 362,
      "y": 302,
      "size": 1,
      "price": "1011000000000000000000",
      "reserved": "",
      "salt": "0x5d5112d0b4c352a41cd789fd9ae644108ce0f44d8767714dc523e89642ef78b9",
      "assetIds": []
    },
    {
      "x": 362,
      "y": 303,
      "size": 1,
      "price": "1011000000000000000000",
      "reserved": "",
      "salt": "0x13d0c4f3e34974bb377f5968b1070641894905f89b5ca4abc41734cea1525d31",
      "assetIds": []
    },
    {
      "x": 362,
      "y": 304,
      "size": 1,
      "price": "1011000000000000000000",
      "reserved": "",
      "salt": "0xfabd40344b738689a3e01be2bcaee5c0944f971647b0754bd5e2ee9a344cee10",
      "assetIds": []
    },
    {
      "x": 362,
      "y": 305,
      "size": 1,
      "price": "1011000000000000000000",
      "reserved": "",
      "salt": "0x4bb27e1efeb02c3412ede551d4c3f1aeb350d08a0cf70e9b463a88dc5f6bac6e",
      "assetIds": []
    },
    {
      "x": 362,
      "y": 306,
      "size": 1,
      "price": "1011000000000000000000",
      "reserved": "",
      "salt": "0x43fcc1874a6839563d3f5b66c3a134c5cd754660fd80a45a9e77fbe8a20ea750",
      "assetIds": []
    },
    {
      "x": 362,
      "y": 307,
      "size": 1,
      "price": "1011000000000000000000",
      "reserved": "",
      "salt": "0x1d04c7ddf45e064c796fdd4a0d4b03e10b1039c54033ed779b5aaa2db0df6590",
      "assetIds": []
    },
    {
      "x": 362,
      "y": 308,
      "size": 1,
      "price": "1011000000000000000000",
      "reserved": "",
      "salt": "0x3e308612d3f51034e97bacea81561423deda24c46f9a5470c0b885b426a68ab4",
      "assetIds": []
    },
    {
      "x": 363,
      "y": 270,
      "size": 1,
      "price": "1011000000000000000000",
      "reserved": "",
      "salt": "0x9bac0decc9dd8d07d7eab2d16d77836b457e5933c1b92482d3bdaffe30d55d13",
      "assetIds": []
    },
    {
      "x": 363,
      "y": 271,
      "size": 1,
      "price": "1011000000000000000000",
      "reserved": "",
      "salt": "0x98326c8eb74739387182f7e32a056c17bededa1be60177cb7360a7028d92e66c",
      "assetIds": []
    },
    {
      "x": 363,
      "y": 272,
      "size": 1,
      "price": "1011000000000000000000",
      "reserved": "",
      "salt": "0xd11ccc1076231447f18cedd2be5691b7fcf1fe1649cd0d3c8394de95fa345566",
      "assetIds": []
    },
    {
      "x": 363,
      "y": 273,
      "size": 1,
      "price": "1011000000000000000000",
      "reserved": "",
      "salt": "0x4a2bcfc8854ebb8c01d6632035640831bc92de84be458ac3f21329a10b4cad63",
      "assetIds": []
    },
    {
      "x": 363,
      "y": 274,
      "size": 1,
      "price": "1011000000000000000000",
      "reserved": "",
      "salt": "0x1e16087e8f99eb876d48460ae65473951f213623350adc0e62762548b05b36d0",
      "assetIds": []
    },
    {
      "x": 363,
      "y": 275,
      "size": 1,
      "price": "1011000000000000000000",
      "reserved": "",
      "salt": "0xb8476c42b341adcdb7a7ab49a6f24f6f06e596206f7901bd0ccaae67afec7483",
      "assetIds": []
    },
    {
      "x": 363,
      "y": 288,
      "size": 1,
      "price": "1011000000000000000000",
      "reserved": "",
      "salt": "0x15c4f2f572357e0f2eafd7b1cd89bf9e6d145d95c51581093196f78c47580233",
      "assetIds": []
    },
    {
      "x": 363,
      "y": 289,
      "size": 1,
      "price": "1011000000000000000000",
      "reserved": "0x7a9fe22691c811ea339d9b73150e6911a5343dca",
      "salt": "0xe52703a1a402f266d312b0d058d05a42568b9e7df307c70cda50877dd2b40a44",
      "assetIds": []
    },
    {
      "x": 363,
      "y": 290,
      "size": 1,
      "price": "1011000000000000000000",
      "reserved": "",
      "salt": "0xa652e8e1b12e10ea67ce37172318579a8c968d78d377399ee00f41ede3500581",
      "assetIds": []
    },
    {
      "x": 363,
      "y": 291,
      "size": 1,
      "price": "1011000000000000000000",
      "reserved": "",
      "salt": "0x1bcd765ba8b3276ee0ac33c81abca69d911279a44e88cd3206fd3dde03e7d546",
      "assetIds": []
    },
    {
      "x": 363,
      "y": 292,
      "size": 1,
      "price": "1011000000000000000000",
      "reserved": "",
      "salt": "0x3daf5303f28e30362e608fbec433a4e3ef266cb5c2bb963bf00953316ff39d66",
      "assetIds": []
    },
    {
      "x": 363,
      "y": 293,
      "size": 1,
      "price": "1011000000000000000000",
      "reserved": "",
      "salt": "0xa9928eabeecd91c8d831982d78366d0ab2826c75876054c2f496ca8ee4a46f09",
      "assetIds": []
    },
    {
      "x": 363,
      "y": 294,
      "size": 1,
      "price": "1011000000000000000000",
      "reserved": "",
      "salt": "0x00e0b063eabc830bfa979229705075ce25610b6e0fdbf9c58343d0e6eb4e2407",
      "assetIds": []
    },
    {
      "x": 363,
      "y": 295,
      "size": 1,
      "price": "1011000000000000000000",
      "reserved": "",
      "salt": "0x9a1405b7498802ca67b9e589ad075e1c33f109411e92c70e6f54e391a16512b8",
      "assetIds": []
    },
    {
      "x": 363,
      "y": 296,
      "size": 1,
      "price": "1011000000000000000000",
      "reserved": "",
      "salt": "0x936820473d92577ee192bd7a1de8728111abef3014bbe318b1c97b64c83b8f22",
      "assetIds": []
    },
    {
      "x": 363,
      "y": 297,
      "size": 1,
      "price": "1011000000000000000000",
      "reserved": "",
      "salt": "0x29ba21d558016238d9f94af56faee948f76fcd31580d2b417301f6e3f739bd2e",
      "assetIds": []
    },
    {
      "x": 363,
      "y": 298,
      "size": 1,
      "price": "1011000000000000000000",
      "reserved": "",
      "salt": "0x6093b59af2d9544967d9ac0def180ce2c285198fec063eeede54f1b50e4221bc",
      "assetIds": []
    },
    {
      "x": 363,
      "y": 299,
      "size": 1,
      "price": "1011000000000000000000",
      "reserved": "0x7a9fe22691c811ea339d9b73150e6911a5343dca",
      "salt": "0x3886951e8088c28565dcaa131b8309ddebae1fef62bea2f41e6baea004906a8f",
      "assetIds": []
    },
    {
      "x": 363,
      "y": 300,
      "size": 1,
      "price": "1011000000000000000000",
      "reserved": "",
      "salt": "0xfcc3ddfb6ef165238589e103df704fcc3d175d00160841064c6169464fddeec4",
      "assetIds": []
    },
    {
      "x": 363,
      "y": 301,
      "size": 1,
      "price": "1011000000000000000000",
      "reserved": "",
      "salt": "0xe904bde8879bc3473994a6914d2f70d80ec4c2e9543eb5e5bd76016e62bbda1e",
      "assetIds": []
    },
    {
      "x": 363,
      "y": 302,
      "size": 1,
      "price": "1011000000000000000000",
      "reserved": "",
      "salt": "0xee94528302d7a22fd865296f80c39f4409a82f30f79c8ef408667b4430072247",
      "assetIds": []
    },
    {
      "x": 363,
      "y": 303,
      "size": 1,
      "price": "1011000000000000000000",
      "reserved": "",
      "salt": "0x586dc007f2bb04e2e0cc7a358ce7a82e88e7fa13c07cf0bd1752cc8ce562271f",
      "assetIds": []
    },
    {
      "x": 363,
      "y": 304,
      "size": 1,
      "price": "1011000000000000000000",
      "reserved": "0x7a9fe22691c811ea339d9b73150e6911a5343dca",
      "salt": "0xe14192020b478c89a191a629b9171ec2bed169a8f4a840ea2ed1fe90b3bdcd9d",
      "assetIds": []
    },
    {
      "x": 363,
      "y": 305,
      "size": 1,
      "price": "1011000000000000000000",
      "reserved": "",
      "salt": "0xcaee3c0d425c33aea7d97d196407388912d013daedb0cb0ab18523352628e5e5",
      "assetIds": []
    },
    {
      "x": 363,
      "y": 306,
      "size": 1,
      "price": "1011000000000000000000",
      "reserved": "",
      "salt": "0xf407ccf7a8fec362af94852dec49b751e177d7df6b0ccd944c5f8833071c75d2",
      "assetIds": []
    },
    {
      "x": 363,
      "y": 307,
      "size": 1,
      "price": "1011000000000000000000",
      "reserved": "",
      "salt": "0x5ea27a926fd0d6358c1a2cbe6ff427ca5848cd4b9687531051698f3e4fdd9083",
      "assetIds": []
    },
    {
      "x": 363,
      "y": 308,
      "size": 1,
      "price": "1011000000000000000000",
      "reserved": "",
      "salt": "0x601cdb8c3bd338424e162e95a3fd8ec155d7957e71c21e0c200c130422f9fc18",
      "assetIds": []
    },
    {
      "x": 364,
      "y": 270,
      "size": 1,
      "price": "1011000000000000000000",
      "reserved": "",
      "salt": "0x7f3521236ca83961a45649ee4e5e13f1af591342c76d78bade04ffe191955393",
      "assetIds": []
    },
    {
      "x": 364,
      "y": 271,
      "size": 1,
      "price": "1011000000000000000000",
      "reserved": "",
      "salt": "0xb401cdc665d99ae8ee54c8759ddc961379f2a72c64f9415761478272ea641026",
      "assetIds": []
    },
    {
      "x": 364,
      "y": 272,
      "size": 1,
      "price": "1011000000000000000000",
      "reserved": "",
      "salt": "0xf4a99f12f5577e93d956bc5a94bde4d7ef200d6870725aa28ad0aec3f30ddd97",
      "assetIds": []
    },
    {
      "x": 364,
      "y": 273,
      "size": 1,
      "price": "1011000000000000000000",
      "reserved": "",
      "salt": "0x21447e12023b81f10f8faa94a47f8ecabb6f71085a125b37ba9c8d2ce121fa13",
      "assetIds": []
    },
    {
      "x": 364,
      "y": 274,
      "size": 1,
      "price": "1011000000000000000000",
      "reserved": "",
      "salt": "0xdf13f3cbc1c10ea38050a2b22b72e67bfc438676eba104a0414684c64652bd6c",
      "assetIds": []
    },
    {
      "x": 364,
      "y": 275,
      "size": 1,
      "price": "1011000000000000000000",
      "reserved": "",
      "salt": "0x2f75fb0dbd8c036dd20f4b1a91135439300aefed8466d4f488687059eda2bcfa",
      "assetIds": []
    },
    {
      "x": 364,
      "y": 288,
      "size": 1,
      "price": "1011000000000000000000",
      "reserved": "",
      "salt": "0x3136fcddcb46bc1c7c9fb7d49ed1479877c95de5fe089aada21a9375a834f27c",
      "assetIds": []
    },
    {
      "x": 364,
      "y": 289,
      "size": 1,
      "price": "1011000000000000000000",
      "reserved": "",
      "salt": "0x92a6f3a9e047cdfa15af0fc2b58a6efdc9c05e498808c81c5df32e2024c9a82e",
      "assetIds": []
    },
    {
      "x": 364,
      "y": 290,
      "size": 1,
      "price": "1011000000000000000000",
      "reserved": "",
      "salt": "0xe6e3c174d3b9a84c85295eec1e41c2d0068bd79c18d839f5e1628eac9aec9a84",
      "assetIds": []
    },
    {
      "x": 364,
      "y": 291,
      "size": 1,
      "price": "1011000000000000000000",
      "reserved": "",
      "salt": "0x7a0620f2e9daf7c1aa9c07949fdb173d64d60a921b8d90144187f0a3e370342b",
      "assetIds": []
    },
    {
      "x": 364,
      "y": 292,
      "size": 1,
      "price": "1011000000000000000000",
      "reserved": "",
      "salt": "0x86fd9b6cb1b6a437e1f778d8ee4fdbb79b1204d0f47467a648641a946dae26f1",
      "assetIds": []
    },
    {
      "x": 364,
      "y": 293,
      "size": 1,
      "price": "1011000000000000000000",
      "reserved": "",
      "salt": "0xfab5664513ac9d7c5636d831db40de37e36905c1eafbe581839aeb3b7418c6d0",
      "assetIds": []
    },
    {
      "x": 364,
      "y": 294,
      "size": 1,
      "price": "1011000000000000000000",
      "reserved": "",
      "salt": "0x00358766cce70a2b9a2c210afdd45b94fc4c940c0e59cd45bea4a8fedbc8b164",
      "assetIds": []
    },
    {
      "x": 364,
      "y": 295,
      "size": 1,
      "price": "1011000000000000000000",
      "reserved": "",
      "salt": "0x8ada9b9a2d5715b2798ae58c2fb6893e7b29ace0f3be875ef6d094d0701497fc",
      "assetIds": []
    },
    {
      "x": 364,
      "y": 296,
      "size": 1,
      "price": "1011000000000000000000",
      "reserved": "",
      "salt": "0xe8e43f5f4918a4ed805e7effc0b6c6709a8719613f60803ff84365e86831f676",
      "assetIds": []
    },
    {
      "x": 364,
      "y": 297,
      "size": 1,
      "price": "1011000000000000000000",
      "reserved": "",
      "salt": "0xe8647283a884e337b6d1a1fb1a0cd6e5c500a2af73b2213cfd957f8ab78b515b",
      "assetIds": []
    },
    {
      "x": 364,
      "y": 298,
      "size": 1,
      "price": "1011000000000000000000",
      "reserved": "",
      "salt": "0x8c0428b82dde5fcb9dcfb9976cdd4f988fd4e207b66c853789891a7d857cb33f",
      "assetIds": []
    },
    {
      "x": 364,
      "y": 299,
      "size": 1,
      "price": "1011000000000000000000",
      "reserved": "",
      "salt": "0xceb9af08664731966bf1cfc7bb23b631bbdedc3de7736c60241275dcadefad2b",
      "assetIds": []
    },
    {
      "x": 364,
      "y": 300,
      "size": 1,
      "price": "1011000000000000000000",
      "reserved": "",
      "salt": "0x80a0042230f30c9deaa9c63ea14904bf2049e88b28769807f45ecba960fab7b3",
      "assetIds": []
    },
    {
      "x": 364,
      "y": 301,
      "size": 1,
      "price": "1011000000000000000000",
      "reserved": "",
      "salt": "0x412900403e1f1473da2dfe4a78b70847274b9302c6396c7d11e5a9310709caf6",
      "assetIds": []
    },
    {
      "x": 364,
      "y": 302,
      "size": 1,
      "price": "1011000000000000000000",
      "reserved": "",
      "salt": "0x503465d849c343089bc5c2f1bf871b676dbf3555cb74e7292bc84ca975b83849",
      "assetIds": []
    },
    {
      "x": 364,
      "y": 303,
      "size": 1,
      "price": "1011000000000000000000",
      "reserved": "",
      "salt": "0xf9bfae6213789c1acec6769ff7c12843131232fa0127fa5c8c3c9922588b42e1",
      "assetIds": []
    },
    {
      "x": 364,
      "y": 304,
      "size": 1,
      "price": "1011000000000000000000",
      "reserved": "",
      "salt": "0x81a17dde723d4bdf7da0a2c15918d0462492fb33107084138eb2608d09aefe5e",
      "assetIds": []
    },
    {
      "x": 364,
      "y": 305,
      "size": 1,
      "price": "1011000000000000000000",
      "reserved": "",
      "salt": "0x80510a471d1e7407a899f229d00051ab00b3b441346432247bf10b6504b2bad7",
      "assetIds": []
    },
    {
      "x": 364,
      "y": 306,
      "size": 1,
      "price": "1011000000000000000000",
      "reserved": "",
      "salt": "0x025189197967af135198c0d0b7add6b76278c5a18ecfaa748881f0b435ba0ebb",
      "assetIds": []
    },
    {
      "x": 364,
      "y": 307,
      "size": 1,
      "price": "1011000000000000000000",
      "reserved": "0x7a9fe22691c811ea339d9b73150e6911a5343dca",
      "salt": "0xdebd56ed91dcfbafc5863025dad6f6aff6f2c0c35cc1a797d4129b63b8226b47",
      "assetIds": []
    },
    {
      "x": 364,
      "y": 308,
      "size": 1,
      "price": "1011000000000000000000",
      "reserved": "",
      "salt": "0xb13d5b5a18afba5c3d890c7cabc5d05d514ad5c060f9c27a730e8c39d00d487b",
      "assetIds": []
    },
    {
      "x": 365,
      "y": 270,
      "size": 1,
      "price": "1011000000000000000000",
      "reserved": "",
      "salt": "0x38d91dffc7502ac463c7a9304837ca5a3259d97e629404d8867821d848f588ac",
      "assetIds": []
    },
    {
      "x": 365,
      "y": 271,
      "size": 1,
      "price": "1011000000000000000000",
      "reserved": "",
      "salt": "0x0b2a0fc2a4a7b4deb13793eeae94424625ea1ce89fe0c6aa4960f35131e5d0cf",
      "assetIds": []
    },
    {
      "x": 365,
      "y": 272,
      "size": 1,
      "price": "1011000000000000000000",
      "reserved": "",
      "salt": "0xa93d3d2eab74491235ebbc810881453b92d5dfe4cb1f887dce9c9d5a81b8aec7",
      "assetIds": []
    },
    {
      "x": 365,
      "y": 273,
      "size": 1,
      "price": "1011000000000000000000",
      "reserved": "",
      "salt": "0xf39b8b9e5a14d29f3c8a27b3b15867698302c1d26eebe6a4501a2b3c6ebada7e",
      "assetIds": []
    },
    {
      "x": 365,
      "y": 274,
      "size": 1,
      "price": "1011000000000000000000",
      "reserved": "",
      "salt": "0x53920fd4b115ba0b54ccd5ef27c8520e5aab7dd4d2853dd9879d9e04ea550acd",
      "assetIds": []
    },
    {
      "x": 365,
      "y": 275,
      "size": 1,
      "price": "1011000000000000000000",
      "reserved": "",
      "salt": "0x5bd6ee85a327e20b8390877d9d83cbca00e8c3f574441e1caf41d096813e3c1a",
      "assetIds": []
    },
    {
      "x": 365,
      "y": 288,
      "size": 1,
      "price": "1011000000000000000000",
      "reserved": "",
      "salt": "0xe3d4048d159bd589374c712e0b103d21d9d8e9d23b4f256af10480077a8af020",
      "assetIds": []
    },
    {
      "x": 365,
      "y": 289,
      "size": 1,
      "price": "1011000000000000000000",
      "reserved": "",
      "salt": "0x67ff49f072a9593e20d20bc8e79b1714b01ce67dbde81344dc894cd27645f61e",
      "assetIds": []
    },
    {
      "x": 365,
      "y": 290,
      "size": 1,
      "price": "1011000000000000000000",
      "reserved": "",
      "salt": "0x8c84c32684e748f080197e415358ed320d383422f55305343a81d843ba3f7b60",
      "assetIds": []
    },
    {
      "x": 365,
      "y": 291,
      "size": 1,
      "price": "1011000000000000000000",
      "reserved": "",
      "salt": "0xc8343901075e0779d0bac203560806608e1d25a71c10f7e02843e586b4c64296",
      "assetIds": []
    },
    {
      "x": 365,
      "y": 292,
      "size": 1,
      "price": "1011000000000000000000",
      "reserved": "",
      "salt": "0x927ded8c2a2f9808290a098f8fc006a079e5990650cef3f755b9f4657d3a8923",
      "assetIds": []
    },
    {
      "x": 365,
      "y": 293,
      "size": 1,
      "price": "1011000000000000000000",
      "reserved": "",
      "salt": "0xf502270a92a5eba0d94024af0a9d88e59ea962e41e861aec23d7c622ca7c1878",
      "assetIds": []
    },
    {
      "x": 365,
      "y": 294,
      "size": 1,
      "price": "1011000000000000000000",
      "reserved": "",
      "salt": "0x10e9cb4687e08ee5bb4ba0a19e0668b474c1169bdc286edb7bfbcf58d028d306",
      "assetIds": []
    },
    {
      "x": 365,
      "y": 295,
      "size": 1,
      "price": "1011000000000000000000",
      "reserved": "",
      "salt": "0x9ae56bf504c2715f4e0bb2c36453f93a0d97ab413cc192c1b3e22edcf4a7890c",
      "assetIds": []
    },
    {
      "x": 365,
      "y": 296,
      "size": 1,
      "price": "1011000000000000000000",
      "reserved": "",
      "salt": "0x78c33599ed925590e3b0a11add425644b61f7ed8f2422204f658b99ad727ea5f",
      "assetIds": []
    },
    {
      "x": 365,
      "y": 297,
      "size": 1,
      "price": "1011000000000000000000",
      "reserved": "",
      "salt": "0x12db0434e79634899af57a498213805998972f463bf70d8505edb10f816399c5",
      "assetIds": []
    },
    {
      "x": 365,
      "y": 298,
      "size": 1,
      "price": "1011000000000000000000",
      "reserved": "",
      "salt": "0xc7c64aea07c06e8e17ffe78bae01221bcbb4f2ccb972841e5bc93568e5ea3fc7",
      "assetIds": []
    },
    {
      "x": 365,
      "y": 299,
      "size": 1,
      "price": "1011000000000000000000",
      "reserved": "",
      "salt": "0x9dfd8466ccfc736e39c730320d1751e71b691bcd8f3eabf6e3c2fc043facc96c",
      "assetIds": []
    },
    {
      "x": 365,
      "y": 300,
      "size": 1,
      "price": "1011000000000000000000",
      "reserved": "",
      "salt": "0xb31c60c64c7c31638ac3efb61d8d768c71002d81975d880f1185a2bd16ee8b3e",
      "assetIds": []
    },
    {
      "x": 365,
      "y": 301,
      "size": 1,
      "price": "1011000000000000000000",
      "reserved": "",
      "salt": "0xae22b95d56acb245460002d65f729fdb844042708e7248512b4c606ee7ce3328",
      "assetIds": []
    },
    {
      "x": 365,
      "y": 302,
      "size": 1,
      "price": "1011000000000000000000",
      "reserved": "",
      "salt": "0x750a98099bbaf5e1adacc7a5117fa3a13fbf88ce43bf9600d70bfd0d96ebfe91",
      "assetIds": []
    },
    {
      "x": 365,
      "y": 303,
      "size": 1,
      "price": "1011000000000000000000",
      "reserved": "",
      "salt": "0x6cb2b313d58ddf96903900ef29858271c52563130a6a1cfb30985139dc95c6b5",
      "assetIds": []
    },
    {
      "x": 365,
      "y": 304,
      "size": 1,
      "price": "1011000000000000000000",
      "reserved": "",
      "salt": "0x8b8a4528c77f69aa764a7813fd9b937c7522c86ffe9e0b478fd5cafb86e1e009",
      "assetIds": []
    },
    {
      "x": 365,
      "y": 305,
      "size": 1,
      "price": "1011000000000000000000",
      "reserved": "",
      "salt": "0xad2eb49c79b3dd95c6f04db4b0216ae5018b16b3dfa4691a9c1901977fe73936",
      "assetIds": []
    },
    {
      "x": 365,
      "y": 306,
      "size": 1,
      "price": "1011000000000000000000",
      "reserved": "",
      "salt": "0xe02573d6f803ee2fd0d5fb700aeb13d5a7ff0e5e90ea2d95e4ae2cfbedc2e313",
      "assetIds": []
    },
    {
      "x": 365,
      "y": 307,
      "size": 1,
      "price": "1011000000000000000000",
      "reserved": "",
      "salt": "0x3aec505c6757b40959f244239d813c3282a79d7b2fd65096cf29cd139d166d23",
      "assetIds": []
    },
    {
      "x": 365,
      "y": 308,
      "size": 1,
      "price": "1011000000000000000000",
      "reserved": "",
      "salt": "0x56d7dce54f2ba9aa2af744a1c54ebed4fc2e4973c0b5477a35559444a675a5c5",
      "assetIds": []
    },
    {
      "x": 366,
      "y": 231,
      "size": 1,
      "price": "1011000000000000000000",
      "reserved": "",
      "salt": "0xe1fccf961d4bb3917866d47bfd128585994bcc7786cd4aac565136d44ae84166",
      "assetIds": []
    },
    {
      "x": 366,
      "y": 232,
      "size": 1,
      "price": "1011000000000000000000",
      "reserved": "",
      "salt": "0xcdedda8d5834300969d334b576233ac3bb1eab947182cd8b2713d72e4fb82899",
      "assetIds": []
    },
    {
      "x": 366,
      "y": 233,
      "size": 1,
      "price": "1011000000000000000000",
      "reserved": "",
      "salt": "0x1a6468ecc302a19b4d317b4effd8c4a5bf6c7adfc68e83c602d5e1a30920afeb",
      "assetIds": []
    },
    {
      "x": 366,
      "y": 234,
      "size": 1,
      "price": "1011000000000000000000",
      "reserved": "",
      "salt": "0x7ae119443f2303cc53516bd7aa899b074d95d6ec898e5c07ab592716d10f1114",
      "assetIds": []
    },
    {
      "x": 366,
      "y": 235,
      "size": 1,
      "price": "1011000000000000000000",
      "reserved": "",
      "salt": "0xd03d748d73e9c9b2822e1c68ec17cb4b9f560619cf21abe6000282b8077aef15",
      "assetIds": []
    },
    {
      "x": 366,
      "y": 236,
      "size": 1,
      "price": "1011000000000000000000",
      "reserved": "",
      "salt": "0x67496c007c0430a7f7f3ce4352b3be650a457eca35d5f66609d11e3af1ee35f7",
      "assetIds": []
    },
    {
      "x": 366,
      "y": 237,
      "size": 1,
      "price": "1011000000000000000000",
      "reserved": "",
      "salt": "0x6eac7bc32232b8be85396dced89b79fdd77621f793bdeb3dc7ca1c009ce77c75",
      "assetIds": []
    },
    {
      "x": 366,
      "y": 238,
      "size": 1,
      "price": "1011000000000000000000",
      "reserved": "",
      "salt": "0x899addeaa346419be25ed7ea58426e4562809bac35b4b41c3b7abbeba58bf4dc",
      "assetIds": []
    },
    {
      "x": 366,
      "y": 239,
      "size": 1,
      "price": "1011000000000000000000",
      "reserved": "",
      "salt": "0x875abefcf7afdc950eb4aa2b18c38b6a9b38a60cac6ecf203a33bef222a5f6fa",
      "assetIds": []
    },
    {
      "x": 366,
      "y": 264,
      "size": 1,
      "price": "1011000000000000000000",
      "reserved": "",
      "salt": "0x2f4723f2b60e53b15ccc484bc1bda526a8740714bff690e2fa30e250caa558ab",
      "assetIds": []
    },
    {
      "x": 366,
      "y": 265,
      "size": 1,
      "price": "1011000000000000000000",
      "reserved": "",
      "salt": "0x1034c2354447d174e901b3e56e9fb08cf2681d54d352a3578df8d5b5914f529d",
      "assetIds": []
    },
    {
      "x": 366,
      "y": 266,
      "size": 1,
      "price": "1011000000000000000000",
      "reserved": "",
      "salt": "0x1993735b9428c771d4362e8e3e66535e57559ac249e3a1889cf28acf537c63d7",
      "assetIds": []
    },
    {
      "x": 366,
      "y": 288,
      "size": 1,
      "price": "1011000000000000000000",
      "reserved": "",
      "salt": "0xa3ec2110a6091bccbb6fa19608d460157882480c5ca7efdb9fdd9f2e737935b0",
      "assetIds": []
    },
    {
      "x": 366,
      "y": 289,
      "size": 1,
      "price": "1011000000000000000000",
      "reserved": "",
      "salt": "0x873753038fc1ecf389811041a43a0a66e12cf2e74f5f79e16589ed93b142123f",
      "assetIds": []
    },
    {
      "x": 366,
      "y": 290,
      "size": 1,
      "price": "1011000000000000000000",
      "reserved": "",
      "salt": "0xb15641233c4f93d3c53fe20d8a4d4847f6ab295f83c1c018dfbaa325d38f5550",
      "assetIds": []
    },
    {
      "x": 366,
      "y": 294,
      "size": 1,
      "price": "1011000000000000000000",
      "reserved": "",
      "salt": "0x26667ddd21a404cf43748ea6a33d4c1894bd821c2d9dda3c7bf629f2e1c509f0",
      "assetIds": []
    },
    {
      "x": 366,
      "y": 295,
      "size": 1,
      "price": "1011000000000000000000",
      "reserved": "",
      "salt": "0x8f80cd35e2d91eec48ddc344147471fb65e7e090ef0bebe7d58a0b7ffb672700",
      "assetIds": []
    },
    {
      "x": 366,
      "y": 296,
      "size": 1,
      "price": "1011000000000000000000",
      "reserved": "",
      "salt": "0x52f8ee02572c55493ce5e078b71ecd7baf4221eaa69c4cbb2fbf0ba4f3a0f86b",
      "assetIds": []
    },
    {
      "x": 366,
      "y": 297,
      "size": 1,
      "price": "1011000000000000000000",
      "reserved": "",
      "salt": "0x005ef4ffe1f7ca3bb411f576989f367ec505babb2e77f005de74b0ab40d34868",
      "assetIds": []
    },
    {
      "x": 366,
      "y": 298,
      "size": 1,
      "price": "1011000000000000000000",
      "reserved": "",
      "salt": "0xd658b344b696ed30d6d77df9931559e00949819175cff3878840723b515a0720",
      "assetIds": []
    },
    {
      "x": 366,
      "y": 299,
      "size": 1,
      "price": "1011000000000000000000",
      "reserved": "",
      "salt": "0x87dafb59be5c0fe3201330f27890a06845a760f70870895fc1bdd556cd749631",
      "assetIds": []
    },
    {
      "x": 366,
      "y": 300,
      "size": 1,
      "price": "1011000000000000000000",
      "reserved": "",
      "salt": "0xe96252ba81dd2782aacd210b4b58642c7be8a5c868fa2b65f375896551226e93",
      "assetIds": []
    },
    {
      "x": 366,
      "y": 301,
      "size": 1,
      "price": "1011000000000000000000",
      "reserved": "",
      "salt": "0x5bf7d28b368dfeecb69d4484712b27671355585eced67d5a2636be99b36c494a",
      "assetIds": []
    },
    {
      "x": 366,
      "y": 302,
      "size": 1,
      "price": "1011000000000000000000",
      "reserved": "",
      "salt": "0x52bcf2890ce2d30f3b193049540fd1fabb72f34ad73721222461f3f72f911762",
      "assetIds": []
    },
    {
      "x": 366,
      "y": 303,
      "size": 1,
      "price": "1011000000000000000000",
      "reserved": "",
      "salt": "0x9680eb3356ba9e0f33e8f707472c3ce1ba82f44d75cac93c62c4118dc1f0ed7a",
      "assetIds": []
    },
    {
      "x": 366,
      "y": 304,
      "size": 1,
      "price": "1011000000000000000000",
      "reserved": "",
      "salt": "0x6b50bbebc34cd4c63c798b080660b640c8dbb81b8f3e7d16651626eeaf241f4e",
      "assetIds": []
    },
    {
      "x": 366,
      "y": 305,
      "size": 1,
      "price": "1011000000000000000000",
      "reserved": "",
      "salt": "0x8b55f181c4352c657d27b4a65bc84d3841b69422a16cf03f3c3434e3279cc50a",
      "assetIds": []
    },
    {
      "x": 366,
      "y": 306,
      "size": 1,
      "price": "1011000000000000000000",
      "reserved": "",
      "salt": "0x268c96eeb1f5d17273644b5dc90c78a6ab8d21c90474acb9cbe9ce98bac2f084",
      "assetIds": []
    },
    {
      "x": 367,
      "y": 231,
      "size": 1,
      "price": "1011000000000000000000",
      "reserved": "",
      "salt": "0x3675bac8c7f9c5993e5e44d580daee29fb2fcb0dfd4ddb2483a133b82eb93350",
      "assetIds": []
    },
    {
      "x": 367,
      "y": 232,
      "size": 1,
      "price": "1011000000000000000000",
      "reserved": "",
      "salt": "0xd53b77ee5ba9d2f24545bd48964399bd06d8b2a6df814fe2606aed5792a42525",
      "assetIds": []
    },
    {
      "x": 367,
      "y": 233,
      "size": 1,
      "price": "1011000000000000000000",
      "reserved": "",
      "salt": "0x288d0ce13157b448612354a4318399624ebafe74579d36134060e202fc458233",
      "assetIds": []
    },
    {
      "x": 367,
      "y": 234,
      "size": 1,
      "price": "1011000000000000000000",
      "reserved": "",
      "salt": "0x8fe22c310123c0320dd08ae46aaf0a5107e646495e56f82da58fc405b7f32817",
      "assetIds": []
    },
    {
      "x": 367,
      "y": 235,
      "size": 1,
      "price": "1011000000000000000000",
      "reserved": "",
      "salt": "0x78838c231b72cafa9995fa406d4c355f2e2c7e234822fc5a0ebb284988eeaced",
      "assetIds": []
    },
    {
      "x": 367,
      "y": 236,
      "size": 1,
      "price": "1011000000000000000000",
      "reserved": "",
      "salt": "0x46b9ddec423378eccc17f71d7e04d73648345d04e5be9be1423a06f1f7baa68f",
      "assetIds": []
    },
    {
      "x": 367,
      "y": 237,
      "size": 1,
      "price": "1011000000000000000000",
      "reserved": "0x7a9fe22691c811ea339d9b73150e6911a5343dca",
      "salt": "0xe1b03bcd70a1d55c6d9817be161d7771dac41fcfc2513cfe84813bbe0f8d6a06",
      "assetIds": []
    },
    {
      "x": 367,
      "y": 238,
      "size": 1,
      "price": "1011000000000000000000",
      "reserved": "",
      "salt": "0x7db3c0722d1b1f207ccc00bc4e45fcbaebcd087141ca5f2391620470c2521ba2",
      "assetIds": []
    },
    {
      "x": 367,
      "y": 239,
      "size": 1,
      "price": "1011000000000000000000",
      "reserved": "",
      "salt": "0x3e232b82d7ff3f11caaff4ba75645f4d7af50cb4107df6b7c6d046b9dcef12ed",
      "assetIds": []
    },
    {
      "x": 367,
      "y": 264,
      "size": 1,
      "price": "1011000000000000000000",
      "reserved": "",
      "salt": "0xc1685f66c31e9a1b591a425e47cfa5644d1b581b649cfc0fd9e74cd900328e63",
      "assetIds": []
    },
    {
      "x": 367,
      "y": 265,
      "size": 1,
      "price": "1011000000000000000000",
      "reserved": "",
      "salt": "0xd5c6f6a35dcbd0a794896cab485a50cb3bf3f3c7f2a8412ca88b2c0f91bf51cd",
      "assetIds": []
    },
    {
      "x": 367,
      "y": 266,
      "size": 1,
      "price": "1011000000000000000000",
      "reserved": "",
      "salt": "0x15f91c7794c048790a7660c0d0a8f36bdf8a127a4bc46aacd01d0b35168715d5",
      "assetIds": []
    },
    {
      "x": 367,
      "y": 288,
      "size": 1,
      "price": "1011000000000000000000",
      "reserved": "",
      "salt": "0x32277cfde96fe819068043d31190a7a9e7850061fb7eba9dbd6032117ccd7ae4",
      "assetIds": []
    },
    {
      "x": 367,
      "y": 289,
      "size": 1,
      "price": "1011000000000000000000",
      "reserved": "0x7a9fe22691c811ea339d9b73150e6911a5343dca",
      "salt": "0x1e1965a65f0b2f966c91956cc6cdec3dd794c29f65a14be3a98c14c5d2aef1b3",
      "assetIds": []
    },
    {
      "x": 367,
      "y": 290,
      "size": 1,
      "price": "1011000000000000000000",
      "reserved": "",
      "salt": "0x75824debe89321b36427a46459b4c3e0d04cd84fd83a45a0b1fae058174dbbb8",
      "assetIds": []
    },
    {
      "x": 367,
      "y": 294,
      "size": 1,
      "price": "1011000000000000000000",
      "reserved": "",
      "salt": "0xaf45ccaab88731f15c70c264a569df99387b5a6d8e88a2e1a8fe506d8748c680",
      "assetIds": []
    },
    {
      "x": 367,
      "y": 295,
      "size": 1,
      "price": "1011000000000000000000",
      "reserved": "",
      "salt": "0x32a426131b97b99408a8906b02f066474f4795462899ff7a270e08020e390a17",
      "assetIds": []
    },
    {
      "x": 367,
      "y": 296,
      "size": 1,
      "price": "1011000000000000000000",
      "reserved": "",
      "salt": "0xb2955ead8d67bc3d574a23495f999d197ed8e0dfefee5c3b91b0bbfc9a3448f2",
      "assetIds": []
    },
    {
      "x": 367,
      "y": 297,
      "size": 1,
      "price": "1011000000000000000000",
      "reserved": "",
      "salt": "0x78911c51792118326fe85440ff77bf98ff0ec0f333ccc268fc88f4df767047fb",
      "assetIds": []
    },
    {
      "x": 367,
      "y": 298,
      "size": 1,
      "price": "1011000000000000000000",
      "reserved": "",
      "salt": "0x28807f69111464bc10db8fdd443bfdab997d1b5ba01f7070da09d5a3b176e4e7",
      "assetIds": []
    },
    {
      "x": 367,
      "y": 299,
      "size": 1,
      "price": "1011000000000000000000",
      "reserved": "",
      "salt": "0x0b009ac7d0058330814b1b0c96553e009eadbe0bc7b1ee950ad6937a88b26dee",
      "assetIds": []
    },
    {
      "x": 367,
      "y": 300,
      "size": 1,
      "price": "1011000000000000000000",
      "reserved": "",
      "salt": "0xdd393101da696559ff5264c24d5724a1062923b2bf2e79c13596a394ff07cca7",
      "assetIds": []
    },
    {
      "x": 367,
      "y": 301,
      "size": 1,
      "price": "1011000000000000000000",
      "reserved": "",
      "salt": "0x0ca77ab8829fa892e9609651ad5a1a1ea95b033782703208b28749eb615562c2",
      "assetIds": []
    },
    {
      "x": 367,
      "y": 302,
      "size": 1,
      "price": "1011000000000000000000",
      "reserved": "",
      "salt": "0xe1acfbe6e8479061de7effd134fafb2ec1d4f851f7ef7a3c508c6d2d26025242",
      "assetIds": []
    },
    {
      "x": 367,
      "y": 303,
      "size": 1,
      "price": "1011000000000000000000",
      "reserved": "0x7a9fe22691c811ea339d9b73150e6911a5343dca",
      "salt": "0xb794389bd0183e59111e2ec9c751be9ee1839dfedc65f9e592cfc8fc65fb966f",
      "assetIds": []
    },
    {
      "x": 367,
      "y": 304,
      "size": 1,
      "price": "1011000000000000000000",
      "reserved": "",
      "salt": "0xde628513a3032168e82e7a19a8d398a7fcbec238dfe71c2227f30650cf3ceb0a",
      "assetIds": []
    },
    {
      "x": 367,
      "y": 305,
      "size": 1,
      "price": "1011000000000000000000",
      "reserved": "",
      "salt": "0x7378b1d99cbd534bbfa015c8b7c03a1b539bca4236773293afcfbfa0ff03e01e",
      "assetIds": []
    },
    {
      "x": 367,
      "y": 306,
      "size": 1,
      "price": "1011000000000000000000",
      "reserved": "",
      "salt": "0x9953a63988a3df42bfa74255c598eb27db210471eefe8b74e0aeb464e7ec9c91",
      "assetIds": []
    },
    {
      "x": 368,
      "y": 231,
      "size": 1,
      "price": "1011000000000000000000",
      "reserved": "",
      "salt": "0xcb39ec88438a23daac849782a171b5a43eca236c178ed6b941e3b4f44854f7dd",
      "assetIds": []
    },
    {
      "x": 368,
      "y": 232,
      "size": 1,
      "price": "1011000000000000000000",
      "reserved": "",
      "salt": "0x615daa3af414af118057f237dc4b83ccf508792e2b0b210f8e04336e0867cb3a",
      "assetIds": []
    },
    {
      "x": 368,
      "y": 233,
      "size": 1,
      "price": "1011000000000000000000",
      "reserved": "",
      "salt": "0x36f8c881743dbc5c1946516244253c416037ee06980a72426619bf081e2ab86c",
      "assetIds": []
    },
    {
      "x": 368,
      "y": 234,
      "size": 1,
      "price": "1011000000000000000000",
      "reserved": "",
      "salt": "0x7ef3daa55bf16619c8e76fbf6835b5e68fb8dbd6de13f72efc2fc3b5d237c484",
      "assetIds": []
    },
    {
      "x": 368,
      "y": 235,
      "size": 1,
      "price": "1011000000000000000000",
      "reserved": "",
      "salt": "0x8480d60d51a7e66071c121d9a5318880c03016c16fb85fdf7a3ad7cf6166485a",
      "assetIds": []
    },
    {
      "x": 368,
      "y": 236,
      "size": 1,
      "price": "1011000000000000000000",
      "reserved": "",
      "salt": "0x7b7cd402515c7d42e0954b17e3f52d80361f882475070a63e699f16d6d815b7f",
      "assetIds": []
    },
    {
      "x": 368,
      "y": 237,
      "size": 1,
      "price": "1011000000000000000000",
      "reserved": "",
      "salt": "0x9bb8a7c3ec5c999daee184ea2050d7e2313cc8f6201c041da6ed3038bed22e30",
      "assetIds": []
    },
    {
      "x": 368,
      "y": 238,
      "size": 1,
      "price": "1011000000000000000000",
      "reserved": "",
      "salt": "0x3eea9538896f4af937d666478ead727948db1a3fa1bb3387a8dea714249835ba",
      "assetIds": []
    },
    {
      "x": 368,
      "y": 239,
      "size": 1,
      "price": "1011000000000000000000",
      "reserved": "",
      "salt": "0xcca1b622e3c54e7d078aea2c11d74f3879414242417531d6f91a485f650c37b0",
      "assetIds": []
    },
    {
      "x": 368,
      "y": 264,
      "size": 1,
      "price": "1011000000000000000000",
      "reserved": "",
      "salt": "0x78ad93ab7f9a80fb1e446c600e9f1a1a4714da53a26e84697744203b62bf0bc6",
      "assetIds": []
    },
    {
      "x": 368,
      "y": 265,
      "size": 1,
      "price": "1011000000000000000000",
      "reserved": "",
      "salt": "0x5682fe20f3e2745c20fcb609990837536941219dcfaf4582eb177933289007ae",
      "assetIds": []
    },
    {
      "x": 368,
      "y": 266,
      "size": 1,
      "price": "1011000000000000000000",
      "reserved": "",
      "salt": "0xc7bd4773844b9a0df5d92968874f2e18372ad5edca8974bcef7128838567d949",
      "assetIds": []
    },
    {
      "x": 368,
      "y": 288,
      "size": 1,
      "price": "1011000000000000000000",
      "reserved": "",
      "salt": "0x5b25aad017f40a38252af5eecca7c98a60fd139eb6a17e6152e8f76f1ce94cae",
      "assetIds": []
    },
    {
      "x": 368,
      "y": 289,
      "size": 1,
      "price": "1011000000000000000000",
      "reserved": "",
      "salt": "0x350a4a64bf02c9cdfa983a015565c8ec72fa4f9c1dddac20415ff09320bd2535",
      "assetIds": []
    },
    {
      "x": 368,
      "y": 290,
      "size": 1,
      "price": "1011000000000000000000",
      "reserved": "",
      "salt": "0xcabe2e151283d2fa892c00c2355f941e101938a041cfbc39123bd45949bd188e",
      "assetIds": []
    },
    {
      "x": 368,
      "y": 294,
      "size": 1,
      "price": "1011000000000000000000",
      "reserved": "",
      "salt": "0x479b42bce90ded4b216e9d6d291ca2b5f18aeda3de5693097956c535e66417ce",
      "assetIds": []
    },
    {
      "x": 368,
      "y": 295,
      "size": 1,
      "price": "1011000000000000000000",
      "reserved": "",
      "salt": "0x2d2c647aa1a9b57c7ecc2de270f63f1584486978d30b5f02fee06929a183cedb",
      "assetIds": []
    },
    {
      "x": 368,
      "y": 296,
      "size": 1,
      "price": "1011000000000000000000",
      "reserved": "",
      "salt": "0xbdff7afdebbac474e41f6fa78c1ea0f7a25f7eb45aa7fb95ea0b00786ff74914",
      "assetIds": []
    },
    {
      "x": 368,
      "y": 297,
      "size": 1,
      "price": "1011000000000000000000",
      "reserved": "",
      "salt": "0xac192311f54211c7ab7925731ac603efedf2c53d7e6a126b2341b89706789d04",
      "assetIds": []
    },
    {
      "x": 368,
      "y": 298,
      "size": 1,
      "price": "1011000000000000000000",
      "reserved": "",
      "salt": "0x80e902e5a7d225f02a6b2a49ab8a7f897dab31c28d67be6b0e0e08fbc8b2aedb",
      "assetIds": []
    },
    {
      "x": 368,
      "y": 299,
      "size": 1,
      "price": "1011000000000000000000",
      "reserved": "",
      "salt": "0xecc781488b0b704992f3d872432f7b321719182230f399f1c2099f84f03b131f",
      "assetIds": []
    },
    {
      "x": 368,
      "y": 300,
      "size": 1,
      "price": "1011000000000000000000",
      "reserved": "",
      "salt": "0x5a4d4c2bcfcc16159e318f58632bce7a2e3fa0ab547c9f3187fae3f732cf5c59",
      "assetIds": []
    },
    {
      "x": 368,
      "y": 301,
      "size": 1,
      "price": "1011000000000000000000",
      "reserved": "",
      "salt": "0x103c87d9fb7fc1e61eea22e7bddd97d6557763766575ff9d49e314ce02b77784",
      "assetIds": []
    },
    {
      "x": 368,
      "y": 302,
      "size": 1,
      "price": "1011000000000000000000",
      "reserved": "",
      "salt": "0xb7041457929eecf09d9158d1654d21818d9f89330ae8ae2a47b38918e958a7a9",
      "assetIds": []
    },
    {
      "x": 368,
      "y": 303,
      "size": 1,
      "price": "1011000000000000000000",
      "reserved": "",
      "salt": "0xe9ee75073de6556418c8efad4c2b9d0a7ca9751195de106682c6b3c7c5c1a45e",
      "assetIds": []
    },
    {
      "x": 368,
      "y": 304,
      "size": 1,
      "price": "1011000000000000000000",
      "reserved": "",
      "salt": "0x97e98569cb68a90e7309526d399f87fc4d895eeed231c0f0102be2c07ff57555",
      "assetIds": []
    },
    {
      "x": 368,
      "y": 305,
      "size": 1,
      "price": "1011000000000000000000",
      "reserved": "",
      "salt": "0xb68881e1809b79774a5b1e9852be48ba35379c782f847eb212e50ed457a3ac7d",
      "assetIds": []
    },
    {
      "x": 369,
      "y": 231,
      "size": 1,
      "price": "1011000000000000000000",
      "reserved": "",
      "salt": "0xcbc2ed6f1c6fe7b7ed37bbbef11697d0bb539217591baca52bf2cfc3e215a956",
      "assetIds": []
    },
    {
      "x": 369,
      "y": 232,
      "size": 1,
      "price": "1011000000000000000000",
      "reserved": "",
      "salt": "0xc25b5a4af7b6054e5884c54a979cb06e49975ca565f527d252373bcd55117776",
      "assetIds": []
    },
    {
      "x": 369,
      "y": 233,
      "size": 1,
      "price": "1011000000000000000000",
      "reserved": "",
      "salt": "0xe1e2b65dd5aceeb067afdec72950454cc2cdb88cf230c99c6610a987c217290d",
      "assetIds": []
    },
    {
      "x": 369,
      "y": 234,
      "size": 1,
      "price": "1011000000000000000000",
      "reserved": "",
      "salt": "0xf3a9513992337898001b812e0657338b5c8f423dddbef03c4d580a4c780eb20c",
      "assetIds": []
    },
    {
      "x": 369,
      "y": 235,
      "size": 1,
      "price": "1011000000000000000000",
      "reserved": "",
      "salt": "0x370a2dcef4a1f4bb2770ba41dd14fc81241aae8b449f7102d0a85f9709d3899e",
      "assetIds": []
    },
    {
      "x": 369,
      "y": 236,
      "size": 1,
      "price": "1011000000000000000000",
      "reserved": "",
      "salt": "0x3ff9cd4063e621a1ff89d7d436f9f4b610039aa9cd6584568dbf073ba2e372b0",
      "assetIds": []
    },
    {
      "x": 369,
      "y": 237,
      "size": 1,
      "price": "1011000000000000000000",
      "reserved": "",
      "salt": "0xa118f0dd733a53a7a47e81608382588095bee90fd64cdf586937b6572254703a",
      "assetIds": []
    },
    {
      "x": 369,
      "y": 238,
      "size": 1,
      "price": "1011000000000000000000",
      "reserved": "",
      "salt": "0xa40981ae0ed19f7b6fa59d7e88430b91ca64b8c55e88e1f14566f22ca99fb544",
      "assetIds": []
    },
    {
      "x": 369,
      "y": 239,
      "size": 1,
      "price": "1011000000000000000000",
      "reserved": "",
      "salt": "0x4d76d3d17ace1942189fce90ca882f1abe7cef87e70a1b3635aa83eb10fedbef",
      "assetIds": []
    },
    {
      "x": 369,
      "y": 264,
      "size": 1,
      "price": "1011000000000000000000",
      "reserved": "",
      "salt": "0x44403a8e88096ce4fddb053008726ae3ed57625e6e7c42be46d050e5786cc833",
      "assetIds": []
    },
    {
      "x": 369,
      "y": 265,
      "size": 1,
      "price": "1011000000000000000000",
      "reserved": "",
      "salt": "0x5cb54d37649b7697b6a9c91cfe0b40b20e502e52d88a6873aef87fc0cd89d935",
      "assetIds": []
    },
    {
      "x": 369,
      "y": 266,
      "size": 1,
      "price": "1011000000000000000000",
      "reserved": "",
      "salt": "0x1f2532ae160cf5359d0921e2470186cab79d17401a52899584baa441fe747723",
      "assetIds": []
    },
    {
      "x": 369,
      "y": 267,
      "size": 1,
      "price": "1011000000000000000000",
      "reserved": "",
      "salt": "0xba7035861f38f63dbe2c75425963d9f62522fac0717119b337dfda84d7640b1a",
      "assetIds": []
    },
    {
      "x": 369,
      "y": 268,
      "size": 1,
      "price": "1011000000000000000000",
      "reserved": "",
      "salt": "0x40ffa2a6254e3fdd992aadde1ef3c96d01f996d47b1483560dc98b81e4248f75",
      "assetIds": []
    },
    {
      "x": 369,
      "y": 269,
      "size": 1,
      "price": "1011000000000000000000",
      "reserved": "",
      "salt": "0xc911781d0c4aa68fac1cf95c76ed0ac67c9438e62b0c27cf4125dcfba965af96",
      "assetIds": []
    },
    {
      "x": 369,
      "y": 288,
      "size": 1,
      "price": "1011000000000000000000",
      "reserved": "",
      "salt": "0xa365b13bbf1513398d83ecc55f65ca10cdd301d2f0fbae9c223e754589c621fd",
      "assetIds": []
    },
    {
      "x": 369,
      "y": 289,
      "size": 1,
      "price": "1011000000000000000000",
      "reserved": "",
      "salt": "0x089858316e5cf71064fd3e5e3f93a713828dfdb89f1bdbe3262079f456dfeb98",
      "assetIds": []
    },
    {
      "x": 369,
      "y": 290,
      "size": 1,
      "price": "1011000000000000000000",
      "reserved": "",
      "salt": "0xa88b316844f1914be379fadd9bd8f4fef3954f88f5dc4dc14c5626486603835c",
      "assetIds": []
    },
    {
      "x": 369,
      "y": 291,
      "size": 1,
      "price": "1011000000000000000000",
      "reserved": "",
      "salt": "0x4fb15aea622bc5dd5cbbb63d74959a33bca99b36c277b17d9606b926c5b54928",
      "assetIds": []
    },
    {
      "x": 369,
      "y": 292,
      "size": 1,
      "price": "1011000000000000000000",
      "reserved": "",
      "salt": "0xd12e79f13dce3b690143c70e83f015d88e758a35a5d05ca1056b24135fe99113",
      "assetIds": []
    },
    {
      "x": 369,
      "y": 293,
      "size": 1,
      "price": "1011000000000000000000",
      "reserved": "",
      "salt": "0x0396dd6ea85e222d537586c5d57ca870ed9ef433f67068ddf92a0bd2bdb570f4",
      "assetIds": []
    },
    {
      "x": 369,
      "y": 294,
      "size": 1,
      "price": "1011000000000000000000",
      "reserved": "",
      "salt": "0x78ca10890a04317ad591605baa069f398462213fdea3c094d676c93175b5ebb1",
      "assetIds": []
    },
    {
      "x": 369,
      "y": 295,
      "size": 1,
      "price": "1011000000000000000000",
      "reserved": "",
      "salt": "0x765d826fab3d891a82ace41f61505bfa65120c4358ccbbdbfe7f622a6308d246",
      "assetIds": []
    },
    {
      "x": 369,
      "y": 296,
      "size": 1,
      "price": "1011000000000000000000",
      "reserved": "",
      "salt": "0x4a855e93426dd60d7a53a3dadb04d82f2ea10aca989b3e33639904367c6aedac",
      "assetIds": []
    },
    {
      "x": 369,
      "y": 297,
      "size": 1,
      "price": "1011000000000000000000",
      "reserved": "",
      "salt": "0xfd9cb9aad5936b52f004c576ff0c5de4f2115bbb775d0fe0cc8dba35723795a1",
      "assetIds": []
    },
    {
      "x": 369,
      "y": 298,
      "size": 1,
      "price": "1011000000000000000000",
      "reserved": "",
      "salt": "0x279a229f97db6c3b19123b205f53a6682f8ba4660f772e4c192c605b4a2d28cd",
      "assetIds": []
    },
    {
      "x": 369,
      "y": 299,
      "size": 1,
      "price": "1011000000000000000000",
      "reserved": "",
      "salt": "0x437d5edac0eda885539c762edb759ead93c769e4bc63c1a31de38faf714db3d5",
      "assetIds": []
    },
    {
      "x": 369,
      "y": 300,
      "size": 1,
      "price": "1011000000000000000000",
      "reserved": "",
      "salt": "0xa67446362116089eff4d03403feabb77984c43176395a4cce8c0e6107824d7ba",
      "assetIds": []
    },
    {
      "x": 369,
      "y": 301,
      "size": 1,
      "price": "1011000000000000000000",
      "reserved": "",
      "salt": "0x2d7a7a92ad35ed9bcdf51b3c32bcbdb823ef29b8d27deb5bbaa5611feb6ce132",
      "assetIds": []
    },
    {
      "x": 369,
      "y": 302,
      "size": 1,
      "price": "1011000000000000000000",
      "reserved": "",
      "salt": "0x59a3db7001206c5a1da0c6f1b6036c67d19eea4b327bbb548f2dfde99e4b756f",
      "assetIds": []
    },
    {
      "x": 369,
      "y": 303,
      "size": 1,
      "price": "1011000000000000000000",
      "reserved": "",
      "salt": "0xee9a697ce7ea3ab6df3a148c8a523434743249f66158d9b974ae8a0fc43ee511",
      "assetIds": []
    },
    {
      "x": 369,
      "y": 304,
      "size": 1,
      "price": "1011000000000000000000",
      "reserved": "",
      "salt": "0xae77d1f0efec967dac63c7859e1d92c0111ed2975aceca41bf0873982280dade",
      "assetIds": []
    },
    {
      "x": 369,
      "y": 305,
      "size": 1,
      "price": "1011000000000000000000",
      "reserved": "",
      "salt": "0x8e26e5cce4072c8e3834e22cef4eecd88cad3391dfa4bfe6251056613814e4a2",
      "assetIds": []
    },
    {
      "x": 370,
      "y": 231,
      "size": 1,
      "price": "1011000000000000000000",
      "reserved": "",
      "salt": "0x0f4f226b78576488183c86c02cc5ea6ea47349975b77aea42c9231783779ea77",
      "assetIds": []
    },
    {
      "x": 370,
      "y": 232,
      "size": 1,
      "price": "1011000000000000000000",
      "reserved": "0x7a9fe22691c811ea339d9b73150e6911a5343dca",
      "salt": "0x52d8b24fefe0251583543203bfe6a2df47f6ac51ca76387d87b281326e1cba75",
      "assetIds": []
    },
    {
      "x": 370,
      "y": 233,
      "size": 1,
      "price": "1011000000000000000000",
      "reserved": "",
      "salt": "0xd5a573b0d7dba52f4cc5bb57b2e555b2215b31d1f282700d6ce365cb915ef67c",
      "assetIds": []
    },
    {
      "x": 370,
      "y": 234,
      "size": 1,
      "price": "1011000000000000000000",
      "reserved": "",
      "salt": "0x6aba3943c7b6e63a32c6e3eecb26bdb8f94144b6c65d1d5909660f0e79bc96b0",
      "assetIds": []
    },
    {
      "x": 370,
      "y": 235,
      "size": 1,
      "price": "1011000000000000000000",
      "reserved": "",
      "salt": "0x84971dd2d28c74712db98cac05a10f4ea5dbbfa1f3e7fa3ef2192811ee120481",
      "assetIds": []
    },
    {
      "x": 370,
      "y": 236,
      "size": 1,
      "price": "1011000000000000000000",
      "reserved": "",
      "salt": "0xf3d68976b3d4bbb3d36b279014142f68a8b8854b763f759695b18925c12baf05",
      "assetIds": []
    },
    {
      "x": 370,
      "y": 237,
      "size": 1,
      "price": "1011000000000000000000",
      "reserved": "",
      "salt": "0x17a0c1925f0cd16d2e66ca7e99f98f34b617d272d9919d3de038d5b79aac2162",
      "assetIds": []
    },
    {
      "x": 370,
      "y": 238,
      "size": 1,
      "price": "1011000000000000000000",
      "reserved": "",
      "salt": "0xd9877be0ea5c8135ca53e4efddedce0e2ae86a06094a5dbf29fa5049772081c0",
      "assetIds": []
    },
    {
      "x": 370,
      "y": 239,
      "size": 1,
      "price": "1011000000000000000000",
      "reserved": "",
      "salt": "0x399172a792875a471c74411ef6c5385a06daaf76008542fb5f2f467fd6d15b80",
      "assetIds": []
    },
    {
      "x": 370,
      "y": 264,
      "size": 1,
      "price": "1011000000000000000000",
      "reserved": "0x7a9fe22691c811ea339d9b73150e6911a5343dca",
      "salt": "0x99bc94b67e8c5103730681ba423b43646b65c5eb1736335defc6b79356f7b66c",
      "assetIds": []
    },
    {
      "x": 370,
      "y": 265,
      "size": 1,
      "price": "1011000000000000000000",
      "reserved": "",
      "salt": "0x32fe88f3cef83af15ae83028ec0a3a2ac8b1ba6f1ebebaafc5fe21ec0e065a61",
      "assetIds": []
    },
    {
      "x": 370,
      "y": 266,
      "size": 1,
      "price": "1011000000000000000000",
      "reserved": "",
      "salt": "0x2062ac3208e70b60bd08f9b20df99f8ae881ed9d85e35af0d38be75b3bc89744",
      "assetIds": []
    },
    {
      "x": 370,
      "y": 267,
      "size": 1,
      "price": "1011000000000000000000",
      "reserved": "",
      "salt": "0x057a6c4e8c4252312d76bf66af8b144b15c434e67cebbd824cad01ebaed3a57b",
      "assetIds": []
    },
    {
      "x": 370,
      "y": 268,
      "size": 1,
      "price": "1011000000000000000000",
      "reserved": "",
      "salt": "0xa092c43bf712841231a0221ebc809847d487bcb2181539ee29d3ac0a9d3e04ad",
      "assetIds": []
    },
    {
      "x": 370,
      "y": 269,
      "size": 1,
      "price": "1011000000000000000000",
      "reserved": "",
      "salt": "0x4b8e9f6b8e0465368e7df2e4aee3151b6e4860429fb94bde75eb027dd27a19fb",
      "assetIds": []
    },
    {
      "x": 370,
      "y": 288,
      "size": 1,
      "price": "1011000000000000000000",
      "reserved": "",
      "salt": "0x10982b7e01612501ea7117cda1f7093dce11f9398892e892a2f5aac7dfc57a06",
      "assetIds": []
    },
    {
      "x": 370,
      "y": 289,
      "size": 1,
      "price": "1011000000000000000000",
      "reserved": "",
      "salt": "0xc3ebfa1599b6493900692b417fb56dbfaac9bac53565422bbe450acfab297041",
      "assetIds": []
    },
    {
      "x": 370,
      "y": 290,
      "size": 1,
      "price": "1011000000000000000000",
      "reserved": "",
      "salt": "0xf769036a5fdfb8ef2245662edbbd99875fa6112b8cb66a98723c32952162d611",
      "assetIds": []
    },
    {
      "x": 370,
      "y": 291,
      "size": 1,
      "price": "1011000000000000000000",
      "reserved": "",
      "salt": "0x72fde9ce4e4354485b85c0ca4f8ef0435098236992a63c2ce6eaeda50404ac63",
      "assetIds": []
    },
    {
      "x": 370,
      "y": 292,
      "size": 1,
      "price": "1011000000000000000000",
      "reserved": "",
      "salt": "0x9269d338d9f43b38901d273d9520341cd128c771a4f3c3192b857a14623f379c",
      "assetIds": []
    },
    {
      "x": 370,
      "y": 293,
      "size": 1,
      "price": "1011000000000000000000",
      "reserved": "",
      "salt": "0x2f6a96a773caa9e21b89e519721b8d32df418d93892f1586b7bf2a8af31626fd",
      "assetIds": []
    },
    {
      "x": 370,
      "y": 294,
      "size": 1,
      "price": "1011000000000000000000",
      "reserved": "",
      "salt": "0xc38e4523354c610e77bba339bbadde18d970d324a9079408f20b530357d8565e",
      "assetIds": []
    },
    {
      "x": 370,
      "y": 295,
      "size": 1,
      "price": "1011000000000000000000",
      "reserved": "",
      "salt": "0x7fe007d35ac5961aacfde8be6355d210c15573243b88807fb2962b535c7fa7da",
      "assetIds": []
    },
    {
      "x": 370,
      "y": 296,
      "size": 1,
      "price": "1011000000000000000000",
      "reserved": "",
      "salt": "0x0bd5b76433c16ea57833988acc00c293bac0d89d7be164771213c595fa43e000",
      "assetIds": []
    },
    {
      "x": 370,
      "y": 297,
      "size": 1,
      "price": "1011000000000000000000",
      "reserved": "",
      "salt": "0x704860bb1951d39a0136638c5395f893b82707ff18e2b492c98ca9214f2615cc",
      "assetIds": []
    },
    {
      "x": 370,
      "y": 298,
      "size": 1,
      "price": "1011000000000000000000",
      "reserved": "",
      "salt": "0x63e216493d8c89beb853d8a5de123563f8eaf3a7dc346bd7c7c3d6ecd82923d7",
      "assetIds": []
    },
    {
      "x": 370,
      "y": 299,
      "size": 1,
      "price": "1011000000000000000000",
      "reserved": "",
      "salt": "0xcb5b9be5f05e75fcb9e960c0ec619280de36305ba5f2a6845f23f9c6c9ba75c3",
      "assetIds": []
    },
    {
      "x": 370,
      "y": 300,
      "size": 1,
      "price": "1011000000000000000000",
      "reserved": "",
      "salt": "0xff20ec2739c8492928c2532eb24be1890025e5622889b7293b3e1ccbe2efa289",
      "assetIds": []
    },
    {
      "x": 370,
      "y": 301,
      "size": 1,
      "price": "1011000000000000000000",
      "reserved": "",
      "salt": "0xae21c90b11b222c30868d07b24831d1b97e19e79691973c6882947de1fd2ea79",
      "assetIds": []
    },
    {
      "x": 370,
      "y": 302,
      "size": 1,
      "price": "1011000000000000000000",
      "reserved": "",
      "salt": "0x6747442b7347f3d99b5e5d24976f70a462830fff31969baa688bc2068abbb9c0",
      "assetIds": []
    },
    {
      "x": 370,
      "y": 303,
      "size": 1,
      "price": "1011000000000000000000",
      "reserved": "",
      "salt": "0xadc458246088066782d7c3867808b07dab8fda87653194afad2d93ae969040ed",
      "assetIds": []
    },
    {
      "x": 370,
      "y": 304,
      "size": 1,
      "price": "1011000000000000000000",
      "reserved": "",
      "salt": "0x3581931fe53115340fce0c2dbd95e33dd243898a97fd74f5085ad7dca0028707",
      "assetIds": []
    },
    {
      "x": 370,
      "y": 305,
      "size": 1,
      "price": "1011000000000000000000",
      "reserved": "",
      "salt": "0x01ac1e727f917d7f3c54482cdc69762d3e0d3547520467ac16486b21b4b92ea4",
      "assetIds": []
    },
    {
      "x": 371,
      "y": 231,
      "size": 1,
      "price": "1011000000000000000000",
      "reserved": "",
      "salt": "0xae3db1301e7ea1673fedcc54bcfda6df20d3539cf65cf7b93224f541be49418b",
      "assetIds": []
    },
    {
      "x": 371,
      "y": 232,
      "size": 1,
      "price": "1011000000000000000000",
      "reserved": "",
      "salt": "0x2a5a3111b9b072d17a16a16324be6f946c9ded4a2c3795e151003ffdc739a5c6",
      "assetIds": []
    },
    {
      "x": 371,
      "y": 233,
      "size": 1,
      "price": "1011000000000000000000",
      "reserved": "",
      "salt": "0x72bec72703ee8b276e778dafda5bc2f24179f02423afc5f037e5d1de79ec934d",
      "assetIds": []
    },
    {
      "x": 371,
      "y": 234,
      "size": 1,
      "price": "1011000000000000000000",
      "reserved": "",
      "salt": "0x2349f786b76aeea06aae74787865469e657aba9fae9b8c421eddf53f8c5fea5a",
      "assetIds": []
    },
    {
      "x": 371,
      "y": 235,
      "size": 1,
      "price": "1011000000000000000000",
      "reserved": "",
      "salt": "0xfb75c6cce6953713513eba68154a57b6be93584a46fa532c4baa73f444e66c3a",
      "assetIds": []
    },
    {
      "x": 371,
      "y": 236,
      "size": 1,
      "price": "1011000000000000000000",
      "reserved": "",
      "salt": "0x000952c7631a9a85d282e394f7f3a556407e1d81cbed93965849cd8454da6511",
      "assetIds": []
    },
    {
      "x": 371,
      "y": 237,
      "size": 1,
      "price": "1011000000000000000000",
      "reserved": "",
      "salt": "0xa7fc63e76c759dd6ec68afea784b08e2fac59fa0ace65082a78f81d04fb1f578",
      "assetIds": []
    },
    {
      "x": 371,
      "y": 238,
      "size": 1,
      "price": "1011000000000000000000",
      "reserved": "",
      "salt": "0xeaf6c5291a276d5d488a80e0a7c24ba07c60453d423145c40d1eca79940566a3",
      "assetIds": []
    },
    {
      "x": 371,
      "y": 239,
      "size": 1,
      "price": "1011000000000000000000",
      "reserved": "",
      "salt": "0x1c2af34e5a1f0359c705cf1b6652aa0ae69679a4320924c73b884ba7c23dd5c6",
      "assetIds": []
    },
    {
      "x": 371,
      "y": 264,
      "size": 1,
      "price": "1011000000000000000000",
      "reserved": "",
      "salt": "0x15d26b3d766f0529391ce56945406337eb2231710e26efe194327c373b02dfec",
      "assetIds": []
    },
    {
      "x": 371,
      "y": 265,
      "size": 1,
      "price": "1011000000000000000000",
      "reserved": "",
      "salt": "0xa56d198c971a307b007ddeed1dceddc49aeb8e24cfc27bbfe795d2746ae1ffad",
      "assetIds": []
    },
    {
      "x": 371,
      "y": 266,
      "size": 1,
      "price": "1011000000000000000000",
      "reserved": "",
      "salt": "0x74c3ad9ee5fc7c8508e7d6ce81b6bf12e7a0615a6477912cfb60296f8c738a19",
      "assetIds": []
    },
    {
      "x": 371,
      "y": 267,
      "size": 1,
      "price": "1011000000000000000000",
      "reserved": "",
      "salt": "0x4e28397c5ec1b3a2177193a4a6ff1bb3375773f4f825bea150d3b48a1660ed87",
      "assetIds": []
    },
    {
      "x": 371,
      "y": 268,
      "size": 1,
      "price": "1011000000000000000000",
      "reserved": "",
      "salt": "0xfe92b88aa8e44eb49d7ab4ae0989f7b6e2146bfa526d9f03540987d922bbe11a",
      "assetIds": []
    },
    {
      "x": 371,
      "y": 269,
      "size": 1,
      "price": "1011000000000000000000",
      "reserved": "",
      "salt": "0xfecb4694739dfd292d9167d5c8c6d9083a4036413a7fb91f4a78538e1dd49453",
      "assetIds": []
    },
    {
      "x": 371,
      "y": 288,
      "size": 1,
      "price": "1011000000000000000000",
      "reserved": "",
      "salt": "0x666ce4bae7a24e55b236fa4e6589f379b702c533b46dc4bf282f44e7c2b9beee",
      "assetIds": []
    },
    {
      "x": 371,
      "y": 289,
      "size": 1,
      "price": "1011000000000000000000",
      "reserved": "",
      "salt": "0x3bc2167c3e1a1d3be03a720c084f73db324081d8f26fad861f0cc2ef2c960fb0",
      "assetIds": []
    },
    {
      "x": 371,
      "y": 290,
      "size": 1,
      "price": "1011000000000000000000",
      "reserved": "",
      "salt": "0x5ff0ee4a005ab782e0f0025c9a5c05489681a67e155f8be2a5c720e45ff22934",
      "assetIds": []
    },
    {
      "x": 371,
      "y": 291,
      "size": 1,
      "price": "1011000000000000000000",
      "reserved": "",
      "salt": "0x991b383d62f4fc4c4ef3b9b6ffe6a77847e6dcba805cfd27266a5d17873cf88a",
      "assetIds": []
    },
    {
      "x": 371,
      "y": 292,
      "size": 1,
      "price": "1011000000000000000000",
      "reserved": "",
      "salt": "0x0f29e87e37fccc12d2d252790f41694bdfc8b0fb4575115c425494ab6933b094",
      "assetIds": []
    },
    {
      "x": 371,
      "y": 293,
      "size": 1,
      "price": "1011000000000000000000",
      "reserved": "",
      "salt": "0xce27bd7123bc3dbe1561c5d1a3e46f633684326f3b395a65a14cfd41c6a22ea4",
      "assetIds": []
    },
    {
      "x": 371,
      "y": 294,
      "size": 1,
      "price": "1011000000000000000000",
      "reserved": "0x7a9fe22691c811ea339d9b73150e6911a5343dca",
      "salt": "0xcd176ccf6a90b7a64cb86bab147d8ad9454d6d17407ccd02b8e76b8cb1f8ea41",
      "assetIds": []
    },
    {
      "x": 371,
      "y": 295,
      "size": 1,
      "price": "1011000000000000000000",
      "reserved": "",
      "salt": "0xc9ac7e7297fff9b40e0a374238663bc15c745b2bd3791e3570fb867f2e90d570",
      "assetIds": []
    },
    {
      "x": 371,
      "y": 296,
      "size": 1,
      "price": "1011000000000000000000",
      "reserved": "",
      "salt": "0x44b3de660e8fe7f0002ed973278fb1f73ec7bb66070e2b0401c0129aad007de9",
      "assetIds": []
    },
    {
      "x": 371,
      "y": 297,
      "size": 1,
      "price": "1011000000000000000000",
      "reserved": "",
      "salt": "0xa5504173b4ce233c099f55f1d469da50a62b17245ad61ddd41d10aa83e66eb50",
      "assetIds": []
    },
    {
      "x": 371,
      "y": 298,
      "size": 1,
      "price": "1011000000000000000000",
      "reserved": "",
      "salt": "0xe80aa0a62ef0fe81c4cc126e22cc231c5e2e1b670ecf114f22773db6ac7472ab",
      "assetIds": []
    },
    {
      "x": 371,
      "y": 299,
      "size": 1,
      "price": "1011000000000000000000",
      "reserved": "",
      "salt": "0x6eb149d4a6fd36b3c7aaf60e0079ec1cc2468039685303f0cfc9ccfa48749d90",
      "assetIds": []
    },
    {
      "x": 371,
      "y": 300,
      "size": 1,
      "price": "1011000000000000000000",
      "reserved": "",
      "salt": "0xeb3229e354a196b94a423e5bd05bcdecba324fe4069000d7ff6787cbe1f54df4",
      "assetIds": []
    },
    {
      "x": 371,
      "y": 301,
      "size": 1,
      "price": "1011000000000000000000",
      "reserved": "",
      "salt": "0x6ec2bee185a56c7153abab66fa6ce771d06bb8d295c72444b67fa86f7a849ff3",
      "assetIds": []
    },
    {
      "x": 371,
      "y": 302,
      "size": 1,
      "price": "1011000000000000000000",
      "reserved": "",
      "salt": "0x47955b72838440ba54240df8f228bcef4dbb8a7be5a5991dade343bdd85a7031",
      "assetIds": []
    },
    {
      "x": 371,
      "y": 303,
      "size": 1,
      "price": "1011000000000000000000",
      "reserved": "",
      "salt": "0x0d22c5f193ba5183ec4ba959bbe2ef6e02fe2d94fd11238572fde49f2a31b63f",
      "assetIds": []
    },
    {
      "x": 371,
      "y": 304,
      "size": 1,
      "price": "1011000000000000000000",
      "reserved": "",
      "salt": "0x1bb9b671e81ee8892e3403cdac4e377ec5251edbff7e7d7e001f84df99f51505",
      "assetIds": []
    },
    {
      "x": 371,
      "y": 305,
      "size": 1,
      "price": "1011000000000000000000",
      "reserved": "",
      "salt": "0x7f535010396201a73c80d27f65a1e633520181dc73742dc9365fecfc0d6f69b9",
      "assetIds": []
    },
    {
      "x": 372,
      "y": 231,
      "size": 1,
      "price": "1011000000000000000000",
      "reserved": "",
      "salt": "0x60217888668c53cbb491c2da3cac4f4050b8a0ed4107f350698dd17d07ab4e4d",
      "assetIds": []
    },
    {
      "x": 372,
      "y": 232,
      "size": 1,
      "price": "1011000000000000000000",
      "reserved": "",
      "salt": "0x812c08da440ffcb4df780f27e7e4dc6cbaffd8d039c291c141621243d90173ba",
      "assetIds": []
    },
    {
      "x": 372,
      "y": 233,
      "size": 1,
      "price": "1011000000000000000000",
      "reserved": "",
      "salt": "0x7e905d53b5bbe1c0f12a4baa8ffe303a50dc40c173051a6289337af08bca7a53",
      "assetIds": []
    },
    {
      "x": 372,
      "y": 276,
      "size": 1,
      "price": "1011000000000000000000",
      "reserved": "",
      "salt": "0x112f64d11630fbb1071a6abfb22103d239960b47b15e950c4c3ecbcf33654bb2",
      "assetIds": []
    },
    {
      "x": 372,
      "y": 277,
      "size": 1,
      "price": "1011000000000000000000",
      "reserved": "",
      "salt": "0x2e0ae2159fcef451ff3cfda65eca25ca73f23feeae41f163aea30c0a6fc84ac8",
      "assetIds": []
    },
    {
      "x": 372,
      "y": 278,
      "size": 1,
      "price": "1011000000000000000000",
      "reserved": "",
      "salt": "0xe14ea8c8cbb0ee60565c4fb32191b7854c0b1c983551b231155b4bc87bb9a127",
      "assetIds": []
    },
    {
      "x": 372,
      "y": 279,
      "size": 1,
      "price": "1011000000000000000000",
      "reserved": "",
      "salt": "0xa2edf433e1e3759760fdf02a36b544bf81ce78f2e2e2540f58d6940614549194",
      "assetIds": []
    },
    {
      "x": 372,
      "y": 280,
      "size": 1,
      "price": "1011000000000000000000",
      "reserved": "",
      "salt": "0x9fa50b701cceeef833af872f7a6bc40f73575c7b8cd1f58554480a8d811dd0bc",
      "assetIds": []
    },
    {
      "x": 372,
      "y": 281,
      "size": 1,
      "price": "1011000000000000000000",
      "reserved": "",
      "salt": "0xf265244788eaa5c793b43b4bbb2bbb96144f0d05ccc6b0d3b8d8c41214be75be",
      "assetIds": []
    },
    {
      "x": 372,
      "y": 288,
      "size": 1,
      "price": "1011000000000000000000",
      "reserved": "",
      "salt": "0x8d6fb839891a6870e11ef91e153fc937e55c0d7c2e54737e16e9495b17023703",
      "assetIds": []
    },
    {
      "x": 372,
      "y": 289,
      "size": 1,
      "price": "1011000000000000000000",
      "reserved": "",
      "salt": "0x28d3c4cbf188d136a46c318b395247b7229c2b5575bf04be0f885c3cf91705ac",
      "assetIds": []
    },
    {
      "x": 372,
      "y": 290,
      "size": 1,
      "price": "1011000000000000000000",
      "reserved": "",
      "salt": "0x7f38ec565046f74882eea5ae86ff1d9dad10eed2d80746049fd6976e6c39eaa2",
      "assetIds": []
    },
    {
      "x": 372,
      "y": 291,
      "size": 1,
      "price": "1011000000000000000000",
      "reserved": "",
      "salt": "0x223e41257f7af5a1234888149b1ae1dbdf7d9b0091fb33f2234b6e3826759a67",
      "assetIds": []
    },
    {
      "x": 372,
      "y": 292,
      "size": 1,
      "price": "1011000000000000000000",
      "reserved": "",
      "salt": "0x8a540634ef6e07cb9582504fcbacbfe1c918e344171cc0dd1a1180dd6cc78850",
      "assetIds": []
    },
    {
      "x": 372,
      "y": 293,
      "size": 1,
      "price": "1011000000000000000000",
      "reserved": "",
      "salt": "0x0d6e8f0e7b356b7320f8825bfc69492f4fab71307d0d5c874036ff2b19bd7e58",
      "assetIds": []
    },
    {
      "x": 372,
      "y": 294,
      "size": 1,
      "price": "1011000000000000000000",
      "reserved": "",
      "salt": "0x31f7b7fb7dd23e77944bd90ea358de694c9f46efedbf3dda086d51df5f8e37aa",
      "assetIds": []
    },
    {
      "x": 372,
      "y": 295,
      "size": 1,
      "price": "1011000000000000000000",
      "reserved": "",
      "salt": "0x7781c04e6a5a28897066f0efd4b5a6b73d29d079e65e84e84cd22545293148d8",
      "assetIds": []
    },
    {
      "x": 372,
      "y": 296,
      "size": 1,
      "price": "1011000000000000000000",
      "reserved": "",
      "salt": "0x3fb95f6581dc405132158e8bdd0ce466f5ff0d7263bc367ac32451295b34749a",
      "assetIds": []
    },
    {
      "x": 372,
      "y": 297,
      "size": 1,
      "price": "1011000000000000000000",
      "reserved": "",
      "salt": "0xd6ad49270355591daab7f7cfe28b126d9e89590d5173d96a5ce0b1ab1464f32e",
      "assetIds": []
    },
    {
      "x": 372,
      "y": 298,
      "size": 1,
      "price": "1011000000000000000000",
      "reserved": "",
      "salt": "0xc5a20378ab2bce79f307a2066200092ee5a4dca86c42ff416e193c98debedb47",
      "assetIds": []
    },
    {
      "x": 372,
      "y": 299,
      "size": 1,
      "price": "1011000000000000000000",
      "reserved": "",
      "salt": "0xbddfe9e2bc7519d892026652b75de1485dbba612b14d2e36c1499f1391d88af4",
      "assetIds": []
    },
    {
      "x": 372,
      "y": 300,
      "size": 1,
      "price": "1011000000000000000000",
      "reserved": "",
      "salt": "0xeb19560a09c85f06751b7aacb41018d5ec7590436d1d8f387dfe606aa31a66b1",
      "assetIds": []
    },
    {
      "x": 372,
      "y": 301,
      "size": 1,
      "price": "1011000000000000000000",
      "reserved": "",
      "salt": "0xa13d7579c4394495e26c1553037a8b9e689a97e4320b32348e1037caa8596d82",
      "assetIds": []
    },
    {
      "x": 372,
      "y": 302,
      "size": 1,
      "price": "1011000000000000000000",
      "reserved": "",
      "salt": "0x2f819e192237d797fcf861c52af287dbd80e5a78d831aec622889c9c37c53a60",
      "assetIds": []
    },
    {
      "x": 372,
      "y": 303,
      "size": 1,
      "price": "1011000000000000000000",
      "reserved": "",
      "salt": "0xe4e4a3292f22ec6bdb639824d9192ba07cde3ac8b2f6c0aadc5d77be6e614050",
      "assetIds": []
    },
    {
      "x": 372,
      "y": 304,
      "size": 1,
      "price": "1011000000000000000000",
      "reserved": "",
      "salt": "0x18729200681bd549b209f72d904ca61b5312ec525c1e37ac7993ac823f0d6858",
      "assetIds": []
    },
    {
      "x": 372,
      "y": 305,
      "size": 1,
      "price": "1011000000000000000000",
      "reserved": "",
      "salt": "0x9a94198919775cc3caa4b759e1dfa651e78a217b7d419fea09f09eadee3c451f",
      "assetIds": []
    },
    {
      "x": 373,
      "y": 231,
      "size": 1,
      "price": "1011000000000000000000",
      "reserved": "",
      "salt": "0x948451ee8aca288e89bf390f15119b0d4255a759e4b5bd6919d584526af32285",
      "assetIds": []
    },
    {
      "x": 373,
      "y": 232,
      "size": 1,
      "price": "1011000000000000000000",
      "reserved": "",
      "salt": "0x57246379763e1e4530db085cf6f741e3dfe0d515ea3a32604007dc47b1dcba85",
      "assetIds": []
    },
    {
      "x": 373,
      "y": 233,
      "size": 1,
      "price": "1011000000000000000000",
      "reserved": "",
      "salt": "0xc0f805fd4414e456070bbd4e2e0a589c00d6a95e2eaffebf0951d64ec2e2f9a9",
      "assetIds": []
    },
    {
      "x": 373,
      "y": 276,
      "size": 1,
      "price": "1011000000000000000000",
      "reserved": "",
      "salt": "0xb3983664169aba81f71f4878bfdc1a9649692affa84dcb2657dd427afa3c038b",
      "assetIds": []
    },
    {
      "x": 373,
      "y": 277,
      "size": 1,
      "price": "1011000000000000000000",
      "reserved": "0x7a9fe22691c811ea339d9b73150e6911a5343dca",
      "salt": "0x93e7336d487e6ab8325dd76d54698b78a312156a0f84c929bb1970ab430440d2",
      "assetIds": []
    },
    {
      "x": 373,
      "y": 278,
      "size": 1,
      "price": "1011000000000000000000",
      "reserved": "",
      "salt": "0x04fe4b0907e9042fb385498dfd0b0ebce873756b63082a045dcd6c0e9f39bc18",
      "assetIds": []
    },
    {
      "x": 373,
      "y": 279,
      "size": 1,
      "price": "1011000000000000000000",
      "reserved": "",
      "salt": "0x0f447cc026091395a1d9cb9f793da7dcf17444f9b833f668a28e6db97bc5dc61",
      "assetIds": []
    },
    {
      "x": 373,
      "y": 280,
      "size": 1,
      "price": "1011000000000000000000",
      "reserved": "",
      "salt": "0x8f67a55fe0cdaf51d5f86320925950089e4b11cc91d23c761d6c36a245221070",
      "assetIds": []
    },
    {
      "x": 373,
      "y": 281,
      "size": 1,
      "price": "1011000000000000000000",
      "reserved": "",
      "salt": "0x5814e3e3df1b91600c37f8481bfac21e6ff5211284dee36c7ad905d0ac6ad711",
      "assetIds": []
    },
    {
      "x": 373,
      "y": 288,
      "size": 1,
      "price": "1011000000000000000000",
      "reserved": "",
      "salt": "0x33aa25929fd0f8edab90c4194c7efec3b13abd739e77c49d862a67353c2228dc",
      "assetIds": []
    },
    {
      "x": 373,
      "y": 289,
      "size": 1,
      "price": "1011000000000000000000",
      "reserved": "",
      "salt": "0x08c52ee1765f8060fd12675a9da255ca1e4d517bf9437d07ef5ea44c57daeb3c",
      "assetIds": []
    },
    {
      "x": 373,
      "y": 290,
      "size": 1,
      "price": "1011000000000000000000",
      "reserved": "",
      "salt": "0x917954241a5af5a6aa015443d824a6a7ec6896edb9db73641d6423917fac5d35",
      "assetIds": []
    },
    {
      "x": 373,
      "y": 291,
      "size": 1,
      "price": "1011000000000000000000",
      "reserved": "",
      "salt": "0x6f6c50891a085e002a905752958687b28aac86b0b44d606ea83bfa39b5206ef9",
      "assetIds": []
    },
    {
      "x": 373,
      "y": 292,
      "size": 1,
      "price": "1011000000000000000000",
      "reserved": "",
      "salt": "0x1a0134eca462f4fcba8c6b1521ebacaeec46284260f49f1b3d3c7beb8f48e878",
      "assetIds": []
    },
    {
      "x": 373,
      "y": 293,
      "size": 1,
      "price": "1011000000000000000000",
      "reserved": "",
      "salt": "0x037bf7d230a19f18241d3d68fe4f63c0ea20733020f008ea8886571c26e370c4",
      "assetIds": []
    },
    {
      "x": 373,
      "y": 294,
      "size": 1,
      "price": "1011000000000000000000",
      "reserved": "",
      "salt": "0xebf3a7924f77cdfd8b8b6a00697a227a35c05120d4f6b6188b03cb1f16c6550c",
      "assetIds": []
    },
    {
      "x": 373,
      "y": 295,
      "size": 1,
      "price": "1011000000000000000000",
      "reserved": "",
      "salt": "0x2d8e44e4f77ad69494d99d53a1747dfe0d3d72aad9a763e4c3adc6259cd89126",
      "assetIds": []
    },
    {
      "x": 373,
      "y": 296,
      "size": 1,
      "price": "1011000000000000000000",
      "reserved": "",
      "salt": "0xf07f923386a0805260baeefa897ceb6bd8191e6916e5b062e554150fc049a1c3",
      "assetIds": []
    },
    {
      "x": 373,
      "y": 297,
      "size": 1,
      "price": "1011000000000000000000",
      "reserved": "",
      "salt": "0x0f1a486e1f67737c62e970c5acac4bea90c2e0a6821f7c84edb9dd37fcfb8d45",
      "assetIds": []
    },
    {
      "x": 373,
      "y": 298,
      "size": 1,
      "price": "1011000000000000000000",
      "reserved": "",
      "salt": "0x6c690cd6e8384caf0456af16599818b7770615fbbaae029e1a2ddf39fcbc929e",
      "assetIds": []
    },
    {
      "x": 373,
      "y": 299,
      "size": 1,
      "price": "1011000000000000000000",
      "reserved": "",
      "salt": "0x07ff94efb2f0a65cc8152dd81fbd3e5ef5f13735a19e311626fdd4e0e1900a96",
      "assetIds": []
    },
    {
      "x": 373,
      "y": 300,
      "size": 1,
      "price": "1011000000000000000000",
      "reserved": "",
      "salt": "0xbb0b493f637ccb1f8ccfa5992709938d6fa160a085a6c37827b5ca7bfb7f6f0c",
      "assetIds": []
    },
    {
      "x": 373,
      "y": 301,
      "size": 1,
      "price": "1011000000000000000000",
      "reserved": "",
      "salt": "0x7a82846fd6254bb8ebb95d4458da695033a8fc34ac57c977c7c62fb031be2c60",
      "assetIds": []
    },
    {
      "x": 373,
      "y": 302,
      "size": 1,
      "price": "1011000000000000000000",
      "reserved": "",
      "salt": "0x4bb7e0491b25eb73f746b486535783e17f7b02861b144cb71a6577925caccda8",
      "assetIds": []
    },
    {
      "x": 373,
      "y": 303,
      "size": 1,
      "price": "1011000000000000000000",
      "reserved": "",
      "salt": "0x73b8ed050bad92902c45b0ae153182150d616ae06c03fb96a4d160a2adb2b2ae",
      "assetIds": []
    },
    {
      "x": 373,
      "y": 304,
      "size": 1,
      "price": "1011000000000000000000",
      "reserved": "",
      "salt": "0x7eebe14e59213cdf0f569f6f8ae5744fe7903b302a3bd1bbea2e3a7b1442d501",
      "assetIds": []
    },
    {
      "x": 373,
      "y": 305,
      "size": 1,
      "price": "1011000000000000000000",
      "reserved": "",
      "salt": "0xc462c65a3e3c345ce56363318c853bffa89334484d527e0818a0dd0204b6a0f0",
      "assetIds": []
    },
    {
      "x": 374,
      "y": 231,
      "size": 1,
      "price": "1011000000000000000000",
      "reserved": "",
      "salt": "0xe9b60a9e20b31fec2eb0c12ddb6d735d51cc2197bc0ee730606500690d4c634f",
      "assetIds": []
    },
    {
      "x": 374,
      "y": 232,
      "size": 1,
      "price": "1011000000000000000000",
      "reserved": "",
      "salt": "0x1dd662fe03899cc8e2fb446006f419cdf70ca04393b1af4c06de41f1d69a32a3",
      "assetIds": []
    },
    {
      "x": 374,
      "y": 233,
      "size": 1,
      "price": "1011000000000000000000",
      "reserved": "",
      "salt": "0x7f21144420efdec6e7e57e5ea0cf7ec897d93ccc716d036a896bd8a877516d09",
      "assetIds": []
    },
    {
      "x": 374,
      "y": 276,
      "size": 1,
      "price": "1011000000000000000000",
      "reserved": "",
      "salt": "0xb1ac72cfe4e9b1ea41f16152c15cf49a0d146be805406ba7985c5a901a7fb437",
      "assetIds": []
    },
    {
      "x": 374,
      "y": 277,
      "size": 1,
      "price": "1011000000000000000000",
      "reserved": "",
      "salt": "0xa1d3909e2e35102ca3ecc5486a006de1dc0c90155f1da074312ddb72744336c1",
      "assetIds": []
    },
    {
      "x": 374,
      "y": 278,
      "size": 1,
      "price": "1011000000000000000000",
      "reserved": "",
      "salt": "0x251a179362a89f0b509f50a9537e9610f25f1997c50fc33a6d47c9b08cbf05c9",
      "assetIds": []
    },
    {
      "x": 374,
      "y": 279,
      "size": 1,
      "price": "1011000000000000000000",
      "reserved": "",
      "salt": "0xe991d1f13038d7be1f7052552d04cb5325033b6a50704c3bc9c98eced4befaed",
      "assetIds": []
    },
    {
      "x": 374,
      "y": 280,
      "size": 1,
      "price": "1011000000000000000000",
      "reserved": "",
      "salt": "0xbcb8f92d50df85a9227fa934ce62cdc03171e9fb35911b3e3c37f4883f3bc0b4",
      "assetIds": []
    },
    {
      "x": 374,
      "y": 281,
      "size": 1,
      "price": "1011000000000000000000",
      "reserved": "",
      "salt": "0x3ed4f4564ad47ffc32f14eabc70ad9b01eb4b8b9dcb320f91f958fe8af3992af",
      "assetIds": []
    },
    {
      "x": 374,
      "y": 288,
      "size": 1,
      "price": "1011000000000000000000",
      "reserved": "",
      "salt": "0xe66bbb5c03c8d9141abbfcad91ce8fcd089bfc3ad28c98c58c1da84c46464628",
      "assetIds": []
    },
    {
      "x": 374,
      "y": 289,
      "size": 1,
      "price": "1011000000000000000000",
      "reserved": "",
      "salt": "0x8134bb9ff81f3faf8fe1c4b952d0a17a46274b93d6e7fd497be5f759e1cd0264",
      "assetIds": []
    },
    {
      "x": 374,
      "y": 290,
      "size": 1,
      "price": "1011000000000000000000",
      "reserved": "",
      "salt": "0x02facf562b99f14c70d04c37184543f7ee262a7c7fe61aec2dfce3bf48c58300",
      "assetIds": []
    },
    {
      "x": 374,
      "y": 291,
      "size": 1,
      "price": "1011000000000000000000",
      "reserved": "",
      "salt": "0xd876552bbdbd34c569730d1b8ad5d48588ca7618f147eece088c2dd64fc82a24",
      "assetIds": []
    },
    {
      "x": 374,
      "y": 292,
      "size": 1,
      "price": "1011000000000000000000",
      "reserved": "",
      "salt": "0x90768fa9f7dc719f01686aa304917d10bd0b3b9c8701f152587a1f9aa598df9f",
      "assetIds": []
    },
    {
      "x": 374,
      "y": 293,
      "size": 1,
      "price": "1011000000000000000000",
      "reserved": "",
      "salt": "0x3d594338ef7f12cd71e9a90db00d1fa4632728083513d4d552c06b004fca73c7",
      "assetIds": []
    },
    {
      "x": 374,
      "y": 294,
      "size": 1,
      "price": "1011000000000000000000",
      "reserved": "",
      "salt": "0x6cca73bc12650324225c497f347a8797c3ba6a6e960e5de84d973eeab3643231",
      "assetIds": []
    },
    {
      "x": 374,
      "y": 295,
      "size": 1,
      "price": "1011000000000000000000",
      "reserved": "",
      "salt": "0xb6dc6b088f13a7aa26abda860bee14ba76af0c1c686eca3732de7214d734bbfa",
      "assetIds": []
    },
    {
      "x": 374,
      "y": 296,
      "size": 1,
      "price": "1011000000000000000000",
      "reserved": "",
      "salt": "0xb4065fd97b45950b59daaaf1edd0dcb7047b4d9d39f1ee11e052b68d49dce022",
      "assetIds": []
    },
    {
      "x": 374,
      "y": 297,
      "size": 1,
      "price": "1011000000000000000000",
      "reserved": "",
      "salt": "0xf2a1a4ad9e93b02983664020922a350d2231c216bc3ece47785732f01c01cc73",
      "assetIds": []
    },
    {
      "x": 374,
      "y": 298,
      "size": 1,
      "price": "1011000000000000000000",
      "reserved": "0x7a9fe22691c811ea339d9b73150e6911a5343dca",
      "salt": "0x8885e1cf1988d40a1b2f128e4603a47c4f2b9460f93cacf1b598cfa8522d2a4a",
      "assetIds": []
    },
    {
      "x": 374,
      "y": 299,
      "size": 1,
      "price": "1011000000000000000000",
      "reserved": "",
      "salt": "0xaa40e2278390ecc81e55c3e5696972f4b45eff9d00117d623efb480d5f6d44b8",
      "assetIds": []
    },
    {
      "x": 374,
      "y": 300,
      "size": 1,
      "price": "1011000000000000000000",
      "reserved": "",
      "salt": "0xf26de0702c0e1df6c35feb3076388b75d67dcd56d8fd5ada54f108e6c2416942",
      "assetIds": []
    },
    {
      "x": 374,
      "y": 301,
      "size": 1,
      "price": "1011000000000000000000",
      "reserved": "",
      "salt": "0x9a49efee751d9031ba9e9263928458af490054068c5c01706df72fabc6478479",
      "assetIds": []
    },
    {
      "x": 374,
      "y": 302,
      "size": 1,
      "price": "1011000000000000000000",
      "reserved": "",
      "salt": "0x96bcddd861f082f086c4bdf35af5f624ab6a7d05b62fd5ac1b639a4e5cd4451e",
      "assetIds": []
    },
    {
      "x": 374,
      "y": 303,
      "size": 1,
      "price": "1011000000000000000000",
      "reserved": "",
      "salt": "0x1a5235a9f25dff1b70f47d7133a86e53a7c23a632ceb15bb7c061a80346a653d",
      "assetIds": []
    },
    {
      "x": 374,
      "y": 304,
      "size": 1,
      "price": "1011000000000000000000",
      "reserved": "0x7a9fe22691c811ea339d9b73150e6911a5343dca",
      "salt": "0xaa1e01bf7da1c16229c803021186afc8ea528e39390f6a4dbe174e3495458c8a",
      "assetIds": []
    },
    {
      "x": 374,
      "y": 305,
      "size": 1,
      "price": "1011000000000000000000",
      "reserved": "",
      "salt": "0x237fe59fcdd4b95c902c93a679eaa15354e9ffc479322f823481af767ee7555e",
      "assetIds": []
    },
    {
      "x": 375,
      "y": 231,
      "size": 1,
      "price": "1011000000000000000000",
      "reserved": "",
      "salt": "0x85839b6330d14d9f72b5258f93d604b9d62a2839a803180f51871c6ca2a53362",
      "assetIds": []
    },
    {
      "x": 375,
      "y": 232,
      "size": 1,
      "price": "1011000000000000000000",
      "reserved": "",
      "salt": "0x212db35578d489cbe8c7cfda6239ded88cf197fb9b19e97757d769e345e6d04d",
      "assetIds": []
    },
    {
      "x": 375,
      "y": 233,
      "size": 1,
      "price": "1011000000000000000000",
      "reserved": "",
      "salt": "0x8f92745531724243db20f0e7c53534a7c8c97c26a14a6ddded0dfb7717cf635f",
      "assetIds": []
    },
    {
      "x": 375,
      "y": 276,
      "size": 1,
      "price": "1011000000000000000000",
      "reserved": "",
      "salt": "0x1f62d9cb628cec0e21f779ac573f5cf86840494b367a9efaa6dce31a5fbf4f7c",
      "assetIds": []
    },
    {
      "x": 375,
      "y": 277,
      "size": 1,
      "price": "1011000000000000000000",
      "reserved": "",
      "salt": "0xef775cc6fadad3475f3b52f2e1b9df765d0e26a800e5cbf22c22bc5cdf2092e7",
      "assetIds": []
    },
    {
      "x": 375,
      "y": 278,
      "size": 1,
      "price": "1011000000000000000000",
      "reserved": "",
      "salt": "0x483bbc180bf487db0f1bd45a1b3b02cc8898a9e1186aafa6d9e571e5f9306e4c",
      "assetIds": []
    },
    {
      "x": 375,
      "y": 279,
      "size": 1,
      "price": "1011000000000000000000",
      "reserved": "",
      "salt": "0xb8888f441014a84640cd217eb2e834d06b2a636b57269164ee043795d41cb9b5",
      "assetIds": []
    },
    {
      "x": 375,
      "y": 280,
      "size": 1,
      "price": "1011000000000000000000",
      "reserved": "",
      "salt": "0xef5cb6b0601b751ee65a39ac2096addb0c4afd1856850439fa7a5447f38052c8",
      "assetIds": []
    },
    {
      "x": 375,
      "y": 281,
      "size": 1,
      "price": "1011000000000000000000",
      "reserved": "",
      "salt": "0xa07e684c0768f90ec4bacdaff2493a73ff559ac388471c76a9042fbbf6c16bf6",
      "assetIds": []
    },
    {
      "x": 375,
      "y": 288,
      "size": 1,
      "price": "1011000000000000000000",
      "reserved": "",
      "salt": "0x6bd028315bf10b3222702b623eb68cd59f0c2823cdd44bae9eba9eae058a928b",
      "assetIds": []
    },
    {
      "x": 375,
      "y": 289,
      "size": 1,
      "price": "1011000000000000000000",
      "reserved": "",
      "salt": "0x3398ed32597e59ef1e5e5c8cbdd0971e2da9d5c6ca11eff02bceb9cf9ad01f5e",
      "assetIds": []
    },
    {
      "x": 375,
      "y": 290,
      "size": 1,
      "price": "1011000000000000000000",
      "reserved": "",
      "salt": "0xe2073c1683ccf0785e8dcfce93c48800b1393c4be52dbd5437ef20cb66d625bb",
      "assetIds": []
    },
    {
      "x": 375,
      "y": 291,
      "size": 1,
      "price": "1011000000000000000000",
      "reserved": "",
      "salt": "0xf9a02291753e308a986d09a16dcea21214d77afe34ebc40872988faedc19e035",
      "assetIds": []
    },
    {
      "x": 375,
      "y": 292,
      "size": 1,
      "price": "1011000000000000000000",
      "reserved": "",
      "salt": "0xf371c12285de325bdac74d1a0eb1ea5f7af6e3f4e953dbeb2b72147e09768a1a",
      "assetIds": []
    },
    {
      "x": 375,
      "y": 293,
      "size": 1,
      "price": "1011000000000000000000",
      "reserved": "",
      "salt": "0x4382a2b6eaf7449d2eca6be987bd93f036d86164a72e0783a2c995d4715354cd",
      "assetIds": []
    },
    {
      "x": 375,
      "y": 294,
      "size": 1,
      "price": "1011000000000000000000",
      "reserved": "",
      "salt": "0xe3275aef7691793d254503f0e369dd34a130f7530f5562f8b60737986cb6bc0e",
      "assetIds": []
    },
    {
      "x": 375,
      "y": 295,
      "size": 1,
      "price": "1011000000000000000000",
      "reserved": "",
      "salt": "0xe7f58fb38fcef78a80dcf676a48743509d0a51c5c6f07188c7d6a64593865272",
      "assetIds": []
    },
    {
      "x": 375,
      "y": 296,
      "size": 1,
      "price": "1011000000000000000000",
      "reserved": "",
      "salt": "0xca33df3a7712772334e328d4d8cb550a007641911cbf5b5d134e6b561e366a54",
      "assetIds": []
    },
    {
      "x": 375,
      "y": 297,
      "size": 1,
      "price": "1011000000000000000000",
      "reserved": "",
      "salt": "0xf2c850d90c7ed7a71a37b76c22e52089ba2c911ef6364999a23f22622c654e3e",
      "assetIds": []
    },
    {
      "x": 375,
      "y": 298,
      "size": 1,
      "price": "1011000000000000000000",
      "reserved": "",
      "salt": "0xee855e40a95b8443c4b3d2f651231e9135fba698660f2f70e53bc8b5c5c9d5d7",
      "assetIds": []
    },
    {
      "x": 375,
      "y": 299,
      "size": 1,
      "price": "1011000000000000000000",
      "reserved": "",
      "salt": "0x9a9dcdb4fafbf852d3ef20ed49e7a6c3c2bb0b5356fe7a46c443333c245ecf23",
      "assetIds": []
    },
    {
      "x": 375,
      "y": 300,
      "size": 1,
      "price": "1011000000000000000000",
      "reserved": "",
      "salt": "0xdcdf508f93199846de07e99c99ed8652f601d9088690f3d059822e2180fbdb54",
      "assetIds": []
    },
    {
      "x": 375,
      "y": 301,
      "size": 1,
      "price": "1011000000000000000000",
      "reserved": "",
      "salt": "0x64b69b435b86819107cb63cdd8909834dd1bcb6ac66779031cbb1547b181e3e4",
      "assetIds": []
    },
    {
      "x": 375,
      "y": 302,
      "size": 1,
      "price": "1011000000000000000000",
      "reserved": "",
      "salt": "0x6eeb9784555afa0a39cb61b315121819174a6e512de8440601d3a7f0125b01a8",
      "assetIds": []
    },
    {
      "x": 375,
      "y": 303,
      "size": 1,
      "price": "1011000000000000000000",
      "reserved": "",
      "salt": "0xa14ba00b3b11d8f38d7be39a62954fc080faa408cb359dd4bfa31ae4cf933f91",
      "assetIds": []
    },
    {
      "x": 375,
      "y": 304,
      "size": 1,
      "price": "1011000000000000000000",
      "reserved": "",
      "salt": "0xd4acd9e673988783818802df50e8a8d6c3da4303b6319d539613752facdd47f0",
      "assetIds": []
    },
    {
      "x": 375,
      "y": 305,
      "size": 1,
      "price": "1011000000000000000000",
      "reserved": "",
      "salt": "0xc1be6be94af7ed350fc89c6d992cc6f253b812c85ba036c2c67159a54cec6a4d",
      "assetIds": []
    },
    {
      "x": 376,
      "y": 231,
      "size": 1,
      "price": "1011000000000000000000",
      "reserved": "",
      "salt": "0x88a138cafd53fa13eaa0b2c50b18efcd9c763445fb73dd6ee42167d96aa27316",
      "assetIds": []
    },
    {
      "x": 376,
      "y": 232,
      "size": 1,
      "price": "1011000000000000000000",
      "reserved": "",
      "salt": "0x3c0c7e477dd28ba7206a44e255eb1aebd11901c21e5a91269095527f9389d562",
      "assetIds": []
    },
    {
      "x": 376,
      "y": 233,
      "size": 1,
      "price": "1011000000000000000000",
      "reserved": "",
      "salt": "0x81db5272e4450677d1051e064f486fad7671fe626e3a84740aeae00defd9e927",
      "assetIds": []
    },
    {
      "x": 376,
      "y": 276,
      "size": 1,
      "price": "1011000000000000000000",
      "reserved": "",
      "salt": "0xada945aaa3a0eccbabfaeba0e9618fe77cc7758a4578bf1dd1f66756ab6e632d",
      "assetIds": []
    },
    {
      "x": 376,
      "y": 277,
      "size": 1,
      "price": "1011000000000000000000",
      "reserved": "",
      "salt": "0x09b08a585771e729c113953106502ea8d73948adccafafee910752f578af301f",
      "assetIds": []
    },
    {
      "x": 376,
      "y": 278,
      "size": 1,
      "price": "1011000000000000000000",
      "reserved": "",
      "salt": "0xca891f256d840c4dbce54519a096195d6d974adeb266e4e156aa3308e708dadc",
      "assetIds": []
    },
    {
      "x": 376,
      "y": 279,
      "size": 1,
      "price": "1011000000000000000000",
      "reserved": "",
      "salt": "0x0fea5fd5a8e405038c1d5bf395ce727955016bcf29768fac9b546208318f9761",
      "assetIds": []
    },
    {
      "x": 376,
      "y": 280,
      "size": 1,
      "price": "1011000000000000000000",
      "reserved": "",
      "salt": "0x72f39790092d9aab4d4c7ee26c7711082a768d421ca180c0904c3866bec0ffac",
      "assetIds": []
    },
    {
      "x": 376,
      "y": 281,
      "size": 1,
      "price": "1011000000000000000000",
      "reserved": "",
      "salt": "0x884761ca2e5fa295ec1bbac47ace18f81fcb07e174547f6456e91403779b1725",
      "assetIds": []
    },
    {
      "x": 376,
      "y": 288,
      "size": 1,
      "price": "1011000000000000000000",
      "reserved": "",
      "salt": "0x9dfa105b481b860a54d36fcf48929d8be8360dfbc384effaef0f3933ab3503bb",
      "assetIds": []
    },
    {
      "x": 376,
      "y": 289,
      "size": 1,
      "price": "1011000000000000000000",
      "reserved": "",
      "salt": "0x517a7629ad7365facbd3186501bf4d003089a4ea6e164a3b94f662d315e0c2c9",
      "assetIds": []
    },
    {
      "x": 376,
      "y": 290,
      "size": 1,
      "price": "1011000000000000000000",
      "reserved": "",
      "salt": "0x76b94737ac73a9ef0fa4fed84505bafb7282ce47a54bb386c97044b91b6d98f8",
      "assetIds": []
    },
    {
      "x": 376,
      "y": 291,
      "size": 1,
      "price": "1011000000000000000000",
      "reserved": "",
      "salt": "0xeb8d533e0299e2d4debc42fa765000fa2da78a1b6e1577d2878a2e27de499a62",
      "assetIds": []
    },
    {
      "x": 376,
      "y": 292,
      "size": 1,
      "price": "1011000000000000000000",
      "reserved": "",
      "salt": "0xa058b9ca97ef4e2c914e4d09e42d8d689cd1959b4601ad3f68a119cbfa619067",
      "assetIds": []
    },
    {
      "x": 376,
      "y": 293,
      "size": 1,
      "price": "1011000000000000000000",
      "reserved": "",
      "salt": "0x4a5d1cad96e4535e755805a4d716be9c234470837bcdfdd48ba526285e93b1f8",
      "assetIds": []
    },
    {
      "x": 376,
      "y": 294,
      "size": 1,
      "price": "1011000000000000000000",
      "reserved": "",
      "salt": "0x2ab1d5a3515f42d49b61918354e38c627fa37f47d7065d436d3e32ee5e570a47",
      "assetIds": []
    },
    {
      "x": 376,
      "y": 295,
      "size": 1,
      "price": "1011000000000000000000",
      "reserved": "",
      "salt": "0xe492cdd134a2732ce073a4535a3f517b573658364527c3fba647ba9d97dafdf9",
      "assetIds": []
    },
    {
      "x": 376,
      "y": 296,
      "size": 1,
      "price": "1011000000000000000000",
      "reserved": "",
      "salt": "0x343cde84b79bda8600dcd60781b6e48377fe82e0729025b767b3a10276efc199",
      "assetIds": []
    },
    {
      "x": 376,
      "y": 297,
      "size": 1,
      "price": "1011000000000000000000",
      "reserved": "",
      "salt": "0x825c447b1d387f5b2f4b255842335f1ec318e1879b2fd240583882a33a9fd5d5",
      "assetIds": []
    },
    {
      "x": 376,
      "y": 298,
      "size": 1,
      "price": "1011000000000000000000",
      "reserved": "",
      "salt": "0xb6fdbc17b04de99821aabe202621ddfce497b46cafeae82073f18328db6276be",
      "assetIds": []
    },
    {
      "x": 376,
      "y": 299,
      "size": 1,
      "price": "1011000000000000000000",
      "reserved": "",
      "salt": "0x92404f08c4346182c3868ba8264ff7d03ac57d2adf33166d024670f2b33f39f6",
      "assetIds": []
    },
    {
      "x": 376,
      "y": 300,
      "size": 1,
      "price": "1011000000000000000000",
      "reserved": "",
      "salt": "0x73d89bb5ba35a401209e8ed06f806bb01cab0925e1e5b5b7a94532b128bee414",
      "assetIds": []
    },
    {
      "x": 376,
      "y": 301,
      "size": 1,
      "price": "1011000000000000000000",
      "reserved": "",
      "salt": "0x56dc628d34370cb578e5abc204ef560bc742d1af2692f920010784de5670a4d9",
      "assetIds": []
    },
    {
      "x": 376,
      "y": 302,
      "size": 1,
      "price": "1011000000000000000000",
      "reserved": "",
      "salt": "0xab7387931ecf5e01aa32dd0d8b3092fbbbb83db498fb86d8aa5a899d364ed8f5",
      "assetIds": []
    },
    {
      "x": 376,
      "y": 303,
      "size": 1,
      "price": "1011000000000000000000",
      "reserved": "",
      "salt": "0x13866aa2651c4b4e54de7d12cc358a75514df5311029803ce54d2443dc8842e5",
      "assetIds": []
    },
    {
      "x": 376,
      "y": 304,
      "size": 1,
      "price": "1011000000000000000000",
      "reserved": "",
      "salt": "0xa8269210d9e96bfa5d773f4dc93df911dd1be333548fd8e01f75b2c942f07b50",
      "assetIds": []
    },
    {
      "x": 376,
      "y": 305,
      "size": 1,
      "price": "1011000000000000000000",
      "reserved": "",
      "salt": "0x825b38e39ee21bc13b20097e9849e6335409b6cfe3ee7e25ed075df79bcb9e06",
      "assetIds": []
    },
    {
      "x": 377,
      "y": 231,
      "size": 1,
      "price": "1011000000000000000000",
      "reserved": "",
      "salt": "0xe3a5c1e541c350d809c2ff9902dac9948e2df7693fe922244614a413acc5c452",
      "assetIds": []
    },
    {
      "x": 377,
      "y": 232,
      "size": 1,
      "price": "1011000000000000000000",
      "reserved": "",
      "salt": "0xca2298c1e9f9a853c0b47b3b30f1a2787da6af86014a04db7f666034277bc57d",
      "assetIds": []
    },
    {
      "x": 377,
      "y": 233,
      "size": 1,
      "price": "1011000000000000000000",
      "reserved": "",
      "salt": "0x537b056c78788c30a8bb59b3229931918e05f63208817c5cd83043abcc42118f",
      "assetIds": []
    },
    {
      "x": 377,
      "y": 276,
      "size": 1,
      "price": "1011000000000000000000",
      "reserved": "",
      "salt": "0x0a643b6b9dbfb681f9c220ebf4beeb3c1227db8e3ca44311e978bf2c3ab8150e",
      "assetIds": []
    },
    {
      "x": 377,
      "y": 277,
      "size": 1,
      "price": "1011000000000000000000",
      "reserved": "",
      "salt": "0xb1c6d985764fd0699009c282d5aa2c448655d3d9f064468c09e0b8f402f2fbf6",
      "assetIds": []
    },
    {
      "x": 377,
      "y": 278,
      "size": 1,
      "price": "1011000000000000000000",
      "reserved": "",
      "salt": "0x035dd7a5a65d297ea163b8bb804513020d0625e4269c0307fd2c6edaa17ceab4",
      "assetIds": []
    },
    {
      "x": 377,
      "y": 279,
      "size": 1,
      "price": "1011000000000000000000",
      "reserved": "",
      "salt": "0x8c11cf58f4dd3eaf19e3ed1e117eea77292f81ed6e3fc23dd7687af75a7be57d",
      "assetIds": []
    },
    {
      "x": 377,
      "y": 280,
      "size": 1,
      "price": "1011000000000000000000",
      "reserved": "",
      "salt": "0x5331aa91c3b282936d83489cbc63c9b1215b85ec05f71bf36a5d969bd360d0d4",
      "assetIds": []
    },
    {
      "x": 377,
      "y": 281,
      "size": 1,
      "price": "1011000000000000000000",
      "reserved": "",
      "salt": "0xb87bb183aa9fa18576e72f1cf618439f84a3582dd2bee50403c95ac2041180ec",
      "assetIds": []
    },
    {
      "x": 377,
      "y": 288,
      "size": 1,
      "price": "1011000000000000000000",
      "reserved": "",
      "salt": "0x28c361fc416b1ba909bdb8824908416c7972eec2dc62377cec69a1924a41180d",
      "assetIds": []
    },
    {
      "x": 377,
      "y": 289,
      "size": 1,
      "price": "1011000000000000000000",
      "reserved": "",
      "salt": "0xb4d560c0786d92bc483f2a455ba2f434ba7de492aa4f3b639d68f61519e36a5e",
      "assetIds": []
    },
    {
      "x": 377,
      "y": 290,
      "size": 1,
      "price": "1011000000000000000000",
      "reserved": "",
      "salt": "0xf5e87a6ceb6524852fda0ec468ff2a9a92d02223f3801c812d9a7588f454e338",
      "assetIds": []
    },
    {
      "x": 377,
      "y": 291,
      "size": 1,
      "price": "1011000000000000000000",
      "reserved": "",
      "salt": "0xc7f5ee4992cc55e9f46fb6fbdeff59fed7094e7a26f8ca429ff60cdb051dce50",
      "assetIds": []
    },
    {
      "x": 377,
      "y": 292,
      "size": 1,
      "price": "1011000000000000000000",
      "reserved": "",
      "salt": "0x79c44775d06fe1f745edd2148ffc322b1881bd79bc454b136802c6c6c0a062b4",
      "assetIds": []
    },
    {
      "x": 377,
      "y": 293,
      "size": 1,
      "price": "1011000000000000000000",
      "reserved": "",
      "salt": "0x318636ddc848469e34a28403325148deb180ee66fd7f2a0dc2a0d05218355f85",
      "assetIds": []
    },
    {
      "x": 377,
      "y": 294,
      "size": 1,
      "price": "1011000000000000000000",
      "reserved": "",
      "salt": "0xfef66317cf0c5bca52dd64b031b05608af6a32ee285e2cac1395fcb0d1ac9e76",
      "assetIds": []
    },
    {
      "x": 377,
      "y": 295,
      "size": 1,
      "price": "1011000000000000000000",
      "reserved": "",
      "salt": "0x8b82cd00ac6ebc0ddc62cdf27c1d8ff792f23fa8d6b3cfaf920d8dad5b462975",
      "assetIds": []
    },
    {
      "x": 377,
      "y": 296,
      "size": 1,
      "price": "1011000000000000000000",
      "reserved": "",
      "salt": "0x876d2922e38a8d15652937959423d10c4ddd17521d45fe297a4bc366c10a7bf1",
      "assetIds": []
    },
    {
      "x": 377,
      "y": 297,
      "size": 1,
      "price": "1011000000000000000000",
      "reserved": "",
      "salt": "0x4428909d05322f06376e6547e17317506071e9582fa7e146446a3eefb23d974b",
      "assetIds": []
    },
    {
      "x": 377,
      "y": 298,
      "size": 1,
      "price": "1011000000000000000000",
      "reserved": "",
      "salt": "0x5c63c3583ae1c4206b652453f276b0fc436351fb7dee8264d326f4f4a9ad9152",
      "assetIds": []
    },
    {
      "x": 377,
      "y": 299,
      "size": 1,
      "price": "1011000000000000000000",
      "reserved": "",
      "salt": "0x2d438791bb7d579066e9f660f5c0ccd4d7f628b10078ed703fe8b1ef28c515a7",
      "assetIds": []
    },
    {
      "x": 377,
      "y": 300,
      "size": 1,
      "price": "1011000000000000000000",
      "reserved": "",
      "salt": "0xcd3b1b9ddb170f3b91ea52aac5ba2a82de39532e200df58e75a7a309b2be740e",
      "assetIds": []
    },
    {
      "x": 377,
      "y": 301,
      "size": 1,
      "price": "1011000000000000000000",
      "reserved": "",
      "salt": "0x3c38274e59b2274e421698f6ec8e6961c20e2b52223cf414dbffb156985ca5d6",
      "assetIds": []
    },
    {
      "x": 377,
      "y": 302,
      "size": 1,
      "price": "1011000000000000000000",
      "reserved": "",
      "salt": "0xd1837b15c20f6eb25eec3d9921fbc57f56b407d72ecf9e5bccb13b6fdc46b4a3",
      "assetIds": []
    },
    {
      "x": 377,
      "y": 303,
      "size": 1,
      "price": "1011000000000000000000",
      "reserved": "",
      "salt": "0x4150c1ca8052090fdea0200194227722eeec070f23f10fa35fbd13cc1edd6e78",
      "assetIds": []
    },
    {
      "x": 377,
      "y": 304,
      "size": 1,
      "price": "1011000000000000000000",
      "reserved": "",
      "salt": "0x5cecfdd940ed76b693441d9c574293f81718af0cc92b83ac6e3557456012061f",
      "assetIds": []
    },
    {
      "x": 377,
      "y": 305,
      "size": 1,
      "price": "1011000000000000000000",
      "reserved": "",
      "salt": "0xee1a18951503c8d2cd83577c8b3b3d94b60e7486f694ce8ff35de3aaa034cf6e",
      "assetIds": []
    },
    {
      "x": 378,
      "y": 228,
      "size": 1,
      "price": "1011000000000000000000",
      "reserved": "",
      "salt": "0x7496da481f126098a9cdbbd5ba7537f58771f3b59dd68d2544430bacce4ade82",
      "assetIds": []
    },
    {
      "x": 378,
      "y": 229,
      "size": 1,
      "price": "1011000000000000000000",
      "reserved": "",
      "salt": "0x727a574fe6fe15d971a58ce23ec9ed2d9203db2267a18873b05e6d528eb16f8f",
      "assetIds": []
    },
    {
      "x": 378,
      "y": 230,
      "size": 1,
      "price": "1011000000000000000000",
      "reserved": "",
      "salt": "0x717baa18d18cf005cfa74fe80e113942d460a20f3cc8196c63c85866a4a5dee3",
      "assetIds": []
    },
    {
      "x": 378,
      "y": 234,
      "size": 1,
      "price": "1011000000000000000000",
      "reserved": "",
      "salt": "0x4305128a7b6f980a54609ebb660774765803e065d29597bb1f6db91f658df89e",
      "assetIds": []
    },
    {
      "x": 378,
      "y": 235,
      "size": 1,
      "price": "1011000000000000000000",
      "reserved": "",
      "salt": "0xa5144657b14d59f885b503d1d79e8f936ac1a53afbefcbbfe00964ecae3ae20d",
      "assetIds": []
    },
    {
      "x": 378,
      "y": 236,
      "size": 1,
      "price": "1011000000000000000000",
      "reserved": "",
      "salt": "0xf2baf4cfef4914084c06598f58aef8a5b2be977697b315b8bd88aa60838f756a",
      "assetIds": []
    },
    {
      "x": 378,
      "y": 237,
      "size": 1,
      "price": "1011000000000000000000",
      "reserved": "",
      "salt": "0xea9571cfc7ee2cd7fd8de15632eb7890a51447552787e13d75c093c5b3c7e870",
      "assetIds": []
    },
    {
      "x": 378,
      "y": 238,
      "size": 1,
      "price": "1011000000000000000000",
      "reserved": "",
      "salt": "0x9fa45a0a5e7e8ae65d263bf63bffafd10042d36c34cf33bca0ccbfb5f8d4d6a6",
      "assetIds": []
    },
    {
      "x": 378,
      "y": 239,
      "size": 1,
      "price": "1011000000000000000000",
      "reserved": "",
      "salt": "0xca7239c774b9593b3740bc6092bb51fd6bdd76f775e0f2937c52240f6b6afeb6",
      "assetIds": []
    },
    {
      "x": 378,
      "y": 282,
      "size": 1,
      "price": "1011000000000000000000",
      "reserved": "",
      "salt": "0xcb92fda9b93e1e055b757d77b807249d9359cb0c3f2e006966b314d50feb166f",
      "assetIds": []
    },
    {
      "x": 378,
      "y": 283,
      "size": 1,
      "price": "1011000000000000000000",
      "reserved": "",
      "salt": "0x1390d77c195c4e7738a877242468c3e78e3c4fcbd17b9bb94d2f6019abe05267",
      "assetIds": []
    },
    {
      "x": 378,
      "y": 284,
      "size": 1,
      "price": "1011000000000000000000",
      "reserved": "",
      "salt": "0xd37cd9d6f0c9f5a87218645653b921634f5920c146c69b4dd790c53989795aed",
      "assetIds": []
    },
    {
      "x": 378,
      "y": 288,
      "size": 1,
      "price": "1011000000000000000000",
      "reserved": "",
      "salt": "0x632cc2e10a99429b7dfef1dea5d4220d6961bf036db5ea59b902aa0d235eb24e",
      "assetIds": []
    },
    {
      "x": 378,
      "y": 289,
      "size": 1,
      "price": "1011000000000000000000",
      "reserved": "",
      "salt": "0x2d4a63b4d4a4dfef34b0f4eb0b87610c0a8b5a8dfef7ea8d7c20402e29155cee",
      "assetIds": []
    },
    {
      "x": 378,
      "y": 290,
      "size": 1,
      "price": "1011000000000000000000",
      "reserved": "",
      "salt": "0xecc2a3f1d8633ac456edb7603c6142053d1e612387e7c182e6693f4e9e72e5a7",
      "assetIds": []
    },
    {
      "x": 378,
      "y": 300,
      "size": 1,
      "price": "1011000000000000000000",
      "reserved": "",
      "salt": "0x20df13f953aaaf63dabef53b94951a5d558ac894c7e9f679bff5330d56e1345f",
      "assetIds": []
    },
    {
      "x": 378,
      "y": 301,
      "size": 1,
      "price": "1011000000000000000000",
      "reserved": "",
      "salt": "0x60d0469de103ef55ede7c2a89115c555503fff86a4823f0a4f31625d05ced322",
      "assetIds": []
    },
    {
      "x": 378,
      "y": 302,
      "size": 1,
      "price": "1011000000000000000000",
      "reserved": "",
      "salt": "0x9f6df5a574fc69b695d9fe455bc9b7107bc40da84727fa87c6ec9392961eb9e2",
      "assetIds": []
    },
    {
      "x": 378,
      "y": 303,
      "size": 1,
      "price": "1011000000000000000000",
      "reserved": "",
      "salt": "0xb21fb94fe7bcb558658af8055612999901cbc4ba618047254ab8b27d80a0aa99",
      "assetIds": []
    },
    {
      "x": 378,
      "y": 304,
      "size": 1,
      "price": "1011000000000000000000",
      "reserved": "",
      "salt": "0x1d33b37335579a9372b8d1221033cae1fbab641fb6721bca3805bc0aea426b9f",
      "assetIds": []
    },
    {
      "x": 378,
      "y": 305,
      "size": 1,
      "price": "1011000000000000000000",
      "reserved": "",
      "salt": "0x7c2c0610b79f22cc4589fa99acbe8b11bb9029037635b73100215faf481e1e2d",
      "assetIds": []
    },
    {
      "x": 379,
      "y": 228,
      "size": 1,
      "price": "1011000000000000000000",
      "reserved": "",
      "salt": "0x166e0dfdca0083e6d636c99927346e0111ce57f97c5218eba4b2c132e7608758",
      "assetIds": []
    },
    {
      "x": 379,
      "y": 229,
      "size": 1,
      "price": "1011000000000000000000",
      "reserved": "",
      "salt": "0x8f9706e6aff2efedc9ad6a1359e58ab6c8c21fb08850130dfba23be77f2f2255",
      "assetIds": []
    },
    {
      "x": 379,
      "y": 230,
      "size": 1,
      "price": "1011000000000000000000",
      "reserved": "",
      "salt": "0x2b22633b6e438a88a2169a465078d23b5b3120a1920f194fe86304d5e85a23bc",
      "assetIds": []
    },
    {
      "x": 379,
      "y": 234,
      "size": 1,
      "price": "1011000000000000000000",
      "reserved": "",
      "salt": "0xb1a65e3f7a9028f36a5b97f97607541475320be10fb2966cc55223cae6bc3198",
      "assetIds": []
    },
    {
      "x": 379,
      "y": 235,
      "size": 1,
      "price": "1011000000000000000000",
      "reserved": "",
      "salt": "0x87ea890e7a69ef0b24ce58430f1143cae07ec6adfbce1337a0a35d5413b7120f",
      "assetIds": []
    },
    {
      "x": 379,
      "y": 236,
      "size": 1,
      "price": "1011000000000000000000",
      "reserved": "",
      "salt": "0xff2bccf42aa2fa17af5f3b403498b8b477070665689e0fcea9aa209edc6a4a87",
      "assetIds": []
    },
    {
      "x": 379,
      "y": 237,
      "size": 1,
      "price": "1011000000000000000000",
      "reserved": "",
      "salt": "0x47dca33ffffca1d20742746b8e2657ee52190dbcc60fc89a122f84991c03e82c",
      "assetIds": []
    },
    {
      "x": 379,
      "y": 238,
      "size": 1,
      "price": "1011000000000000000000",
      "reserved": "",
      "salt": "0x2e504da38beea347d4a2eb7724416d661c41b32e6b843dc31825e562660429e2",
      "assetIds": []
    },
    {
      "x": 379,
      "y": 239,
      "size": 1,
      "price": "1011000000000000000000",
      "reserved": "",
      "salt": "0x1d035bc594bdd41419f1ac77f6bd0575d4ca59b5198d924d85cb0bd396a9f41b",
      "assetIds": []
    },
    {
      "x": 379,
      "y": 282,
      "size": 1,
      "price": "1011000000000000000000",
      "reserved": "",
      "salt": "0x7bb9b363f5fb02b59372e05e02029cd8bc010068e6d4e3987ddc3f81b33be45a",
      "assetIds": []
    },
    {
      "x": 379,
      "y": 283,
      "size": 1,
      "price": "1011000000000000000000",
      "reserved": "",
      "salt": "0x3758faf5497984250d009986c16a03182c21dcf4dfe1c705de38658341607473",
      "assetIds": []
    },
    {
      "x": 379,
      "y": 284,
      "size": 1,
      "price": "1011000000000000000000",
      "reserved": "",
      "salt": "0x23631b2e800b6620cc8e43e4ffab508e7b420416829d230209d0fba98d41c63a",
      "assetIds": []
    },
    {
      "x": 379,
      "y": 288,
      "size": 1,
      "price": "1011000000000000000000",
      "reserved": "",
      "salt": "0xed0910b3b27f103880c7516c1c4f34122dbfc22cf020cb760b6dcf6bba63aa2c",
      "assetIds": []
    },
    {
      "x": 379,
      "y": 289,
      "size": 1,
      "price": "1011000000000000000000",
      "reserved": "",
      "salt": "0xf692de300e2e0524039b5f4b3924d8c32519d37dc6fe4c148a5ca48535d10568",
      "assetIds": []
    },
    {
      "x": 379,
      "y": 290,
      "size": 1,
      "price": "1011000000000000000000",
      "reserved": "",
      "salt": "0x64410ecafe6ac39e7c1bda87fc841e141bcfe0b705c513efac3cd80fe82b0a8a",
      "assetIds": []
    },
    {
      "x": 379,
      "y": 300,
      "size": 1,
      "price": "1011000000000000000000",
      "reserved": "",
      "salt": "0xd40a139b17e0b40b244f6d59fa89248a3250eeeae2ca625241940a124e87c30d",
      "assetIds": []
    },
    {
      "x": 379,
      "y": 301,
      "size": 1,
      "price": "1011000000000000000000",
      "reserved": "",
      "salt": "0x8adbec06bd1749e4305983bf6c8249415fcf1130b62b88f751990ce69c2f21c6",
      "assetIds": []
    },
    {
      "x": 379,
      "y": 302,
      "size": 1,
      "price": "1011000000000000000000",
      "reserved": "",
      "salt": "0x0470a5da941311e742b25bd775f19e23977e0c4f5c3487ba6d36c2fa738bea68",
      "assetIds": []
    },
    {
      "x": 379,
      "y": 303,
      "size": 1,
      "price": "1011000000000000000000",
      "reserved": "",
      "salt": "0x17ea1d9e85b2c61564fd1623b2bf170da767d36516ac9278ce18ea648730c696",
      "assetIds": []
    },
    {
      "x": 379,
      "y": 304,
      "size": 1,
      "price": "1011000000000000000000",
      "reserved": "",
      "salt": "0xf628cf1c4be01f01b6d49f7f40535d98740a066d88c93578325f7ccc357876a4",
      "assetIds": []
    },
    {
      "x": 379,
      "y": 305,
      "size": 1,
      "price": "1011000000000000000000",
      "reserved": "",
      "salt": "0x777f0fd8b454e0029644c16d42596f549d0884e659702c69029f59fe6f7dab1f",
      "assetIds": []
    },
    {
      "x": 380,
      "y": 228,
      "size": 1,
      "price": "1011000000000000000000",
      "reserved": "",
      "salt": "0x24f20e24648c85193314f416a1f278b27ae65a69b585a9450e9de98fbff43da0",
      "assetIds": []
    },
    {
      "x": 380,
      "y": 229,
      "size": 1,
      "price": "1011000000000000000000",
      "reserved": "",
      "salt": "0x87bc97d554b6df454ef02b9d0b1159492c4fbb6166efd9396ac4e72695484216",
      "assetIds": []
    },
    {
      "x": 380,
      "y": 230,
      "size": 1,
      "price": "1011000000000000000000",
      "reserved": "",
      "salt": "0xd868ad2e2f022a1ced4ac9c6a6feacaa49ce5cb44003012a7c7ae2920db25ee9",
      "assetIds": []
    },
    {
      "x": 380,
      "y": 234,
      "size": 1,
      "price": "1011000000000000000000",
      "reserved": "",
      "salt": "0x553002f30ebe27e5cadc2d38aba859f79b4427cdb454032822b30bf1e9f51154",
      "assetIds": []
    },
    {
      "x": 380,
      "y": 235,
      "size": 1,
      "price": "1011000000000000000000",
      "reserved": "",
      "salt": "0x29d5f1a5cb08afe25a03ecfb7ac4098154e55797f757c0be570780fc956a3e6d",
      "assetIds": []
    },
    {
      "x": 380,
      "y": 236,
      "size": 1,
      "price": "1011000000000000000000",
      "reserved": "",
      "salt": "0x015c429a98ebd8ba688c88df929cb88a699b3a3724dc074dbdc9b59582e2bf07",
      "assetIds": []
    },
    {
      "x": 380,
      "y": 237,
      "size": 1,
      "price": "1011000000000000000000",
      "reserved": "",
      "salt": "0x0fdb45131e5f613ea46478d7205312ce04de9ad4823cee653dab22d8d5cab3a8",
      "assetIds": []
    },
    {
      "x": 380,
      "y": 238,
      "size": 1,
      "price": "1011000000000000000000",
      "reserved": "",
      "salt": "0xce969df2de87aff73a2db03c27aa11f36cb065393f3e820b3f92412ed15800d6",
      "assetIds": []
    },
    {
      "x": 380,
      "y": 239,
      "size": 1,
      "price": "1011000000000000000000",
      "reserved": "",
      "salt": "0xc0f782ef6e543e40569291d9e7c36b51f849de8823645d335d84042ed2835361",
      "assetIds": []
    },
    {
      "x": 380,
      "y": 282,
      "size": 1,
      "price": "1011000000000000000000",
      "reserved": "",
      "salt": "0x8b912389b3bc6fc7d01311e78c14ca0b9b2b0ba69798def6831ef008a85fcd6f",
      "assetIds": []
    },
    {
      "x": 380,
      "y": 283,
      "size": 1,
      "price": "1011000000000000000000",
      "reserved": "",
      "salt": "0x7499b0d4ea0b9f3f714eeaef6ae530a5f39651aa18b0c97642fa54c862546f7b",
      "assetIds": []
    },
    {
      "x": 380,
      "y": 284,
      "size": 1,
      "price": "1011000000000000000000",
      "reserved": "",
      "salt": "0x774236da8ba6fe748453f27c604b89fdaea980db1e9a63049eab14e50a09acd5",
      "assetIds": []
    },
    {
      "x": 380,
      "y": 288,
      "size": 1,
      "price": "1011000000000000000000",
      "reserved": "",
      "salt": "0xc32a8afe125c63a69b2295706ef4d412dcb8a1e536887a8c7bddde0cd9eab6db",
      "assetIds": []
    },
    {
      "x": 380,
      "y": 289,
      "size": 1,
      "price": "1011000000000000000000",
      "reserved": "",
      "salt": "0x967342fbf3fea0a9aab46cbbc2eae55985b372e8b458acbb9ccff889cd557ad1",
      "assetIds": []
    },
    {
      "x": 380,
      "y": 290,
      "size": 1,
      "price": "1011000000000000000000",
      "reserved": "",
      "salt": "0x8b882b9414056d73191bdf20e025a65081c05b4268ea49e642a0d99c67e050ec",
      "assetIds": []
    },
    {
      "x": 380,
      "y": 300,
      "size": 1,
      "price": "1011000000000000000000",
      "reserved": "",
      "salt": "0x0a99ba50f226c2b6a7cfd2578d25dceb610f635b1d01f1579050429154d6f0c6",
      "assetIds": []
    },
    {
      "x": 380,
      "y": 301,
      "size": 1,
      "price": "1011000000000000000000",
      "reserved": "",
      "salt": "0xe60a437a1b63d0a9118d4c69d7f4210ae9cf2a2c4f8d9a0ccee7faa915b0aa55",
      "assetIds": []
    },
    {
      "x": 380,
      "y": 302,
      "size": 1,
      "price": "1011000000000000000000",
      "reserved": "0x7a9fe22691c811ea339d9b73150e6911a5343dca",
      "salt": "0xfdfce0ff32599599ee0c25e019573483fe2b3727221e5325ad61f73aa23f3c4a",
      "assetIds": []
    },
    {
      "x": 380,
      "y": 303,
      "size": 1,
      "price": "1011000000000000000000",
      "reserved": "",
      "salt": "0x9ad8111b7f3db2274fbe5246781ce8280385829a539a20f169489347d9e2b434",
      "assetIds": []
    },
    {
      "x": 380,
      "y": 304,
      "size": 1,
      "price": "1011000000000000000000",
      "reserved": "",
      "salt": "0x5e1ceeb0638759d4d57020c20a0a72b6f88a482a21e642fae9c9eb7789b619d5",
      "assetIds": []
    },
    {
      "x": 380,
      "y": 305,
      "size": 1,
      "price": "1011000000000000000000",
      "reserved": "",
      "salt": "0xaa7dda33f5b2033ba968b2c09343c8778f086991fdc643b3be4a7766aa83e19e",
      "assetIds": []
    },
    {
      "x": 381,
      "y": 228,
      "size": 1,
      "price": "1011000000000000000000",
      "reserved": "",
      "salt": "0xbd89ec25c4fd111eb6062eec131b356fc417f098f4b75bdbfd88de99d6ff436d",
      "assetIds": []
    },
    {
      "x": 381,
      "y": 229,
      "size": 1,
      "price": "1011000000000000000000",
      "reserved": "",
      "salt": "0xf0cc7e0aaf7a1505fad9b83d3ba081874d40990c02cc1549fa33a31331641b3b",
      "assetIds": []
    },
    {
      "x": 381,
      "y": 230,
      "size": 1,
      "price": "1011000000000000000000",
      "reserved": "",
      "salt": "0xb5f0cb94c98dd6e6f6eb791ef17af2423d7c36fc5c62bf08108c59eb1c6c3e93",
      "assetIds": []
    },
    {
      "x": 381,
      "y": 231,
      "size": 1,
      "price": "1011000000000000000000",
      "reserved": "",
      "salt": "0x105630671de03b57e2ead2d25983be61dce371dd1c50b559f6fd5f3fb1bddc4d",
      "assetIds": []
    },
    {
      "x": 381,
      "y": 232,
      "size": 1,
      "price": "1011000000000000000000",
      "reserved": "",
      "salt": "0x127d55d63f92ad60afba2c92701cf9bb24ebe8b57841c1ac8c5da71f3c0cba00",
      "assetIds": []
    },
    {
      "x": 381,
      "y": 233,
      "size": 1,
      "price": "1011000000000000000000",
      "reserved": "",
      "salt": "0x13fd808b57261dbfce8c4d27cf16965f2b4fa4c6a0890bffbf653c5253b664ba",
      "assetIds": []
    },
    {
      "x": 381,
      "y": 234,
      "size": 1,
      "price": "1011000000000000000000",
      "reserved": "",
      "salt": "0x14b3aa72bb59e3b02a601864baafc903acf44cae9c6e6e627ead7c81d0be274a",
      "assetIds": []
    },
    {
      "x": 381,
      "y": 235,
      "size": 1,
      "price": "1011000000000000000000",
      "reserved": "",
      "salt": "0xac10ac8563e203b07be07304c7834e12c14106f9dc01c9a5994c9f982ef91009",
      "assetIds": []
    },
    {
      "x": 381,
      "y": 236,
      "size": 1,
      "price": "1011000000000000000000",
      "reserved": "0x7a9fe22691c811ea339d9b73150e6911a5343dca",
      "salt": "0xa2d60acd7562db4ed28171486211ddc59b766e49a6dadf9ed5f757f98716e929",
      "assetIds": []
    },
    {
      "x": 381,
      "y": 237,
      "size": 1,
      "price": "1011000000000000000000",
      "reserved": "",
      "salt": "0x9835de4655a19c0a540713db1011daf097399b439b5a9ab827f0bf15a53bd1a4",
      "assetIds": []
    },
    {
      "x": 381,
      "y": 238,
      "size": 1,
      "price": "1011000000000000000000",
      "reserved": "",
      "salt": "0xbc11f42e68d99526b0125d9517c335830dc9ad97e6099f946cfaa9786bab4915",
      "assetIds": []
    },
    {
      "x": 381,
      "y": 239,
      "size": 1,
      "price": "1011000000000000000000",
      "reserved": "",
      "salt": "0xb7f7c89f89c93093ccd0a8c5f20606804bfd3d684bd4891555a3a2082e54b2ad",
      "assetIds": []
    },
    {
      "x": 381,
      "y": 282,
      "size": 1,
      "price": "1011000000000000000000",
      "reserved": "",
      "salt": "0x450c3c0fdff41c20c0cb1440c57c1bbfe5105c919819e7d25abcd4734988178c",
      "assetIds": []
    },
    {
      "x": 381,
      "y": 283,
      "size": 1,
      "price": "1011000000000000000000",
      "reserved": "",
      "salt": "0x2e3630a6fad941074011751e30b93e0e8b6ec51cb72de45947e43a9fccae9627",
      "assetIds": []
    },
    {
      "x": 381,
      "y": 284,
      "size": 1,
      "price": "1011000000000000000000",
      "reserved": "",
      "salt": "0x293669c0af610ea64c19093aec2b6f9c84838b5b80963448cb982d12673800f7",
      "assetIds": []
    },
    {
      "x": 381,
      "y": 288,
      "size": 1,
      "price": "1011000000000000000000",
      "reserved": "",
      "salt": "0xb34345a8bdaf5f5cb80c6d1c8077f8cbe803769b5249e215b22751c133fcbe1f",
      "assetIds": []
    },
    {
      "x": 381,
      "y": 289,
      "size": 1,
      "price": "1011000000000000000000",
      "reserved": "",
      "salt": "0x827ebe7390087887e52760e4bfc6c7516366da86df4f27d1dd41b3cf4d1107d2",
      "assetIds": []
    },
    {
      "x": 381,
      "y": 290,
      "size": 1,
      "price": "1011000000000000000000",
      "reserved": "",
      "salt": "0xa9b7c8ad8eeffbc1232b936ab3cb0d1ab5362e6b33c5ca01625c737ee1f229e6",
      "assetIds": []
    },
    {
      "x": 381,
      "y": 291,
      "size": 1,
      "price": "1011000000000000000000",
      "reserved": "",
      "salt": "0x787a94b0fc59f8439939d83734007e76cabb9bda971a65ed21fc310423df3bae",
      "assetIds": []
    },
    {
      "x": 381,
      "y": 292,
      "size": 1,
      "price": "1011000000000000000000",
      "reserved": "",
      "salt": "0x9e568fcc082a3c8a2f4412805d227f5adeccf99a90825f8c387fdbb44284c581",
      "assetIds": []
    },
    {
      "x": 381,
      "y": 293,
      "size": 1,
      "price": "1011000000000000000000",
      "reserved": "",
      "salt": "0xb564f65711ecacb8b28ba621cd8c9e20223c8a16bc8fe19597593cfe27f8dec5",
      "assetIds": []
    },
    {
      "x": 381,
      "y": 300,
      "size": 1,
      "price": "1011000000000000000000",
      "reserved": "",
      "salt": "0x1693858c6ad36d8e8d8b61f88d7813e379952fd040983cef94b630cad6b8f6ef",
      "assetIds": []
    },
    {
      "x": 381,
      "y": 301,
      "size": 1,
      "price": "1011000000000000000000",
      "reserved": "",
      "salt": "0x4c31e72dcd998e362bdf81474a754cb240c7014265c7e0b70f3e644afec40549",
      "assetIds": []
    },
    {
      "x": 381,
      "y": 302,
      "size": 1,
      "price": "1011000000000000000000",
      "reserved": "",
      "salt": "0x2f6e51ba1051f2453dc10766526cb9ffe37fa5ec1bebb7aa5fe7946ee782014e",
      "assetIds": []
    },
    {
      "x": 381,
      "y": 303,
      "size": 1,
      "price": "1011000000000000000000",
      "reserved": "",
      "salt": "0xf8692bb98a5eafed69e8a87e8b29fa83d3a0e06fe8f9ed3b90517e723f02babb",
      "assetIds": []
    },
    {
      "x": 381,
      "y": 304,
      "size": 1,
      "price": "1011000000000000000000",
      "reserved": "",
      "salt": "0x41885423872140aa579bcbbfce5a678ada0d03cbb9056a3abf31e339a1143a2b",
      "assetIds": []
    },
    {
      "x": 381,
      "y": 305,
      "size": 1,
      "price": "1011000000000000000000",
      "reserved": "",
      "salt": "0xd1d6c7d8fc099fded2c8f603d249a2bf1d599ae3a5f31ac3346cf640a3173716",
      "assetIds": []
    },
    {
      "x": 382,
      "y": 228,
      "size": 1,
      "price": "1011000000000000000000",
      "reserved": "",
      "salt": "0x21d896b2a12f88ab943ff564b3127504b739147cb665af020cfe63e50d0760a4",
      "assetIds": []
    },
    {
      "x": 382,
      "y": 229,
      "size": 1,
      "price": "1011000000000000000000",
      "reserved": "",
      "salt": "0x2242c56db8aa05343a7792e4abb1a018abb015c0e4fd5ff3edb1d4006b00e5b5",
      "assetIds": []
    },
    {
      "x": 382,
      "y": 230,
      "size": 1,
      "price": "1011000000000000000000",
      "reserved": "",
      "salt": "0x14514765b20f2fe04c8ab360382658f300aaa00c4829177e55f801b9b2f117b8",
      "assetIds": []
    },
    {
      "x": 382,
      "y": 231,
      "size": 1,
      "price": "1011000000000000000000",
      "reserved": "",
      "salt": "0xb48d302765ff68984209293a2d69c16cef726e0c0ca99a76bb283753aac77dd1",
      "assetIds": []
    },
    {
      "x": 382,
      "y": 232,
      "size": 1,
      "price": "1011000000000000000000",
      "reserved": "",
      "salt": "0x29ff20484e5ec9d72e5c3299c53acd8975a7bd2bc1ff1f69667ff17d462abf39",
      "assetIds": []
    },
    {
      "x": 382,
      "y": 233,
      "size": 1,
      "price": "1011000000000000000000",
      "reserved": "",
      "salt": "0x63245686a36434aadbf7ff719ff6bbac0b26c0fa0155dfc38dc66d393f508f97",
      "assetIds": []
    },
    {
      "x": 382,
      "y": 234,
      "size": 1,
      "price": "1011000000000000000000",
      "reserved": "",
      "salt": "0x9e54e2be0687f44029b5816caba8a884d24508964477927abd48a61dd55bc139",
      "assetIds": []
    },
    {
      "x": 382,
      "y": 235,
      "size": 1,
      "price": "1011000000000000000000",
      "reserved": "",
      "salt": "0x898fccf91b993e1860ab4329cf5f64dc39b546d8c3527dc81842c7d697078993",
      "assetIds": []
    },
    {
      "x": 382,
      "y": 236,
      "size": 1,
      "price": "1011000000000000000000",
      "reserved": "",
      "salt": "0x40c704d3e9e052fbad86fd05ce97b0dfdc02673e83b974561c3977357d4e920a",
      "assetIds": []
    },
    {
      "x": 382,
      "y": 237,
      "size": 1,
      "price": "1011000000000000000000",
      "reserved": "",
      "salt": "0xb35f3eddf5d86821f000fecbe11e2ec61c8d10035808e9e5014f851ed0bb2b9a",
      "assetIds": []
    },
    {
      "x": 382,
      "y": 238,
      "size": 1,
      "price": "1011000000000000000000",
      "reserved": "",
      "salt": "0xed9361592536adbd2f59cc8cb7e97654b4f002a28eef86c3a458b0167bc62d41",
      "assetIds": []
    },
    {
      "x": 382,
      "y": 239,
      "size": 1,
      "price": "1011000000000000000000",
      "reserved": "",
      "salt": "0xc7b47e63222133c60892e480413e07806862fc62ee70bdfadf74c6faafae5973",
      "assetIds": []
    },
    {
      "x": 382,
      "y": 282,
      "size": 1,
      "price": "1011000000000000000000",
      "reserved": "",
      "salt": "0x6167ca872914622ac8f8144584f58d68e2d138918653444ae8d7ac3f02907b59",
      "assetIds": []
    },
    {
      "x": 382,
      "y": 283,
      "size": 1,
      "price": "1011000000000000000000",
      "reserved": "0x7a9fe22691c811ea339d9b73150e6911a5343dca",
      "salt": "0xe31b78015c83ab19c504df2f7f58c1db9c97ae84cb740f8820021df314287700",
      "assetIds": []
    },
    {
      "x": 382,
      "y": 284,
      "size": 1,
      "price": "1011000000000000000000",
      "reserved": "",
      "salt": "0xc26a0793bbfde40fec237bdc497c47f3b55888ce12331441be6258a4680be02a",
      "assetIds": []
    },
    {
      "x": 382,
      "y": 288,
      "size": 1,
      "price": "1011000000000000000000",
      "reserved": "",
      "salt": "0x458970240e7bd5a17824e5e24117fced5225deefd87be93b4db74b727d61315f",
      "assetIds": []
    },
    {
      "x": 382,
      "y": 289,
      "size": 1,
      "price": "1011000000000000000000",
      "reserved": "",
      "salt": "0xecddb0f583ea2c4f0dd1b935ce34766efeac28979bc638fe29e1afdbbc8e6cc4",
      "assetIds": []
    },
    {
      "x": 382,
      "y": 290,
      "size": 1,
      "price": "1011000000000000000000",
      "reserved": "",
      "salt": "0x3eb3928cc97ab44aceda38f35316514090e42ebf711f44306755df795aec943f",
      "assetIds": []
    },
    {
      "x": 382,
      "y": 291,
      "size": 1,
      "price": "1011000000000000000000",
      "reserved": "",
      "salt": "0x9b1585ff28abbc75a98bf3348a3f8b0bf8850e4d0baac7db7f8a8ee51571fb2d",
      "assetIds": []
    },
    {
      "x": 382,
      "y": 292,
      "size": 1,
      "price": "1011000000000000000000",
      "reserved": "",
      "salt": "0x07a30d0c99e2ece79fe261fd2701bdb3d8061ddeb260c85f146c1ae3ed75a1ae",
      "assetIds": []
    },
    {
      "x": 382,
      "y": 293,
      "size": 1,
      "price": "1011000000000000000000",
      "reserved": "",
      "salt": "0x9a08a198953788653d1fda7f94cbab2ebfef8bbca3d2d8635a4672cdf4090d89",
      "assetIds": []
    },
    {
      "x": 382,
      "y": 300,
      "size": 1,
      "price": "1011000000000000000000",
      "reserved": "",
      "salt": "0xaaa1a68b62949990d1d3073572d0e9bbd56bda6cc91f8a7fbf91be0c951bd361",
      "assetIds": []
    },
    {
      "x": 382,
      "y": 301,
      "size": 1,
      "price": "1011000000000000000000",
      "reserved": "",
      "salt": "0xb21ab65529c95eff50bb8f121e535ea625e7609b5c69f95cecd898796de53d11",
      "assetIds": []
    },
    {
      "x": 382,
      "y": 302,
      "size": 1,
      "price": "1011000000000000000000",
      "reserved": "",
      "salt": "0xb57afa20c22d97620fdd7c8019b066c258bc522a853a3977f00825bf63489dd6",
      "assetIds": []
    },
    {
      "x": 382,
      "y": 303,
      "size": 1,
      "price": "1011000000000000000000",
      "reserved": "",
      "salt": "0x10c3fa66ea01955abb342131c9b34cd91fb3c25a371f8249b9c579aec13ed9b2",
      "assetIds": []
    },
    {
      "x": 382,
      "y": 304,
      "size": 1,
      "price": "1011000000000000000000",
      "reserved": "",
      "salt": "0x51dcc5fda614c4fbd53ee8d6257fa878ba501de58b2d1f6f64ba97f6e5cba170",
      "assetIds": []
    },
    {
      "x": 382,
      "y": 305,
      "size": 1,
      "price": "1011000000000000000000",
      "reserved": "",
      "salt": "0xd7f355b0541372b40ecc6fb589be164558468886f0ff380acb6ca0d105739bfe",
      "assetIds": []
    },
    {
      "x": 383,
      "y": 228,
      "size": 1,
      "price": "1011000000000000000000",
      "reserved": "",
      "salt": "0xca9d23a96796786029a6daa2b9fa19d3f3f20ec915b319daed290fabbd8527ce",
      "assetIds": []
    },
    {
      "x": 383,
      "y": 229,
      "size": 1,
      "price": "1011000000000000000000",
      "reserved": "",
      "salt": "0xbf724ba420d2651d7aac19ace6eed3cfabe3b488330200f6c382d9f1b8fd3527",
      "assetIds": []
    },
    {
      "x": 383,
      "y": 230,
      "size": 1,
      "price": "1011000000000000000000",
      "reserved": "",
      "salt": "0x976e91d105c140ceb5991946bd7ca8a2d17a6beb6d8dc31c0be6fa326569552e",
      "assetIds": []
    },
    {
      "x": 383,
      "y": 231,
      "size": 1,
      "price": "1011000000000000000000",
      "reserved": "",
      "salt": "0x7350fcd1b3a79dbbbd302792eb886713395e566554562c14440c1031b625e4ed",
      "assetIds": []
    },
    {
      "x": 383,
      "y": 232,
      "size": 1,
      "price": "1011000000000000000000",
      "reserved": "",
      "salt": "0x3715b1cb69685b42ebb84037a315d7cec09c428c23c70c646fcf1f2e6a66094a",
      "assetIds": []
    },
    {
      "x": 383,
      "y": 233,
      "size": 1,
      "price": "1011000000000000000000",
      "reserved": "",
      "salt": "0x53929b9c6bf3f115ead1f8191b44e569622c0d86bfb2d4233b273f57f5ce471b",
      "assetIds": []
    },
    {
      "x": 383,
      "y": 234,
      "size": 1,
      "price": "1011000000000000000000",
      "reserved": "",
      "salt": "0x43a7ed9c338617a9f13187fa0c081aba418f5508d3113d8842cba890576e33bb",
      "assetIds": []
    },
    {
      "x": 383,
      "y": 235,
      "size": 1,
      "price": "1011000000000000000000",
      "reserved": "",
      "salt": "0x1fcbd7178d658454831f4858bfcbd7d9e8d86ec08641bdb429157b9cbd6e52b2",
      "assetIds": []
    },
    {
      "x": 383,
      "y": 236,
      "size": 1,
      "price": "1011000000000000000000",
      "reserved": "",
      "salt": "0xff271cce285853969d8f183bae022dcd9427740454977e0565831c73982a9d7f",
      "assetIds": []
    },
    {
      "x": 383,
      "y": 237,
      "size": 1,
      "price": "1011000000000000000000",
      "reserved": "",
      "salt": "0xc50c02edce08bc91a64b99aa73ea883734e955eaa14f27a5cbd5703395f54785",
      "assetIds": []
    },
    {
      "x": 383,
      "y": 238,
      "size": 1,
      "price": "1011000000000000000000",
      "reserved": "",
      "salt": "0x38640b3c2b5fa38e4817140ce2debc80be4d85fde506c310c53ac3b513544793",
      "assetIds": []
    },
    {
      "x": 383,
      "y": 239,
      "size": 1,
      "price": "1011000000000000000000",
      "reserved": "",
      "salt": "0x23b070a1e227e9eeec5da395ea18c22cb43733646d2e14c9c791b39181093d7d",
      "assetIds": []
    },
    {
      "x": 383,
      "y": 282,
      "size": 1,
      "price": "1011000000000000000000",
      "reserved": "",
      "salt": "0x9ad929c16855e717c9c7cf489f95acc6c9a0fd8485f281bca838b901842aa17a",
      "assetIds": []
    },
    {
      "x": 383,
      "y": 283,
      "size": 1,
      "price": "1011000000000000000000",
      "reserved": "",
      "salt": "0xd0bfa4bcf8eac455ce1dff24cad857023fca4f9cb8a39439cf047db10e7d4aae",
      "assetIds": []
    },
    {
      "x": 383,
      "y": 284,
      "size": 1,
      "price": "1011000000000000000000",
      "reserved": "",
      "salt": "0x8fde6c08cb30ca4b17b9852018057c9b600aa7a31e52972a3a41337115d1d978",
      "assetIds": []
    },
    {
      "x": 383,
      "y": 288,
      "size": 1,
      "price": "1011000000000000000000",
      "reserved": "",
      "salt": "0x4db3f67136828b0183f01b4a4410fd0288d61afa21e0c4610411cdcefbf2cdf4",
      "assetIds": []
    },
    {
      "x": 383,
      "y": 289,
      "size": 1,
      "price": "1011000000000000000000",
      "reserved": "",
      "salt": "0x4cf45101fc72873741b984cbb3eab6fc2d7c1b667259aaad5d07aede8a7964ec",
      "assetIds": []
    },
    {
      "x": 383,
      "y": 290,
      "size": 1,
      "price": "1011000000000000000000",
      "reserved": "",
      "salt": "0x6c092c2aeea2ce956d0fb161b221af215815544f41c0ced35b1da2459c07cc8e",
      "assetIds": []
    },
    {
      "x": 383,
      "y": 291,
      "size": 1,
      "price": "1011000000000000000000",
      "reserved": "",
      "salt": "0x04d8cea5b40363de96a38fec29da7c85a33bdb85736fb163d7686d6b1864b3ad",
      "assetIds": []
    },
    {
      "x": 383,
      "y": 292,
      "size": 1,
      "price": "1011000000000000000000",
      "reserved": "",
      "salt": "0x35b914f4c688ce18a0767bda65094e5a19e82926d190c853a84197707e31dd52",
      "assetIds": []
    },
    {
      "x": 383,
      "y": 293,
      "size": 1,
      "price": "1011000000000000000000",
      "reserved": "",
      "salt": "0x0312c5e9c213bc2f333a086eff42fa58afa9f8fee32a0ac7258c6be89828bb67",
      "assetIds": []
    },
    {
      "x": 383,
      "y": 300,
      "size": 1,
      "price": "1011000000000000000000",
      "reserved": "",
      "salt": "0x9c8d1a3793415215d4be4226888bef13b1fe7ec4625848c43ed4a863ba9242f5",
      "assetIds": []
    },
    {
      "x": 383,
      "y": 301,
      "size": 1,
      "price": "1011000000000000000000",
      "reserved": "",
      "salt": "0xc395e9a37b330e3e7e441a3d3284ede6042a93fa559cb1d65b3626b8284d89cb",
      "assetIds": []
    },
    {
      "x": 383,
      "y": 302,
      "size": 1,
      "price": "1011000000000000000000",
      "reserved": "",
      "salt": "0x3b0c5e1a4913444d71fa624023338c4b2b75111443b02725fc8a19f781d160b7",
      "assetIds": []
    },
    {
      "x": 383,
      "y": 303,
      "size": 1,
      "price": "1011000000000000000000",
      "reserved": "",
      "salt": "0x059517a6a8b439760a800cd3753ea5c972bcbd3298817f58525cee09df980782",
      "assetIds": []
    },
    {
      "x": 383,
      "y": 304,
      "size": 1,
      "price": "1011000000000000000000",
      "reserved": "",
      "salt": "0xb3f4b46fe7b03600dd607f5f64cf507bb30ab98fabbc745ca03ad187eb829712",
      "assetIds": []
    },
    {
      "x": 383,
      "y": 305,
      "size": 1,
      "price": "1011000000000000000000",
      "reserved": "",
      "salt": "0x5dd5438a5aaf8e056fee1447db2dd98f5e31d7d23fd55d93f79dc55414224994",
      "assetIds": []
    },
    {
      "x": 384,
      "y": 225,
      "size": 1,
      "price": "1011000000000000000000",
      "reserved": "",
      "salt": "0x042922504bc2c2f0e9c7c1893e5a6db0d229ebbb60225201ced49b031964c6e5",
      "assetIds": []
    },
    {
      "x": 384,
      "y": 226,
      "size": 1,
      "price": "1011000000000000000000",
      "reserved": "",
      "salt": "0x585bcc77753de47a15e5c1153e5b53a9c9ef45bb63189d6482a0804c2f1cccbc",
      "assetIds": []
    },
    {
      "x": 384,
      "y": 227,
      "size": 1,
      "price": "1011000000000000000000",
      "reserved": "",
      "salt": "0xc4486e8209c9d5f943635de89b947677c0f4461b7ff3df77ff7b1d8645a09276",
      "assetIds": []
    },
    {
      "x": 384,
      "y": 228,
      "size": 1,
      "price": "1011000000000000000000",
      "reserved": "",
      "salt": "0xb24085e00f36d388b6edf19d5c6156b78ce164c4878b766104fafd261eee8501",
      "assetIds": []
    },
    {
      "x": 384,
      "y": 229,
      "size": 1,
      "price": "1011000000000000000000",
      "reserved": "",
      "salt": "0x28fc482896f0eb7364f8f354a949f452b0399dd6a972fc1f254656b5b1ba3932",
      "assetIds": []
    },
    {
      "x": 384,
      "y": 230,
      "size": 1,
      "price": "1011000000000000000000",
      "reserved": "",
      "salt": "0x6315959907f060cf3793bc427b55856995d9af97ac58f41e4c97926ca44bc00c",
      "assetIds": []
    },
    {
      "x": 384,
      "y": 231,
      "size": 1,
      "price": "1011000000000000000000",
      "reserved": "",
      "salt": "0x2717e477a5f667f0646170e6047cc961b290703120bb49733074f9adc2fec764",
      "assetIds": []
    },
    {
      "x": 384,
      "y": 232,
      "size": 1,
      "price": "1011000000000000000000",
      "reserved": "",
      "salt": "0x783b23e02faa481e57cb7b8a0a33df8475ed653c5c50401c0cb984a198e498cd",
      "assetIds": []
    },
    {
      "x": 384,
      "y": 233,
      "size": 1,
      "price": "1011000000000000000000",
      "reserved": "",
      "salt": "0xed197ed61b2f8ff6538afda5821816cb817784b46fef75fbb0a6ae111f86091f",
      "assetIds": []
    },
    {
      "x": 384,
      "y": 234,
      "size": 1,
      "price": "1011000000000000000000",
      "reserved": "",
      "salt": "0xd41399e4c092db6a453b57780091f59bc59f231e8bd32de586d62d90c31346fe",
      "assetIds": []
    },
    {
      "x": 384,
      "y": 235,
      "size": 1,
      "price": "1011000000000000000000",
      "reserved": "",
      "salt": "0x75a526f4c274e89e818f851e7834bf0d720e49053277e9f06e741ad0cf223199",
      "assetIds": []
    },
    {
      "x": 384,
      "y": 236,
      "size": 1,
      "price": "1011000000000000000000",
      "reserved": "",
      "salt": "0x1a33981bfda72855dd969a3e6fbbf0e31f59b7259f0fbef7533386151a668860",
      "assetIds": []
    },
    {
      "x": 384,
      "y": 237,
      "size": 1,
      "price": "1011000000000000000000",
      "reserved": "",
      "salt": "0x8e00de1b4049678d50debdd3a8036df91c69255410e030d0e2a21d483c5ea29a",
      "assetIds": []
    },
    {
      "x": 384,
      "y": 238,
      "size": 1,
      "price": "1011000000000000000000",
      "reserved": "",
      "salt": "0x41d859b5a43836905d50cf866d2c6521fdf899184400f210f2d53f05b0cbba4e",
      "assetIds": []
    },
    {
      "x": 384,
      "y": 239,
      "size": 1,
      "price": "1011000000000000000000",
      "reserved": "",
      "salt": "0xe1b1e6a978c54868f3f3695a73cbe876853019d700d3518364f470fb3c36365f",
      "assetIds": []
    },
    {
      "x": 384,
      "y": 255,
      "size": 1,
      "price": "1011000000000000000000",
      "reserved": "",
      "salt": "0xeec4f21f70e944124fde0e32b4d3723fd4865d1b686f4313d36e3fff159abd1a",
      "assetIds": []
    },
    {
      "x": 384,
      "y": 256,
      "size": 1,
      "price": "1011000000000000000000",
      "reserved": "",
      "salt": "0x79285af4d40dc8f9d520be9b49be244b6a455e24ab04093016b0df9ef0078874",
      "assetIds": []
    },
    {
      "x": 384,
      "y": 257,
      "size": 1,
      "price": "1011000000000000000000",
      "reserved": "",
      "salt": "0xe7e593f2ecac3d9397bf2e4eeae3b3107945daecd15fea24771219aca4708b14",
      "assetIds": []
    },
    {
      "x": 384,
      "y": 294,
      "size": 1,
      "price": "1011000000000000000000",
      "reserved": "",
      "salt": "0xb25a78408a9fa0d72deff4e6e537fb9eafef262e630392bb4587e5de0ebec95a",
      "assetIds": []
    },
    {
      "x": 384,
      "y": 295,
      "size": 1,
      "price": "1011000000000000000000",
      "reserved": "",
      "salt": "0xeb6ebb226a971c44684c941d635703204824faa45219d305a5561ed20c7534bf",
      "assetIds": []
    },
    {
      "x": 384,
      "y": 296,
      "size": 1,
      "price": "1011000000000000000000",
      "reserved": "",
      "salt": "0x906faec7b39be99b044f946ac48246d11512b5391f5a19319cb9b7756ad34caf",
      "assetIds": []
    },
    {
      "x": 384,
      "y": 297,
      "size": 1,
      "price": "1011000000000000000000",
      "reserved": "",
      "salt": "0x81d1d5ce0d4bcee676be7cad0757be12286a2c77288986d33efbef9b82fbfdb4",
      "assetIds": []
    },
    {
      "x": 384,
      "y": 298,
      "size": 1,
      "price": "1011000000000000000000",
      "reserved": "",
      "salt": "0x96cf60112f39764bbb081053205d96aa9966d397ae0c9941c4697182e4890168",
      "assetIds": []
    },
    {
      "x": 384,
      "y": 299,
      "size": 1,
      "price": "1011000000000000000000",
      "reserved": "",
      "salt": "0xae4a7245434b1a74a215d6aaec5f235d4d830af1e43009a0518c249837c8fcb0",
      "assetIds": []
    },
    {
      "x": 385,
      "y": 225,
      "size": 1,
      "price": "1011000000000000000000",
      "reserved": "",
      "salt": "0xff4368a793d884c0675397a65fc4a0795db35f05bcfd9812a62f6e845c551132",
      "assetIds": []
    },
    {
      "x": 385,
      "y": 226,
      "size": 1,
      "price": "1011000000000000000000",
      "reserved": "",
      "salt": "0xeea03e210c38d95adfbf124f64ae76c3c6ec83b6206f6e05e4a7beeaded49d22",
      "assetIds": []
    },
    {
      "x": 385,
      "y": 227,
      "size": 1,
      "price": "1011000000000000000000",
      "reserved": "",
      "salt": "0x9cbb32f6804ced532669fb0ebd7fdf0bb4fe0d582e5d736569ec69724d4b6c47",
      "assetIds": []
    },
    {
      "x": 385,
      "y": 228,
      "size": 1,
      "price": "1011000000000000000000",
      "reserved": "",
      "salt": "0x01dc3acde998658f09e10de3dd49f6fe4c8508594b097e634a861d3d9af16886",
      "assetIds": []
    },
    {
      "x": 385,
      "y": 229,
      "size": 1,
      "price": "1011000000000000000000",
      "reserved": "0x7a9fe22691c811ea339d9b73150e6911a5343dca",
      "salt": "0x6c7e837c41485d269b65329588cd296aea1772d3b1ca323e94c5c19fa436a8e6",
      "assetIds": []
    },
    {
      "x": 385,
      "y": 230,
      "size": 1,
      "price": "1011000000000000000000",
      "reserved": "",
      "salt": "0x9e7de14662024bf6a4c717961cd6168bdbb84343e51a7251170e5278457e2c35",
      "assetIds": []
    },
    {
      "x": 385,
      "y": 231,
      "size": 1,
      "price": "1011000000000000000000",
      "reserved": "",
      "salt": "0x4c6ecc72aa4c350ffad7bc88ab2aa918894d7f42f8bfdd422136fd0cc1b59e33",
      "assetIds": []
    },
    {
      "x": 385,
      "y": 232,
      "size": 1,
      "price": "1011000000000000000000",
      "reserved": "",
      "salt": "0x35d8f47136e86fab83be0307253f1cecf8153b7930361f42f771ea1dc973b5ea",
      "assetIds": []
    },
    {
      "x": 385,
      "y": 233,
      "size": 1,
      "price": "1011000000000000000000",
      "reserved": "",
      "salt": "0x1750b83caa157428eaf1b6fd6e78750810e6f9c9b59bf18881cd45b3222988da",
      "assetIds": []
    },
    {
      "x": 385,
      "y": 234,
      "size": 1,
      "price": "1011000000000000000000",
      "reserved": "",
      "salt": "0x9c6ef390d4df506c5fd459311037bb67b8976431056a3d6ca4c0f99aa4cbfa4e",
      "assetIds": []
    },
    {
      "x": 385,
      "y": 235,
      "size": 1,
      "price": "1011000000000000000000",
      "reserved": "",
      "salt": "0x9e204d2d0b64ea1868205584a34b754cd386246b3ba15a50ef7be32460a19e57",
      "assetIds": []
    },
    {
      "x": 385,
      "y": 236,
      "size": 1,
      "price": "1011000000000000000000",
      "reserved": "",
      "salt": "0x953e74bb691a740b0e57ce0552d51a98f971675a72fdb0c1d9bcded6fddd2924",
      "assetIds": []
    },
    {
      "x": 385,
      "y": 237,
      "size": 1,
      "price": "1011000000000000000000",
      "reserved": "0x7a9fe22691c811ea339d9b73150e6911a5343dca",
      "salt": "0x6b17003b14d8866a6e6ce572652c9920fad136e9ed9248f2a4cfd350d400a4b4",
      "assetIds": []
    },
    {
      "x": 385,
      "y": 238,
      "size": 1,
      "price": "1011000000000000000000",
      "reserved": "",
      "salt": "0x93230baedb63bd0c275aeea07315d8b80d8bf3fbf7317363fc71a61532439bda",
      "assetIds": []
    },
    {
      "x": 385,
      "y": 239,
      "size": 1,
      "price": "1011000000000000000000",
      "reserved": "",
      "salt": "0xce074f4268df7833ad8e5eb7c4f5e784eb212c2fb86c580bfca061dbe2ff533c",
      "assetIds": []
    },
    {
      "x": 385,
      "y": 255,
      "size": 1,
      "price": "1011000000000000000000",
      "reserved": "",
      "salt": "0xd19fc25d7b46d71644f2f91f7a5907316074638abad75df627140679a59aef57",
      "assetIds": []
    },
    {
      "x": 385,
      "y": 256,
      "size": 1,
      "price": "1011000000000000000000",
      "reserved": "0x7a9fe22691c811ea339d9b73150e6911a5343dca",
      "salt": "0x829a149bd453776bec8e1dba4b9fb93e8d4c72d3bce0607ff20bccf23e4d9d11",
      "assetIds": []
    },
    {
      "x": 385,
      "y": 257,
      "size": 1,
      "price": "1011000000000000000000",
      "reserved": "",
      "salt": "0x40ef709adc1b890929c92e05014008adf20406af566dfce43c041d4e36cc91b5",
      "assetIds": []
    },
    {
      "x": 385,
      "y": 294,
      "size": 1,
      "price": "1011000000000000000000",
      "reserved": "",
      "salt": "0xb8d3e035ad727a2531922c0d6124ac40ef00cc27b3024ca3791e56651cae0558",
      "assetIds": []
    },
    {
      "x": 385,
      "y": 295,
      "size": 1,
      "price": "1011000000000000000000",
      "reserved": "",
      "salt": "0xe27152a767608351e419918da9c888d05fde18a531e5610ac91e69172db894bd",
      "assetIds": []
    },
    {
      "x": 385,
      "y": 296,
      "size": 1,
      "price": "1011000000000000000000",
      "reserved": "",
      "salt": "0xf4ff908dd72f89355e7c7579df84449f68a2261d0cb5a7f1ca88d39c8c11e8bb",
      "assetIds": []
    },
    {
      "x": 385,
      "y": 297,
      "size": 1,
      "price": "1011000000000000000000",
      "reserved": "",
      "salt": "0x54716fb1c3161f080e2ab553560fa563d54efd92bda7e326a45d3a6eb2f98dcc",
      "assetIds": []
    },
    {
      "x": 385,
      "y": 298,
      "size": 1,
      "price": "1011000000000000000000",
      "reserved": "",
      "salt": "0xae747eb3f4745c240c62095e6cf657d376a6f2b964d2986ef4d91eec656cf254",
      "assetIds": []
    },
    {
      "x": 385,
      "y": 299,
      "size": 1,
      "price": "1011000000000000000000",
      "reserved": "",
      "salt": "0x560b66ec0998d4a46285d75806133912141a42d03dda43405958f8197c5c8dd6",
      "assetIds": []
    },
    {
      "x": 386,
      "y": 225,
      "size": 1,
      "price": "1011000000000000000000",
      "reserved": "",
      "salt": "0x479c74253ff3188a55084fb8bbebcbb45a9d6adacc53c7101c84d6261edf42b2",
      "assetIds": []
    },
    {
      "x": 386,
      "y": 226,
      "size": 1,
      "price": "1011000000000000000000",
      "reserved": "",
      "salt": "0xbe048e2774d504b8589e5312cdd0568f3d4abf7087ef291bd310434e04f7a53b",
      "assetIds": []
    },
    {
      "x": 386,
      "y": 227,
      "size": 1,
      "price": "1011000000000000000000",
      "reserved": "",
      "salt": "0x7c9b096aa54f125186bc2dbae71a39e3d73c00310a197303bc96e36d3537dc7f",
      "assetIds": []
    },
    {
      "x": 386,
      "y": 228,
      "size": 1,
      "price": "1011000000000000000000",
      "reserved": "",
      "salt": "0xeb9de4dad4db51b39369399f07580656fd1b4338db5b65eb7b7c3de915d3daf8",
      "assetIds": []
    },
    {
      "x": 386,
      "y": 229,
      "size": 1,
      "price": "1011000000000000000000",
      "reserved": "",
      "salt": "0x0e765c1d048cd9ced2186e5f6ea4ccef5113a1590b5eea2d3e304bb7e9b28b2d",
      "assetIds": []
    },
    {
      "x": 386,
      "y": 230,
      "size": 1,
      "price": "1011000000000000000000",
      "reserved": "",
      "salt": "0xe00faaa6a4fd277bf8274fab8fb49ed7da00896f4ec0a092206a4a011fbedd6d",
      "assetIds": []
    },
    {
      "x": 386,
      "y": 231,
      "size": 1,
      "price": "1011000000000000000000",
      "reserved": "",
      "salt": "0x4ffc4b1f0c5832ad4f8e1d33f41f8e3bbe27895a3578bb3d32eacfa45f0c9f3c",
      "assetIds": []
    },
    {
      "x": 386,
      "y": 232,
      "size": 1,
      "price": "1011000000000000000000",
      "reserved": "",
      "salt": "0x9312097cf479f3527ff19283f6df4a77a45a6882c3a1f2a9bc4ce1d65d304172",
      "assetIds": []
    },
    {
      "x": 386,
      "y": 233,
      "size": 1,
      "price": "1011000000000000000000",
      "reserved": "",
      "salt": "0x40b0af5ba0d4238a79ca23c358d78104c58de571078094c3248cd82e420cccfc",
      "assetIds": []
    },
    {
      "x": 386,
      "y": 234,
      "size": 1,
      "price": "1011000000000000000000",
      "reserved": "",
      "salt": "0x5e78e547e55872abb9a47d92b0996cebb236416c600d4009f2f72f59c5ae965d",
      "assetIds": []
    },
    {
      "x": 386,
      "y": 235,
      "size": 1,
      "price": "1011000000000000000000",
      "reserved": "",
      "salt": "0xfcaedb0065f1d3c8e2f7c50a3c69d1a036fd7c153a7cf36073df39286dfa7167",
      "assetIds": []
    },
    {
      "x": 386,
      "y": 236,
      "size": 1,
      "price": "1011000000000000000000",
      "reserved": "",
      "salt": "0xa774464566dd364611ef901486c38fb68621e5989cf04f988e5268552e07c220",
      "assetIds": []
    },
    {
      "x": 386,
      "y": 237,
      "size": 1,
      "price": "1011000000000000000000",
      "reserved": "",
      "salt": "0x434e077e92762d8a5f9e8bdf23d4e2b37fa795dcdbcb010a5d0e5686efe9d5b7",
      "assetIds": []
    },
    {
      "x": 386,
      "y": 238,
      "size": 1,
      "price": "1011000000000000000000",
      "reserved": "",
      "salt": "0xc87de37455c2d0ac2911b6044165e9391029f7f9321afd0b1253d27a21d7de68",
      "assetIds": []
    },
    {
      "x": 386,
      "y": 239,
      "size": 1,
      "price": "1011000000000000000000",
      "reserved": "",
      "salt": "0xf4e8a22276c978c19aa22a62581db3f4e4575a25582abc3b4ffa1b4d313d33d8",
      "assetIds": []
    },
    {
      "x": 386,
      "y": 255,
      "size": 1,
      "price": "1011000000000000000000",
      "reserved": "",
      "salt": "0xaffe9e021cf6f8f6c5dc9b8a44d0ed8178e27dcacb8ce3e9cac9ffd9bf925f18",
      "assetIds": []
    },
    {
      "x": 386,
      "y": 256,
      "size": 1,
      "price": "1011000000000000000000",
      "reserved": "",
      "salt": "0xb6e3e602fc6c1e18d0cf9faaac71f355ca178ae8b77d1bafe2068cf838d03978",
      "assetIds": []
    },
    {
      "x": 386,
      "y": 257,
      "size": 1,
      "price": "1011000000000000000000",
      "reserved": "",
      "salt": "0x3e244883a43fe55bdae72f8923081e4a1af6f6193224b09ffd255b0af9420c1d",
      "assetIds": []
    },
    {
      "x": 386,
      "y": 294,
      "size": 1,
      "price": "1011000000000000000000",
      "reserved": "",
      "salt": "0x07b89419177a58ca4fc698b6625856b45b240a7f9be6ea75ac32417d9a027bc7",
      "assetIds": []
    },
    {
      "x": 386,
      "y": 295,
      "size": 1,
      "price": "1011000000000000000000",
      "reserved": "",
      "salt": "0x0318ef10e3c24e51276fd6706033059f365415c2f12c264cf801cd5968e789ea",
      "assetIds": []
    },
    {
      "x": 386,
      "y": 296,
      "size": 1,
      "price": "1011000000000000000000",
      "reserved": "",
      "salt": "0xb93dfad3c94b875a4499758e7872c9ac3fd84003b44585aa4e2479241bcecdba",
      "assetIds": []
    },
    {
      "x": 386,
      "y": 297,
      "size": 1,
      "price": "1011000000000000000000",
      "reserved": "",
      "salt": "0xae6123561fb817f4e92d488c4d9b24f57e02a7c3bbc66cd4ccf33fbbe137405a",
      "assetIds": []
    },
    {
      "x": 386,
      "y": 298,
      "size": 1,
      "price": "1011000000000000000000",
      "reserved": "",
      "salt": "0x9d0c1ee462edabf6046e774c7e725fd750993ba6521453d8832c566d973ef3be",
      "assetIds": []
    },
    {
      "x": 386,
      "y": 299,
      "size": 1,
      "price": "1011000000000000000000",
      "reserved": "",
      "salt": "0x6f356d2f6aebf708c33fb5fa5406f0020f46c54aea031962551e64adeadff12f",
      "assetIds": []
    },
    {
      "x": 387,
      "y": 225,
      "size": 1,
      "price": "1011000000000000000000",
      "reserved": "",
      "salt": "0xe35f9860e38da0212adbbfbd84da52f4aec2a6c422b81c3d81a1d1539c035503",
      "assetIds": []
    },
    {
      "x": 387,
      "y": 226,
      "size": 1,
      "price": "1011000000000000000000",
      "reserved": "",
      "salt": "0xe2a2000957aa92eb6c4c8ad0e8200181bab6f2c300dea8b374017f3d04e1d5b9",
      "assetIds": []
    },
    {
      "x": 387,
      "y": 227,
      "size": 1,
      "price": "1011000000000000000000",
      "reserved": "",
      "salt": "0x1f725e4eff858ee938a0d55a85e6a87cd998075d5e14fb623cfe029e339e56f7",
      "assetIds": []
    },
    {
      "x": 387,
      "y": 228,
      "size": 1,
      "price": "1011000000000000000000",
      "reserved": "",
      "salt": "0x7766d804f67a67a97c6d2e0e73302e0b93cb83fc95022e57d89e065ab17195ec",
      "assetIds": []
    },
    {
      "x": 387,
      "y": 229,
      "size": 1,
      "price": "1011000000000000000000",
      "reserved": "",
      "salt": "0xd989c5a94adea9ee2d99f606589156f16d396386861428427e803f1e102c6f11",
      "assetIds": []
    },
    {
      "x": 387,
      "y": 230,
      "size": 1,
      "price": "1011000000000000000000",
      "reserved": "",
      "salt": "0x5164365aa9ed2fbf3b5f56f8c5cd9bb300e72184e38f048b475bc2292440f65a",
      "assetIds": []
    },
    {
      "x": 387,
      "y": 231,
      "size": 1,
      "price": "1011000000000000000000",
      "reserved": "",
      "salt": "0x97981b2192c41c1cbbc0a83a3803c9101df7c91fe7f3804a6f4e4376c4cca68a",
      "assetIds": []
    },
    {
      "x": 387,
      "y": 232,
      "size": 1,
      "price": "1011000000000000000000",
      "reserved": "",
      "salt": "0xb1c3a6f0076d88650d635b20972d387f3b01205b78463c3a4ff154038bb9a907",
      "assetIds": []
    },
    {
      "x": 387,
      "y": 233,
      "size": 1,
      "price": "1011000000000000000000",
      "reserved": "",
      "salt": "0xd417aa0e54098bdaa98aa53204ec0550ff87445ec9bbba60a26496037a0aad34",
      "assetIds": []
    },
    {
      "x": 387,
      "y": 234,
      "size": 1,
      "price": "1011000000000000000000",
      "reserved": "",
      "salt": "0xe74b1f94c893e6c42fd6fa692ec63bf52337e097777ba3dc52f166d667dd9dbe",
      "assetIds": []
    },
    {
      "x": 387,
      "y": 235,
      "size": 1,
      "price": "1011000000000000000000",
      "reserved": "",
      "salt": "0x80060b521eb3dabe9a2119e10809be0570214c598f871d8c157b14251b6fcde3",
      "assetIds": []
    },
    {
      "x": 387,
      "y": 236,
      "size": 1,
      "price": "1011000000000000000000",
      "reserved": "",
      "salt": "0x8b569aacedec08ef97d3357e634b3d340106dc456c675d8ca992b0ba45da3390",
      "assetIds": []
    },
    {
      "x": 387,
      "y": 237,
      "size": 1,
      "price": "1011000000000000000000",
      "reserved": "",
      "salt": "0x86e0835beeb3a680bd523f1a6ba6866d204fdfdad602ed0e68acca3160d3684c",
      "assetIds": []
    },
    {
      "x": 387,
      "y": 238,
      "size": 1,
      "price": "1011000000000000000000",
      "reserved": "",
      "salt": "0xbcaae0713a0ab8d0216928b50d40f69c5bf1a375a012a25b460e46e2f1369994",
      "assetIds": []
    },
    {
      "x": 387,
      "y": 239,
      "size": 1,
      "price": "1011000000000000000000",
      "reserved": "",
      "salt": "0xf772a47d52a684ade52cbe26cb838028a26f3b37d5ffa57fc89adbd647ebc9e4",
      "assetIds": []
    },
    {
      "x": 387,
      "y": 252,
      "size": 1,
      "price": "1011000000000000000000",
      "reserved": "",
      "salt": "0x1c9c28f9c1431e37b575120cf1e62d01312b4a930dabbddfe5f04ecdf28d97c8",
      "assetIds": []
    },
    {
      "x": 387,
      "y": 253,
      "size": 1,
      "price": "1011000000000000000000",
      "reserved": "",
      "salt": "0xab4854a2fb27e5f40a263cb439f16c3c63a40c62ddb5b500fd8412bc6e01b215",
      "assetIds": []
    },
    {
      "x": 387,
      "y": 254,
      "size": 1,
      "price": "1011000000000000000000",
      "reserved": "",
      "salt": "0x31273e4b27edf426402346b276e96dcfec14a9f5b1701dc0297852d626dcb2da",
      "assetIds": []
    },
    {
      "x": 387,
      "y": 255,
      "size": 1,
      "price": "1011000000000000000000",
      "reserved": "",
      "salt": "0x57f427ee185265b83c87eff1bf9af13706fb9bbe8dc3b7a1e38f4b3f457e0ecf",
      "assetIds": []
    },
    {
      "x": 387,
      "y": 256,
      "size": 1,
      "price": "1011000000000000000000",
      "reserved": "",
      "salt": "0xafbd6b7e6554ade1ea451744180252b251e6e45c4dd1ce670048c4591fc4cdbc",
      "assetIds": []
    },
    {
      "x": 387,
      "y": 257,
      "size": 1,
      "price": "1011000000000000000000",
      "reserved": "",
      "salt": "0xa1e1d0573f4084dc50c60262f35182045a9f488099ff16cff2346de1b531128c",
      "assetIds": []
    },
    {
      "x": 387,
      "y": 294,
      "size": 1,
      "price": "1011000000000000000000",
      "reserved": "",
      "salt": "0x738436aa1051a997b9b812fee7a0a632763405110bbd60b95473a14bf2872f5c",
      "assetIds": []
    },
    {
      "x": 387,
      "y": 295,
      "size": 1,
      "price": "1011000000000000000000",
      "reserved": "",
      "salt": "0xe844dac7845f2669391e9de3c32584e0f028c45efa5619ec5fad5056cdbb671b",
      "assetIds": []
    },
    {
      "x": 387,
      "y": 296,
      "size": 1,
      "price": "1011000000000000000000",
      "reserved": "",
      "salt": "0x5d62f284d2d07ace4a3e7645927a0c0fe329c457af2ea4b8f0f7a0c7d701ed7f",
      "assetIds": []
    },
    {
      "x": 387,
      "y": 297,
      "size": 1,
      "price": "1011000000000000000000",
      "reserved": "",
      "salt": "0x1c8a3fcec5e88b5c8bf109b28c5318c381853ed534e0a964f2f56bb322c5b6d5",
      "assetIds": []
    },
    {
      "x": 387,
      "y": 298,
      "size": 1,
      "price": "1011000000000000000000",
      "reserved": "",
      "salt": "0x4e069f1bc2bddf6bf5150e9694ef73988679f6789d9aa24bd0a4eb75a37ddf3d",
      "assetIds": []
    },
    {
      "x": 387,
      "y": 299,
      "size": 1,
      "price": "1011000000000000000000",
      "reserved": "",
      "salt": "0x0db41e79b9751dd0abfed6d9631cee2c14dabddd836e4f920798317b4a2b3fdb",
      "assetIds": []
    },
    {
      "x": 387,
      "y": 306,
      "size": 1,
      "price": "1011000000000000000000",
      "reserved": "",
      "salt": "0xf97f322ea0668a9cf502c2bba076e1988745953bb1b0d7d45f7ef85acfc6e360",
      "assetIds": []
    },
    {
      "x": 387,
      "y": 307,
      "size": 1,
      "price": "1011000000000000000000",
      "reserved": "",
      "salt": "0x3eb192e744be9fecbfa01030de7147a12cdaeb5d28026061b1444e5d072c6867",
      "assetIds": []
    },
    {
      "x": 387,
      "y": 308,
      "size": 1,
      "price": "1011000000000000000000",
      "reserved": "",
      "salt": "0x358d88863df51e706c35690c367030f22263ab08208215bace68518f1985c395",
      "assetIds": []
    },
    {
      "x": 387,
      "y": 309,
      "size": 1,
      "price": "1011000000000000000000",
      "reserved": "",
      "salt": "0x6aba885558b9b9bd331823147cc5b2968a3ec2b1cea55727f17fbd4aa65313b8",
      "assetIds": []
    },
    {
      "x": 387,
      "y": 310,
      "size": 1,
      "price": "1011000000000000000000",
      "reserved": "",
      "salt": "0x4edac76a5ff103e023432426084753f857ed7709eb581581ca4fe1f18145b9a6",
      "assetIds": []
    },
    {
      "x": 387,
      "y": 311,
      "size": 1,
      "price": "1011000000000000000000",
      "reserved": "",
      "salt": "0x510c87a97c639b8db561a7ee498590f3d04371dbe277821e3a352f6ab2c3d443",
      "assetIds": []
    },
    {
      "x": 388,
      "y": 225,
      "size": 1,
      "price": "1011000000000000000000",
      "reserved": "",
      "salt": "0x31b5ee335530b337e8f0dc8750dee2178ef496ce214c18f0e0797a142fcd20b4",
      "assetIds": []
    },
    {
      "x": 388,
      "y": 226,
      "size": 1,
      "price": "1011000000000000000000",
      "reserved": "",
      "salt": "0xb4566c282fdb09f99689ae666f57ff3648c9f52eb2d0ed7b65c4cc0087dc3a02",
      "assetIds": []
    },
    {
      "x": 388,
      "y": 227,
      "size": 1,
      "price": "1011000000000000000000",
      "reserved": "",
      "salt": "0xee228dfd76f008e714e6a2603bdc0b114360ecaa994d9e784cc4e8716040c613",
      "assetIds": []
    },
    {
      "x": 388,
      "y": 228,
      "size": 1,
      "price": "1011000000000000000000",
      "reserved": "",
      "salt": "0x07b90f1d1c7c7379c703e634d9b5f6d45bfce6f3a84bbc70a58ee0a01880cbf1",
      "assetIds": []
    },
    {
      "x": 388,
      "y": 229,
      "size": 1,
      "price": "1011000000000000000000",
      "reserved": "",
      "salt": "0x5155012c88f125a26cc5291d25f5a852b3c726cc99c892f80ed7c881de9e1e75",
      "assetIds": []
    },
    {
      "x": 388,
      "y": 230,
      "size": 1,
      "price": "1011000000000000000000",
      "reserved": "",
      "salt": "0x2dc7683576d0960e6927c3bc81292159c8796908eccf801a636f49c15364a607",
      "assetIds": []
    },
    {
      "x": 388,
      "y": 231,
      "size": 1,
      "price": "1011000000000000000000",
      "reserved": "",
      "salt": "0xfe984b0321849bdc4e1affa5e69ff97067d4ca6a632625e498979484e073e371",
      "assetIds": []
    },
    {
      "x": 388,
      "y": 232,
      "size": 1,
      "price": "1011000000000000000000",
      "reserved": "",
      "salt": "0x5ee709271bbf2bb0a45c45c9ec416c0748cb44c2f26d41340a6cb63c00aed8a9",
      "assetIds": []
    },
    {
      "x": 388,
      "y": 233,
      "size": 1,
      "price": "1011000000000000000000",
      "reserved": "",
      "salt": "0x36629d279eee04c5b87397bbfb38e68aabdec958dd062e528394315f82f57478",
      "assetIds": []
    },
    {
      "x": 388,
      "y": 234,
      "size": 1,
      "price": "1011000000000000000000",
      "reserved": "",
      "salt": "0xecac69b15a5551abba7932587f3423ca148fba6b526efab9f2d61c25cf7433be",
      "assetIds": []
    },
    {
      "x": 388,
      "y": 235,
      "size": 1,
      "price": "1011000000000000000000",
      "reserved": "",
      "salt": "0x5a0d3596725afaa26e6a5409a67eaf86f8f94f573310a01626a6633bf2cfef8c",
      "assetIds": []
    },
    {
      "x": 388,
      "y": 236,
      "size": 1,
      "price": "1011000000000000000000",
      "reserved": "",
      "salt": "0xbc33f95b64df78a17e86e8dd8412eb491a348efecdf2b5053edaee552a435c30",
      "assetIds": []
    },
    {
      "x": 388,
      "y": 237,
      "size": 1,
      "price": "1011000000000000000000",
      "reserved": "",
      "salt": "0xc486c9e058e9d297717a8767eccc90d093ea9e8a53c0e997537a9d37d47fa597",
      "assetIds": []
    },
    {
      "x": 388,
      "y": 238,
      "size": 1,
      "price": "1011000000000000000000",
      "reserved": "",
      "salt": "0xd5471ab29a228c217356bda60f3f07fda92bd905fb23272e4d8843e50afbdee1",
      "assetIds": []
    },
    {
      "x": 388,
      "y": 239,
      "size": 1,
      "price": "1011000000000000000000",
      "reserved": "",
      "salt": "0xeac207c256c7a1b227b6fd11effc0934e688970ae1298d92475a9b1f5b9b00be",
      "assetIds": []
    },
    {
      "x": 388,
      "y": 252,
      "size": 1,
      "price": "1011000000000000000000",
      "reserved": "",
      "salt": "0x996174163e3dab6fcb7fe8975b1998471b4e1e98f746ac8359fba6eba155180e",
      "assetIds": []
    },
    {
      "x": 388,
      "y": 253,
      "size": 1,
      "price": "1011000000000000000000",
      "reserved": "",
      "salt": "0x7ad30def0fde0ca6bc044fe3e86fb8c0f2aa653abb58de2e3359367cda600709",
      "assetIds": []
    },
    {
      "x": 388,
      "y": 254,
      "size": 1,
      "price": "1011000000000000000000",
      "reserved": "",
      "salt": "0xb282c519985ae9e3a9ac17dc8e623e7726dba9b5ceb7f987d0f0ea9cd53e2dc2",
      "assetIds": []
    },
    {
      "x": 388,
      "y": 255,
      "size": 1,
      "price": "1011000000000000000000",
      "reserved": "",
      "salt": "0x421fed578d94ee2c6b172d20d52624114146579af9aeda59f1b6d2e38707dd09",
      "assetIds": []
    },
    {
      "x": 388,
      "y": 256,
      "size": 1,
      "price": "1011000000000000000000",
      "reserved": "",
      "salt": "0x4bea235bfeba118cd8c157039537e1270970220258b0d20ef0cd8e13bb98bd14",
      "assetIds": []
    },
    {
      "x": 388,
      "y": 257,
      "size": 1,
      "price": "1011000000000000000000",
      "reserved": "",
      "salt": "0x07526b9ecdcd0d61cb42c0cbb2b028467c62225fc96eb57a9c785ab0ff3c40d1",
      "assetIds": []
    },
    {
      "x": 388,
      "y": 294,
      "size": 1,
      "price": "1011000000000000000000",
      "reserved": "",
      "salt": "0x13e5ef94c16093e5326e20bc084fd7405f429391a77b15be537d956c278cca08",
      "assetIds": []
    },
    {
      "x": 388,
      "y": 295,
      "size": 1,
      "price": "1011000000000000000000",
      "reserved": "",
      "salt": "0xd97662560a421fb78b292a4032ecea7851f60712683bf537fa8b8c79358e9800",
      "assetIds": []
    },
    {
      "x": 388,
      "y": 296,
      "size": 1,
      "price": "1011000000000000000000",
      "reserved": "",
      "salt": "0x0ffa720d864450c0752cc52f6b9b1149aa25b06fb0fc3d7ae0e9363d2bde8339",
      "assetIds": []
    },
    {
      "x": 388,
      "y": 297,
      "size": 1,
      "price": "1011000000000000000000",
      "reserved": "",
      "salt": "0x0fed21797b8c187d279bbb422d1e5ea6a5e7128cce1f65f26f88218f6ae3a974",
      "assetIds": []
    },
    {
      "x": 388,
      "y": 298,
      "size": 1,
      "price": "1011000000000000000000",
      "reserved": "",
      "salt": "0x873798fc77660cdc619dfdc765df6c96893a1649ac5793f05af9be1c5d3a5960",
      "assetIds": []
    },
    {
      "x": 388,
      "y": 299,
      "size": 1,
      "price": "1011000000000000000000",
      "reserved": "0x7a9fe22691c811ea339d9b73150e6911a5343dca",
      "salt": "0xd2bbbec95f7d93207bf72953a9d6c6ff31541dc4950599e2d8057d8791e37071",
      "assetIds": []
    },
    {
      "x": 388,
      "y": 306,
      "size": 1,
      "price": "1011000000000000000000",
      "reserved": "",
      "salt": "0xa7c3081ff49d7a414e8db1c6263954be522b7f0fac8f097906b643b78a398fb6",
      "assetIds": []
    },
    {
      "x": 388,
      "y": 307,
      "size": 1,
      "price": "1011000000000000000000",
      "reserved": "",
      "salt": "0x2f6ba25e0ad306f7d98b7de28adc419f2e7b52f40e0fdbc96be91530d9df93e2",
      "assetIds": []
    },
    {
      "x": 388,
      "y": 308,
      "size": 1,
      "price": "1011000000000000000000",
      "reserved": "",
      "salt": "0x95a08f61772bb4828483fb4f54a543b56efe7f9834f3bbc7d78bfe72fe370cd1",
      "assetIds": []
    },
    {
      "x": 388,
      "y": 309,
      "size": 1,
      "price": "1011000000000000000000",
      "reserved": "",
      "salt": "0x82b15dbce5db2ab92f5d604b5c14137bcfefb55ea4f0099dc14be320358c773a",
      "assetIds": []
    },
    {
      "x": 388,
      "y": 310,
      "size": 1,
      "price": "1011000000000000000000",
      "reserved": "",
      "salt": "0x8d30978016a417d38a71859a2973ea516f0e5f75e190ace7c0cf7cc815ae060e",
      "assetIds": []
    },
    {
      "x": 388,
      "y": 311,
      "size": 1,
      "price": "1011000000000000000000",
      "reserved": "",
      "salt": "0x83e82239f5d27f8d41134a226c9231728d9e1ef226323521a0210e7ca9216fc5",
      "assetIds": []
    },
    {
      "x": 389,
      "y": 225,
      "size": 1,
      "price": "1011000000000000000000",
      "reserved": "",
      "salt": "0x0e1b3bce4dfa19e030fb4e10c7a83ef5f5f184dbc08ad42b914483a71253e09d",
      "assetIds": []
    },
    {
      "x": 389,
      "y": 226,
      "size": 1,
      "price": "1011000000000000000000",
      "reserved": "",
      "salt": "0xf6e90d9b9c72e9f8eaae9991a9cfbf1386519bc2aa42689b1b0c77be2bec4b3e",
      "assetIds": []
    },
    {
      "x": 389,
      "y": 227,
      "size": 1,
      "price": "1011000000000000000000",
      "reserved": "",
      "salt": "0xe0c1a8bf12cf762662a83bee684101777c056cdfaff14475a5fbb0b889f4faba",
      "assetIds": []
    },
    {
      "x": 389,
      "y": 228,
      "size": 1,
      "price": "1011000000000000000000",
      "reserved": "",
      "salt": "0x28ec20ba5089d6c94b54f40067dd0c1fff5a3a4d06658e3c9c703ddd363dcc1f",
      "assetIds": []
    },
    {
      "x": 389,
      "y": 229,
      "size": 1,
      "price": "1011000000000000000000",
      "reserved": "",
      "salt": "0x7239a63067fce2a366a13598ac810ee84de2732bf95dbec9f5bfabd54a7fe7b5",
      "assetIds": []
    },
    {
      "x": 389,
      "y": 230,
      "size": 1,
      "price": "1011000000000000000000",
      "reserved": "",
      "salt": "0xcaf98fdcfc99c4178157dacabcc8cb15f7f4d177a65f2d370594802a96437aaf",
      "assetIds": []
    },
    {
      "x": 389,
      "y": 231,
      "size": 1,
      "price": "1011000000000000000000",
      "reserved": "",
      "salt": "0xd70344007452b8b1cb1afec3936fa3e4127bbeeeb23b3d09c4400d3e21f12afe",
      "assetIds": []
    },
    {
      "x": 389,
      "y": 232,
      "size": 1,
      "price": "1011000000000000000000",
      "reserved": "",
      "salt": "0x9940ba4c68e9edcaa512c48e3b0a0c9cb3dfe451b0a81848151b8c2c58550e54",
      "assetIds": []
    },
    {
      "x": 389,
      "y": 233,
      "size": 1,
      "price": "1011000000000000000000",
      "reserved": "",
      "salt": "0x7fceb1a92bc6730df90ec327aa338268d85b636147c0095ea5a2faf4b1779d1e",
      "assetIds": []
    },
    {
      "x": 389,
      "y": 234,
      "size": 1,
      "price": "1011000000000000000000",
      "reserved": "",
      "salt": "0x292b511bb38f542a5c7a6f52cca6c2d5a7bb2b42179cbda8726e862654af181b",
      "assetIds": []
    },
    {
      "x": 389,
      "y": 235,
      "size": 1,
      "price": "1011000000000000000000",
      "reserved": "",
      "salt": "0x95be7403134793e076b1c21b4b2bae27f20887f849e3517af8c56cdcbc3897f2",
      "assetIds": []
    },
    {
      "x": 389,
      "y": 236,
      "size": 1,
      "price": "1011000000000000000000",
      "reserved": "",
      "salt": "0x7602e9999e3a8c006661164e2f4de4c072b854cb95c7fed60b478e157f77d20f",
      "assetIds": []
    },
    {
      "x": 389,
      "y": 237,
      "size": 1,
      "price": "1011000000000000000000",
      "reserved": "",
      "salt": "0x54adba48396fc7cc668dc781103710b7e64c7368130e540d8fa08ec9ac084050",
      "assetIds": []
    },
    {
      "x": 389,
      "y": 238,
      "size": 1,
      "price": "1011000000000000000000",
      "reserved": "",
      "salt": "0x1f456383f587d9992228f32a6632614b7952d3f00996f1013bc07c5644e52b84",
      "assetIds": []
    },
    {
      "x": 389,
      "y": 239,
      "size": 1,
      "price": "1011000000000000000000",
      "reserved": "",
      "salt": "0xc55e10ce5176d73273293bdae2c5430f1fb4477714eee0fad81cdf53b763514b",
      "assetIds": []
    },
    {
      "x": 389,
      "y": 252,
      "size": 1,
      "price": "1011000000000000000000",
      "reserved": "",
      "salt": "0x1d0a7027379fb5d74bfe79fb0bba1df83536a2ffd0dd4984abafe1d4611e2f27",
      "assetIds": []
    },
    {
      "x": 389,
      "y": 253,
      "size": 1,
      "price": "1011000000000000000000",
      "reserved": "",
      "salt": "0x43ae666256cc215dad05b9e2c7495e4ec61440a9f0b40cd190e894976294985d",
      "assetIds": []
    },
    {
      "x": 389,
      "y": 254,
      "size": 1,
      "price": "1011000000000000000000",
      "reserved": "",
      "salt": "0x8f917ae5e763541aadf42b21dcf5ef0c86079a090ca593ee638c255ea3e1f839",
      "assetIds": []
    },
    {
      "x": 389,
      "y": 255,
      "size": 1,
      "price": "1011000000000000000000",
      "reserved": "",
      "salt": "0x78b6a26dadee392907632dfcbb5d3b9dfdbaa45bb06b1320640f9918e7107e91",
      "assetIds": []
    },
    {
      "x": 389,
      "y": 256,
      "size": 1,
      "price": "1011000000000000000000",
      "reserved": "",
      "salt": "0x4176786f49392ae8ef74bf1354793fd071216245375789971aa3f7896a080db4",
      "assetIds": []
    },
    {
      "x": 389,
      "y": 257,
      "size": 1,
      "price": "1011000000000000000000",
      "reserved": "",
      "salt": "0xf5889e7659f465ab87acaefb1139304265eb0f8aa0e12971f333a421bfbf1654",
      "assetIds": []
    },
    {
      "x": 389,
      "y": 294,
      "size": 1,
      "price": "1011000000000000000000",
      "reserved": "",
      "salt": "0x2dbc726d10645061d4877bc65a328055aa357b14cdda193f42ac8641946318dd",
      "assetIds": []
    },
    {
      "x": 389,
      "y": 295,
      "size": 1,
      "price": "1011000000000000000000",
      "reserved": "",
      "salt": "0x8e6f077c128563e8be430abc9b81dcef93ccf3024a2e5fae04ccdf092f2a1c24",
      "assetIds": []
    },
    {
      "x": 389,
      "y": 296,
      "size": 1,
      "price": "1011000000000000000000",
      "reserved": "",
      "salt": "0x06701db5308db707c07035b224cdfafa6258f75fbbcf3c00237524e9ef5eb4b2",
      "assetIds": []
    },
    {
      "x": 389,
      "y": 297,
      "size": 1,
      "price": "1011000000000000000000",
      "reserved": "",
      "salt": "0x861697fc890f35c334e8ac5f926d1170d1efd83e85b1a6a85a955fff9eea4748",
      "assetIds": []
    },
    {
      "x": 389,
      "y": 298,
      "size": 1,
      "price": "1011000000000000000000",
      "reserved": "",
      "salt": "0x2f4ab70daacde7751b2e225271455e111f4ec99cd7972e7f00ed36bd018fd4ab",
      "assetIds": []
    },
    {
      "x": 389,
      "y": 299,
      "size": 1,
      "price": "1011000000000000000000",
      "reserved": "",
      "salt": "0x6b5916c4779b6c11c752bf9871a9ee1ba6a49abd8696dfd28dd3058429f712b2",
      "assetIds": []
    },
    {
      "x": 389,
      "y": 306,
      "size": 1,
      "price": "1011000000000000000000",
      "reserved": "",
      "salt": "0xe3b88e89b0e80f0f9dc3d145661ec8cfdf87c8e412ddfe5b07733bc0e8bed670",
      "assetIds": []
    },
    {
      "x": 389,
      "y": 307,
      "size": 1,
      "price": "1011000000000000000000",
      "reserved": "",
      "salt": "0xf1a6d6b3429247374b3301707768fd7c0dfb19d22b41df5cb556b3a5b3fec838",
      "assetIds": []
    },
    {
      "x": 389,
      "y": 308,
      "size": 1,
      "price": "1011000000000000000000",
      "reserved": "",
      "salt": "0x768c06586cf1c2e552cedbbf002c229606eec70025ad1c3fe2050123295f99b7",
      "assetIds": []
    },
    {
      "x": 389,
      "y": 309,
      "size": 1,
      "price": "1011000000000000000000",
      "reserved": "",
      "salt": "0xbb8dd9b29f7686d43eda39b22f3ce450f6d19dfca2de78b35dbc22c5dff19593",
      "assetIds": []
    },
    {
      "x": 389,
      "y": 310,
      "size": 1,
      "price": "1011000000000000000000",
      "reserved": "",
      "salt": "0x49fede76ed7a3b048bd37f6bf2d66730dd0b381b3b74dc438b7cd70a46ca127a",
      "assetIds": []
    },
    {
      "x": 389,
      "y": 311,
      "size": 1,
      "price": "1011000000000000000000",
      "reserved": "",
      "salt": "0xf4ae70bb259b36755b513ad31984dd7fed45c70ac74f4b9dac2e4c41550c5cc3",
      "assetIds": []
    },
    {
      "x": 390,
      "y": 222,
      "size": 1,
      "price": "1011000000000000000000",
      "reserved": "",
      "salt": "0x8587ad8d793782edf910718cfcf59073b2ee2dd1aef3370511ffbd95dcd935cb",
      "assetIds": []
    },
    {
      "x": 390,
      "y": 223,
      "size": 1,
      "price": "1011000000000000000000",
      "reserved": "",
      "salt": "0x490eb7bd35420d619764ec10cf6008c7b50b5688edb0596af31d3a9353bc38df",
      "assetIds": []
    },
    {
      "x": 390,
      "y": 224,
      "size": 1,
      "price": "1011000000000000000000",
      "reserved": "",
      "salt": "0x7127dea3c20cf3f6b01e54c95a05586aed779f223ba3a79813b2ddaeb4534da2",
      "assetIds": []
    },
    {
      "x": 390,
      "y": 225,
      "size": 1,
      "price": "1011000000000000000000",
      "reserved": "",
      "salt": "0xafe62f35a8a3e07acc55a8d4e3c5a67d41b8c0efe4d08475843821bd1758d9ca",
      "assetIds": []
    },
    {
      "x": 390,
      "y": 226,
      "size": 1,
      "price": "1011000000000000000000",
      "reserved": "",
      "salt": "0xfc1d2180029ee9a36701f3b3a7a40b26d901fe1404b65b4e821e70eb2e3fdc84",
      "assetIds": []
    },
    {
      "x": 390,
      "y": 227,
      "size": 1,
      "price": "1011000000000000000000",
      "reserved": "",
      "salt": "0xc03a06a7571078bba6fb851e88b8a46fadaa3b7a7a7dd1ae6a0e0c0934dea154",
      "assetIds": []
    },
    {
      "x": 390,
      "y": 234,
      "size": 1,
      "price": "1011000000000000000000",
      "reserved": "",
      "salt": "0x5ab39e8f85c54a14362f7a9d8b6d3a7225c18cc54f66b77aafd9443df72269a9",
      "assetIds": []
    },
    {
      "x": 390,
      "y": 235,
      "size": 1,
      "price": "1011000000000000000000",
      "reserved": "",
      "salt": "0xe5c02f82ed46384668e32fcf2f5ba233650b77e7856327aeeeb8ef5ab7b81549",
      "assetIds": []
    },
    {
      "x": 390,
      "y": 236,
      "size": 1,
      "price": "1011000000000000000000",
      "reserved": "",
      "salt": "0xb917c13cf0866cd6463dfa9d320665f7eabef61073f013554cb218c6438457cf",
      "assetIds": []
    },
    {
      "x": 390,
      "y": 237,
      "size": 1,
      "price": "1011000000000000000000",
      "reserved": "",
      "salt": "0x71fc2f329a32d5a4d0cf65224e52281258e7e256c06a9ee7231c42dfb8836c54",
      "assetIds": []
    },
    {
      "x": 390,
      "y": 238,
      "size": 1,
      "price": "1011000000000000000000",
      "reserved": "",
      "salt": "0x1cd51ac629bb46203f84a3a1950d039498274a9a79f03386949a9f42e35c100c",
      "assetIds": []
    },
    {
      "x": 390,
      "y": 239,
      "size": 1,
      "price": "1011000000000000000000",
      "reserved": "",
      "salt": "0xd696e611df4fa6fd547353939d737a1838056273c11bff6b5a981c01484e5f64",
      "assetIds": []
    },
    {
      "x": 390,
      "y": 252,
      "size": 1,
      "price": "1011000000000000000000",
      "reserved": "",
      "salt": "0x9db0910948539c536d95510198279ddafcd1471b836298d6c8babf7d269e5b6f",
      "assetIds": []
    },
    {
      "x": 390,
      "y": 253,
      "size": 1,
      "price": "1011000000000000000000",
      "reserved": "",
      "salt": "0xd0272800e0121c1dacc56b3e80680d95c38e272843a766da13aae448c4ce44fe",
      "assetIds": []
    },
    {
      "x": 390,
      "y": 254,
      "size": 1,
      "price": "1011000000000000000000",
      "reserved": "",
      "salt": "0xd6ddb5d0c07aeb130f9387907da3c63b3da73aec21af414fdb5f707bd62fe901",
      "assetIds": []
    },
    {
      "x": 390,
      "y": 255,
      "size": 1,
      "price": "1011000000000000000000",
      "reserved": "",
      "salt": "0x6160cf2efa0208561cfdbfa9bd72cd25015fad80da54a7f864b93032c45aebf5",
      "assetIds": []
    },
    {
      "x": 390,
      "y": 256,
      "size": 1,
      "price": "1011000000000000000000",
      "reserved": "",
      "salt": "0x4e03a9359ba38ce460845125d67efc8958895b0ea0b1143b9b0112fc55d92536",
      "assetIds": []
    },
    {
      "x": 390,
      "y": 257,
      "size": 1,
      "price": "1011000000000000000000",
      "reserved": "",
      "salt": "0x8ce2edc17cccd42d4b12d5f39f8a6393c185ed202fb7d5494af0cfb26d465e53",
      "assetIds": []
    },
    {
      "x": 390,
      "y": 261,
      "size": 1,
      "price": "1011000000000000000000",
      "reserved": "",
      "salt": "0x055bdf4ca5b57dc3dc609200263312fb5c60e6bab532cdd5acbfd20f20bf29c2",
      "assetIds": []
    },
    {
      "x": 390,
      "y": 262,
      "size": 1,
      "price": "1011000000000000000000",
      "reserved": "",
      "salt": "0xc38957f50184978002401d0ae7c1980946a82d2539e991bedb870388dd50d955",
      "assetIds": []
    },
    {
      "x": 390,
      "y": 263,
      "size": 1,
      "price": "1011000000000000000000",
      "reserved": "",
      "salt": "0xf08c9872b34dcb465b24c2baf27228c59e8a8d317a8339d4664b8e8b6922d192",
      "assetIds": []
    },
    {
      "x": 390,
      "y": 291,
      "size": 1,
      "price": "1011000000000000000000",
      "reserved": "",
      "salt": "0x5a1baf7c5380ee7833cdf3c39f70d205db43f7bf1e8ca1f08895873af754358e",
      "assetIds": []
    },
    {
      "x": 390,
      "y": 292,
      "size": 1,
      "price": "1011000000000000000000",
      "reserved": "",
      "salt": "0xb087428e43644b454db4ca3c5dcd57117bfd3a144087d04fcf7e67293542e328",
      "assetIds": []
    },
    {
      "x": 390,
      "y": 293,
      "size": 1,
      "price": "1011000000000000000000",
      "reserved": "",
      "salt": "0xa60019026809a3200050fc0e6776d4a2aa227e4377278a2bf588940184e18f46",
      "assetIds": []
    },
    {
      "x": 390,
      "y": 294,
      "size": 1,
      "price": "1011000000000000000000",
      "reserved": "",
      "salt": "0x7e80b08cd266c0a154a1f4ab43a1b5b3ef764e0d7d9c8b0c320d677ceaf558f7",
      "assetIds": []
    },
    {
      "x": 390,
      "y": 295,
      "size": 1,
      "price": "1011000000000000000000",
      "reserved": "",
      "salt": "0x097ba397581596f9693d957e83265c38605e2ce69264431cd93ef56bb9626052",
      "assetIds": []
    },
    {
      "x": 390,
      "y": 296,
      "size": 1,
      "price": "1011000000000000000000",
      "reserved": "",
      "salt": "0x6f1a88c3297d8c5a4b06970a484effc0d1083e3d949b85d6eef206a77736974c",
      "assetIds": []
    },
    {
      "x": 390,
      "y": 297,
      "size": 1,
      "price": "1011000000000000000000",
      "reserved": "",
      "salt": "0x586d6fbcbbe6519f3e76130c8b4400f9d944b7682f6de2645ef59dbbd2e112bf",
      "assetIds": []
    },
    {
      "x": 390,
      "y": 298,
      "size": 1,
      "price": "1011000000000000000000",
      "reserved": "",
      "salt": "0x401d05dc2695793395cb1f70e292bf87de47292554526e4418e75afb3e13a0e1",
      "assetIds": []
    },
    {
      "x": 390,
      "y": 299,
      "size": 1,
      "price": "1011000000000000000000",
      "reserved": "",
      "salt": "0x1973407a7579f789a65717f1937397e0a16d5c5a618e3883aa17feeaabcb8650",
      "assetIds": []
    },
    {
      "x": 390,
      "y": 300,
      "size": 1,
      "price": "1011000000000000000000",
      "reserved": "",
      "salt": "0x6ed20e78fcc025a4505e22fb62ac56087a0f5b62497534135ef22c86846d3a6e",
      "assetIds": []
    },
    {
      "x": 390,
      "y": 301,
      "size": 1,
      "price": "1011000000000000000000",
      "reserved": "",
      "salt": "0x15954d4ac708dc0d8928417727edd7a4ea631a9071ef016f9bcc4eafd29adc0d",
      "assetIds": []
    },
    {
      "x": 390,
      "y": 302,
      "size": 1,
      "price": "1011000000000000000000",
      "reserved": "",
      "salt": "0x7936b327fd2acbf4a835648415085e454c9e18eb44bb58917c425f2d563bf6f5",
      "assetIds": []
    },
    {
      "x": 390,
      "y": 306,
      "size": 1,
      "price": "1011000000000000000000",
      "reserved": "",
      "salt": "0xd4b99c8bd7d350646f0b2867070c2a84ae03fe38fae8bc4094e24bc1c046ae5a",
      "assetIds": []
    },
    {
      "x": 390,
      "y": 307,
      "size": 1,
      "price": "1011000000000000000000",
      "reserved": "",
      "salt": "0x3988b547027a12008e305a62e5e7bda832d6b08317abe7bcaf4fc463ed552eb1",
      "assetIds": []
    },
    {
      "x": 390,
      "y": 308,
      "size": 1,
      "price": "1011000000000000000000",
      "reserved": "",
      "salt": "0x8e77e83f77009b4db41a957526dfab7d5adcb6e5484c2a40017c066e144faee7",
      "assetIds": []
    },
    {
      "x": 391,
      "y": 222,
      "size": 1,
      "price": "1011000000000000000000",
      "reserved": "",
      "salt": "0x7da5b8cccecf7acc9197540b55b99fb83c9def4d4176933fa200fcfa0ebf633d",
      "assetIds": []
    },
    {
      "x": 391,
      "y": 223,
      "size": 1,
      "price": "1011000000000000000000",
      "reserved": "",
      "salt": "0x42323aed91ff9868ad086afccaf5df8aaa7d776f8bd608d248bff6818e036c74",
      "assetIds": []
    },
    {
      "x": 391,
      "y": 224,
      "size": 1,
      "price": "1011000000000000000000",
      "reserved": "",
      "salt": "0x1114308e3ac15ed5a3124e1671119ab524fd6b291b993c3767ad15bf4556737d",
      "assetIds": []
    },
    {
      "x": 391,
      "y": 225,
      "size": 1,
      "price": "1011000000000000000000",
      "reserved": "",
      "salt": "0x603d33ad9d2f678ebc792c11fcae45a4aad693fbb6a6ab152e332aebd08bf913",
      "assetIds": []
    },
    {
      "x": 391,
      "y": 226,
      "size": 1,
      "price": "1011000000000000000000",
      "reserved": "",
      "salt": "0x761e51e4fde82dadb00ff0d0a50f4ae701077eb5c2aafcf603bd8c119c56a8ea",
      "assetIds": []
    },
    {
      "x": 391,
      "y": 227,
      "size": 1,
      "price": "1011000000000000000000",
      "reserved": "",
      "salt": "0x972539d9101d663a76e0cf6c476cabc4ccc0baef9cad3cb2125d7e6fad0aff4d",
      "assetIds": []
    },
    {
      "x": 391,
      "y": 234,
      "size": 1,
      "price": "1011000000000000000000",
      "reserved": "",
      "salt": "0x09535825035de05e596a7f5f81d8d4b23a0fdbee59b1e45a675aef0d4987cc38",
      "assetIds": []
    },
    {
      "x": 391,
      "y": 235,
      "size": 1,
      "price": "1011000000000000000000",
      "reserved": "",
      "salt": "0x383a0ca84996671f4f3c99c8a1ada9cd69617215f36529b8d2bc509f12dd5690",
      "assetIds": []
    },
    {
      "x": 391,
      "y": 236,
      "size": 1,
      "price": "1011000000000000000000",
      "reserved": "",
      "salt": "0x290a9b942724b2d21daf9e45996139902d7d82fb35cdeeb5976008857e86d7e7",
      "assetIds": []
    },
    {
      "x": 391,
      "y": 237,
      "size": 1,
      "price": "1011000000000000000000",
      "reserved": "",
      "salt": "0x16cdd9d2bec6aa9c138f1068da4d9dfd5d82e3c676c7917a57353e62c1fa9095",
      "assetIds": []
    },
    {
      "x": 391,
      "y": 238,
      "size": 1,
      "price": "1011000000000000000000",
      "reserved": "0x7a9fe22691c811ea339d9b73150e6911a5343dca",
      "salt": "0xa0daf0c5dcd054a14569b67bd85a79a997005cb310dcdd87fd47994fe1fdb82c",
      "assetIds": []
    },
    {
      "x": 391,
      "y": 239,
      "size": 1,
      "price": "1011000000000000000000",
      "reserved": "",
      "salt": "0x889e7350d4026db6f72ea8b00bae0303c53aa57604653e6be3eeee0811328f8d",
      "assetIds": []
    },
    {
      "x": 391,
      "y": 252,
      "size": 1,
      "price": "1011000000000000000000",
      "reserved": "",
      "salt": "0x149689a7093c2ddf89f200333a0a894c48e180759b2016e602dccd8a0ad28179",
      "assetIds": []
    },
    {
      "x": 391,
      "y": 253,
      "size": 1,
      "price": "1011000000000000000000",
      "reserved": "",
      "salt": "0x4d59fa0e0e2e6f46f21995c7003a532f4cc481aae33442592c128b0caaa7a9e9",
      "assetIds": []
    },
    {
      "x": 391,
      "y": 254,
      "size": 1,
      "price": "1011000000000000000000",
      "reserved": "",
      "salt": "0xdb7d80223c3c4fda8662dfdf283ac73abfd82574a5c3cfd221e7d9b7c38f8983",
      "assetIds": []
    },
    {
      "x": 391,
      "y": 255,
      "size": 1,
      "price": "1011000000000000000000",
      "reserved": "0x7a9fe22691c811ea339d9b73150e6911a5343dca",
      "salt": "0xb33d5a57e930d54b946cf085b1dee173a4f40719e65ed3248c0ed2567d36e683",
      "assetIds": []
    },
    {
      "x": 391,
      "y": 256,
      "size": 1,
      "price": "1011000000000000000000",
      "reserved": "",
      "salt": "0xfe23a4fb71950ff31a3cbbe4d794a41ab9d1b3ab2c465d4e4790fa20a338f2c4",
      "assetIds": []
    },
    {
      "x": 391,
      "y": 257,
      "size": 1,
      "price": "1011000000000000000000",
      "reserved": "",
      "salt": "0xd16ef97535e5b3e7c995fe39ee8b3d11daa1e6563fde2b516b5330337b42f6f0",
      "assetIds": []
    },
    {
      "x": 391,
      "y": 261,
      "size": 1,
      "price": "1011000000000000000000",
      "reserved": "",
      "salt": "0x16d538e8f7806ffd8e7015ab2062fd76a67ebbd885e7abfc78ad1d816334f5c2",
      "assetIds": []
    },
    {
      "x": 391,
      "y": 262,
      "size": 1,
      "price": "1011000000000000000000",
      "reserved": "",
      "salt": "0xf3fd2b2bf14420fa0f9017500d5eb70a72a15c10e38ba7ced460a65453e03b51",
      "assetIds": []
    },
    {
      "x": 391,
      "y": 263,
      "size": 1,
      "price": "1011000000000000000000",
      "reserved": "",
      "salt": "0x835e180aee7c3c3da9f347446900083c3838615c53ba75b05cbedb2336497dc6",
      "assetIds": []
    },
    {
      "x": 391,
      "y": 291,
      "size": 1,
      "price": "1011000000000000000000",
      "reserved": "",
      "salt": "0x779b7f2061f1875fcfece53c92dce2e80eee7a0d991113cbefeb0bb840922390",
      "assetIds": []
    },
    {
      "x": 391,
      "y": 292,
      "size": 1,
      "price": "1011000000000000000000",
      "reserved": "",
      "salt": "0x20af80afe214d7e2c9f793d92c059360b8dcd93070a36fcb64054703a48f125d",
      "assetIds": []
    },
    {
      "x": 391,
      "y": 293,
      "size": 1,
      "price": "1011000000000000000000",
      "reserved": "",
      "salt": "0x360d0f54af8054d5253677b79aef61e781f03461769a021a818ba1dac718b070",
      "assetIds": []
    },
    {
      "x": 391,
      "y": 294,
      "size": 1,
      "price": "1011000000000000000000",
      "reserved": "",
      "salt": "0x97fe84230c2e0e81eda49883e2eda1dd8e2008673340c608a1468bbf8401ce69",
      "assetIds": []
    },
    {
      "x": 391,
      "y": 295,
      "size": 1,
      "price": "1011000000000000000000",
      "reserved": "",
      "salt": "0x912e796e3d01637cdb1b768662eb6058e61d210796597fa27fcb7648e591253f",
      "assetIds": []
    },
    {
      "x": 391,
      "y": 296,
      "size": 1,
      "price": "1011000000000000000000",
      "reserved": "",
      "salt": "0x8913c09000ad23be996a31b3d5f9a3d3fe4e72f3bd825f0a91eef987d118a0f0",
      "assetIds": []
    },
    {
      "x": 391,
      "y": 297,
      "size": 1,
      "price": "1011000000000000000000",
      "reserved": "",
      "salt": "0xb96b4e64d4bd73e338319df6e71f64eb5aa5f176f7fc105b21576b2e3d43126e",
      "assetIds": []
    },
    {
      "x": 391,
      "y": 298,
      "size": 1,
      "price": "1011000000000000000000",
      "reserved": "",
      "salt": "0x166bd05427056d3d16516453c5eb7c52cb001dade1c97fde1873c4819d16073a",
      "assetIds": []
    },
    {
      "x": 391,
      "y": 299,
      "size": 1,
      "price": "1011000000000000000000",
      "reserved": "",
      "salt": "0xc976e546ace256870781c675db89557c93b15294d8aeaaa13797d88c05e6b7fa",
      "assetIds": []
    },
    {
      "x": 391,
      "y": 300,
      "size": 1,
      "price": "1011000000000000000000",
      "reserved": "",
      "salt": "0x48dc1fba99e9c53fc47d27e318212eec5b486a24509fb8f7c222e7204bc00246",
      "assetIds": []
    },
    {
      "x": 391,
      "y": 301,
      "size": 1,
      "price": "1011000000000000000000",
      "reserved": "",
      "salt": "0x8553e68cbc631c79976c23c74581bc00d07f54109b5d2e7f6d34426ef01c58ed",
      "assetIds": []
    },
    {
      "x": 391,
      "y": 302,
      "size": 1,
      "price": "1011000000000000000000",
      "reserved": "",
      "salt": "0x3a2844faae3d31db4d86ab945c09ff9a73ad75d9a904e9b5d8bad8db87b5168a",
      "assetIds": []
    },
    {
      "x": 391,
      "y": 306,
      "size": 1,
      "price": "1011000000000000000000",
      "reserved": "",
      "salt": "0x6c3d5b77e8a1fcea8b522e70fa5e23965eeb01fcd231b1ffe208f634a5ec81b4",
      "assetIds": []
    },
    {
      "x": 391,
      "y": 307,
      "size": 1,
      "price": "1011000000000000000000",
      "reserved": "",
      "salt": "0x82c75e24cd4b904ea21445fe5122961045ed8241353d0121b7c40d91cd1fbf6c",
      "assetIds": []
    },
    {
      "x": 391,
      "y": 308,
      "size": 1,
      "price": "1011000000000000000000",
      "reserved": "",
      "salt": "0xb9bea0b30cde2eb4e3d3fe43cc6052e39bd7f8c4351022c0bf286fe5a4a89f14",
      "assetIds": []
    },
    {
      "x": 392,
      "y": 222,
      "size": 1,
      "price": "1011000000000000000000",
      "reserved": "",
      "salt": "0x62cd79c6d310572eddcbcfb9548b253b4dbb1e31ffc623df78bd33ca554b8f41",
      "assetIds": []
    },
    {
      "x": 392,
      "y": 223,
      "size": 1,
      "price": "1011000000000000000000",
      "reserved": "",
      "salt": "0x6dbdf3c782f0b192fa91bbac976aed00c90b06fb3d2ae92abb45d5aed8218925",
      "assetIds": []
    },
    {
      "x": 392,
      "y": 224,
      "size": 1,
      "price": "1011000000000000000000",
      "reserved": "",
      "salt": "0xc2224ee65ff7845becb99fdd7bae49ed5a2cd35e88fe8e9f24135ae4d400438d",
      "assetIds": []
    },
    {
      "x": 392,
      "y": 225,
      "size": 1,
      "price": "1011000000000000000000",
      "reserved": "",
      "salt": "0x2317cba68a277222862258a8bdd7f89e718621cabc3e731144554892abb882ea",
      "assetIds": []
    },
    {
      "x": 392,
      "y": 226,
      "size": 1,
      "price": "1011000000000000000000",
      "reserved": "",
      "salt": "0xe85fea1d7b67a41373d24ac213476741c8dac5e060c1b567a730d4e85f5b5baf",
      "assetIds": []
    },
    {
      "x": 392,
      "y": 227,
      "size": 1,
      "price": "1011000000000000000000",
      "reserved": "",
      "salt": "0x107302d237de9aba9ffcec0718c41e2b589da803615b8611ee9cd708063b30d8",
      "assetIds": []
    },
    {
      "x": 392,
      "y": 234,
      "size": 1,
      "price": "1011000000000000000000",
      "reserved": "",
      "salt": "0x71cc25a92a1095be42a4b2e459621f028edc788c792bec17ba471de7ee1d7c03",
      "assetIds": []
    },
    {
      "x": 392,
      "y": 235,
      "size": 1,
      "price": "1011000000000000000000",
      "reserved": "",
      "salt": "0xad9c1bea91629b85e249eb271c31fa145452608e4c56647fa1fb0206c9de32dd",
      "assetIds": []
    },
    {
      "x": 392,
      "y": 236,
      "size": 1,
      "price": "1011000000000000000000",
      "reserved": "",
      "salt": "0x0e3464241c5f99baff11272a9b927bbee203731186100142a59df11286d22d3f",
      "assetIds": []
    },
    {
      "x": 392,
      "y": 237,
      "size": 1,
      "price": "1011000000000000000000",
      "reserved": "",
      "salt": "0x7e156ccae65060fd596acf20c3507e1c709bd96b01baecba50134f845436915d",
      "assetIds": []
    },
    {
      "x": 392,
      "y": 238,
      "size": 1,
      "price": "1011000000000000000000",
      "reserved": "",
      "salt": "0xdfd5bda575be8f1ff6d7b3b24d8a9cd33b83920530f7875d294a44b54c363a26",
      "assetIds": []
    },
    {
      "x": 392,
      "y": 239,
      "size": 1,
      "price": "1011000000000000000000",
      "reserved": "",
      "salt": "0x8fd3e5ec28a8c61b960ebfd5c75f84858dcf10b4e2ba1e8836dc05648afd2019",
      "assetIds": []
    },
    {
      "x": 392,
      "y": 252,
      "size": 1,
      "price": "1011000000000000000000",
      "reserved": "",
      "salt": "0xa2d8e9f07236e6f7e032254b6036ae52d79199b90f35bc725d8fdd271dedd45b",
      "assetIds": []
    },
    {
      "x": 392,
      "y": 253,
      "size": 1,
      "price": "1011000000000000000000",
      "reserved": "",
      "salt": "0x4600d81053af36edd3ccab5f1ac6854364b17d7fac4b09390abf2b1a80eb810b",
      "assetIds": []
    },
    {
      "x": 392,
      "y": 254,
      "size": 1,
      "price": "1011000000000000000000",
      "reserved": "",
      "salt": "0xce7eefe8d94efc23b4c2de1d8d0ac619818e27badc57b24b0e55a32f0b0b949e",
      "assetIds": []
    },
    {
      "x": 392,
      "y": 255,
      "size": 1,
      "price": "1011000000000000000000",
      "reserved": "",
      "salt": "0x2580ffa870dfa7d2a757c9e0f27077b3a8be19f27be72e71bc90e52898a36d88",
      "assetIds": []
    },
    {
      "x": 392,
      "y": 256,
      "size": 1,
      "price": "1011000000000000000000",
      "reserved": "",
      "salt": "0xa615e913a4eb681861535de541a30ae2d54dbfac7d4ddc2b13655f55fe7845a2",
      "assetIds": []
    },
    {
      "x": 392,
      "y": 257,
      "size": 1,
      "price": "1011000000000000000000",
      "reserved": "",
      "salt": "0x71e0aa0180e7dc7fe7a44c9f49bb9ed48b00bd4d1c1627258216d4247e647d37",
      "assetIds": []
    },
    {
      "x": 392,
      "y": 261,
      "size": 1,
      "price": "1011000000000000000000",
      "reserved": "",
      "salt": "0xe402a9908cf5f473b552340f2bc63b70171d6beb8da3eec5dc0a86d0b740c740",
      "assetIds": []
    },
    {
      "x": 392,
      "y": 262,
      "size": 1,
      "price": "1011000000000000000000",
      "reserved": "",
      "salt": "0xb568e636e41d2b75efed5567a9125f805161c4fd98c35409493e37af99d5f347",
      "assetIds": []
    },
    {
      "x": 392,
      "y": 263,
      "size": 1,
      "price": "1011000000000000000000",
      "reserved": "",
      "salt": "0xf486c8bdd44e225c2f8b08342625c43f8a2e8f07bc84bc80c96bd0c1e4c50b5d",
      "assetIds": []
    },
    {
      "x": 392,
      "y": 291,
      "size": 1,
      "price": "1011000000000000000000",
      "reserved": "",
      "salt": "0x387f506de47b076113dd8aca02bd4267d16ceaeaf2a047bb88ea69e57fbf2ec4",
      "assetIds": []
    },
    {
      "x": 392,
      "y": 292,
      "size": 1,
      "price": "1011000000000000000000",
      "reserved": "",
      "salt": "0x6d98ddc965899a9739ec6930e2a453d830b63390807d6015fe964efb77a70d87",
      "assetIds": []
    },
    {
      "x": 392,
      "y": 293,
      "size": 1,
      "price": "1011000000000000000000",
      "reserved": "",
      "salt": "0x80a3db849d8ca673e5ab24463a7b101b0a2ad6f1b84eb476b055222f9f160377",
      "assetIds": []
    },
    {
      "x": 392,
      "y": 294,
      "size": 1,
      "price": "1011000000000000000000",
      "reserved": "",
      "salt": "0x763793365ef8e46759c27d3444d77b9f5621f2781847ad5d3078f76345c83e97",
      "assetIds": []
    },
    {
      "x": 392,
      "y": 295,
      "size": 1,
      "price": "1011000000000000000000",
      "reserved": "",
      "salt": "0x2926fe6b984eaa98c2527258b8bb6b4b684c040bb4b73796e03143be687a9d9c",
      "assetIds": []
    },
    {
      "x": 392,
      "y": 296,
      "size": 1,
      "price": "1011000000000000000000",
      "reserved": "",
      "salt": "0x9902d18cf8e7dedf5de6ea2dda13f26fd2465627ab6dbd3447056df9c225b912",
      "assetIds": []
    },
    {
      "x": 392,
      "y": 297,
      "size": 1,
      "price": "1011000000000000000000",
      "reserved": "",
      "salt": "0xcadb02e51b04aff72ba74918b0c87e482c4ee6746b7e1a2df0ad2e16a44a4055",
      "assetIds": []
    },
    {
      "x": 392,
      "y": 298,
      "size": 1,
      "price": "1011000000000000000000",
      "reserved": "",
      "salt": "0x5228ac50d55ec40bfa794a443df7268216a0ab3afbc78339c442be3321858fae",
      "assetIds": []
    },
    {
      "x": 392,
      "y": 299,
      "size": 1,
      "price": "1011000000000000000000",
      "reserved": "",
      "salt": "0x6b1a9949b7221561315c65075e7e49a4ff60402bb9e61c640512598fcb7456f7",
      "assetIds": []
    },
    {
      "x": 392,
      "y": 300,
      "size": 1,
      "price": "1011000000000000000000",
      "reserved": "",
      "salt": "0xf4758b280094a2a142a31b02c18aa453581fd9c54126930516dce6ce04da01b8",
      "assetIds": []
    },
    {
      "x": 392,
      "y": 301,
      "size": 1,
      "price": "1011000000000000000000",
      "reserved": "",
      "salt": "0x6465541c83ad789dbce299f1fe0bd7389bb303391f2f691a6b68220b3924cab8",
      "assetIds": []
    },
    {
      "x": 392,
      "y": 302,
      "size": 1,
      "price": "1011000000000000000000",
      "reserved": "",
      "salt": "0x89205c0d5d241873ebd54d98b6c712a48412290f3075533630c5b7a9d33ba743",
      "assetIds": []
    },
    {
      "x": 392,
      "y": 306,
      "size": 1,
      "price": "1011000000000000000000",
      "reserved": "",
      "salt": "0x0a7acd660fcb167ab170f2a8603710d1d5b7b0ef9773b96638dab4e0981a552c",
      "assetIds": []
    },
    {
      "x": 392,
      "y": 307,
      "size": 1,
      "price": "1011000000000000000000",
      "reserved": "",
      "salt": "0x775527015f995629a747372dcc3dd3fbb98fcb1f005f83b62db3083822d3b6b5",
      "assetIds": []
    },
    {
      "x": 392,
      "y": 308,
      "size": 1,
      "price": "1011000000000000000000",
      "reserved": "",
      "salt": "0x9ba1d402099381733f6cea386d88f855150b1265bed18bb214e96de3db779f15",
      "assetIds": []
    },
    {
      "x": 393,
      "y": 222,
      "size": 1,
      "price": "1011000000000000000000",
      "reserved": "",
      "salt": "0x2acd2c882c54fa62d8ee0c00010d061e0254c837fbf791b1f47734c3c21e3a6f",
      "assetIds": []
    },
    {
      "x": 393,
      "y": 223,
      "size": 1,
      "price": "1011000000000000000000",
      "reserved": "",
      "salt": "0x5b1374f801dbe875b5066c6050823d39c08256f658859a525e384dace137507b",
      "assetIds": []
    },
    {
      "x": 393,
      "y": 224,
      "size": 1,
      "price": "1011000000000000000000",
      "reserved": "",
      "salt": "0xcb6830900a2e7387b5ca2bc3bee34823cd7b3ce0a3e8f0256e4d431dfa64122a",
      "assetIds": []
    },
    {
      "x": 393,
      "y": 225,
      "size": 1,
      "price": "1011000000000000000000",
      "reserved": "",
      "salt": "0xd2826e15e0f0ae7c517eba652fee5c2fc420e9027d8c457942f359ccea079931",
      "assetIds": []
    },
    {
      "x": 393,
      "y": 226,
      "size": 1,
      "price": "1011000000000000000000",
      "reserved": "",
      "salt": "0x1cabe6ada90aacac09a266691e04b30cb80b02d795a6367453b198c75570988f",
      "assetIds": []
    },
    {
      "x": 393,
      "y": 227,
      "size": 1,
      "price": "1011000000000000000000",
      "reserved": "",
      "salt": "0xa0cff0dbce4784cdb2df57b2e8799f6470522edc9021558cc31fc7df315d1ee5",
      "assetIds": []
    },
    {
      "x": 393,
      "y": 234,
      "size": 1,
      "price": "1011000000000000000000",
      "reserved": "",
      "salt": "0xcf2d67be2a47f115680dd6dc5ff6b6ff06ae880e27a6bcbc2ed948abebdad3a6",
      "assetIds": []
    },
    {
      "x": 393,
      "y": 235,
      "size": 1,
      "price": "1011000000000000000000",
      "reserved": "",
      "salt": "0x3cdb5f616eff7b7f3cad78ff90bae81ef760b8695e2eee73b14dfbdad639c52d",
      "assetIds": []
    },
    {
      "x": 393,
      "y": 236,
      "size": 1,
      "price": "1011000000000000000000",
      "reserved": "",
      "salt": "0xec18883ccb4f95a5e3bef0b2afc0a8a620c5a1de6b1b9d19c7ea5f87b3c4a87d",
      "assetIds": []
    },
    {
      "x": 393,
      "y": 237,
      "size": 1,
      "price": "1011000000000000000000",
      "reserved": "",
      "salt": "0x8755f0a95ab57ffb6068fc4169f59d5a53876c9b7eae2f2f3a26fbf062019407",
      "assetIds": []
    },
    {
      "x": 393,
      "y": 238,
      "size": 1,
      "price": "1011000000000000000000",
      "reserved": "",
      "salt": "0x68726d20a2cee867afcd7d21ceaf918828458767f7e0a0523bf7fe18495d17d9",
      "assetIds": []
    },
    {
      "x": 393,
      "y": 239,
      "size": 1,
      "price": "1011000000000000000000",
      "reserved": "",
      "salt": "0x6c52d4ce65ba1a0a3d378d01f35beae893137c50c91ad5ea57ac017746dd7b08",
      "assetIds": []
    },
    {
      "x": 393,
      "y": 252,
      "size": 1,
      "price": "1011000000000000000000",
      "reserved": "",
      "salt": "0xb81b869cdc42d2fb846399b1b0914ba9c97546074ae4020ae67df61c889f6e86",
      "assetIds": []
    },
    {
      "x": 393,
      "y": 253,
      "size": 1,
      "price": "1011000000000000000000",
      "reserved": "",
      "salt": "0xcd71147aa86ba5374f972db402515e0c301e5f13f041018621011732b05e71a6",
      "assetIds": []
    },
    {
      "x": 393,
      "y": 254,
      "size": 1,
      "price": "1011000000000000000000",
      "reserved": "",
      "salt": "0x0b55c1583ecb346a5f2f7e8ef75518a8b587594f73895674cf933520f1534bb0",
      "assetIds": []
    },
    {
      "x": 393,
      "y": 255,
      "size": 1,
      "price": "1011000000000000000000",
      "reserved": "",
      "salt": "0x43e4aee5ea37765a45524e08e5cf0499a775801d01d897bf40c606ef6c97151b",
      "assetIds": []
    },
    {
      "x": 393,
      "y": 256,
      "size": 1,
      "price": "1011000000000000000000",
      "reserved": "",
      "salt": "0x5615a743a671a4757ca4979cafb23073754e99c13959d8c546deff92497568c2",
      "assetIds": []
    },
    {
      "x": 393,
      "y": 257,
      "size": 1,
      "price": "1011000000000000000000",
      "reserved": "",
      "salt": "0x2fd0f9373d924e3ea3d5b152e8d65408fa0ee6a7f57046ad20dfe2af4baae920",
      "assetIds": []
    },
    {
      "x": 393,
      "y": 258,
      "size": 1,
      "price": "1011000000000000000000",
      "reserved": "",
      "salt": "0x1de39df0e56f23ba65b50c26016f57b73a375807190bb0fcbfd4ab2799d2fa76",
      "assetIds": []
    },
    {
      "x": 393,
      "y": 259,
      "size": 1,
      "price": "1011000000000000000000",
      "reserved": "",
      "salt": "0x6b1506b47c8622c90e8b52e963ed1702bcad65f85fa61c1a6390ccb609215176",
      "assetIds": []
    },
    {
      "x": 393,
      "y": 260,
      "size": 1,
      "price": "1011000000000000000000",
      "reserved": "",
      "salt": "0xe359eb8dfceeb98cc581735724424d6a4e741287242d15c85e6f9882cb45d6c0",
      "assetIds": []
    },
    {
      "x": 393,
      "y": 288,
      "size": 1,
      "price": "1011000000000000000000",
      "reserved": "",
      "salt": "0xb22b92608eeb7209ac6b0bd17b1ca3e79ffd08486067cc3813f0cfae36b451b7",
      "assetIds": []
    },
    {
      "x": 393,
      "y": 289,
      "size": 1,
      "price": "1011000000000000000000",
      "reserved": "",
      "salt": "0x00c7a371bff3fb851fc94e9c7f11de5079616d9a4a0dc4f70b7684d7b4ce7a3b",
      "assetIds": []
    },
    {
      "x": 393,
      "y": 290,
      "size": 1,
      "price": "1011000000000000000000",
      "reserved": "",
      "salt": "0xc9da53f7fcd9049848320b7491f7e09cb80a6b642fb50651c5577c628a65517d",
      "assetIds": []
    },
    {
      "x": 393,
      "y": 291,
      "size": 1,
      "price": "1011000000000000000000",
      "reserved": "",
      "salt": "0x99fc1dd940eac72482f592020e9582c244ddacaa0394344aba05f08688551c76",
      "assetIds": []
    },
    {
      "x": 393,
      "y": 292,
      "size": 1,
      "price": "1011000000000000000000",
      "reserved": "",
      "salt": "0x97ece4c0d56648ed0b8ec48af244ae6806116bf4537a5f8992077cba86fc4395",
      "assetIds": []
    },
    {
      "x": 393,
      "y": 293,
      "size": 1,
      "price": "1011000000000000000000",
      "reserved": "",
      "salt": "0x6a480778eb3e1728211a2c556d7393a1f133b34f8e540fa624804fcf2b8f890b",
      "assetIds": []
    },
    {
      "x": 393,
      "y": 294,
      "size": 1,
      "price": "1011000000000000000000",
      "reserved": "",
      "salt": "0x4e9b2fe27f62739408eac28afebad22779c912f31b9af082e2aa8ca2f3600241",
      "assetIds": []
    },
    {
      "x": 393,
      "y": 295,
      "size": 1,
      "price": "1011000000000000000000",
      "reserved": "",
      "salt": "0xa4f2542adf82433ed7f0f776e8ca75efede77a5d0f61f6d634c9d1ca1ac819f9",
      "assetIds": []
    },
    {
      "x": 393,
      "y": 296,
      "size": 1,
      "price": "1011000000000000000000",
      "reserved": "",
      "salt": "0xb1b0baae8ccb0393e63a49c3da19ff2e4191909f74038f83d8601329ca4b6ed0",
      "assetIds": []
    },
    {
      "x": 393,
      "y": 300,
      "size": 1,
      "price": "1011000000000000000000",
      "reserved": "",
      "salt": "0x2fd93304dbd3fcfdc2a7a53be3d1ac7cfdc55b2fef89844e656f1382be3d0789",
      "assetIds": []
    },
    {
      "x": 393,
      "y": 301,
      "size": 1,
      "price": "1011000000000000000000",
      "reserved": "",
      "salt": "0x5c8a6855eb7f4e685954b074bfa287e094f8a9c4640d886ff3b601477c89f2ed",
      "assetIds": []
    },
    {
      "x": 393,
      "y": 302,
      "size": 1,
      "price": "1011000000000000000000",
      "reserved": "",
      "salt": "0x57c02d308f872a3975756b469956fa9cb5a321effd8187f3e088a6a43a834351",
      "assetIds": []
    },
    {
      "x": 393,
      "y": 303,
      "size": 1,
      "price": "1011000000000000000000",
      "reserved": "",
      "salt": "0x527f865804fbdb2bd9c96b0b732fe395acefb64b3a0d40525c5e0658d75c3be0",
      "assetIds": []
    },
    {
      "x": 393,
      "y": 304,
      "size": 1,
      "price": "1011000000000000000000",
      "reserved": "",
      "salt": "0x1983247bd9db5e63b3d431874ee0a775bf1684a48108a92ffb612f4d99e3164d",
      "assetIds": []
    },
    {
      "x": 393,
      "y": 305,
      "size": 1,
      "price": "1011000000000000000000",
      "reserved": "",
      "salt": "0x13e825ccce725825f61c5c7d93037f00bfb1d1cea6b070cbd7376b0e445fb318",
      "assetIds": []
    },
    {
      "x": 393,
      "y": 306,
      "size": 1,
      "price": "1011000000000000000000",
      "reserved": "",
      "salt": "0x662b4142571cb2b81f6a58b1c359a0dcfb5c26466013cd58d54bccef0d179c46",
      "assetIds": []
    },
    {
      "x": 393,
      "y": 307,
      "size": 1,
      "price": "1011000000000000000000",
      "reserved": "",
      "salt": "0x2771b0de8c28bf4dbeea565b49a504c4785b724a7b721f96e532748cfd4210f6",
      "assetIds": []
    },
    {
      "x": 393,
      "y": 308,
      "size": 1,
      "price": "1011000000000000000000",
      "reserved": "",
      "salt": "0x6c55eb5a44b86adba3fbef77330d0595cfecf4e474ada1d84839d3257d2902f6",
      "assetIds": []
    },
    {
      "x": 393,
      "y": 309,
      "size": 1,
      "price": "1011000000000000000000",
      "reserved": "",
      "salt": "0x2932b0614fafa759e1dc25648a9b7ee1a95a371bbf50f70ebfbc6ca86096df29",
      "assetIds": []
    },
    {
      "x": 393,
      "y": 310,
      "size": 1,
      "price": "1011000000000000000000",
      "reserved": "",
      "salt": "0xc4f5a7d38fa5651d9d6f5097137a1d383f8ed67de34afc6b9c83ee9083998c1c",
      "assetIds": []
    },
    {
      "x": 393,
      "y": 311,
      "size": 1,
      "price": "1011000000000000000000",
      "reserved": "",
      "salt": "0xdba43c457d655fdbf722abe3f6ae73a49617f91be1c1a50d73cebb20207aa319",
      "assetIds": []
    },
    {
      "x": 394,
      "y": 222,
      "size": 1,
      "price": "1011000000000000000000",
      "reserved": "",
      "salt": "0x7a2c5edcd006dfd46346f9e3395e22d9c4395e6f101d18ff089bd9404a45b02d",
      "assetIds": []
    },
    {
      "x": 394,
      "y": 223,
      "size": 1,
      "price": "1011000000000000000000",
      "reserved": "",
      "salt": "0x96f1989864a8d195b020297919bf9f630beda2d42356cb429638eb216d71f6f5",
      "assetIds": []
    },
    {
      "x": 394,
      "y": 224,
      "size": 1,
      "price": "1011000000000000000000",
      "reserved": "",
      "salt": "0x615018406c84a1c4f0eac742d4296518659b8a6942283814dbe8216db8c159f4",
      "assetIds": []
    },
    {
      "x": 394,
      "y": 225,
      "size": 1,
      "price": "1011000000000000000000",
      "reserved": "",
      "salt": "0x6525f0c94292e34e39d0daf43b841a9961028425a1d923b1662a47d53a586197",
      "assetIds": []
    },
    {
      "x": 394,
      "y": 226,
      "size": 1,
      "price": "1011000000000000000000",
      "reserved": "",
      "salt": "0x92250ac65448ef8ed2b7de50c99dca7d99de21c2795f6bd54fd27d109e1684d5",
      "assetIds": []
    },
    {
      "x": 394,
      "y": 227,
      "size": 1,
      "price": "1011000000000000000000",
      "reserved": "",
      "salt": "0x49a40ccd16f1a6181ff44fd83134437a7b62844330b88f980e5e8aaf1f514c35",
      "assetIds": []
    },
    {
      "x": 394,
      "y": 234,
      "size": 1,
      "price": "1011000000000000000000",
      "reserved": "",
      "salt": "0xd5c77dc175e73e7b60975d5fce46d3d6d047c98f09e231d46236913bb2940623",
      "assetIds": []
    },
    {
      "x": 394,
      "y": 235,
      "size": 1,
      "price": "1011000000000000000000",
      "reserved": "",
      "salt": "0x0bef33edb07f9411878b39b98cfcec7f364aaf18869bbbdb8eced1495aaa987f",
      "assetIds": []
    },
    {
      "x": 394,
      "y": 236,
      "size": 1,
      "price": "1011000000000000000000",
      "reserved": "",
      "salt": "0x27667dc8d1eb749756c1562e161a2ec278e7955e9659b57577b67dd3e3a43c0b",
      "assetIds": []
    },
    {
      "x": 394,
      "y": 237,
      "size": 1,
      "price": "1011000000000000000000",
      "reserved": "",
      "salt": "0x889f5f61d0aaa9990d9557869a3975359fdaf63b9fa6b920118c4097a9013bba",
      "assetIds": []
    },
    {
      "x": 394,
      "y": 238,
      "size": 1,
      "price": "1011000000000000000000",
      "reserved": "",
      "salt": "0x9b349db8d4ffcf9ec00349f4534f2d14f230312b7c4d697ed02384f38b15c106",
      "assetIds": []
    },
    {
      "x": 394,
      "y": 239,
      "size": 1,
      "price": "1011000000000000000000",
      "reserved": "",
      "salt": "0x04b227a04d7dcf8e0bb204592aeb5290fbf4fa6cc77131459a3fb5031506ef45",
      "assetIds": []
    },
    {
      "x": 394,
      "y": 252,
      "size": 1,
      "price": "1011000000000000000000",
      "reserved": "",
      "salt": "0x3cf488ace6dcd491099debe9f7171412963994c091dc3d1bb35cdde0a8f467ab",
      "assetIds": []
    },
    {
      "x": 394,
      "y": 253,
      "size": 1,
      "price": "1011000000000000000000",
      "reserved": "",
      "salt": "0xcf620823aec000e745368b550e8e3e7f2e4b8d1cad3aeee4342b5fd3cfdb9a5a",
      "assetIds": []
    },
    {
      "x": 394,
      "y": 254,
      "size": 1,
      "price": "1011000000000000000000",
      "reserved": "",
      "salt": "0x87a7b99674fcc90dcbab530c0db284cbf7ea25d4e8c5d72c14ee28ff6ed36b78",
      "assetIds": []
    },
    {
      "x": 394,
      "y": 255,
      "size": 1,
      "price": "1011000000000000000000",
      "reserved": "",
      "salt": "0x1cb932b95f339ce784b46816c3a48152f3f0d6241eeb139808e59269c393ac53",
      "assetIds": []
    },
    {
      "x": 394,
      "y": 256,
      "size": 1,
      "price": "1011000000000000000000",
      "reserved": "",
      "salt": "0x87e01a5e0cdeaa247cafa474163c268f1a1a020ffbc62fb60968a924fe462d3f",
      "assetIds": []
    },
    {
      "x": 394,
      "y": 257,
      "size": 1,
      "price": "1011000000000000000000",
      "reserved": "",
      "salt": "0x79a270d3b6094a47cceeedbd0c033dca81e783f72104068f67f8f83d6fdb1061",
      "assetIds": []
    },
    {
      "x": 394,
      "y": 258,
      "size": 1,
      "price": "1011000000000000000000",
      "reserved": "",
      "salt": "0xbcef97cefe3efff563027455f76c1e040bf08b4552cd03855f5603b6396e4434",
      "assetIds": []
    },
    {
      "x": 394,
      "y": 259,
      "size": 1,
      "price": "1011000000000000000000",
      "reserved": "",
      "salt": "0x775f28a298354bbb7df95b7ba5d666ca131c3a4577f5f60ac377211d000f5653",
      "assetIds": []
    },
    {
      "x": 394,
      "y": 260,
      "size": 1,
      "price": "1011000000000000000000",
      "reserved": "",
      "salt": "0x82ffbc1109076f5af8eb17684c2b59e86928600497bfb426a58c1d177cc3aa38",
      "assetIds": []
    },
    {
      "x": 394,
      "y": 288,
      "size": 1,
      "price": "1011000000000000000000",
      "reserved": "",
      "salt": "0x4cbbc6d14927df44ce0f168695beea536268d363bd8c6d07beb79ff16a42edef",
      "assetIds": []
    },
    {
      "x": 394,
      "y": 289,
      "size": 1,
      "price": "1011000000000000000000",
      "reserved": "0x7a9fe22691c811ea339d9b73150e6911a5343dca",
      "salt": "0xab3a0a6411e4efec73891b1fd7f8e89f97524fd7caff4f2ac62e4f867f761354",
      "assetIds": []
    },
    {
      "x": 394,
      "y": 290,
      "size": 1,
      "price": "1011000000000000000000",
      "reserved": "",
      "salt": "0x8dbcc084a4254718a95e3739fbb9d580c678aab5817269e4f3250d8a2fb63236",
      "assetIds": []
    },
    {
      "x": 394,
      "y": 291,
      "size": 1,
      "price": "1011000000000000000000",
      "reserved": "",
      "salt": "0xb361a10b4bfea752cb59aa89d90c9f900bc30d39efd0088aad2169946191da4c",
      "assetIds": []
    },
    {
      "x": 394,
      "y": 292,
      "size": 1,
      "price": "1011000000000000000000",
      "reserved": "",
      "salt": "0x6c8572869ecd090c1a9888724fe078e227f81d73fb8a8469b934470c4606b254",
      "assetIds": []
    },
    {
      "x": 394,
      "y": 293,
      "size": 1,
      "price": "1011000000000000000000",
      "reserved": "",
      "salt": "0x7161d2b3196357404bfa50e11788d522817c191157d2e50bf4985ae25185b9d1",
      "assetIds": []
    },
    {
      "x": 394,
      "y": 294,
      "size": 1,
      "price": "1011000000000000000000",
      "reserved": "",
      "salt": "0xef045eb2535e6150161fac67d3f4a5ec5bc9211df41321daaaa1813b1792167d",
      "assetIds": []
    },
    {
      "x": 394,
      "y": 295,
      "size": 1,
      "price": "1011000000000000000000",
      "reserved": "",
      "salt": "0x4d52856a0b6516efdce99558740980917b72d5a8e74719236ff94bcddf42db5c",
      "assetIds": []
    },
    {
      "x": 394,
      "y": 296,
      "size": 1,
      "price": "1011000000000000000000",
      "reserved": "",
      "salt": "0x352c5c4c818b5e1653cda28856c3a063a0cba13c09efbef793adf42708e01def",
      "assetIds": []
    },
    {
      "x": 394,
      "y": 300,
      "size": 1,
      "price": "1011000000000000000000",
      "reserved": "",
      "salt": "0xb44b3f68cc1a58b4c439d4ed5bc75ff0847c6ea30fc0f4d446efb7992ce1d147",
      "assetIds": []
    },
    {
      "x": 394,
      "y": 301,
      "size": 1,
      "price": "1011000000000000000000",
      "reserved": "",
      "salt": "0x4b7dde89ccc9d93e048c833f6d0e72af0ff14b1eca551e2212b06d42bd933fa5",
      "assetIds": []
    },
    {
      "x": 394,
      "y": 302,
      "size": 1,
      "price": "1011000000000000000000",
      "reserved": "",
      "salt": "0xc4ce6ee97b09f5654c74b7108ba56acf2e39014ac82b8a5c0c63b56efccb9ecf",
      "assetIds": []
    },
    {
      "x": 394,
      "y": 303,
      "size": 1,
      "price": "1011000000000000000000",
      "reserved": "",
      "salt": "0x76accd1aab1f7c6f3088162fffcf140d0d6a9f833e0d10abf3d54bd5f421d2d8",
      "assetIds": []
    },
    {
      "x": 394,
      "y": 304,
      "size": 1,
      "price": "1011000000000000000000",
      "reserved": "",
      "salt": "0xbbf21f41a209a125ef5ba468e642ede0ef9b0c336802cf43783e6da4d4ca5b5f",
      "assetIds": []
    },
    {
      "x": 394,
      "y": 305,
      "size": 1,
      "price": "1011000000000000000000",
      "reserved": "",
      "salt": "0xf94cab6a9cf07805d067d01af000247682b750f07d26618f6da7998a3b3c5fef",
      "assetIds": []
    },
    {
      "x": 394,
      "y": 306,
      "size": 1,
      "price": "1011000000000000000000",
      "reserved": "",
      "salt": "0xd0ef2a0d62a7675c4c63ed7a150cd581c4365500e7b1fd1f52d848e48ec4bc16",
      "assetIds": []
    },
    {
      "x": 394,
      "y": 307,
      "size": 1,
      "price": "1011000000000000000000",
      "reserved": "0x7a9fe22691c811ea339d9b73150e6911a5343dca",
      "salt": "0xb357221cf7e10b5755c2fbe7ee94c5b4d8574c46abc35691f7491868e5155428",
      "assetIds": []
    },
    {
      "x": 394,
      "y": 308,
      "size": 1,
      "price": "1011000000000000000000",
      "reserved": "",
      "salt": "0x879ac475fc922ed1b21bdd19f98bfccaed324db40463f0f028bee2b1dec55cd6",
      "assetIds": []
    },
    {
      "x": 394,
      "y": 309,
      "size": 1,
      "price": "1011000000000000000000",
      "reserved": "",
      "salt": "0xdcec4a89c24bedd40c37165d28da0ca441715fb5243416c1bdef98f5594bd2f2",
      "assetIds": []
    },
    {
      "x": 394,
      "y": 310,
      "size": 1,
      "price": "1011000000000000000000",
      "reserved": "",
      "salt": "0x6f2f654b2aa9bde240f9960e58d6f53a9d3f4ab7810a2d9fca280ef1c5feaa81",
      "assetIds": []
    },
    {
      "x": 394,
      "y": 311,
      "size": 1,
      "price": "1011000000000000000000",
      "reserved": "",
      "salt": "0x6ec741a8e81c3aba32c87d8941c0ce32d50623d75d2fd4aa237a1504a146fe3d",
      "assetIds": []
    },
    {
      "x": 395,
      "y": 222,
      "size": 1,
      "price": "1011000000000000000000",
      "reserved": "",
      "salt": "0x093cd09d4dd7db81c2b0fb681a9fb8bf0e70e45a3cab8164ba64ab2cc964f31a",
      "assetIds": []
    },
    {
      "x": 395,
      "y": 223,
      "size": 1,
      "price": "1011000000000000000000",
      "reserved": "0x7a9fe22691c811ea339d9b73150e6911a5343dca",
      "salt": "0x40b3c6bd821f37f37b24c92614797b1d4160ac48a9340cd4a7ca4dcbc706c7a8",
      "assetIds": []
    },
    {
      "x": 395,
      "y": 224,
      "size": 1,
      "price": "1011000000000000000000",
      "reserved": "",
      "salt": "0xcf2ea05c84d345de141d6b39f6be63d6e2c3c4f26880aaff6c02635e2888f61c",
      "assetIds": []
    },
    {
      "x": 395,
      "y": 225,
      "size": 1,
      "price": "1011000000000000000000",
      "reserved": "",
      "salt": "0x68029a899a2ae630e18a47dcbb3cb265dafe610a482f1503d1021fb3c998d04c",
      "assetIds": []
    },
    {
      "x": 395,
      "y": 226,
      "size": 1,
      "price": "1011000000000000000000",
      "reserved": "",
      "salt": "0x8819fcaacfd786f43105d18cd519e90a2bf281bf0a5be0aafa3965b4d73c740b",
      "assetIds": []
    },
    {
      "x": 395,
      "y": 227,
      "size": 1,
      "price": "1011000000000000000000",
      "reserved": "",
      "salt": "0xf04bc3ae695bf34cc98fcf223566a7630e111e022c0dab278d3e62c2ff0d9588",
      "assetIds": []
    },
    {
      "x": 395,
      "y": 234,
      "size": 1,
      "price": "1011000000000000000000",
      "reserved": "",
      "salt": "0x2f844cf2392f7e75af85c4f438f1f7298cdc540503aa174fb7f363044e4f9dc2",
      "assetIds": []
    },
    {
      "x": 395,
      "y": 235,
      "size": 1,
      "price": "1011000000000000000000",
      "reserved": "",
      "salt": "0x0a97d95f1682fc270eb9320948c5bdb8f1d59762fc2d6afbb0e98b18bf8660af",
      "assetIds": []
    },
    {
      "x": 395,
      "y": 236,
      "size": 1,
      "price": "1011000000000000000000",
      "reserved": "",
      "salt": "0x9e1e81975383c83dcec2c6ae52a83c0e5babc14a796395c560bed7db5a7a047f",
      "assetIds": []
    },
    {
      "x": 395,
      "y": 237,
      "size": 1,
      "price": "1011000000000000000000",
      "reserved": "",
      "salt": "0x400357622a5ec91a21d7ea3cbbc1b1f3b6ac840b30c1495854f4e3537e5878f9",
      "assetIds": []
    },
    {
      "x": 395,
      "y": 238,
      "size": 1,
      "price": "1011000000000000000000",
      "reserved": "",
      "salt": "0x6db5de565275715e5e3f639a6d119f145ce310fc97f072f4f4cbaf3fd9c9071a",
      "assetIds": []
    },
    {
      "x": 395,
      "y": 239,
      "size": 1,
      "price": "1011000000000000000000",
      "reserved": "",
      "salt": "0xabf87353d108f0ea72e940bb66da0992b66b0f2f0931f642a9cb116387ab57d4",
      "assetIds": []
    },
    {
      "x": 395,
      "y": 252,
      "size": 1,
      "price": "1011000000000000000000",
      "reserved": "",
      "salt": "0x64a178cb77c13a10a57566b1ec5467c468a0d4a47b06798fa1fd791d6544ecbc",
      "assetIds": []
    },
    {
      "x": 395,
      "y": 253,
      "size": 1,
      "price": "1011000000000000000000",
      "reserved": "",
      "salt": "0x909176b37c9039a945e203d273f3c3ae9e345a04624512283391fc58816a5e89",
      "assetIds": []
    },
    {
      "x": 395,
      "y": 254,
      "size": 1,
      "price": "1011000000000000000000",
      "reserved": "",
      "salt": "0xe385b6e697492c5bf297017f13d584f734394745c40aea0dfb0a5dab150b1580",
      "assetIds": []
    },
    {
      "x": 395,
      "y": 255,
      "size": 1,
      "price": "1011000000000000000000",
      "reserved": "",
      "salt": "0xc26e7397ba447c22b663915d48ce7fc36761376990d0526c00670d870d83bfcf",
      "assetIds": []
    },
    {
      "x": 395,
      "y": 256,
      "size": 1,
      "price": "1011000000000000000000",
      "reserved": "",
      "salt": "0x1b6e62be74aff94b6e3282a7659f62f11cef5d6f2324bf6ebba130055a6141a0",
      "assetIds": []
    },
    {
      "x": 395,
      "y": 257,
      "size": 1,
      "price": "1011000000000000000000",
      "reserved": "",
      "salt": "0x178c9a4ffca08dc892ff983c241c0bd9cba381b2e8e986e6b584f07f97054e35",
      "assetIds": []
    },
    {
      "x": 395,
      "y": 258,
      "size": 1,
      "price": "1011000000000000000000",
      "reserved": "",
      "salt": "0xf9bf5367b724fbb31eddc2154d94ceec785123cf40301345c54d77a0a9a36549",
      "assetIds": []
    },
    {
      "x": 395,
      "y": 259,
      "size": 1,
      "price": "1011000000000000000000",
      "reserved": "",
      "salt": "0x0797b50fbedc5f75c00012f55071e40e27029471698c238b3cee493a269e0cd3",
      "assetIds": []
    },
    {
      "x": 395,
      "y": 260,
      "size": 1,
      "price": "1011000000000000000000",
      "reserved": "",
      "salt": "0x0c9fa51395f076f489ba0ccf87ccee4e2b10a7da53e4728b1949857aaa14fe28",
      "assetIds": []
    },
    {
      "x": 395,
      "y": 288,
      "size": 1,
      "price": "1011000000000000000000",
      "reserved": "",
      "salt": "0x8fcfee399c89b5263ed8afe4180b12a834d222a76d755d954a62eff0c5d3ca87",
      "assetIds": []
    },
    {
      "x": 395,
      "y": 289,
      "size": 1,
      "price": "1011000000000000000000",
      "reserved": "",
      "salt": "0x5061b5e75b67b91e6595694c262de7fa8ba0c1b1c6171b25bf3db02f41fc35ce",
      "assetIds": []
    },
    {
      "x": 395,
      "y": 290,
      "size": 1,
      "price": "1011000000000000000000",
      "reserved": "",
      "salt": "0x1ec722c39d7ad39d8d94496b2b719f0a02051883cc50f3f4a4f335ffa359bdcc",
      "assetIds": []
    },
    {
      "x": 395,
      "y": 291,
      "size": 1,
      "price": "1011000000000000000000",
      "reserved": "",
      "salt": "0x41f21e7ffc6b33e7d9cf41b94ba2b9da599f71c8af3f16228e95b0aa6c3667ad",
      "assetIds": []
    },
    {
      "x": 395,
      "y": 292,
      "size": 1,
      "price": "1011000000000000000000",
      "reserved": "",
      "salt": "0x1a9d8ec168c8715ba122e89b24279de49c46534a3dbd913807b2ade4314dbf09",
      "assetIds": []
    },
    {
      "x": 395,
      "y": 293,
      "size": 1,
      "price": "1011000000000000000000",
      "reserved": "",
      "salt": "0xd454ee3af96d81044f80355b754da411935cbc6cd5b25c29c06528b2479314d6",
      "assetIds": []
    },
    {
      "x": 395,
      "y": 294,
      "size": 1,
      "price": "1011000000000000000000",
      "reserved": "",
      "salt": "0x4a84eab74d4c1ebc81987fc34e58033bf70aa336a61998dd891a350d77b26264",
      "assetIds": []
    },
    {
      "x": 395,
      "y": 295,
      "size": 1,
      "price": "1011000000000000000000",
      "reserved": "",
      "salt": "0xc1bfc6271d7c942e77c0987ff7e2d795a6b22e299d660e5896d389bce43ae235",
      "assetIds": []
    },
    {
      "x": 395,
      "y": 296,
      "size": 1,
      "price": "1011000000000000000000",
      "reserved": "",
      "salt": "0x41244db57e5f0d57ff4d26d144a1384ddcab55b9fa05dc56769affd346ef5516",
      "assetIds": []
    },
    {
      "x": 395,
      "y": 300,
      "size": 1,
      "price": "1011000000000000000000",
      "reserved": "",
      "salt": "0xd6b61267f4ceb83c31743b41a43e29a10a2629cbae520760a16f286859f8c621",
      "assetIds": []
    },
    {
      "x": 395,
      "y": 301,
      "size": 1,
      "price": "1011000000000000000000",
      "reserved": "",
      "salt": "0x5b1531515eaa097f80801ab7fb821193b64dcb6e63109707fa2bcdd3315b2abb",
      "assetIds": []
    },
    {
      "x": 395,
      "y": 302,
      "size": 1,
      "price": "1011000000000000000000",
      "reserved": "",
      "salt": "0xb888c745cbff20d415dfe58b8b37bbeaaba8fbc330220e93f16b01697403f4f7",
      "assetIds": []
    },
    {
      "x": 395,
      "y": 303,
      "size": 1,
      "price": "1011000000000000000000",
      "reserved": "",
      "salt": "0x55b2c0f4764b86aa96a1a7bce157eee0b5e7170473123ce21917b19353288abd",
      "assetIds": []
    },
    {
      "x": 395,
      "y": 304,
      "size": 1,
      "price": "1011000000000000000000",
      "reserved": "",
      "salt": "0x5757d3a45658ca3c638a9003e2d148997fc65991be4edc93e03f54fe86c94422",
      "assetIds": []
    },
    {
      "x": 395,
      "y": 305,
      "size": 1,
      "price": "1011000000000000000000",
      "reserved": "",
      "salt": "0xc42f7328e01d4e36bec075efee14f611bbb74429cae244fbf36e3567f8c22f5e",
      "assetIds": []
    },
    {
      "x": 395,
      "y": 306,
      "size": 1,
      "price": "1011000000000000000000",
      "reserved": "",
      "salt": "0x1174b6b4870c5b9567939e66af90592913588ad56b3342deb46e423a53413ad7",
      "assetIds": []
    },
    {
      "x": 395,
      "y": 307,
      "size": 1,
      "price": "1011000000000000000000",
      "reserved": "",
      "salt": "0x3e3bbef02878d691f97185617ef6a1f1d452009b40bc4857cfdb26beeb488360",
      "assetIds": []
    },
    {
      "x": 395,
      "y": 308,
      "size": 1,
      "price": "1011000000000000000000",
      "reserved": "",
      "salt": "0x2175629e3ed13dd185b0032b0f35e6398a76949dd53fb54f72c295f8b70269f4",
      "assetIds": []
    },
    {
      "x": 395,
      "y": 309,
      "size": 1,
      "price": "1011000000000000000000",
      "reserved": "",
      "salt": "0xc1c6f82ec18f6929297cb66c9ccf639cbab16f2b93d5722c9f8111a9d5051a90",
      "assetIds": []
    },
    {
      "x": 395,
      "y": 310,
      "size": 1,
      "price": "1011000000000000000000",
      "reserved": "",
      "salt": "0xa8d1457b396773be8022ea0ba902f27aab8d0cc6c5b2828b1c050eae5123951e",
      "assetIds": []
    },
    {
      "x": 395,
      "y": 311,
      "size": 1,
      "price": "1011000000000000000000",
      "reserved": "",
      "salt": "0x2de12a61afe496e7930f2d37fc2749328c658e94a3c4f57da98a9512d47ff859",
      "assetIds": []
    },
    {
      "x": 396,
      "y": 228,
      "size": 1,
      "price": "1011000000000000000000",
      "reserved": "",
      "salt": "0x013fb12ab41b6a690197493a7f9cfae832ffcf57d7f5c67882c9014d7a39a0c2",
      "assetIds": []
    },
    {
      "x": 396,
      "y": 229,
      "size": 1,
      "price": "1011000000000000000000",
      "reserved": "",
      "salt": "0x03798258113e4ca9d22ba508c5ec4ebf759e4128fd4d8a4c41e63ff9c198a897",
      "assetIds": []
    },
    {
      "x": 396,
      "y": 230,
      "size": 1,
      "price": "1011000000000000000000",
      "reserved": "",
      "salt": "0xcc79ef74065e85081eec753cd9f7e5e733ef65d0d1bcc3a1e5ccdee68899f3b4",
      "assetIds": []
    },
    {
      "x": 396,
      "y": 231,
      "size": 1,
      "price": "1011000000000000000000",
      "reserved": "",
      "salt": "0x9f4ec1eff73f0db3dd0fae2c1051a0d0e8a3be0c77dca8014dd67b2f5342622d",
      "assetIds": []
    },
    {
      "x": 396,
      "y": 232,
      "size": 1,
      "price": "1011000000000000000000",
      "reserved": "",
      "salt": "0x0a30f5e352c99ed7c0d0f25e31f047960f5bf717b9d2097162cfce1ee179a657",
      "assetIds": []
    },
    {
      "x": 396,
      "y": 233,
      "size": 1,
      "price": "1011000000000000000000",
      "reserved": "",
      "salt": "0x861155c5d4906899a94f818d66e353943f7713a3cf645622f38ffcbb53b57d7f",
      "assetIds": []
    },
    {
      "x": 396,
      "y": 234,
      "size": 1,
      "price": "1011000000000000000000",
      "reserved": "",
      "salt": "0xe31c281ed5f1da7252188383b6b78a1e2fe4ecfe6297c960a76f58339ae791e3",
      "assetIds": []
    },
    {
      "x": 396,
      "y": 235,
      "size": 1,
      "price": "1011000000000000000000",
      "reserved": "",
      "salt": "0xabef04ae53bb96df0caa35d50734ec32688b22d4718b26c139f1c7dd1983598e",
      "assetIds": []
    },
    {
      "x": 396,
      "y": 236,
      "size": 1,
      "price": "1011000000000000000000",
      "reserved": "",
      "salt": "0x0ad84cd2e792484311882e848046eed8a21f4c077c232bc6c3eb3c3fd9b7ae11",
      "assetIds": []
    },
    {
      "x": 396,
      "y": 237,
      "size": 1,
      "price": "1011000000000000000000",
      "reserved": "",
      "salt": "0x75a95044ac07d25eb9ecaabd2edf52a0910a5cc0c5348de97eb7a831091b0aae",
      "assetIds": []
    },
    {
      "x": 396,
      "y": 238,
      "size": 1,
      "price": "1011000000000000000000",
      "reserved": "",
      "salt": "0xbb562ae3b3b0b9d4d994e7a02093f32ac4d57b1123a74dd058f8be36cc5eb33c",
      "assetIds": []
    },
    {
      "x": 396,
      "y": 239,
      "size": 1,
      "price": "1011000000000000000000",
      "reserved": "",
      "salt": "0x2d2d80d3eb5a2871ecba0e0ffed68af30c3a50045d55b753358e784a9db21d15",
      "assetIds": []
    },
    {
      "x": 396,
      "y": 240,
      "size": 1,
      "price": "1011000000000000000000",
      "reserved": "",
      "salt": "0x7da22ca2304e0ecd53323a76a5027ed78554812cfa04c7de3c04658d45569f5d",
      "assetIds": []
    },
    {
      "x": 396,
      "y": 241,
      "size": 1,
      "price": "1011000000000000000000",
      "reserved": "",
      "salt": "0xc9a9e7e614830b722b7115e979ff9133fbba17a4275d6539de22f9f2bbdc9e3a",
      "assetIds": []
    },
    {
      "x": 396,
      "y": 242,
      "size": 1,
      "price": "1011000000000000000000",
      "reserved": "",
      "salt": "0x7b3c06eda16f1b2f3ce3003233b6c0bc302989d8549d31c1aa57156376271632",
      "assetIds": []
    },
    {
      "x": 396,
      "y": 243,
      "size": 1,
      "price": "1011000000000000000000",
      "reserved": "",
      "salt": "0x9631566842160b2ac0c4921e654735aa63faf8989db2ba6b52ec40336d8e58a9",
      "assetIds": []
    },
    {
      "x": 396,
      "y": 244,
      "size": 1,
      "price": "1011000000000000000000",
      "reserved": "",
      "salt": "0x558d44766dc15cf9d4b29a4338191622c58b205f1a679af28cf168748df8a178",
      "assetIds": []
    },
    {
      "x": 396,
      "y": 245,
      "size": 1,
      "price": "1011000000000000000000",
      "reserved": "",
      "salt": "0x5e1c45d83e03b71c69f5597ed16652c017ba97ad15e89629e8ade7ce57a0bd98",
      "assetIds": []
    },
    {
      "x": 396,
      "y": 246,
      "size": 1,
      "price": "1011000000000000000000",
      "reserved": "",
      "salt": "0x75aaf0126542a2535c2b0fc6944ae30bd404cc92bae65ba7b33137480a5e988d",
      "assetIds": []
    },
    {
      "x": 396,
      "y": 247,
      "size": 1,
      "price": "1011000000000000000000",
      "reserved": "",
      "salt": "0x359aea0f1cbba7116b5ebee37d8ba57a3b63fb98061e5ca2555f815be306f817",
      "assetIds": []
    },
    {
      "x": 396,
      "y": 248,
      "size": 1,
      "price": "1011000000000000000000",
      "reserved": "",
      "salt": "0xf1a017edbdc622c569e09f16063d52ba0e050408bc5192e455b6ce08efcea437",
      "assetIds": []
    },
    {
      "x": 396,
      "y": 249,
      "size": 1,
      "price": "1011000000000000000000",
      "reserved": "",
      "salt": "0xd7ad183e60c8c523a2d70f04e932f8ab0ced3458f3ce5d596dd0b5830dee9352",
      "assetIds": []
    },
    {
      "x": 396,
      "y": 250,
      "size": 1,
      "price": "1011000000000000000000",
      "reserved": "",
      "salt": "0x5ce87d8f89c9f0fe5e55aa08aed4dd72f302d60a48de0306ebedc39f3f5c8a10",
      "assetIds": []
    },
    {
      "x": 396,
      "y": 251,
      "size": 1,
      "price": "1011000000000000000000",
      "reserved": "",
      "salt": "0x4dc152229ade97d50bbcdfdac8e407cf145b54348f388213aaa6f9cfc5d2bb52",
      "assetIds": []
    },
    {
      "x": 396,
      "y": 294,
      "size": 1,
      "price": "1011000000000000000000",
      "reserved": "",
      "salt": "0x6ea6dc50dee30d624064c883ffe451fdef2229a72890c0b9a99bccfba470ab0f",
      "assetIds": []
    },
    {
      "x": 396,
      "y": 295,
      "size": 1,
      "price": "1011000000000000000000",
      "reserved": "",
      "salt": "0xadd110c80cbd979dd55ae9f1f420e1510e7d437c4f27657fd35c4954683b1673",
      "assetIds": []
    },
    {
      "x": 396,
      "y": 296,
      "size": 1,
      "price": "1011000000000000000000",
      "reserved": "",
      "salt": "0x3dd86b92cbe9cd1d983801f650aade658a84cea1d77445bc71679662c3ff820f",
      "assetIds": []
    },
    {
      "x": 396,
      "y": 297,
      "size": 1,
      "price": "1011000000000000000000",
      "reserved": "",
      "salt": "0x0d115424c3bf12292722ce020246a64c5620d576e73146d1b92bfef949ee828f",
      "assetIds": []
    },
    {
      "x": 396,
      "y": 298,
      "size": 1,
      "price": "1011000000000000000000",
      "reserved": "",
      "salt": "0xcb4b03c5a3d5b19e56aae6d2474e63734f69e6b7acd55490df215eaa5cd95d91",
      "assetIds": []
    },
    {
      "x": 396,
      "y": 299,
      "size": 1,
      "price": "1011000000000000000000",
      "reserved": "",
      "salt": "0x2ecc67ab0920264cfbdb4e904c396b1ae1072269728c7a16f42855f421191646",
      "assetIds": []
    },
    {
      "x": 397,
      "y": 228,
      "size": 1,
      "price": "1011000000000000000000",
      "reserved": "",
      "salt": "0xf2af7b46c8488ac5b7de0846c0b9ac45ae44067f728728c267ebb1a9b5e1ef6b",
      "assetIds": []
    },
    {
      "x": 397,
      "y": 229,
      "size": 1,
      "price": "1011000000000000000000",
      "reserved": "",
      "salt": "0x004227e967cda504c5e65b6a67e49d4d8f7bc6a2a4a1644e80770df80037ca0d",
      "assetIds": []
    },
    {
      "x": 397,
      "y": 230,
      "size": 1,
      "price": "1011000000000000000000",
      "reserved": "",
      "salt": "0x772f6069959784ec8f414c14df1e61ae4a3711d1d9314ab83aa14e4836af2a3d",
      "assetIds": []
    },
    {
      "x": 397,
      "y": 231,
      "size": 1,
      "price": "1011000000000000000000",
      "reserved": "",
      "salt": "0x063d2016313c2eb2a870dccfda537e4dc8dff22ff794a02b25f9d2c7313e4062",
      "assetIds": []
    },
    {
      "x": 397,
      "y": 232,
      "size": 1,
      "price": "1011000000000000000000",
      "reserved": "",
      "salt": "0xd94b16e7b7e4bd6f4ed3b8e847193f76ae3083c50ed5e1873319deeb2bf44c78",
      "assetIds": []
    },
    {
      "x": 397,
      "y": 233,
      "size": 1,
      "price": "1011000000000000000000",
      "reserved": "",
      "salt": "0xa738722804fdba2fd9d094ec83d5836bd81b73c7a52e04d920879f5b8acc221e",
      "assetIds": []
    },
    {
      "x": 397,
      "y": 234,
      "size": 1,
      "price": "1011000000000000000000",
      "reserved": "",
      "salt": "0xa5d14852c383e5166103860721a6088437adf39cb777b5d9ae7959f083df9faa",
      "assetIds": []
    },
    {
      "x": 397,
      "y": 235,
      "size": 1,
      "price": "1011000000000000000000",
      "reserved": "",
      "salt": "0x06a589d04a283fc8bf0c33b4d576a894dc07a12bb46f5250a3e6da2e3d9c1fbb",
      "assetIds": []
    },
    {
      "x": 397,
      "y": 236,
      "size": 1,
      "price": "1011000000000000000000",
      "reserved": "",
      "salt": "0x5159b26e9f8f3f0d12c60265e7e657f2d9310e15cb0a3491884aa91a81e90e62",
      "assetIds": []
    },
    {
      "x": 397,
      "y": 237,
      "size": 1,
      "price": "1011000000000000000000",
      "reserved": "",
      "salt": "0x2da83f67c8a9f636daa21c8595ee0480b6f60fcf008828157fd3563da6101c6c",
      "assetIds": []
    },
    {
      "x": 397,
      "y": 238,
      "size": 1,
      "price": "1011000000000000000000",
      "reserved": "",
      "salt": "0xc121d34bdb2321f2d6f085926d3e132efd3186485011429f1f3f59f98243483b",
      "assetIds": []
    },
    {
      "x": 397,
      "y": 239,
      "size": 1,
      "price": "1011000000000000000000",
      "reserved": "",
      "salt": "0xe55e01142b1369d481cd8ae5675fd23434d9c2e203adfcb9254d80bc89de637d",
      "assetIds": []
    },
    {
      "x": 397,
      "y": 240,
      "size": 1,
      "price": "1011000000000000000000",
      "reserved": "",
      "salt": "0xa66e6e127e29deda3b5099061971d0f63cdc9e588ce5f3bf0735fbde06e01eab",
      "assetIds": []
    },
    {
      "x": 397,
      "y": 241,
      "size": 1,
      "price": "1011000000000000000000",
      "reserved": "",
      "salt": "0x48a5d867252f31a3dad16bc6e085fe7fc8b1fef622c5eb692d4c369d8825a713",
      "assetIds": []
    },
    {
      "x": 397,
      "y": 242,
      "size": 1,
      "price": "1011000000000000000000",
      "reserved": "",
      "salt": "0xa381aaf353962f3f3966e593f19bafbc303ef727e3ba38708b660cfede44ba0b",
      "assetIds": []
    },
    {
      "x": 397,
      "y": 243,
      "size": 1,
      "price": "1011000000000000000000",
      "reserved": "",
      "salt": "0x0ea45b676d4b7e8ce297557ea4f0091e369607c6652fbb42037fd8dfa71ee31d",
      "assetIds": []
    },
    {
      "x": 397,
      "y": 244,
      "size": 1,
      "price": "1011000000000000000000",
      "reserved": "",
      "salt": "0xe8cb7f57ec08fa393a5058ca57b02529ac29418a6f4f67aa981fa67aaf37bd1e",
      "assetIds": []
    },
    {
      "x": 397,
      "y": 245,
      "size": 1,
      "price": "1011000000000000000000",
      "reserved": "",
      "salt": "0x20d7c920ce882c9f206a54aa0f22b713f4d246d4d66d6878e9359ed1d329dcc0",
      "assetIds": []
    },
    {
      "x": 397,
      "y": 246,
      "size": 1,
      "price": "1011000000000000000000",
      "reserved": "",
      "salt": "0xfe8d3d92c8b78dc3fe8f96ef6a0efa5159d93b2a52f852e83976d4eaaa95365e",
      "assetIds": []
    },
    {
      "x": 397,
      "y": 247,
      "size": 1,
      "price": "1011000000000000000000",
      "reserved": "",
      "salt": "0x6ccb7fbcf73c4fce5c6843b9d87f3cab09ffbe817b3986ad2de7c58f3be6d8f4",
      "assetIds": []
    },
    {
      "x": 397,
      "y": 248,
      "size": 1,
      "price": "1011000000000000000000",
      "reserved": "",
      "salt": "0xd4555c786d9633be9194ee4e53b8843c7be97b46522cd8d68e377661506d1528",
      "assetIds": []
    },
    {
      "x": 397,
      "y": 249,
      "size": 1,
      "price": "1011000000000000000000",
      "reserved": "",
      "salt": "0x8f4765e7fcd8ba69db93c558b9abdc91dbc648ccb63f75fafb77759cd81f3e5f",
      "assetIds": []
    },
    {
      "x": 397,
      "y": 250,
      "size": 1,
      "price": "1011000000000000000000",
      "reserved": "",
      "salt": "0xf21bf59d6c6ddd3e689184d1280729984bed727e5d7b4a3d7109307bd08e7d60",
      "assetIds": []
    },
    {
      "x": 397,
      "y": 251,
      "size": 1,
      "price": "1011000000000000000000",
      "reserved": "",
      "salt": "0xae62a9b3f17f94666cbc6cce39a50689b0e985b2b3b0a4d81f48542112adb318",
      "assetIds": []
    },
    {
      "x": 397,
      "y": 294,
      "size": 1,
      "price": "1011000000000000000000",
      "reserved": "",
      "salt": "0x31b194296035f7788825165c88d86ecc58a1d0bcb2b978e81119ffd903f6bbaf",
      "assetIds": []
    },
    {
      "x": 397,
      "y": 295,
      "size": 1,
      "price": "1011000000000000000000",
      "reserved": "",
      "salt": "0x302ce7abbd37db2e452fc3a2ee49f40d0f055a9fda08a579b153b38cbb957665",
      "assetIds": []
    },
    {
      "x": 397,
      "y": 296,
      "size": 1,
      "price": "1011000000000000000000",
      "reserved": "",
      "salt": "0x8fd5ddaf73f5ad4286134f4b137dea3a0ef835372df2b61466223ff38b8f490d",
      "assetIds": []
    },
    {
      "x": 397,
      "y": 297,
      "size": 1,
      "price": "1011000000000000000000",
      "reserved": "",
      "salt": "0xdff56c9df62602148b25c21d6c6f7d3222fd3dcdc0b7b90c8392f1fbbf75e4cc",
      "assetIds": []
    },
    {
      "x": 397,
      "y": 298,
      "size": 1,
      "price": "1011000000000000000000",
      "reserved": "",
      "salt": "0x2917a3cf61f1802916ee2c99b1d40af2cb7b2fe7422bd73eed1e0e161d86a0ac",
      "assetIds": []
    },
    {
      "x": 397,
      "y": 299,
      "size": 1,
      "price": "1011000000000000000000",
      "reserved": "",
      "salt": "0x165749e4406f628b9df7804d679693df72c529d542684e5faea59827e2e7f763",
      "assetIds": []
    },
    {
      "x": 398,
      "y": 228,
      "size": 1,
      "price": "1011000000000000000000",
      "reserved": "",
      "salt": "0x07d2f5c1580f16f6a38eb1836dbc8a2da3093e31dc1c2dc4e4a09d88737566ba",
      "assetIds": []
    },
    {
      "x": 398,
      "y": 229,
      "size": 1,
      "price": "1011000000000000000000",
      "reserved": "",
      "salt": "0x4d0b6fa353a755f9021507f8a3ba056f52c47ef9a501e1fcd25a217d92bb3040",
      "assetIds": []
    },
    {
      "x": 398,
      "y": 230,
      "size": 1,
      "price": "1011000000000000000000",
      "reserved": "",
      "salt": "0xeef60ac46a44f82cb7ec672b41afaf0258b9f7eeb61319184bd67a139470ef53",
      "assetIds": []
    },
    {
      "x": 398,
      "y": 231,
      "size": 1,
      "price": "1011000000000000000000",
      "reserved": "",
      "salt": "0x7c3379bebf6782b03720a62e94c09c96b0ab9d152bf181e986a631e873b9905c",
      "assetIds": []
    },
    {
      "x": 398,
      "y": 232,
      "size": 1,
      "price": "1011000000000000000000",
      "reserved": "",
      "salt": "0x4c5d5daf11bc0867946f88a95a7318f620d7f803f66af3bbb4547e5a7d15d002",
      "assetIds": []
    },
    {
      "x": 398,
      "y": 233,
      "size": 1,
      "price": "1011000000000000000000",
      "reserved": "",
      "salt": "0x98a9c6c4c8bfc057017c69e91fabd775197fbaf201de95faecdc24ca6a98e3d5",
      "assetIds": []
    },
    {
      "x": 398,
      "y": 234,
      "size": 1,
      "price": "1011000000000000000000",
      "reserved": "",
      "salt": "0xe89eda32bb7f48d72ea27d97d0e93914b5660087fffaad0d2728a6300d25b700",
      "assetIds": []
    },
    {
      "x": 398,
      "y": 235,
      "size": 1,
      "price": "1011000000000000000000",
      "reserved": "",
      "salt": "0x70140dd1386d9bf7d13a1ac9778877bcf7cb7bd1930ef10fc679615143697535",
      "assetIds": []
    },
    {
      "x": 398,
      "y": 236,
      "size": 1,
      "price": "1011000000000000000000",
      "reserved": "",
      "salt": "0x44056629c5885c1cdf00540e01d38f38ba9c126a3e982ee69d699fa5c9ff2e3e",
      "assetIds": []
    },
    {
      "x": 398,
      "y": 237,
      "size": 1,
      "price": "1011000000000000000000",
      "reserved": "",
      "salt": "0xb62b68478edfb73b4f77954af81d6c728798fc47ec0a30845b84902f5200f66f",
      "assetIds": []
    },
    {
      "x": 398,
      "y": 238,
      "size": 1,
      "price": "1011000000000000000000",
      "reserved": "",
      "salt": "0xfa0cd92facd5e888284ba1081b9206c9893060ffd6aae1b83d34d71089c18f15",
      "assetIds": []
    },
    {
      "x": 398,
      "y": 239,
      "size": 1,
      "price": "1011000000000000000000",
      "reserved": "",
      "salt": "0xa7a9edf81b60cca3f2ccb4fdceeb5fa9a47a66c5eeddd9c008f3864649d5fb17",
      "assetIds": []
    },
    {
      "x": 398,
      "y": 240,
      "size": 1,
      "price": "1011000000000000000000",
      "reserved": "",
      "salt": "0x654d319ea36e0abf39fb82ca6d316a3f0f98e4537d1b19920db9ffc771de73aa",
      "assetIds": []
    },
    {
      "x": 398,
      "y": 241,
      "size": 1,
      "price": "1011000000000000000000",
      "reserved": "",
      "salt": "0xa2ce039e2776afea3ba33892e542707d4a53031eb46ac52ee6675d825f57c01b",
      "assetIds": []
    },
    {
      "x": 398,
      "y": 242,
      "size": 1,
      "price": "1011000000000000000000",
      "reserved": "",
      "salt": "0xeb2e07c3b0a7144c432f78378f90ec727bd4181d47fe0c3316e5481fed8c783e",
      "assetIds": []
    },
    {
      "x": 398,
      "y": 243,
      "size": 1,
      "price": "1011000000000000000000",
      "reserved": "",
      "salt": "0xe5c5709faecf100c2e36433aac191dac35b72bd4bd4c466b6e7de07cf5c9164e",
      "assetIds": []
    },
    {
      "x": 398,
      "y": 244,
      "size": 1,
      "price": "1011000000000000000000",
      "reserved": "",
      "salt": "0x0382e6f1888f1c97c1270d07883165793912a11546248e0a1d7d61cff2b9593d",
      "assetIds": []
    },
    {
      "x": 398,
      "y": 245,
      "size": 1,
      "price": "1011000000000000000000",
      "reserved": "",
      "salt": "0x47fef03558217def08ea970a6f73c36641a0d6bb47d1488e5be9cb17aec87351",
      "assetIds": []
    },
    {
      "x": 398,
      "y": 246,
      "size": 1,
      "price": "1011000000000000000000",
      "reserved": "",
      "salt": "0xff809e38e10ccf0c95cef2ef89a90c355ffaf91e56cb6a8b3cc12b4cb267baef",
      "assetIds": []
    },
    {
      "x": 398,
      "y": 247,
      "size": 1,
      "price": "1011000000000000000000",
      "reserved": "",
      "salt": "0x282eb469219044569583e8796120d7b0884d87d29440ec62e11e1e26ef4a8923",
      "assetIds": []
    },
    {
      "x": 398,
      "y": 248,
      "size": 1,
      "price": "1011000000000000000000",
      "reserved": "",
      "salt": "0x6c810753094b4e7fc7f7d39811a82dce052f0c663bb3d347f21c46f05547f29c",
      "assetIds": []
    },
    {
      "x": 398,
      "y": 249,
      "size": 1,
      "price": "1011000000000000000000",
      "reserved": "",
      "salt": "0x0cb3bb900c9c28c903c1984450064dd43b79bc55f59bf1015a86907c7fb9e634",
      "assetIds": []
    },
    {
      "x": 398,
      "y": 250,
      "size": 1,
      "price": "1011000000000000000000",
      "reserved": "",
      "salt": "0xb94b40a8eef0ac197c85287072add96b62438d5fb1652bcba606ad80e11060f9",
      "assetIds": []
    },
    {
      "x": 398,
      "y": 251,
      "size": 1,
      "price": "1011000000000000000000",
      "reserved": "",
      "salt": "0x619beef3fd348506eb4c20d3402c1c3f33900a1629743eb989e0c0f1864f28af",
      "assetIds": []
    },
    {
      "x": 398,
      "y": 294,
      "size": 1,
      "price": "1011000000000000000000",
      "reserved": "",
      "salt": "0x605c99f4bdf0e4295d8c4f9a9ba5ed523c02b408e70a194ad398d9467685b6d3",
      "assetIds": []
    },
    {
      "x": 398,
      "y": 295,
      "size": 1,
      "price": "1011000000000000000000",
      "reserved": "",
      "salt": "0x9d91a8f4f3ea4ebb1d39f606e7cd439f9dc87e3effcf8ad77770b6106f19c4ba",
      "assetIds": []
    },
    {
      "x": 398,
      "y": 296,
      "size": 1,
      "price": "1011000000000000000000",
      "reserved": "",
      "salt": "0xf530cac5261ab38715260f3518837e0be889431e93bb9e20c15d9e919d9b80d6",
      "assetIds": []
    },
    {
      "x": 398,
      "y": 297,
      "size": 1,
      "price": "1011000000000000000000",
      "reserved": "",
      "salt": "0x8bd758ced446825ce9656d352771efdd917fb61fda5f19f62a92678c763bd53d",
      "assetIds": []
    },
    {
      "x": 398,
      "y": 298,
      "size": 1,
      "price": "1011000000000000000000",
      "reserved": "",
      "salt": "0x65d418b52320b5988c9cdd753dea781de90b0e13a67d7a45f529be465073d44e",
      "assetIds": []
    },
    {
      "x": 398,
      "y": 299,
      "size": 1,
      "price": "1011000000000000000000",
      "reserved": "",
      "salt": "0x795fee78b80aec5373f4523aaab4ad9d7b873358ef5de02e8e4eba97707b9628",
      "assetIds": []
    },
    {
      "x": 399,
      "y": 228,
      "size": 1,
      "price": "1011000000000000000000",
      "reserved": "",
      "salt": "0x462643ac8897659faf4116d791855a793d0543bc023fdf4a44f423159c42a586",
      "assetIds": []
    },
    {
      "x": 399,
      "y": 229,
      "size": 1,
      "price": "1011000000000000000000",
      "reserved": "",
      "salt": "0x1139de75e3a158a429f62eb3574a443e31f44897c72db0e739b4140894671e69",
      "assetIds": []
    },
    {
      "x": 399,
      "y": 230,
      "size": 1,
      "price": "1011000000000000000000",
      "reserved": "",
      "salt": "0x8e619ef0d8b8974de4fc191a24813956e3282d085fa2b4e17138f9a005b50be3",
      "assetIds": []
    },
    {
      "x": 399,
      "y": 231,
      "size": 1,
      "price": "1011000000000000000000",
      "reserved": "",
      "salt": "0xfe3601f2f51d125e23efad6bdc6a34e9113ebd6d735b7bcc6cd67caf15667eb2",
      "assetIds": []
    },
    {
      "x": 399,
      "y": 232,
      "size": 1,
      "price": "1011000000000000000000",
      "reserved": "",
      "salt": "0xeb443690fd7cf479accfa448ff6d8c1599a3f3bd6a48bfd8fa8764421872e604",
      "assetIds": []
    },
    {
      "x": 399,
      "y": 233,
      "size": 1,
      "price": "1011000000000000000000",
      "reserved": "",
      "salt": "0x48f9c69412940b2ef4d31209dc0c5c119e0b15160683fd4617b1a1b60c679426",
      "assetIds": []
    },
    {
      "x": 399,
      "y": 234,
      "size": 1,
      "price": "1011000000000000000000",
      "reserved": "",
      "salt": "0x20bed0d9032fc89fc8ba3c5c04cc45fab0d8d6457ec5a7bd64e1142d1a19d46a",
      "assetIds": []
    },
    {
      "x": 399,
      "y": 235,
      "size": 1,
      "price": "1011000000000000000000",
      "reserved": "",
      "salt": "0x628b42ec0b4c84c0db79499cd8274af6478c1870d078eaab2da03ba06df3d308",
      "assetIds": []
    },
    {
      "x": 399,
      "y": 236,
      "size": 1,
      "price": "1011000000000000000000",
      "reserved": "",
      "salt": "0x9d3e076b33f5be6e96394259397691af9f9aa90acc6c7fd00b6c82600178ece2",
      "assetIds": []
    },
    {
      "x": 399,
      "y": 240,
      "size": 1,
      "price": "1011000000000000000000",
      "reserved": "",
      "salt": "0xc404c19258f15b8e70709a37fe492e4c7ea650fcda141625ba76cdb37d604eec",
      "assetIds": []
    },
    {
      "x": 399,
      "y": 241,
      "size": 1,
      "price": "1011000000000000000000",
      "reserved": "0x7a9fe22691c811ea339d9b73150e6911a5343dca",
      "salt": "0x1f7f125e2dddbedb897711fa49bf2d4c47e37fdf0b2c195e6a199bb8716ed10a",
      "assetIds": []
    },
    {
      "x": 399,
      "y": 242,
      "size": 1,
      "price": "1011000000000000000000",
      "reserved": "",
      "salt": "0x569a97dcb75c93c73b9878a71fcc127c28eb1f9563a22b6d3486445dfd03a2d7",
      "assetIds": []
    },
    {
      "x": 399,
      "y": 243,
      "size": 1,
      "price": "1011000000000000000000",
      "reserved": "",
      "salt": "0xa371570209214105a1347f91bba940083e5eb1b055b4bc3bdc4e2eed80dc9795",
      "assetIds": []
    },
    {
      "x": 399,
      "y": 244,
      "size": 1,
      "price": "1011000000000000000000",
      "reserved": "",
      "salt": "0x336a76784856482372d7c7e61f8688d87f08d4ef9ccd499045af3db62a541188",
      "assetIds": []
    },
    {
      "x": 399,
      "y": 245,
      "size": 1,
      "price": "1011000000000000000000",
      "reserved": "",
      "salt": "0x306d28c751b039d8173d47bfb59062e9e465d485637bf43cffc4962fd0e4d936",
      "assetIds": []
    },
    {
      "x": 399,
      "y": 246,
      "size": 1,
      "price": "1011000000000000000000",
      "reserved": "",
      "salt": "0x99d0c1db26a646d504f72ceb8f17cb99ed782f905c0115e18c359ddf8c6a6696",
      "assetIds": []
    },
    {
      "x": 399,
      "y": 247,
      "size": 1,
      "price": "1011000000000000000000",
      "reserved": "",
      "salt": "0xe9eb0899c0694d8c5214c322fb12582876bcccb35bc95dd3b25a5654bfb6684f",
      "assetIds": []
    },
    {
      "x": 399,
      "y": 248,
      "size": 1,
      "price": "1011000000000000000000",
      "reserved": "",
      "salt": "0xce0ec991f9e05c2b39ede5c42493000a170a9e5dafa9c90115d91cf0b7db97cc",
      "assetIds": []
    },
    {
      "x": 399,
      "y": 249,
      "size": 1,
      "price": "1011000000000000000000",
      "reserved": "",
      "salt": "0xb569ccf3c97abc69ea459cc45275428b4867825cdc01b44ea0ca055235c0abca",
      "assetIds": []
    },
    {
      "x": 399,
      "y": 250,
      "size": 1,
      "price": "1011000000000000000000",
      "reserved": "",
      "salt": "0xd41a417efcb255b9b59d4cdab23853d7db5c3d4781128462c00896976082b8ac",
      "assetIds": []
    },
    {
      "x": 399,
      "y": 251,
      "size": 1,
      "price": "1011000000000000000000",
      "reserved": "",
      "salt": "0xb52a6ccedb2d74cfadc60920cfa784eb9dc6086c6dc1321119225ff78ec96719",
      "assetIds": []
    },
    {
      "x": 399,
      "y": 294,
      "size": 1,
      "price": "1011000000000000000000",
      "reserved": "",
      "salt": "0x78af321d91fd4b9b7a139534bf99d3ca856d1dfda4b30eefddc7362bd1f004e8",
      "assetIds": []
    },
    {
      "x": 399,
      "y": 295,
      "size": 1,
      "price": "1011000000000000000000",
      "reserved": "",
      "salt": "0x7369757c102f254a3eb019c0e7592541a4b8976335c62e7c0efcaed377bb6b89",
      "assetIds": []
    },
    {
      "x": 399,
      "y": 296,
      "size": 1,
      "price": "1011000000000000000000",
      "reserved": "0x7a9fe22691c811ea339d9b73150e6911a5343dca",
      "salt": "0x9fc67061a22d5364e150ae47c631c8e9cb26f6b8eb913d75acfb8d702752ce40",
      "assetIds": []
    },
    {
      "x": 399,
      "y": 297,
      "size": 1,
      "price": "1011000000000000000000",
      "reserved": "",
      "salt": "0x86a5ca102e85e7d85c7e34205a561acd0ebca0a58a5bd2cb36be4a29065c5799",
      "assetIds": []
    },
    {
      "x": 399,
      "y": 298,
      "size": 1,
      "price": "1011000000000000000000",
      "reserved": "",
      "salt": "0x54f8e7ecc29d47f6ff95b18b4be817829ea931d9e01731d0b01e4e15a94ee0d1",
      "assetIds": []
    },
    {
      "x": 399,
      "y": 299,
      "size": 1,
      "price": "1011000000000000000000",
      "reserved": "",
      "salt": "0xa07faffc36bc7bb8591aa9e2d911c72b3d07f796ea3223065546274bcf3c5fa0",
      "assetIds": []
    },
    {
      "x": 400,
      "y": 228,
      "size": 1,
      "price": "1011000000000000000000",
      "reserved": "",
      "salt": "0x1a079a2dc8384321bbc4013a632031f3239473d14608eaca9aa94d95d917aadb",
      "assetIds": []
    },
    {
      "x": 400,
      "y": 229,
      "size": 1,
      "price": "1011000000000000000000",
      "reserved": "",
      "salt": "0x3f1069a8d7ab5ff314e377175cebe4fcc9fe750423952ed52f5dbd198695046e",
      "assetIds": []
    },
    {
      "x": 400,
      "y": 230,
      "size": 1,
      "price": "1011000000000000000000",
      "reserved": "",
      "salt": "0x7923b45180bd4bc08c76274ed2833656fa9a6af5124558a0d2e4f09164f3fcc8",
      "assetIds": []
    },
    {
      "x": 400,
      "y": 231,
      "size": 1,
      "price": "1011000000000000000000",
      "reserved": "",
      "salt": "0x7de4c516c13951f806274018faff6556414d5b7bbd9bd42801ef94f2b58482ce",
      "assetIds": []
    },
    {
      "x": 400,
      "y": 232,
      "size": 1,
      "price": "1011000000000000000000",
      "reserved": "",
      "salt": "0x111effa3388ad2eaaf4f92e964101670b2b5d96d9a2e01b7a0ef1b562c9ce796",
      "assetIds": []
    },
    {
      "x": 400,
      "y": 233,
      "size": 1,
      "price": "1011000000000000000000",
      "reserved": "",
      "salt": "0xb6c4cbff16bb94c5625263083c906978a15e9aa61e19ba9f4d21ae7f7e97b135",
      "assetIds": []
    },
    {
      "x": 400,
      "y": 234,
      "size": 1,
      "price": "1011000000000000000000",
      "reserved": "",
      "salt": "0x11edcb1c7d45fe560b54c7be79ecee9a9ea7d321e20552cf841de1861bf4af5f",
      "assetIds": []
    },
    {
      "x": 400,
      "y": 235,
      "size": 1,
      "price": "1011000000000000000000",
      "reserved": "",
      "salt": "0x84185f00a768874c229245c317008072dbb6244cb18a9ae607a35e71c6cabc03",
      "assetIds": []
    },
    {
      "x": 400,
      "y": 236,
      "size": 1,
      "price": "1011000000000000000000",
      "reserved": "",
      "salt": "0xc6af9300d4ac228bf629198010d4767cfbffba4c1f20c5014ea9c39a69d7ab32",
      "assetIds": []
    },
    {
      "x": 400,
      "y": 240,
      "size": 1,
      "price": "1011000000000000000000",
      "reserved": "",
      "salt": "0x95e3a80aee6d6877e7da3465bc5f3dbfbba026e37bc8cf42761304682dfb9056",
      "assetIds": []
    },
    {
      "x": 400,
      "y": 241,
      "size": 1,
      "price": "1011000000000000000000",
      "reserved": "",
      "salt": "0x843d0357ebf37084fe00e171e125fb21157e9d0cb73f12f266afa8e9e8f6216c",
      "assetIds": []
    },
    {
      "x": 400,
      "y": 242,
      "size": 1,
      "price": "1011000000000000000000",
      "reserved": "",
      "salt": "0x37077cf28f9a1e483eaa57441e242a7b2c5b293757b410959918b3e990624771",
      "assetIds": []
    },
    {
      "x": 400,
      "y": 243,
      "size": 1,
      "price": "1011000000000000000000",
      "reserved": "",
      "salt": "0x48a1411a937db0ff600b0a20c92e6118140bf554d498011eca16e4c485c4eb43",
      "assetIds": []
    },
    {
      "x": 400,
      "y": 244,
      "size": 1,
      "price": "1011000000000000000000",
      "reserved": "",
      "salt": "0xcceea66175a70eab1627156800bd68d971e62e35510ef77dc0d5b2d1dff1a033",
      "assetIds": []
    },
    {
      "x": 400,
      "y": 245,
      "size": 1,
      "price": "1011000000000000000000",
      "reserved": "",
      "salt": "0x157c1f35223434f9cd7189f3f751a836feb696b4408d0d73b95005ead671dd90",
      "assetIds": []
    },
    {
      "x": 400,
      "y": 246,
      "size": 1,
      "price": "1011000000000000000000",
      "reserved": "",
      "salt": "0xc82c58a5ca6ca4e389ba63bb192e0ed9e34101f5f489e96630028b0e9b9c3def",
      "assetIds": []
    },
    {
      "x": 400,
      "y": 247,
      "size": 1,
      "price": "1011000000000000000000",
      "reserved": "",
      "salt": "0x3b39620c0b69e49cd64af6c712573f57dbc31c581ac591ef2f3929adf6bbc755",
      "assetIds": []
    },
    {
      "x": 400,
      "y": 248,
      "size": 1,
      "price": "1011000000000000000000",
      "reserved": "",
      "salt": "0x2f721f8908a36eaf63890e437454f0afd1e91546d5595e089fadc5e26ce96f20",
      "assetIds": []
    },
    {
      "x": 400,
      "y": 249,
      "size": 1,
      "price": "1011000000000000000000",
      "reserved": "",
      "salt": "0x20cd2d01395efad10d950ff6a440ca1c1659a32bffa021f66058ca9b0d8b1b03",
      "assetIds": []
    },
    {
      "x": 400,
      "y": 250,
      "size": 1,
      "price": "1011000000000000000000",
      "reserved": "0x7a9fe22691c811ea339d9b73150e6911a5343dca",
      "salt": "0xdaa134b6cbdc45230ccd0a90de74b00916b71f6942dade2943664f3b3303b178",
      "assetIds": []
    },
    {
      "x": 400,
      "y": 251,
      "size": 1,
      "price": "1011000000000000000000",
      "reserved": "",
      "salt": "0x110d11ca00a1d8b7cc0645330919fb4672b37447b14814e3ddcdc1202c71a22f",
      "assetIds": []
    },
    {
      "x": 400,
      "y": 294,
      "size": 1,
      "price": "1011000000000000000000",
      "reserved": "",
      "salt": "0x9818f60d6854ebd39960137f6b03321a2ea7c61693824fae65a6ba833e70effb",
      "assetIds": []
    },
    {
      "x": 400,
      "y": 295,
      "size": 1,
      "price": "1011000000000000000000",
      "reserved": "",
      "salt": "0x5e04d3a2853efe8ca4fb280bad3679ec8ec81fa658e9aba1b47175639015b3ec",
      "assetIds": []
    },
    {
      "x": 400,
      "y": 296,
      "size": 1,
      "price": "1011000000000000000000",
      "reserved": "",
      "salt": "0xc5f326181a489ed87c61844d475eaeb52a462c3eabc3ca3572b545c3ce9103f1",
      "assetIds": []
    },
    {
      "x": 400,
      "y": 297,
      "size": 1,
      "price": "1011000000000000000000",
      "reserved": "",
      "salt": "0x4a8593117016f20e000114a8920a7ed47142270916eeb59d32e3183f64c9dbcc",
      "assetIds": []
    },
    {
      "x": 400,
      "y": 298,
      "size": 1,
      "price": "1011000000000000000000",
      "reserved": "",
      "salt": "0x5b8b077b233a902418bd899e90f67e2c91c4af1d5d764aa91363790046a2d0f9",
      "assetIds": []
    },
    {
      "x": 400,
      "y": 299,
      "size": 1,
      "price": "1011000000000000000000",
      "reserved": "",
      "salt": "0x746224a5aff34a117e69876ab0672fb9ebd5e6ab15531552c029fcdc5895c8e1",
      "assetIds": []
    },
    {
      "x": 401,
      "y": 228,
      "size": 1,
      "price": "1011000000000000000000",
      "reserved": "",
      "salt": "0x307d934dfbe503eae960c8cc66026b622626f085f571083714d72f7b66c84076",
      "assetIds": []
    },
    {
      "x": 401,
      "y": 229,
      "size": 1,
      "price": "1011000000000000000000",
      "reserved": "",
      "salt": "0x8c2b974dfb6b7992f7f005adc41fddd533ebbe541f43271f609500733583afaa",
      "assetIds": []
    },
    {
      "x": 401,
      "y": 230,
      "size": 1,
      "price": "1011000000000000000000",
      "reserved": "",
      "salt": "0xff3ee023e77b34837502572d26c401a898d3ec55b0dfe2459978400b5de1c68d",
      "assetIds": []
    },
    {
      "x": 401,
      "y": 231,
      "size": 1,
      "price": "1011000000000000000000",
      "reserved": "0x7a9fe22691c811ea339d9b73150e6911a5343dca",
      "salt": "0x5f8c309f2fdf5b64bf08d4ab47156774464cf0d41b70e37e8d992d110fc876be",
      "assetIds": []
    },
    {
      "x": 401,
      "y": 232,
      "size": 1,
      "price": "1011000000000000000000",
      "reserved": "",
      "salt": "0xf4dabbf1365c2dab58b74a5ceadefe41ee35a49b32a2c1155c69f2163f326fff",
      "assetIds": []
    },
    {
      "x": 401,
      "y": 233,
      "size": 1,
      "price": "1011000000000000000000",
      "reserved": "0x7a9fe22691c811ea339d9b73150e6911a5343dca",
      "salt": "0xedfd46d4c1c77720fb72fe2ffda4d8a1000d20d88b5fcf3b66e8cbf5aa961585",
      "assetIds": []
    },
    {
      "x": 401,
      "y": 234,
      "size": 1,
      "price": "1011000000000000000000",
      "reserved": "",
      "salt": "0x62ac741650306d5b9e861e5b31aa8e3596d8505d1a706d6b487647fd40ab11dc",
      "assetIds": []
    },
    {
      "x": 401,
      "y": 235,
      "size": 1,
      "price": "1011000000000000000000",
      "reserved": "",
      "salt": "0x00ac97b893edff575a08ddbd17a31307e761cfcc2deca01b4fdcbf81b3c931df",
      "assetIds": []
    },
    {
      "x": 401,
      "y": 236,
      "size": 1,
      "price": "1011000000000000000000",
      "reserved": "",
      "salt": "0xabc06fcda183340c444e7dfbd720dddc4753d778506b3ba59ffeecf388901149",
      "assetIds": []
    },
    {
      "x": 401,
      "y": 240,
      "size": 1,
      "price": "1011000000000000000000",
      "reserved": "",
      "salt": "0xae39a772763334905499598794945cc0a29c6d6b9484240d486175a0bc7beea5",
      "assetIds": []
    },
    {
      "x": 401,
      "y": 241,
      "size": 1,
      "price": "1011000000000000000000",
      "reserved": "",
      "salt": "0xfff525a163ffde6f2e277096b686a210397cbdf6a3c6c1c2396ef21f8fa13a8d",
      "assetIds": []
    },
    {
      "x": 401,
      "y": 242,
      "size": 1,
      "price": "1011000000000000000000",
      "reserved": "",
      "salt": "0x8a4d7f5582f598691c156d4e19c5778159ec2688a7bac4a046fb67d94d73d516",
      "assetIds": []
    },
    {
      "x": 401,
      "y": 243,
      "size": 1,
      "price": "1011000000000000000000",
      "reserved": "",
      "salt": "0x41fac0a7b5ac4adc7c7532aaa666d50012a7e1502de4b8f26a79b446c2e40807",
      "assetIds": []
    },
    {
      "x": 401,
      "y": 244,
      "size": 1,
      "price": "1011000000000000000000",
      "reserved": "",
      "salt": "0xe22841ce38964ab07ca95c77fe4216e9b6f6c62fd1012675f97b3bd63a423e51",
      "assetIds": []
    },
    {
      "x": 401,
      "y": 245,
      "size": 1,
      "price": "1011000000000000000000",
      "reserved": "",
      "salt": "0x1ce0557375e0a9a72680e6ef47a4517b17b3f86a5e004f9bc88d50b3797e2c34",
      "assetIds": []
    },
    {
      "x": 401,
      "y": 246,
      "size": 1,
      "price": "1011000000000000000000",
      "reserved": "",
      "salt": "0xbac749f922fd96795666dcb034563b522296dc1a1530fd8484f4d2c153adfedc",
      "assetIds": []
    },
    {
      "x": 401,
      "y": 247,
      "size": 1,
      "price": "1011000000000000000000",
      "reserved": "",
      "salt": "0x6bd9bce9aa6c3ba58a878e6c0e15bd6a0b734593369782ea735246f56c1da28c",
      "assetIds": []
    },
    {
      "x": 401,
      "y": 248,
      "size": 1,
      "price": "1011000000000000000000",
      "reserved": "",
      "salt": "0x63ca4ab95bba4b5270afba683bccde34e4e85680de08c58e9b8c13836f684cb6",
      "assetIds": []
    },
    {
      "x": 401,
      "y": 249,
      "size": 1,
      "price": "1011000000000000000000",
      "reserved": "",
      "salt": "0x7e9b1803bec921beea9d766880ef79a98fe5147ef638a8b891f45dca365764ef",
      "assetIds": []
    },
    {
      "x": 401,
      "y": 250,
      "size": 1,
      "price": "1011000000000000000000",
      "reserved": "",
      "salt": "0x79f5c50fdc0b5bf2ca155fe27bd76c5f78fd4997fe247bf3610f57185c3ec4de",
      "assetIds": []
    },
    {
      "x": 401,
      "y": 251,
      "size": 1,
      "price": "1011000000000000000000",
      "reserved": "",
      "salt": "0x9582d86f1245fe88cfdc2b4d8bcfc437dd1801a62e6b3617d88518d769c2d451",
      "assetIds": []
    },
    {
      "x": 401,
      "y": 294,
      "size": 1,
      "price": "1011000000000000000000",
      "reserved": "",
      "salt": "0x9f5c665ee8b1f0a22b2c053ce4c5e6c387ed3d20f2a099180183f995e2f0299e",
      "assetIds": []
    },
    {
      "x": 401,
      "y": 295,
      "size": 1,
      "price": "1011000000000000000000",
      "reserved": "",
      "salt": "0xb72e80cc4c86b83c97772f21d76eabef0bc0f55bdecb0696c8ea667b9e686bfb",
      "assetIds": []
    },
    {
      "x": 401,
      "y": 296,
      "size": 1,
      "price": "1011000000000000000000",
      "reserved": "",
      "salt": "0xcf26cdb2aab9ea06a03cf7c259ce68a376b0a84cb999b059298e3b3731c70141",
      "assetIds": []
    },
    {
      "x": 401,
      "y": 297,
      "size": 1,
      "price": "1011000000000000000000",
      "reserved": "",
      "salt": "0xdb8b47db946b641049f9e3339262041d6a0e4b9461f58fc1788281f21022f6a9",
      "assetIds": []
    },
    {
      "x": 401,
      "y": 298,
      "size": 1,
      "price": "1011000000000000000000",
      "reserved": "",
      "salt": "0x5e34108526b4e4868faa180b5376577769f2320a73b818edce173b01c8276add",
      "assetIds": []
    },
    {
      "x": 401,
      "y": 299,
      "size": 1,
      "price": "1011000000000000000000",
      "reserved": "",
      "salt": "0xee096a3efed20f9d94ecea9f039df8ca1439452f06afd97848c5371b7f419644",
      "assetIds": []
    },
    {
      "x": 402,
      "y": 240,
      "size": 1,
      "price": "1011000000000000000000",
      "reserved": "",
      "salt": "0x1dad922ff709e76046af6823e245a842c0e9dec3468ee08f6b2c48f228c9bb1b",
      "assetIds": []
    },
    {
      "x": 402,
      "y": 241,
      "size": 1,
      "price": "1011000000000000000000",
      "reserved": "",
      "salt": "0xd870bbe784a46c94bb888de290aa7ef3915efdc29c2facd320226b9d5a14fd38",
      "assetIds": []
    },
    {
      "x": 402,
      "y": 242,
      "size": 1,
      "price": "1011000000000000000000",
      "reserved": "",
      "salt": "0x309ca7ca928cf75d6c12cea870cf29270b1afe3c6d833ca1c9073cce8a8819e2",
      "assetIds": []
    },
    {
      "x": 402,
      "y": 243,
      "size": 1,
      "price": "1011000000000000000000",
      "reserved": "",
      "salt": "0x18e3ef9eafe63353862f3a43faf4013aff32309ac99b8b2b357367e06efbc52d",
      "assetIds": []
    },
    {
      "x": 402,
      "y": 244,
      "size": 1,
      "price": "1011000000000000000000",
      "reserved": "",
      "salt": "0x04d2e0e73777a575c16f879ec3f8b87bd8da686a2e557e96d194ea1e870aa991",
      "assetIds": []
    },
    {
      "x": 402,
      "y": 245,
      "size": 1,
      "price": "1011000000000000000000",
      "reserved": "",
      "salt": "0x255ba6f2ff286311b8b9731267c93c0c8f22cd605d7cae5e634775c86444b1be",
      "assetIds": []
    },
    {
      "x": 402,
      "y": 246,
      "size": 1,
      "price": "1011000000000000000000",
      "reserved": "",
      "salt": "0xaf5d201147acf8b02d077c468adc9427f03b2580e1c601d2c4508b3a3269d660",
      "assetIds": []
    },
    {
      "x": 402,
      "y": 247,
      "size": 1,
      "price": "1011000000000000000000",
      "reserved": "",
      "salt": "0xb9a93277b880951a61386456ff71e8dc3e00277a6c6aef6c3ceb5e8813c198fd",
      "assetIds": []
    },
    {
      "x": 402,
      "y": 248,
      "size": 1,
      "price": "1011000000000000000000",
      "reserved": "",
      "salt": "0x1de1e4884a29a261016cf9bbc6618c89213c363d3c0e5901f9e91b54e52c5e34",
      "assetIds": []
    },
    {
      "x": 402,
      "y": 249,
      "size": 1,
      "price": "1011000000000000000000",
      "reserved": "",
      "salt": "0x18b0cbe86b56d0c2acd271eb1e5a52369e63fae91ea7cead95597f8569dbc9b4",
      "assetIds": []
    },
    {
      "x": 402,
      "y": 250,
      "size": 1,
      "price": "1011000000000000000000",
      "reserved": "",
      "salt": "0x92f6ce9c477c7e44f48d67ce9e2a116e72b05f1bcc2511efa7e7fc6c216428d6",
      "assetIds": []
    },
    {
      "x": 402,
      "y": 251,
      "size": 1,
      "price": "1011000000000000000000",
      "reserved": "",
      "salt": "0x5dea80b0ae73b650033efcffdbb65b7ab3ac56bffaac3d7e9250a7916c9e1ac7",
      "assetIds": []
    },
    {
      "x": 402,
      "y": 288,
      "size": 1,
      "price": "1011000000000000000000",
      "reserved": "",
      "salt": "0x2ff33fe9b6da6cad3e00d2445c4bc2208176023413cdf164d3e9ae47ca283d79",
      "assetIds": []
    },
    {
      "x": 402,
      "y": 289,
      "size": 1,
      "price": "1011000000000000000000",
      "reserved": "",
      "salt": "0x0b3da8455905b300025ed63a3bc06f9c5dfd29a278fa434c33462d1bef24b37f",
      "assetIds": []
    },
    {
      "x": 402,
      "y": 290,
      "size": 1,
      "price": "1011000000000000000000",
      "reserved": "",
      "salt": "0x96f05b37bb0aca71f7fbbe0c92a7c675140518ad08d0c545a754001cb66ff74a",
      "assetIds": []
    },
    {
      "x": 402,
      "y": 291,
      "size": 1,
      "price": "1011000000000000000000",
      "reserved": "",
      "salt": "0xc6398b8eb96fa7d41996036f8dbbf2667db65c9f254076739b1a3407e015cc03",
      "assetIds": []
    },
    {
      "x": 402,
      "y": 292,
      "size": 1,
      "price": "1011000000000000000000",
      "reserved": "",
      "salt": "0xab5482f968d189928f2972d4897084dcb31693ee7a7ffb7643d37900e9bad9d1",
      "assetIds": []
    },
    {
      "x": 402,
      "y": 293,
      "size": 1,
      "price": "1011000000000000000000",
      "reserved": "",
      "salt": "0x552dc786ab2db2f5f6a2475ad587235253c64a58177c3e96a334d03c358ee0b8",
      "assetIds": []
    },
    {
      "x": 402,
      "y": 306,
      "size": 1,
      "price": "1011000000000000000000",
      "reserved": "",
      "salt": "0x864b2d2f220392bf5b92c0dc56b1c212c7f299f6b97419634cfbd0174869bfb1",
      "assetIds": []
    },
    {
      "x": 402,
      "y": 307,
      "size": 1,
      "price": "1011000000000000000000",
      "reserved": "",
      "salt": "0xd0d813add95916ae231a2a249031a61e89103ef393d95d45b36c60a01a5bdb9b",
      "assetIds": []
    },
    {
      "x": 402,
      "y": 308,
      "size": 1,
      "price": "1011000000000000000000",
      "reserved": "",
      "salt": "0xb99935fb8a0b1da2c5aacac1a5e4621be1e8598dae74a43376dd5eca620bbb81",
      "assetIds": []
    },
    {
      "x": 402,
      "y": 309,
      "size": 1,
      "price": "1011000000000000000000",
      "reserved": "",
      "salt": "0xe7d02a757fd3ce73e854f4fd5c212f7e855a3a8d34f50ff5fa706db061f98eaa",
      "assetIds": []
    },
    {
      "x": 402,
      "y": 310,
      "size": 1,
      "price": "1011000000000000000000",
      "reserved": "",
      "salt": "0xf28d9db9bdb9d3ea4e6c266caa8ab9ac04aa25356dede51b1135fea3ab7b4076",
      "assetIds": []
    },
    {
      "x": 402,
      "y": 311,
      "size": 1,
      "price": "1011000000000000000000",
      "reserved": "",
      "salt": "0xfb7c5b46f56642ebb91de704929d30eb3fa45e6c44f03ad874ea5cdc936e638b",
      "assetIds": []
    },
    {
      "x": 403,
      "y": 240,
      "size": 1,
      "price": "1011000000000000000000",
      "reserved": "",
      "salt": "0xe296e6222f022855b55a515733fcb90d3d195b7c2be2f99ed93ed7162098f5c0",
      "assetIds": []
    },
    {
      "x": 403,
      "y": 241,
      "size": 1,
      "price": "1011000000000000000000",
      "reserved": "",
      "salt": "0x4880790d89b4886f801aa2350e058122a11b60c02bff7f763dab627e5ef18271",
      "assetIds": []
    },
    {
      "x": 403,
      "y": 242,
      "size": 1,
      "price": "1011000000000000000000",
      "reserved": "",
      "salt": "0x66b05820baf7f6c6a11ffd6065ded38798ce234580f681460cda0dfae27f5da5",
      "assetIds": []
    },
    {
      "x": 403,
      "y": 243,
      "size": 1,
      "price": "1011000000000000000000",
      "reserved": "",
      "salt": "0x5a37824485b4be6ed5defee044a3e66bfbd1e09363f352f1a8eaa06c8c557fd0",
      "assetIds": []
    },
    {
      "x": 403,
      "y": 244,
      "size": 1,
      "price": "1011000000000000000000",
      "reserved": "",
      "salt": "0x7154a99ec99272b99d77342eb96d9e7bfd7af160a0e6f9716ec2f37d0d82902c",
      "assetIds": []
    },
    {
      "x": 403,
      "y": 245,
      "size": 1,
      "price": "1011000000000000000000",
      "reserved": "",
      "salt": "0x6c21e37929e8b5e7918216032f4b29eb82f26cb4ea4634667de812c7380eae4b",
      "assetIds": []
    },
    {
      "x": 403,
      "y": 246,
      "size": 1,
      "price": "1011000000000000000000",
      "reserved": "",
      "salt": "0x7e5b2c91269110e34fd1e0a82cfe6cbfb54ecbba62487773d6de04bf06134653",
      "assetIds": []
    },
    {
      "x": 403,
      "y": 247,
      "size": 1,
      "price": "1011000000000000000000",
      "reserved": "",
      "salt": "0x13d809656939daed8e64fcbd2bba5294dbf36cb043b4b69b731fcfe4141e1bc0",
      "assetIds": []
    },
    {
      "x": 403,
      "y": 248,
      "size": 1,
      "price": "1011000000000000000000",
      "reserved": "",
      "salt": "0xcc15fe3ab4eccece6073be72f5aebc7ce6bcd9bdb01748468432c985882dd5a6",
      "assetIds": []
    },
    {
      "x": 403,
      "y": 249,
      "size": 1,
      "price": "1011000000000000000000",
      "reserved": "",
      "salt": "0xa923c1cf7b8bfb4323eff404d3c1f01baf116f2fa6c3798da28396947b57de8d",
      "assetIds": []
    },
    {
      "x": 403,
      "y": 250,
      "size": 1,
      "price": "1011000000000000000000",
      "reserved": "",
      "salt": "0x2a1645fe913dc026307843b61c0a965725ca4cf51d31db4f6bff093f580897b5",
      "assetIds": []
    },
    {
      "x": 403,
      "y": 251,
      "size": 1,
      "price": "1011000000000000000000",
      "reserved": "",
      "salt": "0x6d12c963320271e6c976d670483a29a0f06d57ee6f95a2ccfecf1a8259d07ee6",
      "assetIds": []
    },
    {
      "x": 403,
      "y": 288,
      "size": 1,
      "price": "1011000000000000000000",
      "reserved": "",
      "salt": "0x7dd22d0f13ab7e2609ec943a1d3a8c72d492381fa8bae56858d51fb1ee183ece",
      "assetIds": []
    },
    {
      "x": 403,
      "y": 289,
      "size": 1,
      "price": "1011000000000000000000",
      "reserved": "",
      "salt": "0x50535e68dcbf561dbc4c288c836cec51938ea65b6abf3286ac09ab79ceac27b4",
      "assetIds": []
    },
    {
      "x": 403,
      "y": 290,
      "size": 1,
      "price": "1011000000000000000000",
      "reserved": "",
      "salt": "0xb1a22048a0681bb47af1b586ab3acc96ff3c051a8c11ae913b72bdde449aa28f",
      "assetIds": []
    },
    {
      "x": 403,
      "y": 291,
      "size": 1,
      "price": "1011000000000000000000",
      "reserved": "",
      "salt": "0x522f3a844b9c17c2a794677e16495a7d2ea56b00a5bc4de90e3f717cae31740e",
      "assetIds": []
    },
    {
      "x": 403,
      "y": 292,
      "size": 1,
      "price": "1011000000000000000000",
      "reserved": "",
      "salt": "0xede4175e1094aab3bd43e84522917c2fe80c2379ff86a2492a9d7ac5a03d87cb",
      "assetIds": []
    },
    {
      "x": 403,
      "y": 293,
      "size": 1,
      "price": "1011000000000000000000",
      "reserved": "",
      "salt": "0x5f809336cca78411831accbffb54d11bd3f48cf801396a792e09cd28ff7f09d7",
      "assetIds": []
    },
    {
      "x": 403,
      "y": 306,
      "size": 1,
      "price": "1011000000000000000000",
      "reserved": "",
      "salt": "0xb66a3fa5f7abb24582e2bc0276e070ba68ba3ee1b833b4aca7b275ad7c02cd1e",
      "assetIds": []
    },
    {
      "x": 403,
      "y": 307,
      "size": 1,
      "price": "1011000000000000000000",
      "reserved": "",
      "salt": "0x104565c3ced8e0044ba069354b4201ba136d2484bf8ff82d0d46aa537dcd425e",
      "assetIds": []
    },
    {
      "x": 403,
      "y": 308,
      "size": 1,
      "price": "1011000000000000000000",
      "reserved": "",
      "salt": "0x4a4266e17c3dbdd07df233fb34a7623e17e9c4fb8e98469df6a528908f893895",
      "assetIds": []
    },
    {
      "x": 403,
      "y": 309,
      "size": 1,
      "price": "1011000000000000000000",
      "reserved": "0x7a9fe22691c811ea339d9b73150e6911a5343dca",
      "salt": "0x6d5d23b10491b0b6ffabae43d3fc376ef0d8e98fa3412e07eba4994e1d00c476",
      "assetIds": []
    },
    {
      "x": 403,
      "y": 310,
      "size": 1,
      "price": "1011000000000000000000",
      "reserved": "",
      "salt": "0x9dd483e05f09027ec591a457f7b0480f5f713c04efe39e0869e31eeb065c366c",
      "assetIds": []
    },
    {
      "x": 403,
      "y": 311,
      "size": 1,
      "price": "1011000000000000000000",
      "reserved": "",
      "salt": "0x33d45bc1fee88769c898dea96b4a6096870ce8612e5e423b95e23703c2b21134",
      "assetIds": []
    },
    {
      "x": 404,
      "y": 240,
      "size": 1,
      "price": "1011000000000000000000",
      "reserved": "",
      "salt": "0x46b193ad525f3b0621406bb22dea73adc533e5314eb827558a1f031f09ef3eba",
      "assetIds": []
    },
    {
      "x": 404,
      "y": 241,
      "size": 1,
      "price": "1011000000000000000000",
      "reserved": "",
      "salt": "0x900d16d1326f1e64c24dda2279ad5266fb00e7a7646eed540510597bd80b093e",
      "assetIds": []
    },
    {
      "x": 404,
      "y": 242,
      "size": 1,
      "price": "1011000000000000000000",
      "reserved": "",
      "salt": "0x95f63ba93754c460f68d2902bc87d6cbbf747c184b3dce640353fd15682976a2",
      "assetIds": []
    },
    {
      "x": 404,
      "y": 243,
      "size": 1,
      "price": "1011000000000000000000",
      "reserved": "",
      "salt": "0x71e09ef6d6c4f9833a9cfcc30bb65cdd2f4aaf1b3d12891beb25e498289c27f0",
      "assetIds": []
    },
    {
      "x": 404,
      "y": 244,
      "size": 1,
      "price": "1011000000000000000000",
      "reserved": "",
      "salt": "0xcb32eff7893c9348246612200523bc33da25e51128f0f84b928a8175c592bbba",
      "assetIds": []
    },
    {
      "x": 404,
      "y": 245,
      "size": 1,
      "price": "1011000000000000000000",
      "reserved": "",
      "salt": "0xd69143c4b6ec9965c50423239db3c3a29b7714499f9c9ba93096dc256bbb5aac",
      "assetIds": []
    },
    {
      "x": 404,
      "y": 246,
      "size": 1,
      "price": "1011000000000000000000",
      "reserved": "",
      "salt": "0x50426ca9934724aefadee83b63b3d2fc1c8d760d952e94e81c89c09fe87a191c",
      "assetIds": []
    },
    {
      "x": 404,
      "y": 247,
      "size": 1,
      "price": "1011000000000000000000",
      "reserved": "",
      "salt": "0xb2174f6636ceec89b5ff93a97c888d05fb93e2add4c9b954195632145e1b6c4e",
      "assetIds": []
    },
    {
      "x": 404,
      "y": 248,
      "size": 1,
      "price": "1011000000000000000000",
      "reserved": "",
      "salt": "0x43dc004f7302b81a17f91e9635d18e049ad7465081374a84c95e87b7d320a6d3",
      "assetIds": []
    },
    {
      "x": 404,
      "y": 249,
      "size": 1,
      "price": "1011000000000000000000",
      "reserved": "",
      "salt": "0xc02cdeebc7f4bf57377896743000862cc4a45a699bc91d0165fe363d0c16d44b",
      "assetIds": []
    },
    {
      "x": 404,
      "y": 250,
      "size": 1,
      "price": "1011000000000000000000",
      "reserved": "",
      "salt": "0xc7909d899e309854cd1b0e585d08b8712464b6be3cc4087c5d54cb1596d7c54e",
      "assetIds": []
    },
    {
      "x": 404,
      "y": 251,
      "size": 1,
      "price": "1011000000000000000000",
      "reserved": "",
      "salt": "0x06143e54da8243ec06b58627cc064e262bd5d379c8b5fd6c627816dd11be42a1",
      "assetIds": []
    },
    {
      "x": 404,
      "y": 288,
      "size": 1,
      "price": "1011000000000000000000",
      "reserved": "",
      "salt": "0x5b0e4df6cdf2a61bb31388b583cda23aa59fd3541da9a71b210adaf8613e9dc3",
      "assetIds": []
    },
    {
      "x": 404,
      "y": 289,
      "size": 1,
      "price": "1011000000000000000000",
      "reserved": "",
      "salt": "0x351dd166ac86e7d4ee006bdadb9d98158be9d5b8d824c14f89bd27fa80a0c2cb",
      "assetIds": []
    },
    {
      "x": 404,
      "y": 290,
      "size": 1,
      "price": "1011000000000000000000",
      "reserved": "",
      "salt": "0x268b6aa4e742ad002fcf7f09cda6d59c82f16b31d8d810c937bec72f38ca0256",
      "assetIds": []
    },
    {
      "x": 404,
      "y": 291,
      "size": 1,
      "price": "1011000000000000000000",
      "reserved": "",
      "salt": "0xae47946efe26f410b8b0d854ba0a8ecd49c3d119ce526f24fc1e277d3b5c78c7",
      "assetIds": []
    },
    {
      "x": 404,
      "y": 292,
      "size": 1,
      "price": "1011000000000000000000",
      "reserved": "",
      "salt": "0x88894da69a6d2606f747d1c8d17514de9039dfaae34478490e70f3ecdb64a862",
      "assetIds": []
    },
    {
      "x": 404,
      "y": 293,
      "size": 1,
      "price": "1011000000000000000000",
      "reserved": "",
      "salt": "0xec623524fb50a01c7110b130580f0bfcd06aff791c771a317388a14664132e90",
      "assetIds": []
    },
    {
      "x": 404,
      "y": 306,
      "size": 1,
      "price": "1011000000000000000000",
      "reserved": "",
      "salt": "0x802be3c3bf77164bd56de122fdc791848b520f8ba2686b76aa043faa5c7bd977",
      "assetIds": []
    },
    {
      "x": 404,
      "y": 307,
      "size": 1,
      "price": "1011000000000000000000",
      "reserved": "",
      "salt": "0x7333f122e2e50b0b4f94923def9694d744175953e2cd8db3869f6fa64f14f64f",
      "assetIds": []
    },
    {
      "x": 404,
      "y": 308,
      "size": 1,
      "price": "1011000000000000000000",
      "reserved": "",
      "salt": "0x88f6e765b81a905717945eaec90117f0ec62188f31e1b7f0a40be94017618fd8",
      "assetIds": []
    },
    {
      "x": 404,
      "y": 309,
      "size": 1,
      "price": "1011000000000000000000",
      "reserved": "",
      "salt": "0x0bdff74740b6d0355989bc48027a5e6dae719d3c4f7dfe98a227460b6d373504",
      "assetIds": []
    },
    {
      "x": 404,
      "y": 310,
      "size": 1,
      "price": "1011000000000000000000",
      "reserved": "",
      "salt": "0xc7a3089579ce4bfb5f02f3958478e0ddaca2a6aef19475933208baf7df809872",
      "assetIds": []
    },
    {
      "x": 404,
      "y": 311,
      "size": 1,
      "price": "1011000000000000000000",
      "reserved": "",
      "salt": "0x7cb590a840d77fd071f1fd0a829b1577d94ca81f9b620f8a7f8caee11488b640",
      "assetIds": []
    },
    {
      "x": 405,
      "y": 240,
      "size": 1,
      "price": "1011000000000000000000",
      "reserved": "",
      "salt": "0x20356c2525226336e50c3571c6ecb4ab8483933b6268c726b080ad4d9fc58167",
      "assetIds": []
    },
    {
      "x": 405,
      "y": 241,
      "size": 1,
      "price": "1011000000000000000000",
      "reserved": "",
      "salt": "0x82320a3b7e975d8dd054d58cc034d397be007b8beb22db6d0bd4256908386019",
      "assetIds": []
    },
    {
      "x": 405,
      "y": 242,
      "size": 1,
      "price": "1011000000000000000000",
      "reserved": "",
      "salt": "0x9e6dafb07406bbee33cba27792090ce52ec0e2344a641f39ae072beb7532b107",
      "assetIds": []
    },
    {
      "x": 405,
      "y": 243,
      "size": 1,
      "price": "1011000000000000000000",
      "reserved": "",
      "salt": "0xb2aa1164c72767a977670c2cb0597b7a9ca6f1e4ad717b6ccedbd9f49ce8483c",
      "assetIds": []
    },
    {
      "x": 405,
      "y": 244,
      "size": 1,
      "price": "1011000000000000000000",
      "reserved": "",
      "salt": "0x8ac9ab3a8c6faa35c4724fe46c3a4793a3a4faaf03852df9bbe0e47cba283a9c",
      "assetIds": []
    },
    {
      "x": 405,
      "y": 245,
      "size": 1,
      "price": "1011000000000000000000",
      "reserved": "",
      "salt": "0xb9bf627eb5d680694ec4514cdc77e56acff4114fd964403b7f263d7b527a5adf",
      "assetIds": []
    },
    {
      "x": 405,
      "y": 246,
      "size": 1,
      "price": "1011000000000000000000",
      "reserved": "",
      "salt": "0xba6f6f0481945eb096c2af5285d191444ee998e504049f78914aa27409ea0c81",
      "assetIds": []
    },
    {
      "x": 405,
      "y": 247,
      "size": 1,
      "price": "1011000000000000000000",
      "reserved": "0x7a9fe22691c811ea339d9b73150e6911a5343dca",
      "salt": "0x841844efc2ca3b07961f901a2a7adc4bb7231228f73bb199ee8da33d98b45a19",
      "assetIds": []
    },
    {
      "x": 405,
      "y": 248,
      "size": 1,
      "price": "1011000000000000000000",
      "reserved": "",
      "salt": "0x9f873c83565907cd8076447c3d54e5df49d5739494ae6d8acc83d182e1241e99",
      "assetIds": []
    },
    {
      "x": 405,
      "y": 249,
      "size": 1,
      "price": "1011000000000000000000",
      "reserved": "",
      "salt": "0x3d5db64923dad13c19d59da3142a44b4177fc8d32783868ec26bf8b7e81abe26",
      "assetIds": []
    },
    {
      "x": 405,
      "y": 250,
      "size": 1,
      "price": "1011000000000000000000",
      "reserved": "",
      "salt": "0xacbba082065f36637233ab2aa2fb71bf66c592e8201960de4714f5122bc4303e",
      "assetIds": []
    },
    {
      "x": 405,
      "y": 251,
      "size": 1,
      "price": "1011000000000000000000",
      "reserved": "",
      "salt": "0x826a7a334a297e68f65234bd54f513925f3f046fb247a1cd94d6a08d0f2bc0a2",
      "assetIds": []
    },
    {
      "x": 405,
      "y": 291,
      "size": 1,
      "price": "1011000000000000000000",
      "reserved": "",
      "salt": "0x7433f7e3303c7a86a939bbf6bab5cf8553a4a2e13ef3a1a4c93bdec8b148f9a7",
      "assetIds": []
    },
    {
      "x": 405,
      "y": 292,
      "size": 1,
      "price": "1011000000000000000000",
      "reserved": "0x7a9fe22691c811ea339d9b73150e6911a5343dca",
      "salt": "0x55eedb65a8d63fffae4c188e294d52fe60cebe57453265657b1a20c8d9a2ed65",
      "assetIds": []
    },
    {
      "x": 405,
      "y": 293,
      "size": 1,
      "price": "1011000000000000000000",
      "reserved": "",
      "salt": "0xcf3f1239c9cd2077fdf4274fc9fe442448ac9aae60482336eaaee8dbb277e8f4",
      "assetIds": []
    },
    {
      "x": 405,
      "y": 306,
      "size": 1,
      "price": "1011000000000000000000",
      "reserved": "",
      "salt": "0xc6c75d26636757ca05be3b7aaf34ee123eaf3492d0084844fe4dcb4d112d23d2",
      "assetIds": []
    },
    {
      "x": 405,
      "y": 307,
      "size": 1,
      "price": "1011000000000000000000",
      "reserved": "",
      "salt": "0xcd4c4a6addf23a22a271e213864ad0fef3e9b0103e39e06b20484356cc664c63",
      "assetIds": []
    },
    {
      "x": 405,
      "y": 308,
      "size": 1,
      "price": "1011000000000000000000",
      "reserved": "",
      "salt": "0x8ab77d9c9cf90673dcdef55d8fc24078f100b011a3c788208a602b165ad2ca9c",
      "assetIds": []
    },
    {
      "x": 405,
      "y": 309,
      "size": 1,
      "price": "1011000000000000000000",
      "reserved": "",
      "salt": "0xee801f1adf15df9a803270aeaedfa1d74dd0f1930173cccb5f1b0a11beac6b9b",
      "assetIds": []
    },
    {
      "x": 405,
      "y": 310,
      "size": 1,
      "price": "1011000000000000000000",
      "reserved": "",
      "salt": "0x075aaa203f8732f269f7d289d69c2e9811068d5f4b080eb6503e2fe0f1be9908",
      "assetIds": []
    },
    {
      "x": 405,
      "y": 311,
      "size": 1,
      "price": "1011000000000000000000",
      "reserved": "",
      "salt": "0x63e1772e750d23443a2055a7cc3eb42a334f8e085633c4b36c9058422d0e3822",
      "assetIds": []
    },
    {
      "x": 406,
      "y": 240,
      "size": 1,
      "price": "1011000000000000000000",
      "reserved": "",
      "salt": "0x5fe77d3542201567fc08ae4355bbc2e09ff6881d06be3b645f152bffa80d8578",
      "assetIds": []
    },
    {
      "x": 406,
      "y": 241,
      "size": 1,
      "price": "1011000000000000000000",
      "reserved": "",
      "salt": "0xa23813314f323131b143692721f01a5ceac9bb3fb80701105240572dcd5748ac",
      "assetIds": []
    },
    {
      "x": 406,
      "y": 242,
      "size": 1,
      "price": "1011000000000000000000",
      "reserved": "0x7a9fe22691c811ea339d9b73150e6911a5343dca",
      "salt": "0x31991d978c79ed50ca4a1576a425c07b5451425d1f533217c0959e2265afd828",
      "assetIds": []
    },
    {
      "x": 406,
      "y": 243,
      "size": 1,
      "price": "1011000000000000000000",
      "reserved": "",
      "salt": "0x765775d9988936f75ecc83f974d43f2277332a666c238082181b5680354a1be3",
      "assetIds": []
    },
    {
      "x": 406,
      "y": 244,
      "size": 1,
      "price": "1011000000000000000000",
      "reserved": "",
      "salt": "0x437dee0162539cd13fcb97a9c979a35050fa428f9f430fd574318b78b2c70474",
      "assetIds": []
    },
    {
      "x": 406,
      "y": 245,
      "size": 1,
      "price": "1011000000000000000000",
      "reserved": "",
      "salt": "0x9a429ac1b9a48fb226b00a76202c6a4618116c877ca631902807d94bf2f4a351",
      "assetIds": []
    },
    {
      "x": 406,
      "y": 246,
      "size": 1,
      "price": "1011000000000000000000",
      "reserved": "",
      "salt": "0x45d22bf78bf87268f0df1aca3ef235fbe74fee37f2f880298fdcd407bef6c59f",
      "assetIds": []
    },
    {
      "x": 406,
      "y": 247,
      "size": 1,
      "price": "1011000000000000000000",
      "reserved": "",
      "salt": "0x8aebd42a96026e839e48f8cd4eff2c59da93abad0ca35b7e4275e3cf837d183e",
      "assetIds": []
    },
    {
      "x": 406,
      "y": 248,
      "size": 1,
      "price": "1011000000000000000000",
      "reserved": "",
      "salt": "0xd448b103cb1c315526428cecfec9a594c92f6a9c1d846132d3b9ab548f34ddd4",
      "assetIds": []
    },
    {
      "x": 406,
      "y": 249,
      "size": 1,
      "price": "1011000000000000000000",
      "reserved": "",
      "salt": "0x2641604c715fd23073b4a160aafb8c3d6730679e9bd597cfde6e4ee2df55ad75",
      "assetIds": []
    },
    {
      "x": 406,
      "y": 250,
      "size": 1,
      "price": "1011000000000000000000",
      "reserved": "",
      "salt": "0xa456860dcf307a94e753d6673f32da6ea7113d6415b8fa2a29ef87fdc6a3b286",
      "assetIds": []
    },
    {
      "x": 406,
      "y": 251,
      "size": 1,
      "price": "1011000000000000000000",
      "reserved": "",
      "salt": "0x0ef03e1ab5198b2a19ab3aef5d24b8ba1f9e0e6c73f8d40f9a1916add54627e7",
      "assetIds": []
    },
    {
      "x": 406,
      "y": 291,
      "size": 1,
      "price": "1011000000000000000000",
      "reserved": "",
      "salt": "0xfe278abf1b1711171018e3668b894a30c6814c4978a4c272429656cbe842917e",
      "assetIds": []
    },
    {
      "x": 406,
      "y": 292,
      "size": 1,
      "price": "1011000000000000000000",
      "reserved": "",
      "salt": "0x9bbfb3edd13cfaca9f5f62be84a05e501d54cab265316722cbfee1f953d85da9",
      "assetIds": []
    },
    {
      "x": 406,
      "y": 293,
      "size": 1,
      "price": "1011000000000000000000",
      "reserved": "",
      "salt": "0xc7dfb8266ccd38b5c5dceb9649e797e86af7e931495c9832b89f34fb2250a491",
      "assetIds": []
    },
    {
      "x": 406,
      "y": 306,
      "size": 1,
      "price": "1011000000000000000000",
      "reserved": "",
      "salt": "0x21f01dd84ab9b457a0ddfc24d570e6f53fd0cb7d482f2bd55b0f03d0148a2ca0",
      "assetIds": []
    },
    {
      "x": 406,
      "y": 307,
      "size": 1,
      "price": "1011000000000000000000",
      "reserved": "",
      "salt": "0x182dd5469831f52585b14c2420928df4ca53b3589f51bdb55fc43297a38df00f",
      "assetIds": []
    },
    {
      "x": 406,
      "y": 308,
      "size": 1,
      "price": "1011000000000000000000",
      "reserved": "",
      "salt": "0x080c45436c5ab09d2cba0187af3aef879be323dd80b5720b3eb5fa10704dd033",
      "assetIds": []
    },
    {
      "x": 406,
      "y": 309,
      "size": 1,
      "price": "1011000000000000000000",
      "reserved": "",
      "salt": "0x1853df0325650654a6a704c6579b9efb7261dd04becc8069c8306196285a046c",
      "assetIds": []
    },
    {
      "x": 406,
      "y": 310,
      "size": 1,
      "price": "1011000000000000000000",
      "reserved": "",
      "salt": "0x2e16b69a6a234aff6238afef8d4bcb7dbb8989527e35abef3eec654f1d4b0a77",
      "assetIds": []
    },
    {
      "x": 406,
      "y": 311,
      "size": 1,
      "price": "1011000000000000000000",
      "reserved": "",
      "salt": "0x1cedffbad82dad2019e9e8bdc4c99b985d8cb3d049dfdf0e6f882fbab4cb972b",
      "assetIds": []
    },
    {
      "x": 407,
      "y": 240,
      "size": 1,
      "price": "1011000000000000000000",
      "reserved": "",
      "salt": "0x4702fb10c8046a4eb1071b46a447c5ff03e045352bbe1e8e8d696ebf9692365c",
      "assetIds": []
    },
    {
      "x": 407,
      "y": 241,
      "size": 1,
      "price": "1011000000000000000000",
      "reserved": "",
      "salt": "0xabeb123e9d61ee4dc67af014e277f0cb163611ad69ca1f3d326c0b3c170ceb8c",
      "assetIds": []
    },
    {
      "x": 407,
      "y": 242,
      "size": 1,
      "price": "1011000000000000000000",
      "reserved": "",
      "salt": "0x422a1c6701290c34713bbda70db3392ce1fb25a78b808916a913743f5c972f52",
      "assetIds": []
    },
    {
      "x": 407,
      "y": 243,
      "size": 1,
      "price": "1011000000000000000000",
      "reserved": "",
      "salt": "0x57e32bb95e161d6869b6c36924eeb8e984ba8bf10c914784c9695d7b39254776",
      "assetIds": []
    },
    {
      "x": 407,
      "y": 244,
      "size": 1,
      "price": "1011000000000000000000",
      "reserved": "",
      "salt": "0x83838291606c7f3303b57e187187cdef0fcf54960c7d60aaee6454e7374e1f6e",
      "assetIds": []
    },
    {
      "x": 407,
      "y": 245,
      "size": 1,
      "price": "1011000000000000000000",
      "reserved": "",
      "salt": "0x15c6aaf8924e51b1511521afb109f4a906832625fd339326fd8afdb37f6bfcae",
      "assetIds": []
    },
    {
      "x": 407,
      "y": 246,
      "size": 1,
      "price": "1011000000000000000000",
      "reserved": "",
      "salt": "0xe1176cd8d48df9abb5e39b32507979fb614f780a50c00b9eef6fcca709225c40",
      "assetIds": []
    },
    {
      "x": 407,
      "y": 247,
      "size": 1,
      "price": "1011000000000000000000",
      "reserved": "",
      "salt": "0x35d787590f4c8a8a699a3172dba80b84aa9bee2a6395b8c142c97147858887d3",
      "assetIds": []
    },
    {
      "x": 407,
      "y": 248,
      "size": 1,
      "price": "1011000000000000000000",
      "reserved": "",
      "salt": "0x2b4070b73135d475efbe585dc41ff8a8e30670183421e5c65ea8ce804e3c6a8c",
      "assetIds": []
    },
    {
      "x": 407,
      "y": 249,
      "size": 1,
      "price": "1011000000000000000000",
      "reserved": "",
      "salt": "0xf66bd03eb4bad62e28fe0400ecbecb49a1929070a532c8438c13943b8da4adef",
      "assetIds": []
    },
    {
      "x": 407,
      "y": 250,
      "size": 1,
      "price": "1011000000000000000000",
      "reserved": "",
      "salt": "0xb30f80112affafe5913e698a429df6402747671504fa2cb10dc5547363417604",
      "assetIds": []
    },
    {
      "x": 407,
      "y": 251,
      "size": 1,
      "price": "1011000000000000000000",
      "reserved": "",
      "salt": "0x54d6b761494beaa8f1feddf29711e59bcd7a1c25d009b82956b120237dfe2bf4",
      "assetIds": []
    },
    {
      "x": 407,
      "y": 291,
      "size": 1,
      "price": "1011000000000000000000",
      "reserved": "",
      "salt": "0x4c70aa9ab9ad00d73af084edae006ebc92bc24ecd982eda6e5c6060e9bd7a633",
      "assetIds": []
    },
    {
      "x": 407,
      "y": 292,
      "size": 1,
      "price": "1011000000000000000000",
      "reserved": "",
      "salt": "0xf193e9c7ce2c78f414bb7951315549a24e9fe2d57ed2ee65f67498da1b7fc92c",
      "assetIds": []
    },
    {
      "x": 407,
      "y": 293,
      "size": 1,
      "price": "1011000000000000000000",
      "reserved": "",
      "salt": "0xfb412abe52c3725af9ca4ad8d11acc7029dbb865e5ca856b5f460bb045b18499",
      "assetIds": []
    },
    {
      "x": 407,
      "y": 306,
      "size": 1,
      "price": "1011000000000000000000",
      "reserved": "",
      "salt": "0x3d2abbdccc7c924917b9cfc9424a84915d89de7ddb30bd9731a75dbfeef44a06",
      "assetIds": []
    },
    {
      "x": 407,
      "y": 307,
      "size": 1,
      "price": "1011000000000000000000",
      "reserved": "",
      "salt": "0x5c1e0a9118b88bd5417f6fa4f846ee03135f88a16b9ff2d3e14bb4f4b9b06cf1",
      "assetIds": []
    },
    {
      "x": 407,
      "y": 308,
      "size": 1,
      "price": "1011000000000000000000",
      "reserved": "",
      "salt": "0xebdd1e122e8164c4127966b846af75af71f96a2aa03c613108f384b1c8ee1ac7",
      "assetIds": []
    },
    {
      "x": 407,
      "y": 309,
      "size": 1,
      "price": "1011000000000000000000",
      "reserved": "",
      "salt": "0xb232e24a4793c668f816060810a635b4bd7096eba158cffdbf01034151c0a45f",
      "assetIds": []
    },
    {
      "x": 407,
      "y": 310,
      "size": 1,
      "price": "1011000000000000000000",
      "reserved": "",
      "salt": "0xe9ba0fce7b7f33dc9dadd4eb56b9b554f84f539c8577f0b5a44af66365c580be",
      "assetIds": []
    },
    {
      "x": 407,
      "y": 311,
      "size": 1,
      "price": "1011000000000000000000",
      "reserved": "",
      "salt": "0x39e30a5c8412bb745801fc6b8ee16af1b02401e986d34a696c87971395eb81aa",
      "assetIds": []
    },
    {
      "x": 333,
      "y": 258,
      "size": 3,
      "price": "8648000000000000000000",
      "reserved": "",
      "salt": "0x0336a840dd6a3b7a56a67d6e88cf02cae17aa1cdee105656aae837dceca88529",
      "assetIds": []
    },
    {
      "x": 333,
      "y": 270,
      "size": 3,
      "price": "8648000000000000000000",
      "reserved": "0x7a9fe22691c811ea339d9b73150e6911a5343dca",
      "salt": "0x1d7ab718312ffeec625b2a1c428337dfc033588558cbe6fa91b6310fc53aeaad",
      "assetIds": []
    },
    {
      "x": 333,
      "y": 273,
      "size": 3,
      "price": "8648000000000000000000",
      "reserved": "",
      "salt": "0x2c2363eddd8f7230394f45710063a926c6b3cac8ae843a4bff886a928c666afb",
      "assetIds": []
    },
    {
      "x": 333,
      "y": 291,
      "size": 3,
      "price": "8648000000000000000000",
      "reserved": "",
      "salt": "0x77448de98db5465c85f161f9b5f1f3a6c4832bfc9c938e6ffc88e1dff9dc036b",
      "assetIds": []
    },
    {
      "x": 336,
      "y": 255,
      "size": 3,
      "price": "8648000000000000000000",
      "reserved": "",
      "salt": "0xbd5a25ba53a97738ba95c4b3b4f49ff6ef910db439784faa67e2996bae0be7f5",
      "assetIds": []
    },
    {
      "x": 339,
      "y": 252,
      "size": 3,
      "price": "8648000000000000000000",
      "reserved": "0x7a9fe22691c811ea339d9b73150e6911a5343dca",
      "salt": "0x4671806a2e38894e7dfa581252eca84c3f8974993692aa1b523c5f3f475f8af1",
      "assetIds": []
    },
    {
      "x": 345,
      "y": 294,
      "size": 3,
      "price": "8648000000000000000000",
      "reserved": "0x7a9fe22691c811ea339d9b73150e6911a5343dca",
      "salt": "0x1398155e21d7e0822f26a1e0bf1837bab30060a3bdf4f960fbe24801540b5417",
      "assetIds": []
    },
    {
      "x": 345,
      "y": 300,
      "size": 3,
      "price": "8648000000000000000000",
      "reserved": "0x7a9fe22691c811ea339d9b73150e6911a5343dca",
      "salt": "0xd4ac6fc4d98142b85cb187ee8c47099d1e773c3cdeb77cc97ce73d7609db40df",
      "assetIds": []
    },
    {
      "x": 348,
      "y": 252,
      "size": 3,
      "price": "8648000000000000000000",
      "reserved": "",
      "salt": "0x86cd2ced06c1b9e0f504014763f83a2d1a7afdedaed2679ba9a2763a29129b70",
      "assetIds": []
    },
    {
      "x": 357,
      "y": 303,
      "size": 3,
      "price": "8648000000000000000000",
      "reserved": "",
      "salt": "0x4162a1ab159a3c1b5b990246ff3041776271c789be40b37465ada6399226dc66",
      "assetIds": []
    },
    {
      "x": 360,
      "y": 273,
      "size": 3,
      "price": "8648000000000000000000",
      "reserved": "0x7a9fe22691c811ea339d9b73150e6911a5343dca",
      "salt": "0x67881a4103bd62e5bdf252cd110d20005248baf3f9eb71cb7884bfdd58bf332c",
      "assetIds": []
    },
    {
      "x": 360,
      "y": 294,
      "size": 3,
      "price": "8648000000000000000000",
      "reserved": "",
      "salt": "0x38efadf12e9c2157dfbcc63c886c03a69e143b1ab2ce34ab57b1cbd099bc51dc",
      "assetIds": []
    },
    {
      "x": 366,
      "y": 267,
      "size": 3,
      "price": "8648000000000000000000",
      "reserved": "",
      "salt": "0xd531a28b9b2aefac2fefb512e70c3bc6a38cb3ffba85444159250b082b1dfada",
      "assetIds": []
    },
    {
      "x": 366,
      "y": 291,
      "size": 3,
      "price": "8648000000000000000000",
      "reserved": "0x7a9fe22691c811ea339d9b73150e6911a5343dca",
      "salt": "0x3b1f970997b49ad6a28476a5bbc8935e5f37a964cbf16a2a1644a9d56583b16b",
      "assetIds": []
    },
    {
      "x": 378,
      "y": 231,
      "size": 3,
      "price": "8648000000000000000000",
      "reserved": "0x7a9fe22691c811ea339d9b73150e6911a5343dca",
      "salt": "0xedf0f1fb4b390087f4eaf44b6492c9392d78c29a5a40c4bad8a6b70192453d40",
      "assetIds": []
    },
    {
      "x": 378,
      "y": 285,
      "size": 3,
      "price": "8648000000000000000000",
      "reserved": "",
      "salt": "0xdedda1fe53186b30b71428761f9d9c38fe7908ff03de847eb6588252b81cfa4f",
      "assetIds": []
    },
    {
      "x": 378,
      "y": 291,
      "size": 3,
      "price": "8648000000000000000000",
      "reserved": "0x7a9fe22691c811ea339d9b73150e6911a5343dca",
      "salt": "0x60dc1ac1396a7fedf4d923a6cdb4048e41f00f49f43406bd246eb098aad04739",
      "assetIds": []
    },
    {
      "x": 381,
      "y": 285,
      "size": 3,
      "price": "8648000000000000000000",
      "reserved": "0x7a9fe22691c811ea339d9b73150e6911a5343dca",
      "salt": "0x223dde7288a6a6de8fc8b56409f2bacc73d1f2fd7e3552991722a28feac3b38d",
      "assetIds": []
    },
    {
      "x": 384,
      "y": 252,
      "size": 3,
      "price": "8648000000000000000000",
      "reserved": "",
      "salt": "0xa7b352f1669b72d6636e265edbba66c7f1cea3f6ec13c341969ed1bb33b6ea1b",
      "assetIds": []
    },
    {
      "x": 387,
      "y": 222,
      "size": 3,
      "price": "8648000000000000000000",
      "reserved": "0x7a9fe22691c811ea339d9b73150e6911a5343dca",
      "salt": "0x18a412e76688f29b6df24b79389561c201aa0da8d62fe5c87b81824d3de9dd29",
      "assetIds": []
    },
    {
      "x": 390,
      "y": 258,
      "size": 3,
      "price": "8648000000000000000000",
      "reserved": "0x7a9fe22691c811ea339d9b73150e6911a5343dca",
      "salt": "0xbb4537c3ffd68bf536aa203b1029551dea4a3da7f53420dbacf9064571dea350",
      "assetIds": []
    },
    {
      "x": 390,
      "y": 288,
      "size": 3,
      "price": "8648000000000000000000",
      "reserved": "0x7a9fe22691c811ea339d9b73150e6911a5343dca",
      "salt": "0x2a876c93ac5e1450b1827cde59239dfcd7478a6298929d9aa06f62a399bcebd1",
      "assetIds": []
    },
    {
      "x": 390,
      "y": 303,
      "size": 3,
      "price": "8648000000000000000000",
      "reserved": "0x7a9fe22691c811ea339d9b73150e6911a5343dca",
      "salt": "0xac7bf2496329757b6cec43d2fb247a208f8ee95f92d12827be1fa18e06edc047",
      "assetIds": []
    },
    {
      "x": 390,
      "y": 309,
      "size": 3,
      "price": "8648000000000000000000",
      "reserved": "",
      "salt": "0x99fe7711ffa72f723afcb3c6bfdc61a0e54cd2b3fe29d81fb26578d3d505eba3",
      "assetIds": []
    },
    {
      "x": 393,
      "y": 261,
      "size": 3,
      "price": "8648000000000000000000",
      "reserved": "0x7a9fe22691c811ea339d9b73150e6911a5343dca",
      "salt": "0xd6e09719c894c291d60e5519f0e38bbd7f472da3f515cb5e799936284e1e7b8c",
      "assetIds": []
    },
    {
      "x": 393,
      "y": 297,
      "size": 3,
      "price": "8648000000000000000000",
      "reserved": "",
      "salt": "0xf575b33cb2ee153b743c8c2101ddce1d311f2ee0f8aefb19ac5f60cd8726dbf5",
      "assetIds": []
    },
    {
      "x": 399,
      "y": 237,
      "size": 3,
      "price": "8648000000000000000000",
      "reserved": "",
      "salt": "0xc31a7b124e3ee4c90b8336654d79446fe7721cfe2988f618ae73987928b563ef",
      "assetIds": []
    },
    {
      "x": 405,
      "y": 288,
      "size": 3,
      "price": "8648000000000000000000",
      "reserved": "0x7a9fe22691c811ea339d9b73150e6911a5343dca",
      "salt": "0x936c9079aea3d936d2ed8cdc3c921177eaea47375e846c289a9131f18a4c914a",
      "assetIds": []
    },
    {
      "x": 168,
      "y": 198,
      "size": 6,
      "price": "32772000000000000000000",
      "reserved": "0x7a9fe22691c811ea339d9b73150e6911a5343dca",
      "salt": "0x09a73173002f011cd6d04581edf31ca2ccf62bd367382cab11224aa9a2f321f8",
      "assetIds": []
    },
    {
      "x": 174,
      "y": 198,
      "size": 6,
      "price": "32772000000000000000000",
      "reserved": "0x7a9fe22691c811ea339d9b73150e6911a5343dca",
      "salt": "0xf178ac45d44db0d5824d0227d365fd4d28f67345df241954427a18275c787e65",
      "assetIds": []
    },
    {
      "x": 180,
      "y": 198,
      "size": 6,
      "price": "32772000000000000000000",
      "reserved": "0x7a9fe22691c811ea339d9b73150e6911a5343dca",
      "salt": "0x695d7152cb309c6c8439749466985e790284c24ab8241efdda8fa8fbe61b678d",
      "assetIds": []
    },
    {
      "x": 186,
      "y": 198,
      "size": 6,
      "price": "32772000000000000000000",
      "reserved": "0x7a9fe22691c811ea339d9b73150e6911a5343dca",
      "salt": "0xb4142a2e0467bc2729d00820f4cab5ab654091e7a36b6d1a0836d4f18e247527",
      "assetIds": []
    },
    {
      "x": 330,
      "y": 252,
      "size": 6,
      "price": "32772000000000000000000",
      "reserved": "0x7a9fe22691c811ea339d9b73150e6911a5343dca",
      "salt": "0x82b5bedb2a9875bab7ce1481cdf297c56278db34587b9334adc611d1100b845d",
      "assetIds": []
    },
    {
      "x": 330,
      "y": 264,
      "size": 6,
      "price": "32772000000000000000000",
      "reserved": "0x7a9fe22691c811ea339d9b73150e6911a5343dca",
      "salt": "0xa44fd390ef0ef285e24c195e20efd9b2deea2d4aadd1c79144a5e366d211934c",
      "assetIds": []
    },
    {
      "x": 330,
      "y": 294,
      "size": 6,
      "price": "32772000000000000000000",
      "reserved": "0x7a9fe22691c811ea339d9b73150e6911a5343dca",
      "salt": "0x02874def02fe7c9726d01a56672a9dbddc8120b4d4ef79556bfd1230e72808a1",
      "assetIds": []
    },
    {
      "x": 342,
      "y": 258,
      "size": 6,
      "price": "32772000000000000000000",
      "reserved": "0x7a9fe22691c811ea339d9b73150e6911a5343dca",
      "salt": "0x2ffc0401d5aefba07bfd63b1c3906eb3bb2177f72baacb529e51078e68de9ade",
      "assetIds": []
    },
    {
      "x": 342,
      "y": 288,
      "size": 6,
      "price": "32772000000000000000000",
      "reserved": "0x7a9fe22691c811ea339d9b73150e6911a5343dca",
      "salt": "0xd91126dde968803c1cf99dc2af4ce491b4b72589dc8915ebb562e5e291a9cc0e",
      "assetIds": []
    },
    {
      "x": 348,
      "y": 306,
      "size": 6,
      "price": "32772000000000000000000",
      "reserved": "0x7a9fe22691c811ea339d9b73150e6911a5343dca",
      "salt": "0x72fadb9ab8abfa25a7632855bf554dd49d85593f786b75b469ad65dd0b5364d7",
      "assetIds": []
    },
    {
      "x": 354,
      "y": 258,
      "size": 6,
      "price": "32772000000000000000000",
      "reserved": "0x716eb921f3b346d2c5749b5380dc740d359055d7",
      "salt": "0x2bb81592ceed79429381d3bf17f00cb8406678d406f77d49ea7d58a13599828a",
      "assetIds": []
    },
    {
      "x": 360,
      "y": 234,
      "size": 6,
      "price": "32772000000000000000000",
      "reserved": "0x7a9fe22691c811ea339d9b73150e6911a5343dca",
      "salt": "0x9d837db61dc879be8950c0b36794ae9ff61cf1c70b09b9bc98fd67b7304edf46",
      "assetIds": []
    },
    {
      "x": 360,
      "y": 264,
      "size": 6,
      "price": "32772000000000000000000",
      "reserved": "0x7a9fe22691c811ea339d9b73150e6911a5343dca",
      "salt": "0x658273f48b6930408da4bbf3c435784560f6b1e05b355b0d9fc5a1550d1ef8a5",
      "assetIds": []
    },
    {
      "x": 366,
      "y": 270,
      "size": 6,
      "price": "32772000000000000000000",
      "reserved": "0x7a9fe22691c811ea339d9b73150e6911a5343dca",
      "salt": "0xb83a5b15d7cbd169acefe7fb3ae61fc4f6502eb381bf5d0247cbb9edbbfdb3e3",
      "assetIds": []
    },
    {
      "x": 372,
      "y": 234,
      "size": 6,
      "price": "32772000000000000000000",
      "reserved": "0x7a9fe22691c811ea339d9b73150e6911a5343dca",
      "salt": "0x405b846cd1a57ca3c8fc4485e299f36e380b3b292d3c9c06e40794f92e5292bc",
      "assetIds": []
    },
    {
      "x": 372,
      "y": 282,
      "size": 6,
      "price": "32772000000000000000000",
      "reserved": "0x7a9fe22691c811ea339d9b73150e6911a5343dca",
      "salt": "0x07080d8b9cdfb5bd673ac07069d918f7f0bdb000ed00e7489aab4e932613f214",
      "assetIds": []
    },
    {
      "x": 378,
      "y": 276,
      "size": 6,
      "price": "32772000000000000000000",
      "reserved": "0x7a9fe22691c811ea339d9b73150e6911a5343dca",
      "salt": "0xc6975bc2ed40d7d6265f2bdb4dea0b0d4fcbf50932d333c615be2d7bcf03db62",
      "assetIds": []
    },
    {
      "x": 378,
      "y": 294,
      "size": 6,
      "price": "32772000000000000000000",
      "reserved": "0x7a9fe22691c811ea339d9b73150e6911a5343dca",
      "salt": "0x2e3b55bab25e434f07e44e5a7a037fb8d667f94f9615d0527fcf8bb602905e4b",
      "assetIds": []
    },
    {
      "x": 384,
      "y": 258,
      "size": 6,
      "price": "32772000000000000000000",
      "reserved": "0x7a9fe22691c811ea339d9b73150e6911a5343dca",
      "salt": "0xcbb679064bb8e7ed7ee81dacc5fdabea1212e2baf419d60f81fe72fc103a0b82",
      "assetIds": []
    },
    {
      "x": 384,
      "y": 288,
      "size": 6,
      "price": "32772000000000000000000",
      "reserved": "0x7a9fe22691c811ea339d9b73150e6911a5343dca",
      "salt": "0xb8dc7ae21fae8d29dfd773aafd01e9361cafe6abb67fc2318ac1622459509157",
      "assetIds": []
    },
    {
      "x": 384,
      "y": 300,
      "size": 6,
      "price": "32772000000000000000000",
      "reserved": "0x7a9fe22691c811ea339d9b73150e6911a5343dca",
      "salt": "0x5d112694e6fb64abff2d97069c0434d47598820169d71da9a4b103fa2d65430e",
      "assetIds": []
    },
    {
      "x": 390,
      "y": 216,
      "size": 6,
      "price": "32772000000000000000000",
      "reserved": "0x7a9fe22691c811ea339d9b73150e6911a5343dca",
      "salt": "0x73f575d9ce4d1dd2d6febf64cd81f6c71ae3ec8868d8581d74777fafa3dd168e",
      "assetIds": []
    },
    {
      "x": 390,
      "y": 228,
      "size": 6,
      "price": "32772000000000000000000",
      "reserved": "0x7a9fe22691c811ea339d9b73150e6911a5343dca",
      "salt": "0x8a465851dcff9bf6bf32d2b5b2675580e6e9c541e9224963050ddcda2083b691",
      "assetIds": []
    },
    {
      "x": 396,
      "y": 288,
      "size": 6,
      "price": "32772000000000000000000",
      "reserved": "0x7a9fe22691c811ea339d9b73150e6911a5343dca",
      "salt": "0x023cec81116aadfb620c4860a1ed2505e8d13221c8c7c52871a928bc5020f886",
      "assetIds": []
    },
    {
      "x": 396,
      "y": 300,
      "size": 6,
      "price": "32772000000000000000000",
      "reserved": "0x7a9fe22691c811ea339d9b73150e6911a5343dca",
      "salt": "0x2fc7da0be76249424767595657f75ab6407424beb2a68165678b8b2dc214e9f0",
      "assetIds": []
    },
    {
      "x": 396,
      "y": 306,
      "size": 6,
      "price": "32772000000000000000000",
      "reserved": "0x7a9fe22691c811ea339d9b73150e6911a5343dca",
      "salt": "0x4034a3ca04360ddf6ded69d7b43cace6ff700cf9fbb25ff0718fbd58a8ca2bef",
      "assetIds": []
    },
    {
      "x": 402,
      "y": 228,
      "size": 6,
      "price": "32772000000000000000000",
      "reserved": "0x7a9fe22691c811ea339d9b73150e6911a5343dca",
      "salt": "0x8a15c50e6462e82ace915e7e3ac39639e82b23adf460eaac22f4340fbcb3bf1d",
      "assetIds": []
    },
    {
      "x": 402,
      "y": 234,
      "size": 6,
      "price": "32772000000000000000000",
      "reserved": "0x7a9fe22691c811ea339d9b73150e6911a5343dca",
      "salt": "0x71518f9da7d8c8e2eef01b52e92e346e238016280ab4c2148b25a3bc468153d7",
      "assetIds": []
    },
    {
      "x": 402,
      "y": 294,
      "size": 6,
      "price": "32772000000000000000000",
      "reserved": "0x7a9fe22691c811ea339d9b73150e6911a5343dca",
      "salt": "0xc505ae4c4fae933c560371cf41e4ed3bc0a3c876c211cc35a63faabf78d22c6b",
      "assetIds": []
    },
    {
      "x": 402,
      "y": 300,
      "size": 6,
      "price": "32772000000000000000000",
      "reserved": "0x7a9fe22691c811ea339d9b73150e6911a5343dca",
      "salt": "0xf71c72daba49d9270e027bd9278997d55a31af10a0ead71916ec229783b122de",
      "assetIds": []
    },
    {
      "x": 324,
      "y": 276,
      "size": 12,
      "price": "123806000000000000000000",
      "reserved": "0x7a9fe22691c811ea339d9b73150e6911a5343dca",
      "salt": "0x5c73284957f2c86f464b7e2609b6079092892251e874e10b581dd19000d6cd3b",
      "assetIds": []
    },
    {
      "x": 348,
      "y": 240,
      "size": 12,
      "price": "123806000000000000000000",
      "reserved": "0x7a9fe22691c811ea339d9b73150e6911a5343dca",
      "salt": "0xc8d8b567c1d6463f105a71ef278e684a82b3080e37defb24d5109ff4713974a9",
      "assetIds": []
    },
    {
      "x": 348,
      "y": 288,
      "size": 12,
      "price": "123806000000000000000000",
      "reserved": "0x7a9fe22691c811ea339d9b73150e6911a5343dca",
      "salt": "0x464448c795dfa205a1d1376463379e5a7440f7cd0941d8b3ab15785351958201",
      "assetIds": []
    },
    {
      "x": 360,
      "y": 276,
      "size": 12,
      "price": "123806000000000000000000",
      "reserved": "0x7a9fe22691c811ea339d9b73150e6911a5343dca",
      "salt": "0xd600d51eba3c9b37a89799a198bdbf3975364b4396a87c9aa2eeba4361f51a89",
      "assetIds": []
    },
    {
      "x": 372,
      "y": 264,
      "size": 12,
      "price": "123806000000000000000000",
      "reserved": "0x7a9fe22691c811ea339d9b73150e6911a5343dca",
      "salt": "0xb335d9fe6e0b1c24ebe98915330f220b220689df8e67b3456075e881c5059d59",
      "assetIds": []
    },
    {
      "x": 384,
      "y": 240,
      "size": 12,
      "price": "123806000000000000000000",
      "reserved": "0x7a9fe22691c811ea339d9b73150e6911a5343dca",
      "salt": "0x70197bf3e8c59624b0479da2c6ca9adcffef4bacb3c9a0438829b3b2da60ed07",
      "assetIds": []
    },
    {
      "x": 396,
      "y": 216,
      "size": 12,
      "price": "123806000000000000000000",
      "reserved": "0x7a9fe22691c811ea339d9b73150e6911a5343dca",
      "salt": "0xef94cd4e8b5a5ed279e6c2b25d230a8b75e2b06fc2d8023bc38ef6dc99176d1e",
      "assetIds": []
    },
    {
      "x": 396,
      "y": 252,
      "size": 12,
      "price": "123806000000000000000000",
      "reserved": "0x7a9fe22691c811ea339d9b73150e6911a5343dca",
      "salt": "0xe960b3be192802464c976421654ef5beea86fcc8bf0785623a8e4de76dc1f562",
      "assetIds": []
    },
    {
      "x": 336,
      "y": 264,
      "size": 24,
      "price": "466102000000000000000000",
      "reserved": "0x7a9fe22691c811ea339d9b73150e6911a5343dca",
      "salt": "0x11a304ee3c17b7ae2ec4cc14a58eea6ebecbd93f9edae2ae13420f507e4b9a49",
      "assetIds": []
    },
    {
      "x": 360,
      "y": 240,
      "size": 24,
      "price": "466102000000000000000000",
      "reserved": "0x7a9fe22691c811ea339d9b73150e6911a5343dca",
      "salt": "0x06614e29a84ea6880deed806be8355c6f1d095a790834af041c025e47775e8ef",
      "assetIds": []
    },
    {
      "x": 384,
      "y": 264,
      "size": 24,
      "price": "466102000000000000000000",
      "reserved": "0x7a9fe22691c811ea339d9b73150e6911a5343dca",
      "salt": "0x2b98bca6c2a6277282c57913de5781bbf22a3b9ac8a8855c78faf456b7af481d",
      "assetIds": []
    }
  ],
  "solcInputHash": "a4de1e9cf87be8a7daa33c15e9438e26",
  "bytecode": "0x610160604052620d2f006005556103e860075534801561001e57600080fd5b5060405161242e38038061242e833981810160405261018081101561004257600080fd5b50805160208201516040830151606080850151608086015160a08088015160c0808a015160e08b01516101008c01516101208d01516101408e0151610160909e0151600280546001600160a01b0319166001600160a01b03861617905560038390558d8b1b6001600160601b0319908116909852998c901b909616909352999a9899979895979496929590949391926100dc8a600161014a565b600680546001600160a01b03199081166001600160a01b039a8b1617909155610140979097526101209590955260008054909616979096169690961790935550606093841b6001600160601b031990811660e05292841b831660805290921b1661010052506101ae92505050565b6001600160a01b038216600081815260016020908152604091829020805460ff191685151590811790915582519384529083015280517fb21eb88b4e33b3f1281830a7178d74d8aa73220416215726b68ae23d539515cb9281900390910190a15050565b60805160601c60a05160601c60c05160601c60e05160601c6101005160601c61012051610140516121fb610233600039806109375280611d44525080610913528061139a525080611da45250806115d252806116f4525080610c50528061159c5280611dd852508061166152806116c5525080610dfa528061190852506121fb6000f3fe608060405234801561001057600080fd5b50600436106101515760003560e01c8063984d6252116100cd578063dc5074af11610081578063ecb255b511610066578063ecb255b514610857578063f23a6e6114610874578063f2e7b3811461090957610151565b8063dc5074af14610814578063e56f8a9e1461083a57610151565b8063bc197c81116100b2578063bc197c81146105d3578063c10a420814610735578063caed35001461080c57610151565b8063984d6252146104db578063b522ecff146105ad57610151565b80636e9960c3116101245780638a04af6a116101095780638a04af6a1461032a5780638a12b82f146103585780638f283970146104b557610151565b80636e9960c3146102fe57806377f1c3ac1461032257610151565b806325cb5bc014610156578063495906571461017057806358bc29441461017857806365194ce7146101a0575b600080fd5b61015e610911565b60408051918252519081900360200190f35b61015e610935565b61019e6004803603602081101561018e57600080fd5b50356001600160a01b0316610959565b005b610246600480360360208110156101b657600080fd5b8101906020810181356401000000008111156101d157600080fd5b8201836020820111156101e357600080fd5b8035906020019184600183028401116401000000008311171561020557600080fd5b91908080601f016020809104026020016040519081016040528093929190818152602001838380828437600092019190915250929550610a04945050505050565b6040518080602001866001600160a01b03166001600160a01b03168152602001856001600160a01b03166001600160a01b03168152602001848152602001838152602001828103825287818151815260200191508051906020019080838360005b838110156102bf5781810151838201526020016102a7565b50505050905090810190601f1680156102ec5780820380516001836020036101000a031916815260200191505b50965050505050505060405180910390f35b610306610b09565b604080516001600160a01b039092168252519081900360200190f35b61015e610b18565b61019e6004803603604081101561034057600080fd5b506001600160a01b0381351690602001351515610b1e565b61019e600480360361018081101561036f57600080fd5b6001600160a01b038235811692602081013582169260408201359092169160608201359160808101359160a08201359160c08101359160e0820135916101008101359181019061014081016101208201356401000000008111156103d257600080fd5b8201836020820111156103e457600080fd5b8035906020019184602083028401116401000000008311171561040657600080fd5b91939092909160208101903564010000000081111561042457600080fd5b82018360208201111561043657600080fd5b8035906020019184602083028401116401000000008311171561045857600080fd5b91939092909160208101903564010000000081111561047657600080fd5b82018360208201111561048857600080fd5b803590602001918460018302840111640100000000831117156104aa57600080fd5b509092509050610b75565b61019e600480360360208110156104cb57600080fd5b50356001600160a01b0316610cc3565b61019e600480360360608110156104f157600080fd5b6001600160a01b03823516919081019060408101602082013564010000000081111561051c57600080fd5b82018360208201111561052e57600080fd5b8035906020019184602083028401116401000000008311171561055057600080fd5b91939092909160208101903564010000000081111561056e57600080fd5b82018360208201111561058057600080fd5b803590602001918460208302840111640100000000831117156105a257600080fd5b509092509050610d99565b61019e600480360360208110156105c357600080fd5b50356001600160a01b0316610f24565b610700600480360360a08110156105e957600080fd5b6001600160a01b03823581169260208101359091169181019060608101604082013564010000000081111561061d57600080fd5b82018360208201111561062f57600080fd5b8035906020019184602083028401116401000000008311171561065157600080fd5b91939092909160208101903564010000000081111561066f57600080fd5b82018360208201111561068157600080fd5b803590602001918460208302840111640100000000831117156106a357600080fd5b9193909290916020810190356401000000008111156106c157600080fd5b8201836020820111156106d357600080fd5b803590602001918460018302840111640100000000831117156106f557600080fd5b50909250905061100d565b604080517fffffffff000000000000000000000000000000000000000000000000000000009092168252519081900360200190f35b6107f8600480360360a081101561074b57600080fd5b81019060208101813564010000000081111561076657600080fd5b82018360208201111561077857600080fd5b8035906020019184600183028401116401000000008311171561079a57600080fd5b91908080601f016020809104026020016040519081016040528093929190818152602001838380828437600092019190915250929550506001600160a01b03833581169450602084013516926040810135925060600135905061103a565b604080519115158252519081900360200190f35b610306611176565b6107f86004803603602081101561082a57600080fd5b50356001600160a01b0316611185565b61019e6004803603602081101561085057600080fd5b50356111a3565b61019e6004803603602081101561086d57600080fd5b5035611207565b610700600480360360a081101561088a57600080fd5b6001600160a01b03823581169260208101359091169160408201359160608101359181019060a0810160808201356401000000008111156108ca57600080fd5b8201836020820111156108dc57600080fd5b803590602001918460018302840111640100000000831117156108fe57600080fd5b50909250905061126b565b61015e611296565b7f000000000000000000000000000000000000000000000000000000000000000090565b7f000000000000000000000000000000000000000000000000000000000000000090565b6000546001600160a01b031633146109b8576040805162461bcd60e51b815260206004820152601060248201527f53656e646572206e6f742061646d696e00000000000000000000000000000000604482015290519081900360640190fd5b600554600280546001600160a01b03908116600090815260046020526040902042909301909255805473ffffffffffffffffffffffffffffffffffffffff191692909116919091179055565b606060008060008060606000806000808a80602001905160a0811015610a2957600080fd5b8101908080516040519392919084640100000000821115610a4957600080fd5b908301906020820185811115610a5e57600080fd5b8251640100000000811182820188101715610a7857600080fd5b82525081516020918201929091019080838360005b83811015610aa5578181015183820152602001610a8d565b50505050905090810190601f168015610ad25780820380516001836020036101000a031916815260200191505b5060409081526020820151908201516060830151608090930151959f50909d509b5099509197505050505050505091939590929450565b6000546001600160a01b031690565b60035490565b6000546001600160a01b03163314610b675760405162461bcd60e51b815260040180806020018281038252602e815260200180612198602e913960400191505060405180910390fd5b610b71828261129c565b5050565b610b7f898961131e565b610c048f8e8e8e8e8e8d8d8d80806020026020016040519081016040528093929190818152602001838360200280828437600081840152601f19601f820116905080830192505050505050508c8c8080602002602001604051908101604052809392919081815260200183836020028082843760009201919091525061139892505050565b610c458f8984848080601f01602080910402602001604051908101604052809392919081815260200183838082843760009201919091525061157592505050565b610c758f8f8e8e8e8d7f00000000000000000000000000000000000000000000000000000000000000008f6115c6565b610cb28e87878080602002602001604051908101604052809392919081815260200183836020028082843760009201919091525061189192505050565b505050505050505050505050505050565b6000546001600160a01b03163314610d22576040805162461bcd60e51b815260206004820152601b60248201527f6f6e6c792061646d696e2063616e206368616e67652061646d696e0000000000604482015290519081900360640190fd5b600054604080516001600160a01b039283168152918316602083015280517f7e644d79422f17c01e4894b5f4f588d331ebfa28653d42ae832dc59e38c9798f9281900390910190a16000805473ffffffffffffffffffffffffffffffffffffffff19166001600160a01b0392909216919091179055565b6000546001600160a01b03163314610df8576040805162461bcd60e51b815260206004820152600e60248201527f4e4f545f415554484f52495a4544000000000000000000000000000000000000604482015290519081900360640190fd5b7f00000000000000000000000000000000000000000000000000000000000000006001600160a01b0316632eb2c2d63087878787876040518763ffffffff1660e01b815260040180876001600160a01b03166001600160a01b03168152602001866001600160a01b03166001600160a01b031681526020018060200180602001806020018481038452888882818152602001925060200280828437600083820152601f01601f19169091018581038452868152602090810191508790870280828437600081840152601f19601f8201169050808301925050508481038252600081526020016020019950505050505050505050600060405180830381600087803b158015610f0557600080fd5b505af1158015610f19573d6000803e3d6000fd5b505050505050505050565b6001600160a01b038116610f7f576040805162461bcd60e51b815260206004820152600c60248201527f5a45524f5f414444524553530000000000000000000000000000000000000000604482015290519081900360640190fd5b6000546001600160a01b03163314610fde576040805162461bcd60e51b815260206004820152600e60248201527f4e4f545f415554484f52495a4544000000000000000000000000000000000000604482015290519081900360640190fd5b6006805473ffffffffffffffffffffffffffffffffffffffff19166001600160a01b0392909216919091179055565b7fbc197c810000000000000000000000000000000000000000000000000000000098975050505050505050565b600060035482118061105d5750836001600160a01b0316856001600160a01b0316145b8061106757508242115b156110745750600061116d565b60408051606087811b7fffffffffffffffffffffffffffffffffffffffff0000000000000000000000009081166020808501919091529188901b166034830152604882018690526068808301869052835180840390910181526088830184528051908201207f19457468657265756d205369676e6564204d6573736167653a0a33320000000060a884015260c48084018290528451808503909101815260e4909301909352815191012060009061112b9089611a55565b6001600160a01b03811660009081526004602052604090205490915042116111585760019250505061116d565b6002546001600160a01b039081169116149150505b95945050505050565b6002546001600160a01b031690565b6001600160a01b031660009081526001602052604090205460ff1690565b6000546001600160a01b03163314611202576040805162461bcd60e51b815260206004820152601060248201527f53656e646572206e6f742061646d696e00000000000000000000000000000000604482015290519081900360640190fd5b600355565b6000546001600160a01b03163314611266576040805162461bcd60e51b815260206004820152600e60248201527f4e4f545f415554484f52495a4544000000000000000000000000000000000000604482015290519081900360640190fd5b600755565b7ff23a6e61000000000000000000000000000000000000000000000000000000009695505050505050565b60075490565b6001600160a01b03821660008181526001602090815260409182902080547fffffffffffffffffffffffffffffffffffffffffffffffffffffffffffffff001685151590811790915582519384529083015280517fb21eb88b4e33b3f1281830a7178d74d8aa73220416215726b68ae23d539515cb9281900390910190a15050565b6113456103e861133960075485611b2290919063ffffffff16565b9063ffffffff611b9816565b8114610b71576040805162461bcd60e51b815260206004820152600d60248201527f494e56414c49445f505249434500000000000000000000000000000000000000604482015290519081900360640190fd5b7f0000000000000000000000000000000000000000000000000000000000000000421061140c576040805162461bcd60e51b815260206004820152600c60248201527f53414c455f49535f4f5645520000000000000000000000000000000000000000604482015290519081900360640190fd5b6001600160a01b03891633148061143257503360009081526001602052604090205460ff165b611483576040805162461bcd60e51b815260206004820152600e60248201527f4e4f545f415554484f52495a4544000000000000000000000000000000000000604482015290519081900360640190fd5b6001600160a01b03881615806114aa5750886001600160a01b0316886001600160a01b0316145b6114fb576040805162461bcd60e51b815260206004820152600d60248201527f52455345525645445f4c414e4400000000000000000000000000000000000000604482015290519081900360640190fd5b600061150c888888888d8989611bfd565b90506115188282611ca2565b611569576040805162461bcd60e51b815260206004820152600c60248201527f494e56414c49445f4c414e440000000000000000000000000000000000000000604482015290519081900360640190fd5b50505050505050505050565b60006115818484611d6b565b6006549091506115c0908590839085906001600160a01b03167f0000000000000000000000000000000000000000000000000000000000000000611eb8565b50505050565b83600114806115fc57507f00000000000000000000000000000000000000000000000000000000000000006001600160a01b0316155b156116c357604080517f6e1e3bbf0000000000000000000000000000000000000000000000000000000081526001600160a01b03898116600483015260248201879052604482018990526064820188905260a06084830152600060a4830181905292517f000000000000000000000000000000000000000000000000000000000000000090911692636e1e3bbf9260e4808201939182900301818387803b1580156116a657600080fd5b505af11580156116ba573d6000803e3d6000fd5b50505050611827565b7f00000000000000000000000000000000000000000000000000000000000000006001600160a01b0316636e1e3bbf7f00000000000000000000000000000000000000000000000000000000000000008689898c60405160200180826001600160a01b03166001600160a01b031681526020019150506040516020818303038152906040526040518663ffffffff1660e01b815260040180866001600160a01b03166001600160a01b0316815260200185815260200184815260200183815260200180602001828103825283818151815260200191508051906020019080838360005b838110156117be5781810151838201526020016117a6565b50505050905090810190601f1680156117eb5780820380516001836020036101000a031916815260200191505b509650505050505050600060405180830381600087803b15801561180e57600080fd5b505af1158015611822573d6000803e3d6000fd5b505050505b60408051858152602081018590526001600160a01b03848116828401526060820184905291516101988802890192808b1692908c16917fe4dfa6ac11314892f3029b34a25b1a887da3b1cab2bbf8506d87128ba6e3ac029181900360800190a45050505050505050565b6060815167ffffffffffffffff811180156118ab57600080fd5b506040519080825280602002602001820160405280156118d5578160200160208202803683370190505b50905060005b82518110156119055760018282815181106118f257fe5b60209081029190910101526001016118db565b507f00000000000000000000000000000000000000000000000000000000000000006001600160a01b0316632eb2c2d6308585856040518563ffffffff1660e01b815260040180856001600160a01b03166001600160a01b03168152602001846001600160a01b03166001600160a01b03168152602001806020018060200180602001848103845286818151815260200191508051906020019060200280838360005b838110156119c05781810151838201526020016119a8565b50505050905001848103835285818151815260200191508051906020019060200280838360005b838110156119ff5781810151838201526020016119e7565b50505050905001848103825260008152602001602001975050505050505050600060405180830381600087803b158015611a3857600080fd5b505af1158015611a4c573d6000803e3d6000fd5b50505050505050565b60008151604114611a6557600080fd5b60208201516040830151606084015160001a601b811015611a8457601b015b8060ff16601b1480611a9957508060ff16601c145b611aa257600080fd5b6040805160008152602080820180845289905260ff8416828401526060820186905260808201859052915160019260a0808401939192601f1981019281900390910190855afa158015611af9573d6000803e3d6000fd5b5050604051601f1901519450506001600160a01b038416611b1957600080fd5b50505092915050565b600082611b3157506000611b92565b5081810281838281611b3f57fe5b0414611b92576040805162461bcd60e51b815260206004820152600860248201527f6f766572666c6f77000000000000000000000000000000000000000000000000604482015290519081900360640190fd5b92915050565b600081611bec576040805162461bcd60e51b815260206004820152600960248201527f64697662797a65726f0000000000000000000000000000000000000000000000604482015290519081900360640190fd5b818381611bf557fe5b049392505050565b60008787878787878760405160200180888152602001878152602001868152602001858152602001846001600160a01b03166001600160a01b031660601b8152601401838152602001828051906020019060200280838360005b83811015611c6f578181015183820152602001611c57565b50505050905001975050505050505050604051602081830303815290604052805190602001209050979650505050505050565b600081815b8451811015611d41576000858281518110611cbe57fe5b6020026020010151905080831015611d065782816040516020018083815260200182815260200192505050604051602081830303815290604052805190602001209250611d38565b808360405160200180838152602001828152602001925050506040516020818303038152906040528051906020012092505b50600101611ca7565b507f0000000000000000000000000000000000000000000000000000000000000000149392505050565b600080611d84606461133985600563ffffffff611b2216565b604080516323b872dd60e01b81526001600160a01b0387811660048301527f0000000000000000000000000000000000000000000000000000000000000000811660248301526044820184905291519293507f0000000000000000000000000000000000000000000000000000000000000000909116916323b872dd916064808201926020929091908290030181600087803b158015611e2357600080fd5b505af1158015611e37573d6000803e3d6000fd5b505050506040513d6020811015611e4d57600080fd5b5051611ea0576040805162461bcd60e51b815260206004820152601360248201527f4645455f5452414e534645525f4641494c454400000000000000000000000000604482015290519081900360640190fd5b611eb0838263ffffffff61213a16565b949350505050565b82518190859015612062576060600080600080611ed48a610a04565b9398509196509450925090506000611eef868686868661103a565b15611f7d57611f09611f018d84611b22565b612710611b98565b9050886001600160a01b0316846001600160a01b0316866001600160a01b03167fac7a699eb95c3c6d390ec4626de17ef9a67b35891efdb197beba7c7fdd45fac48f858760405180848152602001838152602001828152602001935050505060405180910390a4611f7a878261213a565b96505b801561205b57604080516323b872dd60e01b81526001600160a01b038f811660048301528781166024830152604482018490529151918a16916323b872dd916064808201926020929091908290030181600087803b158015611fde57600080fd5b505af1158015611ff2573d6000803e3d6000fd5b505050506040513d602081101561200857600080fd5b505161205b576040805162461bcd60e51b815260206004820152601960248201527f636f6d6d6973696f6e207472616e73666572206661696c656400000000000000604482015290519081900360640190fd5b5050505050505b604080516323b872dd60e01b81526001600160a01b0389811660048301528681166024830152604482018490529151918416916323b872dd916064808201926020929091908290030181600087803b1580156120bd57600080fd5b505af11580156120d1573d6000803e3d6000fd5b505050506040513d60208110156120e757600080fd5b5051611a4c576040805162461bcd60e51b815260206004820152601760248201527f7061796d656e74207472616e73666572206661696c6564000000000000000000604482015290519081900360640190fd5b600082821115612191576040805162461bcd60e51b815260206004820152600860248201527f756e6465666c6f77000000000000000000000000000000000000000000000000604482015290519081900360640190fd5b5090039056fe6f6e6c792061646d696e2063616e207365747570206d6574615472616e73616374696f6e50726f636573736f7273a26469706673582212200ff38c5741c66b2a22a9a9ee2abe0f55626323082b6b4443921fd3b25484584a64736f6c63430006050033",
  "devdoc": {
    "methods": {
      "buyLandWithSand(address,address,address,uint256,uint256,uint256,uint256,uint256,bytes32,uint256[],bytes32[],bytes)": {
        "params": {
          "buyer": "address that perform the payment",
          "priceInSand": "price in SAND to purchase that Land",
          "proof": "merkleProof for that particular Land",
          "reserved": "the reserved address (if any)",
          "size": "size of the pack of Land to purchase",
          "to": "address that will own the purchased Land",
          "x": "x coordinate of the Land",
          "y": "y coordinate of the Land"
        }
      },
      "changeAdmin(address)": {
        "details": "change the administrator to be `newAdmin`.",
        "params": {
          "newAdmin": "address of the new administrator."
        }
      },
      "getAdmin()": {
        "details": "gives the current administrator of this contract.",
        "returns": {
          "_0": "the current administrator of this contract."
        }
      },
      "getSigningWallet()": {
        "details": "signing wallet authorized for referral",
        "returns": {
          "_0": "the address of the signing wallet"
        }
      },
      "isMetaTransactionProcessor(address)": {
        "details": "check whether address `who` is given meta-transaction execution rights.",
        "params": {
          "who": "The address to query."
        },
        "returns": {
          "_0": "whether the address has meta-transaction execution rights."
        }
      },
      "isReferralValid(bytes,address,address,uint256,uint256)": {
        "params": {
          "commissionRate": "The commissionRate of the referral",
          "expiryTime": "The expiry time of the referral",
          "referee": "The address of the referee",
          "referrer": "The address of the referrer",
          "signature": "The signature to check (signed referral)"
        },
        "returns": {
          "_0": "True if the referral is valid"
        }
      },
      "setMetaTransactionProcessor(address,bool)": {
        "details": "Enable or disable the ability of `metaTransactionProcessor` to perform meta-tx (metaTransactionProcessor rights).",
        "params": {
          "enabled": "set whether the metaTransactionProcessor is enabled or disabled.",
          "metaTransactionProcessor": "address that will be given/removed metaTransactionProcessor rights."
        }
      },
      "setReceivingWallet(address)": {
        "params": {
          "newWallet": "address of the new receiving wallet"
        }
      },
      "updateMaxCommissionRate(uint256)": {
        "details": "Update the maximum commission rate",
        "params": {
          "newMaxCommissionRate": "The new maximum commission rate"
        }
      },
      "updateSigningWallet(address)": {
        "details": "Update the signing wallet",
        "params": {
          "newSigningWallet": "The new address of the signing wallet"
        }
      },
      "withdrawAssets(address,uint256[],uint256[])": {
        "params": {
          "assetIds": "the assetIds to be transferred",
          "to": "intended recipient of the asset tokens",
          "values": "the quantities of the assetIds to be transferred"
        }
      }
    },
    "title": "Estate Sale contract with referral"
  },
  "userdoc": {
    "methods": {
      "buyLandWithSand(address,address,address,uint256,uint256,uint256,uint256,uint256,bytes32,uint256[],bytes32[],bytes)": {
        "notice": "buy Land with SAND using the merkle proof associated with it"
      },
      "getExpiryTime()": {
        "notice": "Gets the expiry time for the current sale"
      },
      "getMaxCommisionRate()": {
        "notice": "the max commision rate"
      },
      "getMerkleRoot()": {
        "notice": "Gets the Merkle root associated with the current sale"
      },
      "isReferralValid(bytes,address,address,uint256,uint256)": {
        "notice": "Check if a referral is valid"
      },
      "setReceivingWallet(address)": {
        "notice": "set the wallet receiving the proceeds"
      },
      "withdrawAssets(address,uint256[],uint256[])": {
        "notice": "enable Admin to withdraw remaining assets from EstateSaleWithFee contract"
      }
    },
    "notice": "This contract manages the sale of our lands as Estates"
  },
  "storageLayout": {
    "storage": [
      {
        "astId": 15353,
        "contract": "src/solc_0.6/EstateSale/EstateSaleWithFee.sol:EstateSaleWithFee",
        "label": "_admin",
        "offset": 0,
        "slot": "0",
        "type": "t_address"
      },
      {
        "astId": 15415,
        "contract": "src/solc_0.6/EstateSale/EstateSaleWithFee.sol:EstateSaleWithFee",
        "label": "_metaTransactionContracts",
        "offset": 0,
        "slot": "1",
        "type": "t_mapping(t_address,t_bool)"
      },
      {
        "astId": 13531,
        "contract": "src/solc_0.6/EstateSale/EstateSaleWithFee.sol:EstateSaleWithFee",
        "label": "_signingWallet",
        "offset": 0,
        "slot": "2",
        "type": "t_address"
      },
      {
        "astId": 13533,
        "contract": "src/solc_0.6/EstateSale/EstateSaleWithFee.sol:EstateSaleWithFee",
        "label": "_maxCommissionRate",
        "offset": 0,
        "slot": "3",
        "type": "t_uint256"
      },
      {
        "astId": 13537,
        "contract": "src/solc_0.6/EstateSale/EstateSaleWithFee.sol:EstateSaleWithFee",
        "label": "_previousSigningWallets",
        "offset": 0,
        "slot": "4",
        "type": "t_mapping(t_address,t_uint256)"
      },
      {
        "astId": 13546,
        "contract": "src/solc_0.6/EstateSale/EstateSaleWithFee.sol:EstateSaleWithFee",
        "label": "_previousSigningDelay",
        "offset": 0,
        "slot": "5",
        "type": "t_uint256"
      },
      {
        "astId": 9918,
        "contract": "src/solc_0.6/EstateSale/EstateSaleWithFee.sol:EstateSaleWithFee",
        "label": "_wallet",
        "offset": 0,
        "slot": "6",
        "type": "t_address_payable"
      },
      {
        "astId": 9928,
        "contract": "src/solc_0.6/EstateSale/EstateSaleWithFee.sol:EstateSaleWithFee",
        "label": "_multiplier",
        "offset": 0,
        "slot": "7",
        "type": "t_uint256"
      }
    ],
    "types": {
      "t_address": {
        "encoding": "inplace",
        "label": "address",
        "numberOfBytes": "20"
      },
      "t_address_payable": {
        "encoding": "inplace",
        "label": "address payable",
        "numberOfBytes": "20"
      },
      "t_bool": {
        "encoding": "inplace",
        "label": "bool",
        "numberOfBytes": "1"
      },
      "t_mapping(t_address,t_bool)": {
        "encoding": "mapping",
        "key": "t_address",
        "label": "mapping(address => bool)",
        "numberOfBytes": "32",
        "value": "t_bool"
      },
      "t_mapping(t_address,t_uint256)": {
        "encoding": "mapping",
        "key": "t_address",
        "label": "mapping(address => uint256)",
        "numberOfBytes": "32",
        "value": "t_uint256"
      },
      "t_uint256": {
        "encoding": "inplace",
        "label": "uint256",
        "numberOfBytes": "32"
      }
    }
  }
}