{
  "address": "0x2a1276a103ad0727baedeE444e37Ce9eE07A3EFE",
  "abi": [
    {
      "inputs": [
        {
          "internalType": "address",
          "name": "landAddress",
          "type": "address"
        },
        {
          "internalType": "address",
          "name": "sandContractAddress",
          "type": "address"
        },
        {
          "internalType": "address",
          "name": "initialMetaTx",
          "type": "address"
        },
        {
          "internalType": "address",
          "name": "admin",
          "type": "address"
        },
        {
          "internalType": "address payable",
          "name": "initialWalletAddress",
          "type": "address"
        },
        {
          "internalType": "bytes32",
          "name": "merkleRoot",
          "type": "bytes32"
        },
        {
          "internalType": "uint256",
          "name": "expiryTime",
          "type": "uint256"
        },
        {
          "internalType": "address",
          "name": "initialSigningWallet",
          "type": "address"
        },
        {
          "internalType": "uint256",
          "name": "initialMaxCommissionRate",
          "type": "uint256"
        },
        {
          "internalType": "address",
          "name": "estate",
          "type": "address"
        },
        {
          "internalType": "address",
          "name": "asset",
          "type": "address"
        },
        {
          "internalType": "address",
          "name": "feeDistributor",
          "type": "address"
        }
      ],
      "stateMutability": "nonpayable",
      "type": "constructor"
    },
    {
      "anonymous": false,
      "inputs": [
        {
          "indexed": false,
          "internalType": "address",
          "name": "oldAdmin",
          "type": "address"
        },
        {
          "indexed": false,
          "internalType": "address",
          "name": "newAdmin",
          "type": "address"
        }
      ],
      "name": "AdminChanged",
      "type": "event"
    },
    {
      "anonymous": false,
      "inputs": [
        {
          "indexed": true,
          "internalType": "address",
          "name": "buyer",
          "type": "address"
        },
        {
          "indexed": true,
          "internalType": "address",
          "name": "to",
          "type": "address"
        },
        {
          "indexed": true,
          "internalType": "uint256",
          "name": "topCornerId",
          "type": "uint256"
        },
        {
          "indexed": false,
          "internalType": "uint256",
          "name": "size",
          "type": "uint256"
        },
        {
          "indexed": false,
          "internalType": "uint256",
          "name": "price",
          "type": "uint256"
        },
        {
          "indexed": false,
          "internalType": "address",
          "name": "token",
          "type": "address"
        },
        {
          "indexed": false,
          "internalType": "uint256",
          "name": "amountPaid",
          "type": "uint256"
        }
      ],
      "name": "LandQuadPurchased",
      "type": "event"
    },
    {
      "anonymous": false,
      "inputs": [
        {
          "indexed": false,
          "internalType": "address",
          "name": "metaTransactionProcessor",
          "type": "address"
        },
        {
          "indexed": false,
          "internalType": "bool",
          "name": "enabled",
          "type": "bool"
        }
      ],
      "name": "MetaTransactionProcessor",
      "type": "event"
    },
    {
      "anonymous": false,
      "inputs": [
        {
          "indexed": true,
          "internalType": "address",
          "name": "referrer",
          "type": "address"
        },
        {
          "indexed": true,
          "internalType": "address",
          "name": "referee",
          "type": "address"
        },
        {
          "indexed": true,
          "internalType": "address",
          "name": "token",
          "type": "address"
        },
        {
          "indexed": false,
          "internalType": "uint256",
          "name": "amount",
          "type": "uint256"
        },
        {
          "indexed": false,
          "internalType": "uint256",
          "name": "commission",
          "type": "uint256"
        },
        {
          "indexed": false,
          "internalType": "uint256",
          "name": "commissionRate",
          "type": "uint256"
        }
      ],
      "name": "ReferralUsed",
      "type": "event"
    },
    {
      "inputs": [
        {
          "internalType": "address",
          "name": "buyer",
          "type": "address"
        },
        {
          "internalType": "address",
          "name": "to",
          "type": "address"
        },
        {
          "internalType": "address",
          "name": "reserved",
          "type": "address"
        },
        {
          "internalType": "uint256",
          "name": "x",
          "type": "uint256"
        },
        {
          "internalType": "uint256",
          "name": "y",
          "type": "uint256"
        },
        {
          "internalType": "uint256",
          "name": "size",
          "type": "uint256"
        },
        {
          "internalType": "uint256",
          "name": "priceInSand",
          "type": "uint256"
        },
        {
          "internalType": "uint256",
          "name": "adjustedPriceInSand",
          "type": "uint256"
        },
        {
          "internalType": "bytes32",
          "name": "salt",
          "type": "bytes32"
        },
        {
          "internalType": "uint256[]",
          "name": "assetIds",
          "type": "uint256[]"
        },
        {
          "internalType": "bytes32[]",
          "name": "proof",
          "type": "bytes32[]"
        },
        {
          "internalType": "bytes",
          "name": "referral",
          "type": "bytes"
        }
      ],
      "name": "buyLandWithSand",
      "outputs": [],
      "stateMutability": "nonpayable",
      "type": "function"
    },
    {
      "inputs": [
        {
          "internalType": "address",
          "name": "newAdmin",
          "type": "address"
        }
      ],
      "name": "changeAdmin",
      "outputs": [],
      "stateMutability": "nonpayable",
      "type": "function"
    },
    {
      "inputs": [
        {
          "internalType": "bytes",
          "name": "referral",
          "type": "bytes"
        }
      ],
      "name": "decodeReferral",
      "outputs": [
        {
          "internalType": "bytes",
          "name": "",
          "type": "bytes"
        },
        {
          "internalType": "address",
          "name": "",
          "type": "address"
        },
        {
          "internalType": "address",
          "name": "",
          "type": "address"
        },
        {
          "internalType": "uint256",
          "name": "",
          "type": "uint256"
        },
        {
          "internalType": "uint256",
          "name": "",
          "type": "uint256"
        }
      ],
      "stateMutability": "pure",
      "type": "function"
    },
    {
      "inputs": [],
      "name": "getAdmin",
      "outputs": [
        {
          "internalType": "address",
          "name": "",
          "type": "address"
        }
      ],
      "stateMutability": "view",
      "type": "function"
    },
    {
      "inputs": [],
      "name": "getExpiryTime",
      "outputs": [
        {
          "internalType": "uint256",
          "name": "",
          "type": "uint256"
        }
      ],
      "stateMutability": "view",
      "type": "function"
    },
    {
      "inputs": [],
      "name": "getMaxCommisionRate",
      "outputs": [
        {
          "internalType": "uint256",
          "name": "",
          "type": "uint256"
        }
      ],
      "stateMutability": "view",
      "type": "function"
    },
    {
      "inputs": [],
      "name": "getMerkleRoot",
      "outputs": [
        {
          "internalType": "bytes32",
          "name": "",
          "type": "bytes32"
        }
      ],
      "stateMutability": "view",
      "type": "function"
    },
    {
      "inputs": [],
      "name": "getSandMultiplier",
      "outputs": [
        {
          "internalType": "uint256",
          "name": "",
          "type": "uint256"
        }
      ],
      "stateMutability": "view",
      "type": "function"
    },
    {
      "inputs": [],
      "name": "getSigningWallet",
      "outputs": [
        {
          "internalType": "address",
          "name": "",
          "type": "address"
        }
      ],
      "stateMutability": "view",
      "type": "function"
    },
    {
      "inputs": [
        {
          "internalType": "address",
          "name": "who",
          "type": "address"
        }
      ],
      "name": "isMetaTransactionProcessor",
      "outputs": [
        {
          "internalType": "bool",
          "name": "",
          "type": "bool"
        }
      ],
      "stateMutability": "view",
      "type": "function"
    },
    {
      "inputs": [
        {
          "internalType": "bytes",
          "name": "signature",
          "type": "bytes"
        },
        {
          "internalType": "address",
          "name": "referrer",
          "type": "address"
        },
        {
          "internalType": "address",
          "name": "referee",
          "type": "address"
        },
        {
          "internalType": "uint256",
          "name": "expiryTime",
          "type": "uint256"
        },
        {
          "internalType": "uint256",
          "name": "commissionRate",
          "type": "uint256"
        }
      ],
      "name": "isReferralValid",
      "outputs": [
        {
          "internalType": "bool",
          "name": "",
          "type": "bool"
        }
      ],
      "stateMutability": "view",
      "type": "function"
    },
    {
      "inputs": [
        {
          "internalType": "address",
          "name": "",
          "type": "address"
        },
        {
          "internalType": "address",
          "name": "",
          "type": "address"
        },
        {
          "internalType": "uint256[]",
          "name": "",
          "type": "uint256[]"
        },
        {
          "internalType": "uint256[]",
          "name": "",
          "type": "uint256[]"
        },
        {
          "internalType": "bytes",
          "name": "",
          "type": "bytes"
        }
      ],
      "name": "onERC1155BatchReceived",
      "outputs": [
        {
          "internalType": "bytes4",
          "name": "",
          "type": "bytes4"
        }
      ],
      "stateMutability": "pure",
      "type": "function"
    },
    {
      "inputs": [
        {
          "internalType": "address",
          "name": "",
          "type": "address"
        },
        {
          "internalType": "address",
          "name": "",
          "type": "address"
        },
        {
          "internalType": "uint256",
          "name": "",
          "type": "uint256"
        },
        {
          "internalType": "uint256",
          "name": "",
          "type": "uint256"
        },
        {
          "internalType": "bytes",
          "name": "",
          "type": "bytes"
        }
      ],
      "name": "onERC1155Received",
      "outputs": [
        {
          "internalType": "bytes4",
          "name": "",
          "type": "bytes4"
        }
      ],
      "stateMutability": "pure",
      "type": "function"
    },
    {
      "inputs": [
        {
          "internalType": "uint256",
          "name": "newMultiplier",
          "type": "uint256"
        }
      ],
      "name": "rebalanceSand",
      "outputs": [],
      "stateMutability": "nonpayable",
      "type": "function"
    },
    {
      "inputs": [
        {
          "internalType": "address",
          "name": "metaTransactionProcessor",
          "type": "address"
        },
        {
          "internalType": "bool",
          "name": "enabled",
          "type": "bool"
        }
      ],
      "name": "setMetaTransactionProcessor",
      "outputs": [],
      "stateMutability": "nonpayable",
      "type": "function"
    },
    {
      "inputs": [
        {
          "internalType": "address payable",
          "name": "newWallet",
          "type": "address"
        }
      ],
      "name": "setReceivingWallet",
      "outputs": [],
      "stateMutability": "nonpayable",
      "type": "function"
    },
    {
      "inputs": [
        {
          "internalType": "uint256",
          "name": "newMaxCommissionRate",
          "type": "uint256"
        }
      ],
      "name": "updateMaxCommissionRate",
      "outputs": [],
      "stateMutability": "nonpayable",
      "type": "function"
    },
    {
      "inputs": [
        {
          "internalType": "address",
          "name": "newSigningWallet",
          "type": "address"
        }
      ],
      "name": "updateSigningWallet",
      "outputs": [],
      "stateMutability": "nonpayable",
      "type": "function"
    },
    {
      "inputs": [
        {
          "internalType": "address",
          "name": "to",
          "type": "address"
        },
        {
          "internalType": "uint256[]",
          "name": "assetIds",
          "type": "uint256[]"
        },
        {
          "internalType": "uint256[]",
          "name": "values",
          "type": "uint256[]"
        }
      ],
      "name": "withdrawAssets",
      "outputs": [],
      "stateMutability": "nonpayable",
      "type": "function"
    }
  ],
  "transactionHash": "0x7b93f9c69b66e837b230a485d97322462dcc6783ef75b7292cc6d7ec324c9465",
  "args": [
    "0x50f5474724e0Ee42D9a4e711ccFB275809Fd6d4a",
    "0x3845badAde8e6dFF049820680d1F14bD3903a5d0",
    "0x3845badAde8e6dFF049820680d1F14bD3903a5d0",
    "0xEAA0993E1d21c2103e4f172a20D29371FbAF6D06",
    "0x4489590a116618B506F0EfE885432F6A8ED998E9",
    "0x5f798b49ebb7ad762289f1b2e17e0044c322ef75d987e12ef2f67cb2c2630199",
    1626354000,
    "0x3044719d139F866a44c988823513eCB93060bF1b",
    2000,
    "0x0000000000000000000000000000000000000000",
    "0xa342f5D851E866E18ff98F351f2c6637f4478dB5",
    "0x0EB04462D69B1D267d269377E34f60b9De1c8510"
  ],
  "linkedData": [
    {
      "x": 168,
      "y": 310,
      "size": 1,
      "price": "1011000000000000000000",
      "reserved": "",
      "salt": "0xbd3879a74e09aeb32dbc2e6ed89b52bd1f0594f2658a1d0e8a14ac72c394bf99",
      "assetIds": []
    },
    {
      "x": 168,
      "y": 311,
      "size": 1,
      "price": "1011000000000000000000",
      "reserved": "",
      "salt": "0xf708878725c625f317308a4b943cddf2fe5238416877a2d3941c2a1b00bd436c",
      "assetIds": []
    },
    {
      "x": 169,
      "y": 310,
      "size": 1,
      "price": "1011000000000000000000",
      "reserved": "",
      "salt": "0x909e67e1035ed244d90ede3d18015b9be07a2c9aeecf1115af09fc32cdd7447c",
      "assetIds": []
    },
    {
      "x": 169,
      "y": 311,
      "size": 1,
      "price": "1011000000000000000000",
      "reserved": "",
      "salt": "0x3d0e740464d5ccee4419ec3e6029ca6669f073bcea8d381d40956a9900305b0b",
      "assetIds": []
    },
    {
      "x": 170,
      "y": 310,
      "size": 1,
      "price": "1011000000000000000000",
      "reserved": "",
      "salt": "0x230bc9ad4d9a8fbae598ce605643059c4e5417efad993165824d229703fa519f",
      "assetIds": []
    },
    {
      "x": 170,
      "y": 311,
      "size": 1,
      "price": "1011000000000000000000",
      "reserved": "",
      "salt": "0x118d0ee45393951e3a5d1e077baea6a4cd998701619f777361a6d8a525135234",
      "assetIds": []
    },
    {
      "x": 171,
      "y": 310,
      "size": 1,
      "price": "1011000000000000000000",
      "reserved": "",
      "salt": "0x9fd379979d59042ab1935a12eb8ff93597160f0edd80f1d7ea422f0d32c31b22",
      "assetIds": []
    },
    {
      "x": 171,
      "y": 311,
      "size": 1,
      "price": "1011000000000000000000",
      "reserved": "",
      "salt": "0x7d65109196eb4c317d1557c13af5c3505fc9cd5b0e8e5941317835d95ea34b4d",
      "assetIds": []
    },
    {
      "x": 172,
      "y": 310,
      "size": 1,
      "price": "1011000000000000000000",
      "reserved": "",
      "salt": "0xec4ffc4c12b132847844de72a884c7fab1ddc7d185b1ed0897da30d0bd6a0444",
      "assetIds": []
    },
    {
      "x": 172,
      "y": 311,
      "size": 1,
      "price": "1011000000000000000000",
      "reserved": "",
      "salt": "0xc9cdc4671d36df7745c5fc1463c59fd346f8aca73de811079b676d36cf73a85e",
      "assetIds": []
    },
    {
      "x": 173,
      "y": 310,
      "size": 1,
      "price": "1011000000000000000000",
      "reserved": "",
      "salt": "0xc5f024044f0c4574f2f3bc82daee5eeb13b1c570052fea2db6d9148244be7d02",
      "assetIds": []
    },
    {
      "x": 173,
      "y": 311,
      "size": 1,
      "price": "1011000000000000000000",
      "reserved": "",
      "salt": "0xc4401ff519535c6eaf897d6b0a8ea6f78b81290278032ee1ab10cf850d27b8c5",
      "assetIds": []
    },
    {
      "x": 174,
      "y": 310,
      "size": 1,
      "price": "1011000000000000000000",
      "reserved": "",
      "salt": "0x9b610b1f99a00c0a5aecdc5a3bad8bbb3edb811f7f75d9e3c7b261330a6d9f16",
      "assetIds": []
    },
    {
      "x": 174,
      "y": 311,
      "size": 1,
      "price": "1011000000000000000000",
      "reserved": "",
      "salt": "0xd995663450474cbad7dcf8e0a4f7a28e527352970b04fafa0ce9701ce62f7733",
      "assetIds": []
    },
    {
      "x": 174,
      "y": 312,
      "size": 1,
      "price": "1011000000000000000000",
      "reserved": "",
      "salt": "0x47500b5124ca8b995e880bdaab273c9aa7a4a444c04fb68c4f6ad036eef94940",
      "assetIds": []
    },
    {
      "x": 175,
      "y": 310,
      "size": 1,
      "price": "1011000000000000000000",
      "reserved": "",
      "salt": "0x979a2d9189875211a9cba78664d75b5c4a1cbadce5b7e3420540de8f54c8f586",
      "assetIds": []
    },
    {
      "x": 175,
      "y": 311,
      "size": 1,
      "price": "1011000000000000000000",
      "reserved": "0x7a9fe22691c811ea339d9b73150e6911a5343dca",
      "salt": "0x443923b300cc59eccaeb0732cfa97bc7a90cd5ce682102c5ffb5436ff8f2d6cf",
      "assetIds": []
    },
    {
      "x": 175,
      "y": 312,
      "size": 1,
      "price": "1011000000000000000000",
      "reserved": "",
      "salt": "0xab82f75f86fd05cb6f5fbb0d9c6f6c9b479a7229c2767b0b7a5ce27dd8bfb8bf",
      "assetIds": []
    },
    {
      "x": 176,
      "y": 310,
      "size": 1,
      "price": "1011000000000000000000",
      "reserved": "",
      "salt": "0x1f76877c51d9c2785782060cb65338af080e290e1779111d14b6937d3a044253",
      "assetIds": []
    },
    {
      "x": 176,
      "y": 311,
      "size": 1,
      "price": "1011000000000000000000",
      "reserved": "0x7a9fe22691c811ea339d9b73150e6911a5343dca",
      "salt": "0x40b40a4ce38c405f81be2c2409061bf5836ca1d421a79055c9ac2d0001b64136",
      "assetIds": []
    },
    {
      "x": 176,
      "y": 312,
      "size": 1,
      "price": "1011000000000000000000",
      "reserved": "",
      "salt": "0x3afa6a5c693b15b939a6213c71539cf8e324bf6ea7f89e75af747f9a3902940d",
      "assetIds": []
    },
    {
      "x": 176,
      "y": 313,
      "size": 1,
      "price": "1011000000000000000000",
      "reserved": "",
      "salt": "0x01834d905ef96503e57d3598a3ee56a4e831980b5bb466a0309f6c361ed07068",
      "assetIds": []
    },
    {
      "x": 177,
      "y": 310,
      "size": 1,
      "price": "1011000000000000000000",
      "reserved": "",
      "salt": "0x6436e8038dec640dcdf2d6d15fc21e7592023cb0819407d8abc3c4b0c7bb45fa",
      "assetIds": []
    },
    {
      "x": 177,
      "y": 311,
      "size": 1,
      "price": "1011000000000000000000",
      "reserved": "",
      "salt": "0x971ac0bfbf2a600d1acf3d0d179f7d387bb1ffedc7871997f102921de84fd0ea",
      "assetIds": []
    },
    {
      "x": 177,
      "y": 312,
      "size": 1,
      "price": "1011000000000000000000",
      "reserved": "",
      "salt": "0xc2d0b30d11db26f7b7fdc676e4ed1d99108a77cbe4960857dc1a92f1a916f626",
      "assetIds": []
    },
    {
      "x": 177,
      "y": 313,
      "size": 1,
      "price": "1011000000000000000000",
      "reserved": "0x7a9fe22691c811ea339d9b73150e6911a5343dca",
      "salt": "0x75f783cb4ba91ab0fcec2b49d462cc8b27a0cdddb7e0bf57ff77598ac516dd5f",
      "assetIds": []
    },
    {
      "x": 177,
      "y": 314,
      "size": 1,
      "price": "1011000000000000000000",
      "reserved": "",
      "salt": "0xbb48d5f734aa6864dda824cf308a74c83facd22d4051508e230080328c5cb07d",
      "assetIds": []
    },
    {
      "x": 177,
      "y": 315,
      "size": 1,
      "price": "1011000000000000000000",
      "reserved": "",
      "salt": "0x13211893a20218d2e75b016e7697e7076b625865c7ee09e02933052a10fb879a",
      "assetIds": []
    },
    {
      "x": 177,
      "y": 316,
      "size": 1,
      "price": "1011000000000000000000",
      "reserved": "",
      "salt": "0x01c48dda5713bfa6e6a04d7d119ab7fbbfbf7eafaaf50d4604efb7b8d3fffdaf",
      "assetIds": []
    },
    {
      "x": 177,
      "y": 317,
      "size": 1,
      "price": "1011000000000000000000",
      "reserved": "",
      "salt": "0x2204dcfb84f8b37351fde5ece977acfbbc04859d8afcd4a5ca4db93e0835c506",
      "assetIds": []
    },
    {
      "x": 177,
      "y": 318,
      "size": 1,
      "price": "1011000000000000000000",
      "reserved": "",
      "salt": "0x4a133f6797a2334665e09a0f4a17b2dbac609477b7871cb1c563b69af4236cc0",
      "assetIds": []
    },
    {
      "x": 177,
      "y": 319,
      "size": 1,
      "price": "1011000000000000000000",
      "reserved": "",
      "salt": "0xe5534da88b930a339100389afa44830718f8949546b58afa7cd4f7409e289a6e",
      "assetIds": []
    },
    {
      "x": 177,
      "y": 320,
      "size": 1,
      "price": "1011000000000000000000",
      "reserved": "",
      "salt": "0x4da9f448e297096b968aa4bc0c1d2928fba7dab2af00df53c9b11207b785b2a5",
      "assetIds": []
    },
    {
      "x": 177,
      "y": 321,
      "size": 1,
      "price": "1011000000000000000000",
      "reserved": "",
      "salt": "0x0edf952d56676384081ebcb151a8610037bf6a179f0f630607d6dfbb87835a9f",
      "assetIds": []
    },
    {
      "x": 177,
      "y": 322,
      "size": 1,
      "price": "1011000000000000000000",
      "reserved": "",
      "salt": "0x2a3b8a5da48885df827bae072823ef32f5b55ca8dbd34f3aa9a477bb88d38a01",
      "assetIds": []
    },
    {
      "x": 177,
      "y": 323,
      "size": 1,
      "price": "1011000000000000000000",
      "reserved": "",
      "salt": "0xc5dc0f46b507c2004f4951fc020e379a8f50d51e30ab5f8d01f6790a71b968fe",
      "assetIds": []
    },
    {
      "x": 178,
      "y": 310,
      "size": 1,
      "price": "1011000000000000000000",
      "reserved": "",
      "salt": "0x0c44bc2ec605056d9754653eb8727df75c827ddc1a1e7d02eac4c2513ea60420",
      "assetIds": []
    },
    {
      "x": 178,
      "y": 311,
      "size": 1,
      "price": "1011000000000000000000",
      "reserved": "",
      "salt": "0x4922348eb494fe9c16492ba034751d165299f09f4c82d6e49c721f3458c0d60a",
      "assetIds": []
    },
    {
      "x": 178,
      "y": 312,
      "size": 1,
      "price": "4683000000000000000000",
      "reserved": "",
      "salt": "0x7119c6c57886336cbdea7535a9c30cf90c96f6d0b4cf3f561676f6cfd33b1f54",
      "assetIds": [
        "55464657044963196816950587289035428064568320970692304673817341489687790884865",
        "55464657044963196816950587289035428064568320970692304673817341489687782494208",
        "55464657044963196816950587289035428064568320970692304673817341489687790884866",
        "55464657044963196816950587289035428064568320970692304673817341489687782494209",
        "55464657044963196816950587289035428064568320970692304673817341489687790884864"
      ]
    },
    {
      "x": 178,
      "y": 313,
      "size": 1,
      "price": "1011000000000000000000",
      "reserved": "",
      "salt": "0xa1ac13e6a09cfb920191764b8f93136bab8e22dd948ec9929d83b8066925b3aa",
      "assetIds": []
    },
    {
      "x": 178,
      "y": 314,
      "size": 1,
      "price": "1011000000000000000000",
      "reserved": "0x7a9fe22691c811ea339d9b73150e6911a5343dca",
      "salt": "0xa3e3920fd58615e938f4f3eb00e48b83da929d27558cc193ef0aa4e98fb0bd84",
      "assetIds": []
    },
    {
      "x": 178,
      "y": 315,
      "size": 1,
      "price": "1011000000000000000000",
      "reserved": "",
      "salt": "0x7aafae8cf3b14c04d903187ef64ce032653576c581d80c9deb24b94880322f3a",
      "assetIds": []
    },
    {
      "x": 178,
      "y": 316,
      "size": 1,
      "price": "1011000000000000000000",
      "reserved": "",
      "salt": "0x00404bd39ecb1a7ff8e73f9b5fedfb6b240ccc4983238de93a7f660debcaf076",
      "assetIds": []
    },
    {
      "x": 178,
      "y": 317,
      "size": 1,
      "price": "1011000000000000000000",
      "reserved": "",
      "salt": "0xaeb57678e390c8793cadf0f7645824519ccbfb60cdfadf3c1238be5c51696557",
      "assetIds": []
    },
    {
      "x": 178,
      "y": 318,
      "size": 1,
      "price": "1011000000000000000000",
      "reserved": "",
      "salt": "0xbba5435345ece05036a08f45b08fcdd18a012ec3e3ad8756cd911457d1de05ff",
      "assetIds": []
    },
    {
      "x": 178,
      "y": 319,
      "size": 1,
      "price": "1011000000000000000000",
      "reserved": "",
      "salt": "0x274649dd15f77013e3b1bbf55b368e54b17787034fe4d8fad835c3a882b22917",
      "assetIds": []
    },
    {
      "x": 178,
      "y": 320,
      "size": 1,
      "price": "1011000000000000000000",
      "reserved": "0x7a9fe22691c811ea339d9b73150e6911a5343dca",
      "salt": "0xcf5a750f24e3fc4d9ded47084f1b8c9440280c9bdd7dca7746a975e2c68ab9b8",
      "assetIds": []
    },
    {
      "x": 178,
      "y": 321,
      "size": 1,
      "price": "1011000000000000000000",
      "reserved": "",
      "salt": "0xd00522d2b13e39d8f9d2f3caf45160f92fd2f357923e6bc48b170ecd99c1f168",
      "assetIds": []
    },
    {
      "x": 178,
      "y": 322,
      "size": 1,
      "price": "1011000000000000000000",
      "reserved": "0x7a9fe22691c811ea339d9b73150e6911a5343dca",
      "salt": "0xaec3ccfb90e3a1b6f6291922ec4aba82ad44529af403360fdea510c4f3e7a93a",
      "assetIds": []
    },
    {
      "x": 178,
      "y": 323,
      "size": 1,
      "price": "1011000000000000000000",
      "reserved": "",
      "salt": "0x5895434aa09a3276b48a49d455cd8fd5690d944f03bcbba1ec61139a1a64260a",
      "assetIds": []
    },
    {
      "x": 179,
      "y": 310,
      "size": 1,
      "price": "1011000000000000000000",
      "reserved": "",
      "salt": "0x267ef86fa3d5c1e47d5e7b626b8f590e30324c5debaf746d30725076bc476fb2",
      "assetIds": []
    },
    {
      "x": 179,
      "y": 311,
      "size": 1,
      "price": "4683000000000000000000",
      "reserved": "",
      "salt": "0xf568f240de4874f4e240769364774806c30ddac003ec7a95c9f1754252721099",
      "assetIds": [
        "55464657044963196816950587289035428064568320970692304673817341489687790884865",
        "55464657044963196816950587289035428064568320970692304673817341489687782494208",
        "55464657044963196816950587289035428064568320970692304673817341489687790884866",
        "55464657044963196816950587289035428064568320970692304673817341489687782494209",
        "55464657044963196816950587289035428064568320970692304673817341489687790884864"
      ]
    },
    {
      "x": 179,
      "y": 312,
      "size": 1,
      "price": "4683000000000000000000",
      "reserved": "",
      "salt": "0xb5f5330f6b75dd45116a1ad70169820dc7bb590d3e0567daa7caeb90f599588a",
      "assetIds": [
        "55464657044963196816950587289035428064568320970692304673817341489687790884865",
        "55464657044963196816950587289035428064568320970692304673817341489687782494208",
        "55464657044963196816950587289035428064568320970692304673817341489687790884866",
        "55464657044963196816950587289035428064568320970692304673817341489687782494209",
        "55464657044963196816950587289035428064568320970692304673817341489687790884864"
      ]
    },
    {
      "x": 179,
      "y": 313,
      "size": 1,
      "price": "4683000000000000000000",
      "reserved": "",
      "salt": "0x6c796ac055fbbbb0372e0da2bf2d9dbffca636c496ad3d76b528d9e25174e404",
      "assetIds": [
        "55464657044963196816950587289035428064568320970692304673817341489687790884865",
        "55464657044963196816950587289035428064568320970692304673817341489687782494208",
        "55464657044963196816950587289035428064568320970692304673817341489687790884866",
        "55464657044963196816950587289035428064568320970692304673817341489687782494209",
        "55464657044963196816950587289035428064568320970692304673817341489687790884864"
      ]
    },
    {
      "x": 179,
      "y": 314,
      "size": 1,
      "price": "4683000000000000000000",
      "reserved": "",
      "salt": "0x38de6258114704aabd3285bdc3b8a92d222a16495c999e9db9b8057ebf9fb973",
      "assetIds": [
        "55464657044963196816950587289035428064568320970692304673817341489687790884865",
        "55464657044963196816950587289035428064568320970692304673817341489687782494208",
        "55464657044963196816950587289035428064568320970692304673817341489687790884866",
        "55464657044963196816950587289035428064568320970692304673817341489687782494209",
        "55464657044963196816950587289035428064568320970692304673817341489687790884864"
      ]
    },
    {
      "x": 179,
      "y": 315,
      "size": 1,
      "price": "4683000000000000000000",
      "reserved": "",
      "salt": "0xbf3ca270d237b6545ddd4b93a0f3c8f0f248afff05ba4f2e6dae6d6bdb5ec53f",
      "assetIds": [
        "55464657044963196816950587289035428064568320970692304673817341489687790884865",
        "55464657044963196816950587289035428064568320970692304673817341489687782494208",
        "55464657044963196816950587289035428064568320970692304673817341489687790884866",
        "55464657044963196816950587289035428064568320970692304673817341489687782494209",
        "55464657044963196816950587289035428064568320970692304673817341489687790884864"
      ]
    },
    {
      "x": 179,
      "y": 316,
      "size": 1,
      "price": "1011000000000000000000",
      "reserved": "0x7a9fe22691c811ea339d9b73150e6911a5343dca",
      "salt": "0xf349bf70531f2d819988ada70bc9e71ba4ffa4ee85cdd6e68a56d4adb852d7f1",
      "assetIds": []
    },
    {
      "x": 179,
      "y": 317,
      "size": 1,
      "price": "4683000000000000000000",
      "reserved": "",
      "salt": "0xf9879735a66063003604ce6b5c819e0cfe33fc2abc70dade96832bb3fcbcd936",
      "assetIds": [
        "55464657044963196816950587289035428064568320970692304673817341489687790884865",
        "55464657044963196816950587289035428064568320970692304673817341489687782494208",
        "55464657044963196816950587289035428064568320970692304673817341489687790884866",
        "55464657044963196816950587289035428064568320970692304673817341489687782494209",
        "55464657044963196816950587289035428064568320970692304673817341489687790884864"
      ]
    },
    {
      "x": 179,
      "y": 318,
      "size": 1,
      "price": "4683000000000000000000",
      "reserved": "",
      "salt": "0x6043308dda55e99a791ea8ba5f2ce56b45a913113381f61e3b435397bda7a5b4",
      "assetIds": [
        "55464657044963196816950587289035428064568320970692304673817341489687790884865",
        "55464657044963196816950587289035428064568320970692304673817341489687782494208",
        "55464657044963196816950587289035428064568320970692304673817341489687790884866",
        "55464657044963196816950587289035428064568320970692304673817341489687782494209",
        "55464657044963196816950587289035428064568320970692304673817341489687790884864"
      ]
    },
    {
      "x": 179,
      "y": 319,
      "size": 1,
      "price": "4683000000000000000000",
      "reserved": "",
      "salt": "0x95a924383d92379e3a1f11e78be670e705a7d8e37a83ffcc5ac35531bdb53d29",
      "assetIds": [
        "55464657044963196816950587289035428064568320970692304673817341489687790884865",
        "55464657044963196816950587289035428064568320970692304673817341489687782494208",
        "55464657044963196816950587289035428064568320970692304673817341489687790884866",
        "55464657044963196816950587289035428064568320970692304673817341489687782494209",
        "55464657044963196816950587289035428064568320970692304673817341489687790884864"
      ]
    },
    {
      "x": 179,
      "y": 320,
      "size": 1,
      "price": "4683000000000000000000",
      "reserved": "",
      "salt": "0xb3b1d395ba8f7dd8dab0f4e8bbf94eb45c18ef07ccc89423f2fdfc47a3265f2a",
      "assetIds": [
        "55464657044963196816950587289035428064568320970692304673817341489687790884865",
        "55464657044963196816950587289035428064568320970692304673817341489687782494208",
        "55464657044963196816950587289035428064568320970692304673817341489687790884866",
        "55464657044963196816950587289035428064568320970692304673817341489687782494209",
        "55464657044963196816950587289035428064568320970692304673817341489687790884864"
      ]
    },
    {
      "x": 179,
      "y": 321,
      "size": 1,
      "price": "1011000000000000000000",
      "reserved": "",
      "salt": "0x7748e73d88dc20369d4395c767495f28cf7606388294501182aa1cb5b3f3c010",
      "assetIds": []
    },
    {
      "x": 179,
      "y": 322,
      "size": 1,
      "price": "1011000000000000000000",
      "reserved": "",
      "salt": "0xaec6513440c7099c00bc6eadbb8acca65f149a798520db4cd50411c6daf4f35f",
      "assetIds": []
    },
    {
      "x": 179,
      "y": 323,
      "size": 1,
      "price": "1011000000000000000000",
      "reserved": "",
      "salt": "0xa8fa2aaa62af4be705af6aa9f702fbcd09e5be8807d235241d0d4f9fe96b5201",
      "assetIds": []
    },
    {
      "x": 179,
      "y": 324,
      "size": 1,
      "price": "1011000000000000000000",
      "reserved": "",
      "salt": "0xc33023f62b1e4780f4d1ecaaf0763ad5594f91f5346dd88a5f57dbcefbdd97e9",
      "assetIds": []
    },
    {
      "x": 179,
      "y": 325,
      "size": 1,
      "price": "1011000000000000000000",
      "reserved": "0x7a9fe22691c811ea339d9b73150e6911a5343dca",
      "salt": "0xd4262afa5241395212ef6d131bf9c190a06b2fd00a2519f0a6ba3f822d4e9f18",
      "assetIds": []
    },
    {
      "x": 180,
      "y": 310,
      "size": 1,
      "price": "1011000000000000000000",
      "reserved": "0x7a9fe22691c811ea339d9b73150e6911a5343dca",
      "salt": "0xef45c95999dd29de4fa8eb17aeb3371908bf8c626fc9eb2307ad0da6078e1da3",
      "assetIds": []
    },
    {
      "x": 180,
      "y": 311,
      "size": 1,
      "price": "1011000000000000000000",
      "reserved": "0x7a9fe22691c811ea339d9b73150e6911a5343dca",
      "salt": "0xa6830493859064592007c608e28951e170388762ea29ebe98dba4fdec65f64d0",
      "assetIds": []
    },
    {
      "x": 180,
      "y": 321,
      "size": 1,
      "price": "4683000000000000000000",
      "reserved": "",
      "salt": "0xe350b9be125922efe6d4b5b0c32da644e29919e1ca33ff57625f50ea9e3d25de",
      "assetIds": [
        "55464657044963196816950587289035428064568320970692304673817341489687790884865",
        "55464657044963196816950587289035428064568320970692304673817341489687782494208",
        "55464657044963196816950587289035428064568320970692304673817341489687790884866",
        "55464657044963196816950587289035428064568320970692304673817341489687782494209",
        "55464657044963196816950587289035428064568320970692304673817341489687790884864"
      ]
    },
    {
      "x": 180,
      "y": 322,
      "size": 1,
      "price": "1011000000000000000000",
      "reserved": "",
      "salt": "0xa70a367b474743d6ca3409a70b970ce2831753b6fbb39139cf82c581f311395b",
      "assetIds": []
    },
    {
      "x": 180,
      "y": 323,
      "size": 1,
      "price": "1011000000000000000000",
      "reserved": "",
      "salt": "0xa275095b07c0c6036150c881e8717a38606e510101946b75a4508d649d573d12",
      "assetIds": []
    },
    {
      "x": 180,
      "y": 324,
      "size": 1,
      "price": "1011000000000000000000",
      "reserved": "",
      "salt": "0x58fda5b7cc467e58175c274d95633c4c616de14187f24a6023b7545b93ad012e",
      "assetIds": []
    },
    {
      "x": 180,
      "y": 325,
      "size": 1,
      "price": "1011000000000000000000",
      "reserved": "0x7a9fe22691c811ea339d9b73150e6911a5343dca",
      "salt": "0x42fa4d5b068688a5c491b5a5933872ff3a03396f438e7267ab359a77a5b9a3e9",
      "assetIds": []
    },
    {
      "x": 181,
      "y": 310,
      "size": 1,
      "price": "1011000000000000000000",
      "reserved": "0x7a9fe22691c811ea339d9b73150e6911a5343dca",
      "salt": "0x0a2ccb21cbd34bcf23e7622cb17b64d53a7c2d879c775dcbc8442f5a1d8f570d",
      "assetIds": []
    },
    {
      "x": 181,
      "y": 311,
      "size": 1,
      "price": "4683000000000000000000",
      "reserved": "",
      "salt": "0xd9babb0f4dfb2e713604023bb16d21cd951417897655f0c7d58ba696ad5d0bbb",
      "assetIds": [
        "55464657044963196816950587289035428064568320970692304673817341489687790884865",
        "55464657044963196816950587289035428064568320970692304673817341489687782494208",
        "55464657044963196816950587289035428064568320970692304673817341489687790884866",
        "55464657044963196816950587289035428064568320970692304673817341489687782494209",
        "55464657044963196816950587289035428064568320970692304673817341489687790884864"
      ]
    },
    {
      "x": 181,
      "y": 321,
      "size": 1,
      "price": "4683000000000000000000",
      "reserved": "",
      "salt": "0xfb49e04a467cd29a09b66a7a38e9d0c0d5f66b4f91b8305709aae85cf96bbd03",
      "assetIds": [
        "55464657044963196816950587289035428064568320970692304673817341489687790884865",
        "55464657044963196816950587289035428064568320970692304673817341489687782494208",
        "55464657044963196816950587289035428064568320970692304673817341489687790884866",
        "55464657044963196816950587289035428064568320970692304673817341489687782494209",
        "55464657044963196816950587289035428064568320970692304673817341489687790884864"
      ]
    },
    {
      "x": 181,
      "y": 322,
      "size": 1,
      "price": "1011000000000000000000",
      "reserved": "",
      "salt": "0xc607519057a7643c2cbc27ecd3398efd5299fe082b9e716a33e6c4e4d8900210",
      "assetIds": []
    },
    {
      "x": 181,
      "y": 323,
      "size": 1,
      "price": "1011000000000000000000",
      "reserved": "0x7a9fe22691c811ea339d9b73150e6911a5343dca",
      "salt": "0xf0c8952e2cf175a44af18a18173f3e78b82282c65521ad121871762c0e6e0b2a",
      "assetIds": []
    },
    {
      "x": 181,
      "y": 324,
      "size": 1,
      "price": "1011000000000000000000",
      "reserved": "",
      "salt": "0x67e232c2a62d9828b553266fbdfea4245a42608b8604b2caf2bf9810bcbd41c2",
      "assetIds": []
    },
    {
      "x": 181,
      "y": 325,
      "size": 1,
      "price": "1011000000000000000000",
      "reserved": "",
      "salt": "0xf71b1e69c785fc6750e942226e9c297f54f37a83bee24b215c587adca493f68e",
      "assetIds": []
    },
    {
      "x": 181,
      "y": 326,
      "size": 1,
      "price": "1011000000000000000000",
      "reserved": "",
      "salt": "0xeda389adbc5d8cc7b3f8c011be449d93d86efe59585e3fe90079435422ca6629",
      "assetIds": []
    },
    {
      "x": 182,
      "y": 310,
      "size": 1,
      "price": "1011000000000000000000",
      "reserved": "",
      "salt": "0x42f29aba49c977c80775d4134488881ecf01bf48e479ce4004b5249879576c52",
      "assetIds": []
    },
    {
      "x": 182,
      "y": 311,
      "size": 1,
      "price": "4683000000000000000000",
      "reserved": "",
      "salt": "0xe79f2f4da0b1845ed93dec17079486835e1a5ef1a65e81bec4967ac3fa6bf522",
      "assetIds": [
        "55464657044963196816950587289035428064568320970692304673817341489687790884865",
        "55464657044963196816950587289035428064568320970692304673817341489687782494208",
        "55464657044963196816950587289035428064568320970692304673817341489687790884866",
        "55464657044963196816950587289035428064568320970692304673817341489687782494209",
        "55464657044963196816950587289035428064568320970692304673817341489687790884864"
      ]
    },
    {
      "x": 182,
      "y": 321,
      "size": 1,
      "price": "4683000000000000000000",
      "reserved": "",
      "salt": "0x073532a945e6f9f702a0f6db8513b9a11ed13b23c5e67ab761262732967cb667",
      "assetIds": [
        "55464657044963196816950587289035428064568320970692304673817341489687790884865",
        "55464657044963196816950587289035428064568320970692304673817341489687782494208",
        "55464657044963196816950587289035428064568320970692304673817341489687790884866",
        "55464657044963196816950587289035428064568320970692304673817341489687782494209",
        "55464657044963196816950587289035428064568320970692304673817341489687790884864"
      ]
    },
    {
      "x": 182,
      "y": 322,
      "size": 1,
      "price": "1011000000000000000000",
      "reserved": "",
      "salt": "0x84dbbe7f20c7362ceb9e89d92a32dd238aea8fa4058df118f321d12e5abc7799",
      "assetIds": []
    },
    {
      "x": 182,
      "y": 323,
      "size": 1,
      "price": "1011000000000000000000",
      "reserved": "",
      "salt": "0x3be140c8cf06c739d0417f1348d03e3c79369cf4bc567238548483ef104ae1b3",
      "assetIds": []
    },
    {
      "x": 182,
      "y": 324,
      "size": 1,
      "price": "1011000000000000000000",
      "reserved": "",
      "salt": "0x88dc93eb471bc3cbeafb7153ad83d1f85b5613de244e9eadba8ab9643dbf75ff",
      "assetIds": []
    },
    {
      "x": 182,
      "y": 325,
      "size": 1,
      "price": "1011000000000000000000",
      "reserved": "",
      "salt": "0x2f7894fdc39ea7be85e992d8b508359b6cdf53315a579acbf67c22b14ca85876",
      "assetIds": []
    },
    {
      "x": 182,
      "y": 326,
      "size": 1,
      "price": "1011000000000000000000",
      "reserved": "0x7a9fe22691c811ea339d9b73150e6911a5343dca",
      "salt": "0x44fbee689c6199fd8d87b1927f2f1f1f9e7f69cb2c98ecd91e2efa96e61396c0",
      "assetIds": []
    },
    {
      "x": 183,
      "y": 310,
      "size": 1,
      "price": "1011000000000000000000",
      "reserved": "",
      "salt": "0x0c52f76407cda071bc995960640a93a91a967444432bc96bb74620cbf37701d2",
      "assetIds": []
    },
    {
      "x": 183,
      "y": 311,
      "size": 1,
      "price": "4683000000000000000000",
      "reserved": "",
      "salt": "0xd71b8768877978b143241ee61d27ee777d30dead4d64de493c5a5a2fcab45570",
      "assetIds": [
        "55464657044963196816950587289035428064568320970692304673817341489687790884865",
        "55464657044963196816950587289035428064568320970692304673817341489687782494208",
        "55464657044963196816950587289035428064568320970692304673817341489687790884866",
        "55464657044963196816950587289035428064568320970692304673817341489687782494209",
        "55464657044963196816950587289035428064568320970692304673817341489687790884864"
      ]
    },
    {
      "x": 183,
      "y": 318,
      "size": 1,
      "price": "4683000000000000000000",
      "reserved": "",
      "salt": "0xc1449447a2bd5513a3605df9784f409b8e5e04921cfd9d9c6ea2ea2bb40e31ed",
      "assetIds": [
        "55464657044963196816950587289035428064568320970692304673817341489687790884865",
        "55464657044963196816950587289035428064568320970692304673817341489687782494208",
        "55464657044963196816950587289035428064568320970692304673817341489687790884866",
        "55464657044963196816950587289035428064568320970692304673817341489687782494209",
        "55464657044963196816950587289035428064568320970692304673817341489687790884864"
      ]
    },
    {
      "x": 183,
      "y": 319,
      "size": 1,
      "price": "4683000000000000000000",
      "reserved": "",
      "salt": "0x0cf230e2d06aa6cb23cb8b0c487efe4127a0973d03e0eec84bf48ff3117c56d4",
      "assetIds": [
        "55464657044963196816950587289035428064568320970692304673817341489687790884865",
        "55464657044963196816950587289035428064568320970692304673817341489687782494208",
        "55464657044963196816950587289035428064568320970692304673817341489687790884866",
        "55464657044963196816950587289035428064568320970692304673817341489687782494209",
        "55464657044963196816950587289035428064568320970692304673817341489687790884864"
      ]
    },
    {
      "x": 183,
      "y": 320,
      "size": 1,
      "price": "4683000000000000000000",
      "reserved": "",
      "salt": "0xe0b433b54bfae71e4f271ba762ef64211b31d5c572b4983575247f21fc0982fc",
      "assetIds": [
        "55464657044963196816950587289035428064568320970692304673817341489687790884865",
        "55464657044963196816950587289035428064568320970692304673817341489687782494208",
        "55464657044963196816950587289035428064568320970692304673817341489687790884866",
        "55464657044963196816950587289035428064568320970692304673817341489687782494209",
        "55464657044963196816950587289035428064568320970692304673817341489687790884864"
      ]
    },
    {
      "x": 183,
      "y": 321,
      "size": 1,
      "price": "4683000000000000000000",
      "reserved": "",
      "salt": "0x90c8b635b908867832cdbdb8dbb897aa1e8369aeae1310cc82f38414bd501f38",
      "assetIds": [
        "55464657044963196816950587289035428064568320970692304673817341489687790884865",
        "55464657044963196816950587289035428064568320970692304673817341489687782494208",
        "55464657044963196816950587289035428064568320970692304673817341489687790884866",
        "55464657044963196816950587289035428064568320970692304673817341489687782494209",
        "55464657044963196816950587289035428064568320970692304673817341489687790884864"
      ]
    },
    {
      "x": 183,
      "y": 322,
      "size": 1,
      "price": "1011000000000000000000",
      "reserved": "",
      "salt": "0xf7f922bb743881654dc42cca2ca6afcc0c9d446f4cf65788e09336ebbea88cf9",
      "assetIds": []
    },
    {
      "x": 183,
      "y": 323,
      "size": 1,
      "price": "1011000000000000000000",
      "reserved": "",
      "salt": "0xc66ebcc25e81c062415f2b4c00b446cbca54431fe4fc73a608039aca35818863",
      "assetIds": []
    },
    {
      "x": 183,
      "y": 324,
      "size": 1,
      "price": "1011000000000000000000",
      "reserved": "",
      "salt": "0xea37bdd992429ffaa2168decd4d8c9f84bb21e61734efa3326005b94c22dfc37",
      "assetIds": []
    },
    {
      "x": 183,
      "y": 325,
      "size": 1,
      "price": "1011000000000000000000",
      "reserved": "",
      "salt": "0xb2264707b5ac3194069729437b0529a8a3c94ef8015ad53b54734e175a7d398c",
      "assetIds": []
    },
    {
      "x": 183,
      "y": 326,
      "size": 1,
      "price": "1011000000000000000000",
      "reserved": "0x7a9fe22691c811ea339d9b73150e6911a5343dca",
      "salt": "0xe68bb7cb43bccfe3d88e3d614f29b5d37b830ffd0abc9acae1d4784973cce093",
      "assetIds": []
    },
    {
      "x": 183,
      "y": 327,
      "size": 1,
      "price": "1011000000000000000000",
      "reserved": "",
      "salt": "0xba344dde374028545fe418f156645d819c3ee272b279a816f86c2ead7f53ff11",
      "assetIds": []
    },
    {
      "x": 183,
      "y": 328,
      "size": 1,
      "price": "1011000000000000000000",
      "reserved": "",
      "salt": "0xd60f4502c42602a1c4a66e8897b7b093843a719bde1d5a9ac7a91c2d74ad7765",
      "assetIds": []
    },
    {
      "x": 184,
      "y": 310,
      "size": 1,
      "price": "1011000000000000000000",
      "reserved": "",
      "salt": "0x2d502cc5734dc33463435a4bc0de80078663fbc653a3dba1d5346bdcc80307db",
      "assetIds": []
    },
    {
      "x": 184,
      "y": 311,
      "size": 1,
      "price": "4683000000000000000000",
      "reserved": "",
      "salt": "0x0c08ee028dc579ae8f4ef22112752518de112ecea8231defb616b36f2aa25f7f",
      "assetIds": [
        "55464657044963196816950587289035428064568320970692304673817341489687790884865",
        "55464657044963196816950587289035428064568320970692304673817341489687782494208",
        "55464657044963196816950587289035428064568320970692304673817341489687790884866",
        "55464657044963196816950587289035428064568320970692304673817341489687782494209",
        "55464657044963196816950587289035428064568320970692304673817341489687790884864"
      ]
    },
    {
      "x": 184,
      "y": 318,
      "size": 1,
      "price": "4683000000000000000000",
      "reserved": "",
      "salt": "0x2f13c2cb4e2b7133fea036e490ce299a7796387e6f5a51223bd9ceae3d7ea1cf",
      "assetIds": [
        "55464657044963196816950587289035428064568320970692304673817341489687790884865",
        "55464657044963196816950587289035428064568320970692304673817341489687782494208",
        "55464657044963196816950587289035428064568320970692304673817341489687790884866",
        "55464657044963196816950587289035428064568320970692304673817341489687782494209",
        "55464657044963196816950587289035428064568320970692304673817341489687790884864"
      ]
    },
    {
      "x": 184,
      "y": 319,
      "size": 1,
      "price": "4683000000000000000000",
      "reserved": "",
      "salt": "0x0c5dda2ca48fb4c8c6096b201fe7afe5f6f8bbb1b9f1861b256463924bcd535b",
      "assetIds": [
        "55464657044963196816950587289035428064568320970692304673817341489687790884865",
        "55464657044963196816950587289035428064568320970692304673817341489687782494208",
        "55464657044963196816950587289035428064568320970692304673817341489687790884866",
        "55464657044963196816950587289035428064568320970692304673817341489687782494209",
        "55464657044963196816950587289035428064568320970692304673817341489687790884864"
      ]
    },
    {
      "x": 184,
      "y": 320,
      "size": 1,
      "price": "4683000000000000000000",
      "reserved": "",
      "salt": "0x39a9e648164fb3d6753473b232e410c6a07fa864a3fe45573f207b56c61a6b79",
      "assetIds": [
        "55464657044963196816950587289035428064568320970692304673817341489687790884865",
        "55464657044963196816950587289035428064568320970692304673817341489687782494208",
        "55464657044963196816950587289035428064568320970692304673817341489687790884866",
        "55464657044963196816950587289035428064568320970692304673817341489687782494209",
        "55464657044963196816950587289035428064568320970692304673817341489687790884864"
      ]
    },
    {
      "x": 184,
      "y": 321,
      "size": 1,
      "price": "1011000000000000000000",
      "reserved": "0x7a9fe22691c811ea339d9b73150e6911a5343dca",
      "salt": "0x6f5b9d93fa79e7a5a88f3a4fa91b4c56fa34ff296ac76c02d02f12efc08ec5ac",
      "assetIds": []
    },
    {
      "x": 184,
      "y": 322,
      "size": 1,
      "price": "1011000000000000000000",
      "reserved": "",
      "salt": "0xa3f94d34ac0aca5655b50eecffcde926b2ae837a2aa948f3fa668dadd17abbf1",
      "assetIds": []
    },
    {
      "x": 184,
      "y": 323,
      "size": 1,
      "price": "1011000000000000000000",
      "reserved": "",
      "salt": "0xc73f5ff38a05b1e66110da7a83f62a90598c220ace4d5b249660f318bb69e0e9",
      "assetIds": []
    },
    {
      "x": 184,
      "y": 324,
      "size": 1,
      "price": "1011000000000000000000",
      "reserved": "0x7a9fe22691c811ea339d9b73150e6911a5343dca",
      "salt": "0x37cd7236b5f71595b9a3dbe46232f46b9bde205d1b8c383487b1d8ffea43c5bd",
      "assetIds": []
    },
    {
      "x": 184,
      "y": 325,
      "size": 1,
      "price": "1011000000000000000000",
      "reserved": "",
      "salt": "0x6facb990acced62407d21583231bc149b00d97c881ca83c326272593d9c10dac",
      "assetIds": []
    },
    {
      "x": 184,
      "y": 326,
      "size": 1,
      "price": "1011000000000000000000",
      "reserved": "",
      "salt": "0x6d5f24a3771142fb742028e602435fa0d8737f3c3416aae7516c665ad4274b2a",
      "assetIds": []
    },
    {
      "x": 184,
      "y": 327,
      "size": 1,
      "price": "1011000000000000000000",
      "reserved": "",
      "salt": "0x4c98842dff04464d615209159c336d98622cdea634367005d11dac0a0481309f",
      "assetIds": []
    },
    {
      "x": 184,
      "y": 328,
      "size": 1,
      "price": "1011000000000000000000",
      "reserved": "",
      "salt": "0x88e428761f09af87ca9b094dfc3513d95e8fdf03df62713f25a7760d7310e118",
      "assetIds": []
    },
    {
      "x": 185,
      "y": 311,
      "size": 1,
      "price": "4683000000000000000000",
      "reserved": "",
      "salt": "0xbc700309b7e8f6cd94d8298318028d9d4942aeed3ad3a482c5a97b70077ac0d5",
      "assetIds": [
        "55464657044963196816950587289035428064568320970692304673817341489687790884865",
        "55464657044963196816950587289035428064568320970692304673817341489687782494208",
        "55464657044963196816950587289035428064568320970692304673817341489687790884866",
        "55464657044963196816950587289035428064568320970692304673817341489687782494209",
        "55464657044963196816950587289035428064568320970692304673817341489687790884864"
      ]
    },
    {
      "x": 185,
      "y": 318,
      "size": 1,
      "price": "4683000000000000000000",
      "reserved": "",
      "salt": "0x110aeb0bf8de8efa6d9cdcd124e07348ff4085dc098be60d3235722d76eceb12",
      "assetIds": [
        "55464657044963196816950587289035428064568320970692304673817341489687790884865",
        "55464657044963196816950587289035428064568320970692304673817341489687782494208",
        "55464657044963196816950587289035428064568320970692304673817341489687790884866",
        "55464657044963196816950587289035428064568320970692304673817341489687782494209",
        "55464657044963196816950587289035428064568320970692304673817341489687790884864"
      ]
    },
    {
      "x": 185,
      "y": 319,
      "size": 1,
      "price": "4683000000000000000000",
      "reserved": "",
      "salt": "0x035653d495cc19ff11ccdb2c3becb737533fa7eb8e9e1ed922069676c1be0b91",
      "assetIds": [
        "55464657044963196816950587289035428064568320970692304673817341489687790884865",
        "55464657044963196816950587289035428064568320970692304673817341489687782494208",
        "55464657044963196816950587289035428064568320970692304673817341489687790884866",
        "55464657044963196816950587289035428064568320970692304673817341489687782494209",
        "55464657044963196816950587289035428064568320970692304673817341489687790884864"
      ]
    },
    {
      "x": 185,
      "y": 320,
      "size": 1,
      "price": "1011000000000000000000",
      "reserved": "",
      "salt": "0x3a2878d45ffa6f055956b5f8828412321bbb62fd09ac4f3ed27bc549b42cb0d8",
      "assetIds": []
    },
    {
      "x": 185,
      "y": 321,
      "size": 1,
      "price": "1011000000000000000000",
      "reserved": "",
      "salt": "0xc3a996bcbed30d73df4e616d3095970c80d1bdcc26a6157d82a403e61467c275",
      "assetIds": []
    },
    {
      "x": 185,
      "y": 322,
      "size": 1,
      "price": "1011000000000000000000",
      "reserved": "",
      "salt": "0x2a7411e0db78ea8ddc60eedc34e85a45788bd4e1f16701dcff1cb6389f7f3dce",
      "assetIds": []
    },
    {
      "x": 185,
      "y": 323,
      "size": 1,
      "price": "1011000000000000000000",
      "reserved": "",
      "salt": "0x15df35635b3155fa25b8e6b47bd572646c8ec93817b21539d26d16adf3889c86",
      "assetIds": []
    },
    {
      "x": 185,
      "y": 324,
      "size": 1,
      "price": "1011000000000000000000",
      "reserved": "",
      "salt": "0x24a23fd012d4d6510de60982e35428a4b3eb20e2be8fd8925f14c6eaf719fcd7",
      "assetIds": []
    },
    {
      "x": 185,
      "y": 325,
      "size": 1,
      "price": "1011000000000000000000",
      "reserved": "",
      "salt": "0x8cba905c240505a5d2a8c109deef66350d9a916f3475e4d7c337075879b87cea",
      "assetIds": []
    },
    {
      "x": 185,
      "y": 326,
      "size": 1,
      "price": "1011000000000000000000",
      "reserved": "0x7a9fe22691c811ea339d9b73150e6911a5343dca",
      "salt": "0x1d9b80a55c0f63d7d8def26f9dd089418ced39a83e6ef830545e412c33f89d05",
      "assetIds": []
    },
    {
      "x": 185,
      "y": 327,
      "size": 1,
      "price": "1011000000000000000000",
      "reserved": "0x7a9fe22691c811ea339d9b73150e6911a5343dca",
      "salt": "0x4f8dec27a8f887afb4f9c1093a679b9707bbe06d8b391e437e1ffb10ce4aefcd",
      "assetIds": []
    },
    {
      "x": 185,
      "y": 328,
      "size": 1,
      "price": "1011000000000000000000",
      "reserved": "",
      "salt": "0x17680d7fd542546936317205dca4ef8cca3c70747c4f622c481d27e3aa5c5e64",
      "assetIds": []
    },
    {
      "x": 186,
      "y": 311,
      "size": 1,
      "price": "1011000000000000000000",
      "reserved": "",
      "salt": "0x53f8c953a9c58f2faf718a11c2a116a5b01c3dc1ce445928aadb82a441a86b81",
      "assetIds": []
    },
    {
      "x": 186,
      "y": 318,
      "size": 1,
      "price": "1011000000000000000000",
      "reserved": "0x7a9fe22691c811ea339d9b73150e6911a5343dca",
      "salt": "0xf4420e21fd1854b859e77f976c7d101cb4bf4a4af8469683bcf5541c3a8b5a97",
      "assetIds": []
    },
    {
      "x": 186,
      "y": 319,
      "size": 1,
      "price": "1011000000000000000000",
      "reserved": "0x7a9fe22691c811ea339d9b73150e6911a5343dca",
      "salt": "0x7e97fd404a41b687e0f2fd0bc6e89b9d58357424d13021a7c6cd6601545f42b6",
      "assetIds": []
    },
    {
      "x": 186,
      "y": 320,
      "size": 1,
      "price": "1011000000000000000000",
      "reserved": "",
      "salt": "0x904c87f5212338cb2e58cef8ddb87fbdf04239403adfd1de4e28be166b106640",
      "assetIds": []
    },
    {
      "x": 186,
      "y": 321,
      "size": 1,
      "price": "1011000000000000000000",
      "reserved": "0x7a9fe22691c811ea339d9b73150e6911a5343dca",
      "salt": "0x4366258e58bf23bfb8d90c326846427cdbf01e2944b73c4e34c36ffeb489e308",
      "assetIds": []
    },
    {
      "x": 186,
      "y": 322,
      "size": 1,
      "price": "1011000000000000000000",
      "reserved": "",
      "salt": "0xa80334b50e0b153fc5f285748e480f81caeafaf29ccaa3e937ae5f7601cfdc8c",
      "assetIds": []
    },
    {
      "x": 186,
      "y": 323,
      "size": 1,
      "price": "1011000000000000000000",
      "reserved": "",
      "salt": "0x186f1c1dae7c40996cc381c7618421a1e2f1a2903c4024ffc46c19c81f718560",
      "assetIds": []
    },
    {
      "x": 186,
      "y": 324,
      "size": 1,
      "price": "1011000000000000000000",
      "reserved": "",
      "salt": "0x65f981f5873efbb7f05c08f94c328f07bb808bd2a0fb2b9c9ea8e451bfc24177",
      "assetIds": []
    },
    {
      "x": 186,
      "y": 325,
      "size": 1,
      "price": "1011000000000000000000",
      "reserved": "",
      "salt": "0x6f60ca645485c167f07f999e97c6e9f2ae6d971e7fa5efb5f51bdec598dceac6",
      "assetIds": []
    },
    {
      "x": 186,
      "y": 326,
      "size": 1,
      "price": "1011000000000000000000",
      "reserved": "",
      "salt": "0xe8f265dc0caa5d111b65bcb04b844fe4e7e37c485a163fa39e60d1106a3a879b",
      "assetIds": []
    },
    {
      "x": 186,
      "y": 327,
      "size": 1,
      "price": "1011000000000000000000",
      "reserved": "",
      "salt": "0x51b4d087658e66458362b7cf15bd0eae216d6c48cce57096833976a10a508b45",
      "assetIds": []
    },
    {
      "x": 186,
      "y": 328,
      "size": 1,
      "price": "1011000000000000000000",
      "reserved": "",
      "salt": "0xb9d08e8a84626baa8227c3a579f2ed654c65f835679b97911e80d9afaf78855c",
      "assetIds": []
    },
    {
      "x": 187,
      "y": 311,
      "size": 1,
      "price": "1011000000000000000000",
      "reserved": "0x7a9fe22691c811ea339d9b73150e6911a5343dca",
      "salt": "0x07f7b9c087b1739045cb85b5e53ea6b0a3d35d7b59f1c508aa5c4993110619d5",
      "assetIds": []
    },
    {
      "x": 187,
      "y": 318,
      "size": 1,
      "price": "1011000000000000000000",
      "reserved": "",
      "salt": "0x378dfc2dd4d018da2c689c170a48bd76df839da6c1cdbe9eec28ccfe228267f7",
      "assetIds": []
    },
    {
      "x": 187,
      "y": 319,
      "size": 1,
      "price": "1011000000000000000000",
      "reserved": "",
      "salt": "0xd4744e07037d37eb6aa0ea04c84d363764dceb6c185872a6baefb5ca4dae0186",
      "assetIds": []
    },
    {
      "x": 187,
      "y": 320,
      "size": 1,
      "price": "1011000000000000000000",
      "reserved": "",
      "salt": "0xf0f67ed6dc1a5eae547bb442f4298af0d7cae540b2660e4dedbbd177d4051ea1",
      "assetIds": []
    },
    {
      "x": 187,
      "y": 321,
      "size": 1,
      "price": "4683000000000000000000",
      "reserved": "",
      "salt": "0x15163be425df02bb24b3d930193a12c61cb10cbc6443ad86f5b6b5898293cfd6",
      "assetIds": [
        "55464657044963196816950587289035428064568320970692304673817341489687790884865",
        "55464657044963196816950587289035428064568320970692304673817341489687782494208",
        "55464657044963196816950587289035428064568320970692304673817341489687790884866",
        "55464657044963196816950587289035428064568320970692304673817341489687782494209",
        "55464657044963196816950587289035428064568320970692304673817341489687790884864"
      ]
    },
    {
      "x": 187,
      "y": 322,
      "size": 1,
      "price": "1011000000000000000000",
      "reserved": "",
      "salt": "0x836e754f0f3631767362c41a90941262fea346a83d0c3892a3be30b90fc2991e",
      "assetIds": []
    },
    {
      "x": 187,
      "y": 323,
      "size": 1,
      "price": "1011000000000000000000",
      "reserved": "",
      "salt": "0xdac2f04232d9e3e4e6f646c9f404db1262f09b9bcbc209bd66905e1d725c01cb",
      "assetIds": []
    },
    {
      "x": 187,
      "y": 324,
      "size": 1,
      "price": "4683000000000000000000",
      "reserved": "",
      "salt": "0xa6d88bb687fc1ca7c0f9f4ab4318a2d8af1e95581c562b95dd3b04368a2a84ae",
      "assetIds": [
        "55464657044963196816950587289035428064568320970692304673817341489687790884865",
        "55464657044963196816950587289035428064568320970692304673817341489687782494208",
        "55464657044963196816950587289035428064568320970692304673817341489687790884866",
        "55464657044963196816950587289035428064568320970692304673817341489687782494209",
        "55464657044963196816950587289035428064568320970692304673817341489687790884864"
      ]
    },
    {
      "x": 187,
      "y": 325,
      "size": 1,
      "price": "1011000000000000000000",
      "reserved": "",
      "salt": "0x8d1c1254d71b53d5e6761f4fba3c947b32bc75b2abb28c66b51b95c55299febf",
      "assetIds": []
    },
    {
      "x": 187,
      "y": 326,
      "size": 1,
      "price": "1011000000000000000000",
      "reserved": "",
      "salt": "0xd22a76d9051d817f24ac35f38ebb7bc0bd1d17d4c2357c1efabb60d37c3656c2",
      "assetIds": []
    },
    {
      "x": 187,
      "y": 327,
      "size": 1,
      "price": "1011000000000000000000",
      "reserved": "0x7a9fe22691c811ea339d9b73150e6911a5343dca",
      "salt": "0x399ca96f6be46754a5921fb448b7b249bb9ce650053cb724eef825c2ba4031c9",
      "assetIds": []
    },
    {
      "x": 187,
      "y": 328,
      "size": 1,
      "price": "1011000000000000000000",
      "reserved": "",
      "salt": "0xbd028c16c32ae370f9c380b465257916eda039faf1476bf004d75bed303ba341",
      "assetIds": []
    },
    {
      "x": 187,
      "y": 329,
      "size": 1,
      "price": "1011000000000000000000",
      "reserved": "",
      "salt": "0xe9fa8ff534dac3f5ed28e0ad43c79f05bc8a94757bef41cfb7bbe1dd658e12d9",
      "assetIds": []
    },
    {
      "x": 187,
      "y": 330,
      "size": 1,
      "price": "1011000000000000000000",
      "reserved": "",
      "salt": "0x5c33023d919c2a446d1a2c4af22369f4d0390c45f66c094f069f395d9580488e",
      "assetIds": []
    },
    {
      "x": 188,
      "y": 311,
      "size": 1,
      "price": "1011000000000000000000",
      "reserved": "",
      "salt": "0xaab2a4c64fbfd73b6e8d13ff8807bd00f2b90c462256d5e4663dc056a112b58e",
      "assetIds": []
    },
    {
      "x": 188,
      "y": 318,
      "size": 1,
      "price": "1011000000000000000000",
      "reserved": "",
      "salt": "0xe6daf257b6483467ad512533dbe4e8165b8a685b851411b7c8bfe7542ec9d68f",
      "assetIds": []
    },
    {
      "x": 188,
      "y": 319,
      "size": 1,
      "price": "1011000000000000000000",
      "reserved": "0x7a9fe22691c811ea339d9b73150e6911a5343dca",
      "salt": "0x3488fed3cd810d1335e47e2cc7bbe67ee1958f73d3366f6e9f7338a871304dbb",
      "assetIds": []
    },
    {
      "x": 188,
      "y": 320,
      "size": 1,
      "price": "1011000000000000000000",
      "reserved": "",
      "salt": "0x6d88545e7a3c8a5bfd6a6360181aa0b0ed20b51b75938be8d926c334e7c77d41",
      "assetIds": []
    },
    {
      "x": 188,
      "y": 321,
      "size": 1,
      "price": "4683000000000000000000",
      "reserved": "",
      "salt": "0x58ebd661063994159a84dfabac149a646429b9a8bf27258d78552fa1d55047ca",
      "assetIds": [
        "55464657044963196816950587289035428064568320970692304673817341489687790884865",
        "55464657044963196816950587289035428064568320970692304673817341489687782494208",
        "55464657044963196816950587289035428064568320970692304673817341489687790884866",
        "55464657044963196816950587289035428064568320970692304673817341489687782494209",
        "55464657044963196816950587289035428064568320970692304673817341489687790884864"
      ]
    },
    {
      "x": 188,
      "y": 322,
      "size": 1,
      "price": "4683000000000000000000",
      "reserved": "",
      "salt": "0xf3202815a6e1986bc8207f9ff39429e80c451935cfa79af4c1134924594c11aa",
      "assetIds": [
        "55464657044963196816950587289035428064568320970692304673817341489687790884865",
        "55464657044963196816950587289035428064568320970692304673817341489687782494208",
        "55464657044963196816950587289035428064568320970692304673817341489687790884866",
        "55464657044963196816950587289035428064568320970692304673817341489687782494209",
        "55464657044963196816950587289035428064568320970692304673817341489687790884864"
      ]
    },
    {
      "x": 188,
      "y": 323,
      "size": 1,
      "price": "4683000000000000000000",
      "reserved": "",
      "salt": "0x82e849d9e8b7a7573bf6775007cecebe8a507c255a2b15e89e523c0075f28284",
      "assetIds": [
        "55464657044963196816950587289035428064568320970692304673817341489687790884865",
        "55464657044963196816950587289035428064568320970692304673817341489687782494208",
        "55464657044963196816950587289035428064568320970692304673817341489687790884866",
        "55464657044963196816950587289035428064568320970692304673817341489687782494209",
        "55464657044963196816950587289035428064568320970692304673817341489687790884864"
      ]
    },
    {
      "x": 188,
      "y": 324,
      "size": 1,
      "price": "4683000000000000000000",
      "reserved": "",
      "salt": "0xc42dfda504595603bea34c7c636cc14a87be78d28eb3c87b25e453a0f93ed0ec",
      "assetIds": [
        "55464657044963196816950587289035428064568320970692304673817341489687790884865",
        "55464657044963196816950587289035428064568320970692304673817341489687782494208",
        "55464657044963196816950587289035428064568320970692304673817341489687790884866",
        "55464657044963196816950587289035428064568320970692304673817341489687782494209",
        "55464657044963196816950587289035428064568320970692304673817341489687790884864"
      ]
    },
    {
      "x": 188,
      "y": 325,
      "size": 1,
      "price": "1011000000000000000000",
      "reserved": "",
      "salt": "0x74552897eee1bd7d79ab6f54a89f0b690f6c2287a571876ee4d0e10613fc397d",
      "assetIds": []
    },
    {
      "x": 188,
      "y": 326,
      "size": 1,
      "price": "1011000000000000000000",
      "reserved": "",
      "salt": "0xf805e8005d2ac198b882f3f242680639f8a8a8af3627869d1ad2819633fc66eb",
      "assetIds": []
    },
    {
      "x": 188,
      "y": 327,
      "size": 1,
      "price": "1011000000000000000000",
      "reserved": "",
      "salt": "0x7dc2fdc5b26f137131762f8c03721dbb8b7169a30e576989794f26c7dc5dd989",
      "assetIds": []
    },
    {
      "x": 188,
      "y": 328,
      "size": 1,
      "price": "1011000000000000000000",
      "reserved": "",
      "salt": "0x02b1f935afb0003c2efe414b67bf67008b337a590225ff1cdc79f1a332a4dbd5",
      "assetIds": []
    },
    {
      "x": 188,
      "y": 329,
      "size": 1,
      "price": "1011000000000000000000",
      "reserved": "",
      "salt": "0x86e8218eafa4e092895eb90c9eb8c07cccef095938ffd1b003b7597da3fc27ff",
      "assetIds": []
    },
    {
      "x": 188,
      "y": 330,
      "size": 1,
      "price": "1011000000000000000000",
      "reserved": "0x7a9fe22691c811ea339d9b73150e6911a5343dca",
      "salt": "0x66bb1fd98ebfc5f798906843b39c4bde82b04844b308b7e2aa95294ac7684476",
      "assetIds": []
    },
    {
      "x": 189,
      "y": 311,
      "size": 1,
      "price": "1011000000000000000000",
      "reserved": "",
      "salt": "0x7a5918f24548991ba9f84191bb3d24730a6ae0f40dfc56269eaef8a12f10e028",
      "assetIds": []
    },
    {
      "x": 189,
      "y": 324,
      "size": 1,
      "price": "4683000000000000000000",
      "reserved": "",
      "salt": "0xab7b4b226edddeca281396279401fb58bd2e2070d6e802635afaf73c13cdb7ce",
      "assetIds": [
        "55464657044963196816950587289035428064568320970692304673817341489687790884865",
        "55464657044963196816950587289035428064568320970692304673817341489687782494208",
        "55464657044963196816950587289035428064568320970692304673817341489687790884866",
        "55464657044963196816950587289035428064568320970692304673817341489687782494209",
        "55464657044963196816950587289035428064568320970692304673817341489687790884864"
      ]
    },
    {
      "x": 189,
      "y": 325,
      "size": 1,
      "price": "1011000000000000000000",
      "reserved": "",
      "salt": "0x9255ea983950e48ffa8540cc5c3bc1276acc701f318160004a17265d4a251703",
      "assetIds": []
    },
    {
      "x": 189,
      "y": 326,
      "size": 1,
      "price": "1011000000000000000000",
      "reserved": "0x7a9fe22691c811ea339d9b73150e6911a5343dca",
      "salt": "0xaf067ed54fea9e97c271fb7226d00a5a3d859f7f9704ca132b30eddc18d65509",
      "assetIds": []
    },
    {
      "x": 189,
      "y": 327,
      "size": 1,
      "price": "1011000000000000000000",
      "reserved": "",
      "salt": "0x0f2f2cbcd8e77f16665e8250f94b8d3b7fe6dbd786eb7b2d1257e352cd9456b9",
      "assetIds": []
    },
    {
      "x": 189,
      "y": 328,
      "size": 1,
      "price": "1011000000000000000000",
      "reserved": "0x7a9fe22691c811ea339d9b73150e6911a5343dca",
      "salt": "0x269ad0a3bf243b11d23a6e346f8403ef6a550bf2c90f79a015adc0e9aa191c1c",
      "assetIds": []
    },
    {
      "x": 189,
      "y": 329,
      "size": 1,
      "price": "1011000000000000000000",
      "reserved": "",
      "salt": "0x27693cabf2a7c6666e947cf668e2de4c80dc28ee9a9b5de232cfc47d67a58fe4",
      "assetIds": []
    },
    {
      "x": 189,
      "y": 330,
      "size": 1,
      "price": "1011000000000000000000",
      "reserved": "",
      "salt": "0xa0b7f81d0903a01eccca6db581f473babbffaccebedb1a4e6d6a347124fee5e1",
      "assetIds": []
    },
    {
      "x": 190,
      "y": 311,
      "size": 1,
      "price": "1011000000000000000000",
      "reserved": "",
      "salt": "0xd639f09d9a56512e3a972283da972051284137cf83be0e101523fae790513c3e",
      "assetIds": []
    },
    {
      "x": 190,
      "y": 324,
      "size": 1,
      "price": "4683000000000000000000",
      "reserved": "",
      "salt": "0xcbab9e2f2e2b01e13e1403e8907f595e674a005bf3a0ce29ca059f110f9b664f",
      "assetIds": [
        "55464657044963196816950587289035428064568320970692304673817341489687790884865",
        "55464657044963196816950587289035428064568320970692304673817341489687782494208",
        "55464657044963196816950587289035428064568320970692304673817341489687790884866",
        "55464657044963196816950587289035428064568320970692304673817341489687782494209",
        "55464657044963196816950587289035428064568320970692304673817341489687790884864"
      ]
    },
    {
      "x": 190,
      "y": 325,
      "size": 1,
      "price": "1011000000000000000000",
      "reserved": "",
      "salt": "0x668b1ff849e921442c579050d474c7fec1c9da5b3d599e5d6bee41b66be8a985",
      "assetIds": []
    },
    {
      "x": 190,
      "y": 326,
      "size": 1,
      "price": "1011000000000000000000",
      "reserved": "",
      "salt": "0x00b41e4bc9839a3b09ab07a94f07a0456a4509f0f81a9cf1fd63bf1dd4fa841f",
      "assetIds": []
    },
    {
      "x": 190,
      "y": 327,
      "size": 1,
      "price": "1011000000000000000000",
      "reserved": "",
      "salt": "0x8d0ad733a8baf33923a166b810cfec4c9a4e5feacf112d64e225774e91e04026",
      "assetIds": []
    },
    {
      "x": 190,
      "y": 328,
      "size": 1,
      "price": "1011000000000000000000",
      "reserved": "",
      "salt": "0xd771f54554787a5e6604dd35a97ac425211ccc9a067e0f214f6bd0ff050a5f93",
      "assetIds": []
    },
    {
      "x": 190,
      "y": 329,
      "size": 1,
      "price": "4683000000000000000000",
      "reserved": "",
      "salt": "0xbf9584252b492ea0e485baf888846a31b2ac4e5aa7e70ec2f73b06802247a227",
      "assetIds": [
        "55464657044963196816950587289035428064568320970692304673817341489687790884865",
        "55464657044963196816950587289035428064568320970692304673817341489687782494208",
        "55464657044963196816950587289035428064568320970692304673817341489687790884866",
        "55464657044963196816950587289035428064568320970692304673817341489687782494209",
        "55464657044963196816950587289035428064568320970692304673817341489687790884864"
      ]
    },
    {
      "x": 190,
      "y": 330,
      "size": 1,
      "price": "4683000000000000000000",
      "reserved": "",
      "salt": "0xaf6cc0b20298ecc4d9e049bbe457bf36dcf4421227134a8a747a436281c20e48",
      "assetIds": [
        "55464657044963196816950587289035428064568320970692304673817341489687790884865",
        "55464657044963196816950587289035428064568320970692304673817341489687782494208",
        "55464657044963196816950587289035428064568320970692304673817341489687790884866",
        "55464657044963196816950587289035428064568320970692304673817341489687782494209",
        "55464657044963196816950587289035428064568320970692304673817341489687790884864"
      ]
    },
    {
      "x": 191,
      "y": 311,
      "size": 1,
      "price": "1011000000000000000000",
      "reserved": "",
      "salt": "0x48d0e20edf6ca351a229ce4a01a891620611ff89c874ed42dbeeef8c9a21be9e",
      "assetIds": []
    },
    {
      "x": 191,
      "y": 324,
      "size": 1,
      "price": "4683000000000000000000",
      "reserved": "",
      "salt": "0xb5109350f22d3f517a9036d413d2f60af4c4c69b29933d382c98046e073fdf30",
      "assetIds": [
        "55464657044963196816950587289035428064568320970692304673817341489687790884865",
        "55464657044963196816950587289035428064568320970692304673817341489687782494208",
        "55464657044963196816950587289035428064568320970692304673817341489687790884866",
        "55464657044963196816950587289035428064568320970692304673817341489687782494209",
        "55464657044963196816950587289035428064568320970692304673817341489687790884864"
      ]
    },
    {
      "x": 191,
      "y": 325,
      "size": 1,
      "price": "4683000000000000000000",
      "reserved": "",
      "salt": "0x9bb779ac26f20b4da20e76055455116887da9dd354df7b0a73ad9f0a57723e36",
      "assetIds": [
        "55464657044963196816950587289035428064568320970692304673817341489687790884865",
        "55464657044963196816950587289035428064568320970692304673817341489687782494208",
        "55464657044963196816950587289035428064568320970692304673817341489687790884866",
        "55464657044963196816950587289035428064568320970692304673817341489687782494209",
        "55464657044963196816950587289035428064568320970692304673817341489687790884864"
      ]
    },
    {
      "x": 191,
      "y": 326,
      "size": 1,
      "price": "4683000000000000000000",
      "reserved": "",
      "salt": "0x0e7f531562cfc1f1dd3f87689598c04acbf7be055ab95a602ace79567c28f810",
      "assetIds": [
        "55464657044963196816950587289035428064568320970692304673817341489687790884865",
        "55464657044963196816950587289035428064568320970692304673817341489687782494208",
        "55464657044963196816950587289035428064568320970692304673817341489687790884866",
        "55464657044963196816950587289035428064568320970692304673817341489687782494209",
        "55464657044963196816950587289035428064568320970692304673817341489687790884864"
      ]
    },
    {
      "x": 191,
      "y": 327,
      "size": 1,
      "price": "4683000000000000000000",
      "reserved": "",
      "salt": "0x9fe125ea36dd68c780da50fad8406d6e271d95c36bed6ba4916ef425ef715311",
      "assetIds": [
        "55464657044963196816950587289035428064568320970692304673817341489687790884865",
        "55464657044963196816950587289035428064568320970692304673817341489687782494208",
        "55464657044963196816950587289035428064568320970692304673817341489687790884866",
        "55464657044963196816950587289035428064568320970692304673817341489687782494209",
        "55464657044963196816950587289035428064568320970692304673817341489687790884864"
      ]
    },
    {
      "x": 191,
      "y": 328,
      "size": 1,
      "price": "4683000000000000000000",
      "reserved": "",
      "salt": "0xa137b1bbed07b865938babae50a9fd5f0b677062dbc5e728824b0c3164ac9105",
      "assetIds": [
        "55464657044963196816950587289035428064568320970692304673817341489687790884865",
        "55464657044963196816950587289035428064568320970692304673817341489687782494208",
        "55464657044963196816950587289035428064568320970692304673817341489687790884866",
        "55464657044963196816950587289035428064568320970692304673817341489687782494209",
        "55464657044963196816950587289035428064568320970692304673817341489687790884864"
      ]
    },
    {
      "x": 191,
      "y": 329,
      "size": 1,
      "price": "4683000000000000000000",
      "reserved": "",
      "salt": "0x5a349c0816e20a7081279d377ab58a9d83297dd75eefaaf12a8db9fc7992f471",
      "assetIds": [
        "55464657044963196816950587289035428064568320970692304673817341489687790884865",
        "55464657044963196816950587289035428064568320970692304673817341489687782494208",
        "55464657044963196816950587289035428064568320970692304673817341489687790884866",
        "55464657044963196816950587289035428064568320970692304673817341489687782494209",
        "55464657044963196816950587289035428064568320970692304673817341489687790884864"
      ]
    },
    {
      "x": 191,
      "y": 330,
      "size": 1,
      "price": "4683000000000000000000",
      "reserved": "",
      "salt": "0xbcc93d0b09fb86a1d71bc7372f40c0c402391918b44034da9de64a13b7419bfb",
      "assetIds": [
        "55464657044963196816950587289035428064568320970692304673817341489687790884865",
        "55464657044963196816950587289035428064568320970692304673817341489687782494208",
        "55464657044963196816950587289035428064568320970692304673817341489687790884866",
        "55464657044963196816950587289035428064568320970692304673817341489687782494209",
        "55464657044963196816950587289035428064568320970692304673817341489687790884864"
      ]
    },
    {
      "x": 197,
      "y": 336,
      "size": 1,
      "price": "4683000000000000000000",
      "reserved": "",
      "salt": "0x9282e911dde2ce143a13de9b54cf885b028b1b87a7e911e31eeecf3e8f5c232f",
      "assetIds": [
        "55464657044963196816950587289035428064568320970692304673817341489687790884865",
        "55464657044963196816950587289035428064568320970692304673817341489687782494208",
        "55464657044963196816950587289035428064568320970692304673817341489687790884866",
        "55464657044963196816950587289035428064568320970692304673817341489687782494209",
        "55464657044963196816950587289035428064568320970692304673817341489687790884864"
      ]
    },
    {
      "x": 197,
      "y": 337,
      "size": 1,
      "price": "1011000000000000000000",
      "reserved": "",
      "salt": "0x80f6935a441cf7397a5d682fd7888335f2feef57a58a59f1c448a50b7b0f4487",
      "assetIds": []
    },
    {
      "x": 198,
      "y": 336,
      "size": 1,
      "price": "4683000000000000000000",
      "reserved": "",
      "salt": "0xfa4a9202b24b60d42cfb258fa21998cfc852a3f93add70998250cc55746e37d8",
      "assetIds": [
        "55464657044963196816950587289035428064568320970692304673817341489687790884865",
        "55464657044963196816950587289035428064568320970692304673817341489687782494208",
        "55464657044963196816950587289035428064568320970692304673817341489687790884866",
        "55464657044963196816950587289035428064568320970692304673817341489687782494209",
        "55464657044963196816950587289035428064568320970692304673817341489687790884864"
      ]
    },
    {
      "x": 198,
      "y": 337,
      "size": 1,
      "price": "1011000000000000000000",
      "reserved": "",
      "salt": "0x83437df15dbbdf7c473da2af006745b1edf62597d8076edad4f8ecedc8228f52",
      "assetIds": []
    },
    {
      "x": 198,
      "y": 338,
      "size": 1,
      "price": "1011000000000000000000",
      "reserved": "",
      "salt": "0x91c6d665495688c5d12d0545cb72dd3e70d07965269ae3c88f2e230256ff9986",
      "assetIds": []
    },
    {
      "x": 198,
      "y": 339,
      "size": 1,
      "price": "1011000000000000000000",
      "reserved": "",
      "salt": "0x989ffa94cd16fcb931afb93118adb3729de04ee622995b436ee3506f30974362",
      "assetIds": []
    },
    {
      "x": 198,
      "y": 340,
      "size": 1,
      "price": "1011000000000000000000",
      "reserved": "",
      "salt": "0x82109c36f2fc7b38dc79e66d33ff5525cbd0d028a630873ae563a6d70d1fa448",
      "assetIds": []
    },
    {
      "x": 198,
      "y": 341,
      "size": 1,
      "price": "1011000000000000000000",
      "reserved": "0x7a9fe22691c811ea339d9b73150e6911a5343dca",
      "salt": "0x7bd39db40d105bb7cb717be783750970bd4bb2666bbf701d3696bc3cd833606d",
      "assetIds": []
    },
    {
      "x": 198,
      "y": 342,
      "size": 1,
      "price": "1011000000000000000000",
      "reserved": "",
      "salt": "0x1862cf8893a59bd6bd6fad8b89505dec2811955d0048c6030a6fa674ec9fa211",
      "assetIds": []
    },
    {
      "x": 198,
      "y": 343,
      "size": 1,
      "price": "1011000000000000000000",
      "reserved": "",
      "salt": "0x541fe1c8eb2be4b5a0d291eb19bbd8e80b4a0b52e9d558aaad6307d63eddab17",
      "assetIds": []
    },
    {
      "x": 198,
      "y": 344,
      "size": 1,
      "price": "1011000000000000000000",
      "reserved": "",
      "salt": "0xeea206f53cb55950c7b39d13dbcfa94cae80c78866356c0e478dbf60c64ed652",
      "assetIds": []
    },
    {
      "x": 198,
      "y": 345,
      "size": 1,
      "price": "1011000000000000000000",
      "reserved": "",
      "salt": "0x2e43a8e7bab280bdaa9152ce8d901535ddcc7c669a3b1756405e1b03941b947b",
      "assetIds": []
    },
    {
      "x": 198,
      "y": 346,
      "size": 1,
      "price": "1011000000000000000000",
      "reserved": "",
      "salt": "0x9022cc513a8e7c3689a86883b8118899e1e6722d834566f6b208b290e3b057a5",
      "assetIds": []
    },
    {
      "x": 198,
      "y": 347,
      "size": 1,
      "price": "1011000000000000000000",
      "reserved": "",
      "salt": "0xe116ea545fd4b38c3146d786d5d2847f0df4db43dc2df85efe01099d3ffe3420",
      "assetIds": []
    },
    {
      "x": 198,
      "y": 348,
      "size": 1,
      "price": "1011000000000000000000",
      "reserved": "0x7a9fe22691c811ea339d9b73150e6911a5343dca",
      "salt": "0x7960d4ace3e1f0d6ec8e96abee30f64a825d97afd71113a74479d7938f627c6c",
      "assetIds": []
    },
    {
      "x": 198,
      "y": 349,
      "size": 1,
      "price": "1011000000000000000000",
      "reserved": "",
      "salt": "0x805853be4ea439cdccbd7ed8a3a777422640338190996af2230443ede31d5d3f",
      "assetIds": []
    },
    {
      "x": 198,
      "y": 350,
      "size": 1,
      "price": "1011000000000000000000",
      "reserved": "",
      "salt": "0xec384f46bb5077c64ab335bdff73122a95b78109cad3399271efe38d5033abf7",
      "assetIds": []
    },
    {
      "x": 199,
      "y": 336,
      "size": 1,
      "price": "4683000000000000000000",
      "reserved": "",
      "salt": "0xec6d4163e65429f3f972bfba80b15094288cf7a42a9b03ba30b4754921481306",
      "assetIds": [
        "55464657044963196816950587289035428064568320970692304673817341489687790884865",
        "55464657044963196816950587289035428064568320970692304673817341489687782494208",
        "55464657044963196816950587289035428064568320970692304673817341489687790884866",
        "55464657044963196816950587289035428064568320970692304673817341489687782494209",
        "55464657044963196816950587289035428064568320970692304673817341489687790884864"
      ]
    },
    {
      "x": 199,
      "y": 337,
      "size": 1,
      "price": "1011000000000000000000",
      "reserved": "",
      "salt": "0xeac4c8184f29bf2e204ffa5866d2c9e176aa4ca200835edcbf5406ecdbcdbaa7",
      "assetIds": []
    },
    {
      "x": 199,
      "y": 338,
      "size": 1,
      "price": "1011000000000000000000",
      "reserved": "",
      "salt": "0x5663d64ae56d112215fc65f4473f384b72d7269edb1c12af097c4ec5c743ce3f",
      "assetIds": []
    },
    {
      "x": 199,
      "y": 339,
      "size": 1,
      "price": "1011000000000000000000",
      "reserved": "",
      "salt": "0x43722824687e54c8c09672d7ed3c19a8cabd8725163b4b622a897aa787db8a67",
      "assetIds": []
    },
    {
      "x": 199,
      "y": 340,
      "size": 1,
      "price": "1011000000000000000000",
      "reserved": "",
      "salt": "0x3fae7d966b1b40b9d3792e270497aac895d3a9e0c7a1839e8a272d2e8b4529c1",
      "assetIds": []
    },
    {
      "x": 199,
      "y": 341,
      "size": 1,
      "price": "1011000000000000000000",
      "reserved": "",
      "salt": "0x20a322d4bbb48f233ed9dbe8be2215a231414f6109b2a11f50d02091d34239e6",
      "assetIds": []
    },
    {
      "x": 199,
      "y": 342,
      "size": 1,
      "price": "1011000000000000000000",
      "reserved": "",
      "salt": "0xb7b77455394943b36796291c5a2bcc2dc2e086bd26a9c2004b9046b05af8e6b1",
      "assetIds": []
    },
    {
      "x": 199,
      "y": 343,
      "size": 1,
      "price": "1011000000000000000000",
      "reserved": "",
      "salt": "0x3841c54b9bbe7737a75938c7c5058ca2916ba06af302aeb3a620625c3a7a263d",
      "assetIds": []
    },
    {
      "x": 199,
      "y": 344,
      "size": 1,
      "price": "1011000000000000000000",
      "reserved": "0x7a9fe22691c811ea339d9b73150e6911a5343dca",
      "salt": "0x67dc8691f7f90a202eb2355fcd8b87509d207428a3a97ad26f979f46fcf61b5c",
      "assetIds": []
    },
    {
      "x": 199,
      "y": 345,
      "size": 1,
      "price": "1011000000000000000000",
      "reserved": "",
      "salt": "0x50e869591c0f5c0dffaa817cb406b40adb0c4e02dca4750a5377bcb8ea06a774",
      "assetIds": []
    },
    {
      "x": 199,
      "y": 346,
      "size": 1,
      "price": "1011000000000000000000",
      "reserved": "",
      "salt": "0x6b9d8db4e82f2b13a0a4862038b4f7c744a48446eafd4d383bcb2447dea0e03c",
      "assetIds": []
    },
    {
      "x": 199,
      "y": 347,
      "size": 1,
      "price": "1011000000000000000000",
      "reserved": "",
      "salt": "0x66e87535bb4e1e7a627054a3ab228f5538879a48f64317bae2aee3da17213782",
      "assetIds": []
    },
    {
      "x": 199,
      "y": 348,
      "size": 1,
      "price": "1011000000000000000000",
      "reserved": "0x7a9fe22691c811ea339d9b73150e6911a5343dca",
      "salt": "0xd1485d37b9a7a656424ae45d649f69b3dc98a5d6c10867459e48e208b356bc6e",
      "assetIds": []
    },
    {
      "x": 199,
      "y": 349,
      "size": 1,
      "price": "1011000000000000000000",
      "reserved": "",
      "salt": "0xa2a5bd23323bd464e32b88bbbe9c4c32c0f0e93d680d81bf4d1ca17a7fefa41f",
      "assetIds": []
    },
    {
      "x": 199,
      "y": 350,
      "size": 1,
      "price": "1011000000000000000000",
      "reserved": "0x7a9fe22691c811ea339d9b73150e6911a5343dca",
      "salt": "0x3d0331926cac42e975828cf65faea88c3d2d0fcd8786b9e522e468b8a542ccf1",
      "assetIds": []
    },
    {
      "x": 200,
      "y": 336,
      "size": 1,
      "price": "4683000000000000000000",
      "reserved": "",
      "salt": "0xb036d3eff775e979d2e1020888b60a65cce9e6c97af9cfe874e915358ae2fc46",
      "assetIds": [
        "55464657044963196816950587289035428064568320970692304673817341489687790884865",
        "55464657044963196816950587289035428064568320970692304673817341489687782494208",
        "55464657044963196816950587289035428064568320970692304673817341489687790884866",
        "55464657044963196816950587289035428064568320970692304673817341489687782494209",
        "55464657044963196816950587289035428064568320970692304673817341489687790884864"
      ]
    },
    {
      "x": 200,
      "y": 337,
      "size": 1,
      "price": "1011000000000000000000",
      "reserved": "",
      "salt": "0x9106654c59908d41d10bca3bec5ce8c91b0f34b71a631148055a2f7178cf8a80",
      "assetIds": []
    },
    {
      "x": 200,
      "y": 338,
      "size": 1,
      "price": "1011000000000000000000",
      "reserved": "0x7a9fe22691c811ea339d9b73150e6911a5343dca",
      "salt": "0x43212e9882579d468f6b62b5d31eab2203a7278e6a16a7c03c5aa189c12f73f8",
      "assetIds": []
    },
    {
      "x": 200,
      "y": 339,
      "size": 1,
      "price": "1011000000000000000000",
      "reserved": "",
      "salt": "0xf515e6ce33108b5f0fc160e64147f2e53b4239806e0b1d0c4e1b59febd6f6600",
      "assetIds": []
    },
    {
      "x": 200,
      "y": 340,
      "size": 1,
      "price": "1011000000000000000000",
      "reserved": "0x7a9fe22691c811ea339d9b73150e6911a5343dca",
      "salt": "0xa9abfbd8c1dd5f0fe6b3c1e328c8e544e4837fdca72aba8401a289307633e111",
      "assetIds": []
    },
    {
      "x": 200,
      "y": 341,
      "size": 1,
      "price": "1011000000000000000000",
      "reserved": "",
      "salt": "0x6bcefcebfaa3669e52a40d94e167e9b1f60314c09e5de82672297b3b9997eecf",
      "assetIds": []
    },
    {
      "x": 200,
      "y": 342,
      "size": 1,
      "price": "1011000000000000000000",
      "reserved": "0x7a9fe22691c811ea339d9b73150e6911a5343dca",
      "salt": "0xcbf2e2f8e11bef44d11179b74d2b5e8a81742857351ea19b408a18ef5cb3df06",
      "assetIds": []
    },
    {
      "x": 200,
      "y": 343,
      "size": 1,
      "price": "1011000000000000000000",
      "reserved": "",
      "salt": "0xedf0221e4a75484ca5228e8747612fbfe9263184aa9ec7cb42121f5022b5e742",
      "assetIds": []
    },
    {
      "x": 200,
      "y": 344,
      "size": 1,
      "price": "1011000000000000000000",
      "reserved": "",
      "salt": "0xb2df4f0625c1331d537a945ac58fdc54bae930af0c8f342c22d6408bb47a02f4",
      "assetIds": []
    },
    {
      "x": 200,
      "y": 345,
      "size": 1,
      "price": "1011000000000000000000",
      "reserved": "",
      "salt": "0xa6891b50749bb0362fd2bace7e39ede96aa1f8a05fa2cc3cabf754aacfd50675",
      "assetIds": []
    },
    {
      "x": 200,
      "y": 346,
      "size": 1,
      "price": "1011000000000000000000",
      "reserved": "",
      "salt": "0x1a8b487652136f78586ccb73eace4035b60f7904987f6e2d59a80db9ce1df9a3",
      "assetIds": []
    },
    {
      "x": 200,
      "y": 347,
      "size": 1,
      "price": "1011000000000000000000",
      "reserved": "",
      "salt": "0x2987106000e2795f2606e3a21a93be74fa45bd07cdd250dcabcae0094a914159",
      "assetIds": []
    },
    {
      "x": 200,
      "y": 348,
      "size": 1,
      "price": "1011000000000000000000",
      "reserved": "",
      "salt": "0x846031d997d8ad7d2b06469a78ed16a579f118d0d178b4125d2062d558f0c692",
      "assetIds": []
    },
    {
      "x": 200,
      "y": 349,
      "size": 1,
      "price": "1011000000000000000000",
      "reserved": "",
      "salt": "0x845d910ab9cec59b89be4a4e7ae8287ce4f27bb65404dd270e339d36215053d2",
      "assetIds": []
    },
    {
      "x": 200,
      "y": 350,
      "size": 1,
      "price": "1011000000000000000000",
      "reserved": "",
      "salt": "0xf39fc244f0b3d5110939facbf8c14d3914398fd7bef17edd791acc74e7232bf9",
      "assetIds": []
    },
    {
      "x": 201,
      "y": 336,
      "size": 1,
      "price": "4683000000000000000000",
      "reserved": "",
      "salt": "0x12e9165a4c7b0e4fe0c54be0a29f0115198a43d10ee22227369755cf81de6281",
      "assetIds": [
        "55464657044963196816950587289035428064568320970692304673817341489687790884865",
        "55464657044963196816950587289035428064568320970692304673817341489687782494208",
        "55464657044963196816950587289035428064568320970692304673817341489687790884866",
        "55464657044963196816950587289035428064568320970692304673817341489687782494209",
        "55464657044963196816950587289035428064568320970692304673817341489687790884864"
      ]
    },
    {
      "x": 201,
      "y": 337,
      "size": 1,
      "price": "4683000000000000000000",
      "reserved": "",
      "salt": "0x900e788171a0fd9b27c0da29fc9d37603d07fc11326d7b4ca7534283e4fd94b4",
      "assetIds": [
        "55464657044963196816950587289035428064568320970692304673817341489687790884865",
        "55464657044963196816950587289035428064568320970692304673817341489687782494208",
        "55464657044963196816950587289035428064568320970692304673817341489687790884866",
        "55464657044963196816950587289035428064568320970692304673817341489687782494209",
        "55464657044963196816950587289035428064568320970692304673817341489687790884864"
      ]
    },
    {
      "x": 201,
      "y": 338,
      "size": 1,
      "price": "1011000000000000000000",
      "reserved": "",
      "salt": "0xe06cd982524444f3e69c3cf95c85e6362221ed89a141d1f2483d55a79fb6a59e",
      "assetIds": []
    },
    {
      "x": 201,
      "y": 339,
      "size": 1,
      "price": "1011000000000000000000",
      "reserved": "",
      "salt": "0x337a401756180a9048c6d989d4e95dec97a1dcdc6b10d827e14255d796928602",
      "assetIds": []
    },
    {
      "x": 201,
      "y": 340,
      "size": 1,
      "price": "1011000000000000000000",
      "reserved": "",
      "salt": "0xf1fcad66b38071e2d2d567434076fc4fc8e695c4432d5bc49f16b70de404c836",
      "assetIds": []
    },
    {
      "x": 201,
      "y": 341,
      "size": 1,
      "price": "4683000000000000000000",
      "reserved": "",
      "salt": "0x7238e991595617738924d5a5527eb9f2fa9c8349d1f91c64e0b7f0092059951b",
      "assetIds": [
        "55464657044963196816950587289035428064568320970692304673817341489687790884865",
        "55464657044963196816950587289035428064568320970692304673817341489687782494208",
        "55464657044963196816950587289035428064568320970692304673817341489687790884866",
        "55464657044963196816950587289035428064568320970692304673817341489687782494209",
        "55464657044963196816950587289035428064568320970692304673817341489687790884864"
      ]
    },
    {
      "x": 201,
      "y": 345,
      "size": 1,
      "price": "1011000000000000000000",
      "reserved": "",
      "salt": "0xd6c708b0f17129a679be0f8c179f51fbf713d2e0906afa584ff3a72d061b5946",
      "assetIds": []
    },
    {
      "x": 201,
      "y": 346,
      "size": 1,
      "price": "1011000000000000000000",
      "reserved": "",
      "salt": "0xd3e4eb3f3fd702a69388ef01b558d58b792019f3a4534f76d49dc07fb7fb28d7",
      "assetIds": []
    },
    {
      "x": 201,
      "y": 347,
      "size": 1,
      "price": "1011000000000000000000",
      "reserved": "0x7a9fe22691c811ea339d9b73150e6911a5343dca",
      "salt": "0x636b3db9daadfe9ad68867fad669be7ec2cef49d95425746d185b2e1a6048f39",
      "assetIds": []
    },
    {
      "x": 201,
      "y": 348,
      "size": 1,
      "price": "4683000000000000000000",
      "reserved": "",
      "salt": "0x548d6c5f6dc990861da467be43f97fd6a34a9ffa004fc3c865703c6a64710cd4",
      "assetIds": [
        "55464657044963196816950587289035428064568320970692304673817341489687790884865",
        "55464657044963196816950587289035428064568320970692304673817341489687782494208",
        "55464657044963196816950587289035428064568320970692304673817341489687790884866",
        "55464657044963196816950587289035428064568320970692304673817341489687782494209",
        "55464657044963196816950587289035428064568320970692304673817341489687790884864"
      ]
    },
    {
      "x": 201,
      "y": 349,
      "size": 1,
      "price": "1011000000000000000000",
      "reserved": "",
      "salt": "0x1afc36523f4f61956a18a364ea0875a5892ad3cf74f85c408fdad661c3185090",
      "assetIds": []
    },
    {
      "x": 201,
      "y": 350,
      "size": 1,
      "price": "1011000000000000000000",
      "reserved": "",
      "salt": "0xd96149c330a4797b50b94185b8588442c65ff1a773f398fe146d7ebefd43f3e0",
      "assetIds": []
    },
    {
      "x": 202,
      "y": 336,
      "size": 1,
      "price": "4683000000000000000000",
      "reserved": "",
      "salt": "0x28bf9afca1336f33aacc1c590a567f1fd18be65777a523f99e20bc669c944078",
      "assetIds": [
        "55464657044963196816950587289035428064568320970692304673817341489687790884865",
        "55464657044963196816950587289035428064568320970692304673817341489687782494208",
        "55464657044963196816950587289035428064568320970692304673817341489687790884866",
        "55464657044963196816950587289035428064568320970692304673817341489687782494209",
        "55464657044963196816950587289035428064568320970692304673817341489687790884864"
      ]
    },
    {
      "x": 202,
      "y": 337,
      "size": 1,
      "price": "1011000000000000000000",
      "reserved": "",
      "salt": "0xae821e6e3b4a61fc294afb92b3f5de1c29a529ee5c5b4291342cf988c72165be",
      "assetIds": []
    },
    {
      "x": 202,
      "y": 338,
      "size": 1,
      "price": "1011000000000000000000",
      "reserved": "0x7a9fe22691c811ea339d9b73150e6911a5343dca",
      "salt": "0x69ec226f85136a44139295c28f5c36402fd7d9d844a7e1a93814c788db28d9da",
      "assetIds": []
    },
    {
      "x": 202,
      "y": 339,
      "size": 1,
      "price": "1011000000000000000000",
      "reserved": "",
      "salt": "0x8b113820b2b545d50e7d30f6040496c860a833e61b1033aa2ef68f29fa182a8c",
      "assetIds": []
    },
    {
      "x": 202,
      "y": 340,
      "size": 1,
      "price": "1011000000000000000000",
      "reserved": "",
      "salt": "0x537fc9e6cf7b8ba61b9e6ee86707fcab5eed01ad9b346f37aa33c0186d9ffbf9",
      "assetIds": []
    },
    {
      "x": 202,
      "y": 341,
      "size": 1,
      "price": "4683000000000000000000",
      "reserved": "",
      "salt": "0x9364e5e6a6fb3c9c90f4a52eeec46a12d7ea0e23064a472568a53bb592e0b9ff",
      "assetIds": [
        "55464657044963196816950587289035428064568320970692304673817341489687790884865",
        "55464657044963196816950587289035428064568320970692304673817341489687782494208",
        "55464657044963196816950587289035428064568320970692304673817341489687790884866",
        "55464657044963196816950587289035428064568320970692304673817341489687782494209",
        "55464657044963196816950587289035428064568320970692304673817341489687790884864"
      ]
    },
    {
      "x": 202,
      "y": 345,
      "size": 1,
      "price": "4683000000000000000000",
      "reserved": "",
      "salt": "0x6681c817393f133536528181cd5ef05f6bd1b2b321a0690952f4587bf6729b66",
      "assetIds": [
        "55464657044963196816950587289035428064568320970692304673817341489687790884865",
        "55464657044963196816950587289035428064568320970692304673817341489687782494208",
        "55464657044963196816950587289035428064568320970692304673817341489687790884866",
        "55464657044963196816950587289035428064568320970692304673817341489687782494209",
        "55464657044963196816950587289035428064568320970692304673817341489687790884864"
      ]
    },
    {
      "x": 202,
      "y": 346,
      "size": 1,
      "price": "4683000000000000000000",
      "reserved": "",
      "salt": "0xc120ee63d3a83a2d4e2f69f0d1edf6eea367c8414abb4e590042ae9504302f83",
      "assetIds": [
        "55464657044963196816950587289035428064568320970692304673817341489687790884865",
        "55464657044963196816950587289035428064568320970692304673817341489687782494208",
        "55464657044963196816950587289035428064568320970692304673817341489687790884866",
        "55464657044963196816950587289035428064568320970692304673817341489687782494209",
        "55464657044963196816950587289035428064568320970692304673817341489687790884864"
      ]
    },
    {
      "x": 202,
      "y": 347,
      "size": 1,
      "price": "4683000000000000000000",
      "reserved": "",
      "salt": "0x330b96f8a458aeaa25f844abac5ba62bc416ed9f0742e3491d7e0e6f2684679f",
      "assetIds": [
        "55464657044963196816950587289035428064568320970692304673817341489687790884865",
        "55464657044963196816950587289035428064568320970692304673817341489687782494208",
        "55464657044963196816950587289035428064568320970692304673817341489687790884866",
        "55464657044963196816950587289035428064568320970692304673817341489687782494209",
        "55464657044963196816950587289035428064568320970692304673817341489687790884864"
      ]
    },
    {
      "x": 202,
      "y": 348,
      "size": 1,
      "price": "4683000000000000000000",
      "reserved": "",
      "salt": "0x2be9e428a1a44f6321d7e8583f4115675257a834aa5422ec2331c5b79f8cc9ae",
      "assetIds": [
        "55464657044963196816950587289035428064568320970692304673817341489687790884865",
        "55464657044963196816950587289035428064568320970692304673817341489687782494208",
        "55464657044963196816950587289035428064568320970692304673817341489687790884866",
        "55464657044963196816950587289035428064568320970692304673817341489687782494209",
        "55464657044963196816950587289035428064568320970692304673817341489687790884864"
      ]
    },
    {
      "x": 202,
      "y": 349,
      "size": 1,
      "price": "1011000000000000000000",
      "reserved": "",
      "salt": "0x13bca499d6465d5c87e14664711b7aa543b829180e0e4a847f996943cb963849",
      "assetIds": []
    },
    {
      "x": 202,
      "y": 350,
      "size": 1,
      "price": "1011000000000000000000",
      "reserved": "0x7a9fe22691c811ea339d9b73150e6911a5343dca",
      "salt": "0xed304656c708cabf4f218de2c702f4a5ed4f88a18bd0d89a36a5158bd3a27ffb",
      "assetIds": []
    },
    {
      "x": 203,
      "y": 336,
      "size": 1,
      "price": "4683000000000000000000",
      "reserved": "",
      "salt": "0x2657dde4cfc1e0ff709d3d44e9e133cd62ccc619ea9628a6a4c6626f48b64362",
      "assetIds": [
        "55464657044963196816950587289035428064568320970692304673817341489687790884865",
        "55464657044963196816950587289035428064568320970692304673817341489687782494208",
        "55464657044963196816950587289035428064568320970692304673817341489687790884866",
        "55464657044963196816950587289035428064568320970692304673817341489687782494209",
        "55464657044963196816950587289035428064568320970692304673817341489687790884864"
      ]
    },
    {
      "x": 203,
      "y": 337,
      "size": 1,
      "price": "1011000000000000000000",
      "reserved": "0x7a9fe22691c811ea339d9b73150e6911a5343dca",
      "salt": "0x0289e7aae785f3731e63833fb713c2152a90d3f748a44b455bb74d9d0ee08b2a",
      "assetIds": []
    },
    {
      "x": 203,
      "y": 338,
      "size": 1,
      "price": "4683000000000000000000",
      "reserved": "",
      "salt": "0x837389d93ba013f6eba1c623bda8f523d7518310374a305a7b402c8531dc58b0",
      "assetIds": [
        "55464657044963196816950587289035428064568320970692304673817341489687790884865",
        "55464657044963196816950587289035428064568320970692304673817341489687782494208",
        "55464657044963196816950587289035428064568320970692304673817341489687790884866",
        "55464657044963196816950587289035428064568320970692304673817341489687782494209",
        "55464657044963196816950587289035428064568320970692304673817341489687790884864"
      ]
    },
    {
      "x": 203,
      "y": 339,
      "size": 1,
      "price": "1011000000000000000000",
      "reserved": "",
      "salt": "0xc38a1f1688f2bc1e02a98a5b0a1cd7c78bd54549d95a73a08757fad03178eac3",
      "assetIds": []
    },
    {
      "x": 203,
      "y": 340,
      "size": 1,
      "price": "1011000000000000000000",
      "reserved": "",
      "salt": "0x10696b50157a4a2f2548b45edc533128068d61ebd9e167c800bbefdcb119d816",
      "assetIds": []
    },
    {
      "x": 203,
      "y": 341,
      "size": 1,
      "price": "4683000000000000000000",
      "reserved": "",
      "salt": "0x8297a8da76ba5ea641da4d4edcca18451d5362e2e8e4220788deed3d32c73665",
      "assetIds": [
        "55464657044963196816950587289035428064568320970692304673817341489687790884865",
        "55464657044963196816950587289035428064568320970692304673817341489687782494208",
        "55464657044963196816950587289035428064568320970692304673817341489687790884866",
        "55464657044963196816950587289035428064568320970692304673817341489687782494209",
        "55464657044963196816950587289035428064568320970692304673817341489687790884864"
      ]
    },
    {
      "x": 203,
      "y": 345,
      "size": 1,
      "price": "1011000000000000000000",
      "reserved": "0x7a9fe22691c811ea339d9b73150e6911a5343dca",
      "salt": "0xde5b9385a0457029bdbe2fef44b6b16dc3b8e84c5d9f78e8cb6e0e02e953313a",
      "assetIds": []
    },
    {
      "x": 203,
      "y": 346,
      "size": 1,
      "price": "4683000000000000000000",
      "reserved": "",
      "salt": "0xcf8d1d20d3e9ed899427d9f9d85a408e9949825167f279bc5c5b69a81cb05ee9",
      "assetIds": [
        "55464657044963196816950587289035428064568320970692304673817341489687790884865",
        "55464657044963196816950587289035428064568320970692304673817341489687782494208",
        "55464657044963196816950587289035428064568320970692304673817341489687790884866",
        "55464657044963196816950587289035428064568320970692304673817341489687782494209",
        "55464657044963196816950587289035428064568320970692304673817341489687790884864"
      ]
    },
    {
      "x": 203,
      "y": 347,
      "size": 1,
      "price": "4683000000000000000000",
      "reserved": "",
      "salt": "0xc9ac63d7ced6bcb502cfc5a52ab533ce26fad91ed08e0b02c794e75980c6a27d",
      "assetIds": [
        "55464657044963196816950587289035428064568320970692304673817341489687790884865",
        "55464657044963196816950587289035428064568320970692304673817341489687782494208",
        "55464657044963196816950587289035428064568320970692304673817341489687790884866",
        "55464657044963196816950587289035428064568320970692304673817341489687782494209",
        "55464657044963196816950587289035428064568320970692304673817341489687790884864"
      ]
    },
    {
      "x": 203,
      "y": 348,
      "size": 1,
      "price": "1011000000000000000000",
      "reserved": "0x7a9fe22691c811ea339d9b73150e6911a5343dca",
      "salt": "0xe02b50bc07f0c192dc4f5af2580ada1ff0ba9420379b90adef04cf11e98d7aa7",
      "assetIds": []
    },
    {
      "x": 203,
      "y": 349,
      "size": 1,
      "price": "1011000000000000000000",
      "reserved": "",
      "salt": "0x9aaf9d365ad577905b80935ea9436aa92899c633726ac62d0fa12e68b089568f",
      "assetIds": []
    },
    {
      "x": 203,
      "y": 350,
      "size": 1,
      "price": "1011000000000000000000",
      "reserved": "",
      "salt": "0xa471b02d001fa30982b745dce9ab9e216b7db7b53a973f5bef52dd21a6312997",
      "assetIds": []
    },
    {
      "x": 204,
      "y": 336,
      "size": 1,
      "price": "4683000000000000000000",
      "reserved": "",
      "salt": "0xbfff17208fd1dc279afdd54e42b130739d4608ffaf848adb55351db5034979a4",
      "assetIds": [
        "55464657044963196816950587289035428064568320970692304673817341489687790884865",
        "55464657044963196816950587289035428064568320970692304673817341489687782494208",
        "55464657044963196816950587289035428064568320970692304673817341489687790884866",
        "55464657044963196816950587289035428064568320970692304673817341489687782494209",
        "55464657044963196816950587289035428064568320970692304673817341489687790884864"
      ]
    },
    {
      "x": 204,
      "y": 337,
      "size": 1,
      "price": "4683000000000000000000",
      "reserved": "",
      "salt": "0x7e0bec02591f08ac9052a0c1ae6faff25c3f9995021b095ee58af53e274a8c98",
      "assetIds": [
        "55464657044963196816950587289035428064568320970692304673817341489687790884865",
        "55464657044963196816950587289035428064568320970692304673817341489687782494208",
        "55464657044963196816950587289035428064568320970692304673817341489687790884866",
        "55464657044963196816950587289035428064568320970692304673817341489687782494209",
        "55464657044963196816950587289035428064568320970692304673817341489687790884864"
      ]
    },
    {
      "x": 204,
      "y": 338,
      "size": 1,
      "price": "1011000000000000000000",
      "reserved": "0x7a9fe22691c811ea339d9b73150e6911a5343dca",
      "salt": "0x8ac07a0170608bc182ea7d0d2fd351bd5ce328597328ccccbea7f053822e7640",
      "assetIds": []
    },
    {
      "x": 204,
      "y": 339,
      "size": 1,
      "price": "1011000000000000000000",
      "reserved": "",
      "salt": "0x0d5f05ba69c5dc713d74d8c29af32be58d6d0cc9172347a7c25bc55b14aab4b6",
      "assetIds": []
    },
    {
      "x": 204,
      "y": 340,
      "size": 1,
      "price": "1011000000000000000000",
      "reserved": "",
      "salt": "0xbce6914286bd5f46addc7a8395faf28af60f0eb0d31a15c40927ce84c1c8d120",
      "assetIds": []
    },
    {
      "x": 204,
      "y": 341,
      "size": 1,
      "price": "4683000000000000000000",
      "reserved": "",
      "salt": "0xfb191ae7d74b63857363e8f3d3250732781f0a2b3edf1986d493d39e21647ab6",
      "assetIds": [
        "55464657044963196816950587289035428064568320970692304673817341489687790884865",
        "55464657044963196816950587289035428064568320970692304673817341489687782494208",
        "55464657044963196816950587289035428064568320970692304673817341489687790884866",
        "55464657044963196816950587289035428064568320970692304673817341489687782494209",
        "55464657044963196816950587289035428064568320970692304673817341489687790884864"
      ]
    },
    {
      "x": 204,
      "y": 348,
      "size": 1,
      "price": "4683000000000000000000",
      "reserved": "",
      "salt": "0x2317c0a37a22ffa786fcd806bb44c5040ca4e41dfc96f423932e8cc9dcd204f4",
      "assetIds": [
        "55464657044963196816950587289035428064568320970692304673817341489687790884865",
        "55464657044963196816950587289035428064568320970692304673817341489687782494208",
        "55464657044963196816950587289035428064568320970692304673817341489687790884866",
        "55464657044963196816950587289035428064568320970692304673817341489687782494209",
        "55464657044963196816950587289035428064568320970692304673817341489687790884864"
      ]
    },
    {
      "x": 204,
      "y": 349,
      "size": 1,
      "price": "1011000000000000000000",
      "reserved": "",
      "salt": "0xe9a90794c4f4cb284e056eae1ec68fe21a6ed54f2e22afcf449e50c6a69f60ff",
      "assetIds": []
    },
    {
      "x": 204,
      "y": 350,
      "size": 1,
      "price": "1011000000000000000000",
      "reserved": "0x7a9fe22691c811ea339d9b73150e6911a5343dca",
      "salt": "0x190cc5f8a91b9daffec1dfa9d976f51e925563b42821eb5cc85b974b0f79c429",
      "assetIds": []
    },
    {
      "x": 205,
      "y": 336,
      "size": 1,
      "price": "4683000000000000000000",
      "reserved": "",
      "salt": "0x1ebaae41c0f58a4ab139c13d71648e0d04268b6eef8171e85f64be13a0f432a2",
      "assetIds": [
        "55464657044963196816950587289035428064568320970692304673817341489687790884865",
        "55464657044963196816950587289035428064568320970692304673817341489687782494208",
        "55464657044963196816950587289035428064568320970692304673817341489687790884866",
        "55464657044963196816950587289035428064568320970692304673817341489687782494209",
        "55464657044963196816950587289035428064568320970692304673817341489687790884864"
      ]
    },
    {
      "x": 205,
      "y": 337,
      "size": 1,
      "price": "4683000000000000000000",
      "reserved": "",
      "salt": "0x5d8716a9dee4a2ed2ad1e30c17c8633499168f967eadee3a12b5b2856587ebcf",
      "assetIds": [
        "55464657044963196816950587289035428064568320970692304673817341489687790884865",
        "55464657044963196816950587289035428064568320970692304673817341489687782494208",
        "55464657044963196816950587289035428064568320970692304673817341489687790884866",
        "55464657044963196816950587289035428064568320970692304673817341489687782494209",
        "55464657044963196816950587289035428064568320970692304673817341489687790884864"
      ]
    },
    {
      "x": 205,
      "y": 338,
      "size": 1,
      "price": "1011000000000000000000",
      "reserved": "",
      "salt": "0x3074c466b1663efb4ff6fb9cdfde994f8541f8464224c5f2b81c36f22dea2ea7",
      "assetIds": []
    },
    {
      "x": 205,
      "y": 339,
      "size": 1,
      "price": "1011000000000000000000",
      "reserved": "",
      "salt": "0xbd9df523d4044f3694e0d1598f2e2800d4d1bb8030b3f11e7866238394cf82cc",
      "assetIds": []
    },
    {
      "x": 205,
      "y": 340,
      "size": 1,
      "price": "1011000000000000000000",
      "reserved": "",
      "salt": "0x53580a3e842c056d96c6df1cd67aa6033a8c547a100e83ed94b3b8b18fe8038b",
      "assetIds": []
    },
    {
      "x": 205,
      "y": 341,
      "size": 1,
      "price": "4683000000000000000000",
      "reserved": "",
      "salt": "0x2f61c2845f96567613ca6214258b40c5ea225ae4f66f32d404f972ba5e1dc7d4",
      "assetIds": [
        "55464657044963196816950587289035428064568320970692304673817341489687790884865",
        "55464657044963196816950587289035428064568320970692304673817341489687782494208",
        "55464657044963196816950587289035428064568320970692304673817341489687790884866",
        "55464657044963196816950587289035428064568320970692304673817341489687782494209",
        "55464657044963196816950587289035428064568320970692304673817341489687790884864"
      ]
    },
    {
      "x": 205,
      "y": 348,
      "size": 1,
      "price": "4683000000000000000000",
      "reserved": "",
      "salt": "0x023a1f6df18f0e37030e88f011fc26d55b777ceb5b58e58700380a3f6904ae7c",
      "assetIds": [
        "55464657044963196816950587289035428064568320970692304673817341489687790884865",
        "55464657044963196816950587289035428064568320970692304673817341489687782494208",
        "55464657044963196816950587289035428064568320970692304673817341489687790884866",
        "55464657044963196816950587289035428064568320970692304673817341489687782494209",
        "55464657044963196816950587289035428064568320970692304673817341489687790884864"
      ]
    },
    {
      "x": 205,
      "y": 349,
      "size": 1,
      "price": "1011000000000000000000",
      "reserved": "",
      "salt": "0x165376d5885cbb89f757f5863afaa4f50a38bb285da2d3657941ea3eccef05b3",
      "assetIds": []
    },
    {
      "x": 205,
      "y": 350,
      "size": 1,
      "price": "1011000000000000000000",
      "reserved": "",
      "salt": "0xfa5025838593f3ed7c90a83fb4485d393f5a9f02cefa2d7165303b699741e637",
      "assetIds": []
    },
    {
      "x": 206,
      "y": 336,
      "size": 1,
      "price": "4683000000000000000000",
      "reserved": "",
      "salt": "0xea431586c7e941fb518033ea1421ff13326fc9672dea15a1ed012efd1e6b14e1",
      "assetIds": [
        "55464657044963196816950587289035428064568320970692304673817341489687790884865",
        "55464657044963196816950587289035428064568320970692304673817341489687782494208",
        "55464657044963196816950587289035428064568320970692304673817341489687790884866",
        "55464657044963196816950587289035428064568320970692304673817341489687782494209",
        "55464657044963196816950587289035428064568320970692304673817341489687790884864"
      ]
    },
    {
      "x": 206,
      "y": 337,
      "size": 1,
      "price": "4683000000000000000000",
      "reserved": "",
      "salt": "0xa58cb6eb4868c58407e57af4de7967f86905bb4d13f877e5226c300f0ca6cce6",
      "assetIds": [
        "55464657044963196816950587289035428064568320970692304673817341489687790884865",
        "55464657044963196816950587289035428064568320970692304673817341489687782494208",
        "55464657044963196816950587289035428064568320970692304673817341489687790884866",
        "55464657044963196816950587289035428064568320970692304673817341489687782494209",
        "55464657044963196816950587289035428064568320970692304673817341489687790884864"
      ]
    },
    {
      "x": 206,
      "y": 338,
      "size": 1,
      "price": "1011000000000000000000",
      "reserved": "",
      "salt": "0xa736f4d1ec0cc358d3c6f80a0c916aa05eb2a3bcf4bd47ee8850d97f1ffa76ff",
      "assetIds": []
    },
    {
      "x": 206,
      "y": 339,
      "size": 1,
      "price": "1011000000000000000000",
      "reserved": "0x7a9fe22691c811ea339d9b73150e6911a5343dca",
      "salt": "0xfa0f27872df90e79edebc8a947e5ae23eb38b33051a4814070ec884d77d502c6",
      "assetIds": []
    },
    {
      "x": 206,
      "y": 340,
      "size": 1,
      "price": "1011000000000000000000",
      "reserved": "",
      "salt": "0x51c5a184be32655a4b41402302ef67895bc81bbcf200f1f467f81a73a9aff74f",
      "assetIds": []
    },
    {
      "x": 206,
      "y": 341,
      "size": 1,
      "price": "4683000000000000000000",
      "reserved": "",
      "salt": "0x854e4b28f6ca0df26e94a06ed20ad58dfe24a7c2699bacc6802b34e7d8c7d6c2",
      "assetIds": [
        "55464657044963196816950587289035428064568320970692304673817341489687790884865",
        "55464657044963196816950587289035428064568320970692304673817341489687782494208",
        "55464657044963196816950587289035428064568320970692304673817341489687790884866",
        "55464657044963196816950587289035428064568320970692304673817341489687782494209",
        "55464657044963196816950587289035428064568320970692304673817341489687790884864"
      ]
    },
    {
      "x": 206,
      "y": 348,
      "size": 1,
      "price": "4683000000000000000000",
      "reserved": "",
      "salt": "0x9b1abe3217c31e5f3eba78741ef6cce42c5fbb2e7889514f7f1ee671fbe8a911",
      "assetIds": [
        "55464657044963196816950587289035428064568320970692304673817341489687790884865",
        "55464657044963196816950587289035428064568320970692304673817341489687782494208",
        "55464657044963196816950587289035428064568320970692304673817341489687790884866",
        "55464657044963196816950587289035428064568320970692304673817341489687782494209",
        "55464657044963196816950587289035428064568320970692304673817341489687790884864"
      ]
    },
    {
      "x": 206,
      "y": 349,
      "size": 1,
      "price": "1011000000000000000000",
      "reserved": "",
      "salt": "0xe4db2931546ae842ac497c2cb2bd674daa6254d704c080fda34c3b66e4ffc591",
      "assetIds": []
    },
    {
      "x": 206,
      "y": 350,
      "size": 1,
      "price": "1011000000000000000000",
      "reserved": "",
      "salt": "0x5bc06273311aff01e0456420619528eb6ce24e890592af345318d1ad8ef2a077",
      "assetIds": []
    },
    {
      "x": 207,
      "y": 336,
      "size": 1,
      "price": "4683000000000000000000",
      "reserved": "",
      "salt": "0xa30bbaced0a6102874e52afa1a1004724292eaa99594431784ae7b36e34924b2",
      "assetIds": [
        "55464657044963196816950587289035428064568320970692304673817341489687790884865",
        "55464657044963196816950587289035428064568320970692304673817341489687782494208",
        "55464657044963196816950587289035428064568320970692304673817341489687790884866",
        "55464657044963196816950587289035428064568320970692304673817341489687782494209",
        "55464657044963196816950587289035428064568320970692304673817341489687790884864"
      ]
    },
    {
      "x": 207,
      "y": 337,
      "size": 1,
      "price": "1011000000000000000000",
      "reserved": "0x7a9fe22691c811ea339d9b73150e6911a5343dca",
      "salt": "0xf8661bb3c89a6d17d52c4290e2884362cef54ddd151eeaa989ac61b92f4ab29a",
      "assetIds": []
    },
    {
      "x": 207,
      "y": 338,
      "size": 1,
      "price": "1011000000000000000000",
      "reserved": "",
      "salt": "0x79e268c5904996675c38245b83c30201daba3cbf00096475d8e9a42ed84494e5",
      "assetIds": []
    },
    {
      "x": 207,
      "y": 339,
      "size": 1,
      "price": "1011000000000000000000",
      "reserved": "",
      "salt": "0x35e3a72d41a64bfe2befce49391bec948bca693c0a83b2930bf90aa1f19a9b98",
      "assetIds": []
    },
    {
      "x": 207,
      "y": 340,
      "size": 1,
      "price": "1011000000000000000000",
      "reserved": "",
      "salt": "0xd28ad07f7b4bff5dc404859a4af2e9e38e9e561ed463642f33798ebf29dc5975",
      "assetIds": []
    },
    {
      "x": 207,
      "y": 341,
      "size": 1,
      "price": "4683000000000000000000",
      "reserved": "",
      "salt": "0xe0ecad4d6495de18fe5012c4f5ad939747f3752f0debae483033c6d89f7eb1a1",
      "assetIds": [
        "55464657044963196816950587289035428064568320970692304673817341489687790884865",
        "55464657044963196816950587289035428064568320970692304673817341489687782494208",
        "55464657044963196816950587289035428064568320970692304673817341489687790884866",
        "55464657044963196816950587289035428064568320970692304673817341489687782494209",
        "55464657044963196816950587289035428064568320970692304673817341489687790884864"
      ]
    },
    {
      "x": 207,
      "y": 348,
      "size": 1,
      "price": "4683000000000000000000",
      "reserved": "",
      "salt": "0x105d615841e0ead08740498516495778224ff5d7dd4c4ada7940fb05a9bf139d",
      "assetIds": [
        "55464657044963196816950587289035428064568320970692304673817341489687790884865",
        "55464657044963196816950587289035428064568320970692304673817341489687782494208",
        "55464657044963196816950587289035428064568320970692304673817341489687790884866",
        "55464657044963196816950587289035428064568320970692304673817341489687782494209",
        "55464657044963196816950587289035428064568320970692304673817341489687790884864"
      ]
    },
    {
      "x": 207,
      "y": 349,
      "size": 1,
      "price": "1011000000000000000000",
      "reserved": "",
      "salt": "0xc4b6e78098a0a66dd8f5f3ab4fb0a1334aa63f8da92196e4fc1baba223f8febc",
      "assetIds": []
    },
    {
      "x": 207,
      "y": 350,
      "size": 1,
      "price": "1011000000000000000000",
      "reserved": "",
      "salt": "0x3d9574981404896733555586e09c032cae96cff28c43623cfd99309f98beb0ff",
      "assetIds": []
    },
    {
      "x": 208,
      "y": 336,
      "size": 1,
      "price": "4683000000000000000000",
      "reserved": "",
      "salt": "0x7e7a45267715bd6b8b98ba836c0b190f5560a11d096a6f909737c4e52726064c",
      "assetIds": [
        "55464657044963196816950587289035428064568320970692304673817341489687790884865",
        "55464657044963196816950587289035428064568320970692304673817341489687782494208",
        "55464657044963196816950587289035428064568320970692304673817341489687790884866",
        "55464657044963196816950587289035428064568320970692304673817341489687782494209",
        "55464657044963196816950587289035428064568320970692304673817341489687790884864"
      ]
    },
    {
      "x": 208,
      "y": 337,
      "size": 1,
      "price": "1011000000000000000000",
      "reserved": "0x7a9fe22691c811ea339d9b73150e6911a5343dca",
      "salt": "0x9b31c7b444fe80d626be33bc910954e6f6af6d963e2cbf76cd6a5ba4bb8cabae",
      "assetIds": []
    },
    {
      "x": 208,
      "y": 338,
      "size": 1,
      "price": "1011000000000000000000",
      "reserved": "",
      "salt": "0xd86ce0932114bb1209a2c6247535ce163fc888c31295047555659533e952f196",
      "assetIds": []
    },
    {
      "x": 208,
      "y": 339,
      "size": 1,
      "price": "1011000000000000000000",
      "reserved": "",
      "salt": "0x9ee3bcfd93c7baeef2073b11e12913512ed980c842a7df07169ebb9266ff8dec",
      "assetIds": []
    },
    {
      "x": 208,
      "y": 340,
      "size": 1,
      "price": "1011000000000000000000",
      "reserved": "",
      "salt": "0xb47075fba8cec92c322b6e81f7a7aad7073f569f4604fbf6f467980c8f074d5f",
      "assetIds": []
    },
    {
      "x": 208,
      "y": 341,
      "size": 1,
      "price": "4683000000000000000000",
      "reserved": "",
      "salt": "0x00ac4efc8024f38dd8626c65453aa54eeaae4f1dc4881cc29af2af3e6343fc21",
      "assetIds": [
        "55464657044963196816950587289035428064568320970692304673817341489687790884865",
        "55464657044963196816950587289035428064568320970692304673817341489687782494208",
        "55464657044963196816950587289035428064568320970692304673817341489687790884866",
        "55464657044963196816950587289035428064568320970692304673817341489687782494209",
        "55464657044963196816950587289035428064568320970692304673817341489687790884864"
      ]
    },
    {
      "x": 208,
      "y": 348,
      "size": 1,
      "price": "4683000000000000000000",
      "reserved": "",
      "salt": "0x1a670719d881e3b8a7b0734e2a6f91449ac515d064018bcdca87ae04d8cd8f1b",
      "assetIds": [
        "55464657044963196816950587289035428064568320970692304673817341489687790884865",
        "55464657044963196816950587289035428064568320970692304673817341489687782494208",
        "55464657044963196816950587289035428064568320970692304673817341489687790884866",
        "55464657044963196816950587289035428064568320970692304673817341489687782494209",
        "55464657044963196816950587289035428064568320970692304673817341489687790884864"
      ]
    },
    {
      "x": 208,
      "y": 349,
      "size": 1,
      "price": "1011000000000000000000",
      "reserved": "",
      "salt": "0x449890fe2db4dff06c32c0e8fdb83f965fb7d793ce36cd21d84d98481dc01ba0",
      "assetIds": []
    },
    {
      "x": 208,
      "y": 350,
      "size": 1,
      "price": "1011000000000000000000",
      "reserved": "",
      "salt": "0x8f5137d9539edd4b1293bc4792f679230c498df65477cf39bd680f0a9fdc80d1",
      "assetIds": []
    },
    {
      "x": 209,
      "y": 336,
      "size": 1,
      "price": "4683000000000000000000",
      "reserved": "",
      "salt": "0x3ddcd17933635a73bb6f33c5feba23903cec8a5649e23435c5c0361c1ce4ff5b",
      "assetIds": [
        "55464657044963196816950587289035428064568320970692304673817341489687790884865",
        "55464657044963196816950587289035428064568320970692304673817341489687782494208",
        "55464657044963196816950587289035428064568320970692304673817341489687790884866",
        "55464657044963196816950587289035428064568320970692304673817341489687782494209",
        "55464657044963196816950587289035428064568320970692304673817341489687790884864"
      ]
    },
    {
      "x": 209,
      "y": 337,
      "size": 1,
      "price": "4683000000000000000000",
      "reserved": "",
      "salt": "0xdae09a145a58cb8866722652ea9e42495c30bf223a7ed0f55ab33c43769bba04",
      "assetIds": [
        "55464657044963196816950587289035428064568320970692304673817341489687790884865",
        "55464657044963196816950587289035428064568320970692304673817341489687782494208",
        "55464657044963196816950587289035428064568320970692304673817341489687790884866",
        "55464657044963196816950587289035428064568320970692304673817341489687782494209",
        "55464657044963196816950587289035428064568320970692304673817341489687790884864"
      ]
    },
    {
      "x": 209,
      "y": 338,
      "size": 1,
      "price": "1011000000000000000000",
      "reserved": "",
      "salt": "0x23ecb359b9077ae8cdc0455c07e9d53a208972ab13686ae34ca85221692892fc",
      "assetIds": []
    },
    {
      "x": 209,
      "y": 339,
      "size": 1,
      "price": "1011000000000000000000",
      "reserved": "",
      "salt": "0x3e58ce2baf3fa36e68f706b75ad467c0b2ffdeb21b567f6582f6e590bc5fc32d",
      "assetIds": []
    },
    {
      "x": 209,
      "y": 340,
      "size": 1,
      "price": "1011000000000000000000",
      "reserved": "0x7a9fe22691c811ea339d9b73150e6911a5343dca",
      "salt": "0xaa3ed913789738d142b22cefb10571f6ebb26a057ac29afdc1f69744d23a6cca",
      "assetIds": []
    },
    {
      "x": 209,
      "y": 341,
      "size": 1,
      "price": "4683000000000000000000",
      "reserved": "",
      "salt": "0xc64494ccf2abd818ce452bfe49d0472ef0edb813de74645da7d7ecd40101afef",
      "assetIds": [
        "55464657044963196816950587289035428064568320970692304673817341489687790884865",
        "55464657044963196816950587289035428064568320970692304673817341489687782494208",
        "55464657044963196816950587289035428064568320970692304673817341489687790884866",
        "55464657044963196816950587289035428064568320970692304673817341489687782494209",
        "55464657044963196816950587289035428064568320970692304673817341489687790884864"
      ]
    },
    {
      "x": 209,
      "y": 348,
      "size": 1,
      "price": "4683000000000000000000",
      "reserved": "",
      "salt": "0xf65b6da0d8e42a4f5c933cb244d28dc54a95c2c7c60e07e1e33bd1c1b346f828",
      "assetIds": [
        "55464657044963196816950587289035428064568320970692304673817341489687790884865",
        "55464657044963196816950587289035428064568320970692304673817341489687782494208",
        "55464657044963196816950587289035428064568320970692304673817341489687790884866",
        "55464657044963196816950587289035428064568320970692304673817341489687782494209",
        "55464657044963196816950587289035428064568320970692304673817341489687790884864"
      ]
    },
    {
      "x": 209,
      "y": 349,
      "size": 1,
      "price": "1011000000000000000000",
      "reserved": "",
      "salt": "0xe008e024755ae0d0e6ff035af78132448fc74254bcadfe72c50bec7626091661",
      "assetIds": []
    },
    {
      "x": 209,
      "y": 350,
      "size": 1,
      "price": "1011000000000000000000",
      "reserved": "",
      "salt": "0x5a78e2913cce0d4c4522874d8da3335e1c1d8b320bc8a6ed9d4c8712eecc3bcb",
      "assetIds": []
    },
    {
      "x": 210,
      "y": 336,
      "size": 1,
      "price": "4683000000000000000000",
      "reserved": "",
      "salt": "0x2ffabf838471ded749dc4784873d4e8baac3a5ca86afb5234b554f69cdeafcf9",
      "assetIds": [
        "55464657044963196816950587289035428064568320970692304673817341489687790884865",
        "55464657044963196816950587289035428064568320970692304673817341489687782494208",
        "55464657044963196816950587289035428064568320970692304673817341489687790884866",
        "55464657044963196816950587289035428064568320970692304673817341489687782494209",
        "55464657044963196816950587289035428064568320970692304673817341489687790884864"
      ]
    },
    {
      "x": 210,
      "y": 337,
      "size": 1,
      "price": "1011000000000000000000",
      "reserved": "",
      "salt": "0x09bbe9643f1b224faf503123e194f04edadf9c3eedea786dd35dd06816cc8ddd",
      "assetIds": []
    },
    {
      "x": 210,
      "y": 338,
      "size": 1,
      "price": "1011000000000000000000",
      "reserved": "",
      "salt": "0x95d28cab4e888b38e1cda2ef8b702db9f44f27cf90a9fd340218cf9cb8f3b7a5",
      "assetIds": []
    },
    {
      "x": 210,
      "y": 339,
      "size": 1,
      "price": "1011000000000000000000",
      "reserved": "",
      "salt": "0xb3322f0aa198ec0fff9945e8937e79c73cf9e3af509346097d80ef426a7f29ad",
      "assetIds": []
    },
    {
      "x": 210,
      "y": 340,
      "size": 1,
      "price": "1011000000000000000000",
      "reserved": "",
      "salt": "0xb7e570b3d5491fd34834a72b14feaea4cb4bb949db72e54c350dfa6d24789dbb",
      "assetIds": []
    },
    {
      "x": 210,
      "y": 341,
      "size": 1,
      "price": "4683000000000000000000",
      "reserved": "",
      "salt": "0xf6b94a60721c25e2fb1bb27185ab51c74f17ca88746e701f8b5fb6650c6defbe",
      "assetIds": [
        "55464657044963196816950587289035428064568320970692304673817341489687790884865",
        "55464657044963196816950587289035428064568320970692304673817341489687782494208",
        "55464657044963196816950587289035428064568320970692304673817341489687790884866",
        "55464657044963196816950587289035428064568320970692304673817341489687782494209",
        "55464657044963196816950587289035428064568320970692304673817341489687790884864"
      ]
    },
    {
      "x": 210,
      "y": 342,
      "size": 1,
      "price": "4683000000000000000000",
      "reserved": "",
      "salt": "0x81b0c3cc0319e56b20331dea9a34d7174fdbb1e17a29435ccbbf608b4a832296",
      "assetIds": [
        "55464657044963196816950587289035428064568320970692304673817341489687790884865",
        "55464657044963196816950587289035428064568320970692304673817341489687782494208",
        "55464657044963196816950587289035428064568320970692304673817341489687790884866",
        "55464657044963196816950587289035428064568320970692304673817341489687782494209",
        "55464657044963196816950587289035428064568320970692304673817341489687790884864"
      ]
    },
    {
      "x": 210,
      "y": 343,
      "size": 1,
      "price": "4683000000000000000000",
      "reserved": "",
      "salt": "0x0e7163fc49f761f684b10b1b4fcbfc27fb21e249b2ff25e1649da3bc5b703e53",
      "assetIds": [
        "55464657044963196816950587289035428064568320970692304673817341489687790884865",
        "55464657044963196816950587289035428064568320970692304673817341489687782494208",
        "55464657044963196816950587289035428064568320970692304673817341489687790884866",
        "55464657044963196816950587289035428064568320970692304673817341489687782494209",
        "55464657044963196816950587289035428064568320970692304673817341489687790884864"
      ]
    },
    {
      "x": 210,
      "y": 344,
      "size": 1,
      "price": "4683000000000000000000",
      "reserved": "",
      "salt": "0xc70047af728fa1698493f8eb262d0e775bc8bb34dfcb595b074d4fd09f6630fc",
      "assetIds": [
        "55464657044963196816950587289035428064568320970692304673817341489687790884865",
        "55464657044963196816950587289035428064568320970692304673817341489687782494208",
        "55464657044963196816950587289035428064568320970692304673817341489687790884866",
        "55464657044963196816950587289035428064568320970692304673817341489687782494209",
        "55464657044963196816950587289035428064568320970692304673817341489687790884864"
      ]
    },
    {
      "x": 210,
      "y": 345,
      "size": 1,
      "price": "4683000000000000000000",
      "reserved": "",
      "salt": "0x916edcf30f223069366c97039d000f3ba41299f6211cf696de998e17066f6726",
      "assetIds": [
        "55464657044963196816950587289035428064568320970692304673817341489687790884865",
        "55464657044963196816950587289035428064568320970692304673817341489687782494208",
        "55464657044963196816950587289035428064568320970692304673817341489687790884866",
        "55464657044963196816950587289035428064568320970692304673817341489687782494209",
        "55464657044963196816950587289035428064568320970692304673817341489687790884864"
      ]
    },
    {
      "x": 210,
      "y": 346,
      "size": 1,
      "price": "4683000000000000000000",
      "reserved": "",
      "salt": "0x11db80d6819c93a0f85b9c934d030bc9bdc1683380aeddc63c74b7f618c19695",
      "assetIds": [
        "55464657044963196816950587289035428064568320970692304673817341489687790884865",
        "55464657044963196816950587289035428064568320970692304673817341489687782494208",
        "55464657044963196816950587289035428064568320970692304673817341489687790884866",
        "55464657044963196816950587289035428064568320970692304673817341489687782494209",
        "55464657044963196816950587289035428064568320970692304673817341489687790884864"
      ]
    },
    {
      "x": 210,
      "y": 347,
      "size": 1,
      "price": "4683000000000000000000",
      "reserved": "",
      "salt": "0x41aed239388f0ce14442a31d5955ee98d98145bc8677d27668e53032291a6f83",
      "assetIds": [
        "55464657044963196816950587289035428064568320970692304673817341489687790884865",
        "55464657044963196816950587289035428064568320970692304673817341489687782494208",
        "55464657044963196816950587289035428064568320970692304673817341489687790884866",
        "55464657044963196816950587289035428064568320970692304673817341489687782494209",
        "55464657044963196816950587289035428064568320970692304673817341489687790884864"
      ]
    },
    {
      "x": 210,
      "y": 348,
      "size": 1,
      "price": "4683000000000000000000",
      "reserved": "",
      "salt": "0xb721d260579e2e066d14bf16e03fcb4bb519c63d1f6dcb30fe7aace187c1e5c2",
      "assetIds": [
        "55464657044963196816950587289035428064568320970692304673817341489687790884865",
        "55464657044963196816950587289035428064568320970692304673817341489687782494208",
        "55464657044963196816950587289035428064568320970692304673817341489687790884866",
        "55464657044963196816950587289035428064568320970692304673817341489687782494209",
        "55464657044963196816950587289035428064568320970692304673817341489687790884864"
      ]
    },
    {
      "x": 210,
      "y": 349,
      "size": 1,
      "price": "1011000000000000000000",
      "reserved": "",
      "salt": "0xf011ce0eae882bdd90f699506932654659a2558ab405ba37e47d27eead83f4d0",
      "assetIds": []
    },
    {
      "x": 210,
      "y": 350,
      "size": 1,
      "price": "1011000000000000000000",
      "reserved": "",
      "salt": "0xc5b8f86b8a7ea7318021ddc000ec1e22ef4367fc3d60bd7ef93c7e24d82d8273",
      "assetIds": []
    },
    {
      "x": 211,
      "y": 336,
      "size": 1,
      "price": "4683000000000000000000",
      "reserved": "",
      "salt": "0xccbd3c6158a2603754246a5c76adf6bd841cf6b02827ef1e814210fc189fc970",
      "assetIds": [
        "55464657044963196816950587289035428064568320970692304673817341489687790884865",
        "55464657044963196816950587289035428064568320970692304673817341489687782494208",
        "55464657044963196816950587289035428064568320970692304673817341489687790884866",
        "55464657044963196816950587289035428064568320970692304673817341489687782494209",
        "55464657044963196816950587289035428064568320970692304673817341489687790884864"
      ]
    },
    {
      "x": 211,
      "y": 337,
      "size": 1,
      "price": "4683000000000000000000",
      "reserved": "",
      "salt": "0x0f3e53f74ae8e37dd73ce859c8b2774c78b8e7326ba3a87076cb4381609c2f6a",
      "assetIds": [
        "55464657044963196816950587289035428064568320970692304673817341489687790884865",
        "55464657044963196816950587289035428064568320970692304673817341489687782494208",
        "55464657044963196816950587289035428064568320970692304673817341489687790884866",
        "55464657044963196816950587289035428064568320970692304673817341489687782494209",
        "55464657044963196816950587289035428064568320970692304673817341489687790884864"
      ]
    },
    {
      "x": 211,
      "y": 338,
      "size": 1,
      "price": "1011000000000000000000",
      "reserved": "",
      "salt": "0x76e508a70208dece00e34052a7d25b4cd2a57d198c09ac37bde96f066a4c6796",
      "assetIds": []
    },
    {
      "x": 211,
      "y": 339,
      "size": 1,
      "price": "1011000000000000000000",
      "reserved": "",
      "salt": "0xf4d1ddf49a9c7e001d21241035557dcd9c8d4ddd7048419e7cd810160da2366d",
      "assetIds": []
    },
    {
      "x": 211,
      "y": 340,
      "size": 1,
      "price": "1011000000000000000000",
      "reserved": "",
      "salt": "0x9d426a17e4a095beaefe30a5336976176fe6d77a221a630f5e95bc54423c4d9a",
      "assetIds": []
    },
    {
      "x": 211,
      "y": 341,
      "size": 1,
      "price": "1011000000000000000000",
      "reserved": "0x7a9fe22691c811ea339d9b73150e6911a5343dca",
      "salt": "0x8e9c04adfdaaaa216e3bded20eef3291639a1b2daab2371138cf6981d8762e7c",
      "assetIds": []
    },
    {
      "x": 211,
      "y": 342,
      "size": 1,
      "price": "1011000000000000000000",
      "reserved": "",
      "salt": "0xfa7f109698d4e32d4accfd948fc53214655db3450ff840528c55f259aba4a98f",
      "assetIds": []
    },
    {
      "x": 211,
      "y": 343,
      "size": 1,
      "price": "1011000000000000000000",
      "reserved": "",
      "salt": "0x92a0c4a6c9bd9bcd1ae55ce3b50c8be3ac60a8fd4b205eb8283ad5c0f4582632",
      "assetIds": []
    },
    {
      "x": 211,
      "y": 344,
      "size": 1,
      "price": "1011000000000000000000",
      "reserved": "",
      "salt": "0x3fb33a96a286c85aa26fb83637206c57635cc61254500ec17764d6309a356ff2",
      "assetIds": []
    },
    {
      "x": 211,
      "y": 345,
      "size": 1,
      "price": "1011000000000000000000",
      "reserved": "",
      "salt": "0x8e43be3697e0246cdf5b4c663fc01ffdf76f8bcfb90783d9570a548804d86034",
      "assetIds": []
    },
    {
      "x": 211,
      "y": 346,
      "size": 1,
      "price": "1011000000000000000000",
      "reserved": "",
      "salt": "0xa0e23f19545a2b6c1c9a5f023d925bb8447b91fe0797eb4fd253c697002d399c",
      "assetIds": []
    },
    {
      "x": 211,
      "y": 347,
      "size": 1,
      "price": "1011000000000000000000",
      "reserved": "",
      "salt": "0x2b13693200d1fe567c55b685fcdeacbea1321c98195494e3d95e04e6af5942cd",
      "assetIds": []
    },
    {
      "x": 211,
      "y": 348,
      "size": 1,
      "price": "1011000000000000000000",
      "reserved": "",
      "salt": "0x89804ea5d7fe5f1657e1cc272481b9559a0a1bd578772c83eb981dcbd9886df8",
      "assetIds": []
    },
    {
      "x": 211,
      "y": 349,
      "size": 1,
      "price": "1011000000000000000000",
      "reserved": "0x7a9fe22691c811ea339d9b73150e6911a5343dca",
      "salt": "0xd4396be1fe4f821daf3cdeaf7390a9bdd9193a5e3276a0a2acf7ed20b9eda557",
      "assetIds": []
    },
    {
      "x": 211,
      "y": 350,
      "size": 1,
      "price": "1011000000000000000000",
      "reserved": "",
      "salt": "0xde65977cc61e2b9f48ddf32d57f363c4c8c71a3ff1c01933ab59e0c48633578d",
      "assetIds": []
    },
    {
      "x": 212,
      "y": 336,
      "size": 1,
      "price": "4683000000000000000000",
      "reserved": "",
      "salt": "0x6b00cafc863e4f6966bcd8bd4b7526c06a43a88b6764d839b7f1476ebafd454d",
      "assetIds": [
        "55464657044963196816950587289035428064568320970692304673817341489687790884865",
        "55464657044963196816950587289035428064568320970692304673817341489687782494208",
        "55464657044963196816950587289035428064568320970692304673817341489687790884866",
        "55464657044963196816950587289035428064568320970692304673817341489687782494209",
        "55464657044963196816950587289035428064568320970692304673817341489687790884864"
      ]
    },
    {
      "x": 212,
      "y": 337,
      "size": 1,
      "price": "4683000000000000000000",
      "reserved": "",
      "salt": "0x674cab017c515299d3c30649c0dd8c7792b32dc4ba609a25b3973b61d1330266",
      "assetIds": [
        "55464657044963196816950587289035428064568320970692304673817341489687790884865",
        "55464657044963196816950587289035428064568320970692304673817341489687782494208",
        "55464657044963196816950587289035428064568320970692304673817341489687790884866",
        "55464657044963196816950587289035428064568320970692304673817341489687782494209",
        "55464657044963196816950587289035428064568320970692304673817341489687790884864"
      ]
    },
    {
      "x": 212,
      "y": 338,
      "size": 1,
      "price": "1011000000000000000000",
      "reserved": "",
      "salt": "0x4c717588d244c2f617664249fb8e57c69b120ee6d89ae75693d47787a5022b6d",
      "assetIds": []
    },
    {
      "x": 212,
      "y": 339,
      "size": 1,
      "price": "1011000000000000000000",
      "reserved": "",
      "salt": "0x5df1c932dc6194bb294facbf2e486c2afe9b53ec3a90e0128822b4af5affbd1a",
      "assetIds": []
    },
    {
      "x": 212,
      "y": 340,
      "size": 1,
      "price": "1011000000000000000000",
      "reserved": "0x7a9fe22691c811ea339d9b73150e6911a5343dca",
      "salt": "0xfc6c4d699cd9c0222ac42f8ec818381b214f3c0eee7717f33fe3a00d65492337",
      "assetIds": []
    },
    {
      "x": 212,
      "y": 341,
      "size": 1,
      "price": "1011000000000000000000",
      "reserved": "0x7a9fe22691c811ea339d9b73150e6911a5343dca",
      "salt": "0x6b4716bf7d3db9f9252c779286c7fed7cc9d72b1e076538dded7fbb3c0fb51c9",
      "assetIds": []
    },
    {
      "x": 212,
      "y": 342,
      "size": 1,
      "price": "1011000000000000000000",
      "reserved": "",
      "salt": "0x58ffdff98004c0076fb997909612e36c355123a9a6995d01380b756c68ad2d39",
      "assetIds": []
    },
    {
      "x": 212,
      "y": 343,
      "size": 1,
      "price": "1011000000000000000000",
      "reserved": "",
      "salt": "0xc6015e61c2f6c7abc2c26157842a13769a34af9ceb6cac333b8b2384f35771b3",
      "assetIds": []
    },
    {
      "x": 212,
      "y": 344,
      "size": 1,
      "price": "1011000000000000000000",
      "reserved": "0x7a9fe22691c811ea339d9b73150e6911a5343dca",
      "salt": "0xdc63ddb5899faab0ee1cfe49391baa42190a8df9e24dcdcd6591d0ffe26c8067",
      "assetIds": []
    },
    {
      "x": 212,
      "y": 345,
      "size": 1,
      "price": "1011000000000000000000",
      "reserved": "",
      "salt": "0xd8383cdc8358513402d7cd08e72c4394a3f0b0470acaaf9e1e2eaaf36bb2e9bb",
      "assetIds": []
    },
    {
      "x": 212,
      "y": 346,
      "size": 1,
      "price": "1011000000000000000000",
      "reserved": "",
      "salt": "0x8ce3a624302eab4fc5aa8b5f3cc258178650afdda65a1d332326be39d60935c3",
      "assetIds": []
    },
    {
      "x": 212,
      "y": 347,
      "size": 1,
      "price": "1011000000000000000000",
      "reserved": "",
      "salt": "0xc74cf7ddc2353c35baa5f243e0ec796571f17459f3741d7254072b73c48bbeb8",
      "assetIds": []
    },
    {
      "x": 212,
      "y": 348,
      "size": 1,
      "price": "1011000000000000000000",
      "reserved": "",
      "salt": "0x58b8d29080087320f5b693442dc8c03507acf2be0b24d743b53d8e8a8d5c9c8e",
      "assetIds": []
    },
    {
      "x": 212,
      "y": 349,
      "size": 1,
      "price": "1011000000000000000000",
      "reserved": "",
      "salt": "0xcf99ba3831c8d41a12dd655ef51be4133948fd07c37017c490857f8f884f198a",
      "assetIds": []
    },
    {
      "x": 212,
      "y": 350,
      "size": 1,
      "price": "1011000000000000000000",
      "reserved": "",
      "salt": "0xb4be60d14e6b6e397d586b292a9d18c0d34e113b299502655dd5b94518c537cf",
      "assetIds": []
    },
    {
      "x": 213,
      "y": 336,
      "size": 1,
      "price": "4683000000000000000000",
      "reserved": "",
      "salt": "0xaf6d784adecba991bca644c3d61c24ed79754b1d7b455cda3069e82ac30b76c2",
      "assetIds": [
        "55464657044963196816950587289035428064568320970692304673817341489687790884865",
        "55464657044963196816950587289035428064568320970692304673817341489687782494208",
        "55464657044963196816950587289035428064568320970692304673817341489687790884866",
        "55464657044963196816950587289035428064568320970692304673817341489687782494209",
        "55464657044963196816950587289035428064568320970692304673817341489687790884864"
      ]
    },
    {
      "x": 213,
      "y": 337,
      "size": 1,
      "price": "1011000000000000000000",
      "reserved": "0x7a9fe22691c811ea339d9b73150e6911a5343dca",
      "salt": "0xc982bd19e4daac949aa2ff3017d857062b6752d1c437fff558afac366a86de97",
      "assetIds": []
    },
    {
      "x": 213,
      "y": 338,
      "size": 1,
      "price": "1011000000000000000000",
      "reserved": "",
      "salt": "0xe01a124c2ba08fd882c8f0c9045c71694682d644feb4a14643e77b07b50c7c92",
      "assetIds": []
    },
    {
      "x": 213,
      "y": 339,
      "size": 1,
      "price": "1011000000000000000000",
      "reserved": "",
      "salt": "0x4e1c4bd26951ae117f43d9c027ef4fe664b71e9df5e74164cdcd0ad3b94960ec",
      "assetIds": []
    },
    {
      "x": 213,
      "y": 340,
      "size": 1,
      "price": "1011000000000000000000",
      "reserved": "",
      "salt": "0xfc182241b05c1298bf373b759ef507540da3e29a2f62e80816ccb666a76ea85d",
      "assetIds": []
    },
    {
      "x": 213,
      "y": 341,
      "size": 1,
      "price": "1011000000000000000000",
      "reserved": "",
      "salt": "0xd5adefbdacee8948e771ce6405f4ee42f707781e5546b38a372277233e7f97dd",
      "assetIds": []
    },
    {
      "x": 213,
      "y": 342,
      "size": 1,
      "price": "1011000000000000000000",
      "reserved": "",
      "salt": "0xed864d365faa8e8a04bcfd57479dd173dc36443fae20d3e2d457d34a8e6c5f75",
      "assetIds": []
    },
    {
      "x": 213,
      "y": 343,
      "size": 1,
      "price": "1011000000000000000000",
      "reserved": "",
      "salt": "0xaf59fad19d421fea4a84554e37dc20bbf35a5ce736d0bedb2084e66d5a27fc5a",
      "assetIds": []
    },
    {
      "x": 213,
      "y": 344,
      "size": 1,
      "price": "1011000000000000000000",
      "reserved": "",
      "salt": "0x63a20aaa863ee084a946d078330dd26409be772fb74875301e9a5438f6d7c019",
      "assetIds": []
    },
    {
      "x": 213,
      "y": 345,
      "size": 1,
      "price": "1011000000000000000000",
      "reserved": "",
      "salt": "0xda0c1a8f80ed52ed8261fb09a31ecbc55ee5eaf7b1989212194946ba3790349d",
      "assetIds": []
    },
    {
      "x": 213,
      "y": 346,
      "size": 1,
      "price": "1011000000000000000000",
      "reserved": "",
      "salt": "0x97055e9e5286f87b35e66d935d9f67eda35204e07c42cc08570dd14e331ae928",
      "assetIds": []
    },
    {
      "x": 213,
      "y": 347,
      "size": 1,
      "price": "1011000000000000000000",
      "reserved": "0x7a9fe22691c811ea339d9b73150e6911a5343dca",
      "salt": "0xf12172920895e79e08f821c8e1504c22838c5b3d6cfbd2ea246d0fc30d034b4f",
      "assetIds": []
    },
    {
      "x": 213,
      "y": 348,
      "size": 1,
      "price": "1011000000000000000000",
      "reserved": "",
      "salt": "0x9b9adb2a833cf6dc1df976ef486bed80d244a2ea0e27a4100ad19c7de879d401",
      "assetIds": []
    },
    {
      "x": 213,
      "y": 349,
      "size": 1,
      "price": "1011000000000000000000",
      "reserved": "",
      "salt": "0xb4d9a56e3bb71e894bae0e5a142ee910be50e98599acf467b42f96a7584804e4",
      "assetIds": []
    },
    {
      "x": 213,
      "y": 350,
      "size": 1,
      "price": "1011000000000000000000",
      "reserved": "",
      "salt": "0x2b6df187a98383da741cedec27888cc831827d0a8887554d52dbb079a9c83e5d",
      "assetIds": []
    },
    {
      "x": 214,
      "y": 336,
      "size": 1,
      "price": "4683000000000000000000",
      "reserved": "",
      "salt": "0xac99045a65676cfa3b76bd95708184fd3cc37997fde748461a1bf2cfc5d85b6b",
      "assetIds": [
        "55464657044963196816950587289035428064568320970692304673817341489687790884865",
        "55464657044963196816950587289035428064568320970692304673817341489687782494208",
        "55464657044963196816950587289035428064568320970692304673817341489687790884866",
        "55464657044963196816950587289035428064568320970692304673817341489687782494209",
        "55464657044963196816950587289035428064568320970692304673817341489687790884864"
      ]
    },
    {
      "x": 214,
      "y": 337,
      "size": 1,
      "price": "1011000000000000000000",
      "reserved": "",
      "salt": "0x0392c05aaeb05868ee7148d4becb827e80d2b79754bfad84939a765d84a0e370",
      "assetIds": []
    },
    {
      "x": 214,
      "y": 338,
      "size": 1,
      "price": "1011000000000000000000",
      "reserved": "",
      "salt": "0xabffffe12a09b7d74ad37340b7f2b6442ebefa687ae9d450b69fa02fdc68bc9d",
      "assetIds": []
    },
    {
      "x": 214,
      "y": 339,
      "size": 1,
      "price": "1011000000000000000000",
      "reserved": "0x7a9fe22691c811ea339d9b73150e6911a5343dca",
      "salt": "0xb736fcb9f9d9f3a976a9c0c47a59259871deeb977552cc785324304f7cee949b",
      "assetIds": []
    },
    {
      "x": 214,
      "y": 340,
      "size": 1,
      "price": "1011000000000000000000",
      "reserved": "",
      "salt": "0x6cfadac5ec6b15426761f9e70482e4bc584b3cb0ffe096d70444003e6f6f9058",
      "assetIds": []
    },
    {
      "x": 214,
      "y": 341,
      "size": 1,
      "price": "1011000000000000000000",
      "reserved": "",
      "salt": "0xc707f1931a2e63cabb40e37bf001826b9c89706487a8193dab30027f4fb7ea5c",
      "assetIds": []
    },
    {
      "x": 214,
      "y": 342,
      "size": 1,
      "price": "1011000000000000000000",
      "reserved": "",
      "salt": "0x073780e0d74745e280ed33c88f4dfdc332bcb1eb710eae6ff9310d74a925382e",
      "assetIds": []
    },
    {
      "x": 214,
      "y": 343,
      "size": 1,
      "price": "1011000000000000000000",
      "reserved": "0x7a9fe22691c811ea339d9b73150e6911a5343dca",
      "salt": "0x855fa827abb6570aea2a143f9b5f5efaed14fc1c3c22e43ff8693770da4b999b",
      "assetIds": []
    },
    {
      "x": 214,
      "y": 344,
      "size": 1,
      "price": "1011000000000000000000",
      "reserved": "",
      "salt": "0x035db55a2b969a4f4a26a71cc7bf58ce9ae47dbaefed5b5e3115b4d1edb4144b",
      "assetIds": []
    },
    {
      "x": 214,
      "y": 345,
      "size": 1,
      "price": "1011000000000000000000",
      "reserved": "",
      "salt": "0xf86cdf01ab6a800593cb0599f4c29b9cf2e57ba1b5f4d58753ae53c63359c5b6",
      "assetIds": []
    },
    {
      "x": 214,
      "y": 346,
      "size": 1,
      "price": "1011000000000000000000",
      "reserved": "",
      "salt": "0xc193c8159ed757b9c2f4c57cd73fb28cc17a53eafb143dd4581b83cea8270124",
      "assetIds": []
    },
    {
      "x": 214,
      "y": 347,
      "size": 1,
      "price": "1011000000000000000000",
      "reserved": "",
      "salt": "0xdb73381625996de1a2ea4178e9d981a74aa36b82e74348de0b2d2801b1d0660e",
      "assetIds": []
    },
    {
      "x": 214,
      "y": 348,
      "size": 1,
      "price": "1011000000000000000000",
      "reserved": "",
      "salt": "0x294dd30c7831362a7b705a47a40f22698939cc7da84507532c2cad0dc7ab9dc8",
      "assetIds": []
    },
    {
      "x": 214,
      "y": 349,
      "size": 1,
      "price": "1011000000000000000000",
      "reserved": "",
      "salt": "0xd123286d491dc9a6be2dc19108eb13221ab8c7f3542eaac4a1c81d0647a95027",
      "assetIds": []
    },
    {
      "x": 214,
      "y": 350,
      "size": 1,
      "price": "1011000000000000000000",
      "reserved": "",
      "salt": "0x3ddbc85660f5919aa1473b9077d84046bf56fb5c9511d0b0e6e1c529af73f300",
      "assetIds": []
    },
    {
      "x": 215,
      "y": 336,
      "size": 1,
      "price": "1011000000000000000000",
      "reserved": "",
      "salt": "0x326d965e1a5f141f73ea10cf667161c2c86350279dd963418aa0618ea181500a",
      "assetIds": []
    },
    {
      "x": 215,
      "y": 337,
      "size": 1,
      "price": "1011000000000000000000",
      "reserved": "",
      "salt": "0x28bdb434604755c40556d181a8ee5b4384aeb14f59d19b41c0f415b87ab34b51",
      "assetIds": []
    },
    {
      "x": 215,
      "y": 338,
      "size": 1,
      "price": "1011000000000000000000",
      "reserved": "",
      "salt": "0x24bfcfb7564a53902683442d577f43e4bf06695ac66dff8eec7ff39923968d35",
      "assetIds": []
    },
    {
      "x": 215,
      "y": 339,
      "size": 1,
      "price": "1011000000000000000000",
      "reserved": "",
      "salt": "0x0646002db97909f5749a1cc70398ca66c5f2c72d3c8f021d04ef8400a047a5cc",
      "assetIds": []
    },
    {
      "x": 215,
      "y": 340,
      "size": 1,
      "price": "1011000000000000000000",
      "reserved": "",
      "salt": "0xe0eb9d2f91f1dbba6b00cd26cf6e83a00e2f4695266b3548ec8aef74dbe9ed2e",
      "assetIds": []
    },
    {
      "x": 215,
      "y": 341,
      "size": 1,
      "price": "1011000000000000000000",
      "reserved": "",
      "salt": "0x7ec7507a6450a63be676dd24e00419802d379f3fdaf7be4cfdaad6090eb6854f",
      "assetIds": []
    },
    {
      "x": 215,
      "y": 342,
      "size": 1,
      "price": "1011000000000000000000",
      "reserved": "",
      "salt": "0xe4bac1707162b129a63f89c1b52106f7905d89a86653e81e766f8e8d28586d2e",
      "assetIds": []
    },
    {
      "x": 215,
      "y": 343,
      "size": 1,
      "price": "1011000000000000000000",
      "reserved": "",
      "salt": "0x30e394037f3bbc50f402af1d697cce82373c3ba17ee9100e0af8287fd4431d5d",
      "assetIds": []
    },
    {
      "x": 215,
      "y": 344,
      "size": 1,
      "price": "1011000000000000000000",
      "reserved": "",
      "salt": "0x8edd2c43a3d0664fba4cbb051309d135a6c979d92e479abb0592f2fb274f9234",
      "assetIds": []
    },
    {
      "x": 215,
      "y": 345,
      "size": 1,
      "price": "1011000000000000000000",
      "reserved": "",
      "salt": "0xf9c8f7e31cca0f6f62f79f5702711fbd1615d1271e22c592ae72a29acd4e0ece",
      "assetIds": []
    },
    {
      "x": 215,
      "y": 346,
      "size": 1,
      "price": "1011000000000000000000",
      "reserved": "",
      "salt": "0x02d659ece985aa9b3d7d1d421af7479323374778f67517e74bb2174ada99c3ec",
      "assetIds": []
    },
    {
      "x": 215,
      "y": 347,
      "size": 1,
      "price": "1011000000000000000000",
      "reserved": "",
      "salt": "0xc43bbf71282bd15375cf4cd709a56f505e73b1efccf363796fc989959f42d7c1",
      "assetIds": []
    },
    {
      "x": 215,
      "y": 348,
      "size": 1,
      "price": "1011000000000000000000",
      "reserved": "",
      "salt": "0x6c93ee057f6b069706f62992ce72dbf22648d0e1cbf4b281ef7934027de7e13d",
      "assetIds": []
    },
    {
      "x": 215,
      "y": 349,
      "size": 1,
      "price": "1011000000000000000000",
      "reserved": "",
      "salt": "0x6705abdc52250e9a68ed65200db4991c52c0d25457b879b6580a3d43af9aec81",
      "assetIds": []
    },
    {
      "x": 215,
      "y": 350,
      "size": 1,
      "price": "1011000000000000000000",
      "reserved": "",
      "salt": "0x44c540ab49e6bdecb94f64e1cd7cb729cb25083e554ed5146c6efafe20018af0",
      "assetIds": []
    },
    {
      "x": 216,
      "y": 336,
      "size": 1,
      "price": "1011000000000000000000",
      "reserved": "",
      "salt": "0xc5390aecd66379b7af0b0dc588c76d38cc0ec9487ababbfe8c8ec235238fb77e",
      "assetIds": []
    },
    {
      "x": 216,
      "y": 337,
      "size": 1,
      "price": "1011000000000000000000",
      "reserved": "",
      "salt": "0x9eb521054250f1f9aec0485b6952834ff1bde2a685ee528035fb80faa4e84c42",
      "assetIds": []
    },
    {
      "x": 216,
      "y": 338,
      "size": 1,
      "price": "1011000000000000000000",
      "reserved": "",
      "salt": "0x50ad52327a29a9dae9597b819232a60040e6620ccbe0bf3e9063ad28267fb94c",
      "assetIds": []
    },
    {
      "x": 216,
      "y": 339,
      "size": 1,
      "price": "1011000000000000000000",
      "reserved": "",
      "salt": "0xd500a2aac969813783a9776761db12bf6a57a2e54a8b90022242ee1a3eb4fc6b",
      "assetIds": []
    },
    {
      "x": 216,
      "y": 340,
      "size": 1,
      "price": "1011000000000000000000",
      "reserved": "0x7a9fe22691c811ea339d9b73150e6911a5343dca",
      "salt": "0x72d139f55f344b60fbb2c87fc74290ea6561b1551c7f2acecf78bade5a8b0f84",
      "assetIds": []
    },
    {
      "x": 216,
      "y": 341,
      "size": 1,
      "price": "1011000000000000000000",
      "reserved": "",
      "salt": "0x64a5d8b8d249804f6640f8e69f907c18f7abe48d590f0342dbb82bcbd1552a84",
      "assetIds": []
    },
    {
      "x": 216,
      "y": 342,
      "size": 1,
      "price": "1011000000000000000000",
      "reserved": "",
      "salt": "0xd64a6afd085c42eb930dca73b876cf4360cf8b37656295c9e2325972a33e41fe",
      "assetIds": []
    },
    {
      "x": 216,
      "y": 343,
      "size": 1,
      "price": "1011000000000000000000",
      "reserved": "",
      "salt": "0xca7b7c8ba87699ef3708a9ed064aa4d7c2fd2195ae1fa15a138d5533080680e8",
      "assetIds": []
    },
    {
      "x": 216,
      "y": 344,
      "size": 1,
      "price": "1011000000000000000000",
      "reserved": "",
      "salt": "0x22b7429be05b87a2c8deae561e1239eaf2c47e518e51b09be2b3a1eb0dab6733",
      "assetIds": []
    },
    {
      "x": 216,
      "y": 345,
      "size": 1,
      "price": "1011000000000000000000",
      "reserved": "",
      "salt": "0x2199ec1f9009c6005a98b40f956bf4235e86de2465eabb86581c6f6037a88294",
      "assetIds": []
    },
    {
      "x": 216,
      "y": 346,
      "size": 1,
      "price": "1011000000000000000000",
      "reserved": "",
      "salt": "0xd474b9ce40cd4597608e5207cf550d850cffac8712d02ada74bafc3ed525c26a",
      "assetIds": []
    },
    {
      "x": 216,
      "y": 347,
      "size": 1,
      "price": "1011000000000000000000",
      "reserved": "",
      "salt": "0xba20269d288c31cac8e3079ddd750f14f1c92e9f81a2de17bf531e8ebf208e84",
      "assetIds": []
    },
    {
      "x": 216,
      "y": 348,
      "size": 1,
      "price": "1011000000000000000000",
      "reserved": "",
      "salt": "0x31341f5f044894c37d9505a28cccd8696db215635d6d48fc437f3de3c2113f48",
      "assetIds": []
    },
    {
      "x": 216,
      "y": 349,
      "size": 1,
      "price": "1011000000000000000000",
      "reserved": "",
      "salt": "0xbde33eb3ab40e6026c6ef837b09f97446e8e2b2d1ab0604cc4c5652dc19ed84a",
      "assetIds": []
    },
    {
      "x": 216,
      "y": 350,
      "size": 1,
      "price": "1011000000000000000000",
      "reserved": "",
      "salt": "0xbeb21974f87c205f790947a69033bd17c001d881e9ebf3654d0b015107c2db74",
      "assetIds": []
    },
    {
      "x": 217,
      "y": 336,
      "size": 1,
      "price": "1011000000000000000000",
      "reserved": "",
      "salt": "0x7009844fe862ddf792f3c9541df5a2429f5426cb54226686913d011487b4c40f",
      "assetIds": []
    },
    {
      "x": 217,
      "y": 337,
      "size": 1,
      "price": "1011000000000000000000",
      "reserved": "",
      "salt": "0x845323d7680e01846bb95a2a83e13581f386f3567c0e3a79114e5112a509807b",
      "assetIds": []
    },
    {
      "x": 217,
      "y": 338,
      "size": 1,
      "price": "1011000000000000000000",
      "reserved": "0x7a9fe22691c811ea339d9b73150e6911a5343dca",
      "salt": "0xbb1d32185eacac6257e17eb99a0a80d39acde4019956ae3c03e646059d00463b",
      "assetIds": []
    },
    {
      "x": 217,
      "y": 339,
      "size": 1,
      "price": "1011000000000000000000",
      "reserved": "",
      "salt": "0xf294e9296a591ac70e07af8a9038c889e66383b8c9df1c2f9f779cf0c747b9a5",
      "assetIds": []
    },
    {
      "x": 217,
      "y": 340,
      "size": 1,
      "price": "1011000000000000000000",
      "reserved": "",
      "salt": "0xc135fb8621c3f8317ab4949ba0fd1b6ca6433998f534c14d42edf4e1b277cb65",
      "assetIds": []
    },
    {
      "x": 217,
      "y": 341,
      "size": 1,
      "price": "1011000000000000000000",
      "reserved": "",
      "salt": "0xf1633e116387a5119612fdf25c4537efabcf7e9571bc7b87d716c3654123a1db",
      "assetIds": []
    },
    {
      "x": 217,
      "y": 342,
      "size": 1,
      "price": "1011000000000000000000",
      "reserved": "",
      "salt": "0x4248ca559b100248c597e2374414fbcd5752c33dd1244c48f958efa6b9c2e91c",
      "assetIds": []
    },
    {
      "x": 217,
      "y": 343,
      "size": 1,
      "price": "1011000000000000000000",
      "reserved": "",
      "salt": "0x3e255fcb7089cb8108a52c21023f4b92b89e370c265a5d3b5102855c3e3e4fcd",
      "assetIds": []
    },
    {
      "x": 217,
      "y": 344,
      "size": 1,
      "price": "1011000000000000000000",
      "reserved": "",
      "salt": "0x4f7903b0c3d62fb5a01437f47776b962a4ecb3025172b8780fe4a317ec75f526",
      "assetIds": []
    },
    {
      "x": 217,
      "y": 345,
      "size": 1,
      "price": "1011000000000000000000",
      "reserved": "",
      "salt": "0x8fb9a9a4f77a395abaef7b2004010851a125c78f702179aec0110d6b43b88031",
      "assetIds": []
    },
    {
      "x": 217,
      "y": 346,
      "size": 1,
      "price": "1011000000000000000000",
      "reserved": "",
      "salt": "0x2d4a9167546463f7b9d1595c58fdfdf666658a7857cec471f3dfb3239f94e907",
      "assetIds": []
    },
    {
      "x": 217,
      "y": 347,
      "size": 1,
      "price": "1011000000000000000000",
      "reserved": "",
      "salt": "0x800b390f3774dfa3703b6b17f6dcba7ba8ef159166e1d09465a9eb71b7765a21",
      "assetIds": []
    },
    {
      "x": 217,
      "y": 348,
      "size": 1,
      "price": "1011000000000000000000",
      "reserved": "",
      "salt": "0x7f82f7472c3bf37f57853139963ad48c6dc625ce3b3e2f5fd4f5df2ded2369f4",
      "assetIds": []
    },
    {
      "x": 217,
      "y": 349,
      "size": 1,
      "price": "1011000000000000000000",
      "reserved": "",
      "salt": "0x5b781a34aa6eb6076814dfd47fcce68d34600a54abba8748b43aa0d33ede8ab9",
      "assetIds": []
    },
    {
      "x": 218,
      "y": 336,
      "size": 1,
      "price": "1011000000000000000000",
      "reserved": "",
      "salt": "0x8655b4e87c006a35a7554f304362f03e077d11a6d0c4cce60eac622fe07f25cb",
      "assetIds": []
    },
    {
      "x": 218,
      "y": 337,
      "size": 1,
      "price": "1011000000000000000000",
      "reserved": "",
      "salt": "0xbf4b086b61b486e497851bccd29634016e1d2407ee892cf2b791e406a883b97f",
      "assetIds": []
    },
    {
      "x": 218,
      "y": 338,
      "size": 1,
      "price": "1011000000000000000000",
      "reserved": "",
      "salt": "0xaa3366bfd653b95aa4e4fa7b195c22cc064f640b250a781e0829f0f846af9bc9",
      "assetIds": []
    },
    {
      "x": 218,
      "y": 339,
      "size": 1,
      "price": "1011000000000000000000",
      "reserved": "",
      "salt": "0x2f9200091721e350764b93f3e8129a81be107856fdaabfdcd6da6cfa6b5d8f4f",
      "assetIds": []
    },
    {
      "x": 218,
      "y": 340,
      "size": 1,
      "price": "1011000000000000000000",
      "reserved": "",
      "salt": "0xf60ae5413a9193fb560442fe4a484a0f4ca7dda00be8581a24618845012fa9a4",
      "assetIds": []
    },
    {
      "x": 218,
      "y": 341,
      "size": 1,
      "price": "1011000000000000000000",
      "reserved": "",
      "salt": "0x399edfae3cb0f22614f290b54d7ddbf010ef34c41fd8dfc3e2b359b3406ae5bb",
      "assetIds": []
    },
    {
      "x": 218,
      "y": 342,
      "size": 1,
      "price": "1011000000000000000000",
      "reserved": "",
      "salt": "0xca8b8390c623eba4d016039cfc8b9fe223617a69ac6d7f1ef3ef3c9c50cf989a",
      "assetIds": []
    },
    {
      "x": 218,
      "y": 343,
      "size": 1,
      "price": "1011000000000000000000",
      "reserved": "0x7a9fe22691c811ea339d9b73150e6911a5343dca",
      "salt": "0x72058129d3ff9000371a786705a3d7950ae13c4009e444f08ea31617f69fa010",
      "assetIds": []
    },
    {
      "x": 218,
      "y": 344,
      "size": 1,
      "price": "1011000000000000000000",
      "reserved": "",
      "salt": "0x5fedc0287261a33b20c04ee956f82577cf7c455e67356ac7ca363b08f6e8cac6",
      "assetIds": []
    },
    {
      "x": 218,
      "y": 345,
      "size": 1,
      "price": "1011000000000000000000",
      "reserved": "",
      "salt": "0x589dfe57950589311eec22a4805d74387da2e92f191335f4fe585fe13d24c19e",
      "assetIds": []
    },
    {
      "x": 218,
      "y": 346,
      "size": 1,
      "price": "1011000000000000000000",
      "reserved": "",
      "salt": "0xc5ad4f5975bfdc88455a44c9de37a736061819c823a1bf4f280b5eb1f954f1cd",
      "assetIds": []
    },
    {
      "x": 218,
      "y": 347,
      "size": 1,
      "price": "1011000000000000000000",
      "reserved": "",
      "salt": "0xfb88cb752584e140f2ce6e565d43b4025f719e8c66e9386a72136bd6c97efe4e",
      "assetIds": []
    },
    {
      "x": 218,
      "y": 348,
      "size": 1,
      "price": "1011000000000000000000",
      "reserved": "",
      "salt": "0x49f2ffddad21a8a64268c2bffda9546bc64300cb8ba9b16ac1a822e31e4c349d",
      "assetIds": []
    },
    {
      "x": 180,
      "y": 318,
      "size": 3,
      "price": "8648000000000000000000",
      "reserved": "0x7a9fe22691c811ea339d9b73150e6911a5343dca",
      "salt": "0x862506341f101ba44ad90a3ba6b0ede65f77c89ff597926cd0417a14452853b3",
      "assetIds": []
    },
    {
      "x": 189,
      "y": 318,
      "size": 3,
      "price": "8648000000000000000000",
      "reserved": "0x7a9fe22691c811ea339d9b73150e6911a5343dca",
      "salt": "0xd99c5b6e44a4fcb1b2032299d4c7169bdbb75d871544431db04f60763941030f",
      "assetIds": []
    },
    {
      "x": 189,
      "y": 321,
      "size": 3,
      "price": "8648000000000000000000",
      "reserved": "0x7a9fe22691c811ea339d9b73150e6911a5343dca",
      "salt": "0x4d4a46d0a19ffc33e10f2efcef22d5ca6b690ab9e501de6c5cf85449e8169b47",
      "assetIds": []
    },
    {
      "x": 201,
      "y": 342,
      "size": 3,
      "price": "8648000000000000000000",
      "reserved": "0x7a9fe22691c811ea339d9b73150e6911a5343dca",
      "salt": "0x231212104e4cc8b2ed60885fc7325ee3efbf05a44438adfd2eb0192c3ab3ab65",
      "assetIds": []
    },
    {
      "x": 180,
      "y": 312,
      "size": 6,
      "price": "32772000000000000000000",
      "reserved": "0x7a9fe22691c811ea339d9b73150e6911a5343dca",
      "salt": "0x4c57b4fd521660a10d66d62a1e7aaae532b52dd568ccd5daa89e4fb09430c078",
      "assetIds": []
    },
    {
      "x": 186,
      "y": 312,
      "size": 6,
      "price": "32772000000000000000000",
      "reserved": "0x7a9fe22691c811ea339d9b73150e6911a5343dca",
      "salt": "0xf3dde021e8c453ff1034039e9eb74232f397b321d1794f7d6d3de91c9b827c58",
      "assetIds": []
    },
    {
      "x": 204,
      "y": 342,
      "size": 6,
      "price": "32772000000000000000000",
      "reserved": "0x7a9fe22691c811ea339d9b73150e6911a5343dca",
      "salt": "0x6ba36d0cb3760c9597f2ef67b0199308a895eb6ce992f0faf05010e6fe44512b",
      "assetIds": []
    },
    {
      "x": 192,
      "y": 312,
      "size": 24,
      "price": "466102000000000000000000",
      "reserved": "0x7a9fe22691c811ea339d9b73150e6911a5343dca",
      "salt": "0x6479cfc2b5d856fdf177de1658ea79e492e0063d8f821575178ad549c374a1b0",
      "assetIds": []
    }
  ],
  "solcInputHash": "313f455adab9ae93096e43acc50d7d38",
  "bytecode": "0x610160604052620d2f006005556103e860075534801561001e57600080fd5b5060405161242e38038061242e833981810160405261018081101561004257600080fd5b50805160208201516040830151606080850151608086015160a08088015160c0808a015160e08b01516101008c01516101208d01516101408e0151610160909e0151600280546001600160a01b0319166001600160a01b03861617905560038390558d8b1b6001600160601b0319908116909852998c901b909616909352999a9899979895979496929590949391926100dc8a600161014a565b600680546001600160a01b03199081166001600160a01b039a8b1617909155610140979097526101209590955260008054909616979096169690961790935550606093841b6001600160601b031990811660e05292841b831660805290921b1661010052506101ae92505050565b6001600160a01b038216600081815260016020908152604091829020805460ff191685151590811790915582519384529083015280517fb21eb88b4e33b3f1281830a7178d74d8aa73220416215726b68ae23d539515cb9281900390910190a15050565b60805160601c60a05160601c60c05160601c60e05160601c6101005160601c61012051610140516121fb610233600039806109375280611d44525080610913528061139a525080611da45250806115d252806116f4525080610c50528061159c5280611dd852508061166152806116c5525080610dfa528061190852506121fb6000f3fe608060405234801561001057600080fd5b50600436106101515760003560e01c8063984d6252116100cd578063dc5074af11610081578063ecb255b511610066578063ecb255b514610857578063f23a6e6114610874578063f2e7b3811461090957610151565b8063dc5074af14610814578063e56f8a9e1461083a57610151565b8063bc197c81116100b2578063bc197c81146105d3578063c10a420814610735578063caed35001461080c57610151565b8063984d6252146104db578063b522ecff146105ad57610151565b80636e9960c3116101245780638a04af6a116101095780638a04af6a1461032a5780638a12b82f146103585780638f283970146104b557610151565b80636e9960c3146102fe57806377f1c3ac1461032257610151565b806325cb5bc014610156578063495906571461017057806358bc29441461017857806365194ce7146101a0575b600080fd5b61015e610911565b60408051918252519081900360200190f35b61015e610935565b61019e6004803603602081101561018e57600080fd5b50356001600160a01b0316610959565b005b610246600480360360208110156101b657600080fd5b8101906020810181356401000000008111156101d157600080fd5b8201836020820111156101e357600080fd5b8035906020019184600183028401116401000000008311171561020557600080fd5b91908080601f016020809104026020016040519081016040528093929190818152602001838380828437600092019190915250929550610a04945050505050565b6040518080602001866001600160a01b03166001600160a01b03168152602001856001600160a01b03166001600160a01b03168152602001848152602001838152602001828103825287818151815260200191508051906020019080838360005b838110156102bf5781810151838201526020016102a7565b50505050905090810190601f1680156102ec5780820380516001836020036101000a031916815260200191505b50965050505050505060405180910390f35b610306610b09565b604080516001600160a01b039092168252519081900360200190f35b61015e610b18565b61019e6004803603604081101561034057600080fd5b506001600160a01b0381351690602001351515610b1e565b61019e600480360361018081101561036f57600080fd5b6001600160a01b038235811692602081013582169260408201359092169160608201359160808101359160a08201359160c08101359160e0820135916101008101359181019061014081016101208201356401000000008111156103d257600080fd5b8201836020820111156103e457600080fd5b8035906020019184602083028401116401000000008311171561040657600080fd5b91939092909160208101903564010000000081111561042457600080fd5b82018360208201111561043657600080fd5b8035906020019184602083028401116401000000008311171561045857600080fd5b91939092909160208101903564010000000081111561047657600080fd5b82018360208201111561048857600080fd5b803590602001918460018302840111640100000000831117156104aa57600080fd5b509092509050610b75565b61019e600480360360208110156104cb57600080fd5b50356001600160a01b0316610cc3565b61019e600480360360608110156104f157600080fd5b6001600160a01b03823516919081019060408101602082013564010000000081111561051c57600080fd5b82018360208201111561052e57600080fd5b8035906020019184602083028401116401000000008311171561055057600080fd5b91939092909160208101903564010000000081111561056e57600080fd5b82018360208201111561058057600080fd5b803590602001918460208302840111640100000000831117156105a257600080fd5b509092509050610d99565b61019e600480360360208110156105c357600080fd5b50356001600160a01b0316610f24565b610700600480360360a08110156105e957600080fd5b6001600160a01b03823581169260208101359091169181019060608101604082013564010000000081111561061d57600080fd5b82018360208201111561062f57600080fd5b8035906020019184602083028401116401000000008311171561065157600080fd5b91939092909160208101903564010000000081111561066f57600080fd5b82018360208201111561068157600080fd5b803590602001918460208302840111640100000000831117156106a357600080fd5b9193909290916020810190356401000000008111156106c157600080fd5b8201836020820111156106d357600080fd5b803590602001918460018302840111640100000000831117156106f557600080fd5b50909250905061100d565b604080517fffffffff000000000000000000000000000000000000000000000000000000009092168252519081900360200190f35b6107f8600480360360a081101561074b57600080fd5b81019060208101813564010000000081111561076657600080fd5b82018360208201111561077857600080fd5b8035906020019184600183028401116401000000008311171561079a57600080fd5b91908080601f016020809104026020016040519081016040528093929190818152602001838380828437600092019190915250929550506001600160a01b03833581169450602084013516926040810135925060600135905061103a565b604080519115158252519081900360200190f35b610306611176565b6107f86004803603602081101561082a57600080fd5b50356001600160a01b0316611185565b61019e6004803603602081101561085057600080fd5b50356111a3565b61019e6004803603602081101561086d57600080fd5b5035611207565b610700600480360360a081101561088a57600080fd5b6001600160a01b03823581169260208101359091169160408201359160608101359181019060a0810160808201356401000000008111156108ca57600080fd5b8201836020820111156108dc57600080fd5b803590602001918460018302840111640100000000831117156108fe57600080fd5b50909250905061126b565b61015e611296565b7f000000000000000000000000000000000000000000000000000000000000000090565b7f000000000000000000000000000000000000000000000000000000000000000090565b6000546001600160a01b031633146109b8576040805162461bcd60e51b815260206004820152601060248201527f53656e646572206e6f742061646d696e00000000000000000000000000000000604482015290519081900360640190fd5b600554600280546001600160a01b03908116600090815260046020526040902042909301909255805473ffffffffffffffffffffffffffffffffffffffff191692909116919091179055565b606060008060008060606000806000808a80602001905160a0811015610a2957600080fd5b8101908080516040519392919084640100000000821115610a4957600080fd5b908301906020820185811115610a5e57600080fd5b8251640100000000811182820188101715610a7857600080fd5b82525081516020918201929091019080838360005b83811015610aa5578181015183820152602001610a8d565b50505050905090810190601f168015610ad25780820380516001836020036101000a031916815260200191505b5060409081526020820151908201516060830151608090930151959f50909d509b5099509197505050505050505091939590929450565b6000546001600160a01b031690565b60035490565b6000546001600160a01b03163314610b675760405162461bcd60e51b815260040180806020018281038252602e815260200180612198602e913960400191505060405180910390fd5b610b71828261129c565b5050565b610b7f898961131e565b610c048f8e8e8e8e8e8d8d8d80806020026020016040519081016040528093929190818152602001838360200280828437600081840152601f19601f820116905080830192505050505050508c8c8080602002602001604051908101604052809392919081815260200183836020028082843760009201919091525061139892505050565b610c458f8984848080601f01602080910402602001604051908101604052809392919081815260200183838082843760009201919091525061157592505050565b610c758f8f8e8e8e8d7f00000000000000000000000000000000000000000000000000000000000000008f6115c6565b610cb28e87878080602002602001604051908101604052809392919081815260200183836020028082843760009201919091525061189192505050565b505050505050505050505050505050565b6000546001600160a01b03163314610d22576040805162461bcd60e51b815260206004820152601b60248201527f6f6e6c792061646d696e2063616e206368616e67652061646d696e0000000000604482015290519081900360640190fd5b600054604080516001600160a01b039283168152918316602083015280517f7e644d79422f17c01e4894b5f4f588d331ebfa28653d42ae832dc59e38c9798f9281900390910190a16000805473ffffffffffffffffffffffffffffffffffffffff19166001600160a01b0392909216919091179055565b6000546001600160a01b03163314610df8576040805162461bcd60e51b815260206004820152600e60248201527f4e4f545f415554484f52495a4544000000000000000000000000000000000000604482015290519081900360640190fd5b7f00000000000000000000000000000000000000000000000000000000000000006001600160a01b0316632eb2c2d63087878787876040518763ffffffff1660e01b815260040180876001600160a01b03166001600160a01b03168152602001866001600160a01b03166001600160a01b031681526020018060200180602001806020018481038452888882818152602001925060200280828437600083820152601f01601f19169091018581038452868152602090810191508790870280828437600081840152601f19601f8201169050808301925050508481038252600081526020016020019950505050505050505050600060405180830381600087803b158015610f0557600080fd5b505af1158015610f19573d6000803e3d6000fd5b505050505050505050565b6001600160a01b038116610f7f576040805162461bcd60e51b815260206004820152600c60248201527f5a45524f5f414444524553530000000000000000000000000000000000000000604482015290519081900360640190fd5b6000546001600160a01b03163314610fde576040805162461bcd60e51b815260206004820152600e60248201527f4e4f545f415554484f52495a4544000000000000000000000000000000000000604482015290519081900360640190fd5b6006805473ffffffffffffffffffffffffffffffffffffffff19166001600160a01b0392909216919091179055565b7fbc197c810000000000000000000000000000000000000000000000000000000098975050505050505050565b600060035482118061105d5750836001600160a01b0316856001600160a01b0316145b8061106757508242115b156110745750600061116d565b60408051606087811b7fffffffffffffffffffffffffffffffffffffffff0000000000000000000000009081166020808501919091529188901b166034830152604882018690526068808301869052835180840390910181526088830184528051908201207f19457468657265756d205369676e6564204d6573736167653a0a33320000000060a884015260c48084018290528451808503909101815260e4909301909352815191012060009061112b9089611a55565b6001600160a01b03811660009081526004602052604090205490915042116111585760019250505061116d565b6002546001600160a01b039081169116149150505b95945050505050565b6002546001600160a01b031690565b6001600160a01b031660009081526001602052604090205460ff1690565b6000546001600160a01b03163314611202576040805162461bcd60e51b815260206004820152601060248201527f53656e646572206e6f742061646d696e00000000000000000000000000000000604482015290519081900360640190fd5b600355565b6000546001600160a01b03163314611266576040805162461bcd60e51b815260206004820152600e60248201527f4e4f545f415554484f52495a4544000000000000000000000000000000000000604482015290519081900360640190fd5b600755565b7ff23a6e61000000000000000000000000000000000000000000000000000000009695505050505050565b60075490565b6001600160a01b03821660008181526001602090815260409182902080547fffffffffffffffffffffffffffffffffffffffffffffffffffffffffffffff001685151590811790915582519384529083015280517fb21eb88b4e33b3f1281830a7178d74d8aa73220416215726b68ae23d539515cb9281900390910190a15050565b6113456103e861133960075485611b2290919063ffffffff16565b9063ffffffff611b9816565b8114610b71576040805162461bcd60e51b815260206004820152600d60248201527f494e56414c49445f505249434500000000000000000000000000000000000000604482015290519081900360640190fd5b7f0000000000000000000000000000000000000000000000000000000000000000421061140c576040805162461bcd60e51b815260206004820152600c60248201527f53414c455f49535f4f5645520000000000000000000000000000000000000000604482015290519081900360640190fd5b6001600160a01b03891633148061143257503360009081526001602052604090205460ff165b611483576040805162461bcd60e51b815260206004820152600e60248201527f4e4f545f415554484f52495a4544000000000000000000000000000000000000604482015290519081900360640190fd5b6001600160a01b03881615806114aa5750886001600160a01b0316886001600160a01b0316145b6114fb576040805162461bcd60e51b815260206004820152600d60248201527f52455345525645445f4c414e4400000000000000000000000000000000000000604482015290519081900360640190fd5b600061150c888888888d8989611bfd565b90506115188282611ca2565b611569576040805162461bcd60e51b815260206004820152600c60248201527f494e56414c49445f4c414e440000000000000000000000000000000000000000604482015290519081900360640190fd5b50505050505050505050565b60006115818484611d6b565b6006549091506115c0908590839085906001600160a01b03167f0000000000000000000000000000000000000000000000000000000000000000611eb8565b50505050565b83600114806115fc57507f00000000000000000000000000000000000000000000000000000000000000006001600160a01b0316155b156116c357604080517f6e1e3bbf0000000000000000000000000000000000000000000000000000000081526001600160a01b03898116600483015260248201879052604482018990526064820188905260a06084830152600060a4830181905292517f000000000000000000000000000000000000000000000000000000000000000090911692636e1e3bbf9260e4808201939182900301818387803b1580156116a657600080fd5b505af11580156116ba573d6000803e3d6000fd5b50505050611827565b7f00000000000000000000000000000000000000000000000000000000000000006001600160a01b0316636e1e3bbf7f00000000000000000000000000000000000000000000000000000000000000008689898c60405160200180826001600160a01b03166001600160a01b031681526020019150506040516020818303038152906040526040518663ffffffff1660e01b815260040180866001600160a01b03166001600160a01b0316815260200185815260200184815260200183815260200180602001828103825283818151815260200191508051906020019080838360005b838110156117be5781810151838201526020016117a6565b50505050905090810190601f1680156117eb5780820380516001836020036101000a031916815260200191505b509650505050505050600060405180830381600087803b15801561180e57600080fd5b505af1158015611822573d6000803e3d6000fd5b505050505b60408051858152602081018590526001600160a01b03848116828401526060820184905291516101988802890192808b1692908c16917fe4dfa6ac11314892f3029b34a25b1a887da3b1cab2bbf8506d87128ba6e3ac029181900360800190a45050505050505050565b6060815167ffffffffffffffff811180156118ab57600080fd5b506040519080825280602002602001820160405280156118d5578160200160208202803683370190505b50905060005b82518110156119055760018282815181106118f257fe5b60209081029190910101526001016118db565b507f00000000000000000000000000000000000000000000000000000000000000006001600160a01b0316632eb2c2d6308585856040518563ffffffff1660e01b815260040180856001600160a01b03166001600160a01b03168152602001846001600160a01b03166001600160a01b03168152602001806020018060200180602001848103845286818151815260200191508051906020019060200280838360005b838110156119c05781810151838201526020016119a8565b50505050905001848103835285818151815260200191508051906020019060200280838360005b838110156119ff5781810151838201526020016119e7565b50505050905001848103825260008152602001602001975050505050505050600060405180830381600087803b158015611a3857600080fd5b505af1158015611a4c573d6000803e3d6000fd5b50505050505050565b60008151604114611a6557600080fd5b60208201516040830151606084015160001a601b811015611a8457601b015b8060ff16601b1480611a9957508060ff16601c145b611aa257600080fd5b6040805160008152602080820180845289905260ff8416828401526060820186905260808201859052915160019260a0808401939192601f1981019281900390910190855afa158015611af9573d6000803e3d6000fd5b5050604051601f1901519450506001600160a01b038416611b1957600080fd5b50505092915050565b600082611b3157506000611b92565b5081810281838281611b3f57fe5b0414611b92576040805162461bcd60e51b815260206004820152600860248201527f6f766572666c6f77000000000000000000000000000000000000000000000000604482015290519081900360640190fd5b92915050565b600081611bec576040805162461bcd60e51b815260206004820152600960248201527f64697662797a65726f0000000000000000000000000000000000000000000000604482015290519081900360640190fd5b818381611bf557fe5b049392505050565b60008787878787878760405160200180888152602001878152602001868152602001858152602001846001600160a01b03166001600160a01b031660601b8152601401838152602001828051906020019060200280838360005b83811015611c6f578181015183820152602001611c57565b50505050905001975050505050505050604051602081830303815290604052805190602001209050979650505050505050565b600081815b8451811015611d41576000858281518110611cbe57fe5b6020026020010151905080831015611d065782816040516020018083815260200182815260200192505050604051602081830303815290604052805190602001209250611d38565b808360405160200180838152602001828152602001925050506040516020818303038152906040528051906020012092505b50600101611ca7565b507f0000000000000000000000000000000000000000000000000000000000000000149392505050565b600080611d84606461133985600563ffffffff611b2216565b604080516323b872dd60e01b81526001600160a01b0387811660048301527f0000000000000000000000000000000000000000000000000000000000000000811660248301526044820184905291519293507f0000000000000000000000000000000000000000000000000000000000000000909116916323b872dd916064808201926020929091908290030181600087803b158015611e2357600080fd5b505af1158015611e37573d6000803e3d6000fd5b505050506040513d6020811015611e4d57600080fd5b5051611ea0576040805162461bcd60e51b815260206004820152601360248201527f4645455f5452414e534645525f4641494c454400000000000000000000000000604482015290519081900360640190fd5b611eb0838263ffffffff61213a16565b949350505050565b82518190859015612062576060600080600080611ed48a610a04565b9398509196509450925090506000611eef868686868661103a565b15611f7d57611f09611f018d84611b22565b612710611b98565b9050886001600160a01b0316846001600160a01b0316866001600160a01b03167fac7a699eb95c3c6d390ec4626de17ef9a67b35891efdb197beba7c7fdd45fac48f858760405180848152602001838152602001828152602001935050505060405180910390a4611f7a878261213a565b96505b801561205b57604080516323b872dd60e01b81526001600160a01b038f811660048301528781166024830152604482018490529151918a16916323b872dd916064808201926020929091908290030181600087803b158015611fde57600080fd5b505af1158015611ff2573d6000803e3d6000fd5b505050506040513d602081101561200857600080fd5b505161205b576040805162461bcd60e51b815260206004820152601960248201527f636f6d6d6973696f6e207472616e73666572206661696c656400000000000000604482015290519081900360640190fd5b5050505050505b604080516323b872dd60e01b81526001600160a01b0389811660048301528681166024830152604482018490529151918416916323b872dd916064808201926020929091908290030181600087803b1580156120bd57600080fd5b505af11580156120d1573d6000803e3d6000fd5b505050506040513d60208110156120e757600080fd5b5051611a4c576040805162461bcd60e51b815260206004820152601760248201527f7061796d656e74207472616e73666572206661696c6564000000000000000000604482015290519081900360640190fd5b600082821115612191576040805162461bcd60e51b815260206004820152600860248201527f756e6465666c6f77000000000000000000000000000000000000000000000000604482015290519081900360640190fd5b5090039056fe6f6e6c792061646d696e2063616e207365747570206d6574615472616e73616374696f6e50726f636573736f7273a26469706673582212200ff38c5741c66b2a22a9a9ee2abe0f55626323082b6b4443921fd3b25484584a64736f6c63430006050033",
  "devdoc": {
    "methods": {
      "buyLandWithSand(address,address,address,uint256,uint256,uint256,uint256,uint256,bytes32,uint256[],bytes32[],bytes)": {
        "params": {
          "buyer": "address that perform the payment",
          "priceInSand": "price in SAND to purchase that Land",
          "proof": "merkleProof for that particular Land",
          "reserved": "the reserved address (if any)",
          "size": "size of the pack of Land to purchase",
          "to": "address that will own the purchased Land",
          "x": "x coordinate of the Land",
          "y": "y coordinate of the Land"
        }
      },
      "changeAdmin(address)": {
        "details": "change the administrator to be `newAdmin`.",
        "params": {
          "newAdmin": "address of the new administrator."
        }
      },
      "getAdmin()": {
        "details": "gives the current administrator of this contract.",
        "returns": {
          "_0": "the current administrator of this contract."
        }
      },
      "getSigningWallet()": {
        "details": "signing wallet authorized for referral",
        "returns": {
          "_0": "the address of the signing wallet"
        }
      },
      "isMetaTransactionProcessor(address)": {
        "details": "check whether address `who` is given meta-transaction execution rights.",
        "params": {
          "who": "The address to query."
        },
        "returns": {
          "_0": "whether the address has meta-transaction execution rights."
        }
      },
      "isReferralValid(bytes,address,address,uint256,uint256)": {
        "params": {
          "commissionRate": "The commissionRate of the referral",
          "expiryTime": "The expiry time of the referral",
          "referee": "The address of the referee",
          "referrer": "The address of the referrer",
          "signature": "The signature to check (signed referral)"
        },
        "returns": {
          "_0": "True if the referral is valid"
        }
      },
      "setMetaTransactionProcessor(address,bool)": {
        "details": "Enable or disable the ability of `metaTransactionProcessor` to perform meta-tx (metaTransactionProcessor rights).",
        "params": {
          "enabled": "set whether the metaTransactionProcessor is enabled or disabled.",
          "metaTransactionProcessor": "address that will be given/removed metaTransactionProcessor rights."
        }
      },
      "setReceivingWallet(address)": {
        "params": {
          "newWallet": "address of the new receiving wallet"
        }
      },
      "updateMaxCommissionRate(uint256)": {
        "details": "Update the maximum commission rate",
        "params": {
          "newMaxCommissionRate": "The new maximum commission rate"
        }
      },
      "updateSigningWallet(address)": {
        "details": "Update the signing wallet",
        "params": {
          "newSigningWallet": "The new address of the signing wallet"
        }
      },
      "withdrawAssets(address,uint256[],uint256[])": {
        "params": {
          "assetIds": "the assetIds to be transferred",
          "to": "intended recipient of the asset tokens",
          "values": "the quantities of the assetIds to be transferred"
        }
      }
    },
    "title": "Estate Sale contract with referral"
  },
  "userdoc": {
    "methods": {
      "buyLandWithSand(address,address,address,uint256,uint256,uint256,uint256,uint256,bytes32,uint256[],bytes32[],bytes)": {
        "notice": "buy Land with SAND using the merkle proof associated with it"
      },
      "getExpiryTime()": {
        "notice": "Gets the expiry time for the current sale"
      },
      "getMaxCommisionRate()": {
        "notice": "the max commision rate"
      },
      "getMerkleRoot()": {
        "notice": "Gets the Merkle root associated with the current sale"
      },
      "isReferralValid(bytes,address,address,uint256,uint256)": {
        "notice": "Check if a referral is valid"
      },
      "setReceivingWallet(address)": {
        "notice": "set the wallet receiving the proceeds"
      },
      "withdrawAssets(address,uint256[],uint256[])": {
        "notice": "enable Admin to withdraw remaining assets from EstateSaleWithFee contract"
      }
    },
    "notice": "This contract manages the sale of our lands as Estates"
  },
  "storageLayout": {
    "storage": [
      {
        "astId": 12779,
        "contract": "src/solc_0.6/EstateSale/EstateSaleWithFee.sol:EstateSaleWithFee",
        "label": "_admin",
        "offset": 0,
        "slot": "0",
        "type": "t_address"
      },
      {
        "astId": 12841,
        "contract": "src/solc_0.6/EstateSale/EstateSaleWithFee.sol:EstateSaleWithFee",
        "label": "_metaTransactionContracts",
        "offset": 0,
        "slot": "1",
        "type": "t_mapping(t_address,t_bool)"
      },
      {
        "astId": 10957,
        "contract": "src/solc_0.6/EstateSale/EstateSaleWithFee.sol:EstateSaleWithFee",
        "label": "_signingWallet",
        "offset": 0,
        "slot": "2",
        "type": "t_address"
      },
      {
        "astId": 10959,
        "contract": "src/solc_0.6/EstateSale/EstateSaleWithFee.sol:EstateSaleWithFee",
        "label": "_maxCommissionRate",
        "offset": 0,
        "slot": "3",
        "type": "t_uint256"
      },
      {
        "astId": 10963,
        "contract": "src/solc_0.6/EstateSale/EstateSaleWithFee.sol:EstateSaleWithFee",
        "label": "_previousSigningWallets",
        "offset": 0,
        "slot": "4",
        "type": "t_mapping(t_address,t_uint256)"
      },
      {
        "astId": 10972,
        "contract": "src/solc_0.6/EstateSale/EstateSaleWithFee.sol:EstateSaleWithFee",
        "label": "_previousSigningDelay",
        "offset": 0,
        "slot": "5",
        "type": "t_uint256"
      },
      {
        "astId": 7344,
        "contract": "src/solc_0.6/EstateSale/EstateSaleWithFee.sol:EstateSaleWithFee",
        "label": "_wallet",
        "offset": 0,
        "slot": "6",
        "type": "t_address_payable"
      },
      {
        "astId": 7354,
        "contract": "src/solc_0.6/EstateSale/EstateSaleWithFee.sol:EstateSaleWithFee",
        "label": "_multiplier",
        "offset": 0,
        "slot": "7",
        "type": "t_uint256"
      }
    ],
    "types": {
      "t_address": {
        "encoding": "inplace",
        "label": "address",
        "numberOfBytes": "20"
      },
      "t_address_payable": {
        "encoding": "inplace",
        "label": "address payable",
        "numberOfBytes": "20"
      },
      "t_bool": {
        "encoding": "inplace",
        "label": "bool",
        "numberOfBytes": "1"
      },
      "t_mapping(t_address,t_bool)": {
        "encoding": "mapping",
        "key": "t_address",
        "label": "mapping(address => bool)",
        "numberOfBytes": "32",
        "value": "t_bool"
      },
      "t_mapping(t_address,t_uint256)": {
        "encoding": "mapping",
        "key": "t_address",
        "label": "mapping(address => uint256)",
        "numberOfBytes": "32",
        "value": "t_uint256"
      },
      "t_uint256": {
        "encoding": "inplace",
        "label": "uint256",
        "numberOfBytes": "32"
      }
    }
  }
}