{
  "address": "0xb9bECa40F6E28d27b1B49FD98ad5b2a3bc1D9A6B",
  "abi": [
    {
      "inputs": [
        {
          "internalType": "address",
          "name": "landAddress",
          "type": "address"
        },
        {
          "internalType": "address",
          "name": "sandContractAddress",
          "type": "address"
        },
        {
          "internalType": "address",
          "name": "initialMetaTx",
          "type": "address"
        },
        {
          "internalType": "address",
          "name": "admin",
          "type": "address"
        },
        {
          "internalType": "address payable",
          "name": "initialWalletAddress",
          "type": "address"
        },
        {
          "internalType": "bytes32",
          "name": "merkleRoot",
          "type": "bytes32"
        },
        {
          "internalType": "uint256",
          "name": "expiryTime",
          "type": "uint256"
        },
        {
          "internalType": "address",
          "name": "initialSigningWallet",
          "type": "address"
        },
        {
          "internalType": "uint256",
          "name": "initialMaxCommissionRate",
          "type": "uint256"
        },
        {
          "internalType": "address",
          "name": "estate",
          "type": "address"
        },
        {
          "internalType": "address",
          "name": "asset",
          "type": "address"
        },
        {
          "internalType": "address",
          "name": "feeDistributor",
          "type": "address"
        }
      ],
      "stateMutability": "nonpayable",
      "type": "constructor"
    },
    {
      "anonymous": false,
      "inputs": [
        {
          "indexed": false,
          "internalType": "address",
          "name": "oldAdmin",
          "type": "address"
        },
        {
          "indexed": false,
          "internalType": "address",
          "name": "newAdmin",
          "type": "address"
        }
      ],
      "name": "AdminChanged",
      "type": "event"
    },
    {
      "anonymous": false,
      "inputs": [
        {
          "indexed": true,
          "internalType": "address",
          "name": "buyer",
          "type": "address"
        },
        {
          "indexed": true,
          "internalType": "address",
          "name": "to",
          "type": "address"
        },
        {
          "indexed": true,
          "internalType": "uint256",
          "name": "topCornerId",
          "type": "uint256"
        },
        {
          "indexed": false,
          "internalType": "uint256",
          "name": "size",
          "type": "uint256"
        },
        {
          "indexed": false,
          "internalType": "uint256",
          "name": "price",
          "type": "uint256"
        },
        {
          "indexed": false,
          "internalType": "address",
          "name": "token",
          "type": "address"
        },
        {
          "indexed": false,
          "internalType": "uint256",
          "name": "amountPaid",
          "type": "uint256"
        }
      ],
      "name": "LandQuadPurchased",
      "type": "event"
    },
    {
      "anonymous": false,
      "inputs": [
        {
          "indexed": false,
          "internalType": "address",
          "name": "metaTransactionProcessor",
          "type": "address"
        },
        {
          "indexed": false,
          "internalType": "bool",
          "name": "enabled",
          "type": "bool"
        }
      ],
      "name": "MetaTransactionProcessor",
      "type": "event"
    },
    {
      "anonymous": false,
      "inputs": [
        {
          "indexed": true,
          "internalType": "address",
          "name": "referrer",
          "type": "address"
        },
        {
          "indexed": true,
          "internalType": "address",
          "name": "referee",
          "type": "address"
        },
        {
          "indexed": true,
          "internalType": "address",
          "name": "token",
          "type": "address"
        },
        {
          "indexed": false,
          "internalType": "uint256",
          "name": "amount",
          "type": "uint256"
        },
        {
          "indexed": false,
          "internalType": "uint256",
          "name": "commission",
          "type": "uint256"
        },
        {
          "indexed": false,
          "internalType": "uint256",
          "name": "commissionRate",
          "type": "uint256"
        }
      ],
      "name": "ReferralUsed",
      "type": "event"
    },
    {
      "inputs": [
        {
          "internalType": "address",
          "name": "buyer",
          "type": "address"
        },
        {
          "internalType": "address",
          "name": "to",
          "type": "address"
        },
        {
          "internalType": "address",
          "name": "reserved",
          "type": "address"
        },
        {
          "internalType": "uint256",
          "name": "x",
          "type": "uint256"
        },
        {
          "internalType": "uint256",
          "name": "y",
          "type": "uint256"
        },
        {
          "internalType": "uint256",
          "name": "size",
          "type": "uint256"
        },
        {
          "internalType": "uint256",
          "name": "priceInSand",
          "type": "uint256"
        },
        {
          "internalType": "uint256",
          "name": "adjustedPriceInSand",
          "type": "uint256"
        },
        {
          "internalType": "bytes32",
          "name": "salt",
          "type": "bytes32"
        },
        {
          "internalType": "uint256[]",
          "name": "assetIds",
          "type": "uint256[]"
        },
        {
          "internalType": "bytes32[]",
          "name": "proof",
          "type": "bytes32[]"
        },
        {
          "internalType": "bytes",
          "name": "referral",
          "type": "bytes"
        }
      ],
      "name": "buyLandWithSand",
      "outputs": [],
      "stateMutability": "nonpayable",
      "type": "function"
    },
    {
      "inputs": [
        {
          "internalType": "address",
          "name": "newAdmin",
          "type": "address"
        }
      ],
      "name": "changeAdmin",
      "outputs": [],
      "stateMutability": "nonpayable",
      "type": "function"
    },
    {
      "inputs": [
        {
          "internalType": "bytes",
          "name": "referral",
          "type": "bytes"
        }
      ],
      "name": "decodeReferral",
      "outputs": [
        {
          "internalType": "bytes",
          "name": "",
          "type": "bytes"
        },
        {
          "internalType": "address",
          "name": "",
          "type": "address"
        },
        {
          "internalType": "address",
          "name": "",
          "type": "address"
        },
        {
          "internalType": "uint256",
          "name": "",
          "type": "uint256"
        },
        {
          "internalType": "uint256",
          "name": "",
          "type": "uint256"
        }
      ],
      "stateMutability": "pure",
      "type": "function"
    },
    {
      "inputs": [],
      "name": "getAdmin",
      "outputs": [
        {
          "internalType": "address",
          "name": "",
          "type": "address"
        }
      ],
      "stateMutability": "view",
      "type": "function"
    },
    {
      "inputs": [],
      "name": "getExpiryTime",
      "outputs": [
        {
          "internalType": "uint256",
          "name": "",
          "type": "uint256"
        }
      ],
      "stateMutability": "view",
      "type": "function"
    },
    {
      "inputs": [],
      "name": "getMaxCommisionRate",
      "outputs": [
        {
          "internalType": "uint256",
          "name": "",
          "type": "uint256"
        }
      ],
      "stateMutability": "view",
      "type": "function"
    },
    {
      "inputs": [],
      "name": "getMerkleRoot",
      "outputs": [
        {
          "internalType": "bytes32",
          "name": "",
          "type": "bytes32"
        }
      ],
      "stateMutability": "view",
      "type": "function"
    },
    {
      "inputs": [],
      "name": "getSandMultiplier",
      "outputs": [
        {
          "internalType": "uint256",
          "name": "",
          "type": "uint256"
        }
      ],
      "stateMutability": "view",
      "type": "function"
    },
    {
      "inputs": [],
      "name": "getSigningWallet",
      "outputs": [
        {
          "internalType": "address",
          "name": "",
          "type": "address"
        }
      ],
      "stateMutability": "view",
      "type": "function"
    },
    {
      "inputs": [
        {
          "internalType": "address",
          "name": "who",
          "type": "address"
        }
      ],
      "name": "isMetaTransactionProcessor",
      "outputs": [
        {
          "internalType": "bool",
          "name": "",
          "type": "bool"
        }
      ],
      "stateMutability": "view",
      "type": "function"
    },
    {
      "inputs": [
        {
          "internalType": "bytes",
          "name": "signature",
          "type": "bytes"
        },
        {
          "internalType": "address",
          "name": "referrer",
          "type": "address"
        },
        {
          "internalType": "address",
          "name": "referee",
          "type": "address"
        },
        {
          "internalType": "uint256",
          "name": "expiryTime",
          "type": "uint256"
        },
        {
          "internalType": "uint256",
          "name": "commissionRate",
          "type": "uint256"
        }
      ],
      "name": "isReferralValid",
      "outputs": [
        {
          "internalType": "bool",
          "name": "",
          "type": "bool"
        }
      ],
      "stateMutability": "view",
      "type": "function"
    },
    {
      "inputs": [
        {
          "internalType": "address",
          "name": "",
          "type": "address"
        },
        {
          "internalType": "address",
          "name": "",
          "type": "address"
        },
        {
          "internalType": "uint256[]",
          "name": "",
          "type": "uint256[]"
        },
        {
          "internalType": "uint256[]",
          "name": "",
          "type": "uint256[]"
        },
        {
          "internalType": "bytes",
          "name": "",
          "type": "bytes"
        }
      ],
      "name": "onERC1155BatchReceived",
      "outputs": [
        {
          "internalType": "bytes4",
          "name": "",
          "type": "bytes4"
        }
      ],
      "stateMutability": "pure",
      "type": "function"
    },
    {
      "inputs": [
        {
          "internalType": "address",
          "name": "",
          "type": "address"
        },
        {
          "internalType": "address",
          "name": "",
          "type": "address"
        },
        {
          "internalType": "uint256",
          "name": "",
          "type": "uint256"
        },
        {
          "internalType": "uint256",
          "name": "",
          "type": "uint256"
        },
        {
          "internalType": "bytes",
          "name": "",
          "type": "bytes"
        }
      ],
      "name": "onERC1155Received",
      "outputs": [
        {
          "internalType": "bytes4",
          "name": "",
          "type": "bytes4"
        }
      ],
      "stateMutability": "pure",
      "type": "function"
    },
    {
      "inputs": [
        {
          "internalType": "uint256",
          "name": "newMultiplier",
          "type": "uint256"
        }
      ],
      "name": "rebalanceSand",
      "outputs": [],
      "stateMutability": "nonpayable",
      "type": "function"
    },
    {
      "inputs": [
        {
          "internalType": "address",
          "name": "metaTransactionProcessor",
          "type": "address"
        },
        {
          "internalType": "bool",
          "name": "enabled",
          "type": "bool"
        }
      ],
      "name": "setMetaTransactionProcessor",
      "outputs": [],
      "stateMutability": "nonpayable",
      "type": "function"
    },
    {
      "inputs": [
        {
          "internalType": "address payable",
          "name": "newWallet",
          "type": "address"
        }
      ],
      "name": "setReceivingWallet",
      "outputs": [],
      "stateMutability": "nonpayable",
      "type": "function"
    },
    {
      "inputs": [
        {
          "internalType": "uint256",
          "name": "newMaxCommissionRate",
          "type": "uint256"
        }
      ],
      "name": "updateMaxCommissionRate",
      "outputs": [],
      "stateMutability": "nonpayable",
      "type": "function"
    },
    {
      "inputs": [
        {
          "internalType": "address",
          "name": "newSigningWallet",
          "type": "address"
        }
      ],
      "name": "updateSigningWallet",
      "outputs": [],
      "stateMutability": "nonpayable",
      "type": "function"
    },
    {
      "inputs": [
        {
          "internalType": "address",
          "name": "to",
          "type": "address"
        },
        {
          "internalType": "uint256[]",
          "name": "assetIds",
          "type": "uint256[]"
        },
        {
          "internalType": "uint256[]",
          "name": "values",
          "type": "uint256[]"
        }
      ],
      "name": "withdrawAssets",
      "outputs": [],
      "stateMutability": "nonpayable",
      "type": "function"
    }
  ],
  "transactionHash": "0x459a1aaa61b80dac138a1d41b8d731f9c7fb6b5058578d56b65caa6206f6d100",
  "args": [
    "0x50f5474724e0Ee42D9a4e711ccFB275809Fd6d4a",
    "0x3845badAde8e6dFF049820680d1F14bD3903a5d0",
    "0x3845badAde8e6dFF049820680d1F14bD3903a5d0",
    "0x18dd4e0eb8699eA4FeE238dE41ECfb95e32272f8",
    "0x4489590a116618B506F0EfE885432F6A8ED998E9",
    "0x97a3b226c9d3a7d717d4e0271d4b248acaec280c4fda136a55c4ba151e5ec72b",
    1618966800,
    "0x3044719d139F866a44c988823513eCB93060bF1b",
    2000,
    "0x0000000000000000000000000000000000000000",
    "0xa342f5D851E866E18ff98F351f2c6637f4478dB5",
    "0x0EB04462D69B1D267d269377E34f60b9De1c8510"
  ],
  "linkedData": [
    {
      "x": 324,
      "y": 288,
      "size": 1,
      "price": "4683000000000000000000",
      "reserved": "",
      "salt": "0xd6b7cab1a3f874dc3f7b07bf319dda9ef7e871fd12638682f475dd6240699992",
      "assetIds": [
        "55464657044963196816950587289035428064568320970692304673817341489687656669185",
        "55464657044963196816950587289035428064568320970692304673817341489687665059844",
        "55464657044963196816950587289035428064568320970692304673817341489687665059840"
      ]
    },
    {
      "x": 324,
      "y": 289,
      "size": 1,
      "price": "4683000000000000000000",
      "reserved": "",
      "salt": "0xf0aadf1971e91489371c56d70cf50ceb1bdffbd314ba2ea67b0f649c41f5fc6d",
      "assetIds": [
        "55464657044963196816950587289035428064568320970692304673817341489687656669185",
        "55464657044963196816950587289035428064568320970692304673817341489687665059843",
        "55464657044963196816950587289035428064568320970692304673817341489687665059840"
      ]
    },
    {
      "x": 324,
      "y": 290,
      "size": 1,
      "price": "1011000000000000000000",
      "reserved": "0x7a9fe22691c811ea339d9b73150e6911a5343dca",
      "salt": "0x81252c76dc4af34e2f32ac684c0d18144caa72694081f1535bfd2eeb3c0918e9",
      "assetIds": []
    },
    {
      "x": 324,
      "y": 291,
      "size": 1,
      "price": "4683000000000000000000",
      "reserved": "",
      "salt": "0x851006f708b9c354f0dd21ae2b64d96458874672dc7356cff6a1fea0918b7ed2",
      "assetIds": [
        "55464657044963196816950587289035428064568320970692304673817341489687656669187",
        "55464657044963196816950587289035428064568320970692304673817341489687665059844",
        "55464657044963196816950587289035428064568320970692304673817341489687665059841"
      ]
    },
    {
      "x": 324,
      "y": 292,
      "size": 1,
      "price": "4683000000000000000000",
      "reserved": "",
      "salt": "0x068e599c4ea78932eae9b9c606292f0f5376bd656bbf4fed4e846e4edc2da895",
      "assetIds": [
        "55464657044963196816950587289035428064568320970692304673817341489687656669187",
        "55464657044963196816950587289035428064568320970692304673817341489687665059844",
        "55464657044963196816950587289035428064568320970692304673817341489687665059841"
      ]
    },
    {
      "x": 324,
      "y": 293,
      "size": 1,
      "price": "4683000000000000000000",
      "reserved": "",
      "salt": "0xc80fe51d5b8542f61507bd1fcae66fff54f57586aba394679fed42ec7aac92c4",
      "assetIds": [
        "55464657044963196816950587289035428064568320970692304673817341489687656669185",
        "55464657044963196816950587289035428064568320970692304673817341489687665059843",
        "55464657044963196816950587289035428064568320970692304673817341489687665059840"
      ]
    },
    {
      "x": 324,
      "y": 294,
      "size": 1,
      "price": "4683000000000000000000",
      "reserved": "",
      "salt": "0x473239b646164db5cc7e2dda9f52e6718d26d1333ba3cc3c2cfc3ede61351159",
      "assetIds": [
        "55464657044963196816950587289035428064568320970692304673817341489687656669186",
        "55464657044963196816950587289035428064568320970692304673817341489687665059843",
        "55464657044963196816950587289035428064568320970692304673817341489687665059841"
      ]
    },
    {
      "x": 324,
      "y": 295,
      "size": 1,
      "price": "4683000000000000000000",
      "reserved": "",
      "salt": "0xc51e5505be2d82df1eb20f79aafd6750420ba8eb64c799a1b4487080d660b99c",
      "assetIds": [
        "55464657044963196816950587289035428064568320970692304673817341489687656669185",
        "55464657044963196816950587289035428064568320970692304673817341489687665059844",
        "55464657044963196816950587289035428064568320970692304673817341489687665059840"
      ]
    },
    {
      "x": 324,
      "y": 296,
      "size": 1,
      "price": "4683000000000000000000",
      "reserved": "",
      "salt": "0x78126302e6dd7894a59b95b29ca9be984a2810a4aefdc11d74d12680b783a79a",
      "assetIds": [
        "55464657044963196816950587289035428064568320970692304673817341489687656669187",
        "55464657044963196816950587289035428064568320970692304673817341489687665059843",
        "55464657044963196816950587289035428064568320970692304673817341489687665059841"
      ]
    },
    {
      "x": 324,
      "y": 297,
      "size": 1,
      "price": "4683000000000000000000",
      "reserved": "",
      "salt": "0x101605455f54730610e8086ad9c388fe80313ffafe8c6dc084f3a583a7265e9f",
      "assetIds": [
        "55464657044963196816950587289035428064568320970692304673817341489687656669187",
        "55464657044963196816950587289035428064568320970692304673817341489687665059843",
        "55464657044963196816950587289035428064568320970692304673817341489687665059841"
      ]
    },
    {
      "x": 325,
      "y": 288,
      "size": 1,
      "price": "4683000000000000000000",
      "reserved": "",
      "salt": "0x1bf57a814cf18d81f4602e3dcc780d7203966aef5bdf489844ced1eb729d5a85",
      "assetIds": [
        "55464657044963196816950587289035428064568320970692304673817341489687656669187",
        "55464657044963196816950587289035428064568320970692304673817341489687665059842",
        "55464657044963196816950587289035428064568320970692304673817341489687665059841"
      ]
    },
    {
      "x": 325,
      "y": 289,
      "size": 1,
      "price": "4683000000000000000000",
      "reserved": "",
      "salt": "0xa4c509402dfc2fb0d1398107a98bf517ba8a46f2abbb35fdc0a796bebb32cdf6",
      "assetIds": [
        "55464657044963196816950587289035428064568320970692304673817341489687656669184",
        "55464657044963196816950587289035428064568320970692304673817341489687665059844",
        "55464657044963196816950587289035428064568320970692304673817341489687665059840"
      ]
    },
    {
      "x": 325,
      "y": 290,
      "size": 1,
      "price": "4683000000000000000000",
      "reserved": "",
      "salt": "0xe80c96fe8447cf44e5d7c23238bec6eac773773840919f0e0da52412f2629c1a",
      "assetIds": [
        "55464657044963196816950587289035428064568320970692304673817341489687656669187",
        "55464657044963196816950587289035428064568320970692304673817341489687665059844",
        "55464657044963196816950587289035428064568320970692304673817341489687665059841"
      ]
    },
    {
      "x": 325,
      "y": 291,
      "size": 1,
      "price": "4683000000000000000000",
      "reserved": "",
      "salt": "0xcc905888e682565ca44f5d439707e4ef0cb48123d9ca500db1f2464c34be4686",
      "assetIds": [
        "55464657044963196816950587289035428064568320970692304673817341489687656669185",
        "55464657044963196816950587289035428064568320970692304673817341489687665059843",
        "55464657044963196816950587289035428064568320970692304673817341489687665059840"
      ]
    },
    {
      "x": 325,
      "y": 292,
      "size": 1,
      "price": "4683000000000000000000",
      "reserved": "",
      "salt": "0xc2150c1ec9fd447f45f844394a3445e911abb98b5895aa5b8f3efc9f95837b94",
      "assetIds": [
        "55464657044963196816950587289035428064568320970692304673817341489687656669185",
        "55464657044963196816950587289035428064568320970692304673817341489687665059844",
        "55464657044963196816950587289035428064568320970692304673817341489687665059840"
      ]
    },
    {
      "x": 325,
      "y": 293,
      "size": 1,
      "price": "4683000000000000000000",
      "reserved": "",
      "salt": "0x3fdba3fc4358519834e7a447af87d845d2b8f8feee6aaa49f1149486969dd910",
      "assetIds": [
        "55464657044963196816950587289035428064568320970692304673817341489687656669187",
        "55464657044963196816950587289035428064568320970692304673817341489687665059842",
        "55464657044963196816950587289035428064568320970692304673817341489687665059841"
      ]
    },
    {
      "x": 325,
      "y": 294,
      "size": 1,
      "price": "4683000000000000000000",
      "reserved": "",
      "salt": "0x258b5b25ce7a9e27009fc4234f050413589c52b5927198f306dcd641f4e2513e",
      "assetIds": [
        "55464657044963196816950587289035428064568320970692304673817341489687656669184",
        "55464657044963196816950587289035428064568320970692304673817341489687665059843",
        "55464657044963196816950587289035428064568320970692304673817341489687665059840"
      ]
    },
    {
      "x": 325,
      "y": 295,
      "size": 1,
      "price": "4683000000000000000000",
      "reserved": "",
      "salt": "0x9bea10f3be78fe93e4f0d1e864c127356ce74a13e295acf79904030d56ad0515",
      "assetIds": [
        "55464657044963196816950587289035428064568320970692304673817341489687656669184",
        "55464657044963196816950587289035428064568320970692304673817341489687665059843",
        "55464657044963196816950587289035428064568320970692304673817341489687665059840"
      ]
    },
    {
      "x": 325,
      "y": 296,
      "size": 1,
      "price": "4683000000000000000000",
      "reserved": "",
      "salt": "0x8d80b6a4e91b2547d870f739eb3dc40448fdd6215760963d3b4d8d4ea16fd406",
      "assetIds": [
        "55464657044963196816950587289035428064568320970692304673817341489687656669187",
        "55464657044963196816950587289035428064568320970692304673817341489687665059842",
        "55464657044963196816950587289035428064568320970692304673817341489687665059841"
      ]
    },
    {
      "x": 325,
      "y": 297,
      "size": 1,
      "price": "4683000000000000000000",
      "reserved": "",
      "salt": "0xebc5aa2745729de6cc7d1f2ef92b32a1321322c786058ab8c5498a5dfcc2513b",
      "assetIds": [
        "55464657044963196816950587289035428064568320970692304673817341489687656669184",
        "55464657044963196816950587289035428064568320970692304673817341489687665059843",
        "55464657044963196816950587289035428064568320970692304673817341489687665059840"
      ]
    },
    {
      "x": 326,
      "y": 288,
      "size": 1,
      "price": "4683000000000000000000",
      "reserved": "",
      "salt": "0x5c5ddc2a8e22bcf789860fb8d2c537e11ea7073fae71254910c4873628d881c2",
      "assetIds": [
        "55464657044963196816950587289035428064568320970692304673817341489687656669184",
        "55464657044963196816950587289035428064568320970692304673817341489687665059843",
        "55464657044963196816950587289035428064568320970692304673817341489687665059840"
      ]
    },
    {
      "x": 326,
      "y": 289,
      "size": 1,
      "price": "4683000000000000000000",
      "reserved": "",
      "salt": "0x7fafa5d3b6b4f4fa109f513cd9bbfd7ab0c63f0349b615e0d8625a8ee3650831",
      "assetIds": [
        "55464657044963196816950587289035428064568320970692304673817341489687656669184",
        "55464657044963196816950587289035428064568320970692304673817341489687665059842",
        "55464657044963196816950587289035428064568320970692304673817341489687665059840"
      ]
    },
    {
      "x": 326,
      "y": 290,
      "size": 1,
      "price": "4683000000000000000000",
      "reserved": "",
      "salt": "0xc578d55c61d3871b4787ad560deacf1d01c4ee1a1df4ac1def16c2b5efaa974b",
      "assetIds": [
        "55464657044963196816950587289035428064568320970692304673817341489687656669185",
        "55464657044963196816950587289035428064568320970692304673817341489687665059843",
        "55464657044963196816950587289035428064568320970692304673817341489687665059840"
      ]
    },
    {
      "x": 326,
      "y": 291,
      "size": 1,
      "price": "4683000000000000000000",
      "reserved": "",
      "salt": "0x90344b7a1e72b771c8f0ba4c94ef1efbad4e90c32a5754586ddbadd51f71ebfa",
      "assetIds": [
        "55464657044963196816950587289035428064568320970692304673817341489687656669186",
        "55464657044963196816950587289035428064568320970692304673817341489687665059843",
        "55464657044963196816950587289035428064568320970692304673817341489687665059841"
      ]
    },
    {
      "x": 326,
      "y": 292,
      "size": 1,
      "price": "4683000000000000000000",
      "reserved": "",
      "salt": "0x3f7c4fc754d0920332577051e98852597f054d0f7e118018b9d5308574ecbc73",
      "assetIds": [
        "55464657044963196816950587289035428064568320970692304673817341489687656669186",
        "55464657044963196816950587289035428064568320970692304673817341489687665059842",
        "55464657044963196816950587289035428064568320970692304673817341489687665059841"
      ]
    },
    {
      "x": 326,
      "y": 293,
      "size": 1,
      "price": "4683000000000000000000",
      "reserved": "",
      "salt": "0xccf81ead295e15c1a6808218ff92f80cad471e1466c2dcd34dbea82705b303aa",
      "assetIds": [
        "55464657044963196816950587289035428064568320970692304673817341489687656669186",
        "55464657044963196816950587289035428064568320970692304673817341489687665059842",
        "55464657044963196816950587289035428064568320970692304673817341489687665059841"
      ]
    },
    {
      "x": 326,
      "y": 294,
      "size": 1,
      "price": "4683000000000000000000",
      "reserved": "",
      "salt": "0xd90353029c8c389e2bc0ecb7f756a63d5e331b39f68135e1e6da782b07fbca08",
      "assetIds": [
        "55464657044963196816950587289035428064568320970692304673817341489687656669186",
        "55464657044963196816950587289035428064568320970692304673817341489687665059843",
        "55464657044963196816950587289035428064568320970692304673817341489687665059841"
      ]
    },
    {
      "x": 326,
      "y": 295,
      "size": 1,
      "price": "4683000000000000000000",
      "reserved": "",
      "salt": "0x1458f17e9c31d9dfdf7fc7ace54c00270f9bfb85b10edbdef1e6e0a59a355bca",
      "assetIds": [
        "55464657044963196816950587289035428064568320970692304673817341489687656669184",
        "55464657044963196816950587289035428064568320970692304673817341489687665059844",
        "55464657044963196816950587289035428064568320970692304673817341489687665059840"
      ]
    },
    {
      "x": 326,
      "y": 296,
      "size": 1,
      "price": "4683000000000000000000",
      "reserved": "",
      "salt": "0x9da8c9b2457a8a5229e07756978d1833c67dcdbea378b84e02d31fdc93ea7b86",
      "assetIds": [
        "55464657044963196816950587289035428064568320970692304673817341489687656669184",
        "55464657044963196816950587289035428064568320970692304673817341489687665059844",
        "55464657044963196816950587289035428064568320970692304673817341489687665059840"
      ]
    },
    {
      "x": 326,
      "y": 297,
      "size": 1,
      "price": "4683000000000000000000",
      "reserved": "",
      "salt": "0xd682be047ec0b82e95f976427615e8c456816f4b6549b1dca8296c25825102c1",
      "assetIds": [
        "55464657044963196816950587289035428064568320970692304673817341489687656669185",
        "55464657044963196816950587289035428064568320970692304673817341489687665059844",
        "55464657044963196816950587289035428064568320970692304673817341489687665059840"
      ]
    },
    {
      "x": 326,
      "y": 298,
      "size": 1,
      "price": "4683000000000000000000",
      "reserved": "",
      "salt": "0xbd134ee005876a5e000fd20ec4702bdc797058960ffbf1095970da0643e343d0",
      "assetIds": [
        "55464657044963196816950587289035428064568320970692304673817341489687656669184",
        "55464657044963196816950587289035428064568320970692304673817341489687665059843",
        "55464657044963196816950587289035428064568320970692304673817341489687665059840"
      ]
    },
    {
      "x": 326,
      "y": 299,
      "size": 1,
      "price": "4683000000000000000000",
      "reserved": "",
      "salt": "0x03f05ad7449fdcdb9e720f26da6265252620ef896247d54debc5e88dc6ab113f",
      "assetIds": [
        "55464657044963196816950587289035428064568320970692304673817341489687656669184",
        "55464657044963196816950587289035428064568320970692304673817341489687665059843",
        "55464657044963196816950587289035428064568320970692304673817341489687665059840"
      ]
    },
    {
      "x": 327,
      "y": 288,
      "size": 1,
      "price": "1011000000000000000000",
      "reserved": "0x7a9fe22691c811ea339d9b73150e6911a5343dca",
      "salt": "0xf9ea132626c6f4d79790939cf5836546ccfcf25bb41ae4f5bfc599b4f1b35123",
      "assetIds": []
    },
    {
      "x": 327,
      "y": 289,
      "size": 1,
      "price": "4683000000000000000000",
      "reserved": "",
      "salt": "0xdb18b982873f132ac50441a83d854ac8abc986df0d468c07658f818c0011d1c5",
      "assetIds": [
        "55464657044963196816950587289035428064568320970692304673817341489687656669185",
        "55464657044963196816950587289035428064568320970692304673817341489687665059842",
        "55464657044963196816950587289035428064568320970692304673817341489687665059840"
      ]
    },
    {
      "x": 327,
      "y": 290,
      "size": 1,
      "price": "4683000000000000000000",
      "reserved": "",
      "salt": "0xd2efd7fdd7dc132c44f261c8167aff24b646751011b6fac2de5651baec39c79a",
      "assetIds": [
        "55464657044963196816950587289035428064568320970692304673817341489687656669184",
        "55464657044963196816950587289035428064568320970692304673817341489687665059842",
        "55464657044963196816950587289035428064568320970692304673817341489687665059840"
      ]
    },
    {
      "x": 327,
      "y": 291,
      "size": 1,
      "price": "4683000000000000000000",
      "reserved": "",
      "salt": "0x26c772a638c62445bed6cbd52342b87ed6d3c3ed65eaec19c35e03da7d1573b4",
      "assetIds": [
        "55464657044963196816950587289035428064568320970692304673817341489687656669186",
        "55464657044963196816950587289035428064568320970692304673817341489687665059844",
        "55464657044963196816950587289035428064568320970692304673817341489687665059841"
      ]
    },
    {
      "x": 327,
      "y": 292,
      "size": 1,
      "price": "4683000000000000000000",
      "reserved": "",
      "salt": "0x45757059a07313c452505255ed158326398ff5a0ff1cc3294ea02677a85e47a9",
      "assetIds": [
        "55464657044963196816950587289035428064568320970692304673817341489687656669184",
        "55464657044963196816950587289035428064568320970692304673817341489687665059844",
        "55464657044963196816950587289035428064568320970692304673817341489687665059840"
      ]
    },
    {
      "x": 327,
      "y": 293,
      "size": 1,
      "price": "4683000000000000000000",
      "reserved": "",
      "salt": "0x3c4c650a183f8bffac2a631769b41ac52ec9546c3fca044ae2a223f56bf001b5",
      "assetIds": [
        "55464657044963196816950587289035428064568320970692304673817341489687656669186",
        "55464657044963196816950587289035428064568320970692304673817341489687665059842",
        "55464657044963196816950587289035428064568320970692304673817341489687665059841"
      ]
    },
    {
      "x": 327,
      "y": 294,
      "size": 1,
      "price": "4683000000000000000000",
      "reserved": "",
      "salt": "0x77bfa8bbd5b618dd279ef12957b8406053bffa6b26913e5f10c41ad66df9d2e0",
      "assetIds": [
        "55464657044963196816950587289035428064568320970692304673817341489687656669185",
        "55464657044963196816950587289035428064568320970692304673817341489687665059844",
        "55464657044963196816950587289035428064568320970692304673817341489687665059840"
      ]
    },
    {
      "x": 327,
      "y": 295,
      "size": 1,
      "price": "4683000000000000000000",
      "reserved": "",
      "salt": "0x508833d6ff546b11e76f4677fc9af43af574fd6cdaac012f5b5777773d69ff85",
      "assetIds": [
        "55464657044963196816950587289035428064568320970692304673817341489687656669186",
        "55464657044963196816950587289035428064568320970692304673817341489687665059844",
        "55464657044963196816950587289035428064568320970692304673817341489687665059841"
      ]
    },
    {
      "x": 327,
      "y": 296,
      "size": 1,
      "price": "1011000000000000000000",
      "reserved": "0x7a9fe22691c811ea339d9b73150e6911a5343dca",
      "salt": "0x7a177b4469c31e566156217883a3fcb80a918a01142d9636d34b85d3374b501f",
      "assetIds": []
    },
    {
      "x": 327,
      "y": 297,
      "size": 1,
      "price": "4683000000000000000000",
      "reserved": "",
      "salt": "0xd6766d39ba18f6180191a38e256dcc0ccf10764057191e2506d1bcab96a6de05",
      "assetIds": [
        "55464657044963196816950587289035428064568320970692304673817341489687656669186",
        "55464657044963196816950587289035428064568320970692304673817341489687665059844",
        "55464657044963196816950587289035428064568320970692304673817341489687665059841"
      ]
    },
    {
      "x": 327,
      "y": 298,
      "size": 1,
      "price": "4683000000000000000000",
      "reserved": "",
      "salt": "0xf2c55b0d51d585a76e7c610bfa1d5c35c733117a61d6f8cd5541428050010680",
      "assetIds": [
        "55464657044963196816950587289035428064568320970692304673817341489687656669185",
        "55464657044963196816950587289035428064568320970692304673817341489687665059844",
        "55464657044963196816950587289035428064568320970692304673817341489687665059840"
      ]
    },
    {
      "x": 327,
      "y": 299,
      "size": 1,
      "price": "4683000000000000000000",
      "reserved": "",
      "salt": "0xc581ae65a582a957ba8b63beb712cc873d9dd84ec2c940837b5bdef18ac2ed8e",
      "assetIds": [
        "55464657044963196816950587289035428064568320970692304673817341489687656669184",
        "55464657044963196816950587289035428064568320970692304673817341489687665059843",
        "55464657044963196816950587289035428064568320970692304673817341489687665059840"
      ]
    },
    {
      "x": 328,
      "y": 288,
      "size": 1,
      "price": "4683000000000000000000",
      "reserved": "",
      "salt": "0x27868b5b044e70c94428fe5af328730110167f7dae854b068df4e1f1e911b7da",
      "assetIds": [
        "55464657044963196816950587289035428064568320970692304673817341489687656669185",
        "55464657044963196816950587289035428064568320970692304673817341489687665059843",
        "55464657044963196816950587289035428064568320970692304673817341489687665059840"
      ]
    },
    {
      "x": 328,
      "y": 289,
      "size": 1,
      "price": "4683000000000000000000",
      "reserved": "",
      "salt": "0xe1d1747e700acd32d6ab63b9cdccc3fe08428dadc9950faf77d26b0c07bee0c6",
      "assetIds": [
        "55464657044963196816950587289035428064568320970692304673817341489687656669187",
        "55464657044963196816950587289035428064568320970692304673817341489687665059844",
        "55464657044963196816950587289035428064568320970692304673817341489687665059841"
      ]
    },
    {
      "x": 328,
      "y": 290,
      "size": 1,
      "price": "4683000000000000000000",
      "reserved": "",
      "salt": "0x912cb19644eba7c6b78c3b73a838650bb796812aa361b7080244e787307d3158",
      "assetIds": [
        "55464657044963196816950587289035428064568320970692304673817341489687656669187",
        "55464657044963196816950587289035428064568320970692304673817341489687665059843",
        "55464657044963196816950587289035428064568320970692304673817341489687665059841"
      ]
    },
    {
      "x": 328,
      "y": 291,
      "size": 1,
      "price": "4683000000000000000000",
      "reserved": "",
      "salt": "0x822ab85afa569e7937454e4c9245217583ba6b0561301c056e49e08d5974d08c",
      "assetIds": [
        "55464657044963196816950587289035428064568320970692304673817341489687656669184",
        "55464657044963196816950587289035428064568320970692304673817341489687665059843",
        "55464657044963196816950587289035428064568320970692304673817341489687665059840"
      ]
    },
    {
      "x": 328,
      "y": 292,
      "size": 1,
      "price": "4683000000000000000000",
      "reserved": "",
      "salt": "0x7f537ad83d0cc0ca988e0979fc9876710fc78fca4f5d30663fe39ec69a7b212f",
      "assetIds": [
        "55464657044963196816950587289035428064568320970692304673817341489687656669185",
        "55464657044963196816950587289035428064568320970692304673817341489687665059842",
        "55464657044963196816950587289035428064568320970692304673817341489687665059840"
      ]
    },
    {
      "x": 328,
      "y": 293,
      "size": 1,
      "price": "4683000000000000000000",
      "reserved": "",
      "salt": "0xa5f93d8591156f27682cc17de94c91785a2d0e97b1358a3cb408016f3f8b6e30",
      "assetIds": [
        "55464657044963196816950587289035428064568320970692304673817341489687656669186",
        "55464657044963196816950587289035428064568320970692304673817341489687665059842",
        "55464657044963196816950587289035428064568320970692304673817341489687665059841"
      ]
    },
    {
      "x": 328,
      "y": 294,
      "size": 1,
      "price": "4683000000000000000000",
      "reserved": "",
      "salt": "0x4536aee641132a1c8c537712f0654ca65af3f157ef476185f97f4157f0f0de7b",
      "assetIds": [
        "55464657044963196816950587289035428064568320970692304673817341489687656669186",
        "55464657044963196816950587289035428064568320970692304673817341489687665059843",
        "55464657044963196816950587289035428064568320970692304673817341489687665059841"
      ]
    },
    {
      "x": 328,
      "y": 295,
      "size": 1,
      "price": "4683000000000000000000",
      "reserved": "",
      "salt": "0xa7a78ba5f89b5c87495b72c964d392258a0c0e1cb5e3fe56b70642ac53dca68f",
      "assetIds": [
        "55464657044963196816950587289035428064568320970692304673817341489687656669186",
        "55464657044963196816950587289035428064568320970692304673817341489687665059843",
        "55464657044963196816950587289035428064568320970692304673817341489687665059841"
      ]
    },
    {
      "x": 328,
      "y": 296,
      "size": 1,
      "price": "4683000000000000000000",
      "reserved": "",
      "salt": "0x6b27a361ba0f59b7e8530861252bc2d3bf2b7a7c25be1ff7079ca0e252165da5",
      "assetIds": [
        "55464657044963196816950587289035428064568320970692304673817341489687656669184",
        "55464657044963196816950587289035428064568320970692304673817341489687665059842",
        "55464657044963196816950587289035428064568320970692304673817341489687665059840"
      ]
    },
    {
      "x": 328,
      "y": 297,
      "size": 1,
      "price": "4683000000000000000000",
      "reserved": "",
      "salt": "0xf32ac579d26489746f4df5f34c30f553e2984478405332ba7f8c71cebb0a6c76",
      "assetIds": [
        "55464657044963196816950587289035428064568320970692304673817341489687656669186",
        "55464657044963196816950587289035428064568320970692304673817341489687665059842",
        "55464657044963196816950587289035428064568320970692304673817341489687665059841"
      ]
    },
    {
      "x": 328,
      "y": 298,
      "size": 1,
      "price": "4683000000000000000000",
      "reserved": "",
      "salt": "0x989afa3c88023706df78def5afefcffee0ad590f95c26356f3240a4396725bd5",
      "assetIds": [
        "55464657044963196816950587289035428064568320970692304673817341489687656669187",
        "55464657044963196816950587289035428064568320970692304673817341489687665059844",
        "55464657044963196816950587289035428064568320970692304673817341489687665059841"
      ]
    },
    {
      "x": 328,
      "y": 299,
      "size": 1,
      "price": "4683000000000000000000",
      "reserved": "",
      "salt": "0x3028c3fdea947c230eb086667381aabd2ecc7e44f5834ec6207e57985cc5cc4a",
      "assetIds": [
        "55464657044963196816950587289035428064568320970692304673817341489687656669187",
        "55464657044963196816950587289035428064568320970692304673817341489687665059842",
        "55464657044963196816950587289035428064568320970692304673817341489687665059841"
      ]
    },
    {
      "x": 329,
      "y": 288,
      "size": 1,
      "price": "4683000000000000000000",
      "reserved": "",
      "salt": "0xf8be45bb08b90fdbaa5b8446111dbdbf49b285833424f00648a39a66b805e10f",
      "assetIds": [
        "55464657044963196816950587289035428064568320970692304673817341489687656669184",
        "55464657044963196816950587289035428064568320970692304673817341489687665059842",
        "55464657044963196816950587289035428064568320970692304673817341489687665059840"
      ]
    },
    {
      "x": 329,
      "y": 289,
      "size": 1,
      "price": "4683000000000000000000",
      "reserved": "",
      "salt": "0x63cd19b379f1ab91517df7228e5820203c066463b756cb766f55419967a9bd51",
      "assetIds": [
        "55464657044963196816950587289035428064568320970692304673817341489687656669185",
        "55464657044963196816950587289035428064568320970692304673817341489687665059842",
        "55464657044963196816950587289035428064568320970692304673817341489687665059840"
      ]
    },
    {
      "x": 329,
      "y": 290,
      "size": 1,
      "price": "4683000000000000000000",
      "reserved": "",
      "salt": "0xb48ab2b5018ec02298a481f8fa7e9682eb513a0d6a22911a8d5ee284527b0d63",
      "assetIds": [
        "55464657044963196816950587289035428064568320970692304673817341489687656669184",
        "55464657044963196816950587289035428064568320970692304673817341489687665059844",
        "55464657044963196816950587289035428064568320970692304673817341489687665059840"
      ]
    },
    {
      "x": 329,
      "y": 291,
      "size": 1,
      "price": "4683000000000000000000",
      "reserved": "",
      "salt": "0x8260c826e6b3d40960757b1e7fc5bd12321d69a26f23b621d5cf51a082345152",
      "assetIds": [
        "55464657044963196816950587289035428064568320970692304673817341489687656669184",
        "55464657044963196816950587289035428064568320970692304673817341489687665059844",
        "55464657044963196816950587289035428064568320970692304673817341489687665059840"
      ]
    },
    {
      "x": 329,
      "y": 292,
      "size": 1,
      "price": "4683000000000000000000",
      "reserved": "",
      "salt": "0xf839a50ade0f065b19ac929e4ce4b1453620cd8f5a510eb019dc7a77d8a30dc1",
      "assetIds": [
        "55464657044963196816950587289035428064568320970692304673817341489687656669185",
        "55464657044963196816950587289035428064568320970692304673817341489687665059843",
        "55464657044963196816950587289035428064568320970692304673817341489687665059840"
      ]
    },
    {
      "x": 329,
      "y": 293,
      "size": 1,
      "price": "4683000000000000000000",
      "reserved": "",
      "salt": "0x0a6fc8695da27b61b8a58977254db2dc7d20318fd46eb9c3a8f2a7a1fe02f6d9",
      "assetIds": [
        "55464657044963196816950587289035428064568320970692304673817341489687656669184",
        "55464657044963196816950587289035428064568320970692304673817341489687665059843",
        "55464657044963196816950587289035428064568320970692304673817341489687665059840"
      ]
    },
    {
      "x": 329,
      "y": 294,
      "size": 1,
      "price": "4683000000000000000000",
      "reserved": "",
      "salt": "0xb9adeece328584e7ad7343f0526f8a87f5ee649402509f996236c00a62b1ad6d",
      "assetIds": [
        "55464657044963196816950587289035428064568320970692304673817341489687656669185",
        "55464657044963196816950587289035428064568320970692304673817341489687665059843",
        "55464657044963196816950587289035428064568320970692304673817341489687665059840"
      ]
    },
    {
      "x": 329,
      "y": 295,
      "size": 1,
      "price": "4683000000000000000000",
      "reserved": "",
      "salt": "0x75f56a0cc40d8fcd83697e17c9bd1e284219b80e66ba255c2b678eb41bb4248d",
      "assetIds": [
        "55464657044963196816950587289035428064568320970692304673817341489687656669187",
        "55464657044963196816950587289035428064568320970692304673817341489687665059843",
        "55464657044963196816950587289035428064568320970692304673817341489687665059841"
      ]
    },
    {
      "x": 329,
      "y": 296,
      "size": 1,
      "price": "4683000000000000000000",
      "reserved": "",
      "salt": "0x7028ccd042833056bebb8e347ff0581745254e393e795a643d7b8e99a503d470",
      "assetIds": [
        "55464657044963196816950587289035428064568320970692304673817341489687656669187",
        "55464657044963196816950587289035428064568320970692304673817341489687665059843",
        "55464657044963196816950587289035428064568320970692304673817341489687665059841"
      ]
    },
    {
      "x": 329,
      "y": 297,
      "size": 1,
      "price": "4683000000000000000000",
      "reserved": "",
      "salt": "0xc16bd64cccfc18872e5118115358ea01e1d93b104a06b47ea53a83243c91aa4e",
      "assetIds": [
        "55464657044963196816950587289035428064568320970692304673817341489687656669186",
        "55464657044963196816950587289035428064568320970692304673817341489687665059843",
        "55464657044963196816950587289035428064568320970692304673817341489687665059841"
      ]
    },
    {
      "x": 329,
      "y": 298,
      "size": 1,
      "price": "4683000000000000000000",
      "reserved": "",
      "salt": "0x415f568434fcd631156ba939b6bcca8e12ed5cfcb9ae19a0a42b8fa8ec642d25",
      "assetIds": [
        "55464657044963196816950587289035428064568320970692304673817341489687656669185",
        "55464657044963196816950587289035428064568320970692304673817341489687665059843",
        "55464657044963196816950587289035428064568320970692304673817341489687665059840"
      ]
    },
    {
      "x": 329,
      "y": 299,
      "size": 1,
      "price": "4683000000000000000000",
      "reserved": "",
      "salt": "0xe2428c0cd12883975c05609c08b05bdd34c90f2d4861f75eb0f62a5e2ae5ba61",
      "assetIds": [
        "55464657044963196816950587289035428064568320970692304673817341489687656669184",
        "55464657044963196816950587289035428064568320970692304673817341489687665059843",
        "55464657044963196816950587289035428064568320970692304673817341489687665059840"
      ]
    },
    {
      "x": 330,
      "y": 288,
      "size": 1,
      "price": "4683000000000000000000",
      "reserved": "",
      "salt": "0x2e5eb4f967c27e31f9609d9cc60343599ac9fc95131228f0e62b727bf2bbab5f",
      "assetIds": [
        "55464657044963196816950587289035428064568320970692304673817341489687656669187",
        "55464657044963196816950587289035428064568320970692304673817341489687665059844",
        "55464657044963196816950587289035428064568320970692304673817341489687665059841"
      ]
    },
    {
      "x": 330,
      "y": 289,
      "size": 1,
      "price": "4683000000000000000000",
      "reserved": "",
      "salt": "0x626ac4b22ca4519695c6faaf76e4165fa3e8aab51b5f43c69511ce3fd769a93c",
      "assetIds": [
        "55464657044963196816950587289035428064568320970692304673817341489687656669187",
        "55464657044963196816950587289035428064568320970692304673817341489687665059842",
        "55464657044963196816950587289035428064568320970692304673817341489687665059841"
      ]
    },
    {
      "x": 330,
      "y": 290,
      "size": 1,
      "price": "4683000000000000000000",
      "reserved": "",
      "salt": "0x5dce91bad4e5aaaf2230d4cb239e5a279a3078a0b1a271865e312798f2cf17b3",
      "assetIds": [
        "55464657044963196816950587289035428064568320970692304673817341489687656669184",
        "55464657044963196816950587289035428064568320970692304673817341489687665059844",
        "55464657044963196816950587289035428064568320970692304673817341489687665059840"
      ]
    },
    {
      "x": 330,
      "y": 291,
      "size": 1,
      "price": "4683000000000000000000",
      "reserved": "",
      "salt": "0xcf305134f16743cab8731da459a211a83d864b287cb3b6c6a5909ae12e4fdaae",
      "assetIds": [
        "55464657044963196816950587289035428064568320970692304673817341489687656669187",
        "55464657044963196816950587289035428064568320970692304673817341489687665059843",
        "55464657044963196816950587289035428064568320970692304673817341489687665059841"
      ]
    },
    {
      "x": 330,
      "y": 292,
      "size": 1,
      "price": "4683000000000000000000",
      "reserved": "",
      "salt": "0xb25ea40f2d3eefbba0b6a5cf67108d028e7a99751c6f5eb6fa61a503dfbac871",
      "assetIds": [
        "55464657044963196816950587289035428064568320970692304673817341489687656669186",
        "55464657044963196816950587289035428064568320970692304673817341489687665059842",
        "55464657044963196816950587289035428064568320970692304673817341489687665059841"
      ]
    },
    {
      "x": 330,
      "y": 293,
      "size": 1,
      "price": "4683000000000000000000",
      "reserved": "",
      "salt": "0x5ab26d426a355f6fa882027d8ce33ae43d2f7c6c66b72c23cbe5450574688b1d",
      "assetIds": [
        "55464657044963196816950587289035428064568320970692304673817341489687656669186",
        "55464657044963196816950587289035428064568320970692304673817341489687665059843",
        "55464657044963196816950587289035428064568320970692304673817341489687665059841"
      ]
    },
    {
      "x": 331,
      "y": 288,
      "size": 1,
      "price": "4683000000000000000000",
      "reserved": "",
      "salt": "0xc426fb8f841babb337d03c79d834f3f78129df7225ad2fe5e3617246c68c8f76",
      "assetIds": [
        "55464657044963196816950587289035428064568320970692304673817341489687656669187",
        "55464657044963196816950587289035428064568320970692304673817341489687665059844",
        "55464657044963196816950587289035428064568320970692304673817341489687665059841"
      ]
    },
    {
      "x": 331,
      "y": 289,
      "size": 1,
      "price": "4683000000000000000000",
      "reserved": "",
      "salt": "0x2fa47d0fc21851227357f678929b1a747f39258473d933a502a724112d1d937d",
      "assetIds": [
        "55464657044963196816950587289035428064568320970692304673817341489687656669187",
        "55464657044963196816950587289035428064568320970692304673817341489687665059842",
        "55464657044963196816950587289035428064568320970692304673817341489687665059841"
      ]
    },
    {
      "x": 331,
      "y": 290,
      "size": 1,
      "price": "4683000000000000000000",
      "reserved": "",
      "salt": "0x1880ca1a0a4f9f72005ce1805e7f630dbe16a13ff39234dcde91b72007244167",
      "assetIds": [
        "55464657044963196816950587289035428064568320970692304673817341489687656669185",
        "55464657044963196816950587289035428064568320970692304673817341489687665059843",
        "55464657044963196816950587289035428064568320970692304673817341489687665059840"
      ]
    },
    {
      "x": 331,
      "y": 291,
      "size": 1,
      "price": "4683000000000000000000",
      "reserved": "",
      "salt": "0xcd0317d0d8cc8927f4f335bc404ddd44c88fd2dda212a774b3299885e7f01dbe",
      "assetIds": [
        "55464657044963196816950587289035428064568320970692304673817341489687656669187",
        "55464657044963196816950587289035428064568320970692304673817341489687665059843",
        "55464657044963196816950587289035428064568320970692304673817341489687665059841"
      ]
    },
    {
      "x": 331,
      "y": 292,
      "size": 1,
      "price": "4683000000000000000000",
      "reserved": "",
      "salt": "0x9cf3170024e0a3db93d90b4a3ed5f9305672cc035efff9276be9899ac67e11ce",
      "assetIds": [
        "55464657044963196816950587289035428064568320970692304673817341489687656669186",
        "55464657044963196816950587289035428064568320970692304673817341489687665059842",
        "55464657044963196816950587289035428064568320970692304673817341489687665059841"
      ]
    },
    {
      "x": 331,
      "y": 293,
      "size": 1,
      "price": "4683000000000000000000",
      "reserved": "",
      "salt": "0xaab5c34ab4ab9aba76e846439d45e199ffddc2aa06b8d35238e8cae8cd340781",
      "assetIds": [
        "55464657044963196816950587289035428064568320970692304673817341489687656669184",
        "55464657044963196816950587289035428064568320970692304673817341489687665059842",
        "55464657044963196816950587289035428064568320970692304673817341489687665059840"
      ]
    },
    {
      "x": 332,
      "y": 288,
      "size": 1,
      "price": "4683000000000000000000",
      "reserved": "",
      "salt": "0xb96c24f814a9313465b8ea9069a9ab2fe9e47897373d090f22662064a5d118b1",
      "assetIds": [
        "55464657044963196816950587289035428064568320970692304673817341489687656669185",
        "55464657044963196816950587289035428064568320970692304673817341489687665059844",
        "55464657044963196816950587289035428064568320970692304673817341489687665059840"
      ]
    },
    {
      "x": 332,
      "y": 289,
      "size": 1,
      "price": "4683000000000000000000",
      "reserved": "",
      "salt": "0x1efb1fa0130826e4e20fdfc25dfb7fee78a6accaa71e5fddaa9ab51f72fd6e6d",
      "assetIds": [
        "55464657044963196816950587289035428064568320970692304673817341489687656669185",
        "55464657044963196816950587289035428064568320970692304673817341489687665059844",
        "55464657044963196816950587289035428064568320970692304673817341489687665059840"
      ]
    },
    {
      "x": 332,
      "y": 290,
      "size": 1,
      "price": "4683000000000000000000",
      "reserved": "",
      "salt": "0x6bfd03084c49ff08784dc71f16db7d7d101bda61cd3a99dca64a02ad4756f98b",
      "assetIds": [
        "55464657044963196816950587289035428064568320970692304673817341489687656669185",
        "55464657044963196816950587289035428064568320970692304673817341489687665059842",
        "55464657044963196816950587289035428064568320970692304673817341489687665059840"
      ]
    },
    {
      "x": 332,
      "y": 291,
      "size": 1,
      "price": "4683000000000000000000",
      "reserved": "",
      "salt": "0xa3e5cf3fee8c7b827c4008e4c62300225f06e3d616a754451026bd2102861c91",
      "assetIds": [
        "55464657044963196816950587289035428064568320970692304673817341489687656669186",
        "55464657044963196816950587289035428064568320970692304673817341489687665059842",
        "55464657044963196816950587289035428064568320970692304673817341489687665059841"
      ]
    },
    {
      "x": 332,
      "y": 292,
      "size": 1,
      "price": "4683000000000000000000",
      "reserved": "",
      "salt": "0x226aa48c6eec6034330a4633daf9e4ac203d6ab0d2dfdc94d6767f4765b463de",
      "assetIds": [
        "55464657044963196816950587289035428064568320970692304673817341489687656669186",
        "55464657044963196816950587289035428064568320970692304673817341489687665059843",
        "55464657044963196816950587289035428064568320970692304673817341489687665059841"
      ]
    },
    {
      "x": 332,
      "y": 293,
      "size": 1,
      "price": "4683000000000000000000",
      "reserved": "",
      "salt": "0xe180f3cd06bf2777ed946ff64724724c75862847e2e3afabb7abfc7d253136fe",
      "assetIds": [
        "55464657044963196816950587289035428064568320970692304673817341489687656669187",
        "55464657044963196816950587289035428064568320970692304673817341489687665059844",
        "55464657044963196816950587289035428064568320970692304673817341489687665059841"
      ]
    },
    {
      "x": 333,
      "y": 261,
      "size": 1,
      "price": "4683000000000000000000",
      "reserved": "",
      "salt": "0x97b5a9701840e8a21e7c9984baf354b59d650b57166441f81ee36fcea91b9cfe",
      "assetIds": [
        "55464657044963196816950587289035428064568320970692304673817341489687656669187",
        "55464657044963196816950587289035428064568320970692304673817341489687665059843",
        "55464657044963196816950587289035428064568320970692304673817341489687665059841"
      ]
    },
    {
      "x": 333,
      "y": 262,
      "size": 1,
      "price": "4683000000000000000000",
      "reserved": "",
      "salt": "0x7a994a0e285a27954dfbe48669bc5e99f65d253b74fabbd66a1f1b36b45b7166",
      "assetIds": [
        "55464657044963196816950587289035428064568320970692304673817341489687656669186",
        "55464657044963196816950587289035428064568320970692304673817341489687665059842",
        "55464657044963196816950587289035428064568320970692304673817341489687665059841"
      ]
    },
    {
      "x": 333,
      "y": 263,
      "size": 1,
      "price": "4683000000000000000000",
      "reserved": "",
      "salt": "0x928c527b04028ddee45841e197b684435fa2b5eca7b810091527874972827d71",
      "assetIds": [
        "55464657044963196816950587289035428064568320970692304673817341489687656669184",
        "55464657044963196816950587289035428064568320970692304673817341489687665059842",
        "55464657044963196816950587289035428064568320970692304673817341489687665059840"
      ]
    },
    {
      "x": 333,
      "y": 288,
      "size": 1,
      "price": "4683000000000000000000",
      "reserved": "",
      "salt": "0xe893608fb5ec00812d45f3e009c0fb0fd9d38eb4682ee8d1b5d4ca699866ed4d",
      "assetIds": [
        "55464657044963196816950587289035428064568320970692304673817341489687656669185",
        "55464657044963196816950587289035428064568320970692304673817341489687665059843",
        "55464657044963196816950587289035428064568320970692304673817341489687665059840"
      ]
    },
    {
      "x": 333,
      "y": 289,
      "size": 1,
      "price": "4683000000000000000000",
      "reserved": "",
      "salt": "0x2144539ce5af2d0ebda4a0423b8e5a7c3d3510df4f48ba29581b5bb2497e9167",
      "assetIds": [
        "55464657044963196816950587289035428064568320970692304673817341489687656669185",
        "55464657044963196816950587289035428064568320970692304673817341489687665059842",
        "55464657044963196816950587289035428064568320970692304673817341489687665059840"
      ]
    },
    {
      "x": 333,
      "y": 290,
      "size": 1,
      "price": "4683000000000000000000",
      "reserved": "",
      "salt": "0x48f473f9b930dd974566410bba264646d8c6a7960f75fda6d0989a4afa5a855c",
      "assetIds": [
        "55464657044963196816950587289035428064568320970692304673817341489687656669186",
        "55464657044963196816950587289035428064568320970692304673817341489687665059843",
        "55464657044963196816950587289035428064568320970692304673817341489687665059841"
      ]
    },
    {
      "x": 334,
      "y": 261,
      "size": 1,
      "price": "4683000000000000000000",
      "reserved": "",
      "salt": "0xd8439a0d83c72477daf3150caa8db6d8de8247ae78ae1f91802f90729aad9531",
      "assetIds": [
        "55464657044963196816950587289035428064568320970692304673817341489687656669184",
        "55464657044963196816950587289035428064568320970692304673817341489687665059844",
        "55464657044963196816950587289035428064568320970692304673817341489687665059840"
      ]
    },
    {
      "x": 334,
      "y": 262,
      "size": 1,
      "price": "4683000000000000000000",
      "reserved": "",
      "salt": "0xf4fbb8ceb17e3cf33ec416ab6f746815b70d1c63e0ee6eb4e483d3d4179201a4",
      "assetIds": [
        "55464657044963196816950587289035428064568320970692304673817341489687656669187",
        "55464657044963196816950587289035428064568320970692304673817341489687665059844",
        "55464657044963196816950587289035428064568320970692304673817341489687665059841"
      ]
    },
    {
      "x": 334,
      "y": 263,
      "size": 1,
      "price": "4683000000000000000000",
      "reserved": "",
      "salt": "0x066b4ee45b255947b28c1df74fcb6d46222dcf8c2e4bc51028d4f67e98c7db51",
      "assetIds": [
        "55464657044963196816950587289035428064568320970692304673817341489687656669184",
        "55464657044963196816950587289035428064568320970692304673817341489687665059842",
        "55464657044963196816950587289035428064568320970692304673817341489687665059840"
      ]
    },
    {
      "x": 334,
      "y": 288,
      "size": 1,
      "price": "4683000000000000000000",
      "reserved": "",
      "salt": "0x9d302f2a669521508076ef9babe15121b4dfb0ece62dd74ce5998e6a4499d05f",
      "assetIds": [
        "55464657044963196816950587289035428064568320970692304673817341489687656669185",
        "55464657044963196816950587289035428064568320970692304673817341489687665059844",
        "55464657044963196816950587289035428064568320970692304673817341489687665059840"
      ]
    },
    {
      "x": 334,
      "y": 289,
      "size": 1,
      "price": "4683000000000000000000",
      "reserved": "",
      "salt": "0x376e5a85b8c76baf6e538cca585985a1da92e85d06c7fe2ae8496b7bfbe3f8ba",
      "assetIds": [
        "55464657044963196816950587289035428064568320970692304673817341489687656669185",
        "55464657044963196816950587289035428064568320970692304673817341489687665059844",
        "55464657044963196816950587289035428064568320970692304673817341489687665059840"
      ]
    },
    {
      "x": 334,
      "y": 290,
      "size": 1,
      "price": "4683000000000000000000",
      "reserved": "",
      "salt": "0x7a3ae6a7b5e6150a06bd44108e642e3a94cd11c78c5160ab9a86102202ec5440",
      "assetIds": [
        "55464657044963196816950587289035428064568320970692304673817341489687656669186",
        "55464657044963196816950587289035428064568320970692304673817341489687665059842",
        "55464657044963196816950587289035428064568320970692304673817341489687665059841"
      ]
    },
    {
      "x": 335,
      "y": 261,
      "size": 1,
      "price": "4683000000000000000000",
      "reserved": "",
      "salt": "0x91a1bd9a7351f34f9324a25576441430b30ef089de79046444859e982af97409",
      "assetIds": [
        "55464657044963196816950587289035428064568320970692304673817341489687656669186",
        "55464657044963196816950587289035428064568320970692304673817341489687665059843",
        "55464657044963196816950587289035428064568320970692304673817341489687665059841"
      ]
    },
    {
      "x": 335,
      "y": 262,
      "size": 1,
      "price": "4683000000000000000000",
      "reserved": "",
      "salt": "0xce676e3dc34100389f62b690fbae322eff51477540566fffafa3073797d1827a",
      "assetIds": [
        "55464657044963196816950587289035428064568320970692304673817341489687656669186",
        "55464657044963196816950587289035428064568320970692304673817341489687665059842",
        "55464657044963196816950587289035428064568320970692304673817341489687665059841"
      ]
    },
    {
      "x": 335,
      "y": 263,
      "size": 1,
      "price": "4683000000000000000000",
      "reserved": "",
      "salt": "0x3deca7b7981cfc67af04ed4d3ae006f8df2fa42291e9b48597cf7b3347d5283c",
      "assetIds": [
        "55464657044963196816950587289035428064568320970692304673817341489687656669185",
        "55464657044963196816950587289035428064568320970692304673817341489687665059844",
        "55464657044963196816950587289035428064568320970692304673817341489687665059840"
      ]
    },
    {
      "x": 335,
      "y": 288,
      "size": 1,
      "price": "1011000000000000000000",
      "reserved": "0x7a9fe22691c811ea339d9b73150e6911a5343dca",
      "salt": "0x9890847feb7bcb31bc20464175f504666b21f8c77554727594e7824f48bc3b3b",
      "assetIds": []
    },
    {
      "x": 335,
      "y": 289,
      "size": 1,
      "price": "4683000000000000000000",
      "reserved": "",
      "salt": "0xeed0eb910a0481483c4b959d63898347f2ff63f3ddf0e595dfcb580aa7f7b2ec",
      "assetIds": [
        "55464657044963196816950587289035428064568320970692304673817341489687656669186",
        "55464657044963196816950587289035428064568320970692304673817341489687665059842",
        "55464657044963196816950587289035428064568320970692304673817341489687665059841"
      ]
    },
    {
      "x": 335,
      "y": 290,
      "size": 1,
      "price": "4683000000000000000000",
      "reserved": "",
      "salt": "0x6c8b1deb0cafe9a0f9d209c4c801879c875837bfe2c44d9c007befe794831fa9",
      "assetIds": [
        "55464657044963196816950587289035428064568320970692304673817341489687656669186",
        "55464657044963196816950587289035428064568320970692304673817341489687665059844",
        "55464657044963196816950587289035428064568320970692304673817341489687665059841"
      ]
    },
    {
      "x": 336,
      "y": 252,
      "size": 1,
      "price": "4683000000000000000000",
      "reserved": "",
      "salt": "0x8c1c3dddc56bfa0873c2de7a48bfcdf09c3a601e108f69bb4046963bc462e843",
      "assetIds": [
        "55464657044963196816950587289035428064568320970692304673817341489687656669186",
        "55464657044963196816950587289035428064568320970692304673817341489687665059843",
        "55464657044963196816950587289035428064568320970692304673817341489687665059841"
      ]
    },
    {
      "x": 336,
      "y": 253,
      "size": 1,
      "price": "4683000000000000000000",
      "reserved": "",
      "salt": "0x0b9c18ea7b16f0dbc7b33d89fbb6b8e07c53792ca45a326c4b4426208f8e7d79",
      "assetIds": [
        "55464657044963196816950587289035428064568320970692304673817341489687656669187",
        "55464657044963196816950587289035428064568320970692304673817341489687665059844",
        "55464657044963196816950587289035428064568320970692304673817341489687665059841"
      ]
    },
    {
      "x": 336,
      "y": 254,
      "size": 1,
      "price": "4683000000000000000000",
      "reserved": "",
      "salt": "0x13097884644fe6d29e816dc898e76355de449fd0182cfb2ef782f76d37ab6c54",
      "assetIds": [
        "55464657044963196816950587289035428064568320970692304673817341489687656669186",
        "55464657044963196816950587289035428064568320970692304673817341489687665059844",
        "55464657044963196816950587289035428064568320970692304673817341489687665059841"
      ]
    },
    {
      "x": 336,
      "y": 258,
      "size": 1,
      "price": "4683000000000000000000",
      "reserved": "",
      "salt": "0xbef710543d5b19870c9b47883b298b08064ab9a874b4f62b1813d1b99ecedddc",
      "assetIds": [
        "55464657044963196816950587289035428064568320970692304673817341489687656669184",
        "55464657044963196816950587289035428064568320970692304673817341489687665059843",
        "55464657044963196816950587289035428064568320970692304673817341489687665059840"
      ]
    },
    {
      "x": 336,
      "y": 259,
      "size": 1,
      "price": "4683000000000000000000",
      "reserved": "",
      "salt": "0xbec6033e1f4173b11eaa89aa375bfee9710d060ec15d17b228f6d8939b140722",
      "assetIds": [
        "55464657044963196816950587289035428064568320970692304673817341489687656669184",
        "55464657044963196816950587289035428064568320970692304673817341489687665059842",
        "55464657044963196816950587289035428064568320970692304673817341489687665059840"
      ]
    },
    {
      "x": 336,
      "y": 260,
      "size": 1,
      "price": "4683000000000000000000",
      "reserved": "",
      "salt": "0xa37a6aa52a13436b71767866ecd288af092fa357219ce4a67fa0f37f6a504170",
      "assetIds": [
        "55464657044963196816950587289035428064568320970692304673817341489687656669187",
        "55464657044963196816950587289035428064568320970692304673817341489687665059842",
        "55464657044963196816950587289035428064568320970692304673817341489687665059841"
      ]
    },
    {
      "x": 336,
      "y": 261,
      "size": 1,
      "price": "4683000000000000000000",
      "reserved": "",
      "salt": "0x9ed5de7bca69dc2f8fcfa4e2141262c9c2f2eaeb55d6ca2d15c02a63cd64eccc",
      "assetIds": [
        "55464657044963196816950587289035428064568320970692304673817341489687656669184",
        "55464657044963196816950587289035428064568320970692304673817341489687665059843",
        "55464657044963196816950587289035428064568320970692304673817341489687665059840"
      ]
    },
    {
      "x": 336,
      "y": 262,
      "size": 1,
      "price": "4683000000000000000000",
      "reserved": "",
      "salt": "0x233ff542cd3b573b4b774873884673531aeede2e1bfde076182888ee7bd6f9f0",
      "assetIds": [
        "55464657044963196816950587289035428064568320970692304673817341489687656669184",
        "55464657044963196816950587289035428064568320970692304673817341489687665059842",
        "55464657044963196816950587289035428064568320970692304673817341489687665059840"
      ]
    },
    {
      "x": 336,
      "y": 263,
      "size": 1,
      "price": "4683000000000000000000",
      "reserved": "",
      "salt": "0x84166d6428ea06d19d50cc5eaaa24db288064639d4a89e82af770603c53c9c92",
      "assetIds": [
        "55464657044963196816950587289035428064568320970692304673817341489687656669187",
        "55464657044963196816950587289035428064568320970692304673817341489687665059844",
        "55464657044963196816950587289035428064568320970692304673817341489687665059841"
      ]
    },
    {
      "x": 336,
      "y": 288,
      "size": 1,
      "price": "4683000000000000000000",
      "reserved": "",
      "salt": "0xedb93fc759a9b7c01bddb218b1144535d489a2acee2ecc3eecb861d99a6d282a",
      "assetIds": [
        "55464657044963196816950587289035428064568320970692304673817341489687656669185",
        "55464657044963196816950587289035428064568320970692304673817341489687665059842",
        "55464657044963196816950587289035428064568320970692304673817341489687665059840"
      ]
    },
    {
      "x": 336,
      "y": 289,
      "size": 1,
      "price": "4683000000000000000000",
      "reserved": "",
      "salt": "0x1976cd1607088910f618cbb2d1d64de2d856a1307735434b10102a8878aee5c2",
      "assetIds": [
        "55464657044963196816950587289035428064568320970692304673817341489687656669186",
        "55464657044963196816950587289035428064568320970692304673817341489687665059843",
        "55464657044963196816950587289035428064568320970692304673817341489687665059841"
      ]
    },
    {
      "x": 336,
      "y": 290,
      "size": 1,
      "price": "4683000000000000000000",
      "reserved": "",
      "salt": "0x5d0a45402837c910f13abedb429d340d8fff8b4c2f7858c446fab3ccdb7411df",
      "assetIds": [
        "55464657044963196816950587289035428064568320970692304673817341489687656669186",
        "55464657044963196816950587289035428064568320970692304673817341489687665059844",
        "55464657044963196816950587289035428064568320970692304673817341489687665059841"
      ]
    },
    {
      "x": 336,
      "y": 291,
      "size": 1,
      "price": "4683000000000000000000",
      "reserved": "",
      "salt": "0x30942d7eee646e54f36e23841f46207405e629bb7a8bb1b982543c5d9a934522",
      "assetIds": [
        "55464657044963196816950587289035428064568320970692304673817341489687656669185",
        "55464657044963196816950587289035428064568320970692304673817341489687665059842",
        "55464657044963196816950587289035428064568320970692304673817341489687665059840"
      ]
    },
    {
      "x": 336,
      "y": 292,
      "size": 1,
      "price": "4683000000000000000000",
      "reserved": "",
      "salt": "0x6eed203b0d7776b5233fc77bcf9bbc31b826c81e2cabeec7a8395b396ee36619",
      "assetIds": [
        "55464657044963196816950587289035428064568320970692304673817341489687656669184",
        "55464657044963196816950587289035428064568320970692304673817341489687665059843",
        "55464657044963196816950587289035428064568320970692304673817341489687665059840"
      ]
    },
    {
      "x": 336,
      "y": 293,
      "size": 1,
      "price": "4683000000000000000000",
      "reserved": "",
      "salt": "0x5eefe0b571e1445f20a7419e34403d01c8648be7a17b47d3d26f4b94737ba14e",
      "assetIds": [
        "55464657044963196816950587289035428064568320970692304673817341489687656669184",
        "55464657044963196816950587289035428064568320970692304673817341489687665059842",
        "55464657044963196816950587289035428064568320970692304673817341489687665059840"
      ]
    },
    {
      "x": 336,
      "y": 294,
      "size": 1,
      "price": "4683000000000000000000",
      "reserved": "",
      "salt": "0xd2c6dd171bd05d8daf4554a9d805221ef38a29218cb2e05f33da77de6225e948",
      "assetIds": [
        "55464657044963196816950587289035428064568320970692304673817341489687656669186",
        "55464657044963196816950587289035428064568320970692304673817341489687665059842",
        "55464657044963196816950587289035428064568320970692304673817341489687665059841"
      ]
    },
    {
      "x": 336,
      "y": 295,
      "size": 1,
      "price": "4683000000000000000000",
      "reserved": "",
      "salt": "0x74e8c492cc30a79f1fefedd7d81f6edd465b836bc637b6a7dc2415c62e529a56",
      "assetIds": [
        "55464657044963196816950587289035428064568320970692304673817341489687656669184",
        "55464657044963196816950587289035428064568320970692304673817341489687665059842",
        "55464657044963196816950587289035428064568320970692304673817341489687665059840"
      ]
    },
    {
      "x": 336,
      "y": 296,
      "size": 1,
      "price": "4683000000000000000000",
      "reserved": "",
      "salt": "0xd7d8cbacde7dc5ed0dcc484a6a6b80d769d764f66be9ac93487829b43b3bc8fc",
      "assetIds": [
        "55464657044963196816950587289035428064568320970692304673817341489687656669186",
        "55464657044963196816950587289035428064568320970692304673817341489687665059844",
        "55464657044963196816950587289035428064568320970692304673817341489687665059841"
      ]
    },
    {
      "x": 336,
      "y": 297,
      "size": 1,
      "price": "4683000000000000000000",
      "reserved": "",
      "salt": "0x23ac69de7c3c1882ba6b3ca3e5c54d852e240463a36f7cb78dc29cd246e81362",
      "assetIds": [
        "55464657044963196816950587289035428064568320970692304673817341489687656669184",
        "55464657044963196816950587289035428064568320970692304673817341489687665059844",
        "55464657044963196816950587289035428064568320970692304673817341489687665059840"
      ]
    },
    {
      "x": 336,
      "y": 298,
      "size": 1,
      "price": "4683000000000000000000",
      "reserved": "",
      "salt": "0x4304cedaa7322b9667018923384b149335405516a502df6477df695443eccb3c",
      "assetIds": [
        "55464657044963196816950587289035428064568320970692304673817341489687656669185",
        "55464657044963196816950587289035428064568320970692304673817341489687665059842",
        "55464657044963196816950587289035428064568320970692304673817341489687665059840"
      ]
    },
    {
      "x": 336,
      "y": 299,
      "size": 1,
      "price": "4683000000000000000000",
      "reserved": "",
      "salt": "0xb398e663b59375df296fc8dd38dd3c96a4938bd12f9a1f70d838973d13606551",
      "assetIds": [
        "55464657044963196816950587289035428064568320970692304673817341489687656669186",
        "55464657044963196816950587289035428064568320970692304673817341489687665059844",
        "55464657044963196816950587289035428064568320970692304673817341489687665059841"
      ]
    },
    {
      "x": 337,
      "y": 252,
      "size": 1,
      "price": "4683000000000000000000",
      "reserved": "",
      "salt": "0xa85163552be48772a2a0478cba01b6d1696de6d31d75c1f557b5dd591b44f758",
      "assetIds": [
        "55464657044963196816950587289035428064568320970692304673817341489687656669187",
        "55464657044963196816950587289035428064568320970692304673817341489687665059843",
        "55464657044963196816950587289035428064568320970692304673817341489687665059841"
      ]
    },
    {
      "x": 337,
      "y": 253,
      "size": 1,
      "price": "1011000000000000000000",
      "reserved": "0x7a9fe22691c811ea339d9b73150e6911a5343dca",
      "salt": "0xbd71ad1700a84eaf2794d4beeeeaca276cb3677cf1a108d8d168d94f4fec7954",
      "assetIds": []
    },
    {
      "x": 337,
      "y": 254,
      "size": 1,
      "price": "4683000000000000000000",
      "reserved": "",
      "salt": "0xf996090153998da72e2e8079699f016f98d1f6aefcd40cbbc0d8047b7627fc20",
      "assetIds": [
        "55464657044963196816950587289035428064568320970692304673817341489687656669185",
        "55464657044963196816950587289035428064568320970692304673817341489687665059842",
        "55464657044963196816950587289035428064568320970692304673817341489687665059840"
      ]
    },
    {
      "x": 337,
      "y": 258,
      "size": 1,
      "price": "4683000000000000000000",
      "reserved": "",
      "salt": "0x7df67112347a246649f1d0f0342e60a184d7745529e4b62babd425ab828c1727",
      "assetIds": [
        "55464657044963196816950587289035428064568320970692304673817341489687656669185",
        "55464657044963196816950587289035428064568320970692304673817341489687665059844",
        "55464657044963196816950587289035428064568320970692304673817341489687665059840"
      ]
    },
    {
      "x": 337,
      "y": 259,
      "size": 1,
      "price": "4683000000000000000000",
      "reserved": "",
      "salt": "0xff9fe3016c608e098847a3da4e42e382429807f748fda43ccfc0338f9036f660",
      "assetIds": [
        "55464657044963196816950587289035428064568320970692304673817341489687656669187",
        "55464657044963196816950587289035428064568320970692304673817341489687665059844",
        "55464657044963196816950587289035428064568320970692304673817341489687665059841"
      ]
    },
    {
      "x": 337,
      "y": 260,
      "size": 1,
      "price": "4683000000000000000000",
      "reserved": "",
      "salt": "0xf8725d2d42bd283179dd38fb6d2301abc1694f1f7cfde89801912885a4a6868b",
      "assetIds": [
        "55464657044963196816950587289035428064568320970692304673817341489687656669187",
        "55464657044963196816950587289035428064568320970692304673817341489687665059843",
        "55464657044963196816950587289035428064568320970692304673817341489687665059841"
      ]
    },
    {
      "x": 337,
      "y": 261,
      "size": 1,
      "price": "4683000000000000000000",
      "reserved": "",
      "salt": "0xa0cd2ee22168622bf3efd842bac3d78ecbf4e1ef9182903b04d2e68aae168c87",
      "assetIds": [
        "55464657044963196816950587289035428064568320970692304673817341489687656669185",
        "55464657044963196816950587289035428064568320970692304673817341489687665059844",
        "55464657044963196816950587289035428064568320970692304673817341489687665059840"
      ]
    },
    {
      "x": 337,
      "y": 262,
      "size": 1,
      "price": "4683000000000000000000",
      "reserved": "",
      "salt": "0x670f527463ab58edb18d767927ab9fe8801e85ee8f8ead9738088addda0f4016",
      "assetIds": [
        "55464657044963196816950587289035428064568320970692304673817341489687656669186",
        "55464657044963196816950587289035428064568320970692304673817341489687665059842",
        "55464657044963196816950587289035428064568320970692304673817341489687665059841"
      ]
    },
    {
      "x": 337,
      "y": 263,
      "size": 1,
      "price": "4683000000000000000000",
      "reserved": "",
      "salt": "0x0528d8f5b2a4045dc33dd2785fb82df5357d3cb2551a9000fa9adaf847ca3c14",
      "assetIds": [
        "55464657044963196816950587289035428064568320970692304673817341489687656669186",
        "55464657044963196816950587289035428064568320970692304673817341489687665059843",
        "55464657044963196816950587289035428064568320970692304673817341489687665059841"
      ]
    },
    {
      "x": 337,
      "y": 288,
      "size": 1,
      "price": "4683000000000000000000",
      "reserved": "",
      "salt": "0x7e4eb804a1a02ad17ae847681172a249302a832999a34f2777a7d306b924850c",
      "assetIds": [
        "55464657044963196816950587289035428064568320970692304673817341489687656669185",
        "55464657044963196816950587289035428064568320970692304673817341489687665059842",
        "55464657044963196816950587289035428064568320970692304673817341489687665059840"
      ]
    },
    {
      "x": 337,
      "y": 289,
      "size": 1,
      "price": "4683000000000000000000",
      "reserved": "",
      "salt": "0xe222d0cd26e5618e70246c1be1a05509ab0e88f31261af0e5aa6872405565a9e",
      "assetIds": [
        "55464657044963196816950587289035428064568320970692304673817341489687656669184",
        "55464657044963196816950587289035428064568320970692304673817341489687665059843",
        "55464657044963196816950587289035428064568320970692304673817341489687665059840"
      ]
    },
    {
      "x": 337,
      "y": 290,
      "size": 1,
      "price": "4683000000000000000000",
      "reserved": "",
      "salt": "0xd4950cbc44379c190616eda29c9823129ed46a86377168b5aca95255e47a590d",
      "assetIds": [
        "55464657044963196816950587289035428064568320970692304673817341489687656669186",
        "55464657044963196816950587289035428064568320970692304673817341489687665059844",
        "55464657044963196816950587289035428064568320970692304673817341489687665059841"
      ]
    },
    {
      "x": 337,
      "y": 291,
      "size": 1,
      "price": "4683000000000000000000",
      "reserved": "",
      "salt": "0xb1f4058e1664b7fa44300512e1f0ccfb134194683b7c2199f5e128da26b1e9eb",
      "assetIds": [
        "55464657044963196816950587289035428064568320970692304673817341489687656669186",
        "55464657044963196816950587289035428064568320970692304673817341489687665059842",
        "55464657044963196816950587289035428064568320970692304673817341489687665059841"
      ]
    },
    {
      "x": 337,
      "y": 292,
      "size": 1,
      "price": "4683000000000000000000",
      "reserved": "",
      "salt": "0xa3fd1efb1851e18087157c6bd1af102bbace135e261acd7e667473da9c69b1f9",
      "assetIds": [
        "55464657044963196816950587289035428064568320970692304673817341489687656669185",
        "55464657044963196816950587289035428064568320970692304673817341489687665059843",
        "55464657044963196816950587289035428064568320970692304673817341489687665059840"
      ]
    },
    {
      "x": 337,
      "y": 293,
      "size": 1,
      "price": "4683000000000000000000",
      "reserved": "",
      "salt": "0x75429ee6c838e92a433eba502f1b125373bf26077c2f8a9201eb4254cc2b930b",
      "assetIds": [
        "55464657044963196816950587289035428064568320970692304673817341489687656669187",
        "55464657044963196816950587289035428064568320970692304673817341489687665059842",
        "55464657044963196816950587289035428064568320970692304673817341489687665059841"
      ]
    },
    {
      "x": 337,
      "y": 294,
      "size": 1,
      "price": "4683000000000000000000",
      "reserved": "",
      "salt": "0xb50506ad1281823d12ec8db85c023879665304a660da08b9330378874eef85de",
      "assetIds": [
        "55464657044963196816950587289035428064568320970692304673817341489687656669185",
        "55464657044963196816950587289035428064568320970692304673817341489687665059844",
        "55464657044963196816950587289035428064568320970692304673817341489687665059840"
      ]
    },
    {
      "x": 337,
      "y": 295,
      "size": 1,
      "price": "4683000000000000000000",
      "reserved": "",
      "salt": "0xf106e6199f8617eb9b12d3c551f05b20a775c0b801076aa8ceca95bfaeea2891",
      "assetIds": [
        "55464657044963196816950587289035428064568320970692304673817341489687656669187",
        "55464657044963196816950587289035428064568320970692304673817341489687665059843",
        "55464657044963196816950587289035428064568320970692304673817341489687665059841"
      ]
    },
    {
      "x": 337,
      "y": 296,
      "size": 1,
      "price": "4683000000000000000000",
      "reserved": "",
      "salt": "0xd6d7a45451f4218018d0e6fbbe6937a1ec387a80d37acfc70cbeb35805f6d551",
      "assetIds": [
        "55464657044963196816950587289035428064568320970692304673817341489687656669184",
        "55464657044963196816950587289035428064568320970692304673817341489687665059842",
        "55464657044963196816950587289035428064568320970692304673817341489687665059840"
      ]
    },
    {
      "x": 337,
      "y": 297,
      "size": 1,
      "price": "4683000000000000000000",
      "reserved": "",
      "salt": "0xa21a5468a1aec47fc4899f9aaf98b4535b0715bd4a4d2d2bf27826bc22ccec05",
      "assetIds": [
        "55464657044963196816950587289035428064568320970692304673817341489687656669187",
        "55464657044963196816950587289035428064568320970692304673817341489687665059843",
        "55464657044963196816950587289035428064568320970692304673817341489687665059841"
      ]
    },
    {
      "x": 337,
      "y": 298,
      "size": 1,
      "price": "4683000000000000000000",
      "reserved": "",
      "salt": "0x38f3ba660451ed6c55cd1188f055545f2767d58cf8ba5fe3713ce863413d02e1",
      "assetIds": [
        "55464657044963196816950587289035428064568320970692304673817341489687656669185",
        "55464657044963196816950587289035428064568320970692304673817341489687665059842",
        "55464657044963196816950587289035428064568320970692304673817341489687665059840"
      ]
    },
    {
      "x": 337,
      "y": 299,
      "size": 1,
      "price": "4683000000000000000000",
      "reserved": "",
      "salt": "0xa99a71c41afc59bbbb6ecc5065c7c1f7adfc09f7af88fa9aec58d8d80f8293ac",
      "assetIds": [
        "55464657044963196816950587289035428064568320970692304673817341489687656669184",
        "55464657044963196816950587289035428064568320970692304673817341489687665059844",
        "55464657044963196816950587289035428064568320970692304673817341489687665059840"
      ]
    },
    {
      "x": 338,
      "y": 252,
      "size": 1,
      "price": "4683000000000000000000",
      "reserved": "",
      "salt": "0x49e9748ff7da0e21a982b0254bb7e92942d94d8c829778e729e3f5796e648cf1",
      "assetIds": [
        "55464657044963196816950587289035428064568320970692304673817341489687656669186",
        "55464657044963196816950587289035428064568320970692304673817341489687665059842",
        "55464657044963196816950587289035428064568320970692304673817341489687665059841"
      ]
    },
    {
      "x": 338,
      "y": 253,
      "size": 1,
      "price": "4683000000000000000000",
      "reserved": "",
      "salt": "0xc50be9b29fd1621f6239c70ee054eaecdf071169af42cd72a5a11ccaa39355d2",
      "assetIds": [
        "55464657044963196816950587289035428064568320970692304673817341489687656669185",
        "55464657044963196816950587289035428064568320970692304673817341489687665059843",
        "55464657044963196816950587289035428064568320970692304673817341489687665059840"
      ]
    },
    {
      "x": 338,
      "y": 254,
      "size": 1,
      "price": "4683000000000000000000",
      "reserved": "",
      "salt": "0xe5136bb124ac08126527e6eab0d56396f5cd5cae50afb77347aa42bb22ad7cc7",
      "assetIds": [
        "55464657044963196816950587289035428064568320970692304673817341489687656669185",
        "55464657044963196816950587289035428064568320970692304673817341489687665059843",
        "55464657044963196816950587289035428064568320970692304673817341489687665059840"
      ]
    },
    {
      "x": 338,
      "y": 258,
      "size": 1,
      "price": "4683000000000000000000",
      "reserved": "",
      "salt": "0x43c93fb4cfaed5754ef6087241d6bc37f601311e33e03b783c2478ec5d9f9726",
      "assetIds": [
        "55464657044963196816950587289035428064568320970692304673817341489687656669187",
        "55464657044963196816950587289035428064568320970692304673817341489687665059843",
        "55464657044963196816950587289035428064568320970692304673817341489687665059841"
      ]
    },
    {
      "x": 338,
      "y": 259,
      "size": 1,
      "price": "4683000000000000000000",
      "reserved": "",
      "salt": "0x9efce4deaa8b859577dbbfac71b294c3179dd7a1e2d6049916b75869859e4a88",
      "assetIds": [
        "55464657044963196816950587289035428064568320970692304673817341489687656669187",
        "55464657044963196816950587289035428064568320970692304673817341489687665059842",
        "55464657044963196816950587289035428064568320970692304673817341489687665059841"
      ]
    },
    {
      "x": 338,
      "y": 260,
      "size": 1,
      "price": "4683000000000000000000",
      "reserved": "",
      "salt": "0xdb548a98d099164785dd0fa5770f79897abf9f72137c37e220adaadb0c750d8c",
      "assetIds": [
        "55464657044963196816950587289035428064568320970692304673817341489687656669187",
        "55464657044963196816950587289035428064568320970692304673817341489687665059844",
        "55464657044963196816950587289035428064568320970692304673817341489687665059841"
      ]
    },
    {
      "x": 338,
      "y": 261,
      "size": 1,
      "price": "4683000000000000000000",
      "reserved": "",
      "salt": "0x638d947fbb717010621fac4b8b40075a63f0a51702a447ef1cbee64da2501c11",
      "assetIds": [
        "55464657044963196816950587289035428064568320970692304673817341489687656669186",
        "55464657044963196816950587289035428064568320970692304673817341489687665059844",
        "55464657044963196816950587289035428064568320970692304673817341489687665059841"
      ]
    },
    {
      "x": 338,
      "y": 262,
      "size": 1,
      "price": "4683000000000000000000",
      "reserved": "",
      "salt": "0xd3550102093bca0c21377cfcec9fc39e430e9cec96e3dc9aede039b18f109d6a",
      "assetIds": [
        "55464657044963196816950587289035428064568320970692304673817341489687656669187",
        "55464657044963196816950587289035428064568320970692304673817341489687665059843",
        "55464657044963196816950587289035428064568320970692304673817341489687665059841"
      ]
    },
    {
      "x": 338,
      "y": 263,
      "size": 1,
      "price": "4683000000000000000000",
      "reserved": "",
      "salt": "0xad85a8d1268eb67689a0116a36ef4dc1055504d048f82b959585a70d43b076fb",
      "assetIds": [
        "55464657044963196816950587289035428064568320970692304673817341489687656669187",
        "55464657044963196816950587289035428064568320970692304673817341489687665059843",
        "55464657044963196816950587289035428064568320970692304673817341489687665059841"
      ]
    },
    {
      "x": 338,
      "y": 288,
      "size": 1,
      "price": "4683000000000000000000",
      "reserved": "",
      "salt": "0xb4e9db9e744089ece3772f292add9cb9ed1ce4f64137b2bd1eddb44b04d3edd4",
      "assetIds": [
        "55464657044963196816950587289035428064568320970692304673817341489687656669187",
        "55464657044963196816950587289035428064568320970692304673817341489687665059842",
        "55464657044963196816950587289035428064568320970692304673817341489687665059841"
      ]
    },
    {
      "x": 338,
      "y": 289,
      "size": 1,
      "price": "1011000000000000000000",
      "reserved": "0x7a9fe22691c811ea339d9b73150e6911a5343dca",
      "salt": "0xa54043b28dd57eb278f4d2798e1c19a340242bc7110037ecc8430aef9c3ab3e4",
      "assetIds": []
    },
    {
      "x": 338,
      "y": 290,
      "size": 1,
      "price": "4683000000000000000000",
      "reserved": "",
      "salt": "0xbbccacb38d46d54f854585575e82dc3e5de174d637c9d85412f061d18fe44a61",
      "assetIds": [
        "55464657044963196816950587289035428064568320970692304673817341489687656669185",
        "55464657044963196816950587289035428064568320970692304673817341489687665059844",
        "55464657044963196816950587289035428064568320970692304673817341489687665059840"
      ]
    },
    {
      "x": 338,
      "y": 291,
      "size": 1,
      "price": "4683000000000000000000",
      "reserved": "",
      "salt": "0x597c76b111d8667592c931333e575f78a5ae0a8b23eacadf3bc36b93e1101669",
      "assetIds": [
        "55464657044963196816950587289035428064568320970692304673817341489687656669184",
        "55464657044963196816950587289035428064568320970692304673817341489687665059842",
        "55464657044963196816950587289035428064568320970692304673817341489687665059840"
      ]
    },
    {
      "x": 338,
      "y": 292,
      "size": 1,
      "price": "4683000000000000000000",
      "reserved": "",
      "salt": "0xd0b1d5cd557836370bd5b75d6eafefd4dcb7a6cb70e400aad4c43c60584d8c54",
      "assetIds": [
        "55464657044963196816950587289035428064568320970692304673817341489687656669185",
        "55464657044963196816950587289035428064568320970692304673817341489687665059842",
        "55464657044963196816950587289035428064568320970692304673817341489687665059840"
      ]
    },
    {
      "x": 338,
      "y": 293,
      "size": 1,
      "price": "4683000000000000000000",
      "reserved": "",
      "salt": "0x1f6efc4ed5210ed165c426b0c0c941fe9ec7b7c02818e4a1643602a1e568611b",
      "assetIds": [
        "55464657044963196816950587289035428064568320970692304673817341489687656669187",
        "55464657044963196816950587289035428064568320970692304673817341489687665059842",
        "55464657044963196816950587289035428064568320970692304673817341489687665059841"
      ]
    },
    {
      "x": 338,
      "y": 294,
      "size": 1,
      "price": "4683000000000000000000",
      "reserved": "",
      "salt": "0x883a43000f8f17f4d44d0e5b4ff5eace70f054e3c4fdd1b137d7996f85f08033",
      "assetIds": [
        "55464657044963196816950587289035428064568320970692304673817341489687656669185",
        "55464657044963196816950587289035428064568320970692304673817341489687665059844",
        "55464657044963196816950587289035428064568320970692304673817341489687665059840"
      ]
    },
    {
      "x": 338,
      "y": 295,
      "size": 1,
      "price": "4683000000000000000000",
      "reserved": "",
      "salt": "0xba04cf26d9ea28c6a6203ec4f67ab268938eabece902795709520e54f19127e8",
      "assetIds": [
        "55464657044963196816950587289035428064568320970692304673817341489687656669185",
        "55464657044963196816950587289035428064568320970692304673817341489687665059843",
        "55464657044963196816950587289035428064568320970692304673817341489687665059840"
      ]
    },
    {
      "x": 338,
      "y": 296,
      "size": 1,
      "price": "4683000000000000000000",
      "reserved": "",
      "salt": "0xe9d7bf67e9a978df38d175ab47ea59b9042f43cc905fcd8ab6da99fe5b063eaa",
      "assetIds": [
        "55464657044963196816950587289035428064568320970692304673817341489687656669184",
        "55464657044963196816950587289035428064568320970692304673817341489687665059842",
        "55464657044963196816950587289035428064568320970692304673817341489687665059840"
      ]
    },
    {
      "x": 338,
      "y": 297,
      "size": 1,
      "price": "4683000000000000000000",
      "reserved": "",
      "salt": "0x0d51dc8cbfa6ca40cc162c6b6d75d537e329dacbd90174c6ed7c22da4bfad6eb",
      "assetIds": [
        "55464657044963196816950587289035428064568320970692304673817341489687656669184",
        "55464657044963196816950587289035428064568320970692304673817341489687665059843",
        "55464657044963196816950587289035428064568320970692304673817341489687665059840"
      ]
    },
    {
      "x": 338,
      "y": 298,
      "size": 1,
      "price": "4683000000000000000000",
      "reserved": "",
      "salt": "0xaadcf89296cfeba449a583eafce2d7b8e56c6b5fd08732c61f884756ec424694",
      "assetIds": [
        "55464657044963196816950587289035428064568320970692304673817341489687656669187",
        "55464657044963196816950587289035428064568320970692304673817341489687665059844",
        "55464657044963196816950587289035428064568320970692304673817341489687665059841"
      ]
    },
    {
      "x": 338,
      "y": 299,
      "size": 1,
      "price": "4683000000000000000000",
      "reserved": "",
      "salt": "0x2f1fbdbb2712a3f831dc8676320f1efc6756f0400ac85d34b52967140989c9eb",
      "assetIds": [
        "55464657044963196816950587289035428064568320970692304673817341489687656669184",
        "55464657044963196816950587289035428064568320970692304673817341489687665059843",
        "55464657044963196816950587289035428064568320970692304673817341489687665059840"
      ]
    },
    {
      "x": 339,
      "y": 246,
      "size": 1,
      "price": "4683000000000000000000",
      "reserved": "",
      "salt": "0x2277101bd6f754286d11f996c5dd6bbaee6c59f7fbf39d98b864fc68d46940c2",
      "assetIds": [
        "55464657044963196816950587289035428064568320970692304673817341489687656669186",
        "55464657044963196816950587289035428064568320970692304673817341489687665059842",
        "55464657044963196816950587289035428064568320970692304673817341489687665059841"
      ]
    },
    {
      "x": 339,
      "y": 247,
      "size": 1,
      "price": "4683000000000000000000",
      "reserved": "",
      "salt": "0x469d7b7f331bdaf223f3776695511b104556e26142ab270e35ec13d3003f6c4e",
      "assetIds": [
        "55464657044963196816950587289035428064568320970692304673817341489687656669185",
        "55464657044963196816950587289035428064568320970692304673817341489687665059843",
        "55464657044963196816950587289035428064568320970692304673817341489687665059840"
      ]
    },
    {
      "x": 339,
      "y": 248,
      "size": 1,
      "price": "4683000000000000000000",
      "reserved": "",
      "salt": "0x7dc041a2dfb21c58d2566eba0a3006a6de6f772946e2dca836d9abf2a6a6bd86",
      "assetIds": [
        "55464657044963196816950587289035428064568320970692304673817341489687656669185",
        "55464657044963196816950587289035428064568320970692304673817341489687665059842",
        "55464657044963196816950587289035428064568320970692304673817341489687665059840"
      ]
    },
    {
      "x": 339,
      "y": 249,
      "size": 1,
      "price": "4683000000000000000000",
      "reserved": "",
      "salt": "0xcecd31bed32078dd41f0460af119b01e0baeada7d6f6b575c335524a04f2ed73",
      "assetIds": [
        "55464657044963196816950587289035428064568320970692304673817341489687656669185",
        "55464657044963196816950587289035428064568320970692304673817341489687665059843",
        "55464657044963196816950587289035428064568320970692304673817341489687665059840"
      ]
    },
    {
      "x": 339,
      "y": 250,
      "size": 1,
      "price": "4683000000000000000000",
      "reserved": "",
      "salt": "0x2dfb64406080f156dda1ddfd0da1b8a78bbc2549201e894c55a92b5e11197a49",
      "assetIds": [
        "55464657044963196816950587289035428064568320970692304673817341489687656669186",
        "55464657044963196816950587289035428064568320970692304673817341489687665059843",
        "55464657044963196816950587289035428064568320970692304673817341489687665059841"
      ]
    },
    {
      "x": 339,
      "y": 251,
      "size": 1,
      "price": "4683000000000000000000",
      "reserved": "",
      "salt": "0xa5f33f277704d43de13c8d24a9b97ec3a462f91d558dfe6a974e45acfc0f0e9c",
      "assetIds": [
        "55464657044963196816950587289035428064568320970692304673817341489687656669185",
        "55464657044963196816950587289035428064568320970692304673817341489687665059843",
        "55464657044963196816950587289035428064568320970692304673817341489687665059840"
      ]
    },
    {
      "x": 339,
      "y": 255,
      "size": 1,
      "price": "4683000000000000000000",
      "reserved": "",
      "salt": "0x504456551853a2db13e06b8e07e111147c8c59d433efaf506bc8372a78991391",
      "assetIds": [
        "55464657044963196816950587289035428064568320970692304673817341489687656669184",
        "55464657044963196816950587289035428064568320970692304673817341489687665059842",
        "55464657044963196816950587289035428064568320970692304673817341489687665059840"
      ]
    },
    {
      "x": 339,
      "y": 256,
      "size": 1,
      "price": "4683000000000000000000",
      "reserved": "",
      "salt": "0xfc9d1ae74e8613911d9153b1053b39f4fc2364cd16b0cb7516fa6f07f0fb108c",
      "assetIds": [
        "55464657044963196816950587289035428064568320970692304673817341489687656669186",
        "55464657044963196816950587289035428064568320970692304673817341489687665059844",
        "55464657044963196816950587289035428064568320970692304673817341489687665059841"
      ]
    },
    {
      "x": 339,
      "y": 257,
      "size": 1,
      "price": "4683000000000000000000",
      "reserved": "",
      "salt": "0x4b69561201b6fc3145de1211291cd25bf3d54379835c1a85500234c7ff438271",
      "assetIds": [
        "55464657044963196816950587289035428064568320970692304673817341489687656669184",
        "55464657044963196816950587289035428064568320970692304673817341489687665059844",
        "55464657044963196816950587289035428064568320970692304673817341489687665059840"
      ]
    },
    {
      "x": 339,
      "y": 258,
      "size": 1,
      "price": "4683000000000000000000",
      "reserved": "",
      "salt": "0x6c9fccab0a26f8da7214b60d57a8e082e68370d95c8c2791027cbde0e500e651",
      "assetIds": [
        "55464657044963196816950587289035428064568320970692304673817341489687656669184",
        "55464657044963196816950587289035428064568320970692304673817341489687665059843",
        "55464657044963196816950587289035428064568320970692304673817341489687665059840"
      ]
    },
    {
      "x": 339,
      "y": 259,
      "size": 1,
      "price": "4683000000000000000000",
      "reserved": "",
      "salt": "0x01cf239122dd2368bf178ce552d75ef57e1bada3512d2e78ea8dcbb0d92288b4",
      "assetIds": [
        "55464657044963196816950587289035428064568320970692304673817341489687656669186",
        "55464657044963196816950587289035428064568320970692304673817341489687665059844",
        "55464657044963196816950587289035428064568320970692304673817341489687665059841"
      ]
    },
    {
      "x": 339,
      "y": 260,
      "size": 1,
      "price": "4683000000000000000000",
      "reserved": "",
      "salt": "0xad5854836637c43f0ed93e307a8be385c201d1d6876c5e3e9de8d22cecb7e929",
      "assetIds": [
        "55464657044963196816950587289035428064568320970692304673817341489687656669185",
        "55464657044963196816950587289035428064568320970692304673817341489687665059842",
        "55464657044963196816950587289035428064568320970692304673817341489687665059840"
      ]
    },
    {
      "x": 339,
      "y": 261,
      "size": 1,
      "price": "4683000000000000000000",
      "reserved": "",
      "salt": "0x5fab94ea2ea6186ef5db6411782c1f459ab01bda1cb3983eaed3f6eaf4a6b26c",
      "assetIds": [
        "55464657044963196816950587289035428064568320970692304673817341489687656669185",
        "55464657044963196816950587289035428064568320970692304673817341489687665059843",
        "55464657044963196816950587289035428064568320970692304673817341489687665059840"
      ]
    },
    {
      "x": 339,
      "y": 262,
      "size": 1,
      "price": "1011000000000000000000",
      "reserved": "0x7a9fe22691c811ea339d9b73150e6911a5343dca",
      "salt": "0xd4a682fd1cf15b9d7e0ba8185a3e56dea5e50654b87dd6113abb2004c7b62b13",
      "assetIds": []
    },
    {
      "x": 339,
      "y": 263,
      "size": 1,
      "price": "4683000000000000000000",
      "reserved": "",
      "salt": "0xc5b8e20e8a677a9e35375502dfacdc01eabda3e5f8b7751008c9540dfaaad77c",
      "assetIds": [
        "55464657044963196816950587289035428064568320970692304673817341489687656669186",
        "55464657044963196816950587289035428064568320970692304673817341489687665059842",
        "55464657044963196816950587289035428064568320970692304673817341489687665059841"
      ]
    },
    {
      "x": 339,
      "y": 288,
      "size": 1,
      "price": "4683000000000000000000",
      "reserved": "",
      "salt": "0xca84f197748968e1404a064738bd52e8359acbcdb2337e6893899f55a845da28",
      "assetIds": [
        "55464657044963196816950587289035428064568320970692304673817341489687656669186",
        "55464657044963196816950587289035428064568320970692304673817341489687665059842",
        "55464657044963196816950587289035428064568320970692304673817341489687665059841"
      ]
    },
    {
      "x": 339,
      "y": 289,
      "size": 1,
      "price": "4683000000000000000000",
      "reserved": "",
      "salt": "0x7a190908abc700e6a2c1dee0c39480748e6d2bb76a03ff9f35c40be6ad0b36e7",
      "assetIds": [
        "55464657044963196816950587289035428064568320970692304673817341489687656669187",
        "55464657044963196816950587289035428064568320970692304673817341489687665059843",
        "55464657044963196816950587289035428064568320970692304673817341489687665059841"
      ]
    },
    {
      "x": 339,
      "y": 290,
      "size": 1,
      "price": "4683000000000000000000",
      "reserved": "",
      "salt": "0xbf7521e2039af33ae429c018ace3cf0b0bd55c41b7d0893cfda97940656d631d",
      "assetIds": [
        "55464657044963196816950587289035428064568320970692304673817341489687656669184",
        "55464657044963196816950587289035428064568320970692304673817341489687665059843",
        "55464657044963196816950587289035428064568320970692304673817341489687665059840"
      ]
    },
    {
      "x": 339,
      "y": 291,
      "size": 1,
      "price": "4683000000000000000000",
      "reserved": "",
      "salt": "0x50f8b56dac037734a16a63fc74e03e62b936fd0d5ab9befb2a433cd471d1a0b2",
      "assetIds": [
        "55464657044963196816950587289035428064568320970692304673817341489687656669185",
        "55464657044963196816950587289035428064568320970692304673817341489687665059844",
        "55464657044963196816950587289035428064568320970692304673817341489687665059840"
      ]
    },
    {
      "x": 339,
      "y": 292,
      "size": 1,
      "price": "4683000000000000000000",
      "reserved": "",
      "salt": "0x8f4b3967e727b0bbe003e0bd2e3002e0ef5105e13299683c80050edbb46e91f8",
      "assetIds": [
        "55464657044963196816950587289035428064568320970692304673817341489687656669187",
        "55464657044963196816950587289035428064568320970692304673817341489687665059843",
        "55464657044963196816950587289035428064568320970692304673817341489687665059841"
      ]
    },
    {
      "x": 339,
      "y": 293,
      "size": 1,
      "price": "4683000000000000000000",
      "reserved": "",
      "salt": "0x2472eea1c9daa289bda18f2bc626595c420d81713b9f7a1cfbbbaa5c8571cc86",
      "assetIds": [
        "55464657044963196816950587289035428064568320970692304673817341489687656669184",
        "55464657044963196816950587289035428064568320970692304673817341489687665059844",
        "55464657044963196816950587289035428064568320970692304673817341489687665059840"
      ]
    },
    {
      "x": 339,
      "y": 294,
      "size": 1,
      "price": "4683000000000000000000",
      "reserved": "",
      "salt": "0xb3fcc73a2f46f72c4486954a7fb3cec90cd5e7301e7c971e7f8a61cc408414c7",
      "assetIds": [
        "55464657044963196816950587289035428064568320970692304673817341489687656669186",
        "55464657044963196816950587289035428064568320970692304673817341489687665059842",
        "55464657044963196816950587289035428064568320970692304673817341489687665059841"
      ]
    },
    {
      "x": 339,
      "y": 295,
      "size": 1,
      "price": "4683000000000000000000",
      "reserved": "",
      "salt": "0x81667c41e9bf85fa484a5d1a095b8df5d8ce2f1811d88a24e3b51191ddf44e46",
      "assetIds": [
        "55464657044963196816950587289035428064568320970692304673817341489687656669186",
        "55464657044963196816950587289035428064568320970692304673817341489687665059842",
        "55464657044963196816950587289035428064568320970692304673817341489687665059841"
      ]
    },
    {
      "x": 339,
      "y": 296,
      "size": 1,
      "price": "4683000000000000000000",
      "reserved": "",
      "salt": "0x7a1afae38b209ab6f9e2666f1448748524e8915401c067bf32f0896043a9a6e8",
      "assetIds": [
        "55464657044963196816950587289035428064568320970692304673817341489687656669185",
        "55464657044963196816950587289035428064568320970692304673817341489687665059842",
        "55464657044963196816950587289035428064568320970692304673817341489687665059840"
      ]
    },
    {
      "x": 339,
      "y": 297,
      "size": 1,
      "price": "4683000000000000000000",
      "reserved": "",
      "salt": "0xf1be908dae9dd215a92917032d6940ab435bfe10a96ac993bb2c2878bf8dc9a6",
      "assetIds": [
        "55464657044963196816950587289035428064568320970692304673817341489687656669185",
        "55464657044963196816950587289035428064568320970692304673817341489687665059843",
        "55464657044963196816950587289035428064568320970692304673817341489687665059840"
      ]
    },
    {
      "x": 339,
      "y": 298,
      "size": 1,
      "price": "4683000000000000000000",
      "reserved": "",
      "salt": "0xf21f08b97a6d002a9c9f8eeaa0946187e799123f0918c268592a4fa6bf334600",
      "assetIds": [
        "55464657044963196816950587289035428064568320970692304673817341489687656669186",
        "55464657044963196816950587289035428064568320970692304673817341489687665059844",
        "55464657044963196816950587289035428064568320970692304673817341489687665059841"
      ]
    },
    {
      "x": 339,
      "y": 299,
      "size": 1,
      "price": "4683000000000000000000",
      "reserved": "",
      "salt": "0x9445bce0a426746b9e5331c1d6c4bb69b2d8a9372ffe96badc02793237241ca4",
      "assetIds": [
        "55464657044963196816950587289035428064568320970692304673817341489687656669184",
        "55464657044963196816950587289035428064568320970692304673817341489687665059844",
        "55464657044963196816950587289035428064568320970692304673817341489687665059840"
      ]
    },
    {
      "x": 340,
      "y": 246,
      "size": 1,
      "price": "4683000000000000000000",
      "reserved": "",
      "salt": "0x1fe98f903a84690a36f8db6c63b28c6c2b12fcd2aa9cfbde43c4b9bcc9fc664c",
      "assetIds": [
        "55464657044963196816950587289035428064568320970692304673817341489687656669184",
        "55464657044963196816950587289035428064568320970692304673817341489687665059843",
        "55464657044963196816950587289035428064568320970692304673817341489687665059840"
      ]
    },
    {
      "x": 340,
      "y": 247,
      "size": 1,
      "price": "4683000000000000000000",
      "reserved": "",
      "salt": "0x0f39b8f5afcbc22620356054ccabfafda3a270ce04e720b70e14a15667cbc739",
      "assetIds": [
        "55464657044963196816950587289035428064568320970692304673817341489687656669184",
        "55464657044963196816950587289035428064568320970692304673817341489687665059842",
        "55464657044963196816950587289035428064568320970692304673817341489687665059840"
      ]
    },
    {
      "x": 340,
      "y": 248,
      "size": 1,
      "price": "4683000000000000000000",
      "reserved": "",
      "salt": "0xc0e16aed4b72872ae63e7e6669dca8dbffbe4ebaba5838ba5b31dabdaa420779",
      "assetIds": [
        "55464657044963196816950587289035428064568320970692304673817341489687656669186",
        "55464657044963196816950587289035428064568320970692304673817341489687665059842",
        "55464657044963196816950587289035428064568320970692304673817341489687665059841"
      ]
    },
    {
      "x": 340,
      "y": 249,
      "size": 1,
      "price": "4683000000000000000000",
      "reserved": "",
      "salt": "0x33fdd99712cf36d965640c433915eaaafdf2217702691d823e4bbf92ac574b45",
      "assetIds": [
        "55464657044963196816950587289035428064568320970692304673817341489687656669185",
        "55464657044963196816950587289035428064568320970692304673817341489687665059843",
        "55464657044963196816950587289035428064568320970692304673817341489687665059840"
      ]
    },
    {
      "x": 340,
      "y": 250,
      "size": 1,
      "price": "4683000000000000000000",
      "reserved": "",
      "salt": "0xaa011228a52b8991015237bce3e70e6d4188a6ca44ee582892adc6a748428ba9",
      "assetIds": [
        "55464657044963196816950587289035428064568320970692304673817341489687656669187",
        "55464657044963196816950587289035428064568320970692304673817341489687665059844",
        "55464657044963196816950587289035428064568320970692304673817341489687665059841"
      ]
    },
    {
      "x": 340,
      "y": 251,
      "size": 1,
      "price": "4683000000000000000000",
      "reserved": "",
      "salt": "0x5ea6260a73b66b3f6cf766a99a6f7919838fb43f5c642439e39fe8395d4ea4a9",
      "assetIds": [
        "55464657044963196816950587289035428064568320970692304673817341489687656669184",
        "55464657044963196816950587289035428064568320970692304673817341489687665059843",
        "55464657044963196816950587289035428064568320970692304673817341489687665059840"
      ]
    },
    {
      "x": 340,
      "y": 255,
      "size": 1,
      "price": "4683000000000000000000",
      "reserved": "",
      "salt": "0x252e0f9d7dd9b3ee05480e692d7f01166acdf9d437f66facdfb8acae6babe2c1",
      "assetIds": [
        "55464657044963196816950587289035428064568320970692304673817341489687656669186",
        "55464657044963196816950587289035428064568320970692304673817341489687665059842",
        "55464657044963196816950587289035428064568320970692304673817341489687665059841"
      ]
    },
    {
      "x": 340,
      "y": 256,
      "size": 1,
      "price": "4683000000000000000000",
      "reserved": "",
      "salt": "0x15a85db769fabf729e272ec2f40052fc22348878ad6f6ddce438e6b4ba7d2c66",
      "assetIds": [
        "55464657044963196816950587289035428064568320970692304673817341489687656669185",
        "55464657044963196816950587289035428064568320970692304673817341489687665059843",
        "55464657044963196816950587289035428064568320970692304673817341489687665059840"
      ]
    },
    {
      "x": 340,
      "y": 257,
      "size": 1,
      "price": "4683000000000000000000",
      "reserved": "",
      "salt": "0x89833ceef1c8593acf458879cccbe19f78863f79a14bd10dfc7185c81b4fa612",
      "assetIds": [
        "55464657044963196816950587289035428064568320970692304673817341489687656669184",
        "55464657044963196816950587289035428064568320970692304673817341489687665059842",
        "55464657044963196816950587289035428064568320970692304673817341489687665059840"
      ]
    },
    {
      "x": 340,
      "y": 258,
      "size": 1,
      "price": "4683000000000000000000",
      "reserved": "",
      "salt": "0x7a0a9c723a046e3d0cb37c13480dd33b17ce6d5a3615d7a76d91b5ef82e753b4",
      "assetIds": [
        "55464657044963196816950587289035428064568320970692304673817341489687656669185",
        "55464657044963196816950587289035428064568320970692304673817341489687665059842",
        "55464657044963196816950587289035428064568320970692304673817341489687665059840"
      ]
    },
    {
      "x": 340,
      "y": 259,
      "size": 1,
      "price": "4683000000000000000000",
      "reserved": "",
      "salt": "0xaae37bc4c2c43b927236118ba67042d1e6533198debf40e529e39d753a8cccda",
      "assetIds": [
        "55464657044963196816950587289035428064568320970692304673817341489687656669184",
        "55464657044963196816950587289035428064568320970692304673817341489687665059842",
        "55464657044963196816950587289035428064568320970692304673817341489687665059840"
      ]
    },
    {
      "x": 340,
      "y": 260,
      "size": 1,
      "price": "4683000000000000000000",
      "reserved": "",
      "salt": "0x8ff1b1127ce5cda96e6c064b6ca48e339fbcca1723e990704b3094ff0cde99b4",
      "assetIds": [
        "55464657044963196816950587289035428064568320970692304673817341489687656669186",
        "55464657044963196816950587289035428064568320970692304673817341489687665059844",
        "55464657044963196816950587289035428064568320970692304673817341489687665059841"
      ]
    },
    {
      "x": 340,
      "y": 261,
      "size": 1,
      "price": "4683000000000000000000",
      "reserved": "",
      "salt": "0xfda09c368bcde81abd32ea773c113d996c23d7aedac59b607573399f56c01529",
      "assetIds": [
        "55464657044963196816950587289035428064568320970692304673817341489687656669185",
        "55464657044963196816950587289035428064568320970692304673817341489687665059842",
        "55464657044963196816950587289035428064568320970692304673817341489687665059840"
      ]
    },
    {
      "x": 340,
      "y": 262,
      "size": 1,
      "price": "4683000000000000000000",
      "reserved": "",
      "salt": "0xd5a3c0f83283d89b670641a395996b87074e298b5628bdf557de139ce8d75363",
      "assetIds": [
        "55464657044963196816950587289035428064568320970692304673817341489687656669187",
        "55464657044963196816950587289035428064568320970692304673817341489687665059844",
        "55464657044963196816950587289035428064568320970692304673817341489687665059841"
      ]
    },
    {
      "x": 340,
      "y": 263,
      "size": 1,
      "price": "4683000000000000000000",
      "reserved": "",
      "salt": "0xd0c26749985da66a502e25ab3631eb08ba9699854a5cb706388dfef8e5ecb1c1",
      "assetIds": [
        "55464657044963196816950587289035428064568320970692304673817341489687656669185",
        "55464657044963196816950587289035428064568320970692304673817341489687665059843",
        "55464657044963196816950587289035428064568320970692304673817341489687665059840"
      ]
    },
    {
      "x": 340,
      "y": 288,
      "size": 1,
      "price": "4683000000000000000000",
      "reserved": "",
      "salt": "0xe03d1fa4f3bea309a1dd16190bfa8adffed97d213f2762444d2f19468302993e",
      "assetIds": [
        "55464657044963196816950587289035428064568320970692304673817341489687656669185",
        "55464657044963196816950587289035428064568320970692304673817341489687665059844",
        "55464657044963196816950587289035428064568320970692304673817341489687665059840"
      ]
    },
    {
      "x": 340,
      "y": 289,
      "size": 1,
      "price": "4683000000000000000000",
      "reserved": "",
      "salt": "0x9b2d9affed7c8168c3f9af5d64ca64c5444be86bf927d1227a711bcddb7bd529",
      "assetIds": [
        "55464657044963196816950587289035428064568320970692304673817341489687656669184",
        "55464657044963196816950587289035428064568320970692304673817341489687665059842",
        "55464657044963196816950587289035428064568320970692304673817341489687665059840"
      ]
    },
    {
      "x": 340,
      "y": 290,
      "size": 1,
      "price": "4683000000000000000000",
      "reserved": "",
      "salt": "0xcdf18465d686cccc0c3745ed9fb910f28b413ae866011695a9dc74fd192eb14b",
      "assetIds": [
        "55464657044963196816950587289035428064568320970692304673817341489687656669185",
        "55464657044963196816950587289035428064568320970692304673817341489687665059844",
        "55464657044963196816950587289035428064568320970692304673817341489687665059840"
      ]
    },
    {
      "x": 340,
      "y": 291,
      "size": 1,
      "price": "4683000000000000000000",
      "reserved": "",
      "salt": "0x6ae99ffc3d745970731e1e1d3086e5e247b10b9556db9caf082c9f31ea71ed34",
      "assetIds": [
        "55464657044963196816950587289035428064568320970692304673817341489687656669185",
        "55464657044963196816950587289035428064568320970692304673817341489687665059843",
        "55464657044963196816950587289035428064568320970692304673817341489687665059840"
      ]
    },
    {
      "x": 340,
      "y": 292,
      "size": 1,
      "price": "4683000000000000000000",
      "reserved": "",
      "salt": "0xf77af6425ef3f6360f8ed95a7c2ec78c7c97e57f78b29ff9f5ea7d7d9707256f",
      "assetIds": [
        "55464657044963196816950587289035428064568320970692304673817341489687656669186",
        "55464657044963196816950587289035428064568320970692304673817341489687665059842",
        "55464657044963196816950587289035428064568320970692304673817341489687665059841"
      ]
    },
    {
      "x": 340,
      "y": 293,
      "size": 1,
      "price": "4683000000000000000000",
      "reserved": "",
      "salt": "0xc2ffb2f27dfd1137340407a9f16d03c62ce7f2e720abeb9e80971268259fd717",
      "assetIds": [
        "55464657044963196816950587289035428064568320970692304673817341489687656669186",
        "55464657044963196816950587289035428064568320970692304673817341489687665059842",
        "55464657044963196816950587289035428064568320970692304673817341489687665059841"
      ]
    },
    {
      "x": 340,
      "y": 294,
      "size": 1,
      "price": "4683000000000000000000",
      "reserved": "",
      "salt": "0xddfd308bdbdaf91eca3d6a4ae9d2bc02a6188591b5485c46a435ca9f8b0f63ab",
      "assetIds": [
        "55464657044963196816950587289035428064568320970692304673817341489687656669184",
        "55464657044963196816950587289035428064568320970692304673817341489687665059844",
        "55464657044963196816950587289035428064568320970692304673817341489687665059840"
      ]
    },
    {
      "x": 340,
      "y": 295,
      "size": 1,
      "price": "4683000000000000000000",
      "reserved": "",
      "salt": "0x85dd024712c3409b9edc541728cf9e63bafbcbae802a5263cc8114401478ac6b",
      "assetIds": [
        "55464657044963196816950587289035428064568320970692304673817341489687656669184",
        "55464657044963196816950587289035428064568320970692304673817341489687665059843",
        "55464657044963196816950587289035428064568320970692304673817341489687665059840"
      ]
    },
    {
      "x": 340,
      "y": 296,
      "size": 1,
      "price": "4683000000000000000000",
      "reserved": "",
      "salt": "0xab79ea2bb4560b44d493bd15d1455b082e779bd5ef2e027df84f6f228db7a9fe",
      "assetIds": [
        "55464657044963196816950587289035428064568320970692304673817341489687656669184",
        "55464657044963196816950587289035428064568320970692304673817341489687665059844",
        "55464657044963196816950587289035428064568320970692304673817341489687665059840"
      ]
    },
    {
      "x": 340,
      "y": 297,
      "size": 1,
      "price": "4683000000000000000000",
      "reserved": "",
      "salt": "0xe2af925706a5bfb2eea14387c5948322110ed8d07eb9d23546df9cad9955e2cb",
      "assetIds": [
        "55464657044963196816950587289035428064568320970692304673817341489687656669185",
        "55464657044963196816950587289035428064568320970692304673817341489687665059843",
        "55464657044963196816950587289035428064568320970692304673817341489687665059840"
      ]
    },
    {
      "x": 340,
      "y": 298,
      "size": 1,
      "price": "4683000000000000000000",
      "reserved": "",
      "salt": "0xd3caaf4e88caec2ed1878eeb15a04e3b85cff76d747a04e506e375b03d1e1c57",
      "assetIds": [
        "55464657044963196816950587289035428064568320970692304673817341489687656669185",
        "55464657044963196816950587289035428064568320970692304673817341489687665059844",
        "55464657044963196816950587289035428064568320970692304673817341489687665059840"
      ]
    },
    {
      "x": 340,
      "y": 299,
      "size": 1,
      "price": "4683000000000000000000",
      "reserved": "",
      "salt": "0xe6655db5793a8cf5554974facfc8243bf256f7b141f7a3f778dca9a056b2796a",
      "assetIds": [
        "55464657044963196816950587289035428064568320970692304673817341489687656669187",
        "55464657044963196816950587289035428064568320970692304673817341489687665059842",
        "55464657044963196816950587289035428064568320970692304673817341489687665059841"
      ]
    },
    {
      "x": 341,
      "y": 246,
      "size": 1,
      "price": "4683000000000000000000",
      "reserved": "",
      "salt": "0xb2184efc7509ffc5fccdc9d8139c9ce4da12b92b92cd74ecd8a2c0e9e575cc46",
      "assetIds": [
        "55464657044963196816950587289035428064568320970692304673817341489687656669184",
        "55464657044963196816950587289035428064568320970692304673817341489687665059842",
        "55464657044963196816950587289035428064568320970692304673817341489687665059840"
      ]
    },
    {
      "x": 341,
      "y": 247,
      "size": 1,
      "price": "4683000000000000000000",
      "reserved": "",
      "salt": "0x7f7332721ddf564fd78afc1918a870b3f9e28ae7f058ffe9606b31032b300af3",
      "assetIds": [
        "55464657044963196816950587289035428064568320970692304673817341489687656669186",
        "55464657044963196816950587289035428064568320970692304673817341489687665059842",
        "55464657044963196816950587289035428064568320970692304673817341489687665059841"
      ]
    },
    {
      "x": 341,
      "y": 248,
      "size": 1,
      "price": "4683000000000000000000",
      "reserved": "",
      "salt": "0x7477c27fd518d9d00ca854d0c223645b3919f3d73733e9b898e86a6b43b9cfe8",
      "assetIds": [
        "55464657044963196816950587289035428064568320970692304673817341489687656669185",
        "55464657044963196816950587289035428064568320970692304673817341489687665059844",
        "55464657044963196816950587289035428064568320970692304673817341489687665059840"
      ]
    },
    {
      "x": 341,
      "y": 249,
      "size": 1,
      "price": "4683000000000000000000",
      "reserved": "",
      "salt": "0x7d17ae350dc18a7233e79de9c32b778322ea7a10d5ea1e68568841224536996f",
      "assetIds": [
        "55464657044963196816950587289035428064568320970692304673817341489687656669187",
        "55464657044963196816950587289035428064568320970692304673817341489687665059844",
        "55464657044963196816950587289035428064568320970692304673817341489687665059841"
      ]
    },
    {
      "x": 341,
      "y": 250,
      "size": 1,
      "price": "4683000000000000000000",
      "reserved": "",
      "salt": "0x835ccb283ed292e53da6f5a784cbf70a84a4cbea6ef59f93d56bfce18a7c5a6a",
      "assetIds": [
        "55464657044963196816950587289035428064568320970692304673817341489687656669185",
        "55464657044963196816950587289035428064568320970692304673817341489687665059842",
        "55464657044963196816950587289035428064568320970692304673817341489687665059840"
      ]
    },
    {
      "x": 341,
      "y": 251,
      "size": 1,
      "price": "4683000000000000000000",
      "reserved": "",
      "salt": "0x39970de1a850d2e8214faa575e32096fdb36123e6b80825d13fe61a9dc5c04c5",
      "assetIds": [
        "55464657044963196816950587289035428064568320970692304673817341489687656669185",
        "55464657044963196816950587289035428064568320970692304673817341489687665059843",
        "55464657044963196816950587289035428064568320970692304673817341489687665059840"
      ]
    },
    {
      "x": 341,
      "y": 255,
      "size": 1,
      "price": "4683000000000000000000",
      "reserved": "",
      "salt": "0x41887a72bdbc3c6b5b5e92351acafde6cc49531d6f3c906c8bcbb964f3f88f36",
      "assetIds": [
        "55464657044963196816950587289035428064568320970692304673817341489687656669184",
        "55464657044963196816950587289035428064568320970692304673817341489687665059844",
        "55464657044963196816950587289035428064568320970692304673817341489687665059840"
      ]
    },
    {
      "x": 341,
      "y": 256,
      "size": 1,
      "price": "4683000000000000000000",
      "reserved": "",
      "salt": "0x5ee56d3a8ee14bfccaa1d1a15dcce627aec36011c90fa618c9056726eb904c2c",
      "assetIds": [
        "55464657044963196816950587289035428064568320970692304673817341489687656669184",
        "55464657044963196816950587289035428064568320970692304673817341489687665059844",
        "55464657044963196816950587289035428064568320970692304673817341489687665059840"
      ]
    },
    {
      "x": 341,
      "y": 257,
      "size": 1,
      "price": "4683000000000000000000",
      "reserved": "",
      "salt": "0xedc05d7eb98b9b111018445c3ade4eb78e8251faf8ba090912e7a70fca52147c",
      "assetIds": [
        "55464657044963196816950587289035428064568320970692304673817341489687656669185",
        "55464657044963196816950587289035428064568320970692304673817341489687665059844",
        "55464657044963196816950587289035428064568320970692304673817341489687665059840"
      ]
    },
    {
      "x": 341,
      "y": 258,
      "size": 1,
      "price": "4683000000000000000000",
      "reserved": "",
      "salt": "0xd12eb347ffce45c301dc57feec4f05c3bc2704e0f195d192a52dbc12f98375ff",
      "assetIds": [
        "55464657044963196816950587289035428064568320970692304673817341489687656669187",
        "55464657044963196816950587289035428064568320970692304673817341489687665059842",
        "55464657044963196816950587289035428064568320970692304673817341489687665059841"
      ]
    },
    {
      "x": 341,
      "y": 259,
      "size": 1,
      "price": "4683000000000000000000",
      "reserved": "",
      "salt": "0x90b1dd6d2700933a075c8f577ecea2470e7330358fef82f427a4caa65a2e1829",
      "assetIds": [
        "55464657044963196816950587289035428064568320970692304673817341489687656669187",
        "55464657044963196816950587289035428064568320970692304673817341489687665059843",
        "55464657044963196816950587289035428064568320970692304673817341489687665059841"
      ]
    },
    {
      "x": 341,
      "y": 260,
      "size": 1,
      "price": "4683000000000000000000",
      "reserved": "",
      "salt": "0x0ebc4165c8ab1799fb17e5ce880b60ddc13ee0429bd45ce5af2512954d56b063",
      "assetIds": [
        "55464657044963196816950587289035428064568320970692304673817341489687656669185",
        "55464657044963196816950587289035428064568320970692304673817341489687665059844",
        "55464657044963196816950587289035428064568320970692304673817341489687665059840"
      ]
    },
    {
      "x": 341,
      "y": 261,
      "size": 1,
      "price": "4683000000000000000000",
      "reserved": "",
      "salt": "0xa6d66a948d3835c593345d440cc747f3d7ed33d42582f47297254a402143d805",
      "assetIds": [
        "55464657044963196816950587289035428064568320970692304673817341489687656669186",
        "55464657044963196816950587289035428064568320970692304673817341489687665059842",
        "55464657044963196816950587289035428064568320970692304673817341489687665059841"
      ]
    },
    {
      "x": 341,
      "y": 262,
      "size": 1,
      "price": "4683000000000000000000",
      "reserved": "",
      "salt": "0x57010c1e70424b2f9cc7b49a58fcce258b9e733887f0ba3cdef94f5e3dbb1d4b",
      "assetIds": [
        "55464657044963196816950587289035428064568320970692304673817341489687656669184",
        "55464657044963196816950587289035428064568320970692304673817341489687665059844",
        "55464657044963196816950587289035428064568320970692304673817341489687665059840"
      ]
    },
    {
      "x": 341,
      "y": 263,
      "size": 1,
      "price": "4683000000000000000000",
      "reserved": "",
      "salt": "0xb46134eb6813cd192bd0335fe769863649101ef06abdda2e6e5dcb8be4dd3844",
      "assetIds": [
        "55464657044963196816950587289035428064568320970692304673817341489687656669185",
        "55464657044963196816950587289035428064568320970692304673817341489687665059843",
        "55464657044963196816950587289035428064568320970692304673817341489687665059840"
      ]
    },
    {
      "x": 341,
      "y": 288,
      "size": 1,
      "price": "4683000000000000000000",
      "reserved": "",
      "salt": "0x05b00bf30b9f317982f484dd640f6b4966690c89ad66ccee4e367cb35bc3c091",
      "assetIds": [
        "55464657044963196816950587289035428064568320970692304673817341489687656669185",
        "55464657044963196816950587289035428064568320970692304673817341489687665059844",
        "55464657044963196816950587289035428064568320970692304673817341489687665059840"
      ]
    },
    {
      "x": 341,
      "y": 289,
      "size": 1,
      "price": "4683000000000000000000",
      "reserved": "",
      "salt": "0x7676040103e23c5f7489ec7abfa859b4604e073658f630b670fb6bec4737d365",
      "assetIds": [
        "55464657044963196816950587289035428064568320970692304673817341489687656669185",
        "55464657044963196816950587289035428064568320970692304673817341489687665059842",
        "55464657044963196816950587289035428064568320970692304673817341489687665059840"
      ]
    },
    {
      "x": 341,
      "y": 290,
      "size": 1,
      "price": "4683000000000000000000",
      "reserved": "",
      "salt": "0x73cb3fd3eeba9ef1fa20aaffad74184263c0335811876e5e4fadab70df729afc",
      "assetIds": [
        "55464657044963196816950587289035428064568320970692304673817341489687656669184",
        "55464657044963196816950587289035428064568320970692304673817341489687665059842",
        "55464657044963196816950587289035428064568320970692304673817341489687665059840"
      ]
    },
    {
      "x": 341,
      "y": 291,
      "size": 1,
      "price": "4683000000000000000000",
      "reserved": "",
      "salt": "0xc690f6967d5e228321a7731ba07a56ae0476bd37bfc81388fd26b8d98ee41ec0",
      "assetIds": [
        "55464657044963196816950587289035428064568320970692304673817341489687656669184",
        "55464657044963196816950587289035428064568320970692304673817341489687665059842",
        "55464657044963196816950587289035428064568320970692304673817341489687665059840"
      ]
    },
    {
      "x": 341,
      "y": 292,
      "size": 1,
      "price": "4683000000000000000000",
      "reserved": "",
      "salt": "0xd642aed7d4e1606fc2d7836f55eb5b2bc1b2859912de2415463d71a41e073a9a",
      "assetIds": [
        "55464657044963196816950587289035428064568320970692304673817341489687656669184",
        "55464657044963196816950587289035428064568320970692304673817341489687665059842",
        "55464657044963196816950587289035428064568320970692304673817341489687665059840"
      ]
    },
    {
      "x": 341,
      "y": 293,
      "size": 1,
      "price": "4683000000000000000000",
      "reserved": "",
      "salt": "0x73cfef872070e303578f1873a96b879623f79ec226d46a77c82afa60678a5a7a",
      "assetIds": [
        "55464657044963196816950587289035428064568320970692304673817341489687656669185",
        "55464657044963196816950587289035428064568320970692304673817341489687665059844",
        "55464657044963196816950587289035428064568320970692304673817341489687665059840"
      ]
    },
    {
      "x": 341,
      "y": 294,
      "size": 1,
      "price": "4683000000000000000000",
      "reserved": "",
      "salt": "0x40d5996cd3815286f2d73bd6453b96f20fdf91f65eb2b178d819c6783d768238",
      "assetIds": [
        "55464657044963196816950587289035428064568320970692304673817341489687656669186",
        "55464657044963196816950587289035428064568320970692304673817341489687665059842",
        "55464657044963196816950587289035428064568320970692304673817341489687665059841"
      ]
    },
    {
      "x": 341,
      "y": 295,
      "size": 1,
      "price": "4683000000000000000000",
      "reserved": "",
      "salt": "0x68e4c4bd71861ac41258575a9c2ac47f331e8060f1d53270545e81653a969ce8",
      "assetIds": [
        "55464657044963196816950587289035428064568320970692304673817341489687656669184",
        "55464657044963196816950587289035428064568320970692304673817341489687665059842",
        "55464657044963196816950587289035428064568320970692304673817341489687665059840"
      ]
    },
    {
      "x": 341,
      "y": 296,
      "size": 1,
      "price": "4683000000000000000000",
      "reserved": "",
      "salt": "0x0698a0627eb7f15c15040ef4729275782cce6655efb24549abc49cebf14c1955",
      "assetIds": [
        "55464657044963196816950587289035428064568320970692304673817341489687656669184",
        "55464657044963196816950587289035428064568320970692304673817341489687665059843",
        "55464657044963196816950587289035428064568320970692304673817341489687665059840"
      ]
    },
    {
      "x": 341,
      "y": 297,
      "size": 1,
      "price": "4683000000000000000000",
      "reserved": "",
      "salt": "0x173b319e5a03c335bab8bfd8c4af49f559c0fa47f75bc12a049a958ea98615ad",
      "assetIds": [
        "55464657044963196816950587289035428064568320970692304673817341489687656669187",
        "55464657044963196816950587289035428064568320970692304673817341489687665059843",
        "55464657044963196816950587289035428064568320970692304673817341489687665059841"
      ]
    },
    {
      "x": 341,
      "y": 298,
      "size": 1,
      "price": "4683000000000000000000",
      "reserved": "",
      "salt": "0x601bab9dce90e77e223da40c22d9c311ad5bfd7642f121ebc4d76797e2a15f11",
      "assetIds": [
        "55464657044963196816950587289035428064568320970692304673817341489687656669186",
        "55464657044963196816950587289035428064568320970692304673817341489687665059843",
        "55464657044963196816950587289035428064568320970692304673817341489687665059841"
      ]
    },
    {
      "x": 341,
      "y": 299,
      "size": 1,
      "price": "4683000000000000000000",
      "reserved": "",
      "salt": "0x5505732c032ad212e320cfb2ad54cc1987a1ccc724eeb52fb7136025a012f504",
      "assetIds": [
        "55464657044963196816950587289035428064568320970692304673817341489687656669186",
        "55464657044963196816950587289035428064568320970692304673817341489687665059844",
        "55464657044963196816950587289035428064568320970692304673817341489687665059841"
      ]
    },
    {
      "x": 342,
      "y": 240,
      "size": 1,
      "price": "4683000000000000000000",
      "reserved": "",
      "salt": "0xbefd81ea94721626259589ea193980f421f479bf59f790ff4a1de0e716e55377",
      "assetIds": [
        "55464657044963196816950587289035428064568320970692304673817341489687656669186",
        "55464657044963196816950587289035428064568320970692304673817341489687665059844",
        "55464657044963196816950587289035428064568320970692304673817341489687665059841"
      ]
    },
    {
      "x": 342,
      "y": 241,
      "size": 1,
      "price": "4683000000000000000000",
      "reserved": "",
      "salt": "0x2074b9732910665a0d328f144b3be40c01ccd68d862550f443f4c6f6a90b0c81",
      "assetIds": [
        "55464657044963196816950587289035428064568320970692304673817341489687656669186",
        "55464657044963196816950587289035428064568320970692304673817341489687665059844",
        "55464657044963196816950587289035428064568320970692304673817341489687665059841"
      ]
    },
    {
      "x": 342,
      "y": 242,
      "size": 1,
      "price": "4683000000000000000000",
      "reserved": "",
      "salt": "0xa2b04a155066f62a149069b620104f9b08e15fdbdbc4cc681fe86bcee2682c55",
      "assetIds": [
        "55464657044963196816950587289035428064568320970692304673817341489687656669186",
        "55464657044963196816950587289035428064568320970692304673817341489687665059844",
        "55464657044963196816950587289035428064568320970692304673817341489687665059841"
      ]
    },
    {
      "x": 342,
      "y": 243,
      "size": 1,
      "price": "4683000000000000000000",
      "reserved": "",
      "salt": "0xaa6c2b39969c669ef9cf440f767195da383b09e58f67bd10cac74533fe9bdbbd",
      "assetIds": [
        "55464657044963196816950587289035428064568320970692304673817341489687656669186",
        "55464657044963196816950587289035428064568320970692304673817341489687665059843",
        "55464657044963196816950587289035428064568320970692304673817341489687665059841"
      ]
    },
    {
      "x": 342,
      "y": 244,
      "size": 1,
      "price": "4683000000000000000000",
      "reserved": "",
      "salt": "0x0a8724bd6fe6ecd8348c2998aeeda878c740163fd3b283ed38e7b4fda5ddafcb",
      "assetIds": [
        "55464657044963196816950587289035428064568320970692304673817341489687656669187",
        "55464657044963196816950587289035428064568320970692304673817341489687665059842",
        "55464657044963196816950587289035428064568320970692304673817341489687665059841"
      ]
    },
    {
      "x": 342,
      "y": 245,
      "size": 1,
      "price": "4683000000000000000000",
      "reserved": "",
      "salt": "0x6a62e77cd056fdc326adda9fa316cc7dac9bf44d4cbb613cd58e5fa8573af551",
      "assetIds": [
        "55464657044963196816950587289035428064568320970692304673817341489687656669187",
        "55464657044963196816950587289035428064568320970692304673817341489687665059842",
        "55464657044963196816950587289035428064568320970692304673817341489687665059841"
      ]
    },
    {
      "x": 342,
      "y": 246,
      "size": 1,
      "price": "4683000000000000000000",
      "reserved": "",
      "salt": "0xb6d7db483ef8c57b254b83b14161ea3bd58a9452760f76281a97b7573bc04fca",
      "assetIds": [
        "55464657044963196816950587289035428064568320970692304673817341489687656669187",
        "55464657044963196816950587289035428064568320970692304673817341489687665059842",
        "55464657044963196816950587289035428064568320970692304673817341489687665059841"
      ]
    },
    {
      "x": 342,
      "y": 247,
      "size": 1,
      "price": "4683000000000000000000",
      "reserved": "",
      "salt": "0xe5ce1a214feb0bda07db7f364b8b7e57b5025085c647a7b5177d16016446fd8f",
      "assetIds": [
        "55464657044963196816950587289035428064568320970692304673817341489687656669187",
        "55464657044963196816950587289035428064568320970692304673817341489687665059843",
        "55464657044963196816950587289035428064568320970692304673817341489687665059841"
      ]
    },
    {
      "x": 342,
      "y": 248,
      "size": 1,
      "price": "4683000000000000000000",
      "reserved": "",
      "salt": "0x7d763526f97e0218d1b31964d5f37246288d8634665b61b6c4122b9d4552fddc",
      "assetIds": [
        "55464657044963196816950587289035428064568320970692304673817341489687656669185",
        "55464657044963196816950587289035428064568320970692304673817341489687665059844",
        "55464657044963196816950587289035428064568320970692304673817341489687665059840"
      ]
    },
    {
      "x": 342,
      "y": 249,
      "size": 1,
      "price": "4683000000000000000000",
      "reserved": "",
      "salt": "0x804b379023af2ef660073799565197498ce180cdb7892609c611cd479223e1c9",
      "assetIds": [
        "55464657044963196816950587289035428064568320970692304673817341489687656669186",
        "55464657044963196816950587289035428064568320970692304673817341489687665059844",
        "55464657044963196816950587289035428064568320970692304673817341489687665059841"
      ]
    },
    {
      "x": 342,
      "y": 250,
      "size": 1,
      "price": "4683000000000000000000",
      "reserved": "",
      "salt": "0xc81d4ebe62f8f9150615e6b05fedff026b84774bb811b1ce5118fd152cb78d47",
      "assetIds": [
        "55464657044963196816950587289035428064568320970692304673817341489687656669187",
        "55464657044963196816950587289035428064568320970692304673817341489687665059842",
        "55464657044963196816950587289035428064568320970692304673817341489687665059841"
      ]
    },
    {
      "x": 342,
      "y": 251,
      "size": 1,
      "price": "4683000000000000000000",
      "reserved": "",
      "salt": "0x2092f7ad037c3acddb80d6f272b3f2211888e5584eb4b604be305eaf253d301b",
      "assetIds": [
        "55464657044963196816950587289035428064568320970692304673817341489687656669185",
        "55464657044963196816950587289035428064568320970692304673817341489687665059844",
        "55464657044963196816950587289035428064568320970692304673817341489687665059840"
      ]
    },
    {
      "x": 342,
      "y": 252,
      "size": 1,
      "price": "4683000000000000000000",
      "reserved": "",
      "salt": "0x6398513bc12d57b0c78e965e8438909c0634965806ef70d92229820c14c75c2b",
      "assetIds": [
        "55464657044963196816950587289035428064568320970692304673817341489687656669185",
        "55464657044963196816950587289035428064568320970692304673817341489687665059843",
        "55464657044963196816950587289035428064568320970692304673817341489687665059840"
      ]
    },
    {
      "x": 342,
      "y": 253,
      "size": 1,
      "price": "4683000000000000000000",
      "reserved": "",
      "salt": "0x218d7ac458f43d8cadbc603195f2f3fb706007f02d74158220105885b9aea769",
      "assetIds": [
        "55464657044963196816950587289035428064568320970692304673817341489687656669185",
        "55464657044963196816950587289035428064568320970692304673817341489687665059842",
        "55464657044963196816950587289035428064568320970692304673817341489687665059840"
      ]
    },
    {
      "x": 342,
      "y": 254,
      "size": 1,
      "price": "4683000000000000000000",
      "reserved": "",
      "salt": "0x2f0c5f4939dad3fca3eb8d697344343b1f6c23ae8099d5deebee9bf62dc1d7e8",
      "assetIds": [
        "55464657044963196816950587289035428064568320970692304673817341489687656669186",
        "55464657044963196816950587289035428064568320970692304673817341489687665059843",
        "55464657044963196816950587289035428064568320970692304673817341489687665059841"
      ]
    },
    {
      "x": 342,
      "y": 255,
      "size": 1,
      "price": "4683000000000000000000",
      "reserved": "",
      "salt": "0x7ce4bbe589a03ab81b71ecf86c43dd67ddb5ba707001b8e62bc78689cac91e41",
      "assetIds": [
        "55464657044963196816950587289035428064568320970692304673817341489687656669187",
        "55464657044963196816950587289035428064568320970692304673817341489687665059842",
        "55464657044963196816950587289035428064568320970692304673817341489687665059841"
      ]
    },
    {
      "x": 342,
      "y": 256,
      "size": 1,
      "price": "4683000000000000000000",
      "reserved": "",
      "salt": "0xbee7ca61c99e262e2efd14d32cab1cfceccb2c910ade8e4d3e8deee1193c9007",
      "assetIds": [
        "55464657044963196816950587289035428064568320970692304673817341489687656669184",
        "55464657044963196816950587289035428064568320970692304673817341489687665059842",
        "55464657044963196816950587289035428064568320970692304673817341489687665059840"
      ]
    },
    {
      "x": 342,
      "y": 257,
      "size": 1,
      "price": "4683000000000000000000",
      "reserved": "",
      "salt": "0xf04a24de8827949634de0044301e6accb4399a25cd6015b58a28c6d32f371e70",
      "assetIds": [
        "55464657044963196816950587289035428064568320970692304673817341489687656669187",
        "55464657044963196816950587289035428064568320970692304673817341489687665059842",
        "55464657044963196816950587289035428064568320970692304673817341489687665059841"
      ]
    },
    {
      "x": 342,
      "y": 294,
      "size": 1,
      "price": "4683000000000000000000",
      "reserved": "",
      "salt": "0x4d35e9c87ebac7fb86a6f9b29963e53ff367ce169028cf24434d20e681106ef9",
      "assetIds": [
        "55464657044963196816950587289035428064568320970692304673817341489687656669187",
        "55464657044963196816950587289035428064568320970692304673817341489687665059844",
        "55464657044963196816950587289035428064568320970692304673817341489687665059841"
      ]
    },
    {
      "x": 342,
      "y": 295,
      "size": 1,
      "price": "4683000000000000000000",
      "reserved": "",
      "salt": "0xc99888fdf2e2ba278bfb24ceee71b81b0b8afc00b13caef307badfaa828b1f2c",
      "assetIds": [
        "55464657044963196816950587289035428064568320970692304673817341489687656669185",
        "55464657044963196816950587289035428064568320970692304673817341489687665059842",
        "55464657044963196816950587289035428064568320970692304673817341489687665059840"
      ]
    },
    {
      "x": 342,
      "y": 296,
      "size": 1,
      "price": "4683000000000000000000",
      "reserved": "",
      "salt": "0xf1a6d7dc549a043ee8b1d357037bd330fe687524505a11669a66e04f5f086d87",
      "assetIds": [
        "55464657044963196816950587289035428064568320970692304673817341489687656669184",
        "55464657044963196816950587289035428064568320970692304673817341489687665059842",
        "55464657044963196816950587289035428064568320970692304673817341489687665059840"
      ]
    },
    {
      "x": 342,
      "y": 297,
      "size": 1,
      "price": "4683000000000000000000",
      "reserved": "",
      "salt": "0x3747668a922e47c8ec4027e202c9b863772f7c8317f2394cb3f9373fa9eb53f4",
      "assetIds": [
        "55464657044963196816950587289035428064568320970692304673817341489687656669185",
        "55464657044963196816950587289035428064568320970692304673817341489687665059844",
        "55464657044963196816950587289035428064568320970692304673817341489687665059840"
      ]
    },
    {
      "x": 342,
      "y": 298,
      "size": 1,
      "price": "4683000000000000000000",
      "reserved": "",
      "salt": "0xaac3f9147ca49135cbcc02ddbf2ba4615837c9f950426e9933851983fed37077",
      "assetIds": [
        "55464657044963196816950587289035428064568320970692304673817341489687656669187",
        "55464657044963196816950587289035428064568320970692304673817341489687665059844",
        "55464657044963196816950587289035428064568320970692304673817341489687665059841"
      ]
    },
    {
      "x": 342,
      "y": 299,
      "size": 1,
      "price": "4683000000000000000000",
      "reserved": "",
      "salt": "0xe1fd3a3661c3fd90fae4bcdd9c291c7b0463304665a431417017725ecd75b887",
      "assetIds": [
        "55464657044963196816950587289035428064568320970692304673817341489687656669184",
        "55464657044963196816950587289035428064568320970692304673817341489687665059844",
        "55464657044963196816950587289035428064568320970692304673817341489687665059840"
      ]
    },
    {
      "x": 343,
      "y": 240,
      "size": 1,
      "price": "4683000000000000000000",
      "reserved": "",
      "salt": "0x153829df0967071755afe21965bc88ec25e8957161de3f1625fa6af69c78c2e2",
      "assetIds": [
        "55464657044963196816950587289035428064568320970692304673817341489687656669187",
        "55464657044963196816950587289035428064568320970692304673817341489687665059842",
        "55464657044963196816950587289035428064568320970692304673817341489687665059841"
      ]
    },
    {
      "x": 343,
      "y": 241,
      "size": 1,
      "price": "4683000000000000000000",
      "reserved": "",
      "salt": "0x98cc2e1479172b6c06cb85111c3bd3c15a52dc427247cc085f99a380ef409876",
      "assetIds": [
        "55464657044963196816950587289035428064568320970692304673817341489687656669186",
        "55464657044963196816950587289035428064568320970692304673817341489687665059844",
        "55464657044963196816950587289035428064568320970692304673817341489687665059841"
      ]
    },
    {
      "x": 343,
      "y": 242,
      "size": 1,
      "price": "4683000000000000000000",
      "reserved": "",
      "salt": "0x80274fe0ceb29f3177340682718c0b2b2eeefdeeda08714314c44efa01d029b1",
      "assetIds": [
        "55464657044963196816950587289035428064568320970692304673817341489687656669187",
        "55464657044963196816950587289035428064568320970692304673817341489687665059844",
        "55464657044963196816950587289035428064568320970692304673817341489687665059841"
      ]
    },
    {
      "x": 343,
      "y": 243,
      "size": 1,
      "price": "4683000000000000000000",
      "reserved": "",
      "salt": "0xea1fafddc08c34c1b85ae9558df6810c76370f37a385f5039f3de961d67929dd",
      "assetIds": [
        "55464657044963196816950587289035428064568320970692304673817341489687656669186",
        "55464657044963196816950587289035428064568320970692304673817341489687665059842",
        "55464657044963196816950587289035428064568320970692304673817341489687665059841"
      ]
    },
    {
      "x": 343,
      "y": 244,
      "size": 1,
      "price": "4683000000000000000000",
      "reserved": "",
      "salt": "0xb6012560709a48e1a1c23a4c80b2518bd4ae0f92dafcadad74fc8a0beee5e1a3",
      "assetIds": [
        "55464657044963196816950587289035428064568320970692304673817341489687656669187",
        "55464657044963196816950587289035428064568320970692304673817341489687665059842",
        "55464657044963196816950587289035428064568320970692304673817341489687665059841"
      ]
    },
    {
      "x": 343,
      "y": 245,
      "size": 1,
      "price": "4683000000000000000000",
      "reserved": "",
      "salt": "0x9afea86fd03f52431d13ea132a989efa4d5383ccbb3d6df03f9303f4d7570af9",
      "assetIds": [
        "55464657044963196816950587289035428064568320970692304673817341489687656669187",
        "55464657044963196816950587289035428064568320970692304673817341489687665059844",
        "55464657044963196816950587289035428064568320970692304673817341489687665059841"
      ]
    },
    {
      "x": 343,
      "y": 246,
      "size": 1,
      "price": "4683000000000000000000",
      "reserved": "",
      "salt": "0x80a24df3d07dcdfa2f6961a3b8efe9ef538f17f9bd019a547d061db66bb44af9",
      "assetIds": [
        "55464657044963196816950587289035428064568320970692304673817341489687656669186",
        "55464657044963196816950587289035428064568320970692304673817341489687665059844",
        "55464657044963196816950587289035428064568320970692304673817341489687665059841"
      ]
    },
    {
      "x": 343,
      "y": 247,
      "size": 1,
      "price": "4683000000000000000000",
      "reserved": "",
      "salt": "0x3d50b4b0e11049c28d48336029510e1971c0d8e3cc0c74a0402a637e6451bae0",
      "assetIds": [
        "55464657044963196816950587289035428064568320970692304673817341489687656669184",
        "55464657044963196816950587289035428064568320970692304673817341489687665059844",
        "55464657044963196816950587289035428064568320970692304673817341489687665059840"
      ]
    },
    {
      "x": 343,
      "y": 248,
      "size": 1,
      "price": "4683000000000000000000",
      "reserved": "",
      "salt": "0xfa1bf32ffa32cdd00ed066a01eaac50e41a91d3d0bf13553d3eddf931231e1ea",
      "assetIds": [
        "55464657044963196816950587289035428064568320970692304673817341489687656669184",
        "55464657044963196816950587289035428064568320970692304673817341489687665059843",
        "55464657044963196816950587289035428064568320970692304673817341489687665059840"
      ]
    },
    {
      "x": 343,
      "y": 249,
      "size": 1,
      "price": "4683000000000000000000",
      "reserved": "",
      "salt": "0x572f1c71516f6a08b4bdc027bdbf40b67d745787cf84262f205f8427d7670dd9",
      "assetIds": [
        "55464657044963196816950587289035428064568320970692304673817341489687656669184",
        "55464657044963196816950587289035428064568320970692304673817341489687665059844",
        "55464657044963196816950587289035428064568320970692304673817341489687665059840"
      ]
    },
    {
      "x": 343,
      "y": 250,
      "size": 1,
      "price": "4683000000000000000000",
      "reserved": "",
      "salt": "0x3f8c835757ccc103467f7b2dd626afd7bdce1d205a15241fc081b265251ce243",
      "assetIds": [
        "55464657044963196816950587289035428064568320970692304673817341489687656669186",
        "55464657044963196816950587289035428064568320970692304673817341489687665059842",
        "55464657044963196816950587289035428064568320970692304673817341489687665059841"
      ]
    },
    {
      "x": 343,
      "y": 251,
      "size": 1,
      "price": "4683000000000000000000",
      "reserved": "",
      "salt": "0x4c30ac1e00341cecffc7ba5c44c0af598fa8ff0bfd91865cbe6d11480a448d48",
      "assetIds": [
        "55464657044963196816950587289035428064568320970692304673817341489687656669185",
        "55464657044963196816950587289035428064568320970692304673817341489687665059842",
        "55464657044963196816950587289035428064568320970692304673817341489687665059840"
      ]
    },
    {
      "x": 343,
      "y": 252,
      "size": 1,
      "price": "4683000000000000000000",
      "reserved": "",
      "salt": "0x85dc28cd2465500fc1ae840ac876a7f8ac5fe50ab5d0caf9bc3cae4a1ff54991",
      "assetIds": [
        "55464657044963196816950587289035428064568320970692304673817341489687656669187",
        "55464657044963196816950587289035428064568320970692304673817341489687665059843",
        "55464657044963196816950587289035428064568320970692304673817341489687665059841"
      ]
    },
    {
      "x": 343,
      "y": 253,
      "size": 1,
      "price": "4683000000000000000000",
      "reserved": "",
      "salt": "0x692446e46bd34626350e7c49f02a70a9dce1f91faab9660f005f8c06deafbaa5",
      "assetIds": [
        "55464657044963196816950587289035428064568320970692304673817341489687656669186",
        "55464657044963196816950587289035428064568320970692304673817341489687665059844",
        "55464657044963196816950587289035428064568320970692304673817341489687665059841"
      ]
    },
    {
      "x": 343,
      "y": 254,
      "size": 1,
      "price": "4683000000000000000000",
      "reserved": "",
      "salt": "0xaf2f4cb7cd2a819dacdb29cfc089736851d853efe739050de7085a52bda1933e",
      "assetIds": [
        "55464657044963196816950587289035428064568320970692304673817341489687656669186",
        "55464657044963196816950587289035428064568320970692304673817341489687665059843",
        "55464657044963196816950587289035428064568320970692304673817341489687665059841"
      ]
    },
    {
      "x": 343,
      "y": 255,
      "size": 1,
      "price": "4683000000000000000000",
      "reserved": "",
      "salt": "0x3e4b43236823f085223347e0309e2b1726236192b2bf98fabd894f55edf7a8e8",
      "assetIds": [
        "55464657044963196816950587289035428064568320970692304673817341489687656669184",
        "55464657044963196816950587289035428064568320970692304673817341489687665059843",
        "55464657044963196816950587289035428064568320970692304673817341489687665059840"
      ]
    },
    {
      "x": 343,
      "y": 256,
      "size": 1,
      "price": "1011000000000000000000",
      "reserved": "0x7a9fe22691c811ea339d9b73150e6911a5343dca",
      "salt": "0x9b9f2c0d0f970d92020ee2cd10d30e61257a21d3325e4b91d7cfba9bbc340028",
      "assetIds": []
    },
    {
      "x": 343,
      "y": 257,
      "size": 1,
      "price": "4683000000000000000000",
      "reserved": "",
      "salt": "0x34aa0793684858ac262a12e66a0d69b6a4b27607e1ce8a06029a75640e59f9dd",
      "assetIds": [
        "55464657044963196816950587289035428064568320970692304673817341489687656669185",
        "55464657044963196816950587289035428064568320970692304673817341489687665059842",
        "55464657044963196816950587289035428064568320970692304673817341489687665059840"
      ]
    },
    {
      "x": 343,
      "y": 294,
      "size": 1,
      "price": "4683000000000000000000",
      "reserved": "",
      "salt": "0xd77d7bca466cfe5bc7a6ea64164808f4cfc6d5867a87f2994f4d89d270d04616",
      "assetIds": [
        "55464657044963196816950587289035428064568320970692304673817341489687656669184",
        "55464657044963196816950587289035428064568320970692304673817341489687665059844",
        "55464657044963196816950587289035428064568320970692304673817341489687665059840"
      ]
    },
    {
      "x": 343,
      "y": 295,
      "size": 1,
      "price": "1011000000000000000000",
      "reserved": "0x7a9fe22691c811ea339d9b73150e6911a5343dca",
      "salt": "0x706040039909b400df8d25196440c5d713ce02a4cc06f0aa8511ff21d8880fd7",
      "assetIds": []
    },
    {
      "x": 343,
      "y": 296,
      "size": 1,
      "price": "4683000000000000000000",
      "reserved": "",
      "salt": "0x8f18dd4d0890e88d1fc48d42a33c295b2557dcd364d802519ce9c034bf5920e9",
      "assetIds": [
        "55464657044963196816950587289035428064568320970692304673817341489687656669186",
        "55464657044963196816950587289035428064568320970692304673817341489687665059844",
        "55464657044963196816950587289035428064568320970692304673817341489687665059841"
      ]
    },
    {
      "x": 343,
      "y": 297,
      "size": 1,
      "price": "4683000000000000000000",
      "reserved": "",
      "salt": "0x212af744c0eef98657d85d826e0530a5627602ef909372d626039803063a0eb7",
      "assetIds": [
        "55464657044963196816950587289035428064568320970692304673817341489687656669184",
        "55464657044963196816950587289035428064568320970692304673817341489687665059842",
        "55464657044963196816950587289035428064568320970692304673817341489687665059840"
      ]
    },
    {
      "x": 343,
      "y": 298,
      "size": 1,
      "price": "4683000000000000000000",
      "reserved": "",
      "salt": "0x776d12de0209dfd8f3b2fddaeeecbb4d082a8048635892aff40e50c4496a9710",
      "assetIds": [
        "55464657044963196816950587289035428064568320970692304673817341489687656669186",
        "55464657044963196816950587289035428064568320970692304673817341489687665059843",
        "55464657044963196816950587289035428064568320970692304673817341489687665059841"
      ]
    },
    {
      "x": 343,
      "y": 299,
      "size": 1,
      "price": "4683000000000000000000",
      "reserved": "",
      "salt": "0x85805f54680f8a301e0be2c29d38fcef3bbf5e40d4ca153a79c66bbf4a99400b",
      "assetIds": [
        "55464657044963196816950587289035428064568320970692304673817341489687656669184",
        "55464657044963196816950587289035428064568320970692304673817341489687665059844",
        "55464657044963196816950587289035428064568320970692304673817341489687665059840"
      ]
    },
    {
      "x": 344,
      "y": 240,
      "size": 1,
      "price": "4683000000000000000000",
      "reserved": "",
      "salt": "0xabab77e73d8c4d22dd38389015566f26b8ae2394c89e68ffb518a2d2a1321d26",
      "assetIds": [
        "55464657044963196816950587289035428064568320970692304673817341489687656669187",
        "55464657044963196816950587289035428064568320970692304673817341489687665059842",
        "55464657044963196816950587289035428064568320970692304673817341489687665059841"
      ]
    },
    {
      "x": 344,
      "y": 241,
      "size": 1,
      "price": "4683000000000000000000",
      "reserved": "",
      "salt": "0x4acbd3e75d4a44eabbe6525b2ffcc1b39cb0cc4993c89904c44796f280a5e71a",
      "assetIds": [
        "55464657044963196816950587289035428064568320970692304673817341489687656669186",
        "55464657044963196816950587289035428064568320970692304673817341489687665059843",
        "55464657044963196816950587289035428064568320970692304673817341489687665059841"
      ]
    },
    {
      "x": 344,
      "y": 242,
      "size": 1,
      "price": "4683000000000000000000",
      "reserved": "",
      "salt": "0xede7703f59432944f3149919d20e8359a4c0cbc82e7331792cc4d9e4c0e02ca0",
      "assetIds": [
        "55464657044963196816950587289035428064568320970692304673817341489687656669185",
        "55464657044963196816950587289035428064568320970692304673817341489687665059842",
        "55464657044963196816950587289035428064568320970692304673817341489687665059840"
      ]
    },
    {
      "x": 344,
      "y": 243,
      "size": 1,
      "price": "4683000000000000000000",
      "reserved": "",
      "salt": "0x61311b42fa805916d426cb44f0a5757f32be08e0d277b7982ca46e4730fe24b6",
      "assetIds": [
        "55464657044963196816950587289035428064568320970692304673817341489687656669185",
        "55464657044963196816950587289035428064568320970692304673817341489687665059842",
        "55464657044963196816950587289035428064568320970692304673817341489687665059840"
      ]
    },
    {
      "x": 344,
      "y": 244,
      "size": 1,
      "price": "4683000000000000000000",
      "reserved": "",
      "salt": "0x2bde730733c01498907f745da25230f46cc72847b93bf821bdb96675f7c2d035",
      "assetIds": [
        "55464657044963196816950587289035428064568320970692304673817341489687656669184",
        "55464657044963196816950587289035428064568320970692304673817341489687665059843",
        "55464657044963196816950587289035428064568320970692304673817341489687665059840"
      ]
    },
    {
      "x": 344,
      "y": 245,
      "size": 1,
      "price": "4683000000000000000000",
      "reserved": "",
      "salt": "0xa10ccb97b1aa6fe672d535846da3549a4a157d8a6e7975d2769d86b1b3a89d96",
      "assetIds": [
        "55464657044963196816950587289035428064568320970692304673817341489687656669184",
        "55464657044963196816950587289035428064568320970692304673817341489687665059844",
        "55464657044963196816950587289035428064568320970692304673817341489687665059840"
      ]
    },
    {
      "x": 344,
      "y": 246,
      "size": 1,
      "price": "4683000000000000000000",
      "reserved": "",
      "salt": "0x982236970c4a71330525f977fd46371d09e01fea94f5a14f105e9491d916295d",
      "assetIds": [
        "55464657044963196816950587289035428064568320970692304673817341489687656669187",
        "55464657044963196816950587289035428064568320970692304673817341489687665059843",
        "55464657044963196816950587289035428064568320970692304673817341489687665059841"
      ]
    },
    {
      "x": 344,
      "y": 247,
      "size": 1,
      "price": "4683000000000000000000",
      "reserved": "",
      "salt": "0x457b32318d7155772014d2f45fea6c3995c6279114bd2aeef301e8eedd821c00",
      "assetIds": [
        "55464657044963196816950587289035428064568320970692304673817341489687656669185",
        "55464657044963196816950587289035428064568320970692304673817341489687665059843",
        "55464657044963196816950587289035428064568320970692304673817341489687665059840"
      ]
    },
    {
      "x": 344,
      "y": 248,
      "size": 1,
      "price": "4683000000000000000000",
      "reserved": "",
      "salt": "0x33d6c609cfbe880f68d3ab94f6e99560a1121485f252d3d131d3d59a733339d8",
      "assetIds": [
        "55464657044963196816950587289035428064568320970692304673817341489687656669186",
        "55464657044963196816950587289035428064568320970692304673817341489687665059843",
        "55464657044963196816950587289035428064568320970692304673817341489687665059841"
      ]
    },
    {
      "x": 344,
      "y": 249,
      "size": 1,
      "price": "4683000000000000000000",
      "reserved": "",
      "salt": "0x3a02a18c344879027881204afaa6e22fe928f013175960dd8ea156e211702541",
      "assetIds": [
        "55464657044963196816950587289035428064568320970692304673817341489687656669184",
        "55464657044963196816950587289035428064568320970692304673817341489687665059843",
        "55464657044963196816950587289035428064568320970692304673817341489687665059840"
      ]
    },
    {
      "x": 344,
      "y": 250,
      "size": 1,
      "price": "4683000000000000000000",
      "reserved": "",
      "salt": "0x8ab000d9f045ffd0d77baa8536e4796d1a6932ad4b59e8c270dd41462f7b9e3d",
      "assetIds": [
        "55464657044963196816950587289035428064568320970692304673817341489687656669187",
        "55464657044963196816950587289035428064568320970692304673817341489687665059842",
        "55464657044963196816950587289035428064568320970692304673817341489687665059841"
      ]
    },
    {
      "x": 344,
      "y": 251,
      "size": 1,
      "price": "4683000000000000000000",
      "reserved": "",
      "salt": "0xd84438a2b43121c733ecbb5dfb7ff39427e2b12f1521f76509676160991dec89",
      "assetIds": [
        "55464657044963196816950587289035428064568320970692304673817341489687656669185",
        "55464657044963196816950587289035428064568320970692304673817341489687665059844",
        "55464657044963196816950587289035428064568320970692304673817341489687665059840"
      ]
    },
    {
      "x": 344,
      "y": 252,
      "size": 1,
      "price": "4683000000000000000000",
      "reserved": "",
      "salt": "0x3f4af3b680c146b632bb182fa4654fb894b0ebe986f827226f1e975801c18288",
      "assetIds": [
        "55464657044963196816950587289035428064568320970692304673817341489687656669185",
        "55464657044963196816950587289035428064568320970692304673817341489687665059844",
        "55464657044963196816950587289035428064568320970692304673817341489687665059840"
      ]
    },
    {
      "x": 344,
      "y": 253,
      "size": 1,
      "price": "4683000000000000000000",
      "reserved": "",
      "salt": "0xc7a99e01864d1397475c8566c6610be33650518ec486c9076f5c93fa97cc31f0",
      "assetIds": [
        "55464657044963196816950587289035428064568320970692304673817341489687656669187",
        "55464657044963196816950587289035428064568320970692304673817341489687665059843",
        "55464657044963196816950587289035428064568320970692304673817341489687665059841"
      ]
    },
    {
      "x": 344,
      "y": 254,
      "size": 1,
      "price": "4683000000000000000000",
      "reserved": "",
      "salt": "0xaa0c8e81a640340d522a0c46d9a4e6e8a047731190880aefc849365210beb06b",
      "assetIds": [
        "55464657044963196816950587289035428064568320970692304673817341489687656669185",
        "55464657044963196816950587289035428064568320970692304673817341489687665059843",
        "55464657044963196816950587289035428064568320970692304673817341489687665059840"
      ]
    },
    {
      "x": 344,
      "y": 255,
      "size": 1,
      "price": "4683000000000000000000",
      "reserved": "",
      "salt": "0x97e73b04329096383e837f0a0b5a956d13a8d650957ded33f2602b70d4a63595",
      "assetIds": [
        "55464657044963196816950587289035428064568320970692304673817341489687656669184",
        "55464657044963196816950587289035428064568320970692304673817341489687665059844",
        "55464657044963196816950587289035428064568320970692304673817341489687665059840"
      ]
    },
    {
      "x": 344,
      "y": 256,
      "size": 1,
      "price": "4683000000000000000000",
      "reserved": "",
      "salt": "0x584deeb8d8c0afe4627235a36fa609b1aa4e449a84d96e9391bb89785ea15272",
      "assetIds": [
        "55464657044963196816950587289035428064568320970692304673817341489687656669187",
        "55464657044963196816950587289035428064568320970692304673817341489687665059842",
        "55464657044963196816950587289035428064568320970692304673817341489687665059841"
      ]
    },
    {
      "x": 344,
      "y": 257,
      "size": 1,
      "price": "4683000000000000000000",
      "reserved": "",
      "salt": "0x5620710ec4b7eef57707ef5bd12241ca9e08a0576a55108d858d72fdc5e1458e",
      "assetIds": [
        "55464657044963196816950587289035428064568320970692304673817341489687656669184",
        "55464657044963196816950587289035428064568320970692304673817341489687665059843",
        "55464657044963196816950587289035428064568320970692304673817341489687665059840"
      ]
    },
    {
      "x": 344,
      "y": 294,
      "size": 1,
      "price": "4683000000000000000000",
      "reserved": "",
      "salt": "0x06122429066a40ab22e87952fcc8d8ee9c376270b0886876f209efa2edbdc13a",
      "assetIds": [
        "55464657044963196816950587289035428064568320970692304673817341489687656669184",
        "55464657044963196816950587289035428064568320970692304673817341489687665059842",
        "55464657044963196816950587289035428064568320970692304673817341489687665059840"
      ]
    },
    {
      "x": 344,
      "y": 295,
      "size": 1,
      "price": "4683000000000000000000",
      "reserved": "",
      "salt": "0xab868249cef5a94429cb175c07ab19f5aabf582f31b4dee4262d69f173ef7cad",
      "assetIds": [
        "55464657044963196816950587289035428064568320970692304673817341489687656669185",
        "55464657044963196816950587289035428064568320970692304673817341489687665059842",
        "55464657044963196816950587289035428064568320970692304673817341489687665059840"
      ]
    },
    {
      "x": 344,
      "y": 296,
      "size": 1,
      "price": "4683000000000000000000",
      "reserved": "",
      "salt": "0xfc5d526bada6f195e2a6f756f1d9de653642c4403f0d110e4280f33a1dc29bdf",
      "assetIds": [
        "55464657044963196816950587289035428064568320970692304673817341489687656669187",
        "55464657044963196816950587289035428064568320970692304673817341489687665059843",
        "55464657044963196816950587289035428064568320970692304673817341489687665059841"
      ]
    },
    {
      "x": 344,
      "y": 297,
      "size": 1,
      "price": "4683000000000000000000",
      "reserved": "",
      "salt": "0x74193db572c23f532e42ea1ed437c1fca772e8c7df44f8d964f9ab12c4ea962e",
      "assetIds": [
        "55464657044963196816950587289035428064568320970692304673817341489687656669185",
        "55464657044963196816950587289035428064568320970692304673817341489687665059843",
        "55464657044963196816950587289035428064568320970692304673817341489687665059840"
      ]
    },
    {
      "x": 344,
      "y": 298,
      "size": 1,
      "price": "4683000000000000000000",
      "reserved": "",
      "salt": "0x079e71fdce7e9dcf0f23a66a447d24fd3af5fc739d07ce10cf1d4e692a69d26a",
      "assetIds": [
        "55464657044963196816950587289035428064568320970692304673817341489687656669187",
        "55464657044963196816950587289035428064568320970692304673817341489687665059842",
        "55464657044963196816950587289035428064568320970692304673817341489687665059841"
      ]
    },
    {
      "x": 344,
      "y": 299,
      "size": 1,
      "price": "4683000000000000000000",
      "reserved": "",
      "salt": "0x14169c0e0263958f365f3f8dd8b8c9483ae716a07ddf6da2378be45448da16f0",
      "assetIds": [
        "55464657044963196816950587289035428064568320970692304673817341489687656669184",
        "55464657044963196816950587289035428064568320970692304673817341489687665059844",
        "55464657044963196816950587289035428064568320970692304673817341489687665059840"
      ]
    },
    {
      "x": 345,
      "y": 240,
      "size": 1,
      "price": "4683000000000000000000",
      "reserved": "",
      "salt": "0x58df56807a71e5789c1f2ff55804d634fba0861a9eaa5e56ef12e3ee3f3598dc",
      "assetIds": [
        "55464657044963196816950587289035428064568320970692304673817341489687656669184",
        "55464657044963196816950587289035428064568320970692304673817341489687665059843",
        "55464657044963196816950587289035428064568320970692304673817341489687665059840"
      ]
    },
    {
      "x": 345,
      "y": 241,
      "size": 1,
      "price": "4683000000000000000000",
      "reserved": "",
      "salt": "0x26a7ec8632a8d02e4d66a8d827bffe8b485acf3bd74b2fd9559bab152b995572",
      "assetIds": [
        "55464657044963196816950587289035428064568320970692304673817341489687656669186",
        "55464657044963196816950587289035428064568320970692304673817341489687665059843",
        "55464657044963196816950587289035428064568320970692304673817341489687665059841"
      ]
    },
    {
      "x": 345,
      "y": 242,
      "size": 1,
      "price": "4683000000000000000000",
      "reserved": "",
      "salt": "0xe9c6fbb2fa1338e083b1ffc6a2cd43f46bc3d1d958704bbccd6d7208814a993e",
      "assetIds": [
        "55464657044963196816950587289035428064568320970692304673817341489687656669187",
        "55464657044963196816950587289035428064568320970692304673817341489687665059842",
        "55464657044963196816950587289035428064568320970692304673817341489687665059841"
      ]
    },
    {
      "x": 345,
      "y": 243,
      "size": 1,
      "price": "4683000000000000000000",
      "reserved": "",
      "salt": "0x54b10cba68d7a4eda54ef63392403c835f016e82d74b99ac3474ef353d885503",
      "assetIds": [
        "55464657044963196816950587289035428064568320970692304673817341489687656669184",
        "55464657044963196816950587289035428064568320970692304673817341489687665059844",
        "55464657044963196816950587289035428064568320970692304673817341489687665059840"
      ]
    },
    {
      "x": 345,
      "y": 244,
      "size": 1,
      "price": "1011000000000000000000",
      "reserved": "0x7a9fe22691c811ea339d9b73150e6911a5343dca",
      "salt": "0x8741056b3fefb83fcc1479a27f1b0470314c48de0addcace7558283c4ad48fb8",
      "assetIds": []
    },
    {
      "x": 345,
      "y": 245,
      "size": 1,
      "price": "4683000000000000000000",
      "reserved": "",
      "salt": "0x5b19867a0efcc70b68c1c65fdadfe5c8a084466daee955107819a3d2979cc9fa",
      "assetIds": [
        "55464657044963196816950587289035428064568320970692304673817341489687656669184",
        "55464657044963196816950587289035428064568320970692304673817341489687665059843",
        "55464657044963196816950587289035428064568320970692304673817341489687665059840"
      ]
    },
    {
      "x": 345,
      "y": 246,
      "size": 1,
      "price": "4683000000000000000000",
      "reserved": "",
      "salt": "0x8ff541f0a263ca3eb12bcf9e6b1be2114015dbf0493fa9fb0a56cafd44807590",
      "assetIds": [
        "55464657044963196816950587289035428064568320970692304673817341489687656669186",
        "55464657044963196816950587289035428064568320970692304673817341489687665059844",
        "55464657044963196816950587289035428064568320970692304673817341489687665059841"
      ]
    },
    {
      "x": 345,
      "y": 247,
      "size": 1,
      "price": "4683000000000000000000",
      "reserved": "",
      "salt": "0xd6e1474aaf428e9da516d7b05e90c9db944716a02c343f7c8ba86793d94588fe",
      "assetIds": [
        "55464657044963196816950587289035428064568320970692304673817341489687656669184",
        "55464657044963196816950587289035428064568320970692304673817341489687665059843",
        "55464657044963196816950587289035428064568320970692304673817341489687665059840"
      ]
    },
    {
      "x": 345,
      "y": 248,
      "size": 1,
      "price": "4683000000000000000000",
      "reserved": "",
      "salt": "0x7ea6b5bc5248adc87e4c3840cce16dc27ce9bbd268db930514d8a9c649a0f2ee",
      "assetIds": [
        "55464657044963196816950587289035428064568320970692304673817341489687656669185",
        "55464657044963196816950587289035428064568320970692304673817341489687665059843",
        "55464657044963196816950587289035428064568320970692304673817341489687665059840"
      ]
    },
    {
      "x": 345,
      "y": 249,
      "size": 1,
      "price": "4683000000000000000000",
      "reserved": "",
      "salt": "0x9fe272aff77e7d19c3383f4a4cc9cf6abba0b74727d4ed9b948f8eb148e5257b",
      "assetIds": [
        "55464657044963196816950587289035428064568320970692304673817341489687656669185",
        "55464657044963196816950587289035428064568320970692304673817341489687665059843",
        "55464657044963196816950587289035428064568320970692304673817341489687665059840"
      ]
    },
    {
      "x": 345,
      "y": 250,
      "size": 1,
      "price": "4683000000000000000000",
      "reserved": "",
      "salt": "0x9f12b578356a74109f04f40b6904c7cfe8b12ed7fc2df7628ba3ed9cf62d7472",
      "assetIds": [
        "55464657044963196816950587289035428064568320970692304673817341489687656669187",
        "55464657044963196816950587289035428064568320970692304673817341489687665059842",
        "55464657044963196816950587289035428064568320970692304673817341489687665059841"
      ]
    },
    {
      "x": 345,
      "y": 251,
      "size": 1,
      "price": "1011000000000000000000",
      "reserved": "0x7a9fe22691c811ea339d9b73150e6911a5343dca",
      "salt": "0x2fa6a07f6ff8d37768108a44f459c448fe9a492218986d2c3e12996c70981291",
      "assetIds": []
    },
    {
      "x": 345,
      "y": 252,
      "size": 1,
      "price": "4683000000000000000000",
      "reserved": "",
      "salt": "0x87ee1981f3ef392350bf6688f3b37b8f014e2b38b0dae29f779fbe46ee37feb5",
      "assetIds": [
        "55464657044963196816950587289035428064568320970692304673817341489687656669186",
        "55464657044963196816950587289035428064568320970692304673817341489687665059843",
        "55464657044963196816950587289035428064568320970692304673817341489687665059841"
      ]
    },
    {
      "x": 345,
      "y": 253,
      "size": 1,
      "price": "4683000000000000000000",
      "reserved": "",
      "salt": "0x9db33ecb2885c5e5090925c4baaaf9f66c752b320117665060a777a14a809418",
      "assetIds": [
        "55464657044963196816950587289035428064568320970692304673817341489687656669187",
        "55464657044963196816950587289035428064568320970692304673817341489687665059844",
        "55464657044963196816950587289035428064568320970692304673817341489687665059841"
      ]
    },
    {
      "x": 345,
      "y": 254,
      "size": 1,
      "price": "4683000000000000000000",
      "reserved": "",
      "salt": "0x1f0825a63ff802ea9724c187e925099f53c6af216e415e4c041da41f68d32a6a",
      "assetIds": [
        "55464657044963196816950587289035428064568320970692304673817341489687656669187",
        "55464657044963196816950587289035428064568320970692304673817341489687665059843",
        "55464657044963196816950587289035428064568320970692304673817341489687665059841"
      ]
    },
    {
      "x": 345,
      "y": 255,
      "size": 1,
      "price": "4683000000000000000000",
      "reserved": "",
      "salt": "0x6587e751df57a727a767b5040d8832476f0f7c365d434eff3ea52c9a007c3942",
      "assetIds": [
        "55464657044963196816950587289035428064568320970692304673817341489687656669184",
        "55464657044963196816950587289035428064568320970692304673817341489687665059844",
        "55464657044963196816950587289035428064568320970692304673817341489687665059840"
      ]
    },
    {
      "x": 345,
      "y": 256,
      "size": 1,
      "price": "4683000000000000000000",
      "reserved": "",
      "salt": "0x7cb38c9a8847f153b4c5e60d2a7a8b3e3e4124bd2927110d7fe6715552b7d878",
      "assetIds": [
        "55464657044963196816950587289035428064568320970692304673817341489687656669186",
        "55464657044963196816950587289035428064568320970692304673817341489687665059844",
        "55464657044963196816950587289035428064568320970692304673817341489687665059841"
      ]
    },
    {
      "x": 345,
      "y": 257,
      "size": 1,
      "price": "4683000000000000000000",
      "reserved": "",
      "salt": "0x7f05afbdf09f97c758f124f26946e8e41dadb80912bd05f5d19e3909219dbe4b",
      "assetIds": [
        "55464657044963196816950587289035428064568320970692304673817341489687656669186",
        "55464657044963196816950587289035428064568320970692304673817341489687665059842",
        "55464657044963196816950587289035428064568320970692304673817341489687665059841"
      ]
    },
    {
      "x": 345,
      "y": 297,
      "size": 1,
      "price": "4683000000000000000000",
      "reserved": "",
      "salt": "0x2ade2bdc4c1e9e408a11fa26897e086bd7101e2e1616ccdfbcf957a7cc779e0b",
      "assetIds": [
        "55464657044963196816950587289035428064568320970692304673817341489687656669184",
        "55464657044963196816950587289035428064568320970692304673817341489687665059842",
        "55464657044963196816950587289035428064568320970692304673817341489687665059840"
      ]
    },
    {
      "x": 345,
      "y": 298,
      "size": 1,
      "price": "4683000000000000000000",
      "reserved": "",
      "salt": "0x2dd59e42befd8e48f67d8705a57cbb82d16aeb809affd358b6417e1e52d8def6",
      "assetIds": [
        "55464657044963196816950587289035428064568320970692304673817341489687656669184",
        "55464657044963196816950587289035428064568320970692304673817341489687665059842",
        "55464657044963196816950587289035428064568320970692304673817341489687665059840"
      ]
    },
    {
      "x": 345,
      "y": 299,
      "size": 1,
      "price": "4683000000000000000000",
      "reserved": "",
      "salt": "0x8b60913525a7b4fcb580de956ac86db275dc0dd1719490760ccf2962cc041758",
      "assetIds": [
        "55464657044963196816950587289035428064568320970692304673817341489687656669184",
        "55464657044963196816950587289035428064568320970692304673817341489687665059843",
        "55464657044963196816950587289035428064568320970692304673817341489687665059840"
      ]
    },
    {
      "x": 345,
      "y": 303,
      "size": 1,
      "price": "4683000000000000000000",
      "reserved": "",
      "salt": "0x91ac9772ca7c6be8651396ce31382b99ac7589f9f1ecfea4febb08cda07e11d1",
      "assetIds": [
        "55464657044963196816950587289035428064568320970692304673817341489687656669185",
        "55464657044963196816950587289035428064568320970692304673817341489687665059842",
        "55464657044963196816950587289035428064568320970692304673817341489687665059840"
      ]
    },
    {
      "x": 345,
      "y": 304,
      "size": 1,
      "price": "4683000000000000000000",
      "reserved": "",
      "salt": "0x3191c5ddb1866466420846cbeebc837975e3bbc93a70ac4b4e2ac5742498071d",
      "assetIds": [
        "55464657044963196816950587289035428064568320970692304673817341489687656669184",
        "55464657044963196816950587289035428064568320970692304673817341489687665059843",
        "55464657044963196816950587289035428064568320970692304673817341489687665059840"
      ]
    },
    {
      "x": 345,
      "y": 305,
      "size": 1,
      "price": "4683000000000000000000",
      "reserved": "",
      "salt": "0x0f224950b171513779496dee768c60135d920f3e98d09f2feece44c4f15dd2a6",
      "assetIds": [
        "55464657044963196816950587289035428064568320970692304673817341489687656669185",
        "55464657044963196816950587289035428064568320970692304673817341489687665059844",
        "55464657044963196816950587289035428064568320970692304673817341489687665059840"
      ]
    },
    {
      "x": 346,
      "y": 240,
      "size": 1,
      "price": "4683000000000000000000",
      "reserved": "",
      "salt": "0x598c58688b2cb2f20ecfce80d68db8a6a4945f619eb128bc24a6dfff95419e4e",
      "assetIds": [
        "55464657044963196816950587289035428064568320970692304673817341489687656669184",
        "55464657044963196816950587289035428064568320970692304673817341489687665059842",
        "55464657044963196816950587289035428064568320970692304673817341489687665059840"
      ]
    },
    {
      "x": 346,
      "y": 241,
      "size": 1,
      "price": "4683000000000000000000",
      "reserved": "",
      "salt": "0x37c8cf3f65afa23635c60bf05748afb4fce3cfef75ecf7c68913466a4828f0bd",
      "assetIds": [
        "55464657044963196816950587289035428064568320970692304673817341489687656669185",
        "55464657044963196816950587289035428064568320970692304673817341489687665059843",
        "55464657044963196816950587289035428064568320970692304673817341489687665059840"
      ]
    },
    {
      "x": 346,
      "y": 242,
      "size": 1,
      "price": "4683000000000000000000",
      "reserved": "",
      "salt": "0x94a630161488fa5d938d0ebacff3f31928546b0e8c801717523ddc9b7ea75b12",
      "assetIds": [
        "55464657044963196816950587289035428064568320970692304673817341489687656669187",
        "55464657044963196816950587289035428064568320970692304673817341489687665059842",
        "55464657044963196816950587289035428064568320970692304673817341489687665059841"
      ]
    },
    {
      "x": 346,
      "y": 243,
      "size": 1,
      "price": "4683000000000000000000",
      "reserved": "",
      "salt": "0xfac7f518415d6b65996559e54069528514a4451c7c09c6aa165d1edf9c726bee",
      "assetIds": [
        "55464657044963196816950587289035428064568320970692304673817341489687656669187",
        "55464657044963196816950587289035428064568320970692304673817341489687665059844",
        "55464657044963196816950587289035428064568320970692304673817341489687665059841"
      ]
    },
    {
      "x": 346,
      "y": 244,
      "size": 1,
      "price": "4683000000000000000000",
      "reserved": "",
      "salt": "0x92fbbe33591295885184666806e4533f32d814a5d884fda540225fd2871ee947",
      "assetIds": [
        "55464657044963196816950587289035428064568320970692304673817341489687656669185",
        "55464657044963196816950587289035428064568320970692304673817341489687665059844",
        "55464657044963196816950587289035428064568320970692304673817341489687665059840"
      ]
    },
    {
      "x": 346,
      "y": 245,
      "size": 1,
      "price": "4683000000000000000000",
      "reserved": "",
      "salt": "0x82060313051b6ad6c87499ae7692673f6ca5504ef196c077afee2d2b213393de",
      "assetIds": [
        "55464657044963196816950587289035428064568320970692304673817341489687656669185",
        "55464657044963196816950587289035428064568320970692304673817341489687665059842",
        "55464657044963196816950587289035428064568320970692304673817341489687665059840"
      ]
    },
    {
      "x": 346,
      "y": 246,
      "size": 1,
      "price": "4683000000000000000000",
      "reserved": "",
      "salt": "0x4bf086b97eae68ec4c0c223d4444005d456fef8e19fedb48f6ca9c96d81e4f33",
      "assetIds": [
        "55464657044963196816950587289035428064568320970692304673817341489687656669185",
        "55464657044963196816950587289035428064568320970692304673817341489687665059842",
        "55464657044963196816950587289035428064568320970692304673817341489687665059840"
      ]
    },
    {
      "x": 346,
      "y": 247,
      "size": 1,
      "price": "4683000000000000000000",
      "reserved": "",
      "salt": "0x011955cd33862b519fc6ec5a26b1348a297babb2cc9e5b81cba7ac5321f8ab00",
      "assetIds": [
        "55464657044963196816950587289035428064568320970692304673817341489687656669187",
        "55464657044963196816950587289035428064568320970692304673817341489687665059843",
        "55464657044963196816950587289035428064568320970692304673817341489687665059841"
      ]
    },
    {
      "x": 346,
      "y": 248,
      "size": 1,
      "price": "4683000000000000000000",
      "reserved": "",
      "salt": "0xf9d2bf6bbae71fc438ecb6c6ecf2ee68f844b750303e2c3793ee94870c6bffa8",
      "assetIds": [
        "55464657044963196816950587289035428064568320970692304673817341489687656669186",
        "55464657044963196816950587289035428064568320970692304673817341489687665059842",
        "55464657044963196816950587289035428064568320970692304673817341489687665059841"
      ]
    },
    {
      "x": 346,
      "y": 249,
      "size": 1,
      "price": "4683000000000000000000",
      "reserved": "",
      "salt": "0x057d0bb5c0e442d92e7a6fb9d8e5eb1754f37fb470a876753695a8d4ade9a41d",
      "assetIds": [
        "55464657044963196816950587289035428064568320970692304673817341489687656669185",
        "55464657044963196816950587289035428064568320970692304673817341489687665059844",
        "55464657044963196816950587289035428064568320970692304673817341489687665059840"
      ]
    },
    {
      "x": 346,
      "y": 250,
      "size": 1,
      "price": "4683000000000000000000",
      "reserved": "",
      "salt": "0xe3ebfba9f2b2d4c1ebf774689795e23017950720e52fbfa45545579d9c6617bf",
      "assetIds": [
        "55464657044963196816950587289035428064568320970692304673817341489687656669184",
        "55464657044963196816950587289035428064568320970692304673817341489687665059843",
        "55464657044963196816950587289035428064568320970692304673817341489687665059840"
      ]
    },
    {
      "x": 346,
      "y": 251,
      "size": 1,
      "price": "4683000000000000000000",
      "reserved": "",
      "salt": "0x90b84a3c1d345e280d21b362da88d9ae9432544de69b237b73e1f42fcf08b139",
      "assetIds": [
        "55464657044963196816950587289035428064568320970692304673817341489687656669186",
        "55464657044963196816950587289035428064568320970692304673817341489687665059842",
        "55464657044963196816950587289035428064568320970692304673817341489687665059841"
      ]
    },
    {
      "x": 346,
      "y": 252,
      "size": 1,
      "price": "4683000000000000000000",
      "reserved": "",
      "salt": "0x49caa614f96e0e4f2045ad10feb823f7e2054074e9872b30076b07856dc4fe49",
      "assetIds": [
        "55464657044963196816950587289035428064568320970692304673817341489687656669186",
        "55464657044963196816950587289035428064568320970692304673817341489687665059844",
        "55464657044963196816950587289035428064568320970692304673817341489687665059841"
      ]
    },
    {
      "x": 346,
      "y": 253,
      "size": 1,
      "price": "4683000000000000000000",
      "reserved": "",
      "salt": "0x76270cecd2066c6226f9bb19723adaf9652165d2230c3862deff7912e2b78a27",
      "assetIds": [
        "55464657044963196816950587289035428064568320970692304673817341489687656669187",
        "55464657044963196816950587289035428064568320970692304673817341489687665059842",
        "55464657044963196816950587289035428064568320970692304673817341489687665059841"
      ]
    },
    {
      "x": 346,
      "y": 254,
      "size": 1,
      "price": "4683000000000000000000",
      "reserved": "",
      "salt": "0x3cf52cf4c985f156d64270b16c2f67d63d933115e15d35dd8d528db3eb0c7def",
      "assetIds": [
        "55464657044963196816950587289035428064568320970692304673817341489687656669186",
        "55464657044963196816950587289035428064568320970692304673817341489687665059843",
        "55464657044963196816950587289035428064568320970692304673817341489687665059841"
      ]
    },
    {
      "x": 346,
      "y": 255,
      "size": 1,
      "price": "4683000000000000000000",
      "reserved": "",
      "salt": "0x80237566c6325a685acbf1ef323f50f1c5763fb320fad4e0448fc0e00cddf85f",
      "assetIds": [
        "55464657044963196816950587289035428064568320970692304673817341489687656669184",
        "55464657044963196816950587289035428064568320970692304673817341489687665059844",
        "55464657044963196816950587289035428064568320970692304673817341489687665059840"
      ]
    },
    {
      "x": 346,
      "y": 256,
      "size": 1,
      "price": "4683000000000000000000",
      "reserved": "",
      "salt": "0xbbdf0437540c154ba918a240b5b18484e6e115805f11392a811470398e642f49",
      "assetIds": [
        "55464657044963196816950587289035428064568320970692304673817341489687656669187",
        "55464657044963196816950587289035428064568320970692304673817341489687665059842",
        "55464657044963196816950587289035428064568320970692304673817341489687665059841"
      ]
    },
    {
      "x": 346,
      "y": 257,
      "size": 1,
      "price": "4683000000000000000000",
      "reserved": "",
      "salt": "0xb3dfa86b696523d29b19cd4edef6e2c7398a056e9d3bd6b43663ae47cfc3db8f",
      "assetIds": [
        "55464657044963196816950587289035428064568320970692304673817341489687656669187",
        "55464657044963196816950587289035428064568320970692304673817341489687665059843",
        "55464657044963196816950587289035428064568320970692304673817341489687665059841"
      ]
    },
    {
      "x": 346,
      "y": 297,
      "size": 1,
      "price": "4683000000000000000000",
      "reserved": "",
      "salt": "0x6e24485b78a121d22718d9eda7726bb5fb6dfbc6f47a092075971408adb3dcfc",
      "assetIds": [
        "55464657044963196816950587289035428064568320970692304673817341489687656669187",
        "55464657044963196816950587289035428064568320970692304673817341489687665059843",
        "55464657044963196816950587289035428064568320970692304673817341489687665059841"
      ]
    },
    {
      "x": 346,
      "y": 298,
      "size": 1,
      "price": "4683000000000000000000",
      "reserved": "",
      "salt": "0xf07357127ca537a545e2def859cf5a8cf70b0612d70327f72aabdb627de20364",
      "assetIds": [
        "55464657044963196816950587289035428064568320970692304673817341489687656669187",
        "55464657044963196816950587289035428064568320970692304673817341489687665059842",
        "55464657044963196816950587289035428064568320970692304673817341489687665059841"
      ]
    },
    {
      "x": 346,
      "y": 299,
      "size": 1,
      "price": "4683000000000000000000",
      "reserved": "",
      "salt": "0xe053f0384ae23fc8816ab61bb2759d596f8aa061a09ae6276cde07e15bcb1f33",
      "assetIds": [
        "55464657044963196816950587289035428064568320970692304673817341489687656669187",
        "55464657044963196816950587289035428064568320970692304673817341489687665059843",
        "55464657044963196816950587289035428064568320970692304673817341489687665059841"
      ]
    },
    {
      "x": 346,
      "y": 303,
      "size": 1,
      "price": "4683000000000000000000",
      "reserved": "",
      "salt": "0x4f5b56c3d13d9cfbc67743e72417bec612aefe8446508b8a14d4e65c5d6ddd80",
      "assetIds": [
        "55464657044963196816950587289035428064568320970692304673817341489687656669184",
        "55464657044963196816950587289035428064568320970692304673817341489687665059844",
        "55464657044963196816950587289035428064568320970692304673817341489687665059840"
      ]
    },
    {
      "x": 346,
      "y": 304,
      "size": 1,
      "price": "4683000000000000000000",
      "reserved": "",
      "salt": "0x6a9c92b42adea0638d07bc57892911d85d2539b56a01b2a5beae2ea9b513fe12",
      "assetIds": [
        "55464657044963196816950587289035428064568320970692304673817341489687656669187",
        "55464657044963196816950587289035428064568320970692304673817341489687665059843",
        "55464657044963196816950587289035428064568320970692304673817341489687665059841"
      ]
    },
    {
      "x": 346,
      "y": 305,
      "size": 1,
      "price": "4683000000000000000000",
      "reserved": "",
      "salt": "0x1c4ab72fb628ecd62b77e56b8e858013bf49cf5e5312b36d9c606408784dac4e",
      "assetIds": [
        "55464657044963196816950587289035428064568320970692304673817341489687656669184",
        "55464657044963196816950587289035428064568320970692304673817341489687665059844",
        "55464657044963196816950587289035428064568320970692304673817341489687665059840"
      ]
    },
    {
      "x": 347,
      "y": 240,
      "size": 1,
      "price": "4683000000000000000000",
      "reserved": "",
      "salt": "0x25b096ab68968308b20c2adaf9fbc3aa4933fabf9ca18ec133b53af4171c82b0",
      "assetIds": [
        "55464657044963196816950587289035428064568320970692304673817341489687656669187",
        "55464657044963196816950587289035428064568320970692304673817341489687665059842",
        "55464657044963196816950587289035428064568320970692304673817341489687665059841"
      ]
    },
    {
      "x": 347,
      "y": 241,
      "size": 1,
      "price": "4683000000000000000000",
      "reserved": "",
      "salt": "0xa300860f94874f71328d338b8b69b236cb8790873385f53c76148c270f11c2d8",
      "assetIds": [
        "55464657044963196816950587289035428064568320970692304673817341489687656669185",
        "55464657044963196816950587289035428064568320970692304673817341489687665059842",
        "55464657044963196816950587289035428064568320970692304673817341489687665059840"
      ]
    },
    {
      "x": 347,
      "y": 242,
      "size": 1,
      "price": "4683000000000000000000",
      "reserved": "",
      "salt": "0x440ab6389498adf5fe8183aab1cc6c14be130f4b826392cfe8603151baea5feb",
      "assetIds": [
        "55464657044963196816950587289035428064568320970692304673817341489687656669184",
        "55464657044963196816950587289035428064568320970692304673817341489687665059842",
        "55464657044963196816950587289035428064568320970692304673817341489687665059840"
      ]
    },
    {
      "x": 347,
      "y": 243,
      "size": 1,
      "price": "4683000000000000000000",
      "reserved": "",
      "salt": "0x0efce77f502770ebac125fe3fdc7d2757ec006dbfcd3714c1f8ac4073ebca409",
      "assetIds": [
        "55464657044963196816950587289035428064568320970692304673817341489687656669186",
        "55464657044963196816950587289035428064568320970692304673817341489687665059844",
        "55464657044963196816950587289035428064568320970692304673817341489687665059841"
      ]
    },
    {
      "x": 347,
      "y": 244,
      "size": 1,
      "price": "4683000000000000000000",
      "reserved": "",
      "salt": "0xd698ed62572c041a969e3e0b4d1f8f2ee9b2ea066fae316df71d8008c7ac0e2e",
      "assetIds": [
        "55464657044963196816950587289035428064568320970692304673817341489687656669187",
        "55464657044963196816950587289035428064568320970692304673817341489687665059844",
        "55464657044963196816950587289035428064568320970692304673817341489687665059841"
      ]
    },
    {
      "x": 347,
      "y": 245,
      "size": 1,
      "price": "4683000000000000000000",
      "reserved": "",
      "salt": "0x7db3ec96b4bb791b34617fc899183ec92fd4a2b09583efcc13f6d0a51530df61",
      "assetIds": [
        "55464657044963196816950587289035428064568320970692304673817341489687656669185",
        "55464657044963196816950587289035428064568320970692304673817341489687665059843",
        "55464657044963196816950587289035428064568320970692304673817341489687665059840"
      ]
    },
    {
      "x": 347,
      "y": 246,
      "size": 1,
      "price": "4683000000000000000000",
      "reserved": "",
      "salt": "0xad1593c7e8b9a322a3e7091b53af67ca75e1f15624bdbefad84e91902d0c3f15",
      "assetIds": [
        "55464657044963196816950587289035428064568320970692304673817341489687656669184",
        "55464657044963196816950587289035428064568320970692304673817341489687665059843",
        "55464657044963196816950587289035428064568320970692304673817341489687665059840"
      ]
    },
    {
      "x": 347,
      "y": 247,
      "size": 1,
      "price": "4683000000000000000000",
      "reserved": "",
      "salt": "0xd4b76f31f79657fe548868db5d79e2e2bfa8bcbc0b28b151935d76c869fedaa6",
      "assetIds": [
        "55464657044963196816950587289035428064568320970692304673817341489687656669186",
        "55464657044963196816950587289035428064568320970692304673817341489687665059843",
        "55464657044963196816950587289035428064568320970692304673817341489687665059841"
      ]
    },
    {
      "x": 347,
      "y": 248,
      "size": 1,
      "price": "4683000000000000000000",
      "reserved": "",
      "salt": "0xcc097eb0d3616c3f158ddb21e6ba74adb5d48c154129dbdf126803ae4078389a",
      "assetIds": [
        "55464657044963196816950587289035428064568320970692304673817341489687656669185",
        "55464657044963196816950587289035428064568320970692304673817341489687665059842",
        "55464657044963196816950587289035428064568320970692304673817341489687665059840"
      ]
    },
    {
      "x": 347,
      "y": 249,
      "size": 1,
      "price": "4683000000000000000000",
      "reserved": "",
      "salt": "0x04b08f25f8c0469b22e85978a0bb2ae1fbd0ccc6f5d2222797965825aed3d435",
      "assetIds": [
        "55464657044963196816950587289035428064568320970692304673817341489687656669184",
        "55464657044963196816950587289035428064568320970692304673817341489687665059844",
        "55464657044963196816950587289035428064568320970692304673817341489687665059840"
      ]
    },
    {
      "x": 347,
      "y": 250,
      "size": 1,
      "price": "4683000000000000000000",
      "reserved": "",
      "salt": "0x1b07cb4ccd2c5e3a6f23f00224002a7836c8fd7cac629e6b1207b4711dddad80",
      "assetIds": [
        "55464657044963196816950587289035428064568320970692304673817341489687656669186",
        "55464657044963196816950587289035428064568320970692304673817341489687665059843",
        "55464657044963196816950587289035428064568320970692304673817341489687665059841"
      ]
    },
    {
      "x": 347,
      "y": 251,
      "size": 1,
      "price": "4683000000000000000000",
      "reserved": "",
      "salt": "0xb7a263db4e1698ef682e298c0cee50cc793f58c1d4f94564248a8cf7049f7ccf",
      "assetIds": [
        "55464657044963196816950587289035428064568320970692304673817341489687656669185",
        "55464657044963196816950587289035428064568320970692304673817341489687665059843",
        "55464657044963196816950587289035428064568320970692304673817341489687665059840"
      ]
    },
    {
      "x": 347,
      "y": 252,
      "size": 1,
      "price": "4683000000000000000000",
      "reserved": "",
      "salt": "0xa99ed4a3c3005734c0f4578d364e14ac6387758eefae1dfd5a60a8f6c20a7acf",
      "assetIds": [
        "55464657044963196816950587289035428064568320970692304673817341489687656669184",
        "55464657044963196816950587289035428064568320970692304673817341489687665059843",
        "55464657044963196816950587289035428064568320970692304673817341489687665059840"
      ]
    },
    {
      "x": 347,
      "y": 253,
      "size": 1,
      "price": "4683000000000000000000",
      "reserved": "",
      "salt": "0xf5d05a53da1519077118f9302ba170591da8075b294e7dd1ed06f2f93ed093c4",
      "assetIds": [
        "55464657044963196816950587289035428064568320970692304673817341489687656669187",
        "55464657044963196816950587289035428064568320970692304673817341489687665059844",
        "55464657044963196816950587289035428064568320970692304673817341489687665059841"
      ]
    },
    {
      "x": 347,
      "y": 254,
      "size": 1,
      "price": "4683000000000000000000",
      "reserved": "",
      "salt": "0x599a12bbfd9dc9b5b2491643ad0284a121dec7f6e78502770a434a658380a7a6",
      "assetIds": [
        "55464657044963196816950587289035428064568320970692304673817341489687656669185",
        "55464657044963196816950587289035428064568320970692304673817341489687665059843",
        "55464657044963196816950587289035428064568320970692304673817341489687665059840"
      ]
    },
    {
      "x": 347,
      "y": 255,
      "size": 1,
      "price": "4683000000000000000000",
      "reserved": "",
      "salt": "0x67938cd889e5fb63d80c8b4cfc62418fe13979b6e28caf5f984cca2a855907c1",
      "assetIds": [
        "55464657044963196816950587289035428064568320970692304673817341489687656669186",
        "55464657044963196816950587289035428064568320970692304673817341489687665059843",
        "55464657044963196816950587289035428064568320970692304673817341489687665059841"
      ]
    },
    {
      "x": 347,
      "y": 256,
      "size": 1,
      "price": "4683000000000000000000",
      "reserved": "",
      "salt": "0x3af073f8598a3c9673f63a5e74acff4bed842be175e6c198839596a9b1588aa4",
      "assetIds": [
        "55464657044963196816950587289035428064568320970692304673817341489687656669186",
        "55464657044963196816950587289035428064568320970692304673817341489687665059844",
        "55464657044963196816950587289035428064568320970692304673817341489687665059841"
      ]
    },
    {
      "x": 347,
      "y": 257,
      "size": 1,
      "price": "4683000000000000000000",
      "reserved": "",
      "salt": "0x658e0c3736091b3adadd135cadae3ae8ae8c18fd5199748623f07a82f888b268",
      "assetIds": [
        "55464657044963196816950587289035428064568320970692304673817341489687656669186",
        "55464657044963196816950587289035428064568320970692304673817341489687665059843",
        "55464657044963196816950587289035428064568320970692304673817341489687665059841"
      ]
    },
    {
      "x": 347,
      "y": 297,
      "size": 1,
      "price": "4683000000000000000000",
      "reserved": "",
      "salt": "0x588c52b6bdfa14e5d8f8c90fd8108234323929f50311b9cd35ace528fe169395",
      "assetIds": [
        "55464657044963196816950587289035428064568320970692304673817341489687656669185",
        "55464657044963196816950587289035428064568320970692304673817341489687665059843",
        "55464657044963196816950587289035428064568320970692304673817341489687665059840"
      ]
    },
    {
      "x": 347,
      "y": 298,
      "size": 1,
      "price": "4683000000000000000000",
      "reserved": "",
      "salt": "0x0835e512cab0d198ccc6fa6d67e881dcba4ef34ecc53524d5a377fc1957d7a18",
      "assetIds": [
        "55464657044963196816950587289035428064568320970692304673817341489687656669187",
        "55464657044963196816950587289035428064568320970692304673817341489687665059843",
        "55464657044963196816950587289035428064568320970692304673817341489687665059841"
      ]
    },
    {
      "x": 347,
      "y": 299,
      "size": 1,
      "price": "4683000000000000000000",
      "reserved": "",
      "salt": "0xb0242d6841761058ec74af0ed986dad57e6266224d270931be131c55e06e2cae",
      "assetIds": [
        "55464657044963196816950587289035428064568320970692304673817341489687656669186",
        "55464657044963196816950587289035428064568320970692304673817341489687665059844",
        "55464657044963196816950587289035428064568320970692304673817341489687665059841"
      ]
    },
    {
      "x": 347,
      "y": 303,
      "size": 1,
      "price": "4683000000000000000000",
      "reserved": "",
      "salt": "0x5767965d862d05ff225f1114add05189ec8b695bd1a4d2fc95b0d98b7604b37b",
      "assetIds": [
        "55464657044963196816950587289035428064568320970692304673817341489687656669185",
        "55464657044963196816950587289035428064568320970692304673817341489687665059843",
        "55464657044963196816950587289035428064568320970692304673817341489687665059840"
      ]
    },
    {
      "x": 347,
      "y": 304,
      "size": 1,
      "price": "4683000000000000000000",
      "reserved": "",
      "salt": "0x242d04a949cb2423f29fb1ad2c102090b4950682bc418c267a6ef521b8d166c8",
      "assetIds": [
        "55464657044963196816950587289035428064568320970692304673817341489687656669187",
        "55464657044963196816950587289035428064568320970692304673817341489687665059844",
        "55464657044963196816950587289035428064568320970692304673817341489687665059841"
      ]
    },
    {
      "x": 347,
      "y": 305,
      "size": 1,
      "price": "4683000000000000000000",
      "reserved": "",
      "salt": "0xb3d5f2f6607f15f676a89b0337f4ea6f492dc4efdb17c251f4dea228e763a1a0",
      "assetIds": [
        "55464657044963196816950587289035428064568320970692304673817341489687656669185",
        "55464657044963196816950587289035428064568320970692304673817341489687665059843",
        "55464657044963196816950587289035428064568320970692304673817341489687665059840"
      ]
    },
    {
      "x": 348,
      "y": 255,
      "size": 1,
      "price": "4683000000000000000000",
      "reserved": "",
      "salt": "0x26fd7effddec71aa87f76291861cc7820350b1b2b22c7ffd3cb9120c4a1f743b",
      "assetIds": [
        "55464657044963196816950587289035428064568320970692304673817341489687656669184",
        "55464657044963196816950587289035428064568320970692304673817341489687665059843",
        "55464657044963196816950587289035428064568320970692304673817341489687665059840"
      ]
    },
    {
      "x": 348,
      "y": 256,
      "size": 1,
      "price": "4683000000000000000000",
      "reserved": "",
      "salt": "0x89f44ab7f05849ec2661939d57e978ff115fdb66ae7a165ee975e0242ba03baa",
      "assetIds": [
        "55464657044963196816950587289035428064568320970692304673817341489687656669186",
        "55464657044963196816950587289035428064568320970692304673817341489687665059843",
        "55464657044963196816950587289035428064568320970692304673817341489687665059841"
      ]
    },
    {
      "x": 348,
      "y": 257,
      "size": 1,
      "price": "4683000000000000000000",
      "reserved": "",
      "salt": "0x8d25fb1e2eb2b808d005802b6bfe75f81463658851fe1d0f11090ca965744154",
      "assetIds": [
        "55464657044963196816950587289035428064568320970692304673817341489687656669187",
        "55464657044963196816950587289035428064568320970692304673817341489687665059844",
        "55464657044963196816950587289035428064568320970692304673817341489687665059841"
      ]
    },
    {
      "x": 348,
      "y": 258,
      "size": 1,
      "price": "4683000000000000000000",
      "reserved": "",
      "salt": "0x3df7a899ef906264279af3541f39d61028f26ecac5134ac698f882ffa1424acb",
      "assetIds": [
        "55464657044963196816950587289035428064568320970692304673817341489687656669185",
        "55464657044963196816950587289035428064568320970692304673817341489687665059842",
        "55464657044963196816950587289035428064568320970692304673817341489687665059840"
      ]
    },
    {
      "x": 348,
      "y": 259,
      "size": 1,
      "price": "4683000000000000000000",
      "reserved": "",
      "salt": "0x4cd75d39789810d4c6846f49cb4dfb0f21cdab6dadc2b71f899797c5b9bdb3bf",
      "assetIds": [
        "55464657044963196816950587289035428064568320970692304673817341489687656669184",
        "55464657044963196816950587289035428064568320970692304673817341489687665059842",
        "55464657044963196816950587289035428064568320970692304673817341489687665059840"
      ]
    },
    {
      "x": 348,
      "y": 260,
      "size": 1,
      "price": "4683000000000000000000",
      "reserved": "",
      "salt": "0x05c1eaaafb578cae95e627dc80d817208c0152c513d14d2a6bf38d370cf5c280",
      "assetIds": [
        "55464657044963196816950587289035428064568320970692304673817341489687656669186",
        "55464657044963196816950587289035428064568320970692304673817341489687665059844",
        "55464657044963196816950587289035428064568320970692304673817341489687665059841"
      ]
    },
    {
      "x": 348,
      "y": 261,
      "size": 1,
      "price": "4683000000000000000000",
      "reserved": "",
      "salt": "0xbab15794ab4c085e6da10786f4a4304165ee6c4b882f62b27735d40fa9e25305",
      "assetIds": [
        "55464657044963196816950587289035428064568320970692304673817341489687656669186",
        "55464657044963196816950587289035428064568320970692304673817341489687665059843",
        "55464657044963196816950587289035428064568320970692304673817341489687665059841"
      ]
    },
    {
      "x": 348,
      "y": 262,
      "size": 1,
      "price": "4683000000000000000000",
      "reserved": "",
      "salt": "0x339b451b9d341e189ad18f38dbae932a445addaf552e6c0d2d38147e5ef1b0b3",
      "assetIds": [
        "55464657044963196816950587289035428064568320970692304673817341489687656669185",
        "55464657044963196816950587289035428064568320970692304673817341489687665059844",
        "55464657044963196816950587289035428064568320970692304673817341489687665059840"
      ]
    },
    {
      "x": 348,
      "y": 263,
      "size": 1,
      "price": "4683000000000000000000",
      "reserved": "",
      "salt": "0x659af0ba05e90ea7a5b8e00468387d0d62c9799b86325ae6696d71e374afc1a1",
      "assetIds": [
        "55464657044963196816950587289035428064568320970692304673817341489687656669184",
        "55464657044963196816950587289035428064568320970692304673817341489687665059843",
        "55464657044963196816950587289035428064568320970692304673817341489687665059840"
      ]
    },
    {
      "x": 348,
      "y": 300,
      "size": 1,
      "price": "4683000000000000000000",
      "reserved": "",
      "salt": "0x8f303d6ec5cdabaaeeee4e27807266a71c0b8f6006c181f042b4f1a334da3b85",
      "assetIds": [
        "55464657044963196816950587289035428064568320970692304673817341489687656669185",
        "55464657044963196816950587289035428064568320970692304673817341489687665059843",
        "55464657044963196816950587289035428064568320970692304673817341489687665059840"
      ]
    },
    {
      "x": 348,
      "y": 301,
      "size": 1,
      "price": "4683000000000000000000",
      "reserved": "",
      "salt": "0xaf1c50134b917f167c09690b19343ddb0a3b2a38fa252eb076e043df1030c8dc",
      "assetIds": [
        "55464657044963196816950587289035428064568320970692304673817341489687656669187",
        "55464657044963196816950587289035428064568320970692304673817341489687665059843",
        "55464657044963196816950587289035428064568320970692304673817341489687665059841"
      ]
    },
    {
      "x": 348,
      "y": 302,
      "size": 1,
      "price": "4683000000000000000000",
      "reserved": "",
      "salt": "0xc572c1074df7ca464a6d625e12782957d588fefbe7f9985dbb01078dc4bc6ef1",
      "assetIds": [
        "55464657044963196816950587289035428064568320970692304673817341489687656669186",
        "55464657044963196816950587289035428064568320970692304673817341489687665059844",
        "55464657044963196816950587289035428064568320970692304673817341489687665059841"
      ]
    },
    {
      "x": 348,
      "y": 303,
      "size": 1,
      "price": "4683000000000000000000",
      "reserved": "",
      "salt": "0xfcbd550c1d8940afd367a7a23bec7258d7a9efef8c36c09c9a76e4d46db6abf6",
      "assetIds": [
        "55464657044963196816950587289035428064568320970692304673817341489687656669187",
        "55464657044963196816950587289035428064568320970692304673817341489687665059842",
        "55464657044963196816950587289035428064568320970692304673817341489687665059841"
      ]
    },
    {
      "x": 348,
      "y": 304,
      "size": 1,
      "price": "4683000000000000000000",
      "reserved": "",
      "salt": "0xe6cb655c9cf33e8d7e4caf63c6f505cd1bc1602334f7d34594b29b71a761645d",
      "assetIds": [
        "55464657044963196816950587289035428064568320970692304673817341489687656669184",
        "55464657044963196816950587289035428064568320970692304673817341489687665059843",
        "55464657044963196816950587289035428064568320970692304673817341489687665059840"
      ]
    },
    {
      "x": 348,
      "y": 305,
      "size": 1,
      "price": "4683000000000000000000",
      "reserved": "",
      "salt": "0x681f7064a2bdd3c0b7b6dadb6a42ba4bf2c02c7b527e2a980c5fce18ebd49fbb",
      "assetIds": [
        "55464657044963196816950587289035428064568320970692304673817341489687656669185",
        "55464657044963196816950587289035428064568320970692304673817341489687665059842",
        "55464657044963196816950587289035428064568320970692304673817341489687665059840"
      ]
    },
    {
      "x": 349,
      "y": 255,
      "size": 1,
      "price": "4683000000000000000000",
      "reserved": "",
      "salt": "0xfeeaaa963403e578410bcdb1324fd14099f26bfc873006fe31121f533d5d0404",
      "assetIds": [
        "55464657044963196816950587289035428064568320970692304673817341489687656669185",
        "55464657044963196816950587289035428064568320970692304673817341489687665059843",
        "55464657044963196816950587289035428064568320970692304673817341489687665059840"
      ]
    },
    {
      "x": 349,
      "y": 256,
      "size": 1,
      "price": "4683000000000000000000",
      "reserved": "",
      "salt": "0x61c5e32d7bfaf6e545b38a762d4d46da8ce3d130969a0a0ebba2f614b0aee741",
      "assetIds": [
        "55464657044963196816950587289035428064568320970692304673817341489687656669187",
        "55464657044963196816950587289035428064568320970692304673817341489687665059843",
        "55464657044963196816950587289035428064568320970692304673817341489687665059841"
      ]
    },
    {
      "x": 349,
      "y": 257,
      "size": 1,
      "price": "4683000000000000000000",
      "reserved": "",
      "salt": "0x5aa4c0ae33af558bde1bd8bf848bf2c159d6b884c3e420f0108372b70faea9f5",
      "assetIds": [
        "55464657044963196816950587289035428064568320970692304673817341489687656669187",
        "55464657044963196816950587289035428064568320970692304673817341489687665059844",
        "55464657044963196816950587289035428064568320970692304673817341489687665059841"
      ]
    },
    {
      "x": 349,
      "y": 258,
      "size": 1,
      "price": "4683000000000000000000",
      "reserved": "",
      "salt": "0xc16c66ab88bbbbfedf16ff302fc96c2fc62ae56ee7af96152e16e1ae6df92835",
      "assetIds": [
        "55464657044963196816950587289035428064568320970692304673817341489687656669186",
        "55464657044963196816950587289035428064568320970692304673817341489687665059843",
        "55464657044963196816950587289035428064568320970692304673817341489687665059841"
      ]
    },
    {
      "x": 349,
      "y": 259,
      "size": 1,
      "price": "4683000000000000000000",
      "reserved": "",
      "salt": "0xd1247ff2bfa5e88789ff43bbe543bcbc48dbab0ac032414530a1b401d6088908",
      "assetIds": [
        "55464657044963196816950587289035428064568320970692304673817341489687656669185",
        "55464657044963196816950587289035428064568320970692304673817341489687665059843",
        "55464657044963196816950587289035428064568320970692304673817341489687665059840"
      ]
    },
    {
      "x": 349,
      "y": 260,
      "size": 1,
      "price": "4683000000000000000000",
      "reserved": "",
      "salt": "0xf24115f09a4cc2a262e975217bd956efe6b787314d1dd2fbe2edb6a66e63faa4",
      "assetIds": [
        "55464657044963196816950587289035428064568320970692304673817341489687656669186",
        "55464657044963196816950587289035428064568320970692304673817341489687665059844",
        "55464657044963196816950587289035428064568320970692304673817341489687665059841"
      ]
    },
    {
      "x": 349,
      "y": 261,
      "size": 1,
      "price": "4683000000000000000000",
      "reserved": "",
      "salt": "0x88f5e1b85d006d7b435d712635eea5de911d4f953588fdf38e9df93f3797e571",
      "assetIds": [
        "55464657044963196816950587289035428064568320970692304673817341489687656669187",
        "55464657044963196816950587289035428064568320970692304673817341489687665059843",
        "55464657044963196816950587289035428064568320970692304673817341489687665059841"
      ]
    },
    {
      "x": 349,
      "y": 262,
      "size": 1,
      "price": "4683000000000000000000",
      "reserved": "",
      "salt": "0x06bd4da56112aad05b333237810c82d9fe3f7138641eb2d631fe468c57913673",
      "assetIds": [
        "55464657044963196816950587289035428064568320970692304673817341489687656669186",
        "55464657044963196816950587289035428064568320970692304673817341489687665059843",
        "55464657044963196816950587289035428064568320970692304673817341489687665059841"
      ]
    },
    {
      "x": 349,
      "y": 263,
      "size": 1,
      "price": "4683000000000000000000",
      "reserved": "",
      "salt": "0xeb47a6698266f4345559c4a9a84d3e8ba6ed8e399d3dacccc28126426c880d33",
      "assetIds": [
        "55464657044963196816950587289035428064568320970692304673817341489687656669186",
        "55464657044963196816950587289035428064568320970692304673817341489687665059844",
        "55464657044963196816950587289035428064568320970692304673817341489687665059841"
      ]
    },
    {
      "x": 349,
      "y": 300,
      "size": 1,
      "price": "4683000000000000000000",
      "reserved": "",
      "salt": "0xb2afc7c5a47a5e205841f2e7f135338043abfcf8832e1b2fb819ef1a80da2c93",
      "assetIds": [
        "55464657044963196816950587289035428064568320970692304673817341489687656669184",
        "55464657044963196816950587289035428064568320970692304673817341489687665059843",
        "55464657044963196816950587289035428064568320970692304673817341489687665059840"
      ]
    },
    {
      "x": 349,
      "y": 301,
      "size": 1,
      "price": "4683000000000000000000",
      "reserved": "",
      "salt": "0x65f7fba95af4fa68ec6cf1016c602a976e52e385e676b4f61ddb336e15654b40",
      "assetIds": [
        "55464657044963196816950587289035428064568320970692304673817341489687656669185",
        "55464657044963196816950587289035428064568320970692304673817341489687665059844",
        "55464657044963196816950587289035428064568320970692304673817341489687665059840"
      ]
    },
    {
      "x": 349,
      "y": 302,
      "size": 1,
      "price": "4683000000000000000000",
      "reserved": "",
      "salt": "0x7a0d4d17eae9872d73cdc06c79381b051b71b3f6c8501cc44563e475f9c9cdbf",
      "assetIds": [
        "55464657044963196816950587289035428064568320970692304673817341489687656669187",
        "55464657044963196816950587289035428064568320970692304673817341489687665059844",
        "55464657044963196816950587289035428064568320970692304673817341489687665059841"
      ]
    },
    {
      "x": 349,
      "y": 303,
      "size": 1,
      "price": "1011000000000000000000",
      "reserved": "0x7a9fe22691c811ea339d9b73150e6911a5343dca",
      "salt": "0xa3ccf8c175393ae309776fb256de7e43d589a53ddd70a68d442f2e6ec5696826",
      "assetIds": []
    },
    {
      "x": 349,
      "y": 304,
      "size": 1,
      "price": "4683000000000000000000",
      "reserved": "",
      "salt": "0x5c3334530ecf84166fd61e5d99a530fb91900321f695ded99f132a2cb227035b",
      "assetIds": [
        "55464657044963196816950587289035428064568320970692304673817341489687656669185",
        "55464657044963196816950587289035428064568320970692304673817341489687665059842",
        "55464657044963196816950587289035428064568320970692304673817341489687665059840"
      ]
    },
    {
      "x": 349,
      "y": 305,
      "size": 1,
      "price": "4683000000000000000000",
      "reserved": "",
      "salt": "0x84cee2786cf3e221b4db582d20b97439d6fac5bffc9057b54d6e5ec96f49010f",
      "assetIds": [
        "55464657044963196816950587289035428064568320970692304673817341489687656669185",
        "55464657044963196816950587289035428064568320970692304673817341489687665059842",
        "55464657044963196816950587289035428064568320970692304673817341489687665059840"
      ]
    },
    {
      "x": 350,
      "y": 255,
      "size": 1,
      "price": "4683000000000000000000",
      "reserved": "",
      "salt": "0x92aba98162a0190a3464f9a7506f3e25d5712263117531fb1f23c878fbbc0cfa",
      "assetIds": [
        "55464657044963196816950587289035428064568320970692304673817341489687656669185",
        "55464657044963196816950587289035428064568320970692304673817341489687665059843",
        "55464657044963196816950587289035428064568320970692304673817341489687665059840"
      ]
    },
    {
      "x": 350,
      "y": 256,
      "size": 1,
      "price": "4683000000000000000000",
      "reserved": "",
      "salt": "0x6dba702af2bf106e2302d2420df3663a19e0cd25fd8c934cc85fcf42733ab4d2",
      "assetIds": [
        "55464657044963196816950587289035428064568320970692304673817341489687656669187",
        "55464657044963196816950587289035428064568320970692304673817341489687665059844",
        "55464657044963196816950587289035428064568320970692304673817341489687665059841"
      ]
    },
    {
      "x": 350,
      "y": 257,
      "size": 1,
      "price": "4683000000000000000000",
      "reserved": "",
      "salt": "0x4ddd9305e22249b7db7dcc1578b72bf219ff6f0bf8c757484eb4abeda5f795cd",
      "assetIds": [
        "55464657044963196816950587289035428064568320970692304673817341489687656669185",
        "55464657044963196816950587289035428064568320970692304673817341489687665059843",
        "55464657044963196816950587289035428064568320970692304673817341489687665059840"
      ]
    },
    {
      "x": 350,
      "y": 258,
      "size": 1,
      "price": "4683000000000000000000",
      "reserved": "",
      "salt": "0x7a6af98c55414ffa73d4ae78df5821579ce7ce8d3e0e6d5f495d29198f78d51d",
      "assetIds": [
        "55464657044963196816950587289035428064568320970692304673817341489687656669185",
        "55464657044963196816950587289035428064568320970692304673817341489687665059842",
        "55464657044963196816950587289035428064568320970692304673817341489687665059840"
      ]
    },
    {
      "x": 350,
      "y": 259,
      "size": 1,
      "price": "4683000000000000000000",
      "reserved": "",
      "salt": "0x27b4b4e4f9033dba88fb1b80f9db7abe2dde7cd7b76af6a93adf62cd150243ea",
      "assetIds": [
        "55464657044963196816950587289035428064568320970692304673817341489687656669186",
        "55464657044963196816950587289035428064568320970692304673817341489687665059842",
        "55464657044963196816950587289035428064568320970692304673817341489687665059841"
      ]
    },
    {
      "x": 350,
      "y": 260,
      "size": 1,
      "price": "4683000000000000000000",
      "reserved": "",
      "salt": "0xb62fcd92696f2685cbaf6a58f1c363a31935e05e4511e8070b862e2a4d902fa8",
      "assetIds": [
        "55464657044963196816950587289035428064568320970692304673817341489687656669186",
        "55464657044963196816950587289035428064568320970692304673817341489687665059842",
        "55464657044963196816950587289035428064568320970692304673817341489687665059841"
      ]
    },
    {
      "x": 350,
      "y": 261,
      "size": 1,
      "price": "4683000000000000000000",
      "reserved": "",
      "salt": "0x0c8b51359298b126416babf0f3960cca9723caac8248c44bdc016e020d1a0581",
      "assetIds": [
        "55464657044963196816950587289035428064568320970692304673817341489687656669184",
        "55464657044963196816950587289035428064568320970692304673817341489687665059844",
        "55464657044963196816950587289035428064568320970692304673817341489687665059840"
      ]
    },
    {
      "x": 350,
      "y": 262,
      "size": 1,
      "price": "4683000000000000000000",
      "reserved": "",
      "salt": "0x91022617159122b25a58ea46354741f4e020af6573f52a5cbed50aba1677a2a5",
      "assetIds": [
        "55464657044963196816950587289035428064568320970692304673817341489687656669185",
        "55464657044963196816950587289035428064568320970692304673817341489687665059843",
        "55464657044963196816950587289035428064568320970692304673817341489687665059840"
      ]
    },
    {
      "x": 350,
      "y": 263,
      "size": 1,
      "price": "4683000000000000000000",
      "reserved": "",
      "salt": "0x5aa8115fb78a035c1b83aa27a562a45fc20861d2a65a1621efb89ab45b01fb27",
      "assetIds": [
        "55464657044963196816950587289035428064568320970692304673817341489687656669185",
        "55464657044963196816950587289035428064568320970692304673817341489687665059844",
        "55464657044963196816950587289035428064568320970692304673817341489687665059840"
      ]
    },
    {
      "x": 350,
      "y": 300,
      "size": 1,
      "price": "4683000000000000000000",
      "reserved": "",
      "salt": "0xbc7eb1e3f53bea36e21e20939dcf4633241dd9e1baae086f9140ac3636b98b5a",
      "assetIds": [
        "55464657044963196816950587289035428064568320970692304673817341489687656669187",
        "55464657044963196816950587289035428064568320970692304673817341489687665059844",
        "55464657044963196816950587289035428064568320970692304673817341489687665059841"
      ]
    },
    {
      "x": 350,
      "y": 301,
      "size": 1,
      "price": "4683000000000000000000",
      "reserved": "",
      "salt": "0x5450bf60b54fd3651d56c80f009fd289038bb52a040eefc64974be44c00ef35f",
      "assetIds": [
        "55464657044963196816950587289035428064568320970692304673817341489687656669185",
        "55464657044963196816950587289035428064568320970692304673817341489687665059844",
        "55464657044963196816950587289035428064568320970692304673817341489687665059840"
      ]
    },
    {
      "x": 350,
      "y": 302,
      "size": 1,
      "price": "4683000000000000000000",
      "reserved": "",
      "salt": "0xe95e8f85e7dfde0a4104899c9b0fc906dd15e08d10ef45c76f574ff5982c7224",
      "assetIds": [
        "55464657044963196816950587289035428064568320970692304673817341489687656669186",
        "55464657044963196816950587289035428064568320970692304673817341489687665059842",
        "55464657044963196816950587289035428064568320970692304673817341489687665059841"
      ]
    },
    {
      "x": 350,
      "y": 303,
      "size": 1,
      "price": "4683000000000000000000",
      "reserved": "",
      "salt": "0x5c5745789f09de957fc8e6888ad7e8b26b748ef7bc500ad8004bcaa4c8d7eee3",
      "assetIds": [
        "55464657044963196816950587289035428064568320970692304673817341489687656669186",
        "55464657044963196816950587289035428064568320970692304673817341489687665059844",
        "55464657044963196816950587289035428064568320970692304673817341489687665059841"
      ]
    },
    {
      "x": 350,
      "y": 304,
      "size": 1,
      "price": "4683000000000000000000",
      "reserved": "",
      "salt": "0x991f999be7abc104853d4f54aee9679fe012dec03719f097eea21824c5b3c528",
      "assetIds": [
        "55464657044963196816950587289035428064568320970692304673817341489687656669185",
        "55464657044963196816950587289035428064568320970692304673817341489687665059843",
        "55464657044963196816950587289035428064568320970692304673817341489687665059840"
      ]
    },
    {
      "x": 350,
      "y": 305,
      "size": 1,
      "price": "4683000000000000000000",
      "reserved": "",
      "salt": "0x32fa72958e053378c4f79c2932665bc308a55fd86e3749ef38ad996ba04b5398",
      "assetIds": [
        "55464657044963196816950587289035428064568320970692304673817341489687656669187",
        "55464657044963196816950587289035428064568320970692304673817341489687665059843",
        "55464657044963196816950587289035428064568320970692304673817341489687665059841"
      ]
    },
    {
      "x": 351,
      "y": 252,
      "size": 1,
      "price": "4683000000000000000000",
      "reserved": "",
      "salt": "0x6466727bb473a725648846cdcbeef62e49b707561de24bf332317d820732d4e0",
      "assetIds": [
        "55464657044963196816950587289035428064568320970692304673817341489687656669186",
        "55464657044963196816950587289035428064568320970692304673817341489687665059844",
        "55464657044963196816950587289035428064568320970692304673817341489687665059841"
      ]
    },
    {
      "x": 351,
      "y": 253,
      "size": 1,
      "price": "4683000000000000000000",
      "reserved": "",
      "salt": "0x7fcde71b60b9b34b027786c1190808d972ed5339e37c56b7acf0041d023bab2b",
      "assetIds": [
        "55464657044963196816950587289035428064568320970692304673817341489687656669185",
        "55464657044963196816950587289035428064568320970692304673817341489687665059843",
        "55464657044963196816950587289035428064568320970692304673817341489687665059840"
      ]
    },
    {
      "x": 351,
      "y": 254,
      "size": 1,
      "price": "4683000000000000000000",
      "reserved": "",
      "salt": "0x7cab2bbda96783db1b7462a678abdc436cd137b7f123e75e696ca2f650d0d03a",
      "assetIds": [
        "55464657044963196816950587289035428064568320970692304673817341489687656669187",
        "55464657044963196816950587289035428064568320970692304673817341489687665059844",
        "55464657044963196816950587289035428064568320970692304673817341489687665059841"
      ]
    },
    {
      "x": 351,
      "y": 255,
      "size": 1,
      "price": "4683000000000000000000",
      "reserved": "",
      "salt": "0xe6168bca1570986d586e328a4d5029d35418f1cda8ea78b11fbb25b02aa8c9fd",
      "assetIds": [
        "55464657044963196816950587289035428064568320970692304673817341489687656669184",
        "55464657044963196816950587289035428064568320970692304673817341489687665059844",
        "55464657044963196816950587289035428064568320970692304673817341489687665059840"
      ]
    },
    {
      "x": 351,
      "y": 256,
      "size": 1,
      "price": "4683000000000000000000",
      "reserved": "",
      "salt": "0x8cdeb36f3f7a54dfa035d74062cdaef6d0513a9201166de659e2f99fbf5222a5",
      "assetIds": [
        "55464657044963196816950587289035428064568320970692304673817341489687656669187",
        "55464657044963196816950587289035428064568320970692304673817341489687665059844",
        "55464657044963196816950587289035428064568320970692304673817341489687665059841"
      ]
    },
    {
      "x": 351,
      "y": 257,
      "size": 1,
      "price": "4683000000000000000000",
      "reserved": "",
      "salt": "0x2176a8269b3e3537c70eae79bc92d530cc47a58bab4f2fe81b582d776a551426",
      "assetIds": [
        "55464657044963196816950587289035428064568320970692304673817341489687656669185",
        "55464657044963196816950587289035428064568320970692304673817341489687665059843",
        "55464657044963196816950587289035428064568320970692304673817341489687665059840"
      ]
    },
    {
      "x": 351,
      "y": 258,
      "size": 1,
      "price": "4683000000000000000000",
      "reserved": "",
      "salt": "0xcd19ab752278dbe14b6dd7932c7aaa2baaf9215f2213cf2dd3b8d1887b9fe070",
      "assetIds": [
        "55464657044963196816950587289035428064568320970692304673817341489687656669185",
        "55464657044963196816950587289035428064568320970692304673817341489687665059843",
        "55464657044963196816950587289035428064568320970692304673817341489687665059840"
      ]
    },
    {
      "x": 351,
      "y": 259,
      "size": 1,
      "price": "4683000000000000000000",
      "reserved": "",
      "salt": "0x29ffee6da7705919c534fda965101b5b987ba18d52c0b386d0a1ee866faa2f31",
      "assetIds": [
        "55464657044963196816950587289035428064568320970692304673817341489687656669187",
        "55464657044963196816950587289035428064568320970692304673817341489687665059843",
        "55464657044963196816950587289035428064568320970692304673817341489687665059841"
      ]
    },
    {
      "x": 351,
      "y": 260,
      "size": 1,
      "price": "4683000000000000000000",
      "reserved": "",
      "salt": "0x6c8fcff1ff0da85d94b238bd5c3aac10990a189ba8402648052ed1c80817d63c",
      "assetIds": [
        "55464657044963196816950587289035428064568320970692304673817341489687656669186",
        "55464657044963196816950587289035428064568320970692304673817341489687665059843",
        "55464657044963196816950587289035428064568320970692304673817341489687665059841"
      ]
    },
    {
      "x": 351,
      "y": 261,
      "size": 1,
      "price": "4683000000000000000000",
      "reserved": "",
      "salt": "0xab4a8a20ad3469c6060104c221892e0d8bd9143b04516975220fff5e21e310b3",
      "assetIds": [
        "55464657044963196816950587289035428064568320970692304673817341489687656669186",
        "55464657044963196816950587289035428064568320970692304673817341489687665059844",
        "55464657044963196816950587289035428064568320970692304673817341489687665059841"
      ]
    },
    {
      "x": 351,
      "y": 262,
      "size": 1,
      "price": "4683000000000000000000",
      "reserved": "",
      "salt": "0x8bfc8736b8c8869f2917c6ade8a65990cd7b444f683ec9259b393c9c7a016570",
      "assetIds": [
        "55464657044963196816950587289035428064568320970692304673817341489687656669186",
        "55464657044963196816950587289035428064568320970692304673817341489687665059844",
        "55464657044963196816950587289035428064568320970692304673817341489687665059841"
      ]
    },
    {
      "x": 351,
      "y": 263,
      "size": 1,
      "price": "4683000000000000000000",
      "reserved": "",
      "salt": "0xcd942e43f3252cc48d74363ffb0bbe6d822e8d76c2a2ac500a615d3c24ba4613",
      "assetIds": [
        "55464657044963196816950587289035428064568320970692304673817341489687656669186",
        "55464657044963196816950587289035428064568320970692304673817341489687665059842",
        "55464657044963196816950587289035428064568320970692304673817341489687665059841"
      ]
    },
    {
      "x": 351,
      "y": 300,
      "size": 1,
      "price": "4683000000000000000000",
      "reserved": "",
      "salt": "0x00e1b1da9d2fa3023ccd351c203430c8248e7866b9c12981d5ea4641fc827169",
      "assetIds": [
        "55464657044963196816950587289035428064568320970692304673817341489687656669185",
        "55464657044963196816950587289035428064568320970692304673817341489687665059844",
        "55464657044963196816950587289035428064568320970692304673817341489687665059840"
      ]
    },
    {
      "x": 351,
      "y": 301,
      "size": 1,
      "price": "4683000000000000000000",
      "reserved": "",
      "salt": "0xa9b5639de80e4a6025fe620afefebe8ab24c4829f320d0705e88472eda17127f",
      "assetIds": [
        "55464657044963196816950587289035428064568320970692304673817341489687656669184",
        "55464657044963196816950587289035428064568320970692304673817341489687665059842",
        "55464657044963196816950587289035428064568320970692304673817341489687665059840"
      ]
    },
    {
      "x": 351,
      "y": 302,
      "size": 1,
      "price": "4683000000000000000000",
      "reserved": "",
      "salt": "0x0a5de105e12f883b0df0f65996abbad973bdf02157baf95ae9eb78a61200ab89",
      "assetIds": [
        "55464657044963196816950587289035428064568320970692304673817341489687656669185",
        "55464657044963196816950587289035428064568320970692304673817341489687665059843",
        "55464657044963196816950587289035428064568320970692304673817341489687665059840"
      ]
    },
    {
      "x": 351,
      "y": 303,
      "size": 1,
      "price": "4683000000000000000000",
      "reserved": "",
      "salt": "0x66e9fc19fb786e4485dd7cc2825a5bba2ca5b89a5dd7512d04c5b8daa1ae1712",
      "assetIds": [
        "55464657044963196816950587289035428064568320970692304673817341489687656669186",
        "55464657044963196816950587289035428064568320970692304673817341489687665059844",
        "55464657044963196816950587289035428064568320970692304673817341489687665059841"
      ]
    },
    {
      "x": 351,
      "y": 304,
      "size": 1,
      "price": "4683000000000000000000",
      "reserved": "",
      "salt": "0x3b9407efc68052025437fabeec2e05f567867c2735286e4079838813b660ebec",
      "assetIds": [
        "55464657044963196816950587289035428064568320970692304673817341489687656669187",
        "55464657044963196816950587289035428064568320970692304673817341489687665059842",
        "55464657044963196816950587289035428064568320970692304673817341489687665059841"
      ]
    },
    {
      "x": 351,
      "y": 305,
      "size": 1,
      "price": "4683000000000000000000",
      "reserved": "",
      "salt": "0x8480861c9e358f70f71ed5859da6e6e4e2294941e405a45587f049bb3de8938d",
      "assetIds": [
        "55464657044963196816950587289035428064568320970692304673817341489687656669186",
        "55464657044963196816950587289035428064568320970692304673817341489687665059843",
        "55464657044963196816950587289035428064568320970692304673817341489687665059841"
      ]
    },
    {
      "x": 352,
      "y": 252,
      "size": 1,
      "price": "4683000000000000000000",
      "reserved": "",
      "salt": "0x00ab1695ee1c5ab93ee230c99a38b5ae281aeedf6967d8c6f4c4f48d044a4eaa",
      "assetIds": [
        "55464657044963196816950587289035428064568320970692304673817341489687656669185",
        "55464657044963196816950587289035428064568320970692304673817341489687665059844",
        "55464657044963196816950587289035428064568320970692304673817341489687665059840"
      ]
    },
    {
      "x": 352,
      "y": 253,
      "size": 1,
      "price": "4683000000000000000000",
      "reserved": "",
      "salt": "0x29f8c499dd61ffd7eaa54f1ec895e8dbe621f23ba1bb05c40de493a7ed046e9b",
      "assetIds": [
        "55464657044963196816950587289035428064568320970692304673817341489687656669187",
        "55464657044963196816950587289035428064568320970692304673817341489687665059843",
        "55464657044963196816950587289035428064568320970692304673817341489687665059841"
      ]
    },
    {
      "x": 352,
      "y": 254,
      "size": 1,
      "price": "4683000000000000000000",
      "reserved": "",
      "salt": "0xadb9e354a20e9cf1515f8e39a05bcd42b54743b40851502fb9e6cccc3a01fd0f",
      "assetIds": [
        "55464657044963196816950587289035428064568320970692304673817341489687656669186",
        "55464657044963196816950587289035428064568320970692304673817341489687665059843",
        "55464657044963196816950587289035428064568320970692304673817341489687665059841"
      ]
    },
    {
      "x": 352,
      "y": 255,
      "size": 1,
      "price": "4683000000000000000000",
      "reserved": "",
      "salt": "0x45345729168f70446df472a1a43d8dc9c08e7330e69a95b359951e9220acfaa0",
      "assetIds": [
        "55464657044963196816950587289035428064568320970692304673817341489687656669186",
        "55464657044963196816950587289035428064568320970692304673817341489687665059842",
        "55464657044963196816950587289035428064568320970692304673817341489687665059841"
      ]
    },
    {
      "x": 352,
      "y": 256,
      "size": 1,
      "price": "4683000000000000000000",
      "reserved": "",
      "salt": "0x9c91110ce45dadbea2df62c0be8d4d7130341c4400a8e5f65d0e50596408d410",
      "assetIds": [
        "55464657044963196816950587289035428064568320970692304673817341489687656669187",
        "55464657044963196816950587289035428064568320970692304673817341489687665059844",
        "55464657044963196816950587289035428064568320970692304673817341489687665059841"
      ]
    },
    {
      "x": 352,
      "y": 257,
      "size": 1,
      "price": "4683000000000000000000",
      "reserved": "",
      "salt": "0x3e4c0d7318ca22882d0a175cd1cb387a5103f257f26efaf234f83061e0a3cdbb",
      "assetIds": [
        "55464657044963196816950587289035428064568320970692304673817341489687656669184",
        "55464657044963196816950587289035428064568320970692304673817341489687665059844",
        "55464657044963196816950587289035428064568320970692304673817341489687665059840"
      ]
    },
    {
      "x": 352,
      "y": 258,
      "size": 1,
      "price": "4683000000000000000000",
      "reserved": "",
      "salt": "0x8ce06cb5c862dd97bd683876eac14589661bbcac37e3d1dcd35a8b1538a3cb2e",
      "assetIds": [
        "55464657044963196816950587289035428064568320970692304673817341489687656669186",
        "55464657044963196816950587289035428064568320970692304673817341489687665059843",
        "55464657044963196816950587289035428064568320970692304673817341489687665059841"
      ]
    },
    {
      "x": 352,
      "y": 259,
      "size": 1,
      "price": "4683000000000000000000",
      "reserved": "",
      "salt": "0x908191e6a98241eaf13e63a3080e9492d9f3c2865661779cac31baa344c41c97",
      "assetIds": [
        "55464657044963196816950587289035428064568320970692304673817341489687656669184",
        "55464657044963196816950587289035428064568320970692304673817341489687665059842",
        "55464657044963196816950587289035428064568320970692304673817341489687665059840"
      ]
    },
    {
      "x": 352,
      "y": 260,
      "size": 1,
      "price": "4683000000000000000000",
      "reserved": "",
      "salt": "0xf88f005e205c42c6f06b17733a1cbad6c02ec1e0131b0251b7af096d1e997b8a",
      "assetIds": [
        "55464657044963196816950587289035428064568320970692304673817341489687656669187",
        "55464657044963196816950587289035428064568320970692304673817341489687665059842",
        "55464657044963196816950587289035428064568320970692304673817341489687665059841"
      ]
    },
    {
      "x": 352,
      "y": 261,
      "size": 1,
      "price": "4683000000000000000000",
      "reserved": "",
      "salt": "0x5ab3483385f8ca9d744cc2776fe149a479b18008e348b129b9424df4a767be45",
      "assetIds": [
        "55464657044963196816950587289035428064568320970692304673817341489687656669185",
        "55464657044963196816950587289035428064568320970692304673817341489687665059844",
        "55464657044963196816950587289035428064568320970692304673817341489687665059840"
      ]
    },
    {
      "x": 352,
      "y": 262,
      "size": 1,
      "price": "1011000000000000000000",
      "reserved": "0x7a9fe22691c811ea339d9b73150e6911a5343dca",
      "salt": "0x84341707dd96d57a571222d6dccbd1dc49889f58463737b33436800dc2333c1b",
      "assetIds": []
    },
    {
      "x": 352,
      "y": 263,
      "size": 1,
      "price": "4683000000000000000000",
      "reserved": "",
      "salt": "0x6fc6e002eb3cb38596aa914fa21c42f478e2488f31c8fea0ea1846efb57cd5fc",
      "assetIds": [
        "55464657044963196816950587289035428064568320970692304673817341489687656669185",
        "55464657044963196816950587289035428064568320970692304673817341489687665059844",
        "55464657044963196816950587289035428064568320970692304673817341489687665059840"
      ]
    },
    {
      "x": 352,
      "y": 300,
      "size": 1,
      "price": "4683000000000000000000",
      "reserved": "",
      "salt": "0x273a0ca8b18e24ce2d144642c6797e275144a4cb272c92de7c345a779786d041",
      "assetIds": [
        "55464657044963196816950587289035428064568320970692304673817341489687656669186",
        "55464657044963196816950587289035428064568320970692304673817341489687665059843",
        "55464657044963196816950587289035428064568320970692304673817341489687665059841"
      ]
    },
    {
      "x": 352,
      "y": 301,
      "size": 1,
      "price": "4683000000000000000000",
      "reserved": "",
      "salt": "0xb2a7e9c86d92c39c630230386accb35227f7ed9e8cf5a810d20ac63f93f35706",
      "assetIds": [
        "55464657044963196816950587289035428064568320970692304673817341489687656669185",
        "55464657044963196816950587289035428064568320970692304673817341489687665059844",
        "55464657044963196816950587289035428064568320970692304673817341489687665059840"
      ]
    },
    {
      "x": 352,
      "y": 302,
      "size": 1,
      "price": "4683000000000000000000",
      "reserved": "",
      "salt": "0xc2a53e3428b9224ba0a9d6f45952e0fd2498a0ccba2be45c4834ee73b920569a",
      "assetIds": [
        "55464657044963196816950587289035428064568320970692304673817341489687656669187",
        "55464657044963196816950587289035428064568320970692304673817341489687665059844",
        "55464657044963196816950587289035428064568320970692304673817341489687665059841"
      ]
    },
    {
      "x": 352,
      "y": 303,
      "size": 1,
      "price": "4683000000000000000000",
      "reserved": "",
      "salt": "0xecd9080af46103752dbeec733a4ed18d9bec00a8e9183780a87daf1fe1f5e30f",
      "assetIds": [
        "55464657044963196816950587289035428064568320970692304673817341489687656669186",
        "55464657044963196816950587289035428064568320970692304673817341489687665059843",
        "55464657044963196816950587289035428064568320970692304673817341489687665059841"
      ]
    },
    {
      "x": 352,
      "y": 304,
      "size": 1,
      "price": "4683000000000000000000",
      "reserved": "",
      "salt": "0xe25033dc230d96c1ea4966339c316302d5b16fdfa2cd2c470f7e3b220573b4d7",
      "assetIds": [
        "55464657044963196816950587289035428064568320970692304673817341489687656669185",
        "55464657044963196816950587289035428064568320970692304673817341489687665059842",
        "55464657044963196816950587289035428064568320970692304673817341489687665059840"
      ]
    },
    {
      "x": 352,
      "y": 305,
      "size": 1,
      "price": "4683000000000000000000",
      "reserved": "",
      "salt": "0x88fa443607e21fdfa78a87dbdb1d73f48472f1fce168d4cfded348a886d05d55",
      "assetIds": [
        "55464657044963196816950587289035428064568320970692304673817341489687656669186",
        "55464657044963196816950587289035428064568320970692304673817341489687665059842",
        "55464657044963196816950587289035428064568320970692304673817341489687665059841"
      ]
    },
    {
      "x": 353,
      "y": 252,
      "size": 1,
      "price": "1011000000000000000000",
      "reserved": "0x7a9fe22691c811ea339d9b73150e6911a5343dca",
      "salt": "0x45e646bed2f63747a042f3df699264b934f3a4902f375c602edb4265a625335f",
      "assetIds": []
    },
    {
      "x": 353,
      "y": 253,
      "size": 1,
      "price": "4683000000000000000000",
      "reserved": "",
      "salt": "0xac02b6ba2cb7023537debf6d4a12b2dbdf5cc54ba81a5478b80a026fa0d63cea",
      "assetIds": [
        "55464657044963196816950587289035428064568320970692304673817341489687656669187",
        "55464657044963196816950587289035428064568320970692304673817341489687665059844",
        "55464657044963196816950587289035428064568320970692304673817341489687665059841"
      ]
    },
    {
      "x": 353,
      "y": 254,
      "size": 1,
      "price": "4683000000000000000000",
      "reserved": "",
      "salt": "0x1e34032df210a82cf3777802c770aabbc2376c52412f6a0149bb8feb30ded70f",
      "assetIds": [
        "55464657044963196816950587289035428064568320970692304673817341489687656669187",
        "55464657044963196816950587289035428064568320970692304673817341489687665059843",
        "55464657044963196816950587289035428064568320970692304673817341489687665059841"
      ]
    },
    {
      "x": 353,
      "y": 255,
      "size": 1,
      "price": "4683000000000000000000",
      "reserved": "",
      "salt": "0x18a570bac3eb5d62076dbba96e69f6cabd02dc371344a52107b688d08d946a57",
      "assetIds": [
        "55464657044963196816950587289035428064568320970692304673817341489687656669185",
        "55464657044963196816950587289035428064568320970692304673817341489687665059843",
        "55464657044963196816950587289035428064568320970692304673817341489687665059840"
      ]
    },
    {
      "x": 353,
      "y": 256,
      "size": 1,
      "price": "4683000000000000000000",
      "reserved": "",
      "salt": "0x07cb6e9c47e0d8ca7854d9d7a907dba54a034877e8efe601f9c1684cccf039ae",
      "assetIds": [
        "55464657044963196816950587289035428064568320970692304673817341489687656669184",
        "55464657044963196816950587289035428064568320970692304673817341489687665059844",
        "55464657044963196816950587289035428064568320970692304673817341489687665059840"
      ]
    },
    {
      "x": 353,
      "y": 257,
      "size": 1,
      "price": "4683000000000000000000",
      "reserved": "",
      "salt": "0x2367a82ead3acafa09b5714c8d772be9d2213f147ef51dc81411e0e0c7cb11d5",
      "assetIds": [
        "55464657044963196816950587289035428064568320970692304673817341489687656669185",
        "55464657044963196816950587289035428064568320970692304673817341489687665059844",
        "55464657044963196816950587289035428064568320970692304673817341489687665059840"
      ]
    },
    {
      "x": 353,
      "y": 258,
      "size": 1,
      "price": "4683000000000000000000",
      "reserved": "",
      "salt": "0xb18f9d0b0a4fcc224b7cd90f90418966f8887a2e2c52903c01420dcc0743596b",
      "assetIds": [
        "55464657044963196816950587289035428064568320970692304673817341489687656669187",
        "55464657044963196816950587289035428064568320970692304673817341489687665059843",
        "55464657044963196816950587289035428064568320970692304673817341489687665059841"
      ]
    },
    {
      "x": 353,
      "y": 259,
      "size": 1,
      "price": "4683000000000000000000",
      "reserved": "",
      "salt": "0x0d1e08f10a2efd237ba9d23509c8eec1c3b8b059c3c3d5000035a2269d2d7759",
      "assetIds": [
        "55464657044963196816950587289035428064568320970692304673817341489687656669185",
        "55464657044963196816950587289035428064568320970692304673817341489687665059844",
        "55464657044963196816950587289035428064568320970692304673817341489687665059840"
      ]
    },
    {
      "x": 353,
      "y": 260,
      "size": 1,
      "price": "4683000000000000000000",
      "reserved": "",
      "salt": "0xd599411da67dcb1a51d139940e3e88160bb2ac6daa22be9137bff44f23f9b309",
      "assetIds": [
        "55464657044963196816950587289035428064568320970692304673817341489687656669187",
        "55464657044963196816950587289035428064568320970692304673817341489687665059843",
        "55464657044963196816950587289035428064568320970692304673817341489687665059841"
      ]
    },
    {
      "x": 353,
      "y": 261,
      "size": 1,
      "price": "4683000000000000000000",
      "reserved": "",
      "salt": "0x28dd7b383611eea0e36fa8b7b77d76812d298d05b4aa9200d31a0e01466cb027",
      "assetIds": [
        "55464657044963196816950587289035428064568320970692304673817341489687656669185",
        "55464657044963196816950587289035428064568320970692304673817341489687665059842",
        "55464657044963196816950587289035428064568320970692304673817341489687665059840"
      ]
    },
    {
      "x": 353,
      "y": 262,
      "size": 1,
      "price": "4683000000000000000000",
      "reserved": "",
      "salt": "0xbfaa464e39813141bf693cf5bec0ff86c7c784fd87a5c9652c94aa9e9c124a59",
      "assetIds": [
        "55464657044963196816950587289035428064568320970692304673817341489687656669187",
        "55464657044963196816950587289035428064568320970692304673817341489687665059843",
        "55464657044963196816950587289035428064568320970692304673817341489687665059841"
      ]
    },
    {
      "x": 353,
      "y": 263,
      "size": 1,
      "price": "4683000000000000000000",
      "reserved": "",
      "salt": "0x2398833910b8a3d6484c5c314aff9f5b1504f16dd33dd1ca8d4682c28112cc9b",
      "assetIds": [
        "55464657044963196816950587289035428064568320970692304673817341489687656669185",
        "55464657044963196816950587289035428064568320970692304673817341489687665059843",
        "55464657044963196816950587289035428064568320970692304673817341489687665059840"
      ]
    },
    {
      "x": 353,
      "y": 300,
      "size": 1,
      "price": "4683000000000000000000",
      "reserved": "",
      "salt": "0x26a4a03b452292eba841c5e0675c57da332bdc35d9ddd47f23f477c04e457d1d",
      "assetIds": [
        "55464657044963196816950587289035428064568320970692304673817341489687656669186",
        "55464657044963196816950587289035428064568320970692304673817341489687665059842",
        "55464657044963196816950587289035428064568320970692304673817341489687665059841"
      ]
    },
    {
      "x": 353,
      "y": 301,
      "size": 1,
      "price": "4683000000000000000000",
      "reserved": "",
      "salt": "0x4152af590eba07563d36fdfec07bfe51ab42a4b1560989d9ea04ec4016ef69af",
      "assetIds": [
        "55464657044963196816950587289035428064568320970692304673817341489687656669187",
        "55464657044963196816950587289035428064568320970692304673817341489687665059843",
        "55464657044963196816950587289035428064568320970692304673817341489687665059841"
      ]
    },
    {
      "x": 353,
      "y": 302,
      "size": 1,
      "price": "4683000000000000000000",
      "reserved": "",
      "salt": "0xad3be1c36faa0bdb6bac0e896e937a05919a46192ffa55dea28ddec940bd0d14",
      "assetIds": [
        "55464657044963196816950587289035428064568320970692304673817341489687656669184",
        "55464657044963196816950587289035428064568320970692304673817341489687665059844",
        "55464657044963196816950587289035428064568320970692304673817341489687665059840"
      ]
    },
    {
      "x": 353,
      "y": 303,
      "size": 1,
      "price": "4683000000000000000000",
      "reserved": "",
      "salt": "0x10ed30b535f43f83afb739afb846c234e4067886733f9cce2a818239ebc0ee91",
      "assetIds": [
        "55464657044963196816950587289035428064568320970692304673817341489687656669185",
        "55464657044963196816950587289035428064568320970692304673817341489687665059843",
        "55464657044963196816950587289035428064568320970692304673817341489687665059840"
      ]
    },
    {
      "x": 353,
      "y": 304,
      "size": 1,
      "price": "4683000000000000000000",
      "reserved": "",
      "salt": "0xbd603ec74a623acf043eb742f57fb0edfeaa85ddfc48765d4edc8f98ddd29488",
      "assetIds": [
        "55464657044963196816950587289035428064568320970692304673817341489687656669187",
        "55464657044963196816950587289035428064568320970692304673817341489687665059842",
        "55464657044963196816950587289035428064568320970692304673817341489687665059841"
      ]
    },
    {
      "x": 353,
      "y": 305,
      "size": 1,
      "price": "4683000000000000000000",
      "reserved": "",
      "salt": "0xafbce0d5f5d5861dc8b60c9778afd6580775142a8f261c1f60dc300cff6c3178",
      "assetIds": [
        "55464657044963196816950587289035428064568320970692304673817341489687656669184",
        "55464657044963196816950587289035428064568320970692304673817341489687665059842",
        "55464657044963196816950587289035428064568320970692304673817341489687665059840"
      ]
    },
    {
      "x": 354,
      "y": 252,
      "size": 1,
      "price": "4683000000000000000000",
      "reserved": "",
      "salt": "0x7f7c6aadd03af32bf74fe0ac807756f5f08bf77b0697588c3e23a5a1c759589d",
      "assetIds": [
        "55464657044963196816950587289035428064568320970692304673817341489687656669186",
        "55464657044963196816950587289035428064568320970692304673817341489687665059844",
        "55464657044963196816950587289035428064568320970692304673817341489687665059841"
      ]
    },
    {
      "x": 354,
      "y": 253,
      "size": 1,
      "price": "4683000000000000000000",
      "reserved": "",
      "salt": "0x25fa6069a61873f3fefbccfdb3dbc5b325437a492b59d2e2a79e35f9fd7a0e9b",
      "assetIds": [
        "55464657044963196816950587289035428064568320970692304673817341489687656669187",
        "55464657044963196816950587289035428064568320970692304673817341489687665059844",
        "55464657044963196816950587289035428064568320970692304673817341489687665059841"
      ]
    },
    {
      "x": 354,
      "y": 254,
      "size": 1,
      "price": "4683000000000000000000",
      "reserved": "",
      "salt": "0x861ecdd78175fe833e3eeaa4a25362dc327429ba56b570571b29bd898140000a",
      "assetIds": [
        "55464657044963196816950587289035428064568320970692304673817341489687656669185",
        "55464657044963196816950587289035428064568320970692304673817341489687665059843",
        "55464657044963196816950587289035428064568320970692304673817341489687665059840"
      ]
    },
    {
      "x": 354,
      "y": 255,
      "size": 1,
      "price": "4683000000000000000000",
      "reserved": "",
      "salt": "0x7573dd63b6c567db60e45e6f8d2e557e739af3b898e2bebefe8e74960d4db168",
      "assetIds": [
        "55464657044963196816950587289035428064568320970692304673817341489687656669185",
        "55464657044963196816950587289035428064568320970692304673817341489687665059844",
        "55464657044963196816950587289035428064568320970692304673817341489687665059840"
      ]
    },
    {
      "x": 354,
      "y": 256,
      "size": 1,
      "price": "4683000000000000000000",
      "reserved": "",
      "salt": "0x4fa2598477459ecd9c98957d9c759c3d309fa1593d7b0b169fb9fd5764d33a71",
      "assetIds": [
        "55464657044963196816950587289035428064568320970692304673817341489687656669184",
        "55464657044963196816950587289035428064568320970692304673817341489687665059842",
        "55464657044963196816950587289035428064568320970692304673817341489687665059840"
      ]
    },
    {
      "x": 354,
      "y": 257,
      "size": 1,
      "price": "4683000000000000000000",
      "reserved": "",
      "salt": "0x70e37793f25dd52ca9bc24803ee5dded8d5ed4aa4e4892b1601cded837297c45",
      "assetIds": [
        "55464657044963196816950587289035428064568320970692304673817341489687656669187",
        "55464657044963196816950587289035428064568320970692304673817341489687665059844",
        "55464657044963196816950587289035428064568320970692304673817341489687665059841"
      ]
    },
    {
      "x": 354,
      "y": 300,
      "size": 1,
      "price": "4683000000000000000000",
      "reserved": "",
      "salt": "0xd68da8d21e17fa7243d1230b3ba54c11beab0d0d8ca17be84e2da1bbf06150df",
      "assetIds": [
        "55464657044963196816950587289035428064568320970692304673817341489687656669184",
        "55464657044963196816950587289035428064568320970692304673817341489687665059842",
        "55464657044963196816950587289035428064568320970692304673817341489687665059840"
      ]
    },
    {
      "x": 354,
      "y": 301,
      "size": 1,
      "price": "4683000000000000000000",
      "reserved": "",
      "salt": "0xacdb350dc0d7ce6f449d9219f374b3cecf2237c5c77fe77405647b668f69f8b6",
      "assetIds": [
        "55464657044963196816950587289035428064568320970692304673817341489687656669184",
        "55464657044963196816950587289035428064568320970692304673817341489687665059843",
        "55464657044963196816950587289035428064568320970692304673817341489687665059840"
      ]
    },
    {
      "x": 354,
      "y": 302,
      "size": 1,
      "price": "4683000000000000000000",
      "reserved": "",
      "salt": "0x1b4a70579302a5b694bbde2f1f44e37c76c0cc6456e85de6999a8047674def35",
      "assetIds": [
        "55464657044963196816950587289035428064568320970692304673817341489687656669187",
        "55464657044963196816950587289035428064568320970692304673817341489687665059844",
        "55464657044963196816950587289035428064568320970692304673817341489687665059841"
      ]
    },
    {
      "x": 354,
      "y": 303,
      "size": 1,
      "price": "4683000000000000000000",
      "reserved": "",
      "salt": "0xcaea502c15cb743ba38dad4d3fff1783373ef11a63e1bec0c761effd34e61dbb",
      "assetIds": [
        "55464657044963196816950587289035428064568320970692304673817341489687656669187",
        "55464657044963196816950587289035428064568320970692304673817341489687665059844",
        "55464657044963196816950587289035428064568320970692304673817341489687665059841"
      ]
    },
    {
      "x": 354,
      "y": 304,
      "size": 1,
      "price": "4683000000000000000000",
      "reserved": "",
      "salt": "0x0406d7e20063b371e0246a6494cb22a15f3f34a64a95dfc5fe7b6d518d40886e",
      "assetIds": [
        "55464657044963196816950587289035428064568320970692304673817341489687656669186",
        "55464657044963196816950587289035428064568320970692304673817341489687665059844",
        "55464657044963196816950587289035428064568320970692304673817341489687665059841"
      ]
    },
    {
      "x": 354,
      "y": 305,
      "size": 1,
      "price": "4683000000000000000000",
      "reserved": "",
      "salt": "0x6bd4a8b30891f6b21e78851c2301271881fd27d220493fcac3151b7ece624485",
      "assetIds": [
        "55464657044963196816950587289035428064568320970692304673817341489687656669187",
        "55464657044963196816950587289035428064568320970692304673817341489687665059842",
        "55464657044963196816950587289035428064568320970692304673817341489687665059841"
      ]
    },
    {
      "x": 354,
      "y": 306,
      "size": 1,
      "price": "4683000000000000000000",
      "reserved": "",
      "salt": "0x0f5904badb173c65f9d7bc7f75991c62dec998cb1b7111f6ee3ca2df50b82c7f",
      "assetIds": [
        "55464657044963196816950587289035428064568320970692304673817341489687656669184",
        "55464657044963196816950587289035428064568320970692304673817341489687665059842",
        "55464657044963196816950587289035428064568320970692304673817341489687665059840"
      ]
    },
    {
      "x": 354,
      "y": 307,
      "size": 1,
      "price": "4683000000000000000000",
      "reserved": "",
      "salt": "0x519d4af858c2ee570e9de9d753153951a6281e6b3fb2aecf78dc40bcb9362699",
      "assetIds": [
        "55464657044963196816950587289035428064568320970692304673817341489687656669187",
        "55464657044963196816950587289035428064568320970692304673817341489687665059844",
        "55464657044963196816950587289035428064568320970692304673817341489687665059841"
      ]
    },
    {
      "x": 354,
      "y": 308,
      "size": 1,
      "price": "4683000000000000000000",
      "reserved": "",
      "salt": "0xe7d5f51b97fe2aa51e82376e342fafdf5fad2c8f1bbe31df2b109798960c2b7a",
      "assetIds": [
        "55464657044963196816950587289035428064568320970692304673817341489687656669184",
        "55464657044963196816950587289035428064568320970692304673817341489687665059842",
        "55464657044963196816950587289035428064568320970692304673817341489687665059840"
      ]
    },
    {
      "x": 354,
      "y": 309,
      "size": 1,
      "price": "4683000000000000000000",
      "reserved": "",
      "salt": "0xe7e655f03db7d18a9cc1023f01e0dba882b48a3e2039f512438b0656d52fd7f5",
      "assetIds": [
        "55464657044963196816950587289035428064568320970692304673817341489687656669187",
        "55464657044963196816950587289035428064568320970692304673817341489687665059843",
        "55464657044963196816950587289035428064568320970692304673817341489687665059841"
      ]
    },
    {
      "x": 354,
      "y": 310,
      "size": 1,
      "price": "4683000000000000000000",
      "reserved": "",
      "salt": "0x08f90e087799f30e529f3585f4377422689060bc8452aebda5cdc9a8f4489bf5",
      "assetIds": [
        "55464657044963196816950587289035428064568320970692304673817341489687656669185",
        "55464657044963196816950587289035428064568320970692304673817341489687665059842",
        "55464657044963196816950587289035428064568320970692304673817341489687665059840"
      ]
    },
    {
      "x": 354,
      "y": 311,
      "size": 1,
      "price": "4683000000000000000000",
      "reserved": "",
      "salt": "0x79b974c1fc6e714f4558bdfdf2ae58533ae9a39b66ae61e476d7828a9c9b542f",
      "assetIds": [
        "55464657044963196816950587289035428064568320970692304673817341489687656669186",
        "55464657044963196816950587289035428064568320970692304673817341489687665059843",
        "55464657044963196816950587289035428064568320970692304673817341489687665059841"
      ]
    },
    {
      "x": 355,
      "y": 252,
      "size": 1,
      "price": "4683000000000000000000",
      "reserved": "",
      "salt": "0x7995ed09635b30189827f7e8cc1e1b298ece556c50276ed35002f6ac6034d30f",
      "assetIds": [
        "55464657044963196816950587289035428064568320970692304673817341489687656669185",
        "55464657044963196816950587289035428064568320970692304673817341489687665059843",
        "55464657044963196816950587289035428064568320970692304673817341489687665059840"
      ]
    },
    {
      "x": 355,
      "y": 253,
      "size": 1,
      "price": "4683000000000000000000",
      "reserved": "",
      "salt": "0x44e7548cf685dc7041595d9e5f52538d70d06fbd9b48d4fac6fa4aeca7a97541",
      "assetIds": [
        "55464657044963196816950587289035428064568320970692304673817341489687656669184",
        "55464657044963196816950587289035428064568320970692304673817341489687665059842",
        "55464657044963196816950587289035428064568320970692304673817341489687665059840"
      ]
    },
    {
      "x": 355,
      "y": 254,
      "size": 1,
      "price": "4683000000000000000000",
      "reserved": "",
      "salt": "0x0f5d6e1d83efd3bb949b390e50914b778b749192987ef40aa78541666b1686b0",
      "assetIds": [
        "55464657044963196816950587289035428064568320970692304673817341489687656669184",
        "55464657044963196816950587289035428064568320970692304673817341489687665059843",
        "55464657044963196816950587289035428064568320970692304673817341489687665059840"
      ]
    },
    {
      "x": 355,
      "y": 255,
      "size": 1,
      "price": "4683000000000000000000",
      "reserved": "",
      "salt": "0x899719f5155cd83c0f4a90f8030f189365394d89e0b15fa6da429aac75d03aad",
      "assetIds": [
        "55464657044963196816950587289035428064568320970692304673817341489687656669184",
        "55464657044963196816950587289035428064568320970692304673817341489687665059842",
        "55464657044963196816950587289035428064568320970692304673817341489687665059840"
      ]
    },
    {
      "x": 355,
      "y": 256,
      "size": 1,
      "price": "4683000000000000000000",
      "reserved": "",
      "salt": "0x034b920c392c023916e52adffd737a277331eec469e75d028888735becdfdb33",
      "assetIds": [
        "55464657044963196816950587289035428064568320970692304673817341489687656669185",
        "55464657044963196816950587289035428064568320970692304673817341489687665059842",
        "55464657044963196816950587289035428064568320970692304673817341489687665059840"
      ]
    },
    {
      "x": 355,
      "y": 257,
      "size": 1,
      "price": "4683000000000000000000",
      "reserved": "",
      "salt": "0x013356fea9fdcfaca1fd33389ef251da2c055d23532c8786e357f750151b6467",
      "assetIds": [
        "55464657044963196816950587289035428064568320970692304673817341489687656669187",
        "55464657044963196816950587289035428064568320970692304673817341489687665059843",
        "55464657044963196816950587289035428064568320970692304673817341489687665059841"
      ]
    },
    {
      "x": 355,
      "y": 300,
      "size": 1,
      "price": "4683000000000000000000",
      "reserved": "",
      "salt": "0x68797528919bfc9fdcbce87d4b0c323d45e2f26b27e262c67cb3e7ae863ee721",
      "assetIds": [
        "55464657044963196816950587289035428064568320970692304673817341489687656669184",
        "55464657044963196816950587289035428064568320970692304673817341489687665059842",
        "55464657044963196816950587289035428064568320970692304673817341489687665059840"
      ]
    },
    {
      "x": 355,
      "y": 301,
      "size": 1,
      "price": "4683000000000000000000",
      "reserved": "",
      "salt": "0x86567c7f5cbec09648c23c019aff3bb63d31bcb5ddbdcdb9c28d3d2666ad349e",
      "assetIds": [
        "55464657044963196816950587289035428064568320970692304673817341489687656669186",
        "55464657044963196816950587289035428064568320970692304673817341489687665059844",
        "55464657044963196816950587289035428064568320970692304673817341489687665059841"
      ]
    },
    {
      "x": 355,
      "y": 302,
      "size": 1,
      "price": "4683000000000000000000",
      "reserved": "",
      "salt": "0xcaba919bf4be1a7f18018ceb1a1003c35964f688fdfc1ca5ef380af9cf19a831",
      "assetIds": [
        "55464657044963196816950587289035428064568320970692304673817341489687656669186",
        "55464657044963196816950587289035428064568320970692304673817341489687665059843",
        "55464657044963196816950587289035428064568320970692304673817341489687665059841"
      ]
    },
    {
      "x": 355,
      "y": 303,
      "size": 1,
      "price": "4683000000000000000000",
      "reserved": "",
      "salt": "0x25056299b798f5e553e3d46d47ec58917256b803096346e5d2c71755d3a83ff7",
      "assetIds": [
        "55464657044963196816950587289035428064568320970692304673817341489687656669185",
        "55464657044963196816950587289035428064568320970692304673817341489687665059844",
        "55464657044963196816950587289035428064568320970692304673817341489687665059840"
      ]
    },
    {
      "x": 355,
      "y": 304,
      "size": 1,
      "price": "4683000000000000000000",
      "reserved": "",
      "salt": "0xc7ea2df959e75d688e9efa97f3b37239e414c79e04d025a685f8a500738d2dc2",
      "assetIds": [
        "55464657044963196816950587289035428064568320970692304673817341489687656669184",
        "55464657044963196816950587289035428064568320970692304673817341489687665059843",
        "55464657044963196816950587289035428064568320970692304673817341489687665059840"
      ]
    },
    {
      "x": 355,
      "y": 305,
      "size": 1,
      "price": "1011000000000000000000",
      "reserved": "0x7a9fe22691c811ea339d9b73150e6911a5343dca",
      "salt": "0x4c8cc0f7bd0c99b263e7fcb842360cf8515a70671c7660d0c1c574ba00b6cced",
      "assetIds": []
    },
    {
      "x": 355,
      "y": 306,
      "size": 1,
      "price": "4683000000000000000000",
      "reserved": "",
      "salt": "0x023c453354fb45e9ae693a77acfbb7490860fd9060541c8b76cd97b5a9a042be",
      "assetIds": [
        "55464657044963196816950587289035428064568320970692304673817341489687656669187",
        "55464657044963196816950587289035428064568320970692304673817341489687665059843",
        "55464657044963196816950587289035428064568320970692304673817341489687665059841"
      ]
    },
    {
      "x": 355,
      "y": 307,
      "size": 1,
      "price": "4683000000000000000000",
      "reserved": "",
      "salt": "0x3768d33ea8757dd55bf473d823957567a1b083780afefc61495ba91a5c11a690",
      "assetIds": [
        "55464657044963196816950587289035428064568320970692304673817341489687656669187",
        "55464657044963196816950587289035428064568320970692304673817341489687665059844",
        "55464657044963196816950587289035428064568320970692304673817341489687665059841"
      ]
    },
    {
      "x": 355,
      "y": 308,
      "size": 1,
      "price": "4683000000000000000000",
      "reserved": "",
      "salt": "0x63631896dcaaae33f1fcfd864f85269c2ac2d1736921aa12b9e2818b01b80c28",
      "assetIds": [
        "55464657044963196816950587289035428064568320970692304673817341489687656669185",
        "55464657044963196816950587289035428064568320970692304673817341489687665059844",
        "55464657044963196816950587289035428064568320970692304673817341489687665059840"
      ]
    },
    {
      "x": 355,
      "y": 309,
      "size": 1,
      "price": "4683000000000000000000",
      "reserved": "",
      "salt": "0x776ad82c3e3a463800e15ec03c3c4ee3f441319b518f91106c0028dbf2d3c5d6",
      "assetIds": [
        "55464657044963196816950587289035428064568320970692304673817341489687656669187",
        "55464657044963196816950587289035428064568320970692304673817341489687665059844",
        "55464657044963196816950587289035428064568320970692304673817341489687665059841"
      ]
    },
    {
      "x": 355,
      "y": 310,
      "size": 1,
      "price": "4683000000000000000000",
      "reserved": "",
      "salt": "0x019e2bb94772e0b7bde44978d0893652d322e0dc57e2e23605e6adcf3993a5ba",
      "assetIds": [
        "55464657044963196816950587289035428064568320970692304673817341489687656669187",
        "55464657044963196816950587289035428064568320970692304673817341489687665059842",
        "55464657044963196816950587289035428064568320970692304673817341489687665059841"
      ]
    },
    {
      "x": 355,
      "y": 311,
      "size": 1,
      "price": "4683000000000000000000",
      "reserved": "",
      "salt": "0xe99448dfd411c82d71da37727fe5e9028d0b88aa671ed723a8d9eb7ec3a21b55",
      "assetIds": [
        "55464657044963196816950587289035428064568320970692304673817341489687656669186",
        "55464657044963196816950587289035428064568320970692304673817341489687665059843",
        "55464657044963196816950587289035428064568320970692304673817341489687665059841"
      ]
    },
    {
      "x": 356,
      "y": 252,
      "size": 1,
      "price": "4683000000000000000000",
      "reserved": "",
      "salt": "0xc910fed82cac293bd25f14b50e2b93d254cf54909a23c5686602624156858bf1",
      "assetIds": [
        "55464657044963196816950587289035428064568320970692304673817341489687656669187",
        "55464657044963196816950587289035428064568320970692304673817341489687665059844",
        "55464657044963196816950587289035428064568320970692304673817341489687665059841"
      ]
    },
    {
      "x": 356,
      "y": 253,
      "size": 1,
      "price": "4683000000000000000000",
      "reserved": "",
      "salt": "0x1a7d0c96953105adbd0a0cef29a574ca6194786f5b79d16a8042a0e15b60c133",
      "assetIds": [
        "55464657044963196816950587289035428064568320970692304673817341489687656669184",
        "55464657044963196816950587289035428064568320970692304673817341489687665059842",
        "55464657044963196816950587289035428064568320970692304673817341489687665059840"
      ]
    },
    {
      "x": 356,
      "y": 254,
      "size": 1,
      "price": "4683000000000000000000",
      "reserved": "",
      "salt": "0xc8e018591da42c83bdf63c17203c0ae9b69ee584b2661ecf8a7331d6c186fe68",
      "assetIds": [
        "55464657044963196816950587289035428064568320970692304673817341489687656669184",
        "55464657044963196816950587289035428064568320970692304673817341489687665059842",
        "55464657044963196816950587289035428064568320970692304673817341489687665059840"
      ]
    },
    {
      "x": 356,
      "y": 255,
      "size": 1,
      "price": "4683000000000000000000",
      "reserved": "",
      "salt": "0xbb8d858d69a9dcadd92829f55ffa03197f992a4422d09949fac4745589048078",
      "assetIds": [
        "55464657044963196816950587289035428064568320970692304673817341489687656669187",
        "55464657044963196816950587289035428064568320970692304673817341489687665059844",
        "55464657044963196816950587289035428064568320970692304673817341489687665059841"
      ]
    },
    {
      "x": 356,
      "y": 256,
      "size": 1,
      "price": "4683000000000000000000",
      "reserved": "",
      "salt": "0x93e6afcef8c2454af744c0eccb5a56bf15f8121f046d9167c9871a13a2f195ba",
      "assetIds": [
        "55464657044963196816950587289035428064568320970692304673817341489687656669187",
        "55464657044963196816950587289035428064568320970692304673817341489687665059842",
        "55464657044963196816950587289035428064568320970692304673817341489687665059841"
      ]
    },
    {
      "x": 356,
      "y": 257,
      "size": 1,
      "price": "4683000000000000000000",
      "reserved": "",
      "salt": "0x21575fafd820392cbe6f41fd31613fa16b1279de4c5dae5ca3426292aac22577",
      "assetIds": [
        "55464657044963196816950587289035428064568320970692304673817341489687656669187",
        "55464657044963196816950587289035428064568320970692304673817341489687665059844",
        "55464657044963196816950587289035428064568320970692304673817341489687665059841"
      ]
    },
    {
      "x": 356,
      "y": 300,
      "size": 1,
      "price": "4683000000000000000000",
      "reserved": "",
      "salt": "0x19e95f279ebb3b1f54e68d974b004583e8295fa72b6f1d42378fced7d494e91d",
      "assetIds": [
        "55464657044963196816950587289035428064568320970692304673817341489687656669184",
        "55464657044963196816950587289035428064568320970692304673817341489687665059843",
        "55464657044963196816950587289035428064568320970692304673817341489687665059840"
      ]
    },
    {
      "x": 356,
      "y": 301,
      "size": 1,
      "price": "4683000000000000000000",
      "reserved": "",
      "salt": "0x688d21ec726311fa89614265adf9403ae21b8686f84f11ccc8c454f25a0feea9",
      "assetIds": [
        "55464657044963196816950587289035428064568320970692304673817341489687656669186",
        "55464657044963196816950587289035428064568320970692304673817341489687665059842",
        "55464657044963196816950587289035428064568320970692304673817341489687665059841"
      ]
    },
    {
      "x": 356,
      "y": 302,
      "size": 1,
      "price": "4683000000000000000000",
      "reserved": "",
      "salt": "0x8ff2e7054f9c64c049eee17d5642c1f822b998581c5883f6942a3ffaefba16b4",
      "assetIds": [
        "55464657044963196816950587289035428064568320970692304673817341489687656669185",
        "55464657044963196816950587289035428064568320970692304673817341489687665059844",
        "55464657044963196816950587289035428064568320970692304673817341489687665059840"
      ]
    },
    {
      "x": 356,
      "y": 303,
      "size": 1,
      "price": "4683000000000000000000",
      "reserved": "",
      "salt": "0x42c789d3a1241b58c07f72cb696440ec1e9a3687cee32f17a45d728a37de9873",
      "assetIds": [
        "55464657044963196816950587289035428064568320970692304673817341489687656669184",
        "55464657044963196816950587289035428064568320970692304673817341489687665059843",
        "55464657044963196816950587289035428064568320970692304673817341489687665059840"
      ]
    },
    {
      "x": 356,
      "y": 304,
      "size": 1,
      "price": "4683000000000000000000",
      "reserved": "",
      "salt": "0x87fad2141d4b940970e9d730b0b8d6d89e0ebb09b2d6b6a1d0b75121f5566189",
      "assetIds": [
        "55464657044963196816950587289035428064568320970692304673817341489687656669184",
        "55464657044963196816950587289035428064568320970692304673817341489687665059842",
        "55464657044963196816950587289035428064568320970692304673817341489687665059840"
      ]
    },
    {
      "x": 356,
      "y": 305,
      "size": 1,
      "price": "4683000000000000000000",
      "reserved": "",
      "salt": "0x13e310f0060a49a71f6fdb2633513483fc4f6a9c1a16088350057247f83335d4",
      "assetIds": [
        "55464657044963196816950587289035428064568320970692304673817341489687656669187",
        "55464657044963196816950587289035428064568320970692304673817341489687665059844",
        "55464657044963196816950587289035428064568320970692304673817341489687665059841"
      ]
    },
    {
      "x": 356,
      "y": 306,
      "size": 1,
      "price": "4683000000000000000000",
      "reserved": "",
      "salt": "0xf89b5bee0220f07e185f74b9466606d4aaf403dc9d09c2af4469ba0155066e11",
      "assetIds": [
        "55464657044963196816950587289035428064568320970692304673817341489687656669187",
        "55464657044963196816950587289035428064568320970692304673817341489687665059842",
        "55464657044963196816950587289035428064568320970692304673817341489687665059841"
      ]
    },
    {
      "x": 356,
      "y": 307,
      "size": 1,
      "price": "4683000000000000000000",
      "reserved": "",
      "salt": "0x9cf260fba9772f6552c51bae8180dab53e5c56ef30c4d50d3b3e36efdc7cec78",
      "assetIds": [
        "55464657044963196816950587289035428064568320970692304673817341489687656669185",
        "55464657044963196816950587289035428064568320970692304673817341489687665059843",
        "55464657044963196816950587289035428064568320970692304673817341489687665059840"
      ]
    },
    {
      "x": 356,
      "y": 308,
      "size": 1,
      "price": "4683000000000000000000",
      "reserved": "",
      "salt": "0x72448e76a33083573976c7f8935100d231794f96b15dc1db64e51c86cef98a30",
      "assetIds": [
        "55464657044963196816950587289035428064568320970692304673817341489687656669184",
        "55464657044963196816950587289035428064568320970692304673817341489687665059844",
        "55464657044963196816950587289035428064568320970692304673817341489687665059840"
      ]
    },
    {
      "x": 356,
      "y": 309,
      "size": 1,
      "price": "4683000000000000000000",
      "reserved": "",
      "salt": "0x7813ab5801ab93ce3ea7730139358590cd736e4d61546c7cbe05adfc8a7c375c",
      "assetIds": [
        "55464657044963196816950587289035428064568320970692304673817341489687656669185",
        "55464657044963196816950587289035428064568320970692304673817341489687665059842",
        "55464657044963196816950587289035428064568320970692304673817341489687665059840"
      ]
    },
    {
      "x": 356,
      "y": 310,
      "size": 1,
      "price": "4683000000000000000000",
      "reserved": "",
      "salt": "0xf5e5f73ea5ab8c60f521a717c96c4393a5234d4f14dc4330770899d992b04a05",
      "assetIds": [
        "55464657044963196816950587289035428064568320970692304673817341489687656669185",
        "55464657044963196816950587289035428064568320970692304673817341489687665059844",
        "55464657044963196816950587289035428064568320970692304673817341489687665059840"
      ]
    },
    {
      "x": 356,
      "y": 311,
      "size": 1,
      "price": "4683000000000000000000",
      "reserved": "",
      "salt": "0x2283c069247e7ee553d3f02d4319b5ad542a23ad9687639a8b2e9d8883a1e0d1",
      "assetIds": [
        "55464657044963196816950587289035428064568320970692304673817341489687656669186",
        "55464657044963196816950587289035428064568320970692304673817341489687665059844",
        "55464657044963196816950587289035428064568320970692304673817341489687665059841"
      ]
    },
    {
      "x": 357,
      "y": 252,
      "size": 1,
      "price": "4683000000000000000000",
      "reserved": "",
      "salt": "0x5a6456d7298f68434fd469313ee7c4b3b7abfcccb01df7d2eeccf3a2b08b4ca0",
      "assetIds": [
        "55464657044963196816950587289035428064568320970692304673817341489687656669184",
        "55464657044963196816950587289035428064568320970692304673817341489687665059842",
        "55464657044963196816950587289035428064568320970692304673817341489687665059840"
      ]
    },
    {
      "x": 357,
      "y": 253,
      "size": 1,
      "price": "4683000000000000000000",
      "reserved": "",
      "salt": "0x7d269f9b3ec5b41496285db0a3fc2ec0f7060d2d604e2705b914f7f715d6167a",
      "assetIds": [
        "55464657044963196816950587289035428064568320970692304673817341489687656669185",
        "55464657044963196816950587289035428064568320970692304673817341489687665059842",
        "55464657044963196816950587289035428064568320970692304673817341489687665059840"
      ]
    },
    {
      "x": 357,
      "y": 254,
      "size": 1,
      "price": "4683000000000000000000",
      "reserved": "",
      "salt": "0xfa7500692d2d827c98b49bb75a1643ac67e541064fa204c689f49f3c4bb44b9f",
      "assetIds": [
        "55464657044963196816950587289035428064568320970692304673817341489687656669184",
        "55464657044963196816950587289035428064568320970692304673817341489687665059842",
        "55464657044963196816950587289035428064568320970692304673817341489687665059840"
      ]
    },
    {
      "x": 357,
      "y": 255,
      "size": 1,
      "price": "4683000000000000000000",
      "reserved": "",
      "salt": "0x39325ba3db97972a7f8086694c971daa1a8fa115c57bcaa26458bbb70a64913a",
      "assetIds": [
        "55464657044963196816950587289035428064568320970692304673817341489687656669187",
        "55464657044963196816950587289035428064568320970692304673817341489687665059844",
        "55464657044963196816950587289035428064568320970692304673817341489687665059841"
      ]
    },
    {
      "x": 357,
      "y": 256,
      "size": 1,
      "price": "4683000000000000000000",
      "reserved": "",
      "salt": "0x56e2b441cd91385f7468d519d1e5325e0e4a12e0b459ffbccd416a6c91d8bc85",
      "assetIds": [
        "55464657044963196816950587289035428064568320970692304673817341489687656669185",
        "55464657044963196816950587289035428064568320970692304673817341489687665059844",
        "55464657044963196816950587289035428064568320970692304673817341489687665059840"
      ]
    },
    {
      "x": 357,
      "y": 257,
      "size": 1,
      "price": "4683000000000000000000",
      "reserved": "",
      "salt": "0xd04fc4c7dcca9d0400916406aad4996fc8cfb020ae7e75af6071c05eb08e58b4",
      "assetIds": [
        "55464657044963196816950587289035428064568320970692304673817341489687656669185",
        "55464657044963196816950587289035428064568320970692304673817341489687665059844",
        "55464657044963196816950587289035428064568320970692304673817341489687665059840"
      ]
    },
    {
      "x": 357,
      "y": 300,
      "size": 1,
      "price": "4683000000000000000000",
      "reserved": "",
      "salt": "0xff1413592ced43035aafd800d68d4b500ab3a8e1617fc344dd6d7c5d7a43eab3",
      "assetIds": [
        "55464657044963196816950587289035428064568320970692304673817341489687656669184",
        "55464657044963196816950587289035428064568320970692304673817341489687665059842",
        "55464657044963196816950587289035428064568320970692304673817341489687665059840"
      ]
    },
    {
      "x": 357,
      "y": 301,
      "size": 1,
      "price": "4683000000000000000000",
      "reserved": "",
      "salt": "0x5c41df412e5f182df987b290ee6af24d426f24ef0a0c085bccd9171fa0cbe7ad",
      "assetIds": [
        "55464657044963196816950587289035428064568320970692304673817341489687656669185",
        "55464657044963196816950587289035428064568320970692304673817341489687665059843",
        "55464657044963196816950587289035428064568320970692304673817341489687665059840"
      ]
    },
    {
      "x": 357,
      "y": 302,
      "size": 1,
      "price": "4683000000000000000000",
      "reserved": "",
      "salt": "0x49d852247f565effb7b1cea780f8ad2438359f088d5a9bd57fb1457b2deccc01",
      "assetIds": [
        "55464657044963196816950587289035428064568320970692304673817341489687656669185",
        "55464657044963196816950587289035428064568320970692304673817341489687665059842",
        "55464657044963196816950587289035428064568320970692304673817341489687665059840"
      ]
    },
    {
      "x": 357,
      "y": 306,
      "size": 1,
      "price": "4683000000000000000000",
      "reserved": "",
      "salt": "0xe93fb073c4aff2a64cf4c2ad25b7ab0f38bad2d4db3aa6727e3bf61951e9976b",
      "assetIds": [
        "55464657044963196816950587289035428064568320970692304673817341489687656669185",
        "55464657044963196816950587289035428064568320970692304673817341489687665059844",
        "55464657044963196816950587289035428064568320970692304673817341489687665059840"
      ]
    },
    {
      "x": 357,
      "y": 307,
      "size": 1,
      "price": "4683000000000000000000",
      "reserved": "",
      "salt": "0x9a64a7ec3680113a5669b5c0746c124dbe2fd45f5cb8493381c47272420e5a66",
      "assetIds": [
        "55464657044963196816950587289035428064568320970692304673817341489687656669186",
        "55464657044963196816950587289035428064568320970692304673817341489687665059842",
        "55464657044963196816950587289035428064568320970692304673817341489687665059841"
      ]
    },
    {
      "x": 357,
      "y": 308,
      "size": 1,
      "price": "4683000000000000000000",
      "reserved": "",
      "salt": "0xd4683763dd746e071eeb79a0bd60f5b94bd64146b16c34bc4e820af0b3e140b8",
      "assetIds": [
        "55464657044963196816950587289035428064568320970692304673817341489687656669184",
        "55464657044963196816950587289035428064568320970692304673817341489687665059843",
        "55464657044963196816950587289035428064568320970692304673817341489687665059840"
      ]
    },
    {
      "x": 358,
      "y": 252,
      "size": 1,
      "price": "4683000000000000000000",
      "reserved": "",
      "salt": "0x973bd5784c84aef76a30f3f94e74f9cfca9afc8edfea6bb7d43893944a8dae98",
      "assetIds": [
        "55464657044963196816950587289035428064568320970692304673817341489687656669185",
        "55464657044963196816950587289035428064568320970692304673817341489687665059844",
        "55464657044963196816950587289035428064568320970692304673817341489687665059840"
      ]
    },
    {
      "x": 358,
      "y": 253,
      "size": 1,
      "price": "4683000000000000000000",
      "reserved": "",
      "salt": "0xc272e84c977a087ccdf50bda23a95f325e9ca1823d8ebaf179ccb662b8a6cbe4",
      "assetIds": [
        "55464657044963196816950587289035428064568320970692304673817341489687656669187",
        "55464657044963196816950587289035428064568320970692304673817341489687665059844",
        "55464657044963196816950587289035428064568320970692304673817341489687665059841"
      ]
    },
    {
      "x": 358,
      "y": 254,
      "size": 1,
      "price": "1011000000000000000000",
      "reserved": "0x7a9fe22691c811ea339d9b73150e6911a5343dca",
      "salt": "0x1ff4fb7cbe1a3fd48df8f84d5c0868cd70f6930676620ad69dafa35021ba6617",
      "assetIds": []
    },
    {
      "x": 358,
      "y": 255,
      "size": 1,
      "price": "4683000000000000000000",
      "reserved": "",
      "salt": "0x2d80347722b4add183a44bd3bec4c037fdba6f514effe179aad72dae0709178d",
      "assetIds": [
        "55464657044963196816950587289035428064568320970692304673817341489687656669187",
        "55464657044963196816950587289035428064568320970692304673817341489687665059842",
        "55464657044963196816950587289035428064568320970692304673817341489687665059841"
      ]
    },
    {
      "x": 358,
      "y": 256,
      "size": 1,
      "price": "4683000000000000000000",
      "reserved": "",
      "salt": "0xe72453227814df14f9510ea5e654c035a10c12607b28a951aeb5386e66d4cac5",
      "assetIds": [
        "55464657044963196816950587289035428064568320970692304673817341489687656669185",
        "55464657044963196816950587289035428064568320970692304673817341489687665059842",
        "55464657044963196816950587289035428064568320970692304673817341489687665059840"
      ]
    },
    {
      "x": 358,
      "y": 257,
      "size": 1,
      "price": "4683000000000000000000",
      "reserved": "",
      "salt": "0xb63756fad92afd55f8a2f80c74a463bd38cf44db1011dc2ee5a7cdc7459e9499",
      "assetIds": [
        "55464657044963196816950587289035428064568320970692304673817341489687656669185",
        "55464657044963196816950587289035428064568320970692304673817341489687665059842",
        "55464657044963196816950587289035428064568320970692304673817341489687665059840"
      ]
    },
    {
      "x": 358,
      "y": 300,
      "size": 1,
      "price": "4683000000000000000000",
      "reserved": "",
      "salt": "0xb6b39355c9e654d095593c3ea4f2182fd3d641a2cd8793cd5ad3cb61f0eb3188",
      "assetIds": [
        "55464657044963196816950587289035428064568320970692304673817341489687656669185",
        "55464657044963196816950587289035428064568320970692304673817341489687665059842",
        "55464657044963196816950587289035428064568320970692304673817341489687665059840"
      ]
    },
    {
      "x": 358,
      "y": 301,
      "size": 1,
      "price": "4683000000000000000000",
      "reserved": "",
      "salt": "0x8e110bc9a2b17399358d91d682fea046553da724ea09928d67d72222fe91cda2",
      "assetIds": [
        "55464657044963196816950587289035428064568320970692304673817341489687656669187",
        "55464657044963196816950587289035428064568320970692304673817341489687665059844",
        "55464657044963196816950587289035428064568320970692304673817341489687665059841"
      ]
    },
    {
      "x": 358,
      "y": 302,
      "size": 1,
      "price": "4683000000000000000000",
      "reserved": "",
      "salt": "0x1b7fe7ae896eebc3113dc34d47db5975759fca263892c4746b4a67e9ce4f7113",
      "assetIds": [
        "55464657044963196816950587289035428064568320970692304673817341489687656669186",
        "55464657044963196816950587289035428064568320970692304673817341489687665059842",
        "55464657044963196816950587289035428064568320970692304673817341489687665059841"
      ]
    },
    {
      "x": 358,
      "y": 306,
      "size": 1,
      "price": "4683000000000000000000",
      "reserved": "",
      "salt": "0xcc2887a744a76930812dc3916a301c975c3e33dd53cfa0783302b5c53466a274",
      "assetIds": [
        "55464657044963196816950587289035428064568320970692304673817341489687656669186",
        "55464657044963196816950587289035428064568320970692304673817341489687665059842",
        "55464657044963196816950587289035428064568320970692304673817341489687665059841"
      ]
    },
    {
      "x": 358,
      "y": 307,
      "size": 1,
      "price": "4683000000000000000000",
      "reserved": "",
      "salt": "0x16a1faa2615a5d2d970f9e0207fdb4465573728deac82e56b49e05521718f830",
      "assetIds": [
        "55464657044963196816950587289035428064568320970692304673817341489687656669187",
        "55464657044963196816950587289035428064568320970692304673817341489687665059842",
        "55464657044963196816950587289035428064568320970692304673817341489687665059841"
      ]
    },
    {
      "x": 358,
      "y": 308,
      "size": 1,
      "price": "4683000000000000000000",
      "reserved": "",
      "salt": "0xb86c19204b2b4c3a994cd9810a6b6a9838e3cc491216015e9a4e6102f4e20b1f",
      "assetIds": [
        "55464657044963196816950587289035428064568320970692304673817341489687656669184",
        "55464657044963196816950587289035428064568320970692304673817341489687665059842",
        "55464657044963196816950587289035428064568320970692304673817341489687665059840"
      ]
    },
    {
      "x": 359,
      "y": 252,
      "size": 1,
      "price": "4683000000000000000000",
      "reserved": "",
      "salt": "0xb8a78d389785f0320a31ab8a8cea460f271faccfa4acd3c59e0575a2e8debc0f",
      "assetIds": [
        "55464657044963196816950587289035428064568320970692304673817341489687656669184",
        "55464657044963196816950587289035428064568320970692304673817341489687665059844",
        "55464657044963196816950587289035428064568320970692304673817341489687665059840"
      ]
    },
    {
      "x": 359,
      "y": 253,
      "size": 1,
      "price": "4683000000000000000000",
      "reserved": "",
      "salt": "0xe24b532cbc8638bfc2fe870c012f58c7d0c8550871cc7806b98aeaf61d43b16b",
      "assetIds": [
        "55464657044963196816950587289035428064568320970692304673817341489687656669187",
        "55464657044963196816950587289035428064568320970692304673817341489687665059844",
        "55464657044963196816950587289035428064568320970692304673817341489687665059841"
      ]
    },
    {
      "x": 359,
      "y": 254,
      "size": 1,
      "price": "4683000000000000000000",
      "reserved": "",
      "salt": "0xe64510e5e8a752f11ec34c43953362a8209c0e9f2edb7506f756fd808da4e758",
      "assetIds": [
        "55464657044963196816950587289035428064568320970692304673817341489687656669184",
        "55464657044963196816950587289035428064568320970692304673817341489687665059842",
        "55464657044963196816950587289035428064568320970692304673817341489687665059840"
      ]
    },
    {
      "x": 359,
      "y": 255,
      "size": 1,
      "price": "4683000000000000000000",
      "reserved": "",
      "salt": "0x74b9dce4aae019154379577d68dab354595da783794f8438ca21c1bfa58a927b",
      "assetIds": [
        "55464657044963196816950587289035428064568320970692304673817341489687656669187",
        "55464657044963196816950587289035428064568320970692304673817341489687665059843",
        "55464657044963196816950587289035428064568320970692304673817341489687665059841"
      ]
    },
    {
      "x": 359,
      "y": 256,
      "size": 1,
      "price": "4683000000000000000000",
      "reserved": "",
      "salt": "0x28f374c84622641bd2914ef3b144e376021ce2cdddcabe084849954cf1c94643",
      "assetIds": [
        "55464657044963196816950587289035428064568320970692304673817341489687656669185",
        "55464657044963196816950587289035428064568320970692304673817341489687665059843",
        "55464657044963196816950587289035428064568320970692304673817341489687665059840"
      ]
    },
    {
      "x": 359,
      "y": 257,
      "size": 1,
      "price": "4683000000000000000000",
      "reserved": "",
      "salt": "0x10572d0e898c91a3a85dbc3b446f33c97ba762c6ccbe1546dd3445b89d04de59",
      "assetIds": [
        "55464657044963196816950587289035428064568320970692304673817341489687656669184",
        "55464657044963196816950587289035428064568320970692304673817341489687665059842",
        "55464657044963196816950587289035428064568320970692304673817341489687665059840"
      ]
    },
    {
      "x": 359,
      "y": 300,
      "size": 1,
      "price": "4683000000000000000000",
      "reserved": "",
      "salt": "0x68128cafc85cadeda4f2ff9956784280ce2eaabaf27e4f911489c3fda0dc4d9a",
      "assetIds": [
        "55464657044963196816950587289035428064568320970692304673817341489687656669186",
        "55464657044963196816950587289035428064568320970692304673817341489687665059844",
        "55464657044963196816950587289035428064568320970692304673817341489687665059841"
      ]
    },
    {
      "x": 359,
      "y": 301,
      "size": 1,
      "price": "4683000000000000000000",
      "reserved": "",
      "salt": "0xaf6a9af48908d7d770fb6488179bf93774c8859ab363c210746a5426fdd1a5bd",
      "assetIds": [
        "55464657044963196816950587289035428064568320970692304673817341489687656669186",
        "55464657044963196816950587289035428064568320970692304673817341489687665059842",
        "55464657044963196816950587289035428064568320970692304673817341489687665059841"
      ]
    },
    {
      "x": 359,
      "y": 302,
      "size": 1,
      "price": "4683000000000000000000",
      "reserved": "",
      "salt": "0xe27e652b8ec92a28146e17b91806ffdcaa9a35a8b4f154852d1bc90d6f1b1a83",
      "assetIds": [
        "55464657044963196816950587289035428064568320970692304673817341489687656669184",
        "55464657044963196816950587289035428064568320970692304673817341489687665059844",
        "55464657044963196816950587289035428064568320970692304673817341489687665059840"
      ]
    },
    {
      "x": 359,
      "y": 306,
      "size": 1,
      "price": "4683000000000000000000",
      "reserved": "",
      "salt": "0xa04b15ea16c9df74f8983e6556582d086d36a7d1774b87543b55ec813aa0cb72",
      "assetIds": [
        "55464657044963196816950587289035428064568320970692304673817341489687656669185",
        "55464657044963196816950587289035428064568320970692304673817341489687665059844",
        "55464657044963196816950587289035428064568320970692304673817341489687665059840"
      ]
    },
    {
      "x": 359,
      "y": 307,
      "size": 1,
      "price": "4683000000000000000000",
      "reserved": "",
      "salt": "0x48c9560f2ada4a5ef2743b4bd4009273a2062f3dbd8fe18186554a425e92448a",
      "assetIds": [
        "55464657044963196816950587289035428064568320970692304673817341489687656669187",
        "55464657044963196816950587289035428064568320970692304673817341489687665059842",
        "55464657044963196816950587289035428064568320970692304673817341489687665059841"
      ]
    },
    {
      "x": 359,
      "y": 308,
      "size": 1,
      "price": "4683000000000000000000",
      "reserved": "",
      "salt": "0x236799302db0b592456a7bd9a531c400c23202b5af0c8a56c06772be51a82f9e",
      "assetIds": [
        "55464657044963196816950587289035428064568320970692304673817341489687656669186",
        "55464657044963196816950587289035428064568320970692304673817341489687665059843",
        "55464657044963196816950587289035428064568320970692304673817341489687665059841"
      ]
    },
    {
      "x": 360,
      "y": 270,
      "size": 1,
      "price": "4683000000000000000000",
      "reserved": "",
      "salt": "0xe0cbcd0e7b9dde64ec5792914893221588944e17f0fb3720c0824a5c08567517",
      "assetIds": [
        "55464657044963196816950587289035428064568320970692304673817341489687656669187",
        "55464657044963196816950587289035428064568320970692304673817341489687665059842",
        "55464657044963196816950587289035428064568320970692304673817341489687665059841"
      ]
    },
    {
      "x": 360,
      "y": 271,
      "size": 1,
      "price": "4683000000000000000000",
      "reserved": "",
      "salt": "0x50f83da0644bdc942fa15065dec35dae295ab335d85f9386602565ad69ad2c5c",
      "assetIds": [
        "55464657044963196816950587289035428064568320970692304673817341489687656669187",
        "55464657044963196816950587289035428064568320970692304673817341489687665059844",
        "55464657044963196816950587289035428064568320970692304673817341489687665059841"
      ]
    },
    {
      "x": 360,
      "y": 272,
      "size": 1,
      "price": "4683000000000000000000",
      "reserved": "",
      "salt": "0x180f412163b363844d69023a5b2f66209d569b98688e3e6a730912ecb722bfd6",
      "assetIds": [
        "55464657044963196816950587289035428064568320970692304673817341489687656669185",
        "55464657044963196816950587289035428064568320970692304673817341489687665059843",
        "55464657044963196816950587289035428064568320970692304673817341489687665059840"
      ]
    },
    {
      "x": 360,
      "y": 288,
      "size": 1,
      "price": "4683000000000000000000",
      "reserved": "",
      "salt": "0xf66ab123068dd353eb8e44ba954de4c5784c6a110d5689375698fb99718101fe",
      "assetIds": [
        "55464657044963196816950587289035428064568320970692304673817341489687656669187",
        "55464657044963196816950587289035428064568320970692304673817341489687665059844",
        "55464657044963196816950587289035428064568320970692304673817341489687665059841"
      ]
    },
    {
      "x": 360,
      "y": 289,
      "size": 1,
      "price": "4683000000000000000000",
      "reserved": "",
      "salt": "0x23a8bc952851e6d19238b9ec56bb8ad8e10b3bba99047fc64f63fccad1557a50",
      "assetIds": [
        "55464657044963196816950587289035428064568320970692304673817341489687656669185",
        "55464657044963196816950587289035428064568320970692304673817341489687665059842",
        "55464657044963196816950587289035428064568320970692304673817341489687665059840"
      ]
    },
    {
      "x": 360,
      "y": 290,
      "size": 1,
      "price": "4683000000000000000000",
      "reserved": "",
      "salt": "0x507f1e37b4f2defc3b6469f98d476f0c5f230715e1b572df3367eabd213b3487",
      "assetIds": [
        "55464657044963196816950587289035428064568320970692304673817341489687656669185",
        "55464657044963196816950587289035428064568320970692304673817341489687665059843",
        "55464657044963196816950587289035428064568320970692304673817341489687665059840"
      ]
    },
    {
      "x": 360,
      "y": 291,
      "size": 1,
      "price": "4683000000000000000000",
      "reserved": "",
      "salt": "0x1fc5a156676299e1be81c8329f6913600d90d98ee02ee8ae4b2dcf8dec67c549",
      "assetIds": [
        "55464657044963196816950587289035428064568320970692304673817341489687656669187",
        "55464657044963196816950587289035428064568320970692304673817341489687665059843",
        "55464657044963196816950587289035428064568320970692304673817341489687665059841"
      ]
    },
    {
      "x": 360,
      "y": 292,
      "size": 1,
      "price": "4683000000000000000000",
      "reserved": "",
      "salt": "0xcc3870b3384e133d9b30febc3bb407a453b98f370a0e2bcaa959ee8dd47278f5",
      "assetIds": [
        "55464657044963196816950587289035428064568320970692304673817341489687656669187",
        "55464657044963196816950587289035428064568320970692304673817341489687665059842",
        "55464657044963196816950587289035428064568320970692304673817341489687665059841"
      ]
    },
    {
      "x": 360,
      "y": 293,
      "size": 1,
      "price": "4683000000000000000000",
      "reserved": "",
      "salt": "0xf490692e6c7ba60947a4dc5f4bf8ff92fe8d28267d594e1b13c5159da47d84b5",
      "assetIds": [
        "55464657044963196816950587289035428064568320970692304673817341489687656669187",
        "55464657044963196816950587289035428064568320970692304673817341489687665059844",
        "55464657044963196816950587289035428064568320970692304673817341489687665059841"
      ]
    },
    {
      "x": 360,
      "y": 297,
      "size": 1,
      "price": "4683000000000000000000",
      "reserved": "",
      "salt": "0x91cae8061f87bd1619c3cd247356da7fe87c0d09f1d34e95220bfd9b01c41c7a",
      "assetIds": [
        "55464657044963196816950587289035428064568320970692304673817341489687656669187",
        "55464657044963196816950587289035428064568320970692304673817341489687665059843",
        "55464657044963196816950587289035428064568320970692304673817341489687665059841"
      ]
    },
    {
      "x": 360,
      "y": 298,
      "size": 1,
      "price": "4683000000000000000000",
      "reserved": "",
      "salt": "0x13c7115423c4edce5d5b7bb607deb0a6304115812ad86f2e7d6bdd74f6948813",
      "assetIds": [
        "55464657044963196816950587289035428064568320970692304673817341489687656669184",
        "55464657044963196816950587289035428064568320970692304673817341489687665059843",
        "55464657044963196816950587289035428064568320970692304673817341489687665059840"
      ]
    },
    {
      "x": 360,
      "y": 299,
      "size": 1,
      "price": "4683000000000000000000",
      "reserved": "",
      "salt": "0xd6dff80b885e1f4b4c4b6c16607fb9b32f4b006e5bd06ce1b120c1b1cd445ad7",
      "assetIds": [
        "55464657044963196816950587289035428064568320970692304673817341489687656669184",
        "55464657044963196816950587289035428064568320970692304673817341489687665059844",
        "55464657044963196816950587289035428064568320970692304673817341489687665059840"
      ]
    },
    {
      "x": 360,
      "y": 300,
      "size": 1,
      "price": "4683000000000000000000",
      "reserved": "",
      "salt": "0x9e963662a7d4b30c2902ce4e5c968fe197591e2561bcaf47e608c4bc55fd4a96",
      "assetIds": [
        "55464657044963196816950587289035428064568320970692304673817341489687656669184",
        "55464657044963196816950587289035428064568320970692304673817341489687665059842",
        "55464657044963196816950587289035428064568320970692304673817341489687665059840"
      ]
    },
    {
      "x": 360,
      "y": 301,
      "size": 1,
      "price": "4683000000000000000000",
      "reserved": "",
      "salt": "0x9e53bd03a4ced90c342a9aae584bc6d4d06f5e5dfb99e770e8eaaa5eb9ecb06d",
      "assetIds": [
        "55464657044963196816950587289035428064568320970692304673817341489687656669184",
        "55464657044963196816950587289035428064568320970692304673817341489687665059843",
        "55464657044963196816950587289035428064568320970692304673817341489687665059840"
      ]
    },
    {
      "x": 360,
      "y": 302,
      "size": 1,
      "price": "4683000000000000000000",
      "reserved": "",
      "salt": "0x0ac07e1353b431e356f8c39fba149f99234ced75955ce4fcd5c4d66f229c05b0",
      "assetIds": [
        "55464657044963196816950587289035428064568320970692304673817341489687656669185",
        "55464657044963196816950587289035428064568320970692304673817341489687665059843",
        "55464657044963196816950587289035428064568320970692304673817341489687665059840"
      ]
    },
    {
      "x": 360,
      "y": 303,
      "size": 1,
      "price": "4683000000000000000000",
      "reserved": "",
      "salt": "0x538081a6125dbe2244013766f43d7d7d5bec14d706108eba2431bacbe6600bcb",
      "assetIds": [
        "55464657044963196816950587289035428064568320970692304673817341489687656669186",
        "55464657044963196816950587289035428064568320970692304673817341489687665059843",
        "55464657044963196816950587289035428064568320970692304673817341489687665059841"
      ]
    },
    {
      "x": 360,
      "y": 304,
      "size": 1,
      "price": "4683000000000000000000",
      "reserved": "",
      "salt": "0x31572f361995b5dc2e89bd3c08766ad19de2520e245f13b1673c318cbdaaaba1",
      "assetIds": [
        "55464657044963196816950587289035428064568320970692304673817341489687656669185",
        "55464657044963196816950587289035428064568320970692304673817341489687665059843",
        "55464657044963196816950587289035428064568320970692304673817341489687665059840"
      ]
    },
    {
      "x": 360,
      "y": 305,
      "size": 1,
      "price": "4683000000000000000000",
      "reserved": "",
      "salt": "0x3417391fdfbdbe2ce51371dd9d6e3b60acfd74a1cb3ad7f7d855aa55e6331289",
      "assetIds": [
        "55464657044963196816950587289035428064568320970692304673817341489687656669185",
        "55464657044963196816950587289035428064568320970692304673817341489687665059844",
        "55464657044963196816950587289035428064568320970692304673817341489687665059840"
      ]
    },
    {
      "x": 360,
      "y": 306,
      "size": 1,
      "price": "4683000000000000000000",
      "reserved": "",
      "salt": "0x292582a5d0bd995f2c15393ca80093d9cc361e2afa2135e7a404192be60435b1",
      "assetIds": [
        "55464657044963196816950587289035428064568320970692304673817341489687656669186",
        "55464657044963196816950587289035428064568320970692304673817341489687665059843",
        "55464657044963196816950587289035428064568320970692304673817341489687665059841"
      ]
    },
    {
      "x": 360,
      "y": 307,
      "size": 1,
      "price": "4683000000000000000000",
      "reserved": "",
      "salt": "0xc6cbf82a9333d7a56e606cca3c9475366644ddac168beec977d71c67f0a02343",
      "assetIds": [
        "55464657044963196816950587289035428064568320970692304673817341489687656669184",
        "55464657044963196816950587289035428064568320970692304673817341489687665059842",
        "55464657044963196816950587289035428064568320970692304673817341489687665059840"
      ]
    },
    {
      "x": 360,
      "y": 308,
      "size": 1,
      "price": "4683000000000000000000",
      "reserved": "",
      "salt": "0x1737d716cdeaec8d5a09f7eb361b09a2693d40d28657a75fba6fcc6b6f221d88",
      "assetIds": [
        "55464657044963196816950587289035428064568320970692304673817341489687656669184",
        "55464657044963196816950587289035428064568320970692304673817341489687665059844",
        "55464657044963196816950587289035428064568320970692304673817341489687665059840"
      ]
    },
    {
      "x": 361,
      "y": 270,
      "size": 1,
      "price": "4683000000000000000000",
      "reserved": "",
      "salt": "0x007e7003f46fb0c81f07fcf6f91b5d32fbd5f033fb3aec464c2d923b8aa6e67a",
      "assetIds": [
        "55464657044963196816950587289035428064568320970692304673817341489687656669187",
        "55464657044963196816950587289035428064568320970692304673817341489687665059842",
        "55464657044963196816950587289035428064568320970692304673817341489687665059841"
      ]
    },
    {
      "x": 361,
      "y": 271,
      "size": 1,
      "price": "4683000000000000000000",
      "reserved": "",
      "salt": "0xbbd85989737797d79b06991e2a6023d387cb65765ec56a4032849e63817b7086",
      "assetIds": [
        "55464657044963196816950587289035428064568320970692304673817341489687656669185",
        "55464657044963196816950587289035428064568320970692304673817341489687665059843",
        "55464657044963196816950587289035428064568320970692304673817341489687665059840"
      ]
    },
    {
      "x": 361,
      "y": 272,
      "size": 1,
      "price": "4683000000000000000000",
      "reserved": "",
      "salt": "0x071b63626f8f79900f965ce5303351bfa033facb574e7c2da4db19df12415ac1",
      "assetIds": [
        "55464657044963196816950587289035428064568320970692304673817341489687656669186",
        "55464657044963196816950587289035428064568320970692304673817341489687665059842",
        "55464657044963196816950587289035428064568320970692304673817341489687665059841"
      ]
    },
    {
      "x": 361,
      "y": 288,
      "size": 1,
      "price": "4683000000000000000000",
      "reserved": "",
      "salt": "0xae3cef80b153d2cc61cf1b42eb325463b41b9235b092ba29ef657ef541c61e6f",
      "assetIds": [
        "55464657044963196816950587289035428064568320970692304673817341489687656669187",
        "55464657044963196816950587289035428064568320970692304673817341489687665059842",
        "55464657044963196816950587289035428064568320970692304673817341489687665059841"
      ]
    },
    {
      "x": 361,
      "y": 289,
      "size": 1,
      "price": "4683000000000000000000",
      "reserved": "",
      "salt": "0x4b449600a7d4980cab99f17165e349cd6d86b4beb210e701b5f2d8548df79de7",
      "assetIds": [
        "55464657044963196816950587289035428064568320970692304673817341489687656669184",
        "55464657044963196816950587289035428064568320970692304673817341489687665059843",
        "55464657044963196816950587289035428064568320970692304673817341489687665059840"
      ]
    },
    {
      "x": 361,
      "y": 290,
      "size": 1,
      "price": "4683000000000000000000",
      "reserved": "",
      "salt": "0xbab576f9a9905815ae17ded395fdd450aeb3e2622237691c50aa78d89d768e24",
      "assetIds": [
        "55464657044963196816950587289035428064568320970692304673817341489687656669185",
        "55464657044963196816950587289035428064568320970692304673817341489687665059842",
        "55464657044963196816950587289035428064568320970692304673817341489687665059840"
      ]
    },
    {
      "x": 361,
      "y": 291,
      "size": 1,
      "price": "4683000000000000000000",
      "reserved": "",
      "salt": "0x25f6201366c14f6ce67e8d929e4eab5b7f97387934a788447d0402d9cace0741",
      "assetIds": [
        "55464657044963196816950587289035428064568320970692304673817341489687656669186",
        "55464657044963196816950587289035428064568320970692304673817341489687665059844",
        "55464657044963196816950587289035428064568320970692304673817341489687665059841"
      ]
    },
    {
      "x": 361,
      "y": 292,
      "size": 1,
      "price": "4683000000000000000000",
      "reserved": "",
      "salt": "0x3a2f1b3f1fe16160a422f935af6b54bd4666c6bdfcdd7f742e454bb24403f9f3",
      "assetIds": [
        "55464657044963196816950587289035428064568320970692304673817341489687656669186",
        "55464657044963196816950587289035428064568320970692304673817341489687665059842",
        "55464657044963196816950587289035428064568320970692304673817341489687665059841"
      ]
    },
    {
      "x": 361,
      "y": 293,
      "size": 1,
      "price": "4683000000000000000000",
      "reserved": "",
      "salt": "0xe80756be35e0b059e27d0dc540c3b13b617f4884435b685e29bfdcdeb5e03e73",
      "assetIds": [
        "55464657044963196816950587289035428064568320970692304673817341489687656669186",
        "55464657044963196816950587289035428064568320970692304673817341489687665059844",
        "55464657044963196816950587289035428064568320970692304673817341489687665059841"
      ]
    },
    {
      "x": 361,
      "y": 297,
      "size": 1,
      "price": "4683000000000000000000",
      "reserved": "",
      "salt": "0x1a6bceffa41ac2261fb8292baa7a067ec90070ccc9231decc7c6e20958fc99bc",
      "assetIds": [
        "55464657044963196816950587289035428064568320970692304673817341489687656669185",
        "55464657044963196816950587289035428064568320970692304673817341489687665059843",
        "55464657044963196816950587289035428064568320970692304673817341489687665059840"
      ]
    },
    {
      "x": 361,
      "y": 298,
      "size": 1,
      "price": "4683000000000000000000",
      "reserved": "",
      "salt": "0x5af964a5b37a299acdbaafba417bc324edfe77875ad8f4dde2d2706eddbf2766",
      "assetIds": [
        "55464657044963196816950587289035428064568320970692304673817341489687656669184",
        "55464657044963196816950587289035428064568320970692304673817341489687665059843",
        "55464657044963196816950587289035428064568320970692304673817341489687665059840"
      ]
    },
    {
      "x": 361,
      "y": 299,
      "size": 1,
      "price": "4683000000000000000000",
      "reserved": "",
      "salt": "0x917fee04f6e3ff74c22e5d64cf66d327f3dbf2c92f5cf9474ed40484bae814e3",
      "assetIds": [
        "55464657044963196816950587289035428064568320970692304673817341489687656669184",
        "55464657044963196816950587289035428064568320970692304673817341489687665059842",
        "55464657044963196816950587289035428064568320970692304673817341489687665059840"
      ]
    },
    {
      "x": 361,
      "y": 300,
      "size": 1,
      "price": "4683000000000000000000",
      "reserved": "",
      "salt": "0xde6bb2c07069fdf06b21e716750214bfe8a463ac3e62766f9bcae0c2c4a1ba62",
      "assetIds": [
        "55464657044963196816950587289035428064568320970692304673817341489687656669187",
        "55464657044963196816950587289035428064568320970692304673817341489687665059843",
        "55464657044963196816950587289035428064568320970692304673817341489687665059841"
      ]
    },
    {
      "x": 361,
      "y": 301,
      "size": 1,
      "price": "4683000000000000000000",
      "reserved": "",
      "salt": "0x4eedebf55f27843a87eb39b232472f8640cab8b6d17129c5150c9330e6f0d23d",
      "assetIds": [
        "55464657044963196816950587289035428064568320970692304673817341489687656669184",
        "55464657044963196816950587289035428064568320970692304673817341489687665059844",
        "55464657044963196816950587289035428064568320970692304673817341489687665059840"
      ]
    },
    {
      "x": 361,
      "y": 302,
      "size": 1,
      "price": "4683000000000000000000",
      "reserved": "",
      "salt": "0x24df9e75d21f86fae275f86b53dcffaa75b8c737b395748813a00d856691df82",
      "assetIds": [
        "55464657044963196816950587289035428064568320970692304673817341489687656669185",
        "55464657044963196816950587289035428064568320970692304673817341489687665059842",
        "55464657044963196816950587289035428064568320970692304673817341489687665059840"
      ]
    },
    {
      "x": 361,
      "y": 303,
      "size": 1,
      "price": "4683000000000000000000",
      "reserved": "",
      "salt": "0x2ed7f43c520d497c2d55008057e227dd9ae8e25010a574019964dffed96688a4",
      "assetIds": [
        "55464657044963196816950587289035428064568320970692304673817341489687656669187",
        "55464657044963196816950587289035428064568320970692304673817341489687665059842",
        "55464657044963196816950587289035428064568320970692304673817341489687665059841"
      ]
    },
    {
      "x": 361,
      "y": 304,
      "size": 1,
      "price": "4683000000000000000000",
      "reserved": "",
      "salt": "0xd2bb0e0f0b86e7ee880152997dafbfbca98b7e7658ad11ba7041cd56b1a30e07",
      "assetIds": [
        "55464657044963196816950587289035428064568320970692304673817341489687656669186",
        "55464657044963196816950587289035428064568320970692304673817341489687665059844",
        "55464657044963196816950587289035428064568320970692304673817341489687665059841"
      ]
    },
    {
      "x": 361,
      "y": 305,
      "size": 1,
      "price": "4683000000000000000000",
      "reserved": "",
      "salt": "0xbcf3a43abdfef200a7682350f0698f390cdbef9c30343124a88d61ef484930a4",
      "assetIds": [
        "55464657044963196816950587289035428064568320970692304673817341489687656669184",
        "55464657044963196816950587289035428064568320970692304673817341489687665059844",
        "55464657044963196816950587289035428064568320970692304673817341489687665059840"
      ]
    },
    {
      "x": 361,
      "y": 306,
      "size": 1,
      "price": "4683000000000000000000",
      "reserved": "",
      "salt": "0xbace14ef36b39a4dbdc09df698b7a6902fd80796389d54d0f90d97ac0c35ebf4",
      "assetIds": [
        "55464657044963196816950587289035428064568320970692304673817341489687656669187",
        "55464657044963196816950587289035428064568320970692304673817341489687665059842",
        "55464657044963196816950587289035428064568320970692304673817341489687665059841"
      ]
    },
    {
      "x": 361,
      "y": 307,
      "size": 1,
      "price": "4683000000000000000000",
      "reserved": "",
      "salt": "0x9a52e81413c1076c7d656287b4b90ab7b4e5c28488f8a95e18cdd8a971c8d65b",
      "assetIds": [
        "55464657044963196816950587289035428064568320970692304673817341489687656669184",
        "55464657044963196816950587289035428064568320970692304673817341489687665059844",
        "55464657044963196816950587289035428064568320970692304673817341489687665059840"
      ]
    },
    {
      "x": 361,
      "y": 308,
      "size": 1,
      "price": "4683000000000000000000",
      "reserved": "",
      "salt": "0xdc3a68291bab9553ddad7748e6cb1bb9f6ffdb502082b1022ca7096c01a3e2cb",
      "assetIds": [
        "55464657044963196816950587289035428064568320970692304673817341489687656669184",
        "55464657044963196816950587289035428064568320970692304673817341489687665059843",
        "55464657044963196816950587289035428064568320970692304673817341489687665059840"
      ]
    },
    {
      "x": 362,
      "y": 270,
      "size": 1,
      "price": "4683000000000000000000",
      "reserved": "",
      "salt": "0x84eebdd2c3667fe54d751488c9fd5b7eba5b44c5cc5227bd63fc228348ba22c5",
      "assetIds": [
        "55464657044963196816950587289035428064568320970692304673817341489687656669184",
        "55464657044963196816950587289035428064568320970692304673817341489687665059842",
        "55464657044963196816950587289035428064568320970692304673817341489687665059840"
      ]
    },
    {
      "x": 362,
      "y": 271,
      "size": 1,
      "price": "4683000000000000000000",
      "reserved": "",
      "salt": "0x2e2b6fc7a5a7f0b6df69bbc5afef6cf91d55eaac298b1a61b2b7337ca5ef3292",
      "assetIds": [
        "55464657044963196816950587289035428064568320970692304673817341489687656669185",
        "55464657044963196816950587289035428064568320970692304673817341489687665059842",
        "55464657044963196816950587289035428064568320970692304673817341489687665059840"
      ]
    },
    {
      "x": 362,
      "y": 272,
      "size": 1,
      "price": "4683000000000000000000",
      "reserved": "",
      "salt": "0xc3be55b11558c47eb571766477a6a0b7ea131d8dc5ecd6fede50d08ef2d8dad2",
      "assetIds": [
        "55464657044963196816950587289035428064568320970692304673817341489687656669184",
        "55464657044963196816950587289035428064568320970692304673817341489687665059842",
        "55464657044963196816950587289035428064568320970692304673817341489687665059840"
      ]
    },
    {
      "x": 362,
      "y": 288,
      "size": 1,
      "price": "4683000000000000000000",
      "reserved": "",
      "salt": "0x8bda8a5a4e983054f362d0a645702b270a6636a974643893b297f8f7b875754d",
      "assetIds": [
        "55464657044963196816950587289035428064568320970692304673817341489687656669184",
        "55464657044963196816950587289035428064568320970692304673817341489687665059842",
        "55464657044963196816950587289035428064568320970692304673817341489687665059840"
      ]
    },
    {
      "x": 362,
      "y": 289,
      "size": 1,
      "price": "4683000000000000000000",
      "reserved": "",
      "salt": "0x72e96f2afe4b48ed79ce04dd933a03eb6a002b18586cd5f37bbbb8b36d1c4282",
      "assetIds": [
        "55464657044963196816950587289035428064568320970692304673817341489687656669184",
        "55464657044963196816950587289035428064568320970692304673817341489687665059842",
        "55464657044963196816950587289035428064568320970692304673817341489687665059840"
      ]
    },
    {
      "x": 362,
      "y": 290,
      "size": 1,
      "price": "4683000000000000000000",
      "reserved": "",
      "salt": "0x8d79747e0f3c9517e5e4ed903f0dcc1e480ccda0272ce870897c2a5f18d2d30a",
      "assetIds": [
        "55464657044963196816950587289035428064568320970692304673817341489687656669186",
        "55464657044963196816950587289035428064568320970692304673817341489687665059843",
        "55464657044963196816950587289035428064568320970692304673817341489687665059841"
      ]
    },
    {
      "x": 362,
      "y": 291,
      "size": 1,
      "price": "4683000000000000000000",
      "reserved": "",
      "salt": "0xe0b5bae47322bd97e7d5dfebd9bed4a253c5b420adb1d33439602708656e7539",
      "assetIds": [
        "55464657044963196816950587289035428064568320970692304673817341489687656669186",
        "55464657044963196816950587289035428064568320970692304673817341489687665059844",
        "55464657044963196816950587289035428064568320970692304673817341489687665059841"
      ]
    },
    {
      "x": 362,
      "y": 292,
      "size": 1,
      "price": "4683000000000000000000",
      "reserved": "",
      "salt": "0xc90109df1aad101537db23b07a01fb0f07849503e02369ac881ae823edb17aca",
      "assetIds": [
        "55464657044963196816950587289035428064568320970692304673817341489687656669185",
        "55464657044963196816950587289035428064568320970692304673817341489687665059844",
        "55464657044963196816950587289035428064568320970692304673817341489687665059840"
      ]
    },
    {
      "x": 362,
      "y": 293,
      "size": 1,
      "price": "4683000000000000000000",
      "reserved": "",
      "salt": "0xbc170cc8c5ee32e1b59c53b28884d8ff56f206f42e91d0923621ceecefc0315a",
      "assetIds": [
        "55464657044963196816950587289035428064568320970692304673817341489687656669184",
        "55464657044963196816950587289035428064568320970692304673817341489687665059843",
        "55464657044963196816950587289035428064568320970692304673817341489687665059840"
      ]
    },
    {
      "x": 362,
      "y": 297,
      "size": 1,
      "price": "4683000000000000000000",
      "reserved": "",
      "salt": "0xfd9c928389a1b0ec96909a8db8a1e8ac4cd49066871cc87d2ab497b45fa97a8d",
      "assetIds": [
        "55464657044963196816950587289035428064568320970692304673817341489687656669187",
        "55464657044963196816950587289035428064568320970692304673817341489687665059843",
        "55464657044963196816950587289035428064568320970692304673817341489687665059841"
      ]
    },
    {
      "x": 362,
      "y": 298,
      "size": 1,
      "price": "4683000000000000000000",
      "reserved": "",
      "salt": "0xcb2cdfe3a58291617d0351b2f6edd57a590f3d609ed21c6d2ca042fa1c84c4d2",
      "assetIds": [
        "55464657044963196816950587289035428064568320970692304673817341489687656669185",
        "55464657044963196816950587289035428064568320970692304673817341489687665059842",
        "55464657044963196816950587289035428064568320970692304673817341489687665059840"
      ]
    },
    {
      "x": 362,
      "y": 299,
      "size": 1,
      "price": "4683000000000000000000",
      "reserved": "",
      "salt": "0xfa48d459ab6e8f487816940023a9db8c2a4e657eea5dbde6748edd970946cef3",
      "assetIds": [
        "55464657044963196816950587289035428064568320970692304673817341489687656669187",
        "55464657044963196816950587289035428064568320970692304673817341489687665059844",
        "55464657044963196816950587289035428064568320970692304673817341489687665059841"
      ]
    },
    {
      "x": 362,
      "y": 300,
      "size": 1,
      "price": "4683000000000000000000",
      "reserved": "",
      "salt": "0x08092d69ee0fc0e703958d692a01a6202f9d831c98fdb6e2522fb680302ecb27",
      "assetIds": [
        "55464657044963196816950587289035428064568320970692304673817341489687656669185",
        "55464657044963196816950587289035428064568320970692304673817341489687665059844",
        "55464657044963196816950587289035428064568320970692304673817341489687665059840"
      ]
    },
    {
      "x": 362,
      "y": 301,
      "size": 1,
      "price": "4683000000000000000000",
      "reserved": "",
      "salt": "0xec5af5682ff69eb319a2c3461d27476e96daf00767794d3fc9e3a368a702e6e6",
      "assetIds": [
        "55464657044963196816950587289035428064568320970692304673817341489687656669184",
        "55464657044963196816950587289035428064568320970692304673817341489687665059844",
        "55464657044963196816950587289035428064568320970692304673817341489687665059840"
      ]
    },
    {
      "x": 362,
      "y": 302,
      "size": 1,
      "price": "4683000000000000000000",
      "reserved": "",
      "salt": "0x9d837fc1e72683832b156edf1f8684dea711c1d31622ca5733641866530cfc54",
      "assetIds": [
        "55464657044963196816950587289035428064568320970692304673817341489687656669185",
        "55464657044963196816950587289035428064568320970692304673817341489687665059842",
        "55464657044963196816950587289035428064568320970692304673817341489687665059840"
      ]
    },
    {
      "x": 362,
      "y": 303,
      "size": 1,
      "price": "4683000000000000000000",
      "reserved": "",
      "salt": "0x9a2fa3eed663d49d1be96774915981cceb43cd18841b97f9a7fbab4261af642b",
      "assetIds": [
        "55464657044963196816950587289035428064568320970692304673817341489687656669186",
        "55464657044963196816950587289035428064568320970692304673817341489687665059842",
        "55464657044963196816950587289035428064568320970692304673817341489687665059841"
      ]
    },
    {
      "x": 362,
      "y": 304,
      "size": 1,
      "price": "4683000000000000000000",
      "reserved": "",
      "salt": "0xed2af54e35df7ccffdbaaeae0497a9c47a154d02dc5f00ed896d2ae5a00c787c",
      "assetIds": [
        "55464657044963196816950587289035428064568320970692304673817341489687656669185",
        "55464657044963196816950587289035428064568320970692304673817341489687665059843",
        "55464657044963196816950587289035428064568320970692304673817341489687665059840"
      ]
    },
    {
      "x": 362,
      "y": 305,
      "size": 1,
      "price": "4683000000000000000000",
      "reserved": "",
      "salt": "0x58a9ae0ab31ffad68b3fb683c58dce18d83bed3e6539e6cadb50073b48e4fe25",
      "assetIds": [
        "55464657044963196816950587289035428064568320970692304673817341489687656669187",
        "55464657044963196816950587289035428064568320970692304673817341489687665059842",
        "55464657044963196816950587289035428064568320970692304673817341489687665059841"
      ]
    },
    {
      "x": 362,
      "y": 306,
      "size": 1,
      "price": "4683000000000000000000",
      "reserved": "",
      "salt": "0x834c7ac02777e17aa22e6e6c766e665e04e742e3e6b3f51df71b7f09e4c13f90",
      "assetIds": [
        "55464657044963196816950587289035428064568320970692304673817341489687656669186",
        "55464657044963196816950587289035428064568320970692304673817341489687665059843",
        "55464657044963196816950587289035428064568320970692304673817341489687665059841"
      ]
    },
    {
      "x": 362,
      "y": 307,
      "size": 1,
      "price": "4683000000000000000000",
      "reserved": "",
      "salt": "0x8a866adaf9903e5838b25a4b24df951ab57098f264fb79297e1d1d5be675dd1c",
      "assetIds": [
        "55464657044963196816950587289035428064568320970692304673817341489687656669185",
        "55464657044963196816950587289035428064568320970692304673817341489687665059843",
        "55464657044963196816950587289035428064568320970692304673817341489687665059840"
      ]
    },
    {
      "x": 362,
      "y": 308,
      "size": 1,
      "price": "4683000000000000000000",
      "reserved": "",
      "salt": "0xe2c83e41dbd286be91b0300649c0c9fe5c70c7144b1dfd12fc0221bdd3bda834",
      "assetIds": [
        "55464657044963196816950587289035428064568320970692304673817341489687656669185",
        "55464657044963196816950587289035428064568320970692304673817341489687665059844",
        "55464657044963196816950587289035428064568320970692304673817341489687665059840"
      ]
    },
    {
      "x": 363,
      "y": 270,
      "size": 1,
      "price": "4683000000000000000000",
      "reserved": "",
      "salt": "0xf730d2fc62a380c5dedd201c445146946606b7a86a659137bbbaed8cb9fe7208",
      "assetIds": [
        "55464657044963196816950587289035428064568320970692304673817341489687656669184",
        "55464657044963196816950587289035428064568320970692304673817341489687665059844",
        "55464657044963196816950587289035428064568320970692304673817341489687665059840"
      ]
    },
    {
      "x": 363,
      "y": 271,
      "size": 1,
      "price": "4683000000000000000000",
      "reserved": "",
      "salt": "0x5e0ae46dc66a6f1d4ca14a2110c3d4e18c8ac6d66437768b659da7035319a3db",
      "assetIds": [
        "55464657044963196816950587289035428064568320970692304673817341489687656669184",
        "55464657044963196816950587289035428064568320970692304673817341489687665059844",
        "55464657044963196816950587289035428064568320970692304673817341489687665059840"
      ]
    },
    {
      "x": 363,
      "y": 272,
      "size": 1,
      "price": "4683000000000000000000",
      "reserved": "",
      "salt": "0x026f7af899110093ae9ed0f62f8aafc8f30f30531fe36009f2df7a835a98d90f",
      "assetIds": [
        "55464657044963196816950587289035428064568320970692304673817341489687656669185",
        "55464657044963196816950587289035428064568320970692304673817341489687665059843",
        "55464657044963196816950587289035428064568320970692304673817341489687665059840"
      ]
    },
    {
      "x": 363,
      "y": 273,
      "size": 1,
      "price": "4683000000000000000000",
      "reserved": "",
      "salt": "0x0e649256564ca8ab2bebee4df13a6d7cd60a5f468057c4effe18034bb4142507",
      "assetIds": [
        "55464657044963196816950587289035428064568320970692304673817341489687656669184",
        "55464657044963196816950587289035428064568320970692304673817341489687665059842",
        "55464657044963196816950587289035428064568320970692304673817341489687665059840"
      ]
    },
    {
      "x": 363,
      "y": 274,
      "size": 1,
      "price": "4683000000000000000000",
      "reserved": "",
      "salt": "0x5554941d77d9e002b22a5fbaacb58ba5192bb7252648a56a663f8b6f7fb53a79",
      "assetIds": [
        "55464657044963196816950587289035428064568320970692304673817341489687656669187",
        "55464657044963196816950587289035428064568320970692304673817341489687665059842",
        "55464657044963196816950587289035428064568320970692304673817341489687665059841"
      ]
    },
    {
      "x": 363,
      "y": 275,
      "size": 1,
      "price": "4683000000000000000000",
      "reserved": "",
      "salt": "0x95d8c88bb40109805857edda88fb288c2bf9731148aefd1e2308e1a07ff84cf5",
      "assetIds": [
        "55464657044963196816950587289035428064568320970692304673817341489687656669184",
        "55464657044963196816950587289035428064568320970692304673817341489687665059842",
        "55464657044963196816950587289035428064568320970692304673817341489687665059840"
      ]
    },
    {
      "x": 363,
      "y": 288,
      "size": 1,
      "price": "4683000000000000000000",
      "reserved": "",
      "salt": "0xd635f0cf090d18d40ee2706c0389d5075d7d6671716ec07de4e093d09dc13b48",
      "assetIds": [
        "55464657044963196816950587289035428064568320970692304673817341489687656669185",
        "55464657044963196816950587289035428064568320970692304673817341489687665059843",
        "55464657044963196816950587289035428064568320970692304673817341489687665059840"
      ]
    },
    {
      "x": 363,
      "y": 289,
      "size": 1,
      "price": "1011000000000000000000",
      "reserved": "0x7a9fe22691c811ea339d9b73150e6911a5343dca",
      "salt": "0xe52703a1a402f266d312b0d058d05a42568b9e7df307c70cda50877dd2b40a44",
      "assetIds": []
    },
    {
      "x": 363,
      "y": 290,
      "size": 1,
      "price": "4683000000000000000000",
      "reserved": "",
      "salt": "0x293cfb423749899cd7af40a5b9427343b8cb718c17b11fb16bf18ab202de34f8",
      "assetIds": [
        "55464657044963196816950587289035428064568320970692304673817341489687656669185",
        "55464657044963196816950587289035428064568320970692304673817341489687665059844",
        "55464657044963196816950587289035428064568320970692304673817341489687665059840"
      ]
    },
    {
      "x": 363,
      "y": 291,
      "size": 1,
      "price": "4683000000000000000000",
      "reserved": "",
      "salt": "0x6b3823ce6187f77a73325a812e250ec18077904ab9ef00c0f686159831294db8",
      "assetIds": [
        "55464657044963196816950587289035428064568320970692304673817341489687656669187",
        "55464657044963196816950587289035428064568320970692304673817341489687665059843",
        "55464657044963196816950587289035428064568320970692304673817341489687665059841"
      ]
    },
    {
      "x": 363,
      "y": 292,
      "size": 1,
      "price": "4683000000000000000000",
      "reserved": "",
      "salt": "0xa051ce9e460b855aaaf55954e417424641eff0cf314b45480623234247408468",
      "assetIds": [
        "55464657044963196816950587289035428064568320970692304673817341489687656669186",
        "55464657044963196816950587289035428064568320970692304673817341489687665059842",
        "55464657044963196816950587289035428064568320970692304673817341489687665059841"
      ]
    },
    {
      "x": 363,
      "y": 293,
      "size": 1,
      "price": "4683000000000000000000",
      "reserved": "",
      "salt": "0x57bfb40d21b1d63767736033f6b2b9aa1b713802a246e8aa3758c8fd5ef46355",
      "assetIds": [
        "55464657044963196816950587289035428064568320970692304673817341489687656669184",
        "55464657044963196816950587289035428064568320970692304673817341489687665059844",
        "55464657044963196816950587289035428064568320970692304673817341489687665059840"
      ]
    },
    {
      "x": 363,
      "y": 294,
      "size": 1,
      "price": "4683000000000000000000",
      "reserved": "",
      "salt": "0xc2e3930276161a3bd88968a2ac7afff361714b2ab40b59fd336a0586c0a48c94",
      "assetIds": [
        "55464657044963196816950587289035428064568320970692304673817341489687656669185",
        "55464657044963196816950587289035428064568320970692304673817341489687665059844",
        "55464657044963196816950587289035428064568320970692304673817341489687665059840"
      ]
    },
    {
      "x": 363,
      "y": 295,
      "size": 1,
      "price": "4683000000000000000000",
      "reserved": "",
      "salt": "0xd3be329ee8713d06915363a30268fe851b23fd0c880d10b5d6623e86ef25483b",
      "assetIds": [
        "55464657044963196816950587289035428064568320970692304673817341489687656669186",
        "55464657044963196816950587289035428064568320970692304673817341489687665059844",
        "55464657044963196816950587289035428064568320970692304673817341489687665059841"
      ]
    },
    {
      "x": 363,
      "y": 296,
      "size": 1,
      "price": "4683000000000000000000",
      "reserved": "",
      "salt": "0xc773d307aadec912a7f57e064ba088318dad9ec6d89dfa921909125d194e03be",
      "assetIds": [
        "55464657044963196816950587289035428064568320970692304673817341489687656669186",
        "55464657044963196816950587289035428064568320970692304673817341489687665059843",
        "55464657044963196816950587289035428064568320970692304673817341489687665059841"
      ]
    },
    {
      "x": 363,
      "y": 297,
      "size": 1,
      "price": "4683000000000000000000",
      "reserved": "",
      "salt": "0x771e6750bfaafda639942ff08a94b790790d70f8819b9add11b5093238c2c634",
      "assetIds": [
        "55464657044963196816950587289035428064568320970692304673817341489687656669184",
        "55464657044963196816950587289035428064568320970692304673817341489687665059844",
        "55464657044963196816950587289035428064568320970692304673817341489687665059840"
      ]
    },
    {
      "x": 363,
      "y": 298,
      "size": 1,
      "price": "4683000000000000000000",
      "reserved": "",
      "salt": "0x5f29b578325bbe35779d35427278178dacc7f1ffbaf66b46d06d6e6fdfdbcd57",
      "assetIds": [
        "55464657044963196816950587289035428064568320970692304673817341489687656669185",
        "55464657044963196816950587289035428064568320970692304673817341489687665059842",
        "55464657044963196816950587289035428064568320970692304673817341489687665059840"
      ]
    },
    {
      "x": 363,
      "y": 299,
      "size": 1,
      "price": "1011000000000000000000",
      "reserved": "0x7a9fe22691c811ea339d9b73150e6911a5343dca",
      "salt": "0x3886951e8088c28565dcaa131b8309ddebae1fef62bea2f41e6baea004906a8f",
      "assetIds": []
    },
    {
      "x": 363,
      "y": 300,
      "size": 1,
      "price": "4683000000000000000000",
      "reserved": "",
      "salt": "0xf68653de01b95d6aa59ef0f198a3c9a34dd9885ce17c30e152aa66e016eaa4cc",
      "assetIds": [
        "55464657044963196816950587289035428064568320970692304673817341489687656669187",
        "55464657044963196816950587289035428064568320970692304673817341489687665059844",
        "55464657044963196816950587289035428064568320970692304673817341489687665059841"
      ]
    },
    {
      "x": 363,
      "y": 301,
      "size": 1,
      "price": "4683000000000000000000",
      "reserved": "",
      "salt": "0x1de0662c60ed0cebcf558ea94f7cd3691ce0237b73be810e6aa522b0b7767237",
      "assetIds": [
        "55464657044963196816950587289035428064568320970692304673817341489687656669185",
        "55464657044963196816950587289035428064568320970692304673817341489687665059842",
        "55464657044963196816950587289035428064568320970692304673817341489687665059840"
      ]
    },
    {
      "x": 363,
      "y": 302,
      "size": 1,
      "price": "4683000000000000000000",
      "reserved": "",
      "salt": "0xd4c2e8769f8795af076b30b0a61381a5ba4071deffcaa877d0ddf388e43f6007",
      "assetIds": [
        "55464657044963196816950587289035428064568320970692304673817341489687656669187",
        "55464657044963196816950587289035428064568320970692304673817341489687665059843",
        "55464657044963196816950587289035428064568320970692304673817341489687665059841"
      ]
    },
    {
      "x": 363,
      "y": 303,
      "size": 1,
      "price": "4683000000000000000000",
      "reserved": "",
      "salt": "0x5847759cb97494e71ce81de6041ba1311c2f1374a7559d7145e8795c3db84ba2",
      "assetIds": [
        "55464657044963196816950587289035428064568320970692304673817341489687656669184",
        "55464657044963196816950587289035428064568320970692304673817341489687665059844",
        "55464657044963196816950587289035428064568320970692304673817341489687665059840"
      ]
    },
    {
      "x": 363,
      "y": 304,
      "size": 1,
      "price": "1011000000000000000000",
      "reserved": "0x7a9fe22691c811ea339d9b73150e6911a5343dca",
      "salt": "0xe14192020b478c89a191a629b9171ec2bed169a8f4a840ea2ed1fe90b3bdcd9d",
      "assetIds": []
    },
    {
      "x": 363,
      "y": 305,
      "size": 1,
      "price": "4683000000000000000000",
      "reserved": "",
      "salt": "0xfa0358c54bcd6f50e839e570f9ae330fe4954c1fdaa5effb0f0363c56bec1595",
      "assetIds": [
        "55464657044963196816950587289035428064568320970692304673817341489687656669187",
        "55464657044963196816950587289035428064568320970692304673817341489687665059844",
        "55464657044963196816950587289035428064568320970692304673817341489687665059841"
      ]
    },
    {
      "x": 363,
      "y": 306,
      "size": 1,
      "price": "4683000000000000000000",
      "reserved": "",
      "salt": "0x8a215de5e7861ad911ab844267d6e5e9b2f27d858c6cb986af0d2ab13d43c709",
      "assetIds": [
        "55464657044963196816950587289035428064568320970692304673817341489687656669187",
        "55464657044963196816950587289035428064568320970692304673817341489687665059844",
        "55464657044963196816950587289035428064568320970692304673817341489687665059841"
      ]
    },
    {
      "x": 363,
      "y": 307,
      "size": 1,
      "price": "4683000000000000000000",
      "reserved": "",
      "salt": "0x072a87e1f09041664ecf4bc8bbdd4494165e92c8e3420370736d55076e17f791",
      "assetIds": [
        "55464657044963196816950587289035428064568320970692304673817341489687656669187",
        "55464657044963196816950587289035428064568320970692304673817341489687665059844",
        "55464657044963196816950587289035428064568320970692304673817341489687665059841"
      ]
    },
    {
      "x": 363,
      "y": 308,
      "size": 1,
      "price": "4683000000000000000000",
      "reserved": "",
      "salt": "0x1ea885ea2ed7949ec2f935198bda176297b6bae766508fb09c0a5c824f075866",
      "assetIds": [
        "55464657044963196816950587289035428064568320970692304673817341489687656669185",
        "55464657044963196816950587289035428064568320970692304673817341489687665059843",
        "55464657044963196816950587289035428064568320970692304673817341489687665059840"
      ]
    },
    {
      "x": 364,
      "y": 270,
      "size": 1,
      "price": "4683000000000000000000",
      "reserved": "",
      "salt": "0x067ffd140c35fb95e0a5480c0ee2ebd82fd9648fe696c0477e50af7426b0aa02",
      "assetIds": [
        "55464657044963196816950587289035428064568320970692304673817341489687656669186",
        "55464657044963196816950587289035428064568320970692304673817341489687665059842",
        "55464657044963196816950587289035428064568320970692304673817341489687665059841"
      ]
    },
    {
      "x": 364,
      "y": 271,
      "size": 1,
      "price": "4683000000000000000000",
      "reserved": "",
      "salt": "0x44add4ed22eac413496997657ba561f9e746f81360d82a785886ec35cc9838cc",
      "assetIds": [
        "55464657044963196816950587289035428064568320970692304673817341489687656669186",
        "55464657044963196816950587289035428064568320970692304673817341489687665059844",
        "55464657044963196816950587289035428064568320970692304673817341489687665059841"
      ]
    },
    {
      "x": 364,
      "y": 272,
      "size": 1,
      "price": "4683000000000000000000",
      "reserved": "",
      "salt": "0xcf351cf1d955cac265356ec44bfbcd46dc3d91a15c12aaa101f272050d492223",
      "assetIds": [
        "55464657044963196816950587289035428064568320970692304673817341489687656669184",
        "55464657044963196816950587289035428064568320970692304673817341489687665059842",
        "55464657044963196816950587289035428064568320970692304673817341489687665059840"
      ]
    },
    {
      "x": 364,
      "y": 273,
      "size": 1,
      "price": "4683000000000000000000",
      "reserved": "",
      "salt": "0x5d50a306ce8e22a2efdbe88bb9001511e6f44963b9456d99d76be7a330cc22e7",
      "assetIds": [
        "55464657044963196816950587289035428064568320970692304673817341489687656669185",
        "55464657044963196816950587289035428064568320970692304673817341489687665059842",
        "55464657044963196816950587289035428064568320970692304673817341489687665059840"
      ]
    },
    {
      "x": 364,
      "y": 274,
      "size": 1,
      "price": "4683000000000000000000",
      "reserved": "",
      "salt": "0xa24e582b805203ced59d772881219a3e46e9c3c377fd41b46657e3ca487e4878",
      "assetIds": [
        "55464657044963196816950587289035428064568320970692304673817341489687656669185",
        "55464657044963196816950587289035428064568320970692304673817341489687665059844",
        "55464657044963196816950587289035428064568320970692304673817341489687665059840"
      ]
    },
    {
      "x": 364,
      "y": 275,
      "size": 1,
      "price": "4683000000000000000000",
      "reserved": "",
      "salt": "0x0f04eb79c9eb9f636095f5644a1e076679bbe2d5bf288d6b5396269007c55555",
      "assetIds": [
        "55464657044963196816950587289035428064568320970692304673817341489687656669185",
        "55464657044963196816950587289035428064568320970692304673817341489687665059843",
        "55464657044963196816950587289035428064568320970692304673817341489687665059840"
      ]
    },
    {
      "x": 364,
      "y": 288,
      "size": 1,
      "price": "4683000000000000000000",
      "reserved": "",
      "salt": "0xea779c00b8cbf19f74d32a9c0ba9b3a3e199ac19d2faee8fb63dff7584fc3a1b",
      "assetIds": [
        "55464657044963196816950587289035428064568320970692304673817341489687656669185",
        "55464657044963196816950587289035428064568320970692304673817341489687665059843",
        "55464657044963196816950587289035428064568320970692304673817341489687665059840"
      ]
    },
    {
      "x": 364,
      "y": 289,
      "size": 1,
      "price": "4683000000000000000000",
      "reserved": "",
      "salt": "0xda6a194231c1d613fc69f28a8ffa9af2188e2ffba3e9b786ade48858ec26434f",
      "assetIds": [
        "55464657044963196816950587289035428064568320970692304673817341489687656669187",
        "55464657044963196816950587289035428064568320970692304673817341489687665059842",
        "55464657044963196816950587289035428064568320970692304673817341489687665059841"
      ]
    },
    {
      "x": 364,
      "y": 290,
      "size": 1,
      "price": "4683000000000000000000",
      "reserved": "",
      "salt": "0x69f77fb36f7f1050cbd8baf987d8d235083654e7691638e1ef86f0fcfdcb42b7",
      "assetIds": [
        "55464657044963196816950587289035428064568320970692304673817341489687656669185",
        "55464657044963196816950587289035428064568320970692304673817341489687665059842",
        "55464657044963196816950587289035428064568320970692304673817341489687665059840"
      ]
    },
    {
      "x": 364,
      "y": 291,
      "size": 1,
      "price": "4683000000000000000000",
      "reserved": "",
      "salt": "0x724352774b51a3b7d9196667f4ed6a00bce848e4cf3a68039eabf26f008bc430",
      "assetIds": [
        "55464657044963196816950587289035428064568320970692304673817341489687656669185",
        "55464657044963196816950587289035428064568320970692304673817341489687665059842",
        "55464657044963196816950587289035428064568320970692304673817341489687665059840"
      ]
    },
    {
      "x": 364,
      "y": 292,
      "size": 1,
      "price": "4683000000000000000000",
      "reserved": "",
      "salt": "0x4be9aac671eb544c8ef3ab8e0da1d8efc98f1940ce96bd126390687818cfc38c",
      "assetIds": [
        "55464657044963196816950587289035428064568320970692304673817341489687656669186",
        "55464657044963196816950587289035428064568320970692304673817341489687665059842",
        "55464657044963196816950587289035428064568320970692304673817341489687665059841"
      ]
    },
    {
      "x": 364,
      "y": 293,
      "size": 1,
      "price": "4683000000000000000000",
      "reserved": "",
      "salt": "0xc69dddf9dec0d9092c9c1ce6a710bd847b99368040a0de9446b9307e9e1b804b",
      "assetIds": [
        "55464657044963196816950587289035428064568320970692304673817341489687656669187",
        "55464657044963196816950587289035428064568320970692304673817341489687665059844",
        "55464657044963196816950587289035428064568320970692304673817341489687665059841"
      ]
    },
    {
      "x": 364,
      "y": 294,
      "size": 1,
      "price": "4683000000000000000000",
      "reserved": "",
      "salt": "0x11c81f98183d2f4a0bf309e3b60acad74488b01ef2857463990ee40ab50d3004",
      "assetIds": [
        "55464657044963196816950587289035428064568320970692304673817341489687656669187",
        "55464657044963196816950587289035428064568320970692304673817341489687665059844",
        "55464657044963196816950587289035428064568320970692304673817341489687665059841"
      ]
    },
    {
      "x": 364,
      "y": 295,
      "size": 1,
      "price": "4683000000000000000000",
      "reserved": "",
      "salt": "0xff5acfa262c5982d7e39d0a52462ad8a04f8079b599cffe8948b1a9caf03733e",
      "assetIds": [
        "55464657044963196816950587289035428064568320970692304673817341489687656669187",
        "55464657044963196816950587289035428064568320970692304673817341489687665059844",
        "55464657044963196816950587289035428064568320970692304673817341489687665059841"
      ]
    },
    {
      "x": 364,
      "y": 296,
      "size": 1,
      "price": "4683000000000000000000",
      "reserved": "",
      "salt": "0x5befd59403503a7ffedd748221441f1d92bb07fcf5df498d727e80357053dd7b",
      "assetIds": [
        "55464657044963196816950587289035428064568320970692304673817341489687656669186",
        "55464657044963196816950587289035428064568320970692304673817341489687665059843",
        "55464657044963196816950587289035428064568320970692304673817341489687665059841"
      ]
    },
    {
      "x": 364,
      "y": 297,
      "size": 1,
      "price": "4683000000000000000000",
      "reserved": "",
      "salt": "0x88981b8f54d47b5a72f76b1c99dfa964e22fa37d9197316267aadf652befce55",
      "assetIds": [
        "55464657044963196816950587289035428064568320970692304673817341489687656669185",
        "55464657044963196816950587289035428064568320970692304673817341489687665059844",
        "55464657044963196816950587289035428064568320970692304673817341489687665059840"
      ]
    },
    {
      "x": 364,
      "y": 298,
      "size": 1,
      "price": "4683000000000000000000",
      "reserved": "",
      "salt": "0x2464773a09bb7f629ed5876f98095d4cfae077e6ee20a80d5ba7a6f8aa0d9c22",
      "assetIds": [
        "55464657044963196816950587289035428064568320970692304673817341489687656669184",
        "55464657044963196816950587289035428064568320970692304673817341489687665059843",
        "55464657044963196816950587289035428064568320970692304673817341489687665059840"
      ]
    },
    {
      "x": 364,
      "y": 299,
      "size": 1,
      "price": "4683000000000000000000",
      "reserved": "",
      "salt": "0x4e8c3ed36f1816afbcb74f46e3a322f17e9eb5ed5c46523e1ed15193683a3e73",
      "assetIds": [
        "55464657044963196816950587289035428064568320970692304673817341489687656669185",
        "55464657044963196816950587289035428064568320970692304673817341489687665059842",
        "55464657044963196816950587289035428064568320970692304673817341489687665059840"
      ]
    },
    {
      "x": 364,
      "y": 300,
      "size": 1,
      "price": "4683000000000000000000",
      "reserved": "",
      "salt": "0x74aa0413a226d408c912a39eb92badd8867aa220acca73352521f4d7fbd19409",
      "assetIds": [
        "55464657044963196816950587289035428064568320970692304673817341489687656669185",
        "55464657044963196816950587289035428064568320970692304673817341489687665059843",
        "55464657044963196816950587289035428064568320970692304673817341489687665059840"
      ]
    },
    {
      "x": 364,
      "y": 301,
      "size": 1,
      "price": "4683000000000000000000",
      "reserved": "",
      "salt": "0xb7ae2595c1120bc54edebbf6291f6cdc0aa5bb099ba607cf9c789f1451209d06",
      "assetIds": [
        "55464657044963196816950587289035428064568320970692304673817341489687656669185",
        "55464657044963196816950587289035428064568320970692304673817341489687665059842",
        "55464657044963196816950587289035428064568320970692304673817341489687665059840"
      ]
    },
    {
      "x": 364,
      "y": 302,
      "size": 1,
      "price": "4683000000000000000000",
      "reserved": "",
      "salt": "0xf07a8f6415e5589cc4b65a68d8028697817d1d4d6a15310ee6c940d3f971d179",
      "assetIds": [
        "55464657044963196816950587289035428064568320970692304673817341489687656669184",
        "55464657044963196816950587289035428064568320970692304673817341489687665059844",
        "55464657044963196816950587289035428064568320970692304673817341489687665059840"
      ]
    },
    {
      "x": 364,
      "y": 303,
      "size": 1,
      "price": "4683000000000000000000",
      "reserved": "",
      "salt": "0x7b2f788fcdf9e1cae6142ed05c66765e267a48f0c67d5a07808afd1a87494959",
      "assetIds": [
        "55464657044963196816950587289035428064568320970692304673817341489687656669185",
        "55464657044963196816950587289035428064568320970692304673817341489687665059844",
        "55464657044963196816950587289035428064568320970692304673817341489687665059840"
      ]
    },
    {
      "x": 364,
      "y": 304,
      "size": 1,
      "price": "4683000000000000000000",
      "reserved": "",
      "salt": "0x59a921efd6b83d4cddcc15aae8fa39d2e587a3c5ab59c5077f28b8681037daec",
      "assetIds": [
        "55464657044963196816950587289035428064568320970692304673817341489687656669186",
        "55464657044963196816950587289035428064568320970692304673817341489687665059843",
        "55464657044963196816950587289035428064568320970692304673817341489687665059841"
      ]
    },
    {
      "x": 364,
      "y": 305,
      "size": 1,
      "price": "4683000000000000000000",
      "reserved": "",
      "salt": "0x7aa35d7fb95b356aa33f77ef2599f4fdff254f2132277d741446e65019c8a045",
      "assetIds": [
        "55464657044963196816950587289035428064568320970692304673817341489687656669185",
        "55464657044963196816950587289035428064568320970692304673817341489687665059842",
        "55464657044963196816950587289035428064568320970692304673817341489687665059840"
      ]
    },
    {
      "x": 364,
      "y": 306,
      "size": 1,
      "price": "4683000000000000000000",
      "reserved": "",
      "salt": "0x8a9bfb160234f845422e5e940d67d1cdb978d1d9517b16198249fe2294d26b7a",
      "assetIds": [
        "55464657044963196816950587289035428064568320970692304673817341489687656669187",
        "55464657044963196816950587289035428064568320970692304673817341489687665059842",
        "55464657044963196816950587289035428064568320970692304673817341489687665059841"
      ]
    },
    {
      "x": 364,
      "y": 307,
      "size": 1,
      "price": "1011000000000000000000",
      "reserved": "0x7a9fe22691c811ea339d9b73150e6911a5343dca",
      "salt": "0xdebd56ed91dcfbafc5863025dad6f6aff6f2c0c35cc1a797d4129b63b8226b47",
      "assetIds": []
    },
    {
      "x": 364,
      "y": 308,
      "size": 1,
      "price": "4683000000000000000000",
      "reserved": "",
      "salt": "0xd1939a4644b6fb370078ae1a2d5a40096f679454504d34749a343402bc73c2d8",
      "assetIds": [
        "55464657044963196816950587289035428064568320970692304673817341489687656669187",
        "55464657044963196816950587289035428064568320970692304673817341489687665059843",
        "55464657044963196816950587289035428064568320970692304673817341489687665059841"
      ]
    },
    {
      "x": 365,
      "y": 270,
      "size": 1,
      "price": "4683000000000000000000",
      "reserved": "",
      "salt": "0x7a75479f079ad22e772d443ecc5001dfec9497790214a841d96095e717576faf",
      "assetIds": [
        "55464657044963196816950587289035428064568320970692304673817341489687656669186",
        "55464657044963196816950587289035428064568320970692304673817341489687665059844",
        "55464657044963196816950587289035428064568320970692304673817341489687665059841"
      ]
    },
    {
      "x": 365,
      "y": 271,
      "size": 1,
      "price": "4683000000000000000000",
      "reserved": "",
      "salt": "0x6324f8db2bfd8f5bfb22b159bb1135e3662155cbba22055bb14847c5ed006aa3",
      "assetIds": [
        "55464657044963196816950587289035428064568320970692304673817341489687656669184",
        "55464657044963196816950587289035428064568320970692304673817341489687665059843",
        "55464657044963196816950587289035428064568320970692304673817341489687665059840"
      ]
    },
    {
      "x": 365,
      "y": 272,
      "size": 1,
      "price": "4683000000000000000000",
      "reserved": "",
      "salt": "0x38ec31edb5a73726f235430a871202a56c1377028e21b5fd6b18ff0a137c811d",
      "assetIds": [
        "55464657044963196816950587289035428064568320970692304673817341489687656669186",
        "55464657044963196816950587289035428064568320970692304673817341489687665059843",
        "55464657044963196816950587289035428064568320970692304673817341489687665059841"
      ]
    },
    {
      "x": 365,
      "y": 273,
      "size": 1,
      "price": "4683000000000000000000",
      "reserved": "",
      "salt": "0x49b3d90bd2427e4aae47da0e36503ece0e774d6c2834746c988c01e463061cd2",
      "assetIds": [
        "55464657044963196816950587289035428064568320970692304673817341489687656669185",
        "55464657044963196816950587289035428064568320970692304673817341489687665059844",
        "55464657044963196816950587289035428064568320970692304673817341489687665059840"
      ]
    },
    {
      "x": 365,
      "y": 274,
      "size": 1,
      "price": "4683000000000000000000",
      "reserved": "",
      "salt": "0xa04863a4b2d2426b8cedc779c51befd74fe770c7cd55f2017824164783c778d2",
      "assetIds": [
        "55464657044963196816950587289035428064568320970692304673817341489687656669185",
        "55464657044963196816950587289035428064568320970692304673817341489687665059842",
        "55464657044963196816950587289035428064568320970692304673817341489687665059840"
      ]
    },
    {
      "x": 365,
      "y": 275,
      "size": 1,
      "price": "4683000000000000000000",
      "reserved": "",
      "salt": "0x1b50f2c1fdcbad54fae16dffcab2eff6a99ffd6ac227b5df4085d2b07a8eb46f",
      "assetIds": [
        "55464657044963196816950587289035428064568320970692304673817341489687656669185",
        "55464657044963196816950587289035428064568320970692304673817341489687665059844",
        "55464657044963196816950587289035428064568320970692304673817341489687665059840"
      ]
    },
    {
      "x": 365,
      "y": 288,
      "size": 1,
      "price": "4683000000000000000000",
      "reserved": "",
      "salt": "0x3b685e842eda248c796cc383f6d766cb42a6ef49f03a81876dfb488841386c47",
      "assetIds": [
        "55464657044963196816950587289035428064568320970692304673817341489687656669187",
        "55464657044963196816950587289035428064568320970692304673817341489687665059843",
        "55464657044963196816950587289035428064568320970692304673817341489687665059841"
      ]
    },
    {
      "x": 365,
      "y": 289,
      "size": 1,
      "price": "4683000000000000000000",
      "reserved": "",
      "salt": "0x2a46d8c5ebeee8f474125f4e55a5907d0c13201ccc23f900a833dbbdc19f4015",
      "assetIds": [
        "55464657044963196816950587289035428064568320970692304673817341489687656669185",
        "55464657044963196816950587289035428064568320970692304673817341489687665059844",
        "55464657044963196816950587289035428064568320970692304673817341489687665059840"
      ]
    },
    {
      "x": 365,
      "y": 290,
      "size": 1,
      "price": "4683000000000000000000",
      "reserved": "",
      "salt": "0xb193198b68a6ce6d78b10ccfdc7938e62bd5d537f04a315be74eb3f0088ebe7a",
      "assetIds": [
        "55464657044963196816950587289035428064568320970692304673817341489687656669185",
        "55464657044963196816950587289035428064568320970692304673817341489687665059844",
        "55464657044963196816950587289035428064568320970692304673817341489687665059840"
      ]
    },
    {
      "x": 365,
      "y": 291,
      "size": 1,
      "price": "4683000000000000000000",
      "reserved": "",
      "salt": "0x038cfc70966b97c5db49c721b7b9723603cf7ea83713fe87d45cb08b79821d04",
      "assetIds": [
        "55464657044963196816950587289035428064568320970692304673817341489687656669184",
        "55464657044963196816950587289035428064568320970692304673817341489687665059842",
        "55464657044963196816950587289035428064568320970692304673817341489687665059840"
      ]
    },
    {
      "x": 365,
      "y": 292,
      "size": 1,
      "price": "4683000000000000000000",
      "reserved": "",
      "salt": "0x0ef3ddbc6a9eaa2819e979681faa300e2cd1d8a8e7be1dfb98ed1794a367b453",
      "assetIds": [
        "55464657044963196816950587289035428064568320970692304673817341489687656669186",
        "55464657044963196816950587289035428064568320970692304673817341489687665059843",
        "55464657044963196816950587289035428064568320970692304673817341489687665059841"
      ]
    },
    {
      "x": 365,
      "y": 293,
      "size": 1,
      "price": "4683000000000000000000",
      "reserved": "",
      "salt": "0x094bba7bebcb93dd4dcaee289dcb70e4fd3d57181c51afcece55f9bc1db616f9",
      "assetIds": [
        "55464657044963196816950587289035428064568320970692304673817341489687656669184",
        "55464657044963196816950587289035428064568320970692304673817341489687665059843",
        "55464657044963196816950587289035428064568320970692304673817341489687665059840"
      ]
    },
    {
      "x": 365,
      "y": 294,
      "size": 1,
      "price": "4683000000000000000000",
      "reserved": "",
      "salt": "0x7a3e2e731657fd77a57bcff759f06d297293372f17f505c959ebeaf47fd26cd1",
      "assetIds": [
        "55464657044963196816950587289035428064568320970692304673817341489687656669186",
        "55464657044963196816950587289035428064568320970692304673817341489687665059842",
        "55464657044963196816950587289035428064568320970692304673817341489687665059841"
      ]
    },
    {
      "x": 365,
      "y": 295,
      "size": 1,
      "price": "4683000000000000000000",
      "reserved": "",
      "salt": "0x29d46d2e773f10cd5f65444a645f562233aa5c345f56b95e5b24ae5847fb9621",
      "assetIds": [
        "55464657044963196816950587289035428064568320970692304673817341489687656669185",
        "55464657044963196816950587289035428064568320970692304673817341489687665059844",
        "55464657044963196816950587289035428064568320970692304673817341489687665059840"
      ]
    },
    {
      "x": 365,
      "y": 296,
      "size": 1,
      "price": "4683000000000000000000",
      "reserved": "",
      "salt": "0xe6f7c33551dfe2079ea2b7cb929fd19a79fd1149c3de8b773d9d56045501cbc5",
      "assetIds": [
        "55464657044963196816950587289035428064568320970692304673817341489687656669184",
        "55464657044963196816950587289035428064568320970692304673817341489687665059844",
        "55464657044963196816950587289035428064568320970692304673817341489687665059840"
      ]
    },
    {
      "x": 365,
      "y": 297,
      "size": 1,
      "price": "4683000000000000000000",
      "reserved": "",
      "salt": "0x8dbbbd9c1c56af98aacc3dc8c21fac78999624e46c27a56855ecc904279e9b29",
      "assetIds": [
        "55464657044963196816950587289035428064568320970692304673817341489687656669185",
        "55464657044963196816950587289035428064568320970692304673817341489687665059842",
        "55464657044963196816950587289035428064568320970692304673817341489687665059840"
      ]
    },
    {
      "x": 365,
      "y": 298,
      "size": 1,
      "price": "4683000000000000000000",
      "reserved": "",
      "salt": "0x7479ab2dc3d25aea5354e71fe327e92520d74bf3eb50d97b7de29c816ffb555c",
      "assetIds": [
        "55464657044963196816950587289035428064568320970692304673817341489687656669186",
        "55464657044963196816950587289035428064568320970692304673817341489687665059842",
        "55464657044963196816950587289035428064568320970692304673817341489687665059841"
      ]
    },
    {
      "x": 365,
      "y": 299,
      "size": 1,
      "price": "4683000000000000000000",
      "reserved": "",
      "salt": "0x9c54cdc102f284073b2058984f80208de176b1d8d05dad175f8751ca06e79b5b",
      "assetIds": [
        "55464657044963196816950587289035428064568320970692304673817341489687656669187",
        "55464657044963196816950587289035428064568320970692304673817341489687665059844",
        "55464657044963196816950587289035428064568320970692304673817341489687665059841"
      ]
    },
    {
      "x": 365,
      "y": 300,
      "size": 1,
      "price": "4683000000000000000000",
      "reserved": "",
      "salt": "0x7576715f0982edc7c2043568b52e4b26ab8254610395115d0dc06115d432aece",
      "assetIds": [
        "55464657044963196816950587289035428064568320970692304673817341489687656669185",
        "55464657044963196816950587289035428064568320970692304673817341489687665059842",
        "55464657044963196816950587289035428064568320970692304673817341489687665059840"
      ]
    },
    {
      "x": 365,
      "y": 301,
      "size": 1,
      "price": "4683000000000000000000",
      "reserved": "",
      "salt": "0x1054fd413e32ef78b0598617a9e180c672d697804be9ff51a4d8c9596975a4b7",
      "assetIds": [
        "55464657044963196816950587289035428064568320970692304673817341489687656669186",
        "55464657044963196816950587289035428064568320970692304673817341489687665059843",
        "55464657044963196816950587289035428064568320970692304673817341489687665059841"
      ]
    },
    {
      "x": 365,
      "y": 302,
      "size": 1,
      "price": "4683000000000000000000",
      "reserved": "",
      "salt": "0xe86fcf018e0cc3ed99375101a36159cde73f52d1521cbfb1e96c71cec8ae48f2",
      "assetIds": [
        "55464657044963196816950587289035428064568320970692304673817341489687656669186",
        "55464657044963196816950587289035428064568320970692304673817341489687665059843",
        "55464657044963196816950587289035428064568320970692304673817341489687665059841"
      ]
    },
    {
      "x": 365,
      "y": 303,
      "size": 1,
      "price": "4683000000000000000000",
      "reserved": "",
      "salt": "0x8b02baa8f1aa2e06a4bb76412a0692fdcec0f4cfbc956c7303b90c26bab50507",
      "assetIds": [
        "55464657044963196816950587289035428064568320970692304673817341489687656669185",
        "55464657044963196816950587289035428064568320970692304673817341489687665059842",
        "55464657044963196816950587289035428064568320970692304673817341489687665059840"
      ]
    },
    {
      "x": 365,
      "y": 304,
      "size": 1,
      "price": "4683000000000000000000",
      "reserved": "",
      "salt": "0xc010a113457c596de699ed793bacac1e05cfd389a8102c0f000a91be3098d15d",
      "assetIds": [
        "55464657044963196816950587289035428064568320970692304673817341489687656669185",
        "55464657044963196816950587289035428064568320970692304673817341489687665059844",
        "55464657044963196816950587289035428064568320970692304673817341489687665059840"
      ]
    },
    {
      "x": 365,
      "y": 305,
      "size": 1,
      "price": "4683000000000000000000",
      "reserved": "",
      "salt": "0x07c0c64c8d35834a46cffdf304f9ec5f849d91efe317b2ab0e35e289ddc7fe84",
      "assetIds": [
        "55464657044963196816950587289035428064568320970692304673817341489687656669184",
        "55464657044963196816950587289035428064568320970692304673817341489687665059842",
        "55464657044963196816950587289035428064568320970692304673817341489687665059840"
      ]
    },
    {
      "x": 365,
      "y": 306,
      "size": 1,
      "price": "4683000000000000000000",
      "reserved": "",
      "salt": "0x86f0b4e289064ab8e7ffdca80bbd7ce73e572e1bbbeeb717ce37dcfa097b4f17",
      "assetIds": [
        "55464657044963196816950587289035428064568320970692304673817341489687656669185",
        "55464657044963196816950587289035428064568320970692304673817341489687665059844",
        "55464657044963196816950587289035428064568320970692304673817341489687665059840"
      ]
    },
    {
      "x": 365,
      "y": 307,
      "size": 1,
      "price": "4683000000000000000000",
      "reserved": "",
      "salt": "0xc115d63f60ddd645d9b3a5eb3ec9de22c1a0a84f0834e967b2d2072068728968",
      "assetIds": [
        "55464657044963196816950587289035428064568320970692304673817341489687656669185",
        "55464657044963196816950587289035428064568320970692304673817341489687665059842",
        "55464657044963196816950587289035428064568320970692304673817341489687665059840"
      ]
    },
    {
      "x": 365,
      "y": 308,
      "size": 1,
      "price": "4683000000000000000000",
      "reserved": "",
      "salt": "0xa0e3b02d658412874aaf70b74bd6f0bc028da6172c13238eaf204b817d655434",
      "assetIds": [
        "55464657044963196816950587289035428064568320970692304673817341489687656669187",
        "55464657044963196816950587289035428064568320970692304673817341489687665059842",
        "55464657044963196816950587289035428064568320970692304673817341489687665059841"
      ]
    },
    {
      "x": 366,
      "y": 231,
      "size": 1,
      "price": "4683000000000000000000",
      "reserved": "",
      "salt": "0x9fe95f4e16753345b2dfb3a1411f352e23dc1d8d1f36ae8aa719d8937daa72ab",
      "assetIds": [
        "55464657044963196816950587289035428064568320970692304673817341489687656669185",
        "55464657044963196816950587289035428064568320970692304673817341489687665059844",
        "55464657044963196816950587289035428064568320970692304673817341489687665059840"
      ]
    },
    {
      "x": 366,
      "y": 232,
      "size": 1,
      "price": "4683000000000000000000",
      "reserved": "",
      "salt": "0x66dd2c80a165481a4503f739467736b49c1135f37e527835c59876a220e8cd30",
      "assetIds": [
        "55464657044963196816950587289035428064568320970692304673817341489687656669184",
        "55464657044963196816950587289035428064568320970692304673817341489687665059843",
        "55464657044963196816950587289035428064568320970692304673817341489687665059840"
      ]
    },
    {
      "x": 366,
      "y": 233,
      "size": 1,
      "price": "4683000000000000000000",
      "reserved": "",
      "salt": "0x7f860287aa7bb3f36ea14473eea35d54e262874a5601fab2a054bf741e499d58",
      "assetIds": [
        "55464657044963196816950587289035428064568320970692304673817341489687656669185",
        "55464657044963196816950587289035428064568320970692304673817341489687665059844",
        "55464657044963196816950587289035428064568320970692304673817341489687665059840"
      ]
    },
    {
      "x": 366,
      "y": 234,
      "size": 1,
      "price": "4683000000000000000000",
      "reserved": "",
      "salt": "0x33bf3544fd2154fc19071939a8cdb969095a6a57843ca1886369223010952e12",
      "assetIds": [
        "55464657044963196816950587289035428064568320970692304673817341489687656669184",
        "55464657044963196816950587289035428064568320970692304673817341489687665059843",
        "55464657044963196816950587289035428064568320970692304673817341489687665059840"
      ]
    },
    {
      "x": 366,
      "y": 235,
      "size": 1,
      "price": "4683000000000000000000",
      "reserved": "",
      "salt": "0x1416f27845ca13fb8dfbef4c1f2e66b8586fcbc8fae5af6204b0457c7a5e741d",
      "assetIds": [
        "55464657044963196816950587289035428064568320970692304673817341489687656669184",
        "55464657044963196816950587289035428064568320970692304673817341489687665059842",
        "55464657044963196816950587289035428064568320970692304673817341489687665059840"
      ]
    },
    {
      "x": 366,
      "y": 236,
      "size": 1,
      "price": "4683000000000000000000",
      "reserved": "",
      "salt": "0x55960af8f38223f7fea01d8bc34b337b6629b74ac51bf6b71616d93282d97933",
      "assetIds": [
        "55464657044963196816950587289035428064568320970692304673817341489687656669187",
        "55464657044963196816950587289035428064568320970692304673817341489687665059842",
        "55464657044963196816950587289035428064568320970692304673817341489687665059841"
      ]
    },
    {
      "x": 366,
      "y": 237,
      "size": 1,
      "price": "4683000000000000000000",
      "reserved": "",
      "salt": "0x1c8a0d2febd3ce0715e18bd2d611b8eaf5061104effdb575895429651c92bf28",
      "assetIds": [
        "55464657044963196816950587289035428064568320970692304673817341489687656669187",
        "55464657044963196816950587289035428064568320970692304673817341489687665059843",
        "55464657044963196816950587289035428064568320970692304673817341489687665059841"
      ]
    },
    {
      "x": 366,
      "y": 238,
      "size": 1,
      "price": "4683000000000000000000",
      "reserved": "",
      "salt": "0x4f4dd673c4269290e4b5d8686c3670af83b902af81ce0426ca9abab2a0548ae9",
      "assetIds": [
        "55464657044963196816950587289035428064568320970692304673817341489687656669187",
        "55464657044963196816950587289035428064568320970692304673817341489687665059844",
        "55464657044963196816950587289035428064568320970692304673817341489687665059841"
      ]
    },
    {
      "x": 366,
      "y": 239,
      "size": 1,
      "price": "4683000000000000000000",
      "reserved": "",
      "salt": "0xcc702b5544db67b37bd2c3a09a2fa651aa7f0688ac69365040f667121c6ddf54",
      "assetIds": [
        "55464657044963196816950587289035428064568320970692304673817341489687656669184",
        "55464657044963196816950587289035428064568320970692304673817341489687665059844",
        "55464657044963196816950587289035428064568320970692304673817341489687665059840"
      ]
    },
    {
      "x": 366,
      "y": 264,
      "size": 1,
      "price": "4683000000000000000000",
      "reserved": "",
      "salt": "0x91bac44f345d1bbf29eb6f69dc7dd9df363a04a834286e646c286333c6b254c8",
      "assetIds": [
        "55464657044963196816950587289035428064568320970692304673817341489687656669186",
        "55464657044963196816950587289035428064568320970692304673817341489687665059843",
        "55464657044963196816950587289035428064568320970692304673817341489687665059841"
      ]
    },
    {
      "x": 366,
      "y": 265,
      "size": 1,
      "price": "4683000000000000000000",
      "reserved": "",
      "salt": "0x796da27a2c668747defaf3e7bef09dcc2b7e9ae8053a083c7f6946b5f6fe576c",
      "assetIds": [
        "55464657044963196816950587289035428064568320970692304673817341489687656669184",
        "55464657044963196816950587289035428064568320970692304673817341489687665059843",
        "55464657044963196816950587289035428064568320970692304673817341489687665059840"
      ]
    },
    {
      "x": 366,
      "y": 266,
      "size": 1,
      "price": "4683000000000000000000",
      "reserved": "",
      "salt": "0x89d2b37f41fd07f533e491c86fbe577566e0b31a95c6326671fa048f59264af9",
      "assetIds": [
        "55464657044963196816950587289035428064568320970692304673817341489687656669185",
        "55464657044963196816950587289035428064568320970692304673817341489687665059842",
        "55464657044963196816950587289035428064568320970692304673817341489687665059840"
      ]
    },
    {
      "x": 366,
      "y": 288,
      "size": 1,
      "price": "4683000000000000000000",
      "reserved": "",
      "salt": "0x43e47cbcb2961f3b1554323c8f263201cb85d44b6905c7b3a3c981851631848a",
      "assetIds": [
        "55464657044963196816950587289035428064568320970692304673817341489687656669184",
        "55464657044963196816950587289035428064568320970692304673817341489687665059842",
        "55464657044963196816950587289035428064568320970692304673817341489687665059840"
      ]
    },
    {
      "x": 366,
      "y": 289,
      "size": 1,
      "price": "4683000000000000000000",
      "reserved": "",
      "salt": "0x44499c2d501e48f425b6183bc32d7426df341984cefadb22a1926e541b3feb84",
      "assetIds": [
        "55464657044963196816950587289035428064568320970692304673817341489687656669184",
        "55464657044963196816950587289035428064568320970692304673817341489687665059844",
        "55464657044963196816950587289035428064568320970692304673817341489687665059840"
      ]
    },
    {
      "x": 366,
      "y": 290,
      "size": 1,
      "price": "4683000000000000000000",
      "reserved": "",
      "salt": "0x8d5f8ce363e8b5364fb9a6cae001f77430657763b028ad85b63de67cd8affd8e",
      "assetIds": [
        "55464657044963196816950587289035428064568320970692304673817341489687656669185",
        "55464657044963196816950587289035428064568320970692304673817341489687665059843",
        "55464657044963196816950587289035428064568320970692304673817341489687665059840"
      ]
    },
    {
      "x": 366,
      "y": 294,
      "size": 1,
      "price": "4683000000000000000000",
      "reserved": "",
      "salt": "0x6dd4e174ed310b3aa4141fbad5b31d09f146ef1ccdab5c4de7ddc6eb5bb39cc9",
      "assetIds": [
        "55464657044963196816950587289035428064568320970692304673817341489687656669185",
        "55464657044963196816950587289035428064568320970692304673817341489687665059843",
        "55464657044963196816950587289035428064568320970692304673817341489687665059840"
      ]
    },
    {
      "x": 366,
      "y": 295,
      "size": 1,
      "price": "4683000000000000000000",
      "reserved": "",
      "salt": "0x9e52ff8aeed079feb6909a6d8bb581e47561c9ba729afacbefedc874741c746b",
      "assetIds": [
        "55464657044963196816950587289035428064568320970692304673817341489687656669186",
        "55464657044963196816950587289035428064568320970692304673817341489687665059843",
        "55464657044963196816950587289035428064568320970692304673817341489687665059841"
      ]
    },
    {
      "x": 366,
      "y": 296,
      "size": 1,
      "price": "4683000000000000000000",
      "reserved": "",
      "salt": "0x53fd036adeb53c656a520fddb7949173408d5dbd6c26c1db90a18e1de690977f",
      "assetIds": [
        "55464657044963196816950587289035428064568320970692304673817341489687656669185",
        "55464657044963196816950587289035428064568320970692304673817341489687665059844",
        "55464657044963196816950587289035428064568320970692304673817341489687665059840"
      ]
    },
    {
      "x": 366,
      "y": 297,
      "size": 1,
      "price": "4683000000000000000000",
      "reserved": "",
      "salt": "0x9b25a93354726c3a73a59dbcee96a270fb3a91f9d7947a66ba5e1c1b18c87701",
      "assetIds": [
        "55464657044963196816950587289035428064568320970692304673817341489687656669186",
        "55464657044963196816950587289035428064568320970692304673817341489687665059843",
        "55464657044963196816950587289035428064568320970692304673817341489687665059841"
      ]
    },
    {
      "x": 366,
      "y": 298,
      "size": 1,
      "price": "4683000000000000000000",
      "reserved": "",
      "salt": "0x6e441b347fd54130ea290aae0bca602c46def8ac9eaf64a12d2439828d245993",
      "assetIds": [
        "55464657044963196816950587289035428064568320970692304673817341489687656669187",
        "55464657044963196816950587289035428064568320970692304673817341489687665059843",
        "55464657044963196816950587289035428064568320970692304673817341489687665059841"
      ]
    },
    {
      "x": 366,
      "y": 299,
      "size": 1,
      "price": "4683000000000000000000",
      "reserved": "",
      "salt": "0x69bc538e9b78bf9b5b8ca29400afb3eb698924b6333deedf856b0e42c09728e3",
      "assetIds": [
        "55464657044963196816950587289035428064568320970692304673817341489687656669186",
        "55464657044963196816950587289035428064568320970692304673817341489687665059842",
        "55464657044963196816950587289035428064568320970692304673817341489687665059841"
      ]
    },
    {
      "x": 366,
      "y": 300,
      "size": 1,
      "price": "4683000000000000000000",
      "reserved": "",
      "salt": "0x4ee66aa8466fb04ff5471bb93f91973ea8aa13dc3d2ed8dafb5e682d6e75df47",
      "assetIds": [
        "55464657044963196816950587289035428064568320970692304673817341489687656669187",
        "55464657044963196816950587289035428064568320970692304673817341489687665059842",
        "55464657044963196816950587289035428064568320970692304673817341489687665059841"
      ]
    },
    {
      "x": 366,
      "y": 301,
      "size": 1,
      "price": "4683000000000000000000",
      "reserved": "",
      "salt": "0xd1ce409185f71620569d1b5da225021000a11c3803facff8ff0b567f38ffb4c3",
      "assetIds": [
        "55464657044963196816950587289035428064568320970692304673817341489687656669184",
        "55464657044963196816950587289035428064568320970692304673817341489687665059844",
        "55464657044963196816950587289035428064568320970692304673817341489687665059840"
      ]
    },
    {
      "x": 366,
      "y": 302,
      "size": 1,
      "price": "4683000000000000000000",
      "reserved": "",
      "salt": "0x5e9275c9adce307194b9f5bbd844e9db27a105e3a8b88680c3bde7d621b9b533",
      "assetIds": [
        "55464657044963196816950587289035428064568320970692304673817341489687656669186",
        "55464657044963196816950587289035428064568320970692304673817341489687665059843",
        "55464657044963196816950587289035428064568320970692304673817341489687665059841"
      ]
    },
    {
      "x": 366,
      "y": 303,
      "size": 1,
      "price": "4683000000000000000000",
      "reserved": "",
      "salt": "0x1db5524898c33386ef6a54357b6fc91493d8ea64652fc6b05e8f670f8813bfab",
      "assetIds": [
        "55464657044963196816950587289035428064568320970692304673817341489687656669184",
        "55464657044963196816950587289035428064568320970692304673817341489687665059842",
        "55464657044963196816950587289035428064568320970692304673817341489687665059840"
      ]
    },
    {
      "x": 366,
      "y": 304,
      "size": 1,
      "price": "4683000000000000000000",
      "reserved": "",
      "salt": "0xd8da88cbbc2f1c024e9e11ea1f7bf9772e82a1756cfb72f677aea352cf8f1613",
      "assetIds": [
        "55464657044963196816950587289035428064568320970692304673817341489687656669186",
        "55464657044963196816950587289035428064568320970692304673817341489687665059843",
        "55464657044963196816950587289035428064568320970692304673817341489687665059841"
      ]
    },
    {
      "x": 366,
      "y": 305,
      "size": 1,
      "price": "4683000000000000000000",
      "reserved": "",
      "salt": "0x7c3d022383db3d9b144e399f889e95e3130cd40bd8db25bc2d1dc18cc326b309",
      "assetIds": [
        "55464657044963196816950587289035428064568320970692304673817341489687656669185",
        "55464657044963196816950587289035428064568320970692304673817341489687665059844",
        "55464657044963196816950587289035428064568320970692304673817341489687665059840"
      ]
    },
    {
      "x": 366,
      "y": 306,
      "size": 1,
      "price": "4683000000000000000000",
      "reserved": "",
      "salt": "0x5153265f95dc798a14892740848e97fb0c3a31e78ae3f1be24a3ce5b5f41bb4d",
      "assetIds": [
        "55464657044963196816950587289035428064568320970692304673817341489687656669186",
        "55464657044963196816950587289035428064568320970692304673817341489687665059844",
        "55464657044963196816950587289035428064568320970692304673817341489687665059841"
      ]
    },
    {
      "x": 367,
      "y": 231,
      "size": 1,
      "price": "4683000000000000000000",
      "reserved": "",
      "salt": "0x5afaac34c4a4da09b8b54d702bebd6072aadf28c33e4b3da02840443a171c8d0",
      "assetIds": [
        "55464657044963196816950587289035428064568320970692304673817341489687656669185",
        "55464657044963196816950587289035428064568320970692304673817341489687665059844",
        "55464657044963196816950587289035428064568320970692304673817341489687665059840"
      ]
    },
    {
      "x": 367,
      "y": 232,
      "size": 1,
      "price": "4683000000000000000000",
      "reserved": "",
      "salt": "0xd531471ebcbd86d2325df5b1d9c7254682222a6fefdca8ad010cabee1a19462e",
      "assetIds": [
        "55464657044963196816950587289035428064568320970692304673817341489687656669187",
        "55464657044963196816950587289035428064568320970692304673817341489687665059843",
        "55464657044963196816950587289035428064568320970692304673817341489687665059841"
      ]
    },
    {
      "x": 367,
      "y": 233,
      "size": 1,
      "price": "4683000000000000000000",
      "reserved": "",
      "salt": "0x1453d0299b4d90ec7c8c6c2e20fde07494918326da6f30da1dffb163a7200583",
      "assetIds": [
        "55464657044963196816950587289035428064568320970692304673817341489687656669185",
        "55464657044963196816950587289035428064568320970692304673817341489687665059844",
        "55464657044963196816950587289035428064568320970692304673817341489687665059840"
      ]
    },
    {
      "x": 367,
      "y": 234,
      "size": 1,
      "price": "4683000000000000000000",
      "reserved": "",
      "salt": "0xaafacf8acb209e9e1efa234d640f16a29d983120f059dcd3edfaec2e7177e143",
      "assetIds": [
        "55464657044963196816950587289035428064568320970692304673817341489687656669184",
        "55464657044963196816950587289035428064568320970692304673817341489687665059842",
        "55464657044963196816950587289035428064568320970692304673817341489687665059840"
      ]
    },
    {
      "x": 367,
      "y": 235,
      "size": 1,
      "price": "4683000000000000000000",
      "reserved": "",
      "salt": "0x05cb2fd38caa8c46f72f09509d68261e8596d84b1566cce7525ef0b3ccdc42f8",
      "assetIds": [
        "55464657044963196816950587289035428064568320970692304673817341489687656669186",
        "55464657044963196816950587289035428064568320970692304673817341489687665059843",
        "55464657044963196816950587289035428064568320970692304673817341489687665059841"
      ]
    },
    {
      "x": 367,
      "y": 236,
      "size": 1,
      "price": "4683000000000000000000",
      "reserved": "",
      "salt": "0x2c6f8d362d4072becc6c4d713477b4c3bf6b1b2587bc02677fb27a20990ffe3b",
      "assetIds": [
        "55464657044963196816950587289035428064568320970692304673817341489687656669187",
        "55464657044963196816950587289035428064568320970692304673817341489687665059844",
        "55464657044963196816950587289035428064568320970692304673817341489687665059841"
      ]
    },
    {
      "x": 367,
      "y": 237,
      "size": 1,
      "price": "1011000000000000000000",
      "reserved": "0x7a9fe22691c811ea339d9b73150e6911a5343dca",
      "salt": "0xe1b03bcd70a1d55c6d9817be161d7771dac41fcfc2513cfe84813bbe0f8d6a06",
      "assetIds": []
    },
    {
      "x": 367,
      "y": 238,
      "size": 1,
      "price": "4683000000000000000000",
      "reserved": "",
      "salt": "0x1d9a2719c175a4cf21cd6c62220626a6d20608f883ca27f26661e312a43d5892",
      "assetIds": [
        "55464657044963196816950587289035428064568320970692304673817341489687656669187",
        "55464657044963196816950587289035428064568320970692304673817341489687665059844",
        "55464657044963196816950587289035428064568320970692304673817341489687665059841"
      ]
    },
    {
      "x": 367,
      "y": 239,
      "size": 1,
      "price": "4683000000000000000000",
      "reserved": "",
      "salt": "0xb595bc74e997f7e3485c52b3de04cacea6932478d9a3420cf76c0a522b222fbb",
      "assetIds": [
        "55464657044963196816950587289035428064568320970692304673817341489687656669186",
        "55464657044963196816950587289035428064568320970692304673817341489687665059844",
        "55464657044963196816950587289035428064568320970692304673817341489687665059841"
      ]
    },
    {
      "x": 367,
      "y": 264,
      "size": 1,
      "price": "4683000000000000000000",
      "reserved": "",
      "salt": "0xcc9684e17bb18508e692425d4602367b05969432e4c722717604e1f70bffa555",
      "assetIds": [
        "55464657044963196816950587289035428064568320970692304673817341489687656669185",
        "55464657044963196816950587289035428064568320970692304673817341489687665059844",
        "55464657044963196816950587289035428064568320970692304673817341489687665059840"
      ]
    },
    {
      "x": 367,
      "y": 265,
      "size": 1,
      "price": "4683000000000000000000",
      "reserved": "",
      "salt": "0x88ec034c2529ad3e800196e36117907c85a4611120ccd96a5645fd288190ec59",
      "assetIds": [
        "55464657044963196816950587289035428064568320970692304673817341489687656669187",
        "55464657044963196816950587289035428064568320970692304673817341489687665059844",
        "55464657044963196816950587289035428064568320970692304673817341489687665059841"
      ]
    },
    {
      "x": 367,
      "y": 266,
      "size": 1,
      "price": "4683000000000000000000",
      "reserved": "",
      "salt": "0x0e53a0a8dbe13e819834a7fc4f60c20233b76c260975bbbe414489eabdc010ee",
      "assetIds": [
        "55464657044963196816950587289035428064568320970692304673817341489687656669184",
        "55464657044963196816950587289035428064568320970692304673817341489687665059842",
        "55464657044963196816950587289035428064568320970692304673817341489687665059840"
      ]
    },
    {
      "x": 367,
      "y": 288,
      "size": 1,
      "price": "4683000000000000000000",
      "reserved": "",
      "salt": "0xb023344acfaf96d34c015bd2e899f0f61891456d5c68f69f67a751ad321e3163",
      "assetIds": [
        "55464657044963196816950587289035428064568320970692304673817341489687656669186",
        "55464657044963196816950587289035428064568320970692304673817341489687665059844",
        "55464657044963196816950587289035428064568320970692304673817341489687665059841"
      ]
    },
    {
      "x": 367,
      "y": 289,
      "size": 1,
      "price": "1011000000000000000000",
      "reserved": "0x7a9fe22691c811ea339d9b73150e6911a5343dca",
      "salt": "0x1e1965a65f0b2f966c91956cc6cdec3dd794c29f65a14be3a98c14c5d2aef1b3",
      "assetIds": []
    },
    {
      "x": 367,
      "y": 290,
      "size": 1,
      "price": "4683000000000000000000",
      "reserved": "",
      "salt": "0x00a41f29a8b94514a0a7251ccd358488509be7dae3903e8ef78b273a70acf154",
      "assetIds": [
        "55464657044963196816950587289035428064568320970692304673817341489687656669185",
        "55464657044963196816950587289035428064568320970692304673817341489687665059843",
        "55464657044963196816950587289035428064568320970692304673817341489687665059840"
      ]
    },
    {
      "x": 367,
      "y": 294,
      "size": 1,
      "price": "4683000000000000000000",
      "reserved": "",
      "salt": "0xabab3df172bd897d3d9e3b34ff2e71d7f7109edb8887825c483be5d06b46877c",
      "assetIds": [
        "55464657044963196816950587289035428064568320970692304673817341489687656669186",
        "55464657044963196816950587289035428064568320970692304673817341489687665059843",
        "55464657044963196816950587289035428064568320970692304673817341489687665059841"
      ]
    },
    {
      "x": 367,
      "y": 295,
      "size": 1,
      "price": "4683000000000000000000",
      "reserved": "",
      "salt": "0xd802cb6884771ccc065040fd63356f2c3412bf798ab849e23ae1abe468824777",
      "assetIds": [
        "55464657044963196816950587289035428064568320970692304673817341489687656669187",
        "55464657044963196816950587289035428064568320970692304673817341489687665059842",
        "55464657044963196816950587289035428064568320970692304673817341489687665059841"
      ]
    },
    {
      "x": 367,
      "y": 296,
      "size": 1,
      "price": "4683000000000000000000",
      "reserved": "",
      "salt": "0x5ae1837d21fc2fb4ff3c77e36807d40e7dc423ab0c0f396846300990bc6ba6e3",
      "assetIds": [
        "55464657044963196816950587289035428064568320970692304673817341489687656669186",
        "55464657044963196816950587289035428064568320970692304673817341489687665059842",
        "55464657044963196816950587289035428064568320970692304673817341489687665059841"
      ]
    },
    {
      "x": 367,
      "y": 297,
      "size": 1,
      "price": "4683000000000000000000",
      "reserved": "",
      "salt": "0x7d08dd65918063c8696da2c12ed6d9fd8b5268d1bb8d517e68bfd86462d5de64",
      "assetIds": [
        "55464657044963196816950587289035428064568320970692304673817341489687656669187",
        "55464657044963196816950587289035428064568320970692304673817341489687665059842",
        "55464657044963196816950587289035428064568320970692304673817341489687665059841"
      ]
    },
    {
      "x": 367,
      "y": 298,
      "size": 1,
      "price": "4683000000000000000000",
      "reserved": "",
      "salt": "0xf5e3c2c858dc7dfdc33bd79e52ad5160ed66c469b55074e566e34bae36ff2cda",
      "assetIds": [
        "55464657044963196816950587289035428064568320970692304673817341489687656669185",
        "55464657044963196816950587289035428064568320970692304673817341489687665059844",
        "55464657044963196816950587289035428064568320970692304673817341489687665059840"
      ]
    },
    {
      "x": 367,
      "y": 299,
      "size": 1,
      "price": "4683000000000000000000",
      "reserved": "",
      "salt": "0xbe2e5f45fd14cdf2deb28b8ab73c308f471d9fa5cb4aaf4ef877daa4a3721458",
      "assetIds": [
        "55464657044963196816950587289035428064568320970692304673817341489687656669187",
        "55464657044963196816950587289035428064568320970692304673817341489687665059842",
        "55464657044963196816950587289035428064568320970692304673817341489687665059841"
      ]
    },
    {
      "x": 367,
      "y": 300,
      "size": 1,
      "price": "4683000000000000000000",
      "reserved": "",
      "salt": "0xbb7d508a63e7b1158ee7dc4b07d64a82caf319cdd31ba2737e929c813e7333f1",
      "assetIds": [
        "55464657044963196816950587289035428064568320970692304673817341489687656669187",
        "55464657044963196816950587289035428064568320970692304673817341489687665059843",
        "55464657044963196816950587289035428064568320970692304673817341489687665059841"
      ]
    },
    {
      "x": 367,
      "y": 301,
      "size": 1,
      "price": "4683000000000000000000",
      "reserved": "",
      "salt": "0xc280430c41de0c4a423ed3ae6e58976912fe360385d747eaa14dc59381fcae12",
      "assetIds": [
        "55464657044963196816950587289035428064568320970692304673817341489687656669184",
        "55464657044963196816950587289035428064568320970692304673817341489687665059842",
        "55464657044963196816950587289035428064568320970692304673817341489687665059840"
      ]
    },
    {
      "x": 367,
      "y": 302,
      "size": 1,
      "price": "4683000000000000000000",
      "reserved": "",
      "salt": "0x077297aedc4fe5845b99d3c5f4aa3ffdb49f7cff713bfff12b59dc8b2a20bd4d",
      "assetIds": [
        "55464657044963196816950587289035428064568320970692304673817341489687656669184",
        "55464657044963196816950587289035428064568320970692304673817341489687665059843",
        "55464657044963196816950587289035428064568320970692304673817341489687665059840"
      ]
    },
    {
      "x": 367,
      "y": 303,
      "size": 1,
      "price": "1011000000000000000000",
      "reserved": "0x7a9fe22691c811ea339d9b73150e6911a5343dca",
      "salt": "0xb794389bd0183e59111e2ec9c751be9ee1839dfedc65f9e592cfc8fc65fb966f",
      "assetIds": []
    },
    {
      "x": 367,
      "y": 304,
      "size": 1,
      "price": "4683000000000000000000",
      "reserved": "",
      "salt": "0xe51e94b453147c36d72def8a6c3c512af25590fe110220d3ce0db3d51b0f73b2",
      "assetIds": [
        "55464657044963196816950587289035428064568320970692304673817341489687656669187",
        "55464657044963196816950587289035428064568320970692304673817341489687665059843",
        "55464657044963196816950587289035428064568320970692304673817341489687665059841"
      ]
    },
    {
      "x": 367,
      "y": 305,
      "size": 1,
      "price": "4683000000000000000000",
      "reserved": "",
      "salt": "0x426638fe82b631c96c399b56c67dc7f1f565429e2e98cc4883e9c7d526251d1d",
      "assetIds": [
        "55464657044963196816950587289035428064568320970692304673817341489687656669187",
        "55464657044963196816950587289035428064568320970692304673817341489687665059843",
        "55464657044963196816950587289035428064568320970692304673817341489687665059841"
      ]
    },
    {
      "x": 367,
      "y": 306,
      "size": 1,
      "price": "4683000000000000000000",
      "reserved": "",
      "salt": "0x5c549b676e71392a37e8b1d300b16b9f5ef757df6a5ceb0791eff2cfad2782a8",
      "assetIds": [
        "55464657044963196816950587289035428064568320970692304673817341489687656669186",
        "55464657044963196816950587289035428064568320970692304673817341489687665059842",
        "55464657044963196816950587289035428064568320970692304673817341489687665059841"
      ]
    },
    {
      "x": 368,
      "y": 231,
      "size": 1,
      "price": "4683000000000000000000",
      "reserved": "",
      "salt": "0x6ac0768b54ca8853236d8a389f4abde1ab212fbb039ef6b04f5acd69c05f3383",
      "assetIds": [
        "55464657044963196816950587289035428064568320970692304673817341489687656669187",
        "55464657044963196816950587289035428064568320970692304673817341489687665059842",
        "55464657044963196816950587289035428064568320970692304673817341489687665059841"
      ]
    },
    {
      "x": 368,
      "y": 232,
      "size": 1,
      "price": "4683000000000000000000",
      "reserved": "",
      "salt": "0x9efd97259b6a614a7ada694ce370c046bd3374475b41666db77690ca65927c31",
      "assetIds": [
        "55464657044963196816950587289035428064568320970692304673817341489687656669187",
        "55464657044963196816950587289035428064568320970692304673817341489687665059844",
        "55464657044963196816950587289035428064568320970692304673817341489687665059841"
      ]
    },
    {
      "x": 368,
      "y": 233,
      "size": 1,
      "price": "4683000000000000000000",
      "reserved": "",
      "salt": "0xfb255791e3baf48585be2145bba58292885a4806f8deb19d2fd57e4d6317d80f",
      "assetIds": [
        "55464657044963196816950587289035428064568320970692304673817341489687656669187",
        "55464657044963196816950587289035428064568320970692304673817341489687665059844",
        "55464657044963196816950587289035428064568320970692304673817341489687665059841"
      ]
    },
    {
      "x": 368,
      "y": 234,
      "size": 1,
      "price": "4683000000000000000000",
      "reserved": "",
      "salt": "0x8b4f0e494c37fa73d808407b720a730994b08891ab01bcd7428d3f4e54d11eef",
      "assetIds": [
        "55464657044963196816950587289035428064568320970692304673817341489687656669185",
        "55464657044963196816950587289035428064568320970692304673817341489687665059842",
        "55464657044963196816950587289035428064568320970692304673817341489687665059840"
      ]
    },
    {
      "x": 368,
      "y": 235,
      "size": 1,
      "price": "4683000000000000000000",
      "reserved": "",
      "salt": "0xc07cf64ed3be90b91afe1934b2073628376c89b3f89cf28e0afeb8f59f211cbf",
      "assetIds": [
        "55464657044963196816950587289035428064568320970692304673817341489687656669185",
        "55464657044963196816950587289035428064568320970692304673817341489687665059843",
        "55464657044963196816950587289035428064568320970692304673817341489687665059840"
      ]
    },
    {
      "x": 368,
      "y": 236,
      "size": 1,
      "price": "4683000000000000000000",
      "reserved": "",
      "salt": "0x2f35d96ecbb348e175df845af3fe7a20e36bf38b5f59fb7feceb6b586e59d094",
      "assetIds": [
        "55464657044963196816950587289035428064568320970692304673817341489687656669186",
        "55464657044963196816950587289035428064568320970692304673817341489687665059842",
        "55464657044963196816950587289035428064568320970692304673817341489687665059841"
      ]
    },
    {
      "x": 368,
      "y": 237,
      "size": 1,
      "price": "4683000000000000000000",
      "reserved": "",
      "salt": "0x45646c8717908c77b8125d278812bfc28ce1cf33f58745831a87863d1ab410ad",
      "assetIds": [
        "55464657044963196816950587289035428064568320970692304673817341489687656669186",
        "55464657044963196816950587289035428064568320970692304673817341489687665059843",
        "55464657044963196816950587289035428064568320970692304673817341489687665059841"
      ]
    },
    {
      "x": 368,
      "y": 238,
      "size": 1,
      "price": "4683000000000000000000",
      "reserved": "",
      "salt": "0xb501dcfca1564353e1f37275571bc12245f2db60d88d77b694c605cb2ca3b375",
      "assetIds": [
        "55464657044963196816950587289035428064568320970692304673817341489687656669186",
        "55464657044963196816950587289035428064568320970692304673817341489687665059842",
        "55464657044963196816950587289035428064568320970692304673817341489687665059841"
      ]
    },
    {
      "x": 368,
      "y": 239,
      "size": 1,
      "price": "4683000000000000000000",
      "reserved": "",
      "salt": "0x09c74a344cab7dba644940286730a33acc437a2c2270b3c33be53a5a5914cf01",
      "assetIds": [
        "55464657044963196816950587289035428064568320970692304673817341489687656669186",
        "55464657044963196816950587289035428064568320970692304673817341489687665059842",
        "55464657044963196816950587289035428064568320970692304673817341489687665059841"
      ]
    },
    {
      "x": 368,
      "y": 264,
      "size": 1,
      "price": "4683000000000000000000",
      "reserved": "",
      "salt": "0x97e4b91080a6cc983c0391337ae910679e5750df26b36c06048028ca3c750139",
      "assetIds": [
        "55464657044963196816950587289035428064568320970692304673817341489687656669186",
        "55464657044963196816950587289035428064568320970692304673817341489687665059843",
        "55464657044963196816950587289035428064568320970692304673817341489687665059841"
      ]
    },
    {
      "x": 368,
      "y": 265,
      "size": 1,
      "price": "4683000000000000000000",
      "reserved": "",
      "salt": "0xc8d18b7c73a6cb9cf345ed23081bfe7c4abe1bab68bdebd4d3cec2e939754d81",
      "assetIds": [
        "55464657044963196816950587289035428064568320970692304673817341489687656669186",
        "55464657044963196816950587289035428064568320970692304673817341489687665059843",
        "55464657044963196816950587289035428064568320970692304673817341489687665059841"
      ]
    },
    {
      "x": 368,
      "y": 266,
      "size": 1,
      "price": "4683000000000000000000",
      "reserved": "",
      "salt": "0x8933ad82212e8f2ff62d4ec10847eddf95909a0ec66c1802bca3194c19926e46",
      "assetIds": [
        "55464657044963196816950587289035428064568320970692304673817341489687656669184",
        "55464657044963196816950587289035428064568320970692304673817341489687665059842",
        "55464657044963196816950587289035428064568320970692304673817341489687665059840"
      ]
    },
    {
      "x": 368,
      "y": 288,
      "size": 1,
      "price": "4683000000000000000000",
      "reserved": "",
      "salt": "0x79f8acebfe2593eda283cb0ba0996919ae0f0c512d7c0fedffb820fc2f73cc01",
      "assetIds": [
        "55464657044963196816950587289035428064568320970692304673817341489687656669185",
        "55464657044963196816950587289035428064568320970692304673817341489687665059842",
        "55464657044963196816950587289035428064568320970692304673817341489687665059840"
      ]
    },
    {
      "x": 368,
      "y": 289,
      "size": 1,
      "price": "4683000000000000000000",
      "reserved": "",
      "salt": "0xc35604546bfae6a25617028d809a5bde02851dae2caac5e2212936c19843189c",
      "assetIds": [
        "55464657044963196816950587289035428064568320970692304673817341489687656669186",
        "55464657044963196816950587289035428064568320970692304673817341489687665059842",
        "55464657044963196816950587289035428064568320970692304673817341489687665059841"
      ]
    },
    {
      "x": 368,
      "y": 290,
      "size": 1,
      "price": "4683000000000000000000",
      "reserved": "",
      "salt": "0x17ada5ba30f33d16dda93164f0a1a518a5b5f4a07ea3fa7ccfb9bbefb74e559a",
      "assetIds": [
        "55464657044963196816950587289035428064568320970692304673817341489687656669185",
        "55464657044963196816950587289035428064568320970692304673817341489687665059844",
        "55464657044963196816950587289035428064568320970692304673817341489687665059840"
      ]
    },
    {
      "x": 368,
      "y": 294,
      "size": 1,
      "price": "4683000000000000000000",
      "reserved": "",
      "salt": "0x2cec149b86e903f802565c7a19ee31dd7bacba101558b0ff103682562a480ca7",
      "assetIds": [
        "55464657044963196816950587289035428064568320970692304673817341489687656669185",
        "55464657044963196816950587289035428064568320970692304673817341489687665059843",
        "55464657044963196816950587289035428064568320970692304673817341489687665059840"
      ]
    },
    {
      "x": 368,
      "y": 295,
      "size": 1,
      "price": "4683000000000000000000",
      "reserved": "",
      "salt": "0xa887ca4b534c30fe5bef2154c06445ad69b0d9b81f1b4e303da7ceb6f5755296",
      "assetIds": [
        "55464657044963196816950587289035428064568320970692304673817341489687656669185",
        "55464657044963196816950587289035428064568320970692304673817341489687665059842",
        "55464657044963196816950587289035428064568320970692304673817341489687665059840"
      ]
    },
    {
      "x": 368,
      "y": 296,
      "size": 1,
      "price": "4683000000000000000000",
      "reserved": "",
      "salt": "0xd53b31c11a37e8c9046f0b3ee6ce323bcf42984819a49e74ec50f64af791e968",
      "assetIds": [
        "55464657044963196816950587289035428064568320970692304673817341489687656669186",
        "55464657044963196816950587289035428064568320970692304673817341489687665059844",
        "55464657044963196816950587289035428064568320970692304673817341489687665059841"
      ]
    },
    {
      "x": 368,
      "y": 297,
      "size": 1,
      "price": "4683000000000000000000",
      "reserved": "",
      "salt": "0x5947971b624ac4cd69c6ee9117096666b60c1a31d0ece7dccfcf165455775ba1",
      "assetIds": [
        "55464657044963196816950587289035428064568320970692304673817341489687656669186",
        "55464657044963196816950587289035428064568320970692304673817341489687665059844",
        "55464657044963196816950587289035428064568320970692304673817341489687665059841"
      ]
    },
    {
      "x": 368,
      "y": 298,
      "size": 1,
      "price": "4683000000000000000000",
      "reserved": "",
      "salt": "0xde890038e2cc94523ac59e20e632d7764d6c396ff2bbc77885765bb4367a7be4",
      "assetIds": [
        "55464657044963196816950587289035428064568320970692304673817341489687656669186",
        "55464657044963196816950587289035428064568320970692304673817341489687665059843",
        "55464657044963196816950587289035428064568320970692304673817341489687665059841"
      ]
    },
    {
      "x": 368,
      "y": 299,
      "size": 1,
      "price": "4683000000000000000000",
      "reserved": "",
      "salt": "0x57a570f9e5ba3cf4274c3db7ad1d6494adfd685cce14be99ce13c5840c40200f",
      "assetIds": [
        "55464657044963196816950587289035428064568320970692304673817341489687656669187",
        "55464657044963196816950587289035428064568320970692304673817341489687665059842",
        "55464657044963196816950587289035428064568320970692304673817341489687665059841"
      ]
    },
    {
      "x": 368,
      "y": 300,
      "size": 1,
      "price": "4683000000000000000000",
      "reserved": "",
      "salt": "0x7b30772fda3aaf94e748189ecfa1c34ec612d7d22c79b88515ccd1077be64a5e",
      "assetIds": [
        "55464657044963196816950587289035428064568320970692304673817341489687656669186",
        "55464657044963196816950587289035428064568320970692304673817341489687665059842",
        "55464657044963196816950587289035428064568320970692304673817341489687665059841"
      ]
    },
    {
      "x": 368,
      "y": 301,
      "size": 1,
      "price": "4683000000000000000000",
      "reserved": "",
      "salt": "0xd72be36fff411c7511e88eff81c11806bb3a48653de4ffec6abf3c08db7f5548",
      "assetIds": [
        "55464657044963196816950587289035428064568320970692304673817341489687656669186",
        "55464657044963196816950587289035428064568320970692304673817341489687665059843",
        "55464657044963196816950587289035428064568320970692304673817341489687665059841"
      ]
    },
    {
      "x": 368,
      "y": 302,
      "size": 1,
      "price": "4683000000000000000000",
      "reserved": "",
      "salt": "0x3ad5466690d41e5314312b2a5481b7f069841ec016afab65ea552037d2a12efb",
      "assetIds": [
        "55464657044963196816950587289035428064568320970692304673817341489687656669187",
        "55464657044963196816950587289035428064568320970692304673817341489687665059842",
        "55464657044963196816950587289035428064568320970692304673817341489687665059841"
      ]
    },
    {
      "x": 368,
      "y": 303,
      "size": 1,
      "price": "4683000000000000000000",
      "reserved": "",
      "salt": "0xf5cddbdb43d3cceb0ee19f4fc39aa8ff95571c7611dd97dfaf2591f22fa65dc2",
      "assetIds": [
        "55464657044963196816950587289035428064568320970692304673817341489687656669186",
        "55464657044963196816950587289035428064568320970692304673817341489687665059842",
        "55464657044963196816950587289035428064568320970692304673817341489687665059841"
      ]
    },
    {
      "x": 368,
      "y": 304,
      "size": 1,
      "price": "4683000000000000000000",
      "reserved": "",
      "salt": "0x6eea0c849542119ce9092e635581e297b53559fe0b3c18571eb60ec27e1e51b9",
      "assetIds": [
        "55464657044963196816950587289035428064568320970692304673817341489687656669187",
        "55464657044963196816950587289035428064568320970692304673817341489687665059843",
        "55464657044963196816950587289035428064568320970692304673817341489687665059841"
      ]
    },
    {
      "x": 368,
      "y": 305,
      "size": 1,
      "price": "4683000000000000000000",
      "reserved": "",
      "salt": "0x889769dd0be8db694c26dbfa5a2a4aede00ee7fe6fb76ddf43af7f232328b583",
      "assetIds": [
        "55464657044963196816950587289035428064568320970692304673817341489687656669185",
        "55464657044963196816950587289035428064568320970692304673817341489687665059842",
        "55464657044963196816950587289035428064568320970692304673817341489687665059840"
      ]
    },
    {
      "x": 369,
      "y": 231,
      "size": 1,
      "price": "4683000000000000000000",
      "reserved": "",
      "salt": "0x780f92aacfad19a293fab29fb79c578e8f7b0bac68e59ea9baff9cdbf5be2f25",
      "assetIds": [
        "55464657044963196816950587289035428064568320970692304673817341489687656669184",
        "55464657044963196816950587289035428064568320970692304673817341489687665059844",
        "55464657044963196816950587289035428064568320970692304673817341489687665059840"
      ]
    },
    {
      "x": 369,
      "y": 232,
      "size": 1,
      "price": "4683000000000000000000",
      "reserved": "",
      "salt": "0xfa5765190f69871bc1aa48f843f05bc2737ade9d09baa7aea31dc367a72a86e0",
      "assetIds": [
        "55464657044963196816950587289035428064568320970692304673817341489687656669184",
        "55464657044963196816950587289035428064568320970692304673817341489687665059843",
        "55464657044963196816950587289035428064568320970692304673817341489687665059840"
      ]
    },
    {
      "x": 369,
      "y": 233,
      "size": 1,
      "price": "4683000000000000000000",
      "reserved": "",
      "salt": "0x6a2d8e4d19a609beca7b9ebcd89e7aa1e22e07f615e9dabf4ef88abad12f3292",
      "assetIds": [
        "55464657044963196816950587289035428064568320970692304673817341489687656669184",
        "55464657044963196816950587289035428064568320970692304673817341489687665059843",
        "55464657044963196816950587289035428064568320970692304673817341489687665059840"
      ]
    },
    {
      "x": 369,
      "y": 234,
      "size": 1,
      "price": "4683000000000000000000",
      "reserved": "",
      "salt": "0x716959bd003b367ca900971d849ad3a1753216b39b6eb0cdafaf1d41c52731af",
      "assetIds": [
        "55464657044963196816950587289035428064568320970692304673817341489687656669187",
        "55464657044963196816950587289035428064568320970692304673817341489687665059844",
        "55464657044963196816950587289035428064568320970692304673817341489687665059841"
      ]
    },
    {
      "x": 369,
      "y": 235,
      "size": 1,
      "price": "4683000000000000000000",
      "reserved": "",
      "salt": "0xe8d0e1c81b9ba6b19121637e314e382a2b29120badfd9f39b015fbb888a7649a",
      "assetIds": [
        "55464657044963196816950587289035428064568320970692304673817341489687656669185",
        "55464657044963196816950587289035428064568320970692304673817341489687665059844",
        "55464657044963196816950587289035428064568320970692304673817341489687665059840"
      ]
    },
    {
      "x": 369,
      "y": 236,
      "size": 1,
      "price": "4683000000000000000000",
      "reserved": "",
      "salt": "0x9f24f0aa227bf57310b973c4fe74fbac8be48c262421540b698cf233099324ed",
      "assetIds": [
        "55464657044963196816950587289035428064568320970692304673817341489687656669185",
        "55464657044963196816950587289035428064568320970692304673817341489687665059843",
        "55464657044963196816950587289035428064568320970692304673817341489687665059840"
      ]
    },
    {
      "x": 369,
      "y": 237,
      "size": 1,
      "price": "4683000000000000000000",
      "reserved": "",
      "salt": "0xf88ec77050a05a7f9b13f95488a9adf5faff2c4a13d4dbb3b1877ce582c4d174",
      "assetIds": [
        "55464657044963196816950587289035428064568320970692304673817341489687656669187",
        "55464657044963196816950587289035428064568320970692304673817341489687665059842",
        "55464657044963196816950587289035428064568320970692304673817341489687665059841"
      ]
    },
    {
      "x": 369,
      "y": 238,
      "size": 1,
      "price": "4683000000000000000000",
      "reserved": "",
      "salt": "0x9240f89d4613475f04b5f4dc0fa5ad69de552b41c22ec7243ae56a7a4a431179",
      "assetIds": [
        "55464657044963196816950587289035428064568320970692304673817341489687656669187",
        "55464657044963196816950587289035428064568320970692304673817341489687665059844",
        "55464657044963196816950587289035428064568320970692304673817341489687665059841"
      ]
    },
    {
      "x": 369,
      "y": 239,
      "size": 1,
      "price": "4683000000000000000000",
      "reserved": "",
      "salt": "0x3d0556305359223d91499a8a1692aeec13e314c480c82b7e6928d880d0154ed2",
      "assetIds": [
        "55464657044963196816950587289035428064568320970692304673817341489687656669184",
        "55464657044963196816950587289035428064568320970692304673817341489687665059842",
        "55464657044963196816950587289035428064568320970692304673817341489687665059840"
      ]
    },
    {
      "x": 369,
      "y": 264,
      "size": 1,
      "price": "4683000000000000000000",
      "reserved": "",
      "salt": "0xbae86080cb4e0c79b37f335dd4df6066ea46380c757c4635c764735674dc8075",
      "assetIds": [
        "55464657044963196816950587289035428064568320970692304673817341489687656669187",
        "55464657044963196816950587289035428064568320970692304673817341489687665059842",
        "55464657044963196816950587289035428064568320970692304673817341489687665059841"
      ]
    },
    {
      "x": 369,
      "y": 265,
      "size": 1,
      "price": "4683000000000000000000",
      "reserved": "",
      "salt": "0x444b3870b2f65529a1a052141cb5a632e223d043da4e72c62c87459d9c7504d1",
      "assetIds": [
        "55464657044963196816950587289035428064568320970692304673817341489687656669184",
        "55464657044963196816950587289035428064568320970692304673817341489687665059844",
        "55464657044963196816950587289035428064568320970692304673817341489687665059840"
      ]
    },
    {
      "x": 369,
      "y": 266,
      "size": 1,
      "price": "4683000000000000000000",
      "reserved": "",
      "salt": "0x9ade65ee63ab320da181e12903e1891a5e0f0208953e7beb14d8507e1b0eefb0",
      "assetIds": [
        "55464657044963196816950587289035428064568320970692304673817341489687656669184",
        "55464657044963196816950587289035428064568320970692304673817341489687665059842",
        "55464657044963196816950587289035428064568320970692304673817341489687665059840"
      ]
    },
    {
      "x": 369,
      "y": 267,
      "size": 1,
      "price": "4683000000000000000000",
      "reserved": "",
      "salt": "0x52d1810981e4504476f25438f5fe81fdd63f63b0da67f46ba0c4e1c81817277e",
      "assetIds": [
        "55464657044963196816950587289035428064568320970692304673817341489687656669186",
        "55464657044963196816950587289035428064568320970692304673817341489687665059843",
        "55464657044963196816950587289035428064568320970692304673817341489687665059841"
      ]
    },
    {
      "x": 369,
      "y": 268,
      "size": 1,
      "price": "4683000000000000000000",
      "reserved": "",
      "salt": "0x8b09aa686ac5b59d6b11593652491a7c5e5b1ec4cebe3ceb1a692b11e43e8451",
      "assetIds": [
        "55464657044963196816950587289035428064568320970692304673817341489687656669187",
        "55464657044963196816950587289035428064568320970692304673817341489687665059842",
        "55464657044963196816950587289035428064568320970692304673817341489687665059841"
      ]
    },
    {
      "x": 369,
      "y": 269,
      "size": 1,
      "price": "4683000000000000000000",
      "reserved": "",
      "salt": "0x104b76a8a9b9148be51cf5f76f5c089d95ed9aa786285678167dc9b4698ad477",
      "assetIds": [
        "55464657044963196816950587289035428064568320970692304673817341489687656669184",
        "55464657044963196816950587289035428064568320970692304673817341489687665059844",
        "55464657044963196816950587289035428064568320970692304673817341489687665059840"
      ]
    },
    {
      "x": 369,
      "y": 288,
      "size": 1,
      "price": "4683000000000000000000",
      "reserved": "",
      "salt": "0xd6cef0a6edcd0c109ac3259e58d1cf661d19fa265c9f37e894580472e7e5c04b",
      "assetIds": [
        "55464657044963196816950587289035428064568320970692304673817341489687656669184",
        "55464657044963196816950587289035428064568320970692304673817341489687665059843",
        "55464657044963196816950587289035428064568320970692304673817341489687665059840"
      ]
    },
    {
      "x": 369,
      "y": 289,
      "size": 1,
      "price": "4683000000000000000000",
      "reserved": "",
      "salt": "0xe5c8167e0538c8a4c87cbc1db5ee5f067f29d4b1378d9d431a48d91b2859383f",
      "assetIds": [
        "55464657044963196816950587289035428064568320970692304673817341489687656669185",
        "55464657044963196816950587289035428064568320970692304673817341489687665059843",
        "55464657044963196816950587289035428064568320970692304673817341489687665059840"
      ]
    },
    {
      "x": 369,
      "y": 290,
      "size": 1,
      "price": "4683000000000000000000",
      "reserved": "",
      "salt": "0x0f39c25770b054932bd41e455081cd1d3a4072d2c8ff9e68aaea06e1d6f9ab3e",
      "assetIds": [
        "55464657044963196816950587289035428064568320970692304673817341489687656669186",
        "55464657044963196816950587289035428064568320970692304673817341489687665059844",
        "55464657044963196816950587289035428064568320970692304673817341489687665059841"
      ]
    },
    {
      "x": 369,
      "y": 291,
      "size": 1,
      "price": "4683000000000000000000",
      "reserved": "",
      "salt": "0x873ec40b482e3258d6d89cc77e53d914fa373eaf4ac5b8dea8fe63b1200004d7",
      "assetIds": [
        "55464657044963196816950587289035428064568320970692304673817341489687656669187",
        "55464657044963196816950587289035428064568320970692304673817341489687665059843",
        "55464657044963196816950587289035428064568320970692304673817341489687665059841"
      ]
    },
    {
      "x": 369,
      "y": 292,
      "size": 1,
      "price": "4683000000000000000000",
      "reserved": "",
      "salt": "0x62aca605e2bad4bc60dea6769839097ff38583ec6c00aa76eb318e42832d0ef1",
      "assetIds": [
        "55464657044963196816950587289035428064568320970692304673817341489687656669187",
        "55464657044963196816950587289035428064568320970692304673817341489687665059843",
        "55464657044963196816950587289035428064568320970692304673817341489687665059841"
      ]
    },
    {
      "x": 369,
      "y": 293,
      "size": 1,
      "price": "4683000000000000000000",
      "reserved": "",
      "salt": "0x04830c12fa28d765bf49581b8148a60a7b1ce11e039af773089dc8f51154d6cc",
      "assetIds": [
        "55464657044963196816950587289035428064568320970692304673817341489687656669187",
        "55464657044963196816950587289035428064568320970692304673817341489687665059842",
        "55464657044963196816950587289035428064568320970692304673817341489687665059841"
      ]
    },
    {
      "x": 369,
      "y": 294,
      "size": 1,
      "price": "4683000000000000000000",
      "reserved": "",
      "salt": "0x1676968a95cd014cb9bb682feef15fb0657f21b2c9d4d4253e431a0ac6cb43af",
      "assetIds": [
        "55464657044963196816950587289035428064568320970692304673817341489687656669185",
        "55464657044963196816950587289035428064568320970692304673817341489687665059842",
        "55464657044963196816950587289035428064568320970692304673817341489687665059840"
      ]
    },
    {
      "x": 369,
      "y": 295,
      "size": 1,
      "price": "4683000000000000000000",
      "reserved": "",
      "salt": "0xb9911c5c106f760f25751310b96d3844ca4fc311c21d58afdae5e41903d92f5b",
      "assetIds": [
        "55464657044963196816950587289035428064568320970692304673817341489687656669186",
        "55464657044963196816950587289035428064568320970692304673817341489687665059842",
        "55464657044963196816950587289035428064568320970692304673817341489687665059841"
      ]
    },
    {
      "x": 369,
      "y": 296,
      "size": 1,
      "price": "4683000000000000000000",
      "reserved": "",
      "salt": "0xdfa66c2370d8bad8eab4fb8bdb07df4e8b8eca603a7ebd06d9468262d1dd23cd",
      "assetIds": [
        "55464657044963196816950587289035428064568320970692304673817341489687656669186",
        "55464657044963196816950587289035428064568320970692304673817341489687665059844",
        "55464657044963196816950587289035428064568320970692304673817341489687665059841"
      ]
    },
    {
      "x": 369,
      "y": 297,
      "size": 1,
      "price": "4683000000000000000000",
      "reserved": "",
      "salt": "0x9e777703a995b1307b274637e6924699141788352b9b8e10e497023d396b9095",
      "assetIds": [
        "55464657044963196816950587289035428064568320970692304673817341489687656669185",
        "55464657044963196816950587289035428064568320970692304673817341489687665059843",
        "55464657044963196816950587289035428064568320970692304673817341489687665059840"
      ]
    },
    {
      "x": 369,
      "y": 298,
      "size": 1,
      "price": "4683000000000000000000",
      "reserved": "",
      "salt": "0x6d754b877f73b3303ab04256ba2db54c67bb4b387dccf9a3dce46195158d8a50",
      "assetIds": [
        "55464657044963196816950587289035428064568320970692304673817341489687656669186",
        "55464657044963196816950587289035428064568320970692304673817341489687665059844",
        "55464657044963196816950587289035428064568320970692304673817341489687665059841"
      ]
    },
    {
      "x": 369,
      "y": 299,
      "size": 1,
      "price": "4683000000000000000000",
      "reserved": "",
      "salt": "0xb54c97c9a19cf7fdc565005bc44d8878eff8d79d1a31c23ff6ba0c0e9f3d2d30",
      "assetIds": [
        "55464657044963196816950587289035428064568320970692304673817341489687656669187",
        "55464657044963196816950587289035428064568320970692304673817341489687665059844",
        "55464657044963196816950587289035428064568320970692304673817341489687665059841"
      ]
    },
    {
      "x": 369,
      "y": 300,
      "size": 1,
      "price": "4683000000000000000000",
      "reserved": "",
      "salt": "0x2e88dbc48188c50ebcb6876283e0fe77215a197b79cb417e16dd0fb4de453381",
      "assetIds": [
        "55464657044963196816950587289035428064568320970692304673817341489687656669187",
        "55464657044963196816950587289035428064568320970692304673817341489687665059842",
        "55464657044963196816950587289035428064568320970692304673817341489687665059841"
      ]
    },
    {
      "x": 369,
      "y": 301,
      "size": 1,
      "price": "4683000000000000000000",
      "reserved": "",
      "salt": "0x22e98bf3bbc0a90e9ccc8f7e90e0fffb91beff7f8455e234cccd32cf6f39d22a",
      "assetIds": [
        "55464657044963196816950587289035428064568320970692304673817341489687656669186",
        "55464657044963196816950587289035428064568320970692304673817341489687665059844",
        "55464657044963196816950587289035428064568320970692304673817341489687665059841"
      ]
    },
    {
      "x": 369,
      "y": 302,
      "size": 1,
      "price": "4683000000000000000000",
      "reserved": "",
      "salt": "0x229e0c95d7d44ce37885cc68abd03337ad4973dd579bcb2d7457b9db57f8a0ff",
      "assetIds": [
        "55464657044963196816950587289035428064568320970692304673817341489687656669184",
        "55464657044963196816950587289035428064568320970692304673817341489687665059842",
        "55464657044963196816950587289035428064568320970692304673817341489687665059840"
      ]
    },
    {
      "x": 369,
      "y": 303,
      "size": 1,
      "price": "4683000000000000000000",
      "reserved": "",
      "salt": "0xe615c680d0ee099fdeedc9ee398fd84f8ad09f0b2602951b6fefada86bf601ae",
      "assetIds": [
        "55464657044963196816950587289035428064568320970692304673817341489687656669184",
        "55464657044963196816950587289035428064568320970692304673817341489687665059843",
        "55464657044963196816950587289035428064568320970692304673817341489687665059840"
      ]
    },
    {
      "x": 369,
      "y": 304,
      "size": 1,
      "price": "4683000000000000000000",
      "reserved": "",
      "salt": "0x678be152ce6ba6ac53f7921279ba4c18885bfd138f56b3670dafe09bb8a91510",
      "assetIds": [
        "55464657044963196816950587289035428064568320970692304673817341489687656669184",
        "55464657044963196816950587289035428064568320970692304673817341489687665059844",
        "55464657044963196816950587289035428064568320970692304673817341489687665059840"
      ]
    },
    {
      "x": 369,
      "y": 305,
      "size": 1,
      "price": "4683000000000000000000",
      "reserved": "",
      "salt": "0x66989f90ca816107dd70320ab779b550f776321df4b8d82d34d0c67c44c54c6e",
      "assetIds": [
        "55464657044963196816950587289035428064568320970692304673817341489687656669184",
        "55464657044963196816950587289035428064568320970692304673817341489687665059843",
        "55464657044963196816950587289035428064568320970692304673817341489687665059840"
      ]
    },
    {
      "x": 370,
      "y": 231,
      "size": 1,
      "price": "4683000000000000000000",
      "reserved": "",
      "salt": "0xdb4d6c6e233d17694ed1772ae26ba064eb83957bc18c0f38cbe0f661fe8a69a7",
      "assetIds": [
        "55464657044963196816950587289035428064568320970692304673817341489687656669187",
        "55464657044963196816950587289035428064568320970692304673817341489687665059842",
        "55464657044963196816950587289035428064568320970692304673817341489687665059841"
      ]
    },
    {
      "x": 370,
      "y": 232,
      "size": 1,
      "price": "1011000000000000000000",
      "reserved": "0x7a9fe22691c811ea339d9b73150e6911a5343dca",
      "salt": "0x52d8b24fefe0251583543203bfe6a2df47f6ac51ca76387d87b281326e1cba75",
      "assetIds": []
    },
    {
      "x": 370,
      "y": 233,
      "size": 1,
      "price": "4683000000000000000000",
      "reserved": "",
      "salt": "0x889b1bae9203d5c30f9523c8208537674bf521b03970c4d61dd7d514da103769",
      "assetIds": [
        "55464657044963196816950587289035428064568320970692304673817341489687656669187",
        "55464657044963196816950587289035428064568320970692304673817341489687665059844",
        "55464657044963196816950587289035428064568320970692304673817341489687665059841"
      ]
    },
    {
      "x": 370,
      "y": 234,
      "size": 1,
      "price": "4683000000000000000000",
      "reserved": "",
      "salt": "0x6d973d540d2179779275ddc04c8cf13cf00385eaa2d5aba0d885452646f1b1ba",
      "assetIds": [
        "55464657044963196816950587289035428064568320970692304673817341489687656669185",
        "55464657044963196816950587289035428064568320970692304673817341489687665059842",
        "55464657044963196816950587289035428064568320970692304673817341489687665059840"
      ]
    },
    {
      "x": 370,
      "y": 235,
      "size": 1,
      "price": "4683000000000000000000",
      "reserved": "",
      "salt": "0xff0b1e3de8b4c185f58d1fdea15e555dec22cd0762b7328f28c8e677d6a60b18",
      "assetIds": [
        "55464657044963196816950587289035428064568320970692304673817341489687656669185",
        "55464657044963196816950587289035428064568320970692304673817341489687665059842",
        "55464657044963196816950587289035428064568320970692304673817341489687665059840"
      ]
    },
    {
      "x": 370,
      "y": 236,
      "size": 1,
      "price": "4683000000000000000000",
      "reserved": "",
      "salt": "0x98459a5a9808d7d2fc531869f5f33664b74ef70ca3dd3847ed84696e4d9c5e4f",
      "assetIds": [
        "55464657044963196816950587289035428064568320970692304673817341489687656669184",
        "55464657044963196816950587289035428064568320970692304673817341489687665059843",
        "55464657044963196816950587289035428064568320970692304673817341489687665059840"
      ]
    },
    {
      "x": 370,
      "y": 237,
      "size": 1,
      "price": "4683000000000000000000",
      "reserved": "",
      "salt": "0x5379556882f51d3cea63d79c318f5bbb9800733ba6ab28dfd172df61b4a6adc8",
      "assetIds": [
        "55464657044963196816950587289035428064568320970692304673817341489687656669186",
        "55464657044963196816950587289035428064568320970692304673817341489687665059843",
        "55464657044963196816950587289035428064568320970692304673817341489687665059841"
      ]
    },
    {
      "x": 370,
      "y": 238,
      "size": 1,
      "price": "4683000000000000000000",
      "reserved": "",
      "salt": "0xeb3ca84d5f25e5ac7706a31389d80f5233f8a91b02646f0b1fa4e7ad950db96f",
      "assetIds": [
        "55464657044963196816950587289035428064568320970692304673817341489687656669186",
        "55464657044963196816950587289035428064568320970692304673817341489687665059844",
        "55464657044963196816950587289035428064568320970692304673817341489687665059841"
      ]
    },
    {
      "x": 370,
      "y": 239,
      "size": 1,
      "price": "4683000000000000000000",
      "reserved": "",
      "salt": "0x6e23a029c225ff161dcc71dbf0c0cc4ee7fb9349fe314735b45753bebfcd8837",
      "assetIds": [
        "55464657044963196816950587289035428064568320970692304673817341489687656669185",
        "55464657044963196816950587289035428064568320970692304673817341489687665059842",
        "55464657044963196816950587289035428064568320970692304673817341489687665059840"
      ]
    },
    {
      "x": 370,
      "y": 264,
      "size": 1,
      "price": "1011000000000000000000",
      "reserved": "0x7a9fe22691c811ea339d9b73150e6911a5343dca",
      "salt": "0x99bc94b67e8c5103730681ba423b43646b65c5eb1736335defc6b79356f7b66c",
      "assetIds": []
    },
    {
      "x": 370,
      "y": 265,
      "size": 1,
      "price": "4683000000000000000000",
      "reserved": "",
      "salt": "0x8961925ac7acd378fb36d700c0224723381a805e964812ff532d0483d8cbcd74",
      "assetIds": [
        "55464657044963196816950587289035428064568320970692304673817341489687656669185",
        "55464657044963196816950587289035428064568320970692304673817341489687665059842",
        "55464657044963196816950587289035428064568320970692304673817341489687665059840"
      ]
    },
    {
      "x": 370,
      "y": 266,
      "size": 1,
      "price": "4683000000000000000000",
      "reserved": "",
      "salt": "0x483e4d09fb959cc9aee45a4d7504b69f91c668214bb24138994fa513ce7cb441",
      "assetIds": [
        "55464657044963196816950587289035428064568320970692304673817341489687656669186",
        "55464657044963196816950587289035428064568320970692304673817341489687665059842",
        "55464657044963196816950587289035428064568320970692304673817341489687665059841"
      ]
    },
    {
      "x": 370,
      "y": 267,
      "size": 1,
      "price": "4683000000000000000000",
      "reserved": "",
      "salt": "0x13715e38e5a279e25020a34a5a9d2490d626687e7a4220dae4c0dfa62b39da98",
      "assetIds": [
        "55464657044963196816950587289035428064568320970692304673817341489687656669186",
        "55464657044963196816950587289035428064568320970692304673817341489687665059842",
        "55464657044963196816950587289035428064568320970692304673817341489687665059841"
      ]
    },
    {
      "x": 370,
      "y": 268,
      "size": 1,
      "price": "4683000000000000000000",
      "reserved": "",
      "salt": "0xa8720e9796c4a81506d7dda4fa5d023c84f074807e2ba166d5f9427be67a9914",
      "assetIds": [
        "55464657044963196816950587289035428064568320970692304673817341489687656669185",
        "55464657044963196816950587289035428064568320970692304673817341489687665059843",
        "55464657044963196816950587289035428064568320970692304673817341489687665059840"
      ]
    },
    {
      "x": 370,
      "y": 269,
      "size": 1,
      "price": "4683000000000000000000",
      "reserved": "",
      "salt": "0x664ce75a669c3d4a93474405192e10f0da9714e4fb8a88c0576f560bf428a650",
      "assetIds": [
        "55464657044963196816950587289035428064568320970692304673817341489687656669187",
        "55464657044963196816950587289035428064568320970692304673817341489687665059842",
        "55464657044963196816950587289035428064568320970692304673817341489687665059841"
      ]
    },
    {
      "x": 370,
      "y": 288,
      "size": 1,
      "price": "4683000000000000000000",
      "reserved": "",
      "salt": "0xfb137608969084ab2715b0ef2936cceafe6aac2d5260fff1b5b8169459786fad",
      "assetIds": [
        "55464657044963196816950587289035428064568320970692304673817341489687656669184",
        "55464657044963196816950587289035428064568320970692304673817341489687665059844",
        "55464657044963196816950587289035428064568320970692304673817341489687665059840"
      ]
    },
    {
      "x": 370,
      "y": 289,
      "size": 1,
      "price": "4683000000000000000000",
      "reserved": "",
      "salt": "0x174b1a8a94266308604091d25e0d95dc260fc312127e3933bed18aa8acea8c67",
      "assetIds": [
        "55464657044963196816950587289035428064568320970692304673817341489687656669185",
        "55464657044963196816950587289035428064568320970692304673817341489687665059843",
        "55464657044963196816950587289035428064568320970692304673817341489687665059840"
      ]
    },
    {
      "x": 370,
      "y": 290,
      "size": 1,
      "price": "4683000000000000000000",
      "reserved": "",
      "salt": "0x49381751c2589b72ef8c202870f38290aabe4580d2e1fc664c9993307c8c1830",
      "assetIds": [
        "55464657044963196816950587289035428064568320970692304673817341489687656669187",
        "55464657044963196816950587289035428064568320970692304673817341489687665059843",
        "55464657044963196816950587289035428064568320970692304673817341489687665059841"
      ]
    },
    {
      "x": 370,
      "y": 291,
      "size": 1,
      "price": "4683000000000000000000",
      "reserved": "",
      "salt": "0x8bc5ee53bcd6a33395c452a16841a149c0e81da52c7b44785977312f10aaa326",
      "assetIds": [
        "55464657044963196816950587289035428064568320970692304673817341489687656669186",
        "55464657044963196816950587289035428064568320970692304673817341489687665059843",
        "55464657044963196816950587289035428064568320970692304673817341489687665059841"
      ]
    },
    {
      "x": 370,
      "y": 292,
      "size": 1,
      "price": "4683000000000000000000",
      "reserved": "",
      "salt": "0xd415c018e699a2f8ed4e7c0f16faaedbd70dc0c08fdb645ba8c329a516a8b63d",
      "assetIds": [
        "55464657044963196816950587289035428064568320970692304673817341489687656669186",
        "55464657044963196816950587289035428064568320970692304673817341489687665059842",
        "55464657044963196816950587289035428064568320970692304673817341489687665059841"
      ]
    },
    {
      "x": 370,
      "y": 293,
      "size": 1,
      "price": "4683000000000000000000",
      "reserved": "",
      "salt": "0xd5178f076c1c757ed1c4f207965f96f1ba460dbb9ab271ab8a7734f963800f18",
      "assetIds": [
        "55464657044963196816950587289035428064568320970692304673817341489687656669185",
        "55464657044963196816950587289035428064568320970692304673817341489687665059843",
        "55464657044963196816950587289035428064568320970692304673817341489687665059840"
      ]
    },
    {
      "x": 370,
      "y": 294,
      "size": 1,
      "price": "4683000000000000000000",
      "reserved": "",
      "salt": "0x21b002d4de468a691a4b0acb2d8506f5407076bfda0a4c6c7f2af421ea10ce8e",
      "assetIds": [
        "55464657044963196816950587289035428064568320970692304673817341489687656669187",
        "55464657044963196816950587289035428064568320970692304673817341489687665059843",
        "55464657044963196816950587289035428064568320970692304673817341489687665059841"
      ]
    },
    {
      "x": 370,
      "y": 295,
      "size": 1,
      "price": "4683000000000000000000",
      "reserved": "",
      "salt": "0x533185de871f880dd615671d15774137077cc030f459ba60ee81bdaf6f5582c5",
      "assetIds": [
        "55464657044963196816950587289035428064568320970692304673817341489687656669187",
        "55464657044963196816950587289035428064568320970692304673817341489687665059844",
        "55464657044963196816950587289035428064568320970692304673817341489687665059841"
      ]
    },
    {
      "x": 370,
      "y": 296,
      "size": 1,
      "price": "4683000000000000000000",
      "reserved": "",
      "salt": "0xcf6b90c8d40c5a6dcf3c3569cd074fa478cb34aeff5e7a8ce7c06a1c582ec533",
      "assetIds": [
        "55464657044963196816950587289035428064568320970692304673817341489687656669185",
        "55464657044963196816950587289035428064568320970692304673817341489687665059842",
        "55464657044963196816950587289035428064568320970692304673817341489687665059840"
      ]
    },
    {
      "x": 370,
      "y": 297,
      "size": 1,
      "price": "4683000000000000000000",
      "reserved": "",
      "salt": "0x73ecc3050ae81359d2a83405636e2afa4516947cddc2c4bce18dce6c5dd8309a",
      "assetIds": [
        "55464657044963196816950587289035428064568320970692304673817341489687656669185",
        "55464657044963196816950587289035428064568320970692304673817341489687665059843",
        "55464657044963196816950587289035428064568320970692304673817341489687665059840"
      ]
    },
    {
      "x": 370,
      "y": 298,
      "size": 1,
      "price": "4683000000000000000000",
      "reserved": "",
      "salt": "0x31f4107ab6f0b758900ec51dab1cd1a80795cd14faa847e9a6b1cf451060145f",
      "assetIds": [
        "55464657044963196816950587289035428064568320970692304673817341489687656669186",
        "55464657044963196816950587289035428064568320970692304673817341489687665059844",
        "55464657044963196816950587289035428064568320970692304673817341489687665059841"
      ]
    },
    {
      "x": 370,
      "y": 299,
      "size": 1,
      "price": "4683000000000000000000",
      "reserved": "",
      "salt": "0x5e3950a0a22b81a6e8a0b33454b7ff2a90388d1959903ea1567c53dc8d9d8f88",
      "assetIds": [
        "55464657044963196816950587289035428064568320970692304673817341489687656669187",
        "55464657044963196816950587289035428064568320970692304673817341489687665059844",
        "55464657044963196816950587289035428064568320970692304673817341489687665059841"
      ]
    },
    {
      "x": 370,
      "y": 300,
      "size": 1,
      "price": "4683000000000000000000",
      "reserved": "",
      "salt": "0x87657ad169db21ef3fc00bc73e4ea0735dd5d0db6eb41ad516cf1eaf0a10840d",
      "assetIds": [
        "55464657044963196816950587289035428064568320970692304673817341489687656669187",
        "55464657044963196816950587289035428064568320970692304673817341489687665059844",
        "55464657044963196816950587289035428064568320970692304673817341489687665059841"
      ]
    },
    {
      "x": 370,
      "y": 301,
      "size": 1,
      "price": "4683000000000000000000",
      "reserved": "",
      "salt": "0x5996f3cb699cc2aead16f6b2adb040809d4c0e6d46f135fdb96c4b3de5eb60a4",
      "assetIds": [
        "55464657044963196816950587289035428064568320970692304673817341489687656669185",
        "55464657044963196816950587289035428064568320970692304673817341489687665059844",
        "55464657044963196816950587289035428064568320970692304673817341489687665059840"
      ]
    },
    {
      "x": 370,
      "y": 302,
      "size": 1,
      "price": "4683000000000000000000",
      "reserved": "",
      "salt": "0x2c07f9ae1a39da8047fb9fc355f56306badff8b20695f330272774d3c3f97392",
      "assetIds": [
        "55464657044963196816950587289035428064568320970692304673817341489687656669186",
        "55464657044963196816950587289035428064568320970692304673817341489687665059844",
        "55464657044963196816950587289035428064568320970692304673817341489687665059841"
      ]
    },
    {
      "x": 370,
      "y": 303,
      "size": 1,
      "price": "4683000000000000000000",
      "reserved": "",
      "salt": "0x4d43df87ba6116450e15f329ae6066b929a6405c152c0dec55a7f540fc0123e9",
      "assetIds": [
        "55464657044963196816950587289035428064568320970692304673817341489687656669186",
        "55464657044963196816950587289035428064568320970692304673817341489687665059842",
        "55464657044963196816950587289035428064568320970692304673817341489687665059841"
      ]
    },
    {
      "x": 370,
      "y": 304,
      "size": 1,
      "price": "4683000000000000000000",
      "reserved": "",
      "salt": "0x864c0b870882869664d93abcc03f0849256e4d4310e95688e77ae3e07d85ac4e",
      "assetIds": [
        "55464657044963196816950587289035428064568320970692304673817341489687656669187",
        "55464657044963196816950587289035428064568320970692304673817341489687665059842",
        "55464657044963196816950587289035428064568320970692304673817341489687665059841"
      ]
    },
    {
      "x": 370,
      "y": 305,
      "size": 1,
      "price": "4683000000000000000000",
      "reserved": "",
      "salt": "0x528900968b8a545ede07d5d1e11064798f7ceb1f02db3d0ae2929ce0841022a2",
      "assetIds": [
        "55464657044963196816950587289035428064568320970692304673817341489687656669186",
        "55464657044963196816950587289035428064568320970692304673817341489687665059842",
        "55464657044963196816950587289035428064568320970692304673817341489687665059841"
      ]
    },
    {
      "x": 371,
      "y": 231,
      "size": 1,
      "price": "4683000000000000000000",
      "reserved": "",
      "salt": "0x6d7fe6701728412b2e9e9ef30cae1c4c2905defcbf661d85b9637b2518967f75",
      "assetIds": [
        "55464657044963196816950587289035428064568320970692304673817341489687656669186",
        "55464657044963196816950587289035428064568320970692304673817341489687665059844",
        "55464657044963196816950587289035428064568320970692304673817341489687665059841"
      ]
    },
    {
      "x": 371,
      "y": 232,
      "size": 1,
      "price": "4683000000000000000000",
      "reserved": "",
      "salt": "0x05c0262db528f399bfbf6abd0db6853ef69d9bfe349355461f53e8676a670f6c",
      "assetIds": [
        "55464657044963196816950587289035428064568320970692304673817341489687656669187",
        "55464657044963196816950587289035428064568320970692304673817341489687665059842",
        "55464657044963196816950587289035428064568320970692304673817341489687665059841"
      ]
    },
    {
      "x": 371,
      "y": 233,
      "size": 1,
      "price": "4683000000000000000000",
      "reserved": "",
      "salt": "0xe5262fd37b3362cd8a811140a92b4709d128071684510d9f3fb885dea5f240fd",
      "assetIds": [
        "55464657044963196816950587289035428064568320970692304673817341489687656669186",
        "55464657044963196816950587289035428064568320970692304673817341489687665059843",
        "55464657044963196816950587289035428064568320970692304673817341489687665059841"
      ]
    },
    {
      "x": 371,
      "y": 234,
      "size": 1,
      "price": "4683000000000000000000",
      "reserved": "",
      "salt": "0xb2a38b072230828f624af211b1dbc5e302d54394adc9591bcc71a80ffc4d87c5",
      "assetIds": [
        "55464657044963196816950587289035428064568320970692304673817341489687656669185",
        "55464657044963196816950587289035428064568320970692304673817341489687665059843",
        "55464657044963196816950587289035428064568320970692304673817341489687665059840"
      ]
    },
    {
      "x": 371,
      "y": 235,
      "size": 1,
      "price": "4683000000000000000000",
      "reserved": "",
      "salt": "0xe89921b0e6449b39a45d341f3c1409316ab412e210c96c88bd767cdae9a78e35",
      "assetIds": [
        "55464657044963196816950587289035428064568320970692304673817341489687656669185",
        "55464657044963196816950587289035428064568320970692304673817341489687665059844",
        "55464657044963196816950587289035428064568320970692304673817341489687665059840"
      ]
    },
    {
      "x": 371,
      "y": 236,
      "size": 1,
      "price": "4683000000000000000000",
      "reserved": "",
      "salt": "0x9bc8d1b9e7d7b21fac307c2fb6978e2b88fa2f565dce4059b5ff0b15623ad129",
      "assetIds": [
        "55464657044963196816950587289035428064568320970692304673817341489687656669184",
        "55464657044963196816950587289035428064568320970692304673817341489687665059842",
        "55464657044963196816950587289035428064568320970692304673817341489687665059840"
      ]
    },
    {
      "x": 371,
      "y": 237,
      "size": 1,
      "price": "4683000000000000000000",
      "reserved": "",
      "salt": "0x61867b4e350b966fc37a62ca08a7b8e76bf651e66928f12281456f7dacd1ac7d",
      "assetIds": [
        "55464657044963196816950587289035428064568320970692304673817341489687656669187",
        "55464657044963196816950587289035428064568320970692304673817341489687665059842",
        "55464657044963196816950587289035428064568320970692304673817341489687665059841"
      ]
    },
    {
      "x": 371,
      "y": 238,
      "size": 1,
      "price": "4683000000000000000000",
      "reserved": "",
      "salt": "0xd9ea7fac3e5e56b62166ece832272980edf6bb47834bcb44af0d15984c56cf55",
      "assetIds": [
        "55464657044963196816950587289035428064568320970692304673817341489687656669186",
        "55464657044963196816950587289035428064568320970692304673817341489687665059843",
        "55464657044963196816950587289035428064568320970692304673817341489687665059841"
      ]
    },
    {
      "x": 371,
      "y": 239,
      "size": 1,
      "price": "4683000000000000000000",
      "reserved": "",
      "salt": "0xcd64f6df3a8922b151f32a5321aa5b5186841dbf4728f11c4263b03d7792ba73",
      "assetIds": [
        "55464657044963196816950587289035428064568320970692304673817341489687656669185",
        "55464657044963196816950587289035428064568320970692304673817341489687665059844",
        "55464657044963196816950587289035428064568320970692304673817341489687665059840"
      ]
    },
    {
      "x": 371,
      "y": 264,
      "size": 1,
      "price": "4683000000000000000000",
      "reserved": "",
      "salt": "0x5d42769009149ca7543cea9b95f73d952fa0eefccfc6e459060b8dca33b887ec",
      "assetIds": [
        "55464657044963196816950587289035428064568320970692304673817341489687656669186",
        "55464657044963196816950587289035428064568320970692304673817341489687665059843",
        "55464657044963196816950587289035428064568320970692304673817341489687665059841"
      ]
    },
    {
      "x": 371,
      "y": 265,
      "size": 1,
      "price": "4683000000000000000000",
      "reserved": "",
      "salt": "0x4ae3624307daea95b4e24de9a2707e612d3372636ab2b1cef8d3e0674d3dd664",
      "assetIds": [
        "55464657044963196816950587289035428064568320970692304673817341489687656669187",
        "55464657044963196816950587289035428064568320970692304673817341489687665059842",
        "55464657044963196816950587289035428064568320970692304673817341489687665059841"
      ]
    },
    {
      "x": 371,
      "y": 266,
      "size": 1,
      "price": "4683000000000000000000",
      "reserved": "",
      "salt": "0x234c0baa4f60c917f789365793a5c2ed38818b30104e737497f59e986920668b",
      "assetIds": [
        "55464657044963196816950587289035428064568320970692304673817341489687656669185",
        "55464657044963196816950587289035428064568320970692304673817341489687665059843",
        "55464657044963196816950587289035428064568320970692304673817341489687665059840"
      ]
    },
    {
      "x": 371,
      "y": 267,
      "size": 1,
      "price": "4683000000000000000000",
      "reserved": "",
      "salt": "0x98a193acc609fe153ddad4ba686e3da760067184c8daa98bbd80fcbf92c62feb",
      "assetIds": [
        "55464657044963196816950587289035428064568320970692304673817341489687656669186",
        "55464657044963196816950587289035428064568320970692304673817341489687665059844",
        "55464657044963196816950587289035428064568320970692304673817341489687665059841"
      ]
    },
    {
      "x": 371,
      "y": 268,
      "size": 1,
      "price": "4683000000000000000000",
      "reserved": "",
      "salt": "0x03329464b29247c858200ab989e5263aa41bf59601d252c14558f9e79f33b369",
      "assetIds": [
        "55464657044963196816950587289035428064568320970692304673817341489687656669184",
        "55464657044963196816950587289035428064568320970692304673817341489687665059843",
        "55464657044963196816950587289035428064568320970692304673817341489687665059840"
      ]
    },
    {
      "x": 371,
      "y": 269,
      "size": 1,
      "price": "4683000000000000000000",
      "reserved": "",
      "salt": "0xd9a1b8bb9d39668c8919111c811e9c4d1f5bc1dc4f078f5ef9b27608258ee89e",
      "assetIds": [
        "55464657044963196816950587289035428064568320970692304673817341489687656669187",
        "55464657044963196816950587289035428064568320970692304673817341489687665059842",
        "55464657044963196816950587289035428064568320970692304673817341489687665059841"
      ]
    },
    {
      "x": 371,
      "y": 288,
      "size": 1,
      "price": "4683000000000000000000",
      "reserved": "",
      "salt": "0xd1ea5f4dd9467489408e38f640fea6315f918d0e9203e45c316945de9f88f46f",
      "assetIds": [
        "55464657044963196816950587289035428064568320970692304673817341489687656669184",
        "55464657044963196816950587289035428064568320970692304673817341489687665059844",
        "55464657044963196816950587289035428064568320970692304673817341489687665059840"
      ]
    },
    {
      "x": 371,
      "y": 289,
      "size": 1,
      "price": "4683000000000000000000",
      "reserved": "",
      "salt": "0xf13f64996502b99951494ed03611d5288851a7912a8b64b5d39c44ca1c707c06",
      "assetIds": [
        "55464657044963196816950587289035428064568320970692304673817341489687656669185",
        "55464657044963196816950587289035428064568320970692304673817341489687665059842",
        "55464657044963196816950587289035428064568320970692304673817341489687665059840"
      ]
    },
    {
      "x": 371,
      "y": 290,
      "size": 1,
      "price": "4683000000000000000000",
      "reserved": "",
      "salt": "0x9d988c3c07e8535cf7e29b0901132780c51e3262059ffe45bb8f7893e254ff70",
      "assetIds": [
        "55464657044963196816950587289035428064568320970692304673817341489687656669187",
        "55464657044963196816950587289035428064568320970692304673817341489687665059843",
        "55464657044963196816950587289035428064568320970692304673817341489687665059841"
      ]
    },
    {
      "x": 371,
      "y": 291,
      "size": 1,
      "price": "4683000000000000000000",
      "reserved": "",
      "salt": "0x9076acacfd6adc8d215afc6df265b3d1830dcb143ba9d31b020d5041528f6dc1",
      "assetIds": [
        "55464657044963196816950587289035428064568320970692304673817341489687656669185",
        "55464657044963196816950587289035428064568320970692304673817341489687665059843",
        "55464657044963196816950587289035428064568320970692304673817341489687665059840"
      ]
    },
    {
      "x": 371,
      "y": 292,
      "size": 1,
      "price": "4683000000000000000000",
      "reserved": "",
      "salt": "0x0d223e3b37d3755b4981191d8a66cbcac48c742af6145e7dbcec62ecced0235b",
      "assetIds": [
        "55464657044963196816950587289035428064568320970692304673817341489687656669187",
        "55464657044963196816950587289035428064568320970692304673817341489687665059842",
        "55464657044963196816950587289035428064568320970692304673817341489687665059841"
      ]
    },
    {
      "x": 371,
      "y": 293,
      "size": 1,
      "price": "4683000000000000000000",
      "reserved": "",
      "salt": "0xbbff9b424c0c24c28a461a14980eaf4b64a7e33dd809b3f417a2552da680a28f",
      "assetIds": [
        "55464657044963196816950587289035428064568320970692304673817341489687656669186",
        "55464657044963196816950587289035428064568320970692304673817341489687665059844",
        "55464657044963196816950587289035428064568320970692304673817341489687665059841"
      ]
    },
    {
      "x": 371,
      "y": 294,
      "size": 1,
      "price": "1011000000000000000000",
      "reserved": "0x7a9fe22691c811ea339d9b73150e6911a5343dca",
      "salt": "0xcd176ccf6a90b7a64cb86bab147d8ad9454d6d17407ccd02b8e76b8cb1f8ea41",
      "assetIds": []
    },
    {
      "x": 371,
      "y": 295,
      "size": 1,
      "price": "4683000000000000000000",
      "reserved": "",
      "salt": "0xd7be389463e777ed53398ea3dbe0bf67c58df611a5268d3a0e635ddd39a8f97f",
      "assetIds": [
        "55464657044963196816950587289035428064568320970692304673817341489687656669185",
        "55464657044963196816950587289035428064568320970692304673817341489687665059844",
        "55464657044963196816950587289035428064568320970692304673817341489687665059840"
      ]
    },
    {
      "x": 371,
      "y": 296,
      "size": 1,
      "price": "4683000000000000000000",
      "reserved": "",
      "salt": "0x63e686d85300b4b681653ade562d2ee0821eb6ec85300025281a042dce3d9ea8",
      "assetIds": [
        "55464657044963196816950587289035428064568320970692304673817341489687656669184",
        "55464657044963196816950587289035428064568320970692304673817341489687665059843",
        "55464657044963196816950587289035428064568320970692304673817341489687665059840"
      ]
    },
    {
      "x": 371,
      "y": 297,
      "size": 1,
      "price": "4683000000000000000000",
      "reserved": "",
      "salt": "0x0c8772ef9189effdb0d345a5634b7d6955cd9b5dbc39de8c1e0545f8007941a8",
      "assetIds": [
        "55464657044963196816950587289035428064568320970692304673817341489687656669185",
        "55464657044963196816950587289035428064568320970692304673817341489687665059842",
        "55464657044963196816950587289035428064568320970692304673817341489687665059840"
      ]
    },
    {
      "x": 371,
      "y": 298,
      "size": 1,
      "price": "4683000000000000000000",
      "reserved": "",
      "salt": "0xab713767698b6c7d20a8ca3f7fa7cb7b33ef8a57f77764b8c682d42d2a513643",
      "assetIds": [
        "55464657044963196816950587289035428064568320970692304673817341489687656669186",
        "55464657044963196816950587289035428064568320970692304673817341489687665059842",
        "55464657044963196816950587289035428064568320970692304673817341489687665059841"
      ]
    },
    {
      "x": 371,
      "y": 299,
      "size": 1,
      "price": "4683000000000000000000",
      "reserved": "",
      "salt": "0x3bf1fbf37ce01c125371b8e87419898f2733ef4331a528e75e1d2599555d7c8f",
      "assetIds": [
        "55464657044963196816950587289035428064568320970692304673817341489687656669185",
        "55464657044963196816950587289035428064568320970692304673817341489687665059844",
        "55464657044963196816950587289035428064568320970692304673817341489687665059840"
      ]
    },
    {
      "x": 371,
      "y": 300,
      "size": 1,
      "price": "4683000000000000000000",
      "reserved": "",
      "salt": "0xf22fbdefba394dc2f30f65fcbc8a1d3c61dbb754893e3212a894858f6e73545c",
      "assetIds": [
        "55464657044963196816950587289035428064568320970692304673817341489687656669187",
        "55464657044963196816950587289035428064568320970692304673817341489687665059842",
        "55464657044963196816950587289035428064568320970692304673817341489687665059841"
      ]
    },
    {
      "x": 371,
      "y": 301,
      "size": 1,
      "price": "4683000000000000000000",
      "reserved": "",
      "salt": "0xff35b62b6bbba116798b8e4325618b66139a5b7788b7a7a3ed391cbd19696566",
      "assetIds": [
        "55464657044963196816950587289035428064568320970692304673817341489687656669186",
        "55464657044963196816950587289035428064568320970692304673817341489687665059843",
        "55464657044963196816950587289035428064568320970692304673817341489687665059841"
      ]
    },
    {
      "x": 371,
      "y": 302,
      "size": 1,
      "price": "4683000000000000000000",
      "reserved": "",
      "salt": "0xf63ce67bb7f5b226a4985b92a82aec4a1df21dc93328b6eb11c24f7abcdeb266",
      "assetIds": [
        "55464657044963196816950587289035428064568320970692304673817341489687656669186",
        "55464657044963196816950587289035428064568320970692304673817341489687665059844",
        "55464657044963196816950587289035428064568320970692304673817341489687665059841"
      ]
    },
    {
      "x": 371,
      "y": 303,
      "size": 1,
      "price": "4683000000000000000000",
      "reserved": "",
      "salt": "0x5c4e49b8f505f60b025b85d54844d9520eb8c231453b4cbeab8f48f6f013b999",
      "assetIds": [
        "55464657044963196816950587289035428064568320970692304673817341489687656669186",
        "55464657044963196816950587289035428064568320970692304673817341489687665059843",
        "55464657044963196816950587289035428064568320970692304673817341489687665059841"
      ]
    },
    {
      "x": 371,
      "y": 304,
      "size": 1,
      "price": "4683000000000000000000",
      "reserved": "",
      "salt": "0x9da7120acbfd76c616640670c0a5c8919a49a3b59cbba10bccbb091aab40a791",
      "assetIds": [
        "55464657044963196816950587289035428064568320970692304673817341489687656669184",
        "55464657044963196816950587289035428064568320970692304673817341489687665059843",
        "55464657044963196816950587289035428064568320970692304673817341489687665059840"
      ]
    },
    {
      "x": 371,
      "y": 305,
      "size": 1,
      "price": "4683000000000000000000",
      "reserved": "",
      "salt": "0x304a31ebc239da6df1b0d5a70cb58889847e1ab1c0c408ad85062198d89490f2",
      "assetIds": [
        "55464657044963196816950587289035428064568320970692304673817341489687656669187",
        "55464657044963196816950587289035428064568320970692304673817341489687665059842",
        "55464657044963196816950587289035428064568320970692304673817341489687665059841"
      ]
    },
    {
      "x": 372,
      "y": 231,
      "size": 1,
      "price": "4683000000000000000000",
      "reserved": "",
      "salt": "0x1a63232e025af406a6ed369e1526552698acaf759cbfc1fcd138ce72126b9bf0",
      "assetIds": [
        "55464657044963196816950587289035428064568320970692304673817341489687656669186",
        "55464657044963196816950587289035428064568320970692304673817341489687665059844",
        "55464657044963196816950587289035428064568320970692304673817341489687665059841"
      ]
    },
    {
      "x": 372,
      "y": 232,
      "size": 1,
      "price": "4683000000000000000000",
      "reserved": "",
      "salt": "0x882d7b59c938c0234e47184ec499198e733fc833c007ed44de24ef847c3139c8",
      "assetIds": [
        "55464657044963196816950587289035428064568320970692304673817341489687656669186",
        "55464657044963196816950587289035428064568320970692304673817341489687665059843",
        "55464657044963196816950587289035428064568320970692304673817341489687665059841"
      ]
    },
    {
      "x": 372,
      "y": 233,
      "size": 1,
      "price": "4683000000000000000000",
      "reserved": "",
      "salt": "0xd73f629f9c7ad6dba16eddab8f1974522db1af793c3799f7efa0a7d5ca341de7",
      "assetIds": [
        "55464657044963196816950587289035428064568320970692304673817341489687656669184",
        "55464657044963196816950587289035428064568320970692304673817341489687665059844",
        "55464657044963196816950587289035428064568320970692304673817341489687665059840"
      ]
    },
    {
      "x": 372,
      "y": 276,
      "size": 1,
      "price": "4683000000000000000000",
      "reserved": "",
      "salt": "0x057ba7326b8e5c7845311cc67430fb533811658a188ed60ae4337b9e7c1dda98",
      "assetIds": [
        "55464657044963196816950587289035428064568320970692304673817341489687656669186",
        "55464657044963196816950587289035428064568320970692304673817341489687665059843",
        "55464657044963196816950587289035428064568320970692304673817341489687665059841"
      ]
    },
    {
      "x": 372,
      "y": 277,
      "size": 1,
      "price": "4683000000000000000000",
      "reserved": "",
      "salt": "0x83b389d76a8d0323af86ddba8ad40c328e09bb0daf8e17433af0a9daade0ca67",
      "assetIds": [
        "55464657044963196816950587289035428064568320970692304673817341489687656669184",
        "55464657044963196816950587289035428064568320970692304673817341489687665059843",
        "55464657044963196816950587289035428064568320970692304673817341489687665059840"
      ]
    },
    {
      "x": 372,
      "y": 278,
      "size": 1,
      "price": "4683000000000000000000",
      "reserved": "",
      "salt": "0x0c87e1baa92a7345334a22dba5b8764c7b4f3b9dd3950d68a5dd9d5587c19416",
      "assetIds": [
        "55464657044963196816950587289035428064568320970692304673817341489687656669184",
        "55464657044963196816950587289035428064568320970692304673817341489687665059842",
        "55464657044963196816950587289035428064568320970692304673817341489687665059840"
      ]
    },
    {
      "x": 372,
      "y": 279,
      "size": 1,
      "price": "4683000000000000000000",
      "reserved": "",
      "salt": "0xf65d2161022db459157323ff233ada57c1a2a3df29ef87c438245c40963177aa",
      "assetIds": [
        "55464657044963196816950587289035428064568320970692304673817341489687656669186",
        "55464657044963196816950587289035428064568320970692304673817341489687665059843",
        "55464657044963196816950587289035428064568320970692304673817341489687665059841"
      ]
    },
    {
      "x": 372,
      "y": 280,
      "size": 1,
      "price": "4683000000000000000000",
      "reserved": "",
      "salt": "0x30d56106f1eb49e3d65dc188b810e836d077ffcf107c6f3e2fd6afb8164b7196",
      "assetIds": [
        "55464657044963196816950587289035428064568320970692304673817341489687656669186",
        "55464657044963196816950587289035428064568320970692304673817341489687665059844",
        "55464657044963196816950587289035428064568320970692304673817341489687665059841"
      ]
    },
    {
      "x": 372,
      "y": 281,
      "size": 1,
      "price": "4683000000000000000000",
      "reserved": "",
      "salt": "0x78b631f05a2fb812de1cc8c8e7eb2fd7fbcebd81bf76331257a4033f7eaf6ce6",
      "assetIds": [
        "55464657044963196816950587289035428064568320970692304673817341489687656669187",
        "55464657044963196816950587289035428064568320970692304673817341489687665059843",
        "55464657044963196816950587289035428064568320970692304673817341489687665059841"
      ]
    },
    {
      "x": 372,
      "y": 288,
      "size": 1,
      "price": "4683000000000000000000",
      "reserved": "",
      "salt": "0x7ca58363b0ea2b9627de635ba305d229eab71228b418dfcc39362261791a6712",
      "assetIds": [
        "55464657044963196816950587289035428064568320970692304673817341489687656669186",
        "55464657044963196816950587289035428064568320970692304673817341489687665059842",
        "55464657044963196816950587289035428064568320970692304673817341489687665059841"
      ]
    },
    {
      "x": 372,
      "y": 289,
      "size": 1,
      "price": "4683000000000000000000",
      "reserved": "",
      "salt": "0xc62d5f12e0a73bc0b61ce99bbbe296652ecd62c31ea3abbf8ac690eabe0f5921",
      "assetIds": [
        "55464657044963196816950587289035428064568320970692304673817341489687656669187",
        "55464657044963196816950587289035428064568320970692304673817341489687665059844",
        "55464657044963196816950587289035428064568320970692304673817341489687665059841"
      ]
    },
    {
      "x": 372,
      "y": 290,
      "size": 1,
      "price": "4683000000000000000000",
      "reserved": "",
      "salt": "0x23ae6fddb6749b5623f3aa8d02cd1b873d55b6b8baf9889c96b7729caf550e96",
      "assetIds": [
        "55464657044963196816950587289035428064568320970692304673817341489687656669187",
        "55464657044963196816950587289035428064568320970692304673817341489687665059843",
        "55464657044963196816950587289035428064568320970692304673817341489687665059841"
      ]
    },
    {
      "x": 372,
      "y": 291,
      "size": 1,
      "price": "4683000000000000000000",
      "reserved": "",
      "salt": "0x4069036017ce0c151952fa5914ccab72e44ef04fcbd4d4221f272343a0bc4c60",
      "assetIds": [
        "55464657044963196816950587289035428064568320970692304673817341489687656669186",
        "55464657044963196816950587289035428064568320970692304673817341489687665059842",
        "55464657044963196816950587289035428064568320970692304673817341489687665059841"
      ]
    },
    {
      "x": 372,
      "y": 292,
      "size": 1,
      "price": "4683000000000000000000",
      "reserved": "",
      "salt": "0xa28d34f6f143dc04ad31098d760ec5fcc8860044b337d4f5fe24e3e6f47f9f8e",
      "assetIds": [
        "55464657044963196816950587289035428064568320970692304673817341489687656669184",
        "55464657044963196816950587289035428064568320970692304673817341489687665059844",
        "55464657044963196816950587289035428064568320970692304673817341489687665059840"
      ]
    },
    {
      "x": 372,
      "y": 293,
      "size": 1,
      "price": "4683000000000000000000",
      "reserved": "",
      "salt": "0x81e0d02e0aa329990bb6b684a058ad28f4403277f14d50009a2a9c45f58c4381",
      "assetIds": [
        "55464657044963196816950587289035428064568320970692304673817341489687656669187",
        "55464657044963196816950587289035428064568320970692304673817341489687665059842",
        "55464657044963196816950587289035428064568320970692304673817341489687665059841"
      ]
    },
    {
      "x": 372,
      "y": 294,
      "size": 1,
      "price": "4683000000000000000000",
      "reserved": "",
      "salt": "0xdfbae3cadafe597f97c9532662871ee4c240eb5bb860c08066e6cf29718ee00f",
      "assetIds": [
        "55464657044963196816950587289035428064568320970692304673817341489687656669185",
        "55464657044963196816950587289035428064568320970692304673817341489687665059844",
        "55464657044963196816950587289035428064568320970692304673817341489687665059840"
      ]
    },
    {
      "x": 372,
      "y": 295,
      "size": 1,
      "price": "4683000000000000000000",
      "reserved": "",
      "salt": "0x6e10e0105cfca4086499e906327de7ed1de4870966e1a9e4152fc5eda8299f1e",
      "assetIds": [
        "55464657044963196816950587289035428064568320970692304673817341489687656669186",
        "55464657044963196816950587289035428064568320970692304673817341489687665059843",
        "55464657044963196816950587289035428064568320970692304673817341489687665059841"
      ]
    },
    {
      "x": 372,
      "y": 296,
      "size": 1,
      "price": "4683000000000000000000",
      "reserved": "",
      "salt": "0xd2ab4d8fb8ed04a3581da615f3241e0ad88a31a9ca295bef1f5263291ac34270",
      "assetIds": [
        "55464657044963196816950587289035428064568320970692304673817341489687656669185",
        "55464657044963196816950587289035428064568320970692304673817341489687665059842",
        "55464657044963196816950587289035428064568320970692304673817341489687665059840"
      ]
    },
    {
      "x": 372,
      "y": 297,
      "size": 1,
      "price": "4683000000000000000000",
      "reserved": "",
      "salt": "0x3fcba9c33f261791ebaa8726cc3984feb64b81d6ec97d7e38fd3135d68d60519",
      "assetIds": [
        "55464657044963196816950587289035428064568320970692304673817341489687656669185",
        "55464657044963196816950587289035428064568320970692304673817341489687665059843",
        "55464657044963196816950587289035428064568320970692304673817341489687665059840"
      ]
    },
    {
      "x": 372,
      "y": 298,
      "size": 1,
      "price": "4683000000000000000000",
      "reserved": "",
      "salt": "0xd5a550e679790305f09e89a416f7833ba98ff1a5c955d62227f203ef45009881",
      "assetIds": [
        "55464657044963196816950587289035428064568320970692304673817341489687656669186",
        "55464657044963196816950587289035428064568320970692304673817341489687665059842",
        "55464657044963196816950587289035428064568320970692304673817341489687665059841"
      ]
    },
    {
      "x": 372,
      "y": 299,
      "size": 1,
      "price": "4683000000000000000000",
      "reserved": "",
      "salt": "0xa1a73d09889c51260e3a92507262a620922fea47ee88703e58b5f948c1093a85",
      "assetIds": [
        "55464657044963196816950587289035428064568320970692304673817341489687656669184",
        "55464657044963196816950587289035428064568320970692304673817341489687665059842",
        "55464657044963196816950587289035428064568320970692304673817341489687665059840"
      ]
    },
    {
      "x": 372,
      "y": 300,
      "size": 1,
      "price": "4683000000000000000000",
      "reserved": "",
      "salt": "0xf5493164276465797127b176e775bae0f361c119a67b8bd5aa89810e1b4fa18e",
      "assetIds": [
        "55464657044963196816950587289035428064568320970692304673817341489687656669184",
        "55464657044963196816950587289035428064568320970692304673817341489687665059843",
        "55464657044963196816950587289035428064568320970692304673817341489687665059840"
      ]
    },
    {
      "x": 372,
      "y": 301,
      "size": 1,
      "price": "4683000000000000000000",
      "reserved": "",
      "salt": "0x2850e30bd76b3dc82ab5dec7ab13d426819a1dfbfe531b2a732b57101a7e48c6",
      "assetIds": [
        "55464657044963196816950587289035428064568320970692304673817341489687656669184",
        "55464657044963196816950587289035428064568320970692304673817341489687665059844",
        "55464657044963196816950587289035428064568320970692304673817341489687665059840"
      ]
    },
    {
      "x": 372,
      "y": 302,
      "size": 1,
      "price": "4683000000000000000000",
      "reserved": "",
      "salt": "0x2d530776392ca198af3776728bd492b8612fee2d33ef9fc90a6f1cf0ec51ef9c",
      "assetIds": [
        "55464657044963196816950587289035428064568320970692304673817341489687656669186",
        "55464657044963196816950587289035428064568320970692304673817341489687665059842",
        "55464657044963196816950587289035428064568320970692304673817341489687665059841"
      ]
    },
    {
      "x": 372,
      "y": 303,
      "size": 1,
      "price": "4683000000000000000000",
      "reserved": "",
      "salt": "0x68c11c91b8b89448a4a2218f1a5eb32b162a53452a984c4f0a6f0c571db82730",
      "assetIds": [
        "55464657044963196816950587289035428064568320970692304673817341489687656669184",
        "55464657044963196816950587289035428064568320970692304673817341489687665059843",
        "55464657044963196816950587289035428064568320970692304673817341489687665059840"
      ]
    },
    {
      "x": 372,
      "y": 304,
      "size": 1,
      "price": "4683000000000000000000",
      "reserved": "",
      "salt": "0x20438e7c25e414ba309e37154a9c8eb7137b22f874b2056b5c94d992c708412a",
      "assetIds": [
        "55464657044963196816950587289035428064568320970692304673817341489687656669187",
        "55464657044963196816950587289035428064568320970692304673817341489687665059844",
        "55464657044963196816950587289035428064568320970692304673817341489687665059841"
      ]
    },
    {
      "x": 372,
      "y": 305,
      "size": 1,
      "price": "4683000000000000000000",
      "reserved": "",
      "salt": "0x8ee731828cb84310e88243317f415e68e4214e577c93f300002e2bf6ae7c8511",
      "assetIds": [
        "55464657044963196816950587289035428064568320970692304673817341489687656669184",
        "55464657044963196816950587289035428064568320970692304673817341489687665059842",
        "55464657044963196816950587289035428064568320970692304673817341489687665059840"
      ]
    },
    {
      "x": 373,
      "y": 231,
      "size": 1,
      "price": "4683000000000000000000",
      "reserved": "",
      "salt": "0xc00111f49ba1c690aa23bc62249c56d7fd2ed8a91c231faf313b269a8d534b45",
      "assetIds": [
        "55464657044963196816950587289035428064568320970692304673817341489687656669186",
        "55464657044963196816950587289035428064568320970692304673817341489687665059844",
        "55464657044963196816950587289035428064568320970692304673817341489687665059841"
      ]
    },
    {
      "x": 373,
      "y": 232,
      "size": 1,
      "price": "4683000000000000000000",
      "reserved": "",
      "salt": "0x22562daba9e41172a59c86eb2ddba73ccbacf85a57e6957bac10bc4080eacfe0",
      "assetIds": [
        "55464657044963196816950587289035428064568320970692304673817341489687656669187",
        "55464657044963196816950587289035428064568320970692304673817341489687665059842",
        "55464657044963196816950587289035428064568320970692304673817341489687665059841"
      ]
    },
    {
      "x": 373,
      "y": 233,
      "size": 1,
      "price": "4683000000000000000000",
      "reserved": "",
      "salt": "0xe4dd211684767011ac1d06e21f4825bcea330de41bfb2578505d5fca710eeef6",
      "assetIds": [
        "55464657044963196816950587289035428064568320970692304673817341489687656669186",
        "55464657044963196816950587289035428064568320970692304673817341489687665059843",
        "55464657044963196816950587289035428064568320970692304673817341489687665059841"
      ]
    },
    {
      "x": 373,
      "y": 276,
      "size": 1,
      "price": "4683000000000000000000",
      "reserved": "",
      "salt": "0x1ca5fe4916f66efa23f3b8b6dd133a751d5b5edd82dd72b77d22441bffc4cc2c",
      "assetIds": [
        "55464657044963196816950587289035428064568320970692304673817341489687656669185",
        "55464657044963196816950587289035428064568320970692304673817341489687665059843",
        "55464657044963196816950587289035428064568320970692304673817341489687665059840"
      ]
    },
    {
      "x": 373,
      "y": 277,
      "size": 1,
      "price": "1011000000000000000000",
      "reserved": "0x7a9fe22691c811ea339d9b73150e6911a5343dca",
      "salt": "0x93e7336d487e6ab8325dd76d54698b78a312156a0f84c929bb1970ab430440d2",
      "assetIds": []
    },
    {
      "x": 373,
      "y": 278,
      "size": 1,
      "price": "4683000000000000000000",
      "reserved": "",
      "salt": "0x021133c1e334414a65dc1561eee0ad221e76fd71e62a57ccb138b4a983a44030",
      "assetIds": [
        "55464657044963196816950587289035428064568320970692304673817341489687656669184",
        "55464657044963196816950587289035428064568320970692304673817341489687665059843",
        "55464657044963196816950587289035428064568320970692304673817341489687665059840"
      ]
    },
    {
      "x": 373,
      "y": 279,
      "size": 1,
      "price": "4683000000000000000000",
      "reserved": "",
      "salt": "0x83bb9ddde0e76eb37903de1e4f99face5f069ed3c7e91dc3d520bded98f4930a",
      "assetIds": [
        "55464657044963196816950587289035428064568320970692304673817341489687656669186",
        "55464657044963196816950587289035428064568320970692304673817341489687665059844",
        "55464657044963196816950587289035428064568320970692304673817341489687665059841"
      ]
    },
    {
      "x": 373,
      "y": 280,
      "size": 1,
      "price": "4683000000000000000000",
      "reserved": "",
      "salt": "0x8677d6a93967cf373d920e4f5826f312145375f0bd02dacbd693a3016751c6a8",
      "assetIds": [
        "55464657044963196816950587289035428064568320970692304673817341489687656669185",
        "55464657044963196816950587289035428064568320970692304673817341489687665059844",
        "55464657044963196816950587289035428064568320970692304673817341489687665059840"
      ]
    },
    {
      "x": 373,
      "y": 281,
      "size": 1,
      "price": "4683000000000000000000",
      "reserved": "",
      "salt": "0x3dc336b0c38f498e8feabd04b75c65e1f1f36799b527835c92511dc23fbf1e15",
      "assetIds": [
        "55464657044963196816950587289035428064568320970692304673817341489687656669187",
        "55464657044963196816950587289035428064568320970692304673817341489687665059844",
        "55464657044963196816950587289035428064568320970692304673817341489687665059841"
      ]
    },
    {
      "x": 373,
      "y": 288,
      "size": 1,
      "price": "4683000000000000000000",
      "reserved": "",
      "salt": "0x8cb4ae840c682840e2d6d89c7e1e6aef91e41e8c48d9acb01ed39d7cf809091c",
      "assetIds": [
        "55464657044963196816950587289035428064568320970692304673817341489687656669186",
        "55464657044963196816950587289035428064568320970692304673817341489687665059843",
        "55464657044963196816950587289035428064568320970692304673817341489687665059841"
      ]
    },
    {
      "x": 373,
      "y": 289,
      "size": 1,
      "price": "4683000000000000000000",
      "reserved": "",
      "salt": "0x12f4aed8ff7a143e8ca3b18a37defb06297dc37c4c2ea2d5b3269e231cca96bd",
      "assetIds": [
        "55464657044963196816950587289035428064568320970692304673817341489687656669185",
        "55464657044963196816950587289035428064568320970692304673817341489687665059844",
        "55464657044963196816950587289035428064568320970692304673817341489687665059840"
      ]
    },
    {
      "x": 373,
      "y": 290,
      "size": 1,
      "price": "4683000000000000000000",
      "reserved": "",
      "salt": "0xa8bbf47338c0583bc21355f66a98098a6fef1b6f58c5b28f3824d6d6953ab47e",
      "assetIds": [
        "55464657044963196816950587289035428064568320970692304673817341489687656669185",
        "55464657044963196816950587289035428064568320970692304673817341489687665059844",
        "55464657044963196816950587289035428064568320970692304673817341489687665059840"
      ]
    },
    {
      "x": 373,
      "y": 291,
      "size": 1,
      "price": "4683000000000000000000",
      "reserved": "",
      "salt": "0x089a93ef65debdeb8f3918cbc8d80ae77fe71eaef7a54b327c7b365450a37df1",
      "assetIds": [
        "55464657044963196816950587289035428064568320970692304673817341489687656669185",
        "55464657044963196816950587289035428064568320970692304673817341489687665059843",
        "55464657044963196816950587289035428064568320970692304673817341489687665059840"
      ]
    },
    {
      "x": 373,
      "y": 292,
      "size": 1,
      "price": "4683000000000000000000",
      "reserved": "",
      "salt": "0x3ba8004c9799263b2d0f92c1050440e3d988d2cabc8297506408c2ad932fc44d",
      "assetIds": [
        "55464657044963196816950587289035428064568320970692304673817341489687656669184",
        "55464657044963196816950587289035428064568320970692304673817341489687665059842",
        "55464657044963196816950587289035428064568320970692304673817341489687665059840"
      ]
    },
    {
      "x": 373,
      "y": 293,
      "size": 1,
      "price": "4683000000000000000000",
      "reserved": "",
      "salt": "0x56a34d1bf5e2b811142c0e75e598b9c04e699375c3c1a9a373a8156bbf2db11f",
      "assetIds": [
        "55464657044963196816950587289035428064568320970692304673817341489687656669184",
        "55464657044963196816950587289035428064568320970692304673817341489687665059844",
        "55464657044963196816950587289035428064568320970692304673817341489687665059840"
      ]
    },
    {
      "x": 373,
      "y": 294,
      "size": 1,
      "price": "4683000000000000000000",
      "reserved": "",
      "salt": "0xd056d5c00ff4538f06116f428eb67bc22fd088fdbc8b6e214ac05694d824cff7",
      "assetIds": [
        "55464657044963196816950587289035428064568320970692304673817341489687656669185",
        "55464657044963196816950587289035428064568320970692304673817341489687665059844",
        "55464657044963196816950587289035428064568320970692304673817341489687665059840"
      ]
    },
    {
      "x": 373,
      "y": 295,
      "size": 1,
      "price": "4683000000000000000000",
      "reserved": "",
      "salt": "0x8a41b874922fe32cbed5a27904ce2d86823065113f9a8710f8b11c7aa2fad033",
      "assetIds": [
        "55464657044963196816950587289035428064568320970692304673817341489687656669185",
        "55464657044963196816950587289035428064568320970692304673817341489687665059843",
        "55464657044963196816950587289035428064568320970692304673817341489687665059840"
      ]
    },
    {
      "x": 373,
      "y": 296,
      "size": 1,
      "price": "4683000000000000000000",
      "reserved": "",
      "salt": "0x0096e163cc0e093456f9801219d08fea111f5fbcb55825461d72ee70a9d3c33a",
      "assetIds": [
        "55464657044963196816950587289035428064568320970692304673817341489687656669186",
        "55464657044963196816950587289035428064568320970692304673817341489687665059843",
        "55464657044963196816950587289035428064568320970692304673817341489687665059841"
      ]
    },
    {
      "x": 373,
      "y": 297,
      "size": 1,
      "price": "4683000000000000000000",
      "reserved": "",
      "salt": "0x1b5a485e543e4b50fd40bf80e8e9ccb5ae419ab350f8b6cb125f1cb2e3805554",
      "assetIds": [
        "55464657044963196816950587289035428064568320970692304673817341489687656669184",
        "55464657044963196816950587289035428064568320970692304673817341489687665059843",
        "55464657044963196816950587289035428064568320970692304673817341489687665059840"
      ]
    },
    {
      "x": 373,
      "y": 298,
      "size": 1,
      "price": "4683000000000000000000",
      "reserved": "",
      "salt": "0xc1dd7153d482693715a2821ce3f71bceca0a05e7042b189fb5f3bf77afab60de",
      "assetIds": [
        "55464657044963196816950587289035428064568320970692304673817341489687656669184",
        "55464657044963196816950587289035428064568320970692304673817341489687665059842",
        "55464657044963196816950587289035428064568320970692304673817341489687665059840"
      ]
    },
    {
      "x": 373,
      "y": 299,
      "size": 1,
      "price": "4683000000000000000000",
      "reserved": "",
      "salt": "0xee0cba15b49d0cf6e420b6013fca62242844a1f3a2f4a9eabfc8c39dcb0e071a",
      "assetIds": [
        "55464657044963196816950587289035428064568320970692304673817341489687656669184",
        "55464657044963196816950587289035428064568320970692304673817341489687665059843",
        "55464657044963196816950587289035428064568320970692304673817341489687665059840"
      ]
    },
    {
      "x": 373,
      "y": 300,
      "size": 1,
      "price": "4683000000000000000000",
      "reserved": "",
      "salt": "0x57e184f7411f02e063d96b9788aec3b112343d650613bef98a9080becd29639e",
      "assetIds": [
        "55464657044963196816950587289035428064568320970692304673817341489687656669187",
        "55464657044963196816950587289035428064568320970692304673817341489687665059844",
        "55464657044963196816950587289035428064568320970692304673817341489687665059841"
      ]
    },
    {
      "x": 373,
      "y": 301,
      "size": 1,
      "price": "4683000000000000000000",
      "reserved": "",
      "salt": "0x9b1014a6bd5ffa6ef3a975ac0ebfbceeee9a6e364be56f2d2ea0ef2aabd7257d",
      "assetIds": [
        "55464657044963196816950587289035428064568320970692304673817341489687656669186",
        "55464657044963196816950587289035428064568320970692304673817341489687665059844",
        "55464657044963196816950587289035428064568320970692304673817341489687665059841"
      ]
    },
    {
      "x": 373,
      "y": 302,
      "size": 1,
      "price": "4683000000000000000000",
      "reserved": "",
      "salt": "0x26e0ceb0e1f3c4fa9fae143e67c3329fbce598551b91a2e7f28c2e7c2c5ddec6",
      "assetIds": [
        "55464657044963196816950587289035428064568320970692304673817341489687656669184",
        "55464657044963196816950587289035428064568320970692304673817341489687665059844",
        "55464657044963196816950587289035428064568320970692304673817341489687665059840"
      ]
    },
    {
      "x": 373,
      "y": 303,
      "size": 1,
      "price": "4683000000000000000000",
      "reserved": "",
      "salt": "0xd01b1a4a0a170a92f3fb9b9397eb2da2dd42567ba84e13133410df0e358defab",
      "assetIds": [
        "55464657044963196816950587289035428064568320970692304673817341489687656669184",
        "55464657044963196816950587289035428064568320970692304673817341489687665059844",
        "55464657044963196816950587289035428064568320970692304673817341489687665059840"
      ]
    },
    {
      "x": 373,
      "y": 304,
      "size": 1,
      "price": "4683000000000000000000",
      "reserved": "",
      "salt": "0x21f0d448061cf25825dc46809ca649d9a2fc5ef1cae7d534c2eb01c2d7c6cbce",
      "assetIds": [
        "55464657044963196816950587289035428064568320970692304673817341489687656669187",
        "55464657044963196816950587289035428064568320970692304673817341489687665059842",
        "55464657044963196816950587289035428064568320970692304673817341489687665059841"
      ]
    },
    {
      "x": 373,
      "y": 305,
      "size": 1,
      "price": "4683000000000000000000",
      "reserved": "",
      "salt": "0xda69ee35fcdaf66ea211e8eb70b2524a5c695e1c044e15d0965334e8fa8da4e4",
      "assetIds": [
        "55464657044963196816950587289035428064568320970692304673817341489687656669187",
        "55464657044963196816950587289035428064568320970692304673817341489687665059842",
        "55464657044963196816950587289035428064568320970692304673817341489687665059841"
      ]
    },
    {
      "x": 374,
      "y": 231,
      "size": 1,
      "price": "4683000000000000000000",
      "reserved": "",
      "salt": "0x9689a21398916a7122748b7a4f979dfe86cd2bb83ee4eb03ac169054abc075a9",
      "assetIds": [
        "55464657044963196816950587289035428064568320970692304673817341489687656669187",
        "55464657044963196816950587289035428064568320970692304673817341489687665059842",
        "55464657044963196816950587289035428064568320970692304673817341489687665059841"
      ]
    },
    {
      "x": 374,
      "y": 232,
      "size": 1,
      "price": "4683000000000000000000",
      "reserved": "",
      "salt": "0x610426d66fe2cbe5eeb715dac331a0969c5aae69b1466acdd5ab12e8e01da84f",
      "assetIds": [
        "55464657044963196816950587289035428064568320970692304673817341489687656669185",
        "55464657044963196816950587289035428064568320970692304673817341489687665059842",
        "55464657044963196816950587289035428064568320970692304673817341489687665059840"
      ]
    },
    {
      "x": 374,
      "y": 233,
      "size": 1,
      "price": "4683000000000000000000",
      "reserved": "",
      "salt": "0xc94bb1689727bf0eeaf2938a4f748da103b4a7f6897725bc4161e853e6ad0257",
      "assetIds": [
        "55464657044963196816950587289035428064568320970692304673817341489687656669184",
        "55464657044963196816950587289035428064568320970692304673817341489687665059842",
        "55464657044963196816950587289035428064568320970692304673817341489687665059840"
      ]
    },
    {
      "x": 374,
      "y": 276,
      "size": 1,
      "price": "4683000000000000000000",
      "reserved": "",
      "salt": "0x5b49e7442a9bf7e5c7457ef3c899e9ab457f43d770e5f0db76a7cc0abec0eea5",
      "assetIds": [
        "55464657044963196816950587289035428064568320970692304673817341489687656669187",
        "55464657044963196816950587289035428064568320970692304673817341489687665059843",
        "55464657044963196816950587289035428064568320970692304673817341489687665059841"
      ]
    },
    {
      "x": 374,
      "y": 277,
      "size": 1,
      "price": "4683000000000000000000",
      "reserved": "",
      "salt": "0x78b5b19a58b3bd69434fc8e55fcc1078621b19e5a6b26bd2c44e4f677ceb66a3",
      "assetIds": [
        "55464657044963196816950587289035428064568320970692304673817341489687656669186",
        "55464657044963196816950587289035428064568320970692304673817341489687665059844",
        "55464657044963196816950587289035428064568320970692304673817341489687665059841"
      ]
    },
    {
      "x": 374,
      "y": 278,
      "size": 1,
      "price": "4683000000000000000000",
      "reserved": "",
      "salt": "0x04d89478e171d219263211ce9d7be087795ee1d5fd8d30250046ccab79ec74c1",
      "assetIds": [
        "55464657044963196816950587289035428064568320970692304673817341489687656669187",
        "55464657044963196816950587289035428064568320970692304673817341489687665059842",
        "55464657044963196816950587289035428064568320970692304673817341489687665059841"
      ]
    },
    {
      "x": 374,
      "y": 279,
      "size": 1,
      "price": "4683000000000000000000",
      "reserved": "",
      "salt": "0x2baaa5d926982c511b97afa8f4c3a2ae2fca6f93fa6210592d7b21f0103f5fdc",
      "assetIds": [
        "55464657044963196816950587289035428064568320970692304673817341489687656669184",
        "55464657044963196816950587289035428064568320970692304673817341489687665059844",
        "55464657044963196816950587289035428064568320970692304673817341489687665059840"
      ]
    },
    {
      "x": 374,
      "y": 280,
      "size": 1,
      "price": "4683000000000000000000",
      "reserved": "",
      "salt": "0x685903152122d9523228af57a5a50ae72fffdb5a6d4d826b5e4eaba661670af4",
      "assetIds": [
        "55464657044963196816950587289035428064568320970692304673817341489687656669185",
        "55464657044963196816950587289035428064568320970692304673817341489687665059842",
        "55464657044963196816950587289035428064568320970692304673817341489687665059840"
      ]
    },
    {
      "x": 374,
      "y": 281,
      "size": 1,
      "price": "4683000000000000000000",
      "reserved": "",
      "salt": "0x1f60a5a9bf981b5160bdc1f99af7eeb0fe60e70b3610175c1c06901c95b8927f",
      "assetIds": [
        "55464657044963196816950587289035428064568320970692304673817341489687656669187",
        "55464657044963196816950587289035428064568320970692304673817341489687665059842",
        "55464657044963196816950587289035428064568320970692304673817341489687665059841"
      ]
    },
    {
      "x": 374,
      "y": 288,
      "size": 1,
      "price": "4683000000000000000000",
      "reserved": "",
      "salt": "0x7ebfbcbcbb8c81489995b5aabeb9d1fd2be1e72bad3b774480ff54d8ebc1e91a",
      "assetIds": [
        "55464657044963196816950587289035428064568320970692304673817341489687656669187",
        "55464657044963196816950587289035428064568320970692304673817341489687665059843",
        "55464657044963196816950587289035428064568320970692304673817341489687665059841"
      ]
    },
    {
      "x": 374,
      "y": 289,
      "size": 1,
      "price": "4683000000000000000000",
      "reserved": "",
      "salt": "0x3f82582416dbfef9cda369a59e4759b1c695388c5c433aaee69e483c235ee30a",
      "assetIds": [
        "55464657044963196816950587289035428064568320970692304673817341489687656669185",
        "55464657044963196816950587289035428064568320970692304673817341489687665059844",
        "55464657044963196816950587289035428064568320970692304673817341489687665059840"
      ]
    },
    {
      "x": 374,
      "y": 290,
      "size": 1,
      "price": "4683000000000000000000",
      "reserved": "",
      "salt": "0x55896b50ecf561ea637077e7a59d6b3a22fa64dea8ceb4392489c01a6b072b4a",
      "assetIds": [
        "55464657044963196816950587289035428064568320970692304673817341489687656669187",
        "55464657044963196816950587289035428064568320970692304673817341489687665059844",
        "55464657044963196816950587289035428064568320970692304673817341489687665059841"
      ]
    },
    {
      "x": 374,
      "y": 291,
      "size": 1,
      "price": "4683000000000000000000",
      "reserved": "",
      "salt": "0x1392052ee6be4d2dbded255980d995c4e0506e1c0e266c98bf409f81c8e3b4d9",
      "assetIds": [
        "55464657044963196816950587289035428064568320970692304673817341489687656669184",
        "55464657044963196816950587289035428064568320970692304673817341489687665059844",
        "55464657044963196816950587289035428064568320970692304673817341489687665059840"
      ]
    },
    {
      "x": 374,
      "y": 292,
      "size": 1,
      "price": "4683000000000000000000",
      "reserved": "",
      "salt": "0x6309868a64184c90283e861ed590a21ff7a63f4e26a7b91f1d60173a9cf455d6",
      "assetIds": [
        "55464657044963196816950587289035428064568320970692304673817341489687656669185",
        "55464657044963196816950587289035428064568320970692304673817341489687665059844",
        "55464657044963196816950587289035428064568320970692304673817341489687665059840"
      ]
    },
    {
      "x": 374,
      "y": 293,
      "size": 1,
      "price": "4683000000000000000000",
      "reserved": "",
      "salt": "0xa1c2a32bdf5e2535286a7c2ab7726385bca2469b93cd60160c0cc17155464006",
      "assetIds": [
        "55464657044963196816950587289035428064568320970692304673817341489687656669187",
        "55464657044963196816950587289035428064568320970692304673817341489687665059844",
        "55464657044963196816950587289035428064568320970692304673817341489687665059841"
      ]
    },
    {
      "x": 374,
      "y": 294,
      "size": 1,
      "price": "4683000000000000000000",
      "reserved": "",
      "salt": "0xd13dd94d53a4430e92f1cfa41b645080e06ec7d7aceb67a908db07fd3cc037f8",
      "assetIds": [
        "55464657044963196816950587289035428064568320970692304673817341489687656669186",
        "55464657044963196816950587289035428064568320970692304673817341489687665059844",
        "55464657044963196816950587289035428064568320970692304673817341489687665059841"
      ]
    },
    {
      "x": 374,
      "y": 295,
      "size": 1,
      "price": "4683000000000000000000",
      "reserved": "",
      "salt": "0x975501fe7212f86e0cd533c5ee42dadcc7ae3318f76a49d3098a65b2e95d02d7",
      "assetIds": [
        "55464657044963196816950587289035428064568320970692304673817341489687656669187",
        "55464657044963196816950587289035428064568320970692304673817341489687665059843",
        "55464657044963196816950587289035428064568320970692304673817341489687665059841"
      ]
    },
    {
      "x": 374,
      "y": 296,
      "size": 1,
      "price": "4683000000000000000000",
      "reserved": "",
      "salt": "0x32e77a89eb4c580f79dc0547a75cfaa54edd191f1b3cb78377ef7c7a6e94b7d7",
      "assetIds": [
        "55464657044963196816950587289035428064568320970692304673817341489687656669187",
        "55464657044963196816950587289035428064568320970692304673817341489687665059844",
        "55464657044963196816950587289035428064568320970692304673817341489687665059841"
      ]
    },
    {
      "x": 374,
      "y": 297,
      "size": 1,
      "price": "4683000000000000000000",
      "reserved": "",
      "salt": "0x62482898c69b10c89504108d3b5f12c26690f75d50e036890305758fe2bb6c35",
      "assetIds": [
        "55464657044963196816950587289035428064568320970692304673817341489687656669186",
        "55464657044963196816950587289035428064568320970692304673817341489687665059844",
        "55464657044963196816950587289035428064568320970692304673817341489687665059841"
      ]
    },
    {
      "x": 374,
      "y": 298,
      "size": 1,
      "price": "1011000000000000000000",
      "reserved": "0x7a9fe22691c811ea339d9b73150e6911a5343dca",
      "salt": "0x8885e1cf1988d40a1b2f128e4603a47c4f2b9460f93cacf1b598cfa8522d2a4a",
      "assetIds": []
    },
    {
      "x": 374,
      "y": 299,
      "size": 1,
      "price": "4683000000000000000000",
      "reserved": "",
      "salt": "0x0624a4b0ecefc1e4c54d8360e3174756ce0d7199060b4b05ee84a23e15ca7e7e",
      "assetIds": [
        "55464657044963196816950587289035428064568320970692304673817341489687656669185",
        "55464657044963196816950587289035428064568320970692304673817341489687665059842",
        "55464657044963196816950587289035428064568320970692304673817341489687665059840"
      ]
    },
    {
      "x": 374,
      "y": 300,
      "size": 1,
      "price": "4683000000000000000000",
      "reserved": "",
      "salt": "0xba8564b4a3333aa1236c37b809dfe74628779af9b3a10efddeae3f5d020df3f6",
      "assetIds": [
        "55464657044963196816950587289035428064568320970692304673817341489687656669187",
        "55464657044963196816950587289035428064568320970692304673817341489687665059843",
        "55464657044963196816950587289035428064568320970692304673817341489687665059841"
      ]
    },
    {
      "x": 374,
      "y": 301,
      "size": 1,
      "price": "4683000000000000000000",
      "reserved": "",
      "salt": "0x002166e19ca257cfeee9c07085dfa186c39e84fe0f587df2b811e598bdb1e916",
      "assetIds": [
        "55464657044963196816950587289035428064568320970692304673817341489687656669184",
        "55464657044963196816950587289035428064568320970692304673817341489687665059842",
        "55464657044963196816950587289035428064568320970692304673817341489687665059840"
      ]
    },
    {
      "x": 374,
      "y": 302,
      "size": 1,
      "price": "4683000000000000000000",
      "reserved": "",
      "salt": "0x4d1303f2673ef46f519ea219df17803338905fce3e7acd06a9ef0e22e5e8ac82",
      "assetIds": [
        "55464657044963196816950587289035428064568320970692304673817341489687656669187",
        "55464657044963196816950587289035428064568320970692304673817341489687665059844",
        "55464657044963196816950587289035428064568320970692304673817341489687665059841"
      ]
    },
    {
      "x": 374,
      "y": 303,
      "size": 1,
      "price": "4683000000000000000000",
      "reserved": "",
      "salt": "0xa53dae27e444b3c0f6f8d910f95566c4db035bfdda639d46ce7828f37b941a05",
      "assetIds": [
        "55464657044963196816950587289035428064568320970692304673817341489687656669185",
        "55464657044963196816950587289035428064568320970692304673817341489687665059842",
        "55464657044963196816950587289035428064568320970692304673817341489687665059840"
      ]
    },
    {
      "x": 374,
      "y": 304,
      "size": 1,
      "price": "1011000000000000000000",
      "reserved": "0x7a9fe22691c811ea339d9b73150e6911a5343dca",
      "salt": "0xaa1e01bf7da1c16229c803021186afc8ea528e39390f6a4dbe174e3495458c8a",
      "assetIds": []
    },
    {
      "x": 374,
      "y": 305,
      "size": 1,
      "price": "4683000000000000000000",
      "reserved": "",
      "salt": "0x4eda929b16823249d106adfeec63f9fac49f81599c955f9afc0b67347ae68c16",
      "assetIds": [
        "55464657044963196816950587289035428064568320970692304673817341489687656669186",
        "55464657044963196816950587289035428064568320970692304673817341489687665059843",
        "55464657044963196816950587289035428064568320970692304673817341489687665059841"
      ]
    },
    {
      "x": 375,
      "y": 231,
      "size": 1,
      "price": "4683000000000000000000",
      "reserved": "",
      "salt": "0x732e0bf79fc573cf44f92004f7afe462b4d6da484c4a7fb8d5b7243f04ff78d4",
      "assetIds": [
        "55464657044963196816950587289035428064568320970692304673817341489687656669187",
        "55464657044963196816950587289035428064568320970692304673817341489687665059843",
        "55464657044963196816950587289035428064568320970692304673817341489687665059841"
      ]
    },
    {
      "x": 375,
      "y": 232,
      "size": 1,
      "price": "4683000000000000000000",
      "reserved": "",
      "salt": "0x61b67ee5001f7f0e56e5cf3a7e1e12a6654cdf41f0c7d64a62ec98beb9da9824",
      "assetIds": [
        "55464657044963196816950587289035428064568320970692304673817341489687656669184",
        "55464657044963196816950587289035428064568320970692304673817341489687665059843",
        "55464657044963196816950587289035428064568320970692304673817341489687665059840"
      ]
    },
    {
      "x": 375,
      "y": 233,
      "size": 1,
      "price": "4683000000000000000000",
      "reserved": "",
      "salt": "0xa9e77d54b4ffc34ffeacd379ae61d9fa681615160a270343faf40f4ddac838f3",
      "assetIds": [
        "55464657044963196816950587289035428064568320970692304673817341489687656669187",
        "55464657044963196816950587289035428064568320970692304673817341489687665059842",
        "55464657044963196816950587289035428064568320970692304673817341489687665059841"
      ]
    },
    {
      "x": 375,
      "y": 276,
      "size": 1,
      "price": "4683000000000000000000",
      "reserved": "",
      "salt": "0x1c40e940f1e89c90d709570e403c9be9201aabb439701c394bd54df87e978478",
      "assetIds": [
        "55464657044963196816950587289035428064568320970692304673817341489687656669187",
        "55464657044963196816950587289035428064568320970692304673817341489687665059843",
        "55464657044963196816950587289035428064568320970692304673817341489687665059841"
      ]
    },
    {
      "x": 375,
      "y": 277,
      "size": 1,
      "price": "4683000000000000000000",
      "reserved": "",
      "salt": "0xdc663e0964f114f47b9f4087b2033bec9e8603d84a5f15fbb37cee7e19269022",
      "assetIds": [
        "55464657044963196816950587289035428064568320970692304673817341489687656669186",
        "55464657044963196816950587289035428064568320970692304673817341489687665059844",
        "55464657044963196816950587289035428064568320970692304673817341489687665059841"
      ]
    },
    {
      "x": 375,
      "y": 278,
      "size": 1,
      "price": "4683000000000000000000",
      "reserved": "",
      "salt": "0xeb4fc4f9ec1aeb083e6066bd556e13ce8014915b5bccb401e4245632f38e5c97",
      "assetIds": [
        "55464657044963196816950587289035428064568320970692304673817341489687656669186",
        "55464657044963196816950587289035428064568320970692304673817341489687665059843",
        "55464657044963196816950587289035428064568320970692304673817341489687665059841"
      ]
    },
    {
      "x": 375,
      "y": 279,
      "size": 1,
      "price": "4683000000000000000000",
      "reserved": "",
      "salt": "0x4b662b20aa2051f041f964f85daa91f6d9369b1c8243a569f54cde4564114ef0",
      "assetIds": [
        "55464657044963196816950587289035428064568320970692304673817341489687656669184",
        "55464657044963196816950587289035428064568320970692304673817341489687665059844",
        "55464657044963196816950587289035428064568320970692304673817341489687665059840"
      ]
    },
    {
      "x": 375,
      "y": 280,
      "size": 1,
      "price": "4683000000000000000000",
      "reserved": "",
      "salt": "0x591ba4b8256b603d27e5b0539ebe16057ad7b44b167cbadb0299695aa1f03d9f",
      "assetIds": [
        "55464657044963196816950587289035428064568320970692304673817341489687656669184",
        "55464657044963196816950587289035428064568320970692304673817341489687665059844",
        "55464657044963196816950587289035428064568320970692304673817341489687665059840"
      ]
    },
    {
      "x": 375,
      "y": 281,
      "size": 1,
      "price": "4683000000000000000000",
      "reserved": "",
      "salt": "0x3c29573ef38fe513e5b019e7b3332c8466b228ac788bbce5cba7ae93944892f5",
      "assetIds": [
        "55464657044963196816950587289035428064568320970692304673817341489687656669186",
        "55464657044963196816950587289035428064568320970692304673817341489687665059843",
        "55464657044963196816950587289035428064568320970692304673817341489687665059841"
      ]
    },
    {
      "x": 375,
      "y": 288,
      "size": 1,
      "price": "4683000000000000000000",
      "reserved": "",
      "salt": "0xa140fa94adee8673d2c39532e5e0a5e3b7ab05d5e326557e5c947d8d1f9f33a0",
      "assetIds": [
        "55464657044963196816950587289035428064568320970692304673817341489687656669185",
        "55464657044963196816950587289035428064568320970692304673817341489687665059842",
        "55464657044963196816950587289035428064568320970692304673817341489687665059840"
      ]
    },
    {
      "x": 375,
      "y": 289,
      "size": 1,
      "price": "4683000000000000000000",
      "reserved": "",
      "salt": "0xef533146e866a25c6b8fa426c5b70b55589fbabc96388056aee25bd5f1dc2d8a",
      "assetIds": [
        "55464657044963196816950587289035428064568320970692304673817341489687656669185",
        "55464657044963196816950587289035428064568320970692304673817341489687665059844",
        "55464657044963196816950587289035428064568320970692304673817341489687665059840"
      ]
    },
    {
      "x": 375,
      "y": 290,
      "size": 1,
      "price": "4683000000000000000000",
      "reserved": "",
      "salt": "0x2188e3b3cbba65b01f6ac254fb0a612d83881ed922f58cc99fe629c9eedd239d",
      "assetIds": [
        "55464657044963196816950587289035428064568320970692304673817341489687656669186",
        "55464657044963196816950587289035428064568320970692304673817341489687665059842",
        "55464657044963196816950587289035428064568320970692304673817341489687665059841"
      ]
    },
    {
      "x": 375,
      "y": 291,
      "size": 1,
      "price": "4683000000000000000000",
      "reserved": "",
      "salt": "0x451ee1a99e504ce84afe3f8533248bd0844504edd8e8980db2731f5f203447b6",
      "assetIds": [
        "55464657044963196816950587289035428064568320970692304673817341489687656669185",
        "55464657044963196816950587289035428064568320970692304673817341489687665059842",
        "55464657044963196816950587289035428064568320970692304673817341489687665059840"
      ]
    },
    {
      "x": 375,
      "y": 292,
      "size": 1,
      "price": "4683000000000000000000",
      "reserved": "",
      "salt": "0x1fc8a806858b6e0561a2efa04bbe7a8ac21780d12b3c23c4eaa54b9c6736c0bb",
      "assetIds": [
        "55464657044963196816950587289035428064568320970692304673817341489687656669187",
        "55464657044963196816950587289035428064568320970692304673817341489687665059842",
        "55464657044963196816950587289035428064568320970692304673817341489687665059841"
      ]
    },
    {
      "x": 375,
      "y": 293,
      "size": 1,
      "price": "4683000000000000000000",
      "reserved": "",
      "salt": "0x36b82f3e0a65d63c0c83a6afa90188cdb59f5854e73a647204c9f8ea2e57d8cd",
      "assetIds": [
        "55464657044963196816950587289035428064568320970692304673817341489687656669184",
        "55464657044963196816950587289035428064568320970692304673817341489687665059844",
        "55464657044963196816950587289035428064568320970692304673817341489687665059840"
      ]
    },
    {
      "x": 375,
      "y": 294,
      "size": 1,
      "price": "4683000000000000000000",
      "reserved": "",
      "salt": "0xcab33b43882c769ee03e930968881b79f1dc0cb2e66f10e373db29394d6e32f1",
      "assetIds": [
        "55464657044963196816950587289035428064568320970692304673817341489687656669184",
        "55464657044963196816950587289035428064568320970692304673817341489687665059842",
        "55464657044963196816950587289035428064568320970692304673817341489687665059840"
      ]
    },
    {
      "x": 375,
      "y": 295,
      "size": 1,
      "price": "4683000000000000000000",
      "reserved": "",
      "salt": "0x934eed55f53b3568f0485f6892123fb14d796a780fca107be8c06cc251d6ff1b",
      "assetIds": [
        "55464657044963196816950587289035428064568320970692304673817341489687656669187",
        "55464657044963196816950587289035428064568320970692304673817341489687665059842",
        "55464657044963196816950587289035428064568320970692304673817341489687665059841"
      ]
    },
    {
      "x": 375,
      "y": 296,
      "size": 1,
      "price": "4683000000000000000000",
      "reserved": "",
      "salt": "0x770ab05eb9defa6e104b56d5d38950541e5f0bd6af3c2ad29e44b018b388362d",
      "assetIds": [
        "55464657044963196816950587289035428064568320970692304673817341489687656669186",
        "55464657044963196816950587289035428064568320970692304673817341489687665059844",
        "55464657044963196816950587289035428064568320970692304673817341489687665059841"
      ]
    },
    {
      "x": 375,
      "y": 297,
      "size": 1,
      "price": "4683000000000000000000",
      "reserved": "",
      "salt": "0xb0d13b757c3098935943f62719e59a7e784f5b1dc4ab1f0e4da8cc3fcae20da5",
      "assetIds": [
        "55464657044963196816950587289035428064568320970692304673817341489687656669184",
        "55464657044963196816950587289035428064568320970692304673817341489687665059843",
        "55464657044963196816950587289035428064568320970692304673817341489687665059840"
      ]
    },
    {
      "x": 375,
      "y": 298,
      "size": 1,
      "price": "4683000000000000000000",
      "reserved": "",
      "salt": "0xe30323a908ee282f6b632fa9c287fda5618d27efa11ce147f36ac226e0dd3b52",
      "assetIds": [
        "55464657044963196816950587289035428064568320970692304673817341489687656669187",
        "55464657044963196816950587289035428064568320970692304673817341489687665059843",
        "55464657044963196816950587289035428064568320970692304673817341489687665059841"
      ]
    },
    {
      "x": 375,
      "y": 299,
      "size": 1,
      "price": "4683000000000000000000",
      "reserved": "",
      "salt": "0xdcf23425c6c5e45f5e1eea67a0a35be86b854412f8b08dd9e6d18fc364c74ff9",
      "assetIds": [
        "55464657044963196816950587289035428064568320970692304673817341489687656669186",
        "55464657044963196816950587289035428064568320970692304673817341489687665059842",
        "55464657044963196816950587289035428064568320970692304673817341489687665059841"
      ]
    },
    {
      "x": 375,
      "y": 300,
      "size": 1,
      "price": "4683000000000000000000",
      "reserved": "",
      "salt": "0xa54fcd9dc413cdccc507ed7cd1530d3c00d4715a4ac9a86068cb16bc0f5988c8",
      "assetIds": [
        "55464657044963196816950587289035428064568320970692304673817341489687656669184",
        "55464657044963196816950587289035428064568320970692304673817341489687665059844",
        "55464657044963196816950587289035428064568320970692304673817341489687665059840"
      ]
    },
    {
      "x": 375,
      "y": 301,
      "size": 1,
      "price": "4683000000000000000000",
      "reserved": "",
      "salt": "0x3a1d0ed13a5963514209ae8004cf4a530275a30adc1201189d8371c0625ea7f1",
      "assetIds": [
        "55464657044963196816950587289035428064568320970692304673817341489687656669187",
        "55464657044963196816950587289035428064568320970692304673817341489687665059844",
        "55464657044963196816950587289035428064568320970692304673817341489687665059841"
      ]
    },
    {
      "x": 375,
      "y": 302,
      "size": 1,
      "price": "4683000000000000000000",
      "reserved": "",
      "salt": "0x4274509395b6b0aaa1f3546fa30e84b70216e7d9e505449cb014d3f5dee9b6c1",
      "assetIds": [
        "55464657044963196816950587289035428064568320970692304673817341489687656669185",
        "55464657044963196816950587289035428064568320970692304673817341489687665059843",
        "55464657044963196816950587289035428064568320970692304673817341489687665059840"
      ]
    },
    {
      "x": 375,
      "y": 303,
      "size": 1,
      "price": "4683000000000000000000",
      "reserved": "",
      "salt": "0xef1627755478f6be15930bc4eb118a28e6fc96030c9f2a4adafde64f715c35fd",
      "assetIds": [
        "55464657044963196816950587289035428064568320970692304673817341489687656669184",
        "55464657044963196816950587289035428064568320970692304673817341489687665059842",
        "55464657044963196816950587289035428064568320970692304673817341489687665059840"
      ]
    },
    {
      "x": 375,
      "y": 304,
      "size": 1,
      "price": "4683000000000000000000",
      "reserved": "",
      "salt": "0x647dbf3c87b44e19659eae3de5ed744db4da9a0ae001ed1e6916f1d306e7a116",
      "assetIds": [
        "55464657044963196816950587289035428064568320970692304673817341489687656669186",
        "55464657044963196816950587289035428064568320970692304673817341489687665059844",
        "55464657044963196816950587289035428064568320970692304673817341489687665059841"
      ]
    },
    {
      "x": 375,
      "y": 305,
      "size": 1,
      "price": "4683000000000000000000",
      "reserved": "",
      "salt": "0xbdcac54f6c8030cae460a159037261b58045568287dbc92d7a06edcde3cedcd0",
      "assetIds": [
        "55464657044963196816950587289035428064568320970692304673817341489687656669185",
        "55464657044963196816950587289035428064568320970692304673817341489687665059842",
        "55464657044963196816950587289035428064568320970692304673817341489687665059840"
      ]
    },
    {
      "x": 376,
      "y": 231,
      "size": 1,
      "price": "4683000000000000000000",
      "reserved": "",
      "salt": "0x3d37fc60f13b382c23317025d30ca530376165a49719e84dda3ff8be4cbfd1b2",
      "assetIds": [
        "55464657044963196816950587289035428064568320970692304673817341489687656669187",
        "55464657044963196816950587289035428064568320970692304673817341489687665059844",
        "55464657044963196816950587289035428064568320970692304673817341489687665059841"
      ]
    },
    {
      "x": 376,
      "y": 232,
      "size": 1,
      "price": "4683000000000000000000",
      "reserved": "",
      "salt": "0x744ceb14538faa713a7e356106900d377371b8477d09157c572735aeae489300",
      "assetIds": [
        "55464657044963196816950587289035428064568320970692304673817341489687656669187",
        "55464657044963196816950587289035428064568320970692304673817341489687665059844",
        "55464657044963196816950587289035428064568320970692304673817341489687665059841"
      ]
    },
    {
      "x": 376,
      "y": 233,
      "size": 1,
      "price": "4683000000000000000000",
      "reserved": "",
      "salt": "0x83227780061b0bb3c41de1752a27f4460cc59994a901a1c69e9329cbddd5225d",
      "assetIds": [
        "55464657044963196816950587289035428064568320970692304673817341489687656669184",
        "55464657044963196816950587289035428064568320970692304673817341489687665059844",
        "55464657044963196816950587289035428064568320970692304673817341489687665059840"
      ]
    },
    {
      "x": 376,
      "y": 276,
      "size": 1,
      "price": "4683000000000000000000",
      "reserved": "",
      "salt": "0x0c3f6a794adfe954dfbe53c288807c02f7c15d1045f14ed3ac64f6b948b34478",
      "assetIds": [
        "55464657044963196816950587289035428064568320970692304673817341489687656669184",
        "55464657044963196816950587289035428064568320970692304673817341489687665059844",
        "55464657044963196816950587289035428064568320970692304673817341489687665059840"
      ]
    },
    {
      "x": 376,
      "y": 277,
      "size": 1,
      "price": "4683000000000000000000",
      "reserved": "",
      "salt": "0x502e1e54b16e49b8ab082f91d0892a1906f564448853242d280893fc6e848f12",
      "assetIds": [
        "55464657044963196816950587289035428064568320970692304673817341489687656669186",
        "55464657044963196816950587289035428064568320970692304673817341489687665059843",
        "55464657044963196816950587289035428064568320970692304673817341489687665059841"
      ]
    },
    {
      "x": 376,
      "y": 278,
      "size": 1,
      "price": "4683000000000000000000",
      "reserved": "",
      "salt": "0xdb64e89935d5d27a53a261c5802d5079795279b5cca0bf741cf232b2245423ee",
      "assetIds": [
        "55464657044963196816950587289035428064568320970692304673817341489687656669187",
        "55464657044963196816950587289035428064568320970692304673817341489687665059844",
        "55464657044963196816950587289035428064568320970692304673817341489687665059841"
      ]
    },
    {
      "x": 376,
      "y": 279,
      "size": 1,
      "price": "4683000000000000000000",
      "reserved": "",
      "salt": "0x12390193e251f789b5563593e188037d6d1dbffeecceb43240b4887eb94f59f6",
      "assetIds": [
        "55464657044963196816950587289035428064568320970692304673817341489687656669184",
        "55464657044963196816950587289035428064568320970692304673817341489687665059843",
        "55464657044963196816950587289035428064568320970692304673817341489687665059840"
      ]
    },
    {
      "x": 376,
      "y": 280,
      "size": 1,
      "price": "4683000000000000000000",
      "reserved": "",
      "salt": "0x06128d7b54e04d103d7fe70cdeb77b7e59caeebf8236d5144b0127133026f4a1",
      "assetIds": [
        "55464657044963196816950587289035428064568320970692304673817341489687656669186",
        "55464657044963196816950587289035428064568320970692304673817341489687665059843",
        "55464657044963196816950587289035428064568320970692304673817341489687665059841"
      ]
    },
    {
      "x": 376,
      "y": 281,
      "size": 1,
      "price": "4683000000000000000000",
      "reserved": "",
      "salt": "0xfe9c2f65db7bd1742310a6c86e561b30bfe4e71b5e8237a19dca7e1f3f791706",
      "assetIds": [
        "55464657044963196816950587289035428064568320970692304673817341489687656669185",
        "55464657044963196816950587289035428064568320970692304673817341489687665059843",
        "55464657044963196816950587289035428064568320970692304673817341489687665059840"
      ]
    },
    {
      "x": 376,
      "y": 288,
      "size": 1,
      "price": "4683000000000000000000",
      "reserved": "",
      "salt": "0xf7ea596189d7a232856b1c1877ba8fb8b380abe48b1c56f8ccf8e13913176e3a",
      "assetIds": [
        "55464657044963196816950587289035428064568320970692304673817341489687656669184",
        "55464657044963196816950587289035428064568320970692304673817341489687665059842",
        "55464657044963196816950587289035428064568320970692304673817341489687665059840"
      ]
    },
    {
      "x": 376,
      "y": 289,
      "size": 1,
      "price": "4683000000000000000000",
      "reserved": "",
      "salt": "0x29c1c9dd6465817006fa233c55e8c7b97b3e8a9fa13875910d0e5b81f6002101",
      "assetIds": [
        "55464657044963196816950587289035428064568320970692304673817341489687656669186",
        "55464657044963196816950587289035428064568320970692304673817341489687665059842",
        "55464657044963196816950587289035428064568320970692304673817341489687665059841"
      ]
    },
    {
      "x": 376,
      "y": 290,
      "size": 1,
      "price": "4683000000000000000000",
      "reserved": "",
      "salt": "0xdbd73190b957b39e5d83f939240db4fa0867dc0aaf967c45cf1907cd035d50f5",
      "assetIds": [
        "55464657044963196816950587289035428064568320970692304673817341489687656669187",
        "55464657044963196816950587289035428064568320970692304673817341489687665059843",
        "55464657044963196816950587289035428064568320970692304673817341489687665059841"
      ]
    },
    {
      "x": 376,
      "y": 291,
      "size": 1,
      "price": "4683000000000000000000",
      "reserved": "",
      "salt": "0x63017577def0008fae47dde6635e12e68a7a5880b4e9807d63ee83a1d9c6484b",
      "assetIds": [
        "55464657044963196816950587289035428064568320970692304673817341489687656669187",
        "55464657044963196816950587289035428064568320970692304673817341489687665059844",
        "55464657044963196816950587289035428064568320970692304673817341489687665059841"
      ]
    },
    {
      "x": 376,
      "y": 292,
      "size": 1,
      "price": "4683000000000000000000",
      "reserved": "",
      "salt": "0x6ab9d166da93deecf9752fabb22b821df86d28b3d64e33c652463b7c085e1497",
      "assetIds": [
        "55464657044963196816950587289035428064568320970692304673817341489687656669184",
        "55464657044963196816950587289035428064568320970692304673817341489687665059844",
        "55464657044963196816950587289035428064568320970692304673817341489687665059840"
      ]
    },
    {
      "x": 376,
      "y": 293,
      "size": 1,
      "price": "4683000000000000000000",
      "reserved": "",
      "salt": "0xade07d0aa957678b1bc8c3d14039aac56c3cb19946ee1908f6b276680416d14a",
      "assetIds": [
        "55464657044963196816950587289035428064568320970692304673817341489687656669187",
        "55464657044963196816950587289035428064568320970692304673817341489687665059842",
        "55464657044963196816950587289035428064568320970692304673817341489687665059841"
      ]
    },
    {
      "x": 376,
      "y": 294,
      "size": 1,
      "price": "4683000000000000000000",
      "reserved": "",
      "salt": "0x10ae42a154c05e9734cf4353ef303ad585e093c259e6eb822ea42424497a1318",
      "assetIds": [
        "55464657044963196816950587289035428064568320970692304673817341489687656669187",
        "55464657044963196816950587289035428064568320970692304673817341489687665059842",
        "55464657044963196816950587289035428064568320970692304673817341489687665059841"
      ]
    },
    {
      "x": 376,
      "y": 295,
      "size": 1,
      "price": "4683000000000000000000",
      "reserved": "",
      "salt": "0x6052569ad3f3fc4e446cacc871f2f18a5adafab231dbcadb7120f1b8ba17ecdb",
      "assetIds": [
        "55464657044963196816950587289035428064568320970692304673817341489687656669187",
        "55464657044963196816950587289035428064568320970692304673817341489687665059842",
        "55464657044963196816950587289035428064568320970692304673817341489687665059841"
      ]
    },
    {
      "x": 376,
      "y": 296,
      "size": 1,
      "price": "4683000000000000000000",
      "reserved": "",
      "salt": "0x276a0c31cecb2d38479ca8e275d15bd03e8425853a6e8a80e5dd89003fe83c99",
      "assetIds": [
        "55464657044963196816950587289035428064568320970692304673817341489687656669187",
        "55464657044963196816950587289035428064568320970692304673817341489687665059843",
        "55464657044963196816950587289035428064568320970692304673817341489687665059841"
      ]
    },
    {
      "x": 376,
      "y": 297,
      "size": 1,
      "price": "4683000000000000000000",
      "reserved": "",
      "salt": "0x33b62827c02f13c65ba81ae7e5cb6d97b69d6a4bdc944173ed498acbf55145d7",
      "assetIds": [
        "55464657044963196816950587289035428064568320970692304673817341489687656669184",
        "55464657044963196816950587289035428064568320970692304673817341489687665059842",
        "55464657044963196816950587289035428064568320970692304673817341489687665059840"
      ]
    },
    {
      "x": 376,
      "y": 298,
      "size": 1,
      "price": "4683000000000000000000",
      "reserved": "",
      "salt": "0x5f4f8fe0b479e1933ea83c43917398dcc486087b1d1a6d9a7db43df28ab6c148",
      "assetIds": [
        "55464657044963196816950587289035428064568320970692304673817341489687656669186",
        "55464657044963196816950587289035428064568320970692304673817341489687665059844",
        "55464657044963196816950587289035428064568320970692304673817341489687665059841"
      ]
    },
    {
      "x": 376,
      "y": 299,
      "size": 1,
      "price": "4683000000000000000000",
      "reserved": "",
      "salt": "0x6400af582faa02d4772cb6ec7081ab9d5cae89b559751fee6cd45b98cbac7797",
      "assetIds": [
        "55464657044963196816950587289035428064568320970692304673817341489687656669186",
        "55464657044963196816950587289035428064568320970692304673817341489687665059842",
        "55464657044963196816950587289035428064568320970692304673817341489687665059841"
      ]
    },
    {
      "x": 376,
      "y": 300,
      "size": 1,
      "price": "4683000000000000000000",
      "reserved": "",
      "salt": "0x26e26bc851b14ead8a099b74c1472551c7326c9f262c3778543a86630ec6e8b8",
      "assetIds": [
        "55464657044963196816950587289035428064568320970692304673817341489687656669187",
        "55464657044963196816950587289035428064568320970692304673817341489687665059842",
        "55464657044963196816950587289035428064568320970692304673817341489687665059841"
      ]
    },
    {
      "x": 376,
      "y": 301,
      "size": 1,
      "price": "4683000000000000000000",
      "reserved": "",
      "salt": "0x0a6221db38d8d6d54299df78146f2c693d5be475faf3da74857cb69c9daeba79",
      "assetIds": [
        "55464657044963196816950587289035428064568320970692304673817341489687656669186",
        "55464657044963196816950587289035428064568320970692304673817341489687665059844",
        "55464657044963196816950587289035428064568320970692304673817341489687665059841"
      ]
    },
    {
      "x": 376,
      "y": 302,
      "size": 1,
      "price": "4683000000000000000000",
      "reserved": "",
      "salt": "0xfbf1123033a331f9c56ab1b41c41d33c454bae86a151c03c4f299cf4cb001b81",
      "assetIds": [
        "55464657044963196816950587289035428064568320970692304673817341489687656669185",
        "55464657044963196816950587289035428064568320970692304673817341489687665059844",
        "55464657044963196816950587289035428064568320970692304673817341489687665059840"
      ]
    },
    {
      "x": 376,
      "y": 303,
      "size": 1,
      "price": "4683000000000000000000",
      "reserved": "",
      "salt": "0xbf05721ff7a530f2aca1b2a50e9e7ed4187c2b93ed9111589ab8ed7eec70fa13",
      "assetIds": [
        "55464657044963196816950587289035428064568320970692304673817341489687656669186",
        "55464657044963196816950587289035428064568320970692304673817341489687665059842",
        "55464657044963196816950587289035428064568320970692304673817341489687665059841"
      ]
    },
    {
      "x": 376,
      "y": 304,
      "size": 1,
      "price": "4683000000000000000000",
      "reserved": "",
      "salt": "0x899b7c18cb1392fd75ceedc58d4013c9968bc84a74ce6feafcf2f489c7389ad2",
      "assetIds": [
        "55464657044963196816950587289035428064568320970692304673817341489687656669184",
        "55464657044963196816950587289035428064568320970692304673817341489687665059844",
        "55464657044963196816950587289035428064568320970692304673817341489687665059840"
      ]
    },
    {
      "x": 376,
      "y": 305,
      "size": 1,
      "price": "4683000000000000000000",
      "reserved": "",
      "salt": "0x5f4b98857cfec58097281c379c50f7d3b999654fa6fe459701030c5b182a4d80",
      "assetIds": [
        "55464657044963196816950587289035428064568320970692304673817341489687656669187",
        "55464657044963196816950587289035428064568320970692304673817341489687665059842",
        "55464657044963196816950587289035428064568320970692304673817341489687665059841"
      ]
    },
    {
      "x": 377,
      "y": 231,
      "size": 1,
      "price": "4683000000000000000000",
      "reserved": "",
      "salt": "0xcb9161cb57faf1741f213c61ad406bdb64cbacff8850c904e6c8929272b0c325",
      "assetIds": [
        "55464657044963196816950587289035428064568320970692304673817341489687656669187",
        "55464657044963196816950587289035428064568320970692304673817341489687665059844",
        "55464657044963196816950587289035428064568320970692304673817341489687665059841"
      ]
    },
    {
      "x": 377,
      "y": 232,
      "size": 1,
      "price": "4683000000000000000000",
      "reserved": "",
      "salt": "0x16c36b09dad9b889ecf55e0b08af54c8354a6e446c955be07dff5a3934654d46",
      "assetIds": [
        "55464657044963196816950587289035428064568320970692304673817341489687656669187",
        "55464657044963196816950587289035428064568320970692304673817341489687665059844",
        "55464657044963196816950587289035428064568320970692304673817341489687665059841"
      ]
    },
    {
      "x": 377,
      "y": 233,
      "size": 1,
      "price": "4683000000000000000000",
      "reserved": "",
      "salt": "0xc002d3bf4c10c886e05c337f318d9a7dc40f0f8f5150c109ef95e58ab27bf4c8",
      "assetIds": [
        "55464657044963196816950587289035428064568320970692304673817341489687656669184",
        "55464657044963196816950587289035428064568320970692304673817341489687665059842",
        "55464657044963196816950587289035428064568320970692304673817341489687665059840"
      ]
    },
    {
      "x": 377,
      "y": 276,
      "size": 1,
      "price": "4683000000000000000000",
      "reserved": "",
      "salt": "0x16644aee601bda789a8326ab4f8fe9edd3d46ff175c822dc85d62e749e7f7c8c",
      "assetIds": [
        "55464657044963196816950587289035428064568320970692304673817341489687656669186",
        "55464657044963196816950587289035428064568320970692304673817341489687665059843",
        "55464657044963196816950587289035428064568320970692304673817341489687665059841"
      ]
    },
    {
      "x": 377,
      "y": 277,
      "size": 1,
      "price": "4683000000000000000000",
      "reserved": "",
      "salt": "0xae4d6bf37cb4d3ddc8bfe2c283b5bf8c16b1d1edffec1262685c516bb2cf7678",
      "assetIds": [
        "55464657044963196816950587289035428064568320970692304673817341489687656669185",
        "55464657044963196816950587289035428064568320970692304673817341489687665059843",
        "55464657044963196816950587289035428064568320970692304673817341489687665059840"
      ]
    },
    {
      "x": 377,
      "y": 278,
      "size": 1,
      "price": "4683000000000000000000",
      "reserved": "",
      "salt": "0x92e17fb00a73760d3f28b47fab8166d3c35a6e4fbc6c5f4049c459ae691aa722",
      "assetIds": [
        "55464657044963196816950587289035428064568320970692304673817341489687656669185",
        "55464657044963196816950587289035428064568320970692304673817341489687665059844",
        "55464657044963196816950587289035428064568320970692304673817341489687665059840"
      ]
    },
    {
      "x": 377,
      "y": 279,
      "size": 1,
      "price": "4683000000000000000000",
      "reserved": "",
      "salt": "0x6c62eb5bcb239232c50c241c024a8cfe895c2d33d3e0142ec8dbf7e9f099de01",
      "assetIds": [
        "55464657044963196816950587289035428064568320970692304673817341489687656669185",
        "55464657044963196816950587289035428064568320970692304673817341489687665059843",
        "55464657044963196816950587289035428064568320970692304673817341489687665059840"
      ]
    },
    {
      "x": 377,
      "y": 280,
      "size": 1,
      "price": "4683000000000000000000",
      "reserved": "",
      "salt": "0x40c246037f21bd8c23eb1672ab9ca1f37a3d6e2a429ee4af2d8ba12fcc0200fe",
      "assetIds": [
        "55464657044963196816950587289035428064568320970692304673817341489687656669186",
        "55464657044963196816950587289035428064568320970692304673817341489687665059842",
        "55464657044963196816950587289035428064568320970692304673817341489687665059841"
      ]
    },
    {
      "x": 377,
      "y": 281,
      "size": 1,
      "price": "4683000000000000000000",
      "reserved": "",
      "salt": "0x1aee23299e492b349f7167cad17af137ef6dd46eb0ac260f7976d03386560967",
      "assetIds": [
        "55464657044963196816950587289035428064568320970692304673817341489687656669184",
        "55464657044963196816950587289035428064568320970692304673817341489687665059843",
        "55464657044963196816950587289035428064568320970692304673817341489687665059840"
      ]
    },
    {
      "x": 377,
      "y": 288,
      "size": 1,
      "price": "4683000000000000000000",
      "reserved": "",
      "salt": "0x0cb28517816d429841af250969c1aaaf4f81c93d75362c5eafdd002367807132",
      "assetIds": [
        "55464657044963196816950587289035428064568320970692304673817341489687656669186",
        "55464657044963196816950587289035428064568320970692304673817341489687665059843",
        "55464657044963196816950587289035428064568320970692304673817341489687665059841"
      ]
    },
    {
      "x": 377,
      "y": 289,
      "size": 1,
      "price": "4683000000000000000000",
      "reserved": "",
      "salt": "0xb0eb5c2a8c214f0727d56ff82af387c7d34883d5be80bca7615cc3e132bf32e2",
      "assetIds": [
        "55464657044963196816950587289035428064568320970692304673817341489687656669185",
        "55464657044963196816950587289035428064568320970692304673817341489687665059844",
        "55464657044963196816950587289035428064568320970692304673817341489687665059840"
      ]
    },
    {
      "x": 377,
      "y": 290,
      "size": 1,
      "price": "4683000000000000000000",
      "reserved": "",
      "salt": "0x90b3a8e1b6bd6d2731ca792cbe0c805a8d9d2bc489d74d322d16f2ee104bff54",
      "assetIds": [
        "55464657044963196816950587289035428064568320970692304673817341489687656669185",
        "55464657044963196816950587289035428064568320970692304673817341489687665059842",
        "55464657044963196816950587289035428064568320970692304673817341489687665059840"
      ]
    },
    {
      "x": 377,
      "y": 291,
      "size": 1,
      "price": "4683000000000000000000",
      "reserved": "",
      "salt": "0xfb7262293fa42d5c2ab23ab4179d271a3a167c91df940fba1fa08d15681cc37b",
      "assetIds": [
        "55464657044963196816950587289035428064568320970692304673817341489687656669185",
        "55464657044963196816950587289035428064568320970692304673817341489687665059843",
        "55464657044963196816950587289035428064568320970692304673817341489687665059840"
      ]
    },
    {
      "x": 377,
      "y": 292,
      "size": 1,
      "price": "4683000000000000000000",
      "reserved": "",
      "salt": "0xe6158115f7b8462980d8502a5dda6e8f2b9beffc0f408a58768f5171fdf6decd",
      "assetIds": [
        "55464657044963196816950587289035428064568320970692304673817341489687656669184",
        "55464657044963196816950587289035428064568320970692304673817341489687665059842",
        "55464657044963196816950587289035428064568320970692304673817341489687665059840"
      ]
    },
    {
      "x": 377,
      "y": 293,
      "size": 1,
      "price": "4683000000000000000000",
      "reserved": "",
      "salt": "0x86f6791b178a272032ae92f58dbea4d7e4f98e1668a0dd8b368bac6aadb0502d",
      "assetIds": [
        "55464657044963196816950587289035428064568320970692304673817341489687656669185",
        "55464657044963196816950587289035428064568320970692304673817341489687665059844",
        "55464657044963196816950587289035428064568320970692304673817341489687665059840"
      ]
    },
    {
      "x": 377,
      "y": 294,
      "size": 1,
      "price": "4683000000000000000000",
      "reserved": "",
      "salt": "0x3b0ebdf0f76656792390402b0b65b357f8257ffbeaf3ff4f251a145f6e129253",
      "assetIds": [
        "55464657044963196816950587289035428064568320970692304673817341489687656669185",
        "55464657044963196816950587289035428064568320970692304673817341489687665059844",
        "55464657044963196816950587289035428064568320970692304673817341489687665059840"
      ]
    },
    {
      "x": 377,
      "y": 295,
      "size": 1,
      "price": "4683000000000000000000",
      "reserved": "",
      "salt": "0xf6c45135f2abbdcfa1ae640810131b671dd621c874b5d3a360cd39414469b1b1",
      "assetIds": [
        "55464657044963196816950587289035428064568320970692304673817341489687656669187",
        "55464657044963196816950587289035428064568320970692304673817341489687665059842",
        "55464657044963196816950587289035428064568320970692304673817341489687665059841"
      ]
    },
    {
      "x": 377,
      "y": 296,
      "size": 1,
      "price": "4683000000000000000000",
      "reserved": "",
      "salt": "0x2f6ee93799f36aadfefe372500fe2ced7be4994918a7400c26f682ddc99b1c4c",
      "assetIds": [
        "55464657044963196816950587289035428064568320970692304673817341489687656669185",
        "55464657044963196816950587289035428064568320970692304673817341489687665059843",
        "55464657044963196816950587289035428064568320970692304673817341489687665059840"
      ]
    },
    {
      "x": 377,
      "y": 297,
      "size": 1,
      "price": "4683000000000000000000",
      "reserved": "",
      "salt": "0x5f8671b71ef1325ca61a790fc2e3aa82a00bcd870efe252c933f9eac8019f769",
      "assetIds": [
        "55464657044963196816950587289035428064568320970692304673817341489687656669185",
        "55464657044963196816950587289035428064568320970692304673817341489687665059842",
        "55464657044963196816950587289035428064568320970692304673817341489687665059840"
      ]
    },
    {
      "x": 377,
      "y": 298,
      "size": 1,
      "price": "4683000000000000000000",
      "reserved": "",
      "salt": "0x0f2540d5c87d03fc6f43ac6d9d63468d9175a45271d4b53452b514f734a70988",
      "assetIds": [
        "55464657044963196816950587289035428064568320970692304673817341489687656669185",
        "55464657044963196816950587289035428064568320970692304673817341489687665059842",
        "55464657044963196816950587289035428064568320970692304673817341489687665059840"
      ]
    },
    {
      "x": 377,
      "y": 299,
      "size": 1,
      "price": "4683000000000000000000",
      "reserved": "",
      "salt": "0x6c40ff7a741c9a12d7d83a3d98de685925533ac16c79cc4b4d223bb0ab9f38d3",
      "assetIds": [
        "55464657044963196816950587289035428064568320970692304673817341489687656669187",
        "55464657044963196816950587289035428064568320970692304673817341489687665059843",
        "55464657044963196816950587289035428064568320970692304673817341489687665059841"
      ]
    },
    {
      "x": 377,
      "y": 300,
      "size": 1,
      "price": "4683000000000000000000",
      "reserved": "",
      "salt": "0x7fb4a1c545fa70ed983f68d122a0b836998e5a941fdb0495b8d24622906fd1c7",
      "assetIds": [
        "55464657044963196816950587289035428064568320970692304673817341489687656669184",
        "55464657044963196816950587289035428064568320970692304673817341489687665059844",
        "55464657044963196816950587289035428064568320970692304673817341489687665059840"
      ]
    },
    {
      "x": 377,
      "y": 301,
      "size": 1,
      "price": "4683000000000000000000",
      "reserved": "",
      "salt": "0x6d10f525be6a8ca0fffae9557472b10e576be0fbb8543ee0481a4275c7b9033b",
      "assetIds": [
        "55464657044963196816950587289035428064568320970692304673817341489687656669186",
        "55464657044963196816950587289035428064568320970692304673817341489687665059842",
        "55464657044963196816950587289035428064568320970692304673817341489687665059841"
      ]
    },
    {
      "x": 377,
      "y": 302,
      "size": 1,
      "price": "4683000000000000000000",
      "reserved": "",
      "salt": "0x221001c6f736437558c0f48dbb40cb05c0aa85ac8a1541268b63b0660f80b1df",
      "assetIds": [
        "55464657044963196816950587289035428064568320970692304673817341489687656669186",
        "55464657044963196816950587289035428064568320970692304673817341489687665059843",
        "55464657044963196816950587289035428064568320970692304673817341489687665059841"
      ]
    },
    {
      "x": 377,
      "y": 303,
      "size": 1,
      "price": "4683000000000000000000",
      "reserved": "",
      "salt": "0xf0978f94aadb6c3c246763a9a0a353302533f41691d9b5b176aa3cc6c0f6dd3b",
      "assetIds": [
        "55464657044963196816950587289035428064568320970692304673817341489687656669186",
        "55464657044963196816950587289035428064568320970692304673817341489687665059844",
        "55464657044963196816950587289035428064568320970692304673817341489687665059841"
      ]
    },
    {
      "x": 377,
      "y": 304,
      "size": 1,
      "price": "4683000000000000000000",
      "reserved": "",
      "salt": "0xdc1f557a6323bff531184b5d6c84061ab2ea4e3612592d43ba69e199a60ea917",
      "assetIds": [
        "55464657044963196816950587289035428064568320970692304673817341489687656669184",
        "55464657044963196816950587289035428064568320970692304673817341489687665059843",
        "55464657044963196816950587289035428064568320970692304673817341489687665059840"
      ]
    },
    {
      "x": 377,
      "y": 305,
      "size": 1,
      "price": "4683000000000000000000",
      "reserved": "",
      "salt": "0x2836acd9dfc2e4df774f7ed1125daabc869a9c0874a13ae798444e0ee851b957",
      "assetIds": [
        "55464657044963196816950587289035428064568320970692304673817341489687656669187",
        "55464657044963196816950587289035428064568320970692304673817341489687665059844",
        "55464657044963196816950587289035428064568320970692304673817341489687665059841"
      ]
    },
    {
      "x": 378,
      "y": 228,
      "size": 1,
      "price": "4683000000000000000000",
      "reserved": "",
      "salt": "0xe72797501778a1302b6614b451cae15d97999951f6a8620c4a9dacee165faa9c",
      "assetIds": [
        "55464657044963196816950587289035428064568320970692304673817341489687656669184",
        "55464657044963196816950587289035428064568320970692304673817341489687665059842",
        "55464657044963196816950587289035428064568320970692304673817341489687665059840"
      ]
    },
    {
      "x": 378,
      "y": 229,
      "size": 1,
      "price": "4683000000000000000000",
      "reserved": "",
      "salt": "0xf7952b7e747dafb85d18be95468bad2c5f123bea25d7a9125369e18a8d7da3f6",
      "assetIds": [
        "55464657044963196816950587289035428064568320970692304673817341489687656669186",
        "55464657044963196816950587289035428064568320970692304673817341489687665059842",
        "55464657044963196816950587289035428064568320970692304673817341489687665059841"
      ]
    },
    {
      "x": 378,
      "y": 230,
      "size": 1,
      "price": "4683000000000000000000",
      "reserved": "",
      "salt": "0x2b2316fa6984523fedb1d670bf9791c60f69e754b27ccd4155385b75440b5d6a",
      "assetIds": [
        "55464657044963196816950587289035428064568320970692304673817341489687656669187",
        "55464657044963196816950587289035428064568320970692304673817341489687665059842",
        "55464657044963196816950587289035428064568320970692304673817341489687665059841"
      ]
    },
    {
      "x": 378,
      "y": 234,
      "size": 1,
      "price": "4683000000000000000000",
      "reserved": "",
      "salt": "0x22b236f49613a34cb6598839eecefdc469341fe05da626ec222870bb3fc9b3d5",
      "assetIds": [
        "55464657044963196816950587289035428064568320970692304673817341489687656669184",
        "55464657044963196816950587289035428064568320970692304673817341489687665059844",
        "55464657044963196816950587289035428064568320970692304673817341489687665059840"
      ]
    },
    {
      "x": 378,
      "y": 235,
      "size": 1,
      "price": "4683000000000000000000",
      "reserved": "",
      "salt": "0x1d291a4f490c69faaa55549c26fbaadd76b9d801d1b0aa79e1e7578c2e07a0c4",
      "assetIds": [
        "55464657044963196816950587289035428064568320970692304673817341489687656669186",
        "55464657044963196816950587289035428064568320970692304673817341489687665059844",
        "55464657044963196816950587289035428064568320970692304673817341489687665059841"
      ]
    },
    {
      "x": 378,
      "y": 236,
      "size": 1,
      "price": "4683000000000000000000",
      "reserved": "",
      "salt": "0x1d2c1f577c6c45cf50b5ab29f45f3667cf9502e8f07bb461c2c246f0b607f3be",
      "assetIds": [
        "55464657044963196816950587289035428064568320970692304673817341489687656669185",
        "55464657044963196816950587289035428064568320970692304673817341489687665059842",
        "55464657044963196816950587289035428064568320970692304673817341489687665059840"
      ]
    },
    {
      "x": 378,
      "y": 237,
      "size": 1,
      "price": "4683000000000000000000",
      "reserved": "",
      "salt": "0x9c1431c6678ee8bdf340b44d15ce3d58f7795876e2e84bef38633d34ed5cede8",
      "assetIds": [
        "55464657044963196816950587289035428064568320970692304673817341489687656669187",
        "55464657044963196816950587289035428064568320970692304673817341489687665059843",
        "55464657044963196816950587289035428064568320970692304673817341489687665059841"
      ]
    },
    {
      "x": 378,
      "y": 238,
      "size": 1,
      "price": "4683000000000000000000",
      "reserved": "",
      "salt": "0x1b1dfb75f256842090a709565616bc9a89dd2598ad2b04dad2a98f79a5725b3e",
      "assetIds": [
        "55464657044963196816950587289035428064568320970692304673817341489687656669186",
        "55464657044963196816950587289035428064568320970692304673817341489687665059843",
        "55464657044963196816950587289035428064568320970692304673817341489687665059841"
      ]
    },
    {
      "x": 378,
      "y": 239,
      "size": 1,
      "price": "4683000000000000000000",
      "reserved": "",
      "salt": "0x6416514e9e0e90e9c8958ab1c729ae02fc742e6ffd01e8a19a416b9297356445",
      "assetIds": [
        "55464657044963196816950587289035428064568320970692304673817341489687656669186",
        "55464657044963196816950587289035428064568320970692304673817341489687665059844",
        "55464657044963196816950587289035428064568320970692304673817341489687665059841"
      ]
    },
    {
      "x": 378,
      "y": 282,
      "size": 1,
      "price": "4683000000000000000000",
      "reserved": "",
      "salt": "0x83b51c4b87c6b8b23087a6138b7208867d60e9f1a4057f369af70357e1b6a609",
      "assetIds": [
        "55464657044963196816950587289035428064568320970692304673817341489687656669186",
        "55464657044963196816950587289035428064568320970692304673817341489687665059843",
        "55464657044963196816950587289035428064568320970692304673817341489687665059841"
      ]
    },
    {
      "x": 378,
      "y": 283,
      "size": 1,
      "price": "4683000000000000000000",
      "reserved": "",
      "salt": "0x76f943106fc564e9887668c4ed88608729e16a40a1a89f8c7bc2d1bfd9fdf197",
      "assetIds": [
        "55464657044963196816950587289035428064568320970692304673817341489687656669185",
        "55464657044963196816950587289035428064568320970692304673817341489687665059844",
        "55464657044963196816950587289035428064568320970692304673817341489687665059840"
      ]
    },
    {
      "x": 378,
      "y": 284,
      "size": 1,
      "price": "4683000000000000000000",
      "reserved": "",
      "salt": "0x13b91337c4ab119346975cb4884734a600d525dc0b48998fd8e048e5d49936ae",
      "assetIds": [
        "55464657044963196816950587289035428064568320970692304673817341489687656669187",
        "55464657044963196816950587289035428064568320970692304673817341489687665059843",
        "55464657044963196816950587289035428064568320970692304673817341489687665059841"
      ]
    },
    {
      "x": 378,
      "y": 288,
      "size": 1,
      "price": "4683000000000000000000",
      "reserved": "",
      "salt": "0xd85dd3dcb0525098b11e0711723293fa57774e3067ff70a97a3f0b67e98fde37",
      "assetIds": [
        "55464657044963196816950587289035428064568320970692304673817341489687656669184",
        "55464657044963196816950587289035428064568320970692304673817341489687665059844",
        "55464657044963196816950587289035428064568320970692304673817341489687665059840"
      ]
    },
    {
      "x": 378,
      "y": 289,
      "size": 1,
      "price": "4683000000000000000000",
      "reserved": "",
      "salt": "0x7ab2b85c93cfc42340b26f7b86da26a074893a72742fcc2131239f8680b02576",
      "assetIds": [
        "55464657044963196816950587289035428064568320970692304673817341489687656669185",
        "55464657044963196816950587289035428064568320970692304673817341489687665059842",
        "55464657044963196816950587289035428064568320970692304673817341489687665059840"
      ]
    },
    {
      "x": 378,
      "y": 290,
      "size": 1,
      "price": "4683000000000000000000",
      "reserved": "",
      "salt": "0xed9d0a130cb7dcaa58c0f8d8bb565da05e1c969fd175ea10af1aa4e7b5f79b3c",
      "assetIds": [
        "55464657044963196816950587289035428064568320970692304673817341489687656669185",
        "55464657044963196816950587289035428064568320970692304673817341489687665059842",
        "55464657044963196816950587289035428064568320970692304673817341489687665059840"
      ]
    },
    {
      "x": 378,
      "y": 300,
      "size": 1,
      "price": "4683000000000000000000",
      "reserved": "",
      "salt": "0x3b2512530cd6a1c8a6999171b35e296224ddfd4c51e29eb08513ee8098d5a4fb",
      "assetIds": [
        "55464657044963196816950587289035428064568320970692304673817341489687656669186",
        "55464657044963196816950587289035428064568320970692304673817341489687665059844",
        "55464657044963196816950587289035428064568320970692304673817341489687665059841"
      ]
    },
    {
      "x": 378,
      "y": 301,
      "size": 1,
      "price": "4683000000000000000000",
      "reserved": "",
      "salt": "0x3563fb40012e7d5ba6c71bdec6cd3ebf05c855ca44b752198794c0af8ec75f4a",
      "assetIds": [
        "55464657044963196816950587289035428064568320970692304673817341489687656669184",
        "55464657044963196816950587289035428064568320970692304673817341489687665059842",
        "55464657044963196816950587289035428064568320970692304673817341489687665059840"
      ]
    },
    {
      "x": 378,
      "y": 302,
      "size": 1,
      "price": "4683000000000000000000",
      "reserved": "",
      "salt": "0x0f8d60236219f20df2510f7f8a45654d33dac85f0f15d356a736086549498848",
      "assetIds": [
        "55464657044963196816950587289035428064568320970692304673817341489687656669186",
        "55464657044963196816950587289035428064568320970692304673817341489687665059843",
        "55464657044963196816950587289035428064568320970692304673817341489687665059841"
      ]
    },
    {
      "x": 378,
      "y": 303,
      "size": 1,
      "price": "4683000000000000000000",
      "reserved": "",
      "salt": "0x2a9b4e3a91971509eeb38cfd7f7d21e9f91deab428745206dc0fc2bd4b4519a1",
      "assetIds": [
        "55464657044963196816950587289035428064568320970692304673817341489687656669185",
        "55464657044963196816950587289035428064568320970692304673817341489687665059843",
        "55464657044963196816950587289035428064568320970692304673817341489687665059840"
      ]
    },
    {
      "x": 378,
      "y": 304,
      "size": 1,
      "price": "4683000000000000000000",
      "reserved": "",
      "salt": "0xc50d2729623661fdd40d61e9bdcf941b9a5565e3819a2853aec1b160344e0420",
      "assetIds": [
        "55464657044963196816950587289035428064568320970692304673817341489687656669185",
        "55464657044963196816950587289035428064568320970692304673817341489687665059843",
        "55464657044963196816950587289035428064568320970692304673817341489687665059840"
      ]
    },
    {
      "x": 378,
      "y": 305,
      "size": 1,
      "price": "4683000000000000000000",
      "reserved": "",
      "salt": "0xcf00fafec0d9fd845adf60c994a78ad1a845027f4d0292cfbcf57e9b499652f5",
      "assetIds": [
        "55464657044963196816950587289035428064568320970692304673817341489687656669184",
        "55464657044963196816950587289035428064568320970692304673817341489687665059843",
        "55464657044963196816950587289035428064568320970692304673817341489687665059840"
      ]
    },
    {
      "x": 379,
      "y": 228,
      "size": 1,
      "price": "4683000000000000000000",
      "reserved": "",
      "salt": "0xcffae69cc49dd1699e9186c24494de56d898774b278fa64b3f2b6b3c28659e30",
      "assetIds": [
        "55464657044963196816950587289035428064568320970692304673817341489687656669186",
        "55464657044963196816950587289035428064568320970692304673817341489687665059842",
        "55464657044963196816950587289035428064568320970692304673817341489687665059841"
      ]
    },
    {
      "x": 379,
      "y": 229,
      "size": 1,
      "price": "4683000000000000000000",
      "reserved": "",
      "salt": "0x2377f1f736cb2f4659be12ffb8a174e5f3f9bcc4c8d51c5469f150b571c0476a",
      "assetIds": [
        "55464657044963196816950587289035428064568320970692304673817341489687656669184",
        "55464657044963196816950587289035428064568320970692304673817341489687665059844",
        "55464657044963196816950587289035428064568320970692304673817341489687665059840"
      ]
    },
    {
      "x": 379,
      "y": 230,
      "size": 1,
      "price": "4683000000000000000000",
      "reserved": "",
      "salt": "0xce8f16062a8981ebd64e657d8bbe2cf1ec0800f10e47edc381259c189f52010a",
      "assetIds": [
        "55464657044963196816950587289035428064568320970692304673817341489687656669187",
        "55464657044963196816950587289035428064568320970692304673817341489687665059843",
        "55464657044963196816950587289035428064568320970692304673817341489687665059841"
      ]
    },
    {
      "x": 379,
      "y": 234,
      "size": 1,
      "price": "4683000000000000000000",
      "reserved": "",
      "salt": "0x26a2028a2aabd2aec050f034cefd6ba5cbb32c4a4c9f4935aece2a1f2329e150",
      "assetIds": [
        "55464657044963196816950587289035428064568320970692304673817341489687656669186",
        "55464657044963196816950587289035428064568320970692304673817341489687665059844",
        "55464657044963196816950587289035428064568320970692304673817341489687665059841"
      ]
    },
    {
      "x": 379,
      "y": 235,
      "size": 1,
      "price": "4683000000000000000000",
      "reserved": "",
      "salt": "0x73d5073640593bbdc01e6e864dfbb1cd0df679e75ea0d386b15412d7a78cd5ac",
      "assetIds": [
        "55464657044963196816950587289035428064568320970692304673817341489687656669186",
        "55464657044963196816950587289035428064568320970692304673817341489687665059844",
        "55464657044963196816950587289035428064568320970692304673817341489687665059841"
      ]
    },
    {
      "x": 379,
      "y": 236,
      "size": 1,
      "price": "4683000000000000000000",
      "reserved": "",
      "salt": "0x2be4cf2e13d3f5f85d776d1fda480c237e8d903d8af37dd091b6efc9526b6a5a",
      "assetIds": [
        "55464657044963196816950587289035428064568320970692304673817341489687656669186",
        "55464657044963196816950587289035428064568320970692304673817341489687665059842",
        "55464657044963196816950587289035428064568320970692304673817341489687665059841"
      ]
    },
    {
      "x": 379,
      "y": 237,
      "size": 1,
      "price": "4683000000000000000000",
      "reserved": "",
      "salt": "0x03fd1b50f4d3ec1e8274b74cb138e6d8825c16f456ed0d85c260888de0c8975a",
      "assetIds": [
        "55464657044963196816950587289035428064568320970692304673817341489687656669184",
        "55464657044963196816950587289035428064568320970692304673817341489687665059843",
        "55464657044963196816950587289035428064568320970692304673817341489687665059840"
      ]
    },
    {
      "x": 379,
      "y": 238,
      "size": 1,
      "price": "4683000000000000000000",
      "reserved": "",
      "salt": "0x5feb477a5a921a29e184c878890eacb867804672d2bd814b944e94b49dfc7390",
      "assetIds": [
        "55464657044963196816950587289035428064568320970692304673817341489687656669184",
        "55464657044963196816950587289035428064568320970692304673817341489687665059843",
        "55464657044963196816950587289035428064568320970692304673817341489687665059840"
      ]
    },
    {
      "x": 379,
      "y": 239,
      "size": 1,
      "price": "4683000000000000000000",
      "reserved": "",
      "salt": "0x0d6430e00341f756a6b56c510e4e4afc7eaec4806dcda44cb415c5d6ff2b6b4f",
      "assetIds": [
        "55464657044963196816950587289035428064568320970692304673817341489687656669184",
        "55464657044963196816950587289035428064568320970692304673817341489687665059843",
        "55464657044963196816950587289035428064568320970692304673817341489687665059840"
      ]
    },
    {
      "x": 379,
      "y": 282,
      "size": 1,
      "price": "4683000000000000000000",
      "reserved": "",
      "salt": "0x359e9bbdbb9b4244bb0ba5122ac23752e633764e7c3acd3947e26fe5136d8465",
      "assetIds": [
        "55464657044963196816950587289035428064568320970692304673817341489687656669185",
        "55464657044963196816950587289035428064568320970692304673817341489687665059843",
        "55464657044963196816950587289035428064568320970692304673817341489687665059840"
      ]
    },
    {
      "x": 379,
      "y": 283,
      "size": 1,
      "price": "4683000000000000000000",
      "reserved": "",
      "salt": "0x3658d67a6d079358a0cec50aaf73bcc572498286a5d1a0cc9e4ce546acbf8925",
      "assetIds": [
        "55464657044963196816950587289035428064568320970692304673817341489687656669184",
        "55464657044963196816950587289035428064568320970692304673817341489687665059843",
        "55464657044963196816950587289035428064568320970692304673817341489687665059840"
      ]
    },
    {
      "x": 379,
      "y": 284,
      "size": 1,
      "price": "4683000000000000000000",
      "reserved": "",
      "salt": "0xed962fb417d9bb64f2362ca2cfd1c0f171dc9d08a822637c097ded528f254687",
      "assetIds": [
        "55464657044963196816950587289035428064568320970692304673817341489687656669187",
        "55464657044963196816950587289035428064568320970692304673817341489687665059842",
        "55464657044963196816950587289035428064568320970692304673817341489687665059841"
      ]
    },
    {
      "x": 379,
      "y": 288,
      "size": 1,
      "price": "4683000000000000000000",
      "reserved": "",
      "salt": "0x69f272a869e8f419e7665d901a3d794c631e02824347a23b54c498c21ba095ba",
      "assetIds": [
        "55464657044963196816950587289035428064568320970692304673817341489687656669184",
        "55464657044963196816950587289035428064568320970692304673817341489687665059844",
        "55464657044963196816950587289035428064568320970692304673817341489687665059840"
      ]
    },
    {
      "x": 379,
      "y": 289,
      "size": 1,
      "price": "4683000000000000000000",
      "reserved": "",
      "salt": "0xed7595e20cae1804da4d56d9dbd691443985f41a640385b598d2762eeab71b18",
      "assetIds": [
        "55464657044963196816950587289035428064568320970692304673817341489687656669185",
        "55464657044963196816950587289035428064568320970692304673817341489687665059844",
        "55464657044963196816950587289035428064568320970692304673817341489687665059840"
      ]
    },
    {
      "x": 379,
      "y": 290,
      "size": 1,
      "price": "4683000000000000000000",
      "reserved": "",
      "salt": "0x4acf5349b12ec9d51deaef1fa8164630563efb35167236e86a708d4508521e91",
      "assetIds": [
        "55464657044963196816950587289035428064568320970692304673817341489687656669184",
        "55464657044963196816950587289035428064568320970692304673817341489687665059843",
        "55464657044963196816950587289035428064568320970692304673817341489687665059840"
      ]
    },
    {
      "x": 379,
      "y": 300,
      "size": 1,
      "price": "4683000000000000000000",
      "reserved": "",
      "salt": "0x82cd8ea460ebc8990478a629079f4489cf9b0f24d6674f295a1909920950c1df",
      "assetIds": [
        "55464657044963196816950587289035428064568320970692304673817341489687656669186",
        "55464657044963196816950587289035428064568320970692304673817341489687665059843",
        "55464657044963196816950587289035428064568320970692304673817341489687665059841"
      ]
    },
    {
      "x": 379,
      "y": 301,
      "size": 1,
      "price": "4683000000000000000000",
      "reserved": "",
      "salt": "0x328f32924cd6208b4788ffe4217e7a97f22fb8dc00a99bd861184479854cf066",
      "assetIds": [
        "55464657044963196816950587289035428064568320970692304673817341489687656669186",
        "55464657044963196816950587289035428064568320970692304673817341489687665059842",
        "55464657044963196816950587289035428064568320970692304673817341489687665059841"
      ]
    },
    {
      "x": 379,
      "y": 302,
      "size": 1,
      "price": "4683000000000000000000",
      "reserved": "",
      "salt": "0xe73ae4d811ed8c5e2dede097021fc3c6defb57d93dac5cc76301db69333e02c3",
      "assetIds": [
        "55464657044963196816950587289035428064568320970692304673817341489687656669185",
        "55464657044963196816950587289035428064568320970692304673817341489687665059842",
        "55464657044963196816950587289035428064568320970692304673817341489687665059840"
      ]
    },
    {
      "x": 379,
      "y": 303,
      "size": 1,
      "price": "4683000000000000000000",
      "reserved": "",
      "salt": "0x2c819b361c72260be0ce9fc5a42975200041041fc5d42d92b85b236f8365e144",
      "assetIds": [
        "55464657044963196816950587289035428064568320970692304673817341489687656669185",
        "55464657044963196816950587289035428064568320970692304673817341489687665059844",
        "55464657044963196816950587289035428064568320970692304673817341489687665059840"
      ]
    },
    {
      "x": 379,
      "y": 304,
      "size": 1,
      "price": "4683000000000000000000",
      "reserved": "",
      "salt": "0xaf0122def2633e9e80ff409c7337b862fa18291981cdd5dbe3c0855c5e20ad71",
      "assetIds": [
        "55464657044963196816950587289035428064568320970692304673817341489687656669187",
        "55464657044963196816950587289035428064568320970692304673817341489687665059844",
        "55464657044963196816950587289035428064568320970692304673817341489687665059841"
      ]
    },
    {
      "x": 379,
      "y": 305,
      "size": 1,
      "price": "4683000000000000000000",
      "reserved": "",
      "salt": "0x2f359b9197d33d37b4f41bc827a6ce3d69b4b5e7f142865bb39d0339ca418516",
      "assetIds": [
        "55464657044963196816950587289035428064568320970692304673817341489687656669185",
        "55464657044963196816950587289035428064568320970692304673817341489687665059842",
        "55464657044963196816950587289035428064568320970692304673817341489687665059840"
      ]
    },
    {
      "x": 380,
      "y": 228,
      "size": 1,
      "price": "4683000000000000000000",
      "reserved": "",
      "salt": "0x705fa88c58fe8a99bb7daa3fdd86b30ede1ef0d186439735b3cc6d2d58b0fab0",
      "assetIds": [
        "55464657044963196816950587289035428064568320970692304673817341489687656669187",
        "55464657044963196816950587289035428064568320970692304673817341489687665059842",
        "55464657044963196816950587289035428064568320970692304673817341489687665059841"
      ]
    },
    {
      "x": 380,
      "y": 229,
      "size": 1,
      "price": "4683000000000000000000",
      "reserved": "",
      "salt": "0xdb99ac13159867a52cf914577eedcd6eaa0315bcef3a293a1087f092a0537e51",
      "assetIds": [
        "55464657044963196816950587289035428064568320970692304673817341489687656669185",
        "55464657044963196816950587289035428064568320970692304673817341489687665059843",
        "55464657044963196816950587289035428064568320970692304673817341489687665059840"
      ]
    },
    {
      "x": 380,
      "y": 230,
      "size": 1,
      "price": "4683000000000000000000",
      "reserved": "",
      "salt": "0xfca63334107dc5b9a3ada2714f7325974ed98c70a433371eb49736698f9115f3",
      "assetIds": [
        "55464657044963196816950587289035428064568320970692304673817341489687656669187",
        "55464657044963196816950587289035428064568320970692304673817341489687665059843",
        "55464657044963196816950587289035428064568320970692304673817341489687665059841"
      ]
    },
    {
      "x": 380,
      "y": 234,
      "size": 1,
      "price": "4683000000000000000000",
      "reserved": "",
      "salt": "0x7226951a0090668831e87e0efeaa83a93d4e9ac0ff6e81f72a40427f99a9c89c",
      "assetIds": [
        "55464657044963196816950587289035428064568320970692304673817341489687656669185",
        "55464657044963196816950587289035428064568320970692304673817341489687665059843",
        "55464657044963196816950587289035428064568320970692304673817341489687665059840"
      ]
    },
    {
      "x": 380,
      "y": 235,
      "size": 1,
      "price": "4683000000000000000000",
      "reserved": "",
      "salt": "0xedf4ffc237433cf3ea9dbd148aa607f652b1f44ee81daf709cda3342b2b8b541",
      "assetIds": [
        "55464657044963196816950587289035428064568320970692304673817341489687656669186",
        "55464657044963196816950587289035428064568320970692304673817341489687665059844",
        "55464657044963196816950587289035428064568320970692304673817341489687665059841"
      ]
    },
    {
      "x": 380,
      "y": 236,
      "size": 1,
      "price": "4683000000000000000000",
      "reserved": "",
      "salt": "0x9f318b53591aabf73a823addfe44a727d6cb6b62bdaa800600beb89686b49913",
      "assetIds": [
        "55464657044963196816950587289035428064568320970692304673817341489687656669184",
        "55464657044963196816950587289035428064568320970692304673817341489687665059843",
        "55464657044963196816950587289035428064568320970692304673817341489687665059840"
      ]
    },
    {
      "x": 380,
      "y": 237,
      "size": 1,
      "price": "4683000000000000000000",
      "reserved": "",
      "salt": "0x42765ef685e0d463916dc8f84e4ff49b88041edd0c49ff538ee18164bfe6e525",
      "assetIds": [
        "55464657044963196816950587289035428064568320970692304673817341489687656669187",
        "55464657044963196816950587289035428064568320970692304673817341489687665059844",
        "55464657044963196816950587289035428064568320970692304673817341489687665059841"
      ]
    },
    {
      "x": 380,
      "y": 238,
      "size": 1,
      "price": "4683000000000000000000",
      "reserved": "",
      "salt": "0x030cb3f6ee637c1f04ecc4d6e5351acad6cb98d0da5cd1b43fff9ef3ab5310de",
      "assetIds": [
        "55464657044963196816950587289035428064568320970692304673817341489687656669184",
        "55464657044963196816950587289035428064568320970692304673817341489687665059842",
        "55464657044963196816950587289035428064568320970692304673817341489687665059840"
      ]
    },
    {
      "x": 380,
      "y": 239,
      "size": 1,
      "price": "4683000000000000000000",
      "reserved": "",
      "salt": "0x17b2b5ab940009b42f77093c9dc84b6258991385798ec153748de6ea914015d7",
      "assetIds": [
        "55464657044963196816950587289035428064568320970692304673817341489687656669184",
        "55464657044963196816950587289035428064568320970692304673817341489687665059843",
        "55464657044963196816950587289035428064568320970692304673817341489687665059840"
      ]
    },
    {
      "x": 380,
      "y": 282,
      "size": 1,
      "price": "4683000000000000000000",
      "reserved": "",
      "salt": "0x6f624856cd7ef84207fb08be5d1136937a8830b1eacb770020220b3f5d216441",
      "assetIds": [
        "55464657044963196816950587289035428064568320970692304673817341489687656669185",
        "55464657044963196816950587289035428064568320970692304673817341489687665059844",
        "55464657044963196816950587289035428064568320970692304673817341489687665059840"
      ]
    },
    {
      "x": 380,
      "y": 283,
      "size": 1,
      "price": "4683000000000000000000",
      "reserved": "",
      "salt": "0x6166876340c4c7d596e52336103aac48d01d8f97710b27225c2409a7bc237b40",
      "assetIds": [
        "55464657044963196816950587289035428064568320970692304673817341489687656669184",
        "55464657044963196816950587289035428064568320970692304673817341489687665059843",
        "55464657044963196816950587289035428064568320970692304673817341489687665059840"
      ]
    },
    {
      "x": 380,
      "y": 284,
      "size": 1,
      "price": "4683000000000000000000",
      "reserved": "",
      "salt": "0xe8a69e5f592187b9b7dece1146bb49d212126e0d38d081dbfd46bcf085ca4c0c",
      "assetIds": [
        "55464657044963196816950587289035428064568320970692304673817341489687656669187",
        "55464657044963196816950587289035428064568320970692304673817341489687665059844",
        "55464657044963196816950587289035428064568320970692304673817341489687665059841"
      ]
    },
    {
      "x": 380,
      "y": 288,
      "size": 1,
      "price": "4683000000000000000000",
      "reserved": "",
      "salt": "0xcff2dfa6734ed98d7292918513ed04796a011cfe2099b794b20d7899287d9462",
      "assetIds": [
        "55464657044963196816950587289035428064568320970692304673817341489687656669184",
        "55464657044963196816950587289035428064568320970692304673817341489687665059842",
        "55464657044963196816950587289035428064568320970692304673817341489687665059840"
      ]
    },
    {
      "x": 380,
      "y": 289,
      "size": 1,
      "price": "4683000000000000000000",
      "reserved": "",
      "salt": "0xe956958b7c480bf100f0be7d059c1894b54c16e011c9bf1226cbfcda91b73414",
      "assetIds": [
        "55464657044963196816950587289035428064568320970692304673817341489687656669184",
        "55464657044963196816950587289035428064568320970692304673817341489687665059842",
        "55464657044963196816950587289035428064568320970692304673817341489687665059840"
      ]
    },
    {
      "x": 380,
      "y": 290,
      "size": 1,
      "price": "4683000000000000000000",
      "reserved": "",
      "salt": "0xdcbc663cf28ca69d546a31e812223ceb8f2091b352aaf2e4d26f4408cbb9bc4f",
      "assetIds": [
        "55464657044963196816950587289035428064568320970692304673817341489687656669185",
        "55464657044963196816950587289035428064568320970692304673817341489687665059844",
        "55464657044963196816950587289035428064568320970692304673817341489687665059840"
      ]
    },
    {
      "x": 380,
      "y": 300,
      "size": 1,
      "price": "4683000000000000000000",
      "reserved": "",
      "salt": "0x55573e3a96d0f77aacbcf4dc88541be822521051e479571ecc6d1f85e30a35bf",
      "assetIds": [
        "55464657044963196816950587289035428064568320970692304673817341489687656669184",
        "55464657044963196816950587289035428064568320970692304673817341489687665059844",
        "55464657044963196816950587289035428064568320970692304673817341489687665059840"
      ]
    },
    {
      "x": 380,
      "y": 301,
      "size": 1,
      "price": "4683000000000000000000",
      "reserved": "",
      "salt": "0x4c96085cc3bb1e0053640842d9c782615ca70af162578014e00291a3cfd66fb5",
      "assetIds": [
        "55464657044963196816950587289035428064568320970692304673817341489687656669187",
        "55464657044963196816950587289035428064568320970692304673817341489687665059844",
        "55464657044963196816950587289035428064568320970692304673817341489687665059841"
      ]
    },
    {
      "x": 380,
      "y": 302,
      "size": 1,
      "price": "1011000000000000000000",
      "reserved": "0x7a9fe22691c811ea339d9b73150e6911a5343dca",
      "salt": "0xfdfce0ff32599599ee0c25e019573483fe2b3727221e5325ad61f73aa23f3c4a",
      "assetIds": []
    },
    {
      "x": 380,
      "y": 303,
      "size": 1,
      "price": "4683000000000000000000",
      "reserved": "",
      "salt": "0xd9def8da3cc7ad758b6dbf36191265fb428ab2fb23902cc0cc0175a2be78f5b6",
      "assetIds": [
        "55464657044963196816950587289035428064568320970692304673817341489687656669186",
        "55464657044963196816950587289035428064568320970692304673817341489687665059844",
        "55464657044963196816950587289035428064568320970692304673817341489687665059841"
      ]
    },
    {
      "x": 380,
      "y": 304,
      "size": 1,
      "price": "4683000000000000000000",
      "reserved": "",
      "salt": "0xdebb14edc92bd0fb281f29095192ac6ae8b3f21d271d0e071b843c4e29a609a0",
      "assetIds": [
        "55464657044963196816950587289035428064568320970692304673817341489687656669184",
        "55464657044963196816950587289035428064568320970692304673817341489687665059843",
        "55464657044963196816950587289035428064568320970692304673817341489687665059840"
      ]
    },
    {
      "x": 380,
      "y": 305,
      "size": 1,
      "price": "4683000000000000000000",
      "reserved": "",
      "salt": "0x6f9fa9089d44baaf270594c4bcc23fa93ae7b9733e677dcc4555f997cfb67752",
      "assetIds": [
        "55464657044963196816950587289035428064568320970692304673817341489687656669185",
        "55464657044963196816950587289035428064568320970692304673817341489687665059843",
        "55464657044963196816950587289035428064568320970692304673817341489687665059840"
      ]
    },
    {
      "x": 381,
      "y": 228,
      "size": 1,
      "price": "4683000000000000000000",
      "reserved": "",
      "salt": "0x48722b66e5a87e221b4295e15c6f6fc9f90c4f616a140c322d29fbb4b59d2cda",
      "assetIds": [
        "55464657044963196816950587289035428064568320970692304673817341489687656669186",
        "55464657044963196816950587289035428064568320970692304673817341489687665059843",
        "55464657044963196816950587289035428064568320970692304673817341489687665059841"
      ]
    },
    {
      "x": 381,
      "y": 229,
      "size": 1,
      "price": "4683000000000000000000",
      "reserved": "",
      "salt": "0xd4547bda06e5db3fcb545eac84752914d943dd74bdb3ee4d87684948f1615393",
      "assetIds": [
        "55464657044963196816950587289035428064568320970692304673817341489687656669187",
        "55464657044963196816950587289035428064568320970692304673817341489687665059842",
        "55464657044963196816950587289035428064568320970692304673817341489687665059841"
      ]
    },
    {
      "x": 381,
      "y": 230,
      "size": 1,
      "price": "4683000000000000000000",
      "reserved": "",
      "salt": "0x459b52e8c055a92878316105982f6b109662ae1729972e95fd0ba8532bb0e9b9",
      "assetIds": [
        "55464657044963196816950587289035428064568320970692304673817341489687656669187",
        "55464657044963196816950587289035428064568320970692304673817341489687665059843",
        "55464657044963196816950587289035428064568320970692304673817341489687665059841"
      ]
    },
    {
      "x": 381,
      "y": 231,
      "size": 1,
      "price": "4683000000000000000000",
      "reserved": "",
      "salt": "0x38aca49af7e8c6e7e8e6023c1fedecb1fd141a8f24017cca18018147e65720e6",
      "assetIds": [
        "55464657044963196816950587289035428064568320970692304673817341489687656669186",
        "55464657044963196816950587289035428064568320970692304673817341489687665059844",
        "55464657044963196816950587289035428064568320970692304673817341489687665059841"
      ]
    },
    {
      "x": 381,
      "y": 232,
      "size": 1,
      "price": "4683000000000000000000",
      "reserved": "",
      "salt": "0xed83de8eb42bf39a4382ef3295063765e53eb53e50edd8aeedf9716db41291cf",
      "assetIds": [
        "55464657044963196816950587289035428064568320970692304673817341489687656669186",
        "55464657044963196816950587289035428064568320970692304673817341489687665059843",
        "55464657044963196816950587289035428064568320970692304673817341489687665059841"
      ]
    },
    {
      "x": 381,
      "y": 233,
      "size": 1,
      "price": "4683000000000000000000",
      "reserved": "",
      "salt": "0xe7effaf9f0d1712466780563f59708faa8e384af032a797051a8c8ace8ec9646",
      "assetIds": [
        "55464657044963196816950587289035428064568320970692304673817341489687656669187",
        "55464657044963196816950587289035428064568320970692304673817341489687665059843",
        "55464657044963196816950587289035428064568320970692304673817341489687665059841"
      ]
    },
    {
      "x": 381,
      "y": 234,
      "size": 1,
      "price": "4683000000000000000000",
      "reserved": "",
      "salt": "0xefe0dfb2804ad8bf3a9fb74f32424f4ba736754a4e2e01d76cb71abcdb0442c3",
      "assetIds": [
        "55464657044963196816950587289035428064568320970692304673817341489687656669184",
        "55464657044963196816950587289035428064568320970692304673817341489687665059843",
        "55464657044963196816950587289035428064568320970692304673817341489687665059840"
      ]
    },
    {
      "x": 381,
      "y": 235,
      "size": 1,
      "price": "4683000000000000000000",
      "reserved": "",
      "salt": "0x3ddca33ebf26c85873370517f217d19bc5d1d89d2eda3e96d0ca053ef68ad259",
      "assetIds": [
        "55464657044963196816950587289035428064568320970692304673817341489687656669184",
        "55464657044963196816950587289035428064568320970692304673817341489687665059843",
        "55464657044963196816950587289035428064568320970692304673817341489687665059840"
      ]
    },
    {
      "x": 381,
      "y": 236,
      "size": 1,
      "price": "1011000000000000000000",
      "reserved": "0x7a9fe22691c811ea339d9b73150e6911a5343dca",
      "salt": "0xa2d60acd7562db4ed28171486211ddc59b766e49a6dadf9ed5f757f98716e929",
      "assetIds": []
    },
    {
      "x": 381,
      "y": 237,
      "size": 1,
      "price": "4683000000000000000000",
      "reserved": "",
      "salt": "0x2996c4c619ec092803b7263092a8c4808a15405fb0c4fa2b51cd0297c396b6cb",
      "assetIds": [
        "55464657044963196816950587289035428064568320970692304673817341489687656669187",
        "55464657044963196816950587289035428064568320970692304673817341489687665059842",
        "55464657044963196816950587289035428064568320970692304673817341489687665059841"
      ]
    },
    {
      "x": 381,
      "y": 238,
      "size": 1,
      "price": "4683000000000000000000",
      "reserved": "",
      "salt": "0x729d108aa4b9075aeae7cbc39cced963925cd46511d5766f204820cea4fb85db",
      "assetIds": [
        "55464657044963196816950587289035428064568320970692304673817341489687656669185",
        "55464657044963196816950587289035428064568320970692304673817341489687665059843",
        "55464657044963196816950587289035428064568320970692304673817341489687665059840"
      ]
    },
    {
      "x": 381,
      "y": 239,
      "size": 1,
      "price": "4683000000000000000000",
      "reserved": "",
      "salt": "0xbbcc213237ebba3d809dbf6b63d9b26dbef1851ddb4848cf18831315431102f6",
      "assetIds": [
        "55464657044963196816950587289035428064568320970692304673817341489687656669186",
        "55464657044963196816950587289035428064568320970692304673817341489687665059844",
        "55464657044963196816950587289035428064568320970692304673817341489687665059841"
      ]
    },
    {
      "x": 381,
      "y": 282,
      "size": 1,
      "price": "4683000000000000000000",
      "reserved": "",
      "salt": "0xc770649716b2f23bef3c2dbbaf3cdb8c6a65ecb102b9c136380401d8bef8cf78",
      "assetIds": [
        "55464657044963196816950587289035428064568320970692304673817341489687656669186",
        "55464657044963196816950587289035428064568320970692304673817341489687665059844",
        "55464657044963196816950587289035428064568320970692304673817341489687665059841"
      ]
    },
    {
      "x": 381,
      "y": 283,
      "size": 1,
      "price": "4683000000000000000000",
      "reserved": "",
      "salt": "0x770e35d85b58aebbe3746e124ec39c4db4e386e1c099d6113870c92636b184ee",
      "assetIds": [
        "55464657044963196816950587289035428064568320970692304673817341489687656669186",
        "55464657044963196816950587289035428064568320970692304673817341489687665059842",
        "55464657044963196816950587289035428064568320970692304673817341489687665059841"
      ]
    },
    {
      "x": 381,
      "y": 284,
      "size": 1,
      "price": "4683000000000000000000",
      "reserved": "",
      "salt": "0xa4ea14e72d1f1c11671b88e45b4c7b0a4a69ddeef0a74059c1eeb5ac4c093c4b",
      "assetIds": [
        "55464657044963196816950587289035428064568320970692304673817341489687656669186",
        "55464657044963196816950587289035428064568320970692304673817341489687665059844",
        "55464657044963196816950587289035428064568320970692304673817341489687665059841"
      ]
    },
    {
      "x": 381,
      "y": 288,
      "size": 1,
      "price": "4683000000000000000000",
      "reserved": "",
      "salt": "0x9082b75bae5de1322fa5320d370c0efee9ce03d5ee70b6b3150f8c23a91b505c",
      "assetIds": [
        "55464657044963196816950587289035428064568320970692304673817341489687656669186",
        "55464657044963196816950587289035428064568320970692304673817341489687665059843",
        "55464657044963196816950587289035428064568320970692304673817341489687665059841"
      ]
    },
    {
      "x": 381,
      "y": 289,
      "size": 1,
      "price": "4683000000000000000000",
      "reserved": "",
      "salt": "0xccfa969f2b6af12cd2eddcd0b529e320f98e562d15e3c60a81ade8b05daddcba",
      "assetIds": [
        "55464657044963196816950587289035428064568320970692304673817341489687656669185",
        "55464657044963196816950587289035428064568320970692304673817341489687665059844",
        "55464657044963196816950587289035428064568320970692304673817341489687665059840"
      ]
    },
    {
      "x": 381,
      "y": 290,
      "size": 1,
      "price": "4683000000000000000000",
      "reserved": "",
      "salt": "0xeb9e928af6f72b79557732d14adeada72b08eaaa5f275c71971e5d45f5d78c5e",
      "assetIds": [
        "55464657044963196816950587289035428064568320970692304673817341489687656669187",
        "55464657044963196816950587289035428064568320970692304673817341489687665059843",
        "55464657044963196816950587289035428064568320970692304673817341489687665059841"
      ]
    },
    {
      "x": 381,
      "y": 291,
      "size": 1,
      "price": "4683000000000000000000",
      "reserved": "",
      "salt": "0xb6ca874fce71f3898a87799092e48c0e7fcf778b0f4e8edfbea8bf352459637c",
      "assetIds": [
        "55464657044963196816950587289035428064568320970692304673817341489687656669186",
        "55464657044963196816950587289035428064568320970692304673817341489687665059844",
        "55464657044963196816950587289035428064568320970692304673817341489687665059841"
      ]
    },
    {
      "x": 381,
      "y": 292,
      "size": 1,
      "price": "4683000000000000000000",
      "reserved": "",
      "salt": "0xbfc506edcb4f820b1ac2bd78b01ead5fc1677ec10f9b33d03b261e2b777417e1",
      "assetIds": [
        "55464657044963196816950587289035428064568320970692304673817341489687656669184",
        "55464657044963196816950587289035428064568320970692304673817341489687665059844",
        "55464657044963196816950587289035428064568320970692304673817341489687665059840"
      ]
    },
    {
      "x": 381,
      "y": 293,
      "size": 1,
      "price": "4683000000000000000000",
      "reserved": "",
      "salt": "0x3a30b24b37f29fbb102e81dcd209a5bd21a08f4a92b303e7904be2a050c1ce34",
      "assetIds": [
        "55464657044963196816950587289035428064568320970692304673817341489687656669185",
        "55464657044963196816950587289035428064568320970692304673817341489687665059842",
        "55464657044963196816950587289035428064568320970692304673817341489687665059840"
      ]
    },
    {
      "x": 381,
      "y": 300,
      "size": 1,
      "price": "4683000000000000000000",
      "reserved": "",
      "salt": "0xc66fcb4dd80fd5b2c46e9f432e482481cf8b5b3f652dde952cce045bc91bc2b4",
      "assetIds": [
        "55464657044963196816950587289035428064568320970692304673817341489687656669185",
        "55464657044963196816950587289035428064568320970692304673817341489687665059843",
        "55464657044963196816950587289035428064568320970692304673817341489687665059840"
      ]
    },
    {
      "x": 381,
      "y": 301,
      "size": 1,
      "price": "4683000000000000000000",
      "reserved": "",
      "salt": "0x6caa92cc0408ad11a8091f561b9f7e062e5fd4aeee88a15feeb7052e93b20173",
      "assetIds": [
        "55464657044963196816950587289035428064568320970692304673817341489687656669186",
        "55464657044963196816950587289035428064568320970692304673817341489687665059844",
        "55464657044963196816950587289035428064568320970692304673817341489687665059841"
      ]
    },
    {
      "x": 381,
      "y": 302,
      "size": 1,
      "price": "4683000000000000000000",
      "reserved": "",
      "salt": "0xa009247ad2a978003a20e92a357e153e5df780c3e360705dbb3308b1d098fd54",
      "assetIds": [
        "55464657044963196816950587289035428064568320970692304673817341489687656669187",
        "55464657044963196816950587289035428064568320970692304673817341489687665059843",
        "55464657044963196816950587289035428064568320970692304673817341489687665059841"
      ]
    },
    {
      "x": 381,
      "y": 303,
      "size": 1,
      "price": "4683000000000000000000",
      "reserved": "",
      "salt": "0x0794c4eaa601229a1ad13906f4c2733a49631c7d7e05552a748c9aa76634a536",
      "assetIds": [
        "55464657044963196816950587289035428064568320970692304673817341489687656669186",
        "55464657044963196816950587289035428064568320970692304673817341489687665059843",
        "55464657044963196816950587289035428064568320970692304673817341489687665059841"
      ]
    },
    {
      "x": 381,
      "y": 304,
      "size": 1,
      "price": "4683000000000000000000",
      "reserved": "",
      "salt": "0x6e57d423e7d229776aef8b215e7e437356e710fd69b66570dfdd54f9cc31dfec",
      "assetIds": [
        "55464657044963196816950587289035428064568320970692304673817341489687656669187",
        "55464657044963196816950587289035428064568320970692304673817341489687665059843",
        "55464657044963196816950587289035428064568320970692304673817341489687665059841"
      ]
    },
    {
      "x": 381,
      "y": 305,
      "size": 1,
      "price": "4683000000000000000000",
      "reserved": "",
      "salt": "0xfdc3b50ed04575a3649797f9b998e68d7bfa0f6beb652004ed57b2d79caac80b",
      "assetIds": [
        "55464657044963196816950587289035428064568320970692304673817341489687656669185",
        "55464657044963196816950587289035428064568320970692304673817341489687665059844",
        "55464657044963196816950587289035428064568320970692304673817341489687665059840"
      ]
    },
    {
      "x": 382,
      "y": 228,
      "size": 1,
      "price": "4683000000000000000000",
      "reserved": "",
      "salt": "0xb28e60ac81c3f06bd6d41a6888937c8f695a266840e434aec56919429decfd51",
      "assetIds": [
        "55464657044963196816950587289035428064568320970692304673817341489687656669187",
        "55464657044963196816950587289035428064568320970692304673817341489687665059843",
        "55464657044963196816950587289035428064568320970692304673817341489687665059841"
      ]
    },
    {
      "x": 382,
      "y": 229,
      "size": 1,
      "price": "4683000000000000000000",
      "reserved": "",
      "salt": "0xdf60ac8e7e507c6769e299f9c6bd159fd855dd63b73fac94340b4ccef995363d",
      "assetIds": [
        "55464657044963196816950587289035428064568320970692304673817341489687656669184",
        "55464657044963196816950587289035428064568320970692304673817341489687665059842",
        "55464657044963196816950587289035428064568320970692304673817341489687665059840"
      ]
    },
    {
      "x": 382,
      "y": 230,
      "size": 1,
      "price": "4683000000000000000000",
      "reserved": "",
      "salt": "0x100ae2541afdac66911bb15c1664da606b17969c1a33ce6f6e82ca0efbcc3336",
      "assetIds": [
        "55464657044963196816950587289035428064568320970692304673817341489687656669184",
        "55464657044963196816950587289035428064568320970692304673817341489687665059843",
        "55464657044963196816950587289035428064568320970692304673817341489687665059840"
      ]
    },
    {
      "x": 382,
      "y": 231,
      "size": 1,
      "price": "4683000000000000000000",
      "reserved": "",
      "salt": "0xb4761c6bed594f1fee540861f8f09acf3012352ed6bf7996db2ee5c7ac23e617",
      "assetIds": [
        "55464657044963196816950587289035428064568320970692304673817341489687656669186",
        "55464657044963196816950587289035428064568320970692304673817341489687665059844",
        "55464657044963196816950587289035428064568320970692304673817341489687665059841"
      ]
    },
    {
      "x": 382,
      "y": 232,
      "size": 1,
      "price": "4683000000000000000000",
      "reserved": "",
      "salt": "0x15bdefd69ec5d6afce79f520fc2952f257543dbdc3634647fbc77f61af557dc7",
      "assetIds": [
        "55464657044963196816950587289035428064568320970692304673817341489687656669186",
        "55464657044963196816950587289035428064568320970692304673817341489687665059844",
        "55464657044963196816950587289035428064568320970692304673817341489687665059841"
      ]
    },
    {
      "x": 382,
      "y": 233,
      "size": 1,
      "price": "4683000000000000000000",
      "reserved": "",
      "salt": "0x5f74800cd220615027a2994777e44bc5a99d0b022b32490646feea27300e7dad",
      "assetIds": [
        "55464657044963196816950587289035428064568320970692304673817341489687656669185",
        "55464657044963196816950587289035428064568320970692304673817341489687665059842",
        "55464657044963196816950587289035428064568320970692304673817341489687665059840"
      ]
    },
    {
      "x": 382,
      "y": 234,
      "size": 1,
      "price": "4683000000000000000000",
      "reserved": "",
      "salt": "0x47a6e8be3079297ab3856a6e3cef6e2ba8d5d728c221218d5c01f2ee7e83580d",
      "assetIds": [
        "55464657044963196816950587289035428064568320970692304673817341489687656669186",
        "55464657044963196816950587289035428064568320970692304673817341489687665059842",
        "55464657044963196816950587289035428064568320970692304673817341489687665059841"
      ]
    },
    {
      "x": 382,
      "y": 235,
      "size": 1,
      "price": "4683000000000000000000",
      "reserved": "",
      "salt": "0x50dadc79faa316359c82c9f27e7c79436d33635650464d4c7fac0b10cc793086",
      "assetIds": [
        "55464657044963196816950587289035428064568320970692304673817341489687656669184",
        "55464657044963196816950587289035428064568320970692304673817341489687665059844",
        "55464657044963196816950587289035428064568320970692304673817341489687665059840"
      ]
    },
    {
      "x": 382,
      "y": 236,
      "size": 1,
      "price": "4683000000000000000000",
      "reserved": "",
      "salt": "0xf6b4e921f8a184233b8f9ad5bd3fc1719ac74972e24520b7d7bf04417dc7f997",
      "assetIds": [
        "55464657044963196816950587289035428064568320970692304673817341489687656669184",
        "55464657044963196816950587289035428064568320970692304673817341489687665059844",
        "55464657044963196816950587289035428064568320970692304673817341489687665059840"
      ]
    },
    {
      "x": 382,
      "y": 237,
      "size": 1,
      "price": "4683000000000000000000",
      "reserved": "",
      "salt": "0xf5dc24df8c61f7b83443a81f7ff2987ea375909701d722e5f01909e72fe7e4c3",
      "assetIds": [
        "55464657044963196816950587289035428064568320970692304673817341489687656669186",
        "55464657044963196816950587289035428064568320970692304673817341489687665059843",
        "55464657044963196816950587289035428064568320970692304673817341489687665059841"
      ]
    },
    {
      "x": 382,
      "y": 238,
      "size": 1,
      "price": "4683000000000000000000",
      "reserved": "",
      "salt": "0x488e265446a3133b405b9ebb172ffe7d8c521896dc7417b37a304a7a243c4f41",
      "assetIds": [
        "55464657044963196816950587289035428064568320970692304673817341489687656669187",
        "55464657044963196816950587289035428064568320970692304673817341489687665059844",
        "55464657044963196816950587289035428064568320970692304673817341489687665059841"
      ]
    },
    {
      "x": 382,
      "y": 239,
      "size": 1,
      "price": "4683000000000000000000",
      "reserved": "",
      "salt": "0xa00ecccf43524bfd5247e9e6033629b1c62d0f4da3ba3836a8c991655d637bdd",
      "assetIds": [
        "55464657044963196816950587289035428064568320970692304673817341489687656669184",
        "55464657044963196816950587289035428064568320970692304673817341489687665059843",
        "55464657044963196816950587289035428064568320970692304673817341489687665059840"
      ]
    },
    {
      "x": 382,
      "y": 282,
      "size": 1,
      "price": "4683000000000000000000",
      "reserved": "",
      "salt": "0xb30347136d5699666a4a4f909071317211a0770f9306c00855ce9bc95a153b47",
      "assetIds": [
        "55464657044963196816950587289035428064568320970692304673817341489687656669184",
        "55464657044963196816950587289035428064568320970692304673817341489687665059842",
        "55464657044963196816950587289035428064568320970692304673817341489687665059840"
      ]
    },
    {
      "x": 382,
      "y": 283,
      "size": 1,
      "price": "1011000000000000000000",
      "reserved": "0x7a9fe22691c811ea339d9b73150e6911a5343dca",
      "salt": "0xe31b78015c83ab19c504df2f7f58c1db9c97ae84cb740f8820021df314287700",
      "assetIds": []
    },
    {
      "x": 382,
      "y": 284,
      "size": 1,
      "price": "4683000000000000000000",
      "reserved": "",
      "salt": "0xe526c62b7e74ed68148c716b51e49556ac85b783c3e9bf9132443ce75014eeb5",
      "assetIds": [
        "55464657044963196816950587289035428064568320970692304673817341489687656669186",
        "55464657044963196816950587289035428064568320970692304673817341489687665059844",
        "55464657044963196816950587289035428064568320970692304673817341489687665059841"
      ]
    },
    {
      "x": 382,
      "y": 288,
      "size": 1,
      "price": "4683000000000000000000",
      "reserved": "",
      "salt": "0x4c9e5182300ea21808ef682d70f4b86030fc9b84b4f4964155efea55c05de876",
      "assetIds": [
        "55464657044963196816950587289035428064568320970692304673817341489687656669186",
        "55464657044963196816950587289035428064568320970692304673817341489687665059844",
        "55464657044963196816950587289035428064568320970692304673817341489687665059841"
      ]
    },
    {
      "x": 382,
      "y": 289,
      "size": 1,
      "price": "4683000000000000000000",
      "reserved": "",
      "salt": "0x5b87241595eaa46cb33e84c76a72f2af3785b63e0e47b225f32679003f0f6f8a",
      "assetIds": [
        "55464657044963196816950587289035428064568320970692304673817341489687656669184",
        "55464657044963196816950587289035428064568320970692304673817341489687665059844",
        "55464657044963196816950587289035428064568320970692304673817341489687665059840"
      ]
    },
    {
      "x": 382,
      "y": 290,
      "size": 1,
      "price": "4683000000000000000000",
      "reserved": "",
      "salt": "0x9a0c9731fcef16f9a32e04131fa898506796a2a7c2d5bb6adf7db8c8855a3e15",
      "assetIds": [
        "55464657044963196816950587289035428064568320970692304673817341489687656669186",
        "55464657044963196816950587289035428064568320970692304673817341489687665059842",
        "55464657044963196816950587289035428064568320970692304673817341489687665059841"
      ]
    },
    {
      "x": 382,
      "y": 291,
      "size": 1,
      "price": "4683000000000000000000",
      "reserved": "",
      "salt": "0xe7ac7e85ec03558c2ed2772042cba64b130f328f5882500406e6574c2a8170d2",
      "assetIds": [
        "55464657044963196816950587289035428064568320970692304673817341489687656669186",
        "55464657044963196816950587289035428064568320970692304673817341489687665059842",
        "55464657044963196816950587289035428064568320970692304673817341489687665059841"
      ]
    },
    {
      "x": 382,
      "y": 292,
      "size": 1,
      "price": "4683000000000000000000",
      "reserved": "",
      "salt": "0xcc91de13d3af4a7897e759b382e8cf829c120cbb2fcb8ff8101c3198e5932089",
      "assetIds": [
        "55464657044963196816950587289035428064568320970692304673817341489687656669187",
        "55464657044963196816950587289035428064568320970692304673817341489687665059843",
        "55464657044963196816950587289035428064568320970692304673817341489687665059841"
      ]
    },
    {
      "x": 382,
      "y": 293,
      "size": 1,
      "price": "4683000000000000000000",
      "reserved": "",
      "salt": "0xa1c019ee00537a698df51c08689890d667d73a616bd5db9a334d13362adfbb5e",
      "assetIds": [
        "55464657044963196816950587289035428064568320970692304673817341489687656669184",
        "55464657044963196816950587289035428064568320970692304673817341489687665059844",
        "55464657044963196816950587289035428064568320970692304673817341489687665059840"
      ]
    },
    {
      "x": 382,
      "y": 300,
      "size": 1,
      "price": "4683000000000000000000",
      "reserved": "",
      "salt": "0xc6a9231a9342aa765458e706171c57e68d0666523f6ed831cb9ce66466eef1eb",
      "assetIds": [
        "55464657044963196816950587289035428064568320970692304673817341489687656669186",
        "55464657044963196816950587289035428064568320970692304673817341489687665059844",
        "55464657044963196816950587289035428064568320970692304673817341489687665059841"
      ]
    },
    {
      "x": 382,
      "y": 301,
      "size": 1,
      "price": "4683000000000000000000",
      "reserved": "",
      "salt": "0x7a8ecbf2d7c1d52951343c39f57620714572fb0593f6c78262ed3030c51e916d",
      "assetIds": [
        "55464657044963196816950587289035428064568320970692304673817341489687656669187",
        "55464657044963196816950587289035428064568320970692304673817341489687665059842",
        "55464657044963196816950587289035428064568320970692304673817341489687665059841"
      ]
    },
    {
      "x": 382,
      "y": 302,
      "size": 1,
      "price": "4683000000000000000000",
      "reserved": "",
      "salt": "0x25d5b65577092c783a49e3efffc8f04481708f5c27c30fda552f402a50a0d06a",
      "assetIds": [
        "55464657044963196816950587289035428064568320970692304673817341489687656669187",
        "55464657044963196816950587289035428064568320970692304673817341489687665059844",
        "55464657044963196816950587289035428064568320970692304673817341489687665059841"
      ]
    },
    {
      "x": 382,
      "y": 303,
      "size": 1,
      "price": "4683000000000000000000",
      "reserved": "",
      "salt": "0xa83716b634ece1d1d3c68815b46655fccd0cca32c88856c5f1b1b7e870ffc0ae",
      "assetIds": [
        "55464657044963196816950587289035428064568320970692304673817341489687656669186",
        "55464657044963196816950587289035428064568320970692304673817341489687665059842",
        "55464657044963196816950587289035428064568320970692304673817341489687665059841"
      ]
    },
    {
      "x": 382,
      "y": 304,
      "size": 1,
      "price": "4683000000000000000000",
      "reserved": "",
      "salt": "0x27146bc8771a03f47e585aa2f0cc66d8dc040582842e925310c69f34c1255009",
      "assetIds": [
        "55464657044963196816950587289035428064568320970692304673817341489687656669184",
        "55464657044963196816950587289035428064568320970692304673817341489687665059843",
        "55464657044963196816950587289035428064568320970692304673817341489687665059840"
      ]
    },
    {
      "x": 382,
      "y": 305,
      "size": 1,
      "price": "4683000000000000000000",
      "reserved": "",
      "salt": "0xc0a0f097b3d4055f006cc0bcba2b5d00f5ad3d2a00a6ada014c7be5bfcdc4279",
      "assetIds": [
        "55464657044963196816950587289035428064568320970692304673817341489687656669185",
        "55464657044963196816950587289035428064568320970692304673817341489687665059844",
        "55464657044963196816950587289035428064568320970692304673817341489687665059840"
      ]
    },
    {
      "x": 383,
      "y": 228,
      "size": 1,
      "price": "4683000000000000000000",
      "reserved": "",
      "salt": "0xeab30bbaf1b05f8aa9ebcd292dc28ddc7cfcd4cd6a6028d856366ec71c791475",
      "assetIds": [
        "55464657044963196816950587289035428064568320970692304673817341489687656669184",
        "55464657044963196816950587289035428064568320970692304673817341489687665059844",
        "55464657044963196816950587289035428064568320970692304673817341489687665059840"
      ]
    },
    {
      "x": 383,
      "y": 229,
      "size": 1,
      "price": "4683000000000000000000",
      "reserved": "",
      "salt": "0xc433f874499b2374947ddb23ee730d225622caf637695769159fa3e825dd84b9",
      "assetIds": [
        "55464657044963196816950587289035428064568320970692304673817341489687656669187",
        "55464657044963196816950587289035428064568320970692304673817341489687665059843",
        "55464657044963196816950587289035428064568320970692304673817341489687665059841"
      ]
    },
    {
      "x": 383,
      "y": 230,
      "size": 1,
      "price": "4683000000000000000000",
      "reserved": "",
      "salt": "0x891998a7f4c0bc137f38041a998a877c19af2d17887643971f96dda19e3e7c72",
      "assetIds": [
        "55464657044963196816950587289035428064568320970692304673817341489687656669186",
        "55464657044963196816950587289035428064568320970692304673817341489687665059842",
        "55464657044963196816950587289035428064568320970692304673817341489687665059841"
      ]
    },
    {
      "x": 383,
      "y": 231,
      "size": 1,
      "price": "4683000000000000000000",
      "reserved": "",
      "salt": "0x9004325db6c4ea4410ec86cc9368e80381dc86e708f70a24e24a99a17a4de84e",
      "assetIds": [
        "55464657044963196816950587289035428064568320970692304673817341489687656669185",
        "55464657044963196816950587289035428064568320970692304673817341489687665059842",
        "55464657044963196816950587289035428064568320970692304673817341489687665059840"
      ]
    },
    {
      "x": 383,
      "y": 232,
      "size": 1,
      "price": "4683000000000000000000",
      "reserved": "",
      "salt": "0x460d2405cf6231e64b46cf61fb7b4362d34c766ba83f4b8e8f24b35b9835c894",
      "assetIds": [
        "55464657044963196816950587289035428064568320970692304673817341489687656669186",
        "55464657044963196816950587289035428064568320970692304673817341489687665059844",
        "55464657044963196816950587289035428064568320970692304673817341489687665059841"
      ]
    },
    {
      "x": 383,
      "y": 233,
      "size": 1,
      "price": "4683000000000000000000",
      "reserved": "",
      "salt": "0x185d23a886195efe28b57ca814474a3fa8262cfb7e9fd4c2d76ce1454f395318",
      "assetIds": [
        "55464657044963196816950587289035428064568320970692304673817341489687656669185",
        "55464657044963196816950587289035428064568320970692304673817341489687665059844",
        "55464657044963196816950587289035428064568320970692304673817341489687665059840"
      ]
    },
    {
      "x": 383,
      "y": 234,
      "size": 1,
      "price": "4683000000000000000000",
      "reserved": "",
      "salt": "0x9e57dd3c4107f32cd333898fb90d4dfbf67d2924aaa7f9ebe29c364a53ee1a3c",
      "assetIds": [
        "55464657044963196816950587289035428064568320970692304673817341489687656669184",
        "55464657044963196816950587289035428064568320970692304673817341489687665059844",
        "55464657044963196816950587289035428064568320970692304673817341489687665059840"
      ]
    },
    {
      "x": 383,
      "y": 235,
      "size": 1,
      "price": "4683000000000000000000",
      "reserved": "",
      "salt": "0x046b779bcbd16f9b72ee0f92a8787be1cda256508ce1551eb11ea51e34df0d7e",
      "assetIds": [
        "55464657044963196816950587289035428064568320970692304673817341489687656669187",
        "55464657044963196816950587289035428064568320970692304673817341489687665059842",
        "55464657044963196816950587289035428064568320970692304673817341489687665059841"
      ]
    },
    {
      "x": 383,
      "y": 236,
      "size": 1,
      "price": "4683000000000000000000",
      "reserved": "",
      "salt": "0xcf7a45c8b37369d31d3a1173d79b5e54d0e1d9461b3232599442bf99f0780a8f",
      "assetIds": [
        "55464657044963196816950587289035428064568320970692304673817341489687656669186",
        "55464657044963196816950587289035428064568320970692304673817341489687665059843",
        "55464657044963196816950587289035428064568320970692304673817341489687665059841"
      ]
    },
    {
      "x": 383,
      "y": 237,
      "size": 1,
      "price": "4683000000000000000000",
      "reserved": "",
      "salt": "0x4b0412c34efb83a9bab369796f2ea8d6d0da033839d1be78d3efa05f4a23e8d0",
      "assetIds": [
        "55464657044963196816950587289035428064568320970692304673817341489687656669187",
        "55464657044963196816950587289035428064568320970692304673817341489687665059842",
        "55464657044963196816950587289035428064568320970692304673817341489687665059841"
      ]
    },
    {
      "x": 383,
      "y": 238,
      "size": 1,
      "price": "4683000000000000000000",
      "reserved": "",
      "salt": "0xd3e2fc533bd97eef360f9d00c3b0d199c163aabbaa2625b0f1609a7c624edc34",
      "assetIds": [
        "55464657044963196816950587289035428064568320970692304673817341489687656669187",
        "55464657044963196816950587289035428064568320970692304673817341489687665059843",
        "55464657044963196816950587289035428064568320970692304673817341489687665059841"
      ]
    },
    {
      "x": 383,
      "y": 239,
      "size": 1,
      "price": "4683000000000000000000",
      "reserved": "",
      "salt": "0xcb3287f5480c55d271dae1b493240afeaa98c094c6d18d8f9c03302cf6bb3239",
      "assetIds": [
        "55464657044963196816950587289035428064568320970692304673817341489687656669186",
        "55464657044963196816950587289035428064568320970692304673817341489687665059842",
        "55464657044963196816950587289035428064568320970692304673817341489687665059841"
      ]
    },
    {
      "x": 383,
      "y": 282,
      "size": 1,
      "price": "4683000000000000000000",
      "reserved": "",
      "salt": "0x71e8a97347487d12a56821cc63f508ed927c7e6d27fc6952f0aa8f2ec854bc8a",
      "assetIds": [
        "55464657044963196816950587289035428064568320970692304673817341489687656669184",
        "55464657044963196816950587289035428064568320970692304673817341489687665059843",
        "55464657044963196816950587289035428064568320970692304673817341489687665059840"
      ]
    },
    {
      "x": 383,
      "y": 283,
      "size": 1,
      "price": "4683000000000000000000",
      "reserved": "",
      "salt": "0xef75f83e517ed185f79ec151ce8cf7c02f7a48ee3734dcf2dc995efbc221d913",
      "assetIds": [
        "55464657044963196816950587289035428064568320970692304673817341489687656669186",
        "55464657044963196816950587289035428064568320970692304673817341489687665059842",
        "55464657044963196816950587289035428064568320970692304673817341489687665059841"
      ]
    },
    {
      "x": 383,
      "y": 284,
      "size": 1,
      "price": "4683000000000000000000",
      "reserved": "",
      "salt": "0xbbbf79da23c121d51ceb5d0c3a628a0f57a2fd9e5d3aa4c3b09bf13af7016e08",
      "assetIds": [
        "55464657044963196816950587289035428064568320970692304673817341489687656669185",
        "55464657044963196816950587289035428064568320970692304673817341489687665059844",
        "55464657044963196816950587289035428064568320970692304673817341489687665059840"
      ]
    },
    {
      "x": 383,
      "y": 288,
      "size": 1,
      "price": "4683000000000000000000",
      "reserved": "",
      "salt": "0x72bfe74eb1a85882dd74b7c2049b7170fc58ae9f9993427ded2aa6fe79bfa09b",
      "assetIds": [
        "55464657044963196816950587289035428064568320970692304673817341489687656669186",
        "55464657044963196816950587289035428064568320970692304673817341489687665059842",
        "55464657044963196816950587289035428064568320970692304673817341489687665059841"
      ]
    },
    {
      "x": 383,
      "y": 289,
      "size": 1,
      "price": "4683000000000000000000",
      "reserved": "",
      "salt": "0x12128970a4293dcc09ef2f99828f49d96e32e0275cf5eb0f8b00db35bbd5b7da",
      "assetIds": [
        "55464657044963196816950587289035428064568320970692304673817341489687656669186",
        "55464657044963196816950587289035428064568320970692304673817341489687665059844",
        "55464657044963196816950587289035428064568320970692304673817341489687665059841"
      ]
    },
    {
      "x": 383,
      "y": 290,
      "size": 1,
      "price": "4683000000000000000000",
      "reserved": "",
      "salt": "0xb5a86cea71d07d49000d626cfe1f4e1372b650beca3e41eaa0b5f9995f9e1c06",
      "assetIds": [
        "55464657044963196816950587289035428064568320970692304673817341489687656669185",
        "55464657044963196816950587289035428064568320970692304673817341489687665059842",
        "55464657044963196816950587289035428064568320970692304673817341489687665059840"
      ]
    },
    {
      "x": 383,
      "y": 291,
      "size": 1,
      "price": "4683000000000000000000",
      "reserved": "",
      "salt": "0x52ce02589eb25e456529a664d796249c7723cafbc128670a2d3142e034b5063a",
      "assetIds": [
        "55464657044963196816950587289035428064568320970692304673817341489687656669187",
        "55464657044963196816950587289035428064568320970692304673817341489687665059842",
        "55464657044963196816950587289035428064568320970692304673817341489687665059841"
      ]
    },
    {
      "x": 383,
      "y": 292,
      "size": 1,
      "price": "4683000000000000000000",
      "reserved": "",
      "salt": "0x6faf509250beb989601e103028945af5bfe29ea5e0c9fd873ef8daa81db54380",
      "assetIds": [
        "55464657044963196816950587289035428064568320970692304673817341489687656669187",
        "55464657044963196816950587289035428064568320970692304673817341489687665059844",
        "55464657044963196816950587289035428064568320970692304673817341489687665059841"
      ]
    },
    {
      "x": 383,
      "y": 293,
      "size": 1,
      "price": "4683000000000000000000",
      "reserved": "",
      "salt": "0x24810fd13dd801cb197588aecf771a87bc2ee6095cb94c953e2685cd63b4c106",
      "assetIds": [
        "55464657044963196816950587289035428064568320970692304673817341489687656669186",
        "55464657044963196816950587289035428064568320970692304673817341489687665059843",
        "55464657044963196816950587289035428064568320970692304673817341489687665059841"
      ]
    },
    {
      "x": 383,
      "y": 300,
      "size": 1,
      "price": "4683000000000000000000",
      "reserved": "",
      "salt": "0x487eacaedf60bf403720dc6e7338606762376a2e350fd584465649ba76c6fcbb",
      "assetIds": [
        "55464657044963196816950587289035428064568320970692304673817341489687656669186",
        "55464657044963196816950587289035428064568320970692304673817341489687665059842",
        "55464657044963196816950587289035428064568320970692304673817341489687665059841"
      ]
    },
    {
      "x": 383,
      "y": 301,
      "size": 1,
      "price": "4683000000000000000000",
      "reserved": "",
      "salt": "0xf6ffa3349c9450b8291377f8927a4c8d175001780614eddd696dc3d7ec1d5d25",
      "assetIds": [
        "55464657044963196816950587289035428064568320970692304673817341489687656669186",
        "55464657044963196816950587289035428064568320970692304673817341489687665059844",
        "55464657044963196816950587289035428064568320970692304673817341489687665059841"
      ]
    },
    {
      "x": 383,
      "y": 302,
      "size": 1,
      "price": "4683000000000000000000",
      "reserved": "",
      "salt": "0xee2e9a0c45497c271331b90a8251ea4020f45273703ae42a757120d10b81015c",
      "assetIds": [
        "55464657044963196816950587289035428064568320970692304673817341489687656669187",
        "55464657044963196816950587289035428064568320970692304673817341489687665059843",
        "55464657044963196816950587289035428064568320970692304673817341489687665059841"
      ]
    },
    {
      "x": 383,
      "y": 303,
      "size": 1,
      "price": "4683000000000000000000",
      "reserved": "",
      "salt": "0x2d6a42e0b4862dd1fd1019b229532154a8b4f6aab971ab20c57336d4a40c4a36",
      "assetIds": [
        "55464657044963196816950587289035428064568320970692304673817341489687656669185",
        "55464657044963196816950587289035428064568320970692304673817341489687665059844",
        "55464657044963196816950587289035428064568320970692304673817341489687665059840"
      ]
    },
    {
      "x": 383,
      "y": 304,
      "size": 1,
      "price": "4683000000000000000000",
      "reserved": "",
      "salt": "0xc9fb74df0c95f3450e23ddc2953a36a4c8572ef5c69618b7a44d3b091fa7e38e",
      "assetIds": [
        "55464657044963196816950587289035428064568320970692304673817341489687656669186",
        "55464657044963196816950587289035428064568320970692304673817341489687665059844",
        "55464657044963196816950587289035428064568320970692304673817341489687665059841"
      ]
    },
    {
      "x": 383,
      "y": 305,
      "size": 1,
      "price": "4683000000000000000000",
      "reserved": "",
      "salt": "0x7bfd35ad8d6192cc624760e5c8441fc9623e20b8dae095e0c6f6e8475f0c8a5a",
      "assetIds": [
        "55464657044963196816950587289035428064568320970692304673817341489687656669185",
        "55464657044963196816950587289035428064568320970692304673817341489687665059843",
        "55464657044963196816950587289035428064568320970692304673817341489687665059840"
      ]
    },
    {
      "x": 384,
      "y": 225,
      "size": 1,
      "price": "4683000000000000000000",
      "reserved": "",
      "salt": "0xf6cf33369d2031d072df4ae6a90211ebff0e0f631f3da8a1bbb7e8a100e4bb73",
      "assetIds": [
        "55464657044963196816950587289035428064568320970692304673817341489687656669184",
        "55464657044963196816950587289035428064568320970692304673817341489687665059842",
        "55464657044963196816950587289035428064568320970692304673817341489687665059840"
      ]
    },
    {
      "x": 384,
      "y": 226,
      "size": 1,
      "price": "4683000000000000000000",
      "reserved": "",
      "salt": "0x32715277a2fb30424f15c5346eb569da375f9cdec038ae82312f45f920219bf9",
      "assetIds": [
        "55464657044963196816950587289035428064568320970692304673817341489687656669186",
        "55464657044963196816950587289035428064568320970692304673817341489687665059843",
        "55464657044963196816950587289035428064568320970692304673817341489687665059841"
      ]
    },
    {
      "x": 384,
      "y": 227,
      "size": 1,
      "price": "4683000000000000000000",
      "reserved": "",
      "salt": "0xfdc86c99633d6966013ade3c358a1c6912adf5430aa7e9e32a026c4353c6d16d",
      "assetIds": [
        "55464657044963196816950587289035428064568320970692304673817341489687656669187",
        "55464657044963196816950587289035428064568320970692304673817341489687665059842",
        "55464657044963196816950587289035428064568320970692304673817341489687665059841"
      ]
    },
    {
      "x": 384,
      "y": 228,
      "size": 1,
      "price": "4683000000000000000000",
      "reserved": "",
      "salt": "0x5f6686e3ec4154c7dd68d1447c10b08b1a2ec9ded6a003b2298c42d56b83f759",
      "assetIds": [
        "55464657044963196816950587289035428064568320970692304673817341489687656669185",
        "55464657044963196816950587289035428064568320970692304673817341489687665059842",
        "55464657044963196816950587289035428064568320970692304673817341489687665059840"
      ]
    },
    {
      "x": 384,
      "y": 229,
      "size": 1,
      "price": "4683000000000000000000",
      "reserved": "",
      "salt": "0xbabded576e2e3f45e572a989df29f39ee727e8f8afa3cba88d252c8341500b24",
      "assetIds": [
        "55464657044963196816950587289035428064568320970692304673817341489687656669184",
        "55464657044963196816950587289035428064568320970692304673817341489687665059842",
        "55464657044963196816950587289035428064568320970692304673817341489687665059840"
      ]
    },
    {
      "x": 384,
      "y": 230,
      "size": 1,
      "price": "4683000000000000000000",
      "reserved": "",
      "salt": "0x6b21664ab8ca0f6faa5ff504390dc4982a0a00e4196c168714e271e3186a0ea1",
      "assetIds": [
        "55464657044963196816950587289035428064568320970692304673817341489687656669187",
        "55464657044963196816950587289035428064568320970692304673817341489687665059844",
        "55464657044963196816950587289035428064568320970692304673817341489687665059841"
      ]
    },
    {
      "x": 384,
      "y": 231,
      "size": 1,
      "price": "4683000000000000000000",
      "reserved": "",
      "salt": "0xa0018eb636516a6748fd4f8bc8266dc988ec11583e1e239f7b06d96e9f64185e",
      "assetIds": [
        "55464657044963196816950587289035428064568320970692304673817341489687656669184",
        "55464657044963196816950587289035428064568320970692304673817341489687665059844",
        "55464657044963196816950587289035428064568320970692304673817341489687665059840"
      ]
    },
    {
      "x": 384,
      "y": 232,
      "size": 1,
      "price": "4683000000000000000000",
      "reserved": "",
      "salt": "0x6e33e0d8754fe55869c011c525222712fcbf01e7c38386edc7205c7525a57f5b",
      "assetIds": [
        "55464657044963196816950587289035428064568320970692304673817341489687656669187",
        "55464657044963196816950587289035428064568320970692304673817341489687665059843",
        "55464657044963196816950587289035428064568320970692304673817341489687665059841"
      ]
    },
    {
      "x": 384,
      "y": 233,
      "size": 1,
      "price": "4683000000000000000000",
      "reserved": "",
      "salt": "0x4f158d951b1e5124fcf1c96becc22e5401a21aba991612193b535ec4f25b10ec",
      "assetIds": [
        "55464657044963196816950587289035428064568320970692304673817341489687656669186",
        "55464657044963196816950587289035428064568320970692304673817341489687665059844",
        "55464657044963196816950587289035428064568320970692304673817341489687665059841"
      ]
    },
    {
      "x": 384,
      "y": 234,
      "size": 1,
      "price": "4683000000000000000000",
      "reserved": "",
      "salt": "0xe384e30eb1530d42083a6c4b6b737db6242749fae4572f33f6672dad75bdd561",
      "assetIds": [
        "55464657044963196816950587289035428064568320970692304673817341489687656669187",
        "55464657044963196816950587289035428064568320970692304673817341489687665059842",
        "55464657044963196816950587289035428064568320970692304673817341489687665059841"
      ]
    },
    {
      "x": 384,
      "y": 235,
      "size": 1,
      "price": "4683000000000000000000",
      "reserved": "",
      "salt": "0xab2752bcb4fea5392a0191950c376c6b7c4a277fad1b8921f1a384345ee75073",
      "assetIds": [
        "55464657044963196816950587289035428064568320970692304673817341489687656669187",
        "55464657044963196816950587289035428064568320970692304673817341489687665059842",
        "55464657044963196816950587289035428064568320970692304673817341489687665059841"
      ]
    },
    {
      "x": 384,
      "y": 236,
      "size": 1,
      "price": "4683000000000000000000",
      "reserved": "",
      "salt": "0x12cb6fe0a23ff05ba59a932e62b0075ebf89a7ca6b297157dd3545af2c3aeed8",
      "assetIds": [
        "55464657044963196816950587289035428064568320970692304673817341489687656669184",
        "55464657044963196816950587289035428064568320970692304673817341489687665059843",
        "55464657044963196816950587289035428064568320970692304673817341489687665059840"
      ]
    },
    {
      "x": 384,
      "y": 237,
      "size": 1,
      "price": "4683000000000000000000",
      "reserved": "",
      "salt": "0x030fd4b88f2b7256a9d85ad0933068dedd8c4ee4aa5629181d8fec93a2a2ad2c",
      "assetIds": [
        "55464657044963196816950587289035428064568320970692304673817341489687656669186",
        "55464657044963196816950587289035428064568320970692304673817341489687665059842",
        "55464657044963196816950587289035428064568320970692304673817341489687665059841"
      ]
    },
    {
      "x": 384,
      "y": 238,
      "size": 1,
      "price": "4683000000000000000000",
      "reserved": "",
      "salt": "0x8db06f0d17b1ae4b2dd702ea9ddadcf2151a62600754ec8ac6699dcf449861bb",
      "assetIds": [
        "55464657044963196816950587289035428064568320970692304673817341489687656669184",
        "55464657044963196816950587289035428064568320970692304673817341489687665059844",
        "55464657044963196816950587289035428064568320970692304673817341489687665059840"
      ]
    },
    {
      "x": 384,
      "y": 239,
      "size": 1,
      "price": "4683000000000000000000",
      "reserved": "",
      "salt": "0xd7b10962e300a84889d9a8ac50248cffb10c334979842bccfed44d65a34379aa",
      "assetIds": [
        "55464657044963196816950587289035428064568320970692304673817341489687656669187",
        "55464657044963196816950587289035428064568320970692304673817341489687665059842",
        "55464657044963196816950587289035428064568320970692304673817341489687665059841"
      ]
    },
    {
      "x": 384,
      "y": 255,
      "size": 1,
      "price": "4683000000000000000000",
      "reserved": "",
      "salt": "0x63ea93a51c06575c5473bc25e78f62f7abc58b2b499c715fb8aee0f5f9685431",
      "assetIds": [
        "55464657044963196816950587289035428064568320970692304673817341489687656669184",
        "55464657044963196816950587289035428064568320970692304673817341489687665059844",
        "55464657044963196816950587289035428064568320970692304673817341489687665059840"
      ]
    },
    {
      "x": 384,
      "y": 256,
      "size": 1,
      "price": "4683000000000000000000",
      "reserved": "",
      "salt": "0xaaa2be1a2d60cd5c4865bc38a4ff56780afbbda2abef4e03071d3158c0fc0871",
      "assetIds": [
        "55464657044963196816950587289035428064568320970692304673817341489687656669184",
        "55464657044963196816950587289035428064568320970692304673817341489687665059843",
        "55464657044963196816950587289035428064568320970692304673817341489687665059840"
      ]
    },
    {
      "x": 384,
      "y": 257,
      "size": 1,
      "price": "4683000000000000000000",
      "reserved": "",
      "salt": "0x8c8d58a5e73ee866c096ed3a105bfd11d9cd97dcbbcdf4c79636a68b9e73d923",
      "assetIds": [
        "55464657044963196816950587289035428064568320970692304673817341489687656669186",
        "55464657044963196816950587289035428064568320970692304673817341489687665059843",
        "55464657044963196816950587289035428064568320970692304673817341489687665059841"
      ]
    },
    {
      "x": 384,
      "y": 294,
      "size": 1,
      "price": "4683000000000000000000",
      "reserved": "",
      "salt": "0x4be6182261fa5f0280975a64c0e1e65f272fa6a39d88c0f16a858b9ff2a07fac",
      "assetIds": [
        "55464657044963196816950587289035428064568320970692304673817341489687656669186",
        "55464657044963196816950587289035428064568320970692304673817341489687665059844",
        "55464657044963196816950587289035428064568320970692304673817341489687665059841"
      ]
    },
    {
      "x": 384,
      "y": 295,
      "size": 1,
      "price": "4683000000000000000000",
      "reserved": "",
      "salt": "0x5083073cdcc253888fba8c8d1228436f42b5e6491fad95e3f1ec557a2e49d4f4",
      "assetIds": [
        "55464657044963196816950587289035428064568320970692304673817341489687656669185",
        "55464657044963196816950587289035428064568320970692304673817341489687665059844",
        "55464657044963196816950587289035428064568320970692304673817341489687665059840"
      ]
    },
    {
      "x": 384,
      "y": 296,
      "size": 1,
      "price": "4683000000000000000000",
      "reserved": "",
      "salt": "0xe26ad179142a9755909f02064161b964f78c7de82af798de060fe56ce27daa16",
      "assetIds": [
        "55464657044963196816950587289035428064568320970692304673817341489687656669184",
        "55464657044963196816950587289035428064568320970692304673817341489687665059842",
        "55464657044963196816950587289035428064568320970692304673817341489687665059840"
      ]
    },
    {
      "x": 384,
      "y": 297,
      "size": 1,
      "price": "4683000000000000000000",
      "reserved": "",
      "salt": "0x6f93326f496dac931e8bea7d2a13e898287ce861ba63c759923e6d54e704b4d4",
      "assetIds": [
        "55464657044963196816950587289035428064568320970692304673817341489687656669185",
        "55464657044963196816950587289035428064568320970692304673817341489687665059843",
        "55464657044963196816950587289035428064568320970692304673817341489687665059840"
      ]
    },
    {
      "x": 384,
      "y": 298,
      "size": 1,
      "price": "4683000000000000000000",
      "reserved": "",
      "salt": "0xacbf4b7ee48fd9604f137799ce1844b2627277ad77983ed3727712f61f9a4241",
      "assetIds": [
        "55464657044963196816950587289035428064568320970692304673817341489687656669185",
        "55464657044963196816950587289035428064568320970692304673817341489687665059844",
        "55464657044963196816950587289035428064568320970692304673817341489687665059840"
      ]
    },
    {
      "x": 384,
      "y": 299,
      "size": 1,
      "price": "4683000000000000000000",
      "reserved": "",
      "salt": "0x33cef306dcd436d26639271b5e4ca0ae7d177e5c6d72fde2c66554b6e114595d",
      "assetIds": [
        "55464657044963196816950587289035428064568320970692304673817341489687656669187",
        "55464657044963196816950587289035428064568320970692304673817341489687665059842",
        "55464657044963196816950587289035428064568320970692304673817341489687665059841"
      ]
    },
    {
      "x": 385,
      "y": 225,
      "size": 1,
      "price": "4683000000000000000000",
      "reserved": "",
      "salt": "0x5663039f67264750d2eb3183d3d804b1fdb7f1093958d80cb84f2f0ea0b1aa17",
      "assetIds": [
        "55464657044963196816950587289035428064568320970692304673817341489687656669186",
        "55464657044963196816950587289035428064568320970692304673817341489687665059842",
        "55464657044963196816950587289035428064568320970692304673817341489687665059841"
      ]
    },
    {
      "x": 385,
      "y": 226,
      "size": 1,
      "price": "4683000000000000000000",
      "reserved": "",
      "salt": "0x54450b319d975adffe69ded327c0a1ab40534d446288c2a11b0032cdc35df1d7",
      "assetIds": [
        "55464657044963196816950587289035428064568320970692304673817341489687656669187",
        "55464657044963196816950587289035428064568320970692304673817341489687665059842",
        "55464657044963196816950587289035428064568320970692304673817341489687665059841"
      ]
    },
    {
      "x": 385,
      "y": 227,
      "size": 1,
      "price": "4683000000000000000000",
      "reserved": "",
      "salt": "0x72afc244f27d2cad14ff418c02c2a427663cd8c2500237deed4cc25522f06bc6",
      "assetIds": [
        "55464657044963196816950587289035428064568320970692304673817341489687656669186",
        "55464657044963196816950587289035428064568320970692304673817341489687665059842",
        "55464657044963196816950587289035428064568320970692304673817341489687665059841"
      ]
    },
    {
      "x": 385,
      "y": 228,
      "size": 1,
      "price": "4683000000000000000000",
      "reserved": "",
      "salt": "0x20262040cb3292b3d33ae3b101675b084c28abdf22dcc7df1d03d3fd23196209",
      "assetIds": [
        "55464657044963196816950587289035428064568320970692304673817341489687656669184",
        "55464657044963196816950587289035428064568320970692304673817341489687665059842",
        "55464657044963196816950587289035428064568320970692304673817341489687665059840"
      ]
    },
    {
      "x": 385,
      "y": 229,
      "size": 1,
      "price": "1011000000000000000000",
      "reserved": "0x7a9fe22691c811ea339d9b73150e6911a5343dca",
      "salt": "0x6c7e837c41485d269b65329588cd296aea1772d3b1ca323e94c5c19fa436a8e6",
      "assetIds": []
    },
    {
      "x": 385,
      "y": 230,
      "size": 1,
      "price": "4683000000000000000000",
      "reserved": "",
      "salt": "0xc46e0ca5505a1e864926024f72f46fa71b095cff2bb8a8e4355643a3f3c0b700",
      "assetIds": [
        "55464657044963196816950587289035428064568320970692304673817341489687656669187",
        "55464657044963196816950587289035428064568320970692304673817341489687665059843",
        "55464657044963196816950587289035428064568320970692304673817341489687665059841"
      ]
    },
    {
      "x": 385,
      "y": 231,
      "size": 1,
      "price": "4683000000000000000000",
      "reserved": "",
      "salt": "0x317c867f6a8f9837cb611a46334fb407776480954b8b0b1b24d93525b698a894",
      "assetIds": [
        "55464657044963196816950587289035428064568320970692304673817341489687656669184",
        "55464657044963196816950587289035428064568320970692304673817341489687665059844",
        "55464657044963196816950587289035428064568320970692304673817341489687665059840"
      ]
    },
    {
      "x": 385,
      "y": 232,
      "size": 1,
      "price": "4683000000000000000000",
      "reserved": "",
      "salt": "0x3b41e87b1d91a74340456e1f43adfcbdd8ef53771f73813799ec8b58c81256e0",
      "assetIds": [
        "55464657044963196816950587289035428064568320970692304673817341489687656669186",
        "55464657044963196816950587289035428064568320970692304673817341489687665059843",
        "55464657044963196816950587289035428064568320970692304673817341489687665059841"
      ]
    },
    {
      "x": 385,
      "y": 233,
      "size": 1,
      "price": "4683000000000000000000",
      "reserved": "",
      "salt": "0xbc6e116a48af2feb91d31b995cd90421f8f0e4a7809019a0a35c48ea63f989fa",
      "assetIds": [
        "55464657044963196816950587289035428064568320970692304673817341489687656669187",
        "55464657044963196816950587289035428064568320970692304673817341489687665059844",
        "55464657044963196816950587289035428064568320970692304673817341489687665059841"
      ]
    },
    {
      "x": 385,
      "y": 234,
      "size": 1,
      "price": "4683000000000000000000",
      "reserved": "",
      "salt": "0xc06fb3b61abc38e972b03f8b365634103de2b89b5224c082d7ff2e3289a3e545",
      "assetIds": [
        "55464657044963196816950587289035428064568320970692304673817341489687656669185",
        "55464657044963196816950587289035428064568320970692304673817341489687665059843",
        "55464657044963196816950587289035428064568320970692304673817341489687665059840"
      ]
    },
    {
      "x": 385,
      "y": 235,
      "size": 1,
      "price": "4683000000000000000000",
      "reserved": "",
      "salt": "0x5730cf718ff5ea51188c83aa5b73098b2dfc47806b5ffaca2611bb0f20eaae62",
      "assetIds": [
        "55464657044963196816950587289035428064568320970692304673817341489687656669187",
        "55464657044963196816950587289035428064568320970692304673817341489687665059844",
        "55464657044963196816950587289035428064568320970692304673817341489687665059841"
      ]
    },
    {
      "x": 385,
      "y": 236,
      "size": 1,
      "price": "4683000000000000000000",
      "reserved": "",
      "salt": "0x59f4993d89ad1ffc108bedfc06aca4dae91cf0bebc430329eaeb49195909c1dd",
      "assetIds": [
        "55464657044963196816950587289035428064568320970692304673817341489687656669184",
        "55464657044963196816950587289035428064568320970692304673817341489687665059844",
        "55464657044963196816950587289035428064568320970692304673817341489687665059840"
      ]
    },
    {
      "x": 385,
      "y": 237,
      "size": 1,
      "price": "1011000000000000000000",
      "reserved": "0x7a9fe22691c811ea339d9b73150e6911a5343dca",
      "salt": "0x6b17003b14d8866a6e6ce572652c9920fad136e9ed9248f2a4cfd350d400a4b4",
      "assetIds": []
    },
    {
      "x": 385,
      "y": 238,
      "size": 1,
      "price": "4683000000000000000000",
      "reserved": "",
      "salt": "0x052d4b237bae9a8fe35d04e603db772fda132d688c02c57c39bd6c2dc4c09358",
      "assetIds": [
        "55464657044963196816950587289035428064568320970692304673817341489687656669187",
        "55464657044963196816950587289035428064568320970692304673817341489687665059842",
        "55464657044963196816950587289035428064568320970692304673817341489687665059841"
      ]
    },
    {
      "x": 385,
      "y": 239,
      "size": 1,
      "price": "4683000000000000000000",
      "reserved": "",
      "salt": "0x5a21a62b59b68c59a8eac133815afa4ae9e37da94cbac36c5d4df7ea7e707f4b",
      "assetIds": [
        "55464657044963196816950587289035428064568320970692304673817341489687656669187",
        "55464657044963196816950587289035428064568320970692304673817341489687665059843",
        "55464657044963196816950587289035428064568320970692304673817341489687665059841"
      ]
    },
    {
      "x": 385,
      "y": 255,
      "size": 1,
      "price": "4683000000000000000000",
      "reserved": "",
      "salt": "0xb2d55e22c660aa863da18b31a088da552b6b0f3406d11ec4a5479eac249c8381",
      "assetIds": [
        "55464657044963196816950587289035428064568320970692304673817341489687656669185",
        "55464657044963196816950587289035428064568320970692304673817341489687665059842",
        "55464657044963196816950587289035428064568320970692304673817341489687665059840"
      ]
    },
    {
      "x": 385,
      "y": 256,
      "size": 1,
      "price": "1011000000000000000000",
      "reserved": "0x7a9fe22691c811ea339d9b73150e6911a5343dca",
      "salt": "0x829a149bd453776bec8e1dba4b9fb93e8d4c72d3bce0607ff20bccf23e4d9d11",
      "assetIds": []
    },
    {
      "x": 385,
      "y": 257,
      "size": 1,
      "price": "4683000000000000000000",
      "reserved": "",
      "salt": "0xf42710e02ea9c5a3d3eac7fd26a46b56c1ad7209ddec0be2904061bed3167696",
      "assetIds": [
        "55464657044963196816950587289035428064568320970692304673817341489687656669185",
        "55464657044963196816950587289035428064568320970692304673817341489687665059842",
        "55464657044963196816950587289035428064568320970692304673817341489687665059840"
      ]
    },
    {
      "x": 385,
      "y": 294,
      "size": 1,
      "price": "4683000000000000000000",
      "reserved": "",
      "salt": "0xd75fed0968968135075f462b685495f7fc64a8b4f71d8ec8285d25d66707fd25",
      "assetIds": [
        "55464657044963196816950587289035428064568320970692304673817341489687656669185",
        "55464657044963196816950587289035428064568320970692304673817341489687665059844",
        "55464657044963196816950587289035428064568320970692304673817341489687665059840"
      ]
    },
    {
      "x": 385,
      "y": 295,
      "size": 1,
      "price": "4683000000000000000000",
      "reserved": "",
      "salt": "0x3a6a39995911b54ea76c4f90ebafc7b580e6bf0215f9e5cfd37e49de7f2f617b",
      "assetIds": [
        "55464657044963196816950587289035428064568320970692304673817341489687656669185",
        "55464657044963196816950587289035428064568320970692304673817341489687665059842",
        "55464657044963196816950587289035428064568320970692304673817341489687665059840"
      ]
    },
    {
      "x": 385,
      "y": 296,
      "size": 1,
      "price": "4683000000000000000000",
      "reserved": "",
      "salt": "0x225c8e6013fe61d9dd3bbbda5ce50d0248f3dd8cbde391014f91e18adc076ddf",
      "assetIds": [
        "55464657044963196816950587289035428064568320970692304673817341489687656669186",
        "55464657044963196816950587289035428064568320970692304673817341489687665059843",
        "55464657044963196816950587289035428064568320970692304673817341489687665059841"
      ]
    },
    {
      "x": 385,
      "y": 297,
      "size": 1,
      "price": "4683000000000000000000",
      "reserved": "",
      "salt": "0xf108c2baadde4003f45e94a4ebb0a255125a6453df65bf58b61e82309ba85eed",
      "assetIds": [
        "55464657044963196816950587289035428064568320970692304673817341489687656669186",
        "55464657044963196816950587289035428064568320970692304673817341489687665059842",
        "55464657044963196816950587289035428064568320970692304673817341489687665059841"
      ]
    },
    {
      "x": 385,
      "y": 298,
      "size": 1,
      "price": "4683000000000000000000",
      "reserved": "",
      "salt": "0xb06068d5403484cd4f4028eec06d82fd263819e0f1f09814e033aff2f55c084b",
      "assetIds": [
        "55464657044963196816950587289035428064568320970692304673817341489687656669185",
        "55464657044963196816950587289035428064568320970692304673817341489687665059843",
        "55464657044963196816950587289035428064568320970692304673817341489687665059840"
      ]
    },
    {
      "x": 385,
      "y": 299,
      "size": 1,
      "price": "4683000000000000000000",
      "reserved": "",
      "salt": "0xd4b4830abb4e2024f61ff4ddc52bf866386178c0645f40bf2f10ee9c7fc6852e",
      "assetIds": [
        "55464657044963196816950587289035428064568320970692304673817341489687656669184",
        "55464657044963196816950587289035428064568320970692304673817341489687665059844",
        "55464657044963196816950587289035428064568320970692304673817341489687665059840"
      ]
    },
    {
      "x": 386,
      "y": 225,
      "size": 1,
      "price": "4683000000000000000000",
      "reserved": "",
      "salt": "0x0c8b2f7e65a5c980b70240ace2246912b691e8cda195ae39f6ff2231f47e0d35",
      "assetIds": [
        "55464657044963196816950587289035428064568320970692304673817341489687656669185",
        "55464657044963196816950587289035428064568320970692304673817341489687665059842",
        "55464657044963196816950587289035428064568320970692304673817341489687665059840"
      ]
    },
    {
      "x": 386,
      "y": 226,
      "size": 1,
      "price": "4683000000000000000000",
      "reserved": "",
      "salt": "0xb8f3d003589004e79d381a03cc816efe0d40f8e3280536ad435536042987d507",
      "assetIds": [
        "55464657044963196816950587289035428064568320970692304673817341489687656669186",
        "55464657044963196816950587289035428064568320970692304673817341489687665059842",
        "55464657044963196816950587289035428064568320970692304673817341489687665059841"
      ]
    },
    {
      "x": 386,
      "y": 227,
      "size": 1,
      "price": "4683000000000000000000",
      "reserved": "",
      "salt": "0x17642658c20e88fee8511d117883ffd073a64a1e7669b73c07c6e7cdb0e09cd7",
      "assetIds": [
        "55464657044963196816950587289035428064568320970692304673817341489687656669186",
        "55464657044963196816950587289035428064568320970692304673817341489687665059843",
        "55464657044963196816950587289035428064568320970692304673817341489687665059841"
      ]
    },
    {
      "x": 386,
      "y": 228,
      "size": 1,
      "price": "4683000000000000000000",
      "reserved": "",
      "salt": "0x868cb9c6c85dfa39538c6419ecab94432341f6affa791ad1e0c0a42bd55932d5",
      "assetIds": [
        "55464657044963196816950587289035428064568320970692304673817341489687656669185",
        "55464657044963196816950587289035428064568320970692304673817341489687665059844",
        "55464657044963196816950587289035428064568320970692304673817341489687665059840"
      ]
    },
    {
      "x": 386,
      "y": 229,
      "size": 1,
      "price": "4683000000000000000000",
      "reserved": "",
      "salt": "0x30ff951cdb6de58281b6553be6e2b47f8c7e5536a32b79b49d719ffbc30c27f3",
      "assetIds": [
        "55464657044963196816950587289035428064568320970692304673817341489687656669184",
        "55464657044963196816950587289035428064568320970692304673817341489687665059842",
        "55464657044963196816950587289035428064568320970692304673817341489687665059840"
      ]
    },
    {
      "x": 386,
      "y": 230,
      "size": 1,
      "price": "4683000000000000000000",
      "reserved": "",
      "salt": "0x47bfca4f622983f96469bca5e13fe905df35bbc8ec392ada88a48a780e54003f",
      "assetIds": [
        "55464657044963196816950587289035428064568320970692304673817341489687656669186",
        "55464657044963196816950587289035428064568320970692304673817341489687665059844",
        "55464657044963196816950587289035428064568320970692304673817341489687665059841"
      ]
    },
    {
      "x": 386,
      "y": 231,
      "size": 1,
      "price": "4683000000000000000000",
      "reserved": "",
      "salt": "0x08069382219c2565373a4489a4f1beec03e1e73b16b19fdb8ff8a1812d37d839",
      "assetIds": [
        "55464657044963196816950587289035428064568320970692304673817341489687656669184",
        "55464657044963196816950587289035428064568320970692304673817341489687665059843",
        "55464657044963196816950587289035428064568320970692304673817341489687665059840"
      ]
    },
    {
      "x": 386,
      "y": 232,
      "size": 1,
      "price": "4683000000000000000000",
      "reserved": "",
      "salt": "0x9f34fd405b452dc17f6358d12f64dea836eb3b5f266344225be808b8355562fe",
      "assetIds": [
        "55464657044963196816950587289035428064568320970692304673817341489687656669185",
        "55464657044963196816950587289035428064568320970692304673817341489687665059844",
        "55464657044963196816950587289035428064568320970692304673817341489687665059840"
      ]
    },
    {
      "x": 386,
      "y": 233,
      "size": 1,
      "price": "4683000000000000000000",
      "reserved": "",
      "salt": "0xc02b4ccb830861940bf9438571e4f9b6a09925a79cd0871bd967233fdadb6190",
      "assetIds": [
        "55464657044963196816950587289035428064568320970692304673817341489687656669187",
        "55464657044963196816950587289035428064568320970692304673817341489687665059842",
        "55464657044963196816950587289035428064568320970692304673817341489687665059841"
      ]
    },
    {
      "x": 386,
      "y": 234,
      "size": 1,
      "price": "4683000000000000000000",
      "reserved": "",
      "salt": "0x92a2eb521f116a8a4acf5e3b13a69cf03e772273ef8fbe32c49cecb503ca0ba0",
      "assetIds": [
        "55464657044963196816950587289035428064568320970692304673817341489687656669186",
        "55464657044963196816950587289035428064568320970692304673817341489687665059842",
        "55464657044963196816950587289035428064568320970692304673817341489687665059841"
      ]
    },
    {
      "x": 386,
      "y": 235,
      "size": 1,
      "price": "4683000000000000000000",
      "reserved": "",
      "salt": "0x64083d56a7e2bd5115e44162b4e53b6b78726a30181d5a0ac446dd965a9eab42",
      "assetIds": [
        "55464657044963196816950587289035428064568320970692304673817341489687656669186",
        "55464657044963196816950587289035428064568320970692304673817341489687665059843",
        "55464657044963196816950587289035428064568320970692304673817341489687665059841"
      ]
    },
    {
      "x": 386,
      "y": 236,
      "size": 1,
      "price": "4683000000000000000000",
      "reserved": "",
      "salt": "0x310d9cdd067f03f1b056503dded447bd02345c234ba8944bee6e343b4ca475b6",
      "assetIds": [
        "55464657044963196816950587289035428064568320970692304673817341489687656669187",
        "55464657044963196816950587289035428064568320970692304673817341489687665059843",
        "55464657044963196816950587289035428064568320970692304673817341489687665059841"
      ]
    },
    {
      "x": 386,
      "y": 237,
      "size": 1,
      "price": "4683000000000000000000",
      "reserved": "",
      "salt": "0x29cfb796a4e92d84324b4cfd6aa354eac23d62e6006d17d3b65bbb5e72dfc485",
      "assetIds": [
        "55464657044963196816950587289035428064568320970692304673817341489687656669186",
        "55464657044963196816950587289035428064568320970692304673817341489687665059844",
        "55464657044963196816950587289035428064568320970692304673817341489687665059841"
      ]
    },
    {
      "x": 386,
      "y": 238,
      "size": 1,
      "price": "4683000000000000000000",
      "reserved": "",
      "salt": "0x743a9b8c744e9aaec58f6da1cffe7924e5c3f65ce190e5ce1f0813e41eeeec04",
      "assetIds": [
        "55464657044963196816950587289035428064568320970692304673817341489687656669187",
        "55464657044963196816950587289035428064568320970692304673817341489687665059844",
        "55464657044963196816950587289035428064568320970692304673817341489687665059841"
      ]
    },
    {
      "x": 386,
      "y": 239,
      "size": 1,
      "price": "4683000000000000000000",
      "reserved": "",
      "salt": "0xf36d8f72ca38a819aabc23ee374e312b6a125be3a0e4bad915463149f15230c1",
      "assetIds": [
        "55464657044963196816950587289035428064568320970692304673817341489687656669187",
        "55464657044963196816950587289035428064568320970692304673817341489687665059842",
        "55464657044963196816950587289035428064568320970692304673817341489687665059841"
      ]
    },
    {
      "x": 386,
      "y": 255,
      "size": 1,
      "price": "4683000000000000000000",
      "reserved": "",
      "salt": "0xfd111200eedccd61783b916e4ef830d356153592f0551c163809f23e20989e1d",
      "assetIds": [
        "55464657044963196816950587289035428064568320970692304673817341489687656669185",
        "55464657044963196816950587289035428064568320970692304673817341489687665059843",
        "55464657044963196816950587289035428064568320970692304673817341489687665059840"
      ]
    },
    {
      "x": 386,
      "y": 256,
      "size": 1,
      "price": "4683000000000000000000",
      "reserved": "",
      "salt": "0x5dd81760b7e689363ad93e343e6b1e4853c015105bec0ed616df1c9213e401b0",
      "assetIds": [
        "55464657044963196816950587289035428064568320970692304673817341489687656669186",
        "55464657044963196816950587289035428064568320970692304673817341489687665059842",
        "55464657044963196816950587289035428064568320970692304673817341489687665059841"
      ]
    },
    {
      "x": 386,
      "y": 257,
      "size": 1,
      "price": "4683000000000000000000",
      "reserved": "",
      "salt": "0x846e3de2a27d1b659ce4e08458b6c076cf11def02dad65f62c497e9177ed7dfd",
      "assetIds": [
        "55464657044963196816950587289035428064568320970692304673817341489687656669187",
        "55464657044963196816950587289035428064568320970692304673817341489687665059844",
        "55464657044963196816950587289035428064568320970692304673817341489687665059841"
      ]
    },
    {
      "x": 386,
      "y": 294,
      "size": 1,
      "price": "4683000000000000000000",
      "reserved": "",
      "salt": "0xd8182532ee311f1f5479ae59952b77240e370e7038eb0d5b333ef3c813ce02d5",
      "assetIds": [
        "55464657044963196816950587289035428064568320970692304673817341489687656669185",
        "55464657044963196816950587289035428064568320970692304673817341489687665059842",
        "55464657044963196816950587289035428064568320970692304673817341489687665059840"
      ]
    },
    {
      "x": 386,
      "y": 295,
      "size": 1,
      "price": "4683000000000000000000",
      "reserved": "",
      "salt": "0xdb3385f77cfcf84ac84933a0e9747b21a971f57cbec279065ce80f713858c852",
      "assetIds": [
        "55464657044963196816950587289035428064568320970692304673817341489687656669186",
        "55464657044963196816950587289035428064568320970692304673817341489687665059842",
        "55464657044963196816950587289035428064568320970692304673817341489687665059841"
      ]
    },
    {
      "x": 386,
      "y": 296,
      "size": 1,
      "price": "4683000000000000000000",
      "reserved": "",
      "salt": "0x6bd814ab8e4b57989f3a3d748c49b5b0b379ab12ff2ace7b0ce53bc22a533932",
      "assetIds": [
        "55464657044963196816950587289035428064568320970692304673817341489687656669187",
        "55464657044963196816950587289035428064568320970692304673817341489687665059844",
        "55464657044963196816950587289035428064568320970692304673817341489687665059841"
      ]
    },
    {
      "x": 386,
      "y": 297,
      "size": 1,
      "price": "4683000000000000000000",
      "reserved": "",
      "salt": "0x7dc942515face6f2e9174e67b4ed57d89c1665be2297360dfba3e3364dbc0c89",
      "assetIds": [
        "55464657044963196816950587289035428064568320970692304673817341489687656669185",
        "55464657044963196816950587289035428064568320970692304673817341489687665059844",
        "55464657044963196816950587289035428064568320970692304673817341489687665059840"
      ]
    },
    {
      "x": 386,
      "y": 298,
      "size": 1,
      "price": "4683000000000000000000",
      "reserved": "",
      "salt": "0xab8372e55cf67b819e42339baf9eaa608d2c9deafc09739a7537107def2a38b5",
      "assetIds": [
        "55464657044963196816950587289035428064568320970692304673817341489687656669184",
        "55464657044963196816950587289035428064568320970692304673817341489687665059843",
        "55464657044963196816950587289035428064568320970692304673817341489687665059840"
      ]
    },
    {
      "x": 386,
      "y": 299,
      "size": 1,
      "price": "4683000000000000000000",
      "reserved": "",
      "salt": "0x7284d631f7848a0494bc16632a7adb520dcc7b9b82598d331c94c077dbca3ebd",
      "assetIds": [
        "55464657044963196816950587289035428064568320970692304673817341489687656669186",
        "55464657044963196816950587289035428064568320970692304673817341489687665059844",
        "55464657044963196816950587289035428064568320970692304673817341489687665059841"
      ]
    },
    {
      "x": 387,
      "y": 225,
      "size": 1,
      "price": "4683000000000000000000",
      "reserved": "",
      "salt": "0x3f9e138c09927ce5ef2629d08f49a0e9aeaa3f800820d0ecf83b1e995a5e610b",
      "assetIds": [
        "55464657044963196816950587289035428064568320970692304673817341489687656669186",
        "55464657044963196816950587289035428064568320970692304673817341489687665059842",
        "55464657044963196816950587289035428064568320970692304673817341489687665059841"
      ]
    },
    {
      "x": 387,
      "y": 226,
      "size": 1,
      "price": "4683000000000000000000",
      "reserved": "",
      "salt": "0xf7d6f5dfd01fbfb7f33584be9deb58dcd154f2e6ddc53f9ee1a771c3e82aad95",
      "assetIds": [
        "55464657044963196816950587289035428064568320970692304673817341489687656669184",
        "55464657044963196816950587289035428064568320970692304673817341489687665059844",
        "55464657044963196816950587289035428064568320970692304673817341489687665059840"
      ]
    },
    {
      "x": 387,
      "y": 227,
      "size": 1,
      "price": "4683000000000000000000",
      "reserved": "",
      "salt": "0xb5e68bf59be855ea6355eadd8b4622fe6bac1bdfa7ffe128caff2aca23f3a991",
      "assetIds": [
        "55464657044963196816950587289035428064568320970692304673817341489687656669185",
        "55464657044963196816950587289035428064568320970692304673817341489687665059842",
        "55464657044963196816950587289035428064568320970692304673817341489687665059840"
      ]
    },
    {
      "x": 387,
      "y": 228,
      "size": 1,
      "price": "4683000000000000000000",
      "reserved": "",
      "salt": "0xd225040d1e32b6ec94871b091d521ee4cec1f64fb20d8d5e611a8a78828e4dd2",
      "assetIds": [
        "55464657044963196816950587289035428064568320970692304673817341489687656669185",
        "55464657044963196816950587289035428064568320970692304673817341489687665059843",
        "55464657044963196816950587289035428064568320970692304673817341489687665059840"
      ]
    },
    {
      "x": 387,
      "y": 229,
      "size": 1,
      "price": "4683000000000000000000",
      "reserved": "",
      "salt": "0x5549fbc18fb64ecea54129a8f9bba21aa78dc43eea5a6970da47c5afa11d96a0",
      "assetIds": [
        "55464657044963196816950587289035428064568320970692304673817341489687656669187",
        "55464657044963196816950587289035428064568320970692304673817341489687665059843",
        "55464657044963196816950587289035428064568320970692304673817341489687665059841"
      ]
    },
    {
      "x": 387,
      "y": 230,
      "size": 1,
      "price": "4683000000000000000000",
      "reserved": "",
      "salt": "0xecf5725be848581ab998904f40a28d09afdf73f7103f389acd525bca83673918",
      "assetIds": [
        "55464657044963196816950587289035428064568320970692304673817341489687656669187",
        "55464657044963196816950587289035428064568320970692304673817341489687665059844",
        "55464657044963196816950587289035428064568320970692304673817341489687665059841"
      ]
    },
    {
      "x": 387,
      "y": 231,
      "size": 1,
      "price": "4683000000000000000000",
      "reserved": "",
      "salt": "0x64b34b04dc846104891d0d0fa2046cd67c890f64dcd1e3b14e97b4301b080f71",
      "assetIds": [
        "55464657044963196816950587289035428064568320970692304673817341489687656669187",
        "55464657044963196816950587289035428064568320970692304673817341489687665059844",
        "55464657044963196816950587289035428064568320970692304673817341489687665059841"
      ]
    },
    {
      "x": 387,
      "y": 232,
      "size": 1,
      "price": "4683000000000000000000",
      "reserved": "",
      "salt": "0x914cfef7b3ae9c5979e9d3cc858433c75b15c19f050a129ce6a06460956ce7c0",
      "assetIds": [
        "55464657044963196816950587289035428064568320970692304673817341489687656669187",
        "55464657044963196816950587289035428064568320970692304673817341489687665059842",
        "55464657044963196816950587289035428064568320970692304673817341489687665059841"
      ]
    },
    {
      "x": 387,
      "y": 233,
      "size": 1,
      "price": "4683000000000000000000",
      "reserved": "",
      "salt": "0xf698e909cdce581a5290980fbf63057e83ba5e3d8fa6bb4260f0aaa9c5d7b609",
      "assetIds": [
        "55464657044963196816950587289035428064568320970692304673817341489687656669185",
        "55464657044963196816950587289035428064568320970692304673817341489687665059843",
        "55464657044963196816950587289035428064568320970692304673817341489687665059840"
      ]
    },
    {
      "x": 387,
      "y": 234,
      "size": 1,
      "price": "4683000000000000000000",
      "reserved": "",
      "salt": "0x0f86866d519880351ecf09223f09d184e30e67dbaedfd3cc03b1eb5290fc088b",
      "assetIds": [
        "55464657044963196816950587289035428064568320970692304673817341489687656669184",
        "55464657044963196816950587289035428064568320970692304673817341489687665059843",
        "55464657044963196816950587289035428064568320970692304673817341489687665059840"
      ]
    },
    {
      "x": 387,
      "y": 235,
      "size": 1,
      "price": "4683000000000000000000",
      "reserved": "",
      "salt": "0x23b25945151f8c8da4842bad2fe84f656c986e0e483c44f2416ff3ac53627b60",
      "assetIds": [
        "55464657044963196816950587289035428064568320970692304673817341489687656669184",
        "55464657044963196816950587289035428064568320970692304673817341489687665059843",
        "55464657044963196816950587289035428064568320970692304673817341489687665059840"
      ]
    },
    {
      "x": 387,
      "y": 236,
      "size": 1,
      "price": "4683000000000000000000",
      "reserved": "",
      "salt": "0x5a08dc72636eddab878c7c2266d64ff9f66432c36de29774b2391a2593381ca4",
      "assetIds": [
        "55464657044963196816950587289035428064568320970692304673817341489687656669184",
        "55464657044963196816950587289035428064568320970692304673817341489687665059844",
        "55464657044963196816950587289035428064568320970692304673817341489687665059840"
      ]
    },
    {
      "x": 387,
      "y": 237,
      "size": 1,
      "price": "4683000000000000000000",
      "reserved": "",
      "salt": "0xeb991dbee4a8ae3b53781b4091b5e77a7a376d70cbea796878186c2b741afc1b",
      "assetIds": [
        "55464657044963196816950587289035428064568320970692304673817341489687656669185",
        "55464657044963196816950587289035428064568320970692304673817341489687665059842",
        "55464657044963196816950587289035428064568320970692304673817341489687665059840"
      ]
    },
    {
      "x": 387,
      "y": 238,
      "size": 1,
      "price": "4683000000000000000000",
      "reserved": "",
      "salt": "0x74ea3165912d146ae42fb0f65b7c0b0d3a0f442a640c458871bcff468a38bae7",
      "assetIds": [
        "55464657044963196816950587289035428064568320970692304673817341489687656669184",
        "55464657044963196816950587289035428064568320970692304673817341489687665059844",
        "55464657044963196816950587289035428064568320970692304673817341489687665059840"
      ]
    },
    {
      "x": 387,
      "y": 239,
      "size": 1,
      "price": "4683000000000000000000",
      "reserved": "",
      "salt": "0xc2395f37b695ee113d9cd7baf1338c4d9a58b7601f25ceb88239d134ead66a30",
      "assetIds": [
        "55464657044963196816950587289035428064568320970692304673817341489687656669187",
        "55464657044963196816950587289035428064568320970692304673817341489687665059844",
        "55464657044963196816950587289035428064568320970692304673817341489687665059841"
      ]
    },
    {
      "x": 387,
      "y": 252,
      "size": 1,
      "price": "4683000000000000000000",
      "reserved": "",
      "salt": "0x87a2fe4052687c26470a4d2550b9c20f7b671ee753fbbd4ee8f59a4344fe0641",
      "assetIds": [
        "55464657044963196816950587289035428064568320970692304673817341489687656669185",
        "55464657044963196816950587289035428064568320970692304673817341489687665059842",
        "55464657044963196816950587289035428064568320970692304673817341489687665059840"
      ]
    },
    {
      "x": 387,
      "y": 253,
      "size": 1,
      "price": "4683000000000000000000",
      "reserved": "",
      "salt": "0xdf043ee30d268f5843dd02ecface74aadbaec89222501b0f29755a0dfe3a4643",
      "assetIds": [
        "55464657044963196816950587289035428064568320970692304673817341489687656669185",
        "55464657044963196816950587289035428064568320970692304673817341489687665059842",
        "55464657044963196816950587289035428064568320970692304673817341489687665059840"
      ]
    },
    {
      "x": 387,
      "y": 254,
      "size": 1,
      "price": "4683000000000000000000",
      "reserved": "",
      "salt": "0xaffa77612403f816c6c6f381d096edffd4f51ada66c8ad280a9854c5bd737842",
      "assetIds": [
        "55464657044963196816950587289035428064568320970692304673817341489687656669185",
        "55464657044963196816950587289035428064568320970692304673817341489687665059842",
        "55464657044963196816950587289035428064568320970692304673817341489687665059840"
      ]
    },
    {
      "x": 387,
      "y": 255,
      "size": 1,
      "price": "4683000000000000000000",
      "reserved": "",
      "salt": "0x47089e498015c3e8fb95d6a76d3c6a7606ac39f5e939b5de2241011dbaac4bfd",
      "assetIds": [
        "55464657044963196816950587289035428064568320970692304673817341489687656669184",
        "55464657044963196816950587289035428064568320970692304673817341489687665059843",
        "55464657044963196816950587289035428064568320970692304673817341489687665059840"
      ]
    },
    {
      "x": 387,
      "y": 256,
      "size": 1,
      "price": "4683000000000000000000",
      "reserved": "",
      "salt": "0xa83b0ff63a850d65946c82322401e26b205ba087ff8168b8a630b5a200c67167",
      "assetIds": [
        "55464657044963196816950587289035428064568320970692304673817341489687656669185",
        "55464657044963196816950587289035428064568320970692304673817341489687665059843",
        "55464657044963196816950587289035428064568320970692304673817341489687665059840"
      ]
    },
    {
      "x": 387,
      "y": 257,
      "size": 1,
      "price": "4683000000000000000000",
      "reserved": "",
      "salt": "0xcdbc5539b5ac7d49f2153fe24f6232140cf7d5914c6fb2de190610aa2404bcbc",
      "assetIds": [
        "55464657044963196816950587289035428064568320970692304673817341489687656669184",
        "55464657044963196816950587289035428064568320970692304673817341489687665059842",
        "55464657044963196816950587289035428064568320970692304673817341489687665059840"
      ]
    },
    {
      "x": 387,
      "y": 294,
      "size": 1,
      "price": "4683000000000000000000",
      "reserved": "",
      "salt": "0xbc2b44113ff6cfefdb8705e3f7297610c87b78d9241937c1b3f522f83ff72712",
      "assetIds": [
        "55464657044963196816950587289035428064568320970692304673817341489687656669185",
        "55464657044963196816950587289035428064568320970692304673817341489687665059844",
        "55464657044963196816950587289035428064568320970692304673817341489687665059840"
      ]
    },
    {
      "x": 387,
      "y": 295,
      "size": 1,
      "price": "4683000000000000000000",
      "reserved": "",
      "salt": "0x10730e9cc66cf9f33b882e4d5b663d4c8fc891636747ee083d2d1a1d4816a1e7",
      "assetIds": [
        "55464657044963196816950587289035428064568320970692304673817341489687656669187",
        "55464657044963196816950587289035428064568320970692304673817341489687665059843",
        "55464657044963196816950587289035428064568320970692304673817341489687665059841"
      ]
    },
    {
      "x": 387,
      "y": 296,
      "size": 1,
      "price": "4683000000000000000000",
      "reserved": "",
      "salt": "0x0434847e026fc06f459667a971b0c0e72b36dceab4db96e27a0e5557d20438b4",
      "assetIds": [
        "55464657044963196816950587289035428064568320970692304673817341489687656669187",
        "55464657044963196816950587289035428064568320970692304673817341489687665059843",
        "55464657044963196816950587289035428064568320970692304673817341489687665059841"
      ]
    },
    {
      "x": 387,
      "y": 297,
      "size": 1,
      "price": "4683000000000000000000",
      "reserved": "",
      "salt": "0x76c6cc607efca465f58bef1f67d01b0499848144f7d01d0cfdf6a47ad0ff9204",
      "assetIds": [
        "55464657044963196816950587289035428064568320970692304673817341489687656669186",
        "55464657044963196816950587289035428064568320970692304673817341489687665059843",
        "55464657044963196816950587289035428064568320970692304673817341489687665059841"
      ]
    },
    {
      "x": 387,
      "y": 298,
      "size": 1,
      "price": "4683000000000000000000",
      "reserved": "",
      "salt": "0xec3087c32e41a07590f03c02981012875594b57db5ed2615ad5f84b17c119b05",
      "assetIds": [
        "55464657044963196816950587289035428064568320970692304673817341489687656669184",
        "55464657044963196816950587289035428064568320970692304673817341489687665059842",
        "55464657044963196816950587289035428064568320970692304673817341489687665059840"
      ]
    },
    {
      "x": 387,
      "y": 299,
      "size": 1,
      "price": "4683000000000000000000",
      "reserved": "",
      "salt": "0xb10d269b7838acfd71d7a4208042407aa08deda14fcca75fd960c6636dc74f0b",
      "assetIds": [
        "55464657044963196816950587289035428064568320970692304673817341489687656669186",
        "55464657044963196816950587289035428064568320970692304673817341489687665059844",
        "55464657044963196816950587289035428064568320970692304673817341489687665059841"
      ]
    },
    {
      "x": 387,
      "y": 306,
      "size": 1,
      "price": "4683000000000000000000",
      "reserved": "",
      "salt": "0x5425210af2803648ed75281b3243fce6ce621df4f5aa5d02764dc03c9f99ff15",
      "assetIds": [
        "55464657044963196816950587289035428064568320970692304673817341489687656669184",
        "55464657044963196816950587289035428064568320970692304673817341489687665059844",
        "55464657044963196816950587289035428064568320970692304673817341489687665059840"
      ]
    },
    {
      "x": 387,
      "y": 307,
      "size": 1,
      "price": "4683000000000000000000",
      "reserved": "",
      "salt": "0x74fe72a16103d5e558925e7a15a4ffee8a79fa5c1d771ea26d7282f034ea3544",
      "assetIds": [
        "55464657044963196816950587289035428064568320970692304673817341489687656669184",
        "55464657044963196816950587289035428064568320970692304673817341489687665059842",
        "55464657044963196816950587289035428064568320970692304673817341489687665059840"
      ]
    },
    {
      "x": 387,
      "y": 308,
      "size": 1,
      "price": "4683000000000000000000",
      "reserved": "",
      "salt": "0x2af2b3c55f9665366cabfdb001b7c3f7ac732583fa3e93efe1d24cb938bf188b",
      "assetIds": [
        "55464657044963196816950587289035428064568320970692304673817341489687656669184",
        "55464657044963196816950587289035428064568320970692304673817341489687665059843",
        "55464657044963196816950587289035428064568320970692304673817341489687665059840"
      ]
    },
    {
      "x": 387,
      "y": 309,
      "size": 1,
      "price": "4683000000000000000000",
      "reserved": "",
      "salt": "0x1afa74120ad3fe0ea40dc3527e94282f1412b1e5980c737b2d8804e529facf11",
      "assetIds": [
        "55464657044963196816950587289035428064568320970692304673817341489687656669187",
        "55464657044963196816950587289035428064568320970692304673817341489687665059844",
        "55464657044963196816950587289035428064568320970692304673817341489687665059841"
      ]
    },
    {
      "x": 387,
      "y": 310,
      "size": 1,
      "price": "4683000000000000000000",
      "reserved": "",
      "salt": "0x0b5e850955f34d727ff751b68ffcbc97ce58631cdaf23c92fd4c38adfa3fafad",
      "assetIds": [
        "55464657044963196816950587289035428064568320970692304673817341489687656669187",
        "55464657044963196816950587289035428064568320970692304673817341489687665059843",
        "55464657044963196816950587289035428064568320970692304673817341489687665059841"
      ]
    },
    {
      "x": 387,
      "y": 311,
      "size": 1,
      "price": "4683000000000000000000",
      "reserved": "",
      "salt": "0xd885a0e906a1d65983f8da6aeac786a4fd448ff40b97a88401ebca204e621e29",
      "assetIds": [
        "55464657044963196816950587289035428064568320970692304673817341489687656669187",
        "55464657044963196816950587289035428064568320970692304673817341489687665059844",
        "55464657044963196816950587289035428064568320970692304673817341489687665059841"
      ]
    },
    {
      "x": 388,
      "y": 225,
      "size": 1,
      "price": "4683000000000000000000",
      "reserved": "",
      "salt": "0x1ce2aa274d32eee6fe886731b1823b190d7f1e146ca2d2534d4d1a4193247edc",
      "assetIds": [
        "55464657044963196816950587289035428064568320970692304673817341489687656669187",
        "55464657044963196816950587289035428064568320970692304673817341489687665059844",
        "55464657044963196816950587289035428064568320970692304673817341489687665059841"
      ]
    },
    {
      "x": 388,
      "y": 226,
      "size": 1,
      "price": "4683000000000000000000",
      "reserved": "",
      "salt": "0xdf487b2925af06ab8ed4d8ac1c7a2e85b6aa16f58b24f2d8ad586c5dd877eb5d",
      "assetIds": [
        "55464657044963196816950587289035428064568320970692304673817341489687656669185",
        "55464657044963196816950587289035428064568320970692304673817341489687665059842",
        "55464657044963196816950587289035428064568320970692304673817341489687665059840"
      ]
    },
    {
      "x": 388,
      "y": 227,
      "size": 1,
      "price": "4683000000000000000000",
      "reserved": "",
      "salt": "0xc702813363537ad9c93b47231c2e8649da42b6af3326242cfd90989eadb0cc28",
      "assetIds": [
        "55464657044963196816950587289035428064568320970692304673817341489687656669185",
        "55464657044963196816950587289035428064568320970692304673817341489687665059843",
        "55464657044963196816950587289035428064568320970692304673817341489687665059840"
      ]
    },
    {
      "x": 388,
      "y": 228,
      "size": 1,
      "price": "4683000000000000000000",
      "reserved": "",
      "salt": "0xe0dee4f7e3f7e17f0202da431c8861da3a87574d93420109e41b46c5b422c012",
      "assetIds": [
        "55464657044963196816950587289035428064568320970692304673817341489687656669186",
        "55464657044963196816950587289035428064568320970692304673817341489687665059842",
        "55464657044963196816950587289035428064568320970692304673817341489687665059841"
      ]
    },
    {
      "x": 388,
      "y": 229,
      "size": 1,
      "price": "4683000000000000000000",
      "reserved": "",
      "salt": "0x1645383a520dc3ce331b2f4b7312ff9615b54c3d35afb6f51d3fd1cbad58023e",
      "assetIds": [
        "55464657044963196816950587289035428064568320970692304673817341489687656669187",
        "55464657044963196816950587289035428064568320970692304673817341489687665059843",
        "55464657044963196816950587289035428064568320970692304673817341489687665059841"
      ]
    },
    {
      "x": 388,
      "y": 230,
      "size": 1,
      "price": "4683000000000000000000",
      "reserved": "",
      "salt": "0x0ea005f67973d4eb4fcb70a93948056a13c4d5ea11bbab9024e54b28a432f8b6",
      "assetIds": [
        "55464657044963196816950587289035428064568320970692304673817341489687656669186",
        "55464657044963196816950587289035428064568320970692304673817341489687665059843",
        "55464657044963196816950587289035428064568320970692304673817341489687665059841"
      ]
    },
    {
      "x": 388,
      "y": 231,
      "size": 1,
      "price": "4683000000000000000000",
      "reserved": "",
      "salt": "0xef4b4f63f3d0615d74c8d080d4e9550489715875ed6c3350b4dc8311f2231fa0",
      "assetIds": [
        "55464657044963196816950587289035428064568320970692304673817341489687656669184",
        "55464657044963196816950587289035428064568320970692304673817341489687665059842",
        "55464657044963196816950587289035428064568320970692304673817341489687665059840"
      ]
    },
    {
      "x": 388,
      "y": 232,
      "size": 1,
      "price": "4683000000000000000000",
      "reserved": "",
      "salt": "0xc2d1e9b3ba77af45af863c3441d53a5e19183147e8d8bc1e508a353a5573a499",
      "assetIds": [
        "55464657044963196816950587289035428064568320970692304673817341489687656669186",
        "55464657044963196816950587289035428064568320970692304673817341489687665059842",
        "55464657044963196816950587289035428064568320970692304673817341489687665059841"
      ]
    },
    {
      "x": 388,
      "y": 233,
      "size": 1,
      "price": "4683000000000000000000",
      "reserved": "",
      "salt": "0x3911f6b70c9b78210bb793b35cc9355ce2891bf404e44ce8ca1fb32418ee06ba",
      "assetIds": [
        "55464657044963196816950587289035428064568320970692304673817341489687656669187",
        "55464657044963196816950587289035428064568320970692304673817341489687665059842",
        "55464657044963196816950587289035428064568320970692304673817341489687665059841"
      ]
    },
    {
      "x": 388,
      "y": 234,
      "size": 1,
      "price": "4683000000000000000000",
      "reserved": "",
      "salt": "0x64f0749505a029363bd21ba344c8f3eb7817e4596ab6b0cfaa9f25e350445a4e",
      "assetIds": [
        "55464657044963196816950587289035428064568320970692304673817341489687656669186",
        "55464657044963196816950587289035428064568320970692304673817341489687665059843",
        "55464657044963196816950587289035428064568320970692304673817341489687665059841"
      ]
    },
    {
      "x": 388,
      "y": 235,
      "size": 1,
      "price": "4683000000000000000000",
      "reserved": "",
      "salt": "0x3b0fbbe9adfce9e3a4f66c0b31edb61ee615627f75a029efc37e37bb5e958957",
      "assetIds": [
        "55464657044963196816950587289035428064568320970692304673817341489687656669184",
        "55464657044963196816950587289035428064568320970692304673817341489687665059843",
        "55464657044963196816950587289035428064568320970692304673817341489687665059840"
      ]
    },
    {
      "x": 388,
      "y": 236,
      "size": 1,
      "price": "4683000000000000000000",
      "reserved": "",
      "salt": "0x2fdf51216b778e96137e9ba1a45de41d5347bc49b82bdd13495e506fa3a2bc0e",
      "assetIds": [
        "55464657044963196816950587289035428064568320970692304673817341489687656669184",
        "55464657044963196816950587289035428064568320970692304673817341489687665059842",
        "55464657044963196816950587289035428064568320970692304673817341489687665059840"
      ]
    },
    {
      "x": 388,
      "y": 237,
      "size": 1,
      "price": "4683000000000000000000",
      "reserved": "",
      "salt": "0x7b54e6613fa66aee7f6a37e0da5d63be9322ef708c6dcb788b0374b17f9696ff",
      "assetIds": [
        "55464657044963196816950587289035428064568320970692304673817341489687656669187",
        "55464657044963196816950587289035428064568320970692304673817341489687665059842",
        "55464657044963196816950587289035428064568320970692304673817341489687665059841"
      ]
    },
    {
      "x": 388,
      "y": 238,
      "size": 1,
      "price": "4683000000000000000000",
      "reserved": "",
      "salt": "0xe7b8631414b040571fcaaed14b30e4a88e0e0978f540008f24cc0d17852a2f4f",
      "assetIds": [
        "55464657044963196816950587289035428064568320970692304673817341489687656669187",
        "55464657044963196816950587289035428064568320970692304673817341489687665059843",
        "55464657044963196816950587289035428064568320970692304673817341489687665059841"
      ]
    },
    {
      "x": 388,
      "y": 239,
      "size": 1,
      "price": "4683000000000000000000",
      "reserved": "",
      "salt": "0x415d590f699d5cb4652665b780f8c8988d805e5cb7991a0cb651b0b238d46906",
      "assetIds": [
        "55464657044963196816950587289035428064568320970692304673817341489687656669187",
        "55464657044963196816950587289035428064568320970692304673817341489687665059844",
        "55464657044963196816950587289035428064568320970692304673817341489687665059841"
      ]
    },
    {
      "x": 388,
      "y": 252,
      "size": 1,
      "price": "4683000000000000000000",
      "reserved": "",
      "salt": "0x6cedeb4fe57b8d9442311863e965d9ff2543573cb377fa29915a0270704e327f",
      "assetIds": [
        "55464657044963196816950587289035428064568320970692304673817341489687656669184",
        "55464657044963196816950587289035428064568320970692304673817341489687665059843",
        "55464657044963196816950587289035428064568320970692304673817341489687665059840"
      ]
    },
    {
      "x": 388,
      "y": 253,
      "size": 1,
      "price": "4683000000000000000000",
      "reserved": "",
      "salt": "0x071c4afcff1e62905841fb1e729e42ac9697df0f46356d31a3feca9ddfa1b8cd",
      "assetIds": [
        "55464657044963196816950587289035428064568320970692304673817341489687656669184",
        "55464657044963196816950587289035428064568320970692304673817341489687665059843",
        "55464657044963196816950587289035428064568320970692304673817341489687665059840"
      ]
    },
    {
      "x": 388,
      "y": 254,
      "size": 1,
      "price": "4683000000000000000000",
      "reserved": "",
      "salt": "0xbaacd91d2b369191e5daba2ff3c1791084b3caf62ca3c8f7b5e2c58a515f8761",
      "assetIds": [
        "55464657044963196816950587289035428064568320970692304673817341489687656669184",
        "55464657044963196816950587289035428064568320970692304673817341489687665059842",
        "55464657044963196816950587289035428064568320970692304673817341489687665059840"
      ]
    },
    {
      "x": 388,
      "y": 255,
      "size": 1,
      "price": "4683000000000000000000",
      "reserved": "",
      "salt": "0x30e9a95be0cf95d12ff7174a9230dd7a5779ef5de148877bf84efb4b2569a7cf",
      "assetIds": [
        "55464657044963196816950587289035428064568320970692304673817341489687656669185",
        "55464657044963196816950587289035428064568320970692304673817341489687665059844",
        "55464657044963196816950587289035428064568320970692304673817341489687665059840"
      ]
    },
    {
      "x": 388,
      "y": 256,
      "size": 1,
      "price": "4683000000000000000000",
      "reserved": "",
      "salt": "0x2e9b5df5fc8b9c4b0ba1f540889eefeb0755a0af3cc65df00d94f7a2a59f9d7d",
      "assetIds": [
        "55464657044963196816950587289035428064568320970692304673817341489687656669186",
        "55464657044963196816950587289035428064568320970692304673817341489687665059842",
        "55464657044963196816950587289035428064568320970692304673817341489687665059841"
      ]
    },
    {
      "x": 388,
      "y": 257,
      "size": 1,
      "price": "4683000000000000000000",
      "reserved": "",
      "salt": "0xf18a17827cc1ec83bf5445b76a26496d5745ef9ba0be2f6f388dfa893d10f803",
      "assetIds": [
        "55464657044963196816950587289035428064568320970692304673817341489687656669186",
        "55464657044963196816950587289035428064568320970692304673817341489687665059842",
        "55464657044963196816950587289035428064568320970692304673817341489687665059841"
      ]
    },
    {
      "x": 388,
      "y": 294,
      "size": 1,
      "price": "4683000000000000000000",
      "reserved": "",
      "salt": "0x468992d8342bee18b1b2b01055fcab9a7172cf97afd5a0eb9dace8b14438b6b1",
      "assetIds": [
        "55464657044963196816950587289035428064568320970692304673817341489687656669186",
        "55464657044963196816950587289035428064568320970692304673817341489687665059844",
        "55464657044963196816950587289035428064568320970692304673817341489687665059841"
      ]
    },
    {
      "x": 388,
      "y": 295,
      "size": 1,
      "price": "4683000000000000000000",
      "reserved": "",
      "salt": "0xcd1d7948ba450647bb77a875637c37aca1b2420ebb9a80b7db7de4006b0a662a",
      "assetIds": [
        "55464657044963196816950587289035428064568320970692304673817341489687656669186",
        "55464657044963196816950587289035428064568320970692304673817341489687665059842",
        "55464657044963196816950587289035428064568320970692304673817341489687665059841"
      ]
    },
    {
      "x": 388,
      "y": 296,
      "size": 1,
      "price": "4683000000000000000000",
      "reserved": "",
      "salt": "0x16eb400af9c44ced100cfd8fa5489c630b0710181ea4d67ff8e005bf309b1177",
      "assetIds": [
        "55464657044963196816950587289035428064568320970692304673817341489687656669186",
        "55464657044963196816950587289035428064568320970692304673817341489687665059843",
        "55464657044963196816950587289035428064568320970692304673817341489687665059841"
      ]
    },
    {
      "x": 388,
      "y": 297,
      "size": 1,
      "price": "4683000000000000000000",
      "reserved": "",
      "salt": "0xee6d9d31af3bade9ad01578dd0d5ca8a80e173d18bb3c64616406cf128a24d29",
      "assetIds": [
        "55464657044963196816950587289035428064568320970692304673817341489687656669184",
        "55464657044963196816950587289035428064568320970692304673817341489687665059844",
        "55464657044963196816950587289035428064568320970692304673817341489687665059840"
      ]
    },
    {
      "x": 388,
      "y": 298,
      "size": 1,
      "price": "4683000000000000000000",
      "reserved": "",
      "salt": "0x5ebeba0ccfc24e1bede7e33e555e4ac8fa219284cd8c0ad4807a4ecda96a2550",
      "assetIds": [
        "55464657044963196816950587289035428064568320970692304673817341489687656669186",
        "55464657044963196816950587289035428064568320970692304673817341489687665059844",
        "55464657044963196816950587289035428064568320970692304673817341489687665059841"
      ]
    },
    {
      "x": 388,
      "y": 299,
      "size": 1,
      "price": "1011000000000000000000",
      "reserved": "0x7a9fe22691c811ea339d9b73150e6911a5343dca",
      "salt": "0xd2bbbec95f7d93207bf72953a9d6c6ff31541dc4950599e2d8057d8791e37071",
      "assetIds": []
    },
    {
      "x": 388,
      "y": 306,
      "size": 1,
      "price": "4683000000000000000000",
      "reserved": "",
      "salt": "0x767832fcfeea2e9889eb6f94514a08126169254e158492beb43b80eeb4f44454",
      "assetIds": [
        "55464657044963196816950587289035428064568320970692304673817341489687656669184",
        "55464657044963196816950587289035428064568320970692304673817341489687665059843",
        "55464657044963196816950587289035428064568320970692304673817341489687665059840"
      ]
    },
    {
      "x": 388,
      "y": 307,
      "size": 1,
      "price": "4683000000000000000000",
      "reserved": "",
      "salt": "0x76efdb9e7cbdba1d3efb4a193c6a0c3ab6f2cc6a7f77301f03b1d0b950030f87",
      "assetIds": [
        "55464657044963196816950587289035428064568320970692304673817341489687656669187",
        "55464657044963196816950587289035428064568320970692304673817341489687665059844",
        "55464657044963196816950587289035428064568320970692304673817341489687665059841"
      ]
    },
    {
      "x": 388,
      "y": 308,
      "size": 1,
      "price": "4683000000000000000000",
      "reserved": "",
      "salt": "0x3dd6a1bf1f91ca1285ca53007ef228df2b9756156b0d921761308e865009f4e6",
      "assetIds": [
        "55464657044963196816950587289035428064568320970692304673817341489687656669184",
        "55464657044963196816950587289035428064568320970692304673817341489687665059843",
        "55464657044963196816950587289035428064568320970692304673817341489687665059840"
      ]
    },
    {
      "x": 388,
      "y": 309,
      "size": 1,
      "price": "4683000000000000000000",
      "reserved": "",
      "salt": "0xb90bcb8e181c9349150bdc01df082bd3993ee69e7e545d569b26bf1619a2ec66",
      "assetIds": [
        "55464657044963196816950587289035428064568320970692304673817341489687656669187",
        "55464657044963196816950587289035428064568320970692304673817341489687665059842",
        "55464657044963196816950587289035428064568320970692304673817341489687665059841"
      ]
    },
    {
      "x": 388,
      "y": 310,
      "size": 1,
      "price": "4683000000000000000000",
      "reserved": "",
      "salt": "0x96c968a876f074ff6f849cf1c194a0624a86d7b9a2cec534a2837ee4c5c4c105",
      "assetIds": [
        "55464657044963196816950587289035428064568320970692304673817341489687656669186",
        "55464657044963196816950587289035428064568320970692304673817341489687665059844",
        "55464657044963196816950587289035428064568320970692304673817341489687665059841"
      ]
    },
    {
      "x": 388,
      "y": 311,
      "size": 1,
      "price": "4683000000000000000000",
      "reserved": "",
      "salt": "0x6384823890d110efc09bed816ed27dd1a845ed92d20e7636ca70a0bf9463b788",
      "assetIds": [
        "55464657044963196816950587289035428064568320970692304673817341489687656669187",
        "55464657044963196816950587289035428064568320970692304673817341489687665059843",
        "55464657044963196816950587289035428064568320970692304673817341489687665059841"
      ]
    },
    {
      "x": 389,
      "y": 225,
      "size": 1,
      "price": "4683000000000000000000",
      "reserved": "",
      "salt": "0x6f916c90155dac23d8d00ee0e64cf8393ce54c41698df9d50a6660b2e59714d9",
      "assetIds": [
        "55464657044963196816950587289035428064568320970692304673817341489687656669187",
        "55464657044963196816950587289035428064568320970692304673817341489687665059843",
        "55464657044963196816950587289035428064568320970692304673817341489687665059841"
      ]
    },
    {
      "x": 389,
      "y": 226,
      "size": 1,
      "price": "4683000000000000000000",
      "reserved": "",
      "salt": "0x273c076bffbc649c76c519dfc3cb53d5c7de220b6091cd5cd6b37a0347dbb578",
      "assetIds": [
        "55464657044963196816950587289035428064568320970692304673817341489687656669185",
        "55464657044963196816950587289035428064568320970692304673817341489687665059842",
        "55464657044963196816950587289035428064568320970692304673817341489687665059840"
      ]
    },
    {
      "x": 389,
      "y": 227,
      "size": 1,
      "price": "4683000000000000000000",
      "reserved": "",
      "salt": "0xe741eabe06f90a077ef139b8e02896a41ff6565080c800db27c730abd2f511ce",
      "assetIds": [
        "55464657044963196816950587289035428064568320970692304673817341489687656669186",
        "55464657044963196816950587289035428064568320970692304673817341489687665059844",
        "55464657044963196816950587289035428064568320970692304673817341489687665059841"
      ]
    },
    {
      "x": 389,
      "y": 228,
      "size": 1,
      "price": "4683000000000000000000",
      "reserved": "",
      "salt": "0xe4eec1af8dd34ec53502d54b42f86d2b953c119db0dac4e70e9447d118d368bb",
      "assetIds": [
        "55464657044963196816950587289035428064568320970692304673817341489687656669184",
        "55464657044963196816950587289035428064568320970692304673817341489687665059844",
        "55464657044963196816950587289035428064568320970692304673817341489687665059840"
      ]
    },
    {
      "x": 389,
      "y": 229,
      "size": 1,
      "price": "4683000000000000000000",
      "reserved": "",
      "salt": "0xba3289c1cb39da1872fd9b5dfb693d0b6ddd562b541cb65540a99cde6a6a214b",
      "assetIds": [
        "55464657044963196816950587289035428064568320970692304673817341489687656669184",
        "55464657044963196816950587289035428064568320970692304673817341489687665059844",
        "55464657044963196816950587289035428064568320970692304673817341489687665059840"
      ]
    },
    {
      "x": 389,
      "y": 230,
      "size": 1,
      "price": "4683000000000000000000",
      "reserved": "",
      "salt": "0x88b27840bb5bc34087914cf3a6d6cfb269e2b9792501c1e84e40d2fb8f1c6336",
      "assetIds": [
        "55464657044963196816950587289035428064568320970692304673817341489687656669184",
        "55464657044963196816950587289035428064568320970692304673817341489687665059844",
        "55464657044963196816950587289035428064568320970692304673817341489687665059840"
      ]
    },
    {
      "x": 389,
      "y": 231,
      "size": 1,
      "price": "4683000000000000000000",
      "reserved": "",
      "salt": "0xebe31fb35578c9a488377fa013f442e2d6fedf55fcd339cb1acef5514511f002",
      "assetIds": [
        "55464657044963196816950587289035428064568320970692304673817341489687656669186",
        "55464657044963196816950587289035428064568320970692304673817341489687665059844",
        "55464657044963196816950587289035428064568320970692304673817341489687665059841"
      ]
    },
    {
      "x": 389,
      "y": 232,
      "size": 1,
      "price": "4683000000000000000000",
      "reserved": "",
      "salt": "0xf0b01fbb6f8dce5f2800c986f17b5bbdaf8f73f85eaf26729a55e0d8b58ec2e1",
      "assetIds": [
        "55464657044963196816950587289035428064568320970692304673817341489687656669186",
        "55464657044963196816950587289035428064568320970692304673817341489687665059842",
        "55464657044963196816950587289035428064568320970692304673817341489687665059841"
      ]
    },
    {
      "x": 389,
      "y": 233,
      "size": 1,
      "price": "4683000000000000000000",
      "reserved": "",
      "salt": "0x01ff5cdcab0dd7ba347998ea4090eab5a5ea96eaf04d628bcc5241bf5a9a0e54",
      "assetIds": [
        "55464657044963196816950587289035428064568320970692304673817341489687656669185",
        "55464657044963196816950587289035428064568320970692304673817341489687665059842",
        "55464657044963196816950587289035428064568320970692304673817341489687665059840"
      ]
    },
    {
      "x": 389,
      "y": 234,
      "size": 1,
      "price": "4683000000000000000000",
      "reserved": "",
      "salt": "0x1ffca6e0e6760041ceda616efc62268658e7241a6bff8ff60f830a88e511b87b",
      "assetIds": [
        "55464657044963196816950587289035428064568320970692304673817341489687656669185",
        "55464657044963196816950587289035428064568320970692304673817341489687665059842",
        "55464657044963196816950587289035428064568320970692304673817341489687665059840"
      ]
    },
    {
      "x": 389,
      "y": 235,
      "size": 1,
      "price": "4683000000000000000000",
      "reserved": "",
      "salt": "0x07ed86745d857ebfe25f14deb13a39145bfee966bae60108daf139520ba4849b",
      "assetIds": [
        "55464657044963196816950587289035428064568320970692304673817341489687656669187",
        "55464657044963196816950587289035428064568320970692304673817341489687665059844",
        "55464657044963196816950587289035428064568320970692304673817341489687665059841"
      ]
    },
    {
      "x": 389,
      "y": 236,
      "size": 1,
      "price": "4683000000000000000000",
      "reserved": "",
      "salt": "0x1ab76c18abb6ebdc6b9ed6e8f09edfa91bf963bce0c9016df58bf7a0e346e874",
      "assetIds": [
        "55464657044963196816950587289035428064568320970692304673817341489687656669186",
        "55464657044963196816950587289035428064568320970692304673817341489687665059843",
        "55464657044963196816950587289035428064568320970692304673817341489687665059841"
      ]
    },
    {
      "x": 389,
      "y": 237,
      "size": 1,
      "price": "4683000000000000000000",
      "reserved": "",
      "salt": "0x0a6cb90009d8e0ae8478849e17152a62b0e55d9805b69e009e2b449457a16b7c",
      "assetIds": [
        "55464657044963196816950587289035428064568320970692304673817341489687656669187",
        "55464657044963196816950587289035428064568320970692304673817341489687665059844",
        "55464657044963196816950587289035428064568320970692304673817341489687665059841"
      ]
    },
    {
      "x": 389,
      "y": 238,
      "size": 1,
      "price": "4683000000000000000000",
      "reserved": "",
      "salt": "0x34b74fb9b85d9ceb32d8fb82418a04b3ee32021300181657ccffe4de1ccd83e2",
      "assetIds": [
        "55464657044963196816950587289035428064568320970692304673817341489687656669186",
        "55464657044963196816950587289035428064568320970692304673817341489687665059842",
        "55464657044963196816950587289035428064568320970692304673817341489687665059841"
      ]
    },
    {
      "x": 389,
      "y": 239,
      "size": 1,
      "price": "4683000000000000000000",
      "reserved": "",
      "salt": "0x9e9153830d24095d3c94dea0d1011b0fe7ee5c26e170ae5d8e98139751d2dd1a",
      "assetIds": [
        "55464657044963196816950587289035428064568320970692304673817341489687656669185",
        "55464657044963196816950587289035428064568320970692304673817341489687665059843",
        "55464657044963196816950587289035428064568320970692304673817341489687665059840"
      ]
    },
    {
      "x": 389,
      "y": 252,
      "size": 1,
      "price": "4683000000000000000000",
      "reserved": "",
      "salt": "0xcab98d8bd99f9e54a824be09e80b794f72705fb335f53106e71e2f4d6dd1bc75",
      "assetIds": [
        "55464657044963196816950587289035428064568320970692304673817341489687656669187",
        "55464657044963196816950587289035428064568320970692304673817341489687665059843",
        "55464657044963196816950587289035428064568320970692304673817341489687665059841"
      ]
    },
    {
      "x": 389,
      "y": 253,
      "size": 1,
      "price": "4683000000000000000000",
      "reserved": "",
      "salt": "0xc3408def6f386f0153eb5407cef5119d3928558aeb5fc819f09fd5967131cf55",
      "assetIds": [
        "55464657044963196816950587289035428064568320970692304673817341489687656669187",
        "55464657044963196816950587289035428064568320970692304673817341489687665059842",
        "55464657044963196816950587289035428064568320970692304673817341489687665059841"
      ]
    },
    {
      "x": 389,
      "y": 254,
      "size": 1,
      "price": "4683000000000000000000",
      "reserved": "",
      "salt": "0xf4a4275470dfdbeb758f0c9a7a422866c03aa90e410459bdecc0cb3142f2ebd4",
      "assetIds": [
        "55464657044963196816950587289035428064568320970692304673817341489687656669184",
        "55464657044963196816950587289035428064568320970692304673817341489687665059844",
        "55464657044963196816950587289035428064568320970692304673817341489687665059840"
      ]
    },
    {
      "x": 389,
      "y": 255,
      "size": 1,
      "price": "4683000000000000000000",
      "reserved": "",
      "salt": "0xb93832a97c2ac2c63d5dbff294a5035aaef0d1be1b78bae0a8bb956b2f1505f2",
      "assetIds": [
        "55464657044963196816950587289035428064568320970692304673817341489687656669184",
        "55464657044963196816950587289035428064568320970692304673817341489687665059843",
        "55464657044963196816950587289035428064568320970692304673817341489687665059840"
      ]
    },
    {
      "x": 389,
      "y": 256,
      "size": 1,
      "price": "4683000000000000000000",
      "reserved": "",
      "salt": "0x69ea7593ead728602237ec0c87d59c586c0ba47c4554abb5dfd674b9bca3a45b",
      "assetIds": [
        "55464657044963196816950587289035428064568320970692304673817341489687656669185",
        "55464657044963196816950587289035428064568320970692304673817341489687665059842",
        "55464657044963196816950587289035428064568320970692304673817341489687665059840"
      ]
    },
    {
      "x": 389,
      "y": 257,
      "size": 1,
      "price": "4683000000000000000000",
      "reserved": "",
      "salt": "0xa6493c80459c27667bb3f45a77a77a6980bfe2b835035fa33f5f7963fb69af01",
      "assetIds": [
        "55464657044963196816950587289035428064568320970692304673817341489687656669186",
        "55464657044963196816950587289035428064568320970692304673817341489687665059844",
        "55464657044963196816950587289035428064568320970692304673817341489687665059841"
      ]
    },
    {
      "x": 389,
      "y": 294,
      "size": 1,
      "price": "4683000000000000000000",
      "reserved": "",
      "salt": "0x568914aa5adb9abf0679d2ef72e7d18e7a79af4c36ff368d6ff0d94640678f8b",
      "assetIds": [
        "55464657044963196816950587289035428064568320970692304673817341489687656669184",
        "55464657044963196816950587289035428064568320970692304673817341489687665059844",
        "55464657044963196816950587289035428064568320970692304673817341489687665059840"
      ]
    },
    {
      "x": 389,
      "y": 295,
      "size": 1,
      "price": "4683000000000000000000",
      "reserved": "",
      "salt": "0x6eb5a154a665d103e3e7a928aace8dc60d3680f046222e9ffed8b15053b714eb",
      "assetIds": [
        "55464657044963196816950587289035428064568320970692304673817341489687656669186",
        "55464657044963196816950587289035428064568320970692304673817341489687665059842",
        "55464657044963196816950587289035428064568320970692304673817341489687665059841"
      ]
    },
    {
      "x": 389,
      "y": 296,
      "size": 1,
      "price": "4683000000000000000000",
      "reserved": "",
      "salt": "0x2632fb2c705a0d4eadda72d1479932713c434669d8f9cdde821452ce234f1521",
      "assetIds": [
        "55464657044963196816950587289035428064568320970692304673817341489687656669187",
        "55464657044963196816950587289035428064568320970692304673817341489687665059842",
        "55464657044963196816950587289035428064568320970692304673817341489687665059841"
      ]
    },
    {
      "x": 389,
      "y": 297,
      "size": 1,
      "price": "4683000000000000000000",
      "reserved": "",
      "salt": "0xcb11945896f26a3878fe8eef16a4951aec59ab05f1bc861a81430a289eb14344",
      "assetIds": [
        "55464657044963196816950587289035428064568320970692304673817341489687656669184",
        "55464657044963196816950587289035428064568320970692304673817341489687665059844",
        "55464657044963196816950587289035428064568320970692304673817341489687665059840"
      ]
    },
    {
      "x": 389,
      "y": 298,
      "size": 1,
      "price": "4683000000000000000000",
      "reserved": "",
      "salt": "0xcd1bfb71774b4ac1e4dc00fface7eac87d3401bdffa71d6c50ad30df0e5ca9cf",
      "assetIds": [
        "55464657044963196816950587289035428064568320970692304673817341489687656669186",
        "55464657044963196816950587289035428064568320970692304673817341489687665059842",
        "55464657044963196816950587289035428064568320970692304673817341489687665059841"
      ]
    },
    {
      "x": 389,
      "y": 299,
      "size": 1,
      "price": "4683000000000000000000",
      "reserved": "",
      "salt": "0xa2e3fad469521e18acded5e2f6b731a873a95f27f8f01392dbe324f6e299a9ee",
      "assetIds": [
        "55464657044963196816950587289035428064568320970692304673817341489687656669184",
        "55464657044963196816950587289035428064568320970692304673817341489687665059842",
        "55464657044963196816950587289035428064568320970692304673817341489687665059840"
      ]
    },
    {
      "x": 389,
      "y": 306,
      "size": 1,
      "price": "4683000000000000000000",
      "reserved": "",
      "salt": "0x50e3a6c2c04aa279b6c53c93c82921c1e7354756498507a676016a104df35756",
      "assetIds": [
        "55464657044963196816950587289035428064568320970692304673817341489687656669184",
        "55464657044963196816950587289035428064568320970692304673817341489687665059843",
        "55464657044963196816950587289035428064568320970692304673817341489687665059840"
      ]
    },
    {
      "x": 389,
      "y": 307,
      "size": 1,
      "price": "4683000000000000000000",
      "reserved": "",
      "salt": "0xfd8bda72cc4834fe08ec068e303b84e41117109b77582654b7fd31607524d182",
      "assetIds": [
        "55464657044963196816950587289035428064568320970692304673817341489687656669187",
        "55464657044963196816950587289035428064568320970692304673817341489687665059842",
        "55464657044963196816950587289035428064568320970692304673817341489687665059841"
      ]
    },
    {
      "x": 389,
      "y": 308,
      "size": 1,
      "price": "4683000000000000000000",
      "reserved": "",
      "salt": "0x32eaf8eaac056faebd8cf6125959a56e2e2719502a990ae279e03cb2edd1f4c7",
      "assetIds": [
        "55464657044963196816950587289035428064568320970692304673817341489687656669185",
        "55464657044963196816950587289035428064568320970692304673817341489687665059844",
        "55464657044963196816950587289035428064568320970692304673817341489687665059840"
      ]
    },
    {
      "x": 389,
      "y": 309,
      "size": 1,
      "price": "4683000000000000000000",
      "reserved": "",
      "salt": "0xd88a871514895a4678ca4d5d8bd63616434bfa0aba2e1b54e206b1abfd312b05",
      "assetIds": [
        "55464657044963196816950587289035428064568320970692304673817341489687656669186",
        "55464657044963196816950587289035428064568320970692304673817341489687665059842",
        "55464657044963196816950587289035428064568320970692304673817341489687665059841"
      ]
    },
    {
      "x": 389,
      "y": 310,
      "size": 1,
      "price": "4683000000000000000000",
      "reserved": "",
      "salt": "0x16444f3e5c79ae198eaada7159d4a725cfe3a5f11f505eef316ca1067a860595",
      "assetIds": [
        "55464657044963196816950587289035428064568320970692304673817341489687656669186",
        "55464657044963196816950587289035428064568320970692304673817341489687665059843",
        "55464657044963196816950587289035428064568320970692304673817341489687665059841"
      ]
    },
    {
      "x": 389,
      "y": 311,
      "size": 1,
      "price": "4683000000000000000000",
      "reserved": "",
      "salt": "0xc97a6f4165ed444eb6f40c444ff4b9e2da247da7c00102ff3ff52d0d2041fd5b",
      "assetIds": [
        "55464657044963196816950587289035428064568320970692304673817341489687656669185",
        "55464657044963196816950587289035428064568320970692304673817341489687665059842",
        "55464657044963196816950587289035428064568320970692304673817341489687665059840"
      ]
    },
    {
      "x": 390,
      "y": 222,
      "size": 1,
      "price": "4683000000000000000000",
      "reserved": "",
      "salt": "0x0b430e5e4dc7280ab3089a917123542d801e202cba5b1357947fcccf6fb062d6",
      "assetIds": [
        "55464657044963196816950587289035428064568320970692304673817341489687656669184",
        "55464657044963196816950587289035428064568320970692304673817341489687665059844",
        "55464657044963196816950587289035428064568320970692304673817341489687665059840"
      ]
    },
    {
      "x": 390,
      "y": 223,
      "size": 1,
      "price": "4683000000000000000000",
      "reserved": "",
      "salt": "0x75c1cd75f2280e4a8c73685142477e329f672fc43d843b9b5b3b9b9fbb8ec68d",
      "assetIds": [
        "55464657044963196816950587289035428064568320970692304673817341489687656669185",
        "55464657044963196816950587289035428064568320970692304673817341489687665059844",
        "55464657044963196816950587289035428064568320970692304673817341489687665059840"
      ]
    },
    {
      "x": 390,
      "y": 224,
      "size": 1,
      "price": "4683000000000000000000",
      "reserved": "",
      "salt": "0xea7cad422b6944b89fe04054065f59a7a33080335f38e76beb5cc8a8edaa0567",
      "assetIds": [
        "55464657044963196816950587289035428064568320970692304673817341489687656669187",
        "55464657044963196816950587289035428064568320970692304673817341489687665059843",
        "55464657044963196816950587289035428064568320970692304673817341489687665059841"
      ]
    },
    {
      "x": 390,
      "y": 225,
      "size": 1,
      "price": "4683000000000000000000",
      "reserved": "",
      "salt": "0x372d8b906556d8519d361d0ca3022ef73a0c805ea0c8f1fa5fb26014f15ed48a",
      "assetIds": [
        "55464657044963196816950587289035428064568320970692304673817341489687656669187",
        "55464657044963196816950587289035428064568320970692304673817341489687665059843",
        "55464657044963196816950587289035428064568320970692304673817341489687665059841"
      ]
    },
    {
      "x": 390,
      "y": 226,
      "size": 1,
      "price": "4683000000000000000000",
      "reserved": "",
      "salt": "0x57ad0d79e1c0802077c5f5d77140c5b888a4d8e81ed5fefc21078990c0cdfac6",
      "assetIds": [
        "55464657044963196816950587289035428064568320970692304673817341489687656669184",
        "55464657044963196816950587289035428064568320970692304673817341489687665059842",
        "55464657044963196816950587289035428064568320970692304673817341489687665059840"
      ]
    },
    {
      "x": 390,
      "y": 227,
      "size": 1,
      "price": "4683000000000000000000",
      "reserved": "",
      "salt": "0xb8fe262ccfc31d5e77dfd6bdf91d5d1e30bb03c3332a6b134f1acc93da9b1c26",
      "assetIds": [
        "55464657044963196816950587289035428064568320970692304673817341489687656669186",
        "55464657044963196816950587289035428064568320970692304673817341489687665059843",
        "55464657044963196816950587289035428064568320970692304673817341489687665059841"
      ]
    },
    {
      "x": 390,
      "y": 234,
      "size": 1,
      "price": "4683000000000000000000",
      "reserved": "",
      "salt": "0x31f8f4da2b96ffaf0f58754e221b60c66e8751cace2ff2abf12f6d3242a7c125",
      "assetIds": [
        "55464657044963196816950587289035428064568320970692304673817341489687656669186",
        "55464657044963196816950587289035428064568320970692304673817341489687665059843",
        "55464657044963196816950587289035428064568320970692304673817341489687665059841"
      ]
    },
    {
      "x": 390,
      "y": 235,
      "size": 1,
      "price": "4683000000000000000000",
      "reserved": "",
      "salt": "0xc08d45a64ad29e8be867a3d118f0831201589dd470c6a1ad80442f4a05e7834c",
      "assetIds": [
        "55464657044963196816950587289035428064568320970692304673817341489687656669187",
        "55464657044963196816950587289035428064568320970692304673817341489687665059842",
        "55464657044963196816950587289035428064568320970692304673817341489687665059841"
      ]
    },
    {
      "x": 390,
      "y": 236,
      "size": 1,
      "price": "4683000000000000000000",
      "reserved": "",
      "salt": "0xa745a9a00732ae6161635ce41fc3d3d35d1d893eacd6e9772988dbd822f0938b",
      "assetIds": [
        "55464657044963196816950587289035428064568320970692304673817341489687656669187",
        "55464657044963196816950587289035428064568320970692304673817341489687665059842",
        "55464657044963196816950587289035428064568320970692304673817341489687665059841"
      ]
    },
    {
      "x": 390,
      "y": 237,
      "size": 1,
      "price": "4683000000000000000000",
      "reserved": "",
      "salt": "0x7b83ed4477130794f035ab5d1f2aa83ada079f75855c5714e4432730fb1119c5",
      "assetIds": [
        "55464657044963196816950587289035428064568320970692304673817341489687656669184",
        "55464657044963196816950587289035428064568320970692304673817341489687665059843",
        "55464657044963196816950587289035428064568320970692304673817341489687665059840"
      ]
    },
    {
      "x": 390,
      "y": 238,
      "size": 1,
      "price": "4683000000000000000000",
      "reserved": "",
      "salt": "0x5db571a73d61039bed23eb8b245c1db50b7d5f9880a232b81a01d5277f57a213",
      "assetIds": [
        "55464657044963196816950587289035428064568320970692304673817341489687656669184",
        "55464657044963196816950587289035428064568320970692304673817341489687665059842",
        "55464657044963196816950587289035428064568320970692304673817341489687665059840"
      ]
    },
    {
      "x": 390,
      "y": 239,
      "size": 1,
      "price": "4683000000000000000000",
      "reserved": "",
      "salt": "0xd9f4775292d7d13451d99ebe862bd7b207e3db853c6ec532fdd607c46de74809",
      "assetIds": [
        "55464657044963196816950587289035428064568320970692304673817341489687656669187",
        "55464657044963196816950587289035428064568320970692304673817341489687665059842",
        "55464657044963196816950587289035428064568320970692304673817341489687665059841"
      ]
    },
    {
      "x": 390,
      "y": 252,
      "size": 1,
      "price": "4683000000000000000000",
      "reserved": "",
      "salt": "0xf33a3a91c1f42c010867f9d966b70140206ac742a12df1b826d2adbbe3683e57",
      "assetIds": [
        "55464657044963196816950587289035428064568320970692304673817341489687656669186",
        "55464657044963196816950587289035428064568320970692304673817341489687665059842",
        "55464657044963196816950587289035428064568320970692304673817341489687665059841"
      ]
    },
    {
      "x": 390,
      "y": 253,
      "size": 1,
      "price": "4683000000000000000000",
      "reserved": "",
      "salt": "0x95fe761c96cdd2f7158a206b4280f17a4400387b35760030f2ee0257c7f4eb1b",
      "assetIds": [
        "55464657044963196816950587289035428064568320970692304673817341489687656669187",
        "55464657044963196816950587289035428064568320970692304673817341489687665059842",
        "55464657044963196816950587289035428064568320970692304673817341489687665059841"
      ]
    },
    {
      "x": 390,
      "y": 254,
      "size": 1,
      "price": "4683000000000000000000",
      "reserved": "",
      "salt": "0x2bfadcee002461831a3c44bb22670a7afd17418f79ebfa96aa295bc21f3cbbc9",
      "assetIds": [
        "55464657044963196816950587289035428064568320970692304673817341489687656669187",
        "55464657044963196816950587289035428064568320970692304673817341489687665059844",
        "55464657044963196816950587289035428064568320970692304673817341489687665059841"
      ]
    },
    {
      "x": 390,
      "y": 255,
      "size": 1,
      "price": "4683000000000000000000",
      "reserved": "",
      "salt": "0x7edb9082517e1ac5dc342521941e3cd1e80365078d571df3b22f4c63584cc4ff",
      "assetIds": [
        "55464657044963196816950587289035428064568320970692304673817341489687656669187",
        "55464657044963196816950587289035428064568320970692304673817341489687665059843",
        "55464657044963196816950587289035428064568320970692304673817341489687665059841"
      ]
    },
    {
      "x": 390,
      "y": 256,
      "size": 1,
      "price": "4683000000000000000000",
      "reserved": "",
      "salt": "0x6441d0ef9c6f45ea56e8f9f389ad5ccbe3edf739debe628bb636de1bae7cda1a",
      "assetIds": [
        "55464657044963196816950587289035428064568320970692304673817341489687656669184",
        "55464657044963196816950587289035428064568320970692304673817341489687665059844",
        "55464657044963196816950587289035428064568320970692304673817341489687665059840"
      ]
    },
    {
      "x": 390,
      "y": 257,
      "size": 1,
      "price": "4683000000000000000000",
      "reserved": "",
      "salt": "0x5a0a88546c9f83940ff4f294075feebd1c2a1b8445d7d210bba5bda09fb23580",
      "assetIds": [
        "55464657044963196816950587289035428064568320970692304673817341489687656669187",
        "55464657044963196816950587289035428064568320970692304673817341489687665059842",
        "55464657044963196816950587289035428064568320970692304673817341489687665059841"
      ]
    },
    {
      "x": 390,
      "y": 261,
      "size": 1,
      "price": "4683000000000000000000",
      "reserved": "",
      "salt": "0x90219ac21d348a428333b383b36b26580f680b692d7ca4d2d1b06def625a4357",
      "assetIds": [
        "55464657044963196816950587289035428064568320970692304673817341489687656669184",
        "55464657044963196816950587289035428064568320970692304673817341489687665059842",
        "55464657044963196816950587289035428064568320970692304673817341489687665059840"
      ]
    },
    {
      "x": 390,
      "y": 262,
      "size": 1,
      "price": "4683000000000000000000",
      "reserved": "",
      "salt": "0xac7e1c4ba39214f467d5057b04a4f35a7784144e82061582d306fb77ab155a2f",
      "assetIds": [
        "55464657044963196816950587289035428064568320970692304673817341489687656669187",
        "55464657044963196816950587289035428064568320970692304673817341489687665059842",
        "55464657044963196816950587289035428064568320970692304673817341489687665059841"
      ]
    },
    {
      "x": 390,
      "y": 263,
      "size": 1,
      "price": "4683000000000000000000",
      "reserved": "",
      "salt": "0xe565c60c7203a582163f5e7e4e95cc3dd8065d801a9ac0056bdaca394ad73804",
      "assetIds": [
        "55464657044963196816950587289035428064568320970692304673817341489687656669186",
        "55464657044963196816950587289035428064568320970692304673817341489687665059844",
        "55464657044963196816950587289035428064568320970692304673817341489687665059841"
      ]
    },
    {
      "x": 390,
      "y": 291,
      "size": 1,
      "price": "4683000000000000000000",
      "reserved": "",
      "salt": "0x844ec78e46e216b883cd6e5ebc8b1334d0de1222d93d9ccf769faf7df55995db",
      "assetIds": [
        "55464657044963196816950587289035428064568320970692304673817341489687656669185",
        "55464657044963196816950587289035428064568320970692304673817341489687665059842",
        "55464657044963196816950587289035428064568320970692304673817341489687665059840"
      ]
    },
    {
      "x": 390,
      "y": 292,
      "size": 1,
      "price": "4683000000000000000000",
      "reserved": "",
      "salt": "0x16c662f434ed4421cd8cf4244b3907b7a1da7e5844904bd5ddfbc4e7ab54c307",
      "assetIds": [
        "55464657044963196816950587289035428064568320970692304673817341489687656669185",
        "55464657044963196816950587289035428064568320970692304673817341489687665059842",
        "55464657044963196816950587289035428064568320970692304673817341489687665059840"
      ]
    },
    {
      "x": 390,
      "y": 293,
      "size": 1,
      "price": "4683000000000000000000",
      "reserved": "",
      "salt": "0xe5968024e60520ba115b22ccbf30aeba38e85b9cf09ca441edb58f8d072523ef",
      "assetIds": [
        "55464657044963196816950587289035428064568320970692304673817341489687656669186",
        "55464657044963196816950587289035428064568320970692304673817341489687665059843",
        "55464657044963196816950587289035428064568320970692304673817341489687665059841"
      ]
    },
    {
      "x": 390,
      "y": 294,
      "size": 1,
      "price": "4683000000000000000000",
      "reserved": "",
      "salt": "0x2f2a9aa3718e408c4a89f7a8ac26e6714d6e5ac732a6d61895885682e9856f57",
      "assetIds": [
        "55464657044963196816950587289035428064568320970692304673817341489687656669185",
        "55464657044963196816950587289035428064568320970692304673817341489687665059844",
        "55464657044963196816950587289035428064568320970692304673817341489687665059840"
      ]
    },
    {
      "x": 390,
      "y": 295,
      "size": 1,
      "price": "4683000000000000000000",
      "reserved": "",
      "salt": "0x115f66a534e205e485461a2974b19bd2ae86b2764edfc6ca494cedcf29a1b368",
      "assetIds": [
        "55464657044963196816950587289035428064568320970692304673817341489687656669184",
        "55464657044963196816950587289035428064568320970692304673817341489687665059844",
        "55464657044963196816950587289035428064568320970692304673817341489687665059840"
      ]
    },
    {
      "x": 390,
      "y": 296,
      "size": 1,
      "price": "4683000000000000000000",
      "reserved": "",
      "salt": "0xc4872a644d720dffc8852f850124b365855ab4959cfdb2f3a87d8cd89a6fa365",
      "assetIds": [
        "55464657044963196816950587289035428064568320970692304673817341489687656669185",
        "55464657044963196816950587289035428064568320970692304673817341489687665059842",
        "55464657044963196816950587289035428064568320970692304673817341489687665059840"
      ]
    },
    {
      "x": 390,
      "y": 297,
      "size": 1,
      "price": "4683000000000000000000",
      "reserved": "",
      "salt": "0x00966f01c07b7646e471a70f7be5468c3773171a7b81b7e7cc4ebb1315e8f8f4",
      "assetIds": [
        "55464657044963196816950587289035428064568320970692304673817341489687656669185",
        "55464657044963196816950587289035428064568320970692304673817341489687665059842",
        "55464657044963196816950587289035428064568320970692304673817341489687665059840"
      ]
    },
    {
      "x": 390,
      "y": 298,
      "size": 1,
      "price": "4683000000000000000000",
      "reserved": "",
      "salt": "0x5ee8644fecdc2ad3fe64ad3bd4f5da1ec8a0fea80222404dc1acf8ef2348e4df",
      "assetIds": [
        "55464657044963196816950587289035428064568320970692304673817341489687656669186",
        "55464657044963196816950587289035428064568320970692304673817341489687665059843",
        "55464657044963196816950587289035428064568320970692304673817341489687665059841"
      ]
    },
    {
      "x": 390,
      "y": 299,
      "size": 1,
      "price": "4683000000000000000000",
      "reserved": "",
      "salt": "0x007222f84323040eee1158bdb5624316a71ca5e7eec0befc3f8b4bc2d2c1ac27",
      "assetIds": [
        "55464657044963196816950587289035428064568320970692304673817341489687656669186",
        "55464657044963196816950587289035428064568320970692304673817341489687665059844",
        "55464657044963196816950587289035428064568320970692304673817341489687665059841"
      ]
    },
    {
      "x": 390,
      "y": 300,
      "size": 1,
      "price": "4683000000000000000000",
      "reserved": "",
      "salt": "0x2034764fcfb27c05bd47237527232f161d99a02376c509d50e70b2579ea5cf6e",
      "assetIds": [
        "55464657044963196816950587289035428064568320970692304673817341489687656669186",
        "55464657044963196816950587289035428064568320970692304673817341489687665059844",
        "55464657044963196816950587289035428064568320970692304673817341489687665059841"
      ]
    },
    {
      "x": 390,
      "y": 301,
      "size": 1,
      "price": "4683000000000000000000",
      "reserved": "",
      "salt": "0x56057f99d39de1aa7296fce7c92719ceb1ab081df172beea7e2292108b467f88",
      "assetIds": [
        "55464657044963196816950587289035428064568320970692304673817341489687656669184",
        "55464657044963196816950587289035428064568320970692304673817341489687665059844",
        "55464657044963196816950587289035428064568320970692304673817341489687665059840"
      ]
    },
    {
      "x": 390,
      "y": 302,
      "size": 1,
      "price": "4683000000000000000000",
      "reserved": "",
      "salt": "0xc5d8a66f455f5882524fb44d1f7cb7b4629b16480a089b1016632924805b17fd",
      "assetIds": [
        "55464657044963196816950587289035428064568320970692304673817341489687656669186",
        "55464657044963196816950587289035428064568320970692304673817341489687665059844",
        "55464657044963196816950587289035428064568320970692304673817341489687665059841"
      ]
    },
    {
      "x": 390,
      "y": 306,
      "size": 1,
      "price": "4683000000000000000000",
      "reserved": "",
      "salt": "0xc858b0f7fe237da30b9e6d494cfb94f8639db2b89988aa7ba0076dc6001814d1",
      "assetIds": [
        "55464657044963196816950587289035428064568320970692304673817341489687656669185",
        "55464657044963196816950587289035428064568320970692304673817341489687665059842",
        "55464657044963196816950587289035428064568320970692304673817341489687665059840"
      ]
    },
    {
      "x": 390,
      "y": 307,
      "size": 1,
      "price": "4683000000000000000000",
      "reserved": "",
      "salt": "0xe3ba81a440aff2328d59f75098ae761209f4f86b455651e14a365cdf5b6eaa62",
      "assetIds": [
        "55464657044963196816950587289035428064568320970692304673817341489687656669184",
        "55464657044963196816950587289035428064568320970692304673817341489687665059844",
        "55464657044963196816950587289035428064568320970692304673817341489687665059840"
      ]
    },
    {
      "x": 390,
      "y": 308,
      "size": 1,
      "price": "4683000000000000000000",
      "reserved": "",
      "salt": "0x76428ca4e842e455a9a810d8396fb54d9c3f9bdb72a6c9be957f00ac6dd7e070",
      "assetIds": [
        "55464657044963196816950587289035428064568320970692304673817341489687656669186",
        "55464657044963196816950587289035428064568320970692304673817341489687665059844",
        "55464657044963196816950587289035428064568320970692304673817341489687665059841"
      ]
    },
    {
      "x": 391,
      "y": 222,
      "size": 1,
      "price": "4683000000000000000000",
      "reserved": "",
      "salt": "0x4353cae061090bf76b1082b2f0fe7635c43d69c85abbf21a40e62bc8dc83de40",
      "assetIds": [
        "55464657044963196816950587289035428064568320970692304673817341489687656669184",
        "55464657044963196816950587289035428064568320970692304673817341489687665059843",
        "55464657044963196816950587289035428064568320970692304673817341489687665059840"
      ]
    },
    {
      "x": 391,
      "y": 223,
      "size": 1,
      "price": "4683000000000000000000",
      "reserved": "",
      "salt": "0x0264c257dcc8e92b0e3852679bace98dbca6ddbc3f76ab8442c451199f292af8",
      "assetIds": [
        "55464657044963196816950587289035428064568320970692304673817341489687656669187",
        "55464657044963196816950587289035428064568320970692304673817341489687665059842",
        "55464657044963196816950587289035428064568320970692304673817341489687665059841"
      ]
    },
    {
      "x": 391,
      "y": 224,
      "size": 1,
      "price": "4683000000000000000000",
      "reserved": "",
      "salt": "0xee7980a5609bcabd50cf95dbee6391e3a383b483f282121f2bb5fe843899672e",
      "assetIds": [
        "55464657044963196816950587289035428064568320970692304673817341489687656669185",
        "55464657044963196816950587289035428064568320970692304673817341489687665059843",
        "55464657044963196816950587289035428064568320970692304673817341489687665059840"
      ]
    },
    {
      "x": 391,
      "y": 225,
      "size": 1,
      "price": "4683000000000000000000",
      "reserved": "",
      "salt": "0x44ab61d119048706c525c465643e582c3b2269c91e12fd4451aed34664d5e119",
      "assetIds": [
        "55464657044963196816950587289035428064568320970692304673817341489687656669185",
        "55464657044963196816950587289035428064568320970692304673817341489687665059844",
        "55464657044963196816950587289035428064568320970692304673817341489687665059840"
      ]
    },
    {
      "x": 391,
      "y": 226,
      "size": 1,
      "price": "4683000000000000000000",
      "reserved": "",
      "salt": "0x822ced85565aa4f955749bb79e51c92311a38dc9947994953ecd1fc20f2a30bd",
      "assetIds": [
        "55464657044963196816950587289035428064568320970692304673817341489687656669184",
        "55464657044963196816950587289035428064568320970692304673817341489687665059843",
        "55464657044963196816950587289035428064568320970692304673817341489687665059840"
      ]
    },
    {
      "x": 391,
      "y": 227,
      "size": 1,
      "price": "4683000000000000000000",
      "reserved": "",
      "salt": "0xb09dbfbc6c096c069c29fbd21f0a524e935799d6d4c194fc817d4fe5e407f6ca",
      "assetIds": [
        "55464657044963196816950587289035428064568320970692304673817341489687656669185",
        "55464657044963196816950587289035428064568320970692304673817341489687665059842",
        "55464657044963196816950587289035428064568320970692304673817341489687665059840"
      ]
    },
    {
      "x": 391,
      "y": 234,
      "size": 1,
      "price": "4683000000000000000000",
      "reserved": "",
      "salt": "0x9438aa50bf136620a9a66aba92fd15916c93932596ab88b59a450784ef4529a0",
      "assetIds": [
        "55464657044963196816950587289035428064568320970692304673817341489687656669184",
        "55464657044963196816950587289035428064568320970692304673817341489687665059842",
        "55464657044963196816950587289035428064568320970692304673817341489687665059840"
      ]
    },
    {
      "x": 391,
      "y": 235,
      "size": 1,
      "price": "4683000000000000000000",
      "reserved": "",
      "salt": "0xda0e4508404b9dc963e199bfe2695f73f9cc9c74b10588fdfca2767c83a7e6ff",
      "assetIds": [
        "55464657044963196816950587289035428064568320970692304673817341489687656669186",
        "55464657044963196816950587289035428064568320970692304673817341489687665059844",
        "55464657044963196816950587289035428064568320970692304673817341489687665059841"
      ]
    },
    {
      "x": 391,
      "y": 236,
      "size": 1,
      "price": "4683000000000000000000",
      "reserved": "",
      "salt": "0x63f214619b43b7406e4dc54be3afaf0cc3d9d17552f89e6099ccfafdfccf27ce",
      "assetIds": [
        "55464657044963196816950587289035428064568320970692304673817341489687656669185",
        "55464657044963196816950587289035428064568320970692304673817341489687665059844",
        "55464657044963196816950587289035428064568320970692304673817341489687665059840"
      ]
    },
    {
      "x": 391,
      "y": 237,
      "size": 1,
      "price": "4683000000000000000000",
      "reserved": "",
      "salt": "0x026d9b51b8d2e1ff1452c2ca7c7a08e6495f50e9021f392b8a5a81a3af6d8ae5",
      "assetIds": [
        "55464657044963196816950587289035428064568320970692304673817341489687656669186",
        "55464657044963196816950587289035428064568320970692304673817341489687665059843",
        "55464657044963196816950587289035428064568320970692304673817341489687665059841"
      ]
    },
    {
      "x": 391,
      "y": 238,
      "size": 1,
      "price": "1011000000000000000000",
      "reserved": "0x7a9fe22691c811ea339d9b73150e6911a5343dca",
      "salt": "0xa0daf0c5dcd054a14569b67bd85a79a997005cb310dcdd87fd47994fe1fdb82c",
      "assetIds": []
    },
    {
      "x": 391,
      "y": 239,
      "size": 1,
      "price": "4683000000000000000000",
      "reserved": "",
      "salt": "0xcfbf80ff36d85a24183b9ab955dc0790e22347229b9aeca6b0c50723d07af65f",
      "assetIds": [
        "55464657044963196816950587289035428064568320970692304673817341489687656669186",
        "55464657044963196816950587289035428064568320970692304673817341489687665059844",
        "55464657044963196816950587289035428064568320970692304673817341489687665059841"
      ]
    },
    {
      "x": 391,
      "y": 252,
      "size": 1,
      "price": "4683000000000000000000",
      "reserved": "",
      "salt": "0x40eca92fe8e9913971d0147d0b7497db625dee3c7c246067a810ab8be9b7f87a",
      "assetIds": [
        "55464657044963196816950587289035428064568320970692304673817341489687656669185",
        "55464657044963196816950587289035428064568320970692304673817341489687665059843",
        "55464657044963196816950587289035428064568320970692304673817341489687665059840"
      ]
    },
    {
      "x": 391,
      "y": 253,
      "size": 1,
      "price": "4683000000000000000000",
      "reserved": "",
      "salt": "0xf00ab979b8bec70f79f8570cd79935936e9b05ed06d17aa6cc8048189164bb2e",
      "assetIds": [
        "55464657044963196816950587289035428064568320970692304673817341489687656669184",
        "55464657044963196816950587289035428064568320970692304673817341489687665059844",
        "55464657044963196816950587289035428064568320970692304673817341489687665059840"
      ]
    },
    {
      "x": 391,
      "y": 254,
      "size": 1,
      "price": "4683000000000000000000",
      "reserved": "",
      "salt": "0xdaf35f9c24aad5ccf2a4108d8373e84eabdebdd07acc41edd5f3e754236b40b0",
      "assetIds": [
        "55464657044963196816950587289035428064568320970692304673817341489687656669185",
        "55464657044963196816950587289035428064568320970692304673817341489687665059843",
        "55464657044963196816950587289035428064568320970692304673817341489687665059840"
      ]
    },
    {
      "x": 391,
      "y": 255,
      "size": 1,
      "price": "1011000000000000000000",
      "reserved": "0x7a9fe22691c811ea339d9b73150e6911a5343dca",
      "salt": "0xb33d5a57e930d54b946cf085b1dee173a4f40719e65ed3248c0ed2567d36e683",
      "assetIds": []
    },
    {
      "x": 391,
      "y": 256,
      "size": 1,
      "price": "4683000000000000000000",
      "reserved": "",
      "salt": "0xda995488ba94bdad61bbfd4845ee89717420f871e7c95b6e8d5e9ea1970f32bd",
      "assetIds": [
        "55464657044963196816950587289035428064568320970692304673817341489687656669186",
        "55464657044963196816950587289035428064568320970692304673817341489687665059844",
        "55464657044963196816950587289035428064568320970692304673817341489687665059841"
      ]
    },
    {
      "x": 391,
      "y": 257,
      "size": 1,
      "price": "4683000000000000000000",
      "reserved": "",
      "salt": "0xc08c47a146b7fa2249294d61bfe511aa34683f76a6ee86ab5f09df0cf0783289",
      "assetIds": [
        "55464657044963196816950587289035428064568320970692304673817341489687656669186",
        "55464657044963196816950587289035428064568320970692304673817341489687665059842",
        "55464657044963196816950587289035428064568320970692304673817341489687665059841"
      ]
    },
    {
      "x": 391,
      "y": 261,
      "size": 1,
      "price": "4683000000000000000000",
      "reserved": "",
      "salt": "0x891cd64e65fd60792fe425fd2a1169f9f1ea2d93931f838876b62a7a1d42b638",
      "assetIds": [
        "55464657044963196816950587289035428064568320970692304673817341489687656669187",
        "55464657044963196816950587289035428064568320970692304673817341489687665059843",
        "55464657044963196816950587289035428064568320970692304673817341489687665059841"
      ]
    },
    {
      "x": 391,
      "y": 262,
      "size": 1,
      "price": "4683000000000000000000",
      "reserved": "",
      "salt": "0xe218e015916abd177e10f07be4cc11f61922567dfea517f1bb2b52e258a4db28",
      "assetIds": [
        "55464657044963196816950587289035428064568320970692304673817341489687656669185",
        "55464657044963196816950587289035428064568320970692304673817341489687665059844",
        "55464657044963196816950587289035428064568320970692304673817341489687665059840"
      ]
    },
    {
      "x": 391,
      "y": 263,
      "size": 1,
      "price": "4683000000000000000000",
      "reserved": "",
      "salt": "0x76ae65e238b1ae3a73faef1ed8729eca5472b5e9850e2d8bb4ba633dbf3c382f",
      "assetIds": [
        "55464657044963196816950587289035428064568320970692304673817341489687656669184",
        "55464657044963196816950587289035428064568320970692304673817341489687665059843",
        "55464657044963196816950587289035428064568320970692304673817341489687665059840"
      ]
    },
    {
      "x": 391,
      "y": 291,
      "size": 1,
      "price": "4683000000000000000000",
      "reserved": "",
      "salt": "0x702cabfb6c5fa7b1fc4b261811aefe8e5819f702cb855e4435727ec3bdbc3868",
      "assetIds": [
        "55464657044963196816950587289035428064568320970692304673817341489687656669184",
        "55464657044963196816950587289035428064568320970692304673817341489687665059843",
        "55464657044963196816950587289035428064568320970692304673817341489687665059840"
      ]
    },
    {
      "x": 391,
      "y": 292,
      "size": 1,
      "price": "4683000000000000000000",
      "reserved": "",
      "salt": "0x136ef9e4a44f1fde0a9f24294d8140ce22fcd57cfa837a802e65a7e198c82878",
      "assetIds": [
        "55464657044963196816950587289035428064568320970692304673817341489687656669185",
        "55464657044963196816950587289035428064568320970692304673817341489687665059844",
        "55464657044963196816950587289035428064568320970692304673817341489687665059840"
      ]
    },
    {
      "x": 391,
      "y": 293,
      "size": 1,
      "price": "4683000000000000000000",
      "reserved": "",
      "salt": "0x17622089473f2da76133146aa8217558617024a7fa791151edaee3777168fd91",
      "assetIds": [
        "55464657044963196816950587289035428064568320970692304673817341489687656669187",
        "55464657044963196816950587289035428064568320970692304673817341489687665059843",
        "55464657044963196816950587289035428064568320970692304673817341489687665059841"
      ]
    },
    {
      "x": 391,
      "y": 294,
      "size": 1,
      "price": "4683000000000000000000",
      "reserved": "",
      "salt": "0x94ada6d05d605736e50ffb4ba4f622959fcce33bb943803f78c9d9460687b564",
      "assetIds": [
        "55464657044963196816950587289035428064568320970692304673817341489687656669185",
        "55464657044963196816950587289035428064568320970692304673817341489687665059843",
        "55464657044963196816950587289035428064568320970692304673817341489687665059840"
      ]
    },
    {
      "x": 391,
      "y": 295,
      "size": 1,
      "price": "4683000000000000000000",
      "reserved": "",
      "salt": "0x1bd8ef92bd70a0f2603be120b45f46bcfa6a72c1fcfbde2757e1f5e2f0878328",
      "assetIds": [
        "55464657044963196816950587289035428064568320970692304673817341489687656669187",
        "55464657044963196816950587289035428064568320970692304673817341489687665059844",
        "55464657044963196816950587289035428064568320970692304673817341489687665059841"
      ]
    },
    {
      "x": 391,
      "y": 296,
      "size": 1,
      "price": "4683000000000000000000",
      "reserved": "",
      "salt": "0xc1ac67d9d1e85606eceebc5eaed37ba19e78993df6bf2f6f0b94673e0581a8ad",
      "assetIds": [
        "55464657044963196816950587289035428064568320970692304673817341489687656669184",
        "55464657044963196816950587289035428064568320970692304673817341489687665059844",
        "55464657044963196816950587289035428064568320970692304673817341489687665059840"
      ]
    },
    {
      "x": 391,
      "y": 297,
      "size": 1,
      "price": "4683000000000000000000",
      "reserved": "",
      "salt": "0xdfa87a636e8280e370afbfc6b922d206fbfeed83de8c5ac210aadd0d4ca5f9f7",
      "assetIds": [
        "55464657044963196816950587289035428064568320970692304673817341489687656669186",
        "55464657044963196816950587289035428064568320970692304673817341489687665059844",
        "55464657044963196816950587289035428064568320970692304673817341489687665059841"
      ]
    },
    {
      "x": 391,
      "y": 298,
      "size": 1,
      "price": "4683000000000000000000",
      "reserved": "",
      "salt": "0xb2546adaf05a8b89572459b9b05f2f87b4451894adb6c97f2b7690dada4af2f5",
      "assetIds": [
        "55464657044963196816950587289035428064568320970692304673817341489687656669185",
        "55464657044963196816950587289035428064568320970692304673817341489687665059843",
        "55464657044963196816950587289035428064568320970692304673817341489687665059840"
      ]
    },
    {
      "x": 391,
      "y": 299,
      "size": 1,
      "price": "4683000000000000000000",
      "reserved": "",
      "salt": "0xa890bd2a3bb875e40ed31817af038c79917e666a1bed16b43de0acac6ca9c21f",
      "assetIds": [
        "55464657044963196816950587289035428064568320970692304673817341489687656669186",
        "55464657044963196816950587289035428064568320970692304673817341489687665059842",
        "55464657044963196816950587289035428064568320970692304673817341489687665059841"
      ]
    },
    {
      "x": 391,
      "y": 300,
      "size": 1,
      "price": "4683000000000000000000",
      "reserved": "",
      "salt": "0xccb708119dfa0872550dd73d9df967e629dc05b3155ea2d41b57fe8b5281189b",
      "assetIds": [
        "55464657044963196816950587289035428064568320970692304673817341489687656669184",
        "55464657044963196816950587289035428064568320970692304673817341489687665059843",
        "55464657044963196816950587289035428064568320970692304673817341489687665059840"
      ]
    },
    {
      "x": 391,
      "y": 301,
      "size": 1,
      "price": "4683000000000000000000",
      "reserved": "",
      "salt": "0xd849faa7f18b47420bb2aeaa54f6797258eac1d7c7cf6d9e90a8cc6757af4603",
      "assetIds": [
        "55464657044963196816950587289035428064568320970692304673817341489687656669186",
        "55464657044963196816950587289035428064568320970692304673817341489687665059844",
        "55464657044963196816950587289035428064568320970692304673817341489687665059841"
      ]
    },
    {
      "x": 391,
      "y": 302,
      "size": 1,
      "price": "4683000000000000000000",
      "reserved": "",
      "salt": "0xae75811590280622dc7046ffdeaca8b815daa5e17af259df1d736b70aba5c9b3",
      "assetIds": [
        "55464657044963196816950587289035428064568320970692304673817341489687656669185",
        "55464657044963196816950587289035428064568320970692304673817341489687665059843",
        "55464657044963196816950587289035428064568320970692304673817341489687665059840"
      ]
    },
    {
      "x": 391,
      "y": 306,
      "size": 1,
      "price": "4683000000000000000000",
      "reserved": "",
      "salt": "0x2bcc54c3f57bc02b65721936ddebf3f6432f5f3fa89a9e153e870091f9a084d7",
      "assetIds": [
        "55464657044963196816950587289035428064568320970692304673817341489687656669185",
        "55464657044963196816950587289035428064568320970692304673817341489687665059843",
        "55464657044963196816950587289035428064568320970692304673817341489687665059840"
      ]
    },
    {
      "x": 391,
      "y": 307,
      "size": 1,
      "price": "4683000000000000000000",
      "reserved": "",
      "salt": "0x0e2b5ec771d4b0a89b1cab752324923c973f7933fac5932e151a622a5f9b8ea2",
      "assetIds": [
        "55464657044963196816950587289035428064568320970692304673817341489687656669187",
        "55464657044963196816950587289035428064568320970692304673817341489687665059844",
        "55464657044963196816950587289035428064568320970692304673817341489687665059841"
      ]
    },
    {
      "x": 391,
      "y": 308,
      "size": 1,
      "price": "4683000000000000000000",
      "reserved": "",
      "salt": "0x6cf6f013726820558e80c409f33b808800d9e32724a475f41121f3a04d942b17",
      "assetIds": [
        "55464657044963196816950587289035428064568320970692304673817341489687656669187",
        "55464657044963196816950587289035428064568320970692304673817341489687665059844",
        "55464657044963196816950587289035428064568320970692304673817341489687665059841"
      ]
    },
    {
      "x": 392,
      "y": 222,
      "size": 1,
      "price": "4683000000000000000000",
      "reserved": "",
      "salt": "0xa241b24b910b2abe00b06040bcc6e9320e62664c44c931012ba0c22f342ec13a",
      "assetIds": [
        "55464657044963196816950587289035428064568320970692304673817341489687656669185",
        "55464657044963196816950587289035428064568320970692304673817341489687665059842",
        "55464657044963196816950587289035428064568320970692304673817341489687665059840"
      ]
    },
    {
      "x": 392,
      "y": 223,
      "size": 1,
      "price": "4683000000000000000000",
      "reserved": "",
      "salt": "0xbe5493f8baa86f87f8f7a3f62ef17d0f7eeb2517ae5e3eb2cdd75d9f8b5e782e",
      "assetIds": [
        "55464657044963196816950587289035428064568320970692304673817341489687656669186",
        "55464657044963196816950587289035428064568320970692304673817341489687665059842",
        "55464657044963196816950587289035428064568320970692304673817341489687665059841"
      ]
    },
    {
      "x": 392,
      "y": 224,
      "size": 1,
      "price": "4683000000000000000000",
      "reserved": "",
      "salt": "0x3ffece0dfbb1d5191dc5f117835513e837db630c8441ce0463433defbfdd3173",
      "assetIds": [
        "55464657044963196816950587289035428064568320970692304673817341489687656669186",
        "55464657044963196816950587289035428064568320970692304673817341489687665059842",
        "55464657044963196816950587289035428064568320970692304673817341489687665059841"
      ]
    },
    {
      "x": 392,
      "y": 225,
      "size": 1,
      "price": "4683000000000000000000",
      "reserved": "",
      "salt": "0xd4afb5049999643a09fcd08b99b2c7a43bd9fedab9bd33cea7cf1cbd4bf04bf3",
      "assetIds": [
        "55464657044963196816950587289035428064568320970692304673817341489687656669187",
        "55464657044963196816950587289035428064568320970692304673817341489687665059842",
        "55464657044963196816950587289035428064568320970692304673817341489687665059841"
      ]
    },
    {
      "x": 392,
      "y": 226,
      "size": 1,
      "price": "4683000000000000000000",
      "reserved": "",
      "salt": "0xb6867b924b3b6a55bb4d179eb48e173efa53304c78ba25cbe380d225c54c8f1c",
      "assetIds": [
        "55464657044963196816950587289035428064568320970692304673817341489687656669185",
        "55464657044963196816950587289035428064568320970692304673817341489687665059843",
        "55464657044963196816950587289035428064568320970692304673817341489687665059840"
      ]
    },
    {
      "x": 392,
      "y": 227,
      "size": 1,
      "price": "4683000000000000000000",
      "reserved": "",
      "salt": "0x8ab61f14615e152123d814d84231f17000e8e0deec0d772de65121041f3fb4a5",
      "assetIds": [
        "55464657044963196816950587289035428064568320970692304673817341489687656669186",
        "55464657044963196816950587289035428064568320970692304673817341489687665059844",
        "55464657044963196816950587289035428064568320970692304673817341489687665059841"
      ]
    },
    {
      "x": 392,
      "y": 234,
      "size": 1,
      "price": "4683000000000000000000",
      "reserved": "",
      "salt": "0x1fea1e17d8325c9ba818e8a39a21b3cd64d2db1354960424a8cccb69a5c66f53",
      "assetIds": [
        "55464657044963196816950587289035428064568320970692304673817341489687656669186",
        "55464657044963196816950587289035428064568320970692304673817341489687665059844",
        "55464657044963196816950587289035428064568320970692304673817341489687665059841"
      ]
    },
    {
      "x": 392,
      "y": 235,
      "size": 1,
      "price": "4683000000000000000000",
      "reserved": "",
      "salt": "0x58b491996223262430df0f4fdfa957c172e0c974d99ef3757b467789384d2b08",
      "assetIds": [
        "55464657044963196816950587289035428064568320970692304673817341489687656669187",
        "55464657044963196816950587289035428064568320970692304673817341489687665059844",
        "55464657044963196816950587289035428064568320970692304673817341489687665059841"
      ]
    },
    {
      "x": 392,
      "y": 236,
      "size": 1,
      "price": "4683000000000000000000",
      "reserved": "",
      "salt": "0x6bde1786c6a852454fd5dac6fa0576316a88a0518a64cf2add57c4a8b21ae073",
      "assetIds": [
        "55464657044963196816950587289035428064568320970692304673817341489687656669184",
        "55464657044963196816950587289035428064568320970692304673817341489687665059843",
        "55464657044963196816950587289035428064568320970692304673817341489687665059840"
      ]
    },
    {
      "x": 392,
      "y": 237,
      "size": 1,
      "price": "4683000000000000000000",
      "reserved": "",
      "salt": "0x11e1aed1ad490ff349e9ff9b89a88e8e826e4fa678f5afd8447a289b36f2323f",
      "assetIds": [
        "55464657044963196816950587289035428064568320970692304673817341489687656669186",
        "55464657044963196816950587289035428064568320970692304673817341489687665059844",
        "55464657044963196816950587289035428064568320970692304673817341489687665059841"
      ]
    },
    {
      "x": 392,
      "y": 238,
      "size": 1,
      "price": "4683000000000000000000",
      "reserved": "",
      "salt": "0xbf10e1e9371e4a0075cce0b30c4725ee4d625a23f57e5f7bd0f787ffb0c260b6",
      "assetIds": [
        "55464657044963196816950587289035428064568320970692304673817341489687656669186",
        "55464657044963196816950587289035428064568320970692304673817341489687665059844",
        "55464657044963196816950587289035428064568320970692304673817341489687665059841"
      ]
    },
    {
      "x": 392,
      "y": 239,
      "size": 1,
      "price": "4683000000000000000000",
      "reserved": "",
      "salt": "0x1cfff3b114ab7c846e8e4ea041a2ad51ff6f276cf26dbe44d7e9dc2098ab487b",
      "assetIds": [
        "55464657044963196816950587289035428064568320970692304673817341489687656669186",
        "55464657044963196816950587289035428064568320970692304673817341489687665059844",
        "55464657044963196816950587289035428064568320970692304673817341489687665059841"
      ]
    },
    {
      "x": 392,
      "y": 252,
      "size": 1,
      "price": "4683000000000000000000",
      "reserved": "",
      "salt": "0xdd481a4ad117a429ad029f481d3dbfb3b43b5cf9ec978db9e96fdaa12b4b38ed",
      "assetIds": [
        "55464657044963196816950587289035428064568320970692304673817341489687656669184",
        "55464657044963196816950587289035428064568320970692304673817341489687665059844",
        "55464657044963196816950587289035428064568320970692304673817341489687665059840"
      ]
    },
    {
      "x": 392,
      "y": 253,
      "size": 1,
      "price": "4683000000000000000000",
      "reserved": "",
      "salt": "0x27fde8f5f190bbe080225b2cb23a13598520891f6e5461f311f12a4a85102c01",
      "assetIds": [
        "55464657044963196816950587289035428064568320970692304673817341489687656669187",
        "55464657044963196816950587289035428064568320970692304673817341489687665059843",
        "55464657044963196816950587289035428064568320970692304673817341489687665059841"
      ]
    },
    {
      "x": 392,
      "y": 254,
      "size": 1,
      "price": "4683000000000000000000",
      "reserved": "",
      "salt": "0xfa69591534c625c06b9a47a5b16f323be927f3e8e0c1fe3ad23f5191cd76ae54",
      "assetIds": [
        "55464657044963196816950587289035428064568320970692304673817341489687656669184",
        "55464657044963196816950587289035428064568320970692304673817341489687665059844",
        "55464657044963196816950587289035428064568320970692304673817341489687665059840"
      ]
    },
    {
      "x": 392,
      "y": 255,
      "size": 1,
      "price": "4683000000000000000000",
      "reserved": "",
      "salt": "0x762dafc8c16d4096efd929fe715722be9e0db83610fa129797519ecce0d20504",
      "assetIds": [
        "55464657044963196816950587289035428064568320970692304673817341489687656669186",
        "55464657044963196816950587289035428064568320970692304673817341489687665059843",
        "55464657044963196816950587289035428064568320970692304673817341489687665059841"
      ]
    },
    {
      "x": 392,
      "y": 256,
      "size": 1,
      "price": "4683000000000000000000",
      "reserved": "",
      "salt": "0xb84b1b4cc3fdf71980cc88d7a1a3adbae0ff0221fb61fb9a78a3d7ff5c7411a5",
      "assetIds": [
        "55464657044963196816950587289035428064568320970692304673817341489687656669184",
        "55464657044963196816950587289035428064568320970692304673817341489687665059843",
        "55464657044963196816950587289035428064568320970692304673817341489687665059840"
      ]
    },
    {
      "x": 392,
      "y": 257,
      "size": 1,
      "price": "4683000000000000000000",
      "reserved": "",
      "salt": "0x3d5667ca08f3063be0b62100e8f36878270b0181ba56571a848eef513b80b26f",
      "assetIds": [
        "55464657044963196816950587289035428064568320970692304673817341489687656669184",
        "55464657044963196816950587289035428064568320970692304673817341489687665059843",
        "55464657044963196816950587289035428064568320970692304673817341489687665059840"
      ]
    },
    {
      "x": 392,
      "y": 261,
      "size": 1,
      "price": "4683000000000000000000",
      "reserved": "",
      "salt": "0xe01dc591d5b1b6db786e9d096be802e4430e8dc1a7e512a5c09a9060ba837d5d",
      "assetIds": [
        "55464657044963196816950587289035428064568320970692304673817341489687656669187",
        "55464657044963196816950587289035428064568320970692304673817341489687665059843",
        "55464657044963196816950587289035428064568320970692304673817341489687665059841"
      ]
    },
    {
      "x": 392,
      "y": 262,
      "size": 1,
      "price": "4683000000000000000000",
      "reserved": "",
      "salt": "0x57b92ab728314ca37608b5bcf745e7008db11011b0f623af056f403d13623406",
      "assetIds": [
        "55464657044963196816950587289035428064568320970692304673817341489687656669185",
        "55464657044963196816950587289035428064568320970692304673817341489687665059844",
        "55464657044963196816950587289035428064568320970692304673817341489687665059840"
      ]
    },
    {
      "x": 392,
      "y": 263,
      "size": 1,
      "price": "4683000000000000000000",
      "reserved": "",
      "salt": "0x4d7d72711936f512678c0d4557ef4a65c09533d924caed4a10bf90453000dcd8",
      "assetIds": [
        "55464657044963196816950587289035428064568320970692304673817341489687656669184",
        "55464657044963196816950587289035428064568320970692304673817341489687665059842",
        "55464657044963196816950587289035428064568320970692304673817341489687665059840"
      ]
    },
    {
      "x": 392,
      "y": 291,
      "size": 1,
      "price": "4683000000000000000000",
      "reserved": "",
      "salt": "0x0644051048e09e0e286cc978f376e07a11136a3f9a75df1f437e56f51740a6ed",
      "assetIds": [
        "55464657044963196816950587289035428064568320970692304673817341489687656669185",
        "55464657044963196816950587289035428064568320970692304673817341489687665059843",
        "55464657044963196816950587289035428064568320970692304673817341489687665059840"
      ]
    },
    {
      "x": 392,
      "y": 292,
      "size": 1,
      "price": "4683000000000000000000",
      "reserved": "",
      "salt": "0x86e8455594575f40b87a43c7a9c89483b21f421bd35fbd6e733e57171f41474f",
      "assetIds": [
        "55464657044963196816950587289035428064568320970692304673817341489687656669186",
        "55464657044963196816950587289035428064568320970692304673817341489687665059842",
        "55464657044963196816950587289035428064568320970692304673817341489687665059841"
      ]
    },
    {
      "x": 392,
      "y": 293,
      "size": 1,
      "price": "4683000000000000000000",
      "reserved": "",
      "salt": "0x0325cc5ac6d28498f614eeea1685d0de6a0520ee74a20920d562b2d86fdcf628",
      "assetIds": [
        "55464657044963196816950587289035428064568320970692304673817341489687656669184",
        "55464657044963196816950587289035428064568320970692304673817341489687665059843",
        "55464657044963196816950587289035428064568320970692304673817341489687665059840"
      ]
    },
    {
      "x": 392,
      "y": 294,
      "size": 1,
      "price": "4683000000000000000000",
      "reserved": "",
      "salt": "0xaae799f2808de7758e8efbb861628588e3da9c55796a08913c26a56ea2032d01",
      "assetIds": [
        "55464657044963196816950587289035428064568320970692304673817341489687656669185",
        "55464657044963196816950587289035428064568320970692304673817341489687665059843",
        "55464657044963196816950587289035428064568320970692304673817341489687665059840"
      ]
    },
    {
      "x": 392,
      "y": 295,
      "size": 1,
      "price": "4683000000000000000000",
      "reserved": "",
      "salt": "0x6e91f0e93d9cc43093a6f3213da512d1f70aecec46d0ebfa85be5b1a2c44cd64",
      "assetIds": [
        "55464657044963196816950587289035428064568320970692304673817341489687656669184",
        "55464657044963196816950587289035428064568320970692304673817341489687665059842",
        "55464657044963196816950587289035428064568320970692304673817341489687665059840"
      ]
    },
    {
      "x": 392,
      "y": 296,
      "size": 1,
      "price": "4683000000000000000000",
      "reserved": "",
      "salt": "0x0743b8ef0b4565c4ec870b6dae1b13e792eb2786c13694207f01a0a9dbee1742",
      "assetIds": [
        "55464657044963196816950587289035428064568320970692304673817341489687656669185",
        "55464657044963196816950587289035428064568320970692304673817341489687665059842",
        "55464657044963196816950587289035428064568320970692304673817341489687665059840"
      ]
    },
    {
      "x": 392,
      "y": 297,
      "size": 1,
      "price": "4683000000000000000000",
      "reserved": "",
      "salt": "0x896cb397ed446966e161f627ed48c43fd4b05d88ecc1a3cb7e440959713968c0",
      "assetIds": [
        "55464657044963196816950587289035428064568320970692304673817341489687656669186",
        "55464657044963196816950587289035428064568320970692304673817341489687665059843",
        "55464657044963196816950587289035428064568320970692304673817341489687665059841"
      ]
    },
    {
      "x": 392,
      "y": 298,
      "size": 1,
      "price": "4683000000000000000000",
      "reserved": "",
      "salt": "0x7511c3960154e7d078110e32be1b2be8f19594cec73892517df73ba1dd4f224a",
      "assetIds": [
        "55464657044963196816950587289035428064568320970692304673817341489687656669184",
        "55464657044963196816950587289035428064568320970692304673817341489687665059844",
        "55464657044963196816950587289035428064568320970692304673817341489687665059840"
      ]
    },
    {
      "x": 392,
      "y": 299,
      "size": 1,
      "price": "4683000000000000000000",
      "reserved": "",
      "salt": "0x89dc8e6799930e92a2323bda6be7d56e90c9e70ccb0b091142d816977225fc96",
      "assetIds": [
        "55464657044963196816950587289035428064568320970692304673817341489687656669186",
        "55464657044963196816950587289035428064568320970692304673817341489687665059844",
        "55464657044963196816950587289035428064568320970692304673817341489687665059841"
      ]
    },
    {
      "x": 392,
      "y": 300,
      "size": 1,
      "price": "4683000000000000000000",
      "reserved": "",
      "salt": "0x8dee40af2c6ec42c4e6fc9cd627ceb3f816102bfd7a9204a5799c3711fc25446",
      "assetIds": [
        "55464657044963196816950587289035428064568320970692304673817341489687656669184",
        "55464657044963196816950587289035428064568320970692304673817341489687665059842",
        "55464657044963196816950587289035428064568320970692304673817341489687665059840"
      ]
    },
    {
      "x": 392,
      "y": 301,
      "size": 1,
      "price": "4683000000000000000000",
      "reserved": "",
      "salt": "0xaed9f9e034d1b45a090d4583e5d8695738b0506a3a6627ce35845dfff5ab59b4",
      "assetIds": [
        "55464657044963196816950587289035428064568320970692304673817341489687656669185",
        "55464657044963196816950587289035428064568320970692304673817341489687665059842",
        "55464657044963196816950587289035428064568320970692304673817341489687665059840"
      ]
    },
    {
      "x": 392,
      "y": 302,
      "size": 1,
      "price": "4683000000000000000000",
      "reserved": "",
      "salt": "0x434b7fe4168402ef2bcdd35d63763b19514f0a0ab4d545a8e5e0af9f587a44d3",
      "assetIds": [
        "55464657044963196816950587289035428064568320970692304673817341489687656669185",
        "55464657044963196816950587289035428064568320970692304673817341489687665059843",
        "55464657044963196816950587289035428064568320970692304673817341489687665059840"
      ]
    },
    {
      "x": 392,
      "y": 306,
      "size": 1,
      "price": "4683000000000000000000",
      "reserved": "",
      "salt": "0x6e0dfa2d345f5004cb0dfe71dfa0fb7d12f56469cebf29b6415ce0f9edcedb8d",
      "assetIds": [
        "55464657044963196816950587289035428064568320970692304673817341489687656669186",
        "55464657044963196816950587289035428064568320970692304673817341489687665059843",
        "55464657044963196816950587289035428064568320970692304673817341489687665059841"
      ]
    },
    {
      "x": 392,
      "y": 307,
      "size": 1,
      "price": "4683000000000000000000",
      "reserved": "",
      "salt": "0x292241bb26cdd49ee72cb97afbf1dee047e6a8a7e8b27c7c0fdfe615ec10b4a6",
      "assetIds": [
        "55464657044963196816950587289035428064568320970692304673817341489687656669187",
        "55464657044963196816950587289035428064568320970692304673817341489687665059843",
        "55464657044963196816950587289035428064568320970692304673817341489687665059841"
      ]
    },
    {
      "x": 392,
      "y": 308,
      "size": 1,
      "price": "4683000000000000000000",
      "reserved": "",
      "salt": "0x9dc03ddc233fb2c9def3be9a257e18def38234338ea4495e1a18b43ba2c2897c",
      "assetIds": [
        "55464657044963196816950587289035428064568320970692304673817341489687656669186",
        "55464657044963196816950587289035428064568320970692304673817341489687665059842",
        "55464657044963196816950587289035428064568320970692304673817341489687665059841"
      ]
    },
    {
      "x": 393,
      "y": 222,
      "size": 1,
      "price": "4683000000000000000000",
      "reserved": "",
      "salt": "0xc5b0820dfbf0f30db2aa487cde9f9ac6fa72a08e612931282bee97cb50662bbf",
      "assetIds": [
        "55464657044963196816950587289035428064568320970692304673817341489687656669187",
        "55464657044963196816950587289035428064568320970692304673817341489687665059844",
        "55464657044963196816950587289035428064568320970692304673817341489687665059841"
      ]
    },
    {
      "x": 393,
      "y": 223,
      "size": 1,
      "price": "4683000000000000000000",
      "reserved": "",
      "salt": "0x795d53a14f711130d86763cb5e95471fea504d14c771de45caa9312e1ecaacb4",
      "assetIds": [
        "55464657044963196816950587289035428064568320970692304673817341489687656669185",
        "55464657044963196816950587289035428064568320970692304673817341489687665059842",
        "55464657044963196816950587289035428064568320970692304673817341489687665059840"
      ]
    },
    {
      "x": 393,
      "y": 224,
      "size": 1,
      "price": "4683000000000000000000",
      "reserved": "",
      "salt": "0x8b177f7c5632f655c5eb6aae3270667368cb7204dec623a40ad7b076b571057a",
      "assetIds": [
        "55464657044963196816950587289035428064568320970692304673817341489687656669184",
        "55464657044963196816950587289035428064568320970692304673817341489687665059843",
        "55464657044963196816950587289035428064568320970692304673817341489687665059840"
      ]
    },
    {
      "x": 393,
      "y": 225,
      "size": 1,
      "price": "4683000000000000000000",
      "reserved": "",
      "salt": "0xb17499f46df4fe7a929ba1013efd15bc1ec697c5048a5bbfbc9581ea2e42794f",
      "assetIds": [
        "55464657044963196816950587289035428064568320970692304673817341489687656669184",
        "55464657044963196816950587289035428064568320970692304673817341489687665059842",
        "55464657044963196816950587289035428064568320970692304673817341489687665059840"
      ]
    },
    {
      "x": 393,
      "y": 226,
      "size": 1,
      "price": "4683000000000000000000",
      "reserved": "",
      "salt": "0x4e96c9616ad0380e5c55580919c3138182775e76f510a67a05204d8886b395f5",
      "assetIds": [
        "55464657044963196816950587289035428064568320970692304673817341489687656669187",
        "55464657044963196816950587289035428064568320970692304673817341489687665059842",
        "55464657044963196816950587289035428064568320970692304673817341489687665059841"
      ]
    },
    {
      "x": 393,
      "y": 227,
      "size": 1,
      "price": "4683000000000000000000",
      "reserved": "",
      "salt": "0x2c7f3374a775d65ddb7bca547d1d5087ba9a68654776496183205170a3eea31a",
      "assetIds": [
        "55464657044963196816950587289035428064568320970692304673817341489687656669187",
        "55464657044963196816950587289035428064568320970692304673817341489687665059844",
        "55464657044963196816950587289035428064568320970692304673817341489687665059841"
      ]
    },
    {
      "x": 393,
      "y": 234,
      "size": 1,
      "price": "4683000000000000000000",
      "reserved": "",
      "salt": "0x5da70aa86d074e1e96c5934df256661cac7294b9d3688ba6d784ab0a1f9ddcfb",
      "assetIds": [
        "55464657044963196816950587289035428064568320970692304673817341489687656669185",
        "55464657044963196816950587289035428064568320970692304673817341489687665059844",
        "55464657044963196816950587289035428064568320970692304673817341489687665059840"
      ]
    },
    {
      "x": 393,
      "y": 235,
      "size": 1,
      "price": "4683000000000000000000",
      "reserved": "",
      "salt": "0xe690f358497157aa362925f426ab815e6a63ee0b88cd0fceb23cbda0e24cefa7",
      "assetIds": [
        "55464657044963196816950587289035428064568320970692304673817341489687656669187",
        "55464657044963196816950587289035428064568320970692304673817341489687665059843",
        "55464657044963196816950587289035428064568320970692304673817341489687665059841"
      ]
    },
    {
      "x": 393,
      "y": 236,
      "size": 1,
      "price": "4683000000000000000000",
      "reserved": "",
      "salt": "0x1c8f0e77edf6d6ab8b91643500b882a0713aee872edced32f449a381216ed36a",
      "assetIds": [
        "55464657044963196816950587289035428064568320970692304673817341489687656669184",
        "55464657044963196816950587289035428064568320970692304673817341489687665059844",
        "55464657044963196816950587289035428064568320970692304673817341489687665059840"
      ]
    },
    {
      "x": 393,
      "y": 237,
      "size": 1,
      "price": "4683000000000000000000",
      "reserved": "",
      "salt": "0xc0a7f27cccb6c16260b5380bf21941fbb2b4ab17cc4490d4b15698af5e26ffe2",
      "assetIds": [
        "55464657044963196816950587289035428064568320970692304673817341489687656669187",
        "55464657044963196816950587289035428064568320970692304673817341489687665059844",
        "55464657044963196816950587289035428064568320970692304673817341489687665059841"
      ]
    },
    {
      "x": 393,
      "y": 238,
      "size": 1,
      "price": "4683000000000000000000",
      "reserved": "",
      "salt": "0xfc68e53742915e2bc9366f8d09ce7e83a454ba6a4623685a99506c67bba8d3bc",
      "assetIds": [
        "55464657044963196816950587289035428064568320970692304673817341489687656669186",
        "55464657044963196816950587289035428064568320970692304673817341489687665059843",
        "55464657044963196816950587289035428064568320970692304673817341489687665059841"
      ]
    },
    {
      "x": 393,
      "y": 239,
      "size": 1,
      "price": "4683000000000000000000",
      "reserved": "",
      "salt": "0x2c0f92ee169ed47872e892b20074e218089f3ba3d2e5fa84bde2bece7ee7d0d1",
      "assetIds": [
        "55464657044963196816950587289035428064568320970692304673817341489687656669184",
        "55464657044963196816950587289035428064568320970692304673817341489687665059842",
        "55464657044963196816950587289035428064568320970692304673817341489687665059840"
      ]
    },
    {
      "x": 393,
      "y": 252,
      "size": 1,
      "price": "4683000000000000000000",
      "reserved": "",
      "salt": "0x38eb8af8b3cea14e48f24c52753779ce35219bca893d4ce08e3cece2dc2ff722",
      "assetIds": [
        "55464657044963196816950587289035428064568320970692304673817341489687656669185",
        "55464657044963196816950587289035428064568320970692304673817341489687665059842",
        "55464657044963196816950587289035428064568320970692304673817341489687665059840"
      ]
    },
    {
      "x": 393,
      "y": 253,
      "size": 1,
      "price": "4683000000000000000000",
      "reserved": "",
      "salt": "0x9820a089f4bd3ccb6f53de15f55149f5bafd36847bb84d9bf11bc17fff26e585",
      "assetIds": [
        "55464657044963196816950587289035428064568320970692304673817341489687656669184",
        "55464657044963196816950587289035428064568320970692304673817341489687665059842",
        "55464657044963196816950587289035428064568320970692304673817341489687665059840"
      ]
    },
    {
      "x": 393,
      "y": 254,
      "size": 1,
      "price": "4683000000000000000000",
      "reserved": "",
      "salt": "0x62b2d1e27a27f97bb9f1da9b3d172e5587f35ba6e153c7764a90aaeed377c660",
      "assetIds": [
        "55464657044963196816950587289035428064568320970692304673817341489687656669184",
        "55464657044963196816950587289035428064568320970692304673817341489687665059842",
        "55464657044963196816950587289035428064568320970692304673817341489687665059840"
      ]
    },
    {
      "x": 393,
      "y": 255,
      "size": 1,
      "price": "4683000000000000000000",
      "reserved": "",
      "salt": "0x2c455256a300ea213c2c02925bc8b8ffe04d7a330ebae1d3e9d951e7fce3fa40",
      "assetIds": [
        "55464657044963196816950587289035428064568320970692304673817341489687656669187",
        "55464657044963196816950587289035428064568320970692304673817341489687665059843",
        "55464657044963196816950587289035428064568320970692304673817341489687665059841"
      ]
    },
    {
      "x": 393,
      "y": 256,
      "size": 1,
      "price": "4683000000000000000000",
      "reserved": "",
      "salt": "0x6ee2645cb40db89cf8bae6080dda66135261f19b97e3f636d1c512820f6cfbaa",
      "assetIds": [
        "55464657044963196816950587289035428064568320970692304673817341489687656669187",
        "55464657044963196816950587289035428064568320970692304673817341489687665059842",
        "55464657044963196816950587289035428064568320970692304673817341489687665059841"
      ]
    },
    {
      "x": 393,
      "y": 257,
      "size": 1,
      "price": "4683000000000000000000",
      "reserved": "",
      "salt": "0x41eacdfde9b9a644afeff41389168aa5717127facc1477ed11013fc0acb5b4bb",
      "assetIds": [
        "55464657044963196816950587289035428064568320970692304673817341489687656669184",
        "55464657044963196816950587289035428064568320970692304673817341489687665059843",
        "55464657044963196816950587289035428064568320970692304673817341489687665059840"
      ]
    },
    {
      "x": 393,
      "y": 258,
      "size": 1,
      "price": "4683000000000000000000",
      "reserved": "",
      "salt": "0x4ee938fe8891043b785a5e29035fff37b056ad126e0f264def4ca7c5df4c920f",
      "assetIds": [
        "55464657044963196816950587289035428064568320970692304673817341489687656669187",
        "55464657044963196816950587289035428064568320970692304673817341489687665059842",
        "55464657044963196816950587289035428064568320970692304673817341489687665059841"
      ]
    },
    {
      "x": 393,
      "y": 259,
      "size": 1,
      "price": "4683000000000000000000",
      "reserved": "",
      "salt": "0x32ce4f4fdbb19a96e4b6934a3b68a76f0989622efad09c2e655c3b6a267ea64c",
      "assetIds": [
        "55464657044963196816950587289035428064568320970692304673817341489687656669187",
        "55464657044963196816950587289035428064568320970692304673817341489687665059843",
        "55464657044963196816950587289035428064568320970692304673817341489687665059841"
      ]
    },
    {
      "x": 393,
      "y": 260,
      "size": 1,
      "price": "4683000000000000000000",
      "reserved": "",
      "salt": "0x8dbe8396ae059349e648393221cf5bb131ae187f124f0f55730ad69bc8c1efbc",
      "assetIds": [
        "55464657044963196816950587289035428064568320970692304673817341489687656669187",
        "55464657044963196816950587289035428064568320970692304673817341489687665059843",
        "55464657044963196816950587289035428064568320970692304673817341489687665059841"
      ]
    },
    {
      "x": 393,
      "y": 288,
      "size": 1,
      "price": "4683000000000000000000",
      "reserved": "",
      "salt": "0x90a0ecd42596eb8a3c30e502201be7c01d65e30184372bb1491f0ac7ef7484ce",
      "assetIds": [
        "55464657044963196816950587289035428064568320970692304673817341489687656669184",
        "55464657044963196816950587289035428064568320970692304673817341489687665059844",
        "55464657044963196816950587289035428064568320970692304673817341489687665059840"
      ]
    },
    {
      "x": 393,
      "y": 289,
      "size": 1,
      "price": "4683000000000000000000",
      "reserved": "",
      "salt": "0x5f3a703974a4db3a3ea1b2dfca0a61c100a85a55934a6fd0b25e3e6cc3197d98",
      "assetIds": [
        "55464657044963196816950587289035428064568320970692304673817341489687656669184",
        "55464657044963196816950587289035428064568320970692304673817341489687665059842",
        "55464657044963196816950587289035428064568320970692304673817341489687665059840"
      ]
    },
    {
      "x": 393,
      "y": 290,
      "size": 1,
      "price": "4683000000000000000000",
      "reserved": "",
      "salt": "0x5bbca43a6bdf12d44a7477c149f6012b5af557d95da4703f70e5dc53a197d0b7",
      "assetIds": [
        "55464657044963196816950587289035428064568320970692304673817341489687656669185",
        "55464657044963196816950587289035428064568320970692304673817341489687665059844",
        "55464657044963196816950587289035428064568320970692304673817341489687665059840"
      ]
    },
    {
      "x": 393,
      "y": 291,
      "size": 1,
      "price": "4683000000000000000000",
      "reserved": "",
      "salt": "0x716842c08cf58d92fdd0592a50f97b9208a9a92179f746aff05009f94be506bf",
      "assetIds": [
        "55464657044963196816950587289035428064568320970692304673817341489687656669186",
        "55464657044963196816950587289035428064568320970692304673817341489687665059842",
        "55464657044963196816950587289035428064568320970692304673817341489687665059841"
      ]
    },
    {
      "x": 393,
      "y": 292,
      "size": 1,
      "price": "4683000000000000000000",
      "reserved": "",
      "salt": "0xe2a6fdcd9c16a61b38b7b5176ddf7ba844a8408e8fce32f47a6aff4839ed6063",
      "assetIds": [
        "55464657044963196816950587289035428064568320970692304673817341489687656669185",
        "55464657044963196816950587289035428064568320970692304673817341489687665059844",
        "55464657044963196816950587289035428064568320970692304673817341489687665059840"
      ]
    },
    {
      "x": 393,
      "y": 293,
      "size": 1,
      "price": "4683000000000000000000",
      "reserved": "",
      "salt": "0xd014b4bf4f58b1ec6f621e6e1c11c63a6536cbe2e39462dd3d247b81bf3746b2",
      "assetIds": [
        "55464657044963196816950587289035428064568320970692304673817341489687656669184",
        "55464657044963196816950587289035428064568320970692304673817341489687665059842",
        "55464657044963196816950587289035428064568320970692304673817341489687665059840"
      ]
    },
    {
      "x": 393,
      "y": 294,
      "size": 1,
      "price": "4683000000000000000000",
      "reserved": "",
      "salt": "0x5cfbe5133c309fc53ea42ac68c60ae497a55d4770a562b5602380c14cdeaede2",
      "assetIds": [
        "55464657044963196816950587289035428064568320970692304673817341489687656669185",
        "55464657044963196816950587289035428064568320970692304673817341489687665059842",
        "55464657044963196816950587289035428064568320970692304673817341489687665059840"
      ]
    },
    {
      "x": 393,
      "y": 295,
      "size": 1,
      "price": "4683000000000000000000",
      "reserved": "",
      "salt": "0x993ee20485b1a329ebffd949d3d19b7150647eb409d59f1794cbc3d6e5df3bb4",
      "assetIds": [
        "55464657044963196816950587289035428064568320970692304673817341489687656669184",
        "55464657044963196816950587289035428064568320970692304673817341489687665059844",
        "55464657044963196816950587289035428064568320970692304673817341489687665059840"
      ]
    },
    {
      "x": 393,
      "y": 296,
      "size": 1,
      "price": "4683000000000000000000",
      "reserved": "",
      "salt": "0x73f8506722e0116c83d4a3be0cd923a0c49ae0849d2dfa99764ad345fb06519f",
      "assetIds": [
        "55464657044963196816950587289035428064568320970692304673817341489687656669186",
        "55464657044963196816950587289035428064568320970692304673817341489687665059843",
        "55464657044963196816950587289035428064568320970692304673817341489687665059841"
      ]
    },
    {
      "x": 393,
      "y": 300,
      "size": 1,
      "price": "4683000000000000000000",
      "reserved": "",
      "salt": "0xcca372823c97cd3a6714318f76cca77272fa2568f3b72125d2b08a7ea30e8ffd",
      "assetIds": [
        "55464657044963196816950587289035428064568320970692304673817341489687656669184",
        "55464657044963196816950587289035428064568320970692304673817341489687665059842",
        "55464657044963196816950587289035428064568320970692304673817341489687665059840"
      ]
    },
    {
      "x": 393,
      "y": 301,
      "size": 1,
      "price": "4683000000000000000000",
      "reserved": "",
      "salt": "0xde0c0ba3d03f6a28e43a6b2560e095561918a0751ac6b7a19c3f4439b51de9dc",
      "assetIds": [
        "55464657044963196816950587289035428064568320970692304673817341489687656669185",
        "55464657044963196816950587289035428064568320970692304673817341489687665059843",
        "55464657044963196816950587289035428064568320970692304673817341489687665059840"
      ]
    },
    {
      "x": 393,
      "y": 302,
      "size": 1,
      "price": "4683000000000000000000",
      "reserved": "",
      "salt": "0x3cd0aab49caf40020c4e369d01bde12345566cd7af3652b689acd9ee442dd23e",
      "assetIds": [
        "55464657044963196816950587289035428064568320970692304673817341489687656669184",
        "55464657044963196816950587289035428064568320970692304673817341489687665059843",
        "55464657044963196816950587289035428064568320970692304673817341489687665059840"
      ]
    },
    {
      "x": 393,
      "y": 303,
      "size": 1,
      "price": "4683000000000000000000",
      "reserved": "",
      "salt": "0xf525e0c454c3fec301b4554854d6b4ae30a3c071e32828acad3fd06648dc87c9",
      "assetIds": [
        "55464657044963196816950587289035428064568320970692304673817341489687656669185",
        "55464657044963196816950587289035428064568320970692304673817341489687665059842",
        "55464657044963196816950587289035428064568320970692304673817341489687665059840"
      ]
    },
    {
      "x": 393,
      "y": 304,
      "size": 1,
      "price": "4683000000000000000000",
      "reserved": "",
      "salt": "0x781e0cc532886857a21b144373587f567f88186a46fe3784015f9868816dc6be",
      "assetIds": [
        "55464657044963196816950587289035428064568320970692304673817341489687656669184",
        "55464657044963196816950587289035428064568320970692304673817341489687665059844",
        "55464657044963196816950587289035428064568320970692304673817341489687665059840"
      ]
    },
    {
      "x": 393,
      "y": 305,
      "size": 1,
      "price": "4683000000000000000000",
      "reserved": "",
      "salt": "0x84eb56db7bfc8149599ddf07ee763a246e50fa7f880e26bdbcd54dbdf172818d",
      "assetIds": [
        "55464657044963196816950587289035428064568320970692304673817341489687656669185",
        "55464657044963196816950587289035428064568320970692304673817341489687665059842",
        "55464657044963196816950587289035428064568320970692304673817341489687665059840"
      ]
    },
    {
      "x": 393,
      "y": 306,
      "size": 1,
      "price": "4683000000000000000000",
      "reserved": "",
      "salt": "0x7f976ee5762209d7f7dad607bf970d6aa5cbcdfc9f71b69b315e956228414692",
      "assetIds": [
        "55464657044963196816950587289035428064568320970692304673817341489687656669186",
        "55464657044963196816950587289035428064568320970692304673817341489687665059844",
        "55464657044963196816950587289035428064568320970692304673817341489687665059841"
      ]
    },
    {
      "x": 393,
      "y": 307,
      "size": 1,
      "price": "4683000000000000000000",
      "reserved": "",
      "salt": "0xe603a62e76ca42436fb20814a7a14e7323782e46135e85c03335a3b5ea45ef50",
      "assetIds": [
        "55464657044963196816950587289035428064568320970692304673817341489687656669185",
        "55464657044963196816950587289035428064568320970692304673817341489687665059843",
        "55464657044963196816950587289035428064568320970692304673817341489687665059840"
      ]
    },
    {
      "x": 393,
      "y": 308,
      "size": 1,
      "price": "4683000000000000000000",
      "reserved": "",
      "salt": "0xd2368e39fb25a64f406451b3e64d4b318edb8e8a8b7f367b7ea7affc48af608e",
      "assetIds": [
        "55464657044963196816950587289035428064568320970692304673817341489687656669187",
        "55464657044963196816950587289035428064568320970692304673817341489687665059842",
        "55464657044963196816950587289035428064568320970692304673817341489687665059841"
      ]
    },
    {
      "x": 393,
      "y": 309,
      "size": 1,
      "price": "4683000000000000000000",
      "reserved": "",
      "salt": "0xc3e0c14510f4a77446a13b7714d5cd242c3f04de6dc485aa54787e862b855596",
      "assetIds": [
        "55464657044963196816950587289035428064568320970692304673817341489687656669186",
        "55464657044963196816950587289035428064568320970692304673817341489687665059844",
        "55464657044963196816950587289035428064568320970692304673817341489687665059841"
      ]
    },
    {
      "x": 393,
      "y": 310,
      "size": 1,
      "price": "4683000000000000000000",
      "reserved": "",
      "salt": "0xe4af28e88beb3b57f89698b3480a512072213abd3379a33b6fb946e3b82f3a0c",
      "assetIds": [
        "55464657044963196816950587289035428064568320970692304673817341489687656669187",
        "55464657044963196816950587289035428064568320970692304673817341489687665059844",
        "55464657044963196816950587289035428064568320970692304673817341489687665059841"
      ]
    },
    {
      "x": 393,
      "y": 311,
      "size": 1,
      "price": "4683000000000000000000",
      "reserved": "",
      "salt": "0xa3840bbf73b6b38f4af1b5b0f069cb8040171852c47ccaa0e79f8edc9f6b3570",
      "assetIds": [
        "55464657044963196816950587289035428064568320970692304673817341489687656669184",
        "55464657044963196816950587289035428064568320970692304673817341489687665059844",
        "55464657044963196816950587289035428064568320970692304673817341489687665059840"
      ]
    },
    {
      "x": 394,
      "y": 222,
      "size": 1,
      "price": "4683000000000000000000",
      "reserved": "",
      "salt": "0xd6a90b039cacc743d1c1bfe2c95033dd7b126dda7a22a9a48c5dc063c86314e6",
      "assetIds": [
        "55464657044963196816950587289035428064568320970692304673817341489687656669184",
        "55464657044963196816950587289035428064568320970692304673817341489687665059844",
        "55464657044963196816950587289035428064568320970692304673817341489687665059840"
      ]
    },
    {
      "x": 394,
      "y": 223,
      "size": 1,
      "price": "4683000000000000000000",
      "reserved": "",
      "salt": "0x5f2c239781a0fdc11efe55fced0eea97e03a7fdfb878b328ff21eef6b3b2971e",
      "assetIds": [
        "55464657044963196816950587289035428064568320970692304673817341489687656669187",
        "55464657044963196816950587289035428064568320970692304673817341489687665059844",
        "55464657044963196816950587289035428064568320970692304673817341489687665059841"
      ]
    },
    {
      "x": 394,
      "y": 224,
      "size": 1,
      "price": "4683000000000000000000",
      "reserved": "",
      "salt": "0x7de1fb644de2ac2da8437385832565195cd5cc359acaaf3cb049faf0fa02221e",
      "assetIds": [
        "55464657044963196816950587289035428064568320970692304673817341489687656669185",
        "55464657044963196816950587289035428064568320970692304673817341489687665059843",
        "55464657044963196816950587289035428064568320970692304673817341489687665059840"
      ]
    },
    {
      "x": 394,
      "y": 225,
      "size": 1,
      "price": "4683000000000000000000",
      "reserved": "",
      "salt": "0x36c4572be5be4fa286c9e1d831a0343bb691eb86330fc5d0a2e81eb5e7b3c23d",
      "assetIds": [
        "55464657044963196816950587289035428064568320970692304673817341489687656669186",
        "55464657044963196816950587289035428064568320970692304673817341489687665059842",
        "55464657044963196816950587289035428064568320970692304673817341489687665059841"
      ]
    },
    {
      "x": 394,
      "y": 226,
      "size": 1,
      "price": "4683000000000000000000",
      "reserved": "",
      "salt": "0xec4d29e2a83f6d84a4d866f39cbb19c6f7d51fa3a4442356e7eb39a27499ed76",
      "assetIds": [
        "55464657044963196816950587289035428064568320970692304673817341489687656669184",
        "55464657044963196816950587289035428064568320970692304673817341489687665059842",
        "55464657044963196816950587289035428064568320970692304673817341489687665059840"
      ]
    },
    {
      "x": 394,
      "y": 227,
      "size": 1,
      "price": "4683000000000000000000",
      "reserved": "",
      "salt": "0xca579c9473f64f1201b7265421cb73bda22dffd13f9f1c2a371729ea7b231ba8",
      "assetIds": [
        "55464657044963196816950587289035428064568320970692304673817341489687656669186",
        "55464657044963196816950587289035428064568320970692304673817341489687665059842",
        "55464657044963196816950587289035428064568320970692304673817341489687665059841"
      ]
    },
    {
      "x": 394,
      "y": 234,
      "size": 1,
      "price": "4683000000000000000000",
      "reserved": "",
      "salt": "0x8f72c7b94ae8e7a7b0ff5cfd7654528161cf8cc47f1d3d4d1a77d539e9833df1",
      "assetIds": [
        "55464657044963196816950587289035428064568320970692304673817341489687656669185",
        "55464657044963196816950587289035428064568320970692304673817341489687665059844",
        "55464657044963196816950587289035428064568320970692304673817341489687665059840"
      ]
    },
    {
      "x": 394,
      "y": 235,
      "size": 1,
      "price": "4683000000000000000000",
      "reserved": "",
      "salt": "0xcacc269b739d1dd474c38f727b8ddfe61bbb7bc7c904d9635f16ce5aef3a4490",
      "assetIds": [
        "55464657044963196816950587289035428064568320970692304673817341489687656669186",
        "55464657044963196816950587289035428064568320970692304673817341489687665059843",
        "55464657044963196816950587289035428064568320970692304673817341489687665059841"
      ]
    },
    {
      "x": 394,
      "y": 236,
      "size": 1,
      "price": "4683000000000000000000",
      "reserved": "",
      "salt": "0x218e6e8344d61936518cda93a9e256732dcd623dafb2fa669b35a5751e29f55e",
      "assetIds": [
        "55464657044963196816950587289035428064568320970692304673817341489687656669186",
        "55464657044963196816950587289035428064568320970692304673817341489687665059844",
        "55464657044963196816950587289035428064568320970692304673817341489687665059841"
      ]
    },
    {
      "x": 394,
      "y": 237,
      "size": 1,
      "price": "4683000000000000000000",
      "reserved": "",
      "salt": "0xf4d8e67875f682dc88dc327d30117e0e1c7c1a8d86038e8209903e3cdd1ed94a",
      "assetIds": [
        "55464657044963196816950587289035428064568320970692304673817341489687656669187",
        "55464657044963196816950587289035428064568320970692304673817341489687665059842",
        "55464657044963196816950587289035428064568320970692304673817341489687665059841"
      ]
    },
    {
      "x": 394,
      "y": 238,
      "size": 1,
      "price": "4683000000000000000000",
      "reserved": "",
      "salt": "0x8f0eee0eaf21ad5802539006c0e4236d13703e74bbfd6156aab2ea38a3fa0e4f",
      "assetIds": [
        "55464657044963196816950587289035428064568320970692304673817341489687656669185",
        "55464657044963196816950587289035428064568320970692304673817341489687665059844",
        "55464657044963196816950587289035428064568320970692304673817341489687665059840"
      ]
    },
    {
      "x": 394,
      "y": 239,
      "size": 1,
      "price": "4683000000000000000000",
      "reserved": "",
      "salt": "0xa70482620d7c6b916ef0a28d9928a89a8926efe0b3bb023a9f394289326603ee",
      "assetIds": [
        "55464657044963196816950587289035428064568320970692304673817341489687656669184",
        "55464657044963196816950587289035428064568320970692304673817341489687665059842",
        "55464657044963196816950587289035428064568320970692304673817341489687665059840"
      ]
    },
    {
      "x": 394,
      "y": 252,
      "size": 1,
      "price": "4683000000000000000000",
      "reserved": "",
      "salt": "0xcb1abb35e9915b69716e6360837b98bd84f64ec667f1c79559b1921f2f2cc78e",
      "assetIds": [
        "55464657044963196816950587289035428064568320970692304673817341489687656669185",
        "55464657044963196816950587289035428064568320970692304673817341489687665059842",
        "55464657044963196816950587289035428064568320970692304673817341489687665059840"
      ]
    },
    {
      "x": 394,
      "y": 253,
      "size": 1,
      "price": "4683000000000000000000",
      "reserved": "",
      "salt": "0x40c70958378fe3202cf1597861fc0f4a3178dd7b7ce41cbe685127ad8b39cd1c",
      "assetIds": [
        "55464657044963196816950587289035428064568320970692304673817341489687656669187",
        "55464657044963196816950587289035428064568320970692304673817341489687665059844",
        "55464657044963196816950587289035428064568320970692304673817341489687665059841"
      ]
    },
    {
      "x": 394,
      "y": 254,
      "size": 1,
      "price": "4683000000000000000000",
      "reserved": "",
      "salt": "0x6d27cdb9eb2f94e2d2937938add0b38383595474122e13ac0c6f037e8d8b30d8",
      "assetIds": [
        "55464657044963196816950587289035428064568320970692304673817341489687656669184",
        "55464657044963196816950587289035428064568320970692304673817341489687665059844",
        "55464657044963196816950587289035428064568320970692304673817341489687665059840"
      ]
    },
    {
      "x": 394,
      "y": 255,
      "size": 1,
      "price": "4683000000000000000000",
      "reserved": "",
      "salt": "0x6934710fc6f6f80cd94eeb264ef37ac09ceb3ecc28f0dc3a9f614495f0ca4802",
      "assetIds": [
        "55464657044963196816950587289035428064568320970692304673817341489687656669187",
        "55464657044963196816950587289035428064568320970692304673817341489687665059842",
        "55464657044963196816950587289035428064568320970692304673817341489687665059841"
      ]
    },
    {
      "x": 394,
      "y": 256,
      "size": 1,
      "price": "4683000000000000000000",
      "reserved": "",
      "salt": "0x65e3bf1019833680752f5f6e984f5c4eaa08323174067889080d95f6d7b86253",
      "assetIds": [
        "55464657044963196816950587289035428064568320970692304673817341489687656669186",
        "55464657044963196816950587289035428064568320970692304673817341489687665059844",
        "55464657044963196816950587289035428064568320970692304673817341489687665059841"
      ]
    },
    {
      "x": 394,
      "y": 257,
      "size": 1,
      "price": "4683000000000000000000",
      "reserved": "",
      "salt": "0xc7367e47c87d5cda403b4d1fbd48d183fbbadce30cfb25c72f578ed0a1dc9804",
      "assetIds": [
        "55464657044963196816950587289035428064568320970692304673817341489687656669185",
        "55464657044963196816950587289035428064568320970692304673817341489687665059844",
        "55464657044963196816950587289035428064568320970692304673817341489687665059840"
      ]
    },
    {
      "x": 394,
      "y": 258,
      "size": 1,
      "price": "4683000000000000000000",
      "reserved": "",
      "salt": "0x122190c8f7b4bc1ffade840990417fac643026868f4105c031d15b3e6fe1f633",
      "assetIds": [
        "55464657044963196816950587289035428064568320970692304673817341489687656669185",
        "55464657044963196816950587289035428064568320970692304673817341489687665059843",
        "55464657044963196816950587289035428064568320970692304673817341489687665059840"
      ]
    },
    {
      "x": 394,
      "y": 259,
      "size": 1,
      "price": "4683000000000000000000",
      "reserved": "",
      "salt": "0x5c7f84065ee7e95de26a8acdcb53387f5815ed55d8c74eb74803cf66d83a1344",
      "assetIds": [
        "55464657044963196816950587289035428064568320970692304673817341489687656669184",
        "55464657044963196816950587289035428064568320970692304673817341489687665059843",
        "55464657044963196816950587289035428064568320970692304673817341489687665059840"
      ]
    },
    {
      "x": 394,
      "y": 260,
      "size": 1,
      "price": "4683000000000000000000",
      "reserved": "",
      "salt": "0xacc0dae3758f584bd1d05723d2cc7ae698485aeb5ab74eb5c05c75db5d826480",
      "assetIds": [
        "55464657044963196816950587289035428064568320970692304673817341489687656669185",
        "55464657044963196816950587289035428064568320970692304673817341489687665059843",
        "55464657044963196816950587289035428064568320970692304673817341489687665059840"
      ]
    },
    {
      "x": 394,
      "y": 288,
      "size": 1,
      "price": "4683000000000000000000",
      "reserved": "",
      "salt": "0x35b0963ce73f4b6f519509e20c75287a08a8f5b96f5041a0a9916953bf8d7caf",
      "assetIds": [
        "55464657044963196816950587289035428064568320970692304673817341489687656669186",
        "55464657044963196816950587289035428064568320970692304673817341489687665059844",
        "55464657044963196816950587289035428064568320970692304673817341489687665059841"
      ]
    },
    {
      "x": 394,
      "y": 289,
      "size": 1,
      "price": "1011000000000000000000",
      "reserved": "0x7a9fe22691c811ea339d9b73150e6911a5343dca",
      "salt": "0xab3a0a6411e4efec73891b1fd7f8e89f97524fd7caff4f2ac62e4f867f761354",
      "assetIds": []
    },
    {
      "x": 394,
      "y": 290,
      "size": 1,
      "price": "4683000000000000000000",
      "reserved": "",
      "salt": "0xea35e3676f093e701db0acef856a97fba0ac7bb030d77e893d3d4861bf587713",
      "assetIds": [
        "55464657044963196816950587289035428064568320970692304673817341489687656669186",
        "55464657044963196816950587289035428064568320970692304673817341489687665059843",
        "55464657044963196816950587289035428064568320970692304673817341489687665059841"
      ]
    },
    {
      "x": 394,
      "y": 291,
      "size": 1,
      "price": "4683000000000000000000",
      "reserved": "",
      "salt": "0x4b64b24019ce62b73c09e0d0bcfe226efd6ce68a92b986d503136660c210caae",
      "assetIds": [
        "55464657044963196816950587289035428064568320970692304673817341489687656669187",
        "55464657044963196816950587289035428064568320970692304673817341489687665059843",
        "55464657044963196816950587289035428064568320970692304673817341489687665059841"
      ]
    },
    {
      "x": 394,
      "y": 292,
      "size": 1,
      "price": "4683000000000000000000",
      "reserved": "",
      "salt": "0x874324d0a94002b141de678b49dd9ff411a23e37901d31c3e0f265458b690cf0",
      "assetIds": [
        "55464657044963196816950587289035428064568320970692304673817341489687656669184",
        "55464657044963196816950587289035428064568320970692304673817341489687665059842",
        "55464657044963196816950587289035428064568320970692304673817341489687665059840"
      ]
    },
    {
      "x": 394,
      "y": 293,
      "size": 1,
      "price": "4683000000000000000000",
      "reserved": "",
      "salt": "0x05c7da077ee97d60f5ebe289da947bfdfd590103e804de82b807e239820ac91a",
      "assetIds": [
        "55464657044963196816950587289035428064568320970692304673817341489687656669184",
        "55464657044963196816950587289035428064568320970692304673817341489687665059842",
        "55464657044963196816950587289035428064568320970692304673817341489687665059840"
      ]
    },
    {
      "x": 394,
      "y": 294,
      "size": 1,
      "price": "4683000000000000000000",
      "reserved": "",
      "salt": "0x55556b63946ef2b2daba015d846f67cda9f5fc43c07263218a75f41b0a21eb14",
      "assetIds": [
        "55464657044963196816950587289035428064568320970692304673817341489687656669185",
        "55464657044963196816950587289035428064568320970692304673817341489687665059843",
        "55464657044963196816950587289035428064568320970692304673817341489687665059840"
      ]
    },
    {
      "x": 394,
      "y": 295,
      "size": 1,
      "price": "4683000000000000000000",
      "reserved": "",
      "salt": "0xee43982c96d9762eb8b52bda9f26461fb8352f3882ad9e4e54a4a508f6cba502",
      "assetIds": [
        "55464657044963196816950587289035428064568320970692304673817341489687656669186",
        "55464657044963196816950587289035428064568320970692304673817341489687665059843",
        "55464657044963196816950587289035428064568320970692304673817341489687665059841"
      ]
    },
    {
      "x": 394,
      "y": 296,
      "size": 1,
      "price": "4683000000000000000000",
      "reserved": "",
      "salt": "0x7936e7f9ea0a8d5e65a9ac8ccf9f8723fa873f2db4a4e84c802c55c6bc4f0c0f",
      "assetIds": [
        "55464657044963196816950587289035428064568320970692304673817341489687656669186",
        "55464657044963196816950587289035428064568320970692304673817341489687665059844",
        "55464657044963196816950587289035428064568320970692304673817341489687665059841"
      ]
    },
    {
      "x": 394,
      "y": 300,
      "size": 1,
      "price": "4683000000000000000000",
      "reserved": "",
      "salt": "0xd0c662fe527cbb3ce1f1104e326cab7056bca2a822e539032702a1d0fe0aaa6a",
      "assetIds": [
        "55464657044963196816950587289035428064568320970692304673817341489687656669186",
        "55464657044963196816950587289035428064568320970692304673817341489687665059843",
        "55464657044963196816950587289035428064568320970692304673817341489687665059841"
      ]
    },
    {
      "x": 394,
      "y": 301,
      "size": 1,
      "price": "4683000000000000000000",
      "reserved": "",
      "salt": "0x4368b56900e6da0f581e153d5f4c250669f126310fc6b84a10b199d3d8ccaaa3",
      "assetIds": [
        "55464657044963196816950587289035428064568320970692304673817341489687656669186",
        "55464657044963196816950587289035428064568320970692304673817341489687665059842",
        "55464657044963196816950587289035428064568320970692304673817341489687665059841"
      ]
    },
    {
      "x": 394,
      "y": 302,
      "size": 1,
      "price": "4683000000000000000000",
      "reserved": "",
      "salt": "0x2f8be0ff7cba40ef9ac385b2014113fc2312f194024130de38e5b03417ccb33b",
      "assetIds": [
        "55464657044963196816950587289035428064568320970692304673817341489687656669186",
        "55464657044963196816950587289035428064568320970692304673817341489687665059844",
        "55464657044963196816950587289035428064568320970692304673817341489687665059841"
      ]
    },
    {
      "x": 394,
      "y": 303,
      "size": 1,
      "price": "4683000000000000000000",
      "reserved": "",
      "salt": "0xcee156fdb94da52abc1530854d62051393bc02cbcdb4c651435269f708036eb8",
      "assetIds": [
        "55464657044963196816950587289035428064568320970692304673817341489687656669187",
        "55464657044963196816950587289035428064568320970692304673817341489687665059843",
        "55464657044963196816950587289035428064568320970692304673817341489687665059841"
      ]
    },
    {
      "x": 394,
      "y": 304,
      "size": 1,
      "price": "4683000000000000000000",
      "reserved": "",
      "salt": "0xcd07b22fcffb20d9fc6ca50d548590dee852d7cae1a17da986623b13fb954085",
      "assetIds": [
        "55464657044963196816950587289035428064568320970692304673817341489687656669187",
        "55464657044963196816950587289035428064568320970692304673817341489687665059842",
        "55464657044963196816950587289035428064568320970692304673817341489687665059841"
      ]
    },
    {
      "x": 394,
      "y": 305,
      "size": 1,
      "price": "4683000000000000000000",
      "reserved": "",
      "salt": "0x8a4fc4a12c3e8b6fef47117828e4fdd0decfc78fa3a53c03d4c8614ac8dad168",
      "assetIds": [
        "55464657044963196816950587289035428064568320970692304673817341489687656669187",
        "55464657044963196816950587289035428064568320970692304673817341489687665059844",
        "55464657044963196816950587289035428064568320970692304673817341489687665059841"
      ]
    },
    {
      "x": 394,
      "y": 306,
      "size": 1,
      "price": "4683000000000000000000",
      "reserved": "",
      "salt": "0xc5eb393b880d548af73fd02fda411917b3b26c3d9146d8d3800e42695876bdcc",
      "assetIds": [
        "55464657044963196816950587289035428064568320970692304673817341489687656669186",
        "55464657044963196816950587289035428064568320970692304673817341489687665059843",
        "55464657044963196816950587289035428064568320970692304673817341489687665059841"
      ]
    },
    {
      "x": 394,
      "y": 307,
      "size": 1,
      "price": "1011000000000000000000",
      "reserved": "0x7a9fe22691c811ea339d9b73150e6911a5343dca",
      "salt": "0xb357221cf7e10b5755c2fbe7ee94c5b4d8574c46abc35691f7491868e5155428",
      "assetIds": []
    },
    {
      "x": 394,
      "y": 308,
      "size": 1,
      "price": "4683000000000000000000",
      "reserved": "",
      "salt": "0xdc3effdacf7927a15e5969a5b8c25cfb0ff9d06b9b1a5bcc80aa21b4ab7198aa",
      "assetIds": [
        "55464657044963196816950587289035428064568320970692304673817341489687656669184",
        "55464657044963196816950587289035428064568320970692304673817341489687665059844",
        "55464657044963196816950587289035428064568320970692304673817341489687665059840"
      ]
    },
    {
      "x": 394,
      "y": 309,
      "size": 1,
      "price": "4683000000000000000000",
      "reserved": "",
      "salt": "0xab31861b54ca87cee85ec0eaa2d06ca7a18d2c4d59c21e3f0ab25ce8c19cb467",
      "assetIds": [
        "55464657044963196816950587289035428064568320970692304673817341489687656669187",
        "55464657044963196816950587289035428064568320970692304673817341489687665059842",
        "55464657044963196816950587289035428064568320970692304673817341489687665059841"
      ]
    },
    {
      "x": 394,
      "y": 310,
      "size": 1,
      "price": "4683000000000000000000",
      "reserved": "",
      "salt": "0x12245d50305b0f9d9f82eda9822b1e1b44fa58c58b28aba2f21f975efcab86f7",
      "assetIds": [
        "55464657044963196816950587289035428064568320970692304673817341489687656669184",
        "55464657044963196816950587289035428064568320970692304673817341489687665059843",
        "55464657044963196816950587289035428064568320970692304673817341489687665059840"
      ]
    },
    {
      "x": 394,
      "y": 311,
      "size": 1,
      "price": "4683000000000000000000",
      "reserved": "",
      "salt": "0x3f82ed1728c2e666e037d8e4ebc2b8eead1540afe4eedd070fa0ddd93b2976a1",
      "assetIds": [
        "55464657044963196816950587289035428064568320970692304673817341489687656669187",
        "55464657044963196816950587289035428064568320970692304673817341489687665059844",
        "55464657044963196816950587289035428064568320970692304673817341489687665059841"
      ]
    },
    {
      "x": 395,
      "y": 222,
      "size": 1,
      "price": "4683000000000000000000",
      "reserved": "",
      "salt": "0x1fec228ab15db7803900862a5d857ab1bac699e2fd9fa5bb923614fd5ffaded6",
      "assetIds": [
        "55464657044963196816950587289035428064568320970692304673817341489687656669184",
        "55464657044963196816950587289035428064568320970692304673817341489687665059844",
        "55464657044963196816950587289035428064568320970692304673817341489687665059840"
      ]
    },
    {
      "x": 395,
      "y": 223,
      "size": 1,
      "price": "1011000000000000000000",
      "reserved": "0x7a9fe22691c811ea339d9b73150e6911a5343dca",
      "salt": "0x40b3c6bd821f37f37b24c92614797b1d4160ac48a9340cd4a7ca4dcbc706c7a8",
      "assetIds": []
    },
    {
      "x": 395,
      "y": 224,
      "size": 1,
      "price": "4683000000000000000000",
      "reserved": "",
      "salt": "0x8312e3ac252ebe1ee8162b0308495a6ebf394144f9252a1af4e9adadd1e7a180",
      "assetIds": [
        "55464657044963196816950587289035428064568320970692304673817341489687656669187",
        "55464657044963196816950587289035428064568320970692304673817341489687665059842",
        "55464657044963196816950587289035428064568320970692304673817341489687665059841"
      ]
    },
    {
      "x": 395,
      "y": 225,
      "size": 1,
      "price": "4683000000000000000000",
      "reserved": "",
      "salt": "0xa6b52655ae8fe36775ca003989b240439c9f65d54f9290b5b103481bdbf3f2c1",
      "assetIds": [
        "55464657044963196816950587289035428064568320970692304673817341489687656669184",
        "55464657044963196816950587289035428064568320970692304673817341489687665059843",
        "55464657044963196816950587289035428064568320970692304673817341489687665059840"
      ]
    },
    {
      "x": 395,
      "y": 226,
      "size": 1,
      "price": "4683000000000000000000",
      "reserved": "",
      "salt": "0x8b3c0932f8bcf5f5d9f68fd5c2337272d3e4ed99372a2f4465064b1c11d6b484",
      "assetIds": [
        "55464657044963196816950587289035428064568320970692304673817341489687656669184",
        "55464657044963196816950587289035428064568320970692304673817341489687665059842",
        "55464657044963196816950587289035428064568320970692304673817341489687665059840"
      ]
    },
    {
      "x": 395,
      "y": 227,
      "size": 1,
      "price": "4683000000000000000000",
      "reserved": "",
      "salt": "0x2112da8fe3f8eb835baa8d273782c7b95ed76d7543d69d7d512f9a986066b1bd",
      "assetIds": [
        "55464657044963196816950587289035428064568320970692304673817341489687656669187",
        "55464657044963196816950587289035428064568320970692304673817341489687665059842",
        "55464657044963196816950587289035428064568320970692304673817341489687665059841"
      ]
    },
    {
      "x": 395,
      "y": 234,
      "size": 1,
      "price": "4683000000000000000000",
      "reserved": "",
      "salt": "0x56724c3a57e816675aa03aa342010be5a9744a32544088a0720ffee3e5a6ef0c",
      "assetIds": [
        "55464657044963196816950587289035428064568320970692304673817341489687656669186",
        "55464657044963196816950587289035428064568320970692304673817341489687665059843",
        "55464657044963196816950587289035428064568320970692304673817341489687665059841"
      ]
    },
    {
      "x": 395,
      "y": 235,
      "size": 1,
      "price": "4683000000000000000000",
      "reserved": "",
      "salt": "0x0187f9569b1f614fb24696f65e609784ee145d5ebf5a5ffccb27b3f31d55cbfe",
      "assetIds": [
        "55464657044963196816950587289035428064568320970692304673817341489687656669185",
        "55464657044963196816950587289035428064568320970692304673817341489687665059842",
        "55464657044963196816950587289035428064568320970692304673817341489687665059840"
      ]
    },
    {
      "x": 395,
      "y": 236,
      "size": 1,
      "price": "4683000000000000000000",
      "reserved": "",
      "salt": "0x454b869e5b0c9fb3d29e9e9e0c28db6544d74849b3fa534dd9f1e87351d62f7c",
      "assetIds": [
        "55464657044963196816950587289035428064568320970692304673817341489687656669186",
        "55464657044963196816950587289035428064568320970692304673817341489687665059843",
        "55464657044963196816950587289035428064568320970692304673817341489687665059841"
      ]
    },
    {
      "x": 395,
      "y": 237,
      "size": 1,
      "price": "4683000000000000000000",
      "reserved": "",
      "salt": "0x501c767555a62abe0a7a10a9b1d33c8c97d11d90c1b30ce5f0d6bdfa116461b1",
      "assetIds": [
        "55464657044963196816950587289035428064568320970692304673817341489687656669184",
        "55464657044963196816950587289035428064568320970692304673817341489687665059843",
        "55464657044963196816950587289035428064568320970692304673817341489687665059840"
      ]
    },
    {
      "x": 395,
      "y": 238,
      "size": 1,
      "price": "4683000000000000000000",
      "reserved": "",
      "salt": "0xf04cf005da0866dd1984daa3aec5fe897239d62e1d683e296ee137d19cc44ea6",
      "assetIds": [
        "55464657044963196816950587289035428064568320970692304673817341489687656669186",
        "55464657044963196816950587289035428064568320970692304673817341489687665059843",
        "55464657044963196816950587289035428064568320970692304673817341489687665059841"
      ]
    },
    {
      "x": 395,
      "y": 239,
      "size": 1,
      "price": "4683000000000000000000",
      "reserved": "",
      "salt": "0x5fd1eb47909d985c58969255b4ab1c200e80a222cbeac56f96851d1e386f62fe",
      "assetIds": [
        "55464657044963196816950587289035428064568320970692304673817341489687656669186",
        "55464657044963196816950587289035428064568320970692304673817341489687665059842",
        "55464657044963196816950587289035428064568320970692304673817341489687665059841"
      ]
    },
    {
      "x": 395,
      "y": 252,
      "size": 1,
      "price": "4683000000000000000000",
      "reserved": "",
      "salt": "0x5e8d1ce047533be04e91d8c07022ac2d69fbdf5b7d1b305b5e5e1af0c9011004",
      "assetIds": [
        "55464657044963196816950587289035428064568320970692304673817341489687656669185",
        "55464657044963196816950587289035428064568320970692304673817341489687665059842",
        "55464657044963196816950587289035428064568320970692304673817341489687665059840"
      ]
    },
    {
      "x": 395,
      "y": 253,
      "size": 1,
      "price": "4683000000000000000000",
      "reserved": "",
      "salt": "0xac2b039190765c980e8a28b4ce90351596d8d1787f55f1aadb8676743f37ab3d",
      "assetIds": [
        "55464657044963196816950587289035428064568320970692304673817341489687656669184",
        "55464657044963196816950587289035428064568320970692304673817341489687665059842",
        "55464657044963196816950587289035428064568320970692304673817341489687665059840"
      ]
    },
    {
      "x": 395,
      "y": 254,
      "size": 1,
      "price": "4683000000000000000000",
      "reserved": "",
      "salt": "0xcab957d56ab58423623d6efc98ab88d2a59386afa4e90bc95b4a62fe9bd4a428",
      "assetIds": [
        "55464657044963196816950587289035428064568320970692304673817341489687656669187",
        "55464657044963196816950587289035428064568320970692304673817341489687665059843",
        "55464657044963196816950587289035428064568320970692304673817341489687665059841"
      ]
    },
    {
      "x": 395,
      "y": 255,
      "size": 1,
      "price": "4683000000000000000000",
      "reserved": "",
      "salt": "0x330ac8015e7f2e6f9b16df93cbe5da4328b911c879814b88b6094a200ef31558",
      "assetIds": [
        "55464657044963196816950587289035428064568320970692304673817341489687656669185",
        "55464657044963196816950587289035428064568320970692304673817341489687665059844",
        "55464657044963196816950587289035428064568320970692304673817341489687665059840"
      ]
    },
    {
      "x": 395,
      "y": 256,
      "size": 1,
      "price": "4683000000000000000000",
      "reserved": "",
      "salt": "0x02d6ba7e0e6b02680c0150e288c7cfe86007022d093d66f8e18a538b3caa228a",
      "assetIds": [
        "55464657044963196816950587289035428064568320970692304673817341489687656669187",
        "55464657044963196816950587289035428064568320970692304673817341489687665059843",
        "55464657044963196816950587289035428064568320970692304673817341489687665059841"
      ]
    },
    {
      "x": 395,
      "y": 257,
      "size": 1,
      "price": "4683000000000000000000",
      "reserved": "",
      "salt": "0x09eca338c7fee7060473a2fcfecf1076d0911706f2ad310265898da1662a96b5",
      "assetIds": [
        "55464657044963196816950587289035428064568320970692304673817341489687656669186",
        "55464657044963196816950587289035428064568320970692304673817341489687665059843",
        "55464657044963196816950587289035428064568320970692304673817341489687665059841"
      ]
    },
    {
      "x": 395,
      "y": 258,
      "size": 1,
      "price": "4683000000000000000000",
      "reserved": "",
      "salt": "0xb3763daec9d287fdbbd56b1666be5f1961916be91afe94cda571abc5ba66c739",
      "assetIds": [
        "55464657044963196816950587289035428064568320970692304673817341489687656669185",
        "55464657044963196816950587289035428064568320970692304673817341489687665059843",
        "55464657044963196816950587289035428064568320970692304673817341489687665059840"
      ]
    },
    {
      "x": 395,
      "y": 259,
      "size": 1,
      "price": "4683000000000000000000",
      "reserved": "",
      "salt": "0xe5ee4ca89558d1ef8c8aa8731d5321c30450bfb1e174e3da4dfec0a4f4dce2f4",
      "assetIds": [
        "55464657044963196816950587289035428064568320970692304673817341489687656669187",
        "55464657044963196816950587289035428064568320970692304673817341489687665059843",
        "55464657044963196816950587289035428064568320970692304673817341489687665059841"
      ]
    },
    {
      "x": 395,
      "y": 260,
      "size": 1,
      "price": "4683000000000000000000",
      "reserved": "",
      "salt": "0x7d87e2a71b5c39b6261ac6689ffccd0de9fae24c4b7512cbf2a752bd03c709a6",
      "assetIds": [
        "55464657044963196816950587289035428064568320970692304673817341489687656669187",
        "55464657044963196816950587289035428064568320970692304673817341489687665059842",
        "55464657044963196816950587289035428064568320970692304673817341489687665059841"
      ]
    },
    {
      "x": 395,
      "y": 288,
      "size": 1,
      "price": "4683000000000000000000",
      "reserved": "",
      "salt": "0x55d9cb2d354433ef8016b819546e6547f5f11cd6ba3664773d3e678a2b587137",
      "assetIds": [
        "55464657044963196816950587289035428064568320970692304673817341489687656669184",
        "55464657044963196816950587289035428064568320970692304673817341489687665059843",
        "55464657044963196816950587289035428064568320970692304673817341489687665059840"
      ]
    },
    {
      "x": 395,
      "y": 289,
      "size": 1,
      "price": "4683000000000000000000",
      "reserved": "",
      "salt": "0x9c1ebda61686e8b5f582e1e769839e7046e892d572565523413f77a686a00d10",
      "assetIds": [
        "55464657044963196816950587289035428064568320970692304673817341489687656669185",
        "55464657044963196816950587289035428064568320970692304673817341489687665059842",
        "55464657044963196816950587289035428064568320970692304673817341489687665059840"
      ]
    },
    {
      "x": 395,
      "y": 290,
      "size": 1,
      "price": "4683000000000000000000",
      "reserved": "",
      "salt": "0x3d98fa2ae5c6c49e3d4f7673189a5c0284b2d3d805c66030cd47f9425f41a62b",
      "assetIds": [
        "55464657044963196816950587289035428064568320970692304673817341489687656669186",
        "55464657044963196816950587289035428064568320970692304673817341489687665059843",
        "55464657044963196816950587289035428064568320970692304673817341489687665059841"
      ]
    },
    {
      "x": 395,
      "y": 291,
      "size": 1,
      "price": "4683000000000000000000",
      "reserved": "",
      "salt": "0x92e9b8205656551d947ed0c11db46a9019d86bdfe8fea2df5f1e12b80933de22",
      "assetIds": [
        "55464657044963196816950587289035428064568320970692304673817341489687656669187",
        "55464657044963196816950587289035428064568320970692304673817341489687665059843",
        "55464657044963196816950587289035428064568320970692304673817341489687665059841"
      ]
    },
    {
      "x": 395,
      "y": 292,
      "size": 1,
      "price": "4683000000000000000000",
      "reserved": "",
      "salt": "0xdae800a647fc9e4175b7e9e5cde365189eaa06d375c7dbf6186bc80c1bd89d85",
      "assetIds": [
        "55464657044963196816950587289035428064568320970692304673817341489687656669186",
        "55464657044963196816950587289035428064568320970692304673817341489687665059844",
        "55464657044963196816950587289035428064568320970692304673817341489687665059841"
      ]
    },
    {
      "x": 395,
      "y": 293,
      "size": 1,
      "price": "4683000000000000000000",
      "reserved": "",
      "salt": "0x74ccbb67d0e2c552a399957c0e461c3a48be8617bb742d0c6ec828a5b0103496",
      "assetIds": [
        "55464657044963196816950587289035428064568320970692304673817341489687656669184",
        "55464657044963196816950587289035428064568320970692304673817341489687665059842",
        "55464657044963196816950587289035428064568320970692304673817341489687665059840"
      ]
    },
    {
      "x": 395,
      "y": 294,
      "size": 1,
      "price": "4683000000000000000000",
      "reserved": "",
      "salt": "0xa1621443fa0e051297123faeca4a297218e5146c088fd62efe0c56fed8beaed1",
      "assetIds": [
        "55464657044963196816950587289035428064568320970692304673817341489687656669187",
        "55464657044963196816950587289035428064568320970692304673817341489687665059842",
        "55464657044963196816950587289035428064568320970692304673817341489687665059841"
      ]
    },
    {
      "x": 395,
      "y": 295,
      "size": 1,
      "price": "4683000000000000000000",
      "reserved": "",
      "salt": "0xe1ea2c72fd68696c4a825ab0007e0f5a6dbf41e3072dc86d7982f661bf051f92",
      "assetIds": [
        "55464657044963196816950587289035428064568320970692304673817341489687656669186",
        "55464657044963196816950587289035428064568320970692304673817341489687665059842",
        "55464657044963196816950587289035428064568320970692304673817341489687665059841"
      ]
    },
    {
      "x": 395,
      "y": 296,
      "size": 1,
      "price": "4683000000000000000000",
      "reserved": "",
      "salt": "0x3d42d028757d85e86a426436dbf7573fac0eb8cb6c5e7c4782c066401b1036eb",
      "assetIds": [
        "55464657044963196816950587289035428064568320970692304673817341489687656669186",
        "55464657044963196816950587289035428064568320970692304673817341489687665059843",
        "55464657044963196816950587289035428064568320970692304673817341489687665059841"
      ]
    },
    {
      "x": 395,
      "y": 300,
      "size": 1,
      "price": "4683000000000000000000",
      "reserved": "",
      "salt": "0xaa2f65c2833289ee9e9e3d088e446a14eb8e8a7ad973ccd08de3b495388e11b6",
      "assetIds": [
        "55464657044963196816950587289035428064568320970692304673817341489687656669187",
        "55464657044963196816950587289035428064568320970692304673817341489687665059843",
        "55464657044963196816950587289035428064568320970692304673817341489687665059841"
      ]
    },
    {
      "x": 395,
      "y": 301,
      "size": 1,
      "price": "4683000000000000000000",
      "reserved": "",
      "salt": "0x0a814e2d0c2e9e56336c5e42a52bce5f1b6f6cbaf14f4621771b48102c27527d",
      "assetIds": [
        "55464657044963196816950587289035428064568320970692304673817341489687656669184",
        "55464657044963196816950587289035428064568320970692304673817341489687665059843",
        "55464657044963196816950587289035428064568320970692304673817341489687665059840"
      ]
    },
    {
      "x": 395,
      "y": 302,
      "size": 1,
      "price": "4683000000000000000000",
      "reserved": "",
      "salt": "0xe88575e5647d32ebd09924621fe070d99be7386c66ee2e4f025546a858c35975",
      "assetIds": [
        "55464657044963196816950587289035428064568320970692304673817341489687656669186",
        "55464657044963196816950587289035428064568320970692304673817341489687665059842",
        "55464657044963196816950587289035428064568320970692304673817341489687665059841"
      ]
    },
    {
      "x": 395,
      "y": 303,
      "size": 1,
      "price": "4683000000000000000000",
      "reserved": "",
      "salt": "0x6158673e4bb716f8ff40680a088e65c7662e7450366a2c55235898200ed5626e",
      "assetIds": [
        "55464657044963196816950587289035428064568320970692304673817341489687656669185",
        "55464657044963196816950587289035428064568320970692304673817341489687665059843",
        "55464657044963196816950587289035428064568320970692304673817341489687665059840"
      ]
    },
    {
      "x": 395,
      "y": 304,
      "size": 1,
      "price": "4683000000000000000000",
      "reserved": "",
      "salt": "0x445560beca206b70ab25bd8a31f5cb177b89702db652a1bab9bc2258d3ae0320",
      "assetIds": [
        "55464657044963196816950587289035428064568320970692304673817341489687656669187",
        "55464657044963196816950587289035428064568320970692304673817341489687665059844",
        "55464657044963196816950587289035428064568320970692304673817341489687665059841"
      ]
    },
    {
      "x": 395,
      "y": 305,
      "size": 1,
      "price": "4683000000000000000000",
      "reserved": "",
      "salt": "0x9314d95d9967f75a81dd0474a9b70a14b91e730752dcb1a2b4363bb47a7fbe9e",
      "assetIds": [
        "55464657044963196816950587289035428064568320970692304673817341489687656669184",
        "55464657044963196816950587289035428064568320970692304673817341489687665059844",
        "55464657044963196816950587289035428064568320970692304673817341489687665059840"
      ]
    },
    {
      "x": 395,
      "y": 306,
      "size": 1,
      "price": "4683000000000000000000",
      "reserved": "",
      "salt": "0x42fa2cc98ba0b58e26e218793fd7f4bdd97f8b64c55e60517632a39279ac6e29",
      "assetIds": [
        "55464657044963196816950587289035428064568320970692304673817341489687656669185",
        "55464657044963196816950587289035428064568320970692304673817341489687665059844",
        "55464657044963196816950587289035428064568320970692304673817341489687665059840"
      ]
    },
    {
      "x": 395,
      "y": 307,
      "size": 1,
      "price": "4683000000000000000000",
      "reserved": "",
      "salt": "0x4e0da5af26fe96f55da6a49b22255bb03aa8483ea56769ed76c1a9659dcd8782",
      "assetIds": [
        "55464657044963196816950587289035428064568320970692304673817341489687656669184",
        "55464657044963196816950587289035428064568320970692304673817341489687665059842",
        "55464657044963196816950587289035428064568320970692304673817341489687665059840"
      ]
    },
    {
      "x": 395,
      "y": 308,
      "size": 1,
      "price": "4683000000000000000000",
      "reserved": "",
      "salt": "0x7f3afe8ef25617c855dccbffb3076fb4535bddb989ff66c9369ddaef2aea0a24",
      "assetIds": [
        "55464657044963196816950587289035428064568320970692304673817341489687656669185",
        "55464657044963196816950587289035428064568320970692304673817341489687665059843",
        "55464657044963196816950587289035428064568320970692304673817341489687665059840"
      ]
    },
    {
      "x": 395,
      "y": 309,
      "size": 1,
      "price": "4683000000000000000000",
      "reserved": "",
      "salt": "0xdaa0e82eec212b5406ccacf8d7bbd9a3d7a0c19129a51d1cf5d52ca033e6e89b",
      "assetIds": [
        "55464657044963196816950587289035428064568320970692304673817341489687656669187",
        "55464657044963196816950587289035428064568320970692304673817341489687665059843",
        "55464657044963196816950587289035428064568320970692304673817341489687665059841"
      ]
    },
    {
      "x": 395,
      "y": 310,
      "size": 1,
      "price": "4683000000000000000000",
      "reserved": "",
      "salt": "0x5dda83b67c3abc312cc3c2be78e3d0899d40bf8f33d5a7b5d018a6b79b5d6984",
      "assetIds": [
        "55464657044963196816950587289035428064568320970692304673817341489687656669186",
        "55464657044963196816950587289035428064568320970692304673817341489687665059843",
        "55464657044963196816950587289035428064568320970692304673817341489687665059841"
      ]
    },
    {
      "x": 395,
      "y": 311,
      "size": 1,
      "price": "4683000000000000000000",
      "reserved": "",
      "salt": "0x131b63678ae14029c4678b218e5a88e32996fb3f2c301ac5207b01cccbc4bfc1",
      "assetIds": [
        "55464657044963196816950587289035428064568320970692304673817341489687656669186",
        "55464657044963196816950587289035428064568320970692304673817341489687665059843",
        "55464657044963196816950587289035428064568320970692304673817341489687665059841"
      ]
    },
    {
      "x": 396,
      "y": 228,
      "size": 1,
      "price": "4683000000000000000000",
      "reserved": "",
      "salt": "0x81966a91b43da0cf30a871f67072303089d4ec9a45b52039e103dccc91b8ca3a",
      "assetIds": [
        "55464657044963196816950587289035428064568320970692304673817341489687656669187",
        "55464657044963196816950587289035428064568320970692304673817341489687665059842",
        "55464657044963196816950587289035428064568320970692304673817341489687665059841"
      ]
    },
    {
      "x": 396,
      "y": 229,
      "size": 1,
      "price": "4683000000000000000000",
      "reserved": "",
      "salt": "0xeb776955085d00e2374b38363fab25621dfcbafb9148434ae21ece6377cff247",
      "assetIds": [
        "55464657044963196816950587289035428064568320970692304673817341489687656669187",
        "55464657044963196816950587289035428064568320970692304673817341489687665059844",
        "55464657044963196816950587289035428064568320970692304673817341489687665059841"
      ]
    },
    {
      "x": 396,
      "y": 230,
      "size": 1,
      "price": "4683000000000000000000",
      "reserved": "",
      "salt": "0x125b7f4363af017e5b6194b3ba3e939adc683dab1035ba0a85c1656b5fcc4eec",
      "assetIds": [
        "55464657044963196816950587289035428064568320970692304673817341489687656669184",
        "55464657044963196816950587289035428064568320970692304673817341489687665059843",
        "55464657044963196816950587289035428064568320970692304673817341489687665059840"
      ]
    },
    {
      "x": 396,
      "y": 231,
      "size": 1,
      "price": "4683000000000000000000",
      "reserved": "",
      "salt": "0xaf264cb62e609577f21c54504acf505ba8c627f031ee144d3f3eed3438de66d8",
      "assetIds": [
        "55464657044963196816950587289035428064568320970692304673817341489687656669186",
        "55464657044963196816950587289035428064568320970692304673817341489687665059843",
        "55464657044963196816950587289035428064568320970692304673817341489687665059841"
      ]
    },
    {
      "x": 396,
      "y": 232,
      "size": 1,
      "price": "4683000000000000000000",
      "reserved": "",
      "salt": "0xf0ed25ca108c3a4d1581c0874824053d1e447da02710d4460e9717b8585c3e3b",
      "assetIds": [
        "55464657044963196816950587289035428064568320970692304673817341489687656669186",
        "55464657044963196816950587289035428064568320970692304673817341489687665059842",
        "55464657044963196816950587289035428064568320970692304673817341489687665059841"
      ]
    },
    {
      "x": 396,
      "y": 233,
      "size": 1,
      "price": "4683000000000000000000",
      "reserved": "",
      "salt": "0x9147974113d891db14bcf8f8767484e3d4e115b5f0c88fcbad55ce3fe1be59b5",
      "assetIds": [
        "55464657044963196816950587289035428064568320970692304673817341489687656669185",
        "55464657044963196816950587289035428064568320970692304673817341489687665059844",
        "55464657044963196816950587289035428064568320970692304673817341489687665059840"
      ]
    },
    {
      "x": 396,
      "y": 234,
      "size": 1,
      "price": "4683000000000000000000",
      "reserved": "",
      "salt": "0xd6ee454d60fbb5e5cd3defc543caabc6b4dfa0fd0942d510e711d7c4e5b98404",
      "assetIds": [
        "55464657044963196816950587289035428064568320970692304673817341489687656669185",
        "55464657044963196816950587289035428064568320970692304673817341489687665059842",
        "55464657044963196816950587289035428064568320970692304673817341489687665059840"
      ]
    },
    {
      "x": 396,
      "y": 235,
      "size": 1,
      "price": "4683000000000000000000",
      "reserved": "",
      "salt": "0x873eadbeb747e663d13d1d2964c18565fb443f30e3f3e0c0061881988136d4cc",
      "assetIds": [
        "55464657044963196816950587289035428064568320970692304673817341489687656669185",
        "55464657044963196816950587289035428064568320970692304673817341489687665059843",
        "55464657044963196816950587289035428064568320970692304673817341489687665059840"
      ]
    },
    {
      "x": 396,
      "y": 236,
      "size": 1,
      "price": "4683000000000000000000",
      "reserved": "",
      "salt": "0x1c511335f33264b391c888bfd6cec2de1898f8d6399d1e11213f8d15208423b2",
      "assetIds": [
        "55464657044963196816950587289035428064568320970692304673817341489687656669185",
        "55464657044963196816950587289035428064568320970692304673817341489687665059844",
        "55464657044963196816950587289035428064568320970692304673817341489687665059840"
      ]
    },
    {
      "x": 396,
      "y": 237,
      "size": 1,
      "price": "4683000000000000000000",
      "reserved": "",
      "salt": "0x0a2ff0a9c32bfbe82fdd3e6a6e3ed708af517c2919dca53349e373b2f1afdd30",
      "assetIds": [
        "55464657044963196816950587289035428064568320970692304673817341489687656669187",
        "55464657044963196816950587289035428064568320970692304673817341489687665059843",
        "55464657044963196816950587289035428064568320970692304673817341489687665059841"
      ]
    },
    {
      "x": 396,
      "y": 238,
      "size": 1,
      "price": "4683000000000000000000",
      "reserved": "",
      "salt": "0x9840966a77bc942da6df7adbed215347ddd2c2b67426b547a06308b67d01ef64",
      "assetIds": [
        "55464657044963196816950587289035428064568320970692304673817341489687656669187",
        "55464657044963196816950587289035428064568320970692304673817341489687665059844",
        "55464657044963196816950587289035428064568320970692304673817341489687665059841"
      ]
    },
    {
      "x": 396,
      "y": 239,
      "size": 1,
      "price": "4683000000000000000000",
      "reserved": "",
      "salt": "0x4b40e1678aa0a5fe33f773cb2eac3ddfd6c90d89b7c6ece6da2284ac63e5f4ad",
      "assetIds": [
        "55464657044963196816950587289035428064568320970692304673817341489687656669187",
        "55464657044963196816950587289035428064568320970692304673817341489687665059843",
        "55464657044963196816950587289035428064568320970692304673817341489687665059841"
      ]
    },
    {
      "x": 396,
      "y": 240,
      "size": 1,
      "price": "4683000000000000000000",
      "reserved": "",
      "salt": "0xa2d95aeb3ba22cea9c63aa99de3e28b65459d272ad7add47ebdcc76b04183a69",
      "assetIds": [
        "55464657044963196816950587289035428064568320970692304673817341489687656669184",
        "55464657044963196816950587289035428064568320970692304673817341489687665059842",
        "55464657044963196816950587289035428064568320970692304673817341489687665059840"
      ]
    },
    {
      "x": 396,
      "y": 241,
      "size": 1,
      "price": "4683000000000000000000",
      "reserved": "",
      "salt": "0xdea023e2cf4ed544ff27b1009728d45893296ab3b1e6ed9aec454ccf72720f87",
      "assetIds": [
        "55464657044963196816950587289035428064568320970692304673817341489687656669187",
        "55464657044963196816950587289035428064568320970692304673817341489687665059842",
        "55464657044963196816950587289035428064568320970692304673817341489687665059841"
      ]
    },
    {
      "x": 396,
      "y": 242,
      "size": 1,
      "price": "4683000000000000000000",
      "reserved": "",
      "salt": "0x7c28bf1a81e06ea7b7922748cf0ba311fd386fc282cfa106240c98bdd58d7309",
      "assetIds": [
        "55464657044963196816950587289035428064568320970692304673817341489687656669184",
        "55464657044963196816950587289035428064568320970692304673817341489687665059843",
        "55464657044963196816950587289035428064568320970692304673817341489687665059840"
      ]
    },
    {
      "x": 396,
      "y": 243,
      "size": 1,
      "price": "4683000000000000000000",
      "reserved": "",
      "salt": "0x8058e800540c7a66705e54f7705f77e137f898fa637796f108f567fb3aaa08b7",
      "assetIds": [
        "55464657044963196816950587289035428064568320970692304673817341489687656669186",
        "55464657044963196816950587289035428064568320970692304673817341489687665059843",
        "55464657044963196816950587289035428064568320970692304673817341489687665059841"
      ]
    },
    {
      "x": 396,
      "y": 244,
      "size": 1,
      "price": "4683000000000000000000",
      "reserved": "",
      "salt": "0xef768cf3f1ff5f82e65410d655499f16fd719226544c07823b1a97a487f316be",
      "assetIds": [
        "55464657044963196816950587289035428064568320970692304673817341489687656669185",
        "55464657044963196816950587289035428064568320970692304673817341489687665059843",
        "55464657044963196816950587289035428064568320970692304673817341489687665059840"
      ]
    },
    {
      "x": 396,
      "y": 245,
      "size": 1,
      "price": "4683000000000000000000",
      "reserved": "",
      "salt": "0x31806112571b6956fb338e309ed93222a246af2823e2e69163bafefc4c730b3d",
      "assetIds": [
        "55464657044963196816950587289035428064568320970692304673817341489687656669186",
        "55464657044963196816950587289035428064568320970692304673817341489687665059842",
        "55464657044963196816950587289035428064568320970692304673817341489687665059841"
      ]
    },
    {
      "x": 396,
      "y": 246,
      "size": 1,
      "price": "4683000000000000000000",
      "reserved": "",
      "salt": "0x6b1a6591244a6a2d48a3da28104b2d853c94f0ecc9221938f47084abb1ab8d16",
      "assetIds": [
        "55464657044963196816950587289035428064568320970692304673817341489687656669186",
        "55464657044963196816950587289035428064568320970692304673817341489687665059842",
        "55464657044963196816950587289035428064568320970692304673817341489687665059841"
      ]
    },
    {
      "x": 396,
      "y": 247,
      "size": 1,
      "price": "4683000000000000000000",
      "reserved": "",
      "salt": "0xc965dfaeead0f1c1340decec21b06c11627962e5010850655e18b54839786542",
      "assetIds": [
        "55464657044963196816950587289035428064568320970692304673817341489687656669184",
        "55464657044963196816950587289035428064568320970692304673817341489687665059844",
        "55464657044963196816950587289035428064568320970692304673817341489687665059840"
      ]
    },
    {
      "x": 396,
      "y": 248,
      "size": 1,
      "price": "4683000000000000000000",
      "reserved": "",
      "salt": "0xe5d33e467ea29f58e1b6d12e5d3e25e31825a3bc7e0bbe53c593b9050299deea",
      "assetIds": [
        "55464657044963196816950587289035428064568320970692304673817341489687656669185",
        "55464657044963196816950587289035428064568320970692304673817341489687665059842",
        "55464657044963196816950587289035428064568320970692304673817341489687665059840"
      ]
    },
    {
      "x": 396,
      "y": 249,
      "size": 1,
      "price": "4683000000000000000000",
      "reserved": "",
      "salt": "0xc15a445e3d18bf3322b6eac9c3dfde445be7135e19ccec4b800051e1f20995a1",
      "assetIds": [
        "55464657044963196816950587289035428064568320970692304673817341489687656669187",
        "55464657044963196816950587289035428064568320970692304673817341489687665059842",
        "55464657044963196816950587289035428064568320970692304673817341489687665059841"
      ]
    },
    {
      "x": 396,
      "y": 250,
      "size": 1,
      "price": "4683000000000000000000",
      "reserved": "",
      "salt": "0x8d158d91461c148d5bbad261e9274ca1c123f5eaa0bb736a69383a1209bcc44e",
      "assetIds": [
        "55464657044963196816950587289035428064568320970692304673817341489687656669184",
        "55464657044963196816950587289035428064568320970692304673817341489687665059844",
        "55464657044963196816950587289035428064568320970692304673817341489687665059840"
      ]
    },
    {
      "x": 396,
      "y": 251,
      "size": 1,
      "price": "4683000000000000000000",
      "reserved": "",
      "salt": "0x866624d69f1599aeb0ea2fd653b45e9ee403695b546dfb68195b86d8b864bab4",
      "assetIds": [
        "55464657044963196816950587289035428064568320970692304673817341489687656669184",
        "55464657044963196816950587289035428064568320970692304673817341489687665059843",
        "55464657044963196816950587289035428064568320970692304673817341489687665059840"
      ]
    },
    {
      "x": 396,
      "y": 294,
      "size": 1,
      "price": "4683000000000000000000",
      "reserved": "",
      "salt": "0xde806b3aa342e4b2344ebbf33e67ebb74ce0fdbf6fd0c1508a7a6a3f20c3f4ff",
      "assetIds": [
        "55464657044963196816950587289035428064568320970692304673817341489687656669186",
        "55464657044963196816950587289035428064568320970692304673817341489687665059843",
        "55464657044963196816950587289035428064568320970692304673817341489687665059841"
      ]
    },
    {
      "x": 396,
      "y": 295,
      "size": 1,
      "price": "4683000000000000000000",
      "reserved": "",
      "salt": "0x9c46b91ae29ba09bdf545cd77eb4cdf834cbaed0806b793f5f0e9fd84bb798bb",
      "assetIds": [
        "55464657044963196816950587289035428064568320970692304673817341489687656669185",
        "55464657044963196816950587289035428064568320970692304673817341489687665059842",
        "55464657044963196816950587289035428064568320970692304673817341489687665059840"
      ]
    },
    {
      "x": 396,
      "y": 296,
      "size": 1,
      "price": "4683000000000000000000",
      "reserved": "",
      "salt": "0x672d416833b24cacc595d8413e13b03d74eb24111e781f616d96ec8374b6fc0c",
      "assetIds": [
        "55464657044963196816950587289035428064568320970692304673817341489687656669184",
        "55464657044963196816950587289035428064568320970692304673817341489687665059844",
        "55464657044963196816950587289035428064568320970692304673817341489687665059840"
      ]
    },
    {
      "x": 396,
      "y": 297,
      "size": 1,
      "price": "4683000000000000000000",
      "reserved": "",
      "salt": "0x960d6c717ccd62d392e34b0779412070d2875cc295bb96e09c50d4daeeb28d87",
      "assetIds": [
        "55464657044963196816950587289035428064568320970692304673817341489687656669184",
        "55464657044963196816950587289035428064568320970692304673817341489687665059842",
        "55464657044963196816950587289035428064568320970692304673817341489687665059840"
      ]
    },
    {
      "x": 396,
      "y": 298,
      "size": 1,
      "price": "4683000000000000000000",
      "reserved": "",
      "salt": "0x30981cec35ccebd3542d748c225b01e81234470ab266b3a3348d74514c3e43c2",
      "assetIds": [
        "55464657044963196816950587289035428064568320970692304673817341489687656669186",
        "55464657044963196816950587289035428064568320970692304673817341489687665059842",
        "55464657044963196816950587289035428064568320970692304673817341489687665059841"
      ]
    },
    {
      "x": 396,
      "y": 299,
      "size": 1,
      "price": "4683000000000000000000",
      "reserved": "",
      "salt": "0x4ae4ddb617f9f7817ac612e3bdb6b74ac2f8d40927006088d88e305119c6236d",
      "assetIds": [
        "55464657044963196816950587289035428064568320970692304673817341489687656669184",
        "55464657044963196816950587289035428064568320970692304673817341489687665059843",
        "55464657044963196816950587289035428064568320970692304673817341489687665059840"
      ]
    },
    {
      "x": 397,
      "y": 228,
      "size": 1,
      "price": "4683000000000000000000",
      "reserved": "",
      "salt": "0x474ec06ed69ecc3f0326261acd4a37585f65d6475f0ddf85c6c7e5d42f3f48d8",
      "assetIds": [
        "55464657044963196816950587289035428064568320970692304673817341489687656669186",
        "55464657044963196816950587289035428064568320970692304673817341489687665059843",
        "55464657044963196816950587289035428064568320970692304673817341489687665059841"
      ]
    },
    {
      "x": 397,
      "y": 229,
      "size": 1,
      "price": "4683000000000000000000",
      "reserved": "",
      "salt": "0x283f2491a976dc0e7a64872f10bde680b17f08303f9e28db1e29504a31c5f44f",
      "assetIds": [
        "55464657044963196816950587289035428064568320970692304673817341489687656669186",
        "55464657044963196816950587289035428064568320970692304673817341489687665059844",
        "55464657044963196816950587289035428064568320970692304673817341489687665059841"
      ]
    },
    {
      "x": 397,
      "y": 230,
      "size": 1,
      "price": "4683000000000000000000",
      "reserved": "",
      "salt": "0x737acbea7ef29a0c389ca91271a6e75f24eb57f1629e8fe0a599cb95cc8ea4e6",
      "assetIds": [
        "55464657044963196816950587289035428064568320970692304673817341489687656669184",
        "55464657044963196816950587289035428064568320970692304673817341489687665059843",
        "55464657044963196816950587289035428064568320970692304673817341489687665059840"
      ]
    },
    {
      "x": 397,
      "y": 231,
      "size": 1,
      "price": "4683000000000000000000",
      "reserved": "",
      "salt": "0x88fd4f347070bf9ba05e747873b2e736c11118e39be79b1232fab89abd6b42ae",
      "assetIds": [
        "55464657044963196816950587289035428064568320970692304673817341489687656669184",
        "55464657044963196816950587289035428064568320970692304673817341489687665059844",
        "55464657044963196816950587289035428064568320970692304673817341489687665059840"
      ]
    },
    {
      "x": 397,
      "y": 232,
      "size": 1,
      "price": "4683000000000000000000",
      "reserved": "",
      "salt": "0x45aad0945f872b43f2265499e1abb895eda5569eecb30b852b5f2a04228ba04b",
      "assetIds": [
        "55464657044963196816950587289035428064568320970692304673817341489687656669184",
        "55464657044963196816950587289035428064568320970692304673817341489687665059844",
        "55464657044963196816950587289035428064568320970692304673817341489687665059840"
      ]
    },
    {
      "x": 397,
      "y": 233,
      "size": 1,
      "price": "4683000000000000000000",
      "reserved": "",
      "salt": "0x7f13d9c031da11beeb1355c8d5a2225223e1380993f65584c91cd5529274b920",
      "assetIds": [
        "55464657044963196816950587289035428064568320970692304673817341489687656669185",
        "55464657044963196816950587289035428064568320970692304673817341489687665059844",
        "55464657044963196816950587289035428064568320970692304673817341489687665059840"
      ]
    },
    {
      "x": 397,
      "y": 234,
      "size": 1,
      "price": "4683000000000000000000",
      "reserved": "",
      "salt": "0xedb2d42186e9b081eddb21457362a820f96e70855554d4076d48cf8781e2badd",
      "assetIds": [
        "55464657044963196816950587289035428064568320970692304673817341489687656669187",
        "55464657044963196816950587289035428064568320970692304673817341489687665059844",
        "55464657044963196816950587289035428064568320970692304673817341489687665059841"
      ]
    },
    {
      "x": 397,
      "y": 235,
      "size": 1,
      "price": "4683000000000000000000",
      "reserved": "",
      "salt": "0xd6e272845ce01976dc06a1d3a90f027e0e50c7b315d5161bf43d6862b8b14adc",
      "assetIds": [
        "55464657044963196816950587289035428064568320970692304673817341489687656669186",
        "55464657044963196816950587289035428064568320970692304673817341489687665059842",
        "55464657044963196816950587289035428064568320970692304673817341489687665059841"
      ]
    },
    {
      "x": 397,
      "y": 236,
      "size": 1,
      "price": "4683000000000000000000",
      "reserved": "",
      "salt": "0x85cef4812b3a73317bf055ed60c858e7cba5e898764f298924b04d801c8f962e",
      "assetIds": [
        "55464657044963196816950587289035428064568320970692304673817341489687656669186",
        "55464657044963196816950587289035428064568320970692304673817341489687665059842",
        "55464657044963196816950587289035428064568320970692304673817341489687665059841"
      ]
    },
    {
      "x": 397,
      "y": 237,
      "size": 1,
      "price": "4683000000000000000000",
      "reserved": "",
      "salt": "0x6902c8f388841ce24a7cd267771390c92c92da04a66936e42deed2dac95390da",
      "assetIds": [
        "55464657044963196816950587289035428064568320970692304673817341489687656669187",
        "55464657044963196816950587289035428064568320970692304673817341489687665059843",
        "55464657044963196816950587289035428064568320970692304673817341489687665059841"
      ]
    },
    {
      "x": 397,
      "y": 238,
      "size": 1,
      "price": "4683000000000000000000",
      "reserved": "",
      "salt": "0x7a7b835aa2c14583c0d1152ff96ed88f823fe4671862debc395e6446cc604305",
      "assetIds": [
        "55464657044963196816950587289035428064568320970692304673817341489687656669187",
        "55464657044963196816950587289035428064568320970692304673817341489687665059844",
        "55464657044963196816950587289035428064568320970692304673817341489687665059841"
      ]
    },
    {
      "x": 397,
      "y": 239,
      "size": 1,
      "price": "4683000000000000000000",
      "reserved": "",
      "salt": "0x6f683499928db02622392bf1bae87d5b5c90aa5558a978c67314105429b3cd41",
      "assetIds": [
        "55464657044963196816950587289035428064568320970692304673817341489687656669185",
        "55464657044963196816950587289035428064568320970692304673817341489687665059842",
        "55464657044963196816950587289035428064568320970692304673817341489687665059840"
      ]
    },
    {
      "x": 397,
      "y": 240,
      "size": 1,
      "price": "4683000000000000000000",
      "reserved": "",
      "salt": "0xb5e19bdc64f69457b66ce7169d9c7e5a903118f742a97777fe815d2266b69d73",
      "assetIds": [
        "55464657044963196816950587289035428064568320970692304673817341489687656669184",
        "55464657044963196816950587289035428064568320970692304673817341489687665059842",
        "55464657044963196816950587289035428064568320970692304673817341489687665059840"
      ]
    },
    {
      "x": 397,
      "y": 241,
      "size": 1,
      "price": "4683000000000000000000",
      "reserved": "",
      "salt": "0xf2406edc5a3d495ac7062ad9d711750dd172f9c7d83f196f52fe808e0db609df",
      "assetIds": [
        "55464657044963196816950587289035428064568320970692304673817341489687656669187",
        "55464657044963196816950587289035428064568320970692304673817341489687665059844",
        "55464657044963196816950587289035428064568320970692304673817341489687665059841"
      ]
    },
    {
      "x": 397,
      "y": 242,
      "size": 1,
      "price": "4683000000000000000000",
      "reserved": "",
      "salt": "0x8acf2be8393ce3bc21fc7cd5c436c67f919e5d14291323f01d378125c2a17724",
      "assetIds": [
        "55464657044963196816950587289035428064568320970692304673817341489687656669184",
        "55464657044963196816950587289035428064568320970692304673817341489687665059844",
        "55464657044963196816950587289035428064568320970692304673817341489687665059840"
      ]
    },
    {
      "x": 397,
      "y": 243,
      "size": 1,
      "price": "4683000000000000000000",
      "reserved": "",
      "salt": "0x9bef9d3721a79271e085e7dcef934dfd423c88568e102072e263810a945a8183",
      "assetIds": [
        "55464657044963196816950587289035428064568320970692304673817341489687656669186",
        "55464657044963196816950587289035428064568320970692304673817341489687665059842",
        "55464657044963196816950587289035428064568320970692304673817341489687665059841"
      ]
    },
    {
      "x": 397,
      "y": 244,
      "size": 1,
      "price": "4683000000000000000000",
      "reserved": "",
      "salt": "0xa59bcdbbdf969dd711ba0b4c3c06a6ff48362a14022af22aa7e0b661734f59a0",
      "assetIds": [
        "55464657044963196816950587289035428064568320970692304673817341489687656669186",
        "55464657044963196816950587289035428064568320970692304673817341489687665059842",
        "55464657044963196816950587289035428064568320970692304673817341489687665059841"
      ]
    },
    {
      "x": 397,
      "y": 245,
      "size": 1,
      "price": "4683000000000000000000",
      "reserved": "",
      "salt": "0x5d4cc767ba06fdd5f874626b6734691dc1e2f5df21a95ed1e7f2fde3e80f9ba4",
      "assetIds": [
        "55464657044963196816950587289035428064568320970692304673817341489687656669187",
        "55464657044963196816950587289035428064568320970692304673817341489687665059844",
        "55464657044963196816950587289035428064568320970692304673817341489687665059841"
      ]
    },
    {
      "x": 397,
      "y": 246,
      "size": 1,
      "price": "4683000000000000000000",
      "reserved": "",
      "salt": "0x7dac05a944fdb70044ebabc607b149a6958fb141456101cb62ed02f3cb80a445",
      "assetIds": [
        "55464657044963196816950587289035428064568320970692304673817341489687656669186",
        "55464657044963196816950587289035428064568320970692304673817341489687665059844",
        "55464657044963196816950587289035428064568320970692304673817341489687665059841"
      ]
    },
    {
      "x": 397,
      "y": 247,
      "size": 1,
      "price": "4683000000000000000000",
      "reserved": "",
      "salt": "0x9439cf8b7900c24d48a8a8cf39876d40586e818fca4faa1be9a971ff192faa24",
      "assetIds": [
        "55464657044963196816950587289035428064568320970692304673817341489687656669186",
        "55464657044963196816950587289035428064568320970692304673817341489687665059842",
        "55464657044963196816950587289035428064568320970692304673817341489687665059841"
      ]
    },
    {
      "x": 397,
      "y": 248,
      "size": 1,
      "price": "4683000000000000000000",
      "reserved": "",
      "salt": "0xdb0cf47b9501319b900ee2bee1d3a6325f70a0ecfd7f02ce8e8481822ee3912f",
      "assetIds": [
        "55464657044963196816950587289035428064568320970692304673817341489687656669187",
        "55464657044963196816950587289035428064568320970692304673817341489687665059843",
        "55464657044963196816950587289035428064568320970692304673817341489687665059841"
      ]
    },
    {
      "x": 397,
      "y": 249,
      "size": 1,
      "price": "4683000000000000000000",
      "reserved": "",
      "salt": "0x87ccdf5cc7e424da6e434b97034ca2b1dcf8ea2683df201752925b7dd9456942",
      "assetIds": [
        "55464657044963196816950587289035428064568320970692304673817341489687656669186",
        "55464657044963196816950587289035428064568320970692304673817341489687665059842",
        "55464657044963196816950587289035428064568320970692304673817341489687665059841"
      ]
    },
    {
      "x": 397,
      "y": 250,
      "size": 1,
      "price": "4683000000000000000000",
      "reserved": "",
      "salt": "0xdc562630c833e570e3e77963f04da0aec569af1536d9ef9821525049d571de84",
      "assetIds": [
        "55464657044963196816950587289035428064568320970692304673817341489687656669185",
        "55464657044963196816950587289035428064568320970692304673817341489687665059843",
        "55464657044963196816950587289035428064568320970692304673817341489687665059840"
      ]
    },
    {
      "x": 397,
      "y": 251,
      "size": 1,
      "price": "4683000000000000000000",
      "reserved": "",
      "salt": "0x81e0f90c24099bdc0830d95c82d0a877d2127d743a3f89916bf5f8e81fb8b0ba",
      "assetIds": [
        "55464657044963196816950587289035428064568320970692304673817341489687656669185",
        "55464657044963196816950587289035428064568320970692304673817341489687665059843",
        "55464657044963196816950587289035428064568320970692304673817341489687665059840"
      ]
    },
    {
      "x": 397,
      "y": 294,
      "size": 1,
      "price": "4683000000000000000000",
      "reserved": "",
      "salt": "0x6aba4828922acb4b5b11fcdc13881fe23ef4b8d7b40ab4afa7a17008dd9cbd4b",
      "assetIds": [
        "55464657044963196816950587289035428064568320970692304673817341489687656669186",
        "55464657044963196816950587289035428064568320970692304673817341489687665059843",
        "55464657044963196816950587289035428064568320970692304673817341489687665059841"
      ]
    },
    {
      "x": 397,
      "y": 295,
      "size": 1,
      "price": "4683000000000000000000",
      "reserved": "",
      "salt": "0x200d0ed49944998a88c880a6fb7d3afebfbe076876ce9ac4b3ef3d9b51da0822",
      "assetIds": [
        "55464657044963196816950587289035428064568320970692304673817341489687656669184",
        "55464657044963196816950587289035428064568320970692304673817341489687665059842",
        "55464657044963196816950587289035428064568320970692304673817341489687665059840"
      ]
    },
    {
      "x": 397,
      "y": 296,
      "size": 1,
      "price": "4683000000000000000000",
      "reserved": "",
      "salt": "0x188d0dddf636022018b330f776b511dd3debdf2ddb26f76733f640f413791767",
      "assetIds": [
        "55464657044963196816950587289035428064568320970692304673817341489687656669187",
        "55464657044963196816950587289035428064568320970692304673817341489687665059842",
        "55464657044963196816950587289035428064568320970692304673817341489687665059841"
      ]
    },
    {
      "x": 397,
      "y": 297,
      "size": 1,
      "price": "4683000000000000000000",
      "reserved": "",
      "salt": "0xdfe2d78975746c63806d9c14857469835656a17719faf97b3c896afa74afda86",
      "assetIds": [
        "55464657044963196816950587289035428064568320970692304673817341489687656669186",
        "55464657044963196816950587289035428064568320970692304673817341489687665059842",
        "55464657044963196816950587289035428064568320970692304673817341489687665059841"
      ]
    },
    {
      "x": 397,
      "y": 298,
      "size": 1,
      "price": "4683000000000000000000",
      "reserved": "",
      "salt": "0x85cdf7a5460ec57d91a403475f5f9b69bba51738c4827ed43f49b4077d827ca6",
      "assetIds": [
        "55464657044963196816950587289035428064568320970692304673817341489687656669184",
        "55464657044963196816950587289035428064568320970692304673817341489687665059843",
        "55464657044963196816950587289035428064568320970692304673817341489687665059840"
      ]
    },
    {
      "x": 397,
      "y": 299,
      "size": 1,
      "price": "4683000000000000000000",
      "reserved": "",
      "salt": "0x27393806783edece55cf00e90eb9a681d4bcf92d7fc157057ec9421ac814bdd6",
      "assetIds": [
        "55464657044963196816950587289035428064568320970692304673817341489687656669187",
        "55464657044963196816950587289035428064568320970692304673817341489687665059844",
        "55464657044963196816950587289035428064568320970692304673817341489687665059841"
      ]
    },
    {
      "x": 398,
      "y": 228,
      "size": 1,
      "price": "4683000000000000000000",
      "reserved": "",
      "salt": "0x0376d40b5a4e518b083b1f081aa5054ec903d7450953c50ffb923e787a69010d",
      "assetIds": [
        "55464657044963196816950587289035428064568320970692304673817341489687656669184",
        "55464657044963196816950587289035428064568320970692304673817341489687665059844",
        "55464657044963196816950587289035428064568320970692304673817341489687665059840"
      ]
    },
    {
      "x": 398,
      "y": 229,
      "size": 1,
      "price": "4683000000000000000000",
      "reserved": "",
      "salt": "0x07fbd43c7a80d80a59a1d0d4bad917f3f91a3cc7b506361411bceebdad1a65ff",
      "assetIds": [
        "55464657044963196816950587289035428064568320970692304673817341489687656669186",
        "55464657044963196816950587289035428064568320970692304673817341489687665059844",
        "55464657044963196816950587289035428064568320970692304673817341489687665059841"
      ]
    },
    {
      "x": 398,
      "y": 230,
      "size": 1,
      "price": "4683000000000000000000",
      "reserved": "",
      "salt": "0xf6f84e3df0fbf76950a20ab511c6e94cc84a9f078ff6d055ec1af2b830af41c8",
      "assetIds": [
        "55464657044963196816950587289035428064568320970692304673817341489687656669185",
        "55464657044963196816950587289035428064568320970692304673817341489687665059842",
        "55464657044963196816950587289035428064568320970692304673817341489687665059840"
      ]
    },
    {
      "x": 398,
      "y": 231,
      "size": 1,
      "price": "4683000000000000000000",
      "reserved": "",
      "salt": "0x1675a34a4565c21243d7ffda7e07735516e574102fda99c80355016bba7a6249",
      "assetIds": [
        "55464657044963196816950587289035428064568320970692304673817341489687656669184",
        "55464657044963196816950587289035428064568320970692304673817341489687665059844",
        "55464657044963196816950587289035428064568320970692304673817341489687665059840"
      ]
    },
    {
      "x": 398,
      "y": 232,
      "size": 1,
      "price": "4683000000000000000000",
      "reserved": "",
      "salt": "0xfc7b55f195d9137f8308df2d06f3e8ec506ffb37a612c66a479ab95c817795a1",
      "assetIds": [
        "55464657044963196816950587289035428064568320970692304673817341489687656669186",
        "55464657044963196816950587289035428064568320970692304673817341489687665059843",
        "55464657044963196816950587289035428064568320970692304673817341489687665059841"
      ]
    },
    {
      "x": 398,
      "y": 233,
      "size": 1,
      "price": "4683000000000000000000",
      "reserved": "",
      "salt": "0x82d41b708d6500175bffb7da5a6a8b6351e4b7083604a431664c7e42d8bfd3e9",
      "assetIds": [
        "55464657044963196816950587289035428064568320970692304673817341489687656669187",
        "55464657044963196816950587289035428064568320970692304673817341489687665059844",
        "55464657044963196816950587289035428064568320970692304673817341489687665059841"
      ]
    },
    {
      "x": 398,
      "y": 234,
      "size": 1,
      "price": "4683000000000000000000",
      "reserved": "",
      "salt": "0xf22e4489822e2dc67b55fa24fd9b0be12310f3c829f9bafcf0d1732884c8199c",
      "assetIds": [
        "55464657044963196816950587289035428064568320970692304673817341489687656669186",
        "55464657044963196816950587289035428064568320970692304673817341489687665059844",
        "55464657044963196816950587289035428064568320970692304673817341489687665059841"
      ]
    },
    {
      "x": 398,
      "y": 235,
      "size": 1,
      "price": "4683000000000000000000",
      "reserved": "",
      "salt": "0x7a7d109ece04e9861ff4847f652ff80048aecb35c598a951a095da1d4b96d2d4",
      "assetIds": [
        "55464657044963196816950587289035428064568320970692304673817341489687656669184",
        "55464657044963196816950587289035428064568320970692304673817341489687665059842",
        "55464657044963196816950587289035428064568320970692304673817341489687665059840"
      ]
    },
    {
      "x": 398,
      "y": 236,
      "size": 1,
      "price": "4683000000000000000000",
      "reserved": "",
      "salt": "0x09bc55674720ffea02d5b2de9a9923b8fff07149c60fe67acc0c9a07431e2db7",
      "assetIds": [
        "55464657044963196816950587289035428064568320970692304673817341489687656669187",
        "55464657044963196816950587289035428064568320970692304673817341489687665059843",
        "55464657044963196816950587289035428064568320970692304673817341489687665059841"
      ]
    },
    {
      "x": 398,
      "y": 237,
      "size": 1,
      "price": "4683000000000000000000",
      "reserved": "",
      "salt": "0xa73b3186f1694a6749a3b5ac36cfc40de029b7e20615bad15a765351d4dda2a5",
      "assetIds": [
        "55464657044963196816950587289035428064568320970692304673817341489687656669184",
        "55464657044963196816950587289035428064568320970692304673817341489687665059843",
        "55464657044963196816950587289035428064568320970692304673817341489687665059840"
      ]
    },
    {
      "x": 398,
      "y": 238,
      "size": 1,
      "price": "4683000000000000000000",
      "reserved": "",
      "salt": "0x298929ffd6a190486d0a9a92f7ea4a46b497b79d595eec21ca06a5cea360e512",
      "assetIds": [
        "55464657044963196816950587289035428064568320970692304673817341489687656669184",
        "55464657044963196816950587289035428064568320970692304673817341489687665059844",
        "55464657044963196816950587289035428064568320970692304673817341489687665059840"
      ]
    },
    {
      "x": 398,
      "y": 239,
      "size": 1,
      "price": "4683000000000000000000",
      "reserved": "",
      "salt": "0x732346eb04f163d6704e0b6b1f79403e1d9b44948bbafeade08e0ab11f24068e",
      "assetIds": [
        "55464657044963196816950587289035428064568320970692304673817341489687656669185",
        "55464657044963196816950587289035428064568320970692304673817341489687665059844",
        "55464657044963196816950587289035428064568320970692304673817341489687665059840"
      ]
    },
    {
      "x": 398,
      "y": 240,
      "size": 1,
      "price": "4683000000000000000000",
      "reserved": "",
      "salt": "0xf29b64ca060ad789353c084be92a53021360f95a80c1d2df228d32ebad6ee8dd",
      "assetIds": [
        "55464657044963196816950587289035428064568320970692304673817341489687656669184",
        "55464657044963196816950587289035428064568320970692304673817341489687665059842",
        "55464657044963196816950587289035428064568320970692304673817341489687665059840"
      ]
    },
    {
      "x": 398,
      "y": 241,
      "size": 1,
      "price": "4683000000000000000000",
      "reserved": "",
      "salt": "0xaa9a287fc49204c46ceca39d87592c98682af5b6e7451760cfde1a15da4f8b92",
      "assetIds": [
        "55464657044963196816950587289035428064568320970692304673817341489687656669184",
        "55464657044963196816950587289035428064568320970692304673817341489687665059842",
        "55464657044963196816950587289035428064568320970692304673817341489687665059840"
      ]
    },
    {
      "x": 398,
      "y": 242,
      "size": 1,
      "price": "4683000000000000000000",
      "reserved": "",
      "salt": "0x32ed9f30923486c06b5fb89fd3fb51097402726dac786ca7f3470cf84a1ddbbc",
      "assetIds": [
        "55464657044963196816950587289035428064568320970692304673817341489687656669187",
        "55464657044963196816950587289035428064568320970692304673817341489687665059843",
        "55464657044963196816950587289035428064568320970692304673817341489687665059841"
      ]
    },
    {
      "x": 398,
      "y": 243,
      "size": 1,
      "price": "4683000000000000000000",
      "reserved": "",
      "salt": "0xadab45e76ed9fbf575d4cad09f683a3eaaf8db6fadbc651b8d66414ece4329d9",
      "assetIds": [
        "55464657044963196816950587289035428064568320970692304673817341489687656669187",
        "55464657044963196816950587289035428064568320970692304673817341489687665059844",
        "55464657044963196816950587289035428064568320970692304673817341489687665059841"
      ]
    },
    {
      "x": 398,
      "y": 244,
      "size": 1,
      "price": "4683000000000000000000",
      "reserved": "",
      "salt": "0x81e47753ec1aabf7f01e2765904cbe9aa0222d75760fa3bf209d76c2086d49ab",
      "assetIds": [
        "55464657044963196816950587289035428064568320970692304673817341489687656669185",
        "55464657044963196816950587289035428064568320970692304673817341489687665059843",
        "55464657044963196816950587289035428064568320970692304673817341489687665059840"
      ]
    },
    {
      "x": 398,
      "y": 245,
      "size": 1,
      "price": "4683000000000000000000",
      "reserved": "",
      "salt": "0x1c19d732a06ce34783a365a837d875b60612a23cda22c301026ecd414644695f",
      "assetIds": [
        "55464657044963196816950587289035428064568320970692304673817341489687656669187",
        "55464657044963196816950587289035428064568320970692304673817341489687665059843",
        "55464657044963196816950587289035428064568320970692304673817341489687665059841"
      ]
    },
    {
      "x": 398,
      "y": 246,
      "size": 1,
      "price": "4683000000000000000000",
      "reserved": "",
      "salt": "0x3a898cb599a402c23939e8ff294b9fc74a2004d48605fb2417dd6dbdc410db0e",
      "assetIds": [
        "55464657044963196816950587289035428064568320970692304673817341489687656669187",
        "55464657044963196816950587289035428064568320970692304673817341489687665059843",
        "55464657044963196816950587289035428064568320970692304673817341489687665059841"
      ]
    },
    {
      "x": 398,
      "y": 247,
      "size": 1,
      "price": "4683000000000000000000",
      "reserved": "",
      "salt": "0xc4bce8ebb3057902373c4a44d0dab6830a53c71d4870e8a7d7e011a32af28209",
      "assetIds": [
        "55464657044963196816950587289035428064568320970692304673817341489687656669184",
        "55464657044963196816950587289035428064568320970692304673817341489687665059844",
        "55464657044963196816950587289035428064568320970692304673817341489687665059840"
      ]
    },
    {
      "x": 398,
      "y": 248,
      "size": 1,
      "price": "4683000000000000000000",
      "reserved": "",
      "salt": "0x7af317b3bec11d7be997d15e1f1d5162ac44a0b55568461ccbd80d5e13d819e7",
      "assetIds": [
        "55464657044963196816950587289035428064568320970692304673817341489687656669185",
        "55464657044963196816950587289035428064568320970692304673817341489687665059844",
        "55464657044963196816950587289035428064568320970692304673817341489687665059840"
      ]
    },
    {
      "x": 398,
      "y": 249,
      "size": 1,
      "price": "4683000000000000000000",
      "reserved": "",
      "salt": "0xe7c44ad8c7a14d17f60551f93ac4cd9b5f67c7c4e270388ca8e6ba44b73b8a3b",
      "assetIds": [
        "55464657044963196816950587289035428064568320970692304673817341489687656669187",
        "55464657044963196816950587289035428064568320970692304673817341489687665059843",
        "55464657044963196816950587289035428064568320970692304673817341489687665059841"
      ]
    },
    {
      "x": 398,
      "y": 250,
      "size": 1,
      "price": "4683000000000000000000",
      "reserved": "",
      "salt": "0x2e41cfd4b98f9d6574de42d44a7e2b5856792adc459a7b738420b60677f0db72",
      "assetIds": [
        "55464657044963196816950587289035428064568320970692304673817341489687656669186",
        "55464657044963196816950587289035428064568320970692304673817341489687665059842",
        "55464657044963196816950587289035428064568320970692304673817341489687665059841"
      ]
    },
    {
      "x": 398,
      "y": 251,
      "size": 1,
      "price": "4683000000000000000000",
      "reserved": "",
      "salt": "0x063ae65b58ee460775013cca1bdf113d3a39e0bdca8468f49861f477fc613cb0",
      "assetIds": [
        "55464657044963196816950587289035428064568320970692304673817341489687656669185",
        "55464657044963196816950587289035428064568320970692304673817341489687665059843",
        "55464657044963196816950587289035428064568320970692304673817341489687665059840"
      ]
    },
    {
      "x": 398,
      "y": 294,
      "size": 1,
      "price": "4683000000000000000000",
      "reserved": "",
      "salt": "0x7c4d9f09046106e83a1d134ab9205ea1467e04014449872255a9cab9c15829d6",
      "assetIds": [
        "55464657044963196816950587289035428064568320970692304673817341489687656669186",
        "55464657044963196816950587289035428064568320970692304673817341489687665059844",
        "55464657044963196816950587289035428064568320970692304673817341489687665059841"
      ]
    },
    {
      "x": 398,
      "y": 295,
      "size": 1,
      "price": "4683000000000000000000",
      "reserved": "",
      "salt": "0xea2213f539fa9760deafcb352d2c60b309fc0af4189ec889d4b6c0d091de5a6d",
      "assetIds": [
        "55464657044963196816950587289035428064568320970692304673817341489687656669187",
        "55464657044963196816950587289035428064568320970692304673817341489687665059843",
        "55464657044963196816950587289035428064568320970692304673817341489687665059841"
      ]
    },
    {
      "x": 398,
      "y": 296,
      "size": 1,
      "price": "4683000000000000000000",
      "reserved": "",
      "salt": "0x302ac38b57e1fbb9b85b890b1891f71a30f62adb59bf5bfb29306f64646bec1f",
      "assetIds": [
        "55464657044963196816950587289035428064568320970692304673817341489687656669186",
        "55464657044963196816950587289035428064568320970692304673817341489687665059844",
        "55464657044963196816950587289035428064568320970692304673817341489687665059841"
      ]
    },
    {
      "x": 398,
      "y": 297,
      "size": 1,
      "price": "4683000000000000000000",
      "reserved": "",
      "salt": "0x031309759d80b5d52a313f72e41624f526cfec4164a760154eed53b3b31f5688",
      "assetIds": [
        "55464657044963196816950587289035428064568320970692304673817341489687656669184",
        "55464657044963196816950587289035428064568320970692304673817341489687665059843",
        "55464657044963196816950587289035428064568320970692304673817341489687665059840"
      ]
    },
    {
      "x": 398,
      "y": 298,
      "size": 1,
      "price": "4683000000000000000000",
      "reserved": "",
      "salt": "0xf2cda363ce89ddbfbdb2465389e98fc8b940d5f4084afded7f8bbc1a69479a95",
      "assetIds": [
        "55464657044963196816950587289035428064568320970692304673817341489687656669184",
        "55464657044963196816950587289035428064568320970692304673817341489687665059844",
        "55464657044963196816950587289035428064568320970692304673817341489687665059840"
      ]
    },
    {
      "x": 398,
      "y": 299,
      "size": 1,
      "price": "4683000000000000000000",
      "reserved": "",
      "salt": "0xa7ed48a6a4690e126d1da34e767ebf919b897d80beff774b604bc4ee1a73d2ca",
      "assetIds": [
        "55464657044963196816950587289035428064568320970692304673817341489687656669186",
        "55464657044963196816950587289035428064568320970692304673817341489687665059843",
        "55464657044963196816950587289035428064568320970692304673817341489687665059841"
      ]
    },
    {
      "x": 399,
      "y": 228,
      "size": 1,
      "price": "4683000000000000000000",
      "reserved": "",
      "salt": "0x5edd1c42419e9c1cec8a54035fff67daebbfa2f36ee343f50f213f4e5684984c",
      "assetIds": [
        "55464657044963196816950587289035428064568320970692304673817341489687656669186",
        "55464657044963196816950587289035428064568320970692304673817341489687665059842",
        "55464657044963196816950587289035428064568320970692304673817341489687665059841"
      ]
    },
    {
      "x": 399,
      "y": 229,
      "size": 1,
      "price": "4683000000000000000000",
      "reserved": "",
      "salt": "0xbf2a1b97d4d4b1949b6c7200b03730004127befec8c7bcbf05f3fea0d2b40dd3",
      "assetIds": [
        "55464657044963196816950587289035428064568320970692304673817341489687656669185",
        "55464657044963196816950587289035428064568320970692304673817341489687665059844",
        "55464657044963196816950587289035428064568320970692304673817341489687665059840"
      ]
    },
    {
      "x": 399,
      "y": 230,
      "size": 1,
      "price": "4683000000000000000000",
      "reserved": "",
      "salt": "0x34bbaa65563f5f6b00e2e6034ce8d62a8f03a0e6db7cb5ffd50dcc2e83b81c4b",
      "assetIds": [
        "55464657044963196816950587289035428064568320970692304673817341489687656669184",
        "55464657044963196816950587289035428064568320970692304673817341489687665059842",
        "55464657044963196816950587289035428064568320970692304673817341489687665059840"
      ]
    },
    {
      "x": 399,
      "y": 231,
      "size": 1,
      "price": "4683000000000000000000",
      "reserved": "",
      "salt": "0x9246ce87dacdc3102ba19fd354c7e692f4e8f1a0eaf2ca5a4fadde39a1013a1e",
      "assetIds": [
        "55464657044963196816950587289035428064568320970692304673817341489687656669187",
        "55464657044963196816950587289035428064568320970692304673817341489687665059844",
        "55464657044963196816950587289035428064568320970692304673817341489687665059841"
      ]
    },
    {
      "x": 399,
      "y": 232,
      "size": 1,
      "price": "4683000000000000000000",
      "reserved": "",
      "salt": "0x3da6cd3f9ec57a416e5d2d0c28a1402ebb022493e685e4c0ec174b6dd3f8bbcb",
      "assetIds": [
        "55464657044963196816950587289035428064568320970692304673817341489687656669185",
        "55464657044963196816950587289035428064568320970692304673817341489687665059842",
        "55464657044963196816950587289035428064568320970692304673817341489687665059840"
      ]
    },
    {
      "x": 399,
      "y": 233,
      "size": 1,
      "price": "4683000000000000000000",
      "reserved": "",
      "salt": "0xa3c3e60345ee6a3664164f0f94133f219c4edc0198ec071ef4ebc65300fb97af",
      "assetIds": [
        "55464657044963196816950587289035428064568320970692304673817341489687656669186",
        "55464657044963196816950587289035428064568320970692304673817341489687665059842",
        "55464657044963196816950587289035428064568320970692304673817341489687665059841"
      ]
    },
    {
      "x": 399,
      "y": 234,
      "size": 1,
      "price": "4683000000000000000000",
      "reserved": "",
      "salt": "0x29701f79900c762ce0f2324c056413d71c84b0b53983131ac8dad714bba7f9e6",
      "assetIds": [
        "55464657044963196816950587289035428064568320970692304673817341489687656669184",
        "55464657044963196816950587289035428064568320970692304673817341489687665059843",
        "55464657044963196816950587289035428064568320970692304673817341489687665059840"
      ]
    },
    {
      "x": 399,
      "y": 235,
      "size": 1,
      "price": "4683000000000000000000",
      "reserved": "",
      "salt": "0xd713e11e9d537002bc1c10159eb6eff78378dc541cf8d833672d3e08284adda5",
      "assetIds": [
        "55464657044963196816950587289035428064568320970692304673817341489687656669184",
        "55464657044963196816950587289035428064568320970692304673817341489687665059842",
        "55464657044963196816950587289035428064568320970692304673817341489687665059840"
      ]
    },
    {
      "x": 399,
      "y": 236,
      "size": 1,
      "price": "4683000000000000000000",
      "reserved": "",
      "salt": "0x178018018747bd4eae791741b456a37bd0b6adea7f87974d36bdd2611afcd647",
      "assetIds": [
        "55464657044963196816950587289035428064568320970692304673817341489687656669184",
        "55464657044963196816950587289035428064568320970692304673817341489687665059844",
        "55464657044963196816950587289035428064568320970692304673817341489687665059840"
      ]
    },
    {
      "x": 399,
      "y": 240,
      "size": 1,
      "price": "4683000000000000000000",
      "reserved": "",
      "salt": "0x81cd11a421d837130608a2d0396fc9079d3abc097f1e424f90f4ae2c5bfb761c",
      "assetIds": [
        "55464657044963196816950587289035428064568320970692304673817341489687656669186",
        "55464657044963196816950587289035428064568320970692304673817341489687665059843",
        "55464657044963196816950587289035428064568320970692304673817341489687665059841"
      ]
    },
    {
      "x": 399,
      "y": 241,
      "size": 1,
      "price": "1011000000000000000000",
      "reserved": "0x7a9fe22691c811ea339d9b73150e6911a5343dca",
      "salt": "0x1f7f125e2dddbedb897711fa49bf2d4c47e37fdf0b2c195e6a199bb8716ed10a",
      "assetIds": []
    },
    {
      "x": 399,
      "y": 242,
      "size": 1,
      "price": "4683000000000000000000",
      "reserved": "",
      "salt": "0x0e76f2d9bc4217afad2c3c4268597050335b75343a09051a7d2c348f969d81bf",
      "assetIds": [
        "55464657044963196816950587289035428064568320970692304673817341489687656669184",
        "55464657044963196816950587289035428064568320970692304673817341489687665059842",
        "55464657044963196816950587289035428064568320970692304673817341489687665059840"
      ]
    },
    {
      "x": 399,
      "y": 243,
      "size": 1,
      "price": "4683000000000000000000",
      "reserved": "",
      "salt": "0xeaad6a5f7a4d5b48f0036b020fc884076c928bd3284797541212d66afb3462b6",
      "assetIds": [
        "55464657044963196816950587289035428064568320970692304673817341489687656669187",
        "55464657044963196816950587289035428064568320970692304673817341489687665059843",
        "55464657044963196816950587289035428064568320970692304673817341489687665059841"
      ]
    },
    {
      "x": 399,
      "y": 244,
      "size": 1,
      "price": "4683000000000000000000",
      "reserved": "",
      "salt": "0x45e7c80464159b7d9194c80931d87f0857bb44ac30764f8828d5d358b2e00c89",
      "assetIds": [
        "55464657044963196816950587289035428064568320970692304673817341489687656669187",
        "55464657044963196816950587289035428064568320970692304673817341489687665059843",
        "55464657044963196816950587289035428064568320970692304673817341489687665059841"
      ]
    },
    {
      "x": 399,
      "y": 245,
      "size": 1,
      "price": "4683000000000000000000",
      "reserved": "",
      "salt": "0x22b0b768c01bee39d756deda6a5a5e2959f9ad198275b2ae0835904dccc30582",
      "assetIds": [
        "55464657044963196816950587289035428064568320970692304673817341489687656669186",
        "55464657044963196816950587289035428064568320970692304673817341489687665059842",
        "55464657044963196816950587289035428064568320970692304673817341489687665059841"
      ]
    },
    {
      "x": 399,
      "y": 246,
      "size": 1,
      "price": "4683000000000000000000",
      "reserved": "",
      "salt": "0x46925dcd06e00cd9b11d050379679eb401926e8dbb86a22cc5e5086b97de1f93",
      "assetIds": [
        "55464657044963196816950587289035428064568320970692304673817341489687656669184",
        "55464657044963196816950587289035428064568320970692304673817341489687665059844",
        "55464657044963196816950587289035428064568320970692304673817341489687665059840"
      ]
    },
    {
      "x": 399,
      "y": 247,
      "size": 1,
      "price": "4683000000000000000000",
      "reserved": "",
      "salt": "0xbc9687c3672e4e4f86c14d5e6981cac0d561d6210234177e0db566b938b83a8a",
      "assetIds": [
        "55464657044963196816950587289035428064568320970692304673817341489687656669184",
        "55464657044963196816950587289035428064568320970692304673817341489687665059843",
        "55464657044963196816950587289035428064568320970692304673817341489687665059840"
      ]
    },
    {
      "x": 399,
      "y": 248,
      "size": 1,
      "price": "4683000000000000000000",
      "reserved": "",
      "salt": "0x92affe622c37dad8bfc87bdc03bc16dc4185a86df45be105fd79d9004c4c5bf0",
      "assetIds": [
        "55464657044963196816950587289035428064568320970692304673817341489687656669184",
        "55464657044963196816950587289035428064568320970692304673817341489687665059844",
        "55464657044963196816950587289035428064568320970692304673817341489687665059840"
      ]
    },
    {
      "x": 399,
      "y": 249,
      "size": 1,
      "price": "4683000000000000000000",
      "reserved": "",
      "salt": "0x7feed41e89d1de95d4ea60da51eef5e026779599230fd35264ca163877c0f62c",
      "assetIds": [
        "55464657044963196816950587289035428064568320970692304673817341489687656669185",
        "55464657044963196816950587289035428064568320970692304673817341489687665059843",
        "55464657044963196816950587289035428064568320970692304673817341489687665059840"
      ]
    },
    {
      "x": 399,
      "y": 250,
      "size": 1,
      "price": "4683000000000000000000",
      "reserved": "",
      "salt": "0x74f0d02058e1482cccc80cbedaba0a245893a5a55657c47225422d33bb619ffb",
      "assetIds": [
        "55464657044963196816950587289035428064568320970692304673817341489687656669185",
        "55464657044963196816950587289035428064568320970692304673817341489687665059842",
        "55464657044963196816950587289035428064568320970692304673817341489687665059840"
      ]
    },
    {
      "x": 399,
      "y": 251,
      "size": 1,
      "price": "4683000000000000000000",
      "reserved": "",
      "salt": "0x1bf641e6dbea6fe8b087b12eaba2b9b9ec7569c20f46c169cfe07448b12e7533",
      "assetIds": [
        "55464657044963196816950587289035428064568320970692304673817341489687656669186",
        "55464657044963196816950587289035428064568320970692304673817341489687665059842",
        "55464657044963196816950587289035428064568320970692304673817341489687665059841"
      ]
    },
    {
      "x": 399,
      "y": 294,
      "size": 1,
      "price": "4683000000000000000000",
      "reserved": "",
      "salt": "0x905628b23c69eb6dfbe5f51a53ee2904a6584572b6b90a18b970f95be2f36306",
      "assetIds": [
        "55464657044963196816950587289035428064568320970692304673817341489687656669187",
        "55464657044963196816950587289035428064568320970692304673817341489687665059842",
        "55464657044963196816950587289035428064568320970692304673817341489687665059841"
      ]
    },
    {
      "x": 399,
      "y": 295,
      "size": 1,
      "price": "4683000000000000000000",
      "reserved": "",
      "salt": "0xee98fb57f17b234d7de8a56476f3a6fa4ca0aef56c032e74061e2475a0d6a0a1",
      "assetIds": [
        "55464657044963196816950587289035428064568320970692304673817341489687656669187",
        "55464657044963196816950587289035428064568320970692304673817341489687665059842",
        "55464657044963196816950587289035428064568320970692304673817341489687665059841"
      ]
    },
    {
      "x": 399,
      "y": 296,
      "size": 1,
      "price": "1011000000000000000000",
      "reserved": "0x7a9fe22691c811ea339d9b73150e6911a5343dca",
      "salt": "0x9fc67061a22d5364e150ae47c631c8e9cb26f6b8eb913d75acfb8d702752ce40",
      "assetIds": []
    },
    {
      "x": 399,
      "y": 297,
      "size": 1,
      "price": "4683000000000000000000",
      "reserved": "",
      "salt": "0xc26b8b00309e48f872f6df7c2577cd86cfcbb01440738a72a33578b663867b8d",
      "assetIds": [
        "55464657044963196816950587289035428064568320970692304673817341489687656669185",
        "55464657044963196816950587289035428064568320970692304673817341489687665059842",
        "55464657044963196816950587289035428064568320970692304673817341489687665059840"
      ]
    },
    {
      "x": 399,
      "y": 298,
      "size": 1,
      "price": "4683000000000000000000",
      "reserved": "",
      "salt": "0x114c52e68a790e82d1cfcaab267ddebb22cff9bb3d786155e9e351b5012b7732",
      "assetIds": [
        "55464657044963196816950587289035428064568320970692304673817341489687656669185",
        "55464657044963196816950587289035428064568320970692304673817341489687665059844",
        "55464657044963196816950587289035428064568320970692304673817341489687665059840"
      ]
    },
    {
      "x": 399,
      "y": 299,
      "size": 1,
      "price": "4683000000000000000000",
      "reserved": "",
      "salt": "0xf4ad1cc6afdf899c372c81a96d7d96d80bbb6d876bae897af24e4f8cb46c29e9",
      "assetIds": [
        "55464657044963196816950587289035428064568320970692304673817341489687656669185",
        "55464657044963196816950587289035428064568320970692304673817341489687665059843",
        "55464657044963196816950587289035428064568320970692304673817341489687665059840"
      ]
    },
    {
      "x": 400,
      "y": 228,
      "size": 1,
      "price": "4683000000000000000000",
      "reserved": "",
      "salt": "0xa2a66192721eb151a237ee936d04383a319d748d9c40db12290ac9443b1978c5",
      "assetIds": [
        "55464657044963196816950587289035428064568320970692304673817341489687656669185",
        "55464657044963196816950587289035428064568320970692304673817341489687665059842",
        "55464657044963196816950587289035428064568320970692304673817341489687665059840"
      ]
    },
    {
      "x": 400,
      "y": 229,
      "size": 1,
      "price": "4683000000000000000000",
      "reserved": "",
      "salt": "0x620cfec4b71ffb95392eae22f5dcb8a8f0271b32bbb7740e3ae5a5f744f0fabe",
      "assetIds": [
        "55464657044963196816950587289035428064568320970692304673817341489687656669186",
        "55464657044963196816950587289035428064568320970692304673817341489687665059843",
        "55464657044963196816950587289035428064568320970692304673817341489687665059841"
      ]
    },
    {
      "x": 400,
      "y": 230,
      "size": 1,
      "price": "4683000000000000000000",
      "reserved": "",
      "salt": "0x26fe053ef53955ee3cf24d1b5705dff7bec056a45903f1c529aa6440a61e3f6c",
      "assetIds": [
        "55464657044963196816950587289035428064568320970692304673817341489687656669187",
        "55464657044963196816950587289035428064568320970692304673817341489687665059843",
        "55464657044963196816950587289035428064568320970692304673817341489687665059841"
      ]
    },
    {
      "x": 400,
      "y": 231,
      "size": 1,
      "price": "4683000000000000000000",
      "reserved": "",
      "salt": "0x5c8d8b2263c3bdb3ec95f9e3c9dbc0399179e9f071de44223a2c2c6040c2c372",
      "assetIds": [
        "55464657044963196816950587289035428064568320970692304673817341489687656669187",
        "55464657044963196816950587289035428064568320970692304673817341489687665059844",
        "55464657044963196816950587289035428064568320970692304673817341489687665059841"
      ]
    },
    {
      "x": 400,
      "y": 232,
      "size": 1,
      "price": "4683000000000000000000",
      "reserved": "",
      "salt": "0x3347db896baad5dada9048739b04585ba9ed49e07cfc232932b70affc292ebb1",
      "assetIds": [
        "55464657044963196816950587289035428064568320970692304673817341489687656669186",
        "55464657044963196816950587289035428064568320970692304673817341489687665059844",
        "55464657044963196816950587289035428064568320970692304673817341489687665059841"
      ]
    },
    {
      "x": 400,
      "y": 233,
      "size": 1,
      "price": "4683000000000000000000",
      "reserved": "",
      "salt": "0xcf082505508cdc33df3168917529f22b3775608069300f211fe30bf7e46a5a28",
      "assetIds": [
        "55464657044963196816950587289035428064568320970692304673817341489687656669184",
        "55464657044963196816950587289035428064568320970692304673817341489687665059844",
        "55464657044963196816950587289035428064568320970692304673817341489687665059840"
      ]
    },
    {
      "x": 400,
      "y": 234,
      "size": 1,
      "price": "4683000000000000000000",
      "reserved": "",
      "salt": "0x0278f840dfe2e0eb0e50c38993e5cda0923b20ab46bd8d2017c4adb1cc0bcf5d",
      "assetIds": [
        "55464657044963196816950587289035428064568320970692304673817341489687656669184",
        "55464657044963196816950587289035428064568320970692304673817341489687665059843",
        "55464657044963196816950587289035428064568320970692304673817341489687665059840"
      ]
    },
    {
      "x": 400,
      "y": 235,
      "size": 1,
      "price": "4683000000000000000000",
      "reserved": "",
      "salt": "0x9ec4057e10be7abb958525cd839eaf4be879bc506e62adc678dbec06c9328c30",
      "assetIds": [
        "55464657044963196816950587289035428064568320970692304673817341489687656669186",
        "55464657044963196816950587289035428064568320970692304673817341489687665059842",
        "55464657044963196816950587289035428064568320970692304673817341489687665059841"
      ]
    },
    {
      "x": 400,
      "y": 236,
      "size": 1,
      "price": "4683000000000000000000",
      "reserved": "",
      "salt": "0xb13b00b50da3c8e5abd21b7d7799d39b48ab6c4477b3ad187ee4bacb7b2db85c",
      "assetIds": [
        "55464657044963196816950587289035428064568320970692304673817341489687656669184",
        "55464657044963196816950587289035428064568320970692304673817341489687665059844",
        "55464657044963196816950587289035428064568320970692304673817341489687665059840"
      ]
    },
    {
      "x": 400,
      "y": 240,
      "size": 1,
      "price": "4683000000000000000000",
      "reserved": "",
      "salt": "0x88e061892c6d5b0e193566e41a92820e38cca54d0e48e325259b7b4c20ef9ba1",
      "assetIds": [
        "55464657044963196816950587289035428064568320970692304673817341489687656669184",
        "55464657044963196816950587289035428064568320970692304673817341489687665059844",
        "55464657044963196816950587289035428064568320970692304673817341489687665059840"
      ]
    },
    {
      "x": 400,
      "y": 241,
      "size": 1,
      "price": "4683000000000000000000",
      "reserved": "",
      "salt": "0xcd2091fac2b5bf1241053ab0621f5682a084085fe4284d6c0957bee8214c4f95",
      "assetIds": [
        "55464657044963196816950587289035428064568320970692304673817341489687656669187",
        "55464657044963196816950587289035428064568320970692304673817341489687665059843",
        "55464657044963196816950587289035428064568320970692304673817341489687665059841"
      ]
    },
    {
      "x": 400,
      "y": 242,
      "size": 1,
      "price": "4683000000000000000000",
      "reserved": "",
      "salt": "0xf8ef6fea37fca286e480d6b289cf722711bbd4c3e64e4a4c2281c8baad6cf81a",
      "assetIds": [
        "55464657044963196816950587289035428064568320970692304673817341489687656669186",
        "55464657044963196816950587289035428064568320970692304673817341489687665059842",
        "55464657044963196816950587289035428064568320970692304673817341489687665059841"
      ]
    },
    {
      "x": 400,
      "y": 243,
      "size": 1,
      "price": "4683000000000000000000",
      "reserved": "",
      "salt": "0x5b2018a64bccba306f545afa085e12022bbf6ba3a87233a3c4d1847d2beea715",
      "assetIds": [
        "55464657044963196816950587289035428064568320970692304673817341489687656669185",
        "55464657044963196816950587289035428064568320970692304673817341489687665059844",
        "55464657044963196816950587289035428064568320970692304673817341489687665059840"
      ]
    },
    {
      "x": 400,
      "y": 244,
      "size": 1,
      "price": "4683000000000000000000",
      "reserved": "",
      "salt": "0x4bf4c9895bc18f2eb552b94ec367dc23169ee39d42f2687ac117b248356a1030",
      "assetIds": [
        "55464657044963196816950587289035428064568320970692304673817341489687656669187",
        "55464657044963196816950587289035428064568320970692304673817341489687665059842",
        "55464657044963196816950587289035428064568320970692304673817341489687665059841"
      ]
    },
    {
      "x": 400,
      "y": 245,
      "size": 1,
      "price": "4683000000000000000000",
      "reserved": "",
      "salt": "0xbd909f6074817a662b2f215bb7aa315fb9d7a3b542107b2084715f2c384efb7b",
      "assetIds": [
        "55464657044963196816950587289035428064568320970692304673817341489687656669186",
        "55464657044963196816950587289035428064568320970692304673817341489687665059843",
        "55464657044963196816950587289035428064568320970692304673817341489687665059841"
      ]
    },
    {
      "x": 400,
      "y": 246,
      "size": 1,
      "price": "4683000000000000000000",
      "reserved": "",
      "salt": "0x988a0fd7c9d4757adc3bb2e968b3bedf88af243ed0596fe79cdadfaa7f97e6ad",
      "assetIds": [
        "55464657044963196816950587289035428064568320970692304673817341489687656669186",
        "55464657044963196816950587289035428064568320970692304673817341489687665059842",
        "55464657044963196816950587289035428064568320970692304673817341489687665059841"
      ]
    },
    {
      "x": 400,
      "y": 247,
      "size": 1,
      "price": "4683000000000000000000",
      "reserved": "",
      "salt": "0x9d02c177ddf1e1cd19b483fb1badc32a411074fc2b95075bf37004282d0a381c",
      "assetIds": [
        "55464657044963196816950587289035428064568320970692304673817341489687656669185",
        "55464657044963196816950587289035428064568320970692304673817341489687665059843",
        "55464657044963196816950587289035428064568320970692304673817341489687665059840"
      ]
    },
    {
      "x": 400,
      "y": 248,
      "size": 1,
      "price": "4683000000000000000000",
      "reserved": "",
      "salt": "0x5ba869c1c11e4c07100fc0af498f9847688b484f6decc6a0ac24a062267fa4b6",
      "assetIds": [
        "55464657044963196816950587289035428064568320970692304673817341489687656669184",
        "55464657044963196816950587289035428064568320970692304673817341489687665059844",
        "55464657044963196816950587289035428064568320970692304673817341489687665059840"
      ]
    },
    {
      "x": 400,
      "y": 249,
      "size": 1,
      "price": "4683000000000000000000",
      "reserved": "",
      "salt": "0xeebfb993cfa34f1961063eb5368d14357040a8c6444f6d95923900eab9d20a85",
      "assetIds": [
        "55464657044963196816950587289035428064568320970692304673817341489687656669185",
        "55464657044963196816950587289035428064568320970692304673817341489687665059842",
        "55464657044963196816950587289035428064568320970692304673817341489687665059840"
      ]
    },
    {
      "x": 400,
      "y": 250,
      "size": 1,
      "price": "1011000000000000000000",
      "reserved": "0x7a9fe22691c811ea339d9b73150e6911a5343dca",
      "salt": "0xdaa134b6cbdc45230ccd0a90de74b00916b71f6942dade2943664f3b3303b178",
      "assetIds": []
    },
    {
      "x": 400,
      "y": 251,
      "size": 1,
      "price": "4683000000000000000000",
      "reserved": "",
      "salt": "0xd9081925b75b427a309eecec53135ebcc3fa4b843051d1e8c5bc7127551bf80d",
      "assetIds": [
        "55464657044963196816950587289035428064568320970692304673817341489687656669187",
        "55464657044963196816950587289035428064568320970692304673817341489687665059843",
        "55464657044963196816950587289035428064568320970692304673817341489687665059841"
      ]
    },
    {
      "x": 400,
      "y": 294,
      "size": 1,
      "price": "4683000000000000000000",
      "reserved": "",
      "salt": "0xa2c9567d5a7a3027ef065c2a8b6bfacec34237f06edd880bac2a0221e69fa432",
      "assetIds": [
        "55464657044963196816950587289035428064568320970692304673817341489687656669185",
        "55464657044963196816950587289035428064568320970692304673817341489687665059842",
        "55464657044963196816950587289035428064568320970692304673817341489687665059840"
      ]
    },
    {
      "x": 400,
      "y": 295,
      "size": 1,
      "price": "4683000000000000000000",
      "reserved": "",
      "salt": "0x4ccbd4aacfc4fa1025f3216896ec7e12d868c2b6451ddb815e3603254acd8e8c",
      "assetIds": [
        "55464657044963196816950587289035428064568320970692304673817341489687656669187",
        "55464657044963196816950587289035428064568320970692304673817341489687665059842",
        "55464657044963196816950587289035428064568320970692304673817341489687665059841"
      ]
    },
    {
      "x": 400,
      "y": 296,
      "size": 1,
      "price": "4683000000000000000000",
      "reserved": "",
      "salt": "0x432900c046ca96ddaa2e5b065edfa8875b1217ee8e899816529c6923b5f115de",
      "assetIds": [
        "55464657044963196816950587289035428064568320970692304673817341489687656669184",
        "55464657044963196816950587289035428064568320970692304673817341489687665059844",
        "55464657044963196816950587289035428064568320970692304673817341489687665059840"
      ]
    },
    {
      "x": 400,
      "y": 297,
      "size": 1,
      "price": "4683000000000000000000",
      "reserved": "",
      "salt": "0xb8381bc547181f67fb27b00a16184e191e77c0b8ff7e53c6cdaa24d3dfd80c5d",
      "assetIds": [
        "55464657044963196816950587289035428064568320970692304673817341489687656669187",
        "55464657044963196816950587289035428064568320970692304673817341489687665059844",
        "55464657044963196816950587289035428064568320970692304673817341489687665059841"
      ]
    },
    {
      "x": 400,
      "y": 298,
      "size": 1,
      "price": "4683000000000000000000",
      "reserved": "",
      "salt": "0x495c422019cc4708eadf3c779092ba02b9741be0a9c7fb0975edc05fcffdcb96",
      "assetIds": [
        "55464657044963196816950587289035428064568320970692304673817341489687656669185",
        "55464657044963196816950587289035428064568320970692304673817341489687665059844",
        "55464657044963196816950587289035428064568320970692304673817341489687665059840"
      ]
    },
    {
      "x": 400,
      "y": 299,
      "size": 1,
      "price": "4683000000000000000000",
      "reserved": "",
      "salt": "0x1a2a78b177a8957eee90f0c172fbeba38dd766e92d1f544c0aabe473c3d6679f",
      "assetIds": [
        "55464657044963196816950587289035428064568320970692304673817341489687656669184",
        "55464657044963196816950587289035428064568320970692304673817341489687665059843",
        "55464657044963196816950587289035428064568320970692304673817341489687665059840"
      ]
    },
    {
      "x": 401,
      "y": 228,
      "size": 1,
      "price": "4683000000000000000000",
      "reserved": "",
      "salt": "0x5973d3255399dabf9e94697eb56dc3b0cab6da7e1a123af4a537eb4d6041ed13",
      "assetIds": [
        "55464657044963196816950587289035428064568320970692304673817341489687656669184",
        "55464657044963196816950587289035428064568320970692304673817341489687665059843",
        "55464657044963196816950587289035428064568320970692304673817341489687665059840"
      ]
    },
    {
      "x": 401,
      "y": 229,
      "size": 1,
      "price": "4683000000000000000000",
      "reserved": "",
      "salt": "0xb9157bd629f66487e1973f5357194573a2b4281babbff5f895d4b17dea90790b",
      "assetIds": [
        "55464657044963196816950587289035428064568320970692304673817341489687656669185",
        "55464657044963196816950587289035428064568320970692304673817341489687665059844",
        "55464657044963196816950587289035428064568320970692304673817341489687665059840"
      ]
    },
    {
      "x": 401,
      "y": 230,
      "size": 1,
      "price": "4683000000000000000000",
      "reserved": "",
      "salt": "0x4261e953da2e4ec5db4297521d899520adc1b7d9bdab4e52a840e2d9a830ac29",
      "assetIds": [
        "55464657044963196816950587289035428064568320970692304673817341489687656669184",
        "55464657044963196816950587289035428064568320970692304673817341489687665059843",
        "55464657044963196816950587289035428064568320970692304673817341489687665059840"
      ]
    },
    {
      "x": 401,
      "y": 231,
      "size": 1,
      "price": "1011000000000000000000",
      "reserved": "0x7a9fe22691c811ea339d9b73150e6911a5343dca",
      "salt": "0x5f8c309f2fdf5b64bf08d4ab47156774464cf0d41b70e37e8d992d110fc876be",
      "assetIds": []
    },
    {
      "x": 401,
      "y": 232,
      "size": 1,
      "price": "4683000000000000000000",
      "reserved": "",
      "salt": "0x7ed37e8331da7ff8c1f465ca8b72c2be852211aad594c7fdf18ffe4491d6e77c",
      "assetIds": [
        "55464657044963196816950587289035428064568320970692304673817341489687656669187",
        "55464657044963196816950587289035428064568320970692304673817341489687665059843",
        "55464657044963196816950587289035428064568320970692304673817341489687665059841"
      ]
    },
    {
      "x": 401,
      "y": 233,
      "size": 1,
      "price": "1011000000000000000000",
      "reserved": "0x7a9fe22691c811ea339d9b73150e6911a5343dca",
      "salt": "0xedfd46d4c1c77720fb72fe2ffda4d8a1000d20d88b5fcf3b66e8cbf5aa961585",
      "assetIds": []
    },
    {
      "x": 401,
      "y": 234,
      "size": 1,
      "price": "4683000000000000000000",
      "reserved": "",
      "salt": "0xb49fc081dd906b5516bb2127c83a2215dff2b120a883ff04a799bc28d8efbbe7",
      "assetIds": [
        "55464657044963196816950587289035428064568320970692304673817341489687656669186",
        "55464657044963196816950587289035428064568320970692304673817341489687665059843",
        "55464657044963196816950587289035428064568320970692304673817341489687665059841"
      ]
    },
    {
      "x": 401,
      "y": 235,
      "size": 1,
      "price": "4683000000000000000000",
      "reserved": "",
      "salt": "0x2cb193bc6b4ab60777b31e96ff5858c4d4e0358547c784dd11f69e4fd5f4ad31",
      "assetIds": [
        "55464657044963196816950587289035428064568320970692304673817341489687656669185",
        "55464657044963196816950587289035428064568320970692304673817341489687665059842",
        "55464657044963196816950587289035428064568320970692304673817341489687665059840"
      ]
    },
    {
      "x": 401,
      "y": 236,
      "size": 1,
      "price": "4683000000000000000000",
      "reserved": "",
      "salt": "0x2422a9a8d8217650dded08313976b36916bf14b6dae325b10bc8712aef675d0b",
      "assetIds": [
        "55464657044963196816950587289035428064568320970692304673817341489687656669184",
        "55464657044963196816950587289035428064568320970692304673817341489687665059842",
        "55464657044963196816950587289035428064568320970692304673817341489687665059840"
      ]
    },
    {
      "x": 401,
      "y": 240,
      "size": 1,
      "price": "4683000000000000000000",
      "reserved": "",
      "salt": "0xa9549a93c009a186da89a085a7d1087b305925282e0dd3c415eedf0653761444",
      "assetIds": [
        "55464657044963196816950587289035428064568320970692304673817341489687656669185",
        "55464657044963196816950587289035428064568320970692304673817341489687665059843",
        "55464657044963196816950587289035428064568320970692304673817341489687665059840"
      ]
    },
    {
      "x": 401,
      "y": 241,
      "size": 1,
      "price": "4683000000000000000000",
      "reserved": "",
      "salt": "0x14e58efdff901d8f82a12cdf03b8ad9d1a26c01eca1c0f5d1236e95bc0a63dc6",
      "assetIds": [
        "55464657044963196816950587289035428064568320970692304673817341489687656669187",
        "55464657044963196816950587289035428064568320970692304673817341489687665059844",
        "55464657044963196816950587289035428064568320970692304673817341489687665059841"
      ]
    },
    {
      "x": 401,
      "y": 242,
      "size": 1,
      "price": "4683000000000000000000",
      "reserved": "",
      "salt": "0xd7395739ac21cdcd34f1af914e931ab708bdecdebda7c0b0abf9cd2cdffd4ffe",
      "assetIds": [
        "55464657044963196816950587289035428064568320970692304673817341489687656669187",
        "55464657044963196816950587289035428064568320970692304673817341489687665059842",
        "55464657044963196816950587289035428064568320970692304673817341489687665059841"
      ]
    },
    {
      "x": 401,
      "y": 243,
      "size": 1,
      "price": "4683000000000000000000",
      "reserved": "",
      "salt": "0x2d4184f38da471eea175b0a7f4e1735e4a9f071c44fa1cd4fc7268f410feaccd",
      "assetIds": [
        "55464657044963196816950587289035428064568320970692304673817341489687656669185",
        "55464657044963196816950587289035428064568320970692304673817341489687665059843",
        "55464657044963196816950587289035428064568320970692304673817341489687665059840"
      ]
    },
    {
      "x": 401,
      "y": 244,
      "size": 1,
      "price": "4683000000000000000000",
      "reserved": "",
      "salt": "0xe1572a8d06b67fe120e32b2d32c7460eaf2736257c7764c6ee8de170a4021257",
      "assetIds": [
        "55464657044963196816950587289035428064568320970692304673817341489687656669186",
        "55464657044963196816950587289035428064568320970692304673817341489687665059844",
        "55464657044963196816950587289035428064568320970692304673817341489687665059841"
      ]
    },
    {
      "x": 401,
      "y": 245,
      "size": 1,
      "price": "4683000000000000000000",
      "reserved": "",
      "salt": "0x3fbf1f5f9f99cf193876926055ab3f5fe008a300a03bf72903fa17ca6736ffd2",
      "assetIds": [
        "55464657044963196816950587289035428064568320970692304673817341489687656669187",
        "55464657044963196816950587289035428064568320970692304673817341489687665059844",
        "55464657044963196816950587289035428064568320970692304673817341489687665059841"
      ]
    },
    {
      "x": 401,
      "y": 246,
      "size": 1,
      "price": "4683000000000000000000",
      "reserved": "",
      "salt": "0xc5399997da540b44014277fc2be4f64b66ade3dcfb7111eee6e23497b1d637c4",
      "assetIds": [
        "55464657044963196816950587289035428064568320970692304673817341489687656669187",
        "55464657044963196816950587289035428064568320970692304673817341489687665059844",
        "55464657044963196816950587289035428064568320970692304673817341489687665059841"
      ]
    },
    {
      "x": 401,
      "y": 247,
      "size": 1,
      "price": "4683000000000000000000",
      "reserved": "",
      "salt": "0x8a1bfb0504e170f31f6b68219f75e6ef0f8ef714b3cdd5614cb5e97bf6f8472f",
      "assetIds": [
        "55464657044963196816950587289035428064568320970692304673817341489687656669186",
        "55464657044963196816950587289035428064568320970692304673817341489687665059844",
        "55464657044963196816950587289035428064568320970692304673817341489687665059841"
      ]
    },
    {
      "x": 401,
      "y": 248,
      "size": 1,
      "price": "4683000000000000000000",
      "reserved": "",
      "salt": "0x8e1b6efc392456c5e777382f9522d8eef750dcdcf5be7c7d1d30c1f3e203154b",
      "assetIds": [
        "55464657044963196816950587289035428064568320970692304673817341489687656669186",
        "55464657044963196816950587289035428064568320970692304673817341489687665059842",
        "55464657044963196816950587289035428064568320970692304673817341489687665059841"
      ]
    },
    {
      "x": 401,
      "y": 249,
      "size": 1,
      "price": "4683000000000000000000",
      "reserved": "",
      "salt": "0xee427004fceab1c4ca64e97102b6ba3759f16cbba995818dbe5b3b03e8baa625",
      "assetIds": [
        "55464657044963196816950587289035428064568320970692304673817341489687656669186",
        "55464657044963196816950587289035428064568320970692304673817341489687665059842",
        "55464657044963196816950587289035428064568320970692304673817341489687665059841"
      ]
    },
    {
      "x": 401,
      "y": 250,
      "size": 1,
      "price": "4683000000000000000000",
      "reserved": "",
      "salt": "0xa20d117116c8f49ea58f25939bb97996ed2ca7a8b99b642c1f1aef8d5533ffd8",
      "assetIds": [
        "55464657044963196816950587289035428064568320970692304673817341489687656669184",
        "55464657044963196816950587289035428064568320970692304673817341489687665059844",
        "55464657044963196816950587289035428064568320970692304673817341489687665059840"
      ]
    },
    {
      "x": 401,
      "y": 251,
      "size": 1,
      "price": "4683000000000000000000",
      "reserved": "",
      "salt": "0xb8d41762015055ec70f476aeae2f5d2abb4c9731beb917b1f36cf33a7e04bcc6",
      "assetIds": [
        "55464657044963196816950587289035428064568320970692304673817341489687656669187",
        "55464657044963196816950587289035428064568320970692304673817341489687665059842",
        "55464657044963196816950587289035428064568320970692304673817341489687665059841"
      ]
    },
    {
      "x": 401,
      "y": 294,
      "size": 1,
      "price": "4683000000000000000000",
      "reserved": "",
      "salt": "0xd29849a238ec3f74491c283acb2e659ccaa956e1ccd0f95d1107194090a7dd6c",
      "assetIds": [
        "55464657044963196816950587289035428064568320970692304673817341489687656669187",
        "55464657044963196816950587289035428064568320970692304673817341489687665059843",
        "55464657044963196816950587289035428064568320970692304673817341489687665059841"
      ]
    },
    {
      "x": 401,
      "y": 295,
      "size": 1,
      "price": "4683000000000000000000",
      "reserved": "",
      "salt": "0xa1940457d23c7e39f8a44028a53e551ec8ed3c0b7955582dcf8979df5e7777ac",
      "assetIds": [
        "55464657044963196816950587289035428064568320970692304673817341489687656669184",
        "55464657044963196816950587289035428064568320970692304673817341489687665059843",
        "55464657044963196816950587289035428064568320970692304673817341489687665059840"
      ]
    },
    {
      "x": 401,
      "y": 296,
      "size": 1,
      "price": "4683000000000000000000",
      "reserved": "",
      "salt": "0x506b22fe66f417c305322198dddddc78facf7d77adebe52ece409f1a6052904b",
      "assetIds": [
        "55464657044963196816950587289035428064568320970692304673817341489687656669185",
        "55464657044963196816950587289035428064568320970692304673817341489687665059844",
        "55464657044963196816950587289035428064568320970692304673817341489687665059840"
      ]
    },
    {
      "x": 401,
      "y": 297,
      "size": 1,
      "price": "4683000000000000000000",
      "reserved": "",
      "salt": "0x8cafb469dee93da24176076493822d3c3f89cf667419cb2d4bf18896a7820acb",
      "assetIds": [
        "55464657044963196816950587289035428064568320970692304673817341489687656669184",
        "55464657044963196816950587289035428064568320970692304673817341489687665059842",
        "55464657044963196816950587289035428064568320970692304673817341489687665059840"
      ]
    },
    {
      "x": 401,
      "y": 298,
      "size": 1,
      "price": "4683000000000000000000",
      "reserved": "",
      "salt": "0x9f99ee09f43d2e77debb0355e3d04364e6c2eec77c307b8acc47e3b659e8f30a",
      "assetIds": [
        "55464657044963196816950587289035428064568320970692304673817341489687656669187",
        "55464657044963196816950587289035428064568320970692304673817341489687665059842",
        "55464657044963196816950587289035428064568320970692304673817341489687665059841"
      ]
    },
    {
      "x": 401,
      "y": 299,
      "size": 1,
      "price": "4683000000000000000000",
      "reserved": "",
      "salt": "0xf5c334bc8f597414b69fa9503288c2deeddf3961d6eeadd88800c41c75273a54",
      "assetIds": [
        "55464657044963196816950587289035428064568320970692304673817341489687656669185",
        "55464657044963196816950587289035428064568320970692304673817341489687665059843",
        "55464657044963196816950587289035428064568320970692304673817341489687665059840"
      ]
    },
    {
      "x": 402,
      "y": 240,
      "size": 1,
      "price": "4683000000000000000000",
      "reserved": "",
      "salt": "0xc8e22b311cba382f17d0082e922d6d4da275125d0369390cf28057bad78ab254",
      "assetIds": [
        "55464657044963196816950587289035428064568320970692304673817341489687656669184",
        "55464657044963196816950587289035428064568320970692304673817341489687665059843",
        "55464657044963196816950587289035428064568320970692304673817341489687665059840"
      ]
    },
    {
      "x": 402,
      "y": 241,
      "size": 1,
      "price": "4683000000000000000000",
      "reserved": "",
      "salt": "0x5738fe13c9b712649dbf40a646eb893a4621c4d8ee5cc01ca988ffd958a99a4b",
      "assetIds": [
        "55464657044963196816950587289035428064568320970692304673817341489687656669187",
        "55464657044963196816950587289035428064568320970692304673817341489687665059844",
        "55464657044963196816950587289035428064568320970692304673817341489687665059841"
      ]
    },
    {
      "x": 402,
      "y": 242,
      "size": 1,
      "price": "4683000000000000000000",
      "reserved": "",
      "salt": "0x36f8565b65355b2bb9cfb6a34d1bfe8843e954eb302706c652185cea10fce309",
      "assetIds": [
        "55464657044963196816950587289035428064568320970692304673817341489687656669184",
        "55464657044963196816950587289035428064568320970692304673817341489687665059842",
        "55464657044963196816950587289035428064568320970692304673817341489687665059840"
      ]
    },
    {
      "x": 402,
      "y": 243,
      "size": 1,
      "price": "4683000000000000000000",
      "reserved": "",
      "salt": "0xe805b4f73d81da92682d2a2570535915e63c7f2bf455036be4cbcf2854c10d85",
      "assetIds": [
        "55464657044963196816950587289035428064568320970692304673817341489687656669184",
        "55464657044963196816950587289035428064568320970692304673817341489687665059844",
        "55464657044963196816950587289035428064568320970692304673817341489687665059840"
      ]
    },
    {
      "x": 402,
      "y": 244,
      "size": 1,
      "price": "4683000000000000000000",
      "reserved": "",
      "salt": "0x93be90a93022a1ca4f6c0b51614f04ff00effc8852a08206b43586d9116859cb",
      "assetIds": [
        "55464657044963196816950587289035428064568320970692304673817341489687656669186",
        "55464657044963196816950587289035428064568320970692304673817341489687665059842",
        "55464657044963196816950587289035428064568320970692304673817341489687665059841"
      ]
    },
    {
      "x": 402,
      "y": 245,
      "size": 1,
      "price": "4683000000000000000000",
      "reserved": "",
      "salt": "0x62abd3cc15d62138261d5084a9080d838bf0d08ff409650b334c377cf794a15b",
      "assetIds": [
        "55464657044963196816950587289035428064568320970692304673817341489687656669187",
        "55464657044963196816950587289035428064568320970692304673817341489687665059843",
        "55464657044963196816950587289035428064568320970692304673817341489687665059841"
      ]
    },
    {
      "x": 402,
      "y": 246,
      "size": 1,
      "price": "4683000000000000000000",
      "reserved": "",
      "salt": "0x9c5ea45f1ba920475d0302433491f0ddf552b36d2a60b2f3c014efd6bfcd314f",
      "assetIds": [
        "55464657044963196816950587289035428064568320970692304673817341489687656669186",
        "55464657044963196816950587289035428064568320970692304673817341489687665059844",
        "55464657044963196816950587289035428064568320970692304673817341489687665059841"
      ]
    },
    {
      "x": 402,
      "y": 247,
      "size": 1,
      "price": "4683000000000000000000",
      "reserved": "",
      "salt": "0xa2cdc663d7aa617184eed7f7cec38a85621afe733a066bd53f36692e7a23df16",
      "assetIds": [
        "55464657044963196816950587289035428064568320970692304673817341489687656669186",
        "55464657044963196816950587289035428064568320970692304673817341489687665059843",
        "55464657044963196816950587289035428064568320970692304673817341489687665059841"
      ]
    },
    {
      "x": 402,
      "y": 248,
      "size": 1,
      "price": "4683000000000000000000",
      "reserved": "",
      "salt": "0xa8b10ceaa5d0ce889f03bf85f0657db04e8cb0447a682d6051691a3501a89dcc",
      "assetIds": [
        "55464657044963196816950587289035428064568320970692304673817341489687656669186",
        "55464657044963196816950587289035428064568320970692304673817341489687665059842",
        "55464657044963196816950587289035428064568320970692304673817341489687665059841"
      ]
    },
    {
      "x": 402,
      "y": 249,
      "size": 1,
      "price": "4683000000000000000000",
      "reserved": "",
      "salt": "0x242a70cd11b3a94600c4a49b053695992eee6ae33a014463eb30851476f71a60",
      "assetIds": [
        "55464657044963196816950587289035428064568320970692304673817341489687656669187",
        "55464657044963196816950587289035428064568320970692304673817341489687665059842",
        "55464657044963196816950587289035428064568320970692304673817341489687665059841"
      ]
    },
    {
      "x": 402,
      "y": 250,
      "size": 1,
      "price": "4683000000000000000000",
      "reserved": "",
      "salt": "0xb2989175b8423f439b76ca6e263b792164f811ce3dbfb422e42404d43ea9490d",
      "assetIds": [
        "55464657044963196816950587289035428064568320970692304673817341489687656669186",
        "55464657044963196816950587289035428064568320970692304673817341489687665059844",
        "55464657044963196816950587289035428064568320970692304673817341489687665059841"
      ]
    },
    {
      "x": 402,
      "y": 251,
      "size": 1,
      "price": "4683000000000000000000",
      "reserved": "",
      "salt": "0xc430f31a560a6c9814ae95b303630a3142acb49f615581827272ad4f9222e830",
      "assetIds": [
        "55464657044963196816950587289035428064568320970692304673817341489687656669184",
        "55464657044963196816950587289035428064568320970692304673817341489687665059843",
        "55464657044963196816950587289035428064568320970692304673817341489687665059840"
      ]
    },
    {
      "x": 402,
      "y": 288,
      "size": 1,
      "price": "4683000000000000000000",
      "reserved": "",
      "salt": "0x60a80030b078c821f86b5fea635d2e6a5ab9212144bbd1c7b6a5ed032ec21a2d",
      "assetIds": [
        "55464657044963196816950587289035428064568320970692304673817341489687656669186",
        "55464657044963196816950587289035428064568320970692304673817341489687665059843",
        "55464657044963196816950587289035428064568320970692304673817341489687665059841"
      ]
    },
    {
      "x": 402,
      "y": 289,
      "size": 1,
      "price": "4683000000000000000000",
      "reserved": "",
      "salt": "0x97932c5e2aff3ee1461148f292151663dc788d2144d9ce53dc50692a770eef66",
      "assetIds": [
        "55464657044963196816950587289035428064568320970692304673817341489687656669184",
        "55464657044963196816950587289035428064568320970692304673817341489687665059843",
        "55464657044963196816950587289035428064568320970692304673817341489687665059840"
      ]
    },
    {
      "x": 402,
      "y": 290,
      "size": 1,
      "price": "4683000000000000000000",
      "reserved": "",
      "salt": "0x6849bb2d0fc99beacf95873f8cfe615e444bc031187c16d03a8b1a82ab8f9900",
      "assetIds": [
        "55464657044963196816950587289035428064568320970692304673817341489687656669184",
        "55464657044963196816950587289035428064568320970692304673817341489687665059844",
        "55464657044963196816950587289035428064568320970692304673817341489687665059840"
      ]
    },
    {
      "x": 402,
      "y": 291,
      "size": 1,
      "price": "4683000000000000000000",
      "reserved": "",
      "salt": "0x54f1f58910bedbaf53be49a7cd866ba6be4cdb5b918b8f4beb62dc5e93c637dc",
      "assetIds": [
        "55464657044963196816950587289035428064568320970692304673817341489687656669184",
        "55464657044963196816950587289035428064568320970692304673817341489687665059842",
        "55464657044963196816950587289035428064568320970692304673817341489687665059840"
      ]
    },
    {
      "x": 402,
      "y": 292,
      "size": 1,
      "price": "4683000000000000000000",
      "reserved": "",
      "salt": "0x6417cf98bd17aa883580ad28e1e66889aa9439a75924bc56b4d147bcf0d556f5",
      "assetIds": [
        "55464657044963196816950587289035428064568320970692304673817341489687656669186",
        "55464657044963196816950587289035428064568320970692304673817341489687665059842",
        "55464657044963196816950587289035428064568320970692304673817341489687665059841"
      ]
    },
    {
      "x": 402,
      "y": 293,
      "size": 1,
      "price": "4683000000000000000000",
      "reserved": "",
      "salt": "0x547eb8eeeff2a629bcfdebca666d1f1bed59f99848abfb0d4554112e9afed934",
      "assetIds": [
        "55464657044963196816950587289035428064568320970692304673817341489687656669185",
        "55464657044963196816950587289035428064568320970692304673817341489687665059844",
        "55464657044963196816950587289035428064568320970692304673817341489687665059840"
      ]
    },
    {
      "x": 402,
      "y": 306,
      "size": 1,
      "price": "4683000000000000000000",
      "reserved": "",
      "salt": "0x5d3bf74fb0dd960b1b15f2f40b619b8ef04cab72bccca383050df21981b01a7f",
      "assetIds": [
        "55464657044963196816950587289035428064568320970692304673817341489687656669184",
        "55464657044963196816950587289035428064568320970692304673817341489687665059844",
        "55464657044963196816950587289035428064568320970692304673817341489687665059840"
      ]
    },
    {
      "x": 402,
      "y": 307,
      "size": 1,
      "price": "4683000000000000000000",
      "reserved": "",
      "salt": "0xc63f1b753da623fbde154fb4957b26969a518cdef2f199aff7cce4a8892e89db",
      "assetIds": [
        "55464657044963196816950587289035428064568320970692304673817341489687656669186",
        "55464657044963196816950587289035428064568320970692304673817341489687665059842",
        "55464657044963196816950587289035428064568320970692304673817341489687665059841"
      ]
    },
    {
      "x": 402,
      "y": 308,
      "size": 1,
      "price": "4683000000000000000000",
      "reserved": "",
      "salt": "0xed1b277473de1f1dd8fbb40265f6b8c3921d62bedcce3ab47f318fb09e093073",
      "assetIds": [
        "55464657044963196816950587289035428064568320970692304673817341489687656669185",
        "55464657044963196816950587289035428064568320970692304673817341489687665059843",
        "55464657044963196816950587289035428064568320970692304673817341489687665059840"
      ]
    },
    {
      "x": 402,
      "y": 309,
      "size": 1,
      "price": "4683000000000000000000",
      "reserved": "",
      "salt": "0xbeecd1125c23bc9ff65d95562dd7b5d626ef27220ee40db39724a429224b1ed9",
      "assetIds": [
        "55464657044963196816950587289035428064568320970692304673817341489687656669184",
        "55464657044963196816950587289035428064568320970692304673817341489687665059843",
        "55464657044963196816950587289035428064568320970692304673817341489687665059840"
      ]
    },
    {
      "x": 402,
      "y": 310,
      "size": 1,
      "price": "4683000000000000000000",
      "reserved": "",
      "salt": "0x3020668b03a57fc4445489d07cfeb6837b5ac9da8208af57ac6299d3349c4508",
      "assetIds": [
        "55464657044963196816950587289035428064568320970692304673817341489687656669186",
        "55464657044963196816950587289035428064568320970692304673817341489687665059843",
        "55464657044963196816950587289035428064568320970692304673817341489687665059841"
      ]
    },
    {
      "x": 402,
      "y": 311,
      "size": 1,
      "price": "4683000000000000000000",
      "reserved": "",
      "salt": "0x5170fe534335c5b4705e64fda6ac4bbae5bfba49b2e803638b078ef9863c8409",
      "assetIds": [
        "55464657044963196816950587289035428064568320970692304673817341489687656669186",
        "55464657044963196816950587289035428064568320970692304673817341489687665059843",
        "55464657044963196816950587289035428064568320970692304673817341489687665059841"
      ]
    },
    {
      "x": 403,
      "y": 240,
      "size": 1,
      "price": "4683000000000000000000",
      "reserved": "",
      "salt": "0xe93ebbe5a0eb4fda340799a37574297cd26e071083286cbbf007d70f92962197",
      "assetIds": [
        "55464657044963196816950587289035428064568320970692304673817341489687656669184",
        "55464657044963196816950587289035428064568320970692304673817341489687665059844",
        "55464657044963196816950587289035428064568320970692304673817341489687665059840"
      ]
    },
    {
      "x": 403,
      "y": 241,
      "size": 1,
      "price": "4683000000000000000000",
      "reserved": "",
      "salt": "0xf2e22fd1d4a69eaaa392ca1c7e8a38c82aaea98fa407bae3e88efaa904a83319",
      "assetIds": [
        "55464657044963196816950587289035428064568320970692304673817341489687656669184",
        "55464657044963196816950587289035428064568320970692304673817341489687665059843",
        "55464657044963196816950587289035428064568320970692304673817341489687665059840"
      ]
    },
    {
      "x": 403,
      "y": 242,
      "size": 1,
      "price": "4683000000000000000000",
      "reserved": "",
      "salt": "0xb2d6615cbdb585d81bfd5ad82dd670ee6f97b41a7f54f2fc0f11fb58528f26bf",
      "assetIds": [
        "55464657044963196816950587289035428064568320970692304673817341489687656669185",
        "55464657044963196816950587289035428064568320970692304673817341489687665059842",
        "55464657044963196816950587289035428064568320970692304673817341489687665059840"
      ]
    },
    {
      "x": 403,
      "y": 243,
      "size": 1,
      "price": "4683000000000000000000",
      "reserved": "",
      "salt": "0x747b70f9b990736560f5fb03a2b5019673f46b15292ecb9048f726313447e056",
      "assetIds": [
        "55464657044963196816950587289035428064568320970692304673817341489687656669184",
        "55464657044963196816950587289035428064568320970692304673817341489687665059843",
        "55464657044963196816950587289035428064568320970692304673817341489687665059840"
      ]
    },
    {
      "x": 403,
      "y": 244,
      "size": 1,
      "price": "4683000000000000000000",
      "reserved": "",
      "salt": "0xa1a3ac40fbb41bd7c7e66166081be7af1fc57741360286b39b64205ac3ea6cc7",
      "assetIds": [
        "55464657044963196816950587289035428064568320970692304673817341489687656669184",
        "55464657044963196816950587289035428064568320970692304673817341489687665059843",
        "55464657044963196816950587289035428064568320970692304673817341489687665059840"
      ]
    },
    {
      "x": 403,
      "y": 245,
      "size": 1,
      "price": "4683000000000000000000",
      "reserved": "",
      "salt": "0xee211e6212062e6eff68eb3dc2287060cca51cfb6b393ee7d3df5daa8b552640",
      "assetIds": [
        "55464657044963196816950587289035428064568320970692304673817341489687656669186",
        "55464657044963196816950587289035428064568320970692304673817341489687665059844",
        "55464657044963196816950587289035428064568320970692304673817341489687665059841"
      ]
    },
    {
      "x": 403,
      "y": 246,
      "size": 1,
      "price": "4683000000000000000000",
      "reserved": "",
      "salt": "0xe28834bee26961dacc7b41f8c27eaf0303a312d156d593157c9782cbe979681f",
      "assetIds": [
        "55464657044963196816950587289035428064568320970692304673817341489687656669186",
        "55464657044963196816950587289035428064568320970692304673817341489687665059843",
        "55464657044963196816950587289035428064568320970692304673817341489687665059841"
      ]
    },
    {
      "x": 403,
      "y": 247,
      "size": 1,
      "price": "4683000000000000000000",
      "reserved": "",
      "salt": "0xdad72b4514d1a41266e4bfdaeb361177584494948e84ab1950c42bc97e67fd42",
      "assetIds": [
        "55464657044963196816950587289035428064568320970692304673817341489687656669185",
        "55464657044963196816950587289035428064568320970692304673817341489687665059843",
        "55464657044963196816950587289035428064568320970692304673817341489687665059840"
      ]
    },
    {
      "x": 403,
      "y": 248,
      "size": 1,
      "price": "4683000000000000000000",
      "reserved": "",
      "salt": "0xd036d3982d6705a21ab91bf2cbbc66a9b5efa88b6da08f43370795ea2699d350",
      "assetIds": [
        "55464657044963196816950587289035428064568320970692304673817341489687656669187",
        "55464657044963196816950587289035428064568320970692304673817341489687665059843",
        "55464657044963196816950587289035428064568320970692304673817341489687665059841"
      ]
    },
    {
      "x": 403,
      "y": 249,
      "size": 1,
      "price": "4683000000000000000000",
      "reserved": "",
      "salt": "0x0f6ec3d0d7bbf25c88cb30c2d0b9b9e09fc8cff68ed73e2d8636af09508db412",
      "assetIds": [
        "55464657044963196816950587289035428064568320970692304673817341489687656669187",
        "55464657044963196816950587289035428064568320970692304673817341489687665059842",
        "55464657044963196816950587289035428064568320970692304673817341489687665059841"
      ]
    },
    {
      "x": 403,
      "y": 250,
      "size": 1,
      "price": "4683000000000000000000",
      "reserved": "",
      "salt": "0xef3c8124116021b76576115cab5e86cddb0d54cf9a2feb11e70363d0f0d2056a",
      "assetIds": [
        "55464657044963196816950587289035428064568320970692304673817341489687656669184",
        "55464657044963196816950587289035428064568320970692304673817341489687665059842",
        "55464657044963196816950587289035428064568320970692304673817341489687665059840"
      ]
    },
    {
      "x": 403,
      "y": 251,
      "size": 1,
      "price": "4683000000000000000000",
      "reserved": "",
      "salt": "0x777b318f26d4ff0b78989fdac23ad4997544b981f65dba9cab2cdb8de9d884f2",
      "assetIds": [
        "55464657044963196816950587289035428064568320970692304673817341489687656669187",
        "55464657044963196816950587289035428064568320970692304673817341489687665059844",
        "55464657044963196816950587289035428064568320970692304673817341489687665059841"
      ]
    },
    {
      "x": 403,
      "y": 288,
      "size": 1,
      "price": "4683000000000000000000",
      "reserved": "",
      "salt": "0x0dd5be9c9a1402646b31d8bcda35580d743b6e46d1b9f239965680337e7f623d",
      "assetIds": [
        "55464657044963196816950587289035428064568320970692304673817341489687656669186",
        "55464657044963196816950587289035428064568320970692304673817341489687665059842",
        "55464657044963196816950587289035428064568320970692304673817341489687665059841"
      ]
    },
    {
      "x": 403,
      "y": 289,
      "size": 1,
      "price": "4683000000000000000000",
      "reserved": "",
      "salt": "0x5cdfd64794548c8140e2ad23cad7ff59fcc00479f34dc3d671e0255698e7c3aa",
      "assetIds": [
        "55464657044963196816950587289035428064568320970692304673817341489687656669186",
        "55464657044963196816950587289035428064568320970692304673817341489687665059843",
        "55464657044963196816950587289035428064568320970692304673817341489687665059841"
      ]
    },
    {
      "x": 403,
      "y": 290,
      "size": 1,
      "price": "4683000000000000000000",
      "reserved": "",
      "salt": "0x9681ba0e420a4a8ba2e946cefab63134f4bbb1a86cae97912e7a49972b343210",
      "assetIds": [
        "55464657044963196816950587289035428064568320970692304673817341489687656669186",
        "55464657044963196816950587289035428064568320970692304673817341489687665059843",
        "55464657044963196816950587289035428064568320970692304673817341489687665059841"
      ]
    },
    {
      "x": 403,
      "y": 291,
      "size": 1,
      "price": "4683000000000000000000",
      "reserved": "",
      "salt": "0x3cbdce793ac5bae66673ea341401f8ef3a58060e6fc9c4706469961a4c70e4ee",
      "assetIds": [
        "55464657044963196816950587289035428064568320970692304673817341489687656669185",
        "55464657044963196816950587289035428064568320970692304673817341489687665059842",
        "55464657044963196816950587289035428064568320970692304673817341489687665059840"
      ]
    },
    {
      "x": 403,
      "y": 292,
      "size": 1,
      "price": "4683000000000000000000",
      "reserved": "",
      "salt": "0x941907a38e078926f993531318d956e35e236e2973dbeac2b7c81460f403eb17",
      "assetIds": [
        "55464657044963196816950587289035428064568320970692304673817341489687656669186",
        "55464657044963196816950587289035428064568320970692304673817341489687665059844",
        "55464657044963196816950587289035428064568320970692304673817341489687665059841"
      ]
    },
    {
      "x": 403,
      "y": 293,
      "size": 1,
      "price": "4683000000000000000000",
      "reserved": "",
      "salt": "0x77946ef1fa3eef1fcb5f08628a9c430b8604c5bffd78249c9d92e832cdfa7335",
      "assetIds": [
        "55464657044963196816950587289035428064568320970692304673817341489687656669187",
        "55464657044963196816950587289035428064568320970692304673817341489687665059844",
        "55464657044963196816950587289035428064568320970692304673817341489687665059841"
      ]
    },
    {
      "x": 403,
      "y": 306,
      "size": 1,
      "price": "4683000000000000000000",
      "reserved": "",
      "salt": "0x2e1dccf92a0fa1d1b1f27933ebb1a9d8edf075a703b49582fc5157eec3ecaaa3",
      "assetIds": [
        "55464657044963196816950587289035428064568320970692304673817341489687656669184",
        "55464657044963196816950587289035428064568320970692304673817341489687665059842",
        "55464657044963196816950587289035428064568320970692304673817341489687665059840"
      ]
    },
    {
      "x": 403,
      "y": 307,
      "size": 1,
      "price": "4683000000000000000000",
      "reserved": "",
      "salt": "0x26af14124147c09c81e79fec1b22730f02f76475a850ca11ba83601a4adb90b6",
      "assetIds": [
        "55464657044963196816950587289035428064568320970692304673817341489687656669187",
        "55464657044963196816950587289035428064568320970692304673817341489687665059843",
        "55464657044963196816950587289035428064568320970692304673817341489687665059841"
      ]
    },
    {
      "x": 403,
      "y": 308,
      "size": 1,
      "price": "4683000000000000000000",
      "reserved": "",
      "salt": "0xf1c31a2a071f008e81fd5fd2dd069f5d9589babe33ceed2832a2e1f24999e361",
      "assetIds": [
        "55464657044963196816950587289035428064568320970692304673817341489687656669184",
        "55464657044963196816950587289035428064568320970692304673817341489687665059843",
        "55464657044963196816950587289035428064568320970692304673817341489687665059840"
      ]
    },
    {
      "x": 403,
      "y": 309,
      "size": 1,
      "price": "1011000000000000000000",
      "reserved": "0x7a9fe22691c811ea339d9b73150e6911a5343dca",
      "salt": "0x6d5d23b10491b0b6ffabae43d3fc376ef0d8e98fa3412e07eba4994e1d00c476",
      "assetIds": []
    },
    {
      "x": 403,
      "y": 310,
      "size": 1,
      "price": "4683000000000000000000",
      "reserved": "",
      "salt": "0x2123bcc504160fdc1613f17c98d23ff0d5a143166d33f86ea2f9bba288ce84a3",
      "assetIds": [
        "55464657044963196816950587289035428064568320970692304673817341489687656669187",
        "55464657044963196816950587289035428064568320970692304673817341489687665059842",
        "55464657044963196816950587289035428064568320970692304673817341489687665059841"
      ]
    },
    {
      "x": 403,
      "y": 311,
      "size": 1,
      "price": "4683000000000000000000",
      "reserved": "",
      "salt": "0x31494e56e97329a1f4e088cd84e236b3ca11aaa230c2c567c98d3313f4d3226d",
      "assetIds": [
        "55464657044963196816950587289035428064568320970692304673817341489687656669187",
        "55464657044963196816950587289035428064568320970692304673817341489687665059843",
        "55464657044963196816950587289035428064568320970692304673817341489687665059841"
      ]
    },
    {
      "x": 404,
      "y": 240,
      "size": 1,
      "price": "4683000000000000000000",
      "reserved": "",
      "salt": "0x50d13bbcb7422916b5b91f9dfc72b7e3675ecf72e7e01d69754b71a12fc99226",
      "assetIds": [
        "55464657044963196816950587289035428064568320970692304673817341489687656669184",
        "55464657044963196816950587289035428064568320970692304673817341489687665059842",
        "55464657044963196816950587289035428064568320970692304673817341489687665059840"
      ]
    },
    {
      "x": 404,
      "y": 241,
      "size": 1,
      "price": "4683000000000000000000",
      "reserved": "",
      "salt": "0xebc8684e0d79440e1946eafe331ac160e722f57a3ed4cc5704d16599696c9eaf",
      "assetIds": [
        "55464657044963196816950587289035428064568320970692304673817341489687656669185",
        "55464657044963196816950587289035428064568320970692304673817341489687665059844",
        "55464657044963196816950587289035428064568320970692304673817341489687665059840"
      ]
    },
    {
      "x": 404,
      "y": 242,
      "size": 1,
      "price": "4683000000000000000000",
      "reserved": "",
      "salt": "0x4e1e5e8b4a5a27eabc7120f9e7b69f56b58e4279bf8aed62e7b5ae86947bf65b",
      "assetIds": [
        "55464657044963196816950587289035428064568320970692304673817341489687656669187",
        "55464657044963196816950587289035428064568320970692304673817341489687665059843",
        "55464657044963196816950587289035428064568320970692304673817341489687665059841"
      ]
    },
    {
      "x": 404,
      "y": 243,
      "size": 1,
      "price": "4683000000000000000000",
      "reserved": "",
      "salt": "0x1edaf838ee51fcaa7a7011578361d72d6e47fd5cb067715f62e43492cb7fc0d3",
      "assetIds": [
        "55464657044963196816950587289035428064568320970692304673817341489687656669184",
        "55464657044963196816950587289035428064568320970692304673817341489687665059842",
        "55464657044963196816950587289035428064568320970692304673817341489687665059840"
      ]
    },
    {
      "x": 404,
      "y": 244,
      "size": 1,
      "price": "4683000000000000000000",
      "reserved": "",
      "salt": "0x74c6ce22b6252b4ff99754915db896a99dffb334984b8d4fdbd467acc9209d29",
      "assetIds": [
        "55464657044963196816950587289035428064568320970692304673817341489687656669186",
        "55464657044963196816950587289035428064568320970692304673817341489687665059842",
        "55464657044963196816950587289035428064568320970692304673817341489687665059841"
      ]
    },
    {
      "x": 404,
      "y": 245,
      "size": 1,
      "price": "4683000000000000000000",
      "reserved": "",
      "salt": "0x76624e4b2e9d6d9bf82f2668a186469de3f6400d6cbadf76adcd1144659514d1",
      "assetIds": [
        "55464657044963196816950587289035428064568320970692304673817341489687656669185",
        "55464657044963196816950587289035428064568320970692304673817341489687665059842",
        "55464657044963196816950587289035428064568320970692304673817341489687665059840"
      ]
    },
    {
      "x": 404,
      "y": 246,
      "size": 1,
      "price": "4683000000000000000000",
      "reserved": "",
      "salt": "0xf0df24b59b0fc73a1e0256e47d6584384918f9ad3db2110a12070bbb4b1e32ad",
      "assetIds": [
        "55464657044963196816950587289035428064568320970692304673817341489687656669186",
        "55464657044963196816950587289035428064568320970692304673817341489687665059842",
        "55464657044963196816950587289035428064568320970692304673817341489687665059841"
      ]
    },
    {
      "x": 404,
      "y": 247,
      "size": 1,
      "price": "4683000000000000000000",
      "reserved": "",
      "salt": "0x866b67827549bb85232a71f0707f42f852f184ffe1989bb80b62dc1c8452d565",
      "assetIds": [
        "55464657044963196816950587289035428064568320970692304673817341489687656669184",
        "55464657044963196816950587289035428064568320970692304673817341489687665059842",
        "55464657044963196816950587289035428064568320970692304673817341489687665059840"
      ]
    },
    {
      "x": 404,
      "y": 248,
      "size": 1,
      "price": "4683000000000000000000",
      "reserved": "",
      "salt": "0xb3f7d434cef800cb5cc68daab5c087064fa7fef490ce951c766fc1311c107a18",
      "assetIds": [
        "55464657044963196816950587289035428064568320970692304673817341489687656669185",
        "55464657044963196816950587289035428064568320970692304673817341489687665059843",
        "55464657044963196816950587289035428064568320970692304673817341489687665059840"
      ]
    },
    {
      "x": 404,
      "y": 249,
      "size": 1,
      "price": "4683000000000000000000",
      "reserved": "",
      "salt": "0xfa268c76bb1a7fbca75a340ce741cf739a524f5e74393ca616e34d02b084e1e7",
      "assetIds": [
        "55464657044963196816950587289035428064568320970692304673817341489687656669186",
        "55464657044963196816950587289035428064568320970692304673817341489687665059844",
        "55464657044963196816950587289035428064568320970692304673817341489687665059841"
      ]
    },
    {
      "x": 404,
      "y": 250,
      "size": 1,
      "price": "4683000000000000000000",
      "reserved": "",
      "salt": "0xde568e0eee3b519d3456475e9c1f02fb866ff6a78094ec7b249c9a6e8c951e1f",
      "assetIds": [
        "55464657044963196816950587289035428064568320970692304673817341489687656669185",
        "55464657044963196816950587289035428064568320970692304673817341489687665059843",
        "55464657044963196816950587289035428064568320970692304673817341489687665059840"
      ]
    },
    {
      "x": 404,
      "y": 251,
      "size": 1,
      "price": "4683000000000000000000",
      "reserved": "",
      "salt": "0xa2c3d735fb9da05cdf516918db7a29a1e7669ae0120c85e31afec208ad01c93b",
      "assetIds": [
        "55464657044963196816950587289035428064568320970692304673817341489687656669185",
        "55464657044963196816950587289035428064568320970692304673817341489687665059844",
        "55464657044963196816950587289035428064568320970692304673817341489687665059840"
      ]
    },
    {
      "x": 404,
      "y": 288,
      "size": 1,
      "price": "4683000000000000000000",
      "reserved": "",
      "salt": "0xb45975bfbea56d56cd2ce1676aa9b51e2db29a7be117c0c1b0a054dd3217b7e7",
      "assetIds": [
        "55464657044963196816950587289035428064568320970692304673817341489687656669184",
        "55464657044963196816950587289035428064568320970692304673817341489687665059844",
        "55464657044963196816950587289035428064568320970692304673817341489687665059840"
      ]
    },
    {
      "x": 404,
      "y": 289,
      "size": 1,
      "price": "4683000000000000000000",
      "reserved": "",
      "salt": "0xfcd65cac8983a44fc93dc00ac6c9a360cdc7374bb17e4137e67b4d189703612d",
      "assetIds": [
        "55464657044963196816950587289035428064568320970692304673817341489687656669185",
        "55464657044963196816950587289035428064568320970692304673817341489687665059844",
        "55464657044963196816950587289035428064568320970692304673817341489687665059840"
      ]
    },
    {
      "x": 404,
      "y": 290,
      "size": 1,
      "price": "4683000000000000000000",
      "reserved": "",
      "salt": "0x1d4d0895d599bacf8cae585ef02d3fdcf1e32921f378aaab95dcc744f78a1207",
      "assetIds": [
        "55464657044963196816950587289035428064568320970692304673817341489687656669184",
        "55464657044963196816950587289035428064568320970692304673817341489687665059843",
        "55464657044963196816950587289035428064568320970692304673817341489687665059840"
      ]
    },
    {
      "x": 404,
      "y": 291,
      "size": 1,
      "price": "4683000000000000000000",
      "reserved": "",
      "salt": "0x21f34058151b88ef11c3904e0afe494c68d95aa12ccc3e512f079d5fe1fc111e",
      "assetIds": [
        "55464657044963196816950587289035428064568320970692304673817341489687656669187",
        "55464657044963196816950587289035428064568320970692304673817341489687665059844",
        "55464657044963196816950587289035428064568320970692304673817341489687665059841"
      ]
    },
    {
      "x": 404,
      "y": 292,
      "size": 1,
      "price": "4683000000000000000000",
      "reserved": "",
      "salt": "0x98799eeb49708bb43d4fa77f78c2e0a7602e86798bc5b72488b6ad35fba24528",
      "assetIds": [
        "55464657044963196816950587289035428064568320970692304673817341489687656669186",
        "55464657044963196816950587289035428064568320970692304673817341489687665059842",
        "55464657044963196816950587289035428064568320970692304673817341489687665059841"
      ]
    },
    {
      "x": 404,
      "y": 293,
      "size": 1,
      "price": "4683000000000000000000",
      "reserved": "",
      "salt": "0x4e7f415ed1d41439f57a176a98abdc5814d6a3eefe1e714f160c617ad40a6ecf",
      "assetIds": [
        "55464657044963196816950587289035428064568320970692304673817341489687656669185",
        "55464657044963196816950587289035428064568320970692304673817341489687665059844",
        "55464657044963196816950587289035428064568320970692304673817341489687665059840"
      ]
    },
    {
      "x": 404,
      "y": 306,
      "size": 1,
      "price": "4683000000000000000000",
      "reserved": "",
      "salt": "0xd25a337cf95d9e54632840fd3887fbb60a9172b50d55d9977c380ea8876bb851",
      "assetIds": [
        "55464657044963196816950587289035428064568320970692304673817341489687656669184",
        "55464657044963196816950587289035428064568320970692304673817341489687665059842",
        "55464657044963196816950587289035428064568320970692304673817341489687665059840"
      ]
    },
    {
      "x": 404,
      "y": 307,
      "size": 1,
      "price": "4683000000000000000000",
      "reserved": "",
      "salt": "0x51353b97f1768612cd5effd2213401b6ef0b02b27d637023cd854a6e320484be",
      "assetIds": [
        "55464657044963196816950587289035428064568320970692304673817341489687656669187",
        "55464657044963196816950587289035428064568320970692304673817341489687665059843",
        "55464657044963196816950587289035428064568320970692304673817341489687665059841"
      ]
    },
    {
      "x": 404,
      "y": 308,
      "size": 1,
      "price": "4683000000000000000000",
      "reserved": "",
      "salt": "0x755c1fb37fc7378fa48d4b445bd13d0fdf53ccd58d0d6dcf8bf66959e50437a0",
      "assetIds": [
        "55464657044963196816950587289035428064568320970692304673817341489687656669186",
        "55464657044963196816950587289035428064568320970692304673817341489687665059844",
        "55464657044963196816950587289035428064568320970692304673817341489687665059841"
      ]
    },
    {
      "x": 404,
      "y": 309,
      "size": 1,
      "price": "4683000000000000000000",
      "reserved": "",
      "salt": "0x1519debf02422721a852e0de871eda9156d5b17db2f6c309ea53c06ee4aaedd7",
      "assetIds": [
        "55464657044963196816950587289035428064568320970692304673817341489687656669184",
        "55464657044963196816950587289035428064568320970692304673817341489687665059842",
        "55464657044963196816950587289035428064568320970692304673817341489687665059840"
      ]
    },
    {
      "x": 404,
      "y": 310,
      "size": 1,
      "price": "4683000000000000000000",
      "reserved": "",
      "salt": "0x90ae033af9cd6100429c5ccc6c47000e9c185eccc77769171bd97639909d75e0",
      "assetIds": [
        "55464657044963196816950587289035428064568320970692304673817341489687656669187",
        "55464657044963196816950587289035428064568320970692304673817341489687665059842",
        "55464657044963196816950587289035428064568320970692304673817341489687665059841"
      ]
    },
    {
      "x": 404,
      "y": 311,
      "size": 1,
      "price": "4683000000000000000000",
      "reserved": "",
      "salt": "0x643d6ec7a7939a2d38a42dee2dd9c505037ffe44f4a115a27efcf71d7d56ef6b",
      "assetIds": [
        "55464657044963196816950587289035428064568320970692304673817341489687656669185",
        "55464657044963196816950587289035428064568320970692304673817341489687665059844",
        "55464657044963196816950587289035428064568320970692304673817341489687665059840"
      ]
    },
    {
      "x": 405,
      "y": 240,
      "size": 1,
      "price": "4683000000000000000000",
      "reserved": "",
      "salt": "0xa86560e5d508992ff861e79b286b09254c43ceca2b08957d4305f0d7485a65e4",
      "assetIds": [
        "55464657044963196816950587289035428064568320970692304673817341489687656669186",
        "55464657044963196816950587289035428064568320970692304673817341489687665059844",
        "55464657044963196816950587289035428064568320970692304673817341489687665059841"
      ]
    },
    {
      "x": 405,
      "y": 241,
      "size": 1,
      "price": "4683000000000000000000",
      "reserved": "",
      "salt": "0xa00e60d2f5d9a6b9b210f4a8b7f7abe6ccad4c17b4f726fc05c740ee28b732ec",
      "assetIds": [
        "55464657044963196816950587289035428064568320970692304673817341489687656669187",
        "55464657044963196816950587289035428064568320970692304673817341489687665059843",
        "55464657044963196816950587289035428064568320970692304673817341489687665059841"
      ]
    },
    {
      "x": 405,
      "y": 242,
      "size": 1,
      "price": "4683000000000000000000",
      "reserved": "",
      "salt": "0x21392dc8250f4d54fa328511b794782513bbd54b519be0ea5c70b2413b196ff8",
      "assetIds": [
        "55464657044963196816950587289035428064568320970692304673817341489687656669185",
        "55464657044963196816950587289035428064568320970692304673817341489687665059844",
        "55464657044963196816950587289035428064568320970692304673817341489687665059840"
      ]
    },
    {
      "x": 405,
      "y": 243,
      "size": 1,
      "price": "4683000000000000000000",
      "reserved": "",
      "salt": "0xa140ce51a21e2870ce1d30a965cd78bdc50d73ffd7556a3a19965c0790b89134",
      "assetIds": [
        "55464657044963196816950587289035428064568320970692304673817341489687656669186",
        "55464657044963196816950587289035428064568320970692304673817341489687665059843",
        "55464657044963196816950587289035428064568320970692304673817341489687665059841"
      ]
    },
    {
      "x": 405,
      "y": 244,
      "size": 1,
      "price": "4683000000000000000000",
      "reserved": "",
      "salt": "0x87bf7a895c6cd6341121a6dfe1fde53860d666272b28ede5f6d70658ad2bbddb",
      "assetIds": [
        "55464657044963196816950587289035428064568320970692304673817341489687656669187",
        "55464657044963196816950587289035428064568320970692304673817341489687665059842",
        "55464657044963196816950587289035428064568320970692304673817341489687665059841"
      ]
    },
    {
      "x": 405,
      "y": 245,
      "size": 1,
      "price": "4683000000000000000000",
      "reserved": "",
      "salt": "0xbf86ec0b97fa0658f90e960823a09e4de6e81a7806f6491581686722ab013a2c",
      "assetIds": [
        "55464657044963196816950587289035428064568320970692304673817341489687656669187",
        "55464657044963196816950587289035428064568320970692304673817341489687665059844",
        "55464657044963196816950587289035428064568320970692304673817341489687665059841"
      ]
    },
    {
      "x": 405,
      "y": 246,
      "size": 1,
      "price": "4683000000000000000000",
      "reserved": "",
      "salt": "0x7b88c77ab2dccffdf0489f5729edbf8db7fa628018e0fade38e1d52efef98a62",
      "assetIds": [
        "55464657044963196816950587289035428064568320970692304673817341489687656669185",
        "55464657044963196816950587289035428064568320970692304673817341489687665059842",
        "55464657044963196816950587289035428064568320970692304673817341489687665059840"
      ]
    },
    {
      "x": 405,
      "y": 247,
      "size": 1,
      "price": "1011000000000000000000",
      "reserved": "0x7a9fe22691c811ea339d9b73150e6911a5343dca",
      "salt": "0x841844efc2ca3b07961f901a2a7adc4bb7231228f73bb199ee8da33d98b45a19",
      "assetIds": []
    },
    {
      "x": 405,
      "y": 248,
      "size": 1,
      "price": "4683000000000000000000",
      "reserved": "",
      "salt": "0xad08ee6f8e0925af24201e3ded655c4b478e5b8d2c6c013e701b2f3a812e745b",
      "assetIds": [
        "55464657044963196816950587289035428064568320970692304673817341489687656669185",
        "55464657044963196816950587289035428064568320970692304673817341489687665059843",
        "55464657044963196816950587289035428064568320970692304673817341489687665059840"
      ]
    },
    {
      "x": 405,
      "y": 249,
      "size": 1,
      "price": "4683000000000000000000",
      "reserved": "",
      "salt": "0xc61ae150d97b91c604bd9ced878069824affe47d57e3e4f9912a74baa043c458",
      "assetIds": [
        "55464657044963196816950587289035428064568320970692304673817341489687656669185",
        "55464657044963196816950587289035428064568320970692304673817341489687665059844",
        "55464657044963196816950587289035428064568320970692304673817341489687665059840"
      ]
    },
    {
      "x": 405,
      "y": 250,
      "size": 1,
      "price": "4683000000000000000000",
      "reserved": "",
      "salt": "0x6ac40d592ad6fc59f81bb3adc06a3a2b2f00148b00ede3bbbd37984a7e766480",
      "assetIds": [
        "55464657044963196816950587289035428064568320970692304673817341489687656669185",
        "55464657044963196816950587289035428064568320970692304673817341489687665059842",
        "55464657044963196816950587289035428064568320970692304673817341489687665059840"
      ]
    },
    {
      "x": 405,
      "y": 251,
      "size": 1,
      "price": "4683000000000000000000",
      "reserved": "",
      "salt": "0x5839a1518e24a000d14ab80060d9b4dda6ac02928f223b89c6826d4c4e8ba633",
      "assetIds": [
        "55464657044963196816950587289035428064568320970692304673817341489687656669185",
        "55464657044963196816950587289035428064568320970692304673817341489687665059844",
        "55464657044963196816950587289035428064568320970692304673817341489687665059840"
      ]
    },
    {
      "x": 405,
      "y": 291,
      "size": 1,
      "price": "4683000000000000000000",
      "reserved": "",
      "salt": "0x8c4e79bd63f48e64a9b7e8e0bfabb3d40ef82711910562e411cc534182d6e9cf",
      "assetIds": [
        "55464657044963196816950587289035428064568320970692304673817341489687656669185",
        "55464657044963196816950587289035428064568320970692304673817341489687665059843",
        "55464657044963196816950587289035428064568320970692304673817341489687665059840"
      ]
    },
    {
      "x": 405,
      "y": 292,
      "size": 1,
      "price": "1011000000000000000000",
      "reserved": "0x7a9fe22691c811ea339d9b73150e6911a5343dca",
      "salt": "0x55eedb65a8d63fffae4c188e294d52fe60cebe57453265657b1a20c8d9a2ed65",
      "assetIds": []
    },
    {
      "x": 405,
      "y": 293,
      "size": 1,
      "price": "4683000000000000000000",
      "reserved": "",
      "salt": "0x34195d396a7238c259720103b5ed771573a312157180a38c5845019a7e5d5f17",
      "assetIds": [
        "55464657044963196816950587289035428064568320970692304673817341489687656669184",
        "55464657044963196816950587289035428064568320970692304673817341489687665059842",
        "55464657044963196816950587289035428064568320970692304673817341489687665059840"
      ]
    },
    {
      "x": 405,
      "y": 306,
      "size": 1,
      "price": "4683000000000000000000",
      "reserved": "",
      "salt": "0x5261535636ba82d25d49d7cb4d7c4abf2f0f753f377b065949f5a866967c478b",
      "assetIds": [
        "55464657044963196816950587289035428064568320970692304673817341489687656669186",
        "55464657044963196816950587289035428064568320970692304673817341489687665059844",
        "55464657044963196816950587289035428064568320970692304673817341489687665059841"
      ]
    },
    {
      "x": 405,
      "y": 307,
      "size": 1,
      "price": "4683000000000000000000",
      "reserved": "",
      "salt": "0x27f935a52abd7061a2d51b7e3f71db64d17dfdb566466fee558ff21d243a42a4",
      "assetIds": [
        "55464657044963196816950587289035428064568320970692304673817341489687656669185",
        "55464657044963196816950587289035428064568320970692304673817341489687665059842",
        "55464657044963196816950587289035428064568320970692304673817341489687665059840"
      ]
    },
    {
      "x": 405,
      "y": 308,
      "size": 1,
      "price": "4683000000000000000000",
      "reserved": "",
      "salt": "0xd7fab3578aae29265d16b0dc3f6de2703354006cea543d18ceb3f97551c95304",
      "assetIds": [
        "55464657044963196816950587289035428064568320970692304673817341489687656669184",
        "55464657044963196816950587289035428064568320970692304673817341489687665059843",
        "55464657044963196816950587289035428064568320970692304673817341489687665059840"
      ]
    },
    {
      "x": 405,
      "y": 309,
      "size": 1,
      "price": "4683000000000000000000",
      "reserved": "",
      "salt": "0xefc2a49f500088424d938956b03b99a089d07b2c650a50d0b40b42631d301624",
      "assetIds": [
        "55464657044963196816950587289035428064568320970692304673817341489687656669184",
        "55464657044963196816950587289035428064568320970692304673817341489687665059843",
        "55464657044963196816950587289035428064568320970692304673817341489687665059840"
      ]
    },
    {
      "x": 405,
      "y": 310,
      "size": 1,
      "price": "4683000000000000000000",
      "reserved": "",
      "salt": "0xe127b2520ccd2b3794211f555e8f5b25276f12999c2d512d2337e003e6e651c9",
      "assetIds": [
        "55464657044963196816950587289035428064568320970692304673817341489687656669187",
        "55464657044963196816950587289035428064568320970692304673817341489687665059843",
        "55464657044963196816950587289035428064568320970692304673817341489687665059841"
      ]
    },
    {
      "x": 405,
      "y": 311,
      "size": 1,
      "price": "4683000000000000000000",
      "reserved": "",
      "salt": "0x0c9288f090bb422603c0752d239189a3c95a8ee3e1df7ac5a9d019f4e1c12f76",
      "assetIds": [
        "55464657044963196816950587289035428064568320970692304673817341489687656669187",
        "55464657044963196816950587289035428064568320970692304673817341489687665059842",
        "55464657044963196816950587289035428064568320970692304673817341489687665059841"
      ]
    },
    {
      "x": 406,
      "y": 240,
      "size": 1,
      "price": "4683000000000000000000",
      "reserved": "",
      "salt": "0x4ef2a00549c40ea0b44cda48cfc51eba035bea32f0c45fa196098f98f79e9f5c",
      "assetIds": [
        "55464657044963196816950587289035428064568320970692304673817341489687656669187",
        "55464657044963196816950587289035428064568320970692304673817341489687665059843",
        "55464657044963196816950587289035428064568320970692304673817341489687665059841"
      ]
    },
    {
      "x": 406,
      "y": 241,
      "size": 1,
      "price": "4683000000000000000000",
      "reserved": "",
      "salt": "0xb96c2a0ea9d9faf2986b25c0de1b28f0dfa7e1a9b9dc69e54b20d57c932d9f8e",
      "assetIds": [
        "55464657044963196816950587289035428064568320970692304673817341489687656669187",
        "55464657044963196816950587289035428064568320970692304673817341489687665059843",
        "55464657044963196816950587289035428064568320970692304673817341489687665059841"
      ]
    },
    {
      "x": 406,
      "y": 242,
      "size": 1,
      "price": "1011000000000000000000",
      "reserved": "0x7a9fe22691c811ea339d9b73150e6911a5343dca",
      "salt": "0x31991d978c79ed50ca4a1576a425c07b5451425d1f533217c0959e2265afd828",
      "assetIds": []
    },
    {
      "x": 406,
      "y": 243,
      "size": 1,
      "price": "4683000000000000000000",
      "reserved": "",
      "salt": "0x061e012b63ef654d6be79702d60fed494c3b9d2e145dadbcf58963b649e7150b",
      "assetIds": [
        "55464657044963196816950587289035428064568320970692304673817341489687656669187",
        "55464657044963196816950587289035428064568320970692304673817341489687665059844",
        "55464657044963196816950587289035428064568320970692304673817341489687665059841"
      ]
    },
    {
      "x": 406,
      "y": 244,
      "size": 1,
      "price": "4683000000000000000000",
      "reserved": "",
      "salt": "0xab5c5cc08fcef06e3bf17263d61337b95e371a2a2d9212dc5aeb68276e0e9fc0",
      "assetIds": [
        "55464657044963196816950587289035428064568320970692304673817341489687656669185",
        "55464657044963196816950587289035428064568320970692304673817341489687665059842",
        "55464657044963196816950587289035428064568320970692304673817341489687665059840"
      ]
    },
    {
      "x": 406,
      "y": 245,
      "size": 1,
      "price": "4683000000000000000000",
      "reserved": "",
      "salt": "0xfa901791dc0898c5c68f586aef7f7b06462055bc0cccb79de3cd42f699bf2719",
      "assetIds": [
        "55464657044963196816950587289035428064568320970692304673817341489687656669187",
        "55464657044963196816950587289035428064568320970692304673817341489687665059843",
        "55464657044963196816950587289035428064568320970692304673817341489687665059841"
      ]
    },
    {
      "x": 406,
      "y": 246,
      "size": 1,
      "price": "4683000000000000000000",
      "reserved": "",
      "salt": "0xbbb88568d99a104bb93d31d94bb891a477c67a72bbdb6c5bed89c0dde589a6b4",
      "assetIds": [
        "55464657044963196816950587289035428064568320970692304673817341489687656669187",
        "55464657044963196816950587289035428064568320970692304673817341489687665059842",
        "55464657044963196816950587289035428064568320970692304673817341489687665059841"
      ]
    },
    {
      "x": 406,
      "y": 247,
      "size": 1,
      "price": "4683000000000000000000",
      "reserved": "",
      "salt": "0xe6388c76a6d2a5cb06932ff3ec259da8df46294ddd64569c4f2946782d7c8fee",
      "assetIds": [
        "55464657044963196816950587289035428064568320970692304673817341489687656669187",
        "55464657044963196816950587289035428064568320970692304673817341489687665059843",
        "55464657044963196816950587289035428064568320970692304673817341489687665059841"
      ]
    },
    {
      "x": 406,
      "y": 248,
      "size": 1,
      "price": "4683000000000000000000",
      "reserved": "",
      "salt": "0x7d56e44b142d8f1a6ca2d1df0090b6c81d5d621d59bbbb7482b3a30ce8b413ba",
      "assetIds": [
        "55464657044963196816950587289035428064568320970692304673817341489687656669184",
        "55464657044963196816950587289035428064568320970692304673817341489687665059842",
        "55464657044963196816950587289035428064568320970692304673817341489687665059840"
      ]
    },
    {
      "x": 406,
      "y": 249,
      "size": 1,
      "price": "4683000000000000000000",
      "reserved": "",
      "salt": "0x804d90d9f22321e8a626fc5480c31e5f4bda1bec48007fdf22dd8b96c254c5ee",
      "assetIds": [
        "55464657044963196816950587289035428064568320970692304673817341489687656669185",
        "55464657044963196816950587289035428064568320970692304673817341489687665059844",
        "55464657044963196816950587289035428064568320970692304673817341489687665059840"
      ]
    },
    {
      "x": 406,
      "y": 250,
      "size": 1,
      "price": "4683000000000000000000",
      "reserved": "",
      "salt": "0xc5b1e35a5467892b7473fe52542a45e9481ce54277fcfb447d7a4fca529f34ef",
      "assetIds": [
        "55464657044963196816950587289035428064568320970692304673817341489687656669184",
        "55464657044963196816950587289035428064568320970692304673817341489687665059843",
        "55464657044963196816950587289035428064568320970692304673817341489687665059840"
      ]
    },
    {
      "x": 406,
      "y": 251,
      "size": 1,
      "price": "4683000000000000000000",
      "reserved": "",
      "salt": "0x53f36bc6224bf3e67d0b9288cad25c446f4e08e1d64828c2a212f0005bf6968b",
      "assetIds": [
        "55464657044963196816950587289035428064568320970692304673817341489687656669185",
        "55464657044963196816950587289035428064568320970692304673817341489687665059843",
        "55464657044963196816950587289035428064568320970692304673817341489687665059840"
      ]
    },
    {
      "x": 406,
      "y": 291,
      "size": 1,
      "price": "4683000000000000000000",
      "reserved": "",
      "salt": "0x420ac5f7884093773d966795d7aa2606bcc60a3d4a1ef2f3658775595cd18ff9",
      "assetIds": [
        "55464657044963196816950587289035428064568320970692304673817341489687656669184",
        "55464657044963196816950587289035428064568320970692304673817341489687665059844",
        "55464657044963196816950587289035428064568320970692304673817341489687665059840"
      ]
    },
    {
      "x": 406,
      "y": 292,
      "size": 1,
      "price": "4683000000000000000000",
      "reserved": "",
      "salt": "0xc6d5b32f323bf83724b6e445c89b0a48a134de9c0d3f2e87f47e92ee5b0dff93",
      "assetIds": [
        "55464657044963196816950587289035428064568320970692304673817341489687656669186",
        "55464657044963196816950587289035428064568320970692304673817341489687665059843",
        "55464657044963196816950587289035428064568320970692304673817341489687665059841"
      ]
    },
    {
      "x": 406,
      "y": 293,
      "size": 1,
      "price": "4683000000000000000000",
      "reserved": "",
      "salt": "0x0cf418f1024c1b2e32d661c7eeb807520b1aa620777a3520eb876ac8bec7399e",
      "assetIds": [
        "55464657044963196816950587289035428064568320970692304673817341489687656669187",
        "55464657044963196816950587289035428064568320970692304673817341489687665059844",
        "55464657044963196816950587289035428064568320970692304673817341489687665059841"
      ]
    },
    {
      "x": 406,
      "y": 306,
      "size": 1,
      "price": "4683000000000000000000",
      "reserved": "",
      "salt": "0x84e5a0c7eae478bd75418aa79f0fbc2a933ef497488eff85363e74b52a3b4fdb",
      "assetIds": [
        "55464657044963196816950587289035428064568320970692304673817341489687656669187",
        "55464657044963196816950587289035428064568320970692304673817341489687665059843",
        "55464657044963196816950587289035428064568320970692304673817341489687665059841"
      ]
    },
    {
      "x": 406,
      "y": 307,
      "size": 1,
      "price": "4683000000000000000000",
      "reserved": "",
      "salt": "0x7bafa60181642e27e6a4d0f6429b63b0491d447da864bf8720171168f179bb46",
      "assetIds": [
        "55464657044963196816950587289035428064568320970692304673817341489687656669185",
        "55464657044963196816950587289035428064568320970692304673817341489687665059844",
        "55464657044963196816950587289035428064568320970692304673817341489687665059840"
      ]
    },
    {
      "x": 406,
      "y": 308,
      "size": 1,
      "price": "4683000000000000000000",
      "reserved": "",
      "salt": "0xd4b16784ca848a93c0b44f9647cc0f9e35b71aeb2039fad5e244e5db5f8d7200",
      "assetIds": [
        "55464657044963196816950587289035428064568320970692304673817341489687656669186",
        "55464657044963196816950587289035428064568320970692304673817341489687665059843",
        "55464657044963196816950587289035428064568320970692304673817341489687665059841"
      ]
    },
    {
      "x": 406,
      "y": 309,
      "size": 1,
      "price": "4683000000000000000000",
      "reserved": "",
      "salt": "0x1a6e6cfe77b3cf33621c534fa859af1663a722e196de81fc1628a5e03782f78a",
      "assetIds": [
        "55464657044963196816950587289035428064568320970692304673817341489687656669187",
        "55464657044963196816950587289035428064568320970692304673817341489687665059844",
        "55464657044963196816950587289035428064568320970692304673817341489687665059841"
      ]
    },
    {
      "x": 406,
      "y": 310,
      "size": 1,
      "price": "4683000000000000000000",
      "reserved": "",
      "salt": "0x840f29721f6c4042bf697524789b4209c9c9614457b2b21ef50eafe7b589812f",
      "assetIds": [
        "55464657044963196816950587289035428064568320970692304673817341489687656669187",
        "55464657044963196816950587289035428064568320970692304673817341489687665059844",
        "55464657044963196816950587289035428064568320970692304673817341489687665059841"
      ]
    },
    {
      "x": 406,
      "y": 311,
      "size": 1,
      "price": "4683000000000000000000",
      "reserved": "",
      "salt": "0x2d0ac1b31c2a12e67ec4278e27137fa466efad822600261e29110e11336db124",
      "assetIds": [
        "55464657044963196816950587289035428064568320970692304673817341489687656669185",
        "55464657044963196816950587289035428064568320970692304673817341489687665059842",
        "55464657044963196816950587289035428064568320970692304673817341489687665059840"
      ]
    },
    {
      "x": 407,
      "y": 240,
      "size": 1,
      "price": "4683000000000000000000",
      "reserved": "",
      "salt": "0xf896f212b5c689b179cd6bf03e5081dcfe85aeb80c18305c186d11ebf457fc4f",
      "assetIds": [
        "55464657044963196816950587289035428064568320970692304673817341489687656669185",
        "55464657044963196816950587289035428064568320970692304673817341489687665059843",
        "55464657044963196816950587289035428064568320970692304673817341489687665059840"
      ]
    },
    {
      "x": 407,
      "y": 241,
      "size": 1,
      "price": "4683000000000000000000",
      "reserved": "",
      "salt": "0x26d9658ff00e5700b8e51fb4ccc31b8ed3da72aa4267990ca1aa663da323a378",
      "assetIds": [
        "55464657044963196816950587289035428064568320970692304673817341489687656669184",
        "55464657044963196816950587289035428064568320970692304673817341489687665059844",
        "55464657044963196816950587289035428064568320970692304673817341489687665059840"
      ]
    },
    {
      "x": 407,
      "y": 242,
      "size": 1,
      "price": "4683000000000000000000",
      "reserved": "",
      "salt": "0x23c18f07745a89555dc9a0e2d3078aebdb77fb10203532cef6087a2066cb4e07",
      "assetIds": [
        "55464657044963196816950587289035428064568320970692304673817341489687656669185",
        "55464657044963196816950587289035428064568320970692304673817341489687665059843",
        "55464657044963196816950587289035428064568320970692304673817341489687665059840"
      ]
    },
    {
      "x": 407,
      "y": 243,
      "size": 1,
      "price": "4683000000000000000000",
      "reserved": "",
      "salt": "0xa69162963d7476f66da8ae7a3de3e15f052101e2378a9e73accb2429c72e97a2",
      "assetIds": [
        "55464657044963196816950587289035428064568320970692304673817341489687656669187",
        "55464657044963196816950587289035428064568320970692304673817341489687665059844",
        "55464657044963196816950587289035428064568320970692304673817341489687665059841"
      ]
    },
    {
      "x": 407,
      "y": 244,
      "size": 1,
      "price": "4683000000000000000000",
      "reserved": "",
      "salt": "0xb5efe0c9a999866e22e7146a673cbe87c2d0550d1681204628ecda7a23311c08",
      "assetIds": [
        "55464657044963196816950587289035428064568320970692304673817341489687656669186",
        "55464657044963196816950587289035428064568320970692304673817341489687665059842",
        "55464657044963196816950587289035428064568320970692304673817341489687665059841"
      ]
    },
    {
      "x": 407,
      "y": 245,
      "size": 1,
      "price": "4683000000000000000000",
      "reserved": "",
      "salt": "0x421b16558999b8ebcc0d798a326230ea83a4e17ee98758f682ca099a5027b065",
      "assetIds": [
        "55464657044963196816950587289035428064568320970692304673817341489687656669186",
        "55464657044963196816950587289035428064568320970692304673817341489687665059843",
        "55464657044963196816950587289035428064568320970692304673817341489687665059841"
      ]
    },
    {
      "x": 407,
      "y": 246,
      "size": 1,
      "price": "4683000000000000000000",
      "reserved": "",
      "salt": "0xf67bfbcae845605116e05fe2ec5d50ba7fcb989c525459363e6a9918e1b72a13",
      "assetIds": [
        "55464657044963196816950587289035428064568320970692304673817341489687656669187",
        "55464657044963196816950587289035428064568320970692304673817341489687665059843",
        "55464657044963196816950587289035428064568320970692304673817341489687665059841"
      ]
    },
    {
      "x": 407,
      "y": 247,
      "size": 1,
      "price": "4683000000000000000000",
      "reserved": "",
      "salt": "0xbafb4b97ce028f9830905e3c5e664349eb850f7c48beb13266a93c1010d42c9a",
      "assetIds": [
        "55464657044963196816950587289035428064568320970692304673817341489687656669184",
        "55464657044963196816950587289035428064568320970692304673817341489687665059844",
        "55464657044963196816950587289035428064568320970692304673817341489687665059840"
      ]
    },
    {
      "x": 407,
      "y": 248,
      "size": 1,
      "price": "4683000000000000000000",
      "reserved": "",
      "salt": "0xc8816f72f0ee310639b8bfd89f7765c0d4d10f8a2e6943985dec7f03139a61a8",
      "assetIds": [
        "55464657044963196816950587289035428064568320970692304673817341489687656669187",
        "55464657044963196816950587289035428064568320970692304673817341489687665059844",
        "55464657044963196816950587289035428064568320970692304673817341489687665059841"
      ]
    },
    {
      "x": 407,
      "y": 249,
      "size": 1,
      "price": "4683000000000000000000",
      "reserved": "",
      "salt": "0x2ac4cfbd13a0420d214a231f6d9c88bf660152cf4dbe7771e71a2c215d15200f",
      "assetIds": [
        "55464657044963196816950587289035428064568320970692304673817341489687656669185",
        "55464657044963196816950587289035428064568320970692304673817341489687665059844",
        "55464657044963196816950587289035428064568320970692304673817341489687665059840"
      ]
    },
    {
      "x": 407,
      "y": 250,
      "size": 1,
      "price": "4683000000000000000000",
      "reserved": "",
      "salt": "0xadb86e7d8c81c843c97e24a658fe08a95ebf658dc5b8cea032bd85ee1a56137c",
      "assetIds": [
        "55464657044963196816950587289035428064568320970692304673817341489687656669184",
        "55464657044963196816950587289035428064568320970692304673817341489687665059842",
        "55464657044963196816950587289035428064568320970692304673817341489687665059840"
      ]
    },
    {
      "x": 407,
      "y": 251,
      "size": 1,
      "price": "4683000000000000000000",
      "reserved": "",
      "salt": "0xce6ddf55cc978b70badf1351786bfb94f344e8d8c3af4d7cb623da89f7589c9d",
      "assetIds": [
        "55464657044963196816950587289035428064568320970692304673817341489687656669184",
        "55464657044963196816950587289035428064568320970692304673817341489687665059844",
        "55464657044963196816950587289035428064568320970692304673817341489687665059840"
      ]
    },
    {
      "x": 407,
      "y": 291,
      "size": 1,
      "price": "4683000000000000000000",
      "reserved": "",
      "salt": "0xd3b9c54b2a7c67720cdec909c41692d68e59b64ef0a04b03bc1748e803e23608",
      "assetIds": [
        "55464657044963196816950587289035428064568320970692304673817341489687656669184",
        "55464657044963196816950587289035428064568320970692304673817341489687665059842",
        "55464657044963196816950587289035428064568320970692304673817341489687665059840"
      ]
    },
    {
      "x": 407,
      "y": 292,
      "size": 1,
      "price": "4683000000000000000000",
      "reserved": "",
      "salt": "0x815822b81670d8df47f7025829d3f2d760c038c9e638ef1d7da5f3104a927dc0",
      "assetIds": [
        "55464657044963196816950587289035428064568320970692304673817341489687656669184",
        "55464657044963196816950587289035428064568320970692304673817341489687665059842",
        "55464657044963196816950587289035428064568320970692304673817341489687665059840"
      ]
    },
    {
      "x": 407,
      "y": 293,
      "size": 1,
      "price": "4683000000000000000000",
      "reserved": "",
      "salt": "0x4f91f5b34045411c0088244cdc4c26a0cdc159791e439005980f30b926d31b4a",
      "assetIds": [
        "55464657044963196816950587289035428064568320970692304673817341489687656669184",
        "55464657044963196816950587289035428064568320970692304673817341489687665059843",
        "55464657044963196816950587289035428064568320970692304673817341489687665059840"
      ]
    },
    {
      "x": 407,
      "y": 306,
      "size": 1,
      "price": "4683000000000000000000",
      "reserved": "",
      "salt": "0xc6bb0045b58726a0f267c233d984e90d836e259dec2e9701f90f52ec8b121f42",
      "assetIds": [
        "55464657044963196816950587289035428064568320970692304673817341489687656669187",
        "55464657044963196816950587289035428064568320970692304673817341489687665059844",
        "55464657044963196816950587289035428064568320970692304673817341489687665059841"
      ]
    },
    {
      "x": 407,
      "y": 307,
      "size": 1,
      "price": "4683000000000000000000",
      "reserved": "",
      "salt": "0x704157aaef7561d473e0f19a28af58cc0d3f4490d4013ffacb088fc8a1c92bea",
      "assetIds": [
        "55464657044963196816950587289035428064568320970692304673817341489687656669186",
        "55464657044963196816950587289035428064568320970692304673817341489687665059844",
        "55464657044963196816950587289035428064568320970692304673817341489687665059841"
      ]
    },
    {
      "x": 407,
      "y": 308,
      "size": 1,
      "price": "4683000000000000000000",
      "reserved": "",
      "salt": "0xb1056af3c5b11879e19689c6bae6d5b0e0db2f9076e4c1a5be3ae26580b41150",
      "assetIds": [
        "55464657044963196816950587289035428064568320970692304673817341489687656669184",
        "55464657044963196816950587289035428064568320970692304673817341489687665059842",
        "55464657044963196816950587289035428064568320970692304673817341489687665059840"
      ]
    },
    {
      "x": 407,
      "y": 309,
      "size": 1,
      "price": "4683000000000000000000",
      "reserved": "",
      "salt": "0x8f5c38d88d012525866a4936086a6d7120905aa027fba087b5b885b68c0fc468",
      "assetIds": [
        "55464657044963196816950587289035428064568320970692304673817341489687656669185",
        "55464657044963196816950587289035428064568320970692304673817341489687665059842",
        "55464657044963196816950587289035428064568320970692304673817341489687665059840"
      ]
    },
    {
      "x": 407,
      "y": 310,
      "size": 1,
      "price": "4683000000000000000000",
      "reserved": "",
      "salt": "0x71ab3fe449817f4b9606b346e3d7c6c6ab7f5e3f58d22a5ada974b7430871d40",
      "assetIds": [
        "55464657044963196816950587289035428064568320970692304673817341489687656669185",
        "55464657044963196816950587289035428064568320970692304673817341489687665059842",
        "55464657044963196816950587289035428064568320970692304673817341489687665059840"
      ]
    },
    {
      "x": 407,
      "y": 311,
      "size": 1,
      "price": "4683000000000000000000",
      "reserved": "",
      "salt": "0x390ce549be3b23fe165831ab54a4247f684ec92d921f8202a03aedf71f702dd4",
      "assetIds": [
        "55464657044963196816950587289035428064568320970692304673817341489687656669185",
        "55464657044963196816950587289035428064568320970692304673817341489687665059842",
        "55464657044963196816950587289035428064568320970692304673817341489687665059840"
      ]
    },
    {
      "x": 333,
      "y": 258,
      "size": 3,
      "price": "8648000000000000000000",
      "reserved": "",
      "salt": "0x0336a840dd6a3b7a56a67d6e88cf02cae17aa1cdee105656aae837dceca88529",
      "assetIds": []
    },
    {
      "x": 333,
      "y": 270,
      "size": 3,
      "price": "8648000000000000000000",
      "reserved": "0x7a9fe22691c811ea339d9b73150e6911a5343dca",
      "salt": "0x1d7ab718312ffeec625b2a1c428337dfc033588558cbe6fa91b6310fc53aeaad",
      "assetIds": []
    },
    {
      "x": 333,
      "y": 273,
      "size": 3,
      "price": "8648000000000000000000",
      "reserved": "",
      "salt": "0x2c2363eddd8f7230394f45710063a926c6b3cac8ae843a4bff886a928c666afb",
      "assetIds": []
    },
    {
      "x": 333,
      "y": 291,
      "size": 3,
      "price": "8648000000000000000000",
      "reserved": "",
      "salt": "0x77448de98db5465c85f161f9b5f1f3a6c4832bfc9c938e6ffc88e1dff9dc036b",
      "assetIds": []
    },
    {
      "x": 336,
      "y": 255,
      "size": 3,
      "price": "8648000000000000000000",
      "reserved": "",
      "salt": "0xbd5a25ba53a97738ba95c4b3b4f49ff6ef910db439784faa67e2996bae0be7f5",
      "assetIds": []
    },
    {
      "x": 339,
      "y": 252,
      "size": 3,
      "price": "8648000000000000000000",
      "reserved": "0x7a9fe22691c811ea339d9b73150e6911a5343dca",
      "salt": "0x4671806a2e38894e7dfa581252eca84c3f8974993692aa1b523c5f3f475f8af1",
      "assetIds": []
    },
    {
      "x": 345,
      "y": 294,
      "size": 3,
      "price": "8648000000000000000000",
      "reserved": "0x7a9fe22691c811ea339d9b73150e6911a5343dca",
      "salt": "0x1398155e21d7e0822f26a1e0bf1837bab30060a3bdf4f960fbe24801540b5417",
      "assetIds": []
    },
    {
      "x": 345,
      "y": 300,
      "size": 3,
      "price": "8648000000000000000000",
      "reserved": "0x7a9fe22691c811ea339d9b73150e6911a5343dca",
      "salt": "0xd4ac6fc4d98142b85cb187ee8c47099d1e773c3cdeb77cc97ce73d7609db40df",
      "assetIds": []
    },
    {
      "x": 348,
      "y": 252,
      "size": 3,
      "price": "8648000000000000000000",
      "reserved": "",
      "salt": "0x86cd2ced06c1b9e0f504014763f83a2d1a7afdedaed2679ba9a2763a29129b70",
      "assetIds": []
    },
    {
      "x": 357,
      "y": 303,
      "size": 3,
      "price": "8648000000000000000000",
      "reserved": "",
      "salt": "0x4162a1ab159a3c1b5b990246ff3041776271c789be40b37465ada6399226dc66",
      "assetIds": []
    },
    {
      "x": 360,
      "y": 273,
      "size": 3,
      "price": "8648000000000000000000",
      "reserved": "0x7a9fe22691c811ea339d9b73150e6911a5343dca",
      "salt": "0x67881a4103bd62e5bdf252cd110d20005248baf3f9eb71cb7884bfdd58bf332c",
      "assetIds": []
    },
    {
      "x": 360,
      "y": 294,
      "size": 3,
      "price": "8648000000000000000000",
      "reserved": "",
      "salt": "0x38efadf12e9c2157dfbcc63c886c03a69e143b1ab2ce34ab57b1cbd099bc51dc",
      "assetIds": []
    },
    {
      "x": 366,
      "y": 267,
      "size": 3,
      "price": "8648000000000000000000",
      "reserved": "",
      "salt": "0xd531a28b9b2aefac2fefb512e70c3bc6a38cb3ffba85444159250b082b1dfada",
      "assetIds": []
    },
    {
      "x": 366,
      "y": 291,
      "size": 3,
      "price": "8648000000000000000000",
      "reserved": "0x7a9fe22691c811ea339d9b73150e6911a5343dca",
      "salt": "0x3b1f970997b49ad6a28476a5bbc8935e5f37a964cbf16a2a1644a9d56583b16b",
      "assetIds": []
    },
    {
      "x": 378,
      "y": 231,
      "size": 3,
      "price": "8648000000000000000000",
      "reserved": "0x7a9fe22691c811ea339d9b73150e6911a5343dca",
      "salt": "0xedf0f1fb4b390087f4eaf44b6492c9392d78c29a5a40c4bad8a6b70192453d40",
      "assetIds": []
    },
    {
      "x": 378,
      "y": 285,
      "size": 3,
      "price": "8648000000000000000000",
      "reserved": "",
      "salt": "0xdedda1fe53186b30b71428761f9d9c38fe7908ff03de847eb6588252b81cfa4f",
      "assetIds": []
    },
    {
      "x": 378,
      "y": 291,
      "size": 3,
      "price": "8648000000000000000000",
      "reserved": "0x7a9fe22691c811ea339d9b73150e6911a5343dca",
      "salt": "0x60dc1ac1396a7fedf4d923a6cdb4048e41f00f49f43406bd246eb098aad04739",
      "assetIds": []
    },
    {
      "x": 381,
      "y": 285,
      "size": 3,
      "price": "8648000000000000000000",
      "reserved": "0x7a9fe22691c811ea339d9b73150e6911a5343dca",
      "salt": "0x223dde7288a6a6de8fc8b56409f2bacc73d1f2fd7e3552991722a28feac3b38d",
      "assetIds": []
    },
    {
      "x": 384,
      "y": 252,
      "size": 3,
      "price": "8648000000000000000000",
      "reserved": "",
      "salt": "0xa7b352f1669b72d6636e265edbba66c7f1cea3f6ec13c341969ed1bb33b6ea1b",
      "assetIds": []
    },
    {
      "x": 387,
      "y": 222,
      "size": 3,
      "price": "8648000000000000000000",
      "reserved": "0x7a9fe22691c811ea339d9b73150e6911a5343dca",
      "salt": "0x18a412e76688f29b6df24b79389561c201aa0da8d62fe5c87b81824d3de9dd29",
      "assetIds": []
    },
    {
      "x": 390,
      "y": 258,
      "size": 3,
      "price": "8648000000000000000000",
      "reserved": "0x7a9fe22691c811ea339d9b73150e6911a5343dca",
      "salt": "0xbb4537c3ffd68bf536aa203b1029551dea4a3da7f53420dbacf9064571dea350",
      "assetIds": []
    },
    {
      "x": 390,
      "y": 288,
      "size": 3,
      "price": "8648000000000000000000",
      "reserved": "0x7a9fe22691c811ea339d9b73150e6911a5343dca",
      "salt": "0x2a876c93ac5e1450b1827cde59239dfcd7478a6298929d9aa06f62a399bcebd1",
      "assetIds": []
    },
    {
      "x": 390,
      "y": 303,
      "size": 3,
      "price": "8648000000000000000000",
      "reserved": "0x7a9fe22691c811ea339d9b73150e6911a5343dca",
      "salt": "0xac7bf2496329757b6cec43d2fb247a208f8ee95f92d12827be1fa18e06edc047",
      "assetIds": []
    },
    {
      "x": 390,
      "y": 309,
      "size": 3,
      "price": "8648000000000000000000",
      "reserved": "",
      "salt": "0x99fe7711ffa72f723afcb3c6bfdc61a0e54cd2b3fe29d81fb26578d3d505eba3",
      "assetIds": []
    },
    {
      "x": 393,
      "y": 261,
      "size": 3,
      "price": "8648000000000000000000",
      "reserved": "0x7a9fe22691c811ea339d9b73150e6911a5343dca",
      "salt": "0xd6e09719c894c291d60e5519f0e38bbd7f472da3f515cb5e799936284e1e7b8c",
      "assetIds": []
    },
    {
      "x": 393,
      "y": 297,
      "size": 3,
      "price": "8648000000000000000000",
      "reserved": "",
      "salt": "0xf575b33cb2ee153b743c8c2101ddce1d311f2ee0f8aefb19ac5f60cd8726dbf5",
      "assetIds": []
    },
    {
      "x": 399,
      "y": 237,
      "size": 3,
      "price": "8648000000000000000000",
      "reserved": "",
      "salt": "0xc31a7b124e3ee4c90b8336654d79446fe7721cfe2988f618ae73987928b563ef",
      "assetIds": []
    },
    {
      "x": 405,
      "y": 288,
      "size": 3,
      "price": "8648000000000000000000",
      "reserved": "0x7a9fe22691c811ea339d9b73150e6911a5343dca",
      "salt": "0x936c9079aea3d936d2ed8cdc3c921177eaea47375e846c289a9131f18a4c914a",
      "assetIds": []
    },
    {
      "x": 168,
      "y": 198,
      "size": 6,
      "price": "32772000000000000000000",
      "reserved": "0x7a9fe22691c811ea339d9b73150e6911a5343dca",
      "salt": "0x09a73173002f011cd6d04581edf31ca2ccf62bd367382cab11224aa9a2f321f8",
      "assetIds": []
    },
    {
      "x": 174,
      "y": 198,
      "size": 6,
      "price": "32772000000000000000000",
      "reserved": "0x7a9fe22691c811ea339d9b73150e6911a5343dca",
      "salt": "0xf178ac45d44db0d5824d0227d365fd4d28f67345df241954427a18275c787e65",
      "assetIds": []
    },
    {
      "x": 180,
      "y": 198,
      "size": 6,
      "price": "32772000000000000000000",
      "reserved": "0x7a9fe22691c811ea339d9b73150e6911a5343dca",
      "salt": "0x695d7152cb309c6c8439749466985e790284c24ab8241efdda8fa8fbe61b678d",
      "assetIds": []
    },
    {
      "x": 186,
      "y": 198,
      "size": 6,
      "price": "32772000000000000000000",
      "reserved": "0x7a9fe22691c811ea339d9b73150e6911a5343dca",
      "salt": "0xb4142a2e0467bc2729d00820f4cab5ab654091e7a36b6d1a0836d4f18e247527",
      "assetIds": []
    },
    {
      "x": 330,
      "y": 252,
      "size": 6,
      "price": "32772000000000000000000",
      "reserved": "0x7a9fe22691c811ea339d9b73150e6911a5343dca",
      "salt": "0x82b5bedb2a9875bab7ce1481cdf297c56278db34587b9334adc611d1100b845d",
      "assetIds": []
    },
    {
      "x": 330,
      "y": 264,
      "size": 6,
      "price": "32772000000000000000000",
      "reserved": "0x7a9fe22691c811ea339d9b73150e6911a5343dca",
      "salt": "0xa44fd390ef0ef285e24c195e20efd9b2deea2d4aadd1c79144a5e366d211934c",
      "assetIds": []
    },
    {
      "x": 330,
      "y": 294,
      "size": 6,
      "price": "32772000000000000000000",
      "reserved": "0x7a9fe22691c811ea339d9b73150e6911a5343dca",
      "salt": "0x02874def02fe7c9726d01a56672a9dbddc8120b4d4ef79556bfd1230e72808a1",
      "assetIds": []
    },
    {
      "x": 342,
      "y": 258,
      "size": 6,
      "price": "32772000000000000000000",
      "reserved": "0x7a9fe22691c811ea339d9b73150e6911a5343dca",
      "salt": "0x2ffc0401d5aefba07bfd63b1c3906eb3bb2177f72baacb529e51078e68de9ade",
      "assetIds": []
    },
    {
      "x": 342,
      "y": 288,
      "size": 6,
      "price": "32772000000000000000000",
      "reserved": "0x7a9fe22691c811ea339d9b73150e6911a5343dca",
      "salt": "0xd91126dde968803c1cf99dc2af4ce491b4b72589dc8915ebb562e5e291a9cc0e",
      "assetIds": []
    },
    {
      "x": 348,
      "y": 306,
      "size": 6,
      "price": "32772000000000000000000",
      "reserved": "0x7a9fe22691c811ea339d9b73150e6911a5343dca",
      "salt": "0x72fadb9ab8abfa25a7632855bf554dd49d85593f786b75b469ad65dd0b5364d7",
      "assetIds": []
    },
    {
      "x": 354,
      "y": 258,
      "size": 6,
      "price": "32772000000000000000000",
      "reserved": "0x716eb921f3b346d2c5749b5380dc740d359055d7",
      "salt": "0x2bb81592ceed79429381d3bf17f00cb8406678d406f77d49ea7d58a13599828a",
      "assetIds": []
    },
    {
      "x": 360,
      "y": 234,
      "size": 6,
      "price": "32772000000000000000000",
      "reserved": "0x7a9fe22691c811ea339d9b73150e6911a5343dca",
      "salt": "0x9d837db61dc879be8950c0b36794ae9ff61cf1c70b09b9bc98fd67b7304edf46",
      "assetIds": []
    },
    {
      "x": 360,
      "y": 264,
      "size": 6,
      "price": "32772000000000000000000",
      "reserved": "0x7a9fe22691c811ea339d9b73150e6911a5343dca",
      "salt": "0x658273f48b6930408da4bbf3c435784560f6b1e05b355b0d9fc5a1550d1ef8a5",
      "assetIds": []
    },
    {
      "x": 366,
      "y": 270,
      "size": 6,
      "price": "32772000000000000000000",
      "reserved": "0x7a9fe22691c811ea339d9b73150e6911a5343dca",
      "salt": "0xb83a5b15d7cbd169acefe7fb3ae61fc4f6502eb381bf5d0247cbb9edbbfdb3e3",
      "assetIds": []
    },
    {
      "x": 372,
      "y": 234,
      "size": 6,
      "price": "32772000000000000000000",
      "reserved": "0x7a9fe22691c811ea339d9b73150e6911a5343dca",
      "salt": "0x405b846cd1a57ca3c8fc4485e299f36e380b3b292d3c9c06e40794f92e5292bc",
      "assetIds": []
    },
    {
      "x": 372,
      "y": 282,
      "size": 6,
      "price": "32772000000000000000000",
      "reserved": "0x7a9fe22691c811ea339d9b73150e6911a5343dca",
      "salt": "0x07080d8b9cdfb5bd673ac07069d918f7f0bdb000ed00e7489aab4e932613f214",
      "assetIds": []
    },
    {
      "x": 378,
      "y": 276,
      "size": 6,
      "price": "32772000000000000000000",
      "reserved": "0x7a9fe22691c811ea339d9b73150e6911a5343dca",
      "salt": "0xc6975bc2ed40d7d6265f2bdb4dea0b0d4fcbf50932d333c615be2d7bcf03db62",
      "assetIds": []
    },
    {
      "x": 378,
      "y": 294,
      "size": 6,
      "price": "32772000000000000000000",
      "reserved": "0x7a9fe22691c811ea339d9b73150e6911a5343dca",
      "salt": "0x2e3b55bab25e434f07e44e5a7a037fb8d667f94f9615d0527fcf8bb602905e4b",
      "assetIds": []
    },
    {
      "x": 384,
      "y": 258,
      "size": 6,
      "price": "32772000000000000000000",
      "reserved": "0x7a9fe22691c811ea339d9b73150e6911a5343dca",
      "salt": "0xcbb679064bb8e7ed7ee81dacc5fdabea1212e2baf419d60f81fe72fc103a0b82",
      "assetIds": []
    },
    {
      "x": 384,
      "y": 288,
      "size": 6,
      "price": "32772000000000000000000",
      "reserved": "0x7a9fe22691c811ea339d9b73150e6911a5343dca",
      "salt": "0xb8dc7ae21fae8d29dfd773aafd01e9361cafe6abb67fc2318ac1622459509157",
      "assetIds": []
    },
    {
      "x": 384,
      "y": 300,
      "size": 6,
      "price": "32772000000000000000000",
      "reserved": "0x7a9fe22691c811ea339d9b73150e6911a5343dca",
      "salt": "0x5d112694e6fb64abff2d97069c0434d47598820169d71da9a4b103fa2d65430e",
      "assetIds": []
    },
    {
      "x": 390,
      "y": 216,
      "size": 6,
      "price": "32772000000000000000000",
      "reserved": "0x7a9fe22691c811ea339d9b73150e6911a5343dca",
      "salt": "0x73f575d9ce4d1dd2d6febf64cd81f6c71ae3ec8868d8581d74777fafa3dd168e",
      "assetIds": []
    },
    {
      "x": 390,
      "y": 228,
      "size": 6,
      "price": "32772000000000000000000",
      "reserved": "0x7a9fe22691c811ea339d9b73150e6911a5343dca",
      "salt": "0x8a465851dcff9bf6bf32d2b5b2675580e6e9c541e9224963050ddcda2083b691",
      "assetIds": []
    },
    {
      "x": 396,
      "y": 288,
      "size": 6,
      "price": "32772000000000000000000",
      "reserved": "0x7a9fe22691c811ea339d9b73150e6911a5343dca",
      "salt": "0x023cec81116aadfb620c4860a1ed2505e8d13221c8c7c52871a928bc5020f886",
      "assetIds": []
    },
    {
      "x": 396,
      "y": 300,
      "size": 6,
      "price": "32772000000000000000000",
      "reserved": "0x7a9fe22691c811ea339d9b73150e6911a5343dca",
      "salt": "0x2fc7da0be76249424767595657f75ab6407424beb2a68165678b8b2dc214e9f0",
      "assetIds": []
    },
    {
      "x": 396,
      "y": 306,
      "size": 6,
      "price": "32772000000000000000000",
      "reserved": "0x7a9fe22691c811ea339d9b73150e6911a5343dca",
      "salt": "0x4034a3ca04360ddf6ded69d7b43cace6ff700cf9fbb25ff0718fbd58a8ca2bef",
      "assetIds": []
    },
    {
      "x": 402,
      "y": 228,
      "size": 6,
      "price": "32772000000000000000000",
      "reserved": "0x7a9fe22691c811ea339d9b73150e6911a5343dca",
      "salt": "0x8a15c50e6462e82ace915e7e3ac39639e82b23adf460eaac22f4340fbcb3bf1d",
      "assetIds": []
    },
    {
      "x": 402,
      "y": 234,
      "size": 6,
      "price": "32772000000000000000000",
      "reserved": "0x7a9fe22691c811ea339d9b73150e6911a5343dca",
      "salt": "0x71518f9da7d8c8e2eef01b52e92e346e238016280ab4c2148b25a3bc468153d7",
      "assetIds": []
    },
    {
      "x": 402,
      "y": 294,
      "size": 6,
      "price": "32772000000000000000000",
      "reserved": "0x7a9fe22691c811ea339d9b73150e6911a5343dca",
      "salt": "0xc505ae4c4fae933c560371cf41e4ed3bc0a3c876c211cc35a63faabf78d22c6b",
      "assetIds": []
    },
    {
      "x": 402,
      "y": 300,
      "size": 6,
      "price": "32772000000000000000000",
      "reserved": "0x7a9fe22691c811ea339d9b73150e6911a5343dca",
      "salt": "0xf71c72daba49d9270e027bd9278997d55a31af10a0ead71916ec229783b122de",
      "assetIds": []
    },
    {
      "x": 324,
      "y": 276,
      "size": 12,
      "price": "123806000000000000000000",
      "reserved": "0x7a9fe22691c811ea339d9b73150e6911a5343dca",
      "salt": "0x5c73284957f2c86f464b7e2609b6079092892251e874e10b581dd19000d6cd3b",
      "assetIds": []
    },
    {
      "x": 348,
      "y": 240,
      "size": 12,
      "price": "123806000000000000000000",
      "reserved": "0x7a9fe22691c811ea339d9b73150e6911a5343dca",
      "salt": "0xc8d8b567c1d6463f105a71ef278e684a82b3080e37defb24d5109ff4713974a9",
      "assetIds": []
    },
    {
      "x": 348,
      "y": 288,
      "size": 12,
      "price": "123806000000000000000000",
      "reserved": "0x7a9fe22691c811ea339d9b73150e6911a5343dca",
      "salt": "0x464448c795dfa205a1d1376463379e5a7440f7cd0941d8b3ab15785351958201",
      "assetIds": []
    },
    {
      "x": 360,
      "y": 276,
      "size": 12,
      "price": "123806000000000000000000",
      "reserved": "0x7a9fe22691c811ea339d9b73150e6911a5343dca",
      "salt": "0xd600d51eba3c9b37a89799a198bdbf3975364b4396a87c9aa2eeba4361f51a89",
      "assetIds": []
    },
    {
      "x": 372,
      "y": 264,
      "size": 12,
      "price": "123806000000000000000000",
      "reserved": "0x7a9fe22691c811ea339d9b73150e6911a5343dca",
      "salt": "0xb335d9fe6e0b1c24ebe98915330f220b220689df8e67b3456075e881c5059d59",
      "assetIds": []
    },
    {
      "x": 384,
      "y": 240,
      "size": 12,
      "price": "123806000000000000000000",
      "reserved": "0x7a9fe22691c811ea339d9b73150e6911a5343dca",
      "salt": "0x70197bf3e8c59624b0479da2c6ca9adcffef4bacb3c9a0438829b3b2da60ed07",
      "assetIds": []
    },
    {
      "x": 396,
      "y": 216,
      "size": 12,
      "price": "123806000000000000000000",
      "reserved": "0x7a9fe22691c811ea339d9b73150e6911a5343dca",
      "salt": "0xef94cd4e8b5a5ed279e6c2b25d230a8b75e2b06fc2d8023bc38ef6dc99176d1e",
      "assetIds": []
    },
    {
      "x": 396,
      "y": 252,
      "size": 12,
      "price": "123806000000000000000000",
      "reserved": "0x7a9fe22691c811ea339d9b73150e6911a5343dca",
      "salt": "0xe960b3be192802464c976421654ef5beea86fcc8bf0785623a8e4de76dc1f562",
      "assetIds": []
    },
    {
      "x": 336,
      "y": 264,
      "size": 24,
      "price": "466102000000000000000000",
      "reserved": "0x7a9fe22691c811ea339d9b73150e6911a5343dca",
      "salt": "0x11a304ee3c17b7ae2ec4cc14a58eea6ebecbd93f9edae2ae13420f507e4b9a49",
      "assetIds": []
    },
    {
      "x": 360,
      "y": 240,
      "size": 24,
      "price": "466102000000000000000000",
      "reserved": "0x7a9fe22691c811ea339d9b73150e6911a5343dca",
      "salt": "0x06614e29a84ea6880deed806be8355c6f1d095a790834af041c025e47775e8ef",
      "assetIds": []
    },
    {
      "x": 384,
      "y": 264,
      "size": 24,
      "price": "466102000000000000000000",
      "reserved": "0x7a9fe22691c811ea339d9b73150e6911a5343dca",
      "salt": "0x2b98bca6c2a6277282c57913de5781bbf22a3b9ac8a8855c78faf456b7af481d",
      "assetIds": []
    }
  ],
  "solcInputHash": "a4de1e9cf87be8a7daa33c15e9438e26",
  "bytecode": "0x610160604052620d2f006005556103e860075534801561001e57600080fd5b5060405161242e38038061242e833981810160405261018081101561004257600080fd5b50805160208201516040830151606080850151608086015160a08088015160c0808a015160e08b01516101008c01516101208d01516101408e0151610160909e0151600280546001600160a01b0319166001600160a01b03861617905560038390558d8b1b6001600160601b0319908116909852998c901b909616909352999a9899979895979496929590949391926100dc8a600161014a565b600680546001600160a01b03199081166001600160a01b039a8b1617909155610140979097526101209590955260008054909616979096169690961790935550606093841b6001600160601b031990811660e05292841b831660805290921b1661010052506101ae92505050565b6001600160a01b038216600081815260016020908152604091829020805460ff191685151590811790915582519384529083015280517fb21eb88b4e33b3f1281830a7178d74d8aa73220416215726b68ae23d539515cb9281900390910190a15050565b60805160601c60a05160601c60c05160601c60e05160601c6101005160601c61012051610140516121fb610233600039806109375280611d44525080610913528061139a525080611da45250806115d252806116f4525080610c50528061159c5280611dd852508061166152806116c5525080610dfa528061190852506121fb6000f3fe608060405234801561001057600080fd5b50600436106101515760003560e01c8063984d6252116100cd578063dc5074af11610081578063ecb255b511610066578063ecb255b514610857578063f23a6e6114610874578063f2e7b3811461090957610151565b8063dc5074af14610814578063e56f8a9e1461083a57610151565b8063bc197c81116100b2578063bc197c81146105d3578063c10a420814610735578063caed35001461080c57610151565b8063984d6252146104db578063b522ecff146105ad57610151565b80636e9960c3116101245780638a04af6a116101095780638a04af6a1461032a5780638a12b82f146103585780638f283970146104b557610151565b80636e9960c3146102fe57806377f1c3ac1461032257610151565b806325cb5bc014610156578063495906571461017057806358bc29441461017857806365194ce7146101a0575b600080fd5b61015e610911565b60408051918252519081900360200190f35b61015e610935565b61019e6004803603602081101561018e57600080fd5b50356001600160a01b0316610959565b005b610246600480360360208110156101b657600080fd5b8101906020810181356401000000008111156101d157600080fd5b8201836020820111156101e357600080fd5b8035906020019184600183028401116401000000008311171561020557600080fd5b91908080601f016020809104026020016040519081016040528093929190818152602001838380828437600092019190915250929550610a04945050505050565b6040518080602001866001600160a01b03166001600160a01b03168152602001856001600160a01b03166001600160a01b03168152602001848152602001838152602001828103825287818151815260200191508051906020019080838360005b838110156102bf5781810151838201526020016102a7565b50505050905090810190601f1680156102ec5780820380516001836020036101000a031916815260200191505b50965050505050505060405180910390f35b610306610b09565b604080516001600160a01b039092168252519081900360200190f35b61015e610b18565b61019e6004803603604081101561034057600080fd5b506001600160a01b0381351690602001351515610b1e565b61019e600480360361018081101561036f57600080fd5b6001600160a01b038235811692602081013582169260408201359092169160608201359160808101359160a08201359160c08101359160e0820135916101008101359181019061014081016101208201356401000000008111156103d257600080fd5b8201836020820111156103e457600080fd5b8035906020019184602083028401116401000000008311171561040657600080fd5b91939092909160208101903564010000000081111561042457600080fd5b82018360208201111561043657600080fd5b8035906020019184602083028401116401000000008311171561045857600080fd5b91939092909160208101903564010000000081111561047657600080fd5b82018360208201111561048857600080fd5b803590602001918460018302840111640100000000831117156104aa57600080fd5b509092509050610b75565b61019e600480360360208110156104cb57600080fd5b50356001600160a01b0316610cc3565b61019e600480360360608110156104f157600080fd5b6001600160a01b03823516919081019060408101602082013564010000000081111561051c57600080fd5b82018360208201111561052e57600080fd5b8035906020019184602083028401116401000000008311171561055057600080fd5b91939092909160208101903564010000000081111561056e57600080fd5b82018360208201111561058057600080fd5b803590602001918460208302840111640100000000831117156105a257600080fd5b509092509050610d99565b61019e600480360360208110156105c357600080fd5b50356001600160a01b0316610f24565b610700600480360360a08110156105e957600080fd5b6001600160a01b03823581169260208101359091169181019060608101604082013564010000000081111561061d57600080fd5b82018360208201111561062f57600080fd5b8035906020019184602083028401116401000000008311171561065157600080fd5b91939092909160208101903564010000000081111561066f57600080fd5b82018360208201111561068157600080fd5b803590602001918460208302840111640100000000831117156106a357600080fd5b9193909290916020810190356401000000008111156106c157600080fd5b8201836020820111156106d357600080fd5b803590602001918460018302840111640100000000831117156106f557600080fd5b50909250905061100d565b604080517fffffffff000000000000000000000000000000000000000000000000000000009092168252519081900360200190f35b6107f8600480360360a081101561074b57600080fd5b81019060208101813564010000000081111561076657600080fd5b82018360208201111561077857600080fd5b8035906020019184600183028401116401000000008311171561079a57600080fd5b91908080601f016020809104026020016040519081016040528093929190818152602001838380828437600092019190915250929550506001600160a01b03833581169450602084013516926040810135925060600135905061103a565b604080519115158252519081900360200190f35b610306611176565b6107f86004803603602081101561082a57600080fd5b50356001600160a01b0316611185565b61019e6004803603602081101561085057600080fd5b50356111a3565b61019e6004803603602081101561086d57600080fd5b5035611207565b610700600480360360a081101561088a57600080fd5b6001600160a01b03823581169260208101359091169160408201359160608101359181019060a0810160808201356401000000008111156108ca57600080fd5b8201836020820111156108dc57600080fd5b803590602001918460018302840111640100000000831117156108fe57600080fd5b50909250905061126b565b61015e611296565b7f000000000000000000000000000000000000000000000000000000000000000090565b7f000000000000000000000000000000000000000000000000000000000000000090565b6000546001600160a01b031633146109b8576040805162461bcd60e51b815260206004820152601060248201527f53656e646572206e6f742061646d696e00000000000000000000000000000000604482015290519081900360640190fd5b600554600280546001600160a01b03908116600090815260046020526040902042909301909255805473ffffffffffffffffffffffffffffffffffffffff191692909116919091179055565b606060008060008060606000806000808a80602001905160a0811015610a2957600080fd5b8101908080516040519392919084640100000000821115610a4957600080fd5b908301906020820185811115610a5e57600080fd5b8251640100000000811182820188101715610a7857600080fd5b82525081516020918201929091019080838360005b83811015610aa5578181015183820152602001610a8d565b50505050905090810190601f168015610ad25780820380516001836020036101000a031916815260200191505b5060409081526020820151908201516060830151608090930151959f50909d509b5099509197505050505050505091939590929450565b6000546001600160a01b031690565b60035490565b6000546001600160a01b03163314610b675760405162461bcd60e51b815260040180806020018281038252602e815260200180612198602e913960400191505060405180910390fd5b610b71828261129c565b5050565b610b7f898961131e565b610c048f8e8e8e8e8e8d8d8d80806020026020016040519081016040528093929190818152602001838360200280828437600081840152601f19601f820116905080830192505050505050508c8c8080602002602001604051908101604052809392919081815260200183836020028082843760009201919091525061139892505050565b610c458f8984848080601f01602080910402602001604051908101604052809392919081815260200183838082843760009201919091525061157592505050565b610c758f8f8e8e8e8d7f00000000000000000000000000000000000000000000000000000000000000008f6115c6565b610cb28e87878080602002602001604051908101604052809392919081815260200183836020028082843760009201919091525061189192505050565b505050505050505050505050505050565b6000546001600160a01b03163314610d22576040805162461bcd60e51b815260206004820152601b60248201527f6f6e6c792061646d696e2063616e206368616e67652061646d696e0000000000604482015290519081900360640190fd5b600054604080516001600160a01b039283168152918316602083015280517f7e644d79422f17c01e4894b5f4f588d331ebfa28653d42ae832dc59e38c9798f9281900390910190a16000805473ffffffffffffffffffffffffffffffffffffffff19166001600160a01b0392909216919091179055565b6000546001600160a01b03163314610df8576040805162461bcd60e51b815260206004820152600e60248201527f4e4f545f415554484f52495a4544000000000000000000000000000000000000604482015290519081900360640190fd5b7f00000000000000000000000000000000000000000000000000000000000000006001600160a01b0316632eb2c2d63087878787876040518763ffffffff1660e01b815260040180876001600160a01b03166001600160a01b03168152602001866001600160a01b03166001600160a01b031681526020018060200180602001806020018481038452888882818152602001925060200280828437600083820152601f01601f19169091018581038452868152602090810191508790870280828437600081840152601f19601f8201169050808301925050508481038252600081526020016020019950505050505050505050600060405180830381600087803b158015610f0557600080fd5b505af1158015610f19573d6000803e3d6000fd5b505050505050505050565b6001600160a01b038116610f7f576040805162461bcd60e51b815260206004820152600c60248201527f5a45524f5f414444524553530000000000000000000000000000000000000000604482015290519081900360640190fd5b6000546001600160a01b03163314610fde576040805162461bcd60e51b815260206004820152600e60248201527f4e4f545f415554484f52495a4544000000000000000000000000000000000000604482015290519081900360640190fd5b6006805473ffffffffffffffffffffffffffffffffffffffff19166001600160a01b0392909216919091179055565b7fbc197c810000000000000000000000000000000000000000000000000000000098975050505050505050565b600060035482118061105d5750836001600160a01b0316856001600160a01b0316145b8061106757508242115b156110745750600061116d565b60408051606087811b7fffffffffffffffffffffffffffffffffffffffff0000000000000000000000009081166020808501919091529188901b166034830152604882018690526068808301869052835180840390910181526088830184528051908201207f19457468657265756d205369676e6564204d6573736167653a0a33320000000060a884015260c48084018290528451808503909101815260e4909301909352815191012060009061112b9089611a55565b6001600160a01b03811660009081526004602052604090205490915042116111585760019250505061116d565b6002546001600160a01b039081169116149150505b95945050505050565b6002546001600160a01b031690565b6001600160a01b031660009081526001602052604090205460ff1690565b6000546001600160a01b03163314611202576040805162461bcd60e51b815260206004820152601060248201527f53656e646572206e6f742061646d696e00000000000000000000000000000000604482015290519081900360640190fd5b600355565b6000546001600160a01b03163314611266576040805162461bcd60e51b815260206004820152600e60248201527f4e4f545f415554484f52495a4544000000000000000000000000000000000000604482015290519081900360640190fd5b600755565b7ff23a6e61000000000000000000000000000000000000000000000000000000009695505050505050565b60075490565b6001600160a01b03821660008181526001602090815260409182902080547fffffffffffffffffffffffffffffffffffffffffffffffffffffffffffffff001685151590811790915582519384529083015280517fb21eb88b4e33b3f1281830a7178d74d8aa73220416215726b68ae23d539515cb9281900390910190a15050565b6113456103e861133960075485611b2290919063ffffffff16565b9063ffffffff611b9816565b8114610b71576040805162461bcd60e51b815260206004820152600d60248201527f494e56414c49445f505249434500000000000000000000000000000000000000604482015290519081900360640190fd5b7f0000000000000000000000000000000000000000000000000000000000000000421061140c576040805162461bcd60e51b815260206004820152600c60248201527f53414c455f49535f4f5645520000000000000000000000000000000000000000604482015290519081900360640190fd5b6001600160a01b03891633148061143257503360009081526001602052604090205460ff165b611483576040805162461bcd60e51b815260206004820152600e60248201527f4e4f545f415554484f52495a4544000000000000000000000000000000000000604482015290519081900360640190fd5b6001600160a01b03881615806114aa5750886001600160a01b0316886001600160a01b0316145b6114fb576040805162461bcd60e51b815260206004820152600d60248201527f52455345525645445f4c414e4400000000000000000000000000000000000000604482015290519081900360640190fd5b600061150c888888888d8989611bfd565b90506115188282611ca2565b611569576040805162461bcd60e51b815260206004820152600c60248201527f494e56414c49445f4c414e440000000000000000000000000000000000000000604482015290519081900360640190fd5b50505050505050505050565b60006115818484611d6b565b6006549091506115c0908590839085906001600160a01b03167f0000000000000000000000000000000000000000000000000000000000000000611eb8565b50505050565b83600114806115fc57507f00000000000000000000000000000000000000000000000000000000000000006001600160a01b0316155b156116c357604080517f6e1e3bbf0000000000000000000000000000000000000000000000000000000081526001600160a01b03898116600483015260248201879052604482018990526064820188905260a06084830152600060a4830181905292517f000000000000000000000000000000000000000000000000000000000000000090911692636e1e3bbf9260e4808201939182900301818387803b1580156116a657600080fd5b505af11580156116ba573d6000803e3d6000fd5b50505050611827565b7f00000000000000000000000000000000000000000000000000000000000000006001600160a01b0316636e1e3bbf7f00000000000000000000000000000000000000000000000000000000000000008689898c60405160200180826001600160a01b03166001600160a01b031681526020019150506040516020818303038152906040526040518663ffffffff1660e01b815260040180866001600160a01b03166001600160a01b0316815260200185815260200184815260200183815260200180602001828103825283818151815260200191508051906020019080838360005b838110156117be5781810151838201526020016117a6565b50505050905090810190601f1680156117eb5780820380516001836020036101000a031916815260200191505b509650505050505050600060405180830381600087803b15801561180e57600080fd5b505af1158015611822573d6000803e3d6000fd5b505050505b60408051858152602081018590526001600160a01b03848116828401526060820184905291516101988802890192808b1692908c16917fe4dfa6ac11314892f3029b34a25b1a887da3b1cab2bbf8506d87128ba6e3ac029181900360800190a45050505050505050565b6060815167ffffffffffffffff811180156118ab57600080fd5b506040519080825280602002602001820160405280156118d5578160200160208202803683370190505b50905060005b82518110156119055760018282815181106118f257fe5b60209081029190910101526001016118db565b507f00000000000000000000000000000000000000000000000000000000000000006001600160a01b0316632eb2c2d6308585856040518563ffffffff1660e01b815260040180856001600160a01b03166001600160a01b03168152602001846001600160a01b03166001600160a01b03168152602001806020018060200180602001848103845286818151815260200191508051906020019060200280838360005b838110156119c05781810151838201526020016119a8565b50505050905001848103835285818151815260200191508051906020019060200280838360005b838110156119ff5781810151838201526020016119e7565b50505050905001848103825260008152602001602001975050505050505050600060405180830381600087803b158015611a3857600080fd5b505af1158015611a4c573d6000803e3d6000fd5b50505050505050565b60008151604114611a6557600080fd5b60208201516040830151606084015160001a601b811015611a8457601b015b8060ff16601b1480611a9957508060ff16601c145b611aa257600080fd5b6040805160008152602080820180845289905260ff8416828401526060820186905260808201859052915160019260a0808401939192601f1981019281900390910190855afa158015611af9573d6000803e3d6000fd5b5050604051601f1901519450506001600160a01b038416611b1957600080fd5b50505092915050565b600082611b3157506000611b92565b5081810281838281611b3f57fe5b0414611b92576040805162461bcd60e51b815260206004820152600860248201527f6f766572666c6f77000000000000000000000000000000000000000000000000604482015290519081900360640190fd5b92915050565b600081611bec576040805162461bcd60e51b815260206004820152600960248201527f64697662797a65726f0000000000000000000000000000000000000000000000604482015290519081900360640190fd5b818381611bf557fe5b049392505050565b60008787878787878760405160200180888152602001878152602001868152602001858152602001846001600160a01b03166001600160a01b031660601b8152601401838152602001828051906020019060200280838360005b83811015611c6f578181015183820152602001611c57565b50505050905001975050505050505050604051602081830303815290604052805190602001209050979650505050505050565b600081815b8451811015611d41576000858281518110611cbe57fe5b6020026020010151905080831015611d065782816040516020018083815260200182815260200192505050604051602081830303815290604052805190602001209250611d38565b808360405160200180838152602001828152602001925050506040516020818303038152906040528051906020012092505b50600101611ca7565b507f0000000000000000000000000000000000000000000000000000000000000000149392505050565b600080611d84606461133985600563ffffffff611b2216565b604080516323b872dd60e01b81526001600160a01b0387811660048301527f0000000000000000000000000000000000000000000000000000000000000000811660248301526044820184905291519293507f0000000000000000000000000000000000000000000000000000000000000000909116916323b872dd916064808201926020929091908290030181600087803b158015611e2357600080fd5b505af1158015611e37573d6000803e3d6000fd5b505050506040513d6020811015611e4d57600080fd5b5051611ea0576040805162461bcd60e51b815260206004820152601360248201527f4645455f5452414e534645525f4641494c454400000000000000000000000000604482015290519081900360640190fd5b611eb0838263ffffffff61213a16565b949350505050565b82518190859015612062576060600080600080611ed48a610a04565b9398509196509450925090506000611eef868686868661103a565b15611f7d57611f09611f018d84611b22565b612710611b98565b9050886001600160a01b0316846001600160a01b0316866001600160a01b03167fac7a699eb95c3c6d390ec4626de17ef9a67b35891efdb197beba7c7fdd45fac48f858760405180848152602001838152602001828152602001935050505060405180910390a4611f7a878261213a565b96505b801561205b57604080516323b872dd60e01b81526001600160a01b038f811660048301528781166024830152604482018490529151918a16916323b872dd916064808201926020929091908290030181600087803b158015611fde57600080fd5b505af1158015611ff2573d6000803e3d6000fd5b505050506040513d602081101561200857600080fd5b505161205b576040805162461bcd60e51b815260206004820152601960248201527f636f6d6d6973696f6e207472616e73666572206661696c656400000000000000604482015290519081900360640190fd5b5050505050505b604080516323b872dd60e01b81526001600160a01b0389811660048301528681166024830152604482018490529151918416916323b872dd916064808201926020929091908290030181600087803b1580156120bd57600080fd5b505af11580156120d1573d6000803e3d6000fd5b505050506040513d60208110156120e757600080fd5b5051611a4c576040805162461bcd60e51b815260206004820152601760248201527f7061796d656e74207472616e73666572206661696c6564000000000000000000604482015290519081900360640190fd5b600082821115612191576040805162461bcd60e51b815260206004820152600860248201527f756e6465666c6f77000000000000000000000000000000000000000000000000604482015290519081900360640190fd5b5090039056fe6f6e6c792061646d696e2063616e207365747570206d6574615472616e73616374696f6e50726f636573736f7273a26469706673582212200ff38c5741c66b2a22a9a9ee2abe0f55626323082b6b4443921fd3b25484584a64736f6c63430006050033",
  "devdoc": {
    "methods": {
      "buyLandWithSand(address,address,address,uint256,uint256,uint256,uint256,uint256,bytes32,uint256[],bytes32[],bytes)": {
        "params": {
          "buyer": "address that perform the payment",
          "priceInSand": "price in SAND to purchase that Land",
          "proof": "merkleProof for that particular Land",
          "reserved": "the reserved address (if any)",
          "size": "size of the pack of Land to purchase",
          "to": "address that will own the purchased Land",
          "x": "x coordinate of the Land",
          "y": "y coordinate of the Land"
        }
      },
      "changeAdmin(address)": {
        "details": "change the administrator to be `newAdmin`.",
        "params": {
          "newAdmin": "address of the new administrator."
        }
      },
      "getAdmin()": {
        "details": "gives the current administrator of this contract.",
        "returns": {
          "_0": "the current administrator of this contract."
        }
      },
      "getSigningWallet()": {
        "details": "signing wallet authorized for referral",
        "returns": {
          "_0": "the address of the signing wallet"
        }
      },
      "isMetaTransactionProcessor(address)": {
        "details": "check whether address `who` is given meta-transaction execution rights.",
        "params": {
          "who": "The address to query."
        },
        "returns": {
          "_0": "whether the address has meta-transaction execution rights."
        }
      },
      "isReferralValid(bytes,address,address,uint256,uint256)": {
        "params": {
          "commissionRate": "The commissionRate of the referral",
          "expiryTime": "The expiry time of the referral",
          "referee": "The address of the referee",
          "referrer": "The address of the referrer",
          "signature": "The signature to check (signed referral)"
        },
        "returns": {
          "_0": "True if the referral is valid"
        }
      },
      "setMetaTransactionProcessor(address,bool)": {
        "details": "Enable or disable the ability of `metaTransactionProcessor` to perform meta-tx (metaTransactionProcessor rights).",
        "params": {
          "enabled": "set whether the metaTransactionProcessor is enabled or disabled.",
          "metaTransactionProcessor": "address that will be given/removed metaTransactionProcessor rights."
        }
      },
      "setReceivingWallet(address)": {
        "params": {
          "newWallet": "address of the new receiving wallet"
        }
      },
      "updateMaxCommissionRate(uint256)": {
        "details": "Update the maximum commission rate",
        "params": {
          "newMaxCommissionRate": "The new maximum commission rate"
        }
      },
      "updateSigningWallet(address)": {
        "details": "Update the signing wallet",
        "params": {
          "newSigningWallet": "The new address of the signing wallet"
        }
      },
      "withdrawAssets(address,uint256[],uint256[])": {
        "params": {
          "assetIds": "the assetIds to be transferred",
          "to": "intended recipient of the asset tokens",
          "values": "the quantities of the assetIds to be transferred"
        }
      }
    },
    "title": "Estate Sale contract with referral"
  },
  "userdoc": {
    "methods": {
      "buyLandWithSand(address,address,address,uint256,uint256,uint256,uint256,uint256,bytes32,uint256[],bytes32[],bytes)": {
        "notice": "buy Land with SAND using the merkle proof associated with it"
      },
      "getExpiryTime()": {
        "notice": "Gets the expiry time for the current sale"
      },
      "getMaxCommisionRate()": {
        "notice": "the max commision rate"
      },
      "getMerkleRoot()": {
        "notice": "Gets the Merkle root associated with the current sale"
      },
      "isReferralValid(bytes,address,address,uint256,uint256)": {
        "notice": "Check if a referral is valid"
      },
      "setReceivingWallet(address)": {
        "notice": "set the wallet receiving the proceeds"
      },
      "withdrawAssets(address,uint256[],uint256[])": {
        "notice": "enable Admin to withdraw remaining assets from EstateSaleWithFee contract"
      }
    },
    "notice": "This contract manages the sale of our lands as Estates"
  },
  "storageLayout": {
    "storage": [
      {
        "astId": 15353,
        "contract": "src/solc_0.6/EstateSale/EstateSaleWithFee.sol:EstateSaleWithFee",
        "label": "_admin",
        "offset": 0,
        "slot": "0",
        "type": "t_address"
      },
      {
        "astId": 15415,
        "contract": "src/solc_0.6/EstateSale/EstateSaleWithFee.sol:EstateSaleWithFee",
        "label": "_metaTransactionContracts",
        "offset": 0,
        "slot": "1",
        "type": "t_mapping(t_address,t_bool)"
      },
      {
        "astId": 13531,
        "contract": "src/solc_0.6/EstateSale/EstateSaleWithFee.sol:EstateSaleWithFee",
        "label": "_signingWallet",
        "offset": 0,
        "slot": "2",
        "type": "t_address"
      },
      {
        "astId": 13533,
        "contract": "src/solc_0.6/EstateSale/EstateSaleWithFee.sol:EstateSaleWithFee",
        "label": "_maxCommissionRate",
        "offset": 0,
        "slot": "3",
        "type": "t_uint256"
      },
      {
        "astId": 13537,
        "contract": "src/solc_0.6/EstateSale/EstateSaleWithFee.sol:EstateSaleWithFee",
        "label": "_previousSigningWallets",
        "offset": 0,
        "slot": "4",
        "type": "t_mapping(t_address,t_uint256)"
      },
      {
        "astId": 13546,
        "contract": "src/solc_0.6/EstateSale/EstateSaleWithFee.sol:EstateSaleWithFee",
        "label": "_previousSigningDelay",
        "offset": 0,
        "slot": "5",
        "type": "t_uint256"
      },
      {
        "astId": 9918,
        "contract": "src/solc_0.6/EstateSale/EstateSaleWithFee.sol:EstateSaleWithFee",
        "label": "_wallet",
        "offset": 0,
        "slot": "6",
        "type": "t_address_payable"
      },
      {
        "astId": 9928,
        "contract": "src/solc_0.6/EstateSale/EstateSaleWithFee.sol:EstateSaleWithFee",
        "label": "_multiplier",
        "offset": 0,
        "slot": "7",
        "type": "t_uint256"
      }
    ],
    "types": {
      "t_address": {
        "encoding": "inplace",
        "label": "address",
        "numberOfBytes": "20"
      },
      "t_address_payable": {
        "encoding": "inplace",
        "label": "address payable",
        "numberOfBytes": "20"
      },
      "t_bool": {
        "encoding": "inplace",
        "label": "bool",
        "numberOfBytes": "1"
      },
      "t_mapping(t_address,t_bool)": {
        "encoding": "mapping",
        "key": "t_address",
        "label": "mapping(address => bool)",
        "numberOfBytes": "32",
        "value": "t_bool"
      },
      "t_mapping(t_address,t_uint256)": {
        "encoding": "mapping",
        "key": "t_address",
        "label": "mapping(address => uint256)",
        "numberOfBytes": "32",
        "value": "t_uint256"
      },
      "t_uint256": {
        "encoding": "inplace",
        "label": "uint256",
        "numberOfBytes": "32"
      }
    }
  }
}