{
  "address": "0xAb44D6e8A66119E3f99cE6e6515ccE81651Aad64",
  "abi": [
    {
      "inputs": [
        {
          "internalType": "address",
          "name": "landAddress",
          "type": "address"
        },
        {
          "internalType": "address",
          "name": "sandContractAddress",
          "type": "address"
        },
        {
          "internalType": "address",
          "name": "initialMetaTx",
          "type": "address"
        },
        {
          "internalType": "address",
          "name": "admin",
          "type": "address"
        },
        {
          "internalType": "address payable",
          "name": "initialWalletAddress",
          "type": "address"
        },
        {
          "internalType": "bytes32",
          "name": "merkleRoot",
          "type": "bytes32"
        },
        {
          "internalType": "uint256",
          "name": "expiryTime",
          "type": "uint256"
        },
        {
          "internalType": "address",
          "name": "initialSigningWallet",
          "type": "address"
        },
        {
          "internalType": "uint256",
          "name": "initialMaxCommissionRate",
          "type": "uint256"
        },
        {
          "internalType": "address",
          "name": "estate",
          "type": "address"
        },
        {
          "internalType": "address",
          "name": "asset",
          "type": "address"
        },
        {
          "internalType": "address",
          "name": "feeDistributor",
          "type": "address"
        },
        {
          "internalType": "address",
          "name": "authValidator",
          "type": "address"
        }
      ],
      "stateMutability": "nonpayable",
      "type": "constructor"
    },
    {
      "anonymous": false,
      "inputs": [
        {
          "indexed": false,
          "internalType": "address",
          "name": "oldAdmin",
          "type": "address"
        },
        {
          "indexed": false,
          "internalType": "address",
          "name": "newAdmin",
          "type": "address"
        }
      ],
      "name": "AdminChanged",
      "type": "event"
    },
    {
      "anonymous": false,
      "inputs": [
        {
          "indexed": true,
          "internalType": "address",
          "name": "buyer",
          "type": "address"
        },
        {
          "indexed": true,
          "internalType": "address",
          "name": "to",
          "type": "address"
        },
        {
          "indexed": true,
          "internalType": "uint256",
          "name": "topCornerId",
          "type": "uint256"
        },
        {
          "indexed": false,
          "internalType": "uint256",
          "name": "size",
          "type": "uint256"
        },
        {
          "indexed": false,
          "internalType": "uint256",
          "name": "price",
          "type": "uint256"
        },
        {
          "indexed": false,
          "internalType": "address",
          "name": "token",
          "type": "address"
        },
        {
          "indexed": false,
          "internalType": "uint256",
          "name": "amountPaid",
          "type": "uint256"
        }
      ],
      "name": "LandQuadPurchased",
      "type": "event"
    },
    {
      "anonymous": false,
      "inputs": [
        {
          "indexed": false,
          "internalType": "address",
          "name": "metaTransactionProcessor",
          "type": "address"
        },
        {
          "indexed": false,
          "internalType": "bool",
          "name": "enabled",
          "type": "bool"
        }
      ],
      "name": "MetaTransactionProcessor",
      "type": "event"
    },
    {
      "anonymous": false,
      "inputs": [
        {
          "indexed": true,
          "internalType": "address",
          "name": "referrer",
          "type": "address"
        },
        {
          "indexed": true,
          "internalType": "address",
          "name": "referee",
          "type": "address"
        },
        {
          "indexed": true,
          "internalType": "address",
          "name": "token",
          "type": "address"
        },
        {
          "indexed": false,
          "internalType": "uint256",
          "name": "amount",
          "type": "uint256"
        },
        {
          "indexed": false,
          "internalType": "uint256",
          "name": "commission",
          "type": "uint256"
        },
        {
          "indexed": false,
          "internalType": "uint256",
          "name": "commissionRate",
          "type": "uint256"
        }
      ],
      "name": "ReferralUsed",
      "type": "event"
    },
    {
      "inputs": [
        {
          "internalType": "address",
          "name": "buyer",
          "type": "address"
        },
        {
          "internalType": "address",
          "name": "to",
          "type": "address"
        },
        {
          "internalType": "address",
          "name": "reserved",
          "type": "address"
        },
        {
          "internalType": "uint256[]",
          "name": "info",
          "type": "uint256[]"
        },
        {
          "internalType": "bytes32",
          "name": "salt",
          "type": "bytes32"
        },
        {
          "internalType": "uint256[]",
          "name": "assetIds",
          "type": "uint256[]"
        },
        {
          "internalType": "bytes32[]",
          "name": "proof",
          "type": "bytes32[]"
        },
        {
          "internalType": "bytes",
          "name": "referral",
          "type": "bytes"
        },
        {
          "internalType": "bytes",
          "name": "signature",
          "type": "bytes"
        }
      ],
      "name": "buyLandWithSand",
      "outputs": [],
      "stateMutability": "nonpayable",
      "type": "function"
    },
    {
      "inputs": [
        {
          "internalType": "address",
          "name": "newAdmin",
          "type": "address"
        }
      ],
      "name": "changeAdmin",
      "outputs": [],
      "stateMutability": "nonpayable",
      "type": "function"
    },
    {
      "inputs": [
        {
          "internalType": "bytes",
          "name": "referral",
          "type": "bytes"
        }
      ],
      "name": "decodeReferral",
      "outputs": [
        {
          "internalType": "bytes",
          "name": "",
          "type": "bytes"
        },
        {
          "internalType": "address",
          "name": "",
          "type": "address"
        },
        {
          "internalType": "address",
          "name": "",
          "type": "address"
        },
        {
          "internalType": "uint256",
          "name": "",
          "type": "uint256"
        },
        {
          "internalType": "uint256",
          "name": "",
          "type": "uint256"
        }
      ],
      "stateMutability": "pure",
      "type": "function"
    },
    {
      "inputs": [],
      "name": "getAdmin",
      "outputs": [
        {
          "internalType": "address",
          "name": "",
          "type": "address"
        }
      ],
      "stateMutability": "view",
      "type": "function"
    },
    {
      "inputs": [],
      "name": "getExpiryTime",
      "outputs": [
        {
          "internalType": "uint256",
          "name": "",
          "type": "uint256"
        }
      ],
      "stateMutability": "view",
      "type": "function"
    },
    {
      "inputs": [],
      "name": "getMaxCommisionRate",
      "outputs": [
        {
          "internalType": "uint256",
          "name": "",
          "type": "uint256"
        }
      ],
      "stateMutability": "view",
      "type": "function"
    },
    {
      "inputs": [],
      "name": "getMerkleRoot",
      "outputs": [
        {
          "internalType": "bytes32",
          "name": "",
          "type": "bytes32"
        }
      ],
      "stateMutability": "view",
      "type": "function"
    },
    {
      "inputs": [],
      "name": "getSigningWallet",
      "outputs": [
        {
          "internalType": "address",
          "name": "",
          "type": "address"
        }
      ],
      "stateMutability": "view",
      "type": "function"
    },
    {
      "inputs": [
        {
          "internalType": "address",
          "name": "who",
          "type": "address"
        }
      ],
      "name": "isMetaTransactionProcessor",
      "outputs": [
        {
          "internalType": "bool",
          "name": "",
          "type": "bool"
        }
      ],
      "stateMutability": "view",
      "type": "function"
    },
    {
      "inputs": [
        {
          "internalType": "bytes",
          "name": "signature",
          "type": "bytes"
        },
        {
          "internalType": "address",
          "name": "referrer",
          "type": "address"
        },
        {
          "internalType": "address",
          "name": "referee",
          "type": "address"
        },
        {
          "internalType": "uint256",
          "name": "expiryTime",
          "type": "uint256"
        },
        {
          "internalType": "uint256",
          "name": "commissionRate",
          "type": "uint256"
        }
      ],
      "name": "isReferralValid",
      "outputs": [
        {
          "internalType": "bool",
          "name": "",
          "type": "bool"
        }
      ],
      "stateMutability": "view",
      "type": "function"
    },
    {
      "inputs": [
        {
          "internalType": "address",
          "name": "",
          "type": "address"
        },
        {
          "internalType": "address",
          "name": "",
          "type": "address"
        },
        {
          "internalType": "uint256[]",
          "name": "",
          "type": "uint256[]"
        },
        {
          "internalType": "uint256[]",
          "name": "",
          "type": "uint256[]"
        },
        {
          "internalType": "bytes",
          "name": "",
          "type": "bytes"
        }
      ],
      "name": "onERC1155BatchReceived",
      "outputs": [
        {
          "internalType": "bytes4",
          "name": "",
          "type": "bytes4"
        }
      ],
      "stateMutability": "pure",
      "type": "function"
    },
    {
      "inputs": [
        {
          "internalType": "address",
          "name": "",
          "type": "address"
        },
        {
          "internalType": "address",
          "name": "",
          "type": "address"
        },
        {
          "internalType": "uint256",
          "name": "",
          "type": "uint256"
        },
        {
          "internalType": "uint256",
          "name": "",
          "type": "uint256"
        },
        {
          "internalType": "bytes",
          "name": "",
          "type": "bytes"
        }
      ],
      "name": "onERC1155Received",
      "outputs": [
        {
          "internalType": "bytes4",
          "name": "",
          "type": "bytes4"
        }
      ],
      "stateMutability": "pure",
      "type": "function"
    },
    {
      "inputs": [
        {
          "internalType": "address",
          "name": "metaTransactionProcessor",
          "type": "address"
        },
        {
          "internalType": "bool",
          "name": "enabled",
          "type": "bool"
        }
      ],
      "name": "setMetaTransactionProcessor",
      "outputs": [],
      "stateMutability": "nonpayable",
      "type": "function"
    },
    {
      "inputs": [
        {
          "internalType": "address payable",
          "name": "newWallet",
          "type": "address"
        }
      ],
      "name": "setReceivingWallet",
      "outputs": [],
      "stateMutability": "nonpayable",
      "type": "function"
    },
    {
      "inputs": [
        {
          "internalType": "uint256",
          "name": "newMaxCommissionRate",
          "type": "uint256"
        }
      ],
      "name": "updateMaxCommissionRate",
      "outputs": [],
      "stateMutability": "nonpayable",
      "type": "function"
    },
    {
      "inputs": [
        {
          "internalType": "address",
          "name": "newSigningWallet",
          "type": "address"
        }
      ],
      "name": "updateSigningWallet",
      "outputs": [],
      "stateMutability": "nonpayable",
      "type": "function"
    },
    {
      "inputs": [
        {
          "internalType": "address",
          "name": "to",
          "type": "address"
        },
        {
          "internalType": "uint256[]",
          "name": "assetIds",
          "type": "uint256[]"
        },
        {
          "internalType": "uint256[]",
          "name": "values",
          "type": "uint256[]"
        }
      ],
      "name": "withdrawAssets",
      "outputs": [],
      "stateMutability": "nonpayable",
      "type": "function"
    }
  ],
  "transactionHash": "0x7dc96bd332daf9ee70c9c1b223151fefe56d5d6da598e0e9c971865e0e97cf5a",
  "args": [
    "0x50f5474724e0Ee42D9a4e711ccFB275809Fd6d4a",
    "0x3845badAde8e6dFF049820680d1F14bD3903a5d0",
    "0x3845badAde8e6dFF049820680d1F14bD3903a5d0",
    "0xEAA0993E1d21c2103e4f172a20D29371FbAF6D06",
    "0x4489590a116618B506F0EfE885432F6A8ED998E9",
    "0x484bfa525effdea9a81d7f37543b01acda41e475206e2b524956c07cdd7df163",
    1639054800,
    "0x3044719d139F866a44c988823513eCB93060bF1b",
    2000,
    "0x0000000000000000000000000000000000000000",
    "0xa342f5D851E866E18ff98F351f2c6637f4478dB5",
    "0x0EB04462D69B1D267d269377E34f60b9De1c8510",
    "0x459EA8c295069d4cd16c025b9fa5cA3E4C5AA468"
  ],
  "linkedData": [
    {
      "x": 204,
      "y": 108,
      "size": 1,
      "price": "4683000000000000000000",
      "reserved": "",
      "salt": "0xbfd381ae8f31cc62147156f364703809ed972c7fe5e917ea5c11e3737fbf62d3",
      "assetIds": [
        "55464657044963196816950587289035428064568320970692304673817341489688059316224",
        "55464657044963196816950587289035428064568320970692304673817341489688277422080",
        "55464657044963196816950587289035428064568320970692304673817341489688285808640",
        "55464657044963196816950587289035428064568320970692304673817341489688294197248"
      ]
    },
    {
      "x": 204,
      "y": 109,
      "size": 1,
      "price": "4683000000000000000000",
      "reserved": "",
      "salt": "0xde6480c2f71f4b69d284faa2d869e771d6e9f952152ee255bb44d01bba4b279e",
      "assetIds": [
        "55464657044963196816950587289035428064568320970692304673817341489688059316224",
        "55464657044963196816950587289035428064568320970692304673817341489688277422080",
        "55464657044963196816950587289035428064568320970692304673817341489688285808640",
        "55464657044963196816950587289035428064568320970692304673817341489688294197248"
      ]
    },
    {
      "x": 204,
      "y": 110,
      "size": 1,
      "price": "1011000000000000000000",
      "reserved": "",
      "salt": "0xce3c173e5e99c51c20e8eebfa305d94c0e98f84b999759df966a3286c1888aea",
      "assetIds": []
    },
    {
      "x": 204,
      "y": 111,
      "size": 1,
      "price": "1011000000000000000000",
      "reserved": "",
      "salt": "0x48339cf94787c4f6ff54a62c29d2a00f74b989e455a182453b6451efa86cf98a",
      "assetIds": []
    },
    {
      "x": 204,
      "y": 112,
      "size": 1,
      "price": "4683000000000000000000",
      "reserved": "",
      "salt": "0x38206cfb50afc0aaea777928cabed36dec7b5799062e2523cae3b0962ddbbc67",
      "assetIds": [
        "55464657044963196816950587289035428064568320970692304673817341489688059316224",
        "55464657044963196816950587289035428064568320970692304673817341489688277422080",
        "55464657044963196816950587289035428064568320970692304673817341489688285808640",
        "55464657044963196816950587289035428064568320970692304673817341489688294197248"
      ]
    },
    {
      "x": 204,
      "y": 113,
      "size": 1,
      "price": "4683000000000000000000",
      "reserved": "",
      "salt": "0xcdf09fbf2618dcf65ab86b163f2e52fa3599a93f08a8c3eb86b720eb26e11be9",
      "assetIds": [
        "55464657044963196816950587289035428064568320970692304673817341489688059316224",
        "55464657044963196816950587289035428064568320970692304673817341489688277422080",
        "55464657044963196816950587289035428064568320970692304673817341489688285808640",
        "55464657044963196816950587289035428064568320970692304673817341489688294197248"
      ]
    },
    {
      "x": 204,
      "y": 114,
      "size": 1,
      "price": "4683000000000000000000",
      "reserved": "",
      "salt": "0x0ad3768768bb5d3928e976b6b660f8a56dd686f8d49d47ad01df925ec4cf747b",
      "assetIds": [
        "55464657044963196816950587289035428064568320970692304673817341489688059316224",
        "55464657044963196816950587289035428064568320970692304673817341489688277422080",
        "55464657044963196816950587289035428064568320970692304673817341489688285808640",
        "55464657044963196816950587289035428064568320970692304673817341489688294197248"
      ]
    },
    {
      "x": 204,
      "y": 115,
      "size": 1,
      "price": "4683000000000000000000",
      "reserved": "",
      "salt": "0xd37520a438f24176dd10fdcd389809981715964258f4ec157f439260d10c7e2c",
      "assetIds": [
        "55464657044963196816950587289035428064568320970692304673817341489688059316224",
        "55464657044963196816950587289035428064568320970692304673817341489688277422080",
        "55464657044963196816950587289035428064568320970692304673817341489688285808640",
        "55464657044963196816950587289035428064568320970692304673817341489688294197248"
      ]
    },
    {
      "x": 204,
      "y": 116,
      "size": 1,
      "price": "4683000000000000000000",
      "reserved": "",
      "salt": "0xca20db4c1d2b8c7dbfd153c5d98178f554e1bf4beaf45b5bcdb6e08f7d683711",
      "assetIds": [
        "55464657044963196816950587289035428064568320970692304673817341489688059316224",
        "55464657044963196816950587289035428064568320970692304673817341489688277422080",
        "55464657044963196816950587289035428064568320970692304673817341489688285808640",
        "55464657044963196816950587289035428064568320970692304673817341489688294197248"
      ]
    },
    {
      "x": 204,
      "y": 117,
      "size": 1,
      "price": "4683000000000000000000",
      "reserved": "",
      "salt": "0x6a8fa935c49865374d4358146c476881ce323476d7169490986b492393ed96fd",
      "assetIds": [
        "55464657044963196816950587289035428064568320970692304673817341489688059316224",
        "55464657044963196816950587289035428064568320970692304673817341489688277422080",
        "55464657044963196816950587289035428064568320970692304673817341489688285808640",
        "55464657044963196816950587289035428064568320970692304673817341489688294197248"
      ]
    },
    {
      "x": 204,
      "y": 118,
      "size": 1,
      "price": "4683000000000000000000",
      "reserved": "",
      "salt": "0xcd1ccce842b20938e4353176bee51018efb01e9f633a79960425a2069c762ef6",
      "assetIds": [
        "55464657044963196816950587289035428064568320970692304673817341489688059316224",
        "55464657044963196816950587289035428064568320970692304673817341489688277422080",
        "55464657044963196816950587289035428064568320970692304673817341489688285808640",
        "55464657044963196816950587289035428064568320970692304673817341489688294197248"
      ]
    },
    {
      "x": 204,
      "y": 119,
      "size": 1,
      "price": "4683000000000000000000",
      "reserved": "",
      "salt": "0x675632184df99bb4e84078c87969e7754704ab6d2c05f4f163699e70df2207c6",
      "assetIds": [
        "55464657044963196816950587289035428064568320970692304673817341489688059316224",
        "55464657044963196816950587289035428064568320970692304673817341489688277422080",
        "55464657044963196816950587289035428064568320970692304673817341489688285808640",
        "55464657044963196816950587289035428064568320970692304673817341489688294197248"
      ]
    },
    {
      "x": 205,
      "y": 108,
      "size": 1,
      "price": "4683000000000000000000",
      "reserved": "",
      "salt": "0x4f4514422f76bc8f392c8ffdd32ecdf8a783334baee67c69b71388b74c5dbb55",
      "assetIds": [
        "55464657044963196816950587289035428064568320970692304673817341489688059316224",
        "55464657044963196816950587289035428064568320970692304673817341489688277422080",
        "55464657044963196816950587289035428064568320970692304673817341489688285808640",
        "55464657044963196816950587289035428064568320970692304673817341489688294197248"
      ]
    },
    {
      "x": 205,
      "y": 109,
      "size": 1,
      "price": "4683000000000000000000",
      "reserved": "",
      "salt": "0xa0eab47a1d9b269927d9e1339d04cd57dd2a79d37867b811af47487cefc6bb25",
      "assetIds": [
        "55464657044963196816950587289035428064568320970692304673817341489688059316224",
        "55464657044963196816950587289035428064568320970692304673817341489688277422080",
        "55464657044963196816950587289035428064568320970692304673817341489688285808640",
        "55464657044963196816950587289035428064568320970692304673817341489688294197248"
      ]
    },
    {
      "x": 205,
      "y": 110,
      "size": 1,
      "price": "1011000000000000000000",
      "reserved": "",
      "salt": "0xc6f91d2596b66095d06a652274be2ddfff8f232b50540a42a45c78482a51c5f9",
      "assetIds": []
    },
    {
      "x": 205,
      "y": 111,
      "size": 1,
      "price": "1011000000000000000000",
      "reserved": "",
      "salt": "0x31f5b760095c6362cad8b1b8c2b2edca4539566d50893a43df374549cf2226f2",
      "assetIds": []
    },
    {
      "x": 205,
      "y": 112,
      "size": 1,
      "price": "1011000000000000000000",
      "reserved": "",
      "salt": "0x5fe7a0d14806ec0b3ff9b2b50b69cb4b1cc70cb00e937f455491795ca5328547",
      "assetIds": []
    },
    {
      "x": 205,
      "y": 113,
      "size": 1,
      "price": "4683000000000000000000",
      "reserved": "",
      "salt": "0x982aa020b639623c42ba70323e4484bbe889b9db4236d57f0d9daee13969164b",
      "assetIds": [
        "55464657044963196816950587289035428064568320970692304673817341489688059316224",
        "55464657044963196816950587289035428064568320970692304673817341489688277422080",
        "55464657044963196816950587289035428064568320970692304673817341489688285808640",
        "55464657044963196816950587289035428064568320970692304673817341489688294197248"
      ]
    },
    {
      "x": 205,
      "y": 114,
      "size": 1,
      "price": "4683000000000000000000",
      "reserved": "",
      "salt": "0x93c9f8dff60d0a2b882624cd9b99c752157312ecfaff63361db7e9c51fe331b3",
      "assetIds": [
        "55464657044963196816950587289035428064568320970692304673817341489688059316224",
        "55464657044963196816950587289035428064568320970692304673817341489688277422080",
        "55464657044963196816950587289035428064568320970692304673817341489688285808640",
        "55464657044963196816950587289035428064568320970692304673817341489688294197248"
      ]
    },
    {
      "x": 205,
      "y": 115,
      "size": 1,
      "price": "4683000000000000000000",
      "reserved": "",
      "salt": "0x92daa86245d6a1a563cf89cf60a7a2ad07fd06cd80335cefc5b854b2de1c9691",
      "assetIds": [
        "55464657044963196816950587289035428064568320970692304673817341489688059316224",
        "55464657044963196816950587289035428064568320970692304673817341489688277422080",
        "55464657044963196816950587289035428064568320970692304673817341489688285808640",
        "55464657044963196816950587289035428064568320970692304673817341489688294197248"
      ]
    },
    {
      "x": 205,
      "y": 116,
      "size": 1,
      "price": "4683000000000000000000",
      "reserved": "",
      "salt": "0x5b73f42c070003ba88b501b515da664dadafab9d7c1801a7c7e240bccd2f7618",
      "assetIds": [
        "55464657044963196816950587289035428064568320970692304673817341489688059316224",
        "55464657044963196816950587289035428064568320970692304673817341489688277422080",
        "55464657044963196816950587289035428064568320970692304673817341489688285808640",
        "55464657044963196816950587289035428064568320970692304673817341489688294197248"
      ]
    },
    {
      "x": 205,
      "y": 117,
      "size": 1,
      "price": "4683000000000000000000",
      "reserved": "",
      "salt": "0x9cb24f86b2da92d69609897dcbf270a8016e2eddd969ab5c4d4de5c97be450a7",
      "assetIds": [
        "55464657044963196816950587289035428064568320970692304673817341489688059316224",
        "55464657044963196816950587289035428064568320970692304673817341489688277422080",
        "55464657044963196816950587289035428064568320970692304673817341489688285808640",
        "55464657044963196816950587289035428064568320970692304673817341489688294197248"
      ]
    },
    {
      "x": 205,
      "y": 118,
      "size": 1,
      "price": "4683000000000000000000",
      "reserved": "",
      "salt": "0xd307c7f7c1d1b22f6f364df8510f3289b871d5bc86d8d7c0182ffc1b06c452cd",
      "assetIds": [
        "55464657044963196816950587289035428064568320970692304673817341489688059316224",
        "55464657044963196816950587289035428064568320970692304673817341489688277422080",
        "55464657044963196816950587289035428064568320970692304673817341489688285808640",
        "55464657044963196816950587289035428064568320970692304673817341489688294197248"
      ]
    },
    {
      "x": 205,
      "y": 119,
      "size": 1,
      "price": "4683000000000000000000",
      "reserved": "",
      "salt": "0xb0a25ef6b6275c245a4999966c93f34a39b2d21fdc0ea5b7c3f25bb87332d17e",
      "assetIds": [
        "55464657044963196816950587289035428064568320970692304673817341489688059316224",
        "55464657044963196816950587289035428064568320970692304673817341489688277422080",
        "55464657044963196816950587289035428064568320970692304673817341489688285808640",
        "55464657044963196816950587289035428064568320970692304673817341489688294197248"
      ]
    },
    {
      "x": 206,
      "y": 108,
      "size": 1,
      "price": "4683000000000000000000",
      "reserved": "",
      "salt": "0x2762edee840b01038187fe614098439e29c240f778e610a970c2ef43a8a55eaf",
      "assetIds": [
        "55464657044963196816950587289035428064568320970692304673817341489688059316224",
        "55464657044963196816950587289035428064568320970692304673817341489688277422080",
        "55464657044963196816950587289035428064568320970692304673817341489688285808640",
        "55464657044963196816950587289035428064568320970692304673817341489688294197248"
      ]
    },
    {
      "x": 206,
      "y": 109,
      "size": 1,
      "price": "4683000000000000000000",
      "reserved": "",
      "salt": "0xd08ee685312de6ac85dbe1bb272c72c29035c097e972b6ba2734aceedeff54d9",
      "assetIds": [
        "55464657044963196816950587289035428064568320970692304673817341489688059316224",
        "55464657044963196816950587289035428064568320970692304673817341489688277422080",
        "55464657044963196816950587289035428064568320970692304673817341489688285808640",
        "55464657044963196816950587289035428064568320970692304673817341489688294197248"
      ]
    },
    {
      "x": 206,
      "y": 110,
      "size": 1,
      "price": "1011000000000000000000",
      "reserved": "",
      "salt": "0x12a52c849702473eead718d4efc17f3f606ccf872d1bddea419c805f9ef02139",
      "assetIds": []
    },
    {
      "x": 206,
      "y": 111,
      "size": 1,
      "price": "1011000000000000000000",
      "reserved": "",
      "salt": "0xef4f97ac433834f36d732dd21bf97ef9e4f9c0000c435aad2a5aecac3c67555b",
      "assetIds": []
    },
    {
      "x": 206,
      "y": 112,
      "size": 1,
      "price": "1011000000000000000000",
      "reserved": "",
      "salt": "0xa4efdde22c75f03cdfedcd459f16f7067607f817b61d4197aca8f52fb75ec79a",
      "assetIds": []
    },
    {
      "x": 206,
      "y": 113,
      "size": 1,
      "price": "1011000000000000000000",
      "reserved": "",
      "salt": "0x704771e41f894a7292b7d38e13f18090133556f6ecb05c054b611bd6076e617f",
      "assetIds": []
    },
    {
      "x": 206,
      "y": 114,
      "size": 1,
      "price": "1011000000000000000000",
      "reserved": "",
      "salt": "0x1d3f7f5c8968f62bd68d1f1d51276d2296c838ab70e6fed2370b193226055b28",
      "assetIds": []
    },
    {
      "x": 206,
      "y": 115,
      "size": 1,
      "price": "1011000000000000000000",
      "reserved": "",
      "salt": "0xb34026dd2b04a85febd0764cdb50d1c46571041c98107232fa33dd7bcf021da8",
      "assetIds": []
    },
    {
      "x": 206,
      "y": 116,
      "size": 1,
      "price": "1011000000000000000000",
      "reserved": "",
      "salt": "0x47fba80f0b849606a39c16a3b4516d61501de9deae14b82475803b0d13180cd9",
      "assetIds": []
    },
    {
      "x": 206,
      "y": 117,
      "size": 1,
      "price": "1011000000000000000000",
      "reserved": "",
      "salt": "0xb81c45e9b343795a46a44276e6d05fd4e6a2035dca3ce99f7c1fedfbcdf65269",
      "assetIds": []
    },
    {
      "x": 206,
      "y": 118,
      "size": 1,
      "price": "4683000000000000000000",
      "reserved": "",
      "salt": "0xe3f62798920b6546ceac37d6201c46ed433a7a0968ce3d9906415fb7f59665a5",
      "assetIds": [
        "55464657044963196816950587289035428064568320970692304673817341489688059316224",
        "55464657044963196816950587289035428064568320970692304673817341489688277422080",
        "55464657044963196816950587289035428064568320970692304673817341489688285808640",
        "55464657044963196816950587289035428064568320970692304673817341489688294197248"
      ]
    },
    {
      "x": 206,
      "y": 119,
      "size": 1,
      "price": "4683000000000000000000",
      "reserved": "",
      "salt": "0x0662b0e9d60da283e5429d85bfab9a24ab5071642e581d7e2ccb29313f71ebaf",
      "assetIds": [
        "55464657044963196816950587289035428064568320970692304673817341489688059316224",
        "55464657044963196816950587289035428064568320970692304673817341489688277422080",
        "55464657044963196816950587289035428064568320970692304673817341489688285808640",
        "55464657044963196816950587289035428064568320970692304673817341489688294197248"
      ]
    },
    {
      "x": 207,
      "y": 108,
      "size": 1,
      "price": "4683000000000000000000",
      "reserved": "",
      "salt": "0xb321d470a24b548d08a26c166233eeae1d3d3fb7703d17aaab6e562333479e43",
      "assetIds": [
        "55464657044963196816950587289035428064568320970692304673817341489688059316224",
        "55464657044963196816950587289035428064568320970692304673817341489688277422080",
        "55464657044963196816950587289035428064568320970692304673817341489688285808640",
        "55464657044963196816950587289035428064568320970692304673817341489688294197248"
      ]
    },
    {
      "x": 207,
      "y": 109,
      "size": 1,
      "price": "4683000000000000000000",
      "reserved": "",
      "salt": "0x7d7e67b1079fba83af1245483e25ffc5015aa620a12b1bdd0dd5b213e0042780",
      "assetIds": [
        "55464657044963196816950587289035428064568320970692304673817341489688059316224",
        "55464657044963196816950587289035428064568320970692304673817341489688277422080",
        "55464657044963196816950587289035428064568320970692304673817341489688285808640",
        "55464657044963196816950587289035428064568320970692304673817341489688294197248"
      ]
    },
    {
      "x": 207,
      "y": 110,
      "size": 1,
      "price": "1011000000000000000000",
      "reserved": "",
      "salt": "0xb120c6e6343a3320815076cd2bdaf0dd2cdf5f36166c7122783f27337a7de277",
      "assetIds": []
    },
    {
      "x": 207,
      "y": 111,
      "size": 1,
      "price": "1011000000000000000000",
      "reserved": "",
      "salt": "0x7f542c9f07a960468acb1af6118d4893b4b1dd8483a0d7068f23a647dddb1227",
      "assetIds": []
    },
    {
      "x": 207,
      "y": 112,
      "size": 1,
      "price": "1011000000000000000000",
      "reserved": "",
      "salt": "0xcebc62be4f2f94bf0bd29c079369b7477e18224d5a7cc88606d2d36f006d32cd",
      "assetIds": []
    },
    {
      "x": 207,
      "y": 113,
      "size": 1,
      "price": "1011000000000000000000",
      "reserved": "",
      "salt": "0xb694cf99dfd087b4f598ee4f15af400fb7ac04295eae76201916bba085045765",
      "assetIds": []
    },
    {
      "x": 207,
      "y": 114,
      "size": 1,
      "price": "1011000000000000000000",
      "reserved": "",
      "salt": "0xa1a89e8fce5a65640dde8bcfcfdcfa3de8745bc709c26e3ccea8d5034abfd7e8",
      "assetIds": []
    },
    {
      "x": 207,
      "y": 115,
      "size": 1,
      "price": "1011000000000000000000",
      "reserved": "",
      "salt": "0xa42edf8f038ac1ad961799532dfcc507913bd3db8ead17363e12f2505d106489",
      "assetIds": []
    },
    {
      "x": 207,
      "y": 116,
      "size": 1,
      "price": "1011000000000000000000",
      "reserved": "",
      "salt": "0x235be99489f49606955fa10bff8ea298caf8abc4c63d497d6d6b688cbb4d5705",
      "assetIds": []
    },
    {
      "x": 208,
      "y": 108,
      "size": 1,
      "price": "4683000000000000000000",
      "reserved": "",
      "salt": "0x4dfc5a49cdd373c20d613da940ce36877042d30362be39fc2db29548d02f44b5",
      "assetIds": [
        "55464657044963196816950587289035428064568320970692304673817341489688059316224",
        "55464657044963196816950587289035428064568320970692304673817341489688277422080",
        "55464657044963196816950587289035428064568320970692304673817341489688285808640",
        "55464657044963196816950587289035428064568320970692304673817341489688294197248"
      ]
    },
    {
      "x": 208,
      "y": 109,
      "size": 1,
      "price": "4683000000000000000000",
      "reserved": "",
      "salt": "0x6dc137cd4904f4e67a322d8eef386ee1a3bc5b263c7bd835e6da63a3deab6979",
      "assetIds": [
        "55464657044963196816950587289035428064568320970692304673817341489688059316224",
        "55464657044963196816950587289035428064568320970692304673817341489688277422080",
        "55464657044963196816950587289035428064568320970692304673817341489688285808640",
        "55464657044963196816950587289035428064568320970692304673817341489688294197248"
      ]
    },
    {
      "x": 208,
      "y": 110,
      "size": 1,
      "price": "1011000000000000000000",
      "reserved": "",
      "salt": "0x92c3ab2da6b2b9b8603218a8e0d02fa9fa1ccec5b9737738f11dc8248bddeade",
      "assetIds": []
    },
    {
      "x": 208,
      "y": 111,
      "size": 1,
      "price": "1011000000000000000000",
      "reserved": "",
      "salt": "0xd4ed295f8c8e3699de5587fdcfc57744b20d67e9308dd6ed6dd618e999a0930e",
      "assetIds": []
    },
    {
      "x": 208,
      "y": 112,
      "size": 1,
      "price": "1011000000000000000000",
      "reserved": "",
      "salt": "0x1ba923d8f52960c6a3b8dc63b21ca98fc3ee3bb973e804e972b35344597e104a",
      "assetIds": []
    },
    {
      "x": 208,
      "y": 113,
      "size": 1,
      "price": "1011000000000000000000",
      "reserved": "",
      "salt": "0x65bd7d30af2d29c182df0559c4e8b540c56b60d524a4b6ffad6d86412b8627a9",
      "assetIds": []
    },
    {
      "x": 208,
      "y": 114,
      "size": 1,
      "price": "1011000000000000000000",
      "reserved": "",
      "salt": "0xcca9088008dbadc8560e3164ff696dbbea6a33bfafcbacc7d0aab8247bf98b97",
      "assetIds": []
    },
    {
      "x": 208,
      "y": 115,
      "size": 1,
      "price": "1011000000000000000000",
      "reserved": "",
      "salt": "0x22fdbb0d478b2fff3431c2afd54816003707f295cdc6505c85c2ee2669069e37",
      "assetIds": []
    },
    {
      "x": 208,
      "y": 116,
      "size": 1,
      "price": "1011000000000000000000",
      "reserved": "",
      "salt": "0xebc375b59f979d244dac35e8a110cc778ba744c6a9cd965afcbdc873753d135d",
      "assetIds": []
    },
    {
      "x": 209,
      "y": 108,
      "size": 1,
      "price": "4683000000000000000000",
      "reserved": "",
      "salt": "0x34ae37358ef3f425e692701144241d33a8aacdd193214ef258d111b28c377567",
      "assetIds": [
        "55464657044963196816950587289035428064568320970692304673817341489688059316224",
        "55464657044963196816950587289035428064568320970692304673817341489688277422080",
        "55464657044963196816950587289035428064568320970692304673817341489688285808640",
        "55464657044963196816950587289035428064568320970692304673817341489688294197248"
      ]
    },
    {
      "x": 209,
      "y": 109,
      "size": 1,
      "price": "4683000000000000000000",
      "reserved": "",
      "salt": "0x49d869851a2cfc15177b61dedbab3e1a892de0b1dd036a1b42bf4f285b4a0a17",
      "assetIds": [
        "55464657044963196816950587289035428064568320970692304673817341489688059316224",
        "55464657044963196816950587289035428064568320970692304673817341489688277422080",
        "55464657044963196816950587289035428064568320970692304673817341489688285808640",
        "55464657044963196816950587289035428064568320970692304673817341489688294197248"
      ]
    },
    {
      "x": 209,
      "y": 110,
      "size": 1,
      "price": "1011000000000000000000",
      "reserved": "",
      "salt": "0x522e2a79d867e2dfc9e9dd4876507204c3177e886daba7390ce4b93f4440f804",
      "assetIds": []
    },
    {
      "x": 209,
      "y": 111,
      "size": 1,
      "price": "1011000000000000000000",
      "reserved": "",
      "salt": "0x3d76aeb9715466f938c2d9f6f0a8cd71c66c32c1179c3ad29582b8fb0d83e4a0",
      "assetIds": []
    },
    {
      "x": 209,
      "y": 112,
      "size": 1,
      "price": "1011000000000000000000",
      "reserved": "",
      "salt": "0x5b16701ad3e1a38173c2fa4afb642578e1d9b9ab68328f03e21b00ec7681f446",
      "assetIds": []
    },
    {
      "x": 209,
      "y": 113,
      "size": 1,
      "price": "1011000000000000000000",
      "reserved": "",
      "salt": "0xb80e8e717702c43a19e2d19544dc3eebffd347c0ae06d2e07ac440856fb55718",
      "assetIds": []
    },
    {
      "x": 209,
      "y": 114,
      "size": 1,
      "price": "1011000000000000000000",
      "reserved": "",
      "salt": "0xdd2f66b252cb672d7a5ae54b463a8cb09a96b2274e40a0c3bf0659447c02c8f6",
      "assetIds": []
    },
    {
      "x": 209,
      "y": 115,
      "size": 1,
      "price": "1011000000000000000000",
      "reserved": "",
      "salt": "0xac520be42de18377c057371e065ef8d3b8fbbf0bea4a7f403c00823ddb2751d6",
      "assetIds": []
    },
    {
      "x": 209,
      "y": 116,
      "size": 1,
      "price": "1011000000000000000000",
      "reserved": "",
      "salt": "0x21aadea76cde36bd7888abbdea73e259bf80694733071296fd56b59061129dce",
      "assetIds": []
    },
    {
      "x": 210,
      "y": 102,
      "size": 1,
      "price": "4683000000000000000000",
      "reserved": "",
      "salt": "0xc12932463ac5409ef841ab2e4bec82deff28e6c0497f714bbad7a8eb79b0e02a",
      "assetIds": [
        "55464657044963196816950587289035428064568320970692304673817341489688059316224",
        "55464657044963196816950587289035428064568320970692304673817341489688277422080",
        "55464657044963196816950587289035428064568320970692304673817341489688285808640",
        "55464657044963196816950587289035428064568320970692304673817341489688294197248"
      ]
    },
    {
      "x": 210,
      "y": 103,
      "size": 1,
      "price": "4683000000000000000000",
      "reserved": "",
      "salt": "0xb22b611a1d638bf870af14925b011cf7a4e38370ef12c2342a709492e7709b79",
      "assetIds": [
        "55464657044963196816950587289035428064568320970692304673817341489688059316224",
        "55464657044963196816950587289035428064568320970692304673817341489688277422080",
        "55464657044963196816950587289035428064568320970692304673817341489688285808640",
        "55464657044963196816950587289035428064568320970692304673817341489688294197248"
      ]
    },
    {
      "x": 210,
      "y": 104,
      "size": 1,
      "price": "4683000000000000000000",
      "reserved": "",
      "salt": "0xdf6204bfb2e1c61fb0388683be5b05ec291d001505b7a71d5e5d702d0dc9808b",
      "assetIds": [
        "55464657044963196816950587289035428064568320970692304673817341489688059316224",
        "55464657044963196816950587289035428064568320970692304673817341489688277422080",
        "55464657044963196816950587289035428064568320970692304673817341489688285808640",
        "55464657044963196816950587289035428064568320970692304673817341489688294197248"
      ]
    },
    {
      "x": 210,
      "y": 105,
      "size": 1,
      "price": "4683000000000000000000",
      "reserved": "",
      "salt": "0x409bcdfa6601e4b84ed40790c6a4811254a1536045bbcc27b4f72f7ece367d00",
      "assetIds": [
        "55464657044963196816950587289035428064568320970692304673817341489688059316224",
        "55464657044963196816950587289035428064568320970692304673817341489688277422080",
        "55464657044963196816950587289035428064568320970692304673817341489688285808640",
        "55464657044963196816950587289035428064568320970692304673817341489688294197248"
      ]
    },
    {
      "x": 210,
      "y": 106,
      "size": 1,
      "price": "4683000000000000000000",
      "reserved": "",
      "salt": "0xdc90c13f348cb6710d5efce3cfc29be1d7dcfb0a7a545d2b07e4965961c6c135",
      "assetIds": [
        "55464657044963196816950587289035428064568320970692304673817341489688059316224",
        "55464657044963196816950587289035428064568320970692304673817341489688277422080",
        "55464657044963196816950587289035428064568320970692304673817341489688285808640",
        "55464657044963196816950587289035428064568320970692304673817341489688294197248"
      ]
    },
    {
      "x": 210,
      "y": 107,
      "size": 1,
      "price": "4683000000000000000000",
      "reserved": "",
      "salt": "0xcf2b6fdc3270c411950d3d1adbe1d3ef4c2b55217bcea6c0d43b024282593d4a",
      "assetIds": [
        "55464657044963196816950587289035428064568320970692304673817341489688059316224",
        "55464657044963196816950587289035428064568320970692304673817341489688277422080",
        "55464657044963196816950587289035428064568320970692304673817341489688285808640",
        "55464657044963196816950587289035428064568320970692304673817341489688294197248"
      ]
    },
    {
      "x": 210,
      "y": 108,
      "size": 1,
      "price": "4683000000000000000000",
      "reserved": "",
      "salt": "0x38a77ecb526af340c89dafb1b7875a7059f3b4160349518b1acde02176a9a2e8",
      "assetIds": [
        "55464657044963196816950587289035428064568320970692304673817341489688059316224",
        "55464657044963196816950587289035428064568320970692304673817341489688277422080",
        "55464657044963196816950587289035428064568320970692304673817341489688285808640",
        "55464657044963196816950587289035428064568320970692304673817341489688294197248"
      ]
    },
    {
      "x": 210,
      "y": 109,
      "size": 1,
      "price": "4683000000000000000000",
      "reserved": "",
      "salt": "0xc02d0b5b5dd962d7e7c8d732b6e09fd425d0f9282980459e8fd5302a58bce56d",
      "assetIds": [
        "55464657044963196816950587289035428064568320970692304673817341489688059316224",
        "55464657044963196816950587289035428064568320970692304673817341489688277422080",
        "55464657044963196816950587289035428064568320970692304673817341489688285808640",
        "55464657044963196816950587289035428064568320970692304673817341489688294197248"
      ]
    },
    {
      "x": 210,
      "y": 110,
      "size": 1,
      "price": "1011000000000000000000",
      "reserved": "",
      "salt": "0x52938c963fbc4feb016ecf765700e221546c202e2e6bf02ca94e89758cd78b21",
      "assetIds": []
    },
    {
      "x": 210,
      "y": 111,
      "size": 1,
      "price": "1011000000000000000000",
      "reserved": "",
      "salt": "0x31d218c4df237f7c6edd9127933b8cddb97f0170dfaad6f6cf3a3b80cc034eb2",
      "assetIds": []
    },
    {
      "x": 210,
      "y": 112,
      "size": 1,
      "price": "1011000000000000000000",
      "reserved": "",
      "salt": "0x44af6a675ace1a9aff9811f564487569a7fb32239a09e03f2a9285309297f007",
      "assetIds": []
    },
    {
      "x": 210,
      "y": 113,
      "size": 1,
      "price": "1011000000000000000000",
      "reserved": "",
      "salt": "0x6da14a31fb7f4319250c6237f937f8561f82d17117542c287247a2eb61f1b608",
      "assetIds": []
    },
    {
      "x": 210,
      "y": 114,
      "size": 1,
      "price": "1011000000000000000000",
      "reserved": "",
      "salt": "0x8eb2cb7222e82ff7a32efcb1f0111d8616fd2a7f9b884536add789a34a6fc48c",
      "assetIds": []
    },
    {
      "x": 210,
      "y": 115,
      "size": 1,
      "price": "1011000000000000000000",
      "reserved": "",
      "salt": "0x6868069e1aea25c669e47e6226a3148ed61b10974eb841e76bab0b37d29087da",
      "assetIds": []
    },
    {
      "x": 210,
      "y": 116,
      "size": 1,
      "price": "4683000000000000000000",
      "reserved": "",
      "salt": "0x70d93b7b1e3d4c4261223b176960564bf53fc35ae04eafa77cc5ff20980135a8",
      "assetIds": [
        "55464657044963196816950587289035428064568320970692304673817341489688059316224",
        "55464657044963196816950587289035428064568320970692304673817341489688277422080",
        "55464657044963196816950587289035428064568320970692304673817341489688285808640",
        "55464657044963196816950587289035428064568320970692304673817341489688294197248"
      ]
    },
    {
      "x": 211,
      "y": 102,
      "size": 1,
      "price": "4683000000000000000000",
      "reserved": "",
      "salt": "0x57cb08669ee13362a57c2d0e6bfbc54e72a574e271c9b89a21862eb574433c9e",
      "assetIds": [
        "55464657044963196816950587289035428064568320970692304673817341489688059316224",
        "55464657044963196816950587289035428064568320970692304673817341489688277422080",
        "55464657044963196816950587289035428064568320970692304673817341489688285808640",
        "55464657044963196816950587289035428064568320970692304673817341489688294197248"
      ]
    },
    {
      "x": 211,
      "y": 103,
      "size": 1,
      "price": "4683000000000000000000",
      "reserved": "",
      "salt": "0x36da8acd72c06e61acae68fda74250d2f92f998cd62d64d570bf9b34e815c39b",
      "assetIds": [
        "55464657044963196816950587289035428064568320970692304673817341489688059316224",
        "55464657044963196816950587289035428064568320970692304673817341489688277422080",
        "55464657044963196816950587289035428064568320970692304673817341489688285808640",
        "55464657044963196816950587289035428064568320970692304673817341489688294197248"
      ]
    },
    {
      "x": 211,
      "y": 104,
      "size": 1,
      "price": "4683000000000000000000",
      "reserved": "",
      "salt": "0x741b6e453e2d0618751fcfc7f5dc4be0f7b7087fd8659ec19cc68a2e0d7606a9",
      "assetIds": [
        "55464657044963196816950587289035428064568320970692304673817341489688059316224",
        "55464657044963196816950587289035428064568320970692304673817341489688277422080",
        "55464657044963196816950587289035428064568320970692304673817341489688285808640",
        "55464657044963196816950587289035428064568320970692304673817341489688294197248"
      ]
    },
    {
      "x": 211,
      "y": 105,
      "size": 1,
      "price": "4683000000000000000000",
      "reserved": "",
      "salt": "0x0c80371146f1546b9152e7860ad48600115f576877c1574be9aadb6d0d531a24",
      "assetIds": [
        "55464657044963196816950587289035428064568320970692304673817341489688059316224",
        "55464657044963196816950587289035428064568320970692304673817341489688277422080",
        "55464657044963196816950587289035428064568320970692304673817341489688285808640",
        "55464657044963196816950587289035428064568320970692304673817341489688294197248"
      ]
    },
    {
      "x": 211,
      "y": 106,
      "size": 1,
      "price": "4683000000000000000000",
      "reserved": "",
      "salt": "0x4cc596dca5aa5aebca724a36bd1102d2eadc99fa6ee288046a5881fd8d8ef756",
      "assetIds": [
        "55464657044963196816950587289035428064568320970692304673817341489688059316224",
        "55464657044963196816950587289035428064568320970692304673817341489688277422080",
        "55464657044963196816950587289035428064568320970692304673817341489688285808640",
        "55464657044963196816950587289035428064568320970692304673817341489688294197248"
      ]
    },
    {
      "x": 211,
      "y": 107,
      "size": 1,
      "price": "4683000000000000000000",
      "reserved": "",
      "salt": "0xe02df2cd6fa29f7dce3f9f4115a89b05b37e98566eaa393b179505b36aca424b",
      "assetIds": [
        "55464657044963196816950587289035428064568320970692304673817341489688059316224",
        "55464657044963196816950587289035428064568320970692304673817341489688277422080",
        "55464657044963196816950587289035428064568320970692304673817341489688285808640",
        "55464657044963196816950587289035428064568320970692304673817341489688294197248"
      ]
    },
    {
      "x": 211,
      "y": 108,
      "size": 1,
      "price": "4683000000000000000000",
      "reserved": "",
      "salt": "0xaa478130a5ece5857a9621d4d1a94e3bf1a90a9a8d1c04b7d30491fc6b33ff38",
      "assetIds": [
        "55464657044963196816950587289035428064568320970692304673817341489688059316224",
        "55464657044963196816950587289035428064568320970692304673817341489688277422080",
        "55464657044963196816950587289035428064568320970692304673817341489688285808640",
        "55464657044963196816950587289035428064568320970692304673817341489688294197248"
      ]
    },
    {
      "x": 211,
      "y": 109,
      "size": 1,
      "price": "1011000000000000000000",
      "reserved": "",
      "salt": "0x523946d6820fbfd6740005f60d61c00c83c0f19fd696d8224101ffed75a17f0e",
      "assetIds": []
    },
    {
      "x": 211,
      "y": 110,
      "size": 1,
      "price": "1011000000000000000000",
      "reserved": "",
      "salt": "0x045460058aad0784c141dda668cf4503db021a9cf1293dec6d258036641fd9be",
      "assetIds": []
    },
    {
      "x": 211,
      "y": 111,
      "size": 1,
      "price": "1011000000000000000000",
      "reserved": "",
      "salt": "0x015ebfbfaefb376b511e5b8d8fbcc8af5288c4e284ce01231477b4feaef62433",
      "assetIds": []
    },
    {
      "x": 211,
      "y": 112,
      "size": 1,
      "price": "1011000000000000000000",
      "reserved": "",
      "salt": "0xe3a1a99b5ada7dc18226a150e1282b464b796adbcaa8eca5996c69f4fc58fdc5",
      "assetIds": []
    },
    {
      "x": 211,
      "y": 113,
      "size": 1,
      "price": "1011000000000000000000",
      "reserved": "",
      "salt": "0x0d4036ae4e1f2edde6bcdacdbaf69d29d126702d521e5ca85e0f3ed5234ecf1c",
      "assetIds": []
    },
    {
      "x": 211,
      "y": 114,
      "size": 1,
      "price": "1011000000000000000000",
      "reserved": "",
      "salt": "0x99d5111da84fb204e23fcfb3f9dd3f87aa4f5137da9e81cdd143b474773c93d7",
      "assetIds": []
    },
    {
      "x": 211,
      "y": 115,
      "size": 1,
      "price": "1011000000000000000000",
      "reserved": "",
      "salt": "0xdbed5f19fc013375668915aaaec7b08f7470e0216ac5d743d321dd6077680df1",
      "assetIds": []
    },
    {
      "x": 211,
      "y": 116,
      "size": 1,
      "price": "4683000000000000000000",
      "reserved": "",
      "salt": "0x2f9ae026c857d664ecbd514f0400b891d1ce4eb4dd3fdbbd12bb2465f55e24b9",
      "assetIds": [
        "55464657044963196816950587289035428064568320970692304673817341489688059316224",
        "55464657044963196816950587289035428064568320970692304673817341489688277422080",
        "55464657044963196816950587289035428064568320970692304673817341489688285808640",
        "55464657044963196816950587289035428064568320970692304673817341489688294197248"
      ]
    },
    {
      "x": 212,
      "y": 102,
      "size": 1,
      "price": "1011000000000000000000",
      "reserved": "",
      "salt": "0x829dcc659c7085afe0671e7419cbfe4ad635a309288d6a0114a57e0c3b3e9103",
      "assetIds": []
    },
    {
      "x": 212,
      "y": 103,
      "size": 1,
      "price": "1011000000000000000000",
      "reserved": "",
      "salt": "0x3a13968968725d7f56cdc548c4e28ce3c48d56485794b727a9ed1a5c70916b93",
      "assetIds": []
    },
    {
      "x": 212,
      "y": 104,
      "size": 1,
      "price": "1011000000000000000000",
      "reserved": "",
      "salt": "0x2c33762fd4015b3c8cf87176342fd93d51a4974bac3d9bb74e74f5e85fdaec74",
      "assetIds": []
    },
    {
      "x": 212,
      "y": 105,
      "size": 1,
      "price": "1011000000000000000000",
      "reserved": "",
      "salt": "0xdce1e295db319f55c5516b18421ea780eec7005d742f82de351def586703ef55",
      "assetIds": []
    },
    {
      "x": 212,
      "y": 106,
      "size": 1,
      "price": "1011000000000000000000",
      "reserved": "",
      "salt": "0x7239e859cab63a6ecc2ddea8138b55418d2a60959c850d5ae912dc04d0d8b097",
      "assetIds": []
    },
    {
      "x": 212,
      "y": 107,
      "size": 1,
      "price": "1011000000000000000000",
      "reserved": "",
      "salt": "0xd642a942492e098e7c7a5b633096bb1ca925867544bc31f7d8391e2974b2655c",
      "assetIds": []
    },
    {
      "x": 212,
      "y": 108,
      "size": 1,
      "price": "1011000000000000000000",
      "reserved": "",
      "salt": "0xfe1075e6e111ea127a17a6b56bd574052e34b8e5316a12a7c9682fd75924329a",
      "assetIds": []
    },
    {
      "x": 212,
      "y": 109,
      "size": 1,
      "price": "1011000000000000000000",
      "reserved": "",
      "salt": "0xdfc6e604ea397966ce4d7ba663bc4539f1aa4a6f833018b6a74800372a7cfc59",
      "assetIds": []
    },
    {
      "x": 212,
      "y": 110,
      "size": 1,
      "price": "1011000000000000000000",
      "reserved": "",
      "salt": "0x61b9d87d38a20ed72075e5b4446e2350e9d5664469beedb1c15f0bd02d5bf9c8",
      "assetIds": []
    },
    {
      "x": 212,
      "y": 111,
      "size": 1,
      "price": "1011000000000000000000",
      "reserved": "",
      "salt": "0x274fd2b49c2b3a753507f2f5f2adc03b4b6f09198e0de4a80a0cb7dbdef79072",
      "assetIds": []
    },
    {
      "x": 212,
      "y": 112,
      "size": 1,
      "price": "1011000000000000000000",
      "reserved": "",
      "salt": "0x6aa0854f4dc3fce8af7afc82b06676b68c93d844e1c1edeb522d8bb14e564389",
      "assetIds": []
    },
    {
      "x": 212,
      "y": 113,
      "size": 1,
      "price": "1011000000000000000000",
      "reserved": "",
      "salt": "0x37a0ce27172e5f90fb7ebf94eae3dc90f726de92cd2cfa479172e17815f6f189",
      "assetIds": []
    },
    {
      "x": 212,
      "y": 114,
      "size": 1,
      "price": "1011000000000000000000",
      "reserved": "",
      "salt": "0x2f5a0c3ea47b1adb0cdf86bd134b722fc74f237bcd6a61b6c979e71cfa4c0958",
      "assetIds": []
    },
    {
      "x": 212,
      "y": 115,
      "size": 1,
      "price": "1011000000000000000000",
      "reserved": "",
      "salt": "0xf9ddbfc5f04ea3f869f9e8cc557c00ee9b6cb67917259b97921b62937dc351e8",
      "assetIds": []
    },
    {
      "x": 212,
      "y": 116,
      "size": 1,
      "price": "4683000000000000000000",
      "reserved": "",
      "salt": "0x48c5515918c74bf1a90484d9a96b59a30950cbfa340b44f6709a818f1df0d311",
      "assetIds": [
        "55464657044963196816950587289035428064568320970692304673817341489688059316224",
        "55464657044963196816950587289035428064568320970692304673817341489688277422080",
        "55464657044963196816950587289035428064568320970692304673817341489688285808640",
        "55464657044963196816950587289035428064568320970692304673817341489688294197248"
      ]
    },
    {
      "x": 213,
      "y": 102,
      "size": 1,
      "price": "1011000000000000000000",
      "reserved": "",
      "salt": "0x02fd44211c85c73fe96d3f37c58c4d5b8ae67e998b8a25f27bef391fecb6a06f",
      "assetIds": []
    },
    {
      "x": 213,
      "y": 103,
      "size": 1,
      "price": "1011000000000000000000",
      "reserved": "",
      "salt": "0x420fa96b07298b1a0be232c5b10a645402eb90c4c9422cf08703d8a217b26c6a",
      "assetIds": []
    },
    {
      "x": 213,
      "y": 104,
      "size": 1,
      "price": "1011000000000000000000",
      "reserved": "",
      "salt": "0x6bdb71ff8efec9aa49b4858ac63751448cf2bb230c64dd4e25cc4cf013b4a49c",
      "assetIds": []
    },
    {
      "x": 213,
      "y": 105,
      "size": 1,
      "price": "1011000000000000000000",
      "reserved": "",
      "salt": "0xefafd0906400a75900761ca62bb3994737c669d07e9008cc893fbb4bacb8a8a3",
      "assetIds": []
    },
    {
      "x": 213,
      "y": 106,
      "size": 1,
      "price": "1011000000000000000000",
      "reserved": "",
      "salt": "0x4f53593828cbcf71371eab07c9b64641528cd780f15e73c3faacd8d7ac39be02",
      "assetIds": []
    },
    {
      "x": 213,
      "y": 107,
      "size": 1,
      "price": "1011000000000000000000",
      "reserved": "",
      "salt": "0xb7c044c5dbe88a6ffd6e7c74571c238fefaf2270f141482233c232389e1830ea",
      "assetIds": []
    },
    {
      "x": 213,
      "y": 114,
      "size": 1,
      "price": "1011000000000000000000",
      "reserved": "",
      "salt": "0xb9af0a071287172799f1e0f00215f4a1f5beb1fb4c7fcfdfe646a513dfc893bf",
      "assetIds": []
    },
    {
      "x": 213,
      "y": 115,
      "size": 1,
      "price": "1011000000000000000000",
      "reserved": "",
      "salt": "0x073dce0617edb82db25d1f7d9a862be686f234de5509b1199855f92f6b43f08a",
      "assetIds": []
    },
    {
      "x": 213,
      "y": 116,
      "size": 1,
      "price": "1011000000000000000000",
      "reserved": "",
      "salt": "0xdd38447fe0fb115b7cb697e7bd94831f55f6027ae801761f60106530cbded253",
      "assetIds": []
    },
    {
      "x": 213,
      "y": 117,
      "size": 1,
      "price": "4683000000000000000000",
      "reserved": "",
      "salt": "0x6879875e5d072b4fc840f05e8a0f378d8fee0ceac7dd5697a38d1947bc758af1",
      "assetIds": [
        "55464657044963196816950587289035428064568320970692304673817341489688059316224",
        "55464657044963196816950587289035428064568320970692304673817341489688277422080",
        "55464657044963196816950587289035428064568320970692304673817341489688285808640",
        "55464657044963196816950587289035428064568320970692304673817341489688294197248"
      ]
    },
    {
      "x": 213,
      "y": 118,
      "size": 1,
      "price": "4683000000000000000000",
      "reserved": "",
      "salt": "0x039e2d1f565bef9b6d5e30967816a444a93fb38fdf71e24b1c13719eb0b1fa27",
      "assetIds": [
        "55464657044963196816950587289035428064568320970692304673817341489688059316224",
        "55464657044963196816950587289035428064568320970692304673817341489688277422080",
        "55464657044963196816950587289035428064568320970692304673817341489688285808640",
        "55464657044963196816950587289035428064568320970692304673817341489688294197248"
      ]
    },
    {
      "x": 213,
      "y": 119,
      "size": 1,
      "price": "4683000000000000000000",
      "reserved": "",
      "salt": "0x6b51e3eb5bccd0d0d4be146a385933f5c0f58991121898053a5136ea9655d70a",
      "assetIds": [
        "55464657044963196816950587289035428064568320970692304673817341489688059316224",
        "55464657044963196816950587289035428064568320970692304673817341489688277422080",
        "55464657044963196816950587289035428064568320970692304673817341489688285808640",
        "55464657044963196816950587289035428064568320970692304673817341489688294197248"
      ]
    },
    {
      "x": 214,
      "y": 102,
      "size": 1,
      "price": "1011000000000000000000",
      "reserved": "",
      "salt": "0xe64d1daced2f5db602baa895173553f3afbfad6cda65dbff5dc4537077ec7dbb",
      "assetIds": []
    },
    {
      "x": 214,
      "y": 103,
      "size": 1,
      "price": "1011000000000000000000",
      "reserved": "",
      "salt": "0x649e85a9f8dbe27833318a5f52464a7e5473c88e836bbbaa98cdbc5fe0df936a",
      "assetIds": []
    },
    {
      "x": 214,
      "y": 104,
      "size": 1,
      "price": "1011000000000000000000",
      "reserved": "",
      "salt": "0x61c01de759e6bf91b33432264f89725d9dcb4c9330c1ea74fd9f29d54b2db513",
      "assetIds": []
    },
    {
      "x": 214,
      "y": 105,
      "size": 1,
      "price": "1011000000000000000000",
      "reserved": "",
      "salt": "0x59aa8afcfdf27ffb77182ce7ea2ca598bdda6b1869b72cb47b0080570d7c0a24",
      "assetIds": []
    },
    {
      "x": 214,
      "y": 106,
      "size": 1,
      "price": "1011000000000000000000",
      "reserved": "",
      "salt": "0x4786c34a3d0934fe86bec4aa457815bb5546acd50e1b0bf3d22470cf44bc433b",
      "assetIds": []
    },
    {
      "x": 214,
      "y": 107,
      "size": 1,
      "price": "1011000000000000000000",
      "reserved": "",
      "salt": "0x0e300429c8e743b9c1f0c8beaa022f8a8b33c84a9911653fb96210a755052336",
      "assetIds": []
    },
    {
      "x": 214,
      "y": 114,
      "size": 1,
      "price": "1011000000000000000000",
      "reserved": "",
      "salt": "0xb8bafd74b01eb19056551cbb7f85af0680568ee89faa2b191b12a4f549fa86d8",
      "assetIds": []
    },
    {
      "x": 214,
      "y": 115,
      "size": 1,
      "price": "1011000000000000000000",
      "reserved": "",
      "salt": "0x950dd1661d996ee8f3252b9702a35d175e43dfb81fcd8919257f030a2b73156b",
      "assetIds": []
    },
    {
      "x": 214,
      "y": 116,
      "size": 1,
      "price": "1011000000000000000000",
      "reserved": "",
      "salt": "0x73c4ab87f824b90c88aff2d145ce6d17588fee1ead6120ee03b129335d2c1bf5",
      "assetIds": []
    },
    {
      "x": 214,
      "y": 117,
      "size": 1,
      "price": "1011000000000000000000",
      "reserved": "",
      "salt": "0x51eadc7ce0167cb25c34110e8686086328835f4b1add934091ecb3e0426e80f0",
      "assetIds": []
    },
    {
      "x": 214,
      "y": 118,
      "size": 1,
      "price": "4683000000000000000000",
      "reserved": "",
      "salt": "0xeb2bc477b703b996cbcb0a34361912d301941b5142ee9a098ed59b42dc4ce500",
      "assetIds": [
        "55464657044963196816950587289035428064568320970692304673817341489688059316224",
        "55464657044963196816950587289035428064568320970692304673817341489688277422080",
        "55464657044963196816950587289035428064568320970692304673817341489688285808640",
        "55464657044963196816950587289035428064568320970692304673817341489688294197248"
      ]
    },
    {
      "x": 214,
      "y": 119,
      "size": 1,
      "price": "4683000000000000000000",
      "reserved": "",
      "salt": "0x4e34b84dba01e197e41c45dcf314aaf307d750e6d15958b8aec2b9bf57f00c9d",
      "assetIds": [
        "55464657044963196816950587289035428064568320970692304673817341489688059316224",
        "55464657044963196816950587289035428064568320970692304673817341489688277422080",
        "55464657044963196816950587289035428064568320970692304673817341489688285808640",
        "55464657044963196816950587289035428064568320970692304673817341489688294197248"
      ]
    },
    {
      "x": 215,
      "y": 102,
      "size": 1,
      "price": "1011000000000000000000",
      "reserved": "",
      "salt": "0xebd717b2cfe4fbc4c68bb7d612749f61c08fd618ca15cfb2fcf3e81272794306",
      "assetIds": []
    },
    {
      "x": 215,
      "y": 103,
      "size": 1,
      "price": "1011000000000000000000",
      "reserved": "",
      "salt": "0x2a918d0c33294c421021ac24ab5bea333e3fc01fb044afba67d2343d80869566",
      "assetIds": []
    },
    {
      "x": 215,
      "y": 104,
      "size": 1,
      "price": "1011000000000000000000",
      "reserved": "",
      "salt": "0xa2ab56505a2dee6977a65bfcc9999436078b01e51fb295e390f376682d9a3637",
      "assetIds": []
    },
    {
      "x": 215,
      "y": 105,
      "size": 1,
      "price": "1011000000000000000000",
      "reserved": "",
      "salt": "0x5577e6806f211088ca961b8f278ce4008b7433a0745d8b0fdfefb0587c7071a1",
      "assetIds": []
    },
    {
      "x": 215,
      "y": 106,
      "size": 1,
      "price": "1011000000000000000000",
      "reserved": "",
      "salt": "0x2374c6716e8987d1bce1dd846b3340c400be630952f083989bd402c81ee8a445",
      "assetIds": []
    },
    {
      "x": 215,
      "y": 107,
      "size": 1,
      "price": "1011000000000000000000",
      "reserved": "",
      "salt": "0x9eb9d7a2d702a64ebdc436ca3af78d1b61bf56a35fd8a2c3bbe8b59f9cd54418",
      "assetIds": []
    },
    {
      "x": 215,
      "y": 114,
      "size": 1,
      "price": "1011000000000000000000",
      "reserved": "",
      "salt": "0xfd24d45ad7cf21137e156f0943e5ec58fb2de566bb1218022157dc7fa46cf621",
      "assetIds": []
    },
    {
      "x": 215,
      "y": 115,
      "size": 1,
      "price": "1011000000000000000000",
      "reserved": "",
      "salt": "0xe4ace09e14cdce2935355daada9b9e6faaf9e86b877acd69fd917a9fe9fca9ce",
      "assetIds": []
    },
    {
      "x": 215,
      "y": 116,
      "size": 1,
      "price": "1011000000000000000000",
      "reserved": "",
      "salt": "0x51d3f34f106320eaeb230bdaf4e9e703407482948a495995f219b635b84aac54",
      "assetIds": []
    },
    {
      "x": 215,
      "y": 117,
      "size": 1,
      "price": "1011000000000000000000",
      "reserved": "",
      "salt": "0xe786252fdd4b8dde8291e2391007a49d9c833817d537b59e346309e5f992c8f1",
      "assetIds": []
    },
    {
      "x": 215,
      "y": 118,
      "size": 1,
      "price": "4683000000000000000000",
      "reserved": "",
      "salt": "0x68f38c27916c1224326ff6a55e0b542499f647d0f29fffff633cea9a70a7e31c",
      "assetIds": [
        "55464657044963196816950587289035428064568320970692304673817341489688059316224",
        "55464657044963196816950587289035428064568320970692304673817341489688277422080",
        "55464657044963196816950587289035428064568320970692304673817341489688285808640",
        "55464657044963196816950587289035428064568320970692304673817341489688294197248"
      ]
    },
    {
      "x": 215,
      "y": 119,
      "size": 1,
      "price": "4683000000000000000000",
      "reserved": "",
      "salt": "0x4a27d279c75129e63b7ba04645c727023b32d1a19481205bda466c29088c84c6",
      "assetIds": [
        "55464657044963196816950587289035428064568320970692304673817341489688059316224",
        "55464657044963196816950587289035428064568320970692304673817341489688277422080",
        "55464657044963196816950587289035428064568320970692304673817341489688285808640",
        "55464657044963196816950587289035428064568320970692304673817341489688294197248"
      ]
    },
    {
      "x": 216,
      "y": 117,
      "size": 1,
      "price": "1011000000000000000000",
      "reserved": "",
      "salt": "0x685aafc276be9c381ad5f31bbdbc5c8bb1cfb133f265314c6e3ad4a82e25770a",
      "assetIds": []
    },
    {
      "x": 216,
      "y": 118,
      "size": 1,
      "price": "4683000000000000000000",
      "reserved": "",
      "salt": "0xbbb9b14a1b5dc7a148c0093d2803382750342df6eff6731e955b3caa543f2e16",
      "assetIds": [
        "55464657044963196816950587289035428064568320970692304673817341489688059316224",
        "55464657044963196816950587289035428064568320970692304673817341489688277422080",
        "55464657044963196816950587289035428064568320970692304673817341489688285808640",
        "55464657044963196816950587289035428064568320970692304673817341489688294197248"
      ]
    },
    {
      "x": 216,
      "y": 119,
      "size": 1,
      "price": "4683000000000000000000",
      "reserved": "",
      "salt": "0x2e90861aaca6e2ad8e7fd36caf7aae48a47d98ffea789778b8d9dbfd734653d6",
      "assetIds": [
        "55464657044963196816950587289035428064568320970692304673817341489688059316224",
        "55464657044963196816950587289035428064568320970692304673817341489688277422080",
        "55464657044963196816950587289035428064568320970692304673817341489688285808640",
        "55464657044963196816950587289035428064568320970692304673817341489688294197248"
      ]
    },
    {
      "x": 216,
      "y": 126,
      "size": 1,
      "price": "4683000000000000000000",
      "reserved": "",
      "salt": "0x1f9220dde2d3b4e6400743ea0d22f8e833dfde9d98e97edacd54ea61b4d56631",
      "assetIds": [
        "55464657044963196816950587289035428064568320970692304673817341489688059316224",
        "55464657044963196816950587289035428064568320970692304673817341489688277422080",
        "55464657044963196816950587289035428064568320970692304673817341489688285808640",
        "55464657044963196816950587289035428064568320970692304673817341489688294197248"
      ]
    },
    {
      "x": 216,
      "y": 127,
      "size": 1,
      "price": "4683000000000000000000",
      "reserved": "",
      "salt": "0xa91620cca55bf29edbf814bd92c3764c7ed58e73e659d3709249bd24f898ebc4",
      "assetIds": [
        "55464657044963196816950587289035428064568320970692304673817341489688059316224",
        "55464657044963196816950587289035428064568320970692304673817341489688277422080",
        "55464657044963196816950587289035428064568320970692304673817341489688285808640",
        "55464657044963196816950587289035428064568320970692304673817341489688294197248"
      ]
    },
    {
      "x": 216,
      "y": 128,
      "size": 1,
      "price": "4683000000000000000000",
      "reserved": "",
      "salt": "0x6ca4982ed1375bbd0b5c30998ed6830b3bf48d220de7938d99edf1d73dcdb1e7",
      "assetIds": [
        "55464657044963196816950587289035428064568320970692304673817341489688059316224",
        "55464657044963196816950587289035428064568320970692304673817341489688277422080",
        "55464657044963196816950587289035428064568320970692304673817341489688285808640",
        "55464657044963196816950587289035428064568320970692304673817341489688294197248"
      ]
    },
    {
      "x": 217,
      "y": 117,
      "size": 1,
      "price": "1011000000000000000000",
      "reserved": "",
      "salt": "0xaea2d53c72a9ca2fe73c2069f11011f9c705887f44749aa3ea4019a59a328508",
      "assetIds": []
    },
    {
      "x": 217,
      "y": 118,
      "size": 1,
      "price": "1011000000000000000000",
      "reserved": "",
      "salt": "0x491f64e2056197efa63b09dbc651b3c156e1933bda0a8fff877e9254821664fb",
      "assetIds": []
    },
    {
      "x": 217,
      "y": 119,
      "size": 1,
      "price": "4683000000000000000000",
      "reserved": "",
      "salt": "0x5dcaf02cf1f068ecafabab3457adf602c7ec4c01c923913fbc12d56a9a83f36d",
      "assetIds": [
        "55464657044963196816950587289035428064568320970692304673817341489688059316224",
        "55464657044963196816950587289035428064568320970692304673817341489688277422080",
        "55464657044963196816950587289035428064568320970692304673817341489688285808640",
        "55464657044963196816950587289035428064568320970692304673817341489688294197248"
      ]
    },
    {
      "x": 217,
      "y": 126,
      "size": 1,
      "price": "4683000000000000000000",
      "reserved": "",
      "salt": "0x044126227ff80166e4536bdd8a42f9eced9d1855c9dbe0469a4f6cca565c5323",
      "assetIds": [
        "55464657044963196816950587289035428064568320970692304673817341489688059316224",
        "55464657044963196816950587289035428064568320970692304673817341489688277422080",
        "55464657044963196816950587289035428064568320970692304673817341489688285808640",
        "55464657044963196816950587289035428064568320970692304673817341489688294197248"
      ]
    },
    {
      "x": 217,
      "y": 127,
      "size": 1,
      "price": "4683000000000000000000",
      "reserved": "",
      "salt": "0xe8512ad6efa1f489be26a913b9ae767e07c142b48f68a543936d6862d5864b94",
      "assetIds": [
        "55464657044963196816950587289035428064568320970692304673817341489688059316224",
        "55464657044963196816950587289035428064568320970692304673817341489688277422080",
        "55464657044963196816950587289035428064568320970692304673817341489688285808640",
        "55464657044963196816950587289035428064568320970692304673817341489688294197248"
      ]
    },
    {
      "x": 217,
      "y": 128,
      "size": 1,
      "price": "4683000000000000000000",
      "reserved": "",
      "salt": "0xfe25c92702638b8778bb6e7d49e20f028cf44740fcb0766700799aa4ae38ea3b",
      "assetIds": [
        "55464657044963196816950587289035428064568320970692304673817341489688059316224",
        "55464657044963196816950587289035428064568320970692304673817341489688277422080",
        "55464657044963196816950587289035428064568320970692304673817341489688285808640",
        "55464657044963196816950587289035428064568320970692304673817341489688294197248"
      ]
    },
    {
      "x": 218,
      "y": 117,
      "size": 1,
      "price": "1011000000000000000000",
      "reserved": "",
      "salt": "0x31e40f300b821297f48c7a8bd597afc6da9b793117994937159be1b488f40710",
      "assetIds": []
    },
    {
      "x": 218,
      "y": 118,
      "size": 1,
      "price": "1011000000000000000000",
      "reserved": "",
      "salt": "0x085ec0b7a7286ea6b7cf9c2bb0e3675653d28a489ef7d4718c279a9b241c73b9",
      "assetIds": []
    },
    {
      "x": 218,
      "y": 119,
      "size": 1,
      "price": "4683000000000000000000",
      "reserved": "",
      "salt": "0xec8f744404737e3a19836bf0d6bfa72caa1566dfee032eb34775fc14d7d45772",
      "assetIds": [
        "55464657044963196816950587289035428064568320970692304673817341489688059316224",
        "55464657044963196816950587289035428064568320970692304673817341489688277422080",
        "55464657044963196816950587289035428064568320970692304673817341489688285808640",
        "55464657044963196816950587289035428064568320970692304673817341489688294197248"
      ]
    },
    {
      "x": 218,
      "y": 126,
      "size": 1,
      "price": "1011000000000000000000",
      "reserved": "",
      "salt": "0x85798fb24666802a7aac2d826ed72d78f0807d24dd737063ad8b0494a1da9764",
      "assetIds": []
    },
    {
      "x": 218,
      "y": 127,
      "size": 1,
      "price": "1011000000000000000000",
      "reserved": "",
      "salt": "0x2c5b90ef1e3868a1844773cda0cb1b3622a50dce9ac69f5360dcd4d0b2f2435f",
      "assetIds": []
    },
    {
      "x": 218,
      "y": 128,
      "size": 1,
      "price": "1011000000000000000000",
      "reserved": "",
      "salt": "0x5bbef4e5fbb2ac39361cacd8d2e66431b1246555e29d17d40b765ad75c2e4fc8",
      "assetIds": []
    },
    {
      "x": 219,
      "y": 120,
      "size": 1,
      "price": "4683000000000000000000",
      "reserved": "",
      "salt": "0xc63b66652af600ba7444f38a3804e73f69b46ff462b3b337370e11f0ef1146d9",
      "assetIds": [
        "55464657044963196816950587289035428064568320970692304673817341489688059316224",
        "55464657044963196816950587289035428064568320970692304673817341489688277422080",
        "55464657044963196816950587289035428064568320970692304673817341489688285808640",
        "55464657044963196816950587289035428064568320970692304673817341489688294197248"
      ]
    },
    {
      "x": 219,
      "y": 121,
      "size": 1,
      "price": "4683000000000000000000",
      "reserved": "",
      "salt": "0x2222b034b877f122b3a8073d5fdd003df6b52256f8bff134f676942eb7e84791",
      "assetIds": [
        "55464657044963196816950587289035428064568320970692304673817341489688059316224",
        "55464657044963196816950587289035428064568320970692304673817341489688277422080",
        "55464657044963196816950587289035428064568320970692304673817341489688285808640",
        "55464657044963196816950587289035428064568320970692304673817341489688294197248"
      ]
    },
    {
      "x": 219,
      "y": 122,
      "size": 1,
      "price": "4683000000000000000000",
      "reserved": "",
      "salt": "0x09dae7946754c2d62b54111d09f1a08304f092c0000ceb10ea13546ecc26163a",
      "assetIds": [
        "55464657044963196816950587289035428064568320970692304673817341489688059316224",
        "55464657044963196816950587289035428064568320970692304673817341489688277422080",
        "55464657044963196816950587289035428064568320970692304673817341489688285808640",
        "55464657044963196816950587289035428064568320970692304673817341489688294197248"
      ]
    },
    {
      "x": 219,
      "y": 123,
      "size": 1,
      "price": "1011000000000000000000",
      "reserved": "",
      "salt": "0x0e4311277a1bead43a1d788c7b984e73eec8455fc06ac40938fcc28db690265f",
      "assetIds": []
    },
    {
      "x": 219,
      "y": 124,
      "size": 1,
      "price": "1011000000000000000000",
      "reserved": "",
      "salt": "0x50ef5a768582bd6ea5e9c52defcef9bfaccdbbfea811445e056ea12ec685d120",
      "assetIds": []
    },
    {
      "x": 219,
      "y": 125,
      "size": 1,
      "price": "1011000000000000000000",
      "reserved": "",
      "salt": "0xde7aa226b149946c46fcce5fdedbddb2719f36cdb198902a1ac25cfb480e0883",
      "assetIds": []
    },
    {
      "x": 220,
      "y": 120,
      "size": 1,
      "price": "1011000000000000000000",
      "reserved": "",
      "salt": "0xbc241589e4b9daf14682365a7a2106f73b1d8222ccafcfeb46d853b83bb581c3",
      "assetIds": []
    },
    {
      "x": 220,
      "y": 121,
      "size": 1,
      "price": "1011000000000000000000",
      "reserved": "",
      "salt": "0x27fd118b3ac40433011eba0eb4ac33fa0f5faa8d80cbb5a6c859c435940f7ac6",
      "assetIds": []
    },
    {
      "x": 220,
      "y": 122,
      "size": 1,
      "price": "1011000000000000000000",
      "reserved": "",
      "salt": "0x397194edad1c0adc43e9367eb1dac3f39e2edb6e12c2e13df6c5691ece4cf3cb",
      "assetIds": []
    },
    {
      "x": 220,
      "y": 123,
      "size": 1,
      "price": "1011000000000000000000",
      "reserved": "",
      "salt": "0xe71bdcf7bda925056c05623b94913cbe427fe90005718407333bd9ecfdf6c527",
      "assetIds": []
    },
    {
      "x": 220,
      "y": 124,
      "size": 1,
      "price": "1011000000000000000000",
      "reserved": "",
      "salt": "0x8b1e7f9e209df220cfc6853ffae9539a958cefdf1c9c968aaf38ee2cf52a0119",
      "assetIds": []
    },
    {
      "x": 220,
      "y": 125,
      "size": 1,
      "price": "1011000000000000000000",
      "reserved": "",
      "salt": "0x538cd70137ac37bea5a5b770d84d74b95c3b510280364340056889d4bd92bb6d",
      "assetIds": []
    },
    {
      "x": 221,
      "y": 120,
      "size": 1,
      "price": "1011000000000000000000",
      "reserved": "",
      "salt": "0x3043fb511bd7a13d129d243c6c988046db0ef720d1af9307e280ad1a3a3b58b9",
      "assetIds": []
    },
    {
      "x": 221,
      "y": 121,
      "size": 1,
      "price": "1011000000000000000000",
      "reserved": "",
      "salt": "0x08edbab177a0012ce4722cb514234385f008707686d901ffb78ae8c6d0f64ee0",
      "assetIds": []
    },
    {
      "x": 221,
      "y": 122,
      "size": 1,
      "price": "1011000000000000000000",
      "reserved": "",
      "salt": "0x690dc7ae6daf4de06c390d563ab776d6f3a0b770145ea81f89042ad36c68acbc",
      "assetIds": []
    },
    {
      "x": 221,
      "y": 123,
      "size": 1,
      "price": "1011000000000000000000",
      "reserved": "",
      "salt": "0xcc18dac01951a2d4a42ba1e325eecd1c28a76b8745a6ab4a6a80171ab9cf50e8",
      "assetIds": []
    },
    {
      "x": 221,
      "y": 124,
      "size": 1,
      "price": "1011000000000000000000",
      "reserved": "",
      "salt": "0x156d7bb0b9ee3ff7e09d1b3cdebb2e7eb2c9eca5f29f863f0e260134b3ce6980",
      "assetIds": []
    },
    {
      "x": 221,
      "y": 125,
      "size": 1,
      "price": "1011000000000000000000",
      "reserved": "",
      "salt": "0xe774a8c05b275542be96b4d2fdb7a7e752adfec14ce0c27b12510e7917eb5e23",
      "assetIds": []
    },
    {
      "x": 222,
      "y": 123,
      "size": 1,
      "price": "1011000000000000000000",
      "reserved": "",
      "salt": "0x886af65afcf33379d44af452c9e86dac6ce1331abba70ab1cd9fefcd2357cbf4",
      "assetIds": []
    },
    {
      "x": 222,
      "y": 124,
      "size": 1,
      "price": "1011000000000000000000",
      "reserved": "",
      "salt": "0xff74f78bd3e38cc12a2231730a9fb94d546d09b675b370a3e841e3d6e7241c72",
      "assetIds": []
    },
    {
      "x": 222,
      "y": 125,
      "size": 1,
      "price": "1011000000000000000000",
      "reserved": "",
      "salt": "0x29e271bb712a3fcbd858753801b44833611b6e3e67d3383d6777b663c06ba8d6",
      "assetIds": []
    },
    {
      "x": 223,
      "y": 123,
      "size": 1,
      "price": "1011000000000000000000",
      "reserved": "",
      "salt": "0x04f9e542ce846d4c5aa817793b24611a82272f59d4263ef9356ee8b3ef1c0d8e",
      "assetIds": []
    },
    {
      "x": 223,
      "y": 124,
      "size": 1,
      "price": "1011000000000000000000",
      "reserved": "",
      "salt": "0x3c0a565d604230fdc8f7df756d10f657b7f0aead0d8ebb91981a1adafb1b8330",
      "assetIds": []
    },
    {
      "x": 223,
      "y": 125,
      "size": 1,
      "price": "1011000000000000000000",
      "reserved": "",
      "salt": "0x7976fd3c92b885b9f144241eec7e9bcf28c197c047927f2d8857081577a2abc5",
      "assetIds": []
    },
    {
      "x": 224,
      "y": 123,
      "size": 1,
      "price": "1011000000000000000000",
      "reserved": "",
      "salt": "0x931eb90b7385b04aa66b89612f8513a93afb35e2560111a27d933ac7e8469c43",
      "assetIds": []
    },
    {
      "x": 224,
      "y": 124,
      "size": 1,
      "price": "1011000000000000000000",
      "reserved": "",
      "salt": "0xc483db130981e1341999b378f5cc24d0f68e4554632dc54153abafa20cc45b18",
      "assetIds": []
    },
    {
      "x": 224,
      "y": 125,
      "size": 1,
      "price": "1011000000000000000000",
      "reserved": "",
      "salt": "0x40ce5398faa3c1b06587a695f2b8f9087be675fa0a72087e36e8695eb6c9f681",
      "assetIds": []
    },
    {
      "x": 207,
      "y": 117,
      "size": 3,
      "price": "8648000000000000000000",
      "reserved": "0x7a9fe22691c811ea339d9b73150e6911a5343dca",
      "salt": "0x1e886bd912497e2c55383ac2338fb14df7e79b8565c8465477841792bcd6fb55",
      "assetIds": []
    },
    {
      "x": 210,
      "y": 117,
      "size": 3,
      "price": "8648000000000000000000",
      "reserved": "0x7a9fe22691c811ea339d9b73150e6911a5343dca",
      "salt": "0x7f87fa68ba30f1f166bf07ed5ee21a0b3cf8b40479f7c3118f6616e3684fef35",
      "assetIds": []
    },
    {
      "x": 216,
      "y": 120,
      "size": 3,
      "price": "8648000000000000000000",
      "reserved": "0x7a9fe22691c811ea339d9b73150e6911a5343dca",
      "salt": "0x29b723c3042af49d1f07135f604e9df5456ec99688aeb8a227ac86e01eb9bf4e",
      "assetIds": []
    },
    {
      "x": 216,
      "y": 123,
      "size": 3,
      "price": "8648000000000000000000",
      "reserved": "0x7a9fe22691c811ea339d9b73150e6911a5343dca",
      "salt": "0xab1d1690c9faabe1f09528933268493496eb70c1913ce08d1948a50b55961519",
      "assetIds": []
    },
    {
      "x": 216,
      "y": 129,
      "size": 3,
      "price": "8648000000000000000000",
      "reserved": "0x7a9fe22691c811ea339d9b73150e6911a5343dca",
      "salt": "0x7c3d7e438850277ea17914d5b29fe37e64b75774ff3fe479ff62f526025d4f1a",
      "assetIds": []
    },
    {
      "x": 204,
      "y": 102,
      "size": 6,
      "price": "32772000000000000000000",
      "reserved": "0x7a9fe22691c811ea339d9b73150e6911a5343dca",
      "salt": "0x26ae921222dbbe1e696d4840e3735c7fb7aa0075354e933b447f2be8a94df40d",
      "assetIds": []
    },
    {
      "x": 204,
      "y": 120,
      "size": 12,
      "price": "123806000000000000000000",
      "reserved": "0x7a9fe22691c811ea339d9b73150e6911a5343dca",
      "salt": "0x967d1f7e73482f7ee347a87288245d4f68a537132038b9aa5fd299d9dd544abe",
      "assetIds": []
    }
  ],
  "solcInputHash": "e17a5bb930c92aaeeb80a52119ce77b7",
  "bytecode": "0x610160604052620d2f0060055534801561001857600080fd5b506040516200284d3803806200284d83398181016040526101a081101561003e57600080fd5b50805160208201516040830151606080850151608086015160a08088015160c0808a015160e08b01516101008c01516101208d01516101408e01516101608f0151610180909f0151600280546001600160a01b0319166001600160a01b03871617905560038490558e8c1b6001600160601b03199081169099529a8d901b9097169094529a9b999a98999698959793969195909490939091906100e28b600161015d565b600680546001600160a01b039a8b166001600160a01b031991821617909155610140989098526101209690965260008054998916998816999099179098556001600160601b0319606092831b811660e05290821b811660805296901b909516610100525060078054919093169116179055506101c192505050565b6001600160a01b038216600081815260016020908152604091829020805460ff191685151590811790915582519384529083015280517fb21eb88b4e33b3f1281830a7178d74d8aa73220416215726b68ae23d539515cb9281900390910190a15050565b60805160601c60a05160601c60c05160601c60e05160601c6101005160601c61012051610140516126066200024760003980610b3d528061206c525080610b1952806112ec5250806120da525080611841528061199e5250806117f75280611b9d528061210e525080611872528061196f525080610eb25280611c8952506126066000f3fe608060405234801561001057600080fd5b506004361061011b5760003560e01c80638f283970116100b2578063c10a420811610081578063dc5074af11610066578063dc5074af1461085f578063e56f8a9e14610885578063f23a6e61146108a25761011b565b8063c10a420814610780578063caed3500146108575761011b565b80638f28397014610500578063984d625214610526578063b522ecff146105f8578063bc197c811461061e5761011b565b806365194ce7116100ee57806365194ce7146103485780636e9960c3146104a657806377f1c3ac146104ca5780638a04af6a146104d25761011b565b80631187fd3c1461012057806325cb5bc014610300578063495906571461031a57806358bc294414610322575b600080fd5b6102fe600480360361012081101561013757600080fd5b6001600160a01b038235811692602081013582169260408201359092169181019060808101606082013564010000000081111561017357600080fd5b82018360208201111561018557600080fd5b803590602001918460208302840111640100000000831117156101a757600080fd5b919390928235926040810190602001356401000000008111156101c957600080fd5b8201836020820111156101db57600080fd5b803590602001918460208302840111640100000000831117156101fd57600080fd5b91939092909160208101903564010000000081111561021b57600080fd5b82018360208201111561022d57600080fd5b8035906020019184602083028401116401000000008311171561024f57600080fd5b91939092909160208101903564010000000081111561026d57600080fd5b82018360208201111561027f57600080fd5b803590602001918460018302840111640100000000831117156102a157600080fd5b9193909290916020810190356401000000008111156102bf57600080fd5b8201836020820111156102d157600080fd5b803590602001918460018302840111640100000000831117156102f357600080fd5b509092509050610937565b005b610308610b17565b60408051918252519081900360200190f35b610308610b3b565b6102fe6004803603602081101561033857600080fd5b50356001600160a01b0316610b5f565b6103ee6004803603602081101561035e57600080fd5b81019060208101813564010000000081111561037957600080fd5b82018360208201111561038b57600080fd5b803590602001918460018302840111640100000000831117156103ad57600080fd5b91908080601f016020809104026020016040519081016040528093929190818152602001838380828437600092019190915250929550610c0a945050505050565b6040518080602001866001600160a01b03166001600160a01b03168152602001856001600160a01b03166001600160a01b03168152602001848152602001838152602001828103825287818151815260200191508051906020019080838360005b8381101561046757818101518382015260200161044f565b50505050905090810190601f1680156104945780820380516001836020036101000a031916815260200191505b50965050505050505060405180910390f35b6104ae610d0f565b604080516001600160a01b039092168252519081900360200190f35b610308610d1e565b6102fe600480360360408110156104e857600080fd5b506001600160a01b0381351690602001351515610d24565b6102fe6004803603602081101561051657600080fd5b50356001600160a01b0316610d7b565b6102fe6004803603606081101561053c57600080fd5b6001600160a01b03823516919081019060408101602082013564010000000081111561056757600080fd5b82018360208201111561057957600080fd5b8035906020019184602083028401116401000000008311171561059b57600080fd5b9193909290916020810190356401000000008111156105b957600080fd5b8201836020820111156105cb57600080fd5b803590602001918460208302840111640100000000831117156105ed57600080fd5b509092509050610e51565b6102fe6004803603602081101561060e57600080fd5b50356001600160a01b0316610fdc565b61074b600480360360a081101561063457600080fd5b6001600160a01b03823581169260208101359091169181019060608101604082013564010000000081111561066857600080fd5b82018360208201111561067a57600080fd5b8035906020019184602083028401116401000000008311171561069c57600080fd5b9193909290916020810190356401000000008111156106ba57600080fd5b8201836020820111156106cc57600080fd5b803590602001918460208302840111640100000000831117156106ee57600080fd5b91939092909160208101903564010000000081111561070c57600080fd5b82018360208201111561071e57600080fd5b8035906020019184600183028401116401000000008311171561074057600080fd5b5090925090506110c5565b604080517fffffffff000000000000000000000000000000000000000000000000000000009092168252519081900360200190f35b610843600480360360a081101561079657600080fd5b8101906020810181356401000000008111156107b157600080fd5b8201836020820111156107c357600080fd5b803590602001918460018302840111640100000000831117156107e557600080fd5b91908080601f016020809104026020016040519081016040528093929190818152602001838380828437600092019190915250929550506001600160a01b0383358116945060208401351692604081013592506060013590506110f2565b604080519115158252519081900360200190f35b6104ae61122e565b6108436004803603602081101561087557600080fd5b50356001600160a01b031661123d565b6102fe6004803603602081101561089b57600080fd5b503561125b565b61074b600480360360a08110156108b857600080fd5b6001600160a01b03823581169260208101359091169160408201359160608101359181019060a0810160808201356401000000008111156108f857600080fd5b82018360208201111561090a57600080fd5b8035906020019184600183028401116401000000008311171561092c57600080fd5b5090925090506112bf565b6109418e8d6112ea565b610a388d8d8d8d80806020026020016040519081016040528093929190818152602001838360200280828437600081840152601f19601f820116905080830192505050505050508c8c8c80806020026020016040519081016040528093929190818152602001838360200280828437600081840152601f19601f820116905080830192505050505050508b8b8080602002602001604051908101604052809392919081815260200183836020028082843760009201919091525050604080516020601f8d018190048102820181019092528b815292508b91508a908190840183828082843760009201919091525061144d92505050565b610a8c8e8c8c6003818110610a4957fe5b9050602002013586868080601f0160208091040260200160405190810160405280939291908181526020018383808284376000920191909152506117d092505050565b610aca8e8e8d8d8080602002602001604051908101604052809392919081815260200183836020028082843760009201919091525061182192505050565b610b078d898980806020026020016040519081016040528093929190818152602001838360200280828437600092019190915250611c1292505050565b5050505050505050505050505050565b7f000000000000000000000000000000000000000000000000000000000000000090565b7f000000000000000000000000000000000000000000000000000000000000000090565b6000546001600160a01b03163314610bbe576040805162461bcd60e51b815260206004820152601060248201527f53656e646572206e6f742061646d696e00000000000000000000000000000000604482015290519081900360640190fd5b600554600280546001600160a01b03908116600090815260046020526040902042909301909255805473ffffffffffffffffffffffffffffffffffffffff191692909116919091179055565b606060008060008060606000806000808a80602001905160a0811015610c2f57600080fd5b8101908080516040519392919084640100000000821115610c4f57600080fd5b908301906020820185811115610c6457600080fd5b8251640100000000811182820188101715610c7e57600080fd5b82525081516020918201929091019080838360005b83811015610cab578181015183820152602001610c93565b50505050905090810190601f168015610cd85780820380516001836020036101000a031916815260200191505b5060409081526020820151908201516060830151608090930151959f50909d509b5099509197505050505050505091939590929450565b6000546001600160a01b031690565b60035490565b6000546001600160a01b03163314610d6d5760405162461bcd60e51b815260040180806020018281038252602e8152602001806125a3602e913960400191505060405180910390fd5b610d778282611dd6565b5050565b6000546001600160a01b03163314610dda576040805162461bcd60e51b815260206004820152601b60248201527f6f6e6c792061646d696e2063616e206368616e67652061646d696e0000000000604482015290519081900360640190fd5b600054604080516001600160a01b039283168152918316602083015280517f7e644d79422f17c01e4894b5f4f588d331ebfa28653d42ae832dc59e38c9798f9281900390910190a16000805473ffffffffffffffffffffffffffffffffffffffff19166001600160a01b0392909216919091179055565b6000546001600160a01b03163314610eb0576040805162461bcd60e51b815260206004820152600e60248201527f4e4f545f415554484f52495a4544000000000000000000000000000000000000604482015290519081900360640190fd5b7f00000000000000000000000000000000000000000000000000000000000000006001600160a01b0316632eb2c2d63087878787876040518763ffffffff1660e01b815260040180876001600160a01b03166001600160a01b03168152602001866001600160a01b03166001600160a01b031681526020018060200180602001806020018481038452888882818152602001925060200280828437600083820152601f01601f19169091018581038452868152602090810191508790870280828437600081840152601f19601f8201169050808301925050508481038252600081526020016020019950505050505050505050600060405180830381600087803b158015610fbd57600080fd5b505af1158015610fd1573d6000803e3d6000fd5b505050505050505050565b6001600160a01b038116611037576040805162461bcd60e51b815260206004820152600c60248201527f5a45524f5f414444524553530000000000000000000000000000000000000000604482015290519081900360640190fd5b6000546001600160a01b03163314611096576040805162461bcd60e51b815260206004820152600e60248201527f4e4f545f415554484f52495a4544000000000000000000000000000000000000604482015290519081900360640190fd5b6006805473ffffffffffffffffffffffffffffffffffffffff19166001600160a01b0392909216919091179055565b7fbc197c810000000000000000000000000000000000000000000000000000000098975050505050505050565b60006003548211806111155750836001600160a01b0316856001600160a01b0316145b8061111f57508242115b1561112c57506000611225565b60408051606087811b7fffffffffffffffffffffffffffffffffffffffff0000000000000000000000009081166020808501919091529188901b166034830152604882018690526068808301869052835180840390910181526088830184528051908201207f19457468657265756d205369676e6564204d6573736167653a0a33320000000060a884015260c48084018290528451808503909101815260e490930190935281519101206000906111e39089611e58565b6001600160a01b038116600090815260046020526040902054909150421161121057600192505050611225565b6002546001600160a01b039081169116149150505b95945050505050565b6002546001600160a01b031690565b6001600160a01b031660009081526001602052604090205460ff1690565b6000546001600160a01b031633146112ba576040805162461bcd60e51b815260206004820152601060248201527f53656e646572206e6f742061646d696e00000000000000000000000000000000604482015290519081900360640190fd5b600355565b7ff23a6e61000000000000000000000000000000000000000000000000000000009695505050505050565b7f0000000000000000000000000000000000000000000000000000000000000000421061135e576040805162461bcd60e51b815260206004820152600c60248201527f53414c455f49535f4f5645520000000000000000000000000000000000000000604482015290519081900360640190fd5b6001600160a01b03821633148061138457503360009081526001602052604090205460ff165b6113d5576040805162461bcd60e51b815260206004820152600e60248201527f4e4f545f415554484f52495a4544000000000000000000000000000000000000604482015290519081900360640190fd5b6001600160a01b03811615806113fc5750816001600160a01b0316816001600160a01b0316145b610d77576040805162461bcd60e51b815260206004820152600d60248201527f52455345525645445f4c414e4400000000000000000000000000000000000000604482015290519081900360640190fd5b600087878760008151811061145e57fe5b60200260200101518860018151811061147357fe5b60200260200101518960028151811061148857fe5b60200260200101518a60038151811061149d57fe5b60200260200101518a8a60405160200180828051906020019060200280838360005b838110156114d75781810151838201526020016114bf565b50505050905001915050604051602081830303815290604052805190602001208a60405160200180828051906020019060200280838360005b83811015611528578181015183820152602001611510565b5050505090500191505060405160208183030381529060405280519060200120604051602001808a6001600160a01b03166001600160a01b031660601b8152601401896001600160a01b03166001600160a01b031660601b81526014018881526020018781526020018681526020018581526020018481526020018381526020018281526020019950505050505050505050604051602081830303815290604052805190602001209050600760009054906101000a90046001600160a01b03166001600160a01b031663012847ed83836040518363ffffffff1660e01b81526004018080602001838152602001828103825284818151815260200191508051906020019080838360005b8381101561164a578181015183820152602001611632565b50505050905090810190601f1680156116775780820380516001836020036101000a031916815260200191505b50935050505060206040518083038186803b15801561169557600080fd5b505afa1580156116a9573d6000803e3d6000fd5b505050506040513d60208110156116bf57600080fd5b5051611712576040805162461bcd60e51b815260206004820152600c60248201527f494e56414c49445f415554480000000000000000000000000000000000000000604482015290519081900360640190fd5b60006117738760008151811061172457fe5b60200260200101518860018151811061173957fe5b60200260200101518960028151811061174e57fe5b60200260200101518a60038151811061176357fe5b60200260200101518c8b8b611f25565b905061177f8482611fca565b610fd1576040805162461bcd60e51b815260206004820152600c60248201527f494e56414c49445f4c414e440000000000000000000000000000000000000000604482015290519081900360640190fd5b60006117dc8484612095565b60065490915061181b908590839085906001600160a01b03167f00000000000000000000000000000000000000000000000000000000000000006121ee565b50505050565b8060028151811061182e57fe5b60200260200101516001148061186b57507f00000000000000000000000000000000000000000000000000000000000000006001600160a01b0316155b1561196d577f00000000000000000000000000000000000000000000000000000000000000006001600160a01b0316636e1e3bbf83836002815181106118ad57fe5b6020026020010151846000815181106118c257fe5b6020026020010151856001815181106118d757fe5b60200260200101516040518563ffffffff1660e01b815260040180856001600160a01b03166001600160a01b031681526020018481526020018381526020018281526020018060200182810382526000815260200160200195505050505050600060405180830381600087803b15801561195057600080fd5b505af1158015611964573d6000803e3d6000fd5b50505050611b0d565b7f00000000000000000000000000000000000000000000000000000000000000006001600160a01b0316636e1e3bbf7f0000000000000000000000000000000000000000000000000000000000000000836002815181106119ca57fe5b6020026020010151846000815181106119df57fe5b6020026020010151856001815181106119f457fe5b60200260200101518760405160200180826001600160a01b03166001600160a01b031681526020019150506040516020818303038152906040526040518663ffffffff1660e01b815260040180866001600160a01b03166001600160a01b0316815260200185815260200184815260200183815260200180602001828103825283818151815260200191508051906020019080838360005b83811015611aa4578181015183820152602001611a8c565b50505050905090810190601f168015611ad15780820380516001836020036101000a031916815260200191505b509650505050505050600060405180830381600087803b158015611af457600080fd5b505af1158015611b08573d6000803e3d6000fd5b505050505b61019881600181518110611b1d57fe5b60200260200101510281600081518110611b3357fe5b602002602001015101826001600160a01b0316846001600160a01b03167fe4dfa6ac11314892f3029b34a25b1a887da3b1cab2bbf8506d87128ba6e3ac0284600281518110611b7e57fe5b602002602001015185600381518110611b9357fe5b60200260200101517f000000000000000000000000000000000000000000000000000000000000000087600381518110611bc957fe5b602002602001015160405180858152602001848152602001836001600160a01b03166001600160a01b0316815260200182815260200194505050505060405180910390a4505050565b6060815167ffffffffffffffff81118015611c2c57600080fd5b50604051908082528060200260200182016040528015611c56578160200160208202803683370190505b50905060005b8251811015611c86576001828281518110611c7357fe5b6020908102919091010152600101611c5c565b507f00000000000000000000000000000000000000000000000000000000000000006001600160a01b0316632eb2c2d6308585856040518563ffffffff1660e01b815260040180856001600160a01b03166001600160a01b03168152602001846001600160a01b03166001600160a01b03168152602001806020018060200180602001848103845286818151815260200191508051906020019060200280838360005b83811015611d41578181015183820152602001611d29565b50505050905001848103835285818151815260200191508051906020019060200280838360005b83811015611d80578181015183820152602001611d68565b50505050905001848103825260008152602001602001975050505050505050600060405180830381600087803b158015611db957600080fd5b505af1158015611dcd573d6000803e3d6000fd5b50505050505050565b6001600160a01b03821660008181526001602090815260409182902080547fffffffffffffffffffffffffffffffffffffffffffffffffffffffffffffff001685151590811790915582519384529083015280517fb21eb88b4e33b3f1281830a7178d74d8aa73220416215726b68ae23d539515cb9281900390910190a15050565b60008151604114611e6857600080fd5b60208201516040830151606084015160001a601b811015611e8757601b015b8060ff16601b1480611e9c57508060ff16601c145b611ea557600080fd5b6040805160008152602080820180845289905260ff8416828401526060820186905260808201859052915160019260a0808401939192601f1981019281900390910190855afa158015611efc573d6000803e3d6000fd5b5050604051601f1901519450506001600160a01b038416611f1c57600080fd5b50505092915050565b60008787878787878760405160200180888152602001878152602001868152602001858152602001846001600160a01b03166001600160a01b031660601b8152601401838152602001828051906020019060200280838360005b83811015611f97578181015183820152602001611f7f565b50505050905001975050505050505050604051602081830303815290604052805190602001209050979650505050505050565b600081815b8451811015612069576000858281518110611fe657fe5b602002602001015190508083101561202e5782816040516020018083815260200182815260200192505050604051602081830303815290604052805190602001209250612060565b808360405160200180838152602001828152602001925050506040516020818303038152906040528051906020012092505b50600101611fcf565b507f00000000000000000000000000000000000000000000000000000000000000001490505b92915050565b6000806120ba60646120ae85600563ffffffff61247016565b9063ffffffff6124e016565b604080516323b872dd60e01b81526001600160a01b0387811660048301527f0000000000000000000000000000000000000000000000000000000000000000811660248301526044820184905291519293507f0000000000000000000000000000000000000000000000000000000000000000909116916323b872dd916064808201926020929091908290030181600087803b15801561215957600080fd5b505af115801561216d573d6000803e3d6000fd5b505050506040513d602081101561218357600080fd5b50516121d6576040805162461bcd60e51b815260206004820152601360248201527f4645455f5452414e534645525f4641494c454400000000000000000000000000604482015290519081900360640190fd5b6121e6838263ffffffff61254516565b949350505050565b8251819085901561239857606060008060008061220a8a610c0a565b939850919650945092509050600061222586868686866110f2565b156122b35761223f6122378d84612470565b6127106124e0565b9050886001600160a01b0316846001600160a01b0316866001600160a01b03167fac7a699eb95c3c6d390ec4626de17ef9a67b35891efdb197beba7c7fdd45fac48f858760405180848152602001838152602001828152602001935050505060405180910390a46122b08782612545565b96505b801561239157604080516323b872dd60e01b81526001600160a01b038f811660048301528781166024830152604482018490529151918a16916323b872dd916064808201926020929091908290030181600087803b15801561231457600080fd5b505af1158015612328573d6000803e3d6000fd5b505050506040513d602081101561233e57600080fd5b5051612391576040805162461bcd60e51b815260206004820152601960248201527f636f6d6d6973696f6e207472616e73666572206661696c656400000000000000604482015290519081900360640190fd5b5050505050505b604080516323b872dd60e01b81526001600160a01b0389811660048301528681166024830152604482018490529151918416916323b872dd916064808201926020929091908290030181600087803b1580156123f357600080fd5b505af1158015612407573d6000803e3d6000fd5b505050506040513d602081101561241d57600080fd5b5051611dcd576040805162461bcd60e51b815260206004820152601760248201527f7061796d656e74207472616e73666572206661696c6564000000000000000000604482015290519081900360640190fd5b60008261247f5750600061208f565b508181028183828161248d57fe5b041461208f576040805162461bcd60e51b815260206004820152600860248201527f6f766572666c6f77000000000000000000000000000000000000000000000000604482015290519081900360640190fd5b600081612534576040805162461bcd60e51b815260206004820152600960248201527f64697662797a65726f0000000000000000000000000000000000000000000000604482015290519081900360640190fd5b81838161253d57fe5b049392505050565b60008282111561259c576040805162461bcd60e51b815260206004820152600860248201527f756e6465666c6f77000000000000000000000000000000000000000000000000604482015290519081900360640190fd5b5090039056fe6f6e6c792061646d696e2063616e207365747570206d6574615472616e73616374696f6e50726f636573736f7273a2646970667358221220fc9205bafc138c1de206481f144dc3e7818922fbe1a20d2a71392e5e2e413c1a64736f6c63430006050033",
  "devdoc": {
    "methods": {
      "buyLandWithSand(address,address,address,uint256[],bytes32,uint256[],bytes32[],bytes,bytes)": {
        "params": {
          "buyer": "address that perform the payment",
          "info": "[X_INDEX=0] x coordinate of the Land [Y_INDEX=1] y coordinate of the Land [SIZE_INDEX=2] size of the pack of Land to purchase [PRICE_INDEX=3] price in SAND to purchase that Land",
          "proof": "merkleProof for that particular Land",
          "reserved": "the reserved address (if any)",
          "to": "address that will own the purchased Land"
        }
      },
      "changeAdmin(address)": {
        "details": "change the administrator to be `newAdmin`.",
        "params": {
          "newAdmin": "address of the new administrator."
        }
      },
      "getAdmin()": {
        "details": "gives the current administrator of this contract.",
        "returns": {
          "_0": "the current administrator of this contract."
        }
      },
      "getSigningWallet()": {
        "details": "signing wallet authorized for referral",
        "returns": {
          "_0": "the address of the signing wallet"
        }
      },
      "isMetaTransactionProcessor(address)": {
        "details": "check whether address `who` is given meta-transaction execution rights.",
        "params": {
          "who": "The address to query."
        },
        "returns": {
          "_0": "whether the address has meta-transaction execution rights."
        }
      },
      "isReferralValid(bytes,address,address,uint256,uint256)": {
        "params": {
          "commissionRate": "The commissionRate of the referral",
          "expiryTime": "The expiry time of the referral",
          "referee": "The address of the referee",
          "referrer": "The address of the referrer",
          "signature": "The signature to check (signed referral)"
        },
        "returns": {
          "_0": "True if the referral is valid"
        }
      },
      "setMetaTransactionProcessor(address,bool)": {
        "details": "Enable or disable the ability of `metaTransactionProcessor` to perform meta-tx (metaTransactionProcessor rights).",
        "params": {
          "enabled": "set whether the metaTransactionProcessor is enabled or disabled.",
          "metaTransactionProcessor": "address that will be given/removed metaTransactionProcessor rights."
        }
      },
      "setReceivingWallet(address)": {
        "params": {
          "newWallet": "address of the new receiving wallet"
        }
      },
      "updateMaxCommissionRate(uint256)": {
        "details": "Update the maximum commission rate",
        "params": {
          "newMaxCommissionRate": "The new maximum commission rate"
        }
      },
      "updateSigningWallet(address)": {
        "details": "Update the signing wallet",
        "params": {
          "newSigningWallet": "The new address of the signing wallet"
        }
      },
      "withdrawAssets(address,uint256[],uint256[])": {
        "params": {
          "assetIds": "the assetIds to be transferred",
          "to": "intended recipient of the asset tokens",
          "values": "the quantities of the assetIds to be transferred"
        }
      }
    },
    "title": "Estate Sale contract with referral"
  },
  "userdoc": {
    "methods": {
      "buyLandWithSand(address,address,address,uint256[],bytes32,uint256[],bytes32[],bytes,bytes)": {
        "notice": "buy Land with SAND using the merkle proof associated with it"
      },
      "getExpiryTime()": {
        "notice": "Gets the expiry time for the current sale"
      },
      "getMaxCommisionRate()": {
        "notice": "the max commision rate"
      },
      "getMerkleRoot()": {
        "notice": "Gets the Merkle root associated with the current sale"
      },
      "isReferralValid(bytes,address,address,uint256,uint256)": {
        "notice": "Check if a referral is valid"
      },
      "setReceivingWallet(address)": {
        "notice": "set the wallet receiving the proceeds"
      },
      "withdrawAssets(address,uint256[],uint256[])": {
        "notice": "enable Admin to withdraw remaining assets from EstateSaleWithFee contract"
      }
    },
    "notice": "This contract manages the sale of our lands as Estates"
  },
  "storageLayout": {
    "storage": [
      {
        "astId": 13650,
        "contract": "src/solc_0.6/EstateSale/EstateSaleWithAuth.sol:EstateSaleWithAuth",
        "label": "_admin",
        "offset": 0,
        "slot": "0",
        "type": "t_address"
      },
      {
        "astId": 13712,
        "contract": "src/solc_0.6/EstateSale/EstateSaleWithAuth.sol:EstateSaleWithAuth",
        "label": "_metaTransactionContracts",
        "offset": 0,
        "slot": "1",
        "type": "t_mapping(t_address,t_bool)"
      },
      {
        "astId": 11828,
        "contract": "src/solc_0.6/EstateSale/EstateSaleWithAuth.sol:EstateSaleWithAuth",
        "label": "_signingWallet",
        "offset": 0,
        "slot": "2",
        "type": "t_address"
      },
      {
        "astId": 11830,
        "contract": "src/solc_0.6/EstateSale/EstateSaleWithAuth.sol:EstateSaleWithAuth",
        "label": "_maxCommissionRate",
        "offset": 0,
        "slot": "3",
        "type": "t_uint256"
      },
      {
        "astId": 11834,
        "contract": "src/solc_0.6/EstateSale/EstateSaleWithAuth.sol:EstateSaleWithAuth",
        "label": "_previousSigningWallets",
        "offset": 0,
        "slot": "4",
        "type": "t_mapping(t_address,t_uint256)"
      },
      {
        "astId": 11843,
        "contract": "src/solc_0.6/EstateSale/EstateSaleWithAuth.sol:EstateSaleWithAuth",
        "label": "_previousSigningDelay",
        "offset": 0,
        "slot": "5",
        "type": "t_uint256"
      },
      {
        "astId": 7453,
        "contract": "src/solc_0.6/EstateSale/EstateSaleWithAuth.sol:EstateSaleWithAuth",
        "label": "_wallet",
        "offset": 0,
        "slot": "6",
        "type": "t_address_payable"
      },
      {
        "astId": 7455,
        "contract": "src/solc_0.6/EstateSale/EstateSaleWithAuth.sol:EstateSaleWithAuth",
        "label": "_authValidator",
        "offset": 0,
        "slot": "7",
        "type": "t_contract(AuthValidator)6784"
      }
    ],
    "types": {
      "t_address": {
        "encoding": "inplace",
        "label": "address",
        "numberOfBytes": "20"
      },
      "t_address_payable": {
        "encoding": "inplace",
        "label": "address payable",
        "numberOfBytes": "20"
      },
      "t_bool": {
        "encoding": "inplace",
        "label": "bool",
        "numberOfBytes": "1"
      },
      "t_contract(AuthValidator)6784": {
        "encoding": "inplace",
        "label": "contract AuthValidator",
        "numberOfBytes": "20"
      },
      "t_mapping(t_address,t_bool)": {
        "encoding": "mapping",
        "key": "t_address",
        "label": "mapping(address => bool)",
        "numberOfBytes": "32",
        "value": "t_bool"
      },
      "t_mapping(t_address,t_uint256)": {
        "encoding": "mapping",
        "key": "t_address",
        "label": "mapping(address => uint256)",
        "numberOfBytes": "32",
        "value": "t_uint256"
      },
      "t_uint256": {
        "encoding": "inplace",
        "label": "uint256",
        "numberOfBytes": "32"
      }
    }
  }
}