{
  "address": "0xaf93fE4b2dA55A723a1bf91Ab67F9a09ea1bceD2",
  "abi": [
    {
      "inputs": [
        {
          "internalType": "address",
          "name": "landAddress",
          "type": "address"
        },
        {
          "internalType": "address",
          "name": "sandContractAddress",
          "type": "address"
        },
        {
          "internalType": "address",
          "name": "initialMetaTx",
          "type": "address"
        },
        {
          "internalType": "address",
          "name": "admin",
          "type": "address"
        },
        {
          "internalType": "address payable",
          "name": "initialWalletAddress",
          "type": "address"
        },
        {
          "internalType": "bytes32",
          "name": "merkleRoot",
          "type": "bytes32"
        },
        {
          "internalType": "uint256",
          "name": "expiryTime",
          "type": "uint256"
        },
        {
          "internalType": "address",
          "name": "initialSigningWallet",
          "type": "address"
        },
        {
          "internalType": "uint256",
          "name": "initialMaxCommissionRate",
          "type": "uint256"
        },
        {
          "internalType": "address",
          "name": "estate",
          "type": "address"
        },
        {
          "internalType": "address",
          "name": "asset",
          "type": "address"
        },
        {
          "internalType": "address",
          "name": "feeDistributor",
          "type": "address"
        }
      ],
      "stateMutability": "nonpayable",
      "type": "constructor"
    },
    {
      "anonymous": false,
      "inputs": [
        {
          "indexed": false,
          "internalType": "address",
          "name": "oldAdmin",
          "type": "address"
        },
        {
          "indexed": false,
          "internalType": "address",
          "name": "newAdmin",
          "type": "address"
        }
      ],
      "name": "AdminChanged",
      "type": "event"
    },
    {
      "anonymous": false,
      "inputs": [
        {
          "indexed": true,
          "internalType": "address",
          "name": "buyer",
          "type": "address"
        },
        {
          "indexed": true,
          "internalType": "address",
          "name": "to",
          "type": "address"
        },
        {
          "indexed": true,
          "internalType": "uint256",
          "name": "topCornerId",
          "type": "uint256"
        },
        {
          "indexed": false,
          "internalType": "uint256",
          "name": "size",
          "type": "uint256"
        },
        {
          "indexed": false,
          "internalType": "uint256",
          "name": "price",
          "type": "uint256"
        },
        {
          "indexed": false,
          "internalType": "address",
          "name": "token",
          "type": "address"
        },
        {
          "indexed": false,
          "internalType": "uint256",
          "name": "amountPaid",
          "type": "uint256"
        }
      ],
      "name": "LandQuadPurchased",
      "type": "event"
    },
    {
      "anonymous": false,
      "inputs": [
        {
          "indexed": false,
          "internalType": "address",
          "name": "metaTransactionProcessor",
          "type": "address"
        },
        {
          "indexed": false,
          "internalType": "bool",
          "name": "enabled",
          "type": "bool"
        }
      ],
      "name": "MetaTransactionProcessor",
      "type": "event"
    },
    {
      "anonymous": false,
      "inputs": [
        {
          "indexed": true,
          "internalType": "address",
          "name": "referrer",
          "type": "address"
        },
        {
          "indexed": true,
          "internalType": "address",
          "name": "referee",
          "type": "address"
        },
        {
          "indexed": true,
          "internalType": "address",
          "name": "token",
          "type": "address"
        },
        {
          "indexed": false,
          "internalType": "uint256",
          "name": "amount",
          "type": "uint256"
        },
        {
          "indexed": false,
          "internalType": "uint256",
          "name": "commission",
          "type": "uint256"
        },
        {
          "indexed": false,
          "internalType": "uint256",
          "name": "commissionRate",
          "type": "uint256"
        }
      ],
      "name": "ReferralUsed",
      "type": "event"
    },
    {
      "inputs": [
        {
          "internalType": "address",
          "name": "buyer",
          "type": "address"
        },
        {
          "internalType": "address",
          "name": "to",
          "type": "address"
        },
        {
          "internalType": "address",
          "name": "reserved",
          "type": "address"
        },
        {
          "internalType": "uint256",
          "name": "x",
          "type": "uint256"
        },
        {
          "internalType": "uint256",
          "name": "y",
          "type": "uint256"
        },
        {
          "internalType": "uint256",
          "name": "size",
          "type": "uint256"
        },
        {
          "internalType": "uint256",
          "name": "priceInSand",
          "type": "uint256"
        },
        {
          "internalType": "uint256",
          "name": "adjustedPriceInSand",
          "type": "uint256"
        },
        {
          "internalType": "bytes32",
          "name": "salt",
          "type": "bytes32"
        },
        {
          "internalType": "uint256[]",
          "name": "assetIds",
          "type": "uint256[]"
        },
        {
          "internalType": "bytes32[]",
          "name": "proof",
          "type": "bytes32[]"
        },
        {
          "internalType": "bytes",
          "name": "referral",
          "type": "bytes"
        }
      ],
      "name": "buyLandWithSand",
      "outputs": [],
      "stateMutability": "nonpayable",
      "type": "function"
    },
    {
      "inputs": [
        {
          "internalType": "address",
          "name": "newAdmin",
          "type": "address"
        }
      ],
      "name": "changeAdmin",
      "outputs": [],
      "stateMutability": "nonpayable",
      "type": "function"
    },
    {
      "inputs": [
        {
          "internalType": "bytes",
          "name": "referral",
          "type": "bytes"
        }
      ],
      "name": "decodeReferral",
      "outputs": [
        {
          "internalType": "bytes",
          "name": "",
          "type": "bytes"
        },
        {
          "internalType": "address",
          "name": "",
          "type": "address"
        },
        {
          "internalType": "address",
          "name": "",
          "type": "address"
        },
        {
          "internalType": "uint256",
          "name": "",
          "type": "uint256"
        },
        {
          "internalType": "uint256",
          "name": "",
          "type": "uint256"
        }
      ],
      "stateMutability": "pure",
      "type": "function"
    },
    {
      "inputs": [],
      "name": "getAdmin",
      "outputs": [
        {
          "internalType": "address",
          "name": "",
          "type": "address"
        }
      ],
      "stateMutability": "view",
      "type": "function"
    },
    {
      "inputs": [],
      "name": "getExpiryTime",
      "outputs": [
        {
          "internalType": "uint256",
          "name": "",
          "type": "uint256"
        }
      ],
      "stateMutability": "view",
      "type": "function"
    },
    {
      "inputs": [],
      "name": "getMaxCommisionRate",
      "outputs": [
        {
          "internalType": "uint256",
          "name": "",
          "type": "uint256"
        }
      ],
      "stateMutability": "view",
      "type": "function"
    },
    {
      "inputs": [],
      "name": "getMerkleRoot",
      "outputs": [
        {
          "internalType": "bytes32",
          "name": "",
          "type": "bytes32"
        }
      ],
      "stateMutability": "view",
      "type": "function"
    },
    {
      "inputs": [],
      "name": "getSandMultiplier",
      "outputs": [
        {
          "internalType": "uint256",
          "name": "",
          "type": "uint256"
        }
      ],
      "stateMutability": "view",
      "type": "function"
    },
    {
      "inputs": [],
      "name": "getSigningWallet",
      "outputs": [
        {
          "internalType": "address",
          "name": "",
          "type": "address"
        }
      ],
      "stateMutability": "view",
      "type": "function"
    },
    {
      "inputs": [
        {
          "internalType": "address",
          "name": "who",
          "type": "address"
        }
      ],
      "name": "isMetaTransactionProcessor",
      "outputs": [
        {
          "internalType": "bool",
          "name": "",
          "type": "bool"
        }
      ],
      "stateMutability": "view",
      "type": "function"
    },
    {
      "inputs": [
        {
          "internalType": "bytes",
          "name": "signature",
          "type": "bytes"
        },
        {
          "internalType": "address",
          "name": "referrer",
          "type": "address"
        },
        {
          "internalType": "address",
          "name": "referee",
          "type": "address"
        },
        {
          "internalType": "uint256",
          "name": "expiryTime",
          "type": "uint256"
        },
        {
          "internalType": "uint256",
          "name": "commissionRate",
          "type": "uint256"
        }
      ],
      "name": "isReferralValid",
      "outputs": [
        {
          "internalType": "bool",
          "name": "",
          "type": "bool"
        }
      ],
      "stateMutability": "view",
      "type": "function"
    },
    {
      "inputs": [
        {
          "internalType": "address",
          "name": "",
          "type": "address"
        },
        {
          "internalType": "address",
          "name": "",
          "type": "address"
        },
        {
          "internalType": "uint256[]",
          "name": "",
          "type": "uint256[]"
        },
        {
          "internalType": "uint256[]",
          "name": "",
          "type": "uint256[]"
        },
        {
          "internalType": "bytes",
          "name": "",
          "type": "bytes"
        }
      ],
      "name": "onERC1155BatchReceived",
      "outputs": [
        {
          "internalType": "bytes4",
          "name": "",
          "type": "bytes4"
        }
      ],
      "stateMutability": "pure",
      "type": "function"
    },
    {
      "inputs": [
        {
          "internalType": "address",
          "name": "",
          "type": "address"
        },
        {
          "internalType": "address",
          "name": "",
          "type": "address"
        },
        {
          "internalType": "uint256",
          "name": "",
          "type": "uint256"
        },
        {
          "internalType": "uint256",
          "name": "",
          "type": "uint256"
        },
        {
          "internalType": "bytes",
          "name": "",
          "type": "bytes"
        }
      ],
      "name": "onERC1155Received",
      "outputs": [
        {
          "internalType": "bytes4",
          "name": "",
          "type": "bytes4"
        }
      ],
      "stateMutability": "pure",
      "type": "function"
    },
    {
      "inputs": [
        {
          "internalType": "uint256",
          "name": "newMultiplier",
          "type": "uint256"
        }
      ],
      "name": "rebalanceSand",
      "outputs": [],
      "stateMutability": "nonpayable",
      "type": "function"
    },
    {
      "inputs": [
        {
          "internalType": "address",
          "name": "metaTransactionProcessor",
          "type": "address"
        },
        {
          "internalType": "bool",
          "name": "enabled",
          "type": "bool"
        }
      ],
      "name": "setMetaTransactionProcessor",
      "outputs": [],
      "stateMutability": "nonpayable",
      "type": "function"
    },
    {
      "inputs": [
        {
          "internalType": "address payable",
          "name": "newWallet",
          "type": "address"
        }
      ],
      "name": "setReceivingWallet",
      "outputs": [],
      "stateMutability": "nonpayable",
      "type": "function"
    },
    {
      "inputs": [
        {
          "internalType": "uint256",
          "name": "newMaxCommissionRate",
          "type": "uint256"
        }
      ],
      "name": "updateMaxCommissionRate",
      "outputs": [],
      "stateMutability": "nonpayable",
      "type": "function"
    },
    {
      "inputs": [
        {
          "internalType": "address",
          "name": "newSigningWallet",
          "type": "address"
        }
      ],
      "name": "updateSigningWallet",
      "outputs": [],
      "stateMutability": "nonpayable",
      "type": "function"
    },
    {
      "inputs": [
        {
          "internalType": "address",
          "name": "to",
          "type": "address"
        },
        {
          "internalType": "uint256[]",
          "name": "assetIds",
          "type": "uint256[]"
        },
        {
          "internalType": "uint256[]",
          "name": "values",
          "type": "uint256[]"
        }
      ],
      "name": "withdrawAssets",
      "outputs": [],
      "stateMutability": "nonpayable",
      "type": "function"
    }
  ],
  "transactionHash": "0x5074e8d21dc60401fa6b0a1ee4f4d67dc729f896cca4342145d58a7d11280608",
  "args": [
    "0x50f5474724e0Ee42D9a4e711ccFB275809Fd6d4a",
    "0x3845badAde8e6dFF049820680d1F14bD3903a5d0",
    "0x3845badAde8e6dFF049820680d1F14bD3903a5d0",
    "0x18dd4e0eb8699eA4FeE238dE41ECfb95e32272f8",
    "0x4489590a116618B506F0EfE885432F6A8ED998E9",
    "0xc82f54b4db21a3eec620c65f79a96dfc0ce5edb883d741dff740c801be793123",
    1613566800,
    "0x3044719d139F866a44c988823513eCB93060bF1b",
    2000,
    "0x0000000000000000000000000000000000000000",
    "0xa342f5D851E866E18ff98F351f2c6637f4478dB5",
    "0x0EB04462D69B1D267d269377E34f60b9De1c8510"
  ],
  "linkedData": [
    {
      "x": 404,
      "y": 325,
      "size": 1,
      "price": "1011000000000000000000",
      "reserved": "0x7a9fe22691c811ea339d9b73150e6911a5343dca",
      "salt": "0xe36f09a688ae10aaadccb3a0c40e8a8f28eaff3aa60bce86b5da87cb047c01a0",
      "assetIds": []
    },
    {
      "x": 402,
      "y": 319,
      "size": 1,
      "price": "1011000000000000000000",
      "reserved": "0x7a9fe22691c811ea339d9b73150e6911a5343dca",
      "salt": "0x3685b3bd7bb9d28789dceaa065534a5107ccd3a5b6f45bb8d22d0ad9edbbc398",
      "assetIds": []
    },
    {
      "x": 398,
      "y": 320,
      "size": 1,
      "price": "1011000000000000000000",
      "reserved": "0x7a9fe22691c811ea339d9b73150e6911a5343dca",
      "salt": "0x0d22dbd0f94519d7492c9f0d773bba5d7ab55d1dd72c661dd62b1505c48ee9b5",
      "assetIds": []
    },
    {
      "x": 391,
      "y": 321,
      "size": 1,
      "price": "1011000000000000000000",
      "reserved": "0x7a9fe22691c811ea339d9b73150e6911a5343dca",
      "salt": "0x20cb21771f1e6e0fe1a37f71d4e011bce2714ac32a791b758868c91d17f5a862",
      "assetIds": []
    },
    {
      "x": 387,
      "y": 314,
      "size": 1,
      "price": "1011000000000000000000",
      "reserved": "0x7a9fe22691c811ea339d9b73150e6911a5343dca",
      "salt": "0x2605a5f2c5b32b812719be73d167e71eb6364ba1430ec964eb9b4fb756234b91",
      "assetIds": []
    },
    {
      "x": 390,
      "y": 313,
      "size": 1,
      "price": "1011000000000000000000",
      "reserved": "0x7a9fe22691c811ea339d9b73150e6911a5343dca",
      "salt": "0x3919fc82eb320308277db5420dac13e6dfb9f1ab1537ef24c026dcb746c02896",
      "assetIds": []
    },
    {
      "x": 384,
      "y": 307,
      "size": 1,
      "price": "1011000000000000000000",
      "reserved": "0x7a9fe22691c811ea339d9b73150e6911a5343dca",
      "salt": "0xacee507c64bd6434fa825c7c4f8b2626577548044f6688162a5ef47fab558346",
      "assetIds": []
    },
    {
      "x": 406,
      "y": 314,
      "size": 1,
      "price": "1011000000000000000000",
      "reserved": "0x7a9fe22691c811ea339d9b73150e6911a5343dca",
      "salt": "0x0dc692c19949ff3f02f500cf963dd46204aa6347f06d59f8490815235c79bb0c",
      "assetIds": []
    },
    {
      "x": 406,
      "y": 318,
      "size": 1,
      "price": "1011000000000000000000",
      "reserved": "0x7a9fe22691c811ea339d9b73150e6911a5343dca",
      "salt": "0xe3eea6837f986ac4e70360b6b36a75dd120060e2f99b06f02842451d2d651403",
      "assetIds": []
    },
    {
      "x": 405,
      "y": 333,
      "size": 1,
      "price": "1011000000000000000000",
      "reserved": "0x7a9fe22691c811ea339d9b73150e6911a5343dca",
      "salt": "0xc8fc11c6b909111a4a2e223bc224d69455f8acb7a5464096566044ef1fffd44a",
      "assetIds": []
    },
    {
      "x": 399,
      "y": 334,
      "size": 1,
      "price": "1011000000000000000000",
      "reserved": "0x7a9fe22691c811ea339d9b73150e6911a5343dca",
      "salt": "0xda2d4b2f00e94cc26a1cdaab84809daf9e5e36769f69956fc80de7b5542850e5",
      "assetIds": []
    },
    {
      "x": 385,
      "y": 340,
      "size": 1,
      "price": "1011000000000000000000",
      "reserved": "0x7a9fe22691c811ea339d9b73150e6911a5343dca",
      "salt": "0x22d1e8580be06eed3e4e4942bd7abc1a6cfe95e9618be51e0cc92039616bcbf0",
      "assetIds": []
    },
    {
      "x": 389,
      "y": 343,
      "size": 1,
      "price": "1011000000000000000000",
      "reserved": "0x7a9fe22691c811ea339d9b73150e6911a5343dca",
      "salt": "0x5256b554f35837e40295abc3b977fe071184b92854ba7ff8c9104e922c7f46a7",
      "assetIds": []
    },
    {
      "x": 391,
      "y": 342,
      "size": 1,
      "price": "1011000000000000000000",
      "reserved": "0x7a9fe22691c811ea339d9b73150e6911a5343dca",
      "salt": "0x09ee96dd269e61d4bc550e0bb54dd3c13bbb047ee38a58b65aa45ac96dc767ec",
      "assetIds": []
    },
    {
      "x": 391,
      "y": 344,
      "size": 1,
      "price": "1011000000000000000000",
      "reserved": "0x7a9fe22691c811ea339d9b73150e6911a5343dca",
      "salt": "0xe2e287d4025c2920348f241faacd5da17bd71789d95b36c9a2bd93e53b674045",
      "assetIds": []
    },
    {
      "x": 391,
      "y": 343,
      "size": 1,
      "price": "1011000000000000000000",
      "reserved": "0x7a9fe22691c811ea339d9b73150e6911a5343dca",
      "salt": "0xe46869caa55765c1c0de13cae4e7bb5c2ca188ab1906bab0545022f70fb27daf",
      "assetIds": []
    },
    {
      "x": 394,
      "y": 342,
      "size": 1,
      "price": "1011000000000000000000",
      "reserved": "0x7a9fe22691c811ea339d9b73150e6911a5343dca",
      "salt": "0x0594de4efca5a132adf7ea85a68f29b3a207f648bc059aa1f52e4011a19a3ffe",
      "assetIds": []
    },
    {
      "x": 386,
      "y": 345,
      "size": 1,
      "price": "1011000000000000000000",
      "reserved": "0x7a9fe22691c811ea339d9b73150e6911a5343dca",
      "salt": "0xda9388540d44ffc1bcbbd888806536a813e6decaee609b58331196439b8287cb",
      "assetIds": []
    },
    {
      "x": 385,
      "y": 345,
      "size": 1,
      "price": "1011000000000000000000",
      "reserved": "0x7a9fe22691c811ea339d9b73150e6911a5343dca",
      "salt": "0xcc1867f4a6c978a9fbdc69fa497824671f8c3799652dde79fc50044951e5d35b",
      "assetIds": []
    },
    {
      "x": 388,
      "y": 346,
      "size": 1,
      "price": "1011000000000000000000",
      "reserved": "0x7a9fe22691c811ea339d9b73150e6911a5343dca",
      "salt": "0x60e188f464d99c5b12192b2d3a4528ef624b61ca6548b394574dcfb86352990e",
      "assetIds": []
    },
    {
      "x": 380,
      "y": 345,
      "size": 1,
      "price": "1011000000000000000000",
      "reserved": "0x7a9fe22691c811ea339d9b73150e6911a5343dca",
      "salt": "0x81aefdadb0c6b7110a2028c449833e7daa9a3c396d85f80089a446fbc6b6a486",
      "assetIds": []
    },
    {
      "x": 380,
      "y": 349,
      "size": 1,
      "price": "1011000000000000000000",
      "reserved": "0x7a9fe22691c811ea339d9b73150e6911a5343dca",
      "salt": "0x5ca5c40403a9f5c4a9ca3cf459995915e2e2c853c6d2e583379dffe23cd68a85",
      "assetIds": []
    },
    {
      "x": 382,
      "y": 352,
      "size": 1,
      "price": "1011000000000000000000",
      "reserved": "0x7a9fe22691c811ea339d9b73150e6911a5343dca",
      "salt": "0x0c4632ae0fed1101d0b007b36d0e73d2d209be769bf7fdc7d8fe4dd71e6aa112",
      "assetIds": []
    },
    {
      "x": 376,
      "y": 340,
      "size": 1,
      "price": "1011000000000000000000",
      "reserved": "0x7a9fe22691c811ea339d9b73150e6911a5343dca",
      "salt": "0x5694b7e474af6de8c55216e827380136e3c51cd932897b0119d92e521e78d090",
      "assetIds": []
    },
    {
      "x": 372,
      "y": 338,
      "size": 1,
      "price": "1011000000000000000000",
      "reserved": "0x7a9fe22691c811ea339d9b73150e6911a5343dca",
      "salt": "0x8fbba4c56803009c854be39011a3def378482e02c6f4ae4d28bc8889ae56638f",
      "assetIds": []
    },
    {
      "x": 395,
      "y": 347,
      "size": 1,
      "price": "1011000000000000000000",
      "reserved": "0x7a9fe22691c811ea339d9b73150e6911a5343dca",
      "salt": "0xb72a7cbc46d6d792372eff386ae60a7a9ad06af8f85a736d3825f6562b07d4a2",
      "assetIds": []
    },
    {
      "x": 397,
      "y": 348,
      "size": 1,
      "price": "1011000000000000000000",
      "reserved": "0x7a9fe22691c811ea339d9b73150e6911a5343dca",
      "salt": "0xe0a70866ed3b0ec6d7514202f4e089ebb96bce6432642220c5474f7ca9c579af",
      "assetIds": []
    },
    {
      "x": 391,
      "y": 349,
      "size": 1,
      "price": "1011000000000000000000",
      "reserved": "0x7a9fe22691c811ea339d9b73150e6911a5343dca",
      "salt": "0x3deaca7d14db128fa01127049aab59b67b49cf4dc695efd394e96fa27eb1d69c",
      "assetIds": []
    },
    {
      "x": 393,
      "y": 353,
      "size": 1,
      "price": "1011000000000000000000",
      "reserved": "0x7a9fe22691c811ea339d9b73150e6911a5343dca",
      "salt": "0x0bf42ffbb13e312bb3876fa6fb01676fc4e32075a9a13c04940b870b974d1884",
      "assetIds": []
    },
    {
      "x": 397,
      "y": 355,
      "size": 1,
      "price": "1011000000000000000000",
      "reserved": "0x7a9fe22691c811ea339d9b73150e6911a5343dca",
      "salt": "0x259692fcab89fca002e99b5bddd485ddb9790902cef8eeffa72a5663b5341f9e",
      "assetIds": []
    },
    {
      "x": 400,
      "y": 352,
      "size": 1,
      "price": "1011000000000000000000",
      "reserved": "0x7a9fe22691c811ea339d9b73150e6911a5343dca",
      "salt": "0x5d476c517e2079d201f9feb17cdfd4ab93e3f0e3c467ab7e52d9a87500d64a0b",
      "assetIds": []
    },
    {
      "x": 402,
      "y": 352,
      "size": 1,
      "price": "1011000000000000000000",
      "reserved": "0x7a9fe22691c811ea339d9b73150e6911a5343dca",
      "salt": "0xda5aedc5294d28d0346164cdd1ad9149d00cf3ce299d5e0e6a49d6323ee7c6a3",
      "assetIds": []
    },
    {
      "x": 403,
      "y": 352,
      "size": 1,
      "price": "1011000000000000000000",
      "reserved": "0x7a9fe22691c811ea339d9b73150e6911a5343dca",
      "salt": "0x1cfd42bf0509d4ae8c8957b1559bf06d1001e6dba47b36869209d0b89e4379d9",
      "assetIds": []
    },
    {
      "x": 403,
      "y": 351,
      "size": 1,
      "price": "1011000000000000000000",
      "reserved": "0x7a9fe22691c811ea339d9b73150e6911a5343dca",
      "salt": "0x10082b63aedb6e08b65473c933ce25927b7e86bb7bfda6f16f8d64e666ed5095",
      "assetIds": []
    },
    {
      "x": 372,
      "y": 351,
      "size": 1,
      "price": "1011000000000000000000",
      "reserved": "0x7a9fe22691c811ea339d9b73150e6911a5343dca",
      "salt": "0x88bacc65bf450ce7fbdf53cd2f9901a4cecf52ebe5ddb8ed7b6cf8f60d3b3610",
      "assetIds": []
    },
    {
      "x": 363,
      "y": 350,
      "size": 1,
      "price": "1011000000000000000000",
      "reserved": "0x7a9fe22691c811ea339d9b73150e6911a5343dca",
      "salt": "0x1b87b50f160fe7e4e68adbd3d6482a988cb11aa1db3e32aac6f5bd9b094f1f27",
      "assetIds": []
    },
    {
      "x": 357,
      "y": 353,
      "size": 1,
      "price": "1011000000000000000000",
      "reserved": "0x7a9fe22691c811ea339d9b73150e6911a5343dca",
      "salt": "0xa907eedc922de5d948ce8b9ef570b3fd082c63a700f2c9b82e1912d656b7b66e",
      "assetIds": []
    },
    {
      "x": 354,
      "y": 345,
      "size": 1,
      "price": "1011000000000000000000",
      "reserved": "0x7a9fe22691c811ea339d9b73150e6911a5343dca",
      "salt": "0x736cd7cb02641191ccbe4b2b7cc539eabae4d9d814db2dba75aab34d291f54e1",
      "assetIds": []
    },
    {
      "x": 356,
      "y": 344,
      "size": 1,
      "price": "1011000000000000000000",
      "reserved": "0x7a9fe22691c811ea339d9b73150e6911a5343dca",
      "salt": "0xc608cce25e0378ff20b5ad3c4199a9117e23603d66c05e049e0d4a29758356c8",
      "assetIds": []
    },
    {
      "x": 357,
      "y": 339,
      "size": 1,
      "price": "1011000000000000000000",
      "reserved": "0x7a9fe22691c811ea339d9b73150e6911a5343dca",
      "salt": "0xaa6681152459e5081fe2328b6eecbb46450b84f323491e6b833b2c351b42442e",
      "assetIds": []
    },
    {
      "x": 351,
      "y": 314,
      "size": 1,
      "price": "1011000000000000000000",
      "reserved": "0x7a9fe22691c811ea339d9b73150e6911a5343dca",
      "salt": "0x4740ace3a21e6e8b49faedc73d8559b1699ef181db54d5e4c91c3ff43fbf718c",
      "assetIds": []
    },
    {
      "x": 352,
      "y": 321,
      "size": 1,
      "price": "1011000000000000000000",
      "reserved": "0x7a9fe22691c811ea339d9b73150e6911a5343dca",
      "salt": "0xa8f6414c3ba6e3eca07d6760671548a234cbb6ee44a4da99a50bfc07f1c7aa1e",
      "assetIds": []
    },
    {
      "x": 349,
      "y": 324,
      "size": 1,
      "price": "1011000000000000000000",
      "reserved": "0x7a9fe22691c811ea339d9b73150e6911a5343dca",
      "salt": "0x98231f7525358a980a79dd5d4eed71a96233d878f4cd9a1f265bbb3755ba9edb",
      "assetIds": []
    },
    {
      "x": 350,
      "y": 330,
      "size": 1,
      "price": "1011000000000000000000",
      "reserved": "0x7a9fe22691c811ea339d9b73150e6911a5343dca",
      "salt": "0xb0c5bf4c6b558523dffb3447f847c37d552a5cc15243f8b58fca66fb183b0667",
      "assetIds": []
    },
    {
      "x": 350,
      "y": 331,
      "size": 1,
      "price": "1011000000000000000000",
      "reserved": "0x7a9fe22691c811ea339d9b73150e6911a5343dca",
      "salt": "0x3a01d9ec1305689bf911fbb7cb3fc8dd30dd8bc209d5e0ccaf644ee205ca9125",
      "assetIds": []
    },
    {
      "x": 353,
      "y": 333,
      "size": 1,
      "price": "1011000000000000000000",
      "reserved": "0x7a9fe22691c811ea339d9b73150e6911a5343dca",
      "salt": "0x5b214f35f712bbe45197c868d770483e405756b9d0dbbc2365bfa056a554adeb",
      "assetIds": []
    },
    {
      "x": 353,
      "y": 334,
      "size": 1,
      "price": "1011000000000000000000",
      "reserved": "0x7a9fe22691c811ea339d9b73150e6911a5343dca",
      "salt": "0x8ca8dd89536be6cd9eff6cf7f828bd9e3bc2dfcc992c30a0f4e69a7f24d96592",
      "assetIds": []
    },
    {
      "x": 353,
      "y": 335,
      "size": 1,
      "price": "1011000000000000000000",
      "reserved": "0x7a9fe22691c811ea339d9b73150e6911a5343dca",
      "salt": "0xeeca348165b7ffec09aeafad355e943e704bd50b35051e2580508363b4bb47ec",
      "assetIds": []
    },
    {
      "x": 351,
      "y": 337,
      "size": 1,
      "price": "1011000000000000000000",
      "reserved": "0x7a9fe22691c811ea339d9b73150e6911a5343dca",
      "salt": "0x77b40001d488b9ae8b2a7598347f74a6bf758be13230a58663ee230c60f93fc0",
      "assetIds": []
    },
    {
      "x": 356,
      "y": 327,
      "size": 1,
      "price": "1011000000000000000000",
      "reserved": "0x7a9fe22691c811ea339d9b73150e6911a5343dca",
      "salt": "0x6f72da0229bd2d96ce2e48cedd6d66a26380e3ad6bf70971ddd7b063d12ae05a",
      "assetIds": []
    },
    {
      "x": 378,
      "y": 306,
      "size": 1,
      "price": "4683000000000000000000",
      "reserved": "",
      "salt": "0xbbddd3fe3bc41854b79612fa160d89b7c72587482db21c7f328072d80c05019f",
      "assetIds": [
        "55464657044963196816950587289035428064568320970692304673817341489687522457602",
        "55464657044963196816950587289035428064568320970692304673817341489687522457604"
      ]
    },
    {
      "x": 379,
      "y": 306,
      "size": 1,
      "price": "4683000000000000000000",
      "reserved": "",
      "salt": "0xb53f04874a26172e64ef33a8b92cf066ef66022b0b7c664b61c31f52c9f7a980",
      "assetIds": [
        "55464657044963196816950587289035428064568320970692304673817341489687522457601",
        "55464657044963196816950587289035428064568320970692304673817341489687522457603"
      ]
    },
    {
      "x": 380,
      "y": 306,
      "size": 1,
      "price": "4683000000000000000000",
      "reserved": "",
      "salt": "0x87c98cb5aef918032d223a3fff8e402a765aa93638b2cf3af94e7465db331c1b",
      "assetIds": [
        "55464657044963196816950587289035428064568320970692304673817341489687522457605",
        "55464657044963196816950587289035428064568320970692304673817341489687522457601"
      ]
    },
    {
      "x": 381,
      "y": 306,
      "size": 1,
      "price": "4683000000000000000000",
      "reserved": "",
      "salt": "0xafa1653293038b11a8f1967fcf43bc06730077b1b5a3f99d7512e78de6152853",
      "assetIds": [
        "55464657044963196816950587289035428064568320970692304673817341489687522457602",
        "55464657044963196816950587289035428064568320970692304673817341489687522457604"
      ]
    },
    {
      "x": 382,
      "y": 306,
      "size": 1,
      "price": "4683000000000000000000",
      "reserved": "",
      "salt": "0x7185a96d26007f193e10517cac1426e4a00a210536a8cfca40584d44f71929dd",
      "assetIds": [
        "55464657044963196816950587289035428064568320970692304673817341489687522457605",
        "55464657044963196816950587289035428064568320970692304673817341489687522457601"
      ]
    },
    {
      "x": 383,
      "y": 306,
      "size": 1,
      "price": "4683000000000000000000",
      "reserved": "",
      "salt": "0xc69447794ce100e39996ce6ba16fb2f5f92e7abb50fb402b8c4426a07efca1fb",
      "assetIds": [
        "55464657044963196816950587289035428064568320970692304673817341489687522457602",
        "55464657044963196816950587289035428064568320970692304673817341489687522457604"
      ]
    },
    {
      "x": 384,
      "y": 306,
      "size": 1,
      "price": "4683000000000000000000",
      "reserved": "",
      "salt": "0xee3d639039e354e84bb4ece1d695647e12315526728849c9abd244482f32f48c",
      "assetIds": [
        "55464657044963196816950587289035428064568320970692304673817341489687522457603",
        "55464657044963196816950587289035428064568320970692304673817341489687522457602"
      ]
    },
    {
      "x": 385,
      "y": 306,
      "size": 1,
      "price": "4683000000000000000000",
      "reserved": "",
      "salt": "0xd8f1e4f931ba9e66ab8d00622064d58f4b0c71ac39c7280ba121403590817cb0",
      "assetIds": [
        "55464657044963196816950587289035428064568320970692304673817341489687522457601",
        "55464657044963196816950587289035428064568320970692304673817341489687522457603"
      ]
    },
    {
      "x": 386,
      "y": 306,
      "size": 1,
      "price": "4683000000000000000000",
      "reserved": "",
      "salt": "0x3c558196877bcdff0b66eb8f4f7238dae1fe3a37abe0143653412ca0d9bb9ec8",
      "assetIds": [
        "55464657044963196816950587289035428064568320970692304673817341489687522457605",
        "55464657044963196816950587289035428064568320970692304673817341489687522457601"
      ]
    },
    {
      "x": 386,
      "y": 307,
      "size": 1,
      "price": "4683000000000000000000",
      "reserved": "",
      "salt": "0x9f269585968dae15b53ba48d5957c085c999f06646642acdac5ba54239616bdf",
      "assetIds": [
        "55464657044963196816950587289035428064568320970692304673817341489687522457602",
        "55464657044963196816950587289035428064568320970692304673817341489687522457604"
      ]
    },
    {
      "x": 386,
      "y": 308,
      "size": 1,
      "price": "4683000000000000000000",
      "reserved": "",
      "salt": "0x152e0b86b88d4bd663bab5bcf7146912556c1a5062056fada350782fd3f6bf51",
      "assetIds": [
        "55464657044963196816950587289035428064568320970692304673817341489687522457602",
        "55464657044963196816950587289035428064568320970692304673817341489687522457604"
      ]
    },
    {
      "x": 386,
      "y": 309,
      "size": 1,
      "price": "4683000000000000000000",
      "reserved": "",
      "salt": "0x0e08c7d014ab289014219e1d8c84f44ffe4c9f0df0f197306151d421838e3276",
      "assetIds": [
        "55464657044963196816950587289035428064568320970692304673817341489687522457601",
        "55464657044963196816950587289035428064568320970692304673817341489687522457603"
      ]
    },
    {
      "x": 386,
      "y": 310,
      "size": 1,
      "price": "4683000000000000000000",
      "reserved": "",
      "salt": "0xedb2e4a371f272e5ad4aface559cbef88d05f64749a5c8b050742df3adcb8299",
      "assetIds": [
        "55464657044963196816950587289035428064568320970692304673817341489687522457602",
        "55464657044963196816950587289035428064568320970692304673817341489687522457604"
      ]
    },
    {
      "x": 386,
      "y": 311,
      "size": 1,
      "price": "4683000000000000000000",
      "reserved": "",
      "salt": "0x84b6509a3044f2043e11dd4e53946a7d6d4d28cdd3ca526472a9e790e96e5659",
      "assetIds": [
        "55464657044963196816950587289035428064568320970692304673817341489687522457605",
        "55464657044963196816950587289035428064568320970692304673817341489687522457601"
      ]
    },
    {
      "x": 386,
      "y": 312,
      "size": 1,
      "price": "4683000000000000000000",
      "reserved": "",
      "salt": "0x3d98786b6e4b89e376fb8064841636643032306c397d93334f2f86cd6c2af8d2",
      "assetIds": [
        "55464657044963196816950587289035428064568320970692304673817341489687522457602",
        "55464657044963196816950587289035428064568320970692304673817341489687522457604"
      ]
    },
    {
      "x": 387,
      "y": 312,
      "size": 1,
      "price": "4683000000000000000000",
      "reserved": "",
      "salt": "0x2b04bbc28b8a626efbdad0149ff626a9c6c2332a83429ec21012a406604e1755",
      "assetIds": [
        "55464657044963196816950587289035428064568320970692304673817341489687522457603",
        "55464657044963196816950587289035428064568320970692304673817341489687522457602"
      ]
    },
    {
      "x": 388,
      "y": 312,
      "size": 1,
      "price": "4683000000000000000000",
      "reserved": "",
      "salt": "0xb27d1c7d76821844a747d0b8ccf68ed35b57c3cae0544e35cf5c3e68d1a4afa1",
      "assetIds": [
        "55464657044963196816950587289035428064568320970692304673817341489687522457603",
        "55464657044963196816950587289035428064568320970692304673817341489687522457602"
      ]
    },
    {
      "x": 389,
      "y": 312,
      "size": 1,
      "price": "4683000000000000000000",
      "reserved": "",
      "salt": "0x6a0409266c238ffb1abe1fc4048f795fdbf8d69bae69fdc9e1dd54947afe395e",
      "assetIds": [
        "55464657044963196816950587289035428064568320970692304673817341489687522457602",
        "55464657044963196816950587289035428064568320970692304673817341489687522457604"
      ]
    },
    {
      "x": 390,
      "y": 312,
      "size": 1,
      "price": "4683000000000000000000",
      "reserved": "",
      "salt": "0x4fdbec0f9e423f7cf81715bbab47b0261ed1c3423e836d14edca8156bfc61da6",
      "assetIds": [
        "55464657044963196816950587289035428064568320970692304673817341489687522457601",
        "55464657044963196816950587289035428064568320970692304673817341489687522457603"
      ]
    },
    {
      "x": 391,
      "y": 312,
      "size": 1,
      "price": "4683000000000000000000",
      "reserved": "",
      "salt": "0x809fc0f6573a93fd1adb527fb0d5abd446daf6730bebd8b092abade844589633",
      "assetIds": [
        "55464657044963196816950587289035428064568320970692304673817341489687522457603",
        "55464657044963196816950587289035428064568320970692304673817341489687522457602"
      ]
    },
    {
      "x": 392,
      "y": 312,
      "size": 1,
      "price": "4683000000000000000000",
      "reserved": "",
      "salt": "0xc5c370dde38f13e980dcd5703659bc051506bac40905618a91e8d0c4dbdab6e1",
      "assetIds": [
        "55464657044963196816950587289035428064568320970692304673817341489687522457605",
        "55464657044963196816950587289035428064568320970692304673817341489687522457601"
      ]
    },
    {
      "x": 392,
      "y": 313,
      "size": 1,
      "price": "4683000000000000000000",
      "reserved": "",
      "salt": "0x049a091d9fbc61772c974a4cfe1e999b372621277440d1f601866ce2803d3e1a",
      "assetIds": [
        "55464657044963196816950587289035428064568320970692304673817341489687522457602",
        "55464657044963196816950587289035428064568320970692304673817341489687522457604"
      ]
    },
    {
      "x": 393,
      "y": 313,
      "size": 1,
      "price": "4683000000000000000000",
      "reserved": "",
      "salt": "0x2bbe92bb57c2211b3d52dc908dbf99991148bd40e131cf1a492e379ae0998aa1",
      "assetIds": [
        "55464657044963196816950587289035428064568320970692304673817341489687522457602",
        "55464657044963196816950587289035428064568320970692304673817341489687522457604"
      ]
    },
    {
      "x": 394,
      "y": 313,
      "size": 1,
      "price": "4683000000000000000000",
      "reserved": "",
      "salt": "0xe930f76e088e68b8d7234c39439ecf44a7c2c1a343017a94fc1ce72f266a4766",
      "assetIds": [
        "55464657044963196816950587289035428064568320970692304673817341489687522457605",
        "55464657044963196816950587289035428064568320970692304673817341489687522457601"
      ]
    },
    {
      "x": 395,
      "y": 313,
      "size": 1,
      "price": "4683000000000000000000",
      "reserved": "",
      "salt": "0x1ac84ad3bcd9ce7c4a8fb44aaf971f57c9b26db967bfcd78cea875023276c9d6",
      "assetIds": [
        "55464657044963196816950587289035428064568320970692304673817341489687522457602",
        "55464657044963196816950587289035428064568320970692304673817341489687522457604"
      ]
    },
    {
      "x": 395,
      "y": 312,
      "size": 1,
      "price": "4683000000000000000000",
      "reserved": "",
      "salt": "0xbcfb52d74d1c528a3a9b4d8b6c608346108df7dad112ffe9544347c5b4966080",
      "assetIds": [
        "55464657044963196816950587289035428064568320970692304673817341489687522457602",
        "55464657044963196816950587289035428064568320970692304673817341489687522457604"
      ]
    },
    {
      "x": 394,
      "y": 312,
      "size": 1,
      "price": "4683000000000000000000",
      "reserved": "",
      "salt": "0xba1c04e17470e6393d92437ffe81db9ad7a387a016fbab848e3e25b07ad12c37",
      "assetIds": [
        "55464657044963196816950587289035428064568320970692304673817341489687522457601",
        "55464657044963196816950587289035428064568320970692304673817341489687522457603"
      ]
    },
    {
      "x": 393,
      "y": 312,
      "size": 1,
      "price": "4683000000000000000000",
      "reserved": "",
      "salt": "0x518e63e97a191ea862aeb6ddc7a99f777149fe2c2b0c17a95ea6c99ec09a64bc",
      "assetIds": [
        "55464657044963196816950587289035428064568320970692304673817341489687522457602",
        "55464657044963196816950587289035428064568320970692304673817341489687522457604"
      ]
    },
    {
      "x": 371,
      "y": 306,
      "size": 1,
      "price": "4683000000000000000000",
      "reserved": "",
      "salt": "0xa332b598cc829396a2a73cf7f1343a37931de9254e8590d0b4bffdfdeae60332",
      "assetIds": [
        "55464657044963196816950587289035428064568320970692304673817341489687522457603",
        "55464657044963196816950587289035428064568320970692304673817341489687522457602"
      ]
    },
    {
      "x": 370,
      "y": 306,
      "size": 1,
      "price": "4683000000000000000000",
      "reserved": "",
      "salt": "0x12c236ae792237a11d80b647ea6956af3738c33a2671266ca7078e340ac0d7bd",
      "assetIds": [
        "55464657044963196816950587289035428064568320970692304673817341489687522457603",
        "55464657044963196816950587289035428064568320970692304673817341489687522457602"
      ]
    },
    {
      "x": 369,
      "y": 306,
      "size": 1,
      "price": "4683000000000000000000",
      "reserved": "",
      "salt": "0xe750208acfd0cb9b2fd8ca5abb36af504279f9896db8bab02e47f50d0dbef022",
      "assetIds": [
        "55464657044963196816950587289035428064568320970692304673817341489687522457601",
        "55464657044963196816950587289035428064568320970692304673817341489687522457603"
      ]
    },
    {
      "x": 369,
      "y": 307,
      "size": 1,
      "price": "4683000000000000000000",
      "reserved": "",
      "salt": "0x6d42064dd937584e0610dec08a65b8c686d7e7afe62729f25237055c51152d38",
      "assetIds": [
        "55464657044963196816950587289035428064568320970692304673817341489687522457605",
        "55464657044963196816950587289035428064568320970692304673817341489687522457601"
      ]
    },
    {
      "x": 368,
      "y": 307,
      "size": 1,
      "price": "4683000000000000000000",
      "reserved": "",
      "salt": "0x32f4c6a576f25d5b9db0fd8e1c41e0482919700a451fc0fcca381cb7e4f9e97e",
      "assetIds": [
        "55464657044963196816950587289035428064568320970692304673817341489687522457602",
        "55464657044963196816950587289035428064568320970692304673817341489687522457604"
      ]
    },
    {
      "x": 367,
      "y": 307,
      "size": 1,
      "price": "4683000000000000000000",
      "reserved": "",
      "salt": "0x8d8977f0529c1c40d7795c3853c96215ee76a500049caa34f4e50a6850337b0c",
      "assetIds": [
        "55464657044963196816950587289035428064568320970692304673817341489687522457601",
        "55464657044963196816950587289035428064568320970692304673817341489687522457603"
      ]
    },
    {
      "x": 366,
      "y": 307,
      "size": 1,
      "price": "4683000000000000000000",
      "reserved": "",
      "salt": "0xf9158f4d7cd0cf5a39e8dd1b81c863474b312f07f5dea6ead9c680458209bef1",
      "assetIds": [
        "55464657044963196816950587289035428064568320970692304673817341489687522457605",
        "55464657044963196816950587289035428064568320970692304673817341489687522457601"
      ]
    },
    {
      "x": 366,
      "y": 308,
      "size": 1,
      "price": "4683000000000000000000",
      "reserved": "",
      "salt": "0x9939574906ed8f28a1946bac94e8e7677e9510d61e3da2dfed0516b49d5d3613",
      "assetIds": [
        "55464657044963196816950587289035428064568320970692304673817341489687522457602",
        "55464657044963196816950587289035428064568320970692304673817341489687522457604"
      ]
    },
    {
      "x": 366,
      "y": 309,
      "size": 1,
      "price": "4683000000000000000000",
      "reserved": "",
      "salt": "0xbeb4db9945116a83071364c09fb1ba186c78b3d10794dbdff2ecdb683fe61fa4",
      "assetIds": [
        "55464657044963196816950587289035428064568320970692304673817341489687522457601",
        "55464657044963196816950587289035428064568320970692304673817341489687522457603"
      ]
    },
    {
      "x": 365,
      "y": 309,
      "size": 1,
      "price": "4683000000000000000000",
      "reserved": "",
      "salt": "0xacb3fbc4387bc198842afa9f5ad33d6a9bcf125033335d896b31c78319e048ea",
      "assetIds": [
        "55464657044963196816950587289035428064568320970692304673817341489687522457602",
        "55464657044963196816950587289035428064568320970692304673817341489687522457604"
      ]
    },
    {
      "x": 364,
      "y": 309,
      "size": 1,
      "price": "4683000000000000000000",
      "reserved": "",
      "salt": "0xd9a39b6f9d0440c96adfac4dfebe7d2bb3e8ce315a922db40d7dfc4a0a63869b",
      "assetIds": [
        "55464657044963196816950587289035428064568320970692304673817341489687522457602",
        "55464657044963196816950587289035428064568320970692304673817341489687522457604"
      ]
    },
    {
      "x": 364,
      "y": 310,
      "size": 1,
      "price": "4683000000000000000000",
      "reserved": "",
      "salt": "0xb7efd49bc2cf53dbd870a446020549259b1c60915e87997de74d1b7740fbf3f5",
      "assetIds": [
        "55464657044963196816950587289035428064568320970692304673817341489687522457603",
        "55464657044963196816950587289035428064568320970692304673817341489687522457602"
      ]
    },
    {
      "x": 363,
      "y": 310,
      "size": 1,
      "price": "4683000000000000000000",
      "reserved": "",
      "salt": "0xf3421cb39dd29553f571dce7c47725a6d6e2efd87da06053aa049015ecace4ce",
      "assetIds": [
        "55464657044963196816950587289035428064568320970692304673817341489687522457601",
        "55464657044963196816950587289035428064568320970692304673817341489687522457603"
      ]
    },
    {
      "x": 362,
      "y": 310,
      "size": 1,
      "price": "4683000000000000000000",
      "reserved": "",
      "salt": "0x8e28b584636b80e5c4b931e34aa690f4be7e448d1942eb783b8b78b6f5d54909",
      "assetIds": [
        "55464657044963196816950587289035428064568320970692304673817341489687522457603",
        "55464657044963196816950587289035428064568320970692304673817341489687522457602"
      ]
    },
    {
      "x": 362,
      "y": 309,
      "size": 1,
      "price": "4683000000000000000000",
      "reserved": "",
      "salt": "0x2ff02bdce952c0ef64fd9e8948c59d3e07af677c6b6ce857bb8eac3a1755b6d7",
      "assetIds": [
        "55464657044963196816950587289035428064568320970692304673817341489687522457605",
        "55464657044963196816950587289035428064568320970692304673817341489687522457601"
      ]
    },
    {
      "x": 361,
      "y": 309,
      "size": 1,
      "price": "4683000000000000000000",
      "reserved": "",
      "salt": "0x70cf06e86853eff91a425249425139f4744f93929f6b1882906e490866a3ded4",
      "assetIds": [
        "55464657044963196816950587289035428064568320970692304673817341489687522457601",
        "55464657044963196816950587289035428064568320970692304673817341489687522457603"
      ]
    },
    {
      "x": 360,
      "y": 309,
      "size": 1,
      "price": "4683000000000000000000",
      "reserved": "",
      "salt": "0x6d25e0f62ff8adf8b41c4de3238a653ba767bb4c4bc3b77b2c82d1d9eb417c2a",
      "assetIds": [
        "55464657044963196816950587289035428064568320970692304673817341489687522457602",
        "55464657044963196816950587289035428064568320970692304673817341489687522457604"
      ]
    },
    {
      "x": 359,
      "y": 309,
      "size": 1,
      "price": "4683000000000000000000",
      "reserved": "",
      "salt": "0xc677bf7ce1ad3cdc1c3b58bb3abd054ab675284cb180d11575abd27b18847ca9",
      "assetIds": [
        "55464657044963196816950587289035428064568320970692304673817341489687522457601",
        "55464657044963196816950587289035428064568320970692304673817341489687522457603"
      ]
    },
    {
      "x": 358,
      "y": 309,
      "size": 1,
      "price": "4683000000000000000000",
      "reserved": "",
      "salt": "0xa824ce5e1aa1d61f932625158def78dbbdf8260de269fee91595eacfbfab5180",
      "assetIds": [
        "55464657044963196816950587289035428064568320970692304673817341489687522457603",
        "55464657044963196816950587289035428064568320970692304673817341489687522457602"
      ]
    },
    {
      "x": 358,
      "y": 310,
      "size": 1,
      "price": "4683000000000000000000",
      "reserved": "",
      "salt": "0xa053e0e0d5a538a968194afad3682deeee59b0f498bb64e706f5420394ac0429",
      "assetIds": [
        "55464657044963196816950587289035428064568320970692304673817341489687522457603",
        "55464657044963196816950587289035428064568320970692304673817341489687522457602"
      ]
    },
    {
      "x": 357,
      "y": 310,
      "size": 1,
      "price": "4683000000000000000000",
      "reserved": "",
      "salt": "0xba973c8434448f48f1d652085906f3777edb9b1463dcf6bce6787ff378749481",
      "assetIds": [
        "55464657044963196816950587289035428064568320970692304673817341489687522457603",
        "55464657044963196816950587289035428064568320970692304673817341489687522457602"
      ]
    },
    {
      "x": 357,
      "y": 311,
      "size": 1,
      "price": "4683000000000000000000",
      "reserved": "",
      "salt": "0xbf60066eed1c309ce876ed08dafae99234060a5362dfd63cf5d597b3093f9e81",
      "assetIds": [
        "55464657044963196816950587289035428064568320970692304673817341489687522457605",
        "55464657044963196816950587289035428064568320970692304673817341489687522457601"
      ]
    },
    {
      "x": 357,
      "y": 309,
      "size": 1,
      "price": "4683000000000000000000",
      "reserved": "",
      "salt": "0xcc9d5e698b2cffbbc8fcd02cad9bdc38de48d04c8f934b6a9daca617b1457cd0",
      "assetIds": [
        "55464657044963196816950587289035428064568320970692304673817341489687522457601",
        "55464657044963196816950587289035428064568320970692304673817341489687522457603"
      ]
    },
    {
      "x": 363,
      "y": 309,
      "size": 1,
      "price": "4683000000000000000000",
      "reserved": "",
      "salt": "0x955e6c66dbfa966d9b713aea19f75480420e94fef06687c4ade70a40aaae6e01",
      "assetIds": [
        "55464657044963196816950587289035428064568320970692304673817341489687522457601",
        "55464657044963196816950587289035428064568320970692304673817341489687522457603"
      ]
    },
    {
      "x": 359,
      "y": 310,
      "size": 1,
      "price": "4683000000000000000000",
      "reserved": "",
      "salt": "0xab49b81c343c945fbaf89412eb28e1bb732c341364409d7b88b02a36cc511cee",
      "assetIds": [
        "55464657044963196816950587289035428064568320970692304673817341489687522457602",
        "55464657044963196816950587289035428064568320970692304673817341489687522457604"
      ]
    },
    {
      "x": 360,
      "y": 310,
      "size": 1,
      "price": "4683000000000000000000",
      "reserved": "",
      "salt": "0x2afc9011b7fda69fd59631be970413b2acd02382216586f9347f9952e5cd89ba",
      "assetIds": [
        "55464657044963196816950587289035428064568320970692304673817341489687522457601",
        "55464657044963196816950587289035428064568320970692304673817341489687522457603"
      ]
    },
    {
      "x": 361,
      "y": 310,
      "size": 1,
      "price": "4683000000000000000000",
      "reserved": "",
      "salt": "0xb5b27783c8789993cdcf4e90783291ecb105dd5378e76f8547fb986f57c38a68",
      "assetIds": [
        "55464657044963196816950587289035428064568320970692304673817341489687522457605",
        "55464657044963196816950587289035428064568320970692304673817341489687522457601"
      ]
    },
    {
      "x": 358,
      "y": 311,
      "size": 1,
      "price": "4683000000000000000000",
      "reserved": "",
      "salt": "0x1c1f4c8011387330b611f5cf33e8f96913ab834498d434ac0b2f0933fd8e1f43",
      "assetIds": [
        "55464657044963196816950587289035428064568320970692304673817341489687522457605",
        "55464657044963196816950587289035428064568320970692304673817341489687522457601"
      ]
    },
    {
      "x": 359,
      "y": 311,
      "size": 1,
      "price": "4683000000000000000000",
      "reserved": "",
      "salt": "0x2383cbd2249f50371d3eeb85d8951e25d37502edb30508491eee0ae2eb671338",
      "assetIds": [
        "55464657044963196816950587289035428064568320970692304673817341489687522457601",
        "55464657044963196816950587289035428064568320970692304673817341489687522457603"
      ]
    },
    {
      "x": 360,
      "y": 311,
      "size": 1,
      "price": "4683000000000000000000",
      "reserved": "",
      "salt": "0x689642b5fbf3ba4884a239fbf484dd23fa5c5c02f607e1aa1390e06cc27ffdb3",
      "assetIds": [
        "55464657044963196816950587289035428064568320970692304673817341489687522457601",
        "55464657044963196816950587289035428064568320970692304673817341489687522457603"
      ]
    },
    {
      "x": 361,
      "y": 311,
      "size": 1,
      "price": "4683000000000000000000",
      "reserved": "",
      "salt": "0x62b22a3bac9b8d44b7c5b2a13bfe44c7dd4a7b7984544c3af039827114ea5137",
      "assetIds": [
        "55464657044963196816950587289035428064568320970692304673817341489687522457605",
        "55464657044963196816950587289035428064568320970692304673817341489687522457601"
      ]
    },
    {
      "x": 362,
      "y": 311,
      "size": 1,
      "price": "4683000000000000000000",
      "reserved": "",
      "salt": "0x54c3251e66de3c73c3660833237d89932ac13771e855d49e6aed52fdb6bea645",
      "assetIds": [
        "55464657044963196816950587289035428064568320970692304673817341489687522457603",
        "55464657044963196816950587289035428064568320970692304673817341489687522457602"
      ]
    },
    {
      "x": 363,
      "y": 311,
      "size": 1,
      "price": "4683000000000000000000",
      "reserved": "",
      "salt": "0xadd74432bddeba54b82590223ce755da1b6bb12290ccdd94d1f48350fbcea76b",
      "assetIds": [
        "55464657044963196816950587289035428064568320970692304673817341489687522457603",
        "55464657044963196816950587289035428064568320970692304673817341489687522457602"
      ]
    },
    {
      "x": 364,
      "y": 311,
      "size": 1,
      "price": "4683000000000000000000",
      "reserved": "",
      "salt": "0x7aae4c5a07b1202030bdd1d3c211a9964fab1d559b997484b3ccadde89fe20be",
      "assetIds": [
        "55464657044963196816950587289035428064568320970692304673817341489687522457602",
        "55464657044963196816950587289035428064568320970692304673817341489687522457604"
      ]
    },
    {
      "x": 365,
      "y": 311,
      "size": 1,
      "price": "4683000000000000000000",
      "reserved": "",
      "salt": "0x1c641b249f901f2984a6364edfe0839e248c38dfb4e436834b3ac96ed134db8c",
      "assetIds": [
        "55464657044963196816950587289035428064568320970692304673817341489687522457605",
        "55464657044963196816950587289035428064568320970692304673817341489687522457601"
      ]
    },
    {
      "x": 366,
      "y": 311,
      "size": 1,
      "price": "4683000000000000000000",
      "reserved": "",
      "salt": "0xad4aea120d94ba4078ed4a7125f03c291b1cba3eab6c90ae69b59186bb54a047",
      "assetIds": [
        "55464657044963196816950587289035428064568320970692304673817341489687522457601",
        "55464657044963196816950587289035428064568320970692304673817341489687522457603"
      ]
    },
    {
      "x": 367,
      "y": 311,
      "size": 1,
      "price": "4683000000000000000000",
      "reserved": "",
      "salt": "0x9bde80ceaa7aba2dba488bf0f4d6c6144570ccba9f7f11c43be11306fd17c29a",
      "assetIds": [
        "55464657044963196816950587289035428064568320970692304673817341489687522457601",
        "55464657044963196816950587289035428064568320970692304673817341489687522457603"
      ]
    },
    {
      "x": 368,
      "y": 311,
      "size": 1,
      "price": "4683000000000000000000",
      "reserved": "",
      "salt": "0xc57d8fb3e48145671bb33640dcac50b444bcdf1913d222fab8a55fcf9ffa2823",
      "assetIds": [
        "55464657044963196816950587289035428064568320970692304673817341489687522457602",
        "55464657044963196816950587289035428064568320970692304673817341489687522457604"
      ]
    },
    {
      "x": 369,
      "y": 311,
      "size": 1,
      "price": "4683000000000000000000",
      "reserved": "",
      "salt": "0x89e057e58aee4ee2c74addf754b34bc591df368f4e2232e3334de518326d919b",
      "assetIds": [
        "55464657044963196816950587289035428064568320970692304673817341489687522457602",
        "55464657044963196816950587289035428064568320970692304673817341489687522457604"
      ]
    },
    {
      "x": 370,
      "y": 311,
      "size": 1,
      "price": "4683000000000000000000",
      "reserved": "",
      "salt": "0x5182eb8b0c342402b713e462b8887e66ea4064e5b2574eff1fbd9926cc2e1f24",
      "assetIds": [
        "55464657044963196816950587289035428064568320970692304673817341489687522457602",
        "55464657044963196816950587289035428064568320970692304673817341489687522457604"
      ]
    },
    {
      "x": 371,
      "y": 311,
      "size": 1,
      "price": "4683000000000000000000",
      "reserved": "",
      "salt": "0xf8f34f65d8cb299f7e8d883d6cad820f5c7e53eed588d0bd26ce24f4e1356bd5",
      "assetIds": [
        "55464657044963196816950587289035428064568320970692304673817341489687522457603",
        "55464657044963196816950587289035428064568320970692304673817341489687522457602"
      ]
    },
    {
      "x": 371,
      "y": 310,
      "size": 1,
      "price": "4683000000000000000000",
      "reserved": "",
      "salt": "0x7b63d9a7ddd3ff81244cb853cec1e2e8be4b13d493033e4d69a1068fd009815e",
      "assetIds": [
        "55464657044963196816950587289035428064568320970692304673817341489687522457603",
        "55464657044963196816950587289035428064568320970692304673817341489687522457602"
      ]
    },
    {
      "x": 371,
      "y": 309,
      "size": 1,
      "price": "4683000000000000000000",
      "reserved": "",
      "salt": "0x323c979ae714e61f11b07982ffcda287baef55cfc6550fe58e5eaa8fa692ceec",
      "assetIds": [
        "55464657044963196816950587289035428064568320970692304673817341489687522457605",
        "55464657044963196816950587289035428064568320970692304673817341489687522457601"
      ]
    },
    {
      "x": 371,
      "y": 308,
      "size": 1,
      "price": "4683000000000000000000",
      "reserved": "",
      "salt": "0xdb316ee1ad3eef77f6df5ba0d7d7ede7d0757079a3a1b1d0c514a25b46839e52",
      "assetIds": [
        "55464657044963196816950587289035428064568320970692304673817341489687522457601",
        "55464657044963196816950587289035428064568320970692304673817341489687522457603"
      ]
    },
    {
      "x": 371,
      "y": 307,
      "size": 1,
      "price": "4683000000000000000000",
      "reserved": "",
      "salt": "0x7ac18880a919723104d3e780d01f581c3b2e35623d2bb529fd7b0d20b56a5cd7",
      "assetIds": [
        "55464657044963196816950587289035428064568320970692304673817341489687522457605",
        "55464657044963196816950587289035428064568320970692304673817341489687522457601"
      ]
    },
    {
      "x": 370,
      "y": 307,
      "size": 1,
      "price": "4683000000000000000000",
      "reserved": "",
      "salt": "0xa9c63bfd0929258277abb4c90a5588629167844cde4200055a52dee491c81f27",
      "assetIds": [
        "55464657044963196816950587289035428064568320970692304673817341489687522457601",
        "55464657044963196816950587289035428064568320970692304673817341489687522457603"
      ]
    },
    {
      "x": 369,
      "y": 308,
      "size": 1,
      "price": "4683000000000000000000",
      "reserved": "",
      "salt": "0xe850043e4dfef406ec38aeeb56e1110b6238bd84e085bd7aca37408e6f7a77fd",
      "assetIds": [
        "55464657044963196816950587289035428064568320970692304673817341489687522457605",
        "55464657044963196816950587289035428064568320970692304673817341489687522457601"
      ]
    },
    {
      "x": 369,
      "y": 309,
      "size": 1,
      "price": "4683000000000000000000",
      "reserved": "",
      "salt": "0x5216c9d052f565a88ca03540afbaa213f8d698ab11bd6103abfafaa785ee3742",
      "assetIds": [
        "55464657044963196816950587289035428064568320970692304673817341489687522457605",
        "55464657044963196816950587289035428064568320970692304673817341489687522457601"
      ]
    },
    {
      "x": 369,
      "y": 310,
      "size": 1,
      "price": "4683000000000000000000",
      "reserved": "",
      "salt": "0xff1b36941b40da5a97ada3f190b77117691f04cb02e5dfc1443d5479249d97ff",
      "assetIds": [
        "55464657044963196816950587289035428064568320970692304673817341489687522457603",
        "55464657044963196816950587289035428064568320970692304673817341489687522457602"
      ]
    },
    {
      "x": 368,
      "y": 310,
      "size": 1,
      "price": "4683000000000000000000",
      "reserved": "",
      "salt": "0x25cd73c8aea07389c5294fb0b70304a7a1fba43bfbbb2d0ea423d78a89e3f1e2",
      "assetIds": [
        "55464657044963196816950587289035428064568320970692304673817341489687522457601",
        "55464657044963196816950587289035428064568320970692304673817341489687522457603"
      ]
    },
    {
      "x": 367,
      "y": 310,
      "size": 1,
      "price": "4683000000000000000000",
      "reserved": "",
      "salt": "0x0199cae7ce4ef43e1c281d1de33530975e685c895c149cf9ad2b8f2c9fa270db",
      "assetIds": [
        "55464657044963196816950587289035428064568320970692304673817341489687522457603",
        "55464657044963196816950587289035428064568320970692304673817341489687522457602"
      ]
    },
    {
      "x": 367,
      "y": 309,
      "size": 1,
      "price": "4683000000000000000000",
      "reserved": "",
      "salt": "0x99bde4d5fba87c2306bd6f6d6e88eb9225eae1bc85f797fc4702db9b932057e7",
      "assetIds": [
        "55464657044963196816950587289035428064568320970692304673817341489687522457605",
        "55464657044963196816950587289035428064568320970692304673817341489687522457601"
      ]
    },
    {
      "x": 366,
      "y": 310,
      "size": 1,
      "price": "4683000000000000000000",
      "reserved": "",
      "salt": "0x0747ef0068721d45a38114f66a399d996c94bd0fecfe468a82988df6409daced",
      "assetIds": [
        "55464657044963196816950587289035428064568320970692304673817341489687522457602",
        "55464657044963196816950587289035428064568320970692304673817341489687522457604"
      ]
    },
    {
      "x": 365,
      "y": 310,
      "size": 1,
      "price": "4683000000000000000000",
      "reserved": "",
      "salt": "0xf459b20b47bf35162fa31f6d3550fabbb5274cee7103fd8fb0090bc8418ed7bf",
      "assetIds": [
        "55464657044963196816950587289035428064568320970692304673817341489687522457603",
        "55464657044963196816950587289035428064568320970692304673817341489687522457602"
      ]
    },
    {
      "x": 368,
      "y": 309,
      "size": 1,
      "price": "4683000000000000000000",
      "reserved": "",
      "salt": "0xfdd8e127ea91ee0418c20748701fe5ff47ff083e9e85f7c12d07291637a4f8cf",
      "assetIds": [
        "55464657044963196816950587289035428064568320970692304673817341489687522457601",
        "55464657044963196816950587289035428064568320970692304673817341489687522457603"
      ]
    },
    {
      "x": 368,
      "y": 308,
      "size": 1,
      "price": "4683000000000000000000",
      "reserved": "",
      "salt": "0xb3ab11985207b958d38e7dc5c9e94e48dbe6dfd3a91ee8b5e88dcd58f8b1121c",
      "assetIds": [
        "55464657044963196816950587289035428064568320970692304673817341489687522457605",
        "55464657044963196816950587289035428064568320970692304673817341489687522457601"
      ]
    },
    {
      "x": 367,
      "y": 308,
      "size": 1,
      "price": "4683000000000000000000",
      "reserved": "",
      "salt": "0xc11eaaf4ed45d3cc0b011e2a9f0d249d3e1a89b61f87c5a22b4516e806133815",
      "assetIds": [
        "55464657044963196816950587289035428064568320970692304673817341489687522457601",
        "55464657044963196816950587289035428064568320970692304673817341489687522457603"
      ]
    },
    {
      "x": 370,
      "y": 308,
      "size": 1,
      "price": "4683000000000000000000",
      "reserved": "",
      "salt": "0x17945ef8b7ece08327411f4d2e2a02eb17a363cbe4a7fa911c70c79486f0b956",
      "assetIds": [
        "55464657044963196816950587289035428064568320970692304673817341489687522457605",
        "55464657044963196816950587289035428064568320970692304673817341489687522457601"
      ]
    },
    {
      "x": 370,
      "y": 309,
      "size": 1,
      "price": "4683000000000000000000",
      "reserved": "",
      "salt": "0xd2cd5df03dd708f32fd112569e625619c216c1158154ab28db83e21f293c812a",
      "assetIds": [
        "55464657044963196816950587289035428064568320970692304673817341489687522457601",
        "55464657044963196816950587289035428064568320970692304673817341489687522457603"
      ]
    },
    {
      "x": 370,
      "y": 310,
      "size": 1,
      "price": "4683000000000000000000",
      "reserved": "",
      "salt": "0x45073c0814f17aeaf1511451549ac98747529ca5add6d3208b07c9099bd542e5",
      "assetIds": [
        "55464657044963196816950587289035428064568320970692304673817341489687522457603",
        "55464657044963196816950587289035428064568320970692304673817341489687522457602"
      ]
    },
    {
      "x": 378,
      "y": 311,
      "size": 1,
      "price": "4683000000000000000000",
      "reserved": "",
      "salt": "0xcc446fdb9b03c26a00fa3ad9a922513d880e52d4d58736835ae028560cef26f7",
      "assetIds": [
        "55464657044963196816950587289035428064568320970692304673817341489687522457602",
        "55464657044963196816950587289035428064568320970692304673817341489687522457604"
      ]
    },
    {
      "x": 379,
      "y": 311,
      "size": 1,
      "price": "4683000000000000000000",
      "reserved": "",
      "salt": "0x0be825f9d8e6763eed40694ea6bc2620276fdc9f6d00ba9c4f3ec0f17f25c727",
      "assetIds": [
        "55464657044963196816950587289035428064568320970692304673817341489687522457605",
        "55464657044963196816950587289035428064568320970692304673817341489687522457601"
      ]
    },
    {
      "x": 379,
      "y": 310,
      "size": 1,
      "price": "4683000000000000000000",
      "reserved": "",
      "salt": "0xe5edeea07547d1346deb3f951ad8a0e423c1b0128ccd7e610e70b367a9352702",
      "assetIds": [
        "55464657044963196816950587289035428064568320970692304673817341489687522457602",
        "55464657044963196816950587289035428064568320970692304673817341489687522457604"
      ]
    },
    {
      "x": 380,
      "y": 310,
      "size": 1,
      "price": "4683000000000000000000",
      "reserved": "",
      "salt": "0x80e724f690690b4f839669207bd29af8b7a77a46fb2e0edfa0f951f035104d84",
      "assetIds": [
        "55464657044963196816950587289035428064568320970692304673817341489687522457601",
        "55464657044963196816950587289035428064568320970692304673817341489687522457603"
      ]
    },
    {
      "x": 381,
      "y": 310,
      "size": 1,
      "price": "4683000000000000000000",
      "reserved": "",
      "salt": "0xb554624847f36c75944926c5859d26dcc9e05f1670ad8792642e5bbd1654fd13",
      "assetIds": [
        "55464657044963196816950587289035428064568320970692304673817341489687522457601",
        "55464657044963196816950587289035428064568320970692304673817341489687522457603"
      ]
    },
    {
      "x": 382,
      "y": 310,
      "size": 1,
      "price": "4683000000000000000000",
      "reserved": "",
      "salt": "0x52cbaa68fb472ba789346e19fc20a0fbf2449d5370348f85a1faf2b20752280e",
      "assetIds": [
        "55464657044963196816950587289035428064568320970692304673817341489687522457605",
        "55464657044963196816950587289035428064568320970692304673817341489687522457601"
      ]
    },
    {
      "x": 383,
      "y": 310,
      "size": 1,
      "price": "4683000000000000000000",
      "reserved": "",
      "salt": "0x08e812021ea1b66e09396851d9ea83f8a2ac201520d850881248bb3f2cc34efb",
      "assetIds": [
        "55464657044963196816950587289035428064568320970692304673817341489687522457603",
        "55464657044963196816950587289035428064568320970692304673817341489687522457602"
      ]
    },
    {
      "x": 384,
      "y": 310,
      "size": 1,
      "price": "4683000000000000000000",
      "reserved": "",
      "salt": "0x16c7932a3c6497e23c391249d848a685754ce7e3cb5dfadb092da2cdecdaa38b",
      "assetIds": [
        "55464657044963196816950587289035428064568320970692304673817341489687522457605",
        "55464657044963196816950587289035428064568320970692304673817341489687522457601"
      ]
    },
    {
      "x": 385,
      "y": 310,
      "size": 1,
      "price": "4683000000000000000000",
      "reserved": "",
      "salt": "0x874228808e2df8c04185e80fbbcd1188614108f38f188818375efaceccc29ac6",
      "assetIds": [
        "55464657044963196816950587289035428064568320970692304673817341489687522457603",
        "55464657044963196816950587289035428064568320970692304673817341489687522457602"
      ]
    },
    {
      "x": 385,
      "y": 309,
      "size": 1,
      "price": "4683000000000000000000",
      "reserved": "",
      "salt": "0x566dcb29a0413a85fa26a3d0a41508336f7ef0870c24a0ff846a2014d2a67745",
      "assetIds": [
        "55464657044963196816950587289035428064568320970692304673817341489687522457603",
        "55464657044963196816950587289035428064568320970692304673817341489687522457602"
      ]
    },
    {
      "x": 385,
      "y": 308,
      "size": 1,
      "price": "4683000000000000000000",
      "reserved": "",
      "salt": "0xe0dd0e242cac1758ada1e44e915b66b78e5a2fbcf8e8b87eb41d98ab4929e421",
      "assetIds": [
        "55464657044963196816950587289035428064568320970692304673817341489687522457601",
        "55464657044963196816950587289035428064568320970692304673817341489687522457603"
      ]
    },
    {
      "x": 385,
      "y": 307,
      "size": 1,
      "price": "4683000000000000000000",
      "reserved": "",
      "salt": "0x04ad4c0e19c894736ebe29e5076445182d63398fa23b83d0e6f27c166aebbec9",
      "assetIds": [
        "55464657044963196816950587289035428064568320970692304673817341489687522457605",
        "55464657044963196816950587289035428064568320970692304673817341489687522457601"
      ]
    },
    {
      "x": 383,
      "y": 307,
      "size": 1,
      "price": "4683000000000000000000",
      "reserved": "",
      "salt": "0xc3f417a53a9c936eb6854c0c5c19e909a7bd221aef8f9553a1beb53f4a84fe61",
      "assetIds": [
        "55464657044963196816950587289035428064568320970692304673817341489687522457601",
        "55464657044963196816950587289035428064568320970692304673817341489687522457603"
      ]
    },
    {
      "x": 382,
      "y": 307,
      "size": 1,
      "price": "4683000000000000000000",
      "reserved": "",
      "salt": "0x82d935a386a8998a33a0cf40ee72d92060c744a76141ff67e298c456321f9b26",
      "assetIds": [
        "55464657044963196816950587289035428064568320970692304673817341489687522457602",
        "55464657044963196816950587289035428064568320970692304673817341489687522457604"
      ]
    },
    {
      "x": 381,
      "y": 307,
      "size": 1,
      "price": "4683000000000000000000",
      "reserved": "",
      "salt": "0x2ded4cce696ab39640fc4402aa6491abf988c52d901c62b3de02ff495626fa6e",
      "assetIds": [
        "55464657044963196816950587289035428064568320970692304673817341489687522457605",
        "55464657044963196816950587289035428064568320970692304673817341489687522457601"
      ]
    },
    {
      "x": 380,
      "y": 307,
      "size": 1,
      "price": "4683000000000000000000",
      "reserved": "",
      "salt": "0x14f366ae09785a5ab0a55e2066118689b7de0202ba04fd7f2fe687f427efa4b5",
      "assetIds": [
        "55464657044963196816950587289035428064568320970692304673817341489687522457602",
        "55464657044963196816950587289035428064568320970692304673817341489687522457604"
      ]
    },
    {
      "x": 379,
      "y": 307,
      "size": 1,
      "price": "4683000000000000000000",
      "reserved": "",
      "salt": "0x806d42dfb1df6524b541365712895d7daa06d1f461b1482e726ddbb8c1b06159",
      "assetIds": [
        "55464657044963196816950587289035428064568320970692304673817341489687522457605",
        "55464657044963196816950587289035428064568320970692304673817341489687522457601"
      ]
    },
    {
      "x": 378,
      "y": 307,
      "size": 1,
      "price": "4683000000000000000000",
      "reserved": "",
      "salt": "0xff1c162f51f3ec3a72fdc1eba18048f33070c6ae137d8a0006ef04fe9d256893",
      "assetIds": [
        "55464657044963196816950587289035428064568320970692304673817341489687522457601",
        "55464657044963196816950587289035428064568320970692304673817341489687522457603"
      ]
    },
    {
      "x": 378,
      "y": 308,
      "size": 1,
      "price": "4683000000000000000000",
      "reserved": "",
      "salt": "0xe6031c6f643bb1366105c1a2a409f76c32f1fae396da928d52e8202f4026a25f",
      "assetIds": [
        "55464657044963196816950587289035428064568320970692304673817341489687522457601",
        "55464657044963196816950587289035428064568320970692304673817341489687522457603"
      ]
    },
    {
      "x": 378,
      "y": 309,
      "size": 1,
      "price": "4683000000000000000000",
      "reserved": "",
      "salt": "0xbe36b0af78ebff9293dbabdf8d6c316c7118e0ac54d010676f4dad563f761117",
      "assetIds": [
        "55464657044963196816950587289035428064568320970692304673817341489687522457605",
        "55464657044963196816950587289035428064568320970692304673817341489687522457601"
      ]
    },
    {
      "x": 378,
      "y": 310,
      "size": 1,
      "price": "4683000000000000000000",
      "reserved": "",
      "salt": "0x4baa27583986f296db98a8679b4ddc346208a9b31dc7f7e8ed066ab0b608e1d8",
      "assetIds": [
        "55464657044963196816950587289035428064568320970692304673817341489687522457602",
        "55464657044963196816950587289035428064568320970692304673817341489687522457604"
      ]
    },
    {
      "x": 379,
      "y": 308,
      "size": 1,
      "price": "4683000000000000000000",
      "reserved": "",
      "salt": "0xa44339355073675b31607c0cab7c631fdf22e77608065e525528f479d20bd8b9",
      "assetIds": [
        "55464657044963196816950587289035428064568320970692304673817341489687522457605",
        "55464657044963196816950587289035428064568320970692304673817341489687522457601"
      ]
    },
    {
      "x": 380,
      "y": 308,
      "size": 1,
      "price": "4683000000000000000000",
      "reserved": "",
      "salt": "0x4f9cb84117604a9a735d88ac9a01a0662e70a85cdbec179e4bedf27d8f99d1bf",
      "assetIds": [
        "55464657044963196816950587289035428064568320970692304673817341489687522457602",
        "55464657044963196816950587289035428064568320970692304673817341489687522457604"
      ]
    },
    {
      "x": 381,
      "y": 308,
      "size": 1,
      "price": "4683000000000000000000",
      "reserved": "",
      "salt": "0x76dae8a7172a5df00f752f6b2c23619f6e699fd4dcc9d43ab4053995c97eba08",
      "assetIds": [
        "55464657044963196816950587289035428064568320970692304673817341489687522457602",
        "55464657044963196816950587289035428064568320970692304673817341489687522457604"
      ]
    },
    {
      "x": 381,
      "y": 309,
      "size": 1,
      "price": "4683000000000000000000",
      "reserved": "",
      "salt": "0x7b72b07f69dca057865c813bea15cc3d1538576b561a3c68fd358b0e708c27fd",
      "assetIds": [
        "55464657044963196816950587289035428064568320970692304673817341489687522457601",
        "55464657044963196816950587289035428064568320970692304673817341489687522457603"
      ]
    },
    {
      "x": 382,
      "y": 309,
      "size": 1,
      "price": "4683000000000000000000",
      "reserved": "",
      "salt": "0xa9834780a8c42ca5b356e9e5b2c811f409b90431422c1a0b8e87a778afe5daa7",
      "assetIds": [
        "55464657044963196816950587289035428064568320970692304673817341489687522457603",
        "55464657044963196816950587289035428064568320970692304673817341489687522457602"
      ]
    },
    {
      "x": 383,
      "y": 309,
      "size": 1,
      "price": "4683000000000000000000",
      "reserved": "",
      "salt": "0xf20f0ce93228ac799a36cab900ebcee4be3331cc4c1c7b54e30709dc9737a685",
      "assetIds": [
        "55464657044963196816950587289035428064568320970692304673817341489687522457602",
        "55464657044963196816950587289035428064568320970692304673817341489687522457604"
      ]
    },
    {
      "x": 384,
      "y": 309,
      "size": 1,
      "price": "4683000000000000000000",
      "reserved": "",
      "salt": "0xa4ab388b185751c1c7e73daee682bc36184c162e11abec946ff314058e9e1f4e",
      "assetIds": [
        "55464657044963196816950587289035428064568320970692304673817341489687522457605",
        "55464657044963196816950587289035428064568320970692304673817341489687522457601"
      ]
    },
    {
      "x": 384,
      "y": 308,
      "size": 1,
      "price": "4683000000000000000000",
      "reserved": "",
      "salt": "0x66bcf2e0e42bc237b4a81bcfc673afa15d3993a7bfd9d0c68629660f6ee2d32e",
      "assetIds": [
        "55464657044963196816950587289035428064568320970692304673817341489687522457605",
        "55464657044963196816950587289035428064568320970692304673817341489687522457601"
      ]
    },
    {
      "x": 383,
      "y": 308,
      "size": 1,
      "price": "4683000000000000000000",
      "reserved": "",
      "salt": "0xed800b5326a26ef2de7e5073cc980c5f65da857f61e0eaef23d22c2c3b20fb8a",
      "assetIds": [
        "55464657044963196816950587289035428064568320970692304673817341489687522457601",
        "55464657044963196816950587289035428064568320970692304673817341489687522457603"
      ]
    },
    {
      "x": 382,
      "y": 308,
      "size": 1,
      "price": "4683000000000000000000",
      "reserved": "",
      "salt": "0xaf55d8d66c52cafea4dace2f9e5f534ef531e5e616c0c4936342ce5033072e35",
      "assetIds": [
        "55464657044963196816950587289035428064568320970692304673817341489687522457605",
        "55464657044963196816950587289035428064568320970692304673817341489687522457601"
      ]
    },
    {
      "x": 380,
      "y": 309,
      "size": 1,
      "price": "4683000000000000000000",
      "reserved": "",
      "salt": "0x0d60a03bbca39408461441622de48daadcf32763b8a3234387bd4ac502839753",
      "assetIds": [
        "55464657044963196816950587289035428064568320970692304673817341489687522457602",
        "55464657044963196816950587289035428064568320970692304673817341489687522457604"
      ]
    },
    {
      "x": 379,
      "y": 309,
      "size": 1,
      "price": "4683000000000000000000",
      "reserved": "",
      "salt": "0x9df60f6dd19cedc5d296bfbe3bdf6cae923b33f685bc6b190fd67d6467113c96",
      "assetIds": [
        "55464657044963196816950587289035428064568320970692304673817341489687522457602",
        "55464657044963196816950587289035428064568320970692304673817341489687522457604"
      ]
    },
    {
      "x": 380,
      "y": 311,
      "size": 1,
      "price": "4683000000000000000000",
      "reserved": "",
      "salt": "0xd2ca682c4beea1a5290a4588babfb34d4eb72e0f9c4a10efd478a59bc9711ba6",
      "assetIds": [
        "55464657044963196816950587289035428064568320970692304673817341489687522457601",
        "55464657044963196816950587289035428064568320970692304673817341489687522457603"
      ]
    },
    {
      "x": 381,
      "y": 311,
      "size": 1,
      "price": "4683000000000000000000",
      "reserved": "",
      "salt": "0x884379c1ca7aec6851a22441fc82b705d0fa8943ae40b520df5f03afcbfe008b",
      "assetIds": [
        "55464657044963196816950587289035428064568320970692304673817341489687522457602",
        "55464657044963196816950587289035428064568320970692304673817341489687522457604"
      ]
    },
    {
      "x": 382,
      "y": 311,
      "size": 1,
      "price": "4683000000000000000000",
      "reserved": "",
      "salt": "0xe424d30f4a74ea9cd345b4dfe1cd97f3a5902de030add34db616b0ed175628eb",
      "assetIds": [
        "55464657044963196816950587289035428064568320970692304673817341489687522457605",
        "55464657044963196816950587289035428064568320970692304673817341489687522457601"
      ]
    },
    {
      "x": 383,
      "y": 311,
      "size": 1,
      "price": "4683000000000000000000",
      "reserved": "",
      "salt": "0x59da52b2ac5ba0b8de48ec4ca4dd04e6c5715717f353d05d608ec9ca65333d40",
      "assetIds": [
        "55464657044963196816950587289035428064568320970692304673817341489687522457605",
        "55464657044963196816950587289035428064568320970692304673817341489687522457601"
      ]
    },
    {
      "x": 384,
      "y": 311,
      "size": 1,
      "price": "4683000000000000000000",
      "reserved": "",
      "salt": "0xf06d44c10efed519a554f120f938fdd63503e0a2732ad7467f454f091998cc2b",
      "assetIds": [
        "55464657044963196816950587289035428064568320970692304673817341489687522457603",
        "55464657044963196816950587289035428064568320970692304673817341489687522457602"
      ]
    },
    {
      "x": 385,
      "y": 311,
      "size": 1,
      "price": "4683000000000000000000",
      "reserved": "",
      "salt": "0x539891371cdf87903966299dd88ab9e0e647d81d04f7c4e3d4913594014fe279",
      "assetIds": [
        "55464657044963196816950587289035428064568320970692304673817341489687522457605",
        "55464657044963196816950587289035428064568320970692304673817341489687522457601"
      ]
    },
    {
      "x": 385,
      "y": 312,
      "size": 1,
      "price": "4683000000000000000000",
      "reserved": "",
      "salt": "0x20b534e14589847abf5b03f4ebfdac2f6658167ce78e4b48642d4aef65b8dca6",
      "assetIds": [
        "55464657044963196816950587289035428064568320970692304673817341489687522457605",
        "55464657044963196816950587289035428064568320970692304673817341489687522457601"
      ]
    },
    {
      "x": 385,
      "y": 313,
      "size": 1,
      "price": "4683000000000000000000",
      "reserved": "",
      "salt": "0x2d214b34d6a41cf216c0dac8b7c4b80d803448f0c9c6da92e0303146a609896a",
      "assetIds": [
        "55464657044963196816950587289035428064568320970692304673817341489687522457603",
        "55464657044963196816950587289035428064568320970692304673817341489687522457602"
      ]
    },
    {
      "x": 385,
      "y": 314,
      "size": 1,
      "price": "4683000000000000000000",
      "reserved": "",
      "salt": "0xfd239d188f696666b7f5c2f8c53082511285fd87a02ec00ca07a57687d900e03",
      "assetIds": [
        "55464657044963196816950587289035428064568320970692304673817341489687522457602",
        "55464657044963196816950587289035428064568320970692304673817341489687522457604"
      ]
    },
    {
      "x": 385,
      "y": 315,
      "size": 1,
      "price": "4683000000000000000000",
      "reserved": "",
      "salt": "0x40858b1205f73aff4cadd4497f0da6652c3ebd820f2d02da2b0417f6d0d13cab",
      "assetIds": [
        "55464657044963196816950587289035428064568320970692304673817341489687522457602",
        "55464657044963196816950587289035428064568320970692304673817341489687522457604"
      ]
    },
    {
      "x": 384,
      "y": 315,
      "size": 1,
      "price": "4683000000000000000000",
      "reserved": "",
      "salt": "0xce007d917d099840ee305f7b3af0a96258dec88c03113428adc7573f53b6fbcf",
      "assetIds": [
        "55464657044963196816950587289035428064568320970692304673817341489687522457603",
        "55464657044963196816950587289035428064568320970692304673817341489687522457602"
      ]
    },
    {
      "x": 384,
      "y": 316,
      "size": 1,
      "price": "4683000000000000000000",
      "reserved": "",
      "salt": "0xf08e501a2f66988bb91de3bda7e71b4e5d2ca4c3a0ae55c9565f89f1e1763e6d",
      "assetIds": [
        "55464657044963196816950587289035428064568320970692304673817341489687522457601",
        "55464657044963196816950587289035428064568320970692304673817341489687522457603"
      ]
    },
    {
      "x": 384,
      "y": 317,
      "size": 1,
      "price": "4683000000000000000000",
      "reserved": "",
      "salt": "0x2019fc17c95b3202ccb65e3830e2423028c36cf5f10eac462d752d60b99c6d6c",
      "assetIds": [
        "55464657044963196816950587289035428064568320970692304673817341489687522457603",
        "55464657044963196816950587289035428064568320970692304673817341489687522457602"
      ]
    },
    {
      "x": 384,
      "y": 314,
      "size": 1,
      "price": "4683000000000000000000",
      "reserved": "",
      "salt": "0x56a0542405aa11c10ad15b5be895df1d293e13c3fefb96bd0450759173a662e6",
      "assetIds": [
        "55464657044963196816950587289035428064568320970692304673817341489687522457603",
        "55464657044963196816950587289035428064568320970692304673817341489687522457602"
      ]
    },
    {
      "x": 384,
      "y": 313,
      "size": 1,
      "price": "4683000000000000000000",
      "reserved": "",
      "salt": "0xf811bdabeedadd59d986af5ab5bb6d6174a54fa6a0a62c97853844281f2fd7b8",
      "assetIds": [
        "55464657044963196816950587289035428064568320970692304673817341489687522457605",
        "55464657044963196816950587289035428064568320970692304673817341489687522457601"
      ]
    },
    {
      "x": 384,
      "y": 312,
      "size": 1,
      "price": "4683000000000000000000",
      "reserved": "",
      "salt": "0x2495e4807a645f0b2891f762c82e5818ec106cb624b5f725c8eb057beeabb84a",
      "assetIds": [
        "55464657044963196816950587289035428064568320970692304673817341489687522457605",
        "55464657044963196816950587289035428064568320970692304673817341489687522457601"
      ]
    },
    {
      "x": 386,
      "y": 313,
      "size": 1,
      "price": "4683000000000000000000",
      "reserved": "",
      "salt": "0xfd0c486ec5e245eec557ea1b10477600b7c45a1eab82712e2deb8f0ab15c89c0",
      "assetIds": [
        "55464657044963196816950587289035428064568320970692304673817341489687522457601",
        "55464657044963196816950587289035428064568320970692304673817341489687522457603"
      ]
    },
    {
      "x": 387,
      "y": 313,
      "size": 1,
      "price": "4683000000000000000000",
      "reserved": "",
      "salt": "0x49541aa745499d90a2214d3520b970ba53f7719d1be3488670e858620be1b912",
      "assetIds": [
        "55464657044963196816950587289035428064568320970692304673817341489687522457603",
        "55464657044963196816950587289035428064568320970692304673817341489687522457602"
      ]
    },
    {
      "x": 388,
      "y": 313,
      "size": 1,
      "price": "4683000000000000000000",
      "reserved": "",
      "salt": "0x2d22b50e9fe3562db1a62bd16a4ef49150695aaf1464ce93b60931a3559fe758",
      "assetIds": [
        "55464657044963196816950587289035428064568320970692304673817341489687522457605",
        "55464657044963196816950587289035428064568320970692304673817341489687522457601"
      ]
    },
    {
      "x": 389,
      "y": 313,
      "size": 1,
      "price": "4683000000000000000000",
      "reserved": "",
      "salt": "0xf677028a308a98b100282eee98c83b4178a507e74c1c76c8fad1018b83032d2c",
      "assetIds": [
        "55464657044963196816950587289035428064568320970692304673817341489687522457603",
        "55464657044963196816950587289035428064568320970692304673817341489687522457602"
      ]
    },
    {
      "x": 391,
      "y": 313,
      "size": 1,
      "price": "4683000000000000000000",
      "reserved": "",
      "salt": "0xaaa700ea555b77ee4f0014fb3596c2086b1073794376a7994e7de94e2f1752d8",
      "assetIds": [
        "55464657044963196816950587289035428064568320970692304673817341489687522457602",
        "55464657044963196816950587289035428064568320970692304673817341489687522457604"
      ]
    },
    {
      "x": 395,
      "y": 314,
      "size": 1,
      "price": "4683000000000000000000",
      "reserved": "",
      "salt": "0x9a3f116dffb40b1f868ec49e35e5814ed6568cca6c5f92842d9504e46bee0e4c",
      "assetIds": [
        "55464657044963196816950587289035428064568320970692304673817341489687522457603",
        "55464657044963196816950587289035428064568320970692304673817341489687522457602"
      ]
    },
    {
      "x": 394,
      "y": 314,
      "size": 1,
      "price": "4683000000000000000000",
      "reserved": "",
      "salt": "0x8ed7b4ea661c1e7ebcb82baff5327d73f7bdaa94a2d78d822eeec54e0bec7ed9",
      "assetIds": [
        "55464657044963196816950587289035428064568320970692304673817341489687522457601",
        "55464657044963196816950587289035428064568320970692304673817341489687522457603"
      ]
    },
    {
      "x": 394,
      "y": 315,
      "size": 1,
      "price": "4683000000000000000000",
      "reserved": "",
      "salt": "0x1078427bc7057244fab7b306ff023ac6627342ba0bab70c22159651d4577cc60",
      "assetIds": [
        "55464657044963196816950587289035428064568320970692304673817341489687522457605",
        "55464657044963196816950587289035428064568320970692304673817341489687522457601"
      ]
    },
    {
      "x": 395,
      "y": 315,
      "size": 1,
      "price": "4683000000000000000000",
      "reserved": "",
      "salt": "0x63894594d6b51d38cc027e226c758b1c4760171cd8c4d68bd532a8493ee33c20",
      "assetIds": [
        "55464657044963196816950587289035428064568320970692304673817341489687522457602",
        "55464657044963196816950587289035428064568320970692304673817341489687522457604"
      ]
    },
    {
      "x": 395,
      "y": 316,
      "size": 1,
      "price": "4683000000000000000000",
      "reserved": "",
      "salt": "0x21196448f29b43d20b328217334cebc9b24b6b60c2b96c6b5f1fbc10a5992141",
      "assetIds": [
        "55464657044963196816950587289035428064568320970692304673817341489687522457603",
        "55464657044963196816950587289035428064568320970692304673817341489687522457602"
      ]
    },
    {
      "x": 395,
      "y": 317,
      "size": 1,
      "price": "4683000000000000000000",
      "reserved": "",
      "salt": "0x22d457cd9cf0b2824d3e2d8600b6ca479cc3586487d5d16370e16d2d9b167033",
      "assetIds": [
        "55464657044963196816950587289035428064568320970692304673817341489687522457602",
        "55464657044963196816950587289035428064568320970692304673817341489687522457604"
      ]
    },
    {
      "x": 394,
      "y": 317,
      "size": 1,
      "price": "4683000000000000000000",
      "reserved": "",
      "salt": "0xf8e313403a581fa0166888c2d67757b0c11be92e33ff583dd5ff0712ed9983be",
      "assetIds": [
        "55464657044963196816950587289035428064568320970692304673817341489687522457601",
        "55464657044963196816950587289035428064568320970692304673817341489687522457603"
      ]
    },
    {
      "x": 393,
      "y": 317,
      "size": 1,
      "price": "4683000000000000000000",
      "reserved": "",
      "salt": "0x49135c9a3038e3c2078dec61e20b06b00bda5aad3e25b31d1a45cb6487e8764f",
      "assetIds": [
        "55464657044963196816950587289035428064568320970692304673817341489687522457601",
        "55464657044963196816950587289035428064568320970692304673817341489687522457603"
      ]
    },
    {
      "x": 392,
      "y": 317,
      "size": 1,
      "price": "4683000000000000000000",
      "reserved": "",
      "salt": "0xbe1cecdd72482d08f21cd30278691e37866e98ca52215973b72ba252d43ac5ff",
      "assetIds": [
        "55464657044963196816950587289035428064568320970692304673817341489687522457605",
        "55464657044963196816950587289035428064568320970692304673817341489687522457601"
      ]
    },
    {
      "x": 391,
      "y": 317,
      "size": 1,
      "price": "4683000000000000000000",
      "reserved": "",
      "salt": "0x0e18718b1c6f654c4496b790d582a5dbb1bf88bbda454c19a8fb8d3ddc95b21e",
      "assetIds": [
        "55464657044963196816950587289035428064568320970692304673817341489687522457602",
        "55464657044963196816950587289035428064568320970692304673817341489687522457604"
      ]
    },
    {
      "x": 390,
      "y": 317,
      "size": 1,
      "price": "4683000000000000000000",
      "reserved": "",
      "salt": "0x9c141189e1bbcfbbdc30f8ec0342e08c99b3763189cf50dddbfcc851a8c0587c",
      "assetIds": [
        "55464657044963196816950587289035428064568320970692304673817341489687522457605",
        "55464657044963196816950587289035428064568320970692304673817341489687522457601"
      ]
    },
    {
      "x": 389,
      "y": 317,
      "size": 1,
      "price": "4683000000000000000000",
      "reserved": "",
      "salt": "0x30af58b339ae226a9013d040316d2e6afc6c683c992dff0af7ac969b576e9bfc",
      "assetIds": [
        "55464657044963196816950587289035428064568320970692304673817341489687522457601",
        "55464657044963196816950587289035428064568320970692304673817341489687522457603"
      ]
    },
    {
      "x": 388,
      "y": 317,
      "size": 1,
      "price": "4683000000000000000000",
      "reserved": "",
      "salt": "0xd94736f82552393101cfdaf4432983363cd417f5467149440582369dcda379d1",
      "assetIds": [
        "55464657044963196816950587289035428064568320970692304673817341489687522457602",
        "55464657044963196816950587289035428064568320970692304673817341489687522457604"
      ]
    },
    {
      "x": 388,
      "y": 316,
      "size": 1,
      "price": "4683000000000000000000",
      "reserved": "",
      "salt": "0x85f5e6306d890ebd77a133bb3649618b46828f690c9dd8edd04e638433270474",
      "assetIds": [
        "55464657044963196816950587289035428064568320970692304673817341489687522457603",
        "55464657044963196816950587289035428064568320970692304673817341489687522457602"
      ]
    },
    {
      "x": 387,
      "y": 316,
      "size": 1,
      "price": "4683000000000000000000",
      "reserved": "",
      "salt": "0x82cf67b702e8393bf46bed9a1fd62520c9aff1a73e9b3cf8d0ba2f282a64fcf7",
      "assetIds": [
        "55464657044963196816950587289035428064568320970692304673817341489687522457601",
        "55464657044963196816950587289035428064568320970692304673817341489687522457603"
      ]
    },
    {
      "x": 386,
      "y": 316,
      "size": 1,
      "price": "4683000000000000000000",
      "reserved": "",
      "salt": "0x5725afe82230d07bfa31fee225440092268640f90d08773724d2e20995554013",
      "assetIds": [
        "55464657044963196816950587289035428064568320970692304673817341489687522457602",
        "55464657044963196816950587289035428064568320970692304673817341489687522457604"
      ]
    },
    {
      "x": 385,
      "y": 316,
      "size": 1,
      "price": "4683000000000000000000",
      "reserved": "",
      "salt": "0x280b0781597486385a9eb64258e637a11d0566eeeaa14e9f83fadbb9c4a23413",
      "assetIds": [
        "55464657044963196816950587289035428064568320970692304673817341489687522457601",
        "55464657044963196816950587289035428064568320970692304673817341489687522457603"
      ]
    },
    {
      "x": 386,
      "y": 317,
      "size": 1,
      "price": "4683000000000000000000",
      "reserved": "",
      "salt": "0x6922f25e760b42243a779cfca1ed0a1053b0341afa5966a4a04511969a21918a",
      "assetIds": [
        "55464657044963196816950587289035428064568320970692304673817341489687522457605",
        "55464657044963196816950587289035428064568320970692304673817341489687522457601"
      ]
    },
    {
      "x": 387,
      "y": 317,
      "size": 1,
      "price": "4683000000000000000000",
      "reserved": "",
      "salt": "0x133a1fa7e52c435bbfa972f27e37e31065ee4a096dcba930d5c0003bb47fc7a4",
      "assetIds": [
        "55464657044963196816950587289035428064568320970692304673817341489687522457602",
        "55464657044963196816950587289035428064568320970692304673817341489687522457604"
      ]
    },
    {
      "x": 385,
      "y": 317,
      "size": 1,
      "price": "4683000000000000000000",
      "reserved": "",
      "salt": "0x3b3b26e482d7e1055ef628c0137359c8ed0ff26376589c35aba7283db0d8a34a",
      "assetIds": [
        "55464657044963196816950587289035428064568320970692304673817341489687522457602",
        "55464657044963196816950587289035428064568320970692304673817341489687522457604"
      ]
    },
    {
      "x": 386,
      "y": 315,
      "size": 1,
      "price": "4683000000000000000000",
      "reserved": "",
      "salt": "0x9b3877f43177a9a008de845423a68d713cdad568290fe558ce2824d95556e189",
      "assetIds": [
        "55464657044963196816950587289035428064568320970692304673817341489687522457602",
        "55464657044963196816950587289035428064568320970692304673817341489687522457604"
      ]
    },
    {
      "x": 386,
      "y": 314,
      "size": 1,
      "price": "4683000000000000000000",
      "reserved": "",
      "salt": "0xe061be7ca96cb0dfee718d7e40084fd2b4a7eb2e0f8fe44ba6e69b5b0d8d7b4c",
      "assetIds": [
        "55464657044963196816950587289035428064568320970692304673817341489687522457605",
        "55464657044963196816950587289035428064568320970692304673817341489687522457601"
      ]
    },
    {
      "x": 388,
      "y": 314,
      "size": 1,
      "price": "4683000000000000000000",
      "reserved": "",
      "salt": "0xbce74956b949e45d12bd844b002a9aa692fcfc4c53c1dd019bc78adca43be1e9",
      "assetIds": [
        "55464657044963196816950587289035428064568320970692304673817341489687522457605",
        "55464657044963196816950587289035428064568320970692304673817341489687522457601"
      ]
    },
    {
      "x": 389,
      "y": 314,
      "size": 1,
      "price": "4683000000000000000000",
      "reserved": "",
      "salt": "0x636af8622fc2ce19f8b35bf9125e1a6284bfdc85ceecf32f68c34ac0bf3f5266",
      "assetIds": [
        "55464657044963196816950587289035428064568320970692304673817341489687522457601",
        "55464657044963196816950587289035428064568320970692304673817341489687522457603"
      ]
    },
    {
      "x": 390,
      "y": 314,
      "size": 1,
      "price": "4683000000000000000000",
      "reserved": "",
      "salt": "0x3f350d6d87851b6ec05635316fbf521530f0b384cc180c6345c2463fdb52e6c6",
      "assetIds": [
        "55464657044963196816950587289035428064568320970692304673817341489687522457603",
        "55464657044963196816950587289035428064568320970692304673817341489687522457602"
      ]
    },
    {
      "x": 389,
      "y": 315,
      "size": 1,
      "price": "4683000000000000000000",
      "reserved": "",
      "salt": "0xf79138e913e37430f3f673f6b6577a52ce88bb626e46d87827e6647c51f8453e",
      "assetIds": [
        "55464657044963196816950587289035428064568320970692304673817341489687522457603",
        "55464657044963196816950587289035428064568320970692304673817341489687522457602"
      ]
    },
    {
      "x": 388,
      "y": 315,
      "size": 1,
      "price": "4683000000000000000000",
      "reserved": "",
      "salt": "0x16f34b4032acda96654e828c1286d069a2b145390295e0c8712f6fb8253d8122",
      "assetIds": [
        "55464657044963196816950587289035428064568320970692304673817341489687522457603",
        "55464657044963196816950587289035428064568320970692304673817341489687522457602"
      ]
    },
    {
      "x": 387,
      "y": 315,
      "size": 1,
      "price": "4683000000000000000000",
      "reserved": "",
      "salt": "0x9243cd89229a7be45e62958b3edbc3fd5226eff59df37456394b1929b041abd9",
      "assetIds": [
        "55464657044963196816950587289035428064568320970692304673817341489687522457605",
        "55464657044963196816950587289035428064568320970692304673817341489687522457601"
      ]
    },
    {
      "x": 391,
      "y": 314,
      "size": 1,
      "price": "4683000000000000000000",
      "reserved": "",
      "salt": "0x20421fe17de4daa76d8632148048b8d12a3d0ff4401177db005dc94b2665628b",
      "assetIds": [
        "55464657044963196816950587289035428064568320970692304673817341489687522457605",
        "55464657044963196816950587289035428064568320970692304673817341489687522457601"
      ]
    },
    {
      "x": 392,
      "y": 314,
      "size": 1,
      "price": "4683000000000000000000",
      "reserved": "",
      "salt": "0x650c03f034c2cbdd18a19d4dede6effbdd55d97ecdc314bfc405b384d5086c66",
      "assetIds": [
        "55464657044963196816950587289035428064568320970692304673817341489687522457602",
        "55464657044963196816950587289035428064568320970692304673817341489687522457604"
      ]
    },
    {
      "x": 393,
      "y": 314,
      "size": 1,
      "price": "4683000000000000000000",
      "reserved": "",
      "salt": "0x3a31a4f85e9dc52747c6421d05fc49cbb88713e70c8e3f8a9ca96af468e08b41",
      "assetIds": [
        "55464657044963196816950587289035428064568320970692304673817341489687522457603",
        "55464657044963196816950587289035428064568320970692304673817341489687522457602"
      ]
    },
    {
      "x": 394,
      "y": 316,
      "size": 1,
      "price": "4683000000000000000000",
      "reserved": "",
      "salt": "0xc875bc9a985c206d3e8814f89cfa3239aabe8f2b1de546180d55387c4aa90c1d",
      "assetIds": [
        "55464657044963196816950587289035428064568320970692304673817341489687522457603",
        "55464657044963196816950587289035428064568320970692304673817341489687522457602"
      ]
    },
    {
      "x": 393,
      "y": 316,
      "size": 1,
      "price": "4683000000000000000000",
      "reserved": "",
      "salt": "0x67f2c432b1e65cb86009064dbc233251635065e7bcd30280e6b97236e6eedb5e",
      "assetIds": [
        "55464657044963196816950587289035428064568320970692304673817341489687522457605",
        "55464657044963196816950587289035428064568320970692304673817341489687522457601"
      ]
    },
    {
      "x": 392,
      "y": 316,
      "size": 1,
      "price": "4683000000000000000000",
      "reserved": "",
      "salt": "0xcb3e5f4b54e097b5b50ed64a37044f6e2636d9134a16245033d8edbbee793d16",
      "assetIds": [
        "55464657044963196816950587289035428064568320970692304673817341489687522457602",
        "55464657044963196816950587289035428064568320970692304673817341489687522457604"
      ]
    },
    {
      "x": 391,
      "y": 316,
      "size": 1,
      "price": "4683000000000000000000",
      "reserved": "",
      "salt": "0x5dbfc17657f381b32be37d8fbc07cde5f502570128c5c0ffef57303338642820",
      "assetIds": [
        "55464657044963196816950587289035428064568320970692304673817341489687522457603",
        "55464657044963196816950587289035428064568320970692304673817341489687522457602"
      ]
    },
    {
      "x": 390,
      "y": 316,
      "size": 1,
      "price": "4683000000000000000000",
      "reserved": "",
      "salt": "0xf9af0affe65116d6fc7e069451936cd62e45c96ff522249acaa32b87ca325b64",
      "assetIds": [
        "55464657044963196816950587289035428064568320970692304673817341489687522457601",
        "55464657044963196816950587289035428064568320970692304673817341489687522457603"
      ]
    },
    {
      "x": 389,
      "y": 316,
      "size": 1,
      "price": "4683000000000000000000",
      "reserved": "",
      "salt": "0x5d90affce5669262a3adc9950935b6e8bbec06c60a9b1facef608aade1bdcc90",
      "assetIds": [
        "55464657044963196816950587289035428064568320970692304673817341489687522457601",
        "55464657044963196816950587289035428064568320970692304673817341489687522457603"
      ]
    },
    {
      "x": 390,
      "y": 315,
      "size": 1,
      "price": "4683000000000000000000",
      "reserved": "",
      "salt": "0x663249f4b36941c4d6e34c8cf49b9805559295bf8827443aed44a482bc711734",
      "assetIds": [
        "55464657044963196816950587289035428064568320970692304673817341489687522457605",
        "55464657044963196816950587289035428064568320970692304673817341489687522457601"
      ]
    },
    {
      "x": 391,
      "y": 315,
      "size": 1,
      "price": "4683000000000000000000",
      "reserved": "",
      "salt": "0x359a07154ea1a3fb201ed850f20c3f36627ea1ab553a0a662ab28c368157152c",
      "assetIds": [
        "55464657044963196816950587289035428064568320970692304673817341489687522457605",
        "55464657044963196816950587289035428064568320970692304673817341489687522457601"
      ]
    },
    {
      "x": 392,
      "y": 315,
      "size": 1,
      "price": "4683000000000000000000",
      "reserved": "",
      "salt": "0xda963b4c607b3d2bbe893e2b20ef616c39789a94209bb6e1d03d58eae99b8485",
      "assetIds": [
        "55464657044963196816950587289035428064568320970692304673817341489687522457601",
        "55464657044963196816950587289035428064568320970692304673817341489687522457603"
      ]
    },
    {
      "x": 393,
      "y": 315,
      "size": 1,
      "price": "4683000000000000000000",
      "reserved": "",
      "salt": "0xdf62d83f1f0127cbf7126512f5c32dc09bb60210f7fe879e3355c7faed66ec78",
      "assetIds": [
        "55464657044963196816950587289035428064568320970692304673817341489687522457603",
        "55464657044963196816950587289035428064568320970692304673817341489687522457602"
      ]
    },
    {
      "x": 402,
      "y": 312,
      "size": 1,
      "price": "4683000000000000000000",
      "reserved": "",
      "salt": "0xeea8feffad8a0be9298d125f562d0e803595931c2bba001a410faa056d52e5ed",
      "assetIds": [
        "55464657044963196816950587289035428064568320970692304673817341489687522457603",
        "55464657044963196816950587289035428064568320970692304673817341489687522457602"
      ]
    },
    {
      "x": 403,
      "y": 312,
      "size": 1,
      "price": "4683000000000000000000",
      "reserved": "",
      "salt": "0xacf0a53dff99280dac5220919a642dacb3d67ffcaa1413305656201a8cbbebf1",
      "assetIds": [
        "55464657044963196816950587289035428064568320970692304673817341489687522457601",
        "55464657044963196816950587289035428064568320970692304673817341489687522457603"
      ]
    },
    {
      "x": 404,
      "y": 312,
      "size": 1,
      "price": "4683000000000000000000",
      "reserved": "",
      "salt": "0x541a92c526e85c188623af75dc42ab01cd208539d456491d593c690b236fff31",
      "assetIds": [
        "55464657044963196816950587289035428064568320970692304673817341489687522457605",
        "55464657044963196816950587289035428064568320970692304673817341489687522457601"
      ]
    },
    {
      "x": 405,
      "y": 312,
      "size": 1,
      "price": "4683000000000000000000",
      "reserved": "",
      "salt": "0xef5287ad4c22e7cf85876ba8c64ede624c44f9fbc7ec52e113c41593ad7499bc",
      "assetIds": [
        "55464657044963196816950587289035428064568320970692304673817341489687522457605",
        "55464657044963196816950587289035428064568320970692304673817341489687522457601"
      ]
    },
    {
      "x": 406,
      "y": 312,
      "size": 1,
      "price": "4683000000000000000000",
      "reserved": "",
      "salt": "0xaa9e9c3b13d6cc546f5abd5d7d941d43c0d8ad0e6ce55119649445bf5bbd5d2c",
      "assetIds": [
        "55464657044963196816950587289035428064568320970692304673817341489687522457601",
        "55464657044963196816950587289035428064568320970692304673817341489687522457603"
      ]
    },
    {
      "x": 407,
      "y": 312,
      "size": 1,
      "price": "4683000000000000000000",
      "reserved": "",
      "salt": "0xbc22add7c74cd2b1c218cea145b4298ff0cab540af6c433b401977c4e2c95b64",
      "assetIds": [
        "55464657044963196816950587289035428064568320970692304673817341489687522457603",
        "55464657044963196816950587289035428064568320970692304673817341489687522457602"
      ]
    },
    {
      "x": 407,
      "y": 313,
      "size": 1,
      "price": "4683000000000000000000",
      "reserved": "",
      "salt": "0xe633490f983f9f7e801bab84a1ecf1f69c69eda3406d8427dbf10df153b3dca5",
      "assetIds": [
        "55464657044963196816950587289035428064568320970692304673817341489687522457605",
        "55464657044963196816950587289035428064568320970692304673817341489687522457601"
      ]
    },
    {
      "x": 407,
      "y": 314,
      "size": 1,
      "price": "4683000000000000000000",
      "reserved": "",
      "salt": "0x466780c0b89206d26ba1340c6c5555c3f33b5dada282b991ef4a7be59bf69841",
      "assetIds": [
        "55464657044963196816950587289035428064568320970692304673817341489687522457602",
        "55464657044963196816950587289035428064568320970692304673817341489687522457604"
      ]
    },
    {
      "x": 407,
      "y": 315,
      "size": 1,
      "price": "4683000000000000000000",
      "reserved": "",
      "salt": "0x3df783c990edefea0fc4ec4bfe3dd310beed6cc1bc6478d5cd1144135f95cc58",
      "assetIds": [
        "55464657044963196816950587289035428064568320970692304673817341489687522457605",
        "55464657044963196816950587289035428064568320970692304673817341489687522457601"
      ]
    },
    {
      "x": 407,
      "y": 316,
      "size": 1,
      "price": "4683000000000000000000",
      "reserved": "",
      "salt": "0x27f24a392f4b725a972ec8a608a478af45b91e132738f7239afbae49db9efa2e",
      "assetIds": [
        "55464657044963196816950587289035428064568320970692304673817341489687522457605",
        "55464657044963196816950587289035428064568320970692304673817341489687522457601"
      ]
    },
    {
      "x": 407,
      "y": 317,
      "size": 1,
      "price": "4683000000000000000000",
      "reserved": "",
      "salt": "0xf3bf7a1b92b49730517992e71a0b99842f26264470301b5a15140c84483067a6",
      "assetIds": [
        "55464657044963196816950587289035428064568320970692304673817341489687522457603",
        "55464657044963196816950587289035428064568320970692304673817341489687522457602"
      ]
    },
    {
      "x": 407,
      "y": 318,
      "size": 1,
      "price": "4683000000000000000000",
      "reserved": "",
      "salt": "0xf841f45cfbaf5337cb66d96a50d85d90c05132f27b1ff5853261046edf3c36da",
      "assetIds": [
        "55464657044963196816950587289035428064568320970692304673817341489687522457601",
        "55464657044963196816950587289035428064568320970692304673817341489687522457603"
      ]
    },
    {
      "x": 407,
      "y": 319,
      "size": 1,
      "price": "4683000000000000000000",
      "reserved": "",
      "salt": "0x098ba8fea66ac3f033f3bc408766dc372b763eb49a72f9d84231fcc419e81958",
      "assetIds": [
        "55464657044963196816950587289035428064568320970692304673817341489687522457602",
        "55464657044963196816950587289035428064568320970692304673817341489687522457604"
      ]
    },
    {
      "x": 407,
      "y": 320,
      "size": 1,
      "price": "4683000000000000000000",
      "reserved": "",
      "salt": "0xce939f7d8e0e7470df60c3530691d0bed8bc616470720aa1dc2aa4fc4a0c321a",
      "assetIds": [
        "55464657044963196816950587289035428064568320970692304673817341489687522457603",
        "55464657044963196816950587289035428064568320970692304673817341489687522457602"
      ]
    },
    {
      "x": 406,
      "y": 320,
      "size": 1,
      "price": "4683000000000000000000",
      "reserved": "",
      "salt": "0x251202b0c065468f97a03cd9142fbfd13ab8347b237818f8706be9da8f7db453",
      "assetIds": [
        "55464657044963196816950587289035428064568320970692304673817341489687522457605",
        "55464657044963196816950587289035428064568320970692304673817341489687522457601"
      ]
    },
    {
      "x": 405,
      "y": 320,
      "size": 1,
      "price": "4683000000000000000000",
      "reserved": "",
      "salt": "0x4a1a153621a5e53fcb5220f0a7d6d450f682861b47f183d200d3342bc98d23cb",
      "assetIds": [
        "55464657044963196816950587289035428064568320970692304673817341489687522457605",
        "55464657044963196816950587289035428064568320970692304673817341489687522457601"
      ]
    },
    {
      "x": 404,
      "y": 320,
      "size": 1,
      "price": "4683000000000000000000",
      "reserved": "",
      "salt": "0x49588c575d34d59d5540ac2f593b14a7c417aed63acbc727054e60344a2d73a8",
      "assetIds": [
        "55464657044963196816950587289035428064568320970692304673817341489687522457601",
        "55464657044963196816950587289035428064568320970692304673817341489687522457603"
      ]
    },
    {
      "x": 403,
      "y": 320,
      "size": 1,
      "price": "4683000000000000000000",
      "reserved": "",
      "salt": "0x38dfe1c0ab012066fbe23530611a213f8f3e5985deee3f93cb021c6a5d526bb7",
      "assetIds": [
        "55464657044963196816950587289035428064568320970692304673817341489687522457602",
        "55464657044963196816950587289035428064568320970692304673817341489687522457604"
      ]
    },
    {
      "x": 403,
      "y": 319,
      "size": 1,
      "price": "4683000000000000000000",
      "reserved": "",
      "salt": "0x870813aee39e92795903fb7b51696388ff45ec1340dc36d68690c7350282b2c2",
      "assetIds": [
        "55464657044963196816950587289035428064568320970692304673817341489687522457601",
        "55464657044963196816950587289035428064568320970692304673817341489687522457603"
      ]
    },
    {
      "x": 403,
      "y": 318,
      "size": 1,
      "price": "4683000000000000000000",
      "reserved": "",
      "salt": "0x559a056d37e0356ab8e4ee01f0efe7df50d4789e971d5d5dcf849ae46cbc2630",
      "assetIds": [
        "55464657044963196816950587289035428064568320970692304673817341489687522457605",
        "55464657044963196816950587289035428064568320970692304673817341489687522457601"
      ]
    },
    {
      "x": 403,
      "y": 317,
      "size": 1,
      "price": "4683000000000000000000",
      "reserved": "",
      "salt": "0xb381b091b9e9f6b7a1ff2584886504e665c1e2e6a5a3c50f4925b770b97ccb22",
      "assetIds": [
        "55464657044963196816950587289035428064568320970692304673817341489687522457603",
        "55464657044963196816950587289035428064568320970692304673817341489687522457602"
      ]
    },
    {
      "x": 403,
      "y": 316,
      "size": 1,
      "price": "4683000000000000000000",
      "reserved": "",
      "salt": "0xea5ee3a7e46da207f06dfe3a9cbb5c3e7ed1eadcd19b725f56704eafb7014ceb",
      "assetIds": [
        "55464657044963196816950587289035428064568320970692304673817341489687522457603",
        "55464657044963196816950587289035428064568320970692304673817341489687522457602"
      ]
    },
    {
      "x": 403,
      "y": 315,
      "size": 1,
      "price": "4683000000000000000000",
      "reserved": "",
      "salt": "0xc8a0bd3f1bcd2c970c079d5903523173527f0285301334642957f15cbae63f5d",
      "assetIds": [
        "55464657044963196816950587289035428064568320970692304673817341489687522457601",
        "55464657044963196816950587289035428064568320970692304673817341489687522457603"
      ]
    },
    {
      "x": 403,
      "y": 314,
      "size": 1,
      "price": "4683000000000000000000",
      "reserved": "",
      "salt": "0x7fc799d9e8c374cc55c091e47a148cadda7bb5894d9c9c1b03923e6d1f0b4a21",
      "assetIds": [
        "55464657044963196816950587289035428064568320970692304673817341489687522457605",
        "55464657044963196816950587289035428064568320970692304673817341489687522457601"
      ]
    },
    {
      "x": 403,
      "y": 313,
      "size": 1,
      "price": "4683000000000000000000",
      "reserved": "",
      "salt": "0x538f0be3c636ab11e210af748650647d8fb955d78942dde27e5e58dc5cb38da9",
      "assetIds": [
        "55464657044963196816950587289035428064568320970692304673817341489687522457602",
        "55464657044963196816950587289035428064568320970692304673817341489687522457604"
      ]
    },
    {
      "x": 402,
      "y": 313,
      "size": 1,
      "price": "4683000000000000000000",
      "reserved": "",
      "salt": "0x7eff1b1694cced868d616ea4cbba9937c253cbf79215cf370f8a6d92f74ff8a4",
      "assetIds": [
        "55464657044963196816950587289035428064568320970692304673817341489687522457602",
        "55464657044963196816950587289035428064568320970692304673817341489687522457604"
      ]
    },
    {
      "x": 402,
      "y": 314,
      "size": 1,
      "price": "4683000000000000000000",
      "reserved": "",
      "salt": "0x896c0ceb3be97e9b5a7f72a6c9198563e59fdbb1243f7ec35057878091fce4ae",
      "assetIds": [
        "55464657044963196816950587289035428064568320970692304673817341489687522457601",
        "55464657044963196816950587289035428064568320970692304673817341489687522457603"
      ]
    },
    {
      "x": 402,
      "y": 315,
      "size": 1,
      "price": "4683000000000000000000",
      "reserved": "",
      "salt": "0x456a4318c104ce5ddecfe344c7ce7752cde87b71d65f4413436ddd12477732c9",
      "assetIds": [
        "55464657044963196816950587289035428064568320970692304673817341489687522457602",
        "55464657044963196816950587289035428064568320970692304673817341489687522457604"
      ]
    },
    {
      "x": 402,
      "y": 316,
      "size": 1,
      "price": "4683000000000000000000",
      "reserved": "",
      "salt": "0xe9b5c46a43596d35178b783b2f125b348fc3fd0d1bab99b023b2b7b5ff1fa37d",
      "assetIds": [
        "55464657044963196816950587289035428064568320970692304673817341489687522457605",
        "55464657044963196816950587289035428064568320970692304673817341489687522457601"
      ]
    },
    {
      "x": 402,
      "y": 317,
      "size": 1,
      "price": "4683000000000000000000",
      "reserved": "",
      "salt": "0x2a605a9d6c3ef6530ff7116e86123887076d5c22e52cfa30aef19182f495184f",
      "assetIds": [
        "55464657044963196816950587289035428064568320970692304673817341489687522457601",
        "55464657044963196816950587289035428064568320970692304673817341489687522457603"
      ]
    },
    {
      "x": 402,
      "y": 318,
      "size": 1,
      "price": "4683000000000000000000",
      "reserved": "",
      "salt": "0xa17ddda646510c3d1878e72fe73cd0af48cd6d5f890036177a55dd943247a537",
      "assetIds": [
        "55464657044963196816950587289035428064568320970692304673817341489687522457602",
        "55464657044963196816950587289035428064568320970692304673817341489687522457604"
      ]
    },
    {
      "x": 404,
      "y": 318,
      "size": 1,
      "price": "4683000000000000000000",
      "reserved": "",
      "salt": "0xdcb39e95c2336f1e7741d2b5a5e88e8bd9adc92465f2709aeb6049dd1d6267ff",
      "assetIds": [
        "55464657044963196816950587289035428064568320970692304673817341489687522457601",
        "55464657044963196816950587289035428064568320970692304673817341489687522457603"
      ]
    },
    {
      "x": 405,
      "y": 319,
      "size": 1,
      "price": "4683000000000000000000",
      "reserved": "",
      "salt": "0x1086431f113cb0d50f6e58d972708a1a30f9484e42ab7345b9944a8e9b438be8",
      "assetIds": [
        "55464657044963196816950587289035428064568320970692304673817341489687522457603",
        "55464657044963196816950587289035428064568320970692304673817341489687522457602"
      ]
    },
    {
      "x": 406,
      "y": 319,
      "size": 1,
      "price": "4683000000000000000000",
      "reserved": "",
      "salt": "0x7cf202cdb4ecd046b299063fa927c50706f06082d3faf2a7633793680d437cef",
      "assetIds": [
        "55464657044963196816950587289035428064568320970692304673817341489687522457603",
        "55464657044963196816950587289035428064568320970692304673817341489687522457602"
      ]
    },
    {
      "x": 404,
      "y": 319,
      "size": 1,
      "price": "4683000000000000000000",
      "reserved": "",
      "salt": "0x31599f81364f70c37cc880b2c326e53f8c846b064ff1ad5bb56b4d08ade7f2a7",
      "assetIds": [
        "55464657044963196816950587289035428064568320970692304673817341489687522457601",
        "55464657044963196816950587289035428064568320970692304673817341489687522457603"
      ]
    },
    {
      "x": 404,
      "y": 317,
      "size": 1,
      "price": "4683000000000000000000",
      "reserved": "",
      "salt": "0xf7b6b8b306c2c7f4afa4b5f9b68c8bb351d4b82637425b687555b6ff62ebe703",
      "assetIds": [
        "55464657044963196816950587289035428064568320970692304673817341489687522457605",
        "55464657044963196816950587289035428064568320970692304673817341489687522457601"
      ]
    },
    {
      "x": 404,
      "y": 316,
      "size": 1,
      "price": "4683000000000000000000",
      "reserved": "",
      "salt": "0xbcc73271ab697a6023b566685419877ce29596d0f925754e4e6e4048444b6571",
      "assetIds": [
        "55464657044963196816950587289035428064568320970692304673817341489687522457602",
        "55464657044963196816950587289035428064568320970692304673817341489687522457604"
      ]
    },
    {
      "x": 404,
      "y": 315,
      "size": 1,
      "price": "4683000000000000000000",
      "reserved": "",
      "salt": "0x7fd3583bbda3de65117e91ce1049121e844cb9b07603ef7fb3394086bfdcc968",
      "assetIds": [
        "55464657044963196816950587289035428064568320970692304673817341489687522457602",
        "55464657044963196816950587289035428064568320970692304673817341489687522457604"
      ]
    },
    {
      "x": 404,
      "y": 314,
      "size": 1,
      "price": "4683000000000000000000",
      "reserved": "",
      "salt": "0x58254f6e01c6631a7deead86e398a4bacf9acee752bfaaa9d7b500138b0afb0c",
      "assetIds": [
        "55464657044963196816950587289035428064568320970692304673817341489687522457603",
        "55464657044963196816950587289035428064568320970692304673817341489687522457602"
      ]
    },
    {
      "x": 405,
      "y": 314,
      "size": 1,
      "price": "4683000000000000000000",
      "reserved": "",
      "salt": "0x9be913eed00d5613139b053642829f1a5536c96d9333939857bbbab68611d9d3",
      "assetIds": [
        "55464657044963196816950587289035428064568320970692304673817341489687522457603",
        "55464657044963196816950587289035428064568320970692304673817341489687522457602"
      ]
    },
    {
      "x": 406,
      "y": 313,
      "size": 1,
      "price": "4683000000000000000000",
      "reserved": "",
      "salt": "0x63e393148caf5cafae26379b6a7d1c886efef4cfe94b833113fad4f05314ce63",
      "assetIds": [
        "55464657044963196816950587289035428064568320970692304673817341489687522457603",
        "55464657044963196816950587289035428064568320970692304673817341489687522457602"
      ]
    },
    {
      "x": 405,
      "y": 313,
      "size": 1,
      "price": "4683000000000000000000",
      "reserved": "",
      "salt": "0x8d54777fe45d3719824ca264b5cf0427d4e9388bc1daef20faf8acc5a04323c5",
      "assetIds": [
        "55464657044963196816950587289035428064568320970692304673817341489687522457605",
        "55464657044963196816950587289035428064568320970692304673817341489687522457601"
      ]
    },
    {
      "x": 404,
      "y": 313,
      "size": 1,
      "price": "4683000000000000000000",
      "reserved": "",
      "salt": "0xae1b882e9522e8c97b1bf43d4429eacb77cb906d3cb5c9ce6ad654880f0b8e96",
      "assetIds": [
        "55464657044963196816950587289035428064568320970692304673817341489687522457605",
        "55464657044963196816950587289035428064568320970692304673817341489687522457601"
      ]
    },
    {
      "x": 405,
      "y": 315,
      "size": 1,
      "price": "4683000000000000000000",
      "reserved": "",
      "salt": "0x4412d046c3509887d6399dd88ab89caa618ae8224f65f7e07fd311256ef38240",
      "assetIds": [
        "55464657044963196816950587289035428064568320970692304673817341489687522457603",
        "55464657044963196816950587289035428064568320970692304673817341489687522457602"
      ]
    },
    {
      "x": 405,
      "y": 316,
      "size": 1,
      "price": "4683000000000000000000",
      "reserved": "",
      "salt": "0x9b177c6964f0eb74b5be9a23da46db2ba5a942b47b275987fd0e1417ea6009db",
      "assetIds": [
        "55464657044963196816950587289035428064568320970692304673817341489687522457602",
        "55464657044963196816950587289035428064568320970692304673817341489687522457604"
      ]
    },
    {
      "x": 405,
      "y": 317,
      "size": 1,
      "price": "4683000000000000000000",
      "reserved": "",
      "salt": "0x20e31b5f31be68fec074ad737077dbff4b7b68bf81ef09cd3b456f0b449656b9",
      "assetIds": [
        "55464657044963196816950587289035428064568320970692304673817341489687522457601",
        "55464657044963196816950587289035428064568320970692304673817341489687522457603"
      ]
    },
    {
      "x": 405,
      "y": 318,
      "size": 1,
      "price": "4683000000000000000000",
      "reserved": "",
      "salt": "0x5135fc4e1f6210737c96060aef1d2f3b226b34df18baf0fd1498e5d3559e4d46",
      "assetIds": [
        "55464657044963196816950587289035428064568320970692304673817341489687522457602",
        "55464657044963196816950587289035428064568320970692304673817341489687522457604"
      ]
    },
    {
      "x": 406,
      "y": 317,
      "size": 1,
      "price": "4683000000000000000000",
      "reserved": "",
      "salt": "0x85fad8496d8f9d595813e877dce3dcb016bf1d12739b62e9859d546731e9adc3",
      "assetIds": [
        "55464657044963196816950587289035428064568320970692304673817341489687522457605",
        "55464657044963196816950587289035428064568320970692304673817341489687522457601"
      ]
    },
    {
      "x": 406,
      "y": 316,
      "size": 1,
      "price": "4683000000000000000000",
      "reserved": "",
      "salt": "0x7f1dadb57ae6835b074998d7f758114b959f2d17b9af0ee5cb452063c4cc44e8",
      "assetIds": [
        "55464657044963196816950587289035428064568320970692304673817341489687522457602",
        "55464657044963196816950587289035428064568320970692304673817341489687522457604"
      ]
    },
    {
      "x": 406,
      "y": 315,
      "size": 1,
      "price": "4683000000000000000000",
      "reserved": "",
      "salt": "0xaabd1d7d24aa4a470707cd93a46edf3e1f4e053f8a4940722cfb423a1a222de6",
      "assetIds": [
        "55464657044963196816950587289035428064568320970692304673817341489687522457603",
        "55464657044963196816950587289035428064568320970692304673817341489687522457602"
      ]
    },
    {
      "x": 405,
      "y": 324,
      "size": 1,
      "price": "4683000000000000000000",
      "reserved": "",
      "salt": "0x337876a1a666eca6c824765c14b9ebfba95844ee0f86a612ae276c7c9b8c1c1e",
      "assetIds": [
        "55464657044963196816950587289035428064568320970692304673817341489687522457601",
        "55464657044963196816950587289035428064568320970692304673817341489687522457603"
      ]
    },
    {
      "x": 405,
      "y": 325,
      "size": 1,
      "price": "4683000000000000000000",
      "reserved": "",
      "salt": "0x8ca145ed3d3fa1931d7d2e1939fcae39f9ef3100978baaa87e22cff2d2df163a",
      "assetIds": [
        "55464657044963196816950587289035428064568320970692304673817341489687522457601",
        "55464657044963196816950587289035428064568320970692304673817341489687522457603"
      ]
    },
    {
      "x": 405,
      "y": 326,
      "size": 1,
      "price": "4683000000000000000000",
      "reserved": "",
      "salt": "0xc7d6c04d64f112f0875bd7736ef75b40db580f2a70dfa4b9f8d1ab9424bd71c0",
      "assetIds": [
        "55464657044963196816950587289035428064568320970692304673817341489687522457605",
        "55464657044963196816950587289035428064568320970692304673817341489687522457601"
      ]
    },
    {
      "x": 405,
      "y": 327,
      "size": 1,
      "price": "4683000000000000000000",
      "reserved": "",
      "salt": "0x3c71b19c9ecc4dd49c2e9de61a2fe361b84794463c20344c528418420e22a8ba",
      "assetIds": [
        "55464657044963196816950587289035428064568320970692304673817341489687522457605",
        "55464657044963196816950587289035428064568320970692304673817341489687522457601"
      ]
    },
    {
      "x": 405,
      "y": 328,
      "size": 1,
      "price": "4683000000000000000000",
      "reserved": "",
      "salt": "0x420a318de8b039074a4105146df8b4990a92f10f17f4c0db591d277f184653a0",
      "assetIds": [
        "55464657044963196816950587289035428064568320970692304673817341489687522457601",
        "55464657044963196816950587289035428064568320970692304673817341489687522457603"
      ]
    },
    {
      "x": 405,
      "y": 329,
      "size": 1,
      "price": "4683000000000000000000",
      "reserved": "",
      "salt": "0xecc75e012758e79d90bd730c6b4e0a753d99ae038d45b0e32f2eb94006239d3f",
      "assetIds": [
        "55464657044963196816950587289035428064568320970692304673817341489687522457605",
        "55464657044963196816950587289035428064568320970692304673817341489687522457601"
      ]
    },
    {
      "x": 405,
      "y": 330,
      "size": 1,
      "price": "4683000000000000000000",
      "reserved": "",
      "salt": "0x9421c045ebd5ca13b4792ee133d09fac15f6d71adb48fc26ff293db63d279912",
      "assetIds": [
        "55464657044963196816950587289035428064568320970692304673817341489687522457602",
        "55464657044963196816950587289035428064568320970692304673817341489687522457604"
      ]
    },
    {
      "x": 405,
      "y": 331,
      "size": 1,
      "price": "4683000000000000000000",
      "reserved": "",
      "salt": "0x58fffee921376936969dabdf33bfae6cede26528ccd09b0d3555f9394b888229",
      "assetIds": [
        "55464657044963196816950587289035428064568320970692304673817341489687522457603",
        "55464657044963196816950587289035428064568320970692304673817341489687522457602"
      ]
    },
    {
      "x": 405,
      "y": 332,
      "size": 1,
      "price": "4683000000000000000000",
      "reserved": "",
      "salt": "0xf388c1dba8ec55290342737d9f2905229c1d9f04aafcc7d756e1aaf895f482ff",
      "assetIds": [
        "55464657044963196816950587289035428064568320970692304673817341489687522457602",
        "55464657044963196816950587289035428064568320970692304673817341489687522457604"
      ]
    },
    {
      "x": 404,
      "y": 332,
      "size": 1,
      "price": "4683000000000000000000",
      "reserved": "",
      "salt": "0xf6b25cf930452a92dc621939ebd341a5370e03a28c61e264f4a69ed6aec7ad38",
      "assetIds": [
        "55464657044963196816950587289035428064568320970692304673817341489687522457601",
        "55464657044963196816950587289035428064568320970692304673817341489687522457603"
      ]
    },
    {
      "x": 404,
      "y": 333,
      "size": 1,
      "price": "4683000000000000000000",
      "reserved": "",
      "salt": "0x151c6ad1145e1180b15ab035a1fe77ccd7c816e20cb283069233396f36c7b9c8",
      "assetIds": [
        "55464657044963196816950587289035428064568320970692304673817341489687522457601",
        "55464657044963196816950587289035428064568320970692304673817341489687522457603"
      ]
    },
    {
      "x": 403,
      "y": 333,
      "size": 1,
      "price": "4683000000000000000000",
      "reserved": "",
      "salt": "0xf01960dc1e9b63ccd1cda7089ea9c19ec948c27424ceab637bd2ddc435c3fbeb",
      "assetIds": [
        "55464657044963196816950587289035428064568320970692304673817341489687522457605",
        "55464657044963196816950587289035428064568320970692304673817341489687522457601"
      ]
    },
    {
      "x": 403,
      "y": 334,
      "size": 1,
      "price": "4683000000000000000000",
      "reserved": "",
      "salt": "0x86f8dba0b6bb60ba5d34552d987bf901808b429faf27ac825cde6e55ee0d73ef",
      "assetIds": [
        "55464657044963196816950587289035428064568320970692304673817341489687522457605",
        "55464657044963196816950587289035428064568320970692304673817341489687522457601"
      ]
    },
    {
      "x": 403,
      "y": 335,
      "size": 1,
      "price": "4683000000000000000000",
      "reserved": "",
      "salt": "0x121bb0b9b0f454195677a27df61964b53a94484abc7f93f61c3f4121f989f04d",
      "assetIds": [
        "55464657044963196816950587289035428064568320970692304673817341489687522457605",
        "55464657044963196816950587289035428064568320970692304673817341489687522457601"
      ]
    },
    {
      "x": 402,
      "y": 335,
      "size": 1,
      "price": "4683000000000000000000",
      "reserved": "",
      "salt": "0xd23e75a66168773247e95aab287368b29893a5d1458f973569757642900e360d",
      "assetIds": [
        "55464657044963196816950587289035428064568320970692304673817341489687522457603",
        "55464657044963196816950587289035428064568320970692304673817341489687522457602"
      ]
    },
    {
      "x": 401,
      "y": 335,
      "size": 1,
      "price": "4683000000000000000000",
      "reserved": "",
      "salt": "0x2622ba0e0a5de7086870bf8de5301014851cf31807676eb2e7293731098bcc59",
      "assetIds": [
        "55464657044963196816950587289035428064568320970692304673817341489687522457605",
        "55464657044963196816950587289035428064568320970692304673817341489687522457601"
      ]
    },
    {
      "x": 400,
      "y": 335,
      "size": 1,
      "price": "4683000000000000000000",
      "reserved": "",
      "salt": "0x0f09e90a61f8953aa79cb1dd0261f8748c92e7d2ab306b4caaf7f0ea9e9dbd0b",
      "assetIds": [
        "55464657044963196816950587289035428064568320970692304673817341489687522457605",
        "55464657044963196816950587289035428064568320970692304673817341489687522457601"
      ]
    },
    {
      "x": 399,
      "y": 335,
      "size": 1,
      "price": "4683000000000000000000",
      "reserved": "",
      "salt": "0x42ebab99df9ec1a149943aa9bd02b532e477dd8e6b485b4b892f028fba10ed6a",
      "assetIds": [
        "55464657044963196816950587289035428064568320970692304673817341489687522457603",
        "55464657044963196816950587289035428064568320970692304673817341489687522457602"
      ]
    },
    {
      "x": 398,
      "y": 335,
      "size": 1,
      "price": "4683000000000000000000",
      "reserved": "",
      "salt": "0xe1808ceeaffc0a2300a92dfba305777832c32990852bd95b5010382ad7d76505",
      "assetIds": [
        "55464657044963196816950587289035428064568320970692304673817341489687522457602",
        "55464657044963196816950587289035428064568320970692304673817341489687522457604"
      ]
    },
    {
      "x": 397,
      "y": 335,
      "size": 1,
      "price": "4683000000000000000000",
      "reserved": "",
      "salt": "0xc17a7eaa23b3b76eef5da3d142fe1c11966e9a2770c03b653fec4ba472b2a953",
      "assetIds": [
        "55464657044963196816950587289035428064568320970692304673817341489687522457605",
        "55464657044963196816950587289035428064568320970692304673817341489687522457601"
      ]
    },
    {
      "x": 396,
      "y": 335,
      "size": 1,
      "price": "4683000000000000000000",
      "reserved": "",
      "salt": "0x62f921f696945e73d604a01b13a681e13ad5aebe3d7c12855d9c8121ace6eeb2",
      "assetIds": [
        "55464657044963196816950587289035428064568320970692304673817341489687522457601",
        "55464657044963196816950587289035428064568320970692304673817341489687522457603"
      ]
    },
    {
      "x": 396,
      "y": 334,
      "size": 1,
      "price": "4683000000000000000000",
      "reserved": "",
      "salt": "0xfe23354091aeab8664bb333847194403556e9be726ca5d34b15dffc0a4eba4d4",
      "assetIds": [
        "55464657044963196816950587289035428064568320970692304673817341489687522457602",
        "55464657044963196816950587289035428064568320970692304673817341489687522457604"
      ]
    },
    {
      "x": 396,
      "y": 333,
      "size": 1,
      "price": "4683000000000000000000",
      "reserved": "",
      "salt": "0x3d959e9725b36e6ac084743e9aaf46ec17410753416be06b9f6ed67abd6b7b77",
      "assetIds": [
        "55464657044963196816950587289035428064568320970692304673817341489687522457601",
        "55464657044963196816950587289035428064568320970692304673817341489687522457603"
      ]
    },
    {
      "x": 396,
      "y": 332,
      "size": 1,
      "price": "4683000000000000000000",
      "reserved": "",
      "salt": "0x5869f6f3b55ee50bdcb529f921e472f42bc471ae3d9ed8ca28f9bd6d7d412b65",
      "assetIds": [
        "55464657044963196816950587289035428064568320970692304673817341489687522457601",
        "55464657044963196816950587289035428064568320970692304673817341489687522457603"
      ]
    },
    {
      "x": 396,
      "y": 331,
      "size": 1,
      "price": "4683000000000000000000",
      "reserved": "",
      "salt": "0x0c1c10d8ff8d495b7172e3ff2ada1252fd1dad94246465fb3d614952918ca3d7",
      "assetIds": [
        "55464657044963196816950587289035428064568320970692304673817341489687522457601",
        "55464657044963196816950587289035428064568320970692304673817341489687522457603"
      ]
    },
    {
      "x": 396,
      "y": 330,
      "size": 1,
      "price": "4683000000000000000000",
      "reserved": "",
      "salt": "0x53a14ec88900fd2e82414e79b3c042680bcf485e8a14463aee29d3cc041c4d0c",
      "assetIds": [
        "55464657044963196816950587289035428064568320970692304673817341489687522457603",
        "55464657044963196816950587289035428064568320970692304673817341489687522457602"
      ]
    },
    {
      "x": 396,
      "y": 329,
      "size": 1,
      "price": "4683000000000000000000",
      "reserved": "",
      "salt": "0xd4332c48bc653d4564f5988f6f6ef1f314caf01d1676e43ad8fbb62ca9c5657a",
      "assetIds": [
        "55464657044963196816950587289035428064568320970692304673817341489687522457602",
        "55464657044963196816950587289035428064568320970692304673817341489687522457604"
      ]
    },
    {
      "x": 396,
      "y": 328,
      "size": 1,
      "price": "4683000000000000000000",
      "reserved": "",
      "salt": "0x9fa25ce71917709d98d034614dd5d4627c8a2313191f46fba29cc9dc90b54efe",
      "assetIds": [
        "55464657044963196816950587289035428064568320970692304673817341489687522457605",
        "55464657044963196816950587289035428064568320970692304673817341489687522457601"
      ]
    },
    {
      "x": 396,
      "y": 327,
      "size": 1,
      "price": "4683000000000000000000",
      "reserved": "",
      "salt": "0x7527809d764a472ac554fdce6cf4696e742c33a6a103baf28cdeea92b193fedf",
      "assetIds": [
        "55464657044963196816950587289035428064568320970692304673817341489687522457603",
        "55464657044963196816950587289035428064568320970692304673817341489687522457602"
      ]
    },
    {
      "x": 396,
      "y": 326,
      "size": 1,
      "price": "4683000000000000000000",
      "reserved": "",
      "salt": "0xcdbfb19927fdf7869b8b477fba2a766483ca01421f2b23c879892797069d04af",
      "assetIds": [
        "55464657044963196816950587289035428064568320970692304673817341489687522457603",
        "55464657044963196816950587289035428064568320970692304673817341489687522457602"
      ]
    },
    {
      "x": 396,
      "y": 325,
      "size": 1,
      "price": "4683000000000000000000",
      "reserved": "",
      "salt": "0x5abe614cf80702fa9a9a2a311ab26fdd1541262024d95ca4ea68ab825c611428",
      "assetIds": [
        "55464657044963196816950587289035428064568320970692304673817341489687522457603",
        "55464657044963196816950587289035428064568320970692304673817341489687522457602"
      ]
    },
    {
      "x": 396,
      "y": 324,
      "size": 1,
      "price": "4683000000000000000000",
      "reserved": "",
      "salt": "0x63a6c3a1b19421c338cd6e5ff599bc9c824e91d7e4e1176f755b5cb49fde69ff",
      "assetIds": [
        "55464657044963196816950587289035428064568320970692304673817341489687522457601",
        "55464657044963196816950587289035428064568320970692304673817341489687522457603"
      ]
    },
    {
      "x": 396,
      "y": 323,
      "size": 1,
      "price": "4683000000000000000000",
      "reserved": "",
      "salt": "0x80752b4fe83cfe0eb2d33109ca2f2e9e19b0df2887d277bd8c78c0d6d5b0f889",
      "assetIds": [
        "55464657044963196816950587289035428064568320970692304673817341489687522457603",
        "55464657044963196816950587289035428064568320970692304673817341489687522457602"
      ]
    },
    {
      "x": 396,
      "y": 322,
      "size": 1,
      "price": "4683000000000000000000",
      "reserved": "",
      "salt": "0x96d41884c82039c60988da92fdbdf95f09e2cf59877dbbb823743925bde571dc",
      "assetIds": [
        "55464657044963196816950587289035428064568320970692304673817341489687522457603",
        "55464657044963196816950587289035428064568320970692304673817341489687522457602"
      ]
    },
    {
      "x": 396,
      "y": 321,
      "size": 1,
      "price": "4683000000000000000000",
      "reserved": "",
      "salt": "0x9c0ebbfcf5b34f889114a806fb4f78f2c336a4c6b60c42ca03c86ffc37a4993b",
      "assetIds": [
        "55464657044963196816950587289035428064568320970692304673817341489687522457603",
        "55464657044963196816950587289035428064568320970692304673817341489687522457602"
      ]
    },
    {
      "x": 396,
      "y": 320,
      "size": 1,
      "price": "4683000000000000000000",
      "reserved": "",
      "salt": "0x357523ba07148bf00ffc2dab18b0d63043997197010d7fc84cd236602e728c54",
      "assetIds": [
        "55464657044963196816950587289035428064568320970692304673817341489687522457601",
        "55464657044963196816950587289035428064568320970692304673817341489687522457603"
      ]
    },
    {
      "x": 396,
      "y": 319,
      "size": 1,
      "price": "4683000000000000000000",
      "reserved": "",
      "salt": "0x8cd496fe9c6b82dc94b20ec05ab8088cd39299bbde1992abab491ec795c641a5",
      "assetIds": [
        "55464657044963196816950587289035428064568320970692304673817341489687522457603",
        "55464657044963196816950587289035428064568320970692304673817341489687522457602"
      ]
    },
    {
      "x": 396,
      "y": 318,
      "size": 1,
      "price": "4683000000000000000000",
      "reserved": "",
      "salt": "0xddcca779c1d9112942c95ba666f00b06cb58a3070caa83606cf9ce4175ce6547",
      "assetIds": [
        "55464657044963196816950587289035428064568320970692304673817341489687522457602",
        "55464657044963196816950587289035428064568320970692304673817341489687522457604"
      ]
    },
    {
      "x": 395,
      "y": 318,
      "size": 1,
      "price": "4683000000000000000000",
      "reserved": "",
      "salt": "0xfa38fc3b497e13489f873fcea8ef485d49f5e218f5a5f8bfb1360c77d252c55d",
      "assetIds": [
        "55464657044963196816950587289035428064568320970692304673817341489687522457603",
        "55464657044963196816950587289035428064568320970692304673817341489687522457602"
      ]
    },
    {
      "x": 394,
      "y": 318,
      "size": 1,
      "price": "4683000000000000000000",
      "reserved": "",
      "salt": "0x450e2ba68e3bad1b047dae4c0fbab1d8792a5380a6aa90e6ff1119363871bcff",
      "assetIds": [
        "55464657044963196816950587289035428064568320970692304673817341489687522457601",
        "55464657044963196816950587289035428064568320970692304673817341489687522457603"
      ]
    },
    {
      "x": 393,
      "y": 318,
      "size": 1,
      "price": "4683000000000000000000",
      "reserved": "",
      "salt": "0xb66761c33256cbb27ede0f01bd5c30cfe416fa44698ca28162598425a0f4c0af",
      "assetIds": [
        "55464657044963196816950587289035428064568320970692304673817341489687522457601",
        "55464657044963196816950587289035428064568320970692304673817341489687522457603"
      ]
    },
    {
      "x": 392,
      "y": 318,
      "size": 1,
      "price": "4683000000000000000000",
      "reserved": "",
      "salt": "0x2520c3a46bf4b5ee7de7deff6590f15e4e9ef30be54479d750307ba678513740",
      "assetIds": [
        "55464657044963196816950587289035428064568320970692304673817341489687522457602",
        "55464657044963196816950587289035428064568320970692304673817341489687522457604"
      ]
    },
    {
      "x": 391,
      "y": 318,
      "size": 1,
      "price": "4683000000000000000000",
      "reserved": "",
      "salt": "0xbd882be41359068a3c785a529ded1fced5545b834fa95291651235ff8c4f9861",
      "assetIds": [
        "55464657044963196816950587289035428064568320970692304673817341489687522457602",
        "55464657044963196816950587289035428064568320970692304673817341489687522457604"
      ]
    },
    {
      "x": 390,
      "y": 318,
      "size": 1,
      "price": "4683000000000000000000",
      "reserved": "",
      "salt": "0xb1d20e1aef7a4aea818b0d16172e104e685339ffa86f1849dc8d70d4d92e6df3",
      "assetIds": [
        "55464657044963196816950587289035428064568320970692304673817341489687522457605",
        "55464657044963196816950587289035428064568320970692304673817341489687522457601"
      ]
    },
    {
      "x": 390,
      "y": 319,
      "size": 1,
      "price": "4683000000000000000000",
      "reserved": "",
      "salt": "0x86d72f2020da89976560124c084cfab7e41c5ba1482d7dcf0a702833a2983349",
      "assetIds": [
        "55464657044963196816950587289035428064568320970692304673817341489687522457605",
        "55464657044963196816950587289035428064568320970692304673817341489687522457601"
      ]
    },
    {
      "x": 390,
      "y": 320,
      "size": 1,
      "price": "4683000000000000000000",
      "reserved": "",
      "salt": "0x57aa38d2be2f80a8941d33eee62f49ac3bd5cc7baf9887bf1e85ecb9afcbe1d9",
      "assetIds": [
        "55464657044963196816950587289035428064568320970692304673817341489687522457603",
        "55464657044963196816950587289035428064568320970692304673817341489687522457602"
      ]
    },
    {
      "x": 390,
      "y": 321,
      "size": 1,
      "price": "4683000000000000000000",
      "reserved": "",
      "salt": "0xfab5686c4e92c3f2874016cc798c0f3007142c2232f051d84a7b670b4f0bf667",
      "assetIds": [
        "55464657044963196816950587289035428064568320970692304673817341489687522457601",
        "55464657044963196816950587289035428064568320970692304673817341489687522457603"
      ]
    },
    {
      "x": 391,
      "y": 322,
      "size": 1,
      "price": "4683000000000000000000",
      "reserved": "",
      "salt": "0xe0cbbd9c36c89301e7d312ad45cc28e6a1777a9c90d144d33e692e8f006f6277",
      "assetIds": [
        "55464657044963196816950587289035428064568320970692304673817341489687522457605",
        "55464657044963196816950587289035428064568320970692304673817341489687522457601"
      ]
    },
    {
      "x": 391,
      "y": 323,
      "size": 1,
      "price": "4683000000000000000000",
      "reserved": "",
      "salt": "0x5c3e99ac82fec70f950507a83ff63b55a282c6098a6dc4487397caf43ca9ab4c",
      "assetIds": [
        "55464657044963196816950587289035428064568320970692304673817341489687522457605",
        "55464657044963196816950587289035428064568320970692304673817341489687522457601"
      ]
    },
    {
      "x": 393,
      "y": 323,
      "size": 1,
      "price": "4683000000000000000000",
      "reserved": "",
      "salt": "0x15f4ae1946a23e1af74784ef651115e3d1cc5fb1923db600de43764e497eafa5",
      "assetIds": [
        "55464657044963196816950587289035428064568320970692304673817341489687522457605",
        "55464657044963196816950587289035428064568320970692304673817341489687522457601"
      ]
    },
    {
      "x": 394,
      "y": 323,
      "size": 1,
      "price": "4683000000000000000000",
      "reserved": "",
      "salt": "0xa0b299df447d29e6bb1f05b614feb452c35b69f43bb4c9dc423af03e2d31142e",
      "assetIds": [
        "55464657044963196816950587289035428064568320970692304673817341489687522457601",
        "55464657044963196816950587289035428064568320970692304673817341489687522457603"
      ]
    },
    {
      "x": 395,
      "y": 323,
      "size": 1,
      "price": "4683000000000000000000",
      "reserved": "",
      "salt": "0xbf9315c6f39a4db3ef4b57db6eb12cb98037ecc7075b8a55c8a06a4c25691fc6",
      "assetIds": [
        "55464657044963196816950587289035428064568320970692304673817341489687522457603",
        "55464657044963196816950587289035428064568320970692304673817341489687522457602"
      ]
    },
    {
      "x": 395,
      "y": 320,
      "size": 1,
      "price": "4683000000000000000000",
      "reserved": "",
      "salt": "0xa167ec3295f624e09815a3629f9fbf96e8e6cea7477acf253c5c3cdaf9a924fb",
      "assetIds": [
        "55464657044963196816950587289035428064568320970692304673817341489687522457603",
        "55464657044963196816950587289035428064568320970692304673817341489687522457602"
      ]
    },
    {
      "x": 395,
      "y": 319,
      "size": 1,
      "price": "4683000000000000000000",
      "reserved": "",
      "salt": "0x9290c1423d183ec5b4f490b51799c6d8a4812e3bb75eed3000309c0e7bfd0e7f",
      "assetIds": [
        "55464657044963196816950587289035428064568320970692304673817341489687522457601",
        "55464657044963196816950587289035428064568320970692304673817341489687522457603"
      ]
    },
    {
      "x": 394,
      "y": 319,
      "size": 1,
      "price": "4683000000000000000000",
      "reserved": "",
      "salt": "0x5848db6b0ba215d526b59413c7d24b539a8b820416cc0ca56f95e3e541955538",
      "assetIds": [
        "55464657044963196816950587289035428064568320970692304673817341489687522457605",
        "55464657044963196816950587289035428064568320970692304673817341489687522457601"
      ]
    },
    {
      "x": 394,
      "y": 320,
      "size": 1,
      "price": "4683000000000000000000",
      "reserved": "",
      "salt": "0x1c0bf24929a579da182905408e2718543dfcf0bccecd70a66e9bb24d3104d5e1",
      "assetIds": [
        "55464657044963196816950587289035428064568320970692304673817341489687522457605",
        "55464657044963196816950587289035428064568320970692304673817341489687522457601"
      ]
    },
    {
      "x": 394,
      "y": 321,
      "size": 1,
      "price": "4683000000000000000000",
      "reserved": "",
      "salt": "0xbcf02b3ef39612aeb6ca55e9f9c79091304785dd8cc55d713c4a2ad1ecb21f4e",
      "assetIds": [
        "55464657044963196816950587289035428064568320970692304673817341489687522457601",
        "55464657044963196816950587289035428064568320970692304673817341489687522457603"
      ]
    },
    {
      "x": 395,
      "y": 321,
      "size": 1,
      "price": "4683000000000000000000",
      "reserved": "",
      "salt": "0xd16686a47c932f543270a3186ebae124a9aba6687de8f36569410c798098daf4",
      "assetIds": [
        "55464657044963196816950587289035428064568320970692304673817341489687522457602",
        "55464657044963196816950587289035428064568320970692304673817341489687522457604"
      ]
    },
    {
      "x": 395,
      "y": 322,
      "size": 1,
      "price": "4683000000000000000000",
      "reserved": "",
      "salt": "0x6e6acd50e37d27e17aa296284a5f72d60ccb5e8e2db6c18f0d7bb90baf8c7be3",
      "assetIds": [
        "55464657044963196816950587289035428064568320970692304673817341489687522457602",
        "55464657044963196816950587289035428064568320970692304673817341489687522457604"
      ]
    },
    {
      "x": 397,
      "y": 323,
      "size": 1,
      "price": "4683000000000000000000",
      "reserved": "",
      "salt": "0x51ec17479d9b83f0f983c768d9da69fbba26ab937c490593f05054a4997c7981",
      "assetIds": [
        "55464657044963196816950587289035428064568320970692304673817341489687522457603",
        "55464657044963196816950587289035428064568320970692304673817341489687522457602"
      ]
    },
    {
      "x": 397,
      "y": 324,
      "size": 1,
      "price": "4683000000000000000000",
      "reserved": "",
      "salt": "0xca75d163beb3d5c0b0d16485cae148fabfbad58310f7b4d0fae02e66a8a4557a",
      "assetIds": [
        "55464657044963196816950587289035428064568320970692304673817341489687522457602",
        "55464657044963196816950587289035428064568320970692304673817341489687522457604"
      ]
    },
    {
      "x": 394,
      "y": 322,
      "size": 1,
      "price": "4683000000000000000000",
      "reserved": "",
      "salt": "0xa388c63c4aa28dadfde172e18add961cf51f9c05afb0faf01738858203d66a36",
      "assetIds": [
        "55464657044963196816950587289035428064568320970692304673817341489687522457603",
        "55464657044963196816950587289035428064568320970692304673817341489687522457602"
      ]
    },
    {
      "x": 393,
      "y": 322,
      "size": 1,
      "price": "4683000000000000000000",
      "reserved": "",
      "salt": "0x832112ba1908b22c65073886964f3fe26311e28f1fb7dc1ee4d97decfe83116c",
      "assetIds": [
        "55464657044963196816950587289035428064568320970692304673817341489687522457601",
        "55464657044963196816950587289035428064568320970692304673817341489687522457603"
      ]
    },
    {
      "x": 393,
      "y": 321,
      "size": 1,
      "price": "4683000000000000000000",
      "reserved": "",
      "salt": "0x8853b4c758fea2a84221382f769ec609f14c33a0dbba80b5fafcff953880dd3d",
      "assetIds": [
        "55464657044963196816950587289035428064568320970692304673817341489687522457601",
        "55464657044963196816950587289035428064568320970692304673817341489687522457603"
      ]
    },
    {
      "x": 393,
      "y": 320,
      "size": 1,
      "price": "4683000000000000000000",
      "reserved": "",
      "salt": "0x40f35820ac49dd514045f58b8848dce575183669ce9d7bdea3cd43109c5b64d3",
      "assetIds": [
        "55464657044963196816950587289035428064568320970692304673817341489687522457601",
        "55464657044963196816950587289035428064568320970692304673817341489687522457603"
      ]
    },
    {
      "x": 392,
      "y": 319,
      "size": 1,
      "price": "4683000000000000000000",
      "reserved": "",
      "salt": "0x992cc15608a97302d63794194cd646dfe21a8ca62d8ba3853ae5598c823a4060",
      "assetIds": [
        "55464657044963196816950587289035428064568320970692304673817341489687522457601",
        "55464657044963196816950587289035428064568320970692304673817341489687522457603"
      ]
    },
    {
      "x": 393,
      "y": 319,
      "size": 1,
      "price": "4683000000000000000000",
      "reserved": "",
      "salt": "0x742ae8eebe4440148ec1fb6f5ea413bb1031a86a309bed488ff886151126953b",
      "assetIds": [
        "55464657044963196816950587289035428064568320970692304673817341489687522457601",
        "55464657044963196816950587289035428064568320970692304673817341489687522457603"
      ]
    },
    {
      "x": 391,
      "y": 319,
      "size": 1,
      "price": "4683000000000000000000",
      "reserved": "",
      "salt": "0x8d3d5ec419ebe8a4ff91c063d54b4dad2462f43a9734411e0e1e0822ae542671",
      "assetIds": [
        "55464657044963196816950587289035428064568320970692304673817341489687522457601",
        "55464657044963196816950587289035428064568320970692304673817341489687522457603"
      ]
    },
    {
      "x": 391,
      "y": 320,
      "size": 1,
      "price": "4683000000000000000000",
      "reserved": "",
      "salt": "0xdf7875e0e9c9c4b906569107395352a20d1cf67758e6c5512107fb8e4124d1a8",
      "assetIds": [
        "55464657044963196816950587289035428064568320970692304673817341489687522457605",
        "55464657044963196816950587289035428064568320970692304673817341489687522457601"
      ]
    },
    {
      "x": 392,
      "y": 320,
      "size": 1,
      "price": "4683000000000000000000",
      "reserved": "",
      "salt": "0x470e2a4aea4c69018c7783bf4f3167fa4c80f64b72512fcede418246dd8c9e01",
      "assetIds": [
        "55464657044963196816950587289035428064568320970692304673817341489687522457603",
        "55464657044963196816950587289035428064568320970692304673817341489687522457602"
      ]
    },
    {
      "x": 392,
      "y": 321,
      "size": 1,
      "price": "4683000000000000000000",
      "reserved": "",
      "salt": "0xa7dcc9fe78761e6f45a48178ee8e54bc485810b5a726741aea297096777c6047",
      "assetIds": [
        "55464657044963196816950587289035428064568320970692304673817341489687522457602",
        "55464657044963196816950587289035428064568320970692304673817341489687522457604"
      ]
    },
    {
      "x": 392,
      "y": 323,
      "size": 1,
      "price": "4683000000000000000000",
      "reserved": "",
      "salt": "0x497779109e7e04cc4d224c27e21df832020ea68389486ba3c826bd7eae35fe2c",
      "assetIds": [
        "55464657044963196816950587289035428064568320970692304673817341489687522457605",
        "55464657044963196816950587289035428064568320970692304673817341489687522457601"
      ]
    },
    {
      "x": 392,
      "y": 322,
      "size": 1,
      "price": "4683000000000000000000",
      "reserved": "",
      "salt": "0xf57241d241288f2e9331e934dae1930d417ff11e1d005333715f161a7e4fa90a",
      "assetIds": [
        "55464657044963196816950587289035428064568320970692304673817341489687522457601",
        "55464657044963196816950587289035428064568320970692304673817341489687522457603"
      ]
    },
    {
      "x": 390,
      "y": 322,
      "size": 1,
      "price": "4683000000000000000000",
      "reserved": "",
      "salt": "0x22113772601940b58353ac7b1b7f6aa7bb54090af6ca52fbb3e49b1f1f3503ed",
      "assetIds": [
        "55464657044963196816950587289035428064568320970692304673817341489687522457605",
        "55464657044963196816950587289035428064568320970692304673817341489687522457601"
      ]
    },
    {
      "x": 390,
      "y": 323,
      "size": 1,
      "price": "4683000000000000000000",
      "reserved": "",
      "salt": "0xa2a22dbb005c2ae9dd5db16d9e2f23d5a45267c440e1b6427c6db5ce3460bec2",
      "assetIds": [
        "55464657044963196816950587289035428064568320970692304673817341489687522457603",
        "55464657044963196816950587289035428064568320970692304673817341489687522457602"
      ]
    },
    {
      "x": 397,
      "y": 322,
      "size": 1,
      "price": "4683000000000000000000",
      "reserved": "",
      "salt": "0xe4c2c02ea71fae364e33ada14c3fc2bc513f2b0c9d06dd6b94d45fcd65415eaa",
      "assetIds": [
        "55464657044963196816950587289035428064568320970692304673817341489687522457602",
        "55464657044963196816950587289035428064568320970692304673817341489687522457604"
      ]
    },
    {
      "x": 397,
      "y": 321,
      "size": 1,
      "price": "4683000000000000000000",
      "reserved": "",
      "salt": "0xb6c39a37179b8dfdf2600a1615d2b2db7cfafbca75c2de179b38cb0921c65609",
      "assetIds": [
        "55464657044963196816950587289035428064568320970692304673817341489687522457605",
        "55464657044963196816950587289035428064568320970692304673817341489687522457601"
      ]
    },
    {
      "x": 398,
      "y": 321,
      "size": 1,
      "price": "4683000000000000000000",
      "reserved": "",
      "salt": "0x0e44feebb4415ffd1ae720b07f9459f9accd116d436c34b8a20e606c9891ea12",
      "assetIds": [
        "55464657044963196816950587289035428064568320970692304673817341489687522457603",
        "55464657044963196816950587289035428064568320970692304673817341489687522457602"
      ]
    },
    {
      "x": 399,
      "y": 320,
      "size": 1,
      "price": "4683000000000000000000",
      "reserved": "",
      "salt": "0x11fc0f9f5872e7d51d7f06ecba90516fc8c22afa310899050778ed75a094a181",
      "assetIds": [
        "55464657044963196816950587289035428064568320970692304673817341489687522457605",
        "55464657044963196816950587289035428064568320970692304673817341489687522457601"
      ]
    },
    {
      "x": 399,
      "y": 319,
      "size": 1,
      "price": "4683000000000000000000",
      "reserved": "",
      "salt": "0x734faf9d5668d1945d4fbc1653b83501af63464b2641976af375dd4bdff72bf7",
      "assetIds": [
        "55464657044963196816950587289035428064568320970692304673817341489687522457605",
        "55464657044963196816950587289035428064568320970692304673817341489687522457601"
      ]
    },
    {
      "x": 400,
      "y": 319,
      "size": 1,
      "price": "4683000000000000000000",
      "reserved": "",
      "salt": "0x5351c753c39eec8055bb4ddf8a1c8e97418e91f1ef39ad589569fc8d587704dd",
      "assetIds": [
        "55464657044963196816950587289035428064568320970692304673817341489687522457603",
        "55464657044963196816950587289035428064568320970692304673817341489687522457602"
      ]
    },
    {
      "x": 401,
      "y": 319,
      "size": 1,
      "price": "4683000000000000000000",
      "reserved": "",
      "salt": "0xd27b0f8b893caf3be4e932f81af0b6a505b95e868fa0f67e8ef709e4450e2881",
      "assetIds": [
        "55464657044963196816950587289035428064568320970692304673817341489687522457602",
        "55464657044963196816950587289035428064568320970692304673817341489687522457604"
      ]
    },
    {
      "x": 400,
      "y": 318,
      "size": 1,
      "price": "4683000000000000000000",
      "reserved": "",
      "salt": "0xadfa284b9754b7c8f7e298a5a1fe10c31149dbea9d1e5a7ab4a344ddf2c1ef1d",
      "assetIds": [
        "55464657044963196816950587289035428064568320970692304673817341489687522457602",
        "55464657044963196816950587289035428064568320970692304673817341489687522457604"
      ]
    },
    {
      "x": 399,
      "y": 318,
      "size": 1,
      "price": "4683000000000000000000",
      "reserved": "",
      "salt": "0x3c20fa60d1270c74ee7b48b556c2be8aa322b6957885ddda7680dd9778775f59",
      "assetIds": [
        "55464657044963196816950587289035428064568320970692304673817341489687522457605",
        "55464657044963196816950587289035428064568320970692304673817341489687522457601"
      ]
    },
    {
      "x": 398,
      "y": 318,
      "size": 1,
      "price": "4683000000000000000000",
      "reserved": "",
      "salt": "0x11695f5405b6ca3a1922e103166d93bacee3375b18b7ca65cbb8ca676a3aa288",
      "assetIds": [
        "55464657044963196816950587289035428064568320970692304673817341489687522457602",
        "55464657044963196816950587289035428064568320970692304673817341489687522457604"
      ]
    },
    {
      "x": 397,
      "y": 318,
      "size": 1,
      "price": "4683000000000000000000",
      "reserved": "",
      "salt": "0xc4baf01b5e497869077261dc022e2e43577f38ff43c54b457750d4b7b8da10f5",
      "assetIds": [
        "55464657044963196816950587289035428064568320970692304673817341489687522457601",
        "55464657044963196816950587289035428064568320970692304673817341489687522457603"
      ]
    },
    {
      "x": 401,
      "y": 318,
      "size": 1,
      "price": "4683000000000000000000",
      "reserved": "",
      "salt": "0xcfe7cb64d12db6726ab00a4261a958a5e0a681819a144ab8f6a974fc78d85dd8",
      "assetIds": [
        "55464657044963196816950587289035428064568320970692304673817341489687522457602",
        "55464657044963196816950587289035428064568320970692304673817341489687522457604"
      ]
    },
    {
      "x": 398,
      "y": 319,
      "size": 1,
      "price": "4683000000000000000000",
      "reserved": "",
      "salt": "0x341ecd46624cc21cf71126989121cfd52ddfb419c7de51ea82f4c084889362c9",
      "assetIds": [
        "55464657044963196816950587289035428064568320970692304673817341489687522457603",
        "55464657044963196816950587289035428064568320970692304673817341489687522457602"
      ]
    },
    {
      "x": 397,
      "y": 319,
      "size": 1,
      "price": "4683000000000000000000",
      "reserved": "",
      "salt": "0xf8509ba1e7b2bbabff60e0a30a2281330d5d3167ebc5560f5cd717dc19c2fd2e",
      "assetIds": [
        "55464657044963196816950587289035428064568320970692304673817341489687522457603",
        "55464657044963196816950587289035428064568320970692304673817341489687522457602"
      ]
    },
    {
      "x": 397,
      "y": 320,
      "size": 1,
      "price": "4683000000000000000000",
      "reserved": "",
      "salt": "0x5d6171650cee85eef388db9eb46a39e1fd38682af8ea44adad59de32988984a8",
      "assetIds": [
        "55464657044963196816950587289035428064568320970692304673817341489687522457601",
        "55464657044963196816950587289035428064568320970692304673817341489687522457603"
      ]
    },
    {
      "x": 398,
      "y": 322,
      "size": 1,
      "price": "4683000000000000000000",
      "reserved": "",
      "salt": "0x5cc98c5ff127c1cc355eb08b098b4e7ac027849e5c148b5d6af988fa2bd5e017",
      "assetIds": [
        "55464657044963196816950587289035428064568320970692304673817341489687522457605",
        "55464657044963196816950587289035428064568320970692304673817341489687522457601"
      ]
    },
    {
      "x": 399,
      "y": 322,
      "size": 1,
      "price": "4683000000000000000000",
      "reserved": "",
      "salt": "0x17c8463c474cd7f1be7dca70d06a0db2eb57eba0fc43b54ad6bd089ac47aed15",
      "assetIds": [
        "55464657044963196816950587289035428064568320970692304673817341489687522457602",
        "55464657044963196816950587289035428064568320970692304673817341489687522457604"
      ]
    },
    {
      "x": 400,
      "y": 322,
      "size": 1,
      "price": "4683000000000000000000",
      "reserved": "",
      "salt": "0x10869a98d7bd7d6ef765cd752f74aa8a9301f678ddfebec93f35291dbf568485",
      "assetIds": [
        "55464657044963196816950587289035428064568320970692304673817341489687522457601",
        "55464657044963196816950587289035428064568320970692304673817341489687522457603"
      ]
    },
    {
      "x": 401,
      "y": 322,
      "size": 1,
      "price": "4683000000000000000000",
      "reserved": "",
      "salt": "0x225f3514fe7ce41a854495fc605146a6f8a3843e8689bf9f563d8e1105a426e8",
      "assetIds": [
        "55464657044963196816950587289035428064568320970692304673817341489687522457603",
        "55464657044963196816950587289035428064568320970692304673817341489687522457602"
      ]
    },
    {
      "x": 402,
      "y": 322,
      "size": 1,
      "price": "4683000000000000000000",
      "reserved": "",
      "salt": "0x07bf8d459bd568de33cbc19099c95a98c7772f6d92a2e482ba351a2982b691b7",
      "assetIds": [
        "55464657044963196816950587289035428064568320970692304673817341489687522457603",
        "55464657044963196816950587289035428064568320970692304673817341489687522457602"
      ]
    },
    {
      "x": 402,
      "y": 321,
      "size": 1,
      "price": "4683000000000000000000",
      "reserved": "",
      "salt": "0x8559435b85db26e2b37296d24d088594ba478ed9f17637ce14db8bf7ffc11ff2",
      "assetIds": [
        "55464657044963196816950587289035428064568320970692304673817341489687522457605",
        "55464657044963196816950587289035428064568320970692304673817341489687522457601"
      ]
    },
    {
      "x": 403,
      "y": 321,
      "size": 1,
      "price": "4683000000000000000000",
      "reserved": "",
      "salt": "0xf1d47e2f6bfed81006ae8a284c5efb77b6efda40d0ef80ded5a78e2b5fa6586b",
      "assetIds": [
        "55464657044963196816950587289035428064568320970692304673817341489687522457603",
        "55464657044963196816950587289035428064568320970692304673817341489687522457602"
      ]
    },
    {
      "x": 401,
      "y": 321,
      "size": 1,
      "price": "4683000000000000000000",
      "reserved": "",
      "salt": "0x40ab1a25da6584a8b6a39c494e2319a2105c66f44b8d7155af59d127089b11e5",
      "assetIds": [
        "55464657044963196816950587289035428064568320970692304673817341489687522457603",
        "55464657044963196816950587289035428064568320970692304673817341489687522457602"
      ]
    },
    {
      "x": 401,
      "y": 320,
      "size": 1,
      "price": "4683000000000000000000",
      "reserved": "",
      "salt": "0xd25b3cdd6ed286bd019fbcb2c00c8983cae1ff5a4126cbc101011afd46272ef1",
      "assetIds": [
        "55464657044963196816950587289035428064568320970692304673817341489687522457605",
        "55464657044963196816950587289035428064568320970692304673817341489687522457601"
      ]
    },
    {
      "x": 400,
      "y": 320,
      "size": 1,
      "price": "4683000000000000000000",
      "reserved": "",
      "salt": "0x066661b1464022173078ea84a30c13c9f76fc5919ca154d65bdc9d176a34ebd2",
      "assetIds": [
        "55464657044963196816950587289035428064568320970692304673817341489687522457605",
        "55464657044963196816950587289035428064568320970692304673817341489687522457601"
      ]
    },
    {
      "x": 402,
      "y": 320,
      "size": 1,
      "price": "4683000000000000000000",
      "reserved": "",
      "salt": "0xc11ec51f81ff14afb91390b8294b5ea6342d537ec8574d8f5e9ef7a6846e7dd7",
      "assetIds": [
        "55464657044963196816950587289035428064568320970692304673817341489687522457603",
        "55464657044963196816950587289035428064568320970692304673817341489687522457602"
      ]
    },
    {
      "x": 400,
      "y": 321,
      "size": 1,
      "price": "4683000000000000000000",
      "reserved": "",
      "salt": "0x02ee3eed6605ad8067dccd79ce5b475daf44a8e191ab5ab90bfdddd00e2c7199",
      "assetIds": [
        "55464657044963196816950587289035428064568320970692304673817341489687522457605",
        "55464657044963196816950587289035428064568320970692304673817341489687522457601"
      ]
    },
    {
      "x": 399,
      "y": 321,
      "size": 1,
      "price": "4683000000000000000000",
      "reserved": "",
      "salt": "0x2b809f4dc9ab81ce29f3c95ef2d8856b40d0805c09f2dcb9a5a1a730af8ef0fc",
      "assetIds": [
        "55464657044963196816950587289035428064568320970692304673817341489687522457601",
        "55464657044963196816950587289035428064568320970692304673817341489687522457603"
      ]
    },
    {
      "x": 404,
      "y": 321,
      "size": 1,
      "price": "4683000000000000000000",
      "reserved": "",
      "salt": "0x33356dfa273dff2134c728177c79ca02da4b1f19dba52a87e727688b23fc76ca",
      "assetIds": [
        "55464657044963196816950587289035428064568320970692304673817341489687522457603",
        "55464657044963196816950587289035428064568320970692304673817341489687522457602"
      ]
    },
    {
      "x": 404,
      "y": 322,
      "size": 1,
      "price": "4683000000000000000000",
      "reserved": "",
      "salt": "0x55e8bbd39452ebed8324af2c3a6ee93358777f57d3ab7ee7cb4d50369a0a2f3a",
      "assetIds": [
        "55464657044963196816950587289035428064568320970692304673817341489687522457605",
        "55464657044963196816950587289035428064568320970692304673817341489687522457601"
      ]
    },
    {
      "x": 404,
      "y": 323,
      "size": 1,
      "price": "4683000000000000000000",
      "reserved": "",
      "salt": "0x9d0a812f38c92aea9ad49462d10ccb6fcbb75ea4a2facf45d56c94b00baab823",
      "assetIds": [
        "55464657044963196816950587289035428064568320970692304673817341489687522457605",
        "55464657044963196816950587289035428064568320970692304673817341489687522457601"
      ]
    },
    {
      "x": 404,
      "y": 324,
      "size": 1,
      "price": "4683000000000000000000",
      "reserved": "",
      "salt": "0x1b22fba8f789a5093ac7ee783173b15c2c2e66f963a3da9964705d8e8f65f77f",
      "assetIds": [
        "55464657044963196816950587289035428064568320970692304673817341489687522457603",
        "55464657044963196816950587289035428064568320970692304673817341489687522457602"
      ]
    },
    {
      "x": 404,
      "y": 326,
      "size": 1,
      "price": "4683000000000000000000",
      "reserved": "",
      "salt": "0x8e9acdaf79fea478c922f4ba757851543d76d95b473a4fb1baaed5f720133fb0",
      "assetIds": [
        "55464657044963196816950587289035428064568320970692304673817341489687522457603",
        "55464657044963196816950587289035428064568320970692304673817341489687522457602"
      ]
    },
    {
      "x": 403,
      "y": 324,
      "size": 1,
      "price": "4683000000000000000000",
      "reserved": "",
      "salt": "0x731d90aeb8b33a70caf0c7cc9e8fe7fa3a3f2cfb3d5007e0356766ffe7971b97",
      "assetIds": [
        "55464657044963196816950587289035428064568320970692304673817341489687522457602",
        "55464657044963196816950587289035428064568320970692304673817341489687522457604"
      ]
    },
    {
      "x": 402,
      "y": 324,
      "size": 1,
      "price": "4683000000000000000000",
      "reserved": "",
      "salt": "0xd971b83b02d5b3eb3f7b29ffccc5b66bdadd8a0ed5903a7641720a3145e9b352",
      "assetIds": [
        "55464657044963196816950587289035428064568320970692304673817341489687522457605",
        "55464657044963196816950587289035428064568320970692304673817341489687522457601"
      ]
    },
    {
      "x": 401,
      "y": 324,
      "size": 1,
      "price": "4683000000000000000000",
      "reserved": "",
      "salt": "0x34f089dfc04f39966a52d9afd4f688b88588b39c6b45e14a022651c8d1364b22",
      "assetIds": [
        "55464657044963196816950587289035428064568320970692304673817341489687522457601",
        "55464657044963196816950587289035428064568320970692304673817341489687522457603"
      ]
    },
    {
      "x": 401,
      "y": 323,
      "size": 1,
      "price": "4683000000000000000000",
      "reserved": "",
      "salt": "0xdc9074675c079dcfb28cf7758bf0c99eb21b20de4f47465406c071abd1d7dca5",
      "assetIds": [
        "55464657044963196816950587289035428064568320970692304673817341489687522457601",
        "55464657044963196816950587289035428064568320970692304673817341489687522457603"
      ]
    },
    {
      "x": 403,
      "y": 323,
      "size": 1,
      "price": "4683000000000000000000",
      "reserved": "",
      "salt": "0x7f57d68b3ea482cb9f338aad1507ce37c8e226b5591381f8a0bf12b902816da4",
      "assetIds": [
        "55464657044963196816950587289035428064568320970692304673817341489687522457605",
        "55464657044963196816950587289035428064568320970692304673817341489687522457601"
      ]
    },
    {
      "x": 402,
      "y": 323,
      "size": 1,
      "price": "4683000000000000000000",
      "reserved": "",
      "salt": "0x0ea277cc18e3984cdfb60db3f87175350078e618bf35d7cb8eafd2f5495f4f96",
      "assetIds": [
        "55464657044963196816950587289035428064568320970692304673817341489687522457601",
        "55464657044963196816950587289035428064568320970692304673817341489687522457603"
      ]
    },
    {
      "x": 400,
      "y": 323,
      "size": 1,
      "price": "4683000000000000000000",
      "reserved": "",
      "salt": "0xcf6814d74050d0f519faa8c7af3194c1d604987810a1baa036ad19d067ac649b",
      "assetIds": [
        "55464657044963196816950587289035428064568320970692304673817341489687522457601",
        "55464657044963196816950587289035428064568320970692304673817341489687522457603"
      ]
    },
    {
      "x": 403,
      "y": 322,
      "size": 1,
      "price": "4683000000000000000000",
      "reserved": "",
      "salt": "0x1238d18c5ee9897619cd1199eeac8aec439a4bc1a2728d3ac38337720a21ad0d",
      "assetIds": [
        "55464657044963196816950587289035428064568320970692304673817341489687522457603",
        "55464657044963196816950587289035428064568320970692304673817341489687522457602"
      ]
    },
    {
      "x": 400,
      "y": 324,
      "size": 1,
      "price": "4683000000000000000000",
      "reserved": "",
      "salt": "0xefdb9b768d211563734a5a07b26b7d80a29ac1874c1b540a7455db1f08b543f4",
      "assetIds": [
        "55464657044963196816950587289035428064568320970692304673817341489687522457602",
        "55464657044963196816950587289035428064568320970692304673817341489687522457604"
      ]
    },
    {
      "x": 399,
      "y": 324,
      "size": 1,
      "price": "4683000000000000000000",
      "reserved": "",
      "salt": "0xd4300ab0333bebf4aba92d6576e8d7ae2dac8abc33c87305e78882e384704d6e",
      "assetIds": [
        "55464657044963196816950587289035428064568320970692304673817341489687522457601",
        "55464657044963196816950587289035428064568320970692304673817341489687522457603"
      ]
    },
    {
      "x": 398,
      "y": 324,
      "size": 1,
      "price": "4683000000000000000000",
      "reserved": "",
      "salt": "0x8614870589ac517a434ff897afa80c52e4112ca5c9f8dcb71bab394c6f66c2c6",
      "assetIds": [
        "55464657044963196816950587289035428064568320970692304673817341489687522457601",
        "55464657044963196816950587289035428064568320970692304673817341489687522457603"
      ]
    },
    {
      "x": 399,
      "y": 323,
      "size": 1,
      "price": "4683000000000000000000",
      "reserved": "",
      "salt": "0x78131aea7664e5fbf230efc2ed00fd1c4295a3ffcc428d552e6b91f2dc929fa4",
      "assetIds": [
        "55464657044963196816950587289035428064568320970692304673817341489687522457605",
        "55464657044963196816950587289035428064568320970692304673817341489687522457601"
      ]
    },
    {
      "x": 398,
      "y": 323,
      "size": 1,
      "price": "4683000000000000000000",
      "reserved": "",
      "salt": "0x8b4e8ec0b9fd1c06475d1778bc5f84f8d8b32e1404f441182f220737ed04bf79",
      "assetIds": [
        "55464657044963196816950587289035428064568320970692304673817341489687522457602",
        "55464657044963196816950587289035428064568320970692304673817341489687522457604"
      ]
    },
    {
      "x": 399,
      "y": 325,
      "size": 1,
      "price": "4683000000000000000000",
      "reserved": "",
      "salt": "0x19b5de839cea9b0b822413225bf0843a083e82a8eee27b77e316b31104e64351",
      "assetIds": [
        "55464657044963196816950587289035428064568320970692304673817341489687522457602",
        "55464657044963196816950587289035428064568320970692304673817341489687522457604"
      ]
    },
    {
      "x": 399,
      "y": 326,
      "size": 1,
      "price": "4683000000000000000000",
      "reserved": "",
      "salt": "0x14c0756d9fadb734254a99dd4bfbabc0153b21f365aea08162b9c11c725e7ecc",
      "assetIds": [
        "55464657044963196816950587289035428064568320970692304673817341489687522457601",
        "55464657044963196816950587289035428064568320970692304673817341489687522457603"
      ]
    },
    {
      "x": 399,
      "y": 330,
      "size": 1,
      "price": "4683000000000000000000",
      "reserved": "",
      "salt": "0x6a86aff04236ba3bcd765291de877527706df15363dc6825731f2a4b8d153e2f",
      "assetIds": [
        "55464657044963196816950587289035428064568320970692304673817341489687522457603",
        "55464657044963196816950587289035428064568320970692304673817341489687522457602"
      ]
    },
    {
      "x": 399,
      "y": 331,
      "size": 1,
      "price": "4683000000000000000000",
      "reserved": "",
      "salt": "0x2c3156245e16c10afecdbc32f9b07c5c4c7a91f6f282f9923b288d20833c3794",
      "assetIds": [
        "55464657044963196816950587289035428064568320970692304673817341489687522457601",
        "55464657044963196816950587289035428064568320970692304673817341489687522457603"
      ]
    },
    {
      "x": 399,
      "y": 332,
      "size": 1,
      "price": "4683000000000000000000",
      "reserved": "",
      "salt": "0x2bec41abd77f874773079189dd9733e9656b09709a05b49e33e45af0f06cf5a6",
      "assetIds": [
        "55464657044963196816950587289035428064568320970692304673817341489687522457602",
        "55464657044963196816950587289035428064568320970692304673817341489687522457604"
      ]
    },
    {
      "x": 398,
      "y": 333,
      "size": 1,
      "price": "4683000000000000000000",
      "reserved": "",
      "salt": "0xb9db328f516c0948fe72839ce89802c7ea50e1fdafe5811b7ddc1c32537d9d23",
      "assetIds": [
        "55464657044963196816950587289035428064568320970692304673817341489687522457602",
        "55464657044963196816950587289035428064568320970692304673817341489687522457604"
      ]
    },
    {
      "x": 398,
      "y": 334,
      "size": 1,
      "price": "4683000000000000000000",
      "reserved": "",
      "salt": "0x70bde2887e397e2a18ebe09d019aea0add17f8528db0fa5f47cc9a703acd0abd",
      "assetIds": [
        "55464657044963196816950587289035428064568320970692304673817341489687522457605",
        "55464657044963196816950587289035428064568320970692304673817341489687522457601"
      ]
    },
    {
      "x": 398,
      "y": 332,
      "size": 1,
      "price": "4683000000000000000000",
      "reserved": "",
      "salt": "0xe5f7483916d49e298bc75090d6599f67bdf6ba087557079daa09a9b2b2443533",
      "assetIds": [
        "55464657044963196816950587289035428064568320970692304673817341489687522457603",
        "55464657044963196816950587289035428064568320970692304673817341489687522457602"
      ]
    },
    {
      "x": 398,
      "y": 331,
      "size": 1,
      "price": "4683000000000000000000",
      "reserved": "",
      "salt": "0xe79e5f67d7fb4d4875ca43f232148348db81913c5a44dad3e3acb1a693722789",
      "assetIds": [
        "55464657044963196816950587289035428064568320970692304673817341489687522457601",
        "55464657044963196816950587289035428064568320970692304673817341489687522457603"
      ]
    },
    {
      "x": 398,
      "y": 330,
      "size": 1,
      "price": "4683000000000000000000",
      "reserved": "",
      "salt": "0x08a9a1383055f44400f02007bae635dd909b72e648a1fa77482728bc6a444bf5",
      "assetIds": [
        "55464657044963196816950587289035428064568320970692304673817341489687522457602",
        "55464657044963196816950587289035428064568320970692304673817341489687522457604"
      ]
    },
    {
      "x": 398,
      "y": 329,
      "size": 1,
      "price": "4683000000000000000000",
      "reserved": "",
      "salt": "0x125379528a9fab119533df669e5221c1c04bbeecb15e7f2db2cdb50e92ff835d",
      "assetIds": [
        "55464657044963196816950587289035428064568320970692304673817341489687522457603",
        "55464657044963196816950587289035428064568320970692304673817341489687522457602"
      ]
    },
    {
      "x": 398,
      "y": 328,
      "size": 1,
      "price": "4683000000000000000000",
      "reserved": "",
      "salt": "0x0c731f964f43798dbf1cf379c56655cf9ab80d5bf2f3b35bd41fc02976f25036",
      "assetIds": [
        "55464657044963196816950587289035428064568320970692304673817341489687522457601",
        "55464657044963196816950587289035428064568320970692304673817341489687522457603"
      ]
    },
    {
      "x": 398,
      "y": 327,
      "size": 1,
      "price": "4683000000000000000000",
      "reserved": "",
      "salt": "0xe14e46c9ed728da7ad947294847fa49fef35fd811bf23c1a335c4378df2a3884",
      "assetIds": [
        "55464657044963196816950587289035428064568320970692304673817341489687522457601",
        "55464657044963196816950587289035428064568320970692304673817341489687522457603"
      ]
    },
    {
      "x": 397,
      "y": 326,
      "size": 1,
      "price": "4683000000000000000000",
      "reserved": "",
      "salt": "0x1d506f7d46be6f0f03edd0ca23ba8d68fc005b810f6ecc27a3843e2ed87a873e",
      "assetIds": [
        "55464657044963196816950587289035428064568320970692304673817341489687522457601",
        "55464657044963196816950587289035428064568320970692304673817341489687522457603"
      ]
    },
    {
      "x": 397,
      "y": 325,
      "size": 1,
      "price": "4683000000000000000000",
      "reserved": "",
      "salt": "0xa3f8109575adb5fc5ceffb0602e22fa24bf1725f46504eec6158624e4e1d9533",
      "assetIds": [
        "55464657044963196816950587289035428064568320970692304673817341489687522457601",
        "55464657044963196816950587289035428064568320970692304673817341489687522457603"
      ]
    },
    {
      "x": 397,
      "y": 327,
      "size": 1,
      "price": "4683000000000000000000",
      "reserved": "",
      "salt": "0x48d5a29756b10e0a27109c032ac2ccf721c01e5443f169f7ffb2289d308ef506",
      "assetIds": [
        "55464657044963196816950587289035428064568320970692304673817341489687522457601",
        "55464657044963196816950587289035428064568320970692304673817341489687522457603"
      ]
    },
    {
      "x": 397,
      "y": 328,
      "size": 1,
      "price": "4683000000000000000000",
      "reserved": "",
      "salt": "0x578358dfe2570f867556efde9702a86925e0e07f26042259c86d2ef6ba592c1d",
      "assetIds": [
        "55464657044963196816950587289035428064568320970692304673817341489687522457603",
        "55464657044963196816950587289035428064568320970692304673817341489687522457602"
      ]
    },
    {
      "x": 397,
      "y": 329,
      "size": 1,
      "price": "4683000000000000000000",
      "reserved": "",
      "salt": "0xd4f12f60a3589a122a3323a607176c18dd31087fa85fb93143636f6471d172ae",
      "assetIds": [
        "55464657044963196816950587289035428064568320970692304673817341489687522457605",
        "55464657044963196816950587289035428064568320970692304673817341489687522457601"
      ]
    },
    {
      "x": 397,
      "y": 330,
      "size": 1,
      "price": "4683000000000000000000",
      "reserved": "",
      "salt": "0x44c9e117c66f58bec8769880253563e56a194fa6b421740685d9a81d65933e5d",
      "assetIds": [
        "55464657044963196816950587289035428064568320970692304673817341489687522457601",
        "55464657044963196816950587289035428064568320970692304673817341489687522457603"
      ]
    },
    {
      "x": 397,
      "y": 331,
      "size": 1,
      "price": "4683000000000000000000",
      "reserved": "",
      "salt": "0xfc5921c461f9df6e055822dfae987197e7572dbddbb105971ce15eed388bce15",
      "assetIds": [
        "55464657044963196816950587289035428064568320970692304673817341489687522457603",
        "55464657044963196816950587289035428064568320970692304673817341489687522457602"
      ]
    },
    {
      "x": 397,
      "y": 332,
      "size": 1,
      "price": "4683000000000000000000",
      "reserved": "",
      "salt": "0x65256bcd5f35c6f4509292df44729db6f76b9518411d5d87f4ac919b90e51fcb",
      "assetIds": [
        "55464657044963196816950587289035428064568320970692304673817341489687522457605",
        "55464657044963196816950587289035428064568320970692304673817341489687522457601"
      ]
    },
    {
      "x": 397,
      "y": 333,
      "size": 1,
      "price": "4683000000000000000000",
      "reserved": "",
      "salt": "0x943a68cebf6be2efebe96dea250a5a4d8cfd9886e80e2b29b0dcb8c4bbf17533",
      "assetIds": [
        "55464657044963196816950587289035428064568320970692304673817341489687522457601",
        "55464657044963196816950587289035428064568320970692304673817341489687522457603"
      ]
    },
    {
      "x": 397,
      "y": 334,
      "size": 1,
      "price": "4683000000000000000000",
      "reserved": "",
      "salt": "0x16729ecc411592d04514097ab68462a87b39950848fcbc1d0b9aded121f79b22",
      "assetIds": [
        "55464657044963196816950587289035428064568320970692304673817341489687522457601",
        "55464657044963196816950587289035428064568320970692304673817341489687522457603"
      ]
    },
    {
      "x": 400,
      "y": 334,
      "size": 1,
      "price": "4683000000000000000000",
      "reserved": "",
      "salt": "0xb0f8faff1e78a2ffa4ad02c5e50a0f583966eb6f7f3b2983b1c045bbaf847d54",
      "assetIds": [
        "55464657044963196816950587289035428064568320970692304673817341489687522457602",
        "55464657044963196816950587289035428064568320970692304673817341489687522457604"
      ]
    },
    {
      "x": 400,
      "y": 333,
      "size": 1,
      "price": "4683000000000000000000",
      "reserved": "",
      "salt": "0x779067c0b5db2bb9eee8132bcb3ce5c5241ebfc6e7ad5f28a2b3e0b21dfa6854",
      "assetIds": [
        "55464657044963196816950587289035428064568320970692304673817341489687522457603",
        "55464657044963196816950587289035428064568320970692304673817341489687522457602"
      ]
    },
    {
      "x": 399,
      "y": 333,
      "size": 1,
      "price": "4683000000000000000000",
      "reserved": "",
      "salt": "0x253e2601e44d44af079a6aae7e5a814bd71cbfff62ac2d7e8ff80274ce894906",
      "assetIds": [
        "55464657044963196816950587289035428064568320970692304673817341489687522457605",
        "55464657044963196816950587289035428064568320970692304673817341489687522457601"
      ]
    },
    {
      "x": 398,
      "y": 326,
      "size": 1,
      "price": "4683000000000000000000",
      "reserved": "",
      "salt": "0xb8f88c98a604057b2de19fa77e6141c49b0cffceb4a07fb8dc9f09f19b19263a",
      "assetIds": [
        "55464657044963196816950587289035428064568320970692304673817341489687522457603",
        "55464657044963196816950587289035428064568320970692304673817341489687522457602"
      ]
    },
    {
      "x": 398,
      "y": 325,
      "size": 1,
      "price": "4683000000000000000000",
      "reserved": "",
      "salt": "0x8dab4e386e47db11d691f163fc341e183ddd364d55f20bd88d6e354748e9ff11",
      "assetIds": [
        "55464657044963196816950587289035428064568320970692304673817341489687522457601",
        "55464657044963196816950587289035428064568320970692304673817341489687522457603"
      ]
    },
    {
      "x": 401,
      "y": 325,
      "size": 1,
      "price": "4683000000000000000000",
      "reserved": "",
      "salt": "0xd3cdb6ad65aef476bad3f4193c4e43fa371c4d4ab736685086f3ab158661c088",
      "assetIds": [
        "55464657044963196816950587289035428064568320970692304673817341489687522457603",
        "55464657044963196816950587289035428064568320970692304673817341489687522457602"
      ]
    },
    {
      "x": 402,
      "y": 325,
      "size": 1,
      "price": "4683000000000000000000",
      "reserved": "",
      "salt": "0xb7fb176c9210822e34265380efe00b9591fb7693a05d6da96ae02895db6ef1e4",
      "assetIds": [
        "55464657044963196816950587289035428064568320970692304673817341489687522457603",
        "55464657044963196816950587289035428064568320970692304673817341489687522457602"
      ]
    },
    {
      "x": 403,
      "y": 325,
      "size": 1,
      "price": "4683000000000000000000",
      "reserved": "",
      "salt": "0xc63ad2f4338de81fddeb99190663ce1f5a77e54b4a3822cc171a9c0315fd57bc",
      "assetIds": [
        "55464657044963196816950587289035428064568320970692304673817341489687522457602",
        "55464657044963196816950587289035428064568320970692304673817341489687522457604"
      ]
    },
    {
      "x": 403,
      "y": 326,
      "size": 1,
      "price": "4683000000000000000000",
      "reserved": "",
      "salt": "0x189968aae4ddc3b8316cca4cfaecd5e184ebce0d493237600d1d9644d742799b",
      "assetIds": [
        "55464657044963196816950587289035428064568320970692304673817341489687522457602",
        "55464657044963196816950587289035428064568320970692304673817341489687522457604"
      ]
    },
    {
      "x": 403,
      "y": 327,
      "size": 1,
      "price": "4683000000000000000000",
      "reserved": "",
      "salt": "0xcd41f84140a883ba15612816042123baa172d81fe113d4603d783af7af0e1447",
      "assetIds": [
        "55464657044963196816950587289035428064568320970692304673817341489687522457602",
        "55464657044963196816950587289035428064568320970692304673817341489687522457604"
      ]
    },
    {
      "x": 404,
      "y": 327,
      "size": 1,
      "price": "4683000000000000000000",
      "reserved": "",
      "salt": "0x7674a2a8ce8a74575fb9b025e5f3f8b087f743ef477f9ea389a37ebfb7e0f45a",
      "assetIds": [
        "55464657044963196816950587289035428064568320970692304673817341489687522457603",
        "55464657044963196816950587289035428064568320970692304673817341489687522457602"
      ]
    },
    {
      "x": 402,
      "y": 327,
      "size": 1,
      "price": "4683000000000000000000",
      "reserved": "",
      "salt": "0xe7ce4554b865e4977d1101c1ddb283a68ba10eb16be73bc0cf0eb02ace8b50c7",
      "assetIds": [
        "55464657044963196816950587289035428064568320970692304673817341489687522457602",
        "55464657044963196816950587289035428064568320970692304673817341489687522457604"
      ]
    },
    {
      "x": 400,
      "y": 326,
      "size": 1,
      "price": "4683000000000000000000",
      "reserved": "",
      "salt": "0x1dd6cb2efb3d5ee015525b401d244ed8c7267c7963dc4f1f4984bc096c8d6bf1",
      "assetIds": [
        "55464657044963196816950587289035428064568320970692304673817341489687522457605",
        "55464657044963196816950587289035428064568320970692304673817341489687522457601"
      ]
    },
    {
      "x": 400,
      "y": 325,
      "size": 1,
      "price": "4683000000000000000000",
      "reserved": "",
      "salt": "0xda8e06c6df99123ba0490a81f64d6546574e6834983d6886e301072ab6d1cf20",
      "assetIds": [
        "55464657044963196816950587289035428064568320970692304673817341489687522457602",
        "55464657044963196816950587289035428064568320970692304673817341489687522457604"
      ]
    },
    {
      "x": 402,
      "y": 326,
      "size": 1,
      "price": "4683000000000000000000",
      "reserved": "",
      "salt": "0xb71cfe14b875183ab22331e86764277865b69ae5a516f48cdb844eaad4f257b9",
      "assetIds": [
        "55464657044963196816950587289035428064568320970692304673817341489687522457602",
        "55464657044963196816950587289035428064568320970692304673817341489687522457604"
      ]
    },
    {
      "x": 401,
      "y": 326,
      "size": 1,
      "price": "4683000000000000000000",
      "reserved": "",
      "salt": "0x68c40aa218c068c4bca7b190540c9b6680ee2948774fad507e6494cbff5e977f",
      "assetIds": [
        "55464657044963196816950587289035428064568320970692304673817341489687522457601",
        "55464657044963196816950587289035428064568320970692304673817341489687522457603"
      ]
    },
    {
      "x": 404,
      "y": 330,
      "size": 1,
      "price": "4683000000000000000000",
      "reserved": "",
      "salt": "0xd70fde39e08cedea752a59cfc6f7b7b782f372dc0474849fedcd602f0b2d2758",
      "assetIds": [
        "55464657044963196816950587289035428064568320970692304673817341489687522457605",
        "55464657044963196816950587289035428064568320970692304673817341489687522457601"
      ]
    },
    {
      "x": 404,
      "y": 331,
      "size": 1,
      "price": "4683000000000000000000",
      "reserved": "",
      "salt": "0xe898990e18c768a86d77a20774f6a7dde64890d0aae5a15d7789db60f80ed6b4",
      "assetIds": [
        "55464657044963196816950587289035428064568320970692304673817341489687522457602",
        "55464657044963196816950587289035428064568320970692304673817341489687522457604"
      ]
    },
    {
      "x": 403,
      "y": 331,
      "size": 1,
      "price": "4683000000000000000000",
      "reserved": "",
      "salt": "0xc8bdeae34f28e75760c50e496ce5cd125be18ab8ecc4b6d256a00348018b858a",
      "assetIds": [
        "55464657044963196816950587289035428064568320970692304673817341489687522457605",
        "55464657044963196816950587289035428064568320970692304673817341489687522457601"
      ]
    },
    {
      "x": 403,
      "y": 330,
      "size": 1,
      "price": "4683000000000000000000",
      "reserved": "",
      "salt": "0xa2d3d3cc4943dc7df50173e9a351b2123f6b3598bd23af78a70f4194ca28c755",
      "assetIds": [
        "55464657044963196816950587289035428064568320970692304673817341489687522457605",
        "55464657044963196816950587289035428064568320970692304673817341489687522457601"
      ]
    },
    {
      "x": 402,
      "y": 329,
      "size": 1,
      "price": "4683000000000000000000",
      "reserved": "",
      "salt": "0xbdcdd6d51d8125492985ef73c9539fd9a665244b47f62835a4413af3373e1a87",
      "assetIds": [
        "55464657044963196816950587289035428064568320970692304673817341489687522457603",
        "55464657044963196816950587289035428064568320970692304673817341489687522457602"
      ]
    },
    {
      "x": 402,
      "y": 328,
      "size": 1,
      "price": "4683000000000000000000",
      "reserved": "",
      "salt": "0xb927429b51765f5bbc55af0494836e85035d77ea205c663c0e515a5e3ce99036",
      "assetIds": [
        "55464657044963196816950587289035428064568320970692304673817341489687522457603",
        "55464657044963196816950587289035428064568320970692304673817341489687522457602"
      ]
    },
    {
      "x": 403,
      "y": 328,
      "size": 1,
      "price": "4683000000000000000000",
      "reserved": "",
      "salt": "0x0a506aa44e8ccfc18d99169424bedaefe028b4492feb2be1884205fe3c42e19c",
      "assetIds": [
        "55464657044963196816950587289035428064568320970692304673817341489687522457602",
        "55464657044963196816950587289035428064568320970692304673817341489687522457604"
      ]
    },
    {
      "x": 403,
      "y": 329,
      "size": 1,
      "price": "4683000000000000000000",
      "reserved": "",
      "salt": "0x0650811176d1a18ae17249b5582fa9ca67b81f24ef6db0052dcb46e1bc7c1013",
      "assetIds": [
        "55464657044963196816950587289035428064568320970692304673817341489687522457603",
        "55464657044963196816950587289035428064568320970692304673817341489687522457602"
      ]
    },
    {
      "x": 404,
      "y": 328,
      "size": 1,
      "price": "4683000000000000000000",
      "reserved": "",
      "salt": "0xc02b7cb67c1c7f57e0edf7014a8bbb49f7c49e9c7827876b84e96fd3705b6ced",
      "assetIds": [
        "55464657044963196816950587289035428064568320970692304673817341489687522457603",
        "55464657044963196816950587289035428064568320970692304673817341489687522457602"
      ]
    },
    {
      "x": 404,
      "y": 329,
      "size": 1,
      "price": "4683000000000000000000",
      "reserved": "",
      "salt": "0xd7504735536700a82554e1d746649b59dc4a329b423fb41c6a3f0ec3c6cf4f05",
      "assetIds": [
        "55464657044963196816950587289035428064568320970692304673817341489687522457602",
        "55464657044963196816950587289035428064568320970692304673817341489687522457604"
      ]
    },
    {
      "x": 402,
      "y": 330,
      "size": 1,
      "price": "4683000000000000000000",
      "reserved": "",
      "salt": "0x969732f03f8913d8713b0e176c30367e3da3ee3d6391c94043186fb47926386f",
      "assetIds": [
        "55464657044963196816950587289035428064568320970692304673817341489687522457603",
        "55464657044963196816950587289035428064568320970692304673817341489687522457602"
      ]
    },
    {
      "x": 402,
      "y": 331,
      "size": 1,
      "price": "4683000000000000000000",
      "reserved": "",
      "salt": "0x5762af2b154087b888532b6e0cada434b457e614386028fda4d10c7c5c952cba",
      "assetIds": [
        "55464657044963196816950587289035428064568320970692304673817341489687522457603",
        "55464657044963196816950587289035428064568320970692304673817341489687522457602"
      ]
    },
    {
      "x": 402,
      "y": 332,
      "size": 1,
      "price": "4683000000000000000000",
      "reserved": "",
      "salt": "0xc4a65b3e6233a5ae0508bca0f77b04012b813a41eb2c37d5439ed7018e5d5189",
      "assetIds": [
        "55464657044963196816950587289035428064568320970692304673817341489687522457602",
        "55464657044963196816950587289035428064568320970692304673817341489687522457604"
      ]
    },
    {
      "x": 402,
      "y": 333,
      "size": 1,
      "price": "4683000000000000000000",
      "reserved": "",
      "salt": "0xe4f9eb850e8b9d612d9cd4abeb794b669e7a2c4fa67d5078c31ac9070983cc75",
      "assetIds": [
        "55464657044963196816950587289035428064568320970692304673817341489687522457603",
        "55464657044963196816950587289035428064568320970692304673817341489687522457602"
      ]
    },
    {
      "x": 401,
      "y": 333,
      "size": 1,
      "price": "4683000000000000000000",
      "reserved": "",
      "salt": "0x524fd3a3f6f87361185243fe6eda70ee3d5014918f91cff2bc235d4abfd28ee9",
      "assetIds": [
        "55464657044963196816950587289035428064568320970692304673817341489687522457603",
        "55464657044963196816950587289035428064568320970692304673817341489687522457602"
      ]
    },
    {
      "x": 401,
      "y": 334,
      "size": 1,
      "price": "4683000000000000000000",
      "reserved": "",
      "salt": "0xd271b39b3d95498347b74732d57890d3adf088b4fa314c5be00def6e9c91ad68",
      "assetIds": [
        "55464657044963196816950587289035428064568320970692304673817341489687522457601",
        "55464657044963196816950587289035428064568320970692304673817341489687522457603"
      ]
    },
    {
      "x": 402,
      "y": 334,
      "size": 1,
      "price": "4683000000000000000000",
      "reserved": "",
      "salt": "0x36f0d74f4f65fc537d93c8d3e74fa4632cc46b3622a7a299b0029cdde7c0d314",
      "assetIds": [
        "55464657044963196816950587289035428064568320970692304673817341489687522457605",
        "55464657044963196816950587289035428064568320970692304673817341489687522457601"
      ]
    },
    {
      "x": 403,
      "y": 332,
      "size": 1,
      "price": "4683000000000000000000",
      "reserved": "",
      "salt": "0x88eb747a852aaa397c6fbb2f9b6a458b9a6e8ea7b3ad94110e05a204ac52ebab",
      "assetIds": [
        "55464657044963196816950587289035428064568320970692304673817341489687522457602",
        "55464657044963196816950587289035428064568320970692304673817341489687522457604"
      ]
    },
    {
      "x": 401,
      "y": 331,
      "size": 1,
      "price": "4683000000000000000000",
      "reserved": "",
      "salt": "0x9ecc6cacc9f7317da6e5024cc508c0927f681a6d0023560349df7099c408b18f",
      "assetIds": [
        "55464657044963196816950587289035428064568320970692304673817341489687522457601",
        "55464657044963196816950587289035428064568320970692304673817341489687522457603"
      ]
    },
    {
      "x": 400,
      "y": 331,
      "size": 1,
      "price": "4683000000000000000000",
      "reserved": "",
      "salt": "0x6b3b42646e39bb9e64051a098f8baecc1012a11952cab7dd426eed5a80e6001d",
      "assetIds": [
        "55464657044963196816950587289035428064568320970692304673817341489687522457605",
        "55464657044963196816950587289035428064568320970692304673817341489687522457601"
      ]
    },
    {
      "x": 401,
      "y": 330,
      "size": 1,
      "price": "4683000000000000000000",
      "reserved": "",
      "salt": "0xb9d84fbadece2fd82d5b94c39a8782475e2e193ab363d1f5a4bf9e45632d0209",
      "assetIds": [
        "55464657044963196816950587289035428064568320970692304673817341489687522457601",
        "55464657044963196816950587289035428064568320970692304673817341489687522457603"
      ]
    },
    {
      "x": 401,
      "y": 332,
      "size": 1,
      "price": "4683000000000000000000",
      "reserved": "",
      "salt": "0x5f4e434ed76bad86392ebe6a06ffde24e7e6ddd93703e5fe98bff9fbf96dd21b",
      "assetIds": [
        "55464657044963196816950587289035428064568320970692304673817341489687522457605",
        "55464657044963196816950587289035428064568320970692304673817341489687522457601"
      ]
    },
    {
      "x": 400,
      "y": 332,
      "size": 1,
      "price": "4683000000000000000000",
      "reserved": "",
      "salt": "0x24e72328f53d0950cd4e34c7bb6ed2c93013b088dc91a974b4bdc9cce158d50c",
      "assetIds": [
        "55464657044963196816950587289035428064568320970692304673817341489687522457605",
        "55464657044963196816950587289035428064568320970692304673817341489687522457601"
      ]
    },
    {
      "x": 400,
      "y": 330,
      "size": 1,
      "price": "4683000000000000000000",
      "reserved": "",
      "salt": "0x0e2d9be83cada8d89b22e077e63d387df6da0cea2643ff519e1791e89fd9c9b3",
      "assetIds": [
        "55464657044963196816950587289035428064568320970692304673817341489687522457605",
        "55464657044963196816950587289035428064568320970692304673817341489687522457601"
      ]
    },
    {
      "x": 406,
      "y": 324,
      "size": 1,
      "price": "4683000000000000000000",
      "reserved": "",
      "salt": "0x1445b084dccecc9ff26b397bdb78be696da8960649142c6386d745c9e5c9434c",
      "assetIds": [
        "55464657044963196816950587289035428064568320970692304673817341489687522457605",
        "55464657044963196816950587289035428064568320970692304673817341489687522457601"
      ]
    },
    {
      "x": 407,
      "y": 324,
      "size": 1,
      "price": "4683000000000000000000",
      "reserved": "",
      "salt": "0xb6138792ad47e0f3565c427fd84271fc5f762652b618e646ae1fcbfa5c8b1b14",
      "assetIds": [
        "55464657044963196816950587289035428064568320970692304673817341489687522457601",
        "55464657044963196816950587289035428064568320970692304673817341489687522457603"
      ]
    },
    {
      "x": 407,
      "y": 325,
      "size": 1,
      "price": "4683000000000000000000",
      "reserved": "",
      "salt": "0x9c2e2c17f954dfd1b22ff9c572e4295c6224d468e09cda12c577e0459a110943",
      "assetIds": [
        "55464657044963196816950587289035428064568320970692304673817341489687522457603",
        "55464657044963196816950587289035428064568320970692304673817341489687522457602"
      ]
    },
    {
      "x": 407,
      "y": 326,
      "size": 1,
      "price": "4683000000000000000000",
      "reserved": "",
      "salt": "0x914f1724a83c8cce21013885ee46d815a83fd76b814eef63fc7ad0301dfc17b8",
      "assetIds": [
        "55464657044963196816950587289035428064568320970692304673817341489687522457603",
        "55464657044963196816950587289035428064568320970692304673817341489687522457602"
      ]
    },
    {
      "x": 407,
      "y": 327,
      "size": 1,
      "price": "4683000000000000000000",
      "reserved": "",
      "salt": "0x6538917328a34cb821db62957966a9a33cbdfc1fa732ed9501d9a8238c05d4ee",
      "assetIds": [
        "55464657044963196816950587289035428064568320970692304673817341489687522457602",
        "55464657044963196816950587289035428064568320970692304673817341489687522457604"
      ]
    },
    {
      "x": 407,
      "y": 328,
      "size": 1,
      "price": "4683000000000000000000",
      "reserved": "",
      "salt": "0xf520f0811bf6c6b8e66d10b6573d24a7dd8d4c3c26406d79927086142c2a827c",
      "assetIds": [
        "55464657044963196816950587289035428064568320970692304673817341489687522457602",
        "55464657044963196816950587289035428064568320970692304673817341489687522457604"
      ]
    },
    {
      "x": 407,
      "y": 329,
      "size": 1,
      "price": "4683000000000000000000",
      "reserved": "",
      "salt": "0x7918ed2513f6c9c42ea8654975a863c9edfa7707e2d480f43057e17c7e90584e",
      "assetIds": [
        "55464657044963196816950587289035428064568320970692304673817341489687522457602",
        "55464657044963196816950587289035428064568320970692304673817341489687522457604"
      ]
    },
    {
      "x": 407,
      "y": 330,
      "size": 1,
      "price": "4683000000000000000000",
      "reserved": "",
      "salt": "0x5e3513a3d1b10e82f718d1afe0dd984238c0b3d02b6712d238d02d0e854cfe8d",
      "assetIds": [
        "55464657044963196816950587289035428064568320970692304673817341489687522457605",
        "55464657044963196816950587289035428064568320970692304673817341489687522457601"
      ]
    },
    {
      "x": 406,
      "y": 330,
      "size": 1,
      "price": "4683000000000000000000",
      "reserved": "",
      "salt": "0xdbe06bef32cffadf3892a0582cb15c882a43a0534ce2b434d316014e16852847",
      "assetIds": [
        "55464657044963196816950587289035428064568320970692304673817341489687522457605",
        "55464657044963196816950587289035428064568320970692304673817341489687522457601"
      ]
    },
    {
      "x": 406,
      "y": 331,
      "size": 1,
      "price": "4683000000000000000000",
      "reserved": "",
      "salt": "0xe3a69462dc8db2d646029c59f3e9e492663678354be29a6eb4ce4d02dec95a73",
      "assetIds": [
        "55464657044963196816950587289035428064568320970692304673817341489687522457605",
        "55464657044963196816950587289035428064568320970692304673817341489687522457601"
      ]
    },
    {
      "x": 406,
      "y": 332,
      "size": 1,
      "price": "4683000000000000000000",
      "reserved": "",
      "salt": "0x919c45a21300435c6121445ca37f0619ad994259036667756a7ae2a23117f460",
      "assetIds": [
        "55464657044963196816950587289035428064568320970692304673817341489687522457605",
        "55464657044963196816950587289035428064568320970692304673817341489687522457601"
      ]
    },
    {
      "x": 406,
      "y": 333,
      "size": 1,
      "price": "4683000000000000000000",
      "reserved": "",
      "salt": "0xc3413d56e89d92d1312f33bf2a597fd2b7bdcc8beff6607e4eb8810dd05c2b56",
      "assetIds": [
        "55464657044963196816950587289035428064568320970692304673817341489687522457601",
        "55464657044963196816950587289035428064568320970692304673817341489687522457603"
      ]
    },
    {
      "x": 406,
      "y": 334,
      "size": 1,
      "price": "4683000000000000000000",
      "reserved": "",
      "salt": "0x5edfdb01d48440e12ce4cc580832571f78b6a37aeae1d9b4b142f73c69832bbc",
      "assetIds": [
        "55464657044963196816950587289035428064568320970692304673817341489687522457601",
        "55464657044963196816950587289035428064568320970692304673817341489687522457603"
      ]
    },
    {
      "x": 407,
      "y": 334,
      "size": 1,
      "price": "4683000000000000000000",
      "reserved": "",
      "salt": "0xa3d9227a5f00529457a09f340b52350d710d4c28e8ea0f233eb2593a16807d38",
      "assetIds": [
        "55464657044963196816950587289035428064568320970692304673817341489687522457602",
        "55464657044963196816950587289035428064568320970692304673817341489687522457604"
      ]
    },
    {
      "x": 407,
      "y": 335,
      "size": 1,
      "price": "4683000000000000000000",
      "reserved": "",
      "salt": "0x75d383e5593d2373f5641bbb32f26bd65f7cd5d446fc3f52b3c2359580488978",
      "assetIds": [
        "55464657044963196816950587289035428064568320970692304673817341489687522457603",
        "55464657044963196816950587289035428064568320970692304673817341489687522457602"
      ]
    },
    {
      "x": 407,
      "y": 333,
      "size": 1,
      "price": "4683000000000000000000",
      "reserved": "",
      "salt": "0x39a3b21d8bdea0b92666115a52f3f8aa9044561fb256d4712c40141eb68de104",
      "assetIds": [
        "55464657044963196816950587289035428064568320970692304673817341489687522457603",
        "55464657044963196816950587289035428064568320970692304673817341489687522457602"
      ]
    },
    {
      "x": 407,
      "y": 332,
      "size": 1,
      "price": "4683000000000000000000",
      "reserved": "",
      "salt": "0x962fd04137d9d139e4792bac3ecb900dcbfedc6071f92decaa8019010ac8eb6d",
      "assetIds": [
        "55464657044963196816950587289035428064568320970692304673817341489687522457602",
        "55464657044963196816950587289035428064568320970692304673817341489687522457604"
      ]
    },
    {
      "x": 407,
      "y": 331,
      "size": 1,
      "price": "4683000000000000000000",
      "reserved": "",
      "salt": "0x3001eb1f385e8fe1edc7d262554955c53ec42b57489d906b217666ce62a24040",
      "assetIds": [
        "55464657044963196816950587289035428064568320970692304673817341489687522457605",
        "55464657044963196816950587289035428064568320970692304673817341489687522457601"
      ]
    },
    {
      "x": 406,
      "y": 327,
      "size": 1,
      "price": "4683000000000000000000",
      "reserved": "",
      "salt": "0x3b440a868e335907a8d171da4de79e2c57b7a0f1248504132d5cafc0bc8cbf00",
      "assetIds": [
        "55464657044963196816950587289035428064568320970692304673817341489687522457601",
        "55464657044963196816950587289035428064568320970692304673817341489687522457603"
      ]
    },
    {
      "x": 406,
      "y": 326,
      "size": 1,
      "price": "4683000000000000000000",
      "reserved": "",
      "salt": "0x9cf289b247ccf74720e4fefd7e401c019af604f0fb60787ccf646c020df98120",
      "assetIds": [
        "55464657044963196816950587289035428064568320970692304673817341489687522457601",
        "55464657044963196816950587289035428064568320970692304673817341489687522457603"
      ]
    },
    {
      "x": 406,
      "y": 325,
      "size": 1,
      "price": "4683000000000000000000",
      "reserved": "",
      "salt": "0x38bf2912a4f32bfb13f802407ef71443fbf84c1086bae60a244255e36795812c",
      "assetIds": [
        "55464657044963196816950587289035428064568320970692304673817341489687522457601",
        "55464657044963196816950587289035428064568320970692304673817341489687522457603"
      ]
    },
    {
      "x": 406,
      "y": 328,
      "size": 1,
      "price": "4683000000000000000000",
      "reserved": "",
      "salt": "0x9dd7c71481038a5ac8f53a40b9872613c847ccc6c24d999093079021af33aa83",
      "assetIds": [
        "55464657044963196816950587289035428064568320970692304673817341489687522457602",
        "55464657044963196816950587289035428064568320970692304673817341489687522457604"
      ]
    },
    {
      "x": 406,
      "y": 329,
      "size": 1,
      "price": "4683000000000000000000",
      "reserved": "",
      "salt": "0x5bb60eacbc20a94317a765aaa5bb618af6ab353d3868136dcf4ff454421af62d",
      "assetIds": [
        "55464657044963196816950587289035428064568320970692304673817341489687522457602",
        "55464657044963196816950587289035428064568320970692304673817341489687522457604"
      ]
    },
    {
      "x": 406,
      "y": 335,
      "size": 1,
      "price": "4683000000000000000000",
      "reserved": "",
      "salt": "0x802dbfd1be11d45d0e80c9d12e0fd4328115c9a5f8812a63a03dbc34cbc19a03",
      "assetIds": [
        "55464657044963196816950587289035428064568320970692304673817341489687522457602",
        "55464657044963196816950587289035428064568320970692304673817341489687522457604"
      ]
    },
    {
      "x": 405,
      "y": 335,
      "size": 1,
      "price": "4683000000000000000000",
      "reserved": "",
      "salt": "0x00cade979277ef25b88e3c927bdc5baa5d785d04ec38dfe4f897930eb2fe146d",
      "assetIds": [
        "55464657044963196816950587289035428064568320970692304673817341489687522457602",
        "55464657044963196816950587289035428064568320970692304673817341489687522457604"
      ]
    },
    {
      "x": 404,
      "y": 335,
      "size": 1,
      "price": "4683000000000000000000",
      "reserved": "",
      "salt": "0x6c02ef9fd1bf906e8c83fcc4da8f7ab6d89f0d534b72a1a5beff2e86301e8ce5",
      "assetIds": [
        "55464657044963196816950587289035428064568320970692304673817341489687522457601",
        "55464657044963196816950587289035428064568320970692304673817341489687522457603"
      ]
    },
    {
      "x": 404,
      "y": 334,
      "size": 1,
      "price": "4683000000000000000000",
      "reserved": "",
      "salt": "0x601f25ce5f19e165358f2b507756c4b88770e228dfb6f00ae132e402da1d3bf1",
      "assetIds": [
        "55464657044963196816950587289035428064568320970692304673817341489687522457603",
        "55464657044963196816950587289035428064568320970692304673817341489687522457602"
      ]
    },
    {
      "x": 405,
      "y": 334,
      "size": 1,
      "price": "4683000000000000000000",
      "reserved": "",
      "salt": "0xa91787a87c6ca664ca1bd13490d84d661b0361357f8c947e825a51f2b909b6dc",
      "assetIds": [
        "55464657044963196816950587289035428064568320970692304673817341489687522457603",
        "55464657044963196816950587289035428064568320970692304673817341489687522457602"
      ]
    },
    {
      "x": 353,
      "y": 312,
      "size": 1,
      "price": "4683000000000000000000",
      "reserved": "",
      "salt": "0x62c6323a81ee952573ceba38e7b9bf713466af8890ee205a3deae1df424f47ac",
      "assetIds": [
        "55464657044963196816950587289035428064568320970692304673817341489687522457603",
        "55464657044963196816950587289035428064568320970692304673817341489687522457602"
      ]
    },
    {
      "x": 352,
      "y": 312,
      "size": 1,
      "price": "4683000000000000000000",
      "reserved": "",
      "salt": "0x99fa627efa6d3a346477d0e1bae08b171b0fd326402a592701c75992ec8d3c31",
      "assetIds": [
        "55464657044963196816950587289035428064568320970692304673817341489687522457601",
        "55464657044963196816950587289035428064568320970692304673817341489687522457603"
      ]
    },
    {
      "x": 351,
      "y": 312,
      "size": 1,
      "price": "4683000000000000000000",
      "reserved": "",
      "salt": "0x8e203b4479cd0e9ebd8c1b6b36604779dbafc68e56ed877c5906ec4fc38bff66",
      "assetIds": [
        "55464657044963196816950587289035428064568320970692304673817341489687522457603",
        "55464657044963196816950587289035428064568320970692304673817341489687522457602"
      ]
    },
    {
      "x": 350,
      "y": 312,
      "size": 1,
      "price": "4683000000000000000000",
      "reserved": "",
      "salt": "0xfb87ece415d26f30ab1a5093468755d18f14c7ed23159f400fd724aab5951298",
      "assetIds": [
        "55464657044963196816950587289035428064568320970692304673817341489687522457605",
        "55464657044963196816950587289035428064568320970692304673817341489687522457601"
      ]
    },
    {
      "x": 349,
      "y": 312,
      "size": 1,
      "price": "4683000000000000000000",
      "reserved": "",
      "salt": "0x8039543fa40df604361082079aeb85c10a47ae017d5317e4e83ba718d645712f",
      "assetIds": [
        "55464657044963196816950587289035428064568320970692304673817341489687522457602",
        "55464657044963196816950587289035428064568320970692304673817341489687522457604"
      ]
    },
    {
      "x": 348,
      "y": 312,
      "size": 1,
      "price": "4683000000000000000000",
      "reserved": "",
      "salt": "0x1d5255a691146d2a9d850734189f8421812e1c27861de48ad6ea56beabd73acf",
      "assetIds": [
        "55464657044963196816950587289035428064568320970692304673817341489687522457602",
        "55464657044963196816950587289035428064568320970692304673817341489687522457604"
      ]
    },
    {
      "x": 348,
      "y": 313,
      "size": 1,
      "price": "4683000000000000000000",
      "reserved": "",
      "salt": "0x854d104604c636debcd9c9344ae1997d94f53dd34a4e97f42609638f5f7658a7",
      "assetIds": [
        "55464657044963196816950587289035428064568320970692304673817341489687522457605",
        "55464657044963196816950587289035428064568320970692304673817341489687522457601"
      ]
    },
    {
      "x": 348,
      "y": 314,
      "size": 1,
      "price": "4683000000000000000000",
      "reserved": "",
      "salt": "0x4fe06b0c823723dbd59aa41593f769e78508a5fd3710f38c00caf1853cc9c2a2",
      "assetIds": [
        "55464657044963196816950587289035428064568320970692304673817341489687522457602",
        "55464657044963196816950587289035428064568320970692304673817341489687522457604"
      ]
    },
    {
      "x": 348,
      "y": 315,
      "size": 1,
      "price": "4683000000000000000000",
      "reserved": "",
      "salt": "0x50edcb2d01e0c16ad4fbd3a0420ac191f5f17587857377dde526986c225eaccf",
      "assetIds": [
        "55464657044963196816950587289035428064568320970692304673817341489687522457603",
        "55464657044963196816950587289035428064568320970692304673817341489687522457602"
      ]
    },
    {
      "x": 348,
      "y": 316,
      "size": 1,
      "price": "4683000000000000000000",
      "reserved": "",
      "salt": "0x080309d1ee94a9f436f607958182fb2e65290fb3e4e74beb73558a89b9acd648",
      "assetIds": [
        "55464657044963196816950587289035428064568320970692304673817341489687522457601",
        "55464657044963196816950587289035428064568320970692304673817341489687522457603"
      ]
    },
    {
      "x": 349,
      "y": 316,
      "size": 1,
      "price": "4683000000000000000000",
      "reserved": "",
      "salt": "0x9d573eb41d9994b9bf0f7c59add8d8ec06d3cdd386c30ebca61475ee62ad5e06",
      "assetIds": [
        "55464657044963196816950587289035428064568320970692304673817341489687522457602",
        "55464657044963196816950587289035428064568320970692304673817341489687522457604"
      ]
    },
    {
      "x": 349,
      "y": 317,
      "size": 1,
      "price": "4683000000000000000000",
      "reserved": "",
      "salt": "0x49614e8221073c97528e01c6fb62f0664db191dcdb348d61bcf3a8ef978cc9a8",
      "assetIds": [
        "55464657044963196816950587289035428064568320970692304673817341489687522457602",
        "55464657044963196816950587289035428064568320970692304673817341489687522457604"
      ]
    },
    {
      "x": 349,
      "y": 318,
      "size": 1,
      "price": "4683000000000000000000",
      "reserved": "",
      "salt": "0xb01dde96fdce5a08786a796f82deb1fff180c7665e9d963d77a53a1acf9bc7e9",
      "assetIds": [
        "55464657044963196816950587289035428064568320970692304673817341489687522457602",
        "55464657044963196816950587289035428064568320970692304673817341489687522457604"
      ]
    },
    {
      "x": 349,
      "y": 319,
      "size": 1,
      "price": "4683000000000000000000",
      "reserved": "",
      "salt": "0x32088158e9e3764451fa05e74a6e69c0e3d149075408d2a9486ee8171a2faac1",
      "assetIds": [
        "55464657044963196816950587289035428064568320970692304673817341489687522457605",
        "55464657044963196816950587289035428064568320970692304673817341489687522457601"
      ]
    },
    {
      "x": 349,
      "y": 320,
      "size": 1,
      "price": "4683000000000000000000",
      "reserved": "",
      "salt": "0x770ab1da8d00b66d27cbe44e891302b43087880dbb7cb4cffcf3e4ea0180d31f",
      "assetIds": [
        "55464657044963196816950587289035428064568320970692304673817341489687522457601",
        "55464657044963196816950587289035428064568320970692304673817341489687522457603"
      ]
    },
    {
      "x": 349,
      "y": 321,
      "size": 1,
      "price": "4683000000000000000000",
      "reserved": "",
      "salt": "0xffe7782ca8cca8c8851b07500e6f1f0d1626ae8f54c03e4434bdaceff7cf54c5",
      "assetIds": [
        "55464657044963196816950587289035428064568320970692304673817341489687522457603",
        "55464657044963196816950587289035428064568320970692304673817341489687522457602"
      ]
    },
    {
      "x": 349,
      "y": 322,
      "size": 1,
      "price": "4683000000000000000000",
      "reserved": "",
      "salt": "0xe1581200539919c4c32562f8f1e1068d3185b460267786a2cfdaf19f2306e37d",
      "assetIds": [
        "55464657044963196816950587289035428064568320970692304673817341489687522457601",
        "55464657044963196816950587289035428064568320970692304673817341489687522457603"
      ]
    },
    {
      "x": 349,
      "y": 323,
      "size": 1,
      "price": "4683000000000000000000",
      "reserved": "",
      "salt": "0x53830ee1650b8a8d50f544ffad7e354fe2dbd4f5c443a1b5926ce1fbf958ce3a",
      "assetIds": [
        "55464657044963196816950587289035428064568320970692304673817341489687522457603",
        "55464657044963196816950587289035428064568320970692304673817341489687522457602"
      ]
    },
    {
      "x": 349,
      "y": 325,
      "size": 1,
      "price": "4683000000000000000000",
      "reserved": "",
      "salt": "0xb345f8d72662ca9ff4d78c27fcc4fdfd3018dd97edbbe721ea1379a28b13ed1d",
      "assetIds": [
        "55464657044963196816950587289035428064568320970692304673817341489687522457602",
        "55464657044963196816950587289035428064568320970692304673817341489687522457604"
      ]
    },
    {
      "x": 349,
      "y": 326,
      "size": 1,
      "price": "4683000000000000000000",
      "reserved": "",
      "salt": "0x01a0757006b4a52e7e2a127a22127ee86bfa3ef8d772c29e9d087b9919d6b656",
      "assetIds": [
        "55464657044963196816950587289035428064568320970692304673817341489687522457601",
        "55464657044963196816950587289035428064568320970692304673817341489687522457603"
      ]
    },
    {
      "x": 349,
      "y": 327,
      "size": 1,
      "price": "4683000000000000000000",
      "reserved": "",
      "salt": "0x177e5013a327bad149010529b51466e05b2ebb8b55f2f120cf4d2030b6495de3",
      "assetIds": [
        "55464657044963196816950587289035428064568320970692304673817341489687522457602",
        "55464657044963196816950587289035428064568320970692304673817341489687522457604"
      ]
    },
    {
      "x": 348,
      "y": 326,
      "size": 1,
      "price": "4683000000000000000000",
      "reserved": "",
      "salt": "0x2607d52dd486304e70ac7cfd6cb957039027c7a67814931ee3ef879cc222eaef",
      "assetIds": [
        "55464657044963196816950587289035428064568320970692304673817341489687522457602",
        "55464657044963196816950587289035428064568320970692304673817341489687522457604"
      ]
    },
    {
      "x": 348,
      "y": 325,
      "size": 1,
      "price": "4683000000000000000000",
      "reserved": "",
      "salt": "0xad63a3018f1a1fe850aaeb7fd26000325f8975497936a3ea1caee344ceba184f",
      "assetIds": [
        "55464657044963196816950587289035428064568320970692304673817341489687522457601",
        "55464657044963196816950587289035428064568320970692304673817341489687522457603"
      ]
    },
    {
      "x": 348,
      "y": 324,
      "size": 1,
      "price": "4683000000000000000000",
      "reserved": "",
      "salt": "0xc963ff2cdccfbc07fdb65f9e9a723ca0daa6c5ae69fe66ffdbca3595a270ab58",
      "assetIds": [
        "55464657044963196816950587289035428064568320970692304673817341489687522457605",
        "55464657044963196816950587289035428064568320970692304673817341489687522457601"
      ]
    },
    {
      "x": 348,
      "y": 323,
      "size": 1,
      "price": "4683000000000000000000",
      "reserved": "",
      "salt": "0xa67bdf9fc765224da5e0cbaf37db46a062eaf9e15e80280a70e8dbfce15533d5",
      "assetIds": [
        "55464657044963196816950587289035428064568320970692304673817341489687522457603",
        "55464657044963196816950587289035428064568320970692304673817341489687522457602"
      ]
    },
    {
      "x": 348,
      "y": 322,
      "size": 1,
      "price": "4683000000000000000000",
      "reserved": "",
      "salt": "0xb470ff4c4161ff691baefc8f6acae5b01779d0e6445e54bded51f73015d55a2f",
      "assetIds": [
        "55464657044963196816950587289035428064568320970692304673817341489687522457602",
        "55464657044963196816950587289035428064568320970692304673817341489687522457604"
      ]
    },
    {
      "x": 348,
      "y": 321,
      "size": 1,
      "price": "4683000000000000000000",
      "reserved": "",
      "salt": "0x992ca092a9f3a5578f5ebcb31f2e59f4658cf8ac2def8e6d9d04af34f9be6ae3",
      "assetIds": [
        "55464657044963196816950587289035428064568320970692304673817341489687522457605",
        "55464657044963196816950587289035428064568320970692304673817341489687522457601"
      ]
    },
    {
      "x": 348,
      "y": 320,
      "size": 1,
      "price": "4683000000000000000000",
      "reserved": "",
      "salt": "0xb78219ca5bfc16a9cd90e349d0ee192c8d33323223d0bf9ab16bb8641bda4d8a",
      "assetIds": [
        "55464657044963196816950587289035428064568320970692304673817341489687522457601",
        "55464657044963196816950587289035428064568320970692304673817341489687522457603"
      ]
    },
    {
      "x": 348,
      "y": 319,
      "size": 1,
      "price": "4683000000000000000000",
      "reserved": "",
      "salt": "0x3a476bc7b105349dbdae2ec59333b640083e1c52e8e263b631718afa71994534",
      "assetIds": [
        "55464657044963196816950587289035428064568320970692304673817341489687522457605",
        "55464657044963196816950587289035428064568320970692304673817341489687522457601"
      ]
    },
    {
      "x": 348,
      "y": 318,
      "size": 1,
      "price": "4683000000000000000000",
      "reserved": "",
      "salt": "0xba0dfe89bd87754d5f079a89858614b5e8dbd70a80db2b632cddbcbda3dc737a",
      "assetIds": [
        "55464657044963196816950587289035428064568320970692304673817341489687522457605",
        "55464657044963196816950587289035428064568320970692304673817341489687522457601"
      ]
    },
    {
      "x": 348,
      "y": 317,
      "size": 1,
      "price": "4683000000000000000000",
      "reserved": "",
      "salt": "0x656120d7ffd87802e4a5a6c637dcaa15ef7cbb57610103a087243048e69bb116",
      "assetIds": [
        "55464657044963196816950587289035428064568320970692304673817341489687522457601",
        "55464657044963196816950587289035428064568320970692304673817341489687522457603"
      ]
    },
    {
      "x": 350,
      "y": 317,
      "size": 1,
      "price": "4683000000000000000000",
      "reserved": "",
      "salt": "0x85bee9df67075866ff70a566bef14115e9689f8cf0f134f14723b42f8715c5ea",
      "assetIds": [
        "55464657044963196816950587289035428064568320970692304673817341489687522457602",
        "55464657044963196816950587289035428064568320970692304673817341489687522457604"
      ]
    },
    {
      "x": 351,
      "y": 317,
      "size": 1,
      "price": "4683000000000000000000",
      "reserved": "",
      "salt": "0x285234dc27611cf3b522ed5383fdebbc1acc4ca33068c3bc8c637adafe231022",
      "assetIds": [
        "55464657044963196816950587289035428064568320970692304673817341489687522457601",
        "55464657044963196816950587289035428064568320970692304673817341489687522457603"
      ]
    },
    {
      "x": 352,
      "y": 317,
      "size": 1,
      "price": "4683000000000000000000",
      "reserved": "",
      "salt": "0x3c0bfc99e8ed154d216e50e1992151bdc87560c15f0a451929e0744463fe0c8b",
      "assetIds": [
        "55464657044963196816950587289035428064568320970692304673817341489687522457601",
        "55464657044963196816950587289035428064568320970692304673817341489687522457603"
      ]
    },
    {
      "x": 353,
      "y": 317,
      "size": 1,
      "price": "4683000000000000000000",
      "reserved": "",
      "salt": "0x973edeb42fb5c9f46b22f7889b5da29738e071f96d30f05eb0298023c6a8a769",
      "assetIds": [
        "55464657044963196816950587289035428064568320970692304673817341489687522457602",
        "55464657044963196816950587289035428064568320970692304673817341489687522457604"
      ]
    },
    {
      "x": 353,
      "y": 315,
      "size": 1,
      "price": "4683000000000000000000",
      "reserved": "",
      "salt": "0xf9c799acea8ccf16c325f4944da18799a2906ca91fe0c082ce6f04f5839afe11",
      "assetIds": [
        "55464657044963196816950587289035428064568320970692304673817341489687522457601",
        "55464657044963196816950587289035428064568320970692304673817341489687522457603"
      ]
    },
    {
      "x": 352,
      "y": 315,
      "size": 1,
      "price": "4683000000000000000000",
      "reserved": "",
      "salt": "0xf1e6d884d6ad9c2a6d17777bf26dbb7dad920bef5360237314ef590b21dfc736",
      "assetIds": [
        "55464657044963196816950587289035428064568320970692304673817341489687522457603",
        "55464657044963196816950587289035428064568320970692304673817341489687522457602"
      ]
    },
    {
      "x": 351,
      "y": 315,
      "size": 1,
      "price": "4683000000000000000000",
      "reserved": "",
      "salt": "0x0663a1c8fa8c702b2ae6678916ad8fb295131a9b763d797e7ecb0640f701d3c4",
      "assetIds": [
        "55464657044963196816950587289035428064568320970692304673817341489687522457603",
        "55464657044963196816950587289035428064568320970692304673817341489687522457602"
      ]
    },
    {
      "x": 352,
      "y": 314,
      "size": 1,
      "price": "4683000000000000000000",
      "reserved": "",
      "salt": "0xeaf153fde26bcaec9e5e3e83cd8d3a58d3defc093951b60b94fc07e0f21df799",
      "assetIds": [
        "55464657044963196816950587289035428064568320970692304673817341489687522457603",
        "55464657044963196816950587289035428064568320970692304673817341489687522457602"
      ]
    },
    {
      "x": 353,
      "y": 314,
      "size": 1,
      "price": "4683000000000000000000",
      "reserved": "",
      "salt": "0xb586e6a50dd4095fd427aea40c4511aaf465647d8aef9c9fbb14af1bc0f0778e",
      "assetIds": [
        "55464657044963196816950587289035428064568320970692304673817341489687522457603",
        "55464657044963196816950587289035428064568320970692304673817341489687522457602"
      ]
    },
    {
      "x": 353,
      "y": 313,
      "size": 1,
      "price": "4683000000000000000000",
      "reserved": "",
      "salt": "0x79ad5d14c915a4811b2881447054f66ede2b394af3be7d7accd9a37368c0c49d",
      "assetIds": [
        "55464657044963196816950587289035428064568320970692304673817341489687522457602",
        "55464657044963196816950587289035428064568320970692304673817341489687522457604"
      ]
    },
    {
      "x": 349,
      "y": 313,
      "size": 1,
      "price": "4683000000000000000000",
      "reserved": "",
      "salt": "0xc8a0f750b954ac425664e91acdae4980ad89fb2c6ef37de7ef95e6489aa3dce4",
      "assetIds": [
        "55464657044963196816950587289035428064568320970692304673817341489687522457602",
        "55464657044963196816950587289035428064568320970692304673817341489687522457604"
      ]
    },
    {
      "x": 350,
      "y": 313,
      "size": 1,
      "price": "4683000000000000000000",
      "reserved": "",
      "salt": "0xfaa23a613c228fda5386a2a16d24c9761b236b1363f9e9ddf9cc4844635640b4",
      "assetIds": [
        "55464657044963196816950587289035428064568320970692304673817341489687522457602",
        "55464657044963196816950587289035428064568320970692304673817341489687522457604"
      ]
    },
    {
      "x": 351,
      "y": 313,
      "size": 1,
      "price": "4683000000000000000000",
      "reserved": "",
      "salt": "0xd2a081bb0e17cf4958c058fd9722d57c72c278e98fda3dc35f8184f16930ac00",
      "assetIds": [
        "55464657044963196816950587289035428064568320970692304673817341489687522457605",
        "55464657044963196816950587289035428064568320970692304673817341489687522457601"
      ]
    },
    {
      "x": 352,
      "y": 313,
      "size": 1,
      "price": "4683000000000000000000",
      "reserved": "",
      "salt": "0x9b68fedd8fef30e2def82848454ef12160980a1b3a5595d5374136f2bee8d888",
      "assetIds": [
        "55464657044963196816950587289035428064568320970692304673817341489687522457603",
        "55464657044963196816950587289035428064568320970692304673817341489687522457602"
      ]
    },
    {
      "x": 350,
      "y": 314,
      "size": 1,
      "price": "4683000000000000000000",
      "reserved": "",
      "salt": "0x546d52075026b3607e150a045f83ce49ac237459d380e95604eba3739411325d",
      "assetIds": [
        "55464657044963196816950587289035428064568320970692304673817341489687522457602",
        "55464657044963196816950587289035428064568320970692304673817341489687522457604"
      ]
    },
    {
      "x": 350,
      "y": 315,
      "size": 1,
      "price": "4683000000000000000000",
      "reserved": "",
      "salt": "0xcb6ab9e1fe63689ff541de0a1399604e6d721156d3fadfaa0f2ea2609bba5f05",
      "assetIds": [
        "55464657044963196816950587289035428064568320970692304673817341489687522457602",
        "55464657044963196816950587289035428064568320970692304673817341489687522457604"
      ]
    },
    {
      "x": 350,
      "y": 316,
      "size": 1,
      "price": "4683000000000000000000",
      "reserved": "",
      "salt": "0xba3981337eb1f30404b2f85bed82142f98e91ff11a5428015d3250f9bf827302",
      "assetIds": [
        "55464657044963196816950587289035428064568320970692304673817341489687522457603",
        "55464657044963196816950587289035428064568320970692304673817341489687522457602"
      ]
    },
    {
      "x": 349,
      "y": 315,
      "size": 1,
      "price": "4683000000000000000000",
      "reserved": "",
      "salt": "0x5365139ed435f1fc3d07aa63b6545fd761eb31035d7355a274dfdca4761b40ce",
      "assetIds": [
        "55464657044963196816950587289035428064568320970692304673817341489687522457602",
        "55464657044963196816950587289035428064568320970692304673817341489687522457604"
      ]
    },
    {
      "x": 349,
      "y": 314,
      "size": 1,
      "price": "4683000000000000000000",
      "reserved": "",
      "salt": "0x992a23d20a9ba238f84ecabbc02d8e5bd1eb97966e8927dc8f9c8d9800922197",
      "assetIds": [
        "55464657044963196816950587289035428064568320970692304673817341489687522457601",
        "55464657044963196816950587289035428064568320970692304673817341489687522457603"
      ]
    },
    {
      "x": 351,
      "y": 316,
      "size": 1,
      "price": "4683000000000000000000",
      "reserved": "",
      "salt": "0x35225ae4a6ca09a1572d34ae2aefbb09fb9ffe8f9e440c913d2fd0fcd41b243f",
      "assetIds": [
        "55464657044963196816950587289035428064568320970692304673817341489687522457602",
        "55464657044963196816950587289035428064568320970692304673817341489687522457604"
      ]
    },
    {
      "x": 352,
      "y": 316,
      "size": 1,
      "price": "4683000000000000000000",
      "reserved": "",
      "salt": "0xae1b949181fcc521a8c1a20cbe6d1f8dcef89354256cba1247a6feaf8c968931",
      "assetIds": [
        "55464657044963196816950587289035428064568320970692304673817341489687522457605",
        "55464657044963196816950587289035428064568320970692304673817341489687522457601"
      ]
    },
    {
      "x": 353,
      "y": 316,
      "size": 1,
      "price": "4683000000000000000000",
      "reserved": "",
      "salt": "0x9afe626beb34e5fdd8385a4cd1d85211b7479257b34b64265cffb9b6e69c86d3",
      "assetIds": [
        "55464657044963196816950587289035428064568320970692304673817341489687522457601",
        "55464657044963196816950587289035428064568320970692304673817341489687522457603"
      ]
    },
    {
      "x": 353,
      "y": 320,
      "size": 1,
      "price": "4683000000000000000000",
      "reserved": "",
      "salt": "0x3d171fa5e088e7cccbfd32c16b74e72a43b67022e0011a3f807dbaf4c65a6760",
      "assetIds": [
        "55464657044963196816950587289035428064568320970692304673817341489687522457603",
        "55464657044963196816950587289035428064568320970692304673817341489687522457602"
      ]
    },
    {
      "x": 353,
      "y": 319,
      "size": 1,
      "price": "4683000000000000000000",
      "reserved": "",
      "salt": "0x85a491b94e648f9bd1e96b05f315f75edf6c9e159efe14df2ad9f66e74b956d9",
      "assetIds": [
        "55464657044963196816950587289035428064568320970692304673817341489687522457603",
        "55464657044963196816950587289035428064568320970692304673817341489687522457602"
      ]
    },
    {
      "x": 353,
      "y": 318,
      "size": 1,
      "price": "4683000000000000000000",
      "reserved": "",
      "salt": "0x97e3fd1f127cc4ef64243db82bb48c6350ac5c03b7ebf2d22895d46e1a8b5dbf",
      "assetIds": [
        "55464657044963196816950587289035428064568320970692304673817341489687522457602",
        "55464657044963196816950587289035428064568320970692304673817341489687522457604"
      ]
    },
    {
      "x": 353,
      "y": 321,
      "size": 1,
      "price": "4683000000000000000000",
      "reserved": "",
      "salt": "0x2ec2417091c9abd1323b1dbbb7a094381ffbc4309a7a2f84cd79e636cbd31792",
      "assetIds": [
        "55464657044963196816950587289035428064568320970692304673817341489687522457602",
        "55464657044963196816950587289035428064568320970692304673817341489687522457604"
      ]
    },
    {
      "x": 353,
      "y": 322,
      "size": 1,
      "price": "4683000000000000000000",
      "reserved": "",
      "salt": "0xad0bc62cbfdb6aaf6f33993ba11d62febd806d7ee13e578f4f2fead48cb1e1ce",
      "assetIds": [
        "55464657044963196816950587289035428064568320970692304673817341489687522457601",
        "55464657044963196816950587289035428064568320970692304673817341489687522457603"
      ]
    },
    {
      "x": 353,
      "y": 323,
      "size": 1,
      "price": "4683000000000000000000",
      "reserved": "",
      "salt": "0xb86907bb2ffc7b1e03f5cd32b393285f50475c9abbc8146369b457bd167cb2dc",
      "assetIds": [
        "55464657044963196816950587289035428064568320970692304673817341489687522457603",
        "55464657044963196816950587289035428064568320970692304673817341489687522457602"
      ]
    },
    {
      "x": 352,
      "y": 323,
      "size": 1,
      "price": "4683000000000000000000",
      "reserved": "",
      "salt": "0x21081c4f033a5cfd623de1fcc309841e88f67350eea116e8729a913c9c66d969",
      "assetIds": [
        "55464657044963196816950587289035428064568320970692304673817341489687522457601",
        "55464657044963196816950587289035428064568320970692304673817341489687522457603"
      ]
    },
    {
      "x": 351,
      "y": 323,
      "size": 1,
      "price": "4683000000000000000000",
      "reserved": "",
      "salt": "0xaeb96a56f7f8e54a7c10504a6651be1195a6652f4bbc4afd3778e36ecd0f23e0",
      "assetIds": [
        "55464657044963196816950587289035428064568320970692304673817341489687522457602",
        "55464657044963196816950587289035428064568320970692304673817341489687522457604"
      ]
    },
    {
      "x": 351,
      "y": 322,
      "size": 1,
      "price": "4683000000000000000000",
      "reserved": "",
      "salt": "0x2ffbf3dc52e880163bf1638a9c0519f6d99f28cd53fe0f0dc5c622427065ab11",
      "assetIds": [
        "55464657044963196816950587289035428064568320970692304673817341489687522457602",
        "55464657044963196816950587289035428064568320970692304673817341489687522457604"
      ]
    },
    {
      "x": 350,
      "y": 322,
      "size": 1,
      "price": "4683000000000000000000",
      "reserved": "",
      "salt": "0x2d8924718e7d77c55042c17e784596a3603d9b363a8ab9fbeacbca1201268827",
      "assetIds": [
        "55464657044963196816950587289035428064568320970692304673817341489687522457603",
        "55464657044963196816950587289035428064568320970692304673817341489687522457602"
      ]
    },
    {
      "x": 350,
      "y": 321,
      "size": 1,
      "price": "4683000000000000000000",
      "reserved": "",
      "salt": "0x296ff3e49fd88f1542886de1f2e55ffa44e1867951e1d93514a286e11b528ec9",
      "assetIds": [
        "55464657044963196816950587289035428064568320970692304673817341489687522457605",
        "55464657044963196816950587289035428064568320970692304673817341489687522457601"
      ]
    },
    {
      "x": 350,
      "y": 320,
      "size": 1,
      "price": "4683000000000000000000",
      "reserved": "",
      "salt": "0x62ce96d758ff8f98877f8e594107a131c7396396280945c75ec77e91c3ee57cb",
      "assetIds": [
        "55464657044963196816950587289035428064568320970692304673817341489687522457603",
        "55464657044963196816950587289035428064568320970692304673817341489687522457602"
      ]
    },
    {
      "x": 350,
      "y": 319,
      "size": 1,
      "price": "4683000000000000000000",
      "reserved": "",
      "salt": "0x162918ee9737b2edc80ec97cb051a65fb6eb1fa6b538526bfbeb6dd5ed107a9d",
      "assetIds": [
        "55464657044963196816950587289035428064568320970692304673817341489687522457603",
        "55464657044963196816950587289035428064568320970692304673817341489687522457602"
      ]
    },
    {
      "x": 351,
      "y": 319,
      "size": 1,
      "price": "4683000000000000000000",
      "reserved": "",
      "salt": "0x12921945b24be7d068f274d264a5647d5347e38db16037305692c0f9f968d9a1",
      "assetIds": [
        "55464657044963196816950587289035428064568320970692304673817341489687522457603",
        "55464657044963196816950587289035428064568320970692304673817341489687522457602"
      ]
    },
    {
      "x": 351,
      "y": 318,
      "size": 1,
      "price": "4683000000000000000000",
      "reserved": "",
      "salt": "0x4286abbb810f81643d13866f545a3e629fb7c9cb59469a7725453d2e70438bf4",
      "assetIds": [
        "55464657044963196816950587289035428064568320970692304673817341489687522457602",
        "55464657044963196816950587289035428064568320970692304673817341489687522457604"
      ]
    },
    {
      "x": 352,
      "y": 318,
      "size": 1,
      "price": "4683000000000000000000",
      "reserved": "",
      "salt": "0x99a4d77e8aa7df471304b975d5ce488876b7df1acbb7d757bd7ced577bdf51e9",
      "assetIds": [
        "55464657044963196816950587289035428064568320970692304673817341489687522457605",
        "55464657044963196816950587289035428064568320970692304673817341489687522457601"
      ]
    },
    {
      "x": 350,
      "y": 318,
      "size": 1,
      "price": "4683000000000000000000",
      "reserved": "",
      "salt": "0x992c8393055798518a58da47b8961c91b9c1eb951ffc8ab31bbf54774f8b3da1",
      "assetIds": [
        "55464657044963196816950587289035428064568320970692304673817341489687522457605",
        "55464657044963196816950587289035428064568320970692304673817341489687522457601"
      ]
    },
    {
      "x": 352,
      "y": 319,
      "size": 1,
      "price": "4683000000000000000000",
      "reserved": "",
      "salt": "0x7beca7823c23b3f84600220101ed53761a93955d9f456c2ece80581f0f57f7f6",
      "assetIds": [
        "55464657044963196816950587289035428064568320970692304673817341489687522457605",
        "55464657044963196816950587289035428064568320970692304673817341489687522457601"
      ]
    },
    {
      "x": 352,
      "y": 320,
      "size": 1,
      "price": "4683000000000000000000",
      "reserved": "",
      "salt": "0xba1fe8311daa0d9f83079af552f3e88dae0523c868d827f1f9c7c56f82f6b6a7",
      "assetIds": [
        "55464657044963196816950587289035428064568320970692304673817341489687522457603",
        "55464657044963196816950587289035428064568320970692304673817341489687522457602"
      ]
    },
    {
      "x": 351,
      "y": 320,
      "size": 1,
      "price": "4683000000000000000000",
      "reserved": "",
      "salt": "0xa3c7d8f808c203e2ae24da7b3b2bc370178c7da4937ae8cac3682623bb54ba09",
      "assetIds": [
        "55464657044963196816950587289035428064568320970692304673817341489687522457603",
        "55464657044963196816950587289035428064568320970692304673817341489687522457602"
      ]
    },
    {
      "x": 351,
      "y": 321,
      "size": 1,
      "price": "4683000000000000000000",
      "reserved": "",
      "salt": "0xb0d84587a99c6a9e5beb14cb59d3b0f76d3e6ddff57f088bd58ccc0e2279b1cc",
      "assetIds": [
        "55464657044963196816950587289035428064568320970692304673817341489687522457601",
        "55464657044963196816950587289035428064568320970692304673817341489687522457603"
      ]
    },
    {
      "x": 352,
      "y": 322,
      "size": 1,
      "price": "4683000000000000000000",
      "reserved": "",
      "salt": "0x035c820fdbf827fd8c69aedb6643df82b0b5d74b3a64081ae81c646544b88ad5",
      "assetIds": [
        "55464657044963196816950587289035428064568320970692304673817341489687522457601",
        "55464657044963196816950587289035428064568320970692304673817341489687522457603"
      ]
    },
    {
      "x": 353,
      "y": 324,
      "size": 1,
      "price": "4683000000000000000000",
      "reserved": "",
      "salt": "0xd4e5aaf123e6a99ee5e22e180ca14abfe33c496ecda714b26e4c08c014bf019c",
      "assetIds": [
        "55464657044963196816950587289035428064568320970692304673817341489687522457602",
        "55464657044963196816950587289035428064568320970692304673817341489687522457604"
      ]
    },
    {
      "x": 354,
      "y": 324,
      "size": 1,
      "price": "4683000000000000000000",
      "reserved": "",
      "salt": "0xd147ab3da698451068ed99aa654751dc02f5306a5ab41ad1c45742a078c3a5f5",
      "assetIds": [
        "55464657044963196816950587289035428064568320970692304673817341489687522457605",
        "55464657044963196816950587289035428064568320970692304673817341489687522457601"
      ]
    },
    {
      "x": 354,
      "y": 325,
      "size": 1,
      "price": "4683000000000000000000",
      "reserved": "",
      "salt": "0x0ae6cb6f7ab2afbcb2a0f3d176c202dbc66b247753cdf4dfd683afa76c912e8f",
      "assetIds": [
        "55464657044963196816950587289035428064568320970692304673817341489687522457603",
        "55464657044963196816950587289035428064568320970692304673817341489687522457602"
      ]
    },
    {
      "x": 354,
      "y": 326,
      "size": 1,
      "price": "4683000000000000000000",
      "reserved": "",
      "salt": "0x6e11614b20326b48eaebb1803afdba002a14d496b9b2b3a7d05a90556022f45c",
      "assetIds": [
        "55464657044963196816950587289035428064568320970692304673817341489687522457601",
        "55464657044963196816950587289035428064568320970692304673817341489687522457603"
      ]
    },
    {
      "x": 354,
      "y": 327,
      "size": 1,
      "price": "4683000000000000000000",
      "reserved": "",
      "salt": "0x3b91d85c403ff6c12810a423119d97d228acf5fac977d5226eeebf578e6507c6",
      "assetIds": [
        "55464657044963196816950587289035428064568320970692304673817341489687522457601",
        "55464657044963196816950587289035428064568320970692304673817341489687522457603"
      ]
    },
    {
      "x": 355,
      "y": 327,
      "size": 1,
      "price": "4683000000000000000000",
      "reserved": "",
      "salt": "0x2f8d3e47b12950877a159fdb77c1b5a9aa37cc498c1aa16eb944c1592a4093ad",
      "assetIds": [
        "55464657044963196816950587289035428064568320970692304673817341489687522457601",
        "55464657044963196816950587289035428064568320970692304673817341489687522457603"
      ]
    },
    {
      "x": 357,
      "y": 327,
      "size": 1,
      "price": "4683000000000000000000",
      "reserved": "",
      "salt": "0x64ce2494b7460fa008f7680cbbaef8ace256b68263f0a2878581033f4e2b1c2f",
      "assetIds": [
        "55464657044963196816950587289035428064568320970692304673817341489687522457602",
        "55464657044963196816950587289035428064568320970692304673817341489687522457604"
      ]
    },
    {
      "x": 358,
      "y": 327,
      "size": 1,
      "price": "4683000000000000000000",
      "reserved": "",
      "salt": "0x2801fc38d288f9f3ad182d9c2c9bbecbba28b5c47987b712e5cb317ea024fbe4",
      "assetIds": [
        "55464657044963196816950587289035428064568320970692304673817341489687522457602",
        "55464657044963196816950587289035428064568320970692304673817341489687522457604"
      ]
    },
    {
      "x": 359,
      "y": 327,
      "size": 1,
      "price": "4683000000000000000000",
      "reserved": "",
      "salt": "0xee3933a3177d388462b847dff3add2a79ffac7da86a3e7240795d2c04754cd48",
      "assetIds": [
        "55464657044963196816950587289035428064568320970692304673817341489687522457601",
        "55464657044963196816950587289035428064568320970692304673817341489687522457603"
      ]
    },
    {
      "x": 359,
      "y": 326,
      "size": 1,
      "price": "4683000000000000000000",
      "reserved": "",
      "salt": "0xd68044eabf8523f0ad049daaf6d15675f88b93c2cde86ae7521fa23963e0ed74",
      "assetIds": [
        "55464657044963196816950587289035428064568320970692304673817341489687522457602",
        "55464657044963196816950587289035428064568320970692304673817341489687522457604"
      ]
    },
    {
      "x": 359,
      "y": 325,
      "size": 1,
      "price": "4683000000000000000000",
      "reserved": "",
      "salt": "0x5e9e68aaa0cee96f7d6663f229aaee0e09b8b4b8450a69d94a7ad46eebbfd18e",
      "assetIds": [
        "55464657044963196816950587289035428064568320970692304673817341489687522457601",
        "55464657044963196816950587289035428064568320970692304673817341489687522457603"
      ]
    },
    {
      "x": 359,
      "y": 324,
      "size": 1,
      "price": "4683000000000000000000",
      "reserved": "",
      "salt": "0xff28de9d3f86e8b96e98bf4de86eb0faf638ff5bf014371a11fc4d3cb8e6a5e0",
      "assetIds": [
        "55464657044963196816950587289035428064568320970692304673817341489687522457603",
        "55464657044963196816950587289035428064568320970692304673817341489687522457602"
      ]
    },
    {
      "x": 358,
      "y": 324,
      "size": 1,
      "price": "4683000000000000000000",
      "reserved": "",
      "salt": "0x49c76c8b09290fa24855e0a29ad7ad97f99cc31429b36bd70e62a24f29c3a943",
      "assetIds": [
        "55464657044963196816950587289035428064568320970692304673817341489687522457603",
        "55464657044963196816950587289035428064568320970692304673817341489687522457602"
      ]
    },
    {
      "x": 357,
      "y": 324,
      "size": 1,
      "price": "4683000000000000000000",
      "reserved": "",
      "salt": "0x855a2e0ce14d04c89fd325fd12faee1f4924d51aa717c83a9335ccd93bdfaa6a",
      "assetIds": [
        "55464657044963196816950587289035428064568320970692304673817341489687522457605",
        "55464657044963196816950587289035428064568320970692304673817341489687522457601"
      ]
    },
    {
      "x": 356,
      "y": 324,
      "size": 1,
      "price": "4683000000000000000000",
      "reserved": "",
      "salt": "0x0ec7c1bb905ea9899b761a1816e233beb3d4c671df34fa81c8552b7a2271c8fb",
      "assetIds": [
        "55464657044963196816950587289035428064568320970692304673817341489687522457601",
        "55464657044963196816950587289035428064568320970692304673817341489687522457603"
      ]
    },
    {
      "x": 355,
      "y": 324,
      "size": 1,
      "price": "4683000000000000000000",
      "reserved": "",
      "salt": "0x341a45c0d2352492798659becc52a781a8da7a1ef4832fb85f156776edb67e4a",
      "assetIds": [
        "55464657044963196816950587289035428064568320970692304673817341489687522457601",
        "55464657044963196816950587289035428064568320970692304673817341489687522457603"
      ]
    },
    {
      "x": 352,
      "y": 324,
      "size": 1,
      "price": "4683000000000000000000",
      "reserved": "",
      "salt": "0x49db55198031c5b4880821de4b475b6b75fe8d4838adc1e52fa6a31659f37dba",
      "assetIds": [
        "55464657044963196816950587289035428064568320970692304673817341489687522457605",
        "55464657044963196816950587289035428064568320970692304673817341489687522457601"
      ]
    },
    {
      "x": 351,
      "y": 324,
      "size": 1,
      "price": "4683000000000000000000",
      "reserved": "",
      "salt": "0x2d00e50e697bfeae32b6a0c26034f0c75156cf2e96a4a5145a032e2c9190238b",
      "assetIds": [
        "55464657044963196816950587289035428064568320970692304673817341489687522457605",
        "55464657044963196816950587289035428064568320970692304673817341489687522457601"
      ]
    },
    {
      "x": 350,
      "y": 324,
      "size": 1,
      "price": "4683000000000000000000",
      "reserved": "",
      "salt": "0xace9ecb8c093ec770a1765a4018745b92c4d4b0fa469a51d0fa0a9c515e9689b",
      "assetIds": [
        "55464657044963196816950587289035428064568320970692304673817341489687522457601",
        "55464657044963196816950587289035428064568320970692304673817341489687522457603"
      ]
    },
    {
      "x": 350,
      "y": 323,
      "size": 1,
      "price": "4683000000000000000000",
      "reserved": "",
      "salt": "0x0109d4aa46761a98e5a3321e404a91bf18811f6f89047a512325fd74c7c83a39",
      "assetIds": [
        "55464657044963196816950587289035428064568320970692304673817341489687522457601",
        "55464657044963196816950587289035428064568320970692304673817341489687522457603"
      ]
    },
    {
      "x": 350,
      "y": 325,
      "size": 1,
      "price": "4683000000000000000000",
      "reserved": "",
      "salt": "0xc1a8c92f66aaa5eebc87004deb2b9ebfb6285d39e63de3e3062e0e5ba12a723e",
      "assetIds": [
        "55464657044963196816950587289035428064568320970692304673817341489687522457602",
        "55464657044963196816950587289035428064568320970692304673817341489687522457604"
      ]
    },
    {
      "x": 350,
      "y": 326,
      "size": 1,
      "price": "4683000000000000000000",
      "reserved": "",
      "salt": "0xb0a5ccf28af325cba9893be4190f4099794fd95bbf47ccc917e91b646f69d1dd",
      "assetIds": [
        "55464657044963196816950587289035428064568320970692304673817341489687522457602",
        "55464657044963196816950587289035428064568320970692304673817341489687522457604"
      ]
    },
    {
      "x": 350,
      "y": 327,
      "size": 1,
      "price": "4683000000000000000000",
      "reserved": "",
      "salt": "0x5d03cb8bad79991175091993ee3e04acc4af4ab2923c8c316c70541ab54f9fd5",
      "assetIds": [
        "55464657044963196816950587289035428064568320970692304673817341489687522457605",
        "55464657044963196816950587289035428064568320970692304673817341489687522457601"
      ]
    },
    {
      "x": 351,
      "y": 327,
      "size": 1,
      "price": "4683000000000000000000",
      "reserved": "",
      "salt": "0x2a80fe29b57e1afb2668ef20810ba7b319a9a5bcf5a4112193ee5bdced6300ac",
      "assetIds": [
        "55464657044963196816950587289035428064568320970692304673817341489687522457605",
        "55464657044963196816950587289035428064568320970692304673817341489687522457601"
      ]
    },
    {
      "x": 352,
      "y": 327,
      "size": 1,
      "price": "4683000000000000000000",
      "reserved": "",
      "salt": "0x1912a48a75dfd489399bab62fe0eae80409b1194fce40dbce9ac29628dd16ba8",
      "assetIds": [
        "55464657044963196816950587289035428064568320970692304673817341489687522457605",
        "55464657044963196816950587289035428064568320970692304673817341489687522457601"
      ]
    },
    {
      "x": 353,
      "y": 327,
      "size": 1,
      "price": "4683000000000000000000",
      "reserved": "",
      "salt": "0x76c8d4d66dddedfb50b0794cc1245998c30bd2ef4b58401a4c2f1495f0482900",
      "assetIds": [
        "55464657044963196816950587289035428064568320970692304673817341489687522457605",
        "55464657044963196816950587289035428064568320970692304673817341489687522457601"
      ]
    },
    {
      "x": 358,
      "y": 326,
      "size": 1,
      "price": "4683000000000000000000",
      "reserved": "",
      "salt": "0xfa2e854ae7d67274aa2825d93e0ed425203894e4b23c1165cb3f0276b165d363",
      "assetIds": [
        "55464657044963196816950587289035428064568320970692304673817341489687522457605",
        "55464657044963196816950587289035428064568320970692304673817341489687522457601"
      ]
    },
    {
      "x": 357,
      "y": 326,
      "size": 1,
      "price": "4683000000000000000000",
      "reserved": "",
      "salt": "0x2eeca06736bc8301a9efc1c901e2f140920f082af2df81c16bd18ac1f6380b04",
      "assetIds": [
        "55464657044963196816950587289035428064568320970692304673817341489687522457605",
        "55464657044963196816950587289035428064568320970692304673817341489687522457601"
      ]
    },
    {
      "x": 356,
      "y": 325,
      "size": 1,
      "price": "4683000000000000000000",
      "reserved": "",
      "salt": "0xeec73d6b828d02afb3a3e32c5df9013577228ae06c34342d175a8c245006f13b",
      "assetIds": [
        "55464657044963196816950587289035428064568320970692304673817341489687522457605",
        "55464657044963196816950587289035428064568320970692304673817341489687522457601"
      ]
    },
    {
      "x": 355,
      "y": 325,
      "size": 1,
      "price": "4683000000000000000000",
      "reserved": "",
      "salt": "0xfb3f8574d666d9126ecf71801c12f48e70b00f690b2eaf0c359f7428f0660b01",
      "assetIds": [
        "55464657044963196816950587289035428064568320970692304673817341489687522457603",
        "55464657044963196816950587289035428064568320970692304673817341489687522457602"
      ]
    },
    {
      "x": 353,
      "y": 325,
      "size": 1,
      "price": "4683000000000000000000",
      "reserved": "",
      "salt": "0x0f4cd912f907bbcf1727c88e5704bb261f9c048493f98cdffd254b484c161752",
      "assetIds": [
        "55464657044963196816950587289035428064568320970692304673817341489687522457601",
        "55464657044963196816950587289035428064568320970692304673817341489687522457603"
      ]
    },
    {
      "x": 352,
      "y": 325,
      "size": 1,
      "price": "4683000000000000000000",
      "reserved": "",
      "salt": "0x0b96765a5ae1f7e9abca2d30ab610297f340e3e3ea3094053f09f3a2aa9b36b6",
      "assetIds": [
        "55464657044963196816950587289035428064568320970692304673817341489687522457603",
        "55464657044963196816950587289035428064568320970692304673817341489687522457602"
      ]
    },
    {
      "x": 351,
      "y": 325,
      "size": 1,
      "price": "4683000000000000000000",
      "reserved": "",
      "salt": "0xee93bab241d6fbba0d19930af8ce862b6cfaccd85f37f2f14d916bacb51c6e9b",
      "assetIds": [
        "55464657044963196816950587289035428064568320970692304673817341489687522457602",
        "55464657044963196816950587289035428064568320970692304673817341489687522457604"
      ]
    },
    {
      "x": 351,
      "y": 326,
      "size": 1,
      "price": "4683000000000000000000",
      "reserved": "",
      "salt": "0xc81ff7cd739fa19158a2bef13620937a9528a9ebb6433ff25f168cceace4acff",
      "assetIds": [
        "55464657044963196816950587289035428064568320970692304673817341489687522457602",
        "55464657044963196816950587289035428064568320970692304673817341489687522457604"
      ]
    },
    {
      "x": 352,
      "y": 326,
      "size": 1,
      "price": "4683000000000000000000",
      "reserved": "",
      "salt": "0x00e9c37313d463cfc7259968682ceb80e46eb19d9f1a32835403c0537519753a",
      "assetIds": [
        "55464657044963196816950587289035428064568320970692304673817341489687522457602",
        "55464657044963196816950587289035428064568320970692304673817341489687522457604"
      ]
    },
    {
      "x": 353,
      "y": 326,
      "size": 1,
      "price": "4683000000000000000000",
      "reserved": "",
      "salt": "0xd1f8addb79dd1c4326e543d1833a6dc04a78de37bf216098787c19fbb10a7f53",
      "assetIds": [
        "55464657044963196816950587289035428064568320970692304673817341489687522457601",
        "55464657044963196816950587289035428064568320970692304673817341489687522457603"
      ]
    },
    {
      "x": 355,
      "y": 326,
      "size": 1,
      "price": "4683000000000000000000",
      "reserved": "",
      "salt": "0x7c7a86e1faf7547024902ddfd40711a057c8f52f31f8c0dd7b626895e0a01a78",
      "assetIds": [
        "55464657044963196816950587289035428064568320970692304673817341489687522457602",
        "55464657044963196816950587289035428064568320970692304673817341489687522457604"
      ]
    },
    {
      "x": 356,
      "y": 326,
      "size": 1,
      "price": "4683000000000000000000",
      "reserved": "",
      "salt": "0xe1802ddada6e25cd31b3b10daaae3aeed2187f81564f7ad7b43f68de1873990e",
      "assetIds": [
        "55464657044963196816950587289035428064568320970692304673817341489687522457602",
        "55464657044963196816950587289035428064568320970692304673817341489687522457604"
      ]
    },
    {
      "x": 357,
      "y": 325,
      "size": 1,
      "price": "4683000000000000000000",
      "reserved": "",
      "salt": "0x7190a8098a7712bd09f07b82153288b36a25abddaf2ee38fbe3a61b7c1e6c519",
      "assetIds": [
        "55464657044963196816950587289035428064568320970692304673817341489687522457605",
        "55464657044963196816950587289035428064568320970692304673817341489687522457601"
      ]
    },
    {
      "x": 358,
      "y": 325,
      "size": 1,
      "price": "4683000000000000000000",
      "reserved": "",
      "salt": "0xf2ea82792d912a11f49e5775c70285220ad507f5a0d867b5015c3147afdb297d",
      "assetIds": [
        "55464657044963196816950587289035428064568320970692304673817341489687522457601",
        "55464657044963196816950587289035428064568320970692304673817341489687522457603"
      ]
    },
    {
      "x": 350,
      "y": 337,
      "size": 1,
      "price": "4683000000000000000000",
      "reserved": "",
      "salt": "0x5945987e4c75ace60858f1bbeafb96e1c8804a055e6507302a9dfe4fe6119e02",
      "assetIds": [
        "55464657044963196816950587289035428064568320970692304673817341489687522457602",
        "55464657044963196816950587289035428064568320970692304673817341489687522457604"
      ]
    },
    {
      "x": 350,
      "y": 336,
      "size": 1,
      "price": "4683000000000000000000",
      "reserved": "",
      "salt": "0x35273a1183aecd6a5663e88eb5530b1faa8bc7fa03c107ae51985dcbe1f00f4a",
      "assetIds": [
        "55464657044963196816950587289035428064568320970692304673817341489687522457603",
        "55464657044963196816950587289035428064568320970692304673817341489687522457602"
      ]
    },
    {
      "x": 350,
      "y": 335,
      "size": 1,
      "price": "4683000000000000000000",
      "reserved": "",
      "salt": "0xb15bb7c13bca6fefb099cb0beeb690cf3df73870dfd43cc9f0fa84d218d6569b",
      "assetIds": [
        "55464657044963196816950587289035428064568320970692304673817341489687522457602",
        "55464657044963196816950587289035428064568320970692304673817341489687522457604"
      ]
    },
    {
      "x": 350,
      "y": 334,
      "size": 1,
      "price": "4683000000000000000000",
      "reserved": "",
      "salt": "0x19b0a2dc7b224fe660e6f337aa7f82b7d9ec118acf9dd34822bb7b0a76f537bf",
      "assetIds": [
        "55464657044963196816950587289035428064568320970692304673817341489687522457605",
        "55464657044963196816950587289035428064568320970692304673817341489687522457601"
      ]
    },
    {
      "x": 350,
      "y": 333,
      "size": 1,
      "price": "4683000000000000000000",
      "reserved": "",
      "salt": "0xf9d587fde55bd3f2cacac0c6b7119e38c736ab671c885a2ad3ac963167b1aefc",
      "assetIds": [
        "55464657044963196816950587289035428064568320970692304673817341489687522457602",
        "55464657044963196816950587289035428064568320970692304673817341489687522457604"
      ]
    },
    {
      "x": 351,
      "y": 333,
      "size": 1,
      "price": "4683000000000000000000",
      "reserved": "",
      "salt": "0x68bee8dd9cc7f6e4f1d2d393d059764f6ba5f56f68ab1258d857ec1653d8d3ab",
      "assetIds": [
        "55464657044963196816950587289035428064568320970692304673817341489687522457602",
        "55464657044963196816950587289035428064568320970692304673817341489687522457604"
      ]
    },
    {
      "x": 351,
      "y": 332,
      "size": 1,
      "price": "4683000000000000000000",
      "reserved": "",
      "salt": "0x4d736d116822ec2b9862ba458cd1683dec1a3a73d4587af29029bc27f953cd5d",
      "assetIds": [
        "55464657044963196816950587289035428064568320970692304673817341489687522457602",
        "55464657044963196816950587289035428064568320970692304673817341489687522457604"
      ]
    },
    {
      "x": 350,
      "y": 332,
      "size": 1,
      "price": "4683000000000000000000",
      "reserved": "",
      "salt": "0xfe0872e86bf06c0400ea9a7f7a2f02b0019017f9b971101d898af4f1a94c88fa",
      "assetIds": [
        "55464657044963196816950587289035428064568320970692304673817341489687522457602",
        "55464657044963196816950587289035428064568320970692304673817341489687522457604"
      ]
    },
    {
      "x": 351,
      "y": 331,
      "size": 1,
      "price": "4683000000000000000000",
      "reserved": "",
      "salt": "0xd2e33465bd07564ab60866277906f62d8f4fcc9f9bf92a852a15b9f78259314f",
      "assetIds": [
        "55464657044963196816950587289035428064568320970692304673817341489687522457603",
        "55464657044963196816950587289035428064568320970692304673817341489687522457602"
      ]
    },
    {
      "x": 352,
      "y": 331,
      "size": 1,
      "price": "4683000000000000000000",
      "reserved": "",
      "salt": "0x49a7e46117da659e40e12f61c54c2f61ca2fb2a7b164dfbd135fd34f3b804021",
      "assetIds": [
        "55464657044963196816950587289035428064568320970692304673817341489687522457605",
        "55464657044963196816950587289035428064568320970692304673817341489687522457601"
      ]
    },
    {
      "x": 353,
      "y": 331,
      "size": 1,
      "price": "4683000000000000000000",
      "reserved": "",
      "salt": "0xac09cc47bb48bff0037d42e7355e9de600e318c29bfbb6e117ec3014c80fe7cf",
      "assetIds": [
        "55464657044963196816950587289035428064568320970692304673817341489687522457602",
        "55464657044963196816950587289035428064568320970692304673817341489687522457604"
      ]
    },
    {
      "x": 353,
      "y": 330,
      "size": 1,
      "price": "4683000000000000000000",
      "reserved": "",
      "salt": "0xf0e1653ca0bcd9a73a973eaf2f9569f2462f752c88ec9c5a088716b67c550a25",
      "assetIds": [
        "55464657044963196816950587289035428064568320970692304673817341489687522457601",
        "55464657044963196816950587289035428064568320970692304673817341489687522457603"
      ]
    },
    {
      "x": 353,
      "y": 329,
      "size": 1,
      "price": "4683000000000000000000",
      "reserved": "",
      "salt": "0x3bbe070665b58311b61ea0b7e8255fecff4c0235808f8b2a68431c8461904ea1",
      "assetIds": [
        "55464657044963196816950587289035428064568320970692304673817341489687522457605",
        "55464657044963196816950587289035428064568320970692304673817341489687522457601"
      ]
    },
    {
      "x": 353,
      "y": 328,
      "size": 1,
      "price": "4683000000000000000000",
      "reserved": "",
      "salt": "0x683d72945ad9f6fa97db53c285dd8ad0beb62f97f34769cccedbd3efbe8bf6f4",
      "assetIds": [
        "55464657044963196816950587289035428064568320970692304673817341489687522457602",
        "55464657044963196816950587289035428064568320970692304673817341489687522457604"
      ]
    },
    {
      "x": 352,
      "y": 328,
      "size": 1,
      "price": "4683000000000000000000",
      "reserved": "",
      "salt": "0x53e50b3c42fdb60ac1c18536731fffd72c2555fb8b993c5cb6587c0cc4c0a92d",
      "assetIds": [
        "55464657044963196816950587289035428064568320970692304673817341489687522457602",
        "55464657044963196816950587289035428064568320970692304673817341489687522457604"
      ]
    },
    {
      "x": 351,
      "y": 328,
      "size": 1,
      "price": "4683000000000000000000",
      "reserved": "",
      "salt": "0xe2a3e369d3b58e78734e1907a18a850d3d2e3f465cf8215c2e4d641af4adf9ee",
      "assetIds": [
        "55464657044963196816950587289035428064568320970692304673817341489687522457602",
        "55464657044963196816950587289035428064568320970692304673817341489687522457604"
      ]
    },
    {
      "x": 351,
      "y": 329,
      "size": 1,
      "price": "4683000000000000000000",
      "reserved": "",
      "salt": "0xeebb49e4c54b8848bab4ef5758b0ad4d4a9c53ae3d4212d27bcb998c418907c9",
      "assetIds": [
        "55464657044963196816950587289035428064568320970692304673817341489687522457601",
        "55464657044963196816950587289035428064568320970692304673817341489687522457603"
      ]
    },
    {
      "x": 351,
      "y": 330,
      "size": 1,
      "price": "4683000000000000000000",
      "reserved": "",
      "salt": "0x61c4dd1b6edb5392f656eb9755d1333bbcc81fcbc07448b08fd5bc3212741f20",
      "assetIds": [
        "55464657044963196816950587289035428064568320970692304673817341489687522457603",
        "55464657044963196816950587289035428064568320970692304673817341489687522457602"
      ]
    },
    {
      "x": 352,
      "y": 330,
      "size": 1,
      "price": "4683000000000000000000",
      "reserved": "",
      "salt": "0x571d55459fe5ab2b1c8ae4f8b475639430dbb95195967de7cb1225e2debe56c2",
      "assetIds": [
        "55464657044963196816950587289035428064568320970692304673817341489687522457605",
        "55464657044963196816950587289035428064568320970692304673817341489687522457601"
      ]
    },
    {
      "x": 352,
      "y": 329,
      "size": 1,
      "price": "4683000000000000000000",
      "reserved": "",
      "salt": "0x3696ab4e7af7ea8657cf7c35aaef83cb0d1a636cd176fd6f25c8a518246fc821",
      "assetIds": [
        "55464657044963196816950587289035428064568320970692304673817341489687522457605",
        "55464657044963196816950587289035428064568320970692304673817341489687522457601"
      ]
    },
    {
      "x": 354,
      "y": 329,
      "size": 1,
      "price": "4683000000000000000000",
      "reserved": "",
      "salt": "0x2f812d642974ed1c72b3a7bb9d85a76e9e4c7a3e1f860c396c10b1a6371d68ac",
      "assetIds": [
        "55464657044963196816950587289035428064568320970692304673817341489687522457602",
        "55464657044963196816950587289035428064568320970692304673817341489687522457604"
      ]
    },
    {
      "x": 355,
      "y": 329,
      "size": 1,
      "price": "4683000000000000000000",
      "reserved": "",
      "salt": "0xf264a92dca51ed8157e6bf926c89483fee1775e1fedbd6eda7f362d874443b73",
      "assetIds": [
        "55464657044963196816950587289035428064568320970692304673817341489687522457603",
        "55464657044963196816950587289035428064568320970692304673817341489687522457602"
      ]
    },
    {
      "x": 356,
      "y": 329,
      "size": 1,
      "price": "4683000000000000000000",
      "reserved": "",
      "salt": "0xa2d26a0c9d6af107601c2c855c7410ee10bc518db12208b7c7bbd70c05c87b79",
      "assetIds": [
        "55464657044963196816950587289035428064568320970692304673817341489687522457602",
        "55464657044963196816950587289035428064568320970692304673817341489687522457604"
      ]
    },
    {
      "x": 357,
      "y": 329,
      "size": 1,
      "price": "4683000000000000000000",
      "reserved": "",
      "salt": "0xa2c47a9e1fe1c9dd6279d8f6c1fafa4d4625c9f736a5401f8ebc05947a34ba6a",
      "assetIds": [
        "55464657044963196816950587289035428064568320970692304673817341489687522457601",
        "55464657044963196816950587289035428064568320970692304673817341489687522457603"
      ]
    },
    {
      "x": 359,
      "y": 329,
      "size": 1,
      "price": "4683000000000000000000",
      "reserved": "",
      "salt": "0x1fea815af24a2686a3339f43bc40576d1dd525cee536c343558167fe30b320d5",
      "assetIds": [
        "55464657044963196816950587289035428064568320970692304673817341489687522457602",
        "55464657044963196816950587289035428064568320970692304673817341489687522457604"
      ]
    },
    {
      "x": 358,
      "y": 329,
      "size": 1,
      "price": "4683000000000000000000",
      "reserved": "",
      "salt": "0x1202dbac381f879f4bb36ba48d2028df72044f18571cc12f4ac9441baa37b84f",
      "assetIds": [
        "55464657044963196816950587289035428064568320970692304673817341489687522457602",
        "55464657044963196816950587289035428064568320970692304673817341489687522457604"
      ]
    },
    {
      "x": 355,
      "y": 328,
      "size": 1,
      "price": "4683000000000000000000",
      "reserved": "",
      "salt": "0x4520fc50271dbb0dba55b6ee1b039fe3aea591642de5f895caa8dbbc753447c6",
      "assetIds": [
        "55464657044963196816950587289035428064568320970692304673817341489687522457605",
        "55464657044963196816950587289035428064568320970692304673817341489687522457601"
      ]
    },
    {
      "x": 354,
      "y": 328,
      "size": 1,
      "price": "4683000000000000000000",
      "reserved": "",
      "salt": "0x3e2fd604ba532ca65b901abf8c18ffa5d88920e35db6b1969eaf0af51ca9a7d5",
      "assetIds": [
        "55464657044963196816950587289035428064568320970692304673817341489687522457603",
        "55464657044963196816950587289035428064568320970692304673817341489687522457602"
      ]
    },
    {
      "x": 356,
      "y": 328,
      "size": 1,
      "price": "4683000000000000000000",
      "reserved": "",
      "salt": "0xbbad1cc5ad38087339a809d9934b6472d1ded6dd752561da30dbb0ad39f73159",
      "assetIds": [
        "55464657044963196816950587289035428064568320970692304673817341489687522457603",
        "55464657044963196816950587289035428064568320970692304673817341489687522457602"
      ]
    },
    {
      "x": 357,
      "y": 328,
      "size": 1,
      "price": "4683000000000000000000",
      "reserved": "",
      "salt": "0x063ff8d3a69a8956e589728e465ced5256d55698e45efbd9434826ea7bcc5e5d",
      "assetIds": [
        "55464657044963196816950587289035428064568320970692304673817341489687522457601",
        "55464657044963196816950587289035428064568320970692304673817341489687522457603"
      ]
    },
    {
      "x": 358,
      "y": 328,
      "size": 1,
      "price": "4683000000000000000000",
      "reserved": "",
      "salt": "0x1d769c9fdd6b28ff28bd7ec33704ca8409c146abcd157ec56576bc521263572d",
      "assetIds": [
        "55464657044963196816950587289035428064568320970692304673817341489687522457601",
        "55464657044963196816950587289035428064568320970692304673817341489687522457603"
      ]
    },
    {
      "x": 359,
      "y": 328,
      "size": 1,
      "price": "4683000000000000000000",
      "reserved": "",
      "salt": "0xd8a9cf0d0ebf3c31c6589b2065fa10fcd9f1bc10677e347f9a8c282c347c0a54",
      "assetIds": [
        "55464657044963196816950587289035428064568320970692304673817341489687522457602",
        "55464657044963196816950587289035428064568320970692304673817341489687522457604"
      ]
    },
    {
      "x": 353,
      "y": 332,
      "size": 1,
      "price": "4683000000000000000000",
      "reserved": "",
      "salt": "0x383e877260ff8265c93f41426e0c0f7a77599f2cde680438edca632f8af87d41",
      "assetIds": [
        "55464657044963196816950587289035428064568320970692304673817341489687522457602",
        "55464657044963196816950587289035428064568320970692304673817341489687522457604"
      ]
    },
    {
      "x": 352,
      "y": 333,
      "size": 1,
      "price": "4683000000000000000000",
      "reserved": "",
      "salt": "0x0f88df301ab1610193d69fcc111f85b9e814ecf39838cd2a5ead4ef534729266",
      "assetIds": [
        "55464657044963196816950587289035428064568320970692304673817341489687522457601",
        "55464657044963196816950587289035428064568320970692304673817341489687522457603"
      ]
    },
    {
      "x": 351,
      "y": 334,
      "size": 1,
      "price": "4683000000000000000000",
      "reserved": "",
      "salt": "0xfa34cedf9ec8df4017c3fcda7fb5769a624da75d5156af8c02fda4567ef04130",
      "assetIds": [
        "55464657044963196816950587289035428064568320970692304673817341489687522457603",
        "55464657044963196816950587289035428064568320970692304673817341489687522457602"
      ]
    },
    {
      "x": 351,
      "y": 335,
      "size": 1,
      "price": "4683000000000000000000",
      "reserved": "",
      "salt": "0x56a314afc25b9edbe805cc041572e162285144c2773ed43d6091d8c91c6b7acd",
      "assetIds": [
        "55464657044963196816950587289035428064568320970692304673817341489687522457605",
        "55464657044963196816950587289035428064568320970692304673817341489687522457601"
      ]
    },
    {
      "x": 352,
      "y": 335,
      "size": 1,
      "price": "4683000000000000000000",
      "reserved": "",
      "salt": "0xcf1007a7535c8f9abf5c92a16983f7ad57aa603bb0aa256d29afc74a6391fb70",
      "assetIds": [
        "55464657044963196816950587289035428064568320970692304673817341489687522457603",
        "55464657044963196816950587289035428064568320970692304673817341489687522457602"
      ]
    },
    {
      "x": 352,
      "y": 336,
      "size": 1,
      "price": "4683000000000000000000",
      "reserved": "",
      "salt": "0x05e57d744828e8d15872e8a272d8d0c6270eab530d0855587cba37b7fa41f74d",
      "assetIds": [
        "55464657044963196816950587289035428064568320970692304673817341489687522457602",
        "55464657044963196816950587289035428064568320970692304673817341489687522457604"
      ]
    },
    {
      "x": 352,
      "y": 337,
      "size": 1,
      "price": "4683000000000000000000",
      "reserved": "",
      "salt": "0x65a0148188cf5f31fca7d0d3a4301bd16988ff170505e5da6cfae28948b20bbc",
      "assetIds": [
        "55464657044963196816950587289035428064568320970692304673817341489687522457603",
        "55464657044963196816950587289035428064568320970692304673817341489687522457602"
      ]
    },
    {
      "x": 352,
      "y": 338,
      "size": 1,
      "price": "4683000000000000000000",
      "reserved": "",
      "salt": "0xd3dc83355556d6c047d09ce121c2df80764bfb056dd81bda463f53eddb1b7aea",
      "assetIds": [
        "55464657044963196816950587289035428064568320970692304673817341489687522457605",
        "55464657044963196816950587289035428064568320970692304673817341489687522457601"
      ]
    },
    {
      "x": 351,
      "y": 338,
      "size": 1,
      "price": "4683000000000000000000",
      "reserved": "",
      "salt": "0x80c33d2fac7cfda61e0384c066dfc8f9afa9fda5d3a27d969874884ebcc9aefb",
      "assetIds": [
        "55464657044963196816950587289035428064568320970692304673817341489687522457602",
        "55464657044963196816950587289035428064568320970692304673817341489687522457604"
      ]
    },
    {
      "x": 353,
      "y": 338,
      "size": 1,
      "price": "4683000000000000000000",
      "reserved": "",
      "salt": "0x52bbf540ed12d1bf13d2e853bd59a85a6650e6248bfd2e6733a2d08bdb58a003",
      "assetIds": [
        "55464657044963196816950587289035428064568320970692304673817341489687522457601",
        "55464657044963196816950587289035428064568320970692304673817341489687522457603"
      ]
    },
    {
      "x": 354,
      "y": 338,
      "size": 1,
      "price": "4683000000000000000000",
      "reserved": "",
      "salt": "0x0290305d05a8e1d58362ca890f3f16831ab1bbfa6b3c45fef8fa920af40c5f8f",
      "assetIds": [
        "55464657044963196816950587289035428064568320970692304673817341489687522457602",
        "55464657044963196816950587289035428064568320970692304673817341489687522457604"
      ]
    },
    {
      "x": 355,
      "y": 338,
      "size": 1,
      "price": "4683000000000000000000",
      "reserved": "",
      "salt": "0x77c66cd0e7cb0622c9144a99916df268a8acb68e603dc68364176bdc8e40ffc2",
      "assetIds": [
        "55464657044963196816950587289035428064568320970692304673817341489687522457601",
        "55464657044963196816950587289035428064568320970692304673817341489687522457603"
      ]
    },
    {
      "x": 356,
      "y": 338,
      "size": 1,
      "price": "4683000000000000000000",
      "reserved": "",
      "salt": "0x349fdd0aafef0120417d16a4e80b1b3a68ffb12f73b4313027ed3b16b0787c66",
      "assetIds": [
        "55464657044963196816950587289035428064568320970692304673817341489687522457602",
        "55464657044963196816950587289035428064568320970692304673817341489687522457604"
      ]
    },
    {
      "x": 357,
      "y": 338,
      "size": 1,
      "price": "4683000000000000000000",
      "reserved": "",
      "salt": "0x84316b8e89ac0d4698f2a0303c4efa946d2200f56aa2ec61fcaeba96529b7e50",
      "assetIds": [
        "55464657044963196816950587289035428064568320970692304673817341489687522457603",
        "55464657044963196816950587289035428064568320970692304673817341489687522457602"
      ]
    },
    {
      "x": 358,
      "y": 338,
      "size": 1,
      "price": "4683000000000000000000",
      "reserved": "",
      "salt": "0xd34aac1cbaa132a09ef3de1eba2a8d2164e8f55a1de96d2f75ebd13077828fa6",
      "assetIds": [
        "55464657044963196816950587289035428064568320970692304673817341489687522457605",
        "55464657044963196816950587289035428064568320970692304673817341489687522457601"
      ]
    },
    {
      "x": 359,
      "y": 338,
      "size": 1,
      "price": "4683000000000000000000",
      "reserved": "",
      "salt": "0x6f931e0971b51fab7e85b35cb4ce0770c62c3243ff14c4f6523cd80b513d7f81",
      "assetIds": [
        "55464657044963196816950587289035428064568320970692304673817341489687522457602",
        "55464657044963196816950587289035428064568320970692304673817341489687522457604"
      ]
    },
    {
      "x": 359,
      "y": 337,
      "size": 1,
      "price": "4683000000000000000000",
      "reserved": "",
      "salt": "0x048ec9ed62db67afce675363961d6f2d487e400385e4129106fc2fe58ee9025b",
      "assetIds": [
        "55464657044963196816950587289035428064568320970692304673817341489687522457601",
        "55464657044963196816950587289035428064568320970692304673817341489687522457603"
      ]
    },
    {
      "x": 359,
      "y": 336,
      "size": 1,
      "price": "4683000000000000000000",
      "reserved": "",
      "salt": "0xc2828a42366990c2b6fceaa04df78823eeb2ed3224f211b262d37b52077c237b",
      "assetIds": [
        "55464657044963196816950587289035428064568320970692304673817341489687522457602",
        "55464657044963196816950587289035428064568320970692304673817341489687522457604"
      ]
    },
    {
      "x": 358,
      "y": 336,
      "size": 1,
      "price": "4683000000000000000000",
      "reserved": "",
      "salt": "0x70c45dc8df868154fb5d2f5bea9d4e514d7a1767dc5826de7b4c56f9bba96a8b",
      "assetIds": [
        "55464657044963196816950587289035428064568320970692304673817341489687522457601",
        "55464657044963196816950587289035428064568320970692304673817341489687522457603"
      ]
    },
    {
      "x": 357,
      "y": 336,
      "size": 1,
      "price": "4683000000000000000000",
      "reserved": "",
      "salt": "0xbdcd0aae95c16762f9f023384e21886309711caa720d3b47e2ac1941d08a3bf7",
      "assetIds": [
        "55464657044963196816950587289035428064568320970692304673817341489687522457601",
        "55464657044963196816950587289035428064568320970692304673817341489687522457603"
      ]
    },
    {
      "x": 356,
      "y": 336,
      "size": 1,
      "price": "4683000000000000000000",
      "reserved": "",
      "salt": "0x666d5c89330b0efcf26713735578c035d4d69c7f70e076b8b5d6c7e937683c93",
      "assetIds": [
        "55464657044963196816950587289035428064568320970692304673817341489687522457601",
        "55464657044963196816950587289035428064568320970692304673817341489687522457603"
      ]
    },
    {
      "x": 355,
      "y": 336,
      "size": 1,
      "price": "4683000000000000000000",
      "reserved": "",
      "salt": "0x72c4f88308a90b4350f1b5d4588a382cd0a6b9ad687189d47a9a1a2f9b4863cc",
      "assetIds": [
        "55464657044963196816950587289035428064568320970692304673817341489687522457602",
        "55464657044963196816950587289035428064568320970692304673817341489687522457604"
      ]
    },
    {
      "x": 354,
      "y": 336,
      "size": 1,
      "price": "4683000000000000000000",
      "reserved": "",
      "salt": "0x7a2ab27ef4578605d954897622e172883f1567e00a2119be153e502304f16db4",
      "assetIds": [
        "55464657044963196816950587289035428064568320970692304673817341489687522457605",
        "55464657044963196816950587289035428064568320970692304673817341489687522457601"
      ]
    },
    {
      "x": 353,
      "y": 336,
      "size": 1,
      "price": "4683000000000000000000",
      "reserved": "",
      "salt": "0x9c085e77fb1d434c79c084ee75ba7927950c1a30e6ae46f684ebcb6b20dc031a",
      "assetIds": [
        "55464657044963196816950587289035428064568320970692304673817341489687522457602",
        "55464657044963196816950587289035428064568320970692304673817341489687522457604"
      ]
    },
    {
      "x": 352,
      "y": 334,
      "size": 1,
      "price": "4683000000000000000000",
      "reserved": "",
      "salt": "0xa617b0c8b4807f236744ead26c7a20140b04eb937f3db449a66f59da331fe4fe",
      "assetIds": [
        "55464657044963196816950587289035428064568320970692304673817341489687522457602",
        "55464657044963196816950587289035428064568320970692304673817341489687522457604"
      ]
    },
    {
      "x": 352,
      "y": 332,
      "size": 1,
      "price": "4683000000000000000000",
      "reserved": "",
      "salt": "0x256f432a9ba90b73cac7cd12966998bcbe2d710b157d1ce0e2aa93577f1ddfa0",
      "assetIds": [
        "55464657044963196816950587289035428064568320970692304673817341489687522457605",
        "55464657044963196816950587289035428064568320970692304673817341489687522457601"
      ]
    },
    {
      "x": 351,
      "y": 336,
      "size": 1,
      "price": "4683000000000000000000",
      "reserved": "",
      "salt": "0xe8e49452ae385474876e4bfce6e99a4bd1698e307e89e26f4336e56c7bf41c6d",
      "assetIds": [
        "55464657044963196816950587289035428064568320970692304673817341489687522457605",
        "55464657044963196816950587289035428064568320970692304673817341489687522457601"
      ]
    },
    {
      "x": 353,
      "y": 337,
      "size": 1,
      "price": "4683000000000000000000",
      "reserved": "",
      "salt": "0x32d6244acc20ce6d96a422c986505d972ed1dd75cd3031d2460cd967ad099de3",
      "assetIds": [
        "55464657044963196816950587289035428064568320970692304673817341489687522457601",
        "55464657044963196816950587289035428064568320970692304673817341489687522457603"
      ]
    },
    {
      "x": 354,
      "y": 337,
      "size": 1,
      "price": "4683000000000000000000",
      "reserved": "",
      "salt": "0xb865742453fd633cf610eaafc6a04e9d60cf8c4cb5a09c3ed33e5dd138b3b931",
      "assetIds": [
        "55464657044963196816950587289035428064568320970692304673817341489687522457605",
        "55464657044963196816950587289035428064568320970692304673817341489687522457601"
      ]
    },
    {
      "x": 355,
      "y": 337,
      "size": 1,
      "price": "4683000000000000000000",
      "reserved": "",
      "salt": "0x85759f919d4de98ecb31c0598d747717748b0cc0bef97f44073605bed72f08cb",
      "assetIds": [
        "55464657044963196816950587289035428064568320970692304673817341489687522457602",
        "55464657044963196816950587289035428064568320970692304673817341489687522457604"
      ]
    },
    {
      "x": 356,
      "y": 337,
      "size": 1,
      "price": "4683000000000000000000",
      "reserved": "",
      "salt": "0xe73e1dff4dd86c0da0da8a25669ae540eeb54638d01f46759b829deb71ef38a3",
      "assetIds": [
        "55464657044963196816950587289035428064568320970692304673817341489687522457601",
        "55464657044963196816950587289035428064568320970692304673817341489687522457603"
      ]
    },
    {
      "x": 357,
      "y": 337,
      "size": 1,
      "price": "4683000000000000000000",
      "reserved": "",
      "salt": "0x6d17523d0893a4bfe628eebeef5e06d32e417dafd3a1902485fa7422ce7cc290",
      "assetIds": [
        "55464657044963196816950587289035428064568320970692304673817341489687522457605",
        "55464657044963196816950587289035428064568320970692304673817341489687522457601"
      ]
    },
    {
      "x": 358,
      "y": 337,
      "size": 1,
      "price": "4683000000000000000000",
      "reserved": "",
      "salt": "0x3ea970adc3b2071dba64dfd61bd94d140a8e0a51d73167c66bc417db1d0f8cca",
      "assetIds": [
        "55464657044963196816950587289035428064568320970692304673817341489687522457603",
        "55464657044963196816950587289035428064568320970692304673817341489687522457602"
      ]
    },
    {
      "x": 396,
      "y": 359,
      "size": 1,
      "price": "4683000000000000000000",
      "reserved": "",
      "salt": "0x950a9438db4b74ee97b8b55f8304035c1eb7595acf173299ccb6d1fbf7869931",
      "assetIds": [
        "55464657044963196816950587289035428064568320970692304673817341489687522457605",
        "55464657044963196816950587289035428064568320970692304673817341489687522457601"
      ]
    },
    {
      "x": 397,
      "y": 359,
      "size": 1,
      "price": "4683000000000000000000",
      "reserved": "",
      "salt": "0x0d4bb98d26617f8d57ea2bd788af3fce69ac44b4676657705ca30903361bc23f",
      "assetIds": [
        "55464657044963196816950587289035428064568320970692304673817341489687522457605",
        "55464657044963196816950587289035428064568320970692304673817341489687522457601"
      ]
    },
    {
      "x": 397,
      "y": 358,
      "size": 1,
      "price": "4683000000000000000000",
      "reserved": "",
      "salt": "0x641b4eaec94382eca97b6c5af785a986b5db907917d185b8f09a1fd13a5f67aa",
      "assetIds": [
        "55464657044963196816950587289035428064568320970692304673817341489687522457602",
        "55464657044963196816950587289035428064568320970692304673817341489687522457604"
      ]
    },
    {
      "x": 397,
      "y": 357,
      "size": 1,
      "price": "4683000000000000000000",
      "reserved": "",
      "salt": "0x4420e98192732ec3a20bbfbfa64cab52371d1705dc8cab0de8fb7d3cc50e0163",
      "assetIds": [
        "55464657044963196816950587289035428064568320970692304673817341489687522457601",
        "55464657044963196816950587289035428064568320970692304673817341489687522457603"
      ]
    },
    {
      "x": 397,
      "y": 356,
      "size": 1,
      "price": "4683000000000000000000",
      "reserved": "",
      "salt": "0xb3b577fd7891b60e5f5662c3d9626c00e38e19fbaca6442295efc74e01204b10",
      "assetIds": [
        "55464657044963196816950587289035428064568320970692304673817341489687522457601",
        "55464657044963196816950587289035428064568320970692304673817341489687522457603"
      ]
    },
    {
      "x": 396,
      "y": 358,
      "size": 1,
      "price": "4683000000000000000000",
      "reserved": "",
      "salt": "0xc7e6d19bbe2508d3bd1e2c7f1e00b773ad072c1b801e2d7cc26ad5aad555e929",
      "assetIds": [
        "55464657044963196816950587289035428064568320970692304673817341489687522457602",
        "55464657044963196816950587289035428064568320970692304673817341489687522457604"
      ]
    },
    {
      "x": 396,
      "y": 357,
      "size": 1,
      "price": "4683000000000000000000",
      "reserved": "",
      "salt": "0x6ff862073edcb53517beeb179c60f2707f6b579b3951a975af07034c8dc44533",
      "assetIds": [
        "55464657044963196816950587289035428064568320970692304673817341489687522457605",
        "55464657044963196816950587289035428064568320970692304673817341489687522457601"
      ]
    },
    {
      "x": 396,
      "y": 356,
      "size": 1,
      "price": "4683000000000000000000",
      "reserved": "",
      "salt": "0x2cdfa809e92fbfd66fcd93235db990daf40f4dd6d90a66470596bd5ee3ebeea1",
      "assetIds": [
        "55464657044963196816950587289035428064568320970692304673817341489687522457601",
        "55464657044963196816950587289035428064568320970692304673817341489687522457603"
      ]
    },
    {
      "x": 396,
      "y": 355,
      "size": 1,
      "price": "4683000000000000000000",
      "reserved": "",
      "salt": "0x631f4f5c263dced45f29c14624a1e71c07989bf1c78db8c4f13a327d6afd8cd9",
      "assetIds": [
        "55464657044963196816950587289035428064568320970692304673817341489687522457601",
        "55464657044963196816950587289035428064568320970692304673817341489687522457603"
      ]
    },
    {
      "x": 396,
      "y": 354,
      "size": 1,
      "price": "4683000000000000000000",
      "reserved": "",
      "salt": "0xba107fae91e76986ff91089d9e59ecde544060274c6d63c15ca48922be8c286e",
      "assetIds": [
        "55464657044963196816950587289035428064568320970692304673817341489687522457605",
        "55464657044963196816950587289035428064568320970692304673817341489687522457601"
      ]
    },
    {
      "x": 396,
      "y": 353,
      "size": 1,
      "price": "4683000000000000000000",
      "reserved": "",
      "salt": "0x7663de26f72acb36777dd88e3623f82b0170fe2df622ab60c9819e1352ed4f76",
      "assetIds": [
        "55464657044963196816950587289035428064568320970692304673817341489687522457603",
        "55464657044963196816950587289035428064568320970692304673817341489687522457602"
      ]
    },
    {
      "x": 396,
      "y": 352,
      "size": 1,
      "price": "4683000000000000000000",
      "reserved": "",
      "salt": "0x0d883a13376c31de9b5fcdfe826268b4495501707d3538603418c60f3c071ab7",
      "assetIds": [
        "55464657044963196816950587289035428064568320970692304673817341489687522457602",
        "55464657044963196816950587289035428064568320970692304673817341489687522457604"
      ]
    },
    {
      "x": 396,
      "y": 351,
      "size": 1,
      "price": "4683000000000000000000",
      "reserved": "",
      "salt": "0x82be062d0ebc1fff281f2a7dba4a4db2b22350f8257a7ded9b90a20e89c86310",
      "assetIds": [
        "55464657044963196816950587289035428064568320970692304673817341489687522457601",
        "55464657044963196816950587289035428064568320970692304673817341489687522457603"
      ]
    },
    {
      "x": 396,
      "y": 350,
      "size": 1,
      "price": "4683000000000000000000",
      "reserved": "",
      "salt": "0x37f295838a88eb05f250a5ffda40f3e6249c7abb3aee46cfcf7f9706fae40bac",
      "assetIds": [
        "55464657044963196816950587289035428064568320970692304673817341489687522457603",
        "55464657044963196816950587289035428064568320970692304673817341489687522457602"
      ]
    },
    {
      "x": 396,
      "y": 349,
      "size": 1,
      "price": "4683000000000000000000",
      "reserved": "",
      "salt": "0x91c5fe0b07ab770a06f7662c6be46fb4a44d7485233b43256de445b632ecfcdd",
      "assetIds": [
        "55464657044963196816950587289035428064568320970692304673817341489687522457601",
        "55464657044963196816950587289035428064568320970692304673817341489687522457603"
      ]
    },
    {
      "x": 396,
      "y": 348,
      "size": 1,
      "price": "4683000000000000000000",
      "reserved": "",
      "salt": "0x8b1eb5bcdd926f0a9dbffdd7ea57a9598d274a6e342383e0fa4af0ab9ca9a70f",
      "assetIds": [
        "55464657044963196816950587289035428064568320970692304673817341489687522457605",
        "55464657044963196816950587289035428064568320970692304673817341489687522457601"
      ]
    },
    {
      "x": 398,
      "y": 356,
      "size": 1,
      "price": "4683000000000000000000",
      "reserved": "",
      "salt": "0x7486889c1dcd5a07e2002cccddb3aa2ed932343c28e61bae061c0606908238a0",
      "assetIds": [
        "55464657044963196816950587289035428064568320970692304673817341489687522457601",
        "55464657044963196816950587289035428064568320970692304673817341489687522457603"
      ]
    },
    {
      "x": 399,
      "y": 356,
      "size": 1,
      "price": "4683000000000000000000",
      "reserved": "",
      "salt": "0xc103424f417cdfd0c9f155a519aaa1e61fe97fdb925489711351cb18b2597584",
      "assetIds": [
        "55464657044963196816950587289035428064568320970692304673817341489687522457602",
        "55464657044963196816950587289035428064568320970692304673817341489687522457604"
      ]
    },
    {
      "x": 400,
      "y": 356,
      "size": 1,
      "price": "4683000000000000000000",
      "reserved": "",
      "salt": "0x8114867d8ec9b41df61482c498a6e857107d2fec70961e7321ee27f4616f0a0e",
      "assetIds": [
        "55464657044963196816950587289035428064568320970692304673817341489687522457603",
        "55464657044963196816950587289035428064568320970692304673817341489687522457602"
      ]
    },
    {
      "x": 401,
      "y": 356,
      "size": 1,
      "price": "4683000000000000000000",
      "reserved": "",
      "salt": "0x52a0d6b395614d0b1e12152f5188373f9567407ea0fa13f0cf491d9308232b9a",
      "assetIds": [
        "55464657044963196816950587289035428064568320970692304673817341489687522457601",
        "55464657044963196816950587289035428064568320970692304673817341489687522457603"
      ]
    },
    {
      "x": 401,
      "y": 355,
      "size": 1,
      "price": "4683000000000000000000",
      "reserved": "",
      "salt": "0x70357f138f82f893801c1febd4611ac853ff7f39e389d907e757006a82dc3195",
      "assetIds": [
        "55464657044963196816950587289035428064568320970692304673817341489687522457601",
        "55464657044963196816950587289035428064568320970692304673817341489687522457603"
      ]
    },
    {
      "x": 401,
      "y": 354,
      "size": 1,
      "price": "4683000000000000000000",
      "reserved": "",
      "salt": "0xf94ff1288a81e1ed8f32bdb8c94b7cdf2cee3ce1ea1a9fa31f5c9f409c6509a2",
      "assetIds": [
        "55464657044963196816950587289035428064568320970692304673817341489687522457601",
        "55464657044963196816950587289035428064568320970692304673817341489687522457603"
      ]
    },
    {
      "x": 401,
      "y": 353,
      "size": 1,
      "price": "4683000000000000000000",
      "reserved": "",
      "salt": "0x914c513fea2c6702b1fda690cced71e6d766f7b11876fc188d792b16d703b065",
      "assetIds": [
        "55464657044963196816950587289035428064568320970692304673817341489687522457601",
        "55464657044963196816950587289035428064568320970692304673817341489687522457603"
      ]
    },
    {
      "x": 401,
      "y": 352,
      "size": 1,
      "price": "4683000000000000000000",
      "reserved": "",
      "salt": "0xfcf296ad28c35b23be822ae6ccab1c1994b9bf29de2b88d7c1817cb236f9f8f7",
      "assetIds": [
        "55464657044963196816950587289035428064568320970692304673817341489687522457605",
        "55464657044963196816950587289035428064568320970692304673817341489687522457601"
      ]
    },
    {
      "x": 401,
      "y": 351,
      "size": 1,
      "price": "4683000000000000000000",
      "reserved": "",
      "salt": "0x9bf4fbeb3d01af4fca5560b04d5bb4efd35d19165eea8bcb3f8ac07a091559b4",
      "assetIds": [
        "55464657044963196816950587289035428064568320970692304673817341489687522457603",
        "55464657044963196816950587289035428064568320970692304673817341489687522457602"
      ]
    },
    {
      "x": 401,
      "y": 350,
      "size": 1,
      "price": "4683000000000000000000",
      "reserved": "",
      "salt": "0x98f30e40906fc0512be89b7d071045175e9f8b2cace68248a21af32b1828fb73",
      "assetIds": [
        "55464657044963196816950587289035428064568320970692304673817341489687522457605",
        "55464657044963196816950587289035428064568320970692304673817341489687522457601"
      ]
    },
    {
      "x": 402,
      "y": 353,
      "size": 1,
      "price": "4683000000000000000000",
      "reserved": "",
      "salt": "0x265d6d4e9469d1cbd9f59f8c7363834901f7c93e41ca22cc15c73d1133f16e48",
      "assetIds": [
        "55464657044963196816950587289035428064568320970692304673817341489687522457603",
        "55464657044963196816950587289035428064568320970692304673817341489687522457602"
      ]
    },
    {
      "x": 403,
      "y": 353,
      "size": 1,
      "price": "4683000000000000000000",
      "reserved": "",
      "salt": "0x9009d3bd4eae2041c149618a22da4485cc07dc7de5cc74052507c48731425639",
      "assetIds": [
        "55464657044963196816950587289035428064568320970692304673817341489687522457601",
        "55464657044963196816950587289035428064568320970692304673817341489687522457603"
      ]
    },
    {
      "x": 404,
      "y": 353,
      "size": 1,
      "price": "4683000000000000000000",
      "reserved": "",
      "salt": "0xb4a0934b967e19307f128c1d0106afe462182995645856d4cd4d73e8e54dbfa5",
      "assetIds": [
        "55464657044963196816950587289035428064568320970692304673817341489687522457601",
        "55464657044963196816950587289035428064568320970692304673817341489687522457603"
      ]
    },
    {
      "x": 405,
      "y": 353,
      "size": 1,
      "price": "4683000000000000000000",
      "reserved": "",
      "salt": "0x18b8b84c6bf7183b665f4050980797762ef6ac65dd0fbcd26045f3d66a635ac1",
      "assetIds": [
        "55464657044963196816950587289035428064568320970692304673817341489687522457605",
        "55464657044963196816950587289035428064568320970692304673817341489687522457601"
      ]
    },
    {
      "x": 406,
      "y": 353,
      "size": 1,
      "price": "4683000000000000000000",
      "reserved": "",
      "salt": "0xfd890b0054ebf0f6f65fc70f16da2294b340ec1dcdb981ab4bd33f70fc7d7e91",
      "assetIds": [
        "55464657044963196816950587289035428064568320970692304673817341489687522457602",
        "55464657044963196816950587289035428064568320970692304673817341489687522457604"
      ]
    },
    {
      "x": 407,
      "y": 353,
      "size": 1,
      "price": "4683000000000000000000",
      "reserved": "",
      "salt": "0x01aadabe5f9b7c0c812d8e64c95ef62c794dd2ef94e3c2e896edd3043c038506",
      "assetIds": [
        "55464657044963196816950587289035428064568320970692304673817341489687522457602",
        "55464657044963196816950587289035428064568320970692304673817341489687522457604"
      ]
    },
    {
      "x": 407,
      "y": 352,
      "size": 1,
      "price": "4683000000000000000000",
      "reserved": "",
      "salt": "0x36c0d8ca1b08cfc50549fd73717d24077621949cc544e638f7af73381f6ba974",
      "assetIds": [
        "55464657044963196816950587289035428064568320970692304673817341489687522457603",
        "55464657044963196816950587289035428064568320970692304673817341489687522457602"
      ]
    },
    {
      "x": 407,
      "y": 351,
      "size": 1,
      "price": "4683000000000000000000",
      "reserved": "",
      "salt": "0xf2b43f94443b057de70c7c5b0a5870f882ff334c208f0af72d29f73ae1c16e64",
      "assetIds": [
        "55464657044963196816950587289035428064568320970692304673817341489687522457603",
        "55464657044963196816950587289035428064568320970692304673817341489687522457602"
      ]
    },
    {
      "x": 407,
      "y": 350,
      "size": 1,
      "price": "4683000000000000000000",
      "reserved": "",
      "salt": "0x25e512091734f668df7516ef24dc24f21cf84add68da0362a6b0c8083b805cd7",
      "assetIds": [
        "55464657044963196816950587289035428064568320970692304673817341489687522457605",
        "55464657044963196816950587289035428064568320970692304673817341489687522457601"
      ]
    },
    {
      "x": 407,
      "y": 349,
      "size": 1,
      "price": "4683000000000000000000",
      "reserved": "",
      "salt": "0x9c5ef5ed1b62ae5b3aae4cbe76acb7ca2ce6e42e82062343fa67446353ee4703",
      "assetIds": [
        "55464657044963196816950587289035428064568320970692304673817341489687522457602",
        "55464657044963196816950587289035428064568320970692304673817341489687522457604"
      ]
    },
    {
      "x": 406,
      "y": 349,
      "size": 1,
      "price": "4683000000000000000000",
      "reserved": "",
      "salt": "0x21b2192de6630824f7c6b4cd10eb9eb30a0c3de128cf63a730a8eb3646aa836d",
      "assetIds": [
        "55464657044963196816950587289035428064568320970692304673817341489687522457601",
        "55464657044963196816950587289035428064568320970692304673817341489687522457603"
      ]
    },
    {
      "x": 405,
      "y": 349,
      "size": 1,
      "price": "4683000000000000000000",
      "reserved": "",
      "salt": "0xaf4d19e1cbf016b5df68590961b7462932c8e930fcdb37b2498b259b6633256f",
      "assetIds": [
        "55464657044963196816950587289035428064568320970692304673817341489687522457602",
        "55464657044963196816950587289035428064568320970692304673817341489687522457604"
      ]
    },
    {
      "x": 405,
      "y": 348,
      "size": 1,
      "price": "4683000000000000000000",
      "reserved": "",
      "salt": "0xe624508b4829c7a9b648f916b5d293edb0a099995ba29ced6c71bfd502c85799",
      "assetIds": [
        "55464657044963196816950587289035428064568320970692304673817341489687522457601",
        "55464657044963196816950587289035428064568320970692304673817341489687522457603"
      ]
    },
    {
      "x": 404,
      "y": 348,
      "size": 1,
      "price": "4683000000000000000000",
      "reserved": "",
      "salt": "0x6f9ccb115eeba502d4e94e9b4da5c4931378a9fa11de5be640a0651bddf38560",
      "assetIds": [
        "55464657044963196816950587289035428064568320970692304673817341489687522457605",
        "55464657044963196816950587289035428064568320970692304673817341489687522457601"
      ]
    },
    {
      "x": 403,
      "y": 348,
      "size": 1,
      "price": "4683000000000000000000",
      "reserved": "",
      "salt": "0x90fd1b278e93e4704aa227da432eddb8b2c88ddd184cf97acdaf27f7a4e6cd20",
      "assetIds": [
        "55464657044963196816950587289035428064568320970692304673817341489687522457603",
        "55464657044963196816950587289035428064568320970692304673817341489687522457602"
      ]
    },
    {
      "x": 402,
      "y": 348,
      "size": 1,
      "price": "4683000000000000000000",
      "reserved": "",
      "salt": "0x9c7b0214e710b46c222dad3adfd24edaca00ad51ffb58fd2790bcb2118025678",
      "assetIds": [
        "55464657044963196816950587289035428064568320970692304673817341489687522457602",
        "55464657044963196816950587289035428064568320970692304673817341489687522457604"
      ]
    },
    {
      "x": 401,
      "y": 348,
      "size": 1,
      "price": "4683000000000000000000",
      "reserved": "",
      "salt": "0xc01c5d8723915ef14966bd5c31a7520486b17a2bbe852197ded5324cc3e8f91c",
      "assetIds": [
        "55464657044963196816950587289035428064568320970692304673817341489687522457605",
        "55464657044963196816950587289035428064568320970692304673817341489687522457601"
      ]
    },
    {
      "x": 400,
      "y": 348,
      "size": 1,
      "price": "4683000000000000000000",
      "reserved": "",
      "salt": "0xe45d4de5374a0f52de03e77688470d08f45e3cce8ef0bfdba26ad414f313271d",
      "assetIds": [
        "55464657044963196816950587289035428064568320970692304673817341489687522457602",
        "55464657044963196816950587289035428064568320970692304673817341489687522457604"
      ]
    },
    {
      "x": 399,
      "y": 348,
      "size": 1,
      "price": "4683000000000000000000",
      "reserved": "",
      "salt": "0x0c8e911e248a0a9767a58683670469194865e64830d29d7c91234fca16d9d14c",
      "assetIds": [
        "55464657044963196816950587289035428064568320970692304673817341489687522457602",
        "55464657044963196816950587289035428064568320970692304673817341489687522457604"
      ]
    },
    {
      "x": 398,
      "y": 348,
      "size": 1,
      "price": "4683000000000000000000",
      "reserved": "",
      "salt": "0xe1db88151f8aec0e20bac2dd509924c20c9f6cd9444d57f87b47d2b6b46e28c6",
      "assetIds": [
        "55464657044963196816950587289035428064568320970692304673817341489687522457602",
        "55464657044963196816950587289035428064568320970692304673817341489687522457604"
      ]
    },
    {
      "x": 406,
      "y": 348,
      "size": 1,
      "price": "4683000000000000000000",
      "reserved": "",
      "salt": "0x8d42783e047a1b5e4ed1877e03e968726b8cef0407b6e03c867da937912ad877",
      "assetIds": [
        "55464657044963196816950587289035428064568320970692304673817341489687522457602",
        "55464657044963196816950587289035428064568320970692304673817341489687522457604"
      ]
    },
    {
      "x": 407,
      "y": 348,
      "size": 1,
      "price": "4683000000000000000000",
      "reserved": "",
      "salt": "0x09c2a657247d34e28bb3eaa001dc4c283c9903d2232a5f9901ccf3f6074fe472",
      "assetIds": [
        "55464657044963196816950587289035428064568320970692304673817341489687522457602",
        "55464657044963196816950587289035428064568320970692304673817341489687522457604"
      ]
    },
    {
      "x": 404,
      "y": 349,
      "size": 1,
      "price": "4683000000000000000000",
      "reserved": "",
      "salt": "0x4b89bf870a5330055adcced749f552fdb9c6a76fd67073f9f3cc596e38ffbdfa",
      "assetIds": [
        "55464657044963196816950587289035428064568320970692304673817341489687522457601",
        "55464657044963196816950587289035428064568320970692304673817341489687522457603"
      ]
    },
    {
      "x": 403,
      "y": 349,
      "size": 1,
      "price": "4683000000000000000000",
      "reserved": "",
      "salt": "0x88de5ae202ec7ff73aaa2359b818079ae69ba43cadd67ab237cf55b493f82f61",
      "assetIds": [
        "55464657044963196816950587289035428064568320970692304673817341489687522457603",
        "55464657044963196816950587289035428064568320970692304673817341489687522457602"
      ]
    },
    {
      "x": 402,
      "y": 349,
      "size": 1,
      "price": "4683000000000000000000",
      "reserved": "",
      "salt": "0xb184bbba4027dd5bfb00f46e9ff266244c98baea925375f5639c1d0833791e40",
      "assetIds": [
        "55464657044963196816950587289035428064568320970692304673817341489687522457605",
        "55464657044963196816950587289035428064568320970692304673817341489687522457601"
      ]
    },
    {
      "x": 402,
      "y": 350,
      "size": 1,
      "price": "4683000000000000000000",
      "reserved": "",
      "salt": "0x0b99f963457530351f46b62b40553e009f39dbf2b9ca65b4dc63dd0ad875f122",
      "assetIds": [
        "55464657044963196816950587289035428064568320970692304673817341489687522457605",
        "55464657044963196816950587289035428064568320970692304673817341489687522457601"
      ]
    },
    {
      "x": 400,
      "y": 350,
      "size": 1,
      "price": "4683000000000000000000",
      "reserved": "",
      "salt": "0xfbc36f8c47d815fee94e90d569c116a5edacbde7b92d55ecd13322d2734b131d",
      "assetIds": [
        "55464657044963196816950587289035428064568320970692304673817341489687522457605",
        "55464657044963196816950587289035428064568320970692304673817341489687522457601"
      ]
    },
    {
      "x": 399,
      "y": 350,
      "size": 1,
      "price": "4683000000000000000000",
      "reserved": "",
      "salt": "0x1dc0d1ce3d8de218c9c93725318d21099992e4704d0029447795ed4339a4f20e",
      "assetIds": [
        "55464657044963196816950587289035428064568320970692304673817341489687522457601",
        "55464657044963196816950587289035428064568320970692304673817341489687522457603"
      ]
    },
    {
      "x": 398,
      "y": 350,
      "size": 1,
      "price": "4683000000000000000000",
      "reserved": "",
      "salt": "0xcc36888dc10eb2d7fd3f3b8abae5f2b83274c60e55098e13d4b2eb7aaf1aa30f",
      "assetIds": [
        "55464657044963196816950587289035428064568320970692304673817341489687522457601",
        "55464657044963196816950587289035428064568320970692304673817341489687522457603"
      ]
    },
    {
      "x": 397,
      "y": 350,
      "size": 1,
      "price": "4683000000000000000000",
      "reserved": "",
      "salt": "0x4b2db1616bb6a13cab2cba46df1e11357ce8f43e5294ac6a7a9a63cc81d8714f",
      "assetIds": [
        "55464657044963196816950587289035428064568320970692304673817341489687522457603",
        "55464657044963196816950587289035428064568320970692304673817341489687522457602"
      ]
    },
    {
      "x": 395,
      "y": 350,
      "size": 1,
      "price": "4683000000000000000000",
      "reserved": "",
      "salt": "0x637443f7d06b62d081ae1f9c26021095ce68e000422020c98d7bfe9b72698617",
      "assetIds": [
        "55464657044963196816950587289035428064568320970692304673817341489687522457601",
        "55464657044963196816950587289035428064568320970692304673817341489687522457603"
      ]
    },
    {
      "x": 401,
      "y": 349,
      "size": 1,
      "price": "4683000000000000000000",
      "reserved": "",
      "salt": "0x32e90d2bd4af1b7b6f921ea86a201d343547038c954ec65032e62b60b056a55d",
      "assetIds": [
        "55464657044963196816950587289035428064568320970692304673817341489687522457603",
        "55464657044963196816950587289035428064568320970692304673817341489687522457602"
      ]
    },
    {
      "x": 400,
      "y": 349,
      "size": 1,
      "price": "4683000000000000000000",
      "reserved": "",
      "salt": "0x916e6f02f786b244a827045777444e3e8388828825b068aef2f0bb3185a21d51",
      "assetIds": [
        "55464657044963196816950587289035428064568320970692304673817341489687522457602",
        "55464657044963196816950587289035428064568320970692304673817341489687522457604"
      ]
    },
    {
      "x": 399,
      "y": 349,
      "size": 1,
      "price": "4683000000000000000000",
      "reserved": "",
      "salt": "0xe42f44d90c1cc9e7d4cff9350dc0153706fcbf26317e39af22d719848f04f757",
      "assetIds": [
        "55464657044963196816950587289035428064568320970692304673817341489687522457605",
        "55464657044963196816950587289035428064568320970692304673817341489687522457601"
      ]
    },
    {
      "x": 398,
      "y": 349,
      "size": 1,
      "price": "4683000000000000000000",
      "reserved": "",
      "salt": "0x7a71cc49d277bac3c9fac3053321eae394288c2bb2612c3f881314c4d67bd248",
      "assetIds": [
        "55464657044963196816950587289035428064568320970692304673817341489687522457602",
        "55464657044963196816950587289035428064568320970692304673817341489687522457604"
      ]
    },
    {
      "x": 397,
      "y": 349,
      "size": 1,
      "price": "4683000000000000000000",
      "reserved": "",
      "salt": "0x3e97b02e921bbe7d0b4a5c245a4b445bc2afde7d1c421280f8b1177c124a7dd7",
      "assetIds": [
        "55464657044963196816950587289035428064568320970692304673817341489687522457601",
        "55464657044963196816950587289035428064568320970692304673817341489687522457603"
      ]
    },
    {
      "x": 398,
      "y": 351,
      "size": 1,
      "price": "4683000000000000000000",
      "reserved": "",
      "salt": "0x80abd9622fdbf2f8be59be918658deece08dfd25a20d64d7091471f31e91992a",
      "assetIds": [
        "55464657044963196816950587289035428064568320970692304673817341489687522457602",
        "55464657044963196816950587289035428064568320970692304673817341489687522457604"
      ]
    },
    {
      "x": 398,
      "y": 352,
      "size": 1,
      "price": "4683000000000000000000",
      "reserved": "",
      "salt": "0xc88c68c5465f32975d5ac14d3625264e9af2cefa5b0533992040ee6db643a7e2",
      "assetIds": [
        "55464657044963196816950587289035428064568320970692304673817341489687522457601",
        "55464657044963196816950587289035428064568320970692304673817341489687522457603"
      ]
    },
    {
      "x": 399,
      "y": 352,
      "size": 1,
      "price": "4683000000000000000000",
      "reserved": "",
      "salt": "0x31f60e2207360b72fabd41de4fa8aee9b5c4b3f1ba86669675bd786f2ebc6224",
      "assetIds": [
        "55464657044963196816950587289035428064568320970692304673817341489687522457605",
        "55464657044963196816950587289035428064568320970692304673817341489687522457601"
      ]
    },
    {
      "x": 402,
      "y": 351,
      "size": 1,
      "price": "4683000000000000000000",
      "reserved": "",
      "salt": "0x34c98c99bf04f7ba189ce3dc1c4b355c7e61f6480f4c2969dcda9828ac315b5e",
      "assetIds": [
        "55464657044963196816950587289035428064568320970692304673817341489687522457601",
        "55464657044963196816950587289035428064568320970692304673817341489687522457603"
      ]
    },
    {
      "x": 400,
      "y": 351,
      "size": 1,
      "price": "4683000000000000000000",
      "reserved": "",
      "salt": "0xed2dfb022458ba7839a6c337c887ff5daf74e78ade65b813ffae543fa6edcaeb",
      "assetIds": [
        "55464657044963196816950587289035428064568320970692304673817341489687522457603",
        "55464657044963196816950587289035428064568320970692304673817341489687522457602"
      ]
    },
    {
      "x": 399,
      "y": 351,
      "size": 1,
      "price": "4683000000000000000000",
      "reserved": "",
      "salt": "0x4aa87e7c1114eaacf5515a69ac6ea61cc7d0f472ff9dbe8d21a4f45e171b3ca7",
      "assetIds": [
        "55464657044963196816950587289035428064568320970692304673817341489687522457603",
        "55464657044963196816950587289035428064568320970692304673817341489687522457602"
      ]
    },
    {
      "x": 397,
      "y": 351,
      "size": 1,
      "price": "4683000000000000000000",
      "reserved": "",
      "salt": "0x4aafa1af2d40f8dc2183e9867f340710f69d8b3bec6f107e883f1eb29267e57e",
      "assetIds": [
        "55464657044963196816950587289035428064568320970692304673817341489687522457605",
        "55464657044963196816950587289035428064568320970692304673817341489687522457601"
      ]
    },
    {
      "x": 397,
      "y": 352,
      "size": 1,
      "price": "4683000000000000000000",
      "reserved": "",
      "salt": "0xe95a44b1dca7611a59b95232bc6a2c5c7d54650aa61c4e8b7a0f871710562118",
      "assetIds": [
        "55464657044963196816950587289035428064568320970692304673817341489687522457602",
        "55464657044963196816950587289035428064568320970692304673817341489687522457604"
      ]
    },
    {
      "x": 398,
      "y": 353,
      "size": 1,
      "price": "4683000000000000000000",
      "reserved": "",
      "salt": "0x161ffcbb925145aba755fa8b29ad822b0bc73dd5ca26b87f67df899288e4e342",
      "assetIds": [
        "55464657044963196816950587289035428064568320970692304673817341489687522457603",
        "55464657044963196816950587289035428064568320970692304673817341489687522457602"
      ]
    },
    {
      "x": 399,
      "y": 353,
      "size": 1,
      "price": "4683000000000000000000",
      "reserved": "",
      "salt": "0xbb6b69b209ed28fff3ede24d709d40ae6b32bec9569c007b0a6deacb55040c4d",
      "assetIds": [
        "55464657044963196816950587289035428064568320970692304673817341489687522457601",
        "55464657044963196816950587289035428064568320970692304673817341489687522457603"
      ]
    },
    {
      "x": 400,
      "y": 353,
      "size": 1,
      "price": "4683000000000000000000",
      "reserved": "",
      "salt": "0x45545d830614a8fe1988c67db3948649dfa9fcdef4ff94e3e502df2f3ae6c96b",
      "assetIds": [
        "55464657044963196816950587289035428064568320970692304673817341489687522457602",
        "55464657044963196816950587289035428064568320970692304673817341489687522457604"
      ]
    },
    {
      "x": 397,
      "y": 353,
      "size": 1,
      "price": "4683000000000000000000",
      "reserved": "",
      "salt": "0x9e9762ff781678ff861e2ab032bb2ef35b84473fd82da80795fb12c72ba42d48",
      "assetIds": [
        "55464657044963196816950587289035428064568320970692304673817341489687522457605",
        "55464657044963196816950587289035428064568320970692304673817341489687522457601"
      ]
    },
    {
      "x": 397,
      "y": 354,
      "size": 1,
      "price": "4683000000000000000000",
      "reserved": "",
      "salt": "0x19c5a0320701f1c746b69be1ebb88c7a5e98e5f0650b2af8f6affb593450e7e8",
      "assetIds": [
        "55464657044963196816950587289035428064568320970692304673817341489687522457603",
        "55464657044963196816950587289035428064568320970692304673817341489687522457602"
      ]
    },
    {
      "x": 398,
      "y": 354,
      "size": 1,
      "price": "4683000000000000000000",
      "reserved": "",
      "salt": "0x4570a78194aabd03dede7508f0b1b6cfdfcffc00ee0d3977d640384d4e621f51",
      "assetIds": [
        "55464657044963196816950587289035428064568320970692304673817341489687522457602",
        "55464657044963196816950587289035428064568320970692304673817341489687522457604"
      ]
    },
    {
      "x": 399,
      "y": 354,
      "size": 1,
      "price": "4683000000000000000000",
      "reserved": "",
      "salt": "0xef55f3c7d525c580fb013cca681418a389b9162acd93b7ea78cf3a1eeed16601",
      "assetIds": [
        "55464657044963196816950587289035428064568320970692304673817341489687522457602",
        "55464657044963196816950587289035428064568320970692304673817341489687522457604"
      ]
    },
    {
      "x": 400,
      "y": 354,
      "size": 1,
      "price": "4683000000000000000000",
      "reserved": "",
      "salt": "0xdc50d144c74b38228203ae774e6d88ce55f7afb24aac76ab893b5aa30d71c6e6",
      "assetIds": [
        "55464657044963196816950587289035428064568320970692304673817341489687522457605",
        "55464657044963196816950587289035428064568320970692304673817341489687522457601"
      ]
    },
    {
      "x": 400,
      "y": 355,
      "size": 1,
      "price": "4683000000000000000000",
      "reserved": "",
      "salt": "0x6d59c56f931adb15439719f1849aacdcfc4775d3d0835e357a7c17c074b6b16e",
      "assetIds": [
        "55464657044963196816950587289035428064568320970692304673817341489687522457601",
        "55464657044963196816950587289035428064568320970692304673817341489687522457603"
      ]
    },
    {
      "x": 399,
      "y": 355,
      "size": 1,
      "price": "4683000000000000000000",
      "reserved": "",
      "salt": "0x141d4d925b41c5e184062ec37ad21b4fc87e3f10cbfdfcc98cd50d3cb4c3864d",
      "assetIds": [
        "55464657044963196816950587289035428064568320970692304673817341489687522457601",
        "55464657044963196816950587289035428064568320970692304673817341489687522457603"
      ]
    },
    {
      "x": 398,
      "y": 355,
      "size": 1,
      "price": "4683000000000000000000",
      "reserved": "",
      "salt": "0x2ab54cf3cfa9fe2fc3ebf73ab822f7e19edc43704b2d9486e029b6dcc0074164",
      "assetIds": [
        "55464657044963196816950587289035428064568320970692304673817341489687522457605",
        "55464657044963196816950587289035428064568320970692304673817341489687522457601"
      ]
    },
    {
      "x": 405,
      "y": 351,
      "size": 1,
      "price": "4683000000000000000000",
      "reserved": "",
      "salt": "0x8cb3c8604c3b017b817b98a5520727ad24d280761e383d4b4a0bf90ca05b7eb3",
      "assetIds": [
        "55464657044963196816950587289035428064568320970692304673817341489687522457603",
        "55464657044963196816950587289035428064568320970692304673817341489687522457602"
      ]
    },
    {
      "x": 405,
      "y": 350,
      "size": 1,
      "price": "4683000000000000000000",
      "reserved": "",
      "salt": "0xeb0e77f9b8d25ffebbbc9b1f177fc29891c75477c86297c674ce66d5fda76686",
      "assetIds": [
        "55464657044963196816950587289035428064568320970692304673817341489687522457602",
        "55464657044963196816950587289035428064568320970692304673817341489687522457604"
      ]
    },
    {
      "x": 404,
      "y": 350,
      "size": 1,
      "price": "4683000000000000000000",
      "reserved": "",
      "salt": "0x0e2baee1abb5f6eea7e1ea2e10f9a74807378cfb49f6c9c7457d9233758517c2",
      "assetIds": [
        "55464657044963196816950587289035428064568320970692304673817341489687522457605",
        "55464657044963196816950587289035428064568320970692304673817341489687522457601"
      ]
    },
    {
      "x": 403,
      "y": 350,
      "size": 1,
      "price": "4683000000000000000000",
      "reserved": "",
      "salt": "0xa841249ddceb315d38dfab1c9aa40fd73f971c9808bc7b2ad2fffe5252bf6aab",
      "assetIds": [
        "55464657044963196816950587289035428064568320970692304673817341489687522457601",
        "55464657044963196816950587289035428064568320970692304673817341489687522457603"
      ]
    },
    {
      "x": 406,
      "y": 350,
      "size": 1,
      "price": "4683000000000000000000",
      "reserved": "",
      "salt": "0xa559f50ab056f3e4bad3785b1558c9e2a930c7c38c8c229e638e5d4da236fe4e",
      "assetIds": [
        "55464657044963196816950587289035428064568320970692304673817341489687522457601",
        "55464657044963196816950587289035428064568320970692304673817341489687522457603"
      ]
    },
    {
      "x": 406,
      "y": 351,
      "size": 1,
      "price": "4683000000000000000000",
      "reserved": "",
      "salt": "0x7e62e28bd3fd673b509bdf3d9bd26e5445a6a01385619a912d0082fe0c73d342",
      "assetIds": [
        "55464657044963196816950587289035428064568320970692304673817341489687522457601",
        "55464657044963196816950587289035428064568320970692304673817341489687522457603"
      ]
    },
    {
      "x": 406,
      "y": 352,
      "size": 1,
      "price": "4683000000000000000000",
      "reserved": "",
      "salt": "0x6029fe3b293e432cff63c6dc0919a7eef856a3fcdcc54e280112bacc71767281",
      "assetIds": [
        "55464657044963196816950587289035428064568320970692304673817341489687522457602",
        "55464657044963196816950587289035428064568320970692304673817341489687522457604"
      ]
    },
    {
      "x": 405,
      "y": 352,
      "size": 1,
      "price": "4683000000000000000000",
      "reserved": "",
      "salt": "0x86d20663039ac9b5c5708117cb8bec140949aec429a7407ec9ce323518cdd1d5",
      "assetIds": [
        "55464657044963196816950587289035428064568320970692304673817341489687522457603",
        "55464657044963196816950587289035428064568320970692304673817341489687522457602"
      ]
    },
    {
      "x": 404,
      "y": 352,
      "size": 1,
      "price": "4683000000000000000000",
      "reserved": "",
      "salt": "0x8b6b6903b0679b46e8c54280786756ea16f1085ee8b0640043a7c19a20cd39ee",
      "assetIds": [
        "55464657044963196816950587289035428064568320970692304673817341489687522457603",
        "55464657044963196816950587289035428064568320970692304673817341489687522457602"
      ]
    },
    {
      "x": 404,
      "y": 351,
      "size": 1,
      "price": "4683000000000000000000",
      "reserved": "",
      "salt": "0x9bddc11792ab71587cac073ef4a1d99b9bff54b94ba053356c02df2960e0db5c",
      "assetIds": [
        "55464657044963196816950587289035428064568320970692304673817341489687522457601",
        "55464657044963196816950587289035428064568320970692304673817341489687522457603"
      ]
    },
    {
      "x": 395,
      "y": 353,
      "size": 1,
      "price": "4683000000000000000000",
      "reserved": "",
      "salt": "0x62ea2e4676d212bd35e44322d6b9f464b74ea2583d669e6fa5981d9454442364",
      "assetIds": [
        "55464657044963196816950587289035428064568320970692304673817341489687522457602",
        "55464657044963196816950587289035428064568320970692304673817341489687522457604"
      ]
    },
    {
      "x": 394,
      "y": 353,
      "size": 1,
      "price": "4683000000000000000000",
      "reserved": "",
      "salt": "0xbe137133e53325f21da3f4fe95bce07a495e2a7f83edad09270fcbc6f0e7bb63",
      "assetIds": [
        "55464657044963196816950587289035428064568320970692304673817341489687522457605",
        "55464657044963196816950587289035428064568320970692304673817341489687522457601"
      ]
    },
    {
      "x": 392,
      "y": 353,
      "size": 1,
      "price": "4683000000000000000000",
      "reserved": "",
      "salt": "0x4c07208e2cdce1aaa112d941534ab3fd6896b8eb0e92196a10ab6af41032f20b",
      "assetIds": [
        "55464657044963196816950587289035428064568320970692304673817341489687522457603",
        "55464657044963196816950587289035428064568320970692304673817341489687522457602"
      ]
    },
    {
      "x": 391,
      "y": 353,
      "size": 1,
      "price": "4683000000000000000000",
      "reserved": "",
      "salt": "0xacb1204e52705c97a04004ce0f4600aa34dd15167001e47fbbc84035aa645ab8",
      "assetIds": [
        "55464657044963196816950587289035428064568320970692304673817341489687522457601",
        "55464657044963196816950587289035428064568320970692304673817341489687522457603"
      ]
    },
    {
      "x": 390,
      "y": 353,
      "size": 1,
      "price": "4683000000000000000000",
      "reserved": "",
      "salt": "0x7324bb7280b228f3b8c7b7af653e1bb649028a8e32d879d49c481d6120801ba2",
      "assetIds": [
        "55464657044963196816950587289035428064568320970692304673817341489687522457602",
        "55464657044963196816950587289035428064568320970692304673817341489687522457604"
      ]
    },
    {
      "x": 389,
      "y": 353,
      "size": 1,
      "price": "4683000000000000000000",
      "reserved": "",
      "salt": "0x08458d1bbf87bb8ae3db37c8d7333f0a1438311eb748fb55d2d4545913b3d1f0",
      "assetIds": [
        "55464657044963196816950587289035428064568320970692304673817341489687522457601",
        "55464657044963196816950587289035428064568320970692304673817341489687522457603"
      ]
    },
    {
      "x": 388,
      "y": 353,
      "size": 1,
      "price": "4683000000000000000000",
      "reserved": "",
      "salt": "0x621094db90d1b1b7d882069140aa8110aaefbf65e375a7fa0aa70172549284a6",
      "assetIds": [
        "55464657044963196816950587289035428064568320970692304673817341489687522457605",
        "55464657044963196816950587289035428064568320970692304673817341489687522457601"
      ]
    },
    {
      "x": 387,
      "y": 353,
      "size": 1,
      "price": "4683000000000000000000",
      "reserved": "",
      "salt": "0x0a908d91bb321e6a1cb1890040661ac8f7979d9abe6c3873335f42e65f140e55",
      "assetIds": [
        "55464657044963196816950587289035428064568320970692304673817341489687522457601",
        "55464657044963196816950587289035428064568320970692304673817341489687522457603"
      ]
    },
    {
      "x": 386,
      "y": 353,
      "size": 1,
      "price": "4683000000000000000000",
      "reserved": "",
      "salt": "0xafcab5211de1cb3486e9e2de024d05030a9271573d84b5e41f79b7a346c945f0",
      "assetIds": [
        "55464657044963196816950587289035428064568320970692304673817341489687522457602",
        "55464657044963196816950587289035428064568320970692304673817341489687522457604"
      ]
    },
    {
      "x": 385,
      "y": 353,
      "size": 1,
      "price": "4683000000000000000000",
      "reserved": "",
      "salt": "0x9d0a60fb47a3414311bb8bda1647122124194ee4fab2cba518a182f538ac63cd",
      "assetIds": [
        "55464657044963196816950587289035428064568320970692304673817341489687522457602",
        "55464657044963196816950587289035428064568320970692304673817341489687522457604"
      ]
    },
    {
      "x": 384,
      "y": 353,
      "size": 1,
      "price": "4683000000000000000000",
      "reserved": "",
      "salt": "0x127d8fb7d7f80613e3e6161978b5e100e31bc5ac9c01acbbf45d9cd0bc5cc789",
      "assetIds": [
        "55464657044963196816950587289035428064568320970692304673817341489687522457601",
        "55464657044963196816950587289035428064568320970692304673817341489687522457603"
      ]
    },
    {
      "x": 383,
      "y": 353,
      "size": 1,
      "price": "4683000000000000000000",
      "reserved": "",
      "salt": "0x19cbcd396aec76bacdd7068cd9898f562963d71bb6bb66de6beb54b071623b1e",
      "assetIds": [
        "55464657044963196816950587289035428064568320970692304673817341489687522457603",
        "55464657044963196816950587289035428064568320970692304673817341489687522457602"
      ]
    },
    {
      "x": 382,
      "y": 353,
      "size": 1,
      "price": "4683000000000000000000",
      "reserved": "",
      "salt": "0x37a5a7b95fc0cba6fcddb0d897f3f1a0352a0a43c23ebca2154785dc4a54a790",
      "assetIds": [
        "55464657044963196816950587289035428064568320970692304673817341489687522457603",
        "55464657044963196816950587289035428064568320970692304673817341489687522457602"
      ]
    },
    {
      "x": 381,
      "y": 353,
      "size": 1,
      "price": "4683000000000000000000",
      "reserved": "",
      "salt": "0xc399e64f7763ad6ddab1c4148745983adee1115567f0db8161919f030bd03a82",
      "assetIds": [
        "55464657044963196816950587289035428064568320970692304673817341489687522457602",
        "55464657044963196816950587289035428064568320970692304673817341489687522457604"
      ]
    },
    {
      "x": 372,
      "y": 353,
      "size": 1,
      "price": "4683000000000000000000",
      "reserved": "",
      "salt": "0x75896dcd67dd478e7a66848c7a35ffdf33503ac51b16f5412c53c25eaa4a9f0c",
      "assetIds": [
        "55464657044963196816950587289035428064568320970692304673817341489687522457602",
        "55464657044963196816950587289035428064568320970692304673817341489687522457604"
      ]
    },
    {
      "x": 373,
      "y": 353,
      "size": 1,
      "price": "4683000000000000000000",
      "reserved": "",
      "salt": "0x97c3d43c0327b5b4e76af4bbf097b9ccd2b5a922d4349fcb03bd46e998afa378",
      "assetIds": [
        "55464657044963196816950587289035428064568320970692304673817341489687522457602",
        "55464657044963196816950587289035428064568320970692304673817341489687522457604"
      ]
    },
    {
      "x": 374,
      "y": 353,
      "size": 1,
      "price": "4683000000000000000000",
      "reserved": "",
      "salt": "0x8b46225c213607d1b6ae6f29a8b2d88f4db7aa63ba22f393e78307f06d67493f",
      "assetIds": [
        "55464657044963196816950587289035428064568320970692304673817341489687522457603",
        "55464657044963196816950587289035428064568320970692304673817341489687522457602"
      ]
    },
    {
      "x": 375,
      "y": 353,
      "size": 1,
      "price": "4683000000000000000000",
      "reserved": "",
      "salt": "0xd1f85a0978145f5b14f01b0cc7fbd6a66e5c8f97a8dd4fc0994c4f71fffcdf96",
      "assetIds": [
        "55464657044963196816950587289035428064568320970692304673817341489687522457605",
        "55464657044963196816950587289035428064568320970692304673817341489687522457601"
      ]
    },
    {
      "x": 376,
      "y": 353,
      "size": 1,
      "price": "4683000000000000000000",
      "reserved": "",
      "salt": "0x252f222e1c05aeb9315edc056a784593cc169e430af716a92b321b25610eadd9",
      "assetIds": [
        "55464657044963196816950587289035428064568320970692304673817341489687522457603",
        "55464657044963196816950587289035428064568320970692304673817341489687522457602"
      ]
    },
    {
      "x": 377,
      "y": 353,
      "size": 1,
      "price": "4683000000000000000000",
      "reserved": "",
      "salt": "0x1f0f45c39eefdcc8d19c2839ddd39bf5bf401781372957f8d88905c65fc520ea",
      "assetIds": [
        "55464657044963196816950587289035428064568320970692304673817341489687522457603",
        "55464657044963196816950587289035428064568320970692304673817341489687522457602"
      ]
    },
    {
      "x": 378,
      "y": 353,
      "size": 1,
      "price": "4683000000000000000000",
      "reserved": "",
      "salt": "0x5b2312a2d777b27e33ba727304f375e5283d9521b61f4119b147d6c1226034af",
      "assetIds": [
        "55464657044963196816950587289035428064568320970692304673817341489687522457603",
        "55464657044963196816950587289035428064568320970692304673817341489687522457602"
      ]
    },
    {
      "x": 379,
      "y": 353,
      "size": 1,
      "price": "4683000000000000000000",
      "reserved": "",
      "salt": "0x7ed3573436aa747f644bfc9bc69187ff97742713191c5c0fd9ab212f1f73ffcd",
      "assetIds": [
        "55464657044963196816950587289035428064568320970692304673817341489687522457603",
        "55464657044963196816950587289035428064568320970692304673817341489687522457602"
      ]
    },
    {
      "x": 380,
      "y": 353,
      "size": 1,
      "price": "4683000000000000000000",
      "reserved": "",
      "salt": "0x8d32d33a141666c15d766c0b57d6dc1c9266ab1e866a20d0be409602f74a1851",
      "assetIds": [
        "55464657044963196816950587289035428064568320970692304673817341489687522457603",
        "55464657044963196816950587289035428064568320970692304673817341489687522457602"
      ]
    },
    {
      "x": 372,
      "y": 352,
      "size": 1,
      "price": "4683000000000000000000",
      "reserved": "",
      "salt": "0xd794159f07a251add992c388d0d279fc6f3d5e09707f19dc6e0e12b6a5291528",
      "assetIds": [
        "55464657044963196816950587289035428064568320970692304673817341489687522457605",
        "55464657044963196816950587289035428064568320970692304673817341489687522457601"
      ]
    },
    {
      "x": 372,
      "y": 350,
      "size": 1,
      "price": "4683000000000000000000",
      "reserved": "",
      "salt": "0xea26af36eceec8dfd995b59d496aa5172ade23956a9531d79c09934d798af67d",
      "assetIds": [
        "55464657044963196816950587289035428064568320970692304673817341489687522457603",
        "55464657044963196816950587289035428064568320970692304673817341489687522457602"
      ]
    },
    {
      "x": 372,
      "y": 349,
      "size": 1,
      "price": "4683000000000000000000",
      "reserved": "",
      "salt": "0x467c55e11f2fa7446021b05ebca0dd65892c3fd07db0d74a574bfb8bfb0e1341",
      "assetIds": [
        "55464657044963196816950587289035428064568320970692304673817341489687522457603",
        "55464657044963196816950587289035428064568320970692304673817341489687522457602"
      ]
    },
    {
      "x": 372,
      "y": 348,
      "size": 1,
      "price": "4683000000000000000000",
      "reserved": "",
      "salt": "0x9674676d46692c4ee4f52762fbc3515b545952152ff3baac9ec41e2853df9797",
      "assetIds": [
        "55464657044963196816950587289035428064568320970692304673817341489687522457601",
        "55464657044963196816950587289035428064568320970692304673817341489687522457603"
      ]
    },
    {
      "x": 371,
      "y": 351,
      "size": 1,
      "price": "4683000000000000000000",
      "reserved": "",
      "salt": "0x12a7f832b69d4e040d4fcf00671ccece6f08e6e8becdef61480bc1d95e44ed39",
      "assetIds": [
        "55464657044963196816950587289035428064568320970692304673817341489687522457605",
        "55464657044963196816950587289035428064568320970692304673817341489687522457601"
      ]
    },
    {
      "x": 370,
      "y": 351,
      "size": 1,
      "price": "4683000000000000000000",
      "reserved": "",
      "salt": "0x70d1004dce6961a47c7ca30028b1334dceb61a3f5e6bd776250402e37240ba0b",
      "assetIds": [
        "55464657044963196816950587289035428064568320970692304673817341489687522457603",
        "55464657044963196816950587289035428064568320970692304673817341489687522457602"
      ]
    },
    {
      "x": 369,
      "y": 351,
      "size": 1,
      "price": "4683000000000000000000",
      "reserved": "",
      "salt": "0x6ec41419f1bca9e700382210a1561b769a1118dfae572e44c016ef2c649b8edc",
      "assetIds": [
        "55464657044963196816950587289035428064568320970692304673817341489687522457603",
        "55464657044963196816950587289035428064568320970692304673817341489687522457602"
      ]
    },
    {
      "x": 368,
      "y": 351,
      "size": 1,
      "price": "4683000000000000000000",
      "reserved": "",
      "salt": "0xeeed8b0309cb2722e187554bfeb462ac5a0cbf68d1d5b30e598400f38e536674",
      "assetIds": [
        "55464657044963196816950587289035428064568320970692304673817341489687522457605",
        "55464657044963196816950587289035428064568320970692304673817341489687522457601"
      ]
    },
    {
      "x": 367,
      "y": 351,
      "size": 1,
      "price": "4683000000000000000000",
      "reserved": "",
      "salt": "0xe2bd3f539867c3095f6bb44b19ed133f6c6a398956b1fd392d3d3e0e5fe6c51f",
      "assetIds": [
        "55464657044963196816950587289035428064568320970692304673817341489687522457602",
        "55464657044963196816950587289035428064568320970692304673817341489687522457604"
      ]
    },
    {
      "x": 366,
      "y": 351,
      "size": 1,
      "price": "4683000000000000000000",
      "reserved": "",
      "salt": "0x18721e26d3c98806aae6cfc891f7567243aaa6ca76a5bb00dae4dc787897882e",
      "assetIds": [
        "55464657044963196816950587289035428064568320970692304673817341489687522457601",
        "55464657044963196816950587289035428064568320970692304673817341489687522457603"
      ]
    },
    {
      "x": 366,
      "y": 352,
      "size": 1,
      "price": "4683000000000000000000",
      "reserved": "",
      "salt": "0x3420332d7066e9d658691670a9df5d7e005664382b28d387512050aec9c549ae",
      "assetIds": [
        "55464657044963196816950587289035428064568320970692304673817341489687522457602",
        "55464657044963196816950587289035428064568320970692304673817341489687522457604"
      ]
    },
    {
      "x": 365,
      "y": 352,
      "size": 1,
      "price": "4683000000000000000000",
      "reserved": "",
      "salt": "0x70265fb6816f862a76ee961d24114d24fba6449a4339e326b80bc58bcc8b9cec",
      "assetIds": [
        "55464657044963196816950587289035428064568320970692304673817341489687522457601",
        "55464657044963196816950587289035428064568320970692304673817341489687522457603"
      ]
    },
    {
      "x": 364,
      "y": 352,
      "size": 1,
      "price": "4683000000000000000000",
      "reserved": "",
      "salt": "0xcacf7272f605810abb875a12604af9c8ad06f17bb9934f6f2f2fdc10607a2e95",
      "assetIds": [
        "55464657044963196816950587289035428064568320970692304673817341489687522457601",
        "55464657044963196816950587289035428064568320970692304673817341489687522457603"
      ]
    },
    {
      "x": 363,
      "y": 352,
      "size": 1,
      "price": "4683000000000000000000",
      "reserved": "",
      "salt": "0x5069df8c96a4ec65da4d68a7ec1a95b684bc6c2d16de5b31cea7de3990e9cb0e",
      "assetIds": [
        "55464657044963196816950587289035428064568320970692304673817341489687522457605",
        "55464657044963196816950587289035428064568320970692304673817341489687522457601"
      ]
    },
    {
      "x": 362,
      "y": 352,
      "size": 1,
      "price": "4683000000000000000000",
      "reserved": "",
      "salt": "0x834e10bdc76408b5f15062310ea28fb4679c415f59051028a7e0cf80b457b626",
      "assetIds": [
        "55464657044963196816950587289035428064568320970692304673817341489687522457601",
        "55464657044963196816950587289035428064568320970692304673817341489687522457603"
      ]
    },
    {
      "x": 361,
      "y": 352,
      "size": 1,
      "price": "4683000000000000000000",
      "reserved": "",
      "salt": "0x5839ff55b0c34e637c4bbc65295a1db50615d83f67295ff79220d6f2357acb89",
      "assetIds": [
        "55464657044963196816950587289035428064568320970692304673817341489687522457602",
        "55464657044963196816950587289035428064568320970692304673817341489687522457604"
      ]
    },
    {
      "x": 360,
      "y": 352,
      "size": 1,
      "price": "4683000000000000000000",
      "reserved": "",
      "salt": "0x1c80b706d18b0abbd83a471334acc97b6e2cda90e83a8ce1087ab7bfe4a8fa6a",
      "assetIds": [
        "55464657044963196816950587289035428064568320970692304673817341489687522457603",
        "55464657044963196816950587289035428064568320970692304673817341489687522457602"
      ]
    },
    {
      "x": 359,
      "y": 352,
      "size": 1,
      "price": "4683000000000000000000",
      "reserved": "",
      "salt": "0xcc6297a8e918f040aadd02fef7c864782db706da0fd83c1d30e0b7533e8979cf",
      "assetIds": [
        "55464657044963196816950587289035428064568320970692304673817341489687522457605",
        "55464657044963196816950587289035428064568320970692304673817341489687522457601"
      ]
    },
    {
      "x": 358,
      "y": 352,
      "size": 1,
      "price": "4683000000000000000000",
      "reserved": "",
      "salt": "0x37cd01161d6551696087f73dad03faf6a0ed12353e2c6a7a19910e62cc4bc24a",
      "assetIds": [
        "55464657044963196816950587289035428064568320970692304673817341489687522457605",
        "55464657044963196816950587289035428064568320970692304673817341489687522457601"
      ]
    },
    {
      "x": 357,
      "y": 352,
      "size": 1,
      "price": "4683000000000000000000",
      "reserved": "",
      "salt": "0x7d9ea66691984f5efd6ea1d33d5c913574a641b94008b9cd1d9e38dcc9e38b16",
      "assetIds": [
        "55464657044963196816950587289035428064568320970692304673817341489687522457605",
        "55464657044963196816950587289035428064568320970692304673817341489687522457601"
      ]
    },
    {
      "x": 359,
      "y": 353,
      "size": 1,
      "price": "4683000000000000000000",
      "reserved": "",
      "salt": "0xd012533a4ad2c5f7080a1ab9b74cbd114aa481009cf7ef61241ef4ea04470ed7",
      "assetIds": [
        "55464657044963196816950587289035428064568320970692304673817341489687522457602",
        "55464657044963196816950587289035428064568320970692304673817341489687522457604"
      ]
    },
    {
      "x": 368,
      "y": 352,
      "size": 1,
      "price": "4683000000000000000000",
      "reserved": "",
      "salt": "0xe20bebac6e8c87956b8ee3c0a6ab69c721e71a46dc9fba7d25893c5694819dc9",
      "assetIds": [
        "55464657044963196816950587289035428064568320970692304673817341489687522457605",
        "55464657044963196816950587289035428064568320970692304673817341489687522457601"
      ]
    },
    {
      "x": 367,
      "y": 352,
      "size": 1,
      "price": "4683000000000000000000",
      "reserved": "",
      "salt": "0xc9839c9df25e6e2152006e41f5b86adc95cf4c59c74d37ca6fedef4dedc456a1",
      "assetIds": [
        "55464657044963196816950587289035428064568320970692304673817341489687522457605",
        "55464657044963196816950587289035428064568320970692304673817341489687522457601"
      ]
    },
    {
      "x": 368,
      "y": 353,
      "size": 1,
      "price": "4683000000000000000000",
      "reserved": "",
      "salt": "0x1be14cc65767d6179d2810c806b38da670b486aa041df26c84d6afe9c7deaee0",
      "assetIds": [
        "55464657044963196816950587289035428064568320970692304673817341489687522457605",
        "55464657044963196816950587289035428064568320970692304673817341489687522457601"
      ]
    },
    {
      "x": 367,
      "y": 353,
      "size": 1,
      "price": "4683000000000000000000",
      "reserved": "",
      "salt": "0x1616889a9fcc823bf503ae05cc210a9bb5215e3f178b2b13d3705d0c7754ab84",
      "assetIds": [
        "55464657044963196816950587289035428064568320970692304673817341489687522457601",
        "55464657044963196816950587289035428064568320970692304673817341489687522457603"
      ]
    },
    {
      "x": 366,
      "y": 353,
      "size": 1,
      "price": "4683000000000000000000",
      "reserved": "",
      "salt": "0xb5792e0212c7468a3db088b939644ec165fe6e8fa5e6a6ec621e4fd82b3b098b",
      "assetIds": [
        "55464657044963196816950587289035428064568320970692304673817341489687522457603",
        "55464657044963196816950587289035428064568320970692304673817341489687522457602"
      ]
    },
    {
      "x": 365,
      "y": 353,
      "size": 1,
      "price": "4683000000000000000000",
      "reserved": "",
      "salt": "0x32794c43e84ba8591fed5a9591162d18c48d444d3ba1851fbfaea3fded0bdddb",
      "assetIds": [
        "55464657044963196816950587289035428064568320970692304673817341489687522457601",
        "55464657044963196816950587289035428064568320970692304673817341489687522457603"
      ]
    },
    {
      "x": 364,
      "y": 353,
      "size": 1,
      "price": "4683000000000000000000",
      "reserved": "",
      "salt": "0xfe0b8277c9c940cb6143f010fcffd00abdba9a813ba13bc07bb8bcde974b9f67",
      "assetIds": [
        "55464657044963196816950587289035428064568320970692304673817341489687522457603",
        "55464657044963196816950587289035428064568320970692304673817341489687522457602"
      ]
    },
    {
      "x": 363,
      "y": 353,
      "size": 1,
      "price": "4683000000000000000000",
      "reserved": "",
      "salt": "0x832c8eeff836ea5febaedb9d3a909c594285e4bd7654abbb70cb2ca24c67853e",
      "assetIds": [
        "55464657044963196816950587289035428064568320970692304673817341489687522457605",
        "55464657044963196816950587289035428064568320970692304673817341489687522457601"
      ]
    },
    {
      "x": 362,
      "y": 353,
      "size": 1,
      "price": "4683000000000000000000",
      "reserved": "",
      "salt": "0xaf579c2ed77400f09fee1113b0366573ffacb73a7a4f8693f95e497db8cdd079",
      "assetIds": [
        "55464657044963196816950587289035428064568320970692304673817341489687522457603",
        "55464657044963196816950587289035428064568320970692304673817341489687522457602"
      ]
    },
    {
      "x": 361,
      "y": 353,
      "size": 1,
      "price": "4683000000000000000000",
      "reserved": "",
      "salt": "0x3478ebd8b96f15058fb9020e3b54bf945028fc5afe949354a4b64dd43a072c1e",
      "assetIds": [
        "55464657044963196816950587289035428064568320970692304673817341489687522457605",
        "55464657044963196816950587289035428064568320970692304673817341489687522457601"
      ]
    },
    {
      "x": 360,
      "y": 353,
      "size": 1,
      "price": "4683000000000000000000",
      "reserved": "",
      "salt": "0x3ae8eb8556b8f89797858ea6677b8bd7883dba790d4b59322fb92545a4d995f7",
      "assetIds": [
        "55464657044963196816950587289035428064568320970692304673817341489687522457605",
        "55464657044963196816950587289035428064568320970692304673817341489687522457601"
      ]
    },
    {
      "x": 358,
      "y": 353,
      "size": 1,
      "price": "4683000000000000000000",
      "reserved": "",
      "salt": "0x9a6ed64009c533b82f7bb6a158a849a2070171897b0b71f65895e153f357dd6a",
      "assetIds": [
        "55464657044963196816950587289035428064568320970692304673817341489687522457605",
        "55464657044963196816950587289035428064568320970692304673817341489687522457601"
      ]
    },
    {
      "x": 354,
      "y": 350,
      "size": 1,
      "price": "4683000000000000000000",
      "reserved": "",
      "salt": "0xea5838b224f71b5ec2f576d8eab0f8f0f933f2ad966ffa646a0ba2c3e24ebd34",
      "assetIds": [
        "55464657044963196816950587289035428064568320970692304673817341489687522457605",
        "55464657044963196816950587289035428064568320970692304673817341489687522457601"
      ]
    },
    {
      "x": 354,
      "y": 349,
      "size": 1,
      "price": "4683000000000000000000",
      "reserved": "",
      "salt": "0xe4d57217ebbe35433ccd53b2e91201823177d60112e4b5c99fb17ebd333548d3",
      "assetIds": [
        "55464657044963196816950587289035428064568320970692304673817341489687522457603",
        "55464657044963196816950587289035428064568320970692304673817341489687522457602"
      ]
    },
    {
      "x": 354,
      "y": 348,
      "size": 1,
      "price": "4683000000000000000000",
      "reserved": "",
      "salt": "0x275bd24bac6b7ae41a4c8b7626d952bcf0c281ac426639f76f04c791a02c0375",
      "assetIds": [
        "55464657044963196816950587289035428064568320970692304673817341489687522457602",
        "55464657044963196816950587289035428064568320970692304673817341489687522457604"
      ]
    },
    {
      "x": 354,
      "y": 347,
      "size": 1,
      "price": "4683000000000000000000",
      "reserved": "",
      "salt": "0x018a2b741e15ddd01e078362099ec658807b56fc1566e96e9b93e0a80daa49fb",
      "assetIds": [
        "55464657044963196816950587289035428064568320970692304673817341489687522457605",
        "55464657044963196816950587289035428064568320970692304673817341489687522457601"
      ]
    },
    {
      "x": 354,
      "y": 346,
      "size": 1,
      "price": "4683000000000000000000",
      "reserved": "",
      "salt": "0x1dc8b94fcd4753b4712a29f98b9ffc5a401676a315ef0b17827886e46e72a8f4",
      "assetIds": [
        "55464657044963196816950587289035428064568320970692304673817341489687522457605",
        "55464657044963196816950587289035428064568320970692304673817341489687522457601"
      ]
    },
    {
      "x": 355,
      "y": 350,
      "size": 1,
      "price": "4683000000000000000000",
      "reserved": "",
      "salt": "0x1a6728a99a47c1129806779652ff72752916a266d2bbcc84951f52ba00224013",
      "assetIds": [
        "55464657044963196816950587289035428064568320970692304673817341489687522457601",
        "55464657044963196816950587289035428064568320970692304673817341489687522457603"
      ]
    },
    {
      "x": 356,
      "y": 350,
      "size": 1,
      "price": "4683000000000000000000",
      "reserved": "",
      "salt": "0x4b37edeb3e53904d70c1e12742af2ace0115578f15fa9b3b41308b8c97bbc046",
      "assetIds": [
        "55464657044963196816950587289035428064568320970692304673817341489687522457605",
        "55464657044963196816950587289035428064568320970692304673817341489687522457601"
      ]
    },
    {
      "x": 357,
      "y": 350,
      "size": 1,
      "price": "4683000000000000000000",
      "reserved": "",
      "salt": "0x343e5ef4344be29f3b31834d0403158474b5ec289587e18ec28749cddd945bfc",
      "assetIds": [
        "55464657044963196816950587289035428064568320970692304673817341489687522457602",
        "55464657044963196816950587289035428064568320970692304673817341489687522457604"
      ]
    },
    {
      "x": 358,
      "y": 350,
      "size": 1,
      "price": "4683000000000000000000",
      "reserved": "",
      "salt": "0xd0e1c2f2aea456e3b42bff14390126f1a8752da7d6530b78ea99321764d653b8",
      "assetIds": [
        "55464657044963196816950587289035428064568320970692304673817341489687522457603",
        "55464657044963196816950587289035428064568320970692304673817341489687522457602"
      ]
    },
    {
      "x": 359,
      "y": 350,
      "size": 1,
      "price": "4683000000000000000000",
      "reserved": "",
      "salt": "0x8bdfa81fba69ea1d6a941cb3cad40763c2ecb29db2a123edcf1d89b8f09c8a3e",
      "assetIds": [
        "55464657044963196816950587289035428064568320970692304673817341489687522457602",
        "55464657044963196816950587289035428064568320970692304673817341489687522457604"
      ]
    },
    {
      "x": 357,
      "y": 351,
      "size": 1,
      "price": "4683000000000000000000",
      "reserved": "",
      "salt": "0x71b027021acd3be95a2ce57bda76374c7b834da14727418ed7903c262e456dd9",
      "assetIds": [
        "55464657044963196816950587289035428064568320970692304673817341489687522457602",
        "55464657044963196816950587289035428064568320970692304673817341489687522457604"
      ]
    },
    {
      "x": 358,
      "y": 349,
      "size": 1,
      "price": "4683000000000000000000",
      "reserved": "",
      "salt": "0x8730de3c7bdc697bfac5b302731f1fc088525cf6b94d6e862c7f94164afd0105",
      "assetIds": [
        "55464657044963196816950587289035428064568320970692304673817341489687522457602",
        "55464657044963196816950587289035428064568320970692304673817341489687522457604"
      ]
    },
    {
      "x": 354,
      "y": 344,
      "size": 1,
      "price": "4683000000000000000000",
      "reserved": "",
      "salt": "0x535a095654049f0f7453b56cf7d1360ce5c7f8d6be0cd267c7556c678d5212ed",
      "assetIds": [
        "55464657044963196816950587289035428064568320970692304673817341489687522457602",
        "55464657044963196816950587289035428064568320970692304673817341489687522457604"
      ]
    },
    {
      "x": 354,
      "y": 343,
      "size": 1,
      "price": "4683000000000000000000",
      "reserved": "",
      "salt": "0x4989538f8f6ac024ea108c3ed5c1ec877677585401ce8b4ee623012e4bf2ca12",
      "assetIds": [
        "55464657044963196816950587289035428064568320970692304673817341489687522457601",
        "55464657044963196816950587289035428064568320970692304673817341489687522457603"
      ]
    },
    {
      "x": 354,
      "y": 342,
      "size": 1,
      "price": "4683000000000000000000",
      "reserved": "",
      "salt": "0xce92abbcc72195ccb33d9bf6fc764a64e4a53183f16a7dc9219449374073d3d2",
      "assetIds": [
        "55464657044963196816950587289035428064568320970692304673817341489687522457605",
        "55464657044963196816950587289035428064568320970692304673817341489687522457601"
      ]
    },
    {
      "x": 355,
      "y": 341,
      "size": 1,
      "price": "4683000000000000000000",
      "reserved": "",
      "salt": "0x50e6cabf7b9f554f016ec2f33a6a88afbc6bdd1588a049fd67195fe34c50ff45",
      "assetIds": [
        "55464657044963196816950587289035428064568320970692304673817341489687522457605",
        "55464657044963196816950587289035428064568320970692304673817341489687522457601"
      ]
    },
    {
      "x": 355,
      "y": 340,
      "size": 1,
      "price": "4683000000000000000000",
      "reserved": "",
      "salt": "0xb5b561b94d7c4904ebeaf5b7a50b42b7902abd38334dea547097a830fb82410a",
      "assetIds": [
        "55464657044963196816950587289035428064568320970692304673817341489687522457601",
        "55464657044963196816950587289035428064568320970692304673817341489687522457603"
      ]
    },
    {
      "x": 355,
      "y": 339,
      "size": 1,
      "price": "4683000000000000000000",
      "reserved": "",
      "salt": "0xe1019d6b33819ab601c773a6ece83ea02ae00e12d1a4ed476a5ef8b88eee34e6",
      "assetIds": [
        "55464657044963196816950587289035428064568320970692304673817341489687522457605",
        "55464657044963196816950587289035428064568320970692304673817341489687522457601"
      ]
    },
    {
      "x": 354,
      "y": 339,
      "size": 1,
      "price": "4683000000000000000000",
      "reserved": "",
      "salt": "0xadf64561ba80f93eba6a3a28027ce41423751bc7500f14cfa4cdf2cce07693ee",
      "assetIds": [
        "55464657044963196816950587289035428064568320970692304673817341489687522457601",
        "55464657044963196816950587289035428064568320970692304673817341489687522457603"
      ]
    },
    {
      "x": 354,
      "y": 340,
      "size": 1,
      "price": "4683000000000000000000",
      "reserved": "",
      "salt": "0xac555b34af3a83862532eb8a8a9527784663750025be3600db8712e907e5a622",
      "assetIds": [
        "55464657044963196816950587289035428064568320970692304673817341489687522457605",
        "55464657044963196816950587289035428064568320970692304673817341489687522457601"
      ]
    },
    {
      "x": 354,
      "y": 341,
      "size": 1,
      "price": "4683000000000000000000",
      "reserved": "",
      "salt": "0xeb18256a9f406aab9d821914409e454494d7f5e2dfd0051cbd85bd0aae0c48c2",
      "assetIds": [
        "55464657044963196816950587289035428064568320970692304673817341489687522457603",
        "55464657044963196816950587289035428064568320970692304673817341489687522457602"
      ]
    },
    {
      "x": 355,
      "y": 342,
      "size": 1,
      "price": "4683000000000000000000",
      "reserved": "",
      "salt": "0x85c6be49b64fc853cc945b8120d5fbf5cd26d964ee05146508fb05e70263f6ee",
      "assetIds": [
        "55464657044963196816950587289035428064568320970692304673817341489687522457603",
        "55464657044963196816950587289035428064568320970692304673817341489687522457602"
      ]
    },
    {
      "x": 356,
      "y": 342,
      "size": 1,
      "price": "4683000000000000000000",
      "reserved": "",
      "salt": "0x527ecb7c7f06c40ccf47d408f856a00c03d5fb661e503dd0853b3e5f7d3bb1ce",
      "assetIds": [
        "55464657044963196816950587289035428064568320970692304673817341489687522457602",
        "55464657044963196816950587289035428064568320970692304673817341489687522457604"
      ]
    },
    {
      "x": 356,
      "y": 341,
      "size": 1,
      "price": "4683000000000000000000",
      "reserved": "",
      "salt": "0xf484d2bde8dfed69cf73aa11e0aa695246c1f1ff65857c685cb6b912cd7b186e",
      "assetIds": [
        "55464657044963196816950587289035428064568320970692304673817341489687522457601",
        "55464657044963196816950587289035428064568320970692304673817341489687522457603"
      ]
    },
    {
      "x": 357,
      "y": 341,
      "size": 1,
      "price": "4683000000000000000000",
      "reserved": "",
      "salt": "0x71652112fb3bbe135d7e79a0317f10da2555da30522d8f7f375015fef26609c9",
      "assetIds": [
        "55464657044963196816950587289035428064568320970692304673817341489687522457602",
        "55464657044963196816950587289035428064568320970692304673817341489687522457604"
      ]
    },
    {
      "x": 358,
      "y": 341,
      "size": 1,
      "price": "4683000000000000000000",
      "reserved": "",
      "salt": "0x476a8b02a6fb548a004b40d246ec0dde6d2acbede2b664d4e9a6d8c45495d3ac",
      "assetIds": [
        "55464657044963196816950587289035428064568320970692304673817341489687522457603",
        "55464657044963196816950587289035428064568320970692304673817341489687522457602"
      ]
    },
    {
      "x": 358,
      "y": 340,
      "size": 1,
      "price": "4683000000000000000000",
      "reserved": "",
      "salt": "0x08bbef6b2a250e4ccde3859bf979e8ef47ae40566146d7bda1bca8f4455acd7f",
      "assetIds": [
        "55464657044963196816950587289035428064568320970692304673817341489687522457602",
        "55464657044963196816950587289035428064568320970692304673817341489687522457604"
      ]
    },
    {
      "x": 359,
      "y": 340,
      "size": 1,
      "price": "4683000000000000000000",
      "reserved": "",
      "salt": "0xd9919851f91dd54b3e602ae742572a64568393b5a215600bc42ae70644f36160",
      "assetIds": [
        "55464657044963196816950587289035428064568320970692304673817341489687522457601",
        "55464657044963196816950587289035428064568320970692304673817341489687522457603"
      ]
    },
    {
      "x": 359,
      "y": 339,
      "size": 1,
      "price": "4683000000000000000000",
      "reserved": "",
      "salt": "0x8e466b835061ffcfafe4b8043d4935abf9de89ffe35e6baa288989b1908479a5",
      "assetIds": [
        "55464657044963196816950587289035428064568320970692304673817341489687522457601",
        "55464657044963196816950587289035428064568320970692304673817341489687522457603"
      ]
    },
    {
      "x": 358,
      "y": 339,
      "size": 1,
      "price": "4683000000000000000000",
      "reserved": "",
      "salt": "0x60e277f2bc9f3bc23081dddd280118bd8b611571df96d3e8858f64f3b7fe380c",
      "assetIds": [
        "55464657044963196816950587289035428064568320970692304673817341489687522457605",
        "55464657044963196816950587289035428064568320970692304673817341489687522457601"
      ]
    },
    {
      "x": 357,
      "y": 340,
      "size": 1,
      "price": "4683000000000000000000",
      "reserved": "",
      "salt": "0x30ad41039a72014f1d1498abe630429b36545975d941635ccf8ea2abe966c520",
      "assetIds": [
        "55464657044963196816950587289035428064568320970692304673817341489687522457601",
        "55464657044963196816950587289035428064568320970692304673817341489687522457603"
      ]
    },
    {
      "x": 356,
      "y": 340,
      "size": 1,
      "price": "4683000000000000000000",
      "reserved": "",
      "salt": "0xfd1a200ce945ca7dfe908ea5725a930be64c5e4b86f387f4f0b3a73bf6ce9292",
      "assetIds": [
        "55464657044963196816950587289035428064568320970692304673817341489687522457605",
        "55464657044963196816950587289035428064568320970692304673817341489687522457601"
      ]
    },
    {
      "x": 356,
      "y": 339,
      "size": 1,
      "price": "4683000000000000000000",
      "reserved": "",
      "salt": "0xc4159234ae3a172650d44a6dff66884ab1543c8197abfd12fe2ddb4a4c1e6240",
      "assetIds": [
        "55464657044963196816950587289035428064568320970692304673817341489687522457603",
        "55464657044963196816950587289035428064568320970692304673817341489687522457602"
      ]
    },
    {
      "x": 359,
      "y": 341,
      "size": 1,
      "price": "4683000000000000000000",
      "reserved": "",
      "salt": "0x377c5f27db7fec72a9c6074feba710fd902cce90966d098794b66fe251725d85",
      "assetIds": [
        "55464657044963196816950587289035428064568320970692304673817341489687522457602",
        "55464657044963196816950587289035428064568320970692304673817341489687522457604"
      ]
    },
    {
      "x": 359,
      "y": 342,
      "size": 1,
      "price": "4683000000000000000000",
      "reserved": "",
      "salt": "0xeb900d9630069f1eb9e4c9444e11eec7547ea9380a71065caf11c339f8f356b2",
      "assetIds": [
        "55464657044963196816950587289035428064568320970692304673817341489687522457602",
        "55464657044963196816950587289035428064568320970692304673817341489687522457604"
      ]
    },
    {
      "x": 359,
      "y": 343,
      "size": 1,
      "price": "4683000000000000000000",
      "reserved": "",
      "salt": "0x435dc92cdb470dcc9ed28ec33d98df370eaaeb6fd0e231f9f68a07c57c7301bc",
      "assetIds": [
        "55464657044963196816950587289035428064568320970692304673817341489687522457603",
        "55464657044963196816950587289035428064568320970692304673817341489687522457602"
      ]
    },
    {
      "x": 359,
      "y": 344,
      "size": 1,
      "price": "4683000000000000000000",
      "reserved": "",
      "salt": "0x78f77450086f64713a7307d48c6c7213be596a0d18423729b16ed8cfd1c97611",
      "assetIds": [
        "55464657044963196816950587289035428064568320970692304673817341489687522457602",
        "55464657044963196816950587289035428064568320970692304673817341489687522457604"
      ]
    },
    {
      "x": 359,
      "y": 345,
      "size": 1,
      "price": "4683000000000000000000",
      "reserved": "",
      "salt": "0x74cb254189f1938db4e30b9dcf30fd028d06635580e098f71d10aad7b0f844b3",
      "assetIds": [
        "55464657044963196816950587289035428064568320970692304673817341489687522457603",
        "55464657044963196816950587289035428064568320970692304673817341489687522457602"
      ]
    },
    {
      "x": 359,
      "y": 346,
      "size": 1,
      "price": "4683000000000000000000",
      "reserved": "",
      "salt": "0xa437fc7aac63a959ccb54ab52e0d8bb84ef587dd0c8bcd39e2d79ac18c0ecc3d",
      "assetIds": [
        "55464657044963196816950587289035428064568320970692304673817341489687522457602",
        "55464657044963196816950587289035428064568320970692304673817341489687522457604"
      ]
    },
    {
      "x": 359,
      "y": 347,
      "size": 1,
      "price": "4683000000000000000000",
      "reserved": "",
      "salt": "0x67f0cdedb2deae2cad92ee9e83c7ab71577d95825ffd9b729221435e4af13012",
      "assetIds": [
        "55464657044963196816950587289035428064568320970692304673817341489687522457601",
        "55464657044963196816950587289035428064568320970692304673817341489687522457603"
      ]
    },
    {
      "x": 359,
      "y": 348,
      "size": 1,
      "price": "4683000000000000000000",
      "reserved": "",
      "salt": "0x62a4dd17af421e88d9b1db4420bc9e48cd343eac368dac1704add8fa997366fc",
      "assetIds": [
        "55464657044963196816950587289035428064568320970692304673817341489687522457603",
        "55464657044963196816950587289035428064568320970692304673817341489687522457602"
      ]
    },
    {
      "x": 359,
      "y": 349,
      "size": 1,
      "price": "4683000000000000000000",
      "reserved": "",
      "salt": "0x4f85e85aebd225ba35dcd975f436f82fc4cff4fd3adbae968f6aab351d6c1452",
      "assetIds": [
        "55464657044963196816950587289035428064568320970692304673817341489687522457605",
        "55464657044963196816950587289035428064568320970692304673817341489687522457601"
      ]
    },
    {
      "x": 357,
      "y": 349,
      "size": 1,
      "price": "4683000000000000000000",
      "reserved": "",
      "salt": "0xca7e9e0ed821bf1e3ce5869d08fa26e4c367252a9cb73dc94dd4e080b347d3f2",
      "assetIds": [
        "55464657044963196816950587289035428064568320970692304673817341489687522457605",
        "55464657044963196816950587289035428064568320970692304673817341489687522457601"
      ]
    },
    {
      "x": 357,
      "y": 348,
      "size": 1,
      "price": "4683000000000000000000",
      "reserved": "",
      "salt": "0x2965a660fd65b74f006aabe8806f692f2fe8de135c42bf855040e90002b4e2d7",
      "assetIds": [
        "55464657044963196816950587289035428064568320970692304673817341489687522457601",
        "55464657044963196816950587289035428064568320970692304673817341489687522457603"
      ]
    },
    {
      "x": 357,
      "y": 347,
      "size": 1,
      "price": "4683000000000000000000",
      "reserved": "",
      "salt": "0x9ec8d2f9de133a5ff2b88fd1983b2243ac932b2fa11dc249d22f3bd065455d26",
      "assetIds": [
        "55464657044963196816950587289035428064568320970692304673817341489687522457602",
        "55464657044963196816950587289035428064568320970692304673817341489687522457604"
      ]
    },
    {
      "x": 357,
      "y": 346,
      "size": 1,
      "price": "4683000000000000000000",
      "reserved": "",
      "salt": "0xa8ee35c7e5cd05d58b434cffd06675767be7fcae8c789fc527529c453fb7deed",
      "assetIds": [
        "55464657044963196816950587289035428064568320970692304673817341489687522457603",
        "55464657044963196816950587289035428064568320970692304673817341489687522457602"
      ]
    },
    {
      "x": 357,
      "y": 345,
      "size": 1,
      "price": "4683000000000000000000",
      "reserved": "",
      "salt": "0x4141d44f9bf854aa5864374e35b8beedd40dede4df577a5cf53265584528efca",
      "assetIds": [
        "55464657044963196816950587289035428064568320970692304673817341489687522457602",
        "55464657044963196816950587289035428064568320970692304673817341489687522457604"
      ]
    },
    {
      "x": 357,
      "y": 344,
      "size": 1,
      "price": "4683000000000000000000",
      "reserved": "",
      "salt": "0x6dacdca76e2b014f3606f22ba8934d71756c3bfbc0a9b92a296c3c39329a2e73",
      "assetIds": [
        "55464657044963196816950587289035428064568320970692304673817341489687522457602",
        "55464657044963196816950587289035428064568320970692304673817341489687522457604"
      ]
    },
    {
      "x": 357,
      "y": 343,
      "size": 1,
      "price": "4683000000000000000000",
      "reserved": "",
      "salt": "0xb77260ee5422138e4e1acdbf5a730df84c99241be552e489e0b0dc47770a0c70",
      "assetIds": [
        "55464657044963196816950587289035428064568320970692304673817341489687522457605",
        "55464657044963196816950587289035428064568320970692304673817341489687522457601"
      ]
    },
    {
      "x": 357,
      "y": 342,
      "size": 1,
      "price": "4683000000000000000000",
      "reserved": "",
      "salt": "0x16367fe2ad1745f6305ea5551fe5641f5e7e76f76fe3f302def9b98f75472a24",
      "assetIds": [
        "55464657044963196816950587289035428064568320970692304673817341489687522457601",
        "55464657044963196816950587289035428064568320970692304673817341489687522457603"
      ]
    },
    {
      "x": 358,
      "y": 342,
      "size": 1,
      "price": "4683000000000000000000",
      "reserved": "",
      "salt": "0xcd7b31be3857d7cd6f583e98d7fa3f90d2b98da538269e3028e6a55e0a0aeefc",
      "assetIds": [
        "55464657044963196816950587289035428064568320970692304673817341489687522457603",
        "55464657044963196816950587289035428064568320970692304673817341489687522457602"
      ]
    },
    {
      "x": 358,
      "y": 343,
      "size": 1,
      "price": "4683000000000000000000",
      "reserved": "",
      "salt": "0x51775ba427d39dc087adb17c8a9dcbeca1bb8d9cdecf18ab47a59ec738d90152",
      "assetIds": [
        "55464657044963196816950587289035428064568320970692304673817341489687522457605",
        "55464657044963196816950587289035428064568320970692304673817341489687522457601"
      ]
    },
    {
      "x": 358,
      "y": 344,
      "size": 1,
      "price": "4683000000000000000000",
      "reserved": "",
      "salt": "0xee78107d8d12dbc76ac9bd87a343b4c5e793a1b2e88fe8179f0818d6c23b747f",
      "assetIds": [
        "55464657044963196816950587289035428064568320970692304673817341489687522457602",
        "55464657044963196816950587289035428064568320970692304673817341489687522457604"
      ]
    },
    {
      "x": 358,
      "y": 345,
      "size": 1,
      "price": "4683000000000000000000",
      "reserved": "",
      "salt": "0x4029055425939032e4f0fab70f758fef23dc1ca6e79055728be3718a4daa4e03",
      "assetIds": [
        "55464657044963196816950587289035428064568320970692304673817341489687522457602",
        "55464657044963196816950587289035428064568320970692304673817341489687522457604"
      ]
    },
    {
      "x": 358,
      "y": 347,
      "size": 1,
      "price": "4683000000000000000000",
      "reserved": "",
      "salt": "0x313066f840de6f86f6e4462c153f752ae0f6922c8c4a76af0291f370cf881e87",
      "assetIds": [
        "55464657044963196816950587289035428064568320970692304673817341489687522457605",
        "55464657044963196816950587289035428064568320970692304673817341489687522457601"
      ]
    },
    {
      "x": 358,
      "y": 348,
      "size": 1,
      "price": "4683000000000000000000",
      "reserved": "",
      "salt": "0x1c48ec0249c50d45d5ebfdfb6f03949a5ff3591bd0af40f98a7007ce7072bf84",
      "assetIds": [
        "55464657044963196816950587289035428064568320970692304673817341489687522457601",
        "55464657044963196816950587289035428064568320970692304673817341489687522457603"
      ]
    },
    {
      "x": 358,
      "y": 346,
      "size": 1,
      "price": "4683000000000000000000",
      "reserved": "",
      "salt": "0x86fe118d29650f9a2d6eafbfbadae204655a78e644068d95182f02278d19f2b1",
      "assetIds": [
        "55464657044963196816950587289035428064568320970692304673817341489687522457601",
        "55464657044963196816950587289035428064568320970692304673817341489687522457603"
      ]
    },
    {
      "x": 355,
      "y": 343,
      "size": 1,
      "price": "4683000000000000000000",
      "reserved": "",
      "salt": "0x818fb31360ae3f57977bd2381a916680c973a8173795c3a0ec3813d6a6281c46",
      "assetIds": [
        "55464657044963196816950587289035428064568320970692304673817341489687522457601",
        "55464657044963196816950587289035428064568320970692304673817341489687522457603"
      ]
    },
    {
      "x": 356,
      "y": 343,
      "size": 1,
      "price": "4683000000000000000000",
      "reserved": "",
      "salt": "0xab92a960f61ade79e11c0f046526019a210224c5273637e172d05a973292ef67",
      "assetIds": [
        "55464657044963196816950587289035428064568320970692304673817341489687522457602",
        "55464657044963196816950587289035428064568320970692304673817341489687522457604"
      ]
    },
    {
      "x": 356,
      "y": 345,
      "size": 1,
      "price": "4683000000000000000000",
      "reserved": "",
      "salt": "0x8b61cca91381749258fa92393483164b4c7ddbc1fafa7424eae9f863e6c7271f",
      "assetIds": [
        "55464657044963196816950587289035428064568320970692304673817341489687522457605",
        "55464657044963196816950587289035428064568320970692304673817341489687522457601"
      ]
    },
    {
      "x": 356,
      "y": 346,
      "size": 1,
      "price": "4683000000000000000000",
      "reserved": "",
      "salt": "0x23650c10dcf619369a268d68de2958b469eee472ad6bb2e57c4361d3a59705b8",
      "assetIds": [
        "55464657044963196816950587289035428064568320970692304673817341489687522457605",
        "55464657044963196816950587289035428064568320970692304673817341489687522457601"
      ]
    },
    {
      "x": 356,
      "y": 347,
      "size": 1,
      "price": "4683000000000000000000",
      "reserved": "",
      "salt": "0x3e34a46e98c0645cef6ce2e803898d83c46b694f41436ed1149ede7db61b2ec0",
      "assetIds": [
        "55464657044963196816950587289035428064568320970692304673817341489687522457605",
        "55464657044963196816950587289035428064568320970692304673817341489687522457601"
      ]
    },
    {
      "x": 356,
      "y": 348,
      "size": 1,
      "price": "4683000000000000000000",
      "reserved": "",
      "salt": "0x21038bba46761b55e5e33158b892955d03aea9d08aac39c36b1e717607e8d6d5",
      "assetIds": [
        "55464657044963196816950587289035428064568320970692304673817341489687522457603",
        "55464657044963196816950587289035428064568320970692304673817341489687522457602"
      ]
    },
    {
      "x": 356,
      "y": 349,
      "size": 1,
      "price": "4683000000000000000000",
      "reserved": "",
      "salt": "0x2993049a6efcecc72e6a33cde915912bc0789bf927ffe9c4829722c14fe7beb9",
      "assetIds": [
        "55464657044963196816950587289035428064568320970692304673817341489687522457601",
        "55464657044963196816950587289035428064568320970692304673817341489687522457603"
      ]
    },
    {
      "x": 355,
      "y": 349,
      "size": 1,
      "price": "4683000000000000000000",
      "reserved": "",
      "salt": "0xe7533805d42cb7c177eca4a4d4b40002c2596356d9e28a7446a18516019fbe7e",
      "assetIds": [
        "55464657044963196816950587289035428064568320970692304673817341489687522457605",
        "55464657044963196816950587289035428064568320970692304673817341489687522457601"
      ]
    },
    {
      "x": 355,
      "y": 348,
      "size": 1,
      "price": "4683000000000000000000",
      "reserved": "",
      "salt": "0x718ff7f3f4d8fa866cc7aba71691a29b64766b1bcaeefd0ba53ea9db76687153",
      "assetIds": [
        "55464657044963196816950587289035428064568320970692304673817341489687522457601",
        "55464657044963196816950587289035428064568320970692304673817341489687522457603"
      ]
    },
    {
      "x": 355,
      "y": 347,
      "size": 1,
      "price": "4683000000000000000000",
      "reserved": "",
      "salt": "0x228f4144ce69b0958baf45c43a1dd364af4c4ca8e021ebe6dc7fe69e3d092761",
      "assetIds": [
        "55464657044963196816950587289035428064568320970692304673817341489687522457605",
        "55464657044963196816950587289035428064568320970692304673817341489687522457601"
      ]
    },
    {
      "x": 355,
      "y": 346,
      "size": 1,
      "price": "4683000000000000000000",
      "reserved": "",
      "salt": "0xee291f14b25af42c07dc7089426f338b1d357ec1984dfff13d786a36b2fe8e83",
      "assetIds": [
        "55464657044963196816950587289035428064568320970692304673817341489687522457601",
        "55464657044963196816950587289035428064568320970692304673817341489687522457603"
      ]
    },
    {
      "x": 355,
      "y": 345,
      "size": 1,
      "price": "4683000000000000000000",
      "reserved": "",
      "salt": "0x4477469dd2e583ac9889ca8b6042592bcc3a548e56c3c1673b5a22ef7eb7eec1",
      "assetIds": [
        "55464657044963196816950587289035428064568320970692304673817341489687522457601",
        "55464657044963196816950587289035428064568320970692304673817341489687522457603"
      ]
    },
    {
      "x": 355,
      "y": 344,
      "size": 1,
      "price": "4683000000000000000000",
      "reserved": "",
      "salt": "0xdd4833cfe2d9126000ed29237bbb7755c4fae6fa4c62fbef2c982c8d1d7e7780",
      "assetIds": [
        "55464657044963196816950587289035428064568320970692304673817341489687522457605",
        "55464657044963196816950587289035428064568320970692304673817341489687522457601"
      ]
    },
    {
      "x": 358,
      "y": 351,
      "size": 1,
      "price": "4683000000000000000000",
      "reserved": "",
      "salt": "0xd45e40f3325ddc1b43a93c3812ac62eb3feb8396a1e29caeca2f50b0954425d1",
      "assetIds": [
        "55464657044963196816950587289035428064568320970692304673817341489687522457605",
        "55464657044963196816950587289035428064568320970692304673817341489687522457601"
      ]
    },
    {
      "x": 359,
      "y": 351,
      "size": 1,
      "price": "4683000000000000000000",
      "reserved": "",
      "salt": "0x19c0fa1d1039f98b6c39afa39a605d029b992796917decd9de2c5fcbfadff395",
      "assetIds": [
        "55464657044963196816950587289035428064568320970692304673817341489687522457603",
        "55464657044963196816950587289035428064568320970692304673817341489687522457602"
      ]
    },
    {
      "x": 360,
      "y": 351,
      "size": 1,
      "price": "4683000000000000000000",
      "reserved": "",
      "salt": "0xe3c6c592de273d09f129680ead39533da9a8f05b0f07f7e02e4ecebe6b930750",
      "assetIds": [
        "55464657044963196816950587289035428064568320970692304673817341489687522457603",
        "55464657044963196816950587289035428064568320970692304673817341489687522457602"
      ]
    },
    {
      "x": 360,
      "y": 350,
      "size": 1,
      "price": "4683000000000000000000",
      "reserved": "",
      "salt": "0xdb5f9431c132ae340689c01b43bbbe5134a9f24b2b46653a256f19ce77405545",
      "assetIds": [
        "55464657044963196816950587289035428064568320970692304673817341489687522457605",
        "55464657044963196816950587289035428064568320970692304673817341489687522457601"
      ]
    },
    {
      "x": 361,
      "y": 350,
      "size": 1,
      "price": "4683000000000000000000",
      "reserved": "",
      "salt": "0x5228b1e34992eb3fc31c20bda20abd641128d763dd8a47b9362b1c19d4b2182d",
      "assetIds": [
        "55464657044963196816950587289035428064568320970692304673817341489687522457603",
        "55464657044963196816950587289035428064568320970692304673817341489687522457602"
      ]
    },
    {
      "x": 362,
      "y": 350,
      "size": 1,
      "price": "4683000000000000000000",
      "reserved": "",
      "salt": "0xfe11b751e1bf40f50ad4f9e4566c0863894d7aa4cc4783a484f9108469d7fcd5",
      "assetIds": [
        "55464657044963196816950587289035428064568320970692304673817341489687522457601",
        "55464657044963196816950587289035428064568320970692304673817341489687522457603"
      ]
    },
    {
      "x": 364,
      "y": 350,
      "size": 1,
      "price": "4683000000000000000000",
      "reserved": "",
      "salt": "0xa2a5144da2cfc19dd4ce240a65cd763170130c23e955331debfe0bf02c62f1d5",
      "assetIds": [
        "55464657044963196816950587289035428064568320970692304673817341489687522457603",
        "55464657044963196816950587289035428064568320970692304673817341489687522457602"
      ]
    },
    {
      "x": 365,
      "y": 350,
      "size": 1,
      "price": "4683000000000000000000",
      "reserved": "",
      "salt": "0x54f32f8253e1f3cd3b63a93e6bd991d449e0efef506f71494caea688607a40d6",
      "assetIds": [
        "55464657044963196816950587289035428064568320970692304673817341489687522457601",
        "55464657044963196816950587289035428064568320970692304673817341489687522457603"
      ]
    },
    {
      "x": 366,
      "y": 350,
      "size": 1,
      "price": "4683000000000000000000",
      "reserved": "",
      "salt": "0xd2d783308fd953857d9e317d81997a3bfda74935980da652d172df7863923f2a",
      "assetIds": [
        "55464657044963196816950587289035428064568320970692304673817341489687522457603",
        "55464657044963196816950587289035428064568320970692304673817341489687522457602"
      ]
    },
    {
      "x": 367,
      "y": 350,
      "size": 1,
      "price": "4683000000000000000000",
      "reserved": "",
      "salt": "0xfeb51b2de28206d503e12527fa4a7ae5f937f24d81f0312ffc5825e1cb9c92ee",
      "assetIds": [
        "55464657044963196816950587289035428064568320970692304673817341489687522457602",
        "55464657044963196816950587289035428064568320970692304673817341489687522457604"
      ]
    },
    {
      "x": 368,
      "y": 350,
      "size": 1,
      "price": "4683000000000000000000",
      "reserved": "",
      "salt": "0xf9d9990e63b8c5ab9c7e66484410c67484841310d3ed877fd9eb4b1315c7f13a",
      "assetIds": [
        "55464657044963196816950587289035428064568320970692304673817341489687522457602",
        "55464657044963196816950587289035428064568320970692304673817341489687522457604"
      ]
    },
    {
      "x": 368,
      "y": 349,
      "size": 1,
      "price": "4683000000000000000000",
      "reserved": "",
      "salt": "0x1d2a0133e4f9f405d905e1cb03ebf841027e22751725db42ec4a81555498953e",
      "assetIds": [
        "55464657044963196816950587289035428064568320970692304673817341489687522457605",
        "55464657044963196816950587289035428064568320970692304673817341489687522457601"
      ]
    },
    {
      "x": 369,
      "y": 349,
      "size": 1,
      "price": "4683000000000000000000",
      "reserved": "",
      "salt": "0x307babe2217218e29ca05b6f72fb2e8214e72c4905e07bf51d0a37679c8ba4cb",
      "assetIds": [
        "55464657044963196816950587289035428064568320970692304673817341489687522457602",
        "55464657044963196816950587289035428064568320970692304673817341489687522457604"
      ]
    },
    {
      "x": 370,
      "y": 349,
      "size": 1,
      "price": "4683000000000000000000",
      "reserved": "",
      "salt": "0xd44f2df21b197620913b40f025613e801ccb58c361b00041782f4493fdfae567",
      "assetIds": [
        "55464657044963196816950587289035428064568320970692304673817341489687522457603",
        "55464657044963196816950587289035428064568320970692304673817341489687522457602"
      ]
    },
    {
      "x": 371,
      "y": 348,
      "size": 1,
      "price": "4683000000000000000000",
      "reserved": "",
      "salt": "0x84e5461c37a6c2c5685b6730a0911df1e41d63baafe3f5101e8e9cc0668c86e9",
      "assetIds": [
        "55464657044963196816950587289035428064568320970692304673817341489687522457603",
        "55464657044963196816950587289035428064568320970692304673817341489687522457602"
      ]
    },
    {
      "x": 370,
      "y": 348,
      "size": 1,
      "price": "4683000000000000000000",
      "reserved": "",
      "salt": "0x74e033846dd66bd05ab57c3e4a661fdf9613778f453e35c10a2eec1ef67628fc",
      "assetIds": [
        "55464657044963196816950587289035428064568320970692304673817341489687522457602",
        "55464657044963196816950587289035428064568320970692304673817341489687522457604"
      ]
    },
    {
      "x": 369,
      "y": 348,
      "size": 1,
      "price": "4683000000000000000000",
      "reserved": "",
      "salt": "0xce0d5880372c8ff82ebc5b37ac6237a974ca68261d47c14d0cc80dd52ac2e120",
      "assetIds": [
        "55464657044963196816950587289035428064568320970692304673817341489687522457602",
        "55464657044963196816950587289035428064568320970692304673817341489687522457604"
      ]
    },
    {
      "x": 368,
      "y": 348,
      "size": 1,
      "price": "4683000000000000000000",
      "reserved": "",
      "salt": "0x1f46a7b99ea8a17a40d55a9b09af58d3b07444389d7517c99e555b7026edb36a",
      "assetIds": [
        "55464657044963196816950587289035428064568320970692304673817341489687522457605",
        "55464657044963196816950587289035428064568320970692304673817341489687522457601"
      ]
    },
    {
      "x": 367,
      "y": 348,
      "size": 1,
      "price": "4683000000000000000000",
      "reserved": "",
      "salt": "0xd53b6b8dc0f9510b6f3f81230c80b0e5f38fd9540c4dc52820269749ead10372",
      "assetIds": [
        "55464657044963196816950587289035428064568320970692304673817341489687522457601",
        "55464657044963196816950587289035428064568320970692304673817341489687522457603"
      ]
    },
    {
      "x": 366,
      "y": 348,
      "size": 1,
      "price": "4683000000000000000000",
      "reserved": "",
      "salt": "0xa147dd645be574ab2525275f9ddbe91070f264be4c92b0405c60430214862895",
      "assetIds": [
        "55464657044963196816950587289035428064568320970692304673817341489687522457603",
        "55464657044963196816950587289035428064568320970692304673817341489687522457602"
      ]
    },
    {
      "x": 365,
      "y": 348,
      "size": 1,
      "price": "4683000000000000000000",
      "reserved": "",
      "salt": "0xdabc4d8b9cfcf83f3f19d78f38b3ceba48514181493b06d4965a13ab5c8b8f75",
      "assetIds": [
        "55464657044963196816950587289035428064568320970692304673817341489687522457602",
        "55464657044963196816950587289035428064568320970692304673817341489687522457604"
      ]
    },
    {
      "x": 364,
      "y": 348,
      "size": 1,
      "price": "4683000000000000000000",
      "reserved": "",
      "salt": "0xe73ef3228436feaf940d27a9bcbac501476166040c0f89203f400f0b3bfa1b46",
      "assetIds": [
        "55464657044963196816950587289035428064568320970692304673817341489687522457603",
        "55464657044963196816950587289035428064568320970692304673817341489687522457602"
      ]
    },
    {
      "x": 363,
      "y": 348,
      "size": 1,
      "price": "4683000000000000000000",
      "reserved": "",
      "salt": "0x2bbfcbb26860fd69bf17b721c609ccd3c552fa6d77ca5d6465c41ffcc0a6913d",
      "assetIds": [
        "55464657044963196816950587289035428064568320970692304673817341489687522457601",
        "55464657044963196816950587289035428064568320970692304673817341489687522457603"
      ]
    },
    {
      "x": 362,
      "y": 348,
      "size": 1,
      "price": "4683000000000000000000",
      "reserved": "",
      "salt": "0x081caa457fbfeb045c1422424fa665465546fecc20800811198d03f29fa7850b",
      "assetIds": [
        "55464657044963196816950587289035428064568320970692304673817341489687522457602",
        "55464657044963196816950587289035428064568320970692304673817341489687522457604"
      ]
    },
    {
      "x": 361,
      "y": 348,
      "size": 1,
      "price": "4683000000000000000000",
      "reserved": "",
      "salt": "0x7921f2c9b9bbba8852fa7c2857be421a263e4cc2fc0a0b65b43af5084d4b93ca",
      "assetIds": [
        "55464657044963196816950587289035428064568320970692304673817341489687522457603",
        "55464657044963196816950587289035428064568320970692304673817341489687522457602"
      ]
    },
    {
      "x": 360,
      "y": 348,
      "size": 1,
      "price": "4683000000000000000000",
      "reserved": "",
      "salt": "0xad32c657529265a8dcfe9fec6781ce52c390a89a61ec4d90e545b411e101570d",
      "assetIds": [
        "55464657044963196816950587289035428064568320970692304673817341489687522457602",
        "55464657044963196816950587289035428064568320970692304673817341489687522457604"
      ]
    },
    {
      "x": 360,
      "y": 349,
      "size": 1,
      "price": "4683000000000000000000",
      "reserved": "",
      "salt": "0x6c64554354887f734c8fac3ea541e4a3e791655a10f5451b93d55d0d11052bb9",
      "assetIds": [
        "55464657044963196816950587289035428064568320970692304673817341489687522457603",
        "55464657044963196816950587289035428064568320970692304673817341489687522457602"
      ]
    },
    {
      "x": 361,
      "y": 349,
      "size": 1,
      "price": "4683000000000000000000",
      "reserved": "",
      "salt": "0x699808ce599a1db28028e561b182aec2e97d9d1b5bb9eca5acb0bdbed267c0f3",
      "assetIds": [
        "55464657044963196816950587289035428064568320970692304673817341489687522457605",
        "55464657044963196816950587289035428064568320970692304673817341489687522457601"
      ]
    },
    {
      "x": 362,
      "y": 349,
      "size": 1,
      "price": "4683000000000000000000",
      "reserved": "",
      "salt": "0x351225aafd2f5598c249db1667ae95377202da69bdc425419fd1b5c11cb310f1",
      "assetIds": [
        "55464657044963196816950587289035428064568320970692304673817341489687522457602",
        "55464657044963196816950587289035428064568320970692304673817341489687522457604"
      ]
    },
    {
      "x": 363,
      "y": 349,
      "size": 1,
      "price": "4683000000000000000000",
      "reserved": "",
      "salt": "0x312644c1944a5232c8966ad792badfbaad508f4301f83fa33574e503b95e94b2",
      "assetIds": [
        "55464657044963196816950587289035428064568320970692304673817341489687522457603",
        "55464657044963196816950587289035428064568320970692304673817341489687522457602"
      ]
    },
    {
      "x": 365,
      "y": 349,
      "size": 1,
      "price": "4683000000000000000000",
      "reserved": "",
      "salt": "0x4213f46321ced65bb7bfb2da10e7745ac5b790e4dea7b7f935a36b99b7077570",
      "assetIds": [
        "55464657044963196816950587289035428064568320970692304673817341489687522457605",
        "55464657044963196816950587289035428064568320970692304673817341489687522457601"
      ]
    },
    {
      "x": 364,
      "y": 349,
      "size": 1,
      "price": "4683000000000000000000",
      "reserved": "",
      "salt": "0xf3e48b3254eaf085c52ead6e768d38bb443fc50554c9a1e04e4d82b86c88c11b",
      "assetIds": [
        "55464657044963196816950587289035428064568320970692304673817341489687522457602",
        "55464657044963196816950587289035428064568320970692304673817341489687522457604"
      ]
    },
    {
      "x": 367,
      "y": 349,
      "size": 1,
      "price": "4683000000000000000000",
      "reserved": "",
      "salt": "0xc30f8a418fcd16dc275c4abbbcb443e16a20e5ff1eaa1c222a0b7fcd67195d9c",
      "assetIds": [
        "55464657044963196816950587289035428064568320970692304673817341489687522457601",
        "55464657044963196816950587289035428064568320970692304673817341489687522457603"
      ]
    },
    {
      "x": 366,
      "y": 349,
      "size": 1,
      "price": "4683000000000000000000",
      "reserved": "",
      "salt": "0x9e301c6adaf923f67771bc8dfe9641fec21e69b3688197c25e73a797bb0c827d",
      "assetIds": [
        "55464657044963196816950587289035428064568320970692304673817341489687522457601",
        "55464657044963196816950587289035428064568320970692304673817341489687522457603"
      ]
    },
    {
      "x": 371,
      "y": 349,
      "size": 1,
      "price": "4683000000000000000000",
      "reserved": "",
      "salt": "0xd9814dcd9499375e9e37331d39932b48988181acf61bf4b67930e4e2e43618e5",
      "assetIds": [
        "55464657044963196816950587289035428064568320970692304673817341489687522457601",
        "55464657044963196816950587289035428064568320970692304673817341489687522457603"
      ]
    },
    {
      "x": 371,
      "y": 350,
      "size": 1,
      "price": "4683000000000000000000",
      "reserved": "",
      "salt": "0xf0369fcfd7e0b6a0c945aaa6f09568333323bdb289992b40a67877b3d4fdc057",
      "assetIds": [
        "55464657044963196816950587289035428064568320970692304673817341489687522457603",
        "55464657044963196816950587289035428064568320970692304673817341489687522457602"
      ]
    },
    {
      "x": 369,
      "y": 350,
      "size": 1,
      "price": "4683000000000000000000",
      "reserved": "",
      "salt": "0x4e99037ac6b5b1b73cf12c3175517cff751cbcf9573992a4fffee85963c9e2d1",
      "assetIds": [
        "55464657044963196816950587289035428064568320970692304673817341489687522457605",
        "55464657044963196816950587289035428064568320970692304673817341489687522457601"
      ]
    },
    {
      "x": 370,
      "y": 350,
      "size": 1,
      "price": "4683000000000000000000",
      "reserved": "",
      "salt": "0xb26be26d6f3bf7f23c3d9069df41f3efa9c6b7120aefbce08c92a405c3d857f5",
      "assetIds": [
        "55464657044963196816950587289035428064568320970692304673817341489687522457603",
        "55464657044963196816950587289035428064568320970692304673817341489687522457602"
      ]
    },
    {
      "x": 365,
      "y": 351,
      "size": 1,
      "price": "4683000000000000000000",
      "reserved": "",
      "salt": "0x1a140746ad898d2ab1ac9a8cab7d1b20fc8d572a12f407b19c2461d8f98d08ad",
      "assetIds": [
        "55464657044963196816950587289035428064568320970692304673817341489687522457603",
        "55464657044963196816950587289035428064568320970692304673817341489687522457602"
      ]
    },
    {
      "x": 364,
      "y": 351,
      "size": 1,
      "price": "4683000000000000000000",
      "reserved": "",
      "salt": "0x3a486172db72a5c238c29e6f386b76f39bad5c6940277e0d5e7af6cd43c42da1",
      "assetIds": [
        "55464657044963196816950587289035428064568320970692304673817341489687522457603",
        "55464657044963196816950587289035428064568320970692304673817341489687522457602"
      ]
    },
    {
      "x": 363,
      "y": 351,
      "size": 1,
      "price": "4683000000000000000000",
      "reserved": "",
      "salt": "0xd39e0ccff8ef3c20ea3925080844090111febdeec9c2f17d8dabc59c3698509e",
      "assetIds": [
        "55464657044963196816950587289035428064568320970692304673817341489687522457605",
        "55464657044963196816950587289035428064568320970692304673817341489687522457601"
      ]
    },
    {
      "x": 362,
      "y": 351,
      "size": 1,
      "price": "4683000000000000000000",
      "reserved": "",
      "salt": "0x1e1ce20e2a8a70eb1a8bb911cdbb82f215ba71d0079b1a2c5159035a0636b214",
      "assetIds": [
        "55464657044963196816950587289035428064568320970692304673817341489687522457602",
        "55464657044963196816950587289035428064568320970692304673817341489687522457604"
      ]
    },
    {
      "x": 361,
      "y": 351,
      "size": 1,
      "price": "4683000000000000000000",
      "reserved": "",
      "salt": "0x2dd56ba5832b095b6cca21aa41adeacbb5eef2ee30ef802a81955b07f8ede604",
      "assetIds": [
        "55464657044963196816950587289035428064568320970692304673817341489687522457601",
        "55464657044963196816950587289035428064568320970692304673817341489687522457603"
      ]
    },
    {
      "x": 376,
      "y": 350,
      "size": 1,
      "price": "4683000000000000000000",
      "reserved": "",
      "salt": "0x745678c6735804184a643d4f27e3ab0ed6e869d3dc0f5f8c4169324b46869f58",
      "assetIds": [
        "55464657044963196816950587289035428064568320970692304673817341489687522457601",
        "55464657044963196816950587289035428064568320970692304673817341489687522457603"
      ]
    },
    {
      "x": 377,
      "y": 350,
      "size": 1,
      "price": "4683000000000000000000",
      "reserved": "",
      "salt": "0x2eb7f19bbe3ea0e2f0d00c7b04fab597624c89d07b99069690ebb98e011ae729",
      "assetIds": [
        "55464657044963196816950587289035428064568320970692304673817341489687522457602",
        "55464657044963196816950587289035428064568320970692304673817341489687522457604"
      ]
    },
    {
      "x": 378,
      "y": 350,
      "size": 1,
      "price": "4683000000000000000000",
      "reserved": "",
      "salt": "0x6109e9ed2a9eb220e5257bce5d9bdafafe6bb14a3fab094b8afc71fd848b6ee1",
      "assetIds": [
        "55464657044963196816950587289035428064568320970692304673817341489687522457601",
        "55464657044963196816950587289035428064568320970692304673817341489687522457603"
      ]
    },
    {
      "x": 379,
      "y": 350,
      "size": 1,
      "price": "4683000000000000000000",
      "reserved": "",
      "salt": "0x492413a8b4e45e07e305573cb5fb4dbb6f5aa15c74156a2994d175b2f7314095",
      "assetIds": [
        "55464657044963196816950587289035428064568320970692304673817341489687522457601",
        "55464657044963196816950587289035428064568320970692304673817341489687522457603"
      ]
    },
    {
      "x": 379,
      "y": 349,
      "size": 1,
      "price": "4683000000000000000000",
      "reserved": "",
      "salt": "0x09cf17a46f91a61c8e595b9d36c51ff2465a46fbe1cdf8133c5044fc74c80e8d",
      "assetIds": [
        "55464657044963196816950587289035428064568320970692304673817341489687522457603",
        "55464657044963196816950587289035428064568320970692304673817341489687522457602"
      ]
    },
    {
      "x": 381,
      "y": 349,
      "size": 1,
      "price": "4683000000000000000000",
      "reserved": "",
      "salt": "0x7bf4f70058f8e74e558f462f4231c03e80d2baf2def70cea5fc211c0396ce9c7",
      "assetIds": [
        "55464657044963196816950587289035428064568320970692304673817341489687522457602",
        "55464657044963196816950587289035428064568320970692304673817341489687522457604"
      ]
    },
    {
      "x": 382,
      "y": 349,
      "size": 1,
      "price": "4683000000000000000000",
      "reserved": "",
      "salt": "0xc587c189f4fbed4e16d6dd0ff2c4eea3b688be9b000045fabce3089a4ef42a24",
      "assetIds": [
        "55464657044963196816950587289035428064568320970692304673817341489687522457601",
        "55464657044963196816950587289035428064568320970692304673817341489687522457603"
      ]
    },
    {
      "x": 383,
      "y": 349,
      "size": 1,
      "price": "4683000000000000000000",
      "reserved": "",
      "salt": "0x693bdbcc8c89d37352dee3ee35947da85a1f3d97ccd5cb4b2ce1b2bf6a8ed340",
      "assetIds": [
        "55464657044963196816950587289035428064568320970692304673817341489687522457601",
        "55464657044963196816950587289035428064568320970692304673817341489687522457603"
      ]
    },
    {
      "x": 383,
      "y": 348,
      "size": 1,
      "price": "4683000000000000000000",
      "reserved": "",
      "salt": "0xd3d2bea2037775c8372bca534d60e7f6eac6a2e3f3af9154aa55f094e799aa48",
      "assetIds": [
        "55464657044963196816950587289035428064568320970692304673817341489687522457602",
        "55464657044963196816950587289035428064568320970692304673817341489687522457604"
      ]
    },
    {
      "x": 383,
      "y": 347,
      "size": 1,
      "price": "4683000000000000000000",
      "reserved": "",
      "salt": "0xa3120ae745877eba33333c36ec2f63068b39e255d071cb848e6f4be0fd3b160a",
      "assetIds": [
        "55464657044963196816950587289035428064568320970692304673817341489687522457601",
        "55464657044963196816950587289035428064568320970692304673817341489687522457603"
      ]
    },
    {
      "x": 382,
      "y": 346,
      "size": 1,
      "price": "4683000000000000000000",
      "reserved": "",
      "salt": "0xf91644440356d176a0764f01af4c547f2547c33c2a71eb10578141ba61b1f24e",
      "assetIds": [
        "55464657044963196816950587289035428064568320970692304673817341489687522457605",
        "55464657044963196816950587289035428064568320970692304673817341489687522457601"
      ]
    },
    {
      "x": 382,
      "y": 345,
      "size": 1,
      "price": "4683000000000000000000",
      "reserved": "",
      "salt": "0x47cd0c098936846e374d601340df6bb4f59674830b671c6b62e9f390c21dbb95",
      "assetIds": [
        "55464657044963196816950587289035428064568320970692304673817341489687522457603",
        "55464657044963196816950587289035428064568320970692304673817341489687522457602"
      ]
    },
    {
      "x": 382,
      "y": 344,
      "size": 1,
      "price": "4683000000000000000000",
      "reserved": "",
      "salt": "0x184397a17169ac82b7224a305396f7b6623b54ffdba075dd95ee821fb752e949",
      "assetIds": [
        "55464657044963196816950587289035428064568320970692304673817341489687522457603",
        "55464657044963196816950587289035428064568320970692304673817341489687522457602"
      ]
    },
    {
      "x": 381,
      "y": 344,
      "size": 1,
      "price": "4683000000000000000000",
      "reserved": "",
      "salt": "0xc1e357ed93e1c38611cc0b4a13a19deedb6fe913daacf8f7663eec3c1dcf1077",
      "assetIds": [
        "55464657044963196816950587289035428064568320970692304673817341489687522457601",
        "55464657044963196816950587289035428064568320970692304673817341489687522457603"
      ]
    },
    {
      "x": 381,
      "y": 343,
      "size": 1,
      "price": "4683000000000000000000",
      "reserved": "",
      "salt": "0x6237d90f6d4776fdcf991ae2538c2a036820e1c8939bea6b5026393305d34fb1",
      "assetIds": [
        "55464657044963196816950587289035428064568320970692304673817341489687522457602",
        "55464657044963196816950587289035428064568320970692304673817341489687522457604"
      ]
    },
    {
      "x": 380,
      "y": 342,
      "size": 1,
      "price": "4683000000000000000000",
      "reserved": "",
      "salt": "0x5c19f6b91008a7edde34f4e0f9a6fe9acaafd7d0b667e4560b201415a157fee7",
      "assetIds": [
        "55464657044963196816950587289035428064568320970692304673817341489687522457605",
        "55464657044963196816950587289035428064568320970692304673817341489687522457601"
      ]
    },
    {
      "x": 379,
      "y": 342,
      "size": 1,
      "price": "4683000000000000000000",
      "reserved": "",
      "salt": "0xc020c2ade5f918976dcf22006351930ff156264ade344e18d6970073c8dc0628",
      "assetIds": [
        "55464657044963196816950587289035428064568320970692304673817341489687522457601",
        "55464657044963196816950587289035428064568320970692304673817341489687522457603"
      ]
    },
    {
      "x": 379,
      "y": 343,
      "size": 1,
      "price": "4683000000000000000000",
      "reserved": "",
      "salt": "0x7959c3b4035f21def9bf2a6864c2f88b682e5cac3e3542b9ea135172ca45d3c1",
      "assetIds": [
        "55464657044963196816950587289035428064568320970692304673817341489687522457602",
        "55464657044963196816950587289035428064568320970692304673817341489687522457604"
      ]
    },
    {
      "x": 378,
      "y": 343,
      "size": 1,
      "price": "4683000000000000000000",
      "reserved": "",
      "salt": "0xb153e064644151354a10c7d5f3980b863d20ec3fa58c4098584ed5c0a7468861",
      "assetIds": [
        "55464657044963196816950587289035428064568320970692304673817341489687522457605",
        "55464657044963196816950587289035428064568320970692304673817341489687522457601"
      ]
    },
    {
      "x": 378,
      "y": 342,
      "size": 1,
      "price": "4683000000000000000000",
      "reserved": "",
      "salt": "0x8b42813675aea13ea04a4f9d394a2a369e78285b0216a8ed5ef428c1a5d956ca",
      "assetIds": [
        "55464657044963196816950587289035428064568320970692304673817341489687522457603",
        "55464657044963196816950587289035428064568320970692304673817341489687522457602"
      ]
    },
    {
      "x": 376,
      "y": 341,
      "size": 1,
      "price": "4683000000000000000000",
      "reserved": "",
      "salt": "0x85a61d2a7c2e2595af621693c7ce14023196fb35ec0f43bc7a7dd8c11e66261d",
      "assetIds": [
        "55464657044963196816950587289035428064568320970692304673817341489687522457605",
        "55464657044963196816950587289035428064568320970692304673817341489687522457601"
      ]
    },
    {
      "x": 376,
      "y": 339,
      "size": 1,
      "price": "4683000000000000000000",
      "reserved": "",
      "salt": "0x2a1752b866429e6425196a0f850e1d084dc4c4a3862dfab0a87877333d08d6e7",
      "assetIds": [
        "55464657044963196816950587289035428064568320970692304673817341489687522457602",
        "55464657044963196816950587289035428064568320970692304673817341489687522457604"
      ]
    },
    {
      "x": 376,
      "y": 338,
      "size": 1,
      "price": "4683000000000000000000",
      "reserved": "",
      "salt": "0x0b4810e2341cdccf1aa448bddd18e3ee59c93bce2df35babc919711f0d4c999e",
      "assetIds": [
        "55464657044963196816950587289035428064568320970692304673817341489687522457605",
        "55464657044963196816950587289035428064568320970692304673817341489687522457601"
      ]
    },
    {
      "x": 377,
      "y": 338,
      "size": 1,
      "price": "4683000000000000000000",
      "reserved": "",
      "salt": "0x34089879d4b5af5ee5f1012e8e38bfe7dcd02f8c1eb304be976bb0ef1d22bd34",
      "assetIds": [
        "55464657044963196816950587289035428064568320970692304673817341489687522457601",
        "55464657044963196816950587289035428064568320970692304673817341489687522457603"
      ]
    },
    {
      "x": 376,
      "y": 337,
      "size": 1,
      "price": "4683000000000000000000",
      "reserved": "",
      "salt": "0x4f0e83af69ddc28129ca1c3cde3a1337df92a493f91e0ab0f4f06518cef5e8fc",
      "assetIds": [
        "55464657044963196816950587289035428064568320970692304673817341489687522457603",
        "55464657044963196816950587289035428064568320970692304673817341489687522457602"
      ]
    },
    {
      "x": 375,
      "y": 337,
      "size": 1,
      "price": "4683000000000000000000",
      "reserved": "",
      "salt": "0xf976ccdcdbda0fecde8b6cb81cfbd29133b4cf0aa53e8f522e40c5010c830724",
      "assetIds": [
        "55464657044963196816950587289035428064568320970692304673817341489687522457605",
        "55464657044963196816950587289035428064568320970692304673817341489687522457601"
      ]
    },
    {
      "x": 374,
      "y": 337,
      "size": 1,
      "price": "4683000000000000000000",
      "reserved": "",
      "salt": "0x4913b976e8a2feec1944a1e2bc59e7add3c5abf0ea20d8e3536c81a98e3687cd",
      "assetIds": [
        "55464657044963196816950587289035428064568320970692304673817341489687522457605",
        "55464657044963196816950587289035428064568320970692304673817341489687522457601"
      ]
    },
    {
      "x": 373,
      "y": 337,
      "size": 1,
      "price": "4683000000000000000000",
      "reserved": "",
      "salt": "0x5e90b96e92a453c6f17a438a5b9706523eed158247f07ef71dfcdaef01603150",
      "assetIds": [
        "55464657044963196816950587289035428064568320970692304673817341489687522457603",
        "55464657044963196816950587289035428064568320970692304673817341489687522457602"
      ]
    },
    {
      "x": 374,
      "y": 336,
      "size": 1,
      "price": "4683000000000000000000",
      "reserved": "",
      "salt": "0x3d93c0782b82c73ea614cab6b607acfd7eed5e3a6fed986c6538fda534edd357",
      "assetIds": [
        "55464657044963196816950587289035428064568320970692304673817341489687522457603",
        "55464657044963196816950587289035428064568320970692304673817341489687522457602"
      ]
    },
    {
      "x": 375,
      "y": 336,
      "size": 1,
      "price": "4683000000000000000000",
      "reserved": "",
      "salt": "0xbd54de2ce6567ebc6d3e831f218f47483a83fa3feb4faaca9b11d496927ae548",
      "assetIds": [
        "55464657044963196816950587289035428064568320970692304673817341489687522457605",
        "55464657044963196816950587289035428064568320970692304673817341489687522457601"
      ]
    },
    {
      "x": 376,
      "y": 336,
      "size": 1,
      "price": "4683000000000000000000",
      "reserved": "",
      "salt": "0x7da4a1dbdbe6b405b6ae71ba6febb850aee3e03ed0f4f3a5b06985324125d88a",
      "assetIds": [
        "55464657044963196816950587289035428064568320970692304673817341489687522457602",
        "55464657044963196816950587289035428064568320970692304673817341489687522457604"
      ]
    },
    {
      "x": 377,
      "y": 336,
      "size": 1,
      "price": "4683000000000000000000",
      "reserved": "",
      "salt": "0x2ae6381ed0e51d4ef24e46564cfe14e06d0b6cb9ab707496e8643fe1ba4e4051",
      "assetIds": [
        "55464657044963196816950587289035428064568320970692304673817341489687522457602",
        "55464657044963196816950587289035428064568320970692304673817341489687522457604"
      ]
    },
    {
      "x": 377,
      "y": 337,
      "size": 1,
      "price": "4683000000000000000000",
      "reserved": "",
      "salt": "0xb927e090179bea16455e5db9874854e8c15ce194a45c012a20211da6f99db81e",
      "assetIds": [
        "55464657044963196816950587289035428064568320970692304673817341489687522457601",
        "55464657044963196816950587289035428064568320970692304673817341489687522457603"
      ]
    },
    {
      "x": 372,
      "y": 337,
      "size": 1,
      "price": "4683000000000000000000",
      "reserved": "",
      "salt": "0xa281bf0d856e6bd8ee517d295f303e8f80abce69724e80babacf07738920c59a",
      "assetIds": [
        "55464657044963196816950587289035428064568320970692304673817341489687522457603",
        "55464657044963196816950587289035428064568320970692304673817341489687522457602"
      ]
    },
    {
      "x": 372,
      "y": 336,
      "size": 1,
      "price": "4683000000000000000000",
      "reserved": "",
      "salt": "0xe2b157b9069612e7646287a94b554b42d96f8f2b8d3c088390256924ec58870c",
      "assetIds": [
        "55464657044963196816950587289035428064568320970692304673817341489687522457603",
        "55464657044963196816950587289035428064568320970692304673817341489687522457602"
      ]
    },
    {
      "x": 373,
      "y": 336,
      "size": 1,
      "price": "4683000000000000000000",
      "reserved": "",
      "salt": "0x911eb23cffa05476c027e957176c2a12912a43ae150d7392afb6cc504608f183",
      "assetIds": [
        "55464657044963196816950587289035428064568320970692304673817341489687522457602",
        "55464657044963196816950587289035428064568320970692304673817341489687522457604"
      ]
    },
    {
      "x": 374,
      "y": 338,
      "size": 1,
      "price": "4683000000000000000000",
      "reserved": "",
      "salt": "0x700783984e5ab1e7c756bb91510b163ef65068073db5fcd8be732e9672ed16b6",
      "assetIds": [
        "55464657044963196816950587289035428064568320970692304673817341489687522457601",
        "55464657044963196816950587289035428064568320970692304673817341489687522457603"
      ]
    },
    {
      "x": 374,
      "y": 339,
      "size": 1,
      "price": "4683000000000000000000",
      "reserved": "",
      "salt": "0x76f4fb74cc5f2f05fd9a5d2a77f971cd03fb6da970d569a868e4b07b5c8d93c8",
      "assetIds": [
        "55464657044963196816950587289035428064568320970692304673817341489687522457602",
        "55464657044963196816950587289035428064568320970692304673817341489687522457604"
      ]
    },
    {
      "x": 373,
      "y": 339,
      "size": 1,
      "price": "4683000000000000000000",
      "reserved": "",
      "salt": "0x6a0d15cce622902ea8054acc090baa677e078b673b0a3a49feae68cab3bce5b2",
      "assetIds": [
        "55464657044963196816950587289035428064568320970692304673817341489687522457601",
        "55464657044963196816950587289035428064568320970692304673817341489687522457603"
      ]
    },
    {
      "x": 373,
      "y": 340,
      "size": 1,
      "price": "4683000000000000000000",
      "reserved": "",
      "salt": "0xbb966b8fba6bc05d5e05c9cf0148998c835dd9a445b6d2d2a03ed23f123a584f",
      "assetIds": [
        "55464657044963196816950587289035428064568320970692304673817341489687522457603",
        "55464657044963196816950587289035428064568320970692304673817341489687522457602"
      ]
    },
    {
      "x": 373,
      "y": 341,
      "size": 1,
      "price": "4683000000000000000000",
      "reserved": "",
      "salt": "0xf2e5a4f53944ea035020a9c1a4c471991bb6de48b6b2a82252ad9e3dfcd32f3c",
      "assetIds": [
        "55464657044963196816950587289035428064568320970692304673817341489687522457601",
        "55464657044963196816950587289035428064568320970692304673817341489687522457603"
      ]
    },
    {
      "x": 372,
      "y": 340,
      "size": 1,
      "price": "4683000000000000000000",
      "reserved": "",
      "salt": "0x0176e54fc3d3e706dd34bd3f88f0f9291dcb2aa93f2d6c1a94ca9189e1d18974",
      "assetIds": [
        "55464657044963196816950587289035428064568320970692304673817341489687522457605",
        "55464657044963196816950587289035428064568320970692304673817341489687522457601"
      ]
    },
    {
      "x": 372,
      "y": 339,
      "size": 1,
      "price": "4683000000000000000000",
      "reserved": "",
      "salt": "0x554a3c5f85e9f1ace342a77203fa60051995280672127c224aee02aae06f8639",
      "assetIds": [
        "55464657044963196816950587289035428064568320970692304673817341489687522457601",
        "55464657044963196816950587289035428064568320970692304673817341489687522457603"
      ]
    },
    {
      "x": 373,
      "y": 338,
      "size": 1,
      "price": "4683000000000000000000",
      "reserved": "",
      "salt": "0x1267d674f62a477f176b5295fa487ae9a9ea4105b1dd707d98c9104551acd5a3",
      "assetIds": [
        "55464657044963196816950587289035428064568320970692304673817341489687522457603",
        "55464657044963196816950587289035428064568320970692304673817341489687522457602"
      ]
    },
    {
      "x": 372,
      "y": 341,
      "size": 1,
      "price": "4683000000000000000000",
      "reserved": "",
      "salt": "0xd88a2f85fa4dadb81916049e2ba280aa707f3ef9e78cf3c92941fd15c14bd64c",
      "assetIds": [
        "55464657044963196816950587289035428064568320970692304673817341489687522457603",
        "55464657044963196816950587289035428064568320970692304673817341489687522457602"
      ]
    },
    {
      "x": 374,
      "y": 340,
      "size": 1,
      "price": "4683000000000000000000",
      "reserved": "",
      "salt": "0x694e49094c162e1365693ada8309b3a0e75b49caaf1c99c42ce1a1668daa0efc",
      "assetIds": [
        "55464657044963196816950587289035428064568320970692304673817341489687522457602",
        "55464657044963196816950587289035428064568320970692304673817341489687522457604"
      ]
    },
    {
      "x": 375,
      "y": 340,
      "size": 1,
      "price": "4683000000000000000000",
      "reserved": "",
      "salt": "0x1add514ce14424cafc4a8aabbdb082360bfcc662fddd56a99544598986d2f566",
      "assetIds": [
        "55464657044963196816950587289035428064568320970692304673817341489687522457601",
        "55464657044963196816950587289035428064568320970692304673817341489687522457603"
      ]
    },
    {
      "x": 375,
      "y": 339,
      "size": 1,
      "price": "4683000000000000000000",
      "reserved": "",
      "salt": "0xebb3fcceac3bfcd7ffa5d19f10737ecb4418f0429b3cd51b54172118491763d3",
      "assetIds": [
        "55464657044963196816950587289035428064568320970692304673817341489687522457602",
        "55464657044963196816950587289035428064568320970692304673817341489687522457604"
      ]
    },
    {
      "x": 375,
      "y": 338,
      "size": 1,
      "price": "4683000000000000000000",
      "reserved": "",
      "salt": "0x5a912f7f432f1be656c8c4b12cc2832a058f906048101db5f485b63da8064c95",
      "assetIds": [
        "55464657044963196816950587289035428064568320970692304673817341489687522457602",
        "55464657044963196816950587289035428064568320970692304673817341489687522457604"
      ]
    },
    {
      "x": 375,
      "y": 341,
      "size": 1,
      "price": "4683000000000000000000",
      "reserved": "",
      "salt": "0x579a9b7198feee754bdc89a084384dacbd143d2f4cdc67a84909b4561517222d",
      "assetIds": [
        "55464657044963196816950587289035428064568320970692304673817341489687522457601",
        "55464657044963196816950587289035428064568320970692304673817341489687522457603"
      ]
    },
    {
      "x": 374,
      "y": 341,
      "size": 1,
      "price": "4683000000000000000000",
      "reserved": "",
      "salt": "0x9609404008b8680f72d388c4e4cc818428c3a69f548aa5ad335c4fb561af4cae",
      "assetIds": [
        "55464657044963196816950587289035428064568320970692304673817341489687522457603",
        "55464657044963196816950587289035428064568320970692304673817341489687522457602"
      ]
    },
    {
      "x": 377,
      "y": 340,
      "size": 1,
      "price": "4683000000000000000000",
      "reserved": "",
      "salt": "0x69cc766c75da5afb465ac2d9148077727e040ed5c5e4f0ae96576153bbdb2407",
      "assetIds": [
        "55464657044963196816950587289035428064568320970692304673817341489687522457601",
        "55464657044963196816950587289035428064568320970692304673817341489687522457603"
      ]
    },
    {
      "x": 377,
      "y": 339,
      "size": 1,
      "price": "4683000000000000000000",
      "reserved": "",
      "salt": "0x3efd6a6f4e4bdef75c3241341e37b4cfb844880335849ecdd2c3177ee66dae9b",
      "assetIds": [
        "55464657044963196816950587289035428064568320970692304673817341489687522457603",
        "55464657044963196816950587289035428064568320970692304673817341489687522457602"
      ]
    },
    {
      "x": 377,
      "y": 341,
      "size": 1,
      "price": "4683000000000000000000",
      "reserved": "",
      "salt": "0x628e7b1d37c9b9ed8049cff47f0f276beae1270e42bb525feda7cf229bb467f3",
      "assetIds": [
        "55464657044963196816950587289035428064568320970692304673817341489687522457601",
        "55464657044963196816950587289035428064568320970692304673817341489687522457603"
      ]
    },
    {
      "x": 381,
      "y": 342,
      "size": 1,
      "price": "4683000000000000000000",
      "reserved": "",
      "salt": "0xb0fe8bf7e7d187b72bc6b634c5ba90701122851e740aded69f46b59da1b9cb3f",
      "assetIds": [
        "55464657044963196816950587289035428064568320970692304673817341489687522457601",
        "55464657044963196816950587289035428064568320970692304673817341489687522457603"
      ]
    },
    {
      "x": 382,
      "y": 342,
      "size": 1,
      "price": "4683000000000000000000",
      "reserved": "",
      "salt": "0xfe36f78092c367f7e52299b0c2ef4603ebf9374e6f7de150cfd1b6e826370ce3",
      "assetIds": [
        "55464657044963196816950587289035428064568320970692304673817341489687522457602",
        "55464657044963196816950587289035428064568320970692304673817341489687522457604"
      ]
    },
    {
      "x": 380,
      "y": 343,
      "size": 1,
      "price": "4683000000000000000000",
      "reserved": "",
      "salt": "0xcecceb92c4831e5944f0bd7af37e85b0c5d8023b74efa9abc500c097a594be31",
      "assetIds": [
        "55464657044963196816950587289035428064568320970692304673817341489687522457605",
        "55464657044963196816950587289035428064568320970692304673817341489687522457601"
      ]
    },
    {
      "x": 380,
      "y": 344,
      "size": 1,
      "price": "4683000000000000000000",
      "reserved": "",
      "salt": "0x758321903c01d005abf8d5673c66bf1ac73ab0bf48cad4387fddd2cb5b5c004a",
      "assetIds": [
        "55464657044963196816950587289035428064568320970692304673817341489687522457603",
        "55464657044963196816950587289035428064568320970692304673817341489687522457602"
      ]
    },
    {
      "x": 379,
      "y": 345,
      "size": 1,
      "price": "4683000000000000000000",
      "reserved": "",
      "salt": "0x2878f6165b9ef5122f7ea0ada57220046b275a6b0003d40bb99043b89f67c2d0",
      "assetIds": [
        "55464657044963196816950587289035428064568320970692304673817341489687522457603",
        "55464657044963196816950587289035428064568320970692304673817341489687522457602"
      ]
    },
    {
      "x": 379,
      "y": 344,
      "size": 1,
      "price": "4683000000000000000000",
      "reserved": "",
      "salt": "0xe97ae11b5a62cfea929e34c905e18e522834bc174d912eccde49758a3bc41455",
      "assetIds": [
        "55464657044963196816950587289035428064568320970692304673817341489687522457603",
        "55464657044963196816950587289035428064568320970692304673817341489687522457602"
      ]
    },
    {
      "x": 378,
      "y": 345,
      "size": 1,
      "price": "4683000000000000000000",
      "reserved": "",
      "salt": "0xbeedf88faf742ab1dae624e7a384232574f0780fb82e5c906363e2dbb54ff05f",
      "assetIds": [
        "55464657044963196816950587289035428064568320970692304673817341489687522457605",
        "55464657044963196816950587289035428064568320970692304673817341489687522457601"
      ]
    },
    {
      "x": 378,
      "y": 346,
      "size": 1,
      "price": "4683000000000000000000",
      "reserved": "",
      "salt": "0xfa191d59dab7d08e78719cc3cf45db39d3eeab95a7df83807664c254dc622138",
      "assetIds": [
        "55464657044963196816950587289035428064568320970692304673817341489687522457605",
        "55464657044963196816950587289035428064568320970692304673817341489687522457601"
      ]
    },
    {
      "x": 378,
      "y": 347,
      "size": 1,
      "price": "4683000000000000000000",
      "reserved": "",
      "salt": "0x28273ff50b4d492de6e1f13080169cd488df07310c159e6bf7c97a54d00a0531",
      "assetIds": [
        "55464657044963196816950587289035428064568320970692304673817341489687522457603",
        "55464657044963196816950587289035428064568320970692304673817341489687522457602"
      ]
    },
    {
      "x": 378,
      "y": 344,
      "size": 1,
      "price": "4683000000000000000000",
      "reserved": "",
      "salt": "0x7d52c6024e80758759bcab1f4ef08b7ef8ede901862716cbe0ea75e8d50f18e9",
      "assetIds": [
        "55464657044963196816950587289035428064568320970692304673817341489687522457601",
        "55464657044963196816950587289035428064568320970692304673817341489687522457603"
      ]
    },
    {
      "x": 379,
      "y": 346,
      "size": 1,
      "price": "4683000000000000000000",
      "reserved": "",
      "salt": "0xf962badcbf81cf8f5ee39ddfc22313b9bc997066c0c7efbf409db9e84e386137",
      "assetIds": [
        "55464657044963196816950587289035428064568320970692304673817341489687522457601",
        "55464657044963196816950587289035428064568320970692304673817341489687522457603"
      ]
    },
    {
      "x": 379,
      "y": 347,
      "size": 1,
      "price": "4683000000000000000000",
      "reserved": "",
      "salt": "0x71a249d84b712db9094faa544e61b96cb8cd22e27f5266b5afe7e276486eb611",
      "assetIds": [
        "55464657044963196816950587289035428064568320970692304673817341489687522457603",
        "55464657044963196816950587289035428064568320970692304673817341489687522457602"
      ]
    },
    {
      "x": 380,
      "y": 347,
      "size": 1,
      "price": "4683000000000000000000",
      "reserved": "",
      "salt": "0x1425832549438e860e34db4b812a7e55ea73e288db212ea25c7327f3182edb58",
      "assetIds": [
        "55464657044963196816950587289035428064568320970692304673817341489687522457603",
        "55464657044963196816950587289035428064568320970692304673817341489687522457602"
      ]
    },
    {
      "x": 380,
      "y": 346,
      "size": 1,
      "price": "4683000000000000000000",
      "reserved": "",
      "salt": "0x7fa0da2a252d9065c2361efb4c01b402a7483a8ed36074158ea69386c04db173",
      "assetIds": [
        "55464657044963196816950587289035428064568320970692304673817341489687522457603",
        "55464657044963196816950587289035428064568320970692304673817341489687522457602"
      ]
    },
    {
      "x": 381,
      "y": 346,
      "size": 1,
      "price": "4683000000000000000000",
      "reserved": "",
      "salt": "0xd4d398d2070449b2beee813e798b330410a955e0cde8c40c4e4a921618f13199",
      "assetIds": [
        "55464657044963196816950587289035428064568320970692304673817341489687522457601",
        "55464657044963196816950587289035428064568320970692304673817341489687522457603"
      ]
    },
    {
      "x": 381,
      "y": 345,
      "size": 1,
      "price": "4683000000000000000000",
      "reserved": "",
      "salt": "0xb24232ffd8dbf75820f9174cc5d4860763519f4a5cc38ceaab9771abb31ba82f",
      "assetIds": [
        "55464657044963196816950587289035428064568320970692304673817341489687522457603",
        "55464657044963196816950587289035428064568320970692304673817341489687522457602"
      ]
    },
    {
      "x": 381,
      "y": 347,
      "size": 1,
      "price": "4683000000000000000000",
      "reserved": "",
      "salt": "0x0e0dd08638bf50f24dae47045fb86087801482cf31168c3502d5a20f49919321",
      "assetIds": [
        "55464657044963196816950587289035428064568320970692304673817341489687522457605",
        "55464657044963196816950587289035428064568320970692304673817341489687522457601"
      ]
    },
    {
      "x": 382,
      "y": 347,
      "size": 1,
      "price": "4683000000000000000000",
      "reserved": "",
      "salt": "0x4fb2ae37d1bec1bc91359b200b366e325c1c8c795e36501f48a9b4add421e493",
      "assetIds": [
        "55464657044963196816950587289035428064568320970692304673817341489687522457603",
        "55464657044963196816950587289035428064568320970692304673817341489687522457602"
      ]
    },
    {
      "x": 382,
      "y": 348,
      "size": 1,
      "price": "4683000000000000000000",
      "reserved": "",
      "salt": "0x7a934f7005e23b74d15c1c54efca2f3414c8ed9d071cf9de0154f0c746b5fad0",
      "assetIds": [
        "55464657044963196816950587289035428064568320970692304673817341489687522457603",
        "55464657044963196816950587289035428064568320970692304673817341489687522457602"
      ]
    },
    {
      "x": 374,
      "y": 348,
      "size": 1,
      "price": "4683000000000000000000",
      "reserved": "",
      "salt": "0xeb1e10190111ada87f1a72d39cfa87967b186a5d4822ce4c065c4b2e580da210",
      "assetIds": [
        "55464657044963196816950587289035428064568320970692304673817341489687522457601",
        "55464657044963196816950587289035428064568320970692304673817341489687522457603"
      ]
    },
    {
      "x": 373,
      "y": 348,
      "size": 1,
      "price": "4683000000000000000000",
      "reserved": "",
      "salt": "0xe5db6c693bfe132c8fedb49ad13f8c679e89150a625d3f6ae697ff6459d4524f",
      "assetIds": [
        "55464657044963196816950587289035428064568320970692304673817341489687522457602",
        "55464657044963196816950587289035428064568320970692304673817341489687522457604"
      ]
    },
    {
      "x": 375,
      "y": 348,
      "size": 1,
      "price": "4683000000000000000000",
      "reserved": "",
      "salt": "0x23b7b0ac4543078ff77703fec96934e800a79a098cf33153442a455508fff1c4",
      "assetIds": [
        "55464657044963196816950587289035428064568320970692304673817341489687522457603",
        "55464657044963196816950587289035428064568320970692304673817341489687522457602"
      ]
    },
    {
      "x": 376,
      "y": 348,
      "size": 1,
      "price": "4683000000000000000000",
      "reserved": "",
      "salt": "0xf97fea2d4bcae2f693efa727f1cbd5a7dbd1f6288122b4832f8e4236f3a4f767",
      "assetIds": [
        "55464657044963196816950587289035428064568320970692304673817341489687522457602",
        "55464657044963196816950587289035428064568320970692304673817341489687522457604"
      ]
    },
    {
      "x": 377,
      "y": 348,
      "size": 1,
      "price": "4683000000000000000000",
      "reserved": "",
      "salt": "0x2b21353e40389e5a9c21d2ec2353eb89ac7878f889d428883e97d62a606e6a0c",
      "assetIds": [
        "55464657044963196816950587289035428064568320970692304673817341489687522457603",
        "55464657044963196816950587289035428064568320970692304673817341489687522457602"
      ]
    },
    {
      "x": 381,
      "y": 348,
      "size": 1,
      "price": "4683000000000000000000",
      "reserved": "",
      "salt": "0x59ff6074dd9a60c4f3ec138e4eba73d67bb4bf36ed0bbf4f0633cc4df784aaa5",
      "assetIds": [
        "55464657044963196816950587289035428064568320970692304673817341489687522457603",
        "55464657044963196816950587289035428064568320970692304673817341489687522457602"
      ]
    },
    {
      "x": 380,
      "y": 348,
      "size": 1,
      "price": "4683000000000000000000",
      "reserved": "",
      "salt": "0x6cbfa9acc3edbc4f036184b7c9c6d61ae2a1a290f87be62ba5e13fcd352f3b65",
      "assetIds": [
        "55464657044963196816950587289035428064568320970692304673817341489687522457603",
        "55464657044963196816950587289035428064568320970692304673817341489687522457602"
      ]
    },
    {
      "x": 379,
      "y": 348,
      "size": 1,
      "price": "4683000000000000000000",
      "reserved": "",
      "salt": "0xb7907dd1114597b364f558475f4f19212269f6a0e850d539957a719c9b76bb1c",
      "assetIds": [
        "55464657044963196816950587289035428064568320970692304673817341489687522457601",
        "55464657044963196816950587289035428064568320970692304673817341489687522457603"
      ]
    },
    {
      "x": 378,
      "y": 348,
      "size": 1,
      "price": "4683000000000000000000",
      "reserved": "",
      "salt": "0x8285934291e524132e6d39e1961c336d027bdcd158319814e772dc50c79d0a6c",
      "assetIds": [
        "55464657044963196816950587289035428064568320970692304673817341489687522457602",
        "55464657044963196816950587289035428064568320970692304673817341489687522457604"
      ]
    },
    {
      "x": 375,
      "y": 349,
      "size": 1,
      "price": "4683000000000000000000",
      "reserved": "",
      "salt": "0x8a3b82c5088b6a7985cd282db40b68d9dc8f79fea837ab1daeb68f0a3e4bf757",
      "assetIds": [
        "55464657044963196816950587289035428064568320970692304673817341489687522457605",
        "55464657044963196816950587289035428064568320970692304673817341489687522457601"
      ]
    },
    {
      "x": 374,
      "y": 349,
      "size": 1,
      "price": "4683000000000000000000",
      "reserved": "",
      "salt": "0x0efa02a67c90015fe65444c887eaa2a345d6dbc64ee7d8e009dc7d922a173104",
      "assetIds": [
        "55464657044963196816950587289035428064568320970692304673817341489687522457603",
        "55464657044963196816950587289035428064568320970692304673817341489687522457602"
      ]
    },
    {
      "x": 374,
      "y": 350,
      "size": 1,
      "price": "4683000000000000000000",
      "reserved": "",
      "salt": "0x30dc01807bf72b5f3dee757d40ae98e61336e8131f4c08917bc8cbe25f2d57f3",
      "assetIds": [
        "55464657044963196816950587289035428064568320970692304673817341489687522457602",
        "55464657044963196816950587289035428064568320970692304673817341489687522457604"
      ]
    },
    {
      "x": 373,
      "y": 350,
      "size": 1,
      "price": "4683000000000000000000",
      "reserved": "",
      "salt": "0x1e2f64d2d5d98a80e54c7544952ec9584bca4e2385864b5612b096fecd85a39d",
      "assetIds": [
        "55464657044963196816950587289035428064568320970692304673817341489687522457601",
        "55464657044963196816950587289035428064568320970692304673817341489687522457603"
      ]
    },
    {
      "x": 376,
      "y": 349,
      "size": 1,
      "price": "4683000000000000000000",
      "reserved": "",
      "salt": "0xf1da9a37c5798b6454e44fed1ce05bf69293e1d6af8cda86021ddf243527cd30",
      "assetIds": [
        "55464657044963196816950587289035428064568320970692304673817341489687522457602",
        "55464657044963196816950587289035428064568320970692304673817341489687522457604"
      ]
    },
    {
      "x": 373,
      "y": 349,
      "size": 1,
      "price": "4683000000000000000000",
      "reserved": "",
      "salt": "0xd17e9db0c4b0815737c30e81c6164bf24ca8a4dec5a67a94cb8a48cc3ebc575a",
      "assetIds": [
        "55464657044963196816950587289035428064568320970692304673817341489687522457605",
        "55464657044963196816950587289035428064568320970692304673817341489687522457601"
      ]
    },
    {
      "x": 378,
      "y": 349,
      "size": 1,
      "price": "4683000000000000000000",
      "reserved": "",
      "salt": "0xbb3bcde8f402f63c438518a7edb3516d3430db0f8f8d58c702a73015d2588937",
      "assetIds": [
        "55464657044963196816950587289035428064568320970692304673817341489687522457605",
        "55464657044963196816950587289035428064568320970692304673817341489687522457601"
      ]
    },
    {
      "x": 377,
      "y": 349,
      "size": 1,
      "price": "4683000000000000000000",
      "reserved": "",
      "salt": "0xaafbe9e17a586ebff92e7424ad5ad8807cbaceced7613a7416820a41a9728a20",
      "assetIds": [
        "55464657044963196816950587289035428064568320970692304673817341489687522457603",
        "55464657044963196816950587289035428064568320970692304673817341489687522457602"
      ]
    },
    {
      "x": 374,
      "y": 351,
      "size": 1,
      "price": "4683000000000000000000",
      "reserved": "",
      "salt": "0x08a238ea7a183f6f2345fe552e1b58c18455cbd1fe79e3930d6e37ac19d195f5",
      "assetIds": [
        "55464657044963196816950587289035428064568320970692304673817341489687522457605",
        "55464657044963196816950587289035428064568320970692304673817341489687522457601"
      ]
    },
    {
      "x": 375,
      "y": 351,
      "size": 1,
      "price": "4683000000000000000000",
      "reserved": "",
      "salt": "0x8e5c4fe1589dcf87c86a666f085684c8f3d1ff97c29c356c9f100957181fccb2",
      "assetIds": [
        "55464657044963196816950587289035428064568320970692304673817341489687522457605",
        "55464657044963196816950587289035428064568320970692304673817341489687522457601"
      ]
    },
    {
      "x": 375,
      "y": 352,
      "size": 1,
      "price": "4683000000000000000000",
      "reserved": "",
      "salt": "0x28d9e345bb6784809e82357643c19b68ed6247339a77cb7ab253afd7ea80f9c6",
      "assetIds": [
        "55464657044963196816950587289035428064568320970692304673817341489687522457601",
        "55464657044963196816950587289035428064568320970692304673817341489687522457603"
      ]
    },
    {
      "x": 375,
      "y": 350,
      "size": 1,
      "price": "4683000000000000000000",
      "reserved": "",
      "salt": "0x17b4cc3ae106424db750b4b39f0b5825aaf6474f1e403f89d1002467b6e72514",
      "assetIds": [
        "55464657044963196816950587289035428064568320970692304673817341489687522457605",
        "55464657044963196816950587289035428064568320970692304673817341489687522457601"
      ]
    },
    {
      "x": 374,
      "y": 352,
      "size": 1,
      "price": "4683000000000000000000",
      "reserved": "",
      "salt": "0x77a84bd976d3f057d787ec700b4db4776f5c59ae04b8a73a32a3242720003cfd",
      "assetIds": [
        "55464657044963196816950587289035428064568320970692304673817341489687522457601",
        "55464657044963196816950587289035428064568320970692304673817341489687522457603"
      ]
    },
    {
      "x": 373,
      "y": 352,
      "size": 1,
      "price": "4683000000000000000000",
      "reserved": "",
      "salt": "0xf95df1c887536348c704ae2543ae7624aac4dd59f6f262d5fe39628a55cf5580",
      "assetIds": [
        "55464657044963196816950587289035428064568320970692304673817341489687522457602",
        "55464657044963196816950587289035428064568320970692304673817341489687522457604"
      ]
    },
    {
      "x": 373,
      "y": 351,
      "size": 1,
      "price": "4683000000000000000000",
      "reserved": "",
      "salt": "0x3963f2de670862035a4bdd66389701c2d32def2869fa8f3f760f5be18a43df04",
      "assetIds": [
        "55464657044963196816950587289035428064568320970692304673817341489687522457605",
        "55464657044963196816950587289035428064568320970692304673817341489687522457601"
      ]
    },
    {
      "x": 376,
      "y": 351,
      "size": 1,
      "price": "4683000000000000000000",
      "reserved": "",
      "salt": "0xcbd8f107219be25de39871b44cad80f1f5ffa3d4de903bd09352ad897ea539e8",
      "assetIds": [
        "55464657044963196816950587289035428064568320970692304673817341489687522457605",
        "55464657044963196816950587289035428064568320970692304673817341489687522457601"
      ]
    },
    {
      "x": 377,
      "y": 351,
      "size": 1,
      "price": "4683000000000000000000",
      "reserved": "",
      "salt": "0xd03776962764e2404e184673a09db4e0242b194d2c1f040ab47792937274e6b5",
      "assetIds": [
        "55464657044963196816950587289035428064568320970692304673817341489687522457603",
        "55464657044963196816950587289035428064568320970692304673817341489687522457602"
      ]
    },
    {
      "x": 378,
      "y": 351,
      "size": 1,
      "price": "4683000000000000000000",
      "reserved": "",
      "salt": "0x21994edb9c134fa9249365ea58bfd9f2d771060ed2cf4d7430974c81e97bfbd9",
      "assetIds": [
        "55464657044963196816950587289035428064568320970692304673817341489687522457602",
        "55464657044963196816950587289035428064568320970692304673817341489687522457604"
      ]
    },
    {
      "x": 380,
      "y": 350,
      "size": 1,
      "price": "4683000000000000000000",
      "reserved": "",
      "salt": "0x4663000e4251744e167980d43307557b69a6f399cd924612cdf78011a5f9b6da",
      "assetIds": [
        "55464657044963196816950587289035428064568320970692304673817341489687522457602",
        "55464657044963196816950587289035428064568320970692304673817341489687522457604"
      ]
    },
    {
      "x": 381,
      "y": 350,
      "size": 1,
      "price": "4683000000000000000000",
      "reserved": "",
      "salt": "0xec67a0d2ea5acda3e6b0819bb4a51158b6edde8451e9870eb494e7ce5f3eb8a0",
      "assetIds": [
        "55464657044963196816950587289035428064568320970692304673817341489687522457605",
        "55464657044963196816950587289035428064568320970692304673817341489687522457601"
      ]
    },
    {
      "x": 381,
      "y": 351,
      "size": 1,
      "price": "4683000000000000000000",
      "reserved": "",
      "salt": "0xf0334a3f17c24412c20a194b326ab746a8444307fc20e54ae55f68bcbaded469",
      "assetIds": [
        "55464657044963196816950587289035428064568320970692304673817341489687522457601",
        "55464657044963196816950587289035428064568320970692304673817341489687522457603"
      ]
    },
    {
      "x": 376,
      "y": 352,
      "size": 1,
      "price": "4683000000000000000000",
      "reserved": "",
      "salt": "0x585a804526ebf094a4f3f0a5d689246162ffbeb84977f0bdfba74e39fde3f9e3",
      "assetIds": [
        "55464657044963196816950587289035428064568320970692304673817341489687522457601",
        "55464657044963196816950587289035428064568320970692304673817341489687522457603"
      ]
    },
    {
      "x": 377,
      "y": 352,
      "size": 1,
      "price": "4683000000000000000000",
      "reserved": "",
      "salt": "0x33278ab86417d32720b8e6f5fdd1e86ca9a151f0f5ea0cde64e212ef17dfa66c",
      "assetIds": [
        "55464657044963196816950587289035428064568320970692304673817341489687522457602",
        "55464657044963196816950587289035428064568320970692304673817341489687522457604"
      ]
    },
    {
      "x": 378,
      "y": 352,
      "size": 1,
      "price": "4683000000000000000000",
      "reserved": "",
      "salt": "0x9b4dd92135170c301dddd71e5433bef9c5458c3cdd514aa12c26655a4b1904c1",
      "assetIds": [
        "55464657044963196816950587289035428064568320970692304673817341489687522457601",
        "55464657044963196816950587289035428064568320970692304673817341489687522457603"
      ]
    },
    {
      "x": 379,
      "y": 352,
      "size": 1,
      "price": "4683000000000000000000",
      "reserved": "",
      "salt": "0x8b57ec4f78fa2fa085695bf8cec6e55693d82d05eecdc69d4513781a054abc2f",
      "assetIds": [
        "55464657044963196816950587289035428064568320970692304673817341489687522457603",
        "55464657044963196816950587289035428064568320970692304673817341489687522457602"
      ]
    },
    {
      "x": 380,
      "y": 352,
      "size": 1,
      "price": "4683000000000000000000",
      "reserved": "",
      "salt": "0x0c98ce941790fcef3f963a24de9c0c2d9d679bd6bc0a27144fc32c4728ff381f",
      "assetIds": [
        "55464657044963196816950587289035428064568320970692304673817341489687522457603",
        "55464657044963196816950587289035428064568320970692304673817341489687522457602"
      ]
    },
    {
      "x": 381,
      "y": 352,
      "size": 1,
      "price": "4683000000000000000000",
      "reserved": "",
      "salt": "0x1cdbf7d2dae2728818c9c37319c8681e9e9a000a6db0ce628be13d3ee1780a81",
      "assetIds": [
        "55464657044963196816950587289035428064568320970692304673817341489687522457601",
        "55464657044963196816950587289035428064568320970692304673817341489687522457603"
      ]
    },
    {
      "x": 379,
      "y": 351,
      "size": 1,
      "price": "4683000000000000000000",
      "reserved": "",
      "salt": "0x7b3ad6c6cd438d2cd012851fbe6ade27feca999b608ed87018223ad30226ddc8",
      "assetIds": [
        "55464657044963196816950587289035428064568320970692304673817341489687522457601",
        "55464657044963196816950587289035428064568320970692304673817341489687522457603"
      ]
    },
    {
      "x": 380,
      "y": 351,
      "size": 1,
      "price": "4683000000000000000000",
      "reserved": "",
      "salt": "0x1cce50621208b39da076719807a8fe807874e02f50036d77c520f42aabbb8a4e",
      "assetIds": [
        "55464657044963196816950587289035428064568320970692304673817341489687522457603",
        "55464657044963196816950587289035428064568320970692304673817341489687522457602"
      ]
    },
    {
      "x": 382,
      "y": 350,
      "size": 1,
      "price": "4683000000000000000000",
      "reserved": "",
      "salt": "0x2e7ffd319e6b0d385effeb60bcd313acae1ffbf5f6d25b7c063921d6057c41ea",
      "assetIds": [
        "55464657044963196816950587289035428064568320970692304673817341489687522457605",
        "55464657044963196816950587289035428064568320970692304673817341489687522457601"
      ]
    },
    {
      "x": 383,
      "y": 350,
      "size": 1,
      "price": "4683000000000000000000",
      "reserved": "",
      "salt": "0xfa05f2e75437dd4a3ed085599163e4f508518adeb0e6e12df91a7d8131c51c5e",
      "assetIds": [
        "55464657044963196816950587289035428064568320970692304673817341489687522457605",
        "55464657044963196816950587289035428064568320970692304673817341489687522457601"
      ]
    },
    {
      "x": 384,
      "y": 350,
      "size": 1,
      "price": "4683000000000000000000",
      "reserved": "",
      "salt": "0xca71e62cd405659061cc8e0fcd654e9af5610890fb6477aadef650157f1341e1",
      "assetIds": [
        "55464657044963196816950587289035428064568320970692304673817341489687522457603",
        "55464657044963196816950587289035428064568320970692304673817341489687522457602"
      ]
    },
    {
      "x": 385,
      "y": 350,
      "size": 1,
      "price": "4683000000000000000000",
      "reserved": "",
      "salt": "0xdc172abc4e40a0a3243ad37c8e9ea0ddd0f1623a01f29ba03a546edbd2b25659",
      "assetIds": [
        "55464657044963196816950587289035428064568320970692304673817341489687522457601",
        "55464657044963196816950587289035428064568320970692304673817341489687522457603"
      ]
    },
    {
      "x": 386,
      "y": 350,
      "size": 1,
      "price": "4683000000000000000000",
      "reserved": "",
      "salt": "0xe69950b69a37c3fb2cfcf2fd7bb839a0fcd408cbadad868fb6518cb8dd4c026f",
      "assetIds": [
        "55464657044963196816950587289035428064568320970692304673817341489687522457601",
        "55464657044963196816950587289035428064568320970692304673817341489687522457603"
      ]
    },
    {
      "x": 387,
      "y": 349,
      "size": 1,
      "price": "4683000000000000000000",
      "reserved": "",
      "salt": "0xb26b8d7a9c402a4dd4161e9cdcbf66b42315cf4eb43fab3d8984981bd065f830",
      "assetIds": [
        "55464657044963196816950587289035428064568320970692304673817341489687522457603",
        "55464657044963196816950587289035428064568320970692304673817341489687522457602"
      ]
    },
    {
      "x": 387,
      "y": 348,
      "size": 1,
      "price": "4683000000000000000000",
      "reserved": "",
      "salt": "0x38df7127e599d05a913d124499ee744454799ad15593f8305de3dcda08feeee6",
      "assetIds": [
        "55464657044963196816950587289035428064568320970692304673817341489687522457605",
        "55464657044963196816950587289035428064568320970692304673817341489687522457601"
      ]
    },
    {
      "x": 387,
      "y": 347,
      "size": 1,
      "price": "4683000000000000000000",
      "reserved": "",
      "salt": "0x63c623615d337c7955c587ad0d380c9c0face9a276d768c108648a5d6c695095",
      "assetIds": [
        "55464657044963196816950587289035428064568320970692304673817341489687522457601",
        "55464657044963196816950587289035428064568320970692304673817341489687522457603"
      ]
    },
    {
      "x": 387,
      "y": 346,
      "size": 1,
      "price": "4683000000000000000000",
      "reserved": "",
      "salt": "0x0e35344ded0856ac668e5d5f1369852da332b6c7150aa89755d9de06fb35bc80",
      "assetIds": [
        "55464657044963196816950587289035428064568320970692304673817341489687522457602",
        "55464657044963196816950587289035428064568320970692304673817341489687522457604"
      ]
    },
    {
      "x": 387,
      "y": 345,
      "size": 1,
      "price": "4683000000000000000000",
      "reserved": "",
      "salt": "0xce81265916fe8a79406fc772cc272094064f8ea8156b3d059bf8f25409faa484",
      "assetIds": [
        "55464657044963196816950587289035428064568320970692304673817341489687522457601",
        "55464657044963196816950587289035428064568320970692304673817341489687522457603"
      ]
    },
    {
      "x": 386,
      "y": 344,
      "size": 1,
      "price": "4683000000000000000000",
      "reserved": "",
      "salt": "0x5d724e0b0961ab1890986199ef7328de5b65f66141c2a2e0983fe83d6e70f50d",
      "assetIds": [
        "55464657044963196816950587289035428064568320970692304673817341489687522457605",
        "55464657044963196816950587289035428064568320970692304673817341489687522457601"
      ]
    },
    {
      "x": 386,
      "y": 343,
      "size": 1,
      "price": "4683000000000000000000",
      "reserved": "",
      "salt": "0xb8075f40d01e86286b6693f979164aaf44a9e4b923bab2b721e93b5b434f4754",
      "assetIds": [
        "55464657044963196816950587289035428064568320970692304673817341489687522457603",
        "55464657044963196816950587289035428064568320970692304673817341489687522457602"
      ]
    },
    {
      "x": 386,
      "y": 342,
      "size": 1,
      "price": "4683000000000000000000",
      "reserved": "",
      "salt": "0x4cff3bb977f472e37da5c639188ff6f03f4e695204d99f0b5fc10bec46add890",
      "assetIds": [
        "55464657044963196816950587289035428064568320970692304673817341489687522457601",
        "55464657044963196816950587289035428064568320970692304673817341489687522457603"
      ]
    },
    {
      "x": 386,
      "y": 341,
      "size": 1,
      "price": "4683000000000000000000",
      "reserved": "",
      "salt": "0x74f26c232dcedd57d9bfd92d958ef5040ad1bde6823616ea41970d88a9f2b776",
      "assetIds": [
        "55464657044963196816950587289035428064568320970692304673817341489687522457605",
        "55464657044963196816950587289035428064568320970692304673817341489687522457601"
      ]
    },
    {
      "x": 386,
      "y": 340,
      "size": 1,
      "price": "4683000000000000000000",
      "reserved": "",
      "salt": "0x303e7d5b1ed6f3f04434869a86d27d75cbca7115bed68a256bc5952e28577912",
      "assetIds": [
        "55464657044963196816950587289035428064568320970692304673817341489687522457605",
        "55464657044963196816950587289035428064568320970692304673817341489687522457601"
      ]
    },
    {
      "x": 386,
      "y": 339,
      "size": 1,
      "price": "4683000000000000000000",
      "reserved": "",
      "salt": "0xd3e158531ea199e0e345f0c57b3be2bcc70643f33498aa33a288cfb5c2fabe0b",
      "assetIds": [
        "55464657044963196816950587289035428064568320970692304673817341489687522457605",
        "55464657044963196816950587289035428064568320970692304673817341489687522457601"
      ]
    },
    {
      "x": 386,
      "y": 338,
      "size": 1,
      "price": "4683000000000000000000",
      "reserved": "",
      "salt": "0x584f987a8aa374063bda94ec2ac1566918b87b3904f85723c6513e938f2bdfea",
      "assetIds": [
        "55464657044963196816950587289035428064568320970692304673817341489687522457602",
        "55464657044963196816950587289035428064568320970692304673817341489687522457604"
      ]
    },
    {
      "x": 385,
      "y": 337,
      "size": 1,
      "price": "4683000000000000000000",
      "reserved": "",
      "salt": "0xae05812add7992c18c8b11252b95e17c328131a0f23b713b03412e335d26782b",
      "assetIds": [
        "55464657044963196816950587289035428064568320970692304673817341489687522457602",
        "55464657044963196816950587289035428064568320970692304673817341489687522457604"
      ]
    },
    {
      "x": 384,
      "y": 337,
      "size": 1,
      "price": "4683000000000000000000",
      "reserved": "",
      "salt": "0xab23dd3cebdae428857b93773848b945d22f27aeefcdf97f56b2e10003e8d0b5",
      "assetIds": [
        "55464657044963196816950587289035428064568320970692304673817341489687522457603",
        "55464657044963196816950587289035428064568320970692304673817341489687522457602"
      ]
    },
    {
      "x": 384,
      "y": 336,
      "size": 1,
      "price": "4683000000000000000000",
      "reserved": "",
      "salt": "0x2937740738786ccd84d63986ef21439e8f5a29fec66d81ca3c1eca37b83bcaf9",
      "assetIds": [
        "55464657044963196816950587289035428064568320970692304673817341489687522457605",
        "55464657044963196816950587289035428064568320970692304673817341489687522457601"
      ]
    },
    {
      "x": 385,
      "y": 336,
      "size": 1,
      "price": "4683000000000000000000",
      "reserved": "",
      "salt": "0x500ab501153d56c29c4727708fcec817d35af05f13bee916db3b3b33c9f07e1f",
      "assetIds": [
        "55464657044963196816950587289035428064568320970692304673817341489687522457601",
        "55464657044963196816950587289035428064568320970692304673817341489687522457603"
      ]
    },
    {
      "x": 386,
      "y": 336,
      "size": 1,
      "price": "4683000000000000000000",
      "reserved": "",
      "salt": "0xf561059548143e2ccfd655576407dc1e90e5cbd29ca865855723f7c9120f2df2",
      "assetIds": [
        "55464657044963196816950587289035428064568320970692304673817341489687522457602",
        "55464657044963196816950587289035428064568320970692304673817341489687522457604"
      ]
    },
    {
      "x": 387,
      "y": 336,
      "size": 1,
      "price": "4683000000000000000000",
      "reserved": "",
      "salt": "0x5d30896de20c99f444f78b433fc978cc1fedc6435c8363d16610ab7371bd68e9",
      "assetIds": [
        "55464657044963196816950587289035428064568320970692304673817341489687522457605",
        "55464657044963196816950587289035428064568320970692304673817341489687522457601"
      ]
    },
    {
      "x": 388,
      "y": 336,
      "size": 1,
      "price": "4683000000000000000000",
      "reserved": "",
      "salt": "0xc9a913416b5d151dbaed3233f3a2d537d1c194352be46fac4f4d217b007f3d5b",
      "assetIds": [
        "55464657044963196816950587289035428064568320970692304673817341489687522457605",
        "55464657044963196816950587289035428064568320970692304673817341489687522457601"
      ]
    },
    {
      "x": 388,
      "y": 337,
      "size": 1,
      "price": "4683000000000000000000",
      "reserved": "",
      "salt": "0x7962fdc7160959fe1aeac44411544c0ffe58e146ba97f8bbdec1fd71fe90a58b",
      "assetIds": [
        "55464657044963196816950587289035428064568320970692304673817341489687522457601",
        "55464657044963196816950587289035428064568320970692304673817341489687522457603"
      ]
    },
    {
      "x": 389,
      "y": 337,
      "size": 1,
      "price": "4683000000000000000000",
      "reserved": "",
      "salt": "0x11f7aa82416e44cbe94a94ee9e9b7847c8c7368d75213909dd5ce284da499b42",
      "assetIds": [
        "55464657044963196816950587289035428064568320970692304673817341489687522457601",
        "55464657044963196816950587289035428064568320970692304673817341489687522457603"
      ]
    },
    {
      "x": 390,
      "y": 337,
      "size": 1,
      "price": "4683000000000000000000",
      "reserved": "",
      "salt": "0x154e698d45c24b03e1aa6553e90c076c5ce5e961a40fef10d61e740dd42f330c",
      "assetIds": [
        "55464657044963196816950587289035428064568320970692304673817341489687522457605",
        "55464657044963196816950587289035428064568320970692304673817341489687522457601"
      ]
    },
    {
      "x": 391,
      "y": 337,
      "size": 1,
      "price": "4683000000000000000000",
      "reserved": "",
      "salt": "0xfba9ab89bcbc8ac538b3618b2ce6ccc06152c99a118c0052b3ceaddd1a53ed83",
      "assetIds": [
        "55464657044963196816950587289035428064568320970692304673817341489687522457602",
        "55464657044963196816950587289035428064568320970692304673817341489687522457604"
      ]
    },
    {
      "x": 392,
      "y": 337,
      "size": 1,
      "price": "4683000000000000000000",
      "reserved": "",
      "salt": "0x564fe3eefeb29aa63b7262079e1819b163ddf8f767c1cbd961ac95a4dc37e28f",
      "assetIds": [
        "55464657044963196816950587289035428064568320970692304673817341489687522457603",
        "55464657044963196816950587289035428064568320970692304673817341489687522457602"
      ]
    },
    {
      "x": 393,
      "y": 337,
      "size": 1,
      "price": "4683000000000000000000",
      "reserved": "",
      "salt": "0x867fd992ecf6212c21a2e6dbe4504e2910c03313da08233cb01608eed5a94da3",
      "assetIds": [
        "55464657044963196816950587289035428064568320970692304673817341489687522457601",
        "55464657044963196816950587289035428064568320970692304673817341489687522457603"
      ]
    },
    {
      "x": 394,
      "y": 337,
      "size": 1,
      "price": "4683000000000000000000",
      "reserved": "",
      "salt": "0xa4527456f8f2b8d108995989104ec3f52403547714bc1684fc582f87c1fa4ea8",
      "assetIds": [
        "55464657044963196816950587289035428064568320970692304673817341489687522457603",
        "55464657044963196816950587289035428064568320970692304673817341489687522457602"
      ]
    },
    {
      "x": 395,
      "y": 337,
      "size": 1,
      "price": "4683000000000000000000",
      "reserved": "",
      "salt": "0x6e379ff91d55b9770e1e7b691bd3bbb4f533db6c8b7c2692475c10f3f46d3701",
      "assetIds": [
        "55464657044963196816950587289035428064568320970692304673817341489687522457605",
        "55464657044963196816950587289035428064568320970692304673817341489687522457601"
      ]
    },
    {
      "x": 392,
      "y": 336,
      "size": 1,
      "price": "4683000000000000000000",
      "reserved": "",
      "salt": "0x1778b035345b8dffe346b5de3047f8e826dc7f640c76a98a66c2558b720c7872",
      "assetIds": [
        "55464657044963196816950587289035428064568320970692304673817341489687522457601",
        "55464657044963196816950587289035428064568320970692304673817341489687522457603"
      ]
    },
    {
      "x": 391,
      "y": 336,
      "size": 1,
      "price": "4683000000000000000000",
      "reserved": "",
      "salt": "0xb4331100089910ba2826154550054d8fc11a422a4902a300290b8fcbc5bb56ef",
      "assetIds": [
        "55464657044963196816950587289035428064568320970692304673817341489687522457603",
        "55464657044963196816950587289035428064568320970692304673817341489687522457602"
      ]
    },
    {
      "x": 390,
      "y": 336,
      "size": 1,
      "price": "4683000000000000000000",
      "reserved": "",
      "salt": "0xa2880262dbeda8f5f2160f5e2dcf39cde97422982cee723e5116fd85cfc14f38",
      "assetIds": [
        "55464657044963196816950587289035428064568320970692304673817341489687522457605",
        "55464657044963196816950587289035428064568320970692304673817341489687522457601"
      ]
    },
    {
      "x": 389,
      "y": 336,
      "size": 1,
      "price": "4683000000000000000000",
      "reserved": "",
      "salt": "0x3343f8039c8372d3bc1e5a5ff8a4a2b62d8463e756b8a16854211e27551b0387",
      "assetIds": [
        "55464657044963196816950587289035428064568320970692304673817341489687522457603",
        "55464657044963196816950587289035428064568320970692304673817341489687522457602"
      ]
    },
    {
      "x": 393,
      "y": 336,
      "size": 1,
      "price": "4683000000000000000000",
      "reserved": "",
      "salt": "0xf3cf00b78311ee1eafd0cdb61d4e329f4d784a75cc0f3932aa4e2780bf9391cc",
      "assetIds": [
        "55464657044963196816950587289035428064568320970692304673817341489687522457605",
        "55464657044963196816950587289035428064568320970692304673817341489687522457601"
      ]
    },
    {
      "x": 394,
      "y": 336,
      "size": 1,
      "price": "4683000000000000000000",
      "reserved": "",
      "salt": "0xa6878db3d776fe8340f06a497d3cbb46130ec93bf5657b30642a348a246b7a2b",
      "assetIds": [
        "55464657044963196816950587289035428064568320970692304673817341489687522457603",
        "55464657044963196816950587289035428064568320970692304673817341489687522457602"
      ]
    },
    {
      "x": 395,
      "y": 336,
      "size": 1,
      "price": "4683000000000000000000",
      "reserved": "",
      "salt": "0xb9e9288f32ea73f93427432aa10a1fbad0576f9d8f86b45cba9f720aac87b560",
      "assetIds": [
        "55464657044963196816950587289035428064568320970692304673817341489687522457605",
        "55464657044963196816950587289035428064568320970692304673817341489687522457601"
      ]
    },
    {
      "x": 395,
      "y": 338,
      "size": 1,
      "price": "4683000000000000000000",
      "reserved": "",
      "salt": "0xbbafc87a0c95d0b14dd684cac96e27e7a4839819e8557f0c86b789f749efd0e5",
      "assetIds": [
        "55464657044963196816950587289035428064568320970692304673817341489687522457601",
        "55464657044963196816950587289035428064568320970692304673817341489687522457603"
      ]
    },
    {
      "x": 395,
      "y": 339,
      "size": 1,
      "price": "4683000000000000000000",
      "reserved": "",
      "salt": "0xc970ef3852a5fa6abc728258e8a2b64a5c1f34d544d97e0edbf67c8b2b967b3a",
      "assetIds": [
        "55464657044963196816950587289035428064568320970692304673817341489687522457603",
        "55464657044963196816950587289035428064568320970692304673817341489687522457602"
      ]
    },
    {
      "x": 395,
      "y": 340,
      "size": 1,
      "price": "4683000000000000000000",
      "reserved": "",
      "salt": "0xe3c579b003f9405a9ee18e14976c188663ea219b3fe91fc0134c798275ff16fa",
      "assetIds": [
        "55464657044963196816950587289035428064568320970692304673817341489687522457602",
        "55464657044963196816950587289035428064568320970692304673817341489687522457604"
      ]
    },
    {
      "x": 395,
      "y": 341,
      "size": 1,
      "price": "4683000000000000000000",
      "reserved": "",
      "salt": "0x4401155f056a5473df95f91f7f6af9be125017792b2127ce76d50fd6313ca2fa",
      "assetIds": [
        "55464657044963196816950587289035428064568320970692304673817341489687522457605",
        "55464657044963196816950587289035428064568320970692304673817341489687522457601"
      ]
    },
    {
      "x": 395,
      "y": 342,
      "size": 1,
      "price": "4683000000000000000000",
      "reserved": "",
      "salt": "0xf283faa8b28ecdc2b4f00adb76edf31021d0b3f67a9cb4982d2e6e71788ae420",
      "assetIds": [
        "55464657044963196816950587289035428064568320970692304673817341489687522457605",
        "55464657044963196816950587289035428064568320970692304673817341489687522457601"
      ]
    },
    {
      "x": 395,
      "y": 343,
      "size": 1,
      "price": "4683000000000000000000",
      "reserved": "",
      "salt": "0x08a2ed37fe61c502313fc178b12b0bcb92785cc7a3edb98fcdfdbe6413812446",
      "assetIds": [
        "55464657044963196816950587289035428064568320970692304673817341489687522457603",
        "55464657044963196816950587289035428064568320970692304673817341489687522457602"
      ]
    },
    {
      "x": 395,
      "y": 344,
      "size": 1,
      "price": "4683000000000000000000",
      "reserved": "",
      "salt": "0x855e724ce1855b6ca775577cd0d8811618dc1fc7653f3185da81d782d63a29d5",
      "assetIds": [
        "55464657044963196816950587289035428064568320970692304673817341489687522457603",
        "55464657044963196816950587289035428064568320970692304673817341489687522457602"
      ]
    },
    {
      "x": 394,
      "y": 341,
      "size": 1,
      "price": "4683000000000000000000",
      "reserved": "",
      "salt": "0x28cd18f013b9fb1c98030f4494407752668fffd42df72105f4b1d0cde0faf647",
      "assetIds": [
        "55464657044963196816950587289035428064568320970692304673817341489687522457603",
        "55464657044963196816950587289035428064568320970692304673817341489687522457602"
      ]
    },
    {
      "x": 394,
      "y": 340,
      "size": 1,
      "price": "4683000000000000000000",
      "reserved": "",
      "salt": "0xd05def88507fca046331fb654ceabe5114933c2f1c91db34e9bfa827c0045c73",
      "assetIds": [
        "55464657044963196816950587289035428064568320970692304673817341489687522457603",
        "55464657044963196816950587289035428064568320970692304673817341489687522457602"
      ]
    },
    {
      "x": 394,
      "y": 339,
      "size": 1,
      "price": "4683000000000000000000",
      "reserved": "",
      "salt": "0xd59d178b0af331901f140b26b53956f30a6d9a64cb7e2c6524190928e7b284e9",
      "assetIds": [
        "55464657044963196816950587289035428064568320970692304673817341489687522457603",
        "55464657044963196816950587289035428064568320970692304673817341489687522457602"
      ]
    },
    {
      "x": 393,
      "y": 339,
      "size": 1,
      "price": "4683000000000000000000",
      "reserved": "",
      "salt": "0x53a6b95a79e46a83b373abf5c0882a3bda43f5e2a2fac285130f27d1977be05d",
      "assetIds": [
        "55464657044963196816950587289035428064568320970692304673817341489687522457605",
        "55464657044963196816950587289035428064568320970692304673817341489687522457601"
      ]
    },
    {
      "x": 393,
      "y": 338,
      "size": 1,
      "price": "4683000000000000000000",
      "reserved": "",
      "salt": "0xd9637453087fec4b4c780d9c12011af99a53613b0d825376e5261b5d0d8547d6",
      "assetIds": [
        "55464657044963196816950587289035428064568320970692304673817341489687522457605",
        "55464657044963196816950587289035428064568320970692304673817341489687522457601"
      ]
    },
    {
      "x": 392,
      "y": 338,
      "size": 1,
      "price": "4683000000000000000000",
      "reserved": "",
      "salt": "0x20eaf89c8348ac36f43091837eb487e87e824e41b3260c0d56d76af073dea9aa",
      "assetIds": [
        "55464657044963196816950587289035428064568320970692304673817341489687522457605",
        "55464657044963196816950587289035428064568320970692304673817341489687522457601"
      ]
    },
    {
      "x": 392,
      "y": 339,
      "size": 1,
      "price": "4683000000000000000000",
      "reserved": "",
      "salt": "0xb5690bfe929abfb72babb12e5cac3e3d79538a336519b3c0c8221425a1a49ca5",
      "assetIds": [
        "55464657044963196816950587289035428064568320970692304673817341489687522457603",
        "55464657044963196816950587289035428064568320970692304673817341489687522457602"
      ]
    },
    {
      "x": 392,
      "y": 340,
      "size": 1,
      "price": "4683000000000000000000",
      "reserved": "",
      "salt": "0x91f76a5ec8ea43bb011c175d8cad20312ee156f50508d2db4f2ac6c88520dfd5",
      "assetIds": [
        "55464657044963196816950587289035428064568320970692304673817341489687522457601",
        "55464657044963196816950587289035428064568320970692304673817341489687522457603"
      ]
    },
    {
      "x": 392,
      "y": 341,
      "size": 1,
      "price": "4683000000000000000000",
      "reserved": "",
      "salt": "0xc9af234af00c528bf1772c2d4333576853e3da84fcf131cd61c85c6d2c5bcaae",
      "assetIds": [
        "55464657044963196816950587289035428064568320970692304673817341489687522457602",
        "55464657044963196816950587289035428064568320970692304673817341489687522457604"
      ]
    },
    {
      "x": 392,
      "y": 342,
      "size": 1,
      "price": "4683000000000000000000",
      "reserved": "",
      "salt": "0xd7a3bb491ae0a785750119183710258ba7a16637b9c8c1219be57e949851e441",
      "assetIds": [
        "55464657044963196816950587289035428064568320970692304673817341489687522457603",
        "55464657044963196816950587289035428064568320970692304673817341489687522457602"
      ]
    },
    {
      "x": 392,
      "y": 343,
      "size": 1,
      "price": "4683000000000000000000",
      "reserved": "",
      "salt": "0x1fbac9da4c0d79d136d9e3348ea656fb9cfba8eb3c741add526881986afe3564",
      "assetIds": [
        "55464657044963196816950587289035428064568320970692304673817341489687522457602",
        "55464657044963196816950587289035428064568320970692304673817341489687522457604"
      ]
    },
    {
      "x": 393,
      "y": 340,
      "size": 1,
      "price": "4683000000000000000000",
      "reserved": "",
      "salt": "0x445f59d863fb6cc5f61583c2e2679d5a39975174a196519666fe47923e463cbf",
      "assetIds": [
        "55464657044963196816950587289035428064568320970692304673817341489687522457601",
        "55464657044963196816950587289035428064568320970692304673817341489687522457603"
      ]
    },
    {
      "x": 393,
      "y": 341,
      "size": 1,
      "price": "4683000000000000000000",
      "reserved": "",
      "salt": "0xdd40c64b2f4dcb5bdd9ffbbbec0256bdc01b0448831eef96b4dc0ed948851d10",
      "assetIds": [
        "55464657044963196816950587289035428064568320970692304673817341489687522457602",
        "55464657044963196816950587289035428064568320970692304673817341489687522457604"
      ]
    },
    {
      "x": 391,
      "y": 340,
      "size": 1,
      "price": "4683000000000000000000",
      "reserved": "",
      "salt": "0x47a9b6d65b57e454558e291967fb672c0704bd38af1007ffb6a415d7795d5490",
      "assetIds": [
        "55464657044963196816950587289035428064568320970692304673817341489687522457601",
        "55464657044963196816950587289035428064568320970692304673817341489687522457603"
      ]
    },
    {
      "x": 390,
      "y": 340,
      "size": 1,
      "price": "4683000000000000000000",
      "reserved": "",
      "salt": "0x125b5bf58afb232365d3d005ef24dfa0e8494b73211d032ba25c7e09bccbdc28",
      "assetIds": [
        "55464657044963196816950587289035428064568320970692304673817341489687522457601",
        "55464657044963196816950587289035428064568320970692304673817341489687522457603"
      ]
    },
    {
      "x": 390,
      "y": 339,
      "size": 1,
      "price": "4683000000000000000000",
      "reserved": "",
      "salt": "0xbedefd6cdbbce09987668e257fec471d01da98f48c42aaa30fae9060df28ed94",
      "assetIds": [
        "55464657044963196816950587289035428064568320970692304673817341489687522457602",
        "55464657044963196816950587289035428064568320970692304673817341489687522457604"
      ]
    },
    {
      "x": 390,
      "y": 338,
      "size": 1,
      "price": "4683000000000000000000",
      "reserved": "",
      "salt": "0x181407955ac7d42aab016260d4343188d0f3423606f62f16cd99d38f36f55ed0",
      "assetIds": [
        "55464657044963196816950587289035428064568320970692304673817341489687522457603",
        "55464657044963196816950587289035428064568320970692304673817341489687522457602"
      ]
    },
    {
      "x": 389,
      "y": 338,
      "size": 1,
      "price": "4683000000000000000000",
      "reserved": "",
      "salt": "0x88342548b501abb1887f7ac0033bb2ca1dd58e6a78cfd3339c0488f1a58b7087",
      "assetIds": [
        "55464657044963196816950587289035428064568320970692304673817341489687522457602",
        "55464657044963196816950587289035428064568320970692304673817341489687522457604"
      ]
    },
    {
      "x": 389,
      "y": 339,
      "size": 1,
      "price": "4683000000000000000000",
      "reserved": "",
      "salt": "0x2a3427b4634efa9bbeb0688d2f4d94a70a3cddb3e74f04979dbfec8468292b50",
      "assetIds": [
        "55464657044963196816950587289035428064568320970692304673817341489687522457605",
        "55464657044963196816950587289035428064568320970692304673817341489687522457601"
      ]
    },
    {
      "x": 389,
      "y": 340,
      "size": 1,
      "price": "4683000000000000000000",
      "reserved": "",
      "salt": "0x9bb5d24d59324305806deaeddb9b6811b455c6398d4e92a635bce076569659a1",
      "assetIds": [
        "55464657044963196816950587289035428064568320970692304673817341489687522457601",
        "55464657044963196816950587289035428064568320970692304673817341489687522457603"
      ]
    },
    {
      "x": 391,
      "y": 338,
      "size": 1,
      "price": "4683000000000000000000",
      "reserved": "",
      "salt": "0x9c2165e54373301e5341edaf0db0eea6c61fcd0b3bff8b82e548ec55afc69071",
      "assetIds": [
        "55464657044963196816950587289035428064568320970692304673817341489687522457603",
        "55464657044963196816950587289035428064568320970692304673817341489687522457602"
      ]
    },
    {
      "x": 394,
      "y": 338,
      "size": 1,
      "price": "4683000000000000000000",
      "reserved": "",
      "salt": "0x8190f62887dbcf2899a110de4d59d2d7fc328d24e52d412f629f4bd7144cac97",
      "assetIds": [
        "55464657044963196816950587289035428064568320970692304673817341489687522457603",
        "55464657044963196816950587289035428064568320970692304673817341489687522457602"
      ]
    },
    {
      "x": 387,
      "y": 337,
      "size": 1,
      "price": "4683000000000000000000",
      "reserved": "",
      "salt": "0x9e6842e4eec424e3c84007d44753403df94421cf5f1b78cbe648abddb1b1a817",
      "assetIds": [
        "55464657044963196816950587289035428064568320970692304673817341489687522457605",
        "55464657044963196816950587289035428064568320970692304673817341489687522457601"
      ]
    },
    {
      "x": 386,
      "y": 337,
      "size": 1,
      "price": "4683000000000000000000",
      "reserved": "",
      "salt": "0x2eacb0b68d33144795659447055f1e0ea0fa4ace63abb4016ad6d9837496273e",
      "assetIds": [
        "55464657044963196816950587289035428064568320970692304673817341489687522457605",
        "55464657044963196816950587289035428064568320970692304673817341489687522457601"
      ]
    },
    {
      "x": 387,
      "y": 338,
      "size": 1,
      "price": "4683000000000000000000",
      "reserved": "",
      "salt": "0x9098d70ce61ed6cf2362e81ff1681e1fa6fd741c2eeb4ad3465df0d63d2f5a9d",
      "assetIds": [
        "55464657044963196816950587289035428064568320970692304673817341489687522457603",
        "55464657044963196816950587289035428064568320970692304673817341489687522457602"
      ]
    },
    {
      "x": 388,
      "y": 338,
      "size": 1,
      "price": "4683000000000000000000",
      "reserved": "",
      "salt": "0xd4b5f926659143ce4b1257e633ef2269e48912d4611b9387fa778c497d1071a9",
      "assetIds": [
        "55464657044963196816950587289035428064568320970692304673817341489687522457602",
        "55464657044963196816950587289035428064568320970692304673817341489687522457604"
      ]
    },
    {
      "x": 385,
      "y": 338,
      "size": 1,
      "price": "4683000000000000000000",
      "reserved": "",
      "salt": "0x141a5625b4cb22465f7eb595d337899a9d28b6e24ab47f0c3b2b1353300eab86",
      "assetIds": [
        "55464657044963196816950587289035428064568320970692304673817341489687522457601",
        "55464657044963196816950587289035428064568320970692304673817341489687522457603"
      ]
    },
    {
      "x": 384,
      "y": 338,
      "size": 1,
      "price": "4683000000000000000000",
      "reserved": "",
      "salt": "0x8b12747de92f06a44f8190d34c9ae50e78c311f173981b0d92f778c0895916b6",
      "assetIds": [
        "55464657044963196816950587289035428064568320970692304673817341489687522457601",
        "55464657044963196816950587289035428064568320970692304673817341489687522457603"
      ]
    },
    {
      "x": 385,
      "y": 339,
      "size": 1,
      "price": "4683000000000000000000",
      "reserved": "",
      "salt": "0x3012f8d2f520932df53f4a3169bf81778d03655d734182f2498d5926ff4eae11",
      "assetIds": [
        "55464657044963196816950587289035428064568320970692304673817341489687522457605",
        "55464657044963196816950587289035428064568320970692304673817341489687522457601"
      ]
    },
    {
      "x": 387,
      "y": 340,
      "size": 1,
      "price": "4683000000000000000000",
      "reserved": "",
      "salt": "0x2669d62db1964a651fcfdaae5bce62ccdfef9625dd1d2e9d1b07bcbef0aa3afe",
      "assetIds": [
        "55464657044963196816950587289035428064568320970692304673817341489687522457605",
        "55464657044963196816950587289035428064568320970692304673817341489687522457601"
      ]
    },
    {
      "x": 388,
      "y": 340,
      "size": 1,
      "price": "4683000000000000000000",
      "reserved": "",
      "salt": "0xeb688b6da8eee4d779fd774f75d37ed3eefe87c6fbfa1d7c136fd1359e3d1a8f",
      "assetIds": [
        "55464657044963196816950587289035428064568320970692304673817341489687522457605",
        "55464657044963196816950587289035428064568320970692304673817341489687522457601"
      ]
    },
    {
      "x": 384,
      "y": 339,
      "size": 1,
      "price": "4683000000000000000000",
      "reserved": "",
      "salt": "0xca75bcd1840bd8cf776e6bd4ef15af0e0b892d18717615d0c8236836250e21a0",
      "assetIds": [
        "55464657044963196816950587289035428064568320970692304673817341489687522457602",
        "55464657044963196816950587289035428064568320970692304673817341489687522457604"
      ]
    },
    {
      "x": 387,
      "y": 339,
      "size": 1,
      "price": "4683000000000000000000",
      "reserved": "",
      "salt": "0x257128d6a51c75d77a7006dd90f391b78b8ceb6c92fb7ee4b4dfb140e29e27b9",
      "assetIds": [
        "55464657044963196816950587289035428064568320970692304673817341489687522457603",
        "55464657044963196816950587289035428064568320970692304673817341489687522457602"
      ]
    },
    {
      "x": 388,
      "y": 339,
      "size": 1,
      "price": "4683000000000000000000",
      "reserved": "",
      "salt": "0xd01ba0923b76c4d7855267f50e90034d518fb5f95b1f8d1c6e72944917c7092d",
      "assetIds": [
        "55464657044963196816950587289035428064568320970692304673817341489687522457605",
        "55464657044963196816950587289035428064568320970692304673817341489687522457601"
      ]
    },
    {
      "x": 391,
      "y": 339,
      "size": 1,
      "price": "4683000000000000000000",
      "reserved": "",
      "salt": "0xa1ce130db9766918c8a4434f95a75d32c74ecef7aac5267bddd70e809cf8a11e",
      "assetIds": [
        "55464657044963196816950587289035428064568320970692304673817341489687522457605",
        "55464657044963196816950587289035428064568320970692304673817341489687522457601"
      ]
    },
    {
      "x": 392,
      "y": 344,
      "size": 1,
      "price": "4683000000000000000000",
      "reserved": "",
      "salt": "0xe981c3faa88fe0f8328e909d0a71cea00e99c1db29633f0624f3842933e0235c",
      "assetIds": [
        "55464657044963196816950587289035428064568320970692304673817341489687522457605",
        "55464657044963196816950587289035428064568320970692304673817341489687522457601"
      ]
    },
    {
      "x": 391,
      "y": 341,
      "size": 1,
      "price": "4683000000000000000000",
      "reserved": "",
      "salt": "0x814bc3b55a9424914a9cfae7459071ddc9c110478a839663e1d787fcf7876983",
      "assetIds": [
        "55464657044963196816950587289035428064568320970692304673817341489687522457602",
        "55464657044963196816950587289035428064568320970692304673817341489687522457604"
      ]
    },
    {
      "x": 389,
      "y": 341,
      "size": 1,
      "price": "4683000000000000000000",
      "reserved": "",
      "salt": "0x6b8103a4ad9129a21507beff814e363c53a4f93648fdbdbb64788bd67981fdee",
      "assetIds": [
        "55464657044963196816950587289035428064568320970692304673817341489687522457603",
        "55464657044963196816950587289035428064568320970692304673817341489687522457602"
      ]
    },
    {
      "x": 388,
      "y": 341,
      "size": 1,
      "price": "4683000000000000000000",
      "reserved": "",
      "salt": "0xefd8a73d7371f5140c342e1fd34253f586e7bf34d61776e4fe71fd5a09e31e75",
      "assetIds": [
        "55464657044963196816950587289035428064568320970692304673817341489687522457601",
        "55464657044963196816950587289035428064568320970692304673817341489687522457603"
      ]
    },
    {
      "x": 387,
      "y": 341,
      "size": 1,
      "price": "4683000000000000000000",
      "reserved": "",
      "salt": "0x03b68373554a0739d83ff0cd6db7f78ebb2c12fe04496e5542028454c820f1cb",
      "assetIds": [
        "55464657044963196816950587289035428064568320970692304673817341489687522457601",
        "55464657044963196816950587289035428064568320970692304673817341489687522457603"
      ]
    },
    {
      "x": 385,
      "y": 341,
      "size": 1,
      "price": "4683000000000000000000",
      "reserved": "",
      "salt": "0x7b88e99ed10a7f91aa6beccd57f8a14edfbb89a5701509fe76bd3a4ed8f3a4cf",
      "assetIds": [
        "55464657044963196816950587289035428064568320970692304673817341489687522457601",
        "55464657044963196816950587289035428064568320970692304673817341489687522457603"
      ]
    },
    {
      "x": 384,
      "y": 341,
      "size": 1,
      "price": "4683000000000000000000",
      "reserved": "",
      "salt": "0x06fd92268f80733e1b6ec15ae18078c8c529deaa4aa676ca9d232dab631bd035",
      "assetIds": [
        "55464657044963196816950587289035428064568320970692304673817341489687522457602",
        "55464657044963196816950587289035428064568320970692304673817341489687522457604"
      ]
    },
    {
      "x": 384,
      "y": 340,
      "size": 1,
      "price": "4683000000000000000000",
      "reserved": "",
      "salt": "0x6be1cea6e0a434eba245e0faac96a8bd6640d73b3832b54252dae0ba8290fe53",
      "assetIds": [
        "55464657044963196816950587289035428064568320970692304673817341489687522457605",
        "55464657044963196816950587289035428064568320970692304673817341489687522457601"
      ]
    },
    {
      "x": 385,
      "y": 342,
      "size": 1,
      "price": "4683000000000000000000",
      "reserved": "",
      "salt": "0xe37ed30cf7cf9154ed6e8aae6294b2da971dac57ee565fdf0b3d2029819350a0",
      "assetIds": [
        "55464657044963196816950587289035428064568320970692304673817341489687522457605",
        "55464657044963196816950587289035428064568320970692304673817341489687522457601"
      ]
    },
    {
      "x": 387,
      "y": 342,
      "size": 1,
      "price": "4683000000000000000000",
      "reserved": "",
      "salt": "0x8fd798ac486a6adab268bad3d2f271d460204f7bbe30974296ce2fbff806333a",
      "assetIds": [
        "55464657044963196816950587289035428064568320970692304673817341489687522457601",
        "55464657044963196816950587289035428064568320970692304673817341489687522457603"
      ]
    },
    {
      "x": 388,
      "y": 342,
      "size": 1,
      "price": "4683000000000000000000",
      "reserved": "",
      "salt": "0xb6a11a83a00108fe120abd71b3651b77575dee328427956012c58b84f603d26e",
      "assetIds": [
        "55464657044963196816950587289035428064568320970692304673817341489687522457605",
        "55464657044963196816950587289035428064568320970692304673817341489687522457601"
      ]
    },
    {
      "x": 389,
      "y": 342,
      "size": 1,
      "price": "4683000000000000000000",
      "reserved": "",
      "salt": "0x31d058dc4913a56c411596513ae89f52f6d789b0c63c83e0634afaa459a5bec5",
      "assetIds": [
        "55464657044963196816950587289035428064568320970692304673817341489687522457605",
        "55464657044963196816950587289035428064568320970692304673817341489687522457601"
      ]
    },
    {
      "x": 390,
      "y": 342,
      "size": 1,
      "price": "4683000000000000000000",
      "reserved": "",
      "salt": "0x97d53b25a131b656be18cd65ad630fd7d0e8981a0de4f5475ee913c52eb70bf4",
      "assetIds": [
        "55464657044963196816950587289035428064568320970692304673817341489687522457605",
        "55464657044963196816950587289035428064568320970692304673817341489687522457601"
      ]
    },
    {
      "x": 393,
      "y": 342,
      "size": 1,
      "price": "4683000000000000000000",
      "reserved": "",
      "salt": "0x6c9645cd8eab043d3196ba5e00325590f5e4985ee47f590172d5eb1d686a1c83",
      "assetIds": [
        "55464657044963196816950587289035428064568320970692304673817341489687522457603",
        "55464657044963196816950587289035428064568320970692304673817341489687522457602"
      ]
    },
    {
      "x": 390,
      "y": 341,
      "size": 1,
      "price": "4683000000000000000000",
      "reserved": "",
      "salt": "0x03c080c95e0070e6853a6f1cf6041096e33d764dde602e58907226e7d6931b60",
      "assetIds": [
        "55464657044963196816950587289035428064568320970692304673817341489687522457603",
        "55464657044963196816950587289035428064568320970692304673817341489687522457602"
      ]
    },
    {
      "x": 384,
      "y": 342,
      "size": 1,
      "price": "4683000000000000000000",
      "reserved": "",
      "salt": "0x8d805b56a230dea503182c5c9b4dee080e1b9f6a78af18dee0bb984837a05599",
      "assetIds": [
        "55464657044963196816950587289035428064568320970692304673817341489687522457603",
        "55464657044963196816950587289035428064568320970692304673817341489687522457602"
      ]
    },
    {
      "x": 383,
      "y": 342,
      "size": 1,
      "price": "4683000000000000000000",
      "reserved": "",
      "salt": "0x8a808b1e68cf8116c44fcd29d96711b631957a5193a8d94a544f5c2aa50d824e",
      "assetIds": [
        "55464657044963196816950587289035428064568320970692304673817341489687522457602",
        "55464657044963196816950587289035428064568320970692304673817341489687522457604"
      ]
    },
    {
      "x": 382,
      "y": 343,
      "size": 1,
      "price": "4683000000000000000000",
      "reserved": "",
      "salt": "0x94f40f9396323b1bc8bc57ab7f92e1d21cb703a28face309d15d7b999f9a1819",
      "assetIds": [
        "55464657044963196816950587289035428064568320970692304673817341489687522457601",
        "55464657044963196816950587289035428064568320970692304673817341489687522457603"
      ]
    },
    {
      "x": 383,
      "y": 343,
      "size": 1,
      "price": "4683000000000000000000",
      "reserved": "",
      "salt": "0x4c0bf65f0bb93a2ef6a18f8458e4ac700421619424be2ee869f5646f05eab574",
      "assetIds": [
        "55464657044963196816950587289035428064568320970692304673817341489687522457601",
        "55464657044963196816950587289035428064568320970692304673817341489687522457603"
      ]
    },
    {
      "x": 384,
      "y": 343,
      "size": 1,
      "price": "4683000000000000000000",
      "reserved": "",
      "salt": "0xda2d7ea6b1aa8b03aa1f1d4b9f80c001ee1bb19457231fa12cb9d4dc82120ee2",
      "assetIds": [
        "55464657044963196816950587289035428064568320970692304673817341489687522457602",
        "55464657044963196816950587289035428064568320970692304673817341489687522457604"
      ]
    },
    {
      "x": 385,
      "y": 343,
      "size": 1,
      "price": "4683000000000000000000",
      "reserved": "",
      "salt": "0x42d900769eb932bdd4e95bd39f98030ba2e59a3bdf198657462468b75f91e49e",
      "assetIds": [
        "55464657044963196816950587289035428064568320970692304673817341489687522457601",
        "55464657044963196816950587289035428064568320970692304673817341489687522457603"
      ]
    },
    {
      "x": 387,
      "y": 343,
      "size": 1,
      "price": "4683000000000000000000",
      "reserved": "",
      "salt": "0x96d7a2c249e20085bfea1a04be1c7031b251b2033e38cb6fe23b52c4209616db",
      "assetIds": [
        "55464657044963196816950587289035428064568320970692304673817341489687522457605",
        "55464657044963196816950587289035428064568320970692304673817341489687522457601"
      ]
    },
    {
      "x": 388,
      "y": 343,
      "size": 1,
      "price": "4683000000000000000000",
      "reserved": "",
      "salt": "0xbc4f45a20ffcd32d1d26e2f68ea6c7c7fe9db28d5cb999da46409026a7a5efbb",
      "assetIds": [
        "55464657044963196816950587289035428064568320970692304673817341489687522457602",
        "55464657044963196816950587289035428064568320970692304673817341489687522457604"
      ]
    },
    {
      "x": 390,
      "y": 343,
      "size": 1,
      "price": "4683000000000000000000",
      "reserved": "",
      "salt": "0xef9ab5e1ceac1d9fcc47f0b6bbfd032fa5ebdec556b012894151021225fad335",
      "assetIds": [
        "55464657044963196816950587289035428064568320970692304673817341489687522457603",
        "55464657044963196816950587289035428064568320970692304673817341489687522457602"
      ]
    },
    {
      "x": 393,
      "y": 343,
      "size": 1,
      "price": "4683000000000000000000",
      "reserved": "",
      "salt": "0xf6307d119caf3e5c76f8c78a2aa6119886aa16247207ccf201ff3c4cfddb8a84",
      "assetIds": [
        "55464657044963196816950587289035428064568320970692304673817341489687522457601",
        "55464657044963196816950587289035428064568320970692304673817341489687522457603"
      ]
    },
    {
      "x": 394,
      "y": 343,
      "size": 1,
      "price": "4683000000000000000000",
      "reserved": "",
      "salt": "0xa073d8acf9e2fffac8a103085279d01628b96ae154485838cc877ac556e5d328",
      "assetIds": [
        "55464657044963196816950587289035428064568320970692304673817341489687522457602",
        "55464657044963196816950587289035428064568320970692304673817341489687522457604"
      ]
    },
    {
      "x": 395,
      "y": 345,
      "size": 1,
      "price": "4683000000000000000000",
      "reserved": "",
      "salt": "0xe3bc975d977dee4e463e6c6b19a5a181c3366b8f269d2a6d02bd783e31c9b4f0",
      "assetIds": [
        "55464657044963196816950587289035428064568320970692304673817341489687522457605",
        "55464657044963196816950587289035428064568320970692304673817341489687522457601"
      ]
    },
    {
      "x": 394,
      "y": 345,
      "size": 1,
      "price": "4683000000000000000000",
      "reserved": "",
      "salt": "0x250c0f89d561149b2b270f8a22cbd285b052cc8138c85af375c1a9acb0c1d4b5",
      "assetIds": [
        "55464657044963196816950587289035428064568320970692304673817341489687522457602",
        "55464657044963196816950587289035428064568320970692304673817341489687522457604"
      ]
    },
    {
      "x": 393,
      "y": 345,
      "size": 1,
      "price": "4683000000000000000000",
      "reserved": "",
      "salt": "0xb993fe236a984a323d95767ee547aebb750c8aa164775e76756300aacfeddd3c",
      "assetIds": [
        "55464657044963196816950587289035428064568320970692304673817341489687522457602",
        "55464657044963196816950587289035428064568320970692304673817341489687522457604"
      ]
    },
    {
      "x": 392,
      "y": 345,
      "size": 1,
      "price": "4683000000000000000000",
      "reserved": "",
      "salt": "0x97bb9f18ed64afdf1ed488367f9e28e847243e98d2f79c6f71227cf8d0fe6a70",
      "assetIds": [
        "55464657044963196816950587289035428064568320970692304673817341489687522457605",
        "55464657044963196816950587289035428064568320970692304673817341489687522457601"
      ]
    },
    {
      "x": 391,
      "y": 345,
      "size": 1,
      "price": "4683000000000000000000",
      "reserved": "",
      "salt": "0x1744a34618a8a1bf9fd6aff2125418c4ee21a5a72086496aa6072f6e8a7be72a",
      "assetIds": [
        "55464657044963196816950587289035428064568320970692304673817341489687522457605",
        "55464657044963196816950587289035428064568320970692304673817341489687522457601"
      ]
    },
    {
      "x": 390,
      "y": 345,
      "size": 1,
      "price": "4683000000000000000000",
      "reserved": "",
      "salt": "0xc32a2d013e05dbfb75e4530aa3e9f847a115cfdc92eb06a34076627ebea64cb0",
      "assetIds": [
        "55464657044963196816950587289035428064568320970692304673817341489687522457601",
        "55464657044963196816950587289035428064568320970692304673817341489687522457603"
      ]
    },
    {
      "x": 389,
      "y": 345,
      "size": 1,
      "price": "4683000000000000000000",
      "reserved": "",
      "salt": "0xe1f7181ec4c0164c2a68fbc9ed0fecd4b12f2e916528810dba7dbf6c90246fb4",
      "assetIds": [
        "55464657044963196816950587289035428064568320970692304673817341489687522457603",
        "55464657044963196816950587289035428064568320970692304673817341489687522457602"
      ]
    },
    {
      "x": 388,
      "y": 345,
      "size": 1,
      "price": "4683000000000000000000",
      "reserved": "",
      "salt": "0xb80f89d4452851753f95b7c7f369a50aa31272d091642f26f7cb5e141bfbe664",
      "assetIds": [
        "55464657044963196816950587289035428064568320970692304673817341489687522457603",
        "55464657044963196816950587289035428064568320970692304673817341489687522457602"
      ]
    },
    {
      "x": 384,
      "y": 345,
      "size": 1,
      "price": "4683000000000000000000",
      "reserved": "",
      "salt": "0xda3a06e11e041fe0491b99e6a687bc89af594e6bc463eab6c415f784693a0b28",
      "assetIds": [
        "55464657044963196816950587289035428064568320970692304673817341489687522457601",
        "55464657044963196816950587289035428064568320970692304673817341489687522457603"
      ]
    },
    {
      "x": 384,
      "y": 344,
      "size": 1,
      "price": "4683000000000000000000",
      "reserved": "",
      "salt": "0x30f367c8545d6ac782401d641fe7a688a20629613c2d80c603eeb1952d6a8c47",
      "assetIds": [
        "55464657044963196816950587289035428064568320970692304673817341489687522457602",
        "55464657044963196816950587289035428064568320970692304673817341489687522457604"
      ]
    },
    {
      "x": 383,
      "y": 344,
      "size": 1,
      "price": "4683000000000000000000",
      "reserved": "",
      "salt": "0x4f43b62e0336798d61adf065b0bbfc5d48fcfdebd5ae9853f326760d2b79db49",
      "assetIds": [
        "55464657044963196816950587289035428064568320970692304673817341489687522457603",
        "55464657044963196816950587289035428064568320970692304673817341489687522457602"
      ]
    },
    {
      "x": 393,
      "y": 344,
      "size": 1,
      "price": "4683000000000000000000",
      "reserved": "",
      "salt": "0xdb9dad0d908aff04170d729bc5ffc3049a2f95e183eb65e4c062b1a2bf5ce337",
      "assetIds": [
        "55464657044963196816950587289035428064568320970692304673817341489687522457605",
        "55464657044963196816950587289035428064568320970692304673817341489687522457601"
      ]
    },
    {
      "x": 394,
      "y": 344,
      "size": 1,
      "price": "4683000000000000000000",
      "reserved": "",
      "salt": "0xb853ec5f9b591f1b263a3d4cdea92d7a535df2bab6c3bd1923b2908be2339cdc",
      "assetIds": [
        "55464657044963196816950587289035428064568320970692304673817341489687522457601",
        "55464657044963196816950587289035428064568320970692304673817341489687522457603"
      ]
    },
    {
      "x": 390,
      "y": 344,
      "size": 1,
      "price": "4683000000000000000000",
      "reserved": "",
      "salt": "0x460123720613f2a8e738d7296c5773e15003b765193bb866b73128a21f2a7d69",
      "assetIds": [
        "55464657044963196816950587289035428064568320970692304673817341489687522457601",
        "55464657044963196816950587289035428064568320970692304673817341489687522457603"
      ]
    },
    {
      "x": 389,
      "y": 344,
      "size": 1,
      "price": "4683000000000000000000",
      "reserved": "",
      "salt": "0x2ca0c08528cdc486d523d7ab1abdfe4b8b4ecda60c1425cf5f185e25b10ffd62",
      "assetIds": [
        "55464657044963196816950587289035428064568320970692304673817341489687522457603",
        "55464657044963196816950587289035428064568320970692304673817341489687522457602"
      ]
    },
    {
      "x": 388,
      "y": 344,
      "size": 1,
      "price": "4683000000000000000000",
      "reserved": "",
      "salt": "0xf5df30786d2838a78531fb2e34c3e7d466665a0c74eaacf044f257d941019944",
      "assetIds": [
        "55464657044963196816950587289035428064568320970692304673817341489687522457605",
        "55464657044963196816950587289035428064568320970692304673817341489687522457601"
      ]
    },
    {
      "x": 387,
      "y": 344,
      "size": 1,
      "price": "4683000000000000000000",
      "reserved": "",
      "salt": "0x8b81193a9e42c172eae08b95b147e8d47c0dfb184cbbccad30d07ef1cf8d4385",
      "assetIds": [
        "55464657044963196816950587289035428064568320970692304673817341489687522457601",
        "55464657044963196816950587289035428064568320970692304673817341489687522457603"
      ]
    },
    {
      "x": 385,
      "y": 344,
      "size": 1,
      "price": "4683000000000000000000",
      "reserved": "",
      "salt": "0x0cb15b0c5cf783863daf8127208e2ee6daceb1d42b6e99b565fc34ca9d6a3152",
      "assetIds": [
        "55464657044963196816950587289035428064568320970692304673817341489687522457603",
        "55464657044963196816950587289035428064568320970692304673817341489687522457602"
      ]
    },
    {
      "x": 383,
      "y": 346,
      "size": 1,
      "price": "4683000000000000000000",
      "reserved": "",
      "salt": "0xf6d3a377f597774f28b456768d128ad691de11ca8af8cc17061072fcdf01f0e7",
      "assetIds": [
        "55464657044963196816950587289035428064568320970692304673817341489687522457601",
        "55464657044963196816950587289035428064568320970692304673817341489687522457603"
      ]
    },
    {
      "x": 383,
      "y": 345,
      "size": 1,
      "price": "4683000000000000000000",
      "reserved": "",
      "salt": "0x1eb008fa66f508f219f8d72b6abd923336ce68fff07aad72f3510021b7c28368",
      "assetIds": [
        "55464657044963196816950587289035428064568320970692304673817341489687522457602",
        "55464657044963196816950587289035428064568320970692304673817341489687522457604"
      ]
    },
    {
      "x": 384,
      "y": 346,
      "size": 1,
      "price": "4683000000000000000000",
      "reserved": "",
      "salt": "0xa38ec0eed8b255542c22e86f5194f94b7d6f337b7b3d6fd936aa19c4292d1439",
      "assetIds": [
        "55464657044963196816950587289035428064568320970692304673817341489687522457601",
        "55464657044963196816950587289035428064568320970692304673817341489687522457603"
      ]
    },
    {
      "x": 384,
      "y": 347,
      "size": 1,
      "price": "4683000000000000000000",
      "reserved": "",
      "salt": "0xe785d379ab22661dc6bf9efe66863a94198fb4743c34cf12bea7fd817ebfe6e1",
      "assetIds": [
        "55464657044963196816950587289035428064568320970692304673817341489687522457605",
        "55464657044963196816950587289035428064568320970692304673817341489687522457601"
      ]
    },
    {
      "x": 385,
      "y": 347,
      "size": 1,
      "price": "4683000000000000000000",
      "reserved": "",
      "salt": "0xe6ce153c0581d6894bb68296103ac43d4e0f4fa001144f0575e131b68442998c",
      "assetIds": [
        "55464657044963196816950587289035428064568320970692304673817341489687522457605",
        "55464657044963196816950587289035428064568320970692304673817341489687522457601"
      ]
    },
    {
      "x": 386,
      "y": 347,
      "size": 1,
      "price": "4683000000000000000000",
      "reserved": "",
      "salt": "0xd65c79cd1c8a1dc96cb72b50f85459053fda7db64ddd98f626619f6a272e6abd",
      "assetIds": [
        "55464657044963196816950587289035428064568320970692304673817341489687522457601",
        "55464657044963196816950587289035428064568320970692304673817341489687522457603"
      ]
    },
    {
      "x": 388,
      "y": 347,
      "size": 1,
      "price": "4683000000000000000000",
      "reserved": "",
      "salt": "0x7521e62ca49730275fed65f8e9e7ef2cbf716b2d32504411f7129c41e068f099",
      "assetIds": [
        "55464657044963196816950587289035428064568320970692304673817341489687522457602",
        "55464657044963196816950587289035428064568320970692304673817341489687522457604"
      ]
    },
    {
      "x": 389,
      "y": 347,
      "size": 1,
      "price": "4683000000000000000000",
      "reserved": "",
      "salt": "0x310d04b644e5b432e55302fda883b89d162f5ad4aaa71a61ccdcc75fa56d4979",
      "assetIds": [
        "55464657044963196816950587289035428064568320970692304673817341489687522457602",
        "55464657044963196816950587289035428064568320970692304673817341489687522457604"
      ]
    },
    {
      "x": 390,
      "y": 346,
      "size": 1,
      "price": "4683000000000000000000",
      "reserved": "",
      "salt": "0x735b99fdb1c04595b25bc8ffc6426c4b83ced09c6bcf510a2b90e226f25e491c",
      "assetIds": [
        "55464657044963196816950587289035428064568320970692304673817341489687522457603",
        "55464657044963196816950587289035428064568320970692304673817341489687522457602"
      ]
    },
    {
      "x": 391,
      "y": 346,
      "size": 1,
      "price": "4683000000000000000000",
      "reserved": "",
      "salt": "0xd8a715412bf0c5381953b22881e4f208c23116d1bd4766c4945292399d6c8c43",
      "assetIds": [
        "55464657044963196816950587289035428064568320970692304673817341489687522457601",
        "55464657044963196816950587289035428064568320970692304673817341489687522457603"
      ]
    },
    {
      "x": 392,
      "y": 346,
      "size": 1,
      "price": "4683000000000000000000",
      "reserved": "",
      "salt": "0x8392f4f2c5474ebac5b04d56b13f7e0fd840a7c540e48eada76c818d0d7adb03",
      "assetIds": [
        "55464657044963196816950587289035428064568320970692304673817341489687522457602",
        "55464657044963196816950587289035428064568320970692304673817341489687522457604"
      ]
    },
    {
      "x": 393,
      "y": 346,
      "size": 1,
      "price": "4683000000000000000000",
      "reserved": "",
      "salt": "0xddd58eaa0d6e203f09d793c15751e9614882e09eaa557f6f7901c30c9efb1534",
      "assetIds": [
        "55464657044963196816950587289035428064568320970692304673817341489687522457605",
        "55464657044963196816950587289035428064568320970692304673817341489687522457601"
      ]
    },
    {
      "x": 394,
      "y": 346,
      "size": 1,
      "price": "4683000000000000000000",
      "reserved": "",
      "salt": "0x91ecd1024c597ac7637fef2f20eca4b97e31e8f80880cb62d4a8079c5cc90310",
      "assetIds": [
        "55464657044963196816950587289035428064568320970692304673817341489687522457603",
        "55464657044963196816950587289035428064568320970692304673817341489687522457602"
      ]
    },
    {
      "x": 395,
      "y": 346,
      "size": 1,
      "price": "4683000000000000000000",
      "reserved": "",
      "salt": "0xbf0f9dfe4c1d63935018848eedfad54eba8aa45c2dcdc4474689c7be102b65fb",
      "assetIds": [
        "55464657044963196816950587289035428064568320970692304673817341489687522457603",
        "55464657044963196816950587289035428064568320970692304673817341489687522457602"
      ]
    },
    {
      "x": 389,
      "y": 346,
      "size": 1,
      "price": "4683000000000000000000",
      "reserved": "",
      "salt": "0x459a658437a2f018ce06cf7819e22b994c17b46da45916c6306b923b71c1dd4a",
      "assetIds": [
        "55464657044963196816950587289035428064568320970692304673817341489687522457605",
        "55464657044963196816950587289035428064568320970692304673817341489687522457601"
      ]
    },
    {
      "x": 386,
      "y": 346,
      "size": 1,
      "price": "4683000000000000000000",
      "reserved": "",
      "salt": "0xf52849fa70dd49a138fabc82194fea5a170dc3fda97ee8f5c773fb2fabe4953c",
      "assetIds": [
        "55464657044963196816950587289035428064568320970692304673817341489687522457601",
        "55464657044963196816950587289035428064568320970692304673817341489687522457603"
      ]
    },
    {
      "x": 385,
      "y": 346,
      "size": 1,
      "price": "4683000000000000000000",
      "reserved": "",
      "salt": "0xadaf0b29eed802dcbb197ab402b4564da1ea643d2f5052015decff0a337a9ae1",
      "assetIds": [
        "55464657044963196816950587289035428064568320970692304673817341489687522457602",
        "55464657044963196816950587289035428064568320970692304673817341489687522457604"
      ]
    },
    {
      "x": 384,
      "y": 348,
      "size": 1,
      "price": "4683000000000000000000",
      "reserved": "",
      "salt": "0x788e75381afdfe716693a45f96a0579027c8d4e555eaa931cf99cf47a6620f7f",
      "assetIds": [
        "55464657044963196816950587289035428064568320970692304673817341489687522457602",
        "55464657044963196816950587289035428064568320970692304673817341489687522457604"
      ]
    },
    {
      "x": 385,
      "y": 348,
      "size": 1,
      "price": "4683000000000000000000",
      "reserved": "",
      "salt": "0x2dc7b12e22ea47c19f2ada3a3be591cab555f2a5b844b10cffcfcf3844c9b8b3",
      "assetIds": [
        "55464657044963196816950587289035428064568320970692304673817341489687522457603",
        "55464657044963196816950587289035428064568320970692304673817341489687522457602"
      ]
    },
    {
      "x": 386,
      "y": 348,
      "size": 1,
      "price": "4683000000000000000000",
      "reserved": "",
      "salt": "0xadabc0135c6dc73ef6790f6aa604843b14c15b94e11c7a4a08c1a12be19ba9c2",
      "assetIds": [
        "55464657044963196816950587289035428064568320970692304673817341489687522457602",
        "55464657044963196816950587289035428064568320970692304673817341489687522457604"
      ]
    },
    {
      "x": 390,
      "y": 347,
      "size": 1,
      "price": "4683000000000000000000",
      "reserved": "",
      "salt": "0x28442e33609c8a939a0395f91e6b34159b3deddc94c90889ec900706cfe84244",
      "assetIds": [
        "55464657044963196816950587289035428064568320970692304673817341489687522457602",
        "55464657044963196816950587289035428064568320970692304673817341489687522457604"
      ]
    },
    {
      "x": 391,
      "y": 347,
      "size": 1,
      "price": "4683000000000000000000",
      "reserved": "",
      "salt": "0x8ef77754e577984eb53d1e917ba80a7d250d6e1ef58b573e5f7bc77e7ba62574",
      "assetIds": [
        "55464657044963196816950587289035428064568320970692304673817341489687522457605",
        "55464657044963196816950587289035428064568320970692304673817341489687522457601"
      ]
    },
    {
      "x": 392,
      "y": 347,
      "size": 1,
      "price": "4683000000000000000000",
      "reserved": "",
      "salt": "0xd3c606e692138196819d51170127b8b49f04b1498c92df605ed76475f2fb6711",
      "assetIds": [
        "55464657044963196816950587289035428064568320970692304673817341489687522457603",
        "55464657044963196816950587289035428064568320970692304673817341489687522457602"
      ]
    },
    {
      "x": 393,
      "y": 347,
      "size": 1,
      "price": "4683000000000000000000",
      "reserved": "",
      "salt": "0x9c2afe44936d829b36a5fdc3132e5eeec9bda7212b40b737fa03b1ac0e0e7d80",
      "assetIds": [
        "55464657044963196816950587289035428064568320970692304673817341489687522457601",
        "55464657044963196816950587289035428064568320970692304673817341489687522457603"
      ]
    },
    {
      "x": 394,
      "y": 347,
      "size": 1,
      "price": "4683000000000000000000",
      "reserved": "",
      "salt": "0xba57205d7b90a473607d38b430fb6cea6a6b720e12dbe078e3883ef9e34c0981",
      "assetIds": [
        "55464657044963196816950587289035428064568320970692304673817341489687522457603",
        "55464657044963196816950587289035428064568320970692304673817341489687522457602"
      ]
    },
    {
      "x": 394,
      "y": 348,
      "size": 1,
      "price": "4683000000000000000000",
      "reserved": "",
      "salt": "0x11f5af960b3f42ada176b560e0e65b5aad149ef8806201d68585773b2b98f486",
      "assetIds": [
        "55464657044963196816950587289035428064568320970692304673817341489687522457605",
        "55464657044963196816950587289035428064568320970692304673817341489687522457601"
      ]
    },
    {
      "x": 395,
      "y": 348,
      "size": 1,
      "price": "4683000000000000000000",
      "reserved": "",
      "salt": "0x4796e3693592e684a7dd4835c8b05f3605e0b067c33bcfc088288ccf0f794f5b",
      "assetIds": [
        "55464657044963196816950587289035428064568320970692304673817341489687522457605",
        "55464657044963196816950587289035428064568320970692304673817341489687522457601"
      ]
    },
    {
      "x": 395,
      "y": 349,
      "size": 1,
      "price": "4683000000000000000000",
      "reserved": "",
      "salt": "0x2af69642f7bc89455d6ee13a1e1b8ef30ee86fb067e2a1929ff0950372a69357",
      "assetIds": [
        "55464657044963196816950587289035428064568320970692304673817341489687522457603",
        "55464657044963196816950587289035428064568320970692304673817341489687522457602"
      ]
    },
    {
      "x": 394,
      "y": 349,
      "size": 1,
      "price": "4683000000000000000000",
      "reserved": "",
      "salt": "0xec980e9cf45633e55f72ab5ea74f262fa95ff7e956c82fd91d05d05a17c78b83",
      "assetIds": [
        "55464657044963196816950587289035428064568320970692304673817341489687522457601",
        "55464657044963196816950587289035428064568320970692304673817341489687522457603"
      ]
    },
    {
      "x": 393,
      "y": 349,
      "size": 1,
      "price": "4683000000000000000000",
      "reserved": "",
      "salt": "0x98eee050b8a808ac4c38e26839073bf63bf0ab4967906aa382df2c414d28187e",
      "assetIds": [
        "55464657044963196816950587289035428064568320970692304673817341489687522457603",
        "55464657044963196816950587289035428064568320970692304673817341489687522457602"
      ]
    },
    {
      "x": 392,
      "y": 349,
      "size": 1,
      "price": "4683000000000000000000",
      "reserved": "",
      "salt": "0x32e2d04439e0da8f217a30c560ead5ad305f0eff457af6433bb2602500f02c30",
      "assetIds": [
        "55464657044963196816950587289035428064568320970692304673817341489687522457601",
        "55464657044963196816950587289035428064568320970692304673817341489687522457603"
      ]
    },
    {
      "x": 390,
      "y": 349,
      "size": 1,
      "price": "4683000000000000000000",
      "reserved": "",
      "salt": "0x0f9ae648409dc8ecd9f1d19a66d58dcea1add502b710074c8394cba42a82589d",
      "assetIds": [
        "55464657044963196816950587289035428064568320970692304673817341489687522457601",
        "55464657044963196816950587289035428064568320970692304673817341489687522457603"
      ]
    },
    {
      "x": 389,
      "y": 349,
      "size": 1,
      "price": "4683000000000000000000",
      "reserved": "",
      "salt": "0x22a601c1cc8aed64746bd3fd7b01cc357bc4e3fdb23fcb238f5fc477861bc888",
      "assetIds": [
        "55464657044963196816950587289035428064568320970692304673817341489687522457603",
        "55464657044963196816950587289035428064568320970692304673817341489687522457602"
      ]
    },
    {
      "x": 388,
      "y": 349,
      "size": 1,
      "price": "4683000000000000000000",
      "reserved": "",
      "salt": "0x51efb3efa82b5962847eb6a3581294800593f7a4899ab5e72b76293a604bf38c",
      "assetIds": [
        "55464657044963196816950587289035428064568320970692304673817341489687522457602",
        "55464657044963196816950587289035428064568320970692304673817341489687522457604"
      ]
    },
    {
      "x": 386,
      "y": 349,
      "size": 1,
      "price": "4683000000000000000000",
      "reserved": "",
      "salt": "0xd332c8746bcd1f1a1635901ccbfad21856dd7a3e8b672a7b3fc89d0c6c59b7ce",
      "assetIds": [
        "55464657044963196816950587289035428064568320970692304673817341489687522457601",
        "55464657044963196816950587289035428064568320970692304673817341489687522457603"
      ]
    },
    {
      "x": 385,
      "y": 349,
      "size": 1,
      "price": "4683000000000000000000",
      "reserved": "",
      "salt": "0x88c4e337450fba319d70e4a8ba80215752cf051525609ad9f648d6fd247ad55b",
      "assetIds": [
        "55464657044963196816950587289035428064568320970692304673817341489687522457603",
        "55464657044963196816950587289035428064568320970692304673817341489687522457602"
      ]
    },
    {
      "x": 384,
      "y": 349,
      "size": 1,
      "price": "4683000000000000000000",
      "reserved": "",
      "salt": "0x66a955b370bda26581dd858747ae14e835942e6a953363addd61c28b81496209",
      "assetIds": [
        "55464657044963196816950587289035428064568320970692304673817341489687522457603",
        "55464657044963196816950587289035428064568320970692304673817341489687522457602"
      ]
    },
    {
      "x": 392,
      "y": 348,
      "size": 1,
      "price": "4683000000000000000000",
      "reserved": "",
      "salt": "0x6fecec9ea967fde5e067f2aeff9bd864229fecce0732481e367f56ebf3b2f782",
      "assetIds": [
        "55464657044963196816950587289035428064568320970692304673817341489687522457603",
        "55464657044963196816950587289035428064568320970692304673817341489687522457602"
      ]
    },
    {
      "x": 393,
      "y": 348,
      "size": 1,
      "price": "4683000000000000000000",
      "reserved": "",
      "salt": "0x180b39cf828f4ec17495f6b3eba80fd719746eaeec8e58deadfbca7ac9ebb15a",
      "assetIds": [
        "55464657044963196816950587289035428064568320970692304673817341489687522457601",
        "55464657044963196816950587289035428064568320970692304673817341489687522457603"
      ]
    },
    {
      "x": 391,
      "y": 348,
      "size": 1,
      "price": "4683000000000000000000",
      "reserved": "",
      "salt": "0x57446b19abb3ec754bac8fa27b757b3c254d0c0b17830c0c030615abbcc94763",
      "assetIds": [
        "55464657044963196816950587289035428064568320970692304673817341489687522457602",
        "55464657044963196816950587289035428064568320970692304673817341489687522457604"
      ]
    },
    {
      "x": 390,
      "y": 348,
      "size": 1,
      "price": "4683000000000000000000",
      "reserved": "",
      "salt": "0xc1b299e2c0a4a38b734f03e31391f5fc6e2e4281b795e5a330a5e084c9382b71",
      "assetIds": [
        "55464657044963196816950587289035428064568320970692304673817341489687522457603",
        "55464657044963196816950587289035428064568320970692304673817341489687522457602"
      ]
    },
    {
      "x": 389,
      "y": 348,
      "size": 1,
      "price": "4683000000000000000000",
      "reserved": "",
      "salt": "0x790f489ee188400f1e452aec9224633489f37a25d457d45352e9c94c513cb0e9",
      "assetIds": [
        "55464657044963196816950587289035428064568320970692304673817341489687522457605",
        "55464657044963196816950587289035428064568320970692304673817341489687522457601"
      ]
    },
    {
      "x": 388,
      "y": 348,
      "size": 1,
      "price": "4683000000000000000000",
      "reserved": "",
      "salt": "0x7e95b6aea7c77eb64998d796d9aa15d407f153f3800680c9cc4ac2b723bede2c",
      "assetIds": [
        "55464657044963196816950587289035428064568320970692304673817341489687522457601",
        "55464657044963196816950587289035428064568320970692304673817341489687522457603"
      ]
    },
    {
      "x": 382,
      "y": 351,
      "size": 1,
      "price": "4683000000000000000000",
      "reserved": "",
      "salt": "0x9d7f3c42784bec08effecf9e50cde435f33a353d031e93526d3b79765142dd98",
      "assetIds": [
        "55464657044963196816950587289035428064568320970692304673817341489687522457602",
        "55464657044963196816950587289035428064568320970692304673817341489687522457604"
      ]
    },
    {
      "x": 383,
      "y": 351,
      "size": 1,
      "price": "4683000000000000000000",
      "reserved": "",
      "salt": "0xdfebba9d3828c04f479084e25deb350321e9238844217524ee5d0c45bdc40fd6",
      "assetIds": [
        "55464657044963196816950587289035428064568320970692304673817341489687522457602",
        "55464657044963196816950587289035428064568320970692304673817341489687522457604"
      ]
    },
    {
      "x": 384,
      "y": 351,
      "size": 1,
      "price": "4683000000000000000000",
      "reserved": "",
      "salt": "0xc7803b9fa580aaf620b94004f68cfd7c3f1ecd05c2d858781cb3e2d1328eb27d",
      "assetIds": [
        "55464657044963196816950587289035428064568320970692304673817341489687522457602",
        "55464657044963196816950587289035428064568320970692304673817341489687522457604"
      ]
    },
    {
      "x": 385,
      "y": 351,
      "size": 1,
      "price": "4683000000000000000000",
      "reserved": "",
      "salt": "0x827830c829f44d5346cb55088b35f82995278e25763bbd2e62bc8249d2bf3bbc",
      "assetIds": [
        "55464657044963196816950587289035428064568320970692304673817341489687522457603",
        "55464657044963196816950587289035428064568320970692304673817341489687522457602"
      ]
    },
    {
      "x": 386,
      "y": 351,
      "size": 1,
      "price": "4683000000000000000000",
      "reserved": "",
      "salt": "0x19c8c55e2079acb266167e475270db68a1e21d4ce16b496a3d9c1389e22eb6d3",
      "assetIds": [
        "55464657044963196816950587289035428064568320970692304673817341489687522457602",
        "55464657044963196816950587289035428064568320970692304673817341489687522457604"
      ]
    },
    {
      "x": 387,
      "y": 351,
      "size": 1,
      "price": "4683000000000000000000",
      "reserved": "",
      "salt": "0xe11719c017298754c03ae20d4e93e147e68db589793ed39357622240399ebd9c",
      "assetIds": [
        "55464657044963196816950587289035428064568320970692304673817341489687522457603",
        "55464657044963196816950587289035428064568320970692304673817341489687522457602"
      ]
    },
    {
      "x": 388,
      "y": 351,
      "size": 1,
      "price": "4683000000000000000000",
      "reserved": "",
      "salt": "0x3d47d3a23828fa43a22d54cf43d9a9e08788cd539a594fec5756dff8858f40b1",
      "assetIds": [
        "55464657044963196816950587289035428064568320970692304673817341489687522457602",
        "55464657044963196816950587289035428064568320970692304673817341489687522457604"
      ]
    },
    {
      "x": 389,
      "y": 351,
      "size": 1,
      "price": "4683000000000000000000",
      "reserved": "",
      "salt": "0xfc761cbff1951cf73c12df86fa5bf4a8d754d326dcc6ce8962ef9d099291fc8a",
      "assetIds": [
        "55464657044963196816950587289035428064568320970692304673817341489687522457605",
        "55464657044963196816950587289035428064568320970692304673817341489687522457601"
      ]
    },
    {
      "x": 390,
      "y": 351,
      "size": 1,
      "price": "4683000000000000000000",
      "reserved": "",
      "salt": "0x8a3eb1be6d32777a07826b93c757aa847de97d419b05c706c8144be87bf79e9d",
      "assetIds": [
        "55464657044963196816950587289035428064568320970692304673817341489687522457602",
        "55464657044963196816950587289035428064568320970692304673817341489687522457604"
      ]
    },
    {
      "x": 391,
      "y": 350,
      "size": 1,
      "price": "4683000000000000000000",
      "reserved": "",
      "salt": "0xb86b1ea908e56e941e670bcf8c362e24456e12506988d4b4d04c1b75af8107f8",
      "assetIds": [
        "55464657044963196816950587289035428064568320970692304673817341489687522457605",
        "55464657044963196816950587289035428064568320970692304673817341489687522457601"
      ]
    },
    {
      "x": 392,
      "y": 350,
      "size": 1,
      "price": "4683000000000000000000",
      "reserved": "",
      "salt": "0x84ddd3b34b334c7a408fa28735c66d12a0b87e9c9e6ea85c3d1366501b53b8e4",
      "assetIds": [
        "55464657044963196816950587289035428064568320970692304673817341489687522457603",
        "55464657044963196816950587289035428064568320970692304673817341489687522457602"
      ]
    },
    {
      "x": 393,
      "y": 350,
      "size": 1,
      "price": "4683000000000000000000",
      "reserved": "",
      "salt": "0xe6b8597ae7c793a3b72e55c910f1264ff5a57eb43dab55b9591c06f684398dcb",
      "assetIds": [
        "55464657044963196816950587289035428064568320970692304673817341489687522457603",
        "55464657044963196816950587289035428064568320970692304673817341489687522457602"
      ]
    },
    {
      "x": 394,
      "y": 350,
      "size": 1,
      "price": "4683000000000000000000",
      "reserved": "",
      "salt": "0x6106acecfe8243c90e4440054d9fc080e6138355bc8511c76f95cf299ffbe3bc",
      "assetIds": [
        "55464657044963196816950587289035428064568320970692304673817341489687522457603",
        "55464657044963196816950587289035428064568320970692304673817341489687522457602"
      ]
    },
    {
      "x": 390,
      "y": 350,
      "size": 1,
      "price": "4683000000000000000000",
      "reserved": "",
      "salt": "0x73b831f6ca09b58bf5c0ffcd00f4b7364443a5c3e17ae67f9edd2f7f55507f0a",
      "assetIds": [
        "55464657044963196816950587289035428064568320970692304673817341489687522457605",
        "55464657044963196816950587289035428064568320970692304673817341489687522457601"
      ]
    },
    {
      "x": 389,
      "y": 350,
      "size": 1,
      "price": "4683000000000000000000",
      "reserved": "",
      "salt": "0x6582b987b66a05ca6f0128a32cb4ed09cb74e17f9354136db015b6560c7573e9",
      "assetIds": [
        "55464657044963196816950587289035428064568320970692304673817341489687522457601",
        "55464657044963196816950587289035428064568320970692304673817341489687522457603"
      ]
    },
    {
      "x": 388,
      "y": 350,
      "size": 1,
      "price": "4683000000000000000000",
      "reserved": "",
      "salt": "0xdb4bfd363e95d17f4c3b1c49b52bf827c1953d336f34605407ff7395b943d6f7",
      "assetIds": [
        "55464657044963196816950587289035428064568320970692304673817341489687522457602",
        "55464657044963196816950587289035428064568320970692304673817341489687522457604"
      ]
    },
    {
      "x": 384,
      "y": 352,
      "size": 1,
      "price": "4683000000000000000000",
      "reserved": "",
      "salt": "0x1bd0632ab47d76170b9b4fbd30ecd70c27a4f04caf67793feaaf9491c10dd7c8",
      "assetIds": [
        "55464657044963196816950587289035428064568320970692304673817341489687522457603",
        "55464657044963196816950587289035428064568320970692304673817341489687522457602"
      ]
    },
    {
      "x": 383,
      "y": 352,
      "size": 1,
      "price": "4683000000000000000000",
      "reserved": "",
      "salt": "0x58abf61a0050d8d0d8c64068a15fa8bfb34a9049e511e96eeffcf4eed7563e22",
      "assetIds": [
        "55464657044963196816950587289035428064568320970692304673817341489687522457605",
        "55464657044963196816950587289035428064568320970692304673817341489687522457601"
      ]
    },
    {
      "x": 385,
      "y": 352,
      "size": 1,
      "price": "4683000000000000000000",
      "reserved": "",
      "salt": "0xcfc1ea8169fa215689378004b01d5054c3235c074aeb9c2e1911c743cc8be71f",
      "assetIds": [
        "55464657044963196816950587289035428064568320970692304673817341489687522457603",
        "55464657044963196816950587289035428064568320970692304673817341489687522457602"
      ]
    },
    {
      "x": 386,
      "y": 352,
      "size": 1,
      "price": "4683000000000000000000",
      "reserved": "",
      "salt": "0x874339d528f29a8a1a4143fa4b3942eb7a731cd9b185766da43bb572f908650c",
      "assetIds": [
        "55464657044963196816950587289035428064568320970692304673817341489687522457602",
        "55464657044963196816950587289035428064568320970692304673817341489687522457604"
      ]
    },
    {
      "x": 387,
      "y": 352,
      "size": 1,
      "price": "4683000000000000000000",
      "reserved": "",
      "salt": "0x418960bded99a5be605df0ba8ff3d610a4e5e29b677181f4c8f318bc8b699d5f",
      "assetIds": [
        "55464657044963196816950587289035428064568320970692304673817341489687522457602",
        "55464657044963196816950587289035428064568320970692304673817341489687522457604"
      ]
    },
    {
      "x": 388,
      "y": 352,
      "size": 1,
      "price": "4683000000000000000000",
      "reserved": "",
      "salt": "0x88b715b64e213aaf9a02b6534f26cce1b07ff08f9ed3aab2a7005aadd228900b",
      "assetIds": [
        "55464657044963196816950587289035428064568320970692304673817341489687522457602",
        "55464657044963196816950587289035428064568320970692304673817341489687522457604"
      ]
    },
    {
      "x": 389,
      "y": 352,
      "size": 1,
      "price": "4683000000000000000000",
      "reserved": "",
      "salt": "0x46dafbf8724a43d31d9dca18a79746d1fe1fbfe85df786b7e0ab70af94316142",
      "assetIds": [
        "55464657044963196816950587289035428064568320970692304673817341489687522457605",
        "55464657044963196816950587289035428064568320970692304673817341489687522457601"
      ]
    },
    {
      "x": 390,
      "y": 352,
      "size": 1,
      "price": "4683000000000000000000",
      "reserved": "",
      "salt": "0xaace1259a4a2b975fa61e82a7fa7f43db8e06c9e713a67762839e3c6cdb10016",
      "assetIds": [
        "55464657044963196816950587289035428064568320970692304673817341489687522457603",
        "55464657044963196816950587289035428064568320970692304673817341489687522457602"
      ]
    },
    {
      "x": 391,
      "y": 352,
      "size": 1,
      "price": "4683000000000000000000",
      "reserved": "",
      "salt": "0xe52f3a54afa56b621628006d4f6d79d708493bae7d619edbcc0faaf2c2f0389a",
      "assetIds": [
        "55464657044963196816950587289035428064568320970692304673817341489687522457603",
        "55464657044963196816950587289035428064568320970692304673817341489687522457602"
      ]
    },
    {
      "x": 392,
      "y": 352,
      "size": 1,
      "price": "4683000000000000000000",
      "reserved": "",
      "salt": "0x1cc2dadbf5578ecf3a3e958bf9e6ec01a3345646124079514c48c7cf0f93bf82",
      "assetIds": [
        "55464657044963196816950587289035428064568320970692304673817341489687522457602",
        "55464657044963196816950587289035428064568320970692304673817341489687522457604"
      ]
    },
    {
      "x": 393,
      "y": 352,
      "size": 1,
      "price": "4683000000000000000000",
      "reserved": "",
      "salt": "0xa7c861493c51bdedcb6177cb34de072d04d3d7891232660b069d5a617cf86d41",
      "assetIds": [
        "55464657044963196816950587289035428064568320970692304673817341489687522457602",
        "55464657044963196816950587289035428064568320970692304673817341489687522457604"
      ]
    },
    {
      "x": 394,
      "y": 352,
      "size": 1,
      "price": "4683000000000000000000",
      "reserved": "",
      "salt": "0xdf0132b885df5cac184ae1343075d2b30366526c2e4743112745ea76f365e617",
      "assetIds": [
        "55464657044963196816950587289035428064568320970692304673817341489687522457601",
        "55464657044963196816950587289035428064568320970692304673817341489687522457603"
      ]
    },
    {
      "x": 395,
      "y": 352,
      "size": 1,
      "price": "4683000000000000000000",
      "reserved": "",
      "salt": "0x8e2217fa126617a1d670e14833ee4771070fe1e65d49c91b183021c85115832e",
      "assetIds": [
        "55464657044963196816950587289035428064568320970692304673817341489687522457603",
        "55464657044963196816950587289035428064568320970692304673817341489687522457602"
      ]
    },
    {
      "x": 394,
      "y": 351,
      "size": 1,
      "price": "4683000000000000000000",
      "reserved": "",
      "salt": "0xad32d21de02ac03bf8cb029a64fabc06b67f0630c7622144bec8a7e92bc064c1",
      "assetIds": [
        "55464657044963196816950587289035428064568320970692304673817341489687522457603",
        "55464657044963196816950587289035428064568320970692304673817341489687522457602"
      ]
    },
    {
      "x": 393,
      "y": 351,
      "size": 1,
      "price": "4683000000000000000000",
      "reserved": "",
      "salt": "0x2d787dd433cf0bdd9ecc81d4db7ca4311c97500f92b85606613127b1f78bb4a5",
      "assetIds": [
        "55464657044963196816950587289035428064568320970692304673817341489687522457603",
        "55464657044963196816950587289035428064568320970692304673817341489687522457602"
      ]
    },
    {
      "x": 392,
      "y": 351,
      "size": 1,
      "price": "4683000000000000000000",
      "reserved": "",
      "salt": "0xd05f2f3ff6945b7ba481b02ac63b7f0e227eec7266c2a71dc96c7ccf6e281a67",
      "assetIds": [
        "55464657044963196816950587289035428064568320970692304673817341489687522457605",
        "55464657044963196816950587289035428064568320970692304673817341489687522457601"
      ]
    },
    {
      "x": 391,
      "y": 351,
      "size": 1,
      "price": "4683000000000000000000",
      "reserved": "",
      "salt": "0xa2a8a4d781c10a7f3aaee0178165724b8bb9a04ac1c54619755065b0cc85b8b3",
      "assetIds": [
        "55464657044963196816950587289035428064568320970692304673817341489687522457605",
        "55464657044963196816950587289035428064568320970692304673817341489687522457601"
      ]
    },
    {
      "x": 395,
      "y": 351,
      "size": 1,
      "price": "4683000000000000000000",
      "reserved": "",
      "salt": "0xfd9db4e6af45f2e93412c43baf563493ee1ef2cf030ab1264b83319d267c4b55",
      "assetIds": [
        "55464657044963196816950587289035428064568320970692304673817341489687522457601",
        "55464657044963196816950587289035428064568320970692304673817341489687522457603"
      ]
    },
    {
      "x": 387,
      "y": 350,
      "size": 1,
      "price": "4683000000000000000000",
      "reserved": "",
      "salt": "0x0e82ece181a312fef1b1329c6392919b17cb8d51eb61e526bf9bf1115c0b9bcf",
      "assetIds": [
        "55464657044963196816950587289035428064568320970692304673817341489687522457602",
        "55464657044963196816950587289035428064568320970692304673817341489687522457604"
      ]
    },
    {
      "x": 368,
      "y": 306,
      "size": 1,
      "price": "4683000000000000000000",
      "reserved": "",
      "salt": "0xa870f6a4345d69fbecc3289513c7876f9d4b10b773567d086cc0ae392ad84bd9",
      "assetIds": [
        "55464657044963196816950587289035428064568320970692304673817341489687522457602",
        "55464657044963196816950587289035428064568320970692304673817341489687522457604"
      ]
    },
    {
      "x": 384,
      "y": 324,
      "size": 12,
      "price": "123806000000000000000000",
      "reserved": "0x7a9fe22691c811ea339d9b73150e6911a5343dca",
      "salt": "0x3324c2952195b78a816614fc3cfab19021f59c2bbbaef652e24e06c83b51e1b9",
      "assetIds": []
    },
    {
      "x": 360,
      "y": 336,
      "size": 12,
      "price": "123806000000000000000000",
      "reserved": "0x7a9fe22691c811ea339d9b73150e6911a5343dca",
      "salt": "0xf7d372595d6006e023275a8172f29fa205e55f5f7f51e8c98f5bab852979a7e1",
      "assetIds": []
    },
    {
      "x": 360,
      "y": 312,
      "size": 24,
      "price": "466102000000000000000000",
      "reserved": "0x7a9fe22691c811ea339d9b73150e6911a5343dca",
      "salt": "0x0a3957f8e50e6d4f7e11ea9270a861cfbd3f368bde6eeb910a9faf5bb4c25a3a",
      "assetIds": []
    },
    {
      "x": 396,
      "y": 336,
      "size": 12,
      "price": "123806000000000000000000",
      "reserved": "0x7a9fe22691c811ea339d9b73150e6911a5343dca",
      "salt": "0x68240ac382b646fa0200036c797afc2e6ddf6a8eddd42eb909975e564817567d",
      "assetIds": []
    },
    {
      "x": 354,
      "y": 318,
      "size": 6,
      "price": "32772000000000000000000",
      "reserved": "0x7a9fe22691c811ea339d9b73150e6911a5343dca",
      "salt": "0x128056a808f0d55e46ff98d699519d23f0f5896fdf3281dba1fec4100934c177",
      "assetIds": []
    },
    {
      "x": 390,
      "y": 354,
      "size": 6,
      "price": "32772000000000000000000",
      "reserved": "0x7a9fe22691c811ea339d9b73150e6911a5343dca",
      "salt": "0xb23c20b1eb11b63100a80b9e96d52debd1886aa8d73ccfde5c1c5699a3e6582f",
      "assetIds": []
    },
    {
      "x": 396,
      "y": 312,
      "size": 6,
      "price": "32772000000000000000000",
      "reserved": "0x7a9fe22691c811ea339d9b73150e6911a5343dca",
      "salt": "0x5c73d0af152b2e21d5b39aa17298468066f7004d2047b1e1b59b9c23260edb51",
      "assetIds": []
    },
    {
      "x": 384,
      "y": 318,
      "size": 6,
      "price": "32772000000000000000000",
      "reserved": "0x7a9fe22691c811ea339d9b73150e6911a5343dca",
      "salt": "0x2de5aa67ab538e804bceb3449fb1a7054dc90944224ce2fa17a4ef9a46f04860",
      "assetIds": []
    },
    {
      "x": 372,
      "y": 306,
      "size": 6,
      "price": "32772000000000000000000",
      "reserved": "0x7a9fe22691c811ea339d9b73150e6911a5343dca",
      "salt": "0xce4fd88a1544638c530d7ed5e23bc9fb73b661c441fb5cc9c7400236df270f76",
      "assetIds": []
    },
    {
      "x": 354,
      "y": 312,
      "size": 6,
      "price": "32772000000000000000000",
      "reserved": "0x7a9fe22691c811ea339d9b73150e6911a5343dca",
      "salt": "0x09d064207581a6eda9f39fbd560595400bd028d5987b278a9558560513d11aa8",
      "assetIds": []
    },
    {
      "x": 354,
      "y": 330,
      "size": 6,
      "price": "32772000000000000000000",
      "reserved": "0x7a9fe22691c811ea339d9b73150e6911a5343dca",
      "salt": "0x243e872e4c1d9bcfe491192f6f0b18a59e2624047355129d972021826cdbe3b7",
      "assetIds": []
    },
    {
      "x": 378,
      "y": 336,
      "size": 6,
      "price": "32772000000000000000000",
      "reserved": "0x7a9fe22691c811ea339d9b73150e6911a5343dca",
      "salt": "0x7ed2fdba8f803ce7bb820635c6ee7069902a9c19d117b6f5095f1348dff5c556",
      "assetIds": []
    },
    {
      "x": 399,
      "y": 327,
      "size": 3,
      "price": "8648000000000000000000",
      "reserved": "0x7a9fe22691c811ea339d9b73150e6911a5343dca",
      "salt": "0xb420a006cfd31b38bda09541d72a3bd3b9e1e9d9e781386149a44597e9b745fc",
      "assetIds": []
    },
    {
      "x": 405,
      "y": 321,
      "size": 3,
      "price": "8648000000000000000000",
      "reserved": "0x7a9fe22691c811ea339d9b73150e6911a5343dca",
      "salt": "0x8fd7e5774bd77743bfa5b4778a4a862a131cac18a1e03bea710727abaaf44a10",
      "assetIds": []
    },
    {
      "x": 372,
      "y": 342,
      "size": 6,
      "price": "32772000000000000000000",
      "reserved": "0x7a9fe22691c811ea339d9b73150e6911a5343dca",
      "salt": "0x4ec2fc88aa20111b42ca1fbae3b4c9e4949ae334018dec347e47b95cfdd650d8",
      "assetIds": []
    }
  ],
  "solcInputHash": "a4de1e9cf87be8a7daa33c15e9438e26",
  "bytecode": "0x610160604052620d2f006005556103e860075534801561001e57600080fd5b5060405161242e38038061242e833981810160405261018081101561004257600080fd5b50805160208201516040830151606080850151608086015160a08088015160c0808a015160e08b01516101008c01516101208d01516101408e0151610160909e0151600280546001600160a01b0319166001600160a01b03861617905560038390558d8b1b6001600160601b0319908116909852998c901b909616909352999a9899979895979496929590949391926100dc8a600161014a565b600680546001600160a01b03199081166001600160a01b039a8b1617909155610140979097526101209590955260008054909616979096169690961790935550606093841b6001600160601b031990811660e05292841b831660805290921b1661010052506101ae92505050565b6001600160a01b038216600081815260016020908152604091829020805460ff191685151590811790915582519384529083015280517fb21eb88b4e33b3f1281830a7178d74d8aa73220416215726b68ae23d539515cb9281900390910190a15050565b60805160601c60a05160601c60c05160601c60e05160601c6101005160601c61012051610140516121fb610233600039806109375280611d44525080610913528061139a525080611da45250806115d252806116f4525080610c50528061159c5280611dd852508061166152806116c5525080610dfa528061190852506121fb6000f3fe608060405234801561001057600080fd5b50600436106101515760003560e01c8063984d6252116100cd578063dc5074af11610081578063ecb255b511610066578063ecb255b514610857578063f23a6e6114610874578063f2e7b3811461090957610151565b8063dc5074af14610814578063e56f8a9e1461083a57610151565b8063bc197c81116100b2578063bc197c81146105d3578063c10a420814610735578063caed35001461080c57610151565b8063984d6252146104db578063b522ecff146105ad57610151565b80636e9960c3116101245780638a04af6a116101095780638a04af6a1461032a5780638a12b82f146103585780638f283970146104b557610151565b80636e9960c3146102fe57806377f1c3ac1461032257610151565b806325cb5bc014610156578063495906571461017057806358bc29441461017857806365194ce7146101a0575b600080fd5b61015e610911565b60408051918252519081900360200190f35b61015e610935565b61019e6004803603602081101561018e57600080fd5b50356001600160a01b0316610959565b005b610246600480360360208110156101b657600080fd5b8101906020810181356401000000008111156101d157600080fd5b8201836020820111156101e357600080fd5b8035906020019184600183028401116401000000008311171561020557600080fd5b91908080601f016020809104026020016040519081016040528093929190818152602001838380828437600092019190915250929550610a04945050505050565b6040518080602001866001600160a01b03166001600160a01b03168152602001856001600160a01b03166001600160a01b03168152602001848152602001838152602001828103825287818151815260200191508051906020019080838360005b838110156102bf5781810151838201526020016102a7565b50505050905090810190601f1680156102ec5780820380516001836020036101000a031916815260200191505b50965050505050505060405180910390f35b610306610b09565b604080516001600160a01b039092168252519081900360200190f35b61015e610b18565b61019e6004803603604081101561034057600080fd5b506001600160a01b0381351690602001351515610b1e565b61019e600480360361018081101561036f57600080fd5b6001600160a01b038235811692602081013582169260408201359092169160608201359160808101359160a08201359160c08101359160e0820135916101008101359181019061014081016101208201356401000000008111156103d257600080fd5b8201836020820111156103e457600080fd5b8035906020019184602083028401116401000000008311171561040657600080fd5b91939092909160208101903564010000000081111561042457600080fd5b82018360208201111561043657600080fd5b8035906020019184602083028401116401000000008311171561045857600080fd5b91939092909160208101903564010000000081111561047657600080fd5b82018360208201111561048857600080fd5b803590602001918460018302840111640100000000831117156104aa57600080fd5b509092509050610b75565b61019e600480360360208110156104cb57600080fd5b50356001600160a01b0316610cc3565b61019e600480360360608110156104f157600080fd5b6001600160a01b03823516919081019060408101602082013564010000000081111561051c57600080fd5b82018360208201111561052e57600080fd5b8035906020019184602083028401116401000000008311171561055057600080fd5b91939092909160208101903564010000000081111561056e57600080fd5b82018360208201111561058057600080fd5b803590602001918460208302840111640100000000831117156105a257600080fd5b509092509050610d99565b61019e600480360360208110156105c357600080fd5b50356001600160a01b0316610f24565b610700600480360360a08110156105e957600080fd5b6001600160a01b03823581169260208101359091169181019060608101604082013564010000000081111561061d57600080fd5b82018360208201111561062f57600080fd5b8035906020019184602083028401116401000000008311171561065157600080fd5b91939092909160208101903564010000000081111561066f57600080fd5b82018360208201111561068157600080fd5b803590602001918460208302840111640100000000831117156106a357600080fd5b9193909290916020810190356401000000008111156106c157600080fd5b8201836020820111156106d357600080fd5b803590602001918460018302840111640100000000831117156106f557600080fd5b50909250905061100d565b604080517fffffffff000000000000000000000000000000000000000000000000000000009092168252519081900360200190f35b6107f8600480360360a081101561074b57600080fd5b81019060208101813564010000000081111561076657600080fd5b82018360208201111561077857600080fd5b8035906020019184600183028401116401000000008311171561079a57600080fd5b91908080601f016020809104026020016040519081016040528093929190818152602001838380828437600092019190915250929550506001600160a01b03833581169450602084013516926040810135925060600135905061103a565b604080519115158252519081900360200190f35b610306611176565b6107f86004803603602081101561082a57600080fd5b50356001600160a01b0316611185565b61019e6004803603602081101561085057600080fd5b50356111a3565b61019e6004803603602081101561086d57600080fd5b5035611207565b610700600480360360a081101561088a57600080fd5b6001600160a01b03823581169260208101359091169160408201359160608101359181019060a0810160808201356401000000008111156108ca57600080fd5b8201836020820111156108dc57600080fd5b803590602001918460018302840111640100000000831117156108fe57600080fd5b50909250905061126b565b61015e611296565b7f000000000000000000000000000000000000000000000000000000000000000090565b7f000000000000000000000000000000000000000000000000000000000000000090565b6000546001600160a01b031633146109b8576040805162461bcd60e51b815260206004820152601060248201527f53656e646572206e6f742061646d696e00000000000000000000000000000000604482015290519081900360640190fd5b600554600280546001600160a01b03908116600090815260046020526040902042909301909255805473ffffffffffffffffffffffffffffffffffffffff191692909116919091179055565b606060008060008060606000806000808a80602001905160a0811015610a2957600080fd5b8101908080516040519392919084640100000000821115610a4957600080fd5b908301906020820185811115610a5e57600080fd5b8251640100000000811182820188101715610a7857600080fd5b82525081516020918201929091019080838360005b83811015610aa5578181015183820152602001610a8d565b50505050905090810190601f168015610ad25780820380516001836020036101000a031916815260200191505b5060409081526020820151908201516060830151608090930151959f50909d509b5099509197505050505050505091939590929450565b6000546001600160a01b031690565b60035490565b6000546001600160a01b03163314610b675760405162461bcd60e51b815260040180806020018281038252602e815260200180612198602e913960400191505060405180910390fd5b610b71828261129c565b5050565b610b7f898961131e565b610c048f8e8e8e8e8e8d8d8d80806020026020016040519081016040528093929190818152602001838360200280828437600081840152601f19601f820116905080830192505050505050508c8c8080602002602001604051908101604052809392919081815260200183836020028082843760009201919091525061139892505050565b610c458f8984848080601f01602080910402602001604051908101604052809392919081815260200183838082843760009201919091525061157592505050565b610c758f8f8e8e8e8d7f00000000000000000000000000000000000000000000000000000000000000008f6115c6565b610cb28e87878080602002602001604051908101604052809392919081815260200183836020028082843760009201919091525061189192505050565b505050505050505050505050505050565b6000546001600160a01b03163314610d22576040805162461bcd60e51b815260206004820152601b60248201527f6f6e6c792061646d696e2063616e206368616e67652061646d696e0000000000604482015290519081900360640190fd5b600054604080516001600160a01b039283168152918316602083015280517f7e644d79422f17c01e4894b5f4f588d331ebfa28653d42ae832dc59e38c9798f9281900390910190a16000805473ffffffffffffffffffffffffffffffffffffffff19166001600160a01b0392909216919091179055565b6000546001600160a01b03163314610df8576040805162461bcd60e51b815260206004820152600e60248201527f4e4f545f415554484f52495a4544000000000000000000000000000000000000604482015290519081900360640190fd5b7f00000000000000000000000000000000000000000000000000000000000000006001600160a01b0316632eb2c2d63087878787876040518763ffffffff1660e01b815260040180876001600160a01b03166001600160a01b03168152602001866001600160a01b03166001600160a01b031681526020018060200180602001806020018481038452888882818152602001925060200280828437600083820152601f01601f19169091018581038452868152602090810191508790870280828437600081840152601f19601f8201169050808301925050508481038252600081526020016020019950505050505050505050600060405180830381600087803b158015610f0557600080fd5b505af1158015610f19573d6000803e3d6000fd5b505050505050505050565b6001600160a01b038116610f7f576040805162461bcd60e51b815260206004820152600c60248201527f5a45524f5f414444524553530000000000000000000000000000000000000000604482015290519081900360640190fd5b6000546001600160a01b03163314610fde576040805162461bcd60e51b815260206004820152600e60248201527f4e4f545f415554484f52495a4544000000000000000000000000000000000000604482015290519081900360640190fd5b6006805473ffffffffffffffffffffffffffffffffffffffff19166001600160a01b0392909216919091179055565b7fbc197c810000000000000000000000000000000000000000000000000000000098975050505050505050565b600060035482118061105d5750836001600160a01b0316856001600160a01b0316145b8061106757508242115b156110745750600061116d565b60408051606087811b7fffffffffffffffffffffffffffffffffffffffff0000000000000000000000009081166020808501919091529188901b166034830152604882018690526068808301869052835180840390910181526088830184528051908201207f19457468657265756d205369676e6564204d6573736167653a0a33320000000060a884015260c48084018290528451808503909101815260e4909301909352815191012060009061112b9089611a55565b6001600160a01b03811660009081526004602052604090205490915042116111585760019250505061116d565b6002546001600160a01b039081169116149150505b95945050505050565b6002546001600160a01b031690565b6001600160a01b031660009081526001602052604090205460ff1690565b6000546001600160a01b03163314611202576040805162461bcd60e51b815260206004820152601060248201527f53656e646572206e6f742061646d696e00000000000000000000000000000000604482015290519081900360640190fd5b600355565b6000546001600160a01b03163314611266576040805162461bcd60e51b815260206004820152600e60248201527f4e4f545f415554484f52495a4544000000000000000000000000000000000000604482015290519081900360640190fd5b600755565b7ff23a6e61000000000000000000000000000000000000000000000000000000009695505050505050565b60075490565b6001600160a01b03821660008181526001602090815260409182902080547fffffffffffffffffffffffffffffffffffffffffffffffffffffffffffffff001685151590811790915582519384529083015280517fb21eb88b4e33b3f1281830a7178d74d8aa73220416215726b68ae23d539515cb9281900390910190a15050565b6113456103e861133960075485611b2290919063ffffffff16565b9063ffffffff611b9816565b8114610b71576040805162461bcd60e51b815260206004820152600d60248201527f494e56414c49445f505249434500000000000000000000000000000000000000604482015290519081900360640190fd5b7f0000000000000000000000000000000000000000000000000000000000000000421061140c576040805162461bcd60e51b815260206004820152600c60248201527f53414c455f49535f4f5645520000000000000000000000000000000000000000604482015290519081900360640190fd5b6001600160a01b03891633148061143257503360009081526001602052604090205460ff165b611483576040805162461bcd60e51b815260206004820152600e60248201527f4e4f545f415554484f52495a4544000000000000000000000000000000000000604482015290519081900360640190fd5b6001600160a01b03881615806114aa5750886001600160a01b0316886001600160a01b0316145b6114fb576040805162461bcd60e51b815260206004820152600d60248201527f52455345525645445f4c414e4400000000000000000000000000000000000000604482015290519081900360640190fd5b600061150c888888888d8989611bfd565b90506115188282611ca2565b611569576040805162461bcd60e51b815260206004820152600c60248201527f494e56414c49445f4c414e440000000000000000000000000000000000000000604482015290519081900360640190fd5b50505050505050505050565b60006115818484611d6b565b6006549091506115c0908590839085906001600160a01b03167f0000000000000000000000000000000000000000000000000000000000000000611eb8565b50505050565b83600114806115fc57507f00000000000000000000000000000000000000000000000000000000000000006001600160a01b0316155b156116c357604080517f6e1e3bbf0000000000000000000000000000000000000000000000000000000081526001600160a01b03898116600483015260248201879052604482018990526064820188905260a06084830152600060a4830181905292517f000000000000000000000000000000000000000000000000000000000000000090911692636e1e3bbf9260e4808201939182900301818387803b1580156116a657600080fd5b505af11580156116ba573d6000803e3d6000fd5b50505050611827565b7f00000000000000000000000000000000000000000000000000000000000000006001600160a01b0316636e1e3bbf7f00000000000000000000000000000000000000000000000000000000000000008689898c60405160200180826001600160a01b03166001600160a01b031681526020019150506040516020818303038152906040526040518663ffffffff1660e01b815260040180866001600160a01b03166001600160a01b0316815260200185815260200184815260200183815260200180602001828103825283818151815260200191508051906020019080838360005b838110156117be5781810151838201526020016117a6565b50505050905090810190601f1680156117eb5780820380516001836020036101000a031916815260200191505b509650505050505050600060405180830381600087803b15801561180e57600080fd5b505af1158015611822573d6000803e3d6000fd5b505050505b60408051858152602081018590526001600160a01b03848116828401526060820184905291516101988802890192808b1692908c16917fe4dfa6ac11314892f3029b34a25b1a887da3b1cab2bbf8506d87128ba6e3ac029181900360800190a45050505050505050565b6060815167ffffffffffffffff811180156118ab57600080fd5b506040519080825280602002602001820160405280156118d5578160200160208202803683370190505b50905060005b82518110156119055760018282815181106118f257fe5b60209081029190910101526001016118db565b507f00000000000000000000000000000000000000000000000000000000000000006001600160a01b0316632eb2c2d6308585856040518563ffffffff1660e01b815260040180856001600160a01b03166001600160a01b03168152602001846001600160a01b03166001600160a01b03168152602001806020018060200180602001848103845286818151815260200191508051906020019060200280838360005b838110156119c05781810151838201526020016119a8565b50505050905001848103835285818151815260200191508051906020019060200280838360005b838110156119ff5781810151838201526020016119e7565b50505050905001848103825260008152602001602001975050505050505050600060405180830381600087803b158015611a3857600080fd5b505af1158015611a4c573d6000803e3d6000fd5b50505050505050565b60008151604114611a6557600080fd5b60208201516040830151606084015160001a601b811015611a8457601b015b8060ff16601b1480611a9957508060ff16601c145b611aa257600080fd5b6040805160008152602080820180845289905260ff8416828401526060820186905260808201859052915160019260a0808401939192601f1981019281900390910190855afa158015611af9573d6000803e3d6000fd5b5050604051601f1901519450506001600160a01b038416611b1957600080fd5b50505092915050565b600082611b3157506000611b92565b5081810281838281611b3f57fe5b0414611b92576040805162461bcd60e51b815260206004820152600860248201527f6f766572666c6f77000000000000000000000000000000000000000000000000604482015290519081900360640190fd5b92915050565b600081611bec576040805162461bcd60e51b815260206004820152600960248201527f64697662797a65726f0000000000000000000000000000000000000000000000604482015290519081900360640190fd5b818381611bf557fe5b049392505050565b60008787878787878760405160200180888152602001878152602001868152602001858152602001846001600160a01b03166001600160a01b031660601b8152601401838152602001828051906020019060200280838360005b83811015611c6f578181015183820152602001611c57565b50505050905001975050505050505050604051602081830303815290604052805190602001209050979650505050505050565b600081815b8451811015611d41576000858281518110611cbe57fe5b6020026020010151905080831015611d065782816040516020018083815260200182815260200192505050604051602081830303815290604052805190602001209250611d38565b808360405160200180838152602001828152602001925050506040516020818303038152906040528051906020012092505b50600101611ca7565b507f0000000000000000000000000000000000000000000000000000000000000000149392505050565b600080611d84606461133985600563ffffffff611b2216565b604080516323b872dd60e01b81526001600160a01b0387811660048301527f0000000000000000000000000000000000000000000000000000000000000000811660248301526044820184905291519293507f0000000000000000000000000000000000000000000000000000000000000000909116916323b872dd916064808201926020929091908290030181600087803b158015611e2357600080fd5b505af1158015611e37573d6000803e3d6000fd5b505050506040513d6020811015611e4d57600080fd5b5051611ea0576040805162461bcd60e51b815260206004820152601360248201527f4645455f5452414e534645525f4641494c454400000000000000000000000000604482015290519081900360640190fd5b611eb0838263ffffffff61213a16565b949350505050565b82518190859015612062576060600080600080611ed48a610a04565b9398509196509450925090506000611eef868686868661103a565b15611f7d57611f09611f018d84611b22565b612710611b98565b9050886001600160a01b0316846001600160a01b0316866001600160a01b03167fac7a699eb95c3c6d390ec4626de17ef9a67b35891efdb197beba7c7fdd45fac48f858760405180848152602001838152602001828152602001935050505060405180910390a4611f7a878261213a565b96505b801561205b57604080516323b872dd60e01b81526001600160a01b038f811660048301528781166024830152604482018490529151918a16916323b872dd916064808201926020929091908290030181600087803b158015611fde57600080fd5b505af1158015611ff2573d6000803e3d6000fd5b505050506040513d602081101561200857600080fd5b505161205b576040805162461bcd60e51b815260206004820152601960248201527f636f6d6d6973696f6e207472616e73666572206661696c656400000000000000604482015290519081900360640190fd5b5050505050505b604080516323b872dd60e01b81526001600160a01b0389811660048301528681166024830152604482018490529151918416916323b872dd916064808201926020929091908290030181600087803b1580156120bd57600080fd5b505af11580156120d1573d6000803e3d6000fd5b505050506040513d60208110156120e757600080fd5b5051611a4c576040805162461bcd60e51b815260206004820152601760248201527f7061796d656e74207472616e73666572206661696c6564000000000000000000604482015290519081900360640190fd5b600082821115612191576040805162461bcd60e51b815260206004820152600860248201527f756e6465666c6f77000000000000000000000000000000000000000000000000604482015290519081900360640190fd5b5090039056fe6f6e6c792061646d696e2063616e207365747570206d6574615472616e73616374696f6e50726f636573736f7273a26469706673582212200ff38c5741c66b2a22a9a9ee2abe0f55626323082b6b4443921fd3b25484584a64736f6c63430006050033",
  "devdoc": {
    "methods": {
      "buyLandWithSand(address,address,address,uint256,uint256,uint256,uint256,uint256,bytes32,uint256[],bytes32[],bytes)": {
        "params": {
          "buyer": "address that perform the payment",
          "priceInSand": "price in SAND to purchase that Land",
          "proof": "merkleProof for that particular Land",
          "reserved": "the reserved address (if any)",
          "size": "size of the pack of Land to purchase",
          "to": "address that will own the purchased Land",
          "x": "x coordinate of the Land",
          "y": "y coordinate of the Land"
        }
      },
      "changeAdmin(address)": {
        "details": "change the administrator to be `newAdmin`.",
        "params": {
          "newAdmin": "address of the new administrator."
        }
      },
      "getAdmin()": {
        "details": "gives the current administrator of this contract.",
        "returns": {
          "_0": "the current administrator of this contract."
        }
      },
      "getSigningWallet()": {
        "details": "signing wallet authorized for referral",
        "returns": {
          "_0": "the address of the signing wallet"
        }
      },
      "isMetaTransactionProcessor(address)": {
        "details": "check whether address `who` is given meta-transaction execution rights.",
        "params": {
          "who": "The address to query."
        },
        "returns": {
          "_0": "whether the address has meta-transaction execution rights."
        }
      },
      "isReferralValid(bytes,address,address,uint256,uint256)": {
        "params": {
          "commissionRate": "The commissionRate of the referral",
          "expiryTime": "The expiry time of the referral",
          "referee": "The address of the referee",
          "referrer": "The address of the referrer",
          "signature": "The signature to check (signed referral)"
        },
        "returns": {
          "_0": "True if the referral is valid"
        }
      },
      "setMetaTransactionProcessor(address,bool)": {
        "details": "Enable or disable the ability of `metaTransactionProcessor` to perform meta-tx (metaTransactionProcessor rights).",
        "params": {
          "enabled": "set whether the metaTransactionProcessor is enabled or disabled.",
          "metaTransactionProcessor": "address that will be given/removed metaTransactionProcessor rights."
        }
      },
      "setReceivingWallet(address)": {
        "params": {
          "newWallet": "address of the new receiving wallet"
        }
      },
      "updateMaxCommissionRate(uint256)": {
        "details": "Update the maximum commission rate",
        "params": {
          "newMaxCommissionRate": "The new maximum commission rate"
        }
      },
      "updateSigningWallet(address)": {
        "details": "Update the signing wallet",
        "params": {
          "newSigningWallet": "The new address of the signing wallet"
        }
      },
      "withdrawAssets(address,uint256[],uint256[])": {
        "params": {
          "assetIds": "the assetIds to be transferred",
          "to": "intended recipient of the asset tokens",
          "values": "the quantities of the assetIds to be transferred"
        }
      }
    },
    "title": "Estate Sale contract with referral"
  },
  "userdoc": {
    "methods": {
      "buyLandWithSand(address,address,address,uint256,uint256,uint256,uint256,uint256,bytes32,uint256[],bytes32[],bytes)": {
        "notice": "buy Land with SAND using the merkle proof associated with it"
      },
      "getExpiryTime()": {
        "notice": "Gets the expiry time for the current sale"
      },
      "getMaxCommisionRate()": {
        "notice": "the max commision rate"
      },
      "getMerkleRoot()": {
        "notice": "Gets the Merkle root associated with the current sale"
      },
      "isReferralValid(bytes,address,address,uint256,uint256)": {
        "notice": "Check if a referral is valid"
      },
      "setReceivingWallet(address)": {
        "notice": "set the wallet receiving the proceeds"
      },
      "withdrawAssets(address,uint256[],uint256[])": {
        "notice": "enable Admin to withdraw remaining assets from EstateSaleWithFee contract"
      }
    },
    "notice": "This contract manages the sale of our lands as Estates"
  },
  "storageLayout": {
    "storage": [
      {
        "astId": 15353,
        "contract": "src/solc_0.6/EstateSale/EstateSaleWithFee.sol:EstateSaleWithFee",
        "label": "_admin",
        "offset": 0,
        "slot": "0",
        "type": "t_address"
      },
      {
        "astId": 15415,
        "contract": "src/solc_0.6/EstateSale/EstateSaleWithFee.sol:EstateSaleWithFee",
        "label": "_metaTransactionContracts",
        "offset": 0,
        "slot": "1",
        "type": "t_mapping(t_address,t_bool)"
      },
      {
        "astId": 13531,
        "contract": "src/solc_0.6/EstateSale/EstateSaleWithFee.sol:EstateSaleWithFee",
        "label": "_signingWallet",
        "offset": 0,
        "slot": "2",
        "type": "t_address"
      },
      {
        "astId": 13533,
        "contract": "src/solc_0.6/EstateSale/EstateSaleWithFee.sol:EstateSaleWithFee",
        "label": "_maxCommissionRate",
        "offset": 0,
        "slot": "3",
        "type": "t_uint256"
      },
      {
        "astId": 13537,
        "contract": "src/solc_0.6/EstateSale/EstateSaleWithFee.sol:EstateSaleWithFee",
        "label": "_previousSigningWallets",
        "offset": 0,
        "slot": "4",
        "type": "t_mapping(t_address,t_uint256)"
      },
      {
        "astId": 13546,
        "contract": "src/solc_0.6/EstateSale/EstateSaleWithFee.sol:EstateSaleWithFee",
        "label": "_previousSigningDelay",
        "offset": 0,
        "slot": "5",
        "type": "t_uint256"
      },
      {
        "astId": 9918,
        "contract": "src/solc_0.6/EstateSale/EstateSaleWithFee.sol:EstateSaleWithFee",
        "label": "_wallet",
        "offset": 0,
        "slot": "6",
        "type": "t_address_payable"
      },
      {
        "astId": 9928,
        "contract": "src/solc_0.6/EstateSale/EstateSaleWithFee.sol:EstateSaleWithFee",
        "label": "_multiplier",
        "offset": 0,
        "slot": "7",
        "type": "t_uint256"
      }
    ],
    "types": {
      "t_address": {
        "encoding": "inplace",
        "label": "address",
        "numberOfBytes": "20"
      },
      "t_address_payable": {
        "encoding": "inplace",
        "label": "address payable",
        "numberOfBytes": "20"
      },
      "t_bool": {
        "encoding": "inplace",
        "label": "bool",
        "numberOfBytes": "1"
      },
      "t_mapping(t_address,t_bool)": {
        "encoding": "mapping",
        "key": "t_address",
        "label": "mapping(address => bool)",
        "numberOfBytes": "32",
        "value": "t_bool"
      },
      "t_mapping(t_address,t_uint256)": {
        "encoding": "mapping",
        "key": "t_address",
        "label": "mapping(address => uint256)",
        "numberOfBytes": "32",
        "value": "t_uint256"
      },
      "t_uint256": {
        "encoding": "inplace",
        "label": "uint256",
        "numberOfBytes": "32"
      }
    }
  }
}