{
  "address": "0x22c4292E61B06Afdda0208Bf3713eD5918C079AF",
  "abi": [
    {
      "inputs": [
        {
          "internalType": "address",
          "name": "landAddress",
          "type": "address"
        },
        {
          "internalType": "address",
          "name": "sandContractAddress",
          "type": "address"
        },
        {
          "internalType": "address",
          "name": "initialMetaTx",
          "type": "address"
        },
        {
          "internalType": "address",
          "name": "admin",
          "type": "address"
        },
        {
          "internalType": "address payable",
          "name": "initialWalletAddress",
          "type": "address"
        },
        {
          "internalType": "bytes32",
          "name": "merkleRoot",
          "type": "bytes32"
        },
        {
          "internalType": "uint256",
          "name": "expiryTime",
          "type": "uint256"
        },
        {
          "internalType": "address",
          "name": "initialSigningWallet",
          "type": "address"
        },
        {
          "internalType": "uint256",
          "name": "initialMaxCommissionRate",
          "type": "uint256"
        },
        {
          "internalType": "address",
          "name": "estate",
          "type": "address"
        },
        {
          "internalType": "address",
          "name": "asset",
          "type": "address"
        },
        {
          "internalType": "address",
          "name": "feeDistributor",
          "type": "address"
        },
        {
          "internalType": "address",
          "name": "authValidator",
          "type": "address"
        }
      ],
      "stateMutability": "nonpayable",
      "type": "constructor"
    },
    {
      "anonymous": false,
      "inputs": [
        {
          "indexed": false,
          "internalType": "address",
          "name": "oldAdmin",
          "type": "address"
        },
        {
          "indexed": false,
          "internalType": "address",
          "name": "newAdmin",
          "type": "address"
        }
      ],
      "name": "AdminChanged",
      "type": "event"
    },
    {
      "anonymous": false,
      "inputs": [
        {
          "indexed": true,
          "internalType": "address",
          "name": "buyer",
          "type": "address"
        },
        {
          "indexed": true,
          "internalType": "address",
          "name": "to",
          "type": "address"
        },
        {
          "indexed": true,
          "internalType": "uint256",
          "name": "topCornerId",
          "type": "uint256"
        },
        {
          "indexed": false,
          "internalType": "uint256",
          "name": "size",
          "type": "uint256"
        },
        {
          "indexed": false,
          "internalType": "uint256",
          "name": "price",
          "type": "uint256"
        },
        {
          "indexed": false,
          "internalType": "address",
          "name": "token",
          "type": "address"
        },
        {
          "indexed": false,
          "internalType": "uint256",
          "name": "amountPaid",
          "type": "uint256"
        }
      ],
      "name": "LandQuadPurchased",
      "type": "event"
    },
    {
      "anonymous": false,
      "inputs": [
        {
          "indexed": false,
          "internalType": "address",
          "name": "metaTransactionProcessor",
          "type": "address"
        },
        {
          "indexed": false,
          "internalType": "bool",
          "name": "enabled",
          "type": "bool"
        }
      ],
      "name": "MetaTransactionProcessor",
      "type": "event"
    },
    {
      "anonymous": false,
      "inputs": [
        {
          "indexed": true,
          "internalType": "address",
          "name": "referrer",
          "type": "address"
        },
        {
          "indexed": true,
          "internalType": "address",
          "name": "referee",
          "type": "address"
        },
        {
          "indexed": true,
          "internalType": "address",
          "name": "token",
          "type": "address"
        },
        {
          "indexed": false,
          "internalType": "uint256",
          "name": "amount",
          "type": "uint256"
        },
        {
          "indexed": false,
          "internalType": "uint256",
          "name": "commission",
          "type": "uint256"
        },
        {
          "indexed": false,
          "internalType": "uint256",
          "name": "commissionRate",
          "type": "uint256"
        }
      ],
      "name": "ReferralUsed",
      "type": "event"
    },
    {
      "inputs": [
        {
          "internalType": "address",
          "name": "buyer",
          "type": "address"
        },
        {
          "internalType": "address",
          "name": "to",
          "type": "address"
        },
        {
          "internalType": "address",
          "name": "reserved",
          "type": "address"
        },
        {
          "internalType": "uint256[]",
          "name": "info",
          "type": "uint256[]"
        },
        {
          "internalType": "bytes32",
          "name": "salt",
          "type": "bytes32"
        },
        {
          "internalType": "uint256[]",
          "name": "assetIds",
          "type": "uint256[]"
        },
        {
          "internalType": "bytes32[]",
          "name": "proof",
          "type": "bytes32[]"
        },
        {
          "internalType": "bytes",
          "name": "referral",
          "type": "bytes"
        },
        {
          "internalType": "bytes",
          "name": "signature",
          "type": "bytes"
        }
      ],
      "name": "buyLandWithSand",
      "outputs": [],
      "stateMutability": "nonpayable",
      "type": "function"
    },
    {
      "inputs": [
        {
          "internalType": "address",
          "name": "newAdmin",
          "type": "address"
        }
      ],
      "name": "changeAdmin",
      "outputs": [],
      "stateMutability": "nonpayable",
      "type": "function"
    },
    {
      "inputs": [
        {
          "internalType": "bytes",
          "name": "referral",
          "type": "bytes"
        }
      ],
      "name": "decodeReferral",
      "outputs": [
        {
          "internalType": "bytes",
          "name": "",
          "type": "bytes"
        },
        {
          "internalType": "address",
          "name": "",
          "type": "address"
        },
        {
          "internalType": "address",
          "name": "",
          "type": "address"
        },
        {
          "internalType": "uint256",
          "name": "",
          "type": "uint256"
        },
        {
          "internalType": "uint256",
          "name": "",
          "type": "uint256"
        }
      ],
      "stateMutability": "pure",
      "type": "function"
    },
    {
      "inputs": [],
      "name": "getAdmin",
      "outputs": [
        {
          "internalType": "address",
          "name": "",
          "type": "address"
        }
      ],
      "stateMutability": "view",
      "type": "function"
    },
    {
      "inputs": [],
      "name": "getExpiryTime",
      "outputs": [
        {
          "internalType": "uint256",
          "name": "",
          "type": "uint256"
        }
      ],
      "stateMutability": "view",
      "type": "function"
    },
    {
      "inputs": [],
      "name": "getMaxCommisionRate",
      "outputs": [
        {
          "internalType": "uint256",
          "name": "",
          "type": "uint256"
        }
      ],
      "stateMutability": "view",
      "type": "function"
    },
    {
      "inputs": [],
      "name": "getMerkleRoot",
      "outputs": [
        {
          "internalType": "bytes32",
          "name": "",
          "type": "bytes32"
        }
      ],
      "stateMutability": "view",
      "type": "function"
    },
    {
      "inputs": [],
      "name": "getSigningWallet",
      "outputs": [
        {
          "internalType": "address",
          "name": "",
          "type": "address"
        }
      ],
      "stateMutability": "view",
      "type": "function"
    },
    {
      "inputs": [
        {
          "internalType": "address",
          "name": "who",
          "type": "address"
        }
      ],
      "name": "isMetaTransactionProcessor",
      "outputs": [
        {
          "internalType": "bool",
          "name": "",
          "type": "bool"
        }
      ],
      "stateMutability": "view",
      "type": "function"
    },
    {
      "inputs": [
        {
          "internalType": "bytes",
          "name": "signature",
          "type": "bytes"
        },
        {
          "internalType": "address",
          "name": "referrer",
          "type": "address"
        },
        {
          "internalType": "address",
          "name": "referee",
          "type": "address"
        },
        {
          "internalType": "uint256",
          "name": "expiryTime",
          "type": "uint256"
        },
        {
          "internalType": "uint256",
          "name": "commissionRate",
          "type": "uint256"
        }
      ],
      "name": "isReferralValid",
      "outputs": [
        {
          "internalType": "bool",
          "name": "",
          "type": "bool"
        }
      ],
      "stateMutability": "view",
      "type": "function"
    },
    {
      "inputs": [
        {
          "internalType": "address",
          "name": "",
          "type": "address"
        },
        {
          "internalType": "address",
          "name": "",
          "type": "address"
        },
        {
          "internalType": "uint256[]",
          "name": "",
          "type": "uint256[]"
        },
        {
          "internalType": "uint256[]",
          "name": "",
          "type": "uint256[]"
        },
        {
          "internalType": "bytes",
          "name": "",
          "type": "bytes"
        }
      ],
      "name": "onERC1155BatchReceived",
      "outputs": [
        {
          "internalType": "bytes4",
          "name": "",
          "type": "bytes4"
        }
      ],
      "stateMutability": "pure",
      "type": "function"
    },
    {
      "inputs": [
        {
          "internalType": "address",
          "name": "",
          "type": "address"
        },
        {
          "internalType": "address",
          "name": "",
          "type": "address"
        },
        {
          "internalType": "uint256",
          "name": "",
          "type": "uint256"
        },
        {
          "internalType": "uint256",
          "name": "",
          "type": "uint256"
        },
        {
          "internalType": "bytes",
          "name": "",
          "type": "bytes"
        }
      ],
      "name": "onERC1155Received",
      "outputs": [
        {
          "internalType": "bytes4",
          "name": "",
          "type": "bytes4"
        }
      ],
      "stateMutability": "pure",
      "type": "function"
    },
    {
      "inputs": [
        {
          "internalType": "address",
          "name": "metaTransactionProcessor",
          "type": "address"
        },
        {
          "internalType": "bool",
          "name": "enabled",
          "type": "bool"
        }
      ],
      "name": "setMetaTransactionProcessor",
      "outputs": [],
      "stateMutability": "nonpayable",
      "type": "function"
    },
    {
      "inputs": [
        {
          "internalType": "address payable",
          "name": "newWallet",
          "type": "address"
        }
      ],
      "name": "setReceivingWallet",
      "outputs": [],
      "stateMutability": "nonpayable",
      "type": "function"
    },
    {
      "inputs": [
        {
          "internalType": "uint256",
          "name": "newMaxCommissionRate",
          "type": "uint256"
        }
      ],
      "name": "updateMaxCommissionRate",
      "outputs": [],
      "stateMutability": "nonpayable",
      "type": "function"
    },
    {
      "inputs": [
        {
          "internalType": "address",
          "name": "newSigningWallet",
          "type": "address"
        }
      ],
      "name": "updateSigningWallet",
      "outputs": [],
      "stateMutability": "nonpayable",
      "type": "function"
    },
    {
      "inputs": [
        {
          "internalType": "address",
          "name": "to",
          "type": "address"
        },
        {
          "internalType": "uint256[]",
          "name": "assetIds",
          "type": "uint256[]"
        },
        {
          "internalType": "uint256[]",
          "name": "values",
          "type": "uint256[]"
        }
      ],
      "name": "withdrawAssets",
      "outputs": [],
      "stateMutability": "nonpayable",
      "type": "function"
    }
  ],
  "transactionHash": "0x547b2dfef9f7580f09a90408158df5015a65c394af15366c8674c3bb169a740a",
  "args": [
    "0x5CC5B05a8A13E3fBDB0BB9FcCd98D38e50F90c38",
    "0x3845badAde8e6dFF049820680d1F14bD3903a5d0",
    "0x3845badAde8e6dFF049820680d1F14bD3903a5d0",
    "0xEAA0993E1d21c2103e4f172a20D29371FbAF6D06",
    "0x4489590a116618B506F0EfE885432F6A8ED998E9",
    "0x15b568af65c9ad2257e9751c4a92c552094e9ee2bd8baee7ccbd926c34d7600d",
    1649941200,
    "0x3044719d139F866a44c988823513eCB93060bF1b",
    2000,
    "0x0000000000000000000000000000000000000000",
    "0xa342f5D851E866E18ff98F351f2c6637f4478dB5",
    "0x0EB04462D69B1D267d269377E34f60b9De1c8510",
    "0x459EA8c295069d4cd16c025b9fa5cA3E4C5AA468"
  ],
  "numDeployments": 1,
  "linkedData": [
    {
      "x": 270,
      "y": 201,
      "size": 1,
      "price": "1011000000000000000000",
      "reserved": "",
      "salt": "0x30252ac3e6457200710b614a1469a8f6fcc7b87424e3a1b13c64df2832b9d716",
      "assetIds": []
    },
    {
      "x": 270,
      "y": 202,
      "size": 1,
      "price": "1011000000000000000000",
      "reserved": "",
      "salt": "0x8b63431657ae5273c5736867e0dd0236ae40e99068ee1c262bc2b45a36039a48",
      "assetIds": []
    },
    {
      "x": 270,
      "y": 203,
      "size": 1,
      "price": "1011000000000000000000",
      "reserved": "",
      "salt": "0x9cdae133dc773b6bcc33b2a52e8b48856efa3be5359e7f031f6ce56a5d73f884",
      "assetIds": []
    },
    {
      "x": 271,
      "y": 201,
      "size": 1,
      "price": "1011000000000000000000",
      "reserved": "",
      "salt": "0xf290e0c5618b191595120ce904c46d45474e28dfc417178d82d64bcf752bcb4a",
      "assetIds": []
    },
    {
      "x": 271,
      "y": 202,
      "size": 1,
      "price": "1011000000000000000000",
      "reserved": "",
      "salt": "0x7c0916da3cb658478a58fc3b1bbf3a37d366182654e6bfe2d272e4aef106c6af",
      "assetIds": []
    },
    {
      "x": 271,
      "y": 203,
      "size": 1,
      "price": "1011000000000000000000",
      "reserved": "",
      "salt": "0xe3a93202ffe5bb6b9887545845fc60e494d421808fd1df6a5bfc9ee9a2bfdfaa",
      "assetIds": []
    },
    {
      "x": 272,
      "y": 201,
      "size": 1,
      "price": "1011000000000000000000",
      "reserved": "",
      "salt": "0x226d2ef140f38f00fabb3176b16b57d223df59ebf8b78b01722be9e4fcbb76bf",
      "assetIds": []
    },
    {
      "x": 272,
      "y": 202,
      "size": 1,
      "price": "1011000000000000000000",
      "reserved": "",
      "salt": "0x165132d31ce26669ca8e2463513580713bedd97c455741202568cfa52174617c",
      "assetIds": []
    },
    {
      "x": 272,
      "y": 203,
      "size": 1,
      "price": "1011000000000000000000",
      "reserved": "",
      "salt": "0x0cd9964082c6b871e00acb9d232b5de77bb794195f0574b2aff2607b53dcab6c",
      "assetIds": []
    },
    {
      "x": 273,
      "y": 192,
      "size": 1,
      "price": "1011000000000000000000",
      "reserved": "",
      "salt": "0x063a6470c16c6cb7b52e428dd5b2cc69acb9d741811a1846c9278bed7c36baf5",
      "assetIds": []
    },
    {
      "x": 273,
      "y": 193,
      "size": 1,
      "price": "1011000000000000000000",
      "reserved": "",
      "salt": "0x7548141465ba70e0e05b836d5a877559c87559ab67bed005a5b9089e0919df98",
      "assetIds": []
    },
    {
      "x": 273,
      "y": 194,
      "size": 1,
      "price": "1011000000000000000000",
      "reserved": "",
      "salt": "0xb643f42de291f5eb506ea0b87a77c99b0d2084d0099dc9caefa6da58ed76e477",
      "assetIds": []
    },
    {
      "x": 273,
      "y": 195,
      "size": 1,
      "price": "4683000000000000000000",
      "reserved": "",
      "salt": "0xfa785d5015dce2f8ac1e29af6269af10b1ecb61acfb1dddc4fbfd2d6ff53102f",
      "assetIds": [
        "55464657044963196816950587289035428064568320970692304673817341489688537481216",
        "55464657044963196816950587289035428064568320970692304673817341489688537481217",
        "55464657044963196816950587289035428064568320970692304673817341489688537481218",
        "55464657044963196816950587289035428064568320970692304673817341489688537481219",
        "55464657044963196816950587289035428064568320970692304673817341489688537481220",
        "55464657044963196816950587289035428064568320970692304673817341489688537481221",
        "55464657044963196816950587289035428064568320970692304673817341489688537481222",
        "55464657044963196816950587289035428064568320970692304673817341489688537481223"
      ]
    },
    {
      "x": 273,
      "y": 196,
      "size": 1,
      "price": "4683000000000000000000",
      "reserved": "",
      "salt": "0x0a59a8772e0f6ab6fed0bedb310bb57c1724ade63797820f270497ab1a6ef86a",
      "assetIds": [
        "55464657044963196816950587289035428064568320970692304673817341489688537481216",
        "55464657044963196816950587289035428064568320970692304673817341489688537481217",
        "55464657044963196816950587289035428064568320970692304673817341489688537481218",
        "55464657044963196816950587289035428064568320970692304673817341489688537481219",
        "55464657044963196816950587289035428064568320970692304673817341489688537481220",
        "55464657044963196816950587289035428064568320970692304673817341489688537481221",
        "55464657044963196816950587289035428064568320970692304673817341489688537481222",
        "55464657044963196816950587289035428064568320970692304673817341489688537481223"
      ]
    },
    {
      "x": 273,
      "y": 197,
      "size": 1,
      "price": "4683000000000000000000",
      "reserved": "",
      "salt": "0x931e959c6d1a7d1e9818d692cec5f12d4cbf113760d4bde2552125936e175791",
      "assetIds": [
        "55464657044963196816950587289035428064568320970692304673817341489688537481216",
        "55464657044963196816950587289035428064568320970692304673817341489688537481217",
        "55464657044963196816950587289035428064568320970692304673817341489688537481218",
        "55464657044963196816950587289035428064568320970692304673817341489688537481219",
        "55464657044963196816950587289035428064568320970692304673817341489688537481220",
        "55464657044963196816950587289035428064568320970692304673817341489688537481221",
        "55464657044963196816950587289035428064568320970692304673817341489688537481222",
        "55464657044963196816950587289035428064568320970692304673817341489688537481223"
      ]
    },
    {
      "x": 273,
      "y": 198,
      "size": 1,
      "price": "4683000000000000000000",
      "reserved": "",
      "salt": "0x077acbde762c2d0074f4e287b9a088777774ad0c548cd827234bafc25559ca40",
      "assetIds": [
        "55464657044963196816950587289035428064568320970692304673817341489688537481216",
        "55464657044963196816950587289035428064568320970692304673817341489688537481217",
        "55464657044963196816950587289035428064568320970692304673817341489688537481218",
        "55464657044963196816950587289035428064568320970692304673817341489688537481219",
        "55464657044963196816950587289035428064568320970692304673817341489688537481220",
        "55464657044963196816950587289035428064568320970692304673817341489688537481221",
        "55464657044963196816950587289035428064568320970692304673817341489688537481222",
        "55464657044963196816950587289035428064568320970692304673817341489688537481223"
      ]
    },
    {
      "x": 273,
      "y": 199,
      "size": 1,
      "price": "4683000000000000000000",
      "reserved": "",
      "salt": "0x9402e003c8fa4d8d7cfcfbb4cc19220a5f1b7786f79ad5effdafcf0b5e3676dc",
      "assetIds": [
        "55464657044963196816950587289035428064568320970692304673817341489688537481216",
        "55464657044963196816950587289035428064568320970692304673817341489688537481217",
        "55464657044963196816950587289035428064568320970692304673817341489688537481218",
        "55464657044963196816950587289035428064568320970692304673817341489688537481219",
        "55464657044963196816950587289035428064568320970692304673817341489688537481220",
        "55464657044963196816950587289035428064568320970692304673817341489688537481221",
        "55464657044963196816950587289035428064568320970692304673817341489688537481222",
        "55464657044963196816950587289035428064568320970692304673817341489688537481223"
      ]
    },
    {
      "x": 273,
      "y": 200,
      "size": 1,
      "price": "4683000000000000000000",
      "reserved": "",
      "salt": "0x10607499750266028215d797be0a58bd8a5bc2419e2f367e23e4c1e5e0577c06",
      "assetIds": [
        "55464657044963196816950587289035428064568320970692304673817341489688537481216",
        "55464657044963196816950587289035428064568320970692304673817341489688537481217",
        "55464657044963196816950587289035428064568320970692304673817341489688537481218",
        "55464657044963196816950587289035428064568320970692304673817341489688537481219",
        "55464657044963196816950587289035428064568320970692304673817341489688537481220",
        "55464657044963196816950587289035428064568320970692304673817341489688537481221",
        "55464657044963196816950587289035428064568320970692304673817341489688537481222",
        "55464657044963196816950587289035428064568320970692304673817341489688537481223"
      ]
    },
    {
      "x": 273,
      "y": 201,
      "size": 1,
      "price": "4683000000000000000000",
      "reserved": "",
      "salt": "0xa846f0d17e6efebd0ab4f85ed099eaa87eb733ef330fa0950c83938956e6e693",
      "assetIds": [
        "55464657044963196816950587289035428064568320970692304673817341489688537481216",
        "55464657044963196816950587289035428064568320970692304673817341489688537481217",
        "55464657044963196816950587289035428064568320970692304673817341489688537481218",
        "55464657044963196816950587289035428064568320970692304673817341489688537481219",
        "55464657044963196816950587289035428064568320970692304673817341489688537481220",
        "55464657044963196816950587289035428064568320970692304673817341489688537481221",
        "55464657044963196816950587289035428064568320970692304673817341489688537481222",
        "55464657044963196816950587289035428064568320970692304673817341489688537481223"
      ]
    },
    {
      "x": 273,
      "y": 202,
      "size": 1,
      "price": "4683000000000000000000",
      "reserved": "",
      "salt": "0x96f19aa34109c9362359639b74ab09d6e783bb8e942f41a8da8398478f1ba372",
      "assetIds": [
        "55464657044963196816950587289035428064568320970692304673817341489688537481216",
        "55464657044963196816950587289035428064568320970692304673817341489688537481217",
        "55464657044963196816950587289035428064568320970692304673817341489688537481218",
        "55464657044963196816950587289035428064568320970692304673817341489688537481219",
        "55464657044963196816950587289035428064568320970692304673817341489688537481220",
        "55464657044963196816950587289035428064568320970692304673817341489688537481221",
        "55464657044963196816950587289035428064568320970692304673817341489688537481222",
        "55464657044963196816950587289035428064568320970692304673817341489688537481223"
      ]
    },
    {
      "x": 273,
      "y": 203,
      "size": 1,
      "price": "1011000000000000000000",
      "reserved": "",
      "salt": "0xfdfda94e6c741e80a121012e8cc9be0bc782be47db67c34290654eccc3c6dbab",
      "assetIds": []
    },
    {
      "x": 273,
      "y": 204,
      "size": 1,
      "price": "1011000000000000000000",
      "reserved": "",
      "salt": "0x01cfb6c1b5ca80296bd0871a0eb88b89cdb97225795a1eed8884349d1bc164da",
      "assetIds": []
    },
    {
      "x": 273,
      "y": 205,
      "size": 1,
      "price": "1011000000000000000000",
      "reserved": "",
      "salt": "0x7aa861f52e42f7d40753937050e27e2f2c0becc11b2fa61b0835a357043fe2c2",
      "assetIds": []
    },
    {
      "x": 273,
      "y": 206,
      "size": 1,
      "price": "1011000000000000000000",
      "reserved": "",
      "salt": "0x521f54f56cdd0ea2467d30df49430432cfbe04faa7d7dc1258a0f6cfad836c08",
      "assetIds": []
    },
    {
      "x": 274,
      "y": 192,
      "size": 1,
      "price": "1011000000000000000000",
      "reserved": "",
      "salt": "0xacfb1425b864773ba509bbfff8b7ad56f0c05a05fdc71c9f5e68bc1d736670de",
      "assetIds": []
    },
    {
      "x": 274,
      "y": 193,
      "size": 1,
      "price": "1011000000000000000000",
      "reserved": "",
      "salt": "0x7443957d4d94d99a2430f351871ee8711a5710a2a2ab59286f7397601c336413",
      "assetIds": []
    },
    {
      "x": 274,
      "y": 194,
      "size": 1,
      "price": "1011000000000000000000",
      "reserved": "",
      "salt": "0xe69c83f0890f2011cebc469ab588c4fbaae314842bcf9730e281d78da8aa828c",
      "assetIds": []
    },
    {
      "x": 274,
      "y": 195,
      "size": 1,
      "price": "4683000000000000000000",
      "reserved": "",
      "salt": "0x9b24fd2ae01df2a08b515f94805bd5dddaee40e89cb09c9420e4816740da1108",
      "assetIds": [
        "55464657044963196816950587289035428064568320970692304673817341489688537481216",
        "55464657044963196816950587289035428064568320970692304673817341489688537481217",
        "55464657044963196816950587289035428064568320970692304673817341489688537481218",
        "55464657044963196816950587289035428064568320970692304673817341489688537481219",
        "55464657044963196816950587289035428064568320970692304673817341489688537481220",
        "55464657044963196816950587289035428064568320970692304673817341489688537481221",
        "55464657044963196816950587289035428064568320970692304673817341489688537481222",
        "55464657044963196816950587289035428064568320970692304673817341489688537481223"
      ]
    },
    {
      "x": 274,
      "y": 196,
      "size": 1,
      "price": "4683000000000000000000",
      "reserved": "",
      "salt": "0x77c62a19246376c5ec1e6a916faa2827efc96c43dd0953dc5dca495c27e4f494",
      "assetIds": [
        "55464657044963196816950587289035428064568320970692304673817341489688537481216",
        "55464657044963196816950587289035428064568320970692304673817341489688537481217",
        "55464657044963196816950587289035428064568320970692304673817341489688537481218",
        "55464657044963196816950587289035428064568320970692304673817341489688537481219",
        "55464657044963196816950587289035428064568320970692304673817341489688537481220",
        "55464657044963196816950587289035428064568320970692304673817341489688537481221",
        "55464657044963196816950587289035428064568320970692304673817341489688537481222",
        "55464657044963196816950587289035428064568320970692304673817341489688537481223"
      ]
    },
    {
      "x": 274,
      "y": 197,
      "size": 1,
      "price": "4683000000000000000000",
      "reserved": "",
      "salt": "0xd0bfbc3b5b354f7624b4026be19ce2456149b98e3648ec6b069715c7b20de194",
      "assetIds": [
        "55464657044963196816950587289035428064568320970692304673817341489688537481216",
        "55464657044963196816950587289035428064568320970692304673817341489688537481217",
        "55464657044963196816950587289035428064568320970692304673817341489688537481218",
        "55464657044963196816950587289035428064568320970692304673817341489688537481219",
        "55464657044963196816950587289035428064568320970692304673817341489688537481220",
        "55464657044963196816950587289035428064568320970692304673817341489688537481221",
        "55464657044963196816950587289035428064568320970692304673817341489688537481222",
        "55464657044963196816950587289035428064568320970692304673817341489688537481223"
      ]
    },
    {
      "x": 274,
      "y": 198,
      "size": 1,
      "price": "4683000000000000000000",
      "reserved": "",
      "salt": "0x3ff90ec0cfb48a7298946d8bfe69f5adaa80dfc1d57791ed4971258c390c7d8d",
      "assetIds": [
        "55464657044963196816950587289035428064568320970692304673817341489688537481216",
        "55464657044963196816950587289035428064568320970692304673817341489688537481217",
        "55464657044963196816950587289035428064568320970692304673817341489688537481218",
        "55464657044963196816950587289035428064568320970692304673817341489688537481219",
        "55464657044963196816950587289035428064568320970692304673817341489688537481220",
        "55464657044963196816950587289035428064568320970692304673817341489688537481221",
        "55464657044963196816950587289035428064568320970692304673817341489688537481222",
        "55464657044963196816950587289035428064568320970692304673817341489688537481223"
      ]
    },
    {
      "x": 274,
      "y": 199,
      "size": 1,
      "price": "4683000000000000000000",
      "reserved": "",
      "salt": "0xcb22e5885031b1d069b6bbea1e8cf05f804f40fb283da33cde7e5f3c6f06b1b2",
      "assetIds": [
        "55464657044963196816950587289035428064568320970692304673817341489688537481216",
        "55464657044963196816950587289035428064568320970692304673817341489688537481217",
        "55464657044963196816950587289035428064568320970692304673817341489688537481218",
        "55464657044963196816950587289035428064568320970692304673817341489688537481219",
        "55464657044963196816950587289035428064568320970692304673817341489688537481220",
        "55464657044963196816950587289035428064568320970692304673817341489688537481221",
        "55464657044963196816950587289035428064568320970692304673817341489688537481222",
        "55464657044963196816950587289035428064568320970692304673817341489688537481223"
      ]
    },
    {
      "x": 274,
      "y": 200,
      "size": 1,
      "price": "4683000000000000000000",
      "reserved": "",
      "salt": "0x4c4ea7d5e890e91c3153bf25fcb456e08c749d0ad4dad216b99019c3e9a8feb3",
      "assetIds": [
        "55464657044963196816950587289035428064568320970692304673817341489688537481216",
        "55464657044963196816950587289035428064568320970692304673817341489688537481217",
        "55464657044963196816950587289035428064568320970692304673817341489688537481218",
        "55464657044963196816950587289035428064568320970692304673817341489688537481219",
        "55464657044963196816950587289035428064568320970692304673817341489688537481220",
        "55464657044963196816950587289035428064568320970692304673817341489688537481221",
        "55464657044963196816950587289035428064568320970692304673817341489688537481222",
        "55464657044963196816950587289035428064568320970692304673817341489688537481223"
      ]
    },
    {
      "x": 274,
      "y": 201,
      "size": 1,
      "price": "4683000000000000000000",
      "reserved": "",
      "salt": "0x1e91dff14888a0f2ce655aa607eaa98451ebaeb9291e00c5235454310f73fc9d",
      "assetIds": [
        "55464657044963196816950587289035428064568320970692304673817341489688537481216",
        "55464657044963196816950587289035428064568320970692304673817341489688537481217",
        "55464657044963196816950587289035428064568320970692304673817341489688537481218",
        "55464657044963196816950587289035428064568320970692304673817341489688537481219",
        "55464657044963196816950587289035428064568320970692304673817341489688537481220",
        "55464657044963196816950587289035428064568320970692304673817341489688537481221",
        "55464657044963196816950587289035428064568320970692304673817341489688537481222",
        "55464657044963196816950587289035428064568320970692304673817341489688537481223"
      ]
    },
    {
      "x": 274,
      "y": 202,
      "size": 1,
      "price": "4683000000000000000000",
      "reserved": "",
      "salt": "0x8b914cd30e4014008dd0fb4401b803a52ec448da9de720ab6aa57020ab2a9837",
      "assetIds": [
        "55464657044963196816950587289035428064568320970692304673817341489688537481216",
        "55464657044963196816950587289035428064568320970692304673817341489688537481217",
        "55464657044963196816950587289035428064568320970692304673817341489688537481218",
        "55464657044963196816950587289035428064568320970692304673817341489688537481219",
        "55464657044963196816950587289035428064568320970692304673817341489688537481220",
        "55464657044963196816950587289035428064568320970692304673817341489688537481221",
        "55464657044963196816950587289035428064568320970692304673817341489688537481222",
        "55464657044963196816950587289035428064568320970692304673817341489688537481223"
      ]
    },
    {
      "x": 274,
      "y": 203,
      "size": 1,
      "price": "4683000000000000000000",
      "reserved": "",
      "salt": "0x22aad925a42974d64400e2f87e9191c9bd63bf7bc4d7f7b2be00c0a3d74c1ba0",
      "assetIds": [
        "55464657044963196816950587289035428064568320970692304673817341489688537481216",
        "55464657044963196816950587289035428064568320970692304673817341489688537481217",
        "55464657044963196816950587289035428064568320970692304673817341489688537481218",
        "55464657044963196816950587289035428064568320970692304673817341489688537481219",
        "55464657044963196816950587289035428064568320970692304673817341489688537481220",
        "55464657044963196816950587289035428064568320970692304673817341489688537481221",
        "55464657044963196816950587289035428064568320970692304673817341489688537481222",
        "55464657044963196816950587289035428064568320970692304673817341489688537481223"
      ]
    },
    {
      "x": 274,
      "y": 204,
      "size": 1,
      "price": "1011000000000000000000",
      "reserved": "",
      "salt": "0x050a6978fb0016d9496290d2dbf7700e477d356d767756a8564f831a1f264761",
      "assetIds": []
    },
    {
      "x": 274,
      "y": 205,
      "size": 1,
      "price": "1011000000000000000000",
      "reserved": "",
      "salt": "0xc0ecbe5e9422aad1e722dacf4d9361de5103b065baad6d59ca383b2d1beda51c",
      "assetIds": []
    },
    {
      "x": 274,
      "y": 206,
      "size": 1,
      "price": "1011000000000000000000",
      "reserved": "",
      "salt": "0xd350fc4a9bdba00e102ebd4712ce51ea3e387a0c77f2392022b670c861aa8ae2",
      "assetIds": []
    },
    {
      "x": 275,
      "y": 192,
      "size": 1,
      "price": "1011000000000000000000",
      "reserved": "",
      "salt": "0xc73b2e19e7ffe4e1c0ebf8ec72335510a3b8894361627181051e2de8103aac42",
      "assetIds": []
    },
    {
      "x": 275,
      "y": 193,
      "size": 1,
      "price": "1011000000000000000000",
      "reserved": "",
      "salt": "0xb9e1e684574fd0a7dab4c9c49153564ada857c4bc83330f4b6e34ff6804dd60d",
      "assetIds": []
    },
    {
      "x": 275,
      "y": 194,
      "size": 1,
      "price": "4683000000000000000000",
      "reserved": "",
      "salt": "0xa90eac71d9704f2d75d5b7ad3325d5f1eb88dab0f3527837195f66166e0d1be4",
      "assetIds": [
        "55464657044963196816950587289035428064568320970692304673817341489688537481216",
        "55464657044963196816950587289035428064568320970692304673817341489688537481217",
        "55464657044963196816950587289035428064568320970692304673817341489688537481218",
        "55464657044963196816950587289035428064568320970692304673817341489688537481219",
        "55464657044963196816950587289035428064568320970692304673817341489688537481220",
        "55464657044963196816950587289035428064568320970692304673817341489688537481221",
        "55464657044963196816950587289035428064568320970692304673817341489688537481222",
        "55464657044963196816950587289035428064568320970692304673817341489688537481223"
      ]
    },
    {
      "x": 275,
      "y": 195,
      "size": 1,
      "price": "4683000000000000000000",
      "reserved": "",
      "salt": "0xa8eb2a979e6d624129ea82f92d38c08f61268ebb275c0349363d908bc4d048ef",
      "assetIds": [
        "55464657044963196816950587289035428064568320970692304673817341489688537481216",
        "55464657044963196816950587289035428064568320970692304673817341489688537481217",
        "55464657044963196816950587289035428064568320970692304673817341489688537481218",
        "55464657044963196816950587289035428064568320970692304673817341489688537481219",
        "55464657044963196816950587289035428064568320970692304673817341489688537481220",
        "55464657044963196816950587289035428064568320970692304673817341489688537481221",
        "55464657044963196816950587289035428064568320970692304673817341489688537481222",
        "55464657044963196816950587289035428064568320970692304673817341489688537481223"
      ]
    },
    {
      "x": 275,
      "y": 196,
      "size": 1,
      "price": "4683000000000000000000",
      "reserved": "",
      "salt": "0x9e54d2b1268674fb2f31813f3bb5d6db86eaf1208d0fc7ee42e6f0e67fcbb3bd",
      "assetIds": [
        "55464657044963196816950587289035428064568320970692304673817341489688537481216",
        "55464657044963196816950587289035428064568320970692304673817341489688537481217",
        "55464657044963196816950587289035428064568320970692304673817341489688537481218",
        "55464657044963196816950587289035428064568320970692304673817341489688537481219",
        "55464657044963196816950587289035428064568320970692304673817341489688537481220",
        "55464657044963196816950587289035428064568320970692304673817341489688537481221",
        "55464657044963196816950587289035428064568320970692304673817341489688537481222",
        "55464657044963196816950587289035428064568320970692304673817341489688537481223"
      ]
    },
    {
      "x": 275,
      "y": 197,
      "size": 1,
      "price": "4683000000000000000000",
      "reserved": "",
      "salt": "0x4a1500e7b7fad938fad5b0e4d5b1e104ca2c8d3d212d4692115463a5f0dfb660",
      "assetIds": [
        "55464657044963196816950587289035428064568320970692304673817341489688537481216",
        "55464657044963196816950587289035428064568320970692304673817341489688537481217",
        "55464657044963196816950587289035428064568320970692304673817341489688537481218",
        "55464657044963196816950587289035428064568320970692304673817341489688537481219",
        "55464657044963196816950587289035428064568320970692304673817341489688537481220",
        "55464657044963196816950587289035428064568320970692304673817341489688537481221",
        "55464657044963196816950587289035428064568320970692304673817341489688537481222",
        "55464657044963196816950587289035428064568320970692304673817341489688537481223"
      ]
    },
    {
      "x": 275,
      "y": 198,
      "size": 1,
      "price": "4683000000000000000000",
      "reserved": "",
      "salt": "0x2de2fa2e5ef499311214c27918a52e0e237df50d0a93e48e81db47482b1a4fae",
      "assetIds": [
        "55464657044963196816950587289035428064568320970692304673817341489688537481216",
        "55464657044963196816950587289035428064568320970692304673817341489688537481217",
        "55464657044963196816950587289035428064568320970692304673817341489688537481218",
        "55464657044963196816950587289035428064568320970692304673817341489688537481219",
        "55464657044963196816950587289035428064568320970692304673817341489688537481220",
        "55464657044963196816950587289035428064568320970692304673817341489688537481221",
        "55464657044963196816950587289035428064568320970692304673817341489688537481222",
        "55464657044963196816950587289035428064568320970692304673817341489688537481223"
      ]
    },
    {
      "x": 275,
      "y": 199,
      "size": 1,
      "price": "4683000000000000000000",
      "reserved": "",
      "salt": "0xb12cfd13f1833d30d63e20894752c36c394bedcfe8cedacde4391ed48077852a",
      "assetIds": [
        "55464657044963196816950587289035428064568320970692304673817341489688537481216",
        "55464657044963196816950587289035428064568320970692304673817341489688537481217",
        "55464657044963196816950587289035428064568320970692304673817341489688537481218",
        "55464657044963196816950587289035428064568320970692304673817341489688537481219",
        "55464657044963196816950587289035428064568320970692304673817341489688537481220",
        "55464657044963196816950587289035428064568320970692304673817341489688537481221",
        "55464657044963196816950587289035428064568320970692304673817341489688537481222",
        "55464657044963196816950587289035428064568320970692304673817341489688537481223"
      ]
    },
    {
      "x": 275,
      "y": 200,
      "size": 1,
      "price": "4683000000000000000000",
      "reserved": "",
      "salt": "0xb877ef5d0d30fb00804a90f9c8efaa1b9b4f2aba26a4abf95b62fea8f84b1104",
      "assetIds": [
        "55464657044963196816950587289035428064568320970692304673817341489688537481216",
        "55464657044963196816950587289035428064568320970692304673817341489688537481217",
        "55464657044963196816950587289035428064568320970692304673817341489688537481218",
        "55464657044963196816950587289035428064568320970692304673817341489688537481219",
        "55464657044963196816950587289035428064568320970692304673817341489688537481220",
        "55464657044963196816950587289035428064568320970692304673817341489688537481221",
        "55464657044963196816950587289035428064568320970692304673817341489688537481222",
        "55464657044963196816950587289035428064568320970692304673817341489688537481223"
      ]
    },
    {
      "x": 275,
      "y": 201,
      "size": 1,
      "price": "4683000000000000000000",
      "reserved": "",
      "salt": "0x520423488f091cb04c7b2d422bd61d77c87dabeddd245308363388b603e2962f",
      "assetIds": [
        "55464657044963196816950587289035428064568320970692304673817341489688537481216",
        "55464657044963196816950587289035428064568320970692304673817341489688537481217",
        "55464657044963196816950587289035428064568320970692304673817341489688537481218",
        "55464657044963196816950587289035428064568320970692304673817341489688537481219",
        "55464657044963196816950587289035428064568320970692304673817341489688537481220",
        "55464657044963196816950587289035428064568320970692304673817341489688537481221",
        "55464657044963196816950587289035428064568320970692304673817341489688537481222",
        "55464657044963196816950587289035428064568320970692304673817341489688537481223"
      ]
    },
    {
      "x": 275,
      "y": 202,
      "size": 1,
      "price": "4683000000000000000000",
      "reserved": "",
      "salt": "0x8268f6ba2e99f6f058cbb9a81ab07939f6618f419067df748009d05370305657",
      "assetIds": [
        "55464657044963196816950587289035428064568320970692304673817341489688537481216",
        "55464657044963196816950587289035428064568320970692304673817341489688537481217",
        "55464657044963196816950587289035428064568320970692304673817341489688537481218",
        "55464657044963196816950587289035428064568320970692304673817341489688537481219",
        "55464657044963196816950587289035428064568320970692304673817341489688537481220",
        "55464657044963196816950587289035428064568320970692304673817341489688537481221",
        "55464657044963196816950587289035428064568320970692304673817341489688537481222",
        "55464657044963196816950587289035428064568320970692304673817341489688537481223"
      ]
    },
    {
      "x": 275,
      "y": 203,
      "size": 1,
      "price": "4683000000000000000000",
      "reserved": "",
      "salt": "0x6da24408c8f9f0075f6c618b585a8eb199670bd0e3ee0b8ab97395ffb2b39f57",
      "assetIds": [
        "55464657044963196816950587289035428064568320970692304673817341489688537481216",
        "55464657044963196816950587289035428064568320970692304673817341489688537481217",
        "55464657044963196816950587289035428064568320970692304673817341489688537481218",
        "55464657044963196816950587289035428064568320970692304673817341489688537481219",
        "55464657044963196816950587289035428064568320970692304673817341489688537481220",
        "55464657044963196816950587289035428064568320970692304673817341489688537481221",
        "55464657044963196816950587289035428064568320970692304673817341489688537481222",
        "55464657044963196816950587289035428064568320970692304673817341489688537481223"
      ]
    },
    {
      "x": 275,
      "y": 204,
      "size": 1,
      "price": "4683000000000000000000",
      "reserved": "",
      "salt": "0xeae730fcdb0b411d9d280a1732a077cbac09dc22c8e24e9cfe3e18d4197e3e6e",
      "assetIds": [
        "55464657044963196816950587289035428064568320970692304673817341489688537481216",
        "55464657044963196816950587289035428064568320970692304673817341489688537481217",
        "55464657044963196816950587289035428064568320970692304673817341489688537481218",
        "55464657044963196816950587289035428064568320970692304673817341489688537481219",
        "55464657044963196816950587289035428064568320970692304673817341489688537481220",
        "55464657044963196816950587289035428064568320970692304673817341489688537481221",
        "55464657044963196816950587289035428064568320970692304673817341489688537481222",
        "55464657044963196816950587289035428064568320970692304673817341489688537481223"
      ]
    },
    {
      "x": 275,
      "y": 205,
      "size": 1,
      "price": "1011000000000000000000",
      "reserved": "",
      "salt": "0x0f410f0659fbda870c88ad3f95b7e85dd6726857a8d6a6a0f6791dd5e7641367",
      "assetIds": []
    },
    {
      "x": 275,
      "y": 206,
      "size": 1,
      "price": "1011000000000000000000",
      "reserved": "",
      "salt": "0x1417c2a331cd62d8cd9a3f4836feed025167e04c58c9feeef6eb4cb164ad86d4",
      "assetIds": []
    },
    {
      "x": 276,
      "y": 195,
      "size": 1,
      "price": "4683000000000000000000",
      "reserved": "",
      "salt": "0x9b2756eadb8b46b0b75ff9b5ee655d01f91879abc955384f170d36e2d57a4141",
      "assetIds": [
        "55464657044963196816950587289035428064568320970692304673817341489688537481216",
        "55464657044963196816950587289035428064568320970692304673817341489688537481217",
        "55464657044963196816950587289035428064568320970692304673817341489688537481218",
        "55464657044963196816950587289035428064568320970692304673817341489688537481219",
        "55464657044963196816950587289035428064568320970692304673817341489688537481220",
        "55464657044963196816950587289035428064568320970692304673817341489688537481221",
        "55464657044963196816950587289035428064568320970692304673817341489688537481222",
        "55464657044963196816950587289035428064568320970692304673817341489688537481223"
      ]
    },
    {
      "x": 276,
      "y": 196,
      "size": 1,
      "price": "4683000000000000000000",
      "reserved": "",
      "salt": "0x5be85d76e5a79ae5682068b91bd902456e84f5a8453125790338128eb934a5a3",
      "assetIds": [
        "55464657044963196816950587289035428064568320970692304673817341489688537481216",
        "55464657044963196816950587289035428064568320970692304673817341489688537481217",
        "55464657044963196816950587289035428064568320970692304673817341489688537481218",
        "55464657044963196816950587289035428064568320970692304673817341489688537481219",
        "55464657044963196816950587289035428064568320970692304673817341489688537481220",
        "55464657044963196816950587289035428064568320970692304673817341489688537481221",
        "55464657044963196816950587289035428064568320970692304673817341489688537481222",
        "55464657044963196816950587289035428064568320970692304673817341489688537481223"
      ]
    },
    {
      "x": 276,
      "y": 197,
      "size": 1,
      "price": "4683000000000000000000",
      "reserved": "",
      "salt": "0x386cf02f1191438d99e5ecee6c444b11a47959cc17771c6081f39148dec1c496",
      "assetIds": [
        "55464657044963196816950587289035428064568320970692304673817341489688537481216",
        "55464657044963196816950587289035428064568320970692304673817341489688537481217",
        "55464657044963196816950587289035428064568320970692304673817341489688537481218",
        "55464657044963196816950587289035428064568320970692304673817341489688537481219",
        "55464657044963196816950587289035428064568320970692304673817341489688537481220",
        "55464657044963196816950587289035428064568320970692304673817341489688537481221",
        "55464657044963196816950587289035428064568320970692304673817341489688537481222",
        "55464657044963196816950587289035428064568320970692304673817341489688537481223"
      ]
    },
    {
      "x": 276,
      "y": 201,
      "size": 1,
      "price": "4683000000000000000000",
      "reserved": "",
      "salt": "0x57c6a8a8c9dc440bc722435737a50e263f49f7b81e9fe6c74b66cbc9032283a7",
      "assetIds": [
        "55464657044963196816950587289035428064568320970692304673817341489688537481216",
        "55464657044963196816950587289035428064568320970692304673817341489688537481217",
        "55464657044963196816950587289035428064568320970692304673817341489688537481218",
        "55464657044963196816950587289035428064568320970692304673817341489688537481219",
        "55464657044963196816950587289035428064568320970692304673817341489688537481220",
        "55464657044963196816950587289035428064568320970692304673817341489688537481221",
        "55464657044963196816950587289035428064568320970692304673817341489688537481222",
        "55464657044963196816950587289035428064568320970692304673817341489688537481223"
      ]
    },
    {
      "x": 276,
      "y": 202,
      "size": 1,
      "price": "4683000000000000000000",
      "reserved": "",
      "salt": "0x3f414484a993985c05bc5cd35d5b772d7021643e2b17d80f33d8cd58421fff59",
      "assetIds": [
        "55464657044963196816950587289035428064568320970692304673817341489688537481216",
        "55464657044963196816950587289035428064568320970692304673817341489688537481217",
        "55464657044963196816950587289035428064568320970692304673817341489688537481218",
        "55464657044963196816950587289035428064568320970692304673817341489688537481219",
        "55464657044963196816950587289035428064568320970692304673817341489688537481220",
        "55464657044963196816950587289035428064568320970692304673817341489688537481221",
        "55464657044963196816950587289035428064568320970692304673817341489688537481222",
        "55464657044963196816950587289035428064568320970692304673817341489688537481223"
      ]
    },
    {
      "x": 276,
      "y": 203,
      "size": 1,
      "price": "4683000000000000000000",
      "reserved": "",
      "salt": "0x2a75a83abcb6a720443b1263677284c63b52edd2704a5b06b9c923a9b66dff3d",
      "assetIds": [
        "55464657044963196816950587289035428064568320970692304673817341489688537481216",
        "55464657044963196816950587289035428064568320970692304673817341489688537481217",
        "55464657044963196816950587289035428064568320970692304673817341489688537481218",
        "55464657044963196816950587289035428064568320970692304673817341489688537481219",
        "55464657044963196816950587289035428064568320970692304673817341489688537481220",
        "55464657044963196816950587289035428064568320970692304673817341489688537481221",
        "55464657044963196816950587289035428064568320970692304673817341489688537481222",
        "55464657044963196816950587289035428064568320970692304673817341489688537481223"
      ]
    },
    {
      "x": 277,
      "y": 195,
      "size": 1,
      "price": "4683000000000000000000",
      "reserved": "",
      "salt": "0xb1a018ffe38bc90a84387c997fbc1255b7cd37434f3f41af430d03849c96040b",
      "assetIds": [
        "55464657044963196816950587289035428064568320970692304673817341489688537481216",
        "55464657044963196816950587289035428064568320970692304673817341489688537481217",
        "55464657044963196816950587289035428064568320970692304673817341489688537481218",
        "55464657044963196816950587289035428064568320970692304673817341489688537481219",
        "55464657044963196816950587289035428064568320970692304673817341489688537481220",
        "55464657044963196816950587289035428064568320970692304673817341489688537481221",
        "55464657044963196816950587289035428064568320970692304673817341489688537481222",
        "55464657044963196816950587289035428064568320970692304673817341489688537481223"
      ]
    },
    {
      "x": 277,
      "y": 196,
      "size": 1,
      "price": "4683000000000000000000",
      "reserved": "",
      "salt": "0x4843a6e6ac98362cc73c581c0257bd0dc845d13919f50b35e816b6cfd16ef9ed",
      "assetIds": [
        "55464657044963196816950587289035428064568320970692304673817341489688537481216",
        "55464657044963196816950587289035428064568320970692304673817341489688537481217",
        "55464657044963196816950587289035428064568320970692304673817341489688537481218",
        "55464657044963196816950587289035428064568320970692304673817341489688537481219",
        "55464657044963196816950587289035428064568320970692304673817341489688537481220",
        "55464657044963196816950587289035428064568320970692304673817341489688537481221",
        "55464657044963196816950587289035428064568320970692304673817341489688537481222",
        "55464657044963196816950587289035428064568320970692304673817341489688537481223"
      ]
    },
    {
      "x": 277,
      "y": 197,
      "size": 1,
      "price": "4683000000000000000000",
      "reserved": "",
      "salt": "0x6b97338bbcffee78d28bdb883d12e55d127892f5ead277f52839e5ed7ee40ac8",
      "assetIds": [
        "55464657044963196816950587289035428064568320970692304673817341489688537481216",
        "55464657044963196816950587289035428064568320970692304673817341489688537481217",
        "55464657044963196816950587289035428064568320970692304673817341489688537481218",
        "55464657044963196816950587289035428064568320970692304673817341489688537481219",
        "55464657044963196816950587289035428064568320970692304673817341489688537481220",
        "55464657044963196816950587289035428064568320970692304673817341489688537481221",
        "55464657044963196816950587289035428064568320970692304673817341489688537481222",
        "55464657044963196816950587289035428064568320970692304673817341489688537481223"
      ]
    },
    {
      "x": 277,
      "y": 201,
      "size": 1,
      "price": "4683000000000000000000",
      "reserved": "",
      "salt": "0x64b58a85adeff58f06f6690132e6746e30e22729e21eeb6dfab04bfbb447edee",
      "assetIds": [
        "55464657044963196816950587289035428064568320970692304673817341489688537481216",
        "55464657044963196816950587289035428064568320970692304673817341489688537481217",
        "55464657044963196816950587289035428064568320970692304673817341489688537481218",
        "55464657044963196816950587289035428064568320970692304673817341489688537481219",
        "55464657044963196816950587289035428064568320970692304673817341489688537481220",
        "55464657044963196816950587289035428064568320970692304673817341489688537481221",
        "55464657044963196816950587289035428064568320970692304673817341489688537481222",
        "55464657044963196816950587289035428064568320970692304673817341489688537481223"
      ]
    },
    {
      "x": 277,
      "y": 202,
      "size": 1,
      "price": "4683000000000000000000",
      "reserved": "",
      "salt": "0x1d9239b496649fc93d76cbd78e0782f94f04e3b56b3bf1e0d42aa14416c99c61",
      "assetIds": [
        "55464657044963196816950587289035428064568320970692304673817341489688537481216",
        "55464657044963196816950587289035428064568320970692304673817341489688537481217",
        "55464657044963196816950587289035428064568320970692304673817341489688537481218",
        "55464657044963196816950587289035428064568320970692304673817341489688537481219",
        "55464657044963196816950587289035428064568320970692304673817341489688537481220",
        "55464657044963196816950587289035428064568320970692304673817341489688537481221",
        "55464657044963196816950587289035428064568320970692304673817341489688537481222",
        "55464657044963196816950587289035428064568320970692304673817341489688537481223"
      ]
    },
    {
      "x": 277,
      "y": 203,
      "size": 1,
      "price": "4683000000000000000000",
      "reserved": "",
      "salt": "0x0d2eda350511b154e19a3e76186e40649fd8f2aeb701ed2df83ee8c3ecdc70f2",
      "assetIds": [
        "55464657044963196816950587289035428064568320970692304673817341489688537481216",
        "55464657044963196816950587289035428064568320970692304673817341489688537481217",
        "55464657044963196816950587289035428064568320970692304673817341489688537481218",
        "55464657044963196816950587289035428064568320970692304673817341489688537481219",
        "55464657044963196816950587289035428064568320970692304673817341489688537481220",
        "55464657044963196816950587289035428064568320970692304673817341489688537481221",
        "55464657044963196816950587289035428064568320970692304673817341489688537481222",
        "55464657044963196816950587289035428064568320970692304673817341489688537481223"
      ]
    },
    {
      "x": 278,
      "y": 195,
      "size": 1,
      "price": "4683000000000000000000",
      "reserved": "",
      "salt": "0x854bc1facf33d2b449e4d8a1df37eed8e15982cfccc833dd89c10731017194b9",
      "assetIds": [
        "55464657044963196816950587289035428064568320970692304673817341489688537481216",
        "55464657044963196816950587289035428064568320970692304673817341489688537481217",
        "55464657044963196816950587289035428064568320970692304673817341489688537481218",
        "55464657044963196816950587289035428064568320970692304673817341489688537481219",
        "55464657044963196816950587289035428064568320970692304673817341489688537481220",
        "55464657044963196816950587289035428064568320970692304673817341489688537481221",
        "55464657044963196816950587289035428064568320970692304673817341489688537481222",
        "55464657044963196816950587289035428064568320970692304673817341489688537481223"
      ]
    },
    {
      "x": 278,
      "y": 196,
      "size": 1,
      "price": "4683000000000000000000",
      "reserved": "",
      "salt": "0x5007e666990852e6acba8c14b4e6f2c441346818271d0b817175ec68077ee3a7",
      "assetIds": [
        "55464657044963196816950587289035428064568320970692304673817341489688537481216",
        "55464657044963196816950587289035428064568320970692304673817341489688537481217",
        "55464657044963196816950587289035428064568320970692304673817341489688537481218",
        "55464657044963196816950587289035428064568320970692304673817341489688537481219",
        "55464657044963196816950587289035428064568320970692304673817341489688537481220",
        "55464657044963196816950587289035428064568320970692304673817341489688537481221",
        "55464657044963196816950587289035428064568320970692304673817341489688537481222",
        "55464657044963196816950587289035428064568320970692304673817341489688537481223"
      ]
    },
    {
      "x": 278,
      "y": 197,
      "size": 1,
      "price": "4683000000000000000000",
      "reserved": "",
      "salt": "0x74e4f33e27415c9f93e936797f3aa52fed04ba6b87c37e0aae21c0c234723504",
      "assetIds": [
        "55464657044963196816950587289035428064568320970692304673817341489688537481216",
        "55464657044963196816950587289035428064568320970692304673817341489688537481217",
        "55464657044963196816950587289035428064568320970692304673817341489688537481218",
        "55464657044963196816950587289035428064568320970692304673817341489688537481219",
        "55464657044963196816950587289035428064568320970692304673817341489688537481220",
        "55464657044963196816950587289035428064568320970692304673817341489688537481221",
        "55464657044963196816950587289035428064568320970692304673817341489688537481222",
        "55464657044963196816950587289035428064568320970692304673817341489688537481223"
      ]
    },
    {
      "x": 278,
      "y": 201,
      "size": 1,
      "price": "4683000000000000000000",
      "reserved": "",
      "salt": "0xff1f2e3de753b18f4428f457a187288258c2c5fc15b079802b2343104222d78a",
      "assetIds": [
        "55464657044963196816950587289035428064568320970692304673817341489688537481216",
        "55464657044963196816950587289035428064568320970692304673817341489688537481217",
        "55464657044963196816950587289035428064568320970692304673817341489688537481218",
        "55464657044963196816950587289035428064568320970692304673817341489688537481219",
        "55464657044963196816950587289035428064568320970692304673817341489688537481220",
        "55464657044963196816950587289035428064568320970692304673817341489688537481221",
        "55464657044963196816950587289035428064568320970692304673817341489688537481222",
        "55464657044963196816950587289035428064568320970692304673817341489688537481223"
      ]
    },
    {
      "x": 278,
      "y": 202,
      "size": 1,
      "price": "4683000000000000000000",
      "reserved": "",
      "salt": "0xbb98119495d8a17c865465f4c54570152b9562f54183062e232dc839ab82dcab",
      "assetIds": [
        "55464657044963196816950587289035428064568320970692304673817341489688537481216",
        "55464657044963196816950587289035428064568320970692304673817341489688537481217",
        "55464657044963196816950587289035428064568320970692304673817341489688537481218",
        "55464657044963196816950587289035428064568320970692304673817341489688537481219",
        "55464657044963196816950587289035428064568320970692304673817341489688537481220",
        "55464657044963196816950587289035428064568320970692304673817341489688537481221",
        "55464657044963196816950587289035428064568320970692304673817341489688537481222",
        "55464657044963196816950587289035428064568320970692304673817341489688537481223"
      ]
    },
    {
      "x": 278,
      "y": 203,
      "size": 1,
      "price": "4683000000000000000000",
      "reserved": "",
      "salt": "0x12961288443863b9acf680a7e613958324b9dfc682a50ebe64e2bed65bf14cf9",
      "assetIds": [
        "55464657044963196816950587289035428064568320970692304673817341489688537481216",
        "55464657044963196816950587289035428064568320970692304673817341489688537481217",
        "55464657044963196816950587289035428064568320970692304673817341489688537481218",
        "55464657044963196816950587289035428064568320970692304673817341489688537481219",
        "55464657044963196816950587289035428064568320970692304673817341489688537481220",
        "55464657044963196816950587289035428064568320970692304673817341489688537481221",
        "55464657044963196816950587289035428064568320970692304673817341489688537481222",
        "55464657044963196816950587289035428064568320970692304673817341489688537481223"
      ]
    },
    {
      "x": 279,
      "y": 192,
      "size": 1,
      "price": "4683000000000000000000",
      "reserved": "",
      "salt": "0x4d2ce7f0279b16e13a3e03a085aa7ec5e1f710ac555c6a1093bef85ae31be2ca",
      "assetIds": [
        "55464657044963196816950587289035428064568320970692304673817341489688537481216",
        "55464657044963196816950587289035428064568320970692304673817341489688537481217",
        "55464657044963196816950587289035428064568320970692304673817341489688537481218",
        "55464657044963196816950587289035428064568320970692304673817341489688537481219",
        "55464657044963196816950587289035428064568320970692304673817341489688537481220",
        "55464657044963196816950587289035428064568320970692304673817341489688537481221",
        "55464657044963196816950587289035428064568320970692304673817341489688537481222",
        "55464657044963196816950587289035428064568320970692304673817341489688537481223"
      ]
    },
    {
      "x": 279,
      "y": 193,
      "size": 1,
      "price": "4683000000000000000000",
      "reserved": "",
      "salt": "0xfd69559f08f493b1d6bdbeaee4e3b1847f374e730243df241e6b88dad17f1292",
      "assetIds": [
        "55464657044963196816950587289035428064568320970692304673817341489688537481216",
        "55464657044963196816950587289035428064568320970692304673817341489688537481217",
        "55464657044963196816950587289035428064568320970692304673817341489688537481218",
        "55464657044963196816950587289035428064568320970692304673817341489688537481219",
        "55464657044963196816950587289035428064568320970692304673817341489688537481220",
        "55464657044963196816950587289035428064568320970692304673817341489688537481221",
        "55464657044963196816950587289035428064568320970692304673817341489688537481222",
        "55464657044963196816950587289035428064568320970692304673817341489688537481223"
      ]
    },
    {
      "x": 279,
      "y": 194,
      "size": 1,
      "price": "4683000000000000000000",
      "reserved": "",
      "salt": "0x2503a0a7daa10e1f7804ba8b154c12baa7d7b121c2ae33150dcad6310708d457",
      "assetIds": [
        "55464657044963196816950587289035428064568320970692304673817341489688537481216",
        "55464657044963196816950587289035428064568320970692304673817341489688537481217",
        "55464657044963196816950587289035428064568320970692304673817341489688537481218",
        "55464657044963196816950587289035428064568320970692304673817341489688537481219",
        "55464657044963196816950587289035428064568320970692304673817341489688537481220",
        "55464657044963196816950587289035428064568320970692304673817341489688537481221",
        "55464657044963196816950587289035428064568320970692304673817341489688537481222",
        "55464657044963196816950587289035428064568320970692304673817341489688537481223"
      ]
    },
    {
      "x": 279,
      "y": 195,
      "size": 1,
      "price": "4683000000000000000000",
      "reserved": "",
      "salt": "0x2d43cfb630f6c18238f978c45ef41f8ebeb5400ab3d70adc3a54e57b2fbe8aa0",
      "assetIds": [
        "55464657044963196816950587289035428064568320970692304673817341489688537481216",
        "55464657044963196816950587289035428064568320970692304673817341489688537481217",
        "55464657044963196816950587289035428064568320970692304673817341489688537481218",
        "55464657044963196816950587289035428064568320970692304673817341489688537481219",
        "55464657044963196816950587289035428064568320970692304673817341489688537481220",
        "55464657044963196816950587289035428064568320970692304673817341489688537481221",
        "55464657044963196816950587289035428064568320970692304673817341489688537481222",
        "55464657044963196816950587289035428064568320970692304673817341489688537481223"
      ]
    },
    {
      "x": 279,
      "y": 196,
      "size": 1,
      "price": "4683000000000000000000",
      "reserved": "",
      "salt": "0x613b8c7da0586087b25e4fc1da4e312f716148e638688c62739ec4238de21ee2",
      "assetIds": [
        "55464657044963196816950587289035428064568320970692304673817341489688537481216",
        "55464657044963196816950587289035428064568320970692304673817341489688537481217",
        "55464657044963196816950587289035428064568320970692304673817341489688537481218",
        "55464657044963196816950587289035428064568320970692304673817341489688537481219",
        "55464657044963196816950587289035428064568320970692304673817341489688537481220",
        "55464657044963196816950587289035428064568320970692304673817341489688537481221",
        "55464657044963196816950587289035428064568320970692304673817341489688537481222",
        "55464657044963196816950587289035428064568320970692304673817341489688537481223"
      ]
    },
    {
      "x": 279,
      "y": 197,
      "size": 1,
      "price": "4683000000000000000000",
      "reserved": "",
      "salt": "0xcfc6c0aed2dd77180066ab2faacf4a7a541bbda4d6eae60b2f29988cd4b47171",
      "assetIds": [
        "55464657044963196816950587289035428064568320970692304673817341489688537481216",
        "55464657044963196816950587289035428064568320970692304673817341489688537481217",
        "55464657044963196816950587289035428064568320970692304673817341489688537481218",
        "55464657044963196816950587289035428064568320970692304673817341489688537481219",
        "55464657044963196816950587289035428064568320970692304673817341489688537481220",
        "55464657044963196816950587289035428064568320970692304673817341489688537481221",
        "55464657044963196816950587289035428064568320970692304673817341489688537481222",
        "55464657044963196816950587289035428064568320970692304673817341489688537481223"
      ]
    },
    {
      "x": 279,
      "y": 198,
      "size": 1,
      "price": "4683000000000000000000",
      "reserved": "",
      "salt": "0x097525be826b74269911831317c4cfc7eb3c32766be105c94f915d369e7a5508",
      "assetIds": [
        "55464657044963196816950587289035428064568320970692304673817341489688537481216",
        "55464657044963196816950587289035428064568320970692304673817341489688537481217",
        "55464657044963196816950587289035428064568320970692304673817341489688537481218",
        "55464657044963196816950587289035428064568320970692304673817341489688537481219",
        "55464657044963196816950587289035428064568320970692304673817341489688537481220",
        "55464657044963196816950587289035428064568320970692304673817341489688537481221",
        "55464657044963196816950587289035428064568320970692304673817341489688537481222",
        "55464657044963196816950587289035428064568320970692304673817341489688537481223"
      ]
    },
    {
      "x": 279,
      "y": 199,
      "size": 1,
      "price": "4683000000000000000000",
      "reserved": "",
      "salt": "0xaf60ffdbe0259e1edc941601c6c235750a76efb3524eeca0efaeda3381795b4c",
      "assetIds": [
        "55464657044963196816950587289035428064568320970692304673817341489688537481216",
        "55464657044963196816950587289035428064568320970692304673817341489688537481217",
        "55464657044963196816950587289035428064568320970692304673817341489688537481218",
        "55464657044963196816950587289035428064568320970692304673817341489688537481219",
        "55464657044963196816950587289035428064568320970692304673817341489688537481220",
        "55464657044963196816950587289035428064568320970692304673817341489688537481221",
        "55464657044963196816950587289035428064568320970692304673817341489688537481222",
        "55464657044963196816950587289035428064568320970692304673817341489688537481223"
      ]
    },
    {
      "x": 279,
      "y": 200,
      "size": 1,
      "price": "4683000000000000000000",
      "reserved": "",
      "salt": "0x66b54afb25516d65e351bc89b4bc0b75148c2d5bb597d1b1b0bc6a2ed22ad3e2",
      "assetIds": [
        "55464657044963196816950587289035428064568320970692304673817341489688537481216",
        "55464657044963196816950587289035428064568320970692304673817341489688537481217",
        "55464657044963196816950587289035428064568320970692304673817341489688537481218",
        "55464657044963196816950587289035428064568320970692304673817341489688537481219",
        "55464657044963196816950587289035428064568320970692304673817341489688537481220",
        "55464657044963196816950587289035428064568320970692304673817341489688537481221",
        "55464657044963196816950587289035428064568320970692304673817341489688537481222",
        "55464657044963196816950587289035428064568320970692304673817341489688537481223"
      ]
    },
    {
      "x": 280,
      "y": 192,
      "size": 1,
      "price": "4683000000000000000000",
      "reserved": "",
      "salt": "0x90777bd146f8877ef4892db71eeb275b1e2a19fc6a9fbc7a8fd73d489380253e",
      "assetIds": [
        "55464657044963196816950587289035428064568320970692304673817341489688537481216",
        "55464657044963196816950587289035428064568320970692304673817341489688537481217",
        "55464657044963196816950587289035428064568320970692304673817341489688537481218",
        "55464657044963196816950587289035428064568320970692304673817341489688537481219",
        "55464657044963196816950587289035428064568320970692304673817341489688537481220",
        "55464657044963196816950587289035428064568320970692304673817341489688537481221",
        "55464657044963196816950587289035428064568320970692304673817341489688537481222",
        "55464657044963196816950587289035428064568320970692304673817341489688537481223"
      ]
    },
    {
      "x": 280,
      "y": 193,
      "size": 1,
      "price": "4683000000000000000000",
      "reserved": "",
      "salt": "0xafb8f3521c4c8a52db79a3bfb22a030e8d86629b2ae21b2202bd426ffec71c1f",
      "assetIds": [
        "55464657044963196816950587289035428064568320970692304673817341489688537481216",
        "55464657044963196816950587289035428064568320970692304673817341489688537481217",
        "55464657044963196816950587289035428064568320970692304673817341489688537481218",
        "55464657044963196816950587289035428064568320970692304673817341489688537481219",
        "55464657044963196816950587289035428064568320970692304673817341489688537481220",
        "55464657044963196816950587289035428064568320970692304673817341489688537481221",
        "55464657044963196816950587289035428064568320970692304673817341489688537481222",
        "55464657044963196816950587289035428064568320970692304673817341489688537481223"
      ]
    },
    {
      "x": 280,
      "y": 194,
      "size": 1,
      "price": "4683000000000000000000",
      "reserved": "",
      "salt": "0xe0835bd0d21d2f23e630d0a88b37dc68b848f403d90a280bb13eff1aeab86a3f",
      "assetIds": [
        "55464657044963196816950587289035428064568320970692304673817341489688537481216",
        "55464657044963196816950587289035428064568320970692304673817341489688537481217",
        "55464657044963196816950587289035428064568320970692304673817341489688537481218",
        "55464657044963196816950587289035428064568320970692304673817341489688537481219",
        "55464657044963196816950587289035428064568320970692304673817341489688537481220",
        "55464657044963196816950587289035428064568320970692304673817341489688537481221",
        "55464657044963196816950587289035428064568320970692304673817341489688537481222",
        "55464657044963196816950587289035428064568320970692304673817341489688537481223"
      ]
    },
    {
      "x": 280,
      "y": 195,
      "size": 1,
      "price": "4683000000000000000000",
      "reserved": "",
      "salt": "0x70ac67e712b1402bb8bc05da086dacdde72a8d4b101218302e54fd77c3e5f251",
      "assetIds": [
        "55464657044963196816950587289035428064568320970692304673817341489688537481216",
        "55464657044963196816950587289035428064568320970692304673817341489688537481217",
        "55464657044963196816950587289035428064568320970692304673817341489688537481218",
        "55464657044963196816950587289035428064568320970692304673817341489688537481219",
        "55464657044963196816950587289035428064568320970692304673817341489688537481220",
        "55464657044963196816950587289035428064568320970692304673817341489688537481221",
        "55464657044963196816950587289035428064568320970692304673817341489688537481222",
        "55464657044963196816950587289035428064568320970692304673817341489688537481223"
      ]
    },
    {
      "x": 280,
      "y": 196,
      "size": 1,
      "price": "4683000000000000000000",
      "reserved": "",
      "salt": "0xd43f26ec7f8953542153fc61d9ece97f97566e43caad2ba99944b18335d6dd9d",
      "assetIds": [
        "55464657044963196816950587289035428064568320970692304673817341489688537481216",
        "55464657044963196816950587289035428064568320970692304673817341489688537481217",
        "55464657044963196816950587289035428064568320970692304673817341489688537481218",
        "55464657044963196816950587289035428064568320970692304673817341489688537481219",
        "55464657044963196816950587289035428064568320970692304673817341489688537481220",
        "55464657044963196816950587289035428064568320970692304673817341489688537481221",
        "55464657044963196816950587289035428064568320970692304673817341489688537481222",
        "55464657044963196816950587289035428064568320970692304673817341489688537481223"
      ]
    },
    {
      "x": 280,
      "y": 197,
      "size": 1,
      "price": "4683000000000000000000",
      "reserved": "",
      "salt": "0x59bec17cb0aa0b39e454d1756a090f9952fffb4627c2733b2307021213c2fb82",
      "assetIds": [
        "55464657044963196816950587289035428064568320970692304673817341489688537481216",
        "55464657044963196816950587289035428064568320970692304673817341489688537481217",
        "55464657044963196816950587289035428064568320970692304673817341489688537481218",
        "55464657044963196816950587289035428064568320970692304673817341489688537481219",
        "55464657044963196816950587289035428064568320970692304673817341489688537481220",
        "55464657044963196816950587289035428064568320970692304673817341489688537481221",
        "55464657044963196816950587289035428064568320970692304673817341489688537481222",
        "55464657044963196816950587289035428064568320970692304673817341489688537481223"
      ]
    },
    {
      "x": 280,
      "y": 198,
      "size": 1,
      "price": "4683000000000000000000",
      "reserved": "",
      "salt": "0xeb4d1024a310a83658dd8a46f164fe20ea904e7865a04c897df4b40b0355b94e",
      "assetIds": [
        "55464657044963196816950587289035428064568320970692304673817341489688537481216",
        "55464657044963196816950587289035428064568320970692304673817341489688537481217",
        "55464657044963196816950587289035428064568320970692304673817341489688537481218",
        "55464657044963196816950587289035428064568320970692304673817341489688537481219",
        "55464657044963196816950587289035428064568320970692304673817341489688537481220",
        "55464657044963196816950587289035428064568320970692304673817341489688537481221",
        "55464657044963196816950587289035428064568320970692304673817341489688537481222",
        "55464657044963196816950587289035428064568320970692304673817341489688537481223"
      ]
    },
    {
      "x": 280,
      "y": 199,
      "size": 1,
      "price": "4683000000000000000000",
      "reserved": "",
      "salt": "0x12b6b866fef6adbeec4e9bedc8ef2831e939d9c52bbcb2a0ced58ee192f9be2b",
      "assetIds": [
        "55464657044963196816950587289035428064568320970692304673817341489688537481216",
        "55464657044963196816950587289035428064568320970692304673817341489688537481217",
        "55464657044963196816950587289035428064568320970692304673817341489688537481218",
        "55464657044963196816950587289035428064568320970692304673817341489688537481219",
        "55464657044963196816950587289035428064568320970692304673817341489688537481220",
        "55464657044963196816950587289035428064568320970692304673817341489688537481221",
        "55464657044963196816950587289035428064568320970692304673817341489688537481222",
        "55464657044963196816950587289035428064568320970692304673817341489688537481223"
      ]
    },
    {
      "x": 280,
      "y": 200,
      "size": 1,
      "price": "4683000000000000000000",
      "reserved": "",
      "salt": "0x55b73dda8baece748324ad4b3037c290a8ba710d65afccf9f8301b27ba17cde6",
      "assetIds": [
        "55464657044963196816950587289035428064568320970692304673817341489688537481216",
        "55464657044963196816950587289035428064568320970692304673817341489688537481217",
        "55464657044963196816950587289035428064568320970692304673817341489688537481218",
        "55464657044963196816950587289035428064568320970692304673817341489688537481219",
        "55464657044963196816950587289035428064568320970692304673817341489688537481220",
        "55464657044963196816950587289035428064568320970692304673817341489688537481221",
        "55464657044963196816950587289035428064568320970692304673817341489688537481222",
        "55464657044963196816950587289035428064568320970692304673817341489688537481223"
      ]
    },
    {
      "x": 281,
      "y": 192,
      "size": 1,
      "price": "4683000000000000000000",
      "reserved": "",
      "salt": "0x1d368a84eb4d3fcd6ead998c1103899b36457451f7944e7ccaea751726fcfa2d",
      "assetIds": [
        "55464657044963196816950587289035428064568320970692304673817341489688537481216",
        "55464657044963196816950587289035428064568320970692304673817341489688537481217",
        "55464657044963196816950587289035428064568320970692304673817341489688537481218",
        "55464657044963196816950587289035428064568320970692304673817341489688537481219",
        "55464657044963196816950587289035428064568320970692304673817341489688537481220",
        "55464657044963196816950587289035428064568320970692304673817341489688537481221",
        "55464657044963196816950587289035428064568320970692304673817341489688537481222",
        "55464657044963196816950587289035428064568320970692304673817341489688537481223"
      ]
    },
    {
      "x": 281,
      "y": 193,
      "size": 1,
      "price": "4683000000000000000000",
      "reserved": "",
      "salt": "0x6564b6ab0b3c2c2743348c84447e6702ea8794f7f252fb878026a9b5fdbab8a8",
      "assetIds": [
        "55464657044963196816950587289035428064568320970692304673817341489688537481216",
        "55464657044963196816950587289035428064568320970692304673817341489688537481217",
        "55464657044963196816950587289035428064568320970692304673817341489688537481218",
        "55464657044963196816950587289035428064568320970692304673817341489688537481219",
        "55464657044963196816950587289035428064568320970692304673817341489688537481220",
        "55464657044963196816950587289035428064568320970692304673817341489688537481221",
        "55464657044963196816950587289035428064568320970692304673817341489688537481222",
        "55464657044963196816950587289035428064568320970692304673817341489688537481223"
      ]
    },
    {
      "x": 281,
      "y": 194,
      "size": 1,
      "price": "4683000000000000000000",
      "reserved": "",
      "salt": "0xe92e6cc63fc1a3a2354af17a9974c188bc54b6f70ed49e77aa25fd1089230ce2",
      "assetIds": [
        "55464657044963196816950587289035428064568320970692304673817341489688537481216",
        "55464657044963196816950587289035428064568320970692304673817341489688537481217",
        "55464657044963196816950587289035428064568320970692304673817341489688537481218",
        "55464657044963196816950587289035428064568320970692304673817341489688537481219",
        "55464657044963196816950587289035428064568320970692304673817341489688537481220",
        "55464657044963196816950587289035428064568320970692304673817341489688537481221",
        "55464657044963196816950587289035428064568320970692304673817341489688537481222",
        "55464657044963196816950587289035428064568320970692304673817341489688537481223"
      ]
    },
    {
      "x": 281,
      "y": 195,
      "size": 1,
      "price": "4683000000000000000000",
      "reserved": "",
      "salt": "0x52e6f2ae6db46253e2d9290eff2b31cd7543ed801a911fefa296b686fe51a2ca",
      "assetIds": [
        "55464657044963196816950587289035428064568320970692304673817341489688537481216",
        "55464657044963196816950587289035428064568320970692304673817341489688537481217",
        "55464657044963196816950587289035428064568320970692304673817341489688537481218",
        "55464657044963196816950587289035428064568320970692304673817341489688537481219",
        "55464657044963196816950587289035428064568320970692304673817341489688537481220",
        "55464657044963196816950587289035428064568320970692304673817341489688537481221",
        "55464657044963196816950587289035428064568320970692304673817341489688537481222",
        "55464657044963196816950587289035428064568320970692304673817341489688537481223"
      ]
    },
    {
      "x": 281,
      "y": 196,
      "size": 1,
      "price": "4683000000000000000000",
      "reserved": "",
      "salt": "0xe45f18a7ab4ed6f2e529c09da9cd398daf9c2d0abdc5489b63e03a2d8df615f4",
      "assetIds": [
        "55464657044963196816950587289035428064568320970692304673817341489688537481216",
        "55464657044963196816950587289035428064568320970692304673817341489688537481217",
        "55464657044963196816950587289035428064568320970692304673817341489688537481218",
        "55464657044963196816950587289035428064568320970692304673817341489688537481219",
        "55464657044963196816950587289035428064568320970692304673817341489688537481220",
        "55464657044963196816950587289035428064568320970692304673817341489688537481221",
        "55464657044963196816950587289035428064568320970692304673817341489688537481222",
        "55464657044963196816950587289035428064568320970692304673817341489688537481223"
      ]
    },
    {
      "x": 281,
      "y": 197,
      "size": 1,
      "price": "4683000000000000000000",
      "reserved": "",
      "salt": "0xcc235d46a9a314c8a7d83760d52c5f8d23d5dd8a0b5181e90f85b67d2b4ce521",
      "assetIds": [
        "55464657044963196816950587289035428064568320970692304673817341489688537481216",
        "55464657044963196816950587289035428064568320970692304673817341489688537481217",
        "55464657044963196816950587289035428064568320970692304673817341489688537481218",
        "55464657044963196816950587289035428064568320970692304673817341489688537481219",
        "55464657044963196816950587289035428064568320970692304673817341489688537481220",
        "55464657044963196816950587289035428064568320970692304673817341489688537481221",
        "55464657044963196816950587289035428064568320970692304673817341489688537481222",
        "55464657044963196816950587289035428064568320970692304673817341489688537481223"
      ]
    },
    {
      "x": 281,
      "y": 198,
      "size": 1,
      "price": "4683000000000000000000",
      "reserved": "",
      "salt": "0x8e8610313117b7258c661bd73dc36a7b97449035a02086ce66385c372f7edf1f",
      "assetIds": [
        "55464657044963196816950587289035428064568320970692304673817341489688537481216",
        "55464657044963196816950587289035428064568320970692304673817341489688537481217",
        "55464657044963196816950587289035428064568320970692304673817341489688537481218",
        "55464657044963196816950587289035428064568320970692304673817341489688537481219",
        "55464657044963196816950587289035428064568320970692304673817341489688537481220",
        "55464657044963196816950587289035428064568320970692304673817341489688537481221",
        "55464657044963196816950587289035428064568320970692304673817341489688537481222",
        "55464657044963196816950587289035428064568320970692304673817341489688537481223"
      ]
    },
    {
      "x": 281,
      "y": 199,
      "size": 1,
      "price": "4683000000000000000000",
      "reserved": "",
      "salt": "0x38111405864b7d0651a00b8dfef008067017f9343d19cbe8972c8d609e82d51a",
      "assetIds": [
        "55464657044963196816950587289035428064568320970692304673817341489688537481216",
        "55464657044963196816950587289035428064568320970692304673817341489688537481217",
        "55464657044963196816950587289035428064568320970692304673817341489688537481218",
        "55464657044963196816950587289035428064568320970692304673817341489688537481219",
        "55464657044963196816950587289035428064568320970692304673817341489688537481220",
        "55464657044963196816950587289035428064568320970692304673817341489688537481221",
        "55464657044963196816950587289035428064568320970692304673817341489688537481222",
        "55464657044963196816950587289035428064568320970692304673817341489688537481223"
      ]
    },
    {
      "x": 281,
      "y": 200,
      "size": 1,
      "price": "4683000000000000000000",
      "reserved": "",
      "salt": "0x7a039eba40b5ee8ee40ad0f32eb0017ef08f36fdcba7c97deea2f4d866716471",
      "assetIds": [
        "55464657044963196816950587289035428064568320970692304673817341489688537481216",
        "55464657044963196816950587289035428064568320970692304673817341489688537481217",
        "55464657044963196816950587289035428064568320970692304673817341489688537481218",
        "55464657044963196816950587289035428064568320970692304673817341489688537481219",
        "55464657044963196816950587289035428064568320970692304673817341489688537481220",
        "55464657044963196816950587289035428064568320970692304673817341489688537481221",
        "55464657044963196816950587289035428064568320970692304673817341489688537481222",
        "55464657044963196816950587289035428064568320970692304673817341489688537481223"
      ]
    },
    {
      "x": 282,
      "y": 186,
      "size": 1,
      "price": "1011000000000000000000",
      "reserved": "",
      "salt": "0xd52338f97ac57325e28f1c1ab42b89b9f5bf961fc4260fea06b7bb17b4ab7d94",
      "assetIds": []
    },
    {
      "x": 282,
      "y": 187,
      "size": 1,
      "price": "1011000000000000000000",
      "reserved": "",
      "salt": "0x9ee055d6f4dfd9d48205e4d3f29110be3c2943be82926c88a19aa237a84f2a3f",
      "assetIds": []
    },
    {
      "x": 282,
      "y": 188,
      "size": 1,
      "price": "1011000000000000000000",
      "reserved": "",
      "salt": "0x9ae56321ba698f7671c513e835f1c557c0b3d63bb91d7ff37259dd758374f2fb",
      "assetIds": []
    },
    {
      "x": 282,
      "y": 189,
      "size": 1,
      "price": "1011000000000000000000",
      "reserved": "",
      "salt": "0x1f08d00dfc68beeae8b0db49acef78a1b195083371f7ae15cf7b4f114ee134be",
      "assetIds": []
    },
    {
      "x": 282,
      "y": 190,
      "size": 1,
      "price": "1011000000000000000000",
      "reserved": "",
      "salt": "0x9f60be281f1759bb477b0ae5918a9d44495c04d380294dc4f488dda2a22b036f",
      "assetIds": []
    },
    {
      "x": 282,
      "y": 191,
      "size": 1,
      "price": "4683000000000000000000",
      "reserved": "",
      "salt": "0x75d01d2d4923922c18dd500b8b81073afec9af9cb6e243b5f8e89d9a83872c07",
      "assetIds": [
        "55464657044963196816950587289035428064568320970692304673817341489688537481216",
        "55464657044963196816950587289035428064568320970692304673817341489688537481217",
        "55464657044963196816950587289035428064568320970692304673817341489688537481218",
        "55464657044963196816950587289035428064568320970692304673817341489688537481219",
        "55464657044963196816950587289035428064568320970692304673817341489688537481220",
        "55464657044963196816950587289035428064568320970692304673817341489688537481221",
        "55464657044963196816950587289035428064568320970692304673817341489688537481222",
        "55464657044963196816950587289035428064568320970692304673817341489688537481223"
      ]
    },
    {
      "x": 282,
      "y": 192,
      "size": 1,
      "price": "4683000000000000000000",
      "reserved": "",
      "salt": "0xad305c12d1e3cd828c5dea0a94536dfc46b9b8d7628b2bf738518c220abc7652",
      "assetIds": [
        "55464657044963196816950587289035428064568320970692304673817341489688537481216",
        "55464657044963196816950587289035428064568320970692304673817341489688537481217",
        "55464657044963196816950587289035428064568320970692304673817341489688537481218",
        "55464657044963196816950587289035428064568320970692304673817341489688537481219",
        "55464657044963196816950587289035428064568320970692304673817341489688537481220",
        "55464657044963196816950587289035428064568320970692304673817341489688537481221",
        "55464657044963196816950587289035428064568320970692304673817341489688537481222",
        "55464657044963196816950587289035428064568320970692304673817341489688537481223"
      ]
    },
    {
      "x": 282,
      "y": 193,
      "size": 1,
      "price": "4683000000000000000000",
      "reserved": "",
      "salt": "0x909b637ac480764708e392d2b3ecec08babb80679022bedbd0e40db8162ea7be",
      "assetIds": [
        "55464657044963196816950587289035428064568320970692304673817341489688537481216",
        "55464657044963196816950587289035428064568320970692304673817341489688537481217",
        "55464657044963196816950587289035428064568320970692304673817341489688537481218",
        "55464657044963196816950587289035428064568320970692304673817341489688537481219",
        "55464657044963196816950587289035428064568320970692304673817341489688537481220",
        "55464657044963196816950587289035428064568320970692304673817341489688537481221",
        "55464657044963196816950587289035428064568320970692304673817341489688537481222",
        "55464657044963196816950587289035428064568320970692304673817341489688537481223"
      ]
    },
    {
      "x": 282,
      "y": 194,
      "size": 1,
      "price": "4683000000000000000000",
      "reserved": "",
      "salt": "0xf5133e5b87ee9bf7782582812fdbab7ff0dabfc4898c0b82b9f265827d391287",
      "assetIds": [
        "55464657044963196816950587289035428064568320970692304673817341489688537481216",
        "55464657044963196816950587289035428064568320970692304673817341489688537481217",
        "55464657044963196816950587289035428064568320970692304673817341489688537481218",
        "55464657044963196816950587289035428064568320970692304673817341489688537481219",
        "55464657044963196816950587289035428064568320970692304673817341489688537481220",
        "55464657044963196816950587289035428064568320970692304673817341489688537481221",
        "55464657044963196816950587289035428064568320970692304673817341489688537481222",
        "55464657044963196816950587289035428064568320970692304673817341489688537481223"
      ]
    },
    {
      "x": 283,
      "y": 186,
      "size": 1,
      "price": "1011000000000000000000",
      "reserved": "",
      "salt": "0x79674f7cbf77258fa2f706902766147d53a159c68f4ff9c826a9751b23bb7e9e",
      "assetIds": []
    },
    {
      "x": 283,
      "y": 187,
      "size": 1,
      "price": "1011000000000000000000",
      "reserved": "",
      "salt": "0xfbf513c90edc75f65b13b3e16d7c8f6a8f2f76f771a5b1523d0c835591f55bb0",
      "assetIds": []
    },
    {
      "x": 283,
      "y": 188,
      "size": 1,
      "price": "1011000000000000000000",
      "reserved": "",
      "salt": "0xcbd8733222c2f4c400bb148b3458bf24fd8d48af8e3b8709d9d6beaba5432df8",
      "assetIds": []
    },
    {
      "x": 283,
      "y": 189,
      "size": 1,
      "price": "1011000000000000000000",
      "reserved": "",
      "salt": "0x72ee2740146a7e3ca40f715633c5a54ef4c26aad5b7837bb23bc9677006af2a3",
      "assetIds": []
    },
    {
      "x": 283,
      "y": 190,
      "size": 1,
      "price": "1011000000000000000000",
      "reserved": "",
      "salt": "0x08396cc9b4331d143526bc7860765788b7348e3d1846d9df8c6c7b27641dbdf3",
      "assetIds": []
    },
    {
      "x": 283,
      "y": 191,
      "size": 1,
      "price": "1011000000000000000000",
      "reserved": "",
      "salt": "0xd4b782fe2693e5996d6f2ca2ca81304eede22a9ff148eb4ac7e99d11cd3220ec",
      "assetIds": []
    },
    {
      "x": 283,
      "y": 192,
      "size": 1,
      "price": "4683000000000000000000",
      "reserved": "",
      "salt": "0xbf54e7520e0792c000d54e80e0608280248784c0154c5f87aa830d88e009679b",
      "assetIds": [
        "55464657044963196816950587289035428064568320970692304673817341489688537481216",
        "55464657044963196816950587289035428064568320970692304673817341489688537481217",
        "55464657044963196816950587289035428064568320970692304673817341489688537481218",
        "55464657044963196816950587289035428064568320970692304673817341489688537481219",
        "55464657044963196816950587289035428064568320970692304673817341489688537481220",
        "55464657044963196816950587289035428064568320970692304673817341489688537481221",
        "55464657044963196816950587289035428064568320970692304673817341489688537481222",
        "55464657044963196816950587289035428064568320970692304673817341489688537481223"
      ]
    },
    {
      "x": 283,
      "y": 193,
      "size": 1,
      "price": "4683000000000000000000",
      "reserved": "",
      "salt": "0xb57d70e18405149622820798a56333cd0b7d1090fc45b94272234924db21c9c4",
      "assetIds": [
        "55464657044963196816950587289035428064568320970692304673817341489688537481216",
        "55464657044963196816950587289035428064568320970692304673817341489688537481217",
        "55464657044963196816950587289035428064568320970692304673817341489688537481218",
        "55464657044963196816950587289035428064568320970692304673817341489688537481219",
        "55464657044963196816950587289035428064568320970692304673817341489688537481220",
        "55464657044963196816950587289035428064568320970692304673817341489688537481221",
        "55464657044963196816950587289035428064568320970692304673817341489688537481222",
        "55464657044963196816950587289035428064568320970692304673817341489688537481223"
      ]
    },
    {
      "x": 283,
      "y": 194,
      "size": 1,
      "price": "4683000000000000000000",
      "reserved": "",
      "salt": "0x2d1338760ecbc697443e1b3dc4f42cd8475f665196ddedb195347fa187217f43",
      "assetIds": [
        "55464657044963196816950587289035428064568320970692304673817341489688537481216",
        "55464657044963196816950587289035428064568320970692304673817341489688537481217",
        "55464657044963196816950587289035428064568320970692304673817341489688537481218",
        "55464657044963196816950587289035428064568320970692304673817341489688537481219",
        "55464657044963196816950587289035428064568320970692304673817341489688537481220",
        "55464657044963196816950587289035428064568320970692304673817341489688537481221",
        "55464657044963196816950587289035428064568320970692304673817341489688537481222",
        "55464657044963196816950587289035428064568320970692304673817341489688537481223"
      ]
    },
    {
      "x": 284,
      "y": 186,
      "size": 1,
      "price": "1011000000000000000000",
      "reserved": "",
      "salt": "0x6ce4c66d40296bde5624150ea289e9bced97bf8dc9f93b3a53b6041863034047",
      "assetIds": []
    },
    {
      "x": 284,
      "y": 187,
      "size": 1,
      "price": "1011000000000000000000",
      "reserved": "",
      "salt": "0x58cd5a2be320592df4a035ed3c2e353037502e5c5b860fbe59d5e588f63bad13",
      "assetIds": []
    },
    {
      "x": 284,
      "y": 188,
      "size": 1,
      "price": "1011000000000000000000",
      "reserved": "",
      "salt": "0x66d80362a3c01532117fc8c8bf9d9b208ae9243a10ef1578e062fa9327de5cdb",
      "assetIds": []
    },
    {
      "x": 284,
      "y": 189,
      "size": 1,
      "price": "1011000000000000000000",
      "reserved": "",
      "salt": "0xa83a09365abe7ee2cc2829aa66a7a55c64eaaae3189e3ca32057e425d03c6925",
      "assetIds": []
    },
    {
      "x": 284,
      "y": 190,
      "size": 1,
      "price": "1011000000000000000000",
      "reserved": "",
      "salt": "0x070159e85daf0ba972aaf0f60ecd0a7feca32d6ed9efdae16a67be1914a32d07",
      "assetIds": []
    },
    {
      "x": 284,
      "y": 191,
      "size": 1,
      "price": "1011000000000000000000",
      "reserved": "",
      "salt": "0x42f9051039d5664b2084c6c5df50f3e8ec1698f8242875f8fb42fc7994966780",
      "assetIds": []
    },
    {
      "x": 284,
      "y": 192,
      "size": 1,
      "price": "4683000000000000000000",
      "reserved": "",
      "salt": "0x82a217be9c06c39d3a14e38b9f2c2590a041bd1d888486fc9edbb6d1a4b7ac26",
      "assetIds": [
        "55464657044963196816950587289035428064568320970692304673817341489688537481216",
        "55464657044963196816950587289035428064568320970692304673817341489688537481217",
        "55464657044963196816950587289035428064568320970692304673817341489688537481218",
        "55464657044963196816950587289035428064568320970692304673817341489688537481219",
        "55464657044963196816950587289035428064568320970692304673817341489688537481220",
        "55464657044963196816950587289035428064568320970692304673817341489688537481221",
        "55464657044963196816950587289035428064568320970692304673817341489688537481222",
        "55464657044963196816950587289035428064568320970692304673817341489688537481223"
      ]
    },
    {
      "x": 284,
      "y": 193,
      "size": 1,
      "price": "4683000000000000000000",
      "reserved": "",
      "salt": "0xb911a99427dd8d0ce5ccc4a10a4b3eee70fc89ba322feec703fdb823fe0df4c3",
      "assetIds": [
        "55464657044963196816950587289035428064568320970692304673817341489688537481216",
        "55464657044963196816950587289035428064568320970692304673817341489688537481217",
        "55464657044963196816950587289035428064568320970692304673817341489688537481218",
        "55464657044963196816950587289035428064568320970692304673817341489688537481219",
        "55464657044963196816950587289035428064568320970692304673817341489688537481220",
        "55464657044963196816950587289035428064568320970692304673817341489688537481221",
        "55464657044963196816950587289035428064568320970692304673817341489688537481222",
        "55464657044963196816950587289035428064568320970692304673817341489688537481223"
      ]
    },
    {
      "x": 284,
      "y": 194,
      "size": 1,
      "price": "4683000000000000000000",
      "reserved": "",
      "salt": "0x3eddf514ca4f61d0a6d7eb570dfa35d5fd98ae8ce5d816a0766eb4a667fa5602",
      "assetIds": [
        "55464657044963196816950587289035428064568320970692304673817341489688537481216",
        "55464657044963196816950587289035428064568320970692304673817341489688537481217",
        "55464657044963196816950587289035428064568320970692304673817341489688537481218",
        "55464657044963196816950587289035428064568320970692304673817341489688537481219",
        "55464657044963196816950587289035428064568320970692304673817341489688537481220",
        "55464657044963196816950587289035428064568320970692304673817341489688537481221",
        "55464657044963196816950587289035428064568320970692304673817341489688537481222",
        "55464657044963196816950587289035428064568320970692304673817341489688537481223"
      ]
    },
    {
      "x": 285,
      "y": 186,
      "size": 1,
      "price": "1011000000000000000000",
      "reserved": "",
      "salt": "0xa197fc4aebeed04d3fc8380cfca70bf2962a11c9a7ed649049e93ed4e92c2f1b",
      "assetIds": []
    },
    {
      "x": 285,
      "y": 187,
      "size": 1,
      "price": "1011000000000000000000",
      "reserved": "",
      "salt": "0x494be463c0b956bef43065a841ff4f83ce822660bfbf61723368bbf2f69ef7c8",
      "assetIds": []
    },
    {
      "x": 285,
      "y": 188,
      "size": 1,
      "price": "1011000000000000000000",
      "reserved": "",
      "salt": "0x474cca82faf40c77ce6e496c3250ffa16867e7e97a87c59f01c152c79be100bf",
      "assetIds": []
    },
    {
      "x": 285,
      "y": 189,
      "size": 1,
      "price": "1011000000000000000000",
      "reserved": "",
      "salt": "0x0e2ff777bc48c4c126215dd4780b13f4416e34fb5df7a8a0e52b66002b5190b9",
      "assetIds": []
    },
    {
      "x": 285,
      "y": 190,
      "size": 1,
      "price": "1011000000000000000000",
      "reserved": "",
      "salt": "0x44418243e3a873f5453d0af2d49c28b871b2bb8a168930afe096ee0cc01b1cd7",
      "assetIds": []
    },
    {
      "x": 285,
      "y": 191,
      "size": 1,
      "price": "1011000000000000000000",
      "reserved": "",
      "salt": "0xb204e93f328320754c699442e2f038900b6f31b1d75c4dc18b23cb402dca7d8d",
      "assetIds": []
    },
    {
      "x": 285,
      "y": 192,
      "size": 1,
      "price": "4683000000000000000000",
      "reserved": "",
      "salt": "0x7dc5ec1601670be034f85e6173b34370ba1b19fe2fa6f48f7b3ccdc327298bbe",
      "assetIds": [
        "55464657044963196816950587289035428064568320970692304673817341489688537481216",
        "55464657044963196816950587289035428064568320970692304673817341489688537481217",
        "55464657044963196816950587289035428064568320970692304673817341489688537481218",
        "55464657044963196816950587289035428064568320970692304673817341489688537481219",
        "55464657044963196816950587289035428064568320970692304673817341489688537481220",
        "55464657044963196816950587289035428064568320970692304673817341489688537481221",
        "55464657044963196816950587289035428064568320970692304673817341489688537481222",
        "55464657044963196816950587289035428064568320970692304673817341489688537481223"
      ]
    },
    {
      "x": 285,
      "y": 193,
      "size": 1,
      "price": "4683000000000000000000",
      "reserved": "",
      "salt": "0x7fb853c98a7381591ed71cec3a8aaa221c0fd9c0bdfbee70d31e8d2e9b1bc5f5",
      "assetIds": [
        "55464657044963196816950587289035428064568320970692304673817341489688537481216",
        "55464657044963196816950587289035428064568320970692304673817341489688537481217",
        "55464657044963196816950587289035428064568320970692304673817341489688537481218",
        "55464657044963196816950587289035428064568320970692304673817341489688537481219",
        "55464657044963196816950587289035428064568320970692304673817341489688537481220",
        "55464657044963196816950587289035428064568320970692304673817341489688537481221",
        "55464657044963196816950587289035428064568320970692304673817341489688537481222",
        "55464657044963196816950587289035428064568320970692304673817341489688537481223"
      ]
    },
    {
      "x": 285,
      "y": 194,
      "size": 1,
      "price": "4683000000000000000000",
      "reserved": "",
      "salt": "0x8c38654eae17e5313a35fc894a01736caae42de79cbaa724590d2ee202db8cec",
      "assetIds": [
        "55464657044963196816950587289035428064568320970692304673817341489688537481216",
        "55464657044963196816950587289035428064568320970692304673817341489688537481217",
        "55464657044963196816950587289035428064568320970692304673817341489688537481218",
        "55464657044963196816950587289035428064568320970692304673817341489688537481219",
        "55464657044963196816950587289035428064568320970692304673817341489688537481220",
        "55464657044963196816950587289035428064568320970692304673817341489688537481221",
        "55464657044963196816950587289035428064568320970692304673817341489688537481222",
        "55464657044963196816950587289035428064568320970692304673817341489688537481223"
      ]
    },
    {
      "x": 285,
      "y": 195,
      "size": 1,
      "price": "4683000000000000000000",
      "reserved": "",
      "salt": "0x71e583595caad27a9483868e49058fc0b1810d5b967edcf3dc377285c091fecc",
      "assetIds": [
        "55464657044963196816950587289035428064568320970692304673817341489688537481216",
        "55464657044963196816950587289035428064568320970692304673817341489688537481217",
        "55464657044963196816950587289035428064568320970692304673817341489688537481218",
        "55464657044963196816950587289035428064568320970692304673817341489688537481219",
        "55464657044963196816950587289035428064568320970692304673817341489688537481220",
        "55464657044963196816950587289035428064568320970692304673817341489688537481221",
        "55464657044963196816950587289035428064568320970692304673817341489688537481222",
        "55464657044963196816950587289035428064568320970692304673817341489688537481223"
      ]
    },
    {
      "x": 285,
      "y": 196,
      "size": 1,
      "price": "4683000000000000000000",
      "reserved": "",
      "salt": "0xf6890362c730141870d7e899848d2351256ae0e0f471c48bc0aa92bf53cc2844",
      "assetIds": [
        "55464657044963196816950587289035428064568320970692304673817341489688537481216",
        "55464657044963196816950587289035428064568320970692304673817341489688537481217",
        "55464657044963196816950587289035428064568320970692304673817341489688537481218",
        "55464657044963196816950587289035428064568320970692304673817341489688537481219",
        "55464657044963196816950587289035428064568320970692304673817341489688537481220",
        "55464657044963196816950587289035428064568320970692304673817341489688537481221",
        "55464657044963196816950587289035428064568320970692304673817341489688537481222",
        "55464657044963196816950587289035428064568320970692304673817341489688537481223"
      ]
    },
    {
      "x": 285,
      "y": 197,
      "size": 1,
      "price": "4683000000000000000000",
      "reserved": "",
      "salt": "0x858360bb7f1d4d3407bcf9abea8f464c9082d8d4890891bbe2af753b3e73e578",
      "assetIds": [
        "55464657044963196816950587289035428064568320970692304673817341489688537481216",
        "55464657044963196816950587289035428064568320970692304673817341489688537481217",
        "55464657044963196816950587289035428064568320970692304673817341489688537481218",
        "55464657044963196816950587289035428064568320970692304673817341489688537481219",
        "55464657044963196816950587289035428064568320970692304673817341489688537481220",
        "55464657044963196816950587289035428064568320970692304673817341489688537481221",
        "55464657044963196816950587289035428064568320970692304673817341489688537481222",
        "55464657044963196816950587289035428064568320970692304673817341489688537481223"
      ]
    },
    {
      "x": 286,
      "y": 186,
      "size": 1,
      "price": "1011000000000000000000",
      "reserved": "",
      "salt": "0x3dc31ae2ca6e107746a85b42967bebc298372f7a7d0dc19c76b71d0eff0f3927",
      "assetIds": []
    },
    {
      "x": 286,
      "y": 187,
      "size": 1,
      "price": "1011000000000000000000",
      "reserved": "",
      "salt": "0x6ed0ca7b2ae7f23cfeea5c37020e14bb5c6767a14215c6f888560320a0911848",
      "assetIds": []
    },
    {
      "x": 286,
      "y": 188,
      "size": 1,
      "price": "1011000000000000000000",
      "reserved": "",
      "salt": "0xc89a941f702fd96136f5c9eae3f19b011e9efcbded278447a3025f9debb6dd65",
      "assetIds": []
    },
    {
      "x": 286,
      "y": 189,
      "size": 1,
      "price": "1011000000000000000000",
      "reserved": "",
      "salt": "0xd7049eb3c9ca50c1fd7e4a635db7f59a1bb1dfcff4bc87119ec6d875e4bc58ef",
      "assetIds": []
    },
    {
      "x": 286,
      "y": 190,
      "size": 1,
      "price": "1011000000000000000000",
      "reserved": "",
      "salt": "0x5c51e77ee4484a69c807be2dbe15122791832054190ae24933fe1990e34847e0",
      "assetIds": []
    },
    {
      "x": 286,
      "y": 191,
      "size": 1,
      "price": "1011000000000000000000",
      "reserved": "",
      "salt": "0x91cfbd67b579ebc8e13e1efecb7e8e200fb83d5b69107d590a21efe40a5fecc0",
      "assetIds": []
    },
    {
      "x": 286,
      "y": 192,
      "size": 1,
      "price": "4683000000000000000000",
      "reserved": "",
      "salt": "0xc7f5bfcaaf826ddf643d09622f3e915859ae132643bc492be22760201c07ca2d",
      "assetIds": [
        "55464657044963196816950587289035428064568320970692304673817341489688537481216",
        "55464657044963196816950587289035428064568320970692304673817341489688537481217",
        "55464657044963196816950587289035428064568320970692304673817341489688537481218",
        "55464657044963196816950587289035428064568320970692304673817341489688537481219",
        "55464657044963196816950587289035428064568320970692304673817341489688537481220",
        "55464657044963196816950587289035428064568320970692304673817341489688537481221",
        "55464657044963196816950587289035428064568320970692304673817341489688537481222",
        "55464657044963196816950587289035428064568320970692304673817341489688537481223"
      ]
    },
    {
      "x": 286,
      "y": 193,
      "size": 1,
      "price": "4683000000000000000000",
      "reserved": "",
      "salt": "0xea4e3a6aed2b19d50b8de36b9852999ec3060d29877552bd1a0778871186e841",
      "assetIds": [
        "55464657044963196816950587289035428064568320970692304673817341489688537481216",
        "55464657044963196816950587289035428064568320970692304673817341489688537481217",
        "55464657044963196816950587289035428064568320970692304673817341489688537481218",
        "55464657044963196816950587289035428064568320970692304673817341489688537481219",
        "55464657044963196816950587289035428064568320970692304673817341489688537481220",
        "55464657044963196816950587289035428064568320970692304673817341489688537481221",
        "55464657044963196816950587289035428064568320970692304673817341489688537481222",
        "55464657044963196816950587289035428064568320970692304673817341489688537481223"
      ]
    },
    {
      "x": 286,
      "y": 194,
      "size": 1,
      "price": "4683000000000000000000",
      "reserved": "",
      "salt": "0xd4f0ec5e0331b0df7ed89c60f3fe982f680723e7a2abd0725dae2e89652e9541",
      "assetIds": [
        "55464657044963196816950587289035428064568320970692304673817341489688537481216",
        "55464657044963196816950587289035428064568320970692304673817341489688537481217",
        "55464657044963196816950587289035428064568320970692304673817341489688537481218",
        "55464657044963196816950587289035428064568320970692304673817341489688537481219",
        "55464657044963196816950587289035428064568320970692304673817341489688537481220",
        "55464657044963196816950587289035428064568320970692304673817341489688537481221",
        "55464657044963196816950587289035428064568320970692304673817341489688537481222",
        "55464657044963196816950587289035428064568320970692304673817341489688537481223"
      ]
    },
    {
      "x": 286,
      "y": 195,
      "size": 1,
      "price": "4683000000000000000000",
      "reserved": "",
      "salt": "0x2d139a7ed9241c5229b7925dbac8e37278793636902a6d39957f29477bc79b4a",
      "assetIds": [
        "55464657044963196816950587289035428064568320970692304673817341489688537481216",
        "55464657044963196816950587289035428064568320970692304673817341489688537481217",
        "55464657044963196816950587289035428064568320970692304673817341489688537481218",
        "55464657044963196816950587289035428064568320970692304673817341489688537481219",
        "55464657044963196816950587289035428064568320970692304673817341489688537481220",
        "55464657044963196816950587289035428064568320970692304673817341489688537481221",
        "55464657044963196816950587289035428064568320970692304673817341489688537481222",
        "55464657044963196816950587289035428064568320970692304673817341489688537481223"
      ]
    },
    {
      "x": 286,
      "y": 196,
      "size": 1,
      "price": "4683000000000000000000",
      "reserved": "",
      "salt": "0x465e516573f8764966fe256d92df61bdf0dcd3220b9aeb929e8b9024256bc703",
      "assetIds": [
        "55464657044963196816950587289035428064568320970692304673817341489688537481216",
        "55464657044963196816950587289035428064568320970692304673817341489688537481217",
        "55464657044963196816950587289035428064568320970692304673817341489688537481218",
        "55464657044963196816950587289035428064568320970692304673817341489688537481219",
        "55464657044963196816950587289035428064568320970692304673817341489688537481220",
        "55464657044963196816950587289035428064568320970692304673817341489688537481221",
        "55464657044963196816950587289035428064568320970692304673817341489688537481222",
        "55464657044963196816950587289035428064568320970692304673817341489688537481223"
      ]
    },
    {
      "x": 286,
      "y": 197,
      "size": 1,
      "price": "4683000000000000000000",
      "reserved": "",
      "salt": "0xa19261eac7e88acc728b550fb0792edc79ad1c754930e0b5d715e0a21cbc7e82",
      "assetIds": [
        "55464657044963196816950587289035428064568320970692304673817341489688537481216",
        "55464657044963196816950587289035428064568320970692304673817341489688537481217",
        "55464657044963196816950587289035428064568320970692304673817341489688537481218",
        "55464657044963196816950587289035428064568320970692304673817341489688537481219",
        "55464657044963196816950587289035428064568320970692304673817341489688537481220",
        "55464657044963196816950587289035428064568320970692304673817341489688537481221",
        "55464657044963196816950587289035428064568320970692304673817341489688537481222",
        "55464657044963196816950587289035428064568320970692304673817341489688537481223"
      ]
    },
    {
      "x": 287,
      "y": 187,
      "size": 1,
      "price": "1011000000000000000000",
      "reserved": "",
      "salt": "0xfcd16b1caedc7714843483dcb3484a9e6a16cb7f42cc49773fa0788b4fee15ad",
      "assetIds": []
    },
    {
      "x": 287,
      "y": 188,
      "size": 1,
      "price": "1011000000000000000000",
      "reserved": "",
      "salt": "0xc681a2bda66e9d2abe7d1c36fa8d999fb3e37a111b77940b3477ac89c5cd6659",
      "assetIds": []
    },
    {
      "x": 287,
      "y": 189,
      "size": 1,
      "price": "1011000000000000000000",
      "reserved": "",
      "salt": "0x842d86e67eec3f604471df576513abb4ba5a021855df842cb969feb324dc91b6",
      "assetIds": []
    },
    {
      "x": 287,
      "y": 190,
      "size": 1,
      "price": "1011000000000000000000",
      "reserved": "",
      "salt": "0xc0733be9065df7d6dd5d0948ceec4e1e3c0c6b034a8ce9f7fb10c72733bd1a6f",
      "assetIds": []
    },
    {
      "x": 287,
      "y": 191,
      "size": 1,
      "price": "1011000000000000000000",
      "reserved": "",
      "salt": "0xa10842564868839ef6ed5c2d2e4fa1763ec242a3f662b1c075687c8c049b7a17",
      "assetIds": []
    },
    {
      "x": 287,
      "y": 192,
      "size": 1,
      "price": "1011000000000000000000",
      "reserved": "",
      "salt": "0x76e9ef548af7dad2821ccb21291f4357fd472b6da06da30fb0f045e35d073b8b",
      "assetIds": []
    },
    {
      "x": 287,
      "y": 193,
      "size": 1,
      "price": "4683000000000000000000",
      "reserved": "",
      "salt": "0x5c2214878333c9cf66c47aada1e6f69d53ecbe0666e6dddc27b99f4aafdf83de",
      "assetIds": [
        "55464657044963196816950587289035428064568320970692304673817341489688537481216",
        "55464657044963196816950587289035428064568320970692304673817341489688537481217",
        "55464657044963196816950587289035428064568320970692304673817341489688537481218",
        "55464657044963196816950587289035428064568320970692304673817341489688537481219",
        "55464657044963196816950587289035428064568320970692304673817341489688537481220",
        "55464657044963196816950587289035428064568320970692304673817341489688537481221",
        "55464657044963196816950587289035428064568320970692304673817341489688537481222",
        "55464657044963196816950587289035428064568320970692304673817341489688537481223"
      ]
    },
    {
      "x": 287,
      "y": 194,
      "size": 1,
      "price": "4683000000000000000000",
      "reserved": "",
      "salt": "0x73a39e80a75ce7f7f6ef59a06410fcd6a7c4e252b76b796d6c19f50c8925e8e9",
      "assetIds": [
        "55464657044963196816950587289035428064568320970692304673817341489688537481216",
        "55464657044963196816950587289035428064568320970692304673817341489688537481217",
        "55464657044963196816950587289035428064568320970692304673817341489688537481218",
        "55464657044963196816950587289035428064568320970692304673817341489688537481219",
        "55464657044963196816950587289035428064568320970692304673817341489688537481220",
        "55464657044963196816950587289035428064568320970692304673817341489688537481221",
        "55464657044963196816950587289035428064568320970692304673817341489688537481222",
        "55464657044963196816950587289035428064568320970692304673817341489688537481223"
      ]
    },
    {
      "x": 287,
      "y": 195,
      "size": 1,
      "price": "4683000000000000000000",
      "reserved": "",
      "salt": "0xfc4e3a4b97107220eaa992e3fb218c48d047196c1dbeba4d70928ec95126f13e",
      "assetIds": [
        "55464657044963196816950587289035428064568320970692304673817341489688537481216",
        "55464657044963196816950587289035428064568320970692304673817341489688537481217",
        "55464657044963196816950587289035428064568320970692304673817341489688537481218",
        "55464657044963196816950587289035428064568320970692304673817341489688537481219",
        "55464657044963196816950587289035428064568320970692304673817341489688537481220",
        "55464657044963196816950587289035428064568320970692304673817341489688537481221",
        "55464657044963196816950587289035428064568320970692304673817341489688537481222",
        "55464657044963196816950587289035428064568320970692304673817341489688537481223"
      ]
    },
    {
      "x": 287,
      "y": 196,
      "size": 1,
      "price": "4683000000000000000000",
      "reserved": "",
      "salt": "0x3fc19fff775f71cc6137f01f4d250a111894f3122755afb2322e78746e8a36ac",
      "assetIds": [
        "55464657044963196816950587289035428064568320970692304673817341489688537481216",
        "55464657044963196816950587289035428064568320970692304673817341489688537481217",
        "55464657044963196816950587289035428064568320970692304673817341489688537481218",
        "55464657044963196816950587289035428064568320970692304673817341489688537481219",
        "55464657044963196816950587289035428064568320970692304673817341489688537481220",
        "55464657044963196816950587289035428064568320970692304673817341489688537481221",
        "55464657044963196816950587289035428064568320970692304673817341489688537481222",
        "55464657044963196816950587289035428064568320970692304673817341489688537481223"
      ]
    },
    {
      "x": 287,
      "y": 197,
      "size": 1,
      "price": "4683000000000000000000",
      "reserved": "",
      "salt": "0xfce863e56559120f821f8e8744735386953c5c7cc441ddb1b6d7b63d21cd95a2",
      "assetIds": [
        "55464657044963196816950587289035428064568320970692304673817341489688537481216",
        "55464657044963196816950587289035428064568320970692304673817341489688537481217",
        "55464657044963196816950587289035428064568320970692304673817341489688537481218",
        "55464657044963196816950587289035428064568320970692304673817341489688537481219",
        "55464657044963196816950587289035428064568320970692304673817341489688537481220",
        "55464657044963196816950587289035428064568320970692304673817341489688537481221",
        "55464657044963196816950587289035428064568320970692304673817341489688537481222",
        "55464657044963196816950587289035428064568320970692304673817341489688537481223"
      ]
    },
    {
      "x": 270,
      "y": 204,
      "size": 3,
      "price": "8648000000000000000000",
      "reserved": "0x7a9fe22691c811ea339d9b73150e6911a5343dca",
      "salt": "0x97c7a0b4ac8f2b98ae4d36c1a65885024285697b712f36576c6a6b25188338d4",
      "assetIds": []
    },
    {
      "x": 276,
      "y": 192,
      "size": 3,
      "price": "8648000000000000000000",
      "reserved": "0x7a9fe22691c811ea339d9b73150e6911a5343dca",
      "salt": "0x9a49bf5065f639639a369220a9eeca28a33482c036cbd35be5127dccdfd1cba1",
      "assetIds": []
    },
    {
      "x": 276,
      "y": 198,
      "size": 3,
      "price": "8648000000000000000000",
      "reserved": "0x7a9fe22691c811ea339d9b73150e6911a5343dca",
      "salt": "0x8aff55e9ee0a3f30f226623fecfebae62328141bf382705f4ae44cae3b17a294",
      "assetIds": []
    },
    {
      "x": 279,
      "y": 201,
      "size": 3,
      "price": "8648000000000000000000",
      "reserved": "0x7a9fe22691c811ea339d9b73150e6911a5343dca",
      "salt": "0x6f6a1c42b8a406028ba20008cf6ddc7a5a76545afbf2970d4d34cf2b0a852fa7",
      "assetIds": []
    },
    {
      "x": 282,
      "y": 195,
      "size": 3,
      "price": "8648000000000000000000",
      "reserved": "0x7a9fe22691c811ea339d9b73150e6911a5343dca",
      "salt": "0x90810cffbe44740d79cf10504760683fe9172d6fb743f491243f8e27e340d371",
      "assetIds": []
    },
    {
      "x": 276,
      "y": 186,
      "size": 6,
      "price": "32772000000000000000000",
      "reserved": "0x7a9fe22691c811ea339d9b73150e6911a5343dca",
      "salt": "0xd5b4dd2275cbcd60ac559f06b687314370c59809c7e860934cabf0bed3aafe2e",
      "assetIds": []
    },
    {
      "x": 282,
      "y": 198,
      "size": 6,
      "price": "32772000000000000000000",
      "reserved": "0x7a9fe22691c811ea339d9b73150e6911a5343dca",
      "salt": "0xb1e66b9351b7c2bcdf16ffb14bd79573671c41c4c3ad7d959fefa292d47c7c35",
      "assetIds": []
    },
    {
      "x": 282,
      "y": 204,
      "size": 6,
      "price": "32772000000000000000000",
      "reserved": "0x7a9fe22691c811ea339d9b73150e6911a5343dca",
      "salt": "0xa6b69d46d8e36d7e12ef41a7c7add996ad32a1028d2492d1c7b5310cbd177586",
      "assetIds": []
    }
  ],
  "solcInputHash": "e17a5bb930c92aaeeb80a52119ce77b7",
  "bytecode": "0x610160604052620d2f0060055534801561001857600080fd5b506040516200284d3803806200284d83398181016040526101a081101561003e57600080fd5b50805160208201516040830151606080850151608086015160a08088015160c0808a015160e08b01516101008c01516101208d01516101408e01516101608f0151610180909f0151600280546001600160a01b0319166001600160a01b03871617905560038490558e8c1b6001600160601b03199081169099529a8d901b9097169094529a9b999a98999698959793969195909490939091906100e28b600161015d565b600680546001600160a01b039a8b166001600160a01b031991821617909155610140989098526101209690965260008054998916998816999099179098556001600160601b0319606092831b811660e05290821b811660805296901b909516610100525060078054919093169116179055506101c192505050565b6001600160a01b038216600081815260016020908152604091829020805460ff191685151590811790915582519384529083015280517fb21eb88b4e33b3f1281830a7178d74d8aa73220416215726b68ae23d539515cb9281900390910190a15050565b60805160601c60a05160601c60c05160601c60e05160601c6101005160601c61012051610140516126066200024760003980610b3d528061206c525080610b1952806112ec5250806120da525080611841528061199e5250806117f75280611b9d528061210e525080611872528061196f525080610eb25280611c8952506126066000f3fe608060405234801561001057600080fd5b506004361061011b5760003560e01c80638f283970116100b2578063c10a420811610081578063dc5074af11610066578063dc5074af1461085f578063e56f8a9e14610885578063f23a6e61146108a25761011b565b8063c10a420814610780578063caed3500146108575761011b565b80638f28397014610500578063984d625214610526578063b522ecff146105f8578063bc197c811461061e5761011b565b806365194ce7116100ee57806365194ce7146103485780636e9960c3146104a657806377f1c3ac146104ca5780638a04af6a146104d25761011b565b80631187fd3c1461012057806325cb5bc014610300578063495906571461031a57806358bc294414610322575b600080fd5b6102fe600480360361012081101561013757600080fd5b6001600160a01b038235811692602081013582169260408201359092169181019060808101606082013564010000000081111561017357600080fd5b82018360208201111561018557600080fd5b803590602001918460208302840111640100000000831117156101a757600080fd5b919390928235926040810190602001356401000000008111156101c957600080fd5b8201836020820111156101db57600080fd5b803590602001918460208302840111640100000000831117156101fd57600080fd5b91939092909160208101903564010000000081111561021b57600080fd5b82018360208201111561022d57600080fd5b8035906020019184602083028401116401000000008311171561024f57600080fd5b91939092909160208101903564010000000081111561026d57600080fd5b82018360208201111561027f57600080fd5b803590602001918460018302840111640100000000831117156102a157600080fd5b9193909290916020810190356401000000008111156102bf57600080fd5b8201836020820111156102d157600080fd5b803590602001918460018302840111640100000000831117156102f357600080fd5b509092509050610937565b005b610308610b17565b60408051918252519081900360200190f35b610308610b3b565b6102fe6004803603602081101561033857600080fd5b50356001600160a01b0316610b5f565b6103ee6004803603602081101561035e57600080fd5b81019060208101813564010000000081111561037957600080fd5b82018360208201111561038b57600080fd5b803590602001918460018302840111640100000000831117156103ad57600080fd5b91908080601f016020809104026020016040519081016040528093929190818152602001838380828437600092019190915250929550610c0a945050505050565b6040518080602001866001600160a01b03166001600160a01b03168152602001856001600160a01b03166001600160a01b03168152602001848152602001838152602001828103825287818151815260200191508051906020019080838360005b8381101561046757818101518382015260200161044f565b50505050905090810190601f1680156104945780820380516001836020036101000a031916815260200191505b50965050505050505060405180910390f35b6104ae610d0f565b604080516001600160a01b039092168252519081900360200190f35b610308610d1e565b6102fe600480360360408110156104e857600080fd5b506001600160a01b0381351690602001351515610d24565b6102fe6004803603602081101561051657600080fd5b50356001600160a01b0316610d7b565b6102fe6004803603606081101561053c57600080fd5b6001600160a01b03823516919081019060408101602082013564010000000081111561056757600080fd5b82018360208201111561057957600080fd5b8035906020019184602083028401116401000000008311171561059b57600080fd5b9193909290916020810190356401000000008111156105b957600080fd5b8201836020820111156105cb57600080fd5b803590602001918460208302840111640100000000831117156105ed57600080fd5b509092509050610e51565b6102fe6004803603602081101561060e57600080fd5b50356001600160a01b0316610fdc565b61074b600480360360a081101561063457600080fd5b6001600160a01b03823581169260208101359091169181019060608101604082013564010000000081111561066857600080fd5b82018360208201111561067a57600080fd5b8035906020019184602083028401116401000000008311171561069c57600080fd5b9193909290916020810190356401000000008111156106ba57600080fd5b8201836020820111156106cc57600080fd5b803590602001918460208302840111640100000000831117156106ee57600080fd5b91939092909160208101903564010000000081111561070c57600080fd5b82018360208201111561071e57600080fd5b8035906020019184600183028401116401000000008311171561074057600080fd5b5090925090506110c5565b604080517fffffffff000000000000000000000000000000000000000000000000000000009092168252519081900360200190f35b610843600480360360a081101561079657600080fd5b8101906020810181356401000000008111156107b157600080fd5b8201836020820111156107c357600080fd5b803590602001918460018302840111640100000000831117156107e557600080fd5b91908080601f016020809104026020016040519081016040528093929190818152602001838380828437600092019190915250929550506001600160a01b0383358116945060208401351692604081013592506060013590506110f2565b604080519115158252519081900360200190f35b6104ae61122e565b6108436004803603602081101561087557600080fd5b50356001600160a01b031661123d565b6102fe6004803603602081101561089b57600080fd5b503561125b565b61074b600480360360a08110156108b857600080fd5b6001600160a01b03823581169260208101359091169160408201359160608101359181019060a0810160808201356401000000008111156108f857600080fd5b82018360208201111561090a57600080fd5b8035906020019184600183028401116401000000008311171561092c57600080fd5b5090925090506112bf565b6109418e8d6112ea565b610a388d8d8d8d80806020026020016040519081016040528093929190818152602001838360200280828437600081840152601f19601f820116905080830192505050505050508c8c8c80806020026020016040519081016040528093929190818152602001838360200280828437600081840152601f19601f820116905080830192505050505050508b8b8080602002602001604051908101604052809392919081815260200183836020028082843760009201919091525050604080516020601f8d018190048102820181019092528b815292508b91508a908190840183828082843760009201919091525061144d92505050565b610a8c8e8c8c6003818110610a4957fe5b9050602002013586868080601f0160208091040260200160405190810160405280939291908181526020018383808284376000920191909152506117d092505050565b610aca8e8e8d8d8080602002602001604051908101604052809392919081815260200183836020028082843760009201919091525061182192505050565b610b078d898980806020026020016040519081016040528093929190818152602001838360200280828437600092019190915250611c1292505050565b5050505050505050505050505050565b7f000000000000000000000000000000000000000000000000000000000000000090565b7f000000000000000000000000000000000000000000000000000000000000000090565b6000546001600160a01b03163314610bbe576040805162461bcd60e51b815260206004820152601060248201527f53656e646572206e6f742061646d696e00000000000000000000000000000000604482015290519081900360640190fd5b600554600280546001600160a01b03908116600090815260046020526040902042909301909255805473ffffffffffffffffffffffffffffffffffffffff191692909116919091179055565b606060008060008060606000806000808a80602001905160a0811015610c2f57600080fd5b8101908080516040519392919084640100000000821115610c4f57600080fd5b908301906020820185811115610c6457600080fd5b8251640100000000811182820188101715610c7e57600080fd5b82525081516020918201929091019080838360005b83811015610cab578181015183820152602001610c93565b50505050905090810190601f168015610cd85780820380516001836020036101000a031916815260200191505b5060409081526020820151908201516060830151608090930151959f50909d509b5099509197505050505050505091939590929450565b6000546001600160a01b031690565b60035490565b6000546001600160a01b03163314610d6d5760405162461bcd60e51b815260040180806020018281038252602e8152602001806125a3602e913960400191505060405180910390fd5b610d778282611dd6565b5050565b6000546001600160a01b03163314610dda576040805162461bcd60e51b815260206004820152601b60248201527f6f6e6c792061646d696e2063616e206368616e67652061646d696e0000000000604482015290519081900360640190fd5b600054604080516001600160a01b039283168152918316602083015280517f7e644d79422f17c01e4894b5f4f588d331ebfa28653d42ae832dc59e38c9798f9281900390910190a16000805473ffffffffffffffffffffffffffffffffffffffff19166001600160a01b0392909216919091179055565b6000546001600160a01b03163314610eb0576040805162461bcd60e51b815260206004820152600e60248201527f4e4f545f415554484f52495a4544000000000000000000000000000000000000604482015290519081900360640190fd5b7f00000000000000000000000000000000000000000000000000000000000000006001600160a01b0316632eb2c2d63087878787876040518763ffffffff1660e01b815260040180876001600160a01b03166001600160a01b03168152602001866001600160a01b03166001600160a01b031681526020018060200180602001806020018481038452888882818152602001925060200280828437600083820152601f01601f19169091018581038452868152602090810191508790870280828437600081840152601f19601f8201169050808301925050508481038252600081526020016020019950505050505050505050600060405180830381600087803b158015610fbd57600080fd5b505af1158015610fd1573d6000803e3d6000fd5b505050505050505050565b6001600160a01b038116611037576040805162461bcd60e51b815260206004820152600c60248201527f5a45524f5f414444524553530000000000000000000000000000000000000000604482015290519081900360640190fd5b6000546001600160a01b03163314611096576040805162461bcd60e51b815260206004820152600e60248201527f4e4f545f415554484f52495a4544000000000000000000000000000000000000604482015290519081900360640190fd5b6006805473ffffffffffffffffffffffffffffffffffffffff19166001600160a01b0392909216919091179055565b7fbc197c810000000000000000000000000000000000000000000000000000000098975050505050505050565b60006003548211806111155750836001600160a01b0316856001600160a01b0316145b8061111f57508242115b1561112c57506000611225565b60408051606087811b7fffffffffffffffffffffffffffffffffffffffff0000000000000000000000009081166020808501919091529188901b166034830152604882018690526068808301869052835180840390910181526088830184528051908201207f19457468657265756d205369676e6564204d6573736167653a0a33320000000060a884015260c48084018290528451808503909101815260e490930190935281519101206000906111e39089611e58565b6001600160a01b038116600090815260046020526040902054909150421161121057600192505050611225565b6002546001600160a01b039081169116149150505b95945050505050565b6002546001600160a01b031690565b6001600160a01b031660009081526001602052604090205460ff1690565b6000546001600160a01b031633146112ba576040805162461bcd60e51b815260206004820152601060248201527f53656e646572206e6f742061646d696e00000000000000000000000000000000604482015290519081900360640190fd5b600355565b7ff23a6e61000000000000000000000000000000000000000000000000000000009695505050505050565b7f0000000000000000000000000000000000000000000000000000000000000000421061135e576040805162461bcd60e51b815260206004820152600c60248201527f53414c455f49535f4f5645520000000000000000000000000000000000000000604482015290519081900360640190fd5b6001600160a01b03821633148061138457503360009081526001602052604090205460ff165b6113d5576040805162461bcd60e51b815260206004820152600e60248201527f4e4f545f415554484f52495a4544000000000000000000000000000000000000604482015290519081900360640190fd5b6001600160a01b03811615806113fc5750816001600160a01b0316816001600160a01b0316145b610d77576040805162461bcd60e51b815260206004820152600d60248201527f52455345525645445f4c414e4400000000000000000000000000000000000000604482015290519081900360640190fd5b600087878760008151811061145e57fe5b60200260200101518860018151811061147357fe5b60200260200101518960028151811061148857fe5b60200260200101518a60038151811061149d57fe5b60200260200101518a8a60405160200180828051906020019060200280838360005b838110156114d75781810151838201526020016114bf565b50505050905001915050604051602081830303815290604052805190602001208a60405160200180828051906020019060200280838360005b83811015611528578181015183820152602001611510565b5050505090500191505060405160208183030381529060405280519060200120604051602001808a6001600160a01b03166001600160a01b031660601b8152601401896001600160a01b03166001600160a01b031660601b81526014018881526020018781526020018681526020018581526020018481526020018381526020018281526020019950505050505050505050604051602081830303815290604052805190602001209050600760009054906101000a90046001600160a01b03166001600160a01b031663012847ed83836040518363ffffffff1660e01b81526004018080602001838152602001828103825284818151815260200191508051906020019080838360005b8381101561164a578181015183820152602001611632565b50505050905090810190601f1680156116775780820380516001836020036101000a031916815260200191505b50935050505060206040518083038186803b15801561169557600080fd5b505afa1580156116a9573d6000803e3d6000fd5b505050506040513d60208110156116bf57600080fd5b5051611712576040805162461bcd60e51b815260206004820152600c60248201527f494e56414c49445f415554480000000000000000000000000000000000000000604482015290519081900360640190fd5b60006117738760008151811061172457fe5b60200260200101518860018151811061173957fe5b60200260200101518960028151811061174e57fe5b60200260200101518a60038151811061176357fe5b60200260200101518c8b8b611f25565b905061177f8482611fca565b610fd1576040805162461bcd60e51b815260206004820152600c60248201527f494e56414c49445f4c414e440000000000000000000000000000000000000000604482015290519081900360640190fd5b60006117dc8484612095565b60065490915061181b908590839085906001600160a01b03167f00000000000000000000000000000000000000000000000000000000000000006121ee565b50505050565b8060028151811061182e57fe5b60200260200101516001148061186b57507f00000000000000000000000000000000000000000000000000000000000000006001600160a01b0316155b1561196d577f00000000000000000000000000000000000000000000000000000000000000006001600160a01b0316636e1e3bbf83836002815181106118ad57fe5b6020026020010151846000815181106118c257fe5b6020026020010151856001815181106118d757fe5b60200260200101516040518563ffffffff1660e01b815260040180856001600160a01b03166001600160a01b031681526020018481526020018381526020018281526020018060200182810382526000815260200160200195505050505050600060405180830381600087803b15801561195057600080fd5b505af1158015611964573d6000803e3d6000fd5b50505050611b0d565b7f00000000000000000000000000000000000000000000000000000000000000006001600160a01b0316636e1e3bbf7f0000000000000000000000000000000000000000000000000000000000000000836002815181106119ca57fe5b6020026020010151846000815181106119df57fe5b6020026020010151856001815181106119f457fe5b60200260200101518760405160200180826001600160a01b03166001600160a01b031681526020019150506040516020818303038152906040526040518663ffffffff1660e01b815260040180866001600160a01b03166001600160a01b0316815260200185815260200184815260200183815260200180602001828103825283818151815260200191508051906020019080838360005b83811015611aa4578181015183820152602001611a8c565b50505050905090810190601f168015611ad15780820380516001836020036101000a031916815260200191505b509650505050505050600060405180830381600087803b158015611af457600080fd5b505af1158015611b08573d6000803e3d6000fd5b505050505b61019881600181518110611b1d57fe5b60200260200101510281600081518110611b3357fe5b602002602001015101826001600160a01b0316846001600160a01b03167fe4dfa6ac11314892f3029b34a25b1a887da3b1cab2bbf8506d87128ba6e3ac0284600281518110611b7e57fe5b602002602001015185600381518110611b9357fe5b60200260200101517f000000000000000000000000000000000000000000000000000000000000000087600381518110611bc957fe5b602002602001015160405180858152602001848152602001836001600160a01b03166001600160a01b0316815260200182815260200194505050505060405180910390a4505050565b6060815167ffffffffffffffff81118015611c2c57600080fd5b50604051908082528060200260200182016040528015611c56578160200160208202803683370190505b50905060005b8251811015611c86576001828281518110611c7357fe5b6020908102919091010152600101611c5c565b507f00000000000000000000000000000000000000000000000000000000000000006001600160a01b0316632eb2c2d6308585856040518563ffffffff1660e01b815260040180856001600160a01b03166001600160a01b03168152602001846001600160a01b03166001600160a01b03168152602001806020018060200180602001848103845286818151815260200191508051906020019060200280838360005b83811015611d41578181015183820152602001611d29565b50505050905001848103835285818151815260200191508051906020019060200280838360005b83811015611d80578181015183820152602001611d68565b50505050905001848103825260008152602001602001975050505050505050600060405180830381600087803b158015611db957600080fd5b505af1158015611dcd573d6000803e3d6000fd5b50505050505050565b6001600160a01b03821660008181526001602090815260409182902080547fffffffffffffffffffffffffffffffffffffffffffffffffffffffffffffff001685151590811790915582519384529083015280517fb21eb88b4e33b3f1281830a7178d74d8aa73220416215726b68ae23d539515cb9281900390910190a15050565b60008151604114611e6857600080fd5b60208201516040830151606084015160001a601b811015611e8757601b015b8060ff16601b1480611e9c57508060ff16601c145b611ea557600080fd5b6040805160008152602080820180845289905260ff8416828401526060820186905260808201859052915160019260a0808401939192601f1981019281900390910190855afa158015611efc573d6000803e3d6000fd5b5050604051601f1901519450506001600160a01b038416611f1c57600080fd5b50505092915050565b60008787878787878760405160200180888152602001878152602001868152602001858152602001846001600160a01b03166001600160a01b031660601b8152601401838152602001828051906020019060200280838360005b83811015611f97578181015183820152602001611f7f565b50505050905001975050505050505050604051602081830303815290604052805190602001209050979650505050505050565b600081815b8451811015612069576000858281518110611fe657fe5b602002602001015190508083101561202e5782816040516020018083815260200182815260200192505050604051602081830303815290604052805190602001209250612060565b808360405160200180838152602001828152602001925050506040516020818303038152906040528051906020012092505b50600101611fcf565b507f00000000000000000000000000000000000000000000000000000000000000001490505b92915050565b6000806120ba60646120ae85600563ffffffff61247016565b9063ffffffff6124e016565b604080516323b872dd60e01b81526001600160a01b0387811660048301527f0000000000000000000000000000000000000000000000000000000000000000811660248301526044820184905291519293507f0000000000000000000000000000000000000000000000000000000000000000909116916323b872dd916064808201926020929091908290030181600087803b15801561215957600080fd5b505af115801561216d573d6000803e3d6000fd5b505050506040513d602081101561218357600080fd5b50516121d6576040805162461bcd60e51b815260206004820152601360248201527f4645455f5452414e534645525f4641494c454400000000000000000000000000604482015290519081900360640190fd5b6121e6838263ffffffff61254516565b949350505050565b8251819085901561239857606060008060008061220a8a610c0a565b939850919650945092509050600061222586868686866110f2565b156122b35761223f6122378d84612470565b6127106124e0565b9050886001600160a01b0316846001600160a01b0316866001600160a01b03167fac7a699eb95c3c6d390ec4626de17ef9a67b35891efdb197beba7c7fdd45fac48f858760405180848152602001838152602001828152602001935050505060405180910390a46122b08782612545565b96505b801561239157604080516323b872dd60e01b81526001600160a01b038f811660048301528781166024830152604482018490529151918a16916323b872dd916064808201926020929091908290030181600087803b15801561231457600080fd5b505af1158015612328573d6000803e3d6000fd5b505050506040513d602081101561233e57600080fd5b5051612391576040805162461bcd60e51b815260206004820152601960248201527f636f6d6d6973696f6e207472616e73666572206661696c656400000000000000604482015290519081900360640190fd5b5050505050505b604080516323b872dd60e01b81526001600160a01b0389811660048301528681166024830152604482018490529151918416916323b872dd916064808201926020929091908290030181600087803b1580156123f357600080fd5b505af1158015612407573d6000803e3d6000fd5b505050506040513d602081101561241d57600080fd5b5051611dcd576040805162461bcd60e51b815260206004820152601760248201527f7061796d656e74207472616e73666572206661696c6564000000000000000000604482015290519081900360640190fd5b60008261247f5750600061208f565b508181028183828161248d57fe5b041461208f576040805162461bcd60e51b815260206004820152600860248201527f6f766572666c6f77000000000000000000000000000000000000000000000000604482015290519081900360640190fd5b600081612534576040805162461bcd60e51b815260206004820152600960248201527f64697662797a65726f0000000000000000000000000000000000000000000000604482015290519081900360640190fd5b81838161253d57fe5b049392505050565b60008282111561259c576040805162461bcd60e51b815260206004820152600860248201527f756e6465666c6f77000000000000000000000000000000000000000000000000604482015290519081900360640190fd5b5090039056fe6f6e6c792061646d696e2063616e207365747570206d6574615472616e73616374696f6e50726f636573736f7273a2646970667358221220fc9205bafc138c1de206481f144dc3e7818922fbe1a20d2a71392e5e2e413c1a64736f6c63430006050033",
  "devdoc": {
    "methods": {
      "buyLandWithSand(address,address,address,uint256[],bytes32,uint256[],bytes32[],bytes,bytes)": {
        "params": {
          "buyer": "address that perform the payment",
          "info": "[X_INDEX=0] x coordinate of the Land [Y_INDEX=1] y coordinate of the Land [SIZE_INDEX=2] size of the pack of Land to purchase [PRICE_INDEX=3] price in SAND to purchase that Land",
          "proof": "merkleProof for that particular Land",
          "reserved": "the reserved address (if any)",
          "to": "address that will own the purchased Land"
        }
      },
      "changeAdmin(address)": {
        "details": "change the administrator to be `newAdmin`.",
        "params": {
          "newAdmin": "address of the new administrator."
        }
      },
      "getAdmin()": {
        "details": "gives the current administrator of this contract.",
        "returns": {
          "_0": "the current administrator of this contract."
        }
      },
      "getSigningWallet()": {
        "details": "signing wallet authorized for referral",
        "returns": {
          "_0": "the address of the signing wallet"
        }
      },
      "isMetaTransactionProcessor(address)": {
        "details": "check whether address `who` is given meta-transaction execution rights.",
        "params": {
          "who": "The address to query."
        },
        "returns": {
          "_0": "whether the address has meta-transaction execution rights."
        }
      },
      "isReferralValid(bytes,address,address,uint256,uint256)": {
        "params": {
          "commissionRate": "The commissionRate of the referral",
          "expiryTime": "The expiry time of the referral",
          "referee": "The address of the referee",
          "referrer": "The address of the referrer",
          "signature": "The signature to check (signed referral)"
        },
        "returns": {
          "_0": "True if the referral is valid"
        }
      },
      "setMetaTransactionProcessor(address,bool)": {
        "details": "Enable or disable the ability of `metaTransactionProcessor` to perform meta-tx (metaTransactionProcessor rights).",
        "params": {
          "enabled": "set whether the metaTransactionProcessor is enabled or disabled.",
          "metaTransactionProcessor": "address that will be given/removed metaTransactionProcessor rights."
        }
      },
      "setReceivingWallet(address)": {
        "params": {
          "newWallet": "address of the new receiving wallet"
        }
      },
      "updateMaxCommissionRate(uint256)": {
        "details": "Update the maximum commission rate",
        "params": {
          "newMaxCommissionRate": "The new maximum commission rate"
        }
      },
      "updateSigningWallet(address)": {
        "details": "Update the signing wallet",
        "params": {
          "newSigningWallet": "The new address of the signing wallet"
        }
      },
      "withdrawAssets(address,uint256[],uint256[])": {
        "params": {
          "assetIds": "the assetIds to be transferred",
          "to": "intended recipient of the asset tokens",
          "values": "the quantities of the assetIds to be transferred"
        }
      }
    },
    "title": "Estate Sale contract with referral"
  },
  "userdoc": {
    "methods": {
      "buyLandWithSand(address,address,address,uint256[],bytes32,uint256[],bytes32[],bytes,bytes)": {
        "notice": "buy Land with SAND using the merkle proof associated with it"
      },
      "getExpiryTime()": {
        "notice": "Gets the expiry time for the current sale"
      },
      "getMaxCommisionRate()": {
        "notice": "the max commision rate"
      },
      "getMerkleRoot()": {
        "notice": "Gets the Merkle root associated with the current sale"
      },
      "isReferralValid(bytes,address,address,uint256,uint256)": {
        "notice": "Check if a referral is valid"
      },
      "setReceivingWallet(address)": {
        "notice": "set the wallet receiving the proceeds"
      },
      "withdrawAssets(address,uint256[],uint256[])": {
        "notice": "enable Admin to withdraw remaining assets from EstateSaleWithFee contract"
      }
    },
    "notice": "This contract manages the sale of our lands as Estates"
  },
  "storageLayout": {
    "storage": [
      {
        "astId": 13650,
        "contract": "src/solc_0.6/EstateSale/EstateSaleWithAuth.sol:EstateSaleWithAuth",
        "label": "_admin",
        "offset": 0,
        "slot": "0",
        "type": "t_address"
      },
      {
        "astId": 13712,
        "contract": "src/solc_0.6/EstateSale/EstateSaleWithAuth.sol:EstateSaleWithAuth",
        "label": "_metaTransactionContracts",
        "offset": 0,
        "slot": "1",
        "type": "t_mapping(t_address,t_bool)"
      },
      {
        "astId": 11828,
        "contract": "src/solc_0.6/EstateSale/EstateSaleWithAuth.sol:EstateSaleWithAuth",
        "label": "_signingWallet",
        "offset": 0,
        "slot": "2",
        "type": "t_address"
      },
      {
        "astId": 11830,
        "contract": "src/solc_0.6/EstateSale/EstateSaleWithAuth.sol:EstateSaleWithAuth",
        "label": "_maxCommissionRate",
        "offset": 0,
        "slot": "3",
        "type": "t_uint256"
      },
      {
        "astId": 11834,
        "contract": "src/solc_0.6/EstateSale/EstateSaleWithAuth.sol:EstateSaleWithAuth",
        "label": "_previousSigningWallets",
        "offset": 0,
        "slot": "4",
        "type": "t_mapping(t_address,t_uint256)"
      },
      {
        "astId": 11843,
        "contract": "src/solc_0.6/EstateSale/EstateSaleWithAuth.sol:EstateSaleWithAuth",
        "label": "_previousSigningDelay",
        "offset": 0,
        "slot": "5",
        "type": "t_uint256"
      },
      {
        "astId": 7453,
        "contract": "src/solc_0.6/EstateSale/EstateSaleWithAuth.sol:EstateSaleWithAuth",
        "label": "_wallet",
        "offset": 0,
        "slot": "6",
        "type": "t_address_payable"
      },
      {
        "astId": 7455,
        "contract": "src/solc_0.6/EstateSale/EstateSaleWithAuth.sol:EstateSaleWithAuth",
        "label": "_authValidator",
        "offset": 0,
        "slot": "7",
        "type": "t_contract(AuthValidator)6784"
      }
    ],
    "types": {
      "t_address": {
        "encoding": "inplace",
        "label": "address",
        "numberOfBytes": "20"
      },
      "t_address_payable": {
        "encoding": "inplace",
        "label": "address payable",
        "numberOfBytes": "20"
      },
      "t_bool": {
        "encoding": "inplace",
        "label": "bool",
        "numberOfBytes": "1"
      },
      "t_contract(AuthValidator)6784": {
        "encoding": "inplace",
        "label": "contract AuthValidator",
        "numberOfBytes": "20"
      },
      "t_mapping(t_address,t_bool)": {
        "encoding": "mapping",
        "key": "t_address",
        "label": "mapping(address => bool)",
        "numberOfBytes": "32",
        "value": "t_bool"
      },
      "t_mapping(t_address,t_uint256)": {
        "encoding": "mapping",
        "key": "t_address",
        "label": "mapping(address => uint256)",
        "numberOfBytes": "32",
        "value": "t_uint256"
      },
      "t_uint256": {
        "encoding": "inplace",
        "label": "uint256",
        "numberOfBytes": "32"
      }
    }
  }
}