{
  "address": "0xE9b6cc2598975B75E869Ca7775B66844311C5DDB",
  "abi": [
    {
      "anonymous": false,
      "inputs": [
        {
          "indexed": true,
          "internalType": "address",
          "name": "user",
          "type": "address"
        },
        {
          "indexed": false,
          "internalType": "uint256",
          "name": "size",
          "type": "uint256"
        },
        {
          "indexed": false,
          "internalType": "uint256",
          "name": "x",
          "type": "uint256"
        },
        {
          "indexed": false,
          "internalType": "uint256",
          "name": "y",
          "type": "uint256"
        },
        {
          "indexed": false,
          "internalType": "bytes",
          "name": "data",
          "type": "bytes"
        }
      ],
      "name": "Deposit",
      "type": "event"
    },
    {
      "anonymous": false,
      "inputs": [
        {
          "indexed": true,
          "internalType": "address",
          "name": "previousOwner",
          "type": "address"
        },
        {
          "indexed": true,
          "internalType": "address",
          "name": "newOwner",
          "type": "address"
        }
      ],
      "name": "OwnershipTransferred",
      "type": "event"
    },
    {
      "anonymous": false,
      "inputs": [
        {
          "indexed": false,
          "internalType": "address",
          "name": "account",
          "type": "address"
        }
      ],
      "name": "Paused",
      "type": "event"
    },
    {
      "anonymous": false,
      "inputs": [
        {
          "indexed": true,
          "internalType": "address",
          "name": "newForwarder",
          "type": "address"
        }
      ],
      "name": "TrustedForwarderSet",
      "type": "event"
    },
    {
      "anonymous": false,
      "inputs": [
        {
          "indexed": false,
          "internalType": "address",
          "name": "account",
          "type": "address"
        }
      ],
      "name": "Unpaused",
      "type": "event"
    },
    {
      "anonymous": false,
      "inputs": [
        {
          "indexed": true,
          "internalType": "address",
          "name": "user",
          "type": "address"
        },
        {
          "indexed": false,
          "internalType": "uint256",
          "name": "size",
          "type": "uint256"
        },
        {
          "indexed": false,
          "internalType": "uint256",
          "name": "x",
          "type": "uint256"
        },
        {
          "indexed": false,
          "internalType": "uint256",
          "name": "y",
          "type": "uint256"
        },
        {
          "indexed": false,
          "internalType": "bytes",
          "name": "data",
          "type": "bytes"
        }
      ],
      "name": "Withdraw",
      "type": "event"
    },
    {
      "inputs": [],
      "name": "SEND_MESSAGE_EVENT_SIG",
      "outputs": [
        {
          "internalType": "bytes32",
          "name": "",
          "type": "bytes32"
        }
      ],
      "stateMutability": "view",
      "type": "function"
    },
    {
      "inputs": [
        {
          "internalType": "address",
          "name": "to",
          "type": "address"
        },
        {
          "internalType": "uint256[]",
          "name": "sizes",
          "type": "uint256[]"
        },
        {
          "internalType": "uint256[]",
          "name": "xs",
          "type": "uint256[]"
        },
        {
          "internalType": "uint256[]",
          "name": "ys",
          "type": "uint256[]"
        },
        {
          "internalType": "bytes",
          "name": "data",
          "type": "bytes"
        }
      ],
      "name": "batchTransferQuadToL2",
      "outputs": [],
      "stateMutability": "nonpayable",
      "type": "function"
    },
    {
      "inputs": [],
      "name": "checkpointManager",
      "outputs": [
        {
          "internalType": "contract ICheckpointManager",
          "name": "",
          "type": "address"
        }
      ],
      "stateMutability": "view",
      "type": "function"
    },
    {
      "inputs": [],
      "name": "fxChildTunnel",
      "outputs": [
        {
          "internalType": "address",
          "name": "",
          "type": "address"
        }
      ],
      "stateMutability": "view",
      "type": "function"
    },
    {
      "inputs": [],
      "name": "fxRoot",
      "outputs": [
        {
          "internalType": "contract IFxStateSender",
          "name": "",
          "type": "address"
        }
      ],
      "stateMutability": "view",
      "type": "function"
    },
    {
      "inputs": [],
      "name": "getTrustedForwarder",
      "outputs": [
        {
          "internalType": "address",
          "name": "",
          "type": "address"
        }
      ],
      "stateMutability": "view",
      "type": "function"
    },
    {
      "inputs": [
        {
          "internalType": "address",
          "name": "_checkpointManager",
          "type": "address"
        },
        {
          "internalType": "address",
          "name": "_fxRoot",
          "type": "address"
        },
        {
          "internalType": "contract ILandTokenV2",
          "name": "_rootToken",
          "type": "address"
        },
        {
          "internalType": "address",
          "name": "_trustedForwarder",
          "type": "address"
        }
      ],
      "name": "initialize",
      "outputs": [],
      "stateMutability": "nonpayable",
      "type": "function"
    },
    {
      "inputs": [
        {
          "internalType": "address",
          "name": "forwarder",
          "type": "address"
        }
      ],
      "name": "isTrustedForwarder",
      "outputs": [
        {
          "internalType": "bool",
          "name": "",
          "type": "bool"
        }
      ],
      "stateMutability": "view",
      "type": "function"
    },
    {
      "inputs": [
        {
          "internalType": "address",
          "name": "operator",
          "type": "address"
        },
        {
          "internalType": "address",
          "name": "",
          "type": "address"
        },
        {
          "internalType": "uint256[]",
          "name": "",
          "type": "uint256[]"
        },
        {
          "internalType": "bytes",
          "name": "",
          "type": "bytes"
        }
      ],
      "name": "onERC721BatchReceived",
      "outputs": [
        {
          "internalType": "bytes4",
          "name": "",
          "type": "bytes4"
        }
      ],
      "stateMutability": "view",
      "type": "function"
    },
    {
      "inputs": [
        {
          "internalType": "address",
          "name": "operator",
          "type": "address"
        },
        {
          "internalType": "address",
          "name": "",
          "type": "address"
        },
        {
          "internalType": "uint256",
          "name": "",
          "type": "uint256"
        },
        {
          "internalType": "bytes",
          "name": "",
          "type": "bytes"
        }
      ],
      "name": "onERC721Received",
      "outputs": [
        {
          "internalType": "bytes4",
          "name": "",
          "type": "bytes4"
        }
      ],
      "stateMutability": "view",
      "type": "function"
    },
    {
      "inputs": [],
      "name": "owner",
      "outputs": [
        {
          "internalType": "address",
          "name": "",
          "type": "address"
        }
      ],
      "stateMutability": "view",
      "type": "function"
    },
    {
      "inputs": [],
      "name": "pause",
      "outputs": [],
      "stateMutability": "nonpayable",
      "type": "function"
    },
    {
      "inputs": [],
      "name": "paused",
      "outputs": [
        {
          "internalType": "bool",
          "name": "",
          "type": "bool"
        }
      ],
      "stateMutability": "view",
      "type": "function"
    },
    {
      "inputs": [
        {
          "internalType": "bytes32",
          "name": "",
          "type": "bytes32"
        }
      ],
      "name": "processedExits",
      "outputs": [
        {
          "internalType": "bool",
          "name": "",
          "type": "bool"
        }
      ],
      "stateMutability": "view",
      "type": "function"
    },
    {
      "inputs": [
        {
          "internalType": "bytes",
          "name": "inputData",
          "type": "bytes"
        }
      ],
      "name": "receiveMessage",
      "outputs": [],
      "stateMutability": "nonpayable",
      "type": "function"
    },
    {
      "inputs": [],
      "name": "renounceOwnership",
      "outputs": [],
      "stateMutability": "nonpayable",
      "type": "function"
    },
    {
      "inputs": [],
      "name": "rootToken",
      "outputs": [
        {
          "internalType": "contract ILandTokenV2",
          "name": "",
          "type": "address"
        }
      ],
      "stateMutability": "view",
      "type": "function"
    },
    {
      "inputs": [
        {
          "internalType": "address",
          "name": "_fxChildTunnel",
          "type": "address"
        }
      ],
      "name": "setFxChildTunnel",
      "outputs": [],
      "stateMutability": "nonpayable",
      "type": "function"
    },
    {
      "inputs": [
        {
          "internalType": "address",
          "name": "trustedForwarder",
          "type": "address"
        }
      ],
      "name": "setTrustedForwarder",
      "outputs": [],
      "stateMutability": "nonpayable",
      "type": "function"
    },
    {
      "inputs": [
        {
          "internalType": "bytes4",
          "name": "interfaceId",
          "type": "bytes4"
        }
      ],
      "name": "supportsInterface",
      "outputs": [
        {
          "internalType": "bool",
          "name": "",
          "type": "bool"
        }
      ],
      "stateMutability": "pure",
      "type": "function"
    },
    {
      "inputs": [
        {
          "internalType": "address",
          "name": "newOwner",
          "type": "address"
        }
      ],
      "name": "transferOwnership",
      "outputs": [],
      "stateMutability": "nonpayable",
      "type": "function"
    },
    {
      "inputs": [],
      "name": "unpause",
      "outputs": [],
      "stateMutability": "nonpayable",
      "type": "function"
    }
  ],
  "transactionHash": "0x95f175d6d4419148ce13b7b9608c3c0abf1a04443cfe047b9a8469d89e038f57",
  "args": [],
  "numDeployments": 1,
  "solcInputHash": "e1aa5651f7645b1641ef34120369a942",
  "bytecode": "0x608060405234801561001057600080fd5b50600180546001600160a01b0319908116909155600080549091169055613ae28061003c6000396000f3fe608060405234801561001057600080fd5b50600436106101825760003560e01c80638da5cb5b116100d8578063ce1b815f1161008c578063f2fde38b11610066578063f2fde38b14610361578063f8c8765e14610374578063f953cec71461038757610182565b8063ce1b815f1461032a578063da7422281461033b578063de9b771f1461034e57610182565b8063aea4e49e116100bd578063aea4e49e146102f1578063c0857ba014610304578063c4d168d61461031757610182565b80638da5cb5b146102cd578063972c4928146102de57610182565b80634b808c461161013a578063607f2d4211610114578063607f2d421461029a578063715018a6146102bd5780638456cb59146102c557610182565b80634b808c461461025d578063572b6c05146102705780635c975abb1461029257610182565b8063150b7a021161016b578063150b7a02146101e45780631f2d0065146102285780633f4ba83a1461025357610182565b806301ffc9a7146101875780630e387de6146101af575b600080fd5b61019a61019536600461356d565b61039a565b60405190151581526020015b60405180910390f35b6101d67f8c5261668696ce22758910d05bab8f186d6eb247ceac2af2e82c7dc17669b03681565b6040519081526020016101a6565b6101f76101f23660046133ca565b610435565b6040517fffffffff0000000000000000000000000000000000000000000000000000000090911681526020016101a6565b60cd5461023b906001600160a01b031681565b6040516001600160a01b0390911681526020016101a6565b61025b61055d565b005b6101f761026b3660046132b0565b6105e0565b61019a61027e3660046131d8565b6036546001600160a01b0390811691161490565b61019a610704565b61019a6102a8366004613509565b60036020526000908152604090205460ff1681565b61025b61070e565b61025b610791565b6069546001600160a01b031661023b565b60025461023b906001600160a01b031681565b61025b6102ff3660046131d8565b610812565b60015461023b906001600160a01b031681565b61025b61032536600461343b565b610897565b6036546001600160a01b031661023b565b61025b6103493660046131d8565b610caa565b60005461023b906001600160a01b031681565b61025b61036f3660046131d8565b610d7a565b61025b61038236600461336f565b610e78565b61025b6103953660046135ad565b611036565b60007f5e8bf644000000000000000000000000000000000000000000000000000000007fffffffff000000000000000000000000000000000000000000000000000000008316148061042d57507f01ffc9a7000000000000000000000000000000000000000000000000000000007fffffffff000000000000000000000000000000000000000000000000000000008316145b90505b919050565b60cd54600090600160a01b900460ff16806104e1575060cd546040517f654b748a0000000000000000000000000000000000000000000000000000000081526001600160a01b0388811660048301529091169063654b748a9060240160206040518083038186803b1580156104a957600080fd5b505afa1580156104bd573d6000803e3d6000fd5b505050506040513d601f19601f820116820180604052508101906104e191906134e9565b6105325760405162461bcd60e51b815260206004820152601760248201527f4c616e6454756e6e656c56323a20214252494447494e4700000000000000000060448201526064015b60405180910390fd5b507f150b7a020000000000000000000000000000000000000000000000000000000095945050505050565b610565611050565b6001600160a01b03166105806069546001600160a01b031690565b6001600160a01b0316146105d65760405162461bcd60e51b815260206004820181905260248201527f4f776e61626c653a2063616c6c6572206973206e6f7420746865206f776e65726044820152606401610529565b6105de61105f565b565b60cd54600090600160a01b900460ff168061068c575060cd546040517f654b748a0000000000000000000000000000000000000000000000000000000081526001600160a01b0389811660048301529091169063654b748a9060240160206040518083038186803b15801561065457600080fd5b505afa158015610668573d6000803e3d6000fd5b505050506040513d601f19601f8201168201806040525081019061068c91906134e9565b6106d85760405162461bcd60e51b815260206004820152601760248201527f4c616e6454756e6e656c56323a20214252494447494e470000000000000000006044820152606401610529565b507f4b808c46000000000000000000000000000000000000000000000000000000009695505050505050565b609b5460ff165b90565b610716611050565b6001600160a01b03166107316069546001600160a01b031690565b6001600160a01b0316146107875760405162461bcd60e51b815260206004820181905260248201527f4f776e61626c653a2063616c6c6572206973206e6f7420746865206f776e65726044820152606401610529565b6105de6000611103565b610799611050565b6001600160a01b03166107b46069546001600160a01b031690565b6001600160a01b03161461080a5760405162461bcd60e51b815260206004820181905260248201527f4f776e61626c653a2063616c6c6572206973206e6f7420746865206f776e65726044820152606401610529565b6105de611162565b61081a611050565b6001600160a01b03166108356069546001600160a01b031690565b6001600160a01b03161461088b5760405162461bcd60e51b815260206004820181905260248201527f4f776e61626c653a2063616c6c6572206973206e6f7420746865206f776e65726044820152606401610529565b610894816111ed565b50565b61089f610704565b156108ec5760405162461bcd60e51b815260206004820152601060248201527f5061757361626c653a20706175736564000000000000000000000000000000006044820152606401610529565b6001600160a01b0385166109685760405162461bcd60e51b815260206004820152602860248201527f4c616e6454756e6e656c56323a2063616e27742073656e6420746f207a65726f60448201527f20616464726573730000000000000000000000000000000000000000000000006064820152608401610529565b82518451146109df5760405162461bcd60e51b815260206004820152603260248201527f4c616e6454756e6e656c56323a2073697a6573277320616e6420782773206c6560448201527f6e6774682061726520646966666572656e7400000000000000000000000000006064820152608401610529565b8151835114610a565760405162461bcd60e51b815260206004820152602e60248201527f4c616e6454756e6e656c56323a2078277320616e6420792773206c656e67746860448201527f2061726520646966666572656e740000000000000000000000000000000000006064820152608401610529565b60cd80547fffffffffffffffffffffff00ffffffffffffffffffffffffffffffffffffffff16600160a01b17908190556001600160a01b031663eaa5e067610a9c611050565b30878787876040518763ffffffff1660e01b8152600401610ac2969594939291906136a6565b600060405180830381600087803b158015610adc57600080fd5b505af1158015610af0573d6000803e3d6000fd5b505060cd80547fffffffffffffffffffffff00ffffffffffffffffffffffffffffffffffffffff16905550600090505b8451811015610ca257600086868381518110610b4c57634e487b7160e01b600052603260045260246000fd5b6020026020010151868481518110610b7457634e487b7160e01b600052603260045260246000fd5b6020026020010151868581518110610b9c57634e487b7160e01b600052603260045260246000fd5b602002602001015186604051602001610bb995949392919061372e565b6040516020818303038152906040529050610bd38161129b565b866001600160a01b03167f86beac9ed9e1aa4efb77b948567a4c352c177bb58b134f4c9d0d92c2c8ffbfb1878481518110610c1e57634e487b7160e01b600052603260045260246000fd5b6020026020010151878581518110610c4657634e487b7160e01b600052603260045260246000fd5b6020026020010151878681518110610c6e57634e487b7160e01b600052603260045260246000fd5b602002602001015187604051610c87949392919061376d565b60405180910390a25080610c9a81613a04565b915050610b20565b505050505050565b610cb2611050565b6001600160a01b0316610ccd6069546001600160a01b031690565b6001600160a01b031614610d235760405162461bcd60e51b815260206004820181905260248201527f4f776e61626c653a2063616c6c6572206973206e6f7420746865206f776e65726044820152606401610529565b6036805473ffffffffffffffffffffffffffffffffffffffff19166001600160a01b0383169081179091556040517fd91237492a9e30cd2faf361fc103998a382ff0ec2b1b07dc1cbebb76ae2f1ea290600090a250565b610d82611050565b6001600160a01b0316610d9d6069546001600160a01b031690565b6001600160a01b031614610df35760405162461bcd60e51b815260206004820181905260248201527f4f776e61626c653a2063616c6c6572206973206e6f7420746865206f776e65726044820152606401610529565b6001600160a01b038116610e6f5760405162461bcd60e51b815260206004820152602660248201527f4f776e61626c653a206e6577206f776e657220697320746865207a65726f206160448201527f64647265737300000000000000000000000000000000000000000000000000006064820152608401610529565b61089481611103565b603654600160a81b900460ff16610e9c57603654600160a01b900460ff1615610ea0565b303b155b610f125760405162461bcd60e51b815260206004820152602e60248201527f496e697469616c697a61626c653a20636f6e747261637420697320616c72656160448201527f647920696e697469616c697a65640000000000000000000000000000000000006064820152608401610529565b603654600160a81b900460ff16158015610f7f57603680547fffffffffffffffffffffff00ffffffffffffffffffffffffffffffffffffffff7fffffffffffffffffffff00ffffffffffffffffffffffffffffffffffffffffff909116600160a81b1716600160a01b1790555b60cd805473ffffffffffffffffffffffffffffffffffffffff19166001600160a01b038516179055610faf611318565b610fb7611395565b610ff78585600180546001600160a01b0393841673ffffffffffffffffffffffffffffffffffffffff199182161790915560008054929093169116179055565b61100082611412565b801561102f57603680547fffffffffffffffffffff00ffffffffffffffffffffffffffffffffffffffffff1690555b5050505050565b60006110418261146f565b905061104c816117a0565b5050565b600061105a61198d565b905090565b611067610704565b6110b35760405162461bcd60e51b815260206004820152601460248201527f5061757361626c653a206e6f74207061757365640000000000000000000000006044820152606401610529565b609b805460ff191690557f5db9ee0a495bf2e6ff9c91a7834c1ba4fdd244a5e8aa4e537bd38aeae4b073aa6110e6611050565b6040516001600160a01b03909116815260200160405180910390a1565b606980546001600160a01b0383811673ffffffffffffffffffffffffffffffffffffffff19831681179093556040519116919082907f8be0079c531659141344cd1fd0a4f28419497f9722a3daafe3b4186f6b6457e090600090a35050565b61116a610704565b156111b75760405162461bcd60e51b815260206004820152601060248201527f5061757361626c653a20706175736564000000000000000000000000000000006044820152606401610529565b609b805460ff191660011790557f62e78cea01bee320cd4e420270b5ea74000d11b0c9f74754ebdbfc544b05a2586110e6611050565b6002546001600160a01b03161561126c5760405162461bcd60e51b815260206004820152602a60248201527f467842617365526f6f7454756e6e656c3a204348494c445f54554e4e454c5f4160448201527f4c52454144595f534554000000000000000000000000000000000000000000006064820152608401610529565b6002805473ffffffffffffffffffffffffffffffffffffffff19166001600160a01b0392909216919091179055565b6000546002546040517fb47204770000000000000000000000000000000000000000000000000000000081526001600160a01b039283169263b4720477926112ea92911690859060040161370c565b600060405180830381600087803b15801561130457600080fd5b505af115801561102f573d6000803e3d6000fd5b603654600160a81b900460ff166113855760405162461bcd60e51b815260206004820152602b60248201527f496e697469616c697a61626c653a20636f6e7472616374206973206e6f74206960448201526a6e697469616c697a696e6760a81b6064820152608401610529565b61138d6119d7565b6105de611a44565b603654600160a81b900460ff166114025760405162461bcd60e51b815260206004820152602b60248201527f496e697469616c697a61626c653a20636f6e7472616374206973206e6f74206960448201526a6e697469616c697a696e6760a81b6064820152608401610529565b61140a6119d7565b6105de611ac1565b6036805473ffffffffffffffffffffffffffffffffffffffff19166001600160a01b0383811691909117918290556040519116907fd91237492a9e30cd2faf361fc103998a382ff0ec2b1b07dc1cbebb76ae2f1ea290600090a250565b6060600061147c83611b3a565b9050600061148982611b99565b9050600061149683611bd0565b90506000816114a484611c07565b6114ad86611e2d565b6040516020016114bf93929190613679565b60408051601f1981840301815291815281516020928301206000818152600390935291205490915060ff161561155c5760405162461bcd60e51b8152602060048201526024808201527f4678526f6f7454756e6e656c3a20455849545f414c52454144595f50524f434560448201527f53534544000000000000000000000000000000000000000000000000000000006064820152608401610529565b6000818152600360205260408120805460ff1916600117905561157e85611e57565b9050600061158b82611fbd565b905061159681612069565b6002546001600160a01b039081169116146116195760405162461bcd60e51b815260206004820152602560248201527f4678526f6f7454756e6e656c3a20494e56414c49445f46585f4348494c445f5460448201527f554e4e454c0000000000000000000000000000000000000000000000000000006064820152608401610529565b6000611624876120a0565b9050611644611634846020015190565b8761163e8a6120ca565b846120f4565b6116b65760405162461bcd60e51b815260206004820152602360248201527f4678526f6f7454756e6e656c3a20494e56414c49445f524543454950545f505260448201527f4f4f4600000000000000000000000000000000000000000000000000000000006064820152608401610529565b6116e4856116c38961241b565b6116cc8a612445565b846116d68c61246f565b6116df8d612499565b6124c3565b5060006116f083612611565b90507f8c5261668696ce22758910d05bab8f186d6eb247ceac2af2e82c7dc17669b03661172661172183600061265b565b6126a1565b146117735760405162461bcd60e51b815260206004820152601f60248201527f4678526f6f7454756e6e656c3a20494e56414c49445f5349474e4154555245006044820152606401610529565b600061177e8461271c565b80602001905181019061179191906135e0565b9b9a5050505050505050505050565b6000806000806000858060200190518101906117bc91906131f4565b9450945094509450945060005b83518110156119845760cd5485516001600160a01b0390911690634e6a0f4490889088908590811061180b57634e487b7160e01b600052603260045260246000fd5b602002602001015187858151811061183357634e487b7160e01b600052603260045260246000fd5b602002602001015187868151811061185b57634e487b7160e01b600052603260045260246000fd5b6020026020010151876040518663ffffffff1660e01b815260040161188495949392919061372e565b600060405180830381600087803b15801561189e57600080fd5b505af11580156118b2573d6000803e3d6000fd5b50505050856001600160a01b03167f91ee42a3ae048785d7370790775b6bf02c58c5d7bfb5de80f6d7cb27e46a207e86838151811061190157634e487b7160e01b600052603260045260246000fd5b602002602001015186848151811061192957634e487b7160e01b600052603260045260246000fd5b602002602001015186858151811061195157634e487b7160e01b600052603260045260246000fd5b60200260200101518660405161196a949392919061376d565b60405180910390a28061197c81613a04565b9150506117c9565b50505050505050565b6036546000906001600160a01b03163314156119d057507fffffffffffffffffffffffffffffffffffffffffffffffffffffffffffffffec36013560601c61070b565b503361070b565b603654600160a81b900460ff166105de5760405162461bcd60e51b815260206004820152602b60248201527f496e697469616c697a61626c653a20636f6e7472616374206973206e6f74206960448201526a6e697469616c697a696e6760a81b6064820152608401610529565b603654600160a81b900460ff16611ab15760405162461bcd60e51b815260206004820152602b60248201527f496e697469616c697a61626c653a20636f6e7472616374206973206e6f74206960448201526a6e697469616c697a696e6760a81b6064820152608401610529565b6105de611abc611050565b611103565b603654600160a81b900460ff16611b2e5760405162461bcd60e51b815260206004820152602b60248201527f496e697469616c697a61626c653a20636f6e7472616374206973206e6f74206960448201526a6e697469616c697a696e6760a81b6064820152608401610529565b609b805460ff19169055565b6040805160208101909152606081526000611b84611b7f8460408051808201825260008082526020918201528151808301909252825182529182019181019190915290565b612746565b60408051602081019091529081529392505050565b606061042d8260000151600881518110611bc357634e487b7160e01b600052603260045260246000fd5b6020026020010151612878565b600061042d8260000151600281518110611bfa57634e487b7160e01b600052603260045260246000fd5b60200260200101516126a1565b6040805160208101909152600081528151606091901561042d57600080611c2f600086612923565b60f81c90506001811480611c4657508060ff166003145b15611d2257600185516002611c5b919061397b565b611c65919061399a565b67ffffffffffffffff811115611c8b57634e487b7160e01b600052604160045260246000fd5b6040519080825280601f01601f191660200182016040528015611cb5576020820181803683370190505b5092506000611cc5600187612923565b90508084600081518110611ce957634e487b7160e01b600052603260045260246000fd5b60200101907effffffffffffffffffffffffffffffffffffffffffffffffffffffffffffff1916908160001a9053506001925050611d94565b600285516002611d32919061397b565b611d3c919061399a565b67ffffffffffffffff811115611d6257634e487b7160e01b600052604160045260246000fd5b6040519080825280601f01601f191660200182016040528015611d8c576020820181803683370190505b509250600091505b60ff82165b8351811015611e2457611dc3611db260ff85168361399a565b611dbd906002613819565b87612923565b848281518110611de357634e487b7160e01b600052603260045260246000fd5b60200101907effffffffffffffffffffffffffffffffffffffffffffffffffffffffffffff1916908160001a90535080611e1c81613a04565b915050611d99565b50505092915050565b600061042d8260000151600981518110611bfa57634e487b7160e01b600052603260045260246000fd5b611e7b60405180606001604052806060815260200160608152602001600081525090565b611ea38260000151600681518110611bc357634e487b7160e01b600052603260045260246000fd5b602082810182905260408051808201825260008082529083015280518082019091528251815291810190820152611ed9816129c0565b15611eee57611ee781612746565b8252611fa9565b60208201518051600090611f049060019061399a565b67ffffffffffffffff811115611f2a57634e487b7160e01b600052604160045260246000fd5b6040519080825280601f01601f191660200182016040528015611f54576020820181803683370190505b509050600080836021019150826020019050611f72828285516129fa565b604080518082018252600080825260209182015281518083019092528451825280850190820152611fa290611b7f565b8652505050505b611fb283611e2d565b604083015250919050565b604080516080810182526000918101828152606080830193909352815260208101919091526000612019836000015160038151811061200c57634e487b7160e01b600052603260045260246000fd5b6020026020010151612746565b83604001518151811061203c57634e487b7160e01b600052603260045260246000fd5b60200260200101519050604051806040016040528082815260200161206083612746565b90529392505050565b600061042d826020015160008151811061209357634e487b7160e01b600052603260045260246000fd5b6020026020010151612a7e565b600061042d8260000151600581518110611bfa57634e487b7160e01b600052603260045260246000fd5b606061042d8260000151600781518110611bc357634e487b7160e01b600052603260045260246000fd5b6000806121288460408051808201825260008082526020918201528151808301909252825182529182019181019190915290565b9050600061213582612746565b9050606080856000806121478b611c07565b9050805160001415612163576000975050505050505050612413565b60005b865181101561240a57815183111561218957600098505050505050505050612413565b6121b98782815181106121ac57634e487b7160e01b600052603260045260246000fd5b6020026020010151612a98565b9550858051906020012084146121da57600098505050505050505050612413565b6121fd87828151811061200c57634e487b7160e01b600052603260045260246000fd5b94508451601114156122fc57815183141561226d578c8051906020012061223e86601081518110611bc357634e487b7160e01b600052603260045260246000fd5b80519060200120141561225c57600198505050505050505050612413565b600098505050505050505050612413565b600082848151811061228f57634e487b7160e01b600052603260045260246000fd5b016020015160f81c905060108111156122b45760009950505050505050505050612413565b6122e7868260ff16815181106122da57634e487b7160e01b600052603260045260246000fd5b6020026020010151612b27565b94506122f4600185613819565b9350506123f8565b84516002141561225c57600061233661232f87600081518110611bc357634e487b7160e01b600052603260045260246000fd5b8486612b55565b83519091506123458286613819565b14156123a8578d8051906020012061237787600181518110611bc357634e487b7160e01b600052603260045260246000fd5b8051906020012014156123965760019950505050505050505050612413565b60009950505050505050505050612413565b806123bf5760009950505050505050505050612413565b6123c98185613819565b93506123ef866001815181106122da57634e487b7160e01b600052603260045260246000fd5b94506123f89050565b8061240281613a04565b915050612166565b50505050505050505b949350505050565b600061042d8260000151600381518110611bfa57634e487b7160e01b600052603260045260246000fd5b600061042d8260000151600481518110611bfa57634e487b7160e01b600052603260045260246000fd5b600061042d8260000151600081518110611bfa57634e487b7160e01b600052603260045260246000fd5b606061042d8260000151600181518110611bc357634e487b7160e01b600052603260045260246000fd5b6001546040517f41539d4a000000000000000000000000000000000000000000000000000000008152600481018490526000918291829182916001600160a01b03909116906341539d4a9060240160a06040518083038186803b15801561252957600080fd5b505afa15801561253d573d6000803e3d6000fd5b505050506040513d601f19601f820116820180604052508101906125619190613521565b50935050925092506125b8828b612578919061399a565b6040805160208082018f90528183018e9052606082018d905260808083018d90528351808403909101815260a09092019092528051910120908588612cba565b6126045760405162461bcd60e51b815260206004820152601c60248201527f4678526f6f7454756e6e656c3a20494e56414c49445f484541444552000000006044820152606401610529565b9998505050505050505050565b6040805160208101909152606081526040518060200160405280612653846020015160018151811061200c57634e487b7160e01b600052603260045260246000fd5b905292915050565b6040805180820190915260008082526020820152825180518390811061269157634e487b7160e01b600052603260045260246000fd5b6020026020010151905092915050565b8051600090158015906126b657508151602110155b6126bf57600080fd5b60006126ce8360200151612e30565b905060008184600001516126e2919061399a565b90506000808386602001516126f79190613819565b905080519150602083101561271357826020036101000a820491505b50949350505050565b606061042d8260200151600281518110611bc357634e487b7160e01b600052603260045260246000fd5b6060612751826129c0565b61275a57600080fd5b600061276583612eb5565b905060008167ffffffffffffffff81111561279057634e487b7160e01b600052604160045260246000fd5b6040519080825280602002602001820160405280156127d557816020015b60408051808201909152600080825260208201528152602001906001900390816127ae5790505b50905060006127e78560200151612e30565b85602001516127f69190613819565b90506000805b8481101561286d5761280d83612f38565b915060405180604001604052808381526020018481525084828151811061284457634e487b7160e01b600052603260045260246000fd5b60209081029190910101526128598284613819565b92508061286581613a04565b9150506127fc565b509195945050505050565b805160609061288657600080fd5b60006128958360200151612e30565b905060008184600001516128a9919061399a565b905060008167ffffffffffffffff8111156128d457634e487b7160e01b600052604160045260246000fd5b6040519080825280601f01601f1916602001820160405280156128fe576020820181803683370190505b509050600081602001905061271384876020015161291c9190613819565b8285612ffa565b6000612930600284613a1f565b1561297857601082612943600286613831565b8151811061296157634e487b7160e01b600052603260045260246000fd5b0160200151612973919060f81c613a33565b6129b6565b601082612986600286613831565b815181106129a457634e487b7160e01b600052603260045260246000fd5b01602001516129b6919060f81c613845565b60f81b9392505050565b80516000906129d157506000610430565b6020820151805160001a9060c08210156129f057600092505050610430565b5060019392505050565b80612a0457612a79565b60208110612a3c5782518252612a1b602084613819565b9250612a28602083613819565b9150612a3560208261399a565b9050612a04565b80612a4657612a79565b60006001612a5583602061399a565b612a61906101006138ad565b612a6b919061399a565b845184518216911916178352505b505050565b8051600090601514612a8f57600080fd5b61042d826126a1565b60606000826000015167ffffffffffffffff811115612ac757634e487b7160e01b600052604160045260246000fd5b6040519080825280601f01601f191660200182016040528015612af1576020820181803683370190505b509050805160001415612b05579050610430565b6000816020019050612b208460200151828660000151612ffa565b5092915050565b8051600090602114612b3857600080fd5b60008083602001516001612b4c9190613819565b51949350505050565b60008080612b6286611c07565b90506000815167ffffffffffffffff811115612b8e57634e487b7160e01b600052604160045260246000fd5b6040519080825280601f01601f191660200182016040528015612bb8576020820181803683370190505b509050845b8251612bc99087613819565b811015612c88576000878281518110612bf257634e487b7160e01b600052603260045260246000fd5b01602001517fff000000000000000000000000000000000000000000000000000000000000001690508083612c27898561399a565b81518110612c4557634e487b7160e01b600052603260045260246000fd5b60200101907effffffffffffffffffffffffffffffffffffffffffffffffffffffffffffff1916908160001a905350508080612c8090613a04565b915050612bbd565b50808051906020012082805190602001201415612ca85781519250612cad565b600092505b50909150505b9392505050565b600060208251612cca9190613a1f565b15612d175760405162461bcd60e51b815260206004820152601460248201527f496e76616c69642070726f6f66206c656e6774680000000000000000000000006044820152606401610529565b600060208351612d279190613831565b9050612d348160026138ad565b8510612d825760405162461bcd60e51b815260206004820152601560248201527f4c65616620696e64657820697320746f6f2062696700000000000000000000006044820152606401610529565b60008660205b85518111612e2257858101519250612da1600289613a1f565b612dd6576040805160208101849052908101849052606001604051602081830303815290604052805190602001209150612e03565b60408051602081018590529081018390526060016040516020818303038152906040528051906020012091505b612e0e600289613831565b9750612e1b602082613819565b9050612d88565b509094149695505050505050565b8051600090811a6080811015612e4a576000915050610430565b60b8811080612e65575060c08110801590612e65575060f881105b15612e74576001915050610430565b60c0811015612ea957612e89600160b86139b1565b612e969060ff168261399a565b612ea1906001613819565b915050610430565b612e89600160f86139b1565b8051600090612ec657506000610430565b600080612ed68460200151612e30565b8460200151612ee59190613819565b9050600084600001518560200151612efd9190613819565b90505b80821015612f2f57612f1182612f38565b612f1b9083613819565b915082612f2781613a04565b935050612f00565b50909392505050565b80516000908190811a6080811015612f535760019150612b20565b60b8811015612f7957612f6760808261399a565b612f72906001613819565b9150612b20565b60c0811015612fa65760b78103600185019450806020036101000a85510460018201810193505050612b20565b60f8811015612fba57612f6760c08261399a565b60019390930151602084900360f7016101000a90049092017fffffffffffffffffffffffffffffffffffffffffffffffffffffffffffffff0a0192915050565b8061300457612a79565b60208110612a3c578251825261301b602084613819565b9250613028602083613819565b915061303560208261399a565b9050613004565b600082601f83011261304c578081fd5b8135602061306161305c836137cd565b61379c565b828152818101908583018385028701840188101561307d578586fd5b855b8581101561309b5781358452928401929084019060010161307f565b5090979650505050505050565b600082601f8301126130b8578081fd5b815160206130c861305c836137cd565b82815281810190858301838502870184018810156130e4578586fd5b855b8581101561309b578151845292840192908401906001016130e6565b60008083601f840112613113578182fd5b50813567ffffffffffffffff81111561312a578182fd5b60208301915083602082850101111561314257600080fd5b9250929050565b600082601f830112613159578081fd5b813561316761305c826137f1565b81815284602083860101111561317b578283fd5b816020850160208301379081016020019190915292915050565b600082601f8301126131a5578081fd5b81516131b361305c826137f1565b8181528460208386010111156131c7578283fd5b6124138260208301602087016139d4565b6000602082840312156131e9578081fd5b8135612cb381613a97565b600080600080600060a0868803121561320b578081fd5b855161321681613a97565b602087015190955067ffffffffffffffff80821115613233578283fd5b61323f89838a016130a8565b95506040880151915080821115613254578283fd5b61326089838a016130a8565b94506060880151915080821115613275578283fd5b61328189838a016130a8565b93506080880151915080821115613296578283fd5b506132a388828901613195565b9150509295509295909350565b600080600080600080608087890312156132c8578081fd5b86356132d381613a97565b955060208701356132e381613a97565b9450604087013567ffffffffffffffff808211156132ff578283fd5b818901915089601f830112613312578283fd5b813581811115613320578384fd5b8a60208083028501011115613333578384fd5b602083019650809550506060890135915080821115613350578283fd5b5061335d89828a01613102565b979a9699509497509295939492505050565b60008060008060808587031215613384578384fd5b843561338f81613a97565b9350602085013561339f81613a97565b925060408501356133af81613a97565b915060608501356133bf81613a97565b939692955090935050565b6000806000806000608086880312156133e1578283fd5b85356133ec81613a97565b945060208601356133fc81613a97565b935060408601359250606086013567ffffffffffffffff81111561341e578182fd5b61342a88828901613102565b969995985093965092949392505050565b600080600080600060a08688031215613452578283fd5b853561345d81613a97565b9450602086013567ffffffffffffffff80821115613479578485fd5b61348589838a0161303c565b9550604088013591508082111561349a578485fd5b6134a689838a0161303c565b945060608801359150808211156134bb578283fd5b6134c789838a0161303c565b935060808801359150808211156134dc578283fd5b506132a388828901613149565b6000602082840312156134fa578081fd5b81518015158114612cb3578182fd5b60006020828403121561351a578081fd5b5035919050565b600080600080600060a08688031215613538578283fd5b85519450602086015193506040860151925060608601519150608086015161355f81613a97565b809150509295509295909350565b60006020828403121561357e578081fd5b81357fffffffff0000000000000000000000000000000000000000000000000000000081168114612cb3578182fd5b6000602082840312156135be578081fd5b813567ffffffffffffffff8111156135d4578182fd5b61241384828501613149565b6000602082840312156135f1578081fd5b815167ffffffffffffffff811115613607578182fd5b61241384828501613195565b6000815180845260208085019450808401835b8381101561364257815187529582019590820190600101613626565b509495945050505050565b600081518084526136658160208601602086016139d4565b601f01601f19169290920160200192915050565b600084825283516136918160208501602088016139d4565b60209201918201929092526040019392505050565b60006001600160a01b03808916835280881660208401525060c060408301526136d260c0830187613613565b82810360608401526136e48187613613565b905082810360808401526136f88186613613565b905082810360a0840152612604818561364d565b60006001600160a01b038416825260406020830152612413604083018461364d565b60006001600160a01b038716825285602083015284604083015283606083015260a0608083015261376260a083018461364d565b979650505050505050565b600085825284602083015283604083015260806060830152613792608083018461364d565b9695505050505050565b604051601f8201601f1916810167ffffffffffffffff811182821017156137c5576137c5613a81565b604052919050565b600067ffffffffffffffff8211156137e7576137e7613a81565b5060209081020190565b600067ffffffffffffffff82111561380b5761380b613a81565b50601f01601f191660200190565b6000821982111561382c5761382c613a55565b500190565b60008261384057613840613a6b565b500490565b600060ff83168061385857613858613a6b565b8060ff84160491505092915050565b80825b600180861161387957506138a4565b81870482111561388b5761388b613a55565b8086161561389857918102915b9490941c93800261386a565b94509492505050565b6000612cb360001984846000826138c657506001612cb3565b816138d357506000612cb3565b81600181146138e957600281146138f357613920565b6001915050612cb3565b60ff84111561390457613904613a55565b6001841b91508482111561391a5761391a613a55565b50612cb3565b5060208310610133831016604e8410600b8410161715613953575081810a8381111561394e5761394e613a55565b612cb3565b6139608484846001613867565b80860482111561397257613972613a55565b02949350505050565b600081600019048311821515161561399557613995613a55565b500290565b6000828210156139ac576139ac613a55565b500390565b600060ff821660ff8416808210156139cb576139cb613a55565b90039392505050565b60005b838110156139ef5781810151838201526020016139d7565b838111156139fe576000848401525b50505050565b6000600019821415613a1857613a18613a55565b5060010190565b600082613a2e57613a2e613a6b565b500690565b600060ff831680613a4657613a46613a6b565b8060ff84160691505092915050565b634e487b7160e01b600052601160045260246000fd5b634e487b7160e01b600052601260045260246000fd5b634e487b7160e01b600052604160045260246000fd5b6001600160a01b038116811461089457600080fdfea26469706673582212201a50b3ec82ad745a26b9fa6be3510b7eab219b8084fa8bea1bf869dc8a01ec0164736f6c63430008020033",
  "devdoc": {
    "author": "The Sandbox",
    "kind": "dev",
    "methods": {
      "batchTransferQuadToL2(address,uint256[],uint256[],uint256[],bytes)": {
        "params": {
          "data": "data send to the receiver onERC721BatchReceived on L1",
          "sizes": "sizes of quad",
          "to": "address of the receiver on L2",
          "xs": "x coordinates of quads",
          "ys": "y coordinates of quads"
        }
      },
      "getTrustedForwarder()": {
        "returns": {
          "_0": "trustedForwarder address of the trusted forwarder"
        }
      },
      "initialize(address,address,address,address)": {
        "params": {
          "_checkpointManager": "checkpoint manager address",
          "_fxRoot": "state sender contract",
          "_rootToken": "LAND token on the root chain",
          "_trustedForwarder": "trusted forwarder for meta-tx"
        }
      },
      "isTrustedForwarder(address)": {
        "params": {
          "forwarder": "address to check"
        },
        "returns": {
          "_0": "is trusted"
        }
      },
      "onERC721BatchReceived(address,address,uint256[],bytes)": {
        "details": "called on ERC721 batch transfer to this contract",
        "params": {
          "operator": "address of the one sending the ERC721 Token"
        },
        "returns": {
          "_0": "onERC721BatchReceived function selector"
        }
      },
      "onERC721Received(address,address,uint256,bytes)": {
        "details": "called on ERC721 transfer to this contract",
        "params": {
          "operator": "address of the one sending the ERC721 Token"
        },
        "returns": {
          "_0": "onERC721Received function selector"
        }
      },
      "owner()": {
        "details": "Returns the address of the current owner."
      },
      "pause()": {
        "details": "Pauses all token transfers across bridge"
      },
      "paused()": {
        "details": "Returns true if the contract is paused, and false otherwise."
      },
      "receiveMessage(bytes)": {
        "details": "This function verifies if the transaction actually happened on child chain",
        "params": {
          "inputData": "RLP encoded data of the reference tx containing following list of fields  0 - headerNumber - Checkpoint header block number containing the reference tx  1 - blockProof - Proof that the block header (in the child chain) is a leaf in the submitted merkle root  2 - blockNumber - Block number containing the reference tx on child chain  3 - blockTime - Reference tx block time  4 - txRoot - Transactions root of block  5 - receiptRoot - Receipts root of block  6 - receipt - Receipt of the reference transaction  7 - receiptProof - Merkle proof of the reference receipt  8 - branchMask - 32 bits denoting the path of receipt in merkle tree  9 - receiptLogIndex - Log Index to read from the receipt"
        }
      },
      "renounceOwnership()": {
        "details": "Leaves the contract without owner. It will not be possible to call `onlyOwner` functions anymore. Can only be called by the current owner. NOTE: Renouncing ownership will leave the contract without an owner, thereby removing any functionality that is only available to the owner."
      },
      "setFxChildTunnel(address)": {
        "details": "only owner can call this funtion",
        "params": {
          "_fxChildTunnel": "address of the fx-child tunnel"
        }
      },
      "setTrustedForwarder(address)": {
        "details": "Change the address of the trusted forwarder for meta-TX",
        "params": {
          "trustedForwarder": "The new trustedForwarder"
        }
      },
      "supportsInterface(bytes4)": {
        "details": "to be called by external contact to check if this contract supports ERC721 token and batch token receive",
        "params": {
          "interfaceId": "the interface to be checked if supported by the contract"
        },
        "returns": {
          "_0": "0x5e8bf644 is the interface of IERC721MandatoryTokenReceiver and 0x01ffc9a7 for the Eip 165 supports interface's interface id"
        }
      },
      "transferOwnership(address)": {
        "details": "Transfers ownership of the contract to a new account (`newOwner`). Can only be called by the current owner."
      },
      "unpause()": {
        "details": "Unpauses all token transfers across bridge"
      }
    },
    "title": "LandTunnelV2",
    "version": 1
  },
  "userdoc": {
    "kind": "user",
    "methods": {
      "batchTransferQuadToL2(address,uint256[],uint256[],uint256[],bytes)": {
        "notice": "Send a batch of quads to L2"
      },
      "getTrustedForwarder()": {
        "notice": "Get the current trusted forwarder"
      },
      "initialize(address,address,address,address)": {
        "notice": "Initializes the contract"
      },
      "isTrustedForwarder(address)": {
        "notice": "Checks if an address is a trusted forwarder"
      },
      "receiveMessage(bytes)": {
        "notice": "receive message from  L2 to L1, validated by proof"
      },
      "setFxChildTunnel(address)": {
        "notice": "sets the fx-child tunnel"
      }
    },
    "notice": "LAND tunnel on the root chain",
    "version": 1
  },
  "storageLayout": {
    "storage": [
      {
        "astId": 2092,
        "contract": "src/solc_0.8/polygon/root/land/LandTunnelV2.sol:LandTunnelV2",
        "label": "fxRoot",
        "offset": 0,
        "slot": "0",
        "type": "t_contract(IFxStateSender)2042"
      },
      {
        "astId": 2095,
        "contract": "src/solc_0.8/polygon/root/land/LandTunnelV2.sol:LandTunnelV2",
        "label": "checkpointManager",
        "offset": 0,
        "slot": "1",
        "type": "t_contract(ICheckpointManager)2060"
      },
      {
        "astId": 2097,
        "contract": "src/solc_0.8/polygon/root/land/LandTunnelV2.sol:LandTunnelV2",
        "label": "fxChildTunnel",
        "offset": 0,
        "slot": "2",
        "type": "t_address"
      },
      {
        "astId": 2101,
        "contract": "src/solc_0.8/polygon/root/land/LandTunnelV2.sol:LandTunnelV2",
        "label": "processedExits",
        "offset": 0,
        "slot": "3",
        "type": "t_mapping(t_bytes32,t_bool)"
      },
      {
        "astId": 40372,
        "contract": "src/solc_0.8/polygon/root/land/LandTunnelV2.sol:LandTunnelV2",
        "label": "__gap",
        "offset": 0,
        "slot": "4",
        "type": "t_array(t_uint256)50_storage"
      },
      {
        "astId": 35420,
        "contract": "src/solc_0.8/polygon/root/land/LandTunnelV2.sol:LandTunnelV2",
        "label": "_trustedForwarder",
        "offset": 0,
        "slot": "54",
        "type": "t_address"
      },
      {
        "astId": 10217,
        "contract": "src/solc_0.8/polygon/root/land/LandTunnelV2.sol:LandTunnelV2",
        "label": "_initialized",
        "offset": 20,
        "slot": "54",
        "type": "t_bool"
      },
      {
        "astId": 10220,
        "contract": "src/solc_0.8/polygon/root/land/LandTunnelV2.sol:LandTunnelV2",
        "label": "_initializing",
        "offset": 21,
        "slot": "54",
        "type": "t_bool"
      },
      {
        "astId": 12276,
        "contract": "src/solc_0.8/polygon/root/land/LandTunnelV2.sol:LandTunnelV2",
        "label": "__gap",
        "offset": 0,
        "slot": "55",
        "type": "t_array(t_uint256)50_storage"
      },
      {
        "astId": 9994,
        "contract": "src/solc_0.8/polygon/root/land/LandTunnelV2.sol:LandTunnelV2",
        "label": "_owner",
        "offset": 0,
        "slot": "105",
        "type": "t_address"
      },
      {
        "astId": 10108,
        "contract": "src/solc_0.8/polygon/root/land/LandTunnelV2.sol:LandTunnelV2",
        "label": "__gap",
        "offset": 0,
        "slot": "106",
        "type": "t_array(t_uint256)49_storage"
      },
      {
        "astId": 10305,
        "contract": "src/solc_0.8/polygon/root/land/LandTunnelV2.sol:LandTunnelV2",
        "label": "_paused",
        "offset": 0,
        "slot": "155",
        "type": "t_bool"
      },
      {
        "astId": 10396,
        "contract": "src/solc_0.8/polygon/root/land/LandTunnelV2.sol:LandTunnelV2",
        "label": "__gap",
        "offset": 0,
        "slot": "156",
        "type": "t_array(t_uint256)49_storage"
      },
      {
        "astId": 68323,
        "contract": "src/solc_0.8/polygon/root/land/LandTunnelV2.sol:LandTunnelV2",
        "label": "rootToken",
        "offset": 0,
        "slot": "205",
        "type": "t_contract(ILandTokenV2)42268"
      },
      {
        "astId": 68325,
        "contract": "src/solc_0.8/polygon/root/land/LandTunnelV2.sol:LandTunnelV2",
        "label": "transferringToL2",
        "offset": 20,
        "slot": "205",
        "type": "t_bool"
      },
      {
        "astId": 68746,
        "contract": "src/solc_0.8/polygon/root/land/LandTunnelV2.sol:LandTunnelV2",
        "label": "__gap",
        "offset": 0,
        "slot": "206",
        "type": "t_array(t_uint256)50_storage"
      }
    ],
    "types": {
      "t_address": {
        "encoding": "inplace",
        "label": "address",
        "numberOfBytes": "20"
      },
      "t_array(t_uint256)49_storage": {
        "base": "t_uint256",
        "encoding": "inplace",
        "label": "uint256[49]",
        "numberOfBytes": "1568"
      },
      "t_array(t_uint256)50_storage": {
        "base": "t_uint256",
        "encoding": "inplace",
        "label": "uint256[50]",
        "numberOfBytes": "1600"
      },
      "t_bool": {
        "encoding": "inplace",
        "label": "bool",
        "numberOfBytes": "1"
      },
      "t_bytes32": {
        "encoding": "inplace",
        "label": "bytes32",
        "numberOfBytes": "32"
      },
      "t_contract(ICheckpointManager)2060": {
        "encoding": "inplace",
        "label": "contract ICheckpointManager",
        "numberOfBytes": "20"
      },
      "t_contract(IFxStateSender)2042": {
        "encoding": "inplace",
        "label": "contract IFxStateSender",
        "numberOfBytes": "20"
      },
      "t_contract(ILandTokenV2)42268": {
        "encoding": "inplace",
        "label": "contract ILandTokenV2",
        "numberOfBytes": "20"
      },
      "t_mapping(t_bytes32,t_bool)": {
        "encoding": "mapping",
        "key": "t_bytes32",
        "label": "mapping(bytes32 => bool)",
        "numberOfBytes": "32",
        "value": "t_bool"
      },
      "t_uint256": {
        "encoding": "inplace",
        "label": "uint256",
        "numberOfBytes": "32"
      }
    }
  }
}