{
  "address": "0xbAc39e7e0832143c6910b92F11bFbf45574ee0E5",
  "abi": [
    {
      "anonymous": false,
      "inputs": [
        {
          "indexed": true,
          "internalType": "address",
          "name": "owner",
          "type": "address"
        },
        {
          "indexed": true,
          "internalType": "address",
          "name": "approved",
          "type": "address"
        },
        {
          "indexed": true,
          "internalType": "uint256",
          "name": "tokenId",
          "type": "uint256"
        }
      ],
      "name": "Approval",
      "type": "event"
    },
    {
      "anonymous": false,
      "inputs": [
        {
          "indexed": true,
          "internalType": "address",
          "name": "owner",
          "type": "address"
        },
        {
          "indexed": true,
          "internalType": "address",
          "name": "operator",
          "type": "address"
        },
        {
          "indexed": false,
          "internalType": "bool",
          "name": "approved",
          "type": "bool"
        }
      ],
      "name": "ApprovalForAll",
      "type": "event"
    },
    {
      "anonymous": false,
      "inputs": [
        {
          "indexed": true,
          "internalType": "address",
          "name": "previousOwner",
          "type": "address"
        },
        {
          "indexed": true,
          "internalType": "address",
          "name": "newOwner",
          "type": "address"
        }
      ],
      "name": "OwnershipTransferred",
      "type": "event"
    },
    {
      "anonymous": false,
      "inputs": [
        {
          "indexed": false,
          "internalType": "uint256",
          "name": "_tokenId",
          "type": "uint256"
        },
        {
          "indexed": false,
          "internalType": "uint256",
          "name": "_personalizationMask",
          "type": "uint256"
        }
      ],
      "name": "Personalized",
      "type": "event"
    },
    {
      "anonymous": false,
      "inputs": [
        {
          "indexed": false,
          "internalType": "bool",
          "name": "_pause",
          "type": "bool"
        }
      ],
      "name": "TogglePaused",
      "type": "event"
    },
    {
      "anonymous": false,
      "inputs": [
        {
          "indexed": true,
          "internalType": "address",
          "name": "from",
          "type": "address"
        },
        {
          "indexed": true,
          "internalType": "address",
          "name": "to",
          "type": "address"
        },
        {
          "indexed": true,
          "internalType": "uint256",
          "name": "tokenId",
          "type": "uint256"
        }
      ],
      "name": "Transfer",
      "type": "event"
    },
    {
      "inputs": [],
      "name": "MAX_SUPPLY",
      "outputs": [
        {
          "internalType": "uint256",
          "name": "",
          "type": "uint256"
        }
      ],
      "stateMutability": "view",
      "type": "function"
    },
    {
      "inputs": [],
      "name": "allowedToExecuteMint",
      "outputs": [
        {
          "internalType": "address",
          "name": "",
          "type": "address"
        }
      ],
      "stateMutability": "view",
      "type": "function"
    },
    {
      "inputs": [
        {
          "internalType": "address",
          "name": "to",
          "type": "address"
        },
        {
          "internalType": "uint256",
          "name": "tokenId",
          "type": "uint256"
        }
      ],
      "name": "approve",
      "outputs": [],
      "stateMutability": "nonpayable",
      "type": "function"
    },
    {
      "inputs": [
        {
          "internalType": "address",
          "name": "owner",
          "type": "address"
        }
      ],
      "name": "balanceOf",
      "outputs": [
        {
          "internalType": "uint256",
          "name": "",
          "type": "uint256"
        }
      ],
      "stateMutability": "view",
      "type": "function"
    },
    {
      "inputs": [],
      "name": "baseTokenURI",
      "outputs": [
        {
          "internalType": "string",
          "name": "",
          "type": "string"
        }
      ],
      "stateMutability": "view",
      "type": "function"
    },
    {
      "inputs": [],
      "name": "chain",
      "outputs": [
        {
          "internalType": "uint256",
          "name": "",
          "type": "uint256"
        }
      ],
      "stateMutability": "view",
      "type": "function"
    },
    {
      "inputs": [
        {
          "internalType": "address",
          "name": "_wallet",
          "type": "address"
        },
        {
          "internalType": "uint256",
          "name": "_amount",
          "type": "uint256"
        }
      ],
      "name": "checkMintAllowed",
      "outputs": [
        {
          "internalType": "bool",
          "name": "",
          "type": "bool"
        }
      ],
      "stateMutability": "view",
      "type": "function"
    },
    {
      "inputs": [
        {
          "internalType": "address",
          "name": "_wallet",
          "type": "address"
        },
        {
          "internalType": "uint256",
          "name": "_signatureId",
          "type": "uint256"
        },
        {
          "internalType": "address",
          "name": "_contractAddress",
          "type": "address"
        },
        {
          "internalType": "uint256",
          "name": "_chainId",
          "type": "uint256"
        },
        {
          "internalType": "uint256",
          "name": "_tokenId",
          "type": "uint256"
        },
        {
          "internalType": "uint256",
          "name": "_personalizationMask",
          "type": "uint256"
        },
        {
          "internalType": "bytes",
          "name": "_signature",
          "type": "bytes"
        }
      ],
      "name": "checkPersonalizationSignature",
      "outputs": [
        {
          "internalType": "address",
          "name": "",
          "type": "address"
        }
      ],
      "stateMutability": "pure",
      "type": "function"
    },
    {
      "inputs": [
        {
          "internalType": "address",
          "name": "_wallet",
          "type": "address"
        },
        {
          "internalType": "uint256",
          "name": "_signatureId",
          "type": "uint256"
        },
        {
          "internalType": "address",
          "name": "_contractAddress",
          "type": "address"
        },
        {
          "internalType": "uint256",
          "name": "_chainId",
          "type": "uint256"
        },
        {
          "internalType": "bytes",
          "name": "_signature",
          "type": "bytes"
        }
      ],
      "name": "checkSignature",
      "outputs": [
        {
          "internalType": "address",
          "name": "",
          "type": "address"
        }
      ],
      "stateMutability": "pure",
      "type": "function"
    },
    {
      "inputs": [],
      "name": "contractAddress",
      "outputs": [
        {
          "internalType": "address",
          "name": "",
          "type": "address"
        }
      ],
      "stateMutability": "view",
      "type": "function"
    },
    {
      "inputs": [],
      "name": "erc1155Id",
      "outputs": [
        {
          "internalType": "uint256",
          "name": "",
          "type": "uint256"
        }
      ],
      "stateMutability": "view",
      "type": "function"
    },
    {
      "inputs": [
        {
          "internalType": "uint256",
          "name": "tokenId",
          "type": "uint256"
        }
      ],
      "name": "getApproved",
      "outputs": [
        {
          "internalType": "address",
          "name": "",
          "type": "address"
        }
      ],
      "stateMutability": "view",
      "type": "function"
    },
    {
      "inputs": [],
      "name": "indexWave",
      "outputs": [
        {
          "internalType": "uint256",
          "name": "",
          "type": "uint256"
        }
      ],
      "stateMutability": "view",
      "type": "function"
    },
    {
      "inputs": [
        {
          "internalType": "string",
          "name": "baseURI",
          "type": "string"
        },
        {
          "internalType": "string",
          "name": "_name",
          "type": "string"
        },
        {
          "internalType": "string",
          "name": "_symbol",
          "type": "string"
        },
        {
          "internalType": "address payable",
          "name": "_sandOwner",
          "type": "address"
        },
        {
          "internalType": "address",
          "name": "_signAddress",
          "type": "address"
        }
      ],
      "name": "initialize",
      "outputs": [],
      "stateMutability": "nonpayable",
      "type": "function"
    },
    {
      "inputs": [
        {
          "internalType": "address",
          "name": "owner",
          "type": "address"
        },
        {
          "internalType": "address",
          "name": "operator",
          "type": "address"
        }
      ],
      "name": "isApprovedForAll",
      "outputs": [
        {
          "internalType": "bool",
          "name": "",
          "type": "bool"
        }
      ],
      "stateMutability": "view",
      "type": "function"
    },
    {
      "inputs": [
        {
          "internalType": "address",
          "name": "_wallet",
          "type": "address"
        },
        {
          "internalType": "uint256",
          "name": "_amount",
          "type": "uint256"
        },
        {
          "internalType": "uint256",
          "name": "_signatureId",
          "type": "uint256"
        },
        {
          "internalType": "bytes",
          "name": "_signature",
          "type": "bytes"
        }
      ],
      "name": "mint",
      "outputs": [],
      "stateMutability": "nonpayable",
      "type": "function"
    },
    {
      "inputs": [],
      "name": "name",
      "outputs": [
        {
          "internalType": "string",
          "name": "",
          "type": "string"
        }
      ],
      "stateMutability": "view",
      "type": "function"
    },
    {
      "inputs": [],
      "name": "owner",
      "outputs": [
        {
          "internalType": "address",
          "name": "",
          "type": "address"
        }
      ],
      "stateMutability": "view",
      "type": "function"
    },
    {
      "inputs": [
        {
          "internalType": "uint256",
          "name": "tokenId",
          "type": "uint256"
        }
      ],
      "name": "ownerOf",
      "outputs": [
        {
          "internalType": "address",
          "name": "",
          "type": "address"
        }
      ],
      "stateMutability": "view",
      "type": "function"
    },
    {
      "inputs": [],
      "name": "paused",
      "outputs": [
        {
          "internalType": "uint256",
          "name": "",
          "type": "uint256"
        }
      ],
      "stateMutability": "view",
      "type": "function"
    },
    {
      "inputs": [
        {
          "internalType": "uint256",
          "name": "_tokenId",
          "type": "uint256"
        }
      ],
      "name": "personalizationOf",
      "outputs": [
        {
          "internalType": "uint256",
          "name": "",
          "type": "uint256"
        }
      ],
      "stateMutability": "view",
      "type": "function"
    },
    {
      "inputs": [
        {
          "internalType": "uint256",
          "name": "",
          "type": "uint256"
        }
      ],
      "name": "personalizationTraits",
      "outputs": [
        {
          "internalType": "uint256",
          "name": "",
          "type": "uint256"
        }
      ],
      "stateMutability": "view",
      "type": "function"
    },
    {
      "inputs": [
        {
          "internalType": "uint256",
          "name": "_signatureId",
          "type": "uint256"
        },
        {
          "internalType": "bytes",
          "name": "_signature",
          "type": "bytes"
        },
        {
          "internalType": "uint256",
          "name": "_tokenId",
          "type": "uint256"
        },
        {
          "internalType": "uint256",
          "name": "_personalizationMask",
          "type": "uint256"
        }
      ],
      "name": "personalize",
      "outputs": [],
      "stateMutability": "nonpayable",
      "type": "function"
    },
    {
      "inputs": [
        {
          "internalType": "uint256",
          "name": "_count",
          "type": "uint256"
        }
      ],
      "name": "price",
      "outputs": [
        {
          "internalType": "uint256",
          "name": "",
          "type": "uint256"
        }
      ],
      "stateMutability": "view",
      "type": "function"
    },
    {
      "inputs": [],
      "name": "renounceOwnership",
      "outputs": [],
      "stateMutability": "nonpayable",
      "type": "function"
    },
    {
      "inputs": [
        {
          "internalType": "address",
          "name": "from",
          "type": "address"
        },
        {
          "internalType": "address",
          "name": "to",
          "type": "address"
        },
        {
          "internalType": "uint256",
          "name": "tokenId",
          "type": "uint256"
        }
      ],
      "name": "safeTransferFrom",
      "outputs": [],
      "stateMutability": "nonpayable",
      "type": "function"
    },
    {
      "inputs": [
        {
          "internalType": "address",
          "name": "from",
          "type": "address"
        },
        {
          "internalType": "address",
          "name": "to",
          "type": "address"
        },
        {
          "internalType": "uint256",
          "name": "tokenId",
          "type": "uint256"
        },
        {
          "internalType": "bytes",
          "name": "_data",
          "type": "bytes"
        }
      ],
      "name": "safeTransferFrom",
      "outputs": [],
      "stateMutability": "nonpayable",
      "type": "function"
    },
    {
      "inputs": [],
      "name": "sandOwner",
      "outputs": [
        {
          "internalType": "address",
          "name": "",
          "type": "address"
        }
      ],
      "stateMutability": "view",
      "type": "function"
    },
    {
      "inputs": [
        {
          "internalType": "address",
          "name": "_address",
          "type": "address"
        }
      ],
      "name": "setAllowedExecuteMint",
      "outputs": [],
      "stateMutability": "nonpayable",
      "type": "function"
    },
    {
      "inputs": [
        {
          "internalType": "address",
          "name": "operator",
          "type": "address"
        },
        {
          "internalType": "bool",
          "name": "approved",
          "type": "bool"
        }
      ],
      "name": "setApprovalForAll",
      "outputs": [],
      "stateMutability": "nonpayable",
      "type": "function"
    },
    {
      "inputs": [
        {
          "internalType": "string",
          "name": "baseURI",
          "type": "string"
        }
      ],
      "name": "setBaseURI",
      "outputs": [],
      "stateMutability": "nonpayable",
      "type": "function"
    },
    {
      "inputs": [
        {
          "internalType": "address",
          "name": "_owner",
          "type": "address"
        }
      ],
      "name": "setSandOwnerAddress",
      "outputs": [],
      "stateMutability": "nonpayable",
      "type": "function"
    },
    {
      "inputs": [
        {
          "internalType": "address",
          "name": "_signAddress",
          "type": "address"
        }
      ],
      "name": "setSignAddress",
      "outputs": [],
      "stateMutability": "nonpayable",
      "type": "function"
    },
    {
      "inputs": [
        {
          "internalType": "uint256",
          "name": "_waveType",
          "type": "uint256"
        },
        {
          "internalType": "uint256",
          "name": "_waveMaxTokens",
          "type": "uint256"
        },
        {
          "internalType": "uint256",
          "name": "_waveMaxTokensToBuy",
          "type": "uint256"
        },
        {
          "internalType": "uint256",
          "name": "_waveSingleTokenPrice",
          "type": "uint256"
        },
        {
          "internalType": "address",
          "name": "_contractAddress",
          "type": "address"
        },
        {
          "internalType": "uint256",
          "name": "_erc1155Id",
          "type": "uint256"
        }
      ],
      "name": "setupWave",
      "outputs": [],
      "stateMutability": "nonpayable",
      "type": "function"
    },
    {
      "inputs": [],
      "name": "signAddress",
      "outputs": [
        {
          "internalType": "address",
          "name": "",
          "type": "address"
        }
      ],
      "stateMutability": "view",
      "type": "function"
    },
    {
      "inputs": [
        {
          "internalType": "bytes4",
          "name": "interfaceId",
          "type": "bytes4"
        }
      ],
      "name": "supportsInterface",
      "outputs": [
        {
          "internalType": "bool",
          "name": "",
          "type": "bool"
        }
      ],
      "stateMutability": "view",
      "type": "function"
    },
    {
      "inputs": [],
      "name": "symbol",
      "outputs": [
        {
          "internalType": "string",
          "name": "",
          "type": "string"
        }
      ],
      "stateMutability": "view",
      "type": "function"
    },
    {
      "inputs": [],
      "name": "toggleSale",
      "outputs": [],
      "stateMutability": "nonpayable",
      "type": "function"
    },
    {
      "inputs": [
        {
          "internalType": "uint256",
          "name": "index",
          "type": "uint256"
        }
      ],
      "name": "tokenByIndex",
      "outputs": [
        {
          "internalType": "uint256",
          "name": "",
          "type": "uint256"
        }
      ],
      "stateMutability": "view",
      "type": "function"
    },
    {
      "inputs": [
        {
          "internalType": "address",
          "name": "owner",
          "type": "address"
        },
        {
          "internalType": "uint256",
          "name": "index",
          "type": "uint256"
        }
      ],
      "name": "tokenOfOwnerByIndex",
      "outputs": [
        {
          "internalType": "uint256",
          "name": "",
          "type": "uint256"
        }
      ],
      "stateMutability": "view",
      "type": "function"
    },
    {
      "inputs": [
        {
          "internalType": "uint256",
          "name": "tokenId",
          "type": "uint256"
        }
      ],
      "name": "tokenURI",
      "outputs": [
        {
          "internalType": "string",
          "name": "",
          "type": "string"
        }
      ],
      "stateMutability": "view",
      "type": "function"
    },
    {
      "inputs": [],
      "name": "totalSupply",
      "outputs": [
        {
          "internalType": "uint256",
          "name": "",
          "type": "uint256"
        }
      ],
      "stateMutability": "view",
      "type": "function"
    },
    {
      "inputs": [
        {
          "internalType": "address",
          "name": "from",
          "type": "address"
        },
        {
          "internalType": "address",
          "name": "to",
          "type": "address"
        },
        {
          "internalType": "uint256",
          "name": "tokenId",
          "type": "uint256"
        }
      ],
      "name": "transferFrom",
      "outputs": [],
      "stateMutability": "nonpayable",
      "type": "function"
    },
    {
      "inputs": [
        {
          "internalType": "address",
          "name": "newOwner",
          "type": "address"
        }
      ],
      "name": "transferOwnership",
      "outputs": [],
      "stateMutability": "nonpayable",
      "type": "function"
    },
    {
      "inputs": [],
      "name": "waveMaxTokens",
      "outputs": [
        {
          "internalType": "uint256",
          "name": "",
          "type": "uint256"
        }
      ],
      "stateMutability": "view",
      "type": "function"
    },
    {
      "inputs": [],
      "name": "waveMaxTokensToBuy",
      "outputs": [
        {
          "internalType": "uint256",
          "name": "",
          "type": "uint256"
        }
      ],
      "stateMutability": "view",
      "type": "function"
    },
    {
      "inputs": [
        {
          "internalType": "address",
          "name": "",
          "type": "address"
        },
        {
          "internalType": "uint256",
          "name": "",
          "type": "uint256"
        }
      ],
      "name": "waveOwnerToClaimedCounts",
      "outputs": [
        {
          "internalType": "uint256",
          "name": "",
          "type": "uint256"
        }
      ],
      "stateMutability": "view",
      "type": "function"
    },
    {
      "inputs": [],
      "name": "waveSingleTokenPrice",
      "outputs": [
        {
          "internalType": "uint256",
          "name": "",
          "type": "uint256"
        }
      ],
      "stateMutability": "view",
      "type": "function"
    },
    {
      "inputs": [],
      "name": "waveTotalMinted",
      "outputs": [
        {
          "internalType": "uint256",
          "name": "",
          "type": "uint256"
        }
      ],
      "stateMutability": "view",
      "type": "function"
    },
    {
      "inputs": [],
      "name": "waveType",
      "outputs": [
        {
          "internalType": "uint256",
          "name": "",
          "type": "uint256"
        }
      ],
      "stateMutability": "view",
      "type": "function"
    }
  ],
  "transactionHash": "0x27c7f81de429acb3fccaed4cf3445618e4f1d9bc4d4c9f9e88d259c231a05a53",
  "args": [],
  "numDeployments": 1,
  "solcInputHash": "2ba3c6fef2c2193e432cafa6e26316e8",
  "bytecode": "0x6080604052600060fc5534801561001557600080fd5b50600160fb55613fb18061002a6000396000f3fe608060405234801561001057600080fd5b50600436106103365760003560e01c8063677ec90f116101b2578063ac3149e3116100f9578063d5878eaa116100a2578063e89bcd091161007c578063e89bcd091461067f578063e985e9c514610693578063f2fde38b146106cf578063f6b4dfb4146106e257610336565b8063d5878eaa1461065a578063d6d0faee14610663578063df9740da1461067657610336565b8063c87b56dd116100d3578063c87b56dd1461062c578063ca4601381461063f578063d547cfb71461065257610336565b8063ac3149e3146105ff578063b88d4fde14610613578063c763e5a11461062657610336565b806382bc78771161015b57806397944ba21161013557806397944ba2146105b8578063a22cb465146105d9578063a8b75a6e146105ec57610336565b806382bc78771461058c5780638da5cb5b1461059f57806395d89b41146105b057610336565b8063715018a61161018c578063715018a614610569578063731133e9146105715780637d8966e41461058457610336565b8063677ec90f1461050957806368d4a7781461052a57806370a082311461055657610336565b806326a49e371161028157806342842e0e1161022a57806355f804b31161020457806355f804b3146104c65780635c975abb146104d95780636352211e146104e3578063671b2a31146104f657610336565b806342842e0e14610497578063433ad106146104aa5780634f6ccce7146104b357610336565b806332cb6b0c1161025b57806332cb6b0c1461047a57806334b35ac0146104835780633e84aa5e1461048d57610336565b806326a49e3714610441578063283ca77c146104545780632f745c591461046757610336565b8063081812fc116102e357806318160ddd116102bd57806318160ddd1461041357806323b872dd1461041b57806324a6f0851461042e57610336565b8063081812fc146103d8578063095ea7b3146103eb578063151370451461040057610336565b8063057831261161031457806305783126146103a55780630682bdbc146103af57806306fdde03146103c357610336565b806301dbf7e01461033b57806301ffc9a714610357578063044def381461037a575b600080fd5b61034460fc5481565b6040519081526020015b60405180910390f35b61036a610365366004613b44565b6106f6565b604051901515815260200161034e565b61038d610388366004613a58565b610754565b6040516001600160a01b03909116815260200161034e565b6103446101015481565b61010b5461038d906001600160a01b031681565b6103cb610807565b60405161034e9190613ddd565b61038d6103e6366004613c5b565b610899565b6103fe6103f93660046139b9565b610944565b005b6103fe61040e36600461388e565b610a76565b609954610344565b6103fe6104293660046138e2565b610b00565b6103fe61043c36600461388e565b610b87565b61034461044f366004613c5b565b610c11565b61036a6104623660046139b9565b610c21565b6103446104753660046139b9565b610c44565b6103446120ee81565b6103446101055481565b6103446101005481565b6103fe6104a53660046138e2565b610cec565b61034460ff5481565b6103446104c1366004613c5b565b610d07565b6103fe6104d4366004613b7c565b610db9565b6103446101065481565b61038d6104f1366004613c5b565b610e2b565b6103fe610504366004613c8b565b610eb6565b610344610517366004613c5b565b6101046020526000908152604090205481565b6103446105383660046139b9565b61010360209081526000928352604080842090915290825290205481565b61034461056436600461388e565b61106c565b6103fe611106565b6103fe61057f366004613adf565b61116c565b6103fe611732565b6103fe61059a36600461388e565b6117e1565b60c9546001600160a01b031661038d565b6103cb61186b565b6103446105c6366004613c5b565b6000908152610104602052604090205490565b6103fe6105e736600461398c565b61187a565b61038d6105fa3660046139e4565b611885565b6101095461038d906001600160a01b031681565b6103fe610621366004613922565b6118c7565b46610344565b6103cb61063a366004613c5b565b611955565b6103fe61064d366004613ce0565b611a3d565b6103cb611c35565b61034460fd5481565b6103fe610671366004613baf565b611cc4565b61034460fe5481565b61010a5461038d906001600160a01b031681565b61036a6106a13660046138aa565b6001600160a01b039182166000908152606a6020908152604080832093909416825291909152205460ff1690565b6103fe6106dd36600461388e565b611e4a565b6101025461038d906001600160a01b031681565b60007fffffffff0000000000000000000000000000000000000000000000000000000082167f780e9d6300000000000000000000000000000000000000000000000000000000148061074c575061074c82611f2c565b90505b919050565b604080516001600160a01b03808a16602083015291810188905290861660608201526080810185905260a0810184905260c081018390526000906107fb9060e0015b60408051601f198184030181529082905280516020918201207f19457468657265756d205369676e6564204d6573736167653a0a33320000000091830191909152603c820152605c01604051602081830303815290604052805190602001208361200f565b98975050505050505050565b60606065805461081690613e7e565b80601f016020809104026020016040519081016040528092919081815260200182805461084290613e7e565b801561088f5780601f106108645761010080835404028352916020019161088f565b820191906000526020600020905b81548152906001019060200180831161087257829003601f168201915b5050505050905090565b6000818152606760205260408120546001600160a01b03166109285760405162461bcd60e51b815260206004820152602c60248201527f4552433732313a20617070726f76656420717565727920666f72206e6f6e657860448201527f697374656e7420746f6b656e000000000000000000000000000000000000000060648201526084015b60405180910390fd5b506000908152606960205260409020546001600160a01b031690565b600061094f82610e2b565b9050806001600160a01b0316836001600160a01b031614156109d95760405162461bcd60e51b815260206004820152602160248201527f4552433732313a20617070726f76616c20746f2063757272656e74206f776e6560448201527f7200000000000000000000000000000000000000000000000000000000000000606482015260840161091f565b336001600160a01b03821614806109f557506109f581336106a1565b610a675760405162461bcd60e51b815260206004820152603860248201527f4552433732313a20617070726f76652063616c6c6572206973206e6f74206f7760448201527f6e6572206e6f7220617070726f76656420666f7220616c6c0000000000000000606482015260840161091f565b610a718383612033565b505050565b60c9546001600160a01b03163314610ad05760405162461bcd60e51b815260206004820181905260248201527f4f776e61626c653a2063616c6c6572206973206e6f7420746865206f776e6572604482015260640161091f565b61010b805473ffffffffffffffffffffffffffffffffffffffff19166001600160a01b0392909216919091179055565b610b0a33826120ae565b610b7c5760405162461bcd60e51b815260206004820152603160248201527f4552433732313a207472616e736665722063616c6c6572206973206e6f74206f60448201527f776e6572206e6f7220617070726f766564000000000000000000000000000000606482015260840161091f565b610a718383836121b6565b60c9546001600160a01b03163314610be15760405162461bcd60e51b815260206004820181905260248201527f4f776e61626c653a2063616c6c6572206973206e6f7420746865206f776e6572604482015260640161091f565b61010a805473ffffffffffffffffffffffffffffffffffffffff19166001600160a01b0392909216919091179055565b60008160ff5461074c9190613e1c565b6000610c2c8261239b565b8015610c3d5750610c3d83836123c1565b9392505050565b6000610c4f8361106c565b8210610cc35760405162461bcd60e51b815260206004820152602b60248201527f455243373231456e756d657261626c653a206f776e657220696e646578206f7560448201527f74206f6620626f756e6473000000000000000000000000000000000000000000606482015260840161091f565b506001600160a01b03919091166000908152609760209081526040808320938352929052205490565b610a71838383604051806020016040528060008152506118c7565b6000610d1260995490565b8210610d865760405162461bcd60e51b815260206004820152602c60248201527f455243373231456e756d657261626c653a20676c6f62616c20696e646578206f60448201527f7574206f6620626f756e64730000000000000000000000000000000000000000606482015260840161091f565b60998281548110610da757634e487b7160e01b600052603260045260246000fd5b90600052602060002001549050919050565b60c9546001600160a01b03163314610e135760405162461bcd60e51b815260206004820181905260248201527f4f776e61626c653a2063616c6c6572206973206e6f7420746865206f776e6572604482015260640161091f565b8051610e279061010c90602084019061376e565b5050565b6000818152606760205260408120546001600160a01b03168061074c5760405162461bcd60e51b815260206004820152602960248201527f4552433732313a206f776e657220717565727920666f72206e6f6e657869737460448201527f656e7420746f6b656e0000000000000000000000000000000000000000000000606482015260840161091f565b33610ec083610e2b565b6001600160a01b031614610f3c5760405162461bcd60e51b815260206004820152603d60248201527f596f75206d75737420626520746865206f776e6572206f662074686520746f6b60448201527f656e20696e206f7264657220746f20706572736f6e616c697a65206974000000606482015260840161091f565b6000848152610107602052604090205415610f995760405162461bcd60e51b815260206004820152601860248201527f5369676e6174757265496420616c726561647920757365640000000000000000604482015260640161091f565b61010b546001600160a01b0316610fb53386304687878a610754565b6001600160a01b03161461100b5760405162461bcd60e51b815260206004820152601060248201527f5369676e6174757265206661696c656400000000000000000000000000000000604482015260640161091f565b6000848152610107602090815260408083206001905584835261010482529182902083905581518481529081018390527f37c5b85bb9cbe019726db5bf44dfd0053ed3e09554d9f97a9778b5b8dd65f620910160405180910390a150505050565b60006001600160a01b0382166110ea5760405162461bcd60e51b815260206004820152602a60248201527f4552433732313a2062616c616e636520717565727920666f7220746865207a6560448201527f726f206164647265737300000000000000000000000000000000000000000000606482015260840161091f565b506001600160a01b031660009081526068602052604090205490565b60c9546001600160a01b031633146111605760405162461bcd60e51b815260206004820181905260248201527f4f776e61626c653a2063616c6c6572206973206e6f7420746865206f776e6572604482015260640161091f565b61116a6000612441565b565b600260fb5414156111bf5760405162461bcd60e51b815260206004820152601f60248201527f5265656e7472616e637947756172643a207265656e7472616e742063616c6c00604482015260640161091f565b600260fb55610105546112145760405162461bcd60e51b815260206004820152601a60248201527f436f6e7472616374206973206e6f7420636f6e66696775726564000000000000604482015260640161091f565b610109546001600160a01b0316336001600160a01b0316146112785760405162461bcd60e51b815260206004820152600b60248201527f4e6f7420616c6c6f776564000000000000000000000000000000000000000000604482015260640161091f565b61010654156112c95760405162461bcd60e51b815260206004820152601260248201527f436f6e7472616374206973207061757365640000000000000000000000000000604482015260640161091f565b60008281526101076020526040902054156113265760405162461bcd60e51b815260206004820152601860248201527f7369676e6174757265496420616c726561647920757365640000000000000000604482015260640161091f565b61010b546001600160a01b03166113408584304686611885565b6001600160a01b0316146113965760405162461bcd60e51b815260206004820152601060248201527f5369676e6174757265206661696c656400000000000000000000000000000000604482015260640161091f565b600082815261010760205260409020600190556113b28361239b565b6113fe5760405162461bcd60e51b815260206004820152600e60248201527f5761766520636f6d706c65746564000000000000000000000000000000000000604482015260640161091f565b61140884846123c1565b6114545760405162461bcd60e51b815260206004820152600b60248201527f4d617820616c6c6f776564000000000000000000000000000000000000000000604482015260640161091f565b60fc546001141561154957610102546040517f70a082310000000000000000000000000000000000000000000000000000000081526001600160a01b03868116600483015260009216906370a082319060240160206040518083038186803b1580156114bf57600080fd5b505afa1580156114d3573d6000803e3d6000fd5b505050506040513d601f19601f820116820180604052508101906114f79190613c73565b116115445760405162461bcd60e51b815260206004820152600660248201527f4e6f204e46540000000000000000000000000000000000000000000000000000604482015260640161091f565b611652565b60fc54600214156116525761010254610101546040517efdd58e0000000000000000000000000000000000000000000000000000000081526000926001600160a01b03169162fdd58e916115b59189916004016001600160a01b03929092168252602082015260400190565b60206040518083038186803b1580156115cd57600080fd5b505afa1580156115e1573d6000803e3d6000fd5b505050506040513d601f19601f820116820180604052508101906116059190613c73565b116116525760405162461bcd60e51b815260206004820152600660248201527f4e6f204e46540000000000000000000000000000000000000000000000000000604482015260640161091f565b600061165d84610c11565b9050801561167e5761167e3361010a5487906001600160a01b0316846124a0565b6001600160a01b038516600090815261010360205260408120610105548692906116aa90600190613e3b565b815260200190815260200160002060008282546116c79190613df0565b925050819055508361010060008282546116e19190613df0565b90915550600090505b848110156117255760006117068761170160995490565b612528565b90506117128782612655565b508061171d81613eb9565b9150506116ea565b5050600160fb5550505050565b60c9546001600160a01b0316331461178c5760405162461bcd60e51b815260206004820181905260248201527f4f776e61626c653a2063616c6c6572206973206e6f7420746865206f776e6572604482015260640161091f565b610106541561179c57600061179f565b60015b60ff16610106819055604051600190911481527f723520dd5c4a47afb7ed5524b7b777a2300bdcf95cade0bf2afa9d582e66ee999060200160405180910390a1565b60c9546001600160a01b0316331461183b5760405162461bcd60e51b815260206004820181905260248201527f4f776e61626c653a2063616c6c6572206973206e6f7420746865206f776e6572604482015260640161091f565b610109805473ffffffffffffffffffffffffffffffffffffffff19166001600160a01b0392909216919091179055565b60606066805461081690613e7e565b610e2733838361266f565b604080516001600160a01b0380881660208301529181018690529084166060820152608081018390526000906118bd9060a001610796565b9695505050505050565b6118d133836120ae565b6119435760405162461bcd60e51b815260206004820152603160248201527f4552433732313a207472616e736665722063616c6c6572206973206e6f74206f60448201527f776e6572206e6f7220617070726f766564000000000000000000000000000000606482015260840161091f565b61194f8484848461273e565b50505050565b6000818152606760205260409020546060906001600160a01b03166119e25760405162461bcd60e51b815260206004820152602f60248201527f4552433732314d657461646174613a2055524920717565727920666f72206e6f60448201527f6e6578697374656e7420746f6b656e0000000000000000000000000000000000606482015260840161091f565b60006119ec6127c7565b90506000815111611a0c5760405180602001604052806000815250610c3d565b80611a16846127d7565b604051602001611a27929190613d7c565b6040516020818303038152906040529392505050565b60c9546001600160a01b03163314611a975760405162461bcd60e51b815260206004820181905260248201527f4f776e61626c653a2063616c6c6572206973206e6f7420746865206f776e6572604482015260640161091f565b600386108015611aa75750600085115b8015611ab35750600084115b611aff5760405162461bcd60e51b815260206004820152601560248201527f496e76616c696420636f6e66696775726174696f6e0000000000000000000000604482015260640161091f565b8515611b5b576001600160a01b038216611b5b5760405162461bcd60e51b815260206004820152601860248201527f496e76616c696420636f6e747261637420616464726573730000000000000000604482015260640161091f565b84841115611bab5760405162461bcd60e51b815260206004820152601c60248201527f496e76616c696420737570706c7920636f6e66696775726174696f6e00000000604482015260640161091f565b60fc86905560fd85905560fe84905560ff8390556000610100558515611bd15781611bd4565b60005b610102805473ffffffffffffffffffffffffffffffffffffffff19166001600160a01b039290921691909117905560028614611c11576000611c13565b805b610101556101058054906000611c2883613eb9565b9190505550505050505050565b61010c8054611c4390613e7e565b80601f0160208091040260200160405190810160405280929190818152602001828054611c6f90613e7e565b8015611cbc5780601f10611c9157610100808354040283529160200191611cbc565b820191906000526020600020905b815481529060010190602001808311611c9f57829003601f168201915b505050505081565b600054610100900460ff16611cdf5760005460ff1615611ce3565b303b155b611d555760405162461bcd60e51b815260206004820152602e60248201527f496e697469616c697a61626c653a20636f6e747261637420697320616c72656160448201527f647920696e697469616c697a6564000000000000000000000000000000000000606482015260840161091f565b600054610100900460ff16158015611d80576000805460ff1961ff0019909116610100171660011790555b611d8a8585612926565b611d926129ab565b611d9b86610db9565b6001600160a01b038316611df15760405162461bcd60e51b815260206004820152601a60248201527f53616e64206f776e6572206973207a65726f2061646472657373000000000000604482015260640161091f565b61010a80546001600160a01b0380861673ffffffffffffffffffffffffffffffffffffffff199283161790925561010b8054928516929091169190911790558015611e42576000805461ff00191690555b505050505050565b60c9546001600160a01b03163314611ea45760405162461bcd60e51b815260206004820181905260248201527f4f776e61626c653a2063616c6c6572206973206e6f7420746865206f776e6572604482015260640161091f565b6001600160a01b038116611f205760405162461bcd60e51b815260206004820152602660248201527f4f776e61626c653a206e6577206f776e657220697320746865207a65726f206160448201527f6464726573730000000000000000000000000000000000000000000000000000606482015260840161091f565b611f2981612441565b50565b60007fffffffff0000000000000000000000000000000000000000000000000000000082167f80ac58cd000000000000000000000000000000000000000000000000000000001480611fbf57507fffffffff0000000000000000000000000000000000000000000000000000000082167f5b5e139f00000000000000000000000000000000000000000000000000000000145b8061074c57507f01ffc9a7000000000000000000000000000000000000000000000000000000007fffffffff0000000000000000000000000000000000000000000000000000000083161461074c565b600080600061201e8585612a1f565b9150915061202b81612a8f565b509392505050565b6000818152606960205260409020805473ffffffffffffffffffffffffffffffffffffffff19166001600160a01b038416908117909155819061207582610e2b565b6001600160a01b03167f8c5be1e5ebec7d5bd14f71427d1e84f3dd0314c0f7b2291e5b200ac8c7c3b92560405160405180910390a45050565b6000818152606760205260408120546001600160a01b03166121385760405162461bcd60e51b815260206004820152602c60248201527f4552433732313a206f70657261746f7220717565727920666f72206e6f6e657860448201527f697374656e7420746f6b656e0000000000000000000000000000000000000000606482015260840161091f565b600061214383610e2b565b9050806001600160a01b0316846001600160a01b0316148061217e5750836001600160a01b031661217384610899565b6001600160a01b0316145b806121ae57506001600160a01b038082166000908152606a602090815260408083209388168352929052205460ff165b949350505050565b826001600160a01b03166121c982610e2b565b6001600160a01b0316146122455760405162461bcd60e51b815260206004820152602960248201527f4552433732313a207472616e73666572206f6620746f6b656e2074686174206960448201527f73206e6f74206f776e0000000000000000000000000000000000000000000000606482015260840161091f565b6001600160a01b0382166122c05760405162461bcd60e51b8152602060048201526024808201527f4552433732313a207472616e7366657220746f20746865207a65726f2061646460448201527f7265737300000000000000000000000000000000000000000000000000000000606482015260840161091f565b6122cb838383612cc8565b6122d6600082612033565b6001600160a01b03831660009081526068602052604081208054600192906122ff908490613e3b565b90915550506001600160a01b038216600090815260686020526040812080546001929061232d908490613df0565b9091555050600081815260676020526040808220805473ffffffffffffffffffffffffffffffffffffffff19166001600160a01b0386811691821790925591518493918716917fddf252ad1be2c89b69c2b068fc378daa952ba7f163c4a11628f55a4df523b3ef91a4505050565b6000808211801561074c575060fd5482610100546123b99190613df0565b111592915050565b600060fe54826101036000866001600160a01b03166001600160a01b0316815260200190815260200160002060006001610105546123ff9190613e3b565b8152602001908152602001600020546124189190613df0565b11158015610c3d57506120ee8261242e60995490565b6124389190613df0565b11159392505050565b60c980546001600160a01b0383811673ffffffffffffffffffffffffffffffffffffffff19831681179093556040519116919082907f8be0079c531659141344cd1fd0a4f28419497f9722a3daafe3b4186f6b6457e090600090a35050565b604080516001600160a01b0385811660248301528416604482015260648082018490528251808303909101815260849091019091526020810180517bffffffffffffffffffffffffffffffffffffffffffffffffffffffff167f23b872dd0000000000000000000000000000000000000000000000000000000017905261194f908590612d85565b600080612537836120ee613e3b565b6040517fffffffffffffffffffffffffffffffffffffffff000000000000000000000000606087901b1660208201524460348201524260548201526074810182905290915060009082906094016040516020818303038152906040528051906020012060001c6125a79190613ed4565b600081815261010860205260409020549091508190156125d35750600081815261010860205260409020545b61010860006125e3600186613e3b565b8152602001908152602001600020546000141561261a57612605600184613e3b565b6000838152610108602052604090205561264c565b610108600061262a600186613e3b565b8152602080820192909252604090810160009081205485825261010890935220555b95945050505050565b610e27828260405180602001604052806000815250612e6a565b816001600160a01b0316836001600160a01b031614156126d15760405162461bcd60e51b815260206004820152601960248201527f4552433732313a20617070726f766520746f2063616c6c657200000000000000604482015260640161091f565b6001600160a01b038381166000818152606a6020908152604080832094871680845294825291829020805460ff191686151590811790915591519182527f17307eab39ab6107e8899845ad3d59bd9653f200f220920489ca2b5937696c31910160405180910390a3505050565b6127498484846121b6565b61275584848484612ef3565b61194f5760405162461bcd60e51b815260206004820152603260248201527f4552433732313a207472616e7366657220746f206e6f6e20455243373231526560448201527f63656976657220696d706c656d656e7465720000000000000000000000000000606482015260840161091f565b606061010c805461081690613e7e565b606081612818575060408051808201909152600181527f3000000000000000000000000000000000000000000000000000000000000000602082015261074f565b8160005b8115612842578061282c81613eb9565b915061283b9050600a83613e08565b915061281c565b60008167ffffffffffffffff81111561286b57634e487b7160e01b600052604160045260246000fd5b6040519080825280601f01601f191660200182016040528015612895576020820181803683370190505b5090505b84156121ae576128aa600183613e3b565b91506128b7600a86613ed4565b6128c2906030613df0565b60f81b8183815181106128e557634e487b7160e01b600052603260045260246000fd5b60200101907effffffffffffffffffffffffffffffffffffffffffffffffffffffffffffff1916908160001a90535061291f600a86613e08565b9450612899565b600054610100900460ff166129915760405162461bcd60e51b815260206004820152602b60248201527f496e697469616c697a61626c653a20636f6e7472616374206973206e6f74206960448201526a6e697469616c697a696e6760a81b606482015260840161091f565b6129996130a0565b6129a16130a0565b610e27828261310b565b600054610100900460ff16612a165760405162461bcd60e51b815260206004820152602b60248201527f496e697469616c697a61626c653a20636f6e7472616374206973206e6f74206960448201526a6e697469616c697a696e6760a81b606482015260840161091f565b61116a33612441565b600080825160411415612a565760208301516040840151606085015160001a612a4a8782858561319d565b94509450505050612a88565b825160401415612a805760208301516040840151612a7586838361328a565b935093505050612a88565b506000905060025b9250929050565b6000816004811115612ab157634e487b7160e01b600052602160045260246000fd5b1415612abc57611f29565b6001816004811115612ade57634e487b7160e01b600052602160045260246000fd5b1415612b2c5760405162461bcd60e51b815260206004820152601860248201527f45434453413a20696e76616c6964207369676e61747572650000000000000000604482015260640161091f565b6002816004811115612b4e57634e487b7160e01b600052602160045260246000fd5b1415612b9c5760405162461bcd60e51b815260206004820152601f60248201527f45434453413a20696e76616c6964207369676e6174757265206c656e67746800604482015260640161091f565b6003816004811115612bbe57634e487b7160e01b600052602160045260246000fd5b1415612c325760405162461bcd60e51b815260206004820152602260248201527f45434453413a20696e76616c6964207369676e6174757265202773272076616c60448201527f7565000000000000000000000000000000000000000000000000000000000000606482015260840161091f565b6004816004811115612c5457634e487b7160e01b600052602160045260246000fd5b1415611f295760405162461bcd60e51b815260206004820152602260248201527f45434453413a20696e76616c6964207369676e6174757265202776272076616c60448201527f7565000000000000000000000000000000000000000000000000000000000000606482015260840161091f565b6001600160a01b038316612d2357612d1e81609980546000838152609a60205260408120829055600182018355919091527f72a152ddfb8e864297c917af52ea6c1c68aead0fee1a62673fcc7e0c94979d000155565b612d46565b816001600160a01b0316836001600160a01b031614612d4657612d4683826132d2565b6001600160a01b038216612d6257612d5d8161336f565b610a71565b826001600160a01b0316826001600160a01b031614610a7157610a718282613448565b6000612dda826040518060400160405280602081526020017f5361666545524332303a206c6f772d6c6576656c2063616c6c206661696c6564815250856001600160a01b031661348c9092919063ffffffff16565b805190915015610a715780806020019051810190612df89190613b28565b610a715760405162461bcd60e51b815260206004820152602a60248201527f5361666545524332303a204552433230206f7065726174696f6e20646964206e60448201527f6f74207375636365656400000000000000000000000000000000000000000000606482015260840161091f565b612e74838361349b565b612e816000848484612ef3565b610a715760405162461bcd60e51b815260206004820152603260248201527f4552433732313a207472616e7366657220746f206e6f6e20455243373231526560448201527f63656976657220696d706c656d656e7465720000000000000000000000000000606482015260840161091f565b60006001600160a01b0384163b15613095576040517f150b7a020000000000000000000000000000000000000000000000000000000081526001600160a01b0385169063150b7a0290612f50903390899088908890600401613dab565b602060405180830381600087803b158015612f6a57600080fd5b505af1925050508015612f9a575060408051601f3d908101601f19168201909252612f9791810190613b60565b60015b61304a573d808015612fc8576040519150601f19603f3d011682016040523d82523d6000602084013e612fcd565b606091505b5080516130425760405162461bcd60e51b815260206004820152603260248201527f4552433732313a207472616e7366657220746f206e6f6e20455243373231526560448201527f63656976657220696d706c656d656e7465720000000000000000000000000000606482015260840161091f565b805181602001fd5b7fffffffff00000000000000000000000000000000000000000000000000000000167f150b7a02000000000000000000000000000000000000000000000000000000001490506121ae565b506001949350505050565b600054610100900460ff1661116a5760405162461bcd60e51b815260206004820152602b60248201527f496e697469616c697a61626c653a20636f6e7472616374206973206e6f74206960448201526a6e697469616c697a696e6760a81b606482015260840161091f565b600054610100900460ff166131765760405162461bcd60e51b815260206004820152602b60248201527f496e697469616c697a61626c653a20636f6e7472616374206973206e6f74206960448201526a6e697469616c697a696e6760a81b606482015260840161091f565b815161318990606590602085019061376e565b508051610a7190606690602084019061376e565b6000807f7fffffffffffffffffffffffffffffff5d576e7357a4501ddfe92f46681b20a08311156131d45750600090506003613281565b8460ff16601b141580156131ec57508460ff16601c14155b156131fd5750600090506004613281565b6040805160008082526020820180845289905260ff881692820192909252606081018690526080810185905260019060a0016020604051602081039080840390855afa158015613251573d6000803e3d6000fd5b5050604051601f1901519150506001600160a01b03811661327a57600060019250925050613281565b9150600090505b94509492505050565b6000807f7fffffffffffffffffffffffffffffffffffffffffffffffffffffffffffffff831660ff84901c601b016132c48782888561319d565b935093505050935093915050565b600060016132df8461106c565b6132e99190613e3b565b60008381526098602052604090205490915080821461333c576001600160a01b03841660009081526097602090815260408083208584528252808320548484528184208190558352609890915290208190555b5060009182526098602090815260408084208490556001600160a01b039094168352609781528383209183525290812055565b60995460009061338190600190613e3b565b6000838152609a6020526040812054609980549394509092849081106133b757634e487b7160e01b600052603260045260246000fd5b9060005260206000200154905080609983815481106133e657634e487b7160e01b600052603260045260246000fd5b6000918252602080832090910192909255828152609a9091526040808220849055858252812055609980548061342c57634e487b7160e01b600052603160045260246000fd5b6001900381819060005260206000200160009055905550505050565b60006134538361106c565b6001600160a01b039093166000908152609760209081526040808320868452825280832085905593825260989052919091209190915550565b60606121ae84846000856135f6565b6001600160a01b0382166134f15760405162461bcd60e51b815260206004820181905260248201527f4552433732313a206d696e7420746f20746865207a65726f2061646472657373604482015260640161091f565b6000818152606760205260409020546001600160a01b0316156135565760405162461bcd60e51b815260206004820152601c60248201527f4552433732313a20746f6b656e20616c7265616479206d696e74656400000000604482015260640161091f565b61356260008383612cc8565b6001600160a01b038216600090815260686020526040812080546001929061358b908490613df0565b9091555050600081815260676020526040808220805473ffffffffffffffffffffffffffffffffffffffff19166001600160a01b03861690811790915590518392907fddf252ad1be2c89b69c2b068fc378daa952ba7f163c4a11628f55a4df523b3ef908290a45050565b60608247101561366e5760405162461bcd60e51b815260206004820152602660248201527f416464726573733a20696e73756666696369656e742062616c616e636520666f60448201527f722063616c6c0000000000000000000000000000000000000000000000000000606482015260840161091f565b843b6136bc5760405162461bcd60e51b815260206004820152601d60248201527f416464726573733a2063616c6c20746f206e6f6e2d636f6e7472616374000000604482015260640161091f565b600080866001600160a01b031685876040516136d89190613d60565b60006040518083038185875af1925050503d8060008114613715576040519150601f19603f3d011682016040523d82523d6000602084013e61371a565b606091505b509150915061372a828286613735565b979650505050505050565b60608315613744575081610c3d565b8251156137545782518084602001fd5b8160405162461bcd60e51b815260040161091f9190613ddd565b82805461377a90613e7e565b90600052602060002090601f01602090048101928261379c57600085556137e2565b82601f106137b557805160ff19168380011785556137e2565b828001600101855582156137e2579182015b828111156137e25782518255916020019190600101906137c7565b506137ee9291506137f2565b5090565b5b808211156137ee57600081556001016137f3565b600082601f830112613817578081fd5b813567ffffffffffffffff8082111561383257613832613f14565b604051601f8301601f19908116603f0116810190828211818310171561385a5761385a613f14565b81604052838152866020858801011115613872578485fd5b8360208701602083013792830160200193909352509392505050565b60006020828403121561389f578081fd5b8135610c3d81613f2a565b600080604083850312156138bc578081fd5b82356138c781613f2a565b915060208301356138d781613f2a565b809150509250929050565b6000806000606084860312156138f6578081fd5b833561390181613f2a565b9250602084013561391181613f2a565b929592945050506040919091013590565b60008060008060808587031215613937578081fd5b843561394281613f2a565b9350602085013561395281613f2a565b925060408501359150606085013567ffffffffffffffff811115613974578182fd5b61398087828801613807565b91505092959194509250565b6000806040838503121561399e578182fd5b82356139a981613f2a565b915060208301356138d781613f3f565b600080604083850312156139cb578182fd5b82356139d681613f2a565b946020939093013593505050565b600080600080600060a086880312156139fb578081fd5b8535613a0681613f2a565b9450602086013593506040860135613a1d81613f2a565b925060608601359150608086013567ffffffffffffffff811115613a3f578182fd5b613a4b88828901613807565b9150509295509295909350565b600080600080600080600060e0888a031215613a72578182fd5b8735613a7d81613f2a565b9650602088013595506040880135613a9481613f2a565b9450606088013593506080880135925060a0880135915060c088013567ffffffffffffffff811115613ac4578182fd5b613ad08a828b01613807565b91505092959891949750929550565b60008060008060808587031215613af4578081fd5b8435613aff81613f2a565b93506020850135925060408501359150606085013567ffffffffffffffff811115613974578182fd5b600060208284031215613b39578081fd5b8151610c3d81613f3f565b600060208284031215613b55578081fd5b8135610c3d81613f4d565b600060208284031215613b71578081fd5b8151610c3d81613f4d565b600060208284031215613b8d578081fd5b813567ffffffffffffffff811115613ba3578182fd5b6121ae84828501613807565b600080600080600060a08688031215613bc6578283fd5b853567ffffffffffffffff80821115613bdd578485fd5b613be989838a01613807565b96506020880135915080821115613bfe578485fd5b613c0a89838a01613807565b95506040880135915080821115613c1f578485fd5b50613c2c88828901613807565b9350506060860135613c3d81613f2a565b91506080860135613c4d81613f2a565b809150509295509295909350565b600060208284031215613c6c578081fd5b5035919050565b600060208284031215613c84578081fd5b5051919050565b60008060008060808587031215613ca0578182fd5b84359350602085013567ffffffffffffffff811115613cbd578283fd5b613cc987828801613807565b949794965050505060408301359260600135919050565b60008060008060008060c08789031215613cf8578384fd5b863595506020870135945060408701359350606087013592506080870135613d1f81613f2a565b8092505060a087013590509295509295509295565b60008151808452613d4c816020860160208601613e52565b601f01601f19169290920160200192915050565b60008251613d72818460208701613e52565b9190910192915050565b60008351613d8e818460208801613e52565b835190830190613da2818360208801613e52565b01949350505050565b60006001600160a01b038087168352808616602084015250836040830152608060608301526118bd6080830184613d34565b600060208252610c3d6020830184613d34565b60008219821115613e0357613e03613ee8565b500190565b600082613e1757613e17613efe565b500490565b6000816000190483118215151615613e3657613e36613ee8565b500290565b600082821015613e4d57613e4d613ee8565b500390565b60005b83811015613e6d578181015183820152602001613e55565b8381111561194f5750506000910152565b600281046001821680613e9257607f821691505b60208210811415613eb357634e487b7160e01b600052602260045260246000fd5b50919050565b6000600019821415613ecd57613ecd613ee8565b5060010190565b600082613ee357613ee3613efe565b500690565b634e487b7160e01b600052601160045260246000fd5b634e487b7160e01b600052601260045260246000fd5b634e487b7160e01b600052604160045260246000fd5b6001600160a01b0381168114611f2957600080fd5b8015158114611f2957600080fd5b7fffffffff0000000000000000000000000000000000000000000000000000000081168114611f2957600080fdfea2646970667358221220b6f8631132507352dcba813c5ca5a3ec84578bd8a2a57b8527843330fc804f3764736f6c63430008020033",
  "devdoc": {
    "kind": "dev",
    "methods": {
      "approve(address,uint256)": {
        "details": "See {IERC721-approve}."
      },
      "balanceOf(address)": {
        "details": "See {IERC721-balanceOf}."
      },
      "getApproved(uint256)": {
        "details": "See {IERC721-getApproved}."
      },
      "isApprovedForAll(address,address)": {
        "details": "See {IERC721-isApprovedForAll}."
      },
      "name()": {
        "details": "See {IERC721Metadata-name}."
      },
      "owner()": {
        "details": "Returns the address of the current owner."
      },
      "ownerOf(uint256)": {
        "details": "See {IERC721-ownerOf}."
      },
      "renounceOwnership()": {
        "details": "Leaves the contract without owner. It will not be possible to call `onlyOwner` functions anymore. Can only be called by the current owner. NOTE: Renouncing ownership will leave the contract without an owner, thereby removing any functionality that is only available to the owner."
      },
      "safeTransferFrom(address,address,uint256)": {
        "details": "See {IERC721-safeTransferFrom}."
      },
      "safeTransferFrom(address,address,uint256,bytes)": {
        "details": "See {IERC721-safeTransferFrom}."
      },
      "setApprovalForAll(address,bool)": {
        "details": "See {IERC721-setApprovalForAll}."
      },
      "supportsInterface(bytes4)": {
        "details": "See {IERC165-supportsInterface}."
      },
      "symbol()": {
        "details": "See {IERC721Metadata-symbol}."
      },
      "tokenByIndex(uint256)": {
        "details": "See {IERC721Enumerable-tokenByIndex}."
      },
      "tokenOfOwnerByIndex(address,uint256)": {
        "details": "See {IERC721Enumerable-tokenOfOwnerByIndex}."
      },
      "tokenURI(uint256)": {
        "details": "See {IERC721Metadata-tokenURI}."
      },
      "totalSupply()": {
        "details": "See {IERC721Enumerable-totalSupply}."
      },
      "transferFrom(address,address,uint256)": {
        "details": "See {IERC721-transferFrom}."
      },
      "transferOwnership(address)": {
        "details": "Transfers ownership of the contract to a new account (`newOwner`). Can only be called by the current owner."
      }
    },
    "version": 1
  },
  "userdoc": {
    "kind": "user",
    "methods": {},
    "version": 1
  },
  "storageLayout": {
    "storage": [
      {
        "astId": 7568,
        "contract": "src/solc_0.8/raffle/PeopleOfCrypto.sol:PeopleOfCrypto",
        "label": "_initialized",
        "offset": 0,
        "slot": "0",
        "type": "t_bool"
      },
      {
        "astId": 7571,
        "contract": "src/solc_0.8/raffle/PeopleOfCrypto.sol:PeopleOfCrypto",
        "label": "_initializing",
        "offset": 1,
        "slot": "0",
        "type": "t_bool"
      },
      {
        "astId": 9533,
        "contract": "src/solc_0.8/raffle/PeopleOfCrypto.sol:PeopleOfCrypto",
        "label": "__gap",
        "offset": 0,
        "slot": "1",
        "type": "t_array(t_uint256)50_storage"
      },
      {
        "astId": 10321,
        "contract": "src/solc_0.8/raffle/PeopleOfCrypto.sol:PeopleOfCrypto",
        "label": "__gap",
        "offset": 0,
        "slot": "51",
        "type": "t_array(t_uint256)50_storage"
      },
      {
        "astId": 7855,
        "contract": "src/solc_0.8/raffle/PeopleOfCrypto.sol:PeopleOfCrypto",
        "label": "_name",
        "offset": 0,
        "slot": "101",
        "type": "t_string_storage"
      },
      {
        "astId": 7857,
        "contract": "src/solc_0.8/raffle/PeopleOfCrypto.sol:PeopleOfCrypto",
        "label": "_symbol",
        "offset": 0,
        "slot": "102",
        "type": "t_string_storage"
      },
      {
        "astId": 7861,
        "contract": "src/solc_0.8/raffle/PeopleOfCrypto.sol:PeopleOfCrypto",
        "label": "_owners",
        "offset": 0,
        "slot": "103",
        "type": "t_mapping(t_uint256,t_address)"
      },
      {
        "astId": 7865,
        "contract": "src/solc_0.8/raffle/PeopleOfCrypto.sol:PeopleOfCrypto",
        "label": "_balances",
        "offset": 0,
        "slot": "104",
        "type": "t_mapping(t_address,t_uint256)"
      },
      {
        "astId": 7869,
        "contract": "src/solc_0.8/raffle/PeopleOfCrypto.sol:PeopleOfCrypto",
        "label": "_tokenApprovals",
        "offset": 0,
        "slot": "105",
        "type": "t_mapping(t_uint256,t_address)"
      },
      {
        "astId": 7875,
        "contract": "src/solc_0.8/raffle/PeopleOfCrypto.sol:PeopleOfCrypto",
        "label": "_operatorApprovals",
        "offset": 0,
        "slot": "106",
        "type": "t_mapping(t_address,t_mapping(t_address,t_bool))"
      },
      {
        "astId": 8686,
        "contract": "src/solc_0.8/raffle/PeopleOfCrypto.sol:PeopleOfCrypto",
        "label": "__gap",
        "offset": 0,
        "slot": "107",
        "type": "t_array(t_uint256)44_storage"
      },
      {
        "astId": 8860,
        "contract": "src/solc_0.8/raffle/PeopleOfCrypto.sol:PeopleOfCrypto",
        "label": "_ownedTokens",
        "offset": 0,
        "slot": "151",
        "type": "t_mapping(t_address,t_mapping(t_uint256,t_uint256))"
      },
      {
        "astId": 8864,
        "contract": "src/solc_0.8/raffle/PeopleOfCrypto.sol:PeopleOfCrypto",
        "label": "_ownedTokensIndex",
        "offset": 0,
        "slot": "152",
        "type": "t_mapping(t_uint256,t_uint256)"
      },
      {
        "astId": 8867,
        "contract": "src/solc_0.8/raffle/PeopleOfCrypto.sol:PeopleOfCrypto",
        "label": "_allTokens",
        "offset": 0,
        "slot": "153",
        "type": "t_array(t_uint256)dyn_storage"
      },
      {
        "astId": 8871,
        "contract": "src/solc_0.8/raffle/PeopleOfCrypto.sol:PeopleOfCrypto",
        "label": "_allTokensIndex",
        "offset": 0,
        "slot": "154",
        "type": "t_mapping(t_uint256,t_uint256)"
      },
      {
        "astId": 9186,
        "contract": "src/solc_0.8/raffle/PeopleOfCrypto.sol:PeopleOfCrypto",
        "label": "__gap",
        "offset": 0,
        "slot": "155",
        "type": "t_array(t_uint256)46_storage"
      },
      {
        "astId": 7446,
        "contract": "src/solc_0.8/raffle/PeopleOfCrypto.sol:PeopleOfCrypto",
        "label": "_owner",
        "offset": 0,
        "slot": "201",
        "type": "t_address"
      },
      {
        "astId": 7560,
        "contract": "src/solc_0.8/raffle/PeopleOfCrypto.sol:PeopleOfCrypto",
        "label": "__gap",
        "offset": 0,
        "slot": "202",
        "type": "t_array(t_uint256)49_storage"
      },
      {
        "astId": 739,
        "contract": "src/solc_0.8/raffle/PeopleOfCrypto.sol:PeopleOfCrypto",
        "label": "_status",
        "offset": 0,
        "slot": "251",
        "type": "t_uint256"
      },
      {
        "astId": 42981,
        "contract": "src/solc_0.8/raffle/PeopleOfCrypto.sol:PeopleOfCrypto",
        "label": "waveType",
        "offset": 0,
        "slot": "252",
        "type": "t_uint256"
      },
      {
        "astId": 42983,
        "contract": "src/solc_0.8/raffle/PeopleOfCrypto.sol:PeopleOfCrypto",
        "label": "waveMaxTokens",
        "offset": 0,
        "slot": "253",
        "type": "t_uint256"
      },
      {
        "astId": 42985,
        "contract": "src/solc_0.8/raffle/PeopleOfCrypto.sol:PeopleOfCrypto",
        "label": "waveMaxTokensToBuy",
        "offset": 0,
        "slot": "254",
        "type": "t_uint256"
      },
      {
        "astId": 42987,
        "contract": "src/solc_0.8/raffle/PeopleOfCrypto.sol:PeopleOfCrypto",
        "label": "waveSingleTokenPrice",
        "offset": 0,
        "slot": "255",
        "type": "t_uint256"
      },
      {
        "astId": 42989,
        "contract": "src/solc_0.8/raffle/PeopleOfCrypto.sol:PeopleOfCrypto",
        "label": "waveTotalMinted",
        "offset": 0,
        "slot": "256",
        "type": "t_uint256"
      },
      {
        "astId": 42991,
        "contract": "src/solc_0.8/raffle/PeopleOfCrypto.sol:PeopleOfCrypto",
        "label": "erc1155Id",
        "offset": 0,
        "slot": "257",
        "type": "t_uint256"
      },
      {
        "astId": 42993,
        "contract": "src/solc_0.8/raffle/PeopleOfCrypto.sol:PeopleOfCrypto",
        "label": "contractAddress",
        "offset": 0,
        "slot": "258",
        "type": "t_address"
      },
      {
        "astId": 42999,
        "contract": "src/solc_0.8/raffle/PeopleOfCrypto.sol:PeopleOfCrypto",
        "label": "waveOwnerToClaimedCounts",
        "offset": 0,
        "slot": "259",
        "type": "t_mapping(t_address,t_mapping(t_uint256,t_uint256))"
      },
      {
        "astId": 43003,
        "contract": "src/solc_0.8/raffle/PeopleOfCrypto.sol:PeopleOfCrypto",
        "label": "personalizationTraits",
        "offset": 0,
        "slot": "260",
        "type": "t_mapping(t_uint256,t_uint256)"
      },
      {
        "astId": 43005,
        "contract": "src/solc_0.8/raffle/PeopleOfCrypto.sol:PeopleOfCrypto",
        "label": "indexWave",
        "offset": 0,
        "slot": "261",
        "type": "t_uint256"
      },
      {
        "astId": 43007,
        "contract": "src/solc_0.8/raffle/PeopleOfCrypto.sol:PeopleOfCrypto",
        "label": "paused",
        "offset": 0,
        "slot": "262",
        "type": "t_uint256"
      },
      {
        "astId": 43011,
        "contract": "src/solc_0.8/raffle/PeopleOfCrypto.sol:PeopleOfCrypto",
        "label": "signatureIds",
        "offset": 0,
        "slot": "263",
        "type": "t_mapping(t_uint256,t_uint256)"
      },
      {
        "astId": 43015,
        "contract": "src/solc_0.8/raffle/PeopleOfCrypto.sol:PeopleOfCrypto",
        "label": "availableIds",
        "offset": 0,
        "slot": "264",
        "type": "t_mapping(t_uint256,t_uint256)"
      },
      {
        "astId": 43017,
        "contract": "src/solc_0.8/raffle/PeopleOfCrypto.sol:PeopleOfCrypto",
        "label": "allowedToExecuteMint",
        "offset": 0,
        "slot": "265",
        "type": "t_address"
      },
      {
        "astId": 43019,
        "contract": "src/solc_0.8/raffle/PeopleOfCrypto.sol:PeopleOfCrypto",
        "label": "sandOwner",
        "offset": 0,
        "slot": "266",
        "type": "t_address"
      },
      {
        "astId": 43021,
        "contract": "src/solc_0.8/raffle/PeopleOfCrypto.sol:PeopleOfCrypto",
        "label": "signAddress",
        "offset": 0,
        "slot": "267",
        "type": "t_address"
      },
      {
        "astId": 43023,
        "contract": "src/solc_0.8/raffle/PeopleOfCrypto.sol:PeopleOfCrypto",
        "label": "baseTokenURI",
        "offset": 0,
        "slot": "268",
        "type": "t_string_storage"
      }
    ],
    "types": {
      "t_address": {
        "encoding": "inplace",
        "label": "address",
        "numberOfBytes": "20"
      },
      "t_array(t_uint256)44_storage": {
        "base": "t_uint256",
        "encoding": "inplace",
        "label": "uint256[44]",
        "numberOfBytes": "1408"
      },
      "t_array(t_uint256)46_storage": {
        "base": "t_uint256",
        "encoding": "inplace",
        "label": "uint256[46]",
        "numberOfBytes": "1472"
      },
      "t_array(t_uint256)49_storage": {
        "base": "t_uint256",
        "encoding": "inplace",
        "label": "uint256[49]",
        "numberOfBytes": "1568"
      },
      "t_array(t_uint256)50_storage": {
        "base": "t_uint256",
        "encoding": "inplace",
        "label": "uint256[50]",
        "numberOfBytes": "1600"
      },
      "t_array(t_uint256)dyn_storage": {
        "base": "t_uint256",
        "encoding": "dynamic_array",
        "label": "uint256[]",
        "numberOfBytes": "32"
      },
      "t_bool": {
        "encoding": "inplace",
        "label": "bool",
        "numberOfBytes": "1"
      },
      "t_mapping(t_address,t_bool)": {
        "encoding": "mapping",
        "key": "t_address",
        "label": "mapping(address => bool)",
        "numberOfBytes": "32",
        "value": "t_bool"
      },
      "t_mapping(t_address,t_mapping(t_address,t_bool))": {
        "encoding": "mapping",
        "key": "t_address",
        "label": "mapping(address => mapping(address => bool))",
        "numberOfBytes": "32",
        "value": "t_mapping(t_address,t_bool)"
      },
      "t_mapping(t_address,t_mapping(t_uint256,t_uint256))": {
        "encoding": "mapping",
        "key": "t_address",
        "label": "mapping(address => mapping(uint256 => uint256))",
        "numberOfBytes": "32",
        "value": "t_mapping(t_uint256,t_uint256)"
      },
      "t_mapping(t_address,t_uint256)": {
        "encoding": "mapping",
        "key": "t_address",
        "label": "mapping(address => uint256)",
        "numberOfBytes": "32",
        "value": "t_uint256"
      },
      "t_mapping(t_uint256,t_address)": {
        "encoding": "mapping",
        "key": "t_uint256",
        "label": "mapping(uint256 => address)",
        "numberOfBytes": "32",
        "value": "t_address"
      },
      "t_mapping(t_uint256,t_uint256)": {
        "encoding": "mapping",
        "key": "t_uint256",
        "label": "mapping(uint256 => uint256)",
        "numberOfBytes": "32",
        "value": "t_uint256"
      },
      "t_string_storage": {
        "encoding": "bytes",
        "label": "string",
        "numberOfBytes": "32"
      },
      "t_uint256": {
        "encoding": "inplace",
        "label": "uint256",
        "numberOfBytes": "32"
      }
    }
  }
}