{
  "address": "0xD488B5C5f38e507e9d5e1209a06Aa9020B4C509E",
  "abi": [
    {
      "inputs": [
        {
          "internalType": "uint256",
          "name": "tokenId",
          "type": "uint256"
        }
      ],
      "name": "AlreadyMinted",
      "type": "error"
    },
    {
      "inputs": [
        {
          "internalType": "address",
          "name": "sender",
          "type": "address"
        },
        {
          "internalType": "uint256",
          "name": "tokenId",
          "type": "uint256"
        },
        {
          "internalType": "address",
          "name": "owner",
          "type": "address"
        }
      ],
      "name": "ERC721IncorrectOwner",
      "type": "error"
    },
    {
      "inputs": [
        {
          "internalType": "address",
          "name": "operator",
          "type": "address"
        },
        {
          "internalType": "uint256",
          "name": "tokenId",
          "type": "uint256"
        }
      ],
      "name": "ERC721InsufficientApproval",
      "type": "error"
    },
    {
      "inputs": [
        {
          "internalType": "address",
          "name": "approver",
          "type": "address"
        }
      ],
      "name": "ERC721InvalidApprover",
      "type": "error"
    },
    {
      "inputs": [
        {
          "internalType": "address",
          "name": "operator",
          "type": "address"
        }
      ],
      "name": "ERC721InvalidOperator",
      "type": "error"
    },
    {
      "inputs": [
        {
          "internalType": "address",
          "name": "owner",
          "type": "address"
        }
      ],
      "name": "ERC721InvalidOwner",
      "type": "error"
    },
    {
      "inputs": [
        {
          "internalType": "address",
          "name": "receiver",
          "type": "address"
        }
      ],
      "name": "ERC721InvalidReceiver",
      "type": "error"
    },
    {
      "inputs": [
        {
          "internalType": "address",
          "name": "sender",
          "type": "address"
        }
      ],
      "name": "ERC721InvalidSender",
      "type": "error"
    },
    {
      "inputs": [
        {
          "internalType": "uint256",
          "name": "tokenId",
          "type": "uint256"
        }
      ],
      "name": "ERC721NonexistentToken",
      "type": "error"
    },
    {
      "inputs": [],
      "name": "InvalidAddress",
      "type": "error"
    },
    {
      "inputs": [],
      "name": "InvalidArgument",
      "type": "error"
    },
    {
      "inputs": [
        {
          "internalType": "uint256",
          "name": "size",
          "type": "uint256"
        },
        {
          "internalType": "uint256",
          "name": "x",
          "type": "uint256"
        },
        {
          "internalType": "uint256",
          "name": "y",
          "type": "uint256"
        }
      ],
      "name": "InvalidCoordinates",
      "type": "error"
    },
    {
      "inputs": [],
      "name": "InvalidInitialization",
      "type": "error"
    },
    {
      "inputs": [],
      "name": "InvalidLength",
      "type": "error"
    },
    {
      "inputs": [],
      "name": "NotInitializing",
      "type": "error"
    },
    {
      "inputs": [
        {
          "internalType": "uint256",
          "name": "x",
          "type": "uint256"
        },
        {
          "internalType": "uint256",
          "name": "y",
          "type": "uint256"
        }
      ],
      "name": "NotOwner",
      "type": "error"
    },
    {
      "inputs": [],
      "name": "OnlyAdmin",
      "type": "error"
    },
    {
      "inputs": [],
      "name": "OperatorNotAllowed",
      "type": "error"
    },
    {
      "anonymous": false,
      "inputs": [
        {
          "indexed": true,
          "internalType": "address",
          "name": "oldAdmin",
          "type": "address"
        },
        {
          "indexed": true,
          "internalType": "address",
          "name": "newAdmin",
          "type": "address"
        }
      ],
      "name": "AdminChanged",
      "type": "event"
    },
    {
      "anonymous": false,
      "inputs": [
        {
          "indexed": true,
          "internalType": "address",
          "name": "owner",
          "type": "address"
        },
        {
          "indexed": true,
          "internalType": "address",
          "name": "approved",
          "type": "address"
        },
        {
          "indexed": true,
          "internalType": "uint256",
          "name": "tokenId",
          "type": "uint256"
        }
      ],
      "name": "Approval",
      "type": "event"
    },
    {
      "anonymous": false,
      "inputs": [
        {
          "indexed": true,
          "internalType": "address",
          "name": "owner",
          "type": "address"
        },
        {
          "indexed": true,
          "internalType": "address",
          "name": "operator",
          "type": "address"
        },
        {
          "indexed": false,
          "internalType": "bool",
          "name": "approved",
          "type": "bool"
        }
      ],
      "name": "ApprovalForAll",
      "type": "event"
    },
    {
      "anonymous": false,
      "inputs": [
        {
          "indexed": true,
          "internalType": "address",
          "name": "subscriptionOrRegistrant",
          "type": "address"
        },
        {
          "indexed": false,
          "internalType": "bool",
          "name": "subscribe",
          "type": "bool"
        }
      ],
      "name": "ContractRegistered",
      "type": "event"
    },
    {
      "anonymous": false,
      "inputs": [
        {
          "indexed": false,
          "internalType": "uint64",
          "name": "version",
          "type": "uint64"
        }
      ],
      "name": "Initialized",
      "type": "event"
    },
    {
      "anonymous": false,
      "inputs": [
        {
          "indexed": true,
          "internalType": "address",
          "name": "metadataRegistry",
          "type": "address"
        }
      ],
      "name": "MetadataRegistrySet",
      "type": "event"
    },
    {
      "anonymous": false,
      "inputs": [
        {
          "indexed": true,
          "internalType": "address",
          "name": "minter",
          "type": "address"
        },
        {
          "indexed": false,
          "internalType": "bool",
          "name": "enabled",
          "type": "bool"
        }
      ],
      "name": "Minter",
      "type": "event"
    },
    {
      "anonymous": false,
      "inputs": [
        {
          "indexed": true,
          "internalType": "contract IOperatorFilterRegistry",
          "name": "registry",
          "type": "address"
        }
      ],
      "name": "OperatorRegistrySet",
      "type": "event"
    },
    {
      "anonymous": false,
      "inputs": [
        {
          "indexed": true,
          "internalType": "address",
          "name": "previousOwner",
          "type": "address"
        },
        {
          "indexed": true,
          "internalType": "address",
          "name": "newOwner",
          "type": "address"
        }
      ],
      "name": "OwnershipTransferred",
      "type": "event"
    },
    {
      "anonymous": false,
      "inputs": [
        {
          "indexed": true,
          "internalType": "address",
          "name": "royaltyManager",
          "type": "address"
        }
      ],
      "name": "RoyaltyManagerSet",
      "type": "event"
    },
    {
      "anonymous": false,
      "inputs": [
        {
          "indexed": true,
          "internalType": "address",
          "name": "superOperator",
          "type": "address"
        },
        {
          "indexed": true,
          "internalType": "bool",
          "name": "enabled",
          "type": "bool"
        }
      ],
      "name": "SuperOperator",
      "type": "event"
    },
    {
      "anonymous": false,
      "inputs": [
        {
          "indexed": true,
          "internalType": "address",
          "name": "from",
          "type": "address"
        },
        {
          "indexed": true,
          "internalType": "address",
          "name": "to",
          "type": "address"
        },
        {
          "indexed": true,
          "internalType": "uint256",
          "name": "tokenId",
          "type": "uint256"
        }
      ],
      "name": "Transfer",
      "type": "event"
    },
    {
      "inputs": [
        {
          "internalType": "address",
          "name": "operator",
          "type": "address"
        },
        {
          "internalType": "uint256",
          "name": "tokenId",
          "type": "uint256"
        }
      ],
      "name": "approve",
      "outputs": [],
      "stateMutability": "nonpayable",
      "type": "function"
    },
    {
      "inputs": [
        {
          "internalType": "address",
          "name": "sender",
          "type": "address"
        },
        {
          "internalType": "address",
          "name": "operator",
          "type": "address"
        },
        {
          "internalType": "uint256",
          "name": "tokenId",
          "type": "uint256"
        }
      ],
      "name": "approveFor",
      "outputs": [],
      "stateMutability": "nonpayable",
      "type": "function"
    },
    {
      "inputs": [
        {
          "internalType": "address",
          "name": "owner",
          "type": "address"
        }
      ],
      "name": "balanceOf",
      "outputs": [
        {
          "internalType": "uint256",
          "name": "",
          "type": "uint256"
        }
      ],
      "stateMutability": "view",
      "type": "function"
    },
    {
      "inputs": [
        {
          "internalType": "address",
          "name": "from",
          "type": "address"
        },
        {
          "internalType": "address",
          "name": "to",
          "type": "address"
        },
        {
          "internalType": "uint256[]",
          "name": "ids",
          "type": "uint256[]"
        },
        {
          "internalType": "bytes",
          "name": "data",
          "type": "bytes"
        }
      ],
      "name": "batchTransferFrom",
      "outputs": [],
      "stateMutability": "nonpayable",
      "type": "function"
    },
    {
      "inputs": [
        {
          "internalType": "address",
          "name": "from",
          "type": "address"
        },
        {
          "internalType": "address",
          "name": "to",
          "type": "address"
        },
        {
          "internalType": "uint256[]",
          "name": "sizes",
          "type": "uint256[]"
        },
        {
          "internalType": "uint256[]",
          "name": "xs",
          "type": "uint256[]"
        },
        {
          "internalType": "uint256[]",
          "name": "ys",
          "type": "uint256[]"
        },
        {
          "internalType": "bytes",
          "name": "data",
          "type": "bytes"
        }
      ],
      "name": "batchTransferQuad",
      "outputs": [],
      "stateMutability": "nonpayable",
      "type": "function"
    },
    {
      "inputs": [
        {
          "internalType": "address",
          "name": "newAdmin",
          "type": "address"
        }
      ],
      "name": "changeAdmin",
      "outputs": [],
      "stateMutability": "nonpayable",
      "type": "function"
    },
    {
      "inputs": [
        {
          "internalType": "uint256",
          "name": "size",
          "type": "uint256"
        },
        {
          "internalType": "uint256",
          "name": "x",
          "type": "uint256"
        },
        {
          "internalType": "uint256",
          "name": "y",
          "type": "uint256"
        }
      ],
      "name": "exists",
      "outputs": [
        {
          "internalType": "bool",
          "name": "",
          "type": "bool"
        }
      ],
      "stateMutability": "view",
      "type": "function"
    },
    {
      "inputs": [],
      "name": "getAdmin",
      "outputs": [
        {
          "internalType": "address",
          "name": "",
          "type": "address"
        }
      ],
      "stateMutability": "view",
      "type": "function"
    },
    {
      "inputs": [
        {
          "internalType": "uint256",
          "name": "tokenId",
          "type": "uint256"
        }
      ],
      "name": "getApproved",
      "outputs": [
        {
          "internalType": "address",
          "name": "",
          "type": "address"
        }
      ],
      "stateMutability": "view",
      "type": "function"
    },
    {
      "inputs": [
        {
          "internalType": "uint256",
          "name": "tokenId",
          "type": "uint256"
        }
      ],
      "name": "getMetadata",
      "outputs": [
        {
          "internalType": "bool",
          "name": "",
          "type": "bool"
        },
        {
          "internalType": "uint256",
          "name": "",
          "type": "uint256"
        },
        {
          "internalType": "string",
          "name": "",
          "type": "string"
        }
      ],
      "stateMutability": "view",
      "type": "function"
    },
    {
      "inputs": [],
      "name": "getMetadataRegistry",
      "outputs": [
        {
          "internalType": "contract ILandMetadataRegistry",
          "name": "",
          "type": "address"
        }
      ],
      "stateMutability": "view",
      "type": "function"
    },
    {
      "inputs": [
        {
          "internalType": "uint256",
          "name": "tokenId",
          "type": "uint256"
        }
      ],
      "name": "getNeighborhoodId",
      "outputs": [
        {
          "internalType": "uint256",
          "name": "",
          "type": "uint256"
        }
      ],
      "stateMutability": "view",
      "type": "function"
    },
    {
      "inputs": [
        {
          "internalType": "uint256",
          "name": "tokenId",
          "type": "uint256"
        }
      ],
      "name": "getOwnerData",
      "outputs": [
        {
          "internalType": "uint256",
          "name": "",
          "type": "uint256"
        }
      ],
      "stateMutability": "view",
      "type": "function"
    },
    {
      "inputs": [],
      "name": "getRoyaltyManager",
      "outputs": [
        {
          "internalType": "contract IRoyaltyManager",
          "name": "",
          "type": "address"
        }
      ],
      "stateMutability": "view",
      "type": "function"
    },
    {
      "inputs": [
        {
          "internalType": "uint256",
          "name": "tokenId",
          "type": "uint256"
        }
      ],
      "name": "getX",
      "outputs": [
        {
          "internalType": "uint256",
          "name": "",
          "type": "uint256"
        }
      ],
      "stateMutability": "pure",
      "type": "function"
    },
    {
      "inputs": [
        {
          "internalType": "uint256",
          "name": "tokenId",
          "type": "uint256"
        }
      ],
      "name": "getY",
      "outputs": [
        {
          "internalType": "uint256",
          "name": "",
          "type": "uint256"
        }
      ],
      "stateMutability": "pure",
      "type": "function"
    },
    {
      "inputs": [],
      "name": "height",
      "outputs": [
        {
          "internalType": "uint256",
          "name": "",
          "type": "uint256"
        }
      ],
      "stateMutability": "pure",
      "type": "function"
    },
    {
      "inputs": [
        {
          "internalType": "address",
          "name": "admin",
          "type": "address"
        }
      ],
      "name": "initialize",
      "outputs": [],
      "stateMutability": "nonpayable",
      "type": "function"
    },
    {
      "inputs": [
        {
          "internalType": "address",
          "name": "owner",
          "type": "address"
        },
        {
          "internalType": "address",
          "name": "operator",
          "type": "address"
        }
      ],
      "name": "isApprovedForAll",
      "outputs": [
        {
          "internalType": "bool",
          "name": "",
          "type": "bool"
        }
      ],
      "stateMutability": "view",
      "type": "function"
    },
    {
      "inputs": [
        {
          "internalType": "address",
          "name": "who",
          "type": "address"
        }
      ],
      "name": "isMinter",
      "outputs": [
        {
          "internalType": "bool",
          "name": "",
          "type": "bool"
        }
      ],
      "stateMutability": "view",
      "type": "function"
    },
    {
      "inputs": [
        {
          "internalType": "uint256",
          "name": "tokenId",
          "type": "uint256"
        }
      ],
      "name": "isPremium",
      "outputs": [
        {
          "internalType": "bool",
          "name": "",
          "type": "bool"
        }
      ],
      "stateMutability": "view",
      "type": "function"
    },
    {
      "inputs": [
        {
          "internalType": "address",
          "name": "superOperator",
          "type": "address"
        }
      ],
      "name": "isSuperOperator",
      "outputs": [
        {
          "internalType": "bool",
          "name": "",
          "type": "bool"
        }
      ],
      "stateMutability": "view",
      "type": "function"
    },
    {
      "inputs": [
        {
          "internalType": "address",
          "name": "to",
          "type": "address"
        },
        {
          "internalType": "uint256",
          "name": "size",
          "type": "uint256"
        },
        {
          "internalType": "uint256",
          "name": "x",
          "type": "uint256"
        },
        {
          "internalType": "uint256",
          "name": "y",
          "type": "uint256"
        },
        {
          "internalType": "bytes",
          "name": "data",
          "type": "bytes"
        }
      ],
      "name": "mintAndTransferQuad",
      "outputs": [],
      "stateMutability": "nonpayable",
      "type": "function"
    },
    {
      "inputs": [
        {
          "internalType": "address",
          "name": "to",
          "type": "address"
        },
        {
          "internalType": "uint256",
          "name": "size",
          "type": "uint256"
        },
        {
          "internalType": "uint256",
          "name": "x",
          "type": "uint256"
        },
        {
          "internalType": "uint256",
          "name": "y",
          "type": "uint256"
        },
        {
          "internalType": "bytes",
          "name": "data",
          "type": "bytes"
        }
      ],
      "name": "mintQuad",
      "outputs": [],
      "stateMutability": "nonpayable",
      "type": "function"
    },
    {
      "inputs": [],
      "name": "name",
      "outputs": [
        {
          "internalType": "string",
          "name": "",
          "type": "string"
        }
      ],
      "stateMutability": "pure",
      "type": "function"
    },
    {
      "inputs": [],
      "name": "operatorFilterRegistry",
      "outputs": [
        {
          "internalType": "contract IOperatorFilterRegistry",
          "name": "",
          "type": "address"
        }
      ],
      "stateMutability": "view",
      "type": "function"
    },
    {
      "inputs": [],
      "name": "owner",
      "outputs": [
        {
          "internalType": "address",
          "name": "",
          "type": "address"
        }
      ],
      "stateMutability": "view",
      "type": "function"
    },
    {
      "inputs": [
        {
          "internalType": "uint256",
          "name": "tokenId",
          "type": "uint256"
        }
      ],
      "name": "ownerOf",
      "outputs": [
        {
          "internalType": "address",
          "name": "owner",
          "type": "address"
        }
      ],
      "stateMutability": "view",
      "type": "function"
    },
    {
      "inputs": [
        {
          "internalType": "address",
          "name": "subscriptionOrRegistrantToCopy",
          "type": "address"
        },
        {
          "internalType": "bool",
          "name": "subscribe",
          "type": "bool"
        }
      ],
      "name": "register",
      "outputs": [],
      "stateMutability": "nonpayable",
      "type": "function"
    },
    {
      "inputs": [
        {
          "internalType": "uint256",
          "name": "",
          "type": "uint256"
        },
        {
          "internalType": "uint256",
          "name": "salePrice",
          "type": "uint256"
        }
      ],
      "name": "royaltyInfo",
      "outputs": [
        {
          "internalType": "address",
          "name": "receiver",
          "type": "address"
        },
        {
          "internalType": "uint256",
          "name": "royaltyAmount",
          "type": "uint256"
        }
      ],
      "stateMutability": "view",
      "type": "function"
    },
    {
      "inputs": [
        {
          "internalType": "address",
          "name": "from",
          "type": "address"
        },
        {
          "internalType": "address",
          "name": "to",
          "type": "address"
        },
        {
          "internalType": "uint256[]",
          "name": "ids",
          "type": "uint256[]"
        },
        {
          "internalType": "bytes",
          "name": "data",
          "type": "bytes"
        }
      ],
      "name": "safeBatchTransferFrom",
      "outputs": [],
      "stateMutability": "nonpayable",
      "type": "function"
    },
    {
      "inputs": [
        {
          "internalType": "address",
          "name": "from",
          "type": "address"
        },
        {
          "internalType": "address",
          "name": "to",
          "type": "address"
        },
        {
          "internalType": "uint256",
          "name": "tokenId",
          "type": "uint256"
        }
      ],
      "name": "safeTransferFrom",
      "outputs": [],
      "stateMutability": "nonpayable",
      "type": "function"
    },
    {
      "inputs": [
        {
          "internalType": "address",
          "name": "from",
          "type": "address"
        },
        {
          "internalType": "address",
          "name": "to",
          "type": "address"
        },
        {
          "internalType": "uint256",
          "name": "tokenId",
          "type": "uint256"
        },
        {
          "internalType": "bytes",
          "name": "data",
          "type": "bytes"
        }
      ],
      "name": "safeTransferFrom",
      "outputs": [],
      "stateMutability": "nonpayable",
      "type": "function"
    },
    {
      "inputs": [
        {
          "internalType": "address",
          "name": "operator",
          "type": "address"
        },
        {
          "internalType": "bool",
          "name": "approved",
          "type": "bool"
        }
      ],
      "name": "setApprovalForAll",
      "outputs": [],
      "stateMutability": "nonpayable",
      "type": "function"
    },
    {
      "inputs": [
        {
          "internalType": "address",
          "name": "sender",
          "type": "address"
        },
        {
          "internalType": "address",
          "name": "operator",
          "type": "address"
        },
        {
          "internalType": "bool",
          "name": "approved",
          "type": "bool"
        }
      ],
      "name": "setApprovalForAllFor",
      "outputs": [],
      "stateMutability": "nonpayable",
      "type": "function"
    },
    {
      "inputs": [
        {
          "internalType": "address",
          "name": "metadataRegistry",
          "type": "address"
        }
      ],
      "name": "setMetadataRegistry",
      "outputs": [],
      "stateMutability": "nonpayable",
      "type": "function"
    },
    {
      "inputs": [
        {
          "internalType": "address",
          "name": "minter",
          "type": "address"
        },
        {
          "internalType": "bool",
          "name": "enabled",
          "type": "bool"
        }
      ],
      "name": "setMinter",
      "outputs": [],
      "stateMutability": "nonpayable",
      "type": "function"
    },
    {
      "inputs": [
        {
          "internalType": "contract IOperatorFilterRegistry",
          "name": "registry",
          "type": "address"
        }
      ],
      "name": "setOperatorRegistry",
      "outputs": [],
      "stateMutability": "nonpayable",
      "type": "function"
    },
    {
      "inputs": [
        {
          "internalType": "address",
          "name": "royaltyManager",
          "type": "address"
        }
      ],
      "name": "setRoyaltyManager",
      "outputs": [],
      "stateMutability": "nonpayable",
      "type": "function"
    },
    {
      "inputs": [
        {
          "internalType": "address",
          "name": "superOperator",
          "type": "address"
        },
        {
          "internalType": "bool",
          "name": "enabled",
          "type": "bool"
        }
      ],
      "name": "setSuperOperator",
      "outputs": [],
      "stateMutability": "nonpayable",
      "type": "function"
    },
    {
      "inputs": [
        {
          "internalType": "bytes4",
          "name": "interfaceId",
          "type": "bytes4"
        }
      ],
      "name": "supportsInterface",
      "outputs": [
        {
          "internalType": "bool",
          "name": "",
          "type": "bool"
        }
      ],
      "stateMutability": "pure",
      "type": "function"
    },
    {
      "inputs": [],
      "name": "symbol",
      "outputs": [
        {
          "internalType": "string",
          "name": "",
          "type": "string"
        }
      ],
      "stateMutability": "pure",
      "type": "function"
    },
    {
      "inputs": [
        {
          "internalType": "uint256",
          "name": "tokenId",
          "type": "uint256"
        }
      ],
      "name": "tokenURI",
      "outputs": [
        {
          "internalType": "string",
          "name": "",
          "type": "string"
        }
      ],
      "stateMutability": "view",
      "type": "function"
    },
    {
      "inputs": [
        {
          "internalType": "address",
          "name": "from",
          "type": "address"
        },
        {
          "internalType": "address",
          "name": "to",
          "type": "address"
        },
        {
          "internalType": "uint256",
          "name": "tokenId",
          "type": "uint256"
        }
      ],
      "name": "transferFrom",
      "outputs": [],
      "stateMutability": "nonpayable",
      "type": "function"
    },
    {
      "inputs": [
        {
          "internalType": "address",
          "name": "newOwner",
          "type": "address"
        }
      ],
      "name": "transferOwnership",
      "outputs": [],
      "stateMutability": "nonpayable",
      "type": "function"
    },
    {
      "inputs": [
        {
          "internalType": "address",
          "name": "from",
          "type": "address"
        },
        {
          "internalType": "address",
          "name": "to",
          "type": "address"
        },
        {
          "internalType": "uint256",
          "name": "size",
          "type": "uint256"
        },
        {
          "internalType": "uint256",
          "name": "x",
          "type": "uint256"
        },
        {
          "internalType": "uint256",
          "name": "y",
          "type": "uint256"
        },
        {
          "internalType": "bytes",
          "name": "data",
          "type": "bytes"
        }
      ],
      "name": "transferQuad",
      "outputs": [],
      "stateMutability": "nonpayable",
      "type": "function"
    },
    {
      "inputs": [],
      "name": "width",
      "outputs": [
        {
          "internalType": "uint256",
          "name": "",
          "type": "uint256"
        }
      ],
      "stateMutability": "pure",
      "type": "function"
    }
  ],
  "transactionHash": "0x6c219926a4c6b2ecf29c9bbe315dd748d1efaa02a47fc2481fb18faf81199e4a",
  "args": [],
  "numDeployments": 4,
  "solcInputHash": "f02626537b0dc847741d4d28935b6a2d",
  "bytecode": "0x60806040523480156200001157600080fd5b506200001c62000022565b620000d6565b7ff0c57e16840df040f15088dc2f81fe391c3923bec73e23a9662efc9c229c6a00805468010000000000000000900460ff1615620000735760405163f92ee8a960e01b815260040160405180910390fd5b80546001600160401b0390811614620000d35780546001600160401b0319166001600160401b0390811782556040519081527fc7f505b2f371ae2175ee4913f4499e1f2633a7b5936321eed1cdaeb6115181d29060200160405180910390a15b50565b614c3580620000e66000396000f3fe608060405234801561001057600080fd5b50600436106103155760003560e01c8063845a4697116101a7578063aa271e1a116100ee578063c87b56dd11610097578063eaa5e06711610071578063eaa5e067146106ce578063eeb5a5d1146106e1578063f2fde38b146106f457600080fd5b8063c87b56dd14610695578063cf456ae7146106a8578063e985e9c5146106bb57600080fd5b8063b0ccc31e116100c8578063b0ccc31e14610667578063b88d4fde1461066f578063c4d66de81461068257600080fd5b8063aa271e1a1461062e578063ab01b46914610641578063ac9fe4211461065457600080fd5b80639a1b2fb4116101505780639ededf771161012a5780639ededf77146103d7578063a22cb465146105f9578063a574cea41461060c57600080fd5b80639a1b2fb4146105d65780639a7ac313146105de5780639d28fb86146105e657600080fd5b80638f283970116101815780638f2839701461057757806395c671d81461058a57806395d89b411461059d57600080fd5b8063845a4697146105495780638da5cb5b1461055c5780638e5cb5f61461056457600080fd5b80632b9917461161026b57806355064d85116102145780636e1e3bbf116101ee5780636e1e3bbf146105125780636e9960c31461052557806370a082311461053657600080fd5b806355064d85146104d95780636352211e146104ec578063654b748a146104ff57600080fd5b8063468ad0a611610245578063468ad0a6146104a05780634e6a0f44146104b357806350cf5a31146104c657600080fd5b80632b9917461461046757806338bb305a1461047a57806342842e0e1461048d57600080fd5b80630ef26743116102cd57806328cfbd46116102a757806328cfbd461461040f5780632a55205a146104225780632b26a4071461045457600080fd5b80630ef26743146103d757806315ddc535146103e957806323b872dd146103fc57600080fd5b806306fdde03116102fe57806306fdde0314610355578063081812fc14610397578063095ea7b3146103c257600080fd5b806301ffc9a71461031a578063029bca7814610342575b600080fd5b61032d610328366004614204565b610707565b60405190151581526020015b60405180910390f35b61032d610350366004614221565b610910565b60408051808201909152600f81527f53616e64626f782773204c414e4473000000000000000000000000000000000060208201525b604051610339919061428a565b6103aa6103a5366004614221565b6109d5565b6040516001600160a01b039091168152602001610339565b6103d56103d03660046142bd565b610a38565b005b6101985b604051908152602001610339565b6103d56103f7366004614370565b610a53565b6103d561040a366004614405565b610aba565b6103d561041d366004614370565b610ae6565b610435610430366004614446565b610b47565b604080516001600160a01b039093168352602083019190915201610339565b6103db610462366004614221565b610c1f565b6103d5610475366004614405565b610cdd565b6103d5610488366004614468565b610cf3565b6103d561049b366004614405565b610dfc565b6103d56104ae3660046144ee565b610e32565b6103d56104c136600461450b565b610e69565b6103d56104d43660046144ee565b610f92565b61032d6104e736600461456c565b610fc6565b6103aa6104fa366004614221565b610ff3565b61032d61050d3660046144ee565b61102f565b6103d561052036600461465d565b61103a565b6000546001600160a01b03166103aa565b6103db6105443660046144ee565b611092565b6103db610557366004614221565b6110c7565b6103aa6110d2565b6103db610572366004614221565b611107565b6103d56105853660046144ee565b611112565b6103db610598366004614221565b611146565b60408051808201909152600481527f4c414e4400000000000000000000000000000000000000000000000000000000602082015261038a565b6103aa611151565b6103aa61117a565b6103d56105f43660046144ee565b6111a3565b6103d56106073660046146d8565b6111d7565b61061f61061a366004614221565b6111ed565b60405161033993929190614711565b61032d61063c3660046144ee565b6112fc565b6103d561064f3660046146d8565b611307565b6103d56106623660046146d8565b611367565b6103aa61139c565b6103d561067d366004614732565b6113a6565b6103d56106903660046144ee565b6113d4565b61038a6106a3366004614221565b61156a565b6103d56106b63660046146d8565b6115d0565b61032d6106c936600461479e565b611605565b6103d56106dc3660046147cc565b611611565b6103d56106ef3660046148b4565b61191c565b6103d56107023660046144ee565b611932565b60006001600160e01b031982167f80ac58cd00000000000000000000000000000000000000000000000000000000148061076a57506001600160e01b031982167f3d12787300000000000000000000000000000000000000000000000000000000145b8061079e57506001600160e01b031982167f5b5e139f00000000000000000000000000000000000000000000000000000000145b806107d257506001600160e01b031982167f01ffc9a700000000000000000000000000000000000000000000000000000000145b8061080657506001600160e01b031982167f7f5828d000000000000000000000000000000000000000000000000000000000145b8061083a57506001600160e01b031982167f2a55205a00000000000000000000000000000000000000000000000000000000145b8061086e57506001600160e01b031982167f3b18763a00000000000000000000000000000000000000000000000000000000145b806108a257506001600160e01b031982167fe906a60700000000000000000000000000000000000000000000000000000000145b806108d657506001600160e01b031982167fd21ed03d00000000000000000000000000000000000000000000000000000000145b8061090a57506001600160e01b031982167f519cd8d900000000000000000000000000000000000000000000000000000000145b92915050565b7f3899f13de39885dfce849839be8330453b5866928dd0e5933e36794349628400546000906001600160a01b03168061094c5750600092915050565b6040517f029bca78000000000000000000000000000000000000000000000000000000008152600481018490526001600160a01b0382169063029bca7890602401602060405180830381865afa1580156109aa573d6000803e3d6000fd5b505050506040513d601f19601f820116820180604052508101906109ce91906148ff565b9392505050565b60008060006109e384611966565b90925090506001600160a01b038216610a1757604051637e27328960e01b8152600481018590526024015b60405180910390fd5b8015610a2e57610a2684611a43565b949350505050565b5060009392505050565b81610a433082611a60565b610a4e338484611b79565b505050565b856001600160a01b0381163314610a6e57610a6e3033611a60565b610ab18787878787878080601f01602080910402602001604051908101604052809392919081815260200183838082843760009201829052509250611c8f915050565b50505050505050565b826001600160a01b0381163314610ad557610ad53033611a60565b610ae0848484611eee565b50505050565b856001600160a01b0381163314610b0157610b013033611a60565b610ab18787878787878080601f01602080910402602001604051908101604052809392919081815260200183838082843760009201919091525060019250611c8f915050565b7ff7bae505580fc5d233bb20f4fb93f39f43d44ecc81ed63dd6455097b4c4550008054604080517fa86a28d100000000000000000000000000000000000000000000000000000000815281516000948594909385936001600160a01b039092169263a86a28d19260048082019392918290030181865afa158015610bcf573d6000803e3d6000fd5b505050506040513d601f19601f82011682018060405250810190610bf3919061491c565b9094509050612710610c0961ffff831687614968565b610c139190614995565b925050505b9250929050565b7f3899f13de39885dfce849839be8330453b5866928dd0e5933e36794349628400546000906001600160a01b031680610c5b5750600092915050565b6040517f2b26a407000000000000000000000000000000000000000000000000000000008152600481018490526001600160a01b03821690632b26a40790602401602060405180830381865afa158015610cb9573d6000803e3d6000fd5b505050506040513d601f19601f820116820180604052508101906109ce91906149a9565b81610ce83082611a60565b610ae0848484611b79565b336001600160a01b0388161580610d1157506001600160a01b038716155b15610d2f5760405163e6c4247b60e01b815260040160405180910390fd5b876001600160a01b0316816001600160a01b031614158015610d585750610d568882611f3a565b155b15610d81576040516322718ad960e21b81526001600160a01b0382166004820152602401610a0e565b610d8c868686611f55565b610d998888888888612067565b610dad8888610da88980614968565b6121af565b610df281898989898989898080601f0160208091040260200160405190810160405280939291908181526020018383808284376000920191909152506121dc92505050565b5050505050505050565b826001600160a01b0381163314610e1757610e173033611a60565b610ae0848484604051806020016040528060008152506122a2565b6000546001600160a01b03163314610e5d57604051634755657960e01b815260040160405180910390fd5b610e66816122cc565b50565b33610e7381612369565b610e9b576040516322718ad960e21b81526001600160a01b0382166004820152602401610a0e565b6001600160a01b038716610ec25760405163e6c4247b60e01b815260040160405180910390fd5b610ecd868686611f55565b6000610eda87878761238a565b6001600160a01b031614610f4e57610ef58188888888612067565b610f048188610da88980614968565b610f4981828989898989898080601f0160208091040260200160405190810160405280939291908181526020018383808284376000920191909152506121dc92505050565b610ab1565b610ab1818888888888888080601f01602080910402602001604051908101604052809392919081815260200183838082843760009201919091525061242192505050565b6000546001600160a01b03163314610fbd57604051634755657960e01b815260040160405180910390fd5b610e66816126ff565b6000610fd3848484611f55565b6000610fe085858561238a565b6001600160a01b03161415949350505050565b6000610ffe82612775565b90506001600160a01b03811661102a57604051637e27328960e01b815260048101839052602401610a0e565b919050565b600061090a82612787565b3361104481612369565b61106c576040516322718ad960e21b81526001600160a01b0382166004820152602401610a0e565b611077858585611f55565b6110858187878787876127a8565b505050505050565b905090565b60006001600160a01b0382166110be576040516322718ad960e21b815260006004820152602401610a0e565b61090a826128c7565b600061090a826128e5565b6000807f1836e2fa424a35b79c13fd66f8e282cb3a31513f9610d6e7a99baf7ffe56ec005b546001600160a01b031692915050565b600061090a82612914565b6000546001600160a01b0316331461113d57604051634755657960e01b815260040160405180910390fd5b610e6681612943565b600061090a826129a8565b6000807ff7bae505580fc5d233bb20f4fb93f39f43d44ecc81ed63dd6455097b4c4550006110f7565b6000807f3899f13de39885dfce849839be8330453b5866928dd0e5933e367943496284006110f7565b6000546001600160a01b031633146111ce57604051634755657960e01b815260040160405180910390fd5b610e66816129bc565b816111e23082611a60565b610a4e338484612a22565b6000806060817f3899f13de39885dfce849839be8330453b5866928dd0e5933e36794349628400546001600160a01b031690508061126757505060408051808201909152600781527f756e6b6e6f776e000000000000000000000000000000000000000000000000006020820152600092508291506112f5565b6040517fa574cea4000000000000000000000000000000000000000000000000000000008152600481018690526001600160a01b0382169063a574cea490602401600060405180830381865afa1580156112c5573d6000803e3d6000fd5b505050506040513d6000823e601f3d908101601f191682016040526112ed91908101906149c2565b935093509350505b9193909250565b600061090a82612369565b6000546001600160a01b0316331461133257604051634755657960e01b815260040160405180910390fd5b6001600160a01b0382166113595760405163e6c4247b60e01b815260040160405180910390fd5b6113638282612b88565b5050565b6000546001600160a01b0316331461139257604051634755657960e01b815260040160405180910390fd5b6113638282612dca565b600061108d612e71565b836001600160a01b03811633146113c1576113c13033611a60565b6113cd858585856122a2565b5050505050565b7ff0c57e16840df040f15088dc2f81fe391c3923bec73e23a9662efc9c229c6a00805468010000000000000000810460ff16159067ffffffffffffffff1660008115801561141f5750825b905060008267ffffffffffffffff16600114801561143c5750303b155b90508115801561144a575080155b15611481576040517ff92ee8a900000000000000000000000000000000000000000000000000000000815260040160405180910390fd5b84547fffffffffffffffffffffffffffffffffffffffffffffffff000000000000000016600117855583156114cc57845468ff00000000000000001916680100000000000000001785555b6000546001600160a01b03161561150f576040517ff92ee8a900000000000000000000000000000000000000000000000000000000815260040160405180910390fd5b61151886612e85565b831561108557845468ff000000000000000019168555604051600181527fc7f505b2f371ae2175ee4913f4499e1f2633a7b5936321eed1cdaeb6115181d29060200160405180910390a1505050505050565b6060600061157783612775565b6001600160a01b0316036115a157604051637e27328960e01b815260048101839052602401610a0e565b6115aa82612f18565b6040516020016115ba9190614a58565b6040516020818303038152906040529050919050565b6000546001600160a01b031633146115fb57604051634755657960e01b815260040160405180910390fd5b6113638282612fb8565b60006109ce8383611f3a565b6001600160a01b038a16158061162e57506001600160a01b038916155b1561164c5760405163e6c4247b60e01b815260040160405180910390fd5b868514158061165b5750848314155b15611692576040517f947d5a8400000000000000000000000000000000000000000000000000000000815260040160405180910390fd5b336001600160a01b038b1681148015906116b357506116b18b82611f3a565b155b156116dc576040516322718ad960e21b81526001600160a01b0382166004820152602401610a0e565b6000805b8981101561179c5760008b8b838181106116fc576116fc614ac4565b905060200201359050611740818b8b8581811061171b5761171b614ac4565b905060200201358a8a8681811061173457611734614ac4565b90506020020135611f55565b61177d8e8e838d8d8781811061175857611758614ac4565b905060200201358c8c8881811061177157611771614ac4565b90506020020135612067565b6117878180614968565b6117919084614ada565b9250506001016116e0565b506117a88c8c836121af565b60008b6001600160a01b03163b1180156117c657506117c68b613078565b1561190e5760008167ffffffffffffffff8111156117e6576117e6614598565b60405190808252806020026020018201604052801561180f578160200160208202803683370190505b5090506000805b8b8110156118c75760008d8d8381811061183257611832614ac4565b90506020020135905060005b6118488280614968565b8110156118bd5761188b81838f8f8781811061186657611866614ac4565b905060200201358e8e8881811061187f5761187f614ac4565b905060200201356130a4565b85858151811061189d5761189d614ac4565b6020908102919091010152836118b281614aed565b94505060010161183e565b5050600101611816565b5061190b848f8f858a8a8080601f0160208091040260200160405190810160405280939291908181526020018383808284376000920191909152506130d992505050565b50505b505050505050505050505050565b816119273082611a60565b610ae0848484612a22565b6000546001600160a01b0316331461195d57604051634755657960e01b815260040160405180910390fd5b610e668161320f565b6000807fff000000000000000000000000000000000000000000000000000000000000008316156119ad57604051637e27328960e01b815260048101849052602401610a0e565b60006119bb61019885614b07565b905060006119cb61019886614995565b905060006119d8866129a8565b90507401000000000000000000000000000000000000000080821603611a0f5760009450600160ff1b808216149350505050915091565b8015611a2857809450600160ff1b808216149350611a3b565b611a346003848461238a565b9450600093505b505050915091565b6000818152600660205260408120546001600160a01b031661090a565b6000611a6a612e71565b90506001600160a01b0381163b15610a4e576040517fc61711340000000000000000000000000000000000000000000000000000000081526001600160a01b038481166004830152838116602483015282169063c617113490604401602060405180830381865afa925050508015611aff575060408051601f3d908101601f19168201909252611afc918101906148ff565b60015b611b39573d808015611b2d576040519150601f19603f3d011682016040523d82523d6000602084013e611b32565b606091505b5050611b47565b8015611b455750505050565b505b6040517f8a10919300000000000000000000000000000000000000000000000000000000815260040160405180910390fd5b611b838382613296565b503360006001600160a01b038516821480611ba35750611ba38583611f3a565b905080611be7576040517fa9fbf51f0000000000000000000000000000000000000000000000000000000081526001600160a01b0383166004820152602401610a0e565b6001600160a01b038416611c0657611c018386600061335b565b611c47565b611c128386600161335b565b6000838152600660205260409020805473ffffffffffffffffffffffffffffffffffffffff19166001600160a01b0386161790555b82846001600160a01b0316866001600160a01b03167f8c5be1e5ebec7d5bd14f71427d1e84f3dd0314c0f7b2291e5b200ac8c7c3b92560405160405180910390a45050505050565b6001600160a01b0386161580611cac57506001600160a01b038516155b15611cca5760405163e6c4247b60e01b815260040160405180910390fd5b3360006001600160a01b038816821480611ce95750611ce98883611f3a565b90508460005b81811015611e33576000888883818110611d0b57611d0b614ac4565b905060200201359050600080611d2083611966565b91509150816001600160a01b03168d6001600160a01b031614611d61576040516322718ad960e21b81526001600160a01b038e166004820152602401610a0e565b85158015611d925750808015611d905750866001600160a01b0316611d8584611a43565b6001600160a01b0316145b155b15611ddb576040517f177e802f0000000000000000000000000000000000000000000000000000000081526001600160a01b038816600482015260248101849052604401610a0e565b611de7838d600061335b565b828c6001600160a01b03168e6001600160a01b03167fddf252ad1be2c89b69c2b068fc378daa952ba7f163c4a11628f55a4df523b3ef60405160405180910390a4505050600101611cef565b50611e3f8989836121af565b6001600160a01b0388163b15611ee357611e5888613078565b15611ea357611e9e838a8a8a8a808060200260200160405190810160405280939291908181526020018383602002808284376000920191909152508c92506130d9915050565b611ee3565b8315611ee35760005b81811015611ee157611ed9848b8b8b8b86818110611ecc57611ecc614ac4565b905060200201358a6133bd565b600101611eac565b505b505050505050505050565b33611efb818585856134a8565b6000836001600160a01b03163b118015611f195750611f1983613078565b15610ae057610ae081858585604051806020016040528060008152506133bd565b6000611f4683836135e1565b806109ce57506109ce82612787565b82600114158015611f67575082600314155b8015611f74575082600614155b8015611f81575082600c14155b8015611f8e575082601814155b15611fd6576040517f699b5cb0000000000000000000000000000000000000000000000000000000008152600481018490526024810183905260448101829052606401610a0e565b611fe08383614b07565b151580611ff55750611ff28382614b07565b15155b8061200a575061200783610198614b1b565b82115b8061201f575061201c83610198614b1b565b81115b15610a4e576040517f699b5cb0000000000000000000000000000000000000000000000000000000008152600481018490526024810183905260448101829052606401610a0e565b826001036121115761019881028201600061208182612775565b90506001600160a01b0381166120b45760405163c1194ebf60e01b81526004810185905260248101849052604401610a0e565b866001600160a01b0316816001600160a01b0316146120f1576040516322718ad960e21b81526001600160a01b0388166004820152602401610a0e565b5060009081526004602052604090206001600160a01b0385169055612147565b612145858560405180606001604052808681526020018581526020018781525060016002886121409190614995565b613611565b505b60005b6121548480614968565b81101561108557612167818585856130a4565b856001600160a01b0316876001600160a01b03167fddf252ad1be2c89b69c2b068fc378daa952ba7f163c4a11628f55a4df523b3ef60405160405180910390a460010161214a565b816001600160a01b0316836001600160a01b031614610a4e576121d28382613820565b610a4e828261384c565b6000856001600160a01b03163b1180156121fa57506121fa85613078565b15610ab157600061220b8580614968565b67ffffffffffffffff81111561222357612223614598565b60405190808252806020026020018201604052801561224c578160200160208202803683370190505b50905060005b61225c8680614968565b8110156122945761226f818787876130a4565b82828151811061228157612281614ac4565b6020908102919091010152600101612252565b50610df288888884866130d9565b336122af818686866134a8565b6001600160a01b0384163b156113cd576113cd81868686866133bd565b6001600160a01b0381166122f35760405163e6c4247b60e01b815260040160405180910390fd5b7f3899f13de39885dfce849839be8330453b5866928dd0e5933e36794349628400805473ffffffffffffffffffffffffffffffffffffffff19166001600160a01b03831690811782556040517f03ce93da23cc307353ca8a7aac205697bd48963ee54982eacb40dd9d40a1d72990600090a25050565b6001600160a01b03811660009081526039602052604081205460ff1661090a565b600080600061239886613878565b50909250905060006123db61059884896123b2818b614995565b6123bc9190614968565b8a6123c7818b614995565b6123d19190614968565b6101980291010190565b90506001600160a01b038116156123f65792506109ce915050565b60188710156124145761240a82878761238a565b93505050506109ce565b5060009695505050505050565b600061242c85613878565b5050905060006124428286866101980291010190565b604080518181526108208101825291925060009190816020015b61248060405180606001604052806000815260200160008152602001600081525090565b81526020019060019003908161245c57905050905060008060038911156124db576124d58b60405180606001604052808b81526020018a81526020018c81525085848660028f6124d09190614995565b6139bd565b90925090505b60005b6124e88a80614968565b8110156126a95760006124fd828c8c8c6130a4565b9050600061253786604051806060016040528061251986612914565b8152602001612527866128e5565b8152602001600181525087613b73565b9050801561258557818d6001600160a01b03168f6001600160a01b03167fddf252ad1be2c89b69c2b068fc378daa952ba7f163c4a11628f55a4df523b3ef60405160405180910390a461269f565b8d6001600160a01b031661259883611146565b6001600160a01b03160361263c5760006125b183611a43565b6001600160a01b0316146125e9576000828152600660205260409020805473ffffffffffffffffffffffffffffffffffffffff191690555b6125f4600185614ada565b9350818d6001600160a01b03168f6001600160a01b03167fddf252ad1be2c89b69c2b068fc378daa952ba7f163c4a11628f55a4df523b3ef60405160405180910390a461269f565b612645826129a8565b15612666576040516314b27b7f60e31b815260048101839052602401610a0e565b60405182906001600160a01b038f16906000907fddf252ad1be2c89b69c2b068fc378daa952ba7f163c4a11628f55a4df523b3ef908290a45b50506001016124de565b506126bb8b8484848e8e8e8e8e613c2c565b60008481526004602052604090206001600160a01b038b1690556126e88a6126e38b80614968565b61384c565b6126f28b82613820565b5050505050505050505050565b7ff7bae505580fc5d233bb20f4fb93f39f43d44ecc81ed63dd6455097b4c455000805473ffffffffffffffffffffffffffffffffffffffff19166001600160a01b03831690811782556040517f1ad03d64d67ed9b2c90cfdf8dc8e54de3e41af88ae55e45a53dc27e476406de890600090a25050565b600061278082611966565b5092915050565b6001600160a01b03811660009081526001602052604081205460ff1661090a565b6001600160a01b0385166127cf5760405163e6c4247b60e01b815260040160405180910390fd5b60006127da85613878565b5050905060006127f08286866101980291010190565b90506127ff8686866018613e7d565b60005b61280c8780614968565b81101561288e576000612821828989896130a4565b905061282c816129a8565b1561284d576040516314b27b7f60e31b815260048101829052602401610a0e565b60405181906001600160a01b038b16906000907fddf252ad1be2c89b69c2b068fc378daa952ba7f163c4a11628f55a4df523b3ef908290a450600101612802565b5060008181526004602052604090206001600160a01b03881690556128b7876126e38880614968565b610df288600089898989896121dc565b6001600160a01b03811660009081526003602052604081205461090a565b600061090a6101987effffffffffffffffffffffffffffffffffffffffffffffffffffffffffffff8416614995565b600061090a6101987effffffffffffffffffffffffffffffffffffffffffffffffffffffffffffff8416614b07565b6000546001600160a01b03168061296d5760405163e6c4247b60e01b815260040160405180910390fd5b816001600160a01b0316816001600160a01b03160361299f5760405163a9cb9e0d60e01b815260040160405180910390fd5b61136382612e85565b60008181526004602052604081205461090a565b6129eb81603a805473ffffffffffffffffffffffffffffffffffffffff19166001600160a01b03831617905550565b6040516001600160a01b038216907fc6df119c56c99171b170652a3c4750ba46dcaacbdb3b7ab4847a9fa339659bd490600090a250565b6001600160a01b038316612a6d576040517f73c6ac6e0000000000000000000000000000000000000000000000000000000081526001600160a01b0384166004820152602401610a0e565b336001600160a01b0384168114801590612a8d5750612a8b81612787565b155b15612acf576040517fa9fbf51f0000000000000000000000000000000000000000000000000000000081526001600160a01b0382166004820152602401610a0e565b612ad883612787565b15612b1a576040517f5b08ba180000000000000000000000000000000000000000000000000000000081526001600160a01b0384166004820152602401610a0e565b6001600160a01b03848116600081815260056020908152604080832094881680845294825291829020805460ff191687151590811790915591519182527f17307eab39ab6107e8899845ad3d59bd9653f200f220920489ca2b5937696c31910160405180910390a350505050565b6000612b92612e71565b90506001600160a01b0381163b15612d80576040517fc3c5a5470000000000000000000000000000000000000000000000000000000081523060048201526001600160a01b0382169063c3c5a547906024016020604051808303816000875af1158015612c03573d6000803e3d6000fd5b505050506040513d601f19601f82011682018060405250810190612c2791906148ff565b612d80578115612cb1576040517f7d3e3dbe0000000000000000000000000000000000000000000000000000000081523060048201526001600160a01b038481166024830152821690637d3e3dbe906044015b600060405180830381600087803b158015612c9457600080fd5b505af1158015612ca8573d6000803e3d6000fd5b50505050612d80565b6001600160a01b03831615612d0d576040517fa0af29030000000000000000000000000000000000000000000000000000000081523060048201526001600160a01b03848116602483015282169063a0af290390604401612c7a565b6040517f4420e4860000000000000000000000000000000000000000000000000000000081523060048201526001600160a01b03821690634420e48690602401600060405180830381600087803b158015612d6757600080fd5b505af1158015612d7b573d6000803e3d6000fd5b505050505b826001600160a01b03167f3c7a9c847c035e45b84027e44ad55724873d5921b3a6abb8c0926b415d9241b183604051612dbd911515815260200190565b60405180910390a2505050565b6001600160a01b038216612df15760405163e6c4247b60e01b815260040160405180910390fd5b612dfa82612787565b151581151503612e1d5760405163a9cb9e0d60e01b815260040160405180910390fd5b6001600160a01b038216600081815260016020526040808220805460ff191685151590811790915590519092917f44f92d27abdf4cfb6a7d712c3af68f3be086d4ca747ab802c36f67d6790060d891a35050565b600061108d603a546001600160a01b031690565b6001600160a01b038116612eac5760405163e6c4247b60e01b815260040160405180910390fd5b600080546040516001600160a01b03918216929184169183917f7e644d79422f17c01e4894b5f4f588d331ebfa28653d42ae832dc59e38c9798f9190a3611363826000805473ffffffffffffffffffffffffffffffffffffffff19166001600160a01b03831617905550565b60606000612f2583613f97565b600101905060008167ffffffffffffffff811115612f4557612f45614598565b6040519080825280601f01601f191660200182016040528015612f6f576020820181803683370190505b5090508181016020015b600019017f3031323334353637383961626364656600000000000000000000000000000000600a86061a8153600a8504945084612f7957509392505050565b6001600160a01b038216612fdf5760405163e6c4247b60e01b815260040160405180910390fd5b612fe882612369565b15158115150361300b5760405163a9cb9e0d60e01b815260040160405180910390fd5b6001600160a01b0382166000908152603960205260409020805460ff1916821515179055816001600160a01b03167fff452b3b9159b024a9098f0058c63eccd90d36b3584608202800d662f962bb608260405161306c911515815260200190565b60405180910390a25050565b600061090a827f5e8bf64400000000000000000000000000000000000000000000000000000000614079565b60006101988486816130b8576130b861497f565b048301028486816130cb576130cb61497f565b068401019050949350505050565b6040517f4b808c460000000000000000000000000000000000000000000000000000000081526001600160a01b03841690634b808c4690613124908890889087908790600401614b2e565b6020604051808303816000875af192505050801561315f575060408051601f3d908101601f1916820190925261315c91810190614ba6565b60015b613199573d80801561318d576040519150601f19603f3d011682016040523d82523d6000602084013e613192565b606091505b50506131d2565b7fb47f73ba000000000000000000000000000000000000000000000000000000006001600160e01b03198216016131d057506113cd565b505b6040517f64a0ae920000000000000000000000000000000000000000000000000000000081526001600160a01b0384166004820152602401610a0e565b7f1836e2fa424a35b79c13fd66f8e282cb3a31513f9610d6e7a99baf7ffe56ec0080546040516001600160a01b038481169216907f8be0079c531659141344cd1fd0a4f28419497f9722a3daafe3b4186f6b6457e090600090a3805473ffffffffffffffffffffffffffffffffffffffff19166001600160a01b0392909216919091179055565b60006001600160a01b0383166132e3576040517f73c6ac6e0000000000000000000000000000000000000000000000000000000081526001600160a01b0384166004820152602401610a0e565b6000806132ef84611966565b90925090506001600160a01b03821661331e57604051637e27328960e01b815260048101859052602401610a0e565b816001600160a01b0316856001600160a01b031614610a26576040516322718ad960e21b81526001600160a01b0386166004820152602401610a0e565b60006001600160a01b0383166133766001600160ff1b614b1b565b73ffffffffffffffffffffffffffffffffffffffff1916613396866129a8565b1617905081156133a757600160ff1b175b6000848152600460205260409020819055610ae0565b6040517f150b7a020000000000000000000000000000000000000000000000000000000081526001600160a01b0384169063150b7a0290613408908890889087908790600401614bc3565b6020604051808303816000875af1925050508015613443575060408051601f3d908101601f1916820190925261344091810190614ba6565b60015b613471573d80801561318d576040519150601f19603f3d011682016040523d82523d6000602084013e613192565b7feaf485fe000000000000000000000000000000000000000000000000000000006001600160e01b03198216016131d057506113cd565b6001600160a01b0382166134cf5760405163e6c4247b60e01b815260040160405180910390fd5b60006134db8483613296565b90506000846001600160a01b0316866001600160a01b0316148061350457506135048587611f3a565b90508015801561353757508180156135355750856001600160a01b031661352a84611a43565b6001600160a01b0316145b155b15613580576040517f177e802f0000000000000000000000000000000000000000000000000000000081526001600160a01b038716600482015260248101849052604401610a0e565b61358c858560016121af565b6135988385600061335b565b82846001600160a01b0316866001600160a01b03167fddf252ad1be2c89b69c2b068fc378daa952ba7f163c4a11628f55a4df523b3ef60405160405180910390a4505050505050565b6001600160a01b03808316600090815260056020908152604080832093851683529290529081205460ff166109ce565b60008060006136238660400151613878565b9250509150600061364283886000015189602001516101980291010190565b87519091506001905b6040890151895161365c9190614ada565b8110156137845760208901515b89604001518a6020015161367d9190614ada565b8110156137725760008060038a10156136ab5761369b8e8585614131565b80156136a45750845b9050613747565b6136da8e8e60405180606001604052808881526020018781526020018e815250600060028f6121409190614995565b90506101988302878501016136ee816129a8565b92508215613745578115801561370d57508e6001600160a01b03168314155b156137355760405163c1194ebf60e01b81526004810186905260248101859052604401610a0e565b6000818152600460205260408120555b505b808061375257508115155b801561375b5750845b94505050878161376b9190614ada565b9050613669565b5061377d8782614ada565b905061364b565b50861561381157801580156137c15750896001600160a01b03166137b589604001518a600001518b6020015161238a565b6001600160a01b031614155b156137ea576040516322718ad960e21b81526001600160a01b038b166004820152602401610a0e565b60008281526004602052604090206001600160a01b038a1690556001945050505050613817565b93505050505b95945050505050565b611363828261382e856128c7565b036001600160a01b0391909116600090815260036020526040902055565b611363828261385a856128c7565b016001600160a01b0391909116600090815260036020526040902055565b6000806000836001036138925760009250600391506112f5565b836003036138c6577f01000000000000000000000000000000000000000000000000000000000000009250600691506112f5565b8360060361391c57507f02000000000000000000000000000000000000000000000000000000000000009150600c90507f01000000000000000000000000000000000000000000000000000000000000006112f5565b83600c0361397257507f03000000000000000000000000000000000000000000000000000000000000009150601890507f02000000000000000000000000000000000000000000000000000000000000006112f5565b507f0400000000000000000000000000000000000000000000000000000000000000939092507f03000000000000000000000000000000000000000000000000000000000000009150565b60008060006139cb84613878565b505090506000886040015189600001516139e59190614ada565b9050600089604001518a602001516139fd9190614ada565b8a519091505b82811015613b395760208b01515b82811015613b27576000613a408c60405180606001604052808681526020018581526020018c8152508c613b73565b905080613b15576101988202868401016000613a5b82611146565b90508f6001600160a01b0316816001600160a01b031603613ae75760405180606001604052808681526020018581526020018c8152508e8d81518110613aa357613aa3614ac4565b60200260200101819052508b80613ab990614aed565b9c50613ac790508b80614968565b613ad1908e614ada565b6000838152600460205260408120559c50613b12565b6001600160a01b03811615613b12576040516314b27b7f60e31b815260048101839052602401610a0e565b50505b50613b208882614ada565b9050613a11565b50613b328782614ada565b9050613a03565b50613b45600287614995565b955060038610613b6257613b5d8b8b8b8b8b8b6139bd565b985096505b509499959850949650505050505050565b6000805b82811015613c21576000858281518110613b9357613b93614ac4565b6020026020010151905084604001518160400151118015613bb657508051855110155b8015613bd2575060408101518151613bce9190614ada565b8551105b8015613be657508060200151856020015110155b8015613c08575080604001518160200151613c019190614ada565b8560200151105b15613c18576001925050506109ce565b50600101613b77565b506000949350505050565b6000856001600160a01b03163b118015613c4a5750613c4a85613078565b15613e1f5760008667ffffffffffffffff811115613c6a57613c6a614598565b604051908082528060200260200182016040528015613c93578160200160208202803683370190505b50905060008088613ca48880614968565b613cae9190614b1b565b67ffffffffffffffff811115613cc657613cc6614598565b604051908082528060200260200182016040528015613cef578160200160208202803683370190505b5090506000805b613d008980614968565b811015613dfa576000613d15828b8b8b6130a4565b9050613d4d8e6040518060600160405280613d2f85612914565b8152602001613d3d856128e5565b815260200160018152508f613b73565b15613d825780868681518110613d6557613d65614ac4565b602090810291909101015284613d7a81614aed565b955050613df1565b8e6001600160a01b0316613d9582611146565b6001600160a01b031603613dc55760008181526004602052604081205580868681518110613d6557613d65614ac4565b80848481518110613dd857613dd8614ac4565b602090810291909101015282613ded81614aed565b9350505b50600101613cf6565b50613e098d60008b85896130d9565b613e168d8e8b87896130d9565b50505050611ee3565b60005b613e2c8580614968565b811015611ee1576000613e41828787876130a4565b90508a6001600160a01b0316613e5682611146565b6001600160a01b031603613e74576000818152600460205260408120555b50600101613e22565b6000613e8882613878565b50509050818511613eeb576000613eb98284613ea48189614995565b613eae9190614968565b856123c78189614995565b9050613ec4816129a8565b15613ee5576040516314b27b7f60e31b815260048101829052602401610a0e565b50613f76565b6000613ef78686614ada565b90506000613f058786614ada565b9050855b82811015613f7257855b82811015613f6057610198810285830101613f2d816129a8565b15613f4e576040516314b27b7f60e31b815260048101829052602401610a0e565b50613f598682614ada565b9050613f13565b50613f6b8582614ada565b9050613f09565b5050505b613f81600283614995565b9150600382106113cd576113cd85858585613e7d565b6000807a184f03e93ff9f4daa797ed6e38ed64bf6a1f0100000000000000008310613fe0577a184f03e93ff9f4daa797ed6e38ed64bf6a1f010000000000000000830492506040015b6d04ee2d6d415b85acef8100000000831061400c576d04ee2d6d415b85acef8100000000830492506020015b662386f26fc10000831061402a57662386f26fc10000830492506010015b6305f5e1008310614042576305f5e100830492506008015b612710831061405657612710830492506004015b60648310614068576064830492506002015b600a831061090a5760010192915050565b6040516001600160e01b031982166024820152600090819060440160408051601f19818403018152919052602080820180517bffffffffffffffffffffffffffffffffffffffffffffffffffffffff167f01ffc9a700000000000000000000000000000000000000000000000000000000178152825192935060009283928392909183918a617530fa92503d9150600051905082801561411a575060208210155b80156141265750600081115b979650505050505050565b60006101988202830181614144826129a8565b905080156141e257740100000000000000000000000000000000000000008082160361418d5760405163c1194ebf60e01b81526004810186905260248101859052604401610a0e565b856001600160a01b0316816001600160a01b0316146141ca576040516322718ad960e21b81526001600160a01b0387166004820152602401610a0e565b506000908152600460205260408120555060016109ce565b50600095945050505050565b6001600160e01b031981168114610e6657600080fd5b60006020828403121561421657600080fd5b81356109ce816141ee565b60006020828403121561423357600080fd5b5035919050565b60005b8381101561425557818101518382015260200161423d565b50506000910152565b6000815180845261427681602086016020860161423a565b601f01601f19169290920160200192915050565b6020815260006109ce602083018461425e565b6001600160a01b0381168114610e6657600080fd5b803561102a8161429d565b600080604083850312156142d057600080fd5b82356142db8161429d565b946020939093013593505050565b60008083601f8401126142fb57600080fd5b50813567ffffffffffffffff81111561431357600080fd5b6020830191508360208260051b8501011115610c1857600080fd5b60008083601f84011261434057600080fd5b50813567ffffffffffffffff81111561435857600080fd5b602083019150836020828501011115610c1857600080fd5b6000806000806000806080878903121561438957600080fd5b86356143948161429d565b955060208701356143a48161429d565b9450604087013567ffffffffffffffff808211156143c157600080fd5b6143cd8a838b016142e9565b909650945060608901359150808211156143e657600080fd5b506143f389828a0161432e565b979a9699509497509295939492505050565b60008060006060848603121561441a57600080fd5b83356144258161429d565b925060208401356144358161429d565b929592945050506040919091013590565b6000806040838503121561445957600080fd5b50508035926020909101359150565b600080600080600080600060c0888a03121561448357600080fd5b873561448e8161429d565b9650602088013561449e8161429d565b955060408801359450606088013593506080880135925060a088013567ffffffffffffffff8111156144cf57600080fd5b6144db8a828b0161432e565b989b979a50959850939692959293505050565b60006020828403121561450057600080fd5b81356109ce8161429d565b60008060008060008060a0878903121561452457600080fd5b863561452f8161429d565b9550602087013594506040870135935060608701359250608087013567ffffffffffffffff81111561456057600080fd5b6143f389828a0161432e565b60008060006060848603121561458157600080fd5b505081359360208301359350604090920135919050565b634e487b7160e01b600052604160045260246000fd5b604051601f8201601f1916810167ffffffffffffffff811182821017156145d7576145d7614598565b604052919050565b600067ffffffffffffffff8211156145f9576145f9614598565b50601f01601f191660200190565b600082601f83011261461857600080fd5b813561462b614626826145df565b6145ae565b81815284602083860101111561464057600080fd5b816020850160208301376000918101602001919091529392505050565b600080600080600060a0868803121561467557600080fd5b85356146808161429d565b9450602086013593506040860135925060608601359150608086013567ffffffffffffffff8111156146b157600080fd5b6146bd88828901614607565b9150509295509295909350565b8015158114610e6657600080fd5b600080604083850312156146eb57600080fd5b82356146f68161429d565b91506020830135614706816146ca565b809150509250929050565b8315158152826020820152606060408201526000613817606083018461425e565b6000806000806080858703121561474857600080fd5b84356147538161429d565b935060208501356147638161429d565b925060408501359150606085013567ffffffffffffffff81111561478657600080fd5b61479287828801614607565b91505092959194509250565b600080604083850312156147b157600080fd5b82356147bc8161429d565b915060208301356147068161429d565b60008060008060008060008060008060c08b8d0312156147eb57600080fd5b6147f48b6142b2565b995061480260208c016142b2565b985060408b013567ffffffffffffffff8082111561481f57600080fd5b61482b8e838f016142e9565b909a50985060608d013591508082111561484457600080fd5b6148508e838f016142e9565b909850965060808d013591508082111561486957600080fd5b6148758e838f016142e9565b909650945060a08d013591508082111561488e57600080fd5b5061489b8d828e0161432e565b915080935050809150509295989b9194979a5092959850565b6000806000606084860312156148c957600080fd5b83356148d48161429d565b925060208401356148e48161429d565b915060408401356148f4816146ca565b809150509250925092565b60006020828403121561491157600080fd5b81516109ce816146ca565b6000806040838503121561492f57600080fd5b825161493a8161429d565b602084015190925061ffff8116811461470657600080fd5b634e487b7160e01b600052601160045260246000fd5b808202811582820484141761090a5761090a614952565b634e487b7160e01b600052601260045260246000fd5b6000826149a4576149a461497f565b500490565b6000602082840312156149bb57600080fd5b5051919050565b6000806000606084860312156149d757600080fd5b83516149e2816146ca565b60208501516040860151919450925067ffffffffffffffff811115614a0657600080fd5b8401601f81018613614a1757600080fd5b8051614a25614626826145df565b818152876020838501011115614a3a57600080fd5b614a4b82602083016020860161423a565b8093505050509250925092565b7f68747470733a2f2f6170692e73616e64626f782e67616d652f6c616e64732f00815260008251614a9081601f85016020870161423a565b7f2f6d657461646174612e6a736f6e000000000000000000000000000000000000601f939091019283015250602d01919050565b634e487b7160e01b600052603260045260246000fd5b8082018082111561090a5761090a614952565b60006000198203614b0057614b00614952565b5060010190565b600082614b1657614b1661497f565b500690565b8181038181111561090a5761090a614952565b6000608082016001600160a01b0380881684526020818816602086015260806040860152829150865180845260a08601925060208801935060005b81811015614b8557845184529382019392820192600101614b69565b5050508381036060850152614b9a818661425e565b98975050505050505050565b600060208284031215614bb857600080fd5b81516109ce816141ee565b60006001600160a01b03808716835280861660208401525083604083015260806060830152614bf5608083018461425e565b969550505050505056fea2646970667358221220a29675dc2ab88d32d901536b30aaeb6eecb24cb96ce50515a4d8840d49b00da264736f6c63430008170033",
  "devdoc": {
    "author": "The Sandbox",
    "custom:security-contact": "contact-blockchain@sandbox.game",
    "details": "We use the storage mixing for historical reasons.There is a difference between L1 and L2 storage slots order and we want to upgrade the contract.This contract uses the exact storage slots configuration that we have in `core` package so we can upgradeLandStorageMixin must be the first one in the inheritance chain for subclasses",
    "errors": {
      "AlreadyMinted(uint256)": [
        {
          "params": {
            "tokenId": "the id of land"
          }
        }
      ],
      "ERC721IncorrectOwner(address,uint256,address)": [
        {
          "details": "Indicates an error related to the ownership over a particular token. Used in transfers.",
          "params": {
            "owner": "Address of the current owner of a token.",
            "sender": "Address whose tokens are being transferred.",
            "tokenId": "Identifier number of a token."
          }
        }
      ],
      "ERC721InsufficientApproval(address,uint256)": [
        {
          "details": "Indicates a failure with the `operator`s approval. Used in transfers.",
          "params": {
            "operator": "Address that may be allowed to operate on tokens without being their owner.",
            "tokenId": "Identifier number of a token."
          }
        }
      ],
      "ERC721InvalidApprover(address)": [
        {
          "details": "Indicates a failure with the `approver` of a token to be approved. Used in approvals.",
          "params": {
            "approver": "Address initiating an approval operation."
          }
        }
      ],
      "ERC721InvalidOperator(address)": [
        {
          "details": "Indicates a failure with the `operator` to be approved. Used in approvals.",
          "params": {
            "operator": "Address that may be allowed to operate on tokens without being their owner."
          }
        }
      ],
      "ERC721InvalidOwner(address)": [
        {
          "details": "Indicates that an address can't be an owner. For example, `address(0)` is a forbidden owner in EIP-20. Used in balance queries.",
          "params": {
            "owner": "Address of the current owner of a token."
          }
        }
      ],
      "ERC721InvalidReceiver(address)": [
        {
          "details": "Indicates a failure with the token `receiver`. Used in transfers.",
          "params": {
            "receiver": "Address to which tokens are being transferred."
          }
        }
      ],
      "ERC721InvalidSender(address)": [
        {
          "details": "Indicates a failure with the token `sender`. Used in transfers.",
          "params": {
            "sender": "Address whose tokens are being transferred."
          }
        }
      ],
      "ERC721NonexistentToken(uint256)": [
        {
          "details": "Indicates a `tokenId` whose `owner` is the zero address.",
          "params": {
            "tokenId": "Identifier number of a token."
          }
        }
      ],
      "InvalidCoordinates(uint256,uint256,uint256)": [
        {
          "params": {
            "size": "The size of the quad",
            "x": "The bottom left x coordinate of the quad",
            "y": "The bottom left y coordinate of the quad"
          }
        }
      ],
      "InvalidInitialization()": [
        {
          "details": "The contract is already initialized."
        }
      ],
      "NotInitializing()": [
        {
          "details": "The contract is not initializing."
        }
      ],
      "NotOwner(uint256,uint256)": [
        {
          "params": {
            "x": "The bottom left x coordinate of the quad",
            "y": "The bottom left y coordinate of the quad"
          }
        }
      ]
    },
    "events": {
      "AdminChanged(address,address)": {
        "params": {
          "newAdmin": "The address of the new administrator.",
          "oldAdmin": "The address of the previous administrator."
        }
      },
      "Approval(address,address,uint256)": {
        "details": "Emitted when `owner` enables `approved` to manage the `tokenId` token."
      },
      "ApprovalForAll(address,address,bool)": {
        "details": "Emitted when `owner` enables or disables (`approved`) `operator` to manage all of its assets."
      },
      "ContractRegistered(address,bool)": {
        "params": {
          "subscribe": "should it subscribe",
          "subscriptionOrRegistrant": "address to subscribe or copy entries from"
        }
      },
      "Initialized(uint64)": {
        "details": "Triggered when the contract has been initialized or reinitialized."
      },
      "MetadataRegistrySet(address)": {
        "params": {
          "metadataRegistry": "the address of the metadata registry"
        }
      },
      "Minter(address,bool)": {
        "params": {
          "enabled": "set whether the minter is enabled or disabled.",
          "minter": "address that will be given/removed minter right."
        }
      },
      "OperatorRegistrySet(address)": {
        "params": {
          "registry": "address of the registry to set"
        }
      },
      "OwnershipTransferred(address,address)": {
        "params": {
          "newOwner": "The new address of the owner.",
          "previousOwner": "The old address of the owner."
        }
      },
      "RoyaltyManagerSet(address)": {
        "params": {
          "royaltyManager": "the address of royalty manager contract."
        }
      },
      "SuperOperator(address,bool)": {
        "params": {
          "enabled": "set whether the superOperator is enabled or disabled.",
          "superOperator": "address that will be given/removed superOperator right."
        }
      },
      "Transfer(address,address,uint256)": {
        "details": "Emitted when `tokenId` token is transferred from `from` to `to`."
      }
    },
    "kind": "dev",
    "methods": {
      "approve(address,uint256)": {
        "params": {
          "operator": "The address receiving the approval",
          "tokenId": "The id of the token"
        }
      },
      "approveFor(address,address,uint256)": {
        "params": {
          "operator": "The address receiving the approval",
          "sender": "The address giving the approval",
          "tokenId": "The id of the token"
        }
      },
      "balanceOf(address)": {
        "params": {
          "owner": "The address to look for."
        },
        "returns": {
          "_0": "The number of tokens owned by the address."
        }
      },
      "batchTransferFrom(address,address,uint256[],bytes)": {
        "params": {
          "data": "Additional data.",
          "from": "The sender of the token.",
          "ids": "The ids of the tokens.",
          "to": "The recipient of the token."
        }
      },
      "batchTransferQuad(address,address,uint256[],uint256[],uint256[],bytes)": {
        "params": {
          "data": "additional data",
          "from": "current owner of the quad",
          "sizes": "list of sizes for each quad",
          "to": "destination",
          "xs": "list of bottom left x coordinates for each quad",
          "ys": "list of bottom left y coordinates for each quad"
        }
      },
      "changeAdmin(address)": {
        "details": "Change the administrator to be `newAdmin`.",
        "params": {
          "newAdmin": "The address of the new administrator."
        }
      },
      "exists(uint256,uint256,uint256)": {
        "params": {
          "size": "The size of the quad",
          "x": "The bottom left x coordinate of the quad",
          "y": "The bottom left y coordinate of the quad"
        },
        "returns": {
          "_0": "bool for if Land has been minted or not"
        }
      },
      "getAdmin()": {
        "details": "Get the current administrator of this contract.",
        "returns": {
          "_0": "The current administrator of this contract."
        }
      },
      "getApproved(uint256)": {
        "params": {
          "tokenId": "The id of the token."
        },
        "returns": {
          "_0": "The address of the operator."
        }
      },
      "getMetadata(uint256)": {
        "params": {
          "tokenId": "the token id"
        },
        "returns": {
          "_0": "premium true if the land is premium",
          "_1": "neighborhoodId the number that identifies the neighborhood",
          "_2": "neighborhoodName the neighborhood name"
        }
      },
      "getMetadataRegistry()": {
        "returns": {
          "_0": "The address of the Metadata Registry"
        }
      },
      "getNeighborhoodId(uint256)": {
        "params": {
          "tokenId": "the token id"
        }
      },
      "getOwnerData(uint256)": {
        "details": "for debugging purposes",
        "params": {
          "tokenId": "The id of the Land"
        },
        "returns": {
          "_0": "the owner data (address + burn flag + operatorEnabled)"
        }
      },
      "getRoyaltyManager()": {
        "returns": {
          "_0": "the address of royalty manager contract."
        }
      },
      "getX(uint256)": {
        "params": {
          "tokenId": "the id of land"
        },
        "returns": {
          "_0": "the x coordinates"
        }
      },
      "getY(uint256)": {
        "params": {
          "tokenId": "the id of land"
        },
        "returns": {
          "_0": "the y coordinates"
        }
      },
      "height()": {
        "returns": {
          "_0": "height"
        }
      },
      "initialize(address)": {
        "params": {
          "admin": "Admin of the contract"
        }
      },
      "isApprovedForAll(address,address)": {
        "params": {
          "operator": "The address of the operator.",
          "owner": "The address of the owner."
        },
        "returns": {
          "_0": "isOperator The status of the approval."
        }
      },
      "isMinter(address)": {
        "params": {
          "who": "The address to query."
        },
        "returns": {
          "_0": "whether the address has minter rights."
        }
      },
      "isPremium(uint256)": {
        "params": {
          "tokenId": "the token id"
        }
      },
      "isSuperOperator(address)": {
        "params": {
          "superOperator": "the operator address to check"
        },
        "returns": {
          "_0": "true if an address is a super-operator"
        }
      },
      "mintAndTransferQuad(address,uint256,uint256,uint256,bytes)": {
        "params": {
          "data": "extra data to pass to the transfer",
          "size": "The size of the new quad",
          "to": "The recipient of the new quad",
          "x": "The bottom left x coordinate of the new quad",
          "y": "The bottom left y coordinate of the new quad"
        }
      },
      "mintQuad(address,uint256,uint256,uint256,bytes)": {
        "params": {
          "data": "extra data to pass to the transfer",
          "size": "The size of the new quad",
          "to": "The recipient of the new quad",
          "x": "The bottom left x coordinate of the new quad",
          "y": "The bottom left y coordinate of the new quad"
        }
      },
      "name()": {
        "returns": {
          "_0": "The name of the token contract"
        }
      },
      "operatorFilterRegistry()": {
        "returns": {
          "_0": "the address of  the operator filter registry"
        }
      },
      "owner()": {
        "returns": {
          "_0": "The address of the owner."
        }
      },
      "ownerOf(uint256)": {
        "params": {
          "tokenId": "The id of the token."
        },
        "returns": {
          "owner": "The address of the token owner."
        }
      },
      "register(address,bool)": {
        "params": {
          "subscribe": "bool to signify subscription 'true' or to copy the list 'false'.",
          "subscriptionOrRegistrantToCopy": "registration address of the list to subscribe."
        }
      },
      "royaltyInfo(uint256,uint256)": {
        "details": "tokenId is one of the EIP2981 args for this function can't be removed",
        "params": {
          "salePrice": "the price of token on which the royalty is calculated"
        },
        "returns": {
          "receiver": "the receiver of royalty",
          "royaltyAmount": "the amount of royalty"
        }
      },
      "safeBatchTransferFrom(address,address,uint256[],bytes)": {
        "params": {
          "data": "Additional data.",
          "from": "The sender of the token.",
          "ids": "The ids of the tokens.",
          "to": "The recipient of the token."
        }
      },
      "safeTransferFrom(address,address,uint256)": {
        "params": {
          "from": "The sender of the token",
          "to": "The recipient of the token",
          "tokenId": "The id of the token"
        }
      },
      "safeTransferFrom(address,address,uint256,bytes)": {
        "params": {
          "data": "Additional data",
          "from": "The sender of the token",
          "to": "The recipient of the token",
          "tokenId": "The id of the token"
        }
      },
      "setApprovalForAll(address,bool)": {
        "params": {
          "approved": "The determination of the approval",
          "operator": "The address receiving the approval"
        }
      },
      "setApprovalForAllFor(address,address,bool)": {
        "params": {
          "approved": "The determination of the approval",
          "operator": "The address receiving the approval",
          "sender": "The address giving the approval"
        }
      },
      "setMetadataRegistry(address)": {
        "params": {
          "metadataRegistry": "The address of the Metadata Registry"
        }
      },
      "setMinter(address,bool)": {
        "params": {
          "enabled": "set whether the minter is enabled or disabled.",
          "minter": "address that will be given/removed minter right."
        }
      },
      "setOperatorRegistry(address)": {
        "params": {
          "registry": "the address of the registry"
        }
      },
      "setRoyaltyManager(address)": {
        "params": {
          "royaltyManager": "address of the manager contract for common royalty recipient"
        }
      },
      "setSuperOperator(address,bool)": {
        "params": {
          "enabled": "set whether the superOperator is enabled or disabled.",
          "superOperator": "address that will be given/removed superOperator right."
        }
      },
      "supportsInterface(bytes4)": {
        "params": {
          "interfaceId": "The id of the interface"
        },
        "returns": {
          "_0": "True if the interface is supported"
        }
      },
      "symbol()": {
        "returns": {
          "_0": "The symbol of the token contract"
        }
      },
      "tokenURI(uint256)": {
        "params": {
          "tokenId": "The id of the token"
        },
        "returns": {
          "_0": "The URI of the token"
        }
      },
      "transferFrom(address,address,uint256)": {
        "params": {
          "from": "The sender of the token",
          "to": "The recipient of the token",
          "tokenId": "The id of the token"
        }
      },
      "transferOwnership(address)": {
        "details": "This owner doesn't have any privileged role within this contractIt is set by the admin to comply with EIP173 which is needed by some marketplacesEven when set to address(0) ownership is never permanently renounced the admin can always set any value",
        "params": {
          "newOwner": "address of new owner"
        }
      },
      "transferQuad(address,address,uint256,uint256,uint256,bytes)": {
        "params": {
          "data": "additional data for transfer",
          "from": "current owner of the quad",
          "size": "The size of the quad",
          "to": "destination",
          "x": "The bottom left x coordinate of the quad",
          "y": "The bottom left y coordinate of the quad"
        }
      },
      "width()": {
        "returns": {
          "_0": "width"
        }
      }
    },
    "title": "Land Contract on L1",
    "version": 1
  },
  "userdoc": {
    "errors": {
      "AlreadyMinted(uint256)": [
        {
          "notice": "the token is already minted"
        }
      ],
      "InvalidAddress()": [
        {
          "notice": "an address passed as argument is invalid"
        }
      ],
      "InvalidArgument()": [
        {
          "notice": "an argument passed is invalid"
        }
      ],
      "InvalidCoordinates(uint256,uint256,uint256)": [
        {
          "notice": "the coordinates are invalid"
        }
      ],
      "InvalidLength()": [
        {
          "notice": "an array argument has an invalid length"
        }
      ],
      "NotOwner(uint256,uint256)": [
        {
          "notice": "is not the owner of the quad"
        }
      ],
      "OnlyAdmin()": [
        {
          "notice": "only admin can call this function"
        }
      ],
      "OperatorNotAllowed()": [
        {
          "notice": "the caller is not the operator"
        }
      ]
    },
    "events": {
      "AdminChanged(address,address)": {
        "notice": "Emits when the contract administrator is changed."
      },
      "ContractRegistered(address,bool)": {
        "notice": "emitted when the contract is registered into the registry"
      },
      "MetadataRegistrySet(address)": {
        "notice": "emitted when the metadata registry is set"
      },
      "Minter(address,bool)": {
        "notice": "emitted when a minter right is changed."
      },
      "OperatorRegistrySet(address)": {
        "notice": "emitted when a registry is set"
      },
      "OwnershipTransferred(address,address)": {
        "notice": "emitted when the ownership of the contract is changed"
      },
      "RoyaltyManagerSet(address)": {
        "notice": "emitted when the royalty manager is set"
      }
    },
    "kind": "user",
    "methods": {
      "approve(address,uint256)": {
        "notice": "Approve an operator to spend tokens on the sender behalf"
      },
      "approveFor(address,address,uint256)": {
        "notice": "Approve an operator to spend tokens on the sender behalf"
      },
      "balanceOf(address)": {
        "notice": "Get the number of tokens owned by an address."
      },
      "batchTransferFrom(address,address,uint256[],bytes)": {
        "notice": "Transfer many tokens between 2 addresses."
      },
      "batchTransferQuad(address,address,uint256[],uint256[],uint256[],bytes)": {
        "notice": "transfer multiple quad (aligned to a quad tree with size 3, 6, 12 or 24 only)"
      },
      "changeAdmin(address)": {
        "notice": "Change the admin of the contract"
      },
      "exists(uint256,uint256,uint256)": {
        "notice": "checks if Land has been minted or not"
      },
      "getAdmin()": {
        "notice": "Get the current admin"
      },
      "getApproved(uint256)": {
        "notice": "Get the approved operator for a specific token."
      },
      "getMetadata(uint256)": {
        "notice": "return the metadata for one land"
      },
      "getMetadataRegistry()": {
        "notice": "Get the address of the Metadata Registry"
      },
      "getNeighborhoodId(uint256)": {
        "notice": "return the id that identifies the neighborhood"
      },
      "getOwnerData(uint256)": {
        "notice": "Return the internal owner data of a Land"
      },
      "getRoyaltyManager()": {
        "notice": "returns the royalty manager"
      },
      "getX(uint256)": {
        "notice": "x coordinate of Land token"
      },
      "getY(uint256)": {
        "notice": "y coordinate of Land token"
      },
      "height()": {
        "notice": "total height of the map"
      },
      "initialize(address)": {
        "notice": "Initializes the contract admin"
      },
      "isApprovedForAll(address,address)": {
        "notice": "Check if the sender approved the operator."
      },
      "isMinter(address)": {
        "notice": "check whether address `who` is given minter rights."
      },
      "isPremium(uint256)": {
        "notice": "return true if a land is premium"
      },
      "isSuperOperator(address)": {
        "notice": "check if an address is a super-operator"
      },
      "mintAndTransferQuad(address,uint256,uint256,uint256,bytes)": {
        "notice": "Checks if a parent quad has child quads already minted.Then mints the rest child quads and transfers the parent quad.Should only be called by the tunnel."
      },
      "mintQuad(address,uint256,uint256,uint256,bytes)": {
        "notice": "Mint a new quad (aligned to a quad tree with size 1, 3, 6, 12 or 24 only)"
      },
      "name()": {
        "notice": "Return the name of the token contract"
      },
      "operatorFilterRegistry()": {
        "notice": "return the address of the operator filter registry"
      },
      "owner()": {
        "notice": "Get the address of the owner"
      },
      "ownerOf(uint256)": {
        "notice": "Get the owner of a token."
      },
      "register(address,bool)": {
        "notice": "This function is used to register Land contract on the Operator Filterer Registry of Opensea."
      },
      "royaltyInfo(uint256,uint256)": {
        "notice": "Returns how much royalty is owed and to whom based on ERC2981"
      },
      "safeBatchTransferFrom(address,address,uint256[],bytes)": {
        "notice": "Transfer many tokens between 2 addresses, while ensuring the receiving contract has a receiver method."
      },
      "safeTransferFrom(address,address,uint256)": {
        "notice": "Transfer a token between 2 addresses letting the receiver know of the transfer"
      },
      "safeTransferFrom(address,address,uint256,bytes)": {
        "notice": "Transfer a token between 2 addresses letting the receiver know of the transfer"
      },
      "setApprovalForAll(address,bool)": {
        "notice": "Set the approval for an operator to manage all the tokens of the msgSender"
      },
      "setApprovalForAllFor(address,address,bool)": {
        "notice": "Set the approval for an operator to manage all the tokens of the sender (may differ from msgSender)"
      },
      "setMetadataRegistry(address)": {
        "notice": "sets address of the Metadata Registry"
      },
      "setMinter(address,bool)": {
        "notice": "Enable or disable the ability of `minter` to mint tokens"
      },
      "setOperatorRegistry(address)": {
        "notice": "sets filter registry address deployed in test"
      },
      "setRoyaltyManager(address)": {
        "notice": "set royalty manager"
      },
      "setSuperOperator(address,bool)": {
        "notice": "Enable or disable the ability of `superOperator` to transfer tokens of all (superOperator rights)."
      },
      "supportsInterface(bytes4)": {
        "notice": "Check if the contract supports an interface"
      },
      "symbol()": {
        "notice": "Return the symbol of the token contract"
      },
      "tokenURI(uint256)": {
        "notice": "Return the URI of a specific token"
      },
      "transferFrom(address,address,uint256)": {
        "notice": "Transfer a token between 2 addresses"
      },
      "transferOwnership(address)": {
        "notice": "Set the address of the new owner of the contract"
      },
      "transferQuad(address,address,uint256,uint256,uint256,bytes)": {
        "notice": "transfer one quad (aligned to a quad tree with size 3, 6, 12 or 24 only)"
      },
      "width()": {
        "notice": "total width of the map"
      }
    },
    "notice": "LAND contract on L1",
    "version": 1
  },
  "storageLayout": {
    "storage": [
      {
        "astId": 10853,
        "contract": "@sandbox-smart-contracts/land/contracts/Land.sol:Land",
        "label": "_admin",
        "offset": 0,
        "slot": "0",
        "type": "t_address"
      },
      {
        "astId": 10858,
        "contract": "@sandbox-smart-contracts/land/contracts/Land.sol:Land",
        "label": "_superOperators",
        "offset": 0,
        "slot": "1",
        "type": "t_mapping(t_address,t_bool)"
      },
      {
        "astId": 10863,
        "contract": "@sandbox-smart-contracts/land/contracts/Land.sol:Land",
        "label": "_metaTransactionContracts",
        "offset": 0,
        "slot": "2",
        "type": "t_mapping(t_address,t_bool)"
      },
      {
        "astId": 10868,
        "contract": "@sandbox-smart-contracts/land/contracts/Land.sol:Land",
        "label": "_numNFTPerAddress",
        "offset": 0,
        "slot": "3",
        "type": "t_mapping(t_address,t_uint256)"
      },
      {
        "astId": 10873,
        "contract": "@sandbox-smart-contracts/land/contracts/Land.sol:Land",
        "label": "_owners",
        "offset": 0,
        "slot": "4",
        "type": "t_mapping(t_uint256,t_uint256)"
      },
      {
        "astId": 10880,
        "contract": "@sandbox-smart-contracts/land/contracts/Land.sol:Land",
        "label": "_operatorsForAll",
        "offset": 0,
        "slot": "5",
        "type": "t_mapping(t_address,t_mapping(t_address,t_bool))"
      },
      {
        "astId": 10885,
        "contract": "@sandbox-smart-contracts/land/contracts/Land.sol:Land",
        "label": "_operators",
        "offset": 0,
        "slot": "6",
        "type": "t_mapping(t_uint256,t_address)"
      },
      {
        "astId": 10888,
        "contract": "@sandbox-smart-contracts/land/contracts/Land.sol:Land",
        "label": "_initialized",
        "offset": 0,
        "slot": "7",
        "type": "t_bool"
      },
      {
        "astId": 10892,
        "contract": "@sandbox-smart-contracts/land/contracts/Land.sol:Land",
        "label": "__gap",
        "offset": 0,
        "slot": "8",
        "type": "t_array(t_uint256)49_storage"
      },
      {
        "astId": 10897,
        "contract": "@sandbox-smart-contracts/land/contracts/Land.sol:Land",
        "label": "_minters",
        "offset": 0,
        "slot": "57",
        "type": "t_mapping(t_address,t_bool)"
      },
      {
        "astId": 10901,
        "contract": "@sandbox-smart-contracts/land/contracts/Land.sol:Land",
        "label": "_operatorFilterRegistry",
        "offset": 0,
        "slot": "58",
        "type": "t_contract(IOperatorFilterRegistry)10806"
      }
    ],
    "types": {
      "t_address": {
        "encoding": "inplace",
        "label": "address",
        "numberOfBytes": "20"
      },
      "t_array(t_uint256)49_storage": {
        "base": "t_uint256",
        "encoding": "inplace",
        "label": "uint256[49]",
        "numberOfBytes": "1568"
      },
      "t_bool": {
        "encoding": "inplace",
        "label": "bool",
        "numberOfBytes": "1"
      },
      "t_contract(IOperatorFilterRegistry)10806": {
        "encoding": "inplace",
        "label": "contract IOperatorFilterRegistry",
        "numberOfBytes": "20"
      },
      "t_mapping(t_address,t_bool)": {
        "encoding": "mapping",
        "key": "t_address",
        "label": "mapping(address => bool)",
        "numberOfBytes": "32",
        "value": "t_bool"
      },
      "t_mapping(t_address,t_mapping(t_address,t_bool))": {
        "encoding": "mapping",
        "key": "t_address",
        "label": "mapping(address => mapping(address => bool))",
        "numberOfBytes": "32",
        "value": "t_mapping(t_address,t_bool)"
      },
      "t_mapping(t_address,t_uint256)": {
        "encoding": "mapping",
        "key": "t_address",
        "label": "mapping(address => uint256)",
        "numberOfBytes": "32",
        "value": "t_uint256"
      },
      "t_mapping(t_uint256,t_address)": {
        "encoding": "mapping",
        "key": "t_uint256",
        "label": "mapping(uint256 => address)",
        "numberOfBytes": "32",
        "value": "t_address"
      },
      "t_mapping(t_uint256,t_uint256)": {
        "encoding": "mapping",
        "key": "t_uint256",
        "label": "mapping(uint256 => uint256)",
        "numberOfBytes": "32",
        "value": "t_uint256"
      },
      "t_uint256": {
        "encoding": "inplace",
        "label": "uint256",
        "numberOfBytes": "32"
      }
    }
  }
}