{
  "address": "0xAa24caE605aca7f87406385185B17d4eCCe4b15f",
  "abi": [
    {
      "inputs": [],
      "stateMutability": "nonpayable",
      "type": "constructor"
    },
    {
      "anonymous": false,
      "inputs": [
        {
          "indexed": false,
          "internalType": "uint8",
          "name": "version",
          "type": "uint8"
        }
      ],
      "name": "Initialized",
      "type": "event"
    },
    {
      "anonymous": false,
      "inputs": [
        {
          "indexed": true,
          "internalType": "address",
          "name": "commonRecipient",
          "type": "address"
        }
      ],
      "name": "RecipientSet",
      "type": "event"
    },
    {
      "anonymous": false,
      "inputs": [
        {
          "indexed": true,
          "internalType": "bytes32",
          "name": "role",
          "type": "bytes32"
        },
        {
          "indexed": true,
          "internalType": "bytes32",
          "name": "previousAdminRole",
          "type": "bytes32"
        },
        {
          "indexed": true,
          "internalType": "bytes32",
          "name": "newAdminRole",
          "type": "bytes32"
        }
      ],
      "name": "RoleAdminChanged",
      "type": "event"
    },
    {
      "anonymous": false,
      "inputs": [
        {
          "indexed": true,
          "internalType": "bytes32",
          "name": "role",
          "type": "bytes32"
        },
        {
          "indexed": true,
          "internalType": "address",
          "name": "account",
          "type": "address"
        },
        {
          "indexed": true,
          "internalType": "address",
          "name": "sender",
          "type": "address"
        }
      ],
      "name": "RoleGranted",
      "type": "event"
    },
    {
      "anonymous": false,
      "inputs": [
        {
          "indexed": true,
          "internalType": "bytes32",
          "name": "role",
          "type": "bytes32"
        },
        {
          "indexed": true,
          "internalType": "address",
          "name": "account",
          "type": "address"
        },
        {
          "indexed": true,
          "internalType": "address",
          "name": "sender",
          "type": "address"
        }
      ],
      "name": "RoleRevoked",
      "type": "event"
    },
    {
      "anonymous": false,
      "inputs": [
        {
          "indexed": false,
          "internalType": "uint16",
          "name": "royaltyBps",
          "type": "uint16"
        },
        {
          "indexed": true,
          "internalType": "address",
          "name": "contractAddress",
          "type": "address"
        }
      ],
      "name": "RoyaltySet",
      "type": "event"
    },
    {
      "anonymous": false,
      "inputs": [
        {
          "indexed": false,
          "internalType": "uint16",
          "name": "commonSplit",
          "type": "uint16"
        }
      ],
      "name": "SplitSet",
      "type": "event"
    },
    {
      "anonymous": false,
      "inputs": [
        {
          "indexed": true,
          "internalType": "address",
          "name": "creator",
          "type": "address"
        },
        {
          "indexed": true,
          "internalType": "address",
          "name": "recipient",
          "type": "address"
        },
        {
          "indexed": false,
          "internalType": "address",
          "name": "splitterAddress",
          "type": "address"
        }
      ],
      "name": "SplitterDeployed",
      "type": "event"
    },
    {
      "anonymous": false,
      "inputs": [
        {
          "indexed": true,
          "internalType": "address",
          "name": "previousForwarder",
          "type": "address"
        },
        {
          "indexed": true,
          "internalType": "address",
          "name": "newForwarder",
          "type": "address"
        }
      ],
      "name": "TrustedForwarderSet",
      "type": "event"
    },
    {
      "inputs": [],
      "name": "CONTRACT_ROYALTY_SETTER_ROLE",
      "outputs": [
        {
          "internalType": "bytes32",
          "name": "",
          "type": "bytes32"
        }
      ],
      "stateMutability": "view",
      "type": "function"
    },
    {
      "inputs": [],
      "name": "DEFAULT_ADMIN_ROLE",
      "outputs": [
        {
          "internalType": "bytes32",
          "name": "",
          "type": "bytes32"
        }
      ],
      "stateMutability": "view",
      "type": "function"
    },
    {
      "inputs": [],
      "name": "SPLITTER_DEPLOYER_ROLE",
      "outputs": [
        {
          "internalType": "bytes32",
          "name": "",
          "type": "bytes32"
        }
      ],
      "stateMutability": "view",
      "type": "function"
    },
    {
      "inputs": [],
      "name": "commonRecipient",
      "outputs": [
        {
          "internalType": "address payable",
          "name": "",
          "type": "address"
        }
      ],
      "stateMutability": "view",
      "type": "function"
    },
    {
      "inputs": [],
      "name": "commonSplit",
      "outputs": [
        {
          "internalType": "uint16",
          "name": "",
          "type": "uint16"
        }
      ],
      "stateMutability": "view",
      "type": "function"
    },
    {
      "inputs": [
        {
          "internalType": "address",
          "name": "",
          "type": "address"
        }
      ],
      "name": "contractRoyalty",
      "outputs": [
        {
          "internalType": "uint16",
          "name": "",
          "type": "uint16"
        }
      ],
      "stateMutability": "view",
      "type": "function"
    },
    {
      "inputs": [
        {
          "internalType": "address",
          "name": "",
          "type": "address"
        }
      ],
      "name": "creatorRoyaltiesSplitter",
      "outputs": [
        {
          "internalType": "address payable",
          "name": "",
          "type": "address"
        }
      ],
      "stateMutability": "view",
      "type": "function"
    },
    {
      "inputs": [
        {
          "internalType": "address",
          "name": "creator",
          "type": "address"
        },
        {
          "internalType": "address payable",
          "name": "recipient",
          "type": "address"
        }
      ],
      "name": "deploySplitter",
      "outputs": [
        {
          "internalType": "address payable",
          "name": "creatorSplitterAddress",
          "type": "address"
        }
      ],
      "stateMutability": "nonpayable",
      "type": "function"
    },
    {
      "inputs": [],
      "name": "getCommonRecipient",
      "outputs": [
        {
          "components": [
            {
              "internalType": "address payable",
              "name": "recipient",
              "type": "address"
            },
            {
              "internalType": "uint16",
              "name": "bps",
              "type": "uint16"
            }
          ],
          "internalType": "struct Recipient",
          "name": "recipient",
          "type": "tuple"
        }
      ],
      "stateMutability": "view",
      "type": "function"
    },
    {
      "inputs": [
        {
          "internalType": "address",
          "name": "_contractAddress",
          "type": "address"
        }
      ],
      "name": "getContractRoyalty",
      "outputs": [
        {
          "internalType": "uint16",
          "name": "royaltyBps",
          "type": "uint16"
        }
      ],
      "stateMutability": "view",
      "type": "function"
    },
    {
      "inputs": [
        {
          "internalType": "address",
          "name": "creator",
          "type": "address"
        }
      ],
      "name": "getCreatorRoyaltySplitter",
      "outputs": [
        {
          "internalType": "address payable",
          "name": "creatorSplitterAddress",
          "type": "address"
        }
      ],
      "stateMutability": "view",
      "type": "function"
    },
    {
      "inputs": [],
      "name": "getCreatorSplit",
      "outputs": [
        {
          "internalType": "uint16",
          "name": "creatorSplit",
          "type": "uint16"
        }
      ],
      "stateMutability": "view",
      "type": "function"
    },
    {
      "inputs": [
        {
          "internalType": "bytes32",
          "name": "role",
          "type": "bytes32"
        }
      ],
      "name": "getRoleAdmin",
      "outputs": [
        {
          "internalType": "bytes32",
          "name": "",
          "type": "bytes32"
        }
      ],
      "stateMutability": "view",
      "type": "function"
    },
    {
      "inputs": [],
      "name": "getRoyaltyInfo",
      "outputs": [
        {
          "internalType": "address payable",
          "name": "recipient",
          "type": "address"
        },
        {
          "internalType": "uint16",
          "name": "royaltySplit",
          "type": "uint16"
        }
      ],
      "stateMutability": "view",
      "type": "function"
    },
    {
      "inputs": [],
      "name": "getTrustedForwarder",
      "outputs": [
        {
          "internalType": "address",
          "name": "trustedForwarder",
          "type": "address"
        }
      ],
      "stateMutability": "view",
      "type": "function"
    },
    {
      "inputs": [
        {
          "internalType": "bytes32",
          "name": "role",
          "type": "bytes32"
        },
        {
          "internalType": "address",
          "name": "account",
          "type": "address"
        }
      ],
      "name": "grantRole",
      "outputs": [],
      "stateMutability": "nonpayable",
      "type": "function"
    },
    {
      "inputs": [
        {
          "internalType": "bytes32",
          "name": "role",
          "type": "bytes32"
        },
        {
          "internalType": "address",
          "name": "account",
          "type": "address"
        }
      ],
      "name": "hasRole",
      "outputs": [
        {
          "internalType": "bool",
          "name": "",
          "type": "bool"
        }
      ],
      "stateMutability": "view",
      "type": "function"
    },
    {
      "inputs": [
        {
          "internalType": "address payable",
          "name": "_commonRecipient",
          "type": "address"
        },
        {
          "internalType": "uint16",
          "name": "_commonSplit",
          "type": "uint16"
        },
        {
          "internalType": "address",
          "name": "royaltySplitterCloneable",
          "type": "address"
        },
        {
          "internalType": "address",
          "name": "managerAdmin",
          "type": "address"
        },
        {
          "internalType": "address",
          "name": "contractRoyaltySetter",
          "type": "address"
        },
        {
          "internalType": "address",
          "name": "trustedForwarder",
          "type": "address"
        }
      ],
      "name": "initialize",
      "outputs": [],
      "stateMutability": "nonpayable",
      "type": "function"
    },
    {
      "inputs": [
        {
          "internalType": "bytes32",
          "name": "role",
          "type": "bytes32"
        },
        {
          "internalType": "address",
          "name": "account",
          "type": "address"
        }
      ],
      "name": "renounceRole",
      "outputs": [],
      "stateMutability": "nonpayable",
      "type": "function"
    },
    {
      "inputs": [
        {
          "internalType": "bytes32",
          "name": "role",
          "type": "bytes32"
        },
        {
          "internalType": "address",
          "name": "account",
          "type": "address"
        }
      ],
      "name": "revokeRole",
      "outputs": [],
      "stateMutability": "nonpayable",
      "type": "function"
    },
    {
      "inputs": [
        {
          "internalType": "address",
          "name": "contractAddress",
          "type": "address"
        },
        {
          "internalType": "uint16",
          "name": "_royaltyBps",
          "type": "uint16"
        }
      ],
      "name": "setContractRoyalty",
      "outputs": [],
      "stateMutability": "nonpayable",
      "type": "function"
    },
    {
      "inputs": [
        {
          "internalType": "address payable",
          "name": "_commonRecipient",
          "type": "address"
        }
      ],
      "name": "setRecipient",
      "outputs": [],
      "stateMutability": "nonpayable",
      "type": "function"
    },
    {
      "inputs": [
        {
          "internalType": "address payable",
          "name": "recipient",
          "type": "address"
        }
      ],
      "name": "setRoyaltyRecipient",
      "outputs": [],
      "stateMutability": "nonpayable",
      "type": "function"
    },
    {
      "inputs": [
        {
          "internalType": "uint16",
          "name": "_commonSplit",
          "type": "uint16"
        }
      ],
      "name": "setSplit",
      "outputs": [],
      "stateMutability": "nonpayable",
      "type": "function"
    },
    {
      "inputs": [
        {
          "internalType": "address",
          "name": "_newForwarder",
          "type": "address"
        }
      ],
      "name": "setTrustedForwarder",
      "outputs": [],
      "stateMutability": "nonpayable",
      "type": "function"
    },
    {
      "inputs": [
        {
          "internalType": "bytes4",
          "name": "interfaceId",
          "type": "bytes4"
        }
      ],
      "name": "supportsInterface",
      "outputs": [
        {
          "internalType": "bool",
          "name": "",
          "type": "bool"
        }
      ],
      "stateMutability": "view",
      "type": "function"
    }
  ],
  "transactionHash": "0xc8d18d2571629bd0aa75b73ef7bbd7063baeda962de725727ca08c7be8c17d25",
  "args": [],
  "numDeployments": 1,
  "solcInputHash": "1eec541f458b49fa6b5654a4d6d459cd",
  "bytecode": "0x6080604052348015600f57600080fd5b506016601a565b60d7565b600054610100900460ff161560855760405162461bcd60e51b815260206004820152602760248201527f496e697469616c697a61626c653a20636f6e747261637420697320696e697469604482015266616c697a696e6760c81b606482015260840160405180910390fd5b60005460ff9081161460d5576000805460ff191660ff9081179091556040519081527f7f26b83ff96e1f2b6a682f133852f6798a09c465da95921460cefb38474024989060200160405180910390a15b565b611588806100e66000396000f3fe608060405234801561001057600080fd5b506004361061018e5760003560e01c8063733fc03d116100de578063ce1b815f11610097578063da74222811610071578063da7422281461042b578063db06fff51461043e578063ee48cd1b1461046a578063f06040b41461049157600080fd5b8063ce1b815f146103f4578063d0b72b9314610405578063d547741f1461041857600080fd5b8063733fc03d146103245780638b49fde71461033757806391d148541461037c578063a217fddf1461038f578063a86a28d114610397578063c0bd4cdd146103d057600080fd5b80632b8d5d771161014b5780633bbed4a0116101255780633bbed4a0146102cf57806341e42f30146102e257806366cb2063146102f5578063706ec2fe1461031c57600080fd5b80632b8d5d771461027c5780632f2ff15d146102a957806336568abe146102bc57600080fd5b806301ffc9a7146101935780630e902f9d146101bb57806311edb735146101d057806315a86f5e146101f1578063248a9ca3146102225780632725b15b14610253575b600080fd5b6101a66101a136600461118e565b6104a4565b60405190151581526020015b60405180910390f35b6101ce6101c93660046111df565b6104db565b005b6097546101de9061ffff1681565b60405161ffff90911681526020016101b2565b60975461020a906201000090046001600160a01b031681565b6040516001600160a01b0390911681526020016101b2565b61024561023036600461125f565b60009081526065602052604090206001015490565b6040519081526020016101b2565b61020a610261366004611278565b6099602052600090815260409020546001600160a01b031681565b6101de61028a366004611278565b6001600160a01b031660009081526098602052604090205461ffff1690565b6101ce6102b7366004611295565b61065a565b6101ce6102ca366004611295565b610684565b6101ce6102dd366004611278565b610702565b6101ce6102f0366004611278565b610716565b6102457fdcb0f28d7542ec49daa994e65691b787109a3a17ef48e6216b254a4f7b5b53b081565b6101de61093e565b6101ce6103323660046112c5565b610959565b604080518082018252600080825260209182015281518083019092526097546001600160a01b0362010000820416835261ffff16908201526040516101b291906112e0565b6101a661038a366004611295565b61096d565b610245600081565b60975433600090815260986020908152604091829020548251620100009094046001600160a01b0316845261ffff1690830152016101b2565b6101de6103de366004611278565b60986020526000908152604090205461ffff1681565b609b546001600160a01b031661020a565b6101ce610413366004611304565b610998565b6101ce610426366004611295565b610aa0565b6101ce610439366004611278565b610ac5565b61020a61044c366004611278565b6001600160a01b039081166000908152609960205260409020541690565b6102457fffb8dcece2f6b64cef8fad984b08e00059761f3f3f446db4dc9a4d398a6c19d581565b61020a61049f366004611339565b610ad9565b60006001600160e01b03198216637965db0b60e01b14806104d557506301ffc9a760e01b6001600160e01b03198316145b92915050565b600054610100900460ff16158080156104fb5750600054600160ff909116105b806105155750303b158015610515575060005460ff166001145b61057d5760405162461bcd60e51b815260206004820152602e60248201527f496e697469616c697a61626c653a20636f6e747261637420697320616c72656160448201526d191e481a5b9a5d1a585b1a5e995960921b60648201526084015b60405180910390fd5b6000805460ff1916600117905580156105a0576000805461ff0019166101001790555b6105a987610c0f565b6105b286610cd5565b6105bd600085610d9a565b6105e77fdcb0f28d7542ec49daa994e65691b787109a3a17ef48e6216b254a4f7b5b53b084610d9a565b609a80546001600160a01b0319166001600160a01b03871617905561060b82610e20565b8015610651576000805461ff0019169055604051600181527f7f26b83ff96e1f2b6a682f133852f6798a09c465da95921460cefb38474024989060200160405180910390a15b50505050505050565b60008281526065602052604090206001015461067581610e72565b61067f8383610d9a565b505050565b6001600160a01b03811633146106f45760405162461bcd60e51b815260206004820152602f60248201527f416363657373436f6e74726f6c3a2063616e206f6e6c792072656e6f756e636560448201526e103937b632b9903337b91039b2b63360891b6064820152608401610574565b6106fe8282610e7f565b5050565b600061070d81610e72565b6106fe82610c0f565b336000908152609960205260409020546001600160a01b0316806107925760405162461bcd60e51b815260206004820152602d60248201527f4d616e616765723a204e6f2073706c6974746572206465706c6f79656420666f60448201526c39103a34329031b932b0ba37b960991b6064820152608401610574565b6000816001600160a01b03166366d003ac6040518163ffffffff1660e01b8152600401602060405180830381865afa1580156107d2573d6000803e3d6000fd5b505050506040513d601f19601f820116820180604052508101906107f69190611367565b9050826001600160a01b0316816001600160a01b0316036108595760405162461bcd60e51b815260206004820152601e60248201527f4d616e616765723a20526563697069656e7420616c72656164792073657400006044820152606401610574565b604080516001808252818301909252600091816020015b60408051808201909152600080825260208201528152602001906001900390816108705790505090506040518060400160405280856001600160a01b03168152602001600061ffff16815250816000815181106108cf576108cf61139a565b60209081029190910101526040516360a1368760e11b81526001600160a01b0384169063c1426d0e906109069084906004016113b0565b600060405180830381600087803b15801561092057600080fd5b505af1158015610934573d6000803e3d6000fd5b5050505050505050565b6097546000906109549061ffff1661271061142b565b905090565b600061096481610e72565b6106fe82610cd5565b60009182526065602090815260408084206001600160a01b0393909316845291905290205460ff1690565b7fdcb0f28d7542ec49daa994e65691b787109a3a17ef48e6216b254a4f7b5b53b06109c281610e72565b61271061ffff831610610a3d5760405162461bcd60e51b815260206004820152603860248201527f4d616e616765723a20526f79616c74792063616e27742062652067726561746560448201527f72207468616e20546f74616c206261736520706f696e747300000000000000006064820152608401610574565b6001600160a01b038316600081815260986020908152604091829020805461ffff191661ffff871690811790915591519182527f7f9762123fb25c27c3aa0ecf56eeed3e1518bc8ee29086c7ff5dd6238a37c264910160405180910390a2505050565b600082815260656020526040902060010154610abb81610e72565b61067f8383610e7f565b6000610ad081610e72565b6106fe82610e20565b60007fffb8dcece2f6b64cef8fad984b08e00059761f3f3f446db4dc9a4d398a6c19d5610b0581610e72565b6001600160a01b0380851660009081526099602052604090205416915081610c0857609a54610b3c906001600160a01b0316610ee6565b60405163485cc95560e01b81526001600160a01b0385811660048301523060248301529193509083169063485cc95590604401600060405180830381600087803b158015610b8957600080fd5b505af1158015610b9d573d6000803e3d6000fd5b505050506001600160a01b0384811660008181526099602090815260409182902080546001600160a01b0319168786169081179091559151918252928616927f211fb797e8cc89486cf94b6bbcdf623b9742b3f191823122a2fa93e9589a6d24910160405180910390a35b5092915050565b6001600160a01b038116610c815760405162461bcd60e51b815260206004820152603360248201527f4d616e616765723a2043616e27742073657420636f6d6d6f6e20726563697069604482015272656e7420746f207a65726f206164647265737360681b6064820152608401610574565b6097805462010000600160b01b031916620100006001600160a01b038416908102919091179091556040517f9d900d71c28433348acb1bec780a061608a96b149370abce77fd54ba2d47940190600090a250565b61271061ffff821610610d505760405162461bcd60e51b815260206004820152603b60248201527f4d616e616765723a2043616e2774207365742073706c6974206772656174657260448201527f207468616e2074686520746f74616c20626173697320706f696e7400000000006064820152608401610574565b6097805461ffff191661ffff83169081179091556040519081527fb8dc7db64fd987e5b05af4eb247387c388b40222e3ecb8c029b8a62227d4d28b9060200160405180910390a150565b610da4828261096d565b6106fe5760008281526065602090815260408083206001600160a01b03851684529091529020805460ff19166001179055610ddc3390565b6001600160a01b0316816001600160a01b0316837f2f8788117e7eff1d82e926ec794901d17c78024a50270940304540a733656f0d60405160405180910390a45050565b609b80546001600160a01b038381166001600160a01b0319831681179093556040519116919082907fcf5a353bfd0527e34114d504be74108a364de84a629045c08c104fc5878097df90600090a35050565b610e7c8133610f80565b50565b610e89828261096d565b156106fe5760008281526065602090815260408083206001600160a01b0385168085529252808320805460ff1916905551339285917ff6391f5c32d9c69d2a47ea670b442974b53935d1edc7fd64eb21e047a839171b9190a45050565b6000763d602d80600a3d3981f3363d3d373d3d3d363d730000008260601b60e81c176000526e5af43d82803e903d91602b57fd5bf38260781b17602052603760096000f090506001600160a01b038116610f7b5760405162461bcd60e51b8152602060048201526016602482015275115490cc4c4d8dce8818dc99585d194819985a5b195960521b6044820152606401610574565b919050565b610f8a828261096d565b6106fe57610f9781610fd9565b610fa2836020610feb565b604051602001610fb3929190611469565b60408051601f198184030181529082905262461bcd60e51b8252610574916004016114de565b60606104d56001600160a01b03831660145b60606000610ffa836002611511565b611005906002611528565b67ffffffffffffffff81111561101d5761101d611384565b6040519080825280601f01601f191660200182016040528015611047576020820181803683370190505b509050600360fc1b816000815181106110625761106261139a565b60200101906001600160f81b031916908160001a905350600f60fb1b816001815181106110915761109161139a565b60200101906001600160f81b031916908160001a90535060006110b5846002611511565b6110c0906001611528565b90505b6001811115611138576f181899199a1a9b1b9c1cb0b131b232b360811b85600f16601081106110f4576110f461139a565b1a60f81b82828151811061110a5761110a61139a565b60200101906001600160f81b031916908160001a90535060049490941c936111318161153b565b90506110c3565b5083156111875760405162461bcd60e51b815260206004820181905260248201527f537472696e67733a20686578206c656e67746820696e73756666696369656e746044820152606401610574565b9392505050565b6000602082840312156111a057600080fd5b81356001600160e01b03198116811461118757600080fd5b6001600160a01b0381168114610e7c57600080fd5b803561ffff81168114610f7b57600080fd5b60008060008060008060c087890312156111f857600080fd5b8635611203816111b8565b9550611211602088016111cd565b94506040870135611221816111b8565b93506060870135611231816111b8565b92506080870135611241816111b8565b915060a0870135611251816111b8565b809150509295509295509295565b60006020828403121561127157600080fd5b5035919050565b60006020828403121561128a57600080fd5b8135611187816111b8565b600080604083850312156112a857600080fd5b8235915060208301356112ba816111b8565b809150509250929050565b6000602082840312156112d757600080fd5b611187826111cd565b81516001600160a01b0316815260208083015161ffff1690820152604081016104d5565b6000806040838503121561131757600080fd5b8235611322816111b8565b9150611330602084016111cd565b90509250929050565b6000806040838503121561134c57600080fd5b8235611357816111b8565b915060208301356112ba816111b8565b60006020828403121561137957600080fd5b8151611187816111b8565b634e487b7160e01b600052604160045260246000fd5b634e487b7160e01b600052603260045260246000fd5b602080825282518282018190526000918401906040840190835b8181101561140a576113f483855180516001600160a01b0316825260209081015161ffff16910152565b60209390930192604092909201916001016113ca565b509095945050505050565b634e487b7160e01b600052601160045260246000fd5b61ffff82811682821603908111156104d5576104d5611415565b60005b83811015611460578181015183820152602001611448565b50506000910152565b7f416363657373436f6e74726f6c3a206163636f756e74200000000000000000008152600083516114a1816017850160208801611445565b7001034b99036b4b9b9b4b733903937b6329607d1b60179184019182015283516114d2816028840160208801611445565b01602801949350505050565b60208152600082518060208401526114fd816040850160208701611445565b601f01601f19169190910160400192915050565b80820281158282048414176104d5576104d5611415565b808201808211156104d5576104d5611415565b60008161154a5761154a611415565b50600019019056fea26469706673582212201c319d496510c671bdfa037fe0f96c774005e50a6423f1f152979d62479f51e664736f6c634300081a0033",
  "devdoc": {
    "author": "The Sandbox",
    "events": {
      "Initialized(uint8)": {
        "details": "Triggered when the contract has been initialized or reinitialized."
      },
      "RoleAdminChanged(bytes32,bytes32,bytes32)": {
        "details": "Emitted when `newAdminRole` is set as ``role``'s admin role, replacing `previousAdminRole` `DEFAULT_ADMIN_ROLE` is the starting admin for all roles, despite {RoleAdminChanged} not being emitted signaling this. _Available since v3.1._"
      },
      "RoleGranted(bytes32,address,address)": {
        "details": "Emitted when `account` is granted `role`. `sender` is the account that originated the contract call, an admin role bearer except when using {AccessControl-_setupRole}."
      },
      "RoleRevoked(bytes32,address,address)": {
        "details": "Emitted when `account` is revoked `role`. `sender` is the account that originated the contract call:   - if using `revokeRole`, it is the admin role bearer   - if using `renounceRole`, it is the role bearer (i.e. `account`)"
      }
    },
    "kind": "dev",
    "methods": {
      "constructor": {
        "custom:oz-upgrades-unsafe-allow": "constructor",
        "details": "this protects the implementation contract from behing initialized."
      },
      "deploySplitter(address,address)": {
        "details": "should only called once per creator",
        "params": {
          "creator": "the address of the creator",
          "recipient": "the wallet of the recipient where they would receive their royalty"
        },
        "returns": {
          "creatorSplitterAddress": "splitter's address deployed for a creator"
        }
      },
      "getCommonRecipient()": {
        "returns": {
          "recipient": "which has the common recipient and split"
        }
      },
      "getContractRoyalty(address)": {
        "params": {
          "_contractAddress": "the address of the contract for which the royalty is required"
        },
        "returns": {
          "royaltyBps": "royalty bps of the contract"
        }
      },
      "getCreatorRoyaltySplitter(address)": {
        "params": {
          "creator": "the address of the creator"
        },
        "returns": {
          "creatorSplitterAddress": "splitter's address deployed for a creator"
        }
      },
      "getCreatorSplit()": {
        "returns": {
          "creatorSplit": "which is 10000 - commonSplit"
        }
      },
      "getRoleAdmin(bytes32)": {
        "details": "Returns the admin role that controls `role`. See {grantRole} and {revokeRole}. To change a role's admin, use {_setRoleAdmin}."
      },
      "getRoyaltyInfo()": {
        "returns": {
          "recipient": "address of common royalty recipient",
          "royaltySplit": "contract EIP2981 royalty bps"
        }
      },
      "getTrustedForwarder()": {
        "returns": {
          "trustedForwarder": "address of current TrustedForwarder"
        }
      },
      "grantRole(bytes32,address)": {
        "details": "Grants `role` to `account`. If `account` had not been already granted `role`, emits a {RoleGranted} event. Requirements: - the caller must have ``role``'s admin role. May emit a {RoleGranted} event."
      },
      "hasRole(bytes32,address)": {
        "details": "Returns `true` if `account` has been granted `role`."
      },
      "initialize(address,uint16,address,address,address,address)": {
        "details": "called during the deployment via the proxy.",
        "params": {
          "_commonRecipient": "the != address(0)common recipient for all the splitters",
          "_commonSplit": "split for the common recipient's and creator split would be 10000 - commonSplit",
          "contractRoyaltySetter": "the address of royalty setter of contract.",
          "managerAdmin": "address of RoyaltyManager contract.",
          "royaltySplitterCloneable": "address of cloneable splitter contract for royalties distribution",
          "trustedForwarder": "the trustedForwarder address for royalty splitters to use."
        }
      },
      "renounceRole(bytes32,address)": {
        "details": "Revokes `role` from the calling account. Roles are often managed via {grantRole} and {revokeRole}: this function's purpose is to provide a mechanism for accounts to lose their privileges if they are compromised (such as when a trusted device is misplaced). If the calling account had been revoked `role`, emits a {RoleRevoked} event. Requirements: - the caller must be `account`. May emit a {RoleRevoked} event."
      },
      "revokeRole(bytes32,address)": {
        "details": "Revokes `role` from `account`. If `account` had been granted `role`, emits a {RoleRevoked} event. Requirements: - the caller must have ``role``'s admin role. May emit a {RoleRevoked} event."
      },
      "setContractRoyalty(address,uint16)": {
        "details": "can only be called by contract royalty setter.",
        "params": {
          "_royaltyBps": "the royalty split for the EIP 2981",
          "contractAddress": "address of contract for which royalty is set"
        }
      },
      "setRecipient(address)": {
        "details": "can only be called by the admin",
        "params": {
          "_commonRecipient": "is the common recipient for all the splitters"
        }
      },
      "setRoyaltyRecipient(address)": {
        "details": "should be called by the creator. The bps is not set on the splitter as it is set here on manager contract.",
        "params": {
          "recipient": "new recipient wallet."
        }
      },
      "setSplit(uint16)": {
        "details": "can only be called by the admin.",
        "params": {
          "_commonSplit": "split for the common recipient and creators split would be 10000 - commonSplit"
        }
      },
      "setTrustedForwarder(address)": {
        "details": "can only be called by the admin new splitters will read this value",
        "params": {
          "_newForwarder": "is the new trusted forwarder address"
        }
      },
      "supportsInterface(bytes4)": {
        "details": "See {IERC165-supportsInterface}."
      }
    },
    "title": "RoyaltyManager",
    "version": 1
  },
  "userdoc": {
    "kind": "user",
    "methods": {
      "deploySplitter(address,address)": {
        "notice": "deploys splitter for creator"
      },
      "getCommonRecipient()": {
        "notice": "to be called by the splitters to get the common recipient and split"
      },
      "getContractRoyalty(address)": {
        "notice": "returns the EIP2981 royalty bps"
      },
      "getCreatorRoyaltySplitter(address)": {
        "notice": "returns the address of splitter of a creator."
      },
      "getCreatorSplit()": {
        "notice": "returns the amount of basis points allocated to the creator"
      },
      "getRoyaltyInfo()": {
        "notice": "returns the commonRecipient and EIP2981 royalty bps"
      },
      "getTrustedForwarder()": {
        "notice": "get the current trustedForwarder address"
      },
      "initialize(address,uint16,address,address,address,address)": {
        "notice": "initialization function for the deployment of contract"
      },
      "setContractRoyalty(address,uint16)": {
        "notice": "called to set the EIP 2981 royalty split"
      },
      "setRecipient(address)": {
        "notice": "sets the common recipient"
      },
      "setRoyaltyRecipient(address)": {
        "notice": "sets royalty recipient wallet"
      },
      "setSplit(uint16)": {
        "notice": "sets the common split"
      },
      "setTrustedForwarder(address)": {
        "notice": "sets the trustedForwarder address to be used by the splitters"
      }
    },
    "notice": "Registry contract to set the common Recipient and Split for the RoyaltySplitter. Also, to set the royalty info for contracts that don't use the RoyaltySplitter.",
    "version": 1
  },
  "storageLayout": {
    "storage": [
      {
        "astId": 723,
        "contract": "@sandbox-smart-contracts/dependency-royalty-management/contracts/RoyaltyManager.sol:RoyaltyManager",
        "label": "_initialized",
        "offset": 0,
        "slot": "0",
        "type": "t_uint8"
      },
      {
        "astId": 726,
        "contract": "@sandbox-smart-contracts/dependency-royalty-management/contracts/RoyaltyManager.sol:RoyaltyManager",
        "label": "_initializing",
        "offset": 1,
        "slot": "0",
        "type": "t_bool"
      },
      {
        "astId": 1265,
        "contract": "@sandbox-smart-contracts/dependency-royalty-management/contracts/RoyaltyManager.sol:RoyaltyManager",
        "label": "__gap",
        "offset": 0,
        "slot": "1",
        "type": "t_array(t_uint256)50_storage"
      },
      {
        "astId": 1539,
        "contract": "@sandbox-smart-contracts/dependency-royalty-management/contracts/RoyaltyManager.sol:RoyaltyManager",
        "label": "__gap",
        "offset": 0,
        "slot": "51",
        "type": "t_array(t_uint256)50_storage"
      },
      {
        "astId": 183,
        "contract": "@sandbox-smart-contracts/dependency-royalty-management/contracts/RoyaltyManager.sol:RoyaltyManager",
        "label": "_roles",
        "offset": 0,
        "slot": "101",
        "type": "t_mapping(t_bytes32,t_struct(RoleData)178_storage)"
      },
      {
        "astId": 490,
        "contract": "@sandbox-smart-contracts/dependency-royalty-management/contracts/RoyaltyManager.sol:RoyaltyManager",
        "label": "__gap",
        "offset": 0,
        "slot": "102",
        "type": "t_array(t_uint256)49_storage"
      },
      {
        "astId": 3862,
        "contract": "@sandbox-smart-contracts/dependency-royalty-management/contracts/RoyaltyManager.sol:RoyaltyManager",
        "label": "commonSplit",
        "offset": 0,
        "slot": "151",
        "type": "t_uint16"
      },
      {
        "astId": 3864,
        "contract": "@sandbox-smart-contracts/dependency-royalty-management/contracts/RoyaltyManager.sol:RoyaltyManager",
        "label": "commonRecipient",
        "offset": 2,
        "slot": "151",
        "type": "t_address_payable"
      },
      {
        "astId": 3868,
        "contract": "@sandbox-smart-contracts/dependency-royalty-management/contracts/RoyaltyManager.sol:RoyaltyManager",
        "label": "contractRoyalty",
        "offset": 0,
        "slot": "152",
        "type": "t_mapping(t_address,t_uint16)"
      },
      {
        "astId": 3872,
        "contract": "@sandbox-smart-contracts/dependency-royalty-management/contracts/RoyaltyManager.sol:RoyaltyManager",
        "label": "creatorRoyaltiesSplitter",
        "offset": 0,
        "slot": "153",
        "type": "t_mapping(t_address,t_address_payable)"
      },
      {
        "astId": 3874,
        "contract": "@sandbox-smart-contracts/dependency-royalty-management/contracts/RoyaltyManager.sol:RoyaltyManager",
        "label": "_royaltySplitterCloneable",
        "offset": 0,
        "slot": "154",
        "type": "t_address"
      },
      {
        "astId": 3876,
        "contract": "@sandbox-smart-contracts/dependency-royalty-management/contracts/RoyaltyManager.sol:RoyaltyManager",
        "label": "_trustedForwarder",
        "offset": 0,
        "slot": "155",
        "type": "t_address"
      },
      {
        "astId": 4278,
        "contract": "@sandbox-smart-contracts/dependency-royalty-management/contracts/RoyaltyManager.sol:RoyaltyManager",
        "label": "__gap",
        "offset": 0,
        "slot": "156",
        "type": "t_array(t_uint256)44_storage"
      }
    ],
    "types": {
      "t_address": {
        "encoding": "inplace",
        "label": "address",
        "numberOfBytes": "20"
      },
      "t_address_payable": {
        "encoding": "inplace",
        "label": "address payable",
        "numberOfBytes": "20"
      },
      "t_array(t_uint256)44_storage": {
        "base": "t_uint256",
        "encoding": "inplace",
        "label": "uint256[44]",
        "numberOfBytes": "1408"
      },
      "t_array(t_uint256)49_storage": {
        "base": "t_uint256",
        "encoding": "inplace",
        "label": "uint256[49]",
        "numberOfBytes": "1568"
      },
      "t_array(t_uint256)50_storage": {
        "base": "t_uint256",
        "encoding": "inplace",
        "label": "uint256[50]",
        "numberOfBytes": "1600"
      },
      "t_bool": {
        "encoding": "inplace",
        "label": "bool",
        "numberOfBytes": "1"
      },
      "t_bytes32": {
        "encoding": "inplace",
        "label": "bytes32",
        "numberOfBytes": "32"
      },
      "t_mapping(t_address,t_address_payable)": {
        "encoding": "mapping",
        "key": "t_address",
        "label": "mapping(address => address payable)",
        "numberOfBytes": "32",
        "value": "t_address_payable"
      },
      "t_mapping(t_address,t_bool)": {
        "encoding": "mapping",
        "key": "t_address",
        "label": "mapping(address => bool)",
        "numberOfBytes": "32",
        "value": "t_bool"
      },
      "t_mapping(t_address,t_uint16)": {
        "encoding": "mapping",
        "key": "t_address",
        "label": "mapping(address => uint16)",
        "numberOfBytes": "32",
        "value": "t_uint16"
      },
      "t_mapping(t_bytes32,t_struct(RoleData)178_storage)": {
        "encoding": "mapping",
        "key": "t_bytes32",
        "label": "mapping(bytes32 => struct AccessControlUpgradeable.RoleData)",
        "numberOfBytes": "32",
        "value": "t_struct(RoleData)178_storage"
      },
      "t_struct(RoleData)178_storage": {
        "encoding": "inplace",
        "label": "struct AccessControlUpgradeable.RoleData",
        "members": [
          {
            "astId": 175,
            "contract": "@sandbox-smart-contracts/dependency-royalty-management/contracts/RoyaltyManager.sol:RoyaltyManager",
            "label": "members",
            "offset": 0,
            "slot": "0",
            "type": "t_mapping(t_address,t_bool)"
          },
          {
            "astId": 177,
            "contract": "@sandbox-smart-contracts/dependency-royalty-management/contracts/RoyaltyManager.sol:RoyaltyManager",
            "label": "adminRole",
            "offset": 0,
            "slot": "1",
            "type": "t_bytes32"
          }
        ],
        "numberOfBytes": "64"
      },
      "t_uint16": {
        "encoding": "inplace",
        "label": "uint16",
        "numberOfBytes": "2"
      },
      "t_uint256": {
        "encoding": "inplace",
        "label": "uint256",
        "numberOfBytes": "32"
      },
      "t_uint8": {
        "encoding": "inplace",
        "label": "uint8",
        "numberOfBytes": "1"
      }
    }
  }
}