{
  "address": "0xae7C80525e26113c4d61FB9D1d68615E86A80885",
  "abi": [
    {
      "anonymous": false,
      "inputs": [
        {
          "indexed": false,
          "internalType": "address",
          "name": "oldAdmin",
          "type": "address"
        },
        {
          "indexed": false,
          "internalType": "address",
          "name": "newAdmin",
          "type": "address"
        }
      ],
      "name": "AdminChanged",
      "type": "event"
    },
    {
      "anonymous": false,
      "inputs": [
        {
          "indexed": true,
          "internalType": "address",
          "name": "account",
          "type": "address"
        },
        {
          "indexed": true,
          "internalType": "address",
          "name": "operator",
          "type": "address"
        },
        {
          "indexed": false,
          "internalType": "bool",
          "name": "approved",
          "type": "bool"
        }
      ],
      "name": "ApprovalForAll",
      "type": "event"
    },
    {
      "anonymous": false,
      "inputs": [
        {
          "indexed": false,
          "internalType": "contract IAssetERC721",
          "name": "assetERC721",
          "type": "address"
        }
      ],
      "name": "AssetERC721Set",
      "type": "event"
    },
    {
      "anonymous": false,
      "inputs": [
        {
          "indexed": false,
          "internalType": "address",
          "name": "bouncer",
          "type": "address"
        },
        {
          "indexed": false,
          "internalType": "bool",
          "name": "enabled",
          "type": "bool"
        }
      ],
      "name": "Bouncer",
      "type": "event"
    },
    {
      "anonymous": false,
      "inputs": [
        {
          "indexed": false,
          "internalType": "address",
          "name": "oldBouncerAdmin",
          "type": "address"
        },
        {
          "indexed": false,
          "internalType": "address",
          "name": "newBouncerAdmin",
          "type": "address"
        }
      ],
      "name": "BouncerAdminChanged",
      "type": "event"
    },
    {
      "anonymous": false,
      "inputs": [
        {
          "indexed": true,
          "internalType": "uint256",
          "name": "id",
          "type": "uint256"
        },
        {
          "indexed": true,
          "internalType": "uint256",
          "name": "newId",
          "type": "uint256"
        }
      ],
      "name": "Extraction",
      "type": "event"
    },
    {
      "anonymous": false,
      "inputs": [
        {
          "indexed": false,
          "internalType": "address",
          "name": "predicate",
          "type": "address"
        }
      ],
      "name": "PredicateSet",
      "type": "event"
    },
    {
      "anonymous": false,
      "inputs": [
        {
          "indexed": false,
          "internalType": "address",
          "name": "superOperator",
          "type": "address"
        },
        {
          "indexed": false,
          "internalType": "bool",
          "name": "enabled",
          "type": "bool"
        }
      ],
      "name": "SuperOperator",
      "type": "event"
    },
    {
      "anonymous": false,
      "inputs": [
        {
          "indexed": true,
          "internalType": "address",
          "name": "operator",
          "type": "address"
        },
        {
          "indexed": true,
          "internalType": "address",
          "name": "from",
          "type": "address"
        },
        {
          "indexed": true,
          "internalType": "address",
          "name": "to",
          "type": "address"
        },
        {
          "indexed": false,
          "internalType": "uint256[]",
          "name": "ids",
          "type": "uint256[]"
        },
        {
          "indexed": false,
          "internalType": "uint256[]",
          "name": "values",
          "type": "uint256[]"
        }
      ],
      "name": "TransferBatch",
      "type": "event"
    },
    {
      "anonymous": false,
      "inputs": [
        {
          "indexed": true,
          "internalType": "address",
          "name": "operator",
          "type": "address"
        },
        {
          "indexed": true,
          "internalType": "address",
          "name": "from",
          "type": "address"
        },
        {
          "indexed": true,
          "internalType": "address",
          "name": "to",
          "type": "address"
        },
        {
          "indexed": false,
          "internalType": "uint256",
          "name": "id",
          "type": "uint256"
        },
        {
          "indexed": false,
          "internalType": "uint256",
          "name": "value",
          "type": "uint256"
        }
      ],
      "name": "TransferSingle",
      "type": "event"
    },
    {
      "anonymous": false,
      "inputs": [
        {
          "indexed": false,
          "internalType": "string",
          "name": "value",
          "type": "string"
        },
        {
          "indexed": true,
          "internalType": "uint256",
          "name": "id",
          "type": "uint256"
        }
      ],
      "name": "URI",
      "type": "event"
    },
    {
      "inputs": [],
      "name": "_assetERC721",
      "outputs": [
        {
          "internalType": "contract IAssetERC721",
          "name": "",
          "type": "address"
        }
      ],
      "stateMutability": "view",
      "type": "function"
    },
    {
      "inputs": [
        {
          "internalType": "address",
          "name": "owner",
          "type": "address"
        },
        {
          "internalType": "uint256",
          "name": "id",
          "type": "uint256"
        }
      ],
      "name": "balanceOf",
      "outputs": [
        {
          "internalType": "uint256",
          "name": "",
          "type": "uint256"
        }
      ],
      "stateMutability": "view",
      "type": "function"
    },
    {
      "inputs": [
        {
          "internalType": "address[]",
          "name": "owners",
          "type": "address[]"
        },
        {
          "internalType": "uint256[]",
          "name": "ids",
          "type": "uint256[]"
        }
      ],
      "name": "balanceOfBatch",
      "outputs": [
        {
          "internalType": "uint256[]",
          "name": "",
          "type": "uint256[]"
        }
      ],
      "stateMutability": "view",
      "type": "function"
    },
    {
      "inputs": [
        {
          "internalType": "uint256",
          "name": "id",
          "type": "uint256"
        },
        {
          "internalType": "uint256",
          "name": "amount",
          "type": "uint256"
        }
      ],
      "name": "burn",
      "outputs": [],
      "stateMutability": "nonpayable",
      "type": "function"
    },
    {
      "inputs": [
        {
          "internalType": "address",
          "name": "from",
          "type": "address"
        },
        {
          "internalType": "uint256",
          "name": "id",
          "type": "uint256"
        },
        {
          "internalType": "uint256",
          "name": "amount",
          "type": "uint256"
        }
      ],
      "name": "burnFrom",
      "outputs": [],
      "stateMutability": "nonpayable",
      "type": "function"
    },
    {
      "inputs": [
        {
          "internalType": "address",
          "name": "newAdmin",
          "type": "address"
        }
      ],
      "name": "changeAdmin",
      "outputs": [],
      "stateMutability": "nonpayable",
      "type": "function"
    },
    {
      "inputs": [
        {
          "internalType": "address",
          "name": "newBouncerAdmin",
          "type": "address"
        }
      ],
      "name": "changeBouncerAdmin",
      "outputs": [],
      "stateMutability": "nonpayable",
      "type": "function"
    },
    {
      "inputs": [
        {
          "internalType": "uint256",
          "name": "id",
          "type": "uint256"
        }
      ],
      "name": "collectionIndexOf",
      "outputs": [
        {
          "internalType": "uint256",
          "name": "",
          "type": "uint256"
        }
      ],
      "stateMutability": "view",
      "type": "function"
    },
    {
      "inputs": [
        {
          "internalType": "uint256",
          "name": "id",
          "type": "uint256"
        }
      ],
      "name": "collectionOf",
      "outputs": [
        {
          "internalType": "uint256",
          "name": "",
          "type": "uint256"
        }
      ],
      "stateMutability": "view",
      "type": "function"
    },
    {
      "inputs": [
        {
          "internalType": "address",
          "name": "sender",
          "type": "address"
        },
        {
          "internalType": "uint256",
          "name": "id",
          "type": "uint256"
        },
        {
          "internalType": "address",
          "name": "to",
          "type": "address"
        }
      ],
      "name": "extractERC721From",
      "outputs": [
        {
          "internalType": "uint256",
          "name": "",
          "type": "uint256"
        }
      ],
      "stateMutability": "nonpayable",
      "type": "function"
    },
    {
      "inputs": [],
      "name": "getAdmin",
      "outputs": [
        {
          "internalType": "address",
          "name": "",
          "type": "address"
        }
      ],
      "stateMutability": "view",
      "type": "function"
    },
    {
      "inputs": [],
      "name": "getBouncerAdmin",
      "outputs": [
        {
          "internalType": "address",
          "name": "",
          "type": "address"
        }
      ],
      "stateMutability": "view",
      "type": "function"
    },
    {
      "inputs": [],
      "name": "getTrustedForwarder",
      "outputs": [
        {
          "internalType": "address",
          "name": "",
          "type": "address"
        }
      ],
      "stateMutability": "view",
      "type": "function"
    },
    {
      "inputs": [
        {
          "internalType": "address",
          "name": "trustedForwarder",
          "type": "address"
        },
        {
          "internalType": "address",
          "name": "admin",
          "type": "address"
        },
        {
          "internalType": "address",
          "name": "bouncerAdmin",
          "type": "address"
        },
        {
          "internalType": "contract IAssetERC721",
          "name": "assetERC721",
          "type": "address"
        },
        {
          "internalType": "uint8",
          "name": "chainIndex",
          "type": "uint8"
        }
      ],
      "name": "init",
      "outputs": [],
      "stateMutability": "nonpayable",
      "type": "function"
    },
    {
      "inputs": [
        {
          "internalType": "address",
          "name": "trustedForwarder",
          "type": "address"
        },
        {
          "internalType": "address",
          "name": "admin",
          "type": "address"
        },
        {
          "internalType": "address",
          "name": "bouncerAdmin",
          "type": "address"
        },
        {
          "internalType": "contract IAssetERC721",
          "name": "assetERC721",
          "type": "address"
        },
        {
          "internalType": "uint8",
          "name": "chainIndex",
          "type": "uint8"
        }
      ],
      "name": "initialize",
      "outputs": [],
      "stateMutability": "nonpayable",
      "type": "function"
    },
    {
      "inputs": [
        {
          "internalType": "address",
          "name": "owner",
          "type": "address"
        },
        {
          "internalType": "address",
          "name": "operator",
          "type": "address"
        }
      ],
      "name": "isApprovedForAll",
      "outputs": [
        {
          "internalType": "bool",
          "name": "isOperator",
          "type": "bool"
        }
      ],
      "stateMutability": "view",
      "type": "function"
    },
    {
      "inputs": [
        {
          "internalType": "address",
          "name": "who",
          "type": "address"
        }
      ],
      "name": "isBouncer",
      "outputs": [
        {
          "internalType": "bool",
          "name": "",
          "type": "bool"
        }
      ],
      "stateMutability": "view",
      "type": "function"
    },
    {
      "inputs": [
        {
          "internalType": "uint256",
          "name": "id",
          "type": "uint256"
        }
      ],
      "name": "isCollection",
      "outputs": [
        {
          "internalType": "bool",
          "name": "",
          "type": "bool"
        }
      ],
      "stateMutability": "view",
      "type": "function"
    },
    {
      "inputs": [
        {
          "internalType": "address",
          "name": "who",
          "type": "address"
        }
      ],
      "name": "isSuperOperator",
      "outputs": [
        {
          "internalType": "bool",
          "name": "",
          "type": "bool"
        }
      ],
      "stateMutability": "view",
      "type": "function"
    },
    {
      "inputs": [
        {
          "internalType": "address",
          "name": "forwarder",
          "type": "address"
        }
      ],
      "name": "isTrustedForwarder",
      "outputs": [
        {
          "internalType": "bool",
          "name": "",
          "type": "bool"
        }
      ],
      "stateMutability": "view",
      "type": "function"
    },
    {
      "inputs": [
        {
          "internalType": "address",
          "name": "account",
          "type": "address"
        },
        {
          "internalType": "uint256",
          "name": "id",
          "type": "uint256"
        },
        {
          "internalType": "uint256",
          "name": "amount",
          "type": "uint256"
        },
        {
          "internalType": "bytes",
          "name": "data",
          "type": "bytes"
        }
      ],
      "name": "mint",
      "outputs": [],
      "stateMutability": "nonpayable",
      "type": "function"
    },
    {
      "inputs": [
        {
          "internalType": "address",
          "name": "creator",
          "type": "address"
        },
        {
          "internalType": "uint40",
          "name": "packId",
          "type": "uint40"
        },
        {
          "internalType": "bytes32",
          "name": "hash",
          "type": "bytes32"
        },
        {
          "internalType": "uint256",
          "name": "supply",
          "type": "uint256"
        },
        {
          "internalType": "address",
          "name": "owner",
          "type": "address"
        },
        {
          "internalType": "bytes",
          "name": "data",
          "type": "bytes"
        }
      ],
      "name": "mint",
      "outputs": [
        {
          "internalType": "uint256",
          "name": "id",
          "type": "uint256"
        }
      ],
      "stateMutability": "nonpayable",
      "type": "function"
    },
    {
      "inputs": [
        {
          "internalType": "address",
          "name": "to",
          "type": "address"
        },
        {
          "internalType": "uint256[]",
          "name": "ids",
          "type": "uint256[]"
        },
        {
          "internalType": "uint256[]",
          "name": "amounts",
          "type": "uint256[]"
        },
        {
          "internalType": "bytes",
          "name": "data",
          "type": "bytes"
        }
      ],
      "name": "mintMultiple",
      "outputs": [],
      "stateMutability": "nonpayable",
      "type": "function"
    },
    {
      "inputs": [],
      "name": "name",
      "outputs": [
        {
          "internalType": "string",
          "name": "_name",
          "type": "string"
        }
      ],
      "stateMutability": "pure",
      "type": "function"
    },
    {
      "inputs": [
        {
          "internalType": "address",
          "name": "from",
          "type": "address"
        },
        {
          "internalType": "address",
          "name": "to",
          "type": "address"
        },
        {
          "internalType": "uint256[]",
          "name": "ids",
          "type": "uint256[]"
        },
        {
          "internalType": "uint256[]",
          "name": "values",
          "type": "uint256[]"
        },
        {
          "internalType": "bytes",
          "name": "data",
          "type": "bytes"
        }
      ],
      "name": "safeBatchTransferFrom",
      "outputs": [],
      "stateMutability": "nonpayable",
      "type": "function"
    },
    {
      "inputs": [
        {
          "internalType": "address",
          "name": "from",
          "type": "address"
        },
        {
          "internalType": "address",
          "name": "to",
          "type": "address"
        },
        {
          "internalType": "uint256",
          "name": "id",
          "type": "uint256"
        },
        {
          "internalType": "uint256",
          "name": "value",
          "type": "uint256"
        },
        {
          "internalType": "bytes",
          "name": "data",
          "type": "bytes"
        }
      ],
      "name": "safeTransferFrom",
      "outputs": [],
      "stateMutability": "nonpayable",
      "type": "function"
    },
    {
      "inputs": [
        {
          "internalType": "address",
          "name": "operator",
          "type": "address"
        },
        {
          "internalType": "bool",
          "name": "approved",
          "type": "bool"
        }
      ],
      "name": "setApprovalForAll",
      "outputs": [],
      "stateMutability": "nonpayable",
      "type": "function"
    },
    {
      "inputs": [
        {
          "internalType": "address",
          "name": "sender",
          "type": "address"
        },
        {
          "internalType": "address",
          "name": "operator",
          "type": "address"
        },
        {
          "internalType": "bool",
          "name": "approved",
          "type": "bool"
        }
      ],
      "name": "setApprovalForAllFor",
      "outputs": [],
      "stateMutability": "nonpayable",
      "type": "function"
    },
    {
      "inputs": [
        {
          "internalType": "contract IAssetERC721",
          "name": "assetERC721",
          "type": "address"
        }
      ],
      "name": "setAssetERC721",
      "outputs": [
        {
          "internalType": "bool",
          "name": "",
          "type": "bool"
        }
      ],
      "stateMutability": "nonpayable",
      "type": "function"
    },
    {
      "inputs": [
        {
          "internalType": "address",
          "name": "bouncer",
          "type": "address"
        },
        {
          "internalType": "bool",
          "name": "enabled",
          "type": "bool"
        }
      ],
      "name": "setBouncer",
      "outputs": [],
      "stateMutability": "nonpayable",
      "type": "function"
    },
    {
      "inputs": [
        {
          "internalType": "address",
          "name": "predicate",
          "type": "address"
        }
      ],
      "name": "setPredicate",
      "outputs": [],
      "stateMutability": "nonpayable",
      "type": "function"
    },
    {
      "inputs": [
        {
          "internalType": "address",
          "name": "superOperator",
          "type": "address"
        },
        {
          "internalType": "bool",
          "name": "enabled",
          "type": "bool"
        }
      ],
      "name": "setSuperOperator",
      "outputs": [],
      "stateMutability": "nonpayable",
      "type": "function"
    },
    {
      "inputs": [
        {
          "internalType": "bytes4",
          "name": "id",
          "type": "bytes4"
        }
      ],
      "name": "supportsInterface",
      "outputs": [
        {
          "internalType": "bool",
          "name": "",
          "type": "bool"
        }
      ],
      "stateMutability": "pure",
      "type": "function"
    },
    {
      "inputs": [],
      "name": "symbol",
      "outputs": [
        {
          "internalType": "string",
          "name": "_symbol",
          "type": "string"
        }
      ],
      "stateMutability": "pure",
      "type": "function"
    },
    {
      "inputs": [
        {
          "internalType": "uint256",
          "name": "id",
          "type": "uint256"
        }
      ],
      "name": "tokenURI",
      "outputs": [
        {
          "internalType": "string",
          "name": "",
          "type": "string"
        }
      ],
      "stateMutability": "view",
      "type": "function"
    },
    {
      "inputs": [
        {
          "internalType": "uint256",
          "name": "id",
          "type": "uint256"
        }
      ],
      "name": "wasEverMinted",
      "outputs": [
        {
          "internalType": "bool",
          "name": "",
          "type": "bool"
        }
      ],
      "stateMutability": "view",
      "type": "function"
    }
  ],
  "transactionHash": "0x599c811e977e2621207f3f9c6cd2262e89be7b3ea57d3fdf731716b7a8d6ccef",
  "args": [],
  "numDeployments": 2,
  "solcInputHash": "8bc6593f86e06c77b2d62641ad6af9b6",
  "bytecode": "0x608060405234801561001057600080fd5b50614004806100206000396000f3fe608060405234801561001057600080fd5b506004361061025a5760003560e01c806398fbde6411610145578063c87b56dd116100bd578063d9f37f8e1161008c578063eeb5a5d111610071578063eeb5a5d114610599578063f242432a146105ac578063ff23be53146105bf5761025a565b8063d9f37f8e14610573578063e985e9c5146105865761025a565b8063c87b56dd1461050b578063ce1b815f1461051e578063d12e76d01461052f578063d402756e146105425761025a565b8063b390c0ab11610114578063bd9ff41b116100f9578063bd9ff41b146104d2578063c0d24150146104e5578063c7778baa146104f85761025a565b8063b390c0ab146104ac578063b9b75ebc146104bf5761025a565b806398fbde64146104625780639bc88b9c14610475578063a22cb46514610486578063ac9fe421146104995761025a565b80634c4d07e7116101d85780636e9960c3116101a757806376596d211161018c57806376596d21146104035780638f2839701461041657806395d89b41146104295761025a565b80636e9960c3146103cb578063731133e9146103f05761025a565b80634c4d07e7146103315780634e1273f41461035d578063572b6c051461037d578063654b748a1461039f5761025a565b806306fdde031161022f5780632e712b46116102145780632e712b46146102f85780632eb2c2d61461030b57806331e5361f1461031e5761025a565b806306fdde03146102d0578063124d91e5146102e55761025a565b80628c26761461025f578062fdd58e1461027457806301ffc9a71461029a578063049476df146102bd575b600080fd5b61027261026d3660046134b2565b6105d2565b005b61028761028236600461377f565b6105e6565b6040519081526020015b60405180910390f35b6102ad6102a8366004613a32565b61069e565b6040519015158152602001610291565b6102726102cb36600461345e565b610771565b6102d86108cd565b6040516102919190613ced565b6102726102f33660046137eb565b610905565b610287610306366004613a1a565b61098f565b610272610319366004613527565b6109a8565b6102ad61032c36600461345e565b610cb9565b6102ad61033f36600461345e565b6001600160a01b03166000908152600b602052604090205460ff1690565b61037061036b36600461390a565b610d86565b6040516102919190613cb5565b6102ad61038b36600461345e565b6010546001600160a01b0390811691161490565b6102ad6103ad36600461345e565b6001600160a01b031660009081526001602052604090205460ff1690565b6000546001600160a01b03165b6040516001600160a01b039091168152602001610291565b6102726103fe36600461381f565b610ee2565b6102726104113660046134b2565b61109b565b61027261042436600461345e565b61114c565b60408051808201909152600581527f415353455400000000000000000000000000000000000000000000000000000060208201526102d8565b610287610470366004613887565b61121c565b600d546001600160a01b03166103d8565b61027261049436600461374b565b6113e4565b6102726104a736600461374b565b6113fa565b6102726104ba366004613af1565b6114de565b6102726104cd36600461374b565b6114f0565b6102ad6104e0366004613a1a565b6115b6565b6102726104f33660046136a2565b6115f0565b610287610506366004613a1a565b611886565b6102d8610519366004613a1a565b611974565b6010546001600160a01b03166103d8565b61027261053d36600461345e565b611ab1565b6102ad610550366004613a1a565b6bffffffff80000000000007ff1916600090815260076020526040902054151590565b6011546103d8906001600160a01b031681565b6102ad61059436600461347a565b611b7c565b6102726105a73660046135e2565b611c7a565b6102726105ba366004613628565b611d1d565b6102876105cd3660046137aa565b611e7a565b6105df858585858561109b565b5050505050565b6bffffffff80000000000007ff1981166000908152600760205260408120546106565760405162461bcd60e51b815260206004820152601660248201527f746f6b656e20776173206e65766572206d696e7465640000000000000000000060448201526064015b60405180910390fd5b60008061066284612109565b6001600160a01b038716600090815260046020908152604080832085845290915290205491935091506106959082612134565b95945050505050565b60007f01ffc9a7000000000000000000000000000000000000000000000000000000006001600160e01b03198316148061070157507fd9b67a26000000000000000000000000000000000000000000000000000000006001600160e01b03198316145b8061073557507f0e89341c000000000000000000000000000000000000000000000000000000006001600160e01b03198316145b8061076957507f9930ed5a000000000000000000000000000000000000000000000000000000006001600160e01b03198316145b90505b919050565b600d546001600160a01b0316610785612179565b6001600160a01b0316146107db5760405162461bcd60e51b815260206004820152600e60248201527f21424f554e4345525f41444d494e000000000000000000000000000000000000604482015260640161064d565b6001600160a01b0381166108575760405162461bcd60e51b815260206004820152603960248201527f417373657442617365455243313135353a206e657720626f756e63657220616460448201527f6d696e2063616e2774206265207a65726f206164647265737300000000000000606482015260840161064d565b600d54604080516001600160a01b03928316815291831660208301527f1bab6ababbec5519512e9ee16964953ec0f72839126138285cac1f1136bd642e910160405180910390a1600d805473ffffffffffffffffffffffffffffffffffffffff19166001600160a01b0392909216919091179055565b60408051808201909152601081527f53616e64626f782773204153534554730000000000000000000000000000000060208201525b90565b61090d612179565b6001600160a01b0316836001600160a01b03161480610933575061093383610594612179565b61097f5760405162461bcd60e51b815260206004820152600b60248201527f21415554484f52495a4544000000000000000000000000000000000000000000604482015260640161064d565b61098a8383836121c3565b505050565b600061099a82611886565b5050603f1c63ffffffff1690565b8483146109f75760405162461bcd60e51b815260206004820152601260248201527f4d49534d4154434845445f4152525f4c454e0000000000000000000000000000604482015260640161064d565b6001600160a01b038716610a355760405162461bcd60e51b81526020600482015260056024820152640544f3d3d360dc1b604482015260640161064d565b6001600160a01b038816610a8b5760405162461bcd60e51b815260206004820152600760248201527f46524f4d3d3d3000000000000000000000000000000000000000000000000000604482015260640161064d565b6010546001600160a01b031633146000610aa3612179565b6001600160a01b03168a6001600160a01b03161480610ac95750610ac98a610594612179565b9050610b3c8a8a8a8a8080602002602001604051908101604052809392919081815260200183836020028082843760009201919091525050604080516020808e0282810182019093528d82529093508d92508c9182918501908490808284376000920191909152508892506122a5915050565b886001600160a01b03168a6001600160a01b031683610b6257610b5d612179565b610b64565b8b5b6001600160a01b03167f4a39dc06d4c0dbc64b70af90fd698a233a518aa5d07e595d983b8c0526c8f7fb8b8b8b8b604051610ba29493929190613c8e565b60405180910390a4610c6182610bbf57610bba612179565b610bc1565b8a5b8b8b8b8b8080602002602001604051908101604052809392919081815260200183836020028082843760009201919091525050604080516020808f0282810182019093528e82529093508e92508d91829185019084908082843760009201919091525050604080516020601f8e018190048102820181019092528c815292508c91508b908190840183828082843760009201919091525061260f92505050565b610cad5760405162461bcd60e51b815260206004820152601660248201527f313135355f5452414e534645525f52454a454354454400000000000000000000604482015260640161064d565b50505050505050505050565b6000610cc3612179565b6000546001600160a01b03908116911614610d205760405162461bcd60e51b815260206004820152600a60248201527f415554484f52495a454400000000000000000000000000000000000000000000604482015260640161064d565b6011805473ffffffffffffffffffffffffffffffffffffffff19166001600160a01b0384169081179091556040519081527f5a91617bd1e0deac2e7e6f6fbd384ff93d50ab3d50b6f3cec6b7979a7b5c9de09060200160405180910390a1506001919050565b6060838214610dd75760405162461bcd60e51b815260206004820152601360248201527f4152475f4c454e4754485f4d49534d4154434800000000000000000000000000604482015260640161064d565b60008267ffffffffffffffff811115610e0057634e487b7160e01b600052604160045260246000fd5b604051908082528060200260200182016040528015610e29578160200160208202803683370190505b50905060005b83811015610ed857610e9b878783818110610e5a57634e487b7160e01b600052603260045260246000fd5b9050602002016020810190610e6f919061345e565b868684818110610e8f57634e487b7160e01b600052603260045260246000fd5b905060200201356105e6565b828281518110610ebb57634e487b7160e01b600052603260045260246000fd5b602090810291909101015280610ed081613f2f565b915050610e2f565b5095945050505050565b600f546001600160a01b0316610ef6612179565b6001600160a01b031614610f4c5760405162461bcd60e51b815260206004820152600a60248201527f2150524544494341544500000000000000000000000000000000000000000000604482015260640161064d565b80610f995760405162461bcd60e51b815260206004820152601060248201527f4d455441444154415f4d495353494e4700000000000000000000000000000000604482015260640161064d565b6001600160a01b038516610fd75760405162461bcd60e51b81526020600482015260056024820152640544f3d3d360dc1b604482015260640161064d565b6bffffffff80000000000007ff1984166000818152600760205260409020541561102e5760405162461bcd60e51b815260206004820152600860248201526724a22faa20a5a2a760c11b604482015260640161064d565b61103a82840184613a1a565b600082815260076020526040902055611093611054612179565b87878787878080601f01602080910402602001604051908101604052809392919081815260200183838082843760009201919091525061270492505050565b505050505050565b6110a56001612806565b6000805473ffffffffffffffffffffffffffffffffffffffff199081166001600160a01b0387811691909117909255600d8054821686841617905560118054821685841617905560108054909116918716919091179055600f805460ff90921674010000000000000000000000000000000000000000027fffffffffffffffffffffff00ffffffffffffffffffffffffffffffffffffffff90921691909117905550505050565b6000546001600160a01b031633146111a65760405162461bcd60e51b815260206004820152601360248201527f41444d494e5f4143434553535f44454e49454400000000000000000000000000604482015260640161064d565b600054604080516001600160a01b03928316815291831660208301527f7e644d79422f17c01e4894b5f4f588d331ebfa28653d42ae832dc59e38c9798f910160405180910390a16000805473ffffffffffffffffffffffffffffffffffffffff19166001600160a01b0392909216919091179055565b60008561126b5760405162461bcd60e51b815260206004820152600760248201527f484153483d3d3000000000000000000000000000000000000000000000000000604482015260640161064d565b61127661033f612179565b6112c25760405162461bcd60e51b815260206004820152600860248201527f21424f554e434552000000000000000000000000000000000000000000000000604482015260640161064d565b6001600160a01b0384166113005760405162461bcd60e51b81526020600482015260056024820152640544f3d3d360dc1b604482015260640161064d565b61132288868988600114611315576001611318565b60005b60ff166000612871565b6bffffffff80000000000007ff198116600081815260076020526040902054919250901561137d5760405162461bcd60e51b815260206004820152600860248201526724a22faa20a5a2a760c11b604482015260640161064d565b60008181526007602052604090208790556113d8611399612179565b86848988888080601f01602080910402602001604051908101604052809392919081815260200183838082843760009201919091525061270492505050565b50979650505050505050565b6113f66113ef612179565b83836129cc565b5050565b6000546001600160a01b0316331461147a5760405162461bcd60e51b815260206004820152602c60248201527f6f6e6c792061646d696e20697320616c6c6f77656420746f206164642073757060448201527f6572206f70657261746f72730000000000000000000000000000000000000000606482015260840161064d565b6001600160a01b038216600081815260016020908152604091829020805460ff19168515159081179091558251938452908301527f44f92d27abdf4cfb6a7d712c3af68f3be086d4ca747ab802c36f67d6790060d891015b60405180910390a15050565b6113f66114e9612179565b83836121c3565b600d546001600160a01b0316611504612179565b6001600160a01b03161461155a5760405162461bcd60e51b815260206004820152600e60248201527f21424f554e4345525f41444d494e000000000000000000000000000000000000604482015260640161064d565b6001600160a01b0382166000818152600b6020908152604091829020805460ff19168515159081179091558251938452908301527f5ecd928ac22825e06273a3e8db8118dd7fe11bd2637ecfe4bfa25154948bd85f91016114d2565b6bffffffff80000000000007ff1981166000908152600760205260408120546bffffffff80000000000000001983169015155b9392505050565b600f546001600160a01b0316611604612179565b6001600160a01b03161461165a5760405162461bcd60e51b815260206004820152600a60248201527f2150524544494341544500000000000000000000000000000000000000000000604482015260640161064d565b806116a75760405162461bcd60e51b815260206004820152601060248201527f4d455441444154415f4d495353494e4700000000000000000000000000000000604482015260640161064d565b6001600160a01b0387166116e55760405162461bcd60e51b81526020600482015260056024820152640544f3d3d360dc1b604482015260640161064d565b60006116f382840184613973565b905060005b868110156117d95760006bffffffff80000000000007ff1989898481811061173057634e487b7160e01b600052603260045260246000fd5b90506020020135169050600760008281526020019081526020016000205460001c60001461178b5760405162461bcd60e51b815260206004820152600860248201526724a22faa20a5a2a760c11b604482015260640161064d565b8282815181106117ab57634e487b7160e01b600052603260045260246000fd5b60209081029190910181015160009283526007909152604090912055806117d181613f2f565b9150506116f8565b5061187c8888888080602002602001604051908101604052809392919081815260200183836020028082843760009201919091525050604080516020808c0282810182019093528b82529093508b92508a91829185019084908082843760009201919091525050604080516020601f8b018190048102820181019092528981529250899150889081908401838280828437600092019190915250612bb092505050565b5050505050505050565b6bffffffff80000000000007ff1981166000908152600760205260408120546118f15760405162461bcd60e51b815260206004820152600a60248201527f46545f214d494e54454400000000000000000000000000000000000000000000604482015260640161064d565b6bffffffff8000000000000000198216611928816bffffffff80000000000007ff1916600090815260076020526040902054151590565b6107695760405162461bcd60e51b815260206004820152601360248201527f554e4d494e5445445f434f4c4c454354494f4e00000000000000000000000000604482015260640161064d565b606061199d826bffffffff80000000000007ff1916600090815260076020526040902054151590565b6119e95760405162461bcd60e51b815260206004820152600a60248201527f46545f214d494e54454400000000000000000000000000000000000000000000604482015260640161064d565b6bffffffff80000000000007ff198216600090815260076020526040908190205490517f55f43cd40000000000000000000000000000000000000000000000000000000081526004810191909152602481018390527300E9e534777fB51aAbA8F5cCb51d5D528C283BA2906355f43cd49060440160006040518083038186803b158015611a7557600080fd5b505af4158015611a89573d6000803e3d6000fd5b505050506040513d6000823e601f3d908101601f191682016040526107699190810190613a6a565b6000546001600160a01b0316611ac5612179565b6001600160a01b031614611b1b5760405162461bcd60e51b815260206004820152600660248201527f2141444d494e0000000000000000000000000000000000000000000000000000604482015260640161064d565b600f805473ffffffffffffffffffffffffffffffffffffffff19166001600160a01b0383169081179091556040519081527f41f738d25e68ffb96e8fd4d3de42056b6bf6961dd470e7b1158c46534596bbc99060200160405180910390a150565b60006001600160a01b038316611bd45760405162461bcd60e51b815260206004820152600860248201527f4f574e45523d3d30000000000000000000000000000000000000000000000000604482015260640161064d565b6001600160a01b038216611c2a5760405162461bcd60e51b815260206004820152600b60248201527f4f50455241544f523d3d30000000000000000000000000000000000000000000604482015260640161064d565b6001600160a01b0380841660009081526005602090815260408083209386168352929052205460ff16806115e95750506001600160a01b031660009081526001602052604090205460ff16919050565b611c82612179565b6001600160a01b0316836001600160a01b03161480611cc6575060016000611ca8612179565b6001600160a01b0316815260208101919091526040016000205460ff165b611d125760405162461bcd60e51b815260206004820152600b60248201527f21415554484f52495a4544000000000000000000000000000000000000000000604482015260640161064d565b61098a8383836129cc565b6001600160a01b038516611d5b5760405162461bcd60e51b81526020600482015260056024820152640544f3d3d360dc1b604482015260640161064d565b6001600160a01b038616611db15760405162461bcd60e51b815260206004820152600760248201527f46524f4d3d3d3000000000000000000000000000000000000000000000000000604482015260640161064d565b6000611dbf87878787612bf2565b90508015611e7157601054611e25906001600160a01b03163314611de35733611de5565b875b8888888888888080601f016020809104026020016040519081016040528093929190818152602001838380828437600092019190915250612dab92505050565b611e715760405162461bcd60e51b815260206004820152601660248201527f313135355f5452414e534645525f52454a454354454400000000000000000000604482015260640161064d565b50505050505050565b6000611e84612179565b6001600160a01b0316846001600160a01b03161480611eaa5750611eaa84610594612179565b611ef65760405162461bcd60e51b815260206004820152600b60248201527f21415554484f52495a4544000000000000000000000000000000000000000000604482015260640161064d565b6001600160a01b038216611f345760405162461bcd60e51b81526020600482015260056024820152640544f3d3d360dc1b604482015260640161064d565b6b800000000000000000000000831615611f905760405162461bcd60e51b815260206004820152601160248201527f4e4f545f455243313135355f544f4b454e000000000000000000000000000000604482015260640161064d565b60008381526009602052604081205463ffffffff1690611faf85611974565b90506000611fbf603f6002613de8565b611fcf9063ffffffff8516613ec9565b611fe56b80000000000000000000000088613d57565b611fef9190613d57565b9050611ffc836001613d6f565b600087815260096020526040902080547fffffffffffffffffffffffffffffffffffffffffffffffffffffffff000000001663ffffffff9290921691909117905561204987876001612e7b565b6011546040516001600160a01b03909116906394d008ef9087908490612073908790602001613ced565b6040516020818303038152906040526040518463ffffffff1660e01b81526004016120a093929190613c66565b600060405180830381600087803b1580156120ba57600080fd5b505af11580156120ce573d6000803e3d6000fd5b50506040518392508891507faa923cda6d3360ee3cd49c083ac1fe5e062a5739b82a32d597a65168c0c6926c90600090a39695505050505050565b600080610100602084020491506121236020610100613d8e565b61212d9084613f4a565b9050915091565b6000806121476001640100000000613ee8565b90506000612156846001613d57565b612161906020613ec9565b61216d90610100613ee8565b9490941c169392505050565b6010546000906001600160a01b03163314156121bc57507fffffffffffffffffffffffffffffffffffffffffffffffffffffffffffffffec36013560601c610902565b5033610902565b6000811180156121ea575060016121dc60206002613df7565b6121e69190613ee8565b8111155b6122365760405162461bcd60e51b815260206004820152600e60248201527f494e56414c49445f414d4f554e54000000000000000000000000000000000000604482015260640161064d565b612241838383612e7b565b60006001600160a01b038416612255612179565b6001600160a01b03167fc3d58168c5ae7397731d063d5bbf3d657854427343f4c083240f7aacaa2d0f628585604051612298929190918252602082015260400190565b60405180910390a4505050565b8251600080808080866122fa5760405162461bcd60e51b815260206004820152600e60248201527f4f50455241544f525f2141555448000000000000000000000000000000000000604482015260640161064d565b60005b8681101561259f578a6001600160a01b03168c6001600160a01b0316141561237d576123788c8b838151811061234357634e487b7160e01b600052603260045260246000fd5b60200260200101518b848151811061236b57634e487b7160e01b600052603260045260246000fd5b6020026020010151612ef6565b61258d565b600089828151811061239f57634e487b7160e01b600052603260045260246000fd5b6020026020010151111561258d576123dd8a82815181106123d057634e487b7160e01b600052603260045260246000fd5b6020026020010151612109565b9096509450816124ab576001600160a01b038c1660009081526004602090815260408083208984529091529020548951879350612446919087908c908590811061243757634e487b7160e01b600052603260045260246000fd5b60200260200101516001612f85565b6001600160a01b038c1660009081526004602090815260408083208a84529091529020548a519195506124a49187908c908590811061249557634e487b7160e01b600052603260045260246000fd5b60200260200101516000612f85565b925061258d565b81861461250a576001600160a01b038c8116600090815260046020818152604080842087855280835281852099909955938f16835290815282822094825284815282822095909555878152948452808520549290935291909220549084905b612549858a838151811061252e57634e487b7160e01b600052603260045260246000fd5b6020026020010151600187612f85909392919063ffffffff16565b935061258a858a838151811061256f57634e487b7160e01b600052603260045260246000fd5b6020026020010151600086612f85909392919063ffffffff16565b92505b8061259781613f2f565b9150506122fd565b5084158015906125c15750896001600160a01b03168b6001600160a01b031614155b15612602576001600160a01b03808c1660009081526004602081815260408084208a85528252808420889055938e1683529081528282208883529052208290555b5050505050505050505050565b60006001600160a01b0385163b612628575060016126fa565b6040517fbc197c810000000000000000000000000000000000000000000000000000000081526000906001600160a01b0387169063bc197c8190612678908b908b908a908a908a90600401613bc5565b602060405180830381600087803b15801561269257600080fd5b505af11580156126a6573d6000803e3d6000fd5b505050506040513d601f19601f820116820180604052508101906126ca9190613a4e565b6001600160e01b0319167fbc197c8100000000000000000000000000000000000000000000000000000000149150505b9695505050505050565b60008061271085612109565b6001600160a01b038816600090815260046020908152604080832085845290915290205491935091506127469082866002612f85565b6001600160a01b03878116600081815260046020908152604080832088845282528083209590955584518a8152908101899052919390928b16917fc3d58168c5ae7397731d063d5bbf3d657854427343f4c083240f7aacaa2d0f62910160405180910390a46127ba87600088888888612dab565b611e715760405162461bcd60e51b815260206004820152601160248201527f5452414e534645525f52454a4543544544000000000000000000000000000000604482015260640161064d565b600181600e54901c166001141561285f5760405162461bcd60e51b815260206004820152601360248201527f414c52454144595f494e495449414c4953454400000000000000000000000000604482015260640161064d565b806001901b600e5417600e8190555050565b600080851180156128995750600161288b60206002613df7565b6128959190613ee8565b8511155b6128e55760405162461bcd60e51b815260206004820152601460248201527f535550504c595f4f55545f4f465f424f554e4453000000000000000000000000604482015260640161064d565b61ffff82166128f6600b6002613df7565b6129049061ffff8616613ec9565b61291060176002613df7565b6129219064ffffffffff8816613ec9565b61292d603f6002613df7565b600f54612955919074010000000000000000000000000000000000000000900460ff16613ec9565b8860011461296457600061297b565b612970605f6002613df7565b61297b906001613ec9565b61298760606002613df7565b61299a906001600160a01b038d16613ec9565b6129a49190613d57565b6129ae9190613d57565b6129b89190613d57565b6129c29190613d57565b6126fa9190613d57565b6001600160a01b038316612a225760405162461bcd60e51b815260206004820152600960248201527f53454e4445523d3d300000000000000000000000000000000000000000000000604482015260640161064d565b816001600160a01b0316836001600160a01b03161415612a845760405162461bcd60e51b815260206004820152601060248201527f53454e4445523d3d4f50455241544f5200000000000000000000000000000000604482015260640161064d565b6001600160a01b038216612ada5760405162461bcd60e51b815260206004820152600b60248201527f4f50455241544f523d3d30000000000000000000000000000000000000000000604482015260640161064d565b6001600160a01b03821660009081526001602052604090205460ff1615612b435760405162461bcd60e51b815260206004820152601b60248201527f415050525f4558495354494e475f53555045524f50455241544f520000000000604482015260640161064d565b6001600160a01b03838116600081815260056020908152604080832094871680845294825291829020805460ff191686151590811790915591519182527f17307eab39ab6107e8899845ad3d59bd9653f200f220920489ca2b5937696c31910160405180910390a3505050565b60005b82518161ffff161015612bde57612bcc81848787613113565b612bd7600882613d31565b9050612bb3565b6105df612be9612179565b86868686613242565b600080612bfd612179565b90506000816001600160a01b0316876001600160a01b03161480612c265750612c268783611b7c565b905080612c755760405162461bcd60e51b815260206004820152600e60248201527f4f50455241544f525f2141555448000000000000000000000000000000000000604482015260640161064d565b8315612d3157600080612c8787612109565b6001600160a01b038b1660009081526004602090815260408083208584529091529020549193509150612cbd9082886001612f85565b6001600160a01b03808b166000908152600460208181526040808420888552825280842095909555928c168252825282812085825290915290812054612d069183908990612f85565b6001600160a01b03891660009081526004602090815260408083209583529490529290922091909155505b6010546001600160a01b038088169189821691163314612d515783612d53565b885b6001600160a01b03167fc3d58168c5ae7397731d063d5bbf3d657854427343f4c083240f7aacaa2d0f628888604051612d96929190918252602082015260400190565b60405180910390a45060019695505050505050565b60006001600160a01b0385163b612dc4575060016126fa565b6040517ff23a6e6100000000000000000000000000000000000000000000000000000000808252906001600160a01b0387169063f23a6e6190612e13908b908b908a908a908a90600401613c23565b602060405180830381600087803b158015612e2d57600080fd5b505af1158015612e41573d6000803e3d6000fd5b505050506040513d601f19601f82011682018060405250810190612e659190613a4e565b6001600160e01b03191614979650505050505050565b600080612e8784612109565b6001600160a01b03871660009081526004602090815260408083208584529091529020549193509150612ec7908263ffffffff80871690600190612f8516565b6001600160a01b0390951660009081526004602090815260408083209483529390529190912093909355505050565b600080612f0284612109565b6001600160a01b038716600090815260046020908152604080832085845290915290205491935091508390612f379083612134565b10156105df5760405162461bcd60e51b815260206004820152600f60248201527f42414c414e43455f544f4f5f4c4f570000000000000000000000000000000000604482015260640161064d565b60008080836002811115612fa957634e487b7160e01b600052602160045260246000fd5b1415612fd657612fb98686612134565b9050612fcf8686612fca8785613d57565b6132f5565b915061310a565b6001836002811115612ff857634e487b7160e01b600052602160045260246000fd5b141561308f576130088686612134565b9050838110156130805760405162461bcd60e51b815260206004820152602260248201527f63616e277420737562737472616374206d6f7265207468616e2074686572652060448201527f6973000000000000000000000000000000000000000000000000000000000000606482015260840161064d565b612fcf8686612fca8785613ee8565b60028360028111156130b157634e487b7160e01b600052602160045260246000fd5b14156130c257612fcf8686866132f5565b60405162461bcd60e51b815260206004820152601160248201527f496e76616c6964206f7065726174696f6e000000000000000000000000000000604482015260640161064d565b50949350505050565b60008061313d838761ffff16815181106123d057634e487b7160e01b600052603260045260246000fd5b9150915060005b6008811080156131615750855161315f8261ffff8a16613d57565b105b15611e715760006131768261ffff8a16613d57565b9050600087828151811061319a57634e487b7160e01b600052603260045260246000fd5b6020026020010151111561322f5761320a6131b58385613d57565b8883815181106131d557634e487b7160e01b600052603260045260246000fd5b6020908102919091018101516001600160a01b038a1660009081526004835260408082208a8352909352918220549291612f85565b6001600160a01b03871660009081526004602090815260408083208884529091529020555b508061323a81613f2f565b915050613144565b836001600160a01b031660006001600160a01b0316866001600160a01b03167f4a39dc06d4c0dbc64b70af90fd698a233a518aa5d07e595d983b8c0526c8f7fb8686604051613292929190613cc8565b60405180910390a46132a98560008686868661260f565b6105df5760405162461bcd60e51b815260206004820152601160248201527f5452414e534645525f52454a4543544544000000000000000000000000000000604482015260640161064d565b600061330360206002613de8565b82106133775760405162461bcd60e51b815260206004820152602360248201527f416d6f756e7420746f20777269746520696e2062696e20697320746f6f206c6160448201527f7267650000000000000000000000000000000000000000000000000000000000606482015260840161064d565b60006133896001640100000000613ee8565b90506000613398856001613d57565b6133a3906020613ec9565b6133af90610100613ee8565b91821b199590951692901b919091179392505050565b60008083601f8401126133d6578182fd5b50813567ffffffffffffffff8111156133ed578182fd5b602083019150836020808302850101111561340757600080fd5b9250929050565b8035801515811461076c57600080fd5b60008083601f84011261342f578182fd5b50813567ffffffffffffffff811115613446578182fd5b60208301915083602082850101111561340757600080fd5b60006020828403121561346f578081fd5b81356115e981613fa0565b6000806040838503121561348c578081fd5b823561349781613fa0565b915060208301356134a781613fa0565b809150509250929050565b600080600080600060a086880312156134c9578081fd5b85356134d481613fa0565b945060208601356134e481613fa0565b935060408601356134f481613fa0565b9250606086013561350481613fa0565b9150608086013560ff81168114613519578182fd5b809150509295509295909350565b60008060008060008060008060a0898b031215613542578283fd5b883561354d81613fa0565b9750602089013561355d81613fa0565b9650604089013567ffffffffffffffff80821115613579578485fd5b6135858c838d016133c5565b909850965060608b013591508082111561359d578485fd5b6135a98c838d016133c5565b909650945060808b01359150808211156135c1578384fd5b506135ce8b828c0161341e565b999c989b5096995094979396929594505050565b6000806000606084860312156135f6578283fd5b833561360181613fa0565b9250602084013561361181613fa0565b915061361f6040850161340e565b90509250925092565b60008060008060008060a08789031215613640578182fd5b863561364b81613fa0565b9550602087013561365b81613fa0565b94506040870135935060608701359250608087013567ffffffffffffffff811115613684578283fd5b61369089828a0161341e565b979a9699509497509295939492505050565b60008060008060008060006080888a0312156136bc578081fd5b87356136c781613fa0565b9650602088013567ffffffffffffffff808211156136e3578283fd5b6136ef8b838c016133c5565b909850965060408a0135915080821115613707578283fd5b6137138b838c016133c5565b909650945060608a013591508082111561372b578283fd5b506137388a828b0161341e565b989b979a50959850939692959293505050565b6000806040838503121561375d578182fd5b823561376881613fa0565b91506137766020840161340e565b90509250929050565b60008060408385031215613791578182fd5b823561379c81613fa0565b946020939093013593505050565b6000806000606084860312156137be578081fd5b83356137c981613fa0565b92506020840135915060408401356137e081613fa0565b809150509250925092565b6000806000606084860312156137ff578081fd5b833561380a81613fa0565b95602085013595506040909401359392505050565b600080600080600060808688031215613836578283fd5b853561384181613fa0565b94506020860135935060408601359250606086013567ffffffffffffffff81111561386a578182fd5b6138768882890161341e565b969995985093965092949392505050565b600080600080600080600060c0888a0312156138a1578081fd5b87356138ac81613fa0565b9650602088013564ffffffffff811681146138c5578182fd5b9550604088013594506060880135935060808801356138e381613fa0565b925060a088013567ffffffffffffffff8111156138fe578182fd5b6137388a828b0161341e565b6000806000806040858703121561391f578182fd5b843567ffffffffffffffff80821115613936578384fd5b613942888389016133c5565b9096509450602087013591508082111561395a578384fd5b50613967878288016133c5565b95989497509550505050565b60006020808385031215613985578182fd5b823567ffffffffffffffff8082111561399c578384fd5b818501915085601f8301126139af578384fd5b8135818111156139c1576139c1613f8a565b83810291506139d1848301613d00565b8181528481019084860184860187018a10156139eb578788fd5b8795505b83861015613a0d5780358352600195909501949186019186016139ef565b5098975050505050505050565b600060208284031215613a2b578081fd5b5035919050565b600060208284031215613a43578081fd5b81356115e981613fb8565b600060208284031215613a5f578081fd5b81516115e981613fb8565b600060208284031215613a7b578081fd5b815167ffffffffffffffff80821115613a92578283fd5b818401915084601f830112613aa5578283fd5b815181811115613ab757613ab7613f8a565b613aca6020601f19601f84011601613d00565b9150808252856020828501011115613ae0578384fd5b61310a816020840160208601613eff565b60008060408385031215613b03578182fd5b50508035926020909101359150565b60008284527f07ffffffffffffffffffffffffffffffffffffffffffffffffffffffffffffff831115613b43578081fd5b6020830280836020870137939093016020019283525090919050565b6000815180845260208085019450808401835b83811015613b8e57815187529582019590820190600101613b72565b509495945050505050565b60008151808452613bb1816020860160208601613eff565b601f01601f19169290920160200192915050565b60006001600160a01b03808816835280871660208401525060a06040830152613bf160a0830186613b5f565b8281036060840152613c038186613b5f565b90508281036080840152613c178185613b99565b98975050505050505050565b60006001600160a01b03808816835280871660208401525084604083015283606083015260a06080830152613c5b60a0830184613b99565b979650505050505050565b60006001600160a01b0385168252836020830152606060408301526106956060830184613b99565b600060408252613ca2604083018688613b12565b8281036020840152613c5b818587613b12565b6000602082526115e96020830184613b5f565b600060408252613cdb6040830185613b5f565b82810360208401526106958185613b5f565b6000602082526115e96020830184613b99565b604051601f8201601f1916810167ffffffffffffffff81118282101715613d2957613d29613f8a565b604052919050565b600061ffff808316818516808303821115613d4e57613d4e613f5e565b01949350505050565b60008219821115613d6a57613d6a613f5e565b500190565b600063ffffffff808316818516808303821115613d4e57613d4e613f5e565b600082613d9d57613d9d613f74565b500490565b80825b6001808611613db45750613ddf565b818704821115613dc657613dc6613f5e565b80861615613dd357918102915b9490941c938002613da5565b94509492505050565b60006115e96000198484613e05565b60006115e960001960ff8516845b600082613e14575060016115e9565b81613e21575060006115e9565b8160018114613e375760028114613e4157613e6e565b60019150506115e9565b60ff841115613e5257613e52613f5e565b6001841b915084821115613e6857613e68613f5e565b506115e9565b5060208310610133831016604e8410600b8410161715613ea1575081810a83811115613e9c57613e9c613f5e565b6115e9565b613eae8484846001613da2565b808604821115613ec057613ec0613f5e565b02949350505050565b6000816000190483118215151615613ee357613ee3613f5e565b500290565b600082821015613efa57613efa613f5e565b500390565b60005b83811015613f1a578181015183820152602001613f02565b83811115613f29576000848401525b50505050565b6000600019821415613f4357613f43613f5e565b5060010190565b600082613f5957613f59613f74565b500690565b634e487b7160e01b600052601160045260246000fd5b634e487b7160e01b600052601260045260246000fd5b634e487b7160e01b600052604160045260246000fd5b6001600160a01b0381168114613fb557600080fd5b50565b6001600160e01b031981168114613fb557600080fdfea26469706673582212204347d4b5bbe40c3ea73acb008d656ee2ebe7ac964163da83f53e39e3c488d36f64736f6c63430008020033",
  "deployedBytecode": "0x608060405234801561001057600080fd5b506004361061025a5760003560e01c806398fbde6411610145578063c87b56dd116100bd578063d9f37f8e1161008c578063eeb5a5d111610071578063eeb5a5d114610599578063f242432a146105ac578063ff23be53146105bf5761025a565b8063d9f37f8e14610573578063e985e9c5146105865761025a565b8063c87b56dd1461050b578063ce1b815f1461051e578063d12e76d01461052f578063d402756e146105425761025a565b8063b390c0ab11610114578063bd9ff41b116100f9578063bd9ff41b146104d2578063c0d24150146104e5578063c7778baa146104f85761025a565b8063b390c0ab146104ac578063b9b75ebc146104bf5761025a565b806398fbde64146104625780639bc88b9c14610475578063a22cb46514610486578063ac9fe421146104995761025a565b80634c4d07e7116101d85780636e9960c3116101a757806376596d211161018c57806376596d21146104035780638f2839701461041657806395d89b41146104295761025a565b80636e9960c3146103cb578063731133e9146103f05761025a565b80634c4d07e7146103315780634e1273f41461035d578063572b6c051461037d578063654b748a1461039f5761025a565b806306fdde031161022f5780632e712b46116102145780632e712b46146102f85780632eb2c2d61461030b57806331e5361f1461031e5761025a565b806306fdde03146102d0578063124d91e5146102e55761025a565b80628c26761461025f578062fdd58e1461027457806301ffc9a71461029a578063049476df146102bd575b600080fd5b61027261026d3660046134b2565b6105d2565b005b61028761028236600461377f565b6105e6565b6040519081526020015b60405180910390f35b6102ad6102a8366004613a32565b61069e565b6040519015158152602001610291565b6102726102cb36600461345e565b610771565b6102d86108cd565b6040516102919190613ced565b6102726102f33660046137eb565b610905565b610287610306366004613a1a565b61098f565b610272610319366004613527565b6109a8565b6102ad61032c36600461345e565b610cb9565b6102ad61033f36600461345e565b6001600160a01b03166000908152600b602052604090205460ff1690565b61037061036b36600461390a565b610d86565b6040516102919190613cb5565b6102ad61038b36600461345e565b6010546001600160a01b0390811691161490565b6102ad6103ad36600461345e565b6001600160a01b031660009081526001602052604090205460ff1690565b6000546001600160a01b03165b6040516001600160a01b039091168152602001610291565b6102726103fe36600461381f565b610ee2565b6102726104113660046134b2565b61109b565b61027261042436600461345e565b61114c565b60408051808201909152600581527f415353455400000000000000000000000000000000000000000000000000000060208201526102d8565b610287610470366004613887565b61121c565b600d546001600160a01b03166103d8565b61027261049436600461374b565b6113e4565b6102726104a736600461374b565b6113fa565b6102726104ba366004613af1565b6114de565b6102726104cd36600461374b565b6114f0565b6102ad6104e0366004613a1a565b6115b6565b6102726104f33660046136a2565b6115f0565b610287610506366004613a1a565b611886565b6102d8610519366004613a1a565b611974565b6010546001600160a01b03166103d8565b61027261053d36600461345e565b611ab1565b6102ad610550366004613a1a565b6bffffffff80000000000007ff1916600090815260076020526040902054151590565b6011546103d8906001600160a01b031681565b6102ad61059436600461347a565b611b7c565b6102726105a73660046135e2565b611c7a565b6102726105ba366004613628565b611d1d565b6102876105cd3660046137aa565b611e7a565b6105df858585858561109b565b5050505050565b6bffffffff80000000000007ff1981166000908152600760205260408120546106565760405162461bcd60e51b815260206004820152601660248201527f746f6b656e20776173206e65766572206d696e7465640000000000000000000060448201526064015b60405180910390fd5b60008061066284612109565b6001600160a01b038716600090815260046020908152604080832085845290915290205491935091506106959082612134565b95945050505050565b60007f01ffc9a7000000000000000000000000000000000000000000000000000000006001600160e01b03198316148061070157507fd9b67a26000000000000000000000000000000000000000000000000000000006001600160e01b03198316145b8061073557507f0e89341c000000000000000000000000000000000000000000000000000000006001600160e01b03198316145b8061076957507f9930ed5a000000000000000000000000000000000000000000000000000000006001600160e01b03198316145b90505b919050565b600d546001600160a01b0316610785612179565b6001600160a01b0316146107db5760405162461bcd60e51b815260206004820152600e60248201527f21424f554e4345525f41444d494e000000000000000000000000000000000000604482015260640161064d565b6001600160a01b0381166108575760405162461bcd60e51b815260206004820152603960248201527f417373657442617365455243313135353a206e657720626f756e63657220616460448201527f6d696e2063616e2774206265207a65726f206164647265737300000000000000606482015260840161064d565b600d54604080516001600160a01b03928316815291831660208301527f1bab6ababbec5519512e9ee16964953ec0f72839126138285cac1f1136bd642e910160405180910390a1600d805473ffffffffffffffffffffffffffffffffffffffff19166001600160a01b0392909216919091179055565b60408051808201909152601081527f53616e64626f782773204153534554730000000000000000000000000000000060208201525b90565b61090d612179565b6001600160a01b0316836001600160a01b03161480610933575061093383610594612179565b61097f5760405162461bcd60e51b815260206004820152600b60248201527f21415554484f52495a4544000000000000000000000000000000000000000000604482015260640161064d565b61098a8383836121c3565b505050565b600061099a82611886565b5050603f1c63ffffffff1690565b8483146109f75760405162461bcd60e51b815260206004820152601260248201527f4d49534d4154434845445f4152525f4c454e0000000000000000000000000000604482015260640161064d565b6001600160a01b038716610a355760405162461bcd60e51b81526020600482015260056024820152640544f3d3d360dc1b604482015260640161064d565b6001600160a01b038816610a8b5760405162461bcd60e51b815260206004820152600760248201527f46524f4d3d3d3000000000000000000000000000000000000000000000000000604482015260640161064d565b6010546001600160a01b031633146000610aa3612179565b6001600160a01b03168a6001600160a01b03161480610ac95750610ac98a610594612179565b9050610b3c8a8a8a8a8080602002602001604051908101604052809392919081815260200183836020028082843760009201919091525050604080516020808e0282810182019093528d82529093508d92508c9182918501908490808284376000920191909152508892506122a5915050565b886001600160a01b03168a6001600160a01b031683610b6257610b5d612179565b610b64565b8b5b6001600160a01b03167f4a39dc06d4c0dbc64b70af90fd698a233a518aa5d07e595d983b8c0526c8f7fb8b8b8b8b604051610ba29493929190613c8e565b60405180910390a4610c6182610bbf57610bba612179565b610bc1565b8a5b8b8b8b8b8080602002602001604051908101604052809392919081815260200183836020028082843760009201919091525050604080516020808f0282810182019093528e82529093508e92508d91829185019084908082843760009201919091525050604080516020601f8e018190048102820181019092528c815292508c91508b908190840183828082843760009201919091525061260f92505050565b610cad5760405162461bcd60e51b815260206004820152601660248201527f313135355f5452414e534645525f52454a454354454400000000000000000000604482015260640161064d565b50505050505050505050565b6000610cc3612179565b6000546001600160a01b03908116911614610d205760405162461bcd60e51b815260206004820152600a60248201527f415554484f52495a454400000000000000000000000000000000000000000000604482015260640161064d565b6011805473ffffffffffffffffffffffffffffffffffffffff19166001600160a01b0384169081179091556040519081527f5a91617bd1e0deac2e7e6f6fbd384ff93d50ab3d50b6f3cec6b7979a7b5c9de09060200160405180910390a1506001919050565b6060838214610dd75760405162461bcd60e51b815260206004820152601360248201527f4152475f4c454e4754485f4d49534d4154434800000000000000000000000000604482015260640161064d565b60008267ffffffffffffffff811115610e0057634e487b7160e01b600052604160045260246000fd5b604051908082528060200260200182016040528015610e29578160200160208202803683370190505b50905060005b83811015610ed857610e9b878783818110610e5a57634e487b7160e01b600052603260045260246000fd5b9050602002016020810190610e6f919061345e565b868684818110610e8f57634e487b7160e01b600052603260045260246000fd5b905060200201356105e6565b828281518110610ebb57634e487b7160e01b600052603260045260246000fd5b602090810291909101015280610ed081613f2f565b915050610e2f565b5095945050505050565b600f546001600160a01b0316610ef6612179565b6001600160a01b031614610f4c5760405162461bcd60e51b815260206004820152600a60248201527f2150524544494341544500000000000000000000000000000000000000000000604482015260640161064d565b80610f995760405162461bcd60e51b815260206004820152601060248201527f4d455441444154415f4d495353494e4700000000000000000000000000000000604482015260640161064d565b6001600160a01b038516610fd75760405162461bcd60e51b81526020600482015260056024820152640544f3d3d360dc1b604482015260640161064d565b6bffffffff80000000000007ff1984166000818152600760205260409020541561102e5760405162461bcd60e51b815260206004820152600860248201526724a22faa20a5a2a760c11b604482015260640161064d565b61103a82840184613a1a565b600082815260076020526040902055611093611054612179565b87878787878080601f01602080910402602001604051908101604052809392919081815260200183838082843760009201919091525061270492505050565b505050505050565b6110a56001612806565b6000805473ffffffffffffffffffffffffffffffffffffffff199081166001600160a01b0387811691909117909255600d8054821686841617905560118054821685841617905560108054909116918716919091179055600f805460ff90921674010000000000000000000000000000000000000000027fffffffffffffffffffffff00ffffffffffffffffffffffffffffffffffffffff90921691909117905550505050565b6000546001600160a01b031633146111a65760405162461bcd60e51b815260206004820152601360248201527f41444d494e5f4143434553535f44454e49454400000000000000000000000000604482015260640161064d565b600054604080516001600160a01b03928316815291831660208301527f7e644d79422f17c01e4894b5f4f588d331ebfa28653d42ae832dc59e38c9798f910160405180910390a16000805473ffffffffffffffffffffffffffffffffffffffff19166001600160a01b0392909216919091179055565b60008561126b5760405162461bcd60e51b815260206004820152600760248201527f484153483d3d3000000000000000000000000000000000000000000000000000604482015260640161064d565b61127661033f612179565b6112c25760405162461bcd60e51b815260206004820152600860248201527f21424f554e434552000000000000000000000000000000000000000000000000604482015260640161064d565b6001600160a01b0384166113005760405162461bcd60e51b81526020600482015260056024820152640544f3d3d360dc1b604482015260640161064d565b61132288868988600114611315576001611318565b60005b60ff166000612871565b6bffffffff80000000000007ff198116600081815260076020526040902054919250901561137d5760405162461bcd60e51b815260206004820152600860248201526724a22faa20a5a2a760c11b604482015260640161064d565b60008181526007602052604090208790556113d8611399612179565b86848988888080601f01602080910402602001604051908101604052809392919081815260200183838082843760009201919091525061270492505050565b50979650505050505050565b6113f66113ef612179565b83836129cc565b5050565b6000546001600160a01b0316331461147a5760405162461bcd60e51b815260206004820152602c60248201527f6f6e6c792061646d696e20697320616c6c6f77656420746f206164642073757060448201527f6572206f70657261746f72730000000000000000000000000000000000000000606482015260840161064d565b6001600160a01b038216600081815260016020908152604091829020805460ff19168515159081179091558251938452908301527f44f92d27abdf4cfb6a7d712c3af68f3be086d4ca747ab802c36f67d6790060d891015b60405180910390a15050565b6113f66114e9612179565b83836121c3565b600d546001600160a01b0316611504612179565b6001600160a01b03161461155a5760405162461bcd60e51b815260206004820152600e60248201527f21424f554e4345525f41444d494e000000000000000000000000000000000000604482015260640161064d565b6001600160a01b0382166000818152600b6020908152604091829020805460ff19168515159081179091558251938452908301527f5ecd928ac22825e06273a3e8db8118dd7fe11bd2637ecfe4bfa25154948bd85f91016114d2565b6bffffffff80000000000007ff1981166000908152600760205260408120546bffffffff80000000000000001983169015155b9392505050565b600f546001600160a01b0316611604612179565b6001600160a01b03161461165a5760405162461bcd60e51b815260206004820152600a60248201527f2150524544494341544500000000000000000000000000000000000000000000604482015260640161064d565b806116a75760405162461bcd60e51b815260206004820152601060248201527f4d455441444154415f4d495353494e4700000000000000000000000000000000604482015260640161064d565b6001600160a01b0387166116e55760405162461bcd60e51b81526020600482015260056024820152640544f3d3d360dc1b604482015260640161064d565b60006116f382840184613973565b905060005b868110156117d95760006bffffffff80000000000007ff1989898481811061173057634e487b7160e01b600052603260045260246000fd5b90506020020135169050600760008281526020019081526020016000205460001c60001461178b5760405162461bcd60e51b815260206004820152600860248201526724a22faa20a5a2a760c11b604482015260640161064d565b8282815181106117ab57634e487b7160e01b600052603260045260246000fd5b60209081029190910181015160009283526007909152604090912055806117d181613f2f565b9150506116f8565b5061187c8888888080602002602001604051908101604052809392919081815260200183836020028082843760009201919091525050604080516020808c0282810182019093528b82529093508b92508a91829185019084908082843760009201919091525050604080516020601f8b018190048102820181019092528981529250899150889081908401838280828437600092019190915250612bb092505050565b5050505050505050565b6bffffffff80000000000007ff1981166000908152600760205260408120546118f15760405162461bcd60e51b815260206004820152600a60248201527f46545f214d494e54454400000000000000000000000000000000000000000000604482015260640161064d565b6bffffffff8000000000000000198216611928816bffffffff80000000000007ff1916600090815260076020526040902054151590565b6107695760405162461bcd60e51b815260206004820152601360248201527f554e4d494e5445445f434f4c4c454354494f4e00000000000000000000000000604482015260640161064d565b606061199d826bffffffff80000000000007ff1916600090815260076020526040902054151590565b6119e95760405162461bcd60e51b815260206004820152600a60248201527f46545f214d494e54454400000000000000000000000000000000000000000000604482015260640161064d565b6bffffffff80000000000007ff198216600090815260076020526040908190205490517f55f43cd400000000000000000000000000000000000000000000000000000000815260048101919091526024810183905273__$22fbfd89be1e25db7d564b4a9955403d23$__906355f43cd49060440160006040518083038186803b158015611a7557600080fd5b505af4158015611a89573d6000803e3d6000fd5b505050506040513d6000823e601f3d908101601f191682016040526107699190810190613a6a565b6000546001600160a01b0316611ac5612179565b6001600160a01b031614611b1b5760405162461bcd60e51b815260206004820152600660248201527f2141444d494e0000000000000000000000000000000000000000000000000000604482015260640161064d565b600f805473ffffffffffffffffffffffffffffffffffffffff19166001600160a01b0383169081179091556040519081527f41f738d25e68ffb96e8fd4d3de42056b6bf6961dd470e7b1158c46534596bbc99060200160405180910390a150565b60006001600160a01b038316611bd45760405162461bcd60e51b815260206004820152600860248201527f4f574e45523d3d30000000000000000000000000000000000000000000000000604482015260640161064d565b6001600160a01b038216611c2a5760405162461bcd60e51b815260206004820152600b60248201527f4f50455241544f523d3d30000000000000000000000000000000000000000000604482015260640161064d565b6001600160a01b0380841660009081526005602090815260408083209386168352929052205460ff16806115e95750506001600160a01b031660009081526001602052604090205460ff16919050565b611c82612179565b6001600160a01b0316836001600160a01b03161480611cc6575060016000611ca8612179565b6001600160a01b0316815260208101919091526040016000205460ff165b611d125760405162461bcd60e51b815260206004820152600b60248201527f21415554484f52495a4544000000000000000000000000000000000000000000604482015260640161064d565b61098a8383836129cc565b6001600160a01b038516611d5b5760405162461bcd60e51b81526020600482015260056024820152640544f3d3d360dc1b604482015260640161064d565b6001600160a01b038616611db15760405162461bcd60e51b815260206004820152600760248201527f46524f4d3d3d3000000000000000000000000000000000000000000000000000604482015260640161064d565b6000611dbf87878787612bf2565b90508015611e7157601054611e25906001600160a01b03163314611de35733611de5565b875b8888888888888080601f016020809104026020016040519081016040528093929190818152602001838380828437600092019190915250612dab92505050565b611e715760405162461bcd60e51b815260206004820152601660248201527f313135355f5452414e534645525f52454a454354454400000000000000000000604482015260640161064d565b50505050505050565b6000611e84612179565b6001600160a01b0316846001600160a01b03161480611eaa5750611eaa84610594612179565b611ef65760405162461bcd60e51b815260206004820152600b60248201527f21415554484f52495a4544000000000000000000000000000000000000000000604482015260640161064d565b6001600160a01b038216611f345760405162461bcd60e51b81526020600482015260056024820152640544f3d3d360dc1b604482015260640161064d565b6b800000000000000000000000831615611f905760405162461bcd60e51b815260206004820152601160248201527f4e4f545f455243313135355f544f4b454e000000000000000000000000000000604482015260640161064d565b60008381526009602052604081205463ffffffff1690611faf85611974565b90506000611fbf603f6002613de8565b611fcf9063ffffffff8516613ec9565b611fe56b80000000000000000000000088613d57565b611fef9190613d57565b9050611ffc836001613d6f565b600087815260096020526040902080547fffffffffffffffffffffffffffffffffffffffffffffffffffffffff000000001663ffffffff9290921691909117905561204987876001612e7b565b6011546040516001600160a01b03909116906394d008ef9087908490612073908790602001613ced565b6040516020818303038152906040526040518463ffffffff1660e01b81526004016120a093929190613c66565b600060405180830381600087803b1580156120ba57600080fd5b505af11580156120ce573d6000803e3d6000fd5b50506040518392508891507faa923cda6d3360ee3cd49c083ac1fe5e062a5739b82a32d597a65168c0c6926c90600090a39695505050505050565b600080610100602084020491506121236020610100613d8e565b61212d9084613f4a565b9050915091565b6000806121476001640100000000613ee8565b90506000612156846001613d57565b612161906020613ec9565b61216d90610100613ee8565b9490941c169392505050565b6010546000906001600160a01b03163314156121bc57507fffffffffffffffffffffffffffffffffffffffffffffffffffffffffffffffec36013560601c610902565b5033610902565b6000811180156121ea575060016121dc60206002613df7565b6121e69190613ee8565b8111155b6122365760405162461bcd60e51b815260206004820152600e60248201527f494e56414c49445f414d4f554e54000000000000000000000000000000000000604482015260640161064d565b612241838383612e7b565b60006001600160a01b038416612255612179565b6001600160a01b03167fc3d58168c5ae7397731d063d5bbf3d657854427343f4c083240f7aacaa2d0f628585604051612298929190918252602082015260400190565b60405180910390a4505050565b8251600080808080866122fa5760405162461bcd60e51b815260206004820152600e60248201527f4f50455241544f525f2141555448000000000000000000000000000000000000604482015260640161064d565b60005b8681101561259f578a6001600160a01b03168c6001600160a01b0316141561237d576123788c8b838151811061234357634e487b7160e01b600052603260045260246000fd5b60200260200101518b848151811061236b57634e487b7160e01b600052603260045260246000fd5b6020026020010151612ef6565b61258d565b600089828151811061239f57634e487b7160e01b600052603260045260246000fd5b6020026020010151111561258d576123dd8a82815181106123d057634e487b7160e01b600052603260045260246000fd5b6020026020010151612109565b9096509450816124ab576001600160a01b038c1660009081526004602090815260408083208984529091529020548951879350612446919087908c908590811061243757634e487b7160e01b600052603260045260246000fd5b60200260200101516001612f85565b6001600160a01b038c1660009081526004602090815260408083208a84529091529020548a519195506124a49187908c908590811061249557634e487b7160e01b600052603260045260246000fd5b60200260200101516000612f85565b925061258d565b81861461250a576001600160a01b038c8116600090815260046020818152604080842087855280835281852099909955938f16835290815282822094825284815282822095909555878152948452808520549290935291909220549084905b612549858a838151811061252e57634e487b7160e01b600052603260045260246000fd5b6020026020010151600187612f85909392919063ffffffff16565b935061258a858a838151811061256f57634e487b7160e01b600052603260045260246000fd5b6020026020010151600086612f85909392919063ffffffff16565b92505b8061259781613f2f565b9150506122fd565b5084158015906125c15750896001600160a01b03168b6001600160a01b031614155b15612602576001600160a01b03808c1660009081526004602081815260408084208a85528252808420889055938e1683529081528282208883529052208290555b5050505050505050505050565b60006001600160a01b0385163b612628575060016126fa565b6040517fbc197c810000000000000000000000000000000000000000000000000000000081526000906001600160a01b0387169063bc197c8190612678908b908b908a908a908a90600401613bc5565b602060405180830381600087803b15801561269257600080fd5b505af11580156126a6573d6000803e3d6000fd5b505050506040513d601f19601f820116820180604052508101906126ca9190613a4e565b6001600160e01b0319167fbc197c8100000000000000000000000000000000000000000000000000000000149150505b9695505050505050565b60008061271085612109565b6001600160a01b038816600090815260046020908152604080832085845290915290205491935091506127469082866002612f85565b6001600160a01b03878116600081815260046020908152604080832088845282528083209590955584518a8152908101899052919390928b16917fc3d58168c5ae7397731d063d5bbf3d657854427343f4c083240f7aacaa2d0f62910160405180910390a46127ba87600088888888612dab565b611e715760405162461bcd60e51b815260206004820152601160248201527f5452414e534645525f52454a4543544544000000000000000000000000000000604482015260640161064d565b600181600e54901c166001141561285f5760405162461bcd60e51b815260206004820152601360248201527f414c52454144595f494e495449414c4953454400000000000000000000000000604482015260640161064d565b806001901b600e5417600e8190555050565b600080851180156128995750600161288b60206002613df7565b6128959190613ee8565b8511155b6128e55760405162461bcd60e51b815260206004820152601460248201527f535550504c595f4f55545f4f465f424f554e4453000000000000000000000000604482015260640161064d565b61ffff82166128f6600b6002613df7565b6129049061ffff8616613ec9565b61291060176002613df7565b6129219064ffffffffff8816613ec9565b61292d603f6002613df7565b600f54612955919074010000000000000000000000000000000000000000900460ff16613ec9565b8860011461296457600061297b565b612970605f6002613df7565b61297b906001613ec9565b61298760606002613df7565b61299a906001600160a01b038d16613ec9565b6129a49190613d57565b6129ae9190613d57565b6129b89190613d57565b6129c29190613d57565b6126fa9190613d57565b6001600160a01b038316612a225760405162461bcd60e51b815260206004820152600960248201527f53454e4445523d3d300000000000000000000000000000000000000000000000604482015260640161064d565b816001600160a01b0316836001600160a01b03161415612a845760405162461bcd60e51b815260206004820152601060248201527f53454e4445523d3d4f50455241544f5200000000000000000000000000000000604482015260640161064d565b6001600160a01b038216612ada5760405162461bcd60e51b815260206004820152600b60248201527f4f50455241544f523d3d30000000000000000000000000000000000000000000604482015260640161064d565b6001600160a01b03821660009081526001602052604090205460ff1615612b435760405162461bcd60e51b815260206004820152601b60248201527f415050525f4558495354494e475f53555045524f50455241544f520000000000604482015260640161064d565b6001600160a01b03838116600081815260056020908152604080832094871680845294825291829020805460ff191686151590811790915591519182527f17307eab39ab6107e8899845ad3d59bd9653f200f220920489ca2b5937696c31910160405180910390a3505050565b60005b82518161ffff161015612bde57612bcc81848787613113565b612bd7600882613d31565b9050612bb3565b6105df612be9612179565b86868686613242565b600080612bfd612179565b90506000816001600160a01b0316876001600160a01b03161480612c265750612c268783611b7c565b905080612c755760405162461bcd60e51b815260206004820152600e60248201527f4f50455241544f525f2141555448000000000000000000000000000000000000604482015260640161064d565b8315612d3157600080612c8787612109565b6001600160a01b038b1660009081526004602090815260408083208584529091529020549193509150612cbd9082886001612f85565b6001600160a01b03808b166000908152600460208181526040808420888552825280842095909555928c168252825282812085825290915290812054612d069183908990612f85565b6001600160a01b03891660009081526004602090815260408083209583529490529290922091909155505b6010546001600160a01b038088169189821691163314612d515783612d53565b885b6001600160a01b03167fc3d58168c5ae7397731d063d5bbf3d657854427343f4c083240f7aacaa2d0f628888604051612d96929190918252602082015260400190565b60405180910390a45060019695505050505050565b60006001600160a01b0385163b612dc4575060016126fa565b6040517ff23a6e6100000000000000000000000000000000000000000000000000000000808252906001600160a01b0387169063f23a6e6190612e13908b908b908a908a908a90600401613c23565b602060405180830381600087803b158015612e2d57600080fd5b505af1158015612e41573d6000803e3d6000fd5b505050506040513d601f19601f82011682018060405250810190612e659190613a4e565b6001600160e01b03191614979650505050505050565b600080612e8784612109565b6001600160a01b03871660009081526004602090815260408083208584529091529020549193509150612ec7908263ffffffff80871690600190612f8516565b6001600160a01b0390951660009081526004602090815260408083209483529390529190912093909355505050565b600080612f0284612109565b6001600160a01b038716600090815260046020908152604080832085845290915290205491935091508390612f379083612134565b10156105df5760405162461bcd60e51b815260206004820152600f60248201527f42414c414e43455f544f4f5f4c4f570000000000000000000000000000000000604482015260640161064d565b60008080836002811115612fa957634e487b7160e01b600052602160045260246000fd5b1415612fd657612fb98686612134565b9050612fcf8686612fca8785613d57565b6132f5565b915061310a565b6001836002811115612ff857634e487b7160e01b600052602160045260246000fd5b141561308f576130088686612134565b9050838110156130805760405162461bcd60e51b815260206004820152602260248201527f63616e277420737562737472616374206d6f7265207468616e2074686572652060448201527f6973000000000000000000000000000000000000000000000000000000000000606482015260840161064d565b612fcf8686612fca8785613ee8565b60028360028111156130b157634e487b7160e01b600052602160045260246000fd5b14156130c257612fcf8686866132f5565b60405162461bcd60e51b815260206004820152601160248201527f496e76616c6964206f7065726174696f6e000000000000000000000000000000604482015260640161064d565b50949350505050565b60008061313d838761ffff16815181106123d057634e487b7160e01b600052603260045260246000fd5b9150915060005b6008811080156131615750855161315f8261ffff8a16613d57565b105b15611e715760006131768261ffff8a16613d57565b9050600087828151811061319a57634e487b7160e01b600052603260045260246000fd5b6020026020010151111561322f5761320a6131b58385613d57565b8883815181106131d557634e487b7160e01b600052603260045260246000fd5b6020908102919091018101516001600160a01b038a1660009081526004835260408082208a8352909352918220549291612f85565b6001600160a01b03871660009081526004602090815260408083208884529091529020555b508061323a81613f2f565b915050613144565b836001600160a01b031660006001600160a01b0316866001600160a01b03167f4a39dc06d4c0dbc64b70af90fd698a233a518aa5d07e595d983b8c0526c8f7fb8686604051613292929190613cc8565b60405180910390a46132a98560008686868661260f565b6105df5760405162461bcd60e51b815260206004820152601160248201527f5452414e534645525f52454a4543544544000000000000000000000000000000604482015260640161064d565b600061330360206002613de8565b82106133775760405162461bcd60e51b815260206004820152602360248201527f416d6f756e7420746f20777269746520696e2062696e20697320746f6f206c6160448201527f7267650000000000000000000000000000000000000000000000000000000000606482015260840161064d565b60006133896001640100000000613ee8565b90506000613398856001613d57565b6133a3906020613ec9565b6133af90610100613ee8565b91821b199590951692901b919091179392505050565b60008083601f8401126133d6578182fd5b50813567ffffffffffffffff8111156133ed578182fd5b602083019150836020808302850101111561340757600080fd5b9250929050565b8035801515811461076c57600080fd5b60008083601f84011261342f578182fd5b50813567ffffffffffffffff811115613446578182fd5b60208301915083602082850101111561340757600080fd5b60006020828403121561346f578081fd5b81356115e981613fa0565b6000806040838503121561348c578081fd5b823561349781613fa0565b915060208301356134a781613fa0565b809150509250929050565b600080600080600060a086880312156134c9578081fd5b85356134d481613fa0565b945060208601356134e481613fa0565b935060408601356134f481613fa0565b9250606086013561350481613fa0565b9150608086013560ff81168114613519578182fd5b809150509295509295909350565b60008060008060008060008060a0898b031215613542578283fd5b883561354d81613fa0565b9750602089013561355d81613fa0565b9650604089013567ffffffffffffffff80821115613579578485fd5b6135858c838d016133c5565b909850965060608b013591508082111561359d578485fd5b6135a98c838d016133c5565b909650945060808b01359150808211156135c1578384fd5b506135ce8b828c0161341e565b999c989b5096995094979396929594505050565b6000806000606084860312156135f6578283fd5b833561360181613fa0565b9250602084013561361181613fa0565b915061361f6040850161340e565b90509250925092565b60008060008060008060a08789031215613640578182fd5b863561364b81613fa0565b9550602087013561365b81613fa0565b94506040870135935060608701359250608087013567ffffffffffffffff811115613684578283fd5b61369089828a0161341e565b979a9699509497509295939492505050565b60008060008060008060006080888a0312156136bc578081fd5b87356136c781613fa0565b9650602088013567ffffffffffffffff808211156136e3578283fd5b6136ef8b838c016133c5565b909850965060408a0135915080821115613707578283fd5b6137138b838c016133c5565b909650945060608a013591508082111561372b578283fd5b506137388a828b0161341e565b989b979a50959850939692959293505050565b6000806040838503121561375d578182fd5b823561376881613fa0565b91506137766020840161340e565b90509250929050565b60008060408385031215613791578182fd5b823561379c81613fa0565b946020939093013593505050565b6000806000606084860312156137be578081fd5b83356137c981613fa0565b92506020840135915060408401356137e081613fa0565b809150509250925092565b6000806000606084860312156137ff578081fd5b833561380a81613fa0565b95602085013595506040909401359392505050565b600080600080600060808688031215613836578283fd5b853561384181613fa0565b94506020860135935060408601359250606086013567ffffffffffffffff81111561386a578182fd5b6138768882890161341e565b969995985093965092949392505050565b600080600080600080600060c0888a0312156138a1578081fd5b87356138ac81613fa0565b9650602088013564ffffffffff811681146138c5578182fd5b9550604088013594506060880135935060808801356138e381613fa0565b925060a088013567ffffffffffffffff8111156138fe578182fd5b6137388a828b0161341e565b6000806000806040858703121561391f578182fd5b843567ffffffffffffffff80821115613936578384fd5b613942888389016133c5565b9096509450602087013591508082111561395a578384fd5b50613967878288016133c5565b95989497509550505050565b60006020808385031215613985578182fd5b823567ffffffffffffffff8082111561399c578384fd5b818501915085601f8301126139af578384fd5b8135818111156139c1576139c1613f8a565b83810291506139d1848301613d00565b8181528481019084860184860187018a10156139eb578788fd5b8795505b83861015613a0d5780358352600195909501949186019186016139ef565b5098975050505050505050565b600060208284031215613a2b578081fd5b5035919050565b600060208284031215613a43578081fd5b81356115e981613fb8565b600060208284031215613a5f578081fd5b81516115e981613fb8565b600060208284031215613a7b578081fd5b815167ffffffffffffffff80821115613a92578283fd5b818401915084601f830112613aa5578283fd5b815181811115613ab757613ab7613f8a565b613aca6020601f19601f84011601613d00565b9150808252856020828501011115613ae0578384fd5b61310a816020840160208601613eff565b60008060408385031215613b03578182fd5b50508035926020909101359150565b60008284527f07ffffffffffffffffffffffffffffffffffffffffffffffffffffffffffffff831115613b43578081fd5b6020830280836020870137939093016020019283525090919050565b6000815180845260208085019450808401835b83811015613b8e57815187529582019590820190600101613b72565b509495945050505050565b60008151808452613bb1816020860160208601613eff565b601f01601f19169290920160200192915050565b60006001600160a01b03808816835280871660208401525060a06040830152613bf160a0830186613b5f565b8281036060840152613c038186613b5f565b90508281036080840152613c178185613b99565b98975050505050505050565b60006001600160a01b03808816835280871660208401525084604083015283606083015260a06080830152613c5b60a0830184613b99565b979650505050505050565b60006001600160a01b0385168252836020830152606060408301526106956060830184613b99565b600060408252613ca2604083018688613b12565b8281036020840152613c5b818587613b12565b6000602082526115e96020830184613b5f565b600060408252613cdb6040830185613b5f565b82810360208401526106958185613b5f565b6000602082526115e96020830184613b99565b604051601f8201601f1916810167ffffffffffffffff81118282101715613d2957613d29613f8a565b604052919050565b600061ffff808316818516808303821115613d4e57613d4e613f5e565b01949350505050565b60008219821115613d6a57613d6a613f5e565b500190565b600063ffffffff808316818516808303821115613d4e57613d4e613f5e565b600082613d9d57613d9d613f74565b500490565b80825b6001808611613db45750613ddf565b818704821115613dc657613dc6613f5e565b80861615613dd357918102915b9490941c938002613da5565b94509492505050565b60006115e96000198484613e05565b60006115e960001960ff8516845b600082613e14575060016115e9565b81613e21575060006115e9565b8160018114613e375760028114613e4157613e6e565b60019150506115e9565b60ff841115613e5257613e52613f5e565b6001841b915084821115613e6857613e68613f5e565b506115e9565b5060208310610133831016604e8410600b8410161715613ea1575081810a83811115613e9c57613e9c613f5e565b6115e9565b613eae8484846001613da2565b808604821115613ec057613ec0613f5e565b02949350505050565b6000816000190483118215151615613ee357613ee3613f5e565b500290565b600082821015613efa57613efa613f5e565b500390565b60005b83811015613f1a578181015183820152602001613f02565b83811115613f29576000848401525b50505050565b6000600019821415613f4357613f43613f5e565b5060010190565b600082613f5957613f59613f74565b500690565b634e487b7160e01b600052601160045260246000fd5b634e487b7160e01b600052601260045260246000fd5b634e487b7160e01b600052604160045260246000fd5b6001600160a01b0381168114613fb557600080fd5b50565b6001600160e01b031981168114613fb557600080fdfea26469706673582212204347d4b5bbe40c3ea73acb008d656ee2ebe7ac964163da83f53e39e3c488d36f64736f6c63430008020033",
  "libraries": {
    "ERC1155ERC721Helper": "0x00E9e534777fB51aAbA8F5cCb51d5D528C283BA2",
    "AssetHelper": "0xfeB0bD6ea6F0728005CBB71e961c546e07Cc0989"
  },
  "devdoc": {
    "kind": "dev",
    "methods": {
      "balanceOf(address,uint256)": {
        "params": {
          "id": "the token type of which to get the balance of.",
          "owner": "The address of the token holder."
        },
        "returns": {
          "_0": "the balance of `owner` for the token type `id`."
        }
      },
      "balanceOfBatch(address[],uint256[])": {
        "params": {
          "ids": "ids of each token type to query.",
          "owners": "the addresses of the token holders queried."
        },
        "returns": {
          "_0": "the balance of each `owners` for each token type `ids`."
        }
      },
      "burn(uint256,uint256)": {
        "params": {
          "amount": "amount of token to burn.",
          "id": "token type which will be burnt."
        }
      },
      "burnFrom(address,uint256,uint256)": {
        "params": {
          "amount": "amount of token to burn.",
          "from": "address whose token is to be burnt.",
          "id": "token type which will be burnt."
        }
      },
      "changeAdmin(address)": {
        "details": "Change the administrator to be `newAdmin`.",
        "params": {
          "newAdmin": "The address of the new administrator."
        }
      },
      "changeBouncerAdmin(address)": {
        "params": {
          "newBouncerAdmin": "address of the new minting administrator."
        }
      },
      "collectionIndexOf(uint256)": {
        "params": {
          "id": "the token to get the index of."
        },
        "returns": {
          "_0": "the index/order at which the token `id` was minted in a collection."
        }
      },
      "collectionOf(uint256)": {
        "params": {
          "id": "the token to get the collection of."
        },
        "returns": {
          "_0": "the collection the NFT is part of."
        }
      },
      "extractERC721From(address,uint256,address)": {
        "params": {
          "id": "the token type to extract from.",
          "sender": "address which own the token to be extracted.",
          "to": "address which will receive the token."
        },
        "returns": {
          "_0": "newId the id of the newly minted NFT."
        }
      },
      "getAdmin()": {
        "details": "Get the current administrator of this contract.",
        "returns": {
          "_0": "The current administrator of this contract."
        }
      },
      "getBouncerAdmin()": {
        "returns": {
          "_0": "the current minting administrator in charge of minting rights."
        }
      },
      "isApprovedForAll(address,address)": {
        "params": {
          "operator": "address of authorized operator.",
          "owner": "the owner of the tokens."
        },
        "returns": {
          "isOperator": "true if the operator is approved, false if not."
        }
      },
      "isBouncer(address)": {
        "params": {
          "who": "The address to query."
        },
        "returns": {
          "_0": "whether the address has minting rights."
        }
      },
      "isCollection(uint256)": {
        "params": {
          "id": "collectionId to check."
        },
        "returns": {
          "_0": "whether the id is a collection."
        }
      },
      "isSuperOperator(address)": {
        "params": {
          "who": "The address to query."
        },
        "returns": {
          "_0": "whether the address has superOperator rights."
        }
      },
      "mint(address,uint256,uint256,bytes)": {
        "details": "Should be callable only by AssetERC1155Tunnel.Encoded bytes32 metadata hash must be provided as data. Make sure minting is done only by this function.",
        "params": {
          "account": "user address for whom token is being minted.",
          "amount": "amount of token being minted.",
          "data": "token metadata.",
          "id": "token which is being minted."
        }
      },
      "mint(address,uint40,bytes32,uint256,address,bytes)": {
        "details": "Function implementation reserved for future use cases on L1.For this function it is not required to provide data.",
        "params": {
          "creator": "address of the creator of the token.",
          "data": "extra data to accompany the minting call.",
          "hash": "hash of an IPFS cidv1 folder that contains the metadata of the token type in the file 0.json.",
          "owner": "address that will receive the tokens.",
          "packId": "unique packId for that token.",
          "supply": "number of tokens minted for that token type."
        },
        "returns": {
          "id": "the id of the newly minted token type."
        }
      },
      "mintMultiple(address,uint256[],uint256[],bytes)": {
        "details": "Should be callable only by AssetERC1155Tunnel.Encoded bytes32[] metadata hashes must be provided as data.",
        "params": {
          "amounts": "supply for each token type.",
          "data": "token metadata.",
          "ids": "ids to mint.",
          "to": "address to mint to."
        }
      },
      "name()": {
        "returns": {
          "_name": "the name of the tokens."
        }
      },
      "safeBatchTransferFrom(address,address,uint256[],uint256[],bytes)": {
        "details": "call data should be optimized to order ids so packedBalance can be used efficiently.",
        "params": {
          "data": "aditional data accompanying the transfer.",
          "from": "address from which tokens are transfered.",
          "ids": "ids of each token type transfered.",
          "to": "address to which the token will be transfered.",
          "values": "amount of each token type transfered."
        }
      },
      "safeTransferFrom(address,address,uint256,uint256,bytes)": {
        "params": {
          "data": "aditional data accompanying the transfer.",
          "from": "address from which tokens are transfered.",
          "id": "the token type transfered.",
          "to": "address to which the token will be transfered.",
          "value": "amount of token transfered."
        }
      },
      "setApprovalForAll(address,bool)": {
        "params": {
          "approved": "whether to approve or revoke",
          "operator": "address which will be granted rights to transfer all tokens of the caller."
        }
      },
      "setApprovalForAllFor(address,address,bool)": {
        "details": "used for Meta Transaction (from metaTransactionContract).",
        "params": {
          "approved": "whether to approve or revoke.",
          "operator": "address which will be granted rights to transfer all token owned by `sender`.",
          "sender": "address which grant approval."
        }
      },
      "setBouncer(address,bool)": {
        "params": {
          "bouncer": "address that will be given/removed minting bouncer rights.",
          "enabled": "set whether the address is enabled or disabled as a minting bouncer."
        }
      },
      "setPredicate(address)": {
        "params": {
          "predicate": "address that will be given minting rights for L1."
        }
      },
      "setSuperOperator(address,bool)": {
        "params": {
          "enabled": "set whether the superOperator is enabled or disabled.",
          "superOperator": "address that will be given/removed superOperator right."
        }
      },
      "supportsInterface(bytes4)": {
        "params": {
          "id": "the interface identifier, as specified in ERC-165."
        },
        "returns": {
          "_0": "`true` if the contract implements `id`."
        }
      },
      "symbol()": {
        "returns": {
          "_symbol": "the symbol of the tokens."
        }
      },
      "tokenURI(uint256)": {
        "params": {
          "id": "token to get the uri of."
        },
        "returns": {
          "_0": "URI string"
        }
      }
    },
    "version": 1
  },
  "userdoc": {
    "kind": "user",
    "methods": {
      "balanceOf(address,uint256)": {
        "notice": "Get the balance of `owner` for the token type `id`."
      },
      "balanceOfBatch(address[],uint256[])": {
        "notice": "Get the balance of `owners` for each token type `ids`."
      },
      "burn(uint256,uint256)": {
        "notice": "Burns `amount` tokens of type `id`."
      },
      "burnFrom(address,uint256,uint256)": {
        "notice": "Burns `amount` tokens of type `id` from `from`."
      },
      "changeBouncerAdmin(address)": {
        "notice": "Change the minting administrator to be `newBouncerAdmin`."
      },
      "collectionIndexOf(uint256)": {
        "notice": "Gives the index at which an NFT was minted in a collection : first of a collection get the zero index."
      },
      "collectionOf(uint256)": {
        "notice": "Gives the collection a specific token belongs to."
      },
      "extractERC721From(address,uint256,address)": {
        "notice": "Extracts an EIP-721 Asset from an EIP-1155 Asset."
      },
      "getBouncerAdmin()": {
        "notice": "Returns the current administrator in charge of minting rights."
      },
      "isApprovedForAll(address,address)": {
        "notice": "Queries the approval status of `operator` for owner `owner`."
      },
      "isBouncer(address)": {
        "notice": "check whether address `who` is given minting bouncer rights."
      },
      "isCollection(uint256)": {
        "notice": "Return wether the id is a collection"
      },
      "isSuperOperator(address)": {
        "notice": "check whether address `who` is given superOperator rights."
      },
      "mint(address,uint256,uint256,bytes)": {
        "notice": "Creates `amount` tokens of token type `id`, and assigns them to `account`."
      },
      "mint(address,uint40,bytes32,uint256,address,bytes)": {
        "notice": "Mint a token type for `creator` on slot `packId`."
      },
      "mintMultiple(address,uint256[],uint256[],bytes)": {
        "notice": "Creates `amounts` tokens of token types `ids`, and assigns them to `account`."
      },
      "name()": {
        "notice": "A descriptive name for the collection of tokens in this contract."
      },
      "safeBatchTransferFrom(address,address,uint256[],uint256[],bytes)": {
        "notice": "Transfers `values` tokens of type `ids` from  `from` to `to` (with safety call)."
      },
      "safeTransferFrom(address,address,uint256,uint256,bytes)": {
        "notice": "Transfers `value` tokens of type `id` from  `from` to `to`  (with safety call)."
      },
      "setApprovalForAll(address,bool)": {
        "notice": "Enable or disable approval for `operator` to manage all of the caller's tokens."
      },
      "setApprovalForAllFor(address,address,bool)": {
        "notice": "Enable or disable approval for `operator` to manage all `sender`'s tokens."
      },
      "setBouncer(address,bool)": {
        "notice": "Enable or disable the ability of `bouncer` to mint tokens (minting bouncer rights)."
      },
      "setPredicate(address)": {
        "notice": "Set the address that will be able to mint on L1 (limited to custom predicate)."
      },
      "setSuperOperator(address,bool)": {
        "notice": "Enable or disable the ability of `superOperator` to transfer tokens of all (superOperator rights)."
      },
      "supportsInterface(bytes4)": {
        "notice": "Query if a contract implements interface `id`."
      },
      "symbol()": {
        "notice": "An abbreviated name for the collection of tokens in this contract."
      },
      "tokenURI(uint256)": {
        "notice": "A distinct Uniform Resource Identifier (URI) for a given asset."
      }
    },
    "version": 1
  },
  "storageLayout": {
    "storage": [
      {
        "astId": 31360,
        "contract": "src/solc_0.8/assetERC1155/AssetERC1155.sol:AssetERC1155",
        "label": "_admin",
        "offset": 0,
        "slot": "0",
        "type": "t_address"
      },
      {
        "astId": 31752,
        "contract": "src/solc_0.8/assetERC1155/AssetERC1155.sol:AssetERC1155",
        "label": "_superOperators",
        "offset": 0,
        "slot": "1",
        "type": "t_mapping(t_address,t_bool)"
      },
      {
        "astId": 20465,
        "contract": "src/solc_0.8/assetERC1155/AssetERC1155.sol:AssetERC1155",
        "label": "_numNFTPerAddress",
        "offset": 0,
        "slot": "2",
        "type": "t_mapping(t_address,t_uint256)"
      },
      {
        "astId": 20469,
        "contract": "src/solc_0.8/assetERC1155/AssetERC1155.sol:AssetERC1155",
        "label": "_owners",
        "offset": 0,
        "slot": "3",
        "type": "t_mapping(t_uint256,t_uint256)"
      },
      {
        "astId": 20475,
        "contract": "src/solc_0.8/assetERC1155/AssetERC1155.sol:AssetERC1155",
        "label": "_packedTokenBalance",
        "offset": 0,
        "slot": "4",
        "type": "t_mapping(t_address,t_mapping(t_uint256,t_uint256))"
      },
      {
        "astId": 20481,
        "contract": "src/solc_0.8/assetERC1155/AssetERC1155.sol:AssetERC1155",
        "label": "_operatorsForAll",
        "offset": 0,
        "slot": "5",
        "type": "t_mapping(t_address,t_mapping(t_address,t_bool))"
      },
      {
        "astId": 20485,
        "contract": "src/solc_0.8/assetERC1155/AssetERC1155.sol:AssetERC1155",
        "label": "_erc721operators",
        "offset": 0,
        "slot": "6",
        "type": "t_mapping(t_uint256,t_address)"
      },
      {
        "astId": 20489,
        "contract": "src/solc_0.8/assetERC1155/AssetERC1155.sol:AssetERC1155",
        "label": "_metadataHash",
        "offset": 0,
        "slot": "7",
        "type": "t_mapping(t_uint256,t_bytes32)"
      },
      {
        "astId": 20493,
        "contract": "src/solc_0.8/assetERC1155/AssetERC1155.sol:AssetERC1155",
        "label": "_rarityPacks",
        "offset": 0,
        "slot": "8",
        "type": "t_mapping(t_uint256,t_bytes_storage)"
      },
      {
        "astId": 20497,
        "contract": "src/solc_0.8/assetERC1155/AssetERC1155.sol:AssetERC1155",
        "label": "_nextCollectionIndex",
        "offset": 0,
        "slot": "9",
        "type": "t_mapping(t_uint256,t_uint32)"
      },
      {
        "astId": 20501,
        "contract": "src/solc_0.8/assetERC1155/AssetERC1155.sol:AssetERC1155",
        "label": "_creatorship",
        "offset": 0,
        "slot": "10",
        "type": "t_mapping(t_address,t_address)"
      },
      {
        "astId": 20505,
        "contract": "src/solc_0.8/assetERC1155/AssetERC1155.sol:AssetERC1155",
        "label": "_bouncers",
        "offset": 0,
        "slot": "11",
        "type": "t_mapping(t_address,t_bool)"
      },
      {
        "astId": 20509,
        "contract": "src/solc_0.8/assetERC1155/AssetERC1155.sol:AssetERC1155",
        "label": "_metaTransactionContracts",
        "offset": 0,
        "slot": "12",
        "type": "t_mapping(t_address,t_bool)"
      },
      {
        "astId": 20511,
        "contract": "src/solc_0.8/assetERC1155/AssetERC1155.sol:AssetERC1155",
        "label": "_bouncerAdmin",
        "offset": 0,
        "slot": "13",
        "type": "t_address"
      },
      {
        "astId": 20513,
        "contract": "src/solc_0.8/assetERC1155/AssetERC1155.sol:AssetERC1155",
        "label": "_init",
        "offset": 20,
        "slot": "13",
        "type": "t_bool"
      },
      {
        "astId": 20518,
        "contract": "src/solc_0.8/assetERC1155/AssetERC1155.sol:AssetERC1155",
        "label": "_initBits",
        "offset": 0,
        "slot": "14",
        "type": "t_uint256"
      },
      {
        "astId": 20520,
        "contract": "src/solc_0.8/assetERC1155/AssetERC1155.sol:AssetERC1155",
        "label": "_predicate",
        "offset": 0,
        "slot": "15",
        "type": "t_address"
      },
      {
        "astId": 20522,
        "contract": "src/solc_0.8/assetERC1155/AssetERC1155.sol:AssetERC1155",
        "label": "_chainIndex",
        "offset": 20,
        "slot": "15",
        "type": "t_uint8"
      },
      {
        "astId": 20524,
        "contract": "src/solc_0.8/assetERC1155/AssetERC1155.sol:AssetERC1155",
        "label": "_trustedForwarder",
        "offset": 0,
        "slot": "16",
        "type": "t_address"
      },
      {
        "astId": 20527,
        "contract": "src/solc_0.8/assetERC1155/AssetERC1155.sol:AssetERC1155",
        "label": "_assetERC721",
        "offset": 0,
        "slot": "17",
        "type": "t_contract(IAssetERC721)33132"
      },
      {
        "astId": 20531,
        "contract": "src/solc_0.8/assetERC1155/AssetERC1155.sol:AssetERC1155",
        "label": "__gap",
        "offset": 0,
        "slot": "18",
        "type": "t_array(t_uint256)20_storage"
      }
    ],
    "types": {
      "t_address": {
        "encoding": "inplace",
        "label": "address",
        "numberOfBytes": "20"
      },
      "t_array(t_uint256)20_storage": {
        "base": "t_uint256",
        "encoding": "inplace",
        "label": "uint256[20]",
        "numberOfBytes": "640"
      },
      "t_bool": {
        "encoding": "inplace",
        "label": "bool",
        "numberOfBytes": "1"
      },
      "t_bytes32": {
        "encoding": "inplace",
        "label": "bytes32",
        "numberOfBytes": "32"
      },
      "t_bytes_storage": {
        "encoding": "bytes",
        "label": "bytes",
        "numberOfBytes": "32"
      },
      "t_contract(IAssetERC721)33132": {
        "encoding": "inplace",
        "label": "contract IAssetERC721",
        "numberOfBytes": "20"
      },
      "t_mapping(t_address,t_address)": {
        "encoding": "mapping",
        "key": "t_address",
        "label": "mapping(address => address)",
        "numberOfBytes": "32",
        "value": "t_address"
      },
      "t_mapping(t_address,t_bool)": {
        "encoding": "mapping",
        "key": "t_address",
        "label": "mapping(address => bool)",
        "numberOfBytes": "32",
        "value": "t_bool"
      },
      "t_mapping(t_address,t_mapping(t_address,t_bool))": {
        "encoding": "mapping",
        "key": "t_address",
        "label": "mapping(address => mapping(address => bool))",
        "numberOfBytes": "32",
        "value": "t_mapping(t_address,t_bool)"
      },
      "t_mapping(t_address,t_mapping(t_uint256,t_uint256))": {
        "encoding": "mapping",
        "key": "t_address",
        "label": "mapping(address => mapping(uint256 => uint256))",
        "numberOfBytes": "32",
        "value": "t_mapping(t_uint256,t_uint256)"
      },
      "t_mapping(t_address,t_uint256)": {
        "encoding": "mapping",
        "key": "t_address",
        "label": "mapping(address => uint256)",
        "numberOfBytes": "32",
        "value": "t_uint256"
      },
      "t_mapping(t_uint256,t_address)": {
        "encoding": "mapping",
        "key": "t_uint256",
        "label": "mapping(uint256 => address)",
        "numberOfBytes": "32",
        "value": "t_address"
      },
      "t_mapping(t_uint256,t_bytes32)": {
        "encoding": "mapping",
        "key": "t_uint256",
        "label": "mapping(uint256 => bytes32)",
        "numberOfBytes": "32",
        "value": "t_bytes32"
      },
      "t_mapping(t_uint256,t_bytes_storage)": {
        "encoding": "mapping",
        "key": "t_uint256",
        "label": "mapping(uint256 => bytes)",
        "numberOfBytes": "32",
        "value": "t_bytes_storage"
      },
      "t_mapping(t_uint256,t_uint256)": {
        "encoding": "mapping",
        "key": "t_uint256",
        "label": "mapping(uint256 => uint256)",
        "numberOfBytes": "32",
        "value": "t_uint256"
      },
      "t_mapping(t_uint256,t_uint32)": {
        "encoding": "mapping",
        "key": "t_uint256",
        "label": "mapping(uint256 => uint32)",
        "numberOfBytes": "32",
        "value": "t_uint32"
      },
      "t_uint256": {
        "encoding": "inplace",
        "label": "uint256",
        "numberOfBytes": "32"
      },
      "t_uint32": {
        "encoding": "inplace",
        "label": "uint32",
        "numberOfBytes": "4"
      },
      "t_uint8": {
        "encoding": "inplace",
        "label": "uint8",
        "numberOfBytes": "1"
      }
    }
  }
}