{
  "address": "0xE5E8a8E99Fda989DB40dA79e1b70FFe3CAd7A652",
  "abi": [
    {
      "inputs": [
        {
          "internalType": "address",
          "name": "_checkpointManager",
          "type": "address"
        },
        {
          "internalType": "address",
          "name": "_fxRoot",
          "type": "address"
        },
        {
          "internalType": "contract IAssetERC1155",
          "name": "_rootToken",
          "type": "address"
        },
        {
          "internalType": "address",
          "name": "trustedForwarder",
          "type": "address"
        },
        {
          "internalType": "uint256",
          "name": "_maxTransferLimit",
          "type": "uint256"
        }
      ],
      "stateMutability": "nonpayable",
      "type": "constructor"
    },
    {
      "anonymous": false,
      "inputs": [
        {
          "indexed": false,
          "internalType": "address",
          "name": "user",
          "type": "address"
        },
        {
          "indexed": false,
          "internalType": "uint256",
          "name": "id",
          "type": "uint256"
        },
        {
          "indexed": false,
          "internalType": "uint256",
          "name": "value",
          "type": "uint256"
        },
        {
          "indexed": false,
          "internalType": "bytes",
          "name": "data",
          "type": "bytes"
        }
      ],
      "name": "Deposit",
      "type": "event"
    },
    {
      "anonymous": false,
      "inputs": [
        {
          "indexed": true,
          "internalType": "address",
          "name": "previousOwner",
          "type": "address"
        },
        {
          "indexed": true,
          "internalType": "address",
          "name": "newOwner",
          "type": "address"
        }
      ],
      "name": "OwnershipTransferred",
      "type": "event"
    },
    {
      "anonymous": false,
      "inputs": [
        {
          "indexed": false,
          "internalType": "address",
          "name": "account",
          "type": "address"
        }
      ],
      "name": "Paused",
      "type": "event"
    },
    {
      "anonymous": false,
      "inputs": [
        {
          "indexed": false,
          "internalType": "uint256",
          "name": "limit",
          "type": "uint256"
        }
      ],
      "name": "SetTransferLimit",
      "type": "event"
    },
    {
      "anonymous": false,
      "inputs": [
        {
          "indexed": false,
          "internalType": "address",
          "name": "account",
          "type": "address"
        }
      ],
      "name": "Unpaused",
      "type": "event"
    },
    {
      "anonymous": false,
      "inputs": [
        {
          "indexed": false,
          "internalType": "address",
          "name": "user",
          "type": "address"
        },
        {
          "indexed": false,
          "internalType": "uint256",
          "name": "id",
          "type": "uint256"
        },
        {
          "indexed": false,
          "internalType": "uint256",
          "name": "value",
          "type": "uint256"
        },
        {
          "indexed": false,
          "internalType": "bytes",
          "name": "data",
          "type": "bytes"
        }
      ],
      "name": "Withdraw",
      "type": "event"
    },
    {
      "inputs": [],
      "name": "SEND_MESSAGE_EVENT_SIG",
      "outputs": [
        {
          "internalType": "bytes32",
          "name": "",
          "type": "bytes32"
        }
      ],
      "stateMutability": "view",
      "type": "function"
    },
    {
      "inputs": [
        {
          "internalType": "address",
          "name": "to",
          "type": "address"
        },
        {
          "internalType": "uint256[]",
          "name": "ids",
          "type": "uint256[]"
        },
        {
          "internalType": "uint256[]",
          "name": "values",
          "type": "uint256[]"
        }
      ],
      "name": "batchDepositToChild",
      "outputs": [],
      "stateMutability": "nonpayable",
      "type": "function"
    },
    {
      "inputs": [],
      "name": "checkpointManager",
      "outputs": [
        {
          "internalType": "contract ICheckpointManager",
          "name": "",
          "type": "address"
        }
      ],
      "stateMutability": "view",
      "type": "function"
    },
    {
      "inputs": [],
      "name": "fxChildTunnel",
      "outputs": [
        {
          "internalType": "address",
          "name": "",
          "type": "address"
        }
      ],
      "stateMutability": "view",
      "type": "function"
    },
    {
      "inputs": [],
      "name": "fxRoot",
      "outputs": [
        {
          "internalType": "contract IFxStateSender",
          "name": "",
          "type": "address"
        }
      ],
      "stateMutability": "view",
      "type": "function"
    },
    {
      "inputs": [],
      "name": "getTrustedForwarder",
      "outputs": [
        {
          "internalType": "address",
          "name": "trustedForwarder",
          "type": "address"
        }
      ],
      "stateMutability": "view",
      "type": "function"
    },
    {
      "inputs": [
        {
          "internalType": "address",
          "name": "forwarder",
          "type": "address"
        }
      ],
      "name": "isTrustedForwarder",
      "outputs": [
        {
          "internalType": "bool",
          "name": "",
          "type": "bool"
        }
      ],
      "stateMutability": "view",
      "type": "function"
    },
    {
      "inputs": [],
      "name": "maxTransferLimit",
      "outputs": [
        {
          "internalType": "uint256",
          "name": "",
          "type": "uint256"
        }
      ],
      "stateMutability": "view",
      "type": "function"
    },
    {
      "inputs": [
        {
          "internalType": "address",
          "name": "",
          "type": "address"
        },
        {
          "internalType": "address",
          "name": "",
          "type": "address"
        },
        {
          "internalType": "uint256[]",
          "name": "",
          "type": "uint256[]"
        },
        {
          "internalType": "uint256[]",
          "name": "",
          "type": "uint256[]"
        },
        {
          "internalType": "bytes",
          "name": "",
          "type": "bytes"
        }
      ],
      "name": "onERC1155BatchReceived",
      "outputs": [
        {
          "internalType": "bytes4",
          "name": "",
          "type": "bytes4"
        }
      ],
      "stateMutability": "view",
      "type": "function"
    },
    {
      "inputs": [
        {
          "internalType": "address",
          "name": "",
          "type": "address"
        },
        {
          "internalType": "address",
          "name": "",
          "type": "address"
        },
        {
          "internalType": "uint256",
          "name": "",
          "type": "uint256"
        },
        {
          "internalType": "uint256",
          "name": "",
          "type": "uint256"
        },
        {
          "internalType": "bytes",
          "name": "",
          "type": "bytes"
        }
      ],
      "name": "onERC1155Received",
      "outputs": [
        {
          "internalType": "bytes4",
          "name": "",
          "type": "bytes4"
        }
      ],
      "stateMutability": "view",
      "type": "function"
    },
    {
      "inputs": [],
      "name": "owner",
      "outputs": [
        {
          "internalType": "address",
          "name": "",
          "type": "address"
        }
      ],
      "stateMutability": "view",
      "type": "function"
    },
    {
      "inputs": [],
      "name": "pause",
      "outputs": [],
      "stateMutability": "nonpayable",
      "type": "function"
    },
    {
      "inputs": [],
      "name": "paused",
      "outputs": [
        {
          "internalType": "bool",
          "name": "",
          "type": "bool"
        }
      ],
      "stateMutability": "view",
      "type": "function"
    },
    {
      "inputs": [
        {
          "internalType": "bytes32",
          "name": "",
          "type": "bytes32"
        }
      ],
      "name": "processedExits",
      "outputs": [
        {
          "internalType": "bool",
          "name": "",
          "type": "bool"
        }
      ],
      "stateMutability": "view",
      "type": "function"
    },
    {
      "inputs": [
        {
          "internalType": "bytes",
          "name": "inputData",
          "type": "bytes"
        }
      ],
      "name": "receiveMessage",
      "outputs": [],
      "stateMutability": "nonpayable",
      "type": "function"
    },
    {
      "inputs": [],
      "name": "renounceOwnership",
      "outputs": [],
      "stateMutability": "nonpayable",
      "type": "function"
    },
    {
      "inputs": [],
      "name": "rootToken",
      "outputs": [
        {
          "internalType": "contract IAssetERC1155",
          "name": "",
          "type": "address"
        }
      ],
      "stateMutability": "view",
      "type": "function"
    },
    {
      "inputs": [
        {
          "internalType": "address",
          "name": "_fxChildTunnel",
          "type": "address"
        }
      ],
      "name": "setFxChildTunnel",
      "outputs": [],
      "stateMutability": "nonpayable",
      "type": "function"
    },
    {
      "inputs": [
        {
          "internalType": "uint256",
          "name": "_maxTransferLimit",
          "type": "uint256"
        }
      ],
      "name": "setTransferLimit",
      "outputs": [],
      "stateMutability": "nonpayable",
      "type": "function"
    },
    {
      "inputs": [
        {
          "internalType": "address",
          "name": "trustedForwarder",
          "type": "address"
        }
      ],
      "name": "setTrustedForwarder",
      "outputs": [],
      "stateMutability": "nonpayable",
      "type": "function"
    },
    {
      "inputs": [
        {
          "internalType": "bytes4",
          "name": "interfaceId",
          "type": "bytes4"
        }
      ],
      "name": "supportsInterface",
      "outputs": [
        {
          "internalType": "bool",
          "name": "",
          "type": "bool"
        }
      ],
      "stateMutability": "pure",
      "type": "function"
    },
    {
      "inputs": [
        {
          "internalType": "address",
          "name": "newOwner",
          "type": "address"
        }
      ],
      "name": "transferOwnership",
      "outputs": [],
      "stateMutability": "nonpayable",
      "type": "function"
    },
    {
      "inputs": [],
      "name": "unpause",
      "outputs": [],
      "stateMutability": "nonpayable",
      "type": "function"
    }
  ],
  "transactionHash": "0x33c3698265f93ab8a4b3af8754ca78207212738940e952f2f22c568ac6ff8241",
  "args": [
    "0x2890bA17EfE978480615e330ecB65333b880928e",
    "0x3d1d3E34f7fB6D26245E6640E1c50710eFFf15bA",
    "0x142494Ff1361cBF7552f0c1553281cF19B004512",
    "0x96E8789B195713B279c163847A7a0A107CDf6FCf",
    20
  ],
  "numDeployments": 1,
  "solcInputHash": "371a1c7bc065c121c5374a99315a8141",
  "bytecode": "0x608060405260146007556008805460ff191690553480156200002057600080fd5b5060405162003c9b38038062003c9b8339810160408190526200004391620001f4565b600180546001600160a01b038088166001600160a01b0319928316179092556000805492871692909116919091179055620000876200008162000156565b62000173565b6005805460ff60a01b191690556001600160a01b038316620001045760405162461bcd60e51b815260206004820152602c60248201527f41737365744552433131353554756e6e656c3a205f726f6f74546f6b656e206360448201526b616e2774206265207a65726f60a01b606482015260840160405180910390fd5b600680546001600160a01b0319166001600160a01b03851617905560078190556200014b82600480546001600160a01b0319166001600160a01b0392909216919091179055565b505050505062000280565b60006200016d620001c560201b62000ec01760201c565b90505b90565b600580546001600160a01b038381166001600160a01b0319831681179093556040519116919082907f8be0079c531659141344cd1fd0a4f28419497f9722a3daafe3b4186f6b6457e090600090a35050565b6004546000906001600160a01b0316331415620001ec575060131936013560601c62000170565b503362000170565b600080600080600060a086880312156200020c578081fd5b8551620002198162000267565b60208701519095506200022c8162000267565b60408701519094506200023f8162000267565b6060870151909350620002528162000267565b80925050608086015190509295509295909350565b6001600160a01b03811681146200027d57600080fd5b50565b613a0b80620002906000396000f3fe608060405234801561001057600080fd5b506004361061018d5760003560e01c8063972c4928116100e3578063ce1b815f1161008c578063f23a6e6111610066578063f23a6e6114610375578063f2fde38b14610388578063f953cec71461039b5761018d565b8063ce1b815f1461033e578063da7422281461034f578063de9b771f146103625761018d565b8063bc197c81116100bd578063bc197c81146102de578063bd85e93b14610322578063c0857ba01461032b5761018d565b8063972c4928146102a5578063ac159a44146102b8578063aea4e49e146102cb5761018d565b80635c975abb116101455780637a17feff1161011f5780637a17feff146102795780638456cb591461028c5780638da5cb5b146102945761018d565b80635c975abb14610246578063607f2d421461024e578063715018a6146102715761018d565b80631f2d0065116101765780631f2d0065146101ef5780633f4ba83a1461021a578063572b6c05146102245761018d565b806301ffc9a7146101925780630e387de6146101ba575b600080fd5b6101a56101a0366004613426565b6103ae565b60405190151581526020015b60405180910390f35b6101e17f8c5261668696ce22758910d05bab8f186d6eb247ceac2af2e82c7dc17669b03681565b6040519081526020016101b1565b600654610202906001600160a01b031681565b6040516001600160a01b0390911681526020016101b1565b610222610449565b005b6101a561023236600461309e565b6004546001600160a01b0390811691161490565b6101a56104d1565b6101a561025c3660046133aa565b60036020526000908152604090205460ff1681565b6102226104f3565b6102226102873660046133aa565b610576565b61022261062a565b6005546001600160a01b0316610202565b600254610202906001600160a01b031681565b6102226102c6366004613287565b6106ab565b6102226102d936600461309e565b610af5565b6102f16102ec366004613152565b610ba3565b6040517fffffffff0000000000000000000000000000000000000000000000000000000090911681526020016101b1565b6101e160075481565b600154610202906001600160a01b031681565b6004546001600160a01b0316610202565b61022261035d36600461309e565b610c51565b600054610202906001600160a01b031681565b6102f161038336600461320d565b610cf9565b61022261039636600461309e565b610da5565b6102226103a9366004613466565b610ea6565b60007f4e2312e0000000000000000000000000000000000000000000000000000000007fffffffff000000000000000000000000000000000000000000000000000000008316148061044157507f01ffc9a7000000000000000000000000000000000000000000000000000000007fffffffff000000000000000000000000000000000000000000000000000000008316145b90505b919050565b610451610f0a565b6001600160a01b031661046c6005546001600160a01b031690565b6001600160a01b0316146104c75760405162461bcd60e51b815260206004820181905260248201527f4f776e61626c653a2063616c6c6572206973206e6f7420746865206f776e657260448201526064015b60405180910390fd5b6104cf610f19565b565b60055474010000000000000000000000000000000000000000900460ff165b90565b6104fb610f0a565b6001600160a01b03166105166005546001600160a01b031690565b6001600160a01b03161461056c5760405162461bcd60e51b815260206004820181905260248201527f4f776e61626c653a2063616c6c6572206973206e6f7420746865206f776e657260448201526064016104be565b6104cf6000610fdb565b61057e610f0a565b6001600160a01b03166105996005546001600160a01b031690565b6001600160a01b0316146105ef5760405162461bcd60e51b815260206004820181905260248201527f4f776e61626c653a2063616c6c6572206973206e6f7420746865206f776e657260448201526064016104be565b60078190556040518181527f3fc6a03e501b3ca46f5b6c08064272abf4e2b0d2bbdeeaeba4e4a4f22c9e616d9060200160405180910390a150565b610632610f0a565b6001600160a01b031661064d6005546001600160a01b031690565b6001600160a01b0316146106a35760405162461bcd60e51b815260206004820181905260248201527f4f776e61626c653a2063616c6c6572206973206e6f7420746865206f776e657260448201526064016104be565b6104cf61103a565b6106b36104d1565b156107005760405162461bcd60e51b815260206004820152601060248201527f5061757361626c653a207061757365640000000000000000000000000000000060448201526064016104be565b60008251116107515760405162461bcd60e51b815260206004820152601160248201527f4d495353494e475f544f4b454e5f49445300000000000000000000000000000060448201526064016104be565b6007548251106107a35760405162461bcd60e51b815260206004820152601660248201527f455843454544535f5452414e534645525f4c494d49540000000000000000000060448201526064016104be565b6000825167ffffffffffffffff8111156107cd57634e487b7160e01b600052604160045260246000fd5b6040519080825280602002602001820160405280156107f6578160200160208202803683370190505b506008805460ff19166001179055905060005b8351811015610a955760065484516000916001600160a01b03169063219cc8bc9087908590811061084a57634e487b7160e01b600052603260045260246000fd5b60200260200101516040518263ffffffff1660e01b815260040161087091815260200190565b60206040518083038186803b15801561088857600080fd5b505afa15801561089c573d6000803e3d6000fd5b505050506040513d601f19601f820116820180604052508101906108c091906133c2565b9050808383815181106108e357634e487b7160e01b600052603260045260246000fd5b60200260200101818152505060008160405160200161090491815260200190565b60408051601f198184030181529190526006549091506001600160a01b031663f242432a610930610f0a565b3089878151811061095157634e487b7160e01b600052603260045260246000fd5b602002602001015189888151811061097957634e487b7160e01b600052603260045260246000fd5b60200260200101518760405160200161099491815260200190565b6040516020818303038152906040526040518663ffffffff1660e01b81526004016109c39594939291906135a0565b600060405180830381600087803b1580156109dd57600080fd5b505af11580156109f1573d6000803e3d6000fd5b505050507f07c6d86eb9c47d0224ebbb590d5fbb1d9d0d7aca54f94611e5ed37a2c6ee20a787878581518110610a3757634e487b7160e01b600052603260045260246000fd5b6020026020010151878681518110610a5f57634e487b7160e01b600052603260045260246000fd5b602002602001015184604051610a78949392919061364d565b60405180910390a150508080610a8d9061392d565b915050610809565b506008805460ff19169055604051610aef90859085908590610abb908690602001613685565b60408051601f1981840301815290829052610adb949392916020016135e3565b6040516020818303038152906040526110f7565b50505050565b6002546001600160a01b031615610b745760405162461bcd60e51b815260206004820152602a60248201527f467842617365526f6f7454756e6e656c3a204348494c445f54554e4e454c5f4160448201527f4c52454144595f5345540000000000000000000000000000000000000000000060648201526084016104be565b6002805473ffffffffffffffffffffffffffffffffffffffff19166001600160a01b0392909216919091179055565b60085460009060ff161515600114610c235760405162461bcd60e51b815260206004820152602e60248201527f41737365744552433131353554756e6e656c3a2063616e27742064697265637460448201527f6c792073656e642041737365747300000000000000000000000000000000000060648201526084016104be565b507fbc197c810000000000000000000000000000000000000000000000000000000098975050505050505050565b610c59610f0a565b6001600160a01b0316610c746005546001600160a01b031690565b6001600160a01b031614610cca5760405162461bcd60e51b815260206004820181905260248201527f4f776e61626c653a2063616c6c6572206973206e6f7420746865206f776e657260448201526064016104be565b6004805473ffffffffffffffffffffffffffffffffffffffff19166001600160a01b0392909216919091179055565b60085460009060ff161515600114610d795760405162461bcd60e51b815260206004820152602e60248201527f41737365744552433131353554756e6e656c3a2063616e27742064697265637460448201527f6c792073656e642041737365747300000000000000000000000000000000000060648201526084016104be565b507ff23a6e61000000000000000000000000000000000000000000000000000000009695505050505050565b610dad610f0a565b6001600160a01b0316610dc86005546001600160a01b031690565b6001600160a01b031614610e1e5760405162461bcd60e51b815260206004820181905260248201527f4f776e61626c653a2063616c6c6572206973206e6f7420746865206f776e657260448201526064016104be565b6001600160a01b038116610e9a5760405162461bcd60e51b815260206004820152602660248201527f4f776e61626c653a206e6577206f776e657220697320746865207a65726f206160448201527f646472657373000000000000000000000000000000000000000000000000000060648201526084016104be565b610ea381610fdb565b50565b6000610eb18261117b565b9050610ebc816114ac565b5050565b6004546000906001600160a01b0316331415610f0357507fffffffffffffffffffffffffffffffffffffffffffffffffffffffffffffffec36013560601c6104f0565b50336104f0565b6000610f14610ec0565b905090565b610f216104d1565b610f6d5760405162461bcd60e51b815260206004820152601460248201527f5061757361626c653a206e6f742070617573656400000000000000000000000060448201526064016104be565b600580547fffffffffffffffffffffff00ffffffffffffffffffffffffffffffffffffffff1690557f5db9ee0a495bf2e6ff9c91a7834c1ba4fdd244a5e8aa4e537bd38aeae4b073aa610fbe610f0a565b6040516001600160a01b03909116815260200160405180910390a1565b600580546001600160a01b0383811673ffffffffffffffffffffffffffffffffffffffff19831681179093556040519116919082907f8be0079c531659141344cd1fd0a4f28419497f9722a3daafe3b4186f6b6457e090600090a35050565b6110426104d1565b1561108f5760405162461bcd60e51b815260206004820152601060248201527f5061757361626c653a207061757365640000000000000000000000000000000060448201526064016104be565b600580547fffffffffffffffffffffff00ffffffffffffffffffffffffffffffffffffffff16740100000000000000000000000000000000000000001790557f62e78cea01bee320cd4e420270b5ea74000d11b0c9f74754ebdbfc544b05a258610fbe610f0a565b6000546002546040517fb47204770000000000000000000000000000000000000000000000000000000081526001600160a01b039283169263b47204779261114692911690859060040161362b565b600060405180830381600087803b15801561116057600080fd5b505af1158015611174573d6000803e3d6000fd5b5050505050565b60606000611188836117b3565b9050600061119582611812565b905060006111a283611849565b90506000816111b084611880565b6111b986611aa6565b6040516020016111cb93929190613573565b60408051601f1981840301815291815281516020928301206000818152600390935291205490915060ff16156112685760405162461bcd60e51b8152602060048201526024808201527f4678526f6f7454756e6e656c3a20455849545f414c52454144595f50524f434560448201527f535345440000000000000000000000000000000000000000000000000000000060648201526084016104be565b6000818152600360205260408120805460ff1916600117905561128a85611ad0565b9050600061129782611c36565b90506112a281611ce2565b6002546001600160a01b039081169116146113255760405162461bcd60e51b815260206004820152602560248201527f4678526f6f7454756e6e656c3a20494e56414c49445f46585f4348494c445f5460448201527f554e4e454c00000000000000000000000000000000000000000000000000000060648201526084016104be565b600061133087611d19565b9050611350611340846020015190565b8761134a8a611d43565b84611d6d565b6113c25760405162461bcd60e51b815260206004820152602360248201527f4678526f6f7454756e6e656c3a20494e56414c49445f524543454950545f505260448201527f4f4f46000000000000000000000000000000000000000000000000000000000060648201526084016104be565b6113f0856113cf89612094565b6113d88a6120be565b846113e28c6120e8565b6113eb8d612112565b61213c565b5060006113fc8361228a565b90507f8c5261668696ce22758910d05bab8f186d6eb247ceac2af2e82c7dc17669b03661143261142d8360006122d4565b61231a565b1461147f5760405162461bcd60e51b815260206004820152601f60248201527f4678526f6f7454756e6e656c3a20494e56414c49445f5349474e41545552450060448201526064016104be565b600061148a84612395565b80602001905181019061149d91906134da565b9b9a5050505050505050505050565b600080600080848060200190518101906114c691906130ba565b93509350935093506000818060200190518101906114e491906132fa565b905060005b84518110156117aa57600082828151811061151457634e487b7160e01b600052603260045260246000fd5b602002602001015160405160200161152e91815260200190565b60408051601f1981840301815291905260065487519192506001600160a01b03169063f6c983fb9088908590811061157657634e487b7160e01b600052603260045260246000fd5b60200260200101516040518263ffffffff1660e01b815260040161159c91815260200190565b60206040518083038186803b1580156115b457600080fd5b505afa1580156115c8573d6000803e3d6000fd5b505050506040513d601f19601f820116820180604052508101906115ec919061338a565b156116505761164b8787848151811061161557634e487b7160e01b600052603260045260246000fd5b602002602001015187858151811061163d57634e487b7160e01b600052603260045260246000fd5b6020026020010151846123bf565b61170c565b60065486516001600160a01b039091169063731133e990899089908690811061168957634e487b7160e01b600052603260045260246000fd5b60200260200101518886815181106116b157634e487b7160e01b600052603260045260246000fd5b6020026020010151856040518563ffffffff1660e01b81526004016116d9949392919061364d565b600060405180830381600087803b1580156116f357600080fd5b505af1158015611707573d6000803e3d6000fd5b505050505b7f5b60e6b7a1385a03cd29f6ac8c80abbd3fe29663ec7d8bbe63bb79a35c176da48787848151811061174e57634e487b7160e01b600052603260045260246000fd5b602002602001015187858151811061177657634e487b7160e01b600052603260045260246000fd5b60200260200101518460405161178f949392919061364d565b60405180910390a150806117a28161392d565b9150506114e9565b50505050505050565b60408051602081019091526060815260006117fd6117f88460408051808201825260008082526020918201528151808301909252825182529182019181019190915290565b612616565b60408051602081019091529081529392505050565b6060610441826000015160088151811061183c57634e487b7160e01b600052603260045260246000fd5b6020026020010151612748565b6000610441826000015160028151811061187357634e487b7160e01b600052603260045260246000fd5b602002602001015161231a565b60408051602081019091526000815281516060919015610441576000806118a86000866127f3565b60f81c905060018114806118bf57508060ff166003145b1561199b576001855160026118d491906138a8565b6118de91906138c7565b67ffffffffffffffff81111561190457634e487b7160e01b600052604160045260246000fd5b6040519080825280601f01601f19166020018201604052801561192e576020820181803683370190505b509250600061193e6001876127f3565b9050808460008151811061196257634e487b7160e01b600052603260045260246000fd5b60200101907effffffffffffffffffffffffffffffffffffffffffffffffffffffffffffff1916908160001a9053506001925050611a0d565b6002855160026119ab91906138a8565b6119b591906138c7565b67ffffffffffffffff8111156119db57634e487b7160e01b600052604160045260246000fd5b6040519080825280601f01601f191660200182016040528015611a05576020820181803683370190505b509250600091505b60ff82165b8351811015611a9d57611a3c611a2b60ff8516836138c7565b611a36906002613746565b876127f3565b848281518110611a5c57634e487b7160e01b600052603260045260246000fd5b60200101907effffffffffffffffffffffffffffffffffffffffffffffffffffffffffffff1916908160001a90535080611a958161392d565b915050611a12565b50505092915050565b6000610441826000015160098151811061187357634e487b7160e01b600052603260045260246000fd5b611af460405180606001604052806060815260200160608152602001600081525090565b611b1c826000015160068151811061183c57634e487b7160e01b600052603260045260246000fd5b602082810182905260408051808201825260008082529083015280518082019091528251815291810190820152611b5281612890565b15611b6757611b6081612616565b8252611c22565b60208201518051600090611b7d906001906138c7565b67ffffffffffffffff811115611ba357634e487b7160e01b600052604160045260246000fd5b6040519080825280601f01601f191660200182016040528015611bcd576020820181803683370190505b509050600080836021019150826020019050611beb828285516128ca565b604080518082018252600080825260209182015281518083019092528451825280850190820152611c1b906117f8565b8652505050505b611c2b83611aa6565b604083015250919050565b604080516080810182526000918101828152606080830193909352815260208101919091526000611c928360000151600381518110611c8557634e487b7160e01b600052603260045260246000fd5b6020026020010151612616565b836040015181518110611cb557634e487b7160e01b600052603260045260246000fd5b602002602001015190506040518060400160405280828152602001611cd983612616565b90529392505050565b60006104418260200151600081518110611d0c57634e487b7160e01b600052603260045260246000fd5b6020026020010151612944565b6000610441826000015160058151811061187357634e487b7160e01b600052603260045260246000fd5b6060610441826000015160078151811061183c57634e487b7160e01b600052603260045260246000fd5b600080611da18460408051808201825260008082526020918201528151808301909252825182529182019181019190915290565b90506000611dae82612616565b905060608085600080611dc08b611880565b9050805160001415611ddc57600097505050505050505061208c565b60005b8651811015612083578151831115611e025760009850505050505050505061208c565b611e32878281518110611e2557634e487b7160e01b600052603260045260246000fd5b602002602001015161295e565b955085805190602001208414611e535760009850505050505050505061208c565b611e76878281518110611c8557634e487b7160e01b600052603260045260246000fd5b9450845160111415611f75578151831415611ee6578c80519060200120611eb78660108151811061183c57634e487b7160e01b600052603260045260246000fd5b805190602001201415611ed55760019850505050505050505061208c565b60009850505050505050505061208c565b6000828481518110611f0857634e487b7160e01b600052603260045260246000fd5b016020015160f81c90506010811115611f2d576000995050505050505050505061208c565b611f60868260ff1681518110611f5357634e487b7160e01b600052603260045260246000fd5b60200260200101516129ed565b9450611f6d600185613746565b935050612071565b845160021415611ed5576000611faf611fa88760008151811061183c57634e487b7160e01b600052603260045260246000fd5b8486612a1b565b8351909150611fbe8286613746565b1415612021578d80519060200120611ff08760018151811061183c57634e487b7160e01b600052603260045260246000fd5b80519060200120141561200f576001995050505050505050505061208c565b6000995050505050505050505061208c565b80612038576000995050505050505050505061208c565b6120428185613746565b935061206886600181518110611f5357634e487b7160e01b600052603260045260246000fd5b94506120719050565b8061207b8161392d565b915050611ddf565b50505050505050505b949350505050565b6000610441826000015160038151811061187357634e487b7160e01b600052603260045260246000fd5b6000610441826000015160048151811061187357634e487b7160e01b600052603260045260246000fd5b6000610441826000015160008151811061187357634e487b7160e01b600052603260045260246000fd5b6060610441826000015160018151811061183c57634e487b7160e01b600052603260045260246000fd5b6001546040517f41539d4a000000000000000000000000000000000000000000000000000000008152600481018490526000918291829182916001600160a01b03909116906341539d4a9060240160a06040518083038186803b1580156121a257600080fd5b505afa1580156121b6573d6000803e3d6000fd5b505050506040513d601f19601f820116820180604052508101906121da91906133da565b5093505092509250612231828b6121f191906138c7565b6040805160208082018f90528183018e9052606082018d905260808083018d90528351808403909101815260a09092019092528051910120908588612b80565b61227d5760405162461bcd60e51b815260206004820152601c60248201527f4678526f6f7454756e6e656c3a20494e56414c49445f4845414445520000000060448201526064016104be565b9998505050505050505050565b60408051602081019091526060815260405180602001604052806122cc8460200151600181518110611c8557634e487b7160e01b600052603260045260246000fd5b905292915050565b6040805180820190915260008082526020820152825180518390811061230a57634e487b7160e01b600052603260045260246000fd5b6020026020010151905092915050565b80516000901580159061232f57508151602110155b61233857600080fd5b60006123478360200151612cf6565b9050600081846000015161235b91906138c7565b90506000808386602001516123709190613746565b905080519150602083101561238c57826020036101000a820491505b50949350505050565b6060610441826020015160028151811061183c57634e487b7160e01b600052603260045260246000fd5b6006546040517efdd58e000000000000000000000000000000000000000000000000000000008152306004820152602481018590526000916001600160a01b03169062fdd58e9060440160206040518083038186803b15801561242157600080fd5b505afa158015612435573d6000803e3d6000fd5b505050506040513d601f19601f8201168201806040525081019061245991906133c2565b90508281106124ea576006546040517ff242432a0000000000000000000000000000000000000000000000000000000081526001600160a01b039091169063f242432a906124b390309089908990899089906004016135a0565b600060405180830381600087803b1580156124cd57600080fd5b505af11580156124e1573d6000803e3d6000fd5b50505050611174565b8015612574576006546040517ff242432a0000000000000000000000000000000000000000000000000000000081526001600160a01b039091169063f242432a9061254190309089908990879089906004016135a0565b600060405180830381600087803b15801561255b57600080fd5b505af115801561256f573d6000803e3d6000fd5b505050505b6006546001600160a01b03166340914613868661259185886138c7565b6040517fffffffff0000000000000000000000000000000000000000000000000000000060e086901b1681526001600160a01b03909316600484015260248301919091526044820152606401600060405180830381600087803b1580156125f757600080fd5b505af115801561260b573d6000803e3d6000fd5b505050505050505050565b606061262182612890565b61262a57600080fd5b600061263583612d7b565b905060008167ffffffffffffffff81111561266057634e487b7160e01b600052604160045260246000fd5b6040519080825280602002602001820160405280156126a557816020015b604080518082019091526000808252602082015281526020019060019003908161267e5790505b50905060006126b78560200151612cf6565b85602001516126c69190613746565b90506000805b8481101561273d576126dd83612dfe565b915060405180604001604052808381526020018481525084828151811061271457634e487b7160e01b600052603260045260246000fd5b60209081029190910101526127298284613746565b9250806127358161392d565b9150506126cc565b509195945050505050565b805160609061275657600080fd5b60006127658360200151612cf6565b9050600081846000015161277991906138c7565b905060008167ffffffffffffffff8111156127a457634e487b7160e01b600052604160045260246000fd5b6040519080825280601f01601f1916602001820160405280156127ce576020820181803683370190505b509050600081602001905061238c8487602001516127ec9190613746565b8285612ec0565b6000612800600284613948565b156128485760108261281360028661375e565b8151811061283157634e487b7160e01b600052603260045260246000fd5b0160200151612843919060f81c61395c565b612886565b60108261285660028661375e565b8151811061287457634e487b7160e01b600052603260045260246000fd5b0160200151612886919060f81c613772565b60f81b9392505050565b80516000906128a157506000610444565b6020820151805160001a9060c08210156128c057600092505050610444565b5060019392505050565b806128d45761293f565b6020811061290c57825182526128eb602084613746565b92506128f8602083613746565b91506129056020826138c7565b90506128d4565b6000600161291b8360206138c7565b612927906101006137da565b61293191906138c7565b845184518216911916178352505b505050565b805160009060151461295557600080fd5b6104418261231a565b60606000826000015167ffffffffffffffff81111561298d57634e487b7160e01b600052604160045260246000fd5b6040519080825280601f01601f1916602001820160405280156129b7576020820181803683370190505b5090508051600014156129cb579050610444565b60008160200190506129e68460200151828660000151612ec0565b5092915050565b80516000906021146129fe57600080fd5b60008083602001516001612a129190613746565b51949350505050565b60008080612a2886611880565b90506000815167ffffffffffffffff811115612a5457634e487b7160e01b600052604160045260246000fd5b6040519080825280601f01601f191660200182016040528015612a7e576020820181803683370190505b509050845b8251612a8f9087613746565b811015612b4e576000878281518110612ab857634e487b7160e01b600052603260045260246000fd5b01602001517fff000000000000000000000000000000000000000000000000000000000000001690508083612aed89856138c7565b81518110612b0b57634e487b7160e01b600052603260045260246000fd5b60200101907effffffffffffffffffffffffffffffffffffffffffffffffffffffffffffff1916908160001a905350508080612b469061392d565b915050612a83565b50808051906020012082805190602001201415612b6e5781519250612b73565b600092505b50909150505b9392505050565b600060208251612b909190613948565b15612bdd5760405162461bcd60e51b815260206004820152601460248201527f496e76616c69642070726f6f66206c656e67746800000000000000000000000060448201526064016104be565b600060208351612bed919061375e565b9050612bfa8160026137da565b8510612c485760405162461bcd60e51b815260206004820152601560248201527f4c65616620696e64657820697320746f6f20626967000000000000000000000060448201526064016104be565b60008660205b85518111612ce857858101519250612c67600289613948565b612c9c576040805160208101849052908101849052606001604051602081830303815290604052805190602001209150612cc9565b60408051602081018590529081018390526060016040516020818303038152906040528051906020012091505b612cd460028961375e565b9750612ce1602082613746565b9050612c4e565b509094149695505050505050565b8051600090811a6080811015612d10576000915050610444565b60b8811080612d2b575060c08110801590612d2b575060f881105b15612d3a576001915050610444565b60c0811015612d6f57612d4f600160b86138de565b612d5c9060ff16826138c7565b612d67906001613746565b915050610444565b612d4f600160f86138de565b8051600090612d8c57506000610444565b600080612d9c8460200151612cf6565b8460200151612dab9190613746565b9050600084600001518560200151612dc39190613746565b90505b80821015612df557612dd782612dfe565b612de19083613746565b915082612ded8161392d565b935050612dc6565b50909392505050565b80516000908190811a6080811015612e1957600191506129e6565b60b8811015612e3f57612e2d6080826138c7565b612e38906001613746565b91506129e6565b60c0811015612e6c5760b78103600185019450806020036101000a855104600182018101935050506129e6565b60f8811015612e8057612e2d60c0826138c7565b60019390930151602084900360f7016101000a90049092017fffffffffffffffffffffffffffffffffffffffffffffffffffffffffffffff0a0192915050565b80612eca5761293f565b60208110612f025782518252612ee1602084613746565b9250612eee602083613746565b9150612efb6020826138c7565b9050612eca565b8061290c5761293f565b60008083601f840112612f1d578182fd5b50813567ffffffffffffffff811115612f34578182fd5b6020830191508360208083028501011115612f4e57600080fd5b9250929050565b600082601f830112612f65578081fd5b81356020612f7a612f75836136fa565b6136c9565b8281528181019085830183850287018401881015612f96578586fd5b855b85811015612fb457813584529284019290840190600101612f98565b5090979650505050505050565b600082601f830112612fd1578081fd5b81516020612fe1612f75836136fa565b8281528181019085830183850287018401881015612ffd578586fd5b855b85811015612fb457815184529284019290840190600101612fff565b60008083601f84011261302c578182fd5b50813567ffffffffffffffff811115613043578182fd5b602083019150836020828501011115612f4e57600080fd5b600082601f83011261306b578081fd5b8151613079612f758261371e565b81815284602083860101111561308d578283fd5b61208c826020830160208701613901565b6000602082840312156130af578081fd5b8135612b79816139c0565b600080600080608085870312156130cf578283fd5b84516130da816139c0565b602086015190945067ffffffffffffffff808211156130f7578485fd5b61310388838901612fc1565b94506040870151915080821115613118578384fd5b61312488838901612fc1565b93506060870151915080821115613139578283fd5b506131468782880161305b565b91505092959194509250565b60008060008060008060008060a0898b03121561316d578384fd5b8835613178816139c0565b97506020890135613188816139c0565b9650604089013567ffffffffffffffff808211156131a4578586fd5b6131b08c838d01612f0c565b909850965060608b01359150808211156131c8578586fd5b6131d48c838d01612f0c565b909650945060808b01359150808211156131ec578384fd5b506131f98b828c0161301b565b999c989b5096995094979396929594505050565b60008060008060008060a08789031215613225578384fd5b8635613230816139c0565b95506020870135613240816139c0565b94506040870135935060608701359250608087013567ffffffffffffffff811115613269578283fd5b61327589828a0161301b565b979a9699509497509295939492505050565b60008060006060848603121561329b578081fd5b83356132a6816139c0565b9250602084013567ffffffffffffffff808211156132c2578283fd5b6132ce87838801612f55565b935060408601359150808211156132e3578283fd5b506132f086828701612f55565b9150509250925092565b6000602080838503121561330c578182fd5b825167ffffffffffffffff811115613322578283fd5b8301601f81018513613332578283fd5b8051613340612f75826136fa565b818152838101908385018584028501860189101561335c578687fd5b8694505b8385101561337e578051835260019490940193918501918501613360565b50979650505050505050565b60006020828403121561339b578081fd5b81518015158114612b79578182fd5b6000602082840312156133bb578081fd5b5035919050565b6000602082840312156133d3578081fd5b5051919050565b600080600080600060a086880312156133f1578283fd5b855194506020860151935060408601519250606086015191506080860151613418816139c0565b809150509295509295909350565b600060208284031215613437578081fd5b81357fffffffff0000000000000000000000000000000000000000000000000000000081168114612b79578182fd5b600060208284031215613477578081fd5b813567ffffffffffffffff81111561348d578182fd5b8201601f8101841361349d578182fd5b80356134ab612f758261371e565b8181528560208385010111156134bf578384fd5b81602084016020830137908101602001929092525092915050565b6000602082840312156134eb578081fd5b815167ffffffffffffffff811115613501578182fd5b61208c8482850161305b565b6000815180845260208085019450808401835b8381101561353c57815187529582019590820190600101613520565b509495945050505050565b6000815180845261355f816020860160208601613901565b601f01601f19169290920160200192915050565b6000848252835161358b816020850160208801613901565b60209201918201929092526040019392505050565b60006001600160a01b03808816835280871660208401525084604083015283606083015260a060808301526135d860a0830184613547565b979650505050505050565b60006001600160a01b038616825260806020830152613605608083018661350d565b8281036040840152613617818661350d565b905082810360608401526135d88185613547565b60006001600160a01b03841682526040602083015261208c6040830184613547565b60006001600160a01b03861682528460208301528360408301526080606083015261367b6080830184613547565b9695505050505050565b6020808252825182820181905260009190848201906040850190845b818110156136bd578351835292840192918401916001016136a1565b50909695505050505050565b604051601f8201601f1916810167ffffffffffffffff811182821017156136f2576136f26139aa565b604052919050565b600067ffffffffffffffff821115613714576137146139aa565b5060209081020190565b600067ffffffffffffffff821115613738576137386139aa565b50601f01601f191660200190565b600082198211156137595761375961397e565b500190565b60008261376d5761376d613994565b500490565b600060ff83168061378557613785613994565b8060ff84160491505092915050565b80825b60018086116137a657506137d1565b8187048211156137b8576137b861397e565b808616156137c557918102915b9490941c938002613797565b94509492505050565b6000612b7960001984846000826137f357506001612b79565b8161380057506000612b79565b816001811461381657600281146138205761384d565b6001915050612b79565b60ff8411156138315761383161397e565b6001841b9150848211156138475761384761397e565b50612b79565b5060208310610133831016604e8410600b8410161715613880575081810a8381111561387b5761387b61397e565b612b79565b61388d8484846001613794565b80860482111561389f5761389f61397e565b02949350505050565b60008160001904831182151516156138c2576138c261397e565b500290565b6000828210156138d9576138d961397e565b500390565b600060ff821660ff8416808210156138f8576138f861397e565b90039392505050565b60005b8381101561391c578181015183820152602001613904565b83811115610aef5750506000910152565b60006000198214156139415761394161397e565b5060010190565b60008261395757613957613994565b500690565b600060ff83168061396f5761396f613994565b8060ff84160691505092915050565b634e487b7160e01b600052601160045260246000fd5b634e487b7160e01b600052601260045260246000fd5b634e487b7160e01b600052604160045260246000fd5b6001600160a01b0381168114610ea357600080fdfea264697066735822122098c1ce560786c0c7e085c9c029c657b3cf36950a12f706f418ed9e71fb491dbb64736f6c63430008020033",
  "devdoc": {
    "kind": "dev",
    "methods": {
      "owner()": {
        "details": "Returns the address of the current owner."
      },
      "pause()": {
        "details": "Pauses all token transfers across bridge"
      },
      "paused()": {
        "details": "Returns true if the contract is paused, and false otherwise."
      },
      "receiveMessage(bytes)": {
        "details": "This function verifies if the transaction actually happened on child chain",
        "params": {
          "inputData": "RLP encoded data of the reference tx containing following list of fields  0 - headerNumber - Checkpoint header block number containing the reference tx  1 - blockProof - Proof that the block header (in the child chain) is a leaf in the submitted merkle root  2 - blockNumber - Block number containing the reference tx on child chain  3 - blockTime - Reference tx block time  4 - txRoot - Transactions root of block  5 - receiptRoot - Receipts root of block  6 - receipt - Receipt of the reference transaction  7 - receiptProof - Merkle proof of the reference receipt  8 - branchMask - 32 bits denoting the path of receipt in merkle tree  9 - receiptLogIndex - Log Index to read from the receipt"
        }
      },
      "renounceOwnership()": {
        "details": "Leaves the contract without owner. It will not be possible to call `onlyOwner` functions anymore. Can only be called by the current owner. NOTE: Renouncing ownership will leave the contract without an owner, thereby removing any functionality that is only available to the owner."
      },
      "setTrustedForwarder(address)": {
        "details": "Change the address of the trusted forwarder for meta-TX",
        "params": {
          "trustedForwarder": "The new trustedForwarder"
        }
      },
      "supportsInterface(bytes4)": {
        "details": "Returns true if this contract implements the interface defined by `interfaceId`. See the corresponding https://eips.ethereum.org/EIPS/eip-165#how-interfaces-are-identified[EIP section] to learn more about how these ids are created. This function call must use less than 30 000 gas."
      },
      "transferOwnership(address)": {
        "details": "Transfers ownership of the contract to a new account (`newOwner`). Can only be called by the current owner."
      },
      "unpause()": {
        "details": "Unpauses all token transfers across bridge"
      }
    },
    "title": "ASSETERC1155 bridge on L1",
    "version": 1
  },
  "userdoc": {
    "kind": "user",
    "methods": {
      "receiveMessage(bytes)": {
        "notice": "receive message from  L2 to L1, validated by proof"
      }
    },
    "version": 1
  },
  "storageLayout": {
    "storage": [
      {
        "astId": 12633,
        "contract": "src/solc_0.8/polygon/root/asset/AssetERC1155Tunnel.sol:AssetERC1155Tunnel",
        "label": "fxRoot",
        "offset": 0,
        "slot": "0",
        "type": "t_contract(IFxStateSender)12583"
      },
      {
        "astId": 12636,
        "contract": "src/solc_0.8/polygon/root/asset/AssetERC1155Tunnel.sol:AssetERC1155Tunnel",
        "label": "checkpointManager",
        "offset": 0,
        "slot": "1",
        "type": "t_contract(ICheckpointManager)12601"
      },
      {
        "astId": 12638,
        "contract": "src/solc_0.8/polygon/root/asset/AssetERC1155Tunnel.sol:AssetERC1155Tunnel",
        "label": "fxChildTunnel",
        "offset": 0,
        "slot": "2",
        "type": "t_address"
      },
      {
        "astId": 12642,
        "contract": "src/solc_0.8/polygon/root/asset/AssetERC1155Tunnel.sol:AssetERC1155Tunnel",
        "label": "processedExits",
        "offset": 0,
        "slot": "3",
        "type": "t_mapping(t_bytes32,t_bool)"
      },
      {
        "astId": 29686,
        "contract": "src/solc_0.8/polygon/root/asset/AssetERC1155Tunnel.sol:AssetERC1155Tunnel",
        "label": "_trustedForwarder",
        "offset": 0,
        "slot": "4",
        "type": "t_address"
      },
      {
        "astId": 539,
        "contract": "src/solc_0.8/polygon/root/asset/AssetERC1155Tunnel.sol:AssetERC1155Tunnel",
        "label": "_owner",
        "offset": 0,
        "slot": "5",
        "type": "t_address"
      },
      {
        "astId": 654,
        "contract": "src/solc_0.8/polygon/root/asset/AssetERC1155Tunnel.sol:AssetERC1155Tunnel",
        "label": "_paused",
        "offset": 20,
        "slot": "5",
        "type": "t_bool"
      },
      {
        "astId": 46749,
        "contract": "src/solc_0.8/polygon/root/asset/AssetERC1155Tunnel.sol:AssetERC1155Tunnel",
        "label": "rootToken",
        "offset": 0,
        "slot": "6",
        "type": "t_contract(IAssetERC1155)34767"
      },
      {
        "astId": 46752,
        "contract": "src/solc_0.8/polygon/root/asset/AssetERC1155Tunnel.sol:AssetERC1155Tunnel",
        "label": "maxTransferLimit",
        "offset": 0,
        "slot": "7",
        "type": "t_uint256"
      },
      {
        "astId": 46755,
        "contract": "src/solc_0.8/polygon/root/asset/AssetERC1155Tunnel.sol:AssetERC1155Tunnel",
        "label": "fetchingAssets",
        "offset": 0,
        "slot": "8",
        "type": "t_bool"
      }
    ],
    "types": {
      "t_address": {
        "encoding": "inplace",
        "label": "address",
        "numberOfBytes": "20"
      },
      "t_bool": {
        "encoding": "inplace",
        "label": "bool",
        "numberOfBytes": "1"
      },
      "t_bytes32": {
        "encoding": "inplace",
        "label": "bytes32",
        "numberOfBytes": "32"
      },
      "t_contract(IAssetERC1155)34767": {
        "encoding": "inplace",
        "label": "contract IAssetERC1155",
        "numberOfBytes": "20"
      },
      "t_contract(ICheckpointManager)12601": {
        "encoding": "inplace",
        "label": "contract ICheckpointManager",
        "numberOfBytes": "20"
      },
      "t_contract(IFxStateSender)12583": {
        "encoding": "inplace",
        "label": "contract IFxStateSender",
        "numberOfBytes": "20"
      },
      "t_mapping(t_bytes32,t_bool)": {
        "encoding": "mapping",
        "key": "t_bytes32",
        "label": "mapping(bytes32 => bool)",
        "numberOfBytes": "32",
        "value": "t_bool"
      },
      "t_uint256": {
        "encoding": "inplace",
        "label": "uint256",
        "numberOfBytes": "32"
      }
    }
  }
}