{
  "address": "0xece7374aB4aDcD731Ca08f109fB604D367393160",
  "abi": [
    {
      "inputs": [
        {
          "internalType": "address",
          "name": "_checkpointManager",
          "type": "address"
        },
        {
          "internalType": "address",
          "name": "_fxRoot",
          "type": "address"
        },
        {
          "internalType": "contract IAssetERC721",
          "name": "_rootToken",
          "type": "address"
        },
        {
          "internalType": "address",
          "name": "_trustedForwarder",
          "type": "address"
        }
      ],
      "stateMutability": "nonpayable",
      "type": "constructor"
    },
    {
      "anonymous": false,
      "inputs": [
        {
          "indexed": false,
          "internalType": "address",
          "name": "user",
          "type": "address"
        },
        {
          "indexed": false,
          "internalType": "uint256",
          "name": "id",
          "type": "uint256"
        },
        {
          "indexed": false,
          "internalType": "bytes",
          "name": "data",
          "type": "bytes"
        }
      ],
      "name": "Deposit",
      "type": "event"
    },
    {
      "anonymous": false,
      "inputs": [
        {
          "indexed": true,
          "internalType": "address",
          "name": "previousOwner",
          "type": "address"
        },
        {
          "indexed": true,
          "internalType": "address",
          "name": "newOwner",
          "type": "address"
        }
      ],
      "name": "OwnershipTransferred",
      "type": "event"
    },
    {
      "anonymous": false,
      "inputs": [
        {
          "indexed": false,
          "internalType": "address",
          "name": "account",
          "type": "address"
        }
      ],
      "name": "Paused",
      "type": "event"
    },
    {
      "anonymous": false,
      "inputs": [
        {
          "indexed": false,
          "internalType": "address",
          "name": "account",
          "type": "address"
        }
      ],
      "name": "Unpaused",
      "type": "event"
    },
    {
      "anonymous": false,
      "inputs": [
        {
          "indexed": false,
          "internalType": "address",
          "name": "user",
          "type": "address"
        },
        {
          "indexed": false,
          "internalType": "uint256",
          "name": "id",
          "type": "uint256"
        },
        {
          "indexed": false,
          "internalType": "bytes",
          "name": "data",
          "type": "bytes"
        }
      ],
      "name": "Withdraw",
      "type": "event"
    },
    {
      "inputs": [],
      "name": "SEND_MESSAGE_EVENT_SIG",
      "outputs": [
        {
          "internalType": "bytes32",
          "name": "",
          "type": "bytes32"
        }
      ],
      "stateMutability": "view",
      "type": "function"
    },
    {
      "inputs": [
        {
          "internalType": "address",
          "name": "to",
          "type": "address"
        },
        {
          "internalType": "uint256[]",
          "name": "ids",
          "type": "uint256[]"
        }
      ],
      "name": "batchDepositToChild",
      "outputs": [],
      "stateMutability": "nonpayable",
      "type": "function"
    },
    {
      "inputs": [],
      "name": "checkpointManager",
      "outputs": [
        {
          "internalType": "contract ICheckpointManager",
          "name": "",
          "type": "address"
        }
      ],
      "stateMutability": "view",
      "type": "function"
    },
    {
      "inputs": [],
      "name": "fxChildTunnel",
      "outputs": [
        {
          "internalType": "address",
          "name": "",
          "type": "address"
        }
      ],
      "stateMutability": "view",
      "type": "function"
    },
    {
      "inputs": [],
      "name": "fxRoot",
      "outputs": [
        {
          "internalType": "contract IFxStateSender",
          "name": "",
          "type": "address"
        }
      ],
      "stateMutability": "view",
      "type": "function"
    },
    {
      "inputs": [],
      "name": "getTrustedForwarder",
      "outputs": [
        {
          "internalType": "address",
          "name": "trustedForwarder",
          "type": "address"
        }
      ],
      "stateMutability": "view",
      "type": "function"
    },
    {
      "inputs": [
        {
          "internalType": "address",
          "name": "forwarder",
          "type": "address"
        }
      ],
      "name": "isTrustedForwarder",
      "outputs": [
        {
          "internalType": "bool",
          "name": "",
          "type": "bool"
        }
      ],
      "stateMutability": "view",
      "type": "function"
    },
    {
      "inputs": [
        {
          "internalType": "address",
          "name": "",
          "type": "address"
        },
        {
          "internalType": "address",
          "name": "",
          "type": "address"
        },
        {
          "internalType": "uint256[]",
          "name": "",
          "type": "uint256[]"
        },
        {
          "internalType": "bytes",
          "name": "",
          "type": "bytes"
        }
      ],
      "name": "onERC721BatchReceived",
      "outputs": [
        {
          "internalType": "bytes4",
          "name": "",
          "type": "bytes4"
        }
      ],
      "stateMutability": "pure",
      "type": "function"
    },
    {
      "inputs": [
        {
          "internalType": "address",
          "name": "",
          "type": "address"
        },
        {
          "internalType": "address",
          "name": "",
          "type": "address"
        },
        {
          "internalType": "uint256",
          "name": "",
          "type": "uint256"
        },
        {
          "internalType": "bytes",
          "name": "",
          "type": "bytes"
        }
      ],
      "name": "onERC721Received",
      "outputs": [
        {
          "internalType": "bytes4",
          "name": "",
          "type": "bytes4"
        }
      ],
      "stateMutability": "pure",
      "type": "function"
    },
    {
      "inputs": [],
      "name": "owner",
      "outputs": [
        {
          "internalType": "address",
          "name": "",
          "type": "address"
        }
      ],
      "stateMutability": "view",
      "type": "function"
    },
    {
      "inputs": [],
      "name": "pause",
      "outputs": [],
      "stateMutability": "nonpayable",
      "type": "function"
    },
    {
      "inputs": [],
      "name": "paused",
      "outputs": [
        {
          "internalType": "bool",
          "name": "",
          "type": "bool"
        }
      ],
      "stateMutability": "view",
      "type": "function"
    },
    {
      "inputs": [
        {
          "internalType": "bytes32",
          "name": "",
          "type": "bytes32"
        }
      ],
      "name": "processedExits",
      "outputs": [
        {
          "internalType": "bool",
          "name": "",
          "type": "bool"
        }
      ],
      "stateMutability": "view",
      "type": "function"
    },
    {
      "inputs": [
        {
          "internalType": "bytes",
          "name": "inputData",
          "type": "bytes"
        }
      ],
      "name": "receiveMessage",
      "outputs": [],
      "stateMutability": "nonpayable",
      "type": "function"
    },
    {
      "inputs": [],
      "name": "renounceOwnership",
      "outputs": [],
      "stateMutability": "nonpayable",
      "type": "function"
    },
    {
      "inputs": [],
      "name": "rootToken",
      "outputs": [
        {
          "internalType": "contract IAssetERC721",
          "name": "",
          "type": "address"
        }
      ],
      "stateMutability": "view",
      "type": "function"
    },
    {
      "inputs": [
        {
          "internalType": "address",
          "name": "_fxChildTunnel",
          "type": "address"
        }
      ],
      "name": "setFxChildTunnel",
      "outputs": [],
      "stateMutability": "nonpayable",
      "type": "function"
    },
    {
      "inputs": [
        {
          "internalType": "address",
          "name": "trustedForwarder",
          "type": "address"
        }
      ],
      "name": "setTrustedForwarder",
      "outputs": [],
      "stateMutability": "nonpayable",
      "type": "function"
    },
    {
      "inputs": [
        {
          "internalType": "bytes4",
          "name": "interfaceId",
          "type": "bytes4"
        }
      ],
      "name": "supportsInterface",
      "outputs": [
        {
          "internalType": "bool",
          "name": "",
          "type": "bool"
        }
      ],
      "stateMutability": "pure",
      "type": "function"
    },
    {
      "inputs": [
        {
          "internalType": "address",
          "name": "newOwner",
          "type": "address"
        }
      ],
      "name": "transferOwnership",
      "outputs": [],
      "stateMutability": "nonpayable",
      "type": "function"
    },
    {
      "inputs": [],
      "name": "unpause",
      "outputs": [],
      "stateMutability": "nonpayable",
      "type": "function"
    }
  ],
  "transactionHash": "0x82fd02a4e5a707c96013e2a9eae09d57081aebf1a0720fca1ad1a68329280c7d",
  "args": [
    "0x2890bA17EfE978480615e330ecB65333b880928e",
    "0x3d1d3E34f7fB6D26245E6640E1c50710eFFf15bA",
    "0x8E08B71e2eF7576D6450d97C62B9eAe1530343C1",
    "0xD1Eb013345bAe50B396E0293636BCF0204463452"
  ],
  "numDeployments": 1,
  "solcInputHash": "3ac99781400346b5ef1247840c0f0d75",
  "bytecode": "0x60806040523480156200001157600080fd5b50604051620033063803806200330683398101604081905262000034916200016f565b600180546001600160a01b038087166001600160a01b03199283161790925560008054928616929091169190911790556200007862000072620000d1565b620000ee565b6005805460ff60a01b19169055600680546001600160a01b0319166001600160a01b038416179055620000c781600480546001600160a01b0319166001600160a01b0392909216919091179055565b50505050620001ef565b6000620000e86200014060201b62000b341760201c565b90505b90565b600580546001600160a01b038381166001600160a01b0319831681179093556040519116919082907f8be0079c531659141344cd1fd0a4f28419497f9722a3daafe3b4186f6b6457e090600090a35050565b6004546000906001600160a01b031633141562000167575060131936013560601c620000eb565b5033620000eb565b6000806000806080858703121562000185578384fd5b84516200019281620001d6565b6020860151909450620001a581620001d6565b6040860151909350620001b881620001d6565b6060860151909250620001cb81620001d6565b939692955090935050565b6001600160a01b0381168114620001ec57600080fd5b50565b61310780620001ff6000396000f3fe608060405234801561001057600080fd5b50600436106101775760003560e01c8063715018a6116100d8578063c0857ba01161008c578063de9b771f11610066578063de9b771f1461038e578063f2fde38b146103a1578063f953cec7146103b457610177565b8063c0857ba014610357578063ce1b815f1461036a578063da7422281461037b57610177565b80638da5cb5b116100bd5780638da5cb5b14610320578063972c492814610331578063aea4e49e1461034457610177565b8063715018a6146103105780638456cb591461031857610177565b80633f4ba83a1161012f578063572b6c0511610114578063572b6c05146102c35780635c975abb146102e5578063607f2d42146102ed57610177565b80633f4ba83a146102825780634b808c461461028a57610177565b8063150b7a0211610160578063150b7a02146101d957806315fccb8a146102425780631f2d00651461025757610177565b806301ffc9a71461017c5780630e387de6146101a4575b600080fd5b61018f61018a366004612bbd565b6103c7565b60405190151581526020015b60405180910390f35b6101cb7f8c5261668696ce22758910d05bab8f186d6eb247ceac2af2e82c7dc17669b03681565b60405190815260200161019b565b6102116101e7366004612a0c565b7f150b7a020000000000000000000000000000000000000000000000000000000095945050505050565b6040517fffffffff00000000000000000000000000000000000000000000000000000000909116815260200161019b565b610255610250366004612a7d565b610462565b005b60065461026a906001600160a01b031681565b6040516001600160a01b03909116815260200161019b565b61025561071a565b61021161029836600461294d565b7f4b808c46000000000000000000000000000000000000000000000000000000009695505050505050565b61018f6102d13660046128d9565b6004546001600160a01b0390811691161490565b61018f61079d565b61018f6102fb366004612b59565b60036020526000908152604090205460ff1681565b6102556107bf565b610255610842565b6005546001600160a01b031661026a565b60025461026a906001600160a01b031681565b6102556103523660046128d9565b6108c3565b60015461026a906001600160a01b031681565b6004546001600160a01b031661026a565b6102556103893660046128d9565b610971565b60005461026a906001600160a01b031681565b6102556103af3660046128d9565b610a19565b6102556103c2366004612bfd565b610b1a565b60007f5e8bf644000000000000000000000000000000000000000000000000000000007fffffffff000000000000000000000000000000000000000000000000000000008316148061045a57507f01ffc9a7000000000000000000000000000000000000000000000000000000007fffffffff000000000000000000000000000000000000000000000000000000008316145b90505b919050565b61046a61079d565b156104bc5760405162461bcd60e51b815260206004820152601060248201527f5061757361626c653a207061757365640000000000000000000000000000000060448201526064015b60405180910390fd5b60005b81518110156107155760008282815181106104ea57634e487b7160e01b600052603260045260246000fd5b60209081029190910101516006546040517fc87b56dd000000000000000000000000000000000000000000000000000000008152600481018390529192506000916001600160a01b039091169063c87b56dd9060240160006040518083038186803b15801561055857600080fd5b505afa15801561056c573d6000803e3d6000fd5b505050506040513d6000823e601f3d908101601f191682016040526105949190810190612ca4565b6040516020016105a49190612dd2565b60408051601f198184030181529190526006549091506001600160a01b031663b88d4fde6105d0610b7e565b308787815181106105f157634e487b7160e01b600052603260045260246000fd5b6020026020010151856040518563ffffffff1660e01b81526004016106199493929190612d43565b600060405180830381600087803b15801561063357600080fd5b505af1158015610647573d6000803e3d6000fd5b5050505061069e8585858151811061066f57634e487b7160e01b600052603260045260246000fd5b60200260200101518360405160200161068a93929190612da1565b604051602081830303815290604052610b8d565b7f87de3cfd3de44d9b830a98f5554f3ff79f1fafd7b3579d113ce92d82d3def2a1858585815181106106e057634e487b7160e01b600052603260045260246000fd5b6020026020010151836040516106f893929190612da1565b60405180910390a15050808061070d90613029565b9150506104bf565b505050565b610722610b7e565b6001600160a01b031661073d6005546001600160a01b031690565b6001600160a01b0316146107935760405162461bcd60e51b815260206004820181905260248201527f4f776e61626c653a2063616c6c6572206973206e6f7420746865206f776e657260448201526064016104b3565b61079b610c11565b565b60055474010000000000000000000000000000000000000000900460ff165b90565b6107c7610b7e565b6001600160a01b03166107e26005546001600160a01b031690565b6001600160a01b0316146108385760405162461bcd60e51b815260206004820181905260248201527f4f776e61626c653a2063616c6c6572206973206e6f7420746865206f776e657260448201526064016104b3565b61079b6000610cd3565b61084a610b7e565b6001600160a01b03166108656005546001600160a01b031690565b6001600160a01b0316146108bb5760405162461bcd60e51b815260206004820181905260248201527f4f776e61626c653a2063616c6c6572206973206e6f7420746865206f776e657260448201526064016104b3565b61079b610d32565b6002546001600160a01b0316156109425760405162461bcd60e51b815260206004820152602a60248201527f467842617365526f6f7454756e6e656c3a204348494c445f54554e4e454c5f4160448201527f4c52454144595f5345540000000000000000000000000000000000000000000060648201526084016104b3565b6002805473ffffffffffffffffffffffffffffffffffffffff19166001600160a01b0392909216919091179055565b610979610b7e565b6001600160a01b03166109946005546001600160a01b031690565b6001600160a01b0316146109ea5760405162461bcd60e51b815260206004820181905260248201527f4f776e61626c653a2063616c6c6572206973206e6f7420746865206f776e657260448201526064016104b3565b6004805473ffffffffffffffffffffffffffffffffffffffff19166001600160a01b0392909216919091179055565b610a21610b7e565b6001600160a01b0316610a3c6005546001600160a01b031690565b6001600160a01b031614610a925760405162461bcd60e51b815260206004820181905260248201527f4f776e61626c653a2063616c6c6572206973206e6f7420746865206f776e657260448201526064016104b3565b6001600160a01b038116610b0e5760405162461bcd60e51b815260206004820152602660248201527f4f776e61626c653a206e6577206f776e657220697320746865207a65726f206160448201527f646472657373000000000000000000000000000000000000000000000000000060648201526084016104b3565b610b1781610cd3565b50565b6000610b2582610def565b9050610b308161113e565b5050565b6004546000906001600160a01b0316331415610b7757507fffffffffffffffffffffffffffffffffffffffffffffffffffffffffffffffec36013560601c6107bc565b50336107bc565b6000610b88610b34565b905090565b6000546002546040517fb47204770000000000000000000000000000000000000000000000000000000081526001600160a01b039283169263b472047792610bdc929116908590600401612d7f565b600060405180830381600087803b158015610bf657600080fd5b505af1158015610c0a573d6000803e3d6000fd5b5050505050565b610c1961079d565b610c655760405162461bcd60e51b815260206004820152601460248201527f5061757361626c653a206e6f742070617573656400000000000000000000000060448201526064016104b3565b600580547fffffffffffffffffffffff00ffffffffffffffffffffffffffffffffffffffff1690557f5db9ee0a495bf2e6ff9c91a7834c1ba4fdd244a5e8aa4e537bd38aeae4b073aa610cb6610b7e565b6040516001600160a01b03909116815260200160405180910390a1565b600580546001600160a01b0383811673ffffffffffffffffffffffffffffffffffffffff19831681179093556040519116919082907f8be0079c531659141344cd1fd0a4f28419497f9722a3daafe3b4186f6b6457e090600090a35050565b610d3a61079d565b15610d875760405162461bcd60e51b815260206004820152601060248201527f5061757361626c653a207061757365640000000000000000000000000000000060448201526064016104b3565b600580547fffffffffffffffffffffff00ffffffffffffffffffffffffffffffffffffffff16740100000000000000000000000000000000000000001790557f62e78cea01bee320cd4e420270b5ea74000d11b0c9f74754ebdbfc544b05a258610cb6610b7e565b60606000610dfc8361133d565b90506000610e098261139c565b90506000610e16836113d3565b9050600081610e248461140a565b610e2d86611630565b604051602001610e3f93929190612d16565b60408051601f1981840301815291815281516020928301206000818152600390935291205490915060ff1615610edc5760405162461bcd60e51b8152602060048201526024808201527f4678526f6f7454756e6e656c3a20455849545f414c52454144595f50524f434560448201527f535345440000000000000000000000000000000000000000000000000000000060648201526084016104b3565b600081815260036020526040812080547fffffffffffffffffffffffffffffffffffffffffffffffffffffffffffffff00166001179055610f1c8561165a565b90506000610f29826117c0565b9050610f348161186c565b6002546001600160a01b03908116911614610fb75760405162461bcd60e51b815260206004820152602560248201527f4678526f6f7454756e6e656c3a20494e56414c49445f46585f4348494c445f5460448201527f554e4e454c00000000000000000000000000000000000000000000000000000060648201526084016104b3565b6000610fc2876118a3565b9050610fe2610fd2846020015190565b87610fdc8a6118cd565b846118f7565b6110545760405162461bcd60e51b815260206004820152602360248201527f4678526f6f7454756e6e656c3a20494e56414c49445f524543454950545f505260448201527f4f4f46000000000000000000000000000000000000000000000000000000000060648201526084016104b3565b6110828561106189611c1e565b61106a8a611c48565b846110748c611c72565b61107d8d611c9c565b611cc6565b50600061108e83611e14565b90507f8c5261668696ce22758910d05bab8f186d6eb247ceac2af2e82c7dc17669b0366110c46110bf836000611e5e565b611ea4565b146111115760405162461bcd60e51b815260206004820152601f60248201527f4678526f6f7454756e6e656c3a20494e56414c49445f5349474e41545552450060448201526064016104b3565b600061111c84611f1f565b80602001905181019061112f9190612c71565b9b9a5050505050505050505050565b60008060008380602001905181019061115791906128f5565b6006546040517f4f558e790000000000000000000000000000000000000000000000000000000081526004810184905293965091945092506001600160a01b031690634f558e799060240160206040518083038186803b1580156111ba57600080fd5b505afa1580156111ce573d6000803e3d6000fd5b505050506040513d601f19601f820116820180604052508101906111f29190612b39565b61127a576006546040517f94d008ef0000000000000000000000000000000000000000000000000000000081526001600160a01b03909116906394d008ef9061124390869086908690600401612da1565b600060405180830381600087803b15801561125d57600080fd5b505af1158015611271573d6000803e3d6000fd5b505050506112fc565b6006546040517fb88d4fde0000000000000000000000000000000000000000000000000000000081526001600160a01b039091169063b88d4fde906112c9903090879087908790600401612d43565b600060405180830381600087803b1580156112e357600080fd5b505af11580156112f7573d6000803e3d6000fd5b505050505b7f233d4033f24c20bfd0dde8773bff5e9af01bd21ef37ccfd81c77cc5b20747d5b83838360405161132f93929190612da1565b60405180910390a150505050565b60408051602081019091526060815260006113876113828460408051808201825260008082526020918201528151808301909252825182529182019181019190915290565b611f49565b60408051602081019091529081529392505050565b606061045a82600001516008815181106113c657634e487b7160e01b600052603260045260246000fd5b602002602001015161207b565b600061045a82600001516002815181106113fd57634e487b7160e01b600052603260045260246000fd5b6020026020010151611ea4565b6040805160208101909152600081528151606091901561045a57600080611432600086612126565b60f81c9050600181148061144957508060ff166003145b156115255760018551600261145e9190612fa0565b6114689190612fbf565b67ffffffffffffffff81111561148e57634e487b7160e01b600052604160045260246000fd5b6040519080825280601f01601f1916602001820160405280156114b8576020820181803683370190505b50925060006114c8600187612126565b905080846000815181106114ec57634e487b7160e01b600052603260045260246000fd5b60200101907effffffffffffffffffffffffffffffffffffffffffffffffffffffffffffff1916908160001a9053506001925050611597565b6002855160026115359190612fa0565b61153f9190612fbf565b67ffffffffffffffff81111561156557634e487b7160e01b600052604160045260246000fd5b6040519080825280601f01601f19166020018201604052801561158f576020820181803683370190505b509250600091505b60ff82165b8351811015611627576115c66115b560ff851683612fbf565b6115c0906002612e3e565b87612126565b8482815181106115e657634e487b7160e01b600052603260045260246000fd5b60200101907effffffffffffffffffffffffffffffffffffffffffffffffffffffffffffff1916908160001a9053508061161f81613029565b91505061159c565b50505092915050565b600061045a82600001516009815181106113fd57634e487b7160e01b600052603260045260246000fd5b61167e60405180606001604052806060815260200160608152602001600081525090565b6116a682600001516006815181106113c657634e487b7160e01b600052603260045260246000fd5b6020828101829052604080518082018252600080825290830152805180820190915282518152918101908201526116dc816121c3565b156116f1576116ea81611f49565b82526117ac565b6020820151805160009061170790600190612fbf565b67ffffffffffffffff81111561172d57634e487b7160e01b600052604160045260246000fd5b6040519080825280601f01601f191660200182016040528015611757576020820181803683370190505b509050600080836021019150826020019050611775828285516121fd565b6040805180820182526000808252602091820152815180830190925284518252808501908201526117a590611382565b8652505050505b6117b583611630565b604083015250919050565b60408051608081018252600091810182815260608083019390935281526020810191909152600061181c836000015160038151811061180f57634e487b7160e01b600052603260045260246000fd5b6020026020010151611f49565b83604001518151811061183f57634e487b7160e01b600052603260045260246000fd5b60200260200101519050604051806040016040528082815260200161186383611f49565b90529392505050565b600061045a826020015160008151811061189657634e487b7160e01b600052603260045260246000fd5b6020026020010151612276565b600061045a82600001516005815181106113fd57634e487b7160e01b600052603260045260246000fd5b606061045a82600001516007815181106113c657634e487b7160e01b600052603260045260246000fd5b60008061192b8460408051808201825260008082526020918201528151808301909252825182529182019181019190915290565b9050600061193882611f49565b90506060808560008061194a8b61140a565b9050805160001415611966576000975050505050505050611c16565b60005b8651811015611c0d57815183111561198c57600098505050505050505050611c16565b6119bc8782815181106119af57634e487b7160e01b600052603260045260246000fd5b6020026020010151612290565b9550858051906020012084146119dd57600098505050505050505050611c16565b611a0087828151811061180f57634e487b7160e01b600052603260045260246000fd5b9450845160111415611aff578151831415611a70578c80519060200120611a41866010815181106113c657634e487b7160e01b600052603260045260246000fd5b805190602001201415611a5f57600198505050505050505050611c16565b600098505050505050505050611c16565b6000828481518110611a9257634e487b7160e01b600052603260045260246000fd5b016020015160f81c90506010811115611ab75760009950505050505050505050611c16565b611aea868260ff1681518110611add57634e487b7160e01b600052603260045260246000fd5b602002602001015161231f565b9450611af7600185612e3e565b935050611bfb565b845160021415611a5f576000611b39611b32876000815181106113c657634e487b7160e01b600052603260045260246000fd5b848661234d565b8351909150611b488286612e3e565b1415611bab578d80519060200120611b7a876001815181106113c657634e487b7160e01b600052603260045260246000fd5b805190602001201415611b995760019950505050505050505050611c16565b60009950505050505050505050611c16565b80611bc25760009950505050505050505050611c16565b611bcc8185612e3e565b9350611bf286600181518110611add57634e487b7160e01b600052603260045260246000fd5b9450611bfb9050565b80611c0581613029565b915050611969565b50505050505050505b949350505050565b600061045a82600001516003815181106113fd57634e487b7160e01b600052603260045260246000fd5b600061045a82600001516004815181106113fd57634e487b7160e01b600052603260045260246000fd5b600061045a82600001516000815181106113fd57634e487b7160e01b600052603260045260246000fd5b606061045a82600001516001815181106113c657634e487b7160e01b600052603260045260246000fd5b6001546040517f41539d4a000000000000000000000000000000000000000000000000000000008152600481018490526000918291829182916001600160a01b03909116906341539d4a9060240160a06040518083038186803b158015611d2c57600080fd5b505afa158015611d40573d6000803e3d6000fd5b505050506040513d601f19601f82011682018060405250810190611d649190612b71565b5093505092509250611dbb828b611d7b9190612fbf565b6040805160208082018f90528183018e9052606082018d905260808083018d90528351808403909101815260a090920190925280519101209085886124b2565b611e075760405162461bcd60e51b815260206004820152601c60248201527f4678526f6f7454756e6e656c3a20494e56414c49445f4845414445520000000060448201526064016104b3565b9998505050505050505050565b6040805160208101909152606081526040518060200160405280611e56846020015160018151811061180f57634e487b7160e01b600052603260045260246000fd5b905292915050565b60408051808201909152600080825260208201528251805183908110611e9457634e487b7160e01b600052603260045260246000fd5b6020026020010151905092915050565b805160009015801590611eb957508151602110155b611ec257600080fd5b6000611ed18360200151612628565b90506000818460000151611ee59190612fbf565b9050600080838660200151611efa9190612e3e565b9050805191506020831015611f1657826020036101000a820491505b50949350505050565b606061045a82602001516002815181106113c657634e487b7160e01b600052603260045260246000fd5b6060611f54826121c3565b611f5d57600080fd5b6000611f68836126ad565b905060008167ffffffffffffffff811115611f9357634e487b7160e01b600052604160045260246000fd5b604051908082528060200260200182016040528015611fd857816020015b6040805180820190915260008082526020820152815260200190600190039081611fb15790505b5090506000611fea8560200151612628565b8560200151611ff99190612e3e565b90506000805b848110156120705761201083612730565b915060405180604001604052808381526020018481525084828151811061204757634e487b7160e01b600052603260045260246000fd5b602090810291909101015261205c8284612e3e565b92508061206881613029565b915050611fff565b509195945050505050565b805160609061208957600080fd5b60006120988360200151612628565b905060008184600001516120ac9190612fbf565b905060008167ffffffffffffffff8111156120d757634e487b7160e01b600052604160045260246000fd5b6040519080825280601f01601f191660200182016040528015612101576020820181803683370190505b5090506000816020019050611f1684876020015161211f9190612e3e565b82856127f2565b6000612133600284613044565b1561217b57601082612146600286612e56565b8151811061216457634e487b7160e01b600052603260045260246000fd5b0160200151612176919060f81c613058565b6121b9565b601082612189600286612e56565b815181106121a757634e487b7160e01b600052603260045260246000fd5b01602001516121b9919060f81c612e6a565b60f81b9392505050565b80516000906121d45750600061045d565b6020820151805160001a9060c08210156121f35760009250505061045d565b5060019392505050565b8061220757610715565b6020811061223f578251825261221e602084612e3e565b925061222b602083612e3e565b9150612238602082612fbf565b9050612207565b6000600161224e836020612fbf565b61225a90610100612ed2565b6122649190612fbf565b84518451821691191617835250505050565b805160009060151461228757600080fd5b61045a82611ea4565b60606000826000015167ffffffffffffffff8111156122bf57634e487b7160e01b600052604160045260246000fd5b6040519080825280601f01601f1916602001820160405280156122e9576020820181803683370190505b5090508051600014156122fd57905061045d565b600081602001905061231884602001518286600001516127f2565b5092915050565b805160009060211461233057600080fd5b600080836020015160016123449190612e3e565b51949350505050565b6000808061235a8661140a565b90506000815167ffffffffffffffff81111561238657634e487b7160e01b600052604160045260246000fd5b6040519080825280601f01601f1916602001820160405280156123b0576020820181803683370190505b509050845b82516123c19087612e3e565b8110156124805760008782815181106123ea57634e487b7160e01b600052603260045260246000fd5b01602001517fff00000000000000000000000000000000000000000000000000000000000000169050808361241f8985612fbf565b8151811061243d57634e487b7160e01b600052603260045260246000fd5b60200101907effffffffffffffffffffffffffffffffffffffffffffffffffffffffffffff1916908160001a90535050808061247890613029565b9150506123b5565b508080519060200120828051906020012014156124a057815192506124a5565b600092505b50909150505b9392505050565b6000602082516124c29190613044565b1561250f5760405162461bcd60e51b815260206004820152601460248201527f496e76616c69642070726f6f66206c656e67746800000000000000000000000060448201526064016104b3565b60006020835161251f9190612e56565b905061252c816002612ed2565b851061257a5760405162461bcd60e51b815260206004820152601560248201527f4c65616620696e64657820697320746f6f20626967000000000000000000000060448201526064016104b3565b60008660205b8551811161261a57858101519250612599600289613044565b6125ce5760408051602081018490529081018490526060016040516020818303038152906040528051906020012091506125fb565b60408051602081018590529081018390526060016040516020818303038152906040528051906020012091505b612606600289612e56565b9750612613602082612e3e565b9050612580565b509094149695505050505050565b8051600090811a608081101561264257600091505061045d565b60b881108061265d575060c0811080159061265d575060f881105b1561266c57600191505061045d565b60c08110156126a157612681600160b8612fd6565b61268e9060ff1682612fbf565b612699906001612e3e565b91505061045d565b612681600160f8612fd6565b80516000906126be5750600061045d565b6000806126ce8460200151612628565b84602001516126dd9190612e3e565b90506000846000015185602001516126f59190612e3e565b90505b808210156127275761270982612730565b6127139083612e3e565b91508261271f81613029565b9350506126f8565b50909392505050565b80516000908190811a608081101561274b5760019150612318565b60b88110156127715761275f608082612fbf565b61276a906001612e3e565b9150612318565b60c081101561279e5760b78103600185019450806020036101000a85510460018201810193505050612318565b60f88110156127b25761275f60c082612fbf565b60019390930151602084900360f7016101000a90049092017fffffffffffffffffffffffffffffffffffffffffffffffffffffffffffffff0a0192915050565b806127fc57610715565b602081106128345782518252612813602084612e3e565b9250612820602083612e3e565b915061282d602082612fbf565b90506127fc565b8061223f57610715565b600061285161284c84612e16565b612de5565b905082815283838301111561286557600080fd5b6124ab836020830184612ff9565b60008083601f840112612884578182fd5b50813567ffffffffffffffff81111561289b578182fd5b6020830191508360208285010111156128b357600080fd5b9250929050565b600082601f8301126128ca578081fd5b6124ab8383516020850161283e565b6000602082840312156128ea578081fd5b81356124ab816130bc565b600080600060608486031215612909578182fd5b8351612914816130bc565b60208501516040860151919450925067ffffffffffffffff811115612937578182fd5b612943868287016128ba565b9150509250925092565b60008060008060008060808789031215612965578182fd5b8635612970816130bc565b95506020870135612980816130bc565b9450604087013567ffffffffffffffff8082111561299c578384fd5b818901915089601f8301126129af578384fd5b8135818111156129bd578485fd5b8a602080830285010111156129d0578485fd5b6020830196508095505060608901359150808211156129ed578384fd5b506129fa89828a01612873565b979a9699509497509295939492505050565b600080600080600060808688031215612a23578081fd5b8535612a2e816130bc565b94506020860135612a3e816130bc565b935060408601359250606086013567ffffffffffffffff811115612a60578182fd5b612a6c88828901612873565b969995985093965092949392505050565b60008060408385031215612a8f578182fd5b8235612a9a816130bc565b915060208381013567ffffffffffffffff80821115612ab7578384fd5b818601915086601f830112612aca578384fd5b813581811115612adc57612adc6130a6565b8381029150612aec848301612de5565b8181528481019084860184860187018b1015612b06578788fd5b8795505b83861015612b28578035835260019590950194918601918601612b0a565b508096505050505050509250929050565b600060208284031215612b4a578081fd5b815180151581146124ab578182fd5b600060208284031215612b6a578081fd5b5035919050565b600080600080600060a08688031215612b88578283fd5b855194506020860151935060408601519250606086015191506080860151612baf816130bc565b809150509295509295909350565b600060208284031215612bce578081fd5b81357fffffffff00000000000000000000000000000000000000000000000000000000811681146124ab578182fd5b600060208284031215612c0e578081fd5b813567ffffffffffffffff811115612c24578182fd5b8201601f81018413612c34578182fd5b8035612c4261284c82612e16565b818152856020838501011115612c56578384fd5b81602084016020830137908101602001929092525092915050565b600060208284031215612c82578081fd5b815167ffffffffffffffff811115612c98578182fd5b611c16848285016128ba565b600060208284031215612cb5578081fd5b815167ffffffffffffffff811115612ccb578182fd5b8201601f81018413612cdb578182fd5b611c168482516020840161283e565b60008151808452612d02816020860160208601612ff9565b601f01601f19169290920160200192915050565b60008482528351612d2e816020850160208801612ff9565b60209201918201929092526040019392505050565b60006001600160a01b03808716835280861660208401525083604083015260806060830152612d756080830184612cea565b9695505050505050565b60006001600160a01b038416825260406020830152611c166040830184612cea565b60006001600160a01b038516825283602083015260606040830152612dc96060830184612cea565b95945050505050565b6000602082526124ab6020830184612cea565b604051601f8201601f1916810167ffffffffffffffff81118282101715612e0e57612e0e6130a6565b604052919050565b600067ffffffffffffffff821115612e3057612e306130a6565b50601f01601f191660200190565b60008219821115612e5157612e5161307a565b500190565b600082612e6557612e65613090565b500490565b600060ff831680612e7d57612e7d613090565b8060ff84160491505092915050565b80825b6001808611612e9e5750612ec9565b818704821115612eb057612eb061307a565b80861615612ebd57918102915b9490941c938002612e8f565b94509492505050565b60006124ab6000198484600082612eeb575060016124ab565b81612ef8575060006124ab565b8160018114612f0e5760028114612f1857612f45565b60019150506124ab565b60ff841115612f2957612f2961307a565b6001841b915084821115612f3f57612f3f61307a565b506124ab565b5060208310610133831016604e8410600b8410161715612f78575081810a83811115612f7357612f7361307a565b6124ab565b612f858484846001612e8c565b808604821115612f9757612f9761307a565b02949350505050565b6000816000190483118215151615612fba57612fba61307a565b500290565b600082821015612fd157612fd161307a565b500390565b600060ff821660ff841680821015612ff057612ff061307a565b90039392505050565b60005b83811015613014578181015183820152602001612ffc565b83811115613023576000848401525b50505050565b600060001982141561303d5761303d61307a565b5060010190565b60008261305357613053613090565b500690565b600060ff83168061306b5761306b613090565b8060ff84160691505092915050565b634e487b7160e01b600052601160045260246000fd5b634e487b7160e01b600052601260045260246000fd5b634e487b7160e01b600052604160045260246000fd5b6001600160a01b0381168114610b1757600080fdfea26469706673582212203c60601ad08235b65b8df57aa7d967a2f101381f1fecb4a0dac4bec6b150fc9364736f6c63430008020033",
  "devdoc": {
    "kind": "dev",
    "methods": {
      "owner()": {
        "details": "Returns the address of the current owner."
      },
      "pause()": {
        "details": "Pauses all token transfers across bridge"
      },
      "paused()": {
        "details": "Returns true if the contract is paused, and false otherwise."
      },
      "receiveMessage(bytes)": {
        "details": "This function verifies if the transaction actually happened on child chain",
        "params": {
          "inputData": "RLP encoded data of the reference tx containing following list of fields  0 - headerNumber - Checkpoint header block number containing the reference tx  1 - blockProof - Proof that the block header (in the child chain) is a leaf in the submitted merkle root  2 - blockNumber - Block number containing the reference tx on child chain  3 - blockTime - Reference tx block time  4 - txRoot - Transactions root of block  5 - receiptRoot - Receipts root of block  6 - receipt - Receipt of the reference transaction  7 - receiptProof - Merkle proof of the reference receipt  8 - branchMask - 32 bits denoting the path of receipt in merkle tree  9 - receiptLogIndex - Log Index to read from the receipt"
        }
      },
      "renounceOwnership()": {
        "details": "Leaves the contract without owner. It will not be possible to call `onlyOwner` functions anymore. Can only be called by the current owner. NOTE: Renouncing ownership will leave the contract without an owner, thereby removing any functionality that is only available to the owner."
      },
      "setTrustedForwarder(address)": {
        "details": "Change the address of the trusted forwarder for meta-TX",
        "params": {
          "trustedForwarder": "The new trustedForwarder"
        }
      },
      "transferOwnership(address)": {
        "details": "Transfers ownership of the contract to a new account (`newOwner`). Can only be called by the current owner."
      },
      "unpause()": {
        "details": "Unpauses all token transfers across bridge"
      }
    },
    "title": "ASSETERC721 bridge on L1",
    "version": 1
  },
  "userdoc": {
    "kind": "user",
    "methods": {
      "receiveMessage(bytes)": {
        "notice": "receive message from  L2 to L1, validated by proof"
      }
    },
    "version": 1
  },
  "storageLayout": {
    "storage": [
      {
        "astId": 9644,
        "contract": "src/solc_0.8/polygon/root/asset/AssetERC721Tunnel.sol:AssetERC721Tunnel",
        "label": "fxRoot",
        "offset": 0,
        "slot": "0",
        "type": "t_contract(IFxStateSender)9594"
      },
      {
        "astId": 9647,
        "contract": "src/solc_0.8/polygon/root/asset/AssetERC721Tunnel.sol:AssetERC721Tunnel",
        "label": "checkpointManager",
        "offset": 0,
        "slot": "1",
        "type": "t_contract(ICheckpointManager)9612"
      },
      {
        "astId": 9649,
        "contract": "src/solc_0.8/polygon/root/asset/AssetERC721Tunnel.sol:AssetERC721Tunnel",
        "label": "fxChildTunnel",
        "offset": 0,
        "slot": "2",
        "type": "t_address"
      },
      {
        "astId": 9653,
        "contract": "src/solc_0.8/polygon/root/asset/AssetERC721Tunnel.sol:AssetERC721Tunnel",
        "label": "processedExits",
        "offset": 0,
        "slot": "3",
        "type": "t_mapping(t_bytes32,t_bool)"
      },
      {
        "astId": 29171,
        "contract": "src/solc_0.8/polygon/root/asset/AssetERC721Tunnel.sol:AssetERC721Tunnel",
        "label": "_trustedForwarder",
        "offset": 0,
        "slot": "4",
        "type": "t_address"
      },
      {
        "astId": 389,
        "contract": "src/solc_0.8/polygon/root/asset/AssetERC721Tunnel.sol:AssetERC721Tunnel",
        "label": "_owner",
        "offset": 0,
        "slot": "5",
        "type": "t_address"
      },
      {
        "astId": 504,
        "contract": "src/solc_0.8/polygon/root/asset/AssetERC721Tunnel.sol:AssetERC721Tunnel",
        "label": "_paused",
        "offset": 20,
        "slot": "5",
        "type": "t_bool"
      },
      {
        "astId": 45238,
        "contract": "src/solc_0.8/polygon/root/asset/AssetERC721Tunnel.sol:AssetERC721Tunnel",
        "label": "rootToken",
        "offset": 0,
        "slot": "6",
        "type": "t_contract(IAssetERC721)32822"
      }
    ],
    "types": {
      "t_address": {
        "encoding": "inplace",
        "label": "address",
        "numberOfBytes": "20"
      },
      "t_bool": {
        "encoding": "inplace",
        "label": "bool",
        "numberOfBytes": "1"
      },
      "t_bytes32": {
        "encoding": "inplace",
        "label": "bytes32",
        "numberOfBytes": "32"
      },
      "t_contract(IAssetERC721)32822": {
        "encoding": "inplace",
        "label": "contract IAssetERC721",
        "numberOfBytes": "20"
      },
      "t_contract(ICheckpointManager)9612": {
        "encoding": "inplace",
        "label": "contract ICheckpointManager",
        "numberOfBytes": "20"
      },
      "t_contract(IFxStateSender)9594": {
        "encoding": "inplace",
        "label": "contract IFxStateSender",
        "numberOfBytes": "20"
      },
      "t_mapping(t_bytes32,t_bool)": {
        "encoding": "mapping",
        "key": "t_bytes32",
        "label": "mapping(bytes32 => bool)",
        "numberOfBytes": "32",
        "value": "t_bool"
      }
    }
  }
}