{
  "address": "0x07A54cd7A95080e95f8AA2f611830B8B8518ab98",
  "abi": [
    {
      "constant": false,
      "inputs": [
        {
          "name": "spender",
          "type": "address"
        },
        {
          "name": "amount",
          "type": "uint256"
        }
      ],
      "name": "approve",
      "outputs": [
        {
          "name": "success",
          "type": "bool"
        }
      ],
      "payable": false,
      "stateMutability": "nonpayable",
      "type": "function"
    },
    {
      "constant": true,
      "inputs": [],
      "name": "totalSupply",
      "outputs": [
        {
          "name": "",
          "type": "uint256"
        }
      ],
      "payable": false,
      "stateMutability": "view",
      "type": "function"
    },
    {
      "constant": false,
      "inputs": [
        {
          "name": "owner",
          "type": "address"
        },
        {
          "name": "amount",
          "type": "uint256"
        }
      ],
      "name": "burnFor",
      "outputs": [
        {
          "name": "",
          "type": "bool"
        }
      ],
      "payable": false,
      "stateMutability": "nonpayable",
      "type": "function"
    },
    {
      "constant": false,
      "inputs": [
        {
          "name": "from",
          "type": "address"
        },
        {
          "name": "to",
          "type": "address"
        },
        {
          "name": "amount",
          "type": "uint256"
        }
      ],
      "name": "transferFrom",
      "outputs": [
        {
          "name": "success",
          "type": "bool"
        }
      ],
      "payable": false,
      "stateMutability": "nonpayable",
      "type": "function"
    },
    {
      "constant": false,
      "inputs": [
        {
          "name": "owner",
          "type": "address"
        },
        {
          "name": "spender",
          "type": "address"
        },
        {
          "name": "amount",
          "type": "uint256"
        }
      ],
      "name": "approveFor",
      "outputs": [
        {
          "name": "success",
          "type": "bool"
        }
      ],
      "payable": false,
      "stateMutability": "nonpayable",
      "type": "function"
    },
    {
      "constant": true,
      "inputs": [],
      "name": "decimals",
      "outputs": [
        {
          "name": "",
          "type": "uint8"
        }
      ],
      "payable": false,
      "stateMutability": "view",
      "type": "function"
    },
    {
      "constant": false,
      "inputs": [
        {
          "name": "owner",
          "type": "address"
        },
        {
          "name": "spender",
          "type": "address"
        },
        {
          "name": "amountNeeded",
          "type": "uint256"
        }
      ],
      "name": "addAllowanceIfNeeded",
      "outputs": [
        {
          "name": "success",
          "type": "bool"
        }
      ],
      "payable": false,
      "stateMutability": "nonpayable",
      "type": "function"
    },
    {
      "constant": false,
      "inputs": [
        {
          "name": "amount",
          "type": "uint256"
        }
      ],
      "name": "burn",
      "outputs": [
        {
          "name": "",
          "type": "bool"
        }
      ],
      "payable": false,
      "stateMutability": "nonpayable",
      "type": "function"
    },
    {
      "constant": true,
      "inputs": [
        {
          "name": "who",
          "type": "address"
        }
      ],
      "name": "isSuperOperator",
      "outputs": [
        {
          "name": "",
          "type": "bool"
        }
      ],
      "payable": false,
      "stateMutability": "view",
      "type": "function"
    },
    {
      "constant": true,
      "inputs": [],
      "name": "getAdmin",
      "outputs": [
        {
          "name": "",
          "type": "address"
        }
      ],
      "payable": false,
      "stateMutability": "view",
      "type": "function"
    },
    {
      "constant": true,
      "inputs": [
        {
          "name": "owner",
          "type": "address"
        }
      ],
      "name": "balanceOf",
      "outputs": [
        {
          "name": "",
          "type": "uint256"
        }
      ],
      "payable": false,
      "stateMutability": "view",
      "type": "function"
    },
    {
      "constant": false,
      "inputs": [
        {
          "name": "newAdmin",
          "type": "address"
        }
      ],
      "name": "changeAdmin",
      "outputs": [],
      "payable": false,
      "stateMutability": "nonpayable",
      "type": "function"
    },
    {
      "constant": false,
      "inputs": [
        {
          "name": "to",
          "type": "address"
        },
        {
          "name": "amount",
          "type": "uint256"
        }
      ],
      "name": "transfer",
      "outputs": [
        {
          "name": "success",
          "type": "bool"
        }
      ],
      "payable": false,
      "stateMutability": "nonpayable",
      "type": "function"
    },
    {
      "constant": false,
      "inputs": [
        {
          "name": "superOperator",
          "type": "address"
        },
        {
          "name": "enabled",
          "type": "bool"
        }
      ],
      "name": "setSuperOperator",
      "outputs": [],
      "payable": false,
      "stateMutability": "nonpayable",
      "type": "function"
    },
    {
      "constant": true,
      "inputs": [
        {
          "name": "owner",
          "type": "address"
        },
        {
          "name": "spender",
          "type": "address"
        }
      ],
      "name": "allowance",
      "outputs": [
        {
          "name": "remaining",
          "type": "uint256"
        }
      ],
      "payable": false,
      "stateMutability": "view",
      "type": "function"
    },
    {
      "inputs": [],
      "payable": false,
      "stateMutability": "nonpayable",
      "type": "constructor"
    },
    {
      "anonymous": false,
      "inputs": [
        {
          "indexed": true,
          "name": "from",
          "type": "address"
        },
        {
          "indexed": true,
          "name": "to",
          "type": "address"
        },
        {
          "indexed": false,
          "name": "value",
          "type": "uint256"
        }
      ],
      "name": "Transfer",
      "type": "event"
    },
    {
      "anonymous": false,
      "inputs": [
        {
          "indexed": true,
          "name": "owner",
          "type": "address"
        },
        {
          "indexed": true,
          "name": "spender",
          "type": "address"
        },
        {
          "indexed": false,
          "name": "value",
          "type": "uint256"
        }
      ],
      "name": "Approval",
      "type": "event"
    },
    {
      "anonymous": false,
      "inputs": [
        {
          "indexed": false,
          "name": "superOperator",
          "type": "address"
        },
        {
          "indexed": false,
          "name": "enabled",
          "type": "bool"
        }
      ],
      "name": "SuperOperator",
      "type": "event"
    },
    {
      "anonymous": false,
      "inputs": [
        {
          "indexed": false,
          "name": "oldAdmin",
          "type": "address"
        },
        {
          "indexed": false,
          "name": "newAdmin",
          "type": "address"
        }
      ],
      "name": "AdminChanged",
      "type": "event"
    }
  ],
  "transactionHash": "0x235e9ba449aefcbdd0029572845dc5ee64cef57972f9c32b00236365a55d8e6a",
  "args": [],
  "solcInputHash": "a48eeaeaeaebd3f4efa2faa8e6d75af1",
  "bytecode": "0x608060405234801561001057600080fd5b50610030336b09b18ab5df7180b6b80000006001600160e01b0361003516565b6101eb565b6001600160a01b0382166100aa57604080517f08c379a000000000000000000000000000000000000000000000000000000000815260206004820152601260248201527f43616e6e6f74206d696e7420746f203078300000000000000000000000000000604482015290519081900360640190fd5b6000811161011957604080517f08c379a000000000000000000000000000000000000000000000000000000000815260206004820152601460248201527f63616e6e6f74206d696e74203020746f6b656e73000000000000000000000000604482015290519081900360640190fd5b60025481810181811161018d57604080517f08c379a000000000000000000000000000000000000000000000000000000000815260206004820152600860248201527f6f766572666c6f77000000000000000000000000000000000000000000000000604482015290519081900360640190fd5b60028190556001600160a01b0384166000818152600360209081526040808320805488019055805187815290517fddf252ad1be2c89b69c2b068fc378daa952ba7f163c4a11628f55a4df523b3ef929181900390910190a350505050565b610ca1806101fa6000396000f3fe608060405234801561001057600080fd5b50600436106100f55760003560e01c806342966c68116100975780638f283970116100665780638f283970146102cd578063a9059cbb146102f5578063ac9fe42114610321578063dd62ed3e1461034f576100f5565b806342966c6814610240578063654b748a1461025d5780636e9960c31461028357806370a08231146102a7576100f5565b806323b872dd116100d357806323b872dd146101805780632b991746146101b6578063313ce567146101ec5780633b7b5a161461020a576100f5565b8063095ea7b3146100fa57806318160ddd1461013a5780631dd319cb14610154575b600080fd5b6101266004803603604081101561011057600080fd5b506001600160a01b03813516906020013561037d565b604080519115158252519081900360200190f35b610142610393565b60408051918252519081900360200190f35b6101266004803603604081101561016a57600080fd5b506001600160a01b038135169060200135610399565b6101266004803603606081101561019657600080fd5b506001600160a01b038135811691602081013590911690604001356103a5565b610126600480360360608110156101cc57600080fd5b506001600160a01b03813581169160208101359091169060400135610497565b6101f4610505565b6040805160ff9092168252519081900360200190f35b6101266004803603606081101561022057600080fd5b506001600160a01b0381358116916020810135909116906040013561050a565b6101266004803603602081101561025657600080fd5b5035610578565b6101266004803603602081101561027357600080fd5b50356001600160a01b031661058c565b61028b6105aa565b604080516001600160a01b039092168252519081900360200190f35b610142600480360360208110156102bd57600080fd5b50356001600160a01b03166105b9565b6102f3600480360360208110156102e357600080fd5b50356001600160a01b03166105d4565b005b6101266004803603604081101561030b57600080fd5b506001600160a01b0381351690602001356106b5565b6102f36004803603604081101561033757600080fd5b506001600160a01b03813516906020013515156106c2565b6101426004803603604081101561036557600080fd5b506001600160a01b038135811691602001351661078d565b600061038a3384846107b8565b50600192915050565b60025490565b600061038a838361088b565b6000336001600160a01b038516148015906103d057503360009081526001602052604090205460ff16155b15610482576001600160a01b038416600090815260046020908152604080832033845290915290205460001981146104805782811015610457576040805162461bcd60e51b815260206004820152601860248201527f4e6f7420656e6f7567682066756e647320616c6c6f7765640000000000000000604482015290519081900360640190fd5b6001600160a01b0385166000908152600460209081526040808320338452909152902083820390555b505b61048d848484610a8c565b5060019392505050565b6000336001600160a01b03851614806104bf57503360009081526001602052604090205460ff165b6104fa5760405162461bcd60e51b8152600401808060200182810382526025815260200180610c1c6025913960400191505060405180910390fd5b61048d8484846107b8565b601290565b6000336001600160a01b038516148061053257503360009081526001602052604090205460ff165b61056d5760405162461bcd60e51b8152600401808060200182810382526025815260200180610c1c6025913960400191505060405180910390fd5b61048d848484610bc0565b6000610584338361088b565b506001919050565b6001600160a01b031660009081526001602052604090205460ff1690565b6000546001600160a01b031690565b6001600160a01b031660009081526003602052604090205490565b6000546001600160a01b03163314610633576040805162461bcd60e51b815260206004820152601b60248201527f6f6e6c792061646d696e2063616e206368616e67652061646d696e0000000000604482015290519081900360640190fd5b600054604080516001600160a01b039283168152918316602083015280517f7e644d79422f17c01e4894b5f4f588d331ebfa28653d42ae832dc59e38c9798f9281900390910190a1600080547fffffffffffffffffffffffff0000000000000000000000000000000000000000166001600160a01b0392909216919091179055565b600061038a338484610a8c565b6000546001600160a01b0316331461070b5760405162461bcd60e51b815260040180806020018281038252602c815260200180610c41602c913960400191505060405180910390fd5b6001600160a01b03821660008181526001602090815260409182902080547fffffffffffffffffffffffffffffffffffffffffffffffffffffffffffffff001685151590811790915582519384529083015280517f44f92d27abdf4cfb6a7d712c3af68f3be086d4ca747ab802c36f67d6790060d89281900390910190a15050565b6001600160a01b03918216600090815260046020908152604080832093909416825291909152205490565b6001600160a01b038316158015906107d857506001600160a01b03821615155b610829576040805162461bcd60e51b815260206004820152601760248201527f43616e6e6f7420617070726f7665207769746820307830000000000000000000604482015290519081900360640190fd5b6001600160a01b03808416600081815260046020908152604080832094871680845294825291829020859055815185815291517f8c5be1e5ebec7d5bd14f71427d1e84f3dd0314c0f7b2291e5b200ac8c7c3b9259281900390910190a3505050565b600081116108e0576040805162461bcd60e51b815260206004820152601460248201527f63616e6e6f74206275726e203020746f6b656e73000000000000000000000000604482015290519081900360640190fd5b336001600160a01b0383161480159061090957503360009081526001602052604090205460ff16155b156109bb576001600160a01b038216600090815260046020908152604080832033845290915290205481811015610987576040805162461bcd60e51b815260206004820152601860248201527f4e6f7420656e6f7567682066756e647320616c6c6f7765640000000000000000604482015290519081900360640190fd5b80600019146109b9576001600160a01b0383166000908152600460209081526040808320338452909152902082820390555b505b6001600160a01b03821660009081526003602052604090205481811015610a29576040805162461bcd60e51b815260206004820152601060248201527f4e6f7420656e6f7567682066756e647300000000000000000000000000000000604482015290519081900360640190fd5b6001600160a01b03831660008181526003602090815260408083208686039055600280548790039055805186815290519293927fddf252ad1be2c89b69c2b068fc378daa952ba7f163c4a11628f55a4df523b3ef929181900390910190a3505050565b6001600160a01b038216610ae7576040805162461bcd60e51b815260206004820152601260248201527f43616e6e6f742073656e6420746f203078300000000000000000000000000000604482015290519081900360640190fd5b6001600160a01b03831660009081526003602052604090205481811015610b55576040805162461bcd60e51b815260206004820152600f60248201527f6e6f7420656e6f7567682066756e640000000000000000000000000000000000604482015290519081900360640190fd5b6001600160a01b0380851660008181526003602090815260408083208787039055938716808352918490208054870190558351868152935191937fddf252ad1be2c89b69c2b068fc378daa952ba7f163c4a11628f55a4df523b3ef929081900390910190a350505050565b600081118015610bd65750610bd48261058c565b155b15610c16576001600160a01b0380841660009081526004602090815260408083209386168352929052205481811015610c1457610c148484846107b8565b505b50505056fe6d73672e73656e64657220213d206f776e6572202626202173757065724f70657261746f726f6e6c792061646d696e20697320616c6c6f77656420746f20616464207375706572206f70657261746f7273a265627a7a72305820dcbe0f057acc5d54a687abb5ad7d2fea243c04c1e7232661771c6529865f1b9864736f6c63430005090032",
  "devdoc": {
    "methods": {
      "allowance(address,address)": {
        "params": {
          "owner": "address whose token is allowed.",
          "spender": "address allowed to transfer."
        },
        "return": "the amount of token `spender` is allowed to transfer on behalf of `owner`."
      },
      "approve(address,uint256)": {
        "params": {
          "amount": "the number of tokens allowed.",
          "spender": "address to be given rights to transfer."
        },
        "return": "true if success."
      },
      "approveFor(address,address,uint256)": {
        "params": {
          "amount": "the number of tokens allowed.",
          "owner": "address whose token is allowed.",
          "spender": "address to be given rights to transfer."
        },
        "return": "true if success."
      },
      "balanceOf(address)": {
        "params": {
          "owner": "The address to query the balance of."
        },
        "return": "The amount owned by `owner`."
      },
      "burn(uint256)": {
        "params": {
          "amount": "the number of tokens to burn."
        },
        "return": "true if success."
      },
      "burnFor(address,uint256)": {
        "params": {
          "amount": "the number of token to burn.",
          "owner": "address whose token is to burn."
        },
        "return": "true if success."
      },
      "changeAdmin(address)": {
        "params": {
          "newAdmin": "address of the new administrator."
        }
      },
      "decimals()": {
        "return": "the number of decimals."
      },
      "getAdmin()": {
        "return": "the current administrator of this contract."
      },
      "isSuperOperator(address)": {
        "params": {
          "who": "The address to query."
        },
        "return": "whether the address has superOperator rights."
      },
      "setSuperOperator(address,bool)": {
        "params": {
          "enabled": "set whether the superOperator is enabled or disabled.",
          "superOperator": "address that will be given/removed superOperator right."
        }
      },
      "totalSupply()": {
        "return": "the total number of tokens in existence."
      },
      "transfer(address,uint256)": {
        "params": {
          "amount": "the number of tokens transfered.",
          "to": "the recipient address of the tokens transfered."
        },
        "return": "true if success."
      },
      "transferFrom(address,address,uint256)": {
        "params": {
          "amount": "the number of tokens transfered.",
          "from": "whose token it is transferring from.",
          "to": "the recipient address of the tokens transfered."
        },
        "return": "true if success."
      }
    }
  },
  "userdoc": {
    "methods": {
      "allowance(address,address)": {
        "notice": "gets allowance of `spender` for `owner`'s tokens."
      },
      "approve(address,uint256)": {
        "notice": "approve `spender` to transfer `amount` tokens."
      },
      "approveFor(address,address,uint256)": {
        "notice": "approve `spender` to transfer `amount` tokens from `owner`."
      },
      "balanceOf(address)": {
        "notice": "Gets the balance of `owner`."
      },
      "burn(uint256)": {
        "notice": "burn `amount` tokens."
      },
      "burnFor(address,uint256)": {
        "notice": "burn `amount` tokens from `owner`."
      },
      "changeAdmin(address)": {
        "notice": "change the administrator to be `newAdmin`."
      },
      "decimals()": {
        "notice": "returns the number of decimals for that token."
      },
      "getAdmin()": {
        "notice": "gives the current administrator of this contract."
      },
      "isSuperOperator(address)": {
        "notice": "check whether address `who` is given superOperator rights."
      },
      "setSuperOperator(address,bool)": {
        "notice": "Enable or disable the ability of `superOperator` to transfer tokens of all (superOperator rights)."
      },
      "totalSupply()": {
        "notice": "Gets the total number of tokens in existence."
      },
      "transfer(address,uint256)": {
        "notice": "Transfer `amount` tokens to `to`."
      },
      "transferFrom(address,address,uint256)": {
        "notice": "Transfer `amount` tokens from `from` to `to`."
      }
    }
  }
}