{
  "address": "0xC9BCA0C0C46714B44c8033852AD97b60BFb73096",
  "abi": [
    {
      "constant": true,
      "inputs": [],
      "name": "read",
      "outputs": [
        {
          "name": "",
          "type": "bytes32"
        }
      ],
      "payable": false,
      "stateMutability": "view",
      "type": "function"
    }
  ],
  "transactionHash": "0x8158383884ad91dcc99257d535bd72fcaf05896f0643f6f0366e1bf041d41f37",
  "args": [],
  "numDeployments": 1,
  "solcInputHash": "58235aae2deeb8981db65b674173b16e",
  "bytecode": "0x6080604052348015600f57600080fd5b5060878061001e6000396000f3fe6080604052348015600f57600080fd5b506004361060285760003560e01c806357de26a414602d575b600080fd5b60336045565b60408051918252519081900360200190f35b68094adc6a4ded9580009056fea265627a7a7230582020f196f28fd52cd127f18ee832c9b4c52c102d669c01bf2f705c8b7bc708ae4d64736f6c63430005090032",
  "devdoc": {
    "details": "From MakerDAO (https://etherscan.io/address/0x729D19f657BD0614b4985Cf1D82531c67569197B#code)",
    "methods": {},
    "title": "Fake Medianizer contract"
  },
  "userdoc": {
    "methods": {}
  }
}