{
  "address": "0x18EB62F869610b566a5d10BEBc1B7c7D09239C54",
  "abi": [
    {
      "inputs": [
        {
          "internalType": "address",
          "name": "_checkpointManager",
          "type": "address"
        },
        {
          "internalType": "address",
          "name": "_fxRoot",
          "type": "address"
        },
        {
          "internalType": "address",
          "name": "_rootToken",
          "type": "address"
        },
        {
          "internalType": "address",
          "name": "_trustedForwarder",
          "type": "address"
        }
      ],
      "stateMutability": "nonpayable",
      "type": "constructor"
    },
    {
      "anonymous": false,
      "inputs": [
        {
          "indexed": false,
          "internalType": "address",
          "name": "user",
          "type": "address"
        },
        {
          "indexed": false,
          "internalType": "uint256",
          "name": "size",
          "type": "uint256"
        },
        {
          "indexed": false,
          "internalType": "uint256",
          "name": "x",
          "type": "uint256"
        },
        {
          "indexed": false,
          "internalType": "uint256",
          "name": "y",
          "type": "uint256"
        },
        {
          "indexed": false,
          "internalType": "bytes",
          "name": "data",
          "type": "bytes"
        }
      ],
      "name": "Deposit",
      "type": "event"
    },
    {
      "anonymous": false,
      "inputs": [
        {
          "indexed": true,
          "internalType": "address",
          "name": "previousOwner",
          "type": "address"
        },
        {
          "indexed": true,
          "internalType": "address",
          "name": "newOwner",
          "type": "address"
        }
      ],
      "name": "OwnershipTransferred",
      "type": "event"
    },
    {
      "anonymous": false,
      "inputs": [
        {
          "indexed": false,
          "internalType": "address",
          "name": "account",
          "type": "address"
        }
      ],
      "name": "Paused",
      "type": "event"
    },
    {
      "anonymous": false,
      "inputs": [
        {
          "indexed": false,
          "internalType": "address",
          "name": "account",
          "type": "address"
        }
      ],
      "name": "Unpaused",
      "type": "event"
    },
    {
      "anonymous": false,
      "inputs": [
        {
          "indexed": false,
          "internalType": "address",
          "name": "user",
          "type": "address"
        },
        {
          "indexed": false,
          "internalType": "uint256",
          "name": "size",
          "type": "uint256"
        },
        {
          "indexed": false,
          "internalType": "uint256",
          "name": "x",
          "type": "uint256"
        },
        {
          "indexed": false,
          "internalType": "uint256",
          "name": "y",
          "type": "uint256"
        },
        {
          "indexed": false,
          "internalType": "bytes",
          "name": "data",
          "type": "bytes"
        }
      ],
      "name": "Withdraw",
      "type": "event"
    },
    {
      "inputs": [],
      "name": "SEND_MESSAGE_EVENT_SIG",
      "outputs": [
        {
          "internalType": "bytes32",
          "name": "",
          "type": "bytes32"
        }
      ],
      "stateMutability": "view",
      "type": "function"
    },
    {
      "inputs": [
        {
          "internalType": "address",
          "name": "to",
          "type": "address"
        },
        {
          "internalType": "uint256[]",
          "name": "sizes",
          "type": "uint256[]"
        },
        {
          "internalType": "uint256[]",
          "name": "xs",
          "type": "uint256[]"
        },
        {
          "internalType": "uint256[]",
          "name": "ys",
          "type": "uint256[]"
        },
        {
          "internalType": "bytes",
          "name": "data",
          "type": "bytes"
        }
      ],
      "name": "batchTransferQuadToL2",
      "outputs": [],
      "stateMutability": "nonpayable",
      "type": "function"
    },
    {
      "inputs": [],
      "name": "checkpointManager",
      "outputs": [
        {
          "internalType": "contract ICheckpointManager",
          "name": "",
          "type": "address"
        }
      ],
      "stateMutability": "view",
      "type": "function"
    },
    {
      "inputs": [],
      "name": "fxChildTunnel",
      "outputs": [
        {
          "internalType": "address",
          "name": "",
          "type": "address"
        }
      ],
      "stateMutability": "view",
      "type": "function"
    },
    {
      "inputs": [],
      "name": "fxRoot",
      "outputs": [
        {
          "internalType": "contract IFxStateSender",
          "name": "",
          "type": "address"
        }
      ],
      "stateMutability": "view",
      "type": "function"
    },
    {
      "inputs": [],
      "name": "getTrustedForwarder",
      "outputs": [
        {
          "internalType": "address",
          "name": "trustedForwarder",
          "type": "address"
        }
      ],
      "stateMutability": "view",
      "type": "function"
    },
    {
      "inputs": [
        {
          "internalType": "address",
          "name": "forwarder",
          "type": "address"
        }
      ],
      "name": "isTrustedForwarder",
      "outputs": [
        {
          "internalType": "bool",
          "name": "",
          "type": "bool"
        }
      ],
      "stateMutability": "view",
      "type": "function"
    },
    {
      "inputs": [
        {
          "internalType": "address",
          "name": "",
          "type": "address"
        },
        {
          "internalType": "address",
          "name": "",
          "type": "address"
        },
        {
          "internalType": "uint256[]",
          "name": "",
          "type": "uint256[]"
        },
        {
          "internalType": "bytes",
          "name": "",
          "type": "bytes"
        }
      ],
      "name": "onERC721BatchReceived",
      "outputs": [
        {
          "internalType": "bytes4",
          "name": "",
          "type": "bytes4"
        }
      ],
      "stateMutability": "pure",
      "type": "function"
    },
    {
      "inputs": [
        {
          "internalType": "address",
          "name": "",
          "type": "address"
        },
        {
          "internalType": "address",
          "name": "",
          "type": "address"
        },
        {
          "internalType": "uint256",
          "name": "",
          "type": "uint256"
        },
        {
          "internalType": "bytes",
          "name": "",
          "type": "bytes"
        }
      ],
      "name": "onERC721Received",
      "outputs": [
        {
          "internalType": "bytes4",
          "name": "",
          "type": "bytes4"
        }
      ],
      "stateMutability": "pure",
      "type": "function"
    },
    {
      "inputs": [],
      "name": "owner",
      "outputs": [
        {
          "internalType": "address",
          "name": "",
          "type": "address"
        }
      ],
      "stateMutability": "view",
      "type": "function"
    },
    {
      "inputs": [],
      "name": "pause",
      "outputs": [],
      "stateMutability": "nonpayable",
      "type": "function"
    },
    {
      "inputs": [],
      "name": "paused",
      "outputs": [
        {
          "internalType": "bool",
          "name": "",
          "type": "bool"
        }
      ],
      "stateMutability": "view",
      "type": "function"
    },
    {
      "inputs": [
        {
          "internalType": "bytes32",
          "name": "",
          "type": "bytes32"
        }
      ],
      "name": "processedExits",
      "outputs": [
        {
          "internalType": "bool",
          "name": "",
          "type": "bool"
        }
      ],
      "stateMutability": "view",
      "type": "function"
    },
    {
      "inputs": [
        {
          "internalType": "bytes",
          "name": "inputData",
          "type": "bytes"
        }
      ],
      "name": "receiveMessage",
      "outputs": [],
      "stateMutability": "nonpayable",
      "type": "function"
    },
    {
      "inputs": [],
      "name": "renounceOwnership",
      "outputs": [],
      "stateMutability": "nonpayable",
      "type": "function"
    },
    {
      "inputs": [],
      "name": "rootToken",
      "outputs": [
        {
          "internalType": "address",
          "name": "",
          "type": "address"
        }
      ],
      "stateMutability": "view",
      "type": "function"
    },
    {
      "inputs": [
        {
          "internalType": "address",
          "name": "_fxChildTunnel",
          "type": "address"
        }
      ],
      "name": "setFxChildTunnel",
      "outputs": [],
      "stateMutability": "nonpayable",
      "type": "function"
    },
    {
      "inputs": [
        {
          "internalType": "address",
          "name": "trustedForwarder",
          "type": "address"
        }
      ],
      "name": "setTrustedForwarder",
      "outputs": [],
      "stateMutability": "nonpayable",
      "type": "function"
    },
    {
      "inputs": [
        {
          "internalType": "bytes4",
          "name": "interfaceId",
          "type": "bytes4"
        }
      ],
      "name": "supportsInterface",
      "outputs": [
        {
          "internalType": "bool",
          "name": "",
          "type": "bool"
        }
      ],
      "stateMutability": "pure",
      "type": "function"
    },
    {
      "inputs": [
        {
          "internalType": "address",
          "name": "newOwner",
          "type": "address"
        }
      ],
      "name": "transferOwnership",
      "outputs": [],
      "stateMutability": "nonpayable",
      "type": "function"
    },
    {
      "inputs": [],
      "name": "unpause",
      "outputs": [],
      "stateMutability": "nonpayable",
      "type": "function"
    }
  ],
  "transactionHash": "0x8ca1a1c81940c8dfb8070575d225b38b3b23702d40bdbf8ac0dcf64c21446a69",
  "args": [
    "0x2890bA17EfE978480615e330ecB65333b880928e",
    "0x3d1d3E34f7fB6D26245E6640E1c50710eFFf15bA",
    "0x61811c3fAB0EF7243F87f916Bef9D51466b9851A",
    "0xD1Eb013345bAe50B396E0293636BCF0204463452"
  ],
  "numDeployments": 1,
  "solcInputHash": "3ac99781400346b5ef1247840c0f0d75",
  "bytecode": "0x60806040523480156200001157600080fd5b506040516200346a3803806200346a83398101604081905262000034916200019a565b600180546001600160a01b038087166001600160a01b03199283161790925560008054928616929091169190911790556200007862000072620000d1565b620000ee565b6005805460ff60a01b19169055600680546001600160a01b0319166001600160a01b038416179055620000c781600480546001600160a01b0319166001600160a01b0392909216919091179055565b50505050620001f6565b6000620000e86200014060201b62000b2a1760201c565b90505b90565b600580546001600160a01b038381166001600160a01b0319831681179093556040519116919082907f8be0079c531659141344cd1fd0a4f28419497f9722a3daafe3b4186f6b6457e090600090a35050565b60006200014d336200016b565b1562000163575060131936013560601c620000eb565b5033620000eb565b6004546001600160a01b038281169116145b919050565b80516001600160a01b03811681146200017d57600080fd5b60008060008060808587031215620001b0578384fd5b620001bb8562000182565b9350620001cb6020860162000182565b9250620001db6040860162000182565b9150620001eb6060860162000182565b905092959194509250565b61326480620002066000396000f3fe608060405234801561001057600080fd5b50600436106101775760003560e01c80638456cb59116100d8578063c4d168d61161008c578063de9b771f11610066578063de9b771f1461038e578063f2fde38b146103a1578063f953cec7146103b457610177565b8063c4d168d614610357578063ce1b815f1461036a578063da7422281461037b57610177565b8063972c4928116100bd578063972c49281461031e578063aea4e49e14610331578063c0857ba01461034457610177565b80638456cb59146103055780638da5cb5b1461030d57610177565b80634b808c461161012f5780635c975abb116101145780635c975abb146102d2578063607f2d42146102da578063715018a6146102fd57610177565b80634b808c4614610277578063572b6c05146102b057610177565b8063150b7a0211610160578063150b7a02146101d95780631f2d0065146102425780633f4ba83a1461026d57610177565b806301ffc9a71461017c5780630e387de6146101a4575b600080fd5b61018f61018a366004612cd4565b6103c7565b60405190151581526020015b60405180910390f35b6101cb7f8c5261668696ce22758910d05bab8f186d6eb247ceac2af2e82c7dc17669b03681565b60405190815260200161019b565b6102116101e7366004612b51565b7f150b7a020000000000000000000000000000000000000000000000000000000095945050505050565b6040517fffffffff00000000000000000000000000000000000000000000000000000000909116815260200161019b565b600654610255906001600160a01b031681565b6040516001600160a01b03909116815260200161019b565b610275610462565b005b610211610285366004612a92565b7f4b808c46000000000000000000000000000000000000000000000000000000009695505050505050565b61018f6102be3660046129ba565b6004546001600160a01b0390811691161490565b61018f6104ea565b61018f6102e8366004612c70565b60036020526000908152604090205460ff1681565b61027561050c565b61027561058f565b6005546001600160a01b0316610255565b600254610255906001600160a01b031681565b61027561033f3660046129ba565b610610565b600154610255906001600160a01b031681565b610275610365366004612bc2565b6106be565b6004546001600160a01b0316610255565b6102756103893660046129ba565b610967565b600054610255906001600160a01b031681565b6102756103af3660046129ba565b610a0f565b6102756103c2366004612d14565b610b10565b60007f5e8bf644000000000000000000000000000000000000000000000000000000007fffffffff000000000000000000000000000000000000000000000000000000008316148061045a57507f01ffc9a7000000000000000000000000000000000000000000000000000000007fffffffff000000000000000000000000000000000000000000000000000000008316145b90505b919050565b61046a610b74565b6001600160a01b03166104856005546001600160a01b031690565b6001600160a01b0316146104e05760405162461bcd60e51b815260206004820181905260248201527f4f776e61626c653a2063616c6c6572206973206e6f7420746865206f776e657260448201526064015b60405180910390fd5b6104e8610b83565b565b60055474010000000000000000000000000000000000000000900460ff165b90565b610514610b74565b6001600160a01b031661052f6005546001600160a01b031690565b6001600160a01b0316146105855760405162461bcd60e51b815260206004820181905260248201527f4f776e61626c653a2063616c6c6572206973206e6f7420746865206f776e657260448201526064016104d7565b6104e86000610c45565b610597610b74565b6001600160a01b03166105b26005546001600160a01b031690565b6001600160a01b0316146106085760405162461bcd60e51b815260206004820181905260248201527f4f776e61626c653a2063616c6c6572206973206e6f7420746865206f776e657260448201526064016104d7565b6104e8610ca4565b6002546001600160a01b03161561068f5760405162461bcd60e51b815260206004820152602a60248201527f467842617365526f6f7454756e6e656c3a204348494c445f54554e4e454c5f4160448201527f4c52454144595f5345540000000000000000000000000000000000000000000060648201526084016104d7565b6002805473ffffffffffffffffffffffffffffffffffffffff19166001600160a01b0392909216919091179055565b6106c66104ea565b156107135760405162461bcd60e51b815260206004820152601060248201527f5061757361626c653a207061757365640000000000000000000000000000000060448201526064016104d7565b82518451148015610725575081518351145b6107715760405162461bcd60e51b815260206004820152601060248201527f6c323a20696e76616c696420646174610000000000000000000000000000000060448201526064016104d7565b6006546001600160a01b031663eaa5e06761078a610b74565b30878787876040518763ffffffff1660e01b81526004016107b096959493929190612e0d565b600060405180830381600087803b1580156107ca57600080fd5b505af11580156107de573d6000803e3d6000fd5b5050505060005b845181101561095f5760008686838151811061081157634e487b7160e01b600052603260045260246000fd5b602002602001015186848151811061083957634e487b7160e01b600052603260045260246000fd5b602002602001015186858151811061086157634e487b7160e01b600052603260045260246000fd5b60200260200101518660405160200161087e959493929190612edf565b604051602081830303815290604052905061089881610d61565b7f86beac9ed9e1aa4efb77b948567a4c352c177bb58b134f4c9d0d92c2c8ffbfb1878784815181106108da57634e487b7160e01b600052603260045260246000fd5b602002602001015187858151811061090257634e487b7160e01b600052603260045260246000fd5b602002602001015187868151811061092a57634e487b7160e01b600052603260045260246000fd5b602002602001015187604051610944959493929190612edf565b60405180910390a1508061095781613186565b9150506107e5565b505050505050565b61096f610b74565b6001600160a01b031661098a6005546001600160a01b031690565b6001600160a01b0316146109e05760405162461bcd60e51b815260206004820181905260248201527f4f776e61626c653a2063616c6c6572206973206e6f7420746865206f776e657260448201526064016104d7565b6004805473ffffffffffffffffffffffffffffffffffffffff19166001600160a01b0392909216919091179055565b610a17610b74565b6001600160a01b0316610a326005546001600160a01b031690565b6001600160a01b031614610a885760405162461bcd60e51b815260206004820181905260248201527f4f776e61626c653a2063616c6c6572206973206e6f7420746865206f776e657260448201526064016104d7565b6001600160a01b038116610b045760405162461bcd60e51b815260206004820152602660248201527f4f776e61626c653a206e6577206f776e657220697320746865207a65726f206160448201527f646472657373000000000000000000000000000000000000000000000000000060648201526084016104d7565b610b0d81610c45565b50565b6000610b1b82610de5565b9050610b2681611134565b5050565b6004546000906001600160a01b0316331415610b6d57507fffffffffffffffffffffffffffffffffffffffffffffffffffffffffffffffec36013560601c610509565b5033610509565b6000610b7e610b2a565b905090565b610b8b6104ea565b610bd75760405162461bcd60e51b815260206004820152601460248201527f5061757361626c653a206e6f742070617573656400000000000000000000000060448201526064016104d7565b600580547fffffffffffffffffffffff00ffffffffffffffffffffffffffffffffffffffff1690557f5db9ee0a495bf2e6ff9c91a7834c1ba4fdd244a5e8aa4e537bd38aeae4b073aa610c28610b74565b6040516001600160a01b03909116815260200160405180910390a1565b600580546001600160a01b0383811673ffffffffffffffffffffffffffffffffffffffff19831681179093556040519116919082907f8be0079c531659141344cd1fd0a4f28419497f9722a3daafe3b4186f6b6457e090600090a35050565b610cac6104ea565b15610cf95760405162461bcd60e51b815260206004820152601060248201527f5061757361626c653a207061757365640000000000000000000000000000000060448201526064016104d7565b600580547fffffffffffffffffffffff00ffffffffffffffffffffffffffffffffffffffff16740100000000000000000000000000000000000000001790557f62e78cea01bee320cd4e420270b5ea74000d11b0c9f74754ebdbfc544b05a258610c28610b74565b6000546002546040517fb47204770000000000000000000000000000000000000000000000000000000081526001600160a01b039283169263b472047792610db0929116908590600401612ebd565b600060405180830381600087803b158015610dca57600080fd5b505af1158015610dde573d6000803e3d6000fd5b5050505050565b60606000610df28361131c565b90506000610dff8261137b565b90506000610e0c836113b2565b9050600081610e1a846113e9565b610e238661160f565b604051602001610e3593929190612de0565b60408051601f1981840301815291815281516020928301206000818152600390935291205490915060ff1615610ed25760405162461bcd60e51b8152602060048201526024808201527f4678526f6f7454756e6e656c3a20455849545f414c52454144595f50524f434560448201527f535345440000000000000000000000000000000000000000000000000000000060648201526084016104d7565b600081815260036020526040812080547fffffffffffffffffffffffffffffffffffffffffffffffffffffffffffffff00166001179055610f1285611639565b90506000610f1f8261179f565b9050610f2a8161184b565b6002546001600160a01b03908116911614610fad5760405162461bcd60e51b815260206004820152602560248201527f4678526f6f7454756e6e656c3a20494e56414c49445f46585f4348494c445f5460448201527f554e4e454c00000000000000000000000000000000000000000000000000000060648201526084016104d7565b6000610fb887611882565b9050610fd8610fc8846020015190565b87610fd28a6118ac565b846118d6565b61104a5760405162461bcd60e51b815260206004820152602360248201527f4678526f6f7454756e6e656c3a20494e56414c49445f524543454950545f505260448201527f4f4f46000000000000000000000000000000000000000000000000000000000060648201526084016104d7565b6110788561105789611bfd565b6110608a611c27565b8461106a8c611c51565b6110738d611c7b565b611ca5565b50600061108483611df3565b90507f8c5261668696ce22758910d05bab8f186d6eb247ceac2af2e82c7dc17669b0366110ba6110b5836000611e3d565b611e83565b146111075760405162461bcd60e51b815260206004820152601f60248201527f4678526f6f7454756e6e656c3a20494e56414c49445f5349474e41545552450060448201526064016104d7565b600061111284611efe565b8060200190518101906111259190612d47565b9b9a5050505050505050505050565b60008060008060008580602001905181019061115091906129d6565b9450945094509450945060005b83518110156113135760065485516001600160a01b03909116906338bb305a90309089908990869081106111a157634e487b7160e01b600052603260045260246000fd5b60200260200101518886815181106111c957634e487b7160e01b600052603260045260246000fd5b60200260200101518887815181106111f157634e487b7160e01b600052603260045260246000fd5b6020026020010151886040518763ffffffff1660e01b815260040161121b96959493929190612e73565b600060405180830381600087803b15801561123557600080fd5b505af1158015611249573d6000803e3d6000fd5b505050507f91ee42a3ae048785d7370790775b6bf02c58c5d7bfb5de80f6d7cb27e46a207e8686838151811061128f57634e487b7160e01b600052603260045260246000fd5b60200260200101518684815181106112b757634e487b7160e01b600052603260045260246000fd5b60200260200101518685815181106112df57634e487b7160e01b600052603260045260246000fd5b6020026020010151866040516112f9959493929190612edf565b60405180910390a18061130b81613186565b91505061115d565b50505050505050565b60408051602081019091526060815260006113666113618460408051808201825260008082526020918201528151808301909252825182529182019181019190915290565b611f28565b60408051602081019091529081529392505050565b606061045a82600001516008815181106113a557634e487b7160e01b600052603260045260246000fd5b602002602001015161205a565b600061045a82600001516002815181106113dc57634e487b7160e01b600052603260045260246000fd5b6020026020010151611e83565b6040805160208101909152600081528151606091901561045a57600080611411600086612105565b60f81c9050600181148061142857508060ff166003145b156115045760018551600261143d91906130fd565b611447919061311c565b67ffffffffffffffff81111561146d57634e487b7160e01b600052604160045260246000fd5b6040519080825280601f01601f191660200182016040528015611497576020820181803683370190505b50925060006114a7600187612105565b905080846000815181106114cb57634e487b7160e01b600052603260045260246000fd5b60200101907effffffffffffffffffffffffffffffffffffffffffffffffffffffffffffff1916908160001a9053506001925050611576565b60028551600261151491906130fd565b61151e919061311c565b67ffffffffffffffff81111561154457634e487b7160e01b600052604160045260246000fd5b6040519080825280601f01601f19166020018201604052801561156e576020820181803683370190505b509250600091505b60ff82165b8351811015611606576115a561159460ff85168361311c565b61159f906002612f9b565b87612105565b8482815181106115c557634e487b7160e01b600052603260045260246000fd5b60200101907effffffffffffffffffffffffffffffffffffffffffffffffffffffffffffff1916908160001a905350806115fe81613186565b91505061157b565b50505092915050565b600061045a82600001516009815181106113dc57634e487b7160e01b600052603260045260246000fd5b61165d60405180606001604052806060815260200160608152602001600081525090565b61168582600001516006815181106113a557634e487b7160e01b600052603260045260246000fd5b6020828101829052604080518082018252600080825290830152805180820190915282518152918101908201526116bb816121a2565b156116d0576116c981611f28565b825261178b565b602082015180516000906116e69060019061311c565b67ffffffffffffffff81111561170c57634e487b7160e01b600052604160045260246000fd5b6040519080825280601f01601f191660200182016040528015611736576020820181803683370190505b509050600080836021019150826020019050611754828285516121dc565b60408051808201825260008082526020918201528151808301909252845182528085019082015261178490611361565b8652505050505b6117948361160f565b604083015250919050565b6040805160808101825260009181018281526060808301939093528152602081019190915260006117fb83600001516003815181106117ee57634e487b7160e01b600052603260045260246000fd5b6020026020010151611f28565b83604001518151811061181e57634e487b7160e01b600052603260045260246000fd5b60200260200101519050604051806040016040528082815260200161184283611f28565b90529392505050565b600061045a826020015160008151811061187557634e487b7160e01b600052603260045260246000fd5b6020026020010151612256565b600061045a82600001516005815181106113dc57634e487b7160e01b600052603260045260246000fd5b606061045a82600001516007815181106113a557634e487b7160e01b600052603260045260246000fd5b60008061190a8460408051808201825260008082526020918201528151808301909252825182529182019181019190915290565b9050600061191782611f28565b9050606080856000806119298b6113e9565b9050805160001415611945576000975050505050505050611bf5565b60005b8651811015611bec57815183111561196b57600098505050505050505050611bf5565b61199b87828151811061198e57634e487b7160e01b600052603260045260246000fd5b6020026020010151612270565b9550858051906020012084146119bc57600098505050505050505050611bf5565b6119df8782815181106117ee57634e487b7160e01b600052603260045260246000fd5b9450845160111415611ade578151831415611a4f578c80519060200120611a20866010815181106113a557634e487b7160e01b600052603260045260246000fd5b805190602001201415611a3e57600198505050505050505050611bf5565b600098505050505050505050611bf5565b6000828481518110611a7157634e487b7160e01b600052603260045260246000fd5b016020015160f81c90506010811115611a965760009950505050505050505050611bf5565b611ac9868260ff1681518110611abc57634e487b7160e01b600052603260045260246000fd5b60200260200101516122ff565b9450611ad6600185612f9b565b935050611bda565b845160021415611a3e576000611b18611b11876000815181106113a557634e487b7160e01b600052603260045260246000fd5b848661232d565b8351909150611b278286612f9b565b1415611b8a578d80519060200120611b59876001815181106113a557634e487b7160e01b600052603260045260246000fd5b805190602001201415611b785760019950505050505050505050611bf5565b60009950505050505050505050611bf5565b80611ba15760009950505050505050505050611bf5565b611bab8185612f9b565b9350611bd186600181518110611abc57634e487b7160e01b600052603260045260246000fd5b9450611bda9050565b80611be481613186565b915050611948565b50505050505050505b949350505050565b600061045a82600001516003815181106113dc57634e487b7160e01b600052603260045260246000fd5b600061045a82600001516004815181106113dc57634e487b7160e01b600052603260045260246000fd5b600061045a82600001516000815181106113dc57634e487b7160e01b600052603260045260246000fd5b606061045a82600001516001815181106113a557634e487b7160e01b600052603260045260246000fd5b6001546040517f41539d4a000000000000000000000000000000000000000000000000000000008152600481018490526000918291829182916001600160a01b03909116906341539d4a9060240160a06040518083038186803b158015611d0b57600080fd5b505afa158015611d1f573d6000803e3d6000fd5b505050506040513d601f19601f82011682018060405250810190611d439190612c88565b5093505092509250611d9a828b611d5a919061311c565b6040805160208082018f90528183018e9052606082018d905260808083018d90528351808403909101815260a09092019092528051910120908588612492565b611de65760405162461bcd60e51b815260206004820152601c60248201527f4678526f6f7454756e6e656c3a20494e56414c49445f4845414445520000000060448201526064016104d7565b9998505050505050505050565b6040805160208101909152606081526040518060200160405280611e3584602001516001815181106117ee57634e487b7160e01b600052603260045260246000fd5b905292915050565b60408051808201909152600080825260208201528251805183908110611e7357634e487b7160e01b600052603260045260246000fd5b6020026020010151905092915050565b805160009015801590611e9857508151602110155b611ea157600080fd5b6000611eb08360200151612608565b90506000818460000151611ec4919061311c565b9050600080838660200151611ed99190612f9b565b9050805191506020831015611ef557826020036101000a820491505b50949350505050565b606061045a82602001516002815181106113a557634e487b7160e01b600052603260045260246000fd5b6060611f33826121a2565b611f3c57600080fd5b6000611f478361268d565b905060008167ffffffffffffffff811115611f7257634e487b7160e01b600052604160045260246000fd5b604051908082528060200260200182016040528015611fb757816020015b6040805180820190915260008082526020820152815260200190600190039081611f905790505b5090506000611fc98560200151612608565b8560200151611fd89190612f9b565b90506000805b8481101561204f57611fef83612710565b915060405180604001604052808381526020018481525084828151811061202657634e487b7160e01b600052603260045260246000fd5b602090810291909101015261203b8284612f9b565b92508061204781613186565b915050611fde565b509195945050505050565b805160609061206857600080fd5b60006120778360200151612608565b9050600081846000015161208b919061311c565b905060008167ffffffffffffffff8111156120b657634e487b7160e01b600052604160045260246000fd5b6040519080825280601f01601f1916602001820160405280156120e0576020820181803683370190505b5090506000816020019050611ef58487602001516120fe9190612f9b565b82856127d2565b60006121126002846131a1565b1561215a57601082612125600286612fb3565b8151811061214357634e487b7160e01b600052603260045260246000fd5b0160200151612155919060f81c6131b5565b612198565b601082612168600286612fb3565b8151811061218657634e487b7160e01b600052603260045260246000fd5b0160200151612198919060f81c612fc7565b60f81b9392505050565b80516000906121b35750600061045d565b6020820151805160001a9060c08210156121d25760009250505061045d565b5060019392505050565b806121e657612251565b6020811061221e57825182526121fd602084612f9b565b925061220a602083612f9b565b915061221760208261311c565b90506121e6565b6000600161222d83602061311c565b6122399061010061302f565b612243919061311c565b845184518216911916178352505b505050565b805160009060151461226757600080fd5b61045a82611e83565b60606000826000015167ffffffffffffffff81111561229f57634e487b7160e01b600052604160045260246000fd5b6040519080825280601f01601f1916602001820160405280156122c9576020820181803683370190505b5090508051600014156122dd57905061045d565b60008160200190506122f884602001518286600001516127d2565b5092915050565b805160009060211461231057600080fd5b600080836020015160016123249190612f9b565b51949350505050565b6000808061233a866113e9565b90506000815167ffffffffffffffff81111561236657634e487b7160e01b600052604160045260246000fd5b6040519080825280601f01601f191660200182016040528015612390576020820181803683370190505b509050845b82516123a19087612f9b565b8110156124605760008782815181106123ca57634e487b7160e01b600052603260045260246000fd5b01602001517fff0000000000000000000000000000000000000000000000000000000000000016905080836123ff898561311c565b8151811061241d57634e487b7160e01b600052603260045260246000fd5b60200101907effffffffffffffffffffffffffffffffffffffffffffffffffffffffffffff1916908160001a90535050808061245890613186565b915050612395565b508080519060200120828051906020012014156124805781519250612485565b600092505b50909150505b9392505050565b6000602082516124a291906131a1565b156124ef5760405162461bcd60e51b815260206004820152601460248201527f496e76616c69642070726f6f66206c656e67746800000000000000000000000060448201526064016104d7565b6000602083516124ff9190612fb3565b905061250c81600261302f565b851061255a5760405162461bcd60e51b815260206004820152601560248201527f4c65616620696e64657820697320746f6f20626967000000000000000000000060448201526064016104d7565b60008660205b855181116125fa578581015192506125796002896131a1565b6125ae5760408051602081018490529081018490526060016040516020818303038152906040528051906020012091506125db565b60408051602081018590529081018390526060016040516020818303038152906040528051906020012091505b6125e6600289612fb3565b97506125f3602082612f9b565b9050612560565b509094149695505050505050565b8051600090811a608081101561262257600091505061045d565b60b881108061263d575060c0811080159061263d575060f881105b1561264c57600191505061045d565b60c081101561268157612661600160b8613133565b61266e9060ff168261311c565b612679906001612f9b565b91505061045d565b612661600160f8613133565b805160009061269e5750600061045d565b6000806126ae8460200151612608565b84602001516126bd9190612f9b565b90506000846000015185602001516126d59190612f9b565b90505b80821015612707576126e982612710565b6126f39083612f9b565b9150826126ff81613186565b9350506126d8565b50909392505050565b80516000908190811a608081101561272b57600191506122f8565b60b88110156127515761273f60808261311c565b61274a906001612f9b565b91506122f8565b60c081101561277e5760b78103600185019450806020036101000a855104600182018101935050506122f8565b60f88110156127925761273f60c08261311c565b60019390930151602084900360f7016101000a90049092017fffffffffffffffffffffffffffffffffffffffffffffffffffffffffffffff0a0192915050565b806127dc57612251565b6020811061281457825182526127f3602084612f9b565b9250612800602083612f9b565b915061280d60208261311c565b90506127dc565b8061221e57612251565b600082601f83011261282e578081fd5b8135602061284361283e83612f4f565b612f1e565b828152818101908583018385028701840188101561285f578586fd5b855b8581101561287d57813584529284019290840190600101612861565b5090979650505050505050565b600082601f83011261289a578081fd5b815160206128aa61283e83612f4f565b82815281810190858301838502870184018810156128c6578586fd5b855b8581101561287d578151845292840192908401906001016128c8565b60008083601f8401126128f5578182fd5b50813567ffffffffffffffff81111561290c578182fd5b60208301915083602082850101111561292457600080fd5b9250929050565b600082601f83011261293b578081fd5b813561294961283e82612f73565b81815284602083860101111561295d578283fd5b816020850160208301379081016020019190915292915050565b600082601f830112612987578081fd5b815161299561283e82612f73565b8181528460208386010111156129a9578283fd5b611bf5826020830160208701613156565b6000602082840312156129cb578081fd5b813561248b81613219565b600080600080600060a086880312156129ed578081fd5b85516129f881613219565b602087015190955067ffffffffffffffff80821115612a15578283fd5b612a2189838a0161288a565b95506040880151915080821115612a36578283fd5b612a4289838a0161288a565b94506060880151915080821115612a57578283fd5b612a6389838a0161288a565b93506080880151915080821115612a78578283fd5b50612a8588828901612977565b9150509295509295909350565b60008060008060008060808789031215612aaa578081fd5b8635612ab581613219565b95506020870135612ac581613219565b9450604087013567ffffffffffffffff80821115612ae1578283fd5b818901915089601f830112612af4578283fd5b813581811115612b02578384fd5b8a60208083028501011115612b15578384fd5b602083019650809550506060890135915080821115612b32578283fd5b50612b3f89828a016128e4565b979a9699509497509295939492505050565b600080600080600060808688031215612b68578081fd5b8535612b7381613219565b94506020860135612b8381613219565b935060408601359250606086013567ffffffffffffffff811115612ba5578182fd5b612bb1888289016128e4565b969995985093965092949392505050565b600080600080600060a08688031215612bd9578283fd5b8535612be481613219565b9450602086013567ffffffffffffffff80821115612c00578485fd5b612c0c89838a0161281e565b95506040880135915080821115612c21578485fd5b612c2d89838a0161281e565b94506060880135915080821115612c42578283fd5b612c4e89838a0161281e565b93506080880135915080821115612c63578283fd5b50612a858882890161292b565b600060208284031215612c81578081fd5b5035919050565b600080600080600060a08688031215612c9f578283fd5b855194506020860151935060408601519250606086015191506080860151612cc681613219565b809150509295509295909350565b600060208284031215612ce5578081fd5b81357fffffffff000000000000000000000000000000000000000000000000000000008116811461248b578182fd5b600060208284031215612d25578081fd5b813567ffffffffffffffff811115612d3b578182fd5b611bf58482850161292b565b600060208284031215612d58578081fd5b815167ffffffffffffffff811115612d6e578182fd5b611bf584828501612977565b6000815180845260208085019450808401835b83811015612da957815187529582019590820190600101612d8d565b509495945050505050565b60008151808452612dcc816020860160208601613156565b601f01601f19169290920160200192915050565b60008482528351612df8816020850160208801613156565b60209201918201929092526040019392505050565b60006001600160a01b03808916835280881660208401525060c06040830152612e3960c0830187612d7a565b8281036060840152612e4b8187612d7a565b90508281036080840152612e5f8186612d7a565b905082810360a0840152611de68185612db4565b60006001600160a01b03808916835280881660208401525085604083015284606083015283608083015260c060a0830152612eb160c0830184612db4565b98975050505050505050565b60006001600160a01b038416825260406020830152611bf56040830184612db4565b60006001600160a01b038716825285602083015284604083015283606083015260a06080830152612f1360a0830184612db4565b979650505050505050565b604051601f8201601f1916810167ffffffffffffffff81118282101715612f4757612f47613203565b604052919050565b600067ffffffffffffffff821115612f6957612f69613203565b5060209081020190565b600067ffffffffffffffff821115612f8d57612f8d613203565b50601f01601f191660200190565b60008219821115612fae57612fae6131d7565b500190565b600082612fc257612fc26131ed565b500490565b600060ff831680612fda57612fda6131ed565b8060ff84160491505092915050565b80825b6001808611612ffb5750613026565b81870482111561300d5761300d6131d7565b8086161561301a57918102915b9490941c938002612fec565b94509492505050565b600061248b60001984846000826130485750600161248b565b816130555750600061248b565b816001811461306b5760028114613075576130a2565b600191505061248b565b60ff841115613086576130866131d7565b6001841b91508482111561309c5761309c6131d7565b5061248b565b5060208310610133831016604e8410600b84101617156130d5575081810a838111156130d0576130d06131d7565b61248b565b6130e28484846001612fe9565b8086048211156130f4576130f46131d7565b02949350505050565b6000816000190483118215151615613117576131176131d7565b500290565b60008282101561312e5761312e6131d7565b500390565b600060ff821660ff84168082101561314d5761314d6131d7565b90039392505050565b60005b83811015613171578181015183820152602001613159565b83811115613180576000848401525b50505050565b600060001982141561319a5761319a6131d7565b5060010190565b6000826131b0576131b06131ed565b500690565b600060ff8316806131c8576131c86131ed565b8060ff84160691505092915050565b634e487b7160e01b600052601160045260246000fd5b634e487b7160e01b600052601260045260246000fd5b634e487b7160e01b600052604160045260246000fd5b6001600160a01b0381168114610b0d57600080fdfea2646970667358221220b530522069568bc707aa4a5853549073e726116d4bf965844cd6f9d711e5727f64736f6c63430008020033",
  "devdoc": {
    "kind": "dev",
    "methods": {
      "owner()": {
        "details": "Returns the address of the current owner."
      },
      "pause()": {
        "details": "Pauses all token transfers across bridge"
      },
      "paused()": {
        "details": "Returns true if the contract is paused, and false otherwise."
      },
      "receiveMessage(bytes)": {
        "details": "This function verifies if the transaction actually happened on child chain",
        "params": {
          "inputData": "RLP encoded data of the reference tx containing following list of fields  0 - headerNumber - Checkpoint header block number containing the reference tx  1 - blockProof - Proof that the block header (in the child chain) is a leaf in the submitted merkle root  2 - blockNumber - Block number containing the reference tx on child chain  3 - blockTime - Reference tx block time  4 - txRoot - Transactions root of block  5 - receiptRoot - Receipts root of block  6 - receipt - Receipt of the reference transaction  7 - receiptProof - Merkle proof of the reference receipt  8 - branchMask - 32 bits denoting the path of receipt in merkle tree  9 - receiptLogIndex - Log Index to read from the receipt"
        }
      },
      "renounceOwnership()": {
        "details": "Leaves the contract without owner. It will not be possible to call `onlyOwner` functions anymore. Can only be called by the current owner. NOTE: Renouncing ownership will leave the contract without an owner, thereby removing any functionality that is only available to the owner."
      },
      "setTrustedForwarder(address)": {
        "details": "Change the address of the trusted forwarder for meta-TX",
        "params": {
          "trustedForwarder": "The new trustedForwarder"
        }
      },
      "transferOwnership(address)": {
        "details": "Transfers ownership of the contract to a new account (`newOwner`). Can only be called by the current owner."
      },
      "unpause()": {
        "details": "Unpauses all token transfers across bridge"
      }
    },
    "title": "LAND bridge on L1",
    "version": 1
  },
  "userdoc": {
    "kind": "user",
    "methods": {
      "receiveMessage(bytes)": {
        "notice": "receive message from  L2 to L1, validated by proof"
      }
    },
    "version": 1
  },
  "storageLayout": {
    "storage": [
      {
        "astId": 9644,
        "contract": "src/solc_0.8/polygon/root/land/LandTunnel.sol:LandTunnel",
        "label": "fxRoot",
        "offset": 0,
        "slot": "0",
        "type": "t_contract(IFxStateSender)9594"
      },
      {
        "astId": 9647,
        "contract": "src/solc_0.8/polygon/root/land/LandTunnel.sol:LandTunnel",
        "label": "checkpointManager",
        "offset": 0,
        "slot": "1",
        "type": "t_contract(ICheckpointManager)9612"
      },
      {
        "astId": 9649,
        "contract": "src/solc_0.8/polygon/root/land/LandTunnel.sol:LandTunnel",
        "label": "fxChildTunnel",
        "offset": 0,
        "slot": "2",
        "type": "t_address"
      },
      {
        "astId": 9653,
        "contract": "src/solc_0.8/polygon/root/land/LandTunnel.sol:LandTunnel",
        "label": "processedExits",
        "offset": 0,
        "slot": "3",
        "type": "t_mapping(t_bytes32,t_bool)"
      },
      {
        "astId": 29171,
        "contract": "src/solc_0.8/polygon/root/land/LandTunnel.sol:LandTunnel",
        "label": "_trustedForwarder",
        "offset": 0,
        "slot": "4",
        "type": "t_address"
      },
      {
        "astId": 389,
        "contract": "src/solc_0.8/polygon/root/land/LandTunnel.sol:LandTunnel",
        "label": "_owner",
        "offset": 0,
        "slot": "5",
        "type": "t_address"
      },
      {
        "astId": 504,
        "contract": "src/solc_0.8/polygon/root/land/LandTunnel.sol:LandTunnel",
        "label": "_paused",
        "offset": 20,
        "slot": "5",
        "type": "t_bool"
      },
      {
        "astId": 45546,
        "contract": "src/solc_0.8/polygon/root/land/LandTunnel.sol:LandTunnel",
        "label": "rootToken",
        "offset": 0,
        "slot": "6",
        "type": "t_address"
      }
    ],
    "types": {
      "t_address": {
        "encoding": "inplace",
        "label": "address",
        "numberOfBytes": "20"
      },
      "t_bool": {
        "encoding": "inplace",
        "label": "bool",
        "numberOfBytes": "1"
      },
      "t_bytes32": {
        "encoding": "inplace",
        "label": "bytes32",
        "numberOfBytes": "32"
      },
      "t_contract(ICheckpointManager)9612": {
        "encoding": "inplace",
        "label": "contract ICheckpointManager",
        "numberOfBytes": "20"
      },
      "t_contract(IFxStateSender)9594": {
        "encoding": "inplace",
        "label": "contract IFxStateSender",
        "numberOfBytes": "20"
      },
      "t_mapping(t_bytes32,t_bool)": {
        "encoding": "mapping",
        "key": "t_bytes32",
        "label": "mapping(bytes32 => bool)",
        "numberOfBytes": "32",
        "value": "t_bool"
      }
    }
  }
}