{
  "address": "0x010EdAd55018b3f6cDe8f41eb60A0C642C36d1fc",
  "abi": [
    {
      "inputs": [
        {
          "internalType": "address",
          "name": "landAddress",
          "type": "address"
        },
        {
          "internalType": "address",
          "name": "sandContractAddress",
          "type": "address"
        },
        {
          "internalType": "address",
          "name": "initialMetaTx",
          "type": "address"
        },
        {
          "internalType": "address",
          "name": "admin",
          "type": "address"
        },
        {
          "internalType": "address payable",
          "name": "initialWalletAddress",
          "type": "address"
        },
        {
          "internalType": "bytes32",
          "name": "merkleRoot",
          "type": "bytes32"
        },
        {
          "internalType": "uint256",
          "name": "expiryTime",
          "type": "uint256"
        },
        {
          "internalType": "address",
          "name": "initialSigningWallet",
          "type": "address"
        },
        {
          "internalType": "uint256",
          "name": "initialMaxCommissionRate",
          "type": "uint256"
        },
        {
          "internalType": "address",
          "name": "estate",
          "type": "address"
        },
        {
          "internalType": "address",
          "name": "asset",
          "type": "address"
        },
        {
          "internalType": "address",
          "name": "feeDistributor",
          "type": "address"
        }
      ],
      "stateMutability": "nonpayable",
      "type": "constructor"
    },
    {
      "anonymous": false,
      "inputs": [
        {
          "indexed": false,
          "internalType": "address",
          "name": "oldAdmin",
          "type": "address"
        },
        {
          "indexed": false,
          "internalType": "address",
          "name": "newAdmin",
          "type": "address"
        }
      ],
      "name": "AdminChanged",
      "type": "event"
    },
    {
      "anonymous": false,
      "inputs": [
        {
          "indexed": true,
          "internalType": "address",
          "name": "buyer",
          "type": "address"
        },
        {
          "indexed": true,
          "internalType": "address",
          "name": "to",
          "type": "address"
        },
        {
          "indexed": true,
          "internalType": "uint256",
          "name": "topCornerId",
          "type": "uint256"
        },
        {
          "indexed": false,
          "internalType": "uint256",
          "name": "size",
          "type": "uint256"
        },
        {
          "indexed": false,
          "internalType": "uint256",
          "name": "price",
          "type": "uint256"
        },
        {
          "indexed": false,
          "internalType": "address",
          "name": "token",
          "type": "address"
        },
        {
          "indexed": false,
          "internalType": "uint256",
          "name": "amountPaid",
          "type": "uint256"
        }
      ],
      "name": "LandQuadPurchased",
      "type": "event"
    },
    {
      "anonymous": false,
      "inputs": [
        {
          "indexed": false,
          "internalType": "address",
          "name": "metaTransactionProcessor",
          "type": "address"
        },
        {
          "indexed": false,
          "internalType": "bool",
          "name": "enabled",
          "type": "bool"
        }
      ],
      "name": "MetaTransactionProcessor",
      "type": "event"
    },
    {
      "anonymous": false,
      "inputs": [
        {
          "indexed": true,
          "internalType": "address",
          "name": "referrer",
          "type": "address"
        },
        {
          "indexed": true,
          "internalType": "address",
          "name": "referee",
          "type": "address"
        },
        {
          "indexed": true,
          "internalType": "address",
          "name": "token",
          "type": "address"
        },
        {
          "indexed": false,
          "internalType": "uint256",
          "name": "amount",
          "type": "uint256"
        },
        {
          "indexed": false,
          "internalType": "uint256",
          "name": "commission",
          "type": "uint256"
        },
        {
          "indexed": false,
          "internalType": "uint256",
          "name": "commissionRate",
          "type": "uint256"
        }
      ],
      "name": "ReferralUsed",
      "type": "event"
    },
    {
      "inputs": [
        {
          "internalType": "address",
          "name": "buyer",
          "type": "address"
        },
        {
          "internalType": "address",
          "name": "to",
          "type": "address"
        },
        {
          "internalType": "address",
          "name": "reserved",
          "type": "address"
        },
        {
          "internalType": "uint256",
          "name": "x",
          "type": "uint256"
        },
        {
          "internalType": "uint256",
          "name": "y",
          "type": "uint256"
        },
        {
          "internalType": "uint256",
          "name": "size",
          "type": "uint256"
        },
        {
          "internalType": "uint256",
          "name": "priceInSand",
          "type": "uint256"
        },
        {
          "internalType": "uint256",
          "name": "adjustedPriceInSand",
          "type": "uint256"
        },
        {
          "internalType": "bytes32",
          "name": "salt",
          "type": "bytes32"
        },
        {
          "internalType": "uint256[]",
          "name": "assetIds",
          "type": "uint256[]"
        },
        {
          "internalType": "bytes32[]",
          "name": "proof",
          "type": "bytes32[]"
        },
        {
          "internalType": "bytes",
          "name": "referral",
          "type": "bytes"
        }
      ],
      "name": "buyLandWithSand",
      "outputs": [],
      "stateMutability": "nonpayable",
      "type": "function"
    },
    {
      "inputs": [
        {
          "internalType": "address",
          "name": "newAdmin",
          "type": "address"
        }
      ],
      "name": "changeAdmin",
      "outputs": [],
      "stateMutability": "nonpayable",
      "type": "function"
    },
    {
      "inputs": [
        {
          "internalType": "bytes",
          "name": "referral",
          "type": "bytes"
        }
      ],
      "name": "decodeReferral",
      "outputs": [
        {
          "internalType": "bytes",
          "name": "",
          "type": "bytes"
        },
        {
          "internalType": "address",
          "name": "",
          "type": "address"
        },
        {
          "internalType": "address",
          "name": "",
          "type": "address"
        },
        {
          "internalType": "uint256",
          "name": "",
          "type": "uint256"
        },
        {
          "internalType": "uint256",
          "name": "",
          "type": "uint256"
        }
      ],
      "stateMutability": "pure",
      "type": "function"
    },
    {
      "inputs": [],
      "name": "getAdmin",
      "outputs": [
        {
          "internalType": "address",
          "name": "",
          "type": "address"
        }
      ],
      "stateMutability": "view",
      "type": "function"
    },
    {
      "inputs": [],
      "name": "getExpiryTime",
      "outputs": [
        {
          "internalType": "uint256",
          "name": "",
          "type": "uint256"
        }
      ],
      "stateMutability": "view",
      "type": "function"
    },
    {
      "inputs": [],
      "name": "getMaxCommisionRate",
      "outputs": [
        {
          "internalType": "uint256",
          "name": "",
          "type": "uint256"
        }
      ],
      "stateMutability": "view",
      "type": "function"
    },
    {
      "inputs": [],
      "name": "getMerkleRoot",
      "outputs": [
        {
          "internalType": "bytes32",
          "name": "",
          "type": "bytes32"
        }
      ],
      "stateMutability": "view",
      "type": "function"
    },
    {
      "inputs": [],
      "name": "getSandMultiplier",
      "outputs": [
        {
          "internalType": "uint256",
          "name": "",
          "type": "uint256"
        }
      ],
      "stateMutability": "view",
      "type": "function"
    },
    {
      "inputs": [],
      "name": "getSigningWallet",
      "outputs": [
        {
          "internalType": "address",
          "name": "",
          "type": "address"
        }
      ],
      "stateMutability": "view",
      "type": "function"
    },
    {
      "inputs": [
        {
          "internalType": "address",
          "name": "who",
          "type": "address"
        }
      ],
      "name": "isMetaTransactionProcessor",
      "outputs": [
        {
          "internalType": "bool",
          "name": "",
          "type": "bool"
        }
      ],
      "stateMutability": "view",
      "type": "function"
    },
    {
      "inputs": [
        {
          "internalType": "bytes",
          "name": "signature",
          "type": "bytes"
        },
        {
          "internalType": "address",
          "name": "referrer",
          "type": "address"
        },
        {
          "internalType": "address",
          "name": "referee",
          "type": "address"
        },
        {
          "internalType": "uint256",
          "name": "expiryTime",
          "type": "uint256"
        },
        {
          "internalType": "uint256",
          "name": "commissionRate",
          "type": "uint256"
        }
      ],
      "name": "isReferralValid",
      "outputs": [
        {
          "internalType": "bool",
          "name": "",
          "type": "bool"
        }
      ],
      "stateMutability": "view",
      "type": "function"
    },
    {
      "inputs": [
        {
          "internalType": "address",
          "name": "",
          "type": "address"
        },
        {
          "internalType": "address",
          "name": "",
          "type": "address"
        },
        {
          "internalType": "uint256[]",
          "name": "",
          "type": "uint256[]"
        },
        {
          "internalType": "uint256[]",
          "name": "",
          "type": "uint256[]"
        },
        {
          "internalType": "bytes",
          "name": "",
          "type": "bytes"
        }
      ],
      "name": "onERC1155BatchReceived",
      "outputs": [
        {
          "internalType": "bytes4",
          "name": "",
          "type": "bytes4"
        }
      ],
      "stateMutability": "pure",
      "type": "function"
    },
    {
      "inputs": [
        {
          "internalType": "address",
          "name": "",
          "type": "address"
        },
        {
          "internalType": "address",
          "name": "",
          "type": "address"
        },
        {
          "internalType": "uint256",
          "name": "",
          "type": "uint256"
        },
        {
          "internalType": "uint256",
          "name": "",
          "type": "uint256"
        },
        {
          "internalType": "bytes",
          "name": "",
          "type": "bytes"
        }
      ],
      "name": "onERC1155Received",
      "outputs": [
        {
          "internalType": "bytes4",
          "name": "",
          "type": "bytes4"
        }
      ],
      "stateMutability": "pure",
      "type": "function"
    },
    {
      "inputs": [
        {
          "internalType": "uint256",
          "name": "newMultiplier",
          "type": "uint256"
        }
      ],
      "name": "rebalanceSand",
      "outputs": [],
      "stateMutability": "nonpayable",
      "type": "function"
    },
    {
      "inputs": [
        {
          "internalType": "address",
          "name": "metaTransactionProcessor",
          "type": "address"
        },
        {
          "internalType": "bool",
          "name": "enabled",
          "type": "bool"
        }
      ],
      "name": "setMetaTransactionProcessor",
      "outputs": [],
      "stateMutability": "nonpayable",
      "type": "function"
    },
    {
      "inputs": [
        {
          "internalType": "address payable",
          "name": "newWallet",
          "type": "address"
        }
      ],
      "name": "setReceivingWallet",
      "outputs": [],
      "stateMutability": "nonpayable",
      "type": "function"
    },
    {
      "inputs": [
        {
          "internalType": "uint256",
          "name": "newMaxCommissionRate",
          "type": "uint256"
        }
      ],
      "name": "updateMaxCommissionRate",
      "outputs": [],
      "stateMutability": "nonpayable",
      "type": "function"
    },
    {
      "inputs": [
        {
          "internalType": "address",
          "name": "newSigningWallet",
          "type": "address"
        }
      ],
      "name": "updateSigningWallet",
      "outputs": [],
      "stateMutability": "nonpayable",
      "type": "function"
    },
    {
      "inputs": [
        {
          "internalType": "address",
          "name": "to",
          "type": "address"
        },
        {
          "internalType": "uint256[]",
          "name": "assetIds",
          "type": "uint256[]"
        },
        {
          "internalType": "uint256[]",
          "name": "values",
          "type": "uint256[]"
        }
      ],
      "name": "withdrawAssets",
      "outputs": [],
      "stateMutability": "nonpayable",
      "type": "function"
    }
  ],
  "transactionHash": "0xabc5a09c5085b40711a13e85f7f32b15e947a47a469645862d53127192f87543",
  "args": [
    "0x85F817921665fF27b5F3265b3B0b1B19402ed270",
    "0xccBF2aA6b762ed5fd6e2d819Ce16cBA9A32e793B",
    "0xccBF2aA6b762ed5fd6e2d819Ce16cBA9A32e793B",
    "0x39D01ecc951C2c1f20ba0549e62212659c4d1e06",
    "0xF22455c7F2a81E197AecD951F588a9B650f5b282",
    "0xd9943e33d97671ba85e4be57d44d0a4adf41acd4600307e9b2203393a1a4ed2c",
    1659099600,
    "0xB7060D3FeCAC3AE1F0A0AA416E3e8E472257950e",
    2000,
    "0x0000000000000000000000000000000000000000",
    "0x6736fB8067a9C2d109A68264C83Da4b5FF770230",
    "0x0977f5050c8158b277F93216f851e83a467ED9c9"
  ],
  "linkedData": [
    {
      "x": 212,
      "y": 402,
      "size": 1,
      "price": "1011000000000000000000",
      "reserved": "0x7a9fe22691c811ea339d9b73150e6911a5343dca",
      "salt": "0x21814691a1c6fb0969db54237fa8029deb946b8d9603645024c769a837298f55",
      "assetIds": []
    },
    {
      "x": 212,
      "y": 403,
      "size": 1,
      "price": "1011000000000000000000",
      "reserved": "",
      "salt": "0xf53b3956e5b7c033f8c74bdfc7b20e2e5cd7abda5678a9800449394b2e1dbc66",
      "assetIds": []
    },
    {
      "x": 212,
      "y": 404,
      "size": 1,
      "price": "1011000000000000000000",
      "reserved": "",
      "salt": "0x7ad9e9a3a5be082a3b7d473eff103d57dce799f62c4bc0f8f178218dcfb95f73",
      "assetIds": []
    },
    {
      "x": 212,
      "y": 405,
      "size": 1,
      "price": "1011000000000000000000",
      "reserved": "",
      "salt": "0x2bd953fc4126541394808711f1dd7d49a07703ed508d18d0dbbad268aeed03b3",
      "assetIds": []
    },
    {
      "x": 212,
      "y": 406,
      "size": 1,
      "price": "1011000000000000000000",
      "reserved": "",
      "salt": "0xc95e760e80b08c0be4421c1fba8f76e58a7f1ac64968868d5c12e5db7ecc9abd",
      "assetIds": []
    },
    {
      "x": 212,
      "y": 407,
      "size": 1,
      "price": "1011000000000000000000",
      "reserved": "",
      "salt": "0x6768b2a3bab8deba13152b283380451681d0ff8c3f7b838bc195d533e8e3a2c4",
      "assetIds": []
    },
    {
      "x": 213,
      "y": 401,
      "size": 1,
      "price": "1011000000000000000000",
      "reserved": "",
      "salt": "0xc65f34f9e546afea46fa8a413e81516ddfccd3fc961cf2020c1c56a912f38aef",
      "assetIds": []
    },
    {
      "x": 213,
      "y": 402,
      "size": 1,
      "price": "1011000000000000000000",
      "reserved": "",
      "salt": "0x6f541ab0dc3bc449e0eb44ec24fdbaa33626e95ec609eacd23f383e380ffd00e",
      "assetIds": []
    },
    {
      "x": 213,
      "y": 403,
      "size": 1,
      "price": "1011000000000000000000",
      "reserved": "",
      "salt": "0x1b4f6e4634507994d147efb25ba6cfc58cff8944cc493d2e6923d128cc1cc2b2",
      "assetIds": []
    },
    {
      "x": 213,
      "y": 404,
      "size": 1,
      "price": "1011000000000000000000",
      "reserved": "",
      "salt": "0x658bbcf498d182b51dcd7edc4a6289fcf248d98da4b485041c81694ec5f41024",
      "assetIds": []
    },
    {
      "x": 213,
      "y": 405,
      "size": 1,
      "price": "1011000000000000000000",
      "reserved": "",
      "salt": "0x5691d92c6aef49501ef3f5d1a9f4ebb75f53cde7560d2c4be5c12cb018fc9075",
      "assetIds": []
    },
    {
      "x": 213,
      "y": 406,
      "size": 1,
      "price": "1011000000000000000000",
      "reserved": "",
      "salt": "0x8d869e750ee3d5548cb42d2f0b881cdbedd79ee130030f95c73ab5b37b33686c",
      "assetIds": []
    },
    {
      "x": 213,
      "y": 407,
      "size": 1,
      "price": "1011000000000000000000",
      "reserved": "0x7a9fe22691c811ea339d9b73150e6911a5343dca",
      "salt": "0xbac7575fa586688ac90d0d51ae5f05e3a3a0f2d5745ea869384c195429c3e092",
      "assetIds": []
    },
    {
      "x": 214,
      "y": 400,
      "size": 1,
      "price": "1011000000000000000000",
      "reserved": "",
      "salt": "0x476a8a270c97c2a327a81f15dda3a9d506f5c12e8c582040dbcf75bbe25c88ad",
      "assetIds": []
    },
    {
      "x": 214,
      "y": 401,
      "size": 1,
      "price": "1011000000000000000000",
      "reserved": "",
      "salt": "0x238f1ca4b9bc036e70a10c0aa20de3cc44b9f98218e3125c31620e2dd8d334a0",
      "assetIds": []
    },
    {
      "x": 214,
      "y": 402,
      "size": 1,
      "price": "1011000000000000000000",
      "reserved": "",
      "salt": "0x6b16043dcb33f97e2a6a211f30979e721d7b1e76b7008a2e4e877f49010db30c",
      "assetIds": []
    },
    {
      "x": 214,
      "y": 403,
      "size": 1,
      "price": "1011000000000000000000",
      "reserved": "",
      "salt": "0x8edfbfa1c476e904a2f2801d2ee27a7009eeecce90204a52d16b881af5bfa9fd",
      "assetIds": []
    },
    {
      "x": 214,
      "y": 404,
      "size": 1,
      "price": "1011000000000000000000",
      "reserved": "",
      "salt": "0x244181e80af52ef95ea5ec314836a249d1f5773c03ca50b9f704fb8f78dd77ba",
      "assetIds": []
    },
    {
      "x": 214,
      "y": 405,
      "size": 1,
      "price": "1011000000000000000000",
      "reserved": "",
      "salt": "0x31a5f200c02c6c5c6430834b42c6cd88c61d8f5d2ff26e68e8a24c8b5bc1b2ad",
      "assetIds": []
    },
    {
      "x": 214,
      "y": 406,
      "size": 1,
      "price": "1011000000000000000000",
      "reserved": "",
      "salt": "0xb41117194cd359563c414848fb9561adbb6ee8cb6b6e8814aeaa408f24158f46",
      "assetIds": []
    },
    {
      "x": 214,
      "y": 407,
      "size": 1,
      "price": "1011000000000000000000",
      "reserved": "",
      "salt": "0xd9c07a4575bec06f7872c666512dba8186401c9b46ff551975362c030c7065bf",
      "assetIds": []
    },
    {
      "x": 215,
      "y": 400,
      "size": 1,
      "price": "1011000000000000000000",
      "reserved": "",
      "salt": "0xc6d280ad17e5ca77693568bc0f2971019e7ec0c777824a2e2b65f3aa24bb8de0",
      "assetIds": []
    },
    {
      "x": 215,
      "y": 401,
      "size": 1,
      "price": "1011000000000000000000",
      "reserved": "",
      "salt": "0x5470c47f04b9497ce000e81475186e150a2a3700c7b40b611854c42a0e8df162",
      "assetIds": []
    },
    {
      "x": 215,
      "y": 402,
      "size": 1,
      "price": "1011000000000000000000",
      "reserved": "",
      "salt": "0x58a5f5867a9d29734165bc3c819c8f84bd8528ec08f3544d51702c8fdd536ec8",
      "assetIds": []
    },
    {
      "x": 215,
      "y": 403,
      "size": 1,
      "price": "1011000000000000000000",
      "reserved": "",
      "salt": "0x53c29f455181d9952cc9a5dd641fbffc5f0e6d1baf432391a757bc41d86199a2",
      "assetIds": []
    },
    {
      "x": 215,
      "y": 404,
      "size": 1,
      "price": "1011000000000000000000",
      "reserved": "",
      "salt": "0xf4fa71249c9bf694ac7c3fa3e8c077b0f4ccb370d8643293f1ffee4638aa6f96",
      "assetIds": []
    },
    {
      "x": 215,
      "y": 405,
      "size": 1,
      "price": "1011000000000000000000",
      "reserved": "0x7a9fe22691c811ea339d9b73150e6911a5343dca",
      "salt": "0xde74d982c9a7a5c4fe652ae3742a3498610b6ad7c08284222c1b1b93a7499100",
      "assetIds": []
    },
    {
      "x": 215,
      "y": 406,
      "size": 1,
      "price": "1011000000000000000000",
      "reserved": "",
      "salt": "0x45254fdca26f98fd08f02a75dc5b8d31997917054751fd67cc587f129af765c2",
      "assetIds": []
    },
    {
      "x": 215,
      "y": 407,
      "size": 1,
      "price": "1011000000000000000000",
      "reserved": "",
      "salt": "0xb08a6dee05a167a61a0091fbd0a8233dc6c92e598c8a98c9738e80a743472b34",
      "assetIds": []
    },
    {
      "x": 216,
      "y": 400,
      "size": 1,
      "price": "1011000000000000000000",
      "reserved": "",
      "salt": "0xf009f2ac85c6f8f286952c33bbed7c7543d8f2908550b9efb188be76a9e654b6",
      "assetIds": []
    },
    {
      "x": 216,
      "y": 401,
      "size": 1,
      "price": "1011000000000000000000",
      "reserved": "",
      "salt": "0x802aa39864502508f00fee06d201e834fdf4b3cc1927bdcec4874f883dea20fd",
      "assetIds": []
    },
    {
      "x": 216,
      "y": 402,
      "size": 1,
      "price": "1011000000000000000000",
      "reserved": "",
      "salt": "0x87245fb396eaac04e997b128e913b4e51ef6f75d23538feb7fb7ff058576160c",
      "assetIds": []
    },
    {
      "x": 216,
      "y": 403,
      "size": 1,
      "price": "1011000000000000000000",
      "reserved": "",
      "salt": "0xba61dd39e4822c71c02813e6390e12332b5c03569e2e875ae803ea65593ad52b",
      "assetIds": []
    },
    {
      "x": 216,
      "y": 404,
      "size": 1,
      "price": "1011000000000000000000",
      "reserved": "",
      "salt": "0x1eef562238bce68d2206430e46a2bf1ba5fcc1c3a164dbd96e79802a793378b9",
      "assetIds": []
    },
    {
      "x": 216,
      "y": 405,
      "size": 1,
      "price": "1011000000000000000000",
      "reserved": "",
      "salt": "0x44a286de9f466111d3e59feadad1f938384a38c6da175380b28d05dfa38d1de2",
      "assetIds": []
    },
    {
      "x": 216,
      "y": 406,
      "size": 1,
      "price": "1011000000000000000000",
      "reserved": "",
      "salt": "0x943af01204177e0990b37e055b5441935c903be0e84cb5291f932096282a96be",
      "assetIds": []
    },
    {
      "x": 216,
      "y": 407,
      "size": 1,
      "price": "1011000000000000000000",
      "reserved": "",
      "salt": "0xb3cb94c5656a6a93d1796e9e047a446ac9ee54024d5bfcb17291548b4b00fc32",
      "assetIds": []
    },
    {
      "x": 217,
      "y": 400,
      "size": 1,
      "price": "1011000000000000000000",
      "reserved": "",
      "salt": "0x6f84a592585149cf350e89891ba917aa38d505c19b203655df739a2ff20eea7c",
      "assetIds": []
    },
    {
      "x": 217,
      "y": 401,
      "size": 1,
      "price": "1011000000000000000000",
      "reserved": "",
      "salt": "0xc400f96fe9efbe5f850648632ea83366ea817db98aa700e6e40dd7e64be66452",
      "assetIds": []
    },
    {
      "x": 217,
      "y": 402,
      "size": 1,
      "price": "1011000000000000000000",
      "reserved": "",
      "salt": "0xfb0fe134205ceb641bc933eaddfe40a70c89bcc6814c2d2fd88e2ffc645be241",
      "assetIds": []
    },
    {
      "x": 217,
      "y": 403,
      "size": 1,
      "price": "1011000000000000000000",
      "reserved": "",
      "salt": "0x34fba370213b95272c4e144fca1eba67ce78423e0bbea6dc13453ec5ac0d4d09",
      "assetIds": []
    },
    {
      "x": 217,
      "y": 404,
      "size": 1,
      "price": "1011000000000000000000",
      "reserved": "",
      "salt": "0x3f9b9c34c2b294d2056db32a64787e25bd8ad59d33051aacda33d72ce15fc998",
      "assetIds": []
    },
    {
      "x": 217,
      "y": 405,
      "size": 1,
      "price": "1011000000000000000000",
      "reserved": "",
      "salt": "0xd8c92bef166195170e2e689064b0c79f0d31e6d51d886e3bb676e1d34bcb2abf",
      "assetIds": []
    },
    {
      "x": 217,
      "y": 406,
      "size": 1,
      "price": "1011000000000000000000",
      "reserved": "",
      "salt": "0xa0a93bba34eaf540a36f7b16415a1cfe9740e07caadaf929f64648ae09ae201c",
      "assetIds": []
    },
    {
      "x": 217,
      "y": 407,
      "size": 1,
      "price": "1011000000000000000000",
      "reserved": "",
      "salt": "0x578fa8c847cb871134e1bce9d9ef4da7a6361675f3ca288a170c4c8d8c39004e",
      "assetIds": []
    },
    {
      "x": 218,
      "y": 400,
      "size": 1,
      "price": "1011000000000000000000",
      "reserved": "",
      "salt": "0x1ccca60111183b7c037710cfb5759c6dbae99714dce4c6fd76d76c56e19264ce",
      "assetIds": []
    },
    {
      "x": 218,
      "y": 401,
      "size": 1,
      "price": "1011000000000000000000",
      "reserved": "",
      "salt": "0xcb43e37f7adf65a7c32a02a2628232db5baddb67d0cc5d9ecd7243af5ff2d8a1",
      "assetIds": []
    },
    {
      "x": 218,
      "y": 402,
      "size": 1,
      "price": "1011000000000000000000",
      "reserved": "",
      "salt": "0xdfcf0203f53df98405d78684d777cf2282e6b4deabd01eaff492bfc41feac3fb",
      "assetIds": []
    },
    {
      "x": 218,
      "y": 403,
      "size": 1,
      "price": "1011000000000000000000",
      "reserved": "",
      "salt": "0x773a5fc9b69bfd982d87a1d4cae821d6a72056c1326c070b9548afde9be7ec12",
      "assetIds": []
    },
    {
      "x": 218,
      "y": 404,
      "size": 1,
      "price": "1011000000000000000000",
      "reserved": "",
      "salt": "0xed66b105152891410731b2c8c6ebde9b6501b60b3a96fb822899623f9aec804e",
      "assetIds": []
    },
    {
      "x": 218,
      "y": 405,
      "size": 1,
      "price": "1011000000000000000000",
      "reserved": "",
      "salt": "0x67a3a95d2be902df59b322ea07d0b35096fb04296657fefb5afacb784736a8a2",
      "assetIds": []
    },
    {
      "x": 218,
      "y": 406,
      "size": 1,
      "price": "1011000000000000000000",
      "reserved": "",
      "salt": "0xd016220ade84c557dd40b5bc377a73bad5fd229a17bf24a2cd2345ccd1701adf",
      "assetIds": []
    },
    {
      "x": 218,
      "y": 407,
      "size": 1,
      "price": "1011000000000000000000",
      "reserved": "0x7a9fe22691c811ea339d9b73150e6911a5343dca",
      "salt": "0x181250b02615aec2514df515e1a916a3d754d8af1e5010308cf681ff12e7ea3b",
      "assetIds": []
    },
    {
      "x": 219,
      "y": 400,
      "size": 1,
      "price": "1011000000000000000000",
      "reserved": "0x7a9fe22691c811ea339d9b73150e6911a5343dca",
      "salt": "0xe5cc2b5d0bb9fb01dd1640fa9f5b1be13d2c0bc879325fa9d6caadbbee5c0ef7",
      "assetIds": []
    },
    {
      "x": 219,
      "y": 401,
      "size": 1,
      "price": "1011000000000000000000",
      "reserved": "",
      "salt": "0x782f16f075a3bc6fd0af0d06b3cc59ed52f358d3b06ed4935c8d14c77b79fbf5",
      "assetIds": []
    },
    {
      "x": 219,
      "y": 402,
      "size": 1,
      "price": "1011000000000000000000",
      "reserved": "",
      "salt": "0xbc04e27ca67f5c6d189eb65061691e15f9ce3827c9cfb1fbdfbbc3acd27a9ce4",
      "assetIds": []
    },
    {
      "x": 219,
      "y": 403,
      "size": 1,
      "price": "1011000000000000000000",
      "reserved": "",
      "salt": "0x16012684a5c1512463eb0adb1e1923bf8e1ec85a2f5be781b72367cbdd8e2630",
      "assetIds": []
    },
    {
      "x": 219,
      "y": 404,
      "size": 1,
      "price": "1011000000000000000000",
      "reserved": "",
      "salt": "0xc06ebacdd6543e4cfb5af2dd1e6a7f3e00e74b08968ba47c6a125ce77c187c20",
      "assetIds": []
    },
    {
      "x": 219,
      "y": 405,
      "size": 1,
      "price": "1011000000000000000000",
      "reserved": "",
      "salt": "0x4c972280d3cacf9691aaec255ed71491c3118ea30f490aba2e2c0d57b359c0bc",
      "assetIds": []
    },
    {
      "x": 219,
      "y": 406,
      "size": 1,
      "price": "1011000000000000000000",
      "reserved": "",
      "salt": "0x30bf1b4c34f2eb1236f1703b269526d108fc3b611b97b539d39d82d193a44727",
      "assetIds": []
    },
    {
      "x": 219,
      "y": 407,
      "size": 1,
      "price": "1011000000000000000000",
      "reserved": "",
      "salt": "0x17c3e64b6023ac911eea78bdd956408f0d6033524d4efd0e027f6b9742252f0b",
      "assetIds": []
    },
    {
      "x": 220,
      "y": 393,
      "size": 1,
      "price": "1011000000000000000000",
      "reserved": "0x7a9fe22691c811ea339d9b73150e6911a5343dca",
      "salt": "0x7b947f2dac0447485943ddb785a30d9dc72ced7c743624e76e7e2b61c51c2a00",
      "assetIds": []
    },
    {
      "x": 220,
      "y": 394,
      "size": 1,
      "price": "1011000000000000000000",
      "reserved": "",
      "salt": "0x34aefc59c201e4f065782476afc902e69b8b8301bd0d83cf6827b51511654593",
      "assetIds": []
    },
    {
      "x": 220,
      "y": 395,
      "size": 1,
      "price": "1011000000000000000000",
      "reserved": "",
      "salt": "0x246ed4f989570308d2ad187022e4a7433e4316c0af129f13de1596fa6218d96c",
      "assetIds": []
    },
    {
      "x": 220,
      "y": 396,
      "size": 1,
      "price": "1011000000000000000000",
      "reserved": "",
      "salt": "0x89e757bca1e598ddd93dc89cfeabbb81ec6710a122d07659c60323cf680538ae",
      "assetIds": []
    },
    {
      "x": 220,
      "y": 397,
      "size": 1,
      "price": "1011000000000000000000",
      "reserved": "",
      "salt": "0xcf74857fa97b4f47b220177f928766396d6213827a16a27a592cda8cda40b556",
      "assetIds": []
    },
    {
      "x": 220,
      "y": 398,
      "size": 1,
      "price": "1011000000000000000000",
      "reserved": "",
      "salt": "0x616f2dbc6fa914f76f62ea24ace424a867a9cff20f4ff07f89cf51f799909805",
      "assetIds": []
    },
    {
      "x": 220,
      "y": 399,
      "size": 1,
      "price": "1011000000000000000000",
      "reserved": "",
      "salt": "0x164d7855049eb12abecefb7cf4617234788f1fb1e683b4c4ab63a187e3b4a98e",
      "assetIds": []
    },
    {
      "x": 220,
      "y": 400,
      "size": 1,
      "price": "1011000000000000000000",
      "reserved": "",
      "salt": "0x78b9c754cb345158fa31de220570da66efaf8662d4b69858b4b481f2238f1016",
      "assetIds": []
    },
    {
      "x": 220,
      "y": 401,
      "size": 1,
      "price": "1011000000000000000000",
      "reserved": "",
      "salt": "0x52a8c2873ef97466c6be6d46f734aaec4ca212202cbfe923007fac2c790aad88",
      "assetIds": []
    },
    {
      "x": 220,
      "y": 402,
      "size": 1,
      "price": "1011000000000000000000",
      "reserved": "",
      "salt": "0xbbd2d19eeb3157a7b01ecec1ca8dc42fdbe471583f59759327c2bb93d8198aa8",
      "assetIds": []
    },
    {
      "x": 220,
      "y": 403,
      "size": 1,
      "price": "1011000000000000000000",
      "reserved": "0x7a9fe22691c811ea339d9b73150e6911a5343dca",
      "salt": "0x07a19223e7fc1f16c2ef6930d04e38af2d984475122d2bd3566019b85b52bcda",
      "assetIds": []
    },
    {
      "x": 220,
      "y": 404,
      "size": 1,
      "price": "1011000000000000000000",
      "reserved": "",
      "salt": "0x8cf5047848ab9c360f4ce48e3c7ff65c07b19ccbfc1cfd731ed46f932beb91ca",
      "assetIds": []
    },
    {
      "x": 220,
      "y": 405,
      "size": 1,
      "price": "1011000000000000000000",
      "reserved": "",
      "salt": "0x5129743975142f02981a7c234cff48395471c29447c8906d1baa915996483849",
      "assetIds": []
    },
    {
      "x": 220,
      "y": 406,
      "size": 1,
      "price": "1011000000000000000000",
      "reserved": "",
      "salt": "0xbfa7ffddcb9001f9197a864ccd6505bd8bff7aac7098f9b8ae1903a62e5265f6",
      "assetIds": []
    },
    {
      "x": 220,
      "y": 407,
      "size": 1,
      "price": "1011000000000000000000",
      "reserved": "",
      "salt": "0xd4359f6938c460d6e71358acc9bf487ab22f7554b745c4dbcb92ff998fada068",
      "assetIds": []
    },
    {
      "x": 221,
      "y": 392,
      "size": 1,
      "price": "1011000000000000000000",
      "reserved": "0x7a9fe22691c811ea339d9b73150e6911a5343dca",
      "salt": "0x46c37836665e3db67c281c49a990ea2d44965681753383110c81c8db64aa37b3",
      "assetIds": []
    },
    {
      "x": 221,
      "y": 393,
      "size": 1,
      "price": "1011000000000000000000",
      "reserved": "",
      "salt": "0x948bc60689cb5e27bdc969e80a7ff34bc583d3cedd00074546a7181437387af7",
      "assetIds": []
    },
    {
      "x": 221,
      "y": 394,
      "size": 1,
      "price": "1011000000000000000000",
      "reserved": "",
      "salt": "0xcdb6645842740a37b5cfbfb12833f2be7cf9da73f0c9d0d0bf67f536838074f4",
      "assetIds": []
    },
    {
      "x": 221,
      "y": 395,
      "size": 1,
      "price": "1011000000000000000000",
      "reserved": "",
      "salt": "0xc50b0fbf80b93a3a247ca512724efd4d18e8b49960247914e9c96fdcde48298c",
      "assetIds": []
    },
    {
      "x": 221,
      "y": 396,
      "size": 1,
      "price": "1011000000000000000000",
      "reserved": "",
      "salt": "0xafd6d9b8b7b4a1a2ebadfa488a47d83763e85029ca4dd60c13175ea533d58883",
      "assetIds": []
    },
    {
      "x": 221,
      "y": 397,
      "size": 1,
      "price": "1011000000000000000000",
      "reserved": "",
      "salt": "0x55aac8de3aedf4ae4d773f548ec4205eeb335e9afc0ff11ef3abc051bb762280",
      "assetIds": []
    },
    {
      "x": 221,
      "y": 398,
      "size": 1,
      "price": "1011000000000000000000",
      "reserved": "",
      "salt": "0xa327c6b977544a48a2051f79cb381a80b75e3bb05d9c98a87f7395c71eade543",
      "assetIds": []
    },
    {
      "x": 221,
      "y": 399,
      "size": 1,
      "price": "1011000000000000000000",
      "reserved": "0x7a9fe22691c811ea339d9b73150e6911a5343dca",
      "salt": "0xcf1c312e353c4b697ed62441cb7e6a319ba380856b2a03e7c10094cb920ce406",
      "assetIds": []
    },
    {
      "x": 221,
      "y": 400,
      "size": 1,
      "price": "1011000000000000000000",
      "reserved": "",
      "salt": "0x374c07e2e89ac20660db242fcec54e9ad6ca729ebd2e38325f37ebfd9333dbb6",
      "assetIds": []
    },
    {
      "x": 221,
      "y": 401,
      "size": 1,
      "price": "1011000000000000000000",
      "reserved": "",
      "salt": "0x868d6ad7f89fd177cb16cdbf09c83b81e7bf9ee209ca2e58560d19b66d818349",
      "assetIds": []
    },
    {
      "x": 221,
      "y": 402,
      "size": 1,
      "price": "1011000000000000000000",
      "reserved": "",
      "salt": "0x92edcc8ae92d69db9564af69ade2afdee752cc22a16497af2c7dc8e7fa21a769",
      "assetIds": []
    },
    {
      "x": 221,
      "y": 403,
      "size": 1,
      "price": "1011000000000000000000",
      "reserved": "0x7a9fe22691c811ea339d9b73150e6911a5343dca",
      "salt": "0xc77f01f6f257edb882185f3ebf68b60ac8fb07d668e896c7d4734f8bfaf9e925",
      "assetIds": []
    },
    {
      "x": 221,
      "y": 404,
      "size": 1,
      "price": "1011000000000000000000",
      "reserved": "",
      "salt": "0x13d2ae6a595b55d5da7a38dd30c465a3a8a9244c9660c4d29c81debd12f155f2",
      "assetIds": []
    },
    {
      "x": 221,
      "y": 405,
      "size": 1,
      "price": "1011000000000000000000",
      "reserved": "",
      "salt": "0x08bdf9690e3a13fd476c77b0fc237f5de2a1a6a60fefa53eb424efc732e6ac22",
      "assetIds": []
    },
    {
      "x": 221,
      "y": 406,
      "size": 1,
      "price": "1011000000000000000000",
      "reserved": "0x7a9fe22691c811ea339d9b73150e6911a5343dca",
      "salt": "0x3e7a9065fad6e12cb6aedc0bc27ade9fd43c1a357a05a74ae45e4d997e4cecbd",
      "assetIds": []
    },
    {
      "x": 221,
      "y": 407,
      "size": 1,
      "price": "1011000000000000000000",
      "reserved": "",
      "salt": "0xd7018a96e517cae29da02203edb76bdf7aec4e230a5063e6eb7e972dca525f3a",
      "assetIds": []
    },
    {
      "x": 222,
      "y": 392,
      "size": 1,
      "price": "1011000000000000000000",
      "reserved": "",
      "salt": "0xb0a3ea95f049ef3702370e0efbeaa86e0bccf86f9da0a1f1343895e486618f15",
      "assetIds": []
    },
    {
      "x": 222,
      "y": 393,
      "size": 1,
      "price": "1011000000000000000000",
      "reserved": "0x7a9fe22691c811ea339d9b73150e6911a5343dca",
      "salt": "0x4dd845f94986e84bbf0b8739f024c5865fab59c5790ce14bb408cbd48f55fa37",
      "assetIds": []
    },
    {
      "x": 222,
      "y": 394,
      "size": 1,
      "price": "4683000000000000000000",
      "reserved": "",
      "salt": "0x4388a645063b7ca98b695d799e4e9aa7e60cedc3b7355ccc6980331f3a47cc92",
      "assetIds": [
        "41506478881403507969696680653240014914910929820314476107906210059990541021186"
      ]
    },
    {
      "x": 222,
      "y": 395,
      "size": 1,
      "price": "4683000000000000000000",
      "reserved": "",
      "salt": "0xb9bfca3385ff0f1c4fa80a7b9410d7dce8f8979b447eaaeadf7718631792c15d",
      "assetIds": [
        "41506478881403507969696680653240014914910929820314476107906210059990541021186"
      ]
    },
    {
      "x": 222,
      "y": 402,
      "size": 1,
      "price": "1011000000000000000000",
      "reserved": "",
      "salt": "0x112373b33c05e442a4a5420f88bae96d20f30a578a9392413bbe702de71be55c",
      "assetIds": []
    },
    {
      "x": 222,
      "y": 403,
      "size": 1,
      "price": "1011000000000000000000",
      "reserved": "",
      "salt": "0x0662a496103f5002b45f810f033e94b356c85f360280f2c458e48cd48241fdca",
      "assetIds": []
    },
    {
      "x": 222,
      "y": 404,
      "size": 1,
      "price": "1011000000000000000000",
      "reserved": "",
      "salt": "0x9e1a0e5ae85b8e947b5d25127ba9c870c78cf9687eff01911003dfbb70a95e9e",
      "assetIds": []
    },
    {
      "x": 222,
      "y": 405,
      "size": 1,
      "price": "1011000000000000000000",
      "reserved": "",
      "salt": "0xade50d195fb31cafdbc21b065e96701ffba1b6ed22d8775687708d7402df290a",
      "assetIds": []
    },
    {
      "x": 222,
      "y": 406,
      "size": 1,
      "price": "1011000000000000000000",
      "reserved": "",
      "salt": "0x8eed1e5b074ce2a651024747c423f1b7e26cdbe69ae36448b8ace49bc6642612",
      "assetIds": []
    },
    {
      "x": 222,
      "y": 407,
      "size": 1,
      "price": "1011000000000000000000",
      "reserved": "0x7a9fe22691c811ea339d9b73150e6911a5343dca",
      "salt": "0x53c09c1f5ddc46d8e184c3494c8078a3760a111225a37ff443a688158c63d3da",
      "assetIds": []
    },
    {
      "x": 223,
      "y": 392,
      "size": 1,
      "price": "1011000000000000000000",
      "reserved": "",
      "salt": "0xc4dd3102a9c4f71db9cf4c045d5cc180140ad83096188ac20a1cec7b8c68ad7c",
      "assetIds": []
    },
    {
      "x": 223,
      "y": 393,
      "size": 1,
      "price": "4683000000000000000000",
      "reserved": "",
      "salt": "0xde009168b721c70ab7e4f1a05b75d245019e9358fb75d75c2ddaad64e3fff9a3",
      "assetIds": [
        "41506478881403507969696680653240014914910929820314476107906210059990541021186"
      ]
    },
    {
      "x": 223,
      "y": 394,
      "size": 1,
      "price": "4683000000000000000000",
      "reserved": "",
      "salt": "0x7ba1cb26922df1d2e070b16e169725de0318b65165886af53ee9a0b0c6efb7ec",
      "assetIds": [
        "41506478881403507969696680653240014914910929820314476107906210059990541021186"
      ]
    },
    {
      "x": 223,
      "y": 395,
      "size": 1,
      "price": "4683000000000000000000",
      "reserved": "",
      "salt": "0x2db3b7ee8319de7b1c73cabcf6e5125f174eb3438ba7b065a72bf3fee98ea7f5",
      "assetIds": [
        "41506478881403507969696680653240014914910929820314476107906210059990541021186"
      ]
    },
    {
      "x": 223,
      "y": 402,
      "size": 1,
      "price": "1011000000000000000000",
      "reserved": "",
      "salt": "0x153a7f649c5f3b9c07abd556804b67ccd417189ee526d54b64461701225123f4",
      "assetIds": []
    },
    {
      "x": 223,
      "y": 403,
      "size": 1,
      "price": "1011000000000000000000",
      "reserved": "",
      "salt": "0x38f43fa5812468ec8f62616e0c01cefb5eefbd9f6fc10fdbbeb3731f485dbcc0",
      "assetIds": []
    },
    {
      "x": 223,
      "y": 404,
      "size": 1,
      "price": "1011000000000000000000",
      "reserved": "0x7a9fe22691c811ea339d9b73150e6911a5343dca",
      "salt": "0x0048690a70d51be5642e3c0de443cf73daff5adfb3c41f954ee10d369263e7ba",
      "assetIds": []
    },
    {
      "x": 223,
      "y": 405,
      "size": 1,
      "price": "1011000000000000000000",
      "reserved": "",
      "salt": "0xba3117f3a0df9d0c678036a3a4b6df9dbc0087bd4d29e93164abdb48f465006c",
      "assetIds": []
    },
    {
      "x": 223,
      "y": 406,
      "size": 1,
      "price": "1011000000000000000000",
      "reserved": "",
      "salt": "0xb287b070aa75ac81a2a3a7456ab921469b5fd2547c7209fe5bfc327c8f3ac22f",
      "assetIds": []
    },
    {
      "x": 223,
      "y": 407,
      "size": 1,
      "price": "1011000000000000000000",
      "reserved": "",
      "salt": "0x0757abf46f4b28c1764cd824a96bbcd987dfe18a4ab6bf35d8b22c2593193715",
      "assetIds": []
    },
    {
      "x": 224,
      "y": 392,
      "size": 1,
      "price": "1011000000000000000000",
      "reserved": "",
      "salt": "0xcdae6eee23384ab770f515146e69d42c3b346a65daca62efa3e267a41698b43e",
      "assetIds": []
    },
    {
      "x": 224,
      "y": 393,
      "size": 1,
      "price": "1011000000000000000000",
      "reserved": "0x7a9fe22691c811ea339d9b73150e6911a5343dca",
      "salt": "0x67b9643c0cada89e703fe5476b9d08652ae980c1833e603fd4363316bd687a1a",
      "assetIds": []
    },
    {
      "x": 224,
      "y": 394,
      "size": 1,
      "price": "4683000000000000000000",
      "reserved": "",
      "salt": "0xcd3a13787a917d80b837da2459fb8116b249d96eef4f961118cd0080b8e92c03",
      "assetIds": [
        "41506478881403507969696680653240014914910929820314476107906210059990541021186"
      ]
    },
    {
      "x": 224,
      "y": 395,
      "size": 1,
      "price": "4683000000000000000000",
      "reserved": "",
      "salt": "0x0c75a7e5d7c9ce5d488326de54f82ca497221b135cee85f73a3f1f09747d20bd",
      "assetIds": [
        "41506478881403507969696680653240014914910929820314476107906210059990541021186"
      ]
    },
    {
      "x": 224,
      "y": 402,
      "size": 1,
      "price": "1011000000000000000000",
      "reserved": "",
      "salt": "0x6a45d608cd64237a82b30cefa8e96bd27bb91a17aea66d1ce242776d6f7d1775",
      "assetIds": []
    },
    {
      "x": 224,
      "y": 403,
      "size": 1,
      "price": "1011000000000000000000",
      "reserved": "",
      "salt": "0x2fcbff9b861d5b18b37bf4a98813e29f6b17cc16fd5b59797cc3d6674ba59376",
      "assetIds": []
    },
    {
      "x": 224,
      "y": 404,
      "size": 1,
      "price": "1011000000000000000000",
      "reserved": "",
      "salt": "0x414c46bc431043eb219a4677a6a444f418d15efdc1f49ddc19646a247cb3d538",
      "assetIds": []
    },
    {
      "x": 224,
      "y": 405,
      "size": 1,
      "price": "1011000000000000000000",
      "reserved": "",
      "salt": "0x5442374dadd153595b33952405a9978d01813aff69f98f814cc48a875a382121",
      "assetIds": []
    },
    {
      "x": 224,
      "y": 406,
      "size": 1,
      "price": "1011000000000000000000",
      "reserved": "",
      "salt": "0x40a0ce1fd889451d0fc9bdd06a7990402bd30d33b7e814081076146c0d9b0d76",
      "assetIds": []
    },
    {
      "x": 224,
      "y": 407,
      "size": 1,
      "price": "1011000000000000000000",
      "reserved": "",
      "salt": "0x93a26ca1b2762e95723a09d413d82bf0f4970a8d14a45675d0d5ce74eaf823ca",
      "assetIds": []
    },
    {
      "x": 225,
      "y": 392,
      "size": 1,
      "price": "1011000000000000000000",
      "reserved": "",
      "salt": "0xc2eaa069c61932b44730de4d001af115d2abbbe6d222d60f7dc7a116e3b8a103",
      "assetIds": []
    },
    {
      "x": 225,
      "y": 393,
      "size": 1,
      "price": "1011000000000000000000",
      "reserved": "",
      "salt": "0x931e3fefa24cce567986a3a43c6259fbfac8233892a00ccbf37aba37dab77dbe",
      "assetIds": []
    },
    {
      "x": 225,
      "y": 394,
      "size": 1,
      "price": "1011000000000000000000",
      "reserved": "",
      "salt": "0x515c6545855a6754dcda38d2fdaadc7d42b07bf9cacd2714cc2ac1a72826bdbd",
      "assetIds": []
    },
    {
      "x": 225,
      "y": 395,
      "size": 1,
      "price": "4683000000000000000000",
      "reserved": "",
      "salt": "0x4e3250e660b09cbce478e35ec97bb839ac1ccb5e2b8174cb2f12e032f8048f17",
      "assetIds": [
        "41506478881403507969696680653240014914910929820314476107906210059990541021186"
      ]
    },
    {
      "x": 225,
      "y": 402,
      "size": 1,
      "price": "1011000000000000000000",
      "reserved": "",
      "salt": "0x50265b81124ca889caa7a93573297eb05b91cca9095fed49c1ff2ae420995053",
      "assetIds": []
    },
    {
      "x": 225,
      "y": 403,
      "size": 1,
      "price": "1011000000000000000000",
      "reserved": "0x7a9fe22691c811ea339d9b73150e6911a5343dca",
      "salt": "0x03498d27361dcd7a6dda3fda330c9f5b1d747dd40b070a517661a4b560a7f86c",
      "assetIds": []
    },
    {
      "x": 225,
      "y": 404,
      "size": 1,
      "price": "1011000000000000000000",
      "reserved": "0x7a9fe22691c811ea339d9b73150e6911a5343dca",
      "salt": "0x24cec6e1fa6c75cf32c18d61c06148f6511e3a326aea5c1b99750cb7e7ba498c",
      "assetIds": []
    },
    {
      "x": 225,
      "y": 405,
      "size": 1,
      "price": "1011000000000000000000",
      "reserved": "",
      "salt": "0x2d5d7db0ac72a685205e9b93c886b41e28fe0ae56a060dc2f86f4aa909d548e4",
      "assetIds": []
    },
    {
      "x": 225,
      "y": 406,
      "size": 1,
      "price": "1011000000000000000000",
      "reserved": "0x7a9fe22691c811ea339d9b73150e6911a5343dca",
      "salt": "0x51c1e166538d5fed83596fe6561ac4fac6ef8ab3f2cd0afc13be6688ad1faeb7",
      "assetIds": []
    },
    {
      "x": 225,
      "y": 407,
      "size": 1,
      "price": "1011000000000000000000",
      "reserved": "0x7a9fe22691c811ea339d9b73150e6911a5343dca",
      "salt": "0x8c706c61b2e0ec67e1ae980121b19aa3ae0b53b188d619e9003ae9f0831c0b9a",
      "assetIds": []
    },
    {
      "x": 226,
      "y": 392,
      "size": 1,
      "price": "1011000000000000000000",
      "reserved": "0x7a9fe22691c811ea339d9b73150e6911a5343dca",
      "salt": "0xd06df6e0b9ea5beaebc133ee46e8949a594b9cfc5e1c883ef8b029a4a042306a",
      "assetIds": []
    },
    {
      "x": 226,
      "y": 393,
      "size": 1,
      "price": "1011000000000000000000",
      "reserved": "",
      "salt": "0x11bc79299aa4e733df1f9f408aa17acd372e44b2c06a714f7a43239d9b340f09",
      "assetIds": []
    },
    {
      "x": 226,
      "y": 394,
      "size": 1,
      "price": "4683000000000000000000",
      "reserved": "",
      "salt": "0x3b52cb7a515615f5ec271ee2e55d0c1930dbb7b5ea6c4d2b787ec3cf6201594c",
      "assetIds": [
        "41506478881403507969696680653240014914910929820314476107906210059990541021186"
      ]
    },
    {
      "x": 226,
      "y": 395,
      "size": 1,
      "price": "4683000000000000000000",
      "reserved": "",
      "salt": "0xb8519df3acc5f4948cf8bb27a2af894fe1e01d251facafb324f44d9e1a89a8e3",
      "assetIds": [
        "41506478881403507969696680653240014914910929820314476107906210059990541021186"
      ]
    },
    {
      "x": 226,
      "y": 402,
      "size": 1,
      "price": "1011000000000000000000",
      "reserved": "",
      "salt": "0x84ee24b90111033b1345cccb01e6917e71d6207fef7df75bf53b4a58f46f0ee7",
      "assetIds": []
    },
    {
      "x": 226,
      "y": 403,
      "size": 1,
      "price": "1011000000000000000000",
      "reserved": "",
      "salt": "0x6cb6d04f95e7d2a5df7e3b8c6331d68ade451d053153c66baca5683ce04d9332",
      "assetIds": []
    },
    {
      "x": 226,
      "y": 404,
      "size": 1,
      "price": "1011000000000000000000",
      "reserved": "",
      "salt": "0x18b9553ee88b6e18922c74d08c16faa72bd025ed2a78344aff8e5dc906094564",
      "assetIds": []
    },
    {
      "x": 226,
      "y": 405,
      "size": 1,
      "price": "1011000000000000000000",
      "reserved": "",
      "salt": "0xdf3f096c0627b4b3cdf26aced87282dfe41589ec5a2a4f4bc6b03035774fe5d6",
      "assetIds": []
    },
    {
      "x": 226,
      "y": 406,
      "size": 1,
      "price": "1011000000000000000000",
      "reserved": "",
      "salt": "0x1c35ed95e14f182d401e47201e7b3e3dbe878abb5ea5a2dc7b662c2d943a68f6",
      "assetIds": []
    },
    {
      "x": 226,
      "y": 407,
      "size": 1,
      "price": "1011000000000000000000",
      "reserved": "",
      "salt": "0x18b048d085f0d6aadd8fce666fd631f826595454299c27280175f14b159aca02",
      "assetIds": []
    },
    {
      "x": 227,
      "y": 392,
      "size": 1,
      "price": "1011000000000000000000",
      "reserved": "",
      "salt": "0x32d688c3f6f3db19affd70f75e01fadcf8bd71dce86a63cd2d9ca48c4e9d6578",
      "assetIds": []
    },
    {
      "x": 227,
      "y": 393,
      "size": 1,
      "price": "4683000000000000000000",
      "reserved": "",
      "salt": "0x6ee8a936de15271259403e34d670e0f1fb1782abe801289b1f3a06168621a914",
      "assetIds": [
        "41506478881403507969696680653240014914910929820314476107906210059990541021186"
      ]
    },
    {
      "x": 227,
      "y": 394,
      "size": 1,
      "price": "4683000000000000000000",
      "reserved": "",
      "salt": "0x7057ef0de1ea77fae07315450652aa87e65c5651ec782bf2b6d28153c652807e",
      "assetIds": [
        "41506478881403507969696680653240014914910929820314476107906210059990541021186"
      ]
    },
    {
      "x": 227,
      "y": 395,
      "size": 1,
      "price": "4683000000000000000000",
      "reserved": "",
      "salt": "0x430fb15d2d8a9983b264a9d3c6c638dbcab6b23957e477a723b7b7b88a873f61",
      "assetIds": [
        "41506478881403507969696680653240014914910929820314476107906210059990541021186"
      ]
    },
    {
      "x": 227,
      "y": 402,
      "size": 1,
      "price": "1011000000000000000000",
      "reserved": "",
      "salt": "0x2ccc006a4e2348acf87267d709d21249c92eac609e090d26058eb09e7dc9836f",
      "assetIds": []
    },
    {
      "x": 227,
      "y": 403,
      "size": 1,
      "price": "1011000000000000000000",
      "reserved": "",
      "salt": "0xb00ae5c8745ca3cd52d870cbb783bbb315bc1c6a8536bdf0b8453c53b76a7aae",
      "assetIds": []
    },
    {
      "x": 227,
      "y": 404,
      "size": 1,
      "price": "1011000000000000000000",
      "reserved": "",
      "salt": "0x5d135c7eb74a358d64921a92fd33afe984c32d180aaa63a4ad5d3f3db13824b8",
      "assetIds": []
    },
    {
      "x": 227,
      "y": 405,
      "size": 1,
      "price": "1011000000000000000000",
      "reserved": "",
      "salt": "0x14ee29375fbe98deed7f334430b5a9f7aeec860eaf43c5fddffbda36b2c87165",
      "assetIds": []
    },
    {
      "x": 227,
      "y": 406,
      "size": 1,
      "price": "1011000000000000000000",
      "reserved": "",
      "salt": "0xfd8050cb277c2c235a7f5ca9111cd38885edb33607bb38143ee5395a6076de84",
      "assetIds": []
    },
    {
      "x": 227,
      "y": 407,
      "size": 1,
      "price": "1011000000000000000000",
      "reserved": "",
      "salt": "0x8faa5f632f7b83d7080fc952352124860f18ce5d262329f51c0b6785f683b470",
      "assetIds": []
    },
    {
      "x": 228,
      "y": 391,
      "size": 1,
      "price": "1011000000000000000000",
      "reserved": "",
      "salt": "0x43e5bfd7fc838a697b5bba9e5452b4f3eaa9bb28390cac7eeae74cd01063f434",
      "assetIds": []
    },
    {
      "x": 228,
      "y": 392,
      "size": 1,
      "price": "1011000000000000000000",
      "reserved": "",
      "salt": "0x0de720ea22b86fad98e97926f46361ddbef0d3fd936460522d50695355120371",
      "assetIds": []
    },
    {
      "x": 228,
      "y": 393,
      "size": 1,
      "price": "4683000000000000000000",
      "reserved": "",
      "salt": "0xecf10f52ff65f19b756507545c584573df694743972aa1c348817650fa9bbe30",
      "assetIds": [
        "41506478881403507969696680653240014914910929820314476107906210059990541021186"
      ]
    },
    {
      "x": 228,
      "y": 394,
      "size": 1,
      "price": "4683000000000000000000",
      "reserved": "",
      "salt": "0x197245454a69e02241c04e42f26e553f317b35337b0d751ba63c010ab3dd7c31",
      "assetIds": [
        "41506478881403507969696680653240014914910929820314476107906210059990541021186"
      ]
    },
    {
      "x": 228,
      "y": 395,
      "size": 1,
      "price": "4683000000000000000000",
      "reserved": "",
      "salt": "0x69eafb7228cdf4da599aabb151bec4f98eb7d7bd3a0b608925d734af1cd24133",
      "assetIds": [
        "41506478881403507969696680653240014914910929820314476107906210059990541021186"
      ]
    },
    {
      "x": 228,
      "y": 402,
      "size": 1,
      "price": "4683000000000000000000",
      "reserved": "",
      "salt": "0x05fd3bc3050b1553e77e613628398b023f7bb8c70ce56e082e96f18c9f26ba76",
      "assetIds": [
        "41506478881403507969696680653240014914910929820314476107906210059990541021186"
      ]
    },
    {
      "x": 228,
      "y": 403,
      "size": 1,
      "price": "4683000000000000000000",
      "reserved": "",
      "salt": "0x8764d937c84fa69dc1354d3ead7a35f1011c2fbac5009bc4fb07fb3811e0de62",
      "assetIds": [
        "41506478881403507969696680653240014914910929820314476107906210059990541021186"
      ]
    },
    {
      "x": 228,
      "y": 404,
      "size": 1,
      "price": "1011000000000000000000",
      "reserved": "",
      "salt": "0x0d385725c9266e32fc20658e7681968b541761c4fbd8621d27f366708acf4bdd",
      "assetIds": []
    },
    {
      "x": 228,
      "y": 405,
      "size": 1,
      "price": "1011000000000000000000",
      "reserved": "0x7a9fe22691c811ea339d9b73150e6911a5343dca",
      "salt": "0x64ae1e09bbdb95a1f23c7235af3a3115a173173b0a831a97ca5c87ba5f7dad50",
      "assetIds": []
    },
    {
      "x": 228,
      "y": 406,
      "size": 1,
      "price": "1011000000000000000000",
      "reserved": "",
      "salt": "0xf6a4fc6d3343173cd480e3d21567fcc4e554bf07dfeb530dfbf34ada1ff84eeb",
      "assetIds": []
    },
    {
      "x": 228,
      "y": 407,
      "size": 1,
      "price": "1011000000000000000000",
      "reserved": "",
      "salt": "0x89fd17b218fbb6bb93db94f63d88d3cfdb6b9121024afc66ebc4648f1addcc25",
      "assetIds": []
    },
    {
      "x": 229,
      "y": 391,
      "size": 1,
      "price": "1011000000000000000000",
      "reserved": "0x7a9fe22691c811ea339d9b73150e6911a5343dca",
      "salt": "0xb3f158b407fd1322de45ca97fb726a01ce102f08d306652aba2de7a56ad1379f",
      "assetIds": []
    },
    {
      "x": 229,
      "y": 392,
      "size": 1,
      "price": "1011000000000000000000",
      "reserved": "",
      "salt": "0xacf72d817a32faa89b5c492c7e5e540cc07997e006abe54af43b175767b5c222",
      "assetIds": []
    },
    {
      "x": 229,
      "y": 393,
      "size": 1,
      "price": "4683000000000000000000",
      "reserved": "",
      "salt": "0xcebd27fbbbab61247ff3682bb7ec44712028cdefff6f8fefd85e588dcdd42acc",
      "assetIds": [
        "41506478881403507969696680653240014914910929820314476107906210059990541021186"
      ]
    },
    {
      "x": 229,
      "y": 394,
      "size": 1,
      "price": "4683000000000000000000",
      "reserved": "",
      "salt": "0x473d3427af653c05b8b62d5ba5d0099c2bab3822bee75f8aacbb93ad394d14b3",
      "assetIds": [
        "41506478881403507969696680653240014914910929820314476107906210059990541021186"
      ]
    },
    {
      "x": 229,
      "y": 395,
      "size": 1,
      "price": "4683000000000000000000",
      "reserved": "",
      "salt": "0x40a403f1c886c983b5e9ef04edfd345619cec7b0175be1b14b32d96c62ce61f8",
      "assetIds": [
        "41506478881403507969696680653240014914910929820314476107906210059990541021186"
      ]
    },
    {
      "x": 229,
      "y": 402,
      "size": 1,
      "price": "4683000000000000000000",
      "reserved": "",
      "salt": "0xa58c63b79f1da7b04e522941ff456d01604eb05972c16f26118ed1e700246255",
      "assetIds": [
        "41506478881403507969696680653240014914910929820314476107906210059990541021186"
      ]
    },
    {
      "x": 229,
      "y": 403,
      "size": 1,
      "price": "4683000000000000000000",
      "reserved": "",
      "salt": "0x6ea9a9827710a0168e89105075c807c54b4e467da98ddb7c0c38860df7005a8c",
      "assetIds": [
        "41506478881403507969696680653240014914910929820314476107906210059990541021186"
      ]
    },
    {
      "x": 229,
      "y": 404,
      "size": 1,
      "price": "1011000000000000000000",
      "reserved": "",
      "salt": "0xee150c34c0cbca20ef62e36d12e3d0f12bb0aad3c8123b82b24aefb21406b1d7",
      "assetIds": []
    },
    {
      "x": 229,
      "y": 405,
      "size": 1,
      "price": "1011000000000000000000",
      "reserved": "",
      "salt": "0xa2b4e4bb87ddbe54e86d75a56ed474de244c7699a20d3ed311ec649687821e0a",
      "assetIds": []
    },
    {
      "x": 229,
      "y": 406,
      "size": 1,
      "price": "1011000000000000000000",
      "reserved": "",
      "salt": "0x91776365cf3382d6b93e138d4bb45c2b95e937bafbf5c3239d090cbaeb0b895e",
      "assetIds": []
    },
    {
      "x": 229,
      "y": 407,
      "size": 1,
      "price": "1011000000000000000000",
      "reserved": "",
      "salt": "0xcade32d86ee7dd8993fff7b7916e2c2499859d4f9505578a7defe6ec2c810791",
      "assetIds": []
    },
    {
      "x": 230,
      "y": 391,
      "size": 1,
      "price": "1011000000000000000000",
      "reserved": "",
      "salt": "0x2273a2ea2703d9e0910dc5d170eb4a8f9741406ccf140643e7df4044e3d95ef5",
      "assetIds": []
    },
    {
      "x": 230,
      "y": 392,
      "size": 1,
      "price": "1011000000000000000000",
      "reserved": "",
      "salt": "0x859ca555b7420031d30bd698069cfe2f0409feb171dda322e122fed44cd3a891",
      "assetIds": []
    },
    {
      "x": 230,
      "y": 393,
      "size": 1,
      "price": "4683000000000000000000",
      "reserved": "",
      "salt": "0x4421036481a4532dced36bb82735d80e0f24421f1cbff9054d4d72bc22214e0d",
      "assetIds": [
        "41506478881403507969696680653240014914910929820314476107906210059990541021186"
      ]
    },
    {
      "x": 230,
      "y": 394,
      "size": 1,
      "price": "4683000000000000000000",
      "reserved": "",
      "salt": "0x335b96548f4ceabb31e2afdcfaf5827b7529c9c268528cf03d90802aeb82bb61",
      "assetIds": [
        "41506478881403507969696680653240014914910929820314476107906210059990541021186"
      ]
    },
    {
      "x": 230,
      "y": 395,
      "size": 1,
      "price": "4683000000000000000000",
      "reserved": "",
      "salt": "0xf74270cc59c4f41d9814761b19989f26788c3d7b1619b9ad4496d40f3448fe62",
      "assetIds": [
        "41506478881403507969696680653240014914910929820314476107906210059990541021186"
      ]
    },
    {
      "x": 230,
      "y": 402,
      "size": 1,
      "price": "4683000000000000000000",
      "reserved": "",
      "salt": "0xdb0bae0e5b8d01599a8e5d6f996101ef9f16515d656b58c3df569148f781f85b",
      "assetIds": [
        "41506478881403507969696680653240014914910929820314476107906210059990541021186"
      ]
    },
    {
      "x": 230,
      "y": 403,
      "size": 1,
      "price": "4683000000000000000000",
      "reserved": "",
      "salt": "0xc5afbd5c5bac0540bb32f72e19e75fcbcfe485c9ce891e3cf7bba9656f680380",
      "assetIds": [
        "41506478881403507969696680653240014914910929820314476107906210059990541021186"
      ]
    },
    {
      "x": 230,
      "y": 404,
      "size": 1,
      "price": "1011000000000000000000",
      "reserved": "",
      "salt": "0x9c3e666a50e4165820cf003ec11279f2671e07d517ea1887acf028b521c93645",
      "assetIds": []
    },
    {
      "x": 230,
      "y": 405,
      "size": 1,
      "price": "1011000000000000000000",
      "reserved": "",
      "salt": "0x03fb818fed147185a3012a33b7ecc6adfc0f69cbbbac586b84d37078bda0145e",
      "assetIds": []
    },
    {
      "x": 230,
      "y": 406,
      "size": 1,
      "price": "1011000000000000000000",
      "reserved": "",
      "salt": "0x5938a8991b1f69b6ce6cb96bb64f98fc67005f42a50a13a489da48eac70a8235",
      "assetIds": []
    },
    {
      "x": 230,
      "y": 407,
      "size": 1,
      "price": "1011000000000000000000",
      "reserved": "",
      "salt": "0x08cff7667bd1638230de906ff3e1d6b0106c775a4aba1945fcb325b4cf4f5267",
      "assetIds": []
    },
    {
      "x": 231,
      "y": 391,
      "size": 1,
      "price": "1011000000000000000000",
      "reserved": "",
      "salt": "0xc86a515d0af552c554e340a8ff3bfddbe9c5b38f35186d74863a9236778cd2eb",
      "assetIds": []
    },
    {
      "x": 231,
      "y": 392,
      "size": 1,
      "price": "1011000000000000000000",
      "reserved": "",
      "salt": "0x9475970bcd11ebd3f74bc70d37563dfc996d51e21297d25e92083785e3138d44",
      "assetIds": []
    },
    {
      "x": 231,
      "y": 393,
      "size": 1,
      "price": "1011000000000000000000",
      "reserved": "",
      "salt": "0xa32ab25bfa2aa5e3dd5514f971bf44147c4d5de7dc3ff335bf2b8bc78b1e4361",
      "assetIds": []
    },
    {
      "x": 231,
      "y": 394,
      "size": 1,
      "price": "4683000000000000000000",
      "reserved": "",
      "salt": "0xab9d56c9dab00d9531f4e91824b722f83f1bac3677386a5d0f9ab11beda43575",
      "assetIds": [
        "41506478881403507969696680653240014914910929820314476107906210059990541021186"
      ]
    },
    {
      "x": 231,
      "y": 395,
      "size": 1,
      "price": "4683000000000000000000",
      "reserved": "",
      "salt": "0x7b29dfa954631f08c4be4285dd1a661f8a8449e94d8acca49a22825a270a125d",
      "assetIds": [
        "41506478881403507969696680653240014914910929820314476107906210059990541021186"
      ]
    },
    {
      "x": 231,
      "y": 402,
      "size": 1,
      "price": "4683000000000000000000",
      "reserved": "",
      "salt": "0xf8f11aa823427d2f4890dac4016f17fa472fe4cb148f92cb27c5790a51f5848f",
      "assetIds": [
        "41506478881403507969696680653240014914910929820314476107906210059990541021186"
      ]
    },
    {
      "x": 231,
      "y": 403,
      "size": 1,
      "price": "1011000000000000000000",
      "reserved": "0x7a9fe22691c811ea339d9b73150e6911a5343dca",
      "salt": "0x8e69e4b7737f0571885729bc07f917c1be99f9b50e793ae726d5a05c6a9369cf",
      "assetIds": []
    },
    {
      "x": 231,
      "y": 404,
      "size": 1,
      "price": "1011000000000000000000",
      "reserved": "0x7a9fe22691c811ea339d9b73150e6911a5343dca",
      "salt": "0x12afcfc0741f02a122adf5d8aff60183c82db05d214f15499a335324d6858105",
      "assetIds": []
    },
    {
      "x": 231,
      "y": 405,
      "size": 1,
      "price": "1011000000000000000000",
      "reserved": "",
      "salt": "0x88d12013220db4207c59722ff7e3e08cfac33467db6b320f40d4c79acddb0b45",
      "assetIds": []
    },
    {
      "x": 231,
      "y": 406,
      "size": 1,
      "price": "1011000000000000000000",
      "reserved": "",
      "salt": "0x4a1cf13700203b50851ba179f61547c976a455ab5b12010c25462787f0ded94c",
      "assetIds": []
    },
    {
      "x": 231,
      "y": 407,
      "size": 1,
      "price": "1011000000000000000000",
      "reserved": "",
      "salt": "0x8ecada1a9efd54b627810ac37e553487b2c4659d058725fd22b7d4a8890b568b",
      "assetIds": []
    },
    {
      "x": 232,
      "y": 391,
      "size": 1,
      "price": "1011000000000000000000",
      "reserved": "",
      "salt": "0x3c3cf5b18854bbf746087e2e782c7ff118266ace7b02838395447b116ad8fada",
      "assetIds": []
    },
    {
      "x": 232,
      "y": 392,
      "size": 1,
      "price": "1011000000000000000000",
      "reserved": "",
      "salt": "0x45e116598285142d0232a1b32344ec093c0a4092faf600a4e74270be15f487e5",
      "assetIds": []
    },
    {
      "x": 232,
      "y": 393,
      "size": 1,
      "price": "1011000000000000000000",
      "reserved": "",
      "salt": "0x54e8aba889456a63a734f44ba16eba2164832e116992477d505acdd494a11bc8",
      "assetIds": []
    },
    {
      "x": 232,
      "y": 394,
      "size": 1,
      "price": "4683000000000000000000",
      "reserved": "",
      "salt": "0x8d1d232ea95a1d5a4a28846c4a725e6e8bc9d06417475ba3220e0795019440b4",
      "assetIds": [
        "41506478881403507969696680653240014914910929820314476107906210059990541021186"
      ]
    },
    {
      "x": 232,
      "y": 395,
      "size": 1,
      "price": "4683000000000000000000",
      "reserved": "",
      "salt": "0x0e2f63ce1ceee57ecf4b0b67f002e441327c02bf072d51a3212091d74d85f3b5",
      "assetIds": [
        "41506478881403507969696680653240014914910929820314476107906210059990541021186"
      ]
    },
    {
      "x": 232,
      "y": 402,
      "size": 1,
      "price": "4683000000000000000000",
      "reserved": "",
      "salt": "0x6b74e201005baffd1c02985d93a4e5246421361560c3ac231014982ead46cc73",
      "assetIds": [
        "41506478881403507969696680653240014914910929820314476107906210059990541021186"
      ]
    },
    {
      "x": 232,
      "y": 403,
      "size": 1,
      "price": "1011000000000000000000",
      "reserved": "",
      "salt": "0x98ab9de271c25b79d0fa5890645def9ee5a9438716e0f779e96be2d8b3d7a2cc",
      "assetIds": []
    },
    {
      "x": 232,
      "y": 404,
      "size": 1,
      "price": "1011000000000000000000",
      "reserved": "",
      "salt": "0x86f91589cd6297c59af9e810771b37d233fb26170ebe448d0ed001b47c654fe2",
      "assetIds": []
    },
    {
      "x": 232,
      "y": 405,
      "size": 1,
      "price": "1011000000000000000000",
      "reserved": "",
      "salt": "0x984e0a7d7fe0cd40691c5845afe5360e95376fa7a1bcbdfa4ca6973b54b83f6a",
      "assetIds": []
    },
    {
      "x": 232,
      "y": 406,
      "size": 1,
      "price": "1011000000000000000000",
      "reserved": "",
      "salt": "0x6f42efda83ee55dee568c4ea4a48a00cb10a3d27f133c9a1c07d01724f9439f0",
      "assetIds": []
    },
    {
      "x": 232,
      "y": 407,
      "size": 1,
      "price": "1011000000000000000000",
      "reserved": "0x7a9fe22691c811ea339d9b73150e6911a5343dca",
      "salt": "0x0540be0ea3e365e284ae13642328b088406cfdf3482a4305ce2b5dcb879d2ef2",
      "assetIds": []
    },
    {
      "x": 233,
      "y": 391,
      "size": 1,
      "price": "1011000000000000000000",
      "reserved": "",
      "salt": "0x98915d7249fabc10cc077cdcd12770f1b964d2768c3ddd3b45ff80a91db08e41",
      "assetIds": []
    },
    {
      "x": 233,
      "y": 392,
      "size": 1,
      "price": "1011000000000000000000",
      "reserved": "",
      "salt": "0xee823783cef36c8f04945872776d959fab6087ff928a97157da543c510eab6dd",
      "assetIds": []
    },
    {
      "x": 233,
      "y": 393,
      "size": 1,
      "price": "1011000000000000000000",
      "reserved": "",
      "salt": "0xca9d021a02aefc8d67fae15bac99a8d34a8c96876c62421c19fefd39429524b2",
      "assetIds": []
    },
    {
      "x": 233,
      "y": 394,
      "size": 1,
      "price": "4683000000000000000000",
      "reserved": "",
      "salt": "0x042a40544267bda53d016849077b59b05a6018ee04f3157eb16ec123bdf7dbdd",
      "assetIds": [
        "41506478881403507969696680653240014914910929820314476107906210059990541021186"
      ]
    },
    {
      "x": 233,
      "y": 395,
      "size": 1,
      "price": "4683000000000000000000",
      "reserved": "",
      "salt": "0x2e09949854f1419f19fca519030334b3cf8ebdf7243374d425ca7bde89182002",
      "assetIds": [
        "41506478881403507969696680653240014914910929820314476107906210059990541021186"
      ]
    },
    {
      "x": 233,
      "y": 402,
      "size": 1,
      "price": "4683000000000000000000",
      "reserved": "",
      "salt": "0xbe1338433f83a375492acf0ce93848c4dfb5a7b7cc40f456ef72019344b6b6c7",
      "assetIds": [
        "41506478881403507969696680653240014914910929820314476107906210059990541021186"
      ]
    },
    {
      "x": 233,
      "y": 403,
      "size": 1,
      "price": "1011000000000000000000",
      "reserved": "",
      "salt": "0xf41c173b1c185db47b5514e4c07a580183a05869358da3db4a243bc9a796916e",
      "assetIds": []
    },
    {
      "x": 233,
      "y": 404,
      "size": 1,
      "price": "1011000000000000000000",
      "reserved": "",
      "salt": "0xe1ff72ee73e002539c3b41700a523eb5ce8be8a56316aa74560585a00f1a6fe8",
      "assetIds": []
    },
    {
      "x": 233,
      "y": 405,
      "size": 1,
      "price": "1011000000000000000000",
      "reserved": "",
      "salt": "0xf1f78777111620482e240c6d1945d258d5c601e56cae9117065c42bff1f51f49",
      "assetIds": []
    },
    {
      "x": 233,
      "y": 406,
      "size": 1,
      "price": "1011000000000000000000",
      "reserved": "",
      "salt": "0x5bf6e6f697aeefe0693b6f5e5ef1b5f1f76979a829f03f72f9a7d654311eaa68",
      "assetIds": []
    },
    {
      "x": 233,
      "y": 407,
      "size": 1,
      "price": "1011000000000000000000",
      "reserved": "",
      "salt": "0xe9f2c85680077f109ffd77bc939a22439c4107cc5bc9f96042b4df88322e9a17",
      "assetIds": []
    },
    {
      "x": 234,
      "y": 396,
      "size": 1,
      "price": "4683000000000000000000",
      "reserved": "",
      "salt": "0xc9e1983bb36b8b4be2632fddeb8b74ce94169bcfadf509431ab7dd674d259ac6",
      "assetIds": [
        "41506478881403507969696680653240014914910929820314476107906210059990541021186"
      ]
    },
    {
      "x": 234,
      "y": 397,
      "size": 1,
      "price": "4683000000000000000000",
      "reserved": "",
      "salt": "0x85782709cc5d357055dc9650bfc0068e3d5eb2c5f133a424f0cb91ee0ebe7548",
      "assetIds": [
        "41506478881403507969696680653240014914910929820314476107906210059990541021186"
      ]
    },
    {
      "x": 234,
      "y": 398,
      "size": 1,
      "price": "4683000000000000000000",
      "reserved": "",
      "salt": "0x9f8a31be91421fb24d23838ccc845bc75e032154c4d26668ca9018b792da497d",
      "assetIds": [
        "41506478881403507969696680653240014914910929820314476107906210059990541021186"
      ]
    },
    {
      "x": 234,
      "y": 402,
      "size": 1,
      "price": "1011000000000000000000",
      "reserved": "",
      "salt": "0xc77a09bb27f9daaa48a04e5ebaf15dc7f86617c38d1157444eead0151635374e",
      "assetIds": []
    },
    {
      "x": 234,
      "y": 403,
      "size": 1,
      "price": "1011000000000000000000",
      "reserved": "",
      "salt": "0xf7ff72f8a03e2f604f8021d31fe82f7c31b396d08b90daf6b38778f26fb6df3c",
      "assetIds": []
    },
    {
      "x": 234,
      "y": 404,
      "size": 1,
      "price": "1011000000000000000000",
      "reserved": "",
      "salt": "0x71d8748b8536486e8b2fb588f29517605ba4c94a1954ea1bf817baba4442ca64",
      "assetIds": []
    },
    {
      "x": 234,
      "y": 405,
      "size": 1,
      "price": "1011000000000000000000",
      "reserved": "",
      "salt": "0x6bdafb4cb7363153152be7bdc17acbc611480f9128c6f6c7a16675c6f02e6f5a",
      "assetIds": []
    },
    {
      "x": 234,
      "y": 406,
      "size": 1,
      "price": "1011000000000000000000",
      "reserved": "",
      "salt": "0x149f70f6941c51cdcbb8a012ee62d515143fde4d18aeaee7ae9491d127bd5e57",
      "assetIds": []
    },
    {
      "x": 234,
      "y": 407,
      "size": 1,
      "price": "1011000000000000000000",
      "reserved": "",
      "salt": "0x2f989256b2ce5f803c5c6b4d03be02cedcb6c95d0e1242dbaf5365c6cfedd533",
      "assetIds": []
    },
    {
      "x": 235,
      "y": 388,
      "size": 1,
      "price": "1011000000000000000000",
      "reserved": "0x7a9fe22691c811ea339d9b73150e6911a5343dca",
      "salt": "0x99c1da910b5c96450f24749d05d3050ca708b784e478d13afae6dba2aff0c352",
      "assetIds": []
    },
    {
      "x": 235,
      "y": 389,
      "size": 1,
      "price": "1011000000000000000000",
      "reserved": "",
      "salt": "0xee1df4283f589e89a33151f22cdd77985a2f8958e34da90d166a234216f522c9",
      "assetIds": []
    },
    {
      "x": 235,
      "y": 396,
      "size": 1,
      "price": "4683000000000000000000",
      "reserved": "",
      "salt": "0x85965958a5966f36fa240df28e2d1065ec41f0485756c57277abe737503dade4",
      "assetIds": [
        "41506478881403507969696680653240014914910929820314476107906210059990541021186"
      ]
    },
    {
      "x": 235,
      "y": 397,
      "size": 1,
      "price": "4683000000000000000000",
      "reserved": "",
      "salt": "0x7cddfc4c7804c4759d27d4e7d88b57a0133e89d68a36140b70203be86e3b0511",
      "assetIds": [
        "41506478881403507969696680653240014914910929820314476107906210059990541021186"
      ]
    },
    {
      "x": 235,
      "y": 398,
      "size": 1,
      "price": "4683000000000000000000",
      "reserved": "",
      "salt": "0x073a0ce5ef012e4e6ef89ab57f27442d9be6c3d723b95eec5711c546c205c5bb",
      "assetIds": [
        "41506478881403507969696680653240014914910929820314476107906210059990541021186"
      ]
    },
    {
      "x": 235,
      "y": 402,
      "size": 1,
      "price": "1011000000000000000000",
      "reserved": "",
      "salt": "0xbe72f316695e5f105b33506720899bd4963fedbaaf1d60732f91322c8b0fc42c",
      "assetIds": []
    },
    {
      "x": 235,
      "y": 403,
      "size": 1,
      "price": "1011000000000000000000",
      "reserved": "",
      "salt": "0x017005755f44912ce92865462b47e3a0e31262bc6226c2bf4b87b2b78113add8",
      "assetIds": []
    },
    {
      "x": 235,
      "y": 404,
      "size": 1,
      "price": "1011000000000000000000",
      "reserved": "",
      "salt": "0x90276ce77933e6221479bbfeac7e33205cc2a726bf9e9721d07127aee1557a3b",
      "assetIds": []
    },
    {
      "x": 235,
      "y": 405,
      "size": 1,
      "price": "1011000000000000000000",
      "reserved": "",
      "salt": "0xb356e07486bbd888c39b006f8cad5c35100d9fd0a14c25477d5fb0d231ff6c3f",
      "assetIds": []
    },
    {
      "x": 235,
      "y": 406,
      "size": 1,
      "price": "1011000000000000000000",
      "reserved": "",
      "salt": "0x3b899d578e2c3e150119cad2a005209ad56c00887cca475c2137b00b9a2dcab1",
      "assetIds": []
    },
    {
      "x": 235,
      "y": 407,
      "size": 1,
      "price": "1011000000000000000000",
      "reserved": "0x7a9fe22691c811ea339d9b73150e6911a5343dca",
      "salt": "0x7e6ec45487a72c15cdcb7dbf247d5153fb7e4250f22a9f910163cec0ae4e1729",
      "assetIds": []
    },
    {
      "x": 236,
      "y": 388,
      "size": 1,
      "price": "1011000000000000000000",
      "reserved": "0x7a9fe22691c811ea339d9b73150e6911a5343dca",
      "salt": "0x260a9d51081127f720c83439401368e35cec2ded46160499f0c8298cd2074354",
      "assetIds": []
    },
    {
      "x": 236,
      "y": 389,
      "size": 1,
      "price": "1011000000000000000000",
      "reserved": "",
      "salt": "0xef358c57187c9124999572b26cdf6b00d1d0fa98be86dcc51c84f2b362dd1e6a",
      "assetIds": []
    },
    {
      "x": 236,
      "y": 396,
      "size": 1,
      "price": "4683000000000000000000",
      "reserved": "",
      "salt": "0xe85055e0d1ce51ca32029887e0f13c408d26e970057e1a3a51c46b7ea0eb1be6",
      "assetIds": [
        "41506478881403507969696680653240014914910929820314476107906210059990541021186"
      ]
    },
    {
      "x": 236,
      "y": 397,
      "size": 1,
      "price": "4683000000000000000000",
      "reserved": "",
      "salt": "0x4554e7f2310d94e3c4fe28970107b0d516e8324057fde2f2ecee2b46c524784f",
      "assetIds": [
        "41506478881403507969696680653240014914910929820314476107906210059990541021186"
      ]
    },
    {
      "x": 236,
      "y": 398,
      "size": 1,
      "price": "4683000000000000000000",
      "reserved": "",
      "salt": "0xfb04ca27fc915f2ed4044e0c7e665cf750280230b44b2b0f481e29376acaeb5e",
      "assetIds": [
        "41506478881403507969696680653240014914910929820314476107906210059990541021186"
      ]
    },
    {
      "x": 236,
      "y": 402,
      "size": 1,
      "price": "1011000000000000000000",
      "reserved": "",
      "salt": "0xbabadae842562572a16d7966d13c485866c94e1377af68dc1b99c6222345820f",
      "assetIds": []
    },
    {
      "x": 236,
      "y": 403,
      "size": 1,
      "price": "1011000000000000000000",
      "reserved": "",
      "salt": "0x5e5748ab727092ecfd901ad55aa370883087e207b06a70381b46b996c7960258",
      "assetIds": []
    },
    {
      "x": 236,
      "y": 404,
      "size": 1,
      "price": "1011000000000000000000",
      "reserved": "",
      "salt": "0x3c1d5030f8a0780ef4850df0f1ae79066a0b798dbcbe878844483ae91277eaf1",
      "assetIds": []
    },
    {
      "x": 236,
      "y": 405,
      "size": 1,
      "price": "1011000000000000000000",
      "reserved": "",
      "salt": "0x5bb49338fb2c3744eb425dea4033ae9b1343ea189539e33893e573ce43f5078c",
      "assetIds": []
    },
    {
      "x": 236,
      "y": 406,
      "size": 1,
      "price": "1011000000000000000000",
      "reserved": "",
      "salt": "0x281dbaeea8f48e090dfd5274dada5ef9867cac51de14f9ec7396f459ed4537cb",
      "assetIds": []
    },
    {
      "x": 236,
      "y": 407,
      "size": 1,
      "price": "1011000000000000000000",
      "reserved": "",
      "salt": "0x7e199fbcc281ea58fce7a022daa0975db5716f170c8705572c00800cc775c9ce",
      "assetIds": []
    },
    {
      "x": 237,
      "y": 387,
      "size": 1,
      "price": "4683000000000000000000",
      "reserved": "",
      "salt": "0xf8b2109cd182791e48ff8a8c6ff120d489ddb198df2357c29e89a17103f507c5",
      "assetIds": [
        "41506478881403507969696680653240014914910929820314476107906210059990541021186"
      ]
    },
    {
      "x": 237,
      "y": 388,
      "size": 1,
      "price": "4683000000000000000000",
      "reserved": "",
      "salt": "0x9c967aa6f1441a6eb2b4a7460e8eebfa49c15c0b2c966bec1086a365963e2224",
      "assetIds": [
        "41506478881403507969696680653240014914910929820314476107906210059990541021186"
      ]
    },
    {
      "x": 237,
      "y": 389,
      "size": 1,
      "price": "4683000000000000000000",
      "reserved": "",
      "salt": "0xe6b653486ca2aa64eeb00d9fb26daf090e89952b7fb0935dbde7d5f95ba52813",
      "assetIds": [
        "41506478881403507969696680653240014914910929820314476107906210059990541021186"
      ]
    },
    {
      "x": 237,
      "y": 399,
      "size": 1,
      "price": "1011000000000000000000",
      "reserved": "0x7a9fe22691c811ea339d9b73150e6911a5343dca",
      "salt": "0x50b047a78701fe210ab463a2f8270bc8527844a093ca97d72f0a44c2402a6ad7",
      "assetIds": []
    },
    {
      "x": 237,
      "y": 400,
      "size": 1,
      "price": "1011000000000000000000",
      "reserved": "0x7a9fe22691c811ea339d9b73150e6911a5343dca",
      "salt": "0x36cdf994f881bc87b088fa199a8b36173ed4e14bb84c1dce70b7d99efd9fc802",
      "assetIds": []
    },
    {
      "x": 237,
      "y": 401,
      "size": 1,
      "price": "1011000000000000000000",
      "reserved": "",
      "salt": "0x0a23dc829602fdc6097f36a908525c9e3cde7b1999c93fc9a1adc708a7927591",
      "assetIds": []
    },
    {
      "x": 237,
      "y": 402,
      "size": 1,
      "price": "1011000000000000000000",
      "reserved": "",
      "salt": "0x63d4c95b154ef39e723c0dfaa14fcd37b2e08982a236b6dbaf97f7df02b7fc39",
      "assetIds": []
    },
    {
      "x": 237,
      "y": 403,
      "size": 1,
      "price": "1011000000000000000000",
      "reserved": "0x7a9fe22691c811ea339d9b73150e6911a5343dca",
      "salt": "0x3509b295f93fa96346c8237cd7743f66a7d76ae0c741a4a258b6c199f8f2a9bf",
      "assetIds": []
    },
    {
      "x": 237,
      "y": 404,
      "size": 1,
      "price": "1011000000000000000000",
      "reserved": "",
      "salt": "0x06147c0a92c38f830004d529677edc92f1dfe140db7c06c4be3287cca82a0eed",
      "assetIds": []
    },
    {
      "x": 237,
      "y": 405,
      "size": 1,
      "price": "1011000000000000000000",
      "reserved": "",
      "salt": "0x181b80b1081e922e01833469f5ab72f35fe1c91d3e7ad6a36c5e9c2cd9ca72bd",
      "assetIds": []
    },
    {
      "x": 237,
      "y": 406,
      "size": 1,
      "price": "1011000000000000000000",
      "reserved": "",
      "salt": "0x25e2fa4e6f9c590cbe9467a18b3a004b9508d93863c332465212385c9bfa8f04",
      "assetIds": []
    },
    {
      "x": 237,
      "y": 407,
      "size": 1,
      "price": "1011000000000000000000",
      "reserved": "",
      "salt": "0xa86c00a4fc90fa396a2fe6c3a85bde923bf11fa72cd141473f31b3213d789b08",
      "assetIds": []
    },
    {
      "x": 238,
      "y": 387,
      "size": 1,
      "price": "4683000000000000000000",
      "reserved": "",
      "salt": "0x04f31b43221e8a1d723d0efe08cd7645388cd303eaede1c8636ad616a6f2d6c4",
      "assetIds": [
        "41506478881403507969696680653240014914910929820314476107906210059990541021186"
      ]
    },
    {
      "x": 238,
      "y": 388,
      "size": 1,
      "price": "4683000000000000000000",
      "reserved": "",
      "salt": "0x847d91c1c1acef91ed20b6c73879fe8d9e561f944d403ba9ea4b23774b930788",
      "assetIds": [
        "41506478881403507969696680653240014914910929820314476107906210059990541021186"
      ]
    },
    {
      "x": 238,
      "y": 389,
      "size": 1,
      "price": "4683000000000000000000",
      "reserved": "",
      "salt": "0x35772a261d490372b5ffbf22097797c93b3228105436ec907361fe3754592a6a",
      "assetIds": [
        "41506478881403507969696680653240014914910929820314476107906210059990541021186"
      ]
    },
    {
      "x": 238,
      "y": 399,
      "size": 1,
      "price": "1011000000000000000000",
      "reserved": "",
      "salt": "0xe51584aff7e2545f01a3661aec459dde21d8f3d23b8838c2a00b5964d30dc0db",
      "assetIds": []
    },
    {
      "x": 238,
      "y": 400,
      "size": 1,
      "price": "1011000000000000000000",
      "reserved": "",
      "salt": "0x80f9df3bd70098f9d19aa8696b1373de5a50daa4853b59aa4208f8aa4abd6114",
      "assetIds": []
    },
    {
      "x": 238,
      "y": 401,
      "size": 1,
      "price": "1011000000000000000000",
      "reserved": "",
      "salt": "0xca84446fa05ac56f8bc7cb3b7f4cfd834e5f4e9302bc4b62e7900c576dc54ce2",
      "assetIds": []
    },
    {
      "x": 238,
      "y": 402,
      "size": 1,
      "price": "1011000000000000000000",
      "reserved": "",
      "salt": "0xbc8488963afe6a5f4667bf5c0a30a96ea48d82458d8ea16cfa8ee334623e1425",
      "assetIds": []
    },
    {
      "x": 238,
      "y": 403,
      "size": 1,
      "price": "1011000000000000000000",
      "reserved": "",
      "salt": "0xd18277fa28909f480be06829cb8ad98e8a324183aaa3f0b849291bbd1cad15a4",
      "assetIds": []
    },
    {
      "x": 238,
      "y": 404,
      "size": 1,
      "price": "1011000000000000000000",
      "reserved": "",
      "salt": "0x4c251d4cf2a57a81df29a59d7046deb9d3fa2af590efed22a49d1f02ad42de42",
      "assetIds": []
    },
    {
      "x": 238,
      "y": 405,
      "size": 1,
      "price": "1011000000000000000000",
      "reserved": "",
      "salt": "0x96144170ecbdc70413d5140ccd96b6ac49451e25eaaa646d39039bec5b1871be",
      "assetIds": []
    },
    {
      "x": 238,
      "y": 406,
      "size": 1,
      "price": "1011000000000000000000",
      "reserved": "0x7a9fe22691c811ea339d9b73150e6911a5343dca",
      "salt": "0x133fb5467c4d43ee17e93178f6b1e4be61833b570859682b206fecc0c2e13f8a",
      "assetIds": []
    },
    {
      "x": 238,
      "y": 407,
      "size": 1,
      "price": "1011000000000000000000",
      "reserved": "",
      "salt": "0x12407fdb3153c161fe89ba1af4ce5cd1e7f4872a2c0d7e1cb12ce870c1f2c0ee",
      "assetIds": []
    },
    {
      "x": 239,
      "y": 387,
      "size": 1,
      "price": "4683000000000000000000",
      "reserved": "",
      "salt": "0x82da80bfb68bf7556fb7633991eec558cf5e9e7a3143008aefad67b47b9123b6",
      "assetIds": [
        "41506478881403507969696680653240014914910929820314476107906210059990541021186"
      ]
    },
    {
      "x": 239,
      "y": 388,
      "size": 1,
      "price": "4683000000000000000000",
      "reserved": "",
      "salt": "0x9192d7e49268afe41a2000c9c24ac245024a4ce8cfa687872c19cb63b8829f1a",
      "assetIds": [
        "41506478881403507969696680653240014914910929820314476107906210059990541021186"
      ]
    },
    {
      "x": 239,
      "y": 389,
      "size": 1,
      "price": "4683000000000000000000",
      "reserved": "",
      "salt": "0xc0d5e5b814c178a31500c939f367c3e9cf497f7978e67c878d99ccfc45539579",
      "assetIds": [
        "41506478881403507969696680653240014914910929820314476107906210059990541021186"
      ]
    },
    {
      "x": 239,
      "y": 399,
      "size": 1,
      "price": "1011000000000000000000",
      "reserved": "",
      "salt": "0x8a5475bc35d14dd96ca5879e5ee9d1caac1870b9cac8ee2a59d47988bbeb62f6",
      "assetIds": []
    },
    {
      "x": 239,
      "y": 400,
      "size": 1,
      "price": "1011000000000000000000",
      "reserved": "",
      "salt": "0x4599bb45ed2b0742b9b8d5b364e0c109c7a0553d33833ebecb84719f87522333",
      "assetIds": []
    },
    {
      "x": 239,
      "y": 401,
      "size": 1,
      "price": "1011000000000000000000",
      "reserved": "",
      "salt": "0xd3be660a5fe5f178170e79284335d61768e1272a391c80325cb018d6e5cf2d67",
      "assetIds": []
    },
    {
      "x": 239,
      "y": 402,
      "size": 1,
      "price": "1011000000000000000000",
      "reserved": "",
      "salt": "0xcbc347569491649c4cd21d69516e7ec2abf2ec2bb26c2bad9ff622fc86f4a00e",
      "assetIds": []
    },
    {
      "x": 239,
      "y": 403,
      "size": 1,
      "price": "1011000000000000000000",
      "reserved": "",
      "salt": "0x9332316a3bdd1ce0e5f20800c69435fe411a15b4e356151cf61e131391c9fa2a",
      "assetIds": []
    },
    {
      "x": 239,
      "y": 404,
      "size": 1,
      "price": "1011000000000000000000",
      "reserved": "",
      "salt": "0x813775e972a114c26fde68f66ef40150e9fb9e487f7e6c427811fb44151c0bdb",
      "assetIds": []
    },
    {
      "x": 239,
      "y": 405,
      "size": 1,
      "price": "1011000000000000000000",
      "reserved": "",
      "salt": "0x92d6436663354986460d2250331f79e44a8e77eeb6a8057fdb95604144659462",
      "assetIds": []
    },
    {
      "x": 239,
      "y": 406,
      "size": 1,
      "price": "1011000000000000000000",
      "reserved": "",
      "salt": "0xa7baa6729538413306673d699f55a70dd41ccbf2e8a39bf9659688833bc30513",
      "assetIds": []
    },
    {
      "x": 239,
      "y": 407,
      "size": 1,
      "price": "1011000000000000000000",
      "reserved": "",
      "salt": "0xda5273dcbca1a5323d5e5a190cdbd59a3df989e802d0f2f42f16e54b354020f0",
      "assetIds": []
    },
    {
      "x": 240,
      "y": 396,
      "size": 1,
      "price": "4683000000000000000000",
      "reserved": "",
      "salt": "0x4500f314357b7579bd20d70de6cc5bad45926c5e87e7581498ec2d099180a19e",
      "assetIds": [
        "41506478881403507969696680653240014914910929820314476107906210059990541021186"
      ]
    },
    {
      "x": 240,
      "y": 397,
      "size": 1,
      "price": "4683000000000000000000",
      "reserved": "",
      "salt": "0x400307c7ebdd9c732c5d59d99e3528f4fe6ce218bdef8cb29e23d96d4bc0583e",
      "assetIds": [
        "41506478881403507969696680653240014914910929820314476107906210059990541021186"
      ]
    },
    {
      "x": 240,
      "y": 398,
      "size": 1,
      "price": "4683000000000000000000",
      "reserved": "",
      "salt": "0x455b79698944f2ae55831340b8c964c46da85f2328751b4e75676dd22911be5d",
      "assetIds": [
        "41506478881403507969696680653240014914910929820314476107906210059990541021186"
      ]
    },
    {
      "x": 240,
      "y": 399,
      "size": 1,
      "price": "1011000000000000000000",
      "reserved": "",
      "salt": "0x45a762cf654149792475ee6bec5a5a8bf20abd46bf4809b16b9bbca4156a8487",
      "assetIds": []
    },
    {
      "x": 240,
      "y": 400,
      "size": 1,
      "price": "1011000000000000000000",
      "reserved": "0x7a9fe22691c811ea339d9b73150e6911a5343dca",
      "salt": "0x82d36a2ee365f6f960a18d316a4260534304d4ac085173cc2ccbb4a29f7d8734",
      "assetIds": []
    },
    {
      "x": 240,
      "y": 401,
      "size": 1,
      "price": "1011000000000000000000",
      "reserved": "",
      "salt": "0xe62af4672ca64993f2ce87e06b023c489f05a4d3a2d3b66aec4fbf71bfcf2820",
      "assetIds": []
    },
    {
      "x": 240,
      "y": 402,
      "size": 1,
      "price": "1011000000000000000000",
      "reserved": "",
      "salt": "0xad14c1d4d3fa4cfb04f26979e3331ee59484a39c497e03a64dd7b6316cb2db96",
      "assetIds": []
    },
    {
      "x": 240,
      "y": 403,
      "size": 1,
      "price": "1011000000000000000000",
      "reserved": "",
      "salt": "0x2afdf3d9b7b1cb9f240df0bf0fd7ac160b98289a13a5343467ca7ee8ecf6291e",
      "assetIds": []
    },
    {
      "x": 240,
      "y": 404,
      "size": 1,
      "price": "1011000000000000000000",
      "reserved": "",
      "salt": "0x3c781f78067c8206aa20f5c3066296f4bab1b4faab105041570a898fb06c15e2",
      "assetIds": []
    },
    {
      "x": 240,
      "y": 405,
      "size": 1,
      "price": "1011000000000000000000",
      "reserved": "",
      "salt": "0xc03937dcd54ac8510171e0744bf15d933c8967a7cb201b82f4a36ec3b698134e",
      "assetIds": []
    },
    {
      "x": 240,
      "y": 406,
      "size": 1,
      "price": "1011000000000000000000",
      "reserved": "",
      "salt": "0x965544cefba86b7955f05a3292f6de62a755aa5f6c04114b53a71955dad7022b",
      "assetIds": []
    },
    {
      "x": 240,
      "y": 407,
      "size": 1,
      "price": "1011000000000000000000",
      "reserved": "0x7a9fe22691c811ea339d9b73150e6911a5343dca",
      "salt": "0x5377eb207209a35724dfa7bd04c1682a5713fe6a37a9b52c96aeb48d49f68512",
      "assetIds": []
    },
    {
      "x": 241,
      "y": 396,
      "size": 1,
      "price": "4683000000000000000000",
      "reserved": "",
      "salt": "0xbb9945b726d46054a1c97865c96e2f17ac5895201bb547963926361d0750542b",
      "assetIds": [
        "41506478881403507969696680653240014914910929820314476107906210059990541021186"
      ]
    },
    {
      "x": 241,
      "y": 397,
      "size": 1,
      "price": "4683000000000000000000",
      "reserved": "",
      "salt": "0x99eff7c663d63fe49ee3ca682b41ba1594b05b3f77aeac687730388a00a9b932",
      "assetIds": [
        "41506478881403507969696680653240014914910929820314476107906210059990541021186"
      ]
    },
    {
      "x": 241,
      "y": 398,
      "size": 1,
      "price": "4683000000000000000000",
      "reserved": "",
      "salt": "0xc2d0c20ff91cd8f6315bca857f61be9b5a7b289e3af45d1928390ed4ef2e14ec",
      "assetIds": [
        "41506478881403507969696680653240014914910929820314476107906210059990541021186"
      ]
    },
    {
      "x": 241,
      "y": 399,
      "size": 1,
      "price": "1011000000000000000000",
      "reserved": "",
      "salt": "0x954117dc7a41633b7492f7b5a6ef88a2c569a120f671ab68230282b562c312e0",
      "assetIds": []
    },
    {
      "x": 241,
      "y": 400,
      "size": 1,
      "price": "1011000000000000000000",
      "reserved": "0x7a9fe22691c811ea339d9b73150e6911a5343dca",
      "salt": "0x154b458bb5e2e0c5b91d70df2ff64aefe9c8dc03838037cbcc20384ab72bd260",
      "assetIds": []
    },
    {
      "x": 241,
      "y": 401,
      "size": 1,
      "price": "1011000000000000000000",
      "reserved": "",
      "salt": "0x5f556063d9a8e45cf75ce052c45f1ba01330fabcc67b75bd218e7a60c53f9258",
      "assetIds": []
    },
    {
      "x": 241,
      "y": 402,
      "size": 1,
      "price": "1011000000000000000000",
      "reserved": "",
      "salt": "0xf8babe7913c403ad59b325823c14fd838ef1bdd3e236acc4890cd8825a381330",
      "assetIds": []
    },
    {
      "x": 241,
      "y": 403,
      "size": 1,
      "price": "1011000000000000000000",
      "reserved": "",
      "salt": "0x98b9b4d77e6461e99c12739bd57d00b5e8a41442dada64b3584dadbcffe2f7d4",
      "assetIds": []
    },
    {
      "x": 241,
      "y": 404,
      "size": 1,
      "price": "1011000000000000000000",
      "reserved": "",
      "salt": "0x291d573c7b43a85ec2e6d0ef3825d7347e7d66fd28309a5aa8fd8a83b357f2f7",
      "assetIds": []
    },
    {
      "x": 241,
      "y": 405,
      "size": 1,
      "price": "1011000000000000000000",
      "reserved": "",
      "salt": "0xaec7c6857eecf6f66c8c1a2b37378446ca0142a42c76e7887f7e9ee2c10b40f8",
      "assetIds": []
    },
    {
      "x": 241,
      "y": 406,
      "size": 1,
      "price": "1011000000000000000000",
      "reserved": "",
      "salt": "0x23051a663da121a2cbc38fccd662bd35894f354bb02ecc360ab38253f9b44c75",
      "assetIds": []
    },
    {
      "x": 241,
      "y": 407,
      "size": 1,
      "price": "1011000000000000000000",
      "reserved": "",
      "salt": "0x9cdd9a0469858c26c2a3839a1df12d7542f661e0ca10443a79f4b2a851f226e8",
      "assetIds": []
    },
    {
      "x": 242,
      "y": 396,
      "size": 1,
      "price": "4683000000000000000000",
      "reserved": "",
      "salt": "0xee2c2408ff95ebfca885a10c2d0db0108387456fb7e890a05982d4b89b0626cd",
      "assetIds": [
        "41506478881403507969696680653240014914910929820314476107906210059990541021186"
      ]
    },
    {
      "x": 242,
      "y": 397,
      "size": 1,
      "price": "4683000000000000000000",
      "reserved": "",
      "salt": "0x4ced50bb7d3a13d4bf3996fa9928602399a2607e6b6265da8075bd126ac96277",
      "assetIds": [
        "41506478881403507969696680653240014914910929820314476107906210059990541021186"
      ]
    },
    {
      "x": 242,
      "y": 398,
      "size": 1,
      "price": "4683000000000000000000",
      "reserved": "",
      "salt": "0x4e75d85171710561417617152d578a8084b15f088ec84b078bfbde67ce9e7c60",
      "assetIds": [
        "41506478881403507969696680653240014914910929820314476107906210059990541021186"
      ]
    },
    {
      "x": 242,
      "y": 399,
      "size": 1,
      "price": "1011000000000000000000",
      "reserved": "",
      "salt": "0x53ed8e6d10bb5f2adf33c530d9ca63c3104c66e923d01455861986937a867caa",
      "assetIds": []
    },
    {
      "x": 242,
      "y": 400,
      "size": 1,
      "price": "1011000000000000000000",
      "reserved": "",
      "salt": "0xd3905d1c993cf51c15a237460ea968fb686f10819ac8e39a77b7e4d9c7d40262",
      "assetIds": []
    },
    {
      "x": 242,
      "y": 401,
      "size": 1,
      "price": "1011000000000000000000",
      "reserved": "",
      "salt": "0xb7c13a323a376daf1f2a407177ee8b01a87b282ac71fe480b6f1b463708a8bf1",
      "assetIds": []
    },
    {
      "x": 242,
      "y": 402,
      "size": 1,
      "price": "1011000000000000000000",
      "reserved": "",
      "salt": "0x776fc39c55bb94c52d0696e4bac12d3b13829bd554f50c850bfc2af665b63084",
      "assetIds": []
    },
    {
      "x": 242,
      "y": 403,
      "size": 1,
      "price": "1011000000000000000000",
      "reserved": "0x7a9fe22691c811ea339d9b73150e6911a5343dca",
      "salt": "0x2d02bd3a8012f191077075fbf2a79c4d693ebaad63b7d07668de7774d8dde844",
      "assetIds": []
    },
    {
      "x": 242,
      "y": 404,
      "size": 1,
      "price": "1011000000000000000000",
      "reserved": "0x7a9fe22691c811ea339d9b73150e6911a5343dca",
      "salt": "0x83bb367029d119e425b7985d36720ef6037b737e02da31fc7966f09cae394a5e",
      "assetIds": []
    },
    {
      "x": 242,
      "y": 405,
      "size": 1,
      "price": "1011000000000000000000",
      "reserved": "",
      "salt": "0x46618208a94c9fdf2c17d8e67e3015aaae60231f6c9c93e2edd6c89fe02464bb",
      "assetIds": []
    },
    {
      "x": 242,
      "y": 406,
      "size": 1,
      "price": "1011000000000000000000",
      "reserved": "",
      "salt": "0x56f67bef39c4094243493a90610b35a70709b3ddef4155d30ecc32a667c459d0",
      "assetIds": []
    },
    {
      "x": 242,
      "y": 407,
      "size": 1,
      "price": "1011000000000000000000",
      "reserved": "",
      "salt": "0xf9731770ce2112ac7831ae1560a7eadaccf76003b9527e15a3dd2dfc0d24522c",
      "assetIds": []
    },
    {
      "x": 243,
      "y": 360,
      "size": 1,
      "price": "4683000000000000000000",
      "reserved": "",
      "salt": "0x449306c941eb98f141979d2807f911d4baee38c56c4ab5c1e1994933c43bd335",
      "assetIds": [
        "41506478881403507969696680653240014914910929820314476107906210059990541021186"
      ]
    },
    {
      "x": 243,
      "y": 361,
      "size": 1,
      "price": "1011000000000000000000",
      "reserved": "",
      "salt": "0x0d163177835d166bfd2cbb3cb15456b831dd2914a8845c784e6ba713b80a1ae6",
      "assetIds": []
    },
    {
      "x": 243,
      "y": 362,
      "size": 1,
      "price": "1011000000000000000000",
      "reserved": "0x7a9fe22691c811ea339d9b73150e6911a5343dca",
      "salt": "0x3b66b8d74ccf901c354bc5d12131c54600f04aa89e40e093adc6ced941c3be07",
      "assetIds": []
    },
    {
      "x": 243,
      "y": 363,
      "size": 1,
      "price": "1011000000000000000000",
      "reserved": "",
      "salt": "0x3f2e02fa156d0a972038b31a18d6d0844db6bac813ade40c722e31e048d8aa68",
      "assetIds": []
    },
    {
      "x": 243,
      "y": 364,
      "size": 1,
      "price": "1011000000000000000000",
      "reserved": "",
      "salt": "0x3872d7ca396340dc3b948be881ff40b94c770fd3d1e6179eb29cbd0b5e25fc04",
      "assetIds": []
    },
    {
      "x": 243,
      "y": 365,
      "size": 1,
      "price": "1011000000000000000000",
      "reserved": "0x7a9fe22691c811ea339d9b73150e6911a5343dca",
      "salt": "0x94f89ac6a0b688ca838eddc1dcf0e065caf1a89960e806463593ab2501a393de",
      "assetIds": []
    },
    {
      "x": 243,
      "y": 366,
      "size": 1,
      "price": "1011000000000000000000",
      "reserved": "",
      "salt": "0x1bf77ee136669923c0891096a14e095dc3d41720afbc2023190e3a76c7f69a80",
      "assetIds": []
    },
    {
      "x": 243,
      "y": 367,
      "size": 1,
      "price": "1011000000000000000000",
      "reserved": "",
      "salt": "0xa1bac9c43cef5a5bf7bfa0afbe360263672961230a72889ed16ffc7e0a331702",
      "assetIds": []
    },
    {
      "x": 243,
      "y": 368,
      "size": 1,
      "price": "1011000000000000000000",
      "reserved": "",
      "salt": "0x9bf0bfdc679f47018a5b148701cc2743c0969b8f4d0acb9dd0380e69743fab1b",
      "assetIds": []
    },
    {
      "x": 243,
      "y": 369,
      "size": 1,
      "price": "1011000000000000000000",
      "reserved": "",
      "salt": "0x4a3c3f98c61d10c23a58c142522ab98a1f5618106547a19658a255c4e882a2df",
      "assetIds": []
    },
    {
      "x": 243,
      "y": 370,
      "size": 1,
      "price": "1011000000000000000000",
      "reserved": "0x7a9fe22691c811ea339d9b73150e6911a5343dca",
      "salt": "0x39439b591c96996409115cc558784805d1822c42d9a5beeb4bd18dc93208923d",
      "assetIds": []
    },
    {
      "x": 243,
      "y": 371,
      "size": 1,
      "price": "1011000000000000000000",
      "reserved": "",
      "salt": "0x4683259317abebc7c3a5ff051f14123b912f15f2a11daea6528bc1d89b6455dd",
      "assetIds": []
    },
    {
      "x": 243,
      "y": 372,
      "size": 1,
      "price": "1011000000000000000000",
      "reserved": "",
      "salt": "0x62b6f295783ca8b1327a557a71c09f58383ecaa76ee278e36ec6d9b56b289118",
      "assetIds": []
    },
    {
      "x": 243,
      "y": 373,
      "size": 1,
      "price": "1011000000000000000000",
      "reserved": "",
      "salt": "0x1f4baf4497de857bc14848628f4edb686d831712fd0d829c9543a2ec4bd1e0ee",
      "assetIds": []
    },
    {
      "x": 243,
      "y": 374,
      "size": 1,
      "price": "1011000000000000000000",
      "reserved": "",
      "salt": "0x6b6ab488edf498f9529ca90cab05a0f73811f689a4a8a0c47422ed7c8c2b1d63",
      "assetIds": []
    },
    {
      "x": 243,
      "y": 375,
      "size": 1,
      "price": "1011000000000000000000",
      "reserved": "",
      "salt": "0x9f956ffba22f5ab9d1a0fc2069e3b24915227d33d681714e08634097f32f8b5b",
      "assetIds": []
    },
    {
      "x": 243,
      "y": 376,
      "size": 1,
      "price": "1011000000000000000000",
      "reserved": "",
      "salt": "0xe6d2ee9896c8f4a24d6075dd2e80b6273da9e81a514bd0fb5074ddcba34d075b",
      "assetIds": []
    },
    {
      "x": 243,
      "y": 377,
      "size": 1,
      "price": "1011000000000000000000",
      "reserved": "",
      "salt": "0x6fc08c453953e9bd560d2ee36fe6564eaad4deb0e9d6a76b0094534e1ce35e78",
      "assetIds": []
    },
    {
      "x": 243,
      "y": 378,
      "size": 1,
      "price": "1011000000000000000000",
      "reserved": "",
      "salt": "0xcc6543a84e2113a16645c8e79c4f5925e2c2c0ece8840f372624a9c52432cbf7",
      "assetIds": []
    },
    {
      "x": 243,
      "y": 379,
      "size": 1,
      "price": "1011000000000000000000",
      "reserved": "0x7a9fe22691c811ea339d9b73150e6911a5343dca",
      "salt": "0xa5d65b59c148a8912c7b2590285945c775866c4bb22a23f7184cf002b9b4ca61",
      "assetIds": []
    },
    {
      "x": 243,
      "y": 380,
      "size": 1,
      "price": "1011000000000000000000",
      "reserved": "",
      "salt": "0xb933fb472e2b0a49a4aab0958e615c7279b0e4c83ed73c9dd1f2505acaa14fb8",
      "assetIds": []
    },
    {
      "x": 243,
      "y": 381,
      "size": 1,
      "price": "1011000000000000000000",
      "reserved": "",
      "salt": "0x6360ff47cab8cfe168cd26fdc4b863cbbafe2908e60228a97f76488d53624f3d",
      "assetIds": []
    },
    {
      "x": 243,
      "y": 382,
      "size": 1,
      "price": "4683000000000000000000",
      "reserved": "",
      "salt": "0x69107aa15918965c19381dea90058b58d9de4c9fcaabaa4a0600f9f14fcceacd",
      "assetIds": [
        "41506478881403507969696680653240014914910929820314476107906210059990541021186"
      ]
    },
    {
      "x": 243,
      "y": 383,
      "size": 1,
      "price": "4683000000000000000000",
      "reserved": "",
      "salt": "0x8dce336897167538fedfbee2bbf89bd6a6c770e35019109fa95bac07bc95115d",
      "assetIds": [
        "41506478881403507969696680653240014914910929820314476107906210059990541021186"
      ]
    },
    {
      "x": 243,
      "y": 399,
      "size": 1,
      "price": "1011000000000000000000",
      "reserved": "0x7a9fe22691c811ea339d9b73150e6911a5343dca",
      "salt": "0x9f449b26119fce55f73fa50f7ff7b1c215c95d8b09ac4e55b16670f95af5a17d",
      "assetIds": []
    },
    {
      "x": 243,
      "y": 400,
      "size": 1,
      "price": "1011000000000000000000",
      "reserved": "",
      "salt": "0x6d27e9e8645bffb83fa195a1147fceb2045042b76c30d833316ebe2284fd2b0f",
      "assetIds": []
    },
    {
      "x": 243,
      "y": 401,
      "size": 1,
      "price": "1011000000000000000000",
      "reserved": "",
      "salt": "0xc84f9936ea95e8541374f9837490bc55a8fb8884f745989a4e94d5cd80398bb4",
      "assetIds": []
    },
    {
      "x": 243,
      "y": 402,
      "size": 1,
      "price": "1011000000000000000000",
      "reserved": "",
      "salt": "0x588e80735c0bc65c35fff3caa782eea7efda0f9f01429090430f22147eaa1382",
      "assetIds": []
    },
    {
      "x": 243,
      "y": 403,
      "size": 1,
      "price": "1011000000000000000000",
      "reserved": "",
      "salt": "0xd114ee706da98416e2e12c179aa0a927dbb0ed541eaf6a7e8a907e6f83e6d334",
      "assetIds": []
    },
    {
      "x": 243,
      "y": 404,
      "size": 1,
      "price": "1011000000000000000000",
      "reserved": "",
      "salt": "0x57ace7247d4106e8caa5b5ef9a8a5104d380d76e7b8c14cfba33e19e2d5722d1",
      "assetIds": []
    },
    {
      "x": 243,
      "y": 405,
      "size": 1,
      "price": "1011000000000000000000",
      "reserved": "",
      "salt": "0x96f1f6b3a87ad02dba13696320ba7d41248f3b92a1d05b13479eb25b89edfe29",
      "assetIds": []
    },
    {
      "x": 243,
      "y": 406,
      "size": 1,
      "price": "1011000000000000000000",
      "reserved": "",
      "salt": "0x3316729aff6e525f6ee368cfa3e06d62bc215ffa8f1c25cbbe2385a9bdd3e222",
      "assetIds": []
    },
    {
      "x": 243,
      "y": 407,
      "size": 1,
      "price": "1011000000000000000000",
      "reserved": "",
      "salt": "0x4f6cb24569f98b7a2b26a9cae49dbdb20ab59296fbd98904f45565670cc27edc",
      "assetIds": []
    },
    {
      "x": 244,
      "y": 360,
      "size": 1,
      "price": "4683000000000000000000",
      "reserved": "",
      "salt": "0x8a5fd3afb30beb3fd761408985d8bcca67dd904369713ddd2210c29c7502f9a8",
      "assetIds": [
        "41506478881403507969696680653240014914910929820314476107906210059990541021186"
      ]
    },
    {
      "x": 244,
      "y": 361,
      "size": 1,
      "price": "1011000000000000000000",
      "reserved": "",
      "salt": "0x0b55f74540b0a03bbbc381e96674328d2ac99f95c306c9948f12a1bb7856720c",
      "assetIds": []
    },
    {
      "x": 244,
      "y": 362,
      "size": 1,
      "price": "1011000000000000000000",
      "reserved": "",
      "salt": "0x7a019c19dd90412174c8be85380aaaa5d90d1666f8ec0cade6427a891dfdbbec",
      "assetIds": []
    },
    {
      "x": 244,
      "y": 363,
      "size": 1,
      "price": "1011000000000000000000",
      "reserved": "",
      "salt": "0xb17bc5af6ba7f9a8ea530c001d8d7b25bb04b8b52bd94a391af0c4ca9978016d",
      "assetIds": []
    },
    {
      "x": 244,
      "y": 364,
      "size": 1,
      "price": "1011000000000000000000",
      "reserved": "",
      "salt": "0x13a0274ffe44209ed8ab3e607b8645ca19438612ccf29d72ad490f3c9059d9f7",
      "assetIds": []
    },
    {
      "x": 244,
      "y": 365,
      "size": 1,
      "price": "1011000000000000000000",
      "reserved": "",
      "salt": "0x86d0759731cb564e39cf3f8b6846eae3feadec7a298f081becbd531c408a9676",
      "assetIds": []
    },
    {
      "x": 244,
      "y": 366,
      "size": 1,
      "price": "1011000000000000000000",
      "reserved": "",
      "salt": "0xbfcf9333d81efb7110a0984bcefdb5b99559f651b59ce68b8150ed27e63f9ed8",
      "assetIds": []
    },
    {
      "x": 244,
      "y": 367,
      "size": 1,
      "price": "1011000000000000000000",
      "reserved": "0x7a9fe22691c811ea339d9b73150e6911a5343dca",
      "salt": "0x2e38810a7af3322282b5286c3d7b3cb8e37b1be2925a3bde751e7e33574c579e",
      "assetIds": []
    },
    {
      "x": 244,
      "y": 368,
      "size": 1,
      "price": "1011000000000000000000",
      "reserved": "",
      "salt": "0x959c4e8b5871425eea2500360b207115928b261df056e02bfa2fa156c9340c13",
      "assetIds": []
    },
    {
      "x": 244,
      "y": 369,
      "size": 1,
      "price": "1011000000000000000000",
      "reserved": "",
      "salt": "0xf7c7a7c1e0559b803815032245e8c28db89e7862240ab70cf4f398ece60e4e49",
      "assetIds": []
    },
    {
      "x": 244,
      "y": 370,
      "size": 1,
      "price": "1011000000000000000000",
      "reserved": "0x7a9fe22691c811ea339d9b73150e6911a5343dca",
      "salt": "0xbf102bf35b402c5fcd4d492268a1cc027fc8d9e4f30002b95dd7abc36a8f0aa3",
      "assetIds": []
    },
    {
      "x": 244,
      "y": 371,
      "size": 1,
      "price": "1011000000000000000000",
      "reserved": "",
      "salt": "0x7598edb5d398ae43442dc3801dd49eb2c7da76763b7088d3b16e7a2193667f25",
      "assetIds": []
    },
    {
      "x": 244,
      "y": 372,
      "size": 1,
      "price": "1011000000000000000000",
      "reserved": "",
      "salt": "0xc2f377de331af238bbe18a402f93e4797e462ec667e661580fb4f01dc40f6b19",
      "assetIds": []
    },
    {
      "x": 244,
      "y": 373,
      "size": 1,
      "price": "1011000000000000000000",
      "reserved": "0x7a9fe22691c811ea339d9b73150e6911a5343dca",
      "salt": "0x1c8812fa2bbb70e7eb4ab8ff7130d3af438d2b13261d5d793a7f214b28a8fcab",
      "assetIds": []
    },
    {
      "x": 244,
      "y": 374,
      "size": 1,
      "price": "1011000000000000000000",
      "reserved": "",
      "salt": "0x6bfb0a342ae1ee1e6facf8dab0b298dc784e0d1b8d67d33400a4e2b9e2bc27c9",
      "assetIds": []
    },
    {
      "x": 244,
      "y": 375,
      "size": 1,
      "price": "1011000000000000000000",
      "reserved": "0x7a9fe22691c811ea339d9b73150e6911a5343dca",
      "salt": "0xb6420ef1e137f29778eeeefa92fe557470328adf552f2e6193ea0e8dfaafed5b",
      "assetIds": []
    },
    {
      "x": 244,
      "y": 376,
      "size": 1,
      "price": "1011000000000000000000",
      "reserved": "0x7a9fe22691c811ea339d9b73150e6911a5343dca",
      "salt": "0xd477a8bacd4dbb763b4eca9b28d896fd2f13312e3782c9fc88bb4c80199c28dd",
      "assetIds": []
    },
    {
      "x": 244,
      "y": 377,
      "size": 1,
      "price": "1011000000000000000000",
      "reserved": "",
      "salt": "0xcfc1428f7aaec7f03ccb6c7e5f2f97a3cc438c182c843a138fefed3882d6b926",
      "assetIds": []
    },
    {
      "x": 244,
      "y": 378,
      "size": 1,
      "price": "1011000000000000000000",
      "reserved": "",
      "salt": "0x9b6f95ee2a759a3fcb469c69c77453c9afa5e1dc1922cebd7c5ed7d18b1a1bdf",
      "assetIds": []
    },
    {
      "x": 244,
      "y": 379,
      "size": 1,
      "price": "1011000000000000000000",
      "reserved": "",
      "salt": "0x3c622062e89ffdd480e9eb55f4324f3ffe5e7f25514a2f1a3fdd3b5af391eb05",
      "assetIds": []
    },
    {
      "x": 244,
      "y": 380,
      "size": 1,
      "price": "1011000000000000000000",
      "reserved": "",
      "salt": "0x9ba304480743601d7b423254d6f8a33f345506d6c67cfac6b4dab0a1469946d3",
      "assetIds": []
    },
    {
      "x": 244,
      "y": 381,
      "size": 1,
      "price": "4683000000000000000000",
      "reserved": "",
      "salt": "0x1ee4902c4bdc84b56f324007eff7c3fb93ff90961f28d31660484c57b8925a5b",
      "assetIds": [
        "41506478881403507969696680653240014914910929820314476107906210059990541021186"
      ]
    },
    {
      "x": 244,
      "y": 382,
      "size": 1,
      "price": "4683000000000000000000",
      "reserved": "",
      "salt": "0x9b45099b64bb11079b9a39fef9c9099e9c6f1a5bbd9298ab934164a6ffc779d4",
      "assetIds": [
        "41506478881403507969696680653240014914910929820314476107906210059990541021186"
      ]
    },
    {
      "x": 244,
      "y": 383,
      "size": 1,
      "price": "4683000000000000000000",
      "reserved": "",
      "salt": "0x2bfce2447d30cda8b519c72c6ef4c9cc5b294601c4934051c0d23a6d05b2e9ea",
      "assetIds": [
        "41506478881403507969696680653240014914910929820314476107906210059990541021186"
      ]
    },
    {
      "x": 244,
      "y": 399,
      "size": 1,
      "price": "1011000000000000000000",
      "reserved": "",
      "salt": "0xbe582f5553ddf1cf47f42c8387883cad188f5cce984c5c8accf8684a0585aeb2",
      "assetIds": []
    },
    {
      "x": 244,
      "y": 400,
      "size": 1,
      "price": "1011000000000000000000",
      "reserved": "",
      "salt": "0xd8707010c7edb1c0beb4f3309f4b02094b9d7e3f1671004943e742d382aa38e0",
      "assetIds": []
    },
    {
      "x": 244,
      "y": 401,
      "size": 1,
      "price": "1011000000000000000000",
      "reserved": "",
      "salt": "0x2b479eebcad4f8d039e57c6bd9f769c0569db8af22aa2997cbe7bcb80cd33cb3",
      "assetIds": []
    },
    {
      "x": 244,
      "y": 402,
      "size": 1,
      "price": "1011000000000000000000",
      "reserved": "",
      "salt": "0x53357cd893ae2408f132ad7a6824b9ab6389d4f8aca9152d27a0124aa793ef50",
      "assetIds": []
    },
    {
      "x": 244,
      "y": 403,
      "size": 1,
      "price": "1011000000000000000000",
      "reserved": "",
      "salt": "0xca708598aa81dbb203b88f2606ecea2f50dfee70271d06c53f00b41636d307d5",
      "assetIds": []
    },
    {
      "x": 244,
      "y": 404,
      "size": 1,
      "price": "1011000000000000000000",
      "reserved": "",
      "salt": "0x2027af3c1d01318949fc4f610c5c12ed9d4bdb0157cedcb3ac91d7f038c1d57e",
      "assetIds": []
    },
    {
      "x": 244,
      "y": 405,
      "size": 1,
      "price": "1011000000000000000000",
      "reserved": "0x7a9fe22691c811ea339d9b73150e6911a5343dca",
      "salt": "0xc263d3d879e072bb6dd600ecfecd999e857168c7a2a5e91ce6da8c40d012812f",
      "assetIds": []
    },
    {
      "x": 244,
      "y": 406,
      "size": 1,
      "price": "1011000000000000000000",
      "reserved": "",
      "salt": "0x35464d5bdca5d8e8f678616c5dae2c0b2d561e961f3e0ea4a065d777da763864",
      "assetIds": []
    },
    {
      "x": 244,
      "y": 407,
      "size": 1,
      "price": "1011000000000000000000",
      "reserved": "",
      "salt": "0x1c9d681b13b1c9d1788b19ad402523637e2bdcb0891ab1488e7b78f177477aaf",
      "assetIds": []
    },
    {
      "x": 245,
      "y": 360,
      "size": 1,
      "price": "4683000000000000000000",
      "reserved": "",
      "salt": "0xbe9f1023a6540a4d4306d3ab0874912517bf7a277743ff51550949449cb6898d",
      "assetIds": [
        "41506478881403507969696680653240014914910929820314476107906210059990541021186"
      ]
    },
    {
      "x": 245,
      "y": 361,
      "size": 1,
      "price": "1011000000000000000000",
      "reserved": "0x7a9fe22691c811ea339d9b73150e6911a5343dca",
      "salt": "0xbd892cfe1e5f196ff7271f9423245b0b95c4902c333803a15fc00e6aa618bee5",
      "assetIds": []
    },
    {
      "x": 245,
      "y": 362,
      "size": 1,
      "price": "1011000000000000000000",
      "reserved": "",
      "salt": "0x629023204885ab202198ca864e0698b3b5e9da9406e14b59fee6fe2766c267c7",
      "assetIds": []
    },
    {
      "x": 245,
      "y": 363,
      "size": 1,
      "price": "1011000000000000000000",
      "reserved": "",
      "salt": "0x45b74d5d151be12f3e038b152d5436cc9c9f72a637904e5a768e5fc9b19fd070",
      "assetIds": []
    },
    {
      "x": 245,
      "y": 364,
      "size": 1,
      "price": "1011000000000000000000",
      "reserved": "",
      "salt": "0xf57457a5757b4dc0d067742efed8b64de4cc93a88d1bc802d3eee555ec144601",
      "assetIds": []
    },
    {
      "x": 245,
      "y": 365,
      "size": 1,
      "price": "1011000000000000000000",
      "reserved": "",
      "salt": "0xe8bd57541ec79d7bfc0193039783b87d7c2d4ca59208187e82f49bfea193d9c0",
      "assetIds": []
    },
    {
      "x": 245,
      "y": 366,
      "size": 1,
      "price": "1011000000000000000000",
      "reserved": "",
      "salt": "0xa5eac563cd1f0a7193aa0dd95ce3a2b778818468326380ea454b32f15cc8cced",
      "assetIds": []
    },
    {
      "x": 245,
      "y": 367,
      "size": 1,
      "price": "1011000000000000000000",
      "reserved": "",
      "salt": "0x1b75f2d71447a41a18c152c711b7893fab3b188119fefcbbf211fa6f4a18857b",
      "assetIds": []
    },
    {
      "x": 245,
      "y": 368,
      "size": 1,
      "price": "1011000000000000000000",
      "reserved": "",
      "salt": "0x0ad90fdc253d60a8b9790dcaf9d897ea99c791edcd3402e2820dd4b22a72d54d",
      "assetIds": []
    },
    {
      "x": 245,
      "y": 369,
      "size": 1,
      "price": "1011000000000000000000",
      "reserved": "",
      "salt": "0x0ccf460da5e0dbcf9e117ddc5d630a424fb4dc33300aaececf2b766dbd78ac02",
      "assetIds": []
    },
    {
      "x": 245,
      "y": 370,
      "size": 1,
      "price": "1011000000000000000000",
      "reserved": "",
      "salt": "0x7c0bb335aa4ab59d92d8ffeef2a76ca10997f318125b6099628ef52eb759ef24",
      "assetIds": []
    },
    {
      "x": 245,
      "y": 371,
      "size": 1,
      "price": "1011000000000000000000",
      "reserved": "",
      "salt": "0x5d8c3a34c939a836aa03ef568dcd1c28eb9c650a27d5e1ccaf68178be485d149",
      "assetIds": []
    },
    {
      "x": 245,
      "y": 372,
      "size": 1,
      "price": "1011000000000000000000",
      "reserved": "",
      "salt": "0x08501bd8acca974a360855c42db222e8021722385386f6ca2ebe9deb533d340d",
      "assetIds": []
    },
    {
      "x": 245,
      "y": 373,
      "size": 1,
      "price": "1011000000000000000000",
      "reserved": "0x7a9fe22691c811ea339d9b73150e6911a5343dca",
      "salt": "0xa84d8abbdc88ab60d84fa81d1e58a170dcc8304cd095141e04e314d15516ceae",
      "assetIds": []
    },
    {
      "x": 245,
      "y": 374,
      "size": 1,
      "price": "1011000000000000000000",
      "reserved": "",
      "salt": "0x8d002c45fe3df7e18236d56e5855dddff124ed08b41f29f06face32521af0c64",
      "assetIds": []
    },
    {
      "x": 245,
      "y": 375,
      "size": 1,
      "price": "1011000000000000000000",
      "reserved": "",
      "salt": "0x8bd185a2f6d20cd18717c036102dacbc33c05319bbc45a9e3c2edb938fe5c5c1",
      "assetIds": []
    },
    {
      "x": 245,
      "y": 376,
      "size": 1,
      "price": "1011000000000000000000",
      "reserved": "",
      "salt": "0xf42ed38b05a6e049f328aebf1a44e23e4ced00d96e1dd5b3b08497ab6a2c4dd8",
      "assetIds": []
    },
    {
      "x": 245,
      "y": 377,
      "size": 1,
      "price": "1011000000000000000000",
      "reserved": "",
      "salt": "0x44f4bc9ba6dacd80f44c6fa8c24ef8784b7a6d8bbc1878f4a2888b8e9a30b0d3",
      "assetIds": []
    },
    {
      "x": 245,
      "y": 378,
      "size": 1,
      "price": "1011000000000000000000",
      "reserved": "",
      "salt": "0xe05c753952e3c465aed91f7a70a1d4959a6c2e478e369827bdb83f0edac31abc",
      "assetIds": []
    },
    {
      "x": 245,
      "y": 379,
      "size": 1,
      "price": "1011000000000000000000",
      "reserved": "",
      "salt": "0xed0ab34095451264ab7ec76735c9cb555b5654825c9b70c48d1a14dc54205170",
      "assetIds": []
    },
    {
      "x": 245,
      "y": 380,
      "size": 1,
      "price": "1011000000000000000000",
      "reserved": "",
      "salt": "0x2e25cd1375e54e6cbf325aeab56186e1607a093cb33f7794ad65c60a06e26abb",
      "assetIds": []
    },
    {
      "x": 245,
      "y": 381,
      "size": 1,
      "price": "4683000000000000000000",
      "reserved": "",
      "salt": "0x4616de63eacda0f0f89abe345ceeb65ec896745a85b8ea2f5ba3b7891d235823",
      "assetIds": [
        "41506478881403507969696680653240014914910929820314476107906210059990541021186"
      ]
    },
    {
      "x": 245,
      "y": 382,
      "size": 1,
      "price": "4683000000000000000000",
      "reserved": "",
      "salt": "0x155a16ec1326b0c8a5ff7c9928046a67c03c684f5959a5da68adf3c9353455a0",
      "assetIds": [
        "41506478881403507969696680653240014914910929820314476107906210059990541021186"
      ]
    },
    {
      "x": 245,
      "y": 383,
      "size": 1,
      "price": "4683000000000000000000",
      "reserved": "",
      "salt": "0x2f6fa8f81049d0c7727491ee6fac05a51e6a15ef9fe8a33dbff7203b422fbbed",
      "assetIds": [
        "41506478881403507969696680653240014914910929820314476107906210059990541021186"
      ]
    },
    {
      "x": 245,
      "y": 399,
      "size": 1,
      "price": "1011000000000000000000",
      "reserved": "0x7a9fe22691c811ea339d9b73150e6911a5343dca",
      "salt": "0xe1142aad97138f1c57429d5aafa3dee7c0689521f18aa389b48cbfa09ea292a8",
      "assetIds": []
    },
    {
      "x": 245,
      "y": 400,
      "size": 1,
      "price": "1011000000000000000000",
      "reserved": "",
      "salt": "0x22c9c9b001a894997ec4fbed64c233f27330dfb848a7dbe1cc6b2cf222dcb0d1",
      "assetIds": []
    },
    {
      "x": 245,
      "y": 401,
      "size": 1,
      "price": "1011000000000000000000",
      "reserved": "0x7a9fe22691c811ea339d9b73150e6911a5343dca",
      "salt": "0x1b427a989d9190befcbb95f76b24bfd066201bf5d494fb0baf04af45d00ccb9a",
      "assetIds": []
    },
    {
      "x": 245,
      "y": 402,
      "size": 1,
      "price": "1011000000000000000000",
      "reserved": "",
      "salt": "0xf5c8090a76463aaa19eacb037e3aaa8ae915d7bb522cd8acd64763d90d5758d9",
      "assetIds": []
    },
    {
      "x": 245,
      "y": 403,
      "size": 1,
      "price": "1011000000000000000000",
      "reserved": "0x7a9fe22691c811ea339d9b73150e6911a5343dca",
      "salt": "0xd6e7458303850751f5d8beafcb789a643cafd3de44fe5916f1b27a5e61eb0be3",
      "assetIds": []
    },
    {
      "x": 245,
      "y": 404,
      "size": 1,
      "price": "1011000000000000000000",
      "reserved": "",
      "salt": "0x48bb0630763d4380210ce8cba0f598b9f8a0e32dd0587e0c2373e4a0bc047215",
      "assetIds": []
    },
    {
      "x": 245,
      "y": 405,
      "size": 1,
      "price": "1011000000000000000000",
      "reserved": "",
      "salt": "0x1bd14cfbb72bff70ec284e9c89f9668d2bc05d33e51c78a9a6bb417d20f6282f",
      "assetIds": []
    },
    {
      "x": 245,
      "y": 406,
      "size": 1,
      "price": "1011000000000000000000",
      "reserved": "",
      "salt": "0xb6e669a6d9031b5b05bc8af8fda8ff8332dc300d843849782df82b469f5ccdc6",
      "assetIds": []
    },
    {
      "x": 245,
      "y": 407,
      "size": 1,
      "price": "1011000000000000000000",
      "reserved": "",
      "salt": "0xe812ad6b3c55f2e21059fcddb5c39aeda432bd9b9dd673927329f8a295fe0222",
      "assetIds": []
    },
    {
      "x": 246,
      "y": 360,
      "size": 1,
      "price": "4683000000000000000000",
      "reserved": "",
      "salt": "0x574a558d7ddd2860d77f932184842f761f837a9994ac8fa1e4e0bbcb5c65282a",
      "assetIds": [
        "41506478881403507969696680653240014914910929820314476107906210059990541021186"
      ]
    },
    {
      "x": 246,
      "y": 361,
      "size": 1,
      "price": "1011000000000000000000",
      "reserved": "",
      "salt": "0xf9173e8cc5adbba3dce92fc3d3d597e43735d33fb5f04df30c7dc34ce8954c11",
      "assetIds": []
    },
    {
      "x": 246,
      "y": 362,
      "size": 1,
      "price": "1011000000000000000000",
      "reserved": "",
      "salt": "0x63ca27e62e22a21f3452a27bd276e3acc73b26adeb10110c4ff7ce531fd68385",
      "assetIds": []
    },
    {
      "x": 246,
      "y": 363,
      "size": 1,
      "price": "1011000000000000000000",
      "reserved": "",
      "salt": "0x3e70d86559ec2e66c781b5eb4e41e93239efd27eb28987a0cff4ec5db43a31a0",
      "assetIds": []
    },
    {
      "x": 246,
      "y": 364,
      "size": 1,
      "price": "1011000000000000000000",
      "reserved": "",
      "salt": "0x946cad01b8ead2420911464857075f860905a62862977819b95527ac5297a5ae",
      "assetIds": []
    },
    {
      "x": 246,
      "y": 365,
      "size": 1,
      "price": "1011000000000000000000",
      "reserved": "",
      "salt": "0xa01c7bc51e702ec1fc27f6f5db1ea46c83de3a3818b2b96317293dcc1684998c",
      "assetIds": []
    },
    {
      "x": 246,
      "y": 372,
      "size": 1,
      "price": "1011000000000000000000",
      "reserved": "",
      "salt": "0x6b1b71ed402f2ec1f292ffecb15e001cf8bfb4200a30e82752debef7d804df45",
      "assetIds": []
    },
    {
      "x": 246,
      "y": 373,
      "size": 1,
      "price": "1011000000000000000000",
      "reserved": "",
      "salt": "0x40535d003d5b07f170a8191b82f11d94a757c9351b4978adfcf99c0f2b17cffb",
      "assetIds": []
    },
    {
      "x": 246,
      "y": 374,
      "size": 1,
      "price": "1011000000000000000000",
      "reserved": "",
      "salt": "0x6ee278689a2a08ea4a173e0d6013f46d76dcbcb80b85cb6423125212f6727261",
      "assetIds": []
    },
    {
      "x": 246,
      "y": 375,
      "size": 1,
      "price": "1011000000000000000000",
      "reserved": "",
      "salt": "0xcc1f56d8fd23c12ec1f9bbcff9925005a073049d0951cd7bcf4836c97f6b7da7",
      "assetIds": []
    },
    {
      "x": 246,
      "y": 376,
      "size": 1,
      "price": "1011000000000000000000",
      "reserved": "",
      "salt": "0xa097fb02aea3b70e60f9557ff844923b246364f76c433277f7283f6f39f40fa7",
      "assetIds": []
    },
    {
      "x": 246,
      "y": 377,
      "size": 1,
      "price": "1011000000000000000000",
      "reserved": "",
      "salt": "0x7320e1554af3c3e05a71264dae0cac76730a2b7f4911daacbf09b5ad13c91589",
      "assetIds": []
    },
    {
      "x": 246,
      "y": 378,
      "size": 1,
      "price": "1011000000000000000000",
      "reserved": "",
      "salt": "0x9bb74c530e3679f056676727e3035cb4bb2bcb688bba6a93ea8bad9ea24eb11d",
      "assetIds": []
    },
    {
      "x": 246,
      "y": 379,
      "size": 1,
      "price": "1011000000000000000000",
      "reserved": "",
      "salt": "0x611243d5a85308c737737514bed87e6e77d8a5b2b903681e5f74960c48284a43",
      "assetIds": []
    },
    {
      "x": 246,
      "y": 380,
      "size": 1,
      "price": "1011000000000000000000",
      "reserved": "",
      "salt": "0xf04e5399d17b7a68b724a1ce495447895e649c4955305caf31c156571dfa98c3",
      "assetIds": []
    },
    {
      "x": 246,
      "y": 381,
      "size": 1,
      "price": "4683000000000000000000",
      "reserved": "",
      "salt": "0x538bc53c3b635e9add6466d63dee296e1a345fd56c13399e59650f752dca3b17",
      "assetIds": [
        "41506478881403507969696680653240014914910929820314476107906210059990541021186"
      ]
    },
    {
      "x": 246,
      "y": 382,
      "size": 1,
      "price": "4683000000000000000000",
      "reserved": "",
      "salt": "0x90924c4d96f2fcee2bbd784c6b81b8b2ab675492e1bd926d0e75dc2bd40a0c68",
      "assetIds": [
        "41506478881403507969696680653240014914910929820314476107906210059990541021186"
      ]
    },
    {
      "x": 246,
      "y": 383,
      "size": 1,
      "price": "4683000000000000000000",
      "reserved": "",
      "salt": "0x839755cb94350391ca8b0d0e4bab71cde02d127eeed3c7b3ff370275628c0656",
      "assetIds": [
        "41506478881403507969696680653240014914910929820314476107906210059990541021186"
      ]
    },
    {
      "x": 246,
      "y": 396,
      "size": 1,
      "price": "4683000000000000000000",
      "reserved": "",
      "salt": "0x61b34c6823ea91513c54d50d034359f863ff16ff3a6d69327268fcef08a9f913",
      "assetIds": [
        "41506478881403507969696680653240014914910929820314476107906210059990541021186"
      ]
    },
    {
      "x": 246,
      "y": 397,
      "size": 1,
      "price": "4683000000000000000000",
      "reserved": "",
      "salt": "0x24189ec7b50aa3e8494bcccba48d45ed44ef0177d437e9915b935d712f0a7cac",
      "assetIds": [
        "41506478881403507969696680653240014914910929820314476107906210059990541021186"
      ]
    },
    {
      "x": 246,
      "y": 398,
      "size": 1,
      "price": "4683000000000000000000",
      "reserved": "",
      "salt": "0xb9e8f2f42575e833889efe9285e5a67473c7abd0e1104dc820909a6cb589afd2",
      "assetIds": [
        "41506478881403507969696680653240014914910929820314476107906210059990541021186"
      ]
    },
    {
      "x": 246,
      "y": 399,
      "size": 1,
      "price": "1011000000000000000000",
      "reserved": "",
      "salt": "0xb4c680edf4725c5f8913818575800a4646685d48920b84da240fb7c7ac00920e",
      "assetIds": []
    },
    {
      "x": 246,
      "y": 400,
      "size": 1,
      "price": "1011000000000000000000",
      "reserved": "",
      "salt": "0x59868cb02ab4fbe02ffe997cb3f26da2581e3ab395029a8585bc70339cab4c2e",
      "assetIds": []
    },
    {
      "x": 246,
      "y": 401,
      "size": 1,
      "price": "1011000000000000000000",
      "reserved": "",
      "salt": "0x13b278b80f24b49dadc1204af87b3ea381e3cd427f7787baf159bca887476f98",
      "assetIds": []
    },
    {
      "x": 246,
      "y": 402,
      "size": 1,
      "price": "1011000000000000000000",
      "reserved": "",
      "salt": "0x0daf13033c92961b81c57aa96ed0b1d3d5ee066277e72bb5b93c48af36e17041",
      "assetIds": []
    },
    {
      "x": 246,
      "y": 403,
      "size": 1,
      "price": "1011000000000000000000",
      "reserved": "",
      "salt": "0x69c1a36588560916b0bcf6f9b62021a90fa19ba9871f66cd3ac97c0425e6a7bc",
      "assetIds": []
    },
    {
      "x": 246,
      "y": 404,
      "size": 1,
      "price": "1011000000000000000000",
      "reserved": "",
      "salt": "0x2312c315049a470541aacd5ba06527eebb6d9465f473135483cdc203708efb41",
      "assetIds": []
    },
    {
      "x": 246,
      "y": 405,
      "size": 1,
      "price": "1011000000000000000000",
      "reserved": "",
      "salt": "0x5fdb7282fe2e6445c23920e8b3a97259c310870038fa02e5931ea0bd2737ccfd",
      "assetIds": []
    },
    {
      "x": 246,
      "y": 406,
      "size": 1,
      "price": "1011000000000000000000",
      "reserved": "",
      "salt": "0x46713045df2d56bd29279308c9bbfd6c1ad35537f0bdb36ac166f47f02799a0f",
      "assetIds": []
    },
    {
      "x": 246,
      "y": 407,
      "size": 1,
      "price": "1011000000000000000000",
      "reserved": "",
      "salt": "0xe8e8296ebaa0884ba90118a19dddc1a1b657c6c878ca06f2e7112d5c888c5a0d",
      "assetIds": []
    },
    {
      "x": 247,
      "y": 360,
      "size": 1,
      "price": "4683000000000000000000",
      "reserved": "",
      "salt": "0x9c9d8964c386446a0f24a22eb9940898c87eda8a71ec9d9cb127dea7b64882c8",
      "assetIds": [
        "41506478881403507969696680653240014914910929820314476107906210059990541021186"
      ]
    },
    {
      "x": 247,
      "y": 361,
      "size": 1,
      "price": "1011000000000000000000",
      "reserved": "",
      "salt": "0xd6726b09c884d7e6d8f07335bd82f5701bcec9ed1e9a7d7885ac3ad9196e6e97",
      "assetIds": []
    },
    {
      "x": 247,
      "y": 362,
      "size": 1,
      "price": "1011000000000000000000",
      "reserved": "0x7a9fe22691c811ea339d9b73150e6911a5343dca",
      "salt": "0xa382df446a0261ea7269993634412f9ae7802084ef130d4720042a0e7803f8c1",
      "assetIds": []
    },
    {
      "x": 247,
      "y": 363,
      "size": 1,
      "price": "1011000000000000000000",
      "reserved": "",
      "salt": "0xfcf483ea0b363497b1999ed933f820198faa48e2e70c6cee8d99f3fda87435ee",
      "assetIds": []
    },
    {
      "x": 247,
      "y": 364,
      "size": 1,
      "price": "1011000000000000000000",
      "reserved": "0x7a9fe22691c811ea339d9b73150e6911a5343dca",
      "salt": "0x5ebe77c14f1fe3ba18ba37f1560c4b0d194547d6b6e1d111775620a5ebc8cc65",
      "assetIds": []
    },
    {
      "x": 247,
      "y": 365,
      "size": 1,
      "price": "1011000000000000000000",
      "reserved": "",
      "salt": "0xcaafabcf4ab4ea79ad02b3c2a804ad48d9fc75d4253170d9d5a1738c993887df",
      "assetIds": []
    },
    {
      "x": 247,
      "y": 372,
      "size": 1,
      "price": "1011000000000000000000",
      "reserved": "",
      "salt": "0x5a2e590c3852685b8a94d2d3bdb0053353af55ac66e8ed700cde2d8d301d70a5",
      "assetIds": []
    },
    {
      "x": 247,
      "y": 373,
      "size": 1,
      "price": "1011000000000000000000",
      "reserved": "",
      "salt": "0xe378f0c40c5fdb06d57dc4fd2a8a3a8672a32afdc3f917e5ea48d3dfdc93e5c7",
      "assetIds": []
    },
    {
      "x": 247,
      "y": 374,
      "size": 1,
      "price": "1011000000000000000000",
      "reserved": "",
      "salt": "0x36fb6c06fb27680ac776f295a7e98146d4c30bdd0f8e10265aa3cff1399ad14c",
      "assetIds": []
    },
    {
      "x": 247,
      "y": 375,
      "size": 1,
      "price": "1011000000000000000000",
      "reserved": "0x7a9fe22691c811ea339d9b73150e6911a5343dca",
      "salt": "0x48032ca67e3e2f69078d492942585cca1a6e92ec64a7e2d98927c29b25c9188c",
      "assetIds": []
    },
    {
      "x": 247,
      "y": 376,
      "size": 1,
      "price": "1011000000000000000000",
      "reserved": "",
      "salt": "0x84b67c6f4a69df02a50c13376f91ed86093c5c4f6eaaf8536fd5af10fa8a712a",
      "assetIds": []
    },
    {
      "x": 247,
      "y": 377,
      "size": 1,
      "price": "1011000000000000000000",
      "reserved": "",
      "salt": "0x38c6959098f03dced1107eff8b0be7ec4af8f235ed1857b6292161189340a23a",
      "assetIds": []
    },
    {
      "x": 247,
      "y": 378,
      "size": 1,
      "price": "1011000000000000000000",
      "reserved": "0x7a9fe22691c811ea339d9b73150e6911a5343dca",
      "salt": "0x6a307fd735f14d01a44ec5d67c0799757b5c50e964443e9fc28c43f6097b1e6f",
      "assetIds": []
    },
    {
      "x": 247,
      "y": 379,
      "size": 1,
      "price": "1011000000000000000000",
      "reserved": "",
      "salt": "0xa9b6089eec20dcb291f263e11a49f548451c671ffeef6bcbcd7ced473ca56245",
      "assetIds": []
    },
    {
      "x": 247,
      "y": 380,
      "size": 1,
      "price": "1011000000000000000000",
      "reserved": "",
      "salt": "0x7251f6c919cd337d03da2b1d38b1b3cc1e82f27d8aba6ca8d5006ef780880af8",
      "assetIds": []
    },
    {
      "x": 247,
      "y": 381,
      "size": 1,
      "price": "4683000000000000000000",
      "reserved": "",
      "salt": "0x39532f7b1189c716408c7629e58cd1230a1811661640f8921b4d68371b2a8279",
      "assetIds": [
        "41506478881403507969696680653240014914910929820314476107906210059990541021186"
      ]
    },
    {
      "x": 247,
      "y": 382,
      "size": 1,
      "price": "4683000000000000000000",
      "reserved": "",
      "salt": "0x88f13429ce0e434011c93b0a638f6afc00e7961b7dd63784ce163a432b19f777",
      "assetIds": [
        "41506478881403507969696680653240014914910929820314476107906210059990541021186"
      ]
    },
    {
      "x": 247,
      "y": 383,
      "size": 1,
      "price": "4683000000000000000000",
      "reserved": "",
      "salt": "0xb09b5c0a2ffbdaf84b99b472ef2da585d5dc677f6cf25e44b031620cf7fc53bd",
      "assetIds": [
        "41506478881403507969696680653240014914910929820314476107906210059990541021186"
      ]
    },
    {
      "x": 247,
      "y": 396,
      "size": 1,
      "price": "4683000000000000000000",
      "reserved": "",
      "salt": "0x9ae2e236d811443d1ff0ab1e59d4d2789b26ea8617adb5a5f94105817796cfba",
      "assetIds": [
        "41506478881403507969696680653240014914910929820314476107906210059990541021186"
      ]
    },
    {
      "x": 247,
      "y": 397,
      "size": 1,
      "price": "4683000000000000000000",
      "reserved": "",
      "salt": "0x39a3ba04f4e2cd9f34f4850c4d0b7fe77f1ca879dcce58da2eda522f53d3b49e",
      "assetIds": [
        "41506478881403507969696680653240014914910929820314476107906210059990541021186"
      ]
    },
    {
      "x": 247,
      "y": 398,
      "size": 1,
      "price": "4683000000000000000000",
      "reserved": "",
      "salt": "0x665e0640268e1ea710aeaa7faa67654fcc79142e9cd3177abda50b1a646dd1c4",
      "assetIds": [
        "41506478881403507969696680653240014914910929820314476107906210059990541021186"
      ]
    },
    {
      "x": 247,
      "y": 399,
      "size": 1,
      "price": "4683000000000000000000",
      "reserved": "",
      "salt": "0x680cb9e8da8ac327ba2edc75ab4408f55410a4a492d85467fe49e4f9a5648e93",
      "assetIds": [
        "41506478881403507969696680653240014914910929820314476107906210059990541021186"
      ]
    },
    {
      "x": 247,
      "y": 400,
      "size": 1,
      "price": "1011000000000000000000",
      "reserved": "0x7a9fe22691c811ea339d9b73150e6911a5343dca",
      "salt": "0xd4268ad116c477f43eff917b7a87fcec42ff3425173d062f3f4126a7e78d5af2",
      "assetIds": []
    },
    {
      "x": 247,
      "y": 401,
      "size": 1,
      "price": "1011000000000000000000",
      "reserved": "",
      "salt": "0x8f2161a08d8f6554bf66e10acdbab17b15fa11a1d6467122c3f0e29127b49e09",
      "assetIds": []
    },
    {
      "x": 247,
      "y": 402,
      "size": 1,
      "price": "1011000000000000000000",
      "reserved": "",
      "salt": "0xa435979063f672658d05621115e99af09419b060ce4a380fefc8bf2460eecb99",
      "assetIds": []
    },
    {
      "x": 247,
      "y": 403,
      "size": 1,
      "price": "1011000000000000000000",
      "reserved": "",
      "salt": "0xa5a112ea4daf244981e2a7a5a8ec11959b3600e6dbfa926ddba471a07d38d26f",
      "assetIds": []
    },
    {
      "x": 247,
      "y": 404,
      "size": 1,
      "price": "1011000000000000000000",
      "reserved": "",
      "salt": "0x316b7c2e24a60bb55b9baffade1cd8153e62aebe61661413b3af3a208a1b3a87",
      "assetIds": []
    },
    {
      "x": 247,
      "y": 405,
      "size": 1,
      "price": "1011000000000000000000",
      "reserved": "",
      "salt": "0xbe1746c4523fb705caac1a51b083d8edf22c231b2f4cb3fcc792c79a991c325f",
      "assetIds": []
    },
    {
      "x": 247,
      "y": 406,
      "size": 1,
      "price": "1011000000000000000000",
      "reserved": "",
      "salt": "0xda1093518cc03b9a9cc8673c5f6014389d9f524cab60fcc926969bac82b4edeb",
      "assetIds": []
    },
    {
      "x": 247,
      "y": 407,
      "size": 1,
      "price": "1011000000000000000000",
      "reserved": "",
      "salt": "0x13473ea6034735073a11c27b4cddaf86b83127fe48f860d7cfb62cc15687f2b2",
      "assetIds": []
    },
    {
      "x": 248,
      "y": 360,
      "size": 1,
      "price": "4683000000000000000000",
      "reserved": "",
      "salt": "0x4767ecf7cd4099a079641e7d28e23a29042957d3411392ce612347704d66bc20",
      "assetIds": [
        "41506478881403507969696680653240014914910929820314476107906210059990541021186"
      ]
    },
    {
      "x": 248,
      "y": 361,
      "size": 1,
      "price": "1011000000000000000000",
      "reserved": "",
      "salt": "0x49e76b3601ccfea256c24b5d3428018ac3650a0937f06960257a6a26d24ae505",
      "assetIds": []
    },
    {
      "x": 248,
      "y": 362,
      "size": 1,
      "price": "1011000000000000000000",
      "reserved": "",
      "salt": "0x1e2c3631d904159de535290489e2dbccf764aaf1efa7b575e9527275fd00216d",
      "assetIds": []
    },
    {
      "x": 248,
      "y": 363,
      "size": 1,
      "price": "1011000000000000000000",
      "reserved": "",
      "salt": "0x68173384962c5f0a1d09ee5dd28cf279aa235a36aa8d97980ed6e395821e56ce",
      "assetIds": []
    },
    {
      "x": 248,
      "y": 364,
      "size": 1,
      "price": "1011000000000000000000",
      "reserved": "",
      "salt": "0xcb8acaa035adf7603d7a1c5730de7b8baa5ad59919b1e4b9f3acc292ff02706a",
      "assetIds": []
    },
    {
      "x": 248,
      "y": 365,
      "size": 1,
      "price": "1011000000000000000000",
      "reserved": "",
      "salt": "0x09a850f8ac53116a69dad848607f316f861f580e7b00dfb57ab1cfd2106605d3",
      "assetIds": []
    },
    {
      "x": 248,
      "y": 372,
      "size": 1,
      "price": "1011000000000000000000",
      "reserved": "0x7a9fe22691c811ea339d9b73150e6911a5343dca",
      "salt": "0x9e1bef0a04b72693a2b063dc7210792ef0614c7afb8e07c3733b8153306cb12f",
      "assetIds": []
    },
    {
      "x": 248,
      "y": 373,
      "size": 1,
      "price": "1011000000000000000000",
      "reserved": "",
      "salt": "0x748d163c171361fda1caf4e67f9909f96e66d253f4831b59220e98ac3c3bc946",
      "assetIds": []
    },
    {
      "x": 248,
      "y": 374,
      "size": 1,
      "price": "1011000000000000000000",
      "reserved": "",
      "salt": "0xc0795605ebdb63f8dfd26fb2c9a72cde2932fdfa18b2c734c88e7534d9a688c7",
      "assetIds": []
    },
    {
      "x": 248,
      "y": 375,
      "size": 1,
      "price": "1011000000000000000000",
      "reserved": "",
      "salt": "0x29a13e24a5dca865dec5989d203a7950211c1e3240c042dab62770661f5d32f6",
      "assetIds": []
    },
    {
      "x": 248,
      "y": 376,
      "size": 1,
      "price": "1011000000000000000000",
      "reserved": "",
      "salt": "0xc8f0f15cd946d6e8d48c07a3b5f6dac7a64accb2ec6a593c8f3f274d6538b676",
      "assetIds": []
    },
    {
      "x": 248,
      "y": 377,
      "size": 1,
      "price": "1011000000000000000000",
      "reserved": "",
      "salt": "0xc00613f310d21b0bcf3317256a078955527a5af6809e167d93111181ffb1be87",
      "assetIds": []
    },
    {
      "x": 248,
      "y": 378,
      "size": 1,
      "price": "1011000000000000000000",
      "reserved": "",
      "salt": "0x9e51d15a29612d50941181173d1f7856b233f8a853a9d2e83b0c4aacefa9598a",
      "assetIds": []
    },
    {
      "x": 248,
      "y": 379,
      "size": 1,
      "price": "1011000000000000000000",
      "reserved": "",
      "salt": "0xdf6cf8b81b78ad3befd6dc00c55d912e140a0f341382deec1ddf233184ebcf71",
      "assetIds": []
    },
    {
      "x": 248,
      "y": 380,
      "size": 1,
      "price": "1011000000000000000000",
      "reserved": "",
      "salt": "0x3b37cad6c51c0a3233692122681d47c6503175955c9ac18be76fdeccb6322411",
      "assetIds": []
    },
    {
      "x": 248,
      "y": 381,
      "size": 1,
      "price": "4683000000000000000000",
      "reserved": "",
      "salt": "0xff696170c80808dc92b1358e2129073d732d82f33bfb8ce6ae67ddc130712614",
      "assetIds": [
        "41506478881403507969696680653240014914910929820314476107906210059990541021186"
      ]
    },
    {
      "x": 248,
      "y": 382,
      "size": 1,
      "price": "4683000000000000000000",
      "reserved": "",
      "salt": "0x0de9594d2ffd621f0f78a6365b39346c600cdc869a727c39823fd5445c9c1b96",
      "assetIds": [
        "41506478881403507969696680653240014914910929820314476107906210059990541021186"
      ]
    },
    {
      "x": 248,
      "y": 383,
      "size": 1,
      "price": "4683000000000000000000",
      "reserved": "",
      "salt": "0x3655b7b677e61c7fef4dc0d65d9f2147d81df175016ce527e4a80cbe0731ca31",
      "assetIds": [
        "41506478881403507969696680653240014914910929820314476107906210059990541021186"
      ]
    },
    {
      "x": 248,
      "y": 396,
      "size": 1,
      "price": "4683000000000000000000",
      "reserved": "",
      "salt": "0x772ec89ad9eb97ab61d276522b2687145c0d766477b5c6e7764bf2692c04ac21",
      "assetIds": [
        "41506478881403507969696680653240014914910929820314476107906210059990541021186"
      ]
    },
    {
      "x": 248,
      "y": 397,
      "size": 1,
      "price": "4683000000000000000000",
      "reserved": "",
      "salt": "0xe6d618b59f9907a93c1a04f7039d949f85ab0226b7616616cea1dabe2c9ec92f",
      "assetIds": [
        "41506478881403507969696680653240014914910929820314476107906210059990541021186"
      ]
    },
    {
      "x": 248,
      "y": 398,
      "size": 1,
      "price": "4683000000000000000000",
      "reserved": "",
      "salt": "0xc7b0482af9c4d27d5b7c7e8c8a6942b160f69ed8e61026e639e1497750c4d436",
      "assetIds": [
        "41506478881403507969696680653240014914910929820314476107906210059990541021186"
      ]
    },
    {
      "x": 248,
      "y": 399,
      "size": 1,
      "price": "4683000000000000000000",
      "reserved": "",
      "salt": "0xcd99e10aa42e3d118816c8e8d9efff838ef438270d1608c726f8773fd56b4de4",
      "assetIds": [
        "41506478881403507969696680653240014914910929820314476107906210059990541021186"
      ]
    },
    {
      "x": 248,
      "y": 400,
      "size": 1,
      "price": "1011000000000000000000",
      "reserved": "0x7a9fe22691c811ea339d9b73150e6911a5343dca",
      "salt": "0x9856c6e07bd0649cc19d6bc725f63a9efdf057c841fc5b4efebc924889ea3883",
      "assetIds": []
    },
    {
      "x": 248,
      "y": 401,
      "size": 1,
      "price": "1011000000000000000000",
      "reserved": "",
      "salt": "0x6bfb28830f3a31820be3464fe2357e0cf9a20ea7c18a6f4b52cc3737ce844121",
      "assetIds": []
    },
    {
      "x": 248,
      "y": 402,
      "size": 1,
      "price": "1011000000000000000000",
      "reserved": "",
      "salt": "0xbc2935d0ca9bb384313d81607e5055d5d9d8cb182c380449e84c24517cc4f46b",
      "assetIds": []
    },
    {
      "x": 248,
      "y": 403,
      "size": 1,
      "price": "1011000000000000000000",
      "reserved": "",
      "salt": "0x7a3328a7c95e844110bfab614cb9555460cfdef2b2a89d37ac2df0d823b4f4fd",
      "assetIds": []
    },
    {
      "x": 248,
      "y": 404,
      "size": 1,
      "price": "1011000000000000000000",
      "reserved": "",
      "salt": "0x5d925d51bd47509d57e13122636f6dab10b07a992835d69a13f4d2616ba05561",
      "assetIds": []
    },
    {
      "x": 248,
      "y": 405,
      "size": 1,
      "price": "1011000000000000000000",
      "reserved": "",
      "salt": "0x3557b7e27115638ac2831ea5f6567d41c6797421e4f009c89e5753b89655b6dc",
      "assetIds": []
    },
    {
      "x": 248,
      "y": 406,
      "size": 1,
      "price": "1011000000000000000000",
      "reserved": "",
      "salt": "0x87d839be98379653e0bea1816b5ba1aedc9007656cf34b0df7b6c90ce8b2d746",
      "assetIds": []
    },
    {
      "x": 248,
      "y": 407,
      "size": 1,
      "price": "1011000000000000000000",
      "reserved": "",
      "salt": "0x594fae7b2b1041527b097ad5c1571f0dca0be1b5c66ded2bc4ac0fd589d43341",
      "assetIds": []
    },
    {
      "x": 249,
      "y": 360,
      "size": 1,
      "price": "1011000000000000000000",
      "reserved": "0x7a9fe22691c811ea339d9b73150e6911a5343dca",
      "salt": "0xa506f19170d4e7c23977ae5910cf75cd009098ae238a2cdd539061d8da328564",
      "assetIds": []
    },
    {
      "x": 249,
      "y": 361,
      "size": 1,
      "price": "1011000000000000000000",
      "reserved": "",
      "salt": "0xf142d02196ac8197032218135199df9f0e1eb5c74e478d3adc2aa1519c7004bc",
      "assetIds": []
    },
    {
      "x": 249,
      "y": 362,
      "size": 1,
      "price": "1011000000000000000000",
      "reserved": "",
      "salt": "0xde0522ff4e793a222a00add298bdf26340a08526476450412ce57ebf28ffe163",
      "assetIds": []
    },
    {
      "x": 249,
      "y": 363,
      "size": 1,
      "price": "1011000000000000000000",
      "reserved": "",
      "salt": "0x87f2f04d47ac63530013f0f8fa1143021450db5d5e7c8e385ca0aacfef223ca1",
      "assetIds": []
    },
    {
      "x": 249,
      "y": 364,
      "size": 1,
      "price": "1011000000000000000000",
      "reserved": "",
      "salt": "0x8af44b397cfcaf17cb2a8dfe3263204aed4395715a3d33f88d6968bdb69f6b96",
      "assetIds": []
    },
    {
      "x": 249,
      "y": 365,
      "size": 1,
      "price": "1011000000000000000000",
      "reserved": "",
      "salt": "0x23778acee1a1240fee0b250e5b81ca56a95482a947ac3cc8500d605aac1a0879",
      "assetIds": []
    },
    {
      "x": 249,
      "y": 372,
      "size": 1,
      "price": "4683000000000000000000",
      "reserved": "",
      "salt": "0x4101bf2e5476faf48557ee619579fd4b4c07fed7d1d901ff8bdbd9d0fe07811c",
      "assetIds": [
        "41506478881403507969696680653240014914910929820314476107906210059990541021186"
      ]
    },
    {
      "x": 249,
      "y": 373,
      "size": 1,
      "price": "1011000000000000000000",
      "reserved": "",
      "salt": "0xdd8ea0c385c0e8fcf035316e4f905024f6324aef336f2bd1e830317bd3fc471d",
      "assetIds": []
    },
    {
      "x": 249,
      "y": 374,
      "size": 1,
      "price": "1011000000000000000000",
      "reserved": "0x7a9fe22691c811ea339d9b73150e6911a5343dca",
      "salt": "0xa9cf52173500702ad7b3ae22940c37d9f9c79592f6bea913b5f4a2e88e2944a1",
      "assetIds": []
    },
    {
      "x": 249,
      "y": 375,
      "size": 1,
      "price": "4683000000000000000000",
      "reserved": "",
      "salt": "0x71cc17d8bf11ddcd9319fe9f556e5dafb42b14e69904e8321a553f65f6cc3aff",
      "assetIds": [
        "41506478881403507969696680653240014914910929820314476107906210059990541021186"
      ]
    },
    {
      "x": 249,
      "y": 376,
      "size": 1,
      "price": "4683000000000000000000",
      "reserved": "",
      "salt": "0xa64bb4fc36f63dc7fa51d515409ca4732d2c0f47a1a4746ff49cb87de110934d",
      "assetIds": [
        "41506478881403507969696680653240014914910929820314476107906210059990541021186"
      ]
    },
    {
      "x": 249,
      "y": 377,
      "size": 1,
      "price": "4683000000000000000000",
      "reserved": "",
      "salt": "0x7764107f9dfece87d4ed4b21a73f16f505dc4b6713c05e064624ab46bf196bd2",
      "assetIds": [
        "41506478881403507969696680653240014914910929820314476107906210059990541021186"
      ]
    },
    {
      "x": 249,
      "y": 378,
      "size": 1,
      "price": "1011000000000000000000",
      "reserved": "",
      "salt": "0x1e0e0235e05e622b11b783c1384a87aa786291a170da2df9358f1ae61fe5705d",
      "assetIds": []
    },
    {
      "x": 249,
      "y": 379,
      "size": 1,
      "price": "1011000000000000000000",
      "reserved": "",
      "salt": "0xbc58a49b729ad5d14d9d03ef0003134f02e34a2719e06d71126aa57f81cb447a",
      "assetIds": []
    },
    {
      "x": 249,
      "y": 380,
      "size": 1,
      "price": "1011000000000000000000",
      "reserved": "",
      "salt": "0x830ceca0a8f706867070aacbea0f98cd08d4b570d25083502a22e4748f97e57b",
      "assetIds": []
    },
    {
      "x": 249,
      "y": 381,
      "size": 1,
      "price": "1011000000000000000000",
      "reserved": "",
      "salt": "0x3df8153a0769cb6cf0489c0b9ecdbf6a767e3769f249ee3ae8279bc97b889944",
      "assetIds": []
    },
    {
      "x": 249,
      "y": 382,
      "size": 1,
      "price": "4683000000000000000000",
      "reserved": "",
      "salt": "0x79a5f3e5df7483bc91159752cea14f3595fda48b3e16d7b333f8f1da985d0f8a",
      "assetIds": [
        "41506478881403507969696680653240014914910929820314476107906210059990541021186"
      ]
    },
    {
      "x": 249,
      "y": 383,
      "size": 1,
      "price": "4683000000000000000000",
      "reserved": "",
      "salt": "0x4d7c65f630048f6d9938e28d9b5416162c8ccb7e4a4d34b9be6fb7b35f08e3c2",
      "assetIds": [
        "41506478881403507969696680653240014914910929820314476107906210059990541021186"
      ]
    },
    {
      "x": 249,
      "y": 396,
      "size": 1,
      "price": "4683000000000000000000",
      "reserved": "",
      "salt": "0x45eefd0a41f270525fa40b94849f5c2bad4a7413af4f8a95b0b8440d513fec0e",
      "assetIds": [
        "41506478881403507969696680653240014914910929820314476107906210059990541021186"
      ]
    },
    {
      "x": 249,
      "y": 397,
      "size": 1,
      "price": "4683000000000000000000",
      "reserved": "",
      "salt": "0x757123cf089cea6b0c5c209002cc6490125d1a97a8bb11e2f5bccb9558c67f61",
      "assetIds": [
        "41506478881403507969696680653240014914910929820314476107906210059990541021186"
      ]
    },
    {
      "x": 249,
      "y": 398,
      "size": 1,
      "price": "4683000000000000000000",
      "reserved": "",
      "salt": "0x85b726e62be11641c48733552f7da3b9dc2dee513fccdb697eeaac97c7a6f1d5",
      "assetIds": [
        "41506478881403507969696680653240014914910929820314476107906210059990541021186"
      ]
    },
    {
      "x": 249,
      "y": 399,
      "size": 1,
      "price": "1011000000000000000000",
      "reserved": "",
      "salt": "0x96b88fdb1f01d04893d546fb842c7791f7a30af5b43316200d34b6e0f554be45",
      "assetIds": []
    },
    {
      "x": 249,
      "y": 400,
      "size": 1,
      "price": "1011000000000000000000",
      "reserved": "",
      "salt": "0x6feeb9486cfe3cf800c1d46ca923f0babe3f279e7b1292390ac04f18bdd43e26",
      "assetIds": []
    },
    {
      "x": 249,
      "y": 401,
      "size": 1,
      "price": "1011000000000000000000",
      "reserved": "",
      "salt": "0xb35aee9b47893a8ea2e84280b5c715f24cd632607f84779d7e8e40bc28c64d57",
      "assetIds": []
    },
    {
      "x": 249,
      "y": 402,
      "size": 1,
      "price": "1011000000000000000000",
      "reserved": "",
      "salt": "0x091e6b01eee63bc52d7135b493525d8a299154ac6a745c9968e67d88ea36c0f7",
      "assetIds": []
    },
    {
      "x": 249,
      "y": 403,
      "size": 1,
      "price": "1011000000000000000000",
      "reserved": "",
      "salt": "0xa473eafb138373c2bdd0e19e28a1cf4cedd93e6c59e194f29a95d3503c18a9b7",
      "assetIds": []
    },
    {
      "x": 249,
      "y": 404,
      "size": 1,
      "price": "1011000000000000000000",
      "reserved": "",
      "salt": "0xdb1381897485dae88d34ca5374a16eace2039f29102e9b0dab766ab7bcef74ca",
      "assetIds": []
    },
    {
      "x": 249,
      "y": 405,
      "size": 1,
      "price": "1011000000000000000000",
      "reserved": "",
      "salt": "0xa6ccffaee8ce846b322d87feb90d285a0d32065996bbd1dfd3364571063c1ff0",
      "assetIds": []
    },
    {
      "x": 249,
      "y": 406,
      "size": 1,
      "price": "1011000000000000000000",
      "reserved": "",
      "salt": "0x9d0180a4437ec47e9e4ce78fd2466ce6d5ff61e35522a13546be3defedd2de48",
      "assetIds": []
    },
    {
      "x": 249,
      "y": 407,
      "size": 1,
      "price": "1011000000000000000000",
      "reserved": "",
      "salt": "0x9dba61a8e240201ec960de265550662b668094b93787360178678bb8fca81ba0",
      "assetIds": []
    },
    {
      "x": 250,
      "y": 360,
      "size": 1,
      "price": "4683000000000000000000",
      "reserved": "",
      "salt": "0x00eaa75bf8d9bea0c281b05bc01f5284662ab99ddd28a15f26a2d230cb986777",
      "assetIds": [
        "41506478881403507969696680653240014914910929820314476107906210059990541021186"
      ]
    },
    {
      "x": 250,
      "y": 361,
      "size": 1,
      "price": "1011000000000000000000",
      "reserved": "",
      "salt": "0x6b3713eb358a2cbbbb96ea162c8610d7cfc8910f67a9978b6ac402345b8a0792",
      "assetIds": []
    },
    {
      "x": 250,
      "y": 362,
      "size": 1,
      "price": "1011000000000000000000",
      "reserved": "",
      "salt": "0x12e5999d920e656107bc0f844e3172823a765401ecffde5f9d75f27493311555",
      "assetIds": []
    },
    {
      "x": 250,
      "y": 363,
      "size": 1,
      "price": "1011000000000000000000",
      "reserved": "0x7a9fe22691c811ea339d9b73150e6911a5343dca",
      "salt": "0x15721aff4f53ffe29385ea6414d9f0e0b0509307648b2debbd038dcc331a27b2",
      "assetIds": []
    },
    {
      "x": 250,
      "y": 364,
      "size": 1,
      "price": "1011000000000000000000",
      "reserved": "",
      "salt": "0xebc8b847fdb8d720af69eaeb1f01b169d8e8f918bb8ae4d412527ff0113a2ae0",
      "assetIds": []
    },
    {
      "x": 250,
      "y": 365,
      "size": 1,
      "price": "1011000000000000000000",
      "reserved": "",
      "salt": "0x39e575241ecd173424ce2a610a0e2d1432b3b4f94f16c33376aeaccd0d955b97",
      "assetIds": []
    },
    {
      "x": 250,
      "y": 372,
      "size": 1,
      "price": "4683000000000000000000",
      "reserved": "",
      "salt": "0x8079a6f09d347d0a32706a891e0065d497c77198c55f15656a28cc81bef3144e",
      "assetIds": [
        "41506478881403507969696680653240014914910929820314476107906210059990541021186"
      ]
    },
    {
      "x": 250,
      "y": 373,
      "size": 1,
      "price": "4683000000000000000000",
      "reserved": "",
      "salt": "0x71871aa1114b3a1039559dee810156dfc9ed919fd234b21e1cc83bb3d1581977",
      "assetIds": [
        "41506478881403507969696680653240014914910929820314476107906210059990541021186"
      ]
    },
    {
      "x": 250,
      "y": 374,
      "size": 1,
      "price": "4683000000000000000000",
      "reserved": "",
      "salt": "0xcc55815aaf0abbfdb15b0bc81c8fb15935e67f6bfa99304c04ffb7260b0ad1b9",
      "assetIds": [
        "41506478881403507969696680653240014914910929820314476107906210059990541021186"
      ]
    },
    {
      "x": 250,
      "y": 375,
      "size": 1,
      "price": "4683000000000000000000",
      "reserved": "",
      "salt": "0x98a052da70154316a78d48f03297c87e8c2a374eedcbff1b03f7928a706b006d",
      "assetIds": [
        "41506478881403507969696680653240014914910929820314476107906210059990541021186"
      ]
    },
    {
      "x": 250,
      "y": 376,
      "size": 1,
      "price": "4683000000000000000000",
      "reserved": "",
      "salt": "0xd7fa72c0847952ce4c581ccac95a3fb373bda09ad30728ee5313fb8469f72c07",
      "assetIds": [
        "41506478881403507969696680653240014914910929820314476107906210059990541021186"
      ]
    },
    {
      "x": 250,
      "y": 377,
      "size": 1,
      "price": "4683000000000000000000",
      "reserved": "",
      "salt": "0xaa45d0710b188c15d13690b3f9236024d7917ff3828f4e48e950492aabcb51c0",
      "assetIds": [
        "41506478881403507969696680653240014914910929820314476107906210059990541021186"
      ]
    },
    {
      "x": 250,
      "y": 378,
      "size": 1,
      "price": "1011000000000000000000",
      "reserved": "",
      "salt": "0xe471739a10519a18993f506822d6379fd793c311057558950c05b315e5fb1f74",
      "assetIds": []
    },
    {
      "x": 250,
      "y": 379,
      "size": 1,
      "price": "1011000000000000000000",
      "reserved": "",
      "salt": "0xd5c19abe4e2c022c606fd05cfb559b6d4b20bf32b5113f5ba11515310de76709",
      "assetIds": []
    },
    {
      "x": 250,
      "y": 380,
      "size": 1,
      "price": "1011000000000000000000",
      "reserved": "",
      "salt": "0xe210df8e3f26599accb6942a1bb2e7f99b34d52518b12d384628a23bde4f5514",
      "assetIds": []
    },
    {
      "x": 250,
      "y": 381,
      "size": 1,
      "price": "1011000000000000000000",
      "reserved": "",
      "salt": "0xde5ff3af8c74a618e548cf939e4d07ae32a70b4df19c33e79f1a8229be691d5b",
      "assetIds": []
    },
    {
      "x": 250,
      "y": 382,
      "size": 1,
      "price": "4683000000000000000000",
      "reserved": "",
      "salt": "0x6d63cb662714a1c8627e88db0777317b2c95fd0e99ef6f0508b89dd0c61080d8",
      "assetIds": [
        "41506478881403507969696680653240014914910929820314476107906210059990541021186"
      ]
    },
    {
      "x": 250,
      "y": 383,
      "size": 1,
      "price": "4683000000000000000000",
      "reserved": "",
      "salt": "0x9dee6033ceb5df01513896d5ea8fba0f9c793b975a3dab276f795ce11db8e473",
      "assetIds": [
        "41506478881403507969696680653240014914910929820314476107906210059990541021186"
      ]
    },
    {
      "x": 250,
      "y": 396,
      "size": 1,
      "price": "4683000000000000000000",
      "reserved": "",
      "salt": "0x751fb1cfd9e18ac5f9f56e01b7811e6cf9306daaa2ec1342494e61797d2626b2",
      "assetIds": [
        "41506478881403507969696680653240014914910929820314476107906210059990541021186"
      ]
    },
    {
      "x": 250,
      "y": 397,
      "size": 1,
      "price": "4683000000000000000000",
      "reserved": "",
      "salt": "0xc29a579b27da219757fc3819a59862df35c3a2f4cef034e56513db5086ae3fea",
      "assetIds": [
        "41506478881403507969696680653240014914910929820314476107906210059990541021186"
      ]
    },
    {
      "x": 250,
      "y": 398,
      "size": 1,
      "price": "1011000000000000000000",
      "reserved": "0x7a9fe22691c811ea339d9b73150e6911a5343dca",
      "salt": "0x014966e2ae77dfc37f9d82ed2e85f64dfc52ab49fbdd982c3952ad738ba64bff",
      "assetIds": []
    },
    {
      "x": 250,
      "y": 399,
      "size": 1,
      "price": "1011000000000000000000",
      "reserved": "",
      "salt": "0x5cca6faf03ca332e091e9840d643dfe71f9754d21ba5054fbb33b3ab501a611e",
      "assetIds": []
    },
    {
      "x": 250,
      "y": 400,
      "size": 1,
      "price": "1011000000000000000000",
      "reserved": "",
      "salt": "0xb3bd11b11e21cfb396b41ff285489941ed85b37c2e1e64449365cca71e1834f9",
      "assetIds": []
    },
    {
      "x": 250,
      "y": 401,
      "size": 1,
      "price": "1011000000000000000000",
      "reserved": "",
      "salt": "0x86d14867778afb6df0dc1d65146ff4a44d9c5f8c7118cc48e6ea2b85e0580e03",
      "assetIds": []
    },
    {
      "x": 250,
      "y": 402,
      "size": 1,
      "price": "1011000000000000000000",
      "reserved": "",
      "salt": "0x398ea0046aa34d1f0f5bd02f3fcc5ec14533ee34199c181b1fe15f846b38931d",
      "assetIds": []
    },
    {
      "x": 250,
      "y": 403,
      "size": 1,
      "price": "1011000000000000000000",
      "reserved": "0x7a9fe22691c811ea339d9b73150e6911a5343dca",
      "salt": "0x653d893946d2fb70e5c2ada7dc2bc86cf3c24a10eda854c41c8ae02eb23d4334",
      "assetIds": []
    },
    {
      "x": 250,
      "y": 404,
      "size": 1,
      "price": "1011000000000000000000",
      "reserved": "",
      "salt": "0x654c8d816b8f6ead3b28394ef983d6aef83d35e2ecae63f8811ba19badf0e790",
      "assetIds": []
    },
    {
      "x": 250,
      "y": 405,
      "size": 1,
      "price": "1011000000000000000000",
      "reserved": "",
      "salt": "0x7ecbb9b352a37b37187a61280fa5c4d855d0a5187af55a201853c87f12a4715f",
      "assetIds": []
    },
    {
      "x": 250,
      "y": 406,
      "size": 1,
      "price": "1011000000000000000000",
      "reserved": "",
      "salt": "0x475d71cf2b62718d4dd76840ee5559969d6ff1fb40785f70bfa085cda5c0819f",
      "assetIds": []
    },
    {
      "x": 250,
      "y": 407,
      "size": 1,
      "price": "1011000000000000000000",
      "reserved": "",
      "salt": "0x3b146bba55df52851f49b96a7499f094d6cadaccd655c7fa09285ecce2bd44c1",
      "assetIds": []
    },
    {
      "x": 251,
      "y": 360,
      "size": 1,
      "price": "4683000000000000000000",
      "reserved": "",
      "salt": "0x3e2b692702fcc57793b3ecd7223c11035024cf1ce02eb3a33d65e9f425d9e1fe",
      "assetIds": [
        "41506478881403507969696680653240014914910929820314476107906210059990541021186"
      ]
    },
    {
      "x": 251,
      "y": 361,
      "size": 1,
      "price": "1011000000000000000000",
      "reserved": "",
      "salt": "0xd01bac22d3dc558f29700fa0df67da0c2b6a7bf02daa7b6d4d2227bc0e01d381",
      "assetIds": []
    },
    {
      "x": 251,
      "y": 362,
      "size": 1,
      "price": "1011000000000000000000",
      "reserved": "",
      "salt": "0xfbccf246c3eb07d794a558bf30e1481222db307760cb4e6fa8a015d9e0853b15",
      "assetIds": []
    },
    {
      "x": 251,
      "y": 363,
      "size": 1,
      "price": "1011000000000000000000",
      "reserved": "",
      "salt": "0x8d719020fdb292190c98109558a58ae1e51d1d01e05c2b97edddfe902ca499ad",
      "assetIds": []
    },
    {
      "x": 251,
      "y": 364,
      "size": 1,
      "price": "1011000000000000000000",
      "reserved": "",
      "salt": "0xba21639f647ac6fb198ec46c31674ad7c9db4d166ce38df3cf2a34e7aecc2829",
      "assetIds": []
    },
    {
      "x": 251,
      "y": 365,
      "size": 1,
      "price": "1011000000000000000000",
      "reserved": "",
      "salt": "0xc17e80660ff85acb00d3ad89fd6db2b3af163381b7bf5d4469f6bb10401ad983",
      "assetIds": []
    },
    {
      "x": 251,
      "y": 372,
      "size": 1,
      "price": "4683000000000000000000",
      "reserved": "",
      "salt": "0x8ab4d3160bcc7c50a71d83f4f704835d949ba8db9d99d0b947d723a671adbf26",
      "assetIds": [
        "41506478881403507969696680653240014914910929820314476107906210059990541021186"
      ]
    },
    {
      "x": 251,
      "y": 373,
      "size": 1,
      "price": "4683000000000000000000",
      "reserved": "",
      "salt": "0x824c2a06ce6d06d10b8bfbad2bc5e7a2371e00a79eedf39528c238d25367610e",
      "assetIds": [
        "41506478881403507969696680653240014914910929820314476107906210059990541021186"
      ]
    },
    {
      "x": 251,
      "y": 374,
      "size": 1,
      "price": "4683000000000000000000",
      "reserved": "",
      "salt": "0xee851ab005d9879bea48048693bec94153c2a6ad4af14354989672b106ec804c",
      "assetIds": [
        "41506478881403507969696680653240014914910929820314476107906210059990541021186"
      ]
    },
    {
      "x": 251,
      "y": 375,
      "size": 1,
      "price": "4683000000000000000000",
      "reserved": "",
      "salt": "0xaa2794639f9f3994f4998e98af1740db9043ac0a19f96468bf784045dca4e1dd",
      "assetIds": [
        "41506478881403507969696680653240014914910929820314476107906210059990541021186"
      ]
    },
    {
      "x": 251,
      "y": 376,
      "size": 1,
      "price": "4683000000000000000000",
      "reserved": "",
      "salt": "0xaadd09793af122f6bddd60181776cf7402b50cbffa15cc078b6df1a536561753",
      "assetIds": [
        "41506478881403507969696680653240014914910929820314476107906210059990541021186"
      ]
    },
    {
      "x": 251,
      "y": 377,
      "size": 1,
      "price": "4683000000000000000000",
      "reserved": "",
      "salt": "0x1b4392fe907e725fae70172a5673676ffa5f7f9695d9aedecb53538c2a0011a8",
      "assetIds": [
        "41506478881403507969696680653240014914910929820314476107906210059990541021186"
      ]
    },
    {
      "x": 251,
      "y": 378,
      "size": 1,
      "price": "4683000000000000000000",
      "reserved": "",
      "salt": "0x4d7ce1f9f666ebb8227a5195e889eec17cfaf3e272197694a749044b35fabc8b",
      "assetIds": [
        "41506478881403507969696680653240014914910929820314476107906210059990541021186"
      ]
    },
    {
      "x": 251,
      "y": 379,
      "size": 1,
      "price": "4683000000000000000000",
      "reserved": "",
      "salt": "0x378582e8f30f84a51f20a11a7baad9931ad978e877f0cebbbdac990f997b0714",
      "assetIds": [
        "41506478881403507969696680653240014914910929820314476107906210059990541021186"
      ]
    },
    {
      "x": 251,
      "y": 380,
      "size": 1,
      "price": "1011000000000000000000",
      "reserved": "0x7a9fe22691c811ea339d9b73150e6911a5343dca",
      "salt": "0x2ddf388fefe4056d280cc4a800794dfcf35e32b46e98c75093c2e628b64a5feb",
      "assetIds": []
    },
    {
      "x": 251,
      "y": 381,
      "size": 1,
      "price": "1011000000000000000000",
      "reserved": "",
      "salt": "0x9d02aa5a23ebc4ce901f2f5510faa960ae0edae0e9c25a56497f8ad1e86fc9ec",
      "assetIds": []
    },
    {
      "x": 251,
      "y": 382,
      "size": 1,
      "price": "4683000000000000000000",
      "reserved": "",
      "salt": "0xbd5bfcb379b98b3dd4f547233f3446c71659e0fbb656de89c6d2ce13b3775485",
      "assetIds": [
        "41506478881403507969696680653240014914910929820314476107906210059990541021186"
      ]
    },
    {
      "x": 251,
      "y": 383,
      "size": 1,
      "price": "4683000000000000000000",
      "reserved": "",
      "salt": "0x175edc7d68525dca52cce44dfaf9e515858ebaf215f8aabcdf14a87d6a3ab292",
      "assetIds": [
        "41506478881403507969696680653240014914910929820314476107906210059990541021186"
      ]
    },
    {
      "x": 251,
      "y": 396,
      "size": 1,
      "price": "4683000000000000000000",
      "reserved": "",
      "salt": "0x1b96325df107ddb65b8e5825cfd69d15876a7ec2d2e1e21787fae57bab23b232",
      "assetIds": [
        "41506478881403507969696680653240014914910929820314476107906210059990541021186"
      ]
    },
    {
      "x": 251,
      "y": 397,
      "size": 1,
      "price": "4683000000000000000000",
      "reserved": "",
      "salt": "0xa023390e67b2eeb55ba9c8f54ae363976dc8ed5b60a63f09b893916801e16c92",
      "assetIds": [
        "41506478881403507969696680653240014914910929820314476107906210059990541021186"
      ]
    },
    {
      "x": 251,
      "y": 398,
      "size": 1,
      "price": "1011000000000000000000",
      "reserved": "",
      "salt": "0x592d6db27f24ce49de801c9c8ae9a1db6b0b0ac87887c4739fe453ab21bbcd79",
      "assetIds": []
    },
    {
      "x": 251,
      "y": 399,
      "size": 1,
      "price": "1011000000000000000000",
      "reserved": "",
      "salt": "0x9e639f9a2802c290992ff0c5d6aa81e5a9706a4e4f52f173e67a0ff5b06ea5cc",
      "assetIds": []
    },
    {
      "x": 251,
      "y": 400,
      "size": 1,
      "price": "1011000000000000000000",
      "reserved": "",
      "salt": "0x7e805325b859b00b16048216bf0bb9cf5b7762731cff9eb6c5c7aadfd3b06615",
      "assetIds": []
    },
    {
      "x": 251,
      "y": 401,
      "size": 1,
      "price": "1011000000000000000000",
      "reserved": "",
      "salt": "0xa8b6b54f1fe032aa11103e594a3aa333ebdc76e282f1354eccd05c4da203644e",
      "assetIds": []
    },
    {
      "x": 251,
      "y": 402,
      "size": 1,
      "price": "1011000000000000000000",
      "reserved": "",
      "salt": "0x2e1bc6a42552f3b9332bf818ee81a69f63420fc5c39962701117f940e8e1074e",
      "assetIds": []
    },
    {
      "x": 251,
      "y": 403,
      "size": 1,
      "price": "1011000000000000000000",
      "reserved": "0x7a9fe22691c811ea339d9b73150e6911a5343dca",
      "salt": "0x4bc778d5dc3cd6f5d5990fa77a74d2daa5ee6db6b1d3cbd88a6595d6f7df5bcf",
      "assetIds": []
    },
    {
      "x": 251,
      "y": 404,
      "size": 1,
      "price": "1011000000000000000000",
      "reserved": "",
      "salt": "0x3dfcdaf94e52a1db44510f1fdfcde3ae220d728c5398b3b58f152bc6bd239fe7",
      "assetIds": []
    },
    {
      "x": 251,
      "y": 405,
      "size": 1,
      "price": "1011000000000000000000",
      "reserved": "",
      "salt": "0x2b523fed632264f138c1a8aed3f48152935c591bfd11db59b024684faa19dd31",
      "assetIds": []
    },
    {
      "x": 251,
      "y": 406,
      "size": 1,
      "price": "1011000000000000000000",
      "reserved": "",
      "salt": "0xe1a6d52c32475af19438c9bab26c391c2594025b01c9a033165526caddda23cc",
      "assetIds": []
    },
    {
      "x": 251,
      "y": 407,
      "size": 1,
      "price": "1011000000000000000000",
      "reserved": "",
      "salt": "0xb667f6c26c7e561f19fbc23c86aa5517562e610bb4183c0faa4ee95304462d37",
      "assetIds": []
    },
    {
      "x": 252,
      "y": 381,
      "size": 1,
      "price": "1011000000000000000000",
      "reserved": "",
      "salt": "0xecf2a139a95a1c77613ba119ab37202418eb19014adcd3891197c35194778204",
      "assetIds": []
    },
    {
      "x": 252,
      "y": 382,
      "size": 1,
      "price": "1011000000000000000000",
      "reserved": "",
      "salt": "0xc6ff2c6f9a17aaea44ac7fe77aee8fe462a958c6249d79f3ff9cd567941619fc",
      "assetIds": []
    },
    {
      "x": 252,
      "y": 383,
      "size": 1,
      "price": "4683000000000000000000",
      "reserved": "",
      "salt": "0x6978d81aca766bf88254222a5b45bfc0cd0c2369d6594ca00e43b1636676c5c3",
      "assetIds": [
        "41506478881403507969696680653240014914910929820314476107906210059990541021186"
      ]
    },
    {
      "x": 253,
      "y": 381,
      "size": 1,
      "price": "1011000000000000000000",
      "reserved": "0x7a9fe22691c811ea339d9b73150e6911a5343dca",
      "salt": "0xbbc7bdefb5239d856a3eb03545a1ae0467e424c12d5289f6183d754bf78905ff",
      "assetIds": []
    },
    {
      "x": 253,
      "y": 382,
      "size": 1,
      "price": "1011000000000000000000",
      "reserved": "",
      "salt": "0x8cffde0b824dbc5699f01c465f732ff6b0f863d226f857c3b55d2fa7b5beaf47",
      "assetIds": []
    },
    {
      "x": 253,
      "y": 383,
      "size": 1,
      "price": "4683000000000000000000",
      "reserved": "",
      "salt": "0xa3131d8168d2a95a132c8b57ec703631b887d3b9e3f5845faab30db296912948",
      "assetIds": [
        "41506478881403507969696680653240014914910929820314476107906210059990541021186"
      ]
    },
    {
      "x": 254,
      "y": 381,
      "size": 1,
      "price": "1011000000000000000000",
      "reserved": "",
      "salt": "0x5257efeb82aa6b4065c40dd1cc9f95a4a43271efc5f6f642498927b4a9f38115",
      "assetIds": []
    },
    {
      "x": 254,
      "y": 382,
      "size": 1,
      "price": "1011000000000000000000",
      "reserved": "",
      "salt": "0x52df2711a98f165a57c302a18f38866d88c310909825823c0381d26b6f6abc08",
      "assetIds": []
    },
    {
      "x": 254,
      "y": 383,
      "size": 1,
      "price": "4683000000000000000000",
      "reserved": "",
      "salt": "0xb7ca32904a94f622af3ccb326ee09d6b46a64afab6965398254225862fdd0617",
      "assetIds": [
        "41506478881403507969696680653240014914910929820314476107906210059990541021186"
      ]
    },
    {
      "x": 255,
      "y": 378,
      "size": 1,
      "price": "4683000000000000000000",
      "reserved": "",
      "salt": "0x75fd15395ccf5d294bac015b36bcf8159bac23409166d03ec2c8d7e17f065206",
      "assetIds": [
        "41506478881403507969696680653240014914910929820314476107906210059990541021186"
      ]
    },
    {
      "x": 255,
      "y": 379,
      "size": 1,
      "price": "4683000000000000000000",
      "reserved": "",
      "salt": "0x4ce5d547559bdfe1501500fb585790b70631bd284b5e1a1fcd382c40f16a5bfe",
      "assetIds": [
        "41506478881403507969696680653240014914910929820314476107906210059990541021186"
      ]
    },
    {
      "x": 255,
      "y": 380,
      "size": 1,
      "price": "4683000000000000000000",
      "reserved": "",
      "salt": "0x6d84c7bd8131b255860c11c97603f628be31e840ce44ff93ccec78fc2f7abd99",
      "assetIds": [
        "41506478881403507969696680653240014914910929820314476107906210059990541021186"
      ]
    },
    {
      "x": 255,
      "y": 381,
      "size": 1,
      "price": "1011000000000000000000",
      "reserved": "",
      "salt": "0x0c2e4c4583103e898e3b499c2a0df1999dccba24936d43885ac3d72049ba571b",
      "assetIds": []
    },
    {
      "x": 255,
      "y": 382,
      "size": 1,
      "price": "1011000000000000000000",
      "reserved": "",
      "salt": "0x29c689887f6765888957355e833cacd3f57b99a4feae947876f51e6542387da0",
      "assetIds": []
    },
    {
      "x": 255,
      "y": 383,
      "size": 1,
      "price": "1011000000000000000000",
      "reserved": "",
      "salt": "0x0db992e8be00ea506d23c7753e7f33b346d666962cd7925419d99d4399b8f115",
      "assetIds": []
    },
    {
      "x": 256,
      "y": 378,
      "size": 1,
      "price": "4683000000000000000000",
      "reserved": "",
      "salt": "0x5c308407f27cc98405da681360646c97aad5bbd4030462414cc4f6944a74c4ca",
      "assetIds": [
        "41506478881403507969696680653240014914910929820314476107906210059990541021186"
      ]
    },
    {
      "x": 256,
      "y": 379,
      "size": 1,
      "price": "4683000000000000000000",
      "reserved": "",
      "salt": "0x6fc5a74c41c0f5d07a7db05d9cdc083359a646d30c476e13918f4692a895a22c",
      "assetIds": [
        "41506478881403507969696680653240014914910929820314476107906210059990541021186"
      ]
    },
    {
      "x": 256,
      "y": 380,
      "size": 1,
      "price": "4683000000000000000000",
      "reserved": "",
      "salt": "0xc8723a01fa1716d28a4a6171d53f1f2fdaf35f2f6ada998505136e364eac110d",
      "assetIds": [
        "41506478881403507969696680653240014914910929820314476107906210059990541021186"
      ]
    },
    {
      "x": 256,
      "y": 381,
      "size": 1,
      "price": "1011000000000000000000",
      "reserved": "",
      "salt": "0x15bd753c9bef81020936c3efae86a7ccb4f8db6449c1dd7861c3a86536c1e2bb",
      "assetIds": []
    },
    {
      "x": 256,
      "y": 382,
      "size": 1,
      "price": "1011000000000000000000",
      "reserved": "0x7a9fe22691c811ea339d9b73150e6911a5343dca",
      "salt": "0x66497b69a10c2150eb1610f769cfe1add6c150eb2853859470070a069f7fac08",
      "assetIds": []
    },
    {
      "x": 256,
      "y": 383,
      "size": 1,
      "price": "1011000000000000000000",
      "reserved": "",
      "salt": "0x015d7f8ac8a3231f6b858738c8b207871818e957b163312dbe438abe5ff34023",
      "assetIds": []
    },
    {
      "x": 257,
      "y": 378,
      "size": 1,
      "price": "4683000000000000000000",
      "reserved": "",
      "salt": "0x558e705a1de25a2ccc2616d7060cedb099faeef2c92f604373cb98997d874aed",
      "assetIds": [
        "41506478881403507969696680653240014914910929820314476107906210059990541021186"
      ]
    },
    {
      "x": 257,
      "y": 379,
      "size": 1,
      "price": "4683000000000000000000",
      "reserved": "",
      "salt": "0xe558c0f6eceee13a634144e0a2dd26cb4ed42a819204cc35ddc2bb04fbb07d95",
      "assetIds": [
        "41506478881403507969696680653240014914910929820314476107906210059990541021186"
      ]
    },
    {
      "x": 257,
      "y": 380,
      "size": 1,
      "price": "4683000000000000000000",
      "reserved": "",
      "salt": "0xfe9dc6c41cff3c76202024190d2896babd95f8d59953bc9a857f1d48720c8dbe",
      "assetIds": [
        "41506478881403507969696680653240014914910929820314476107906210059990541021186"
      ]
    },
    {
      "x": 257,
      "y": 381,
      "size": 1,
      "price": "1011000000000000000000",
      "reserved": "",
      "salt": "0xf6526ce5de6743036521adcd2e348268c547b9b755da706f5d22e81eea79357a",
      "assetIds": []
    },
    {
      "x": 257,
      "y": 382,
      "size": 1,
      "price": "1011000000000000000000",
      "reserved": "",
      "salt": "0x7d226e888199027dcf38ba9d3640eb3cffd0a695c05d1ae0061d2e52962a273f",
      "assetIds": []
    },
    {
      "x": 257,
      "y": 383,
      "size": 1,
      "price": "1011000000000000000000",
      "reserved": "",
      "salt": "0x6311781027a4f30c9d04cda3b3b96bb21625e124cec8fa335db22d7983295c0b",
      "assetIds": []
    },
    {
      "x": 258,
      "y": 372,
      "size": 1,
      "price": "4683000000000000000000",
      "reserved": "",
      "salt": "0x89faee088773b61ee0dc57bdea78fcc4ebb2db573c2bf8ffebe84d85d99ba8f7",
      "assetIds": [
        "41506478881403507969696680653240014914910929820314476107906210059990541021186"
      ]
    },
    {
      "x": 258,
      "y": 373,
      "size": 1,
      "price": "4683000000000000000000",
      "reserved": "",
      "salt": "0x6ab9dea5b9f0407ae272c62890248e837859b3a499a8a6911f3dafce61cf9652",
      "assetIds": [
        "41506478881403507969696680653240014914910929820314476107906210059990541021186"
      ]
    },
    {
      "x": 258,
      "y": 374,
      "size": 1,
      "price": "4683000000000000000000",
      "reserved": "",
      "salt": "0x1d000c2df3cb651f4ad249add0fa371708ccdabd3c2f1f5ff60c236573b8b3a6",
      "assetIds": [
        "41506478881403507969696680653240014914910929820314476107906210059990541021186"
      ]
    },
    {
      "x": 258,
      "y": 375,
      "size": 1,
      "price": "4683000000000000000000",
      "reserved": "",
      "salt": "0x22cbe254a757f83fd6012625782485cf373d80bc5b09aa1b283d4009c7b5e65a",
      "assetIds": [
        "41506478881403507969696680653240014914910929820314476107906210059990541021186"
      ]
    },
    {
      "x": 258,
      "y": 376,
      "size": 1,
      "price": "4683000000000000000000",
      "reserved": "",
      "salt": "0xe12f64aab2f366171f79c37cde2452608182e83891334a66560cc9be8560d4fd",
      "assetIds": [
        "41506478881403507969696680653240014914910929820314476107906210059990541021186"
      ]
    },
    {
      "x": 258,
      "y": 377,
      "size": 1,
      "price": "4683000000000000000000",
      "reserved": "",
      "salt": "0x141460686bee5d350f6c1d7ca9fe9e097ee326be42ae023d1018457705816dc3",
      "assetIds": [
        "41506478881403507969696680653240014914910929820314476107906210059990541021186"
      ]
    },
    {
      "x": 258,
      "y": 378,
      "size": 1,
      "price": "4683000000000000000000",
      "reserved": "",
      "salt": "0x718f63a7e42a607fe06900fc80541a60599f5569da50781d3371fb18083616ae",
      "assetIds": [
        "41506478881403507969696680653240014914910929820314476107906210059990541021186"
      ]
    },
    {
      "x": 258,
      "y": 379,
      "size": 1,
      "price": "1011000000000000000000",
      "reserved": "0x7a9fe22691c811ea339d9b73150e6911a5343dca",
      "salt": "0xc3e09c47f9bf4b11d413d2de8809b991585a730ed7f12ee0592284c27c19828c",
      "assetIds": []
    },
    {
      "x": 258,
      "y": 380,
      "size": 1,
      "price": "1011000000000000000000",
      "reserved": "",
      "salt": "0x38877411fbe53c6a4ccaeefef67240570e93e8c7157f3930005db64175d01345",
      "assetIds": []
    },
    {
      "x": 258,
      "y": 381,
      "size": 1,
      "price": "1011000000000000000000",
      "reserved": "",
      "salt": "0x2baf6ddeb2175d56d344a80f433678fc061a3b1ec0b2b4070d8be19f8f947b22",
      "assetIds": []
    },
    {
      "x": 258,
      "y": 382,
      "size": 1,
      "price": "1011000000000000000000",
      "reserved": "",
      "salt": "0x7b17aae2ae93a15dff1924ba449cc31c016377ccd3d379962fa615feb1072e3d",
      "assetIds": []
    },
    {
      "x": 258,
      "y": 383,
      "size": 1,
      "price": "1011000000000000000000",
      "reserved": "",
      "salt": "0x5d02d2e37465bf36bda4ee00b96c8b06f34152629a434da2d17ac9b83c8369b8",
      "assetIds": []
    },
    {
      "x": 259,
      "y": 372,
      "size": 1,
      "price": "4683000000000000000000",
      "reserved": "",
      "salt": "0x7366791d66c46f09ead4e548a45bc6c87c12a8300cacab1a118560e3d8931967",
      "assetIds": [
        "41506478881403507969696680653240014914910929820314476107906210059990541021186"
      ]
    },
    {
      "x": 259,
      "y": 373,
      "size": 1,
      "price": "4683000000000000000000",
      "reserved": "",
      "salt": "0x55ae35e54bbe0ef718610a77bae5a811f2af35f8765984ccadb20887db33f1d5",
      "assetIds": [
        "41506478881403507969696680653240014914910929820314476107906210059990541021186"
      ]
    },
    {
      "x": 259,
      "y": 374,
      "size": 1,
      "price": "4683000000000000000000",
      "reserved": "",
      "salt": "0x9af0bf53bee3fd4e66fde6d9310aa863586fe90e0e6a6c1a02dfb68396e55a66",
      "assetIds": [
        "41506478881403507969696680653240014914910929820314476107906210059990541021186"
      ]
    },
    {
      "x": 259,
      "y": 375,
      "size": 1,
      "price": "1011000000000000000000",
      "reserved": "",
      "salt": "0x5edab4a62d8cb38cc7259e7b72e47fd136e0f26b4a8eace3d98025c892f2acfe",
      "assetIds": []
    },
    {
      "x": 259,
      "y": 376,
      "size": 1,
      "price": "1011000000000000000000",
      "reserved": "",
      "salt": "0x0f671291ef2b97bf34a6c49e562c1e00dd85807bb3949df8e106c1a4b708ab5d",
      "assetIds": []
    },
    {
      "x": 259,
      "y": 377,
      "size": 1,
      "price": "1011000000000000000000",
      "reserved": "0x7a9fe22691c811ea339d9b73150e6911a5343dca",
      "salt": "0xe1402203e5dadbc2e81ff383849a61240a6e4b18dcafc53f4c83250b6b535f12",
      "assetIds": []
    },
    {
      "x": 259,
      "y": 378,
      "size": 1,
      "price": "1011000000000000000000",
      "reserved": "",
      "salt": "0xcf756bc050013d69f18a4ec6db10feb3bde0b6ec68ac7dd0bb79fcd513930875",
      "assetIds": []
    },
    {
      "x": 259,
      "y": 379,
      "size": 1,
      "price": "1011000000000000000000",
      "reserved": "",
      "salt": "0x9736bd599134331b4d8c2538db02f4355733d9b43c9cd9949d90e10b0cca840c",
      "assetIds": []
    },
    {
      "x": 259,
      "y": 380,
      "size": 1,
      "price": "1011000000000000000000",
      "reserved": "",
      "salt": "0xf297bb824487a3f0ca4debc5b5a96cbf41998f677ed14b9aca07b615e6038892",
      "assetIds": []
    },
    {
      "x": 259,
      "y": 381,
      "size": 1,
      "price": "1011000000000000000000",
      "reserved": "0x7a9fe22691c811ea339d9b73150e6911a5343dca",
      "salt": "0x2ae8a3d790252d3931703d88d918135dd5a321e89b4955e5007ea80d27471001",
      "assetIds": []
    },
    {
      "x": 259,
      "y": 382,
      "size": 1,
      "price": "1011000000000000000000",
      "reserved": "",
      "salt": "0x458b8bf72eb6009e78402191bac2ebaa9c973a9693d60d5ac3a37dc8833c676c",
      "assetIds": []
    },
    {
      "x": 259,
      "y": 383,
      "size": 1,
      "price": "1011000000000000000000",
      "reserved": "0x7a9fe22691c811ea339d9b73150e6911a5343dca",
      "salt": "0x8bd52d6ab6db59d58db29034a59d037fb08024ae62b3637400e15d3d44f0afa3",
      "assetIds": []
    },
    {
      "x": 260,
      "y": 372,
      "size": 1,
      "price": "4683000000000000000000",
      "reserved": "",
      "salt": "0x5bc878348587b053d8eab868968d9e88bd818318d0f5d5f41b6dc38f8dc768ce",
      "assetIds": [
        "41506478881403507969696680653240014914910929820314476107906210059990541021186"
      ]
    },
    {
      "x": 260,
      "y": 373,
      "size": 1,
      "price": "4683000000000000000000",
      "reserved": "",
      "salt": "0xdc2c7e69f8dfab46edeec061c6a189cde74b5a44b9e13d8bd4eaf5c18614808d",
      "assetIds": [
        "41506478881403507969696680653240014914910929820314476107906210059990541021186"
      ]
    },
    {
      "x": 260,
      "y": 374,
      "size": 1,
      "price": "1011000000000000000000",
      "reserved": "0x7a9fe22691c811ea339d9b73150e6911a5343dca",
      "salt": "0xedefb0eba28d744e58b654fdd6123ae2fa4536742f615002bf6ad4bd4fa0f5a5",
      "assetIds": []
    },
    {
      "x": 260,
      "y": 375,
      "size": 1,
      "price": "1011000000000000000000",
      "reserved": "",
      "salt": "0x2e1f8ee37f6664b66a9bb800430bed65541deca4c8ce45cc57d392c34bf4a8b4",
      "assetIds": []
    },
    {
      "x": 260,
      "y": 376,
      "size": 1,
      "price": "1011000000000000000000",
      "reserved": "",
      "salt": "0x3418ef11b41abe316ddb4c1948886751c568ab7a98fb8d1849ee3af8a203354c",
      "assetIds": []
    },
    {
      "x": 260,
      "y": 377,
      "size": 1,
      "price": "1011000000000000000000",
      "reserved": "",
      "salt": "0x37a8ec1eb192fc2c98af26ab40b4a61e604b36955b505cd7a6d6a649efbfb339",
      "assetIds": []
    },
    {
      "x": 260,
      "y": 378,
      "size": 1,
      "price": "1011000000000000000000",
      "reserved": "",
      "salt": "0xc19dea2134dc74e6d5131bc46c60d94662dbd6287b3080179d39c083700a41c3",
      "assetIds": []
    },
    {
      "x": 260,
      "y": 379,
      "size": 1,
      "price": "1011000000000000000000",
      "reserved": "",
      "salt": "0xd9c404266eb349487e5e45dff81fca8e95ddc1aaee439b2fe3bb3fe3f8654b2a",
      "assetIds": []
    },
    {
      "x": 260,
      "y": 380,
      "size": 1,
      "price": "1011000000000000000000",
      "reserved": "",
      "salt": "0x9298ba48d39cd43088b5c2063633c6c79bd862214a005ae6886bb37ea4a42e42",
      "assetIds": []
    },
    {
      "x": 260,
      "y": 381,
      "size": 1,
      "price": "1011000000000000000000",
      "reserved": "0x7a9fe22691c811ea339d9b73150e6911a5343dca",
      "salt": "0x9954e194aaf33303b5fad98b9c32edd1a67aa7b54fe919446b1f423ee76959b2",
      "assetIds": []
    },
    {
      "x": 260,
      "y": 382,
      "size": 1,
      "price": "1011000000000000000000",
      "reserved": "",
      "salt": "0xb0ab3fbef9ba4747c3ece036a75ce4bc80e3e5592c8669ee7422fc4e5f774eeb",
      "assetIds": []
    },
    {
      "x": 260,
      "y": 383,
      "size": 1,
      "price": "1011000000000000000000",
      "reserved": "",
      "salt": "0x64db29a4fb260dd770aa21b387c3f14ba2256fae87cab498588f1181a353f7e3",
      "assetIds": []
    },
    {
      "x": 261,
      "y": 372,
      "size": 1,
      "price": "4683000000000000000000",
      "reserved": "",
      "salt": "0x9bdba1397d3726dab1bd3ed6467cecc51226698a90354fb74621350ce605578b",
      "assetIds": [
        "41506478881403507969696680653240014914910929820314476107906210059990541021186"
      ]
    },
    {
      "x": 261,
      "y": 373,
      "size": 1,
      "price": "4683000000000000000000",
      "reserved": "",
      "salt": "0x1e61be9cece3f381c7ea274c1f12a33d4c156478794bb94e02b8bdf33030ab34",
      "assetIds": [
        "41506478881403507969696680653240014914910929820314476107906210059990541021186"
      ]
    },
    {
      "x": 261,
      "y": 374,
      "size": 1,
      "price": "4683000000000000000000",
      "reserved": "",
      "salt": "0x885c9925d9d4285da2e26a6ac17092ea58ad98a7d56c9cd0bdeed05ad5f5a7bd",
      "assetIds": [
        "41506478881403507969696680653240014914910929820314476107906210059990541021186"
      ]
    },
    {
      "x": 261,
      "y": 375,
      "size": 1,
      "price": "1011000000000000000000",
      "reserved": "",
      "salt": "0x601e7f91fb88580361a277ae3518a1ed026e5c7cecd75ed6111dda1490bb953d",
      "assetIds": []
    },
    {
      "x": 261,
      "y": 376,
      "size": 1,
      "price": "1011000000000000000000",
      "reserved": "",
      "salt": "0x601545130398bbf94468d36be65bfbb99129b43d24de6b2c62be7cd330de62f4",
      "assetIds": []
    },
    {
      "x": 261,
      "y": 377,
      "size": 1,
      "price": "1011000000000000000000",
      "reserved": "",
      "salt": "0x3ca4998eb316819d65b40a112f245c9ffbc35f96e228fe086ad54ac447424aa0",
      "assetIds": []
    },
    {
      "x": 261,
      "y": 378,
      "size": 1,
      "price": "1011000000000000000000",
      "reserved": "0x7a9fe22691c811ea339d9b73150e6911a5343dca",
      "salt": "0x894acfbc6b68f0ec9ba2b94e190a6e7a65acaed1283d1a8d982a095caddee6dd",
      "assetIds": []
    },
    {
      "x": 261,
      "y": 379,
      "size": 1,
      "price": "1011000000000000000000",
      "reserved": "0x7a9fe22691c811ea339d9b73150e6911a5343dca",
      "salt": "0x0c2602900161f03be57970cb6311bbfe23335e771e63ce65faa485c22b72e021",
      "assetIds": []
    },
    {
      "x": 261,
      "y": 380,
      "size": 1,
      "price": "1011000000000000000000",
      "reserved": "",
      "salt": "0x670a51dfb873d8229baff35d27609857ad561f97b58e5949a7ec3f2250dde8f8",
      "assetIds": []
    },
    {
      "x": 261,
      "y": 381,
      "size": 1,
      "price": "1011000000000000000000",
      "reserved": "",
      "salt": "0xb876fc2c637526c06b1ff50006befb0b8955f9970fbf138b1db364bb451c00b1",
      "assetIds": []
    },
    {
      "x": 261,
      "y": 382,
      "size": 1,
      "price": "1011000000000000000000",
      "reserved": "",
      "salt": "0x6307d6a5ce9f50df3bfe133cc1485ae582236106b155c26587169b1b204247e8",
      "assetIds": []
    },
    {
      "x": 261,
      "y": 383,
      "size": 1,
      "price": "1011000000000000000000",
      "reserved": "",
      "salt": "0x9b7d21a014d8861513b162023cbef6f77b0ca3f45379757ed72a6148e412f675",
      "assetIds": []
    },
    {
      "x": 262,
      "y": 372,
      "size": 1,
      "price": "4683000000000000000000",
      "reserved": "",
      "salt": "0x98e3a1ddebb92920d0b16e9675298fb625fb12a76f3f4eaa2b845b9648daf0bc",
      "assetIds": [
        "41506478881403507969696680653240014914910929820314476107906210059990541021186"
      ]
    },
    {
      "x": 262,
      "y": 373,
      "size": 1,
      "price": "1011000000000000000000",
      "reserved": "",
      "salt": "0x01bb6b9ed72e99bd12aef210480eee8a0ccaf0da219116c9b9f9327c48fce419",
      "assetIds": []
    },
    {
      "x": 262,
      "y": 374,
      "size": 1,
      "price": "1011000000000000000000",
      "reserved": "",
      "salt": "0x7f8de65822c0a6923f30365cfe15bb0bf75217e63080c6d3cfce565fe21b7622",
      "assetIds": []
    },
    {
      "x": 262,
      "y": 375,
      "size": 1,
      "price": "1011000000000000000000",
      "reserved": "0x7a9fe22691c811ea339d9b73150e6911a5343dca",
      "salt": "0x1492584e0efac26bbb96de2d621091f034136ae82e425302549537946b486ce2",
      "assetIds": []
    },
    {
      "x": 262,
      "y": 376,
      "size": 1,
      "price": "1011000000000000000000",
      "reserved": "",
      "salt": "0xc4df7bd39fbd80656e4d403775bfd19156da721de6c120dff795e908fdb8412c",
      "assetIds": []
    },
    {
      "x": 262,
      "y": 377,
      "size": 1,
      "price": "1011000000000000000000",
      "reserved": "",
      "salt": "0x057fa83baa3413156c784cf7502686bce6bdd84a6b0390f98c75f1a50c4f7599",
      "assetIds": []
    },
    {
      "x": 262,
      "y": 378,
      "size": 1,
      "price": "1011000000000000000000",
      "reserved": "",
      "salt": "0x2476e54bee6cdb803af3df069d9061e47662e09fa9b9a29ea232a014df807790",
      "assetIds": []
    },
    {
      "x": 262,
      "y": 379,
      "size": 1,
      "price": "1011000000000000000000",
      "reserved": "",
      "salt": "0x2878595b90b77e0a11431537b0a33d1b1d28fd77dd6cfb72628bd83fa9732454",
      "assetIds": []
    },
    {
      "x": 262,
      "y": 380,
      "size": 1,
      "price": "4683000000000000000000",
      "reserved": "",
      "salt": "0x68f84401fedc46e947164b11e3bafd26100e1b4c48e1811e5e2380534c72f8c8",
      "assetIds": [
        "41506478881403507969696680653240014914910929820314476107906210059990541021186"
      ]
    },
    {
      "x": 262,
      "y": 381,
      "size": 1,
      "price": "4683000000000000000000",
      "reserved": "",
      "salt": "0x32482a2e27c5fa708b75a03149c2e147ff41bd4c1bf740f422b783edfc8b2416",
      "assetIds": [
        "41506478881403507969696680653240014914910929820314476107906210059990541021186"
      ]
    },
    {
      "x": 262,
      "y": 382,
      "size": 1,
      "price": "4683000000000000000000",
      "reserved": "",
      "salt": "0x2256ed5bcd88d0b92be5e49a6dc2f7e34c79f02ff58ded2e1b79c6a648f64223",
      "assetIds": [
        "41506478881403507969696680653240014914910929820314476107906210059990541021186"
      ]
    },
    {
      "x": 262,
      "y": 383,
      "size": 1,
      "price": "4683000000000000000000",
      "reserved": "",
      "salt": "0x052f04cc1c82eac12c39156ba0801612d36d29ec1e2b6fe1b4be775ec5b81dd1",
      "assetIds": [
        "41506478881403507969696680653240014914910929820314476107906210059990541021186"
      ]
    },
    {
      "x": 263,
      "y": 372,
      "size": 1,
      "price": "4683000000000000000000",
      "reserved": "",
      "salt": "0xcf3fc4ccccc4cdf1824189f739bbb0da4142457297b9cada95eeb8985322b5cf",
      "assetIds": [
        "41506478881403507969696680653240014914910929820314476107906210059990541021186"
      ]
    },
    {
      "x": 263,
      "y": 373,
      "size": 1,
      "price": "4683000000000000000000",
      "reserved": "",
      "salt": "0x73927d174cd16826bc72af4546bac3b5172baf993cab93289db4e25263d75132",
      "assetIds": [
        "41506478881403507969696680653240014914910929820314476107906210059990541021186"
      ]
    },
    {
      "x": 263,
      "y": 374,
      "size": 1,
      "price": "4683000000000000000000",
      "reserved": "",
      "salt": "0xe2d8cb3668f682214ba2aa392a1f8cead525c40da00d7e5818d145f8d14399ec",
      "assetIds": [
        "41506478881403507969696680653240014914910929820314476107906210059990541021186"
      ]
    },
    {
      "x": 263,
      "y": 375,
      "size": 1,
      "price": "4683000000000000000000",
      "reserved": "",
      "salt": "0x109e6545ff9b97b471fa8112af70f5a1afceaa442edd08da95b998bf146c100f",
      "assetIds": [
        "41506478881403507969696680653240014914910929820314476107906210059990541021186"
      ]
    },
    {
      "x": 263,
      "y": 376,
      "size": 1,
      "price": "4683000000000000000000",
      "reserved": "",
      "salt": "0xedf1f14fd4cbda9a8bdc380fe13d2b395bb519f8656c5c030e1dc36159b8491a",
      "assetIds": [
        "41506478881403507969696680653240014914910929820314476107906210059990541021186"
      ]
    },
    {
      "x": 263,
      "y": 377,
      "size": 1,
      "price": "4683000000000000000000",
      "reserved": "",
      "salt": "0x9eb727f2fd56bd07c69f304831b92201d55bddd1998ce7c5cfaf38fcf0ef6dd5",
      "assetIds": [
        "41506478881403507969696680653240014914910929820314476107906210059990541021186"
      ]
    },
    {
      "x": 263,
      "y": 378,
      "size": 1,
      "price": "4683000000000000000000",
      "reserved": "",
      "salt": "0x58595b37a9b64eac04222eb755030d7616fba34acb80cc77548df6740f3bd69d",
      "assetIds": [
        "41506478881403507969696680653240014914910929820314476107906210059990541021186"
      ]
    },
    {
      "x": 263,
      "y": 379,
      "size": 1,
      "price": "4683000000000000000000",
      "reserved": "",
      "salt": "0xb9e2ad65cb7ca870a20aa9385c1f36cf5e7552c538896eabad600d71403d7797",
      "assetIds": [
        "41506478881403507969696680653240014914910929820314476107906210059990541021186"
      ]
    },
    {
      "x": 263,
      "y": 380,
      "size": 1,
      "price": "4683000000000000000000",
      "reserved": "",
      "salt": "0x335f16550bba33a4a5829cff2c51f3f27cfb6aba94ba430d698c1783b1727459",
      "assetIds": [
        "41506478881403507969696680653240014914910929820314476107906210059990541021186"
      ]
    },
    {
      "x": 263,
      "y": 381,
      "size": 1,
      "price": "4683000000000000000000",
      "reserved": "",
      "salt": "0x30b099c0d4356acd5bf0b8d7a9e4ac95f5a4b5b9963c59c09d9f7316ebf0c9fa",
      "assetIds": [
        "41506478881403507969696680653240014914910929820314476107906210059990541021186"
      ]
    },
    {
      "x": 263,
      "y": 382,
      "size": 1,
      "price": "4683000000000000000000",
      "reserved": "",
      "salt": "0x648ccfeec350a6bf268f1a1402a6622a362f696ce039162d4f2094665f027bdf",
      "assetIds": [
        "41506478881403507969696680653240014914910929820314476107906210059990541021186"
      ]
    },
    {
      "x": 263,
      "y": 383,
      "size": 1,
      "price": "4683000000000000000000",
      "reserved": "",
      "salt": "0xd68be29edbd8431c54c1b5b4d68e76b0457195a4375d2d7363d6a791d102eaac",
      "assetIds": [
        "41506478881403507969696680653240014914910929820314476107906210059990541021186"
      ]
    },
    {
      "x": 264,
      "y": 336,
      "size": 1,
      "price": "1011000000000000000000",
      "reserved": "0x7a9fe22691c811ea339d9b73150e6911a5343dca",
      "salt": "0x74c8326fb7b67c4c6b302963df2c52b68fc16ce27de5c250bbbeca3eeb8c89aa",
      "assetIds": []
    },
    {
      "x": 264,
      "y": 337,
      "size": 1,
      "price": "4683000000000000000000",
      "reserved": "",
      "salt": "0x05a9b857c9633a6cab7d3ce979c9612deef6ce7362f798e047aa69c0b4620faf",
      "assetIds": [
        "41506478881403507969696680653240014914910929820314476107906210059990541021186"
      ]
    },
    {
      "x": 264,
      "y": 338,
      "size": 1,
      "price": "4683000000000000000000",
      "reserved": "",
      "salt": "0x321347946f88276fecdae23b54c2d5aeabb7d7115c93f7a71bb3acc995b8de28",
      "assetIds": [
        "41506478881403507969696680653240014914910929820314476107906210059990541021186"
      ]
    },
    {
      "x": 264,
      "y": 339,
      "size": 1,
      "price": "4683000000000000000000",
      "reserved": "",
      "salt": "0x190edce5cb88ab39166ecc5f2848f5d1fee27695bcd7c4ce60004048fc9e9786",
      "assetIds": [
        "41506478881403507969696680653240014914910929820314476107906210059990541021186"
      ]
    },
    {
      "x": 264,
      "y": 340,
      "size": 1,
      "price": "4683000000000000000000",
      "reserved": "",
      "salt": "0x250ce047aa2cf0b68f0b700869e8cd9378573af675c1cf4a78ad447e2fa41b10",
      "assetIds": [
        "41506478881403507969696680653240014914910929820314476107906210059990541021186"
      ]
    },
    {
      "x": 264,
      "y": 341,
      "size": 1,
      "price": "4683000000000000000000",
      "reserved": "",
      "salt": "0x0c0430c1e822119a45a5d015a75e068807298ef1df675265d706293dd212121e",
      "assetIds": [
        "41506478881403507969696680653240014914910929820314476107906210059990541021186"
      ]
    },
    {
      "x": 264,
      "y": 342,
      "size": 1,
      "price": "4683000000000000000000",
      "reserved": "",
      "salt": "0xfb91337fcdd1059010a895f77bf0abe13cc6289cd217afbaaae6d1b898c53d7e",
      "assetIds": [
        "41506478881403507969696680653240014914910929820314476107906210059990541021186"
      ]
    },
    {
      "x": 264,
      "y": 343,
      "size": 1,
      "price": "4683000000000000000000",
      "reserved": "",
      "salt": "0xcc58a5124110e0d13dede4e81a051710fd61e18d11f0967e8fdd5594e91b6ea4",
      "assetIds": [
        "41506478881403507969696680653240014914910929820314476107906210059990541021186"
      ]
    },
    {
      "x": 264,
      "y": 344,
      "size": 1,
      "price": "4683000000000000000000",
      "reserved": "",
      "salt": "0xeafbd5be85ab0ed580f4f70d832e8947e87c8913fe791f86d5112524cc630266",
      "assetIds": [
        "41506478881403507969696680653240014914910929820314476107906210059990541021186"
      ]
    },
    {
      "x": 264,
      "y": 345,
      "size": 1,
      "price": "4683000000000000000000",
      "reserved": "",
      "salt": "0x5500a28e051a4baf4180d553b9f564db6662bc0b229a18703749ca021843d2f5",
      "assetIds": [
        "41506478881403507969696680653240014914910929820314476107906210059990541021186"
      ]
    },
    {
      "x": 264,
      "y": 346,
      "size": 1,
      "price": "4683000000000000000000",
      "reserved": "",
      "salt": "0x59ad921bbc29780b2e263158a121fa21a6ee9b7de66ac6da3215cc14c1b0e71e",
      "assetIds": [
        "41506478881403507969696680653240014914910929820314476107906210059990541021186"
      ]
    },
    {
      "x": 264,
      "y": 347,
      "size": 1,
      "price": "4683000000000000000000",
      "reserved": "",
      "salt": "0x5a1c72a112a68df4e90bcceaddd71a653946ef90107de7f20c695f2116fb4bbd",
      "assetIds": [
        "41506478881403507969696680653240014914910929820314476107906210059990541021186"
      ]
    },
    {
      "x": 264,
      "y": 348,
      "size": 1,
      "price": "4683000000000000000000",
      "reserved": "",
      "salt": "0x28d4879e65ad94b457aabbe7bf1664dae046564ec6575620889d04737cb1df43",
      "assetIds": [
        "41506478881403507969696680653240014914910929820314476107906210059990541021186"
      ]
    },
    {
      "x": 264,
      "y": 349,
      "size": 1,
      "price": "4683000000000000000000",
      "reserved": "",
      "salt": "0x16446d1e45c717524b10f1266f222e5b3a6c78cd35f05830e241566ab0ea7f80",
      "assetIds": [
        "41506478881403507969696680653240014914910929820314476107906210059990541021186"
      ]
    },
    {
      "x": 264,
      "y": 350,
      "size": 1,
      "price": "4683000000000000000000",
      "reserved": "",
      "salt": "0x180689275aabb17d77259e84252c87e7f3ba5027cd28ae6e04b926405d90dee5",
      "assetIds": [
        "41506478881403507969696680653240014914910929820314476107906210059990541021186"
      ]
    },
    {
      "x": 264,
      "y": 351,
      "size": 1,
      "price": "1011000000000000000000",
      "reserved": "0x7a9fe22691c811ea339d9b73150e6911a5343dca",
      "salt": "0xa2fa05a1bf52b8196cfa4d85e4ddd905ddba7747da79117c07a541f7f0084828",
      "assetIds": []
    },
    {
      "x": 264,
      "y": 352,
      "size": 1,
      "price": "4683000000000000000000",
      "reserved": "",
      "salt": "0x38edc153b1439d40852f372a712d198723665300eca14fc8d9d8e365eac7e265",
      "assetIds": [
        "41506478881403507969696680653240014914910929820314476107906210059990541021186"
      ]
    },
    {
      "x": 264,
      "y": 353,
      "size": 1,
      "price": "4683000000000000000000",
      "reserved": "",
      "salt": "0xb264f4e91cafb92192c2cede2474cf0ea6670ea08995098aa9fa5d8cf7747537",
      "assetIds": [
        "41506478881403507969696680653240014914910929820314476107906210059990541021186"
      ]
    },
    {
      "x": 264,
      "y": 357,
      "size": 1,
      "price": "4683000000000000000000",
      "reserved": "",
      "salt": "0x2eaa3c200b3da4e7c0893ba8568cada4547229ceeb3502733ec6930ed95ca662",
      "assetIds": [
        "41506478881403507969696680653240014914910929820314476107906210059990541021186"
      ]
    },
    {
      "x": 264,
      "y": 358,
      "size": 1,
      "price": "1011000000000000000000",
      "reserved": "0x7a9fe22691c811ea339d9b73150e6911a5343dca",
      "salt": "0x664895afd4790ec6036e5bd084c399e63b61a01138c6f64e73289376f7ef396b",
      "assetIds": []
    },
    {
      "x": 264,
      "y": 359,
      "size": 1,
      "price": "4683000000000000000000",
      "reserved": "",
      "salt": "0x670868ffd311ca95255a5144aa67abe32064a3b81ee0a3b4dca6f3456e807b68",
      "assetIds": [
        "41506478881403507969696680653240014914910929820314476107906210059990541021186"
      ]
    },
    {
      "x": 264,
      "y": 384,
      "size": 1,
      "price": "4683000000000000000000",
      "reserved": "",
      "salt": "0x90b0fac3da272622f7313de1c6ed22d07536200008204256d5b940740501f279",
      "assetIds": [
        "41506478881403507969696680653240014914910929820314476107906210059990541021186"
      ]
    },
    {
      "x": 264,
      "y": 385,
      "size": 1,
      "price": "1011000000000000000000",
      "reserved": "",
      "salt": "0xc645c41964130e384e489ce217b0ae3171c10669ac37c126c367617168396148",
      "assetIds": []
    },
    {
      "x": 264,
      "y": 386,
      "size": 1,
      "price": "1011000000000000000000",
      "reserved": "",
      "salt": "0xafcfcb4e3ab2c7763249744c7ca6b9b689696f02345e9e87ff14bee8de185211",
      "assetIds": []
    },
    {
      "x": 264,
      "y": 387,
      "size": 1,
      "price": "1011000000000000000000",
      "reserved": "",
      "salt": "0x5534af30531ee68fcb8ecf4479c326cdb34159843cd134d162267b54dfa7ed2a",
      "assetIds": []
    },
    {
      "x": 264,
      "y": 388,
      "size": 1,
      "price": "1011000000000000000000",
      "reserved": "",
      "salt": "0x0701d41875ff3937ef6aac08c43550ad41ed6244fda7a7d274d0437ac60961d3",
      "assetIds": []
    },
    {
      "x": 264,
      "y": 389,
      "size": 1,
      "price": "1011000000000000000000",
      "reserved": "0x7a9fe22691c811ea339d9b73150e6911a5343dca",
      "salt": "0xf1b851ec9eec5df15d19e7ff2fe3f82e9b3488d3d25597fe35534cc4502dbf19",
      "assetIds": []
    },
    {
      "x": 264,
      "y": 390,
      "size": 1,
      "price": "1011000000000000000000",
      "reserved": "0x7a9fe22691c811ea339d9b73150e6911a5343dca",
      "salt": "0x8baf1aa6d7657fed7f1dcc2147a846d955d7ade7f941bbf92c1de101987710e8",
      "assetIds": []
    },
    {
      "x": 264,
      "y": 391,
      "size": 1,
      "price": "1011000000000000000000",
      "reserved": "",
      "salt": "0xa588d8ea4bce6487850da872edec4ca1b865a3563da8951b199d3335bbb6b0f4",
      "assetIds": []
    },
    {
      "x": 264,
      "y": 392,
      "size": 1,
      "price": "1011000000000000000000",
      "reserved": "0x7a9fe22691c811ea339d9b73150e6911a5343dca",
      "salt": "0xf19279a5328851d27d1b6ea64a4d43bdc6d0f4bed9fa08889262ede9d51470cc",
      "assetIds": []
    },
    {
      "x": 264,
      "y": 393,
      "size": 1,
      "price": "1011000000000000000000",
      "reserved": "",
      "salt": "0x7c657eec7257fe030fab951a2bfd97aca26e9e920369c4045b7aecab330c2c9e",
      "assetIds": []
    },
    {
      "x": 264,
      "y": 394,
      "size": 1,
      "price": "1011000000000000000000",
      "reserved": "",
      "salt": "0x8f184761be18e7e4d76bb9bdf9e5c36397de4a2b64fd099310757f8d1e8c347d",
      "assetIds": []
    },
    {
      "x": 264,
      "y": 395,
      "size": 1,
      "price": "1011000000000000000000",
      "reserved": "",
      "salt": "0x648e61705392d70b2cdcc6f779f6adb2675a119bb7b8b483b24fc1ed5c1ba2f4",
      "assetIds": []
    },
    {
      "x": 265,
      "y": 336,
      "size": 1,
      "price": "1011000000000000000000",
      "reserved": "0x7a9fe22691c811ea339d9b73150e6911a5343dca",
      "salt": "0x3b21c5f872a5f406b8d3a7495070c27eba46f8c08d27c3b313128dbc7228541d",
      "assetIds": []
    },
    {
      "x": 265,
      "y": 337,
      "size": 1,
      "price": "1011000000000000000000",
      "reserved": "",
      "salt": "0x0e8d46b1ddb37be4f14989f883ffd24feb5de3e4afd1b9269624f01270f0ae57",
      "assetIds": []
    },
    {
      "x": 265,
      "y": 338,
      "size": 1,
      "price": "1011000000000000000000",
      "reserved": "",
      "salt": "0xfe720413997533c65762a77d4937bf075d66e03f5a495e2e3a7fba08f52846cd",
      "assetIds": []
    },
    {
      "x": 265,
      "y": 339,
      "size": 1,
      "price": "1011000000000000000000",
      "reserved": "",
      "salt": "0x64ef61000d7f8b27a2839e5541b8b082c25dfd16fad889ee9043cbb2a490e860",
      "assetIds": []
    },
    {
      "x": 265,
      "y": 340,
      "size": 1,
      "price": "1011000000000000000000",
      "reserved": "",
      "salt": "0xef6ece8db830bd80e316b4c0e8d6f6f0a69dbddcd54a441b03c4ea967243c497",
      "assetIds": []
    },
    {
      "x": 265,
      "y": 341,
      "size": 1,
      "price": "1011000000000000000000",
      "reserved": "",
      "salt": "0x4cbde47575e3855167653515c89af2d9a96ad84bc8937a2084662539834ba678",
      "assetIds": []
    },
    {
      "x": 265,
      "y": 342,
      "size": 1,
      "price": "4683000000000000000000",
      "reserved": "",
      "salt": "0xad5c00c26e035644150d07af8bb39676752682e3624f8b53bd2a51f8be7217b0",
      "assetIds": [
        "41506478881403507969696680653240014914910929820314476107906210059990541021186"
      ]
    },
    {
      "x": 265,
      "y": 343,
      "size": 1,
      "price": "4683000000000000000000",
      "reserved": "",
      "salt": "0xbc458871da70a0d343eef4358a02df1dccb43e15809654ad7fc2c3ada016819d",
      "assetIds": [
        "41506478881403507969696680653240014914910929820314476107906210059990541021186"
      ]
    },
    {
      "x": 265,
      "y": 344,
      "size": 1,
      "price": "4683000000000000000000",
      "reserved": "",
      "salt": "0x91d80b3c1f5e0d2329583eb09af6fed6526d66aacfa5a7da0a90fc8af2fc49c7",
      "assetIds": [
        "41506478881403507969696680653240014914910929820314476107906210059990541021186"
      ]
    },
    {
      "x": 265,
      "y": 345,
      "size": 1,
      "price": "4683000000000000000000",
      "reserved": "",
      "salt": "0xd695b46091440a662529120cc02ab2b635dd08f6927ffbf01de2e6939515b8c7",
      "assetIds": [
        "41506478881403507969696680653240014914910929820314476107906210059990541021186"
      ]
    },
    {
      "x": 265,
      "y": 346,
      "size": 1,
      "price": "4683000000000000000000",
      "reserved": "",
      "salt": "0xc5a3c1f9f1be759bccc0f735564f56f2076f162c2d2382651da06d4c8cbf6390",
      "assetIds": [
        "41506478881403507969696680653240014914910929820314476107906210059990541021186"
      ]
    },
    {
      "x": 265,
      "y": 347,
      "size": 1,
      "price": "4683000000000000000000",
      "reserved": "",
      "salt": "0xb152f713e570d7d8fcbdecf5f8be6840807d601398e23f9ebca3538b2af90181",
      "assetIds": [
        "41506478881403507969696680653240014914910929820314476107906210059990541021186"
      ]
    },
    {
      "x": 265,
      "y": 348,
      "size": 1,
      "price": "4683000000000000000000",
      "reserved": "",
      "salt": "0x5208c8c4bec70b4cbb000a219210ee4648b3dba5ebe742b96a2978d1c4deb49a",
      "assetIds": [
        "41506478881403507969696680653240014914910929820314476107906210059990541021186"
      ]
    },
    {
      "x": 265,
      "y": 349,
      "size": 1,
      "price": "4683000000000000000000",
      "reserved": "",
      "salt": "0xb6affa52ac21f2570c98073239e31e93eca627efd32e0f03a5deb32393ee8001",
      "assetIds": [
        "41506478881403507969696680653240014914910929820314476107906210059990541021186"
      ]
    },
    {
      "x": 265,
      "y": 350,
      "size": 1,
      "price": "4683000000000000000000",
      "reserved": "",
      "salt": "0xca20cc4558f811b194afd462ffc4f955415a180fb5a4f6a783959d62b7013541",
      "assetIds": [
        "41506478881403507969696680653240014914910929820314476107906210059990541021186"
      ]
    },
    {
      "x": 265,
      "y": 351,
      "size": 1,
      "price": "4683000000000000000000",
      "reserved": "",
      "salt": "0x05b91cfb33e8855ff74bdfc48ce0aa186551bd1f81505a16fdcbe61947637806",
      "assetIds": [
        "41506478881403507969696680653240014914910929820314476107906210059990541021186"
      ]
    },
    {
      "x": 265,
      "y": 352,
      "size": 1,
      "price": "1011000000000000000000",
      "reserved": "",
      "salt": "0xac31829c839786d385c06efe8a7aec19998ca1bdfc70c7f9f33d17411704d8cd",
      "assetIds": []
    },
    {
      "x": 265,
      "y": 353,
      "size": 1,
      "price": "1011000000000000000000",
      "reserved": "",
      "salt": "0x683aca1360676343e0cc84bd8ce2bd653f8b03bb156a25d4a057c91bad411e9b",
      "assetIds": []
    },
    {
      "x": 265,
      "y": 357,
      "size": 1,
      "price": "1011000000000000000000",
      "reserved": "",
      "salt": "0xfaa6373df5a577306d9739e90598ca5e26a9b505b583837f19bb4a81721f2565",
      "assetIds": []
    },
    {
      "x": 265,
      "y": 358,
      "size": 1,
      "price": "1011000000000000000000",
      "reserved": "",
      "salt": "0x914c4e1cdd6b7dcaef8c3bd2591ef54ad4f65e2b3b1639318918c9a5c30c2792",
      "assetIds": []
    },
    {
      "x": 265,
      "y": 359,
      "size": 1,
      "price": "4683000000000000000000",
      "reserved": "",
      "salt": "0xa875ebd8f56eb90a3b30f574057c4ee65104381c313491688390b7e043afaa22",
      "assetIds": [
        "41506478881403507969696680653240014914910929820314476107906210059990541021186"
      ]
    },
    {
      "x": 265,
      "y": 384,
      "size": 1,
      "price": "4683000000000000000000",
      "reserved": "",
      "salt": "0x683e46f02de43f714e4c1100ad5f90852e7e8f160fe3d43550a72488a125fcdd",
      "assetIds": [
        "41506478881403507969696680653240014914910929820314476107906210059990541021186"
      ]
    },
    {
      "x": 265,
      "y": 385,
      "size": 1,
      "price": "1011000000000000000000",
      "reserved": "",
      "salt": "0xfd4f0243eee2e1fc924af90085b17a571f92652c1ec61b73a7766c0df00f692c",
      "assetIds": []
    },
    {
      "x": 265,
      "y": 386,
      "size": 1,
      "price": "1011000000000000000000",
      "reserved": "",
      "salt": "0x267af2da8539a2c725ac754153637b95cd707b34431a96c464dad9291d2a4b10",
      "assetIds": []
    },
    {
      "x": 265,
      "y": 387,
      "size": 1,
      "price": "1011000000000000000000",
      "reserved": "0x7a9fe22691c811ea339d9b73150e6911a5343dca",
      "salt": "0x3b0724f63608e23d4ad9e986d19ccb99757ed31ad026e0b6f7f42e9e2c56784a",
      "assetIds": []
    },
    {
      "x": 265,
      "y": 388,
      "size": 1,
      "price": "1011000000000000000000",
      "reserved": "",
      "salt": "0xfd31a2fbc3f6f9f92932e298bcfd5961bc63a25b92485f66d49035ca3eca1b8f",
      "assetIds": []
    },
    {
      "x": 265,
      "y": 389,
      "size": 1,
      "price": "1011000000000000000000",
      "reserved": "",
      "salt": "0xda8df210289de6d82bea6a1c152e5bc74cf1755b1929aafbaa0a3cadbed9e493",
      "assetIds": []
    },
    {
      "x": 265,
      "y": 390,
      "size": 1,
      "price": "1011000000000000000000",
      "reserved": "",
      "salt": "0xe464c776e73976b5274439682fb87111503907f8776ca9ea56f94c89ae231662",
      "assetIds": []
    },
    {
      "x": 265,
      "y": 391,
      "size": 1,
      "price": "1011000000000000000000",
      "reserved": "",
      "salt": "0xa43aece0e60749c043779f6f2b691a868737c30e8230e91b406fd70e8a8f0a61",
      "assetIds": []
    },
    {
      "x": 265,
      "y": 392,
      "size": 1,
      "price": "1011000000000000000000",
      "reserved": "0x7a9fe22691c811ea339d9b73150e6911a5343dca",
      "salt": "0xcfa76d1be41933fe76cc6669a06b0bd63f701cf265fbba210927031d084e3f6c",
      "assetIds": []
    },
    {
      "x": 265,
      "y": 393,
      "size": 1,
      "price": "1011000000000000000000",
      "reserved": "",
      "salt": "0xdbc51dda7fd59ecb73d2041ca3a6ea07ce945379ee26609f8ad87eeb81606f0f",
      "assetIds": []
    },
    {
      "x": 265,
      "y": 394,
      "size": 1,
      "price": "1011000000000000000000",
      "reserved": "0x7a9fe22691c811ea339d9b73150e6911a5343dca",
      "salt": "0x285480b938e0f9de71531b1ac1b780fb9ff3d29796a2fc8626c1c852a27308ea",
      "assetIds": []
    },
    {
      "x": 265,
      "y": 395,
      "size": 1,
      "price": "1011000000000000000000",
      "reserved": "",
      "salt": "0xc183bbf017ea8a39f2640d8f11604f92cdcf5b767ccf75c82d5440eec7c9d4fa",
      "assetIds": []
    },
    {
      "x": 266,
      "y": 336,
      "size": 1,
      "price": "1011000000000000000000",
      "reserved": "",
      "salt": "0xb3c284b3f921d7af3d085676d97c85715c5dacb836727edc15dd8303a45967a4",
      "assetIds": []
    },
    {
      "x": 266,
      "y": 337,
      "size": 1,
      "price": "1011000000000000000000",
      "reserved": "",
      "salt": "0xd0914a583d809bf01ed48f43a13c58c2c8c05aec8ac8235152f00e56d02c1e8e",
      "assetIds": []
    },
    {
      "x": 266,
      "y": 338,
      "size": 1,
      "price": "1011000000000000000000",
      "reserved": "",
      "salt": "0xd4a86cb2a87a32f4632a507efbd6ac1e09552b5bfe30fca9f76c8ebe7ad0246c",
      "assetIds": []
    },
    {
      "x": 266,
      "y": 339,
      "size": 1,
      "price": "1011000000000000000000",
      "reserved": "",
      "salt": "0xb813d8c934b8c4aaf5e1e41bc4fca7ab7284151c7b55ab05025354d3d7c3685b",
      "assetIds": []
    },
    {
      "x": 266,
      "y": 340,
      "size": 1,
      "price": "1011000000000000000000",
      "reserved": "",
      "salt": "0xfc3fcc79fce7ef2a18fa235228e6080ee3ec9d9ff07df0c96f98f8008795222f",
      "assetIds": []
    },
    {
      "x": 266,
      "y": 341,
      "size": 1,
      "price": "1011000000000000000000",
      "reserved": "",
      "salt": "0x140bbca092129d8e788e3e924043479cc146c04499b59a8a20585cd3bc3d3186",
      "assetIds": []
    },
    {
      "x": 266,
      "y": 342,
      "size": 1,
      "price": "1011000000000000000000",
      "reserved": "",
      "salt": "0xdd80797eb5eef5cbd0875e9ddd32db4ea20532dd09cf672244d39fa4e8bbf4d3",
      "assetIds": []
    },
    {
      "x": 266,
      "y": 343,
      "size": 1,
      "price": "1011000000000000000000",
      "reserved": "",
      "salt": "0xcef9352740950cfabc69186a2a093423e4f94b99b7f7800f3f648409263f8611",
      "assetIds": []
    },
    {
      "x": 266,
      "y": 344,
      "size": 1,
      "price": "1011000000000000000000",
      "reserved": "0x7a9fe22691c811ea339d9b73150e6911a5343dca",
      "salt": "0xb402796989f594e1a4f99c8328f3c02e3b24cb184cb19ae2689a795549de647c",
      "assetIds": []
    },
    {
      "x": 266,
      "y": 345,
      "size": 1,
      "price": "1011000000000000000000",
      "reserved": "",
      "salt": "0xaae7505e56483db7258c1ad99db54b79f4de021ed0bfdb2f378f7ed158092cdd",
      "assetIds": []
    },
    {
      "x": 266,
      "y": 346,
      "size": 1,
      "price": "1011000000000000000000",
      "reserved": "",
      "salt": "0xc58896d361e5ffbee939f42318f8cfbaabab6bab6c0c6b1de049e15f0aa244f2",
      "assetIds": []
    },
    {
      "x": 266,
      "y": 347,
      "size": 1,
      "price": "1011000000000000000000",
      "reserved": "",
      "salt": "0xa4fea2c34db187090764cf53ebadf39dc447382c6dfe65829505936c9b2c6f64",
      "assetIds": []
    },
    {
      "x": 266,
      "y": 348,
      "size": 1,
      "price": "1011000000000000000000",
      "reserved": "0x7a9fe22691c811ea339d9b73150e6911a5343dca",
      "salt": "0x13bdeb5dd5dd6ce8fbce0e2b562c18a21f66b720f84a1175ad62bdc8d8d87dac",
      "assetIds": []
    },
    {
      "x": 266,
      "y": 349,
      "size": 1,
      "price": "1011000000000000000000",
      "reserved": "",
      "salt": "0x915e334e53e83888db3a13638e837fb864b7b5592095820e454139d3c955e40d",
      "assetIds": []
    },
    {
      "x": 266,
      "y": 350,
      "size": 1,
      "price": "1011000000000000000000",
      "reserved": "",
      "salt": "0x9ef3b213344e15815a073506cd48136597daf065258f4769e625af44b76cb487",
      "assetIds": []
    },
    {
      "x": 266,
      "y": 351,
      "size": 1,
      "price": "1011000000000000000000",
      "reserved": "",
      "salt": "0xfbd28c0054cd82103e7c8e1561508a7af3020cba1fbdb9dd6c170998f26d2d2e",
      "assetIds": []
    },
    {
      "x": 266,
      "y": 352,
      "size": 1,
      "price": "1011000000000000000000",
      "reserved": "",
      "salt": "0x89bffacc94edf7e70a1422a11d69936ad171be7609481af54e1667f6103bed7f",
      "assetIds": []
    },
    {
      "x": 266,
      "y": 353,
      "size": 1,
      "price": "1011000000000000000000",
      "reserved": "",
      "salt": "0xce485e39fbbfb11882f986466a226a6001bc877b2ff7861152747d1ca613e5ae",
      "assetIds": []
    },
    {
      "x": 266,
      "y": 357,
      "size": 1,
      "price": "1011000000000000000000",
      "reserved": "",
      "salt": "0x994af380f542084653fba737cd455bf42b2726c6192b1f9875de1cdd013d5463",
      "assetIds": []
    },
    {
      "x": 266,
      "y": 358,
      "size": 1,
      "price": "1011000000000000000000",
      "reserved": "0x7a9fe22691c811ea339d9b73150e6911a5343dca",
      "salt": "0xf70baac131cf3d4e1c401f50984b968473e536ad0b1e11e8f2c01a90300952ba",
      "assetIds": []
    },
    {
      "x": 266,
      "y": 359,
      "size": 1,
      "price": "4683000000000000000000",
      "reserved": "",
      "salt": "0x70003ff0a1c68ff2abd44334b2d38681dbcf594b4268fed5c5f4d4e5eb6ddedd",
      "assetIds": [
        "41506478881403507969696680653240014914910929820314476107906210059990541021186"
      ]
    },
    {
      "x": 266,
      "y": 384,
      "size": 1,
      "price": "4683000000000000000000",
      "reserved": "",
      "salt": "0x1cc68f55011919664e619126d7fb87dbf846fd1cf226555738c1933ffa6ece82",
      "assetIds": [
        "41506478881403507969696680653240014914910929820314476107906210059990541021186"
      ]
    },
    {
      "x": 266,
      "y": 385,
      "size": 1,
      "price": "1011000000000000000000",
      "reserved": "",
      "salt": "0x7c52ba14e297ce846ad8f7bb9bca998af61d288f618cd116eb59bc39f698faed",
      "assetIds": []
    },
    {
      "x": 266,
      "y": 386,
      "size": 1,
      "price": "1011000000000000000000",
      "reserved": "",
      "salt": "0x4b11ee26288fdc6ee69c8cb6ea3f666a54b5446e368242688b1f094cbe19aa41",
      "assetIds": []
    },
    {
      "x": 266,
      "y": 387,
      "size": 1,
      "price": "1011000000000000000000",
      "reserved": "",
      "salt": "0xa01a7553b35c3dbe23112571b23f3b5b8157f4c8c7ed056c742f1631f3e9c935",
      "assetIds": []
    },
    {
      "x": 266,
      "y": 388,
      "size": 1,
      "price": "1011000000000000000000",
      "reserved": "",
      "salt": "0xe2b519bbe89f60eeceb580bcedf837d6ff600218008fbf585e8163003b9e8335",
      "assetIds": []
    },
    {
      "x": 266,
      "y": 389,
      "size": 1,
      "price": "1011000000000000000000",
      "reserved": "",
      "salt": "0xcb6bfbe93a27966253697d5e0176625c650c9be3a587711d810c97be3211d89b",
      "assetIds": []
    },
    {
      "x": 266,
      "y": 390,
      "size": 1,
      "price": "1011000000000000000000",
      "reserved": "",
      "salt": "0x574179e641b24bd0caae1cd74bcdc3232569caefcc1784340ded63cc8c4172ad",
      "assetIds": []
    },
    {
      "x": 266,
      "y": 391,
      "size": 1,
      "price": "1011000000000000000000",
      "reserved": "",
      "salt": "0xcffd1d5a374d0bc38921dbd23febd38e4e32b2b14c0f8b58fd04ad20800e10b3",
      "assetIds": []
    },
    {
      "x": 266,
      "y": 392,
      "size": 1,
      "price": "1011000000000000000000",
      "reserved": "",
      "salt": "0xa36978c8fc854aeac887ef03bc78d9543db7f5397685a5bef9f8cfa253e3fc26",
      "assetIds": []
    },
    {
      "x": 266,
      "y": 393,
      "size": 1,
      "price": "1011000000000000000000",
      "reserved": "",
      "salt": "0xaad5b566eb1f3ec4c01ea1d9b1d822de54b5a885f2cbfb7826b93122b2331e06",
      "assetIds": []
    },
    {
      "x": 266,
      "y": 394,
      "size": 1,
      "price": "1011000000000000000000",
      "reserved": "",
      "salt": "0xe65f4de297a62f4ec1f40c0b0a0268fdcee12f543bb7fdcfa9d58c9556293c9d",
      "assetIds": []
    },
    {
      "x": 266,
      "y": 395,
      "size": 1,
      "price": "1011000000000000000000",
      "reserved": "",
      "salt": "0x67f490e910ab81788a54ba446bf7c31ab4e3adc5c63a0ec44547463bf978a1fe",
      "assetIds": []
    },
    {
      "x": 267,
      "y": 336,
      "size": 1,
      "price": "1011000000000000000000",
      "reserved": "",
      "salt": "0x7c7b135d9be1ee24500473773da0eccda3dd6f0a9d563fd933abc718556079ea",
      "assetIds": []
    },
    {
      "x": 267,
      "y": 337,
      "size": 1,
      "price": "1011000000000000000000",
      "reserved": "0x7a9fe22691c811ea339d9b73150e6911a5343dca",
      "salt": "0xc5ad47f22874d59bb7fb9e1b73faad59935f5e3c52fdc4f2603a08ad0a6218d2",
      "assetIds": []
    },
    {
      "x": 267,
      "y": 338,
      "size": 1,
      "price": "1011000000000000000000",
      "reserved": "",
      "salt": "0xdcbfa403b951254a6df523bd1f8e4b23949cfb3900cee080fb213a3767dee788",
      "assetIds": []
    },
    {
      "x": 267,
      "y": 339,
      "size": 1,
      "price": "1011000000000000000000",
      "reserved": "",
      "salt": "0xbdb4ff8f072ce54c6d0061a7877f69be4320c9d12e2b94e8716171e79eae86ff",
      "assetIds": []
    },
    {
      "x": 267,
      "y": 340,
      "size": 1,
      "price": "1011000000000000000000",
      "reserved": "",
      "salt": "0xfa9b69ce85e5626755538d9f26d290dc582327d55af02f3c4441189f07e580c0",
      "assetIds": []
    },
    {
      "x": 267,
      "y": 341,
      "size": 1,
      "price": "1011000000000000000000",
      "reserved": "",
      "salt": "0x8d15997564829db98a4acd785e796f0e8a35792d06a2bbe767b9c69dad633fbb",
      "assetIds": []
    },
    {
      "x": 267,
      "y": 342,
      "size": 1,
      "price": "1011000000000000000000",
      "reserved": "",
      "salt": "0x8b13a6470c371e0ea00e3973cd371df16ccb9bb290938619b6c8623be7ac9459",
      "assetIds": []
    },
    {
      "x": 267,
      "y": 343,
      "size": 1,
      "price": "1011000000000000000000",
      "reserved": "",
      "salt": "0x39b0d7efd0a5ebac222322b57df1ee824892abfc4d48f7654720fe0eac8f451a",
      "assetIds": []
    },
    {
      "x": 267,
      "y": 344,
      "size": 1,
      "price": "1011000000000000000000",
      "reserved": "0x7a9fe22691c811ea339d9b73150e6911a5343dca",
      "salt": "0xcc3f89c46421bff6a1e6d780f099e2e6c5b4af5539694139ba6b5871363ca830",
      "assetIds": []
    },
    {
      "x": 267,
      "y": 345,
      "size": 1,
      "price": "1011000000000000000000",
      "reserved": "",
      "salt": "0x731bc3ef5ae8e6fc22d58294e0964086a09c93fadec2cd66fe02ae0e2e0d3a83",
      "assetIds": []
    },
    {
      "x": 267,
      "y": 346,
      "size": 1,
      "price": "1011000000000000000000",
      "reserved": "",
      "salt": "0x0148a9d388779bc4d3fc5f6edbbff26e09ebee311ef20f6cf4993edab8ae244a",
      "assetIds": []
    },
    {
      "x": 267,
      "y": 347,
      "size": 1,
      "price": "1011000000000000000000",
      "reserved": "",
      "salt": "0x1a27e3258530645741462e30d7c169ea4fc936e7820ea92ab0af6243c1f29a9c",
      "assetIds": []
    },
    {
      "x": 267,
      "y": 348,
      "size": 1,
      "price": "1011000000000000000000",
      "reserved": "0x7a9fe22691c811ea339d9b73150e6911a5343dca",
      "salt": "0xd863036d731eb50564d4599811de680b5b7a6aaeadf786507ce91cd96389f998",
      "assetIds": []
    },
    {
      "x": 267,
      "y": 349,
      "size": 1,
      "price": "1011000000000000000000",
      "reserved": "",
      "salt": "0xb4f5ac5f62406eb6aa9dc077adf2b939e6761d5ae8eff87bfaceed918d6b6256",
      "assetIds": []
    },
    {
      "x": 267,
      "y": 350,
      "size": 1,
      "price": "1011000000000000000000",
      "reserved": "",
      "salt": "0xe6030bb78bd8e622825f4d081e8904549a4ce684c6496756340b246779deb2a7",
      "assetIds": []
    },
    {
      "x": 267,
      "y": 351,
      "size": 1,
      "price": "1011000000000000000000",
      "reserved": "0x7a9fe22691c811ea339d9b73150e6911a5343dca",
      "salt": "0x7cd4ef16bebc722526735e4d221900705fc95358f608b6e92963ae544f97d3c1",
      "assetIds": []
    },
    {
      "x": 267,
      "y": 352,
      "size": 1,
      "price": "1011000000000000000000",
      "reserved": "",
      "salt": "0x77d10b2257fc9456a49fb2a2bcb74f417470661435a4eb4dca6fb7ec3a7fa8c0",
      "assetIds": []
    },
    {
      "x": 267,
      "y": 353,
      "size": 1,
      "price": "1011000000000000000000",
      "reserved": "",
      "salt": "0x616e242a2a85f016d1785302ae847c31a53441607dbeae2029af3fbf0e47cd04",
      "assetIds": []
    },
    {
      "x": 267,
      "y": 354,
      "size": 1,
      "price": "1011000000000000000000",
      "reserved": "",
      "salt": "0x6e23e50179ae1cf2835ea5f3516ac1efb1a4e1542de0e6da38505e6d1c266b10",
      "assetIds": []
    },
    {
      "x": 267,
      "y": 355,
      "size": 1,
      "price": "1011000000000000000000",
      "reserved": "0x7a9fe22691c811ea339d9b73150e6911a5343dca",
      "salt": "0x61f86d5ad1c2bb144a8b1633947a1476bd34f8d6ef60f33b5479e41a845af560",
      "assetIds": []
    },
    {
      "x": 267,
      "y": 356,
      "size": 1,
      "price": "1011000000000000000000",
      "reserved": "",
      "salt": "0x7e57e5ac2cabbb88ac2fba98f7c032ab28311e1ea51e5241a9bd080ef397468d",
      "assetIds": []
    },
    {
      "x": 267,
      "y": 357,
      "size": 1,
      "price": "1011000000000000000000",
      "reserved": "",
      "salt": "0x2f454fca2ca224c9828d60e8294fb8fff019dc81218c68bd25f2fc38d04024ba",
      "assetIds": []
    },
    {
      "x": 267,
      "y": 358,
      "size": 1,
      "price": "4683000000000000000000",
      "reserved": "",
      "salt": "0x7c58345c44c10b3d8877f1c7927a7833459c88123ab46fc353b8f0c2a8e247b0",
      "assetIds": [
        "41506478881403507969696680653240014914910929820314476107906210059990541021186"
      ]
    },
    {
      "x": 267,
      "y": 359,
      "size": 1,
      "price": "4683000000000000000000",
      "reserved": "",
      "salt": "0x86931da2760dbfbdba50e178e77da71ec4cd8137d7d593928afee39dd09b324b",
      "assetIds": [
        "41506478881403507969696680653240014914910929820314476107906210059990541021186"
      ]
    },
    {
      "x": 268,
      "y": 336,
      "size": 1,
      "price": "1011000000000000000000",
      "reserved": "0x7a9fe22691c811ea339d9b73150e6911a5343dca",
      "salt": "0x25325243fa001849d4525f99ff3844768bb5cb6591a6553bf3588aee6d507cd0",
      "assetIds": []
    },
    {
      "x": 268,
      "y": 337,
      "size": 1,
      "price": "1011000000000000000000",
      "reserved": "0x7a9fe22691c811ea339d9b73150e6911a5343dca",
      "salt": "0x4bdc60f0662652e4a1e2aa74510a63ca72c4ec4bb0970b9ad571f7418995410e",
      "assetIds": []
    },
    {
      "x": 268,
      "y": 338,
      "size": 1,
      "price": "1011000000000000000000",
      "reserved": "",
      "salt": "0x89661cf02d71e8773b25089807dcf550ce20cc14ed7c37d4fdb638f725f05301",
      "assetIds": []
    },
    {
      "x": 268,
      "y": 339,
      "size": 1,
      "price": "1011000000000000000000",
      "reserved": "",
      "salt": "0x98af645e7f3738b0f23cb13f30421acb65101c934d4215da6fa7fceafdc165fb",
      "assetIds": []
    },
    {
      "x": 268,
      "y": 340,
      "size": 1,
      "price": "1011000000000000000000",
      "reserved": "",
      "salt": "0x0a6e401a9ff42738f085988e76cec9ba334b8f57817ba97c9a51d91d2b2a4734",
      "assetIds": []
    },
    {
      "x": 268,
      "y": 341,
      "size": 1,
      "price": "1011000000000000000000",
      "reserved": "",
      "salt": "0x1d1d428910fecfd1767f58867b568867492b60a07400e4a6cc6b3aff4f04e795",
      "assetIds": []
    },
    {
      "x": 268,
      "y": 342,
      "size": 1,
      "price": "1011000000000000000000",
      "reserved": "",
      "salt": "0xe0e7a78f0e11da47c1833999bd5db4905ad435f99a23fdc89fe32db7d9ced9a9",
      "assetIds": []
    },
    {
      "x": 268,
      "y": 343,
      "size": 1,
      "price": "1011000000000000000000",
      "reserved": "",
      "salt": "0x20dd1956a68250eb34cfd7b6d2ab0d76b2a00f139ddefdf4b089391ab8b5388c",
      "assetIds": []
    },
    {
      "x": 268,
      "y": 344,
      "size": 1,
      "price": "1011000000000000000000",
      "reserved": "",
      "salt": "0xfa5cf8ed29eccb18dc0f97fa44fcabda4a52f4a5299bbf309b5130ee4cf08820",
      "assetIds": []
    },
    {
      "x": 268,
      "y": 345,
      "size": 1,
      "price": "1011000000000000000000",
      "reserved": "",
      "salt": "0xf5dd1843b902458df76ef17b7f709d39cf055a1b0a7bbd4df007f249d8c5d688",
      "assetIds": []
    },
    {
      "x": 268,
      "y": 346,
      "size": 1,
      "price": "1011000000000000000000",
      "reserved": "0x7a9fe22691c811ea339d9b73150e6911a5343dca",
      "salt": "0x6fc451c8a0957391f668a776e8eeca8298e476932c3f75f9320a4ec91ba2359b",
      "assetIds": []
    },
    {
      "x": 268,
      "y": 347,
      "size": 1,
      "price": "1011000000000000000000",
      "reserved": "",
      "salt": "0xc48907176a9982ce320a4ed47f275819516875eb1c51bafb662417f42aa07f07",
      "assetIds": []
    },
    {
      "x": 268,
      "y": 348,
      "size": 1,
      "price": "1011000000000000000000",
      "reserved": "",
      "salt": "0xaf3341f7696bd7aabe18defa1e7a41c7c55ce213ae27ae2ab97a260af92b42c6",
      "assetIds": []
    },
    {
      "x": 268,
      "y": 349,
      "size": 1,
      "price": "1011000000000000000000",
      "reserved": "",
      "salt": "0x8a90eb9db5fb91e82d19e3fc0dd5e76b73b3969afdca883d214853b3fb7e3610",
      "assetIds": []
    },
    {
      "x": 268,
      "y": 350,
      "size": 1,
      "price": "1011000000000000000000",
      "reserved": "",
      "salt": "0xb222e1951af6e1a85b85003c3241786e58d564e7201ec9e06f2267d1837eca72",
      "assetIds": []
    },
    {
      "x": 268,
      "y": 351,
      "size": 1,
      "price": "1011000000000000000000",
      "reserved": "",
      "salt": "0x186aabe84140e42306eb483415f56bb1d98a724aceee422ce31fb8c2a25b9433",
      "assetIds": []
    },
    {
      "x": 268,
      "y": 352,
      "size": 1,
      "price": "1011000000000000000000",
      "reserved": "",
      "salt": "0x05d14f08a167806218dce3f7d0e3beebd6e51f21ddbc4025e15f551e896f5dc6",
      "assetIds": []
    },
    {
      "x": 268,
      "y": 353,
      "size": 1,
      "price": "1011000000000000000000",
      "reserved": "0x7a9fe22691c811ea339d9b73150e6911a5343dca",
      "salt": "0x1566b99dd98b3e733df95ce5e72c48c48f4370a593e78403566849ba88bb0fe0",
      "assetIds": []
    },
    {
      "x": 268,
      "y": 354,
      "size": 1,
      "price": "1011000000000000000000",
      "reserved": "",
      "salt": "0xeb6b3feed583513a904a18f9083ff1985df7ed035f0d193ab5909082bad35de0",
      "assetIds": []
    },
    {
      "x": 268,
      "y": 355,
      "size": 1,
      "price": "1011000000000000000000",
      "reserved": "0x7a9fe22691c811ea339d9b73150e6911a5343dca",
      "salt": "0x33c002691695a177ffca399462888f096a4d55596b2d0a17768744be51f538c8",
      "assetIds": []
    },
    {
      "x": 268,
      "y": 356,
      "size": 1,
      "price": "1011000000000000000000",
      "reserved": "",
      "salt": "0x0d7b68b86a56b5ebabec6dddb3e8ffdcf6a27e38e946610bb1f18ce0c2da72d7",
      "assetIds": []
    },
    {
      "x": 268,
      "y": 357,
      "size": 1,
      "price": "1011000000000000000000",
      "reserved": "",
      "salt": "0x1fa001202921cd17106c6cb6a43a2a36d3530493795b5f5c5dd3ea5160cacad3",
      "assetIds": []
    },
    {
      "x": 268,
      "y": 358,
      "size": 1,
      "price": "4683000000000000000000",
      "reserved": "",
      "salt": "0x284f9dfcbc46c27fd208944fc3e66b01f69ff2f3a59afc6e80079a77363d7b40",
      "assetIds": [
        "41506478881403507969696680653240014914910929820314476107906210059990541021186"
      ]
    },
    {
      "x": 268,
      "y": 359,
      "size": 1,
      "price": "4683000000000000000000",
      "reserved": "",
      "salt": "0x33ce656855154d246d9962e11c818f1433e9e61aadb847a10c8a76f8999df62f",
      "assetIds": [
        "41506478881403507969696680653240014914910929820314476107906210059990541021186"
      ]
    },
    {
      "x": 269,
      "y": 336,
      "size": 1,
      "price": "1011000000000000000000",
      "reserved": "",
      "salt": "0xe6654357622c12e431905d70e13933245d8a4ea339cd2fed5947258271dcdf7a",
      "assetIds": []
    },
    {
      "x": 269,
      "y": 337,
      "size": 1,
      "price": "1011000000000000000000",
      "reserved": "",
      "salt": "0x6fbac7d004f5f9b208748b1c749918ccb95a19f01008657a113221a415f6f573",
      "assetIds": []
    },
    {
      "x": 269,
      "y": 338,
      "size": 1,
      "price": "1011000000000000000000",
      "reserved": "",
      "salt": "0x1b933a81225387325872957cffa0b879f40247f04f005df873e42087bb45f45f",
      "assetIds": []
    },
    {
      "x": 269,
      "y": 339,
      "size": 1,
      "price": "1011000000000000000000",
      "reserved": "",
      "salt": "0x056e18b289feb8e4869e0326a3600aee66f453dd2c14c408111a109c481a7588",
      "assetIds": []
    },
    {
      "x": 269,
      "y": 340,
      "size": 1,
      "price": "1011000000000000000000",
      "reserved": "",
      "salt": "0xbde391595489b506f6ca420f91d24f9c93743e24bec96a21f57119e5aff0a0d6",
      "assetIds": []
    },
    {
      "x": 269,
      "y": 341,
      "size": 1,
      "price": "1011000000000000000000",
      "reserved": "",
      "salt": "0xf930dcd521150255fb30f6a02043c8ee3ce6d594216bc53bfa4e556d118aaadb",
      "assetIds": []
    },
    {
      "x": 269,
      "y": 342,
      "size": 1,
      "price": "1011000000000000000000",
      "reserved": "",
      "salt": "0xcf51ed02918901f3d56312a6db78037cd2204c10bc9739cdf3253d35accf0fe8",
      "assetIds": []
    },
    {
      "x": 269,
      "y": 343,
      "size": 1,
      "price": "1011000000000000000000",
      "reserved": "",
      "salt": "0x49c66e00541cdae45686fb9e2a788f827e8095887fa7a9adb0044e70600aa424",
      "assetIds": []
    },
    {
      "x": 269,
      "y": 344,
      "size": 1,
      "price": "1011000000000000000000",
      "reserved": "",
      "salt": "0xf6ac94cf34dbce92af97cf78ff9241f42c79923146fbac995048a2e6e64932d3",
      "assetIds": []
    },
    {
      "x": 269,
      "y": 345,
      "size": 1,
      "price": "1011000000000000000000",
      "reserved": "",
      "salt": "0xb8c979b20feb8b04fe77278e3ce6f47731003881960aeb7f189190b79724862f",
      "assetIds": []
    },
    {
      "x": 269,
      "y": 346,
      "size": 1,
      "price": "1011000000000000000000",
      "reserved": "",
      "salt": "0x62e656a70884d1b642dce6f097e1c02d64ad52b72f8af1c8d4bd45a29bccec7a",
      "assetIds": []
    },
    {
      "x": 269,
      "y": 347,
      "size": 1,
      "price": "1011000000000000000000",
      "reserved": "",
      "salt": "0x1c66cceccd5f1f12b96c0350ea54b6eaac37c3dbce2ba564f10307dfa9020d80",
      "assetIds": []
    },
    {
      "x": 269,
      "y": 348,
      "size": 1,
      "price": "1011000000000000000000",
      "reserved": "",
      "salt": "0xacc89d796f1618434d80f044adfc35af7b122c1c51f967e6dc0e652462317223",
      "assetIds": []
    },
    {
      "x": 269,
      "y": 349,
      "size": 1,
      "price": "1011000000000000000000",
      "reserved": "0x7a9fe22691c811ea339d9b73150e6911a5343dca",
      "salt": "0xc980455732ba257a40a8d68bb58f2063917a4540921b28d883992350a892139e",
      "assetIds": []
    },
    {
      "x": 269,
      "y": 350,
      "size": 1,
      "price": "1011000000000000000000",
      "reserved": "",
      "salt": "0xaab1f8b405d727216211de03180ff69aef4771f620c3a9ef509bd21177b909d5",
      "assetIds": []
    },
    {
      "x": 269,
      "y": 351,
      "size": 1,
      "price": "1011000000000000000000",
      "reserved": "",
      "salt": "0x6f5e44f92188ba7e0e8cd572e25cf2460d5028f1644973b6fc5bd79cbdbb4080",
      "assetIds": []
    },
    {
      "x": 269,
      "y": 352,
      "size": 1,
      "price": "1011000000000000000000",
      "reserved": "",
      "salt": "0x3712712747ff0183b6e8020b9c0e96da4fa86a501e7f0eb1a7c8d7ced772b180",
      "assetIds": []
    },
    {
      "x": 269,
      "y": 353,
      "size": 1,
      "price": "1011000000000000000000",
      "reserved": "0x7a9fe22691c811ea339d9b73150e6911a5343dca",
      "salt": "0x8a5a019d184d109092dc605097118df0e297b9011b5e9e3719e9cb82cda18be4",
      "assetIds": []
    },
    {
      "x": 269,
      "y": 354,
      "size": 1,
      "price": "1011000000000000000000",
      "reserved": "",
      "salt": "0x6f88a641bfac969caa5495ecb7957a9c2e091054dd1d6f11ca1a35df85819f72",
      "assetIds": []
    },
    {
      "x": 269,
      "y": 355,
      "size": 1,
      "price": "1011000000000000000000",
      "reserved": "",
      "salt": "0xc65db63348da9d662fdb38197caaa9df094de5812472b5ae51bbb93386cc29f2",
      "assetIds": []
    },
    {
      "x": 269,
      "y": 356,
      "size": 1,
      "price": "1011000000000000000000",
      "reserved": "",
      "salt": "0x078fa30d8c4fa4c6f676ac9dcb1a91d800b9ee90cdfb3af8bbf8c8ef1ed641a0",
      "assetIds": []
    },
    {
      "x": 269,
      "y": 357,
      "size": 1,
      "price": "1011000000000000000000",
      "reserved": "",
      "salt": "0x25100dab22e68e5e21622f24388aa0ea607d246d226895225050ced2f856fd5c",
      "assetIds": []
    },
    {
      "x": 269,
      "y": 358,
      "size": 1,
      "price": "4683000000000000000000",
      "reserved": "",
      "salt": "0x93dbe47d5071699c911eb942ce0a55a137a17940a48bd805a90d8f439ee7b15f",
      "assetIds": [
        "41506478881403507969696680653240014914910929820314476107906210059990541021186"
      ]
    },
    {
      "x": 269,
      "y": 359,
      "size": 1,
      "price": "4683000000000000000000",
      "reserved": "",
      "salt": "0x4b18cd0ee4db64dca8bff59709e9c9429b11058684032130b33c3e045e4167ff",
      "assetIds": [
        "41506478881403507969696680653240014914910929820314476107906210059990541021186"
      ]
    },
    {
      "x": 270,
      "y": 336,
      "size": 1,
      "price": "1011000000000000000000",
      "reserved": "",
      "salt": "0x60d1150250181ee5718e323ab4f9de832f7a483c2c7c33edd01870291bb8521e",
      "assetIds": []
    },
    {
      "x": 270,
      "y": 337,
      "size": 1,
      "price": "1011000000000000000000",
      "reserved": "",
      "salt": "0xa6d4ae1f0d7eb654f6cb6912ea077daebdc4e424c9ae5a88c43078573a2e0d43",
      "assetIds": []
    },
    {
      "x": 270,
      "y": 338,
      "size": 1,
      "price": "1011000000000000000000",
      "reserved": "0x7a9fe22691c811ea339d9b73150e6911a5343dca",
      "salt": "0x5e23bc69b931ef14ab9b31f3228b3f035162acc87611fb2e41266cc344c336ef",
      "assetIds": []
    },
    {
      "x": 270,
      "y": 339,
      "size": 1,
      "price": "1011000000000000000000",
      "reserved": "",
      "salt": "0x61c6d3f391ded04d50ae151f66292708e26ddac9a176097240cb2cee817971db",
      "assetIds": []
    },
    {
      "x": 270,
      "y": 340,
      "size": 1,
      "price": "1011000000000000000000",
      "reserved": "",
      "salt": "0x88c60ac87a985db9c2d1fc5c3f1c129f1b2a969e89ca57f6018e5e72bd4794bc",
      "assetIds": []
    },
    {
      "x": 270,
      "y": 341,
      "size": 1,
      "price": "1011000000000000000000",
      "reserved": "",
      "salt": "0xaffe9fe0ef0999faacc5d53176809c09a9a999e6988db9c67be20c039f334afe",
      "assetIds": []
    },
    {
      "x": 270,
      "y": 342,
      "size": 1,
      "price": "1011000000000000000000",
      "reserved": "",
      "salt": "0x1299e184f05d104ff5165094c657c3b122eefaf073863976e6b152080d6446f9",
      "assetIds": []
    },
    {
      "x": 270,
      "y": 343,
      "size": 1,
      "price": "1011000000000000000000",
      "reserved": "",
      "salt": "0xf51ddcb13ef7b7ae5c82afd66def4593841ec055b955de3b3aaa1e85229fb6e2",
      "assetIds": []
    },
    {
      "x": 270,
      "y": 344,
      "size": 1,
      "price": "1011000000000000000000",
      "reserved": "",
      "salt": "0x98dd596247f6c9190b1bbbe4c5134ec6208f9425cb021350ffdc42c86525393d",
      "assetIds": []
    },
    {
      "x": 270,
      "y": 345,
      "size": 1,
      "price": "1011000000000000000000",
      "reserved": "",
      "salt": "0x34cf9f1347cc358aa86a4891532df266088571b7416eb9ca4d5e5094d4a20592",
      "assetIds": []
    },
    {
      "x": 270,
      "y": 346,
      "size": 1,
      "price": "1011000000000000000000",
      "reserved": "",
      "salt": "0x0a8b614e4b76369fbd8345e0a9b7c4886aa3617e07a9d259389f2d41a570f189",
      "assetIds": []
    },
    {
      "x": 270,
      "y": 347,
      "size": 1,
      "price": "1011000000000000000000",
      "reserved": "0x7a9fe22691c811ea339d9b73150e6911a5343dca",
      "salt": "0x88032ad40f2a21455f5674e15cb1106e779af049facacb4df5cfb047b54cad16",
      "assetIds": []
    },
    {
      "x": 270,
      "y": 348,
      "size": 1,
      "price": "1011000000000000000000",
      "reserved": "",
      "salt": "0xf73ab3b70284cf248a2735e5035fac5f5a24371c9f87e89f2978619e571ff50e",
      "assetIds": []
    },
    {
      "x": 270,
      "y": 349,
      "size": 1,
      "price": "1011000000000000000000",
      "reserved": "",
      "salt": "0x22e3f8c4cb229ad17a424abd9859bb2af23e7457120bd71494c64252e61bda26",
      "assetIds": []
    },
    {
      "x": 270,
      "y": 350,
      "size": 1,
      "price": "1011000000000000000000",
      "reserved": "",
      "salt": "0xc09ec155e0e0607877067aba97fd1f400027c3194014a9080298a3e25baf7919",
      "assetIds": []
    },
    {
      "x": 270,
      "y": 351,
      "size": 1,
      "price": "1011000000000000000000",
      "reserved": "",
      "salt": "0x11e06fbe7337300f4c82fcc6b9e050c593177c6929a8c2e5fa91a59b28b4eb91",
      "assetIds": []
    },
    {
      "x": 270,
      "y": 352,
      "size": 1,
      "price": "1011000000000000000000",
      "reserved": "",
      "salt": "0xa14683a902b596d903ddb2df9a91b37e663606571d4f4a80d71b719b2b62875c",
      "assetIds": []
    },
    {
      "x": 270,
      "y": 353,
      "size": 1,
      "price": "1011000000000000000000",
      "reserved": "",
      "salt": "0x05b286f5929e80b1614664e706a9fba6c0a6edb3227e7d73fb91f428dc6e4d5f",
      "assetIds": []
    },
    {
      "x": 270,
      "y": 354,
      "size": 1,
      "price": "1011000000000000000000",
      "reserved": "",
      "salt": "0xc9392354e96be2cc6b0ff38e2dc1d4966da4eae1b9e44356ac5cb0d514281f92",
      "assetIds": []
    },
    {
      "x": 270,
      "y": 355,
      "size": 1,
      "price": "1011000000000000000000",
      "reserved": "",
      "salt": "0xe2ca39a1a65fba799e9dc0663c13f1e392881f56c6a69eadcc8a0a48eaa18235",
      "assetIds": []
    },
    {
      "x": 270,
      "y": 356,
      "size": 1,
      "price": "1011000000000000000000",
      "reserved": "0x7a9fe22691c811ea339d9b73150e6911a5343dca",
      "salt": "0x279c600505e29a28ccfc192a24a90692707d08250b59fc5482c90775d0124921",
      "assetIds": []
    },
    {
      "x": 270,
      "y": 357,
      "size": 1,
      "price": "1011000000000000000000",
      "reserved": "",
      "salt": "0x9eb38d64de8397aebdcc0931aa4f9429611b90ae540ca009a4d353ea353f23be",
      "assetIds": []
    },
    {
      "x": 270,
      "y": 358,
      "size": 1,
      "price": "4683000000000000000000",
      "reserved": "",
      "salt": "0xd59be9029bc8cc142856ac3886a82e343808e0a43690b0c043a6ecdc3f18872d",
      "assetIds": [
        "41506478881403507969696680653240014914910929820314476107906210059990541021186"
      ]
    },
    {
      "x": 270,
      "y": 359,
      "size": 1,
      "price": "4683000000000000000000",
      "reserved": "",
      "salt": "0xfe014cf9067b4fd07e8ca96fb73f632ee11ba0942292707ba9dd62e6eccc1e83",
      "assetIds": [
        "41506478881403507969696680653240014914910929820314476107906210059990541021186"
      ]
    },
    {
      "x": 270,
      "y": 384,
      "size": 1,
      "price": "4683000000000000000000",
      "reserved": "",
      "salt": "0x6f92c47d4b273c61830c4b29d471615690ae413b8629b8a460142460977ca27a",
      "assetIds": [
        "41506478881403507969696680653240014914910929820314476107906210059990541021186"
      ]
    },
    {
      "x": 270,
      "y": 385,
      "size": 1,
      "price": "4683000000000000000000",
      "reserved": "",
      "salt": "0x6b786889e9c78159e6e30ca3f2e985e9060e3f658f8bf23bf81ffd2f29a6a1e3",
      "assetIds": [
        "41506478881403507969696680653240014914910929820314476107906210059990541021186"
      ]
    },
    {
      "x": 270,
      "y": 386,
      "size": 1,
      "price": "1011000000000000000000",
      "reserved": "0x7a9fe22691c811ea339d9b73150e6911a5343dca",
      "salt": "0x9106b4e010906bf49442d3989309591a1766f35f444dd5763c51f0d7204aaa14",
      "assetIds": []
    },
    {
      "x": 271,
      "y": 336,
      "size": 1,
      "price": "1011000000000000000000",
      "reserved": "",
      "salt": "0x48dc7afbe3fca391062ca0b6d6eebbdbd574a7b7d1600b3514e95b0acc9f09bb",
      "assetIds": []
    },
    {
      "x": 271,
      "y": 337,
      "size": 1,
      "price": "1011000000000000000000",
      "reserved": "",
      "salt": "0x0218ec5efde69e316bb75546629a2ce5cd62f64b5d9935abd992882b008c26dd",
      "assetIds": []
    },
    {
      "x": 271,
      "y": 338,
      "size": 1,
      "price": "1011000000000000000000",
      "reserved": "",
      "salt": "0x12275de79fabe8d5ae0f23478a3b6c468c16fed1cdbb2634ef1bd087f27b6dfb",
      "assetIds": []
    },
    {
      "x": 271,
      "y": 339,
      "size": 1,
      "price": "1011000000000000000000",
      "reserved": "",
      "salt": "0xbfd3a46cc7ebb6fada82e6433d9d7ac3b96501e839e72475df26b331ca603854",
      "assetIds": []
    },
    {
      "x": 271,
      "y": 340,
      "size": 1,
      "price": "1011000000000000000000",
      "reserved": "",
      "salt": "0xaefd4b16354d3ee4860a6950d96c438316ec523534175787b877e0dfe25c6b38",
      "assetIds": []
    },
    {
      "x": 271,
      "y": 341,
      "size": 1,
      "price": "1011000000000000000000",
      "reserved": "",
      "salt": "0xf7c57f4d0f5beddcacd241ffd41563536d59052226e0218c65d1bc5f5b2e55aa",
      "assetIds": []
    },
    {
      "x": 271,
      "y": 342,
      "size": 1,
      "price": "1011000000000000000000",
      "reserved": "",
      "salt": "0x0b36b572e16c546c4be3d3a355d1227c267c6619578ca5cec0ed1969f5bcd511",
      "assetIds": []
    },
    {
      "x": 271,
      "y": 343,
      "size": 1,
      "price": "1011000000000000000000",
      "reserved": "0x7a9fe22691c811ea339d9b73150e6911a5343dca",
      "salt": "0x1fef2a6e079b0890abe058eeef6ac08cacf5be734e15cb068821f116ce9743d9",
      "assetIds": []
    },
    {
      "x": 271,
      "y": 344,
      "size": 1,
      "price": "1011000000000000000000",
      "reserved": "",
      "salt": "0xebd08fcffd108c3a2b1b6ff51841d857822d902d0cf6ec5ed18d7238a2f90b7a",
      "assetIds": []
    },
    {
      "x": 271,
      "y": 345,
      "size": 1,
      "price": "1011000000000000000000",
      "reserved": "",
      "salt": "0xf65c24056b18c3914ba91aa45f2f41a3967114c6955a50e9c080ca185b9489d5",
      "assetIds": []
    },
    {
      "x": 271,
      "y": 346,
      "size": 1,
      "price": "1011000000000000000000",
      "reserved": "",
      "salt": "0x60f510de44366573a0115ef52a1137299152a4da813e7e98e185ba20e609ffb8",
      "assetIds": []
    },
    {
      "x": 271,
      "y": 347,
      "size": 1,
      "price": "1011000000000000000000",
      "reserved": "0x7a9fe22691c811ea339d9b73150e6911a5343dca",
      "salt": "0xf4e4a981e7a5510cab13cb330a9d38a311e2c7b4b4224c7abd065bddea32a931",
      "assetIds": []
    },
    {
      "x": 271,
      "y": 348,
      "size": 1,
      "price": "1011000000000000000000",
      "reserved": "",
      "salt": "0x35d172d64de5619817a3a2318cc37ce16e802a05bcd1c458d0725e49e2d3db11",
      "assetIds": []
    },
    {
      "x": 271,
      "y": 349,
      "size": 1,
      "price": "1011000000000000000000",
      "reserved": "",
      "salt": "0x1e8745cef00b99cff0f3cdae12689c2a17be3db7609c01c4bab8aaa95745ecf9",
      "assetIds": []
    },
    {
      "x": 271,
      "y": 350,
      "size": 1,
      "price": "1011000000000000000000",
      "reserved": "",
      "salt": "0x92ff4fa07ef4ca0d10a6e75ec8e4af992c5dd0cb9ff0fda2cc51e1b77fe2d551",
      "assetIds": []
    },
    {
      "x": 271,
      "y": 351,
      "size": 1,
      "price": "1011000000000000000000",
      "reserved": "",
      "salt": "0x87b8fe9d87e4f38ba43ff60f62212c1f69aacf0bf44404c496de20c723aead49",
      "assetIds": []
    },
    {
      "x": 271,
      "y": 352,
      "size": 1,
      "price": "1011000000000000000000",
      "reserved": "",
      "salt": "0x3f979687e16a768d40237d9d14851c08cb9d6ac10aae9d0a0b7068dd798519b3",
      "assetIds": []
    },
    {
      "x": 271,
      "y": 353,
      "size": 1,
      "price": "1011000000000000000000",
      "reserved": "",
      "salt": "0x230f01fc29cd5c633cb2e4f7b0dfeb2842dfda9a97b5aa7ea77fa9622b973315",
      "assetIds": []
    },
    {
      "x": 271,
      "y": 354,
      "size": 1,
      "price": "1011000000000000000000",
      "reserved": "",
      "salt": "0xf83d0327ae3498e8e8a0998c8bb71ed1ba1c8bad5a5397ee4a6498804caf53f6",
      "assetIds": []
    },
    {
      "x": 271,
      "y": 355,
      "size": 1,
      "price": "1011000000000000000000",
      "reserved": "",
      "salt": "0xcf835167c51b1f666e41d2196b14799cfa6b9f80117fd7107ec3fc5554003443",
      "assetIds": []
    },
    {
      "x": 271,
      "y": 356,
      "size": 1,
      "price": "1011000000000000000000",
      "reserved": "0x7a9fe22691c811ea339d9b73150e6911a5343dca",
      "salt": "0x16388d61baae2c5ee15d4aabcbc06c1019fa16badf44f6eaf625f6a412203e07",
      "assetIds": []
    },
    {
      "x": 271,
      "y": 357,
      "size": 1,
      "price": "1011000000000000000000",
      "reserved": "",
      "salt": "0xe8620b43ad3598635fa1bc15ec51b792e0ea3606ad0a0e603634a5d3a8b9db00",
      "assetIds": []
    },
    {
      "x": 271,
      "y": 358,
      "size": 1,
      "price": "4683000000000000000000",
      "reserved": "",
      "salt": "0xb95aaa7110c9a2a4b9ae2fcbac24a1fefea9e918fd909c24abd6e2e5d455a408",
      "assetIds": [
        "41506478881403507969696680653240014914910929820314476107906210059990541021186"
      ]
    },
    {
      "x": 271,
      "y": 359,
      "size": 1,
      "price": "4683000000000000000000",
      "reserved": "",
      "salt": "0xe318c2fb5e9a61c1200bff37b37080803733f99319fcacc83eeaddd6975a8745",
      "assetIds": [
        "41506478881403507969696680653240014914910929820314476107906210059990541021186"
      ]
    },
    {
      "x": 271,
      "y": 384,
      "size": 1,
      "price": "4683000000000000000000",
      "reserved": "",
      "salt": "0x0b2e4cc81e55f87d026c909bfb56e86228a14a12f041f771e2c656a24e8dca8a",
      "assetIds": [
        "41506478881403507969696680653240014914910929820314476107906210059990541021186"
      ]
    },
    {
      "x": 271,
      "y": 385,
      "size": 1,
      "price": "1011000000000000000000",
      "reserved": "0x7a9fe22691c811ea339d9b73150e6911a5343dca",
      "salt": "0x9133524a0a22030b3c8671aa177ecc77158a4ae8b4e3b3aa27da2b161d7ad6cc",
      "assetIds": []
    },
    {
      "x": 271,
      "y": 386,
      "size": 1,
      "price": "1011000000000000000000",
      "reserved": "",
      "salt": "0xd763fcae5d3a0fa8fd5b9bda6d74dac1f662d2eaf3be3b9743371c33883f7afa",
      "assetIds": []
    },
    {
      "x": 272,
      "y": 336,
      "size": 1,
      "price": "1011000000000000000000",
      "reserved": "0x7a9fe22691c811ea339d9b73150e6911a5343dca",
      "salt": "0xf9601500585d1162ba0ba6cdc21b9073f219d83e784abcc7d798546e9dec5967",
      "assetIds": []
    },
    {
      "x": 272,
      "y": 337,
      "size": 1,
      "price": "1011000000000000000000",
      "reserved": "",
      "salt": "0x79d2bff089301f2e2ba9499e35590975b1893a9e71c3d2436037af24d7421a90",
      "assetIds": []
    },
    {
      "x": 272,
      "y": 338,
      "size": 1,
      "price": "1011000000000000000000",
      "reserved": "",
      "salt": "0x9f655f9b197d1120665bfc62cb1ebdd94fc3e7656f5068a55962c896fcd27618",
      "assetIds": []
    },
    {
      "x": 272,
      "y": 339,
      "size": 1,
      "price": "1011000000000000000000",
      "reserved": "",
      "salt": "0x14c433788d1d39a0a5e7e23fec8a0a9a0004b44e31891c07b710553cc6c5901e",
      "assetIds": []
    },
    {
      "x": 272,
      "y": 340,
      "size": 1,
      "price": "1011000000000000000000",
      "reserved": "",
      "salt": "0xe1b8820bff8c6e0d62c91f2f0afeb6cf13c9dd41b14dc4bcc6db458b29956569",
      "assetIds": []
    },
    {
      "x": 272,
      "y": 341,
      "size": 1,
      "price": "1011000000000000000000",
      "reserved": "",
      "salt": "0x002a12869ae1cfbfbd25f698dbe76adf39c68c8394b1e0584a0a80970a742f57",
      "assetIds": []
    },
    {
      "x": 272,
      "y": 342,
      "size": 1,
      "price": "1011000000000000000000",
      "reserved": "",
      "salt": "0xb6bdcc0e6ff15926255e1aecaf9eb0570e9a62f44285c9f084ae42922b8d5fe7",
      "assetIds": []
    },
    {
      "x": 272,
      "y": 343,
      "size": 1,
      "price": "1011000000000000000000",
      "reserved": "",
      "salt": "0xa5bf4398f3afdf4a6083ba3014978e201bbbbea8d3f67b2e1eb94c008ad47f9c",
      "assetIds": []
    },
    {
      "x": 272,
      "y": 344,
      "size": 1,
      "price": "1011000000000000000000",
      "reserved": "",
      "salt": "0x15008c14cba5e99d40ca2a7a55894d8ea28e9d7d78129d72ee0c2f50b3691dff",
      "assetIds": []
    },
    {
      "x": 272,
      "y": 345,
      "size": 1,
      "price": "1011000000000000000000",
      "reserved": "",
      "salt": "0x6e6e3fec202321977c72fda450eb8bd29993e0795980b7ffb6bbb4eb3f2cecc9",
      "assetIds": []
    },
    {
      "x": 272,
      "y": 346,
      "size": 1,
      "price": "1011000000000000000000",
      "reserved": "",
      "salt": "0x37ec78868a8caa8ba1203912a4596fb244a82ab830f66ba40a15c21042dc9937",
      "assetIds": []
    },
    {
      "x": 272,
      "y": 347,
      "size": 1,
      "price": "1011000000000000000000",
      "reserved": "",
      "salt": "0xdc89b7d6e7f50a08cfe0e588be5c2df8c358bec4fdf771a0820372766e0345e7",
      "assetIds": []
    },
    {
      "x": 272,
      "y": 348,
      "size": 1,
      "price": "1011000000000000000000",
      "reserved": "",
      "salt": "0xbbd897980abfcf67a28c399d3661c8756989a7a963be61af7c8bf0ce178f2988",
      "assetIds": []
    },
    {
      "x": 272,
      "y": 349,
      "size": 1,
      "price": "1011000000000000000000",
      "reserved": "",
      "salt": "0x1d007851506afc0bc7e4c3b0574671b662c21583e1f10bf2385b4af5f4fafa67",
      "assetIds": []
    },
    {
      "x": 272,
      "y": 350,
      "size": 1,
      "price": "1011000000000000000000",
      "reserved": "",
      "salt": "0x7049c64fa12081c7956e09776cc1fea8e368d7e7e3e830bb9a932e21b97d2abe",
      "assetIds": []
    },
    {
      "x": 272,
      "y": 351,
      "size": 1,
      "price": "1011000000000000000000",
      "reserved": "0x7a9fe22691c811ea339d9b73150e6911a5343dca",
      "salt": "0x9d74375c370a154dad19c5dfb5ec43a89fb0ab23f5debb01cc4495af475940bd",
      "assetIds": []
    },
    {
      "x": 272,
      "y": 352,
      "size": 1,
      "price": "1011000000000000000000",
      "reserved": "",
      "salt": "0xd1da8a43563c28473f70489cffe704a76c80a432356e055384c4ddcd9a0118b4",
      "assetIds": []
    },
    {
      "x": 272,
      "y": 353,
      "size": 1,
      "price": "1011000000000000000000",
      "reserved": "0x7a9fe22691c811ea339d9b73150e6911a5343dca",
      "salt": "0xfd3f7234fec63386be5dd5d1c4d3e33650cf9a7a0f507296feaa05c6859ade3e",
      "assetIds": []
    },
    {
      "x": 272,
      "y": 354,
      "size": 1,
      "price": "1011000000000000000000",
      "reserved": "",
      "salt": "0x671a18271f060bf8aadcb05c1a4e8de7ffa8b997daa04c38c5f882c9047fa616",
      "assetIds": []
    },
    {
      "x": 272,
      "y": 355,
      "size": 1,
      "price": "1011000000000000000000",
      "reserved": "",
      "salt": "0x2466d34228aef6359a777f220b26ca5711fd55092454f8415d9662adcb3359d8",
      "assetIds": []
    },
    {
      "x": 272,
      "y": 356,
      "size": 1,
      "price": "1011000000000000000000",
      "reserved": "",
      "salt": "0x221bb95891fa3c683113804715d4b3155071ba524030a9358c3bad651364594a",
      "assetIds": []
    },
    {
      "x": 272,
      "y": 357,
      "size": 1,
      "price": "1011000000000000000000",
      "reserved": "",
      "salt": "0x8568f6eac45f08fb315c6567bd5070bfee00f83d7cd3dca4401a9faba78c719b",
      "assetIds": []
    },
    {
      "x": 272,
      "y": 358,
      "size": 1,
      "price": "4683000000000000000000",
      "reserved": "",
      "salt": "0xa80003e5650d0ab3f97b827e9b7f10d7a81a7b15e10c9309d2d1167dc7303e9a",
      "assetIds": [
        "41506478881403507969696680653240014914910929820314476107906210059990541021186"
      ]
    },
    {
      "x": 272,
      "y": 359,
      "size": 1,
      "price": "4683000000000000000000",
      "reserved": "",
      "salt": "0x7ef5990d158bf67f7c7d514d25458086490927a594530e5c6fcff0ac954e2fcf",
      "assetIds": [
        "41506478881403507969696680653240014914910929820314476107906210059990541021186"
      ]
    },
    {
      "x": 272,
      "y": 384,
      "size": 1,
      "price": "4683000000000000000000",
      "reserved": "",
      "salt": "0xbdc7399c53a27eec12b441d0eb00ab4cdb8978ce65806827b87dbf1afeda1548",
      "assetIds": [
        "41506478881403507969696680653240014914910929820314476107906210059990541021186"
      ]
    },
    {
      "x": 272,
      "y": 385,
      "size": 1,
      "price": "4683000000000000000000",
      "reserved": "",
      "salt": "0xa3c9c8498a9073c82646be9e538541a4e9c935fc203660fe648cc10e022deb19",
      "assetIds": [
        "41506478881403507969696680653240014914910929820314476107906210059990541021186"
      ]
    },
    {
      "x": 272,
      "y": 386,
      "size": 1,
      "price": "1011000000000000000000",
      "reserved": "",
      "salt": "0x3ef80d8f0b7aabab929113e211a9b6b7b39611884cc5bc4ab44ea84f35afae90",
      "assetIds": []
    },
    {
      "x": 273,
      "y": 336,
      "size": 1,
      "price": "1011000000000000000000",
      "reserved": "",
      "salt": "0x6e306907a8cb4864f7734b8e5603531d41fc8680879bd3362c438d1cf0e21d29",
      "assetIds": []
    },
    {
      "x": 273,
      "y": 337,
      "size": 1,
      "price": "1011000000000000000000",
      "reserved": "",
      "salt": "0xb8c4f992df3ba3a2c04739e0d0247e67311aba99354d180b516e165b9e1e1902",
      "assetIds": []
    },
    {
      "x": 273,
      "y": 338,
      "size": 1,
      "price": "1011000000000000000000",
      "reserved": "",
      "salt": "0xa12d44d690dbba890795f77aba68c250ddd88500106f6a2156e973c8b42e0b08",
      "assetIds": []
    },
    {
      "x": 273,
      "y": 339,
      "size": 1,
      "price": "1011000000000000000000",
      "reserved": "",
      "salt": "0x9174fc4bb986b0784fb867edf6de746935eb64ac0da76073c1f7acfa0843ec21",
      "assetIds": []
    },
    {
      "x": 273,
      "y": 340,
      "size": 1,
      "price": "1011000000000000000000",
      "reserved": "",
      "salt": "0xde52f221b42f9841682d41a3271cf6ea10416f187e44deaf00ebcd35103d5c7b",
      "assetIds": []
    },
    {
      "x": 273,
      "y": 341,
      "size": 1,
      "price": "1011000000000000000000",
      "reserved": "",
      "salt": "0xcde2846b0982a2534f2bd98feb7ad47fe7b7a10116af8f3e28f1b30aa1690821",
      "assetIds": []
    },
    {
      "x": 273,
      "y": 342,
      "size": 1,
      "price": "1011000000000000000000",
      "reserved": "",
      "salt": "0x63e847e71f3d0abbb7919edf0b6a6e6f17f41b1f605c0e021dfc5167a78dc692",
      "assetIds": []
    },
    {
      "x": 273,
      "y": 343,
      "size": 1,
      "price": "1011000000000000000000",
      "reserved": "",
      "salt": "0x5751f8265cc735a39ae4e08373a75a6d49d85ca3ec4dcf591c99921663f51521",
      "assetIds": []
    },
    {
      "x": 273,
      "y": 344,
      "size": 1,
      "price": "1011000000000000000000",
      "reserved": "",
      "salt": "0x66ea3c4ce692defb8820f7796b881a4fd43bc78063e254968818a90ab89914f4",
      "assetIds": []
    },
    {
      "x": 273,
      "y": 345,
      "size": 1,
      "price": "1011000000000000000000",
      "reserved": "",
      "salt": "0xc19daddd70d823ec92b59e6dd54508c8c1d0f5604460354c9f37c5ef93cf6f74",
      "assetIds": []
    },
    {
      "x": 273,
      "y": 346,
      "size": 1,
      "price": "1011000000000000000000",
      "reserved": "0x7a9fe22691c811ea339d9b73150e6911a5343dca",
      "salt": "0x37e200ba312c536b73126014e9b6e58b9cf53f0ef90e59d6ccd0ec004565316b",
      "assetIds": []
    },
    {
      "x": 273,
      "y": 347,
      "size": 1,
      "price": "1011000000000000000000",
      "reserved": "",
      "salt": "0x141b2497d12d3a806337e39587242048ca858177aac0f7e9649dde2068c8c242",
      "assetIds": []
    },
    {
      "x": 273,
      "y": 348,
      "size": 1,
      "price": "1011000000000000000000",
      "reserved": "0x7a9fe22691c811ea339d9b73150e6911a5343dca",
      "salt": "0xe6ca1f2433c4a0e00154e7dd02c3f9d5d87bd7febd40847ca783bdcb195c8f5e",
      "assetIds": []
    },
    {
      "x": 273,
      "y": 349,
      "size": 1,
      "price": "1011000000000000000000",
      "reserved": "",
      "salt": "0x5f8daa52c54f2db4150a881d57dfecae62cbcf5738a13081a3ea4652cef03951",
      "assetIds": []
    },
    {
      "x": 273,
      "y": 350,
      "size": 1,
      "price": "1011000000000000000000",
      "reserved": "",
      "salt": "0xd0bd7048b80bcc66e894454d63567a886fd473c48beae9f4043d1f436fad8ff5",
      "assetIds": []
    },
    {
      "x": 273,
      "y": 351,
      "size": 1,
      "price": "1011000000000000000000",
      "reserved": "0x7a9fe22691c811ea339d9b73150e6911a5343dca",
      "salt": "0x2830c56228e44b77f155b1de5a42c018064584dff6d147039dc4496c07feabca",
      "assetIds": []
    },
    {
      "x": 273,
      "y": 352,
      "size": 1,
      "price": "1011000000000000000000",
      "reserved": "",
      "salt": "0x415a0e88acb1ff9e4d747ecee8873e27fbd9a1a367373b104f40699134e71dc9",
      "assetIds": []
    },
    {
      "x": 273,
      "y": 353,
      "size": 1,
      "price": "1011000000000000000000",
      "reserved": "",
      "salt": "0xce4f3217126e3a35b5939fb22b77a95e34faf119a3c0832ed583e1dd86211d7f",
      "assetIds": []
    },
    {
      "x": 273,
      "y": 354,
      "size": 1,
      "price": "1011000000000000000000",
      "reserved": "",
      "salt": "0x710ac013383b72c3cf1de6c509f57c6395ad47dd8c5c4f6305d72c76be1c96e3",
      "assetIds": []
    },
    {
      "x": 273,
      "y": 355,
      "size": 1,
      "price": "1011000000000000000000",
      "reserved": "",
      "salt": "0xa73f982384be107e8c187f478e7ed43080eac32e454da88edc51caf670f35ce7",
      "assetIds": []
    },
    {
      "x": 273,
      "y": 356,
      "size": 1,
      "price": "1011000000000000000000",
      "reserved": "",
      "salt": "0x9d7ff6599b473e68cab70cd4f195c46d0b3f8c5e6a0edc9b5e1b8f350021804c",
      "assetIds": []
    },
    {
      "x": 273,
      "y": 357,
      "size": 1,
      "price": "1011000000000000000000",
      "reserved": "",
      "salt": "0x6a30f25ccf4d912e421eff23409998f6e558c05ac32790bca026a6e5076d3bed",
      "assetIds": []
    },
    {
      "x": 273,
      "y": 358,
      "size": 1,
      "price": "4683000000000000000000",
      "reserved": "",
      "salt": "0x4f7294211f2bda6d66a977432a39728240b52aa29e2ce5991997c69493717bbd",
      "assetIds": [
        "41506478881403507969696680653240014914910929820314476107906210059990541021186"
      ]
    },
    {
      "x": 273,
      "y": 359,
      "size": 1,
      "price": "4683000000000000000000",
      "reserved": "",
      "salt": "0x035178678be911c8a119c191f7de42e03f3cf659f9d4ac4fb3f25dfcbafe1196",
      "assetIds": [
        "41506478881403507969696680653240014914910929820314476107906210059990541021186"
      ]
    },
    {
      "x": 273,
      "y": 384,
      "size": 1,
      "price": "4683000000000000000000",
      "reserved": "",
      "salt": "0xbe3b8e1132df3e40ec245718940e99a96140e01cfe8933571ed7ec2faaa9ad9d",
      "assetIds": [
        "41506478881403507969696680653240014914910929820314476107906210059990541021186"
      ]
    },
    {
      "x": 273,
      "y": 385,
      "size": 1,
      "price": "4683000000000000000000",
      "reserved": "",
      "salt": "0x8bb5edc556512607b4dd83f3d42d6b5f4fbc98f03ee89fee0f5515d106119434",
      "assetIds": [
        "41506478881403507969696680653240014914910929820314476107906210059990541021186"
      ]
    },
    {
      "x": 273,
      "y": 386,
      "size": 1,
      "price": "1011000000000000000000",
      "reserved": "",
      "salt": "0xd20221070c38fee40ecf40fc7b9c5c9073f86f599c79608698e6cc79c0d7a051",
      "assetIds": []
    },
    {
      "x": 274,
      "y": 336,
      "size": 1,
      "price": "1011000000000000000000",
      "reserved": "",
      "salt": "0x2f187400b333275f95bbcd07014d576f5175763a7eba1d54a29de3a09be3c2c3",
      "assetIds": []
    },
    {
      "x": 274,
      "y": 337,
      "size": 1,
      "price": "1011000000000000000000",
      "reserved": "",
      "salt": "0xcef19aeb949e85ec3a525d40f8403dad66f90780ffb0445926ada8141e4c8e1c",
      "assetIds": []
    },
    {
      "x": 274,
      "y": 338,
      "size": 1,
      "price": "1011000000000000000000",
      "reserved": "",
      "salt": "0x90def862ce0c86c7c70ae2e52972f14040e7321f10ee22c8da4a6e709716ab41",
      "assetIds": []
    },
    {
      "x": 274,
      "y": 339,
      "size": 1,
      "price": "1011000000000000000000",
      "reserved": "",
      "salt": "0x93b4c8fdfd0783bc1c9b4291fffc81fcf6d08aeb8bafc997a21ed15c194f4471",
      "assetIds": []
    },
    {
      "x": 274,
      "y": 340,
      "size": 1,
      "price": "1011000000000000000000",
      "reserved": "",
      "salt": "0x3b66089f4e00644ee1d4dcd5231e5784805d5f3a5272cefa091f75a8d577feaf",
      "assetIds": []
    },
    {
      "x": 274,
      "y": 341,
      "size": 1,
      "price": "1011000000000000000000",
      "reserved": "",
      "salt": "0x20948a6a696161584a77b9acef494ebaa15f9b936bbbedcd22e3c1783791ef78",
      "assetIds": []
    },
    {
      "x": 274,
      "y": 342,
      "size": 1,
      "price": "1011000000000000000000",
      "reserved": "",
      "salt": "0xf485c726137a20cf6fe089b06896457a8d6ee41b2fab145f69aaea1f418b0442",
      "assetIds": []
    },
    {
      "x": 274,
      "y": 343,
      "size": 1,
      "price": "1011000000000000000000",
      "reserved": "",
      "salt": "0x754f1a72d394e2b5b27c32e523d0bc1b28a6b458368cadd1f397a65ee3419f1a",
      "assetIds": []
    },
    {
      "x": 274,
      "y": 344,
      "size": 1,
      "price": "1011000000000000000000",
      "reserved": "0x7a9fe22691c811ea339d9b73150e6911a5343dca",
      "salt": "0x3279dc89ee2cc65d64f32d0e5d5c5fa04fea5dca0dc0b15713ab853b2039ebab",
      "assetIds": []
    },
    {
      "x": 274,
      "y": 345,
      "size": 1,
      "price": "1011000000000000000000",
      "reserved": "",
      "salt": "0x6413cb8a76400edaa53f3186822f4521016dceb862f0b73e54debe20abcb8c83",
      "assetIds": []
    },
    {
      "x": 274,
      "y": 346,
      "size": 1,
      "price": "1011000000000000000000",
      "reserved": "",
      "salt": "0xab5ffa06a7ff531b74d29d5df1667f7dc950880fc2b55e58bf4a35d17fe6a8bb",
      "assetIds": []
    },
    {
      "x": 274,
      "y": 347,
      "size": 1,
      "price": "1011000000000000000000",
      "reserved": "",
      "salt": "0x8d6c3ef3a74574fa1c6162566152c31f773474340697969b6f5eb9e19a32b73c",
      "assetIds": []
    },
    {
      "x": 274,
      "y": 348,
      "size": 1,
      "price": "1011000000000000000000",
      "reserved": "",
      "salt": "0xe0a84bf0c67f4f1e6391817c58d16e070c0b91149bd7b2e5578387c91269b27b",
      "assetIds": []
    },
    {
      "x": 274,
      "y": 349,
      "size": 1,
      "price": "1011000000000000000000",
      "reserved": "",
      "salt": "0x1c6a16a0ce7192cc162b9db6e40c2525d111055549b0bc711cfb9cf86196d719",
      "assetIds": []
    },
    {
      "x": 274,
      "y": 350,
      "size": 1,
      "price": "1011000000000000000000",
      "reserved": "",
      "salt": "0xf65f091c77640440b8521c1e9290f03a3db44b40643df1714692ec37f3c5889d",
      "assetIds": []
    },
    {
      "x": 274,
      "y": 351,
      "size": 1,
      "price": "1011000000000000000000",
      "reserved": "",
      "salt": "0xa59e22e0542044dc224c3426362bc001253615d81eecac84790c085f8a8adcfe",
      "assetIds": []
    },
    {
      "x": 274,
      "y": 352,
      "size": 1,
      "price": "1011000000000000000000",
      "reserved": "",
      "salt": "0x35b6324d4d376fbf6ee5b8b72884ac5d9db723e2a9301c0d2511c035b48c77ca",
      "assetIds": []
    },
    {
      "x": 274,
      "y": 353,
      "size": 1,
      "price": "1011000000000000000000",
      "reserved": "",
      "salt": "0x6f3f6f6ca31b5385de9547baf4e8f40cff34b7618aed5a91c9be0b8209c02e6b",
      "assetIds": []
    },
    {
      "x": 274,
      "y": 354,
      "size": 1,
      "price": "1011000000000000000000",
      "reserved": "",
      "salt": "0xb08f54e63441ec81b8d9db3f1bb529628566d0a64e765f8357c05947a33933ee",
      "assetIds": []
    },
    {
      "x": 274,
      "y": 355,
      "size": 1,
      "price": "1011000000000000000000",
      "reserved": "",
      "salt": "0x6942f0dd08e0c4125319ae3ed1c8f5ca10bc216118abe660117c252de19f3c1c",
      "assetIds": []
    },
    {
      "x": 274,
      "y": 356,
      "size": 1,
      "price": "1011000000000000000000",
      "reserved": "",
      "salt": "0x7b60d718c643c60aa96b7f3ec93189c7b41e764629ff6aa5712e4f107c8ca9dc",
      "assetIds": []
    },
    {
      "x": 274,
      "y": 357,
      "size": 1,
      "price": "1011000000000000000000",
      "reserved": "",
      "salt": "0x5fd2e53426c5b88a5b67f1a050f7a62a5446a8bea2aaec690c7702e177710b18",
      "assetIds": []
    },
    {
      "x": 274,
      "y": 358,
      "size": 1,
      "price": "4683000000000000000000",
      "reserved": "",
      "salt": "0xd1f2e5094ae44aa8f50e77d9ee13fed0697ebbe38829a010657eaec970ed7078",
      "assetIds": [
        "41506478881403507969696680653240014914910929820314476107906210059990541021186"
      ]
    },
    {
      "x": 274,
      "y": 359,
      "size": 1,
      "price": "4683000000000000000000",
      "reserved": "",
      "salt": "0x172da7ac3de0a2eae96d2339755e35cad0fc60c6c7633f040cd0586d02f90266",
      "assetIds": [
        "41506478881403507969696680653240014914910929820314476107906210059990541021186"
      ]
    },
    {
      "x": 274,
      "y": 384,
      "size": 1,
      "price": "4683000000000000000000",
      "reserved": "",
      "salt": "0x093d4646ecf161356afe300fd13db1df198495e1bb9463aef759b50c938d1833",
      "assetIds": [
        "41506478881403507969696680653240014914910929820314476107906210059990541021186"
      ]
    },
    {
      "x": 274,
      "y": 385,
      "size": 1,
      "price": "4683000000000000000000",
      "reserved": "",
      "salt": "0x29f4ab187161d8d00ba2075786306988fa8f5f4ad6a59c06ef23cfaf9cb5a3c2",
      "assetIds": [
        "41506478881403507969696680653240014914910929820314476107906210059990541021186"
      ]
    },
    {
      "x": 274,
      "y": 386,
      "size": 1,
      "price": "1011000000000000000000",
      "reserved": "",
      "salt": "0x5c1a1363867cb1f6d5dcfd954fc05c52a307ad64013d6b108dba7e76def51ede",
      "assetIds": []
    },
    {
      "x": 275,
      "y": 336,
      "size": 1,
      "price": "1011000000000000000000",
      "reserved": "",
      "salt": "0x3fe7d557e64f886e392824324ac6965a075350677c70a03cbd114fc432516fd9",
      "assetIds": []
    },
    {
      "x": 275,
      "y": 337,
      "size": 1,
      "price": "1011000000000000000000",
      "reserved": "",
      "salt": "0xd556b22820fdec78329c979678663df3ae08830bc8955bd0f16e59e5a09b4aca",
      "assetIds": []
    },
    {
      "x": 275,
      "y": 338,
      "size": 1,
      "price": "1011000000000000000000",
      "reserved": "0x7a9fe22691c811ea339d9b73150e6911a5343dca",
      "salt": "0xdf4ffde169b6b66a5f0ef6116daba819596539f944aaddf8e014033ced3c40ed",
      "assetIds": []
    },
    {
      "x": 275,
      "y": 339,
      "size": 1,
      "price": "1011000000000000000000",
      "reserved": "",
      "salt": "0x0baff2b46a4c557be9ebd2ed9600270cbfdd7fa1f8fbca1dbad653d33bf33a6e",
      "assetIds": []
    },
    {
      "x": 275,
      "y": 340,
      "size": 1,
      "price": "1011000000000000000000",
      "reserved": "0x7a9fe22691c811ea339d9b73150e6911a5343dca",
      "salt": "0x8deafb46f55564c918f45142f788270d7054a063dd207efcd2a2fd8ab79a85ca",
      "assetIds": []
    },
    {
      "x": 275,
      "y": 341,
      "size": 1,
      "price": "1011000000000000000000",
      "reserved": "",
      "salt": "0x00dd439f2c4ddfb5a9350c432bba67baddf2f723d9ce258567e4ddd54f37b150",
      "assetIds": []
    },
    {
      "x": 275,
      "y": 342,
      "size": 1,
      "price": "1011000000000000000000",
      "reserved": "",
      "salt": "0x834046e4cf18c9bf986c808b682405f5b1b8034dc694e2745b006a952f42aae5",
      "assetIds": []
    },
    {
      "x": 275,
      "y": 343,
      "size": 1,
      "price": "1011000000000000000000",
      "reserved": "",
      "salt": "0x0ccf145fbe1d30f46a3d70642e3bf4591274b4a1b997a531bc7c9a23a6918d4c",
      "assetIds": []
    },
    {
      "x": 275,
      "y": 344,
      "size": 1,
      "price": "1011000000000000000000",
      "reserved": "0x7a9fe22691c811ea339d9b73150e6911a5343dca",
      "salt": "0xcc916746cc0f4c228b5729d37718acf3f522b0e241b56ec9980ee4a677afaff2",
      "assetIds": []
    },
    {
      "x": 275,
      "y": 345,
      "size": 1,
      "price": "1011000000000000000000",
      "reserved": "",
      "salt": "0x90235134894deda272cab6a2043798fc8b51928f923939d592dd304ce8d548e4",
      "assetIds": []
    },
    {
      "x": 275,
      "y": 346,
      "size": 1,
      "price": "1011000000000000000000",
      "reserved": "",
      "salt": "0xfbfa8c56ff14ec97c3366d3c870abc05e1620b5eff8dc5def4a51f3a13e4792f",
      "assetIds": []
    },
    {
      "x": 275,
      "y": 347,
      "size": 1,
      "price": "1011000000000000000000",
      "reserved": "",
      "salt": "0x643375d108b0219f523d0851c1939ab062d458610c15c1671fbb594ad98ba06f",
      "assetIds": []
    },
    {
      "x": 275,
      "y": 348,
      "size": 1,
      "price": "1011000000000000000000",
      "reserved": "",
      "salt": "0xdccfecdb07d38aaf5080566faa94b5dff4b5dc688dd62d5a31022928d87ab11b",
      "assetIds": []
    },
    {
      "x": 275,
      "y": 349,
      "size": 1,
      "price": "1011000000000000000000",
      "reserved": "",
      "salt": "0xb1331dafbeb442da7c4c105a4f77c0b086408145202e8f92d0ed4babfd80b97b",
      "assetIds": []
    },
    {
      "x": 275,
      "y": 350,
      "size": 1,
      "price": "1011000000000000000000",
      "reserved": "",
      "salt": "0x9153c83c7ebc283b107f350037bf8f4c6233d89b5deae48d782ed190456d114f",
      "assetIds": []
    },
    {
      "x": 275,
      "y": 351,
      "size": 1,
      "price": "1011000000000000000000",
      "reserved": "",
      "salt": "0xa415a88ad85a38c44a937474634b96ec3ee66746dc2ea033a9e587f2b9f95b09",
      "assetIds": []
    },
    {
      "x": 275,
      "y": 352,
      "size": 1,
      "price": "1011000000000000000000",
      "reserved": "0x7a9fe22691c811ea339d9b73150e6911a5343dca",
      "salt": "0x8b3b9c0fe632493f557aac3cc62a3725ed3f0b567bcdc217840d78e51d7a1725",
      "assetIds": []
    },
    {
      "x": 275,
      "y": 353,
      "size": 1,
      "price": "1011000000000000000000",
      "reserved": "",
      "salt": "0x4ab87a7e41bd91a70b80b94ef417d39eecf42d007b4a59f597df6a18e45759f6",
      "assetIds": []
    },
    {
      "x": 275,
      "y": 354,
      "size": 1,
      "price": "1011000000000000000000",
      "reserved": "",
      "salt": "0xafa7d75c452a3bdd513590d742d8cb00e5e78c0f0f47fdc5c20e610e59b1afaa",
      "assetIds": []
    },
    {
      "x": 275,
      "y": 355,
      "size": 1,
      "price": "1011000000000000000000",
      "reserved": "",
      "salt": "0x9e824a586cf6a139c854fe117e7ba6bb737fdefc51c5d5c45d047fb2e9d13145",
      "assetIds": []
    },
    {
      "x": 275,
      "y": 356,
      "size": 1,
      "price": "1011000000000000000000",
      "reserved": "",
      "salt": "0xc02b7521af93ae8353df507650ba3697355b1eeb9713502dcf49ee598548cc97",
      "assetIds": []
    },
    {
      "x": 275,
      "y": 357,
      "size": 1,
      "price": "1011000000000000000000",
      "reserved": "",
      "salt": "0xb0944cf9ce5b7b0988cd43336b32d1f4d751a4b1bc11d60db9755dc325ef0945",
      "assetIds": []
    },
    {
      "x": 275,
      "y": 358,
      "size": 1,
      "price": "4683000000000000000000",
      "reserved": "",
      "salt": "0x9a497aab4d6707299353818994ce51c3232bb164e8729d0359709eae579c22e7",
      "assetIds": [
        "41506478881403507969696680653240014914910929820314476107906210059990541021186"
      ]
    },
    {
      "x": 275,
      "y": 359,
      "size": 1,
      "price": "4683000000000000000000",
      "reserved": "",
      "salt": "0xf005ca09503c731cec8ac17ad6225f6676fca547b69514e7ef6c8331860c5c7f",
      "assetIds": [
        "41506478881403507969696680653240014914910929820314476107906210059990541021186"
      ]
    },
    {
      "x": 275,
      "y": 384,
      "size": 1,
      "price": "4683000000000000000000",
      "reserved": "",
      "salt": "0xa29a829ed009accb83f792fe33e23569dbda66508ee9d17d117808c473978e46",
      "assetIds": [
        "41506478881403507969696680653240014914910929820314476107906210059990541021186"
      ]
    },
    {
      "x": 275,
      "y": 385,
      "size": 1,
      "price": "4683000000000000000000",
      "reserved": "",
      "salt": "0x6818c66cf5077a64c7ec342ff526780a2abdf51669644422d8ff8f21105e727a",
      "assetIds": [
        "41506478881403507969696680653240014914910929820314476107906210059990541021186"
      ]
    },
    {
      "x": 275,
      "y": 386,
      "size": 1,
      "price": "1011000000000000000000",
      "reserved": "",
      "salt": "0xbd61df742fcc305b2f27a9aa6c8de5c9a29ab2862912cd05b95bd2f39c293442",
      "assetIds": []
    },
    {
      "x": 276,
      "y": 336,
      "size": 1,
      "price": "1011000000000000000000",
      "reserved": "",
      "salt": "0xd750fe627b54fbdc99598785c65973920d0367f5a41a2ca73444861f09df0817",
      "assetIds": []
    },
    {
      "x": 276,
      "y": 337,
      "size": 1,
      "price": "1011000000000000000000",
      "reserved": "",
      "salt": "0xc1424f7744765bd4467fa1c321821f77988f435bbdd9d08fc953590d8cadc643",
      "assetIds": []
    },
    {
      "x": 276,
      "y": 338,
      "size": 1,
      "price": "1011000000000000000000",
      "reserved": "0x7a9fe22691c811ea339d9b73150e6911a5343dca",
      "salt": "0x63dade7fb35986116ba53de9d379bf1eccb675d083387bd0f45ff795036497d3",
      "assetIds": []
    },
    {
      "x": 276,
      "y": 339,
      "size": 1,
      "price": "1011000000000000000000",
      "reserved": "0x7a9fe22691c811ea339d9b73150e6911a5343dca",
      "salt": "0xa506e9b5cda2bdea6cc3f949c181c1a296d2db98daea0965bf05bf89309752b7",
      "assetIds": []
    },
    {
      "x": 276,
      "y": 340,
      "size": 1,
      "price": "1011000000000000000000",
      "reserved": "0x7a9fe22691c811ea339d9b73150e6911a5343dca",
      "salt": "0xebad711976287e95c426530ce407787e5cd8d786d44078539cdc7099375eee79",
      "assetIds": []
    },
    {
      "x": 276,
      "y": 341,
      "size": 1,
      "price": "1011000000000000000000",
      "reserved": "",
      "salt": "0xd05a31a0a108a92f569255d946d28935ee9b6c2c3aac092b549bcfdeeaed2d8a",
      "assetIds": []
    },
    {
      "x": 276,
      "y": 342,
      "size": 1,
      "price": "1011000000000000000000",
      "reserved": "0x7a9fe22691c811ea339d9b73150e6911a5343dca",
      "salt": "0x46d481b2574d8f30f5d11afc3c7f4608c7ba01ee17db6ed3412b589c5a65b9be",
      "assetIds": []
    },
    {
      "x": 276,
      "y": 343,
      "size": 1,
      "price": "1011000000000000000000",
      "reserved": "",
      "salt": "0x6a284283887cf5b8efea83227dfb7388d0781f7025ff09acf7117ecd67f54535",
      "assetIds": []
    },
    {
      "x": 276,
      "y": 344,
      "size": 1,
      "price": "1011000000000000000000",
      "reserved": "",
      "salt": "0xc7c0d3f58e0bc70f3b606f1eef76e029de936e47510f7b549897ef56b4f4d7d4",
      "assetIds": []
    },
    {
      "x": 276,
      "y": 345,
      "size": 1,
      "price": "1011000000000000000000",
      "reserved": "",
      "salt": "0x680e8809f620e6c552b4959a835dc4e226124c2d5b599379077046e87cf0b142",
      "assetIds": []
    },
    {
      "x": 276,
      "y": 346,
      "size": 1,
      "price": "1011000000000000000000",
      "reserved": "",
      "salt": "0xbb7042344a84947b3ab04bc28488106f061c0ad88a8c6d1c9225161051571d56",
      "assetIds": []
    },
    {
      "x": 276,
      "y": 347,
      "size": 1,
      "price": "1011000000000000000000",
      "reserved": "0x7a9fe22691c811ea339d9b73150e6911a5343dca",
      "salt": "0xa15308bf4a829adce57b56ac3141b5da7f2f9df3d907117996f70987c6a4e479",
      "assetIds": []
    },
    {
      "x": 276,
      "y": 348,
      "size": 1,
      "price": "1011000000000000000000",
      "reserved": "",
      "salt": "0xe99d6b04dc8c2ef60b3833e385bab7887fa9d6d20d6d9cfffc997b8fe836f292",
      "assetIds": []
    },
    {
      "x": 276,
      "y": 349,
      "size": 1,
      "price": "1011000000000000000000",
      "reserved": "",
      "salt": "0x54865bc6578dbd8b1e74c2098b9e3a489e094051d6f0e676ce728638af5f4f9a",
      "assetIds": []
    },
    {
      "x": 276,
      "y": 350,
      "size": 1,
      "price": "1011000000000000000000",
      "reserved": "",
      "salt": "0x4f2a2fce88349fd1054e3ef1f0a5b725c459cbc475e342430f2782f64e75b829",
      "assetIds": []
    },
    {
      "x": 276,
      "y": 351,
      "size": 1,
      "price": "1011000000000000000000",
      "reserved": "",
      "salt": "0xa154942c735406d89da5463fb476e993e20e1cb009840f7e348b5cec29a8ad6a",
      "assetIds": []
    },
    {
      "x": 276,
      "y": 352,
      "size": 1,
      "price": "1011000000000000000000",
      "reserved": "0x7a9fe22691c811ea339d9b73150e6911a5343dca",
      "salt": "0xef928a7d02da43cfd9deaec958c68adba5ce66495b6a75ce4b7161f9c09146b8",
      "assetIds": []
    },
    {
      "x": 276,
      "y": 353,
      "size": 1,
      "price": "1011000000000000000000",
      "reserved": "",
      "salt": "0x53a36aa5403c97358dde4c7c9dc5ee8e2eaf9aa4eda153c152961c9aae88e46a",
      "assetIds": []
    },
    {
      "x": 276,
      "y": 354,
      "size": 1,
      "price": "1011000000000000000000",
      "reserved": "",
      "salt": "0x9ada5f4ee6b0d5298d0b1f80179ecf720def4a24ee50637501928fe4b60ea82e",
      "assetIds": []
    },
    {
      "x": 276,
      "y": 355,
      "size": 1,
      "price": "1011000000000000000000",
      "reserved": "0x7a9fe22691c811ea339d9b73150e6911a5343dca",
      "salt": "0x172385f5da1450d497c74360d298d8f6c2c3dd1183122d918d7991d001bad9ab",
      "assetIds": []
    },
    {
      "x": 276,
      "y": 356,
      "size": 1,
      "price": "1011000000000000000000",
      "reserved": "",
      "salt": "0x930f38e26772f49841e89710e491bdbeb6a25aa7f0bf50ff77c9704f0a6a8b7a",
      "assetIds": []
    },
    {
      "x": 276,
      "y": 357,
      "size": 1,
      "price": "1011000000000000000000",
      "reserved": "",
      "salt": "0x5a558e3f2f5e64354666f9066c81034ab2763d9c45fa50681931a96efda2cd85",
      "assetIds": []
    },
    {
      "x": 276,
      "y": 358,
      "size": 1,
      "price": "1011000000000000000000",
      "reserved": "0x7a9fe22691c811ea339d9b73150e6911a5343dca",
      "salt": "0xad5000c28c747c5db4ccc9c8b001f7519a890221a7c2dc8a1e6c1cbcd530b0e8",
      "assetIds": []
    },
    {
      "x": 276,
      "y": 359,
      "size": 1,
      "price": "4683000000000000000000",
      "reserved": "",
      "salt": "0x7fd6b134e5eda5b4cb6908b27b32648eb84ca6f98c6645ee60e01336cc7f0b18",
      "assetIds": [
        "41506478881403507969696680653240014914910929820314476107906210059990541021186"
      ]
    },
    {
      "x": 276,
      "y": 384,
      "size": 1,
      "price": "4683000000000000000000",
      "reserved": "",
      "salt": "0xfd2392f78955feee646617fe389e3028f01135aecf7c5cf6b425782a613621ee",
      "assetIds": [
        "41506478881403507969696680653240014914910929820314476107906210059990541021186"
      ]
    },
    {
      "x": 276,
      "y": 385,
      "size": 1,
      "price": "1011000000000000000000",
      "reserved": "0x7a9fe22691c811ea339d9b73150e6911a5343dca",
      "salt": "0xc7a4179c5a06aa25f111c21c1c82ec8549c27e4a9886d5c2278747e94a3cc4fd",
      "assetIds": []
    },
    {
      "x": 276,
      "y": 386,
      "size": 1,
      "price": "1011000000000000000000",
      "reserved": "",
      "salt": "0xc2d92a5d3b7349bc6013874b5749ee56c76f96940e3027503ed2cd60b7b64818",
      "assetIds": []
    },
    {
      "x": 277,
      "y": 336,
      "size": 1,
      "price": "1011000000000000000000",
      "reserved": "",
      "salt": "0x02f13c76675eedb22d8cbb9e632864920f415dd46ebed1749106a8ace4d49b48",
      "assetIds": []
    },
    {
      "x": 277,
      "y": 337,
      "size": 1,
      "price": "1011000000000000000000",
      "reserved": "",
      "salt": "0xbc251dd3b1a2cff21f2bae269e468e265190d6fbb4f642313d25b398a21993b0",
      "assetIds": []
    },
    {
      "x": 277,
      "y": 338,
      "size": 1,
      "price": "1011000000000000000000",
      "reserved": "",
      "salt": "0xe5742dbd1cff70fac0f59c7cfa6fa5015045930ec41e2bf8b6482833f4abecbd",
      "assetIds": []
    },
    {
      "x": 277,
      "y": 339,
      "size": 1,
      "price": "1011000000000000000000",
      "reserved": "",
      "salt": "0x339f86bbb9cf04eb3cfc42fb4fcf0dd76a14ab3925ef52748775ca55ba43e21e",
      "assetIds": []
    },
    {
      "x": 277,
      "y": 340,
      "size": 1,
      "price": "1011000000000000000000",
      "reserved": "",
      "salt": "0x8c0766900f4291340b277a49f7b96fb499dfc95f12c2c3d088a7754ad349a683",
      "assetIds": []
    },
    {
      "x": 277,
      "y": 341,
      "size": 1,
      "price": "1011000000000000000000",
      "reserved": "",
      "salt": "0xb72e3d12ac36e65810f82d5358b28dcc198369b73d4e93b9c12952c10ac3c2eb",
      "assetIds": []
    },
    {
      "x": 277,
      "y": 342,
      "size": 1,
      "price": "1011000000000000000000",
      "reserved": "",
      "salt": "0xfb68e02d3f90ecd92a0f7d4f7c0260e39ed96cc99cfcc6c7c4e456ea1d6e24cc",
      "assetIds": []
    },
    {
      "x": 277,
      "y": 343,
      "size": 1,
      "price": "1011000000000000000000",
      "reserved": "",
      "salt": "0x75fffa8d1e516413a7e6c9aee7ba4dffb24713f53f35ea558ed60abff3ef4a92",
      "assetIds": []
    },
    {
      "x": 277,
      "y": 344,
      "size": 1,
      "price": "1011000000000000000000",
      "reserved": "0x7a9fe22691c811ea339d9b73150e6911a5343dca",
      "salt": "0xc8a3f5f077279437ff76dab3eb856bf7941d899181fcc4638c07a2f47ba03162",
      "assetIds": []
    },
    {
      "x": 277,
      "y": 345,
      "size": 1,
      "price": "1011000000000000000000",
      "reserved": "",
      "salt": "0x1c4cb711a35b8807c5c97b0fdc2be763549ce71d690f73168b28490d096501bf",
      "assetIds": []
    },
    {
      "x": 277,
      "y": 346,
      "size": 1,
      "price": "1011000000000000000000",
      "reserved": "0x7a9fe22691c811ea339d9b73150e6911a5343dca",
      "salt": "0x051f587a5880d012ba64e0c9717855912052bab38db01061310843bd235066c1",
      "assetIds": []
    },
    {
      "x": 277,
      "y": 347,
      "size": 1,
      "price": "1011000000000000000000",
      "reserved": "",
      "salt": "0x12d6662066a2527a8fd7403b0d33275baaecd274765275b796b64fe9117a6002",
      "assetIds": []
    },
    {
      "x": 277,
      "y": 348,
      "size": 1,
      "price": "1011000000000000000000",
      "reserved": "",
      "salt": "0xd198dab2993bae48ca4470a26a039882dab30d19025c29719054860a1674344a",
      "assetIds": []
    },
    {
      "x": 277,
      "y": 349,
      "size": 1,
      "price": "1011000000000000000000",
      "reserved": "0x7a9fe22691c811ea339d9b73150e6911a5343dca",
      "salt": "0x27226d1b1bb23e0a97e7717ec837f72a6b26b3ecf7f5b76509baaf745b5f97f9",
      "assetIds": []
    },
    {
      "x": 277,
      "y": 350,
      "size": 1,
      "price": "1011000000000000000000",
      "reserved": "",
      "salt": "0x541477b60438bf96335ef5cddb8a59a1b46f08fcd837c73874b7465a2ae156e7",
      "assetIds": []
    },
    {
      "x": 277,
      "y": 351,
      "size": 1,
      "price": "1011000000000000000000",
      "reserved": "",
      "salt": "0x215382768ece4563b25bd7b33907b969b7563bbeddb2e0e52f17cab533a86e01",
      "assetIds": []
    },
    {
      "x": 277,
      "y": 352,
      "size": 1,
      "price": "1011000000000000000000",
      "reserved": "",
      "salt": "0xce235a0e03049ac71da52d5cee4f12d64b2c826d55fe95e87f5accd0c4c42c8d",
      "assetIds": []
    },
    {
      "x": 277,
      "y": 353,
      "size": 1,
      "price": "1011000000000000000000",
      "reserved": "",
      "salt": "0x233f909f966f3435eeeac1146ebf8e703104361198a593e7c0a97c23af4d8179",
      "assetIds": []
    },
    {
      "x": 277,
      "y": 354,
      "size": 1,
      "price": "1011000000000000000000",
      "reserved": "",
      "salt": "0xf685439cc1cb7f4e9c44ef227a207c8b63fe8e7efb9e3e59d2a1ea021477e075",
      "assetIds": []
    },
    {
      "x": 277,
      "y": 355,
      "size": 1,
      "price": "1011000000000000000000",
      "reserved": "",
      "salt": "0x662f5672b73458c583dba5c590f1539f0764cbc37f48766822b9caa342f08fa0",
      "assetIds": []
    },
    {
      "x": 277,
      "y": 356,
      "size": 1,
      "price": "1011000000000000000000",
      "reserved": "",
      "salt": "0xad5765565d75020be85984ffda87bdee3c21fd835ffe5f219bddd954b757a07c",
      "assetIds": []
    },
    {
      "x": 277,
      "y": 357,
      "size": 1,
      "price": "1011000000000000000000",
      "reserved": "",
      "salt": "0xdc8b7e8847a5271b87a0ba1d56f48828ade795cdb4a7f88a15181c05c640f54d",
      "assetIds": []
    },
    {
      "x": 277,
      "y": 358,
      "size": 1,
      "price": "1011000000000000000000",
      "reserved": "",
      "salt": "0xbfa73d5c876170fc3a6bad80f1b0678cb05f3abdd44ad0150ae6d1bdf89d16d0",
      "assetIds": []
    },
    {
      "x": 277,
      "y": 359,
      "size": 1,
      "price": "4683000000000000000000",
      "reserved": "",
      "salt": "0x5f7f0d5d48f239d091658288457fccf0bf40e55576c6f2abb78d74a0be092d3d",
      "assetIds": [
        "41506478881403507969696680653240014914910929820314476107906210059990541021186"
      ]
    },
    {
      "x": 277,
      "y": 384,
      "size": 1,
      "price": "4683000000000000000000",
      "reserved": "",
      "salt": "0x402c6d4341644d6c77a8d1f4c2eb98e1b1d2016ba25aa803b2a3138fa207d163",
      "assetIds": [
        "41506478881403507969696680653240014914910929820314476107906210059990541021186"
      ]
    },
    {
      "x": 277,
      "y": 385,
      "size": 1,
      "price": "1011000000000000000000",
      "reserved": "",
      "salt": "0x278267a67073b930d8c32cfac8c5495445e3586a9d97b71fe4ef8f6d66fa9b39",
      "assetIds": []
    },
    {
      "x": 277,
      "y": 386,
      "size": 1,
      "price": "1011000000000000000000",
      "reserved": "",
      "salt": "0xf3507a857d0cdc160dd94ff2cc5f516977b16379c790a94282063af00e76f564",
      "assetIds": []
    },
    {
      "x": 278,
      "y": 336,
      "size": 1,
      "price": "1011000000000000000000",
      "reserved": "",
      "salt": "0x221b92e116a51c70e252f75b0d3d4ec5855408b70374fcac86e05c21a0e84dc4",
      "assetIds": []
    },
    {
      "x": 278,
      "y": 337,
      "size": 1,
      "price": "1011000000000000000000",
      "reserved": "",
      "salt": "0xe24c68afb42f4ad26b2b01fec6c3a36cc1212c6c22333927b210fe06f9920b6c",
      "assetIds": []
    },
    {
      "x": 278,
      "y": 338,
      "size": 1,
      "price": "1011000000000000000000",
      "reserved": "",
      "salt": "0x834277b6cca7d57c666795e2432e7f0abcf397dab3ac05e6df9a0020c261695d",
      "assetIds": []
    },
    {
      "x": 278,
      "y": 339,
      "size": 1,
      "price": "1011000000000000000000",
      "reserved": "",
      "salt": "0xe196b4ec2fb3be30a9a38022f10f3c6060c9b9b3d065df87432b7601472f9111",
      "assetIds": []
    },
    {
      "x": 278,
      "y": 340,
      "size": 1,
      "price": "1011000000000000000000",
      "reserved": "",
      "salt": "0xbf70a69a9ab7a22898604b275cb139589f37ff8a9e65193d8476a0f29740a631",
      "assetIds": []
    },
    {
      "x": 278,
      "y": 341,
      "size": 1,
      "price": "1011000000000000000000",
      "reserved": "",
      "salt": "0x578ce08b91ea9fa268ae16a545fb0324d43c271e72a1b277315ad8f61459b5c4",
      "assetIds": []
    },
    {
      "x": 278,
      "y": 342,
      "size": 1,
      "price": "1011000000000000000000",
      "reserved": "",
      "salt": "0xec427422edde2a1b78b1df596e4a8e1945ea1faed183e0c51eec9f63fa361047",
      "assetIds": []
    },
    {
      "x": 278,
      "y": 343,
      "size": 1,
      "price": "1011000000000000000000",
      "reserved": "",
      "salt": "0xd541b5b782a79c5bbbdfc3f542f98d6f507a821e040d973657bb84bb02fb5a2e",
      "assetIds": []
    },
    {
      "x": 278,
      "y": 344,
      "size": 1,
      "price": "1011000000000000000000",
      "reserved": "",
      "salt": "0xed8b661af3889bb6ae3319018b4889c3bf3c2337569fd6bdee9a5cbcab04bd0c",
      "assetIds": []
    },
    {
      "x": 278,
      "y": 345,
      "size": 1,
      "price": "1011000000000000000000",
      "reserved": "",
      "salt": "0x01f9d3bde858e0a8368734e477924d795e9838128d1dff07fabd7e5fb47ce0ca",
      "assetIds": []
    },
    {
      "x": 278,
      "y": 346,
      "size": 1,
      "price": "1011000000000000000000",
      "reserved": "0x7a9fe22691c811ea339d9b73150e6911a5343dca",
      "salt": "0xc019efd7777ac173175c82c3e97ffc92c5b445850a877996ccf6fb2d545e658e",
      "assetIds": []
    },
    {
      "x": 278,
      "y": 347,
      "size": 1,
      "price": "1011000000000000000000",
      "reserved": "",
      "salt": "0x53e791604e0a7d9fa21ed5ad8931c7ad156f7d4ca8af468a596db515c6404d5f",
      "assetIds": []
    },
    {
      "x": 278,
      "y": 348,
      "size": 1,
      "price": "1011000000000000000000",
      "reserved": "",
      "salt": "0xb61b15f74661278cd22cf38e07e1f8fe4e15251d058de974fe4d6b479a8fff0b",
      "assetIds": []
    },
    {
      "x": 278,
      "y": 349,
      "size": 1,
      "price": "1011000000000000000000",
      "reserved": "",
      "salt": "0x15e7af32299105e840c4e253e37e6aff4825781917fb8bea4c697996a1606f7d",
      "assetIds": []
    },
    {
      "x": 278,
      "y": 350,
      "size": 1,
      "price": "1011000000000000000000",
      "reserved": "",
      "salt": "0xaba88030a0343cca4c0e866fbde6697e52f7ebc3f504bdf3f729e1bf57109e8f",
      "assetIds": []
    },
    {
      "x": 278,
      "y": 351,
      "size": 1,
      "price": "1011000000000000000000",
      "reserved": "",
      "salt": "0x883f871c8e20530871c426d1f054f684a921b4724dde60adb935a64dc65d23ef",
      "assetIds": []
    },
    {
      "x": 278,
      "y": 352,
      "size": 1,
      "price": "1011000000000000000000",
      "reserved": "",
      "salt": "0x9fb26e20e9e67a3e23eaaba4ebccbb000e5c4b16a0527e84c6ddd0ab90efad4d",
      "assetIds": []
    },
    {
      "x": 278,
      "y": 353,
      "size": 1,
      "price": "1011000000000000000000",
      "reserved": "0x7a9fe22691c811ea339d9b73150e6911a5343dca",
      "salt": "0xe79767d38a65b2a9eca51329083ac07fd064115f8876cb97e6065ce4736cf528",
      "assetIds": []
    },
    {
      "x": 278,
      "y": 354,
      "size": 1,
      "price": "1011000000000000000000",
      "reserved": "",
      "salt": "0x11afca5c60c59a8c2eb88d44f72f458e72914d8775f8066481b46712722c46c4",
      "assetIds": []
    },
    {
      "x": 278,
      "y": 355,
      "size": 1,
      "price": "1011000000000000000000",
      "reserved": "",
      "salt": "0xf34e1288b6fb1dd19f162e1cd55c9e129dc80d4413c9e152b658d1e0e3c2623d",
      "assetIds": []
    },
    {
      "x": 278,
      "y": 356,
      "size": 1,
      "price": "1011000000000000000000",
      "reserved": "",
      "salt": "0xafdcb7705c858a29022de0995517602b812be1f232d397b7a6d44c7f0fac64a8",
      "assetIds": []
    },
    {
      "x": 278,
      "y": 357,
      "size": 1,
      "price": "1011000000000000000000",
      "reserved": "0x7a9fe22691c811ea339d9b73150e6911a5343dca",
      "salt": "0x6317c721e173df3f3619a554c809c8bfb563abe6f3ac136b612f79da943decaa",
      "assetIds": []
    },
    {
      "x": 278,
      "y": 358,
      "size": 1,
      "price": "1011000000000000000000",
      "reserved": "",
      "salt": "0xee1fcb8211b29132f5b813ea0985c4bd631d01589d5338e10af2a757220f5332",
      "assetIds": []
    },
    {
      "x": 278,
      "y": 359,
      "size": 1,
      "price": "4683000000000000000000",
      "reserved": "",
      "salt": "0x9a12cbd607cf3baf7a4a5cd341d284b4101c106687166bff72e894aa63f4a784",
      "assetIds": [
        "41506478881403507969696680653240014914910929820314476107906210059990541021186"
      ]
    },
    {
      "x": 278,
      "y": 384,
      "size": 1,
      "price": "4683000000000000000000",
      "reserved": "",
      "salt": "0x33e77db9fed60fed14d648c58121d3d0836b5e2ac646ce1b0ad13352ff036bfa",
      "assetIds": [
        "41506478881403507969696680653240014914910929820314476107906210059990541021186"
      ]
    },
    {
      "x": 278,
      "y": 385,
      "size": 1,
      "price": "1011000000000000000000",
      "reserved": "0x7a9fe22691c811ea339d9b73150e6911a5343dca",
      "salt": "0x83258e602ba69025b21f91f78adef40957cdceedbfbc0ef7061f8cb4e00e3b24",
      "assetIds": []
    },
    {
      "x": 278,
      "y": 386,
      "size": 1,
      "price": "1011000000000000000000",
      "reserved": "0x7a9fe22691c811ea339d9b73150e6911a5343dca",
      "salt": "0xa94a5a6429927f0f18f7efe0339fcbbed965a012d8051863b45e2b22fada4cdd",
      "assetIds": []
    },
    {
      "x": 279,
      "y": 336,
      "size": 1,
      "price": "1011000000000000000000",
      "reserved": "",
      "salt": "0x9a8e2361a59b9858b8839199adb79b7ad78ec96c0b9e31705a293d5e557d9661",
      "assetIds": []
    },
    {
      "x": 279,
      "y": 337,
      "size": 1,
      "price": "1011000000000000000000",
      "reserved": "",
      "salt": "0xf5921a01402d0f14693e3ea93a8b00e32177c832b006c4320258923a0a0a3275",
      "assetIds": []
    },
    {
      "x": 279,
      "y": 338,
      "size": 1,
      "price": "1011000000000000000000",
      "reserved": "",
      "salt": "0x7ab2c9694dc50a272a47c76d17c9950108e4e360a59d62fe9bf86f88c7863a13",
      "assetIds": []
    },
    {
      "x": 279,
      "y": 339,
      "size": 1,
      "price": "1011000000000000000000",
      "reserved": "",
      "salt": "0xe653dd5a2905eb6af044f0ee4b75c630f682fd86508dce9144659e80fa68f652",
      "assetIds": []
    },
    {
      "x": 279,
      "y": 340,
      "size": 1,
      "price": "1011000000000000000000",
      "reserved": "",
      "salt": "0xfa6c5fb633c156544c5df8156abb79ca662acf8a7792b87808ba6a1a6756a63d",
      "assetIds": []
    },
    {
      "x": 279,
      "y": 341,
      "size": 1,
      "price": "1011000000000000000000",
      "reserved": "",
      "salt": "0xe728b2a978944e483a357db1c0aedd611e4819a641e1a53ebc0b5e1318d4280d",
      "assetIds": []
    },
    {
      "x": 279,
      "y": 342,
      "size": 1,
      "price": "1011000000000000000000",
      "reserved": "",
      "salt": "0x57c1f99a3b2df27754e467ab70a1fd7a3a205ccc7afa2ce86997d705effb5737",
      "assetIds": []
    },
    {
      "x": 279,
      "y": 343,
      "size": 1,
      "price": "1011000000000000000000",
      "reserved": "",
      "salt": "0x0f69ee20e6aeb3c6d4c729049bfa4425f05a26f008bbf7ff45ddbcd013ebf306",
      "assetIds": []
    },
    {
      "x": 279,
      "y": 344,
      "size": 1,
      "price": "1011000000000000000000",
      "reserved": "",
      "salt": "0x5aa85bb88dc7196fa50b357ad7804e59ac7a5cc2d45f6f923135463d2333d211",
      "assetIds": []
    },
    {
      "x": 279,
      "y": 345,
      "size": 1,
      "price": "1011000000000000000000",
      "reserved": "",
      "salt": "0x1eade03e5fd8947fc7a2f64f79500b20b6a3a3176219b6852e621a30587c6091",
      "assetIds": []
    },
    {
      "x": 279,
      "y": 346,
      "size": 1,
      "price": "1011000000000000000000",
      "reserved": "",
      "salt": "0xe4c2c8c81b711c492af3f751c51bb73dd2bcc163b9d78c812ff358c35ad8cce9",
      "assetIds": []
    },
    {
      "x": 279,
      "y": 347,
      "size": 1,
      "price": "1011000000000000000000",
      "reserved": "0x7a9fe22691c811ea339d9b73150e6911a5343dca",
      "salt": "0x9cfd36523356c84db8ebd3735215a8e54522dcecb5485154ef8df2d19f7682b6",
      "assetIds": []
    },
    {
      "x": 279,
      "y": 348,
      "size": 1,
      "price": "1011000000000000000000",
      "reserved": "",
      "salt": "0xd25ee91a53a2c76e71bd6b84aba348ee1f6d640848cedc9d5b449d5c6067fae9",
      "assetIds": []
    },
    {
      "x": 279,
      "y": 349,
      "size": 1,
      "price": "1011000000000000000000",
      "reserved": "",
      "salt": "0x656620562cbd00fbe328fd92ca4580af30f2ee4fcd0d0312797e384b9a097c23",
      "assetIds": []
    },
    {
      "x": 279,
      "y": 350,
      "size": 1,
      "price": "1011000000000000000000",
      "reserved": "",
      "salt": "0x15928d54415e353a68ad0d4639d0f2113c5d24027e0cb142af1a76f32b3100e0",
      "assetIds": []
    },
    {
      "x": 279,
      "y": 351,
      "size": 1,
      "price": "1011000000000000000000",
      "reserved": "",
      "salt": "0x60d50af923d2077adeb1f063cd935ab602c7fed5a934b223eedf75c868f95eea",
      "assetIds": []
    },
    {
      "x": 279,
      "y": 352,
      "size": 1,
      "price": "1011000000000000000000",
      "reserved": "",
      "salt": "0xce12403760388c455243e66c46f5f2d3d3d2d130df72826c9958790707f512f1",
      "assetIds": []
    },
    {
      "x": 279,
      "y": 353,
      "size": 1,
      "price": "1011000000000000000000",
      "reserved": "",
      "salt": "0x7851f7ed0bcf0083785eb6879405695fb0fdf8f003aac1f9a0554656b95a252e",
      "assetIds": []
    },
    {
      "x": 279,
      "y": 354,
      "size": 1,
      "price": "1011000000000000000000",
      "reserved": "",
      "salt": "0xddd442bb3afd8e6d3a5a63d149153513eae1bca672fa813107b847e039cb6d02",
      "assetIds": []
    },
    {
      "x": 279,
      "y": 355,
      "size": 1,
      "price": "1011000000000000000000",
      "reserved": "0x7a9fe22691c811ea339d9b73150e6911a5343dca",
      "salt": "0xe8078b89adda5934b95fa669cc6c00fcca871b61827e9bc002b5edb057c81f6c",
      "assetIds": []
    },
    {
      "x": 279,
      "y": 356,
      "size": 1,
      "price": "1011000000000000000000",
      "reserved": "",
      "salt": "0x26fe4c1539ff1c7661e6c2366daf80471eac91eb6dd7daec2b7b17f3400a6948",
      "assetIds": []
    },
    {
      "x": 279,
      "y": 357,
      "size": 1,
      "price": "1011000000000000000000",
      "reserved": "0x7a9fe22691c811ea339d9b73150e6911a5343dca",
      "salt": "0x1faa3252bc3694fff32137b6ffaf9c3501e9055028f18b5f671ce34bc05dacc1",
      "assetIds": []
    },
    {
      "x": 279,
      "y": 358,
      "size": 1,
      "price": "1011000000000000000000",
      "reserved": "",
      "salt": "0xf4a3eac53542b0891b6eadf051328b41f007dc121c72f151c795be26536f01c4",
      "assetIds": []
    },
    {
      "x": 279,
      "y": 359,
      "size": 1,
      "price": "4683000000000000000000",
      "reserved": "",
      "salt": "0x9755bce1c79da4f962a4f98996a9b10ef4736b1688b74c702128a340d96226db",
      "assetIds": [
        "41506478881403507969696680653240014914910929820314476107906210059990541021186"
      ]
    },
    {
      "x": 279,
      "y": 384,
      "size": 1,
      "price": "4683000000000000000000",
      "reserved": "",
      "salt": "0xd2275abce05e124e4ce91d642083e831e4193d241c24e94285e4ee0f5ffbc712",
      "assetIds": [
        "41506478881403507969696680653240014914910929820314476107906210059990541021186"
      ]
    },
    {
      "x": 279,
      "y": 385,
      "size": 1,
      "price": "4683000000000000000000",
      "reserved": "",
      "salt": "0x4d360be33d809752f44c73eb21497428fb42159a26f17a111ba94061c3cf5940",
      "assetIds": [
        "41506478881403507969696680653240014914910929820314476107906210059990541021186"
      ]
    },
    {
      "x": 279,
      "y": 386,
      "size": 1,
      "price": "1011000000000000000000",
      "reserved": "",
      "salt": "0x1e57fe1de4d740304813835574ad33b0320c323db5c7a55f2f0031d390063175",
      "assetIds": []
    },
    {
      "x": 280,
      "y": 336,
      "size": 1,
      "price": "1011000000000000000000",
      "reserved": "0x7a9fe22691c811ea339d9b73150e6911a5343dca",
      "salt": "0xf556e178faa8c958db7398f1bd3a58c682df559e3389c18829bfd0c7e9631f69",
      "assetIds": []
    },
    {
      "x": 280,
      "y": 337,
      "size": 1,
      "price": "1011000000000000000000",
      "reserved": "",
      "salt": "0xdcd41be2981c2977a7fc3f52167e71de613fff5d5ba21bf3d7f9dabd1f522405",
      "assetIds": []
    },
    {
      "x": 280,
      "y": 338,
      "size": 1,
      "price": "1011000000000000000000",
      "reserved": "",
      "salt": "0x03e6919c1892b9f637f1a90d9e19e2a4f724ffe50ef07c3593f8b6b3f72c2010",
      "assetIds": []
    },
    {
      "x": 280,
      "y": 339,
      "size": 1,
      "price": "1011000000000000000000",
      "reserved": "0x7a9fe22691c811ea339d9b73150e6911a5343dca",
      "salt": "0xdd4a9aed23918189c9fa5859a290c56762f2de96c3f43055f8343c8a7d05d797",
      "assetIds": []
    },
    {
      "x": 280,
      "y": 340,
      "size": 1,
      "price": "1011000000000000000000",
      "reserved": "",
      "salt": "0x97088012561c72a4501a19fb1cece73bd5b6dcf1a7973d41c3851756b0f73cb4",
      "assetIds": []
    },
    {
      "x": 280,
      "y": 341,
      "size": 1,
      "price": "1011000000000000000000",
      "reserved": "",
      "salt": "0xe6a5325aa0db18f4bbeff8058bb10831a919d21a42ab018e5547db118edbaf25",
      "assetIds": []
    },
    {
      "x": 280,
      "y": 342,
      "size": 1,
      "price": "1011000000000000000000",
      "reserved": "",
      "salt": "0x708ba1f2d97d128c4349445b9be7f40a4a100a27923cba64a821c45b2e821386",
      "assetIds": []
    },
    {
      "x": 280,
      "y": 343,
      "size": 1,
      "price": "1011000000000000000000",
      "reserved": "",
      "salt": "0xe60ccf86ae3bee1d92dcd89e56818928b6071b0265c95cdcc43a8d55a4301bd7",
      "assetIds": []
    },
    {
      "x": 280,
      "y": 344,
      "size": 1,
      "price": "1011000000000000000000",
      "reserved": "",
      "salt": "0xbd14cb413dbadc410e559db37a72ce480a9de2d46377c641180d904f0a109f9c",
      "assetIds": []
    },
    {
      "x": 280,
      "y": 345,
      "size": 1,
      "price": "1011000000000000000000",
      "reserved": "",
      "salt": "0x913d8b71f75aff31e02ce7479adee4622ec95b6d104555ba8ac9afbae357628b",
      "assetIds": []
    },
    {
      "x": 280,
      "y": 346,
      "size": 1,
      "price": "1011000000000000000000",
      "reserved": "",
      "salt": "0x247d50a476dc4ed7c9a6ff120514abca460a7d0edf510e2a8f42337de0403687",
      "assetIds": []
    },
    {
      "x": 280,
      "y": 347,
      "size": 1,
      "price": "1011000000000000000000",
      "reserved": "",
      "salt": "0xe757c829cc86f02d8fb8e4e493ff54be921a8075c00994aa646a7d91a5d59c8d",
      "assetIds": []
    },
    {
      "x": 280,
      "y": 348,
      "size": 1,
      "price": "1011000000000000000000",
      "reserved": "",
      "salt": "0x7e25859b1366be7c3ecf45f7acb03ff8fa6408b29b67bfcc79ef76eb7a9a0912",
      "assetIds": []
    },
    {
      "x": 280,
      "y": 349,
      "size": 1,
      "price": "1011000000000000000000",
      "reserved": "",
      "salt": "0xe164b4bfb1fde09f9ad63a56557aacd36c1a73231e6d95f0aba0aba956c83145",
      "assetIds": []
    },
    {
      "x": 280,
      "y": 350,
      "size": 1,
      "price": "1011000000000000000000",
      "reserved": "",
      "salt": "0x4ea7b5b24a353aa39a5e6344f7aabcc00fb36d0da072b4eb46538dd561ab7292",
      "assetIds": []
    },
    {
      "x": 280,
      "y": 351,
      "size": 1,
      "price": "1011000000000000000000",
      "reserved": "",
      "salt": "0x1cda36df7b45eb3f5c8c05328d1f3a700245dfa75c017e7f3d0ca6ee28b031bc",
      "assetIds": []
    },
    {
      "x": 280,
      "y": 352,
      "size": 1,
      "price": "1011000000000000000000",
      "reserved": "",
      "salt": "0x536efa972de4860ce2465fbb5955eb8832230da296f8b073c9f32334bb0cbb43",
      "assetIds": []
    },
    {
      "x": 280,
      "y": 353,
      "size": 1,
      "price": "1011000000000000000000",
      "reserved": "",
      "salt": "0x16ebd474f24006b2adcf7663cf6f1b253f1b3e9cbe305267093beff0f89c2b61",
      "assetIds": []
    },
    {
      "x": 280,
      "y": 354,
      "size": 1,
      "price": "1011000000000000000000",
      "reserved": "",
      "salt": "0xf400c926989c26f308c6211b0ac2c4f34755bf4a12b1423443b9faeb89b3dc43",
      "assetIds": []
    },
    {
      "x": 280,
      "y": 355,
      "size": 1,
      "price": "1011000000000000000000",
      "reserved": "",
      "salt": "0x2c7c6640f8b80296966be5b6af21c3ca7f11ddd0cd377efefe00ba3cc730debc",
      "assetIds": []
    },
    {
      "x": 280,
      "y": 356,
      "size": 1,
      "price": "1011000000000000000000",
      "reserved": "",
      "salt": "0x12b2c8a81d2fc2a41ea5c7d22b61a9dca6378232d285bb7711a1937717940d73",
      "assetIds": []
    },
    {
      "x": 280,
      "y": 357,
      "size": 1,
      "price": "1011000000000000000000",
      "reserved": "",
      "salt": "0x36039a4d2fc762ea9ba9be81a251d56b9118e3136c251624741c040feff05d75",
      "assetIds": []
    },
    {
      "x": 280,
      "y": 358,
      "size": 1,
      "price": "1011000000000000000000",
      "reserved": "",
      "salt": "0xc3b9d8795c570a6ae938d383830096c9573b91ea993245d68c98c8d6ca64fb67",
      "assetIds": []
    },
    {
      "x": 280,
      "y": 359,
      "size": 1,
      "price": "4683000000000000000000",
      "reserved": "",
      "salt": "0x25ccf2c21f849e7c1cf213f5cdd2a5734fd4aa23022087dc9d798c48c6f7eecb",
      "assetIds": [
        "41506478881403507969696680653240014914910929820314476107906210059990541021186"
      ]
    },
    {
      "x": 280,
      "y": 384,
      "size": 1,
      "price": "4683000000000000000000",
      "reserved": "",
      "salt": "0x217d5c86ff6f78da00c1f0549bc5e0ba9f6bec7251d820187b4be920cbac2d51",
      "assetIds": [
        "41506478881403507969696680653240014914910929820314476107906210059990541021186"
      ]
    },
    {
      "x": 280,
      "y": 385,
      "size": 1,
      "price": "4683000000000000000000",
      "reserved": "",
      "salt": "0xd2c134d0ef632dc032efec41af39a9c7c5dbc87b0eb2cbc9aeddfdac9778fac6",
      "assetIds": [
        "41506478881403507969696680653240014914910929820314476107906210059990541021186"
      ]
    },
    {
      "x": 280,
      "y": 386,
      "size": 1,
      "price": "1011000000000000000000",
      "reserved": "",
      "salt": "0x6de1d3e641c114c551875dcf88237d976c53da113e41831c0595149918b68057",
      "assetIds": []
    },
    {
      "x": 281,
      "y": 336,
      "size": 1,
      "price": "1011000000000000000000",
      "reserved": "",
      "salt": "0x43cf4b0e29e8ffbaf82f55b9a8ae02bf760d045d94751cddbae229e8e411b8cc",
      "assetIds": []
    },
    {
      "x": 281,
      "y": 337,
      "size": 1,
      "price": "1011000000000000000000",
      "reserved": "0x7a9fe22691c811ea339d9b73150e6911a5343dca",
      "salt": "0xa5df3aa17deae312f37bede28a5cf064bab67efb11b69cc0978ea7c63e328f49",
      "assetIds": []
    },
    {
      "x": 281,
      "y": 338,
      "size": 1,
      "price": "1011000000000000000000",
      "reserved": "",
      "salt": "0xd5c8fdcb7d88716a7a5429c474631900c24352440f9da42d79a38c89b6253f5f",
      "assetIds": []
    },
    {
      "x": 281,
      "y": 339,
      "size": 1,
      "price": "1011000000000000000000",
      "reserved": "0x7a9fe22691c811ea339d9b73150e6911a5343dca",
      "salt": "0x11e807c62da1a567c78529e0d7586a315e92e8a260a3c7b20ccf0ba5a2c31981",
      "assetIds": []
    },
    {
      "x": 281,
      "y": 340,
      "size": 1,
      "price": "1011000000000000000000",
      "reserved": "",
      "salt": "0x4448ad01e77eedd98f29e54fedffb3e97cbca5e1a6186ac33ea9f7e6940a2608",
      "assetIds": []
    },
    {
      "x": 281,
      "y": 341,
      "size": 1,
      "price": "1011000000000000000000",
      "reserved": "",
      "salt": "0xb909f4983524fe64824c311f2fbc7eaf3f1e7a8b7b9b4e932a37205988240b1a",
      "assetIds": []
    },
    {
      "x": 281,
      "y": 342,
      "size": 1,
      "price": "1011000000000000000000",
      "reserved": "0x7a9fe22691c811ea339d9b73150e6911a5343dca",
      "salt": "0x932c9d43ecd4d039911083dd172b1322694ffd55ced11def41e98508e2c57781",
      "assetIds": []
    },
    {
      "x": 281,
      "y": 343,
      "size": 1,
      "price": "1011000000000000000000",
      "reserved": "0x7a9fe22691c811ea339d9b73150e6911a5343dca",
      "salt": "0xb05e9543ff984f15aba6a9b6eba391b6b56ff18a05043dc3825cca606ac0a544",
      "assetIds": []
    },
    {
      "x": 281,
      "y": 344,
      "size": 1,
      "price": "1011000000000000000000",
      "reserved": "",
      "salt": "0xa78115c36aa7f1cf3aac0778728aad659b38c1be2a36203294a77829975f3334",
      "assetIds": []
    },
    {
      "x": 281,
      "y": 345,
      "size": 1,
      "price": "1011000000000000000000",
      "reserved": "",
      "salt": "0x1521b1d291e29bae9f603596555169aa3eaa75e9b600706477d47314f30b8c13",
      "assetIds": []
    },
    {
      "x": 281,
      "y": 346,
      "size": 1,
      "price": "1011000000000000000000",
      "reserved": "",
      "salt": "0x70ec94d82ced0ef07b641d970102b5c61ec2daa8516499278660c1d4d87fe06b",
      "assetIds": []
    },
    {
      "x": 281,
      "y": 347,
      "size": 1,
      "price": "1011000000000000000000",
      "reserved": "",
      "salt": "0x4daebcd4960928dc6b2e896d8b9b3ab986044328ddf1fe4accde46e647e38739",
      "assetIds": []
    },
    {
      "x": 281,
      "y": 348,
      "size": 1,
      "price": "1011000000000000000000",
      "reserved": "",
      "salt": "0xed080c449919e45c24a32043a43df920f79dde942cffa41b9922fd753e358892",
      "assetIds": []
    },
    {
      "x": 281,
      "y": 349,
      "size": 1,
      "price": "1011000000000000000000",
      "reserved": "",
      "salt": "0x4924e654cef6e139b0de661f7e12e122bb96716c6f1044ec6590b3645434b763",
      "assetIds": []
    },
    {
      "x": 281,
      "y": 350,
      "size": 1,
      "price": "1011000000000000000000",
      "reserved": "0x7a9fe22691c811ea339d9b73150e6911a5343dca",
      "salt": "0xae8e0237859e89bdb81e8dfb12ab426d72be0cc7b0840a46de2f7fa52d106061",
      "assetIds": []
    },
    {
      "x": 281,
      "y": 351,
      "size": 1,
      "price": "1011000000000000000000",
      "reserved": "",
      "salt": "0xd4f035d0a38eacdf67a24bc915b36222d881a850b5a57219a492eb6258f25a1a",
      "assetIds": []
    },
    {
      "x": 281,
      "y": 352,
      "size": 1,
      "price": "1011000000000000000000",
      "reserved": "",
      "salt": "0x89b41c6a48fbdb41ca0ed5b41012b349940f77366d2232c15e2d08425da0b7e4",
      "assetIds": []
    },
    {
      "x": 281,
      "y": 353,
      "size": 1,
      "price": "1011000000000000000000",
      "reserved": "",
      "salt": "0x3c18ea4e851c5342c0994d2bf9f0a0a4c333730742e76c9c18717b743f1d54de",
      "assetIds": []
    },
    {
      "x": 281,
      "y": 354,
      "size": 1,
      "price": "1011000000000000000000",
      "reserved": "0x7a9fe22691c811ea339d9b73150e6911a5343dca",
      "salt": "0x5188c57e1472ceba81d693582b96e731e1013e227ee3fbbe0d6129225b1988eb",
      "assetIds": []
    },
    {
      "x": 281,
      "y": 355,
      "size": 1,
      "price": "1011000000000000000000",
      "reserved": "",
      "salt": "0x8c149aecda0498971e7a7b9cb72560163bf2e66c7b477b0961fd9f6b73e6223a",
      "assetIds": []
    },
    {
      "x": 281,
      "y": 356,
      "size": 1,
      "price": "1011000000000000000000",
      "reserved": "",
      "salt": "0x6dec2b03f564e6030de6434a9d4f97f8ac6214cd7671f6c2b0c94978b40fc983",
      "assetIds": []
    },
    {
      "x": 281,
      "y": 357,
      "size": 1,
      "price": "1011000000000000000000",
      "reserved": "0x7a9fe22691c811ea339d9b73150e6911a5343dca",
      "salt": "0xaec8df6dc7fdcc9c8590499ff9369705d5ffea722393d4aeb91000aa9fbeca65",
      "assetIds": []
    },
    {
      "x": 281,
      "y": 358,
      "size": 1,
      "price": "1011000000000000000000",
      "reserved": "",
      "salt": "0x51aecbaa4a4abc8fe0b07d7c735fc3dd8b3b708ce1abffa744a536cb05e2ad31",
      "assetIds": []
    },
    {
      "x": 281,
      "y": 359,
      "size": 1,
      "price": "4683000000000000000000",
      "reserved": "",
      "salt": "0x65f11f6e05f609233ed79042eb484bfc073d1ce557e87d4c43012967d4885b07",
      "assetIds": [
        "41506478881403507969696680653240014914910929820314476107906210059990541021186"
      ]
    },
    {
      "x": 281,
      "y": 384,
      "size": 1,
      "price": "4683000000000000000000",
      "reserved": "",
      "salt": "0x465105f38fee5787c135cf183aed6cc1bce23e2cc718eddc4a112139ea4c9fb5",
      "assetIds": [
        "41506478881403507969696680653240014914910929820314476107906210059990541021186"
      ]
    },
    {
      "x": 281,
      "y": 385,
      "size": 1,
      "price": "4683000000000000000000",
      "reserved": "",
      "salt": "0x00a06f9d0671c3f3dc3e0eb6b203099ef52c229abdbb1a607ff5ea3651225ddf",
      "assetIds": [
        "41506478881403507969696680653240014914910929820314476107906210059990541021186"
      ]
    },
    {
      "x": 281,
      "y": 386,
      "size": 1,
      "price": "1011000000000000000000",
      "reserved": "",
      "salt": "0xbab7ac0cbd348e28183a7e8bb3e4add7392faeebc950b836da15db688c800e68",
      "assetIds": []
    },
    {
      "x": 282,
      "y": 336,
      "size": 1,
      "price": "1011000000000000000000",
      "reserved": "0x7a9fe22691c811ea339d9b73150e6911a5343dca",
      "salt": "0xf15d78d4d2c3fd27853ce70267710131ef56325fd54e3633519b30a7dbe5e1e5",
      "assetIds": []
    },
    {
      "x": 282,
      "y": 337,
      "size": 1,
      "price": "1011000000000000000000",
      "reserved": "0x7a9fe22691c811ea339d9b73150e6911a5343dca",
      "salt": "0x933bfd1310b71fa76827890a949699840c9ef6bdf76a2f59fd622e63d2a21563",
      "assetIds": []
    },
    {
      "x": 282,
      "y": 338,
      "size": 1,
      "price": "1011000000000000000000",
      "reserved": "",
      "salt": "0x7259301ca65d056ea4a166ad1287d3410d45ec890e500c6355cd33d82cba6e74",
      "assetIds": []
    },
    {
      "x": 282,
      "y": 339,
      "size": 1,
      "price": "1011000000000000000000",
      "reserved": "",
      "salt": "0xc3296a110c805668ddf0915692d69c5f4d394a5e6e87c708aa7e4a220190fa60",
      "assetIds": []
    },
    {
      "x": 282,
      "y": 340,
      "size": 1,
      "price": "1011000000000000000000",
      "reserved": "",
      "salt": "0xed942e23ec019f8a8732b5cc4bb64b0fe995272c30aeba68b7272a375b5fdfda",
      "assetIds": []
    },
    {
      "x": 282,
      "y": 341,
      "size": 1,
      "price": "1011000000000000000000",
      "reserved": "0x7a9fe22691c811ea339d9b73150e6911a5343dca",
      "salt": "0xbc1a0342e7ad9c010329653c89cce2c938e8d49056698df54de76a3fe5275d4e",
      "assetIds": []
    },
    {
      "x": 282,
      "y": 342,
      "size": 1,
      "price": "1011000000000000000000",
      "reserved": "",
      "salt": "0x8dd9c74f255197d308a32dbb572a34da3c28b7a547399982b1f3c46ccf20905d",
      "assetIds": []
    },
    {
      "x": 282,
      "y": 343,
      "size": 1,
      "price": "1011000000000000000000",
      "reserved": "",
      "salt": "0x17fe6aa5d648a9c027495d0af2d14f8452fd963740f2e510cbfcf4f57220b9ae",
      "assetIds": []
    },
    {
      "x": 282,
      "y": 344,
      "size": 1,
      "price": "1011000000000000000000",
      "reserved": "",
      "salt": "0xbffbbdde758e5dac0a5fd45f54689d45ed914c5b3b65d05cfcb5f78e573d35d6",
      "assetIds": []
    },
    {
      "x": 282,
      "y": 345,
      "size": 1,
      "price": "1011000000000000000000",
      "reserved": "0x7a9fe22691c811ea339d9b73150e6911a5343dca",
      "salt": "0x0ae55b7008b5b06a52f97cf324719ae1a84fd2ac5ebde00c89b257ced431e1b4",
      "assetIds": []
    },
    {
      "x": 282,
      "y": 346,
      "size": 1,
      "price": "1011000000000000000000",
      "reserved": "",
      "salt": "0x4629e1ddd0517dd56871c82b58cb9a18ed5042b4445edb615c163edb16b84d75",
      "assetIds": []
    },
    {
      "x": 282,
      "y": 347,
      "size": 1,
      "price": "1011000000000000000000",
      "reserved": "",
      "salt": "0x5e5e8771409a53bfb8c0e9daaa6873b8d6f0a58f5d6b625d9af974b4fe663bfd",
      "assetIds": []
    },
    {
      "x": 282,
      "y": 354,
      "size": 1,
      "price": "1011000000000000000000",
      "reserved": "",
      "salt": "0x140037c6597895bd7f97e52c2bc05cff20bece2b95ac6bfb4af3748ed3187eeb",
      "assetIds": []
    },
    {
      "x": 282,
      "y": 355,
      "size": 1,
      "price": "1011000000000000000000",
      "reserved": "",
      "salt": "0x6fcf8903818a70658cb601299a3c0d069b8de1e002f75f5be58fdb24a4463729",
      "assetIds": []
    },
    {
      "x": 282,
      "y": 356,
      "size": 1,
      "price": "1011000000000000000000",
      "reserved": "",
      "salt": "0x9d94dd37af25d0fabc4c03cc53efb341c598970ec470ae8d340c9433d0677b76",
      "assetIds": []
    },
    {
      "x": 282,
      "y": 357,
      "size": 1,
      "price": "1011000000000000000000",
      "reserved": "",
      "salt": "0x7060b2ff73f45ce6d22d9ab0e35a3f2be5070a39dc46efb5182a5b6cf86511ef",
      "assetIds": []
    },
    {
      "x": 282,
      "y": 358,
      "size": 1,
      "price": "1011000000000000000000",
      "reserved": "",
      "salt": "0xbc084e503e8965b794d5661c797acaf5294dc4f26f248f3f2bc41a2a221899cc",
      "assetIds": []
    },
    {
      "x": 282,
      "y": 359,
      "size": 1,
      "price": "4683000000000000000000",
      "reserved": "",
      "salt": "0x205827f5d2dc06609bdb6ef07dac10d3ce97f6ec719fe6834cfc5372af635a83",
      "assetIds": [
        "41506478881403507969696680653240014914910929820314476107906210059990541021186"
      ]
    },
    {
      "x": 282,
      "y": 384,
      "size": 1,
      "price": "4683000000000000000000",
      "reserved": "",
      "salt": "0x943674c1a0f2771c52d46d31421dbd33e48f4ada8129155fdb4d162406e79307",
      "assetIds": [
        "41506478881403507969696680653240014914910929820314476107906210059990541021186"
      ]
    },
    {
      "x": 282,
      "y": 385,
      "size": 1,
      "price": "1011000000000000000000",
      "reserved": "",
      "salt": "0x24e4ff60d5765875707d3bb3ecc322698d17437e23e6c44778ec402f84499ec2",
      "assetIds": []
    },
    {
      "x": 282,
      "y": 386,
      "size": 1,
      "price": "1011000000000000000000",
      "reserved": "0x7a9fe22691c811ea339d9b73150e6911a5343dca",
      "salt": "0xd9a8148ccce2f4d9af2fc9ac8fcfc059d2f05930d5499d7cab859bc870ebfc3e",
      "assetIds": []
    },
    {
      "x": 283,
      "y": 336,
      "size": 1,
      "price": "1011000000000000000000",
      "reserved": "",
      "salt": "0x07175260bd9169a18707cf405d8e10bd4b0e6a26842a6a85e500b7851f8c3632",
      "assetIds": []
    },
    {
      "x": 283,
      "y": 337,
      "size": 1,
      "price": "1011000000000000000000",
      "reserved": "",
      "salt": "0xea3368693eba3e326537bf23605bad4d80147f0fb00998f8716e5c0f9f525817",
      "assetIds": []
    },
    {
      "x": 283,
      "y": 338,
      "size": 1,
      "price": "1011000000000000000000",
      "reserved": "0x7a9fe22691c811ea339d9b73150e6911a5343dca",
      "salt": "0xc786c77fe0b70717d82911735585ca450f9b3579ea823359b8fbf0e9f2e369ee",
      "assetIds": []
    },
    {
      "x": 283,
      "y": 339,
      "size": 1,
      "price": "1011000000000000000000",
      "reserved": "0x7a9fe22691c811ea339d9b73150e6911a5343dca",
      "salt": "0x352487c8f43cff951aba15428104599c4ace257e96872a8b99f10139c6d28149",
      "assetIds": []
    },
    {
      "x": 283,
      "y": 340,
      "size": 1,
      "price": "1011000000000000000000",
      "reserved": "",
      "salt": "0xe16189ad953d4d3f8e50730a6fdf1111818d0b9d32137d3786bebbd3e06e592c",
      "assetIds": []
    },
    {
      "x": 283,
      "y": 341,
      "size": 1,
      "price": "1011000000000000000000",
      "reserved": "0x7a9fe22691c811ea339d9b73150e6911a5343dca",
      "salt": "0x0bf4a1002c2c6662e53b39b8b46eea4f537aeb6b755db61d5a5e5ea9e8409bc3",
      "assetIds": []
    },
    {
      "x": 283,
      "y": 342,
      "size": 1,
      "price": "1011000000000000000000",
      "reserved": "",
      "salt": "0xbcfe323e0a04fbe5d6c6a543ff03c62ebb23f8db43d211967cc3cf5f054afcbe",
      "assetIds": []
    },
    {
      "x": 283,
      "y": 343,
      "size": 1,
      "price": "1011000000000000000000",
      "reserved": "",
      "salt": "0xae8f18e230e7d42402ff7540b34a494939dbbd2947848fba392184f936afd9a9",
      "assetIds": []
    },
    {
      "x": 283,
      "y": 344,
      "size": 1,
      "price": "1011000000000000000000",
      "reserved": "",
      "salt": "0x63e1d3abb4b5b7f01c9d9284c8a5d6ca3b32d32ce75edb9c2ea99744085f8eec",
      "assetIds": []
    },
    {
      "x": 283,
      "y": 345,
      "size": 1,
      "price": "1011000000000000000000",
      "reserved": "",
      "salt": "0x49314f1e9ad1d24ee1b7d842c59fada82a510f536c892a0a717bccf3478b2b42",
      "assetIds": []
    },
    {
      "x": 283,
      "y": 346,
      "size": 1,
      "price": "1011000000000000000000",
      "reserved": "",
      "salt": "0xefd2349ee972ee13d22e526eac88dc745681a23cad0c3f8fb986de51b6633a6d",
      "assetIds": []
    },
    {
      "x": 283,
      "y": 347,
      "size": 1,
      "price": "1011000000000000000000",
      "reserved": "",
      "salt": "0x0dd82d89673d72fc32c32acc8f91653940e9a83ad60cf61141e4b77b011a0b19",
      "assetIds": []
    },
    {
      "x": 283,
      "y": 354,
      "size": 1,
      "price": "1011000000000000000000",
      "reserved": "0x7a9fe22691c811ea339d9b73150e6911a5343dca",
      "salt": "0x3a0dc592ed0b967e956a5d4b16bb55662c9fe3b404c2efffd94362ec5b68219c",
      "assetIds": []
    },
    {
      "x": 283,
      "y": 355,
      "size": 1,
      "price": "1011000000000000000000",
      "reserved": "0x7a9fe22691c811ea339d9b73150e6911a5343dca",
      "salt": "0x59907c8ed1e1e6d3c1a2ddbdf464171bf31665aac4feee43a1f109d4ff7b8d22",
      "assetIds": []
    },
    {
      "x": 283,
      "y": 356,
      "size": 1,
      "price": "1011000000000000000000",
      "reserved": "",
      "salt": "0x6c38edfd418a0b7f122925127a74f8d889e761ff53c0aeb268773359eee81005",
      "assetIds": []
    },
    {
      "x": 283,
      "y": 357,
      "size": 1,
      "price": "1011000000000000000000",
      "reserved": "",
      "salt": "0xa0d317286ba8aba100dba194a0d1c15012690b07e29b692c4f591028fa67aa0e",
      "assetIds": []
    },
    {
      "x": 283,
      "y": 358,
      "size": 1,
      "price": "1011000000000000000000",
      "reserved": "",
      "salt": "0xd7cde38d0c041fd40847f5e66ef4164c220a40718ceda1ddc25b4be071e9b4b8",
      "assetIds": []
    },
    {
      "x": 283,
      "y": 359,
      "size": 1,
      "price": "4683000000000000000000",
      "reserved": "",
      "salt": "0xd9791f1d306974e9585c5573688e69c2c6b060637ad9ed2850e7abb6e781bb93",
      "assetIds": [
        "41506478881403507969696680653240014914910929820314476107906210059990541021186"
      ]
    },
    {
      "x": 283,
      "y": 384,
      "size": 1,
      "price": "4683000000000000000000",
      "reserved": "",
      "salt": "0xa8a3ac1297307d319186588d63384fa32ebff5a15b0b35b16d15fda25c163d59",
      "assetIds": [
        "41506478881403507969696680653240014914910929820314476107906210059990541021186"
      ]
    },
    {
      "x": 283,
      "y": 385,
      "size": 1,
      "price": "1011000000000000000000",
      "reserved": "",
      "salt": "0x9d7a8dedc43a6b25175575328de29e21d21f8de985344446826c9d406cef9515",
      "assetIds": []
    },
    {
      "x": 283,
      "y": 386,
      "size": 1,
      "price": "1011000000000000000000",
      "reserved": "0x7a9fe22691c811ea339d9b73150e6911a5343dca",
      "salt": "0x3aa22b72c5975b4a3934a83da0a51365eb93686df2abeb7bd62bc8cb8ad0ca50",
      "assetIds": []
    },
    {
      "x": 284,
      "y": 336,
      "size": 1,
      "price": "1011000000000000000000",
      "reserved": "",
      "salt": "0xa7a3be5934d90e6b2c03ece07363e8daaf67c453466ed9153dd01ee35f59a3e5",
      "assetIds": []
    },
    {
      "x": 284,
      "y": 337,
      "size": 1,
      "price": "1011000000000000000000",
      "reserved": "",
      "salt": "0x2f80f4b947f945c169df0e61e413096d39af060bdd1c88c3e45740205ea6bc8b",
      "assetIds": []
    },
    {
      "x": 284,
      "y": 338,
      "size": 1,
      "price": "1011000000000000000000",
      "reserved": "",
      "salt": "0x3dfcbb26fe17a1cf697a7126b5d055e52c303d9808566adc8eaf41093c02e50d",
      "assetIds": []
    },
    {
      "x": 284,
      "y": 339,
      "size": 1,
      "price": "1011000000000000000000",
      "reserved": "",
      "salt": "0x97d12e4a5ad3c7e2a4935dfd82b810e731eba47be1509d07ac24f7c916ae5720",
      "assetIds": []
    },
    {
      "x": 284,
      "y": 340,
      "size": 1,
      "price": "1011000000000000000000",
      "reserved": "",
      "salt": "0x8a8d9e9b036a55c2cd066d349d0d01950816a33ff33a24561d4b367730056df0",
      "assetIds": []
    },
    {
      "x": 284,
      "y": 341,
      "size": 1,
      "price": "1011000000000000000000",
      "reserved": "",
      "salt": "0xe3d20911c4d78ff8a2bf296e1262a621fa8cd128d8209068bb509bbed003bcbe",
      "assetIds": []
    },
    {
      "x": 284,
      "y": 342,
      "size": 1,
      "price": "1011000000000000000000",
      "reserved": "",
      "salt": "0xf14c7065a7624242fb54effc4e2ff51bf3c1610bc94e4e944f69bf7d3cdd43c3",
      "assetIds": []
    },
    {
      "x": 284,
      "y": 343,
      "size": 1,
      "price": "1011000000000000000000",
      "reserved": "",
      "salt": "0xb0ee940f030dc0ae421b31a1ecd103f486c8f4f133ea0b546f07c8b474ba3682",
      "assetIds": []
    },
    {
      "x": 284,
      "y": 344,
      "size": 1,
      "price": "1011000000000000000000",
      "reserved": "",
      "salt": "0xa7f8ed9e0a832e606fda0297201f277e50eb90ec3c2e08d8e617727ab5e8a15b",
      "assetIds": []
    },
    {
      "x": 284,
      "y": 345,
      "size": 1,
      "price": "1011000000000000000000",
      "reserved": "",
      "salt": "0x2f1108361b19ab50c7fbee98414deb19c59cc99240eeebe0ba7483f5dee57c12",
      "assetIds": []
    },
    {
      "x": 284,
      "y": 346,
      "size": 1,
      "price": "1011000000000000000000",
      "reserved": "",
      "salt": "0x7e98be936c3a697a9ffb0c960203d4ff10fc903f2b2a33d38efa6a24226b519a",
      "assetIds": []
    },
    {
      "x": 284,
      "y": 347,
      "size": 1,
      "price": "1011000000000000000000",
      "reserved": "",
      "salt": "0xc4607a5e200028e7ffe119523268905ea689e0c6c2bca1055e2825306fb989cc",
      "assetIds": []
    },
    {
      "x": 284,
      "y": 354,
      "size": 1,
      "price": "1011000000000000000000",
      "reserved": "",
      "salt": "0x9b54162ba3ef48924b263d0ffc0cef7269ef7e7456c82ab2772765bf5ebecdf0",
      "assetIds": []
    },
    {
      "x": 284,
      "y": 355,
      "size": 1,
      "price": "1011000000000000000000",
      "reserved": "",
      "salt": "0xca6891dd14b13026f99a4fb260caebb8afe31568be9887aa58add8865c7c4486",
      "assetIds": []
    },
    {
      "x": 284,
      "y": 356,
      "size": 1,
      "price": "1011000000000000000000",
      "reserved": "",
      "salt": "0x0811e16ef681937a9708f9567974ef1c5f0f0b6fa62da4bdb392b6a03d331ad6",
      "assetIds": []
    },
    {
      "x": 284,
      "y": 357,
      "size": 1,
      "price": "1011000000000000000000",
      "reserved": "",
      "salt": "0xd538f592a06c15c2b1b755b4d42609ee2783edb01f0122338656014e6b62c3b1",
      "assetIds": []
    },
    {
      "x": 284,
      "y": 358,
      "size": 1,
      "price": "1011000000000000000000",
      "reserved": "",
      "salt": "0x85bfec7d168145f59cc5e4416faf4f2986ffbe65b844d2c67d6180633cf1a7ee",
      "assetIds": []
    },
    {
      "x": 284,
      "y": 359,
      "size": 1,
      "price": "4683000000000000000000",
      "reserved": "",
      "salt": "0x68ef7aa7d2c7c18b6d9585230b8d50efd1b62fcb2e3b7d7924c32b2fc89f856b",
      "assetIds": [
        "41506478881403507969696680653240014914910929820314476107906210059990541021186"
      ]
    },
    {
      "x": 284,
      "y": 384,
      "size": 1,
      "price": "4683000000000000000000",
      "reserved": "",
      "salt": "0xe9b3857e9368db31e66d41eb73a46fdc7be49b1393248236c6e384fe94bbaf01",
      "assetIds": [
        "41506478881403507969696680653240014914910929820314476107906210059990541021186"
      ]
    },
    {
      "x": 284,
      "y": 385,
      "size": 1,
      "price": "1011000000000000000000",
      "reserved": "",
      "salt": "0x62eefa5ef228fe58c0b34246410eb7b67a937469c69b87ba2ed5e61affe39f3f",
      "assetIds": []
    },
    {
      "x": 284,
      "y": 386,
      "size": 1,
      "price": "1011000000000000000000",
      "reserved": "0x7a9fe22691c811ea339d9b73150e6911a5343dca",
      "salt": "0x31a1ab5ccfaeef666b3814c3483a6e715262b98891aa131a70b9405c70fe5048",
      "assetIds": []
    },
    {
      "x": 285,
      "y": 336,
      "size": 1,
      "price": "1011000000000000000000",
      "reserved": "",
      "salt": "0x8a0aa97929711deecfef0470e26980733c0224b523a4790965991445adbee64c",
      "assetIds": []
    },
    {
      "x": 285,
      "y": 337,
      "size": 1,
      "price": "1011000000000000000000",
      "reserved": "",
      "salt": "0x36cc0a48fdae47b61d92cb7f5acfcfc1b088bd7611cddc31e99ae3658d016889",
      "assetIds": []
    },
    {
      "x": 285,
      "y": 338,
      "size": 1,
      "price": "1011000000000000000000",
      "reserved": "",
      "salt": "0x1181df253d311fa89f748ae53032ed0f4130e0d91829084859eefb0e73d8208d",
      "assetIds": []
    },
    {
      "x": 285,
      "y": 339,
      "size": 1,
      "price": "1011000000000000000000",
      "reserved": "",
      "salt": "0x7f7ed818b300b1dbea74e495d2de23fe19167ded9563128e790bf96a0c154b22",
      "assetIds": []
    },
    {
      "x": 285,
      "y": 340,
      "size": 1,
      "price": "1011000000000000000000",
      "reserved": "",
      "salt": "0x4ff592e8edee2631b540a7029b2801abe92483c09db7602c90015322e61d5719",
      "assetIds": []
    },
    {
      "x": 285,
      "y": 341,
      "size": 1,
      "price": "1011000000000000000000",
      "reserved": "",
      "salt": "0xfb13ee84d842de2e638a8cf34f768091c260efaaa3457370aa17c5a541ff39b4",
      "assetIds": []
    },
    {
      "x": 285,
      "y": 342,
      "size": 1,
      "price": "1011000000000000000000",
      "reserved": "",
      "salt": "0x78c57f4b0a837d6d4df499b2f00dfebea8faf6f109c38204654cc06e47fef5ba",
      "assetIds": []
    },
    {
      "x": 285,
      "y": 343,
      "size": 1,
      "price": "1011000000000000000000",
      "reserved": "",
      "salt": "0x17234ead3b04cfa80074b8c91241c3568387970ea5cb1ae5df4b33f20a3a4d3c",
      "assetIds": []
    },
    {
      "x": 285,
      "y": 344,
      "size": 1,
      "price": "1011000000000000000000",
      "reserved": "",
      "salt": "0xd4e611bb5946756ad4ba4ddfa745c2f43ed6b42ae41469fd9711acaa855cd43d",
      "assetIds": []
    },
    {
      "x": 285,
      "y": 354,
      "size": 1,
      "price": "1011000000000000000000",
      "reserved": "0x7a9fe22691c811ea339d9b73150e6911a5343dca",
      "salt": "0xabd7773d0b37bb5bce535f6efc680bd26808a67d18b6cdf6c29de79a311e4bc5",
      "assetIds": []
    },
    {
      "x": 285,
      "y": 355,
      "size": 1,
      "price": "1011000000000000000000",
      "reserved": "",
      "salt": "0xf70cfa76af738c12a3d2f03109caf8202bd64b03600eb82395f63c1a1cc35ccc",
      "assetIds": []
    },
    {
      "x": 285,
      "y": 356,
      "size": 1,
      "price": "1011000000000000000000",
      "reserved": "",
      "salt": "0x4d6d94ed5d9c865d6c7498ac4b7ba94c5680bc2a927fff9249e116ebea97b2cb",
      "assetIds": []
    },
    {
      "x": 285,
      "y": 357,
      "size": 1,
      "price": "1011000000000000000000",
      "reserved": "",
      "salt": "0xc2259c89d9f69a9fe24b9dd2d23081c17a405f0f08f5d5dbbdf9f9d3252895dd",
      "assetIds": []
    },
    {
      "x": 285,
      "y": 358,
      "size": 1,
      "price": "1011000000000000000000",
      "reserved": "",
      "salt": "0x04250ddc21b33f3ccee8ac8bd4badc379b587480faa9f3699f4de65fc807f17c",
      "assetIds": []
    },
    {
      "x": 285,
      "y": 359,
      "size": 1,
      "price": "4683000000000000000000",
      "reserved": "",
      "salt": "0x955e0fb9c0efea558a30d8c19f8f2cdd8364c3afc2f7aa59330b76f300ac9132",
      "assetIds": [
        "41506478881403507969696680653240014914910929820314476107906210059990541021186"
      ]
    },
    {
      "x": 285,
      "y": 384,
      "size": 1,
      "price": "4683000000000000000000",
      "reserved": "",
      "salt": "0x02a8d01b59c2f10a909872112e6bfe81f7582d9f7ba3389a816d0be94d8b3f8b",
      "assetIds": [
        "41506478881403507969696680653240014914910929820314476107906210059990541021186"
      ]
    },
    {
      "x": 285,
      "y": 385,
      "size": 1,
      "price": "1011000000000000000000",
      "reserved": "",
      "salt": "0x5eda579646f36ff1e711f9559a9e229a8b53a6317d92015c37610420a6a8cabd",
      "assetIds": []
    },
    {
      "x": 286,
      "y": 336,
      "size": 1,
      "price": "1011000000000000000000",
      "reserved": "0x7a9fe22691c811ea339d9b73150e6911a5343dca",
      "salt": "0x90e56ba800dabfe8a75eec213e51b5fdddd907705cd1e8cc5a2786f5bb50f947",
      "assetIds": []
    },
    {
      "x": 286,
      "y": 337,
      "size": 1,
      "price": "1011000000000000000000",
      "reserved": "",
      "salt": "0xdf24aebd65b42b37d2436f34ecccd000c9735c7d9e5baf30bbaac00a467df9c4",
      "assetIds": []
    },
    {
      "x": 286,
      "y": 338,
      "size": 1,
      "price": "1011000000000000000000",
      "reserved": "",
      "salt": "0xa1be33cf8b666fd5ecf991e707ca845322d7b2a2394019d7022ed3a40234a3b2",
      "assetIds": []
    },
    {
      "x": 286,
      "y": 339,
      "size": 1,
      "price": "1011000000000000000000",
      "reserved": "",
      "salt": "0x9c75a0ccde62833f56b7921e1c01137fed6c0c3b5617e7a110d8abf108d7858c",
      "assetIds": []
    },
    {
      "x": 286,
      "y": 340,
      "size": 1,
      "price": "1011000000000000000000",
      "reserved": "",
      "salt": "0xaeb74f9ec37d47e77354046b5ec34c95e2895eb821601e018b29e1ade38d7e75",
      "assetIds": []
    },
    {
      "x": 286,
      "y": 341,
      "size": 1,
      "price": "1011000000000000000000",
      "reserved": "",
      "salt": "0x57de2d887a8ac3b5acca33f8026f45427ae29b184cff38de2ed6b46d99df7a7d",
      "assetIds": []
    },
    {
      "x": 286,
      "y": 342,
      "size": 1,
      "price": "1011000000000000000000",
      "reserved": "",
      "salt": "0xea62c3974f3d7ac5889d51e4425dd4eae2432bdd69235eff562289147b39a305",
      "assetIds": []
    },
    {
      "x": 286,
      "y": 343,
      "size": 1,
      "price": "1011000000000000000000",
      "reserved": "",
      "salt": "0x075dd0ef039b7361f0616d14d6e15cc6e7d7c92651f1d3162d7e287d5f765acd",
      "assetIds": []
    },
    {
      "x": 286,
      "y": 344,
      "size": 1,
      "price": "1011000000000000000000",
      "reserved": "",
      "salt": "0xae72431a028a11879c32093cecf90c941745b8247478b7a9ed3721aab7e8096e",
      "assetIds": []
    },
    {
      "x": 286,
      "y": 354,
      "size": 1,
      "price": "1011000000000000000000",
      "reserved": "0x7a9fe22691c811ea339d9b73150e6911a5343dca",
      "salt": "0x8234c39f612f376a15a7825fb7c347ae8701c96d335b9f25841657968cd627f9",
      "assetIds": []
    },
    {
      "x": 286,
      "y": 355,
      "size": 1,
      "price": "1011000000000000000000",
      "reserved": "",
      "salt": "0x1fde0ca8273d970dc98e16dfe99e427e48923e31ca66b91fb720054519b0c2df",
      "assetIds": []
    },
    {
      "x": 286,
      "y": 356,
      "size": 1,
      "price": "1011000000000000000000",
      "reserved": "",
      "salt": "0x7097c9b255231a7ff467a025dc35e44b5fbbc77ab58dc8abf9f167a694e915f2",
      "assetIds": []
    },
    {
      "x": 286,
      "y": 357,
      "size": 1,
      "price": "1011000000000000000000",
      "reserved": "0x7a9fe22691c811ea339d9b73150e6911a5343dca",
      "salt": "0x761dfc6e0e989fd13de03b3b75f0c7bacc2fc7a1d07071dd430d9dc7b0f596e9",
      "assetIds": []
    },
    {
      "x": 286,
      "y": 358,
      "size": 1,
      "price": "4683000000000000000000",
      "reserved": "",
      "salt": "0x8764fdacc6e7a350153be156fbcbf7eb4d24e35f73be75acb97b29e2adee41b3",
      "assetIds": [
        "41506478881403507969696680653240014914910929820314476107906210059990541021186"
      ]
    },
    {
      "x": 286,
      "y": 359,
      "size": 1,
      "price": "4683000000000000000000",
      "reserved": "",
      "salt": "0x764449243a945cbc549624445485ea6cfb1a770bb8c69e88a300ca8f0ae5f102",
      "assetIds": [
        "41506478881403507969696680653240014914910929820314476107906210059990541021186"
      ]
    },
    {
      "x": 286,
      "y": 384,
      "size": 1,
      "price": "4683000000000000000000",
      "reserved": "",
      "salt": "0xdb8fc383cb94303af05a93b6c2975a3dcaa08be4baa32c6a00d359cd99c2e5af",
      "assetIds": [
        "41506478881403507969696680653240014914910929820314476107906210059990541021186"
      ]
    },
    {
      "x": 286,
      "y": 385,
      "size": 1,
      "price": "1011000000000000000000",
      "reserved": "",
      "salt": "0xa9e402deb8f1267873c303de0c95b4ac81b3ebf7c465061f24dcc07c112aee5c",
      "assetIds": []
    },
    {
      "x": 287,
      "y": 336,
      "size": 1,
      "price": "1011000000000000000000",
      "reserved": "0x7a9fe22691c811ea339d9b73150e6911a5343dca",
      "salt": "0x44f3c70fbaa2ef36105b2fe3feaae4edc27d39f9f05dc5577027f711d0c7704a",
      "assetIds": []
    },
    {
      "x": 287,
      "y": 337,
      "size": 1,
      "price": "1011000000000000000000",
      "reserved": "0x7a9fe22691c811ea339d9b73150e6911a5343dca",
      "salt": "0x7dc506b37d357e8347fd3c3571088943c98c35f19af3cf14a3f6b76524991ee7",
      "assetIds": []
    },
    {
      "x": 287,
      "y": 338,
      "size": 1,
      "price": "1011000000000000000000",
      "reserved": "",
      "salt": "0x704949991a64514c5b7e54eb96028b187c0c7fec9c50c452ea75701143924076",
      "assetIds": []
    },
    {
      "x": 287,
      "y": 339,
      "size": 1,
      "price": "1011000000000000000000",
      "reserved": "",
      "salt": "0x1562aaccd7396b43115a6ed9bdc73c66e7a786f4f15ca9919398ccfdad108f52",
      "assetIds": []
    },
    {
      "x": 287,
      "y": 340,
      "size": 1,
      "price": "1011000000000000000000",
      "reserved": "",
      "salt": "0xf8f56998731ad4ede4353dbcf8e4aea735378825daa5ea3ca59143dc6ef4b5b2",
      "assetIds": []
    },
    {
      "x": 287,
      "y": 341,
      "size": 1,
      "price": "1011000000000000000000",
      "reserved": "0x7a9fe22691c811ea339d9b73150e6911a5343dca",
      "salt": "0x32b04b1d287552bdf97f5e395ddf04aca3e6b3fc66b41d50a4384f0a1a73f233",
      "assetIds": []
    },
    {
      "x": 287,
      "y": 342,
      "size": 1,
      "price": "1011000000000000000000",
      "reserved": "",
      "salt": "0x0d7d5c3c8b42765d6516facfb01728a95f0fd9cc748c61e25d9806912638cd0c",
      "assetIds": []
    },
    {
      "x": 287,
      "y": 343,
      "size": 1,
      "price": "1011000000000000000000",
      "reserved": "",
      "salt": "0xd01f1925a6bd6f5e2b36115fe6f887bd5336d116f47c457fab437494bae8478b",
      "assetIds": []
    },
    {
      "x": 287,
      "y": 344,
      "size": 1,
      "price": "1011000000000000000000",
      "reserved": "",
      "salt": "0xc7467af0cc3849e753138ead7910287123be8b0acead9d7bc767e834f80c9b24",
      "assetIds": []
    },
    {
      "x": 287,
      "y": 354,
      "size": 1,
      "price": "1011000000000000000000",
      "reserved": "",
      "salt": "0x5386d3fc882ef2a7823426dd9d6269c527a2f25d4b351b39889b91f43496136d",
      "assetIds": []
    },
    {
      "x": 287,
      "y": 355,
      "size": 1,
      "price": "1011000000000000000000",
      "reserved": "0x7a9fe22691c811ea339d9b73150e6911a5343dca",
      "salt": "0x83fe9722a4ad23e42233e48f23b12de8b0c21113d5bced7b1ce3aa982b91a51d",
      "assetIds": []
    },
    {
      "x": 287,
      "y": 356,
      "size": 1,
      "price": "1011000000000000000000",
      "reserved": "",
      "salt": "0xb22e7cf5ad4d75b5bd3a70cebc48482fa137fde8713802b0704f7ffe23a8b469",
      "assetIds": []
    },
    {
      "x": 287,
      "y": 357,
      "size": 1,
      "price": "1011000000000000000000",
      "reserved": "",
      "salt": "0xe9ca01b257576433a8c6db555537ff0fb8c50d850044afa3a98834e363bf979d",
      "assetIds": []
    },
    {
      "x": 287,
      "y": 358,
      "size": 1,
      "price": "4683000000000000000000",
      "reserved": "",
      "salt": "0x2f5691f1c16551e83d4029c3f9b7ecd9735d641a538d7e906ce9183f7f97b564",
      "assetIds": [
        "41506478881403507969696680653240014914910929820314476107906210059990541021186"
      ]
    },
    {
      "x": 287,
      "y": 359,
      "size": 1,
      "price": "4683000000000000000000",
      "reserved": "",
      "salt": "0x2be783d35fc6ecd0e570c7b335ac81d065be2dde2b1c135e6df6e1a075d55c15",
      "assetIds": [
        "41506478881403507969696680653240014914910929820314476107906210059990541021186"
      ]
    },
    {
      "x": 287,
      "y": 384,
      "size": 1,
      "price": "4683000000000000000000",
      "reserved": "",
      "salt": "0xd4fbb2316a601ef19e4e2f57869ddb2de5307477774a18acc1d1c0ca0d48d785",
      "assetIds": [
        "41506478881403507969696680653240014914910929820314476107906210059990541021186"
      ]
    },
    {
      "x": 287,
      "y": 385,
      "size": 1,
      "price": "1011000000000000000000",
      "reserved": "",
      "salt": "0x5ce618bdb4bc9d04e5b6a3a18668145e2e5839b29dbbcba846d87df27f0f418b",
      "assetIds": []
    },
    {
      "x": 288,
      "y": 360,
      "size": 1,
      "price": "4683000000000000000000",
      "reserved": "",
      "salt": "0x8620157d1fc97cc1d001afec48e2494bc74b137ce78de0eb6dd0ac9e1fc17987",
      "assetIds": [
        "41506478881403507969696680653240014914910929820314476107906210059990541021186"
      ]
    },
    {
      "x": 288,
      "y": 361,
      "size": 1,
      "price": "4683000000000000000000",
      "reserved": "",
      "salt": "0x7355d3e74aebd3a2d7b881f89cd938e7224a8f8a08f8f8dca4154b60aaf6d796",
      "assetIds": [
        "41506478881403507969696680653240014914910929820314476107906210059990541021186"
      ]
    },
    {
      "x": 288,
      "y": 362,
      "size": 1,
      "price": "4683000000000000000000",
      "reserved": "",
      "salt": "0x66d2518ea33303191c80eca18771162f5a9f4553ee609ddd47681bdfa50dff4d",
      "assetIds": [
        "41506478881403507969696680653240014914910929820314476107906210059990541021186"
      ]
    },
    {
      "x": 288,
      "y": 363,
      "size": 1,
      "price": "4683000000000000000000",
      "reserved": "",
      "salt": "0x7a4048f98b4404beb5276617f9f4ecd20ef3ccb85e4d43adcbf9ae61a56ea102",
      "assetIds": [
        "41506478881403507969696680653240014914910929820314476107906210059990541021186"
      ]
    },
    {
      "x": 288,
      "y": 364,
      "size": 1,
      "price": "4683000000000000000000",
      "reserved": "",
      "salt": "0x05cca71329f789c4859c0213908315e311c140b8f2c09b35450e38b33789f794",
      "assetIds": [
        "41506478881403507969696680653240014914910929820314476107906210059990541021186"
      ]
    },
    {
      "x": 288,
      "y": 365,
      "size": 1,
      "price": "4683000000000000000000",
      "reserved": "",
      "salt": "0xe430ca599d0a65ec60e338a92eae009b2df8d88b2fff8a3adeac3265637e1a9a",
      "assetIds": [
        "41506478881403507969696680653240014914910929820314476107906210059990541021186"
      ]
    },
    {
      "x": 288,
      "y": 366,
      "size": 1,
      "price": "4683000000000000000000",
      "reserved": "",
      "salt": "0x370c41dd87b9f7c3cdcb5f7a1938d6326b09b141430a4b895e5218b2b58e90a0",
      "assetIds": [
        "41506478881403507969696680653240014914910929820314476107906210059990541021186"
      ]
    },
    {
      "x": 288,
      "y": 367,
      "size": 1,
      "price": "4683000000000000000000",
      "reserved": "",
      "salt": "0xb905ffd3a632317e03a3e7c1dad3c1c9a9f0aadaa479fa998b61eea3d03786c6",
      "assetIds": [
        "41506478881403507969696680653240014914910929820314476107906210059990541021186"
      ]
    },
    {
      "x": 288,
      "y": 368,
      "size": 1,
      "price": "4683000000000000000000",
      "reserved": "",
      "salt": "0x0a066d2f054d3785d10b761db41beb42dbbd84219e798f6d6709ea3d9e4aec2b",
      "assetIds": [
        "41506478881403507969696680653240014914910929820314476107906210059990541021186"
      ]
    },
    {
      "x": 288,
      "y": 369,
      "size": 1,
      "price": "4683000000000000000000",
      "reserved": "",
      "salt": "0x32e2d799de77ad7f0265243c6d7b0240a7a751558c18c7e8dd3047a8b0179a28",
      "assetIds": [
        "41506478881403507969696680653240014914910929820314476107906210059990541021186"
      ]
    },
    {
      "x": 288,
      "y": 370,
      "size": 1,
      "price": "4683000000000000000000",
      "reserved": "",
      "salt": "0xb7acc4c09a7fca4598492cc4c9c9113f402ee7ee4791bbcd5cea1b7dd6c279cf",
      "assetIds": [
        "41506478881403507969696680653240014914910929820314476107906210059990541021186"
      ]
    },
    {
      "x": 288,
      "y": 371,
      "size": 1,
      "price": "4683000000000000000000",
      "reserved": "",
      "salt": "0xa96a0ad20474d6b5a1099512b7275f9565649aeb4852e56e46b4202177e9789d",
      "assetIds": [
        "41506478881403507969696680653240014914910929820314476107906210059990541021186"
      ]
    },
    {
      "x": 288,
      "y": 372,
      "size": 1,
      "price": "4683000000000000000000",
      "reserved": "",
      "salt": "0x3ca33cb00cfcffdf1b979def0c3d0c23ba0223c3bf966f380f564c27f14568bb",
      "assetIds": [
        "41506478881403507969696680653240014914910929820314476107906210059990541021186"
      ]
    },
    {
      "x": 288,
      "y": 373,
      "size": 1,
      "price": "4683000000000000000000",
      "reserved": "",
      "salt": "0x53b0cc3d58cf77abf9ae8381befb5f5e5fb52c8a46f6d58d3d86f2761edcf6cf",
      "assetIds": [
        "41506478881403507969696680653240014914910929820314476107906210059990541021186"
      ]
    },
    {
      "x": 288,
      "y": 374,
      "size": 1,
      "price": "4683000000000000000000",
      "reserved": "",
      "salt": "0x8b057a92c52fc6ae3b2e782044435b280a37ec30cac1ef8972167014df5831b0",
      "assetIds": [
        "41506478881403507969696680653240014914910929820314476107906210059990541021186"
      ]
    },
    {
      "x": 288,
      "y": 375,
      "size": 1,
      "price": "4683000000000000000000",
      "reserved": "",
      "salt": "0x1a5f13bfb350d62e348b3580947c71f1e3cb08cdf9a830ea513ce5623e036a56",
      "assetIds": [
        "41506478881403507969696680653240014914910929820314476107906210059990541021186"
      ]
    },
    {
      "x": 288,
      "y": 376,
      "size": 1,
      "price": "4683000000000000000000",
      "reserved": "",
      "salt": "0x0cb799510910d53e253fd3facd2e304dddba26ab6545d8e1469c626c6838f185",
      "assetIds": [
        "41506478881403507969696680653240014914910929820314476107906210059990541021186"
      ]
    },
    {
      "x": 288,
      "y": 377,
      "size": 1,
      "price": "4683000000000000000000",
      "reserved": "",
      "salt": "0x4c16ff907fd1c50a212b754b35fc9a0c491657cd47d3f2397479b7f986977875",
      "assetIds": [
        "41506478881403507969696680653240014914910929820314476107906210059990541021186"
      ]
    },
    {
      "x": 288,
      "y": 378,
      "size": 1,
      "price": "4683000000000000000000",
      "reserved": "",
      "salt": "0xa791c39bf42f3a86efa41b25f38096562cccdf906f6999306700bf9a541a9984",
      "assetIds": [
        "41506478881403507969696680653240014914910929820314476107906210059990541021186"
      ]
    },
    {
      "x": 288,
      "y": 379,
      "size": 1,
      "price": "4683000000000000000000",
      "reserved": "",
      "salt": "0xb07f1b61cca8d3d7c5783c8439f71845033acdb1dd983849b944200299075c63",
      "assetIds": [
        "41506478881403507969696680653240014914910929820314476107906210059990541021186"
      ]
    },
    {
      "x": 288,
      "y": 380,
      "size": 1,
      "price": "4683000000000000000000",
      "reserved": "",
      "salt": "0xf11bc1f9bf2a360b26a84264af1bf593c4bed4f8d9ddbbcd604f2a80dbf61941",
      "assetIds": [
        "41506478881403507969696680653240014914910929820314476107906210059990541021186"
      ]
    },
    {
      "x": 288,
      "y": 381,
      "size": 1,
      "price": "4683000000000000000000",
      "reserved": "",
      "salt": "0xe9cba9905a99266266234508fedd801ca62ee10ab2007a50ba899563e1312934",
      "assetIds": [
        "41506478881403507969696680653240014914910929820314476107906210059990541021186"
      ]
    },
    {
      "x": 288,
      "y": 382,
      "size": 1,
      "price": "4683000000000000000000",
      "reserved": "",
      "salt": "0xc366bfe6f53c48511fd3d48f20537d0abfb6fb3a818e4a7103eb2d3503fc0ab7",
      "assetIds": [
        "41506478881403507969696680653240014914910929820314476107906210059990541021186"
      ]
    },
    {
      "x": 288,
      "y": 383,
      "size": 1,
      "price": "4683000000000000000000",
      "reserved": "",
      "salt": "0x39ba0d0bd787b4003c34793370e1722261457e1ed3bef41386971bf04e4c407f",
      "assetIds": [
        "41506478881403507969696680653240014914910929820314476107906210059990541021186"
      ]
    },
    {
      "x": 289,
      "y": 360,
      "size": 1,
      "price": "1011000000000000000000",
      "reserved": "0x7a9fe22691c811ea339d9b73150e6911a5343dca",
      "salt": "0xe8b88a5028d523d38738afba17822b7b3bfc36b5f27f903dd46f07fd15a9b9c4",
      "assetIds": []
    },
    {
      "x": 289,
      "y": 361,
      "size": 1,
      "price": "1011000000000000000000",
      "reserved": "0x7a9fe22691c811ea339d9b73150e6911a5343dca",
      "salt": "0xe56530efe7e7765460842b26a789d77e21d2689d4b89344a289e416c69f8fcc5",
      "assetIds": []
    },
    {
      "x": 289,
      "y": 362,
      "size": 1,
      "price": "1011000000000000000000",
      "reserved": "",
      "salt": "0x74b8726166bb7b0d2977fda05c146de3d00a2d8f3728a780ecf0091cd1fc34d3",
      "assetIds": []
    },
    {
      "x": 289,
      "y": 363,
      "size": 1,
      "price": "4683000000000000000000",
      "reserved": "",
      "salt": "0x10159bd9cfc3e52f0b9c213f213b36610b6643023b73d1426ef3068df18c7097",
      "assetIds": [
        "41506478881403507969696680653240014914910929820314476107906210059990541021186"
      ]
    },
    {
      "x": 289,
      "y": 364,
      "size": 1,
      "price": "4683000000000000000000",
      "reserved": "",
      "salt": "0x2fa6626afb27b44d75726b5e1c38c6647d24f1957a5ec32a54e8f565b113c40a",
      "assetIds": [
        "41506478881403507969696680653240014914910929820314476107906210059990541021186"
      ]
    },
    {
      "x": 289,
      "y": 365,
      "size": 1,
      "price": "4683000000000000000000",
      "reserved": "",
      "salt": "0x48959ddb52696530e00e79fd1c8d3ac86c5a4acee3b5d2cbd9f4b167959f6ae8",
      "assetIds": [
        "41506478881403507969696680653240014914910929820314476107906210059990541021186"
      ]
    },
    {
      "x": 289,
      "y": 366,
      "size": 1,
      "price": "4683000000000000000000",
      "reserved": "",
      "salt": "0xd9871c07a3b6d912fb7b68b0f610855b3b160b801485977138f19a1752e3b61b",
      "assetIds": [
        "41506478881403507969696680653240014914910929820314476107906210059990541021186"
      ]
    },
    {
      "x": 289,
      "y": 367,
      "size": 1,
      "price": "4683000000000000000000",
      "reserved": "",
      "salt": "0xa3567a14f2bda5313c8b6cd5a97f1e88b7fe007b18543ab58fe340df3dbbd91d",
      "assetIds": [
        "41506478881403507969696680653240014914910929820314476107906210059990541021186"
      ]
    },
    {
      "x": 289,
      "y": 368,
      "size": 1,
      "price": "4683000000000000000000",
      "reserved": "",
      "salt": "0x61fa1d5b2aea0ae1f437ff23ecf86352a10437b1c4bdbfc825909a6a01ab2838",
      "assetIds": [
        "41506478881403507969696680653240014914910929820314476107906210059990541021186"
      ]
    },
    {
      "x": 289,
      "y": 369,
      "size": 1,
      "price": "1011000000000000000000",
      "reserved": "",
      "salt": "0x1e1269d1ba879ed85f02a26ab93e277a3a0673a46f1af123b2629b8c7d918170",
      "assetIds": []
    },
    {
      "x": 289,
      "y": 370,
      "size": 1,
      "price": "1011000000000000000000",
      "reserved": "",
      "salt": "0x7ec9e77dcddf1d24df312a3c1cc58976fc242a4e5f69ab52c213da12c638696b",
      "assetIds": []
    },
    {
      "x": 289,
      "y": 371,
      "size": 1,
      "price": "1011000000000000000000",
      "reserved": "0x7a9fe22691c811ea339d9b73150e6911a5343dca",
      "salt": "0x3c33c06d93be0bca564c4ba2b18c62962d88e8f93c9611a0896ea9fb46a7bb06",
      "assetIds": []
    },
    {
      "x": 289,
      "y": 372,
      "size": 1,
      "price": "4683000000000000000000",
      "reserved": "",
      "salt": "0x4add1a54ae9e0eb82aad4418c4d5fbf34d527d7ea7a668d82f769e9a52b6f915",
      "assetIds": [
        "41506478881403507969696680653240014914910929820314476107906210059990541021186"
      ]
    },
    {
      "x": 289,
      "y": 373,
      "size": 1,
      "price": "4683000000000000000000",
      "reserved": "",
      "salt": "0x9073d80b7a181f2ae02f4d20bb60a77d69e94e444695d4848570d1c29b1b207b",
      "assetIds": [
        "41506478881403507969696680653240014914910929820314476107906210059990541021186"
      ]
    },
    {
      "x": 289,
      "y": 374,
      "size": 1,
      "price": "4683000000000000000000",
      "reserved": "",
      "salt": "0x54925eb1bb3fee4d14906383a17c24c1d021033832d7976318aab54eaf2be903",
      "assetIds": [
        "41506478881403507969696680653240014914910929820314476107906210059990541021186"
      ]
    },
    {
      "x": 289,
      "y": 375,
      "size": 1,
      "price": "4683000000000000000000",
      "reserved": "",
      "salt": "0xcebfb9a2fb5cfde047c78523ede0a6aebb9d110e3856f29e1dfb86291a652ac8",
      "assetIds": [
        "41506478881403507969696680653240014914910929820314476107906210059990541021186"
      ]
    },
    {
      "x": 289,
      "y": 376,
      "size": 1,
      "price": "1011000000000000000000",
      "reserved": "0x7a9fe22691c811ea339d9b73150e6911a5343dca",
      "salt": "0x9f726c8b2c9c69ed4f5b8ef82d2e23fc0db1e1e26bb174807fdb7e17f643ae50",
      "assetIds": []
    },
    {
      "x": 289,
      "y": 377,
      "size": 1,
      "price": "1011000000000000000000",
      "reserved": "",
      "salt": "0xdc20a04f30d36e716af721a263f1ed5189b9f29497761aadd6a580d164990e12",
      "assetIds": []
    },
    {
      "x": 289,
      "y": 378,
      "size": 1,
      "price": "1011000000000000000000",
      "reserved": "",
      "salt": "0xd1fe1ab19be2cd3e66a4b2b979d533daa18c92f5961e78878c4edd87b41b7ae0",
      "assetIds": []
    },
    {
      "x": 289,
      "y": 379,
      "size": 1,
      "price": "1011000000000000000000",
      "reserved": "",
      "salt": "0xc2106885f64cc42257f8428777db22c14647e88e32fdbd645d7daa0a4c5709e8",
      "assetIds": []
    },
    {
      "x": 289,
      "y": 380,
      "size": 1,
      "price": "1011000000000000000000",
      "reserved": "0x7a9fe22691c811ea339d9b73150e6911a5343dca",
      "salt": "0xc48f7bf7393ebc6f4aa939a10bbdcdb052b95c6fdf614c05776a94a5d45ece75",
      "assetIds": []
    },
    {
      "x": 289,
      "y": 381,
      "size": 1,
      "price": "1011000000000000000000",
      "reserved": "0x7a9fe22691c811ea339d9b73150e6911a5343dca",
      "salt": "0xa2a7960d268c354092c4d7e405dafc4283f7457694e34e2aec082872ea1f8fee",
      "assetIds": []
    },
    {
      "x": 289,
      "y": 382,
      "size": 1,
      "price": "1011000000000000000000",
      "reserved": "",
      "salt": "0x58df50cd050b3eb77d392edecac44c22c16474a683d5e23f036249d5c478f476",
      "assetIds": []
    },
    {
      "x": 289,
      "y": 383,
      "size": 1,
      "price": "1011000000000000000000",
      "reserved": "",
      "salt": "0xbd93abe587676998311c8d2b360a2d549d54424324668551ff59dffe78abdf5e",
      "assetIds": []
    },
    {
      "x": 290,
      "y": 360,
      "size": 1,
      "price": "1011000000000000000000",
      "reserved": "",
      "salt": "0xfaaf0cdca5916ec9eb9b5fe1fbc6f1d4d2115c1ae1cff33b17288fdba9a61aa0",
      "assetIds": []
    },
    {
      "x": 290,
      "y": 361,
      "size": 1,
      "price": "1011000000000000000000",
      "reserved": "",
      "salt": "0x348c0eb29da524b8a69776df3a79ad6eb4ce4dbf2200409a979dfff2f79d5b8e",
      "assetIds": []
    },
    {
      "x": 290,
      "y": 362,
      "size": 1,
      "price": "1011000000000000000000",
      "reserved": "",
      "salt": "0x71362be6ef2c5877c8e9caea10166c798ee67e891548d506a245c9a6ce875e83",
      "assetIds": []
    },
    {
      "x": 290,
      "y": 363,
      "size": 1,
      "price": "1011000000000000000000",
      "reserved": "0x7a9fe22691c811ea339d9b73150e6911a5343dca",
      "salt": "0x587949e6e9a2bf84dc21e04c073ef78cc2af6276e17edf60f3a50800ee1edd7b",
      "assetIds": []
    },
    {
      "x": 290,
      "y": 364,
      "size": 1,
      "price": "1011000000000000000000",
      "reserved": "",
      "salt": "0x7b0144f1565bca1f175e279d3f43603ccac001364ec7dfb29ef2b01aac529be8",
      "assetIds": []
    },
    {
      "x": 290,
      "y": 365,
      "size": 1,
      "price": "1011000000000000000000",
      "reserved": "",
      "salt": "0x99076696d1b496c24c470d7782686a0c774189a76e731f1bb809ee272856a66c",
      "assetIds": []
    },
    {
      "x": 290,
      "y": 366,
      "size": 1,
      "price": "1011000000000000000000",
      "reserved": "",
      "salt": "0x29b052010a8b55f0230f745150b64bfc491e33bbe368b10033296e3ab32e6011",
      "assetIds": []
    },
    {
      "x": 290,
      "y": 367,
      "size": 1,
      "price": "1011000000000000000000",
      "reserved": "",
      "salt": "0x40372620974b784fb997056e590393ec9d410339c14da363944dfacbddc3d68b",
      "assetIds": []
    },
    {
      "x": 290,
      "y": 368,
      "size": 1,
      "price": "1011000000000000000000",
      "reserved": "0x7a9fe22691c811ea339d9b73150e6911a5343dca",
      "salt": "0x954c156b9c0a48901106a70c33f700076a64b89454e4866494e62c8079e3cad2",
      "assetIds": []
    },
    {
      "x": 290,
      "y": 369,
      "size": 1,
      "price": "1011000000000000000000",
      "reserved": "",
      "salt": "0xb20ef6740328681f21341b3c9d2ec7eb83f40b6df22c1b3d5dcd9107996cdf33",
      "assetIds": []
    },
    {
      "x": 290,
      "y": 370,
      "size": 1,
      "price": "1011000000000000000000",
      "reserved": "",
      "salt": "0x046159c02f1d2f9fd40e543935d4362fb49bb449ede598c5e777c8c106850709",
      "assetIds": []
    },
    {
      "x": 290,
      "y": 371,
      "size": 1,
      "price": "1011000000000000000000",
      "reserved": "",
      "salt": "0xe1d3b18333c1b8e79423ff8fedc0c455c767ad68b10bf2e88385a03df05d28a2",
      "assetIds": []
    },
    {
      "x": 290,
      "y": 372,
      "size": 1,
      "price": "1011000000000000000000",
      "reserved": "",
      "salt": "0x577e9c7e4dfb5fc90961dff2783d59f6b5ef95d00ea1fd53ad7cda14dbf3a1b8",
      "assetIds": []
    },
    {
      "x": 290,
      "y": 373,
      "size": 1,
      "price": "1011000000000000000000",
      "reserved": "",
      "salt": "0x43cad7d28633f339d5396f0ac631e39d17d771fad09b93cc462cc4291ccd4c0f",
      "assetIds": []
    },
    {
      "x": 290,
      "y": 374,
      "size": 1,
      "price": "1011000000000000000000",
      "reserved": "",
      "salt": "0x8fc78be28e4e7bee729a74e3e8f369ce33f6d81d69d9b9d21fe9a653b7e83f77",
      "assetIds": []
    },
    {
      "x": 290,
      "y": 375,
      "size": 1,
      "price": "1011000000000000000000",
      "reserved": "",
      "salt": "0x8e6504c636fd7e597e5f398cca39309d0ea6cbc8a21f07973d100fbbe70f71b2",
      "assetIds": []
    },
    {
      "x": 290,
      "y": 376,
      "size": 1,
      "price": "1011000000000000000000",
      "reserved": "",
      "salt": "0xb1b5ed53597d0c54932b34a545527ed39e345c525eb52b3c87f40b3f7c112c90",
      "assetIds": []
    },
    {
      "x": 290,
      "y": 377,
      "size": 1,
      "price": "1011000000000000000000",
      "reserved": "",
      "salt": "0x864226c9296714b99743b3deee39abe9aae6511a167862d3e7ae806c3deb2fb6",
      "assetIds": []
    },
    {
      "x": 290,
      "y": 378,
      "size": 1,
      "price": "1011000000000000000000",
      "reserved": "",
      "salt": "0x17a6168fcb911371d72d26ff3d79d894bc0330f31c2b7befa15b7f4e6b52e787",
      "assetIds": []
    },
    {
      "x": 290,
      "y": 379,
      "size": 1,
      "price": "1011000000000000000000",
      "reserved": "",
      "salt": "0x9d6bab63966176a55c79be39a48b754daf0c1d8e31aa0c379a62a567b992837c",
      "assetIds": []
    },
    {
      "x": 290,
      "y": 380,
      "size": 1,
      "price": "1011000000000000000000",
      "reserved": "",
      "salt": "0x8a2680e3eda99395e61073c7f5fe5f719a0a575991346376e9ce3def9bc38986",
      "assetIds": []
    },
    {
      "x": 290,
      "y": 381,
      "size": 1,
      "price": "1011000000000000000000",
      "reserved": "",
      "salt": "0x14ac7b682baa27819961c5ef573627a259aa526c6cda5e14d843e5e1ebfe9255",
      "assetIds": []
    },
    {
      "x": 290,
      "y": 382,
      "size": 1,
      "price": "1011000000000000000000",
      "reserved": "",
      "salt": "0x72f93f51daba6cb10f66bf3237e734871b93555577e719ea618128afe3a7c181",
      "assetIds": []
    },
    {
      "x": 290,
      "y": 383,
      "size": 1,
      "price": "1011000000000000000000",
      "reserved": "0x7a9fe22691c811ea339d9b73150e6911a5343dca",
      "salt": "0x466839589d5cccd52f96a1be8a9a231b0bdf0f328cfe8d5a9daac49a2c33dfa0",
      "assetIds": []
    },
    {
      "x": 234,
      "y": 399,
      "size": 3,
      "price": "8648000000000000000000",
      "reserved": "0x7a9fe22691c811ea339d9b73150e6911a5343dca",
      "salt": "0x4dace97ec95ea6579998ea4b81dc1359d272125a4c7c25ace662ee4ee2bfe53e",
      "assetIds": []
    },
    {
      "x": 237,
      "y": 396,
      "size": 3,
      "price": "8648000000000000000000",
      "reserved": "0x7a9fe22691c811ea339d9b73150e6911a5343dca",
      "salt": "0x801ec4b807eab9535fd971c3aab58b037a696d1d654f84b6bdd272077fa7c89b",
      "assetIds": []
    },
    {
      "x": 243,
      "y": 396,
      "size": 3,
      "price": "8648000000000000000000",
      "reserved": "0x7a9fe22691c811ea339d9b73150e6911a5343dca",
      "salt": "0x75d5eda959a2ca094efad94519880333624e911e754549dce278b178f5e507ed",
      "assetIds": []
    },
    {
      "x": 252,
      "y": 378,
      "size": 3,
      "price": "8648000000000000000000",
      "reserved": "0x7a9fe22691c811ea339d9b73150e6911a5343dca",
      "salt": "0x27f27b6a63feb5fee8fce81917ec8c302cedaec4070997fa17582d7a54d95d2d",
      "assetIds": []
    },
    {
      "x": 264,
      "y": 354,
      "size": 3,
      "price": "8648000000000000000000",
      "reserved": "0x7a9fe22691c811ea339d9b73150e6911a5343dca",
      "salt": "0xf9ddea99e317b0a4983c1c6188803c7df945a64cf28806aab1cb28b10a005f8a",
      "assetIds": []
    },
    {
      "x": 267,
      "y": 384,
      "size": 3,
      "price": "8648000000000000000000",
      "reserved": "0x7a9fe22691c811ea339d9b73150e6911a5343dca",
      "salt": "0x234009040a3f1ba3502e8ccc15359f9187170f7e2b8a93bc2993efc37f336d94",
      "assetIds": []
    },
    {
      "x": 285,
      "y": 345,
      "size": 3,
      "price": "8648000000000000000000",
      "reserved": "0x7a9fe22691c811ea339d9b73150e6911a5343dca",
      "salt": "0x9d2c95a3818b66fdaf53151625b541eafbca5b664896e9050457f600e33d5bd0",
      "assetIds": []
    },
    {
      "x": 222,
      "y": 396,
      "size": 6,
      "price": "32772000000000000000000",
      "reserved": "0x7a9fe22691c811ea339d9b73150e6911a5343dca",
      "salt": "0x088f88fc7f92a62bafa2bf6c3ef772de07f3e6df2c8b5448d542d451547c16ce",
      "assetIds": []
    },
    {
      "x": 228,
      "y": 396,
      "size": 6,
      "price": "32772000000000000000000",
      "reserved": "0x7a9fe22691c811ea339d9b73150e6911a5343dca",
      "salt": "0x4c843fd29e0505755669b97d2765ed2c2ec8811f6e12de543dd53e63b0c00db8",
      "assetIds": []
    },
    {
      "x": 234,
      "y": 390,
      "size": 6,
      "price": "32772000000000000000000",
      "reserved": "0x7a9fe22691c811ea339d9b73150e6911a5343dca",
      "salt": "0x6aa455f58f5da219031e7d532f41a1c6fbc1565746ebe2c5be03dd3ed4f19b7d",
      "assetIds": []
    },
    {
      "x": 246,
      "y": 366,
      "size": 6,
      "price": "32772000000000000000000",
      "reserved": "0x7a9fe22691c811ea339d9b73150e6911a5343dca",
      "salt": "0x9ca359e539f64a82dd8c5044d3b26a7949e328cf014c3e1a1db05e065406ce19",
      "assetIds": []
    },
    {
      "x": 252,
      "y": 372,
      "size": 6,
      "price": "32772000000000000000000",
      "reserved": "0x7a9fe22691c811ea339d9b73150e6911a5343dca",
      "salt": "0x82d80c1796a6bdc2f0b91c8d435384932037a9c68a5f765f60087661895f7a30",
      "assetIds": []
    },
    {
      "x": 282,
      "y": 348,
      "size": 6,
      "price": "32772000000000000000000",
      "reserved": "0x7a9fe22691c811ea339d9b73150e6911a5343dca",
      "salt": "0x11fe902dade595526be140c46cf0a357ac91710e834ace3754131ac7d62795f5",
      "assetIds": []
    },
    {
      "x": 240,
      "y": 384,
      "size": 12,
      "price": "123806000000000000000000",
      "reserved": "0x7a9fe22691c811ea339d9b73150e6911a5343dca",
      "salt": "0x3c1c20079f02373605e21dac8aba4d155a5a6f0dbca670eb70adef5261c08164",
      "assetIds": []
    },
    {
      "x": 252,
      "y": 360,
      "size": 12,
      "price": "123806000000000000000000",
      "reserved": "0x7a9fe22691c811ea339d9b73150e6911a5343dca",
      "salt": "0x3106cc54b23723a75d38ec0af4df672b91af47602b091858344dd91997ce2988",
      "assetIds": []
    },
    {
      "x": 252,
      "y": 384,
      "size": 12,
      "price": "123806000000000000000000",
      "reserved": "0x7a9fe22691c811ea339d9b73150e6911a5343dca",
      "salt": "0x3743995397bfa544a6fe2cdd7c6f3bb312dd608cf7e3e03dc8a24de72495e404",
      "assetIds": []
    },
    {
      "x": 264,
      "y": 360,
      "size": 24,
      "price": "466102000000000000000000",
      "reserved": "0x7a9fe22691c811ea339d9b73150e6911a5343dca",
      "salt": "0x02746771899225d27320d139ec15797f3a4ec8e82e2b50b12c7dcb8ebdadec7f",
      "assetIds": []
    }
  ],
  "solcInputHash": "313f455adab9ae93096e43acc50d7d38",
  "bytecode": "0x610160604052620d2f006005556103e860075534801561001e57600080fd5b5060405161242e38038061242e833981810160405261018081101561004257600080fd5b50805160208201516040830151606080850151608086015160a08088015160c0808a015160e08b01516101008c01516101208d01516101408e0151610160909e0151600280546001600160a01b0319166001600160a01b03861617905560038390558d8b1b6001600160601b0319908116909852998c901b909616909352999a9899979895979496929590949391926100dc8a600161014a565b600680546001600160a01b03199081166001600160a01b039a8b1617909155610140979097526101209590955260008054909616979096169690961790935550606093841b6001600160601b031990811660e05292841b831660805290921b1661010052506101ae92505050565b6001600160a01b038216600081815260016020908152604091829020805460ff191685151590811790915582519384529083015280517fb21eb88b4e33b3f1281830a7178d74d8aa73220416215726b68ae23d539515cb9281900390910190a15050565b60805160601c60a05160601c60c05160601c60e05160601c6101005160601c61012051610140516121fb610233600039806109375280611d44525080610913528061139a525080611da45250806115d252806116f4525080610c50528061159c5280611dd852508061166152806116c5525080610dfa528061190852506121fb6000f3fe608060405234801561001057600080fd5b50600436106101515760003560e01c8063984d6252116100cd578063dc5074af11610081578063ecb255b511610066578063ecb255b514610857578063f23a6e6114610874578063f2e7b3811461090957610151565b8063dc5074af14610814578063e56f8a9e1461083a57610151565b8063bc197c81116100b2578063bc197c81146105d3578063c10a420814610735578063caed35001461080c57610151565b8063984d6252146104db578063b522ecff146105ad57610151565b80636e9960c3116101245780638a04af6a116101095780638a04af6a1461032a5780638a12b82f146103585780638f283970146104b557610151565b80636e9960c3146102fe57806377f1c3ac1461032257610151565b806325cb5bc014610156578063495906571461017057806358bc29441461017857806365194ce7146101a0575b600080fd5b61015e610911565b60408051918252519081900360200190f35b61015e610935565b61019e6004803603602081101561018e57600080fd5b50356001600160a01b0316610959565b005b610246600480360360208110156101b657600080fd5b8101906020810181356401000000008111156101d157600080fd5b8201836020820111156101e357600080fd5b8035906020019184600183028401116401000000008311171561020557600080fd5b91908080601f016020809104026020016040519081016040528093929190818152602001838380828437600092019190915250929550610a04945050505050565b6040518080602001866001600160a01b03166001600160a01b03168152602001856001600160a01b03166001600160a01b03168152602001848152602001838152602001828103825287818151815260200191508051906020019080838360005b838110156102bf5781810151838201526020016102a7565b50505050905090810190601f1680156102ec5780820380516001836020036101000a031916815260200191505b50965050505050505060405180910390f35b610306610b09565b604080516001600160a01b039092168252519081900360200190f35b61015e610b18565b61019e6004803603604081101561034057600080fd5b506001600160a01b0381351690602001351515610b1e565b61019e600480360361018081101561036f57600080fd5b6001600160a01b038235811692602081013582169260408201359092169160608201359160808101359160a08201359160c08101359160e0820135916101008101359181019061014081016101208201356401000000008111156103d257600080fd5b8201836020820111156103e457600080fd5b8035906020019184602083028401116401000000008311171561040657600080fd5b91939092909160208101903564010000000081111561042457600080fd5b82018360208201111561043657600080fd5b8035906020019184602083028401116401000000008311171561045857600080fd5b91939092909160208101903564010000000081111561047657600080fd5b82018360208201111561048857600080fd5b803590602001918460018302840111640100000000831117156104aa57600080fd5b509092509050610b75565b61019e600480360360208110156104cb57600080fd5b50356001600160a01b0316610cc3565b61019e600480360360608110156104f157600080fd5b6001600160a01b03823516919081019060408101602082013564010000000081111561051c57600080fd5b82018360208201111561052e57600080fd5b8035906020019184602083028401116401000000008311171561055057600080fd5b91939092909160208101903564010000000081111561056e57600080fd5b82018360208201111561058057600080fd5b803590602001918460208302840111640100000000831117156105a257600080fd5b509092509050610d99565b61019e600480360360208110156105c357600080fd5b50356001600160a01b0316610f24565b610700600480360360a08110156105e957600080fd5b6001600160a01b03823581169260208101359091169181019060608101604082013564010000000081111561061d57600080fd5b82018360208201111561062f57600080fd5b8035906020019184602083028401116401000000008311171561065157600080fd5b91939092909160208101903564010000000081111561066f57600080fd5b82018360208201111561068157600080fd5b803590602001918460208302840111640100000000831117156106a357600080fd5b9193909290916020810190356401000000008111156106c157600080fd5b8201836020820111156106d357600080fd5b803590602001918460018302840111640100000000831117156106f557600080fd5b50909250905061100d565b604080517fffffffff000000000000000000000000000000000000000000000000000000009092168252519081900360200190f35b6107f8600480360360a081101561074b57600080fd5b81019060208101813564010000000081111561076657600080fd5b82018360208201111561077857600080fd5b8035906020019184600183028401116401000000008311171561079a57600080fd5b91908080601f016020809104026020016040519081016040528093929190818152602001838380828437600092019190915250929550506001600160a01b03833581169450602084013516926040810135925060600135905061103a565b604080519115158252519081900360200190f35b610306611176565b6107f86004803603602081101561082a57600080fd5b50356001600160a01b0316611185565b61019e6004803603602081101561085057600080fd5b50356111a3565b61019e6004803603602081101561086d57600080fd5b5035611207565b610700600480360360a081101561088a57600080fd5b6001600160a01b03823581169260208101359091169160408201359160608101359181019060a0810160808201356401000000008111156108ca57600080fd5b8201836020820111156108dc57600080fd5b803590602001918460018302840111640100000000831117156108fe57600080fd5b50909250905061126b565b61015e611296565b7f000000000000000000000000000000000000000000000000000000000000000090565b7f000000000000000000000000000000000000000000000000000000000000000090565b6000546001600160a01b031633146109b8576040805162461bcd60e51b815260206004820152601060248201527f53656e646572206e6f742061646d696e00000000000000000000000000000000604482015290519081900360640190fd5b600554600280546001600160a01b03908116600090815260046020526040902042909301909255805473ffffffffffffffffffffffffffffffffffffffff191692909116919091179055565b606060008060008060606000806000808a80602001905160a0811015610a2957600080fd5b8101908080516040519392919084640100000000821115610a4957600080fd5b908301906020820185811115610a5e57600080fd5b8251640100000000811182820188101715610a7857600080fd5b82525081516020918201929091019080838360005b83811015610aa5578181015183820152602001610a8d565b50505050905090810190601f168015610ad25780820380516001836020036101000a031916815260200191505b5060409081526020820151908201516060830151608090930151959f50909d509b5099509197505050505050505091939590929450565b6000546001600160a01b031690565b60035490565b6000546001600160a01b03163314610b675760405162461bcd60e51b815260040180806020018281038252602e815260200180612198602e913960400191505060405180910390fd5b610b71828261129c565b5050565b610b7f898961131e565b610c048f8e8e8e8e8e8d8d8d80806020026020016040519081016040528093929190818152602001838360200280828437600081840152601f19601f820116905080830192505050505050508c8c8080602002602001604051908101604052809392919081815260200183836020028082843760009201919091525061139892505050565b610c458f8984848080601f01602080910402602001604051908101604052809392919081815260200183838082843760009201919091525061157592505050565b610c758f8f8e8e8e8d7f00000000000000000000000000000000000000000000000000000000000000008f6115c6565b610cb28e87878080602002602001604051908101604052809392919081815260200183836020028082843760009201919091525061189192505050565b505050505050505050505050505050565b6000546001600160a01b03163314610d22576040805162461bcd60e51b815260206004820152601b60248201527f6f6e6c792061646d696e2063616e206368616e67652061646d696e0000000000604482015290519081900360640190fd5b600054604080516001600160a01b039283168152918316602083015280517f7e644d79422f17c01e4894b5f4f588d331ebfa28653d42ae832dc59e38c9798f9281900390910190a16000805473ffffffffffffffffffffffffffffffffffffffff19166001600160a01b0392909216919091179055565b6000546001600160a01b03163314610df8576040805162461bcd60e51b815260206004820152600e60248201527f4e4f545f415554484f52495a4544000000000000000000000000000000000000604482015290519081900360640190fd5b7f00000000000000000000000000000000000000000000000000000000000000006001600160a01b0316632eb2c2d63087878787876040518763ffffffff1660e01b815260040180876001600160a01b03166001600160a01b03168152602001866001600160a01b03166001600160a01b031681526020018060200180602001806020018481038452888882818152602001925060200280828437600083820152601f01601f19169091018581038452868152602090810191508790870280828437600081840152601f19601f8201169050808301925050508481038252600081526020016020019950505050505050505050600060405180830381600087803b158015610f0557600080fd5b505af1158015610f19573d6000803e3d6000fd5b505050505050505050565b6001600160a01b038116610f7f576040805162461bcd60e51b815260206004820152600c60248201527f5a45524f5f414444524553530000000000000000000000000000000000000000604482015290519081900360640190fd5b6000546001600160a01b03163314610fde576040805162461bcd60e51b815260206004820152600e60248201527f4e4f545f415554484f52495a4544000000000000000000000000000000000000604482015290519081900360640190fd5b6006805473ffffffffffffffffffffffffffffffffffffffff19166001600160a01b0392909216919091179055565b7fbc197c810000000000000000000000000000000000000000000000000000000098975050505050505050565b600060035482118061105d5750836001600160a01b0316856001600160a01b0316145b8061106757508242115b156110745750600061116d565b60408051606087811b7fffffffffffffffffffffffffffffffffffffffff0000000000000000000000009081166020808501919091529188901b166034830152604882018690526068808301869052835180840390910181526088830184528051908201207f19457468657265756d205369676e6564204d6573736167653a0a33320000000060a884015260c48084018290528451808503909101815260e4909301909352815191012060009061112b9089611a55565b6001600160a01b03811660009081526004602052604090205490915042116111585760019250505061116d565b6002546001600160a01b039081169116149150505b95945050505050565b6002546001600160a01b031690565b6001600160a01b031660009081526001602052604090205460ff1690565b6000546001600160a01b03163314611202576040805162461bcd60e51b815260206004820152601060248201527f53656e646572206e6f742061646d696e00000000000000000000000000000000604482015290519081900360640190fd5b600355565b6000546001600160a01b03163314611266576040805162461bcd60e51b815260206004820152600e60248201527f4e4f545f415554484f52495a4544000000000000000000000000000000000000604482015290519081900360640190fd5b600755565b7ff23a6e61000000000000000000000000000000000000000000000000000000009695505050505050565b60075490565b6001600160a01b03821660008181526001602090815260409182902080547fffffffffffffffffffffffffffffffffffffffffffffffffffffffffffffff001685151590811790915582519384529083015280517fb21eb88b4e33b3f1281830a7178d74d8aa73220416215726b68ae23d539515cb9281900390910190a15050565b6113456103e861133960075485611b2290919063ffffffff16565b9063ffffffff611b9816565b8114610b71576040805162461bcd60e51b815260206004820152600d60248201527f494e56414c49445f505249434500000000000000000000000000000000000000604482015290519081900360640190fd5b7f0000000000000000000000000000000000000000000000000000000000000000421061140c576040805162461bcd60e51b815260206004820152600c60248201527f53414c455f49535f4f5645520000000000000000000000000000000000000000604482015290519081900360640190fd5b6001600160a01b03891633148061143257503360009081526001602052604090205460ff165b611483576040805162461bcd60e51b815260206004820152600e60248201527f4e4f545f415554484f52495a4544000000000000000000000000000000000000604482015290519081900360640190fd5b6001600160a01b03881615806114aa5750886001600160a01b0316886001600160a01b0316145b6114fb576040805162461bcd60e51b815260206004820152600d60248201527f52455345525645445f4c414e4400000000000000000000000000000000000000604482015290519081900360640190fd5b600061150c888888888d8989611bfd565b90506115188282611ca2565b611569576040805162461bcd60e51b815260206004820152600c60248201527f494e56414c49445f4c414e440000000000000000000000000000000000000000604482015290519081900360640190fd5b50505050505050505050565b60006115818484611d6b565b6006549091506115c0908590839085906001600160a01b03167f0000000000000000000000000000000000000000000000000000000000000000611eb8565b50505050565b83600114806115fc57507f00000000000000000000000000000000000000000000000000000000000000006001600160a01b0316155b156116c357604080517f6e1e3bbf0000000000000000000000000000000000000000000000000000000081526001600160a01b03898116600483015260248201879052604482018990526064820188905260a06084830152600060a4830181905292517f000000000000000000000000000000000000000000000000000000000000000090911692636e1e3bbf9260e4808201939182900301818387803b1580156116a657600080fd5b505af11580156116ba573d6000803e3d6000fd5b50505050611827565b7f00000000000000000000000000000000000000000000000000000000000000006001600160a01b0316636e1e3bbf7f00000000000000000000000000000000000000000000000000000000000000008689898c60405160200180826001600160a01b03166001600160a01b031681526020019150506040516020818303038152906040526040518663ffffffff1660e01b815260040180866001600160a01b03166001600160a01b0316815260200185815260200184815260200183815260200180602001828103825283818151815260200191508051906020019080838360005b838110156117be5781810151838201526020016117a6565b50505050905090810190601f1680156117eb5780820380516001836020036101000a031916815260200191505b509650505050505050600060405180830381600087803b15801561180e57600080fd5b505af1158015611822573d6000803e3d6000fd5b505050505b60408051858152602081018590526001600160a01b03848116828401526060820184905291516101988802890192808b1692908c16917fe4dfa6ac11314892f3029b34a25b1a887da3b1cab2bbf8506d87128ba6e3ac029181900360800190a45050505050505050565b6060815167ffffffffffffffff811180156118ab57600080fd5b506040519080825280602002602001820160405280156118d5578160200160208202803683370190505b50905060005b82518110156119055760018282815181106118f257fe5b60209081029190910101526001016118db565b507f00000000000000000000000000000000000000000000000000000000000000006001600160a01b0316632eb2c2d6308585856040518563ffffffff1660e01b815260040180856001600160a01b03166001600160a01b03168152602001846001600160a01b03166001600160a01b03168152602001806020018060200180602001848103845286818151815260200191508051906020019060200280838360005b838110156119c05781810151838201526020016119a8565b50505050905001848103835285818151815260200191508051906020019060200280838360005b838110156119ff5781810151838201526020016119e7565b50505050905001848103825260008152602001602001975050505050505050600060405180830381600087803b158015611a3857600080fd5b505af1158015611a4c573d6000803e3d6000fd5b50505050505050565b60008151604114611a6557600080fd5b60208201516040830151606084015160001a601b811015611a8457601b015b8060ff16601b1480611a9957508060ff16601c145b611aa257600080fd5b6040805160008152602080820180845289905260ff8416828401526060820186905260808201859052915160019260a0808401939192601f1981019281900390910190855afa158015611af9573d6000803e3d6000fd5b5050604051601f1901519450506001600160a01b038416611b1957600080fd5b50505092915050565b600082611b3157506000611b92565b5081810281838281611b3f57fe5b0414611b92576040805162461bcd60e51b815260206004820152600860248201527f6f766572666c6f77000000000000000000000000000000000000000000000000604482015290519081900360640190fd5b92915050565b600081611bec576040805162461bcd60e51b815260206004820152600960248201527f64697662797a65726f0000000000000000000000000000000000000000000000604482015290519081900360640190fd5b818381611bf557fe5b049392505050565b60008787878787878760405160200180888152602001878152602001868152602001858152602001846001600160a01b03166001600160a01b031660601b8152601401838152602001828051906020019060200280838360005b83811015611c6f578181015183820152602001611c57565b50505050905001975050505050505050604051602081830303815290604052805190602001209050979650505050505050565b600081815b8451811015611d41576000858281518110611cbe57fe5b6020026020010151905080831015611d065782816040516020018083815260200182815260200192505050604051602081830303815290604052805190602001209250611d38565b808360405160200180838152602001828152602001925050506040516020818303038152906040528051906020012092505b50600101611ca7565b507f0000000000000000000000000000000000000000000000000000000000000000149392505050565b600080611d84606461133985600563ffffffff611b2216565b604080516323b872dd60e01b81526001600160a01b0387811660048301527f0000000000000000000000000000000000000000000000000000000000000000811660248301526044820184905291519293507f0000000000000000000000000000000000000000000000000000000000000000909116916323b872dd916064808201926020929091908290030181600087803b158015611e2357600080fd5b505af1158015611e37573d6000803e3d6000fd5b505050506040513d6020811015611e4d57600080fd5b5051611ea0576040805162461bcd60e51b815260206004820152601360248201527f4645455f5452414e534645525f4641494c454400000000000000000000000000604482015290519081900360640190fd5b611eb0838263ffffffff61213a16565b949350505050565b82518190859015612062576060600080600080611ed48a610a04565b9398509196509450925090506000611eef868686868661103a565b15611f7d57611f09611f018d84611b22565b612710611b98565b9050886001600160a01b0316846001600160a01b0316866001600160a01b03167fac7a699eb95c3c6d390ec4626de17ef9a67b35891efdb197beba7c7fdd45fac48f858760405180848152602001838152602001828152602001935050505060405180910390a4611f7a878261213a565b96505b801561205b57604080516323b872dd60e01b81526001600160a01b038f811660048301528781166024830152604482018490529151918a16916323b872dd916064808201926020929091908290030181600087803b158015611fde57600080fd5b505af1158015611ff2573d6000803e3d6000fd5b505050506040513d602081101561200857600080fd5b505161205b576040805162461bcd60e51b815260206004820152601960248201527f636f6d6d6973696f6e207472616e73666572206661696c656400000000000000604482015290519081900360640190fd5b5050505050505b604080516323b872dd60e01b81526001600160a01b0389811660048301528681166024830152604482018490529151918416916323b872dd916064808201926020929091908290030181600087803b1580156120bd57600080fd5b505af11580156120d1573d6000803e3d6000fd5b505050506040513d60208110156120e757600080fd5b5051611a4c576040805162461bcd60e51b815260206004820152601760248201527f7061796d656e74207472616e73666572206661696c6564000000000000000000604482015290519081900360640190fd5b600082821115612191576040805162461bcd60e51b815260206004820152600860248201527f756e6465666c6f77000000000000000000000000000000000000000000000000604482015290519081900360640190fd5b5090039056fe6f6e6c792061646d696e2063616e207365747570206d6574615472616e73616374696f6e50726f636573736f7273a26469706673582212200ff38c5741c66b2a22a9a9ee2abe0f55626323082b6b4443921fd3b25484584a64736f6c63430006050033",
  "devdoc": {
    "methods": {
      "buyLandWithSand(address,address,address,uint256,uint256,uint256,uint256,uint256,bytes32,uint256[],bytes32[],bytes)": {
        "params": {
          "buyer": "address that perform the payment",
          "priceInSand": "price in SAND to purchase that Land",
          "proof": "merkleProof for that particular Land",
          "reserved": "the reserved address (if any)",
          "size": "size of the pack of Land to purchase",
          "to": "address that will own the purchased Land",
          "x": "x coordinate of the Land",
          "y": "y coordinate of the Land"
        }
      },
      "changeAdmin(address)": {
        "details": "change the administrator to be `newAdmin`.",
        "params": {
          "newAdmin": "address of the new administrator."
        }
      },
      "getAdmin()": {
        "details": "gives the current administrator of this contract.",
        "returns": {
          "_0": "the current administrator of this contract."
        }
      },
      "getSigningWallet()": {
        "details": "signing wallet authorized for referral",
        "returns": {
          "_0": "the address of the signing wallet"
        }
      },
      "isMetaTransactionProcessor(address)": {
        "details": "check whether address `who` is given meta-transaction execution rights.",
        "params": {
          "who": "The address to query."
        },
        "returns": {
          "_0": "whether the address has meta-transaction execution rights."
        }
      },
      "isReferralValid(bytes,address,address,uint256,uint256)": {
        "params": {
          "commissionRate": "The commissionRate of the referral",
          "expiryTime": "The expiry time of the referral",
          "referee": "The address of the referee",
          "referrer": "The address of the referrer",
          "signature": "The signature to check (signed referral)"
        },
        "returns": {
          "_0": "True if the referral is valid"
        }
      },
      "setMetaTransactionProcessor(address,bool)": {
        "details": "Enable or disable the ability of `metaTransactionProcessor` to perform meta-tx (metaTransactionProcessor rights).",
        "params": {
          "enabled": "set whether the metaTransactionProcessor is enabled or disabled.",
          "metaTransactionProcessor": "address that will be given/removed metaTransactionProcessor rights."
        }
      },
      "setReceivingWallet(address)": {
        "params": {
          "newWallet": "address of the new receiving wallet"
        }
      },
      "updateMaxCommissionRate(uint256)": {
        "details": "Update the maximum commission rate",
        "params": {
          "newMaxCommissionRate": "The new maximum commission rate"
        }
      },
      "updateSigningWallet(address)": {
        "details": "Update the signing wallet",
        "params": {
          "newSigningWallet": "The new address of the signing wallet"
        }
      },
      "withdrawAssets(address,uint256[],uint256[])": {
        "params": {
          "assetIds": "the assetIds to be transferred",
          "to": "intended recipient of the asset tokens",
          "values": "the quantities of the assetIds to be transferred"
        }
      }
    },
    "title": "Estate Sale contract with referral"
  },
  "userdoc": {
    "methods": {
      "buyLandWithSand(address,address,address,uint256,uint256,uint256,uint256,uint256,bytes32,uint256[],bytes32[],bytes)": {
        "notice": "buy Land with SAND using the merkle proof associated with it"
      },
      "getExpiryTime()": {
        "notice": "Gets the expiry time for the current sale"
      },
      "getMaxCommisionRate()": {
        "notice": "the max commision rate"
      },
      "getMerkleRoot()": {
        "notice": "Gets the Merkle root associated with the current sale"
      },
      "isReferralValid(bytes,address,address,uint256,uint256)": {
        "notice": "Check if a referral is valid"
      },
      "setReceivingWallet(address)": {
        "notice": "set the wallet receiving the proceeds"
      },
      "withdrawAssets(address,uint256[],uint256[])": {
        "notice": "enable Admin to withdraw remaining assets from EstateSaleWithFee contract"
      }
    },
    "notice": "This contract manages the sale of our lands as Estates"
  },
  "storageLayout": {
    "storage": [
      {
        "astId": 12779,
        "contract": "src/solc_0.6/EstateSale/EstateSaleWithFee.sol:EstateSaleWithFee",
        "label": "_admin",
        "offset": 0,
        "slot": "0",
        "type": "t_address"
      },
      {
        "astId": 12841,
        "contract": "src/solc_0.6/EstateSale/EstateSaleWithFee.sol:EstateSaleWithFee",
        "label": "_metaTransactionContracts",
        "offset": 0,
        "slot": "1",
        "type": "t_mapping(t_address,t_bool)"
      },
      {
        "astId": 10957,
        "contract": "src/solc_0.6/EstateSale/EstateSaleWithFee.sol:EstateSaleWithFee",
        "label": "_signingWallet",
        "offset": 0,
        "slot": "2",
        "type": "t_address"
      },
      {
        "astId": 10959,
        "contract": "src/solc_0.6/EstateSale/EstateSaleWithFee.sol:EstateSaleWithFee",
        "label": "_maxCommissionRate",
        "offset": 0,
        "slot": "3",
        "type": "t_uint256"
      },
      {
        "astId": 10963,
        "contract": "src/solc_0.6/EstateSale/EstateSaleWithFee.sol:EstateSaleWithFee",
        "label": "_previousSigningWallets",
        "offset": 0,
        "slot": "4",
        "type": "t_mapping(t_address,t_uint256)"
      },
      {
        "astId": 10972,
        "contract": "src/solc_0.6/EstateSale/EstateSaleWithFee.sol:EstateSaleWithFee",
        "label": "_previousSigningDelay",
        "offset": 0,
        "slot": "5",
        "type": "t_uint256"
      },
      {
        "astId": 7344,
        "contract": "src/solc_0.6/EstateSale/EstateSaleWithFee.sol:EstateSaleWithFee",
        "label": "_wallet",
        "offset": 0,
        "slot": "6",
        "type": "t_address_payable"
      },
      {
        "astId": 7354,
        "contract": "src/solc_0.6/EstateSale/EstateSaleWithFee.sol:EstateSaleWithFee",
        "label": "_multiplier",
        "offset": 0,
        "slot": "7",
        "type": "t_uint256"
      }
    ],
    "types": {
      "t_address": {
        "encoding": "inplace",
        "label": "address",
        "numberOfBytes": "20"
      },
      "t_address_payable": {
        "encoding": "inplace",
        "label": "address payable",
        "numberOfBytes": "20"
      },
      "t_bool": {
        "encoding": "inplace",
        "label": "bool",
        "numberOfBytes": "1"
      },
      "t_mapping(t_address,t_bool)": {
        "encoding": "mapping",
        "key": "t_address",
        "label": "mapping(address => bool)",
        "numberOfBytes": "32",
        "value": "t_bool"
      },
      "t_mapping(t_address,t_uint256)": {
        "encoding": "mapping",
        "key": "t_address",
        "label": "mapping(address => uint256)",
        "numberOfBytes": "32",
        "value": "t_uint256"
      },
      "t_uint256": {
        "encoding": "inplace",
        "label": "uint256",
        "numberOfBytes": "32"
      }
    }
  }
}