{
  "address": "0xD1Eb013345bAe50B396E0293636BCF0204463452",
  "abi": [
    {
      "inputs": [],
      "stateMutability": "nonpayable",
      "type": "constructor"
    },
    {
      "anonymous": false,
      "inputs": [
        {
          "indexed": false,
          "internalType": "bool",
          "name": "success",
          "type": "bool"
        },
        {
          "indexed": false,
          "internalType": "bytes",
          "name": "returndata",
          "type": "bytes"
        }
      ],
      "name": "TXResult",
      "type": "event"
    },
    {
      "inputs": [
        {
          "components": [
            {
              "internalType": "address",
              "name": "from",
              "type": "address"
            },
            {
              "internalType": "address",
              "name": "to",
              "type": "address"
            },
            {
              "internalType": "uint256",
              "name": "value",
              "type": "uint256"
            },
            {
              "internalType": "uint256",
              "name": "gas",
              "type": "uint256"
            },
            {
              "internalType": "uint256",
              "name": "nonce",
              "type": "uint256"
            },
            {
              "internalType": "bytes",
              "name": "data",
              "type": "bytes"
            }
          ],
          "internalType": "struct TestMetaTxForwarder.ForwardRequest",
          "name": "req",
          "type": "tuple"
        },
        {
          "internalType": "bytes",
          "name": "signature",
          "type": "bytes"
        }
      ],
      "name": "execute",
      "outputs": [
        {
          "internalType": "bool",
          "name": "",
          "type": "bool"
        },
        {
          "internalType": "bytes",
          "name": "",
          "type": "bytes"
        }
      ],
      "stateMutability": "payable",
      "type": "function"
    },
    {
      "inputs": [
        {
          "internalType": "address",
          "name": "from",
          "type": "address"
        }
      ],
      "name": "getNonce",
      "outputs": [
        {
          "internalType": "uint256",
          "name": "",
          "type": "uint256"
        }
      ],
      "stateMutability": "view",
      "type": "function"
    },
    {
      "inputs": [
        {
          "components": [
            {
              "internalType": "address",
              "name": "from",
              "type": "address"
            },
            {
              "internalType": "address",
              "name": "to",
              "type": "address"
            },
            {
              "internalType": "uint256",
              "name": "value",
              "type": "uint256"
            },
            {
              "internalType": "uint256",
              "name": "gas",
              "type": "uint256"
            },
            {
              "internalType": "uint256",
              "name": "nonce",
              "type": "uint256"
            },
            {
              "internalType": "bytes",
              "name": "data",
              "type": "bytes"
            }
          ],
          "internalType": "struct TestMetaTxForwarder.ForwardRequest",
          "name": "req",
          "type": "tuple"
        },
        {
          "internalType": "bytes",
          "name": "signature",
          "type": "bytes"
        }
      ],
      "name": "verify",
      "outputs": [
        {
          "internalType": "bool",
          "name": "",
          "type": "bool"
        }
      ],
      "stateMutability": "view",
      "type": "function"
    }
  ],
  "transactionHash": "0x417bb4e2029813c29638f8612325aed5b79c0f88592623779760bbdb6e8d370e",
  "args": [],
  "numDeployments": 1,
  "solcInputHash": "3ac99781400346b5ef1247840c0f0d75",
  "bytecode": "0x60e060405234801561001057600080fd5b50604080518082018252600b81526a0a8d0ca40a6c2dcc8c4def60ab1b6020808301918252835180850190945260018452603160f81b9301929092525190206080527fc89efdaa54c0f20c7adf612882df0950f5a951637e0307cdcb4c672f298b8bc660a0527f91ab3d17e3a50a9d89e63fd30b92be7f5336b03b287bb946787a83a9d62a276660c05260805160a05160c051610bc56100c960003960006104500152600061049f0152600061047a0152610bc56000f3fe6080604052600436106100345760003560e01c80632d0335ab1461003957806347153f8214610082578063bf5d3bdb146100a3575b600080fd5b34801561004557600080fd5b5061006f61005436600461094e565b6001600160a01b031660009081526020819052604090205490565b6040519081526020015b60405180910390f35b61009561009036600461097c565b6100d3565b604051610079929190610a7c565b3480156100af57600080fd5b506100c36100be36600461097c565b6102c4565b6040519015158152602001610079565b600060606100e28585856102c4565b6101595760405162461bcd60e51b815260206004820152603260248201527f4d696e696d616c466f727761726465723a207369676e617475726520646f657360448201527f206e6f74206d617463682072657175657374000000000000000000000000000060648201526084015b60405180910390fd5b61016860808601356001610b1b565b600080610178602089018961094e565b6001600160a01b03166001600160a01b03168152602001908152602001600020819055506000808660200160208101906101b2919061094e565b6001600160a01b0316606088013560408901356101d260a08b018b610ab8565b6101df60208d018d61094e565b6040516020016101f193929190610a24565b60408051601f198184030181529082905261020b91610a60565b600060405180830381858888f193505050503d8060008114610249576040519150601f19603f3d011682016040523d82523d6000602084013e61024e565b606091505b509092509050610263603f6060890135610b3f565b5a1161027f57634e487b7160e01b600052600160045260246000fd5b7fabf1c7590137429c6129ed860c0f582151f95ad396bbbb21cdaaf4c31883524d82826040516102b0929190610a7c565b60405180910390a190969095509350505050565b6000806103d784848080601f0160208091040260200160405190810160405280939291908181526020018383808284376000920191909152506103d192507fdd8f4b70b0f4393e889bd39128a30628a78b61816a9eb8199759e7a349657e489150610334905060208a018a61094e565b61034460408b0160208c0161094e565b60408b013560608c013560808d013561036060a08f018f610ab8565b60405161036e929190610a14565b6040805191829003822060208301989098526001600160a01b0396871690820152949093166060850152608084019190915260a083015260c082015260e08101919091526101000160405160208183030381529060405280519060200120610442565b90610549565b905060808501356000806103ee602089018961094e565b6001600160a01b03166001600160a01b03168152602001908152602001600020541480156104395750610424602086018661094e565b6001600160a01b0316816001600160a01b0316145b95945050505050565b60006105436104e7604080517f00000000000000000000000000000000000000000000000000000000000000006020808301919091527f0000000000000000000000000000000000000000000000000000000000000000828401527f00000000000000000000000000000000000000000000000000000000000000006060830152306080808401919091528351808403909101815260a0909201909252805191012090565b836040517f19010000000000000000000000000000000000000000000000000000000000006020820152602281018390526042810182905260009060620160405160208183030381529060405280519060200120905092915050565b92915050565b6000806000610558858561056d565b91509150610565816105dd565b509392505050565b6000808251604114156105a45760208301516040840151606085015160001a61059887828585610819565b945094505050506105d6565b8251604014156105ce57602083015160408401516105c3868383610906565b9350935050506105d6565b506000905060025b9250929050565b60008160048111156105ff57634e487b7160e01b600052602160045260246000fd5b141561060a57610816565b600181600481111561062c57634e487b7160e01b600052602160045260246000fd5b141561067a5760405162461bcd60e51b815260206004820152601860248201527f45434453413a20696e76616c6964207369676e617475726500000000000000006044820152606401610150565b600281600481111561069c57634e487b7160e01b600052602160045260246000fd5b14156106ea5760405162461bcd60e51b815260206004820152601f60248201527f45434453413a20696e76616c6964207369676e6174757265206c656e677468006044820152606401610150565b600381600481111561070c57634e487b7160e01b600052602160045260246000fd5b14156107805760405162461bcd60e51b815260206004820152602260248201527f45434453413a20696e76616c6964207369676e6174757265202773272076616c60448201527f75650000000000000000000000000000000000000000000000000000000000006064820152608401610150565b60048160048111156107a257634e487b7160e01b600052602160045260246000fd5b14156108165760405162461bcd60e51b815260206004820152602260248201527f45434453413a20696e76616c6964207369676e6174757265202776272076616c60448201527f75650000000000000000000000000000000000000000000000000000000000006064820152608401610150565b50565b6000807f7fffffffffffffffffffffffffffffff5d576e7357a4501ddfe92f46681b20a083111561085057506000905060036108fd565b8460ff16601b1415801561086857508460ff16601c14155b1561087957506000905060046108fd565b6040805160008082526020820180845289905260ff881692820192909252606081018690526080810185905260019060a0016020604051602081039080840390855afa1580156108cd573d6000803e3d6000fd5b5050604051601f1901519150506001600160a01b0381166108f6576000600192509250506108fd565b9150600090505b94509492505050565b6000807f7fffffffffffffffffffffffffffffffffffffffffffffffffffffffffffffff831660ff84901c601b0161094087828885610819565b935093505050935093915050565b60006020828403121561095f578081fd5b81356001600160a01b0381168114610975578182fd5b9392505050565b600080600060408486031215610990578182fd5b833567ffffffffffffffff808211156109a7578384fd5b9085019060c082880312156109ba578384fd5b909350602085013590808211156109cf578384fd5b818601915086601f8301126109e2578384fd5b8135818111156109f0578485fd5b876020828501011115610a01578485fd5b6020830194508093505050509250925092565b6000828483379101908152919050565b6000838583375060609190911b7fffffffffffffffffffffffffffffffffffffffff000000000000000000000000169101908152601401919050565b60008251610a72818460208701610b5f565b9190910192915050565b60008315158252604060208301528251806040840152610aa3816060850160208701610b5f565b601f01601f1916919091016060019392505050565b60008083357fffffffffffffffffffffffffffffffffffffffffffffffffffffffffffffffe1843603018112610aec578283fd5b83018035915067ffffffffffffffff821115610b06578283fd5b6020019150368190038213156105d657600080fd5b60008219821115610b3a57634e487b7160e01b81526011600452602481fd5b500190565b600082610b5a57634e487b7160e01b81526012600452602481fd5b500490565b60005b83811015610b7a578181015183820152602001610b62565b83811115610b89576000848401525b5050505056fea2646970667358221220ef3b90b899a0b9cc54e0f024253a7c4108d4692d91ac438842726a857747aeed64736f6c63430008020033",
  "devdoc": {
    "kind": "dev",
    "methods": {},
    "version": 1
  },
  "userdoc": {
    "kind": "user",
    "methods": {},
    "version": 1
  },
  "storageLayout": {
    "storage": [
      {
        "astId": 48974,
        "contract": "src/solc_0.8/test/TestMetaTxForwarder.sol:TestMetaTxForwarder",
        "label": "_nonces",
        "offset": 0,
        "slot": "0",
        "type": "t_mapping(t_address,t_uint256)"
      }
    ],
    "types": {
      "t_address": {
        "encoding": "inplace",
        "label": "address",
        "numberOfBytes": "20"
      },
      "t_mapping(t_address,t_uint256)": {
        "encoding": "mapping",
        "key": "t_address",
        "label": "mapping(address => uint256)",
        "numberOfBytes": "32",
        "value": "t_uint256"
      },
      "t_uint256": {
        "encoding": "inplace",
        "label": "uint256",
        "numberOfBytes": "32"
      }
    }
  }
}