{
  "address": "0x98DC5CB2032F9Ba33a3029215FeB705Df93cD9Fe",
  "abi": [
    {
      "inputs": [
        {
          "internalType": "address",
          "name": "defaultAdmin",
          "type": "address"
        }
      ],
      "stateMutability": "nonpayable",
      "type": "constructor"
    },
    {
      "inputs": [],
      "name": "AccessControlBadConfirmation",
      "type": "error"
    },
    {
      "inputs": [
        {
          "internalType": "address",
          "name": "account",
          "type": "address"
        },
        {
          "internalType": "bytes32",
          "name": "neededRole",
          "type": "bytes32"
        }
      ],
      "name": "AccessControlUnauthorizedAccount",
      "type": "error"
    },
    {
      "anonymous": false,
      "inputs": [
        {
          "indexed": true,
          "internalType": "bytes32",
          "name": "role",
          "type": "bytes32"
        },
        {
          "indexed": true,
          "internalType": "bytes32",
          "name": "previousAdminRole",
          "type": "bytes32"
        },
        {
          "indexed": true,
          "internalType": "bytes32",
          "name": "newAdminRole",
          "type": "bytes32"
        }
      ],
      "name": "RoleAdminChanged",
      "type": "event"
    },
    {
      "anonymous": false,
      "inputs": [
        {
          "indexed": true,
          "internalType": "bytes32",
          "name": "role",
          "type": "bytes32"
        },
        {
          "indexed": true,
          "internalType": "address",
          "name": "account",
          "type": "address"
        },
        {
          "indexed": true,
          "internalType": "address",
          "name": "sender",
          "type": "address"
        }
      ],
      "name": "RoleGranted",
      "type": "event"
    },
    {
      "anonymous": false,
      "inputs": [
        {
          "indexed": true,
          "internalType": "bytes32",
          "name": "role",
          "type": "bytes32"
        },
        {
          "indexed": true,
          "internalType": "address",
          "name": "account",
          "type": "address"
        },
        {
          "indexed": true,
          "internalType": "address",
          "name": "sender",
          "type": "address"
        }
      ],
      "name": "RoleRevoked",
      "type": "event"
    },
    {
      "inputs": [],
      "name": "DEFAULT_ADMIN_ROLE",
      "outputs": [
        {
          "internalType": "bytes32",
          "name": "",
          "type": "bytes32"
        }
      ],
      "stateMutability": "view",
      "type": "function"
    },
    {
      "inputs": [],
      "name": "OPERATOR_ROLE",
      "outputs": [
        {
          "internalType": "bytes32",
          "name": "",
          "type": "bytes32"
        }
      ],
      "stateMutability": "view",
      "type": "function"
    },
    {
      "inputs": [
        {
          "internalType": "address[]",
          "name": "contracts",
          "type": "address[]"
        },
        {
          "internalType": "address[][]",
          "name": "recipients",
          "type": "address[][]"
        },
        {
          "internalType": "uint256[][]",
          "name": "tokenIds",
          "type": "uint256[][]"
        },
        {
          "internalType": "uint256[][]",
          "name": "amounts",
          "type": "uint256[][]"
        },
        {
          "internalType": "bool[]",
          "name": "isERC1155",
          "type": "bool[]"
        }
      ],
      "name": "batchTransfer",
      "outputs": [],
      "stateMutability": "nonpayable",
      "type": "function"
    },
    {
      "inputs": [
        {
          "internalType": "bytes32",
          "name": "role",
          "type": "bytes32"
        }
      ],
      "name": "getRoleAdmin",
      "outputs": [
        {
          "internalType": "bytes32",
          "name": "",
          "type": "bytes32"
        }
      ],
      "stateMutability": "view",
      "type": "function"
    },
    {
      "inputs": [
        {
          "internalType": "bytes32",
          "name": "role",
          "type": "bytes32"
        },
        {
          "internalType": "address",
          "name": "account",
          "type": "address"
        }
      ],
      "name": "grantRole",
      "outputs": [],
      "stateMutability": "nonpayable",
      "type": "function"
    },
    {
      "inputs": [
        {
          "internalType": "bytes32",
          "name": "role",
          "type": "bytes32"
        },
        {
          "internalType": "address",
          "name": "account",
          "type": "address"
        }
      ],
      "name": "hasRole",
      "outputs": [
        {
          "internalType": "bool",
          "name": "",
          "type": "bool"
        }
      ],
      "stateMutability": "view",
      "type": "function"
    },
    {
      "inputs": [
        {
          "internalType": "bytes32",
          "name": "role",
          "type": "bytes32"
        },
        {
          "internalType": "address",
          "name": "callerConfirmation",
          "type": "address"
        }
      ],
      "name": "renounceRole",
      "outputs": [],
      "stateMutability": "nonpayable",
      "type": "function"
    },
    {
      "inputs": [
        {
          "internalType": "bytes32",
          "name": "role",
          "type": "bytes32"
        },
        {
          "internalType": "address",
          "name": "account",
          "type": "address"
        }
      ],
      "name": "revokeRole",
      "outputs": [],
      "stateMutability": "nonpayable",
      "type": "function"
    },
    {
      "inputs": [
        {
          "internalType": "bytes4",
          "name": "interfaceId",
          "type": "bytes4"
        }
      ],
      "name": "supportsInterface",
      "outputs": [
        {
          "internalType": "bool",
          "name": "",
          "type": "bool"
        }
      ],
      "stateMutability": "view",
      "type": "function"
    }
  ],
  "transactionHash": "0xa261a45ef997b39aec041c5af03230036976d3a3e4771d4a2536a0d41fa8daa2",
  "args": [
    "0x49c4D4C94829B9c44052C5f5Cb164Fc612181165"
  ],
  "numDeployments": 1,
  "solcInputHash": "e0183adddd83ab76f9d394e0821aa8c1",
  "bytecode": "0x608060405234801561001057600080fd5b50604051610de2380380610de283398101604081905261002f916100ed565b61003a600082610041565b505061011d565b6000828152602081815260408083206001600160a01b038516845290915281205460ff166100e3576000838152602081815260408083206001600160a01b03861684529091529020805460ff1916600117905561009b3390565b6001600160a01b0316826001600160a01b0316847f2f8788117e7eff1d82e926ec794901d17c78024a50270940304540a733656f0d60405160405180910390a45060016100e7565b5060005b92915050565b6000602082840312156100ff57600080fd5b81516001600160a01b038116811461011657600080fd5b9392505050565b610cb68061012c6000396000f3fe608060405234801561001057600080fd5b50600436106100a35760003560e01c80638045893911610076578063a217fddf1161005b578063a217fddf14610173578063d547741f1461017b578063f5b541a61461018e57600080fd5b8063804589391461012957806391d148541461013c57600080fd5b806301ffc9a7146100a8578063248a9ca3146100d05780632f2ff15d1461010157806336568abe14610116575b600080fd5b6100bb6100b63660046109c5565b6101b5565b60405190151581526020015b60405180910390f35b6100f36100de366004610a0e565b60009081526020819052604090206001015490565b6040519081526020016100c7565b61011461010f366004610a43565b61024e565b005b610114610124366004610a43565b610279565b610114610137366004610abb565b6102ca565b6100bb61014a366004610a43565b6000918252602082815260408084206001600160a01b0393909316845291905290205460ff1690565b6100f3600081565b610114610189366004610a43565b6107f6565b6100f37f97667070c54ef182b0f5858b034beac1b6f3089aa2d3188bb1e8929f4fa9b92981565b60007fffffffff0000000000000000000000000000000000000000000000000000000082167f7965db0b00000000000000000000000000000000000000000000000000000000148061024857507f01ffc9a7000000000000000000000000000000000000000000000000000000007fffffffff000000000000000000000000000000000000000000000000000000008316145b92915050565b6000828152602081905260409020600101546102698161081b565b6102738383610828565b50505050565b6001600160a01b03811633146102bb576040517f6697b23200000000000000000000000000000000000000000000000000000000815260040160405180910390fd5b6102c582826108d2565b505050565b7f97667070c54ef182b0f5858b034beac1b6f3089aa2d3188bb1e8929f4fa9b9296102f48161081b565b898814801561030257508786145b801561030d57508584145b801561031857508382145b6103695760405162461bcd60e51b815260206004820181905260248201527f417272617973206d7573742068617665207468652073616d65206c656e67746860448201526064015b60405180910390fd5b60005b8a8110156107e85783838281811061038657610386610bac565b905060200201602081019061039b9190610bdb565b1561056d5760005b8a8a838181106103b5576103b5610bac565b90506020028101906103c79190610bfd565b9050811015610567578c8c838181106103e2576103e2610bac565b90506020020160208101906103f79190610c65565b6001600160a01b031663f242432a338d8d8681811061041857610418610bac565b905060200281019061042a9190610bfd565b8581811061043a5761043a610bac565b905060200201602081019061044f9190610c65565b8c8c8781811061046157610461610bac565b90506020028101906104739190610bfd565b8681811061048357610483610bac565b905060200201358b8b8881811061049c5761049c610bac565b90506020028101906104ae9190610bfd565b878181106104be576104be610bac565b6040517fffffffff0000000000000000000000000000000000000000000000000000000060e089901b1681526001600160a01b03968716600482015295909416602486015250604484019190915260209091020135606482015260a06084820152600060a482015260c401600060405180830381600087803b15801561054357600080fd5b505af1158015610557573d6000803e3d6000fd5b5050600190920191506103a39050565b506107e0565b87878281811061057f5761057f610bac565b90506020028101906105919190610bfd565b90506001146106085760405162461bcd60e51b815260206004820152603360248201527f4552433732313a204f6e6c79206f6e6520746f6b656e2063616e20626520747260448201527f616e7366657272656420617420612074696d65000000000000000000000000006064820152608401610360565b89898281811061061a5761061a610bac565b905060200281019061062c9190610bfd565b90506001146106a35760405162461bcd60e51b815260206004820152602b60248201527f4552433732313a204f6e6c79206f6e6520726563697069656e742063616e206260448201527f65207370656369666965640000000000000000000000000000000000000000006064820152608401610360565b8b8b828181106106b5576106b5610bac565b90506020020160208101906106ca9190610c65565b6001600160a01b03166342842e0e338c8c858181106106eb576106eb610bac565b90506020028101906106fd9190610bfd565b600081811061070e5761070e610bac565b90506020020160208101906107239190610c65565b8b8b8681811061073557610735610bac565b90506020028101906107479190610bfd565b600081811061075857610758610bac565b6040517fffffffff0000000000000000000000000000000000000000000000000000000060e088901b1681526001600160a01b03958616600482015294909316602485015250602090910201356044820152606401600060405180830381600087803b1580156107c757600080fd5b505af11580156107db573d6000803e3d6000fd5b505050505b60010161036c565b505050505050505050505050565b6000828152602081905260409020600101546108118161081b565b61027383836108d2565b6108258133610955565b50565b6000828152602081815260408083206001600160a01b038516845290915281205460ff166108ca576000838152602081815260408083206001600160a01b03861684529091529020805460ff191660011790556108823390565b6001600160a01b0316826001600160a01b0316847f2f8788117e7eff1d82e926ec794901d17c78024a50270940304540a733656f0d60405160405180910390a4506001610248565b506000610248565b6000828152602081815260408083206001600160a01b038516845290915281205460ff16156108ca576000838152602081815260408083206001600160a01b0386168085529252808320805460ff1916905551339286917ff6391f5c32d9c69d2a47ea670b442974b53935d1edc7fd64eb21e047a839171b9190a4506001610248565b6000828152602081815260408083206001600160a01b038516845290915290205460ff166109c1576040517fe2517d3f0000000000000000000000000000000000000000000000000000000081526001600160a01b038216600482015260248101839052604401610360565b5050565b6000602082840312156109d757600080fd5b81357fffffffff0000000000000000000000000000000000000000000000000000000081168114610a0757600080fd5b9392505050565b600060208284031215610a2057600080fd5b5035919050565b80356001600160a01b0381168114610a3e57600080fd5b919050565b60008060408385031215610a5657600080fd5b82359150610a6660208401610a27565b90509250929050565b60008083601f840112610a8157600080fd5b50813567ffffffffffffffff811115610a9957600080fd5b6020830191508360208260051b8501011115610ab457600080fd5b9250929050565b60008060008060008060008060008060a08b8d031215610ada57600080fd5b8a3567ffffffffffffffff80821115610af257600080fd5b610afe8e838f01610a6f565b909c509a5060208d0135915080821115610b1757600080fd5b610b238e838f01610a6f565b909a50985060408d0135915080821115610b3c57600080fd5b610b488e838f01610a6f565b909850965060608d0135915080821115610b6157600080fd5b610b6d8e838f01610a6f565b909650945060808d0135915080821115610b8657600080fd5b50610b938d828e01610a6f565b915080935050809150509295989b9194979a5092959850565b7f4e487b7100000000000000000000000000000000000000000000000000000000600052603260045260246000fd5b600060208284031215610bed57600080fd5b81358015158114610a0757600080fd5b60008083357fffffffffffffffffffffffffffffffffffffffffffffffffffffffffffffffe1843603018112610c3257600080fd5b83018035915067ffffffffffffffff821115610c4d57600080fd5b6020019150600581901b3603821315610ab457600080fd5b600060208284031215610c7757600080fd5b610a0782610a2756fea264697066735822122015b33f68bfabc8304467c4008fc489e4863bcd4cb83bf15103737ff6a0aa017864736f6c63430008170033",
  "devdoc": {
    "custom:security-contact": "contact-blockchain@sandbox.game",
    "errors": {
      "AccessControlBadConfirmation()": [
        {
          "details": "The caller of a function is not the expected one. NOTE: Don't confuse with {AccessControlUnauthorizedAccount}."
        }
      ],
      "AccessControlUnauthorizedAccount(address,bytes32)": [
        {
          "details": "The `account` is missing a role."
        }
      ]
    },
    "events": {
      "RoleAdminChanged(bytes32,bytes32,bytes32)": {
        "details": "Emitted when `newAdminRole` is set as ``role``'s admin role, replacing `previousAdminRole` `DEFAULT_ADMIN_ROLE` is the starting admin for all roles, despite {RoleAdminChanged} not being emitted signaling this."
      },
      "RoleGranted(bytes32,address,address)": {
        "details": "Emitted when `account` is granted `role`. `sender` is the account that originated the contract call, an admin role bearer except when using {AccessControl-_setupRole}."
      },
      "RoleRevoked(bytes32,address,address)": {
        "details": "Emitted when `account` is revoked `role`. `sender` is the account that originated the contract call:   - if using `revokeRole`, it is the admin role bearer   - if using `renounceRole`, it is the role bearer (i.e. `account`)"
      }
    },
    "kind": "dev",
    "methods": {
      "getRoleAdmin(bytes32)": {
        "details": "Returns the admin role that controls `role`. See {grantRole} and {revokeRole}. To change a role's admin, use {_setRoleAdmin}."
      },
      "grantRole(bytes32,address)": {
        "details": "Grants `role` to `account`. If `account` had not been already granted `role`, emits a {RoleGranted} event. Requirements: - the caller must have ``role``'s admin role. May emit a {RoleGranted} event."
      },
      "hasRole(bytes32,address)": {
        "details": "Returns `true` if `account` has been granted `role`."
      },
      "renounceRole(bytes32,address)": {
        "details": "Revokes `role` from the calling account. Roles are often managed via {grantRole} and {revokeRole}: this function's purpose is to provide a mechanism for accounts to lose their privileges if they are compromised (such as when a trusted device is misplaced). If the calling account had been revoked `role`, emits a {RoleRevoked} event. Requirements: - the caller must be `callerConfirmation`. May emit a {RoleRevoked} event."
      },
      "revokeRole(bytes32,address)": {
        "details": "Revokes `role` from `account`. If `account` had been granted `role`, emits a {RoleRevoked} event. Requirements: - the caller must have ``role``'s admin role. May emit a {RoleRevoked} event."
      },
      "supportsInterface(bytes4)": {
        "details": "See {IERC165-supportsInterface}."
      }
    },
    "version": 1
  },
  "userdoc": {
    "kind": "user",
    "methods": {},
    "version": 1
  },
  "storageLayout": {
    "storage": [
      {
        "astId": 26,
        "contract": "@sandbox-smart-contracts/batch-transfers/contracts/BatchTransfer.sol:BatchTransfer",
        "label": "_roles",
        "offset": 0,
        "slot": "0",
        "type": "t_mapping(t_bytes32,t_struct(RoleData)21_storage)"
      }
    ],
    "types": {
      "t_address": {
        "encoding": "inplace",
        "label": "address",
        "numberOfBytes": "20"
      },
      "t_bool": {
        "encoding": "inplace",
        "label": "bool",
        "numberOfBytes": "1"
      },
      "t_bytes32": {
        "encoding": "inplace",
        "label": "bytes32",
        "numberOfBytes": "32"
      },
      "t_mapping(t_address,t_bool)": {
        "encoding": "mapping",
        "key": "t_address",
        "label": "mapping(address => bool)",
        "numberOfBytes": "32",
        "value": "t_bool"
      },
      "t_mapping(t_bytes32,t_struct(RoleData)21_storage)": {
        "encoding": "mapping",
        "key": "t_bytes32",
        "label": "mapping(bytes32 => struct AccessControl.RoleData)",
        "numberOfBytes": "32",
        "value": "t_struct(RoleData)21_storage"
      },
      "t_struct(RoleData)21_storage": {
        "encoding": "inplace",
        "label": "struct AccessControl.RoleData",
        "members": [
          {
            "astId": 18,
            "contract": "@sandbox-smart-contracts/batch-transfers/contracts/BatchTransfer.sol:BatchTransfer",
            "label": "hasRole",
            "offset": 0,
            "slot": "0",
            "type": "t_mapping(t_address,t_bool)"
          },
          {
            "astId": 20,
            "contract": "@sandbox-smart-contracts/batch-transfers/contracts/BatchTransfer.sol:BatchTransfer",
            "label": "adminRole",
            "offset": 0,
            "slot": "1",
            "type": "t_bytes32"
          }
        ],
        "numberOfBytes": "64"
      }
    }
  }
}